0168826780999992016010100004-06770-043020FM-12+012799999V0200501N0005100600199000200199+02951+02101100981ADDAA101999999AZ101061AZ201061GA1081+006001061GA2999+999999101GA3999+999999101GE19MSL   +99999+99999GF108991081999006001999999MA1999999099611MD1999999-0201REMSYN004BUFR
0181826780999992016010112004-06770-043020FM-12+012799999V0200501N0015100600199004000199+02721+02301101361ADDAA124000331AZ101061AZ201061GA1081+006001071GA2999+999999101GA3999+999999101GE19MSL   +99999+99999GF108991081999006001999999KA1120N+02461MA1999999099971MD1999999+0151REMSYN004BUFR
0136826780999992016010118004-06770-043020FM-12+012799999V0200901N0015199999999004000199+03371+02191100831ADDAA101999999AZ101061AZ201061GA1041+006001081GE19MSL   +99999+99999GF106991041999006001999999MA1999999099451MD1999999+0081REMSYN004BUFR
0152826780999992016010200004-06770-043020FM-12+012799999V0203601N0015199999999000200199+03091+02161101011ADDAA101999999AZ101061AZ201061GA1021+006001061GA2999+999999031GE19MSL   +99999+99999GF104991021999006001999999MA1999999099631MD1999999+0021REMSYN004BUFR
0181826780999992016010212004-06770-043020FM-12+012799999V0200501N0015100600199004000199+02951+02281101321ADDAA101999999AZ101061AZ201061GA1081+006001061GA2999+999999101GA3999+999999101GE19MSL   +99999+99999GF108991081999006001999999KA1120N+02481MA1999999099941MD1999999-0031REMSYN004BUFR
0136826780999992016010218004-06770-043020FM-12+012799999V0200501N0015100600199004000199+03621+01961100841ADDAA101999999AZ101061AZ201061GA1081+006001081GE19MSL   +99999+99999GF108991081999006001999999MA1999999099471MD1999999+0021REMSYN004BUFR
0104826780999992016010300004-06770-043020FM-12+012799999V0200701N0010122000199000200199+02691+02301100991ADDAA106000231AY161061AY211061GF100991999999999999999999MA1999999099601MD1999999+0031MW1021REMSYN004BUFR
0111826780999992016010312004-06770-043020FM-12+012799999V0203601N0010122000199004000199+03091+02231101251ADDAA124000231AZ101061AZ201061GF100991999999999999999999KA1120N+02481MA1999999099861MD1999999-0081REMSYN004BUFR
0136826780999992016010318004-06770-043020FM-12+012799999V0201401N0005100600199004000199+03751+02041100811ADDAA101999999AZ101061AZ201061GA1061+006001081GE19MSL   +99999+99999GF106991061999006001999999MA1999999099441MD1999999-0031REMSYN004BUFR
0136826780999992016010400004-06770-043020FM-12+012799999V0200501N0010199999999000200199+03251+02151100821ADDAA101999999AZ101061AZ201061GA1021+017501081GE19MSL   +99999+99999GF102991021999017501999999MA1999999099461MD1999999-0141REMSYN004BUFR
0165826780999992016010412004-06770-043020FM-12+012799999V0203601N0021100600199004000199+02921+02271101261ADDAA101999999AZ101061AZ201061GA1061+006001081GA2999+999999001GE19MSL   +99999+99999GF108991061999006001999999KA1120N+02641MA1999999099891MD1999999+0031REMSYN004BUFR
0168826780999992016010418004-06770-043020FM-12+012799999V0202301N0031100600199004000199+03571+02161100701ADDAA101999999AZ101061AZ201061GA1051+006001081GA2999+999999051GA3999+999999001GE19MSL   +99999+99999GF108991051999006001999999MA1999999099331MD1999999-0111REMSYN004BUFR
0136826780999992016010500004-06770-043020FM-12+012799999V0202301N0005100600199000200199+02991+02221101061ADDAA101999999AZ101061AZ201061GA1061+006001061GE19MSL   +99999+99999GF106991061999006001999999MA1999999099681MD1999999+0221REMSYN004BUFR
0187826780999992016010512004-06770-043020FM-12+012799999V0203601N0015100600199004000199+02441+02351101441ADDAA124016031AY161061AY221061GA1081+006001061GA2999+999999101GA3999+999999101GE19MSL   +99999+99999GF108991081999006001999999KA1120N+02321MA1999999100041MD1999999+0151MW1021REMSYN004BUFR
0136826780999992016010518004-06770-043020FM-12+012799999V0203201N0015100600199004000199+03041+02451101021ADDAA101999999AZ101061AZ201061GA1061+006001081GE19MSL   +99999+99999GF108991061999006001999999MA1999999099631MD1999999+0301REMSYN004BUFR
0136826780999992016010600004-06770-043020FM-12+012799999V0202701N0015100600199000200199+02921+02411101101ADDAA101999999AZ101061AZ201061GA1061+006001081GE19MSL   +99999+99999GF108991061999006001999999MA1999999099701MD1999999+0021REMSYN004BUFR
0181826780999992016010612004-06770-043020FM-12+012799999V0203601N0021100600199004000199+02821+02331101351ADDAA101999999AZ101061AZ201061GA1051+006001081GA2999+999999051GA3999+999999001GE19MSL   +99999+99999GF108991051999006001999999KA1120N+02401MA1999999099971MD1999999-0071REMSYN004BUFR
0168826780999992016010700004-06770-043020FM-12+012799999V0201801N0015100600199000200199+02621+02271101251ADDAA101999999AZ101061AZ201061GA1081+006001061GA2999+999999101GA3999+999999101GE19MSL   +99999+99999GF108991081999006001999999MA1999999099851MD1999999+0151REMSYN004BUFR
0187826780999992016010712004-06770-043020FM-12+012799999V0202701N0010100600199004000199+02421+02331101461ADDAA124004031AY161061AY211061GA1081+006001061GA2999+999999101GA3999+999999101GE19MSL   +99999+99999GF108991081999006001999999KA1120N+02401MA1999999100051MD1999999+0081MW1021REMSYN004BUFR
0142826780999992016010718004-06770-043020FM-12+012799999V0200501N0015199999999004000199+02691+02011101051ADDAA106008031AY161061AY261061GA1041+006001081GE19MSL   +99999+99999GF108991041999006001999999MA1999999099651MD1999999+0051MW1021REMSYN004BUFR
0168826780999992016010800004-06770-043020FM-12+012799999V0200901N0005100600199000200199+02641+02481101131ADDAA101999999AZ101061AZ201061GA1081+006001061GA2999+999999101GA3999+999999101GE19MSL   +99999+99999GF108991081999006001999999MA1999999099731MD1999999-0121REMSYN004BUFR
0181826780999992016010812004-06770-043020FM-12+012799999V0200501N0021100600199004000199+02541+02351101391ADDAA124008031AZ101061AZ201061GA1081+006001071GA2999+999999101GA3999+999999101GE19MSL   +99999+99999GF108991081999006001999999KA1120N+02381MA1999999099981MD1999999-0071REMSYN004BUFR
0168826780999992016010818004-06770-043020FM-12+012799999V0200901N0021100600199004000199+02671+02331101061ADDAA101999999AZ101061AZ201061GA1051+006001071GA2999+999999051GA3999+999999101GE19MSL   +99999+99999GF108991051999006001999999MA1999999099661MD1999999+0011REMSYN004BUFR
0152826780999992016010900004-06770-043020FM-12+012799999V0201801N0005199999999000200199+02521+02341101311ADDAA101999999AZ101061AZ201061GA1021+017501031GA2999+999999001GE19MSL   +99999+99999GF103991021999017501999999MA1999999099901MD1999999+0171REMSYN004BUFR
0181826780999992016010912004-06770-043020FM-12+012799999V0203601N0015199999999004000199+02651+02351101411ADDAA101999999AZ101061AZ201061GA1041+006001081GA2999+999999031GA3999+999999001GE19MSL   +99999+99999GF108991041999006001999999KA1120N+02351MA1999999100001MD1999999+0021REMSYN004BUFR
0136826780999992016010918004-06770-043020FM-12+012799999V0200901N0015100600199004000199+03321+02101101021ADDAA101999999AZ101061AZ201061GA1051+006001081GE19MSL   +99999+99999GF108991051999006001999999MA1999999099631MD1999999-0031REMSYN004BUFR
0098826780999992016011000004-06770-043020FM-12+012799999V0203601N0000122000199000200199+03021+02391101661ADDAA101999999AZ101061AZ201061GF100991999999999999999999MA1999999099731MD1999999-0171REMSYN004BUFR
0174826780999992016011018004-06770-043020FM-12+012799999V0200901N0015100600199004000199+03271+02131100951ADDAA106000331AY161061AY221061GA1051+006001071GA2999+999999051GA3999+999999001GE19MSL   +99999+99999GF108991051999006001999999MA1999999099561MD1999999-0071MW1021REMSYN004BUFR
0098826780999992016011100004-06770-043020FM-12+012799999V0203601N0000122000199000200199+02941+02431101121ADDAA101999999AZ101061AZ201061GF100991999999999999999999MA1999999099721MD1999999-0011REMSYN004BUFR
0181826780999992016011112004-06770-043020FM-12+012799999V0200501N0031199999999004000199+03101+02061101301ADDAA124000331AZ101061AZ201061GA1031+006001081GA2999+999999031GA3999+999999101GE19MSL   +99999+99999GF108991031999006001999999KA1120N+02471MA1999999099921MD1999999-0051REMSYN004BUFR
0136826780999992016011118004-06770-043020FM-12+012799999V0200501N0026100600199004000199+03541+02131100821ADDAA101999999AZ101061AZ201061GA1051+006001081GE19MSL   +99999+99999GF105991051999006001999999MA1999999099451MD1999999-0111REMSYN004BUFR
0152826780999992016011200004-06770-043020FM-12+012799999V0200901N0010199999999000200199+03071+02291100901ADDAA101999999AZ101061AZ201061GA1011+006001061GA2999+999999031GE19MSL   +99999+99999GF103991011999006001999999MA1999999099531MD1999999-0191REMSYN004BUFR
0181826780999992016011212004-06770-043020FM-12+012799999V0200501N0015100600199004000199+02971+02371101161ADDAA101999999AZ101061AZ201061GA1051+006001061GA2999+999999041GA3999+999999001GE19MSL   +99999+99999GF108991051999006001999999KA1120N+02611MA1999999099781MD1999999-0141REMSYN004BUFR
0152826780999992016011218004-06770-043020FM-12+012799999V0200901N0015199999999004000199+03671+02251100641ADDAA101999999AZ101061AZ201061GA1041+006001081GA2999+999999001GE19MSL   +99999+99999GF105991041999006001999999MA1999999099281MD1999999-0171REMSYN004BUFR
0152826780999992016011300004-06770-043020FM-12+012799999V0200501N0015199999999000200199+03141+02351100831ADDAA101999999AZ101061AZ201061GA1021+006001061GA2999+999999031GE19MSL   +99999+99999GF103991021999006001999999MA1999999099461MD1999999-0071REMSYN004BUFR
0187826780999992016011312004-06770-043020FM-12+012799999V0203201N0010100600199004000199+02751+02441101211ADDAA124005031AY161061AY221061GA1081+006001061GA2999+999999101GA3999+999999101GE19MSL   +99999+99999GF108991081999006001999999KA1120N+02401MA1999999099831MD1999999-0071MW1021REMSYN004BUFR
0168826780999992016011318004-06770-043020FM-12+012799999V0202701N0031100600199004000199+03051+02451100941ADDAA101999999AZ101061AZ201061GA1081+006001061GA2999+999999101GA3999+999999101GE19MSL   +99999+99999GF108991081999006001999999MA1999999099551MD1999999+0271REMSYN004BUFR
0174826780999992016011400004-06770-043020FM-12+012799999V0202701N0005100600199000200199+02271+02231101261ADDAA106048031AY161061AY211061GA1081+006001061GA2999+999999101GA3999+999999101GE19MSL   +99999+99999GF108991081999006001999999MA1999999099851MD1999999+0391MW1611REMSYN004BUFR
0187826780999992016011412004-06770-043020FM-12+012799999V0200501N0010100600199004000199+02391+02301101401ADDAA124066031AY161061AY221061GA1081+006001061GA2999+999999101GA3999+999999101GE19MSL   +99999+99999GF108991081999006001999999KA1120N+02211MA1999999099981MD1999999+0151MW1021REMSYN004BUFR
0152826780999992016011418004-06770-043020FM-12+012799999V0200901N0005100600199004000199+03071+02191101061ADDAA101999999AZ101061AZ201061GA1051+006001061GA2999+999999031GE19MSL   +99999+99999GF108991051999006001999999MA1999999099661MD1999999+0111REMSYN004BUFR
0152826780999992016011500004-06770-043020FM-12+012799999V0200901N0005199999999000200199+02741+02401101181ADDAA101999999AZ101061AZ201061GA1021+017501031GA2999+999999001GE19MSL   +99999+99999GF104991021999017501999999MA1999999099781MD1999999-0071REMSYN004BUFR
0181826780999992016011512004-06770-043020FM-12+012799999V0203601N0015199999999004000199+02821+02421101341ADDAA101999999AZ101061AZ201061GA1041+006001081GA2999+999999051GA3999+999999001GE19MSL   +99999+99999GF108991041999006001999999KA1120N+02421MA1999999099951MD1999999-0031REMSYN004BUFR
0174826780999992016011518004-06770-043020FM-12+012799999V0202701N0010100600199004000199+02541+02381101021ADDAA106049031AY161061AY221061GA1081+006001061GA2999+999999101GA3999+999999101GE19MSL   +99999+99999GF108991081999006001999999MA1999999099601MD1999999-0061MW1021REMSYN004BUFR
0152826780999992016011600004-06770-043020FM-12+012799999V0200901N0005100600199000200199+02621+02481101081ADDAA101999999AZ101061AZ201061GA1051+006001031GA2999+999999001GE19MSL   +99999+99999GF107991051999006001999999MA1999999099681MD1999999-0101REMSYN004BUFR
0181826780999992016011612004-06770-043020FM-12+012799999V0203601N0015100600199004000199+02841+02441101181ADDAA124049031AZ101061AZ201061GA1081+006001071GA2999+999999101GA3999+999999101GE19MSL   +99999+99999GF108991081999006001999999KA1120N+02381MA1999999099791MD1999999-0161REMSYN004BUFR
0168826780999992016011618004-06770-043020FM-12+012799999V0200901N0026100600199004000199+03321+02291100721ADDAA101999999AZ101061AZ201061GA1051+006001081GA2999+999999031GA3999+999999001GE19MSL   +99999+99999GF108991051999006001999999MA1999999099341MD1999999-0261REMSYN004BUFR
0136826780999992016011700004-06770-043020FM-12+012799999V0202701N0005199999999000200199+02941+02491100911ADDAA101999999AZ101061AZ201061GA1999+080001001GE19MSL   +99999+99999GF106991999999080001999999MA1999999099531MD1999999-0151REMSYN004BUFR
0187826780999992016011712004-06770-043020FM-12+012799999V0200901N0010100600199004000199+02321+02251101361ADDAA124020031AY161061AY231061GA1081+006001061GA2999+999999101GA3999+999999101GE19MSL   +99999+99999GF108991081999006001999999KA1120N+02281MA1999999099951MD1999999-0161MW1021REMSYN004BUFR
0174826780999992016011718004-06770-043020FM-12+012799999V0202701N0015100600199004000199+02551+02441101191ADDAA106003031AY161061AY211061GA1081+006001061GA2999+999999101GA3999+999999101GE19MSL   +99999+99999GF108991081999006001999999MA1999999099781MD1999999-0441MW1021REMSYN004BUFR
0136826780999992016011800004-06770-043020FM-12+012799999V0202701N0010199999999000200199+02541+02381101181ADDAA101999999AZ101061AZ201061GA1999+006001001GE19MSL   +99999+99999GF105991999999006001999999MA1999999099771MD1999999-0241REMSYN004BUFR
0181826780999992016011812004-06770-043020FM-12+012799999V0203601N0000100600199004000199+02551+02381101221ADDAA124003031AZ101061AZ201061GA1051+006001081GA2999+999999031GA3999+999999001GE19MSL   +99999+99999GF108991051999006001999999KA1120N+02321MA1999999099871MD1999999-0081REMSYN004BUFR
0168826780999992016011818004-06770-043020FM-12+012799999V0203601N0010100600199004000199+03071+02401100841ADDAA101999999AZ101061AZ201061GA1061+006001081GA2999+999999031GA3999+999999001GE19MSL   +99999+99999GF108991061999006001999999MA1999999099451MD1999999-0331REMSYN004BUFR
0174826780999992016011900004-06770-043020FM-12+012799999V0203601N0000100600199000200199+02771+02561101041ADDAA106001031AY161061AY221061GA1051+006001081GA2999+999999031GA3999+999999101GE19MSL   +99999+99999GF108991051999006001999999MA1999999099641MD1999999-0131MW1021REMSYN004BUFR
0187826780999992016011912004-06770-043020FM-12+012799999V0200501N0010100600199004000199+02321+02251101291ADDAA124055031AY161061AY261061GA1081+006001071GA2999+999999101GA3999+999999101GE19MSL   +99999+99999GF108991081999006001999999KA1120N+02291MA1999999099881MD1999999+0011MW1631REMSYN004BUFR
0174826780999992016011918004-06770-043020FM-12+012799999V0200501N0015100600199004000199+02641+02411100931ADDAA106019031AY161061AY261061GA1081+006001061GA2999+999999101GA3999+999999101GE19MSL   +99999+99999GF108991081999006001999999MA1999999099521MD1999999+0071MW1021REMSYN004BUFR
0168826780999992016012000004-06770-043020FM-12+012799999V0203601N0000100600199000200199+02551+02471101081ADDAA101999999AZ101061AZ201061GA1051+006001061GA2999+999999031GA3999+999999001GE19MSL   +99999+99999GF108991051999006001999999MA1999999099671MD1999999+0031REMSYN004BUFR
0187826780999992016012012004-06770-043020FM-12+012799999V0200901N0021100600199004000199+02441+02151101321ADDAA124022031AY161061AY261061GA1081+006001061GA2999+999999101GA3999+999999101GE19MSL   +99999+99999GF108991081999006001999999KA1120N+02301MA1999999099911MD1999999+0031MW1021REMSYN004BUFR
0163826780999992016012018004-06767-043017FM-12+012799999V0201801N001519999999N004000199+02801+02361100941ADDGA1061+008001081GE19MSL   +99999+99999GF108991061999008001999999MA1999999099541MD1999999+0021REMSYN05882678 32596 81803 10280 20236 39954 40094 86200 333 58002=
0168826780999992016012100004-06770-043020FM-12+012799999V0202301N0010199999999000500199+02621+02441101181ADDAA101999999AZ101061AZ201061GA1041+006001061GA2999+999999031GA3999+999999001GE19MSL   +99999+99999GF108991041999006001999999MA1999999099771MD1999999+0101REMSYN004BUFR
0187826780999992016012112004-06770-043020FM-12+012799999V0200901N0015100600199004000199+02621+02341101261ADDAA101999999AZ101061AZ201061GA1061+006001061GA2999+999999051GA3999+999999101GE19MSL   +99999+99999GF108991061999006001999999MA1999999099861MD1999999-0051REMSYN004BUFREQDQ0127    2EATMN 
0168826780999992016012118004-06770-043020FM-12+012799999V0203601N0015100600199004000199+02921+02321100901ADDAA101999999AZ101061AZ201061GA1051+006001061GA2999+999999051GA3999+999999101GE19MSL   +99999+99999GF108991051999006001999999MA1999999099501MD1999999-0041REMSYN004BUFR
0168826780999992016012200004-06770-043020FM-12+012799999V0203601N0015100600199004000199+02791+02341101201ADDAA101999999AZ101061AZ201061GA1081+006001061GA2999+999999101GA3999+999999101GE19MSL   +99999+99999GF108991081999006001999999MA1999999099801MD1999999+0031REMSYN004BUFR
0187826780999992016012212004-06770-043020FM-12+012799999V0200501N0010100600199004000199+02421+02331101401ADDAA124004031AY161061AY221061GA1081+006001061GA2999+999999101GA3999+999999101GE19MSL   +99999+99999GF108991081999006001999999KA1120N+02381MA1999999099991MD1999999-0131MW1021REMSYN004BUFR
0158826780999992016012218004-06770-043020FM-12+012799999V0201801N0005100600199004000199+02551+02421101171ADDAA106002031AY161061AY221061GA1051+006001061GA2999+999999051GE19MSL   +99999+99999GF108991051999006001999999MA1999999099761MD1999999+0261MW1021REMSYN004BUFR
0168826780999992016012300004-06770-043020FM-12+012799999V0201801N0005199999999000200199+02471+02371101361ADDAA101999999AZ101061AZ201061GA1041+006001061GA2999+999999031GA3999+999999001GE19MSL   +99999+99999GF108991041999006001999999MA1999999099951MD1999999+0151REMSYN004BUFR
0181826780999992016012312004-06770-043020FM-12+012799999V0203601N0000100600199004000199+02591+02351101551ADDAA124002031AZ101061AZ201061GA1061+006001061GA2999+999999051GA3999+999999101GE19MSL   +99999+99999GF108991061999006001999999KA1120N+02401MA1999999100141MD1999999+0151REMSYN004BUFR
0168826780999992016012318004-06770-043020FM-12+012799999V0203201N0010199999999004000199+03291+02241101001ADDAA101999999AZ101061AZ201061GA1031+006001081GA2999+999999051GA3999+999999001GE19MSL   +99999+99999GF106991031999006001999999MA1999999099611MD1999999-0151REMSYN004BUFR
0174826780999992016012400004-06770-043020FM-12+012799999V0202701N0005100600199000200199+02541+02451101341ADDAA106005031AY191061AY221061GA1081+006001071GA2999+999999101GA3999+999999101GE19MSL   +99999+99999GF108991081999006001999999MA1999999099931MD1999999-0021MW1211REMSYN004BUFR
0187826780999992016012412004-06770-043020FM-12+012799999V0200501N0015100600199004000199+02471+02391101581ADDAA124031031AY161061AY261061GA1081+006001071GA2999+999999101GA3999+999999101GE19MSL   +99999+99999GF108991081999006001999999KA1120N+02341MA1999999100171MD1999999+0031MW1511REMSYN004BUFR
0136826780999992016012418004-06770-043020FM-12+012799999V0200901N0005199999999004000199+02771+02361101251ADDAA101999999AZ101061AZ201061GA1041+006001061GE19MSL   +99999+99999GF108991041999006001999999MA1999999099841MD1999999+0231REMSYN004BUFR
0136826780999992016012500004-06770-043020FM-12+012799999V0200501N0005199999999000200199+02651+02481101281ADDAA101999999AZ101061AZ201061GA1031+017501081GE19MSL   +99999+99999GF105991031999017501999999MA1999999099871MD1999999+0061REMSYN004BUFR
0181826780999992016012512004-06770-043020FM-12+012799999V0200901N0010100600199004000199+02671+02431101421ADDAA101999999AZ101061AZ201061GA1051+006001081GA2999+999999031GA3999+999999001GE19MSL   +99999+99999GF108991051999006001999999KA1120N+02441MA1999999100021MD1999999-0151REMSYN004BUFR
0136826780999992016012518004-06770-043020FM-12+012799999V0200501N0005100600199004000199+03271+02431101061ADDAA101999999AZ101061AZ201061GA1061+006001081GE19MSL   +99999+99999GF108991061999006001999999MA1999999099671MD1999999-0171REMSYN004BUFR
0152826780999992016012600004-06770-043020FM-12+012799999V0200501N0015199999999000200199+02841+02351101271ADDAA101999999AZ101061AZ201061GA1031+017501031GA2999+999999001GE19MSL   +99999+99999GF105991031999017501999999MA1999999099871MD1999999+0001REMSYN004BUFR
0149826780999992016012612004-06770-043020FM-12+012799999V0200501N0010199999999004000199+02791+02441101411ADDAA101999999AZ101061AZ201061GA1031+006001081GE19MSL   +99999+99999GF108991031999006001999999KA1120N+02561MA1999999100031MD1999999+0011REMSYN004BUFR
0136826780999992016012618004-06770-043020FM-12+012799999V0200901N0015100600199004000199+03351+02391100941ADDAA101999999AZ101061AZ201061GA1061+006001081GE19MSL   +99999+99999GF108991061999006001999999MA1999999099561MD1999999-0111REMSYN004BUFR
0174826780999992016012700004-06770-043020FM-12+012799999V0201801N0010100600199000200199+02521+02381101151ADDAA106014031AY161061AY221061GA1081+006001061GA2999+999999101GA3999+999999101GE19MSL   +99999+99999GF108991081999006001999999MA1999999099751MD1999999-0121MW1021REMSYN004BUFR
0187826780999992016012712004-06770-043020FM-12+012799999V0200501N0015100600199004000199+02541+02421101391ADDAA124018031AY121061AY261061GA1081+006001071GA2999+999999101GA3999+999999101GE19MSL   +99999+99999GF108991081999006001999999KA1120N+02401MA1999999099981MD1999999-0051MW1021REMSYN004BUFR
0158826780999992016012718004-06770-043020FM-12+012799999V0202701N0015100600199004000199+02601+02401101151ADDAA106000631AY151061AY251061GA1061+006001071GA2999+999999051GE19MSL   +99999+99999GF108991061999006001999999MA1999999099741MD1999999+0181MW1511REMSYN004BUFR
0136826780999992016012800004-06770-043020FM-12+012799999V0202301N0005100600199000200199+02491+02401101301ADDAA101999999AZ101061AZ201061GA1061+006001061GE19MSL   +99999+99999GF106991061999006001999999MA1999999099891MD1999999+0141REMSYN004BUFR
0181826780999992016012812004-06770-043020FM-12+012799999V0202701N0015100600199004000199+02421+02231101591ADDAA124000631AZ101061AZ201061GA1081+006001071GA2999+999999101GA3999+999999101GE19MSL   +99999+99999GF108991081999006001999999KA1120N+02331MA1999999100171MD1999999+0191REMSYN004BUFR
0136826780999992016012818004-06770-043020FM-12+012799999V0202701N0010100600199004000199+02871+02281101171ADDAA101999999AZ101061AZ201061GA1051+006001081GE19MSL   +99999+99999GF108991051999006001999999MA1999999099771MD1999999+0031REMSYN004BUFR
0152826780999992016012900004-06770-043020FM-12+012799999V0201401N0005100600199000200199+02571+02331101341ADDAA101999999AZ101061AZ201061GA1061+006001061GA2999+999999051GE19MSL   +99999+99999GF108991061999006001999999MA1999999099931MD1999999+0041REMSYN004BUFR
0181826780999992016012912004-06770-043020FM-12+012799999V0203601N0000100600199004000199+02491+02211101431ADDAA101999999AZ101061AZ201061GA1081+006001071GA2999+999999101GA3999+999999101GE19MSL   +99999+99999GF108991081999006001999999KA1120N+02401MA1999999100021MD1999999-0151REMSYN004BUFR
0136826780999992016012918004-06770-043020FM-12+012799999V0200501N0015100600199004000199+03121+02361101021ADDAA101999999AZ101061AZ201061GA1051+006001081GE19MSL   +99999+99999GF108991051999006001999999MA1999999099631MD1999999-0141REMSYN004BUFR
0098826780999992016013000004-06770-043020FM-12+012799999V0203601N0000122000199000200199+02771+02421101121ADDAA101999999AZ101061AZ201061GF100991999999999999999999MA1999999099721MD1999999-0211REMSYN004BUFR
0149826780999992016013012004-06770-043020FM-12+012799999V0201401N0026199999999004000199+02821+01861101311ADDAA101999999AZ101061AZ201061GA1021+017501031GE19MSL   +99999+99999GF102991021999017501999999KA1120N+02241MA1999999099921MD1999999-0101REMSYN004BUFR
0168826780999992016013018004-06770-043020FM-12+012799999V0200901N0015199999999004000199+03341+01631101001ADDAA101999999AZ101061AZ201061GA1031+006001081GA2999+999999031GA3999+999999001GE19MSL   +99999+99999GF105991031999006001999999MA1999999099611MD1999999-0021REMSYN004BUFR
0152826780999992016013100004-06770-043020FM-12+012799999V0203601N0000199999999000200199+02741+02321101161ADDAA101999999AZ101061AZ201061GA1021+006001031GA2999+999999001GE19MSL   +99999+99999GF103991021999006001999999MA1999999099771MD1999999-0021REMSYN004BUFR
0165826780999992016013112004-06770-043020FM-12+012799999V0201401N0026101750199004000199+02741+01971101431ADDAA101999999AZ101061AZ201061GA1051+017501051GA2999+999999001GE19MSL   +99999+99999GF108991051999017501999999KA1120N+02361MA1999999100031MD1999999+0111REMSYN004BUFR
0174826780999992016013118004-06770-043020FM-12+012799999V0200501N0031100600199004000199+02841+02141101121ADDAA106000331AY121061AY221061GA1061+006001081GA2999+999999051GA3999+999999001GE19MSL   +99999+99999GF108991061999006001999999MA1999999099721MD1999999+0111MW1601REMSYN004BUFR
0152826780999992016020100004-06770-043020FM-12+012799999V0200901N0015199999999000200199+02551+02171101321ADDAA101999999AZ101061AZ201061GA1021+017501031GA2999+999999001GE19MSL   +99999+99999GF103991021999017501999999MA1999999099921MD1999999+0151REMSYN004BUFR
0181826780999992016020112004-06770-043020FM-12+012799999V0200901N0021100600199004000199+02471+02191101651ADDAA124000431AZ101061AZ201061GA1061+006001071GA2999+999999051GA3999+999999101GE19MSL   +99999+99999GF108991061999006001999999KA1120N+02341MA1999999100241MD1999999+0211REMSYN004BUFR
0152826780999992016020118004-06770-043020FM-12+012799999V0200901N0021100600199004000199+03241+02061101051ADDAA101999999AZ101061AZ201061GA1051+006001081GA2999+999999001GE19MSL   +99999+99999GF108991051999006001999999MA1999999099661MD1999999-0061REMSYN004BUFR
0136826780999992016020200004-06770-043020FM-12+012799999V0201401N0010101750199000200199+02641+02031101331ADDAA101999999AZ101061AZ201061GA1061+017501081GE19MSL   +99999+99999GF108991061999017501999999MA1999999099921MD1999999+0001REMSYN004BUFR
0187826780999992016020212004-06770-043020FM-12+012799999V0201801N0010100600199004000199+02471+02291101421ADDAA124008031AY161061AY211061GA1051+006001071GA2999+999999051GA3999+999999101GE19MSL   +99999+99999GF108991051999006001999999KA1120N+02261MA1999999100011MD1999999-0231MW1021REMSYN004BUFR
0136826780999992016020218004-06770-043020FM-12+012799999V0201801N0010199999999004000199+02941+02311101051ADDAA101999999AZ101061AZ201061GA1041+006001081GE19MSL   +99999+99999GF108991041999006001999999MA1999999099651MD1999999-0011REMSYN004BUFR
0168826780999992016020300004-06770-043020FM-12+012799999V0203601N0000100600199000200199+02621+02411101171ADDAA101999999AZ101061AZ201061GA1081+006001061GA2999+999999101GA3999+999999101GE19MSL   +99999+99999GF108991081999006001999999MA1999999099761MD1999999-0161REMSYN004BUFR
0181826780999992016020312004-06770-043020FM-12+012799999V0200901N0005100600199004000199+02551+02291101341ADDAA101999999AZ101061AZ201061GA1081+006001061GA2999+999999101GA3999+999999101GE19MSL   +99999+99999GF108991081999006001999999KA1120N+02381MA1999999099941MD1999999-0071REMSYN004BUFR
0098826780999992016020400004-06770-043020FM-12+012799999V0203601N0000122000199000200199+02551+02191101161ADDAA101999999AZ101061AZ201061GF100991999999999999999999MA1999999099751MD1999999-0011REMSYN004BUFR
0149826780999992016020412004-06770-043020FM-12+012799999V0200901N0010100600199010000199+02491+02321101281ADDAA101999999AZ101061AZ201061GA1061+006001081GE19MSL   +99999+99999GF108991061999006001999999KA1120N+02281MA1999999099871MD1999999-0071REMSYN004BUFR
0168826780999992016020418004-06770-043020FM-12+012799999V0201401N0015100600199004000199+03341+02151100951ADDAA101999999AZ101061AZ201061GA1051+006001091GA2999+999999041GA3999+999999001GE19MSL   +99999+99999GF108991051999006001999999MA1999999099561MD1999999-0021REMSYN004BUFR
0152826780999992016020500004-06770-043020FM-12+012799999V0203601N0000199999999000200199+02651+02371101121ADDAA101999999AZ101061AZ201061GA1031+006001061GA2999+999999001GE19MSL   +99999+99999GF105991031999006001999999MA1999999099721MD1999999-0031REMSYN004BUFR
0165826780999992016020512004-06770-043020FM-12+012799999V0201401N0026199999999004000199+02851+02161101391ADDAA101999999AZ101061AZ201061GA1021+006001081GA2999+999999041GE19MSL   +99999+99999GF106991021999006001999999KA1120N+02281MA1999999099991MD1999999+0121REMSYN004BUFR
0152826780999992016020518004-06770-043020FM-12+012799999V0201401N0036199999999004000199+03401+01961101111ADDAA101999999AZ101061AZ201061GA1031+006001081GA2999+999999001GE19MSL   +99999+99999GF105991031999006001999999MA1999999099721MD1999999+0161REMSYN004BUFR
0165826780999992016020612004-06770-043020FM-12+012799999V0200901N0026199999999004000199+03021+02041101431ADDAA101999999AZ101061AZ201061GA1031+017501031GA2999+999999001GE19MSL   +99999+99999GF106991031999017501999999KA1120N+02341MA1999999100051MD1999999+0061REMSYN004BUFR
0152826780999992016020618004-06770-043020FM-12+012799999V0201401N0015199999999004000199+03421+02091101201ADDAA101999999AZ101061AZ201061GA1041+006001081GA2999+999999001GE19MSL   +99999+99999GF107991041999006001999999MA1999999099811MD1999999+0091REMSYN004BUFR
0111826780999992016020712004-06770-043020FM-12+012799999V0201401N0026122000199004000199+02941+02031101381ADDAA101999999AZ101061AZ201061GF100991999999999999999999KA1120N+02241MA1999999099991MD1999999-0061REMSYN004BUFR
0136826780999992016020718004-06770-043020FM-12+012799999V0200901N0026199999999004000199+03471+01961101051ADDAA101999999AZ101061AZ201061GA1041+006001081GE19MSL   +99999+99999GF104991041999006001999999MA1999999099661MD1999999-0151REMSYN004BUFR
0111826780999992016020812004-06770-043020FM-12+012799999V0200901N0015122000199004000199+02941+02031101521ADDAA101999999AZ101061AZ201061GF100991999999999999999999KA1120N+02291MA1999999100131MD1999999+0141REMSYN004BUFR
0136826780999992016020818004-06770-043020FM-12+012799999V0200901N0015199999999004000199+03451+01941101211ADDAA101999999AZ101061AZ201061GA1041+006001081GE19MSL   +99999+99999GF104991041999006001999999MA1999999099821MD1999999+0161REMSYN004BUFR
0111826780999992016020912004-06770-043020FM-12+012799999V0203601N0000122000199004000199+02841+02141101561ADDAA101999999AZ101061AZ201061GF100991999999999999999999KA1120N+02231MA1999999100171MD1999999+0041REMSYN004BUFR
0152826780999992016020918004-06770-043020FM-12+012799999V0200501N0010199999999004000199+03451+01981101251ADDAA101999999AZ101061AZ201061GA1021+006001081GA2999+999999001GE19MSL   +99999+99999GF104991021999006001999999MA1999999099861MD1999999+0041REMSYN004BUFR
0165826780999992016021012004-06770-043020FM-12+012799999V0203601N0005199999999004000199+02871+02251101521ADDAA101999999AZ101061AZ201061GA1031+006001061GA2999+999999031GE19MSL   +99999+99999GF105991031999006001999999KA1120N+02421MA1999999100131MD1999999-0041REMSYN004BUFR
0136826780999992016021018004-06770-043020FM-12+012799999V0201801N0010100600199004000199+03351+02241101141ADDAA101999999AZ101061AZ201061GA1051+006001061GE19MSL   +99999+99999GF105991051999006001999999MA1999999099751MD1999999-0111REMSYN004BUFR
0174826780999992016021100004-06770-043020FM-12+012799999V0203601N0005100600199000200199+02421+02331101361ADDAA106032031AY161061AY221061GA1061+006001061GA2999+999999051GA3999+999999101GE19MSL   +99999+99999GF108991061999006001999999MA1999999099961MD1999999+0081MW1021REMSYN004BUFR
0149826780999992016021112004-06770-043020FM-12+012799999V0203201N0005199999999004000199+02641+02391101431ADDAA124032031AZ101061AZ201061GA1031+006001081GE19MSL   +99999+99999GF103991031999006001999999KA1120N+02301MA1999999100021MD1999999-0111REMSYN004BUFR
0136826780999992016021118004-06770-043020FM-12+012799999V0202701N0005199999999004000199+03421+02231100991ADDAA101999999AZ101061AZ201061GA1041+006001081GE19MSL   +99999+99999GF104991041999006001999999MA1999999099601MD1999999-0151REMSYN004BUFR
0098826780999992016021200004-06770-043020FM-12+012799999V0200901N0005122000199000200199+02721+02261101081ADDAA101999999AZ101061AZ201061GF100991999999999999999999MA1999999099681MD1999999-0281REMSYN004BUFR
0181826780999992016021212004-06770-043020FM-12+012799999V0203601N0000100600199004000199+02621+02351101381ADDAA101999999AZ101061AZ201061GA1051+006001061GA2999+999999051GA3999+999999001GE19MSL   +99999+99999GF108991051999006001999999KA1120N+02481MA1999999099981MD1999999-0041REMSYN004BUFR
0168826780999992016021218004-06770-043020FM-12+012799999V0202701N0010100600199004000199+03271+02341100941ADDAA101999999AZ101061AZ201061GA1061+006001081GA2999+999999031GA3999+999999001GE19MSL   +99999+99999GF108991061999006001999999MA1999999099561MD1999999-0041REMSYN004BUFR
0168826780999992016021300004-06770-043020FM-12+012799999V0202701N0015100600199000200199+02921+02431101151ADDAA101999999AZ101061AZ201061GA1061+006001061GA2999+999999051GA3999+999999101GE19MSL   +99999+99999GF108991061999006001999999MA1999999099761MD1999999+0081REMSYN004BUFR
0187826780999992016021312004-06770-043020FM-12+012799999V0200901N0010100600199004000199+02321+02201101501ADDAA124002031AY161061AY211061GA1081+006001061GA2999+999999101GA3999+999999101GE19MSL   +99999+99999GF108991081999006001999999KA1120N+02281MA1999999100091MD1999999+0111MW1021REMSYN004BUFR
0174826780999992016021318004-06770-043020FM-12+012799999V0203201N0005100600199004000199+02651+02351101151ADDAA106002031AY161061AY221061GA1051+006001061GA2999+999999051GA3999+999999101GE19MSL   +99999+99999GF108991051999006001999999MA1999999099741MD1999999+0181MW1021REMSYN004BUFR
0168826780999992016021400004-06770-043020FM-12+012799999V0203601N0000199999999000200199+02571+02441101291ADDAA101999999AZ101061AZ201061GA1031+006001061GA2999+999999051GA3999+999999101GE19MSL   +99999+99999GF104991031999006001999999MA1999999099881MD1999999+0121REMSYN004BUFR
0165826780999992016021412004-06770-043020FM-12+012799999V0203201N0005100600199004000199+02651+02431101321ADDAA124002031AZ101061AZ201061GA1061+006001061GA2999+999999001GE19MSL   +99999+99999GF108991061999006001999999KA1120N+02281MA1999999099921MD1999999-0171REMSYN004BUFR
0174826780999992016021418004-06770-043020FM-12+012799999V0201801N0010100600199004000199+02691+02451101081ADDAA106000231AY161061AY221061GA1061+006001061GA2999+999999051GA3999+999999101GE19MSL   +99999+99999GF108991061999006001999999MA1999999099651MD1999999-0071MW1611REMSYN004BUFR
0158826780999992016021500004-06770-043020FM-12+012799999V0201801N0005199999999000200199+02471+02171101171ADDAA106000231AY161061AY221061GA1041+006001061GA2999+999999031GE19MSL   +99999+99999GF105991041999006001999999MA1999999099761MD1999999-0121MW1021REMSYN004BUFR
0136826780999992016021518004-06770-043020FM-12+012799999V0201401N0015100600199004000199+03341+02151101001ADDAA101999999AZ101061AZ201061GA1051+006001081GE19MSL   +99999+99999GF105991051999006001999999MA1999999099611MD1999999-0061REMSYN004BUFR
0136826780999992016021600004-06770-043020FM-12+012799999V0200501N0015199999999000200199+02891+02481100901ADDAA101999999AZ101061AZ201061GA1041+017501031GE19MSL   +99999+99999GF104991041999017501999999MA1999999099511MD1999999-0251REMSYN004BUFR
0181826780999992016021612004-06770-043020FM-12+012799999V0202701N0005199999999004000199+02791+02401101311ADDAA101999999AZ101061AZ201061GA1041+006001061GA2999+999999031GA3999+999999001GE19MSL   +99999+99999GF106991041999006001999999KA1120N+02321MA1999999099911MD1999999-0061REMSYN004BUFR
0168826780999992016021618004-06770-043020FM-12+012799999V0200901N0010100600199004000199+03351+02241100921ADDAA101999999AZ101061AZ201061GA1061+006001081GA2999+999999031GA3999+999999001GE19MSL   +99999+99999GF108991061999006001999999MA1999999099551MD1999999-0061REMSYN004BUFR
0098826780999992016021700004-06770-043020FM-12+012799999V0201801N0015122000199000200199+03041+02281100991ADDAA101999999AZ101061AZ201061GF100991999999999999999999MA1999999099611MD1999999+0101REMSYN004BUFR
0111826780999992016021712004-06770-043020FM-12+012799999V0200901N0026122000199004000199+02871+02131101181ADDAA101999999AZ101061AZ201061GF100991999999999999999999KA1120N+02361MA1999999099791MD1999999-0121REMSYN004BUFR
0136826780999992016021718004-06770-043020FM-12+012799999V0200901N0036199999999004000199+03421+01911100901ADDAA101999999AZ101061AZ201061GA1999+017501001GE19MSL   +99999+99999GF102991999999017501999999MA1999999099521MD1999999-0031REMSYN004BUFR
0098826780999992016021800004-06770-043020FM-12+012799999V0203601N0000122000199000200199+02851+02331101101ADDAA101999999AZ101061AZ201061GF100991999999999999999999MA1999999099711MD1999999+0101REMSYN004BUFR
0182826780999992016021812004-06767-043017FM-12+012799999V0202301N000519999999N004000199+02721+02171101291ADDGA1041+017501031GE19MSL   +99999+99999GF104991041999017501999999KA1240N+02261MA1999999099901MD1999999+0111REMSYN06482678 32796 42301 10272 20217 39990 40129 84030 333 20226 58011=
0136826780999992016021818004-06770-043020FM-12+012799999V0201401N0015100600199004000199+03421+02091100951ADDAA101999999AZ101061AZ201061GA1051+006001081GE19MSL   +99999+99999GF105991051999006001999999MA1999999099561MD1999999+0041REMSYN004BUFR
0098826780999992016021900004-06770-043020FM-12+012799999V0203601N0000122000199000200199+02921+02341100961ADDAA101999999AZ101061AZ201061GF100991999999999999999999MA1999999099571MD1999999-0141REMSYN004BUFR
0165826780999992016021912004-06770-043020FM-12+012799999V0203601N0005199999999004000199+02941+02361101251ADDAA101999999AZ101061AZ201061GA1021+006001081GA2999+999999031GE19MSL   +99999+99999GF105991021999006001999999KA1120N+02461MA1999999099871MD1999999-0031REMSYN004BUFR
0136826780999992016021918004-06770-043020FM-12+012799999V0200901N0026100600199004000199+03321+02321100941ADDAA101999999AZ101061AZ201061GA1051+006001081GE19MSL   +99999+99999GF106991051999006001999999MA1999999099561MD1999999+0001REMSYN004BUFR
0136826780999992016022000004-06770-043020FM-12+012799999V0203601N0000199999999000200199+02921+02411100981ADDAA101999999AZ101061AZ201061GA1031+017501081GE19MSL   +99999+99999GF103991031999017501999999MA1999999099601MD1999999+0031REMSYN004BUFR
0181826780999992016022012004-06770-043020FM-12+012799999V0200901N0005100600199004000199+02791+02271101341ADDAA101999999AZ101061AZ201061GA1061+006001061GA2999+999999031GA3999+999999001GE19MSL   +99999+99999GF108991061999006001999999KA1120N+02481MA1999999099951MD1999999+0081REMSYN004BUFR
0168826780999992016022018004-06770-043020FM-12+012799999V0200901N0010100600199004000199+03221+02201100991ADDAA101999999AZ101061AZ201061GA1051+006001061GA2999+999999031GA3999+999999001GE19MSL   +99999+99999GF108991051999006001999999MA1999999099601MD1999999+0041REMSYN004BUFR
0136826780999992016022100004-06770-043020FM-12+012799999V0201801N0010199999999000200199+02821+02241101031ADDAA101999999AZ101061AZ201061GA1041+017501001GE19MSL   +99999+99999GF104991041999017501999999MA1999999099641MD1999999+0041REMSYN004BUFR
0111826780999992016022112004-06770-043020FM-12+012799999V0201801N0010122000199004000199+02821+02151101181ADDAA101999999AZ101061AZ201061GF100991999999999999999999KA1120N+02301MA1999999099791MD1999999-0161REMSYN004BUFR
0168826780999992016022118004-06770-043020FM-12+012799999V0201801N0010199999999004000199+03521+01911101451ADDAA101999999AZ101061AZ201061GA1031+006001081GA2999+999999031GA3999+999999001GE19MSL   +99999+99999GF105991031999006001999999MA1999999099401MD1999999-0201REMSYN004BUFR
0152826780999992016022200004-06770-043020FM-12+012799999V0201801N0010199999999000200199+02921+02041100831ADDAA101999999AZ101061AZ201061GA1021+017501031GA2999+999999001GE19MSL   +99999+99999GF103991021999017501999999MA1999999099451MD1999999-0191REMSYN004BUFR
0149826780999992016022212004-06770-043020FM-12+012799999V0201401N0026199999999004000199+02971+02061101151ADDAA101999999AZ101061AZ201061GA1031+017501031GE19MSL   +99999+99999GF103991031999017501999999KA1120N+02461MA1999999099771MD1999999-0021REMSYN004BUFR
0136826780999992016022218004-06770-043020FM-12+012799999V0200901N0015100600199004000199+03441+02001100841ADDAA101999999AZ101061AZ201061GA1051+006001081GE19MSL   +99999+99999GF105991051999006001999999MA1999999099941MD1999999+0061REMSYN004BUFR
0136826780999992016022300004-06770-043020FM-12+012799999V0201401N0015101750199000200199+03021+02041100841ADDAA101999999AZ101061AZ201061GA1051+017501031GE19MSL   +99999+99999GF105991051999017501999999MA1999999099461MD1999999+0011REMSYN004BUFR
0111826780999992016022312004-06770-043020FM-12+012799999V0201401N0026122000199004000199+02991+01941101331ADDAA101999999AZ101061AZ201061GF100991999999999999999999KA1120N+02401MA1999999099951MD1999999+0181REMSYN004BUFR
0136826780999992016022318004-06770-043020FM-12+012799999V0201401N0015100600199004000199+03491+02091101001ADDAA101999999AZ101061AZ201061GA1051+006001081GE19MSL   +99999+99999GF105991051999006001999999MA1999999099621MD1999999+0161REMSYN004BUFR
0136826780999992016022400004-06770-043020FM-12+012799999V0201401N0010101750199000200199+03141+02101101061ADDAA101999999AZ101061AZ201061GA1051+017501031GE19MSL   +99999+99999GF105991051999017501999999MA1999999099681MD1999999+0221REMSYN004BUFR
0171826780999992016022412004-06770-043020FM-12+012799999V0201801N0015199999999004000199+02791+02341101241ADDAA124000531AY161061AY221061GA1031+006001081GA2999+999999031GE19MSL   +99999+99999GF105991031999006001999999KA1120N+02441MA1999999099861MD1999999-0091MW1011REMSYN004BUFR
0152826780999992016022418004-06770-043020FM-12+012799999V0200901N0015100600199004000199+03491+02161100881ADDAA101999999AZ101061AZ201061GA1061+006001081GA2999+999999031GE19MSL   +99999+99999GF108991061999006001999999MA1999999099801MD1999999-0121REMSYN004BUFR
0098826780999992016022500004-06770-043020FM-12+012799999V0200901N0010122000199000200199+02971+02371100981ADDAA101999999AZ101061AZ201061GF100991999999999999999999MA1999999099601MD1999999-0081REMSYN004BUFR
0165826780999992016022512004-06770-043020FM-12+012799999V0200901N0010199999999004000199+02851+02441101241ADDAA101999999AZ101061AZ201061GA1031+006001081GA2999+999999001GE19MSL   +99999+99999GF105991031999006001999999KA1120N+02501MA1999999099851MD1999999-0011REMSYN004BUFR
0136826780999992016022518004-06770-043020FM-12+012799999V0201801N0005199999999004000199+03521+02221100781ADDAA101999999AZ101061AZ201061GA1041+006001081GE19MSL   +99999+99999GF104991041999006001999999MA1999999099411MD1999999-0091REMSYN004BUFR
0136826780999992016022600004-06770-043020FM-12+012799999V0203601N0015101750199000200199+03021+02481100881ADDAA101999999AZ101061AZ201061GA1081+017501031GE19MSL   +99999+99999GF108991081999017501999999MA1999999099501MD1999999-0101REMSYN004BUFR
0181826780999992016022612004-06770-043020FM-12+012799999V0200901N0005199999999004000199+02851+02281101131ADDAA101999999AZ101061AZ201061GA1041+006001061GA2999+999999031GA3999+999999001GE19MSL   +99999+99999GF106991041999006001999999KA1120N+02421MA1999999099751MD1999999-0101REMSYN004BUFR
0152826780999992016022618004-06770-043020FM-12+012799999V0201401N0005199999999004000199+03491+02231100821ADDAA101999999AZ101061AZ201061GA1041+006001061GA2999+999999001GE19MSL   +99999+99999GF107991041999006001999999MA1999999099441MD1999999+0031REMSYN004BUFR
0152826780999992016022700004-06770-043020FM-12+012799999V0200901N0005199999999000200199+03041+02551100891ADDAA101999999AZ101061AZ201061GA1041+006001061GA2999+999999031GE19MSL   +99999+99999GF106991041999006001999999MA1999999099511MD1999999+0011REMSYN004BUFR
0165826780999992016022712004-06770-043020FM-12+012799999V0203601N0000199999999004000199+02891+02411101251ADDAA101999999AZ101061AZ201061GA1021+050001031GA2999+999999001GE19MSL   +99999+99999GF104991021999050001999999KA1120N+02401MA1999999099871MD1999999+0121REMSYN004BUFR
0152826780999992016022718004-06770-043020FM-12+012799999V0201401N0015199999999004000199+03521+02071101001ADDAA101999999AZ101061AZ201061GA1041+006001081GA2999+999999001GE19MSL   +99999+99999GF106991041999006001999999MA1999999099621MD1999999+0181REMSYN004BUFR
0098826780999992016022800004-06770-043020FM-12+012799999V0203601N0000122000199000200199+02991+02321100941ADDAA101999999AZ101061AZ201061GF100991999999999999999999MA1999999099561MD1999999+0051REMSYN004BUFR
0165826780999992016022812004-06770-043020FM-12+012799999V0203601N0000100600199004000199+02891+02371101291ADDAA101999999AZ101061AZ201061GA1061+006001061GA2999+999999001GE19MSL   +99999+99999GF107991061999006001999999KA1120N+02521MA1999999099911MD1999999+0041REMSYN004BUFR
0136826780999992016022818004-06770-043020FM-12+012799999V0201801N0005100600199004000199+03521+02221100941ADDAA101999999AZ101061AZ201061GA1051+006001081GE19MSL   +99999+99999GF105991051999006001999999MA1999999099561MD1999999-0061REMSYN004BUFR
0098826780999992016022900004-06770-043020FM-12+012799999V0203601N0000122000199000200199+02891+02481101071ADDAA101999999AZ101061AZ201061GF100991999999999999999999MA1999999099691MD1999999+0131REMSYN004BUFR
0111826780999992016022912004-06770-043020FM-12+012799999V0201801N0026122000199004000199+02971+02091101251ADDAA101999999AZ101061AZ201061GF100991999999999999999999KA1120N+02381MA1999999099861MD1999999-0051REMSYN004BUFR
0136826780999992016022918004-06770-043020FM-12+012799999V0201801N0005199999999004000199+03691+01991100791ADDAA101999999AZ101061AZ201061GA1041+006001081GE19MSL   +99999+99999GF104991041999006001999999MA1999999099421MD1999999-0141REMSYN004BUFR
0098826780999992016030100004-06770-043020FM-12+012799999V0200901N0010122000199000200199+03071+02351100921ADDAA101999999AZ101061AZ201061GF100991999999999999999999MA1999999099551MD1999999-0141REMSYN004BUFR
0181826780999992016030112004-06770-043020FM-12+012799999V0203601N0000199999999004000199+02891+02341101331ADDAA101999999AZ101061AZ201061GA1041+006001081GA2999+999999031GA3999+999999001GE19MSL   +99999+99999GF106991041999006001999999KA1120N+02601MA1999999099951MD1999999+0091REMSYN004BUFR
0136826780999992016030118004-06770-043020FM-12+012799999V0203601N0000100600199004000199+03541+02371100821ADDAA101999999AZ101061AZ201061GA1061+006001061GE19MSL   +99999+99999GF106991061999006001999999MA1999999099451MD1999999+0031REMSYN004BUFR
0098826780999992016030200004-06770-043020FM-12+012799999V0203601N0000122000199000200199+02891+02521100901ADDAA101999999AZ101061AZ201061GF100991999999999999999999MA1999999099521MD1999999-0031REMSYN004BUFR
0149826780999992016030212004-06770-043020FM-12+012799999V0201401N0026199999999004000199+03041+01881101291ADDAA101999999AZ101061AZ201061GA1031+017501081GE19MSL   +99999+99999GF105991031999017501999999KA1120N+02481MA1999999099911MD1999999-0041REMSYN004BUFR
0136826780999992016030218004-06770-043020FM-12+012799999V0201401N0026199999999004000199+03571+01881100891ADDAA101999999AZ101061AZ201061GA1041+006001081GE19MSL   +99999+99999GF106991041999006001999999MA1999999099521MD1999999+0071REMSYN004BUFR
0098826780999992016030300004-06770-043020FM-12+012799999V0202301N0005122000199000200199+03041+02201100991ADDAA101999999AZ101061AZ201061GF100991999999999999999999MA1999999099621MD1999999+0101REMSYN004BUFR
0181826780999992016030312004-06770-043020FM-12+012799999V0200901N0005100600199004000199+02821+02421101331ADDAA101999999AZ101061AZ201061GA1051+006001081GA2999+999999031GA3999+999999001GE19MSL   +99999+99999GF108991051999006001999999KA1120N+02441MA1999999099951MD1999999+0041REMSYN004BUFR
0168826780999992016030318004-06770-043020FM-12+012799999V0201801N0015100600199004000199+03271+02341100971ADDAA101999999AZ101061AZ201061GA1061+006001081GA2999+999999031GA3999+999999001GE19MSL   +99999+99999GF108991061999006001999999MA1999999099581MD1999999+0061REMSYN004BUFR
0098826780999992016030400004-06770-043020FM-12+012799999V0203601N0000122000199000200199+02941+02541101071ADDAA101999999AZ101061AZ201061GF100991999999999999999999MA1999999099691MD1999999+0071REMSYN004BUFR
0171826780999992016030412004-06770-043020FM-12+012799999V0201801N0005199999999004000199+02641+02481101201ADDAA124011031AY161061AY211061GA1041+006001061GA2999+999999031GE19MSL   +99999+99999GF106991041999006001999999KA1120N+02421MA1999999099811MD1999999-0141MW1021REMSYN004BUFR
0136826780999992016030418004-06770-043020FM-12+012799999V0200901N0005100600199004000199+03471+02341100881ADDAA101999999AZ101061AZ201061GA1061+006001081GE19MSL   +99999+99999GF106991061999006001999999MA1999999099501MD1999999-0081REMSYN004BUFR
0098826780999992016030500004-06770-043020FM-12+012799999V0200901N0005122000199000200199+02921+02431101011ADDAA101999999AZ101061AZ201061GF100991999999999999999999MA1999999099621MD1999999-0071REMSYN004BUFR
0165826780999992016030512004-06770-043020FM-12+012799999V0203601N0005199999999004000199+02951+02451101251ADDAA101999999AZ101061AZ201061GA1041+006001061GA2999+999999031GE19MSL   +99999+99999GF105991041999006001999999KA1120N+02541MA1999999099871MD1999999+0061REMSYN004BUFR
0136826780999992016030518004-06770-043020FM-12+012799999V0201401N0005100600199004000199+03391+02341100841ADDAA101999999AZ101061AZ201061GA1061+006001061GE19MSL   +99999+99999GF106991061999006001999999MA1999999099461MD1999999-0041REMSYN004BUFR
0158826780999992016030600004-06770-043020FM-12+012799999V0203601N0000100600199000200199+02671+02391100941ADDAA106012031AY161061AY221061GA1051+006001061GA2999+999999031GE19MSL   +99999+99999GF107991051999006001999999MA1999999099551MD1999999-0071MW1021REMSYN004BUFR
0165826780999992016030612004-06770-043020FM-12+012799999V0202701N0005100600199004000199+02771+02361101391ADDAA124012031AZ101061AZ201061GA1061+006001061GA2999+999999001GE19MSL   +99999+99999GF108991061999006001999999KA1120N+02421MA1999999099991MD1999999+0121REMSYN004BUFR
0152826780999992016030618004-06770-043020FM-12+012799999V0203201N0010100600199004000199+03291+02421101001ADDAA101999999AZ101061AZ201061GA1061+006001061GA2999+999999001GE19MSL   +99999+99999GF107991061999006001999999MA1999999099611MD1999999+0151REMSYN004BUFR
0098826780999992016030700004-06770-043020FM-12+012799999V0200901N0005122000199000200199+02721+02371101001ADDAA101999999AZ101061AZ201061GF100991999999999999999999MA1999999099611MD1999999+0061REMSYN004BUFR
0165826780999992016030712004-06770-043020FM-12+012799999V0203201N0010199999999004000199+02891+02501101301ADDAA101999999AZ101061AZ201061GA1041+006001061GA2999+999999001GE19MSL   +99999+99999GF105991041999006001999999KA1120N+02461MA1999999099911MD1999999-0081REMSYN004BUFR
0174826780999992016030718004-06770-043020FM-12+012799999V0200901N0015199999999004000199+03251+02491100871ADDAA106001031AY161061AY221061GA1031+006001081GA2999+999999031GA3999+999999001GE19MSL   +99999+99999GF106991031999006001999999MA1999999099491MD1999999-0121MW1021REMSYN004BUFR
0098826780999992016030800004-06770-043020FM-12+012799999V0202701N0015122000199000200199+02971+02471101021ADDAA101999999AZ101061AZ201061GF100991999999999999999999MA1999999099631MD1999999+0021REMSYN004BUFR
0171826780999992016030812004-06770-043020FM-12+012799999V0200901N0010100600199004000199+02571+02401101381ADDAA124011031AY161061AY261061GA1061+006001071GA2999+999999051GE19MSL   +99999+99999GF108991061999006001999999KA1120N+02471MA1999999099991MD1999999+0081MW1601REMSYN004BUFR
0152826780999992016030818004-06770-043020FM-12+012799999V0203601N0005199999999004000199+03291+02391100811ADDAA101999999AZ101061AZ201061GA1031+006001081GA2999+999999051GE19MSL   +99999+99999GF108991031999006001999999MA1999999099431MD1999999-0061REMSYN004BUFR
0165826780999992016030912004-06770-043020FM-12+012799999V0200901N0005100600199004000199+02671+02311101401ADDAA101999999AZ101061AZ201061GA1051+006001061GA2999+999999031GE19MSL   +99999+99999GF106991051999006001999999KA1120N+02401MA1999999100011MD1999999+0021REMSYN004BUFR
0152826780999992016030918004-06770-043020FM-12+012799999V0203601N0000199999999004000199+03321+02321100901ADDAA101999999AZ101061AZ201061GA1041+006001061GA2999+999999001GE19MSL   +99999+99999GF106991041999006001999999MA1999999099521MD1999999+0091REMSYN004BUFR
0152826780999992016031000004-06770-043020FM-12+012799999V0203601N0000100600199000200199+02841+02461101171ADDAA101999999AZ101061AZ201061GA1051+006001061GA2999+999999031GE19MSL   +99999+99999GF106991051999006001999999MA1999999099781MD1999999+0171REMSYN004BUFR
0181826780999992016031012004-06770-043020FM-12+012799999V0200901N0005100600199004000199+02651+02441101351ADDAA101999999AZ101061AZ201061GA1061+006001061GA2999+999999031GA3999+999999001GE19MSL   +99999+99999GF108991061999006001999999KA1120N+02501MA1999999099951MD1999999-0061REMSYN004BUFR
0174826780999992016031018004-06770-043020FM-12+012799999V0202701N0015100600199004000199+02671+02461101011ADDAA106041031AY161061AY221061GA1081+006001061GA2999+999999101GA3999+999999101GE19MSL   +99999+99999GF108991081999006001999999MA1999999099611MD1999999-0091MW1021REMSYN004BUFR
0152826780999992016031100004-06770-043020FM-12+012799999V0203601N0000101750199000200199+02721+02521101181ADDAA101999999AZ101061AZ201061GA1061+017501061GA2999+999999031GE19MSL   +99999+99999GF108991061999017501999999MA1999999099781MD1999999+0001REMSYN004BUFR
0149826780999992016031112004-06770-043020FM-12+012799999V0203601N0021100600199004000199+02641+02331101481ADDAA124041031AZ101061AZ201061GA1051+006001081GE19MSL   +99999+99999GF108991051999006001999999KA1120N+02461MA1999999100081MD1999999+0131REMSYN004BUFR
0136826780999992016031118004-06770-043020FM-12+012799999V0200501N0026100600199004000199+03021+02361101071ADDAA101999999AZ101061AZ201061GA1051+006001081GE19MSL   +99999+99999GF108991051999006001999999MA1999999099681MD1999999+0071REMSYN004BUFR
0181826780999992016031212004-06770-043020FM-12+012799999V0201801N0010199999999004000199+02671+02381101571ADDAA101999999AZ101061AZ201061GA1031+006001081GA2999+999999031GA3999+999999001GE19MSL   +99999+99999GF106991031999006001999999KA1120N+02351MA1999999100171MD1999999+0091REMSYN004BUFR
0158826780999992016031218004-06770-043020FM-12+012799999V0203601N0010100600199004000199+02941+02541101121ADDAA106005031AY161061AY221061GA1051+006001061GA2999+999999051GE19MSL   +99999+99999GF107991051999006001999999MA1999999099721MD1999999+0041MW1911REMSYN004BUFR
0104826780999992016031300004-06770-043020FM-12+012799999V0203601N0000122000199000200199+02621+02531101201ADDAA106015031AY161061AY221061GF100991999999999999999999MA1999999099801MD1999999-0151MW1011REMSYN004BUFR
0181826780999992016031312004-06770-043020FM-12+012799999V0203601N0000100600199004000199+02621+02441101451ADDAA124020031AZ101061AZ201061GA1081+006001061GA2999+999999101GA3999+999999101GE19MSL   +99999+99999GF108991081999006001999999KA1120N+02441MA1999999100051MD1999999-0121REMSYN004BUFR
0158826780999992016031318004-06770-043020FM-12+012799999V0203601N0015100600199004000199+02991+02391101181ADDAA106018031AY161061AY221061GA1051+006001081GA2999+999999051GE19MSL   +99999+99999GF106991051999006001999999MA1999999099691MD1999999-0031MW1011REMSYN004BUFR
0098826780999992016031400004-06770-043020FM-12+012799999V0203601N0000122000199000200199+02671+02501101241ADDAA101999999AZ101061AZ201061GF100991999999999999999999MA1999999099841MD1999999+0041REMSYN004BUFR
0149826780999992016031412004-06770-043020FM-12+012799999V0200901N0005100600199004000199+02691+02591101391ADDAA124018031AZ101061AZ201061GA1061+006001081GE19MSL   +99999+99999GF106991061999006001999999KA1120N+02431MA1999999099991MD1999999-0061REMSYN004BUFR
0152826780999992016031418004-06770-043020FM-12+012799999V0201401N0015199999999004000199+03371+02091101011ADDAA101999999AZ101061AZ201061GA1041+006001081GA2999+999999001GE19MSL   +99999+99999GF106991041999006001999999MA1999999099631MD1999999-0061REMSYN004BUFR
0149826780999992016031512004-06770-043020FM-12+012799999V0201801N0005100600199004000199+02821+02421101501ADDAA101999999AZ101061AZ201061GA1051+006001081GE19MSL   +99999+99999GF106991051999006001999999KA1120N+02261MA1999999100101MD1999999+0111REMSYN004BUFR
0152826780999992016031518004-06770-043020FM-12+012799999V0200501N0005100600199004000199+03151+02371101211ADDAA101999999AZ101061AZ201061GA1061+006001061GA2999+999999031GE19MSL   +99999+99999GF107991061999006001999999MA1999999099811MD1999999+0181REMSYN004BUFR
0168826780999992016031600004-06770-043020FM-12+012799999V0203601N0000100600199000200199+02821+02541101221ADDAA101999999AZ101061AZ201061GA1061+006001061GA2999+999999031GA3999+999999001GE19MSL   +99999+99999GF108991061999006001999999MA1999999099831MD1999999+0051REMSYN004BUFR
0181826780999992016031612004-06770-043020FM-12+012799999V0201401N0026199999999004000199+02851+02311101411ADDAA101999999AZ101061AZ201061GA1011+006001081GA2999+999999031GA3999+999999001GE19MSL   +99999+99999GF105991011999006001999999KA1120N+02521MA1999999100021MD1999999-0081REMSYN004BUFR
0136826780999992016031618004-06770-043020FM-12+012799999V0201401N0026100600199004000199+03641+02191101041ADDAA101999999AZ101061AZ201061GA1051+006001081GE19MSL   +99999+99999GF105991051999006001999999MA1999999099661MD1999999-0151REMSYN004BUFR
0155826780999992016031700004-06770-043020FM-12+012799999V0201801N0005199999999000200199+02891+02541101201ADDAA101999999AZ101061AZ201061GA1082+050001001GE19MSL   +99999+99999GF101992082999050001999999MA1999999099811MD1999999-0011REMSYN004BUFREQDQ01 050003SCOCIG
0181826780999992016031712004-06770-043020FM-12+012799999V0203601N0005199999999004000199+02841+02401101421ADDAA101999999AZ101061AZ201061GA1031+006001081GA2999+999999031GA3999+999999001GE19MSL   +99999+99999GF106991031999006001999999KA1120N+02721MA1999999100031MD1999999+0011REMSYN004BUFR
0136826780999992016031718004-06770-043020FM-12+012799999V0200501N0010100600199004000199+02821+02401101051ADDAA101999999AZ101061AZ201061GA1061+006001081GE19MSL   +99999+99999GF108991061999006001999999MA1999999099661MD1999999+0001REMSYN004BUFR
0142826780999992016031800004-06770-043020FM-12+012799999V0203601N0000199999999000200199+02771+02561101241ADDAA106000631AY161061AY221061GA1999+080001001GE19MSL   +99999+99999GF103991999999080001999999MA1999999099851MD1999999+0001MW1021REMSYN004BUFR
0187826780999992016031812004-06770-043020FM-12+012799999V0203601N0000100600199004000199+02591+02401101411ADDAA124007031AY161061AY221061GA1051+006001081GA2999+999999031GA3999+999999001GE19MSL   +99999+99999GF108991051999006001999999KA1120N+02341MA1999999100011MD1999999-0021MW1021REMSYN004BUFR
0168826780999992016031818004-06770-043020FM-12+012799999V0200501N0005100600199004000199+03291+02421101061ADDAA101999999AZ101061AZ201061GA1051+006001061GA2999+999999031GA3999+999999001GE19MSL   +99999+99999GF107991051999006001999999MA1999999099671MD1999999+0011REMSYN004BUFR
0174826780999992016031900004-06770-043020FM-12+012799999V0203601N0000100600199000200199+02651+02411101231ADDAA106004031AY161061AY221061GA1081+006001061GA2999+999999101GA3999+999999101GE19MSL   +99999+99999GF108991081999006001999999MA1999999099831MD1999999-0021MW1021REMSYN004BUFR
0187826780999992016031912004-06770-043020FM-12+012799999V0200501N0005199999999004000199+02851+02501101381ADDAA124005031AY161061AY221061GA1041+006001061GA2999+999999031GA3999+999999001GE19MSL   +99999+99999GF106991041999006001999999KA1120N+02481MA1999999099981MD1999999-0031MW1021REMSYN004BUFR
0136826780999992016031918004-06770-043020FM-12+012799999V0201401N0010100600199004000199+03391+02311100941ADDAA101999999AZ101061AZ201061GA1051+006001081GE19MSL   +99999+99999GF105991051999006001999999MA1999999099561MD1999999-0111REMSYN004BUFR
0174826780999992016032000004-06770-043020FM-12+012799999V0203601N0026100600199000200199+02471+02151101221ADDAA106002031AY161061AY221061GA1061+006001061GA2999+999999051GA3999+999999101GE19MSL   +99999+99999GF108991061999006001999999MA1999999099821MD1999999-0011MW1911REMSYN004BUFR
0181826780999992016032012004-06770-043020FM-12+012799999V0203601N0010100600199004000199+02691+02461101391ADDAA124005031AZ101061AZ201061GA1081+006001071GA2999+999999101GA3999+999999101GE19MSL   +99999+99999GF108991081999006001999999KA1120N+02321MA1999999099981MD1999999+0001REMSYN004BUFR
0152826780999992016032018004-06770-043020FM-12+012799999V0200901N0036199999999004000199+03171+02411100941ADDAA101999999AZ101061AZ201061GA1031+006001081GA2999+999999001GE19MSL   +99999+99999GF105991031999006001999999MA1999999099551MD1999999-0091REMSYN004BUFR
0168826780999992016032100004-06770-043020FM-12+012799999V0201401N0005199999999000200199+02771+02181101241ADDAA101999999AZ101061AZ201061GA1021+006001061GA2999+999999051GA3999+999999101GE19MSL   +99999+99999GF108991021999006001999999MA1999999099851MD1999999+0031REMSYN004BUFR
0187826780999992016032112004-06770-043020FM-12+012799999V0203601N0000100600199004000199+02571+02441101551ADDAA124000631AY161061AY221061GA1051+006001061GA2999+999999031GA3999+999999101GE19MSL   +99999+99999GF108991051999006001999999KA1120N+02421MA1999999100151MD1999999+0171MW1021REMSYN004BUFR
0168826780999992016032118004-06770-043020FM-12+012799999V0201401N0010100600199004000199+02971+02401101211ADDAA101999999AZ101061AZ201061GA1051+006001061GA2999+999999031GA3999+999999001GE19MSL   +99999+99999GF108991051999006001999999MA1999999099811MD1999999+0261REMSYN004BUFR
0152826780999992016032200004-06770-043020FM-12+012799999V0203601N0000199999999000200199+02691+02501101231ADDAA101999999AZ101061AZ201061GA1041+017501031GA2999+999999001GE19MSL   +99999+99999GF106991041999017501999999MA1999999099831MD1999999-0021REMSYN004BUFR
0181826780999992016032212004-06770-043020FM-12+012799999V0203601N0010100600199004000199+02721+02471101561ADDAA101999999AZ101061AZ201061GA1081+006001071GA2999+999999101GA3999+999999101GE19MSL   +99999+99999GF108991081999006001999999KA1120N+02461MA1999999100161MD1999999+0011REMSYN004BUFR
0174826780999992016032218004-06770-043020FM-12+012799999V0203601N0000199999999004000199+02671+02371101151ADDAA106013031AY161061AY221061GA1031+006001061GA2999+999999051GA3999+999999001GE19MSL   +99999+99999GF108991031999006001999999MA1999999099751MD1999999-0061MW1021REMSYN004BUFR
0152826780999992016032318004-06770-043020FM-12+012799999V0200901N0015199999999004000199+03321+02351100861ADDAA101999999AZ101061AZ201061GA1041+006001081GA2999+999999001GE19MSL   +99999+99999GF105991041999006001999999MA1999999099481MD1999999-0271REMSYN004BUFR
0136826780999992016032400004-06770-043020FM-12+012799999V0202701N0005199999999000200199+02871+02561101021ADDAA101999999AZ101061AZ201061GA1999+080001001GE19MSL   +99999+99999GF107991999999080001999999MA1999999099631MD1999999-0231REMSYN004BUFR
0181826780999992016032412004-06770-043020FM-12+012799999V0203601N0000100600199004000199+02691+02411101281ADDAA101999999AZ101061AZ201061GA1081+006001061GA2999+999999101GA3999+999999101GE19MSL   +99999+99999GF108991081999006001999999KA1120N+02451MA1999999099891MD1999999-0141REMSYN004BUFR
0168826780999992016032418004-06770-043020FM-12+012799999V0201801N0010100600199004000199+02851+02441101061ADDAA101999999AZ101061AZ201061GA1061+006001061GA2999+999999031GA3999+999999101GE19MSL   +99999+99999GF108991061999006001999999MA1999999099661MD1999999+0181REMSYN004BUFR
0136826780999992016032500004-06770-043020FM-12+012799999V0201801N0010199999999000200199+02721+02521101111ADDAA101999999AZ101061AZ201061GA1041+017501031GE19MSL   +99999+99999GF104991041999017501999999MA1999999099711MD1999999+0081REMSYN004BUFR
0187826780999992016032512004-06770-043020FM-12+012799999V0203601N0000100600199004000199+02621+02501101321ADDAA124001031AY161061AY221061GA1081+006001061GA2999+999999101GA3999+999999101GE19MSL   +99999+99999GF108991081999006001999999KA1120N+02481MA1999999099921MD1999999+0031MW1911REMSYN004BUFR
0158826780999992016032518004-06770-043020FM-12+012799999V0203601N0005199999999004000199+03341+02511100971ADDAA106000731AY161061AY221061GA1021+006001081GA2999+999999001GE19MSL   +99999+99999GF103991021999006001999999MA1999999099611MD1999999-0051MW1021REMSYN004BUFR
0152826780999992016032600004-06770-043020FM-12+012799999V0203601N0000100600199000200199+02691+02411101121ADDAA101999999AZ101061AZ201061GA1051+006001081GA2999+999999031GE19MSL   +99999+99999GF108991051999006001999999MA1999999099721MD1999999+0011REMSYN004BUFR
0149826780999992016032612004-06770-043020FM-12+012799999V0203601N0010199999999004000199+02751+02481101431ADDAA124000731AZ101061AZ201061GA1021+006001081GE19MSL   +99999+99999GF108991021999006001999999KA1120N+02361MA1999999100031MD1999999+0111REMSYN004BUFR
0168826780999992016032618004-06770-043020FM-12+012799999V0201401N0015100600199004000199+03351+02331101001ADDAA101999999AZ101061AZ201061GA1051+006001081GA2999+999999051GA3999+999999001GE19MSL   +99999+99999GF107991051999006001999999MA1999999099611MD1999999+0001REMSYN004BUFR
0152826780999992016032700004-06770-043020FM-12+012799999V0201401N0005199999999000200199+02871+02541101131ADDAA101999999AZ101061AZ201061GA1031+017501031GA2999+999999001GE19MSL   +99999+99999GF105991031999017501999999MA1999999099741MD1999999+0021REMSYN004BUFR
0181826780999992016032712004-06770-043020FM-12+012799999V0203601N0005199999999004000199+03071+02521101301ADDAA101999999AZ101061AZ201061GA1041+006001061GA2999+999999031GA3999+999999001GE19MSL   +99999+99999GF106991041999006001999999KA1120N+02541MA1999999099921MD1999999-0111REMSYN004BUFR
0136826780999992016032718004-06770-043020FM-12+012799999V0201401N0010199999999004000199+03451+02261100921ADDAA101999999AZ101061AZ201061GA1041+006001081GE19MSL   +99999+99999GF104991041999006001999999MA1999999099541MD1999999-0071REMSYN004BUFR
0098826780999992016032800004-06770-043020FM-12+012799999V0203601N0000122000199000200199+02891+02411100941ADDAA101999999AZ101061AZ201061GF100991999999999999999999MA1999999099561MD1999999-0181REMSYN004BUFR
0181826780999992016032812004-06770-043020FM-12+012799999V0201801N0026199999999004000199+02991+02111101311ADDAA101999999AZ101061AZ201061GA1021+006001091GA2999+999999051GA3999+999999001GE19MSL   +99999+99999GF104991021999006001999999KA1120N+02501MA1999999099931MD1999999+0011REMSYN004BUFR
0152826780999992016032818004-06770-043020FM-12+012799999V0200901N0015100600199004000199+03441+02251100861ADDAA101999999AZ101061AZ201061GA1061+006001081GA2999+999999001GE19MSL   +99999+99999GF108991061999006001999999MA1999999099481MD1999999-0061REMSYN004BUFR
0098826780999992016032900004-06770-043020FM-12+012799999V0200901N0015122000199000200199+02851+02371101001ADDAA101999999AZ101061AZ201061GF100991999999999999999999MA1999999099621MD1999999+0061REMSYN004BUFR
0181826780999992016032912004-06770-043020FM-12+012799999V0203601N0005100600199004000199+02721+02451101431ADDAA101999999AZ101061AZ201061GA1081+006001061GA2999+999999101GA3999+999999101GE19MSL   +99999+99999GF108991081999006001999999KA1120N+02421MA1999999100031MD1999999+0101REMSYN004BUFR
0168826780999992016032918004-06770-043020FM-12+012799999V0202301N0015199999999004000199+03221+02431101031ADDAA101999999AZ101061AZ201061GA1021+006001081GA2999+999999031GA3999+999999001GE19MSL   +99999+99999GF108991021999006001999999MA1999999099641MD1999999+0161REMSYN004BUFR
0142826780999992016033000004-06770-043020FM-12+012799999V0200901N0005199999999000200199+02821+02501101251ADDAA106000731AY121061AY261061GA1999+006001001GE19MSL   +99999+99999GF102991999999006001999999MA1999999099861MD1999999+0241MW1021REMSYN004BUFR
0181826780999992016033012004-06770-043020FM-12+012799999V0200901N0015100600199004000199+02551+02271101671ADDAA124000731AZ101061AZ201061GA1061+006001061GA2999+999999031GA3999+999999101GE19MSL   +99999+99999GF108991061999006001999999KA1120N+02361MA1999999100271MD1999999+0241REMSYN004BUFR
0174826780999992016033018004-06770-043020FM-12+012799999V0201801N0005100600199004000199+02951+02381101311ADDAA106001031AY161061AY221061GA1051+006001061GA2999+999999031GA3999+999999001GE19MSL   +99999+99999GF108991051999006001999999MA1999999099911MD1999999+0271MW1021REMSYN004BUFR
0181826780999992016033112004-06770-043020FM-12+012799999V0203601N0000199999999004000199+02891+02501101501ADDAA124001031AZ101061AZ201061GA1031+050001061GA2999+999999031GA3999+999999001GE19MSL   +99999+99999GF105991031999050001999999KA1120N+02421MA1999999100101MD1999999-0171REMSYN004BUFR
0152826780999992016033118004-06770-043020FM-12+012799999V0201401N0015199999999004000199+03391+02141101081ADDAA101999999AZ101061AZ201061GA1031+006001081GA2999+999999031GE19MSL   +99999+99999GF104991031999006001999999MA1999999099141MD1999999-0211REMSYN004BUFR
0098826780999992016040100004-06770-043020FM-12+012799999V0201801N0010122000199000200199+02841+02441101261ADDAA101999999AZ101061AZ201061GF100991999999999999999999MA1999999099871MD1999999-0091REMSYN004BUFR
0165826780999992016040112004-06770-043020FM-12+012799999V0203601N0015199999999004000199+02841+02401101421ADDAA101999999AZ101061AZ201061GA1041+006001081GA2999+999999001GE19MSL   +99999+99999GF106991041999006001999999KA1120N+02521MA1999999100031MD1999999-0071REMSYN004BUFR
0136826780999992016040118004-06770-043020FM-12+012799999V0203601N0010100600199004000199+03401+02181100931ADDAA101999999AZ101061AZ201061GA1061+006001081GE19MSL   +99999+99999GF107991061999006001999999MA1999999099551MD1999999-0151REMSYN004BUFR
0098826780999992016040200004-06770-043020FM-12+012799999V0203601N0000122000199000200199+02791+02341101111ADDAA101999999AZ101061AZ201061GF100991999999999999999999MA1999999099721MD1999999-0151REMSYN004BUFR
0181826780999992016040212004-06770-043020FM-12+012799999V0202701N0010100600199004000199+02791+02401101261ADDAA101999999AZ101061AZ201061GA1051+006001061GA2999+999999031GA3999+999999001GE19MSL   +99999+99999GF108991051999006001999999KA1120N+02331MA1999999099871MD1999999-0161REMSYN004BUFR
0098826780999992016040300004-06770-043020FM-12+012799999V0203601N0000122000199000200199+02751+02421101061ADDAA101999999AZ101061AZ201061GF100991999999999999999999MA1999999099671MD1999999-0051REMSYN004BUFR
0181826780999992016040312004-06770-043020FM-12+012799999V0203601N0015101750199004000199+02691+02331101331ADDAA101999999AZ101061AZ201061GA1061+017501061GA2999+999999031GA3999+999999001GE19MSL   +99999+99999GF108991061999017501999999KA1120N+02421MA1999999099931MD1999999+0061REMSYN004BUFR
0152826780999992016040318004-06770-043020FM-12+012799999V0203601N0000199999999004000199+03351+02211100981ADDAA101999999AZ101061AZ201061GA1031+006001081GA2999+999999001GE19MSL   +99999+99999GF105991031999006001999999MA1999999099601MD1999999+0111REMSYN004BUFR
0098826780999992016040400004-06770-043020FM-12+012799999V0200901N0010122000199000200199+02791+02311101211ADDAA101999999AZ101061AZ201061GF100991999999999999999999MA1999999099821MD1999999+0151REMSYN004BUFR
0181826780999992016040412004-06770-043020FM-12+012799999V0203601N0010100600199004000199+02671+02461101571ADDAA101999999AZ101061AZ201061GA1081+006001061GA2999+999999101GA3999+999999101GE19MSL   +99999+99999GF108991081999006001999999KA1120N+02441MA1999999100171MD1999999+0241REMSYN004BUFR
0136826780999992016040418004-06770-043020FM-12+012799999V0201401N0015100600199004000199+03341+02371101011ADDAA101999999AZ101061AZ201061GA1061+006001081GE19MSL   +99999+99999GF108991061999006001999999MA1999999099631MD1999999+0031REMSYN004BUFR
0168826780999992016040500004-06770-043020FM-12+012799999V0200501N0005100600199000200199+02801+02421101271ADDAA101999999AZ101061AZ201061GA1061+006001061GA2999+999999051GA3999+999999101GE19MSL   +99999+99999GF108991061999006001999999MA1999999099871MD1999999+0051REMSYN004BUFR
0165826780999992016040512004-06770-043020FM-12+012799999V0200501N0005199999999004000199+02951+02381101481ADDAA101999999AZ101061AZ201061GA1031+017501031GA2999+999999001GE19MSL   +99999+99999GF105991031999017501999999KA1120N+02361MA1999999100091MD1999999-0081REMSYN004BUFR
0136826780999992016040518004-06770-043020FM-12+012799999V0201401N0015100600199004000199+03421+02061101101ADDAA101999999AZ101061AZ201061GA1051+006001081GE19MSL   +99999+99999GF105991051999006001999999MA1999999099721MD1999999+0091REMSYN004BUFR
0098826780999992016040600004-06770-043020FM-12+012799999V0200501N0010122000199000200199+02851+02311101191ADDAA101999999AZ101061AZ201061GF100991999999999999999999MA1999999099801MD1999999-0071REMSYN004BUFR
0187826780999992016040612004-06770-043020FM-12+012799999V0203601N0000199999999004000199+02941+02401101371ADDAA124002031AY161061AY221061GA1041+006001061GA2999+999999031GA3999+999999001GE19MSL   +99999+99999GF106991041999006001999999KA1120N+02461MA1999999099981MD1999999-0111MW1021REMSYN004BUFR
0152826780999992016040618004-06770-043020FM-12+012799999V0200901N0015199999999004000199+03421+02261100921ADDAA101999999AZ101061AZ201061GA1031+050001031GA2999+999999001GE19MSL   +99999+99999GF105991031999050001999999MA1999999099541MD1999999-0181REMSYN004BUFR
0098826780999992016040700004-06770-043020FM-12+012799999V0203601N0000122000199000200199+02941+02401101041ADDAA101999999AZ101061AZ201061GF100991999999999999999999MA1999999099661MD1999999-0141REMSYN004BUFR
0181826780999992016040712004-06770-043020FM-12+012799999V0200501N0010100600199004000199+02841+02481101321ADDAA101999999AZ101061AZ201061GA1051+006001081GA2999+999999031GA3999+999999001GE19MSL   +99999+99999GF108991051999006001999999KA1120N+02541MA1999999099931MD1999999-0051REMSYN004BUFR
0174826780999992016040718004-06770-043020FM-12+012799999V0201401N0015199999999004000199+03421+02361100811ADDAA106001031AY121061AY261061GA1041+006001081GA2999+999999041GA3999+999999001GE19MSL   +99999+99999GF106991041999006001999999MA1999999099441MD1999999-0101MW1021REMSYN004BUFR
0098826780999992016040800004-06770-043020FM-12+012799999V0200901N0005122000199000200199+02871+02441101061ADDAA101999999AZ101061AZ201061GF100991999999999999999999MA1999999099671MD1999999+0011REMSYN004BUFR
0181826780999992016040812004-06770-043020FM-12+012799999V0200901N0015100600199004000199+02691+02391101351ADDAA101999999AZ101061AZ201061GA1051+006001081GA2999+999999031GA3999+999999001GE19MSL   +99999+99999GF108991051999006001999999KA1120N+02561MA1999999099961MD1999999+0031REMSYN004BUFR
0152826780999992016040818004-06770-043020FM-12+012799999V0203601N0015199999999004000199+03391+02401100921ADDAA101999999AZ101061AZ201061GA1031+006001081GA2999+999999001GE19MSL   +99999+99999GF105991031999006001999999MA1999999099501MD1999999+0061REMSYN004BUFR
0098826780999992016040900004-06770-043020FM-12+012799999V0203601N0000122000199000200199+02841+02421101061ADDAA101999999AZ101061AZ201061GF100991999999999999999999MA1999999099671MD1999999+0001REMSYN004BUFR
0149826780999992016040912004-06770-043020FM-12+012799999V0203601N0000100600199004000199+02921+02431101221ADDAA101999999AZ101061AZ201061GA1051+006001081GE19MSL   +99999+99999GF105991051999006001999999KA1120N+02441MA1999999099831MD1999999-0131REMSYN004BUFR
0152826780999992016040918004-06770-043020FM-12+012799999V0203601N0000100600199004000199+03491+02401100801ADDAA101999999AZ101061AZ201061GA1051+006001061GA2999+999999031GE19MSL   +99999+99999GF107991051999006001999999MA1999999099421MD1999999-0081REMSYN004BUFR
0104826780999992016041000004-06770-043020FM-12+012799999V0203601N0000122000199000200199+02791+02561100921ADDAA106001031AY161061AY221061GF100991999999999999999999MA1999999099541MD1999999-0131MW1011REMSYN004BUFR
0187826780999992016041012004-06770-043020FM-12+012799999V0200901N0010100600199004000199+02451+02391101181ADDAA124023031AY161061AY221061GA1081+006001071GA2999+999999101GA3999+999999101GE19MSL   +99999+99999GF108991081999006001999999KA1120N+02411MA1999999099781MD1999999-0051MW1601REMSYN004BUFR
0174826780999992016041018004-06770-043020FM-12+012799999V0202701N0015199999999004000199+03001+02461100851ADDAA106000231AY121061AY261061GA1021+006001091GA2999+999999031GA3999+999999001GE19MSL   +99999+99999GF108991021999006001999999MA1999999099461MD1999999+0041MW1021REMSYN004BUFR
0098826780999992016041100004-06770-043020FM-12+012799999V0202301N0010122000199000200199+02741+02581100971ADDAA101999999AZ101061AZ201061GF100991999999999999999999MA1999999099571MD1999999+0031REMSYN004BUFR
0149826780999992016041112004-06770-043020FM-12+012799999V0201401N0005100600199004000199+02751+02441101261ADDAA124000231AZ101061AZ201061GA1061+006001081GE19MSL   +99999+99999GF108991061999006001999999KA1120N+02421MA1999999099861MD1999999+0081REMSYN004BUFR
0168826780999992016041118004-06770-043020FM-12+012799999V0200501N0015100600199004000199+03141+02531100811ADDAA101999999AZ101061AZ201061GA1051+006001061GA2999+999999031GA3999+999999001GE19MSL   +99999+99999GF107991051999006001999999MA1999999099421MD1999999-0041REMSYN004BUFR
0136826780999992016041200004-06770-043020FM-12+012799999V0203601N0000101750199000200199+02671+02481100911ADDAA101999999AZ101061AZ201061GA1051+017501031GE19MSL   +99999+99999GF105991051999017501999999MA1999999099521MD1999999-0051REMSYN004BUFR
0187826780999992016041212004-06770-043020FM-12+012799999V0201801N0010100600199004000199+02721+02521101301ADDAA124008031AY161061AY221061GA1061+006001061GA2999+999999051GA3999+999999101GE19MSL   +99999+99999GF108991061999006001999999KA1120N+02401MA1999999099901MD1999999+0041MW1021REMSYN004BUFR
0152826780999992016041218004-06770-043020FM-12+012799999V0200901N0010199999999004000199+03241+02331100911ADDAA101999999AZ101061AZ201061GA1031+006001081GA2999+999999001GE19MSL   +99999+99999GF105991031999006001999999MA1999999099521MD1999999+0101REMSYN004BUFR
0098826780999992016041300004-06770-043020FM-12+012799999V0203601N0000122000199000200199+02751+02501100951ADDAA101999999AZ101061AZ201061GF100991999999999999999999MA1999999099561MD1999999+0041REMSYN004BUFR
0181826780999992016041312004-06770-043020FM-12+012799999V0201401N0036199999999004000199+02891+02051101341ADDAA101999999AZ101061AZ201061GA1011+006001081GA2999+999999031GA3999+999999001GE19MSL   +99999+99999GF108991011999006001999999KA1120N+02461MA1999999099951MD1999999+0051REMSYN004BUFR
0168826780999992016041318004-06770-043020FM-12+012799999V0200901N0015199999999004000199+03291+01891100991ADDAA101999999AZ101061AZ201061GA1021+006001081GA2999+999999031GA3999+999999001GE19MSL   +99999+99999GF106991021999006001999999MA1999999099611MD1999999+0091REMSYN004BUFR
0136826780999992016041400004-06770-043020FM-12+012799999V0203601N0000199999999000200199+02691+02391101091ADDAA101999999AZ101061AZ201061GA1031+017501031GE19MSL   +99999+99999GF103991031999017501999999MA1999999099701MD1999999+0141REMSYN004BUFR
0165826780999992016041412004-06770-043020FM-12+012799999V0203601N0000199999999004000199+02721+02321101321ADDAA101999999AZ101061AZ201061GA1031+017501031GA2999+999999001GE19MSL   +99999+99999GF106991031999017501999999KA1120N+02261MA1999999099921MD1999999-0031REMSYN004BUFR
0168826780999992016041418004-06770-043020FM-12+012799999V0201801N0010199999999004000199+03341+02221101051ADDAA101999999AZ101061AZ201061GA1041+006001081GA2999+999999031GA3999+999999001GE19MSL   +99999+99999GF106991041999006001999999MA1999999099661MD1999999+0051REMSYN004BUFR
0152826780999992016041500004-06770-043020FM-12+012799999V0203601N0000199999999000200199+02821+02521101101ADDAA101999999AZ101061AZ201061GA1031+017501031GA2999+999999001GE19MSL   +99999+99999GF104991031999017501999999MA1999999099711MD1999999+0011REMSYN004BUFR
0181826780999992016041512004-06770-043020FM-12+012799999V0201801N0015199999999004000199+02641+02181101371ADDAA101999999AZ101061AZ201061GA1041+006001081GA2999+999999031GA3999+999999001GE19MSL   +99999+99999GF108991041999006001999999KA1120N+02441MA1999999099971MD1999999+0051REMSYN004BUFR
0152826780999992016041518004-06770-043020FM-12+012799999V0202301N0010100600199004000199+03291+02241100971ADDAA101999999AZ101061AZ201061GA1061+006001081GA2999+999999001GE19MSL   +99999+99999GF108991061999006001999999MA1999999099601MD1999999-0061REMSYN004BUFR
0098826780999992016041600004-06770-043020FM-12+012799999V0200901N0015122000199000200199+02751+02361101131ADDAA101999999AZ101061AZ201061GF100991999999999999999999MA1999999099731MD1999999+0021REMSYN004BUFR
0171826780999992016041612004-06770-043020FM-12+012799999V0200901N0015199999999004000199+02851+02211101281ADDAA124002031AY161061AY221061GA1041+006001061GA2999+999999031GE19MSL   +99999+99999GF107991041999006001999999KA1120N+02461MA1999999099891MD1999999-0081MW1021REMSYN004BUFR
0168826780999992016041618004-06770-043020FM-12+012799999V0200901N0015199999999004000199+03291+02121100921ADDAA101999999AZ101061AZ201061GA1031+006001081GA2999+999999031GA3999+999999001GE19MSL   +99999+99999GF107991031999006001999999MA1999999099541MD1999999-0061REMSYN004BUFR
0136826780999992016041700004-06770-043020FM-12+012799999V0201801N0005101750199000200199+02841+02421101091ADDAA101999999AZ101061AZ201061GA1051+017501031GE19MSL   +99999+99999GF105991051999017501999999MA1999999099701MD1999999-0031REMSYN004BUFR
0149826780999992016041712004-06770-043020FM-12+012799999V0200901N0026199999999004000199+02991+02001101371ADDAA101999999AZ101061AZ201061GA1999+080001001GE19MSL   +99999+99999GF102991999999080001999999KA1120N+01521MA1999999099981MD1999999+0091REMSYN004BUFR
0152826780999992016041718004-06770-043020FM-12+012799999V0200901N0021100600199004000199+03491+02021100931ADDAA101999999AZ101061AZ201061GA1061+006001081GA2999+999999001GE19MSL   +99999+99999GF107991061999006001999999MA1999999099551MD1999999+0011REMSYN004BUFR
0136826780999992016041800004-06770-043020FM-12+012799999V0200901N0005101750199000200199+02991+02531101121ADDAA101999999AZ101061AZ201061GA1071+017501031GE19MSL   +99999+99999GF107991071999017501999999MA1999999099741MD1999999+0041REMSYN004BUFR
0111826780999992016041812004-06770-043020FM-12+012799999V0201801N0021122000199004000199+02891+02121101301ADDAA101999999AZ101061AZ201061GF100991999999999999999999KA1120N+02481MA1999999099921MD1999999-0061REMSYN004BUFR
0168826780999992016041818004-06770-043020FM-12+012799999V0201801N0015100600199004000199+03371+02261100941ADDAA101999999AZ101061AZ201061GA1051+006001081GA2999+999999031GA3999+999999001GE19MSL   +99999+99999GF108991051999006001999999MA1999999099561MD1999999+0011REMSYN004BUFR
0098826780999992016041900004-06770-043020FM-12+012799999V0203601N0000122000199000200199+02741+02451101231ADDAA101999999AZ101061AZ201061GF100991999999999999999999MA1999999099841MD1999999+0101REMSYN004BUFR
0149826780999992016041912004-06770-043020FM-12+012799999V0201401N0031199999999004000199+02891+01871101271ADDAA101999999AZ101061AZ201061GA1999+080001001GE19MSL   +99999+99999GF108991999999080001999999KA1120N+02521MA1999999099881MD1999999-0041REMSYN004BUFR
0136826780999992016041918004-06770-043020FM-12+012799999V0200901N0015199999999004000199+03451+01981100881ADDAA101999999AZ101061AZ201061GA1041+006001081GE19MSL   +99999+99999GF108991041999006001999999MA1999999099501MD1999999-0061REMSYN004BUFR
0168826780999992016042000004-06770-043020FM-12+012799999V0201801N0005199999999000200199+02871+02411101061ADDAA101999999AZ101061AZ201061GA1031+006001061GA2999+999999031GA3999+999999101GE19MSL   +99999+99999GF108991031999006001999999MA1999999099681MD1999999-0161REMSYN004BUFR
0149826780999992016042012004-06770-043020FM-12+012799999V0201401N0031199999999004000199+02971+01841101241ADDAA101999999AZ101061AZ201061GA1999+080001001GE19MSL   +99999+99999GF108991999999080001999999KA1120N+02391MA1999999099851MD1999999-0031REMSYN004BUFR
0168826780999992016042018004-06770-043020FM-12+012799999V0200901N0015199999999004000199+03441+01881100891ADDAA101999999AZ101061AZ201061GA1031+006001081GA2999+999999051GA3999+999999001GE19MSL   +99999+99999GF108991031999006001999999MA1999999099511MD1999999+0011REMSYN004BUFR
0136826780999992016042100004-06770-043020FM-12+012799999V0201801N0005199999999000200199+02891+02201100991ADDAA101999999AZ101061AZ201061GA1999+080001001GE19MSL   +99999+99999GF105991999999080001999999MA1999999099611MD1999999-0071REMSYN004BUFR
0111826780999992016042112004-06770-043020FM-12+012799999V0201801N0015122000199004000199+03021+02041101211ADDAA101999999AZ101061AZ201061GF100991999999999999999999KA1120N+02311MA1999999099831MD1999999-0021REMSYN004BUFR
0152826780999992016042118004-06770-043020FM-12+012799999V0200901N0015199999999004000199+03521+02071100861ADDAA101999999AZ101061AZ201061GA1031+006001081GA2999+999999001GE19MSL   +99999+99999GF105991031999006001999999MA1999999099481MD1999999-0031REMSYN004BUFR
0098826780999992016042200004-06770-043020FM-12+012799999V0202701N0010122000199000200199+02941+02291101081ADDAA101999999AZ101061AZ201061GF100991999999999999999999MA1999999099701MD1999999+0091REMSYN004BUFR
0149826780999992016042212004-06770-043020FM-12+012799999V0200901N0015101750199004000199+02991+02141101391ADDAA101999999AZ101061AZ201061GA1061+017501031GE19MSL   +99999+99999GF106991061999017501999999KA1120N+02621MA1999999100011MD1999999+0181REMSYN004BUFR
0136826780999992016042218004-06770-043020FM-12+012799999V0201801N0005100600199004000199+03521+02031101011ADDAA101999999AZ101061AZ201061GA1051+006001081GE19MSL   +99999+99999GF105991051999006001999999MA1999999099641MD1999999+0161REMSYN004BUFR
0168826780999992016042300004-06770-043020FM-12+012799999V0200901N0005100600199000200199+02941+02331101141ADDAA101999999AZ101061AZ201061GA1061+006001061GA2999+999999031GA3999+999999101GE19MSL   +99999+99999GF108991061999006001999999MA1999999099761MD1999999+0061REMSYN004BUFR
0165826780999992016042312004-06770-043020FM-12+012799999V0201401N0015199999999004000199+02891+02321101311ADDAA101999999AZ101061AZ201061GA1021+017501031GA2999+999999001GE19MSL   +99999+99999GF104991021999017501999999KA1120N+02441MA1999999099921MD1999999-0091REMSYN004BUFR
0168826780999992016042318004-06770-043020FM-12+012799999V0201401N0026199999999004000199+03541+02091100841ADDAA101999999AZ101061AZ201061GA1031+006001081GA2999+999999031GA3999+999999001GE19MSL   +99999+99999GF105991031999006001999999MA1999999099461MD1999999-0181REMSYN004BUFR
0136826780999992016042400004-06770-043020FM-12+012799999V0202301N0005101750199000200199+02971+02331100931ADDAA101999999AZ101061AZ201061GA1061+017501031GE19MSL   +99999+99999GF106991061999017501999999MA1999999099551MD1999999-0211REMSYN004BUFR
0149826780999992016042412004-06770-043020FM-12+012799999V0201401N0031199999999004000199+03091+01941101161ADDAA101999999AZ101061AZ201061GA1021+017501031GE19MSL   +99999+99999GF102991021999017501999999KA1120N+02441MA1999999099781MD1999999-0141REMSYN004BUFR
0136826780999992016042418004-06770-043020FM-12+012799999V0201401N0015100600199004000199+03551+02111100841ADDAA101999999AZ101061AZ201061GA1051+006001081GE19MSL   +99999+99999GF105991051999006001999999MA1999999099461MD1999999+0001REMSYN004BUFR
0098826780999992016042500004-06770-043020FM-12+012799999V0203601N0000122000199000200199+02821+02271100881ADDAA101999999AZ101061AZ201061GF100991999999999999999999MA1999999099501MD1999999-0051REMSYN004BUFR
0149826780999992016042512004-06770-043020FM-12+012799999V0201401N0031199999999004000199+02991+02001101141ADDAA101999999AZ101061AZ201061GA1999+080001001GE19MSL   +99999+99999GF105991999999080001999999KA1120N+02311MA1999999099751MD1999999-0031REMSYN004BUFR
0152826780999992016042518004-06770-043020FM-12+012799999V0201401N0005199999999004000199+03571+01971100601ADDAA101999999AZ101061AZ201061GA1031+006001081GA2999+999999001GE19MSL   +99999+99999GF106991031999006001999999MA1999999099231MD1999999-0231REMSYN004BUFR
0098826780999992016042600004-06770-043020FM-12+012799999V0200901N0015122000199000200199+02871+02161100791ADDAA101999999AZ101061AZ201061GF100991999999999999999999MA1999999099411MD1999999-0091REMSYN004BUFR
0149826780999992016042612004-06770-043020FM-12+012799999V0201801N0010100600199004000199+02841+02261101201ADDAA101999999AZ101061AZ201061GA1071+006001061GE19MSL   +99999+99999GF108991071999006001999999KA1120N+02321MA1999999099811MD1999999+0061REMSYN004BUFR
0152826780999992016042618004-06770-043020FM-12+012799999V0202301N0005199999999004000199+03521+02111100801ADDAA101999999AZ101061AZ201061GA1031+006001081GA2999+999999031GE19MSL   +99999+99999GF106991031999006001999999MA1999999099421MD1999999+0191REMSYN004BUFR
0098826780999992016042700004-06770-043020FM-12+012799999V0203601N0000122000199000200199+02891+02371100841ADDAA101999999AZ101061AZ201061GF100991999999999999999999MA1999999099461MD1999999+0051REMSYN004BUFR
0149826780999992016042712004-06770-043020FM-12+012799999V0200901N0010199999999004000199+03041+02231101321ADDAA101999999AZ101061AZ201061GA1999+017501001GE19MSL   +99999+99999GF103991999999017501999999KA1120N+02401MA1999999099941MD1999999+0131REMSYN004BUFR
0136826780999992016042718004-06770-043020FM-12+012799999V0200901N0015199999999004000199+03591+02031100841ADDAA101999999AZ101061AZ201061GA1041+006001081GE19MSL   +99999+99999GF106991041999006001999999MA1999999099461MD1999999+0041REMSYN004BUFR
0098826780999992016042800004-06770-043020FM-12+012799999V0200901N0010122000199000200199+02991+02291100901ADDAA101999999AZ101061AZ201061GF100991999999999999999999MA1999999099521MD1999999+0061REMSYN004BUFR
0181826780999992016042812004-06770-043020FM-12+012799999V0200501N0010199999999004000199+03041+02361101191ADDAA101999999AZ101061AZ201061GA1011+006001081GA2999+999999031GA3999+999999001GE19MSL   +99999+99999GF106991011999006001999999KA1120N+02641MA1999999099811MD1999999-0131REMSYN004BUFR
0152826780999992016042818004-06770-043020FM-12+012799999V0200901N0026199999999004000199+03671+02011100671ADDAA101999999AZ101061AZ201061GA1031+006001081GA2999+999999001GE19MSL   +99999+99999GF106991031999006001999999MA1999999099311MD1999999-0151REMSYN004BUFR
0136826780999992016042900004-06770-043020FM-12+012799999V0200901N0010199999999000200199+03041+02331100871ADDAA101999999AZ101061AZ201061GA1031+017501081GE19MSL   +99999+99999GF103991031999017501999999MA1999999099501MD1999999-0021REMSYN004BUFR
0181826780999992016042912004-06770-043020FM-12+012799999V0200901N0010100600199004000199+02901+02371101231ADDAA101999999AZ101061AZ201061GA1051+006001081GA2999+999999031GA3999+999999001GE19MSL   +99999+99999GF108991051999006001999999KA1120N+02501MA1999999099851MD1999999-0041REMSYN004BUFR
0152826780999992016042918004-06770-043020FM-12+012799999V0201801N0005199999999004000199+03491+01981100751ADDAA101999999AZ101061AZ201061GA1041+006001061GA2999+999999001GE19MSL   +99999+99999GF107991041999006001999999MA1999999099381MD1999999+0071REMSYN004BUFR
0098826780999992016043000004-06770-043020FM-12+012799999V0203601N0000122000199000200199+02991+02321100931ADDAA101999999AZ101061AZ201061GF100991999999999999999999MA1999999099551MD1999999+0051REMSYN004BUFR
0165826780999992016043012004-06770-043020FM-12+012799999V0203601N0005199999999004000199+02951+02471101201ADDAA101999999AZ101061AZ201061GA1041+006001061GA2999+999999031GE19MSL   +99999+99999GF105991041999006001999999KA1120N+02561MA1999999099821MD1999999-0031REMSYN004BUFR
0174826780999992016043018004-06770-043020FM-12+012799999V0200901N0010199999999004000199+03491+02091100721ADDAA106003031AY161061AY221061GA1041+006001061GA2999+999999031GA3999+999999001GE19MSL   +99999+99999GF105991041999006001999999MA1999999099351MD1999999-0031MW1021REMSYN004BUFR
0098826780999992016050100004-06770-043020FM-12+012799999V0202701N0010122000199000200199+02851+02541100981ADDAA101999999AZ101061AZ201061GF100991999999999999999999MA1999999099601MD1999999+0051REMSYN004BUFR
0149826780999992016050112004-06770-043020FM-12+012799999V0200501N0010199999999004000199+02841+02351101411ADDAA124023031AZ101061AZ201061GA1021+006001081GE19MSL   +99999+99999GF108991021999006001999999KA1120N+02461MA1999999100021MD1999999+0201REMSYN004BUFR
0168826780999992016050118004-06770-043020FM-12+012799999V0203601N0015199999999004000199+03451+02261100811ADDAA101999999AZ101061AZ201061GA1011+006001081GA2999+999999051GA3999+999999001GE19MSL   +99999+99999GF108991011999006001999999MA1999999099431MD1999999+0081REMSYN004BUFR
0136826780999992016050200004-06770-043020FM-12+012799999V0203601N0000199999999000200199+02941+02451101041ADDAA101999999AZ101061AZ201061GA1999+080001001GE19MSL   +99999+99999GF102991999999080001999999MA1999999099661MD1999999+0061REMSYN004BUFR
0149826780999992016050212004-06770-043020FM-12+012799999V0203601N0005100600199004000199+02941+02361101391ADDAA101999999AZ101061AZ201061GA1061+006001081GE19MSL   +99999+99999GF106991061999006001999999KA1120N+02421MA1999999100011MD1999999-0011REMSYN004BUFR
0168826780999992016050218004-06770-043020FM-12+012799999V0200901N0005199999999004000199+03551+02291100881ADDAA101999999AZ101061AZ201061GA1041+006001081GA2999+999999031GA3999+999999001GE19MSL   +99999+99999GF106991041999006001999999MA1999999099501MD1999999+0071REMSYN004BUFR
0098826780999992016050300004-06770-043020FM-12+012799999V0203601N0000122000199000200199+02991+02441101181ADDAA101999999AZ101061AZ201061GF100991999999999999999999MA1999999099801MD1999999-0141REMSYN004BUFR
0165826780999992016050312004-06770-043020FM-12+012799999V0200501N0005100600199004000199+02671+02311101481ADDAA101999999AZ101061AZ201061GA1061+006001061GA2999+999999031GE19MSL   +99999+99999GF108991061999006001999999KA1120N+02461MA1999999100091MD1999999+0011REMSYN004BUFR
0152826780999992016050318004-06770-043020FM-12+012799999V0203601N0005100600199004000199+03291+02271100981ADDAA101999999AZ101061AZ201061GA1051+006001081GA2999+999999001GE19MSL   +99999+99999GF108991051999006001999999MA1999999099601MD1999999+0101REMSYN004BUFR
0136826780999992016050400004-06770-043020FM-12+012799999V0203601N0000199999999000200199+02821+02421101321ADDAA101999999AZ101061AZ201061GA1041+006001001GE19MSL   +99999+99999GF104991041999006001999999MA1999999099921MD1999999+0121REMSYN004BUFR
0165826780999992016050412004-06770-043020FM-12+012799999V0200901N0026199999999004000199+02951+02101101431ADDAA101999999AZ101061AZ201061GA1011+017501041GA2999+999999001GE19MSL   +99999+99999GF103991011999017501999999KA1120N+02301MA1999999100041MD1999999-0051REMSYN004BUFR
0136826780999992016050418004-06770-043020FM-12+012799999V0200501N0005100600199004000199+03501+02091100951ADDAA101999999AZ101061AZ201061GA1051+006001081GE19MSL   +99999+99999GF107991051999006001999999MA1999999099571MD1999999-0031REMSYN004BUFR
0136826780999992016050500004-06770-043020FM-12+012799999V0203601N0000199999999000200199+02921+02391101151ADDAA101999999AZ101061AZ201061GA1011+006001061GE19MSL   +99999+99999GF101991011999006001999999MA1999999099771MD1999999-0151REMSYN004BUFR
0165826780999992016050512004-06770-043020FM-12+012799999V0201401N0031199999999004000199+02951+01811101521ADDAA101999999AZ101061AZ201061GA1021+006001081GA2999+999999001GE19MSL   +99999+99999GF108991021999006001999999KA1120N+02281MA1999999100131MD1999999+0091REMSYN004BUFR
0152826780999992016050518004-06770-043020FM-12+012799999V0200501N0015199999999004000199+03491+01721101041ADDAA101999999AZ101061AZ201061GA1031+006001081GA2999+999999001GE19MSL   +99999+99999GF106991031999006001999999MA1999999099661MD1999999+0091REMSYN004BUFR
0111826780999992016050612004-06770-043020FM-12+012799999V0203601N0010122000199004000199+02741+02081101451ADDAA101999999AZ101061AZ201061GF100991999999999999999999KA1120N+02081MA1999999100051MD1999999-0011REMSYN004BUFR
0168826780999992016050618004-06770-043020FM-12+012799999V0201801N0010199999999004000199+03521+01911101041ADDAA101999999AZ101061AZ201061GA1031+006001081GA2999+999999031GA3999+999999001GE19MSL   +99999+99999GF105991031999006001999999MA1999999099651MD1999999-0011REMSYN004BUFR
0098826780999992016050700004-06770-043020FM-12+012799999V0203601N0000122000199000200199+02891+02151101331ADDAA101999999AZ101061AZ201061GF100991999999999999999999MA1999999099941MD1999999+0071REMSYN004BUFR
0165826780999992016050712004-06770-043020FM-12+012799999V0200901N0036199999999004000199+02971+01791101401ADDAA101999999AZ101061AZ201061GA1011+006001081GA2999+999999001GE19MSL   +99999+99999GF106991011999006001999999KA1120N+02141MA1999999100021MD1999999-0031REMSYN004BUFR
0136826780999992016050718004-06770-043020FM-12+012799999V0201401N0015100600199004000199+03641+01751100941ADDAA101999999AZ101061AZ201061GA1051+006001081GE19MSL   +99999+99999GF105991051999006001999999MA1999999099561MD1999999-0091REMSYN004BUFR
0098826780999992016050800004-06770-043020FM-12+012799999V0203601N0000122000199000200199+02791+02111101051ADDAA101999999AZ101061AZ201061GF100991999999999999999999MA1999999099671MD1999999-0271REMSYN004BUFR
0111826780999992016050812004-06770-043020FM-12+012799999V0201401N0031122000199004000199+02951+01641101271ADDAA101999999AZ101061AZ201061GF100991999999999999999999KA1120N+02261MA1999999099881MD1999999-0141REMSYN004BUFR
0136826780999992016050818004-06770-043020FM-12+012799999V0202301N0010199999999004000199+03091+02031100851ADDAA101999999AZ101061AZ201061GA1031+006001081GE19MSL   +99999+99999GF103991031999006001999999MA1999999099461MD1999999-0101REMSYN004BUFR
0098826780999992016050900004-06770-043020FM-12+012799999V0203601N0000122000199000200199+02871+02201101031ADDAA101999999AZ101061AZ201061GF100991999999999999999999MA1999999099651MD1999999-0021REMSYN004BUFR
0111826780999992016050912004-06770-043020FM-12+012799999V0200901N0031122000199004000199+02921+01461101321ADDAA101999999AZ101061AZ201061GF100991999999999999999999KA1120N+02221MA1999999099931MD1999999+0051REMSYN004BUFR
0098826780999992016050918004-06770-043020FM-12+012799999V0200501N0010122000199004000199+03591+01671100911ADDAA101999999AZ101061AZ201061GF100991999999999999999999MA1999999099531MD1999999+0051REMSYN004BUFR
0181826780999992016051012004-06770-043020FM-12+012799999V0201401N0031199999999004000199+03091+02031101351ADDAA101999999AZ101061AZ201061GA1031+006001061GA2999+999999031GA3999+999999001GE19MSL   +99999+99999GF108991031999006001999999KA1120N+02601MA1999999099971MD1999999+0041REMSYN004BUFR
0136826780999992016051018004-06770-043020FM-12+012799999V0200501N0010100600199004000199+03541+02011100891ADDAA101999999AZ101061AZ201061GA1051+006001081GE19MSL   +99999+99999GF108991051999006001999999MA1999999099521MD1999999-0011REMSYN004BUFR
0152826780999992016051100004-06770-043020FM-12+012799999V0200901N0015100600199000200199+03041+02181101131ADDAA101999999AZ101061AZ201061GA1061+006001061GA2999+999999001GE19MSL   +99999+99999GF108991061999006001999999MA1999999099761MD1999999+0101REMSYN004BUFR
0165826780999992016051112004-06770-043020FM-12+012799999V0201401N0026199999999004000199+03151+02141101351ADDAA101999999AZ101061AZ201061GA1021+017501031GA2999+999999001GE19MSL   +99999+99999GF103991021999017501999999KA1120N+02581MA1999999099971MD1999999+0001REMSYN004BUFR
0152826780999992016051118004-06770-043020FM-12+012799999V0200901N0026100600199004000199+03621+02041100891ADDAA101999999AZ101061AZ201061GA1051+006001061GA2999+999999031GE19MSL   +99999+99999GF107991051999006001999999MA1999999099521MD1999999+0001REMSYN004BUFR
0152826780999992016051200004-06770-043020FM-12+012799999V0200901N0005199999999000200199+02991+02291101071ADDAA101999999AZ101061AZ201061GA1041+006001061GA2999+999999031GE19MSL   +99999+99999GF105991041999006001999999MA1999999099701MD1999999-0061REMSYN004BUFR
0165826780999992016051212004-06770-043020FM-12+012799999V0200501N0005199999999004000199+03041+02311101521ADDAA101999999AZ101061AZ201061GA1031+017501091GA2999+999999051GE19MSL   +99999+99999GF105991031999017501999999KA1120N+02541MA1999999100141MD1999999+0171REMSYN004BUFR
0168826780999992016051218004-06770-043020FM-12+012799999V0200901N0031100600199004000199+03541+02091100981ADDAA101999999AZ101061AZ201061GA1051+006001061GA2999+999999031GA3999+999999001GE19MSL   +99999+99999GF106991051999006001999999MA1999999099611MD1999999+0091REMSYN004BUFR
0098826780999992016051300004-06770-043020FM-12+012799999V0203601N0000122000199000200199+02821+02501101731ADDAA101999999AZ101061AZ201061GF100991999999999999999999MA1999999099841MD1999999+0141REMSYN004BUFR
0165826780999992016051312004-06770-043020FM-12+012799999V0200501N0010199999999004000199+02941+02361101531ADDAA101999999AZ101061AZ201061GA1021+006001081GA2999+999999001GE19MSL   +99999+99999GF104991021999006001999999KA1120N+02401MA1999999100141MD1999999+0001REMSYN004BUFR
0152826780999992016051318004-06770-043020FM-12+012799999V0200501N0015100600199004000199+03671+02061101001ADDAA101999999AZ101061AZ201061GA1051+006001081GA2999+999999001GE19MSL   +99999+99999GF108991051999006001999999MA1999999099631MD1999999+0021REMSYN004BUFR
0152826780999992016051400004-06770-043020FM-12+012799999V0200501N0005199999999000200199+03051+02271101221ADDAA101999999AZ101061AZ201061GA1021+006001061GA2999+999999031GE19MSL   +99999+99999GF104991021999006001999999MA1999999099841MD1999999+0001REMSYN004BUFR
0171826780999992016051412004-06770-043020FM-12+012799999V0200901N0005100600199004000199+02921+02431101541ADDAA124007031AY161061AY221061GA1061+006001061GA2999+999999001GE19MSL   +99999+99999GF107991061999006001999999KA1120N+02521MA1999999100161MD1999999+0021MW1021REMSYN004BUFR
0152826780999992016051418004-06770-043020FM-12+012799999V0201401N0005199999999004000199+03551+01781101101ADDAA101999999AZ101061AZ201061GA1041+006001081GA2999+999999001GE19MSL   +99999+99999GF105991041999006001999999MA1999999099721MD1999999+0091REMSYN004BUFR
0098826780999992016051500004-06770-043020FM-12+012799999V0201801N0005122000199000200199+02741+02121101231ADDAA101999999AZ101061AZ201061GF100991999999999999999999MA1999999099841MD1999999+0001REMSYN004BUFR
0171826780999992016051512004-06770-043020FM-12+012799999V0203601N0000199999999004000199+02751+02341101531ADDAA124002031AY161061AY221061GA1031+017501031GA2999+999999001GE19MSL   +99999+99999GF104991031999017501999999KA1120N+02261MA1999999100131MD1999999-0031MW1021REMSYN004BUFR
0152826780999992016051518004-06770-043020FM-12+012799999V0201801N0005199999999004000199+03641+01751101091ADDAA101999999AZ101061AZ201061GA1021+006001081GA2999+999999001GE19MSL   +99999+99999GF103991021999006001999999MA1999999099711MD1999999+0011REMSYN004BUFR
