0174827650999992016010100004-07330-047470FM-12+019399999V0203601N0000100600199010000199+02451+02341101321ADDAA106006031AY161061AY221061GA1081+006001071GA2999+999999101GA3999+999999101GE19MSL   +99999+99999GF108991081999006001999999MA1999999098931MD1999999-0131MW1031REMSYN004BUFR
0187827650999992016010112004-07330-047470FM-12+019399999V020360199999900600199020000199+02541+02291101611ADDAA124006031AY161061AY221061GA1081+006001071GA2999+999999101GA3999+999999101GE19MSL   +99999+99999GF108991081999006001999999KA1120N+02311MA1999999099201MD1999999+0071MW1031REMSYN004BUFR
0174827650999992016010118004-07330-047470FM-12+019399999V020360199999901250199020000199+02641+02351101321ADDAA106005031AY161061AY221061GA1081+012501071GA2999+999999101GA3999+999999101GE19MSL   +99999+99999GF108991081999012501999999MA1999999098911MD1999999+0131MW1031REMSYN004BUFR
0168827650999992016010200004-07330-047470FM-12+019399999V0203601N0000100600199010000199+02521+02291101361ADDAA101999999AZ101061AZ201061GA1081+006001081GA2999+999999031GA3999+999999101GE19MSL   +99999+99999GF108991081999006001999999MA1999999098961MD1999999+0031REMSYN004BUFR
0165827650999992016010212004-07330-047470FM-12+019399999V0203601N0000199999999020000199+02671+02311101711ADDAA124005031AZ101061AZ201061GA1021+017501061GA2999+999999031GE19MSL   +99999+99999GF106991021999017501999999KA1120N+02291MA1999999099301MD1999999+0101REMSYN004BUFR
0136827650999992016010218004-07330-047470FM-12+019399999V0203601N0000100600199020000199+03141+02271101311ADDAA101999999AZ101061AZ201061GA1071+006001071GE19MSL   +99999+99999GF107991071999006001999999MA1999999098931MD1999999+0021REMSYN004BUFR
0149827650999992016010312004-07330-047470FM-12+019399999V020360199999900600199020000199+02841+02311101631ADDAA101999999AZ101061AZ201061GA1061+006001061GE19MSL   +99999+99999GF106991061999006001999999KA1120N+02271MA1999999099241MD1999999-0061REMSYN004BUFR
0152827650999992016010318004-07330-047470FM-12+019399999V0203601N0000101250199020000199+03291+02301101211ADDAA101999999AZ101061AZ201061GA1051+012501061GA2999+999999021GE19MSL   +99999+99999GF106991051999012501999999MA1999999098851MD1999999-0081REMSYN004BUFR
0136827650999992016010400004-07330-047470FM-12+019399999V0203601N0000100600199020000199+02891+02341101341ADDAA101999999AZ101061AZ201061GA1061+006001061GE19MSL   +99999+99999GF106991061999006001999999MA1999999098971MD1999999+0041REMSYN004BUFR
0165827650999992016010412004-07330-047470FM-12+019399999V020050199999999999999020000199+02821+02271101681ADDAA101999999AZ101061AZ201061GA1011+006001081GA2999+999999051GE19MSL   +99999+99999GF104991011999006001999999KA1120N+02391MA1999999099301MD1999999+0061REMSYN004BUFR
0152827650999992016010418004-07330-047470FM-12+019399999V0203601N0000199999999020000199+03271+02291101121ADDAA101999999AZ101061AZ201061GA1041+006001081GA2999+999999051GE19MSL   +99999+99999GF106991041999006001999999MA1999999098761MD1999999-0091REMSYN004BUFR
0098827650999992016010500004-07330-047470FM-12+019399999V020140199999922000199020000199+02871+02371101391ADDAA101999999AZ101061AZ201061GF100991999999999999999999MA1999999099021MD1999999+0051REMSYN004BUFR
0165827650999992016010512004-07330-047470FM-12+019399999V0203601N0000199999999020000199+02841+02441101641ADDAA101999999AZ101061AZ201061GA1031+006001081GA2999+999999001GE19MSL   +99999+99999GF105991031999006001999999KA1120N+02491MA1999999099261MD1999999-0041REMSYN004BUFR
0152827650999992016010518004-07330-047470FM-12+019399999V020360199999999999999020000199+03241+02331101161ADDAA101999999AZ101061AZ201061GA1041+006001081GA2999+999999051GE19MSL   +99999+99999GF106991041999006001999999MA1999999098801MD1999999+0041REMSYN004BUFR
0152827650999992016010600004-07330-047470FM-12+019399999V0203601N0000199999999020000199+02791+02421101501ADDAA101999999AZ101061AZ201061GA1041+006001081GA2999+999999051GE19MSL   +99999+99999GF106991041999006001999999MA1999999099121MD1999999+0101REMSYN004BUFR
0181827650999992016010612004-07330-047470FM-12+019399999V0203601N0000100600199020000199+02621+02441101071ADDAA101999999AZ101061AZ201061GA1061+006001081GA2999+999999051GA3999+999999101GE19MSL   +99999+99999GF108991061999006001999999KA1120N+02431MA1999999099301MD1999999+0041REMSYN004BUFR
0174827650999992016010618004-07330-047470FM-12+019399999V020050199999999999999020000199+02591+02401101361ADDAA106003031AY161061AY221061GA1031+006001081GA2999+999999051GA3999+999999101GE19MSL   +99999+99999GF108991031999006001999999MA1999999098961MD1999999+0161MW1001REMSYN004BUFR
0168827650999992016010700004-07330-047470FM-12+019399999V0203601N0000199999999020000199+02571+02441101541ADDAA101999999AZ101061AZ201061GA1021+006001081GA2999+999999051GA3999+999999101GE19MSL   +99999+99999GF108991021999006001999999MA1999999099141MD1999999+0021REMSYN004BUFR
0187827650999992016010712004-07330-047470FM-12+019399999V020140199999900600199020000199+02641+02411101571ADDAA124003031AY151061AY211061GA1081+006001071GA2999+999999101GA3999+999999101GE19MSL   +99999+99999GF108991081999006001999999KA1120N+02391MA1999999099171MD1999999-0131MW1031REMSYN004BUFR
0174827650999992016010718004-07330-047470FM-12+019399999V0203601N0000199999999002000199+02471+02411101311ADDAA106023031AY161061AY221061GA1081+999999071GA2999+999999101GA3999+999999101GE19MSL   +99999+99999GF108991081999999999999999MA1999999098901MD1999999-0061MW1511REMSYN004BUFR
0174827650999992016010800004-07330-047470FM-12+019399999V0203601N0000199999999002000199+02491+02451101361ADDAA106000431AY151061AY221061GA1081+999999071GA2999+999999101GA3999+999999101GE19MSL   +99999+99999GF108991081999999999999999MA1999999098961MD1999999-0181MW1031REMSYN004BUFR
0187827650999992016010812004-07330-047470FM-12+019399999V020090199999900600199020000199+02551+02481101501ADDAA124025031AY161061AY221061GA1081+006001071GA2999+999999101GA3999+999999101GE19MSL   +99999+99999GF108991081999006001999999KA1120N+02351MA1999999099091MD1999999-0081MW1031REMSYN004BUFR
0174827650999992016010818004-07330-047470FM-12+019399999V0203601N0000100600199020000199+02541+02401101331ADDAA106000831AY151061AY221061GA1081+006001071GA2999+999999101GA3999+999999101GE19MSL   +99999+99999GF108991081999006001999999MA1999999098921MD1999999+0021MW1511REMSYN004BUFR
0174827650999992016010900004-07330-047470FM-12+019399999V020140199999900600199010000199+02491+02451101541ADDAA106000531AY151061AY221061GA1081+006001071GA2999+999999101GA3999+999999101GE19MSL   +99999+99999GF108991081999006001999999MA1999999099131MD1999999+0171MW1031REMSYN004BUFR
0187827650999992016010912004-07330-047470FM-12+019399999V0203601N0000100600199020000199+02451+02371101691ADDAA124022031AY161061AY221061GA1081+006001071GA2999+999999101GA3999+999999101GE19MSL   +99999+99999GF108991081999006001999999KA1120N+02291MA1999999099271MD1999999+0181MW1031REMSYN004BUFR
0174827650999992016010918004-07330-047470FM-12+019399999V020050199999999999999002000199+02521+02431101361ADDAA106021031AY161061AY221061GA1081+999999071GA2999+999999101GA3999+999999101GE19MSL   +99999+99999GF108991081999999999999999MA1999999098951MD1999999+0031MW1611REMSYN004BUFR
0142827650999992016011000004-07330-047470FM-12+019399999V0203601N0000100600199020000199+02551+02441101391ADDAA106001031AY161061AY221061GA1061+006001061GE19MSL   +99999+99999GF106991061999006001999999MA1999999098981MD1999999-0131MW1021REMSYN004BUFR
0171827650999992016011012004-07330-047470FM-12+019399999V0203601N0000199999999020000199+02591+02461101561ADDAA124023031AY151061AY221061GA1041+006001081GA2999+999999031GE19MSL   +99999+99999GF107991041999006001999999KA1120N+02371MA1999999099161MD1999999-0111MW1001REMSYN004BUFR
0174827650999992016011018004-07330-047470FM-12+019399999V020050199999900600199020000199+02471+02411101421ADDAA106078031AY161061AY221061GA1061+006001071GA2999+999999051GA3999+999999101GE19MSL   +99999+99999GF108991061999006001999999MA1999999099011MD1999999+0061MW1511REMSYN004BUFR
0165827650999992016011112004-07330-047470FM-12+019399999V020090199999999999999020000199+02591+02421101641ADDAA124078031AZ101061AZ201061GA1031+006001081GA2999+999999031GE19MSL   +99999+99999GF107991031999006001999999KA1120N+02351MA1999999099231MD1999999+0071REMSYN004BUFR
0152827650999992016011118004-07330-047470FM-12+019399999V020050199999999999999020000199+03221+02561101071ADDAA101999999AZ101061AZ201061GA1041+006001071GA2999+999999031GE19MSL   +99999+99999GF106991041999006001999999MA1999999098701MD1999999-0311REMSYN004BUFR
0168827650999992016011200004-07330-047470FM-12+019399999V0203601N0000199999999020000199+02871+02581101271ADDAA101999999AZ101061AZ201061GA1041+006001081GA2999+999999051GA3999+999999101GE19MSL   +99999+99999GF108991041999006001999999MA1999999098891MD1999999-0161REMSYN004BUFR
0149827650999992016011212004-07330-047470FM-12+019399999V0203601N0000199999999020000199+02921+02521101411ADDAA101999999AZ101061AZ201061GA1011+006001081GE19MSL   +99999+99999GF101991011999006001999999KA1120N+02531MA1999999099041MD1999999-0191REMSYN004BUFR
0152827650999992016011218004-07330-047470FM-12+019399999V020270199999999999999020000199+03321+02441101001ADDAA101999999AZ101061AZ201061GA1021+006001081GA2999+999999051GE19MSL   +99999+99999GF104991021999006001999999MA1999999098651MD1999999-0051REMSYN004BUFR
0174827650999992016011300004-07330-047470FM-12+019399999V020180199999900600199020000199+02471+02381101301ADDAA106064031AY161061AY221061GA1081+006001071GA2999+999999101GA3999+999999101GE19MSL   +99999+99999GF108991081999006001999999MA1999999098911MD1999999+0021MW1611REMSYN004BUFR
0187827650999992016011312004-07330-047470FM-12+019399999V0203601N0000100600199020000199+02491+02401101581ADDAA124066031AY161061AY221061GA1081+006001071GA2999+999999101GA3999+999999101GE19MSL   +99999+99999GF108991081999006001999999KA1120N+02291MA1999999099171MD1999999+0131MW1031REMSYN004BUFR
0174827650999992016011318004-07330-047470FM-12+019399999V0203601N0000199999999999999999+02251+02211101621ADDAA106040031AY161061AY221061GA1081+999999071GA2999+999999101GA3999+999999101GE19MSL   +99999+99999GF108991081999999999999999MA1999999099191MD1999999+0541MW1611REMSYN004BUFR
0174827650999992016011400004-07330-047470FM-12+019399999V0203601N0000199999999999999999+02321+02241101441ADDAA106005031AY161061AY221061GA1081+999999071GA2999+999999101GA3999+999999101GE19MSL   +99999+99999GF108991081999999999999999MA1999999099021MD1999999+0111MW1031REMSYN004BUFR
0171827650999992016011412004-07330-047470FM-12+019399999V0203601N0000199999999020000199+02521+02311101671ADDAA124044031AY161061AY221061GA1041+006001071GA2999+999999051GE19MSL   +99999+99999GF107991041999006001999999KA1120N+02191MA1999999099251MD1999999+0081MW1031REMSYN004BUFR
0174827650999992016011418004-07330-047470FM-12+019399999V020050199999999999999999999999+02771+02401101271ADDAA101999999AY101061AY201061GA1081+999999071GA2999+999999101GA3999+999999101GE19MSL   +99999+99999GF108991081999999999999999MA1999999098861MD1999999-0331MW1161REMSYN004BUFR
0142827650999992016011500004-07330-047470FM-12+019399999V0203601N0000100600199010000199+02571+02441102441ADDAA106021031AY161061AY221061GA1071+006001081GE19MSL   +99999+99999GF107991071999006001999999MA1999999099041MD1999999+0021MW1021REMSYN004BUFR
0149827650999992016011512004-07330-047470FM-12+019399999V0203601N0000101250199020000199+02591+02421101621ADDAA124021031AZ101061AZ201061GA1071+012501061GE19MSL   +99999+99999GF107991071999012501999999KA1120N+02331MA1999999099221MD1999999-0031REMSYN004BUFR
0158827650999992016011518004-07330-047470FM-12+019399999V020050199999901750199020000199+02621+02351101261ADDAA106002031AY161061AY221061GA1081+017501031GA2999+999999101GE19MSL   +99999+99999GF108991081999017501999999MA1999999098861MD1999999+0001MW1021REMSYN004BUFR
0098827650999992016011600004-07330-047470FM-12+019399999V0203601N0000122000199020000199+02641+02441101281ADDAA101999999AZ101061AZ201061GF100991999999999999999999MA1999999098881MD1999999-0161REMSYN004BUFR
0165827650999992016011612004-07330-047470FM-12+019399999V0203601N0000100600199020000199+02771+02481101481ADDAA124002031AZ101061AZ201061GA1051+006001081GA2999+999999031GE19MSL   +99999+99999GF107991051999006001999999KA1120N+02371MA1999999099091MD1999999-0131REMSYN004BUFR
0152827650999992016011618004-07330-047470FM-12+019399999V020320199999999999999020000199+03221+02401101101ADDAA101999999AZ101061AZ201061GA1041+006001081GA2999+999999051GE19MSL   +99999+99999GF106991041999006001999999MA1999999098731MD1999999-0131REMSYN004BUFR
0158827650999992016011700004-07330-047470FM-12+019399999V0203601N0000199999999020000199+02671+02371101311ADDAA106000431AY151061AY211061GA1041+006001081GA2999+999999051GE19MSL   +99999+99999GF107991041999006001999999MA1999999098931MD1999999+0051MW1001REMSYN004BUFR
0165827650999992016011712004-07330-047470FM-12+019399999V020230199999999999999020000199+02621+02411101511ADDAA124000431AZ101061AZ201061GA1031+006001081GA2999+999999041GE19MSL   +99999+99999GF108991031999006001999999KA1120N+02361MA1999999099111MD1999999+0021REMSYN004BUFR
0174827650999992016011718004-07330-047470FM-12+019399999V0203601N0000199999999020000199+02451+02371101341ADDAA106064031AY161061AY221061GA1041+006001081GA2999+999999051GA3999+999999101GE19MSL   +99999+99999GF108991041999006001999999MA1999999098931MD1999999+0201MW1001REMSYN004BUFR
0158827650999992016011800004-07330-047470FM-12+019399999V020090199999999999999020000199+02471+02431101441ADDAA106000731AY151061AY221061GA1031+006001081GA2999+999999051GE19MSL   +99999+99999GF107991031999006001999999MA1999999099041MD1999999+0111MW1001REMSYN004BUFR
0165827650999992016011812004-07330-047470FM-12+019399999V0203601N0000199999999020000199+02491+02401101521ADDAA124064031AZ101061AZ201061GA1041+006001081GA2999+999999031GE19MSL   +99999+99999GF107991041999006001999999KA1120N+02251MA1999999099111MD1999999+0001REMSYN004BUFR
0152827650999992016011818004-07330-047470FM-12+019399999V020050199999999999999020000199+03071+02491101081ADDAA101999999AZ101061AZ201061GA1031+006001081GA2999+999999031GE19MSL   +99999+99999GF105991031999006001999999MA1999999098701MD1999999-0231REMSYN004BUFR
0168827650999992016011900004-07330-047470FM-12+019399999V020270199999999999999020000199+02721+02501101301ADDAA101999999AZ101061AZ201061GA1041+006001081GA2999+999999051GA3999+999999101GE19MSL   +99999+99999GF108991041999006001999999MA1999999098901MD1999999-0141REMSYN004BUFR
0165827650999992016011912004-07330-047470FM-12+019399999V020360199999901250199020000199+02641+02441101441ADDAA101999999AZ101061AZ201061GA1081+012501031GA2999+999999101GE19MSL   +99999+99999GF108991081999012501999999KA1120N+02471MA1999999099051MD1999999-0061REMSYN004BUFR
0174827650999992016011918004-07330-047470FM-12+019399999V020270199999901750199020000199+02871+02481101021ADDAA101999999AY121061AY221061GA1081+017501071GA2999+999999101GA3999+999999101GE19MSL   +99999+99999GF108991081999017501999999MA1999999098651MD1999999-0051MW1031REMSYN004BUFR
0174827650999992016012000004-07330-047470FM-12+019399999V0203601N0000100600199010000199+02621+02481101241ADDAA101999999AY121061AY221061GA1081+006001071GA2999+999999101GA3999+999999101GE19MSL   +99999+99999GF108991081999006001999999MA1999999098831MD1999999-0051MW1031REMSYN004BUFR
0193827650999992016012012004-07330-047470FM-12+019399999V020360199999900600199020000199+02541+02441101431ADDAA124021031AY161061AY221061GA1081+006001071GA2999+999999101GA3999+999999101GE19MSL   +99999+99999GF108991081999006001999999MA1999999099031MD1999999-0021MW1031REMSYN004BUFREQDQ0126.6  2EATMN 
0208827650999992016012018004-07333-047467FM-12+019399999V0209999C000019999999N020000199+02661+02391101151ADDAA106000131AY151021AY221021GA1081+012501071GE19MSL   +99999+99999GF108991081999012501999999MA1999999098791MD1999999+0111MW1031REMSYN07082765 21698 80000 10266 20239 39879 40115 70352 887// 333 58011 69911=
0174827650999992016012100004-07330-047470FM-12+019399999V0203601N0000100600199010000199+02471+02411101381ADDAA106011031AY161061AY221061GA1081+006001071GA2999+999999101GA3999+999999101GE19MSL   +99999+99999GF108991081999006001999999MA1999999098971MD1999999+0121MW1031REMSYN004BUFR
0187827650999992016012112004-07330-047470FM-12+019399999V020360199999999999999999999999+02421+02351101501ADDAA124020031AY161061AY221061GA1081+999999071GA2999+999999101GA3999+999999101GE19MSL   +99999+99999GF108991081999999999999999KA1120N+02311MA1999999099081MD1999999+0051MW1611REMSYN004BUFR
0174827650999992016012118004-07330-047470FM-12+019399999V020360199999901750199020000199+02471+02341101271ADDAA106029031AY161061AY221061GA1081+017501071GA2999+999999101GA3999+999999101GE19MSL   +99999+99999GF108991081999017501999999MA1999999098861MD1999999+0101MW1021REMSYN004BUFR
0174827650999992016012200004-07330-047470FM-12+019399999V0203601N0000199999999999999999+02351+02331101511ADDAA106012031AY161061AY221061GA1081+999999071GA2999+999999101GA3999+999999101GE19MSL   +99999+99999GF108991081999999999999999MA1999999099091MD1999999+0121MW1511REMSYN004BUFR
0187827650999992016012212004-07330-047470FM-12+019399999V0203601N0000100600199020000199+02451+02371101591ADDAA124041031AY161061AY221061GA1051+006001081GA2999+999999051GA3999+999999101GE19MSL   +99999+99999GF108991051999006001999999KA1120N+02251MA1999999099171MD1999999+0091MW1001REMSYN004BUFR
0152827650999992016012218004-07330-047470FM-12+019399999V020360199999900600199020000199+02871+02321101281ADDAA101999999AZ101061AZ201061GA1051+006001081GA2999+999999051GE19MSL   +99999+99999GF107991051999006001999999MA1999999098881MD1999999+0021REMSYN004BUFR
0158827650999992016012300004-07330-047470FM-12+019399999V0203601N0000199999999020000199+02541+02441101551ADDAA106002031AY161061AY221061GA1041+006001081GA2999+999999051GE19MSL   +99999+99999GF107991041999006001999999MA1999999099141MD1999999+0051MW1001REMSYN004BUFR
0181827650999992016012512004-07330-047470FM-12+019399999V020050199999901250199020000199+02551+02421101691ADDAA124002031AZ101061AZ201061GA1081+012501071GA2999+999999101GA3999+999999101GE19MSL   +99999+99999GF108991081999012501999999KA1120N+02291MA1999999099281MD1999999-0081REMSYN004BUFR
0158827650999992016012518004-07330-047470FM-12+019399999V020320199999999999999020000199+03121+02531101201ADDAA106000331AY151061AY211061GA1041+012501081GA2999+999999051GE19MSL   +99999+99999GF107991041999012501999999MA1999999098831MD1999999-0221MW1031REMSYN004BUFR
0158827650999992016012600004-07330-047470FM-12+019399999V0203601N0000199999999020000199+02741+02631101341ADDAA106002031AY161061AY211061GA1031+006001081GA2999+999999051GE19MSL   +99999+99999GF106991031999006001999999MA1999999098951MD1999999-0191MW1031REMSYN004BUFR
0171827650999992016012612004-07330-047470FM-12+019399999V020050199999999999999020000199+02641+02481101591ADDAA124003031AY161061AY211061GA1041+012501071GA2999+999999051GE19MSL   +99999+99999GF107991041999012501999999KA1120N+02391MA1999999099201MD1999999-0081MW1031REMSYN004BUFR
0174827650999992016012618004-07330-047470FM-12+019399999V020360199999901250199020000199+02741+02381101331ADDAA106000931AY151061AY211061GA1081+012501071GA2999+999999101GA3999+999999101GE19MSL   +99999+99999GF108991081999012501999999MA1999999098941MD1999999+0111MW1031REMSYN004BUFR
0152827650999992016012700004-07330-047470FM-12+019399999V0203601N0000199999999010000199+02621+02481101481ADDAA101999999AZ101061AZ201061GA1031+006001081GA2999+999999051GE19MSL   +99999+99999GF106991031999006001999999MA1999999099081MD1999999+0131REMSYN004BUFR
0187827650999992016012712004-07330-047470FM-12+019399999V020270199999999999999999999999+02491+02321101671ADDAA124000931AY151061AY221061GA1081+999999071GA2999+999999101GA3999+999999101GE19MSL   +99999+99999GF108991081999999999999999KA1120N+02371MA1999999099261MD1999999+0061MW1031REMSYN004BUFR
0158827650999992016012718004-07330-047470FM-12+019399999V020270199999999999999020000199+02941+02361101341ADDAA101999999AY111061AY211061GA1041+006001071GA2999+999999051GE19MSL   +99999+99999GF107991041999006001999999MA1999999098951MD1999999+0011MW1031REMSYN004BUFR
0174827650999992016012800004-07330-047470FM-12+019399999V020999999999900600199020000199+02451+02321101681ADDAA106001031AY161061AY221061GA1051+006001061GA2999+999999051GA3999+999999101GE19MSL   +99999+99999GF108991051999006001999999MA1999999099261MD1999999+0181MW1511REMSYN004BUFR
0187827650999992016012812004-07330-047470FM-12+019399999V0203601N0000199999999020000199+02321+02241101901ADDAA124097031AY161061AY221061GA1041+006001061GA2999+999999051GA3999+999999101GE19MSL   +99999+99999GF108991041999006001999999KA1120N+02091MA1999999099471MD1999999+0211MW1511REMSYN004BUFR
0158827650999992016012818004-07330-047470FM-12+019399999V0203601N0000199999999020000199+02591+02371101571ADDAA106001031AY161061AY211061GA1041+006001081GA2999+999999031GE19MSL   +99999+99999GF107991041999006001999999MA1999999099151MD1999999+0201MW1001REMSYN004BUFR
0174827650999992016012900004-07330-047470FM-12+019399999V0203601N0000199999999999999999+02521+02341101521ADDAA101999999AY111061AY211061GA1041+999999081GA2999+999999051GA3999+999999101GE19MSL   +99999+99999GF108991041999999999999999MA1999999099101MD1999999-0161MW1031REMSYN004BUFR
0171827650999992016012912004-07330-047470FM-12+019399999V0203601N0000199999999020000199+02541+02311101721ADDAA124004031AY161061AY221061GA1041+006001081GA2999+999999031GE19MSL   +99999+99999GF106991041999006001999999KA1120N+02171MA1999999099311MD1999999-0161MW1001REMSYN004BUFR
0158827650999992016012918004-07330-047470FM-12+019399999V020050199999999999999020000199+02971+02331101271ADDAA101999999AY191061AY211061GA1021+006001071GA2999+999999031GE19MSL   +99999+99999GF106991021999006001999999MA1999999098881MD1999999-0271MW1151REMSYN004BUFR
0152827650999992016013000004-07330-047470FM-12+019399999V020320199999900600199020000199+02651+02411101421ADDAA101999999AZ101061AZ201061GA1051+006001081GA2999+999999051GE19MSL   +99999+99999GF107991051999006001999999MA1999999099021MD1999999-0081REMSYN004BUFR
0165827650999992016013012004-07330-047470FM-12+019399999V0203601N0000199999999020000199+02791+02361101551ADDAA101999999AZ101061AZ201061GA1011+006001081GA2999+999999031GE19MSL   +99999+99999GF102991011999006001999999KA1120N+02351MA1999999099161MD1999999-0151REMSYN004BUFR
0152827650999992016013018004-07330-047470FM-12+019399999V020090199999999999999020000199+03291+02051101181ADDAA101999999AZ101061AZ201061GA1041+006001081GA2999+999999031GE19MSL   +99999+99999GF105991041999006001999999MA1999999098821MD1999999-0061REMSYN004BUFR
0098827650999992016013100004-07330-047470FM-12+019399999V0203601N0000122000199020000199+02841+02351101381ADDAA101999999AZ101061AZ201061GF100991999999999999999999MA1999999099001MD1999999-0021REMSYN004BUFR
0149827650999992016013112004-07330-047470FM-12+019399999V0203601N0000199999999020000199+02721+02151101601ADDAA101999999AZ101061AZ201061GA1031+012501081GE19MSL   +99999+99999GF103991031999012501999999KA1120N+02311MA1999999099221MD1999999+0061REMSYN004BUFR
0136827650999992016013118004-07330-047470FM-12+019399999V020090199999901750199020000199+03241+02101101211ADDAA101999999AZ101061AZ201061GA1061+017501061GE19MSL   +99999+99999GF106991061999017501999999MA1999999098851MD1999999+0031REMSYN004BUFR
0098827650999992016020100004-07330-047470FM-12+019399999V0203601N0000122000199020000199+02791+02311101371ADDAA101999999AZ101061AZ201061GF100991999999999999999999MA1999999098991MD1999999-0011REMSYN004BUFR
0155827650999992016020112004-07330-047470FM-12+019399999V020360199999900600199020000199+02621+02251101761ADDAA124001031AY161061AY211061GA1082+006001031GE19MSL   +99999+99999GF107992082999006001999999KA1120N+02311MA1999999099361MD1999999+0141MW1021REMSYN004BUFR
0152827650999992016020118004-07330-047470FM-12+019399999V0203601N0000199999999020000199+03071+02271101281ADDAA101999999AZ101061AZ201061GA1041+006001071GA2999+999999051GE19MSL   +99999+99999GF107991041999006001999999MA1999999098901MD1999999+0051REMSYN004BUFR
0152827650999992016020200004-07330-047470FM-12+019399999V0203601N0000199999999020000199+02571+02291101371ADDAA101999999AZ101061AZ201061GA1031+006001081GA2999+999999051GE19MSL   +99999+99999GF106991031999006001999999MA1999999098971MD1999999-0021REMSYN004BUFR
0165827650999992016020212004-07330-047470FM-12+019399999V020090199999999999999020000199+02641+02181101591ADDAA101999999AZ101061AZ201061GA1031+012501081GA2999+999999031GE19MSL   +99999+99999GF107991031999012501999999KA1120N+02271MA1999999099191MD1999999-0171REMSYN004BUFR
0152827650999992016020218004-07330-047470FM-12+019399999V020090199999999999999020000199+03141+02241101171ADDAA101999999AZ101061AZ201061GA1031+006001081GA2999+999999001GE19MSL   +99999+99999GF105991031999006001999999MA1999999098801MD1999999-0101REMSYN004BUFR
0171827650999992016020312004-07330-047470FM-12+019399999V020050199999999999999020000199+02621+02371101581ADDAA124000531AY151061AY211061GA1041+006001081GA2999+999999031GE19MSL   +99999+99999GF106991041999006001999999KA1120N+02311MA1999999099191MD1999999+0001MW1001REMSYN004BUFR
0174827650999992016020400004-07330-047470FM-12+019399999V020230199999999999999020000199+02341+02221101371ADDAA106008031AY191061AY261061GA1021+006001071GA2999+999999051GA3999+999999101GE19MSL   +99999+99999GF108991021999006001999999MA1999999098961MD1999999+0011MW1131REMSYN004BUFR
0187827650999992016020412004-07330-047470FM-12+019399999V0203601N0000100600199020000199+02271+02231101681ADDAA124101031AY191061AY261061GA1071+006001071GA2999+999999051GA3999+999999101GE19MSL   +99999+99999GF108991071999006001999999KA1120N+02071MA1999999099251MD1999999+0061MW1611REMSYN004BUFR
0174827650999992016020418004-07330-047470FM-12+019399999V020270199999999999999020000199+02791+02481101381ADDAA106002031AY161061AY221061GA1031+006001081GA2999+999999031GA3999+999999021GE19MSL   +99999+99999GF107991031999006001999999MA1999999098971MD1999999+0231MW1001REMSYN004BUFR
0136827650999992016020500004-07330-047470FM-12+019399999V0203601N0000199999999020000199+02671+02521101391ADDAA101999999AZ101061AZ201061GA1021+006001081GE19MSL   +99999+99999GF102991021999006001999999MA1999999098981MD1999999+0021REMSYN004BUFR
0165827650999992016020512004-07330-047470FM-12+019399999V0203601N0000199999999020000199+02641+02331101631ADDAA124002031AZ101061AZ201061GA1021+006001081GA2999+999999031GE19MSL   +99999+99999GF103991021999006001999999KA1120N+02191MA1999999099241MD1999999-0011REMSYN004BUFR
0152827650999992016020518004-07330-047470FM-12+019399999V020140199999999999999020000199+03351+02271101351ADDAA101999999AZ101061AZ201061GA1031+006001081GA2999+999999031GE19MSL   +99999+99999GF106991031999006001999999MA1999999098981MD1999999+0021REMSYN004BUFR
0098827650999992016020600004-07330-047470FM-12+019399999V0203601N0000122000199020000199+02771+02581101471ADDAA101999999AZ101061AZ201061GF100991999999999999999999MA1999999099081MD1999999+0101REMSYN004BUFR
0149827650999992016020612004-07330-047470FM-12+019399999V0203601N0000101250199020000199+02771+02401101661ADDAA101999999AZ101061AZ201061GA1051+012501021GE19MSL   +99999+99999GF105991051999012501999999KA1120N+02231MA1999999099271MD1999999+0031REMSYN004BUFR
0152827650999992016020618004-07330-047470FM-12+019399999V020090199999999999999020000199+03271+02161101401ADDAA101999999AZ101061AZ201061GA1031+006001081GA2999+999999021GE19MSL   +99999+99999GF107991031999006001999999MA1999999099031MD1999999+0051REMSYN004BUFR
0098827650999992016020700004-07330-047470FM-12+019399999V0203601N0000122000199020000199+02941+02561101441ADDAA101999999AZ101061AZ201061GF100991999999999999999999MA1999999099061MD1999999-0021REMSYN004BUFR
0149827650999992016020712004-07330-047470FM-12+019399999V0203601N0000101750199020000199+02791+02421101641ADDAA101999999AZ101061AZ201061GA1061+017501031GE19MSL   +99999+99999GF106991061999017501999999KA1120N+02471MA1999999099261MD1999999-0011REMSYN004BUFR
0136827650999992016020718004-07330-047470FM-12+019399999V020140199999900600199020000199+03471+02001101221ADDAA101999999AZ101061AZ201061GA1051+006001081GE19MSL   +99999+99999GF105991051999006001999999MA1999999098871MD1999999-0161REMSYN004BUFR
0098827650999992016020800004-07330-047470FM-12+019399999V0203601N0000122000199020000199+02971+02251101301ADDAA101999999AZ101061AZ201061GF100991999999999999999999MA1999999098931MD1999999-0131REMSYN004BUFR
0111827650999992016020812004-07330-047470FM-12+019399999V020360199999922000199020000199+02921+02121101651ADDAA101999999AZ101061AZ201061GF100991999999999999999999KA1120N+02311MA1999999099281MD1999999+0021REMSYN004BUFR
0136827650999992016020818004-07330-047470FM-12+019399999V020090199999900600199020000199+03441+01961101321ADDAA101999999AZ101061AZ201061GA1051+006001081GE19MSL   +99999+99999GF105991051999006001999999MA1999999098971MD1999999+0101REMSYN004BUFR
0098827650999992016020900004-07330-047470FM-12+019399999V0203601N0000122000199020000199+02971+02301101441ADDAA101999999AZ101061AZ201061GF100991999999999999999999MA1999999099071MD1999999+0141REMSYN004BUFR
0111827650999992016020912004-07330-047470FM-12+019399999V020050199999922000199020000199+02921+02191101771ADDAA101999999AZ101061AZ201061GF100991999999999999999999KA1120N+02331MA1999999099401MD1999999+0121REMSYN004BUFR
0136827650999992016020918004-07330-047470FM-12+019399999V020090199999999999999020000199+03471+01841101431ADDAA101999999AZ101061AZ201061GA1031+012501081GE19MSL   +99999+99999GF103991031999012501999999MA1999999099081MD1999999+0111REMSYN004BUFR
0098827650999992016021000004-07330-047470FM-12+019399999V0203601N0000122000199020000199+02941+02311101451ADDAA101999999AZ101061AZ201061GF100991999999999999999999MA1999999099081MD1999999+0011REMSYN004BUFR
0111827650999992016021012004-07330-047470FM-12+019399999V0203601N0000122000199020000199+02941+02141101691ADDAA101999999AZ101061AZ201061GF100991999999999999999999KA1120N+02271MA1999999099321MD1999999-0081REMSYN004BUFR
0136827650999992016021018004-07330-047470FM-12+019399999V020140199999999999999020000199+03521+02501101321ADDAA101999999AZ101061AZ201061GA1041+006001081GE19MSL   +99999+99999GF104991041999006001999999MA1999999098971MD1999999-0111REMSYN004BUFR
0098827650999992016021100004-07330-047470FM-12+019399999V020050199999922000199020000199+02821+02331101371ADDAA101999999AZ101061AZ201061GF100991999999999999999999MA1999999099001MD1999999-0081REMSYN004BUFR
0149827650999992016021112004-07330-047470FM-12+019399999V020360199999999999999020000199+02871+02321101701ADDAA101999999AZ101061AZ201061GA1011+006001081GE19MSL   +99999+99999GF101991011999006001999999KA1120N+02451MA1999999099321MD1999999+0001REMSYN004BUFR
0158827650999992016021118004-07330-047470FM-12+019399999V020270199999999999999020000199+03471+02381101161ADDAA101999999AY101061AY201061GA1041+006001081GA2999+999999031GE19MSL   +99999+99999GF105991041999006001999999MA1999999098811MD1999999-0161MW1291REMSYN004BUFR
0171827650999992016021212004-07330-047470FM-12+019399999V020270199999999999999020000199+02551+02381101711ADDAA124013031AY161061AY211061GA1031+012501091GA2999+999999031GE19MSL   +99999+99999GF107991031999012501999999KA1120N+02251MA1999999099291MD1999999-0031MW1021REMSYN004BUFR
0152827650999992016021218004-07330-047470FM-12+019399999V020270199999999999999020000199+03141+02351101221ADDAA101999999AZ101061AZ201061GA1031+006001061GA2999+999999051GE19MSL   +99999+99999GF106991031999006001999999MA1999999098841MD1999999+0031REMSYN004BUFR
0174827650999992016021300004-07330-047470FM-12+019399999V0203601N0000100600199020000199+02441+02301101411ADDAA106008031AY161061AY221061GA1081+006001071GA2999+999999101GA3999+999999101GE19MSL   +99999+99999GF108991081999006001999999MA1999999099001MD1999999+0081MW1001REMSYN004BUFR
0165827650999992016021312004-07330-047470FM-12+019399999V020360199999999999999020000199+02671+02431101551ADDAA124008031AZ101061AZ201061GA1041+006001071GA2999+999999051GE19MSL   +99999+99999GF107991041999006001999999KA1120N+02331MA1999999099151MD1999999-0141REMSYN004BUFR
0152827650999992016021318004-07330-047470FM-12+019399999V0203601N0000199999999020000199+03151+02371101151ADDAA101999999AZ101061AZ201061GA1031+006001081GA2999+999999031GE19MSL   +99999+99999GF106991031999006001999999MA1999999098781MD1999999-0061REMSYN004BUFR
0174827650999992016021400004-07330-047470FM-12+019399999V020090199999900600199010000199+02551+02421101461ADDAA106000531AY151061AY221061GA1081+006001071GA2999+999999101GA3999+999999101GE19MSL   +99999+99999GF108991081999006001999999MA1999999099061MD1999999+0061MW1511REMSYN004BUFR
0155827650999992016021412004-07330-047470FM-12+019399999V020090199999900600199020000199+02721+02451101571ADDAA124038031AY161061AY221061GA1051+006001061GE19MSL   +99999+99999GF105991051999006001999999KA1120N+02291MA1999999099171MD1999999+0021MW1021REMSYN004BUFR
0158827650999992016021418004-07330-047470FM-12+019399999V020270199999999999999020000199+02791+02361101111ADDAA106008031AY161061AY221061GA1021+006001081GA2999+999999051GE19MSL   +99999+99999GF106991021999006001999999MA1999999098721MD1999999-0061MW1021REMSYN004BUFR
0174827650999992016021500004-07330-047470FM-12+019399999V0203601N0000199999999020000199+02451+02341101351ADDAA106008031AY161061AY221061GA1041+006001081GA2999+999999051GA3999+999999101GE19MSL   +99999+99999GF108991041999006001999999MA1999999098951MD1999999-0111MW1031REMSYN004BUFR
0215827650999992016021512004-07333-047467FM-12+019399999V0209999C000019999999N020000199+02701+02331101641ADDAA124016031GA1021+008001081GA2999+999999031GE19MSL   +99999+99999GF103991021999008001999999KA1240N+02271MA1999999099241MD1999999+0071REMSYN07082765 22598 305// 10270 20233 39924 40164 82140 333 20227 58007 60164=
0136827650999992016021600004-07330-047470FM-12+019399999V0203601N0000199999999020000199+02751+02341101251ADDAA101999999AZ101061AZ201061GA1021+006001081GE19MSL   +99999+99999GF102991021999006001999999MA1999999098871MD1999999-0081REMSYN004BUFR
0149827650999992016021612004-07330-047470FM-12+019399999V0203601N0000199999999020000199+02791+02521101581ADDAA101999999AZ101061AZ201061GA1021+006001031GE19MSL   +99999+99999GF102991021999006001999999KA1120N+02331MA1999999099201MD1999999-0041REMSYN004BUFR
0098827650999992016021700004-07330-047470FM-12+019399999V020050199999922000199020000199+02921+02471101221ADDAA101999999AZ101061AZ201061GF100991999999999999999999MA1999999098851MD1999999-0021REMSYN004BUFR
0149827650999992016021712004-07330-047470FM-12+019399999V020090199999999999999020000199+02951+02311101441ADDAA101999999AZ101061AZ201061GA1011+006001081GE19MSL   +99999+99999GF101991011999006001999999KA1120N+02391MA1999999099071MD1999999-0131REMSYN004BUFR
0136827650999992016021718004-07330-047470FM-12+019399999V020140199999999999999020000199+03441+02111101141ADDAA101999999AZ101061AZ201061GA1031+006001081GE19MSL   +99999+99999GF103991031999006001999999MA1999999098741MD1999999-0031REMSYN004BUFR
0098827650999992016021800004-07330-047470FM-12+019399999V020050199999922000199020000199+02891+02101101241ADDAA101999999AZ101061AZ201061GF100991999999999999999999MA1999999098881MD1999999+0061REMSYN004BUFR
0111827650999992016021812004-07330-047470FM-12+019399999V0203601N0000122000199020000199+02771+02181101491ADDAA101999999AZ101061AZ201061GF100991999999999999999999KA1120N+02291MA1999999099111MD1999999+0041REMSYN004BUFR
0163827650999992016021818004-07333-047467FM-12+019399999V0209999C000019999999N020000199+03421+02231101061ADDGA1051+008001081GE19MSL   +99999+99999GF105991051999008001999999MA1999999098711MD1999999-0031REMSYN05882765 32598 505// 10342 20223 39871 40106 85100 333 59003=
0117827650999992016021900004-07330-047470FM-12+019399999V020050199999922000199020000199+03021+02311101281ADDAA101999999AZ101061AZ201061GF100991999999999999999999MA1999999999999MD1999999+0031REMSYN004BUFREQDQ01 089913APOSP 
0149827650999992016021912004-07330-047470FM-12+019399999V020050199999900600199020000199+02721+02471101481ADDAA101999999AZ101061AZ201061GA1051+006001081GE19MSL   +99999+99999GF105991051999006001999999KA1120N+02411MA1999999099101MD1999999-0011REMSYN004BUFR
0136827650999992016022000004-07330-047470FM-12+019399999V020050199999999999999020000199+02971+02491101101ADDAA101999999AZ101061AZ201061GA1031+006001081GE19MSL   +99999+99999GF103991031999006001999999MA1999999098731MD1999999-0181REMSYN004BUFR
0165827650999992016022012004-07330-047470FM-12+019399999V020360199999999999999020000199+02921+02411101411ADDAA101999999AZ101061AZ201061GA1031+006001061GA2999+999999001GE19MSL   +99999+99999GF106991031999006001999999KA1120N+02531MA1999999099051MD1999999-0051REMSYN004BUFR
0152827650999992016022018004-07330-047470FM-12+019399999V0203601N0000199999999020000199+03391+02371101041ADDAA101999999AZ101061AZ201061GA1041+006001071GA2999+999999051GE19MSL   +99999+99999GF107991041999006001999999MA1999999098701MD1999999-0031REMSYN004BUFR
0142827650999992016022100004-07330-047470FM-12+019399999V020050199999999999999020000199+02721+02321101161ADDAA106000331AY151061AY211061GA1031+012501001GE19MSL   +99999+99999GF103991031999012501999999MA1999999098791MD1999999+0061MW1021REMSYN004BUFR
0165827650999992016022112004-07330-047470FM-12+019399999V020050199999999999999020000199+02871+02351101421ADDAA124000331AZ101061AZ201061GA1011+006001081GA2999+999999031GE19MSL   +99999+99999GF103991011999006001999999KA1120N+02371MA1999999099041MD1999999-0011REMSYN004BUFR
0152827650999992016022118004-07330-047470FM-12+019399999V020140199999999999999020000199+03391+02211100991ADDAA101999999AZ101061AZ201061GA1031+006001081GA2999+999999031GE19MSL   +99999+99999GF104991031999006001999999MA1999999098641MD1999999-0061REMSYN004BUFR
0098827650999992016022200004-07330-047470FM-12+019399999V020020199999922000199020000199+02841+02311101101ADDAA101999999AZ101061AZ201061GF100991999999999999999999MA1999999098731MD1999999-0061REMSYN004BUFR
0149827650999992016022212004-07330-047470FM-12+019399999V0203601N0000100600199020000199+02851+02231101361ADDAA101999999AZ101061AZ201061GA1071+006001081GE19MSL   +99999+99999GF107991071999006001999999KA1120N+02351MA1999999098991MD1999999-0051REMSYN004BUFR
0136827650999992016022218004-07330-047470FM-12+019399999V020070199999900600199020000199+03441+02111100991ADDAA101999999AZ101061AZ201061GA1061+006001081GE19MSL   +99999+99999GF106991061999006001999999MA1999999098641MD1999999+0001REMSYN004BUFR
0098827650999992016022300004-07330-047470FM-12+019399999V020090199999922000199020000199+02951+02181101151ADDAA101999999AZ101061AZ201061GF100991999999999999999999MA1999999098791MD1999999+0061REMSYN004BUFR
0149827650999992016022312004-07330-047470FM-12+019399999V020050199999999999999020000199+02891+02201101531ADDAA101999999AZ101061AZ201061GA1011+017501001GE19MSL   +99999+99999GF101991011999017501999999KA1120N+02351MA1999999099161MD1999999+0171REMSYN004BUFR
0136827650999992016022318004-07330-047470FM-12+019399999V020050199999900600199020000199+03541+02131101161ADDAA101999999AZ101061AZ201061GA1051+006001081GE19MSL   +99999+99999GF105991051999006001999999MA1999999098821MD1999999+0181REMSYN004BUFR
0098827650999992016022400004-07330-047470FM-12+019399999V0203601N0000122000199020000199+02991+02641101181ADDAA101999999AZ101061AZ201061GF100991999999999999999999MA1999999098821MD1999999+0031REMSYN004BUFR
0111827650999992016022412004-07330-047470FM-12+019399999V0203601N0000122000199020000199+02971+02581101521ADDAA101999999AZ101061AZ201061GF100991999999999999999999KA1120N+02511MA1999999099161MD1999999+0001REMSYN004BUFR
0152827650999992016022418004-07330-047470FM-12+019399999V020180199999999999999020000199+03521+03121100951ADDAA101999999AZ101061AZ201061GA1021+006001081GA2999+999999021GE19MSL   +99999+99999GF104991021999006001999999MA1999999098621MD1999999-0201REMSYN004BUFR
0136827650999992016022500004-07330-047470FM-12+019399999V0203601N0000199999999020000199+03141+02501101141ADDAA101999999AZ101061AZ201061GA1041+006001081GE19MSL   +99999+99999GF104991041999006001999999MA1999999098791MD1999999-0031REMSYN004BUFR
0171827650999992016022512004-07330-047470FM-12+019399999V0203601N0000199999999020000199+02941+02401101391ADDAA124002031AY161061AY211061GA1031+006001061GA2999+999999051GE19MSL   +99999+99999GF106991031999006001999999KA1120N+02611MA1999999099041MD1999999-0121MW1021REMSYN004BUFR
0152827650999992016022518004-07330-047470FM-12+019399999V020180199999999999999020000199+03441+02311100921ADDAA101999999AZ101061AZ201061GA1041+006001061GA2999+999999051GE19MSL   +99999+99999GF107991041999006001999999MA1999999098591MD1999999-0031REMSYN004BUFR
0174827650999992016022600004-07330-047470FM-12+019399999V0203601N0000100600199010000199+02341+02221101221ADDAA106032031AY161061AY221061GA1081+006001071GA2999+999999101GA3999+999999101GE19MSL   +99999+99999GF108991081999006001999999MA1999999098831MD1999999+0041MW1291REMSYN004BUFR
0187827650999992016022612004-07330-047470FM-12+019399999V0203601N0000101250199020000199+02491+02321101561ADDAA124042031AY161061AY221061GA1081+012501071GA2999+999999101GA3999+999999101GE19MSL   +99999+99999GF108991081999012501999999KA1120N+02271MA1999999099141MD1999999+0101MW1511REMSYN004BUFR
0174827650999992016022618004-07330-047470FM-12+019399999V0203601N0000100600199020000199+02571+02381101241ADDAA106004031AY161061AY221061GA1051+006001081GA2999+999999051GA3999+999999101GE19MSL   +99999+99999GF108991051999006001999999MA1999999098841MD1999999+0251MW1001REMSYN004BUFR
0098827650999992016022700004-07330-047470FM-12+019399999V0203601N0000122000199020000199+02571+02481101301ADDAA101999999AZ101061AZ201061GF100991999999999999999999MA1999999098901MD1999999+0071REMSYN004BUFR
0165827650999992016022712004-07330-047470FM-12+019399999V0203601N0000199999999020000199+02591+02421101711ADDAA124004031AZ101061AZ201061GA1041+006001081GA2999+999999001GE19MSL   +99999+99999GF107991041999006001999999KA1120N+02331MA1999999099301MD1999999+0161REMSYN004BUFR
0152827650999992016022718004-07330-047470FM-12+019399999V020110199999999999999020000199+03251+02411101241ADDAA101999999AZ101061AZ201061GA1031+006001081GA2999+999999031GE19MSL   +99999+99999GF105991031999006001999999MA1999999098871MD1999999+0031REMSYN004BUFR
0098827650999992016022800004-07330-047470FM-12+019399999V0203601N0000122000199020000199+02841+02521101251ADDAA101999999AZ101061AZ201061GF100991999999999999999999MA1999999098861MD1999999-0041REMSYN004BUFR
0165827650999992016022812004-07330-047470FM-12+019399999V0203601N0000100600199020000199+02741+02451101651ADDAA101999999AZ101061AZ201061GA1051+006001081GA2999+999999031GE19MSL   +99999+99999GF106991051999006001999999KA1120N+02391MA1999999098261MD1999999-0041REMSYN004BUFR
0152827650999992016022818004-07330-047470FM-12+019399999V020090199999999999999020000199+03291+02421101181ADDAA101999999AZ101061AZ201061GA1041+006001081GA2999+999999031GE19MSL   +99999+99999GF105991041999006001999999MA1999999098821MD1999999-0051REMSYN004BUFR
0098827650999992016022900004-07330-047470FM-12+019399999V0203601N0000122000199020000199+02851+02391101331ADDAA101999999AZ101061AZ201061GF100991999999999999999999MA1999999098951MD1999999+0091REMSYN004BUFR
0149827650999992016022912004-07330-047470FM-12+019399999V020090199999901750199020000199+02941+02311101451ADDAA101999999AZ101061AZ201061GA1051+017501031GE19MSL   +99999+99999GF105991051999017501999999KA1120N+02451MA1999999099081MD1999999-0181REMSYN004BUFR
0152827650999992016022918004-07330-047470FM-12+019399999V020090199999999999999020000199+03471+02531100991ADDAA101999999AZ101061AZ201061GA1031+006001081GA2999+999999001GE19MSL   +99999+99999GF105991031999006001999999MA1999999098651MD1999999-0171REMSYN004BUFR
0098827650999992016030100004-07330-047470FM-12+019399999V020050199999922000199020000199+02991+02531101071ADDAA101999999AZ101061AZ201061GF100991999999999999999999MA1999999098721MD1999999-0231REMSYN004BUFR
0149827650999992016030112004-07330-047470FM-12+019399999V0203601N0000101750199020000199+03051+02431101471ADDAA101999999AZ101061AZ201061GA1051+017501031GE19MSL   +99999+99999GF105991051999017501999999KA1120N+02511MA1999999099111MD1999999+0031REMSYN004BUFR
0152827650999992016030118004-07330-047470FM-12+019399999V0203601N0000199999999020000199+03441+02431100941ADDAA101999999AZ101061AZ201061GA1031+006001081GA2999+999999051GE19MSL   +99999+99999GF105991031999006001999999MA1999999098601MD1999999-0051REMSYN004BUFR
0142827650999992016030200004-07330-047470FM-12+019399999V0203601N0000100600199010000199+02641+02441101071ADDAA106021031AY161061AY221061GA1071+006001061GE19MSL   +99999+99999GF107991071999006001999999MA1999999098701MD1999999-0021MW1021REMSYN004BUFR
0165827650999992016030212004-07330-047470FM-12+019399999V0203601N0000199999999020000199+02921+02521101421ADDAA124021031AZ101061AZ201061GA1031+006001061GA2999+999999051GE19MSL   +99999+99999GF106991031999006001999999KA1120N+02391MA1999999099041MD1999999-0071REMSYN004BUFR
0158827650999992016030218004-07330-047470FM-12+019399999V020270199999901750199020000199+03021+02611101071ADDAA106002031AY161061AY221061GA1081+017501081GA2999+999999101GE19MSL   +99999+99999GF108991081999017501999999MA1999999098701MD1999999+0101MW1021REMSYN004BUFR
0098827650999992016030300004-07330-047470FM-12+019399999V020270199999922000199020000199+02791+02601101331ADDAA101999999AZ101061AZ201061GF100991999999999999999999MA1999999098961MD1999999+0261REMSYN004BUFR
0165827650999992016030312004-07330-047470FM-12+019399999V0203601N0000199999999020000199+02751+02481101521ADDAA124002031AZ101061AZ201061GA1041+006001061GA2999+999999051GE19MSL   +99999+99999GF107991041999006001999999KA1120N+02491MA1999999099141MD1999999+0101REMSYN004BUFR
0142827650999992016030318004-07330-047470FM-12+019399999V020140199999900600199020000199+02691+02261101221ADDAA101999999AY111061AY211061GA1071+006001071GE19MSL   +99999+99999GF107991071999006001999999MA1999999098841MD1999999+0141MW1031REMSYN004BUFR
0136827650999992016030400004-07330-047470FM-12+019399999V0203601N0000100600199020000199+02741+02501101231ADDAA101999999AZ101061AZ201061GA1071+006001081GE19MSL   +99999+99999GF107991071999006001999999MA1999999098851MD1999999-0111REMSYN004BUFR
0174827650999992016030500004-07330-047470FM-12+019399999V020090199999900600199020000199+02621+02441101231ADDAA106010031AY161061AY221061GA1061+006001081GA2999+999999051GA3999+999999101GE19MSL   +99999+99999GF108991061999006001999999MA1999999098851MD1999999+0001MW1001REMSYN004BUFR
0171827650999992016030512004-07330-047470FM-12+019399999V0203601N0000199999999020000199+02651+02411101631ADDAA124010031AY151061AY221061GA1021+006001081GA2999+999999051GE19MSL   +99999+99999GF107991021999006001999999KA1120N+02391MA1999999099231MD1999999+0161MW1001REMSYN004BUFR
0152827650999992016030518004-07330-047470FM-12+019399999V020360199999999999999020000199+03091+02491101101ADDAA101999999AZ101061AZ201061GA1041+006001081GA2999+999999031GE19MSL   +99999+99999GF106991041999006001999999MA1999999098731MD1999999+0091REMSYN004BUFR
0168827650999992016030600004-07330-047470FM-12+019399999V020140199999900600199020000199+02571+02441101481ADDAA101999999AZ101061AZ201061GA1051+006001081GA2999+999999051GA3999+999999101GE19MSL   +99999+99999GF108991051999006001999999MA1999999099081MD1999999+0231REMSYN004BUFR
0187827650999992016030612004-07330-047470FM-12+019399999V0203601N0000100600199020000199+02421+02281101801ADDAA124001031AY161061AY211061GA1061+006001081GA2999+999999051GA3999+999999101GE19MSL   +99999+99999GF108991061999006001999999KA1120N+02231MA1999999099381MD1999999+0151MW1001REMSYN004BUFR
0152827650999992016030618004-07330-047470FM-12+019399999V020320199999999999999020000199+03051+02401101251ADDAA101999999AZ101061AZ201061GA1041+006001081GA2999+999999031GE19MSL   +99999+99999GF106991041999006001999999MA1999999098861MD1999999+0131REMSYN004BUFR
0168827650999992016030700004-07330-047470FM-12+019399999V0203601N0000100600199020000199+02821+02541101431ADDAA101999999AZ101061AZ201061GA1061+006001081GA2999+999999051GA3999+999999101GE19MSL   +99999+99999GF108991061999006001999999MA1999999099031MD1999999-0051REMSYN004BUFR
0187827650999992016030712004-07330-047470FM-12+019399999V0203601N0000199999999020000199+02421+02251101651ADDAA124004031AY161061AY221061GA1041+006001061GA2999+999999031GA3999+999999101GE19MSL   +99999+99999GF108991041999006001999999KA1120N+02271MA1999999099251MD1999999-0131MW1031REMSYN004BUFR
0174827650999992016030718004-07330-047470FM-12+019399999V0203601N0000199999999004000199+02441+02341101321ADDAA106017031AY161061AY221061GA1031+006001091GA2999+999999031GA3999+999999101GE19MSL   +99999+99999GF108991031999006001999999MA1999999098921MD1999999+0061MW1031REMSYN004BUFR
0168827650999992016030800004-07330-047470FM-12+019399999V0203601N0000100300199010000199+02491+02411101451ADDAA101999999AZ101061AZ201061GA1081+003001071GA2999+999999101GA3999+999999101GE19MSL   +99999+99999GF108991081999003001999999MA1999999099041MD1999999+0011REMSYN004BUFR
0165827650999992016030812004-07330-047470FM-12+019399999V020140199999999999999020000199+02491+02371101501ADDAA124017031AZ101061AZ201061GA1031+006001091GA2999+999999041GE19MSL   +99999+99999GF107991031999006001999999KA1120N+02331MA1999999099191MD1999999-0061REMSYN004BUFR
0152827650999992016030818004-07330-047470FM-12+019399999V0203601N0000199999999020000199+03151+02451101081ADDAA101999999AZ101061AZ201061GA1031+006001081GA2999+999999051GE19MSL   +99999+99999GF105991031999006001999999MA1999999098711MD1999999-0211REMSYN004BUFR
0152827650999992016030900004-07330-047470FM-12+019399999V0203601N0000199999999020000199+02851+02541101301ADDAA101999999AZ101061AZ201061GA1041+006001081GA2999+999999051GE19MSL   +99999+99999GF107991041999006001999999MA1999999098911MD1999999-0131REMSYN004BUFR
0187827650999992016030912004-07330-047470FM-12+019399999V0203601N0000100600199020000199+02571+02381101641ADDAA124002031AY161061AY221061GA1081+006001071GA2999+999999101GA3999+999999101GE19MSL   +99999+99999GF108991081999006001999999KA1120N+02461MA1999999099251MD1999999+0061MW1031REMSYN004BUFR
0152827650999992016030918004-07330-047470FM-12+019399999V020270199999999999999020000199+02851+02371101241ADDAA101999999AZ101061AZ201061GA1031+006001071GA2999+999999051GE19MSL   +99999+99999GF107991031999006001999999MA1999999098861MD1999999+0151REMSYN004BUFR
0168827650999992016031000004-07330-047470FM-12+019399999V0203601N0000199999999020000199+02641+02441101431ADDAA101999999AZ101061AZ201061GA1031+006001081GA2999+999999051GA3999+999999101GE19MSL   +99999+99999GF108991031999006001999999MA1999999099031MD1999999+0121REMSYN004BUFR
0165827650999992016031012004-07330-047470FM-12+019399999V020230199999900600199020000199+02591+02371101721ADDAA101999999AZ101061AZ201061GA1061+006001081GA2999+999999051GE19MSL   +99999+99999GF107991061999006001999999KA1120N+02331MA1999999099311MD1999999+0061REMSYN004BUFR
0136827650999992016031018004-07330-047470FM-12+019399999V0203601N0000199999999020000199+03171+02361101151ADDAA101999999AZ101061AZ201061GA1031+006001081GE19MSL   +99999+99999GF103991031999006001999999MA1999999098781MD1999999-0081REMSYN004BUFR
0098827650999992016031100004-07330-047470FM-12+019399999V0203601N0000122000199020000199+02641+02391101441ADDAA101999999AZ101061AZ201061GF100991999999999999999999MA1999999099041MD1999999+0011REMSYN004BUFR
0165827650999992016031112004-07330-047470FM-12+019399999V020050199999999999999020000199+02691+02331101741ADDAA101999999AZ101061AZ201061GA1021+006001081GA2999+999999031GE19MSL   +99999+99999GF106991021999006001999999KA1120N+02391MA1999999099341MD1999999+0031REMSYN004BUFR
0152827650999992016031118004-07330-047470FM-12+019399999V020360199999999999999020000199+03141+02241101251ADDAA101999999AZ101061AZ201061GA1041+006001081GA2999+999999051GE19MSL   +99999+99999GF107991041999006001999999MA1999999098881MD1999999+0101REMSYN004BUFR
0152827650999992016031200004-07330-047470FM-12+019399999V0203601N0000199999999020000199+02571+02481101641ADDAA101999999AZ101061AZ201061GA1041+006001081GA2999+999999051GE19MSL   +99999+99999GF106991041999006001999999MA1999999099241MD1999999+0201REMSYN004BUFR
0165827650999992016031212004-07330-047470FM-12+019399999V0203601N0000199999999020000199+02721+02451101731ADDAA101999999AZ101061AZ201061GA1041+006001081GA2999+999999031GE19MSL   +99999+99999GF106991041999006001999999KA1120N+02411MA1999999099331MD1999999-0011REMSYN004BUFR
0158827650999992016031218004-07330-047470FM-12+019399999V0203601N0000100600199020000199+03051+02501101281ADDAA101999999AY101061AY201061GA1051+006001081GA2999+999999031GE19MSL   +99999+99999GF106991051999006001999999MA1999999098901MD1999999+0021MW1161REMSYN004BUFR
0158827650999992016031300004-07330-047470FM-12+019399999V0203601N0000199999999020000199+02651+02541101471ADDAA106013031AY101061AY261061GA1041+006001081GA2999+999999051GE19MSL   +99999+99999GF106991041999006001999999MA1999999099081MD1999999-0161MW1001REMSYN004BUFR
0171827650999992016031312004-07330-047470FM-12+019399999V0203601N0000199999999020000199+02721+02521101661ADDAA124015031AY161061AY221061GA1041+006001081GA2999+999999031GE19MSL   +99999+99999GF107991041999006001999999KA1120N+02491MA1999999099261MD1999999-0071MW1031REMSYN004BUFR
0152827650999992016031318004-07330-047470FM-12+019399999V020180199999999999999020000199+03021+02531101261ADDAA101999999AZ101061AZ201061GA1041+006001071GA2999+999999051GE19MSL   +99999+99999GF107991041999006001999999MA1999999098881MD1999999-0021REMSYN004BUFR
0168827650999992016031400004-07330-047470FM-12+019399999V0203601N0000100600199010000199+02721+02581101571ADDAA101999999AZ101061AZ201061GA1081+006001071GA2999+999999101GA3999+999999101GE19MSL   +99999+99999GF108991081999006001999999MA1999999099181MD1999999+0101REMSYN004BUFR
0171827650999992016031412004-07330-047470FM-12+019399999V020230199999999999999020000199+02651+02461101691ADDAA101999999AY111061AY211061GA1041+006001071GA2999+999999051GE19MSL   +99999+99999GF107991041999006001999999KA1120N+02471MA1999999099291MD1999999+0031MW1031REMSYN004BUFR
0174827650999992016031418004-07330-047470FM-12+019399999V020320199999900600199020000199+02741+02581101321ADDAA106012031AY161061AY221061GA1081+006001071GA2999+999999101GA3999+999999101GE19MSL   +99999+99999GF108991081999006001999999MA1999999098931MD1999999+0051MW1291REMSYN004BUFR
0158827650999992016031500004-07330-047470FM-12+019399999V0203601N0000100600199010000199+02651+02541101451ADDAA106001031AY161061AY221061GA1081+006001041GA2999+999999101GE19MSL   +99999+99999GF108991081999006001999999MA1999999099061MD1999999-0121MW1031REMSYN004BUFR
0171827650999992016031512004-07330-047470FM-12+019399999V020360199999999999999020000199+02721+02341101631ADDAA124013031AY161061AY221061GA1041+006001071GA2999+999999051GE19MSL   +99999+99999GF107991041999006001999999KA1120N+02371MA1999999099241MD1999999-0051MW1031REMSYN004BUFR
0152827650999992016031518004-07330-047470FM-12+019399999V0203601N0000199999999020000199+03241+02421101271ADDAA101999999AZ101061AZ201061GA1031+006001061GA2999+999999051GE19MSL   +99999+99999GF106991031999006001999999MA1999999098901MD1999999-0031REMSYN004BUFR
0136827650999992016031600004-07330-047470FM-12+019399999V0203601N0000199999999020000199+02791+02541101421ADDAA101999999AZ101061AZ201061GA1031+012501081GE19MSL   +99999+99999GF103991031999012501999999MA1999999099041MD1999999-0021REMSYN004BUFR
0165827650999992016031612004-07330-047470FM-12+019399999V0203601N0000199999999020000199+02771+02481101671ADDAA101999999AZ101061AZ201061GA1031+012501081GA2999+999999021GE19MSL   +99999+99999GF107991031999012501999999KA1120N+02371MA1999999099281MD1999999+0041REMSYN004BUFR
0152827650999992016031618004-07330-047470FM-12+019399999V020140199999999999999020000199+03271+02341101251ADDAA101999999AZ101061AZ201061GA1031+006001081GA2999+999999051GE19MSL   +99999+99999GF107991031999006001999999MA1999999098891MD1999999-0011REMSYN004BUFR
0136827650999992016031700004-07330-047470FM-12+019399999V0203601N0000199999999020000199+02951+02621101421ADDAA101999999AZ101061AZ201061GA1031+050001051GE19MSL   +99999+99999GF103991031999050001999999MA1999999099051MD1999999+0011REMSYN004BUFR
0165827650999992016031712004-07330-047470FM-12+019399999V0203601N0000199999999020000199+02841+02401101641ADDAA101999999AZ101061AZ201061GA1011+006001081GA2999+999999001GE19MSL   +99999+99999GF102991011999006001999999KA1120N+02371MA1999999099261MD1999999-0021REMSYN004BUFR
0158827650999992016031718004-07330-047470FM-12+019399999V020140199999999999999020000199+03421+02361101101ADDAA101999999AY111061AY211061GA1041+006001071GA2999+999999051GE19MSL   +99999+99999GF107991041999006001999999MA1999999098751MD1999999-0141MW1031REMSYN004BUFR
0136827650999992016031800004-07330-047470FM-12+019399999V0203601N0000199999999020000199+02771+02521101321ADDAA101999999AZ101061AZ201061GA1031+017501021GE19MSL   +99999+99999GF103991031999017501999999MA1999999098941MD1999999-0111REMSYN004BUFR
0165827650999992016031812004-07330-047470FM-12+019399999V0203601N0000199999999020000199+02851+02521101651ADDAA101999999AZ101061AZ201061GA1021+006001081GA2999+999999021GE19MSL   +99999+99999GF106991021999006001999999KA1120N+02451MA1999999099261MD1999999+0001REMSYN004BUFR
0152827650999992016031818004-07330-047470FM-12+019399999V020180199999999999999020000199+03151+02421101171ADDAA101999999AZ101061AZ201061GA1031+006001081GA2999+999999021GE19MSL   +99999+99999GF107991031999006001999999MA1999999098811MD1999999+0061REMSYN004BUFR
0152827650999992016031900004-07330-047470FM-12+019399999V0203601N0000199999999020000199+02941+02581101341ADDAA101999999AZ101061AZ201061GA1021+012501081GA2999+999999031GE19MSL   +99999+99999GF103991021999012501999999MA1999999098971MD1999999+0031REMSYN004BUFR
0181827650999992016031912004-07330-047470FM-12+019399999V020180199999900600199020000199+02651+02461101711ADDAA101999999AZ101061AZ201061GA1081+006001071GA2999+999999101GA3999+999999101GE19MSL   +99999+99999GF108991081999006001999999KA1120N+02531MA1999999099321MD1999999+0061REMSYN004BUFR
0158827650999992016031918004-07330-047470FM-12+019399999V020360199999999999999020000199+02891+02581101171ADDAA106000131AY151061AY211061GA1041+006001071GA2999+999999051GE19MSL   +99999+99999GF107991041999006001999999MA1999999098801MD1999999-0011MW1031REMSYN004BUFR
0142827650999992016032000004-07330-047470FM-12+019399999V0203601N0000100600199020000199+02571+02421101401ADDAA106000231AY151061AY211061GA1071+006001071GE19MSL   +99999+99999GF107991071999006001999999MA1999999099001MD1999999+0031MW1021REMSYN004BUFR
0149827650999992016032012004-07330-047470FM-12+019399999V0203601N0000100600199020000199+02741+02451101481ADDAA124000331AZ101061AZ201061GA1051+006001061GE19MSL   +99999+99999GF105991051999006001999999KA1120N+02411MA1999999099091MD1999999-0231REMSYN004BUFR
0158827650999992016032018004-07330-047470FM-12+019399999V020320199999999999999020000199+03251+02521101181ADDAA101999999AY111061AY211061GA1041+006001071GA2999+999999001GE19MSL   +99999+99999GF107991041999006001999999MA1999999098821MD1999999+0021MW1161REMSYN004BUFR
0174827650999992016032100004-07330-047470FM-12+019399999V0201801N0000100600199010000199+02521+02431101681ADDAA106008031AY161061AY221061GA1081+006001071GA2999+999999101GA3999+999999101GE19MSL   +99999+99999GF108991081999006001999999MA1999999099281MD1999999+0281MW1511REMSYN004BUFR
0187827650999992016032112004-07330-047470FM-12+019399999V020090199999900300199004000199+02341+02241101801ADDAA124071031AY161061AY221061GA1081+003001071GA2999+999999101GA3999+999999101GE19MSL   +99999+99999GF108991081999003001999999KA1120N+02231MA1999999099381MD1999999+0291MW1611REMSYN004BUFR
0158827650999992016032118004-07330-047470FM-12+019399999V0203601N0000199999999020000199+02921+02521101301ADDAA106017031AY161061AY221061GA1031+006001061GA2999+999999031GE19MSL   +99999+99999GF106991031999006001999999MA1999999098911MD1999999+0091MW1021REMSYN004BUFR
0174827650999992016032200004-07330-047470FM-12+019399999V0203601N0000100600199010000199+02471+02321101591ADDAA106010031AY161061AY221061GA1081+006001071GA2999+999999101GA3999+999999101GE19MSL   +99999+99999GF108991081999006001999999MA1999999099171MD1999999-0111MW1511REMSYN004BUFR
0171827650999992016032212004-07330-047470FM-12+019399999V0203601N0000199999999020000199+02691+02501101791ADDAA124028031AY151061AY221061GA1021+006001081GA2999+999999031GE19MSL   +99999+99999GF103991021999006001999999KA1120N+02231MA1999999099391MD1999999+0011MW1001REMSYN004BUFR
0142827650999992016032218004-07330-047470FM-12+019399999V0203601N0000100600199020000199+03221+02631101281ADDAA101999999AY101061AY201061GA1061+006001081GE19MSL   +99999+99999GF106991061999006001999999MA1999999098911MD1999999+0001MW1151REMSYN004BUFR
0152827650999992016032318004-07330-047470FM-12+019399999V020270199999999999999020000199+03121+01711101181ADDAA101999999AZ101061AZ201061GA1041+006001081GA2999+999999031GE19MSL   +99999+99999GF106991041999006001999999MA1999999098811MD1999999-0101REMSYN004BUFR
0152827650999992016032400004-07330-047470FM-12+019399999V0203601N0000199999999020000199+02691+02461101361ADDAA101999999AZ101061AZ201061GA1021+006001081GA2999+999999041GE19MSL   +99999+99999GF106991021999006001999999MA1999999098971MD1999999-0231REMSYN004BUFR
0149827650999992016032412004-07330-047470FM-12+019399999V0203601N0000100600199020000199+02821+02461101551ADDAA101999999AZ101061AZ201061GA1061+006001061GE19MSL   +99999+99999GF106991061999006001999999KA1120N+02391MA1999999099171MD1999999-0041REMSYN004BUFR
0152827650999992016032418004-07330-047470FM-12+019399999V020360199999999999999020000199+03171+02411101091ADDAA101999999AZ101061AZ201061GA1031+006001061GA2999+999999051GE19MSL   +99999+99999GF106991031999006001999999MA1999999098731MD1999999-0081REMSYN004BUFR
0152827650999992016032500004-07330-047470FM-12+019399999V0203601N0000199999999020000199+02721+02471101411ADDAA101999999AZ101061AZ201061GA1031+006001081GA2999+999999031GE19MSL   +99999+99999GF107991031999006001999999MA1999999099031MD1999999+0061REMSYN004BUFR
0149827650999992016032512004-07330-047470FM-12+019399999V020360199999900600199020000199+02741+02451101561ADDAA101999999AZ101061AZ201061GA1061+006001061GE19MSL   +99999+99999GF106991061999006001999999KA1120N+02411MA1999999099171MD1999999+0001REMSYN004BUFR
0174827650999992016032518004-07330-047470FM-12+019399999V020360199999999999999020000199+03151+02361101101ADDAA101999999AY111061AY211061GA1041+006001061GA2999+999999031GA3999+999999001GE19MSL   +99999+99999GF107991041999006001999999MA1999999098741MD1999999+0011MW1161REMSYN004BUFR
0158827650999992016032600004-07330-047470FM-12+019399999V0203601N0000199999999020000199+02691+02501101431ADDAA106010031AY161061AY221061GA1031+006001081GA2999+999999051GE19MSL   +99999+99999GF105991031999006001999999MA1999999099041MD1999999+0011MW1001REMSYN004BUFR
0171827650999992016032612004-07330-047470FM-12+019399999V0203601N0000199999999020000199+02821+02561101661ADDAA124012031AY161061AY221061GA1021+006001081GA2999+999999051GE19MSL   +99999+99999GF106991021999006001999999KA1120N+02391MA1999999099271MD1999999+0101MW1021REMSYN004BUFR
0168827650999992016032618004-07330-047470FM-12+019399999V020180199999999999999020000199+03141+02531101251ADDAA101999999AZ101061AZ201061GA1031+006001081GA2999+999999041GA3999+999999101GE19MSL   +99999+99999GF108991031999006001999999MA1999999098881MD1999999+0141REMSYN004BUFR
0158827650999992016032700004-07330-047470FM-12+019399999V0203601N0000199999999020000199+02741+02581101431ADDAA106001031AY161061AY201061GA1011+006001081GA2999+999999041GE19MSL   +99999+99999GF103991011999006001999999MA1999999099051MD1999999+0011MW1001REMSYN004BUFR
0165827650999992016032712004-07330-047470FM-12+019399999V0203601N0000199999999020000199+02721+02501101591ADDAA124001031AZ101061AZ201061GA1041+006001081GA2999+999999051GE19MSL   +99999+99999GF107991041999006001999999KA1120N+02451MA1999999099201MD1999999-0071REMSYN004BUFR
0142827650999992016032718004-07330-047470FM-12+019399999V020090199999900600199020000199+03051+02501101221ADDAA101999999AY111061AY211061GA1071+006001071GE19MSL   +99999+99999GF107991071999006001999999MA1999999098851MD1999999-0031MW1031REMSYN004BUFR
0098827650999992016032800004-07330-047470FM-12+019399999V0203601N0000122000199020000199+02751+02581101351ADDAA101999999AZ101061AZ201061GF100991999999999999999999MA1999999098971MD1999999-0081REMSYN004BUFR
0149827650999992016032812004-07330-047470FM-12+019399999V020360199999900600199020000199+02791+02521101541ADDAA101999999AZ101061AZ201061GA1061+006001081GE19MSL   +99999+99999GF106991061999006001999999KA1120N+02371MA1999999099161MD1999999-0041REMSYN004BUFR
0152827650999992016032818004-07330-047470FM-12+019399999V020270199999999999999020000199+03221+02401101121ADDAA101999999AZ101061AZ201061GA1041+006001081GA2999+999999031GE19MSL   +99999+99999GF106991041999006001999999MA1999999098761MD1999999-0091REMSYN004BUFR
0152827650999992016032900004-07330-047470FM-12+019399999V020050199999999999999020000199+02771+02521101351ADDAA101999999AZ101061AZ201061GA1031+006001081GA2999+999999051GE19MSL   +99999+99999GF105991031999006001999999MA1999999098971MD1999999+0001REMSYN004BUFR
0165827650999992016032912004-07330-047470FM-12+019399999V020320199999999999999020000199+02841+02541101671ADDAA101999999AZ101061AZ201061GA1041+006001081GA2999+999999041GE19MSL   +99999+99999GF106991041999006001999999KA1120N+02401MA1999999099281MD1999999+0121REMSYN004BUFR
0158827650999992016032918004-07330-047470FM-12+019399999V020050199999900600199020000199+02591+02461101441ADDAA106020031AY191061AY261061GA1051+006001081GA2999+999999051GE19MSL   +99999+99999GF107991051999006001999999MA1999999099041MD1999999+0201MW1001REMSYN004BUFR
0152827650999992016033000004-07330-047470FM-12+019399999V0203601N0000100600199020000199+02541+02441101501ADDAA101999999AZ101061AZ201061GA1051+006001081GA2999+999999051GE19MSL   +99999+99999GF107991051999006001999999MA1999999099211MD1999999+0241REMSYN004BUFR
0165827650999992016033012004-07330-047470FM-12+019399999V0203601N0000199999999020000199+02771+02481101791ADDAA124020031AZ101061AZ201061GA1031+006001081GA2999+999999031GE19MSL   +99999+99999GF104991031999006001999999KA1120N+02311MA1999999099391MD1999999+0111REMSYN004BUFR
0158827650999992016033018004-07330-047470FM-12+019399999V020020199999999999999020000199+03051+02381101401ADDAA106000131AY151061AY211061GA1041+006001081GA2999+999999031GE19MSL   +99999+99999GF106991041999006001999999MA1999999099021MD1999999-0021MW1151REMSYN004BUFR
0149827650999992016033112004-07330-047470FM-12+019399999V020090199999901750199020000199+02891+02431101731ADDAA124002031AZ101061AZ201061GA1061+017501001GE19MSL   +99999+99999GF106991061999017501999999KA1120N+02311MA1999999099331MD1999999-0061REMSYN004BUFR
0152827650999992016033118004-07330-047470FM-12+019399999V0203601N0000199999999020000199+03051+02611101251ADDAA101999999AZ101061AZ201061GA1041+006001071GA2999+999999051GE19MSL   +99999+99999GF107991041999006001999999MA1999999098871MD1999999-0151REMSYN004BUFR
0142827650999992016040100004-07330-047470FM-12+019399999V0203601N0000100600199020000199+02721+02441101501ADDAA101999999AY111061AY211061GA1051+006001081GE19MSL   +99999+99999GF105991051999006001999999MA1999999099121MD1999999-0131MW1131REMSYN004BUFR
0187827650999992016040112004-07330-047470FM-12+019399999V0203601N0000100600199020000199+02671+02461101721ADDAA124002031AY161061AY221061GA1081+006001071GA2999+999999101GA3999+999999101GE19MSL   +99999+99999GF108991081999006001999999KA1120N+02471MA1999999099321MD1999999-0011MW1031REMSYN004BUFR
0152827650999992016040118004-07330-047470FM-12+019399999V020090199999999999999020000199+03141+02401101171ADDAA101999999AZ101061AZ201061GA1031+006001061GA2999+999999031GE19MSL   +99999+99999GF105991031999006001999999MA1999999098811MD1999999-0061REMSYN004BUFR
0152827650999992016040200004-07330-047470FM-12+019399999V0203601N0000199999999020000199+02841+02561101401ADDAA101999999AZ101061AZ201061GA1041+006001081GA2999+999999051GE19MSL   +99999+99999GF107991041999006001999999MA1999999099021MD1999999-0101REMSYN004BUFR
0165827650999992016040212004-07330-047470FM-12+019399999V0203601N0000199999999020000199+02751+02561101531ADDAA101999999AZ101061AZ201061GA1041+006001071GA2999+999999051GE19MSL   +99999+99999GF107991041999006001999999KA1120N+02411MA1999999099151MD1999999-0171REMSYN004BUFR
0158827650999992016040300004-07330-047470FM-12+019399999V0203601N0000199999999020000199+02771+02671101391ADDAA101999999AY161061AY211061GA1031+006001081GA2999+999999031GE19MSL   +99999+99999GF106991031999006001999999MA1999999099011MD1999999-0011MW1131REMSYN004BUFR
0187827650999992016040312004-07330-047470FM-12+019399999V0203601N0000199999999020000199+02491+02361101591ADDAA124032031AY191061AY261061GA1011+006001081GA2999+999999041GA3999+999999101GE19MSL   +99999+99999GF108991011999006001999999KA1120N+02231MA1999999099191MD1999999+0041MW1001REMSYN004BUFR
0152827650999992016040318004-07330-047470FM-12+019399999V020180199999999999999020000199+03041+02481101261ADDAA101999999AZ101061AZ201061GA1021+006001081GA2999+999999051GE19MSL   +99999+99999GF107991021999006001999999MA1999999098871MD1999999+0131REMSYN004BUFR
0152827650999992016040400004-07330-047470FM-12+019399999V0203601N0000199999999020000199+02791+02621101521ADDAA101999999AZ101061AZ201061GA1011+006001081GA2999+999999051GE19MSL   +99999+99999GF103991011999006001999999MA1999999099121MD1999999+0111REMSYN004BUFR
0165827650999992016040412004-07330-047470FM-12+019399999V020360199999999999999020000199+02791+02521101811ADDAA101999999AZ101061AZ201061GA1041+006001081GA2999+999999031GE19MSL   +99999+99999GF106991041999006001999999KA1120N+02401MA1999999099421MD1999999+0231REMSYN004BUFR
0174827650999992016040418004-07330-047470FM-12+019399999V020320199999999999999020000199+03241+02501101251ADDAA106003031AY161061AY201061GA1041+006001061GA2999+999999051GA3999+999999001GE19MSL   +99999+99999GF106991041999006001999999MA1999999098881MD1999999+0011MW1001REMSYN004BUFR
0152827650999992016040500004-07330-047470FM-12+019399999V0203601N0000199999999020000199+02721+02471101571ADDAA101999999AZ101061AZ201061GA1041+006001081GA2999+999999051GE19MSL   +99999+99999GF106991041999006001999999MA1999999099181MD1999999+0061REMSYN004BUFR
0165827650999992016040512004-07330-047470FM-12+019399999V0203601N0000199999999020000199+02771+02461101721ADDAA124003031AZ101061AZ201061GA1011+006001081GA2999+999999031GE19MSL   +99999+99999GF103991011999006001999999KA1120N+02371MA1999999099331MD1999999-0091REMSYN004BUFR
0152827650999992016040518004-07330-047470FM-12+019399999V020999999999999999999020000199+03421+02291101211ADDAA101999999AZ101061AZ201061GA1031+006001081GA2999+999999051GE19MSL   +99999+99999GF106991031999006001999999MA1999999098861MD1999999-0021REMSYN004BUFR
0098827650999992016040600004-07330-047470FM-12+019399999V020999999999922000199020000199+02921+02521101371ADDAA101999999AZ101061AZ201061GF100991999999999999999999MA1999999099001MD1999999+0021REMSYN004BUFR
0165827650999992016040612004-07330-047470FM-12+019399999V020999999999999999999020000199+02841+02441101551ADDAA101999999AZ101061AZ201061GA1041+006001061GA2999+999999051GE19MSL   +99999+99999GF107991041999006001999999KA1120N+02451MA1999999099181MD1999999-0151REMSYN004BUFR
0158827650999992016040618004-07330-047470FM-12+019399999V020999999999999999999020000199+02751+02441101191ADDAA106003031AY161061AY221061GA1041+006001071GA2999+999999051GE19MSL   +99999+99999GF107991041999006001999999MA1999999098821MD1999999-0041MW1021REMSYN004BUFR
0098827650999992016040700004-07330-047470FM-12+019399999V020999999999922000199020000199+02691+02461101331ADDAA101999999AZ101061AZ201061GF100991999999999999999999MA1999999099951MD1999999-0051REMSYN004BUFR
0165827650999992016040712004-07330-047470FM-12+019399999V020999999999999999999020000199+02771+02421101551ADDAA124003031AZ101061AZ201061GA1041+006001081GA2999+999999051GE19MSL   +99999+99999GF107991041999006001999999KA1120N+02441MA1999999099161MD1999999-0021REMSYN004BUFR
0171827650999992016040718004-07330-047470FM-12+019399999V020999999999999999999020000199+02951+99999101121ADDAA101999999AZ101061AZ201061GA1021+006001071GA2999+999999051GE19MSL   +99999+99999GF107991021999006001999999MA1999999098751MD1999999-0071REMSYN004BUFREQDQ0129.6  2ATOD  
0098827650999992016040800004-07330-047470FM-12+019399999V020999999999922000199020000199+02641+02481101341ADDAA101999999AZ101061AZ201061GF100991999999999999999999MA1999999098951MD1999999+0001REMSYN004BUFR
0165827650999992016040812004-07330-047470FM-12+019399999V020999999999999999999020000199+02821+02461101551ADDAA101999999AZ101061AZ201061GA1041+006001071GA2999+999999051GE19MSL   +99999+99999GF107991041999006001999999KA1120N+02431MA1999999099161MD1999999+0001REMSYN004BUFR
0152827650999992016040818004-07330-047470FM-12+019399999V020999999999999999999020000199+03241+02421101031ADDAA101999999AZ101061AZ201061GA1031+006001081GA2999+999999001GE19MSL   +99999+99999GF106991031999006001999999MA1999999098671MD1999999-0081REMSYN004BUFR
0098827650999992016040900004-07330-047470FM-12+019399999V020999999999922000199020000199+02821+02481101321ADDAA101999999AZ101061AZ201061GF100991999999999999999999MA1999999098941MD1999999-0011REMSYN004BUFR
0165827650999992016040912004-07330-047470FM-12+019399999V020999999999900600199020000199+02691+02561101531ADDAA101999999AZ101061AZ201061GA1061+006001081GA2999+999999051GE19MSL   +99999+99999GF107991061999006001999999KA1120N+02491MA1999999099141MD1999999-0021REMSYN004BUFR
0152827650999992016040918004-07330-047470FM-12+019399999V020999999999999999999020000199+03221+02531101031ADDAA101999999AZ101061AZ201061GA1031+006001081GA2999+999999031GE19MSL   +99999+99999GF105991031999006001999999MA1999999098671MD1999999+0001REMSYN004BUFR
0098827650999992016041000004-07330-047470FM-12+019399999V020999999999922000199020000199+02921+02621101261ADDAA101999999AZ101061AZ201061GF100991999999999999999999MA1999999098881MD1999999-0061REMSYN004BUFR
0165827650999992016041012004-07330-047470FM-12+019399999V020999999999900600199020000199+02891+02481101391ADDAA101999999AZ101061AZ201061GA1051+006001081GA2999+999999031GE19MSL   +99999+99999GF106991051999006001999999KA1120N+02491MA1999999099021MD1999999-0121REMSYN004BUFR
0174827650999992016041018004-07330-047470FM-12+019399999V020999999999999999999020000199+02351+02281101271ADDAA106030031AY161061AY221061GA1031+006001081GA2999+999999051GA3999+999999101GE19MSL   +99999+99999GF108991031999006001999999MA1999999098871MD1999999+0201MW1001REMSYN004BUFR
0168827650999992016041100004-07330-047470FM-12+019399999V020999999999999999999020000199+02391+02281101411ADDAA101999999AZ101061AZ201061GA1041+006001081GA2999+999999051GA3999+999999101GE19MSL   +99999+99999GF108991041999006001999999MA1999999099021MD1999999+0141REMSYN004BUFR
0165827650999992016041112004-07330-047470FM-12+019399999V020999999999999999999020000199+02591+02421101501ADDAA124030031AZ101061AZ201061GA1021+006001081GA2999+999999031GE19MSL   +99999+99999GF106991021999006001999999KA1120N+02251MA1999999099101MD1999999+0081REMSYN004BUFR
0158827650999992016041118004-07330-047470FM-12+019399999V020999999999999999999020000199+02771+02461101071ADDAA106001031AY161061AY211061GA1031+006001081GA2999+999999051GE19MSL   +99999+99999GF106991031999006001999999MA1999999098681MD1999999-0191MW1291REMSYN004BUFR
0174827650999992016041200004-07330-047470FM-12+019399999V020999999999999999999020000199+02491+02321101391ADDAA106005031AY191061AY261061GA1041+006001081GA2999+999999051GA3999+999999101GE19MSL   +99999+99999GF108991041999006001999999MA1999999098991MD1999999-0031MW1131REMSYN004BUFR
0187827650999992016041212004-07330-047470FM-12+019399999V020999999999900600199020000199+02571+02381101601ADDAA124011031AY161061AY221061GA1081+006001071GA2999+999999101GA3999+999999101GE19MSL   +99999+99999GF108991081999006001999999KA1120N+02331MA1999999099191MD1999999+0091MW1031REMSYN004BUFR
0152827650999992016041218004-07330-047470FM-12+019399999V020999999999999999999020000199+03041+02551101161ADDAA101999999AZ101061AZ201061GA1041+006001071GA2999+999999051GE19MSL   +99999+99999GF107991041999006001999999MA1999999098781MD1999999+0101REMSYN004BUFR
0136827650999992016041300004-07330-047470FM-12+019399999V020999999999900600199020000199+02521+02341101311ADDAA101999999AZ101061AZ201061GA1061+006001051GE19MSL   +99999+99999GF106991061999006001999999MA1999999098911MD1999999-0081REMSYN004BUFR
0171827650999992016041312004-07330-047470FM-12+019399999V020999999999999999999020000199+02621+02441101551ADDAA124002031AY161061AY221061GA1031+006001081GA2999+999999031GE19MSL   +99999+99999GF107991031999006001999999KA1120N+02351MA1999999099151MD1999999-0041MW1021REMSYN004BUFR
0152827650999992016041318004-07330-047470FM-12+019399999V020999999999999999999020000199+03241+02421101151ADDAA101999999AZ101061AZ201061GA1031+006001061GA2999+999999031GE19MSL   +99999+99999GF106991031999006001999999MA1999999098781MD1999999+0001REMSYN004BUFR
0136827650999992016041400004-07330-047470FM-12+019399999V020999999999999999999020000199+02641+02501101401ADDAA101999999AZ101061AZ201061GA1031+012501051GE19MSL   +99999+99999GF103991031999012501999999MA1999999099011MD1999999+0101REMSYN004BUFR
0165827650999992016041412004-07330-047470FM-12+019399999V020999999999999999999020000199+02591+02461101611ADDAA101999999AZ101061AZ201061GA1041+006001071GA2999+999999031GE19MSL   +99999+99999GF107991041999006001999999KA1120N+02271MA1999999099211MD1999999+0061REMSYN004BUFR
0152827650999992016041418004-07330-047470FM-12+019399999V020999999999999999999020000199+03191+02461101311ADDAA101999999AZ101061AZ201061GA1031+006001061GA2999+999999031GE19MSL   +99999+99999GF106991031999006001999999MA1999999098941MD1999999+0161REMSYN004BUFR
0136827650999992016041500004-07330-047470FM-12+019399999V020999999999999999999020000199+02751+02421101361ADDAA101999999AZ101061AZ201061GA1021+017501081GE19MSL   +99999+99999GF102991021999017501999999MA1999999098971MD1999999-0041REMSYN004BUFR
0165827650999992016041512004-07330-047470FM-12+019399999V020999999999999999999020000199+02791+02361101571ADDAA101999999AZ101061AZ201061GA1021+017501081GA2999+999999031GE19MSL   +99999+99999GF105991021999017501999999KA1120N+02311MA1999999099191MD1999999-0021REMSYN004BUFR
0152827650999992016041518004-07330-047470FM-12+019399999V020999999999999999999020000199+03291+02301101161ADDAA101999999AZ101061AZ201061GA1021+006001081GA2999+999999051GE19MSL   +99999+99999GF105991021999006001999999MA1999999098801MD1999999-0141REMSYN004BUFR
0152827650999992016041600004-07330-047470FM-12+019399999V020999999999999999999020000199+02751+02441101441ADDAA101999999AZ101061AZ201061GA1041+006001081GA2999+999999031GE19MSL   +99999+99999GF106991041999006001999999MA1999999099061MD1999999+0091REMSYN004BUFR
0165827650999992016041612004-07330-047470FM-12+019399999V020999999999999999999020000199+02851+02461101521ADDAA101999999AZ101061AZ201061GA1021+017501081GA2999+999999031GE19MSL   +99999+99999GF104991021999017501999999KA1120N+02391MA1999999099141MD1999999-0051REMSYN004BUFR
0136827650999992016041618004-07330-047470FM-12+019399999V020999999999999999999020000199+03351+02301101141ADDAA101999999AZ101061AZ201061GA1021+006001081GE19MSL   +99999+99999GF102991021999006001999999MA1999999098791MD1999999-0011REMSYN004BUFR
0152827650999992016041700004-07330-047470FM-12+019399999V020999999999999999999020000199+02851+02501101471ADDAA101999999AZ101061AZ201061GA1011+006001081GA2999+999999041GE19MSL   +99999+99999GF103991011999006001999999MA1999999099111MD1999999+0051REMSYN004BUFR
0165827650999992016041712004-07330-047470FM-12+019399999V020999999999999999999020000199+02741+02381101621ADDAA101999999AZ101061AZ201061GA1011+006001081GA2999+999999031GE19MSL   +99999+99999GF106991011999006001999999KA1120N+02471MA1999999099241MD1999999+0101REMSYN004BUFR
0152827650999992016041718004-07330-047470FM-12+019399999V020999999999999999999020000199+03371+02191101221ADDAA101999999AZ101061AZ201061GA1031+006001081GA2999+999999031GE19MSL   +99999+99999GF105991031999006001999999MA1999999098861MD1999999+0071REMSYN004BUFR
0152827650999992016041800004-07330-047470FM-12+019399999V020999999999999999999020000199+02921+02581101411ADDAA101999999AZ101061AZ201061GA1011+006001081GA2999+999999031GE19MSL   +99999+99999GF106991011999006001999999MA1999999099041MD1999999-0071REMSYN004BUFR
0149827650999992016041812004-07330-047470FM-12+019399999V020999999999900600199020000199+02921+02221101571ADDAA101999999AZ101061AZ201061GA1051+006001031GE19MSL   +99999+99999GF105991051999006001999999KA1120N+02391MA1999999099201MD1999999-0041REMSYN004BUFR
0152827650999992016041818004-07330-047470FM-12+019399999V020999999999999999999020000199+03321+02171101191ADDAA101999999AZ101061AZ201061GA1021+006001081GA2999+999999031GE19MSL   +99999+99999GF105991021999006001999999MA1999999098841MD1999999-0021REMSYN004BUFR
0152827650999992016041900004-07330-047470FM-12+019399999V020999999999999999999020000199+02891+02641101411ADDAA101999999AZ101061AZ201061GA1011+006001081GA2999+999999031GE19MSL   +99999+99999GF106991011999006001999999MA1999999099041MD1999999+0001REMSYN004BUFR
0165827650999992016041912004-07330-047470FM-12+019399999V020999999999901250199020000199+02891+02371101451ADDAA101999999AZ101061AZ201061GA1081+012501041GA2999+999999101GE19MSL   +99999+99999GF108991081999012501999999KA1120N+02571MA1999999099081MD1999999-0121REMSYN004BUFR
0152827650999992016041918004-07330-047470FM-12+019399999V020999999999999999999020000199+03321+02411101181ADDAA101999999AZ101061AZ201061GA1031+006001081GA2999+999999041GE19MSL   +99999+99999GF107991031999006001999999MA1999999098801MD1999999-0041REMSYN004BUFR
0152827650999992016042000004-07330-047470FM-12+019399999V020999999999999999999020000199+02841+02401102382ADDAA101999999AZ101061AZ201061GA1021+006001081GA2999+999999031GE19MSL   +99999+99999GF105991021999006001999999MA1999999099011MD1999999-0031REMSYN004BUFR
0165827650999992016042012004-07330-047470FM-12+019399999V020999999999999999999020000199+02771+02161101481ADDAA101999999AZ101061AZ201061GA1011+006001081GA2999+999999001GE19MSL   +99999+99999GF106991011999006001999999KA1120N+02311MA1999999099101MD1999999+0021REMSYN004BUFR
0152827650999992016042018004-07330-047470FM-12+019399999V020999999999999999999020000199+03291+02151101141ADDAA101999999AZ101061AZ201061GA1021+006001081GA2999+999999031GE19MSL   +99999+99999GF103991021999006001999999MA1999999098781MD1999999-0021REMSYN004BUFR
0098827650999992016042100004-07330-047470FM-12+019399999V020999999999922000199020000199+02851+02441101291ADDAA101999999AZ101061AZ201061GF100991999999999999999999MA1999999098911MD1999999-0101REMSYN004BUFR
0149827650999992016042112004-07330-047470FM-12+019399999V020999999999999999999020000199+02821+02241101441ADDAA101999999AZ101061AZ201061GA1031+006001081GE19MSL   +99999+99999GF103991031999006001999999KA1120N+02251MA1999999099061MD1999999-0101REMSYN004BUFR
0136827650999992016042118004-07330-047470FM-12+019399999V020999999999900600199020000199+03451+02131101051ADDAA101999999AZ101061AZ201061GA1051+006001081GE19MSL   +99999+99999GF105991051999006001999999MA1999999098701MD1999999-0081REMSYN004BUFR
0098827650999992016042200004-07330-047470FM-12+019399999V020999999999922000199020000199+02871+02541101301ADDAA101999999AZ101061AZ201061GF100991999999999999999999MA1999999098931MD1999999+0021REMSYN004BUFR
0165827650999992016042212004-07330-047470FM-12+019399999V020999999999999999999020000199+02851+02331101651ADDAA101999999AZ101061AZ201061GA1021+006001081GA2999+999999031GE19MSL   +99999+99999GF106991021999006001999999KA1120N+02311MA1999999099271MD1999999+0211REMSYN004BUFR
0152827650999992016042218004-07330-047470FM-12+019399999V020999999999999999999020000199+03351+02241101211ADDAA101999999AZ101061AZ201061GA1021+006001081GA2999+999999031GE19MSL   +99999+99999GF103991021999006001999999MA1999999098851MD1999999+0151REMSYN004BUFR
0136827650999992016042300004-07330-047470FM-12+019399999V020999999999999999999020000199+02941+02521101381ADDAA101999999AZ101061AZ201061GA1021+006001081GE19MSL   +99999+99999GF102991021999006001999999MA1999999099011MD1999999+0081REMSYN004BUFR
0198827650999992016042312004-07333-047467FM-12+019399999V0209999C000019999999N020000199+02821+02401101531ADDGA1041+008001081GA2999+999999031GE19MSL   +99999+99999GF106991041999008001999999KA1240N+02391MA1999999099161MD1999999-0111REMSYN06482765 32598 6//// 10282 20240 39916 40153 84240 333 20239 59011=
0152827650999992016042318004-07330-047470FM-12+019399999V020999999999999999999020000199+03271+02451101071ADDAA101999999AZ101061AZ201061GA1041+006001081GA2999+999999031GE19MSL   +99999+99999GF106991041999006001999999MA1999999098711MD1999999-0141REMSYN004BUFR
0136827650999992016042400004-07330-047470FM-12+019399999V020999999999999999999020000199+02841+02521101181ADDAA101999999AZ101061AZ201061GA1011+006001081GE19MSL   +99999+99999GF101991011999006001999999MA1999999098811MD1999999-0201REMSYN004BUFR
0165827650999992016042412004-07330-047470FM-12+019399999V020999999999999999999020000199+02951+02451101391ADDAA101999999AZ101061AZ201061GA1011+006001081GA2999+999999021GE19MSL   +99999+99999GF102991011999006001999999KA1120N+02431MA1999999099021MD1999999-0141REMSYN004BUFR
0152827650999992016042418004-07330-047470FM-12+019399999V020999999999999999999020000199+03491+02271100891ADDAA101999999AZ101061AZ201061GA1021+006001081GA2999+999999011GE19MSL   +99999+99999GF103991021999006001999999MA1999999098551MD1999999-0161REMSYN004BUFR
0136827650999992016042500004-07330-047470FM-12+019399999V020999999999999999999020000199+02921+02411101141ADDAA101999999AZ101061AZ201061GA1031+006001081GE19MSL   +99999+99999GF103991031999006001999999MA1999999098781MD1999999-0031REMSYN004BUFR
0165827650999992016042512004-07330-047470FM-12+019399999V020999999999999999999020000199+02871+02411101321ADDAA101999999AZ101061AZ201061GA1031+006001031GA2999+999999021GE19MSL   +99999+99999GF107991031999006001999999KA1120N+02411MA1999999098951MD1999999-0071REMSYN004BUFR
0152827650999992016042518004-07330-047470FM-12+019399999V020999999999999999999020000199+03441+02281100851ADDAA101999999AZ101061AZ201061GA1041+006001061GA2999+999999021GE19MSL   +99999+99999GF107991041999006001999999MA1999999098511MD1999999-0041REMSYN004BUFR
0136827650999992016042600004-07330-047470FM-12+019399999V020999999999999999999020000199+02821+02461101051ADDAA101999999AZ101061AZ201061GA1031+006001081GE19MSL   +99999+99999GF103991031999006001999999MA1999999098681MD1999999-0101REMSYN004BUFR
0165827650999992016042612004-07330-047470FM-12+019399999V020999999999999999999020000199+02751+02481101331ADDAA101999999AZ101061AZ201061GA1041+006001031GA2999+999999021GE19MSL   +99999+99999GF107991041999006001999999KA1120N+02491MA1999999098951MD1999999+0001REMSYN004BUFR
0152827650999992016042618004-07330-047470FM-12+019399999V020999999999999999999020000199+03221+02371100941ADDAA101999999AZ101061AZ201061GA1041+006001061GA2999+999999051GE19MSL   +99999+99999GF107991041999006001999999MA1999999098591MD1999999+0081REMSYN004BUFR
0098827650999992016042700004-07330-047470FM-12+019399999V020999999999922000199020000199+02751+02481101141ADDAA101999999AZ101061AZ201061GF100991999999999999999999MA1999999098771MD1999999+0091REMSYN004BUFR
0149827650999992016042712004-07330-047470FM-12+019399999V020999999999901250199020000199+02821+02461101501ADDAA101999999AZ101061AZ201061GA1061+012501031GE19MSL   +99999+99999GF106991061999012501999999KA1120N+02491MA1999999099121MD1999999+0171REMSYN004BUFR
0152827650999992016042718004-07330-047470FM-12+019399999V020999999999999999999020000199+03021+02241101111ADDAA101999999AZ101061AZ201061GA1021+006001081GA2999+999999051GE19MSL   +99999+99999GF106991021999006001999999MA1999999098741MD1999999+0151REMSYN004BUFR
0098827650999992016042800004-07330-047470FM-12+019399999V020999999999922000199020000199+02821+02541101301ADDAA101999999AZ101061AZ201061GF100991999999999999999999MA1999999098921MD1999999+0151REMSYN004BUFR
0165827650999992016042812004-07330-047470FM-12+019399999V020999999999999999999020000199+02751+02441101431ADDAA101999999AZ101061AZ201061GA1031+006001071GA2999+999999051GE19MSL   +99999+99999GF106991031999006001999999KA1120N+02491MA1999999099051MD1999999-0071REMSYN004BUFR
0152827650999992016042818004-07330-047470FM-12+019399999V020999999999999999999020000199+03441+02341100971ADDAA101999999AZ101061AZ201061GA1031+006001061GA2999+999999051GE19MSL   +99999+99999GF106991031999006001999999MA1999999098631MD1999999-0111REMSYN004BUFR
0174827650999992016042900004-07330-047470FM-12+019399999V020999999999900600199010000199+02671+02481101301ADDAA106011031AY161061AY221061GA1081+006001071GA2999+999999101GA3999+999999101GE19MSL   +99999+99999GF108991081999006001999999MA1999999098911MD1999999-0011MW1021REMSYN004BUFR
0171827650999992016042912004-07330-047470FM-12+019399999V020999999999999999999020000199+02471+02431101511ADDAA124012031AY161061AY211061GA1041+006001071GA2999+999999051GE19MSL   +99999+99999GF107991041999006001999999KA1120N+02331MA1999999099111MD1999999+0061MW1031REMSYN004BUFR
0168827650999992016042918004-07330-047470FM-12+019399999V020999999999999999999020000199+02671+02391101341ADDAA101999999AZ101061AZ201061GA1031+006001081GA2999+999999051GA3999+999999101GE19MSL   +99999+99999GF108991031999006001999999MA1999999098941MD1999999+0311REMSYN004BUFR
0152827650999992016043000004-07330-047470FM-12+019399999V020999999999999999999020000199+02451+02341101561ADDAA101999999AZ101061AZ201061GA1021+006001081GA2999+999999051GE19MSL   +99999+99999GF105991021999006001999999MA1999999099141MD1999999+0231REMSYN004BUFR
0165827650999992016043012004-07330-047470FM-12+019399999V020999999999999999999020000199+02641+02331101571ADDAA101999999AZ101061AZ201061GA1021+006001081GA2999+999999031GE19MSL   +99999+99999GF105991021999006001999999KA1120N+02251MA1999999099161MD1999999+0051REMSYN004BUFR
0136827650999992016043018004-07330-047470FM-12+019399999V020999999999999999999020000199+03171+02411101011ADDAA101999999AZ101061AZ201061GA1031+006001081GE19MSL   +99999+99999GF103991031999006001999999MA1999999098641MD1999999-0031REMSYN004BUFR
0174827650999992016050100004-07330-047470FM-12+019399999V020999999999900600199020000199+02351+02151101491ADDAA106021031AY161061AY221061GA1081+006001071GA2999+999999101GA3999+999999101GE19MSL   +99999+99999GF108991081999006001999999MA1999999099051MD1999999-0061MW1031REMSYN004BUFR
0165827650999992016050112004-07330-047470FM-12+019399999V020999999999999999999020000199+02651+02341101641ADDAA124021031AZ101061AZ201061GA1041+006001051GA2999+999999001GE19MSL   +99999+99999GF107991041999006001999999KA1120N+02231MA1999999099231MD1999999+0071REMSYN004BUFR
0152827650999992016050118004-07330-047470FM-12+019399999V020999999999999999999020000199+03221+02451101101ADDAA101999999AZ101061AZ201061GA1041+006001061GA2999+999999031GE19MSL   +99999+99999GF107991041999006001999999MA1999999098731MD1999999+0091REMSYN004BUFR
0136827650999992016050200004-07330-047470FM-12+019399999V020999999999999999999020000199+02741+02481101351ADDAA101999999AZ101061AZ201061GA1031+006001081GE19MSL   +99999+99999GF103991031999006001999999MA1999999098961MD1999999-0121REMSYN004BUFR
0165827650999992016050212004-07330-047470FM-12+019399999V020999999999999999999020000199+02821+02541101581ADDAA101999999AZ101061AZ201061GA1041+006001071GA2999+999999031GE19MSL   +99999+99999GF107991041999006001999999KA1120N+02391MA1999999099201MD1999999-0031REMSYN004BUFR
0158827650999992016050218004-07330-047470FM-12+019399999V020999999999999999999020000199+02721+02451101191ADDAA106003031AY161061AY211061GA1031+006001081GA2999+999999031GE19MSL   +99999+99999GF107991031999006001999999MA1999999098801MD1999999+0071MW1021REMSYN004BUFR
0142827650999992016050300004-07330-047470FM-12+019399999V020999999999900600199020000199+02621+02471101541ADDAA101999999AY111061AY211061GA1051+006001081GE19MSL   +99999+99999GF105991051999006001999999MA1999999099151MD1999999+0191MW1131REMSYN004BUFR
0181827650999992016050312004-07330-047470FM-12+019399999V020999999999900600199020000199+02591+02401101751ADDAA124003031AZ101061AZ201061GA1051+006001081GA2999+999999051GA3999+999999101GE19MSL   +99999+99999GF108991051999006001999999KA1120N+02341MA1999999099341MD1999999+0141REMSYN004BUFR
0152827650999992016050318004-07330-047470FM-12+019399999V020999999999999999999020000199+02941+02521101321ADDAA101999999AZ101061AZ201061GA1031+006001081GA2999+999999051GE19MSL   +99999+99999GF107991031999006001999999MA1999999098931MD1999999+0131REMSYN004BUFR
0136827650999992016050400004-07330-047470FM-12+019399999V020999999999999999999020000199+02621+02481101601ADDAA101999999AZ101061AZ201061GA1011+006001081GE19MSL   +99999+99999GF101991011999006001999999MA1999999099201MD1999999+0051REMSYN004BUFR
0165827650999992016050412004-07330-047470FM-12+019399999V020999999999999999999020000199+02551+02381101811ADDAA101999999AZ101061AZ201061GA1031+006001081GA2999+999999051GE19MSL   +99999+99999GF106991031999006001999999KA1120N+02351MA1999999099401MD1999999+0061REMSYN004BUFR
0152827650999992016050418004-07330-047470FM-12+019399999V020999999999999999999020000199+03041+02431101321ADDAA101999999AZ101061AZ201061GA1031+006001081GA2999+999999051GE19MSL   +99999+99999GF106991031999006001999999MA1999999098941MD1999999+0011REMSYN004BUFR
0152827650999992016050500004-07330-047470FM-12+019399999V020999999999999999999020000199+02771+02521101541ADDAA101999999AZ101061AZ201061GA1011+006001081GA2999+999999051GE19MSL   +99999+99999GF103991011999006001999999MA1999999099141MD1999999-0061REMSYN004BUFR
0181827650999992016050512004-07330-047470FM-12+019399999V020999999999999999999020000199+02791+02481101731ADDAA101999999AZ101061AZ201061GA1021+006001081GA2999+999999041GA3999+999999001GE19MSL   +99999+99999GF105991021999006001999999KA1120N+02391MA1999999099341MD1999999-0061REMSYN004BUFR
0158827650999992016050518004-07330-047470FM-12+019399999V020999999999999999999020000199+02851+02541101371ADDAA106018031AY161061AY221061GA1011+006001081GA2999+999999051GE19MSL   +99999+99999GF106991011999006001999999MA1999999098991MD1999999+0051MW1001REMSYN004BUFR
0098827650999992016050600004-07330-047470FM-12+019399999V020999999999922000199020000199+02651+02521101521ADDAA101999999AZ101061AZ201061GF100991999999999999999999MA1999999099131MD1999999-0011REMSYN004BUFR
0149827650999992016050612004-07330-047470FM-12+019399999V020999999999999999999020000199+02791+02421101671ADDAA124018031AZ101061AZ201061GA1031+006001001GE19MSL   +99999+99999GF103991031999006001999999KA1120N+02271MA1999999099281MD1999999-0061REMSYN004BUFR
0152827650999992016050618004-07330-047470FM-12+019399999V020999999999999999999020000199+03341+02251101311ADDAA101999999AZ101061AZ201061GA1031+006001081GA2999+999999001GE19MSL   +99999+99999GF105991031999006001999999MA1999999098941MD1999999-0051REMSYN004BUFR
0098827650999992016050700004-07330-047470FM-12+019399999V020999999999922000199020000199+02771+02461101411ADDAA101999999AZ101061AZ201061GF100991999999999999999999MA1999999099031MD1999999-0101REMSYN004BUFR
0149827650999992016050712004-07330-047470FM-12+019399999V020999999999999999999020000199+02821+02311101591ADDAA101999999AZ101061AZ201061GA1021+006001081GE19MSL   +99999+99999GF102991021999006001999999KA1120N+02251MA1999999099211MD1999999-0071REMSYN004BUFR
0136827650999992016050718004-07330-047470FM-12+019399999V020999999999999999999020000199+03341+02021101191ADDAA101999999AZ101061AZ201061GA1031+006001081GE19MSL   +99999+99999GF103991031999006001999999MA1999999098831MD1999999-0111REMSYN004BUFR
0098827650999992016050800004-07330-047470FM-12+019399999V020999999999922000199020000199+02751+02441101321ADDAA101999999AZ101061AZ201061GF100991999999999999999999MA1999999098941MD1999999-0091REMSYN004BUFR
0149827650999992016050812004-07330-047470FM-12+019399999V020999999999999999999020000199+02751+02231101551ADDAA101999999AZ101061AZ201061GA1021+006001081GE19MSL   +99999+99999GF102991021999006001999999KA1120N+02211MA1999999099171MD1999999-0041REMSYN004BUFR
0152827650999992016050818004-07330-047470FM-12+019399999V020999999999999999999020000199+03341+01981101141ADDAA101999999AZ101061AZ201061GA1031+006001081GA2999+999999031GE19MSL   +99999+99999GF106991031999006001999999MA1999999098781MD1999999-0051REMSYN004BUFR
0098827650999992016050900004-07330-047470FM-12+019399999V020999999999922000199020000199+02741+02301101271ADDAA101999999AZ101061AZ201061GF100991999999999999999999MA1999999098891MD1999999-0051REMSYN004BUFR
0149827650999992016050912004-07330-047470FM-12+019399999V020999999999999999999020000199+02751+02231101561ADDAA101999999AZ101061AZ201061GA1021+012501031GE19MSL   +99999+99999GF102991021999012501999999KA1120N+02111MA1999999099171MD1999999+0001REMSYN004BUFR
0152827650999992016050918004-07330-047470FM-12+019399999V020999999999999999999020000199+03351+01971101191ADDAA101999999AZ101061AZ201061GA1011+006001081GA2999+999999031GE19MSL   +99999+99999GF103991011999006001999999MA1999999098831MD1999999+0051REMSYN004BUFR
0098827650999992016051000004-07330-047470FM-12+019399999V020999999999922000199020000199+02741+02381101381ADDAA101999999AZ101061AZ201061GF100991999999999999999999MA1999999099001MD1999999+0111REMSYN004BUFR
0149827650999992016051012004-07330-047470FM-12+019399999V020999999999999999999020000199+02791+02201101651ADDAA101999999AZ101061AZ201061GA1021+006001081GE19MSL   +99999+99999GF102991021999006001999999KA1120N+02251MA1999999099261MD1999999+0091REMSYN004BUFR
0136827650999992016051018004-07330-047470FM-12+019399999V020999999999999999999020000199+03441+02521101201ADDAA101999999AZ101061AZ201061GA1041+006001081GE19MSL   +99999+99999GF104991041999006001999999MA1999999098851MD1999999+0021REMSYN004BUFR
0098827650999992016051100004-07330-047470FM-12+019399999V020999999999922000199020000199+02891+02371101441ADDAA101999999AZ101061AZ201061GF100991999999999999999999MA1999999099061MD1999999+0061REMSYN004BUFR
0165827650999992016051112004-07330-047470FM-12+019399999V020999999999999999999020000199+02971+02441101651ADDAA101999999AZ101061AZ201061GA1011+006001081GA2999+999999001GE19MSL   +99999+99999GF103991011999006001999999KA1120N+02371MA1999999099281MD1999999+0021REMSYN004BUFR
0158827650999992016051118004-07330-047470FM-12+019399999V020999999999999999999020000199+02941+02431101321ADDAA101999999AY101061AY201061GA1031+006001081GA2999+999999051GE19MSL   +99999+99999GF107991031999006001999999MA1999999098941MD1999999+0091MW1151REMSYN004BUFR
0152827650999992016051200004-07330-047470FM-12+019399999V020999999999999999999020000199+02671+02431101391ADDAA101999999AZ101061AZ201061GA1021+006001081GA2999+999999041GE19MSL   +99999+99999GF103991021999006001999999MA1999999099021MD1999999-0041REMSYN004BUFR
0165827650999992016051212004-07330-047470FM-12+019399999V020999999999999999999020000199+02771+02461101671ADDAA101999999AZ101061AZ201061GA1041+006001061GA2999+999999031GE19MSL   +99999+99999GF107991041999006001999999KA1120N+02351MA1999999099281MD1999999+0001REMSYN004BUFR
0158827650999992016051218004-07330-047470FM-12+019399999V020999999999999999999020000199+02841+02581101351ADDAA106008031AY161061AY221061GA1031+006001081GA2999+999999031GE19MSL   +99999+99999GF107991031999006001999999MA1999999098961MD1999999+0021MW1021REMSYN004BUFR
0136827650999992016051300004-07330-047470FM-12+019399999V020999999999900600199020000199+02651+02481101511ADDAA101999999AZ101061AZ201061GA1061+006001041GE19MSL   +99999+99999GF106991061999006001999999MA1999999099121MD1999999+0101REMSYN004BUFR
0165827650999992016051312004-07330-047470FM-12+019399999V020999999999900600199020000199+02741+02451101861ADDAA124008031AZ101061AZ201061GA1061+006001081GA2999+999999051GE19MSL   +99999+99999GF107991061999006001999999KA1120N+02311MA1999999099461MD1999999+0181REMSYN004BUFR
0152827650999992016051318004-07330-047470FM-12+019399999V020999999999999999999020000199+03091+02631101401ADDAA101999999AZ101061AZ201061GA1021+006001081GA2999+999999051GE19MSL   +99999+99999GF107991021999006001999999MA1999999099021MD1999999+0061REMSYN004BUFR
0152827650999992016051400004-07330-047470FM-12+019399999V020999999999999999999020000199+02651+02521101661ADDAA101999999AZ101061AZ201061GA1021+006001081GA2999+999999051GE19MSL   +99999+99999GF106991021999006001999999MA1999999099261MD1999999+0141REMSYN004BUFR
0165827650999992016051412004-07330-047470FM-12+019399999V020999999999999999999020000199+02691+02501101851ADDAA101999999AZ101061AZ201061GA1041+006001071GA2999+999999051GE19MSL   +99999+99999GF107991041999006001999999KA1120N+02351MA1999999099451MD1999999-0011REMSYN004BUFR
0158827650999992016051418004-07330-047470FM-12+019399999V020999999999999999999020000199+02621+02421101581ADDAA106003031AY161061AY221061GA1041+006001071GA2999+999999051GE19MSL   +99999+99999GF107991041999006001999999MA1999999099181MD1999999+0161MW1021REMSYN004BUFR
0181827650999992016051512004-07330-047470FM-12+019399999V020999999999999999999020000199+02751+02381101881ADDAA124003031AZ101061AZ201061GA1021+006001081GA2999+999999031GA3999+999999001GE19MSL   +99999+99999GF105991021999006001999999KA1120N+02191MA1999999099471MD1999999+0021REMSYN004BUFR
