0149830960999992016010112004-10952-037054FM-12+000599999V0200901N0026199999999002000199+02841+02091101451ADDAA101999999AZ101061AZ201061GA1031+012501081GE19MSL   +99999+99999GF103991031999012501999999KA1120N+02401MA1999999101381MD1999999-0171REMSYN004BUFR
0136830960999992016010118004-10952-037054FM-12+000599999V0200901N0026199999999002000199+02941+02081101191ADDAA101999999AZ101061AZ201061GA1021+012501081GE19MSL   +99999+99999GF102991021999012501999999MA1999999101121MD1999999-0101REMSYN004BUFR
0149830960999992016010212004-10952-037054FM-12+000599999V0200901N0031199999999002000199+02871+02141101471ADDAA101999999AZ101061AZ201061GA1021+012501081GE19MSL   +99999+99999GF102991021999012501999999KA1120N+02401MA1999999101401MD1999999+0021REMSYN004BUFR
0136830960999992016010218004-10952-037054FM-12+000599999V0200901N0026199999999002000199+02951+02131101071ADDAA101999999AZ101061AZ201061GA1021+012501081GE19MSL   +99999+99999GF102991021999012501999999MA1999999101001MD1999999-0121REMSYN004BUFR
0149830960999992016010312004-10952-037054FM-12+000599999V0200901N0026199999999002000199+02971+02211101251ADDAA101999999AZ101061AZ201061GA1021+012501081GE19MSL   +99999+99999GF102991021999012501999999KA1120N+02421MA1999999101181MD1999999-0221REMSYN004BUFR
0136830960999992016010318004-10952-037054FM-12+000599999V0200901N0026199999999002000199+02941+02141100891ADDAA101999999AZ101061AZ201061GA1021+012501081GE19MSL   +99999+99999GF102991021999012501999999MA1999999100821MD1999999-0181REMSYN004BUFR
0149830960999992016010412004-10952-037054FM-12+000599999V0200901N0026199999999002000199+02821+02101101321ADDAA101999999AZ101061AZ201061GA1021+012501081GE19MSL   +99999+99999GF102991021999012501999999KA1120N+02431MA1999999101251MD1999999+0071REMSYN004BUFR
0136830960999992016010418004-10952-037054FM-12+000599999V0200901N0026101250199002000199+02791+02181101061ADDAA101999999AZ101061AZ201061GA1061+012501081GE19MSL   +99999+99999GF106991061999012501999999MA1999999100991MD1999999+0171REMSYN004BUFR
0155830960999992016010512004-10952-037054FM-12+000599999V0200901N0031101250199002000199+02851+02281101391ADDAA124002031AY161061AY261061GA1061+012501081GE19MSL   +99999+99999GF106991061999012501999999KA1120N+02431MA1999999101321MD1999999+0071MW1161REMSYN004BUFR
0136830960999992016010518004-10952-037054FM-12+000599999V0200901N0041101250199002000199+02921+02221101041ADDAA101999999AZ101061AZ201061GA1061+012501081GE19MSL   +99999+99999GF106991061999012501999999MA1999999100971MD1999999-0021REMSYN004BUFR
0136830960999992016010600004-10952-037054FM-12+000599999V0200901N0015101250199002000199+02741+02251101341ADDAA101999999AZ101061AZ201061GA1061+012501061GE19MSL   +99999+99999GF106991061999012501999999MA1999999101271MD1999999+0001REMSYN004BUFR
0149830960999992016010612004-10952-037054FM-12+000599999V0200901N0031101250199002000199+02771+02341101411ADDAA101999999AZ101061AZ201061GA1061+012501081GE19MSL   +99999+99999GF106991061999012501999999KA1120N+02441MA1999999101341MD1999999+0021REMSYN004BUFR
0142830960999992016010618004-10952-037054FM-12+000599999V0200901N0010101250199002000199+02691+02541101151ADDAA106001031AY161061AY261061GA1061+012501061GE19MSL   +99999+99999GF106991061999012501999999MA1999999101081MD1999999+0111MW1161REMSYN004BUFR
0136830960999992016010700004-10952-037054FM-12+000599999V0200901N0010101250199002000199+02591+02371101461ADDAA101999999AZ101061AZ201061GA1061+012501061GE19MSL   +99999+99999GF106991061999012501999999MA1999999101391MD1999999+0121REMSYN004BUFR
0149830960999992016010712004-10952-037054FM-12+000599999V0200901N0015199999999002000199+02851+02231101351ADDAA124001031AZ101061AZ201061GA1021+012501081GE19MSL   +99999+99999GF102991021999012501999999KA1120N+02401MA1999999101281MD1999999-0061REMSYN004BUFR
0136830960999992016010718004-10952-037054FM-12+000599999V0200901N0031199999999002000199+02891+02271101111ADDAA101999999AZ101061AZ201061GA1031+012501081GE19MSL   +99999+99999GF103991031999012501999999MA1999999101041MD1999999-0041REMSYN004BUFR
0136830960999992016010800004-10952-037054FM-12+000599999V0200901N0041101250199002000199+02671+02241101251ADDAA101999999AZ101061AZ201061GA1051+012501061GE19MSL   +99999+99999GF105991051999012501999999MA1999999101181MD1999999-0211REMSYN004BUFR
0149830960999992016010812004-10952-037054FM-12+000599999V0200501N0041101250199002000199+02951+02261101391ADDAA101999999AZ101061AZ201061GA1051+012501081GE19MSL   +99999+99999GF105991051999012501999999KA1120N+02401MA1999999101321MD1999999+0041REMSYN004BUFR
0136830960999992016010818004-10952-037054FM-12+000599999V0200901N0031101250199002000199+02871+02321101181ADDAA101999999AZ101061AZ201061GA1051+012501081GE19MSL   +99999+99999GF105991051999012501999999MA1999999101111MD1999999+0071REMSYN004BUFR
0136830960999992016010900004-10952-037054FM-12+000599999V0200901N0031199999999002000199+02701+02281101371ADDAA101999999AZ101061AZ201061GA1031+012501061GE19MSL   +99999+99999GF103991031999012501999999MA1999999101301MD1999999+0121REMSYN004BUFR
0149830960999992016010912004-10952-037054FM-12+000599999V0200901N0026199999999002000199+02971+02301101361ADDAA101999999AZ101061AZ201061GA1031+012501081GE19MSL   +99999+99999GF103991031999012501999999KA1120N+02411MA1999999101291MD1999999-0031REMSYN004BUFR
0136830960999992016010918004-10952-037054FM-12+000599999V0200901N0031199999999002000199+02891+02341101171ADDAA101999999AZ101061AZ201061GA1041+012501081GE19MSL   +99999+99999GF104991041999012501999999MA1999999101101MD1999999-0011REMSYN004BUFR
0155830960999992016011012004-10952-037054FM-12+000599999V0200901N0026199999999002000199+02741+02281101531ADDAA124017031AY161061AY261061GA1031+012501081GE19MSL   +99999+99999GF103991031999012501999999KA1120N+02331MA1999999101461MD1999999+0171MW1161REMSYN004BUFR
0142830960999992016011018004-10952-037054FM-12+000599999V0200901N0041199999999002000199+02691+02301101271ADDAA106001031AY161061AY261061GA1031+012501081GE19MSL   +99999+99999GF103991031999012501999999MA1999999101201MD1999999+0101MW1161REMSYN004BUFR
0187830960999992016011112004-10952-037054FM-12+000599999V0200901N0026101250199002000199+02671+02451101511ADDAA124000831AY161061AY261061GA1081+012501061GA2999+999999101GA3999+999999101GE19MSL   +99999+99999GF108991081999012501999999KA1120N+02331MA1999999101441MD1999999-0021MW1161REMSYN004BUFR
0136830960999992016011118004-10952-037054FM-12+000599999V0200901N0031199999999002000199+02901+02361101151ADDAA101999999AZ101061AZ201061GA1021+012501081GE19MSL   +99999+99999GF102991021999012501999999MA1999999101081MD1999999-0121REMSYN004BUFR
0136830960999992016011200004-10952-037054FM-12+000599999V0200901N0031199999999002000199+02741+02341101271ADDAA101999999AZ101061AZ201061GA1031+012501061GE19MSL   +99999+99999GF103991031999012501999999MA1999999101201MD1999999-0251REMSYN004BUFR
0149830960999992016011212004-10952-037054FM-12+000599999V0200901N0026199999999002000199+02871+02181101471ADDAA101999999AZ101061AZ201061GA1031+012501081GE19MSL   +99999+99999GF103991031999012501999999KA1120N+02331MA1999999101401MD1999999-0041REMSYN004BUFR
0136830960999992016011218004-10952-037054FM-12+000599999V0200901N0026199999999002000199+02951+02151101111ADDAA101999999AZ101061AZ201061GA1021+012501081GE19MSL   +99999+99999GF102991021999012501999999MA1999999101041MD1999999-0041REMSYN004BUFR
0136830960999992016011300004-10952-037054FM-12+000599999V0200901N0026199999999002000199+02721+02171101241ADDAA101999999AZ101061AZ201061GA1021+012501081GE19MSL   +99999+99999GF102991021999012501999999MA1999999101171MD1999999-0031REMSYN004BUFR
0149830960999992016011312004-10952-037054FM-12+000599999V0200901N0031199999999002000199+02801+02201101321ADDAA101999999AZ101061AZ201061GA1041+012501081GE19MSL   +99999+99999GF104991041999012501999999KA1120N+02301MA1999999101251MD1999999-0151REMSYN004BUFR
0136830960999992016011318004-10952-037054FM-12+000599999V0200901N0026199999999002000199+02941+02191101151ADDAA101999999AZ101061AZ201061GA1041+012501081GE19MSL   +99999+99999GF104991041999012501999999MA1999999101081MD1999999+0041REMSYN004BUFR
0136830960999992016011400004-10952-037054FM-12+000599999V0200901N0026199999999002000199+02701+02261101251ADDAA101999999AZ101061AZ201061GA1021+012501061GE19MSL   +99999+99999GF102991021999012501999999MA1999999101181MD1999999+0011REMSYN004BUFR
0149830960999992016011412004-10952-037054FM-12+000599999V0200901N0031199999999002000199+02871+02141101421ADDAA101999999AZ101061AZ201061GA1021+012501081GE19MSL   +99999+99999GF102991021999012501999999KA1120N+02401MA1999999101351MD1999999+0101REMSYN004BUFR
0136830960999992016011418004-10952-037054FM-12+000599999V0200901N0026199999999002000199+02971+02151101171ADDAA101999999AZ101061AZ201061GA1021+012501081GE19MSL   +99999+99999GF102991021999012501999999MA1999999101101MD1999999+0021REMSYN004BUFR
0149830960999992016011512004-10952-037054FM-12+000599999V0200901N0026199999999002000199+02801+02251101451ADDAA101999999AZ101061AZ201061GA1031+012501061GE19MSL   +99999+99999GF103991031999012501999999KA1120N+02321MA1999999101381MD1999999+0031REMSYN004BUFR
0136830960999992016011518004-10952-037054FM-12+000599999V0200901N0026199999999002000199+02941+02111101121ADDAA101999999AZ101061AZ201061GA1021+012501081GE19MSL   +99999+99999GF102991021999012501999999MA1999999101051MD1999999-0051REMSYN004BUFR
0136830960999992016011600004-10952-037054FM-12+000599999V0200901N0026199999999002000199+02751+02251101271ADDAA101999999AZ101061AZ201061GA1021+012501061GE19MSL   +99999+99999GF102991021999012501999999MA1999999101201MD1999999-0171REMSYN004BUFR
0149830960999992016011612004-10952-037054FM-12+000599999V0200901N0026199999999002000199+02871+02141101371ADDAA101999999AZ101061AZ201061GA1031+012501081GE19MSL   +99999+99999GF103991031999012501999999KA1120N+02421MA1999999101301MD1999999-0081REMSYN004BUFR
0136830960999992016011618004-10952-037054FM-12+000599999V0200901N0026199999999002000199+03051+02221100971ADDAA101999999AZ101061AZ201061GA1021+012501081GE19MSL   +99999+99999GF102991021999012501999999MA1999999100901MD1999999-0151REMSYN004BUFR
0149830960999992016011712004-10952-037054FM-12+000599999V0200901N0031199999999002000199+02871+02181101271ADDAA101999999AZ101061AZ201061GA1031+012501081GE19MSL   +99999+99999GF103991031999012501999999KA1120N+02431MA1999999101201MD1999999-0101REMSYN004BUFR
0136830960999992016011718004-10952-037054FM-12+000599999V0200901N0026199999999002000199+02941+02081101011ADDAA101999999AZ101061AZ201061GA1021+012501081GE19MSL   +99999+99999GF102991021999012501999999MA1999999100941MD1999999+0041REMSYN004BUFR
0187830960999992016011812004-10952-037054FM-12+000599999V0200901N0010100600199002000199+02521+02441101281ADDAA124018031AY161061AY261061GA1081+006001061GA2999+999999101GA3999+999999101GE19MSL   +99999+99999GF108991081999006001999999KA1120N+02241MA1999999101211MD1999999+0011MW1621REMSYN004BUFR
0142830960999992016011818004-10952-037054FM-12+000599999V0200901N0010101250199002000199+02691+02371100971ADDAA106002031AY161061AY261061GA1061+012501061GE19MSL   +99999+99999GF106991061999012501999999MA1999999100901MD1999999-0041MW1161REMSYN004BUFR
0136830960999992016011900004-10952-037054FM-12+000599999V0200901N0015101250199002000199+02651+02241101271ADDAA101999999AZ101061AZ201061GA1061+012501061GE19MSL   +99999+99999GF106991061999012501999999MA1999999101201MD1999999+0021REMSYN004BUFR
0155830960999992016011912004-10952-037054FM-12+000599999V0200501N0015199999999002000199+02771+02341101171ADDAA124003031AY161061AY261061GA1031+012501081GE19MSL   +99999+99999GF103991031999012501999999KA1120N+02301MA1999999101101MD1999999-0111MW1161REMSYN004BUFR
0136830960999992016011918004-10952-037054FM-12+000599999V0200901N0031199999999002000199+02771+02341100991ADDAA101999999AZ101061AZ201061GA1031+012501081GE19MSL   +99999+99999GF103991031999012501999999MA1999999100921MD1999999+0021REMSYN004BUFR
0136830960999992016012000004-10952-037054FM-12+000599999V0200901N0041199999999002000199+02671+02261101151ADDAA101999999AZ101061AZ201061GA1031+012501061GE19MSL   +99999+99999GF103991031999012501999999MA1999999101081MD1999999-0121REMSYN004BUFR
0149830960999992016012012004-10952-037054FM-12+000599999V0200901N0051199999999002000199+02951+02331101221ADDAA101999999AZ101061AZ201061GA1031+012501081GE19MSL   +99999+99999GF103991031999012501999999KA1120N+02331MA1999999101151MD1999999+0051REMSYN004BUFR
0163830960999992016012018004-10917-037050FM-12+000599999V0200901N005119999999N002000199+02901+02371100881ADDGA1031+012501081GE19MSL   +99999+99999GF103991031999012501999999MA1999999100811MD1999999-0211REMSYN05883096 32695 30910 10290 20237 30081 40088 83100 333 59021=
0136830960999992016012100004-10952-037054FM-12+000599999V0200901N0051101250199002000199+02771+02271101151ADDAA101999999AZ101061AZ201061GA1051+012501061GE19MSL   +99999+99999GF105991051999012501999999MA1999999101081MD1999999+0001REMSYN004BUFR
0155830960999992016012112004-10952-037054FM-12+000599999V0203601N0010101250199002000199+02751+02521101271ADDAA124000431AY151061AY251061GA1061+012501061GE19MSL   +99999+99999GF106991061999012501999999KA1120N+02301MA1999999101201MD1999999+0051MW1161REMSYN004BUFR
0174830960999992016012118004-10952-037054FM-12+000599999V0200901N0026100600199002000199+02441+02371101051ADDAA106024031AY161061AY261061GA1081+006001061GA2999+999999101GA3999+999999101GE19MSL   +99999+99999GF108991081999006001999999MA1999999100981MD1999999+0171MW1621REMSYN004BUFR
0136830960999992016012200004-10952-037054FM-12+000599999V0200501N0010101250199002000199+02541+02291101141ADDAA101999999AZ101061AZ201061GA1061+012501061GE19MSL   +99999+99999GF106991061999012501999999MA1999999101071MD1999999-0011REMSYN004BUFR
0187830960999992016012212004-10952-037054FM-12+000599999V0200501N0010101250199002000199+02601+02461101361ADDAA124026031AY161061AY261061GA1081+012501061GA2999+999999101GA3999+999999101GE19MSL   +99999+99999GF108991081999012501999999KA1120N+02321MA1999999101291MD1999999+0091MW1611REMSYN004BUFR
0136830960999992016012218004-10952-037054FM-12+000599999V0203601N0015101250199002000199+02691+02431101131ADDAA101999999AZ101061AZ201061GA1061+012501061GE19MSL   +99999+99999GF106991061999012501999999MA1999999101061MD1999999+0081REMSYN004BUFR
0174830960999992016012300004-10952-037054FM-12+000599999V0203601N0010101250199002000199+02541+02401101421ADDAA106002031AY161061AY261061GA1081+012501061GA2999+999999101GA3999+999999101GE19MSL   +99999+99999GF108991081999012501999999MA1999999101351MD1999999+0281MW1161REMSYN004BUFR
0149830960999992016012312004-10952-037054FM-12+000599999V0200501N0015199999999002000199+02691+02131101621ADDAA124002031AZ101061AZ201061GA1031+012501061GE19MSL   +99999+99999GF103991031999012501999999KA1120N+02301MA1999999101551MD1999999+0261REMSYN004BUFR
0142830960999992016012318004-10952-037054FM-12+000599999V0200501N0026199999999002000199+02691+02351101171ADDAA106000631AY161061AY261061GA1999+012501061GE19MSL   +99999+99999GF106991999999012501999999MA1999999101101MD1999999+0041MW1161REMSYN004BUFR
0149830960999992016012412004-10952-037054FM-12+000599999V0200501N0021199999999002000199+02741+02191101571ADDAA101999999AZ101061AZ201061GA1031+012501061GE19MSL   +99999+99999GF103991031999012501999999KA1120N+02351MA1999999101501MD1999999-0051REMSYN004BUFR
0136830960999992016012418004-10952-037054FM-12+000599999V0200901N0031199999999002000199+02891+02321101251ADDAA101999999AZ101061AZ201061GA1021+012501081GE19MSL   +99999+99999GF102991021999012501999999MA1999999101181MD1999999+0081REMSYN004BUFR
0149830960999992016012512004-10952-037054FM-12+000599999V0200901N0031199999999002000199+02801+02201101671ADDAA101999999AZ101061AZ201061GA1031+012501081GE19MSL   +99999+99999GF103991031999012501999999KA1120N+02361MA1999999101601MD1999999+0101REMSYN004BUFR
0136830960999992016012518004-10952-037054FM-12+000599999V0200901N0026199999999002000199+02921+02081101301ADDAA101999999AZ101061AZ201061GA1021+012501081GE19MSL   +99999+99999GF102991021999012501999999MA1999999101231MD1999999+0051REMSYN004BUFR
0136830960999992016012600004-10952-037054FM-12+000599999V0200901N0026199999999002000199+02721+02201101371ADDAA101999999AZ101061AZ201061GA1031+012501061GE19MSL   +99999+99999GF103991031999012501999999MA1999999101301MD1999999+0041REMSYN004BUFR
0149830960999992016012612004-10952-037054FM-12+000599999V0200901N0031199999999002000199+02871+02211101531ADDAA101999999AZ101061AZ201061GA1021+012501081GE19MSL   +99999+99999GF102991021999012501999999KA1120N+02431MA1999999101461MD1999999-0141REMSYN004BUFR
0136830960999992016012618004-10952-037054FM-12+000599999V0200901N0031199999999002000199+02921+02291101441ADDAA101999999AZ101061AZ201061GA1021+012501081GE19MSL   +99999+99999GF102991021999012501999999MA1999999101371MD1999999-0321REMSYN004BUFR
0136830960999992016012700004-10952-037054FM-12+000599999V0200901N0026199999999002000199+02721+02241101291ADDAA101999999AZ101061AZ201061GA1021+012501081GE19MSL   +99999+99999GF102991021999012501999999MA1999999101221MD1999999-0081REMSYN004BUFR
0149830960999992016012712004-10952-037054FM-12+000599999V0200901N0031199999999002000199+02871+02161101491ADDAA101999999AZ101061AZ201061GA1021+012501081GE19MSL   +99999+99999GF102991021999012501999999KA1120N+02461MA1999999101421MD1999999-0041REMSYN004BUFR
0136830960999992016012718004-10952-037054FM-12+000599999V0200901N0031199999999002000199+02971+02151101391ADDAA101999999AZ101061AZ201061GA1021+012501081GE19MSL   +99999+99999GF102991021999012501999999MA1999999101321MD1999999-0051REMSYN004BUFR
0136830960999992016012800004-10952-037054FM-12+000599999V0200901N0026199999999002000199+02721+02191101331ADDAA101999999AZ101061AZ201061GA1021+012501081GE19MSL   +99999+99999GF102991021999012501999999MA1999999101261MD1999999+0041REMSYN004BUFR
0149830960999992016012812004-10952-037054FM-12+000599999V0200901N0031199999999002000199+02801+02111101581ADDAA101999999AZ101061AZ201061GA1021+012501081GE19MSL   +99999+99999GF102991021999012501999999KA1120N+02431MA1999999101511MD1999999+0091REMSYN004BUFR
0136830960999992016012818004-10952-037054FM-12+000599999V0200901N0031199999999002000199+02941+02141101511ADDAA101999999AZ101061AZ201061GA1021+012501081GE19MSL   +99999+99999GF102991021999012501999999MA1999999101441MD1999999-0121REMSYN004BUFR
0136830960999992016012900004-10952-037054FM-12+000599999V0200901N0031199999999002000199+02751+02281101431ADDAA101999999AZ101061AZ201061GA1021+012501081GE19MSL   +99999+99999GF102991021999012501999999MA1999999101361MD1999999+0101REMSYN004BUFR
0149830960999992016012912004-10952-037054FM-12+000599999V0200901N0021199999999002000199+02891+02151101631ADDAA101999999AZ101061AZ201061GA1021+012501081GE19MSL   +99999+99999GF102991021999012501999999KA1120N+02411MA1999999101561MD1999999+0051REMSYN004BUFR
0136830960999992016012918004-10952-037054FM-12+000599999V0200901N0026199999999002000199+02971+02201101571ADDAA101999999AZ101061AZ201061GA1021+012501081GE19MSL   +99999+99999GF102991021999012501999999MA1999999101501MD1999999+0061REMSYN004BUFR
0142830960999992016013000004-10952-037054FM-12+000599999V0200901N0026101250199002000199+02721+02341101471ADDAA106003031AY151061AY251061GA1051+012501061GE19MSL   +99999+99999GF105991051999012501999999MA1999999101401MD1999999+0041MW1211REMSYN004BUFR
0155830960999992016013012004-10952-037054FM-12+000599999V0201801N0021199999999002000199+02641+01951101621ADDAA124006031AY151061AY251061GA1031+012501061GE19MSL   +99999+99999GF103991031999012501999999KA1120N+02201MA1999999101551MD1999999-0011MW1211REMSYN004BUFR
0136830960999992016013018004-10952-037054FM-12+000599999V0201801N0026199999999002000199+02971+02381101551ADDAA101999999AZ101061AZ201061GA1021+012501081GE19MSL   +99999+99999GF102991021999012501999999MA1999999101481MD1999999-0021REMSYN004BUFR
0155830960999992016013112004-10952-037054FM-12+000599999V0203601N0015101250199002000199+02541+02021101651ADDAA124005031AY161061AY261061GA1051+012501061GE19MSL   +99999+99999GF105991051999012501999999KA1120N+02201MA1999999101581MD1999999+0031MW1211REMSYN004BUFR
0136830960999992016013118004-10952-037054FM-12+000599999V0200901N0026199999999002000199+02901+02261101571ADDAA101999999AZ101061AZ201061GA1031+012501081GE19MSL   +99999+99999GF103991031999012501999999MA1999999101501MD1999999+0021REMSYN004BUFR
0155830960999992016020112004-10952-037054FM-12+000599999V0200901N0015101250199002000199+02841+02391101631ADDAA124002031AY161061AY261061GA1051+012501061GE19MSL   +99999+99999GF106991051999012501999999KA1120N+02301MA1999999101561MD1999999-0021MW1161REMSYN004BUFR
0136830960999992016020118004-10952-037054FM-12+000599999V0200901N0010199999999002000199+02941+02361101301ADDAA101999999AZ101061AZ201061GA1021+012501081GE19MSL   +99999+99999GF102991021999012501999999MA1999999101231MD1999999-0271REMSYN004BUFR
0149830960999992016020212004-10952-037054FM-12+000599999V0200901N0015199999999002000199+02871+02321101501ADDAA101999999AZ101061AZ201061GA1031+012501081GE19MSL   +99999+99999GF103991031999012501999999KA1120N+02331MA1999999101431MD1999999-0131REMSYN004BUFR
0136830960999992016020218004-10952-037054FM-12+000599999V0200901N0026199999999002000199+02941+02311101341ADDAA101999999AZ101061AZ201061GA1031+012501081GE19MSL   +99999+99999GF103991031999012501999999MA1999999101271MD1999999+0041REMSYN004BUFR
0155830960999992016020312004-10952-037054FM-12+000599999V0200901N0026199999999002000199+02851+02311101371ADDAA124002031AY161061AY261061GA1031+012501081GE19MSL   +99999+99999GF103991031999012501999999KA1120N+02301MA1999999101301MD1999999-0131MW1161REMSYN004BUFR
0149830960999992016020412004-10952-037054FM-12+000599999V0200901N0026199999999002000199+02891+02321101411ADDAA101999999AZ101061AZ201061GA1021+012501081GE19MSL   +99999+99999GF102991021999012501999999KA1120N+02351MA1999999101241MD1999999+0041REMSYN004BUFR
0136830960999992016020418004-10952-037054FM-12+000599999V0200901N0026199999999002000199+02941+02311101251ADDAA101999999AZ101061AZ201061GA1021+012501081GE19MSL   +99999+99999GF102991021999012501999999MA1999999101181MD1999999+0051REMSYN004BUFR
0149830960999992016020512004-10952-037054FM-12+000599999V0200901N0015101250199002000199+02971+02351101591ADDAA101999999AZ101061AZ201061GA1051+012501081GE19MSL   +99999+99999GF105991051999012501999999KA1120N+02411MA1999999101521MD1999999+0181REMSYN004BUFR
0136830960999992016020518004-10952-037054FM-12+000599999V0200901N0031101250199002000199+03071+02401101371ADDAA101999999AZ101061AZ201061GA1051+012501081GE19MSL   +99999+99999GF105991051999012501999999MA1999999101301MD1999999+0121REMSYN004BUFR
0149830960999992016020612004-10952-037054FM-12+000599999V0200901N0026199999999002000199+02971+02371101511ADDAA101999999AZ101061AZ201061GA1021+012501081GE19MSL   +99999+99999GF102991021999012501999999KA1120N+02421MA1999999101441MD1999999-0081REMSYN004BUFR
0136830960999992016020618004-10952-037054FM-12+000599999V0200901N0015199999999002000199+03041+02271101531ADDAA101999999AZ101061AZ201061GA1021+012501081GE19MSL   +99999+99999GF102991021999012501999999MA1999999101461MD1999999+0161REMSYN004BUFR
0149830960999992016020712004-10952-037054FM-12+000599999V0200901N0026101250199002000199+02891+02341101611ADDAA101999999AZ101061AZ201061GA1051+012501081GE19MSL   +99999+99999GF105991051999012501999999KA1120N+02441MA1999999101541MD1999999+0101REMSYN004BUFR
0136830960999992016020718004-10952-037054FM-12+000599999V0200901N0026199999999002000199+03001+02391101631ADDAA101999999AZ101061AZ201061GA1031+012501081GE19MSL   +99999+99999GF103991031999012501999999MA1999999101561MD1999999+0101REMSYN004BUFR
0149830960999992016020812004-10952-037054FM-12+000599999V0200901N0026199999999002000199+02891+02131101771ADDAA101999999AZ101061AZ201061GA1031+012501081GE19MSL   +99999+99999GF103991031999012501999999KA1120N+02421MA1999999101701MD1999999+0161REMSYN004BUFR
0136830960999992016020818004-10952-037054FM-12+000599999V0200901N0026199999999002000199+02951+02101101571ADDAA101999999AZ101061AZ201061GA1021+012501081GE19MSL   +99999+99999GF102991021999012501999999MA1999999101501MD1999999-0061REMSYN004BUFR
0149830960999992016020912004-10952-037054FM-12+000599999V0200901N0026199999999002000199+02891+02171101801ADDAA101999999AZ101061AZ201061GA1031+012501081GE19MSL   +99999+99999GF103991031999012501999999KA1120N+02421MA1999999101731MD1999999+0031REMSYN004BUFR
0136830960999992016020918004-10952-037054FM-12+000599999V0200901N0026199999999002000199+03021+02181101571ADDAA101999999AZ101061AZ201061GA1021+012501081GE19MSL   +99999+99999GF102991021999012501999999MA1999999101501MD1999999+0001REMSYN004BUFR
0149830960999992016021012004-10952-037054FM-12+000599999V0200901N0026199999999002000199+02941+02211101751ADDAA101999999AZ101061AZ201061GA1031+012501081GE19MSL   +99999+99999GF103991031999012501999999KA1120N+02451MA1999999101681MD1999999-0051REMSYN004BUFR
0136830960999992016021018004-10952-037054FM-12+000599999V0200901N0026199999999002000199+03041+02181101411ADDAA101999999AZ101061AZ201061GA1021+012501081GE19MSL   +99999+99999GF102991021999012501999999MA1999999101341MD1999999-0401REMSYN004BUFR
0182830960999992016021112004-10917-037050FM-12+000599999V0200901N002619999999N002000199+02911+02151101491ADDGA1031+012501081GE19MSL   +99999+99999GF103991031999012501999999KA1240N+02451MA1999999101421MD1999999-0261REMSYN06483096 32695 30905 10291 20215 30142 40149 83100 333 20245 59026=
0136830960999992016021118004-10952-037054FM-12+000599999V0200901N0026199999999002000199+02951+02101101211ADDAA101999999AZ101061AZ201061GA1021+012501081GE19MSL   +99999+99999GF102991021999012501999999MA1999999101141MD1999999-0201REMSYN004BUFR
0149830960999992016021212004-10952-037054FM-12+000599999V0200901N0026199999999002000199+02901+02171101451ADDAA101999999AZ101061AZ201061GA1031+012501081GE19MSL   +99999+99999GF103991031999012501999999KA1120N+02381MA1999999101381MD1999999-0041REMSYN004BUFR
0136830960999992016021218004-10952-037054FM-12+000599999V0200901N0026199999999002000199+02941+02081101091ADDAA101999999AZ101061AZ201061GA1021+012501081GE19MSL   +99999+99999GF102991021999012501999999MA1999999101021MD1999999-0121REMSYN004BUFR
0149830960999992016021312004-10952-037054FM-12+000599999V0200901N0031101250199002000199+02741+02101101421ADDAA101999999AZ101061AZ201061GA1051+012501081GE19MSL   +99999+99999GF105991051999012501999999KA1120N+02411MA1999999101351MD1999999-0031REMSYN004BUFR
0136830960999992016021318004-10952-037054FM-12+000599999V0200901N0031199999999002000199+02941+02101101151ADDAA101999999AZ101061AZ201061GA1041+012501081GE19MSL   +99999+99999GF104991041999012501999999MA1999999101081MD1999999+0061REMSYN004BUFR
0149830960999992016021412004-10952-037054FM-12+000599999V0200901N0031199999999002000199+02891+02181101531ADDAA101999999AZ101061AZ201061GA1041+012501081GE19MSL   +99999+99999GF104991041999012501999999KA1120N+02451MA1999999101461MD1999999+0111REMSYN004BUFR
0136830960999992016021418004-10952-037054FM-12+000599999V0200901N0026199999999002000199+02951+02131101271ADDAA101999999AZ101061AZ201061GA1041+012501081GE19MSL   +99999+99999GF104991041999012501999999MA1999999101201MD1999999+0121REMSYN004BUFR
0149830960999992016021512004-10952-037054FM-12+000599999V0200901N0026101250199002000199+02941+02381101511ADDAA101999999AZ101061AZ201061GA1051+012501081GE19MSL   +99999+99999GF105991051999012501999999KA1120N+02441MA1999999101441MD1999999-0021REMSYN004BUFR
0163830960999992016021518004-10917-037050FM-12+000599999V0200901N002619999999N002000199+03001+02391101261ADDGA1021+012501081GE19MSL   +99999+99999GF102991021999012501999999MA1999999101191MD1999999-0011REMSYN05883096 32695 20905 10300 20239 30119 40126 82100 333 59001=
0149830960999992016021612004-10952-037054FM-12+000599999V0200901N0041199999999002000199+02971+02371101421ADDAA101999999AZ101061AZ201061GA1031+012501081GE19MSL   +99999+99999GF103991031999012501999999KA1120N+02471MA1999999101351MD1999999-0091REMSYN004BUFR
0136830960999992016021618004-10952-037054FM-12+000599999V0200901N0031199999999002000199+03001+02391101281ADDAA101999999AZ101061AZ201061GA1031+012501081GE19MSL   +99999+99999GF103991031999012501999999MA1999999101211MD1999999+0021REMSYN004BUFR
0149830960999992016021712004-10952-037054FM-12+000599999V0200901N0031199999999002000199+03001+02341101381ADDAA101999999AZ101061AZ201061GA1021+012501061GE19MSL   +99999+99999GF102991021999012501999999KA1120N+02491MA1999999101311MD1999999-0041REMSYN004BUFR
0136830960999992016021718004-10952-037054FM-12+000599999V0200901N0026199999999002000199+03141+02341101171ADDAA101999999AZ101061AZ201061GA1032+012501081GE19MSL   +99999+99999GF102992032999012501999999MA1999999101101MD1999999-0111REMSYN004BUFR
0155830960999992016021812004-10952-037054FM-12+000599999V0200901N0026199999999002000199+02951+02341101321ADDAA124006031AY161061AY261061GA1031+012501061GE19MSL   +99999+99999GF103991031999012501999999KA1120N+02411MA1999999101251MD1999999-0061MW1161REMSYN004BUFR
0163830960999992016021818004-10917-037050FM-12+000599999V0200901N004119999999N002000199+02931+02361101161ADDGA1031+012501081GE19MSL   +99999+99999GF103991031999012501999999MA1999999101091MD1999999-0011REMSYN05883096 32695 30908 10293 20236 30109 40116 83100 333 59001=
0155830960999992016021912004-10952-037054FM-12+000599999V0200901N0026101250199002000199+02641+02371101471ADDAA124038031AY161061AY261061GA1061+012501061GE19MSL   +99999+99999GF106991061999012501999999KA1120N+02371MA1999999101401MD1999999+0151MW1161REMSYN004BUFR
0136830960999992016021918004-10952-037054FM-12+000599999V0200901N0041199999999002000199+02941+02281101201ADDAA101999999AZ101061AZ201061GA1031+012501081GE19MSL   +99999+99999GF103991031999012501999999MA1999999101131MD1999999+0041REMSYN004BUFR
0149830960999992016022012004-10952-037054FM-12+000599999V0200901N0031199999999002000199+02921+02381101531ADDAA101999999AZ101061AZ201061GA1021+012501081GE19MSL   +99999+99999GF102991021999012501999999KA1120N+02441MA1999999101461MD1999999+0061REMSYN004BUFR
0136830960999992016022018004-10952-037054FM-12+000599999V0200901N0031199999999002000199+02951+02421101381ADDAA101999999AZ101061AZ201061GA1031+012501081GE19MSL   +99999+99999GF103991031999012501999999MA1999999101311MD1999999+0181REMSYN004BUFR
0149830960999992016022112004-10952-037054FM-12+000599999V0200901N0031199999999002000199+03001+02311101431ADDAA101999999AZ101061AZ201061GA1031+012501081GE19MSL   +99999+99999GF103991031999012501999999KA1120N+02431MA1999999101361MD1999999-0101REMSYN004BUFR
0136830960999992016022118004-10952-037054FM-12+000599999V0200901N0031199999999002000199+03001+02341101131ADDAA101999999AZ101061AZ201061GA1021+012501081GE19MSL   +99999+99999GF102991021999012501999999MA1999999101061MD1999999-0251REMSYN004BUFR
0149830960999992016022212004-10952-037054FM-12+000599999V0200901N0026199999999002000199+02901+02151101431ADDAA101999999AZ101061AZ201061GA1031+012501081GE19MSL   +99999+99999GF103991031999012501999999KA1120N+02381MA1999999101361MD1999999+0201REMSYN004BUFR
0136830960999992016022218004-10952-037054FM-12+000599999V0200901N0026199999999002000199+03051+02191101211ADDAA101999999AZ101061AZ201061GA1021+012501081GE19MSL   +99999+99999GF102991021999012501999999MA1999999101141MD1999999+0081REMSYN004BUFR
0149830960999992016022312004-10952-037054FM-12+000599999V0200901N0026199999999002000199+02991+02201101581ADDAA101999999AZ101061AZ201061GA1031+012501081GE19MSL   +99999+99999GF103991031999012501999999KA1120N+02451MA1999999101511MD1999999+0151REMSYN004BUFR
0136830960999992016022318004-10952-037054FM-12+000599999V0200901N0026199999999002000199+03121+02251101421ADDAA101999999AZ101061AZ201061GA1021+012501081GE19MSL   +99999+99999GF102991021999012501999999MA1999999101351MD1999999+0211REMSYN004BUFR
0149830960999992016022412004-10952-037054FM-12+000599999V0200901N0021199999999002000199+02901+02171101511ADDAA101999999AZ101061AZ201061GA1041+012501081GE19MSL   +99999+99999GF104991041999012501999999KA1120N+02471MA1999999101441MD1999999-0071REMSYN004BUFR
0136830960999992016022418004-10952-037054FM-12+000599999V0200901N0026199999999002000199+03091+02231101231ADDAA101999999AZ101061AZ201061GA1021+012501081GE19MSL   +99999+99999GF102991021999012501999999MA1999999101161MD1999999-0191REMSYN004BUFR
0149830960999992016022512004-10952-037054FM-12+000599999V0200901N0026199999999002000199+02971+02231101451ADDAA101999999AZ101061AZ201061GA1031+012501081GE19MSL   +99999+99999GF103991031999012501999999KA1120N+02481MA1999999101381MD1999999-0061REMSYN004BUFR
0136830960999992016022518004-10952-037054FM-12+000599999V0200901N0026199999999002000199+03051+02261101211ADDAA101999999AZ101061AZ201061GA1031+012501081GE19MSL   +99999+99999GF103991031999012501999999MA1999999101141MD1999999-0021REMSYN004BUFR
0149830960999992016022612004-10952-037054FM-12+000599999V0200901N0026199999999002000199+02921+02141101431ADDAA101999999AZ101061AZ201061GA1031+012501081GE19MSL   +99999+99999GF103991031999012501999999KA1120N+02491MA1999999101361MD1999999-0021REMSYN004BUFR
0136830960999992016022618004-10952-037054FM-12+000599999V0200901N0026199999999002000199+03041+02181101171ADDAA101999999AZ101061AZ201061GA1021+012501081GE19MSL   +99999+99999GF102991021999012501999999MA1999999101101MD1999999-0051REMSYN004BUFR
0149830960999992016022712004-10952-037054FM-12+000599999V0200901N0026199999999002000199+02841+02191101591ADDAA101999999AZ101061AZ201061GA1041+012501081GE19MSL   +99999+99999GF104991041999012501999999KA1120N+02501MA1999999101521MD1999999-0161REMSYN004BUFR
0136830960999992016022718004-10952-037054FM-12+000599999V0200901N0026199999999002000199+03041+02201101391ADDAA101999999AZ101061AZ201061GA1021+012501081GE19MSL   +99999+99999GF102991021999012501999999MA1999999101321MD1999999+0221REMSYN004BUFR
0155830960999992016022812004-10952-037054FM-12+000599999V0200901N0015101250199002000199+02691+02151101471ADDAA124001031AY151061AY251061GA1051+012501061GE19MSL   +99999+99999GF105991051999012501999999KA1120N+02451MA1999999101401MD1999999-0121MW1201REMSYN004BUFR
0136830960999992016022818004-10952-037054FM-12+000599999V0200901N0026199999999002000199+03051+02191101351ADDAA101999999AZ101061AZ201061GA1021+012501081GE19MSL   +99999+99999GF102991021999012501999999MA1999999101281MD1999999-0041REMSYN004BUFR
0155830960999992016022912004-10952-037054FM-12+000599999V0200901N0021199999999002000199+02891+02201101531ADDAA124002031AY151061AY251061GA1031+012501081GE19MSL   +99999+99999GF103991031999012501999999KA1120N+02461MA1999999101461MD1999999+0061MW1211REMSYN004BUFR
0136830960999992016022918004-10952-037054FM-12+000599999V0200901N0026199999999002000199+03051+02191101271ADDAA101999999AZ101061AZ201061GA1021+012501081GE19MSL   +99999+99999GF102991021999012501999999MA1999999101201MD1999999-0081REMSYN004BUFR
0149830960999992016030112004-10952-037054FM-12+000599999V0200901N0026199999999002000199+02971+02151101631ADDAA101999999AZ101061AZ201061GA1021+012501081GE19MSL   +99999+99999GF102991021999012501999999KA1120N+02461MA1999999101561MD1999999+0101REMSYN004BUFR
0136830960999992016030118004-10952-037054FM-12+000599999V0200901N0031199999999002000199+03021+02201101521ADDAA101999999AZ101061AZ201061GA1021+012501081GE19MSL   +99999+99999GF102991021999012501999999MA1999999101451MD1999999+0251REMSYN004BUFR
0149830960999992016030212004-10952-037054FM-12+000599999V0200901N0026101250199002000199+02821+02241101441ADDAA101999999AZ101061AZ201061GA1051+012501061GE19MSL   +99999+99999GF105991051999012501999999KA1120N+02451MA1999999101371MD1999999-0191REMSYN004BUFR
0136830960999992016030218004-10952-037054FM-12+000599999V0200901N0026199999999002000199+02991+02321101191ADDAA101999999AZ101061AZ201061GA1031+012501081GE19MSL   +99999+99999GF103991031999012501999999MA1999999101121MD1999999-0331REMSYN004BUFR
0136830960999992016030300004-10952-037054FM-12+000599999V0200901N0041101250199002000199+02821+02271101331ADDAA101999999AZ101061AZ201061GA1051+012501061GE19MSL   +99999+99999GF105991051999012501999999MA1999999101261MD1999999-0121REMSYN004BUFR
0149830960999992016030312004-10952-037054FM-12+000599999V0200901N0026199999999002000199+02841+02261101401ADDAA101999999AZ101061AZ201061GA1031+012501081GE19MSL   +99999+99999GF103991031999012501999999KA1120N+02431MA1999999101331MD1999999-0041REMSYN004BUFR
0155830960999992016030318004-10952-037054FM-12+000599999V0200901N0041199999999002000199+03051+02301101151ADDAA101999999AZ101061AZ201061GA1052+012501081GE19MSL   +99999+99999GF103992052999012501999999MA1999999101081MD1999999-0041REMSYN004BUFREQDQ01 012503SCOCIG
0136830960999992016030400004-10952-037054FM-12+000599999V0200901N0041199999999002000199+02851+02251101411ADDAA101999999AZ101061AZ201061GA1031+012501061GE19MSL   +99999+99999GF103991031999012501999999MA1999999101341MD1999999+0081REMSYN004BUFR
0149830960999992016030412004-10952-037054FM-12+000599999V0200901N0041199999999002000199+02971+02351101331ADDAA101999999AZ101061AZ201061GA1021+012501081GE19MSL   +99999+99999GF102991021999012501999999KA1120N+02441MA1999999101261MD1999999-0071REMSYN004BUFR
0136830960999992016030418004-10952-037054FM-12+000599999V0200901N0041199999999002000199+03071+02321101201ADDAA101999999AZ101061AZ201061GA1021+012501081GE19MSL   +99999+99999GF102991021999012501999999MA1999999101131MD1999999+0051REMSYN004BUFR
0136830960999992016030500004-10952-037054FM-12+000599999V0200901N0041101250199002000199+02841+02281101271ADDAA101999999AZ101061AZ201061GA1051+012501061GE19MSL   +99999+99999GF105991051999012501999999MA1999999101201MD1999999-0141REMSYN004BUFR
0149830960999992016030512004-10952-037054FM-12+000599999V0200901N0031199999999002000199+02891+02301101351ADDAA101999999AZ101061AZ201061GA1031+012501081GE19MSL   +99999+99999GF103991031999012501999999KA1120N+02421MA1999999101281MD1999999+0021REMSYN004BUFR
0136830960999992016030518004-10952-037054FM-12+000599999V0200901N0041199999999002000199+03001+02291101161ADDAA101999999AZ101061AZ201061GA1021+012501081GE19MSL   +99999+99999GF102991021999012501999999MA1999999101091MD1999999-0041REMSYN004BUFR
0149830960999992016030612004-10952-037054FM-12+000599999V0200901N0051199999999002000199+02921+02261101441ADDAA101999999AZ101061AZ201061GA1021+012501081GE19MSL   +99999+99999GF102991021999012501999999KA1120N+02451MA1999999101371MD1999999+0091REMSYN004BUFR
0136830960999992016030618004-10952-037054FM-12+000599999V0200901N0026199999999002000199+03051+02301101221ADDAA101999999AZ101061AZ201061GA1021+012501081GE19MSL   +99999+99999GF102991021999012501999999MA1999999101151MD1999999+0061REMSYN004BUFR
0149830960999992016030712004-10952-037054FM-12+000599999V0200901N0026199999999002000199+02991+02441101441ADDAA101999999AZ101061AZ201061GA1021+012501081GE19MSL   +99999+99999GF102991021999012501999999KA1120N+02461MA1999999101371MD1999999+0001REMSYN004BUFR
0136830960999992016030718004-10952-037054FM-12+000599999V0200901N0015199999999002000199+03041+02331101151ADDAA101999999AZ101061AZ201061GA1021+012501081GE19MSL   +99999+99999GF102991021999012501999999MA1999999101081MD1999999-0071REMSYN004BUFR
0136830960999992016030800004-10952-037054FM-12+000599999V0200901N0026101250199002000199+02801+02241101321ADDAA101999999AZ101061AZ201061GA1051+012501061GE19MSL   +99999+99999GF105991051999012501999999MA1999999101251MD1999999+0021REMSYN004BUFR
0149830960999992016030812004-10952-037054FM-12+000599999V0200901N0026199999999002000199+02991+02171101491ADDAA101999999AZ101061AZ201061GA1031+012501081GE19MSL   +99999+99999GF103991031999012501999999KA1120N+02461MA1999999101421MD1999999+0051REMSYN004BUFR
0136830960999992016030818004-10952-037054FM-12+000599999V0200901N0026199999999002000199+03051+02191101171ADDAA101999999AZ101061AZ201061GA1021+012501081GE19MSL   +99999+99999GF102991021999012501999999MA1999999101101MD1999999+0021REMSYN004BUFR
0136830960999992016030900004-10952-037054FM-12+000599999V0200901N0026199999999002000199+02771+02181101251ADDAA101999999AZ101061AZ201061GA1021+012501081GE19MSL   +99999+99999GF102991021999012501999999MA1999999101181MD1999999-0071REMSYN004BUFR
0149830960999992016030912004-10952-037054FM-12+000599999V0200901N0026199999999002000199+02891+02101101441ADDAA101999999AZ101061AZ201061GA1031+012501081GE19MSL   +99999+99999GF103991031999012501999999KA1120N+02471MA1999999101371MD1999999-0051REMSYN004BUFR
0136830960999992016030918004-10952-037054FM-12+000599999V0200901N0026199999999002000199+03071+02211101091ADDAA101999999AZ101061AZ201061GA1021+012501081GE19MSL   +99999+99999GF102991021999012501999999MA1999999101021MD1999999-0081REMSYN004BUFR
0136830960999992016031000004-10952-037054FM-12+000599999V0200901N0026199999999002000199+02771+02161101311ADDAA101999999AZ101061AZ201061GA1021+012501081GE19MSL   +99999+99999GF102991021999012501999999MA1999999101241MD1999999+0061REMSYN004BUFR
0149830960999992016031012004-10952-037054FM-12+000599999V0200901N0026199999999002000199+02901+02071101471ADDAA101999999AZ101061AZ201061GA1021+012501081GE19MSL   +99999+99999GF102991021999012501999999KA1120N+02481MA1999999101401MD1999999+0031REMSYN004BUFR
0136830960999992016031018004-10952-037054FM-12+000599999V0200901N0026199999999002000199+03071+02241101171ADDAA101999999AZ101061AZ201061GA1021+012501081GE19MSL   +99999+99999GF102991021999012501999999MA1999999101101MD1999999+0081REMSYN004BUFR
0136830960999992016031100004-10952-037054FM-12+000599999V0200901N0026199999999002000199+02751+02161101341ADDAA101999999AZ101061AZ201061GA1021+012501081GE19MSL   +99999+99999GF102991021999012501999999MA1999999101271MD1999999+0031REMSYN004BUFR
0149830960999992016031112004-10952-037054FM-12+000599999V0200901N0026199999999002000199+02991+02171101551ADDAA101999999AZ101061AZ201061GA1021+012501081GE19MSL   +99999+99999GF102991021999012501999999KA1120N+02501MA1999999101481MD1999999+0081REMSYN004BUFR
0136830960999992016031118004-10952-037054FM-12+000599999V0200901N0026199999999002000199+03071+02211101251ADDAA101999999AZ101061AZ201061GA1021+012501081GE19MSL   +99999+99999GF102991021999012501999999MA1999999101171MD1999999+0071REMSYN004BUFR
0136830960999992016031200004-10952-037054FM-12+000599999V0200901N0026199999999002000199+02771+02231101421ADDAA101999999AZ101061AZ201061GA1021+012501081GE19MSL   +99999+99999GF102991021999012501999999MA1999999101351MD1999999+0081REMSYN004BUFR
0149830960999992016031212004-10952-037054FM-12+000599999V0200901N0026199999999020000199+02941+02141101581ADDAA101999999AZ101061AZ201061GA1031+012501081GE19MSL   +99999+99999GF103991031999012501999999KA1120N+02481MA1999999101511MD1999999+0031REMSYN004BUFR
0136830960999992016031218004-10952-037054FM-12+000599999V0200901N0005199999999002000199+03091+02231101271ADDAA101999999AZ101061AZ201061GA1021+012501081GE19MSL   +99999+99999GF102991021999012501999999MA1999999101201MD1999999+0031REMSYN004BUFR
0149830960999992016031312004-10952-037054FM-12+000599999V0200901N0026199999999002000199+02991+02151101571ADDAA101999999AZ101061AZ201061GA1021+012501081GE19MSL   +99999+99999GF102991021999012501999999KA1120N+02481MA1999999101501MD1999999-0011REMSYN004BUFR
0136830960999992016031318004-10952-037054FM-12+000599999V0200901N0026199999999002000199+03051+02191101341ADDAA101999999AZ101061AZ201061GA1021+012501081GE19MSL   +99999+99999GF102991021999012501999999MA1999999101271MD1999999+0071REMSYN004BUFR
0149830960999992016031412004-10952-037054FM-12+000599999V0200901N0041199999999002000199+03021+02331101571ADDAA101999999AZ101061AZ201061GA1031+012501081GE19MSL   +99999+99999GF103991031999012501999999KA1120N+02471MA1999999101501MD1999999+0001REMSYN004BUFR
0136830960999992016031418004-10952-037054FM-12+000599999V0200901N0031101250199002000199+03041+02381101301ADDAA101999999AZ101061AZ201061GA1051+012501081GE19MSL   +99999+99999GF105991051999012501999999MA1999999101231MD1999999-0041REMSYN004BUFR
0136830960999992016031500004-10952-037054FM-12+000599999V0200901N0015199999999002000199+02801+02241101521ADDAA101999999AZ101061AZ201061GA1031+012501061GE19MSL   +99999+99999GF103991031999012501999999MA1999999101451MD1999999-0031REMSYN004BUFR
0149830960999992016031512004-10952-037054FM-12+000599999V0200901N0041199999999002000199+02971+02351101571ADDAA101999999AZ101061AZ201061GA1031+012501081GE19MSL   +99999+99999GF103991031999012501999999KA1120N+02481MA1999999101501MD1999999+0001REMSYN004BUFR
0136830960999992016031518004-10952-037054FM-12+000599999V0200901N0031199999999002000199+03121+02301101311ADDAA101999999AZ101061AZ201061GA1021+012501081GE19MSL   +99999+99999GF102991021999012501999999MA1999999101241MD1999999+0011REMSYN004BUFR
0136830960999992016031600004-10952-037054FM-12+000599999V0200901N0031199999999002000199+02771+02251101521ADDAA101999999AZ101061AZ201061GA1031+012501061GE19MSL   +99999+99999GF103991031999012501999999MA1999999101451MD1999999+0001REMSYN004BUFR
0187830960999992016031612004-10952-037054FM-12+000599999V0200901N0026100600199002000199+02501+02471101691ADDAA124009031AY161061AY261061GA1081+006001061GA2999+999999101GA3999+999999101GE19MSL   +99999+99999GF108991081999006001999999KA1120N+02371MA1999999101621MD1999999+0121MW1631REMSYN004BUFR
0142830960999992016031618004-10952-037054FM-12+000599999V0200901N0031101250199002000199+02921+02361101371ADDAA106005031AY161061AY261061GA1051+012501081GE19MSL   +99999+99999GF105991051999012501999999MA1999999101301MD1999999+0061MW1161REMSYN004BUFR
0136830960999992016031700004-10952-037054FM-12+000599999V0200901N0026199999999002000199+02791+02251101511ADDAA101999999AZ101061AZ201061GA1021+012501061GE19MSL   +99999+99999GF102991021999012501999999MA1999999101441MD1999999-0011REMSYN004BUFR
0149830960999992016031712004-10952-037054FM-12+000599999V0200501N0026199999999002000199+02891+02391101601ADDAA124005031AZ101061AZ201061GA1021+012501081GE19MSL   +99999+99999GF102991021999012501999999KA1120N+02441MA1999999101531MD1999999-0091REMSYN004BUFR
0142830960999992016031718004-10952-037054FM-12+000599999V0201401N0015101250199002000199+02721+02341101341ADDAA106001031AY161061AY261061GA1061+012501061GE19MSL   +99999+99999GF106991061999012501999999MA1999999101271MD1999999-0031MW1161REMSYN004BUFR
0136830960999992016031800004-10952-037054FM-12+000599999V0200501N0010101250199002000199+02641+02311101591ADDAA101999999AZ101061AZ201061GA1061+012501061GE19MSL   +99999+99999GF106991061999012501999999MA1999999101521MD1999999+0081REMSYN004BUFR
0155830960999992016031812004-10952-037054FM-12+000599999V0200901N0010101250199002000199+02841+02291101591ADDAA124001031AY161061AY261061GA1051+012501061GE19MSL   +99999+99999GF105991051999012501999999KA1120N+02401MA1999999101521MD1999999-0011MW1161REMSYN004BUFR
0136830960999992016031818004-10952-037054FM-12+000599999V0200901N0026199999999002000199+02901+02271101361ADDAA101999999AZ101061AZ201061GA1031+012501081GE19MSL   +99999+99999GF103991031999012501999999MA1999999101291MD1999999+0011REMSYN004BUFR
0136830960999992016031900004-10952-037054FM-12+000599999V0200901N0015199999999002000199+02791+02251101411ADDAA101999999AZ101061AZ201061GA1031+012501061GE19MSL   +99999+99999GF103991031999012501999999MA1999999101341MD1999999-0281REMSYN004BUFR
0149830960999992016031912004-10952-037054FM-12+000599999V0200901N0026101250199002000199+02891+02481101511ADDAA101999999AZ101061AZ201061GA1051+012501081GE19MSL   +99999+99999GF105991051999012501999999KA1120N+02421MA1999999101441MD1999999-0081REMSYN004BUFR
0136830960999992016031918004-10952-037054FM-12+000599999V0200901N0031199999999002000199+03071+02321101291ADDAA101999999AZ101061AZ201061GA1031+012501081GE19MSL   +99999+99999GF103991031999012501999999MA1999999101221MD1999999-0071REMSYN004BUFR
0149830960999992016032012004-10952-037054FM-12+000599999V0200901N0015199999999002000199+03021+02331101431ADDAA101999999AZ101061AZ201061GA1021+012501081GE19MSL   +99999+99999GF102991021999012501999999KA1120N+02431MA1999999101361MD1999999-0081REMSYN004BUFR
0136830960999992016032018004-10952-037054FM-12+000599999V0200901N0015101250199002000199+02801+02421101211ADDAA101999999AZ101061AZ201061GA1061+012501081GE19MSL   +99999+99999GF106991061999012501999999MA1999999101141MD1999999-0081REMSYN004BUFR
0149830960999992016032112004-10952-037054FM-12+000599999V0200901N0015199999999002000199+02691+02131101581ADDAA101999999AZ101061AZ201061GA1041+012501061GE19MSL   +99999+99999GF104991041999012501999999KA1120N+02381MA1999999101511MD1999999+0151REMSYN004BUFR
0136830960999992016032118004-10952-037054FM-12+000599999V0200901N0026199999999002000199+03051+02191101271ADDAA101999999AZ101061AZ201061GA1021+012501081GE19MSL   +99999+99999GF102991021999012501999999MA1999999101201MD1999999+0061REMSYN004BUFR
0136830960999992016032200004-10952-037054FM-12+000599999V0200901N0026199999999002000199+02771+02181101421ADDAA101999999AZ101061AZ201061GA1021+012501081GE19MSL   +99999+99999GF102991021999012501999999MA1999999101351MD1999999+0031REMSYN004BUFR
0149830960999992016032212004-10952-037054FM-12+000599999V0200901N0026199999999002000199+02921+02121101591ADDAA101999999AZ101061AZ201061GA1031+012501081GE19MSL   +99999+99999GF103991031999012501999999KA1120N+02471MA1999999101521MD1999999+0011REMSYN004BUFR
0136830960999992016032218004-10952-037054FM-12+000599999V0200901N0026199999999002000199+03071+02211101291ADDAA101999999AZ101061AZ201061GA1021+012501081GE19MSL   +99999+99999GF102991021999012501999999MA1999999101221MD1999999+0021REMSYN004BUFR
0136830960999992016032318004-10952-037054FM-12+000599999V0200901N0026199999999002000199+02941+02111101171ADDAA101999999AZ101061AZ201061GA1021+012501081GE19MSL   +99999+99999GF102991021999012501999999MA1999999101101MD1999999-0121REMSYN004BUFR
0155830960999992016032412004-10952-037054FM-12+000599999V0200901N0021199999999002000199+02841+02121101521ADDAA124000231AY151061AY251061GA1031+012501081GE19MSL   +99999+99999GF103991031999012501999999KA1120N+02461MA1999999101451MD1999999-0011MW1201REMSYN004BUFR
0136830960999992016032418004-10952-037054FM-12+000599999V0200901N0026199999999002000199+03071+02211101211ADDAA101999999AZ101061AZ201061GA1021+012501081GE19MSL   +99999+99999GF102991021999012501999999MA1999999101141MD1999999+0041REMSYN004BUFR
0149830960999992016032512004-10952-037054FM-12+000599999V0200901N0026199999999002000199+02991+02151101511ADDAA101999999AZ101061AZ201061GA1021+012501081GE19MSL   +99999+99999GF102991021999012501999999KA1120N+02481MA1999999101441MD1999999-0011REMSYN004BUFR
0136830960999992016032518004-10952-037054FM-12+000599999V0200901N0026199999999002000199+03071+02211101271ADDAA101999999AZ101061AZ201061GA1021+012501081GE19MSL   +99999+99999GF102991021999012501999999MA1999999101201MD1999999+0061REMSYN004BUFR
0149830960999992016032612004-10952-037054FM-12+000599999V0200901N0021199999999002000199+02941+02141101611ADDAA101999999AZ101061AZ201061GA1031+012501081GE19MSL   +99999+99999GF103991031999012501999999KA1120N+02471MA1999999101541MD1999999+0101REMSYN004BUFR
0136830960999992016032618004-10952-037054FM-12+000599999V0200901N0026199999999002000199+03051+02211101321ADDAA101999999AZ101061AZ201061GA1021+012501081GE19MSL   +99999+99999GF102991021999012501999999MA1999999101251MD1999999+0051REMSYN004BUFR
0155830960999992016032712004-10952-037054FM-12+000599999V0200901N0026199999999002000199+02791+02041101621ADDAA124001031AY151061AY251061GA1031+012501081GE19MSL   +99999+99999GF103991031999012501999999KA1120N+02421MA1999999101551MD1999999+0011MW1201REMSYN004BUFR
0136830960999992016032718004-10952-037054FM-12+000599999V0200901N0026199999999002000199+03071+02211101271ADDAA101999999AZ101061AZ201061GA1021+012501081GE19MSL   +99999+99999GF102991021999012501999999MA1999999101201MD1999999-0051REMSYN004BUFR
0149830960999992016032812004-10952-037054FM-12+000599999V0200901N0015199999999002000199+02941+02351101451ADDAA124000231AZ101061AZ201061GA1031+012501081GE19MSL   +99999+99999GF103991031999012501999999KA1120N+02421MA1999999101381MD1999999-0171REMSYN004BUFR
0136830960999992016032818004-10952-037054FM-12+000599999V0200901N0015199999999002000199+03051+02331101161ADDAA101999999AZ101061AZ201061GA1021+012501081GE19MSL   +99999+99999GF102991021999012501999999MA1999999101091MD1999999-0111REMSYN004BUFR
0155830960999992016032912004-10952-037054FM-12+000599999V0200901N0031101250199002000199+02821+02441101551ADDAA124004031AY161061AY261061GA1061+012501061GE19MSL   +99999+99999GF106991061999012501999999KA1120N+02391MA1999999101481MD1999999+0101MW1161REMSYN004BUFR
0142830960999992016032918004-10952-037054FM-12+000599999V0200901N0031101250199002000199+02671+02521101311ADDAA106001031AY161061AY261061GA1061+012501061GE19MSL   +99999+99999GF106991061999012501999999MA1999999101241MD1999999+0151MW1161REMSYN004BUFR
0155830960999992016033012004-10952-037054FM-12+000599999V0200901N0015199999999002000199+02971+02351101711ADDAA124006031AY161061AY261061GA1031+012501081GE19MSL   +99999+99999GF103991031999012501999999KA1120N+02451MA1999999101641MD1999999+0161MW1161REMSYN004BUFR
0136830960999992016033018004-10952-037054FM-12+000599999V0200901N0015199999999002000199+02941+02401101431ADDAA101999999AZ101061AZ201061GA1031+012501081GE19MSL   +99999+99999GF103991031999012501999999MA1999999101361MD1999999+0121REMSYN004BUFR
0149830960999992016033112004-10952-037054FM-12+000599999V0200901N0031101250199002000199+02901+02411101751ADDAA101999999AZ101061AZ201061GA1051+012501081GE19MSL   +99999+99999GF105991051999012501999999KA1120N+02421MA1999999101681MD1999999+0041REMSYN004BUFR
0136830960999992016033118004-10952-037054FM-12+000599999V0200901N0026199999999002000199+02941+02421101421ADDAA101999999AZ101061AZ201061GA1031+012501081GE19MSL   +99999+99999GF103991031999012501999999MA1999999101351MD1999999-0011REMSYN004BUFR
0155830960999992016040112004-10952-037054FM-12+000599999V0200901N0021199999999002000199+02701+01941101611ADDAA124000231AY151061AY251061GA1031+012501081GE19MSL   +99999+99999GF103991031999012501999999KA1120N+02431MA1999999101541MD1999999-0141MW1201REMSYN004BUFR
0136830960999992016040118004-10952-037054FM-12+000599999V0200901N0026101250199002000199+02891+02221101461ADDAA101999999AZ101061AZ201061GA1061+012501081GE19MSL   +99999+99999GF106991061999012501999999MA1999999101391MD1999999+0041REMSYN004BUFR
0136830960999992016040200004-10952-037054FM-12+000599999V0200901N0015199999999002000199+02701+02221101331ADDAA101999999AZ101061AZ201061GA1021+012501061GE19MSL   +99999+99999GF102991021999012501999999MA1999999101261MD1999999-0261REMSYN004BUFR
0149830960999992016040212004-10952-037054FM-12+000599999V0200901N0026199999999002000199+03001+02311101331ADDAA101999999AZ101061AZ201061GA1021+012501081GE19MSL   +99999+99999GF102991021999012501999999KA1120N+02451MA1999999101261MD1999999-0281REMSYN004BUFR
0136830960999992016040218004-10952-037054FM-12+000599999V0200901N0031199999999002000199+03041+02331101251ADDAA101999999AZ101061AZ201061GA1031+012501081GE19MSL   +99999+99999GF103991031999012501999999MA1999999101181MD1999999-0211REMSYN004BUFR
0181830960999992016040312004-10952-037054FM-12+000599999V0200901N0031101250199002000199+02741+02321101391ADDAA101999999AZ101061AZ201061GA1081+012501061GA2999+999999101GA3999+999999101GE19MSL   +99999+99999GF108991081999012501999999KA1120N+02411MA1999999101321MD1999999+0061REMSYN004BUFR
0136830960999992016040318004-10952-037054FM-12+000599999V0200901N0015199999999002000199+02991+02271101211ADDAA101999999AZ101061AZ201061GA1021+012501081GE19MSL   +99999+99999GF102991021999012501999999MA1999999101141MD1999999-0041REMSYN004BUFR
0149830960999992016040412004-10952-037054FM-12+000599999V0200901N0021199999999002000199+02991+02141101621ADDAA101999999AZ101061AZ201061GA1031+012501081GE19MSL   +99999+99999GF103991031999012501999999KA1120N+02431MA1999999101571MD1999999+0251REMSYN004BUFR
0136830960999992016040418004-10952-037054FM-12+000599999V0200901N0021101250199002000199+02691+02171101411ADDAA101999999AZ101061AZ201061GA1051+012501061GE19MSL   +99999+99999GF105991051999012501999999MA1999999101341MD1999999+0201REMSYN004BUFR
0142830960999992016040500004-10952-037054FM-12+000599999V0201401N0026101250199002000199+02521+02271101631ADDAA106001031AY151061AY251061GA1061+012501061GE19MSL   +99999+99999GF106991061999012501999999MA1999999101561MD1999999+0221MW1201REMSYN004BUFR
0155830960999992016040512004-10952-037054FM-12+000599999V0201401N0021101250199002000199+02621+02251101631ADDAA124017031AY161061AY261061GA1061+012501061GE19MSL   +99999+99999GF106991061999012501999999KA1120N+02281MA1999999101561MD1999999-0011MW1211REMSYN004BUFR
0142830960999992016040518004-10952-037054FM-12+000599999V0200901N0026199999999002000199+03041+02231101371ADDAA106003031AY161061AY261061GA1041+012501081GE19MSL   +99999+99999GF104991041999012501999999MA1999999101301MD1999999-0041MW1211REMSYN004BUFR
0136830960999992016040600004-10952-037054FM-12+000599999V0200901N0026199999999002000199+02721+02221101541ADDAA101999999AZ101061AZ201061GA1041+012501061GE19MSL   +99999+99999GF104991041999012501999999MA1999999101471MD1999999-0091REMSYN004BUFR
0155830960999992016040612004-10952-037054FM-12+000599999V0200901N0026199999999002000199+02971+02171101521ADDAA124005031AY161061AY261061GA1031+012501081GE19MSL   +99999+99999GF103991031999012501999999KA1120N+02411MA1999999101451MD1999999-0111MW1211REMSYN004BUFR
0136830960999992016040700004-10952-037054FM-12+000599999V0200901N0031199999999002000199+02751+02211101441ADDAA101999999AZ101061AZ201061GA1021+012501081GE19MSL   +99999+99999GF102991021999012501999999MA1999999101371MD1999999-0101REMSYN004BUFR
0149830960999992016040712004-10952-037054FM-12+000599999V0200901N0026199999999002000199+02891+02081101471ADDAA101999999AZ101061AZ201061GA1031+012501081GE19MSL   +99999+99999GF103991031999012501999999KA1120N+02471MA1999999101401MD1999999-0051REMSYN004BUFR
0136830960999992016040718004-10952-037054FM-12+000599999V0200901N0026199999999002000199+03041+02201101091ADDAA101999999AZ101061AZ201061GA1021+012501081GE19MSL   +99999+99999GF102991021999012501999999MA1999999101021MD1999999-0061REMSYN004BUFR
0136830960999992016040800004-10952-037054FM-12+000599999V0200901N0026199999999002000199+02771+02251101341ADDAA101999999AZ101061AZ201061GA1021+012501081GE19MSL   +99999+99999GF102991021999012501999999MA1999999101271MD1999999-0101REMSYN004BUFR
0149830960999992016040812004-10952-037054FM-12+000599999V0200901N0026199999999002000199+02991+02151101481ADDAA101999999AZ101061AZ201061GA1021+012501081GE19MSL   +99999+99999GF102991021999012501999999KA1120N+02481MA1999999101411MD1999999+0011REMSYN004BUFR
0136830960999992016040818004-10952-037054FM-12+000599999V0200901N0026199999999002000199+03041+02181101051ADDAA101999999AZ101061AZ201061GA1021+012501081GE19MSL   +99999+99999GF102991021999012501999999MA1999999100981MD1999999-0041REMSYN004BUFR
0136830960999992016040900004-10952-037054FM-12+000599999V0200901N0026199999999002000199+02751+02191101241ADDAA101999999AZ101061AZ201061GA1021+012501081GE19MSL   +99999+99999GF102991021999012501999999MA1999999101171MD1999999-0101REMSYN004BUFR
0149830960999992016040912004-10952-037054FM-12+000599999V0200901N0031199999999002000199+02951+02281101411ADDAA101999999AZ101061AZ201061GA1031+012501081GE19MSL   +99999+99999GF103991031999012501999999KA1120N+02441MA1999999101341MD1999999-0071REMSYN004BUFR
0136830960999992016040918004-10952-037054FM-12+000599999V0200901N0041199999999002000199+02991+02291101121ADDAA101999999AZ101061AZ201061GA1021+012501081GE19MSL   +99999+99999GF102991021999012501999999MA1999999101051MD1999999+0071REMSYN004BUFR
0149830960999992016041012004-10952-037054FM-12+000599999V0200901N0031199999999002000199+03021+02311101331ADDAA101999999AZ101061AZ201061GA1031+012501081GE19MSL   +99999+99999GF103991031999012501999999KA1120N+02501MA1999999101261MD1999999-0081REMSYN004BUFR
0136830960999992016041018004-10952-037054FM-12+000599999V0200901N0041199999999002000199+02921+02361101091ADDAA101999999AZ101061AZ201061GA1031+012501081GE19MSL   +99999+99999GF103991031999012501999999MA1999999101021MD1999999-0031REMSYN004BUFR
0155830960999992016041112004-10952-037054FM-12+000599999V0200901N0026101250199002000199+02771+02421101371ADDAA124004031AY161061AY261061GA1051+012501061GE19MSL   +99999+99999GF105991051999012501999999KA1120N+02421MA1999999101301MD1999999+0041MW1161REMSYN004BUFR
0136830960999992016041118004-10952-037054FM-12+000599999V0200501N0041199999999002000199+02941+02401101271ADDAA101999999AZ101061AZ201061GA1031+012501081GE19MSL   +99999+99999GF103991031999012501999999MA1999999101201MD1999999+0181REMSYN004BUFR
0136830960999992016041200004-10952-037054FM-12+000599999V0200501N0031199999999002000199+02791+02251101341ADDAA101999999AZ101061AZ201061GA1021+012501061GE19MSL   +99999+99999GF102991021999012501999999MA1999999101271MD1999999+0211REMSYN004BUFR
0155830960999992016041212004-10952-037054FM-12+000599999V0200901N0031199999999002000199+02801+02241101451ADDAA124001031AY161061AY261061GA1031+012501061GE19MSL   +99999+99999GF103991031999012501999999KA1120N+02441MA1999999101381MD1999999+0081MW1161REMSYN004BUFR
0136830960999992016041218004-10952-037054FM-12+000599999V0200901N0026199999999002000199+02941+02261101291ADDAA101999999AZ101061AZ201061GA1021+012501081GE19MSL   +99999+99999GF102991021999012501999999MA1999999101221MD1999999+0021REMSYN004BUFR
0136830960999992016041300004-10952-037054FM-12+000599999V0200901N0031199999999002000199+02771+02271101391ADDAA101999999AZ101061AZ201061GA1021+012501061GE19MSL   +99999+99999GF102991021999012501999999MA1999999101321MD1999999+0051REMSYN004BUFR
0149830960999992016041312004-10952-037054FM-12+000599999V0201801N0010101250199002000199+02871+02251101451ADDAA101999999AZ101061AZ201061GA1051+012501081GE19MSL   +99999+99999GF105991051999012501999999KA1120N+02471MA1999999101381MD1999999+0001REMSYN004BUFR
0136830960999992016041318004-10952-037054FM-12+000599999V0201801N0026199999999002000199+03001+02291101221ADDAA101999999AZ101061AZ201061GA1021+012501081GE19MSL   +99999+99999GF102991021999012501999999MA1999999101151MD1999999-0071REMSYN004BUFR
0136830960999992016041400004-10952-037054FM-12+000599999V0200901N0026101250199002000199+02741+02321101431ADDAA101999999AZ101061AZ201061GA1061+012501061GE19MSL   +99999+99999GF106991061999012501999999MA1999999101361MD1999999+0041REMSYN004BUFR
0155830960999992016041412004-10952-037054FM-12+000599999V0200901N0041199999999002000199+02991+02291101491ADDAA124006031AY161061AY261061GA1021+012501081GE19MSL   +99999+99999GF102991021999012501999999KA1120N+02421MA1999999101421MD1999999+0041MW1161REMSYN004BUFR
0136830960999992016041418004-10952-037054FM-12+000599999V0200901N0026199999999002000199+03091+02341101241ADDAA101999999AZ101061AZ201061GA1021+012501081GE19MSL   +99999+99999GF102991021999012501999999MA1999999101171MD1999999+0021REMSYN004BUFR
0136830960999992016041500004-10952-037054FM-12+000599999V0200901N0026101250199002000199+02791+02271101591ADDAA101999999AZ101061AZ201061GA1051+012501061GE19MSL   +99999+99999GF105991051999012501999999MA1999999101521MD1999999+0161REMSYN004BUFR
0149830960999992016041512004-10952-037054FM-12+000599999V0200901N0041199999999002000199+02971+02351101541ADDAA101999999AZ101061AZ201061GA1021+012501081GE19MSL   +99999+99999GF102991021999012501999999KA1120N+02461MA1999999101471MD1999999+0051REMSYN004BUFR
0136830960999992016041518004-10952-037054FM-12+000599999V0200901N0026199999999002000199+03051+02351101311ADDAA101999999AZ101061AZ201061GA1021+012501081GE19MSL   +99999+99999GF102991021999012501999999MA1999999101241MD1999999+0071REMSYN004BUFR
0136830960999992016041600004-10952-037054FM-12+000599999V0200901N0026199999999002000199+02801+02271101411ADDAA101999999AZ101061AZ201061GA1021+012501061GE19MSL   +99999+99999GF102991021999012501999999MA1999999101341MD1999999+0181REMSYN004BUFR
0149830960999992016041612004-10952-037054FM-12+000599999V0200901N0026199999999002000199+02891+02071101671ADDAA101999999AZ101061AZ201061GA1031+012501081GE19MSL   +99999+99999GF103991031999012501999999KA1120N+02431MA1999999101601MD1999999+0131REMSYN004BUFR
0136830960999992016041618004-10952-037054FM-12+000599999V0200901N0026199999999002000199+02951+02101101361ADDAA101999999AZ101061AZ201061GA1021+012501081GE19MSL   +99999+99999GF102991021999012501999999MA1999999101291MD1999999+0051REMSYN004BUFR
0149830960999992016041712004-10952-037054FM-12+000599999V0200901N0026199999999002000199+02921+02141101691ADDAA101999999AZ101061AZ201061GA1031+012501081GE19MSL   +99999+99999GF103991031999012501999999KA1120N+02451MA1999999101621MD1999999+0021REMSYN004BUFR
0142830960999992016041718004-10952-037054FM-12+000599999V0200901N0026101250199002000199+02941+02521101501ADDAA106002031AY151061AY251061GA1051+012501061GE19MSL   +99999+99999GF105991051999012501999999MA1999999101431MD1999999+0141MW1211REMSYN004BUFR
0155830960999992016041812004-10952-037054FM-12+000599999V0200901N0031199999999002000199+02901+02071101711ADDAA124005031AY161061AY261061GA1031+012501081GE19MSL   +99999+99999GF103991031999012501999999KA1120N+02431MA1999999101641MD1999999+0021MW1211REMSYN004BUFR
0136830960999992016041818004-10952-037054FM-12+000599999V0200901N0026199999999002000199+02951+02101101471ADDAA101999999AZ101061AZ201061GA1021+012501081GE19MSL   +99999+99999GF102991021999012501999999MA1999999101401MD1999999-0031REMSYN004BUFR
0136830960999992016041900004-10952-037054FM-12+000599999V0200901N0026199999999002000199+02751+02211101691ADDAA101999999AZ101061AZ201061GA1041+012501061GE19MSL   +99999+99999GF104991041999012501999999MA1999999101621MD1999999+0021REMSYN004BUFR
0149830960999992016041912004-10952-037054FM-12+000599999V0200901N0026199999999002000199+02901+02071101631ADDAA101999999AZ101061AZ201061GA1021+012501081GE19MSL   +99999+99999GF102991021999012501999999KA1120N+02471MA1999999101561MD1999999-0081REMSYN004BUFR
0136830960999992016041918004-10952-037054FM-12+000599999V0200901N0026199999999002000199+02971+02121101361ADDAA101999999AZ101061AZ201061GA1021+012501081GE19MSL   +99999+99999GF102991021999012501999999MA1999999101291MD1999999-0111REMSYN004BUFR
0136830960999992016042000004-10952-037054FM-12+000599999V0200901N0026199999999002000199+02741+02141101631ADDAA101999999AZ101061AZ201061GA1021+012501081GE19MSL   +99999+99999GF102991021999012501999999MA1999999101561MD1999999-0061REMSYN004BUFR
0149830960999992016042012004-10952-037054FM-12+000599999V0200901N0026199999999002000199+02971+02121101621ADDAA101999999AZ101061AZ201061GA1021+012501081GE19MSL   +99999+99999GF102991021999012501999999KA1120N+02481MA1999999101551MD1999999-0011REMSYN004BUFR
0136830960999992016042018004-10952-037054FM-12+000599999V0200901N0026199999999002000199+02971+02121101431ADDAA101999999AZ101061AZ201061GA1021+012501081GE19MSL   +99999+99999GF102991021999012501999999MA1999999101361MD1999999+0071REMSYN004BUFR
0136830960999992016042100004-10952-037054FM-12+000599999V0200901N0026199999999002000199+02741+02121101531ADDAA101999999AZ101061AZ201061GA1021+012501081GE19MSL   +99999+99999GF102991021999012501999999MA1999999101461MD1999999-0101REMSYN004BUFR
0149830960999992016042112004-10952-037054FM-12+000599999V0200901N0026199999999002000199+02941+02081101551ADDAA101999999AZ101061AZ201061GA1021+012501081GE19MSL   +99999+99999GF102991021999012501999999KA1120N+02481MA1999999101481MD1999999-0071REMSYN004BUFR
0136830960999992016042118004-10952-037054FM-12+000599999V0200901N0026199999999002000199+02951+02101101291ADDAA101999999AZ101061AZ201061GA1021+012501081GE19MSL   +99999+99999GF102991021999012501999999MA1999999101221MD1999999-0141REMSYN004BUFR
0149830960999992016042212004-10952-037054FM-12+000599999V0200901N0026199999999002000199+02891+02071101621ADDAA101999999AZ101061AZ201061GA1021+012501081GE19MSL   +99999+99999GF102991021999012501999999KA1120N+02481MA1999999101551MD1999999+0071REMSYN004BUFR
0136830960999992016042218004-10952-037054FM-12+000599999V0200901N0026199999999002000199+03041+02181101371ADDAA101999999AZ101061AZ201061GA1021+012501081GE19MSL   +99999+99999GF102991021999012501999999MA1999999101301MD1999999+0081REMSYN004BUFR
0136830960999992016042300004-10952-037054FM-12+000599999V0200901N0026199999999002000199+02741+02141101571ADDAA101999999AZ101061AZ201061GA1021+012501081GE19MSL   +99999+99999GF102991021999012501999999MA1999999101501MD1999999+0021REMSYN004BUFR
0149830960999992016042312004-10952-037054FM-12+000599999V0200901N0026199999999002000199+02891+02071101631ADDAA101999999AZ101061AZ201061GA1021+012501081GE19MSL   +99999+99999GF102991021999012501999999KA1120N+02481MA1999999101561MD1999999+0011REMSYN004BUFR
0136830960999992016042318004-10952-037054FM-12+000599999V0200901N0026199999999002000199+03041+02181101271ADDAA101999999AZ101061AZ201061GA1021+012501081GE19MSL   +99999+99999GF102991021999012501999999MA1999999101201MD1999999-0101REMSYN004BUFR
0149830960999992016042412004-10952-037054FM-12+000599999V0200901N0026199999999002000199+02901+02101101491ADDAA101999999AZ101061AZ201061GA1031+012501081GE19MSL   +99999+99999GF103991031999012501999999KA1120N+02501MA1999999101421MD1999999-0141REMSYN004BUFR
0136830960999992016042418004-10952-037054FM-12+000599999V0200901N0026199999999002000199+03071+02271101171ADDAA101999999AZ101061AZ201061GA1021+012501081GE19MSL   +99999+99999GF102991021999012501999999MA1999999101101MD1999999-0101REMSYN004BUFR
0149830960999992016042512004-10952-037054FM-12+000599999V0200901N0031101250199002000199+02901+02361101381ADDAA101999999AZ101061AZ201061GA1061+012501081GE19MSL   +99999+99999GF106991061999012501999999KA1120N+02471MA1999999101311MD1999999-0111REMSYN004BUFR
0136830960999992016042518004-10952-037054FM-12+000599999V0200901N0015199999999002000199+02941+02381101021ADDAA101999999AZ101061AZ201061GA1031+012501081GE19MSL   +99999+99999GF103991031999012501999999MA1999999100951MD1999999-0051REMSYN004BUFR
0136830960999992016042600004-10952-037054FM-12+000599999V0200901N0026199999999002000199+02741+02281101231ADDAA101999999AZ101061AZ201061GA1031+012501061GE19MSL   +99999+99999GF103991031999012501999999MA1999999101161MD1999999-0091REMSYN004BUFR
0149830960999992016042612004-10952-037054FM-12+000599999V0200901N0015199999999002000199+02941+02331101431ADDAA101999999AZ101061AZ201061GA1021+012501081GE19MSL   +99999+99999GF102991021999012501999999KA1120N+02451MA1999999101361MD1999999+0051REMSYN004BUFR
0136830960999992016042618004-10952-037054FM-12+000599999V0200901N0031199999999002000199+02921+02381101121ADDAA101999999AZ101061AZ201061GA1021+012501081GE19MSL   +99999+99999GF102991021999012501999999MA1999999101051MD1999999+0101REMSYN004BUFR
0136830960999992016042700004-10952-037054FM-12+000599999V0200901N0031199999999002000199+02771+02251101251ADDAA101999999AZ101061AZ201061GA1021+012501061GE19MSL   +99999+99999GF102991021999012501999999MA1999999101181MD1999999+0021REMSYN004BUFR
0149830960999992016042712004-10952-037054FM-12+000599999V0200901N0031199999999002000199+02991+02291101531ADDAA101999999AZ101061AZ201061GA1031+012501081GE19MSL   +99999+99999GF103991031999012501999999KA1120N+02471MA1999999101461MD1999999+0101REMSYN004BUFR
0136830960999992016042718004-10952-037054FM-12+000599999V0200901N0041199999999002000199+03001+02341101221ADDAA101999999AZ101061AZ201061GA1021+012501081GE19MSL   +99999+99999GF102991021999012501999999MA1999999101151MD1999999+0101REMSYN004BUFR
0136830960999992016042800004-10952-037054FM-12+000599999V0200901N0041101250199002000199+02791+02251101331ADDAA101999999AZ101061AZ201061GA1051+012501061GE19MSL   +99999+99999GF105991051999012501999999MA1999999101261MD1999999+0081REMSYN004BUFR
0149830960999992016042812004-10952-037054FM-12+000599999V0200901N0041199999999002000199+02971+02351101441ADDAA101999999AZ101061AZ201061GA1041+012501061GE19MSL   +99999+99999GF104991041999012501999999KA1120N+02441MA1999999101371MD1999999-0091REMSYN004BUFR
0136830960999992016042818004-10952-037054FM-12+000599999V0200901N0051199999999002000199+02971+02351101181ADDAA101999999AZ101061AZ201061GA1021+012501081GE19MSL   +99999+99999GF102991021999012501999999MA1999999101111MD1999999-0041REMSYN004BUFR
0136830960999992016042900004-10952-037054FM-12+000599999V0200901N0031199999999002000199+02771+02271101331ADDAA101999999AZ101061AZ201061GA1011+012501061GE19MSL   +99999+99999GF101991011999012501999999MA1999999101261MD1999999+0001REMSYN004BUFR
0149830960999992016042912004-10952-037054FM-12+000599999V0200901N0031101250199002000199+02921+02361101431ADDAA101999999AZ101061AZ201061GA1051+012501061GE19MSL   +99999+99999GF105991051999012501999999KA1120N+02461MA1999999101361MD1999999-0011REMSYN004BUFR
0136830960999992016042918004-10952-037054FM-12+000599999V0200901N0041101250199002000199+02901+02321101151ADDAA101999999AZ101061AZ201061GA1061+012501061GE19MSL   +99999+99999GF106991061999012501999999MA1999999101081MD1999999-0031REMSYN004BUFR
0136830960999992016043000004-10952-037054FM-12+000599999V0200901N0041199999999002000199+02771+02271101331ADDAA101999999AZ101061AZ201061GA1021+012501061GE19MSL   +99999+99999GF102991021999012501999999MA1999999101261MD1999999+0001REMSYN004BUFR
0149830960999992016043012004-10952-037054FM-12+000599999V0200901N0031199999999002000199+02921+02111101441ADDAA101999999AZ101061AZ201061GA1021+012501081GE19MSL   +99999+99999GF102991021999012501999999KA1120N+02451MA1999999101371MD1999999+0011REMSYN004BUFR
0136830960999992016043018004-10952-037054FM-12+000599999V0200901N0041199999999002000199+02891+02341101171ADDAA101999999AZ101061AZ201061GA1031+012501081GE19MSL   +99999+99999GF103991031999012501999999MA1999999101101MD1999999+0021REMSYN004BUFR
0149830960999992016050112004-10952-037054FM-12+000599999V0200901N0026199999999002000199+02871+02151101511ADDAA101999999AZ101061AZ201061GA1021+012501081GE19MSL   +99999+99999GF102991021999012501999999KA1120N+02411MA1999999101441MD1999999+0071REMSYN004BUFR
0136830960999992016050118004-10952-037054FM-12+000599999V0200901N0031199999999002000199+03021+02281101271ADDAA101999999AZ101061AZ201061GA1031+012501081GE19MSL   +99999+99999GF103991031999012501999999MA1999999101201MD1999999+0101REMSYN004BUFR
0149830960999992016050212004-10952-037054FM-12+000599999V0200901N0021199999999002000199+02791+02151101561ADDAA101999999AZ101061AZ201061GA1041+012501081GE19MSL   +99999+99999GF104991041999012501999999KA1120N+02411MA1999999101491MD1999999+0051REMSYN004BUFR
0136830960999992016050218004-10952-037054FM-12+000599999V0200901N0026199999999002000199+03051+02191101311ADDAA101999999AZ101061AZ201061GA1041+012501081GE19MSL   +99999+99999GF104991041999012501999999MA1999999101241MD1999999+0041REMSYN004BUFR
0155830960999992016050312004-10952-037054FM-12+000599999V0200901N0026199999999002000199+02921+02061101651ADDAA124000631AY151061AY251061GA1021+012501081GE19MSL   +99999+99999GF102991021999012501999999KA1120N+02481MA1999999101581MD1999999+0091MW1201REMSYN004BUFR
0136830960999992016050318004-10952-037054FM-12+000599999V0200901N0026199999999002000199+02951+02151101351ADDAA101999999AZ101061AZ201061GA1041+012501081GE19MSL   +99999+99999GF104991041999012501999999MA1999999101281MD1999999+0041REMSYN004BUFR
0136830960999992016050400004-10952-037054FM-12+000599999V0200901N0026199999999002000199+02741+02191101631ADDAA101999999AZ101061AZ201061GA1041+012501081GE19MSL   +99999+99999GF104991041999012501999999MA1999999101561MD1999999+0181REMSYN004BUFR
0149830960999992016050412004-10952-037054FM-12+000599999V0200901N0026199999999002000199+02871+02011101661ADDAA101999999AZ101061AZ201061GA1041+012501081GE19MSL   +99999+99999GF104991041999012501999999KA1120N+02451MA1999999101591MD1999999+0011REMSYN004BUFR
0136830960999992016050418004-10952-037054FM-12+000599999V0200901N0026199999999002000199+03051+02191101381ADDAA101999999AZ101061AZ201061GA1021+012501081GE19MSL   +99999+99999GF102991021999012501999999MA1999999101311MD1999999+0031REMSYN004BUFR
0149830960999992016050512004-10952-037054FM-12+000599999V0200901N0026199999999002000199+02921+02091101721ADDAA101999999AZ101061AZ201061GA1031+012501081GE19MSL   +99999+99999GF103991031999012501999999KA1120N+02481MA1999999101651MD1999999+0061REMSYN004BUFR
0136830960999992016050518004-10952-037054FM-12+000599999V0200901N0026199999999002000199+02991+02141101581ADDAA101999999AZ101061AZ201061GA1021+012501081GE19MSL   +99999+99999GF102991021999012501999999MA1999999101511MD1999999+0201REMSYN004BUFR
0136830960999992016050600004-10952-037054FM-12+000599999V0200901N0026199999999002000199+02741+02141101731ADDAA101999999AZ101061AZ201061GA1021+012501081GE19MSL   +99999+99999GF102991021999012501999999MA1999999101661MD1999999+0101REMSYN004BUFR
0149830960999992016050612004-10952-037054FM-12+000599999V0200901N0026199999999002000199+02941+02111101771ADDAA101999999AZ101061AZ201061GA1021+012501081GE19MSL   +99999+99999GF102991021999012501999999KA1120N+02481MA1999999101701MD1999999+0051REMSYN004BUFR
0136830960999992016050618004-10952-037054FM-12+000599999V0200901N0026199999999002000199+02971+02121101501ADDAA101999999AZ101061AZ201061GA1021+012501081GE19MSL   +99999+99999GF102991021999012501999999MA1999999101431MD1999999-0081REMSYN004BUFR
0136830960999992016050700004-10952-037054FM-12+000599999V0200901N0026199999999002000199+02691+02151101731ADDAA101999999AZ101061AZ201061GA1021+012501081GE19MSL   +99999+99999GF102991021999012501999999MA1999999101661MD1999999+0101REMSYN004BUFR
0149830960999992016050712004-10952-037054FM-12+000599999V0200901N0021199999999002000199+02871+02011101711ADDAA101999999AZ101061AZ201061GA1021+012501081GE19MSL   +99999+99999GF102991021999012501999999KA1120N+02491MA1999999101641MD1999999-0061REMSYN004BUFR
0136830960999992016050718004-10952-037054FM-12+000599999V0200901N0026199999999002000199+02991+02121101421ADDAA101999999AZ101061AZ201061GA1021+012501081GE19MSL   +99999+99999GF102991021999012501999999MA1999999101351MD1999999-0081REMSYN004BUFR
0149830960999992016050812004-10952-037054FM-12+000599999V0200901N0021199999999002000199+02901+02041101581ADDAA101999999AZ101061AZ201061GA1021+012501081GE19MSL   +99999+99999GF102991021999012501999999KA1120N+02481MA1999999101511MD1999999-0131REMSYN004BUFR
0136830960999992016050818004-10952-037054FM-12+000599999V0200901N0026199999999002000199+03041+02151101381ADDAA101999999AZ101061AZ201061GA1021+012501081GE19MSL   +99999+99999GF102991021999012501999999MA1999999101311MD1999999-0041REMSYN004BUFR
0149830960999992016050912004-10952-037054FM-12+000599999V0200501N0026101250199002000199+02891+02341101641ADDAA101999999AZ101061AZ201061GA1051+012501081GE19MSL   +99999+99999GF105991051999012501999999KA1120N+02431MA1999999101571MD1999999+0061REMSYN004BUFR
0136830960999992016050918004-10952-037054FM-12+000599999V0201801N0010199999999002000199+02941+02361101521ADDAA101999999AZ101061AZ201061GA1031+012501081GE19MSL   +99999+99999GF103991031999012501999999MA1999999101451MD1999999+0141REMSYN004BUFR
0136830960999992016051000004-10952-037054FM-12+000599999V0201801N0015199999999002000199+02701+02281101531ADDAA101999999AZ101061AZ201061GA1031+012501061GE19MSL   +99999+99999GF103991031999012501999999MA1999999101461MD1999999+0001REMSYN004BUFR
0149830960999992016051012004-10952-037054FM-12+000599999V0200901N0015101250199002000199+02721+02451101571ADDAA101999999AZ101061AZ201061GA1061+012501061GE19MSL   +99999+99999GF106991061999012501999999KA1120N+02441MA1999999101501MD1999999-0071REMSYN004BUFR
0136830960999992016051018004-10952-037054FM-12+000599999V0200901N0031101250199002000199+02741+02461101341ADDAA101999999AZ101061AZ201061GA1061+012501061GE19MSL   +99999+99999GF106991061999012501999999MA1999999101271MD1999999-0181REMSYN004BUFR
0142830960999992016051100004-10952-037054FM-12+000599999V0201801N0015100600199002000199+02471+02381101551ADDAA106003031AY161061AY261061GA1061+006001061GE19MSL   +99999+99999GF106991061999006001999999MA1999999101481MD1999999+0021MW1611REMSYN004BUFR
0155830960999992016051112004-10952-037054FM-12+000599999V0200901N0010101250199002000199+02671+02391101661ADDAA124005031AY161061AY261061GA1051+012501061GE19MSL   +99999+99999GF105991051999012501999999KA1120N+02341MA1999999101591MD1999999+0091MW1161REMSYN004BUFR
0136830960999992016051200004-10952-037054FM-12+000599999V0200901N0015199999999002000199+02721+02241101451ADDAA101999999AZ101061AZ201061GA1021+012501061GE19MSL   +99999+99999GF102991021999012501999999MA1999999101381MD1999999-0101REMSYN004BUFR
0149830960999992016051212004-10952-037054FM-12+000599999V0200901N0015101250199002000199+02841+02381101651ADDAA101999999AZ101061AZ201061GA1061+012501061GE19MSL   +99999+99999GF106991061999012501999999KA1120N+02331MA1999999101581MD1999999-0011REMSYN004BUFR
0136830960999992016051218004-10952-037054FM-12+000599999V0200901N0015199999999002000199+02901+02361101231ADDAA101999999AZ101061AZ201061GA1021+012501081GE19MSL   +99999+99999GF102991021999012501999999MA1999999101161MD1999999-0091REMSYN004BUFR
0136830960999992016051300004-10952-037054FM-12+000599999V0200901N0015199999999002000199+02701+02301101541ADDAA101999999AZ101061AZ201061GA1031+012501061GE19MSL   +99999+99999GF103991031999012501999999MA1999999101471MD1999999+0091REMSYN004BUFR
0149830960999992016051312004-10952-037054FM-12+000599999V0200901N0015199999999002000199+02821+02311101541ADDAA101999999AZ101061AZ201061GA1031+012501081GE19MSL   +99999+99999GF103991031999012501999999KA1120N+02401MA1999999101471MD1999999-0111REMSYN004BUFR
0136830960999992016051318004-10952-037054FM-12+000599999V0200901N0026199999999002000199+02891+02301101191ADDAA101999999AZ101061AZ201061GA1021+012501081GE19MSL   +99999+99999GF102991021999012501999999MA1999999101121MD1999999-0041REMSYN004BUFR
0136830960999992016051400004-10952-037054FM-12+000599999V0200901N0010199999999002000199+02641+02351101541ADDAA101999999AZ101061AZ201061GA1021+012501061GE19MSL   +99999+99999GF102991021999012501999999MA1999999101471MD1999999+0001REMSYN004BUFR
0149830960999992016051412004-10952-037054FM-12+000599999V0200901N0010199999999002000199+02901+02321101771ADDAA101999999AZ101061AZ201061GA1021+012501081GE19MSL   +99999+99999GF102991021999012501999999KA1120N+02431MA1999999101701MD1999999+0231REMSYN004BUFR
0136830960999992016051418004-10952-037054FM-12+000599999V0200901N0010199999999002000199+03001+02311101521ADDAA101999999AZ101061AZ201061GA1021+012501081GE19MSL   +99999+99999GF102991021999012501999999MA1999999101451MD1999999+0031REMSYN004BUFR
0155830960999992016051512004-10952-037054FM-12+000599999V0200901N0015101250199002000199+02671+02311101681ADDAA124002031AY161061AY261061GA1061+012501061GE19MSL   +99999+99999GF106991061999012501999999KA1120N+02401MA1999999101621MD1999999-0081MW1161REMSYN004BUFR
0142830960999992016051518004-10952-037054FM-12+000599999V0200901N0031101250199002000199+02771+02301101531ADDAA106001031AY161061AY261061GA1061+012501061GE19MSL   +99999+99999GF106991061999012501999999MA1999999101461MD1999999+0011MW1161REMSYN004BUFR
0155830960999992016051612004-10952-037054FM-12+000599999V0200901N0021199999999002000199+02791+02041101791ADDAA124003031AY151061AY251061GA1031+012501081GE19MSL   +99999+99999GF103991031999012501999999KA1120N+02301MA1999999101721MD1999999+0101MW1201REMSYN004BUFR
0136830960999992016051618004-10952-037054FM-12+000599999V0200901N0026199999999002000199+02951+02081101561ADDAA101999999AZ101061AZ201061GA1021+012501081GE19MSL   +99999+99999GF102991021999012501999999MA1999999101491MD1999999+0031REMSYN004BUFR
0136830960999992016051700004-10952-037054FM-12+000599999V0200901N0026199999999002000199+02691+02151101731ADDAA101999999AZ101061AZ201061GA1021+012501081GE19MSL   +99999+99999GF102991021999012501999999MA1999999101661MD1999999+0091REMSYN004BUFR
0149830960999992016051712004-10952-037054FM-12+000599999V0200901N0026199999999002000199+02791+02061101671ADDAA101999999AZ101061AZ201061GA1031+012501081GE19MSL   +99999+99999GF103991031999012501999999KA1120N+02301MA1999999101601MD1999999-0121REMSYN004BUFR
0136830960999992016051718004-10952-037054FM-12+000599999V0200901N0026199999999002000199+02941+02141101371ADDAA101999999AZ101061AZ201061GA1021+012501081GE19MSL   +99999+99999GF102991021999012501999999MA1999999101301MD1999999-0191REMSYN004BUFR
0136830960999992016051800004-10952-037054FM-12+000599999V0200901N0026199999999002000199+02691+02151101531ADDAA101999999AZ101061AZ201061GA1021+012501081GE19MSL   +99999+99999GF102991021999012501999999MA1999999101461MD1999999-0201REMSYN004BUFR
0149830960999992016051812004-10952-037054FM-12+000599999V0200901N0026199999999002000199+02891+02031101621ADDAA101999999AZ101061AZ201061GA1021+012501081GE19MSL   +99999+99999GF102991021999012501999999KA1120N+02301MA1999999101551MD1999999-0051REMSYN004BUFR
0136830960999992016051818004-10952-037054FM-12+000599999V0200901N0026199999999002000199+02921+02121101321ADDAA101999999AZ101061AZ201061GA1021+012501081GE19MSL   +99999+99999GF102991021999012501999999MA1999999101251MD1999999-0051REMSYN004BUFR
0136830960999992016051900004-10952-037054FM-12+000599999V0200901N0026199999999002000199+02721+02191101551ADDAA101999999AZ101061AZ201061GA1041+012501061GE19MSL   +99999+99999GF104991041999012501999999MA1999999101481MD1999999+0021REMSYN004BUFR
0149830960999992016051912004-10952-037054FM-12+000599999V0200901N0026199999999002000199+02841+02011101691ADDAA101999999AZ101061AZ201061GA1021+012501081GE19MSL   +99999+99999GF102991021999012501999999KA1120N+02411MA1999999101621MD1999999+0071REMSYN004BUFR
0136830960999992016051918004-10952-037054FM-12+000599999V0200901N0026199999999002000199+02941+02081101451ADDAA101999999AZ101061AZ201061GA1021+012501081GE19MSL   +99999+99999GF102991021999012501999999MA1999999101381MD1999999+0131REMSYN004BUFR
0136830960999992016052000004-10952-037054FM-12+000599999V0200901N0026199999999002000199+02671+02091101691ADDAA101999999AZ101061AZ201061GA1021+012501081GE19MSL   +99999+99999GF102991021999012501999999MA1999999101621MD1999999+0141REMSYN004BUFR
0149830960999992016052012004-10952-037054FM-12+000599999V0200901N0026199999999002000199+02841+02011101801ADDAA101999999AZ101061AZ201061GA1021+012501081GE19MSL   +99999+99999GF102991021999012501999999KA1120N+02431MA1999999101731MD1999999+0111REMSYN004BUFR
0136830960999992016052018004-10952-037054FM-12+000599999V0200901N0026199999999002000199+02941+02081101571ADDAA101999999AZ101061AZ201061GA1041+012501081GE19MSL   +99999+99999GF104991041999012501999999MA1999999101501MD1999999+0121REMSYN004BUFR
0136830960999992016052100004-10952-037054FM-12+000599999V0200901N0026199999999002000199+02721+02171101851ADDAA101999999AZ101061AZ201061GA1041+012501061GE19MSL   +99999+99999GF104991041999012501999999MA1999999101781MD1999999+0161REMSYN004BUFR
0155830960999992016052112004-10952-037054FM-12+000599999V0200901N0021199999999002000199+02641+01931101771ADDAA124003031AY161061AY261061GA1031+012501081GE19MSL   +99999+99999GF103991031999012501999999KA1120N+02301MA1999999101701MD1999999-0031MW1211REMSYN004BUFR
0136830960999992016052118004-10952-037054FM-12+000599999V0200901N0026199999999002000199+02941+02141101531ADDAA101999999AZ101061AZ201061GA1041+012501081GE19MSL   +99999+99999GF104991041999012501999999MA1999999101461MD1999999-0041REMSYN004BUFR
0149830960999992016052212004-10952-037054FM-12+000599999V0200901N0026199999999002000199+02791+02001101821ADDAA101999999AZ101061AZ201061GA1031+012501081GE19MSL   +99999+99999GF103991031999012501999999KA1120N+02301MA1999999101751MD1999999+0051REMSYN004BUFR
0136830960999992016052218004-10952-037054FM-12+000599999V0200901N0026199999999002000199+02971+02121101511ADDAA101999999AZ101061AZ201061GA1021+012501081GE19MSL   +99999+99999GF102991021999012501999999MA1999999101441MD1999999-0021REMSYN004BUFR
0187830960999992016052312004-10952-037054FM-12+000599999V0200901N0010101250199002000199+02601+02371101771ADDAA124016031AY161061AY261061GA1081+012501061GA2999+999999101GA3999+999999101GE19MSL   +99999+99999GF108991081999012501999999KA1120N+02321MA1999999101701MD1999999-0051MW1161REMSYN004BUFR
0142830960999992016052318004-10952-037054FM-12+000599999V0200901N0010101250199002000199+02721+02341101461ADDAA106022031AY161061AY261061GA1051+012501061GE19MSL   +99999+99999GF105991051999012501999999MA1999999101391MD1999999-0051MW1161REMSYN004BUFR
0142830960999992016052400004-10952-037054FM-12+000599999V0200901N0026101250199002000199+02621+02331101711ADDAA106002031AY161061AY261061GA1061+012501061GE19MSL   +99999+99999GF106991061999012501999999MA1999999101641MD1999999-0061MW1161REMSYN004BUFR
0155830960999992016052412004-10952-037054FM-12+000599999V0200901N0031101250199002000199+02801+02311101761ADDAA124025031AY161061AY261061GA1051+012501081GE19MSL   +99999+99999GF105991051999012501999999KA1120N+02411MA1999999101691MD1999999-0011MW1161REMSYN004BUFR
0136830960999992016052418004-10952-037054FM-12+000599999V0200901N0031101250199002000199+02771+02341101551ADDAA101999999AZ101061AZ201061GA1061+012501061GE19MSL   +99999+99999GF106991061999012501999999MA1999999101481MD1999999+0091REMSYN004BUFR
0155830960999992016052512004-10952-037054FM-12+000599999V0200901N0010101250199002000199+02511+02311101881ADDAA124064031AY161061AY261061GA1061+012501061GE19MSL   +99999+99999GF106991061999012501999999KA1120N+02201MA1999999101811MD1999999+0121MW1161REMSYN004BUFR
0142830960999992016052518004-10952-037054FM-12+000599999V0200901N0010199999999002000199+02911+02321101471ADDAA106002031AY161061AY261061GA1021+012501081GE19MSL   +99999+99999GF102991021999012501999999MA1999999101401MD1999999-0081MW1161REMSYN004BUFR
0155830960999992016052612004-10952-037054FM-12+000599999V0200901N0010199999999002000199+02801+02381101641ADDAA124007031AY161061AY261061GA1031+012501081GE19MSL   +99999+99999GF103991031999012501999999KA1120N+02221MA1999999101571MD1999999-0241MW1161REMSYN004BUFR
0136830960999992016052618004-10952-037054FM-12+000599999V0200901N0015101250199002000199+02901+02341101521ADDAA101999999AZ101061AZ201061GA1061+012501081GE19MSL   +99999+99999GF106991061999012501999999MA1999999101451MD1999999+0051REMSYN004BUFR
0155830960999992016052712004-10952-037054FM-12+000599999V0202701N0010199999999002000199+02611+02211101691ADDAA124014031AY161061AY261061GA1032+012501081GE19MSL   +99999+99999GF102992032999012501999999KA1120N+02201MA1999999101621MD1999999+0051MW1161REMSYN004BUFR
0136830960999992016052718004-10952-037054FM-12+000599999V0200901N0031199999999002000199+02901+02341101561ADDAA101999999AZ101061AZ201061GA1031+012501081GE19MSL   +99999+99999GF103991031999012501999999MA1999999101491MD1999999+0041REMSYN004BUFR
0149830960999992016052812004-10952-037054FM-12+000599999V0201401N0010101250199002000199+02821+02311101881ADDAA101999999AZ101061AZ201061GA1051+012501081GE19MSL   +99999+99999GF105991051999012501999999KA1120N+02231MA1999999101811MD1999999+0131REMSYN004BUFR
0136830960999992016052818004-10952-037054FM-12+000599999V0200901N0010101250199002000199+02651+02371101561ADDAA101999999AZ101061AZ201061GA1061+012501061GE19MSL   +99999+99999GF106991061999012501999999MA1999999101491MD1999999+0001REMSYN004BUFR
0187830960999992016052912004-10952-037054FM-12+000599999V0200901N0015101250199002000199+02611+02371101641ADDAA124004031AY161061AY261061GA1081+012501061GA2999+999999101GA3999+999999101GE19MSL   +99999+99999GF108991081999012501999999KA1120N+02261MA1999999101571MD1999999-0241MW1161REMSYN004BUFR
0174830960999992016052918004-10952-037054FM-12+000599999V0200901N0015101250199002000199+02751+02401101381ADDAA106003031AY161061AY261061GA1081+012501061GA2999+999999101GA3999+999999101GE19MSL   +99999+99999GF108991081999012501999999MA1999999101311MD1999999-0181MW1161REMSYN004BUFR
0155830960999992016053012004-10952-037054FM-12+000599999V0200901N0021199999999002000199+02811+02211101541ADDAA124003031AY161061AY261061GA1031+012501061GE19MSL   +99999+99999GF103991031999012501999999KA1120N+02281MA1999999101471MD1999999-0101MW1211REMSYN004BUFR
0136830960999992016053018004-10952-037054FM-12+000599999V0200901N0026199999999002000199+02921+02061101311ADDAA101999999AZ101061AZ201061GA1041+012501081GE19MSL   +99999+99999GF104991041999012501999999MA1999999101271MD1999999-0041REMSYN004BUFR
0155830960999992016053112004-10952-037054FM-12+000599999V0201801N0015199999999002000199+02621+01981101521ADDAA124000631AY151061AY251061GA1041+012501061GE19MSL   +99999+99999GF104991041999012501999999KA1120N+02281MA1999999101451MD1999999-0021MW1201REMSYN004BUFR
0142830960999992016053118004-10952-037054FM-12+000599999V0200901N0026199999999002000199+02851+02041101281ADDAA106000831AY151061AY251061GA1041+012501081GE19MSL   +99999+99999GF104991041999012501999999MA1999999101211MD1999999-0061MW1201REMSYN004BUFR
0149830960999992016060112004-10952-037054FM-12+000599999V0200901N0021199999999002000199+02711+01991101491ADDAA124000831AZ101061AZ201061GA1031+012501081GE19MSL   +99999+99999GF103991031999012501999999KA1120N+02201MA1999999101421MD1999999-0031REMSYN004BUFR
0136830960999992016060118004-10952-037054FM-12+000599999V0200901N0026199999999002000199+02921+02121101251ADDAA101999999AZ101061AZ201061GA1041+012501081GE19MSL   +99999+99999GF104991041999012501999999MA1999999101181MD1999999-0031REMSYN004BUFR
0149830960999992016060212004-10952-037054FM-12+000599999V0200901N0026199999999002000199+02751+02001101471ADDAA101999999AZ101061AZ201061GA1031+012501081GE19MSL   +99999+99999GF103991031999012501999999KA1120N+02221MA1999999101401MD1999999-0021REMSYN004BUFR
0136830960999992016060218004-10952-037054FM-12+000599999V0200901N0015199999999002000199+02821+02241101181ADDAA101999999AZ101061AZ201061GA1021+012501081GE19MSL   +99999+99999GF102991021999012501999999MA1999999101111MD1999999-0071REMSYN004BUFR
0149830960999992016060312004-10952-037054FM-12+000599999V0200901N0026199999999002000199+02721+02141101451ADDAA101999999AZ101061AZ201061GA1031+012501081GE19MSL   +99999+99999GF103991031999012501999999KA1120N+02331MA1999999101381MD1999999-0021REMSYN004BUFR
0136830960999992016060318004-10952-037054FM-12+000599999V0200901N0031199999999002000199+02811+02241101361ADDAA101999999AZ101061AZ201061GA1031+012501081GE19MSL   +99999+99999GF103991031999012501999999MA1999999101291MD1999999+0181REMSYN004BUFR
0149830960999992016060412004-10952-037054FM-12+000599999V0200901N0026199999999002000199+02751+02141101411ADDAA101999999AZ101061AZ201061GA1031+012501081GE19MSL   +99999+99999GF103991031999012501999999KA1120N+02321MA1999999101341MD1999999-0041REMSYN004BUFR
0136830960999992016060418004-10952-037054FM-12+000599999V0200901N0031199999999002000199+02821+02211101251ADDAA101999999AZ101061AZ201061GA1021+012501081GE19MSL   +99999+99999GF102991021999012501999999MA1999999101181MD1999999-0181REMSYN004BUFR
0149830960999992016060512004-10952-037054FM-12+000599999V0200901N0041101250199002000199+02851+02231101551ADDAA101999999AZ101061AZ201061GA1061+012501061GE19MSL   +99999+99999GF106991061999012501999999KA1120N+02311MA1999999101481MD1999999+0141REMSYN004BUFR
0136830960999992016060518004-10952-037054FM-12+000599999V0200901N0031199999999002000199+02851+02311101241ADDAA101999999AZ101061AZ201061GA1031+012501081GE19MSL   +99999+99999GF103991031999012501999999MA1999999101171MD1999999+0011REMSYN004BUFR
0149830960999992016060612004-10952-037054FM-12+000599999V0200901N0026101250199002000199+02861+02231101611ADDAA101999999AZ101061AZ201061GA1051+012501081GE19MSL   +99999+99999GF105991051999012501999999KA1120N+02281MA1999999101541MD1999999+0061REMSYN004BUFR
0136830960999992016060618004-10952-037054FM-12+000599999V0200901N0031199999999002000199+02851+02231101291ADDAA101999999AZ101061AZ201061GA1021+012501081GE19MSL   +99999+99999GF102991021999012501999999MA1999999101221MD1999999+0051REMSYN004BUFR
0136830960999992016060700004-10952-037054FM-12+000599999V0200901N0026199999999002000199+02721+02171101331ADDAA101999999AZ101061AZ201061GA1031+012501061GE19MSL   +99999+99999GF103991031999012501999999MA1999999101261MD1999999-0121REMSYN004BUFR
0155830960999992016060712004-10952-037054FM-12+000599999V0200501N0026199999999002000199+02811+02271101551ADDAA124001031AY161061AY261061GA1021+012501081GE19MSL   +99999+99999GF102991021999012501999999KA1120N+02331MA1999999101481MD1999999-0061MW1611REMSYN004BUFR
0136830960999992016060718004-10952-037054FM-12+000599999V0200901N0026199999999002000199+02871+02251101231ADDAA101999999AZ101061AZ201061GA1021+012501081GE19MSL   +99999+99999GF102991021999012501999999MA1999999101161MD1999999-0061REMSYN004BUFR
0136830960999992016060800004-10952-037054FM-12+000599999V0200901N0026199999999002000199+02711+02261101321ADDAA101999999AZ101061AZ201061GA1021+012501061GE19MSL   +99999+99999GF102991021999012501999999MA1999999101251MD1999999-0011REMSYN004BUFR
0149830960999992016060812004-10952-037054FM-12+000599999V0200501N0026199999999002000199+02901+02271101561ADDAA101999999AZ101061AZ201061GA1021+012501081GE19MSL   +99999+99999GF102991021999012501999999KA1120N+02371MA1999999101491MD1999999+0011REMSYN004BUFR
0136830960999992016060818004-10952-037054FM-12+000599999V0200901N0031199999999002000199+02901+02271101261ADDAA101999999AZ101061AZ201061GA1021+012501081GE19MSL   +99999+99999GF102991021999012501999999MA1999999101191MD1999999+0031REMSYN004BUFR
0136830960999992016060900004-10952-037054FM-12+000599999V0200901N0026199999999002000199+02771+02281101471ADDAA101999999AZ101061AZ201061GA1021+012501061GE19MSL   +99999+99999GF102991021999012501999999MA1999999101401MD1999999+0151REMSYN004BUFR
0149830960999992016060912004-10952-037054FM-12+000599999V0200901N0041199999999002000199+02871+02251101651ADDAA101999999AZ101061AZ201061GA1021+012501081GE19MSL   +99999+99999GF102991021999012501999999KA1120N+02381MA1999999101581MD1999999+0091REMSYN004BUFR
0136830960999992016060918004-10952-037054FM-12+000599999V0200901N0031199999999002000199+02871+02281101431ADDAA101999999AZ101061AZ201061GA1021+012501081GE19MSL   +99999+99999GF102991021999012501999999MA1999999101361MD1999999+0171REMSYN004BUFR
0136830960999992016061000004-10952-037054FM-12+000599999V0200901N0031199999999002000199+02701+02171101551ADDAA101999999AZ101061AZ201061GA1021+012501061GE19MSL   +99999+99999GF102991021999012501999999MA1999999101481MD1999999+0081REMSYN004BUFR
0149830960999992016061012004-10952-037054FM-12+000599999V0200901N0015199999999002000199+02871+02301101751ADDAA101999999AZ101061AZ201061GA1031+012501081GE19MSL   +99999+99999GF103991031999012501999999KA1120N+02331MA1999999101681MD1999999+0201REMSYN004BUFR
0136830960999992016061018004-10952-037054FM-12+000599999V0200901N0026199999999002000199+02901+02301101481ADDAA101999999AZ101061AZ201061GA1031+012501081GE19MSL   +99999+99999GF103991031999012501999999MA1999999101411MD1999999+0051REMSYN004BUFR
0136830960999992016061100004-10952-037054FM-12+000599999V0200901N0031199999999002000199+02671+02261101701ADDAA101999999AZ101061AZ201061GA1021+012501061GE19MSL   +99999+99999GF102991021999012501999999MA1999999101631MD1999999+0151REMSYN004BUFR
0149830960999992016061112004-10952-037054FM-12+000599999V0200901N0015199999999002000199+02811+02291101841ADDAA101999999AZ101061AZ201061GA1021+012501081GE19MSL   +99999+99999GF102991021999012501999999KA1120N+02351MA1999999101771MD1999999+0091REMSYN004BUFR
0136830960999992016061118004-10952-037054FM-12+000599999V0200901N0031199999999002000199+02851+02291101531ADDAA101999999AZ101061AZ201061GA1021+012501081GE19MSL   +99999+99999GF102991021999012501999999MA1999999101461MD1999999+0051REMSYN004BUFR
0149830960999992016061212004-10952-037054FM-12+000599999V0200901N0015199999999002000199+02761+02281102071ADDAA101999999AZ101061AZ201061GA1011+012501081GE19MSL   +99999+99999GF101991011999012501999999KA1120N+02281MA1999999102001MD1999999+0231REMSYN004BUFR
0136830960999992016061218004-10952-037054FM-12+000599999V0201401N0026199999999002000199+02861+02281101801ADDAA101999999AZ101061AZ201061GA1011+012501081GE19MSL   +99999+99999GF101991011999012501999999MA1999999101731MD1999999+0271REMSYN004BUFR
0149830960999992016061312004-10952-037054FM-12+000599999V0200901N0026199999999002000199+02801+02031102091ADDAA101999999AZ101061AZ201061GA1021+012501081GE19MSL   +99999+99999GF102991021999012501999999KA1120N+02331MA1999999102021MD1999999+0021REMSYN004BUFR
0136830960999992016061318004-10952-037054FM-12+000599999V0200901N0026199999999002000199+02961+02101101891ADDAA101999999AZ101061AZ201061GA1021+012501081GE19MSL   +99999+99999GF102991021999012501999999MA1999999101821MD1999999+0091REMSYN004BUFR
0136830960999992016061400004-10952-037054FM-12+000599999V0200901N0026199999999002000199+02621+02031102131ADDAA101999999AZ101061AZ201061GA1031+012501081GE19MSL   +99999+99999GF103991031999012501999999MA1999999102061MD1999999+0121REMSYN004BUFR
0149830960999992016061412004-10952-037054FM-12+000599999V0200901N0026199999999002000199+02851+02091102121ADDAA101999999AZ101061AZ201061GA1021+012501081GE19MSL   +99999+99999GF102991021999012501999999KA1120N+02301MA1999999102051MD1999999+0031REMSYN004BUFR
0136830960999992016061418004-10952-037054FM-12+000599999V0200901N0026199999999002000199+02951+02081101931ADDAA101999999AZ101061AZ201061GA1021+012501081GE19MSL   +99999+99999GF102991021999012501999999MA1999999101861MD1999999+0041REMSYN004BUFR
