0181832360999992016010112004-12156-045008FM-12+043999999V0202301N0010199999999020000199+02991+02031101041ADDAA101999999AZ101061AZ201061GA1031+006001081GA2999+999999031GA3999+999999001GE19MSL   +99999+99999GF106991031999006001999999KA1120N+02311MA1999999096211MD1999999-0221REMSYN004BUFR
0165832360999992016010212004-12156-045008FM-12+043999999V0202301N0015199999999020000199+02751+01991101131ADDAA101999999AZ101061AZ201061GA1011+006001081GA2999+999999001GE19MSL   +99999+99999GF102991011999006001999999KA1120N+02331MA1999999096331MD1999999+0121REMSYN004BUFR
0187832360999992016010312004-12156-045008FM-12+043999999V0200501N0031100600199020000199+02241+02071101371ADDAA124034031AY161061AY291061GA1061+006001061GA2999+999999101GA3999+999999101GE19MSL   +99999+99999GF108991061999006001999999KA1120N+02101MA1999999096491MD1999999+0161MW1031REMSYN004BUFR
0181832360999992016010412004-12156-045008FM-12+043999999V0203601N0000199999999020000199+02691+02061101201ADDAA124002031AZ101061AZ201061GA1021+006001081GA2999+999999031GA3999+999999001GE19MSL   +99999+99999GF106991021999006001999999KA1120N+02151MA1999999096331MD1999999-0161REMSYN004BUFR
0187832360999992016010512004-12156-045008FM-12+043999999V0202301N0005199999999020000199+02471+02231101311ADDAA124001031AY151061AY251061GA1021+006001081GA2999+999999031GA3999+999999001GE19MSL   +99999+99999GF106991021999006001999999KA1120N+02261MA1999999096401MD1999999+0071MW1031REMSYN004BUFR
0136832360999992016010600004-12156-045008FM-12+043999999V0203601N0000199999999020000199+02791+02291100941ADDAA101999999AZ101061AZ201061GA1041+006001081GE19MSL   +99999+99999GF104991041999006001999999MA1999999096101MD1999999-0111REMSYN004BUFR
0187832360999992016010612004-12156-045008FM-12+043999999V0202301N0010100600199020000199+02291+02231101381ADDAA124033031AY161061AY261061GA1081+006001061GA2999+999999101GA3999+999999101GE19MSL   +99999+99999GF108991081999006001999999KA1120N+02211MA1999999096501MD1999999+0101MW1501REMSYN004BUFR
0142832360999992016010700004-12156-045008FM-12+043999999V0200501N0021100600199020000199+02401+02231101111ADDAA106000231AY101061AY201061GA1061+006001091GE19MSL   +99999+99999GF106991061999006001999999MA1999999096201MD1999999+0101MW1501REMSYN004BUFR
0181832360999992016010712004-12156-045008FM-12+043999999V0200501N0026100600199020000199+02521+02231101171ADDAA124000231AZ101061AZ201061GA1081+006001061GA2999+999999101GA3999+999999101GE19MSL   +99999+99999GF108991081999006001999999KA1120N+02301MA1999999096281MD1999999-0221REMSYN004BUFR
0142832360999992016010800004-12156-045008FM-12+043999999V0200501N0015199999999020000199+02441+02231101011ADDAA106002031AY161061AY261061GA1041+006001081GE19MSL   +99999+99999GF104991041999006001999999MA1999999096141MD1999999-0061MW1031REMSYN004BUFR
0181832360999992016010812004-12156-045008FM-12+043999999V0200501N0005100600199020000199+02471+02231101231ADDAA124002031AZ101061AZ201061GA1081+006001061GA2999+999999101GA3999+999999101GE19MSL   +99999+99999GF108991081999006001999999KA1120N+02251MA1999999096341MD1999999+0061REMSYN004BUFR
0174832360999992016010900004-12156-045008FM-12+043999999V0203601N0000100600199020000199+02321+02221101131ADDAA106026031AY161061AY261061GA1081+006001061GA2999+999999101GA3999+999999101GE19MSL   +99999+99999GF108991081999006001999999MA1999999096241MD1999999+0101MW1611REMSYN004BUFR
0187832360999992016010912004-12156-045008FM-12+043999999V0203201N0005199999999020000199+02301+02151101411ADDAA124030031AY161061AY261061GA1031+006001081GA2999+999999031GA3999+999999001GE19MSL   +99999+99999GF107991031999006001999999KA1120N+02131MA1999999096471MD1999999+0131MW1031REMSYN004BUFR
0187832360999992016011012004-12156-045008FM-12+043999999V0202701N0005199999999020000199+02291+02111101281ADDAA124024031AY161061AY261061GA1021+006001081GA2999+999999031GA3999+999999001GE19MSL   +99999+99999GF106991021999006001999999KA1120N+02041MA1999999096371MD1999999-0101MW1031REMSYN004BUFR
0165832360999992016011112004-12156-045008FM-12+043999999V0200501N0036199999999020000199+02741+02141101171ADDAA101999999AZ101061AZ201061GA1021+006001081GA2999+999999001GE19MSL   +99999+99999GF104991021999006001999999KA1120N+02291MA1999999096331MD1999999-0041REMSYN004BUFR
0136832360999992016011200004-12156-045008FM-12+043999999V0201401N0005199999999020000199+02721+02221100831ADDAA101999999AZ101061AZ201061GA1021+017501031GE19MSL   +99999+99999GF102991021999017501999999MA1999999096011MD1999999-0091REMSYN004BUFR
0181832360999992016011212004-12156-045008FM-12+043999999V0200501N0015199999999020000199+02771+02181101071ADDAA101999999AZ101061AZ201061GA1021+006001081GA2999+999999031GA3999+999999001GE19MSL   +99999+99999GF106991021999006001999999KA1120N+02351MA1999999096241MD1999999-0091REMSYN004BUFR
0187832360999992016011312004-12156-045008FM-12+043999999V0203201N0015100600199010000199+02271+02211101221ADDAA124011031AY161061AY261061GA1081+006001061GA2999+999999101GA3999+999999101GE19MSL   +99999+99999GF108991081999006001999999KA1120N+02231MA1999999096341MD1999999+0101MW1501REMSYN004BUFR
0142832360999992016011400004-12156-045008FM-12+043999999V0200501N0010100600199020000199+02391+02131101101ADDAA106023031AY161061AY261061GA1061+006001091GE19MSL   +99999+99999GF106991061999006001999999MA1999999096191MD1999999+0121MW1031REMSYN004BUFR
0181832360999992016011412004-12156-045008FM-12+043999999V0200501N0036100600199020000199+02371+02071101211ADDAA124023031AZ101061AZ201061GA1081+006001061GA2999+999999101GA3999+999999101GE19MSL   +99999+99999GF108991081999006001999999KA1120N+02161MA1999999096311MD1999999-0031REMSYN004BUFR
0187832360999992016011512004-12156-045008FM-12+043999999V0201801N0005100600199020000199+02441+02301101261ADDAA124002031AY161061AY261061GA1061+006001061GA2999+999999051GA3999+999999101GE19MSL   +99999+99999GF108991061999006001999999KA1120N+02271MA1999999096371MD1999999+0061MW1031REMSYN004BUFR
0174832360999992016011600004-12156-045008FM-12+043999999V0203601N0000100600199020000199+02321+02241101141ADDAA106034031AY161061AY261061GA1081+006001061GA2999+999999101GA3999+999999101GE19MSL   +99999+99999GF108991081999006001999999MA1999999096241MD1999999+0091MW1621REMSYN004BUFR
0187832360999992016011612004-12156-045008FM-12+043999999V0202301N0015100600199020000199+02401+02251101071ADDAA124040031AY161061AY261061GA1081+006001061GA2999+999999051GA3999+999999101GE19MSL   +99999+99999GF108991081999006001999999KA1120N+02171MA1999999096161MD1999999-0211MW1031REMSYN004BUFR
0187832360999992016011712004-12156-045008FM-12+043999999V0200501N0015100600199020000199+02341+02261101181ADDAA124007031AY161061AY261061GA1081+006001061GA2999+999999101GA3999+999999101GE19MSL   +99999+99999GF108991081999006001999999KA1120N+02201MA1999999096281MD1999999+0121MW1501REMSYN004BUFR
0155832360999992016011812004-12156-045008FM-12+043999999V0200501N0015100600199020000199+02391+02241101101ADDAA124035031AY161061AY261061GA1061+006001091GE19MSL   +99999+99999GF106991061999006001999999KA1120N+02251MA1999999096201MD1999999-0081MW1031REMSYN004BUFR
0142832360999992016011900004-12156-045008FM-12+043999999V0200501N0021100600199010000199+02251+02211100961ADDAA106038031AY161061AY261061GA1051+006001081GE19MSL   +99999+99999GF105991051999006001999999MA1999999096061MD1999999-0071MW1511REMSYN004BUFR
0155832360999992016011912004-12156-045008FM-12+043999999V0203601N0000100600199020000199+02421+02211101071ADDAA124042031AY161061AY261061GA1071+006001061GE19MSL   +99999+99999GF107991071999006001999999KA1120N+02201MA1999999096161MD1999999-0091MW1031REMSYN004BUFR
0142832360999992016012000004-12156-045008FM-12+043999999V0201401N0015100600199020000199+02291+02221100911ADDAA106017031AY161061AY261061GA1061+006001061GE19MSL   +99999+99999GF106991061999006001999999MA1999999096011MD1999999-0051MW1611REMSYN004BUFR
0187832360999992016012012004-12156-045008FM-12+043999999V0200501N0031100600199020000199+02271+02211100981ADDAA124030031AY161061AY261061GA1061+006001081GA2999+999999051GA3999+999999101GE19MSL   +99999+99999GF108991061999006001999999KA1120N+02201MA1999999096071MD1999999-0091MW1511REMSYN004BUFR
0174832360999992016012100004-12156-045008FM-12+043999999V0200501N0010100600199004000199+02171+02101101001ADDAA106057031AY161061AY261061GA1081+006001061GA2999+999999101GA3999+999999101GE19MSL   +99999+99999GF108991081999006001999999MA1999999096061MD1999999+0051MW1511REMSYN004BUFR
0187832360999992016012112004-12156-045008FM-12+043999999V0200501N0021100600199020000199+02251+02191101111ADDAA124094031AY161061AY261061GA1061+006001071GA2999+999999041GA3999+999999101GE19MSL   +99999+99999GF108991061999006001999999KA1120N+02101MA1999999096171MD1999999+0101MW1511REMSYN004BUFR
0158832360999992016012200004-12156-045008FM-12+043999999V0203601N0000199999999020000199+02391+02261100941ADDAA106000231AY161061AY261061GA1041+006001091GA2999+999999051GE19MSL   +99999+99999GF106991041999006001999999MA1999999096031MD1999999-0031MW1511REMSYN004BUFR
0187832360999992016012212004-12156-045008FM-12+043999999V0200501N0036100600199020000199+02301+02201101031ADDAA124004031AY161061AY261061GA1081+006001061GA2999+999999101GA3999+999999101GE19MSL   +99999+99999GF108991081999006001999999KA1120N+02231MA1999999096131MD1999999-0041MW1031REMSYN004BUFR
0158832360999992016012300004-12156-045008FM-12+043999999V0203601N0000199999999020000199+02201+02151101121ADDAA106009031AY161061AY261061GA1031+006001081GA2999+999999031GE19MSL   +99999+99999GF106991031999006001999999MA1999999096191MD1999999+0161MW1031REMSYN004BUFR
0187832360999992016012312004-12156-045008FM-12+043999999V0200501N0026100600199020000199+02471+02231101291ADDAA124010031AY161061AY261061GA1081+006001061GA2999+999999101GA3999+999999101GE19MSL   +99999+99999GF108991081999006001999999KA1120N+02171MA1999999096371MD1999999+0241MW1031REMSYN004BUFR
0013832360999992016012318004-12156-045008FM-12+043999999V020999999999999999999999999999+99999+99999999999REMSYN004BUFR
0187832360999992016012412004-12156-045008FM-12+043999999V0200501N0026199999999020000199+02521+02271101211ADDAA124065031AY161061AY261061GA1031+006001091GA2999+999999051GA3999+999999001GE19MSL   +99999+99999GF105991031999006001999999KA1120N+02221MA1999999096311MD1999999-0061MW1031REMSYN004BUFR
0013832360999992016012418004-12156-045008FM-12+043999999V020999999999999999999999999999+99999+99999999999REMSYN004BUFR
0165832360999992016012512004-12156-045008FM-12+043999999V0200501N0015100600199020000199+02501+02231101371ADDAA101999999AZ101061AZ201061GA1061+006001091GA2999+999999031GE19MSL   +99999+99999GF107991061999006001999999KA1120N+02231MA1999999096471MD1999999+0161REMSYN004BUFR
0152832360999992016012600004-12156-045008FM-12+043999999V0203601N0000199999999020000199+02691+02371101051ADDAA101999999AZ101061AZ201061GA1031+006001081GA2999+999999031GE19MSL   +99999+99999GF105991031999006001999999MA1999999096191MD1999999+0011REMSYN004BUFR
0171832360999992016012612004-12156-045008FM-12+043999999V0203601N0000199999999020000199+02521+02351101261ADDAA101999999AY121061AY221061GA1041+006001061GA2999+999999001GE19MSL   +99999+99999GF106991041999006001999999KA1120N+02331MA1999999096391MD1999999-0081MW1151REMSYN004BUFR
0142832360999992016012700004-12156-045008FM-12+043999999V0203601N0000100600199020000199+02591+02401100961ADDAA106010031AY161061AY261061GA1051+006001091GE19MSL   +99999+99999GF105991051999006001999999MA1999999096101MD1999999-0091MW1031REMSYN004BUFR
0187832360999992016012712004-12156-045008FM-12+043999999V0203201N0005199999999020000199+02551+02271101101ADDAA124030031AY161061AY261061GA1031+006001091GA2999+999999051GA3999+999999001GE19MSL   +99999+99999GF106991031999006001999999KA1120N+02251MA1999999096271MD1999999-0121MW1031REMSYN004BUFR
0174832360999992016012800004-12156-045008FM-12+043999999V0202301N0010100600199010000199+02221+02191101221ADDAA106038031AY161061AY261061GA1081+006001061GA2999+999999101GA3999+999999101GE19MSL   +99999+99999GF108991081999006001999999MA1999999096321MD1999999+0221MW1631REMSYN004BUFR
0187832360999992016012812004-12156-045008FM-12+043999999V0200501N0005100600199020000199+02391+02231101281ADDAA124043031AY161061AY261061GA1081+006001061GA2999+999999101GA3999+999999101GE19MSL   +99999+99999GF108991081999006001999999KA1120N+02191MA1999999096351MD1999999+0081MW1031REMSYN004BUFR
0158832360999992016012900004-12156-045008FM-12+043999999V0200501N0021199999999010000199+02251+02161101251ADDAA106028031AY161061AY261061GA1031+006001081GA2999+999999031GE19MSL   +99999+99999GF106991031999006001999999MA1999999096331MD1999999+0011MW1511REMSYN004BUFR
0187832360999992016012912004-12156-045008FM-12+043999999V0200501N0010199999999020000199+02441+02191101421ADDAA124031031AY161061AY261061GA1021+006001081GA2999+999999031GA3999+999999021GE19MSL   +99999+99999GF106991021999006001999999KA1120N+02201MA1999999096501MD1999999+0151MW1031REMSYN004BUFR
0098832360999992016013000004-12156-045008FM-12+043999999V0202301N0010122000199020000199+02441+02281101121ADDAA101999999AZ101061AZ201061GF100991999999999999999999MA1999999096231MD1999999-0101REMSYN004BUFR
0165832360999992016013012004-12156-045008FM-12+043999999V0203601N0000199999999020000199+02621+01931101301ADDAA101999999AZ101061AZ201061GA1021+017501051GA2999+999999001GE19MSL   +99999+99999GF103991021999017501999999KA1120N+02041MA1999999096421MD1999999-0081REMSYN004BUFR
0149832360999992016013112004-12156-045008FM-12+043999999V0200501N0021199999999020000199+02591+01821101371ADDAA101999999AZ101061AZ201061GA1031+017501051GE19MSL   +99999+99999GF103991031999017501999999KA1120N+01991MA1999999096501MD1999999+0081REMSYN004BUFR
0181832360999992016020112004-12156-045008FM-12+043999999V0202301N0010199999999020000199+02391+01971101491ADDAA101999999AZ101061AZ201061GA1041+006001061GA2999+999999031GA3999+999999001GE19MSL   +99999+99999GF107991041999006001999999KA1120N+02011MA1999999096581MD1999999+0081REMSYN004BUFR
0181832360999992016020212004-12156-045008FM-12+043999999V0203601N0000199999999020000199+02501+01981101311ADDAA101999999AZ101061AZ201061GA1031+006001081GA2999+999999031GA3999+999999001GE19MSL   +99999+99999GF105991031999006001999999KA1120N+02151MA1999999096421MD1999999-0161REMSYN004BUFR
0165832360999992016020312004-12156-045008FM-12+043999999V0203601N0000199999999020000199+02521+02041101211ADDAA124000131AZ101061AZ201061GA1041+006001081GA2999+999999001GE19MSL   +99999+99999GF106991041999006001999999KA1120N+02171MA1999999096321MD1999999-0101REMSYN004BUFR
0165832360999992016020412004-12156-045008FM-12+043999999V0203601N0000199999999020000199+02351+02051101221ADDAA101999999AZ101061AZ201061GA1021+006001081GA2999+999999031GE19MSL   +99999+99999GF106991021999006001999999KA1120N+02091MA1999999096341MD1999999+0021REMSYN004BUFR
0181832360999992016020512004-12156-045008FM-12+043999999V0202301N0010199999999020000199+02591+02141101341ADDAA101999999AZ101061AZ201061GA1021+006001081GA2999+999999031GA3999+999999001GE19MSL   +99999+99999GF105991021999006001999999KA1120N+02201MA1999999096441MD1999999+0101REMSYN004BUFR
0165832360999992016020612004-12156-045008FM-12+043999999V0203601N0000199999999020000199+02601+02211101421ADDAA101999999AZ101061AZ201061GA1011+017501031GA2999+999999001GE19MSL   +99999+99999GF103991011999017501999999KA1120N+02181MA1999999096551MD1999999+0111REMSYN004BUFR
0149832360999992016020712004-12156-045008FM-12+043999999V0200501N0021199999999020000199+02591+01961101261ADDAA101999999AZ101061AZ201061GA1011+017501031GE19MSL   +99999+99999GF101991011999017501999999KA1120N+02041MA1999999096401MD1999999-0111REMSYN004BUFR
0111832360999992016020812004-12156-045008FM-12+043999999V0200501N0041122000199020000199+02691+01941101321ADDAA101999999AZ101061AZ201061GF100991999999999999999999KA1120N+02151MA1999999096471MD1999999+0071REMSYN004BUFR
0165832360999992016020912004-12156-045008FM-12+043999999V0203201N0005199999999020000199+02671+02091101411ADDAA101999999AZ101061AZ201061GA1021+017501051GA2999+999999001GE19MSL   +99999+99999GF104991021999017501999999KA1120N+02151MA1999999096581MD1999999+0111REMSYN004BUFR
0111832360999992016021012004-12156-045008FM-12+043999999V0200501N0015122000199020000199+02651+01951101411ADDAA101999999AZ101061AZ201061GF100991999999999999999999KA1120N+02021MA1999999096551MD1999999-0031REMSYN004BUFR
0112832360999992016021112004-12150-045000FM-12+043999999V0202301N001019999999N020000199+02581+01921101231ADDKA1240N+02061MA1999999096361MD1999999-0191REMSYN05883236 32998 02302 10258 20192 39636 40123 333 20206 59019=
0165832360999992016021212004-12156-045008FM-12+043999999V0203201N0010199999999020000199+02671+02041101091ADDAA101999999AZ101061AZ201061GA1021+017501051GA2999+999999001GE19MSL   +99999+99999GF104991021999017501999999KA1120N+02151MA1999999096261MD1999999-0101REMSYN004BUFR
0165832360999992016021312004-12156-045008FM-12+043999999V0200501N0021199999999020000199+02601+02141101071ADDAA101999999AZ101061AZ201061GA1031+006001091GA2999+999999031GE19MSL   +99999+99999GF106991031999006001999999KA1120N+02271MA1999999096261MD1999999+0001REMSYN004BUFR
0187832360999992016021412004-12156-045008FM-12+043999999V0203601N0015199999999020000199+02601+02121101101ADDAA124000331AY151061AY251061GA1021+006001081GA2999+999999031GA3999+999999001GE19MSL   +99999+99999GF106991021999006001999999KA1120N+02231MA1999999096251MD1999999-0011MW1031REMSYN004BUFR
0155832360999992016021512004-12156-045008FM-12+043999999V0203601N0000199999999020000199+02471+02051101391ADDAA124005031AY161061AY261061GA1011+006001081GE19MSL   +99999+99999GF101991011999006001999999KA1120N+01991MA1999999096491MD1999999+0241MW1031REMSYN004BUFR
0165832360999992016021612004-12156-045008FM-12+043999999V0202301N0005199999999020000199+02541+02131101301ADDAA101999999AZ101061AZ201061GA1011+017501031GA2999+999999001GE19MSL   +99999+99999GF102991011999017501999999KA1120N+02041MA1999999096401MD1999999-0091REMSYN004BUFR
0117832360999992016021712004-12156-045008FM-12+043999999V0203601N0000122000199020000199+02541+01991101141ADDAA124004031AY161061AY261061GF100991999999999999999999KA1120N+02041MA1999999096281MD1999999-0121MW1001REMSYN004BUFR
0165832360999992016021812004-12156-045008FM-12+043999999V0201801N0010199999999020000199+02421+02011101321ADDAA101999999AZ101061AZ201061GA1041+017501031GA2999+999999001GE19MSL   +99999+99999GF105991041999017501999999KA1120N+01941MA1999999096431MD1999999+0151REMSYN004BUFR
0165832360999992016021912004-12156-045008FM-12+043999999V0202301N0005199999999020000199+02521+01631101281ADDAA101999999AZ101061AZ201061GA1031+006001081GA2999+999999001GE19MSL   +99999+99999GF105991031999006001999999KA1120N+01941MA1999999096391MD1999999-0041REMSYN004BUFR
0165832360999992016022012004-12156-045008FM-12+043999999V0200501N0031199999999020000199+02721+02051101121ADDAA101999999AZ101061AZ201061GA1031+017501031GA2999+999999001GE19MSL   +99999+99999GF104991031999017501999999KA1120N+02041MA1999999096271MD1999999-0121REMSYN004BUFR
0165832360999992016022112004-12156-045008FM-12+043999999V0200501N0015199999999020000199+02571+02101101091ADDAA101999999AZ101061AZ201061GA1011+006001081GA2999+999999031GE19MSL   +99999+99999GF103991011999006001999999KA1120N+02161MA1999999096231MD1999999-0041REMSYN004BUFR
0149832360999992016022212004-12156-045008FM-12+043999999V0200501N0021199999999020000199+02671+01941101111ADDAA101999999AZ101061AZ201061GA1999+080001001GE19MSL   +99999+99999GF102991999999080001999999KA1120N+01981MA1999999096281MD1999999+0051REMSYN004BUFR
0149832360999992016022312004-12156-045008FM-12+043999999V0203201N0010199999999020000199+02641+02001101291ADDAA101999999AZ101061AZ201061GA1999+080001001GE19MSL   +99999+99999GF103991999999080001999999KA1120N+02081MA1999999096441MD1999999+0161REMSYN004BUFR
0149832360999992016022412004-12156-045008FM-12+043999999V0200501N0031199999999020000199+02701+01951101271ADDAA101999999AZ101061AZ201061GA1999+080001001GE19MSL   +99999+99999GF101991999999080001999999KA1120N+02011MA1999999096451MD1999999+0011REMSYN004BUFR
0165832360999992016022512004-12156-045008FM-12+043999999V0200501N0031199999999020000199+02791+01981101041ADDAA101999999AZ101061AZ201061GA1011+017501051GA2999+999999001GE19MSL   +99999+99999GF103991011999017501999999KA1120N+02131MA1999999096251MD1999999-0201REMSYN004BUFR
0165832360999992016022612004-12156-045008FM-12+043999999V0200501N0021199999999020000199+02791+01921101041ADDAA101999999AZ101061AZ201061GA1021+006001081GA2999+999999001GE19MSL   +99999+99999GF103991021999006001999999KA1120N+02261MA1999999096211MD1999999-0041REMSYN004BUFR
0149832360999992016022712004-12156-045008FM-12+043999999V0203201N0005199999999020000199+02641+02001101201ADDAA101999999AZ101061AZ201061GA1011+017501051GE19MSL   +99999+99999GF101991011999017501999999KA1120N+02101MA1999999096391MD1999999+0181REMSYN004BUFR
0165832360999992016022812004-12156-045008FM-12+043999999V0203601N0000199999999020000199+02691+02011101141ADDAA101999999AZ101061AZ201061GA1011+017501051GA2999+999999001GE19MSL   +99999+99999GF103991011999017501999999KA1120N+02051MA1999999096321MD1999999-0071REMSYN004BUFR
0165832360999992016022912004-12156-045008FM-12+043999999V0203601N0000199999999020000199+02621+02031101131ADDAA101999999AZ101061AZ201061GA1021+017501051GA2999+999999001GE19MSL   +99999+99999GF103991021999017501999999KA1120N+02101MA1999999096301MD1999999-0021REMSYN004BUFR
0149832360999992016030112004-12156-045008FM-12+043999999V0202301N0015199999999020000199+02641+02021101251ADDAA101999999AZ101061AZ201061GA1999+080001001GE19MSL   +99999+99999GF102991999999080001999999KA1120N+02101MA1999999096391MD1999999+0091REMSYN004BUFR
0165832360999992016030212004-12156-045008FM-12+043999999V0200501N0021199999999020000199+02801+01911101181ADDAA101999999AZ101061AZ201061GA1021+017501051GA2999+999999001GE19MSL   +99999+99999GF103991021999017501999999KA1120N+02171MA1999999096361MD1999999-0031REMSYN004BUFR
0136832360999992016030300004-12156-045008FM-12+043999999V0203601N0000199999999020000199+02921+02141100901ADDAA101999999AZ101061AZ201061GA1041+017501031GE19MSL   +99999+99999GF104991041999017501999999MA1999999096101MD1999999+0111REMSYN004BUFR
0181832360999992016030312004-12156-045008FM-12+043999999V0203201N0031199999999020000199+02701+01881101241ADDAA101999999AZ101061AZ201061GA1031+006001081GA2999+999999051GA3999+999999001GE19MSL   +99999+99999GF106991031999006001999999KA1120N+02151MA1999999096421MD1999999+0061REMSYN004BUFR
0136832360999992016030400004-12156-045008FM-12+043999999V0203601N0000199999999020000199+02771+02091100921ADDAA101999999AZ101061AZ201061GA1031+017501031GE19MSL   +99999+99999GF103991031999017501999999MA1999999096101MD1999999+0001REMSYN004BUFR
0165832360999992016030412004-12156-045008FM-12+043999999V0201401N0010199999999020000199+02721+01981101071ADDAA101999999AZ101061AZ201061GA1021+006001081GA2999+999999031GE19MSL   +99999+99999GF106991021999006001999999KA1120N+02131MA1999999096241MD1999999-0181REMSYN004BUFR
0136832360999992016030500004-12156-045008FM-12+043999999V0203601N0000199999999020000199+02921+02031100751ADDAA101999999AZ101061AZ201061GA1041+017501031GE19MSL   +99999+99999GF104991041999017501999999MA1999999095951MD1999999-0151REMSYN004BUFR
0165832360999992016030512004-12156-045008FM-12+043999999V0203201N0010199999999020000199+02921+02141101111ADDAA101999999AZ101061AZ201061GA1021+006001081GA2999+999999031GE19MSL   +99999+99999GF105991021999006001999999KA1120N+02431MA1999999096321MD1999999+0081REMSYN004BUFR
0171832360999992016030612004-12156-045008FM-12+043999999V0202301N0005199999999020000199+02441+02151101331ADDAA124058031AY161061AY261061GA1031+006001061GA2999+999999001GE19MSL   +99999+99999GF106991031999006001999999KA1120N+02201MA1999999096411MD1999999+0091MW1031REMSYN004BUFR
0165832360999992016030712004-12156-045008FM-12+043999999V0200501N0015199999999020000199+02591+02231101261ADDAA101999999AZ101061AZ201061GA1031+006001081GA2999+999999031GE19MSL   +99999+99999GF106991031999006001999999KA1120N+02321MA1999999096381MD1999999-0031REMSYN004BUFR
0136832360999992016030800004-12156-045008FM-12+043999999V0202301N0005199999999020000199+02641+02251101041ADDAA101999999AZ101061AZ201061GA1031+006001081GE19MSL   +99999+99999GF103991031999006001999999MA1999999096181MD1999999-0041REMSYN004BUFR
0165832360999992016030812004-12156-045008FM-12+043999999V0202301N0010199999999020000199+02671+02111101161ADDAA101999999AZ101061AZ201061GA1031+006001061GA2999+999999001GE19MSL   +99999+99999GF106991031999006001999999KA1120N+02261MA1999999096311MD1999999-0071REMSYN004BUFR
0136832360999992016030900004-12156-045008FM-12+043999999V0202301N0010199999999020000199+02721+02341101191ADDAA101999999AZ101061AZ201061GA1041+006001081GE19MSL   +99999+99999GF104991041999006001999999MA1999999096021MD1999999-0161REMSYN004BUFR
0165832360999992016030912004-12156-045008FM-12+043999999V0203601N0000199999999020000199+02641+01921101121ADDAA101999999AZ101061AZ201061GA1011+006001081GA2999+999999001GE19MSL   +99999+99999GF103991011999006001999999KA1120N+02171MA1999999096281MD1999999-0031REMSYN004BUFR
0136832360999992016031000004-12156-045008FM-12+043999999V0202301N0015199999999020000199+02641+02291100931ADDAA101999999AZ101061AZ201061GA1031+006001081GE19MSL   +99999+99999GF103991031999006001999999MA1999999096081MD1999999+0061REMSYN004BUFR
0165832360999992016031012004-12156-045008FM-12+043999999V0202301N0005199999999020000199+02541+02111101181ADDAA101999999AZ101061AZ201061GA1021+006001081GA2999+999999001GE19MSL   +99999+99999GF103991021999006001999999KA1120N+02201MA1999999096321MD1999999+0041REMSYN004BUFR
0136832360999992016031100004-12156-045008FM-12+043999999V0203201N0010199999999020000199+02591+02191101021ADDAA101999999AZ101061AZ201061GA1021+006001081GE19MSL   +99999+99999GF102991021999006001999999MA1999999096151MD1999999+0071REMSYN004BUFR
0165832360999992016031112004-12156-045008FM-12+043999999V0202301N0010199999999020000199+02641+02121101221ADDAA101999999AZ101061AZ201061GA1021+006001081GA2999+999999001GE19MSL   +99999+99999GF104991021999006001999999KA1120N+02221MA1999999096351MD1999999+0031REMSYN004BUFR
0136832360999992016031200004-12156-045008FM-12+043999999V0202301N0005199999999020000199+02591+02231101131ADDAA101999999AZ101061AZ201061GA1041+006001081GE19MSL   +99999+99999GF104991041999006001999999MA1999999096271MD1999999+0121REMSYN004BUFR
0149832360999992016031212004-12156-045008FM-12+043999999V0200501N0015100600199020000199+02491+02211101461ADDAA101999999AZ101061AZ201061GA1061+006001091GE19MSL   +99999+99999GF106991061999006001999999KA1120N+02251MA1999999096501MD1999999+0151REMSYN004BUFR
0165832360999992016031312004-12156-045008FM-12+043999999V0202301N0010199999999020000199+02551+02211101311ADDAA101999999AZ101061AZ201061GA1041+006001081GA2999+999999001GE19MSL   +99999+99999GF106991041999006001999999KA1120N+02251MA1999999096431MD1999999-0071REMSYN004BUFR
0165832360999992016031412004-12156-045008FM-12+043999999V0202701N0005199999999020000199+02541+02191101371ADDAA124012031AZ101061AZ201061GA1031+017501031GA2999+999999001GE19MSL   +99999+99999GF104991031999017501999999KA1120N+02171MA1999999096481MD1999999+0051REMSYN004BUFR
0136832360999992016031500004-12156-045008FM-12+043999999V0202301N0010199999999020000199+02621+02141101091ADDAA101999999AZ101061AZ201061GA1021+006001081GE19MSL   +99999+99999GF102991021999006001999999MA1999999096231MD1999999-0131REMSYN004BUFR
0165832360999992016031512004-12156-045008FM-12+043999999V0203201N0005199999999020000199+02571+02081101371ADDAA101999999AZ101061AZ201061GA1041+006001081GA2999+999999001GE19MSL   +99999+99999GF106991041999006001999999KA1120N+02081MA1999999096501MD1999999+0021REMSYN004BUFR
0136832360999992016031600004-12156-045008FM-12+043999999V0202301N0005199999999020000199+02501+02231101151ADDAA101999999AZ101061AZ201061GA1011+006001081GE19MSL   +99999+99999GF101991011999006001999999MA1999999096281MD1999999+0051REMSYN004BUFR
0165832360999992016031612004-12156-045008FM-12+043999999V0202301N0015199999999020000199+02621+02051101441ADDAA101999999AZ101061AZ201061GA1031+006001081GA2999+999999001GE19MSL   +99999+99999GF104991031999006001999999KA1120N+02191MA1999999096551MD1999999+0051REMSYN004BUFR
0136832360999992016031700004-12156-045008FM-12+043999999V0203601N0000199999999020000199+02521+02171101171ADDAA101999999AZ101061AZ201061GA1031+006001081GE19MSL   +99999+99999GF103991031999006001999999MA1999999096301MD1999999+0021REMSYN004BUFR
0149832360999992016031712004-12156-045008FM-12+043999999V0201401N0005199999999020000199+02571+01901101351ADDAA101999999AZ101061AZ201061GA1999+080001001GE19MSL   +99999+99999GF101991999999080001999999KA1120N+02061MA1999999096471MD1999999-0081REMSYN004BUFR
0136832360999992016031800004-12156-045008FM-12+043999999V0202301N0010100600199020000199+02651+02201101061ADDAA101999999AZ101061AZ201061GA1051+006001081GE19MSL   +99999+99999GF105991051999006001999999MA1999999096201MD1999999-0101REMSYN004BUFR
0111832360999992016031812004-12156-045008FM-12+043999999V0203601N0000122000199020000199+02501+02051101321ADDAA101999999AZ101061AZ201061GF100991999999999999999999KA1120N+02051MA1999999096451MD1999999-0021REMSYN004BUFR
0136832360999992016031900004-12156-045008FM-12+043999999V0200501N0021199999999020000199+02951+02051100961ADDAA101999999AZ101061AZ201061GA1021+017501031GE19MSL   +99999+99999GF102991021999017501999999MA1999999096141MD1999999-0061REMSYN004BUFR
0165832360999992016031912004-12156-045008FM-12+043999999V0203601N0000199999999020000199+02641+02141101211ADDAA101999999AZ101061AZ201061GA1011+017501031GA2999+999999001GE19MSL   +99999+99999GF103991011999017501999999KA1120N+02131MA1999999096391MD1999999-0061REMSYN004BUFR
0165832360999992016032012004-12156-045008FM-12+043999999V0202301N0015199999999020000199+02571+02171101151ADDAA101999999AZ101061AZ201061GA1031+006001081GA2999+999999001GE19MSL   +99999+99999GF106991031999006001999999KA1120N+02271MA1999999096311MD1999999-0081REMSYN004BUFR
0165832360999992016032112004-12156-045008FM-12+043999999V0203201N0015199999999020000199+02751+02191101221ADDAA101999999AZ101061AZ201061GA1041+006001081GA2999+999999001GE19MSL   +99999+99999GF106991041999006001999999KA1120N+02301MA1999999096421MD1999999+0111REMSYN004BUFR
0152832360999992016032200004-12156-045008FM-12+043999999V0201801N0010199999999020000199+02541+02331101111ADDAA101999999AZ101061AZ201061GA1031+006001081GA2999+999999001GE19MSL   +99999+99999GF105991031999006001999999MA1999999096261MD1999999+0161REMSYN004BUFR
0149832360999992016032212004-12156-045008FM-12+043999999V0200501N0015199999999020000199+02671+02111101391ADDAA101999999AZ101061AZ201061GA1999+080001001GE19MSL   +99999+99999GF101991999999080001999999KA1120N+02141MA1999999096521MD1999999+0101REMSYN004BUFR
0165832360999992016032412004-12156-045008FM-12+043999999V0203601N0000199999999020000199+02741+01991101151ADDAA101999999AZ101061AZ201061GA1011+006001081GA2999+999999001GE19MSL   +99999+99999GF102991011999006001999999KA1120N+02131MA1999999096311MD1999999+0001REMSYN004BUFR
0171832360999992016032512004-12156-045008FM-12+043999999V0203601N0000199999999020000199+02621+02231101171ADDAA124010031AY161061AY261061GA1031+006001081GA2999+999999001GE19MSL   +99999+99999GF104991031999006001999999KA1120N+02281MA1999999096331MD1999999+0021MW1021REMSYN004BUFR
0165832360999992016032612004-12156-045008FM-12+043999999V0202301N0005199999999020000199+02751+02221101291ADDAA101999999AZ101061AZ201061GA1021+006001081GA2999+999999001GE19MSL   +99999+99999GF104991021999006001999999KA1120N+02211MA1999999096441MD1999999+0111REMSYN004BUFR
0165832360999992016032712004-12156-045008FM-12+043999999V0201401N0010199999999020000199+02671+02061101221ADDAA101999999AZ101061AZ201061GA1021+017501051GA2999+999999001GE19MSL   +99999+99999GF103991021999017501999999KA1120N+02141MA1999999096371MD1999999-0071REMSYN004BUFR
0165832360999992016032812004-12156-045008FM-12+043999999V0202301N0015199999999020000199+02721+01981101251ADDAA101999999AZ101061AZ201061GA1011+006001081GA2999+999999001GE19MSL   +99999+99999GF103991011999006001999999KA1120N+02251MA1999999096391MD1999999+0021REMSYN004BUFR
0165832360999992016032912004-12156-045008FM-12+043999999V0202301N0005199999999020000199+02651+01871101341ADDAA101999999AZ101061AZ201061GA1011+006001081GA2999+999999001GE19MSL   +99999+99999GF102991011999006001999999KA1120N+02041MA1999999096471MD1999999+0081REMSYN004BUFR
0165832360999992016033012004-12156-045008FM-12+043999999V0202301N0005199999999020000199+02621+01961101431ADDAA101999999AZ101061AZ201061GA1031+006001081GA2999+999999001GE19MSL   +99999+99999GF104991031999006001999999KA1120N+02041MA1999999096551MD1999999+0081REMSYN004BUFR
0165832360999992016033112004-12156-045008FM-12+043999999V0202301N0005199999999020000199+02651+02161101451ADDAA101999999AZ101061AZ201061GA1031+006001081GA2999+999999001GE19MSL   +99999+99999GF105991031999006001999999KA1120N+02201MA1999999096581MD1999999+0031REMSYN004BUFR
0165832360999992016040112004-12156-045008FM-12+043999999V0203601N0000199999999020000199+02521+01811101301ADDAA101999999AZ101061AZ201061GA1041+006001061GA2999+999999001GE19MSL   +99999+99999GF106991041999006001999999KA1120N+02041MA1999999096431MD1999999-0151REMSYN004BUFR
0165832360999992016040212004-12156-045008FM-12+043999999V0202301N0010199999999020000199+02441+01791101201ADDAA101999999AZ101061AZ201061GA1041+006001061GA2999+999999001GE19MSL   +99999+99999GF106991041999006001999999KA1120N+02111MA1999999096311MD1999999-0121REMSYN004BUFR
0165832360999992016040312004-12156-045008FM-12+043999999V0201401N0010199999999020000199+02591+02011101261ADDAA101999999AZ101061AZ201061GA1031+017501051GA2999+999999001GE19MSL   +99999+99999GF105991031999017501999999KA1120N+02091MA1999999096371MD1999999+0061REMSYN004BUFR
0165832360999992016040412004-12156-045008FM-12+043999999V0203601N0000199999999020000199+02741+02071101381ADDAA101999999AZ101061AZ201061GA1041+006001051GA2999+999999001GE19MSL   +99999+99999GF106991041999006001999999KA1120N+02191MA1999999096541MD1999999+0171REMSYN004BUFR
0136832360999992016040500004-12156-045008FM-12+043999999V0202301N0010199999999020000199+02621+02181101081ADDAA101999999AZ101061AZ201061GA1021+017501051GE19MSL   +99999+99999GF102991021999017501999999MA1999999096241MD1999999+0041REMSYN004BUFR
0149832360999992016040512004-12156-045008FM-12+043999999V0202301N0010199999999020000199+02721+01951101391ADDAA101999999AZ101061AZ201061GA1999+080001001GE19MSL   +99999+99999GF102991999999080001999999KA1120N+02121MA1999999096531MD1999999-0011REMSYN004BUFR
0136832360999992016040600004-12156-045008FM-12+043999999V0202301N0010199999999020000199+02501+02071101011ADDAA101999999AZ101061AZ201061GA1021+017501031GE19MSL   +99999+99999GF102991021999017501999999MA1999999096151MD1999999-0091REMSYN004BUFR
0165832360999992016040612004-12156-045008FM-12+043999999V0202301N0005199999999020000199+02591+01821101471ADDAA101999999AZ101061AZ201061GA1031+017501051GA2999+999999001GE19MSL   +99999+99999GF105991031999017501999999KA1120N+02011MA1999999096351MD1999999-0181REMSYN004BUFR
0136832360999992016040700004-12156-045008FM-12+043999999V0203601N0000199999999020000199+02621+02121100861ADDAA101999999AZ101061AZ201061GA1999+080001001GE19MSL   +99999+99999GF102991999999080001999999MA1999999096011MD1999999-0141REMSYN004BUFR
0165832360999992016040712004-12156-045008FM-12+043999999V0202301N0010199999999020000199+02671+01891101111ADDAA101999999AZ101061AZ201061GA1011+017501031GA2999+999999001GE19MSL   +99999+99999GF102991011999017501999999KA1120N+02041MA1999999096261MD1999999-0091REMSYN004BUFR
0136832360999992016040800004-12156-045008FM-12+043999999V0202301N0005199999999020000199+02671+02061100761ADDAA101999999AZ101061AZ201061GA1999+080001001GE19MSL   +99999+99999GF102991999999080001999999MA1999999095951MD1999999-0061REMSYN004BUFR
0165832360999992016040812004-12156-045008FM-12+043999999V0200501N0015199999999020000199+02791+02001101011ADDAA101999999AZ101061AZ201061GA1031+017501081GA2999+999999031GE19MSL   +99999+99999GF105991031999017501999999KA1120N+02331MA1999999096181MD1999999-0081REMSYN004BUFR
0136832360999992016040900004-12156-045008FM-12+043999999V0200501N0015199999999020000199+02821+02211100741ADDAA101999999AZ101061AZ201061GA1021+006001081GE19MSL   +99999+99999GF102991021999006001999999MA1999999095941MD1999999-0011REMSYN004BUFR
0149832360999992016040912004-12156-045008FM-12+043999999V0202301N0005199999999020000199+02701+02191101001ADDAA101999999AZ101061AZ201061GA1011+017501031GE19MSL   +99999+99999GF101991011999017501999999KA1120N+02211MA1999999096171MD1999999-0011REMSYN004BUFR
0155832360999992016041012004-12156-045008FM-12+043999999V0202301N0015100600199020000199+02391+02261101141ADDAA124007031AY191061AY261061GA1071+006001061GE19MSL   +99999+99999GF107991071999006001999999KA1120N+02271MA1999999096271MD1999999+0101MW1621REMSYN004BUFR
0165832360999992016041112004-12156-045008FM-12+043999999V020999999999999999999020000199+02651+02241101111ADDAA124003031AZ101061AZ201061GA1041+006001081GA2999+999999001GE19MSL   +99999+99999GF106991041999006001999999KA1120N+02351MA1999999096261MD1999999-0011REMSYN004BUFR
0165832360999992016050112004-12156-045008FM-12+043999999V0203601N0000199999999020000199+02741+01871101231ADDAA101999999AZ101061AZ201061GA1021+017501031GA2999+999999001GE19MSL   +99999+99999GF103991021999017501999999KA1120N+02211MA1999999096361MD1999999+0001REMSYN004BUFR
0165832360999992016050212004-12156-045008FM-12+043999999V0203201N0010199999999020000199+02751+01991101231ADDAA101999999AZ101061AZ201061GA1011+017501031GA2999+999999001GE19MSL   +99999+99999GF104991011999017501999999KA1120N+02241MA1999999096391MD1999999+0031REMSYN004BUFR
0142832360999992016050300004-12156-045008FM-12+043999999V0203601N0000199999999020000199+02601+02351101101ADDAA106003031AY161061AY261061GA1041+006001081GE19MSL   +99999+99999GF104991041999006001999999MA1999999096261MD1999999+0151MW1031REMSYN004BUFR
0165832360999992016050312004-12156-045008FM-12+043999999V0201401N0021199999999020000199+02591+01891101461ADDAA124003031AZ101061AZ201061GA1011+017501051GA2999+999999001GE19MSL   +99999+99999GF104991011999017501999999KA1120N+02171MA1999999096581MD1999999+0191REMSYN004BUFR
0098832360999992016050400004-12156-045008FM-12+043999999V0202301N0010122000199020000199+02471+01871101171ADDAA101999999AZ101061AZ201061GF100991999999999999999999MA1999999096301MD1999999+0041REMSYN004BUFR
0165832360999992016050412004-12156-045008FM-12+043999999V0202301N0015101750199020000199+02471+01681101491ADDAA101999999AZ101061AZ201061GA1051+017501031GA2999+999999001GE19MSL   +99999+99999GF106991051999017501999999KA1120N+02001MA1999999096591MD1999999+0011REMSYN004BUFR
0136832360999992016050500004-12156-045008FM-12+043999999V0202301N0005100600199020000199+02551+02041101111ADDAA101999999AZ101061AZ201061GA1051+006001081GE19MSL   +99999+99999GF105991051999006001999999MA1999999096231MD1999999-0071REMSYN004BUFR
0165832360999992016050512004-12156-045008FM-12+043999999V0203601N0000199999999020000199+02601+01771101431ADDAA101999999AZ101061AZ201061GA1021+017501051GA2999+999999001GE19MSL   +99999+99999GF104991021999017501999999KA1120N+01991MA1999999096551MD1999999-0041REMSYN004BUFR
0136832360999992016050600004-12156-045008FM-12+043999999V0202301N0015199999999020000199+02441+01971101201ADDAA101999999AZ101061AZ201061GA1021+006001081GE19MSL   +99999+99999GF102991021999006001999999MA1999999096331MD1999999+0101REMSYN004BUFR
0165832360999992016050612004-12156-045008FM-12+043999999V0203601N0000199999999020000199+02601+01781101461ADDAA101999999AZ101061AZ201061GA1021+017501081GA2999+999999001GE19MSL   +99999+99999GF103991021999017501999999KA1120N+01931MA1999999096571MD1999999+0021REMSYN004BUFR
0136832360999992016050700004-12156-045008FM-12+043999999V0202301N0015199999999020000199+02351+01851101211ADDAA101999999AZ101061AZ201061GA1021+017501051GE19MSL   +99999+99999GF102991021999017501999999MA1999999096331MD1999999+0001REMSYN004BUFR
0165832360999992016050712004-12156-045008FM-12+043999999V0202301N0005199999999020000199+02441+01631101451ADDAA101999999AZ101061AZ201061GA1011+017501031GA2999+999999001GE19MSL   +99999+99999GF102991011999017501999999KA1120N+01841MA1999999096531MD1999999-0091REMSYN004BUFR
0149832360999992016050812004-12156-045008FM-12+043999999V0200501N0005199999999020000199+02521+01651101411ADDAA101999999AZ101061AZ201061GA1999+080001001GE19MSL   +99999+99999GF101991999999080001999999KA1120N+01821MA1999999096511MD1999999-0021REMSYN004BUFR
0149832360999992016050912004-12156-045008FM-12+043999999V0203201N0005199999999020000199+02451+01661101341ADDAA101999999AZ101061AZ201061GA1999+080001001GE19MSL   +99999+99999GF102991999999080001999999KA1120N+01781MA1999999096461MD1999999-0051REMSYN004BUFR
0098832360999992016051000004-12156-045008FM-12+043999999V0202301N0015122000199020000199+02391+01501101111ADDAA101999999AZ101061AZ201061GF100991999999999999999999MA1999999096221MD1999999+0081REMSYN004BUFR
0149832360999992016051012004-12156-045008FM-12+043999999V0202301N0005199999999020000199+02291+01431101411ADDAA101999999AZ101061AZ201061GA1999+080001001GE19MSL   +99999+99999GF102991999999080001999999KA1120N+01631MA1999999096491MD1999999+0031REMSYN004BUFR
0098832360999992016051100004-12156-045008FM-12+043999999V0200501N0015122000199020000199+02441+01681101141ADDAA101999999AZ101061AZ201061GF100991999999999999999999MA1999999096241MD1999999+0021REMSYN004BUFR
0149832360999992016051112004-12156-045008FM-12+043999999V0202301N0010199999999020000199+02421+01571101411ADDAA101999999AZ101061AZ201061GA1999+080001001GE19MSL   +99999+99999GF102991999999080001999999KA1120N+01741MA1999999096511MD1999999+0021REMSYN004BUFR
0098832360999992016051200004-12156-045008FM-12+043999999V0203601N0000122000199020000199+02401+01881101101ADDAA101999999AZ101061AZ201061GF100991999999999999999999MA1999999096201MD1999999-0041REMSYN004BUFR
0165832360999992016051212004-12156-045008FM-12+043999999V0202301N0005199999999020000199+02321+01491101451ADDAA101999999AZ101061AZ201061GA1011+006001081GA2999+999999001GE19MSL   +99999+99999GF102991011999006001999999KA1120N+01701MA1999999096531MD1999999+0021REMSYN004BUFR
0136832360999992016051300004-12156-045008FM-12+043999999V0202301N0010199999999020000199+02441+01711101121ADDAA101999999AZ101061AZ201061GA1011+006001081GE19MSL   +99999+99999GF101991011999006001999999MA1999999096221MD1999999+0021REMSYN004BUFR
0165832360999992016051312004-12156-045008FM-12+043999999V0203601N0000199999999020000199+02341+01471101451ADDAA101999999AZ101061AZ201061GA1011+006001081GA2999+999999001GE19MSL   +99999+99999GF103991011999006001999999KA1120N+01631MA1999999096541MD1999999+0011REMSYN004BUFR
0136832360999992016051400004-12156-045008FM-12+043999999V0203601N0000199999999020000199+02541+01911101191ADDAA101999999AZ101061AZ201061GA1031+006001031GE19MSL   +99999+99999GF103991031999006001999999MA1999999096301MD1999999+0081REMSYN004BUFR
0165832360999992016051412004-12156-045008FM-12+043999999V0203601N0000199999999020000199+02451+01711101501ADDAA101999999AZ101061AZ201061GA1011+017501051GA2999+999999001GE19MSL   +99999+99999GF103991011999017501999999KA1120N+01801MA1999999096601MD1999999+0061REMSYN004BUFR
0165832360999992016051512004-12156-045008FM-12+043999999V0202301N0005199999999020000199+02541+01781101541ADDAA101999999AZ101061AZ201061GA1021+006001081GA2999+999999001GE19MSL   +99999+99999GF104991021999006001999999KA1120N+01981MA1999999096651MD1999999+0051REMSYN004BUFR
0165832360999992016051612004-12156-045008FM-12+043999999V0203601N0000199999999020000199+02521+01691101671ADDAA101999999AZ101061AZ201061GA1011+006001081GA2999+999999001GE19MSL   +99999+99999GF103991011999006001999999KA1120N+01841MA1999999096751MD1999999+0101REMSYN004BUFR
0098832360999992016051700004-12156-045008FM-12+043999999V0202301N0005122000199020000199+02321+01721101221ADDAA101999999AZ101061AZ201061GF100991999999999999999999MA1999999096321MD1999999-0081REMSYN004BUFR
0165832360999992016051712004-12156-045008FM-12+043999999V0203601N0000199999999020000199+02371+01581101421ADDAA101999999AZ101061AZ201061GA1011+017501051GA2999+999999001GE19MSL   +99999+99999GF103991011999017501999999KA1120N+01651MA1999999096501MD1999999-0251REMSYN004BUFR
0136832360999992016051800004-12156-045008FM-12+043999999V0203601N0000199999999020000199+02301+01741101121ADDAA101999999AZ101061AZ201061GA1021+017501031GE19MSL   +99999+99999GF102991021999017501999999MA1999999096211MD1999999-0111REMSYN004BUFR
0165832360999992016051812004-12156-045008FM-12+043999999V0202301N0010199999999020000199+02321+01381101401ADDAA101999999AZ101061AZ201061GA1011+017501051GA2999+999999001GE19MSL   +99999+99999GF103991011999017501999999KA1120N+01661MA1999999096461MD1999999-0041REMSYN004BUFR
0152832360999992016051900004-12156-045008FM-12+043999999V0202301N0010199999999020000199+02401+01721101111ADDAA101999999AZ101061AZ201061GA1021+017501051GA2999+999999001GE19MSL   +99999+99999GF105991021999017501999999MA1999999096201MD1999999-0011REMSYN004BUFR
0165832360999992016051912004-12156-045008FM-12+043999999V0203601N0000199999999020000199+02421+01511101391ADDAA101999999AZ101061AZ201061GA1021+006001091GA2999+999999051GE19MSL   +99999+99999GF106991021999006001999999KA1120N+01811MA1999999096481MD1999999+0021REMSYN004BUFR
0136832360999992016052000004-12156-045008FM-12+043999999V0202301N0010199999999020000199+02641+01771101201ADDAA101999999AZ101061AZ201061GA1021+017501031GE19MSL   +99999+99999GF102991021999017501999999MA1999999096291MD1999999+0091REMSYN004BUFR
0165832360999992016052012004-12156-045008FM-12+043999999V0200501N0010199999999020000199+02591+01651101601ADDAA101999999AZ101061AZ201061GA1011+006001081GA2999+999999001GE19MSL   +99999+99999GF103991011999006001999999KA1120N+01971MA1999999096721MD1999999+0241REMSYN004BUFR
0136832360999992016052100004-12156-045008FM-12+043999999V0201401N0026101750199020000199+02541+01311101401ADDAA101999999AZ101061AZ201061GA1061+017501031GE19MSL   +99999+99999GF106991061999017501999999MA1999999096521MD1999999+0231REMSYN004BUFR
0165832360999992016052112004-12156-045008FM-12+043999999V0200501N0010199999999020000199+02491+01671101711ADDAA101999999AZ101061AZ201061GA1021+017501051GA2999+999999001GE19MSL   +99999+99999GF105991021999017501999999KA1120N+01731MA1999999096801MD1999999+0081REMSYN004BUFR
0149832360999992016052212004-12156-045008FM-12+043999999V0202301N0015199999999020000199+02191+01411101651ADDAA101999999AZ101061AZ201061GA1999+080001001GE19MSL   +99999+99999GF102991999999080001999999KA1120N+01531MA1999999096681MD1999999-0121REMSYN004BUFR
0165832360999992016052312004-12156-045008FM-12+043999999V0203601N0000199999999020000199+02321+01471101661ADDAA101999999AZ101061AZ201061GA1031+017501051GA2999+999999001GE19MSL   +99999+99999GF106991031999017501999999KA1120N+02181MA1999999096711MD1999999+0031REMSYN004BUFR
0152832360999992016052400004-12156-045008FM-12+043999999V0201401N0010199999999020000199+02401+01731101421ADDAA101999999AZ101061AZ201061GA1031+017501051GA2999+999999001GE19MSL   +99999+99999GF105991031999017501999999MA1999999096501MD1999999+0071REMSYN004BUFR
0111832360999992016052412004-12156-045008FM-12+043999999V0202301N0005122000199020000199+02361+01541101601ADDAA101999999AZ101061AZ201061GF100991999999999999999999KA1120N+01641MA1999999096671MD1999999-0041REMSYN004BUFR
0165832360999992016052512004-12156-045008FM-12+043999999V0200501N0041199999999020000199+02561+01751101631ADDAA101999999AZ101061AZ201061GA1041+017501031GA2999+999999001GE19MSL   +99999+99999GF106991041999017501999999KA1120N+01911MA1999999096731MD1999999+0061REMSYN004BUFR
0165832360999992016052612004-12156-045008FM-12+043999999V0200501N0026199999999020000199+02501+01641101551ADDAA101999999AZ101061AZ201061GA1021+006001081GA2999+999999001GE19MSL   +99999+99999GF106991021999006001999999KA1120N+02121MA1999999096691MD1999999-0041REMSYN004BUFR
0111832360999992016052712004-12156-045008FM-12+043999999V0203601N0000122000199020000199+02511+01551101581ADDAA101999999AZ101061AZ201061GF100991999999999999999999KA1120N+01791MA1999999096681MD1999999-0011REMSYN004BUFR
0165832360999992016052812004-12156-045008FM-12+043999999V0203601N0000199999999020000199+02521+01341101681ADDAA101999999AZ101061AZ201061GA1021+006001081GA2999+999999001GE19MSL   +99999+99999GF104991021999006001999999KA1120N+01811MA1999999096751MD1999999+0071REMSYN004BUFR
0165832360999992016052912004-12156-045008FM-12+043999999V0203601N0000199999999020000199+02171+01421101651ADDAA101999999AZ101061AZ201061GA1011+006001081GA2999+999999031GE19MSL   +99999+99999GF106991011999006001999999KA1120N+01771MA1999999096681MD1999999-0071REMSYN004BUFR
0165832360999992016053012004-12156-045008FM-12+043999999V0203601N0000199999999020000199+02161+01721101431ADDAA101999999AZ101061AZ201061GA1041+006001061GA2999+999999001GE19MSL   +99999+99999GF106991041999006001999999KA1120N+01921MA1999999096471MD1999999-0201REMSYN004BUFR
0165832360999992016053112004-12156-045008FM-12+043999999V0203601N0000199999999020000199+02371+01681101321ADDAA101999999AZ101061AZ201061GA1021+017501051GA2999+999999001GE19MSL   +99999+99999GF105991021999017501999999KA1120N+01741MA1999999096401MD1999999-0081REMSYN004BUFR
0165832360999992016060112004-12156-045008FM-12+043999999V0203601N0000199999999020000199+02311+01581101311ADDAA101999999AZ101061AZ201061GA1011+006001081GA2999+999999001GE19MSL   +99999+99999GF103991011999006001999999KA1120N+01691MA1999999096401MD1999999+0001REMSYN004BUFR
0149832360999992016060212004-12156-045008FM-12+043999999V0203601N0000199999999020000199+02251+01441101311ADDAA101999999AZ101061AZ201061GA1999+080001001GE19MSL   +99999+99999GF102991999999080001999999KA1120N+01601MA1999999096381MD1999999-0021REMSYN004BUFR
0165832360999992016060312004-12156-045008FM-12+043999999V0203601N0000199999999020000199+02211+01511101321ADDAA101999999AZ101061AZ201061GA1031+017501051GA2999+999999001GE19MSL   +99999+99999GF106991031999017501999999KA1120N+02121MA1999999096381MD1999999+0001REMSYN004BUFR
0165832360999992016060412004-12156-045008FM-12+043999999V0203601N0000199999999020000199+02301+01481101361ADDAA101999999AZ101061AZ201061GA1011+006001081GA2999+999999001GE19MSL   +99999+99999GF103991011999006001999999KA1120N+01681MA1999999096421MD1999999+0041REMSYN004BUFR
0165832360999992016060512004-12156-045008FM-12+043999999V0202301N0005199999999020000199+02221+01411101401ADDAA101999999AZ101061AZ201061GA1021+017501051GA2999+999999001GE19MSL   +99999+99999GF104991021999017501999999KA1120N+01581MA1999999096441MD1999999+0021REMSYN004BUFR
0149832360999992016060612004-12156-045008FM-12+043999999V0203601N0000199999999020000199+02401+01551101371ADDAA101999999AZ101061AZ201061GA1999+080001001GE19MSL   +99999+99999GF101991999999080001999999KA1120N+01741MA1999999096451MD1999999+0011REMSYN004BUFR
0136832360999992016060700004-12156-045008FM-12+043999999V0203601N0000199999999020000199+02371+01751101071ADDAA101999999AZ101061AZ201061GA1011+017501031GE19MSL   +99999+99999GF101991011999017501999999MA1999999096171MD1999999+0101REMSYN004BUFR
0165832360999992016060712004-12156-045008FM-12+043999999V0203601N0000199999999020000199+02501+01641101391ADDAA101999999AZ101061AZ201061GA1011+006001081GA2999+999999001GE19MSL   +99999+99999GF102991011999006001999999KA1120N+01841MA1999999096491MD1999999+0041REMSYN004BUFR
0136832360999992016060800004-12156-045008FM-12+043999999V0203601N0000199999999020000199+02501+01841101031ADDAA101999999AZ101061AZ201061GA1031+006001081GE19MSL   +99999+99999GF103991031999006001999999MA1999999096151MD1999999-0021REMSYN004BUFR
0165832360999992016060812004-12156-045008FM-12+043999999V0202301N0010199999999020000199+02571+01821101381ADDAA101999999AZ101061AZ201061GA1011+006001081GA2999+999999001GE19MSL   +99999+99999GF103991011999006001999999KA1120N+01981MA1999999096501MD1999999+0011REMSYN004BUFR
0136832360999992016060900004-12156-045008FM-12+043999999V0201401N0005199999999020000199+02461+01941101161ADDAA101999999AZ101061AZ201061GA1021+017501031GE19MSL   +99999+99999GF102991021999017501999999MA1999999096281MD1999999+0131REMSYN004BUFR
0165832360999992016060912004-12156-045008FM-12+043999999V0203601N0000199999999020000199+02511+01631101501ADDAA101999999AZ101061AZ201061GA1011+006001081GA2999+999999001GE19MSL   +99999+99999GF103991011999006001999999KA1120N+01881MA1999999096601MD1999999+0101REMSYN004BUFR
0136832360999992016061000004-12156-045008FM-12+043999999V0203601N0000199999999020000199+02471+01901101191ADDAA101999999AZ101061AZ201061GA1011+017501031GE19MSL   +99999+99999GF101991011999017501999999MA1999999096361MD1999999+0081REMSYN004BUFR
0165832360999992016061012004-12156-045008FM-12+043999999V0203601N0000199999999020000199+02471+01851101571ADDAA101999999AZ101061AZ201061GA1021+006001081GA2999+999999001GE19MSL   +99999+99999GF103991021999006001999999KA1120N+01961MA1999999096661MD1999999+0061REMSYN004BUFR
0136832360999992016061100004-12156-045008FM-12+043999999V0201401N0005100600199020000199+02751+01831101291ADDAA101999999AZ101061AZ201061GA1061+006001081GE19MSL   +99999+99999GF106991061999006001999999MA1999999096421MD1999999+0061REMSYN004BUFR
0165832360999992016061112004-12156-045008FM-12+043999999V0200501N0021199999999020000199+02671+01781101581ADDAA101999999AZ101061AZ201061GA1021+006001081GA2999+999999031GE19MSL   +99999+99999GF106991021999006001999999KA1120N+02211MA1999999096721MD1999999+0061REMSYN004BUFR
0165832360999992016061212004-12156-045008FM-12+043999999V020999999999999999999020000199+02571+01871101791ADDAA101999999AZ101061AZ201061GA1031+006001061GA2999+999999001GE19MSL   +99999+99999GF106991031999006001999999KA1120N+02141MA1999999096891MD1999999+0171REMSYN004BUFR
0181832360999992016061312004-12156-045008FM-12+043999999V0200501N0026199999999020000199+02801+01871101671ADDAA101999999AZ101061AZ201061GA1021+006001081GA2999+999999031GA3999+999999001GE19MSL   +99999+99999GF105991021999006001999999KA1120N+02311MA1999999096901MD1999999+0011REMSYN004BUFR
0142832360999992016061400004-12156-045008FM-12+043999999V0202301N0015199999999020000199+02451+01901101651ADDAA106002031AY161061AY261061GA1041+006001031GE19MSL   +99999+99999GF104991041999006001999999MA1999999096761MD1999999+0121MW1011REMSYN004BUFR
0181832360999992016061412004-12156-045008FM-12+043999999V0200501N0026199999999020000199+02471+01781101971ADDAA124002031AZ101061AZ201061GA1031+006001081GA2999+999999031GA3999+999999001GE19MSL   +99999+99999GF105991031999006001999999KA1120N+02101MA1999999097041MD1999999+0141REMSYN004BUFR
0136832360999992016061500004-12156-045008FM-12+043999999V0200501N0046199999999020000199+02651+01481101781ADDAA101999999AZ101061AZ201061GA1031+017501031GE19MSL   +99999+99999GF103991031999017501999999MA1999999096881MD1999999+0121REMSYN004BUFR
0149832360999992016061512004-12156-045008FM-12+043999999V0200501N0010199999999020000199+02261+01471102031ADDAA101999999AZ101061AZ201061GA1999+080001001GE19MSL   +99999+99999GF102991999999080001999999KA1120N+01681MA1999999097101MD1999999+0061REMSYN004BUFR
0111832360999992016061612004-12156-045008FM-12+043999999V0202301N0021122000199020000199+02951+01441101971ADDAA101999999AZ101061AZ201061GF100991999999999999999999KA1120N+01661MA1999999097021MD1999999-0081REMSYN004BUFR
0149832360999992016061712004-12156-045008FM-12+043999999V0202301N0010199999999020000199+02301+01201101761ADDAA101999999AZ101061AZ201061GA1999+080001001GE19MSL   +99999+99999GF102991999999080001999999KA1120N+01701MA1999999096801MD1999999-0221REMSYN004BUFR
0149832360999992016061812004-12156-045008FM-12+043999999V0203201N0010199999999020000199+02221+01411101721ADDAA101999999AZ101061AZ201061GA1999+080001001GE19MSL   +99999+99999GF103991999999080001999999KA1120N+01581MA1999999096751MD1999999-0051REMSYN004BUFR
0149832360999992016061912004-12156-045008FM-12+043999999V0202301N0010199999999020000199+02271+01541101741ADDAA101999999AZ101061AZ201061GA1999+080001011GE19MSL   +99999+99999GF101991999999080001999999KA1120N+01611MA1999999096781MD1999999+0031REMSYN004BUFR
0149832360999992016062012004-12156-045008FM-12+043999999V0200501N0015199999999020000199+02461+01581101571ADDAA101999999AZ101061AZ201061GA1021+017501051GE19MSL   +99999+99999GF102991021999017501999999KA1120N+01801MA1999999096681MD1999999-0101REMSYN004BUFR
0111832360999992016062112004-12156-045008FM-12+043999999V0200501N0015122000199020000199+02321+01551101771ADDAA101999999AZ101061AZ201061GF100991999999999999999999KA1120N+01701MA1999999096831MD1999999+0151REMSYN004BUFR
0149832360999992016062212004-12156-045008FM-12+043999999V0202301N0010199999999020000199+02221+01121101831ADDAA101999999AZ101061AZ201061GA1999+080001001GE19MSL   +99999+99999GF102991999999080001999999KA1120N+01571MA1999999096891MD1999999+0061REMSYN004BUFR
0165832360999992016062312004-12156-045008FM-12+043999999V0202301N0005199999999020000199+02161+01321101781ADDAA101999999AZ101061AZ201061GA1021+017501031GA2999+999999001GE19MSL   +99999+99999GF103991021999017501999999KA1120N+01441MA1999999096811MD1999999-0081REMSYN004BUFR
0165832360999992016062412004-12156-045008FM-12+043999999V0203601N0000199999999020000199+02321+01361101651ADDAA101999999AZ101061AZ201061GA1021+017501031GA2999+999999001GE19MSL   +99999+99999GF103991021999017501999999KA1120N+01581MA1999999096701MD1999999-0111REMSYN004BUFR
0149832360999992016062512004-12156-045008FM-12+043999999V0201401N0015199999999020000199+02171+01001101741ADDAA101999999AZ101061AZ201061GA1999+080001001GE19MSL   +99999+99999GF102991999999080001999999KA1120N+01471MA1999999096831MD1999999+0131REMSYN004BUFR
0149832360999992016062612004-12156-045008FM-12+043999999V0201401N0021199999999020000199+02401+01551101851ADDAA101999999AZ101061AZ201061GA1021+006001081GE19MSL   +99999+99999GF102991021999006001999999KA1120N+02031MA1999999096931MD1999999+0101REMSYN004BUFR
0165832360999992016062712004-12156-045008FM-12+043999999V0201401N0031199999999020000199+02221+01271101951ADDAA101999999AZ101061AZ201061GA1021+017501051GA2999+999999001GE19MSL   +99999+99999GF103991021999017501999999KA1120N+01751MA1999999097011MD1999999+0081REMSYN004BUFR
0165832360999992016062812004-12156-045008FM-12+043999999V0201401N0010199999999020000199+02251+01571101971ADDAA101999999AZ101061AZ201061GA1011+006001081GA2999+999999001GE19MSL   +99999+99999GF103991011999006001999999KA1120N+01561MA1999999097011MD1999999+0001REMSYN004BUFR
0149832360999992016062912004-12156-045008FM-12+043999999V0201401N0015100600199020000199+02271+01681101951ADDAA101999999AZ101061AZ201061GA1061+006001081GE19MSL   +99999+99999GF106991061999006001999999KA1120N+01901MA1999999096991MD1999999-0021REMSYN004BUFR
0149832360999992016063012004-12156-045008FM-12+043999999V0201401N0010199999999020000199+02271+01461101821ADDAA101999999AZ101061AZ201061GA1011+006001081GE19MSL   +99999+99999GF101991011999006001999999KA1120N+01551MA1999999096881MD1999999-0111REMSYN004BUFR
0149832360999992016070112004-12156-045008FM-12+043999999V0202301N0015100600199020000199+02021+01461101911ADDAA101999999AZ101061AZ201061GA1061+006001061GE19MSL   +99999+99999GF106991061999006001999999KA1120N+01661MA1999999096921MD1999999+0041REMSYN004BUFR
0165832360999992016070212004-12156-045008FM-12+043999999V0203201N0005199999999020000199+02251+01231101881ADDAA101999999AZ101061AZ201061GA1021+006001081GA2999+999999001GE19MSL   +99999+99999GF104991021999006001999999KA1120N+01701MA1999999096921MD1999999+0001REMSYN004BUFR
0111832360999992016070312004-12156-045008FM-12+043999999V0202301N0005122000199020000199+02271+01361101901ADDAA101999999AZ101061AZ201061GF100991999999999999999999KA1120N+01841MA1999999096951MD1999999+0031REMSYN004BUFR
0111832360999992016070412004-12156-045008FM-12+043999999V0203601N0000122000199020000199+02251+01541101911ADDAA101999999AZ101061AZ201061GF100991999999999999999999KA1120N+01701MA1999999096961MD1999999+0011REMSYN004BUFR
0149832360999992016070512004-12156-045008FM-12+043999999V0200501N0026199999999020000199+02521+01521101861ADDAA101999999AZ101061AZ201061GA1041+006001081GE19MSL   +99999+99999GF104991041999006001999999KA1120N+01891MA1999999096961MD1999999+0001REMSYN004BUFR
0149832360999992016070612004-12156-045008FM-12+043999999V0200501N0031199999999020000199+02401+01631101781ADDAA101999999AZ101061AZ201061GA1031+006001081GE19MSL   +99999+99999GF103991031999006001999999KA1120N+01751MA1999999096831MD1999999-0131REMSYN004BUFR
0111832360999992016070712004-12156-045008FM-12+043999999V0203601N0000122000199020000199+02221+01351101721ADDAA101999999AZ101061AZ201061GF100991999999999999999999KA1120N+01591MA1999999096761MD1999999-0071REMSYN004BUFR
0098832360999992016070800004-12156-045008FM-12+043999999V0201401N0005122000199020000199+02171+01441101471ADDAA101999999AZ101061AZ201061GF100991999999999999999999MA1999999096511MD1999999-0091REMSYN004BUFR
0111832360999992016070812004-12156-045008FM-12+043999999V0203601N0000122000199020000199+02051+01151101821ADDAA101999999AZ101061AZ201061GF100991999999999999999999KA1120N+01351MA1999999096831MD1999999+0071REMSYN004BUFR
0136832360999992016070900004-12156-045008FM-12+043999999V0203601N0000101750199020000199+02201+01391101511ADDAA101999999AZ101061AZ201061GA1061+017501031GE19MSL   +99999+99999GF106991061999017501999999MA1999999096531MD1999999+0021REMSYN004BUFR
0181832360999992016070912004-12156-045008FM-12+043999999V0203601N0000199999999020000199+02221+01221101741ADDAA101999999AZ101061AZ201061GA1999+080001081GA2999+999999031GA3999+999999001GE19MSL   +99999+99999GF102991999999080001999999KA1120N+01521MA1999999096771MD1999999-0061REMSYN004BUFR
0149832360999992016071012004-12156-045008FM-12+043999999V0203201N0005199999999020000199+02371+01531101701ADDAA101999999AZ101061AZ201061GA1031+017501031GE19MSL   +99999+99999GF103991031999017501999999KA1120N+01681MA1999999096771MD1999999+0001REMSYN004BUFR
0111832360999992016071112004-12156-045008FM-12+043999999V0200501N0036122000199020000199+02321+01551101581ADDAA101999999AZ101061AZ201061GF100991999999999999999999KA1120N+01781MA1999999096651MD1999999-0121REMSYN004BUFR
0136832360999992016071200004-12156-045008FM-12+043999999V020999999999999999999020000199+02211+01511101221ADDAA101999999AZ101061AZ201061GA1021+050001031GE19MSL   +99999+99999GF102991021999050001999999MA1999999096281MD1999999-0091REMSYN004BUFR
0165832360999992016071212004-12156-045008FM-12+043999999V0203601N0000199999999020000199+02201+01281101601ADDAA101999999AZ101061AZ201061GA1011+050001031GA2999+999999001GE19MSL   +99999+99999GF103991011999050001999999KA1120N+01431MA1999999096641MD1999999-0011REMSYN004BUFR
0098832360999992016071300004-12156-045008FM-12+043999999V0201401N0005122000199020000199+02321+01251101331ADDAA101999999AZ101061AZ201061GF100991999999999999999999MA1999999096391MD1999999+0111REMSYN004BUFR
0149832360999992016071312004-12156-045008FM-12+043999999V0203601N0000199999999020000199+02121+01281101581ADDAA101999999AZ101061AZ201061GA1999+080001001GE19MSL   +99999+99999GF102991999999080001999999KA1120N+01441MA1999999096621MD1999999-0021REMSYN004BUFR
0098832360999992016071400004-12156-045008FM-12+043999999V0203601N0000122000199020000199+02251+01481101331ADDAA101999999AZ101061AZ201061GF100991999999999999999999MA1999999096381MD1999999-0011REMSYN004BUFR
0111832360999992016071412004-12156-045008FM-12+043999999V0200501N0005122000199020000199+02201+01281101521ADDAA101999999AZ101061AZ201061GF100991999999999999999999KA1120N+01451MA1999999096561MD1999999-0061REMSYN004BUFR
0098832360999992016071500004-12156-045008FM-12+043999999V0201401N0005122000199020000199+02271+01121101191ADDAA101999999AZ101061AZ201061GF100991999999999999999999MA1999999096251MD1999999-0131REMSYN004BUFR
0111832360999992016071512004-12156-045008FM-12+043999999V0202301N0005122000199020000199+02201+01141101451ADDAA101999999AZ101061AZ201061GF100991999999999999999999KA1120N+01371MA1999999096501MD1999999-0061REMSYN004BUFR
0098832360999992016071600004-12156-045008FM-12+043999999V0202301N0010122000199020000199+02201+01411101151ADDAA101999999AZ101061AZ201061GF100991999999999999999999MA1999999096211MD1999999-0041REMSYN004BUFR
0111832360999992016071612004-12156-045008FM-12+043999999V0203601N0000122000199020000199+02001+01071101481ADDAA101999999AZ101061AZ201061GF100991999999999999999999KA1120N+01291MA1999999096501MD1999999+0001REMSYN004BUFR
0111832360999992016071712004-12156-045008FM-12+043999999V0203601N0000122000199020000199+01951+01091101541ADDAA101999999AZ101061AZ201061GF100991999999999999999999KA1120N+01241MA1999999096541MD1999999+0041REMSYN004BUFR
0111832360999992016071812004-12156-045008FM-12+043999999V0202301N0015122000199020000199+02151+01011101451ADDAA101999999AZ101061AZ201061GF100991999999999999999999KA1120N+01321MA1999999096481MD1999999-0061REMSYN004BUFR
0136832360999992016071900004-12156-045008FM-12+043999999V0202301N0010101750199020000199+02311+01251101261ADDAA101999999AZ101061AZ201061GA1061+017501031GE19MSL   +99999+99999GF106991061999017501999999MA1999999096321MD1999999+0101REMSYN004BUFR
0111832360999992016071912004-12156-045008FM-12+043999999V0203601N0000122000199020000199+02251+01021101621ADDAA101999999AZ101061AZ201061GF100991999999999999999999KA1120N+01451MA1999999096661MD1999999+0181REMSYN004BUFR
0136832360999992016072000004-12156-045008FM-12+043999999V0203601N0000105000199020000199+02311+01551101281ADDAA101999999AZ101061AZ201061GA1061+050001031GE19MSL   +99999+99999GF106991061999050001999999MA1999999096341MD1999999+0021REMSYN004BUFR
0111832360999992016072012004-12156-045008FM-12+043999999V0200501N0031122000199020000199+02501+01291101551ADDAA101999999AZ101061AZ201061GF100991999999999999999999KA1120N+01601MA1999999096631MD1999999-0031REMSYN004BUFR
0136832360999992016072100004-12156-045008FM-12+043999999V0201401N0015101750199020000199+02501+01351101221ADDAA101999999AZ101061AZ201061GA1061+017501031GE19MSL   +99999+99999GF106991061999017501999999MA1999999096341MD1999999+0001REMSYN004BUFR
0111832360999992016072112004-12156-045008FM-12+043999999V0200501N0041122000199020000199+02421+01421101531ADDAA101999999AZ101061AZ201061GF100991999999999999999999KA1120N+01861MA1999999096621MD1999999-0011REMSYN004BUFR
0136832360999992016072200004-12156-045008FM-12+043999999V0201401N0005199999999020000199+02411+01431101201ADDAA101999999AZ101061AZ201061GA1031+017501031GE19MSL   +99999+99999GF103991031999017501999999MA1999999096301MD1999999-0041REMSYN004BUFR
0165832360999992016072212004-12156-045008FM-12+043999999V0200501N0031199999999020000199+02511+01401101461ADDAA101999999AZ101061AZ201061GA1011+006001081GA2999+999999001GE19MSL   +99999+99999GF104991011999006001999999KA1120N+01691MA1999999096551MD1999999-0071REMSYN004BUFR
0136832360999992016072300004-12156-045008FM-12+043999999V0203201N0015100600199020000199+02501+01621101171ADDAA101999999AZ101061AZ201061GA1051+006001081GE19MSL   +99999+99999GF105991051999006001999999MA1999999096291MD1999999-0011REMSYN004BUFR
0149832360999992016072312004-12156-045008FM-12+043999999V0200501N0015199999999020000199+02461+01351101611ADDAA101999999AZ101061AZ201061GA1999+080001001GE19MSL   +99999+99999GF103991999999080001999999KA1120N+01891MA1999999096711MD1999999+0161REMSYN004BUFR
0165832360999992016072412004-12156-045008FM-12+043999999V0201401N0005199999999020000199+02301+01431101791ADDAA101999999AZ101061AZ201061GA1011+006001081GA2999+999999001GE19MSL   +99999+99999GF102991011999006001999999KA1120N+01651MA1999999096871MD1999999+0161REMSYN004BUFR
0149832360999992016072512004-12156-045008FM-12+043999999V0202301N0010199999999020000199+02411+01461101621ADDAA101999999AZ101061AZ201061GA1011+006001081GE19MSL   +99999+99999GF101991011999006001999999KA1120N+01781MA1999999096711MD1999999-0161REMSYN004BUFR
0136832360999992016072600004-12156-045008FM-12+043999999V0201401N0010101750199020000199+02461+01291101301ADDAA101999999AZ101061AZ201061GA1051+017501031GE19MSL   +99999+99999GF105991051999017501999999MA1999999096401MD1999999-0071REMSYN004BUFR
0149832360999992016072612004-12156-045008FM-12+043999999V0203201N0005101750199020000199+02361+01511101651ADDAA101999999AZ101061AZ201061GA1061+017501031GE19MSL   +99999+99999GF106991061999017501999999KA1120N+01601MA1999999096731MD1999999+0021REMSYN004BUFR
0136832360999992016072700004-12156-045008FM-12+043999999V0203601N0000199999999020000199+02201+01441101401ADDAA101999999AZ101061AZ201061GA1031+017501031GE19MSL   +99999+99999GF103991031999017501999999MA1999999096461MD1999999+0061REMSYN004BUFR
0111832360999992016072712004-12156-045008FM-12+043999999V0200501N0010122000199020000199+02271+01361101741ADDAA101999999AZ101061AZ201061GF100991999999999999999999KA1120N+01491MA1999999096781MD1999999+0051REMSYN004BUFR
0136832360999992016072800004-12156-045008FM-12+043999999V0200501N0031199999999020000199+02511+00911101331ADDAA101999999AZ101061AZ201061GA1021+017501031GE19MSL   +99999+99999GF102991021999017501999999MA1999999096421MD1999999-0041REMSYN004BUFR
0111832360999992016072812004-12156-045008FM-12+043999999V0202301N0005122000199020000199+02171+01181101601ADDAA101999999AZ101061AZ201061GF100991999999999999999999KA1120N+01291MA1999999096671MD1999999-0111REMSYN004BUFR
0136832360999992016072900004-12156-045008FM-12+043999999V0201401N0010199999999020000199+02301+00981101331ADDAA101999999AZ101061AZ201061GA1021+017501031GE19MSL   +99999+99999GF102991021999017501999999MA1999999096391MD1999999-0031REMSYN004BUFR
0111832360999992016072912004-12156-045008FM-12+043999999V0201401N0010122000199020000199+02201+01111101731ADDAA101999999AZ101061AZ201061GF100991999999999999999999KA1120N+01261MA1999999096771MD1999999+0101REMSYN004BUFR
0098832360999992016073000004-12156-045008FM-12+043999999V0201401N0026122000199020000199+02571+00741101391ADDAA101999999AZ101061AZ201061GF100991999999999999999999MA1999999096481MD1999999+0091REMSYN004BUFR
0111832360999992016073012004-12156-045008FM-12+043999999V0200501N0015122000199020000199+02251+01041101761ADDAA101999999AZ101061AZ201061GF100991999999999999999999KA1120N+01781MA1999999096831MD1999999+0061REMSYN004BUFR
0165832360999992016073112004-12156-045008FM-12+043999999V0201401N0051199999999020000199+02411+01151101731ADDAA101999999AZ101061AZ201061GA1011+006001081GA2999+999999001GE19MSL   +99999+99999GF102991011999006001999999KA1120N+01691MA1999999096791MD1999999-0041REMSYN004BUFR
0111832360999992016080112004-12156-045008FM-12+043999999V0203601N0000122000199020000199+02201+01311101731ADDAA101999999AZ101061AZ201061GF100991999999999999999999KA1120N+01561MA1999999096791MD1999999+0001REMSYN004BUFR
0136832360999992016080200004-12156-045008FM-12+043999999V0202301N0010199999999020000199+02251+01141101481ADDAA101999999AZ101061AZ201061GA1031+017501031GE19MSL   +99999+99999GF103991031999017501999999MA1999999096521MD1999999+0051REMSYN004BUFR
0111832360999992016080212004-12156-045008FM-12+043999999V0201401N0015122000199020000199+02151+01131101791ADDAA101999999AZ101061AZ201061GF100991999999999999999999KA1120N+01421MA1999999096821MD1999999+0031REMSYN004BUFR
0098832360999992016080300004-12156-045008FM-12+043999999V0200501N0010122000199020000199+02411+01251101401ADDAA101999999AZ101061AZ201061GF100991999999999999999999MA1999999096461MD1999999-0061REMSYN004BUFR
0111832360999992016080312004-12156-045008FM-12+043999999V0201401N0005122000199020000199+02211+01271101711ADDAA101999999AZ101061AZ201061GF100991999999999999999999KA1120N+01581MA1999999096761MD1999999-0061REMSYN004BUFR
0136832360999992016080400004-12156-045008FM-12+043999999V0203601N0000199999999020000199+02321+01551101421ADDAA101999999AZ101061AZ201061GA1031+050001031GE19MSL   +99999+99999GF103991031999050001999999MA1999999096471MD1999999+0011REMSYN004BUFR
0149832360999992016080412004-12156-045008FM-12+043999999V0200501N0015199999999020000199+02371+01401101701ADDAA101999999AZ101061AZ201061GA1011+006001081GE19MSL   +99999+99999GF101991011999006001999999KA1120N+01651MA1999999096761MD1999999+0001REMSYN004BUFR
0136832360999992016080500004-12156-045008FM-12+043999999V0201401N0021199999999020000199+02601+00981101461ADDAA101999999AZ101061AZ201061GA1041+017501031GE19MSL   +99999+99999GF104991041999017501999999MA1999999096561MD1999999+0091REMSYN004BUFR
0149832360999992016080512004-12156-045008FM-12+043999999V0201401N0005199999999020000199+02321+01181101741ADDAA101999999AZ101061AZ201061GA1999+080001001GE19MSL   +99999+99999GF103991999999080001999999KA1120N+01681MA1999999096821MD1999999+0061REMSYN004BUFR
0136832360999992016080600004-12156-045008FM-12+043999999V0202301N0010199999999020000199+02201+01101101401ADDAA101999999AZ101061AZ201061GA1021+017501031GE19MSL   +99999+99999GF102991021999017501999999MA1999999096451MD1999999-0111REMSYN004BUFR
0149832360999992016080612004-12156-045008FM-12+043999999V0200501N0015199999999020000199+02371+01561101781ADDAA101999999AZ101061AZ201061GA1041+006001081GE19MSL   +99999+99999GF104991041999006001999999KA1120N+01581MA1999999096831MD1999999+0011REMSYN004BUFR
0149832360999992016080712004-12156-045008FM-12+043999999V0203601N0000199999999020000199+02221+01221101791ADDAA101999999AZ101061AZ201061GA1999+080001001GE19MSL   +99999+99999GF102991999999080001999999KA1120N+01421MA1999999096821MD1999999-0011REMSYN004BUFR
0111832360999992016080812004-12156-045008FM-12+043999999V0203201N0005122000199020000199+02251+01281101521ADDAA101999999AZ101061AZ201061GF100991999999999999999999KA1120N+01451MA1999999096591MD1999999-0231REMSYN004BUFR
0098832360999992016080900004-12156-045008FM-12+043999999V0203601N0000122000199020000199+02311+01421101241ADDAA101999999AZ101061AZ201061GF100991999999999999999999MA1999999096321MD1999999-0061REMSYN004BUFR
0111832360999992016080912004-12156-045008FM-12+043999999V0203601N0000122000199020000199+02251+01021101711ADDAA101999999AZ101061AZ201061GF100991999999999999999999KA1120N+01421MA1999999096751MD1999999+0161REMSYN004BUFR
0098832360999992016081000004-12156-045008FM-12+043999999V0202301N0005122000199020000199+02221+01221101291ADDAA101999999AZ101061AZ201061GF100991999999999999999999MA1999999096351MD1999999+0031REMSYN004BUFR
0111832360999992016081012004-12156-045008FM-12+043999999V0203601N0000122000199020000199+02171+01091101561ADDAA101999999AZ101061AZ201061GF100991999999999999999999KA1120N+01381MA1999999096601MD1999999-0151REMSYN004BUFR
0098832360999992016081100004-12156-045008FM-12+043999999V0203601N0000122000199020000199+02301+01141101211ADDAA101999999AZ101061AZ201061GF100991999999999999999999MA1999999096271MD1999999-0081REMSYN004BUFR
0111832360999992016081112004-12156-045008FM-12+043999999V0203601N0000122000199020000199+02271+01031101351ADDAA101999999AZ101061AZ201061GF100991999999999999999999KA1120N+01461MA1999999096421MD1999999-0181REMSYN004BUFR
0136832360999992016081200004-12156-045008FM-12+043999999V0201801N0005199999999020000199+02501+01051101001ADDAA101999999AZ101061AZ201061GA1041+017501031GE19MSL   +99999+99999GF104991041999017501999999MA1999999096111MD1999999-0161REMSYN004BUFR
0165832360999992016081212004-12156-045008FM-12+043999999V0200501N0021199999999020000199+02711+01241101261ADDAA101999999AZ101061AZ201061GA1031+006001081GA2999+999999001GE19MSL   +99999+99999GF105991031999006001999999KA1120N+01711MA1999999096391MD1999999-0031REMSYN004BUFR
0136832360999992016081300004-12156-045008FM-12+043999999V0203601N0000100600199020000199+02701+01511101011ADDAA101999999AZ101061AZ201061GA1051+006001061GE19MSL   +99999+99999GF105991051999006001999999MA1999999096161MD1999999+0051REMSYN004BUFR
0149832360999992016081312004-12156-045008FM-12+043999999V0200501N0021199999999020000199+02621+01371101421ADDAA101999999AZ101061AZ201061GA1999+080001001GE19MSL   +99999+99999GF103991999999080001999999KA1120N+02061MA1999999096551MD1999999+0161REMSYN004BUFR
0165832360999992016081412004-12156-045008FM-12+043999999V0200501N0026199999999020000199+02571+01491101361ADDAA101999999AZ101061AZ201061GA1011+017501051GA2999+999999001GE19MSL   +99999+99999GF104991011999017501999999KA1120N+02011MA1999999096511MD1999999-0041REMSYN004BUFR
0165832360999992016081512004-12156-045008FM-12+043999999V0200501N0036199999999020000199+02751+01371101221ADDAA101999999AZ101061AZ201061GA1011+017501051GA2999+999999001GE19MSL   +99999+99999GF104991011999017501999999KA1120N+01861MA1999999096411MD1999999-0101REMSYN004BUFR
0136832360999992016081600004-12156-045008FM-12+043999999V0203601N0000199999999020000199+02471+01651100961ADDAA101999999AZ101061AZ201061GA1999+080001001GE19MSL   +99999+99999GF103991999999080001999999MA1999999096111MD1999999-0051REMSYN004BUFR
0165832360999992016081612004-12156-045008FM-12+043999999V0200501N0041199999999020000199+02771+01411101251ADDAA101999999AZ101061AZ201061GA1021+017501051GA2999+999999001GE19MSL   +99999+99999GF105991021999017501999999KA1120N+01991MA1999999096381MD1999999-0031REMSYN004BUFR
0136832360999992016081700004-12156-045008FM-12+043999999V0202301N0005199999999020000199+02471+01571100911ADDAA101999999AZ101061AZ201061GA1031+017501031GE19MSL   +99999+99999GF103991031999017501999999MA1999999096061MD1999999-0051REMSYN004BUFR
0165832360999992016081712004-12156-045008FM-12+043999999V0202301N0010199999999020000199+02621+01501101351ADDAA101999999AZ101061AZ201061GA1031+017501051GA2999+999999001GE19MSL   +99999+99999GF104991031999017501999999KA1120N+01931MA1999999096471MD1999999+0091REMSYN004BUFR
0136832360999992016081800004-12156-045008FM-12+043999999V0202301N0005199999999020000199+02621+01461101071ADDAA101999999AZ101061AZ201061GA1041+017501031GE19MSL   +99999+99999GF104991041999017501999999MA1999999096211MD1999999+0151REMSYN004BUFR
0111832360999992016081812004-12156-045008FM-12+043999999V0203601N0000122000199020000199+02771+01411101311ADDAA101999999AZ101061AZ201061GF100991999999999999999999KA1120N+01971MA1999999096461MD1999999-0011REMSYN004BUFR
0136832360999992016081900004-12156-045008FM-12+043999999V0203601N0000199999999020000199+02951+01811100781ADDAA101999999AZ101061AZ201061GA1041+017501031GE19MSL   +99999+99999GF104991041999017501999999MA1999999095991MD1999999-0221REMSYN004BUFR
0149832360999992016081912004-12156-045008FM-12+043999999V0200501N0026199999999020000199+02821+01511101241ADDAA101999999AZ101061AZ201061GA1011+006001081GE19MSL   +99999+99999GF101991011999006001999999KA1120N+02191MA1999999096441MD1999999-0021REMSYN004BUFR
0098832360999992016082000004-12156-045008FM-12+043999999V0200501N0026122000199020000199+03221+01141100861ADDAA101999999AZ101061AZ201061GF100991999999999999999999MA1999999096091MD1999999+0101REMSYN004BUFR
0149832360999992016082012004-12156-045008FM-12+043999999V0200501N0026199999999020000199+02561+01471101391ADDAA101999999AZ101061AZ201061GA1999+080001001GE19MSL   +99999+99999GF102991999999080001999999KA1120N+02201MA1999999096581MD1999999+0141REMSYN004BUFR
0111832360999992016082112004-12156-045008FM-12+043999999V0203601N0000122000199020000199+02401+01291101381ADDAA101999999AZ101061AZ201061GF100991999999999999999999KA1120N+01601MA1999999096471MD1999999-0111REMSYN004BUFR
0149832360999992016082212004-12156-045008FM-12+043999999V0203201N0005199999999020000199+02751+01541101361ADDAA101999999AZ101061AZ201061GA1999+080001001GE19MSL   +99999+99999GF103991999999080001999999KA1120N+01841MA1999999096501MD1999999+0031REMSYN004BUFR
0136832360999992016082300004-12156-045008FM-12+043999999V0202301N0005199999999020000199+02561+01561100981ADDAA101999999AZ101061AZ201061GA1031+006001081GE19MSL   +99999+99999GF103991031999006001999999MA1999999096141MD1999999-0031REMSYN004BUFR
0136832360999992016082400004-12156-045008FM-12+043999999V0202701N0005199999999020000199+03001+01371101071ADDAA101999999AZ101061AZ201061GA1041+006001081GE19MSL   +99999+99999GF104991041999006001999999MA1999999096261MD1999999+0121REMSYN004BUFR
0181832360999992016082412004-12156-045008FM-12+043999999V0201401N0046199999999020000199+02651+01651101581ADDAA101999999AZ101061AZ201061GA1021+006001081GA2999+999999031GA3999+999999001GE19MSL   +99999+99999GF104991021999006001999999KA1120N+02181MA1999999096741MD1999999+0211REMSYN004BUFR
0136832360999992016082500004-12156-045008FM-12+043999999V0200501N0041199999999020000199+02961+01421101251ADDAA101999999AZ101061AZ201061GA1041+006001081GE19MSL   +99999+99999GF104991041999006001999999MA1999999096421MD1999999+0171REMSYN004BUFR
0181832360999992016082512004-12156-045008FM-12+043999999V0200501N0046199999999020000199+02601+01631101561ADDAA101999999AZ101061AZ201061GA1041+006001081GA2999+999999051GA3999+999999001GE19MSL   +99999+99999GF106991041999006001999999KA1120N+02021MA1999999096711MD1999999-0031REMSYN004BUFR
0136832360999992016082600004-12156-045008FM-12+043999999V0201401N0021199999999020000199+02761+01321101191ADDAA101999999AZ101061AZ201061GA1021+006001081GE19MSL   +99999+99999GF102991021999006001999999MA1999999096341MD1999999-0101REMSYN004BUFR
0165832360999992016082612004-12156-045008FM-12+043999999V0200501N0015199999999020000199+02451+01581101521ADDAA101999999AZ101061AZ201061GA1031+017501051GA2999+999999001GE19MSL   +99999+99999GF105991031999017501999999KA1120N+01941MA1999999096641MD1999999-0071REMSYN004BUFR
0136832360999992016082700004-12156-045008FM-12+043999999V0203601N0000199999999020000199+02751+01661101121ADDAA101999999AZ101061AZ201061GA1031+050001081GE19MSL   +99999+99999GF103991031999050001999999MA1999999096261MD1999999-0081REMSYN004BUFR
0165832360999992016082712004-12156-045008FM-12+043999999V0200501N0021199999999020000199+02611+01461101441ADDAA101999999AZ101061AZ201061GA1011+017501051GA2999+999999001GE19MSL   +99999+99999GF103991011999017501999999KA1120N+01931MA1999999096581MD1999999-0061REMSYN004BUFR
0149832360999992016082812004-12156-045008FM-12+043999999V0200501N0046100600199020000199+02651+01681101481ADDAA101999999AZ101061AZ201061GA1061+006001081GE19MSL   +99999+99999GF106991061999006001999999KA1120N+02181MA1999999096651MD1999999+0071REMSYN004BUFR
0165832360999992016082912004-12156-045008FM-12+043999999V0203601N0000199999999020000199+02361+01261101531ADDAA101999999AZ101061AZ201061GA1021+050001081GA2999+999999051GE19MSL   +99999+99999GF104991021999050001999999KA1120N+01531MA1999999096651MD1999999+0001REMSYN004BUFR
0098832360999992016083000004-12156-045008FM-12+043999999V020999999999922000199020000199+02221+01381101211ADDAA101999999AZ101061AZ201061GF100991999999999999999999MA1999999096291MD1999999+0011REMSYN004BUFR
0165832360999992016083012004-12156-045008FM-12+043999999V0200501N0026199999999020000199+02601+01451101551ADDAA101999999AZ101061AZ201061GA1011+017501051GA2999+999999001GE19MSL   +99999+99999GF102991011999017501999999KA1120N+01181MA1999999096631MD1999999-0021REMSYN004BUFR
0136832360999992016083100004-12156-045008FM-12+043999999V0203601N0000199999999020000199+02361+01351101091ADDAA101999999AZ101061AZ201061GA1011+017501081GE19MSL   +99999+99999GF101991011999017501999999MA1999999096191MD1999999-0101REMSYN004BUFR
0149832360999992016083112004-12156-045008FM-12+043999999V0200501N0046199999999020000199+02701+01411101411ADDAA101999999AZ101061AZ201061GA1999+080001001GE19MSL   +99999+99999GF103991999999080001999999KA1120N+01811MA1999999096531MD1999999-0101REMSYN004BUFR
0136832360999992016090100004-12156-045008FM-12+043999999V0203601N0000199999999020000199+02551+01541101091ADDAA101999999AZ101061AZ201061GA1031+017501031GE19MSL   +99999+99999GF103991031999017501999999MA1999999096241MD1999999+0041REMSYN004BUFR
0149832360999992016090112004-12156-045008FM-12+043999999V0200501N0041199999999020000199+02701+01441101471ADDAA101999999AZ101061AZ201061GA1999+080001001GE19MSL   +99999+99999GF102991999999080001999999KA1120N+01991MA1999999096591MD1999999+0061REMSYN004BUFR
0111832360999992016090212004-12156-045008FM-12+043999999V0200501N0026122000199020000199+02651+01391101501ADDAA101999999AZ101061AZ201061GF100991999999999999999999KA1120N+01861MA1999999096651MD1999999+0061REMSYN004BUFR
0165832360999992016090312004-12156-045008FM-12+043999999V0200501N0036199999999020000199+02671+01391101651ADDAA101999999AZ101061AZ201061GA1011+006001081GA2999+999999031GE19MSL   +99999+99999GF104991011999006001999999KA1120N+02101MA1999999096785MD1999999+0131REMSYN004BUFR
0165832360999992016090412004-12156-045008FM-12+043999999V0200501N0015199999999020000199+02561+01471101641ADDAA101999999AZ101061AZ201061GA1011+006001081GA2999+999999001GE19MSL   +99999+99999GF102991011999006001999999KA1120N+02061MA1999999096751MD1999999-0031REMSYN004BUFR
0080832360999992016090418004-12156-045008FM-12+043999999V020999999999999999999000600199+99999+99999999999ADDGA1999+001001999GE19MSL   +99999+99999GF102991999999001001999999REMSYN004BUFR
0149832360999992016090512004-12156-045008FM-12+043999999V0200501N0046199999999020000199+02751+01461101571ADDAA101999999AZ101061AZ201061GA1021+017501031GE19MSL   +99999+99999GF102991021999017501999999KA1120N+02181MA1999999096751MD1999999+0001REMSYN004BUFR
0149832360999992016090612004-12156-045008FM-12+043999999V0200501N0021101750199020000199+02601+01511101551ADDAA101999999AZ101061AZ201061GA1061+017501031GE19MSL   +99999+99999GF106991061999017501999999KA1120N+02391MA1999999096711MD1999999-0041REMSYN004BUFR
0149832360999992016090712004-12156-045008FM-12+043999999V0200501N0026199999999020000199+02671+01391101501ADDAA101999999AZ101061AZ201061GA1999+080001001GE19MSL   +99999+99999GF102991999999080001999999KA1120N+01941MA1999999096611MD1999999-0101REMSYN004BUFR
0149832360999992016090812004-12156-045008FM-12+043999999V0200501N0041199999999020000199+02751+01321101351ADDAA101999999AZ101061AZ201061GA1999+080001001GE19MSL   +99999+99999GF102991999999080001999999KA1120N+01701MA1999999096471MD1999999-0141REMSYN004BUFR
0149832360999992016090912004-12156-045008FM-12+043999999V0200501N0026199999999020000199+02651+01331101371ADDAA101999999AZ101061AZ201061GA1999+080001001GE19MSL   +99999+99999GF102991999999080001999999KA1120N+01821MA1999999096551MD1999999+0081REMSYN004BUFR
0165832360999992016091012004-12156-045008FM-12+043999999V0200501N0041199999999020000199+02601+01411101701ADDAA101999999AZ101061AZ201061GA1011+017501051GA2999+999999001GE19MSL   +99999+99999GF102991011999017501999999KA1120N+01911MA1999999096831MD1999999+0281REMSYN004BUFR
0165832360999992016091112004-12156-045008FM-12+043999999V0200501N0031199999999020000199+02711+01321101601ADDAA101999999AZ101061AZ201061GA1011+017501051GA2999+999999001GE19MSL   +99999+99999GF102991011999017501999999KA1120N+01791MA1999999096741MD1999999-0091REMSYN004BUFR
0165832360999992016091212004-12156-045008FM-12+043999999V0202301N0010199999999020000199+02611+01191101351ADDAA101999999AZ101061AZ201061GA1021+017501051GA2999+999999001GE19MSL   +99999+99999GF103991021999017501999999KA1120N+01651MA1999999096481MD1999999-0261REMSYN004BUFR
0165832360999992016091312004-12156-045008FM-12+043999999V0200501N0041199999999020000199+02751+01181101331ADDAA101999999AZ101061AZ201061GA1021+006001081GA2999+999999001GE19MSL   +99999+99999GF103991021999006001999999KA1120N+01931MA1999999096481MD1999999+0001REMSYN004BUFR
0165832360999992016091412004-12156-045008FM-12+043999999V0200501N0036199999999020000199+02771+01261101351ADDAA101999999AZ101061AZ201061GA1021+006001081GA2999+999999001GE19MSL   +99999+99999GF103991021999006001999999KA1120N+02001MA1999999096521MD1999999+0041REMSYN004BUFR
0111832360999992016091512004-12156-045008FM-12+043999999V0200501N0057122000199020000199+02711+01421101241ADDAA101999999AZ101061AZ201061GF100991999999999999999999KA1120N+02021MA1999999096371MD1999999-0151REMSYN004BUFR
0165832360999992016091612004-12156-045008FM-12+043999999V0200501N0036199999999020000199+02921+01261101221ADDAA101999999AZ101061AZ201061GA1021+017501051GA2999+999999001GE19MSL   +99999+99999GF104991021999017501999999KA1120N+01781MA1999999096381MD1999999+0011REMSYN004BUFR
0165832360999992016091712004-12156-045008FM-12+043999999V0200501N0031199999999020000199+02871+01351101231ADDAA101999999AZ101061AZ201061GA1011+017501051GA2999+999999001GE19MSL   +99999+99999GF103991011999017501999999KA1120N+01981MA1999999096441MD1999999+0061REMSYN004BUFR
0165832360999992016091812004-12156-045008FM-12+043999999V0200501N0021199999999020000199+02771+01411101271ADDAA101999999AZ101061AZ201061GA1021+017501051GA2999+999999001GE19MSL   +99999+99999GF104991021999017501999999KA1120N+01861MA1999999096491MD1999999+0051REMSYN004BUFR
0149832360999992016091912004-12156-045008FM-12+043999999V0200501N0057199999999020000199+02811+01331101231ADDAA101999999AZ101061AZ201061GA1999+080001001GE19MSL   +99999+99999GF102991999999080001999999KA1120N+02011MA1999999096441MD1999999-0051REMSYN004BUFR
0149832360999992016092012004-12156-045008FM-12+043999999V0200501N0041199999999020000199+02951+01151101131ADDAA101999999AZ101061AZ201061GA1999+080001001GE19MSL   +99999+99999GF102991999999080001999999KA1120N+01961MA1999999096291MD1999999-0151REMSYN004BUFR
0149832360999992016092112004-12156-045008FM-12+043999999V0200501N0041199999999020000199+03021+01021101021ADDAA101999999AZ101061AZ201061GA1999+080001001GE19MSL   +99999+99999GF101991999999080001999999KA1120N+01711MA1999999096191MD1999999-0101REMSYN004BUFR
0165832360999992016092212004-12156-045008FM-12+043999999V0203601N0000199999999020000199+02801+01531101081ADDAA101999999AZ101061AZ201061GA1031+006001091GA2999+999999031GE19MSL   +99999+99999GF106991031999006001999999KA1120N+02151MA1999999096241MD1999999+0051REMSYN004BUFR
0165832360999992016092312004-12156-045008FM-12+043999999V0200501N0046199999999020000199+02771+01821101401ADDAA101999999AZ101061AZ201061GA1011+006001081GA2999+999999031GE19MSL   +99999+99999GF106991011999006001999999KA1120N+02251MA1999999096601MD1999999+0361REMSYN004BUFR
0165832360999992016092412004-12156-045008FM-12+043999999V0200501N0021199999999020000199+02671+01861101451ADDAA101999999AZ101061AZ201061GA1041+017501031GA2999+999999001GE19MSL   +99999+99999GF106991041999017501999999KA1120N+02261MA1999999096551MD1999999-0051REMSYN004BUFR
0165832360999992016092512004-12156-045008FM-12+043999999V0202301N0010199999999020000199+02671+01921101151ADDAA101999999AZ101061AZ201061GA1031+006001081GA2999+999999031GE19MSL   +99999+99999GF106991031999006001999999KA1120N+02301MA1999999096311MD1999999-0241REMSYN004BUFR
0187832360999992016092612004-12156-045008FM-12+043999999V0203601N0000100600199020000199+02301+02161101411ADDAA124004031AY161061AY261061GA1081+006001061GA2999+999999101GA3999+999999101GE19MSL   +99999+99999GF108991081999006001999999KA1120N+02241MA1999999096471MD1999999+0161MW1511REMSYN004BUFR
0155832360999992016092712004-12156-045008FM-12+043999999V0203601N0000100600199020000199+02401+02151101351ADDAA124011031AY161061AY261061GA1061+006001061GE19MSL   +99999+99999GF106991061999006001999999KA1120N+02231MA1999999096441MD1999999-0031MW1031REMSYN004BUFR
0165832360999992016092812004-12156-045008FM-12+043999999V0200501N0026199999999020000199+02671+01991101321ADDAA101999999AZ101061AZ201061GA1021+017501031GA2999+999999001GE19MSL   +99999+99999GF104991021999017501999999KA1120N+02211MA1999999096461MD1999999+0021REMSYN004BUFR
0149832360999992016092912004-12156-045008FM-12+043999999V0202301N0005199999999020000199+02551+01911101271ADDAA124000231AZ101061AZ201061GA1041+006001051GE19MSL   +99999+99999GF104991041999006001999999KA1120N+02061MA1999999096361MD1999999-0101REMSYN004BUFR
0165832360999992016093012004-12156-045008FM-12+043999999V0200501N0046199999999020000199+02821+01881100991ADDAA101999999AZ101061AZ201061GA1021+017501051GA2999+999999001GE19MSL   +99999+99999GF104991021999017501999999KA1120N+02171MA1999999096181MD1999999-0181REMSYN004BUFR
0165832360999992016100112004-12156-045008FM-12+043999999V0203601N0000199999999020000199+02771+01761101181ADDAA101999999AZ101061AZ201061GA1021+006001081GA2999+999999031GE19MSL   +99999+99999GF106991021999006001999999KA1120N+02271MA1999999096381MD1999999+0201REMSYN004BUFR
0165832360999992016100212004-12156-045008FM-12+043999999V0200501N0026199999999020000199+03061+01801101081ADDAA101999999AZ101061AZ201061GA1021+017501051GA2999+999999001GE19MSL   +99999+99999GF104991021999017501999999KA1120N+02401MA1999999096301MD1999999-0081REMSYN004BUFR
0149832360999992016100312004-12156-045008FM-12+043999999V0200501N0015199999999020000199+02921+01641101081ADDAA101999999AZ101061AZ201061GA1011+006001081GE19MSL   +99999+99999GF101991011999006001999999KA1120N+02171MA1999999096311MD1999999+0011REMSYN004BUFR
0098832360999992016100400004-12156-045008FM-12+043999999V0200501N0010122000199020000199+02951+01681100601ADDAA101999999AZ101061AZ201061GF100991999999999999999999MA1999999095841MD1999999-0141REMSYN004BUFR
0165832360999992016100412004-12156-045008FM-12+043999999V0200501N0031199999999020000199+02811+01741100951ADDAA101999999AZ101061AZ201061GA1021+017501051GA2999+999999001GE19MSL   +99999+99999GF104991021999017501999999KA1120N+02421MA1999999096161MD1999999-0151REMSYN004BUFR
0142832360999992016100500004-12156-045008FM-12+043999999V0201401N0026199999999020000199+02571+01991100841ADDAA106004031AY161061AY261061GA1041+006001091GE19MSL   +99999+99999GF104991041999006001999999MA1999999096011MD1999999+0171MW1031REMSYN004BUFR
0171832360999992016100512004-12156-045008FM-12+043999999V0202301N0015199999999020000199+02501+01941101131ADDAA124004031AY161061AY261061GA1021+006001081GA2999+999999031GE19MSL   +99999+99999GF106991021999006001999999KA1120N+02461MA1999999096261MD1999999+0101MW1031REMSYN004BUFR
0152832360999992016100600004-12156-045008FM-12+043999999V0201401N0010199999999020000199+02721+01921100591ADDAA101999999AZ101061AZ201061GA1021+006001081GA2999+999999031GE19MSL   +99999+99999GF105991021999006001999999MA1999999095751MD1999999-0261REMSYN004BUFR
0155832360999992016100612004-12156-045008FM-12+043999999V0200501N0036100600199020000199+02551+02061100801ADDAA124000531AY151061AY251061GA1071+006001061GE19MSL   +99999+99999GF107991071999006001999999KA1120N+02371MA1999999095961MD1999999-0301MW1501REMSYN004BUFR
0142832360999992016100700004-12156-045008FM-12+043999999V0200501N0041199999999020000199+02361+02031100751ADDAA106001031AY161061AY261061GA1041+006001081GE19MSL   +99999+99999GF104991041999006001999999MA1999999095881MD1999999+0131MW1031REMSYN004BUFR
0165832360999992016100712004-12156-045008FM-12+043999999V0203601N0000199999999020000199+02571+02081100861ADDAA124001031AZ101061AZ201061GA1021+017501031GA2999+999999001GE19MSL   +99999+99999GF104991021999017501999999KA1120N+02201MA1999999095981MD1999999+0021REMSYN004BUFR
0136832360999992016100800004-12156-045008FM-12+043999999V0200501N0021199999999020000199+02761+02041100601ADDAA101999999AZ101061AZ201061GA1041+006001091GE19MSL   +99999+99999GF104991041999006001999999MA1999999095771MD1999999-0111REMSYN004BUFR
0165832360999992016100812004-12156-045008FM-12+043999999V0200501N0010199999999020000199+02921+02051100861ADDAA101999999AZ101061AZ201061GA1031+006001081GA2999+999999031GE19MSL   +99999+99999GF105991031999006001999999KA1120N+02311MA1999999096061MD1999999+0081REMSYN004BUFR
0187832360999992016100912004-12156-045008FM-12+043999999V0203601N0000100600199020000199+02251+02051101321ADDAA124089031AY161061AY261061GA1051+006001061GA2999+999999051GA3999+999999101GE19MSL   +99999+99999GF108991051999006001999999KA1120N+02101MA1999999096401MD1999999+0341MW1031REMSYN004BUFR
0149832360999992016101012004-12156-045008FM-12+043999999V0203201N0010199999999020000199+02811+02101101211ADDAA101999999AZ101061AZ201061GA1031+017501031GE19MSL   +99999+99999GF103991031999017501999999KA1120N+02311MA1999999096361MD1999999-0041REMSYN004BUFR
0142832360999992016101100004-12156-045008FM-12+043999999V0202701N0015199999999020000199+02421+02171100951ADDAA106002031AY161061AY261061GA1021+017501031GE19MSL   +99999+99999GF102991021999017501999999MA1999999096101MD1999999-0181MW1011REMSYN004BUFR
0149832360999992016101112004-12156-045008FM-12+043999999V0200501N0021199999999020000199+02651+01771101351ADDAA124002031AZ101061AZ201061GA1021+006001081GE19MSL   +99999+99999GF102991021999006001999999KA1120N+02001MA1999999096471MD1999999+0111REMSYN004BUFR
0152832360999992016101200004-12156-045008FM-12+043999999V0200501N0015199999999020000199+02851+01651100911ADDAA101999999AZ101061AZ201061GA1031+006001081GA2999+999999031GE19MSL   +99999+99999GF106991031999006001999999MA1999999096091MD1999999-0011REMSYN004BUFR
0165832360999992016101212004-12156-045008FM-12+043999999V0200501N0051199999999020000199+02721+01641101311ADDAA101999999AZ101061AZ201061GA1021+006001081GA2999+999999001GE19MSL   +99999+99999GF103991021999006001999999KA1120N+02341MA1999999096481MD1999999+0011REMSYN004BUFR
0149832360999992016101312004-12156-045008FM-12+043999999V0200501N0041199999999020000199+02651+01771101381ADDAA101999999AZ101061AZ201061GA1021+006001081GE19MSL   +99999+99999GF102991021999006001999999KA1120N+01981MA1999999096501MD1999999+0021REMSYN004BUFR
0136832360999992016101400004-12156-045008FM-12+043999999V0201401N0015199999999020000199+03001+01451101081ADDAA101999999AZ101061AZ201061GA1021+006001081GE19MSL   +99999+99999GF102991021999006001999999MA1999999096261MD1999999+0011REMSYN004BUFR
0111832360999992016101412004-12156-045008FM-12+043999999V0201401N0015122000199020000199+02721+01781101401ADDAA101999999AZ101061AZ201061GF100991999999999999999999KA1120N+02011MA1999999096581MD1999999+0081REMSYN004BUFR
0111832360999992016101512004-12156-045008FM-12+043999999V0200501N0026122000199020000199+02751+01571101421ADDAA101999999AZ101061AZ201061GF100991999999999999999999KA1120N+01981MA1999999096561MD1999999-0021REMSYN004BUFR
0111832360999992016101612004-12156-045008FM-12+043999999V0200501N0026122000199020000199+02711+01241101251ADDAA101999999AZ101061AZ201061GF100991999999999999999999KA1120N+01821MA1999999096381MD1999999-0181REMSYN004BUFR
0149832360999992016101712004-12156-045008FM-12+043999999V0200501N0041199999999020000199+02771+01441101211ADDAA101999999AZ101061AZ201061GA1999+080001001GE19MSL   +99999+99999GF101991999999080001999999KA1120N+01831MA1999999096341MD1999999-0041REMSYN004BUFR
0136832360999992016101800004-12156-045008FM-12+043999999V0201401N0005199999999020000199+02621+01601100761ADDAA101999999AZ101061AZ201061GA1999+080001001GE19MSL   +99999+99999GF102991999999080001999999MA1999999095941MD1999999-0031REMSYN004BUFR
0149832360999992016101812004-12156-045008FM-12+043999999V0200501N0021100600199020000199+02851+01481101111ADDAA101999999AZ101061AZ201061GA1061+006001081GE19MSL   +99999+99999GF106991061999006001999999KA1120N+01951MA1999999096281MD1999999-0061REMSYN004BUFR
0098832360999992016101900004-12156-045008FM-12+043999999V0201801N0005122000199020000199+02551+01911100841ADDAA101999999AZ101061AZ201061GF100991999999999999999999MA1999999096011MD1999999+0071REMSYN004BUFR
0149832360999992016101912004-12156-045008FM-12+043999999V0200501N0031199999999020000199+03071+01601101001ADDAA101999999AZ101061AZ201061GA1031+017501031GE19MSL   +99999+99999GF103991031999017501999999KA1120N+02041MA1999999096191MD1999999-0091REMSYN004BUFR
0098832360999992016102000004-12156-045008FM-12+043999999V0201401N0005122000199020000199+02871+01731100481ADDAA101999999AZ101061AZ201061GF100991999999999999999999MA1999999095721MD1999999-0291REMSYN004BUFR
0165832360999992016102012004-12156-045008FM-12+043999999V0200501N0036199999999020000199+03011+01861100771ADDAA101999999AZ101061AZ201061GA1021+006001081GA2999+999999031GE19MSL   +99999+99999GF104991021999006001999999KA1120N+02311MA1999999096001MD1999999-0191REMSYN004BUFR
0142832360999992016102100004-12156-045008FM-12+043999999V0202301N0021100600199020000199+02921+01891100691ADDAA101999999AY191061AY291061GA1051+006001091GE19MSL   +99999+99999GF105991051999006001999999MA1999999095921MD1999999+0201MW1131REMSYN004BUFR
0165832360999992016102112004-12156-045008FM-12+043999999V0202301N0021199999999020000199+02711+02121100961ADDAA101999999AZ101061AZ201061GA1031+006001081GA2999+999999001GE19MSL   +99999+99999GF104991031999006001999999KA1120N+02271MA1999999096151MD1999999+0151REMSYN004BUFR
0142832360999992016102200004-12156-045008FM-12+043999999V0203201N0031199999999020000199+02611+01831100811ADDAA101999999AY111061AY211061GA1041+006001091GE19MSL   +99999+99999GF104991041999006001999999MA1999999095971MD1999999+0051MW1131REMSYN004BUFR
0149832360999992016102212004-12156-045008FM-12+043999999V0202301N0010199999999020000199+02771+01981101111ADDAA101999999AZ101061AZ201061GA1999+080001011GE19MSL   +99999+99999GF102991999999080001999999KA1120N+02141MA1999999096271MD1999999+0121REMSYN004BUFR
0165832360999992016102312004-12156-045008FM-12+043999999V0203201N0015199999999020000199+02851+01841101191ADDAA101999999AZ101061AZ201061GA1021+017501031GA2999+999999001GE19MSL   +99999+99999GF103991021999017501999999KA1120N+02211MA1999999096351MD1999999+0081REMSYN004BUFR
0149832360999992016102412004-12156-045008FM-12+043999999V0203201N0026199999999020000199+02871+01671101131ADDAA101999999AZ101061AZ201061GA1999+080001001GE19MSL   +99999+99999GF101991999999080001999999KA1120N+02251MA1999999096311MD1999999-0041REMSYN004BUFR
0098832360999992016102500004-12156-045008FM-12+043999999V0202301N0015122000199020000199+02671+01731100721ADDAA101999999AZ101061AZ201061GF100991999999999999999999MA1999999095911MD1999999-0011REMSYN004BUFR
