0181832420999992016010112004-12558-041389FM-12+043999999V0201801N0015100300199004000199+02671+02201101381ADDAA101999999AZ101061AZ201061GA1081+003001071GA2999+999999101GA3999+999999101GE19MSL   +99999+99999GF108991081999003001999999KA1120N+02151MA1999999096521MD1999999-0211REMSYN004BUFR
0136832420999992016010118004-12558-041389FM-12+043999999V0201401N0015100300199010000199+03591+01811100641ADDAA101999999AZ101061AZ201061GA1061+003001091GE19MSL   +99999+99999GF106991061999003001999999MA1999999095871MD1999999-0331REMSYN004BUFR
0149832420999992016010212004-12558-041389FM-12+043999999V0200901N0026100300199010000199+02821+02191101341ADDAA101999999AZ101061AZ201061GA1051+003001071GE19MSL   +99999+99999GF105991051999003001999999KA1120N+01901MA1999999096521MD1999999+0001REMSYN004BUFR
0136832420999992016010218004-12558-041389FM-12+043999999V0200501N0031199999999010000199+03821+01721100611ADDAA101999999AZ101061AZ201061GA1031+003001091GE19MSL   +99999+99999GF103991031999003001999999MA1999999095861MD1999999-0011REMSYN004BUFR
0149832420999992016010312004-12558-041389FM-12+043999999V0200901N0010199999999010000199+03021+02241101181ADDAA101999999AZ101061AZ201061GA1031+003001091GE19MSL   +99999+99999GF103991031999003001999999KA1120N+02031MA1999999096391MD1999999-0131REMSYN004BUFR
0158832420999992016010318004-12558-041389FM-12+043999999V0202301N0051100300199010000199+03691+02071100531ADDAA101999999AY121061AY221061GA1051+003001071GA2999+999999001GE19MSL   +99999+99999GF106991051999003001999999MA1999999095791MD1999999-0071MW1291REMSYN004BUFR
0155832420999992016010412004-12558-041389FM-12+043999999V0201801N0010100300199004000199+02671+02201101231ADDAA124001031AY161061AY221061GA1071+003001071GE19MSL   +99999+99999GF107991071999003001999999KA1120N+01961MA1999999096411MD1999999+0021MW1021REMSYN004BUFR
0168832420999992016010418004-12558-041389FM-12+043999999V0203601N0041100300199010000199+03391+02401100991ADDAA101999999AZ101061AZ201061GA1081+003001071GA2999+999999101GA3999+999999101GE19MSL   +99999+99999GF108991081999003001999999MA1999999096181MD1999999+0391REMSYN004BUFR
0187832420999992016010512004-12558-041389FM-12+043999999V0200901N0010100300199004000199+02291+01871101611ADDAA124077031AY161061AY221061GA1081+003001071GA2999+999999101GA3999+999999101GE19MSL   +99999+99999GF108991081999003001999999KA1120N+01791MA1999999096681MD1999999+0271MW1101REMSYN004BUFR
0174832420999992016010518004-12558-041389FM-12+043999999V0200901N0015100300199010000199+02921+02291100961ADDAA101999999AY121061AY221061GA1081+003001071GA2999+999999101GA3999+999999101GE19MSL   +99999+99999GF108991081999003001999999MA1999999096081MD1999999+0201MW1171REMSYN004BUFR
0174832420999992016010600004-12558-041389FM-12+043999999V0201401N0026100300199002000199+02321+02271101421ADDAA106007031AY191061AY261061GA1081+003001071GA2999+999999101GA3999+999999101GE19MSL   +99999+99999GF108991081999003001999999MA1999999096471MD1999999+0021MW1101REMSYN004BUFR
0187832420999992016010612004-12558-041389FM-12+043999999V0201801N0015100300199004000199+02221+01841101681ADDAA124027031AY161061AY221061GA1081+003001071GA2999+999999101GA3999+999999101GE19MSL   +99999+99999GF108991081999003001999999KA1120N+01831MA1999999096721MD1999999+0041MW1101REMSYN004BUFR
0193832420999992016010618004-12558-041389FM-12+043999999V0201401N0010100300199010000199+02521+02171999999ADDAA106000231AY151061AY241061GA1081+003001071GA2999+999999101GA3999+999999101GE19MSL   +99999+99999GF108991081999003001999999MA1999999096301MD1999999+0221MW1171REMSYN004BUFREQDQ01 100243APOSLP
0174832420999992016010700004-12558-041389FM-12+043999999V0203601N0041100300199002000199+02141+02061101472ADDAA106009031AY161061AY221061GA1081+003001071GA2999+999999101GA3999+999999101GE19MSL   +99999+99999GF108991081999003001999999MA1999999096501MD1999999+0031MW1131REMSYN004BUFR
0149832420999992016010712004-12558-041389FM-12+043999999V0202301N0015100300199010000199+02301+01851101441ADDAA124010031AZ101061AZ201061GA1071+003001071GE19MSL   +99999+99999GF107991071999003001999999KA1120N+01761MA1999999096481MD1999999-0241REMSYN004BUFR
0168832420999992016010718004-12558-041389FM-12+043999999V0200901N0026100300199010000199+02801+02401100881ADDAA101999999AZ101061AZ201061GA1081+003001071GA2999+999999101GA3999+999999101GE19MSL   +99999+99999GF108991081999003001999999MA1999999095991MD1999999-0311REMSYN004BUFR
0174832420999992016010800004-12558-041389FM-12+043999999V0202701N0026100300199001000199+02351+02261101331ADDAA106013031AY161061AY241061GA1081+003001071GA2999+999999101GA3999+999999101GE19MSL   +99999+99999GF108991081999003001999999MA1999999096401MD1999999-0101MW1211REMSYN004BUFR
0187832420999992016010812004-12558-041389FM-12+043999999V0201801N0005100300199004000199+02271+02251101501ADDAA124019031AY161061AY241061GA1081+003001071GA2999+999999101GA3999+999999101GE19MSL   +99999+99999GF108991081999003001999999KA1120N+01851MA1999999096551MD1999999+0071MW1231REMSYN004BUFR
0174832420999992016010818004-12558-041389FM-12+043999999V0201801N0015100300199004000199+02291+02251101291ADDAA106008031AY161061AY241061GA1081+003001071GA2999+999999101GA3999+999999101GE19MSL   +99999+99999GF108991081999003001999999MA1999999096331MD1999999+0341MW1201REMSYN004BUFR
0174832420999992016010900004-12558-041389FM-12+043999999V0203601N0026100300199001000199+02291+02251101511ADDAA106001031AY161061AY241061GA1081+003001071GA2999+999999101GA3999+999999101GE19MSL   +99999+99999GF108991081999003001999999MA1999999096561MD1999999+0161MW1101REMSYN004BUFR
0181832420999992016010912004-12558-041389FM-12+043999999V0200901N0015100300199004000199+02391+01991101731ADDAA124009031AZ101061AZ201061GA1081+003001071GA2999+999999101GA3999+999999101GE19MSL   +99999+99999GF108991081999003001999999KA1120N+01791MA1999999096781MD1999999+0231REMSYN004BUFR
0168832420999992016010918004-12558-041389FM-12+043999999V0201801N0005100300199010000199+03021+02261101141ADDAA101999999AZ101061AZ201061GA1081+003001071GA2999+999999101GA3999+999999101GE19MSL   +99999+99999GF108991081999003001999999MA1999999096261MD1999999-0071REMSYN004BUFR
0187832420999992016011012004-12558-041389FM-12+043999999V0202301N0015100300199004000199+02391+02091101641ADDAA124002031AY161061AY221061GA1081+003001071GA2999+999999101GA3999+999999101GE19MSL   +99999+99999GF108991081999003001999999KA1120N+01941MA1999999999999MD1999999-0071MW1211REMSYN004BUFR
0142832420999992016011018004-12558-041389FM-12+043999999V0201801N0015100300199010000199+03171+02391101081ADDAA106000331AY151061AY221061GA1071+003001071GE19MSL   +99999+99999GF107991071999003001999999MA1999999096222MD1999999-0041MW1031REMSYN004BUFR
0149832420999992016011112004-12558-041389FM-12+043999999V0201801N0015100300199004000199+02491+02171101751ADDAA124004031AZ101061AZ201061GA1071+003001071GE19MSL   +99999+99999GF107991071999003001999999KA1120N+01921MA1999999096821MD1999999+0111REMSYN004BUFR
0168832420999992016011118004-12558-041389FM-12+043999999V0201801N0005100300199010000199+03071+02071101091ADDAA101999999AZ101061AZ201061GA1081+003001071GA2999+999999101GA3999+999999101GE19MSL   +99999+99999GF108991081999003001999999MA1999999096231MD1999999+0011REMSYN004BUFR
0104832420999992016011200004-12558-041389FM-12+043999999V0200501N0015122000199002000199+02571+02081101201ADDAA101999999AY121061AY211061GF100991999999999999999999MA1999999096321MD1999999-0211MW1051REMSYN004BUFR
0181832420999992016011212004-12558-041389FM-12+043999999V0201801N0010100300199004000199+02521+02151101471ADDAA101999999AZ101061AZ201061GA1081+003001071GA2999+999999101GA3999+999999101GE19MSL   +99999+99999GF108991081999003001999999KA1120N+02021MA1999999096571MD1999999-0251REMSYN004BUFR
0136832420999992016011218004-12558-041389FM-12+043999999V0203601N0015100300199010000199+03171+02411100881ADDAA101999999AZ101061AZ201061GA1061+003001071GE19MSL   +99999+99999GF106991061999003001999999MA1999999096051MD1999999-0181REMSYN004BUFR
0168832420999992016011300004-12558-041389FM-12+043999999V0202301N0031100300199002000199+02821+02121101101ADDAA101999999AZ101061AZ201061GA1081+003001071GA2999+999999101GA3999+999999101GE19MSL   +99999+99999GF108991081999003001999999MA1999999096251MD1999999-0071REMSYN004BUFR
0181832420999992016011312004-12558-041389FM-12+043999999V0202301N0005100300199004000199+02551+02171101421ADDAA101999999AZ101061AZ201061GA1081+003001071GA2999+999999101GA3999+999999101GE19MSL   +99999+99999GF108991081999003001999999KA1120N+02081MA1999999096551MD1999999-0021REMSYN004BUFR
0168832420999992016011318004-12558-041389FM-12+043999999V0201801N0015100300199010000199+02891+02341100941ADDAA101999999AZ101061AZ201061GA1081+003001071GA2999+999999101GA3999+999999101GE19MSL   +99999+99999GF108991081999003001999999MA1999999096081MD1999999+0031REMSYN004BUFR
0174832420999992016011400004-12558-041389FM-12+043999999V0203201N0087100300199002000199+02541+01981101241ADDAA106000431AY121061AY221061GA1081+003001071GA2999+999999101GA3999+999999101GE19MSL   +99999+99999GF108991081999003001999999MA1999999096351MD1999999+0101MW1211REMSYN004BUFR
0187832420999992016011412004-12558-041389FM-12+043999999V0201801N0015100300199004000199+02251+01881101391ADDAA124009031AY161061AY221061GA1081+003001071GA2999+999999101GA3999+999999101GE19MSL   +99999+99999GF108991081999003001999999KA1120N+01791MA1999999096471MD1999999-0081MW1101REMSYN004BUFR
0168832420999992016011418004-12558-041389FM-12+043999999V0200501N0015100300199010000199+03021+02361100991ADDAA101999999AZ101061AZ201061GA1081+003001071GA2999+999999101GA3999+999999101GE19MSL   +99999+99999GF108991081999003001999999MA1999999096121MD1999999+0041REMSYN004BUFR
0187832420999992016011512004-12558-041389FM-12+043999999V0201401N0015100300199004000199+02341+02241101541ADDAA124025031AY161061AY221061GA1081+003001071GA2999+999999101GA3999+999999101GE19MSL   +99999+99999GF108991081999003001999999KA1120N+01821MA1999999096591MD1999999+0121MW1101REMSYN004BUFR
0136832420999992016011518004-12558-041389FM-12+043999999V0201801N0021100300199010000199+02991+02191100941ADDAA101999999AZ101061AZ201061GA1071+003001071GE19MSL   +99999+99999GF107991071999003001999999MA1999999096071MD1999999-0051REMSYN004BUFR
0168832420999992016011600004-12558-041389FM-12+043999999V0201801N0015100300199002000199+02691+02261101121ADDAA101999999AZ101061AZ201061GA1081+003001071GA2999+999999101GA3999+999999101GE19MSL   +99999+99999GF108991081999003001999999MA1999999096241MD1999999-0271REMSYN004BUFR
0181832420999992016011612004-12558-041389FM-12+043999999V0201801N0015100300199004000199+02571+02251101161ADDAA101999999AZ101061AZ201061GA1081+003001071GA2999+999999101GA3999+999999101GE19MSL   +99999+99999GF108991081999003001999999KA1120N+01991MA1999999096301MD1999999-0291REMSYN004BUFR
0168832420999992016011618004-12558-041389FM-12+043999999V0201801N0015100300199010000199+03321+02511100621ADDAA101999999AZ101061AZ201061GA1081+003001071GA2999+999999101GA3999+999999101GE19MSL   +99999+99999GF108991081999003001999999MA1999999095821MD1999999-0241REMSYN004BUFR
0187832420999992016011712004-12558-041389FM-12+043999999V0201801N0010100300199004000199+02341+02281101361ADDAA124029031AY161061AY221061GA1081+003001071GA2999+999999101GA3999+999999101GE19MSL   +99999+99999GF108991081999003001999999KA1120N+01791MA1999999096431MD1999999+0131MW1201REMSYN004BUFR
0168832420999992016011718004-12558-041389FM-12+043999999V0202701N0015100300199010000199+02871+02281100971ADDAA101999999AZ101061AZ201061GA1081+003001071GA2999+999999101GA3999+999999101GE19MSL   +99999+99999GF108991081999003001999999MA1999999096081MD1999999+0261REMSYN004BUFR
0181832420999992016011812004-12558-041389FM-12+043999999V0201801N0010100300199004000199+02371+02131101291ADDAA124015031AZ101061AZ201061GA1081+003001071GA2999+999999101GA3999+999999101GE19MSL   +99999+99999GF108991081999003001999999KA1120N+01771MA1999999096351MD1999999-0081REMSYN004BUFR
0136832420999992016011818004-12558-041389FM-12+043999999V0201801N0015100300199010000199+02871+02391100851ADDAA101999999AZ101061AZ201061GA1061+003001071GE19MSL   +99999+99999GF106991061999003001999999MA1999999095971MD1999999-0111REMSYN004BUFR
0168832420999992016011900004-12558-041389FM-12+043999999V0200501N0005100300199002000199+02391+02241101251ADDAA101999999AZ101061AZ201061GA1081+003001071GA2999+999999101GA3999+999999101GE19MSL   +99999+99999GF108991081999003001999999MA1999999096341MD1999999+0011REMSYN004BUFR
0187832420999992016011912004-12558-041389FM-12+043999999V0202301N0005100300199004000199+02221+02161101401ADDAA124047031AY161061AY221061GA1081+003001071GA2999+999999101GA3999+999999101GE19MSL   +99999+99999GF108991081999003001999999KA1120N+01851MA1999999096451MD1999999+0101MW1211REMSYN004BUFR
0174832420999992016011918004-12558-041389FM-12+043999999V0202701N0005100300199004000199+02391+02311100981ADDAA106008031AY151061AY221061GA1081+003001071GA2999+999999101GA3999+999999101GE19MSL   +99999+99999GF108991081999003001999999MA1999999096041MD1999999+0321MW1211REMSYN004BUFR
0174832420999992016012000004-12558-041389FM-12+043999999V0203601N0041100300199002000199+02291+02231101201ADDAA106013031AY161061AY221061GA1081+003001071GA2999+999999101GA3999+999999101GE19MSL   +99999+99999GF108991081999003001999999MA1999999096251MD1999999-0091MW1211REMSYN004BUFR
0187832420999992016012012004-12558-041389FM-12+043999999V0201401N0010100300199004000199+02171+02081101431ADDAA124065031AY161061AY221061GA1081+003001071GA2999+999999101GA3999+999999101GE19MSL   +99999+99999GF108991081999003001999999KA1120N+01831MA1999999096471MD1999999+0021MW1211REMSYN004BUFR
0208832420999992016012018004-12567-041383FM-12+043999999V0201801N001019999999N004000199+02411+02281101041ADDAA106003031AY161021AY241021GA1081+004501071GE19MSL   +99999+99999GF108991081999004501999999MA1999999096091MD1999999+0051MW1201REMSYN07083242 21496 81802 10241 20228 39609 40104 72064 887// 333 58005 60031=
0174832420999992016012100004-12558-041389FM-12+043999999V0202301N0010100300199002000199+02291+02231101221ADDAA106003031AY161061AY241061GA1081+003001071GA2999+999999101GA3999+999999101GE19MSL   +99999+99999GF108991081999003001999999MA1999999096271MD1999999+0021MW1211REMSYN004BUFR
0187832420999992016012112004-12558-041389FM-12+043999999V0200501N0015100300199004000199+02241+02171101351ADDAA124033031AY161061AY221061GA1081+003001071GA2999+999999101GA3999+999999101GE19MSL   +99999+99999GF108991081999003001999999KA1120N+01831MA1999999096401MD1999999-0071MW1211REMSYN004BUFR
0174832420999992016012118004-12558-041389FM-12+043999999V0200901N0015100300199010000199+02641+02351100831ADDAA106003031AY101061AY261061GA1081+003001071GA2999+999999101GA3999+999999101GE19MSL   +99999+99999GF108991081999003001999999MA1999999095931MD1999999-0161MW1211REMSYN004BUFR
0174832420999992016012200004-12558-041389FM-12+043999999V0200901N0005100300199001000199+02271+02231101261ADDAA106016031AY161061AY251061GA1081+003001071GA2999+999999101GA3999+999999101GE19MSL   +99999+99999GF108991081999003001999999MA1999999096311MD1999999+0041MW1201REMSYN004BUFR
0187832420999992016012212004-12558-041389FM-12+043999999V0201801N0015100300199004000199+02341+02241101331ADDAA124020031AY161061AY221061GA1081+003001071GA2999+999999101GA3999+999999101GE19MSL   +99999+99999GF108991081999003001999999KA1120N+01841MA1999999096391MD1999999-0011MW1201REMSYN004BUFR
0174832420999992016012218004-12558-041389FM-12+043999999V0201401N0005100300199004000199+02551+02311100981ADDAA106000531AY151061AY221061GA1081+003001071GA2999+999999101GA3999+999999101GE19MSL   +99999+99999GF108991081999003001999999MA1999999096071MD1999999+0141MW1201REMSYN004BUFR
0174832420999992016012300004-12558-041389FM-12+043999999V0200501N0015100300199001000199+02251+02191101431ADDAA106060031AY161061AY251061GA1081+003001071GA2999+999999101GA3999+999999101GE19MSL   +99999+99999GF108991081999003001999999MA1999999096481MD1999999+0171MW1211REMSYN004BUFR
0187832420999992016012312004-12558-041389FM-12+043999999V0200901N0015100300199004000199+02271+02231101561ADDAA124087031AY161061AY251061GA1081+003001071GA2999+999999101GA3999+999999101GE19MSL   +99999+99999GF108991081999003001999999KA1120N+01831MA1999999096601MD1999999+0211MW1211REMSYN004BUFR
0174832420999992016012318004-12558-041389FM-12+043999999V0201801N0046100300199010000199+02801+02361101081ADDAA106003031AY161061AY251061GA1081+003001071GA2999+999999101GA3999+999999101GE19MSL   +99999+99999GF108991081999003001999999MA1999999096181MD1999999+0111MW1031REMSYN004BUFR
0187832420999992016012412004-12558-041389FM-12+043999999V0201401N0010100300199004000199+02421+02331101511ADDAA124004031AY161061AY221061GA1081+003001071GA2999+999999101GA3999+999999101GE19MSL   +99999+99999GF108991081999003001999999KA1120N+01891MA1999999096591MD1999999-0011MW1021REMSYN004BUFR
0174832420999992016012418004-12558-041389FM-12+043999999V0201401N0015100300199004000199+02451+02211101261ADDAA106017031AY161061AY221061GA1081+003001071GA2999+999999101GA3999+999999101GE19MSL   +99999+99999GF108991081999003001999999MA1999999096321MD1999999+0141MW1021REMSYN004BUFR
0155832420999992016012512004-12558-041389FM-12+043999999V0201401N0010100300199004000199+02421+02281101631ADDAA124017031AY161061AY221061GA1071+003001071GE19MSL   +99999+99999GF107991071999003001999999KA1120N+01891MA1999999096701MD1999999+0111MW1201REMSYN004BUFR
0174832420999992016012518004-12558-041389FM-12+043999999V0203601N0015100300199004000199+02501+02471101341ADDAA106007031AY121061AY221061GA1081+003001071GA2999+999999101GA3999+999999101GE19MSL   +99999+99999GF108991081999003001999999MA1999999096411MD1999999+0091MW1211REMSYN004BUFR
0174832420999992016012600004-12558-041389FM-12+043999999V0201801N0005100300199002000199+02471+02381101401ADDAA106004031AY191061AY261061GA1081+003001071GA2999+999999101GA3999+999999101GE19MSL   +99999+99999GF108991081999003001999999MA1999999096491MD1999999-0061MW1211REMSYN004BUFR
0187832420999992016012612004-12558-041389FM-12+043999999V0201801N0015100300199001000199+02171+02151101681ADDAA124045031AY181061AY261061GA1081+003001071GA2999+999999101GA3999+999999101GE19MSL   +99999+99999GF108991081999003001999999KA1120N+01821MA1999999096731MD1999999+0031MW1211REMSYN004BUFR
0142832420999992016012618004-12558-041389FM-12+043999999V0203601N0015100300199004000199+02791+02221101101ADDAA106001031AY151061AY221061GA1061+003001071GE19MSL   +99999+99999GF106991061999003001999999MA1999999096191MD1999999-0221MW1021REMSYN004BUFR
0168832420999992016012700004-12558-041389FM-12+043999999V0201801N0015100300199002000199+02471+02291101311ADDAA101999999AZ101061AZ201061GA1081+003001071GA2999+999999101GA3999+999999101GE19MSL   +99999+99999GF108991081999003001999999MA1999999096381MD1999999-0111REMSYN004BUFR
0187832420999992016012712004-12558-041389FM-12+043999999V0201401N0015100300199001000199+02841+02211101541ADDAA124030031AY161061AY221061GA1081+003001071GA2999+999999101GA3999+999999101GE19MSL   +99999+99999GF108991081999003001999999KA1120N+01811MA1999999096601MD1999999-0131MW1211REMSYN004BUFR
0136832420999992016012718004-12558-041389FM-12+043999999V0201801N0015100300199010000199+02841+02441101141ADDAA101999999AZ101061AZ201061GA1061+003001071GE19MSL   +99999+99999GF106991061999003001999999MA1999999096241MD1999999+0051REMSYN004BUFR
0174832420999992016012800004-12558-041389FM-12+043999999V0203601N0015100300199002000199+02401+02151101341ADDAA106000231AY191061AY251061GA1081+003001071GA2999+999999101GA3999+999999101GE19MSL   +99999+99999GF108991081999003001999999MA1999999096411MD1999999+0031MW1021REMSYN004BUFR
0187832420999992016012812004-12558-041389FM-12+043999999V0202301N0015100300199004000199+02341+02291101611ADDAA124005031AY161061AY221061GA1081+003001071GA2999+999999101GA3999+999999101GE19MSL   +99999+99999GF108991081999003001999999KA1120N+01861MA1999999096681MD1999999+0081MW1021REMSYN004BUFR
0136832420999992016012818004-12558-041389FM-12+043999999V0201801N0031100300199010000199+02951+02351101161ADDAA101999999AZ101061AZ201061GA1061+003001071GE19MSL   +99999+99999GF106991061999003001999999MA1999999096281MD1999999+0041REMSYN004BUFR
0168832420999992016012900004-12558-041389FM-12+043999999V0200901N0005100300199002000199+02501+02251101451ADDAA101999999AZ101061AZ201061GA1081+003001071GA2999+999999101GA3999+999999101GE19MSL   +99999+99999GF108991081999003001999999MA1999999096241MD1999999+0131REMSYN004BUFR
0155832420999992016012912004-12558-041389FM-12+043999999V0201401N0015100300199004000199+02421+02251101771ADDAA124011031AY161061AY221061GA1071+003001071GE19MSL   +99999+99999GF107991071999003001999999KA1120N+01861MA1999999096831MD1999999+0151MW1021REMSYN004BUFR
0136832420999992016012918004-12558-041389FM-12+043999999V0201801N0031100300199010000199+03091+02091101241ADDAA101999999AZ101061AZ201061GA1061+003001071GE19MSL   +99999+99999GF106991061999003001999999MA1999999096371MD1999999+0091REMSYN004BUFR
0098832420999992016013000004-12558-041389FM-12+043999999V0201801N0010122000199002000199+02401+02011101411ADDAA101999999AZ101061AZ201061GF100991999999999999999999MA1999999096491MD1999999-0051REMSYN004BUFR
0149832420999992016013012004-12558-041389FM-12+043999999V0201801N0026100300199010000199+02521+02331101701ADDAA101999999AZ101061AZ201061GA1071+003001071GE19MSL   +99999+99999GF107991071999003001999999KA1120N+01761MA1999999096771MD1999999-0061REMSYN004BUFR
0136832420999992016013018004-12558-041389FM-12+043999999V0200901N0026100300199010000199+03041+02271101381ADDAA101999999AZ101061AZ201061GA1071+003001071GE19MSL   +99999+99999GF107991071999003001999999MA1999999096501MD1999999+0131REMSYN004BUFR
0149832420999992016013112004-12558-041389FM-12+043999999V0201801N0015100300199010000199+02541+02311101731ADDAA101999999AZ101061AZ201061GA1061+003001071GE19MSL   +99999+99999GF106991061999003001999999KA1120N+01781MA1999999096821MD1999999+0051REMSYN004BUFR
0158832420999992016013118004-12558-041389FM-12+043999999V0201801N0031199999999010000199+02851+01981101281ADDAA101999999AY121061AY221061GA1041+003001071GA2999+999999031GE19MSL   +99999+99999GF107991041999003001999999MA1999999096381MD1999999-0121MW1201REMSYN004BUFR
0149832420999992016020112004-12558-041389FM-12+043999999V0200501N0015100300199004000199+02441+02341101891ADDAA101999999AZ101061AZ201061GA1071+003001071GE19MSL   +99999+99999GF107991071999003001999999KA1120N+01761MA1999999096961MD1999999+0141REMSYN004BUFR
0152832420999992016020118004-12558-041389FM-12+043999999V0200901N0015100300199010000199+03021+02261101401ADDAA101999999AZ101061AZ201061GA1051+003001071GA2999+999999001GE19MSL   +99999+99999GF106991051999003001999999MA1999999096511MD1999999+0131REMSYN004BUFR
0187832420999992016020212004-12558-041389FM-12+043999999V0201801N0010100300199004000199+02371+02281101601ADDAA124000231AY151061AY221061GA1081+003001071GA2999+999999101GA3999+999999101GE19MSL   +99999+99999GF108991081999003001999999KA1120N+01811MA1999999096701MD1999999+0261MW1021REMSYN004BUFR
0136832420999992016020218004-12558-041389FM-12+043999999V0201801N0026100300199020000199+02891+02271101271ADDAA101999999AZ101061AZ201061GA1071+003001071GE19MSL   +99999+99999GF107991071999003001999999MA1999999096371MD1999999-0141REMSYN004BUFR
0181832420999992016020312004-12558-041389FM-12+043999999V0201801N0015100300199004000199+02471+02301101581ADDAA101999999AZ101061AZ201061GA1081+003001071GA2999+999999101GA3999+999999101GE19MSL   +99999+99999GF108991081999003001999999KA1120N+01891MA1999999096581MD1999999-0121REMSYN004BUFR
0181832420999992016020412004-12558-041389FM-12+043999999V0203601N0015100300199010000199+02421+02051101471ADDAA101999999AZ101061AZ201061GA1081+003001071GA2999+999999101GA3999+999999101GE19MSL   +99999+99999GF108991081999003001999999KA1120N+01921MA1999999096561MD1999999-0021REMSYN004BUFR
0152832420999992016020418004-12558-041389FM-12+043999999V0201401N0026100300199010000199+03071+02261101151ADDAA101999999AZ101061AZ201061GA1051+003001071GA2999+999999001GE19MSL   +99999+99999GF106991051999003001999999MA1999999096291MD1999999-0011REMSYN004BUFR
0181832420999992016020512004-12558-041389FM-12+043999999V0201801N0031100300199004000199+02401+02151101211ADDAA101999999AZ101061AZ201061GA1081+003001071GA2999+999999101GA3999+999999101GE19MSL   +99999+99999GF108991081999003001999999KA1120N+01951MA1999999096321MD1999999-0241REMSYN004BUFR
0136832420999992016020518004-12558-041389FM-12+043999999V0201401N0015100300199010000199+03051+02271101381ADDAA101999999AZ101061AZ201061GA1071+003001071GE19MSL   +99999+99999GF107991071999003001999999MA1999999096501MD1999999+0211REMSYN004BUFR
0149832420999992016020612004-12558-041389FM-12+043999999V0200901N0026100300199010000199+02541+02291101781ADDAA101999999AZ101061AZ201061GA1071+003001071GE19MSL   +99999+99999GF107991071999003001999999KA1120N+01891MA1999999096861MD1999999+0541REMSYN004BUFR
0152832420999992016020618004-12558-041389FM-12+043999999V0201801N0051100300199010000199+03051+02301101371ADDAA101999999AZ101061AZ201061GA1061+003001071GA2999+999999001GE19MSL   +99999+99999GF106991061999003001999999MA1999999096501MD1999999+0001REMSYN004BUFR
0149832420999992016020712004-12558-041389FM-12+043999999V0200901N0015100300199010000199+02471+02211101781ADDAA101999999AZ101061AZ201061GA1071+003001071GE19MSL   +99999+99999GF107991071999003001999999KA1120N+01911MA1999999096851MD1999999-0011REMSYN004BUFR
0152832420999992016020718004-12558-041389FM-12+043999999V0202301N0015100300199010000199+02941+02311101401ADDAA101999999AZ101061AZ201061GA1051+003001071GA2999+999999001GE19MSL   +99999+99999GF106991051999003001999999MA1999999096511MD1999999+0011REMSYN004BUFR
0149832420999992016020812004-12558-041389FM-12+043999999V0201401N0015100300199010000199+02471+02251101781ADDAA101999999AZ101061AZ201061GA1071+003001071GE19MSL   +99999+99999GF107991071999003001999999KA1120N+01771MA1999999096861MD1999999+0011REMSYN004BUFR
0136832420999992016020818004-12558-041389FM-12+043999999V0203601N0015100300199010000199+02891+01991101431ADDAA101999999AZ101061AZ201061GA1071+003001071GE19MSL   +99999+99999GF107991071999003001999999MA1999999096531MD1999999+0021REMSYN004BUFR
0149832420999992016020912004-12558-041389FM-12+043999999V0200901N0015100300199010000199+02491+02251101881ADDAA101999999AZ101061AZ201061GA1061+003001071GE19MSL   +99999+99999GF106991061999003001999999KA1120N+01891MA1999999096591MD1999999+0091REMSYN004BUFR
0152832420999992016020918004-12558-041389FM-12+043999999V0200501N0015100300199010000199+03071+02291101501ADDAA101999999AZ101061AZ201061GA1051+003001071GA2999+999999001GE19MSL   +99999+99999GF106991051999003001999999MA1999999096621MD1999999+0091REMSYN004BUFR
0181832420999992016021012004-12558-041389FM-12+043999999V0200901N0015100300199004000199+02401+02191101801ADDAA101999999AZ101061AZ201061GA1081+003001071GA2999+999999101GA3999+999999101GE19MSL   +99999+99999GF108991081999003001999999KA1120N+01661MA1999999096871MD1999999-0081REMSYN004BUFR
0136832420999992016021018004-12558-041389FM-12+043999999V0200501N0026199999999010000199+03151+02231101251ADDAA101999999AZ101061AZ201061GA1021+003001071GE19MSL   +99999+99999GF102991021999003001999999MA1999999096371MD1999999-0251REMSYN004BUFR
0182832420999992016021112004-12567-041383FM-12+043999999V0201801N001519999999N004000199+02491+02251101661ADDGA1071+004501071GE19MSL   +99999+99999GF107991071999004501999999KA1240N+01851MA1999999096751MD1999999-0121REMSYN06483242 32496 71803 10249 20225 39675 40166 87700 333 20185 59012=
0136832420999992016021118004-12558-041389FM-12+043999999V0202301N0015199999999010000199+03291+02271101161ADDAA101999999AZ101061AZ201061GA1031+003001071GE19MSL   +99999+99999GF103991031999003001999999MA1999999096321MD1999999-0051REMSYN004BUFR
0149832420999992016021212004-12558-041389FM-12+043999999V0201801N0015199999999010000199+02771+02211101261ADDAA101999999AZ101061AZ201061GA1021+003001071GE19MSL   +99999+99999GF102991021999003001999999KA1120N+01791MA1999999096431MD1999999-0321REMSYN004BUFR
0152832420999992016021218004-12558-041389FM-12+043999999V0201401N0010100300199010000199+03451+02131100751ADDAA101999999AZ101061AZ201061GA1051+003001071GA2999+999999001GE19MSL   +99999+99999GF106991051999003001999999MA1999999095961MD1999999-0361REMSYN004BUFR
0149832420999992016021312004-12558-041389FM-12+043999999V0201801N0015100300199004000199+02501+02111101441ADDAA101999999AZ101061AZ201061GA1071+003001071GE19MSL   +99999+99999GF107991071999003001999999KA1120N+02041MA1999999096561MD1999999+0131REMSYN004BUFR
0136832420999992016021318004-12558-041389FM-12+043999999V0201401N0015100300199010000199+03171+02161101061ADDAA101999999AZ101061AZ201061GA1071+003001071GE19MSL   +99999+99999GF107991071999003001999999MA1999999096221MD1999999+0261REMSYN004BUFR
0181832420999992016021412004-12558-041389FM-12+043999999V0201401N0015100300199004000199+02441+02191101571ADDAA101999999AZ101061AZ201061GA1081+003001071GA2999+999999101GA3999+999999101GE19MSL   +99999+99999GF108991081999003001999999KA1120N+01951MA1999999096671MD1999999+0111REMSYN004BUFR
0152832420999992016021418004-12558-041389FM-12+043999999V0201801N0031100300199010000199+03171+02131101071ADDAA101999999AZ101061AZ201061GA1051+003001071GA2999+999999001GE19MSL   +99999+99999GF106991051999003001999999MA1999999096221MD1999999+0001REMSYN004BUFR
0181832420999992016021512004-12558-041389FM-12+043999999V0200901N0015100300199004000199+02441+02191101711ADDAA101999999AZ101061AZ201061GA1081+003001071GA2999+999999101GA3999+999999101GE19MSL   +99999+99999GF108991081999003001999999KA1120N+02021MA1999999096801MD1999999+0131REMSYN004BUFR
0163832420999992016021518004-12567-041383FM-12+043999999V0201801N002619999999N010000199+03131+02671101231ADDGA1061+004501071GE19MSL   +99999+99999GF106991061999004501999999MA1999999096371MD1999999+0151REMSYN05883242 32497 61805 10313 20267 39637 40123 86700 333 58015=
0149832420999992016021612004-12558-041389FM-12+043999999V0201801N0031100300199004000199+02621+02161101651ADDAA101999999AZ101061AZ201061GA1071+003001071GE19MSL   +99999+99999GF107991071999003001999999KA1120N+02021MA1999999096751MD1999999-0051REMSYN004BUFR
0152832420999992016021618004-12558-041389FM-12+043999999V0201401N0015100300199010000199+03201+02201101191ADDAA101999999AZ101061AZ201061GA1051+003001071GA2999+999999001GE19MSL   +99999+99999GF106991051999003001999999MA1999999096361MD1999999-0011REMSYN004BUFR
0149832420999992016021712004-12558-041389FM-12+043999999V0201801N0015100300199010000199+02541+02061101581ADDAA101999999AZ101061AZ201061GA1071+003001071GE19MSL   +99999+99999GF107991071999003001999999KA1120N+01891MA1999999096681MD1999999-0071REMSYN004BUFR
0152832420999992016021718004-12558-041389FM-12+043999999V0200501N0015100300199010000199+03191+02211101221ADDAA101999999AZ101061AZ201061GA1051+003001071GA2999+999999001GE19MSL   +99999+99999GF106991051999003001999999MA1999999096361MD1999999+0001REMSYN004BUFR
0149832420999992016021812004-12558-041389FM-12+043999999V0201801N0015100300199010000199+02521+02091101581ADDAA101999999AZ101061AZ201061GA1071+003001071GE19MSL   +99999+99999GF107991071999003001999999KA1120N+01661MA1999999096671MD1999999-0011REMSYN004BUFR
0152832420999992016021818004-12558-041389FM-12+043999999V0201801N0026100300199010000199+03191+02211101091ADDAA101999999AZ101061AZ201061GA1061+003001071GA2999+999999001GE19MSL   +99999+99999GF106991061999003001999999MA1999999096231MD1999999-0131REMSYN004BUFR
0155832420999992016021912004-12558-041389FM-12+043999999V0202301N0026100300199010000199+02541+02081101581ADDAA124000131AY151061AY221061GA1061+003001071GE19MSL   +99999+99999GF106991061999003001999999KA1120N+01881MA1999999096681MD1999999+0011MW1021REMSYN004BUFR
0136832420999992016021918004-12558-041389FM-12+043999999V0201401N0031100300199010000199+03241+02781101061ADDAA101999999AZ101061AZ201061GA1061+003001071GE19MSL   +99999+99999GF106991061999003001999999MA1999999096221MD1999999-0011REMSYN004BUFR
0181832420999992016022012004-12558-041389FM-12+043999999V0201801N0015100300199010000199+02551+02081101561ADDAA101999999AZ101061AZ201061GA1081+003001071GA2999+999999101GA3999+999999101GE19MSL   +99999+99999GF108991081999003001999999KA1120N+01951MA1999999096661MD1999999-0021REMSYN004BUFR
0168832420999992016022018004-12558-041389FM-12+043999999V0201401N0031100300199010000199+03071+02191101111ADDAA101999999AZ101061AZ201061GA1051+003001071GA2999+999999031GA3999+999999021GE19MSL   +99999+99999GF107991051999003001999999MA1999999096251MD1999999+0031REMSYN004BUFR
0149832420999992016022112004-12558-041389FM-12+043999999V0201801N0031100300199004000199+02471+02131101601ADDAA101999999AZ101061AZ201061GA1071+003001071GE19MSL   +99999+99999GF107991071999003001999999KA1120N+01841MA1999999096701MD1999999+0041REMSYN004BUFR
0152832420999992016022118004-12558-041389FM-12+043999999V0200901N0031100300199010000199+03191+02211101071ADDAA101999999AZ101061AZ201061GA1051+003001071GA2999+999999021GE19MSL   +99999+99999GF106991051999003001999999MA1999999096221MD1999999-0031REMSYN004BUFR
0149832420999992016022212004-12558-041389FM-12+043999999V0201801N0031100300199010000199+02491+02271101591ADDAA101999999AZ101061AZ201061GA1071+003001071GE19MSL   +99999+99999GF107991071999003001999999KA1120N+01861MA1999999096701MD1999999+0001REMSYN004BUFR
0152832420999992016022218004-12558-041389FM-12+043999999V0201401N0026100300199010000199+03191+02211101071ADDAA101999999AZ101061AZ201061GA1061+003001071GA2999+999999001GE19MSL   +99999+99999GF106991061999003001999999MA1999999096221MD1999999+0001REMSYN004BUFR
0181832420999992016022312004-12558-041389FM-12+043999999V0201801N0015100300199004000199+02301+02151101741ADDAA101999999AZ101061AZ201061GA1081+003001071GA2999+999999101GA3999+999999101GE19MSL   +99999+99999GF108991081999003001999999KA1120N+01651MA1999999096831MD1999999+0131REMSYN004BUFR
0136832420999992016022318004-12558-041389FM-12+043999999V0200901N0015100300199010000199+03141+02181101361ADDAA101999999AZ101061AZ201061GA1061+003001071GE19MSL   +99999+99999GF106991061999003001999999MA1999999096471MD1999999+0251REMSYN004BUFR
0149832420999992016022412004-12558-041389FM-12+043999999V0201801N0026100300199010000199+02621+02251101641ADDAA101999999AZ101061AZ201061GA1051+003001071GE19MSL   +99999+99999GF105991051999003001999999KA1120N+01861MA1999999096751MD1999999-0081REMSYN004BUFR
0152832420999992016022418004-12558-041389FM-12+043999999V0201801N0026100300199010000199+03191+02211101121ADDAA101999999AZ101061AZ201061GA1051+003001071GA2999+999999001GE19MSL   +99999+99999GF106991051999003001999999MA1999999096271MD1999999-0201REMSYN004BUFR
0149832420999992016022512004-12558-041389FM-12+043999999V0200501N0015100300199010000199+02571+02101101521ADDAA101999999AZ101061AZ201061GA1071+003001071GE19MSL   +99999+99999GF107991071999003001999999KA1120N+01791MA1999999096641MD1999999-0111REMSYN004BUFR
0152832420999992016022518004-12558-041389FM-12+043999999V0201801N0021199999999010000199+03271+02231101111ADDAA101999999AZ101061AZ201061GA1041+003001071GA2999+999999031GE19MSL   +99999+99999GF106991041999003001999999MA1999999096271MD1999999+0001REMSYN004BUFR
0181832420999992016022612004-12558-041389FM-12+043999999V0201401N0015100300199004000199+02441+02151101561ADDAA101999999AZ101061AZ201061GA1081+003001071GA2999+999999101GA3999+999999101GE19MSL   +99999+99999GF108991081999003001999999KA1120N+01791MA1999999096651MD1999999+0011REMSYN004BUFR
0152832420999992016022618004-12558-041389FM-12+043999999V0201401N0041199999999010000199+03241+02101101081ADDAA101999999AZ101061AZ201061GA1041+003001071GA2999+999999001GE19MSL   +99999+99999GF108991041999003001999999MA1999999096231MD1999999-0041REMSYN004BUFR
0181832420999992016022712004-12558-041389FM-12+043999999V0201801N0031100300199004000199+02441+02031101671ADDAA101999999AZ101061AZ201061GA1081+003001071GA2999+999999101GA3999+999999101GE19MSL   +99999+99999GF108991081999003001999999KA1120N+01941MA1999999096771MD1999999+0121REMSYN004BUFR
0152832420999992016022718004-12558-041389FM-12+043999999V0202301N0010100300199010000199+03141+02071101371ADDAA101999999AZ101061AZ201061GA1051+003001071GA2999+999999001GE19MSL   +99999+99999GF106991051999003001999999MA1999999096501MD1999999+0271REMSYN004BUFR
0149832420999992016022812004-12558-041389FM-12+043999999V0200901N0015100300199010000199+02601+02101101651ADDAA101999999AZ101061AZ201061GA1071+003001071GE19MSL   +99999+99999GF107991071999003001999999KA1120N+01841MA1999999096751MD1999999-0021REMSYN004BUFR
0136832420999992016022818004-12558-041389FM-12+043999999V0201401N0015100300199010000199+03171+02221101231ADDAA101999999AZ101061AZ201061GA1072+003001071GE19MSL   +99999+99999GF106992072999003001999999MA1999999096731MD1999999+0131REMSYN004BUFR
0181832420999992016022912004-12558-041389FM-12+043999999V0200801N0010100300199004000199+02471+02011101581ADDAA101999999AZ101061AZ201061GA1081+003001071GA2999+999999101GA3999+999999101GE19MSL   +99999+99999GF108991081999003001999999KA1120N+01991MA1999999096681MD1999999+0071REMSYN004BUFR
0136832420999992016022918004-12558-041389FM-12+043999999V0200501N0015100300199010000199+03171+02271101221ADDAA101999999AZ101061AZ201061GA1061+003001071GE19MSL   +99999+99999GF106991061999003001999999MA1999999096361MD1999999-0011REMSYN004BUFR
0181832420999992016030112004-12558-041389FM-12+043999999V0201801N0015100300199004000199+02421+02051101781ADDAA101999999AZ101061AZ201061GA1081+003001071GA2999+999999101GA3999+999999101GE19MSL   +99999+99999GF108991081999003001999999KA1120N+01941MA1999999096861MD1999999+0181REMSYN004BUFR
0136832420999992016030118004-12558-041389FM-12+043999999V0201801N0021100300199010000199+03171+01981101231ADDAA101999999AZ101061AZ201061GA1061+003001071GE19MSL   +99999+99999GF106991061999003001999999MA1999999096371MD1999999+0011REMSYN004BUFR
0149832420999992016030212004-12558-041389FM-12+043999999V0202301N0026100300199004000199+02521+01951101651ADDAA101999999AZ101061AZ201061GA1071+003001071GE19MSL   +99999+99999GF107991071999003001999999KA1120N+01971MA1999999096751MD1999999-0111REMSYN004BUFR
0152832420999992016030218004-12558-041389FM-12+043999999V0201401N0031100300199010000199+02971+02171101271ADDAA101999999AZ101061AZ201061GA1051+003001071GA2999+999999001GE19MSL   +99999+99999GF106991051999003001999999MA1999999096391MD1999999+0021REMSYN004BUFR
0136832420999992016030300004-12558-041389FM-12+043999999V0200501N0015100300199002000199+02691+02081101291ADDAA101999999AZ101061AZ201061GA1071+003001071GE19MSL   +99999+99999GF107991071999003001999999MA1999999096411MD1999999+0001REMSYN004BUFR
0149832420999992016030312004-12558-041389FM-12+043999999V0200501N0005100300199010000199+02571+02121101561ADDAA101999999AZ101061AZ201061GA1061+003001071GE19MSL   +99999+99999GF106991061999003001999999KA1120N+01781MA1999999096681MD1999999-0071REMSYN004BUFR
0152832420999992016030318004-12558-041389FM-12+043999999V0200901N0031199999999010000199+02341+02111101021ADDAA101999999AZ101061AZ201061GA1041+003001071GA2999+999999001GE19MSL   +99999+99999GF108991041999003001999999MA1999999096171MD1999999-0221REMSYN004BUFR
0098832420999992016030400004-12558-041389FM-12+043999999V0201801N0015122000199002000199+02571+02081101291ADDAA101999999AZ101061AZ201061GF100991999999999999999999MA1999999096411MD1999999+0001REMSYN004BUFR
0149832420999992016030412004-12558-041389FM-12+043999999V0201801N0010100300199004000199+02571+02211101561ADDAA101999999AZ101061AZ201061GA1071+003001071GE19MSL   +99999+99999GF107991071999003001999999KA1120N+02021MA1999999096671MD1999999-0011REMSYN004BUFR
0136832420999992016030418004-12558-041389FM-12+043999999V0202701N0015100300199010000199+03321+02151101031ADDAA101999999AZ101061AZ201061GA1061+003001071GE19MSL   +99999+99999GF106991061999003001999999MA1999999096211MD1999999+0041REMSYN004BUFR
0136832420999992016030500004-12558-041389FM-12+043999999V0202301N0015100300199002000199+02841+02121101151ADDAA101999999AZ101061AZ201061GA1071+003001071GE19MSL   +99999+99999GF107991071999003001999999MA1999999096301MD1999999-0111REMSYN004BUFR
0181832420999992016030512004-12558-041389FM-12+043999999V0201401N0015100300199004000199+02541+02061101541ADDAA101999999AZ101061AZ201061GA1081+003001071GA2999+999999101GA3999+999999101GE19MSL   +99999+99999GF108991081999003001999999KA1120N+02061MA1999999096671MD1999999+0001REMSYN004BUFR
0136832420999992016030518004-12558-041389FM-12+043999999V0202301N0015100300199010000199+03051+02251101211ADDAA101999999AZ101061AZ201061GA1061+003001071GE19MSL   +99999+99999GF106991061999003001999999MA1999999096351MD1999999-0141REMSYN004BUFR
0187832420999992016030612004-12558-041389FM-12+043999999V0201801N0015100300199004000199+02321+01871101691ADDAA124000531AY151061AY221061GA1081+003001071GA2999+999999101GA3999+999999101GE19MSL   +99999+99999GF108991081999003001999999KA1120N+01961MA1999999096761MD1999999+0091MW1201REMSYN004BUFR
0152832420999992016030618004-12558-041389FM-12+043999999V0201801N0015100300199010000199+03091+02121101251ADDAA101999999AZ101061AZ201061GA1051+003001071GA2999+999999001GE19MSL   +99999+99999GF106991051999003001999999MA1999999096381MD1999999+0031REMSYN004BUFR
0149832420999992016030712004-12558-041389FM-12+043999999V0202301N0015100300199004000199+02471+02341101571ADDAA101999999AZ101061AZ201061GA1071+003001071GE19MSL   +99999+99999GF107991071999003001999999KA1120N+01941MA1999999096681MD1999999-0081REMSYN004BUFR
0152832420999992016030718004-12558-041389FM-12+043999999V0201801N0015100300199010000199+03021+02241101151ADDAA101999999AZ101061AZ201061GA1051+003001071GA2999+999999001GE19MSL   +99999+99999GF106991051999003001999999MA1999999096281MD1999999-0101REMSYN004BUFR
0098832420999992016030800004-12558-041389FM-12+043999999V0203601N0026122000199002000199+02591+02011101251ADDAA101999999AZ101061AZ201061GF100991999999999999999999MA1999999096361MD1999999-0041REMSYN004BUFR
0181832420999992016030812004-12558-041389FM-12+043999999V0202301N0015100300199004000199+02451+01991101581ADDAA101999999AZ101061AZ201061GA1081+003001071GA2999+999999101GA3999+999999101GE19MSL   +99999+99999GF108991081999003001999999KA1120N+01961MA1999999096681MD1999999+0001REMSYN004BUFR
0152832420999992016030818004-12558-041389FM-12+043999999V0201801N0015100300199010000199+03071+02161101201ADDAA101999999AZ101061AZ201061GA1051+003001071GA2999+999999001GE19MSL   +99999+99999GF106991051999003001999999MA1999999096341MD1999999+0061REMSYN004BUFR
0098832420999992016030900004-12558-041389FM-12+043999999V0203601N0015122000199002000199+02521+01811101121ADDAA101999999AZ101061AZ201061GF100991999999999999999999MA1999999096231MD1999999-0131REMSYN004BUFR
0181832420999992016030912004-12558-041389FM-12+043999999V0201401N0005100300199004000199+02521+02021101551ADDAA101999999AZ101061AZ201061GA1081+003001071GA2999+999999101GA3999+999999101GE19MSL   +99999+99999GF108991081999003001999999KA1120N+01891MA1999999096651MD1999999-0031REMSYN004BUFR
0152832420999992016030918004-12558-041389FM-12+043999999V0200501N0026100300199010000199+03201+02201101031ADDAA101999999AZ101061AZ201061GA1051+003001071GA2999+999999001GE19MSL   +99999+99999GF106991051999003001999999MA1999999096181MD1999999-0161REMSYN004BUFR
0098832420999992016031000004-12558-041389FM-12+043999999V0202301N0015122000199002000199+02551+02021101281ADDAA101999999AZ101061AZ201061GF100991999999999999999999MA1999999096391MD1999999+0161REMSYN004BUFR
0155832420999992016031012004-12558-041389FM-12+043999999V0201801N0015100300199010000199+02471+02131101601ADDAA124000331AY151061AY221061GA1071+003001071GE19MSL   +99999+99999GF107991071999003001999999KA1120N+01911MA1999999096691MD1999999+0041MW1021REMSYN004BUFR
0136832420999992016031018004-12558-041389FM-12+043999999V0200501N0015100300199010000199+03271+02231101031ADDAA101999999AZ101061AZ201061GA1061+003001071GE19MSL   +99999+99999GF106991061999003001999999MA1999999096191MD1999999+0011REMSYN004BUFR
0098832420999992016031100004-12558-041389FM-12+043999999V0200901N0015122000199002000199+02621+01981101151ADDAA101999999AZ101061AZ201061GF100991999999999999999999MA1999999096271MD1999999-0121REMSYN004BUFR
0149832420999992016031112004-12558-041389FM-12+043999999V0202301N0015100300199004000199+02551+02131101571ADDAA101999999AZ101061AZ201061GA1071+003001071GE19MSL   +99999+99999GF107991071999003001999999KA1120N+01871MA1999999096681MD1999999-0011REMSYN004BUFR
0152832420999992016031118004-12558-041389FM-12+043999999V0200901N0015199999999010000199+03221+02221101151ADDAA101999999AZ101061AZ201061GA1041+003001071GA2999+999999051GE19MSL   +99999+99999GF105991041999003001999999MA1999999096311MD1999999+0131REMSYN004BUFR
0136832420999992016031200004-12558-041389FM-12+043999999V0200501N0031199999999002000199+02641+01951101261ADDAA101999999AZ101061AZ201061GA1021+017501031GE19MSL   +99999+99999GF103991021999017501999999MA1999999096381MD1999999+0111REMSYN004BUFR
0149832420999992016031212004-12558-041389FM-12+043999999V0200901N0015100300199010000199+02521+02091101701ADDAA101999999AZ101061AZ201061GA1071+003001071GE19MSL   +99999+99999GF107991071999003001999999KA1120N+01771MA1999999096801MD1999999+0121REMSYN004BUFR
0168832420999992016031218004-12558-041389FM-12+043999999V0201401N0031199999999010000199+03121+02071101231ADDAA101999999AZ101061AZ201061GA1041+003001071GA2999+999999051GA3999+999999001GE19MSL   +99999+99999GF106991041999003001999999MA1999999096361MD1999999+0051REMSYN004BUFR
0149832420999992016031312004-12558-041389FM-12+043999999V0201401N0015100300199010000199+02621+02121101691ADDAA101999999AZ101061AZ201061GA1071+003001071GE19MSL   +99999+99999GF107991071999003001999999KA1120N+02011MA1999999096801MD1999999+0001REMSYN004BUFR
0136832420999992016031318004-12558-041389FM-12+043999999V0200901N0026100300199010000199+03241+02181101191ADDAA101999999AZ101061AZ201061GA1061+003001071GE19MSL   +99999+99999GF106991061999003001999999MA1999999096361MD1999999+0001REMSYN004BUFR
0149832420999992016031412004-12558-041389FM-12+043999999V0201401N0031100300199010000199+02601+02141101671ADDAA101999999AZ101061AZ201061GA1071+003001071GE19MSL   +99999+99999GF107991071999003001999999KA1120N+01961MA1999999096791MD1999999-0011REMSYN004BUFR
0155832420999992016031418004-12558-041389FM-12+043999999V0201801N0026100300199010000199+02941+99999101401ADDAA101999999AZ101061AZ201061GA1061+003001071GE19MSL   +99999+99999GF106991061999003001999999MA1999999096521MD1999999+0161REMSYN004BUFREQDQ012     3ATOD  
0174832420999992016031500004-12558-041389FM-12+043999999V0201801N0041100300199002000199+02201+02141101611ADDAA106001031AY151061AY221061GA1081+003001071GA2999+999999101GA3999+999999101GE19MSL   +99999+99999GF108991081999003001999999MA1999999096681MD1999999+0121MW1211REMSYN004BUFR
0155832420999992016031512004-12558-041389FM-12+043999999V0201801N0015100300199010000199+02451+02051101831ADDAA124001031AY161061AY221061GA1071+003001071GE19MSL   +99999+99999GF107991071999003001999999KA1120N+01771MA1999999096871MD1999999+0081MW1021REMSYN004BUFR
0136832420999992016031518004-12558-041389FM-12+043999999V0201401N0031100300199010000199+03521+01991101351ADDAA101999999AZ101061AZ201061GA1071+003001071GE19MSL   +99999+99999GF107991071999003001999999MA1999999096511MD1999999-0011REMSYN004BUFR
0168832420999992016031600004-12558-041389FM-12+043999999V0203601N0015100300199002000199+02491+01981101431ADDAA101999999AZ101061AZ201061GA1081+003001071GA2999+999999101GA3999+999999101GE19MSL   +99999+99999GF108991081999003001999999MA1999999096531MD1999999-0151REMSYN004BUFR
0155832420999992016031612004-12558-041389FM-12+043999999V0201801N0031100300199010000199+02521+02231101781ADDAA124000531AY151061AY221061GA1071+003001071GE19MSL   +99999+99999GF107991071999003001999999KA1120N+01791MA1999999096861MD1999999-0011MW1021REMSYN004BUFR
0136832420999992016031618004-12558-041389FM-12+043999999V0202301N0015100300199010000199+03201+02171101351ADDAA101999999AZ101061AZ201061GA1061+003001071GE19MSL   +99999+99999GF106991061999003001999999MA1999999096491MD1999999-0021REMSYN004BUFR
0168832420999992016031700004-12558-041389FM-12+043999999V0201401N0010100300199002000199+02591+01941101451ADDAA101999999AZ101061AZ201061GA1081+003001071GA2999+999999101GA3999+999999101GE19MSL   +99999+99999GF108991081999003001999999MA1999999096551MD1999999+0021REMSYN004BUFR
0149832420999992016031712004-12558-041389FM-12+043999999V0201801N0031100300199004000199+02471+01831101801ADDAA101999999AZ101061AZ201061GA1071+003001071GE19MSL   +99999+99999GF107991071999003001999999KA1120N+01801MA1999999096851MD1999999-0011REMSYN004BUFR
0152832420999992016031718004-12558-041389FM-12+043999999V0201801N0031199999999010000199+03191+02181101261ADDAA101999999AZ101061AZ201061GA1031+003001071GA2999+999999001GE19MSL   +99999+99999GF104991031999003001999999MA1999999096391MD1999999-0101REMSYN004BUFR
0168832420999992016031800004-12558-041389FM-12+043999999V0200501N0015100300199002000199+02641+01901101421ADDAA101999999AZ101061AZ201061GA1081+003001071GA2999+999999101GA3999+999999101GE19MSL   +99999+99999GF108991081999003001999999MA1999999096531MD1999999-0021REMSYN004BUFR
0155832420999992016031812004-12558-041389FM-12+043999999V0201801N0015100300199004000199+02421+01811101751ADDAA124000131AY151061AY221061GA1071+003001071GE19MSL   +99999+99999GF107991071999003001999999KA1120N+01891MA1999999096841MD1999999-0011MW1021REMSYN004BUFR
0136832420999992016031818004-12558-041389FM-12+043999999V0200901N0015100300199010000199+03151+02231101241ADDAA101999999AZ101061AZ201061GA1061+003001071GE19MSL   +99999+99999GF106991061999003001999999MA1999999096371MD1999999-0021REMSYN004BUFR
0168832420999992016031900004-12558-041389FM-12+043999999V0201401N0010100300199002000199+02701+02101101321ADDAA101999999AZ101061AZ201061GA1081+003001071GA2999+999999101GA3999+999999101GE19MSL   +99999+99999GF108991081999003001999999MA1999999096431MD1999999-0101REMSYN004BUFR
0181832420999992016031912004-12558-041389FM-12+043999999V0201401N0015100300199004000199+02541+02001101691ADDAA101999999AZ101061AZ201061GA1082+003001071GA2999+999999101GA3999+999999101GE19MSL   +99999+99999GF106992082999003001999999KA1120N+01981MA1999999096801MD1999999-0041REMSYN004BUFR
0152832420999992016031918004-12558-041389FM-12+043999999V0200901N0010100300199010000199+03171+02221101071ADDAA101999999AZ101061AZ201061GA1061+003001071GA2999+999999001GE19MSL   +99999+99999GF106991061999003001999999MA1999999096221MD1999999-0151REMSYN004BUFR
0181832420999992016032012004-12558-041389FM-12+043999999V0201401N0015100300199004000199+02471+01981101661ADDAA101999999AZ101061AZ201061GA1081+003001071GA2999+999999101GA3999+999999101GE19MSL   +99999+99999GF108991081999003001999999KA1120N+02031MA1999999096751MD1999999-0051REMSYN004BUFR
0152832420999992016032018004-12558-041389FM-12+043999999V0201801N0031100300199010000199+03251+02181100961ADDAA101999999AZ101061AZ201061GA1051+003001071GA2999+999999001GE19MSL   +99999+99999GF107991051999003001999999MA1999999096131MD1999999-0091REMSYN004BUFR
0149832420999992016032112004-12558-041389FM-12+043999999V0201801N0015100300199010000199+02571+02211101731ADDAA101999999AZ101061AZ201061GA1071+003001071GE19MSL   +99999+99999GF107991071999003001999999KA1120N+01871MA1999999096841MD1999999+0091REMSYN004BUFR
0136832420999992016032118004-12558-041389FM-12+043999999V0201801N0031100300199010000199+03321+01931101051ADDAA101999999AZ101061AZ201061GA1051+003001071GE19MSL   +99999+99999GF105991051999003001999999MA1999999096231MD1999999+0101REMSYN004BUFR
0152832420999992016032200004-12558-041389FM-12+043999999V0203601N0015199999999002000199+02541+01781101351ADDAA101999999AZ101061AZ201061GA1011+003001071GA2999+999999031GE19MSL   +99999+99999GF102991011999003001999999MA1999999096461MD1999999+0071REMSYN004BUFR
0149832420999992016032212004-12558-041389FM-12+043999999V0201401N0015100300199004000199+02571+02061101751ADDAA101999999AZ101061AZ201061GA1071+003001071GE19MSL   +99999+99999GF107991071999003001999999KA1120N+02011MA1999999096841MD1999999+0001REMSYN004BUFR
0136832420999992016032218004-12558-041389FM-12+043999999V0201401N0026199999999010000199+03291+02211101171ADDAA101999999AZ101061AZ201061GA1031+003001071GE19MSL   +99999+99999GF103991031999003001999999MA1999999096341MD1999999+0111REMSYN004BUFR
0152832420999992016032318004-12558-041389FM-12+043999999V0200901N0005199999999010000199+03341+02221101051ADDAA101999999AZ101061AZ201061GA1031+003001071GA2999+999999001GE19MSL   +99999+99999GF104991031999003001999999MA1999999096211MD1999999-0131REMSYN004BUFR
0181832420999992016032412004-12558-041389FM-12+043999999V0201401N0015100300199010000199+02521+02111101541ADDAA101999999AZ101061AZ201061GA1081+003001071GA2999+999999101GA3999+999999101GE19MSL   +99999+99999GF108991081999003001999999KA1120N+02081MA1999999096651MD1999999-0091REMSYN004BUFR
0152832420999992016032418004-12558-041389FM-12+043999999V0200901N0015100300199010000199+03251+02211100881ADDAA101999999AZ101061AZ201061GA1051+003001071GA2999+999999001GE19MSL   +99999+99999GF107991051999003001999999MA1999999096061MD1999999-0051REMSYN004BUFR
0181832420999992016032512004-12558-041389FM-12+043999999V0203601N0015100300199004000199+02391+02031101591ADDAA101999999AZ101061AZ201061GA1081+003001071GA2999+999999101GA3999+999999101GE19MSL   +99999+99999GF108991081999003001999999KA1120N+01951MA1999999096681MD1999999+0031REMSYN004BUFR
0136832420999992016032518004-12558-041389FM-12+043999999V0201401N0031100300199010000199+03171+02101101071ADDAA101999999AZ101061AZ201061GA1061+003001071GE19MSL   +99999+99999GF106991061999003001999999MA1999999096221MD1999999+0161REMSYN004BUFR
0149832420999992016032612004-12558-041389FM-12+043999999V0201801N0015100300199010000199+02591+02211101701ADDAA101999999AZ101061AZ201061GA1071+003001071GE19MSL   +99999+99999GF107991071999003001999999KA1120N+01861MA1999999096801MD1999999+0121REMSYN004BUFR
0168832420999992016032618004-12558-041389FM-12+043999999V0202701N0015100300199010000199+03221+02001101151ADDAA101999999AZ101061AZ201061GA1051+003001071GA2999+999999031GA3999+999999001GE19MSL   +99999+99999GF107991051999003001999999MA1999999096311MD1999999+0091REMSYN004BUFR
0187832420999992016032712004-12558-041389FM-12+043999999V0201801N0015100300199004000199+02541+02081101701ADDAA124003031AY161061AY221061GA1081+003001071GA2999+999999101GA3999+999999101GE19MSL   +99999+99999GF108991081999003001999999KA1120N+01991MA1999999096801MD1999999+0001MW1211REMSYN004BUFR
0174832420999992016032718004-12558-041389FM-12+043999999V0201801N0051100300199010000199+03001+02291101251ADDAA106000831AY161061AY221061GA1081+003001071GA2999+999999101GA3999+999999101GE19MSL   +99999+99999GF108991081999003001999999MA1999999096301MD1999999-0011MW1151REMSYN004BUFR
0181832420999992016032812004-12558-041389FM-12+043999999V0202701N0015100300199004000199+02551+02211101711ADDAA124000831AZ101061AZ201061GA1081+003001071GA2999+999999101GA3999+999999101GE19MSL   +99999+99999GF108991081999003001999999KA1120N+01971MA1999999096801MD1999999+0001REMSYN004BUFR
0136832420999992016032818004-12558-041389FM-12+043999999V0201401N0031100300199010000199+03121+02071101081ADDAA101999999AZ101061AZ201061GA1071+003001071GE19MSL   +99999+99999GF107991071999003001999999MA1999999096231MD1999999-0071REMSYN004BUFR
0155832420999992016032912004-12558-041389FM-12+043999999V0201801N0026100300199004000199+02391+01861101711ADDAA124001031AY161061AY221061GA1071+003001071GE19MSL   +99999+99999GF107991071999003001999999KA1120N+01931MA1999999096801MD1999999+0001MW1021REMSYN004BUFR
0152832420999992016032918004-12558-041389FM-12+043999999V0202701N0015100300199010000199+03141+02071101181ADDAA101999999AZ101061AZ201061GA1061+003001071GA2999+999999031GE19MSL   +99999+99999GF107991061999003001999999MA1999999096321MD1999999+0091REMSYN004BUFR
0155832420999992016033012004-12558-041389FM-12+043999999V0201401N0015100300199010000199+02421+01971101841ADDAA124012031AY161061AY221061GA1071+003001071GE19MSL   +99999+99999GF107991071999003001999999KA1120N+01841MA1999999096921MD1999999+0121MW1021REMSYN004BUFR
0152832420999992016033018004-12558-041389FM-12+043999999V0201401N0031100300199010000199+03121+02111101311ADDAA101999999AZ101061AZ201061GA1051+003001071GA2999+999999001GE19MSL   +99999+99999GF106991051999003001999999MA1999999096441MD1999999+0121REMSYN004BUFR
0149832420999992016033112004-12558-041389FM-12+043999999V0201401N0015100300199004000199+02471+02051101901ADDAA101999999AZ101061AZ201061GA1071+003001071GE19MSL   +99999+99999GF107991071999003001999999KA1120N+01891MA1999999096961MD1999999+0041REMSYN004BUFR
0168832420999992016033118004-12558-041389FM-12+043999999V0200501N0031100300199010000199+02951+02131101371ADDAA101999999AZ101061AZ201061GA1081+003001071GA2999+999999101GA3999+999999101GE19MSL   +99999+99999GF108991081999003001999999MA1999999096491MD1999999+0051REMSYN004BUFR
0149832420999992016040112004-12558-041389FM-12+043999999V0201401N0031100300199004000199+02541+02081101721ADDAA101999999AZ101061AZ201061GA1071+003001071GE19MSL   +99999+99999GF107991071999003001999999KA1120N+01891MA1999999096801MD1999999-0161REMSYN004BUFR
0136832420999992016040118004-12558-041389FM-12+043999999V0201801N0031100300199010000199+02951+02151101271ADDAA101999999AZ101061AZ201061GA1071+003001071GE19MSL   +99999+99999GF107991071999003001999999MA1999999096391MD1999999-0101REMSYN004BUFR
0136832420999992016040200004-12558-041389FM-12+043999999V0201801N0015100300199002000199+02441+02091101421ADDAA101999999AZ101061AZ201061GA1071+003001071GE19MSL   +99999+99999GF107991071999003001999999MA1999999096521MD1999999-0111REMSYN004BUFR
0181832420999992016040212004-12558-041389FM-12+043999999V0201401N0031100300199010000199+02571+01991101431ADDAA101999999AZ101061AZ201061GA1061+003001071GA2999+999999031GA3999+999999001GE19MSL   +99999+99999GF108991061999003001999999KA1120N+01811MA1999999096531MD1999999-0271REMSYN004BUFR
0168832420999992016040218004-12558-041389FM-12+043999999V0200501N0031100300199010000199+02921+01921101111ADDAA101999999AZ101061AZ201061GA1081+003001071GA2999+999999101GA3999+999999101GE19MSL   +99999+99999GF108991081999003001999999MA1999999096231MD1999999-0161REMSYN004BUFR
0181832420999992016040312004-12558-041389FM-12+043999999V0201801N0015100300199010000199+02371+02071101551ADDAA101999999AZ101061AZ201061GA1081+003001071GA2999+999999101GA3999+999999101GE19MSL   +99999+99999GF108991081999003001999999KA1120N+01841MA1999999096621MD1999999+0091REMSYN004BUFR
0168832420999992016040318004-12558-041389FM-12+043999999V0200901N0031100300199010000199+02721+02101101231ADDAA101999999AZ101061AZ201061GA1081+003001071GA2999+999999101GA3999+999999101GE19MSL   +99999+99999GF108991081999003001999999MA1999999096321MD1999999+0091REMSYN004BUFR
0181832420999992016040412004-12558-041389FM-12+043999999V0202301N0015100300199004000199+02521+02071101771ADDAA101999999AZ101061AZ201061GA1081+003001071GA2999+999999101GA3999+999999101GE19MSL   +99999+99999GF108991081999003001999999KA1120N+01901MA1999999096851MD1999999+0231REMSYN004BUFR
0136832420999992016040418004-12558-041389FM-12+043999999V0200901N0031100300199010000199+03221+02231101151ADDAA101999999AZ101061AZ201061GA1071+003001071GE19MSL   +99999+99999GF107991071999003001999999MA1999999096311MD1999999-0021REMSYN004BUFR
0136832420999992016040500004-12558-041389FM-12+043999999V0201801N0015100300199002000199+02671+02111101481ADDAA101999999AZ101061AZ201061GA1061+003001071GE19MSL   +99999+99999GF106991061999003001999999MA1999999096591MD1999999+0041REMSYN004BUFR
0149832420999992016040512004-12558-041389FM-12+043999999V0200901N0015100300199004000199+02591+02171101811ADDAA101999999AZ101061AZ201061GA1071+003001071GE19MSL   +99999+99999GF107991071999003001999999KA1120N+02031MA1999999096921MD1999999+0071REMSYN004BUFR
0158832420999992016040518004-12558-041389FM-12+043999999V0201801N0041100300199010000199+03341+02151101181ADDAA106000131AY151061AY221061GA1051+003001071GA2999+999999001GE19MSL   +99999+99999GF106991051999003001999999MA1999999096361MD1999999+0061MW1021REMSYN004BUFR
0168832420999992016040600004-12558-041389FM-12+043999999V0201401N0031100300199002000199+02751+01891101401ADDAA101999999AZ101061AZ201061GA1081+003001071GA2999+999999101GA3999+999999101GE19MSL   +99999+99999GF108991081999003001999999MA1999999096541MD1999999-0051REMSYN004BUFR
0149832420999992016040612004-12558-041389FM-12+043999999V0201401N0015100300199004000199+02551+02171101671ADDAA124000131AZ101061AZ201061GA1071+003001071GE19MSL   +99999+99999GF107991071999003001999999KA1120N+02021MA1999999096781MD1999999-0141REMSYN004BUFR
0168832420999992016040700004-12558-041389FM-12+043999999V0201401N0031100300199002000199+02741+02121101291ADDAA101999999AZ101061AZ201061GA1081+003001071GA2999+999999101GA3999+999999101GE19MSL   +99999+99999GF108991081999003001999999MA1999999096421MD1999999-0121REMSYN004BUFR
0181832420999992016040712004-12558-041389FM-12+043999999V0201801N0015100300199010000199+02551+01991101411ADDAA101999999AZ101061AZ201061GA1081+003001071GA2999+999999101GA3999+999999101GE19MSL   +99999+99999GF108991081999003001999999KA1120N+01821MA1999999096541MD1999999-0241REMSYN004BUFR
0136832420999992016040718004-12558-041389FM-12+043999999V0201801N0031199999999010000199+03271+02101100801ADDAA101999999AZ101061AZ201061GA1031+003001071GE19MSL   +99999+99999GF103991031999003001999999MA1999999095971MD1999999-0281REMSYN004BUFR
0098832420999992016040800004-12558-041389FM-12+043999999V0201801N0010122000199002000199+02691+02031101021ADDAA101999999AZ101061AZ201061GF100991999999999999999999MA1999999096161MD1999999-0261REMSYN004BUFR
0149832420999992016040812004-12558-041389FM-12+043999999V0200501N0015100300199010000199+02541+02091101531ADDAA101999999AZ101061AZ201061GA1071+003001071GE19MSL   +99999+99999GF107991071999003001999999KA1120N+01911MA1999999096641MD1999999+0101REMSYN004BUFR
0152832420999992016040818004-12558-041389FM-12+043999999V0200501N0015100300199010000199+03191+02031100941ADDAA101999999AZ101061AZ201061GA1051+003001071GA2999+999999001GE19MSL   +99999+99999GF106991051999003001999999MA1999999096101MD1999999+0131REMSYN004BUFR
0136832420999992016040900004-12558-041389FM-12+043999999V0203601N0015199999999002000199+02621+01981101061ADDAA101999999AZ101061AZ201061GA1041+003001071GE19MSL   +99999+99999GF104991041999003001999999MA1999999096191MD1999999+0031REMSYN004BUFR
0149832420999992016040912004-12558-041389FM-12+043999999V0200901N0015199999999010000199+02751+02191101531ADDAA101999999AZ101061AZ201061GA1031+003001071GE19MSL   +99999+99999GF103991031999003001999999KA1120N+01981MA1999999096661MD1999999+0021REMSYN004BUFR
0152832420999992016040918004-12558-041389FM-12+043999999V0201801N0015100300199010000199+03321+02091100921ADDAA101999999AZ101061AZ201061GA1051+003001071GA2999+999999001GE19MSL   +99999+99999GF106991051999003001999999MA1999999096111MD1999999+0011REMSYN004BUFR
0155832420999992016041012004-12558-041389FM-12+043999999V0201401N0015100300199010000199+02471+02011101441ADDAA124002031AY161061AY221061GA1071+003001071GE19MSL   +99999+99999GF107991071999003001999999KA1120N+01891MA1999999096561MD1999999-0101MW1021REMSYN004BUFR
0152832420999992016041018004-12558-041389FM-12+043999999V0202301N0015199999999010000199+03221+02131101021ADDAA101999999AZ101061AZ201061GA1041+003001071GA2999+999999001GE19MSL   +99999+99999GF105991041999003001999999MA1999999096171MD1999999+0061REMSYN004BUFR
0149832420999992016041112004-12558-041389FM-12+043999999V0201801N0015100300199004000199+02501+02071101591ADDAA101999999AZ101061AZ201061GA1071+003001071GE19MSL   +99999+99999GF107991071999003001999999KA1120N+01781MA1999999096691MD1999999+0131REMSYN004BUFR
0152832420999992016041118004-12558-041389FM-12+043999999V0201801N0015199999999010000199+03201+02171101071ADDAA101999999AZ101061AZ201061GA1041+003001071GA2999+999999001GE19MSL   +99999+99999GF105991041999003001999999MA1999999096221MD1999999+0031REMSYN004BUFR
0136832420999992016041200004-12558-041389FM-12+043999999V0202701N0031199999999002000199+02521+01951101231ADDAA101999999AZ101061AZ201061GA1021+003001071GE19MSL   +99999+99999GF102991021999003001999999MA1999999096341MD1999999-0071REMSYN004BUFR
0149832420999992016041212004-12558-041389FM-12+043999999V0201401N0031100300199010000199+02521+02071101581ADDAA101999999AZ101061AZ201061GA1071+003001071GE19MSL   +99999+99999GF107991071999003001999999KA1120N+01951MA1999999096681MD1999999-0011REMSYN004BUFR
0136832420999992016041218004-12558-041389FM-12+043999999V0200901N0051100300199004000199+02871+02181101281ADDAA101999999AZ101061AZ201061GA1071+003001071GE19MSL   +99999+99999GF107991071999003001999999MA1999999096391MD1999999+0171REMSYN004BUFR
0174832420999992016041300004-12558-041389FM-12+043999999V0201401N0015100300199002000199+02251+02111101531ADDAA106004031AY161061AY221061GA1081+003001071GA2999+999999101GA3999+999999101GE19MSL   +99999+99999GF108991081999003001999999MA1999999096601MD1999999+0261MW1201REMSYN004BUFR
0155832420999992016041312004-12558-041389FM-12+043999999V0201801N0026100300199004000199+02291+01961101791ADDAA124010031AY161061AY221061GA1071+003001071GE19MSL   +99999+99999GF107991071999003001999999KA1120N+01751MA1999999096831MD1999999+0151MW1021REMSYN004BUFR
0152832420999992016041318004-12558-041389FM-12+043999999V0201401N0026100300199010000199+02771+02091101461ADDAA101999999AZ101061AZ201061GA1051+003001071GA2999+999999001GE19MSL   +99999+99999GF106991051999003001999999MA1999999096541MD1999999+0151REMSYN004BUFR
0168832420999992016041400004-12558-041389FM-12+043999999V0202301N0015100300199002000199+02321+02091101481ADDAA101999999AZ101061AZ201061GA1081+003001071GA2999+999999101GA3999+999999101GE19MSL   +99999+99999GF108991081999003001999999MA1999999096531MD1999999-0071REMSYN004BUFR
0181832420999992016041412004-12558-041389FM-12+043999999V0201801N0015100300199004000199+02241+02181101961ADDAA101999999AZ101061AZ201061GA1081+003001071GA2999+999999101GA3999+999999101GE19MSL   +99999+99999GF108991081999003001999999KA1120N+01561MA1999999096991MD1999999+0161REMSYN004BUFR
0136832420999992016041418004-12558-041389FM-12+043999999V0201801N0031100300199004000199+02941+02111101571ADDAA101999999AZ101061AZ201061GA1071+003001071GE19MSL   +99999+99999GF107991071999003001999999MA1999999096651MD1999999+0111REMSYN004BUFR
0136832420999992016041500004-12558-041389FM-12+043999999V0201401N0015199999999002000199+02341+01991101611ADDAA101999999AZ101061AZ201061GA1011+003001081GE19MSL   +99999+99999GF101991011999003001999999MA1999999096651MD1999999+0121REMSYN004BUFR
0187832420999992016041512004-12558-041389FM-12+043999999V0200901N0005100300199004000199+02141+01821101811ADDAA124000431AY151061AY221061GA1081+003001071GA2999+999999101GA3999+999999101GE19MSL   +99999+99999GF108991081999003001999999KA1120N+01591MA1999999096841MD1999999-0151MW1021REMSYN004BUFR
0136832420999992016041518004-12558-041389FM-12+043999999V0201801N0031100300199004000199+02791+02151101351ADDAA101999999AZ101061AZ201061GA1071+003001071GE19MSL   +99999+99999GF107991071999003001999999MA1999999096421MD1999999-0231REMSYN004BUFR
0168832420999992016041600004-12558-041389FM-12+043999999V0201401N0031100300199002000199+02491+02111101521ADDAA101999999AZ101061AZ201061GA1081+003001071GA2999+999999101GA3999+999999101GE19MSL   +99999+99999GF108991081999003001999999MA1999999096581MD1999999-0071REMSYN004BUFR
0149832420999992016041612004-12558-041389FM-12+043999999V0200901N0051100300199010000199+02501+01911101751ADDAA101999999AZ101061AZ201061GA1071+003001071GE19MSL   +99999+99999GF107991071999003001999999KA1120N+01771MA1999999096831MD1999999-0011REMSYN004BUFR
0136832420999992016041618004-12558-041389FM-12+043999999V0200901N0031100300199010000199+03191+01781101161ADDAA101999999AZ101061AZ201061GA1061+003001071GE19MSL   +99999+99999GF106991061999003001999999MA1999999096301MD1999999-0121REMSYN004BUFR
0149832420999992016041712004-12558-041389FM-12+043999999V0201801N0031100300199010000199+02491+02001101781ADDAA101999999AZ101061AZ201061GA1071+003001071GE19MSL   +99999+99999GF107991071999003001999999KA1120N+01821MA1999999096871MD1999999+0041REMSYN004BUFR
0168832420999992016041718004-12558-041389FM-12+043999999V0201801N0015100300199010000199+02951+02131101301ADDAA101999999AZ101061AZ201061GA1051+003001071GA2999+999999031GA3999+999999001GE19MSL   +99999+99999GF107991051999003001999999MA1999999096411MD1999999+0111REMSYN004BUFR
0155832420999992016041812004-12558-041389FM-12+043999999V0200901N0015100300199004000199+02491+02151101891ADDAA124000331AY151061AY221061GA1071+003001071GE19MSL   +99999+99999GF107991071999003001999999KA1120N+01741MA1999999096961MD1999999+0091MW1021REMSYN004BUFR
0136832420999992016041818004-12558-041389FM-12+043999999V0202301N0015100300199004000199+02841+02121101441ADDAA101999999AZ101061AZ201061GA1071+003001071GE19MSL   +99999+99999GF107991071999003001999999MA1999999096541MD1999999+0131REMSYN004BUFR
0168832420999992016041900004-12558-041389FM-12+043999999V0201801N0031100300199002000199+02601+01881101731ADDAA101999999AZ101061AZ201061GA1081+003001071GA2999+999999101GA3999+999999101GE19MSL   +99999+99999GF108991081999003001999999MA1999999096821MD1999999+0071REMSYN004BUFR
0149832420999992016041912004-12558-041389FM-12+043999999V0201801N0015100300199004000199+02301+01851101821ADDAA101999999AZ101061AZ201061GA1071+003001071GE19MSL   +99999+99999GF107991071999003001999999KA1120N+01661MA1999999096891MD1999999-0071REMSYN004BUFR
0136832420999992016041918004-12558-041389FM-12+043999999V0201801N0031100300199010000199+02821+02121101451ADDAA101999999AZ101061AZ201061GA1071+003001071GE19MSL   +99999+99999GF107991071999003001999999MA1999999096531MD1999999-0011REMSYN004BUFR
0168832420999992016042000004-12558-041389FM-12+043999999V0201801N0015100300199002000199+02391+02051101571ADDAA101999999AZ101061AZ201061GA1081+003001071GA2999+999999101GA3999+999999101GE19MSL   +99999+99999GF108991081999003001999999MA1999999096631MD1999999-0191REMSYN004BUFR
0187832420999992016042012004-12558-041389FM-12+043999999V0201801N0015100300199004000199+02001+01811102011ADDAA124000331AY151061AY221061GA1081+003001071GA2999+999999101GA3999+999999101GE19MSL   +99999+99999GF108991081999003001999999KA1120N+01561MA1999999097021MD1999999+0131MW1201REMSYN004BUFR
0158832420999992016042018004-12558-041389FM-12+043999999V0200901N0031100300199010000199+02791+01951101281ADDAA106000131AY151061AY221061GA1061+003001071GA2999+999999001GE19MSL   +99999+99999GF108991061999003001999999MA1999999096341MD1999999-0191MW1031REMSYN004BUFR
0168832420999992016042100004-12558-041389FM-12+043999999V0201801N0031100300199002000199+02441+01971101531ADDAA101999999AZ101061AZ201061GA1081+003001071GA2999+999999101GA3999+999999101GE19MSL   +99999+99999GF108991081999003001999999MA1999999096571MD1999999-0061REMSYN004BUFR
0149832420999992016042112004-12558-041389FM-12+043999999V0201401N0026100300199010000199+02471+01981101821ADDAA124000131AZ101061AZ201061GA1071+003001071GE19MSL   +99999+99999GF107991071999003001999999KA1120N+01571MA1999999096891MD1999999-0131REMSYN004BUFR
0152832420999992016042118004-12558-041389FM-12+043999999V0202301N0015199999999010000199+03071+01951101161ADDAA101999999AZ101061AZ201061GA1031+003001071GA2999+999999001GE19MSL   +99999+99999GF106991031999003001999999MA1999999096281MD1999999-0061REMSYN004BUFR
0149832420999992016042212004-12558-041389FM-12+043999999V0200501N0015100300199010000199+02441+02051101791ADDAA101999999AZ101061AZ201061GA1061+003001071GE19MSL   +99999+99999GF106991061999003001999999KA1120N+01671MA1999999096871MD1999999-0021REMSYN004BUFR
0136832420999992016042218004-12558-041389FM-12+043999999V0200901N0031199999999010000199+03191+01781101141ADDAA101999999AZ101061AZ201061GA1021+003001081GE19MSL   +99999+99999GF102991021999003001999999MA1999999096281MD1999999+0001REMSYN004BUFR
0136832420999992016042300004-12558-041389FM-12+043999999V0200501N0015199999999002000199+02341+01761101441ADDAA101999999AZ101061AZ201061GA1011+003001061GE19MSL   +99999+99999GF101991011999003001999999MA1999999096521MD1999999-0061REMSYN004BUFR
0149832420999992016042312004-12558-041389FM-12+043999999V0201401N0026100300199010000199+02471+02031101761ADDAA101999999AZ101061AZ201061GA1071+003001071GE19MSL   +99999+99999GF107991071999003001999999KA1120N+01661MA1999999096821MD1999999-0051REMSYN004BUFR
0136832420999992016042318004-12558-041389FM-12+043999999V0201801N0015199999999010000199+03191+02211101141ADDAA101999999AZ101061AZ201061GA1021+003001061GE19MSL   +99999+99999GF102991021999003001999999MA1999999096281MD1999999+0001REMSYN004BUFR
0181832420999992016042412004-12558-041389FM-12+043999999V0201401N0026100300199004000199+02401+01991101631ADDAA101999999AZ101061AZ201061GA1081+003001071GA2999+999999101GA3999+999999101GE19MSL   +99999+99999GF108991081999003001999999KA1120N+01791MA1999999096711MD1999999-0111REMSYN004BUFR
0152832420999992016042418004-12558-041389FM-12+043999999V0201401N0041100300199010000199+03091+02061101111ADDAA101999999AZ101061AZ201061GA1051+003001071GA2999+999999001GE19MSL   +99999+99999GF106991051999003001999999MA1999999096241MD1999999-0041REMSYN004BUFR
0155832420999992016042512004-12558-041389FM-12+043999999V0200901N0021100300199010000199+02571+02101101581ADDAA124000331AY151061AY221061GA1071+003001071GE19MSL   +99999+99999GF107991071999003001999999KA1120N+01861MA1999999096681MD1999999-0031MW1021REMSYN004BUFR
0152832420999992016042518004-12558-041389FM-12+043999999V0201401N0015199999999010000199+03201+01691100791ADDAA101999999AZ101061AZ201061GA1011+003001081GA2999+999999021GE19MSL   +99999+99999GF108991011999003001999999MA1999999095951MD1999999-0291REMSYN004BUFR
0098832420999992016042600004-12558-041389FM-12+043999999V0200901N0026122000199002000199+02441+01811101051ADDAA101999999AZ101061AZ201061GF100991999999999999999999MA1999999096161MD1999999-0381REMSYN004BUFR
0181832420999992016042612004-12558-041389FM-12+043999999V0201801N0015100300199004000199+02351+01871101641ADDAA101999999AZ101061AZ201061GA1081+003001071GA2999+999999101GA3999+999999101GE19MSL   +99999+99999GF108991081999003001999999KA1120N+01751MA1999999096711MD1999999+0031REMSYN004BUFR
0152832420999992016042618004-12558-041389FM-12+043999999V0202301N0031199999999010000199+03151+01921100881ADDAA101999999AZ101061AZ201061GA1011+003001081GA2999+999999021GE19MSL   +99999+99999GF108991011999003001999999MA1999999096021MD1999999+0071REMSYN004BUFR
0098832420999992016042700004-12558-041389FM-12+043999999V0202301N0015122000199002000199+02421+01741101111ADDAA101999999AZ101061AZ201061GF100991999999999999999999MA1999999096201MD1999999+0041REMSYN004BUFR
0149832420999992016042712004-12558-041389FM-12+043999999V0200901N0026100300199010000199+02371+01891101771ADDAA101999999AZ101061AZ201061GA1071+003001071GE19MSL   +99999+99999GF107991071999003001999999KA1120N+01561MA1999999096831MD1999999+0121REMSYN004BUFR
0098832420999992016042718004-12558-041389FM-12+043999999V0200901N0015122000199010000199+02241+02211101101ADDAA101999999AZ101061AZ201061GF100991999999999999999999MA1999999096231MD1999999+0211REMSYN004BUFR
0098832420999992016042800004-12558-041389FM-12+043999999V0203601N0015122000199002000199+02491+01821101181ADDAA101999999AZ101061AZ201061GF100991999999999999999999MA1999999096281MD1999999+0081REMSYN004BUFR
0181832420999992016042812004-12558-041389FM-12+043999999V0201801N0015100300199004000199+02421+01991101631ADDAA101999999AZ101061AZ201061GA1081+003001071GA2999+999999101GA3999+999999101GE19MSL   +99999+99999GF108991081999003001999999KA1120N+01621MA1999999096711MD1999999-0121REMSYN004BUFR
0152832420999992016042818004-12558-041389FM-12+043999999V0201801N0031199999999010000199+03221+01981100961ADDAA101999999AZ101061AZ201061GA1041+003001091GA2999+999999021GE19MSL   +99999+99999GF105991041999003001999999MA1999999096111MD1999999-0121REMSYN004BUFR
0098832420999992016042900004-12558-041389FM-12+043999999V0202701N0010122000199002000199+02471+01831101221ADDAA101999999AZ101061AZ201061GF100991999999999999999999MA1999999096321MD1999999+0041REMSYN004BUFR
0149832420999992016042912004-12558-041389FM-12+043999999V0200901N0031100300199010000199+02541+02151101601ADDAA101999999AZ101061AZ201061GA1071+003001071GE19MSL   +99999+99999GF107991071999003001999999KA1120N+01691MA1999999096691MD1999999-0021REMSYN004BUFR
0168832420999992016042918004-12558-041389FM-12+043999999V0201401N0015100300199010000199+03191+01931100921ADDAA101999999AZ101061AZ201061GA1051+003001071GA2999+999999031GA3999+999999001GE19MSL   +99999+99999GF107991051999003001999999MA1999999096071MD1999999-0041REMSYN004BUFR
0098832420999992016043000004-12558-041389FM-12+043999999V0203601N0031122000199002000199+02401+01721101221ADDAA101999999AZ101061AZ201061GF100991999999999999999999MA1999999096331MD1999999+0011REMSYN004BUFR
0149832420999992016043012004-12558-041389FM-12+043999999V0203201N0015100300199010000199+02471+02011101491ADDAA101999999AZ101061AZ201061GA1071+003001071GE19MSL   +99999+99999GF107991071999003001999999KA1120N+01861MA1999999096571MD1999999-0121REMSYN004BUFR
0168832420999992016043018004-12558-041389FM-12+043999999V0200901N0031199999999010000199+03241+01961100851ADDAA101999999AZ101061AZ201061GA1021+003001091GA2999+999999031GA3999+999999001GE19MSL   +99999+99999GF105991021999003001999999MA1999999096011MD1999999-0061REMSYN004BUFR
0149832420999992016050112004-12558-041389FM-12+043999999V0200901N0015100300199010000199+02591+02011101481ADDAA101999999AZ101061AZ201061GA1071+003001071GE19MSL   +99999+99999GF107991071999003001999999KA1120N+01931MA1999999096581MD1999999+0011REMSYN004BUFR
0136832420999992016050118004-12558-041389FM-12+043999999V0200901N0015199999999010000199+03301+02041100881ADDAA101999999AZ101061AZ201061GA1021+003001091GE19MSL   +99999+99999GF102991021999003001999999MA1999999096061MD1999999+0051REMSYN004BUFR
0181832420999992016050212004-12558-041389FM-12+043999999V0201401N0015100300199004000199+02491+02151101741ADDAA101999999AZ101061AZ201061GA1081+003001071GA2999+999999101GA3999+999999101GE19MSL   +99999+99999GF108991081999003001999999KA1120N+01981MA1999999096851MD1999999+0271REMSYN004BUFR
0136832420999992016050218004-12558-041389FM-12+043999999V0201801N0026100300199010000199+03021+02071101381ADDAA101999999AZ101061AZ201061GA1071+003001071GE19MSL   +99999+99999GF107991071999003001999999MA1999999096511MD1999999+0341REMSYN004BUFR
0168832420999992016050300004-12558-041389FM-12+043999999V0201401N0051100300199002000199+02641+02051101541ADDAA101999999AZ101061AZ201061GA1081+003001071GA2999+999999101GA3999+999999101GE19MSL   +99999+99999GF108991081999003001999999MA1999999096641MD1999999+0161REMSYN004BUFR
0181832420999992016050312004-12558-041389FM-12+043999999V0201801N0031100300199004000199+02371+01871101901ADDAA101999999AZ101061AZ201061GA1081+003001071GA2999+999999101GA3999+999999101GE19MSL   +99999+99999GF108991081999003001999999KA1120N+01891MA1999999096971MD1999999+0121REMSYN004BUFR
0168832420999992016050318004-12558-041389FM-12+043999999V0201801N0015100300199004000199+02621+02161101481ADDAA101999999AZ101061AZ201061GA1081+003001071GA2999+999999101GA3999+999999101GE19MSL   +99999+99999GF108991081999003001999999MA1999999096561MD1999999+0161REMSYN004BUFR
0168832420999992016050400004-12558-041389FM-12+043999999V0201801N0051100300199002000199+02491+01941101561ADDAA101999999AZ101061AZ201061GA1081+003001071GA2999+999999101GA3999+999999101GE19MSL   +99999+99999GF108991081999003001999999MA1999999096641MD1999999+0001REMSYN004BUFR
0187832420999992016050412004-12558-041389FM-12+043999999V0200501N0005100300199004000199+02141+01781101951ADDAA124001031AY161061AY221061GA1081+003001071GA2999+999999101GA3999+999999101GE19MSL   +99999+99999GF108991081999003001999999KA1120N+01641MA1999999096991MD1999999+0021MW1021REMSYN004BUFR
0136832420999992016050418004-12558-041389FM-12+043999999V0201401N0015100300199004000199+02751+02161101501ADDAA101999999AZ101061AZ201061GA1071+003001071GE19MSL   +99999+99999GF107991071999003001999999MA1999999096561MD1999999+0001REMSYN004BUFR
0168832420999992016050500004-12558-041389FM-12+043999999V0200501N0015100300199002000199+02491+02111101551ADDAA101999999AZ101061AZ201061GA1081+003001071GA2999+999999101GA3999+999999101GE19MSL   +99999+99999GF108991081999003001999999MA1999999096601MD1999999+0041REMSYN004BUFR
0181832420999992016050512004-12558-041389FM-12+043999999V0200901N0015100300199004000199+02421+01971101901ADDAA101999999AZ101061AZ201061GA1081+003001071GA2999+999999101GA3999+999999101GE19MSL   +99999+99999GF108991081999003001999999KA1120N+01811MA1999999096961MD1999999-0031REMSYN004BUFR
0136832420999992016050518004-12558-041389FM-12+043999999V0200901N0031100300199010000199+03121+02101101361ADDAA101999999AZ101061AZ201061GA1071+003001071GE19MSL   +99999+99999GF107991071999003001999999MA1999999096491MD1999999-0071REMSYN004BUFR
0136832420999992016050600004-12558-041389FM-12+043999999V0200501N0010199999999002000199+02521+02001101541ADDAA101999999AZ101061AZ201061GA1041+003001071GE19MSL   +99999+99999GF104991041999003001999999MA1999999096631MD1999999+0031REMSYN004BUFR
0149832420999992016050612004-12558-041389FM-12+043999999V0201801N0015100300199010000199+02491+02171101881ADDAA101999999AZ101061AZ201061GA1071+003001071GE19MSL   +99999+99999GF107991071999003001999999KA1120N+01891MA1999999096951MD1999999-0011REMSYN004BUFR
0152832420999992016050618004-12558-041389FM-12+043999999V0201801N0026100300199010000199+03171+02161101341ADDAA101999999AZ101061AZ201061GA1051+003001071GA2999+999999001GE19MSL   +99999+99999GF106991051999003001999999MA1999999096481MD1999999-0011REMSYN004BUFR
0136832420999992016050700004-12558-041389FM-12+043999999V0202701N0015100300199002000199+02541+01951101611ADDAA101999999AZ101061AZ201061GA1071+003001071GE19MSL   +99999+99999GF107991071999003001999999MA1999999096701MD1999999+0071REMSYN004BUFR
0181832420999992016050712004-12558-041389FM-12+043999999V0201401N0010100300199004000199+02441+02031101881ADDAA101999999AZ101061AZ201061GA1081+003001071GA2999+999999101GA3999+999999101GE19MSL   +99999+99999GF108991081999003001999999KA1120N+01891MA1999999096951MD1999999+0001REMSYN004BUFR
0168832420999992016050718004-12558-041389FM-12+043999999V0200901N0026100300199010000199+02871+02131101411ADDAA101999999AZ101061AZ201061GA1081+003001071GA2999+999999101GA3999+999999101GE19MSL   +99999+99999GF108991081999003001999999MA1999999096521MD1999999+0041REMSYN004BUFR
0187832420999992016050812004-12558-041389FM-12+043999999V0201801N0031100300199004000199+02201+01861101871ADDAA124003031AY161061AY221061GA1081+003001071GA2999+999999101GA3999+999999101GE19MSL   +99999+99999GF108991081999003001999999KA1120N+01571MA1999999096901MD1999999-0051MW1021REMSYN004BUFR
0136832420999992016050818004-12558-041389FM-12+043999999V0202701N0026100300199004000199+02421+02051101561ADDAA101999999AZ101061AZ201061GA1071+003001071GE19MSL   +99999+99999GF107991071999003001999999MA1999999096581MD1999999-0061REMSYN004BUFR
0165832420999992016050912004-12558-041389FM-12+043999999V0201801N0005199999999010000199+02371+02151101871ADDAA124000131AZ101061AZ201061GA1041+003001071GA2999+999999001GE19MSL   +99999+99999GF105991041999003001999999KA1120N+01661MA1999999096891MD1999999-0011REMSYN004BUFR
0136832420999992016050918004-12558-041389FM-12+043999999V0201801N0015100300199010000199+02971+02151101421ADDAA101999999AZ101061AZ201061GA1061+003001071GE19MSL   +99999+99999GF106991061999003001999999MA1999999096521MD1999999-0061REMSYN004BUFR
0136832420999992016051000004-12558-041389FM-12+043999999V0202301N0015100300199002000199+02451+01901101551ADDAA101999999AZ101061AZ201061GA1071+003001071GE19MSL   +99999+99999GF107991071999003001999999MA1999999096621MD1999999+0101REMSYN004BUFR
0149832420999992016051012004-12558-041389FM-12+043999999V0200901N0015100300199010000199+02371+02151101931ADDAA101999999AZ101061AZ201061GA1071+003001071GE19MSL   +99999+99999GF107991071999003001999999KA1120N+01411MA1999999096981MD1999999+0091REMSYN004BUFR
0098832420999992016051018004-12558-041389FM-12+043999999V0202301N0021122000199010000199+03021+02241101301ADDAA101999999AZ101061AZ201061GF100991999999999999999999MA1999999096391MD1999999-0131REMSYN004BUFR
0098832420999992016051100004-12558-041389FM-12+043999999V0203601N0015122000199002000199+02271+01831101541ADDAA101999999AZ101061AZ201061GF100991999999999999999999MA1999999096591MD1999999-0031REMSYN004BUFR
0181832420999992016051112004-12558-041389FM-12+043999999V0201401N0015100300199004000199+02391+02211101931ADDAA101999999AZ101061AZ201061GA1081+003001071GA2999+999999101GA3999+999999101GE19MSL   +99999+99999GF108991081999003001999999KA1120N+01741MA1999999096971MD1999999-0011REMSYN004BUFR
0098832420999992016051200004-12558-041389FM-12+043999999V0203601N0015122000199002000199+02401+01911101391ADDAA101999999AZ101061AZ201061GF100991999999999999999999MA1999999096471MD1999999-0121REMSYN004BUFR
0181832420999992016051212004-12558-041389FM-12+043999999V0201801N0015100300199004000199+02291+01981101941ADDAA101999999AZ101061AZ201061GA1081+003001071GA2999+999999101GA3999+999999101GE19MSL   +99999+99999GF108991081999003001999999KA1120N+01651MA1999999096981MD1999999+0011REMSYN004BUFR
0136832420999992016051218004-12558-041389FM-12+043999999V0200901N0026199999999010000199+03171+02251101381ADDAA101999999AZ101061AZ201061GA1021+003001071GE19MSL   +99999+99999GF102991021999003001999999MA1999999096491MD1999999+0111REMSYN004BUFR
0136832420999992016051300004-12558-041389FM-12+043999999V0200901N0015199999999002000199+02321+01831101451ADDAA101999999AZ101061AZ201061GA1999+080001001GE19MSL   +99999+99999GF102991999999080001999999MA1999999096501MD1999999+0031REMSYN004BUFR
0181832420999992016051312004-12558-041389FM-12+043999999V0200501N0010100300199004000199+02191+02051101971ADDAA101999999AZ101061AZ201061GA1081+003001071GA2999+999999101GA3999+999999101GE19MSL   +99999+99999GF108991081999003001999999KA1120N+01551MA1999999096991MD1999999+0011REMSYN004BUFR
0136832420999992016051318004-12558-041389FM-12+043999999V0201801N0026199999999010000199+03051+02191101421ADDAA101999999AZ101061AZ201061GA1021+003001091GE19MSL   +99999+99999GF102991021999003001999999MA1999999096511MD1999999+0021REMSYN004BUFR
0168832420999992016051400004-12558-041389FM-12+043999999V0201801N0015199999999002000199+02341+01831101591ADDAA101999999AZ101061AZ201061GA1031+003001071GA2999+999999031GA3999+999999021GE19MSL   +99999+99999GF107991031999003001999999MA1999999096631MD1999999+0131REMSYN004BUFR
0181832420999992016051412004-12558-041389FM-12+043999999V0201801N0026199999999010000199+02441+01991101881ADDAA101999999AZ101061AZ201061GA1041+003001071GA2999+999999031GA3999+999999101GE19MSL   +99999+99999GF108991041999003001999999KA1120N+01811MA1999999096941MD1999999-0051REMSYN004BUFR
0152832420999992016051418004-12558-041389FM-12+043999999V0200901N0015100300199010000199+02971+02041101421ADDAA101999999AZ101061AZ201061GA1051+003001071GA2999+999999021GE19MSL   +99999+99999GF108991051999003001999999MA1999999096531MD1999999+0021REMSYN004BUFR
0181832420999992016051512004-12558-041389FM-12+043999999V0201801N0031100300199010000199+02471+01981101851ADDAA101999999AZ101061AZ201061GA1081+003001071GA2999+999999101GA3999+999999101GE19MSL   +99999+99999GF108991081999003001999999KA1120N+01891MA1999999096941MD1999999+0001REMSYN004BUFR
0168832420999992016051518004-12558-041389FM-12+043999999V0201801N0026100300199010000199+02921+01981101411ADDAA101999999AZ101061AZ201061GA1051+003001071GA2999+999999031GA3999+999999101GE19MSL   +99999+99999GF108991051999003001999999MA1999999096521MD1999999-0011REMSYN004BUFR
0187832420999992016051612004-12558-041389FM-12+043999999V0201801N0015100300199004000199+02201+02191102051ADDAA124001031AY161061AY221061GA1081+003001071GA2999+999999101GA3999+999999101GE19MSL   +99999+99999GF108991081999003001999999KA1120N+01771MA1999999097081MD1999999+0141MW1201REMSYN004BUFR
0152832420999992016051618004-12558-041389FM-12+043999999V0203601N0026199999999010000199+02761+02121101541ADDAA101999999AZ101061AZ201061GA1041+003001071GA2999+999999031GE19MSL   +99999+99999GF106991041999003001999999MA1999999096611MD1999999-0091REMSYN004BUFR
0168832420999992016051700004-12558-041389FM-12+043999999V0203601N0005100300199002000199+02421+01951101691ADDAA101999999AZ101061AZ201061GA1081+003001071GA2999+999999101GA3999+999999101GE19MSL   +99999+99999GF108991081999003001999999MA1999999096731MD1999999-0111REMSYN004BUFR
0149832420999992016051712004-12558-041389FM-12+043999999V0200901N0005100300199010000199+02401+02231101771ADDAA101999999AZ101061AZ201061GA1071+003001071GE19MSL   +99999+99999GF107991071999003001999999KA1120N+01671MA1999999096831MD1999999-0251REMSYN004BUFR
0168832420999992016051718004-12558-041389FM-12+043999999V0203601N0015199999999010000199+02901+02011101161ADDAA101999999AZ101061AZ201061GA1041+003001081GA2999+999999031GA3999+999999021GE19MSL   +99999+99999GF106991041999003001999999MA1999999096271MD1999999-0341REMSYN004BUFR
0168832420999992016051800004-12558-041389FM-12+043999999V0201801N0015100300199002000199+02421+01991101511ADDAA101999999AZ101061AZ201061GA1081+003001071GA2999+999999101GA3999+999999101GE19MSL   +99999+99999GF108991081999003001999999MA1999999096581MD1999999-0151REMSYN004BUFR
0149832420999992016051812004-12558-041389FM-12+043999999V0200501N0010100300199010000199+02471+02211101751ADDAA101999999AZ101061AZ201061GA1071+003001071GE19MSL   +99999+99999GF107991071999003001999999KA1120N+01561MA1999999096821MD1999999-0011REMSYN004BUFR
0152832420999992016051818004-12558-041389FM-12+043999999V0201801N0015199999999010000199+03141+01911101081ADDAA101999999AZ101061AZ201061GA1031+003001071GA2999+999999001GE19MSL   +99999+99999GF106991031999003001999999MA1999999096221MD1999999-0051REMSYN004BUFR
0136832420999992016051900004-12558-041389FM-12+043999999V0201401N0015199999999002000199+02341+01891101541ADDAA101999999AZ101061AZ201061GA1999+080001021GE19MSL   +99999+99999GF106991999999080001999999MA1999999096611MD1999999+0031REMSYN004BUFR
0181832420999992016051912004-12558-041389FM-12+043999999V0200901N0015100300199004000199+02501+02091101901ADDAA101999999AZ101061AZ201061GA1081+003001071GA2999+999999101GA3999+999999101GE19MSL   +99999+99999GF108991081999003001999999KA1120N+01641MA1999999096961MD1999999+0141REMSYN004BUFR
0152832420999992016051918004-12558-041389FM-12+043999999V0201401N0031199999999010000199+02991+01971101261ADDAA101999999AZ101061AZ201061GA1041+003001071GA2999+999999001GE19MSL   +99999+99999GF107991041999003001999999MA1999999096371MD1999999+0151REMSYN004BUFR
0168832420999992016052000004-12558-041389FM-12+043999999V0201801N0015100300199002000199+02491+01871101611ADDAA101999999AZ101061AZ201061GA1081+003001071GA2999+999999101GA3999+999999101GE19MSL   +99999+99999GF108991081999003001999999MA1999999096701MD1999999+0091REMSYN004BUFR
0149832420999992016052012004-12558-041389FM-12+043999999V0201801N0026100300199010000199+02341+02151102171ADDAA101999999AZ101061AZ201061GA1071+003001071GE19MSL   +99999+99999GF107991071999003001999999KA1120N+01641MA1999999097211MD1999999+0251REMSYN004BUFR
0168832420999992016052018004-12558-041389FM-12+043999999V0202701N0015100300199010000199+02821+01941101521ADDAA101999999AZ101061AZ201061GA1081+003001071GA2999+999999101GA3999+999999101GE19MSL   +99999+99999GF108991081999003001999999MA1999999096591MD1999999+0221REMSYN004BUFR
0168832420999992016052100004-12558-041389FM-12+043999999V0200901N0031100300199002000199+02491+01911101801ADDAA101999999AZ101061AZ201061GA1081+003001071GA2999+999999101GA3999+999999101GE19MSL   +99999+99999GF108991081999003001999999MA1999999096861MD1999999+0161REMSYN004BUFR
0149832420999992016052112004-12558-041389FM-12+043999999V0201801N0015100300199010000199+02251+02091102051ADDAA101999999AZ101061AZ201061GA1071+003001071GE19MSL   +99999+99999GF107991071999003001999999KA1120N+01591MA1999999097101MD1999999-0111REMSYN004BUFR
0136832420999992016052118004-12558-041389FM-12+043999999V0201801N0015100300199010000199+02791+02181101681ADDAA101999999AZ101061AZ201061GA1071+003001071GE19MSL   +99999+99999GF107991071999003001999999MA1999999096731MD1999999+0141REMSYN004BUFR
0149832420999992016052212004-12558-041389FM-12+043999999V0200501N0015100300199010000199+02391+02281102051ADDAA101999999AZ101061AZ201061GA1071+003001071GE19MSL   +99999+99999GF107991071999003001999999KA1120N+01711MA1999999097081MD1999999-0021REMSYN004BUFR
0152832420999992016052218004-12558-041389FM-12+043999999V0201801N0031100300199010000199+03141+02211101511ADDAA101999999AZ101061AZ201061GA1051+003001071GA2999+999999001GE19MSL   +99999+99999GF106991051999003001999999MA1999999096621MD1999999-0111REMSYN004BUFR
0149832420999992016052312004-12558-041389FM-12+043999999V0200501N0026100300199010000199+02471+02151102031ADDAA101999999AZ101061AZ201061GA1061+003001071GE19MSL   +99999+99999GF106991061999003001999999KA1120N+01811MA1999999096081MD1999999+0001REMSYN004BUFR
0152832420999992016052318004-12558-041389FM-12+043999999V0201401N0015199999999010000199+03171+01871101311ADDAA101999999AZ101061AZ201061GA1011+003001071GA2999+999999001GE19MSL   +99999+99999GF106991011999003001999999MA1999999096441MD1999999-0181REMSYN004BUFR
0136832420999992016052400004-12558-041389FM-12+043999999V0203201N0015199999999002000199+02401+01841101611ADDAA101999999AZ101061AZ201061GA1999+080001001GE19MSL   +99999+99999GF102991999999080001999999MA1999999096691MD1999999-0071REMSYN004BUFR
0149832420999992016052412004-12558-041389FM-12+043999999V0201801N0005100300199010000199+02521+02291102011ADDAA101999999AZ101061AZ201061GA1061+003001071GE19MSL   +99999+99999GF106991061999003001999999KA1120N+01671MA1999999097071MD1999999-0011REMSYN004BUFR
0168832420999992016052418004-12558-041389FM-12+043999999V0201801N0031199999999010000199+03211+02051101371ADDAA101999999AZ101061AZ201061GA1041+003001071GA2999+999999031GA3999+999999011GE19MSL   +99999+99999GF106991041999003001999999MA1999999096501MD1999999+0061REMSYN004BUFR
0187832420999992016052512004-12558-041389FM-12+043999999V0201401N0026100300199004000199+02261+02141102181ADDAA124002031AY161061AY221061GA1081+003001071GA2999+999999101GA3999+999999101GE19MSL   +99999+99999GF108991081999003001999999KA1120N+01731MA1999999097221MD1999999+0151MW1021REMSYN004BUFR
0168832420999992016052518004-12558-041389FM-12+043999999V0201801N0041100300199004000199+02601+02101101771ADDAA101999999AZ101061AZ201061GA1081+003001071GA2999+999999101GA3999+999999101GE19MSL   +99999+99999GF108991081999003001999999MA1999999096811MD1999999+0311REMSYN004BUFR
0181832420999992016052612004-12558-041389FM-12+043999999V0201801N0026100300199004000199+02171+02081102131ADDAA101999999AZ101061AZ201061GA1081+003001071GA2999+999999101GA3999+999999101GE19MSL   +99999+99999GF108991081999003001999999KA1120N+01711MA1999999097121MD1999999-0101REMSYN004BUFR
0168832420999992016052618004-12558-041389FM-12+043999999V0201801N0051100300199010000199+02671+01941101411ADDAA101999999AZ101061AZ201061GA1081+003001071GA2999+999999101GA3999+999999101GE19MSL   +99999+99999GF108991081999003001999999MA1999999096461MD1999999-0351REMSYN004BUFR
0149832420999992016052712004-12558-041389FM-12+043999999V0200901N0015199999999010000199+02271+02091102111ADDAA101999999AZ101061AZ201061GA1031+003001071GE19MSL   +99999+99999GF103991031999003001999999KA1120N+01571MA1999999097111MD1999999-0011REMSYN004BUFR
0152832420999992016052718004-12558-041389FM-12+043999999V0201801N0005199999999010000199+02021+01551101311ADDAA101999999AZ101061AZ201061GA1011+003001081GA2999+999999021GE19MSL   +99999+99999GF108991011999003001999999MA1999999096411MD1999999-0051REMSYN004BUFR
0181832420999992016052812004-12558-041389FM-12+043999999V0203601N0015199999999010000199+02201+01741102061ADDAA101999999AZ101061AZ201061GA1041+003001071GA2999+999999031GA3999+999999001GE19MSL   +99999+99999GF106991041999003001999999KA1120N+01591MA1999999097071MD1999999-0041REMSYN004BUFR
0168832420999992016052818004-12558-041389FM-12+043999999V0201401N0031100300199010000199+02911+01921101501ADDAA101999999AZ101061AZ201061GA1051+003001071GA2999+999999031GA3999+999999001GE19MSL   +99999+99999GF107991051999003001999999MA1999999096571MD1999999-0161REMSYN004BUFR
0181832420999992016052912004-12558-041389FM-12+043999999V0201801N0015100300199010000199+02501+01871101871ADDAA101999999AZ101061AZ201061GA1051+003001071GA2999+999999031GA3999+999999021GE19MSL   +99999+99999GF107991051999003001999999KA1120N+01781MA1999999096911MD1999999-0161REMSYN004BUFR
0168832420999992016052918004-12558-041389FM-12+043999999V0200901N0015100300199010000199+02871+01971101381ADDAA101999999AZ101061AZ201061GA1081+003001071GA2999+999999101GA3999+999999101GE19MSL   +99999+99999GF108991081999003001999999MA1999999096481MD1999999-0091REMSYN004BUFR
0181832420999992016053012004-12558-041389FM-12+043999999V0201401N0015100300199004000199+02371+02011101841ADDAA101999999AZ101061AZ201061GA1081+003001071GA2999+999999101GA3999+999999101GE19MSL   +99999+99999GF108991081999003001999999KA1120N+01841MA1999999096881MD1999999-0031REMSYN004BUFR
0136832420999992016053018004-12558-041389FM-12+043999999V0201801N0010100300199004000199+02771+02161101331ADDAA101999999AZ101061AZ201061GA1071+003001071GE19MSL   +99999+99999GF107991071999003001999999MA1999999096421MD1999999-0061REMSYN004BUFR
0149832420999992016053112004-12558-041389FM-12+043999999V0203601N0015100300199010000199+02471+02321101731ADDAA101999999AZ101061AZ201061GA1061+003001071GE19MSL   +99999+99999GF106991061999003001999999KA1120N+01681MA1999999096781MD1999999-0101REMSYN004BUFR
0136832420999992016053118004-12558-041389FM-12+043999999V0200501N0021199999999010000199+03171+02191101151ADDAA101999999AZ101061AZ201061GA1021+003001071GE19MSL   +99999+99999GF102991021999003001999999MA1999999096291MD1999999-0131REMSYN004BUFR
0181832420999992016060112004-12558-041389FM-12+043999999V0203601N0015100300199004000199+02321+02171101711ADDAA101999999AZ101061AZ201061GA1081+003001071GA2999+999999101GA3999+999999101GE19MSL   +99999+99999GF108991081999003001999999KA1120N+01871MA1999999096771MD1999999-0011REMSYN004BUFR
0136832420999992016060118004-12558-041389FM-12+043999999V0200901N0015199999999010000199+03151+02261101241ADDAA101999999AZ101061AZ201061GA1021+003001071GE19MSL   +99999+99999GF102991021999003001999999MA1999999096371MD1999999+0081REMSYN004BUFR
0181832420999992016060212004-12558-041389FM-12+043999999V0201401N0015100300199004000199+02051+01891101811ADDAA101999999AZ101061AZ201061GA1081+003001071GA2999+999999101GA3999+999999101GE19MSL   +99999+99999GF108991081999003001999999KA1120N+01331MA1999999096821MD1999999+0051REMSYN004BUFR
0136832420999992016060218004-12558-041389FM-12+043999999V0202301N0015199999999010000199+03171+02191101141ADDAA101999999AZ101061AZ201061GA1021+003001091GE19MSL   +99999+99999GF102991021999003001999999MA1999999096241MD1999999-0131REMSYN004BUFR
0149832420999992016060312004-12558-041389FM-12+043999999V0200501N0015100300199010000199+02301+02071101691ADDAA101999999AZ101061AZ201061GA1071+003001071GE19MSL   +99999+99999GF107991071999003001999999KA1120N+01341MA1999999096731MD1999999-0091REMSYN004BUFR
0136832420999992016060318004-12558-041389FM-12+043999999V0200901N0015199999999010000199+03311+02171101111ADDAA101999999AZ101061AZ201061GA1021+003001091GE19MSL   +99999+99999GF102991021999003001999999MA1999999096231MD1999999-0011REMSYN004BUFR
0149832420999992016060412004-12558-041389FM-12+043999999V0200901N0015199999999010000199+02551+02331101621ADDAA101999999AZ101061AZ201061GA1021+003001091GE19MSL   +99999+99999GF102991021999003001999999KA1120N+01661MA1999999096701MD1999999-0031REMSYN004BUFR
0136832420999992016060418004-12558-041389FM-12+043999999V0200501N0015199999999010000199+03421+02131101051ADDAA101999999AZ101061AZ201061GA1021+003001091GE19MSL   +99999+99999GF102991021999003001999999MA1999999096211MD1999999-0021REMSYN004BUFR
0149832420999992016060512004-12558-041389FM-12+043999999V0201801N0015100300199010000199+02421+02191101741ADDAA101999999AZ101061AZ201061GA1071+003001071GE19MSL   +99999+99999GF107991071999003001999999KA1120N+01571MA1999999096821MD1999999+0121REMSYN004BUFR
0152832420999992016060518004-12558-041389FM-12+043999999V0201401N0015199999999010000199+03301+02151101131ADDAA101999999AZ101061AZ201061GA1011+003001091GA2999+999999001GE19MSL   +99999+99999GF102991011999003001999999MA1999999096271MD1999999+0061REMSYN004BUFR
0181832420999992016060612004-12558-041389FM-12+043999999V0200901N0015100300199004000199+02451+02211101751ADDAA101999999AZ101061AZ201061GA1081+003001071GA2999+999999101GA3999+999999101GE19MSL   +99999+99999GF108991081999003001999999KA1120N+01761MA1999999096821MD1999999+0001REMSYN004BUFR
0098832420999992016060618004-12558-041389FM-12+043999999V0201401N0015122000199010000199+03271+02161101121ADDAA101999999AZ101061AZ201061GF100991999999999999999999MA1999999096271MD1999999+0001REMSYN004BUFR
0098832420999992016060700004-12558-041389FM-12+043999999V0202701N0015122000199002000199+02551+01951101341ADDAA101999999AZ101061AZ201061GF100991999999999999999999MA1999999096441MD1999999-0191REMSYN004BUFR
