0072833440999992016010100004-14863-040863FM-15+091499999V0200601N005119999999Y999999999+02401+01801999999ADDMA1101701999999REMMET045METAR SBQV 010000Z 06010KT CAVOK 24/18 Q1017=
0072833440999992016010101004-14863-040863FM-15+091499999V0200801N005119999999Y999999999+02301+01901999999ADDMA1101801999999REMMET045METAR SBQV 010100Z 08010KT CAVOK 23/19 Q1018=
0142833440999992016010106304-14863-040863FM-16+091499999V0200401N004119999999N009999199+02001+01801999999ADDGA1021+005491999GE19MSL   +99999+99999GF199999021999005491999999MA1101701999999REMMET051SPECI SBQV 010630Z 04008KT 9999 FEW018 20/18 Q1017=
0142833440999992016010107004-14863-040863FM-15+091499999V0200601N003119999999N009999199+02001+01801999999ADDGA1021+005491999GE19MSL   +99999+99999GF199999021999005491999999MA1101701999999REMMET051METAR SBQV 010700Z 06006KT 9999 FEW018 20/18 Q1017=
0142833440999992016010108004-14863-040863FM-15+091499999V0200601N004110054919N009999199+02101+01801999999ADDGA1071+005491999GE19MSL   +99999+99999GF199999071999005491999999MA1101701999999REMMET051METAR SBQV 010800Z 06008KT 9999 BKN018 21/18 Q1017=
0142833440999992016010109004-14863-040863FM-15+091499999V0200501N002119999999N009999199+02001+01801999999ADDGA1041+004571999GE19MSL   +99999+99999GF199999041999004571999999MA1101801999999REMMET051METAR SBQV 010900Z 05004KT 9999 SCT015 20/18 Q1018=
0142833440999992016010110004-14863-040863FM-15+091499999V0200701N002619999999N009999199+02201+01801999999ADDGA1041+004571999GE19MSL   +99999+99999GF199999041999004571999999MA1101801999999REMMET051METAR SBQV 011000Z 07005KT 9999 SCT015 22/18 Q1018=
0142833440999992016010111004-14863-040863FM-15+091499999V0200401N004119999999N009999199+02401+01701999999ADDGA1041+004571999GE19MSL   +99999+99999GF199999041999004571999999MA1101901999999REMMET051METAR SBQV 011100Z 04008KT 9999 SCT015 24/17 Q1019=
0149833440999992016010112004-14886-040801FM-12+084099999V020999999999999999999020000199+02571+01831101201ADDAA101999999AZ101061AZ201061GA1041+012501081GE19MSL   +99999+99999GF104991041999012501999999KA1120N+01821MA1999999091771MD1999999-0181REMSYN004BUFR
0142833440999992016010112004-14863-040863FM-15+091499999V0200201N003619999999N009999199+02501+01801999999ADDGA1021+004571999GE19MSL   +99999+99999GF199999021999004571999999MA1101901999999REMMET051METAR SBQV 011200Z 02007KT 9999 FEW015 25/18 Q1019=
0142833440999992016010113004-14863-040863FM-15+091499999V0200601N003119999999N009999199+02701+01801999999ADDGA1021+006101999GE19MSL   +99999+99999GF199999021999006101999999MA1101801999999REMMET051METAR SBQV 011300Z 06006KT 9999 FEW020 27/18 Q1018=
0142833440999992016010114004-14863-040863FM-15+091499999V0200601N002619999999N009999199+03001+01701999999ADDGA1041+006101999GE19MSL   +99999+99999GF199999041999006101999999MA1101801999999REMMET051METAR SBQV 011400Z 06005KT 9999 SCT020 30/17 Q1018=
0142833440999992016010115004-14863-040863FM-15+091499999V0203501N002119999999N009999199+03001+01401999999ADDGA1041+006101999GE19MSL   +99999+99999GF199999041999006101999999MA1101701999999REMMET051METAR SBQV 011500Z 35004KT 9999 SCT020 30/14 Q1017=
0142833440999992016010116004-14863-040863FM-15+091499999V0200701N002619999999N009999199+03201+01301999999ADDGA1041+007621999GE19MSL   +99999+99999GF199999041999007621999999MA1101601999999REMMET051METAR SBQV 011600Z 07005KT 9999 SCT025 32/13 Q1016=
0142833440999992016010117004-14863-040863FM-15+091499999V0200501N002119999999N009999199+03201+01201999999ADDGA1041+007621999GE19MSL   +99999+99999GF199999041999007621999999MA1101501999999REMMET051METAR SBQV 011700Z 05004KT 9999 SCT025 32/12 Q1015=
0136833440999992016010118004-14886-040801FM-12+084099999V020999999999999999999020000199+03341+01581999999ADDAA101999999AZ101061AZ201061GA1021+003001081GE19MSL   +99999+99999GF102991021999003001999999MA1999999091271MD1999999-0231REMSYN004BUFR
0142833440999992016010118004-14863-040863FM-15+091499999V0201101N003619999999N009999199+03201+01401999999ADDGA1041+007621999GE19MSL   +99999+99999GF199999041999007621999999MA1101401999999REMMET051METAR SBQV 011800Z 11007KT 9999 SCT025 32/14 Q1014=
0142833440999992016010119004-14863-040863FM-15+091499999V0201201N006219999999N009999199+03301+01501999999ADDGA1041+007621999GE19MSL   +99999+99999GF199999041999007621999999MA1101301999999REMMET051METAR SBQV 011900Z 12012KT 9999 SCT025 33/15 Q1013=
0142833440999992016010120004-14863-040863FM-15+091499999V0201001N005119999999N009999199+03201+01501999999ADDGA1021+007621999GE19MSL   +99999+99999GF199999021999007621999999MA1101301999999REMMET051METAR SBQV 012000Z 10010KT 9999 FEW025 32/15 Q1013=
0142833440999992016010121004-14863-040863FM-15+091499999V0201201N004119999999N009999199+03001+01401999999ADDGA1021+007621999GE19MSL   +99999+99999GF199999021999007621999999MA1101301999999REMMET051METAR SBQV 012100Z 12008KT 9999 FEW025 30/14 Q1013=
0142833440999992016010122004-14863-040863FM-15+091499999V0201001N004119999999N009999199+03001+01401999999ADDGA1021+007621999GE19MSL   +99999+99999GF199999021999007621999999MA1101401999999REMMET051METAR SBQV 012200Z 10008KT 9999 FEW025 30/14 Q1014=
0072833440999992016010123004-14863-040863FM-15+091499999V0200701N004619999999Y999999999+02801+01401999999ADDMA1101401999999REMMET045METAR SBQV 012300Z 07009KT CAVOK 28/14 Q1014=
0072833440999992016010200004-14863-040863FM-15+091499999V0200701N006219999999Y999999999+02601+01701999999ADDMA1101501999999REMMET045METAR SBQV 020000Z 07012KT CAVOK 26/17 Q1015=
0072833440999992016010202004-14863-040863FM-15+091499999V0200601N005119999999Y999999999+02301+01701999999ADDMA1101601999999REMMET045METAR SBQV 020200Z 06010KT CAVOK 23/17 Q1016=
0072833440999992016010203004-14863-040863FM-15+091499999V0200501N005719999999Y999999999+02301+01601999999ADDMA1101601999999REMMET045METAR SBQV 020300Z 05011KT CAVOK 23/16 Q1016=
0072833440999992016010204004-14863-040863FM-15+091499999V0200601N003119999999Y999999999+02301+01501999999ADDMA1101601999999REMMET045METAR SBQV 020400Z 06006KT CAVOK 23/15 Q1016=
0072833440999992016010206304-14863-040863FM-16+091499999V0200601N002119999999Y999999999+02201+01001999999ADDMA1101501999999REMMET045SPECI SBQV 020630Z 06004KT CAVOK 22/10 Q1015=
0072833440999992016010208004-14863-040863FM-15+091499999V0209999C000019999999Y999999999+02201+01201999999ADDMA1101701999999REMMET045METAR SBQV 020800Z 00000KT CAVOK 22/12 Q1017=
0072833440999992016010209004-14863-040863FM-15+091499999V0201201N002119999999Y999999999+02201+01401999999ADDMA1101701999999REMMET045METAR SBQV 020900Z 12004KT CAVOK 22/14 Q1017=
0072833440999992016010210004-14863-040863FM-15+091499999V0202201N001519999999Y999999999+02401+01601999999ADDMA1101801999999REMMET045METAR SBQV 021000Z 22003KT CAVOK 24/16 Q1018=
0072833440999992016010211004-14863-040863FM-15+091499999V0200101N004119999999Y999999999+02601+01501999999ADDMA1101801999999REMMET045METAR SBQV 021100Z 01008KT CAVOK 26/15 Q1018=
0149833440999992016010212004-14886-040801FM-12+084099999V020999999999999999999020000199+03021+01301101001ADDAA101999999AZ101061AZ201061GA1021+012501031GE19MSL   +99999+99999GF102991021999012501999999KA1120N+01821MA1999999091691MD1999999-0081REMSYN004BUFR
0072833440999992016010212004-14863-040863FM-15+091499999V0203301N005119999999Y999999999+02801+01401999999ADDMA1101801999999REMMET045METAR SBQV 021200Z 33010KT CAVOK 28/14 Q1018=
0142833440999992016010213004-14863-040863FM-15+091499999V0203101N005719999999N009999199+03001+01501999999ADDGA1021+009141999GE19MSL   +99999+99999GF199999021999009141999999MA1101801999999REMMET051METAR SBQV 021300Z 31011KT 9999 FEW030 30/15 Q1018=
0142833440999992016010214004-14863-040863FM-15+091499999V0203401N004619999999N009999199+03001+01401999999ADDGA1021+010061999GE19MSL   +99999+99999GF199999021999010061999999MA1101801999999REMMET051METAR SBQV 021400Z 34009KT 9999 FEW033 30/14 Q1018=
0142833440999992016010215004-14863-040863FM-15+091499999V0203601N003619999999N009999199+03101+01401999999ADDGA1021+010061999GE19MSL   +99999+99999GF199999021999010061999999MA1101701999999REMMET051METAR SBQV 021500Z 36007KT 9999 FEW033 31/14 Q1017=
0142833440999992016010216004-14863-040863FM-15+091499999V0202001N002619999999N009999199+03401+01401999999ADDGA1021+010061999GE19MSL   +99999+99999GF199999021999010061999999MA1101501999999REMMET051METAR SBQV 021600Z 20005KT 9999 FEW033 34/14 Q1015=
0152833440999992016010218004-14886-040801FM-12+084099999V020999999999999999999020000199+03592+01211999999ADDAA101999999AZ101061AZ201061GA1031+006001081GA2999+999999011GE19MSL   +99999+99999GF104991031999006001999999MA1999999091251MD1999999-0021REMSYN004BUFR
0142833440999992016010218004-14863-040863FM-15+091499999V0209999C000019999999N009999199+03401+01001999999ADDGA1041+010061999GE19MSL   +99999+99999GF199999041999010061999999MA1101401999999REMMET051METAR SBQV 021800Z 00000KT 9999 SCT033 34/10 Q1014=
0142833440999992016010219004-14863-040863FM-15+091499999V0200501N002619999999N009999199+03501+00901999999ADDGA1041+010061999GE19MSL   +99999+99999GF199999041999010061999999MA1101301999999REMMET051METAR SBQV 021900Z 05005KT 9999 SCT033 35/09 Q1013=
0142833440999992016010220004-14863-040863FM-15+091499999V0209999C000019999999N009999199+03501+00901999999ADDGA1041+010061999GE19MSL   +99999+99999GF199999041999010061999999MA1101301999999REMMET051METAR SBQV 022000Z 00000KT 9999 SCT033 35/09 Q1013=
0142833440999992016010221004-14863-040863FM-15+091499999V0200701N003619999999N009999199+03301+01101999999ADDGA1021+010061999GE19MSL   +99999+99999GF199999021999010061999999MA1101201999999REMMET051METAR SBQV 022100Z 07007KT 9999 FEW033 33/11 Q1012=
0072833440999992016010222004-14863-040863FM-15+091499999V0201001N003119999999Y999999999+03101+01101999999ADDMA1101301999999REMMET045METAR SBQV 022200Z 10006KT CAVOK 31/11 Q1013=
0072833440999992016010223004-14863-040863FM-15+091499999V0200601N004619999999Y999999999+03001+01301999999ADDMA1101401999999REMMET045METAR SBQV 022300Z 06009KT CAVOK 30/13 Q1014=
0072833440999992016010300004-14863-040863FM-15+091499999V0200701N004619999999Y999999999+02801+01301999999ADDMA1101401999999REMMET045METAR SBQV 030000Z 07009KT CAVOK 28/13 Q1014=
0072833440999992016010301004-14863-040863FM-15+091499999V0200701N004619999999Y999999999+02601+01401999999ADDMA1101501999999REMMET045METAR SBQV 030100Z 07009KT CAVOK 26/14 Q1015=
0072833440999992016010302004-14863-040863FM-15+091499999V0200401N004619999999Y999999999+02701+01601999999ADDMA1101501999999REMMET045METAR SBQV 030200Z 04009KT CAVOK 27/16 Q1015=
0072833440999992016010303004-14863-040863FM-15+091499999V0200401N004119999999Y999999999+02701+01601999999ADDMA1101501999999REMMET045METAR SBQV 030300Z 04008KT CAVOK 27/16 Q1015=
0072833440999992016010304004-14863-040863FM-15+091499999V0200401N003619999999Y999999999+02601+01501999999ADDMA1101501999999REMMET045METAR SBQV 030400Z 04007KT CAVOK 26/15 Q1015=
0072833440999992016010307004-14863-040863FM-15+091499999V0201401N005119999999Y999999999+02401+01601999999ADDMA1101501999999REMMET045METAR SBQV 030700Z 14010KT CAVOK 24/16 Q1015=
0072833440999992016010308004-14863-040863FM-15+091499999V0201501N004119999999Y999999999+02001+01801999999ADDMA1101501999999REMMET045METAR SBQV 030800Z 15008KT CAVOK 20/18 Q1015=
0165833440999992016010309004-14863-040863FM-15+091499999V0201201N003610054919N006000199+02001+01901999999ADDGA1071+005491999GA2071+024381999GE19MSL   +99999+99999GF199999071999005491999999MA1101701999999REMMET058METAR SBQV 030900Z 12007KT 6000 BKN018 BKN080 20/19 Q1017=
0165833440999992016010310004-14863-040863FM-15+091499999V0200901N00261024381CN008000199+02101+01801999999ADDGA1021+006101999GA2041+024381999GE19MSL   +99999+99999GF199999021999006101999999MA1101701999999REMMET058METAR SBQV 031000Z 09005KT 8000 FEW020 SCT080 21/18 Q1017=
0165833440999992016010311004-14863-040863FM-15+091499999V0201001N00261024381CN009999199+02501+01701999999ADDGA1021+006101999GA2041+024381999GE19MSL   +99999+99999GF199999021999006101999999MA1101701999999REMMET058METAR SBQV 031100Z 10005KT 9999 FEW020 SCT080 25/17 Q1017=
0181833440999992016010312004-14886-040801FM-12+084099999V020999999999999999999020000199+02771+01771100951ADDAA101999999AZ101061AZ201061GA1021+003001081GA2999+999999031GA3999+999999001GE19MSL   +99999+99999GF106991021999003001999999KA1120N+02001MA1999999091651MD1999999-0041REMSYN004BUFR
0072833440999992016010312004-14863-040863FM-15+091499999V0203601N004619999999Y999999999+02701+01701999999ADDMA1101801999999REMMET045METAR SBQV 031200Z 36009KT CAVOK 27/17 Q1018=
0165833440999992016010314004-14863-040863FM-15+091499999V0203001N00461030481CN009999199+03101+01401999999ADDGA1021+009141999GA2041+030481999GE19MSL   +99999+99999GF199999021999009141999999MA1101701999999REMMET058METAR SBQV 031400Z 30009KT 9999 FEW030 SCT100 31/14 Q1017=
0165833440999992016010315004-14863-040863FM-15+091499999V0203301N00621030481CN009999199+03101+01401999999ADDGA1041+010061999GA2041+030481999GE19MSL   +99999+99999GF199999041999010061999999MA1101601999999REMMET058METAR SBQV 031500Z 33012KT 9999 SCT033 SCT100 31/14 Q1016=
0165833440999992016010316004-14863-040863FM-15+091499999V0203101N003610100619N009999199+03301+01501999999ADDGA1071+010061999GA2071+030481999GE19MSL   +99999+99999GF199999071999010061999999MA1101501999999REMMET058METAR SBQV 031600Z 31007KT 9999 BKN033 BKN100 33/15 Q1015=
0165833440999992016010317004-14863-040863FM-15+091499999V0203401N003610100619N009999199+03301+01301999999ADDGA1071+010061999GA2071+030481999GE19MSL   +99999+99999GF199999071999010061999999MA1101401999999REMMET058METAR SBQV 031700Z 34007KT 9999 BKN033 BKN100 33/13 Q1014=
0168833440999992016010318004-14886-040801FM-12+084099999V020999999999999999999020000199+03401+01501999999ADDAA101999999AZ101061AZ201061GA1021+003001081GA2999+999999031GA3999+999999001GE19MSL   +99999+99999GF106991021999003001999999MA1999999091241MD1999999-0011REMSYN004BUFR
0168833440999992016010318004-14863-040863FM-15+091499999V0203101N00311010061CN009999199+03301+01401999999ADDGA1041+010061999GA2021+010061081GE19MSL   +99999+99999GF199999041999010061999999MA1101301999999REMMET061METAR SBQV 031800Z 31006KT 9999 SCT033 FEW033TCU 33/14 Q1013=
0165833440999992016010319004-14863-040863FM-15+091499999V0202901N00311030481CN009999199+03301+01501999999ADDGA1041+010061999GA2041+030481999GE19MSL   +99999+99999GF199999041999010061999999MA1101301999999REMMET058METAR SBQV 031900Z 29006KT 9999 SCT033 SCT100 33/15 Q1013=
0191833440999992016010320004-14863-040863FM-15+091499999V0202501N002110304819N009999199+03301+01401999999ADDGA1041+010061999GA2021+010061081GA3071+030481999GE19MSL   +99999+99999GF199999041999010061999999MA1101301999999REMMET068METAR SBQV 032000Z 25004KT 9999 SCT033 FEW033TCU BKN100 33/14 Q1013=
0191833440999992016010321004-14863-040863FM-15+091499999V0202101N00211030481CN009999199+03001+01501999999ADDGA1021+010061081GA2021+010061999GA3041+030481999GE19MSL   +99999+99999GF199999021999010061999999MA1101301999999REMMET068METAR SBQV 032100Z 21004KT 9999 FEW033TCU FEW033 SCT100 30/15 Q1013=
0199833440999992016010321304-14863-040863FM-16+091499999V0201601N00461010061CN009999199+02901+01501999999ADDGA1021+010061091GA2041+010061999GA3041+030481999GE19MSL   +99999+99999GF199999021999010061999999MA1101301999999MW1171REMMET070SPECI SBQV 032130Z 16009KT 9999 TS FEW033CB SCT033 SCT100 29/15 Q1013=
0199833440999992016010322004-14863-040863FM-15+091499999V0202201N00361010061CN009999199+02901+01701999999ADDGA1021+010061091GA2041+010061999GA3071+030481999GE19MSL   +99999+99999GF199999021999010061999999MA1101401999999MW1171REMMET070METAR SBQV 032200Z 22007KT 9999 TS FEW033CB SCT033 BKN100 29/17 Q1014=
0201833440999992016010322304-14863-040863FM-16+091499999V0203101N010810061019N003000199+02102+02001999999ADDGA1021+004571091GA2071+006101999GA3071+030481999GE19MSL   +99999+99999GF199999021999004571999999MA1101601999999MW1971REMMET072SPECI SBQV 032230Z 31021KT 3000 +TSRA FEW015CB BKN020 BKN100 21/20Q1016=
0179833440999992016010400004-14863-040863FM-15+091499999V0201601N002110274319N008000199+02101+01901999999ADDGA1021+007011091GA2071+027431999GE19MSL   +99999+99999GF199999021999007011999999MA1101601999999MW1951REMMET066METAR SBQV 040000Z 16004KT 8000 -TSRA FEW023CB BKN090 21/19 Q1016=
0170833440999992016010400254-14863-040863FM-16+091499999V0200601N005110274319N009999199+02201+01901999999ADDGA1041+007011999GA2071+027431999GE19MSL   +99999+99999GF199999041999007011999999MA1101801999999REMMET063SPECI SBQV 040025Z 06010KT 9999 SCT023 BKN090 22/19 Q1018 RETS=
0165833440999992016010402004-14863-040863FM-15+091499999V0200601N006210274319N009999199+02201+01601999999ADDGA1041+007011999GA2071+027431999GE19MSL   +99999+99999GF199999041999007011999999MA1101701999999REMMET058METAR SBQV 040200Z 06012KT 9999 SCT023 BKN090 22/16 Q1017=
0152833440999992016010403004-14863-040863FM-15+091499999V0201201N002610061019N009999199+02201+01601999999ADDGA1071+006101999GE19MSL   +99999+99999GF199999071999006101999999MA1101701999999MW1511REMMET055METAR SBQV 040300Z 12005KT 9999 -DZ BKN020 22/16 Q1017=
0142833440999992016010404004-14863-040863FM-15+091499999V0200601N001510061019N009999199+02201+01601999999ADDGA1071+006101999GE19MSL   +99999+99999GF199999071999006101999999MA1101701999999REMMET051METAR SBQV 040400Z 06003KT 9999 BKN020 22/16 Q1017=
0142833440999992016010406304-14863-040863FM-16+091499999V0203001N001519999999N009999199+02301+01601999999ADDGA1041+006101999GE19MSL   +99999+99999GF199999041999006101999999MA1101501999999REMMET051SPECI SBQV 040630Z 30003KT 9999 SCT020 23/16 Q1015=
0142833440999992016010407004-14863-040863FM-15+091499999V0203101N002119999999N009999199+02201+01601999999ADDGA1041+006101999GE19MSL   +99999+99999GF199999041999006101999999MA1101501999999REMMET051METAR SBQV 040700Z 31004KT 9999 SCT020 22/16 Q1015=
0142833440999992016010408004-14863-040863FM-15+091499999V0209999C000019999999N009999199+02101+01601999999ADDGA1041+006101999GE19MSL   +99999+99999GF199999041999006101999999MA1101601999999REMMET051METAR SBQV 040800Z 00000KT 9999 SCT020 21/16 Q1016=
0165833440999992016010410004-14863-040863FM-15+091499999V0209999C000010121919N009999199+02101+01701999999ADDGA1071+012191999GA2081+021341999GE19MSL   +99999+99999GF199999071999012191999999MA1101701999999REMMET058METAR SBQV 041000Z 00000KT 9999 BKN040 OVC070 21/17 Q1017=
0155833440999992016010412004-14886-040801FM-12+084099999V020999999999900300199020000199+02391+01891101271ADDAA124006031AY161061AY221061GA1071+003001061GE19MSL   +99999+99999GF107991071999003001999999KA1120N+01951MA1999999091751MD1999999+0101MW1031REMSYN004BUFR
0142833440999992016010412004-14863-040863FM-15+091499999V0201401N003110121919N009999199+02301+01801999999ADDGA1071+012191999GE19MSL   +99999+99999GF199999071999012191999999MA1101901999999REMMET051METAR SBQV 041200Z 14006KT 9999 BKN040 23/18 Q1019=
0165833440999992016010414004-14863-040863FM-15+091499999V0209999C000010091419N009999199+02701+01801999999ADDGA1071+009141999GA2041+021341999GE19MSL   +99999+99999GF199999071999009141999999MA1101801999999REMMET058METAR SBQV 041400Z 00000KT 9999 BKN030 SCT070 27/18 Q1018=
0142833440999992016010415004-14863-040863FM-15+091499999V0201401N003610091419N009999199+02701+01701999999ADDGA1071+009141999GE19MSL   +99999+99999GF199999071999009141999999MA1101701999999REMMET051METAR SBQV 041500Z 14007KT 9999 BKN030 27/17 Q1017=
0142833440999992016010417004-14863-040863FM-15+091499999V0201301N005710091419N009999199+02701+01801999999ADDGA1071+009141999GE19MSL   +99999+99999GF199999071999009141999999MA1101501999999REMMET051METAR SBQV 041700Z 13011KT 9999 BKN030 27/18 Q1015=
0152833440999992016010418004-14886-040801FM-12+084099999V020999999999900300199020000199+02741+01701999999ADDAA101999999AZ101061AZ201061GA1061+003001071GA2999+999999031GE19MSL   +99999+99999GF107991061999003001999999MA1999999091421MD1999999+0181REMSYN004BUFR
0142833440999992016010418004-14863-040863FM-15+091499999V0201501N006210091419N009999199+02601+01701999999ADDGA1071+009141999GE19MSL   +99999+99999GF199999071999009141999999MA1101501999999REMMET051METAR SBQV 041800Z 15012KT 9999 BKN030 26/17 Q1015=
0142833440999992016010418384-14863-040863FM-16+091499999V0201701N005110091419N009999199+02401+01901999999ADDGA1071+009141999GE19MSL   +99999+99999GF199999071999009141999999MA1101501999999REMMET051SPECI SBQV 041838Z 17010KT 9999 BKN030 24/19 Q1015=
0165833440999992016010419004-14863-040863FM-15+091499999V0201501N005710091419N009999199+02301+01901999999ADDGA1071+009141999GA2071+021341999GE19MSL   +99999+99999GF199999071999009141999999MA1101501999999REMMET058METAR SBQV 041900Z 15011KT 9999 BKN030 BKN070 23/19 Q1015=
0165833440999992016010421004-14863-040863FM-15+091499999V0201301N00571012191CN009999199+02201+01901999999ADDGA1021+001521999GA2041+012191999GE19MSL   +99999+99999GF199999021999001521999999MA1101601999999REMMET058METAR SBQV 042100Z 13011KT 9999 FEW005 SCT040 22/19 Q1016=
0165833440999992016010422004-14863-040863FM-15+091499999V0201001N003610304819N009999199+02301+02001999999ADDGA1021+004571999GA2071+030481999GE19MSL   +99999+99999GF199999021999004571999999MA1101701999999REMMET058METAR SBQV 042200Z 10007KT 9999 FEW015 BKN100 23/20 Q1017=
0165833440999992016010423004-14863-040863FM-15+091499999V0201101N004110304819N009999199+02201+02001999999ADDGA1021+004571999GA2071+030481999GE19MSL   +99999+99999GF199999021999004571999999MA1101801999999REMMET058METAR SBQV 042300Z 11008KT 9999 FEW015 BKN100 22/20 Q1018=
0175833440999992016010500004-14863-040863FM-15+091499999V0201101N005710274319N008000199+02201+02001999999ADDGA1041+005181999GA2071+027431999GE19MSL   +99999+99999GF199999041999005181999999MA1101901999999MW1611REMMET062METAR SBQV 050000Z 11011KT 8000 -RA SCT017 BKN090 22/20 Q1019=
0175833440999992016010502004-14863-040863FM-15+091499999V0200901N005110274319N009000199+02101+02001999999ADDGA1041+004571999GA2081+027431999GE19MSL   +99999+99999GF199999041999004571999999MA1101901999999MW1611REMMET062METAR SBQV 050200Z 09010KT 9000 -RA SCT015 OVC090 21/20 Q1019=
0165833440999992016010504004-14863-040863FM-15+091499999V0200901N002610243819N009999199+02101+01901999999ADDGA1021+004571999GA2071+024381999GE19MSL   +99999+99999GF199999021999004571999999MA1101801999999REMMET058METAR SBQV 050400Z 09005KT 9999 FEW015 BKN080 21/19 Q1018=
0165833440999992016010506304-14863-040863FM-16+091499999V0201501N006210243819N006000199+01801+01701999999ADDGA1041+003051999GA2071+024381999GE19MSL   +99999+99999GF199999041999003051999999MA1101801999999REMMET058SPECI SBQV 050630Z 15012KT 6000 SCT010 BKN080 18/17 Q1018=
0165833440999992016010507004-14863-040863FM-15+091499999V0201201N005110243819N006000199+01801+01701999999ADDGA1041+003051999GA2071+024381999GE19MSL   +99999+99999GF199999041999003051999999MA1101801999999REMMET058METAR SBQV 050700Z 12010KT 6000 SCT010 BKN080 18/17 Q1018=
0165833440999992016010508004-14863-040863FM-15+091499999V0201201N004110213419N006000199+01701+01701999999ADDGA1041+003051999GA2071+021341999GE19MSL   +99999+99999GF199999041999003051999999MA1101801999999REMMET058METAR SBQV 050800Z 12008KT 6000 SCT010 BKN070 17/17 Q1018=
0174833440999992016010509004-14863-040863FM-15+091499999V0201101N004610051819N005000199+01801+01601999999ADDGA1071+005181999GA2081+024381999GE19MSL   +99999+99999GF199999071999005181999999MA1101901999999MW1101REMMET061METAR SBQV 050900Z 11009KT 5000 BR BKN017 OVC080 18/16 Q1019=
0176833440999992016010510004-14863-040863FM-15+091499999V0201101N004110045719N008000199+01901+01701999999ADDGA1041+002131999GA2081+004571999GE19MSL   +99999+99999GF199999041999002131999999MA1102001999999MW1161REMMET063METAR SBQV 051000Z 11008KT 8000 VCSH SCT007 OVC015 19/17 Q1020=
0175833440999992016010511004-14863-040863FM-15+091499999V0201301N003110021319N007000199+01801+01801999999ADDGA1071+002131999GA2081+004571999GE19MSL   +99999+99999GF199999071999002131999999MA1102001999999MW1511REMMET062METAR SBQV 051100Z 13006KT 7000 -DZ BKN007 OVC015 18/18 Q1020=
0187833440999992016010512004-14886-040801FM-12+084099999V020999999999900300199010000199+01941+01871101601ADDAA124013031AY161061AY221061GA1081+003001071GA2999+999999101GA3999+999999101GE19MSL   +99999+99999GF108991081999003001999999KA1120N+01781MA1999999091971MD1999999+0221MW1521REMSYN004BUFR
0175833440999992016010512004-14863-040863FM-15+091499999V0201301N003610021319N007000199+01801+01801999999ADDGA1071+002131999GA2081+004571999GE19MSL   +99999+99999GF199999071999002131999999MA1102101999999MW1511REMMET062METAR SBQV 051200Z 13007KT 7000 -DZ BKN007 OVC015 18/18 Q1021=
0161833440999992016010513004-14863-040863FM-15+091499999V0201701N004110015219N004000199+01801+01801999999ADDGA1081+001521999GE19MSL   +99999+99999GF199999081999001521999999MA1102101999999MW1101MW2511REMMET058METAR SBQV 051300Z 17008KT 4000 -DZ BR OVC005 18/18 Q1021=
0142833440999992016010514004-14863-040863FM-15+091499999V0201401N002110021319N008000199+01901+01801999999ADDGA1081+002131999GE19MSL   +99999+99999GF199999081999002131999999MA1102101999999REMMET051METAR SBQV 051400Z 14004KT 8000 OVC007 19/18 Q1021=
0165833440999992016010515004-14863-040863FM-15+091499999V0201801N001510036619N009999199+02101+01901999999ADDGA1071+003661999GA2081+007621999GE19MSL   +99999+99999GF199999071999003661999999MA1102001999999REMMET058METAR SBQV 051500Z 18003KT 9999 BKN012 OVC025 21/19 Q1020=
0165833440999992016010516004-14863-040863FM-15+091499999V0201501N002110213419N009999199+02201+01801999999ADDGA1041+004881999GA2081+021341999GE19MSL   +99999+99999GF199999041999004881999999MA1101901999999REMMET058METAR SBQV 051600Z 15004KT 9999 SCT016 OVC070 22/18 Q1019=
0165833440999992016010517004-14863-040863FM-15+091499999V0201901N001510076219N009999199+02301+01901999999ADDGA1071+007621999GA2081+021341999GE19MSL   +99999+99999GF199999071999007621999999MA1101801999999REMMET058METAR SBQV 051700Z 19003KT 9999 BKN025 OVC070 23/19 Q1018=
0174833440999992016010518004-14886-040801FM-12+084099999V020999999999900300199020000199+02391+01951999999ADDAA106000831AY161061AY221061GA1081+003001071GA2999+999999101GA3999+999999101GE19MSL   +99999+99999GF108991081999003001999999MA1999999091641MD1999999+0221MW1021REMSYN004BUFR
0165833440999992016010518004-14863-040863FM-15+091499999V0209999C000010213419N009999199+02301+01801999999ADDGA1041+007621999GA2071+021341999GE19MSL   +99999+99999GF199999041999007621999999MA1101701999999REMMET058METAR SBQV 051800Z 00000KT 9999 SCT025 BKN070 23/18 Q1017=
0142833440999992016010519004-14863-040863FM-15+091499999V0201401N004110091419N009999199+02301+01901999999ADDGA1071+009141999GE19MSL   +99999+99999GF199999071999009141999999MA1101701999999REMMET051METAR SBQV 051900Z 14008KT 9999 BKN030 23/19 Q1017=
0142833440999992016010521004-14863-040863FM-15+091499999V0201301N005119999999N009999199+02201+01801999999ADDGA1041+009141999GE19MSL   +99999+99999GF199999041999009141999999MA1101701999999REMMET051METAR SBQV 052100Z 13010KT 9999 SCT030 22/18 Q1017=
0098833440999992016010600004-14886-040801FM-12+084099999V020999999999922000199004000199+02071+01871101381ADDAA101999999AZ101061AZ201061GF100991999999999999999999MA1999999091741MD1999999-0031REMSYN004BUFR
0072833440999992016010600004-14863-040863FM-15+091499999V0201201N003619999999Y999999999+02101+01901999999ADDMA1101901999999REMMET045METAR SBQV 060000Z 12007KT CAVOK 21/19 Q1019=
0142833440999992016010601004-14863-040863FM-15+091499999V0201101N004119999999N009999199+02101+01901999999ADDGA1021+007011999GE19MSL   +99999+99999GF199999021999007011999999MA1101901999999REMMET051METAR SBQV 060100Z 11008KT 9999 FEW023 21/19 Q1019=
0142833440999992016010603004-14863-040863FM-15+091499999V0201301N005119999999N008000199+02101+01901999999ADDGA1041+005491999GE19MSL   +99999+99999GF199999041999005491999999MA1101801999999REMMET051METAR SBQV 060300Z 13010KT 8000 SCT018 21/19 Q1018=
0142833440999992016010604004-14863-040863FM-15+091499999V0201101N005710076219N006000199+01901+01801999999ADDGA1071+007621999GE19MSL   +99999+99999GF199999071999007621999999MA1101801999999REMMET051METAR SBQV 060400Z 11011KT 6000 BKN025 19/18 Q1018=
0151833440999992016010606304-14863-040863FM-16+091499999V0201201N004110054919N005000199+01901+01701999999ADDGA1071+005491999GE19MSL   +99999+99999GF199999071999005491999999MA1101701999999MW1101REMMET054SPECI SBQV 060630Z 12008KT 5000 BR BKN018 19/17 Q1017=
0142833440999992016010607004-14863-040863FM-15+091499999V0201101N004610054919N007000199+01901+01701999999ADDGA1071+005491999GE19MSL   +99999+99999GF199999071999005491999999MA1101701999999REMMET051METAR SBQV 060700Z 11009KT 7000 BKN018 19/17 Q1017=
0142833440999992016010608004-14863-040863FM-15+091499999V0201201N005710070119N008000199+01801+01701999999ADDGA1071+007011999GE19MSL   +99999+99999GF199999071999007011999999MA1101801999999REMMET051METAR SBQV 060800Z 12011KT 8000 BKN023 18/17 Q1018=
0188833440999992016010610004-14863-040863FM-15+091499999V0201201N00311004571CN009999199+01801+01601999999ADDGA1021+002131999GA2041+004571999GA3081+021341999GE19MSL   +99999+99999GF199999021999002131999999MA1101901999999REMMET065METAR SBQV 061000Z 12006KT 9999 FEW007 SCT015 OVC070 18/16 Q1019=
0165833440999992016010611004-14863-040863FM-15+091499999V0201201N006210076219N009999199+01901+01701999999ADDGA1071+007621999GA2081+021341999GE19MSL   +99999+99999GF199999071999007621999999MA1102001999999REMMET058METAR SBQV 061100Z 12012KT 9999 BKN025 OVC070 19/17 Q1020=
0187833440999992016010612004-14886-040801FM-12+084099999V020999999999900300199020000199+02041+01761101511ADDAA124001031AY151061AY221061GA1081+003001071GA2999+999999101GA3999+999999101GE19MSL   +99999+99999GF108991081999003001999999KA1120N+01791MA1999999091891MD1999999-0081MW1031REMSYN004BUFR
0165833440999992016010613004-14863-040863FM-15+091499999V0201201N003110213419N009999199+02101+01701999999ADDGA1041+009141999GA2081+021341999GE19MSL   +99999+99999GF199999041999009141999999MA1102001999999REMMET058METAR SBQV 061300Z 12006KT 9999 SCT030 OVC070 21/17 Q1020=
0165833440999992016010614004-14863-040863FM-15+091499999V0201501N002110213419N009999199+02201+01601999999ADDGA1041+009141999GA2081+021341999GE19MSL   +99999+99999GF199999041999009141999999MA1101901999999REMMET058METAR SBQV 061400Z 15004KT 9999 SCT030 OVC070 22/16 Q1019=
0142833440999992016010616004-14863-040863FM-15+091499999V0200801N001510091419N009999199+02601+01601999999ADDGA1071+009141999GE19MSL   +99999+99999GF199999071999009141999999MA1101801999999REMMET051METAR SBQV 061600Z 08003KT 9999 BKN030 26/16 Q1018=
0168833440999992016010618004-14886-040801FM-12+084099999V020999999999900300199020000199+02601+01741999999ADDAA101999999AZ101061AZ201061GA1081+003001071GA2999+999999101GA3999+999999101GE19MSL   +99999+99999GF108991081999003001999999MA1999999091511MD1999999-0131REMSYN004BUFR
0142833440999992016010618004-14863-040863FM-15+091499999V0209999C000010091419N009999199+02501+01601999999ADDGA1071+009141999GE19MSL   +99999+99999GF199999071999009141999999MA1101601999999REMMET051METAR SBQV 061800Z 00000KT 9999 BKN030 25/16 Q1016=
0165833440999992016010619004-14863-040863FM-15+091499999V0209999C000010091419N009999199+02601+01701999999ADDGA1071+009141999GA2071+021341999GE19MSL   +99999+99999GF199999071999009141999999MA1101601999999REMMET058METAR SBQV 061900Z 00000KT 9999 BKN030 BKN070 26/17 Q1016=
0165833440999992016010620004-14863-040863FM-15+091499999V0209999C000010076219N009999199+02601+01601999999ADDGA1071+007621999GA2071+021341999GE19MSL   +99999+99999GF199999071999007621999999MA1101601999999REMMET058METAR SBQV 062000Z 00000KT 9999 BKN025 BKN070 26/16 Q1016=
0165833440999992016010621004-14863-040863FM-15+091499999V0200201N003110213419N009999199+02601+01801999999ADDGA1041+009141999GA2071+021341999GE19MSL   +99999+99999GF199999041999009141999999MA1101601999999REMMET058METAR SBQV 062100Z 02006KT 9999 SCT030 BKN070 26/18 Q1016=
0165833440999992016010622004-14863-040863FM-15+091499999V0203601N002110304819N009999199+02401+01801999999ADDGA1021+007621999GA2071+030481999GE19MSL   +99999+99999GF199999021999007621999999MA1101701999999REMMET058METAR SBQV 062200Z 36004KT 9999 FEW025 BKN100 24/18 Q1017=
0072833440999992016010623004-14863-040863FM-15+091499999V0203601N004619999999Y999999999+02301+01801999999ADDMA1101701999999REMMET045METAR SBQV 062300Z 36009KT CAVOK 23/18 Q1017=
0136833440999992016010700004-14886-040801FM-12+084099999V020999999999900300199002000199+02241+01691101241ADDAA101999999AZ101061AZ201061GA1071+003001071GE19MSL   +99999+99999GF107991071999003001999999MA1999999091671MD1999999-0071REMSYN004BUFR
0072833440999992016010700004-14863-040863FM-15+091499999V0203501N003619999999Y999999999+02301+01801999999ADDMA1101801999999REMMET045METAR SBQV 070000Z 35007KT CAVOK 23/18 Q1018=
0072833440999992016010701004-14863-040863FM-15+091499999V0203501N001519999999Y999999999+02101+01801999999ADDMA1101801999999REMMET045METAR SBQV 070100Z 35003KT CAVOK 21/18 Q1018=
0072833440999992016010702004-14863-040863FM-15+091499999V0200301N003619999999Y999999999+02101+01801999999ADDMA1101801999999REMMET045METAR SBQV 070200Z 03007KT CAVOK 21/18 Q1018=
0165833440999992016010704004-14863-040863FM-15+091499999V0200501N00261030481CN009999199+02201+01901999999ADDGA1021+010061999GA2041+030481999GE19MSL   +99999+99999GF199999021999010061999999MA1101701999999REMMET058METAR SBQV 070400Z 05005KT 9999 FEW033 SCT100 22/19 Q1017=
0142833440999992016010706304-14863-040863FM-16+091499999V0201301N001510067119N006000199+02101+01901999999ADDGA1071+006711999GE19MSL   +99999+99999GF199999071999006711999999MA1101601999999REMMET051SPECI SBQV 070630Z 13003KT 6000 BKN022 21/19 Q1016=
0142833440999992016010707004-14863-040863FM-15+091499999V0209999C000010100619N006000199+02101+01901999999ADDGA1071+010061999GE19MSL   +99999+99999GF199999071999010061999999MA1101601999999REMMET051METAR SBQV 070700Z 00000KT 6000 BKN033 21/19 Q1016=
0142833440999992016010708004-14863-040863FM-15+091499999V0200601N002110100619N006000199+02001+01901999999ADDGA1071+010061999GE19MSL   +99999+99999GF199999071999010061999999MA1101601999999REMMET051METAR SBQV 070800Z 06004KT 6000 BKN033 20/19 Q1016=
0142833440999992016010709004-14863-040863FM-15+091499999V0200501N002610076219N006000199+02101+02001999999ADDGA1071+007621999GE19MSL   +99999+99999GF199999071999007621999999MA1101701999999REMMET051METAR SBQV 070900Z 05005KT 6000 BKN025 21/20 Q1017=
0142833440999992016010710004-14863-040863FM-15+091499999V0200201N003110076219N009999199+02101+01901999999ADDGA1071+007621999GE19MSL   +99999+99999GF199999071999007621999999MA1101701999999REMMET051METAR SBQV 071000Z 02006KT 9999 BKN025 21/19 Q1017=
0142833440999992016010711004-14863-040863FM-15+091499999V0200401N003610061019N009999199+02301+01801999999ADDGA1071+006101999GE19MSL   +99999+99999GF199999071999006101999999MA1101801999999REMMET051METAR SBQV 071100Z 04007KT 9999 BKN020 23/18 Q1018=
0181833440999992016010712004-14886-040801FM-12+084099999V020999999999900300199020000199+02401+01931101151ADDAA101999999AZ101061AZ201061GA1081+003001071GA2999+999999101GA3999+999999101GE19MSL   +99999+99999GF108991081999003001999999KA1120N+01981MA1999999091661MD1999999-0231REMSYN004BUFR
0142833440999992016010712004-14863-040863FM-15+091499999V0200401N003110076219N009999199+02401+01901999999ADDGA1071+007621999GE19MSL   +99999+99999GF199999071999007621999999MA1101801999999REMMET051METAR SBQV 071200Z 04006KT 9999 BKN025 24/19 Q1018=
0142833440999992016010713004-14863-040863FM-15+091499999V0203301N003610076219N009999199+02601+01901999999ADDGA1071+007621999GE19MSL   +99999+99999GF199999071999007621999999MA1101801999999REMMET051METAR SBQV 071300Z 33007KT 9999 BKN025 26/19 Q1018=
0142833440999992016010714004-14863-040863FM-15+091499999V0200201N002610076219N009999199+02701+01801999999ADDGA1071+007621999GE19MSL   +99999+99999GF199999071999007621999999MA1101701999999REMMET051METAR SBQV 071400Z 02005KT 9999 BKN025 27/18 Q1017=
0142833440999992016010715004-14863-040863FM-15+091499999V0203601N003610091419N009999199+02601+01801999999ADDGA1071+009141999GE19MSL   +99999+99999GF199999071999009141999999MA1101701999999REMMET051METAR SBQV 071500Z 36007KT 9999 BKN030 26/18 Q1017=
0142833440999992016010716004-14863-040863FM-15+091499999V0203301N004610091419N009999199+02701+01701999999ADDGA1071+009141999GE19MSL   +99999+99999GF199999071999009141999999MA1101601999999REMMET051METAR SBQV 071600Z 33009KT 9999 BKN030 27/17 Q1016=
0142833440999992016010717004-14863-040863FM-15+091499999V0203601N002610091419N009999199+02801+01701999999ADDGA1071+009141999GE19MSL   +99999+99999GF199999071999009141999999MA1101501999999REMMET051METAR SBQV 071700Z 36005KT 9999 BKN030 28/17 Q1015=
0152833440999992016010718004-14886-040801FM-12+084099999V020999999999999999999020000199+02701+01961999999ADDAA101999999AZ101061AZ201061GA1021+003001071GA2999+999999031GE19MSL   +99999+99999GF106991021999003001999999MA1999999091331MD1999999-0181REMSYN004BUFR
0168833440999992016010718004-14863-040863FM-15+091499999V0201301N005110100619N009999199+02701+01801999999ADDGA1071+010061999GA2021+010061081GE19MSL   +99999+99999GF199999071999010061999999MA1101401999999REMMET061METAR SBQV 071800Z 13010KT 9999 BKN033 FEW033TCU 27/18 Q1014=
0111833440999992016010719004-14863-040863FM-15+091499999V0201201N004119999999N008000199+02705+01905999999ADDMA1101405999999REMMET065METAR SBQV 071900Z 12008KT 8000 125 BKN033 FEW033TCU 27/19 Q1014=EQDD01      0ADE693
0198833440999992016010720004-14863-040863FM-15+091499999V0200601N004110106719N008000199+02501+01901999999ADDGA1071+010671999GA2021+010671081GE19AGL   +99999+99999GF199999071999010671999999MA1101401999999MW1635REMMET066METAR SBQV 072000Z 06008KT 8000 VCRA BKN035 FEW035TCU 25/19 Q1014=EQDD01      0ADE735
0168833440999992016010721004-14863-040863FM-15+091499999V0201101N00361010671CN009999199+02701+02001999999ADDGA1041+010671999GA2041+010671081GE19MSL   +99999+99999GF199999041999010671999999MA1101401999999REMMET061METAR SBQV 072100Z 11007KT 9999 SCT035 SCT035TCU 27/20 Q1014=
0168833440999992016010722004-14863-040863FM-15+091499999V0200501N00311010671CN009999199+02501+01901999999ADDGA1041+010671999GA2021+010671081GE19MSL   +99999+99999GF199999041999010671999999MA1101501999999REMMET061METAR SBQV 072200Z 05006KT 9999 SCT035 FEW035TCU 25/19 Q1015=
0153833440999992016010722354-14863-040863FM-16+091499999V0200701N004610030519N000500199+02201+02101999999ADDGA1071+003051999GE19MSL   +99999+99999GF199999071999003051999999MA1101601999999MW1811REMMET056SPECI SBQV 072235Z 07009KT 0500 SHRA BKN010 22/21 Q1016=
0175833440999992016010723004-14863-040863FM-15+091499999V0200701N004610033519N005000199+02101+02001999999ADDGA1071+003351999GA2081+024381999GE19MSL   +99999+99999GF199999071999003351999999MA1101601999999MW1611REMMET062METAR SBQV 072300Z 07009KT 5000 -RA BKN011 OVC080 21/20 Q1016=
0175833440999992016010723234-14863-040863FM-16+091499999V0200701N005110039619N003000199+02101+02001999999ADDGA1071+003961999GA2081+024381999GE19MSL   +99999+99999GF199999071999003961999999MA1101701999999MW1651REMMET062SPECI SBQV 072323Z 07010KT 3000 +RA BKN013 OVC080 21/20 Q1017=
0142833440999992016010800004-14886-040801FM-12+084099999V020999999999900300199004000199+02141+01971101021ADDAA106010031AY161061AY221061GA1071+003001071GE19MSL   +99999+99999GF107991071999003001999999MA1999999091531MD1999999-0141MW1011REMSYN004BUFR
0187833440999992016010800004-14863-040863FM-15+091499999V0200501N005110061019N008000199+02201+02001999999ADDGA1071+006101999GA2081+024381999GE19MSL   +99999+99999GF199999071999006101999999MA1101701999999MW1611REMMET074METAR SBQV 080000Z 05010KT 8000 -RA BKN020 OVC080 22/20 Q1017 RERA REFZRA=
0175833440999992016010801004-14863-040863FM-15+091499999V0200701N003610243819N009000199+02101+02001999999ADDGA1041+007011999GA2081+024381999GE19MSL   +99999+99999GF199999041999007011999999MA1101701999999MW1611REMMET062METAR SBQV 080100Z 07007KT 9000 -RA SCT023 OVC080 21/20 Q1017=
0202833440999992016010803004-14863-040863FM-15+091499999V0200601N004110070119N005000199+02101+02001999999ADDGA1021+007011091GA2071+007011999GA3081+024381999GE19MSL   +99999+99999GF199999021999007011999999MA1101701999999MW1951REMMET073METAR SBQV 080300Z 06008KT 5000 -TSRA FEW023CB BKN023 OVC080 21/20 Q1017=
0170833440999992016010804004-14863-040863FM-15+091499999V0200701N003610070119N008000199+02001+01901999999ADDGA1071+007011999GA2081+024381999GE19MSL   +99999+99999GF199999071999007011999999MA1101701999999REMMET063METAR SBQV 080400Z 07007KT 8000 BKN023 OVC080 20/19 Q1017 RETS=
0175833440999992016010806304-14863-040863FM-16+091499999V0200801N003610243819N005000199+02001+02001999999ADDGA1041+006101999GA2081+024381999GE19MSL   +99999+99999GF199999041999006101999999MA1101601999999MW1611REMMET062SPECI SBQV 080630Z 08007KT 5000 -RA SCT020 OVC080 20/20 Q1016=
0175833440999992016010807004-14863-040863FM-15+091499999V0201001N003110061019N005000199+02001+01901999999ADDGA1071+006101999GA2081+024381999GE19MSL   +99999+99999GF199999071999006101999999MA1101601999999MW1611REMMET062METAR SBQV 080700Z 10006KT 5000 -RA BKN020 OVC080 20/19 Q1016=
0175833440999992016010808004-14863-040863FM-15+091499999V0200301N002610061019N005000199+02101+02001999999ADDGA1071+006101999GA2081+024381999GE19MSL   +99999+99999GF199999071999006101999999MA1101701999999MW1611REMMET062METAR SBQV 080800Z 03005KT 5000 -RA BKN020 OVC080 21/20 Q1017=
0175833440999992016010809004-14863-040863FM-15+091499999V0200201N003610030519N003000199+02101+02001999999ADDGA1071+003051999GA2081+024381999GE19MSL   +99999+99999GF199999071999003051999999MA1101801999999MW1611REMMET062METAR SBQV 080900Z 02007KT 3000 -RA BKN010 OVC080 21/20 Q1018=
0175833440999992016010809234-14863-040863FM-16+091499999V0203401N004110015219N003000199+02001+02001999999ADDGA1071+001521999GA2081+003051999GE19MSL   +99999+99999GF199999071999001521999999MA1101801999999MW1611REMMET062SPECI SBQV 080923Z 34008KT 3000 -RA BKN005 OVC010 20/20 Q1018=
0174833440999992016010810004-14863-040863FM-15+091499999V0203601N003110015219N002000199+01801+01801999999ADDGA1071+001521999GA2081+003051999GE19MSL   +99999+99999GF199999071999001521999999MA1101901999999MW1631REMMET061METAR SBQV 081000Z 36006KT 2000 RA BKN005 OVC010 18/18 Q1019=
0188833440999992016010811004-14863-040863FM-15+091499999V0203401N003610015219N002000199+02001+01901999999ADDGA1071+001521999GA2081+003051999GE19MSL   +99999+99999GF199999071999001521999999MA1101901999999MW1101MW2631REMMET069METAR SBQV 081100Z 34007KT 2000 RA BR BKN005 OVC010 20/19 Q1019 RERA=
0187833440999992016010812004-14886-040801FM-12+084099999V020999999999900300199004000199+02001+01931101491ADDAA124047031AY161061AY221061GA1081+003001071GA2999+999999101GA3999+999999101GE19MSL   +99999+99999GF108991081999003001999999KA1120N+01881MA1999999091871MD1999999+0211MW1611REMSYN004BUFR
0189833440999992016010812004-14863-040863FM-15+091499999V0203201N002610061019N005000199+01901+01801999999ADDGA1071+006101999GA2081+021341999GE19MSL   +99999+99999GF199999071999006101999999MA1102001999999MW1101MW2611REMMET070METAR SBQV 081200Z 32005KT 5000 -RA BR BKN020 OVC070 19/18 Q1020 RERA=
0188833440999992016010813004-14863-040863FM-15+091499999V0200101N00261006101CN007000199+02101+01901999999ADDGA1021+001521999GA2041+006101999GA3081+021341999GE19MSL   +99999+99999GF199999021999001521999999MA1102001999999REMMET065METAR SBQV 081300Z 01005KT 7000 FEW005 SCT020 OVC070 21/19 Q1020=
0165833440999992016010814004-14863-040863FM-15+091499999V0200201N005710061019N009999199+02101+01901999999ADDGA1071+006101999GA2081+021341999GE19MSL   +99999+99999GF199999071999006101999999MA1101901999999REMMET058METAR SBQV 081400Z 02011KT 9999 BKN020 OVC070 21/19 Q1019=
0165833440999992016010816004-14863-040863FM-15+091499999V0200401N004110213419N009999199+02201+01901999999ADDGA1041+003961999GA2081+021341999GE19MSL   +99999+99999GF199999041999003961999999MA1101801999999REMMET058METAR SBQV 081600Z 04008KT 9999 SCT013 OVC070 22/19 Q1018=
0165833440999992016010817004-14863-040863FM-15+091499999V0200301N004610213419N009999199+02401+02001999999ADDGA1041+007621999GA2081+021341999GE19MSL   +99999+99999GF199999041999007621999999MA1101801999999REMMET058METAR SBQV 081700Z 03009KT 9999 SCT025 OVC070 24/20 Q1018=
0158833440999992016010818004-14886-040801FM-12+084099999V0200501N0015100300199010000199+02441+01921999999ADDAA106000331AY151061AY221061GA1061+003001081GA2999+999999031GE19MSL   +99999+99999GF107991061999003001999999MA1999999091621MD1999999+0291MW1031REMSYN004BUFR
0165833440999992016010818004-14863-040863FM-15+091499999V0200201N006210213419N009999199+02301+01901999999ADDGA1041+007621999GA2081+021341999GE19MSL   +99999+99999GF199999041999007621999999MA1101701999999REMMET058METAR SBQV 081800Z 02012KT 9999 SCT025 OVC070 23/19 Q1017=
0165833440999992016010819004-14863-040863FM-15+091499999V0203601N00361030481CN009999199+02201+01801999999ADDGA1041+007621999GA2041+030481999GE19MSL   +99999+99999GF199999041999007621999999MA1101601999999REMMET058METAR SBQV 081900Z 36007KT 9999 SCT025 SCT100 22/18 Q1016=
0142833440999992016010820004-14863-040863FM-15+091499999V0203501N003110070119N009999199+02401+02001999999ADDGA1071+007011999GE19MSL   +99999+99999GF199999071999007011999999MA1101701999999REMMET051METAR SBQV 082000Z 35006KT 9999 BKN023 24/20 Q1017=
0199833440999992016010821004-14863-040863FM-15+091499999V0203601N002610304819N009999199+02301+02001999999ADDGA1041+010671999GA2021+010671091GA3071+030481999GE19MSL   +99999+99999GF199999041999010671999999MA1101701999999MW1171REMMET070METAR SBQV 082100Z 36005KT 9999 TS SCT035 FEW035CB BKN100 23/20 Q1017=
0199833440999992016010822004-14863-040863FM-15+091499999V0209999C00001010671CN009999199+02201+01901999999ADDGA1021+010671091GA2041+010671999GA3071+030481999GE19MSL   +99999+99999GF199999021999010671999999MA1101801999999MW1171REMMET070METAR SBQV 082200Z 00000KT 9999 TS FEW035CB SCT035 BKN100 22/19 Q1018=
0199833440999992016010823004-14863-040863FM-15+091499999V0209999C00001010671CN009999199+02101+01901999999ADDGA1021+010671091GA2041+010671999GA3071+030481999GE19MSL   +99999+99999GF199999021999010671999999MA1101801999999MW1171REMMET070METAR SBQV 082300Z 00000KT 9999 TS FEW035CB SCT035 BKN100 21/19 Q1018=
0168833440999992016010900004-14886-040801FM-12+084099999V0203601N0000100300199002000199+02151+02021101361ADDAA101999999AZ101061AZ201061GA1081+003001071GA2999+999999101GA3999+999999101GE19MSL   +99999+99999GF108991081999003001999999MA1999999091751MD1999999+0221REMSYN004BUFR
0165833440999992016010901004-14863-040863FM-15+091499999V0200501N00361030481CN009999199+02101+01901999999ADDGA1021+009141999GA2041+030481999GE19MSL   +99999+99999GF199999021999009141999999MA1102001999999REMMET058METAR SBQV 090100Z 05007KT 9999 FEW030 SCT100 21/19 Q1020=
0072833440999992016010902004-14863-040863FM-15+091499999V0200501N002619999999Y999999999+02101+02001999999ADDMA1102001999999REMMET045METAR SBQV 090200Z 05005KT CAVOK 21/20 Q1020=
0072833440999992016010903004-14863-040863FM-15+091499999V0200801N003119999999Y999999999+02001+01901999999ADDMA1101901999999REMMET045METAR SBQV 090300Z 08006KT CAVOK 20/19 Q1019=
0072833440999992016010904004-14863-040863FM-15+091499999V0200801N003119999999Y999999999+02101+01901999999ADDMA1101901999999REMMET045METAR SBQV 090400Z 08006KT CAVOK 21/19 Q1019=
0072833440999992016010907004-14863-040863FM-15+091499999V0201001N002619999999Y999999999+01901+01801999999ADDMA1101901999999REMMET045METAR SBQV 090700Z 10005KT CAVOK 19/18 Q1019=
0072833440999992016010908004-14863-040863FM-15+091499999V0201001N003619999999Y999999999+01901+01701999999ADDMA1101901999999REMMET045METAR SBQV 090800Z 10007KT CAVOK 19/17 Q1019=
0072833440999992016010909004-14863-040863FM-15+091499999V0201001N002119999999Y999999999+01901+01801999999ADDMA1101901999999REMMET045METAR SBQV 090900Z 10004KT CAVOK 19/18 Q1019=
0072833440999992016010910004-14863-040863FM-15+091499999V0200801N002619999999Y999999999+02101+01801999999ADDMA1102001999999REMMET045METAR SBQV 091000Z 08005KT CAVOK 21/18 Q1020=
0072833440999992016010911004-14863-040863FM-15+091499999V0200901N003619999999Y999999999+02201+01901999999ADDMA1102001999999REMMET045METAR SBQV 091100Z 09007KT CAVOK 22/19 Q1020=
0181833440999992016010912004-14886-040801FM-12+084099999V0200501N0031100300199020000199+02321+01471101531ADDAA124000331AZ101061AZ201061GA1081+003001071GA2999+999999101GA3999+999999101GE19MSL   +99999+99999GF108991081999003001999999KA1120N+01781MA1999999091971MD1999999+0101REMSYN004BUFR
0165833440999992016010912004-14863-040863FM-15+091499999V0200601N004110304819N009999199+02301+01901999999ADDGA1041+009141999GA2071+030481999GE19MSL   +99999+99999GF199999041999009141999999MA1102101999999REMMET058METAR SBQV 091200Z 06008KT 9999 SCT030 BKN100 23/19 Q1021=
0142833440999992016010913004-14863-040863FM-15+091499999V0201101N003110091419N009999199+02401+01901999999ADDGA1071+009141999GE19MSL   +99999+99999GF199999071999009141999999MA1102101999999REMMET051METAR SBQV 091300Z 11006KT 9999 BKN030 24/19 Q1021=
0165833440999992016010914004-14863-040863FM-15+091499999V0200701N002610091419N009999199+02601+01901999999ADDGA1071+009141999GA2081+030481999GE19MSL   +99999+99999GF199999071999009141999999MA1102001999999REMMET058METAR SBQV 091400Z 07005KT 9999 BKN030 OVC100 26/19 Q1020=
0202833440999992016010916004-14863-040863FM-15+091499999V0201101N004610076219N009999199+02601+02001999999ADDGA1071+007621999GA2021+010061081GA3081+030481999GE19MSL   +99999+99999GF199999071999007621999999MA1101901999999MW1161REMMET073METAR SBQV 091600Z 11009KT 9999 VCSH BKN025 FEW033TCU OVC100 26/20 Q1019=
0191833440999992016010917004-14863-040863FM-15+091499999V0200501N004110106719N009999199+02901+01801999999ADDGA1071+010671999GA2021+010671081GA3071+030481999GE19MSL   +99999+99999GF199999071999010671999999MA1101801999999REMMET068METAR SBQV 091700Z 05008KT 9999 BKN035 FEW035TCU BKN100 29/18 Q1018=
0136833440999992016010918004-14886-040801FM-12+084099999V0200501N0015100300199020000199+02891+01861999999ADDAA101999999AZ101061AZ201061GA1061+003001071GE19MSL   +99999+99999GF106991061999003001999999MA1999999091581MD1999999-0041REMSYN004BUFR
0202833440999992016010918004-14863-040863FM-15+091499999V0200801N005110304819N009999199+02801+01801999999ADDGA1041+010671999GA2021+010671081GA3071+030481999GE19MSL   +99999+99999GF199999041999010671999999MA1101701999999MW1161REMMET073METAR SBQV 091800Z 08010KT 9999 VCSH SCT035 FEW035TCU BKN100 28/18 Q1017=
0206833440999992016010919004-14863-040863FM-15+091499999V0201001N005710274319N008000199+02101+01901999999ADDGA1041+006101999GA2021+010671081GA3071+027431999GE19MSL   +99999+99999GF199999041999006101999999MA1101701999999MW1611REMMET077METAR SBQV 091900Z 10011KT 8000 -RA SCT020 FEW035TCU BKN090 21/19 Q1017 RERA=
0226833440999992016010920004-14863-040863FM-15+091499999V0200801N00261028351CN009999199+02201+02001999999ADDGA1021+008231999GA2021+010671081GA3041+028351999GE19AGL   +99999+99999GF199999021999008231999999MA1101701999999MW1165REMMET078METAR SBQV 092000Z 08005KT 9999 VCRA FEW027 FEW035TCU SCT093 22/20 Q1017 RERA=EQDD01      0ADE735
0165833440999992016010921004-14863-040863FM-15+091499999V0201101N00411024381CN009999199+02301+02001999999ADDGA1021+007621999GA2041+024381999GE19MSL   +99999+99999GF199999021999007621999999MA1101801999999REMMET058METAR SBQV 092100Z 11008KT 9999 FEW025 SCT080 23/20 Q1018=
0165833440999992016010922004-14863-040863FM-15+091499999V0200901N00461030481CN009999199+02201+01901999999ADDGA1021+007621999GA2041+030481999GE19MSL   +99999+99999GF199999021999007621999999MA1101801999999REMMET058METAR SBQV 092200Z 09009KT 9999 FEW025 SCT100 22/19 Q1018=
0165833440999992016010923004-14863-040863FM-15+091499999V0201201N00311030481CN009999199+02101+01901999999ADDGA1021+007621999GA2041+030481999GE19MSL   +99999+99999GF199999021999007621999999MA1101901999999REMMET058METAR SBQV 092300Z 12006KT 9999 FEW025 SCT100 21/19 Q1019=
0142833440999992016011000004-14863-040863FM-15+091499999V0201101N004619999999N009999199+02201+01901999999ADDGA1021+006101999GE19MSL   +99999+99999GF199999021999006101999999MA1101901999999REMMET051METAR SBQV 100000Z 11009KT 9999 FEW020 22/19 Q1019=
0142833440999992016011001004-14863-040863FM-15+091499999V0201401N003610030519N009999199+02001+01901999999ADDGA1071+003051999GE19MSL   +99999+99999GF199999071999003051999999MA1102001999999REMMET051METAR SBQV 100100Z 14007KT 9999 BKN010 20/19 Q1020=
0160833440999992016011001304-14863-040863FM-16+091499999V0201001N004110021319N005000199+02101+01901999999ADDGA1071+002131999GE19MSL   +99999+99999GF199999071999002131999999MA1102001999999MW1101MW2531REMMET057SPECI SBQV 100130Z 10008KT 5000 DZ BR BKN007 21/19 Q1020=
0142833440999992016011009304-14863-040863FM-15+091499999V0209999C000019999999N009999199+02001+01801999999ADDGA1021+006101999GE19MSL   +99999+99999GF199999021999006101999999MA1102001999999REMMET051METAR SBQV 100930Z 00000KT 9999 FEW020 20/18 Q1020=
0127833440999992016011009304-14863-040863FM-16+091499999V0209999C000019999999N009999199+99999+99999999999ADDGA1021+006101999GE19MSL   +99999+99999GF199999021999006101999999REMMET051SPECI SBQV 100930Z 00000KT 9999 FEW020 ///// Q////=
0142833440999992016011010004-14863-040863FM-15+091499999V0201301N003619999999N009999199+01901+01701999999ADDGA1041+004571999GE19MSL   +99999+99999GF199999041999004571999999MA1102001999999REMMET051METAR SBQV 101000Z 13007KT 9999 SCT015 19/17 Q1020=
0142833440999992016011011004-14863-040863FM-15+091499999V0201201N005119999999N009999199+02101+01701999999ADDGA1021+006101999GE19MSL   +99999+99999GF199999021999006101999999MA1102001999999REMMET051METAR SBQV 101100Z 12010KT 9999 FEW020 21/17 Q1020=
0187833440999992016011012004-14886-040801FM-12+084099999V0200501N0031199999999020000199+02441+01711101521ADDAA124000531AY151061AY221061GA1021+006001081GA2999+999999031GA3999+999999011GE19MSL   +99999+99999GF105991021999006001999999KA1120N+01781MA1999999091981MD1999999+0011MW1031REMSYN004BUFR
0142833440999992016011012004-14863-040863FM-15+091499999V0201201N004619999999N009999199+02401+01701999999ADDGA1021+006101999GE19MSL   +99999+99999GF199999021999006101999999MA1102101999999REMMET051METAR SBQV 101200Z 12009KT 9999 FEW020 24/17 Q1021=
0142833440999992016011013004-14863-040863FM-15+091499999V0201001N004119999999N009999199+02401+01701999999ADDGA1021+006101999GE19MSL   +99999+99999GF199999021999006101999999MA1102101999999REMMET051METAR SBQV 101300Z 10008KT 9999 FEW020 24/17 Q1021=
0142833440999992016011014004-14863-040863FM-15+091499999V0200901N003110076219N009999199+02601+01701999999ADDGA1071+007621999GE19MSL   +99999+99999GF199999071999007621999999MA1102001999999REMMET051METAR SBQV 101400Z 09006KT 9999 BKN025 26/17 Q1020=
0142833440999992016011015004-14863-040863FM-15+091499999V0201101N004610091419N009999199+02601+01701999999ADDGA1071+009141999GE19MSL   +99999+99999GF199999071999009141999999MA1102001999999REMMET051METAR SBQV 101500Z 11009KT 9999 BKN030 26/17 Q1020=
0142833440999992016011017004-14863-040863FM-15+091499999V0201101N003619999999N009999199+02701+01701999999ADDGA1041+010671999GE19MSL   +99999+99999GF199999041999010671999999MA1101801999999REMMET051METAR SBQV 101700Z 11007KT 9999 SCT035 27/17 Q1018=
0136833440999992016011018004-14886-040801FM-12+084099999V0200901N0010100300199020000199+02751+01691999999ADDAA101999999AZ101061AZ201061GA1061+003001081GE19MSL   +99999+99999GF106991061999003001999999MA1999999091631MD1999999+0051REMSYN004BUFR
0142833440999992016011018004-14863-040863FM-15+091499999V0200901N005119999999N009999199+02901+01701999999ADDGA1041+010671999GE19MSL   +99999+99999GF199999041999010671999999MA1101801999999REMMET051METAR SBQV 101800Z 09010KT 9999 SCT035 29/17 Q1018=
0142833440999992016011019004-14863-040863FM-15+091499999V0201201N006219999999N009999199+02801+01601999999ADDGA1041+010671999GE19MSL   +99999+99999GF199999041999010671999999MA1101701999999REMMET051METAR SBQV 101900Z 12012KT 9999 SCT035 28/16 Q1017=
0168833440999992016011020004-14863-040863FM-15+091499999V0201401N00621009141CN009999199+02901+01701999999ADDGA1021+007621081GA2041+009141999GE19MSL   +99999+99999GF199999021999007621999999MA1101701999999REMMET061METAR SBQV 102000Z 14012KT 9999 FEW025TCU SCT030 29/17 Q1017=
0142833440999992016011022004-14863-040863FM-15+091499999V0200901N004119999999N009999199+02501+01801999999ADDGA1021+009141999GE19MSL   +99999+99999GF199999021999009141999999MA1101801999999REMMET051METAR SBQV 102200Z 09008KT 9999 FEW030 25/18 Q1018=
0072833440999992016011023004-14863-040863FM-15+091499999V0200601N005119999999Y999999999+02301+01901999999ADDMA1101901999999REMMET045METAR SBQV 102300Z 06010KT CAVOK 23/19 Q1019=
0072833440999992016011100004-14863-040863FM-15+091499999V0200701N004619999999Y999999999+02201+01901999999ADDMA1101901999999REMMET045METAR SBQV 110000Z 07009KT CAVOK 22/19 Q1019=
0072833440999992016011101004-14863-040863FM-15+091499999V0200701N004619999999Y999999999+02101+01901999999ADDMA1102001999999REMMET045METAR SBQV 110100Z 07009KT CAVOK 21/19 Q1020=
0072833440999992016011102004-14863-040863FM-15+091499999V0200701N005719999999Y999999999+02201+01901999999ADDMA1102001999999REMMET045METAR SBQV 110200Z 07011KT CAVOK 22/19 Q1020=
0072833440999992016011103004-14863-040863FM-15+091499999V0200801N005119999999Y999999999+02101+01801999999ADDMA1101901999999REMMET045METAR SBQV 110300Z 08010KT CAVOK 21/18 Q1019=
0072833440999992016011104004-14863-040863FM-15+091499999V0201301N002119999999Y999999999+02101+01801999999ADDMA1101901999999REMMET045METAR SBQV 110400Z 13004KT CAVOK 21/18 Q1019=
0142833440999992016011106304-14863-040863FM-16+091499999V0209999C000010061019N008000199+02101+01901999999ADDGA1071+006101999GE19MSL   +99999+99999GF199999071999006101999999MA1101901999999REMMET051SPECI SBQV 110630Z 00000KT 8000 BKN020 21/19 Q1019=
0142833440999992016011107004-14863-040863FM-15+091499999V0200501N002610061019N008000199+02001+01801999999ADDGA1071+006101999GE19MSL   +99999+99999GF199999071999006101999999MA1101901999999REMMET051METAR SBQV 110700Z 05005KT 8000 BKN020 20/18 Q1019=
0142833440999992016011108004-14863-040863FM-15+091499999V0209999C000010061019N008000199+02101+01901999999ADDGA1071+006101999GE19MSL   +99999+99999GF199999071999006101999999MA1101901999999REMMET051METAR SBQV 110800Z 00000KT 8000 BKN020 21/19 Q1019=
0142833440999992016011109004-14863-040863FM-15+091499999V0209999C000010061019N008000199+02101+01901999999ADDGA1071+006101999GE19MSL   +99999+99999GF199999071999006101999999MA1102001999999REMMET051METAR SBQV 110900Z 00000KT 8000 BKN020 21/19 Q1020=
0142833440999992016011110004-14863-040863FM-15+091499999V0200401N002110061019N009999199+02101+01901999999ADDGA1071+006101999GE19MSL   +99999+99999GF199999071999006101999999MA1102001999999REMMET051METAR SBQV 111000Z 04004KT 9999 BKN020 21/19 Q1020=
0142833440999992016011111004-14863-040863FM-15+091499999V0200701N003119999999N009999199+02201+01801999999ADDGA1041+006101999GE19MSL   +99999+99999GF199999041999006101999999MA1102001999999REMMET051METAR SBQV 111100Z 07006KT 9999 SCT020 22/18 Q1020=
0149833440999992016011112004-14886-040801FM-12+084099999V0203601N0015100300199020000199+02301+01791101501ADDAA101999999AZ101061AZ201061GA1071+003001071GE19MSL   +99999+99999GF107991071999003001999999KA1120N+01901MA1999999091961MD1999999-0021REMSYN004BUFR
0142833440999992016011112004-14863-040863FM-15+091499999V0200401N003610061019N009999199+02301+01701999999ADDGA1071+006101999GE19MSL   +99999+99999GF199999071999006101999999MA1102001999999REMMET051METAR SBQV 111200Z 04007KT 9999 BKN020 23/17 Q1020=
0142833440999992016011113004-14863-040863FM-15+091499999V0200101N004110061019N009999199+02401+01701999999ADDGA1071+006101999GE19MSL   +99999+99999GF199999071999006101999999MA1102001999999REMMET051METAR SBQV 111300Z 01008KT 9999 BKN020 24/17 Q1020=
0142833440999992016011114004-14863-040863FM-15+091499999V0200201N005110061019N009999199+02501+01701999999ADDGA1071+006101999GE19MSL   +99999+99999GF199999071999006101999999MA1102001999999REMMET051METAR SBQV 111400Z 02010KT 9999 BKN020 25/17 Q1020=
0142833440999992016011116004-14863-040863FM-15+091499999V0200701N003619999999N009999199+02801+01701999999ADDGA1041+007621999GE19MSL   +99999+99999GF199999041999007621999999MA1101801999999REMMET051METAR SBQV 111600Z 07007KT 9999 SCT025 28/17 Q1018=
0136833440999992016011118004-14886-040801FM-12+084099999V0200501N0015199999999020000199+02941+01621999999ADDAA101999999AZ101061AZ201061GA1021+003001081GE19MSL   +99999+99999GF102991021999003001999999MA1999999091521MD1999999-0111REMSYN004BUFR
0142833440999992016011118004-14863-040863FM-15+091499999V0200101N004119999999N009999199+02901+01601999999ADDGA1041+009141999GE19MSL   +99999+99999GF199999041999009141999999MA1101601999999REMMET051METAR SBQV 111800Z 01008KT 9999 SCT030 29/16 Q1016=
0142833440999992016011119004-14863-040863FM-15+091499999V0200701N002619999999N009999199+03001+01601999999ADDGA1021+009141999GE19MSL   +99999+99999GF199999021999009141999999MA1101601999999REMMET051METAR SBQV 111900Z 07005KT 9999 FEW030 30/16 Q1016=
0142833440999992016011120004-14863-040863FM-15+091499999V0200601N003119999999N009999199+02901+01601999999ADDGA1021+009141999GE19MSL   +99999+99999GF199999021999009141999999MA1101501999999REMMET051METAR SBQV 112000Z 06006KT 9999 FEW030 29/16 Q1015=
0145833440999992016011121004-14863-040863FM-15+091499999V0201301N004119999999N009999199+02801+01801999999ADDGA1021+009141081GE19MSL   +99999+99999GF199999021999009141999999MA1101601999999REMMET054METAR SBQV 112100Z 13008KT 9999 FEW030TCU 28/18 Q1016=
0142833440999992016011122004-14863-040863FM-15+091499999V0201301N002619999999N009999199+02701+01901999999ADDGA1021+009141999GE19MSL   +99999+99999GF199999021999009141999999MA1101601999999REMMET051METAR SBQV 112200Z 13005KT 9999 FEW030 27/19 Q1016=
0142833440999992016011123004-14863-040863FM-15+091499999V0200701N005119999999N009999199+02601+01801999999ADDGA1021+007011999GE19MSL   +99999+99999GF199999021999007011999999MA1101701999999REMMET051METAR SBQV 112300Z 07010KT 9999 FEW023 26/18 Q1017=
0098833440999992016011200004-14886-040801FM-12+084099999V0200501N0015122000199004000199+02401+01911101151ADDAA101999999AZ101061AZ201061GF100991999999999999999999MA1999999091661MD1999999-0171REMSYN004BUFR
0142833440999992016011200004-14863-040863FM-15+091499999V0200401N003619999999N009999199+02501+01901999999ADDGA1021+007011999GE19MSL   +99999+99999GF199999021999007011999999MA1101801999999REMMET051METAR SBQV 120000Z 04007KT 9999 FEW023 25/19 Q1018=
0142833440999992016011201004-14863-040863FM-15+091499999V0200501N005719999999N009999199+02301+02001999999ADDGA1021+007011999GE19MSL   +99999+99999GF199999021999007011999999MA1101801999999REMMET051METAR SBQV 120100Z 05011KT 9999 FEW023 23/20 Q1018=
0072833440999992016011202004-14863-040863FM-15+091499999V0200501N005119999999Y999999999+02301+02001999999ADDMA1101801999999REMMET045METAR SBQV 120200Z 05010KT CAVOK 23/20 Q1018=
0072833440999992016011203004-14863-040863FM-15+091499999V0200401N005719999999Y999999999+02301+02001999999ADDMA1101701999999REMMET045METAR SBQV 120300Z 04011KT CAVOK 23/20 Q1017=
0072833440999992016011204004-14863-040863FM-15+091499999V0200401N004619999999Y999999999+02101+01901999999ADDMA1101701999999REMMET045METAR SBQV 120400Z 04009KT CAVOK 21/19 Q1017=
0072833440999992016011206304-14863-040863FM-16+091499999V0200501N004119999999Y999999999+02101+01901999999ADDMA1101601999999REMMET045SPECI SBQV 120630Z 05008KT CAVOK 21/19 Q1016=
0072833440999992016011207004-14863-040863FM-15+091499999V0200301N003619999999Y999999999+02001+01801999999ADDMA1101701999999REMMET045METAR SBQV 120700Z 03007KT CAVOK 20/18 Q1017=
0072833440999992016011208004-14863-040863FM-15+091499999V0200301N005119999999Y999999999+01901+01801999999ADDMA1101701999999REMMET045METAR SBQV 120800Z 03010KT CAVOK 19/18 Q1017=
0142833440999992016011209004-14863-040863FM-15+091499999V0201001N005110061019N008000199+02001+01901999999ADDGA1071+006101999GE19MSL   +99999+99999GF199999071999006101999999MA1101801999999REMMET051METAR SBQV 120900Z 10010KT 8000 BKN020 20/19 Q1018=
0142833440999992016011210004-14863-040863FM-15+091499999V0200201N003110061019N008000199+02001+01801999999ADDGA1071+006101999GE19MSL   +99999+99999GF199999071999006101999999MA1101801999999REMMET051METAR SBQV 121000Z 02006KT 8000 BKN020 20/18 Q1018=
0142833440999992016011211004-14863-040863FM-15+091499999V0200301N005710045719N009999199+02201+01801999999ADDGA1081+004571999GE19MSL   +99999+99999GF199999081999004571999999MA1101801999999REMMET051METAR SBQV 121100Z 03011KT 9999 OVC015 22/18 Q1018=
0181833440999992016011212004-14886-040801FM-12+084099999V0200501N0015100300199010000199+02291+01921101281ADDAA101999999AZ101061AZ201061GA1081+003001071GA2999+999999101GA3999+999999101GE19MSL   +99999+99999GF108991081999003001999999KA1120N+01921MA1999999091781MD1999999-0181REMSYN004BUFR
0142833440999992016011212004-14863-040863FM-15+091499999V0200401N005710045719N009999199+02301+01901999999ADDGA1071+004571999GE19MSL   +99999+99999GF199999071999004571999999MA1101901999999REMMET051METAR SBQV 121200Z 04011KT 9999 BKN015 23/19 Q1019=
0142833440999992016011213004-14863-040863FM-15+091499999V0200201N004110051819N009999199+02201+01801999999ADDGA1071+005181999GE19MSL   +99999+99999GF199999071999005181999999MA1101901999999REMMET051METAR SBQV 121300Z 02008KT 9999 BKN017 22/18 Q1019=
0142833440999992016011214004-14863-040863FM-15+091499999V0200201N004610076219N009999199+02301+01801999999ADDGA1071+007621999GE19MSL   +99999+99999GF199999071999007621999999MA1101901999999REMMET051METAR SBQV 121400Z 02009KT 9999 BKN025 23/18 Q1019=
0165833440999992016011215004-14863-040863FM-15+091499999V0200401N00361021341CN009999199+02601+01901999999ADDGA1041+007621999GA2041+021341999GE19MSL   +99999+99999GF199999041999007621999999MA1101801999999REMMET058METAR SBQV 121500Z 04007KT 9999 SCT025 SCT070 26/19 Q1018=
0165833440999992016011217004-14863-040863FM-15+091499999V0200501N003110243819N009999199+02701+01801999999ADDGA1021+009141999GA2071+024381999GE19MSL   +99999+99999GF199999021999009141999999MA1101601999999REMMET058METAR SBQV 121700Z 05006KT 9999 FEW030 BKN080 27/18 Q1016=
0152833440999992016011218004-14886-040801FM-12+084099999V0200501N0015100300199020000199+02851+01871999999ADDAA101999999AZ101061AZ201061GA1051+003001081GA2999+999999051GE19MSL   +99999+99999GF107991051999003001999999MA1999999091421MD1999999-0101REMSYN004BUFR
0165833440999992016011218004-14863-040863FM-15+091499999V0200401N003110243819N009999199+02801+01801999999ADDGA1021+009141999GA2071+024381999GE19MSL   +99999+99999GF199999021999009141999999MA1101501999999REMMET058METAR SBQV 121800Z 04006KT 9999 FEW030 BKN080 28/18 Q1015=
0165833440999992016011219004-14863-040863FM-15+091499999V0200301N00411024381CN009999199+02901+01801999999ADDGA1021+009141999GA2041+024381999GE19MSL   +99999+99999GF199999021999009141999999MA1101501999999REMMET058METAR SBQV 121900Z 03008KT 9999 FEW030 SCT080 29/18 Q1015=
0165833440999992016011220004-14863-040863FM-15+091499999V0200401N00311024381CN009999199+02701+01701999999ADDGA1021+009141999GA2041+024381999GE19MSL   +99999+99999GF199999021999009141999999MA1101501999999REMMET058METAR SBQV 122000Z 04006KT 9999 FEW030 SCT080 27/17 Q1015=
0165833440999992016011221004-14863-040863FM-15+091499999V0200101N002110213419N009999199+02701+01801999999ADDGA1021+009141999GA2071+021341999GE19MSL   +99999+99999GF199999021999009141999999MA1101501999999REMMET058METAR SBQV 122100Z 01004KT 9999 FEW030 BKN070 27/18 Q1015=
0142833440999992016011222004-14863-040863FM-15+091499999V0203301N001519999999N009999199+02601+01801999999ADDGA1041+009141999GE19MSL   +99999+99999GF199999041999009141999999MA1101601999999REMMET051METAR SBQV 122200Z 33003KT 9999 SCT030 26/18 Q1016=
0142833440999992016011223004-14863-040863FM-15+091499999V0203301N001519999999N009999199+02501+01901999999ADDGA1021+009141999GE19MSL   +99999+99999GF199999021999009141999999MA1101701999999REMMET051METAR SBQV 122300Z 33003KT 9999 FEW030 25/19 Q1017=
0168833440999992016011300004-14886-040801FM-12+084099999V0203601N0000100300199002000199+02421+01951101051ADDAA101999999AZ101061AZ201061GA1081+003001071GA2999+999999101GA3999+999999101GE19MSL   +99999+99999GF108991081999003001999999MA1999999091641MD1999999-0021REMSYN004BUFR
0142833440999992016011300004-14863-040863FM-15+091499999V0209999C000019999999N009999199+02501+01901999999ADDGA1021+009141999GE19MSL   +99999+99999GF199999021999009141999999MA1101801999999REMMET051METAR SBQV 130000Z 00000KT 9999 FEW030 25/19 Q1018=
0142833440999992016011301004-14863-040863FM-15+091499999V0203501N002619999999N009999199+02501+01901999999ADDGA1021+006101999GE19MSL   +99999+99999GF199999021999006101999999MA1101801999999REMMET051METAR SBQV 130100Z 35005KT 9999 FEW020 25/19 Q1018=
0142833440999992016011302004-14863-040863FM-15+091499999V0203501N002119999999N009999199+02301+01801999999ADDGA1021+007011999GE19MSL   +99999+99999GF199999021999007011999999MA1101701999999REMMET051METAR SBQV 130200Z 35004KT 9999 FEW023 23/18 Q1017=
0142833440999992016011303004-14863-040863FM-15+091499999V0203201N001519999999N009999199+02301+01901999999ADDGA1021+007011999GE19MSL   +99999+99999GF199999021999007011999999MA1101701999999REMMET051METAR SBQV 130300Z 32003KT 9999 FEW023 23/19 Q1017=
0142833440999992016011304004-14863-040863FM-15+091499999V0209999C000019999999N009999199+02401+02001999999ADDGA1021+007011999GE19MSL   +99999+99999GF199999021999007011999999MA1101601999999REMMET051METAR SBQV 130400Z 00000KT 9999 FEW023 24/20 Q1016=
0142833440999992016011305004-14863-040863FM-15+091499999V0209999C000019999999N009999199+02301+01901999999ADDGA1021+007011999GE19MSL   +99999+99999GF199999021999007011999999MA1101601999999REMMET051METAR SBQV 130500Z 00000KT 9999 FEW023 23/19 Q1016=
0072833440999992016011306304-14863-040863FM-16+091499999V0209999C000019999999Y999999999+02201+02001999999ADDMA1101501999999REMMET045SPECI SBQV 130630Z 00000KT CAVOK 22/20 Q1015=
0072833440999992016011307004-14863-040863FM-15+091499999V0209999C000019999999Y999999999+02301+02001999999ADDMA1101501999999REMMET045METAR SBQV 130700Z 00000KT CAVOK 23/20 Q1015=
0072833440999992016011308004-14863-040863FM-15+091499999V0209999C000019999999Y999999999+02201+02001999999ADDMA1101601999999REMMET045METAR SBQV 130800Z 00000KT CAVOK 22/20 Q1016=
0165833440999992016011309004-14863-040863FM-15+091499999V0201101N001510304819N009999199+02201+02001999999ADDGA1021+006101999GA2081+030481999GE19MSL   +99999+99999GF199999021999006101999999MA1101601999999REMMET058METAR SBQV 130900Z 11003KT 9999 FEW020 OVC100 22/20 Q1016=
0077833440999992016011310004-14863-040863FM-15+091499999V0209999C000019999999Y999999999+02201+02001999999ADDMA1101701999999REMMET050METAR SBQV 131000Z 00000KT CAVOK 22/20 Q1017 RERA=
0181833440999992016011312004-14886-040801FM-12+084099999V0203601N0015100300199020000199+02471+02031101121ADDAA101999999AZ101061AZ201061GA1081+003001071GA2999+999999101GA3999+999999101GE19MSL   +99999+99999GF108991081999003001999999KA1120N+02061MA1999999091681MD1999999-0101REMSYN004BUFR
0165833440999992016011312004-14863-040863FM-15+091499999V0200201N003610045719N009999199+02401+02001999999ADDGA1071+004571999GA2081+027431999GE19MSL   +99999+99999GF199999071999004571999999MA1101801999999REMMET058METAR SBQV 131200Z 02007KT 9999 BKN015 OVC090 24/20 Q1018=
0165833440999992016011313004-14863-040863FM-15+091499999V0200201N004110274319N009999199+02501+01901999999ADDGA1041+006101999GA2081+027431999GE19MSL   +99999+99999GF199999041999006101999999MA1101801999999REMMET058METAR SBQV 131300Z 02008KT 9999 SCT020 OVC090 25/19 Q1018=
0165833440999992016011314004-14863-040863FM-15+091499999V0200101N003110061019N009999199+02501+02001999999ADDGA1071+006101999GA2081+027431999GE19MSL   +99999+99999GF199999071999006101999999MA1101801999999REMMET058METAR SBQV 131400Z 01006KT 9999 BKN020 OVC090 25/20 Q1018=
0176833440999992016011315004-14863-040863FM-15+091499999V0200201N003110274319N009999199+02501+02001999999ADDGA1041+006101999GA2081+027431999GE19MSL   +99999+99999GF199999041999006101999999MA1101701999999MW1161REMMET063METAR SBQV 131500Z 02006KT 9999 VCSH SCT020 OVC090 25/20 Q1017=
0176833440999992016011316004-14863-040863FM-15+091499999V0203601N004610274319N009999199+02601+02001999999ADDGA1041+007621999GA2081+027431999GE19MSL   +99999+99999GF199999041999007621999999MA1101601999999MW1161REMMET063METAR SBQV 131600Z 36009KT 9999 VCSH SCT025 OVC090 26/20 Q1016=
0168833440999992016011318004-14886-040801FM-12+084099999V0203601N0000100300199020000199+02521+02091999999ADDAA101999999AZ101061AZ201061GA1081+003001071GA2999+999999101GA3999+999999101GE19MSL   +99999+99999GF108991081999003001999999MA1999999091381MD1999999-0041REMSYN004BUFR
0176833440999992016011318004-14863-040863FM-15+091499999V0200601N003610274319N009999199+02601+01801999999ADDGA1041+007621999GA2081+027431999GE19MSL   +99999+99999GF199999041999007621999999MA1101501999999MW1161REMMET063METAR SBQV 131800Z 06007KT 9999 VCSH SCT025 OVC090 26/18 Q1015=
0165833440999992016011320004-14863-040863FM-15+091499999V0200501N003110274319N009999199+02401+02001999999ADDGA1041+009141999GA2081+027431999GE19MSL   +99999+99999GF199999041999009141999999MA1101501999999REMMET058METAR SBQV 132000Z 05006KT 9999 SCT030 OVC090 24/20 Q1015=
0165833440999992016011321004-14863-040863FM-15+091499999V0200701N002610274319N009999199+02401+02001999999ADDGA1021+009141999GA2081+027431999GE19MSL   +99999+99999GF199999021999009141999999MA1101501999999REMMET058METAR SBQV 132100Z 07005KT 9999 FEW030 OVC090 24/20 Q1015=
0175833440999992016011322004-14863-040863FM-15+091499999V0200201N001510243819N009999199+02401+02101999999ADDGA1041+007011999GA2081+024381999GE19MSL   +99999+99999GF199999041999007011999999MA1101601999999MW1611REMMET062METAR SBQV 132200Z 02003KT 9999 -RA SCT023 OVC080 24/21 Q1016=
0180833440999992016011323004-14863-040863FM-15+091499999V0201301N003110243819N008000199+02201+02001999999ADDGA1041+007011999GA2081+024381999GE19MSL   +99999+99999GF199999041999007011999999MA1101701999999MW1611REMMET067METAR SBQV 132300Z 13006KT 8000 -RA SCT023 OVC080 22/20 Q1017 RERA=
0174833440999992016011400004-14886-040801FM-12+084099999V0203601N0000100300199002000199+02191+02131101191ADDAA106004031AY161061AY221061GA1081+003001071GA2999+999999101GA3999+999999101GE19MSL   +99999+99999GF108991081999003001999999MA1999999091701MD1999999+0061MW1621REMSYN004BUFR
0175833440999992016011400004-14863-040863FM-15+091499999V0200901N002610243819N008000199+02101+02001999999ADDGA1041+007011999GA2081+024381999GE19MSL   +99999+99999GF199999041999007011999999MA1101801999999MW1611REMMET062METAR SBQV 140000Z 09005KT 8000 -RA SCT023 OVC080 21/20 Q1018=
0180833440999992016011402004-14863-040863FM-15+091499999V0200301N004610243819N009999199+02101+01901999999ADDGA1041+007011999GA2081+024381999GE19MSL   +99999+99999GF199999041999007011999999MA1101801999999MW1611REMMET067METAR SBQV 140200Z 03009KT 9999 -RA SCT023 OVC080 21/19 Q1018 RERA=
0175833440999992016011403004-14863-040863FM-15+091499999V0203601N002610243819N009999199+02001+01901999999ADDGA1041+007011999GA2081+024381999GE19MSL   +99999+99999GF199999041999007011999999MA1101801999999MW1611REMMET062METAR SBQV 140300Z 36005KT 9999 -RA SCT023 OVC080 20/19 Q1018=
0180833440999992016011404004-14863-040863FM-15+091499999V0203501N002110243819N008000199+02001+01901999999ADDGA1041+007011999GA2081+024381999GE19MSL   +99999+99999GF199999041999007011999999MA1101701999999MW1611REMMET067METAR SBQV 140400Z 35004KT 8000 -RA SCT023 OVC080 20/19 Q1017 RERA=
0175833440999992016011404354-14863-040863FM-16+091499999V0203301N003110030519N005000199+02101+02001999999ADDGA1071+003051999GA2081+024381999GE19MSL   +99999+99999GF199999071999003051999999MA1101701999999MW1611REMMET062SPECI SBQV 140435Z 33006KT 5000 -RA BKN010 OVC080 21/20 Q1017=
0175833440999992016011406304-14863-040863FM-16+091499999V0203501N003610021319N003000199+02101+02001999999ADDGA1071+002131999GA2081+024381999GE19MSL   +99999+99999GF199999071999002131999999MA1101701999999MW1611REMMET062SPECI SBQV 140630Z 35007KT 3000 -RA BKN007 OVC080 21/20 Q1017=
0175833440999992016011407004-14863-040863FM-15+091499999V0203201N003610021319N003000199+02101+02001999999ADDGA1071+002131999GA2081+024381999GE19MSL   +99999+99999GF199999071999002131999999MA1101701999999MW1611REMMET062METAR SBQV 140700Z 32007KT 3000 -RA BKN007 OVC080 21/20 Q1017=
0175833440999992016011407154-14863-040863FM-16+091499999V0203201N004610243819N005000199+02001+01901999999ADDGA1041+002131999GA2081+024381999GE19MSL   +99999+99999GF199999041999002131999999MA1101701999999MW1611REMMET062SPECI SBQV 140715Z 32009KT 5000 -RA SCT007 OVC080 20/19 Q1017=
0175833440999992016011408004-14863-040863FM-15+091499999V0203401N001510243819N005000199+02001+02001999999ADDGA1041+003051999GA2081+024381999GE19MSL   +99999+99999GF199999041999003051999999MA1101701999999MW1611REMMET062METAR SBQV 140800Z 34003KT 5000 -RA SCT010 OVC080 20/20 Q1017=
0179833440999992016011409004-14863-040863FM-15+091499999V0209999C000010030519N005000199+02001+01901999999ADDGA1071+003051999GA2081+024381999GE19MSL   +99999+99999GF199999071999003051999999MA1101701999999MW1101REMMET066METAR SBQV 140900Z 00000KT 5000 BR BKN010 OVC080 20/19 Q1017 RERA=
0174833440999992016011410004-14863-040863FM-15+091499999V0203401N003110243819N005000199+02101+01901999999ADDGA1041+006101999GA2081+024381999GE19MSL   +99999+99999GF199999041999006101999999MA1101701999999MW1101REMMET061METAR SBQV 141000Z 34006KT 5000 BR SCT020 OVC080 21/19 Q1017=
0187833440999992016011412004-14886-040801FM-12+084099999V0203601N0005100300199010000199+02321+02071101221ADDAA124009031AY161061AY221061GA1081+003001071GA2999+999999101GA3999+999999101GE19MSL   +99999+99999GF108991081999003001999999KA1120N+01981MA1999999091711MD1999999+0031MW1501REMSYN004BUFR
0188833440999992016011412004-14863-040863FM-15+091499999V0200101N00411004271CN009999199+02301+02001999999ADDGA1021+003051999GA2041+004271999GA3081+021341999GE19MSL   +99999+99999GF199999021999003051999999MA1101801999999REMMET065METAR SBQV 141200Z 01008KT 9999 FEW010 SCT014 OVC070 23/20 Q1018=
0165833440999992016011413004-14863-040863FM-15+091499999V0200201N003610243819N009999199+02301+02001999999ADDGA1041+004571999GA2081+024381999GE19MSL   +99999+99999GF199999041999004571999999MA1101801999999REMMET058METAR SBQV 141300Z 02007KT 9999 SCT015 OVC080 23/20 Q1018=
0165833440999992016011414004-14863-040863FM-15+091499999V0200101N004110045719N009999199+02401+02001999999ADDGA1071+004571999GA2081+024381999GE19MSL   +99999+99999GF199999071999004571999999MA1101801999999REMMET058METAR SBQV 141400Z 01008KT 9999 BKN015 OVC080 24/20 Q1018=
0165833440999992016011417004-14863-040863FM-15+091499999V0200201N004110274319N009999199+02701+01901999999ADDGA1021+006101999GA2071+027431999GE19MSL   +99999+99999GF199999021999006101999999MA1101601999999REMMET058METAR SBQV 141700Z 02008KT 9999 FEW020 BKN090 27/19 Q1016=
0152833440999992016011418004-14886-040801FM-12+084099999V0203201N0005100300199010000199+02791+01961999999ADDAA101999999AZ101061AZ201061GA1051+003001061GA2999+999999051GE19MSL   +99999+99999GF106991051999003001999999MA1999999091471MD1999999+0091REMSYN004BUFR
0165833440999992016011418004-14863-040863FM-15+091499999V0203601N002610274319N009999199+02601+01901999999ADDGA1021+006101999GA2071+027431999GE19MSL   +99999+99999GF199999021999006101999999MA1101601999999REMMET058METAR SBQV 141800Z 36005KT 9999 FEW020 BKN090 26/19 Q1016=
0168833440999992016011419004-14863-040863FM-15+091499999V0200101N002610304819N009999199+02701+02001999999ADDGA1021+007621081GA2071+030481999GE19MSL   +99999+99999GF199999021999007621999999MA1101501999999REMMET061METAR SBQV 141900Z 01005KT 9999 FEW025TCU BKN100 27/20 Q1015=
0168833440999992016011420004-14863-040863FM-15+091499999V0200201N00361030481CN009999199+02701+01901999999ADDGA1021+007621081GA2041+030481999GE19MSL   +99999+99999GF199999021999007621999999MA1101501999999REMMET061METAR SBQV 142000Z 02007KT 9999 FEW025TCU SCT100 27/19 Q1015=
0168833440999992016011421004-14863-040863FM-15+091499999V0203601N00311030481CN009999199+02601+01901999999ADDGA1021+007621081GA2041+030481999GE19MSL   +99999+99999GF199999021999007621999999MA1101501999999REMMET061METAR SBQV 142100Z 36006KT 9999 FEW025TCU SCT100 26/19 Q1015=
0165833440999992016011422004-14863-040863FM-15+091499999V0200801N00211030481CN009999199+02501+01901999999ADDGA1021+007621999GA2041+030481999GE19MSL   +99999+99999GF199999021999007621999999MA1101601999999REMMET058METAR SBQV 142200Z 08004KT 9999 FEW025 SCT100 25/19 Q1016=
0165833440999992016011423004-14863-040863FM-15+091499999V0200301N00461030481CN009999199+02201+01801999999ADDGA1041+007621999GA2041+030481999GE19MSL   +99999+99999GF199999041999007621999999MA1101701999999REMMET058METAR SBQV 142300Z 03009KT 9999 SCT025 SCT100 22/18 Q1017=
0165833440999992016011500004-14863-040863FM-15+091499999V0200501N004610213419N009999199+02301+01901999999ADDGA1041+006101999GA2081+021341999GE19MSL   +99999+99999GF199999041999006101999999MA1101801999999REMMET058METAR SBQV 150000Z 05009KT 9999 SCT020 OVC070 23/19 Q1018=
0165833440999992016011501004-14863-040863FM-15+091499999V0200301N004110213419N009999199+02201+02001999999ADDGA1041+006101999GA2081+021341999GE19MSL   +99999+99999GF199999041999006101999999MA1101901999999REMMET058METAR SBQV 150100Z 03008KT 9999 SCT020 OVC070 22/20 Q1019=
0165833440999992016011502004-14863-040863FM-15+091499999V0200501N004610213419N009999199+02201+02001999999ADDGA1041+006101999GA2081+021341999GE19MSL   +99999+99999GF199999041999006101999999MA1101901999999REMMET058METAR SBQV 150200Z 05009KT 9999 SCT020 OVC070 22/20 Q1019=
0188833440999992016011503004-14863-040863FM-15+091499999V0200701N00361006101CN009999199+02101+02001999999ADDGA1021+002131999GA2041+006101999GA3081+021341999GE19MSL   +99999+99999GF199999021999002131999999MA1101801999999REMMET065METAR SBQV 150300Z 07007KT 9999 FEW007 SCT020 OVC070 21/20 Q1018=
0188833440999992016011504004-14863-040863FM-15+091499999V0200601N00411006101CN009999199+02101+01901999999ADDGA1041+002131999GA2041+006101999GA3081+021341999GE19MSL   +99999+99999GF199999041999002131999999MA1101801999999REMMET065METAR SBQV 150400Z 06008KT 9999 SCT007 SCT020 OVC070 21/19 Q1018=
0198833440999992016011506304-14863-040863FM-16+091499999V0203501N005110021319N008000199+01801+01701999999ADDGA1021+001521999GA2071+002131999GA3081+021341999GE19MSL   +99999+99999GF199999021999001521999999MA1101801999999MW1611REMMET069SPECI SBQV 150630Z 35010KT 8000 -RA FEW005 BKN007 OVC070 18/17 Q1018=
0198833440999992016011507004-14863-040863FM-15+091499999V0203601N005110021319N008000199+01801+01701999999ADDGA1021+001521999GA2071+002131999GA3081+021341999GE19MSL   +99999+99999GF199999021999001521999999MA1101801999999MW1611REMMET069METAR SBQV 150700Z 36010KT 8000 -RA FEW005 BKN007 OVC070 18/17 Q1018=
0175833440999992016011508004-14863-040863FM-15+091499999V0200101N004110021319N009999199+01901+01801999999ADDGA1071+002131999GA2081+021341999GE19MSL   +99999+99999GF199999071999002131999999MA1101801999999MW1611REMMET062METAR SBQV 150800Z 01008KT 9999 -RA BKN007 OVC070 19/18 Q1018=
0165833440999992016011509004-14863-040863FM-15+091499999V0200101N003610213419N009999199+01901+01801999999ADDGA1041+001521999GA2081+021341999GE19MSL   +99999+99999GF199999041999001521999999MA1101801999999REMMET058METAR SBQV 150900Z 01007KT 9999 SCT005 OVC070 19/18 Q1018=
0165833440999992016011510004-14863-040863FM-15+091499999V0200101N002110213419N009999199+02001+01901999999ADDGA1041+003051999GA2081+021341999GE19MSL   +99999+99999GF199999041999003051999999MA1101901999999REMMET058METAR SBQV 151000Z 01004KT 9999 SCT010 OVC070 20/19 Q1019=
0165833440999992016011511004-14863-040863FM-15+091499999V0200301N003110213419N009999199+02101+01801999999ADDGA1021+003051999GA2071+021341999GE19MSL   +99999+99999GF199999021999003051999999MA1101901999999REMMET058METAR SBQV 151100Z 03006KT 9999 FEW010 BKN070 21/18 Q1019=
0187833440999992016011512004-14886-040801FM-12+084099999V0200501N0015100300199010000199+02301+02011101341ADDAA124006031AY161061AY221061GA1081+003001071GA2999+999999101GA3999+999999101GE19MSL   +99999+99999GF108991081999003001999999KA1120N+01911MA1999999091781MD1999999+0071MW1031REMSYN004BUFR
0165833440999992016011512004-14863-040863FM-15+091499999V0200201N004610045719N009999199+02201+01901999999ADDGA1071+004571999GA2071+024381999GE19MSL   +99999+99999GF199999071999004571999999MA1101901999999REMMET058METAR SBQV 151200Z 02009KT 9999 BKN015 BKN080 22/19 Q1019=
0165833440999992016011514004-14863-040863FM-15+091499999V0200401N004610243819N009999199+02401+02001999999ADDGA1041+005181999GA2071+024381999GE19MSL   +99999+99999GF199999041999005181999999MA1101901999999REMMET058METAR SBQV 151400Z 04009KT 9999 SCT017 BKN080 24/20 Q1019=
0165833440999992016011515004-14863-040863FM-15+091499999V0203601N004610274319N009999199+02601+02001999999ADDGA1041+006101999GA2071+027431999GE19MSL   +99999+99999GF199999041999006101999999MA1101801999999REMMET058METAR SBQV 151500Z 36009KT 9999 SCT020 BKN090 26/20 Q1018=
0165833440999992016011516004-14863-040863FM-15+091499999V0200201N004610274319N009999199+02701+02001999999ADDGA1041+006101999GA2071+027431999GE19MSL   +99999+99999GF199999041999006101999999MA1101701999999REMMET058METAR SBQV 151600Z 02009KT 9999 SCT020 BKN090 27/20 Q1017=
0165833440999992016011517004-14863-040863FM-15+091499999V0200201N005110304819N009999199+02701+01901999999ADDGA1041+007621999GA2071+030481999GE19MSL   +99999+99999GF199999041999007621999999MA1101601999999REMMET058METAR SBQV 151700Z 02010KT 9999 SCT025 BKN100 27/19 Q1016=
0168833440999992016011518004-14886-040801FM-12+084099999V0203601N0000199999999020000199+02691+01941999999ADDAA101999999AZ101061AZ201061GA1041+003001071GA2999+999999051GA3999+999999101GE19MSL   +99999+99999GF108991041999003001999999MA1999999091451MD1999999-0021REMSYN004BUFR
0165833440999992016011518004-14863-040863FM-15+091499999V0200201N003610304819N009999199+02501+01801999999ADDGA1041+007621999GA2071+030481999GE19MSL   +99999+99999GF199999041999007621999999MA1101601999999REMMET058METAR SBQV 151800Z 02007KT 9999 SCT025 BKN100 25/18 Q1016=
0165833440999992016011519004-14863-040863FM-15+091499999V0200201N003110304819N009999199+02601+01901999999ADDGA1021+007621999GA2071+030481999GE19MSL   +99999+99999GF199999021999007621999999MA1101501999999REMMET058METAR SBQV 151900Z 02006KT 9999 FEW025 BKN100 26/19 Q1015=
0165833440999992016011520004-14863-040863FM-15+091499999V0200201N002110304819N009999199+02501+01901999999ADDGA1021+009141999GA2071+030481999GE19MSL   +99999+99999GF199999021999009141999999MA1101501999999REMMET058METAR SBQV 152000Z 02004KT 9999 FEW030 BKN100 25/19 Q1015=
0165833440999992016011521004-14863-040863FM-15+091499999V0200301N002110304819N009999199+02501+01801999999ADDGA1041+009141999GA2071+030481999GE19MSL   +99999+99999GF199999041999009141999999MA1101501999999REMMET058METAR SBQV 152100Z 03004KT 9999 SCT030 BKN100 25/18 Q1015=
0165833440999992016011523004-14863-040863FM-15+091499999V0209999C00001030481CN009999199+02401+02001999999ADDGA1021+009141999GA2041+030481999GE19MSL   +99999+99999GF199999021999009141999999MA1101601999999REMMET058METAR SBQV 152300Z 00000KT 9999 FEW030 SCT100 24/20 Q1016=
0168833440999992016011600004-14886-040801FM-12+084099999V0203601N0000199999999004000199+02291+02051101081ADDAA101999999AZ101061AZ201061GA1041+003001071GA2999+999999051GA3999+999999101GE19MSL   +99999+99999GF108991041999003001999999MA1999999091581MD1999999-0081REMSYN004BUFR
0165833440999992016011600004-14863-040863FM-15+091499999V0209999C00001030481CN009999199+02401+02001999999ADDGA1021+007621999GA2041+030481999GE19MSL   +99999+99999GF199999021999007621999999MA1101701999999REMMET058METAR SBQV 160000Z 00000KT 9999 FEW025 SCT100 24/20 Q1017=
0165833440999992016011602004-14863-040863FM-15+091499999V0209999C00001030481CN009999199+02201+01901999999ADDGA1021+009141999GA2041+030481999GE19MSL   +99999+99999GF199999021999009141999999MA1101701999999REMMET058METAR SBQV 160200Z 00000KT 9999 FEW030 SCT100 22/19 Q1017=
0142833440999992016011603004-14863-040863FM-15+091499999V0201501N001519999999N009999199+02301+01901999999ADDGA1041+007621999GE19MSL   +99999+99999GF199999041999007621999999MA1101601999999REMMET051METAR SBQV 160300Z 15003KT 9999 SCT025 23/19 Q1016=
0142833440999992016011606304-14863-040863FM-16+091499999V0203101N001519999999N009999199+02101+02001999999ADDGA1021+004571999GE19MSL   +99999+99999GF199999021999004571999999MA1101501999999REMMET051SPECI SBQV 160630Z 31003KT 9999 FEW015 21/20 Q1015=
0142833440999992016011607004-14863-040863FM-15+091499999V0203001N001519999999N009999199+02101+02001999999ADDGA1021+006101999GE19MSL   +99999+99999GF199999021999006101999999MA1101501999999REMMET051METAR SBQV 160700Z 30003KT 9999 FEW020 21/20 Q1015=
0165833440999992016011608004-14863-040863FM-15+091499999V0209999C000010061019N009999199+02101+02001999999ADDGA1021+003051999GA2071+006101999GE19MSL   +99999+99999GF199999021999003051999999MA1101501999999REMMET058METAR SBQV 160800Z 00000KT 9999 FEW010 BKN020 21/20 Q1015=
0165833440999992016011609004-14863-040863FM-15+091499999V0209999C000010213419N009999199+02201+02001999999ADDGA1041+004571999GA2071+021341999GE19MSL   +99999+99999GF199999041999004571999999MA1101601999999REMMET058METAR SBQV 160900Z 00000KT 9999 SCT015 BKN070 22/20 Q1016=
0188833440999992016011610004-14863-040863FM-15+091499999V0200401N00261004571CN009999199+02301+02001999999ADDGA1021+002131999GA2041+004571999GA3071+021341999GE19MSL   +99999+99999GF199999021999002131999999MA1101601999999REMMET065METAR SBQV 161000Z 04005KT 9999 FEW007 SCT015 BKN070 23/20 Q1016=
0165833440999992016011611004-14863-040863FM-15+091499999V0200101N00261006101CN009999199+02401+02001999999ADDGA1021+003051999GA2041+006101999GE19MSL   +99999+99999GF199999021999003051999999MA1101701999999REMMET058METAR SBQV 161100Z 01005KT 9999 FEW010 SCT020 24/20 Q1017=
0181833440999992016011612004-14886-040801FM-12+084099999V0203601N0005100300199010000199+02471+02071101031ADDAA101999999AZ101061AZ201061GA1081+003001071GA2999+999999101GA3999+999999101GE19MSL   +99999+99999GF108991081999003001999999KA1120N+02121MA1999999091581MD1999999-0201REMSYN004BUFR
0142833440999992016011612004-14863-040863FM-15+091499999V0200201N004610061019N009999199+02301+01901999999ADDGA1071+006101999GE19MSL   +99999+99999GF199999071999006101999999MA1101701999999REMMET051METAR SBQV 161200Z 02009KT 9999 BKN020 23/19 Q1017=
0142833440999992016011613004-14863-040863FM-15+091499999V0203601N003610076219N009999199+02401+02001999999ADDGA1081+007621999GE19MSL   +99999+99999GF199999081999007621999999MA1101701999999REMMET051METAR SBQV 161300Z 36007KT 9999 OVC025 24/20 Q1017=
0142833440999992016011614004-14863-040863FM-15+091499999V0203601N003610091419N009999199+02301+02001999999ADDGA1081+009141999GE19MSL   +99999+99999GF199999081999009141999999MA1101701999999REMMET051METAR SBQV 161400Z 36007KT 9999 OVC030 23/20 Q1017=
0142833440999992016011616004-14863-040863FM-15+091499999V0200101N003110121919N009999199+02701+02001999999ADDGA1081+012191999GE19MSL   +99999+99999GF199999081999012191999999MA1101501999999REMMET051METAR SBQV 161600Z 01006KT 9999 OVC040 27/20 Q1015=
0142833440999992016011617004-14863-040863FM-15+091499999V0200201N003610121919N009999199+02801+02001999999ADDGA1071+012191999GE19MSL   +99999+99999GF199999071999012191999999MA1101401999999REMMET051METAR SBQV 161700Z 02007KT 9999 BKN040 28/20 Q1014=
0152833440999992016011618004-14886-040801FM-12+084099999V0200501N0005100300199020000199+02871+02061999999ADDAA101999999AZ101061AZ201061GA1061+003001081GA2999+999999031GE19MSL   +99999+99999GF107991061999003001999999MA1999999091271MD1999999-0181REMSYN004BUFR
0142833440999992016011618004-14863-040863FM-15+091499999V0200201N001510121919N009999199+02801+01901999999ADDGA1071+012191999GE19MSL   +99999+99999GF199999071999012191999999MA1101301999999REMMET051METAR SBQV 161800Z 02003KT 9999 BKN040 28/19 Q1013=
0142833440999992016011619004-14863-040863FM-15+091499999V0200301N002110121919N009999199+02801+01901999999ADDGA1071+012191999GE19MSL   +99999+99999GF199999071999012191999999MA1101301999999REMMET051METAR SBQV 161900Z 03004KT 9999 BKN040 28/19 Q1013=
0142833440999992016011620004-14863-040863FM-15+091499999V0203301N004119999999N009999199+02701+01901999999ADDGA1041+012191999GE19MSL   +99999+99999GF199999041999012191999999MA1101301999999REMMET051METAR SBQV 162000Z 33008KT 9999 SCT040 27/19 Q1013=
0191833440999992016011621004-14863-040863FM-15+091499999V0203401N00411012191CN009999199+02701+01901999999ADDGA1041+009141999GA2041+012191081GA3071+021341999GE19MSL   +99999+99999GF199999041999009141999999MA1101401999999REMMET068METAR SBQV 162100Z 34008KT 9999 SCT030 SCT040TCU BKN070 27/19 Q1014=
0165833440999992016011623004-14863-040863FM-15+091499999V0203101N003110027419N009999199+02001+02001999999ADDGA1071+002741999GA2071+021341999GE19MSL   +99999+99999GF199999071999002741999999MA1101501999999REMMET058METAR SBQV 162300Z 31006KT 9999 BKN009 BKN070 20/20 Q1015=
0174833440999992016011700004-14863-040863FM-15+091499999V0209999C000010015219N008000199+02001+02001999999ADDGA1071+001521999GA2071+021341999GE19MSL   +99999+99999GF199999071999001521999999MA1101701999999MW1631REMMET061METAR SBQV 170000Z 00000KT 8000 RA BKN005 BKN070 20/20 Q1017=
0175833440999992016011700304-14863-040863FM-16+091499999V0202301N001510213419N008000199+02001+02001999999ADDGA1041+002131999GA2071+021341999GE19MSL   +99999+99999GF199999041999002131999999MA1101701999999MW1611REMMET062SPECI SBQV 170030Z 23003KT 8000 -RA SCT007 BKN070 20/20 Q1017=
0175833440999992016011701004-14863-040863FM-15+091499999V0202601N001510213419N009999199+02101+02001999999ADDGA1041+003051999GA2071+021341999GE19MSL   +99999+99999GF199999041999003051999999MA1101701999999MW1611REMMET062METAR SBQV 170100Z 26003KT 9999 -RA SCT010 BKN070 21/20 Q1017=
0197833440999992016011704154-14863-040863FM-16+091499999V0201201N002110061019N008000199+01801+01801999999ADDGA1041+003051999GA2071+006101999GA3081+021341999GE19MSL   +99999+99999GF199999041999003051999999MA1101701999999MW1631REMMET068SPECI SBQV 170415Z 12004KT 8000 RA SCT010 BKN020 OVC070 18/18 Q1017=
0197833440999992016011705004-14863-040863FM-15+091499999V0209999C000010061019N008000199+01801+01801999999ADDGA1041+003051999GA2071+006101999GA3081+021341999GE19MSL   +99999+99999GF199999041999003051999999MA1101601999999MW1631REMMET068METAR SBQV 170500Z 00000KT 8000 RA SCT010 BKN020 OVC070 18/18 Q1016=
0142833440999992016011709004-14863-040863FM-15+091499999V0203001N003110012219N009999199+01801+01801999999ADDGA1081+001221999GE19MSL   +99999+99999GF199999081999001221999999MA1101701999999REMMET051METAR SBQV 170900Z 30006KT 9999 OVC004 18/18 Q1017=
0142833440999992016011710004-14863-040863FM-15+091499999V0203201N005110012219N009999199+01901+01801999999ADDGA1081+001221999GE19MSL   +99999+99999GF199999081999001221999999MA1101701999999REMMET051METAR SBQV 171000Z 32010KT 9999 OVC004 19/18 Q1017=
0165833440999992016011710284-14863-040863FM-16+091499999V0203301N00511004571CN009999199+01901+01801999999ADDGA1041+001221999GA2041+004571999GE19MSL   +99999+99999GF199999041999001221999999MA1101701999999REMMET058SPECI SBQV 171028Z 33010KT 9999 SCT004 SCT015 19/18 Q1017=
0165833440999992016011711004-14863-040863FM-15+091499999V0203301N00571004571CN009999199+01901+01801999999ADDGA1041+001521999GA2041+004571999GE19MSL   +99999+99999GF199999041999001521999999MA1101701999999REMMET058METAR SBQV 171100Z 33011KT 9999 SCT005 SCT015 19/18 Q1017=
0187833440999992016011712004-14886-040801FM-12+084099999V0200501N0021100300199020000199+02071+01931101271ADDAA124023031AY161061AY221061GA1081+003001071GA2999+999999101GA3999+999999101GE19MSL   +99999+99999GF108991081999003001999999KA1120N+01881MA1999999091671MD1999999+0091MW1021REMSYN004BUFR
0188833440999992016011712004-14863-040863FM-15+091499999V0203401N00411004571CN009999199+02101+01901999999ADDGA1041+002131999GA2041+004571999GA3071+021341999GE19MSL   +99999+99999GF199999041999002131999999MA1101801999999REMMET065METAR SBQV 171200Z 34008KT 9999 SCT007 SCT015 BKN070 21/19 Q1018=
0165833440999992016011713004-14863-040863FM-15+091499999V0203401N004610061019N009999199+02101+01901999999ADDGA1071+006101999GA2071+021341999GE19MSL   +99999+99999GF199999071999006101999999MA1101801999999REMMET058METAR SBQV 171300Z 34009KT 9999 BKN020 BKN070 21/19 Q1018=
0165833440999992016011714004-14863-040863FM-15+091499999V0203401N004610076219N009999199+02301+01901999999ADDGA1071+007621999GA2081+021341999GE19MSL   +99999+99999GF199999071999007621999999MA1101801999999REMMET058METAR SBQV 171400Z 34009KT 9999 BKN025 OVC070 23/19 Q1018=
0165833440999992016011715004-14863-040863FM-15+091499999V0200101N005710213419N009999199+02401+01901999999ADDGA1041+007621999GA2071+021341999GE19MSL   +99999+99999GF199999041999007621999999MA1101701999999REMMET058METAR SBQV 171500Z 01011KT 9999 SCT025 BKN070 24/19 Q1017=
0165833440999992016011716004-14863-040863FM-15+091499999V0203401N00621021341CN009999199+02601+02001999999ADDGA1041+009141999GA2041+021341999GE19MSL   +99999+99999GF199999041999009141999999MA1101601999999REMMET058METAR SBQV 171600Z 34012KT 9999 SCT030 SCT070 26/20 Q1016=
0165833440999992016011717004-14863-040863FM-15+091499999V0200101N003610091419N009999199+02501+01901999999ADDGA1071+009141999GA2081+021341999GE19MSL   +99999+99999GF199999071999009141999999MA1101601999999REMMET058METAR SBQV 171700Z 01007KT 9999 BKN030 OVC070 25/19 Q1016=
0168833440999992016011718004-14886-040801FM-12+084099999V0203601N0010100300199020000199+02621+01961999999ADDAA101999999AZ101061AZ201061GA1081+003001071GA2999+999999101GA3999+999999101GE19MSL   +99999+99999GF108991081999003001999999MA1999999091441MD1999999+0171REMSYN004BUFR
0165833440999992016011719004-14863-040863FM-15+091499999V0203401N003610213419N009999199+02501+02001999999ADDGA1041+006101999GA2071+021341999GE19MSL   +99999+99999GF199999041999006101999999MA1101501999999REMMET058METAR SBQV 171900Z 34007KT 9999 SCT020 BKN070 25/20 Q1015=
0165833440999992016011720004-14863-040863FM-15+091499999V0200101N003610213419N009999199+02401+01901999999ADDGA1041+006101999GA2071+021341999GE19MSL   +99999+99999GF199999041999006101999999MA1101501999999REMMET058METAR SBQV 172000Z 01007KT 9999 SCT020 BKN070 24/19 Q1015=
0188833440999992016011721004-14863-040863FM-15+091499999V0200201N00261007621CN009999199+02401+01901999999ADDGA1021+002131999GA2041+007621999GA3071+021341999GE19MSL   +99999+99999GF199999021999002131999999MA1101601999999REMMET065METAR SBQV 172100Z 02005KT 9999 FEW007 SCT025 BKN070 24/19 Q1016=
0165833440999992016011722004-14863-040863FM-15+091499999V0200201N002610213419N009999199+02401+02001999999ADDGA1041+007621999GA2071+021341999GE19MSL   +99999+99999GF199999041999007621999999MA1101601999999REMMET058METAR SBQV 172200Z 02005KT 9999 SCT025 BKN070 24/20 Q1016=
0165833440999992016011723004-14863-040863FM-15+091499999V0203101N002110243819N009999199+02201+02001999999ADDGA1021+006101999GA2071+024381999GE19MSL   +99999+99999GF199999021999006101999999MA1101701999999REMMET058METAR SBQV 172300Z 31004KT 9999 FEW020 BKN080 22/20 Q1017=
0165833440999992016011800004-14863-040863FM-15+091499999V0209999C000010243819N009999199+02101+02001999999ADDGA1021+006101999GA2071+024381999GE19MSL   +99999+99999GF199999021999006101999999MA1101801999999REMMET058METAR SBQV 180000Z 00000KT 9999 FEW020 BKN080 21/20 Q1018=
0165833440999992016011802004-14863-040863FM-15+091499999V0200401N002110243819N009999199+02201+02001999999ADDGA1021+006101999GA2071+024381999GE19MSL   +99999+99999GF199999021999006101999999MA1101801999999REMMET058METAR SBQV 180200Z 04004KT 9999 FEW020 BKN080 22/20 Q1018=
0142833440999992016011803004-14863-040863FM-15+091499999V0203601N002619999999N009999199+02201+02001999999ADDGA1041+006101999GE19MSL   +99999+99999GF199999041999006101999999MA1101701999999REMMET051METAR SBQV 180300Z 36005KT 9999 SCT020 22/20 Q1017=
0072833440999992016011804004-14863-040863FM-15+091499999V0200201N002119999999Y999999999+02101+02001999999ADDMA1101601999999REMMET045METAR SBQV 180400Z 02004KT CAVOK 21/20 Q1016=
0165833440999992016011805004-14863-040863FM-15+091499999V0200201N001510304819N009999199+02201+02001999999ADDGA1021+001521999GA2071+030481999GE19MSL   +99999+99999GF199999021999001521999999MA1101601999999REMMET058METAR SBQV 180500Z 02003KT 9999 FEW005 BKN100 22/20 Q1016=
0165833440999992016011807004-14863-040863FM-15+091499999V0200401N002610213419N009999199+02201+02001999999ADDGA1021+001521999GA2071+021341999GE19MSL   +99999+99999GF199999021999001521999999MA1101501999999REMMET058METAR SBQV 180700Z 04005KT 9999 FEW005 BKN070 22/20 Q1015=
