0198821980999992000010100004-01720-045400FM-12+004499999V0200901N002112200019N0020001N1+02561+02421100681ADDAA106000091GF104991031021017501061001KA1240M+02941MA1999999100171MD1999999-0161REMSYN088AAXX  01004 82198 32795 40904 10256 20242 30017 40068 83260 333 10294 29092 55002 59016;EQDQ01  00002PRCP06
0186821980999992000010112004-01720-045400FM-12+004499999V0201401N002110450019N0100001N1+02671+02501100731ADDAA106000091GF106991021021017501031001KA1240N+02331MA1999999100221MD1999999-0191REMSYN076AAXX  01124 82198 32797 61404 10267 20250 30022 40073 82230 333 20233 59019;EQDQ01  00002PRCP06
0167821980999992000010118004-01720-045400FM-12+004499999V0200501N008212200019N0100001N1+03071+02841100431ADDAA106000091GF103991031021017501001001MA1999999099921MD1999999-0161REMSYN070AAXX  01184 82198 32797 30516 10307 20284 39992 40043 83200 333 59016;EQDQ01  00002PRCP06
0208821980999992000010200004-01720-045400FM-12+004499999V0200501N003612200019N0020001N1+02671+02501100581ADDAA106000091GA1001+999999999GF100991001001999999001001KA1240M+03231MA1999999100071MD1999999-0101REMSYN082AAXX  02004 82198 32995 00507 10267 20250 30007 40058 333 10323 29088 55059 59010;EQDQ01  00002PRCP06
0186821980999992000010212004-01720-045400FM-12+004499999V0200501N003610450019N0100001N1+02891+02681100711ADDAA106000091GF105991031021017501061001KA1240N+02481MA1999999100201MD1999999-0021REMSYN076AAXX  02124 82198 32797 50507 10289 20268 30020 40071 83260 333 20248 59002;EQDQ01  00002PRCP06
0167821980999992000010218004-01720-045400FM-12+004499999V0200501N005712200019N0100001N1+03021+02761100451ADDAA106000091GF104991021021017501061001MA1999999099941MD1999999+0021REMSYN070AAXX  02184 82198 32797 40511 10302 20276 39994 40045 82260 333 58002;EQDQ01  00002PRCP06
0198821980999992000010300004-01720-045400FM-12+004499999V0200501N002612200019N0020001N1+02691+02611100621ADDAA106000091GF104991021011017501061001KA1240M+03121MA1999999100111MD1999999+0041REMSYN088AAXX  03004 82198 32795 40505 10269 20261 30011 40062 82160 333 10312 29092 55071 58004;EQDQ01  00002PRCP06
0186821980999992000010312004-01720-045400FM-12+004499999V0200901N001510150019N0100001N1+02711+02561100711ADDAA106000091GF108991051021017501061001KA1240N+02441MA1999999100201MD1999999+0001REMSYN076AAXX  03124 82198 32797 80903 10271 20256 30020 40071 85260 333 20244 58000;EQDQ01  00002PRCP06
0167821980999992000010318004-01720-045400FM-12+004499999V0200501N005710450019N0100001N1+02941+02681100371ADDAA106000091GF107991041021017501061001MA1999999099861MD1999999-0081REMSYN070AAXX  03184 82198 32797 70511 10294 20268 39986 40037 84260 333 59008;EQDQ01  00002PRCP06
0198821980999992000010400004-01720-045400FM-12+004499999V0209999C000010450019N0020001N1+02641+02481100751ADDAA106000091GF108991041021017501061001KA1240M+03231MA1999999100241MD1999999+0131REMSYN088AAXX  04004 82198 32795 80000 10264 20248 30024 40075 84260 333 10323 29090 55022 58013;EQDQ01  00002PRCP06
0186821980999992000010412004-01720-045400FM-12+004499999V0209999C000010150019N0100001N1+02441+02231100871ADDAA106000091GF108991051021017501061001KA1240N+02281MA1999999100361MD1999999+0161REMSYN076AAXX  04124 82198 32797 80000 10244 20223 30036 40087 85260 333 20228 58016;EQDQ01  00002PRCP06
0182821980999992000010418004-01720-045400FM-12+004499999V0202701N002110150019N0100001N1+02451+02211100671ADDAA106005191AY161061AY251061GF108991051051017501041001MA1999999100161MD1999999+0301MW1021REMSYN082AAXX  04184 82198 21797 82704 10245 20221 30016 40067 70265 85540 333 58030 60051;
0213821980999992000010500004-01720-045400FM-12+004499999V0209999C000010150019N0020001N1+02371+02211100761ADDAA106001091AY151061AY221061GF108991051051017501021001KA1240M+03071MA1999999100251MD1999999+0011MW1021REMSYN100AAXX  05004 82198 21795 80000 10237 20221 30025 40076 70252 85520 333 10307 29088 55016 58001 60011;
0173821980999992000010512004-01720-045400FM-12+004499999V0201401N001010450019N0100001N1+02511+02291100851ADDAA124006191GF106991021011017501061001KA1240N+02251MA1999999100341MD1999999-0021REMSYN082AAXX  05124 82198 22797 61402 10251 20229 30034 40085 82160 333 20225 59002 60064;
0182821980999992000010518004-01720-045400FM-12+004499999V0200501N004610150019N0100001N1+02461+02191100711ADDAA106004191AY161061AY291061GF108991051051017501021001MA1999999100201MD1999999+0041MW1021REMSYN082AAXX  05184 82198 21797 80509 10246 20219 30020 40071 70269 85520 333 58004 60041;
0173821980999992000010612004-01720-045400FM-12+004499999V0200901N001510450019N0100001N1+02741+02481100951ADDAA124004191GF106991041021017501061001KA1240N+02311MA1999999100441MD1999999+0101REMSYN082AAXX  06124 82198 22797 60903 10274 20248 30044 40095 84260 333 20231 58010 60044;
0198821980999992000010700004-01720-045400FM-12+004499999V0200501N003612200019N0020001N1+02631+02371100661ADDAA106000091GF103991031001017501061001KA1240M+03031MA1999999100151MD1999999-0041REMSYN088AAXX  07004 82198 32795 30507 10263 20237 30015 40066 83060 333 10303 29086 55037 59004;EQDQ01  00002PRCP06
0201821980999992000010712004-01720-045400FM-12+004499999V0200901N004110450019N0100001N1+02471+02251100881ADDAA124004191AY161061AY221061GF108991041051017501061001KA1240N+02421MA1999999100371MD1999999-0071MW1031REMSYN088AAXX  07124 82198 21797 80908 10247 20225 30037 40088 70362 84560 333 20242 59007 60044;
0167821980999992000010718004-01720-045400FM-12+004499999V0200901N004110450019N0100001N1+02821+02481100561ADDAA106000091GF106991041021017501061001MA1999999100051MD1999999-0031REMSYN070AAXX  07184 82198 32797 60908 10282 20248 30005 40056 84260 333 59003;EQDQ01  00002PRCP06
0198821980999992000010800004-01720-045400FM-12+004499999V0200501N002110450019N0020001N1+02571+02371100641ADDAA106000091GF108991041041017501061001KA1240M+03021MA1999999100131MD1999999-0021REMSYN088AAXX  08004 82198 32795 80504 10257 20237 30013 40064 84460 333 10302 29086 55010 59002;EQDQ01  00002PRCP06
0182821980999992000010818004-01720-045400FM-12+004499999V0209999C000010450019N0100001N1+02581+02351100681ADDAA106000391AY151061AY221061GF108991021011017501061001MA1999999100171MD1999999+0121MW1021REMSYN082AAXX  08184 82198 21797 80000 10258 20235 30017 40068 70252 82160 333 58012 69931;
0198821980999992000010900004-01720-045400FM-12+004499999V0200501N001510450019N0020001N1+02511+02431100881ADDAA106000091GF108991041051017501061001KA1240M+02771MA1999999100371MD1999999+0241REMSYN088AAXX  09004 82198 32795 80503 10251 20243 30037 40088 84560 333 10277 29092 55000 58024;EQDQ01  00002PRCP06
0173821980999992000010912004-01720-045400FM-12+004499999V0201401N001510150019N0100001N1+02651+02421100911ADDAA124000391GF107991061021017501061001KA1240N+02301MA1999999100401MD1999999-0021REMSYN082AAXX  09124 82198 22797 71403 10265 20242 30040 40091 86260 333 20230 59002 69934;
0182821980999992000010918004-01720-045400FM-12+004499999V0202301N000510150019N0100001N1+02251+02071100751ADDAA106058991AY161061AY221061GF108991051051017501021001MA1999999100241MD1999999+0071MW1021REMSYN082AAXX  09184 82198 21797 82301 10225 20207 30024 40075 70262 85520 333 58007 60591;
0198821980999992000011000004-01720-045400FM-12+004499999V0201801N001510450019N0020001N1+02371+02151100951ADDAA106000091GF107991031051017501061001KA1240M+03041MA1999999100441MD1999999+0071REMSYN088AAXX  10004 82198 32795 71803 10237 20215 30044 40095 83560 333 10304 29088 55040 58007;EQDQ01  00002PRCP06
0201821980999992000011012004-01720-045400FM-12+004499999V0201401N002110450019N0100001N1+02301+02131100981ADDAA124111091AY161061AY221061GF108991041071017501061001KA1240N+02181MA1999999100471MD1999999+0071MW1021REMSYN088AAXX  10124 82198 21797 81404 10230 20213 30047 40098 70262 84760 333 20218 58007 61114;
0167821980999992000011018004-01720-045400FM-12+004499999V0200901N002610450019N0100001N1+02841+02581100601ADDAA106000091GF108991031021017501061001MA1999999100091MD1999999-0151REMSYN070AAXX  10184 82198 32797 80905 10284 20258 30009 40060 83260 333 59015;EQDQ01  00002PRCP06
0198821980999992000011100004-01720-045400FM-12+004499999V0200501N003112200019N0020001N1+02571+02351100751ADDAA106000091GF103991031001017501061001KA1240M+02911MA1999999100241MD1999999-0201REMSYN088AAXX  11004 82198 32795 30506 10257 20235 30024 40075 83060 333 10291 29088 55000 59020;EQDQ01  00002PRCP06
0186821980999992000011112004-01720-045400FM-12+004499999V0200501N002612200019N0100001N1+02701+02461100881ADDAA106000091GF106991041021017501001011KA1240N+02281MA1999999100371MD1999999-0101REMSYN076AAXX  11124 82198 32797 60505 10270 20246 30037 40088 84201 333 20228 59010;EQDQ01  00002PRCP06
0167821980999992000011118004-01720-045400FM-12+004499999V0200501N005110450019N0100001N1+02901+02541100521ADDAA106000091GF106991041021017501061001MA1999999100011MD1999999-0081REMSYN070AAXX  11184 82198 32797 60510 10290 20254 30001 40052 84260 333 59008;EQDQ01  00002PRCP06
0198821980999992000011200004-01720-045400FM-12+004499999V0200501N003110150019N0020001N1+02641+02331100691ADDAA106000091GF108991051051017501041001KA1240M+03131MA1999999100181MD1999999-0061REMSYN088AAXX  12004 82198 32795 80506 10264 20233 30018 40069 85540 333 10313 29084 55050 59006;EQDQ01  00002PRCP06
0186821980999992000011212004-01720-045400FM-12+004499999V0200901N004611050019N0100001N1+02521+02231100901ADDAA106000091GF105991021011017501061011KA1240N+02411MA1999999100391MD1999999+0021REMSYN076AAXX  12124 82198 32797 50909 10252 20223 30039 40090 82161 333 20241 58002;EQDQ01  00002PRCP06
0173821980999992000011312004-01720-045400FM-12+004499999V0200501N003110450019N0100001N1+02711+02391100891ADDAA124033091GF106991041021017501061011KA1240N+02331MA1999999100381MD1999999-0011REMSYN082AAXX  13124 82198 22797 60506 10271 20239 30038 40089 84261 333 20233 59001 60334;
0167821980999992000011318004-01720-045400FM-12+004499999V0200501N006212200019N0100001N1+03041+02661100631ADDAA106000091GF105991041021017501001011MA1999999100121MD1999999+0001REMSYN070AAXX  13184 82198 32797 50512 10304 20266 30012 40063 84201 333 58000;EQDQ01  00002PRCP06
0202821980999992000011400004-01720-045400FM-12+004499999V0200501N003110450019N0020001N1+02581+02291100761ADDAA199000091GF107991041011017501061001KA1240M+03131MA1999999100251MD1999999+0011REMSYN092    AAXX  14004 82198 32795 70506 10258 20229 30025 40076 84160 333 10313 29083 55080 58001;EQDQ01  00002PRCP99
0190821980999992000011412004-01720-045400FM-12+004499999V0200501N002610450019N0100001N1+02741+02381100821ADDAA199000091GF105991021021017501061001KA1240N+02391MA1999999100311MD1999999-0071REMSYN080    AAXX  14124 82198 32797 50505 10274 20238 30031 40082 82260 333 20239 59007;EQDQ01  00002PRCP99
0171821980999992000011418004-01720-045400FM-12+004499999V0200501N006712200019N0100001N1+02981+02581100521ADDAA199000091GF104991041021017501001001MA1999999100011MD1999999-0111REMSYN074    AAXX  14184 82198 32797 40513 10298 20258 30001 40052 84200 333 59011;EQDQ01  00002PRCP99
0190821980999992000011512004-01720-045400FM-12+004499999V0202301N001512200019N0100001N1+02511+02131100811ADDAA199000091GF103991021011017501001011KA1240N+02261MA1999999100301MD1999999-0011REMSYN080    AAXX  15124 82198 32797 32303 10251 20213 30030 40081 82101 333 20226 59001;EQDQ01  00002PRCP99
0217821980999992000011600004-01720-045400FM-12+004499999V0203201N001510450019N0020001N1+02491+02131100701ADDAA106014091AY161061AY221061GF108991041051017501041001KA1240M+03131MA1999999100191MD1999999+0011MW1021REMSYN104    AAXX  16004 82198 21795 83203 10249 20213 30019 40070 70262 84540 333 10313 29081 55040 58001 60141;
0205821980999992000011612004-01720-045400FM-12+004499999V0201801N002610150019N0100001N1+02501+02191100851ADDAA124017091AY161061AY221061GF108991051051017501041001KA1240N+02381MA1999999100341MD1999999+0041MW1021REMSYN092    AAXX  16124 82198 21797 81805 10250 20219 30034 40085 70262 85540 333 20238 58004 60174;
0202821980999992000011700004-01720-045400FM-12+004499999V0200901N002610450019N0020001N1+02541+02251100771ADDAA199000091GF106991041021017501061001KA1240M+02751MA1999999100261MD1999999+0091REMSYN092    AAXX  17004 82198 32795 60905 10254 20225 30026 40077 84260 333 10275 29083 55000 58009;EQDQ01  00002PRCP99
0190821980999992000011712004-01720-045400FM-12+004499999V0200501N003112200019N0100001N1+02771+02421100921ADDAA199000091GF106991031021017501001011KA1240N+02381MA1999999100411MD1999999+0071REMSYN080    AAXX  17124 82198 32797 60506 10277 20242 30041 40092 83201 333 20238 58007;EQDQ01  00002PRCP99
0171821980999992000011718004-01720-045400FM-12+004499999V0200501N006712200019N0100001N1+02971+02531100691ADDAA199000091GF104991031021017501061001MA1999999100181MD1999999-0101REMSYN074    AAXX  17184 82198 32797 40513 10297 20253 30018 40069 83260 333 59010;EQDQ01  00002PRCP99
0202821980999992000011800004-01720-045400FM-12+004499999V0200501N002110150019N0020001N1+02621+02311100921ADDAA199000091GF105991051001017501061001KA1240M+03101MA1999999100411MD1999999+0131REMSYN092    AAXX  18004 82198 32795 50504 10262 20231 30041 40092 85060 333 10310 29081 55094 58013;EQDQ01  00002PRCP99
0205821980999992000011812004-01720-045400FM-12+004499999V0202301N001010150019N0100001N1+02541+02211101141ADDAA124005191AY161061AY221061GF108991051021017501041001KA1240N+02341MA1999999100631MD1999999+0221MW1031REMSYN092    AAXX  18124 82198 21797 82302 10254 20221 30063 40114 70362 85240 333 20234 58022 60054;
0186821980999992000011818004-01720-045400FM-12+004499999V0200501N001510450019N0100001N1+02441+02151100871ADDAA106025991AY161061AY221061GF108991031051017501061001MA1999999100361MD1999999+0181MW1021REMSYN086    AAXX  18184 82198 21797 80503 10244 20215 30036 40087 70262 83560 333 58018 60261;
0217821980999992000011900004-01720-045400FM-12+004499999V0200501N001510450019N0020001N1+02371+02111101021ADDAA106006191AY161061AY221061GF108991031021017501031001KA1240M+02701MA1999999100511MD1999999+0101MW1021REMSYN104    AAXX  19004 82198 21795 80503 10237 20211 30051 40102 70262 83230 333 10270 29084 55008 58010 60061;
0205821980999992000011912004-01720-045400FM-12+004499999V0203201N002110450019N0100001N1+02581+02291101141ADDAA124038191AY161061AY221061GF108991041021017501061001KA1240N+02271MA1999999100631MD1999999+0001MW1021REMSYN092    AAXX  19124 82198 21797 83204 10258 20229 30063 40114 70262 84260 333 20227 58000 60384;
0182821980999992000011918004-01720-045400FM-12+004499999V0200501N004112200019N0100001N1+02951+02531100771ADDAA106000591AY151061AY221061GF104991021021017501061001MA1999999100261MD1999999-0101MW1011REMSYN082AAXX  19184 82198 21797 40508 10295 20253 30026 40077 70152 82260 333 59010 69951;
0198821980999992000012000004-01720-045400FM-12+004499999V0203201N002110450019N0020001N1+02581+02211100881ADDAA199000091GF108991041021017501031001KA1240M+03031MA1999999100471MD1999999-0041REMSYN088AAXX  20004 82198 32795 83204 10258 20221 30047 40088 84230 333 10303 29081 55060 59004;EQDQ01  00002PRCP99
0173821980999992000012012004-01720-045400FM-12+004499999V0202301N002110450019N0100001N1+02581+02211101101ADDAA124000591GF106991041021017501061001KA1240N+02381MA1999999100591MD1999999-0041REMSYN082AAXX  20124 82198 22797 62304 10258 20221 30059 40110 84260 333 20238 59004 69954;
0182821980999992000012018004-01720-045400FM-12+004499999V0200501N003110450019N0100001N1+02781+02441100831ADDAA106000191AY151061AY221061GF107991041051017501061001MA1999999100321MD1999999+0061MW1021REMSYN082AAXX  20184 82198 21797 70506 10278 20244 30032 40083 70252 84560 333 58006 69921;
0198821980999992000012100004-01720-045400FM-12+004499999V0203201N002110150019N0020001N1+02571+02291101011ADDAA199000091GF108991051051017501061001KA1240M+02941MA1999999100501MD1999999+0031REMSYN088AAXX  21004 82198 32795 83204 10257 20229 30050 40101 85560 333 10294 29082 55021 58003;EQDQ01  00002PRCP99
0201821980999992000012112004-01720-045400FM-12+004499999V0203201N002619999999N0100001N1+02531+02211101081ADDAA124021191AY161061AY221061GF106991041021999999061001KA1240N+02261MA1999999100571MD1999999-0021MW1021REMSYN088AAXX  21124 82198 21997 63205 10253 20221 30057 40108 70262 84260 333 20226 59002 60214;
0167821980999992000012118004-01720-045400FM-12+004499999V0200501N005112200019N0100001N1+03021+02501100731ADDAA199000091GF103991031021017501001001MA1999999100221MD1999999-0101REMSYN070AAXX  21184 82198 32797 30510 10302 20250 30022 40073 83200 333 59010;EQDQ01  00002PRCP99
0198821980999992000012200004-01720-045400FM-12+004499999V0200501N002610450019N0020001N1+02631+02161100921ADDAA199000091GF105991031021017501061001KA1240M+03131MA1999999100401MD1999999-0101REMSYN088AAXX  22004 82198 32795 50505 10263 20216 30040 40092 83260 333 10313 29074 55091 59010;EQDQ01  00002PRCP99
0186821980999992000012212004-01720-045400FM-12+004499999V0200501N001510150019N0100001N1+02711+02301101131ADDAA199000091GF108991051021017501061001KA1240N+02351MA1999999100621MD1999999+0031REMSYN076AAXX  22124 82198 32797 80503 10271 20230 30062 40113 85260 333 20235 58003;EQDQ01  00002PRCP99
0161821980999992000012218004-01720-045400FM-12+004499999V0200501N005110150019N0100001N1+99999+99999100791ADDAA199000091GF108991051051017501061001MA1999999100281MD1999999+0061REMSYN064AAXX  22184 82198 32797 80510 20250 30028 40079 85560 333 58006;EQDQ01  00002PRCP99
0213821980999992000012300004-01720-045400FM-12+004499999V0200501N000510450019N0020001N1+02471+02171100931ADDAA106019191AY161061AY221061GF105991031021017501061001KA1240M+03021MA1999999100421MD1999999+0021MW1011REMSYN100AAXX  23004 82198 21795 50501 10247 20217 30042 40093 70162 83260 333 10302 29081 55045 58002 60191;
0201821980999992000012312004-01720-045400FM-12+004499999V0200901N000512200019N0100001N1+02551+02291101051ADDAA124019191AY161061AY221061GF105991031021017501001011KA1240N+02231MA1999999100541MD1999999-0081MW1021REMSYN088AAXX  23124 82198 21797 50901 10255 20229 30054 40105 70262 83201 333 20223 59008 60194;
0198821980999992000012400004-01720-045400FM-12+004499999V0200901N003110450019N0020001N1+02601+02351100851ADDAA199000091GF108991041021017501061001KA1240M+02951MA1999999100341MD1999999-0861REMSYN088AAXX  24004 82198 32795 80906 10260 20235 30034 40085 84260 333 10295 59086 55025 59006;EQDQ01  00002PRCP99
0201821980999992000012412004-01720-045400FM-12+004499999V0200501N003110450019N0100001N1+02761+02461100991ADDAA124007191AY161061AY221061GF105991031021017501061001KA1240N+02311MA1999999100481MD1999999-0061MW1021REMSYN088AAXX  24124 82198 21797 50506 10276 20246 30048 40099 70262 83260 333 20231 59006 60074;
0167821980999992000012418004-01720-045400FM-12+004499999V0200501N005110450019N0100001N1+02851+02521100691ADDAA199000091GF108991041021017501041001MA1999999100181MD1999999-0081REMSYN070AAXX  24184 82198 32797 80510 10285 20252 30018 40069 84240 333 59008;EQDQ01  00002PRCP99
0198821980999992000012500004-01720-045400FM-12+004499999V0200501N003112200019N0020001N1+02641+02461100941ADDAA199000091GF104991041001017501061001KA1240M+03031MA1999999100431MD1999999+0091REMSYN088AAXX  25004 82198 32795 40506 10264 20246 30043 40094 84060 333 10303 29086 55042 58009;EQDQ01  00002PRCP99
0186821980999992000012512004-01720-045400FM-12+004499999V0200901N003112200019N0100001N1+02871+02641100991ADDAA199000091GF105991031021017501001011KA1240N+02441MA1999999100481MD1999999+0001REMSYN076AAXX  25124 82198 32797 50906 10287 20264 30048 40099 83201 333 20244 58000;EQDQ01  00002PRCP99
0167821980999992000012518004-01720-045400FM-12+004499999V0200501N005110150019N0100001N1+03021+02641100741ADDAA199000091GF105991051021017501001001MA1999999100231MD1999999+0051REMSYN070AAXX  25184 82198 32797 50510 10302 20264 30023 40074 85200 333 58005;EQDQ01  00002PRCP99
0208821980999992000012600004-01720-045400FM-12+004499999V0200501N003112200019N0020001N1+02641+02331100851ADDAA199000091GA1001+999999999GF100991001001999999001001KA1240M+03131MA1999999100341MD1999999-0091REMSYN082AAXX  26004 82198 32995 00506 10264 20233 30034 40085 333 10313 29083 55107 59009;EQDQ01  00002PRCP99
0186821980999992000012612004-01720-045400FM-12+004499999V0200501N002112200019N0100001N1+02761+02401101091ADDAA199000091GF104991021021017501061011KA1240N+02351MA1999999100581MD1999999+0081REMSYN076AAXX  26124 82198 32797 40504 10276 20240 30058 40109 82261 333 20235 58008;EQDQ01  00002PRCP99
0167821980999992000012618004-01720-045400FM-12+004499999V0200501N004612200019N0100001N1+03111+02631100811ADDAA199000091GF104991031021017501001011MA1999999100301MD1999999+0071REMSYN070AAXX  26184 82198 32797 40509 10311 20263 30030 40081 83201 333 58007;EQDQ01  00002PRCP99
0208821980999992000012700004-01720-045400FM-12+004499999V0200501N003612200019N0020001N1+02691+02331100901ADDAA199000091GA1001+999999999GF100991001001999999001001KA1240M+03151MA1999999100391MD1999999+0051REMSYN082AAXX  27004 82198 32995 00507 10269 20233 30039 40090 333 10315 29080 55099 58005;EQDQ01  00002PRCP99
0186821980999992000012712004-01720-045400FM-12+004499999V0200901N002110450019N0100001N1+02771+02441101071ADDAA199000091GF105991041021017501061001KA1240N+02351MA1999999100561MD1999999-0021REMSYN076AAXX  27124 82198 32797 50904 10277 20244 30056 40107 84260 333 20235 59002;EQDQ01  00002PRCP99
0182821980999992000012718004-01720-045400FM-12+004499999V0200501N006710150019N0100001N1+02941+02561100831ADDAA106005191AY161061AY221061GF105991051021017501001001MA1999999100321MD1999999+0021MW1021REMSYN082AAXX  27184 82198 21797 50513 10294 20256 30032 40083 70262 85200 333 58002 60051;
0208821980999992000012800004-01720-045400FM-12+004499999V0200501N003112200019N0020001N1+02641+02351100871ADDAA199000091GA1001+999999999GF100991001001999999001001KA1240M+03061MA1999999100361MD1999999-0031REMSYN082AAXX  28004 82198 32995 00506 10264 20235 30036 40087 333 10306 29082 55106 59003;EQDQ01  00002PRCP99
0173821980999992000012812004-01720-045400FM-12+004499999V0200501N002112200019N0100001N1+02821+02521101021ADDAA124005191GF103991021011017501001011KA1240N+02421MA1999999100511MD1999999-0051REMSYN082AAXX  28124 82198 22797 30504 10282 20252 30051 40102 82101 333 20242 59005 60054;
0208821980999992000012900004-01720-045400FM-12+004499999V0200501N003112200019N0020001N1+02761+02361100831ADDAA199000091GA1001+999999999GF100991001001999999001001KA1240M+03201MA1999999100321MD1999999-0041REMSYN082AAXX  29004 82198 32995 00506 10276 20236 30032 40083 333 10320 29084 55088 59004;EQDQ01  00002PRCP99
0186821980999992000012912004-01720-045400FM-12+004499999V0200501N004112200019N0100001N1+02911+02601101001ADDAA199000091GF104991021021017501001011KA1240N+02501MA1999999100491MD1999999-0021REMSYN076AAXX  29124 82198 32797 40508 10291 20260 30049 40100 82201 333 20250 59002;EQDQ01  00002PRCP99
0208821980999992000013000004-01720-045400FM-12+004499999V0200501N003612200019N0020001N1+02691+02391100781ADDAA199000091GA1001+999999999GF100991001001999999001001KA1240M+03211MA1999999100271MD1999999-0051REMSYN082AAXX  30004 82198 32995 00507 10269 20239 30027 40078 333 10321 29083 55102 59005;EQDQ01  00002PRCP99
0186821980999992000013012004-01720-045400FM-12+004499999V0200501N003612200019N0100001N1+02871+02561101031ADDAA199000091GF104991041021017501001001KA1240N+02501MA1999999100521MD1999999+0031REMSYN076AAXX  30124 82198 32797 40507 10287 20256 30052 40103 84200 333 20250 58003;EQDQ01  00002PRCP99
0208821980999992000013100004-01720-045400FM-12+004499999V0200501N003612200019N0020001N1+02691+02391100781ADDAA199000091GA1001+999999999GF100991001001999999001001KA1240M+03211MA1999999100271MD1999999-0051REMSYN082AAXX  31004 82198 32995 00507 10269 20239 30027 40078 333 10321 29083 55102 59005;EQDQ01  00002PRCP99
0186821980999992000013112004-01720-045400FM-12+004499999V0200501N003110450019N0100001N1+02771+02501101231ADDAA199000091GF105991021021017501061001KA1240N+02541MA1999999100711MD1999999+0191REMSYN076AAXX  31124 82198 32797 50506 10277 20250 30071 40123 82260 333 20254 58019;EQDQ01  00002PRCP99
0167821980999992000013118004-01720-045400FM-12+004499999V0200501N002610450019N0100001N1+02891+02341100961ADDAA199000091GF107991031051017501041011MA1999999100441MD1999999+0111REMSYN070AAXX  31184 82198 32797 70505 10289 20234 30044 40096 83541 333 58011;EQDQ01  00002PRCP99
0198821980999992000020100004-01720-045400FM-12+004499999V0200501N002610150019N0100001N1+02701+02241101151ADDAA199000091GF105991051021017501001001KA1240M+03071MA1999999100631MD1999999+0131REMSYN088AAXX  01004 82198 32797 50505 10270 20224 30063 40115 85200 333 10307 29082 55024 58013;EQDQ01  00002PRCP99
0186821980999992000020112004-01720-045400FM-12+004499999V0202301N001010450019N0100001N1+02701+02541101271ADDAA199000091GF106991041021017501061011KA1240N+02401MA1999999100751MD1999999+0041REMSYN076AAXX  01124 82198 32797 62302 10270 20254 30075 40127 84261 333 20240 58004;EQDQ01  00002PRCP99
0182821980999992000020118004-01720-045400FM-12+004499999V0203601N004610450019N0100001N1+02941+02491100941ADDAA106006191AY161061AY221061GF106991041051017501061001MA1999999100421MD1999999-0021MW1021REMSYN082AAXX  01184 82198 21797 63609 10294 20249 30042 40094 70262 84560 333 59002 60061;
0226821980999992000020200004-01720-045400FM-12+004499999V0200501N002610450019N0020001N1+02661+02441101121ADDAA199000091AY121061AY221061GF106991041071017501061001KA1240M+03001MA1999999100601MD1999999-0031MW1131REMSYN094AAXX  02004 82198 31795 60505 10266 20244 30060 40112 71322 84760 333 10300 29086 55038 59003;EQDQ01  00002PRCP99
0173821980999992000020212004-01720-045400FM-12+004499999V0200501N001510450019N0100001N1+02781+02481101121ADDAA124006191GF106991041021017501031061KA1240N+02411MA1999999100601MD1999999-0051REMSYN082AAXX  02124 82198 22797 60503 10278 20248 30060 40112 84236 333 20241 59005 60064;
0213821980999992000020300004-01720-045400FM-12+004499999V0200501N004610450019N0020001N1+02651+02401101011ADDAA106000591AY161061AY251061GF105991031021017501061001KA1240M+03071MA1999999100491MD1999999-0111MW1011REMSYN100AAXX  03004 82198 21795 50509 10265 20240 30049 40101 70165 83260 333 10307 29083 55076 59011 69951;
0182821980999992000020318004-01720-045400FM-12+004499999V0203601N004610450019N0100001N1+02671+02401100801ADDAA106011991AY161061AY221061GF106991041021017501061001MA1999999100281MD1999999-0101MW1011REMSYN082AAXX  03184 82198 21797 63609 10267 20240 30028 40080 70162 84260 333 59010 60121;
0208821980999992000020400004-01720-045400FM-12+004499999V0200501N003112200019N0020001N1+02641+02411100931ADDAA199000091GA1001+999999999GF100991001001999999001001KA1240M+02911MA1999999100411MD1999999-0081REMSYN082AAXX  04004 82198 32995 00506 10264 20241 30041 40093 333 10291 29088 55022 59008;EQDQ01  00002PRCP99
0173821980999992000020412004-01720-045400FM-12+004499999V0200501N004110150019N0100001N1+02851+02361101071ADDAA124011991GF105991051021017501001001KA1240N+02461MA1999999100551MD1999999+0051REMSYN082AAXX  04124 82198 22797 50508 10285 20236 30055 40107 85200 333 20246 58005 60124;
0208821980999992000020500004-01720-045400FM-12+004499999V0200501N004612200019N0020001N1+02721+02401100981ADDAA199000091GA1001+999999999GF100991001001999999001001KA1240M+03191MA1999999100461MD1999999+0051REMSYN082AAXX  05004 82198 32995 00509 10272 20240 30046 40098 333 10319 29078 55088 58005;EQDQ01  00002PRCP99
0186821980999992000020512004-01720-045400FM-12+004499999V0200501N004110150019N0100001N1+02801+02441101071ADDAA199000091GF106991061021017501001001KA1240N+02581MA1999999100551MD1999999+0001REMSYN076AAXX  05124 82198 32797 60508 10280 20244 30055 40107 86200 333 20258 58000;EQDQ01  00002PRCP99
0167821980999992000020518004-01720-045400FM-12+004499999V0203601N007210450019N0100001N1+03011+02261101011ADDAA199000091GF106991021071017501011011MA1999999100491MD1999999+0191REMSYN070AAXX  05184 82198 32797 63614 10301 20226 30049 40101 82711 333 58019;EQDQ01  00002PRCP99
0213821980999992000020600004-01720-045400FM-12+004499999V0200501N004110150019N0020001N1+02671+02391101061ADDAA106000591AY161061AY221061GF108991061071017501081001KA1240M+03111MA1999999100941MD1999999+0081MW1031REMSYN100AAXX  06004 82198 21795 80508 10267 20239 30094 40106 70362 86780 333 10311 29079 55082 58008 69961;
0201821980999992000020612004-01720-045400FM-12+004499999V0202301N000510150019N0100001N1+02471+02111101171ADDAA124004191AY161061AY221061GF106991061021017501001001KA1240N+02291MA1999999100651MD1999999+0101MW1021REMSYN088AAXX  06124 82198 22797 62301 10247 20211 30065 40117 70262 86200 333 20229 58010 60044;
0182821980999992000020618004-01720-045400FM-12+004499999V0203601N003612200019N0100001N1+03091+02391101041ADDAA106001091AY161061AY221061GF106991041021017501001041MA1999999100521MD1999999-0271MW1021REMSYN082AAXX  06184 82198 21797 63607 10309 20239 30052 40104 70262 84204 333 59027 60011;
0201821980999992000020712004-01720-045400FM-12+004499999V0202301N001010450019N0100001N1+02551+02441101211ADDAA124007991AY161061AY201061GF106991031021017501061001KA1240N+02511MA1999999100691MD1999999-0041MW1031REMSYN088AAXX  07124 82198 21797 62302 10255 20244 30069 40121 70360 83260 333 20251 59004 60084;
0167821980999992000020718004-01720-045400FM-12+004499999V0200501N004110450019N0100001N1+03041+02261101041ADDAA199000091GF106991041021017501011041MA1999999100521MD1999999+0001REMSYN070AAXX  07184 82198 32797 60508 10304 20226 30052 40104 84214 333 58000;EQDQ01  00002PRCP99
0198821980999992000020800004-01720-045400FM-12+004499999V0202701N001010150019N0020001N1+02641+02481101151ADDAA199000091GF105991051021017501001001KA1240M+03091MA1999999100631MD1999999+0051REMSYN088AAXX  08004 82198 32795 52702 10264 20248 30063 40115 85200 333 10309 29084 55060 58005;EQDQ01  00002PRCP99
0201821980999992000020812004-01720-045400FM-12+004499999V0202301N002110450019N0100001N1+02531+02411101181ADDAA124004191AY161061AY221061GF106991031021017501031011KA1240N+02291MA1999999100661MD1999999-0031MW1031REMSYN088AAXX  08124 82198 21797 62304 10253 20241 30066 40118 70362 83231 333 20229 59003 60044;
0182821980999992000020818004-01720-045400FM-12+004499999V0203201N001010450019N0100001N1+02521+02451100901ADDAA106035191AY161061AY221061GF107991031071017501061001MA1999999100481MD1999999-0041MW1021REMSYN082AAXX  08184 82198 21797 73202 10252 20245 30048 40090 70262 83760 333 59004 60351;
0198821980999992000020900004-01720-045400FM-12+004499999V0203201N001510450019N0020001N1+02511+02381101101ADDAA199000091GF106991041071017501061001KA1240M+02961MA1999999100581MD1999999-0051REMSYN088AAXX  09004 82198 32795 63203 10251 20238 30058 40110 84760 333 10296 29094 55012 59005;EQDQ01  00002PRCP99
0173821980999992000020912004-01720-045400FM-12+004499999V0201401N001512200019N0100001N1+02491+02331101111ADDAA124035191GF105991021021017501041091KA1240N+02321MA1999999100591MD1999999-0071REMSYN082AAXX  09124 82198 22797 51403 10249 20233 30059 40111 82249 333 20232 59007 60354;
0182821980999992000020918004-01720-045400FM-12+004499999V0203201N001010450019N0100001N1+02541+02401100931ADDAA106004191AY161061AY221061GF107991041071017501061011MA1999999100411MD1999999-0071MW1031REMSYN082AAXX  09184 82198 21797 73202 10254 20240 30041 40093 70362 84761 333 59007 60041;
0226821980999992000021000004-01720-045400FM-12+004499999V0200501N001510450019N0020001N1+02521+02341100951ADDAA199000091AY121061AY221061GF105991031021017501061001KA1240M+03031MA1999999100431MD1999999-0151MW1131REMSYN094AAXX  10004 82198 31795 50503 10252 20234 30043 40095 71322 83260 333 10303 29092 55046 59015;EQDQ01  00002PRCP99
0201821980999992000021012004-01720-045400FM-12+004499999V0203201N001010150019N0100001N1+02401+02351101041ADDAA124011991AY161061AY221061GF108991051071017501021001KA1240N+02291MA1999999100521MD1999999-0071MW1601REMSYN088AAXX  10124 82198 21797 83202 10240 20235 30052 40104 76062 85720 333 20229 59007 60124;
0167821980999992000021218004-01720-045400FM-12+004499999V0200501N004110450019N0100001N1+02931+02321100741ADDAA199000091GF106991031021017501041041MA1999999100221MD1999999-0151REMSYN070AAXX  12184 82198 32797 60508 10293 20232 30022 40074 83244 333 59015;EQDQ01  00002PRCP99
0213821980999992000021300004-01720-045400FM-12+004499999V0203201N003110450019N0020001N1+02541+02381100901ADDAA106004191AY161061AY251061GF105991021021017501061001KA1240M+03001MA1999999100381MD1999999-0041MW1011REMSYN100AAXX  13004 82198 21795 53206 10254 20238 30038 40090 70165 82260 333 10300 29087 55036 59004 60041;
0201821980999992000021312004-01720-045400FM-12+004499999V0203601N002110450019N0100001N1+02461+02341101041ADDAA124049091AY161061AY251061GF108991041071017501021001KA1240N+02231MA1999999100521MD1999999+0001MW1031REMSYN088AAXX  13124 82198 21797 83604 10246 20234 30052 40104 70365 84720 333 20223 58000 60494;
0182821980999992000021318004-01720-045400FM-12+004499999V0200501N003610450019N0100001N1+02781+02381100881ADDAA106002091AY161061AY221061GF108991041051017501011011MA1999999100361MD1999999+0141MW1021REMSYN082AAXX  13184 82198 21797 80507 10278 20238 30036 40088 70262 84511 333 58014 60021;
0213821980999992000021400004-01720-045400FM-12+004499999V0203201N001510450019N0020001N1+02511+02361101091ADDAA106002091AY121061AY221061GF106991031021017501061001KA1240M+02821MA1999999100571MD1999999+0191MW1211REMSYN100AAXX  14004 82198 21795 63203 10251 20236 30057 40109 72122 83260 333 10282 29089 55004 58019 60021;
0201821980999992000021412004-01720-045400FM-12+004499999V0202301N002112200019N0100001N1+02411+02171101261ADDAA124004191AY151061AY221061GF104991021011017501061001KA1240N+02211MA1999999100751MD1999999+0231MW1011REMSYN088AAXX  14124 82198 21797 42304 10241 20217 30075 40126 70152 82160 333 20221 58023 60044;
0167821980999992000021418004-01720-045400FM-12+004499999V0203601N004610450019N0100001N1+02891+02481100871ADDAA199000091GF105991021021017501061001MA1999999100361MD1999999+0001REMSYN070AAXX  14184 82198 32797 53609 10289 20248 30036 40087 82260 333 58000;EQDQ01  00002PRCP99
0198821980999992000021500004-01720-045400FM-12+004499999V0203201N002110450019N0020001N1+02531+02211101071ADDAA199000091GF106991031021017501061001KA1240M+03041MA1999999100561MD1999999-0011REMSYN088AAXX  15004 82198 32795 63204 10253 20221 30056 40107 83260 333 10304 29083 55058 59001;EQDQ01  00002PRCP99
0201821980999992000021512004-01720-045400FM-12+004499999V0203201N001010450019N0100001N1+02141+01901101191ADDAA124022191AY161061AY221061GF108991041051017501041001KA1240N+02081MA1999999100681MD1999999-0071MW1021REMSYN088AAXX  15124 82198 21797 83202 10214 20190 30068 40119 70262 84540 333 20208 59007 60224;
0167821980999992000021518004-01720-045400FM-12+004499999V0203201N003110450019N0100001N1+02611+02231100991ADDAA199000091GF108991041021017501061001MA1999999100481MD1999999+0121REMSYN070AAXX  15184 82198 32797 83206 10261 20223 30048 40099 84260 333 58012;EQDQ01  00002PRCP99
0198821980999992000021600004-01720-045400FM-12+004499999V0203201N001510450019N0020001N1+02421+02131100981ADDAA199000091GF106991031021017501061001KA1240M+02751MA1999999100461MD1999999-0101REMSYN088AAXX  16004 82198 32795 63203 10242 20213 30046 40098 83260 333 10275 29084 55007 59010;EQDQ01  00002PRCP99
0186821980999992000021612004-01720-045400FM-12+004499999V0203201N001510150019N0100001N1+02601+02271101131ADDAA199000091GF105991051021017501001001KA1240N+02151MA1999999100621MD1999999-0061REMSYN076AAXX  16124 82198 32797 53203 10260 20227 30062 40113 85200 333 20215 59006;EQDQ01  00002PRCP99
0167821980999992000021618004-01720-045400FM-12+004499999V0200501N006212200019N0100001N1+03021+02551100741ADDAA199000091GF103991021021017501061001MA1999999100231MD1999999-0251REMSYN070AAXX  16184 82198 32797 30512 10302 20255 30023 40074 82260 333 59025;EQDQ01  00002PRCP99
0186821980999992000021712004-01720-045400FM-12+004499999V0201401N000512200019N0100001N1+02721+02341101091ADDAA199000091GF104991031021017501061001KA1240N+02301MA1999999100581MD1999999-0041REMSYN076AAXX  17124 82198 32797 41401 10272 20234 30058 40109 83260 333 20230 59004;EQDQ01  00002PRCP99
0182821980999992000021718004-01720-045400FM-12+004499999V0203601N001510450019N0100001N1+02641+02251100801ADDAA106003091AY161061AY221061GF108991031021017501061001MA1999999100291MD1999999+0061MW1031REMSYN082AAXX  17184 82198 21797 83603 10264 20225 30029 40080 70362 83260 333 58006 60031;
0198821980999992000021800004-01720-045400FM-12+004499999V0203601N003610150019N0020001N1+02571+02171100891ADDAA199000091GF106991061021017501001001KA1240M+03061MA1999999100381MD1999999+0011REMSYN088AAXX  18004 82198 32795 63607 10257 20217 30038 40089 86200 333 10306 29080 55039 58001;EQDQ01  00002PRCP99
0182821980999992000021818004-01720-045400FM-12+004499999V0201801N002110150019N0100001N1+02411+02211100851ADDAA106011991AY161061AY251061GF108991051051017501041001MA1999999100341MD1999999+0051MW1531REMSYN082AAXX  18184 82198 21797 81804 10241 20221 30034 40085 75365 85540 333 58005 60121;
0213821980999992000021900004-01720-045400FM-12+004499999V0203201N001510150019N0020001N1+02431+02241101031ADDAA106003091AY151061AY221061GF108991051051017501071001KA1240M+02811MA1999999100521MD1999999+0141MW1021REMSYN100AAXX  19004 82198 21795 83203 10243 20224 30052 40103 70252 85570 333 10281 29087 55022 58014 60031;
0201821980999992000021912004-01720-045400FM-12+004499999V0202301N001010450019N0100001N1+02431+02211101171ADDAA124014091AY151061AY221061GF105991021011017501031001KA1240N+02211MA1999999100661MD1999999+0021MW1011REMSYN088AAXX  19124 82198 21797 52302 10243 20221 30066 40117 70152 82130 333 20221 58002 60144;
0167821980999992000021918004-01720-045400FM-12+004499999V0201401N002112200019N0100001N1+03171+02681100731ADDAA199000091GF104991041021017501001001MA1999999100221MD1999999-0121REMSYN070AAXX  19184 82198 32797 41404 10317 20268 30022 40073 84200 333 59012;EQDQ01  00002PRCP99
0213821980999992000022000004-01720-045400FM-12+004499999V0200501N001010450019N0020001N1+02461+02091100961ADDAA106000191AY151061AY221061GF106991041021017501061001KA1240M+03231MA1999999100451MD1999999-0071MW1021REMSYN100AAXX  20004 82198 21795 60502 10246 20209 30045 40096 70252 84260 333 10323 29081 55068 59007 69921;
0173821980999992000022012004-01720-045400FM-12+004499999V0202301N001010450019N0100001N1+02411+02031101231ADDAA124000191GF108991041021017501061001KA1240N+02231MA1999999100721MD1999999+0061REMSYN082AAXX  20124 82198 22797 82302 10241 20203 30072 40123 84260 333 20223 58006 69924;
0182821980999992000022018004-01720-045400FM-12+004499999V0209999C000010450019N0100001N1+02541+02211101031ADDAA106003091AY161061AY221061GF108991031021017501041001MA1999999100521MD1999999-0301MW1021REMSYN082AAXX  20184 82198 21797 80000 10254 20221 30052 40103 70262 83240 333 59030 60031;
0198821980999992000022100004-01720-045400FM-12+004499999V0203201N001012200019N0020001N1+02511+02201101041ADDAA199000091GF104991021011017501061001KA1240M+03011MA1999999100531MD1999999+0081REMSYN088AAXX  21004 82198 32795 43202 10251 20220 30053 40104 82160 333 10301 29082 55011 58008;EQDQ01  00002PRCP99
0167821980999992000022118004-01720-045400FM-12+004499999V0200501N006710150019N0100001N1+02901+02481100831ADDAA199000091GF107991051021017501061001MA1999999100321MD1999999-0201REMSYN070AAXX  21184 82198 32797 70513 10290 20248 30032 40083 85260 333 59020;EQDQ01  00002PRCP99
0198821980999992000022200004-01720-045400FM-12+004499999V0200501N002112200019N0020001N1+02601+02291100961ADDAA199000091GF103991031021017501001001KA1240M+03111MA1999999100451MD1999999-0081REMSYN088AAXX  22004 82198 32795 30504 10260 20229 30045 40096 83200 333 10311 29082 55066 59008;EQDQ01  00002PRCP99
0186821980999992000022212004-01720-045400FM-12+004499999V0200501N004612200019N0100001N1+02781+02481101061ADDAA199000091GF104991031021017501061001KA1240N+02361MA1999999100551MD1999999-0121REMSYN076AAXX  22124 82198 32797 40509 10278 20248 30055 40106 83260 333 20236 59012;EQDQ01  00002PRCP99
0182821980999992000022218004-01720-045400FM-12+004499999V0200501N002610150019N0100001N1+02661+02311100831ADDAA106000591AY151061AY221061GF108991061051017501061001MA1999999100321MD1999999+0001MW1031REMSYN082AAXX  22184 82198 21797 80505 10266 20231 30032 40083 70352 86560 333 58000 69951;
0213821980999992000022300004-01720-045400FM-12+004499999V0202701N001012200019N0020001N1+02381+02131100941ADDAA106038191AY161061AY221061GF104991021051017501041001KA1240M+03051MA1999999100431MD1999999-0021MW1011REMSYN100AAXX  23004 82198 21795 42702 10238 20213 30043 40094 70162 82540 333 10305 29084 55062 59002 60381;
0201821980999992000022312004-01720-045400FM-12+004499999V0203201N001510450019N0100001N1+02421+02171101181ADDAA124070191AY161061AY221061GF106991031021017501061001KA1240N+02181MA1999999100661MD1999999+0111MW1021REMSYN088AAXX  23124 82198 21797 63203 10242 20217 30066 40118 70262 83260 333 20218 58011 60704;
0213821980999992000022400004-01720-045400FM-12+004499999V0203201N002110150019N0020001N1+02301+02031100981ADDAA106006191AY161061AY221061GF107991051051017501021001KA1240M+03191MA1999999100461MD1999999+0031MW1021REMSYN100AAXX  24004 82198 21795 73204 10230 20203 30046 40098 70262 85520 333 10319 29084 55060 58003 60061;
0173821980999992000022412004-01720-045400FM-12+004499999V0201801N001010450019N0100001N1+02441+02151101041ADDAA124007991GF106991021011017501061011KA1240N+02181MA1999999100531MD1999999-0131REMSYN082AAXX  24124 82198 22797 61802 10244 20215 30053 40104 82161 333 20218 59013 60084;
0167821980999992000022418004-01720-045400FM-12+004499999V0200501N004610450019N0100001N1+02791+02361100771ADDAA199000091GF106991031021017501061001MA1999999100261MD1999999-0031REMSYN070AAXX  24184 82198 32797 60509 10279 20236 30026 40077 83260 333 59003;EQDQ01  00002PRCP99
0198821980999992000022500004-01720-045400FM-12+004499999V0200501N002112200019N0020001N1+02561+02271100801ADDAA199000091GF103991031001017501061001KA1240M+03071MA1999999100291MD1999999-0171REMSYN088AAXX  25004 82198 32795 30504 10256 20227 30029 40080 83060 333 10307 29082 55057 59017;EQDQ01  00002PRCP99
0186821980999992000022512004-01720-045400FM-12+004499999V0200501N003612200019N0100001N1+02781+02381100941ADDAA199000091GF103991021021017501001011KA1240N+02351MA1999999100431MD1999999-0101REMSYN076AAXX  25124 82198 32797 30507 10278 20238 30043 40094 82201 333 20235 59010;EQDQ01  00002PRCP99
0167821980999992000022518004-01720-045400FM-12+004499999V0200501N005110150019N0100001N1+02871+02411100631ADDAA199000091GF106991061021017501001001MA1999999100121MD1999999-0141REMSYN070AAXX  25184 82198 32797 60510 10287 20241 30012 40063 86200 333 59014;EQDQ01  00002PRCP99
0186821980999992000022612004-01720-045400FM-12+004499999V0200501N003610150019N0100001N1+02871+02461100971ADDAA199000091GF106991051021017501061011KA1240N+02331MA1999999100461MD1999999+0031REMSYN076AAXX  26124 82198 32797 60507 10287 20246 30046 40097 85261 333 20233 58003;EQDQ01  00002PRCP99
0182821980999992000022618004-01720-045400FM-12+004499999V0203201N002610150019N0100001N1+02481+02171100781ADDAA106020191AY161061AY221061GF108991051051017501021001MA1999999100261MD1999999+0141MW1031REMSYN082AAXX  26184 82198 21797 83205 10248 20217 30026 40078 70362 85520 333 58014 60201;
0213821980999992000022700004-01720-045400FM-12+004499999V0200501N001510150019N0020001N1+02381+02071100981ADDAA106015091AY161061AY221061GF108991051051017501021001KA1240M+03041MA1999999100461MD1999999+0171MW1021REMSYN100AAXX  27004 82198 21795 80503 10238 20207 30046 40098 70262 85520 333 10304 29081 55042 58017 60151;
0201821980999992000022712004-01720-045400FM-12+004499999V0200501N002610450019N0100001N1+02371+02051101071ADDAA124058991AY161061AY221061GF108991031051017501021001KA1240N+02271MA1999999100551MD1999999+0111MW1541REMSYN088AAXX  27124 82198 21797 80505 10237 20205 30055 40107 75462 83520 333 20227 58011 60594;
0182821980999992000022718004-01720-045400FM-12+004499999V0200901N001010450019N0100001N1+02501+02131100771ADDAA106005191AY161061AY221061GF107991021011017501041001MA1999999100261MD1999999+0001MW1021REMSYN082AAXX  27184 82198 21797 70902 10250 20213 30026 40077 70262 82140 333 58000 60051;
0213821980999992000022800004-01720-045400FM-12+004499999V0200901N001510150019N0020001N1+02491+02171100931ADDAA106000391AY151061AY221061GF105991051001017501061001KA1240M+02851MA1999999100421MD1999999-0041MW1011REMSYN100AAXX  28004 82198 21795 50903 10249 20217 30042 40093 70152 85060 333 10285 29082 55026 59004 69931;
0201821980999992000022812004-01720-045400FM-12+004499999V0203201N006711050019N0100001N1+02611+02441101101ADDAA124007991AY161061AY221061GF106991021021017501041061KA1240N+02271MA1999999100521MD1999999-0031MW1021REMSYN088AAXX  28124 82198 21797 63213 10261 20244 30052 40110 70262 82246 333 20227 59003 60084;
0182821980999992000022818004-01720-045400FM-12+004499999V0203201N001010450019N0100001N1+02621+02521100831ADDAA106002091AY161061AY221061GF107991031051017501011041MA1999999100311MD1999999+0051MW1031REMSYN082AAXX  28184 82198 21797 73202 10262 20252 30031 40083 70362 83514 333 58005 60021;
0213821980999992000022900004-01720-045400FM-12+004499999V0200501N003112200019N0020001N1+02521+02381100961ADDAA106000191AY121061AY261061GF103991031021017501001001KA1240M+02931MA1999999100441MD1999999+0021MW1131REMSYN100AAXX  29004 82198 21795 30506 10252 20238 30044 40096 71326 83200 333 10293 29091 55051 58002 69911;
0173821980999992000022912004-01720-045400FM-12+004499999V0200501N000510450019N0100001N1+02711+02521101091ADDAA124002091GF106991041021017501031011KA1240N+02331MA1999999100571MD1999999+0051REMSYN082AAXX  29124 82198 22797 60501 10271 20252 30057 40109 84231 333 20233 58005 60024;
0226821980999992000030100004-01720-045400FM-12+004499999V0200501N003110150019N0020001N1+02601+02391101041ADDAA199000091AY121061AY211061GF105991051021017501001001KA1240M+03031MA1999999100521MD1999999+0081MW1131REMSYN094AAXX  01004 82198 31795 50506 10260 20239 30052 40104 71321 85200 333 10303 29090 55043 58008;EQDQ01  00002PRCP99
0173821980999992000030112004-01720-045400FM-12+004499999V0201801N003110450019N0100001N1+02431+02331101231ADDAA124023991GF108991041071017501061011KA1240N+02321MA1999999100711MD1999999+0141REMSYN082AAXX  01124 82198 22797 81806 10243 20233 30071 40123 84761 333 20232 58014 60244;
0167821980999992000030118004-01720-045400FM-12+004499999V0200501N005111050019N0100001N1+03001+02421100901ADDAA199000091GF105991021021017501031061MA1999999100381MD1999999+0001REMSYN070AAXX  01184 82198 32797 50510 10300 20242 30038 40090 82236 333 58000;EQDQ01  00002PRCP99
0173821980999992000030212004-01720-045400FM-12+004499999V0200501N003110450019N0100001N1+02821+02241101091ADDAA124000591GF108991031051017501061011KA1240N+02401MA1999999100571MD1999999-0141REMSYN082AAXX  02124 82198 22797 80506 10282 20224 30057 40109 83561 333 20240 59014 69964;
0182821980999992000030218004-01720-045400FM-12+004499999V0200901N004110450019N0100001N1+02451+02311100831ADDAA106034091AY161061AY221061GF107991041051017501011001MA1999999100311MD1999999-0071MW1021REMSYN082AAXX  02184 82198 21797 70908 10245 20231 30031 40083 70262 84510 333 59007 60341;
0213821980999992000030300004-01720-045400FM-12+004499999V0200501N000510450019N0020001N1+02471+02301100991ADDAA106000591AY121061AY211061GF106991041071017501061001KA1240M+02891MA1999999100471MD1999999-0071MW1601REMSYN100AAXX  03004 82198 21795 60501 10247 20230 30047 40099 76021 84760 333 10289 29088 55013 59007 69941;
0182821980999992000030318004-01720-045400FM-12+004499999V0203601N004111050019N0100001N1+02771+02361100751ADDAA106000891AY161061AY221061GF106991021071017501041061MA1999999100231MD1999999-0081MW1011REMSYN082AAXX  03184 82198 21797 63608 10277 20236 30023 40075 70162 82746 333 59008 69981;
0198821980999992000030400004-01720-045400FM-12+004499999V0203601N003110150019N0020001N1+02671+02251100901ADDAA199000091GF105991051021017501001001KA1240M+02901MA1999999100381MD1999999-0091REMSYN088AAXX  04004 82198 32795 53606 10267 20225 30038 40090 85200 333 10290 29084 55018 59009;EQDQ01  00002PRCP99
0201821980999992000030412004-01720-045400FM-12+004499999V0200501N000511050019N0100001N1+02391+02331101051ADDAA124005191AY161061AY221061GF105991021021017501041061KA1240N+02261MA1999999100531MD1999999+0001MW1021REMSYN088AAXX  04124 82198 21797 50501 10239 20233 30053 40105 70262 82246 333 20226 58000 60054;
0182821980999992000030418004-01720-045400FM-12+004499999V0200901N002610450019N0100001N1+02871+02441100821ADDAA106019191AY161061AY221061GF107991031021017501011041MA1999999100301MD1999999+0071MW1031REMSYN082AAXX  04184 82198 21797 70905 10287 20244 30030 40082 70362 83214 333 58007 60191;
0198821980999992000030500004-01720-045400FM-12+004499999V0200501N002612200019N0020001N1+02581+02441100941ADDAA199000091GF103991031021017501001001KA1240M+03001MA1999999100421MD1999999+0041REMSYN088AAXX  05004 82198 32795 30505 10258 20244 30042 40094 83200 333 10300 29092 55027 58004;EQDQ01  00002PRCP99
0167821980999992000030518004-01720-045400FM-12+004499999V0200901N003110450019N0100001N1+03081+02421100681ADDAA199000091GF106991041021017501011001MA1999999100161MD1999999-0141REMSYN070AAXX  05184 82198 32797 60906 10308 20242 30016 40068 84210 333 59014;EQDQ01  00002PRCP99
0201821980999992000030612004-01720-045400FM-12+004499999V0202701N001510450019N0100001N1+02311+02091101171ADDAA124005191AY161061AY221061GF108991041021017501041001KA1240N+02261MA1999999100661MD1999999+0211MW1031REMSYN088AAXX  06124 82198 21797 82703 10231 20209 30066 40117 70362 84240 333 20226 58021 60054;
0182821980999992000030618004-01720-045400FM-12+004499999V0200501N001510450019N0100001N1+02521+02251100761ADDAA106000391AY151061AY221061GF107991031021017501061001MA1999999100251MD1999999+0091MW1021REMSYN082AAXX  06184 82198 21797 70503 10252 20225 30025 40076 70252 83260 333 58009 69931;
0198821980999992000030700004-01720-045400FM-12+004499999V0200901N002110450019N0020001N1+02531+02311100991ADDAA199000091GF106991031021017501061001KA1240M+02871MA1999999100481MD1999999+0041REMSYN088AAXX  07004 82198 32795 60904 10253 20231 30048 40099 83260 333 10287 29084 55009 58004;EQDQ01  00002PRCP99
0173821980999992000030712004-01720-045400FM-12+004499999V0200901N001510450019N0100001N1+02361+02051101051ADDAA124000391GF108991041081017501041001KA1240N+02191MA1999999100541MD1999999-0121REMSYN082AAXX  07124 82198 22797 80903 10236 20205 30054 40105 84840 333 20219 59012 69934;
0167821980999992000030718004-01720-045400FM-12+004499999V0200501N002610150019N0100001N1+02901+02601100751ADDAA199000091GF108991051021017501061001MA1999999100241MD1999999-0011REMSYN070AAXX  07184 82198 32797 80505 10290 20260 30024 40075 85260 333 59001;EQDQ01  00002PRCP99
0213821980999992000030800004-01720-045400FM-12+004499999V0200901N001010450019N0020001N1+02541+02351100881ADDAA106001091AY161061AY221061GF108991041051017501041001KA1240M+03031MA1999999100371MD1999999-0111MW1021REMSYN100AAXX  08004 82198 21795 80902 10254 20235 30037 40088 70262 84540 333 10303 29088 55005 59011 60011;
0173821980999992000030812004-01720-045400FM-12+004499999V0200501N001510450019N0100001N1+02741+02481100951ADDAA124001091GF106991041021017501061001KA1240N+02381MA1999999100441MD1999999-0101REMSYN082AAXX  08124 82198 22797 60503 10274 20248 30044 40095 84260 333 20238 59010 60014;
0182821980999992000030818004-01720-045400FM-12+004499999V0200501N005110150019N0100001N1+02921+02601100651ADDAA106002091AY161061AY221061GF107991051021017501061001MA1999999100141MD1999999-0101MW1031REMSYN082AAXX  08184 82198 21797 70510 10292 20260 30014 40065 70362 85260 333 59010 60021;
0213821980999992000030900004-01720-045400FM-12+004499999V0202701N001510150019N0020001N1+02461+02251100891ADDAA106007991AY161061AY221061GF108991051051017501041001KA1240M+03071MA1999999100381MD1999999+0011MW1021REMSYN100AAXX  09004 82198 21795 82703 10246 20225 30038 40089 70262 85540 333 10307 29086 55066 58001 60081;
0201821980999992000030912004-01720-045400FM-12+004499999V0200901N001510450019N0100001N1+02621+02441100991ADDAA124030091AY161061AY221061GF108991031021017501061001KA1240N+02311MA1999999100481MD1999999+0041MW1021REMSYN088AAXX  09124 82198 21797 80903 10262 20244 30048 40099 70262 83260 333 20231 58004 60304;
0182821980999992000030918004-01720-045400FM-12+004499999V0200501N004110450019N0100001N1+02891+02621100691ADDAA106000891AY151061AY221061GF105991021021017501061001MA1999999100181MD1999999+0041MW1011REMSYN082AAXX  09184 82198 21797 50508 10289 20262 30018 40069 70152 82260 333 58004 69981;
0198821980999992000031000004-01720-045400FM-12+004499999V0201801N001510450019N0020001N1+02501+02311100951ADDAA199000091GF105991021021017501061001KA1240M+02991MA1999999100441MD1999999+0061REMSYN088AAXX  10004 82198 32795 51803 10250 20231 30044 40095 82260 333 10299 29088 55021 58006;EQDQ01  00002PRCP99
0173821980999992000031012004-01720-045400FM-12+004499999V0202701N001510450019N0100001N1+02371+02241101141ADDAA124000891GF108991031051017501021001KA1240N+02251MA1999999100621MD1999999+0141REMSYN082AAXX  10124 82198 22797 82703 10237 20224 30062 40114 83520 333 20225 58014 69984;
0182821980999992000031018004-01720-045400FM-12+004499999V0200501N001510450019N0100001N1+02781+02421100811ADDAA106010991AY161061AY221061GF105991021021017501061001MA1999999100301MD1999999+0121MW1011REMSYN082AAXX  10184 82198 21797 50503 10278 20242 30030 40081 70162 82260 333 58012 60111;
0198821980999992000031100004-01720-045400FM-12+004499999V0200501N002110450019N0020001N1+02581+02351100991ADDAA199000091GF106991031021017501061001KA1240M+02931MA1999999100481MD1999999+0041REMSYN088AAXX  11004 82198 32795 60504 10258 20235 30048 40099 83260 333 10293 29087 55033 58004;EQDQ01  00002PRCP99
0201821980999992000031112004-01720-045400FM-12+004499999V0200501N001510450019N0100001N1+02461+02211101031ADDAA124010991AY151061AY221061GF107991031021017501041001KA1240N+02281MA1999999100521MD1999999-0101MW1031REMSYN088AAXX  11124 82198 21797 70503 10246 20221 30052 40103 70352 83240 333 20228 59010 60114;
0182821980999992000031118004-01720-045400FM-12+004499999V0200501N001510450019N0100001N1+02901+02581100691ADDAA124000591AY151061AY221061GF108991041051017501021001MA1999999100181MD1999999-0121MW1021REMSYN082AAXX  11184 82198 21797 80503 10290 20258 30018 40069 70252 84520 333 59012 69954;
0208821980999992000031200004-01720-045400FM-12+004499999V0200501N002112200019N0020001N1+02581+02351100731ADDAA199000091GA1001+999999999GF100991001001999999001001KA1240M+03001MA1999999100221MD1999999-0261REMSYN082AAXX  12004 82198 32995 00504 10258 20235 30022 40073 333 10300 29086 55023 59026;EQDQ01  00002PRCP99
0173821980999992000031212004-01720-045400FM-12+004499999V0200501N002110150019N0100001N1+02681+02431100961ADDAA124002091GF107991051021017501061001KA1240N+02281MA1999999100451MD1999999-0071REMSYN082AAXX  12124 82198 22797 70504 10268 20243 30045 40096 85260 333 20228 59007 60024;
0182821980999992000031218004-01720-045400FM-12+004499999V0200501N003610450019N0100001N1+02891+02521100661ADDAA106002091AY161061AY221061GF107991031021017501061001MA1999999100951MD1999999-0031MW1021REMSYN082AAXX  12184 82198 21797 70507 10289 20252 30095 40066 70262 83260 333 59003 60021;
0198821980999992000031300004-01720-045400FM-12+004499999V0200501N001510450019N0020001N1+02591+02291100831ADDAA199000091GF105991031021017501061001KA1240M+03041MA1999999100321MD1999999+0101REMSYN088AAXX  13004 82198 32795 50503 10259 20229 30032 40083 83260 333 10304 29084 55033 58010;EQDQ01  00002PRCP99
0173821980999992000031312004-01720-045400FM-12+004499999V0209999C000010450019N0100001N1+02721+02501100921ADDAA124003091GF106991041021017501061001KA1240N+02351MA1999999100401MD1999999-0051REMSYN082AAXX  13124 82198 22797 60000 10272 20250 30040 40092 84260 333 20235 59005 60034;
0182821980999992000031318004-01720-045400FM-12+004499999V0203201N001510450019N0100001N1+02571+02341100721ADDAA106000591AY161061AY221061GF106991041021017501061061MA1999999100201MD1999999+0051MW1021REMSYN082AAXX  13184 82198 21797 63203 10257 20234 30020 40072 70262 84266 333 58005 69951;
0213821980999992000031400004-01720-045400FM-12+004499999V0203201N002111050019N0020001N1+02461+02361100841ADDAA106000591AY161061AY221061GF105991021021017501041011KA1240M+03011MA1999999100321MD1999999+0001MW1011REMSYN100AAXX  14004 82198 21795 53204 10246 20236 30032 40084 70162 82241 333 10301 29091 55028 58000 69961;
0201821980999992000031412004-01720-045400FM-12+004499999V0201401N001012200019N0100001N1+02561+02471101001ADDAA124004191AY161061AY211061GF103991031021017501001001KA1240N+02261MA1999999100481MD1999999+0081MW1011REMSYN088AAXX  14124 82198 21797 31402 10256 20247 30048 40100 70161 83200 333 20226 58008 60044;
0182821980999992000031418004-01720-045400FM-12+004499999V0200501N002110450019N0100001N1+02581+02441100741ADDAA106007191AY161061AY221061GF107991031071017501041011MA1999999100201MD1999999+0001MW1031REMSYN082AAXX  14184 82198 21797 70504 10258 20244 30020 40074 70362 83741 333 58000 60071;
0198821980999992000031500004-01720-045400FM-12+004499999V0200501N003612200019N0020001N1+02601+02421100901ADDAA199000091GF106991031021017501001011KA1240M+03051MA1999999100381MD1999999+0061REMSYN088AAXX  15004 82198 32795 60507 10260 20242 30038 40090 83201 333 10305 29091 55042 58006;EQDQ01  00002PRCP99
0173821980999992000031512004-01720-045400FM-12+004499999V0200901N002110450019N0100001N1+02741+02641100971ADDAA124007191GF106991041021017501061001KA1240N+02371MA1999999100461MD1999999-0021REMSYN082AAXX  15124 82198 22797 60904 10274 20264 30046 40097 84260 333 20237 59002 60074;
0167821980999992000031518004-01720-045400FM-12+004499999V0200501N003610450019N0100001N1+03041+02431100681ADDAA199000091GF106991031021017501041041MA1999999100161MD1999999-0041REMSYN070AAXX  15184 82198 32797 60507 10304 20243 30016 40068 83244 333 59004;EQDQ01  00002PRCP99
0198821980999992000031600004-01720-045400FM-12+004499999V0200501N003110150019N0100001N1+02711+02451100871ADDAA199000091GF105991051001017501011001KA1240M+03131MA1999999100351MD1999999-0031REMSYN088AAXX  16004 82198 32797 50506 10271 20245 30035 40087 85010 333 10313 29082 55070 59003;EQDQ01  00002PRCP99
0201821980999992000031612004-01720-045400FM-12+004499999V0200901N001010450019N0100001N1+02691+02501101051ADDAA124001091AY161061AY221061GF106991031021017501011011KA1240N+02441MA1999999100531MD1999999+0071MW1021REMSYN088AAXX  16124 82198 22797 60902 10269 20250 30053 40105 70262 83211 333 20244 58007 60014;
0182821980999992000031618004-01720-045400FM-12+004499999V0203601N005110450019N0100001N1+02791+02521100671ADDAA106000891AY161061AY251061GF108991041071017501011041MA1999999100121MD1999999-0041MW1031REMSYN082AAXX  16184 82198 21797 83610 10279 20252 30012 40067 70365 84714 333 59004 69981;
0198821980999992000031700004-01720-045400FM-12+004499999V0200501N004610150019N0020001N1+02691+02391100791ADDAA199000091GF107991051051017501011001KA1240M+03041MA1999999100271MD1999999-0081REMSYN088AAXX  17004 82198 32795 70509 10269 20239 30027 40079 85510 333 10304 29086 55027 59008;EQDQ01  00002PRCP99
0173821980999992000031712004-01720-045400FM-12+004499999V0200501N003110450019N0100001N1+02801+02621100871ADDAA124000891GF106991031021017501011011KA1240N+02391MA1999999100351MD1999999-0081REMSYN082AAXX  17124 82198 22797 60506 10280 20262 30035 40087 83211 333 20239 59008 69984;
0198821980999992000031800004-01720-045400FM-12+004499999V0203201N001510450019N0020001N1+02581+02371100781ADDAA199000091GF105991021021017501011001KA1240M+02941MA1999999100261MD1999999-0011REMSYN088AAXX  18004 82198 32795 53203 10258 20237 30026 40078 82210 333 10294 29087 55000 59001;EQDQ01  00002PRCP99
0173821980999992000031812004-01720-045400FM-12+004499999V0203201N000510450019N0100001N1+02631+02441100881ADDAA124004191GF106991031021017501061001KA1240N+02221MA1999999100361MD1999999+0011REMSYN082AAXX  18124 82198 22797 63201 10263 20244 30036 40088 83260 333 20222 58001 60044;
0182821980999992000031818004-01720-045400FM-12+004499999V0200501N001010150019N0100001N1+02421+02251100631ADDAA106006191AY161061AY221061GF108991051051017501041001MA1999999100121MD1999999+0011MW1021REMSYN082AAXX  18184 82198 21797 80502 10242 20225 30012 40063 70262 85540 333 58001 60061;
0213821980999992000031900004-01720-045400FM-12+004499999V0209999C000010150019N0020001N1+02401+02331100841ADDAA106002091AY161061AY221061GF108991051071017501061001KA1240M+03091MA1999999100321MD1999999+0061MW1021REMSYN100AAXX  19004 82198 21795 80000 10240 20233 30032 40084 70262 85760 333 10309 29094 55030 58006 60021;
0173821980999992000031912004-01720-045400FM-12+004499999V0202301N001510150019N0100001N1+02441+02391100891ADDAA124007991GF108991061051017501011001KA1240N+02241MA1999999100371MD1999999+0011REMSYN082AAXX  19124 82198 22797 82303 10244 20239 30037 40089 86510 333 20224 58001 60084;
0182821980999992000031918004-01720-045400FM-12+004499999V0203601N003110450019N0100001N1+02691+02351100571ADDAA106008991AY161061AY221061GF107991031021017501011041MA1999999100051MD1999999-0071MW1021REMSYN082AAXX  19184 82198 21797 73606 10269 20235 30005 40057 70262 83214 333 59007 60091;
0201821980999992000032012004-01720-045400FM-12+004499999V0200501N002610450019N0100001N1+02701+02521100931ADDAA124013091AY161061AY221061GF106991041021017501041001KA1240N+02201MA1999999100421MD1999999+0051MW1031REMSYN088AAXX  20124 82198 21797 60505 10270 20252 30042 40093 70362 84240 333 20220 58005 60134;
0182821980999992000032018004-01720-045400FM-12+004499999V0203201N000510150019N0100001N1+02741+02541100641ADDAA106004191AY161061AY221061GF108991051021017501041001MA1999999100131MD1999999+0081MW1031REMSYN082AAXX  20184 82198 21797 83201 10274 20254 30013 40064 70362 85240 333 58008 60041;
0213821980999992000032100004-01720-045400FM-12+004499999V0200501N001510450019N0020001N1+02521+02381100781ADDAA106002091AY161061AY221061GF105991021021017501061001KA1240M+02971MA1999999100271MD1999999+0011MW1011REMSYN100AAXX  21004 82198 21795 50503 10252 20238 30027 40078 70162 82260 333 10297 29091 55022 58001 60021;
0173821980999992000032112004-01720-045400FM-12+004499999V0201401N001512200019N0100001N1+02611+02371100911ADDAA124007191GF105991031021017501001011KA1240N+02321MA1999999100401MD1999999-0031REMSYN082AAXX  21124 82198 22797 51403 10261 20237 30040 40091 83201 333 20232 59003 60074;
0182821980999992000032118004-01720-045400FM-12+004499999V0200501N005710450019N0100001N1+02771+02501100591ADDAA106002091AY161061AY221061GF105991031021017501041001MA1999999100081MD1999999-0051MW1021REMSYN082AAXX  21184 82198 21797 50511 10277 20250 30008 40059 70262 83240 333 59005 60021;
0198821980999992000032200004-01720-045400FM-12+004499999V0200501N002110450019N0020001N1+02591+02351100751ADDAA199000091GF105991031021017501061001KA1240M+03131MA1999999100241MD1999999-0031REMSYN088AAXX  22004 82198 32795 50504 10259 20235 30024 40075 83260 333 10313 29086 55061 59003;EQDQ01  00002PRCP99
0173821980999992000032212004-01720-045400FM-12+004499999V0201401N001512200019N0100001N1+02631+02411100831ADDAA124002091GF102991011011017501061001KA1240N+02301MA1999999100321MD1999999-0081REMSYN082AAXX  22124 82198 21797 21403 10263 20241 30032 40083 81160 333 20230 59008 60024;
0182821980999992000032218004-01720-045400FM-12+004499999V0200501N002111050019N0100001N1+02941+02581100541ADDAA106000591AY151061AY201061GF105991021021017501061021MA1999999100031MD1999999-0051MW1031REMSYN082AAXX  22184 82198 21797 50504 10294 20258 30003 40054 70350 82262 333 59005 69961;
0173821980999992000032312004-01720-045400FM-12+004499999V0200501N003110150019N0100001N1+02841+02521100831ADDAA124000591GF107991051021017501061001KA1240N+02461MA1999999100321MD1999999+0001REMSYN082AAXX  23124 82198 22797 70506 10284 20252 30032 40083 85260 333 20246 58000 69964;
0182821980999992000032318004-01720-045400FM-12+004499999V0200501N006210150019N0100001N1+02931+02621100561ADDAA106014091AY161061AY221061GF108991061031017501061001MA1999999100051MD1999999+0021MW1021REMSYN082AAXX  23184 82198 21797 80512 10293 20262 30005 40056 70262 86360 333 58002 60141;
0198821980999992000032400004-01720-045400FM-12+004499999V0200901N001512200019N0020001N1+02601+02371100761ADDAA199000091GF104991021021017501061001KA1240M+03031MA1999999100251MD1999999+0081REMSYN088AAXX  24004 82198 32795 40903 10260 20237 30025 40076 82260 333 10303 29085 55045 58008;EQDQ01  00002PRCP99
0201821980999992000032412004-01720-045400FM-12+004499999V0201401N002612200019N0100001N1+02641+02421100931ADDAA124018091AY161061AY211061GF103991021021017501061001KA1240N+02321MA1999999100421MD1999999+0101MW1021REMSYN088AAXX  24124 82198 21797 31405 10264 20242 30042 40093 70261 82260 333 20232 58010 60184;
0182821980999992000032418004-01720-045400FM-12+004499999V0203201N001010150019N0100001N1+02901+02641100631ADDAA106001091AY161061AY221061GF106991061021017501001001MA1999999100921MD1999999+0051MW1031REMSYN082AAXX  24184 82198 21797 63202 10290 20264 30092 40063 70362 86200 333 58005 60011;
0208821980999992000032500004-01720-045400FM-12+004499999V0200901N002612200019N0020001N1+02631+02391100751ADDAA199000091GA1001+999999999GF100991001001999999001001KA1240M+03051MA1999999100241MD1999999-0011REMSYN082AAXX  25004 82198 32995 00905 10263 20239 30024 40075 333 10305 29087 55053 59001;EQDQ01  00002PRCP99
0173821980999992000032512004-01720-045400FM-12+004499999V0200501N004110450019N0100001N1+02711+02501100981ADDAA124001091GF108991041021017501041001KA1240N+02391MA1999999100471MD1999999+0051REMSYN082AAXX  25124 82198 22797 80508 10271 20250 30047 40098 84240 333 20239 58005 60014;
0182821980999992000032518004-01720-045400FM-12+004499999V0200501N005710150019N0100001N1+02811+02741100611ADDAA106000391AY151061AY221061GF107991051021017501061001MA1999999100101MD1999999-0021MW1021REMSYN082AAXX  25184 82198 21797 70511 10281 20274 30010 40061 70252 85260 333 59002 69931;
0198821980999992000032600004-01720-045400FM-12+004499999V0200901N002110450019N0020001N1+02621+02421100811ADDAA199000091GF105991031051017501041001KA1240M+03031MA1999999100301MD1999999+0061REMSYN088AAXX  26004 82198 32795 50904 10262 20242 30030 40081 83540 333 10303 29088 55043 58006;EQDQ01  00002PRCP99
0201821980999992000032612004-01720-045400FM-12+004499999V0203201N001010450019N0100001N1+02571+02371100891ADDAA124008991AY161061AY221061GF108991041021017501041001KA1240N+02351MA1999999100381MD1999999-0091MW1031REMSYN088AAXX  26124 82198 21797 83202 10257 20237 30038 40089 70362 84240 333 20235 59009 60094;
0182821980999992000032618004-01720-045400FM-12+004499999V0200501N003610450019N0100001N1+02681+02431100591ADDAA106001091AY161061AY221061GF108991041021017501041001MA1999999100081MD1999999-0021MW1021REMSYN082AAXX  26184 82198 21797 80507 10268 20243 30008 40059 70262 84240 333 59002 60011;
0213821980999992000032700004-01720-045400FM-12+004499999V0203601N001010450019N0020001N1+02461+02271100841ADDAA106008991AY161061AY221061GF108991041051017501021001KA1240M+02971MA1999999100321MD1999999+0021MW1021REMSYN100AAXX  27004 82198 21795 83602 10246 20227 30032 40084 70262 84520 333 10297 29088 55020 58002 60091;
0201821980999992000032712004-01720-045400FM-12+004499999V0203601N001010450019N0100001N1+02511+02341100901ADDAA124019191AY161061AY221061GF107991031051017501031011KA1240N+02311MA1999999100381MD1999999+0001MW1021REMSYN088AAXX  27124 82198 21797 73602 10251 20234 30038 40090 70262 83531 333 20231 58000 60194;
0182821980999992000032718004-01720-045400FM-12+004499999V0201401N002110450019N0100001N1+02651+02421100681ADDAA106002091AY161061AY221061GF108991041071017501061011MA1999999100161MD1999999+0081MW1021REMSYN082AAXX  27184 82198 21797 81404 10265 20242 30016 40068 70262 84761 333 58008 60021;
0213821980999992000032800004-01720-045400FM-12+004499999V0203201N002110450019N0020001N1+02381+02311100991ADDAA106002091AY161061AY221061GF108991041071017501061001KA1240M+02971MA1999999100471MD1999999+0151MW1021REMSYN100AAXX  28004 82198 21795 83204 10238 20231 30047 40099 70262 84760 333 10297 29091 55021 58015 60021;
0201821980999992000032812004-01720-045400FM-12+004499999V0203201N001010450019N0100001N1+02431+02231101121ADDAA124004191AY161061AY221061GF108991031051017501011001KA1240N+02281MA1999999100601MD1999999+0221MW1031REMSYN088AAXX  28124 82198 21797 83202 10243 20223 30060 40112 70362 83510 333 20228 58022 60044;
0182821980999992000032818004-01720-045400FM-12+004499999V0202301N002110450019N0100001N1+02781+02481100711ADDAA106000191AY151061AY221061GF107991041021017501041041MA1999999100191MD1999999+0031MW1021REMSYN082AAXX  28184 82198 21797 72304 10278 20248 30019 40071 70252 84244 333 58003 69911;
0226821980999992000032900004-01720-045400FM-12+004499999V0203201N002110450019N0020001N1+02571+02421100791ADDAA199000091AY121061AY211061GF105991021021017501061001KA1240M+03031MA1999999100271MD1999999-0201MW1131REMSYN094AAXX  29004 82198 31795 53204 10257 20242 30027 40079 71321 82260 333 10303 29088 55010 59020;EQDQ01  00002PRCP99
0201821980999992000032912004-01720-045400FM-12+004499999V0201801N003110450019N0100001N1+02331+02211101021ADDAA124000591AY151061AY221061GF108991041071017501061001KA1240N+02271MA1999999100531MD1999999-0071MW1021REMSYN088AAXX  29124 82198 21797 81806 10233 20221 30053 40102 70252 84760 333 20227 59007 69954;
0182821980999992000032918004-01720-045400FM-12+004499999V0202301N001010450019N0100001N1+02551+02461100921ADDAA106000391AY151061AY221061GF108991041071017501021001MA1999999100401MD1999999+0211MW1531REMSYN082AAXX  29184 82198 21797 82302 10255 20246 30040 40092 75352 84720 333 58021 69931;
0179821980999992000033000004-01720-045400FM-12+004499999V0203201N001512200019N0020001N1+02431+02331101001ADDAA199000021GF103991031021017501001001KA1240M+02601MA1999999100481MD1999999+0211REMSYN088AAXX  30004 82198 32795 33203 10243 20233 30048 40100 83200 333 10260 29093 55000 58021;
0201821980999992000033012004-01720-045400FM-12+004499999V0202701N001510450019N0100001N1+02211+02131100941ADDAA124003091AY161061AY251061GF108991041051017501011999KA1240N+02171MA1999999100421MD1999999-0111MW1031REMSYN088AAXX  30124 82198 21797 82703 10221 20213 30042 40094 70365 8451/ 333 20217 59011 60034;
0167821980999992000033018004-01720-045400FM-12+004499999V0201401N001010450019N0100001N1+02611+02351100661ADDAA199000091GF108991041051017501011041MA1999999100141MD1999999-0261REMSYN070AAXX  30184 82198 32797 81402 10261 20235 30014 40066 84514 333 59026;EQDQ01  00002PRCP99
0198821980999992000033100004-01720-045400FM-12+004499999V0202301N001010450019N0020001N1+02411+02301100851ADDAA199000091GF105991021021017501061001KA1240M+02671MA1999999100331MD1999999-0151REMSYN088AAXX  31004 82198 32795 52302 10241 20230 30033 40085 82260 333 10267 29092 55002 59015;EQDQ01  00002PRCP99
0201821980999992000033112004-01720-045400FM-12+004499999V0202301N002110450019N0100001N1+02291+02181101121ADDAA106000191AY151061AY221061GF108991041051017501061011KA1240N+02231MA1999999100601MD1999999+0181MW1021REMSYN088AAXX  31124 82198 21797 82304 10229 20218 30060 40112 70252 84561 333 20223 58018 69921;
0182821980999992000033118004-01720-045400FM-12+004499999V0209999C000010450019N0100001N1+02631+02311100721ADDAA106000591AY151061AY221061GF108991041051017501011041MA1999999100201MD1999999+0061MW1021REMSYN082AAXX  31184 82198 21797 80000 10263 20231 30020 40072 70252 84514 333 58006 69941;
0198821980999992000040100004-01720-045400FM-12+004499999V0200501N002610150019N0020001N1+02511+02341100901ADDAA199000091GF105991051021017501001001KA1240M+02711MA1999999100381MD1999999+0051REMSYN088AAXX  01004 82198 32795 50505 10251 20234 30038 40090 85200 333 10271 29091 55003 58005;EQDQ01  00002PRCP99
0201821980999992000040112004-01720-045400FM-12+004499999V0201401N001510450019N0100001N1+02451+02331101061ADDAA124017091AY161061AY221061GF107991041071017501011001KA1240N+02301MA1999999100541MD1999999-0061MW1021REMSYN088AAXX  01124 82198 21797 71403 10245 20233 30054 40106 70262 84710 333 20230 59006 60174;
0182821980999992000040118004-01720-045400FM-12+004499999V0203601N001510150019N0100001N1+02451+02351101211ADDAA106032091AY161061AY221061GF108991051071017501021001MA1999999100691MD1999999+0221MW1021REMSYN082AAXX  01184 82198 21797 83603 10245 20235 30069 40121 70262 85720 333 58022 60321;
0213821980999992000040200004-01720-045400FM-12+004499999V0201401N000510450019N0020001N1+02361+02311101011ADDAA106003091AY161061AY221061GF106991041021017501061001KA1240M+02661MA1999999100491MD1999999+0111MW1011REMSYN100AAXX  02004 82198 21795 61401 10236 20231 30049 40101 70162 84260 333 10266 29096 55000 58011 60031;
0201821980999992000040212004-01720-045400FM-12+004499999V0201801N001510150019N0100001N1+02371+02351101161ADDAA124037191AY161061AY221061GF108991051071017501031041KA1240N+02221MA1999999100641MD1999999+0101MW1031REMSYN088AAXX  02124 82198 21797 81803 10237 20235 30064 40116 70362 85734 333 20222 58010 60374;
0167821980999992000040218004-01720-045400FM-12+004499999V0200901N002110450019N0100001N1+02811+02401100911ADDAA199000091GF108991041021017501011041MA1999999100391MD1999999-0031REMSYN070AAXX  02184 82198 32797 80904 10281 20240 30039 40091 84214 333 59003;EQDQ01  00002PRCP99
0186821980999992000040312004-01720-045400FM-12+004499999V0200501N002110150019N0100001N1+02831+02621101121ADDAA199000091GF105991051021017501001001KA1240N+02231MA1999999100601MD1999999-0041REMSYN076AAXX  03124 82198 32797 50504 10283 20262 30060 40112 85200 333 20223 59004;EQDQ01  00002PRCP99
0182821980999992000040318004-01720-045400FM-12+004499999V0200501N001510150019N0100001N1+02521+02271100831ADDAA106000191AY151061AY221061GF108991051051017501021001MA1999999100321MD1999999-0071MW1031REMSYN082AAXX  03184 82198 21797 80503 10252 20227 30032 40083 70352 85520 333 59007 69921;
0213821980999992000040400004-01720-045400FM-12+004499999V0201401N001512200019N0020001N1+02411+02191101021ADDAA106024991AY161061AY221061GF104991041001017501061001KA1240M+03131MA1999999100511MD1999999-0011MW1011REMSYN100AAXX  04004 82198 21795 41403 10241 20219 30051 40102 70162 84060 333 10313 29088 55046 59001 60251;
0201821980999992000040412004-01720-045400FM-12+004499999V0200901N000510450019N0100001N1+02391+02171101141ADDAA124030091AY161061AY221061GF106991041021017501061001KA1240N+02191MA1999999100631MD1999999+0031MW1021REMSYN088AAXX  04124 82198 21797 60901 10239 20217 30063 40114 70262 84260 333 20219 58003 60304;
0167821980999992000040418004-01720-045400FM-12+004499999V0200501N004610150019N0100001N1+02861+02541100791ADDAA199000091GF106991051021017501061001MA1999999100281MD1999999-0041REMSYN070AAXX  04184 82198 32797 60509 10286 20254 30028 40079 85260 333 59004;EQDQ01  00002PRCP99
0213821980999992000040500004-01720-045400FM-12+004499999V0200501N001512200019N0020001N1+02581+02371100971ADDAA106000591AY151061AY211061GF102991021001017501061001KA1240M+03121MA1999999100461MD1999999-0051MW1011REMSYN100AAXX  05004 82198 21795 20503 10258 20237 30046 40097 70151 82060 333 10312 29087 55073 59005 69951;
0182821980999992000040518004-01720-045400FM-12+004499999V0200501N003610150019N0100001N1+03081+02691100711ADDAA106000891AY151061AY221061GF108991061021017501061001MA1999999100201MD1999999-0081MW1021REMSYN082AAXX  05184 82198 21797 80507 10308 20269 30020 40071 70252 86260 333 59008 69981;
0198821980999992000040600004-01720-045400FM-12+004499999V0201401N002110450019N0020001N1+02561+02351101061ADDAA199000091GF107991031051017501021001KA1240M+03031MA1999999100551MD1999999+0091REMSYN088AAXX  06004 82198 32795 71404 10256 20235 30055 40106 83520 333 10303 29086 55071 58009;EQDQ01  00002PRCP99
0201821980999992000040612004-01720-045400FM-12+004499999V0201401N002610450019N0100001N1+02421+02241101131ADDAA124006191AY161061AY221061GF108991031051017501041001KA1240N+02251MA1999999100621MD1999999+0041MW1021REMSYN088AAXX  06124 82198 21797 81405 10242 20224 30062 40113 70262 83540 333 20225 58004 60064;
0182821980999992000040618004-01720-045400FM-12+004499999V0203201N000512200019N0100001N1+02411+02151100741ADDAA106006191AY161061AY221061GF104991021021017501061001MA1999999100231MD1999999+0031MW1011REMSYN082AAXX  06184 82198 21797 43201 10241 20215 30023 40074 70162 82260 333 58003 60061;
0198821980999992000040700004-01720-045400FM-12+004499999V0203201N000510450019N0020001N1+02481+02301100951ADDAA199000091GF108991031021017501061001KA1240M+02961MA1999999100441MD1999999-0111REMSYN088AAXX  07004 82198 32795 83201 10248 20230 30044 40095 83260 333 10296 29089 55030 59011;EQDQ01  00002PRCP99
0201821980999992000040712004-01720-045400FM-12+004499999V0200501N003110150019N0100001N1+02441+02301100991ADDAA124011991AY161061AY221061GF108991051051017501021001KA1240N+02311MA1999999100481MD1999999-0141MW1031REMSYN088AAXX  07124 82198 21797 80506 10244 20230 30048 40099 70362 85520 333 20231 59014 60124;
0182821980999992000040718004-01720-045400FM-12+004499999V0201401N001010450019N0100001N1+02781+02521100751ADDAA106000391AY151061AY221061GF107991041021017501061001MA1999999100241MD1999999+0021MW1021REMSYN082AAXX  07184 82198 21797 71402 10278 20252 30024 40075 70252 84260 333 58002 69931;
0213821980999992000040800004-01720-045400FM-12+004499999V0200901N003110150019N0020001N1+02381+02221100991ADDAA106007191AY161061AY221061GF108991051051017501021001KA1240M+02831MA1999999100471MD1999999+0031MW1021REMSYN100AAXX  08004 82198 21795 80906 10238 20222 30047 40099 70262 85520 333 10283 29090 55003 58003 60071;
0201821980999992000040812004-01720-045400FM-12+004499999V0200501N000510450019N0100001N1+02461+02321100931ADDAA124008991AY161061AY221061GF107991041021017501041001KA1240N+02291MA1999999100421MD1999999-0061MW1021REMSYN088AAXX  08124 82198 21797 70501 10246 20232 30042 40093 70262 84240 333 20229 59006 60094;
0182821980999992000040818004-01720-045400FM-12+004499999V0203601N002610450019N0100001N1+02601+02401100691ADDAA106007191AY161061AY221061GF106991031021017501061001MA1999999100181MD1999999-0061MW1011REMSYN082AAXX  08184 82198 21797 63605 10260 20240 30018 40069 70162 83260 333 59006 60071;
0198821980999992000040900004-01720-045400FM-12+004499999V0200501N002112200019N0020001N1+02521+02401100911ADDAA199000091GF103991031001017501061001KA1240M+02991MA1999999100401MD1999999-0071REMSYN088AAXX  09004 82198 32795 30504 10252 20240 30040 40091 83060 333 10299 29090 55025 59007;EQDQ01  00002PRCP99
0173821980999992000040912004-01720-045400FM-12+004499999V0200501N001512200019N0100001N1+02761+02581101001ADDAA124007191GF105991041021017501001011KA1240N+02311MA1999999100491MD1999999+0071REMSYN082AAXX  09124 82198 22797 50503 10276 20258 30049 40100 84201 333 20231 58007 60074;
0182821980999992000040918004-01720-045400FM-12+004499999V0203201N000510450019N0100001N1+02581+02331100681ADDAA106009991AY161061AY221061GF108991021021017501061001MA1999999100171MD1999999-0011MW1031REMSYN082AAXX  09184 82198 21797 83201 10258 20233 30017 40068 70362 82260 333 59001 60101;
0213821980999992000041000004-01720-045400FM-12+004499999V0203201N001010450019N0020001N1+02431+02251100871ADDAA106002091AY161061AY221061GF106991031021017501061001KA1240M+03071MA1999999100361MD1999999-0041MW1011REMSYN100AAXX  10004 82198 21795 63202 10243 20225 30036 40087 70162 83260 333 10307 29089 55040 59004 60021;
0173821980999992000041012004-01720-045400FM-12+004499999V0201401N001010450019N0100001N1+02521+02331100951ADDAA124011991GF107991041051017501041091KA1240N+02261MA1999999100431MD1999999-0061REMSYN082AAXX  10124 82198 22797 71402 10252 20233 30043 40095 84549 333 20226 59006 60124;
0167821980999992000041018004-01720-045400FM-12+004499999V0203601N002610150019N0100001N1+02861+02541100681ADDAA199000091GF108991051021017501011011MA1999999100161MD1999999-0011REMSYN070AAXX  10184 82198 32797 83605 10286 20254 30016 40068 85211 333 59001;EQDQ01  00002PRCP99
0198821980999992000041100004-01720-045400FM-12+004499999V0203201N001510450019N0020001N1+02501+02361100841ADDAA199000091GF106991041021017501031041KA1240M+02981MA1999999100321MD1999999-0041REMSYN088AAXX  11004 82198 32795 63203 10250 20236 30032 40084 84234 333 10298 29089 55031 59004;EQDQ01  00002PRCP99
0201821980999992000041112004-01720-045400FM-12+004499999V0209999C000010450019N0100001N1+02541+02451101011ADDAA124000191AY161061AY251061GF106991021021017501041011KA1240N+02281MA1999999100491MD1999999+0011MW1021REMSYN088AAXX  11124 82198 21797 60000 10254 20245 30049 40101 70265 82241 333 20228 58001 69924;
0182821980999992000041118004-01720-045400FM-12+004499999V0202301N000510450019N0100001N1+02581+02441100771ADDAA106013091AY161061AY221061GF108991041051017501041041MA1999999100251MD1999999+0091MW1031REMSYN082AAXX  11184 82198 21797 82301 10258 20244 30025 40077 70362 84544 333 58009 60131;
0213821980999992000041200004-01720-045400FM-12+004499999V0203601N001011050019N0020001N1+02511+02431100871ADDAA106003091AY161061AY221061GF105991021021017501011011KA1240M+03061MA1999999100351MD1999999+0031MW1011REMSYN100AAXX  12004 82198 21795 53602 10251 20243 30035 40087 70162 82211 333 10306 29094 55044 58003 60031;
0173821980999992000041212004-01720-045400FM-12+004499999V0202301N001011050019N0100001N1+02571+02531100971ADDAA124015091GF105991021021017501011061KA1240N+02271MA1999999100451MD1999999-0041REMSYN082AAXX  12124 82198 22797 52302 10257 20253 30045 40097 82216 333 20227 59004 60154;
0182821980999992000041218004-01720-045400FM-12+004499999V0202701N001510450019N0100001N1+02571+02461100691ADDAA106007191AY161061AY221061GF108991041071017501061011MA1999999100171MD1999999-0081MW1031REMSYN082AAXX  12184 82198 21797 82703 10257 20246 30017 40069 70362 84761 333 59008 60071;
0213821980999992000041300004-01720-045400FM-12+004499999V0203201N001010450019N0020001N1+02491+02301100891ADDAA106020191AY161061AY221061GF108991041021017501061041KA1240M+03071MA1999999100371MD1999999+0021MW1021REMSYN100AAXX  13004 82198 21795 83202 10249 20230 30037 40089 70262 84264 333 10307 29094 55041 58002 60201;
0201821980999992000041312004-01720-045400FM-12+004499999V0203201N001510450019N0100001N1+02491+02331100991ADDAA124031091AY161061AY251061GF108991041071017501011011KA1240N+02351MA1999999100471MD1999999+0021MW1021REMSYN088AAXX  13124 82198 21797 83203 10249 20233 30047 40099 70265 84711 333 20235 58002 60314;
0195821980999992000041318004-01720-045400FM-12+004499999V0203601N003610150019N0100001N1+02871+02381100721ADDAA199000091AY191061AY221061GF108991051071017501061041MA1999999100201MD1999999+0031MW1131REMSYN076AAXX  13184 82198 31797 83607 10287 20238 30020 40072 71392 85764 333 58003;EQDQ01  00002PRCP99
0213821980999992000041400004-01720-045400FM-12+004499999V0203201N001010450019N0020001N1+02391+02331100991ADDAA106004191AY161061AY251061GF106991041021017501031011KA1240M+02991MA1999999100471MD1999999+0101MW1011REMSYN100AAXX  14004 82198 21795 63202 10239 20233 30047 40099 70165 84231 333 10299 29092 55025 58010 60041;
0167821980999992000041418004-01720-045400FM-12+004499999V0200901N002610450019N0100001N1+03011+02421100751ADDAA199000091GF107991031021017501041091MA1999999100231MD1999999+0031REMSYN070AAXX  14184 82198 32797 70905 10301 20242 30023 40075 83249 333 58003;EQDQ01  00002PRCP99
0198821980999992000041500004-01720-045400FM-12+004499999V0200501N001510450019N0020001N1+02601+02421101121ADDAA199000091GF107991041021017501061001KA1240M+03131MA1999999100601MD1999999+0131REMSYN088AAXX  15004 82198 32795 70503 10260 20242 30060 40112 84260 333 10313 29086 55050 58013;EQDQ01  00002PRCP99
0201821980999992000041512004-01720-045400FM-12+004499999V0202301N001010450019N0100001N1+02461+02411101271ADDAA124025991AY161061AY221061GF108991041051017501061011KA1240N+02281MA1999999100751MD1999999+0151MW1021REMSYN088AAXX  15124 82198 21797 82302 10246 20241 30075 40127 70262 84561 333 20228 58015 60264;
0182821980999992000041518004-01720-045400FM-12+004499999V0203601N001010150019N0100001N1+02441+02341100991ADDAA106015091AY161061AY251061GF108991061071017501021001MA1999999100471MD1999999+0241MW1581REMSYN082AAXX  15184 82198 21797 83602 10244 20234 30047 40099 75865 86720 333 58024 60151;
0213821980999992000041600004-01720-045400FM-12+004499999V0202301N002610150019N0020001N1+02411+02331101101ADDAA106000891AY161061AY221061GF108991051021017501061001KA1240M+02951MA1999999100581MD1999999-0021MW1021REMSYN100AAXX  16004 82198 21795 82305 10241 20233 30058 40110 70262 85260 333 10295 29096 55020 59002 69971;
0201821980999992000041612004-01720-045400FM-12+004499999V0202301N001010450019N0100001N1+02381+02281101201ADDAA124017091AY161061AY251061GF107991041051017501041041KA1240N+02271MA1999999100681MD1999999-0071MW1021REMSYN088AAXX  16124 82198 21797 72302 10238 20228 30068 40120 70265 84544 333 20227 59007 60174;
0167821980999992000041618004-01720-045400FM-12+004499999V0203601N002110450019N0100001N1+03001+02441100841ADDAA199000091GF107991041021017501011061MA1999999100321MD1999999-0151REMSYN070AAXX  16184 82198 32797 73604 10300 20244 30032 40084 84216 333 59015;EQDQ01  00002PRCP99
0198821980999992000041700004-01720-045400FM-12+004499999V0203601N001511050019N0020001N1+02531+02381101001ADDAA199000091GF105991021021017501041061KA1240M+03091MA1999999100481MD1999999-0101REMSYN088AAXX  17004 82198 32795 53603 10253 20238 30048 40100 82246 333 10309 29088 55030 59010;EQDQ01  00002PRCP99
0186821980999992000041712004-01720-045400FM-12+004499999V0200501N004110150019N0100001N1+02841+02601101171ADDAA199000091GF106991051021017501001011KA1240N+02411MA1999999100661MD1999999-0021REMSYN076AAXX  17124 82198 32797 60508 10284 20260 30066 40117 85201 333 20241 59002;EQDQ01  00002PRCP99
0182821980999992000041718004-01720-045400FM-12+004499999V0201401N001010150019N0100001N1+02491+02231100741ADDAA106019191AY161061AY221061GF108991051051017501021001MA1999999100231MD1999999-0091MW1031REMSYN082AAXX  17184 82198 21797 81402 10249 20223 30023 40074 70362 85520 333 59009 60191;
0213821980999992000041800004-01720-045400FM-12+004499999V0200901N001510450019N0020001N1+02441+02261100991ADDAA106034091AY161061AY221061GF108991031021017501041001KA1240M+03041MA1999999100481MD1999999+0001MW1021REMSYN100AAXX  18004 82198 21795 80903 10244 20226 30048 40099 70262 83240 333 10304 29088 55041 58000 60341;
0173821980999992000041812004-01720-045400FM-12+004499999V0202301N001010450019N0100001N1+02541+02311101161ADDAA124053191GF107991041021017501031001KA1240N+02221MA1999999100651MD1999999-0011REMSYN082AAXX  18124 82198 22797 72302 10254 20231 30065 40116 84230 333 20222 59001 60534;
0182821980999992000041818004-01720-045400FM-12+004499999V0200501N003110150019N0100001N1+02821+02441100831ADDAA106003091AY161061AY221061GF107991051021017501061001MA1999999100321MD1999999+0091MW1021REMSYN082AAXX  18184 82198 21797 70506 10282 20244 30032 40083 70262 85260 333 58009 60031;
0213821980999992000041900004-01720-045400FM-12+004499999V0202301N001510450019N0020001N1+02471+02291101051ADDAA106005191AY161061AY221061GF108991041051017501021001KA1240M+02961MA1999999100541MD1999999+0061MW1021REMSYN100AAXX  19004 82198 21795 82303 10247 20229 30054 40105 70262 84520 333 10296 29086 55022 58006 60051;
0201821980999992000041912004-01720-045400FM-12+004499999V0209999C000010450019N0100001N1+02391+02171101191ADDAA124023991AY161061AY221061GF108991041071017501041001KA1240N+02311MA1999999100671MD1999999+0021MW1021REMSYN088AAXX  19124 82198 21797 80000 10239 20217 30067 40119 70262 84740 333 20231 58002 60244;
0182821980999992000041918004-01720-045400FM-12+004499999V0203601N001510150019N0100001N1+02701+02411100801ADDAA106002091AY161061AY221061GF107991051021017501041001MA1999999100291MD1999999-0031MW1021REMSYN082AAXX  19184 82198 21797 73603 10270 20241 30029 40080 70262 85240 333 59003 60021;
0198821980999992000042000004-01720-045400FM-12+004499999V0200501N001510450019N0020001N1+02521+02321101001ADDAA199000091GF105991021021017501061001KA1240M+02801MA1999999100491MD1999999-0051REMSYN088AAXX  20004 82198 32795 50503 10252 20232 30049 40100 82260 333 10280 29088 55021 59005;EQDQ01  00002PRCP99
0173821980999992000042012004-01720-045400FM-12+004499999V0201401N002110450019N0100001N1+02611+02351101061ADDAA124002091GF106991031021017501061001KA1240N+02331MA1999999100551MD1999999-0121REMSYN082AAXX  20124 82198 22797 61404 10261 20235 30055 40106 83260 333 20233 59012 60024;
0173821980999992000042112004-01720-045400FM-12+004499999V0201401N001010450019N0100001N1+02591+02331101001ADDAA124005191GF106991031021017501061011KA1240N+02301MA1999999100491MD1999999-0061REMSYN082AAXX  21124 82198 22797 61402 10259 20233 30049 40100 83261 333 20230 59006 60054;
0182821980999992000042118004-01720-045400FM-12+004499999V0200501N002110450019N0100001N1+02801+02401100651ADDAA106000391AY151061AY221061GF107991041021017501061001MA1999999100141MD1999999-0141MW1021REMSYN082AAXX  21184 82198 21797 70504 10280 20240 30014 40065 70252 84260 333 59014 69931;
0213821980999992000042200004-01720-045400FM-12+004499999V0200501N002112200019N0020001N1+02491+02271100921ADDAA106008991AY161061AY221061GF103991031001017501061001KA1240M+02931MA1999999100411MD1999999-0041MW1011REMSYN100AAXX  22004 82198 21795 30504 10249 20227 30041 40092 70162 83060 333 10293 29085 55030 59004 60091;
0182821980999992000042218004-01720-045400FM-12+004499999V0200501N002610450019N0100001N1+02701+02501100731ADDAA106021191AY161061AY221061GF107991031021017501041001MA1999999100221MD1999999+0081MW1021REMSYN082AAXX  22184 82198 21797 70505 10270 20250 30022 40073 70262 83240 333 58008 60211;
0198821980999992000042300004-01720-045400FM-12+004499999V0200901N002612200019N0020001N1+02551+02371100921ADDAA199000091GF103991031001017501061001KA1240M+03011MA1999999100401MD1999999-0011REMSYN088AAXX  23004 82198 32795 30905 10255 20237 30040 40092 83060 333 10301 29089 55035 59001;EQDQ01  00002PRCP99
0173821980999992000042312004-01720-045400FM-12+004499999V0200901N002112200019N0100001N1+02731+02471100991ADDAA124021191GF105991031021017501001011KA1240N+02301MA1999999100481MD1999999-0051REMSYN082AAXX  23124 82198 22797 50904 10273 20247 30048 40099 83201 333 20230 59005 60214;
0167821980999992000042318004-01720-045400FM-12+004499999V0200501N004610450019N0100001N1+02901+02581100701ADDAA199000091GF107991041021017501061001MA1999999100191MD1999999-0031REMSYN070AAXX  23184 82198 32797 70509 10290 20258 30019 40070 84260 333 59003;EQDQ01  00002PRCP99
0198821980999992000042400004-01720-045400FM-12+004499999V0200501N002612200019N0020001N1+02631+02411100891ADDAA199000091GF104991021011017501061001KA1240M+03211MA1999999100381MD1999999-0021REMSYN088AAXX  24004 82198 32795 40505 10263 20241 30038 40089 82160 333 10321 29086 55059 59002;EQDQ01  00002PRCP99
0182821980999992000042418004-01720-045400FM-12+004499999V0200501N002110450019N0100001N1+02691+02391100791ADDAA106010991AY161061AY221061GF108991041051017501011011MA1999999100271MD1999999+0081MW1021REMSYN082AAXX  24184 82198 21797 80504 10269 20239 30027 40079 70262 84511 333 58008 60111;
0198821980999992000042500004-01720-045400FM-12+004499999V0200501N002112200019N0020001N1+02581+02481101001ADDAA199000091GF103991031021017501001001KA1240M+02831MA1999999100481MD1999999+0101REMSYN088AAXX  25004 82198 32795 30504 10258 20248 30048 40100 83200 333 10283 29092 55002 58010;EQDQ01  00002PRCP99
0201821980999992000042512004-01720-045400FM-12+004499999V0200501N004110450019N0100001N1+02391+02371101101ADDAA124032091AY161061AY251061GF108991041051017501021001KA1240N+02261MA1999999100581MD1999999+0041MW1581REMSYN088AAXX  25124 82198 21797 80508 10239 20237 30058 40110 75865 84520 333 20226 58004 60324;
0182821980999992000042518004-01720-045400FM-12+004499999V0200501N003110450019N0100001N1+02441+02391100901ADDAA106013091AY161061AY251061GF108991041071017501011001MA1999999100381MD1999999+0111MW1201REMSYN082AAXX  25184 82198 21797 80506 10244 20239 30038 40090 72065 84710 333 58011 60131;
0179821980999992000042600004-01720-045400FM-12+004499999V0202301N001510150019N0020001N1+02441+02371100941ADDAA199000021GF105991051021017501001001KA1240M+02621MA1999999100421MD1999999-0061REMSYN088AAXX  26004 82198 32795 52303 10244 20237 30042 40094 85200 333 10262 29096 55000 59006;
0201821980999992000042612004-01720-045400FM-12+004499999V0200501N002110450019N0100001N1+02411+02351101141ADDAA124016091AY161061AY221061GF106991031021017501061001KA1240N+02371MA1999999100621MD1999999+0041MW1031REMSYN088AAXX  26124 82198 21797 60504 10241 20235 30062 40114 70362 83260 333 20237 58004 60164;
0167821980999992000042618004-01720-045400FM-12+004499999V0200501N004110450019N0100001N1+02711+02391100821ADDAA199000091GF106991031021017501011061MA1999999100301MD1999999-0081REMSYN070AAXX  26184 82198 32797 60508 10271 20239 30030 40082 83216 333 59008;EQDQ01  00002PRCP99
0226821980999992000042700004-01720-045400FM-12+004499999V0200901N001012200019N0020001N1+02531+02431101001ADDAA199000091AY121061AY211061GF103991031021017501001001KA1240M+02871MA1999999100481MD1999999+0061MW1131REMSYN094AAXX  27004 82198 31795 30902 10253 20243 30048 40100 71321 83200 333 10287 29091 55032 58006;EQDQ01  00002PRCP99
0213821980999992000042800004-01720-045400FM-12+004499999V0209999C000010150019N0020001N1+02401+02281101041ADDAA106021191AY101061AY221061GF105991051021017501001001KA1240M+02951MA1999999100521MD1999999+0041MW1131REMSYN100AAXX  28004 82198 21795 50000 10240 20228 30052 40104 71302 85200 333 10295 29092 55051 58004 60211;
0201821980999992000042812004-01720-045400FM-12+004499999V0200901N001510450019N0100001N1+02491+02311101181ADDAA124030091AY161061AY221061GF107991041051017501061001KA1240N+02311MA1999999100661MD1999999+0101MW1031REMSYN088AAXX  28124 82198 21797 70903 10249 20231 30066 40118 70362 84560 333 20231 58010 60304;
0182821980999992000042818004-01720-045400FM-12+004499999V0209999C000010450019N0100001N1+02781+02481100871ADDAA106002091AY161061AY221061GF108991031071017501021001MA1999999100361MD1999999+0081MW1021REMSYN082AAXX  28184 82198 21797 80000 10278 20248 30036 40087 70262 83720 333 58008 60021;
0213821980999992000042900004-01720-045400FM-12+004499999V0200501N002612200019N0020001N1+02511+02401101121ADDAA106010991AY161061AY221061GF103991031021017501001001KA1240M+03091MA1999999100611MD1999999+0091MW1131REMSYN100AAXX  29004 82198 21795 30505 10251 20240 30061 40112 71362 83200 333 10309 29092 55035 58009 60111;
0201821980999992000042912004-01720-045400FM-12+004499999V0200901N003610450019N0100001N1+02411+02301101271ADDAA124019191AY161061AY251061GF108991041051017501061001KA1240N+02271MA1999999100751MD1999999+0091MW1031REMSYN088AAXX  29124 82198 21797 80907 10241 20230 30075 40127 70365 84560 333 20227 58009 60194;
0167821980999992000042918004-01720-045400FM-12+004499999V0201401N001010450019N0100001N1+02651+02521100901ADDAA199000091GF108991041051017501011011MA1999999100381MD1999999+0021REMSYN070AAXX  29184 82198 32797 81402 10265 20252 30038 40090 84511 333 58002;EQDQ01  00002PRCP99
0213821980999992000043000004-01720-045400FM-12+004499999V0209999C000010450019N0020001N1+02501+02431101071ADDAA106001091AY161061AY251061GF105991021021017501061001KA1240M+02711MA1999999100561MD1999999-0051MW1131REMSYN100AAXX  30004 82198 21795 50000 10250 20243 30056 40107 71365 82260 333 10271 29094 55000 59005 60011;
0173821980999992000043012004-01720-045400FM-12+004499999V0200501N002110450019N0100001N1+02741+02501101131ADDAA124001091GF106991031021017501041061KA1240N+02321MA1999999100611MD1999999-0141REMSYN082AAXX  30124 82198 22797 60504 10274 20250 30061 40113 83246 333 20232 59014 60014;
0167821980999992000043018004-01720-045400FM-12+004499999V0203601N006210450019N0100001N1+02911+02411100811ADDAA199000091GF106991031021017501011061MA1999999100301MD1999999-0081REMSYN070AAXX  30184 82198 32797 63612 10291 20241 30030 40081 83216 333 59008;EQDQ01  00002PRCP99
0198821980999992000050100004-01720-045400FM-12+004499999V0200501N002612200019N0020001N1+02561+02381101091ADDAA199000091GF103991031021017501001001KA1240M+03151MA1999999100581MD1999999+0021REMSYN088AAXX  01004 82198 32795 30505 10256 20238 30058 40109 83200 333 10315 29086 55050 58002;EQDQ01  00002PRCP99
0201821980999992000050112004-01720-045400FM-12+004499999V0200501N003110450019N0100001N1+02701+02591101031ADDAA124006191AY161061AY221061GF106991031021017501061001KA1240N+02351MA1999999100511MD1999999-0101MW1031REMSYN088AAXX  01124 82198 21797 60506 10270 20259 30051 40103 70362 83260 333 20235 59010 60064;
0182821980999992000050118004-01720-045400FM-12+004499999V0200501N002110450019N0100001N1+02731+02601100771ADDAA106001091AY161061AY221061GF108991031021017501061001MA1999999100261MD1999999-0041MW1031REMSYN082AAXX  01184 82198 21797 80504 10273 20260 30026 40077 70362 83260 333 59004 60011;
0198821980999992000050200004-01720-045400FM-12+004499999V0200901N002112200019N0020001N1+02561+02491100911ADDAA199000091GF102991021001017501061001KA1240M+03051MA1999999100401MD1999999-0181REMSYN088AAXX  02004 82198 32795 20904 10256 20249 30040 40091 82060 333 10305 29095 55020 59018;EQDQ01  00002PRCP99
0173821980999992000050212004-01720-045400FM-12+004499999V0200501N002610150019N0100001N1+02821+02711101001ADDAA124001091GF108991051051017501021001KA1240N+02371MA1999999100491MD1999999-0021REMSYN082AAXX  02124 82198 22797 80505 10282 20271 30049 40100 85520 333 20237 59002 60014;
0182821980999992000050218004-01720-045400FM-12+004499999V0203201N001010450019N0100001N1+02561+02471100691ADDAA106018091AY161061AY221061GF108991031051017501021001MA1999999100181MD1999999-0081MW1021REMSYN082AAXX  02184 82198 21797 83202 10256 20247 30018 40069 70262 83520 333 59008 60181;
0213821980999992000050300004-01720-045400FM-12+004499999V0203201N001510450019N0020001N1+02361+02311100891ADDAA106003091AY161061AY221061GF106991031021017501061001KA1240M+03131MA1999999100381MD1999999-0021MW1011REMSYN100AAXX  03004 82198 21795 63203 10236 20231 30038 40089 70162 83260 333 10313 29096 55041 59002 60031;
0201821980999992000050312004-01720-045400FM-12+004499999V0200901N002610450019N0100001N1+02491+02411101051ADDAA124022191AY151061AY221061GF108991041011017501041001KA1240N+02351MA1999999100541MD1999999+0051MW1031REMSYN088AAXX  03124 82198 21797 80905 10249 20241 30054 40105 70352 84140 333 20235 58005 60224;
0167821980999992000050318004-01720-045400FM-12+004499999V0201401N002610450019N0100001N1+03051+02801100631ADDAA199000091GF105991031021017501061001MA1999999100121MD1999999-0061REMSYN070AAXX  03184 82198 32797 51405 10305 20280 30012 40063 83260 333 59006;EQDQ01  00002PRCP99
0198821980999992000050400004-01720-045400FM-12+004499999V0200501N002110450019N0020001N1+02581+02381100881ADDAA199000091GF106991031021017501061001KA1240M+03121MA1999999100371MD1999999-0011REMSYN088AAXX  04004 82198 32795 60504 10258 20238 30037 40088 83260 333 10312 29090 55037 59001;EQDQ01  00002PRCP99
0201821980999992000050412004-01720-045400FM-12+004499999V0200501N001010150019N0100001N1+02501+02321100971ADDAA124009991AY161061AY221061GF108991051051017501041001KA1240N+02351MA1999999100461MD1999999-0081MW1031REMSYN088AAXX  04124 82198 21797 80502 10250 20232 30046 40097 70362 85540 333 20235 59008 60104;
0182821980999992000050418004-01720-045400FM-12+004499999V0200501N003110450019N0100001N1+02821+02621100541ADDAA106001091AY151061AY221061GF107991041021017501061001MA1999999100031MD1999999-0091MW1021REMSYN082AAXX  04184 82198 21797 70506 10282 20262 30003 40054 70252 84260 333 59009 69991;
0198821980999992000050500004-01720-045400FM-12+004499999V0200501N002110450019N0020001N1+02581+02531100791ADDAA199000091GF105991031021017501061001KA1240M+02951MA1999999100281MD1999999-0091REMSYN088AAXX  05004 82198 32795 50504 10258 20253 30028 40079 83260 333 10295 29093 55010 59009;EQDQ01  00002PRCP99
0201821980999992000050512004-01720-045400FM-12+004499999V0200901N002110450019N0100001N1+02551+02381100921ADDAA124002091AY161061AY221061GF108991021011017501041001KA1240N+02411MA1999999100411MD1999999-0051MW1031REMSYN088AAXX  05124 82198 21797 80904 10255 20238 30041 40092 70362 82140 333 20241 59005 60024;
0182821980999992000050518004-01720-045400FM-12+004499999V0203601N001010450019N0100001N1+02571+02511100591ADDAA106025991AY161061AY221061GF108991031021017501041001MA1999999100081MD1999999+0051MW1021REMSYN082AAXX  05184 82198 21797 83602 10257 20251 30008 40059 70262 83240 333 58005 60261;
0198821980999992000050600004-01720-045400FM-12+004499999V0200501N002110450019N0020001N1+02501+02451100781ADDAA199000091GF106991021021017501041001KA1240M+02971MA1999999100271MD1999999-0011REMSYN088AAXX  06004 82198 32795 60504 10250 20245 30027 40078 82240 333 10297 29095 55009 59001;EQDQ01  00002PRCP99
0201821980999992000050612004-01720-045400FM-12+004499999V0200501N001010450019N0100001N1+02381+02311100921ADDAA124046091AY161061AY221061GF108991041051017501021001KA1240N+02251MA1999999100401MD1999999-0011MW1551REMSYN088AAXX  06124 82198 21797 80502 10238 20231 30040 40092 75562 84520 333 20225 59001 60464;
0182821980999992000050618004-01720-045400FM-12+004499999V0203201N001510450019N0100001N1+02531+02471100711ADDAA106022191AY161061AY221061GF108991031011017501041001MA1999999100201MD1999999+0121MW1021REMSYN082AAXX  06184 82198 21797 83203 10253 20247 30020 40071 70262 83140 333 58012 60221;
