0198825710999992000010100004-05500-045270FM-12+017499999V0202301N001010075019N0100001N1+02391+02291100991ADDAA106000091GF108991081051008001999999KA1240M+02641MA1999999099011MD1999999-0091REMSYN088AAXX  01004 82571 32597 82302 10239 20229 39901 40099 885// 333 10264 29089 55001 59009;EQDQ01  00002PRCP06
0186825710999992000010112004-05500-045270FM-12+017499999V0201801N001010075019N0100001N1+02501+02341101031ADDAA106000091GF108991081051008001999999KA1240N+02131MA1999999099051MD1999999-0201REMSYN076AAXX  01124 82571 32597 81802 10250 20234 39905 40103 885// 333 20213 59020;EQDQ01  00002PRCP06
0167825710999992000010118004-05500-045270FM-12+017499999V0200501N003110450019N0100001N1+03121+02281100621ADDAA106000091GF106991031021008001031001MA1999999098671MD1999999-0261REMSYN070AAXX  01184 82571 32597 60506 10312 20228 39867 40062 83230 333 59026;EQDQ01  00002PRCP06
0208825710999992000010200004-05500-045270FM-12+017499999V0201401N001012200019N0100001N1+02661+02461100781ADDAA106000091GA1001+999999999GF100991001001999999001001KA1240M+03191MA1999999098821MD1999999-0191REMSYN082AAXX  02004 82571 32997 01402 10266 20246 39882 40078 333 10319 29082 55050 59019;EQDQ01  00002PRCP06
0186825710999992000010212004-05500-045270FM-12+017499999V0200501N001010450019N0100001N1+02591+02441100981ADDAA106000091GF107991041051008001031001KA1240N+02281MA1999999099011MD1999999-0041REMSYN076AAXX  02124 82571 32597 70502 10259 20244 39901 40098 84530 333 20228 59004;EQDQ01  00002PRCP06
0167825710999992000010218004-05500-045270FM-12+017499999V0203201N001010075019N0100001N1+02981+02351100551ADDAA106000091GF106991061051008001001001MA1999999098601MD1999999-0071REMSYN070AAXX  02184 82571 32597 63202 10298 20235 39860 40055 86500 333 59007;EQDQ01  00002PRCP06
0197825710999992000010300004-05500-045270FM-12+017499999V0202701N001010042019N0100001N1+02381+02311100961ADDAA106001091GF108991081051004501999999KA1240M+03111MA1999999098981MD1999999+0161MW1611REMSYN100AAXX  03004 82571 21497 82702 10238 20231 39898 40096 761// 885// 333 10311 29088 55011 58016 60011;
0193825710999992000010312004-05500-045270FM-12+017499999V0200501N001010075019N0100001N1+02541+02361101041ADDAA124002091AY161061GF108991081051008001999999KA1240N+02161MA1999999099061MD1999999+0051MW1031REMSYN088AAXX  03124 82571 21597 80502 10254 20236 39906 40104 7036/ 885// 333 20216 58005 60024;
0166825710999992000010318004-05500-045270FM-12+017499999V0202701N001010450019N0100001N1+02961+02451100621ADDAA106000191GF106991041031008001031001MA1999999098661MD1999999+0061MW1611REMSYN082AAXX  03184 82571 21597 62702 10296 20245 39866 40062 761// 84330 333 58006 69921;
0213825710999992000010400004-05500-045270FM-12+017499999V0202301N001010042019N0100001N1+02281+02251100991ADDAA106007991AY191061AY261061GF108991081051004501999999KA1240M+03071MA1999999099011MD1999999+0031MW1611REMSYN100AAXX  04004 82571 21497 82302 10228 20225 39901 40099 76196 885// 333 10307 29090 55017 58003 60081;
0193825710999992000010412004-05500-045270FM-12+017499999V0202701N001010450019N0100001N1+02401+02131101211ADDAA124007991AY161061GF107991041021004501051001KA1240N+01961MA1999999099221MD1999999+0161MW1021REMSYN088AAXX  04124 82571 21497 72702 10240 20213 39922 40121 7026/ 84250 333 20196 58016 60084;
0167825710999992000010418004-05500-045270FM-12+017499999V0200501N001012200019N0100001N1+02881+02211100801ADDAA106000091GF104991021021008001011011MA1999999098831MD1999999+0171REMSYN070AAXX  04184 82571 32597 40502 10288 20221 39883 40080 82211 333 58017;EQDQ01  00002PRCP06
0205825710999992000010500004-05500-045270FM-12+017499999V0201401N001010450019N0100001N1+02501+02291101011ADDAA106000191AY161061GF105991021021004501011001KA1240M+02981MA1999999099031MD1999999+0031MW1021REMSYN100AAXX  05004 82571 21497 51402 10250 20229 39903 40101 7026/ 82210 333 10298 29082 55049 58003 69921;
0173825710999992000010512004-05500-045270FM-12+017499999V0202301N001010042019N0100001N1+02531+02361101321ADDAA124000191GF108991081051004501999999KA1240N+02201MA1999999099341MD1999999+0121REMSYN082AAXX  05124 82571 22497 82302 10253 20236 39934 40132 885// 333 20220 58012 69924;
0167825710999992000010518004-05500-045270FM-12+017499999V0202701N001010450019N0100001N1+02761+02341100911ADDAA106000091GF106991021021004501071001MA1999999098941MD1999999+0111REMSYN070AAXX  05184 82571 32497 62702 10276 20234 39894 40091 82270 333 58011;EQDQ01  00002PRCP06
0206825710999992000010612004-05500-045270FM-12+017499999V0202301N001010042019N0100001N1+02461+02361101241ADDAA106000091AY141061GF107991071051004501001001KA1240N+02051MA1999999099251MD1999999-0091MW1021REMSYN082AAXX  06124 82571 31497 72302 10246 20236 39925 40124 7024/ 87500 333 20205 59009;EQDQ01  00002PRCP06
0205825710999992000010700004-05500-045270FM-12+017499999V0202701N001012200019N0100001N1+02411+02261100991ADDAA106000191AY161061GF104991041021008001001001KA1240M+03111MA1999999099011MD1999999-0081MW1131REMSYN100AAXX  07004 82571 21597 42702 10241 20226 39901 40099 7136/ 84200 333 10311 29085 55048 59008 69921;
0193825710999992000010712004-05500-045270FM-12+017499999V0200901N001010042019N0100001N1+02601+02291101161ADDAA124000591AY161061GF105991051021004501001001KA1240N+02181MA1999999099181MD1999999-0071MW1021REMSYN088AAXX  07124 82571 21497 50902 10260 20229 39918 40116 7026/ 85200 333 20218 59007 69954;
0167825710999992000010718004-05500-045270FM-12+017499999V0201401N002112200019N0100001N1+03011+02241100711ADDAA106000091GF104991031021008001041001MA1999999098751MD1999999-0061REMSYN070AAXX  07184 82571 32597 41404 10301 20224 39875 40071 83240 333 59006;EQDQ01  00002PRCP06
0210825710999992000010800004-05500-045270FM-12+017499999V0202701N001012200019N0100001N1+02561+02311100861ADDAA106000091GF103991021021008001041001KA1240M+03151MA1999999098891MD1999999-0121MW1131REMSYN094AAXX  08004 82571 31597 32702 10256 20231 39889 40086 713// 82240 333 10315 29080 55065 59012;EQDQ01  00002PRCP06
0174825710999992000010818004-05500-045270FM-12+017499999V0202701N001010450019N0100001N1+02221+02171101021ADDAA106014091AY161061GF108991041071004501021999MA1999999099021MD1999999+0271MW1611REMSYN082AAXX  08184 82571 21497 82702 10222 20217 39902 40102 7616/ 8472/ 333 58027 60141;
0205825710999992000010900004-05500-045270FM-12+017499999V0201401N001010075019N0100001N1+02241+02191101201ADDAA106000391AY161061GF107991071051008001001001KA1240M+02741MA1999999099201MD1999999+0311MW1611REMSYN100AAXX  09004 82571 21597 71402 10224 20219 39920 40120 7616/ 87500 333 10274 29097 55000 58031 69931;
0193825710999992000010912004-05500-045270FM-12+017499999V0201401N001010042019N0100001N1+02401+02301101331ADDAA124014091AY161061GF108991081051004501999999KA1240N+02061MA1999999099331MD1999999+0081MW1021REMSYN088AAXX  09124 82571 21497 81402 10240 20230 39933 40133 7026/ 885// 333 20206 58008 60144;
0167825710999992000010918004-05500-045270FM-12+017499999V0200901N003110042019N0100001N1+02871+02351100991ADDAA106000091GF106991061051004501001001MA1999999099011MD1999999-0011REMSYN070AAXX  09184 82571 32497 60906 10287 20235 39901 40099 86500 333 59001;EQDQ01  00002PRCP06
0205825710999992000011000004-05500-045270FM-12+017499999V0209999C000010042019N0100001N1+02361+02331101231ADDAA106008991AY161061GF108991081051004501999999KA1240M+02931MA1999999099241MD1999999+0041MW1021REMSYN100AAXX  10004 82571 21497 80000 10236 20233 39924 40123 7026/ 885// 333 10293 29091 55020 58004 60091;
0193825710999992000011012004-05500-045270FM-12+017499999V0200501N001010450019N0100001N1+02541+02361101301ADDAA124008991AY161061GF105991031021004501011011KA1240N+02131MA1999999099311MD1999999-0021MW1011REMSYN088AAXX  10124 82571 21497 50502 10254 20236 39931 40130 7016/ 83211 333 20213 59002 60094;
0167825710999992000011018004-05500-045270FM-12+017499999V0201401N005112200019N0100001N1+02981+02231100831ADDAA106000091GF104991031021008001001011MA1999999098861MD1999999-0151REMSYN070AAXX  10184 82571 32597 41410 10298 20223 39886 40083 83201 333 59015;EQDQ01  00002PRCP06
0218825710999992000011100004-05500-045270FM-12+017499999V0200501N001010042019N0100001N1+02581+02331101021ADDAA106000091AY191061GF105991051021004501001001KA1240M+03181MA1999999099051MD1999999-0191MW1131REMSYN094AAXX  11004 82571 31497 50502 10258 20233 39905 40102 7139/ 85200 333 10318 29082 55080 59019;EQDQ01  00002PRCP06
0186825710999992000011112004-05500-045270FM-12+017499999V0200501N001010450019N0100001N1+02651+02311101211ADDAA106000091GF106991031021004501011001KA1240N+02151MA1999999099241MD1999999-0071REMSYN076AAXX  11124 82571 32497 60502 10265 20231 39924 40121 83210 333 20215 59007;EQDQ01  00002PRCP06
0182825710999992000011118004-05500-045270FM-12+017499999V0200501N001010450019N0100001N1+02921+02291100791ADDAA106000191AY191061AY261061GF106991031051004501071001MA1999999098831MD1999999-0031MW1021REMSYN082AAXX  11184 82571 21497 60502 10292 20229 39883 40079 70296 83570 333 59003 69921;
0218825710999992000011200004-05500-045270FM-12+017499999V0209999C000012200019N0100001N1+02541+02401100871ADDAA106000091AY191061GF101991011001017501011001KA1240M+03091MA1999999098901MD1999999-0151MW1021REMSYN094AAXX  12004 82571 31797 10000 10254 20240 39890 40087 7029/ 81010 333 10309 29084 55048 59015;EQDQ01  00002PRCP06
0173825710999992000011212004-05500-045270FM-12+017499999V0200501N002110042019N0100001N1+02571+02361101091ADDAA124000191GF107991071051004501001001KA1240N+02161MA1999999099121MD1999999-0121REMSYN082AAXX  12124 82571 22497 70504 10257 20236 39912 40109 87500 333 20216 59012 69924;
0174825710999992000011218004-05500-045270FM-12+017499999V0201401N003110450019N0100001N1+03121+02221100671ADDAA106000191AY161061GF105991031021008001011011MA1999999098721MD1999999-0111MW1011REMSYN082AAXX  12184 82571 21597 51406 10312 20222 39872 40067 7016/ 83211 333 59011 69921;
0205825710999992000011300004-05500-045270FM-12+017499999V0201801N001010450019N0040001N1+02241+02171101051ADDAA106001091AY191061GF108991031071004501021999KA1240M+03181MA1999999099061MD1999999+0161MW1951REMSYN100AAXX  13004 82571 21496 81802 10224 20217 39906 40105 7959/ 8372/ 333 10318 29085 55058 58016 60011;
0193825710999992000011312004-05500-045270FM-12+017499999V0200901N001010450019N0100001N1+02381+02351101321ADDAA124001091AY161061GF108991041071004501021999KA1240N+02121MA1999999099321MD1999999+0201MW1021REMSYN088AAXX  13124 82571 21497 80902 10238 20235 39932 40132 7026/ 8472/ 333 20212 58020 60014;
0174825710999992000011318004-05500-045270FM-12+017499999V0202301N002110450019N0100001N1+02721+02431100931ADDAA106004191AY161061GF107991031021008001071001MA1999999098951MD1999999+0231MW1021REMSYN082AAXX  13184 82571 21597 72304 10272 20243 39895 40093 7026/ 83270 333 58023 60041;
0214825710999992000011400004-05500-045270FM-12+017499999V0202301N001010120019N0100001N1+02441+02341101111ADDAA199000091GF107991071081008001001001KA1240M+02851MA1999999099121MD1999999+0061MW1131REMSYN098    AAXX  14004 82571 31597 72302 10244 20234 39912 40111 713// 87800 333 10285 29092 55003 58006;EQDQ01  00002PRCP99
0177825710999992000011412004-05500-045270FM-12+017499999V0201801N001010450019N0100001N1+02431+02331101141ADDAA124004191GF106991031021004501031001KA1240N+02181MA1999999099161MD1999999-0161REMSYN086    AAXX  14124 82571 22497 61802 10243 20233 39916 40114 83230 333 20218 59016 60044;
0171825710999992000011418004-05500-045270FM-12+017499999V0202701N001012200019N0100001N1+03081+02371100661ADDAA199000091GF104991031021008001011001MA1999999098711MD1999999-0241REMSYN074    AAXX  14184 82571 32597 42702 10308 20237 39871 40066 83210 333 59024;EQDQ01  00002PRCP99
0197825710999992000011512004-05500-045270FM-12+017499999V0200901N001010450019N0100001N1+02421+02261101141ADDAA124005191AY161061GF107991031021004501071001KA1240N+02101MA1999999099151MD1999999-0011MW1021REMSYN092    AAXX  15124 82571 21497 70902 10242 20226 39915 40114 7026/ 83270 333 20210 59001 60054;
0214825710999992000011600004-05500-045270FM-12+017499999V0200901N001012200019N0100001N1+02621+02441100841ADDAA199000091GF104991041021004501001001KA1240M+03141MA1999999098871MD1999999-0101MW1131REMSYN098    AAXX  16004 82571 31497 40902 10262 20244 39887 40084 713// 84200 333 10314 29084 55040 59010;EQDQ01  00002PRCP99
0190825710999992000011612004-05500-045270FM-12+017499999V0200501N001010042019N0100001N1+02421+02261101191ADDAA199000091GF108991081051004501999999KA1240N+02141MA1999999099211MD1999999+0061REMSYN080    AAXX  16124 82571 32497 80502 10242 20226 39921 40119 885// 333 20214 58006;EQDQ01  00002PRCP99
0171825710999992000011618004-05500-045270FM-12+017499999V0201801N001010450019N0100001N1+02981+02401100801ADDAA199000091GF106991041021008001011001MA1999999098851MD1999999+0071REMSYN074    AAXX  16184 82571 32597 61802 10298 20240 39885 40080 84210 333 58007;EQDQ01  00002PRCP99
0202825710999992000011700004-05500-045270FM-12+017499999V0209999C000012200019N0100001N1+02561+02381100961ADDAA199000091GF102991021001017501011001KA1240M+03061MA1999999098981MD1999999+0111REMSYN092    AAXX  17004 82571 32797 20000 10256 20238 39898 40096 82010 333 10306 29086 55048 58011;EQDQ01  00002PRCP99
0190825710999992000011712004-05500-045270FM-12+017499999V0203601N001012200019N0100001N1+02601+02371101211ADDAA199000091GF104991011021004501031001KA1240N+02191MA1999999099241MD1999999+0031REMSYN080    AAXX  17124 82571 32497 43602 10260 20237 39924 40121 81230 333 20219 58003;EQDQ01  00002PRCP99
0171825710999992000011718004-05500-045270FM-12+017499999V0200501N002110075019N0100001N1+03091+02241100841ADDAA199000091GF105991051021008001001001MA1999999098891MD1999999+0041REMSYN074    AAXX  17184 82571 32597 50504 10309 20224 39889 40084 85200 333 58004;EQDQ01  00002PRCP99
0217825710999992000011800004-05500-045270FM-12+017499999V0200901N001012200019N0100001N1+02501+02401101141ADDAA106000191AY191061AY261061GF102991021001017501031001KA1240M+03171MA1999999099161MD1999999+0181MW1131REMSYN104    AAXX  18004 82571 21797 20902 10250 20240 39916 40114 71396 82030 333 10317 29084 55084 58018 69921;
0177825710999992000011812004-05500-045270FM-12+017499999V0200501N003112200019N0100001N1+02631+02251101421ADDAA124000191GF103991021011004501031001KA1240N+02131MA1999999099441MD1999999+0201REMSYN086    AAXX  18124 82571 22497 30506 10263 20225 39944 40142 82130 333 20213 58020 69924;
0178825710999992000011818004-05500-045270FM-12+017499999V0200501N002112200019N0100001N1+03121+02281100931ADDAA106000191AY161061GF104991031021008001011001MA1999999098971MD1999999+0081MW1011REMSYN086    AAXX  18184 82571 21597 40504 10312 20228 39897 40093 7016/ 83210 333 58008 69921;
0214825710999992000011900004-05500-045270FM-12+017499999V0200901N001010450019N0100001N1+02651+02331101151ADDAA199000091GF105991031021004501011001KA1240M+03181MA1999999099181MD1999999+0021MW1131REMSYN098    AAXX  19004 82571 31497 50902 10265 20233 39918 40115 713// 83210 333 10318 29077 55102 58002;EQDQ01  00002PRCP99
0197825710999992000011912004-05500-045270FM-12+017499999V0201801N001010042019N0100001N1+02491+02341101431ADDAA124000591AY161061GF107991071051004501001001KA1240N+02221MA1999999099451MD1999999+0011MW1021REMSYN092    AAXX  19124 82571 21497 71802 10249 20234 39945 40143 7026/ 87500 333 20222 58001 69954;
0167825710999992000011918004-05500-045270FM-12+017499999V0202701N001012200019N0100001N1+02981+02331100921ADDAA199000091GF104991031031004501041001MA1999999098961MD1999999+0011REMSYN070AAXX  19184 82571 32497 42702 10298 20233 39896 40092 83340 333 58001;EQDQ01  00002PRCP99
0213825710999992000012000004-05500-045270FM-12+017499999V0202301N001010090019N0100001N1+02501+02451101251ADDAA106007991AY191061AY261061GF107991071081004501001001KA1240M+03101MA1999999099271MD1999999+0091MW1131REMSYN100AAXX  20004 82571 21497 72302 10250 20245 39927 40125 71396 87800 333 10310 29088 55045 58009 60081;
0193825710999992000012012004-05500-045270FM-12+017499999V0202701N001010090019N0100001N1+02491+02381101401ADDAA124007991AY161061GF107991071081004501001001KA1240N+02191MA1999999099421MD1999999-0031MW1021REMSYN088AAXX  20124 82571 21497 72702 10249 20238 39942 40140 7026/ 87800 333 20219 59003 60084;
0167825710999992000012018004-05500-045270FM-12+017499999V0202701N002112200019N0100001N1+03121+02411100911ADDAA199000091GF104991031021008001011001MA1999999098961MD1999999+0001REMSYN070AAXX  20184 82571 32597 42704 10312 20241 39896 40091 83210 333 58000;EQDQ01  00002PRCP99
0198825710999992000012100004-05500-045270FM-12+017499999V0203601N003110042019N0100001N1+02561+02291101261ADDAA199000091GF106991061021004501001001KA1240M+03221MA1999999099281MD1999999+0011REMSYN088AAXX  21004 82571 32497 63606 10256 20229 39928 40126 86200 333 10322 29082 55071 58001;EQDQ01  00002PRCP99
0186825710999992000012112004-05500-045270FM-12+017499999V0200501N001010042019N0100001N1+02361+02311101341ADDAA199000091GF108991081051004501999999KA1240N+02061MA1999999099351MD1999999-0071REMSYN076AAXX  21124 82571 32497 80502 10236 20231 39935 40134 885// 333 20206 59007;EQDQ01  00002PRCP99
0174825710999992000012118004-05500-045270FM-12+017499999V0200501N002110450019N0100001N1+03011+02271100831ADDAA106000191AY161061GF105991031021008001011001MA1999999098871MD1999999-0091MW1021REMSYN082AAXX  21184 82571 21597 50504 10301 20227 39887 40083 7026/ 83210 333 59009 69911;
0210825710999992000012200004-05500-045270FM-12+017499999V0200501N003110090019N0100001N1+02391+02211101251ADDAA199000091GF107991051081004501011001KA1240M+03091MA1999999099261MD1999999-0021MW1131REMSYN094AAXX  22004 82571 31497 70506 10239 20221 39926 40125 713// 85810 333 10309 29086 55060 59002;EQDQ01  00002PRCP99
0173825710999992000012212004-05500-045270FM-12+017499999V0200901N001010042019N0100001N1+02461+02361101421ADDAA124001091GF107991061021004501031001KA1240N+02081MA1999999099431MD1999999+0081REMSYN082AAXX  22124 82571 22497 70902 10246 20236 39943 40142 86230 333 20208 58008 60014;
0167825710999992000012218004-05500-045270FM-12+017499999V0200501N001012200019N0100001N1+03101+02261100921ADDAA199000091GF104991041021008001001001MA1999999098961MD1999999+0091REMSYN070AAXX  22184 82571 32597 40502 10310 20226 39896 40092 84200 333 58009;EQDQ01  00002PRCP99
0210825710999992000012300004-05500-045270FM-12+017499999V0209999C000012200019N0100001N1+02601+02421101181ADDAA199000091GF103991021051004501011001KA1240M+03161MA1999999099201MD1999999-0061MW1131REMSYN094AAXX  23004 82571 31497 30000 10260 20242 39920 40118 713// 82510 333 10316 29084 55050 59006;EQDQ01  00002PRCP99
0193825710999992000012312004-05500-045270FM-12+017499999V0201401N001010450019N0100001N1+02561+02331101311ADDAA124013091AY161061GF106991031021004501031001KA1240N+02091MA1999999099341MD1999999-0091MW1021REMSYN088AAXX  23124 82571 21497 61402 10256 20233 39934 40131 7026/ 83230 333 20209 59009 60134;
0218825710999992000012400004-05500-045270FM-12+017499999V0202701N001010042019N0100001N1+02571+02351101191ADDAA199000091AY191061GF106991061051004501001001KA1240M+03171MA1999999099211MD1999999+0011MW1131REMSYN094AAXX  24004 82571 31497 62702 10257 29235 39921 40119 7139/ 86500 333 10317 29081 55099 58001;EQDQ01  00002PRCP99
0193825710999992000012412004-05500-045270FM-12+017499999V0203201N001010042019N0100001N1+02351+02261101351ADDAA106006191AY161061GF108991061051004501011001KA1240N+02131MA1999999099361MD1999999+0021MW1021REMSYN088AAXX  24124 82571 21497 83202 10235 20226 39936 40135 7026/ 86510 333 20213 58002 60061;
0167825710999992000012418004-05500-045270FM-12+017499999V0200501N001010450019N0100001N1+02901+02341100931ADDAA199000091GF105991031021008001011011MA1999999098961MD1999999+0071REMSYN070AAXX  24184 82571 32597 50502 10290 20234 39896 40093 83211 333 58007;EQDQ01  00002PRCP99
0198825710999992000012500004-05500-045270FM-12+017499999V0200901N001010450019N0100001N1+02551+02331101171ADDAA199000091GF105991031021004501031001KA1240M+02981MA1999999099191MD1999999-0021REMSYN088AAXX  25004 82571 32497 50902 10255 20233 39919 40117 83230 333 10298 29086 55046 59002;EQDQ01  00002PRCP99
0186825710999992000012512004-05500-045270FM-12+017499999V0200501N002110042019N0100001N1+02591+02371101321ADDAA199000091GF106991051051004501011001KA1240N+02221MA1999999099341MD1999999-0021REMSYN076AAXX  25124 82571 32497 60504 10259 20237 39934 40132 85510 333 20222 59002;EQDQ01  00002PRCP99
0167825710999992000012518004-05500-045270FM-12+017499999V0200501N002110450019N0100001N1+03041+02281100941ADDAA199000091GF106991031021008001011011MA1999999098981MD1999999+0021REMSYN070AAXX  25184 82571 32597 60504 10304 20228 39898 40094 83211 333 58002;EQDQ01  00002PRCP99
0198825710999992000012600004-05500-045270FM-12+017499999V0209999C000012200019N0100001N1+02601+02311101121ADDAA199000091GF103991031001017501011001KA1240M+03111MA1999999099151MD1999999-0041REMSYN088AAXX  26004 82571 32797 30000 10260 20231 39915 40112 83010 333 10311 29080 55065 59004;EQDQ01  00002PRCP99
0186825710999992000012612004-05500-045270FM-12+017499999V0200501N002112200019N0100001N1+02601+02351101421ADDAA199000091GF103991031021004501001001KA1240N+02071MA1999999099451MD1999999+0111REMSYN076AAXX  26124 82571 32497 30504 10260 20235 39945 40142 83200 333 20207 58011;EQDQ01  00002PRCP99
0167825710999992000012618004-05500-045270FM-12+017499999V0200501N001012200019N0100001N1+03161+02231100981ADDAA199000091GF104991041021008001001001MA1999999099031MD1999999+0051REMSYN070AAXX  26184 82571 32597 40502 10316 20223 39903 40098 84200 333 58005;EQDQ01  00002PRCP99
0208825710999992000012700004-05500-045270FM-12+017499999V0209999C000012200019N0100001N1+02621+02371101171ADDAA199000091GA1001+999999999GF100991001001999999001001KA1240M+03251MA1999999099201MD1999999+0051REMSYN082AAXX  27004 82571 32997 00000 10262 20237 39920 40117 333 10325 29079 55100 58005;EQDQ01  00002PRCP99
0186825710999992000012712004-05500-045270FM-12+017499999V0200501N001012200019N0100001N1+02681+02391101381ADDAA199000091GF103991031031004501011001KA1240N+02101MA1999999099411MD1999999-0041REMSYN076AAXX  27124 82571 32497 30502 10268 20239 39941 40138 83310 333 20210 59004;EQDQ01  00002PRCP99
0167825710999992000012718004-05500-045270FM-12+017499999V0200501N001010450019N0100001N1+03181+02311100971ADDAA199000091GF105991031021008001011011MA1999999099021MD1999999-0011REMSYN070AAXX  27184 82571 32597 50502 10318 20231 39902 40097 83211 333 59001;EQDQ01  00002PRCP99
0208825710999992000012800004-05500-045270FM-12+017499999V0209999C000012200019N0100001N1+02651+02391101171ADDAA199000091GA1001+999999999GF100991001001999999001001KA1240M+03281MA1999999099201MD1999999+0001REMSYN082AAXX  28004 82571 32997 00000 10265 20239 39920 40117 333 10328 29079 55108 58000;EQDQ01  00002PRCP99
0186825710999992000012812004-05500-045270FM-12+017499999V0200501N001012200019N0100001N1+02621+02411101301ADDAA199000091GF102991021011004501001001KA1240N+02131MA1999999099331MD1999999-0081REMSYN076AAXX  28124 82571 32497 20502 10262 20241 39933 40130 82100 333 20213 59008;EQDQ01  00002PRCP99
0167825710999992000012818004-05500-045270FM-12+017499999V0200901N001012200019N0100001N1+03221+02401100831ADDAA199000091GF103991031021008001001001MA1999999098881MD1999999-0141REMSYN070AAXX  28184 82571 32597 30902 10322 20240 39888 40083 83200 333 59014;EQDQ01  00002PRCP99
0210825710999992000012900004-05500-045270FM-12+017499999V0202301N001012200019N0100001N1+02681+02391101091ADDAA199000091GF103991021031008001031031KA1240M+03281MA1999999099131MD1999999-0071MW1131REMSYN094AAXX  29004 82571 31597 32302 10268 20239 39913 40109 713// 82333 333 10328 29080 55094 59007;EQDQ01  00002PRCP99
0186825710999992000012912004-05500-045270FM-12+017499999V0200501N002110042019N0100001N1+02621+02441101311ADDAA199000091GF107991071051004501001001KA1240N+02191MA1999999099341MD1999999+0011REMSYN076AAXX  29124 82571 32497 70504 10262 20244 39934 40131 87500 333 20219 58001;EQDQ01  00002PRCP99
0205825710999992000013000004-05500-045270FM-12+017499999V0201401N001012200019N0100001N1+02291+02231101151ADDAA106001091AY161061GF101991011001017501041001KA1240M+03151MA1999999099171MD1999999+0041MW1131REMSYN100AAXX  30004 82571 21797 11402 10229 20223 39917 40115 7136/ 81040 333 10315 29095 55047 58004 60011;
0193825710999992000013012004-05500-045270FM-12+017499999V0200501N001010450019N0100001N1+02491+02341101431ADDAA124001091AY141061GF106991031021004501031011KA1240N+02041MA1999999099441MD1999999+0101MW1021REMSYN088AAXX  30124 82571 21497 60502 10249 20234 39944 40143 7024/ 83231 333 20204 58010 60014;
0208825710999992000013100004-05500-045270FM-12+017499999V0209999C000012200019N0100001N1+02591+02311101261ADDAA199000091GA1001+999999999GF100991001001999999001001KA1240M+03101MA1999999099281MD1999999-0111REMSYN082AAXX  31004 82571 32997 00000 10259 20231 39928 40126 333 10310 29082 55087 59011;EQDQ01  00002PRCP99
0201825710999992000013112004-05500-045270FM-12+017499999V0202701N001010450019N0100001N1+02541+02421101581ADDAA124048091AY191061AY261061GF107991031021004501011001KA1240N+02161MA1999999099601MD1999999+0161MW1021REMSYN088AAXX  31124 82571 21497 72702 10254 20242 39960 40158 70296 83210 333 20216 58016 60484;
0167825710999992000013118004-05500-045270FM-12+017499999V0200901N001012200019N0100001N1+03161+02291101161ADDAA199000091GF104991031021008001011001MA1999999099201MD1999999+0041REMSYN070AAXX  31184 82571 32597 40902 10316 20229 39920 40116 83210 333 58004;EQDQ01  00002PRCP99
0210825710999992000020100004-05500-045270FM-12+017499999V0209999C000012200019N0100001N1+02701+99999101271ADDAA199000091GF102991021031004501001001KA1240M+03251MA1999999099301MD1999999+0021MW1131REMSYN094AAXX  01004 82571 31497 20000 10270 2//// 39930 40127 713// 82300 333 10325 29/// 55079 58002;EQDQ01  00002PRCP99
0193825710999992000020112004-05500-045270FM-12+017499999V0202701N001012200019N0100001N1+02521+99999101601ADDAA124002091AY161061GF102991011011004501011001KA1240N+02081MA1999999099621MD1999999+0021MW1021REMSYN088AAXX  01124 82571 21497 22702 10252 2//// 39962 40160 7026/ 81110 333 20208 58002 60024;
0167825710999992000020118004-05500-045270FM-12+017499999V0200501N001012200019N0100001N1+03191+99999101071ADDAA199000091GF103991031021004501001001MA1999999099121MD1999999-0081REMSYN070AAXX  01184 82571 32497 30502 10319 2//// 39912 40107 83200 333 59008;EQDQ01  00002PRCP99
0210825710999992000020200004-05500-045270FM-12+017499999V0200501N001012200019N0100001N1+02721+99999101271ADDAA199000091GF102991021031004501001001KA1240M+03271MA1999999099301MD1999999+0001MW1131REMSYN094AAXX  02004 82571 31497 20502 10272 2//// 39930 40127 713// 82300 333 10327 29/// 55103 58000;EQDQ01  00002PRCP99
0185825710999992000020212004-05500-045270FM-12+017499999V0201401N001010075019N0100001N1+02841+99999101481ADDAA199000091GF108991081051008001999999KA1240N+02131MA1999999099521MD1999999-0101REMSYN075AAXX  02124 82571 32597 81402 102842//// 39952 40148 885// 333 20213 59010;EQDQ01  00002PRCP99
0220825710999992000020300004-05500-045270FM-12+017499999V0200501N001012200019N0100001N1+02381+99999101251ADDAA199000091GA1001+999999999GF100991001001999999001001KA1240M+02811MA1999999099281MD1999999-0021MW1131REMSYN088AAXX  03004 82571 31997 00502 10238 2//// 39928 40125 713// 333 10281 29/// 55000 59002;EQDQ01  00002PRCP99
0201825710999992000020312004-05500-045270FM-12+017499999V0200501N003112200019N0100001N1+02501+99999101331ADDAA124006191AY101061AY241061GF104991021021008001001011KA1240N+02071MA1999999099341MD1999999-0181MW1011REMSYN088AAXX  03124 82571 21597 40506 10250 2//// 39934 40133 70104 82201 333 20207 59018 60064;
0167825710999992000020318004-05500-045270FM-12+017499999V0203601N003110450019N0100001N1+03061+99999100861ADDAA199000091GF106991031031008001031011MA1999999098901MD1999999-0281REMSYN070AAXX  03184 82571 32597 63606 10306 2//// 39890 40086 83331 333 59028;EQDQ01  00002PRCP99
0208825710999992000020400004-05500-045270FM-12+017499999V0209999C000012200019N0100001N1+02481+99999101151ADDAA199000091GA1001+999999999GF100991001001999999001001KA1240M+03131MA1999999099171MD1999999-0111REMSYN082AAXX  04004 82571 32997 00000 10248 2//// 39917 40115 333 10313 29/// 55084 59011;EQDQ01  00002PRCP99
0186825710999992000020412004-05500-045270FM-12+017499999V0200901N001010075019N0100001N1+02461+99999101471ADDAA199000091GF107991071051008001001001KA1240N+02161MA1999999099481MD1999999+0141REMSYN076AAXX  04124 82571 32597 70902 10246 2//// 39948 40147 87500 333 20216 58014;EQDQ01  00002PRCP99
0167825710999992000020418004-05500-045270FM-12+017499999V0200501N005112200019N0100001N1+02961+99999101071ADDAA199000091GF106991041051008001001011MA1999999099111MD1999999+0211REMSYN070AAXX  04184 82571 32597 60510 10296 2//// 39911 40107 84501 333 58021;EQDQ01  00002PRCP99
0208825710999992000020500004-05500-045270FM-12+017499999V0209999C000012200019N0100001N1+02411+99999101261ADDAA199000091GA1001+999999999GF100991001001999999001001KA1240M+03021MA1999999099271MD1999999+0101REMSYN082AAXX  05004 82571 32997 00000 10241 2//// 39927 40126 333 10302 29/// 55039 58010;EQDQ01  00002PRCP99
0193825710999992000020512004-05500-045270FM-12+017499999V0200901N000510042019N0100001N1+02421+99999101181ADDAA124038191AY161061GF108991081051004501999999KA1240N+02161MA1999999099491MD1999999+0011MW1021REMSYN088AAXX  05124 82571 21497 80901 10242 2//// 39949 40118 7026/ 885// 333 20216 58001 60384;
0174825710999992000020518004-05500-045270FM-12+017499999V0201401N001010075019N0100001N1+02621+99999101151ADDAA106005191AY161061GF108991081051008001999999MA1999999099171MD1999999+0061MW1021REMSYN082AAXX  05184 82571 21597 81402 10262 2//// 39917 40115 7026/ 885// 333 58006 60051;
0208825710999992000020600004-05500-045270FM-12+017499999V0209999C000012200019N0100001N1+02561+99999101281ADDAA199000091GA1001+999999999GF100991001001999999001001KA1240M+02891MA1999999099301MD1999999+0031REMSYN082AAXX  06004 82571 32997 00000 10256 2//// 39930 40128 333 10289 29/// 55003 58003;EQDQ01  00002PRCP99
0193825710999992000020612004-05500-045270FM-12+017499999V0201801N001010075019N0100001N1+02381+99999101561ADDAA124006191AY161061GF108991081051008001999999KA1240N+02201MA1999999099571MD1999999+0081MW1021REMSYN088AAXX  06124 82571 21597 81802 10238 2//// 39957 40156 7026/ 885// 333 20220 58008 60064;
0167825710999992000020618004-05500-045270FM-12+017499999V0201401N001010075019N0100001N1+02661+99999101281ADDAA199000091GF108991081051008001999999MA1999999099301MD1999999+0131REMSYN070AAXX  06184 82571 32597 81402 10266 2//// 39930 40128 885// 333 58013;EQDQ01  00002PRCP99
0198825710999992000020700004-05500-045270FM-12+017499999V0209999C000010075019N0100001N1+02541+99999101391ADDAA199000091GF108991081051008001999999KA1240M+02881MA1999999099401MD1999999+0101REMSYN088AAXX  07004 82571 32597 80000 10254 20/// 39940 40139 885// 333 10288 29/// 55000 58010;EQDQ01  00002PRCP99
0193825710999992000020712004-05500-045270FM-12+017499999V0203201N001010042019N0100001N1+02461+99999101551ADDAA124000191AY161061GF107991071051004501001001KA1240N+02181MA1999999099561MD1999999-0011MW1021REMSYN088AAXX  07124 82571 21497 73202 10246 2//// 39956 40155 7026/ 87500 333 20218 59001 69914;
0174825710999992000020718004-05500-045270FM-12+017499999V0202301N001010042019N0100001N1+02451+99999101381ADDAA106004191AY161061GF108991081051004501999999MA1999999099391MD1999999+0091MW1021REMSYN082AAXX  07184 82571 21497 82302 10245 2//// 39939 40138 7026/ 885// 333 58009 60041;
0205825710999992000020800004-05500-045270FM-12+017499999V0201401N001010075019N0100001N1+02281+99999101471ADDAA106002091AY161061GF108991081051008001999999KA1240M+02651MA1999999099471MD1999999+0071MW1601REMSYN100AAXX  08004 82571 21597 81402 10228 2//// 39947 40147 7606/ 885// 333 10265 29/// 55002 58007 60021;
0201825710999992000020812004-05500-045270FM-12+017499999V0202701N001010042019N0100001N1+02221+99999101591ADDAA124006191AY161061AY241061GF108991081051004501999999KA1240N+02211MA1999999099581MD1999999+0021MW1021REMSYN088AAXX  08124 82571 21497 82702 10222 2//// 39958 40159 70264 885// 333 20221 58002 60064;
0167825710999992000020818004-05500-045270FM-12+017499999V0200501N001012200019N0100001N1+03101+99999101041ADDAA199000091GF103991031021008001001001MA1999999099071MD1999999-0031REMSYN070AAXX  08184 82571 32597 30502 10310 2//// 39907 40104 83200 333 59003;EQDQ01  00002PRCP99
0210825710999992000020900004-05500-045270FM-12+017499999V0200501N001012200019N0100001N1+02511+99999101321ADDAA199000091GF102991021031004501001001KA1240M+03211MA1999999099331MD1999999-0131MW1131REMSYN094AAXX  09004 82571 31497 20502 10251 20/// 39933 40132 713// 82300 333 10321 29/// 55059 59013;EQDQ01  00002PRCP99
0193825710999992000020912004-05500-045270FM-12+017499999V0200501N001010042019N0100001N1+02471+99999101481ADDAA124001091AY161061GF108991081051004501999999KA1240N+02221MA1999999099491MD1999999+0091MW1021REMSYN088AAXX  09124 82571 21497 80502 10247 2//// 39949 40148 7026/ 885// 333 20222 58009 69994;
0167825710999992000020918004-05500-045270FM-12+017499999V0200501N002112200019N0100001N1+03081+99999100981ADDAA199000091GF104991031021008001011001MA1999999099021MD1999999-0051REMSYN070AAXX  09184 82571 32597 40504 10308 2//// 39902 40098 83210 333 59005;EQDQ01  00002PRCP99
0210825710999992000021000004-05500-045270FM-12+017499999V0200501N001012200019N0100001N1+02681+99999101201ADDAA199000091GF103991031031004501001001KA1240M+03151MA1999999099231MD1999999-0101MW1131REMSYN094AAXX  10004 82571 31497 30502 10268 2//// 39923 40120 713// 83300 333 10315 29/// 55072 59010;EQDQ01  00002PRCP99
0201825710999992000021012004-05500-045270FM-12+017499999V0200501N001012200019N0100001N1+02431+99999101431ADDAA124013091AY191061AY261061GF104991021021004501011011KA1240N+02121MA1999999099451MD1999999-0041MW1031REMSYN088AAXX  10124 82571 21497 40502 10243 2//// 39945 40143 70396 82211 333 20212 59004 60134;
0167825710999992000021018004-05500-045270FM-12+017499999V0201801N001010120019N0100001N1+02671+99999101051ADDAA199000091GF106991061081008001001001MA1999999099081MD1999999+0061REMSYN070AAXX  10184 82571 32597 61802 10267 2//// 39908 40105 86800 333 58006;EQDQ01  00002PRCP99
0198825710999992000021100004-05500-045270FM-12+017499999V0209999C000012200019N0100001N1+02441+99999101271ADDAA199000091GF101991011001017501041001KA1240M+03201MA1999999099281MD1999999+0051REMSYN088AAXX  11004 82571 32797 10000 10244 2//// 39928 40127 81040 333 10320 29/// 55075 58005;EQDQ01  00002PRCP99
0193825710999992000021112004-05500-045270FM-12+017499999V0200501N001010042019N0100001N1+02171+99999101461ADDAA124004191AY161061GF108991081051004501999999KA1240N+01961MA1999999099461MD1999999+0011MW1021REMSYN088AAXX  11124 82571 21497 80502 10217 2//// 39946 40146 7026/ 885// 333 20196 58001 60044;
0167825710999992000021118004-05500-045270FM-12+017499999V0200501N001012200019N0100001N1+03061+99999101061ADDAA199000091GF104991031021008001001011MA1999999099101MD1999999+0021REMSYN070AAXX  11184 82571 32597 40502 10306 2//// 39910 40106 83201 333 58002;EQDQ01  00002PRCP99
0218825710999992000021200004-05500-045270FM-12+017499999V0200501N001012200019N0100001N1+02541+99999101181ADDAA199000091AY191061GF102991021041017501001001KA1240M+03181MA1999999099191MD1999999-0091MW1021REMSYN094AAXX  12004 82571 31797 20502 10254 2//// 39919 40118 7029/ 82400 333 10318 29/// 55053 59009;EQDQ01  00002PRCP99
0201825710999992000021212004-05500-045270FM-12+017499999V0201401N001010042019N0040001N1+02291+99999101401ADDAA124006191AY191061AY261061GF107991071051004501001001KA1240N+02141MA1999999099411MD1999999-0051MW1951REMSYN088AAXX  12124 82571 21496 71402 10229 2//// 39941 40140 79596 87500 333 20214 59005 60064;
0174825710999992000021218004-05500-045270FM-12+017499999V0203601N001010450019N0100001N1+02821+99999100911ADDAA106000191AY161061GF107991021021008001071011MA1999999098941MD1999999-0161MW1021REMSYN082AAXX  12184 82571 21597 73602 10282 2//// 39894 40091 7026/ 82271 333 59016 69911;
0191825710999992000021300004-05500-045270FM-12+017499999V0209999C000012200019N0100001N1+02561+99999101131ADDAA199000021GF103991031001017501041001KA1240M+02911MA1999999099141MD1999999-0051MW1131REMSYN094AAXX  13004 82571 31797 30000 10256 2//// 39914 40113 713// 83040 333 10291 29/// 55016 59005;
0195825710999992000021312004-05500-045270FM-12+017499999V0201801N001019999999N0100001N1+02401+99999101391ADDAA124007991AY101061AY201061GF107991999999004501999999KA1240N+02181MA1999999099411MD1999999+0001MW1881REMSYN082AAXX  13124 82571 21497 71802 10240 2//// 39941 40139 78800 333 20218 58000 60084;
0148825710999992000021318004-05500-045270FM-12+017499999V0200501N001010075019N0100001N1+03061+99999101001ADDAA199000021GF107991051051008001041001MA1999999099041MD1999999+0101REMSYN070AAXX  13184 82571 32597 70502 10306 2//// 39904 40100 85540 333 58010;
0213825710999992000021400004-05500-045270FM-12+017499999V0200501N002110042019N0100001N1+02231+99999101391ADDAA106005191AY191061AY261061GF106991061051004501001001KA1240M+03211MA1999999099391MD1999999+0251MW1911REMSYN100AAXX  14004 82571 21497 60504 10223 2//// 39939 40139 79196 86500 333 10321 29/// 55052 58025 60051;
0193825710999992000021412004-05500-045270FM-12+017499999V0202301N001012200019N0100001N1+02401+99999101531ADDAA124006191AY161061GF103991021021008001001011KA1240N+02051MA1999999099531MD1999999+0121MW1011REMSYN088AAXX  14124 82571 21597 32302 10240 2//// 39953 40153 7016/ 82201 333 20205 58012 60064;
0187825710999992000021418004-05500-045270FM-12+017499999V0202301N003110075019N0100001N1+03071+99999101081ADDAA199000091AY191061GF106991061051008001001001MA1999999099111MD1999999+0071MW1031REMSYN076AAXX  14184 82571 31597 62306 10307 2//// 39911 40108 7039/ 86500 333 58007;EQDQ01  00002PRCP99
0205825710999992000021500004-05500-045270FM-12+017499999V0201801N001010042019N0100001N1+02211+99999101401ADDAA106006191AY161061GF108991081051004501999999KA1240M+03211MA1999999099401MD1999999+0011MW1021REMSYN100AAXX  15004 82571 21497 81802 10221 2//// 39940 40140 7026/ 885// 333 10321 29/// 55062 58001 60061;
0173825710999992000021512004-05500-045270FM-12+017499999V0201801N001010075019N0100001N1+02221+99999101431ADDAA124006191GF107991051051008001031001KA1240N+02001MA1999999099421MD1999999-0111REMSYN082AAXX  15124 82571 22597 71802 10222 2//// 39942 40143 85530 333 20200 59011 60064;
0179825710999992000021518004-05500-045270FM-12+017499999V0203201N001010450019N0100001N1+02981+99999101051ADDAA199000091GF106991041051008001041001MA1999999099041MD1999999-0071MW1171REMSYN076AAXX  15184 82571 31597 63202 10298 2//// 39904 40105 717// 84540 333 59007;EQDQ01  00002PRCP99
0213825710999992000021600004-05500-045270FM-12+017499999V0209999C000012200019N0100001N1+02501+99999101251ADDAA106007191AY191061AY261061GF102991021001017501051001KA1240M+03091MA1999999099261MD1999999-0141MW1011REMSYN100AAXX  16004 82571 21797 20000 10250 2//// 39926 40125 70196 82050 333 10309 29/// 55057 59014 60071;
0173825710999992000021612004-05500-045270FM-12+017499999V0202301N001010075019N0100001N1+02391+99999101431ADDAA124007191GF108991081051008001999999KA1240N+02171MA1999999099441MD1999999+0021REMSYN082AAXX  16124 82571 22597 82302 10239 2//// 39944 40143 885// 333 20217 58002 60074;
0167825710999992000021618004-05500-045270FM-12+017499999V0200501N003112200019N0100001N1+02981+99999100941ADDAA199000091GF104991041021008001001001MA1999999098981MD1999999-0061REMSYN070AAXX  16184 82571 32597 40506 10298 2//// 39898 40094 84200 333 59006;EQDQ01  00002PRCP99
0193825710999992000021712004-05500-045270FM-12+017499999V0201801N001010075019N0100001N1+02341+99999101451ADDAA124021191AY161061GF108991081051008001999999KA1240N+02091MA1999999099451MD1999999+0011MW1021REMSYN088AAXX  17124 82571 21597 81802 10234 2//// 39945 40145 7026/ 885// 333 20209 58001 60214;
0167825710999992000021718004-05500-045270FM-12+017499999V0200501N003112200019N0100001N1+03001+99999100941ADDAA199000091GF103991031021008001001001MA1999999098971MD1999999-0011REMSYN070AAXX  17184 82571 32597 30506 10300 2//// 39897 40094 83200 333 59001;EQDQ01  00002PRCP99
0193825710999992000021812004-05500-045270FM-12+017499999V0203201N001010075019N0100001N1+02261+99999101561ADDAA124000891AY161061GF108991081051008001999999KA1240N+02011MA1999999099571MD1999999+0121MW1021REMSYN088AAXX  18124 82571 21597 83202 10226 2//// 39957 40156 7026/ 885// 333 20201 58012 69984;
0167825710999992000021818004-05500-045270FM-12+017499999V0201401N001010075019N0100001N1+02881+99999101031ADDAA199000091GF107991071051008001001001MA1999999099061MD1999999+0091REMSYN070AAXX  18184 82571 32597 71402 10288 2//// 39906 40103 87500 333 58009;EQDQ01  00002PRCP99
0210825710999992000021900004-05500-045270FM-12+017499999V0202301N001012200019N0100001N1+02441+99999101431ADDAA199000091GF105991041001017501031011KA1240M+03001MA1999999099431MD1999999+0221MW1131REMSYN094AAXX  19004 82571 31797 52302 10244 2//// 39943 40143 713// 84031 333 10300 29/// 55044 58022;EQDQ01  00002PRCP99
0186825710999992000021912004-05500-045270FM-12+017499999V0202301N001010450019N0100001N1+02401+99999101481ADDAA199000091GF106991041051008001031001KA1240N+02141MA1999999099481MD1999999-0081REMSYN076AAXX  19124 82571 32597 62302 10240 2//// 39948 40148 84530 333 20214 59008;EQDQ01  00002PRCP99
0166825710999992000021918004-05500-045270FM-12+017499999V0200901N003110075019N0100001N1+02611+99999101121ADDAA106000591GF108991081051008001999999MA1999999099141MD1999999+0081MW1951REMSYN082AAXX  19184 82571 21597 80906 10261 2//// 39914 40112 795// 885// 333 58008 69961;
0213825710999992000022000004-05500-045270FM-12+017499999V0200901N001012200019N0100001N1+02361+99999101321ADDAA106002091AY191061AY261061GF102991021001017501041001KA1240M+03051MA1999999099331MD1999999-0101MW1131REMSYN100AAXX  20004 82571 21797 20902 10236 2//// 39933 40132 71396 82040 333 10305 29/// 55040 59010 60021;
0193825710999992000022012004-05500-045270FM-12+017499999V0200501N001010075019N0100001N1+02401+99999101561ADDAA124003091AY161061GF108991081051008001999999KA1240N+02071MA1999999099561MD1999999+0071MW1021REMSYN088AAXX  20124 82571 21597 80502 10240 2//// 39956 40156 7026/ 885// 333 20207 58007 60034;
0167825710999992000022018004-05500-045270FM-12+017499999V0200501N003112200019N0100001N1+03061+99999101051ADDAA199000091GF103991021021008001001011MA1999999099091MD1999999-0051REMSYN070AAXX  20184 82571 32597 30506 10306 2//// 39909 40105 82201 333 59005;EQDQ01  00002PRCP99
0208825710999992000022100004-05500-045270FM-12+017499999V0209999C000012200019N0100001N1+02541+99999101221ADDAA199000091GA1001+999999999GF100991001001999999001001KA1240M+03171MA1999999099241MD1999999-0021REMSYN082AAXX  21004 82571 32997 00000 10254 2//// 39924 40122 333 10317 29/// 55076 59002;EQDQ01  00002PRCP99
0167825710999992000022118004-05500-045270FM-12+017499999V0203201N001010450019N0100001N1+03041+99999101011ADDAA199000091GF105991031021008001011011MA1999999099051MD1999999-0041REMSYN070AAXX  21184 82571 32597 53202 10304 2//// 39905 40101 83211 333 59004;EQDQ01  00002PRCP99
0210825710999992000022200004-05500-045270FM-12+017499999V0201401N002112200019N0100001N1+02621+99999101231ADDAA199000091GF102991021001017501041001KA1240M+03151MA1999999099251MD1999999+0011MW1131REMSYN094AAXX  22004 82571 31797 21404 10262 2//// 39925 40123 713// 82040 333 10315 29/// 55080 58001;EQDQ01  00002PRCP99
0185825710999992000022212004-05500-045270FM-12+017499999V0201401N001010042019N0100001N1+02361+99999101391ADDAA124003091GF106991051051004501031001KA1240N+02081MA1999999099411MD1999999-0051MW1161REMSYN088AAXX  22124 82571 21497 61402 10236 2//// 39941 40139 716// 85530 333 20208 59005 60034;
0167825710999992000022218004-05500-045270FM-12+017499999V0203201N001012200019N0100001N1+03101+99999100861ADDAA199000091GF104991031021008001011001MA1999999098901MD1999999-0151REMSYN070AAXX  22184 82571 32597 43202 10310 2//// 39890 40086 83210 333 59015;EQDQ01  00002PRCP99
0213825710999992000022300004-05500-045270FM-12+017499999V0201401N001010042019N0100001N1+02371+99999101261ADDAA106048091AY191061AY261061GF105991051051004501001001KA1240M+03261MA1999999099271MD1999999+0021MW1911REMSYN100AAXX  23004 82571 21497 51402 10237 2//// 39927 40126 79196 85500 333 10326 29/// 55065 58002 60481;
0173825710999992000022312004-05500-045270FM-12+017499999V0202301N001010450019N0100001N1+02351+99999101481ADDAA124048091GF106991041021004501031011KA1240N+02121MA1999999099481MD1999999+0071REMSYN082AAXX  23124 82571 22497 62302 10235 2//// 39948 40148 84231 333 20212 58007 60484;
0205825710999992000022400004-05500-045270FM-12+017499999V0200501N002110450019N0020001N1+02261+99999101341ADDAA106054191AY191061GF108991041091004501021999KA1240M+03141MA1999999099341MD1999999+0071MW1951REMSYN100AAXX  24004 82571 21495 80504 10226 2//// 39934 40134 7959/ 8492/ 333 10314 29/// 55069 58007 60541;
0201825710999992000022412004-05500-045270FM-12+017499999V0200501N001010042019N0100001N1+02301+99999101241ADDAA124067191AY191061AY261061GF107991051021004501011001KA1240N+01991MA1999999099241MD1999999-0241MW1011REMSYN088AAXX  24124 82571 21497 70502 10230 2//// 39924 40124 70196 85210 333 20199 59024 60674;
0174825710999992000022418004-05500-045270FM-12+017499999V0203201N001010450019N0040001N1+02641+99999100991ADDAA106003091AY161061GF106991031071004501021001MA1999999099011MD1999999+0041MW1611REMSYN082AAXX  24184 82571 21496 63202 10264 2//// 39901 40099 7616/ 83720 333 58004 60031;
0213825710999992000022500004-05500-045270FM-12+017499999V0201401N001010450019N0040001N1+02441+99999101201ADDAA106011991AY191061AY261061GF108991041071004501021999KA1240M+02911MA1999999099211MD1999999-0131MW1951REMSYN100AAXX  25004 82571 21496 81402 10244 2//// 39921 40120 79596 8472/ 333 10291 29/// 55036 59013 60121;
0201825710999992000022512004-05500-045270FM-12+017499999V0200501N001012200019N0100001N1+02421+99999101281ADDAA124017091AY191061AY261061GF104991031021004501031001KA1240N+02081MA1999999099291MD1999999+0051MW1011REMSYN088AAXX  25124 82571 21497 40502 10242 2//// 39929 40128 70196 83230 333 20208 58005 60174;
0167825710999992000022518004-05500-045270FM-12+017499999V0200501N003112200019N0100001N1+02991+99999100911ADDAA199000091GF104991031021008001011001MA1999999098941MD1999999-0071REMSYN070AAXX  25184 82571 32597 40506 10299 2//// 39894 40091 83210 333 59007;EQDQ01  00002PRCP99
0173825710999992000022612004-05500-045270FM-12+017499999V0202301N001010450019N0100001N1+02481+99999101271ADDAA124000591GF105991031051008001031001KA1240N+02091MA1999999099291MD1999999+0001REMSYN082AAXX  26124 82571 22597 52302 10248 2//// 39929 40127 83530 333 20209 58000 69964;
0182825710999992000022618004-05500-045270FM-12+017499999V0202301N001010450019N0100001N1+02671+99999100961ADDAA106014091AY191061AY261061GF106991021031008001061011MA1999999098971MD1999999+0031MW1021REMSYN082AAXX  26184 82571 21597 62302 10267 2//// 39897 40096 70296 82361 333 58003 60141;
0220825710999992000022700004-05500-045270FM-12+017499999V0209999C000012200019N0100001N1+02701+99999101151ADDAA199000091GA1001+999999999GF100991001001999999001001KA1240M+02941MA1999999099171MD1999999+0021MW1131REMSYN088AAXX  27004 82571 31997 00000 10270 2//// 39917 40115 713// 333 10294 29/// 55032 58002;EQDQ01  00002PRCP99
0193825710999992000022712004-05500-045270FM-12+017499999V0202701N001010450019N0100001N1+02521+99999101331ADDAA124019191AY161061GF106991021021008001031011KA1240N+02201MA1999999099361MD1999999+0071MW1021REMSYN088AAXX  27124 82571 21597 62702 10252 2//// 39936 40133 7026/ 82231 333 20220 58007 60194;
0166825710999992000022718004-05500-045270FM-12+017499999V0200501N001010075019N0100001N1+02661+99999100911ADDAA106004191GF108991081051008001999999MA1999999098941MD1999999-0031MW1631REMSYN082AAXX  27184 82571 21597 80502 10266 2//// 39894 40091 763// 885// 333 59003 60041;
0213825710999992000022800004-05500-045270FM-12+017499999V0209999C000010075019N0100001N1+02421+99999101161ADDAA106002091AY191061AY261061GF108991081051008001999999KA1240M+03121MA1999999099181MD1999999+0011MW1131REMSYN100AAXX  28004 82571 21597 80000 10242 2//// 39918 40116 71396 885// 333 10312 29/// 55059 58001 60021;
0193825710999992000022812004-05500-045270FM-12+017499999V0202301N001010042019N0100001N1+02481+99999101381ADDAA124009991AY161061GF106991061021004501001001KA1240N+02081MA1999999099391MD1999999+0031MW1021REMSYN088AAXX  28124 82571 21497 62302 10248 2//// 39939 40138 7026/ 86200 333 20208 58003 60104;
0174825710999992000022818004-05500-045270FM-12+017499999V0203201N001012200019N0100001N1+03081+99999100881ADDAA106000191AY161061GF104991031021008001011001MA1999999098921MD1999999-0021MW1011REMSYN082AAXX  28184 82571 21597 43202 10308 2//// 39892 40088 7016/ 83210 333 59002 69911;
0205825710999992000022900004-05500-045270FM-12+017499999V0202301N001012200019N0100001N1+02241+02171101241ADDAA106003091AY161061GF104991041051004501001001KA1240M+03161MA1999999099251MD1999999+0071MW1611REMSYN100AAXX  29004 82571 21497 42302 10224 20217 39925 40124 7616/ 84500 333 10316 29/// 55089 58007 60031;
0193825710999992000022912004-05500-045270FM-12+017499999V0202301N001010075019N0100001N1+02281+02261101441ADDAA124004191AY161061GF107991051021008001011001KA1240N+02051MA1999999099441MD1999999+0051MW1011REMSYN088AAXX  29124 82571 21597 72302 10228 20226 39944 40144 7016/ 85210 333 20205 58005 60044;
0167825710999992000022918004-05500-045270FM-12+017499999V0203201N002110450019N0100001N1+03001+02491101101ADDAA199000091GF106991041051008001011001MA1999999099131MD1999999+0211REMSYN070AAXX  29184 82571 32597 63204 10300 20249 39913 40110 84510 333 58021;EQDQ01  00002PRCP99
0213825710999992000030100004-05500-045270FM-12+017499999V0200501N001010042019N0040001N1+02381+02331101361ADDAA106000891AY191061AY261061GF106991061051004501001001KA1240M+03081MA1999999099361MD1999999+0111MW1911REMSYN100AAXX  01004 82571 21496 60502 10238 20233 39936 40136 79196 86500 333 10308 29092 55029 58011 69971;
0173825710999992000030112004-05500-045270FM-12+017499999V0202701N001010042019N0100001N1+02431+02391101451ADDAA124000891GF107991071051004501001001KA1240N+02201MA1999999099461MD1999999+0021REMSYN082AAXX  01124 82571 22497 72702 10243 20239 39946 40145 87500 333 20220 58002 69974;
0167825710999992000030118004-05500-045270FM-12+017499999V0200901N003110450019N0100001N1+03041+02311101021ADDAA199000091GF105991031021008001011011MA1999999099061MD1999999-0071REMSYN070AAXX  01184 82571 32597 50906 10304 20231 39906 40102 83211 333 59007;EQDQ01  00002PRCP99
0186825710999992000030212004-05500-045270FM-12+017499999V0200501N001010042019N0100001N1+02551+02381101451ADDAA199000091GF106991051021004501011001KA1240N+02141MA1999999099471MD1999999+0011REMSYN076AAXX  02124 82571 32497 60502 10255 20238 39947 40145 85210 333 20214 58001;EQDQ01  00002PRCP99
0174825710999992000030218004-05500-045270FM-12+017499999V0202701N001012200019N0100001N1+02821+02481100901ADDAA106000891AY161061GF104991031021008001071001MA1999999098931MD1999999-0131MW1021REMSYN082AAXX  02184 82571 21597 42702 10282 20248 39893 40090 7026/ 83270 333 59013 69981;
0218825710999992000030300004-05500-045270FM-12+017499999V0200501N003110042019N0100001N1+02461+02281101271ADDAA199000091AY191061GF106991061051004501001001KA1240M+03071MA1999999099291MD1999999-0081MW1131REMSYN094AAXX  03004 82571 31497 60506 10246 20228 39929 40127 7139/ 86500 333 10307 29088 55069 59008;EQDQ01  00002PRCP99
0173825710999992000030312004-05500-045270FM-12+017499999V0203201N001010042019N0100001N1+02461+02361101351ADDAA124000891GF108991081051004501999999KA1240N+02101MA1999999099361MD1999999-0111REMSYN082AAXX  03124 82571 22497 83202 10246 20236 39936 40135 885// 333 20210 59011 69984;
0167825710999992000030318004-05500-045270FM-12+017499999V0200501N001010450019N0100001N1+03081+02371100851ADDAA199000091GF106991041021008001031001MA1999999098891MD1999999-0041REMSYN070AAXX  03184 82571 32597 60502 10308 20237 39889 40085 84230 333 59004;EQDQ01  00002PRCP99
0213825710999992000030400004-05500-045270FM-12+017499999V0202301N001010075019N0100001N1+02411+02351101151ADDAA106000591AY191061AY261061GF108991081051008001999999KA1240M+03141MA1999999099171MD1999999-0121MW1131REMSYN100AAXX  04004 82571 21597 82302 10241 20235 39917 40115 71396 885// 333 10314 29088 55064 59012 69941;
0173825710999992000030412004-05500-045270FM-12+017499999V0200501N001010450019N0100001N1+02561+02361101371ADDAA124000591GF106991041051008001031001KA1240N+02131MA1999999099361MD1999999+0031REMSYN082AAXX  04124 82571 22597 60502 10256 20236 39936 40137 84530 333 20213 58003 69944;
0174825710999992000030418004-05500-045270FM-12+017499999V0200501N001010450019N0100001N1+02911+02411101011ADDAA106002091AY161061GF105991031051008001031001MA1999999099041MD1999999+0151MW1031REMSYN082AAXX  04184 82571 21597 50502 10291 20241 39904 40101 7036/ 83530 333 58015 60021;
0223825710999992000030500004-05500-045270FM-12+017499999V0209999C000012200019N0100001N1+02491+02341101201ADDAA106000191AY191061AY261061GA1001+999999999GF100991001001999999001001KA1240M+03041MA1999999099221MD1999999-0051MW1001REMSYN094AAXX  05004 82571 21997 00000 10249 20234 39922 40120 70096 333 10304 29087 55071 59005 69911;
0173825710999992000030512004-05500-045270FM-12+017499999V0202701N001010450019N0100001N1+02481+02381101331ADDAA124000191GF106991021021008001041011KA1240N+02121MA1999999099351MD1999999-0041REMSYN082AAXX  05124 82571 22597 62702 10248 20238 39935 40133 82241 333 20212 59004 69914;
0167825710999992000030518004-05500-045270FM-12+017499999V0200501N001010450019N0100001N1+03121+02411100911ADDAA199000091GF106991041021008001031001MA1999999098951MD1999999-0091REMSYN070AAXX  05184 82571 32597 60502 10312 20241 39895 40091 84230 333 59009;EQDQ01  00002PRCP99
0210825710999992000030600004-05500-045270FM-12+017499999V0203201N001012200019N0100001N1+02541+02381101191ADDAA199000091GF103991031001017501061001KA1240M+03211MA1999999099211MD1999999-0011MW1131REMSYN094AAXX  06004 82571 31797 33202 10254 20238 39921 40119 713// 83060 333 10321 29086 55071 59001;EQDQ01  00002PRCP99
0193825710999992000030612004-05500-045270FM-12+017499999V0202301N001010075019N0100001N1+02281+02251101411ADDAA124006191AY191061GF108991081051008001999999KA1240N+02111MA1999999099421MD1999999+0071MW1921REMSYN088AAXX  06124 82571 21597 82302 10228 20225 39942 40141 7929/ 885// 333 20211 58007 60064;
0182825710999992000030618004-05500-045270FM-12+017499999V0202301N001010075019N0100001N1+02401+02351101131ADDAA106003091AY191061AY261061GF108991081051008001999999MA1999999099141MD1999999+0191MW1021REMSYN082AAXX  06184 82571 21597 82302 10240 20235 39914 40113 70296 885// 333 58019 60031;
0189825710999992000030700004-05500-045270FM-12+017499999V0209999C000012200019N0100001N1+02411+02351101271ADDAA199000021GA1001+999999999GF100991001001999999001001KA1240M+02591MA1999999099281MD1999999+0071REMSYN082AAXX  07004 82571 32997 00000 10241 20235 39928 40127 333 10259 29097 55000 58007;
0173825710999992000030712004-05500-045270FM-12+017499999V0201801N001010075019N0100001N1+02301+02271101311ADDAA124003091GF108991081051008001999999KA1240N+02081MA1999999099321MD1999999-0101REMSYN082AAXX  07124 82571 22597 81802 10230 20227 39932 40131 885// 333 20208 59010 60034;
0174825710999992000030718004-05500-045270FM-12+017499999V0200501N003110075019N0100001N1+02811+02361100991ADDAA106002091AY161061GF107991051051008001041001MA1999999099011MD1999999-0131MW1021REMSYN082AAXX  07184 82571 21597 70506 10281 20236 39901 40099 7026/ 85540 333 59013 60021;
0220825710999992000030800004-05500-045270FM-12+017499999V0209999C000012200019N0100001N1+02481+02391101111ADDAA199000091GA1001+999999999GF100991001001999999001001KA1240M+02891MA1999999099121MD1999999-0161MW1131REMSYN088AAXX  08004 82571 31997 00000 10248 20239 39912 40111 713// 333 10289 29091 55006 59016;EQDQ01  00002PRCP99
0173825710999992000030812004-05500-045270FM-12+017499999V0200501N001010075019N0100001N1+02451+02351101281ADDAA124002091GF108991081051008001999999KA1240N+02101MA1999999099291MD1999999-0031REMSYN082AAXX  08124 82571 22597 80502 10245 20235 39929 40128 885// 333 20210 59003 60024;
0167825710999992000030818004-05500-045270FM-12+017499999V0203601N001012200019N0100001N1+03091+02351100851ADDAA199000091GF103991021031008001041001MA1999999098891MD1999999-0121REMSYN070AAXX  08184 82571 32597 33602 10309 20235 39889 40085 82340 333 59012;EQDQ01  00002PRCP99
0208825710999992000030900004-05500-045270FM-12+017499999V0209999C000012200019N0100001N1+02641+02481101131ADDAA199000091GA1001+999999999GF100991001001999999001001KA1240M+03171MA1999999099151MD1999999+0031REMSYN082AAXX  09004 82571 32997 00000 10264 20248 39915 40113 333 10317 29086 55060 58003;EQDQ01  00002PRCP99
0193825710999992000030912004-05500-045270FM-12+017499999V0200501N001010075019N0100001N1+02381+02351101411ADDAA124007991AY161061GF108991081051008001999999KA1240N+02211MA1999999099431MD1999999+0141MW1611REMSYN088AAXX  09124 82571 21597 80502 10238 20235 39943 40141 7616/ 885// 333 20221 58014 60084;
0182825710999992000030918004-05500-045270FM-12+017499999V0202301N001010075019N0100001N1+02551+02361101431ADDAA106002091AY191061AY261061GF108991081051008001999999MA1999999099011MD1999999+0121MW1911REMSYN082AAXX  09184 82571 21597 82302 10255 20236 39901 40143 79196 885// 333 58012 60021;
0199825710999992000031000004-05500-045270FM-12+017499999V0201401N001010075019N0100001N1+02451+02391101291ADDAA199000021AY191061GF108991081051008001999999KA1240M+02991MA1999999099301MD1999999+0151MW1171REMSYN094AAXX  10004 82571 31597 81402 10245 20239 39930 40129 7179/ 885// 333 10299 29096 55023 58015;
0201825710999992000031012004-05500-045270FM-12+017499999V0202301N001010450019N0100001N1+02401+02281101471ADDAA124002091AY191061AY261061GF106991021021008001031011KA1240N+02081MA1999999099481MD1999999+0051MW1021REMSYN088AAXX  10124 82571 21597 62302 10240 20228 39948 40147 70296 82231 333 20208 58005 60024;
0174825710999992000031018004-05500-045270FM-12+017499999V0202301N001010450019N0100001N1+02711+02371100991ADDAA106000191AY161061GF107991041051008001031011MA1999999099011MD1999999+0001MW1021REMSYN082AAXX  10184 82571 21597 72302 10271 20237 39901 40099 7026/ 84531 333 58000 69911;
0213825710999992000031100004-05500-045270FM-12+017499999V0200501N001010042019N0100001N1+02321+02251101451ADDAA106006191AY191061AY261061GF108991081051004501999999KA1240M+02981MA1999999099451MD1999999+0151MW1911REMSYN100AAXX  11004 82571 21497 80502 10232 20225 39945 40145 79196 885// 333 10298 29092 55043 58015 60061;
0201825710999992000031112004-05500-045270FM-12+017499999V0201401N001010075019N0100001N1+02351+02321101401ADDAA124018091AY191061AY261061GF107991071051008001031001KA1240N+02111MA1999999099401MD1999999-0041MW1021REMSYN088AAXX  11124 82571 21597 71402 10235 20232 39940 40140 70296 87530 333 20211 59004 60184;
0167825710999992000031118004-05500-045270FM-12+017499999V0200501N003111050019N0100001N1+03071+02351100891ADDAA199000091GF105991021021008001031011MA1999999098931MD1999999-0081REMSYN070AAXX  11184 82571 32597 50506 10307 20235 39893 40089 82231 333 59008;EQDQ01  00002PRCP99
0208825710999992000031200004-05500-045270FM-12+017499999V0209999C000012200019N0100001N1+02621+02461101031ADDAA199000091GA1001+999999999GF100991001001999999001001KA1240M+03131MA1999999099051MD1999999-0401REMSYN082AAXX  12004 82571 32997 00000 10262 20246 39905 40103 333 10313 29087 55062 59040;EQDQ01  00002PRCP99
0186825710999992000031212004-05500-045270FM-12+017499999V0202301N001010450019N0100001N1+02461+02411101281ADDAA199000091GF106991031051008001031011KA1240N+02111MA1999999099301MD1999999-0101REMSYN076AAXX  12124 82571 32597 62302 10246 20241 39930 40128 83531 333 20211 59010;EQDQ01  00002PRCP99
0167825710999992000031218004-05500-045270FM-12+017499999V0200501N001010450019N0100001N1+02791+02251100811ADDAA199000091GF106991021051008001041011MA1999999098851MD1999999-0081REMSYN070AAXX  12184 82571 32597 60502 10279 20225 39885 40081 82541 333 59008;EQDQ01  00002PRCP99
0220825710999992000031300004-05500-045270FM-12+017499999V0209999C000012200019N0100001N1+02541+02441101091ADDAA199000091GA1001+999999999GF100991001001999999001001KA1240M+03131MA1999999099111MD1999999+0061MW1131REMSYN088AAXX  13004 82571 31997 00000 10254 20244 39911 40109 713// 333 10313 29090 55048 58006;EQDQ01  00002PRCP99
0186825710999992000031312004-05500-045270FM-12+017499999V0202701N002110042019N0100001N1+02491+02361101281ADDAA199000091GF108991081051004501999999KA1240N+02241MA1999999099301MD1999999+0001REMSYN076AAXX  13124 82571 32497 82704 10249 20236 39930 40128 885// 333 20224 58000;EQDQ01  00002PRCP99
0167825710999992000031318004-05500-045270FM-12+017499999V0202701N002112200019N0100001N1+03091+02311100751ADDAA199000091GF104991031021008001011001MA1999999098801MD1999999-0051REMSYN070AAXX  13184 82571 32597 42704 10309 20231 39880 40075 83210 333 59005;EQDQ01  00002PRCP99
0213825710999992000031400004-05500-045270FM-12+017499999V0203601N003110450019N0020001N1+02321+02291101171ADDAA106036191AY191061AY261061GF108991041071004501021999KA1240M+03211MA1999999099181MD1999999+0071MW1951REMSYN100AAXX  14004 82571 21495 83606 10232 20229 39918 40117 79596 8472/ 333 10321 29088 55048 58007 60361;
0193825710999992000031412004-05500-045270FM-12+017499999V0202301N001010042019N0100001N1+02401+02331101401ADDAA124036191AY161061GF108991081051004501999999KA1240N+02101MA1999999099401MD1999999+0101MW1021REMSYN088AAXX  14124 82571 21497 82302 10240 20233 39940 40140 7026/ 885// 333 20210 58010 60364;
0167825710999992000031418004-05500-045270FM-12+017499999V0200501N001012200019N0100001N1+02891+02371100861ADDAA199000091GF104991031021004501031001MA1999999098891MD1999999+0091REMSYN070AAXX  14184 82571 32497 40502 10289 20237 39889 40086 83230 333 58009;EQDQ01  00002PRCP99
0198825710999992000031500004-05500-045270FM-12+017499999V0200901N001010450019N0100001N1+02461+02341101191ADDAA199000091GF105991041021004501041001KA1240M+02981MA1999999099211MD1999999+0031REMSYN088AAXX  15004 82571 32497 50902 10246 20234 39921 40119 84240 333 10298 29089 55049 58003;EQDQ01  00002PRCP99
0193825710999992000031512004-05500-045270FM-12+017499999V0201401N001010042019N0040001N1+02351+02331101431ADDAA124023991AY161061GF108991081001004501021999KA1240N+02201MA1999999099441MD1999999+0041MW1601REMSYN088AAXX  15124 82571 21496 81402 10235 20233 39944 40143 7606/ 8802/ 333 20220 58004 60244;
0174825710999992000031518004-05500-045270FM-12+017499999V0202701N001010042019N0100001N1+02481+02391100961ADDAA106023991AY161061GF107991071051004501001001MA1999999098981MD1999999+0091MW1021REMSYN082AAXX  15184 82571 21497 72702 10248 20239 39898 40096 7026/ 87500 333 58009 60241;
0179825710999992000031600004-05500-045270FM-12+017499999V0202301N001012200019N0100001N1+02441+02371101211ADDAA199000021GF103991031001017501031001KA1240M+02771MA1999999099221MD1999999+0011REMSYN088AAXX  16004 82571 32797 32302 10244 20237 39922 40121 83030 333 10277 29096 55010 58001;
0201825710999992000031612004-05500-045270FM-12+017499999V0201401N002110450019N0040001N1+02301+02271101431ADDAA124040991AY191061AY261061GF108991031071004501021999KA1240N+02141MA1999999099431MD1999999-0011MW1601REMSYN088AAXX  16124 82571 21496 81404 10230 20227 39943 40143 76096 8372/ 333 20214 59001 60414;
0174825710999992000031618004-05500-045270FM-12+017499999V0200501N001010450019N0100001N1+02881+02441100851ADDAA106002091AY161061GF105991041021008001031001MA1999999098881MD1999999-0101MW1011REMSYN082AAXX  16184 82571 21597 50502 10288 20244 39888 40085 7016/ 84230 333 59010 60021;
0213825710999992000031700004-05500-045270FM-12+017499999V0202301N002110042019N0040001N1+02261+02181101091ADDAA106004191AY191061AY261061GF108991081051004501999999KA1240M+02991MA1999999099101MD1999999-0121MW1911REMSYN100AAXX  17004 82571 21496 82304 10226 20218 39910 40109 79196 885// 333 10299 29091 55023 59012 60041;
0220825710999992000031712004-05500-045270FM-12+017499999V0202301N002110120019N0100001N1+02301+02231101231ADDAA124007991AY191061AY201061GF107991071081008001001001KA1240N+02071MA1999999099231MD1999999-0201MW1021REMSYN088AAXX  17124 82571 21597 72304 10230 20223 39923 40123 70297 87800 333 20207 59020 60084;EQDQ01+000072PSTWM2
0205825710999992000031800004-05500-045270FM-12+017499999V0201401N001012200019N0100001N1+02481+02391101061ADDAA106007991AY161061GF104991011021004501031001KA1240M+03031MA1999999099071MD1999999-0031MW1131REMSYN100AAXX  18004 82571 21497 41402 10248 20239 39907 40106 7136/ 81230 333 10303 29089 55050 59003 60081;
0173825710999992000031812004-05500-045270FM-12+017499999V0202301N001010042019N0100001N1+02471+02391101201ADDAA124007991GF106991051021004501031001KA1240N+02161MA1999999099221MD1999999-0011REMSYN082AAXX  18124 82571 22497 62302 10247 20239 39922 40120 85230 333 20216 59001 60084;
0167825710999992000031818004-05500-045270FM-12+017499999V0200501N005111050019N0100001N1+02981+02471100751ADDAA199000091GF105991021031008001051011MA1999999098791MD1999999-0041REMSYN070AAXX  18184 82571 32597 50510 10298 20247 39879 40075 82351 333 59004;EQDQ01  00002PRCP99
0198825710999992000031900004-05500-045270FM-12+017499999V0209999C000010120019N0100001N1+02511+02381100941ADDAA199000091GF106991061081008001001001KA1240M+03031MA1999999098961MD1999999-0111REMSYN088AAXX  19004 82571 32597 60000 10251 20238 39896 40094 86800 333 10303 29089 55059 59011;EQDQ01  00002PRCP99
0193825710999992000031912004-05500-045270FM-12+017499999V0201801N001010075019N0100001N1+02341+02311101241ADDAA124000591AY161061GF108991081051008001999999KA1240N+02161MA1999999099251MD1999999+0031MW1021REMSYN088AAXX  19124 82571 21597 81802 10234 20231 39925 40124 7026/ 885// 333 20216 58003 69964;
0174825710999992000031918004-05500-045270FM-12+017499999V0203601N003110450019N0100001N1+02661+02391100891ADDAA106005191AY161061GF106991021021008001051011MA1999999098921MD1999999+0131MW1011REMSYN082AAXX  19184 82571 21597 63606 10266 20239 39892 40089 7016/ 82251 333 58013 60051;
0198825710999992000032000004-05500-045270FM-12+017499999V0202301N001012200019N0100001N1+02481+02251100981ADDAA199000091GF102991021001017501031001KA1240M+02811MA1999999099001MD1999999+0041REMSYN088AAXX  20004 82571 32797 22302 10248 20225 39900 40098 82030 333 10281 29094 55009 58004;EQDQ01  00002PRCP99
0173825710999992000032012004-05500-045270FM-12+017499999V0203601N001010042019N0100001N1+02401+02371101271ADDAA124005191GF107991071021004501001001KA1240N+02061MA1999999099281MD1999999+0031REMSYN082AAXX  20124 82571 22497 73602 10240 20237 39928 40127 87200 333 20206 58003 60054;
0167825710999992000032018004-05500-045270FM-12+017499999V0200901N001012200019N0100001N1+03061+02381100791ADDAA199000091GF103991031021008001001001MA1999999098831MD1999999+0091REMSYN070AAXX  20184 82571 32597 30902 10306 20238 39883 40079 83200 333 58009;EQDQ01  00002PRCP99
0198825710999992000032100004-05500-045270FM-12+017499999V0209999C000012200019N0100001N1+02641+02481101061ADDAA199000091GF103991031001017501011001KA1240M+03191MA1999999099081MD1999999+0081REMSYN088AAXX  21004 82571 32797 30000 10264 20248 39908 40106 83010 333 10319 29086 55083 58008;EQDQ01  00002PRCP99
0193825710999992000032112004-05500-045270FM-12+017499999V0202701N001010450019N0100001N1+02461+02251101191ADDAA124000191AY161061GF105991021021004501041001KA1240N+02151MA1999999099211MD1999999-0071MW1011REMSYN088AAXX  21124 82571 21497 52702 10246 20225 39921 40119 7016/ 82240 333 20215 59007 69914;
0166825710999992000032118004-05500-045270FM-12+017499999V0201401N001010042019N0100001N1+02411+02351100851ADDAA106007191GF106991061051004501001001MA1999999098871MD1999999+0041MW1951REMSYN082AAXX  21184 82571 21497 61402 10241 20235 39887 40085 795// 86500 333 58004 60071;
0199825710999992000032200004-05500-045270FM-12+017499999V0200901N001010120019N0100001N1+02401+02371101091ADDAA199000021AY191061GF106991061081008001001001KA1240M+03011MA1999999099111MD1999999+0031MW1131REMSYN094AAXX  22004 82571 31597 60902 10240 20237 39911 40109 7139/ 86800 333 10301 29095 55033 58003;
0173825710999992000032212004-05500-045270FM-12+017499999V0202301N001010042019N0100001N1+02401+02311101211ADDAA124007191GF107991071021004501001001KA1240N+02171MA1999999099221MD1999999+0011REMSYN082AAXX  22124 82571 22497 72302 10240 20231 39922 40121 87200 333 20217 58001 60074;
0167825710999992000032218004-05500-045270FM-12+017499999V0201401N002112200019N0100001N1+03061+02271100831ADDAA199000091GF104991031021008001011001MA1999999098871MD1999999+0001REMSYN070AAXX  22184 82571 32597 41404 10306 20227 39887 40083 83210 333 58000;EQDQ01  00002PRCP99
0208825710999992000032300004-05500-045270FM-12+017499999V0201401N001012200019N0100001N1+02611+02461100931ADDAA199000091GA1001+999999999GF100991001001999999001001KA1240M+03121MA1999999098951MD1999999-0161REMSYN082AAXX  23004 82571 32997 01402 10261 20246 39895 40093 333 10312 29085 55057 59016;EQDQ01  00002PRCP99
0193825710999992000032312004-05500-045270FM-12+017499999V0200501N001010042019N0100001N1+02471+02411101191ADDAA124000191AY161061GF107991071051004501001001KA1240N+02061MA1999999099211MD1999999-0011MW1011REMSYN088AAXX  23124 82571 21497 70502 10247 20241 39921 40119 7016/ 87500 333 20206 59001 69914;
0166825710999992000032318004-05500-045270FM-12+017499999V0201401N003110090019N0100001N1+02491+02271100821ADDAA106000191GF106991061081004501001001MA1999999098841MD1999999-0031MW1951REMSYN082AAXX  23184 82571 21497 61406 10249 20227 39884 40082 795// 86800 333 59003 69911;
0199825710999992000032400004-05500-045270FM-12+017499999V0200901N003110042019N0100001N1+02501+02071101151ADDAA199000021AY191061GF106991061091004501001001KA1240M+03281MA1999999099171MD1999999+0221MW1171REMSYN094AAXX  24004 82571 31497 60906 10250 20207 39917 40115 7179/ 86900 333 10328 29084 55052 58022;
0201825710999992000032412004-05500-045270FM-12+017499999V0202301N001010450019N0100001N1+02301+02251101321ADDAA124002091AY191061AY261061GF107991041021004501031001KA1240N+02001MA1999999099331MD1999999+0121MW1011REMSYN088AAXX  24124 82571 21497 72302 10230 20225 39933 40132 70196 84230 333 20200 58012 60024;
0173825710999992000032512004-05500-045270FM-12+017499999V0200501N001012200019N0100001N1+02461+02441101271ADDAA124000391GF104991021021008001031001KA1240N+02211MA1999999099291MD1999999-0041REMSYN082AAXX  25124 82571 22597 40502 10246 20244 39929 40127 82230 333 20221 59004 69934;
0166825710999992000032518004-05500-045270FM-12+017499999V0201401N007212200019N0100001N1+03191+02311100841ADDAA106000191GF106991041031008001001011MA1999999098891MD1999999-0051MW1611REMSYN082AAXX  25184 82571 21597 61414 10319 20231 39889 40084 761// 84301 333 59005 69911;
0191825710999992000032600004-05500-045270FM-12+017499999V0200501N001010075019N0100001N1+02561+02471101031ADDAA199000021GF108991081051008001999999KA1240M+03261MA1999999099061MD1999999-0021MW1131REMSYN094AAXX  26004 82571 31597 80502 10256 20247 39906 40103 713// 885// 333 10326 29086 55091 59002;
0173825710999992000032612004-05500-045270FM-12+017499999V0200501N001010450019N0100001N1+02571+02381101171ADDAA124000191GF106991041051008001031001KA1240N+02221MA1999999099191MD1999999-0101REMSYN082AAXX  26124 82571 21597 60502 10257 20238 39919 40117 84530 333 20222 59010 69924;
0174825710999992000032618004-05500-045270FM-12+017499999V0201401N001010075019N0100001N1+02541+02381100791ADDAA106002091AY191061GF106991051051008001041001MA1999999098811MD1999999-0081MW1921REMSYN082AAXX  26184 82571 21597 61402 10254 20238 39881 40079 7929/ 85540 333 59008 60021;
0191825710999992000032700004-05500-045270FM-12+017499999V0209999C000010042019N0100001N1+02491+02391101141ADDAA199000021GF108991081051004501999999KA1240M+03191MA1999999099161MD1999999+0101MW1131REMSYN094AAXX  27004 82571 31497 80000 10249 20239 39916 40114 713// 885// 333 10319 29093 55041 58010;
0193825710999992000032712004-05500-045270FM-12+017499999V0202301N001010075019N0100001N1+02301+02271101251ADDAA124007191AY191061GF107991051051008001031001KA1240N+02041MA1999999099261MD1999999+0071MW1021REMSYN088AAXX  27124 82571 21597 72302 10230 20227 39926 40125 7029/ 85530 333 20204 58007 60074;
0167825710999992000032718004-05500-045270FM-12+017499999V0203201N001010450019N0100001N1+02931+02341100751ADDAA199000091GF106991021031008001031011MA1999999098791MD1999999-0021REMSYN070AAXX  27184 82571 32597 63202 10293 20234 39879 40075 82331 333 59002;EQDQ01  00002PRCP99
0226825710999992000032800004-05500-045270FM-12+017499999V0209999C000010075019N0100001N1+02461+02361101181ADDAA199000091GF106991999051008001001001KA1240M+03081MA1999999099191MD1999999+0031MW1131REMSYN094AAXX  28004 82571 31597 60000 10246 20236 39919 40118 713// 85500 333 10308 29089 55038 58003;EQDQ01+000052SCOTLCQ02  00002PRCP99
0201825710999992000032812004-05500-045270FM-12+017499999V0202301N001010075019N0100001N1+02331+02291101381ADDAA124017091AY191061AY261061GF108991081051008001999999KA1240N+02061MA1999999099391MD1999999+0131MW1021REMSYN088AAXX  28124 82571 21597 82302 10233 20229 39939 40138 70296 885// 333 20206 58013 60174;
0167825710999992000032818004-05500-045270FM-12+017499999V0202301N001010450019N0100001N1+03011+02391100881ADDAA199000091GF106991021021008001061011MA1999999098891MD1999999+0101REMSYN070AAXX  28184 82571 32597 62302 10301 20239 39889 40088 82261 333 58010;EQDQ01  00002PRCP99
0205825710999992000032900004-05500-045270FM-12+017499999V0202301N001010042019N0100001N1+02441+02391101151ADDAA106001091AY191061GF108991081051004501999999KA1240M+03121MA1999999099161MD1999999-0031MW1131REMSYN100AAXX  29004 82571 21497 82302 10244 20239 39916 40115 7139/ 885// 333 10312 29090 55032 59003 60011;
0182825710999992000032918004-05500-045270FM-12+017499999V0202301N001010450019N0100001N1+02501+02341101011ADDAA106027991AY131061AY201061GF106991041051008001031001MA1999999099031MD1999999+0141MW1611REMSYN082AAXX  29184 82571 21597 62302 10250 20234 39903 40101 76130 84530 333 58014 60281;
0179825710999992000033000004-05500-045270FM-12+017499999V0200501N001010075019N0100001N1+02411+02321101281ADDAA199000021GF108991081051008001999999KA1240M+02711MA1999999099291MD1999999+0131REMSYN088AAXX  30004 82571 32597 80502 10241 20232 39929 40128 885// 333 10271 29094 55005 58013;
0185825710999992000033012004-05500-045270FM-12+017499999V0202301N003110075019N0100001N1+02241+02221101341ADDAA124027991GF108991081051008001999999KA1240N+02041MA1999999099341MD1999999-0031MW1101REMSYN088AAXX  30124 82571 21597 82306 10224 20222 39934 40134 710// 885// 333 20204 59003 60284;
0167825710999992000033018004-05500-045270FM-12+017499999V0202701N001012200019N0100001N1+02981+02301100911ADDAA199000091GF102991021021008001001001MA1999999098911MD1999999-0121REMSYN070AAXX  30184 82571 32597 22702 10298 20230 39891 40091 82200 333 59012;EQDQ01  00002PRCP99
0208825710999992000033100004-05500-045270FM-12+017499999V0200501N001012200019N0100001N1+02541+02381101091ADDAA199000091GA1001+999999999GF100991001001999999001001KA1240M+03101MA1999999099101MD1999999-0191REMSYN082AAXX  31004 82571 32997 00502 10254 20238 39910 40109 333 10310 29087 55074 59019;EQDQ01  00002PRCP99
0186825710999992000033112004-05500-045270FM-12+017499999V0200501N001012200019N0100001N1+02551+02361101281ADDAA199000091GF103991021021008001031001KA1240N+02061MA1999999099301MD1999999-0041REMSYN076AAXX  31124 82571 32597 30502 10255 20236 39930 40128 82230 333 20206 59004;EQDQ01  00002PRCP99
0167825710999992000033118004-05500-045270FM-12+017499999V0200501N001012200019N0100001N1+02961+02351100861ADDAA199000091GF103991021021008001031001MA1999999098901MD1999999-0011REMSYN070AAXX  31184 82571 32597 30502 10296 20235 39890 40086 82230 333 59001;EQDQ01  00002PRCP99
0210825710999992000040100004-05500-045270FM-12+017499999V0201801N001010075019N0100001N1+02601+02421101131ADDAA199000091GF105991051051008001001001KA1240M+03051MA1999999099151MD1999999+0051MW1131REMSYN094AAXX  01004 82571 31597 51802 10260 20242 39915 40113 713// 85500 333 10305 29085 55104 58005;EQDQ01  00002PRCP99
0186825710999992000040112004-05500-045270FM-12+017499999V0203201N001010075019N0100001N1+02661+02391101351ADDAA199000091GF106991061051008001001001KA1240N+02231MA1999999099381MD1999999+0081REMSYN076AAXX  01124 82571 32597 63202 10266 20239 39938 40135 86500 333 20223 58008;EQDQ01  00002PRCP99
0174825710999992000040118004-05500-045270FM-12+017499999V0201801N003110075019N0100001N1+02531+02421101061ADDAA106003091AY161061GF108991081051008001999999MA1999999099081MD1999999+0181MW1951REMSYN082AAXX  01184 82571 21597 81806 10253 20242 39908 40106 7956/ 885// 333 58018 60031;
0213825710999992000040200004-05500-045270FM-12+017499999V0200501N001010042019N0100001N1+02331+02321101331ADDAA106002091AY191061AY261061GF108991081051004501999999KA1240M+02951MA1999999099351MD1999999+0201MW1601REMSYN100AAXX  02004 82571 21497 80502 10233 20232 39935 40133 76096 885// 333 10295 29094 55046 58020 60021;
0193825710999992000040212004-05500-045270FM-12+017499999V0203201N001010450019N0100001N1+02371+02331101451ADDAA124008991AY161061GF106991021021008001031011KA1240N+02061MA1999999099451MD1999999+0071MW1021REMSYN088AAXX  02124 82571 21597 63202 10237 20233 39945 40145 7026/ 82231 333 20206 58007 60094;
0167825710999992000040218004-05500-045270FM-12+017499999V0200901N001012200019N0100001N1+03041+02451101001ADDAA199000091GF103991031021008001001001MA1999999099031MD1999999-0051REMSYN070AAXX  02184 82571 32597 30902 10304 20245 39903 40100 83200 333 59005;EQDQ01  00002PRCP99
0210825710999992000040300004-05500-045270FM-12+017499999V0200501N003112200019N0100001N1+02511+02401101341ADDAA199000091GF103991031021008001001001KA1240M+03171MA1999999099351MD1999999+0001MW1131REMSYN094AAXX  03004 82571 31597 30506 10251 20240 39935 40134 713// 83200 333 10317 29088 55064 58000;EQDQ01  00002PRCP99
0193825710999992000040312004-05500-045270FM-12+017499999V0203601N001010042019N0100001N1+02401+02311101391ADDAA124017091AY161061GF105991051021004501001001KA1240N+01991MA1999999099401MD1999999-0051MW1011REMSYN088AAXX  03124 82571 21497 53602 10240 20231 39940 40139 7016/ 85200 333 20199 59005 60174;
0182825710999992000040318004-05500-045270FM-12+017499999V0202701N001010450019N0100001N1+02471+02341101031ADDAA106000891AY191061AY261061GF105991031021008001041001MA1999999099041MD1999999+0011MW1171REMSYN082AAXX  03184 82571 21597 52702 10247 20234 39904 40103 71796 83240 333 58001 69971;
0213825710999992000040400004-05500-045270FM-12+017499999V0201401N001012200019N0100001N1+02371+02331101301ADDAA106000191AY191061AY261061GF103991011021004501041001KA1240M+02971MA1999999099311MD1999999-0041MW1131REMSYN100AAXX  04004 82571 21497 31402 10237 20233 39931 40130 71396 81240 333 10297 29095 55044 59004 69921;
0173825710999992000040412004-05500-045270FM-12+017499999V0202301N001010450019N0100001N1+02441+02341101401ADDAA124001091GF106991031021004501011011KA1240N+02061MA1999999099411MD1999999+0011REMSYN082AAXX  04124 82571 22497 62302 10244 20234 39941 40140 83211 333 20206 58001 69994;
0182825710999992000040418004-05500-045270FM-12+017499999V0200501N001010450019N0100001N1+02551+02351101071ADDAA106003091AY191061AY261061GF106991031021008001041001MA1999999099081MD1999999+0041MW1171REMSYN082AAXX  04184 82571 21597 60502 10255 20235 39908 40107 71796 83240 333 58004 60031;
0210825710999992000040500004-05500-045270FM-12+017499999V0201401N001012200019N0100001N1+02541+02471101251ADDAA199000091GF101991011001017501041001KA1240M+03011MA1999999099271MD1999999-0041MW1131REMSYN094AAXX  05004 82571 31797 11402 10254 20247 39927 40125 713// 81040 333 10301 29094 55042 59004;EQDQ01  00002PRCP99
0193825710999992000040512004-05500-045270FM-12+017499999V0202701N001010042019N0100001N1+02461+02431101411ADDAA124003091AY141061GF106991061021004501001001KA1240N+02051MA1999999099431MD1999999+0021MW1011REMSYN088AAXX  05124 82571 21497 62702 10246 20243 39943 40141 7014/ 86200 333 20205 58002 60034;
0167825710999992000040518004-05500-045270FM-12+017499999V0200501N003112200019N0100001N1+03131+02211100951ADDAA199000091GF104991021021008001001011MA1999999098991MD1999999-0091REMSYN070AAXX  05184 82571 32597 40506 10313 20221 39899 40095 82201 333 59009;EQDQ01  00002PRCP99
0198825710999992000040600004-05500-045270FM-12+017499999V0209999C000012200019N0100001N1+02621+02441101251ADDAA199000091GF102991021021004501001001KA1240M+03191MA1999999099271MD1999999+0001REMSYN088AAXX  06004 82571 32497 20000 10262 20244 39927 40125 82200 333 10319 29084 55077 58000;EQDQ01  00002PRCP99
0206825710999992000040612004-05500-045270FM-12+017499999V0200901N001010450019N0100001N1+02441+02351101431ADDAA199000091AY141061GF106991031021004501031001KA1240N+02051MA1999999099451MD1999999+0021MW1011REMSYN082AAXX  06124 82571 31497 60902 10244 20235 39945 40143 7014/ 83230 333 20205 58002;EQDQ01  00002PRCP99
0167825710999992000040618004-05500-045270FM-12+017499999V0201401N001012200019N0100001N1+03131+02241100911ADDAA199000091GF103991021021008001011001MA1999999098961MD1999999-0031REMSYN070AAXX  06184 82571 32597 31402 10313 20224 39896 40091 82210 333 59003;EQDQ01  00002PRCP99
0208825710999992000040700004-05500-045270FM-12+017499999V0200901N001012200019N0100001N1+02661+02431101141ADDAA199000091GA1001+999999999GF100991001001999999001001KA1240M+03181MA1999999099161MD1999999-0111REMSYN082AAXX  07004 82571 32997 00902 10266 20243 39916 40114 333 10318 29082 55090 59011;EQDQ01  00002PRCP99
0186825710999992000040712004-05500-045270FM-12+017499999V0202301N001010042019N0100001N1+02461+02301101261ADDAA199000091GF107991071051004501001001KA1240N+02131MA1999999099281MD1999999-0171REMSYN076AAXX  07124 82571 32497 72302 10246 20230 39928 40126 87500 333 20213 59017;EQDQ01  00002PRCP99
0174825710999992000040718004-05500-045270FM-12+017499999V0201401N001010450019N0100001N1+02961+02401100891ADDAA106000191AY161061GF106991041021008001011011MA1999999098931MD1999999-0031MW1021REMSYN082AAXX  07184 82571 21597 61402 10296 20240 39893 40089 7026/ 84211 333 59003 69911;
0213825710999992000040800004-05500-045270FM-12+017499999V0202301N001012200019N0100001N1+02311+02271101251ADDAA106006191AY191061AY261061GF103991011021004501041001KA1240M+03031MA1999999099261MD1999999+0101MW1021REMSYN100AAXX  08004 82571 21497 32302 10231 20227 39926 40125 70296 81240 333 10303 29089 55035 58010 60061;
0173825710999992000040812004-05500-045270FM-12+017499999V0202301N001010450019N0100001N1+02381+02241101291ADDAA124006191GF106991031031008001031011KA1240N+02121MA1999999099301MD1999999+0021REMSYN082AAXX  08124 82571 22597 62302 10238 20224 39930 40129 83331 333 20212 58002 60064;
0174825710999992000040818004-05500-045270FM-12+017499999V0202301N001010450019N0100001N1+02611+02331100951ADDAA106004191AY161061GF106991041051008001031001MA1999999098971MD1999999+0041MW1021REMSYN082AAXX  08184 82571 21597 62302 10261 20233 39897 40095 7026/ 84530 333 58004 60041;
0198825710999992000040900004-05500-045270FM-12+017499999V0209999C000010075019N0100001N1+02541+02451101071ADDAA199000091GF105991051051008001001001KA1240M+03141MA1999999099091MD1999999-0171REMSYN088AAXX  09004 82571 32597 50000 10254 20245 39909 40107 85500 333 10314 29092 55050 59017;EQDQ01  00002PRCP99
0193825710999992000040912004-05500-045270FM-12+017499999V0203601N001010075019N0100001N1+02261+02241101291ADDAA124014091AY161061GF108991081051008001999999KA1240N+02061MA1999999099301MD1999999+0001MW1021REMSYN088AAXX  09124 82571 21597 83602 10226 20224 39930 40129 7026/ 885// 333 20206 58000 60144;
0167825710999992000040918004-05500-045270FM-12+017499999V0201801N003110450019N0100001N1+02961+02331100851ADDAA199000091GF106991021021008001031011MA1999999098891MD1999999-0081REMSYN070AAXX  09184 82571 32597 61806 10296 20233 39889 40085 82231 333 59008;EQDQ01  00002PRCP99
0213825710999992000041000004-05500-045270FM-12+017499999V0201401N003110042019N0100001N1+02241+02121101181ADDAA106000191AY191061AY261061GF108991081051004501999999KA1240M+03031MA1999999099181MD1999999+0091MW1131REMSYN100AAXX  10004 82571 21497 81406 10224 20212 39918 40118 71396 885// 333 10303 29088 55036 58009 69911;
0173825710999992000041012004-05500-045270FM-12+017499999V0201401N002110042019N0100001N1+02511+02231101321ADDAA124000191GF105991051021004501001001KA1240N+02071MA1999999099331MD1999999+0031REMSYN082AAXX  10124 82571 22497 51404 10251 20223 39933 40132 85200 333 20207 58003 69914;
0166825710999992000041018004-05500-045270FM-12+017499999V0201801N001010450019N0040001N1+02441+02371100941ADDAA106010991GF108991031071004501021999MA1999999098951MD1999999+0061MW1631REMSYN082AAXX  10184 82571 21496 81802 10244 20237 39895 40094 763// 8372/ 333 58006 60111;
0205825710999992000041100004-05500-045270FM-12+017499999V0201401N001010090019N0100001N1+02351+02281101261ADDAA106004191AY161061GF105991051081004501001001KA1240M+03001MA1999999099271MD1999999+0091MW1131REMSYN100AAXX  11004 82571 21497 51402 10235 20228 39927 40126 7136/ 85800 333 10300 29092 55056 58009 60041;
0193825710999992000041112004-05500-045270FM-12+017499999V0200501N003110450019N0100001N1+02481+02341101381ADDAA124016091AY161061GF105991021021004501011001KA1240N+02081MA1999999099391MD1999999+0061MW1021REMSYN088AAXX  11124 82571 21497 50506 10248 20234 39939 40138 7026/ 82210 333 20208 58006 60164;
0166825710999992000041118004-05500-045270FM-12+017499999V0201401N001012200019N0100001N1+02831+02421100891ADDAA106000191GF104991041021008001001001MA1999999098921MD1999999-0031MW1611REMSYN082AAXX  11184 82571 21597 41402 10283 20242 39892 40089 761// 84200 333 59003 69911;
0191825710999992000041200004-05500-045270FM-12+017499999V0202301N001010042019N0100001N1+02481+02361101141ADDAA199000021GF106991061051004501001001KA1240M+03081MA1999999099161MD1999999-0111MW1131REMSYN094AAXX  12004 82571 31497 62302 10248 20236 39916 40114 713// 86500 333 10308 29089 55085 59011;
0193825710999992000041212004-05500-045270FM-12+017499999V0202301N001010090019N0100001N1+02351+02311101341ADDAA124006191AY161061GF107991071081004501001001KA1240N+02111MA1999999099351MD1999999-0041MW1021REMSYN088AAXX  12124 82571 21497 72302 10235 20231 39935 40134 7026/ 87800 333 20211 59004 60064;
0167825710999992000041218004-05500-045270FM-12+017499999V0202301N001010450019N0100001N1+03001+02461100841ADDAA199000091GF105991041021008001041001MA1999999098881MD1999999-0041REMSYN070AAXX  12184 82571 32597 52302 10300 20246 39888 40084 84240 333 59004;EQDQ01  00002PRCP99
0205825710999992000041300004-05500-045270FM-12+017499999V0202701N001010450019N0100001N1+02561+02421101191ADDAA106000191AY161061GF106991041051004501041001KA1240M+03161MA1999999099211MD1999999+0051MW1131REMSYN100AAXX  13004 82571 21497 62702 10256 20242 39921 40119 7136/ 84540 333 10316 29088 55064 58005 69911;
0193825710999992000041312004-05500-045270FM-12+017499999V0202301N001010042019N0100001N1+02311+02291101411ADDAA124046091AY161061GF107991061051004501031001KA1240N+02041MA1999999099421MD1999999+0071MW1611REMSYN088AAXX  13124 82571 21497 72302 10231 20229 39942 40141 7616/ 86530 333 20204 58007 60464;
0148825710999992000041318004-05500-045270FM-12+017499999V0202301N001010450019N0100001N1+03001+02461100811ADDAA199000021GF105991031021008001031011MA1999999098851MD1999999-0031REMSYN070AAXX  13184 82571 32597 52302 10300 20246 39885 40081 83231 333 59003;
0182825710999992000041418004-05500-045270FM-12+017499999V0202701N001010042019N0100001N1+02301+02271101111ADDAA106032091AY191061AY261061GF108991081051004501999999MA1999999099121MD1999999+0271MW1021REMSYN082AAXX  14184 82571 21497 82702 10230 20227 39912 40111 70296 885// 333 58027 60321;
0198825710999992000041500004-05500-045270FM-12+017499999V0209999C000010150019N0100001N1+02301+02271101371ADDAA199000091GF106991061001017501051001KA1240M+02751MA1999999099371MD1999999+0181REMSYN088AAXX  15004 82571 32797 60000 10230 20227 39937 40137 86050 333 10275 29098 55000 58018;EQDQ01  00002PRCP99
0173825710999992000041512004-05500-045270FM-12+017499999V0202701N001010450019N0100001N1+02401+02371101501ADDAA124032091GF106991031021008001051001KA1240N+02041MA1999999099501MD1999999-0081REMSYN082AAXX  15124 82571 22597 62702 10240 20237 39950 40150 83250 333 20204 59008 60324;
0167825710999992000041518004-05500-045270FM-12+017499999V0202301N003111050019N0100001N1+02641+02391101171ADDAA199000091GF105991021021008001031011MA1999999099181MD1999999+0061REMSYN070AAXX  15184 82571 32597 52306 10264 20239 39918 40117 82231 333 58006;EQDQ01  00002PRCP99
0205825710999992000041600004-05500-045270FM-12+017499999V0209999C000010075019N0100001N1+02401+02371101431ADDAA106000391AY161061GF106991061051008001001001KA1240M+03011MA1999999099441MD1999999+0071MW1021REMSYN100AAXX  16004 82571 21597 60000 10240 20237 39944 40143 7026/ 86500 333 10301 29095 55048 58007 69931;
0167825710999992000041618004-05500-045270FM-12+017499999V0203601N003111050019N0100001N1+02951+02491101021ADDAA199000091GF105991021021008001031011MA1999999099051MD1999999-0131REMSYN070AAXX  16184 82571 32597 53606 10295 20249 39905 40102 82231 333 59013;EQDQ01  00002PRCP99
0198825710999992000041700004-05500-045270FM-12+017499999V0209999C000012200019N0100001N1+02601+02501101211ADDAA199000091GF102991021001017501031001KA1240M+03111MA1999999099231MD1999999-0211REMSYN088AAXX  17004 82571 32797 20000 10260 20250 39923 40121 82030 333 10311 29090 55057 59021;EQDQ01  00002PRCP99
0186825710999992000041712004-05500-045270FM-12+017499999V0201801N002110075019N0100001N1+02541+02381101501ADDAA199000091GF108991081051008001999999KA1240N+02201MA1999999099521MD1999999-0101REMSYN076AAXX  17124 82571 32597 81804 10254 20238 39952 40150 885// 333 20220 59010;EQDQ01  00002PRCP99
0154825710999992000041718004-05500-045270FM-12+017499999V0203201N001010450019N0100001N1+03001+02221100911ADDAA106001091GF106991031021008001041011MA1999999098931MD1999999-0121REMSYN076AAXX  17184 82571 21597 63202 10300 20222 39893 40091 83241 333 59012 60011;
0198825710999992000041800004-05500-045270FM-12+017499999V0202301N001010150019N0100001N1+02391+02351101231ADDAA199000091GF105991051001017501071001KA1240M+03061MA1999999099251MD1999999+0021REMSYN088AAXX  18004 82571 32797 52302 10239 20235 39925 40123 85070 333 10306 29087 55024 58002;EQDQ01  00002PRCP99
0173825710999992000041812004-05500-045270FM-12+017499999V0202301N001010450019N0100001N1+02441+02351101421ADDAA124001091GF106991041051008001031001KA1240N+02111MA1999999099431MD1999999-0091REMSYN082AAXX  18124 82571 22597 62302 10244 20235 39943 40142 84530 333 20211 59009 60014;
0167825710999992000041818004-05500-045270FM-12+017499999V0202301N003112200019N0100001N1+02921+02431100941ADDAA199000091GF104991041021008001001001MA1999999098971MD1999999+0041REMSYN070AAXX  18184 82571 32597 42306 10292 20243 39897 40094 84200 333 58004;EQDQ01  00002PRCP99
0198825710999992000041900004-05500-045270FM-12+017499999V0201801N001010075019N0100001N1+02661+02541101291ADDAA199000091GF105991051051008001001001KA1240M+03101MA1999999099311MD1999999+0061REMSYN088AAXX  19004 82571 32597 51802 10266 20254 39931 40129 85500 333 10310 29089 55065 58006;EQDQ01  00002PRCP99
0201825710999992000041912004-05500-045270FM-12+017499999V0200901N001010075019N0100001N1+02391+02381101501ADDAA124035191AY191061AY261061GF108991081051008001999999KA1240N+02191MA1999999099511MD1999999+0081MW1021REMSYN088AAXX  19124 82571 21597 80902 10239 20238 39951 40150 70296 885// 333 20219 58008 60354;
0166825710999992000041918004-05500-045270FM-12+017499999V0200501N003112200019N0100001N1+02721+02521100981ADDAA106000591GF103991031021008001001001MA1999999099011MD1999999+0041MW1611REMSYN082AAXX  19184 82571 21597 30506 10272 20252 39901 40098 761// 83200 333 58004 69941;
0191825710999992000042000004-05500-045270FM-12+017499999V0200501N003110042019N0100001N1+02541+02421101281ADDAA199000021GF108991081051004501999999KA1240M+03041MA1999999099291MD1999999-0021MW1171REMSYN094AAXX  20004 82571 31497 80506 10254 20242 39929 40128 717// 885// 333 10304 29094 55058 59002;
0201825710999992000042012004-05500-045270FM-12+017499999V0202501N001010450019N0100001N1+02351+02311101441ADDAA124018091AY191061AY261061GF107991041051008001031001KA1240N+02101MA1999999099451MD1999999+0061MW1021REMSYN088AAXX  20124 82571 21597 72502 10235 20231 39945 40144 70296 84530 333 20210 58006 60184;
0193825710999992000042112004-05500-045270FM-12+017499999V0202701N001010075019N0100001N1+02381+02361101311ADDAA124001091AY161061GF108991081051008001999999KA1240N+02121MA1999999099331MD1999999-0121MW1021REMSYN088AAXX  21124 82571 21597 82702 10238 20236 39933 40131 7026/ 885// 333 20212 59012 60014;
0167825710999992000042118004-05500-045270FM-12+017499999V0202301N001012200019N0100001N1+02901+02501100811ADDAA199000091GF105991031021008001001011MA1999999098831MD1999999-0141REMSYN070AAXX  21184 82571 32597 52302 10290 20250 39883 40081 83201 333 59014;EQDQ01  00002PRCP99
0205825710999992000042200004-05500-045270FM-12+017499999V0209999C000012200019N0100001N1+02601+02551101111ADDAA106000591AY161061GF102991021011008001001001KA1240M+03111MA1999999099131MD1999999-0101MW1131REMSYN100AAXX  22004 82571 21597 20000 10260 20255 39913 40111 7136/ 82100 333 10311 29093 55050 59010 69941;
0182825710999992000042218004-05500-045270FM-12+017499999V0202701N001010075019N0100001N1+02521+02421100941ADDAA106001091AY191061AY261061GF108991081051008001999999MA1999999098971MD1999999+0141MW1171REMSYN082AAXX  22184 82571 21597 82702 10252 20242 39897 40094 71796 885// 333 58014 60011;
0210825710999992000042300004-05500-045270FM-12+017499999V0209999C000010075019N0100001N1+02501+02471101191ADDAA199000091GF108991081051008001999999KA1240M+02941MA1999999099211MD1999999+0081MW1171REMSYN094AAXX  23004 82571 31597 80000 10250 20247 39921 40119 717// 885// 333 10294 29097 55029 58008;EQDQ01  00002PRCP99
0193825710999992000042312004-05500-045270FM-12+017499999V0203201N001010075019N0100001N1+02441+02421101371ADDAA124001091AY161061GF108991081051008001999999KA1240N+02181MA1999999099381MD1999999+0051MW1021REMSYN088AAXX  23124 82571 21597 83202 10244 20242 39938 40137 7026/ 885// 333 20218 58005 60014;
0167825710999992000042318004-05500-045270FM-12+017499999V0203201N001012200019N0100001N1+03101+02561100901ADDAA199000091GF105991031021008001001011MA1999999098941MD1999999-0031REMSYN070AAXX  23184 82571 32597 53202 10310 20256 39894 40090 83201 333 59003;EQDQ01  00002PRCP99
0208825710999992000042400004-05500-045270FM-12+017499999V0209999C000012200019N0100001N1+02661+02391101161ADDAA199000091GA1001+999999999GF100991001001999999001001KA1240M+03191MA1999999099181MD1999999-0031REMSYN082AAXX  24004 82571 32997 00000 10266 20239 39918 40116 333 10319 29086 55066 59003;EQDQ01  00002PRCP99
0174825710999992000042418004-05500-045270FM-12+017499999V0202301N001010450019N0100001N1+02671+02481100901ADDAA106004191AY161061GF106991041051008001041001MA1999999098931MD1999999-0011MW1021REMSYN082AAXX  24184 82571 21597 62302 10267 20248 39893 40090 7026/ 84540 333 59001 60041;
0208825710999992000042500004-05500-045270FM-12+017499999V0209999C000012200019N0100001N1+02561+02511101221ADDAA199000091GA1001+999999999GF100991001001999999001001KA1240M+02911MA1999999099241MD1999999+0061REMSYN082AAXX  25004 82571 32997 00000 10256 20251 39924 40122 333 10291 29095 55016 58006;EQDQ01  00002PRCP99
0201825710999992000042512004-05500-045270FM-12+017499999V0202301N001010075019N0100001N1+02301+02281101451ADDAA124043991AY191061AY261061GF108991081051008001999999KA1240N+02091MA1999999099461MD1999999+0071MW1611REMSYN088AAXX  25124 82571 21597 82302 10230 20228 39946 40145 76196 885// 333 20209 58007 60444;
0174825710999992000042518004-05500-045270FM-12+017499999V0200501N001010075019N0100001N1+02571+02511101021ADDAA106007991AY161061GF108991081051008001999999MA1999999099041MD1999999+0111MW1611REMSYN082AAXX  25184 82571 21597 80502 10257 20251 39904 40102 7616/ 885// 333 58011 60081;
0191825710999992000042600004-05500-045270FM-12+017499999V0200501N001010042019N0100001N1+02461+02411101391ADDAA199000021GF108991081051004501999999KA1240M+02791MA1999999099401MD1999999+0161MW1171REMSYN094AAXX  26004 82571 31497 80502 10246 20241 39940 40139 717// 885// 333 10279 29097 55006 58016;
0193825710999992000042612004-05500-045270FM-12+017499999V0202301N001010042019N0100001N1+02471+02391101471ADDAA124008991AY161061GF106991061021004501001001KA1240N+02091MA1999999099481MD1999999+0021MW1011REMSYN088AAXX  26124 82571 21497 62302 10247 20239 39948 40147 7016/ 86200 333 20209 58002 60094;
0174825710999992000042618004-05500-045270FM-12+017499999V0201401N003110075019N0100001N1+02911+02341101031ADDAA124000191AY161061GF106991051021008001041001MA1999999099061MD1999999+0021MW1031REMSYN082AAXX  26184 82571 21597 61406 10291 20234 39906 40103 7036/ 85240 333 58002 69924;
0205825710999992000042700004-05500-045270FM-12+017499999V0201401N001010042019N0100001N1+02441+02391101381ADDAA106002091AY161061GF108991081021004501999999KA1240M+03001MA1999999099391MD1999999-0011MW1021REMSYN100AAXX  27004 82571 21497 81402 10244 20239 39939 40138 7026/ 882// 333 10300 29090 55062 59001 60021;
0193825710999992000042712004-05500-045270FM-12+017499999V0200901N002112200019N0100001N1+02681+02351101451ADDAA124002091AY161061GF103991011011004501031001KA1240N+02151MA1999999099471MD1999999-0011MW1011REMSYN088AAXX  27124 82571 21497 30904 10268 20235 39947 40145 7016/ 81130 333 20215 59001 60024;
0167825710999992000042718004-05500-045270FM-12+017499999V0201401N002112200019N0100001N1+03021+02261101051ADDAA199000091GF104991031021008001031001MA1999999099091MD1999999+0031REMSYN070AAXX  27184 82571 32597 41404 10302 20226 39909 40105 83230 333 58003;EQDQ01  00002PRCP99
0208825710999992000042800004-05500-045270FM-12+017499999V0201401N001012200019N0100001N1+02591+02311101321ADDAA199000091GA1001+999999999GF100991001001999999001001KA1240M+03131MA1999999099351MD1999999-0041REMSYN082AAXX  28004 82571 32997 01402 10259 20231 39935 40132 333 10313 29078 55093 59004;EQDQ01  00002PRCP99
0206825710999992000042812004-05500-045270FM-12+017499999V0202301N001012200019N0100001N1+02441+02371101531ADDAA199000091AY141061GF104991041001017501031001KA1240N+02041MA1999999099541MD1999999+0071MW1011REMSYN082AAXX  28124 82571 31797 42302 10244 20237 39954 40153 7014/ 84030 333 20204 58007;EQDQ01  00002PRCP99
0174825710999992000042818004-05500-045270FM-12+017499999V0200901N003112200019N0100001N1+03111+02301101061ADDAA106000391AY161061GF103991031021008001001001MA1999999099101MD1999999+0011MW1011REMSYN082AAXX  28184 82571 21597 30906 10311 20230 39910 40106 7016/ 83200 333 58001 69931;
0208825710999992000042900004-05500-045270FM-12+017499999V0200501N001012200019N0100001N1+02651+02481101351ADDAA199000091GA1001+999999999GF100991001001999999001001KA1240M+03191MA1999999099371MD1999999+0021REMSYN082AAXX  29004 82571 32997 00502 10265 20248 39937 40135 333 10319 29084 55092 58002;EQDQ01  00002PRCP99
0193825710999992000042912004-05500-045270FM-12+017499999V0202301N001010090019N0100001N1+02441+02391101621ADDAA124002091AY161061GF106991061081004501001001KA1240N+02101MA1999999099641MD1999999+0101MW1611REMSYN088AAXX  29124 82571 21497 62302 10244 20239 39964 40162 7616/ 86800 333 20210 58010 60024;
0148825710999992000042918004-05500-045270FM-12+017499999V0201401N001010450019N0100001N1+02921+02321101181ADDAA199000021GF106991041021008001011001MA1999999099211MD1999999+0111REMSYN070AAXX  29184 82571 32597 61402 10292 20232 39921 40118 84210 333 58011;
0191825710999992000043000004-05500-045270FM-12+017499999V0200901N001012200019N0100001N1+02551+02461101431ADDAA199000021GF101991011021004501001001KA1240M+03001MA1999999099451MD1999999+0081MW1131REMSYN094AAXX  30004 82571 31497 10902 10255 20246 39945 40143 713// 81200 333 10300 29089 55038 58008;
0186825710999992000043012004-05500-045270FM-12+017499999V0200501N001010042019N0100001N1+02471+02451101451ADDAA199000091GF106991051021004501011001KA1240N+02061MA1999999099461MD1999999-0181REMSYN076AAXX  30124 82571 32497 60502 10247 20245 39946 40145 85210 333 20206 59018;EQDQ01  00002PRCP99
0174825710999992000043018004-05500-045270FM-12+017499999V0201401N001010075019N0100001N1+02921+02451101031ADDAA106000191AY161061GF107991051051008001071001MA1999999099061MD1999999-0151MW1021REMSYN082AAXX  30184 82571 21597 71402 10292 20245 39906 40103 7026/ 85570 333 59015 69921;
0210825710999992000050100004-05500-045270FM-12+017499999V0201401N001012200019N0100001N1+02571+02491101371ADDAA199000091GF104991041081008001001001KA1240M+02991MA1999999099391MD1999999-0061MW1131REMSYN094AAXX  01004 82571 31597 41402 10257 20249 39939 40137 713// 84800 333 10299 29091 55022 59006;EQDQ01  00002PRCP99
0173825710999992000050112004-05500-045270FM-12+017499999V0200901N001012200019N0100001N1+02511+02341101381ADDAA124000191GF102991021001017501041001KA1240N+02141MA1999999099401MD1999999-0061REMSYN082AAXX  01124 82571 22797 20902 10251 20234 39940 40138 82040 333 20214 59006 69924;
