0186825860999992000010112004-05200-039300FM-12+021199999V0200501N005110450019N0200001N1+02861+02161100931ADDAA106000091GF106991021031008001011001KA1240N+02321MA1999999098571MD1999999-0021REMSYN076AAXX  01124 82586 32598 60510 10286 20216 39857 40093 82310 333 20232 59002;EQDQ01  00002PRCP06
0167825860999992000010118004-05200-039300FM-12+021199999V0201401N002112200019N0200001N1+03321+01781100611ADDAA106000091GF104991999021008001001001MA1999999098271MD1999999-0161REMSYN070AAXX  01184 82586 32598 41404 10332 20178 39827 40061 83200 333 59016;EQDQ01  00002PRCP06
0196825860999992000010200004-05200-039300FM-12+021199999V0203601N003112200019N0010001N1+02821+02101100871ADDAA106000091GA1001+999999999GF100991001001999999001001KA1240M+03371MA1999999098451MD1999999-0071REMSYN070AAXX  02004 82586 32994 03606 10282 20210 39845 40087 333 10337 59007;EQDQ01  00002PRCP06
0186825860999992000010212004-05200-039300FM-12+021199999V0200501N004112200019N0200001N1+02831+02021100911ADDAA106000091GF104991041021008001001001KA1240N+02381MA1999999098551MD1999999-0021REMSYN076AAXX  02124 82586 32598 40508 10283 20202 39855 40091 84200 333 20238 59002;EQDQ01  00002PRCP06
0167825860999992000010218004-05200-039300FM-12+021199999V0201801N003110075019N0200001N1+03321+01781100591ADDAA106000091GF105991051021008001001001MA1999999098251MD1999999-0021REMSYN070AAXX  02184 82586 32598 51806 10332 20178 39825 40059 85200 333 59002;EQDQ01  00002PRCP06
0196825860999992000010300004-05200-039300FM-12+021199999V0203601N003112200019N0010001N1+02831+02101100751ADDAA106000091GA1001+999999999GF100991001001999999001001KA1240M+03351MA1999999098411MD1999999-0041REMSYN070AAXX  03004 82586 32994 03606 10283 20210 39841 40075 333 10335 59004;EQDQ01  00002PRCP06
0186825860999992000010312004-05200-039300FM-12+021199999V0200501N004610075019N0200001N1+02781+02251100871ADDAA106000091GF106991061041008001001001KA1240N+02441MA1999999098521MD1999999-0031REMSYN076AAXX  03124 82586 32598 60509 10278 20225 39852 40087 86400 333 20244 59003;EQDQ01  00002PRCP06
0167825860999992000010318004-05200-039300FM-12+021199999V0201401N003110450019N0200001N1+03321+02041100491ADDAA106000091GF106991031041008001021001MA1999999098151MD1999999-0101REMSYN070AAXX  03184 82586 32598 61406 10332 20204 39815 40049 83420 333 59010;EQDQ01  00002PRCP06
0180825860999992000010400004-05200-039300FM-12+021199999V0203601N003112200019N0010001N1+02741+02361100771ADDAA106000091GF104991999999999999999999KA1240M+03331MA1999999098411MD1999999+0001REMSYN070AAXX  04004 82586 32994 43606 10274 20236 39841 40077 333 10333 58000;EQDQ01  00002PRCP06
0186825860999992000010412004-05200-039300FM-12+021199999V0200501N001510075019N0200001N1+02761+02321100981ADDAA106000091GF106991061041008001001001KA1240N+02501MA1999999098621MD1999999+0101REMSYN076AAXX  04124 82586 32598 60503 10276 20232 39862 40098 86400 333 20250 58010;EQDQ01  00002PRCP06
0182825860999992000010418004-05200-039300FM-12+021199999V0201801N005110075019N0200001N1+02731+02341100811ADDAA106006191AY161061AY221061GF108991081071008001999999MA1999999098451MD1999999+0301MW1031REMSYN082AAXX  04184 82586 21598 81810 10273 20234 39845 40081 70362 887// 333 58030 60061;
0186825860999992000010500004-05200-039300FM-12+021199999V0209999C000010075019N0010001N1+02461+02281100831ADDAA106000091GF108991081071008001999999KA1240M+03011MA1999999098451MD1999999+0041REMSYN076AAXX  05004 82586 32594 80000 10246 20228 39845 40083 887// 333 10301 58004;EQDQ01  00002PRCP06
0173825860999992000010512004-05200-039300FM-12+021199999V0200501N001510450019N0200001N1+02641+02331101031ADDAA124006191GF107991041041008001051001KA1240N+02381MA1999999098651MD1999999+0031REMSYN082AAXX  05124 82586 22598 70503 10264 20233 39865 40103 84450 333 20238 58003 60064;
0167825860999992000010518004-05200-039300FM-12+021199999V0200501N005110075019N0200001N1+03171+02171100711ADDAA106000091GF106991061041008001001001MA1999999098351MD1999999-0101REMSYN070AAXX  05184 82586 32598 60510 10317 20217 39835 40071 86400 333 59010;EQDQ01  00002PRCP06
0173825860999992000010612004-05200-039300FM-12+021199999V0200901N004610075019N0200001N1+02861+02231101011ADDAA124000191GF106991061041008001001001KA1240N+02421MA1999999098651MD1999999+0001REMSYN082AAXX  06124 82586 22598 60909 10286 20223 39865 40101 86400 333 20242 58000 69924;
0201825860999992000010700004-05200-039300FM-12+021199999V0209999C000010075019N0010001N1+02441+02351100981ADDAA106000591AY151061AY221061GF108991081091008001999999KA1240M+03151MA1999999098621MD1999999+0071MW1131REMSYN088AAXX  07004 82586 21594 80000 10244 20235 39862 40098 71352 889// 333 10315 58007 69941;
0173825860999992000010712004-05200-039300FM-12+021199999V0200501N003110075019N0200001N1+02601+02331101021ADDAA124019191GF106991061041008001001001KA1240N+02221MA1999999098631MD1999999-0021REMSYN082AAXX  07124 82586 22598 60506 10260 20233 39863 40102 86400 333 20222 59002 60194;
0167825860999992000010718004-05200-039300FM-12+021199999V02099999999990075019N0200001N1+03051+02301100721ADDAA106000091GF106991061041008001001001MA1999999098351MD1999999-0111REMSYN070AAXX  07184 82586 32598 614// 10305 20230 39835 40072 86400 333 59011;EQDQ01  00002PRCP06
0214825860999992000010800004-05200-039300FM-12+021199999V0203601N005110075019N0010001N1+02731+02391100901ADDAA106000091AY121061AY221061GF106991061021008001001001KA1240M+03101MA1999999098461MD1999999-0161MW1131REMSYN082AAXX  08004 82586 31594 63610 10273 20239 39846 40090 71322 86200 333 10310 59016;EQDQ01  00002PRCP06
0201825860999992000010812004-05200-039300FM-12+021199999V0200901N004110075019N0200001N1+02481+02381100971ADDAA124005191AY161061AY251061GF108991081071008001999999KA1240N+02221MA1999999098601MD1999999-0031MW1021REMSYN088AAXX  08124 82586 21598 80908 10248 20238 39860 40097 70265 887// 333 20222 59003 60054;
0167825860999992000010818004-05200-039300FM-12+021199999V0202301N001512200019N0200001N1+02901+02341100671ADDAA106000091GF106991031041008001001041MA1999999098301MD1999999-0051REMSYN070AAXX  08184 82586 32598 62303 10290 20234 39830 40067 83404 333 59005;EQDQ01  00002PRCP06
0201825860999992000010900004-05200-039300FM-12+021199999V0203601N001510075019N0010001N1+02351+02311101021ADDAA106001091AY191061AY261061GF108991081091008001999999KA1240M+03131MA1999999098621MD1999999+0161MW1131REMSYN088AAXX  09004 82586 21594 83603 10235 20231 39862 40102 71396 889// 333 10313 58016 60011;
0201825860999992000010912004-05200-039300FM-12+021199999V0201401N003110075019N0200001N1+02401+02231101131ADDAA124006191AY191061AY281061GF108991081071008001999999KA1240N+02221MA1999999098731MD1999999+0131MW1031REMSYN088AAXX  09124 82586 21598 81406 10240 20223 39873 40113 70398 887// 333 20222 58013 60064;
0201825860999992000010918004-05200-039300FM-12+021199999V02099999999999999999N0200001N1+02891+02481100821ADDAA106000591AY151061AY221061GF106991999021008001001001MA1999999098451MD1999999+0151MW1031REMSYN082AAXX  09184 82586 21598 618// 10289 20248 39845 40082 70352 83200 333 58015 69951;EQDQ01+000032SCOTLC
0201825860999992000011000004-05200-039300FM-12+021199999V0203601N001510075019N0010001N1+02491+02271101021ADDAA106008991AY161061AY221061GF108991081051008001999999KA1240M+03041MA1999999098641MD1999999+0001MW1131REMSYN088AAXX  10004 82586 21594 83603 10249 20227 39864 40102 71362 885// 333 10304 58000 60091;
0201825860999992000011012004-05200-039300FM-12+021199999V0200501N003110075019N0200001N1+02581+02481101131ADDAA124014091AY161061AY251061GF108991081071008001999999KA1240N+02501MA1999999098751MD1999999+0021MW1031REMSYN088AAXX  10124 82586 21598 80506 10258 20248 39875 40113 70365 887// 333 20250 58002 60144;
0167825860999992000011018004-05200-039300FM-12+021199999V0201401N003110075019N0200001N1+03541+02101100761ADDAA106000091GF106991061041008001001001MA1999999098411MD1999999-0041REMSYN070AAXX  10184 82586 32598 61406 10354 20210 39841 40076 86400 333 59004;EQDQ01  00002PRCP06
0186825860999992000011100004-05200-039300FM-12+021199999V0200501N001010075019N0010001N1+02681+02201100941ADDAA106000091GF106991061021008001001001KA1240M+03191MA1999999098551MD1999999-0071REMSYN076AAXX  11004 82586 32594 60502 10268 20220 39855 40094 86200 333 10319 59007;EQDQ01  00002PRCP06
0186825860999992000011112004-05200-039300FM-12+021199999V0200901N001510450019N0200001N1+02681+02221101011ADDAA106000091GF106991041041008001021001KA1240N+02481MA1999999098651MD1999999-0101REMSYN076AAXX  11124 82586 32598 60903 10268 20222 39865 40101 84420 333 20248 59010;EQDQ01  00002PRCP06
0167825860999992000011118004-05200-039300FM-12+021199999V0200501N002110075019N0200001N1+03131+02111100771ADDAA106000091GF107991071041008001001001MA1999999098421MD1999999+0011REMSYN070AAXX  11184 82586 32598 70504 10313 20211 39842 40077 87400 333 58001;EQDQ01  00002PRCP06
0186825860999992000011200004-05200-039300FM-12+021199999V02099999999990075019N0010001N1+02701+02171100851ADDAA106000091GF106991061041008001001001KA1240M+03171MA1999999098491MD1999999-0061REMSYN076AAXX  12004 82586 32594 6//// 10270 20217 39849 40085 86400 333 10317 59006;EQDQ01  00002PRCP06
0186825860999992000011212004-05200-039300FM-12+021199999V0200501N005112200019N0200001N1+02821+02101100991ADDAA106000091GF105991031021008001001041KA1240N+02461MA1999999098631MD1999999-0021REMSYN076AAXX  12124 82586 32598 50510 10282 20210 39863 40099 83204 333 20246 59002;EQDQ01  00002PRCP06
0167825860999992000011218004-05200-039300FM-12+021199999V0201801N001512200019N0200001N1+03221+01911100731ADDAA106000091GF104991041021008001001001MA1999999098381MD1999999-0041REMSYN070AAXX  12184 82586 32598 41803 10322 20191 39838 40073 84200 333 59004;EQDQ01  00002PRCP06
0125825860999992000011312004-05200-039300FM-12+021199999V0200901N004119999999N0200001N1+02481+02381999999ADDGF108991999999008001999999REMSYN087AAXX  13124 82586 21598 80908 10248 20238 3984 40111 70362 887// 333 20238 58011 60014;
0182825860999992000011318004-05200-039300FM-12+021199999V0201801N003110450019N0200001N1+02961+02101100811ADDAA106002091AY161061AY221061GF108991041031008001021999MA1999999098451MD1999999+0071MW1031REMSYN082AAXX  13184 82586 21598 81806 10296 20210 39845 40081 70362 8432/ 333 58007 60021;
0190825860999992000011400004-05200-039300FM-12+021199999V0203601N001010075019N0010001N1+02631+02121100901ADDAA199000091GF106991061021008001001001KA1240M+03081MA1999999098521MD1999999-0011REMSYN080    AAXX  14004 82586 32594 63602 10263 20212 39852 40090 86200 333 10308 59001;EQDQ01  00002PRCP99
0177825860999992000011412004-05200-039300FM-12+021199999V0200501N003610075019N0200001N1+02761+02281100971ADDAA124002091GF106991061041008001001001KA1240N+02441MA1999999098611MD1999999-0131REMSYN086    AAXX  14124 82586 22598 60507 10276 20228 39861 40097 86400 333 20244 59013 60024;
0171825860999992000011418004-05200-039300FM-12+021199999V0201801N003612200019N0200001N1+03201+01961100701ADDAA199000091GF106991031021008001001041MA1999999098351MD1999999-0101REMSYN074    AAXX  14184 82586 32598 61807 10320 20196 39835 40070 83204 333 59010;EQDQ01  00002PRCP99
0184825860999992000011500004-05200-039300FM-12+021199999V0200501N001512200019N0010001N1+02741+02261100791ADDAA199000091GF103991999999999999999999KA1240M+03251MA1999999098431MD1999999-0091REMSYN074    AAXX  15004 82586 32994 30503 10274 20226 39843 40079 333 10325 59009;EQDQ01  00002PRCP99
0205825860999992000011512004-05200-039300FM-12+021199999V0200501N001010075019N0200001N1+02401+02331100991ADDAA124003091AY161061AY261061GF108991081051008001999999KA1240N+02401MA1999999098621MD1999999+0011MW1611REMSYN092    AAXX  15124 82586 21598 80502 10240 20233 39862 40099 76166 885// 333 20240 58001 60034;
0205825860999992000011518004-05200-039300FM-12+021199999V02099999999999999999N0200001N1+02301+02181100831ADDAA106008991AY191061AY261061GF108991999011008001001001MA1999999098431MD1999999+0081MW1031REMSYN086    AAXX  15184 82586 21598 818// 10230 20218 39843 40083 70396 82100 333 58008 60091;EQDQ01+000022SCOTLC
0171825860999992000011600004-05200-039300FM-12+021199999V0200501N001010120019N0010001N1+02321+01961100911ADDAA199000021GF107991071021012501001001KA1240M+02761MA1999999098511MD1999999+0081REMSYN080    AAXX  16004 82586 32694 70502 10232 20196 39851 40091 87200 333 10276 58008;
0177825860999992000011612004-05200-039300FM-12+021199999V0201801N002110075019N0200001N1+02321+02271101061ADDAA124008991GF108991081071008001999999KA1240N+02101MA1999999098661MD1999999+0041REMSYN086    AAXX  16124 82586 22598 81804 10232 20227 39866 40106 887// 333 20210 58004 60094;
0186825860999992000011618004-05200-039300FM-12+021199999V0201401N001010075019N0200001N1+02521+02381100931ADDAA106005191AY161061AY251061GF108991081071008001999999MA1999999098531MD1999999+0101MW1031REMSYN086    AAXX  16184 82586 21598 81402 10252 20238 39853 40093 70365 887// 333 58010 60051;
0205825860999992000011700004-05200-039300FM-12+021199999V0209999C000012200019N0010001N1+02361+02091100951ADDAA106000191AY151061AY221061GF104991041021008001001001KA1240M+02751MA1999999098551MD1999999+0041MW1031REMSYN092    AAXX  17004 82586 21594 40000 10236 20209 39855 40095 70352 84200 333 10275 58004 69921;
0177825860999992000011712004-05200-039300FM-12+021199999V02099999999990075019N0200001N1+02581+02371101041ADDAA124006191GF108991081071008001999999KA1240N+02221MA1999999098651MD1999999-0011REMSYN086    AAXX  17124 82586 22598 814// 10258 20237 39865 40104 887// 333 20222 59001 60064;
0171825860999992000011718004-05200-039300FM-12+021199999V0200501N003110075019N0200001N1+02701+02431100891ADDAA199000091GF108991051021008001021999MA1999999098511MD1999999-0021REMSYN074    AAXX  17184 82586 32598 80506 10270 20243 39851 40089 8522/ 333 59002;EQDQ01  00002PRCP99
0190825860999992000011800004-05200-039300FM-12+021199999V0200501N002112200019N0010001N1+02481+02301101061ADDAA199000091GF104991041021008001001001KA1240M+02981MA1999999098681MD1999999+0131REMSYN080    AAXX  18004 82586 32594 40504 10248 20230 39868 40106 84200 333 10298 58013;EQDQ01  00002PRCP99
0190825860999992000011812004-05200-039300FM-12+021199999V0200901N003610075019N0200001N1+02661+02311101171ADDAA199000091GF106991061041008001001001KA1240N+02281MA1999999098791MD1999999+0141REMSYN080    AAXX  18124 82586 32598 60907 10266 20231 39879 40117 86400 333 20228 58014;EQDQ01  00002PRCP99
0171825860999992000011818004-05200-039300FM-12+021199999V0201401N001510450019N0200001N1+03061+02141100811ADDAA199000091GF106991031021008001021001MA1999999098451MD1999999-0061REMSYN074    AAXX  18184 82586 32598 61403 10306 20214 39845 40081 83220 333 59006;EQDQ01  00002PRCP99
0200825860999992000011900004-05200-039300FM-12+021199999V0203601N001512200019N0010001N1+02521+02211101031ADDAA199000091GA1001+999999999GF100991001001999999001001KA1240M+03131MA1999999098661MD1999999-0021REMSYN074    AAXX  19004 82586 32994 03603 10252 20221 39866 40103 333 10313 59002;EQDQ01  00002PRCP99
0205825860999992000011912004-05200-039300FM-12+021199999V0200501N003610075019N0200001N1+02741+02301101111ADDAA124000191AY151061AY221061GF106991061041008001001001KA1240N+02341MA1999999098741MD1999999-0051MW1031REMSYN092    AAXX  19124 82586 21598 60507 10274 20230 39874 40111 70352 86400 333 20234 59005 69924;
0167825860999992000011918004-05200-039300FM-12+021199999V0200901N003112200019N0200001N1+03231+02081100761ADDAA199000091GF104991041021008001001001MA1999999098421MD1999999-0031REMSYN070AAXX  19184 82586 32598 40906 10323 20208 39842 40076 84200 333 59003;EQDQ01  00002PRCP99
0196825860999992000012000004-05200-039300FM-12+021199999V0200501N001512200019N0010001N1+02671+02221100971ADDAA199000091GA1001+999999999GF100991001001999999001001KA1240M+03271MA1999999098611MD1999999-0051REMSYN070AAXX  20004 82586 32994 00503 10267 20222 39861 40097 333 10327 59005;EQDQ01  00002PRCP99
0167825860999992000012018004-05200-039300FM-12+021199999V02099999999990075019N0200001N1+03031+02181100781ADDAA199000091GF106991061041008001001001MA1999999098421MD1999999+0001REMSYN070AAXX  20184 82586 32598 614// 10303 20218 39842 40078 86400 333 58000;EQDQ01  00002PRCP99
0186825860999992000012100004-05200-039300FM-12+021199999V02099999999990120019N0010001N1+02571+02191101021ADDAA199000091GF105991051021012501001001KA1240M+03231MA1999999098651MD1999999+0041REMSYN076AAXX  21004 82586 32694 527// 10257 20219 39865 40102 85200 333 10323 58004;EQDQ01  00002PRCP99
0173825860999992000012112004-05200-039300FM-12+021199999V0200901N004610075019N0200001N1+02861+02231101011ADDAA124000191GF106991061041008001001001KA1240N+02421MA1999999098651MD1999999+0001REMSYN082AAXX  21124 82586 22598 60909 10286 20223 39865 40101 86400 333 20242 58000 69924;
0167825860999992000012118004-05200-039300FM-12+021199999V0200501N003611050019N0200001N1+03321+01891100731ADDAA199000091GF106991031021008001001021MA1999999098381MD1999999-0041REMSYN070AAXX  21184 82586 32598 60507 10332 20189 39838 40073 83202 333 59004;EQDQ01  00002PRCP99
0186825860999992000012200004-05200-039300FM-12+021199999V0203601N002610120019N0010001N1+02741+02301100961ADDAA199000091GF105991051021012501001001KA1240M+03351MA1999999098601MD1999999-0051REMSYN076AAXX  22004 82586 32694 53605 10274 20230 39860 40096 85200 333 10335 59005;EQDQ01  00002PRCP99
0186825860999992000012212004-05200-039300FM-12+021199999V0200901N001510075019N0200001N1+02721+02301101121ADDAA199000091GF106991061041008001001001KA1240N+02221MA1999999098761MD1999999+0081REMSYN076AAXX  22124 82586 32598 60903 10272 20230 39876 40112 86400 333 20222 58008;EQDQ01  00002PRCP99
0152825860999992000012218004-05200-039300FM-12+021199999V0203601N005119999999N0200001N1+03191+02041999999ADDAA199000091GF106991999999008001999999MA1999999098481REMSYN069AAXX  22184 82586 32598 63610 10319 20204 39848 4003 86400 333 58010;EQDQ01  00002PRCP99
0186825860999992000012300004-05200-039300FM-12+021199999V0203601N005110120019N0010001N1+02641+02201101011ADDAA199000091GF106991061001012501021001KA1240M+03371MA1999999098651MD1999999+0051REMSYN076AAXX  23004 82586 32694 63610 10264 20220 39865 40101 86020 333 10337 58005;EQDQ01  00002PRCP99
0202825860999992000012312004-05200-039300FM-12+021199999V02099999999999999999N0200001N1+02731+02261101081ADDAA199000091GF107991999021008001001001KA1240N+02251MA1999999098721MD1999999-0041REMSYN076AAXX  23124 82586 32598 736// 10273 20226 39872 40108 83200 333 20225 59004;EQDQ01+000032SCOTLCQ02  00002PRCP99
0183825860999992000012318004-05200-039300FM-12+021199999V0200501N005119999999N0200001N1+03141+02161100801ADDAA199000091GF107991999021008001001001MA1999999098451MD1999999-0031REMSYN070AAXX  23184 82586 32598 70510 10314 20216 39845 40080 83200 333 59003;EQDQ01+000032SCOTLCQ02  00002PRCP99
0214825860999992000012400004-05200-039300FM-12+021199999V0203601N004610075019N0010001N1+02701+02131100951ADDAA199000091AY121061AY221061GF106991061021008001001001KA1240M+03201MA1999999098591MD1999999-0061MW1131REMSYN082AAXX  24004 82586 31594 63609 10270 20213 39859 40095 71322 86200 333 10320 59006;EQDQ01  00002PRCP99
0186825860999992000012412004-05200-039300FM-12+021199999V0200501N004610075019N0200001N1+02741+02141101021ADDAA199000091GF106991061041008001001001KA1240N+02421MA1999999098661MD1999999-0061REMSYN076AAXX  24124 82586 32598 60509 10274 20214 39866 40102 86400 333 20242 59006;EQDQ01  00002PRCP99
0167825860999992000012418004-05200-039300FM-12+021199999V0200501N003110075019N0200001N1+03261+01951100801ADDAA199000091GF106991061021008001001001MA1999999098451MD1999999+0001REMSYN070AAXX  24184 82586 32598 60506 10326 20195 39845 40080 86200 333 58000;EQDQ01  00002PRCP99
0196825860999992000012500004-05200-039300FM-12+021199999V0200501N003112200019N0010001N1+02701+01991100931ADDAA199000091GA1001+999999999GF100991001001999999001001KA1240M+03301MA1999999098571MD1999999-0021REMSYN070AAXX  25004 82586 32994 00506 10270 20199 39857 40093 333 10330 59002;EQDQ01  00002PRCP99
0186825860999992000012512004-05200-039300FM-12+021199999V0200501N004110075019N0200001N1+02741+02261101121ADDAA199000091GF106991061041008001001001KA1240N+02301MA1999999098751MD1999999+0091REMSYN076AAXX  25124 82586 32598 60508 10274 20226 39875 40112 86400 333 20230 58009;EQDQ01  00002PRCP99
0167825860999992000012518004-05200-039300FM-12+021199999V0201801N002112200019N0200001N1+03261+01721100911ADDAA199000091GF104991031021008001001021MA1999999098551MD1999999+0101REMSYN070AAXX  25184 82586 32598 41804 10326 20172 39855 40091 83202 333 58010;EQDQ01  00002PRCP99
0196825860999992000012600004-05200-039300FM-12+021199999V0200901N005112200019N0010001N1+02701+02111100991ADDAA199000091GA1001+999999999GF100991001001999999001001KA1240M+03321MA1999999098631MD1999999+0061REMSYN070AAXX  26004 82586 32994 00910 10270 20211 39863 40099 333 10332 58006;EQDQ01  00002PRCP99
0186825860999992000012612004-05200-039300FM-12+021199999V0201401N003110075019N0200001N1+02701+02221101211ADDAA199000091GF106991061041008001001001KA1240N+02361MA1999999098841MD1999999+0091REMSYN076AAXX  26124 82586 32598 61406 10270 20222 39884 40121 86400 333 20236 58009;EQDQ01  00002PRCP99
0167825860999992000012618004-05200-039300FM-12+021199999V0201401N002612200019N0200001N1+03261+01911100861ADDAA199000091GF104991041021008001001001MA1999999098511MD1999999-0041REMSYN070AAXX  26184 82586 32598 41405 10326 20191 39851 40086 84200 333 59004;EQDQ01  00002PRCP99
0196825860999992000012700004-05200-039300FM-12+021199999V0200901N005112200019N0010001N1+02771+02041100971ADDAA199000091GA1001+999999999GF100991001001999999001001KA1240M+03301MA1999999098611MD1999999-0021REMSYN070AAXX  27004 82586 32994 00910 10277 20204 39861 40097 333 10330 59002;EQDQ01  00002PRCP99
0186825860999992000012712004-05200-039300FM-12+021199999V0200901N003610075019N0200001N1+02841+02401101151ADDAA199000091GF106991061021008001001001KA1240N+02481MA1999999098791MD1999999-0051REMSYN076AAXX  27124 82586 32598 60907 10284 20240 39879 40115 86200 333 20248 59005;EQDQ01  00002PRCP99
0167825860999992000012718004-05200-039300FM-12+021199999V0201401N002612200019N0200001N1+03421+01831100791ADDAA199000091GF104991041021008001001001MA1999999098451MD1999999-0061REMSYN070AAXX  27184 82586 32598 41405 10342 20183 39845 40079 84200 333 59006;EQDQ01  00002PRCP99
0167825860999992000012818004-05200-039300FM-12+021199999V0201801N003612200019N0200001N1+03361+01931100761ADDAA199000091GF106991031021008001001041MA1999999098421MD1999999-0031REMSYN070AAXX  28184 82586 32598 61807 10336 20193 39842 40076 83204 333 59003;EQDQ01  00002PRCP99
0196825860999992000012900004-05200-039300FM-12+021199999V0200501N005112200019N0010001N1+02821+02201100891ADDAA199000091GA1001+999999999GF100991001001999999001001KA1240M+03391MA1999999098541MD1999999-0111REMSYN070AAXX  29004 82586 32994 00510 10282 20220 39854 40089 333 10339 59011;EQDQ01  00002PRCP99
0202825860999992000012912004-05200-039300FM-12+021199999V0200901N004119999999N0200001N1+02741+02211101191ADDAA199000091GF105991999021008001001001KA1240N+02501MA1999999098791MD1999999+0041REMSYN076AAXX  29124 82586 32598 50908 10274 20221 39879 40119 84200 333 20250 58004;EQDQ01+000042SCOTLCQ02  00002PRCP99
0137825860999992000012918004-05200-039300FM-12+021199999V0200901N003119999999N0200001N1+03321+01781999999ADDAA199000091GF105991999999008001999999REMSYN069AAXX  29184 82586 32598 50906 10332 20178 9848 40082 82100 333 58006;EQDQ01  00002PRCP99
0196825860999992000013000004-05200-039300FM-12+021199999V0200501N005112200019N0010001N1+02741+02101100981ADDAA199000091GA1001+999999999GF100991001001999999001001KA1240M+03391MA1999999098621MD1999999+0081REMSYN070AAXX  30004 82586 32994 00510 10274 20210 39862 40098 333 10339 58008;EQDQ01  00002PRCP99
0186825860999992000013012004-05200-039300FM-12+021199999V0201401N005110075019N0200001N1+02811+02251101221ADDAA199000091GF106991061041008001001001KA1240N+02431MA1999999098851MD1999999+0061REMSYN076AAXX  30124 82586 32598 61410 10281 20225 39885 40122 86400 333 20243 58006;EQDQ01  00002PRCP99
0167825860999992000013018004-05200-039300FM-12+021199999V0201801N007210075019N0200001N1+02661+02391101001ADDAA199000091GF108991081071008001999999MA1999999098621MD1999999+0141REMSYN070AAXX  30184 82586 32598 81814 10266 20239 39862 40100 887// 333 58014;EQDQ01  00002PRCP99
0201825860999992000013100004-05200-039300FM-12+021199999V02099999999992200019N0010001N1+02621+02251101121ADDAA106003091AY161061AY221061GF104991041021008001001001KA1240M+03251MA1999999098751MD1999999+0131MW1031REMSYN088AAXX  31004 82586 21594 4//// 10262 20225 39875 40112 70362 84200 333 10325 58013 60031;
0173825860999992000013112004-05200-039300FM-12+021199999V0200901N001011050019N0200001N1+02701+02281101251ADDAA124003091GF105991021011008001001021KA1240N+02281MA1999999098881MD1999999+0031REMSYN082AAXX  31124 82586 22598 50902 10270 20228 39888 40125 82102 333 20228 58003 60034;
0167825860999992000013118004-05200-039300FM-12+021199999V0201801N003112200019N0200001N1+03361+02021101001ADDAA199000091GF106991041011008001001011MA1999999098651MD1999999+0031REMSYN070AAXX  31184 82586 32598 61806 10336 20202 39865 40100 84101 333 58003;EQDQ01  00002PRCP99
0196825860999992000020100004-05200-039300FM-12+021199999V0203601N001012200019N0010001N1+02961+01961101031ADDAA199000091GA1001+999999999GF100991001001999999001001KA1240M+03431MA1999999098671MD1999999-0081REMSYN070AAXX  01004 82586 32994 03602 10296 20196 39867 40103 333 10343 59008;EQDQ01  00002PRCP99
0186825860999992000020112004-05200-039300FM-12+021199999V0200901N004612200019N0200001N1+02941+02191101241ADDAA199000091GF102991021011008001001001KA1240N+02521MA1999999098891MD1999999+0011REMSYN076AAXX  01124 82586 32598 20909 10294 20219 39889 40124 82100 333 20252 58001;EQDQ01  00002PRCP99
0167825860999992000020118004-05200-039300FM-12+021199999V0200901N003112200019N0200001N1+03541+01891100891ADDAA199000091GF104991041011008001001001MA1999999098551MD1999999-0101REMSYN070AAXX  01184 82586 32598 40906 10354 20189 39855 40089 84100 333 59010;EQDQ01  00002PRCP99
0196825860999992000020200004-05200-039300FM-12+021199999V0200501N004112200019N0010001N1+03001+02141100991ADDAA199000091GA1001+999999999GF100991001001999999001001KA1240M+03601MA1999999098651MD1999999-0021REMSYN070AAXX  02004 82586 32994 00508 10300 20214 39865 40099 333 10360 59002;EQDQ01  00002PRCP99
0186825860999992000020212004-05200-039300FM-12+021199999V0200901N004110075019N0200001N1+02881+02411101161ADDAA199000091GF106991061021008001001001KA1240N+02521MA1999999098811MD1999999-0081REMSYN076AAXX  02124 82586 32598 60908 10288 20241 39881 40116 86200 333 20252 59008;EQDQ01  00002PRCP99
0180825860999992000020300004-05200-039300FM-12+021199999V0200501N003612200019N0010001N1+02781+02251101011ADDAA199000091GF104991999999999999999999KA1240M+03481MA1999999098651MD1999999+0001REMSYN070AAXX  03004 82586 32994 40507 10278 20225 39865 40101 333 10348 58000;EQDQ01  00002PRCP99
0186825860999992000020312004-05200-039300FM-12+021199999V0200501N003110075019N0200001N1+02801+02341101111ADDAA199000091GF106991061041008001001001KA1240N+02441MA1999999098751MD1999999-0061REMSYN076AAXX  03124 82586 32598 60506 10280 20234 39875 40111 86400 333 20244 59006;EQDQ01  00002PRCP99
0167825860999992000020318004-05200-039300FM-12+021199999V0200901N003110075019N0200001N1+03441+01961100711ADDAA199000091GF106991061041008001001001MA1999999098371MD1999999-0121REMSYN070AAXX  03184 82586 32598 60906 10344 20196 39837 40071 86400 333 59012;EQDQ01  00002PRCP99
0196825860999992000020400004-05200-039300FM-12+021199999V0200501N003612200019N0010001N1+02741+02261101011ADDAA199000091GA1001+999999999GF100991001001999999001001KA1240M+03491MA1999999098651MD1999999+0001REMSYN070AAXX  04004 82586 32994 00507 10274 20226 39865 40101 333 10349 58000;EQDQ01  00002PRCP99
0186825860999992000020412004-05200-039300FM-12+021199999V0200501N003110075019N0200001N1+02861+02231101151ADDAA199000091GF106991061041008001001001KA1240N+02361MA1999999098791MD1999999+0041REMSYN076AAXX  04124 82586 32598 60506 10286 20223 39879 40115 86400 333 20236 58004;EQDQ01  00002PRCP99
0167825860999992000020418004-05200-039300FM-12+021199999V0200501N005110075019N0200001N1+03311+01951100911ADDAA199000091GF107991071021008001001001MA1999999098551MD1999999+0181REMSYN070AAXX  04184 82586 32598 70510 10331 20195 39855 40091 87200 333 58018;EQDQ01  00002PRCP99
0196825860999992000020500004-05200-039300FM-12+021199999V0200501N003112200019N0010001N1+02751+02261100981ADDAA199000091GA1001+999999999GF100991001001999999001001KA1240M+03371MA1999999098621MD1999999-0031REMSYN070AAXX  05004 82586 32994 00506 10275 20226 39862 40098 333 10337 59003;EQDQ01  00002PRCP99
0186825860999992000020512004-05200-039300FM-12+021199999V0200901N003610075019N0200001N1+02801+02251101221ADDAA199000091GF106991061041008001001001KA1240N+02381MA1999999098851MD1999999+0061REMSYN076AAXX  05124 82586 32598 60907 10280 20225 39885 40122 86400 333 20238 58006;EQDQ01  00002PRCP99
0167825860999992000020518004-05200-039300FM-12+021199999V0200501N004110075019N0200001N1+03401+02071100911ADDAA199000091GF106991061021008001001001MA1999999098551MD1999999+0001REMSYN070AAXX  05184 82586 32598 60508 10340 20207 39855 40091 86200 333 58000;EQDQ01  00002PRCP99
0186825860999992000020612004-05200-039300FM-12+021199999V0200901N002110075019N0200001N1+02791+02271101211ADDAA199000091GF106991061021008001001001KA1240N+02451MA1999999098551MD1999999+0001REMSYN076AAXX  06124 82586 32598 60904 10279 20227 39855 40121 86200 333 20245 58000;EQDQ01  00002PRCP99
0183825860999992000020618004-05200-039300FM-12+021199999V0201801N004619999999N0200001N1+03441+01921100891ADDAA199000091GF106991999021008001001001MA1999999098551MD1999999+0001REMSYN070AAXX  06184 82586 32598 61809 10344 20192 39855 40089 83200 333 58000;EQDQ01+000032SCOTLCQ02  00002PRCP99
0214825860999992000020700004-05200-039300FM-12+021199999V0200501N005110075019N0010001N1+02811+02311101011ADDAA199000091AY121061AY221061GF106991061021008001001001KA1240M+03501MA1999999098651MD1999999-0101MW1131REMSYN082AAXX  07004 82586 31594 60510 10281 20231 39865 40101 71322 86200 333 10350 59010;EQDQ01  00002PRCP99
0186825860999992000020712004-05200-039300FM-12+021199999V0200901N002110075019N0200001N1+02861+02311101111ADDAA199000091GF106991061041008001001001KA1240N+02461MA1999999098751MD1999999-0171REMSYN076AAXX  07124 82586 32598 60904 10286 20231 39875 40111 86400 333 20246 59017;EQDQ01  00002PRCP99
0167825860999992000020718004-05200-039300FM-12+021199999V0200501N003110450019N0200001N1+03371+01771100921ADDAA199000091GF108991031041008001021999MA1999999098581MD1999999+0031REMSYN070AAXX  07184 82586 32598 80506 10337 20177 39858 40092 8342/ 333 58003;EQDQ01  00002PRCP99
0180825860999992000020800004-05200-039300FM-12+021199999V0200501N003619999999N0010001N1+02811+02201101111ADDAA199000091GF105991999999999999999999KA1240M+03421MA1999999098751MD1999999+0101REMSYN070AAXX  08004 82586 32994 50507 10281 20220 39875 40111 333 10342 58010;EQDQ01  00002PRCP99
0186825860999992000020812004-05200-039300FM-12+021199999V0200901N002610075019N0200001N1+02901+02391101161ADDAA199000091GF106991061041008001001001KA1240N+02441MA1999999098801MD1999999+0051REMSYN076AAXX  08124 82586 32598 60905 10290 20239 39880 40116 86400 333 20244 58005;EQDQ01  00002PRCP99
0167825860999992000020818004-05200-039300FM-12+021199999V0201801N003112200019N0200001N1+03161+01901100911ADDAA199000091GF107991041041008001001041MA1999999098551MD1999999-0031REMSYN070AAXX  08184 82586 32598 71806 10316 20190 39855 40091 84404 333 59003;EQDQ01  00002PRCP99
0201825860999992000020900004-05200-039300FM-12+021199999V0200501N003110075019N0010001N1+02601+02351101131ADDAA106000191AY151061AY221061GF106991061021008001001001KA1240M+03221MA1999999098771MD1999999+0021MW1131REMSYN088AAXX  09004 82586 21594 60506 10260 20235 39877 40113 71352 86200 333 10322 58002 69921;
0201825860999992000020912004-05200-039300FM-12+021199999V0200901N003110075019N0200001N1+02401+02301101251ADDAA124015091AY161061AY251061GF108991081071008001999999KA1240N+02201MA1999999098871MD1999999+0071MW1521REMSYN088AAXX  09124 82586 21598 80906 10240 20230 39887 40125 75265 887// 333 20220 58007 60154;
0182825860999992000020918004-05200-039300FM-12+021199999V0201801N003110450019N0200001N1+03061+01831100871ADDAA106000191AY151061AY221061GF107991041021008001021001MA1999999098511MD1999999-0041MW1031REMSYN082AAXX  09184 82586 21598 71806 10306 20183 39851 40087 70352 84220 333 59004 69921;
0167825860999992000021000004-05200-039300FM-12+021199999V0200501N003112200019N0010001N1+02641+02141101041ADDAA199000021GF104991041021008001001001KA1240M+03101MA1999999098651MD1999999-0121REMSYN076AAXX  10004 82586 32594 40506 10264 20214 39865 40104 84200 333 10310 59012;
0173825860999992000021012004-05200-039300FM-12+021199999V0200901N004110075019N0200001N1+02681+02281101191ADDAA124000191GF106991061041008001001001KA1240N+02321MA1999999098811MD1999999-0061REMSYN082AAXX  10124 82586 22598 60908 10268 20228 39881 40119 86400 333 20232 59006 69924;
0182825860999992000021018004-05200-039300FM-12+021199999V0200501N001510075019N0200001N1+02621+02411100941ADDAA106003091AY161061AY221061GF108991081071008001999999MA1999999098551MD1999999+0041MW1611REMSYN082AAXX  10184 82586 21598 80503 10262 20241 39855 40094 76162 887// 333 58004 60031;
0167825860999992000021100004-05200-039300FM-12+021199999V0200501N002610075019N0200001N1+02661+02291101081ADDAA199000021GF106991061021008001001001KA1240M+03381MA1999999098691MD1999999+0041REMSYN076AAXX  11004 82586 32598 60505 10266 20229 39869 40108 86200 333 10338 58004;
0173825860999992000021112004-05200-039300FM-12+021199999V0201401N003110075019N0200001N1+02761+02281101121ADDAA124002091GF106991061041008001001001KA1240N+02341MA1999999098751MD1999999-0061REMSYN082AAXX  11124 82586 22598 61406 10276 20228 39875 40112 86400 333 20234 59006 60024;
0167825860999992000021118004-05200-039300FM-12+021199999V0201801N003110075019N0200001N1+03361+01771100821ADDAA199000091GF105991051021008001001001MA1999999098481MD1999999-0071REMSYN070AAXX  11184 82586 32598 51806 10336 20177 39848 40082 85200 333 59007;EQDQ01  00002PRCP99
0218825860999992000021200004-05200-039300FM-12+021199999V0200501N003119999999N0010001N1+02711+02261101021ADDAA199000091GF105991051001008001051001KA1240M+03401MA1999999999999MD1999999-0031REMSYN076AAXX  12004 82586 32594 50506 10271 20226 39666 40102 85050 333 10340 59003;EQDQ01+096663APOSP Q02  00002PRCP99Q03 096663APOSP 
0202825860999992000021212004-05200-039300FM-12+021199999V0201401N004119999999N0200001N1+02781+02251101071ADDAA199000091GF106991999011008001001001KA1240N+02401MA1999999098711MD1999999-0041REMSYN076AAXX  12124 82586 32598 61408 10278 20225 39871 40107 82100 333 20240 59004;EQDQ01+000022SCOTLCQ02  00002PRCP99
0167825860999992000021218004-05200-039300FM-12+021199999V0201801N003610075019N0200001N1+03411+01641100661ADDAA199000091GF106991061021008001001001MA1999999098351MD1999999-0131REMSYN070AAXX  12184 82586 32598 61807 10341 20164 39835 40066 86200 333 59013;EQDQ01  00002PRCP99
0214825860999992000021300004-05200-039300FM-12+021199999V0200501N005110075019N0010001N1+02781+02161100921ADDAA199000091AY121061AY221061GF105991051021008001001001KA1240M+03441MA1999999098551MD1999999-0111MW1131REMSYN082AAXX  13004 82586 31594 50510 10278 20216 39855 40092 71322 85200 333 10344 59011;EQDQ01  00002PRCP99
0186825860999992000021312004-05200-039300FM-12+021199999V0201401N003610075019N0200001N1+02681+02161101081ADDAA199000091GF107991071041008001001001KA1240N+02361MA1999999098721MD1999999+0011REMSYN076AAXX  13124 82586 32598 71407 10268 20216 39872 40108 87400 333 20236 58001;EQDQ01  00002PRCP99
0167825860999992000021318004-05200-039300FM-12+021199999V0200901N003110075019N0200001N1+03411+01811100751ADDAA199000091GF106991061021008001001001MA1999999098411MD1999999+0061REMSYN070AAXX  13184 82586 32598 60906 10341 20181 39841 40075 86200 333 58006;EQDQ01  00002PRCP99
0214825860999992000021400004-05200-039300FM-12+021199999V0209999C000010075019N0010001N1+02731+02301101011ADDAA199000091AY121061AY221061GF106991061031008001001001KA1240M+03491MA1999999098651MD1999999+0101MW1131REMSYN082AAXX  14004 82586 31594 60000 10273 20230 39865 40101 71322 86300 333 10349 58010;EQDQ01  00002PRCP99
0186825860999992000021412004-05200-039300FM-12+021199999V0201801N002110075019N0200001N1+02501+02071101191ADDAA199000091GF107991071071008001001001KA1240N+02201MA1999999098811MD1999999+0091REMSYN076AAXX  14124 82586 32598 71804 10250 20207 39881 40119 87700 333 20220 58009;EQDQ01  00002PRCP99
0167825860999992000021418004-05200-039300FM-12+021199999V02099999999990075019N0200001N1+03181+01941100871ADDAA199000091GF106991061021008001001001MA1999999098511MD1999999+0101REMSYN070AAXX  14184 82586 32598 618// 10318 20194 39851 40087 86200 333 58010;EQDQ01  00002PRCP99
0214825860999992000021500004-05200-039300FM-12+021199999V02099999999990075019N0040001N1+02801+02221101081ADDAA199000091AY121061AY221061GF106991061021008001001001KA1240M+03271MA1999999098711MD1999999+0061MW1131REMSYN082AAXX  15004 82586 31596 605// 10280 20222 39871 40108 71322 86200 333 10327 58006;EQDQ01  00002PRCP99
0201825860999992000021512004-05200-039300FM-12+021199999V02099999999990075019N0200001N1+02481+02231101101ADDAA124003091AY161061AY251061GF106991061041008001001001KA1240N+02181MA1999999098731MD1999999-0081MW1031REMSYN088AAXX  15124 82586 21598 618// 10248 20223 39873 40110 70365 86400 333 20218 59008 60034;
0167825860999992000021518004-05200-039300FM-12+021199999V0201801N002111050019N0200001N1+03121+01951100851ADDAA199000091GF106991041021008001001021MA1999999098491MD1999999-0021REMSYN070AAXX  15184 82586 32598 61804 10312 20195 39849 40085 84202 333 59002;EQDQ01  00002PRCP99
0201825860999992000021600004-05200-039300FM-12+021199999V0203601N003110075019N0010001N1+02421+02211101151ADDAA106004191AY161061AY221061GF106991061031008001001001KA1240M+03191MA1999999098751MD1999999+0041MW1131REMSYN088AAXX  16004 82586 21594 63606 10242 20221 39875 40115 71362 86300 333 10319 58004 60041;
0173825860999992000021612004-05200-039300FM-12+021199999V02099999999990075019N0200001N1+02521+02231101151ADDAA124004191GF108991081071008001999999KA1240N+02281MA1999999098751MD1999999+0021REMSYN082AAXX  16124 82586 22598 827// 10252 20223 39875 40115 887// 333 20228 58002 60044;
0167825860999992000021618004-05200-039300FM-12+021199999V02099999999990075019N0200001N1+03321+01851100701ADDAA199000091GF106991061021008001001001MA1999999098351MD1999999-0141REMSYN070AAXX  16184 82586 32598 618// 10332 20185 39835 40070 86200 333 59014;EQDQ01  00002PRCP99
0186825860999992000021712004-05200-039300FM-12+021199999V0200501N002610075019N0200001N1+02761+02401101131ADDAA199000091GF107991071041008001001001KA1240N+02361MA1999999098761MD1999999+0011REMSYN076AAXX  17124 82586 32598 70505 10276 20240 39876 40113 87400 333 20236 58001;EQDQ01  00002PRCP99
0182825860999992000021718004-05200-039300FM-12+021199999V0200501N003110075019N0200001N1+02661+02241100831ADDAA106001091AY191061AY261061GF107991071041008001001001MA1999999098451MD1999999+0101MW1031REMSYN082AAXX  17184 82586 21598 70506 10266 20224 39845 40083 70396 87400 333 58010 60011;
0186825860999992000021800004-05200-039300FM-12+021199999V0200501N002119999999N0010001N1+02561+02211101131ADDAA199000091GF106991061001008001051001KA1240M+03311MA1999999098751MD1999999+0111REMSYN076AAXX  18004 82586 32594 60504 10256 20221 39875 40113 86050 333 10331 58011;EQDQ01  00002PRCP99
0201825860999992000021812004-05200-039300FM-12+021199999V0201801N001510075019N0200001N1+02501+02361101161ADDAA124002091AY151061AY221061GF106991061041008001001001KA1240N+02261MA1999999098781MD1999999+0021MW1031REMSYN088AAXX  18124 82586 21598 61803 10250 20236 39878 40116 70352 86400 333 20226 58002 60024;
0167825860999992000021818004-05200-039300FM-12+021199999V0201801N003110075019N0200001N1+03061+02171100811ADDAA199000091GF107991071041008001001001MA1999999098451MD1999999+0001REMSYN070AAXX  18184 82586 32598 71806 10306 20217 39845 40081 87400 333 58000;EQDQ01  00002PRCP99
0214825860999992000021900004-05200-039300FM-12+021199999V0201801N000510075019N0010001N1+02521+02311101111ADDAA199000091AY121061AY221061GF107991071031008001001001KA1240M+03101MA1999999098721MD1999999-0031MW1131REMSYN082AAXX  19004 82586 31594 71801 10252 20231 39872 40111 71322 87300 333 10310 59003;EQDQ01  00002PRCP99
0201825860999992000021912004-05200-039300FM-12+021199999V0201801N001512200019N0200001N1+02561+02421101151ADDAA124022191AY191061AY261061GF105991031021008001001041KA1240N+02141MA1999999098751MD1999999-0031MW1031REMSYN088AAXX  19124 82586 21598 51803 10256 20242 39875 40115 70396 83204 333 20214 59003 60224;
0167825860999992000021918004-05200-039300FM-12+021199999V02099999999991050019N0200001N1+03161+02121100861ADDAA199000091GF106991031021008001001021MA1999999098501MD1999999+0051REMSYN070AAXX  19184 82586 32598 618// 10316 20212 39850 40086 83202 333 58005;EQDQ01  00002PRCP99
0180825860999992000022000004-05200-039300FM-12+021199999V02099999999999999999N0010001N1+02641+02331101061ADDAA199000091GF105991999999999999999999KA1240M+03181MA1999999098691MD1999999-0031REMSYN070AAXX  20004 82586 32994 505// 10264 20233 39869 40106 333 10318 59003;EQDQ01  00002PRCP99
0186825860999992000022012004-05200-039300FM-12+021199999V0201801N001510075019N0200001N1+02541+02441101221ADDAA199000091GF108991081051008001999999KA1240N+02281MA1999999098851MD1999999+0101REMSYN076AAXX  20124 82586 32598 81803 10254 20244 39885 40122 885// 333 20228 58010;EQDQ01  00002PRCP99
0167825860999992000022018004-05200-039300FM-12+021199999V0203201N002610075019N0200001N1+02721+02281100931ADDAA199000091GF106991061021008001001001MA1999999098551MD1999999+0051REMSYN070AAXX  20184 82586 32598 63205 10272 20228 39855 40093 86200 333 58005;EQDQ01  00002PRCP99
0201825860999992000022100004-05200-039300FM-12+021199999V0203601N001510075019N0010001N1+02351+02271101161ADDAA106008991AY191061AY261061GF108991081071008001999999KA1240M+03111MA1999999098761MD1999999+0071MW1031REMSYN088AAXX  21004 82586 21594 83603 10235 20227 39876 40116 70396 887// 333 10311 58007 60091;
0167825860999992000022118004-05200-039300FM-12+021199999V0201401N003110075019N0200001N1+03081+02161100861ADDAA199000091GF106991061041008001001001MA1999999098501MD1999999-0051REMSYN070AAXX  21184 82586 32598 61406 10308 20216 39850 40086 86400 333 59005;EQDQ01  00002PRCP99
0214825860999992000022200004-05200-039300FM-12+021199999V0203601N003110075019N0200001N1+02521+02231101051ADDAA199000091AY121061AY221061GF106991061031008001001001KA1240M+03121MA1999999098661MD1999999-0101MW1131REMSYN082AAXX  22004 82586 31598 63606 10252 20223 39866 40105 71322 86300 333 10312 59010;EQDQ01  00002PRCP99
0186825860999992000022212004-05200-039300FM-12+021199999V0200501N001510075019N0200001N1+02641+02311101131ADDAA199000091GF106991061041008001001001KA1240N+02231MA1999999098751MD1999999-0081REMSYN076AAXX  22124 82586 32598 60503 10264 20231 39875 40113 86400 333 20223 59008;EQDQ01  00002PRCP99
0167825860999992000022218004-05200-039300FM-12+021199999V0202301N002610075019N0200001N1+02801+02381100871ADDAA199000091GF106991061071008001001001MA1999999098491MD1999999-0011REMSYN070AAXX  22184 82586 32598 62305 10280 20238 39849 40087 86700 333 59001;EQDQ01  00002PRCP99
0201825860999992000022300004-05200-039300FM-12+021199999V0200501N001010075019N0010001N1+02401+02231101191ADDAA106003091AY191061AY261061GF108991081071008001999999KA1240M+03111MA1999999098801MD1999999+0141MW1031REMSYN088AAXX  23004 82586 21594 80502 10240 20223 39880 40119 70396 887// 333 10311 58014 60031;
0173825860999992000022312004-05200-039300FM-12+021199999V0202701N001512200019N0200001N1+02521+02331101171ADDAA124003091GF104991041021008001001001KA1240N+02161MA1999999098781MD1999999+0031REMSYN082AAXX  23124 82586 22598 42703 10252 20233 39878 40117 84200 333 20216 58003 60034;
0186825860999992000022400004-05200-039300FM-12+021199999V0200501N001010075019N0010001N1+02541+02451101071ADDAA199000091GF108991081071008001999999KA1240M+03221MA1999999098691MD1999999+0111REMSYN076AAXX  24004 82586 32594 80502 10254 20245 39869 40107 887// 333 10322 58011;EQDQ01  00002PRCP99
0186825860999992000022412004-05200-039300FM-12+021199999V0200901N001510075019N0200001N1+02621+02371101041ADDAA199000091GF108991081071008001999999KA1240N+02301MA1999999098671MD1999999-0111REMSYN076AAXX  24124 82586 32598 80903 10262 20237 39867 40104 887// 333 20230 59011;EQDQ01  00002PRCP99
0195825860999992000022418004-05200-039300FM-12+021199999V0203601N002610075019N0200001N1+03151+02181100811ADDAA199000091AY121061AY221061GF106991061071008001001001MA1999999098451MD1999999+0001MW1131REMSYN076AAXX  24184 82586 31598 63605 10315 20218 39845 40081 71322 86700 333 58000;EQDQ01  00002PRCP99
0214825860999992000022500004-05200-039300FM-12+021199999V0203601N001510075019N0010001N1+02521+02311101031ADDAA199000091AY121061AY221061GF106991061021008001001001KA1240M+03191MA1999999098651MD1999999-0041MW1131REMSYN082AAXX  25004 82586 31594 63603 10252 20231 39865 40103 71322 86200 333 10319 59004;EQDQ01  00002PRCP99
0173825860999992000022512004-05200-039300FM-12+021199999V0200501N005110075019N0200001N1+02621+02311101101ADDAA124001091GF106991061041008001001001KA1240N+02221MA1999999098721MD1999999+0051REMSYN082AAXX  25124 82586 22598 60510 10262 20231 39872 40110 86400 333 20222 58005 60014;
0167825860999992000022518004-05200-039300FM-12+021199999V0203601N003110075019N0200001N1+02901+02201100931ADDAA199000091GF106991061041008001001001MA1999999098551MD1999999+0101REMSYN070AAXX  25184 82586 32598 63606 10290 20220 39855 40093 86400 333 58010;EQDQ01  00002PRCP99
0186825860999992000022600004-05200-039300FM-12+021199999V0203601N001510075019N0010001N1+02561+02291101041ADDAA199000091GF106991061041008001001001KA1240M+03151MA1999999098671MD1999999+0021REMSYN076AAXX  26004 82586 32594 63603 10256 20229 39867 40104 86400 333 10315 58002;EQDQ01  00002PRCP99
0186825860999992000022612004-05200-039300FM-12+021199999V0200501N004112200019N0010001N1+02741+02401101151ADDAA199000091GF104991041021008001001001KA1240N+02241MA1999999098771MD1999999+0051REMSYN076AAXX  26124 82586 32594 40508 10274 20240 39877 40115 84200 333 20224 58005;EQDQ01  00002PRCP99
0182825860999992000022618004-05200-039300FM-12+021199999V0200501N001010075019N0200001N1+02321+02151100961ADDAA106005191AY191061AY261061GF108991081091008001999999MA1999999098561MD1999999+0011MW1151REMSYN082AAXX  26184 82586 21598 80502 10232 20215 39856 40096 71596 889// 333 58001 60051;
0201825860999992000022700004-05200-039300FM-12+021199999V0203601N001010075019N0010001N1+02221+02081101141ADDAA106002091AY161061AY221061GF108991081071008001999999KA1240M+03221MA1999999098751MD1999999+0081MW1031REMSYN088AAXX  27004 82586 21594 83602 10222 20208 39875 40114 70362 887// 333 10322 58008 60021;
0192825860999992000022712004-05200-039300FM-12+021199999V0201401N002619999999N0200001N1+02411+02241101141ADDAA124007191GF105991999051008001999999KA1240N+02181MA1999999098741MD1999999-0031REMSYN082AAXX  27124 82586 22598 51405 10241 20224 39874 40114 885// 333 20218 59003 60074;EQDQ01+000082SCOTLC
0167825860999992000022718004-05200-039300FM-12+021199999V02099999999990075019N0200001N1+03151+02071100831ADDAA199000091GF106991061021008001001001MA1999999098471MD1999999-0091REMSYN070AAXX  27184 82586 32598 605// 10315 20207 39847 40083 86200 333 59009;EQDQ01  00002PRCP99
0201825860999992000022800004-05200-039300FM-12+021199999V0203601N001510075019N0010001N1+02331+02181101071ADDAA106008991AY191061AY261061GF108991081051008001999999KA1240M+03171MA1999999098671MD1999999-0081MW1131REMSYN088AAXX  28004 82586 21594 83603 10233 20218 39867 40107 71396 885// 333 10317 59008 60091;
0201825860999992000022812004-05200-039300FM-12+021199999V0200501N003110075019N0200001N1+02621+02481101081ADDAA124010991AY161061AY251061GF106991061071008001001001KA1240N+02231MA1999999098691MD1999999-0051MW1031REMSYN088AAXX  28124 82586 21598 60506 10262 20248 39869 40108 70365 86700 333 20223 59005 60114;
0167825860999992000022818004-05200-039300FM-12+021199999V0200501N004112200019N0200001N1+03141+02071100851ADDAA199000091GF104991041021008001001001MA1999999098491MD1999999+0021REMSYN070AAXX  28184 82586 32598 40508 10314 20207 39849 40085 84200 333 58002;EQDQ01  00002PRCP99
0196825860999992000022900004-05200-039300FM-12+021199999V0209999C000012200019N0010001N1+02631+02181100991ADDAA199000091GA1001+999999999GF100991001001999999001001KA1240M+03161MA1999999098621MD1999999-0051REMSYN070AAXX  29004 82586 32594 00000 10263 20218 39862 40099 333 10316 59005;EQDQ01  00002PRCP99
0186825860999992000022912004-05200-039300FM-12+021199999V0203601N003610450019N0200001N1+02681+02451101231ADDAA199000091GF106991031021008001051001KA1240N+02441MA1999999098851MD1999999+0141REMSYN076AAXX  29124 82586 32598 63607 10268 20245 39885 40123 83250 333 20244 58014;EQDQ01  00002PRCP99
0182825860999992000022918004-05200-039300FM-12+021199999V0203601N003110450019N0200001N1+02601+02191100961ADDAA106000591AY151061AY221061GF106991031041008001021001MA1999999098571MD1999999+0081MW1031REMSYN082AAXX  29184 82586 21598 63606 10260 20219 39857 40096 70352 83420 333 58008 69961;
0214825860999992000030100004-05200-039300FM-12+021199999V0209999C000010075019N0010001N1+02541+02251101161ADDAA199000091AY121061AY221061GF106991061031008001001001KA1240M+03031MA1999999098781MD1999999+0161MW1131REMSYN082AAXX  01004 82586 31594 60000 10254 20225 39878 40116 71322 86300 333 10303 58016;EQDQ01  00002PRCP99
0173825860999992000030112004-05200-039300FM-12+021199999V0200901N003110075019N0200001N1+02701+02461101211ADDAA124000591GF107991071041008001001001KA1240N+02321MA1999999098831MD1999999-0021REMSYN082AAXX  01124 82586 22598 70906 10270 20246 39883 40121 87400 333 20232 59002 69964;
0182825860999992000030118004-05200-039300FM-12+021199999V0203601N001510075019N0200001N1+02921+02581100921ADDAA106000591AY151061AY221061GF106991061021008001001001MA1999999098561MD1999999-0011MW1031REMSYN082AAXX  01184 82586 21598 63603 10292 20258 39856 40092 70352 86200 333 59001 69951;
0214825860999992000030200004-05200-039300FM-12+021199999V0209999C000010075019N0010001N1+02521+02311101131ADDAA199000091AY121061AY221061GF108991081091008001999999KA1240M+03191MA1999999098751MD1999999-0031MW1131REMSYN082AAXX  02004 82586 31594 80000 10252 20231 39875 40113 71322 889// 333 10319 59003;EQDQ01  00002PRCP99
0201825860999992000030212004-05200-039300FM-12+021199999V0200501N002610075019N0200001N1+02541+02491101131ADDAA124005191AY161061AY251061GF108991081071008001999999KA1240N+02301MA1999999098751MD1999999-0081MW1031REMSYN088AAXX  02124 82586 21598 80505 10254 20249 39875 40113 70365 887// 333 20230 59008 60054;
0182825860999992000030218004-05200-039300FM-12+021199999V0201801N003610075019N0200001N1+02661+02571100921ADDAA106007991AY161061AY261061GF106991061041008001001001MA1999999098531MD1999999-0031MW1611REMSYN082AAXX  02184 82586 21598 61807 10266 20257 39853 40092 76166 86400 333 59003 60081;
0201825860999992000030300004-05200-039300FM-12+021199999V0203601N000510075019N0010001N1+02491+02271101081ADDAA106002091AY161061AY221061GF108991081071008001999999KA1240M+02971MA1999999098691MD1999999-0061MW1031REMSYN088AAXX  03004 82586 21594 83601 10249 20227 39869 40108 70362 887// 333 10297 59006 60021;
0201825860999992000030312004-05200-039300FM-12+021199999V0200501N002610075019N0200001N1+02681+02331101131ADDAA124014091AY161061AY221061GF106991061041008001001001KA1240N+02321MA1999999098751MD1999999+0001MW1031REMSYN088AAXX  03124 82586 21598 60505 10268 20233 39875 40113 70362 86400 333 20232 58000 60144;
0167825860999992000030318004-05200-039300FM-12+021199999V02099999999991050019N0200001N1+03141+02071100841ADDAA199000091GF106991031021008001001021MA1999999098481MD1999999-0051REMSYN070AAXX  03184 82586 32598 605// 10314 20207 39848 40084 83202 333 59005;EQDQ01  00002PRCP99
0186825860999992000030400004-05200-039300FM-12+021199999V0203601N005112200019N0010001N1+02671+02311101001ADDAA199000091GF102991021011008001001001KA1240M+03171MA1999999098681MD1999999-0051REMSYN076AAXX  04004 82586 32594 23610 10267 20231 39868 40100 82100 333 10317 59005;EQDQ01  00002PRCP99
0201825860999992000030412004-05200-039300FM-12+021199999V0200501N004610075019N0200001N1+02661+02311101151ADDAA124035191AY161061AY261061GF106991061041008001001001KA1240N+02201MA1999999098781MD1999999+0031MW1031REMSYN088AAXX  04124 82586 21598 60509 10266 20231 39878 40115 70366 86400 333 20220 58003 60354;
0167825860999992000030418004-05200-039300FM-12+021199999V0200501N002111050019N0200001N1+03141+02071100911ADDAA199000091GF106991031021008001001021MA1999999098551MD1999999+0071REMSYN070AAXX  04184 82586 32598 60504 10314 20207 39855 40091 83202 333 58007;EQDQ01  00002PRCP99
0186825860999992000030500004-05200-039300FM-12+021199999V0203601N003112200019N0010001N1+02631+02311101021ADDAA199000091GF102991021021008001001001KA1240M+03171MA1999999098651MD1999999+0011REMSYN076AAXX  05004 82586 32594 23606 10263 20231 39865 40102 82200 333 10317 58001;EQDQ01  00002PRCP99
0202825860999992000030512004-05200-039300FM-12+021199999V0200601N002119999999N0200001N1+02611+02331101161ADDAA199000091GF105991999041008001001001KA1240N+02351MA1999999098781MD1999999+0001REMSYN076AAXX  05124 82586 32598 50604 10261 20233 39878 40116 86400 333 20235 58000;EQDQ01+000062SCOTLCQ02  00002PRCP99
0167825860999992000030518004-05200-039300FM-12+021199999V0200501N003610075019N0200001N1+03141+02161100861ADDAA199000091GF106991061021008001001001MA1999999098511MD1999999-0041REMSYN070AAXX  05184 82586 32598 60507 10314 20216 39851 40086 86200 333 59004;EQDQ01  00002PRCP99
0202825860999992000030600004-05200-039300FM-12+021199999V0201801N001019999999N0010001N1+02711+02261100981ADDAA199000091GF105991999021008001001001KA1240M+03201MA1999999098621MD1999999-0031REMSYN076AAXX  06004 82586 32594 51802 10271 20226 39862 40098 84200 333 10320 59003;EQDQ01+000042SCOTLCQ02  00002PRCP99
0186825860999992000030612004-05200-039300FM-12+021199999V0200501N004111050019N0200001N1+02741+02381101141ADDAA199000091GF106991041021008001001021KA1240N+02481MA1999999098771MD1999999-0011REMSYN076AAXX  06124 82586 32598 60508 10274 20238 39877 40114 84202 333 20248 59001;EQDQ01  00002PRCP99
0167825860999992000030618004-05200-039300FM-12+021199999V0200501N003111050019N0200001N1+03131+02051100861ADDAA199000091GF106991031021008001001051MA1999999098511MD1999999+0001REMSYN070AAXX  06184 82586 32598 60506 10313 20205 39851 40086 83205 333 58000;EQDQ01  00002PRCP99
0196825860999992000030700004-05200-039300FM-12+021199999V0209999C000012200019N0010001N1+02671+02331101031ADDAA199000091GA1001+999999999GF100991001001999999001001KA1240M+03191MA1999999098671MD1999999+0051REMSYN070AAXX  07004 82586 32994 00000 10267 20233 39867 40103 333 10319 58005;EQDQ01  00002PRCP99
0186825860999992000030712004-05200-039300FM-12+021199999V0200501N003110075019N0200001N1+02881+02281101051ADDAA199000091GF106991061041008001001001KA1240N+02461MA1999999098691MD1999999-0081REMSYN076AAXX  07124 82586 32598 60506 10288 20228 39869 40105 86400 333 20246 59008;EQDQ01  00002PRCP99
0183825860999992000030718004-05200-039300FM-12+021199999V0200501N003119999999N0200001N1+03061+02081100841ADDAA199000091GF106991001001999999001041MA1999999098491MD1999999-0021REMSYN070AAXX  07184 82586 32598 60506 10306 20208 39849 40084 80004 333 59002;EQDQ01+008002SCOLCBQ02  00002PRCP99
0186825860999992000030800004-05200-039300FM-12+021199999V0200501N001512200019N0010001N1+02641+02291100951ADDAA199000091GF104991041001012501051001KA1240M+03171MA1999999098591MD1999999-0081REMSYN076AAXX  08004 82586 32694 40503 10264 20229 39859 40095 84050 333 10317 59008;EQDQ01  00002PRCP99
0186825860999992000030812004-05200-039300FM-12+021199999V0200501N003610075019N0200001N1+02661+02441101071ADDAA199000091GF107991071071008001001001KA1240N+02321MA1999999098701MD1999999+0011REMSYN076AAXX  08124 82586 32598 70507 10266 20244 39870 40107 87700 333 20232 58001;EQDQ01  00002PRCP99
0195825860999992000030818004-05200-039300FM-12+021199999V0200501N005710450019N0200001N1+03041+02281100811ADDAA199000091AY121061AY221061GF108991041041008001021999MA1999999098451MD1999999-0041MW1151REMSYN076AAXX  08184 82586 31598 80511 10304 20228 39845 40081 71522 8442/ 333 59004;EQDQ01  00002PRCP99
0186825860999992000030900004-05200-039300FM-12+021199999V0200501N002610120019N0010001N1+02621+02311101041ADDAA199000091GF106991061001012501021001KA1240M+03191MA1999999098671MD1999999+0081REMSYN076AAXX  09004 82586 32694 60505 10262 20231 39867 40104 86020 333 10319 58008;EQDQ01  00002PRCP99
0182825860999992000030918004-05200-039300FM-12+021199999V0203601N001510075019N0200001N1+02621+02411100841ADDAA106000191AY151061AY221061GF108991081071008001999999MA1999999098471MD1999999+0021MW1151REMSYN082AAXX  09184 82586 21598 83603 10262 20241 39847 40084 71552 887// 333 58002 69921;
0186825860999992000031000004-05200-039300FM-12+021199999V0203601N001510075019N0010001N1+02541+02271100991ADDAA199000091GF106991061021008001001001KA1240M+03201MA1999999098631MD1999999-0041REMSYN076AAXX  10004 82586 32594 63603 10254 20227 39863 40099 86200 333 10320 59004;EQDQ01  00002PRCP99
0173825860999992000031012004-05200-039300FM-12+021199999V0200501N002610075019N0200001N1+02641+02421101151ADDAA124000191GF106991061041008001001001KA1240N+02361MA1999999098771MD1999999+0021REMSYN082AAXX  10124 82586 22598 60505 10264 20242 39877 40115 86400 333 20236 58002 69924;
0182825860999992000031018004-05200-039300FM-12+021199999V0203601N001510075019N0200001N1+02381+02241100951ADDAA106015091AY191061AY261061GF108991081071008001999999MA1999999098551MD1999999+0081MW1151REMSYN082AAXX  10184 82586 21598 83603 10238 20224 39855 40095 71596 887// 333 58008 60151;
0186825860999992000031100004-05200-039300FM-12+021199999V0201401N001010075019N0200001N1+02421+02301101161ADDAA199000091GF108991081071008001999999KA1240M+03161MA1999999098781MD1999999+0151REMSYN076AAXX  11004 82586 32598 81402 10242 20230 39878 40116 887// 333 10316 58015;EQDQ01  00002PRCP99
0175825860999992000031112004-05200-039300FM-12+021199999V02099999999999999999N0200001N1+02661+02411101101ADDGF107991999071008001001001KA1240N+02351MA1999999098721MD1999999-0061REMSYN076AAXX  11124 82586 22598 705// 10266 20241 39872 40110 89700 333 20235 59006;EQDQ01+000092SCOTLC
0183825860999992000031118004-05200-039300FM-12+021199999V0200501N003119999999N0200001N1+03181+02131100841ADDAA199000091GF106991999021008001001001MA1999999098491MD1999999-0061REMSYN070AAXX  11184 82586 32598 60506 10318 20213 39849 40084 83200 333 59006;EQDQ01+000032SCOTLCQ02  00002PRCP99
0196825860999992000031200004-05200-039300FM-12+021199999V0203201N002612200019N0010001N1+02601+02171100911ADDAA199000091GA1001+999999999GF100991001001999999001001KA1240M+03201MA1999999098551MD1999999-0231REMSYN070AAXX  12004 82586 32994 03205 10260 20217 39855 40091 333 10320 59023;EQDQ01  00002PRCP99
0186825860999992000031212004-05200-039300FM-12+021199999V0200501N004610075019N0200001N1+02721+02241101021ADDAA199000091GF106991061041008001001001KA1240N+02401MA1999999098651MD1999999-0071REMSYN076AAXX  12124 82586 32598 60509 10272 20224 39865 40102 86400 333 20240 59007;EQDQ01  00002PRCP99
0167825860999992000031218004-05200-039300FM-12+021199999V0200501N001512200019N0200001N1+03181+02041100731ADDAA199000091GF104991041021008001001001MA1999999098391MD1999999-0101REMSYN070AAXX  12184 82586 32598 40503 10318 20204 39839 40073 84200 333 59010;EQDQ01  00002PRCP99
0196825860999992000031300004-05200-039300FM-12+021199999V0209999C000012200019N0010001N1+02641+02271100881ADDAA199000091GA1001+999999999GF100991001001999999001001KA1240M+03201MA1999999098521MD1999999-0031REMSYN070AAXX  13004 82586 32994 00000 10264 20227 39852 40088 333 10320 59003;EQDQ01  00002PRCP99
0186825860999992000031312004-05200-039300FM-12+021199999V0203601N003110075019N0200001N1+02741+02401100981ADDAA199000091GF105991051021008001001001KA1240N+02301MA1999999098621MD1999999-0031REMSYN076AAXX  13124 82586 32598 53606 10274 20240 39862 40098 85200 333 20230 59003;EQDQ01  00002PRCP99
0177825860999992000031318004-05200-039300FM-12+021199999V0200501N003612200019N0200001N1+03241+02221100711ADDAA199000091GA1001+999999999GF100991001001999999001001MA1999999098351MD1999999-0041REMSYN064AAXX  13184 82586 32598 00507 10324 20222 39835 40071 333 59004;EQDQ01  00002PRCP99
0214825860999992000031400004-05200-039300FM-12+021199999V0200501N003110075019N0010001N1+02651+02271101011ADDAA199000091AY121061AY221061GF106991061021008001001001KA1240M+03201MA1999999098651MD1999999+0131MW1131REMSYN082AAXX  14004 82586 31594 60506 10265 20227 39865 40101 71322 86200 333 10320 58013;EQDQ01  00002PRCP99
0186825860999992000031412004-05200-039300FM-12+021199999V0203601N002610075019N0200001N1+02761+02461101051ADDAA199000091GF108991051071008001021999KA1240N+02381MA1999999098691MD1999999+0071REMSYN076AAXX  14124 82586 32598 83605 10276 20246 39869 40105 8572/ 333 20238 58007;EQDQ01  00002PRCP99
0167825860999992000031418004-05200-039300FM-12+021199999V0200501N004110075019N0200001N1+02901+02201100811ADDAA199000091GF108991081071008001999999MA1999999098451MD1999999+0101REMSYN070AAXX  14184 82586 32598 80508 10290 20220 39845 40081 887// 333 58010;EQDQ01  00002PRCP99
0180825860999992000031500004-05200-039300FM-12+021199999V0200501N003119999999N0010001N1+02631+02251101051ADDAA199000091GF106991999999999999999999KA1240M+03231MA1999999098691MD1999999+0041REMSYN070AAXX  15004 82586 32994 60506 10263 20225 39869 40105 333 10323 58004;EQDQ01  00002PRCP99
0182825860999992000031518004-05200-039300FM-12+021199999V0200501N003112200019N0200001N1+02401+02201100851ADDAA106000591AY161061AY221061GF104991041021008001001001MA1999999098491MD1999999+0041MW1031REMSYN082AAXX  15184 82586 21598 40506 10240 20220 39849 40085 70362 84200 333 58004 69961;
0196825860999992000031600004-05200-039300FM-12+021199999V02099999999992200019N0010001N1+02601+02121101061ADDAA199000091GA1001+999999999GF100991001001999999001001KA1240M+03301MA1999999098701MD1999999+0011REMSYN070AAXX  16004 82586 32994 036// 10260 20212 39870 40106 333 10330 58001;EQDQ01  00002PRCP99
0173825860999992000031612004-05200-039300FM-12+021199999V0200501N004110075019N0200001N1+02741+02261101081ADDAA124000591GF106991061041008001001001KA1240N+02321MA1999999098721MD1999999-0041REMSYN082AAXX  16124 82586 22598 60508 10274 20226 39872 40108 86400 333 20232 59004 69964;
0167825860999992000031618004-05200-039300FM-12+021199999V02099999999992200019N0200001N1+03261+01911100771ADDAA199000091GF104991041021008001001001MA1999999098731MD1999999-0061REMSYN070AAXX  16184 82586 32598 436// 10326 20191 39873 40077 84200 333 59006;EQDQ01  00002PRCP99
0196825860999992000031700004-05200-039300FM-12+021199999V0203601N003612200019N0010001N1+02701+02171100981ADDAA199000091GA1001+999999999GF100991001001999999001001KA1240M+03331MA1999999098621MD1999999-0081REMSYN070AAXX  17004 82586 32994 03607 10270 20217 39862 40098 333 10333 59008;EQDQ01  00002PRCP99
0186825860999992000031712004-05200-039300FM-12+021199999V0200501N005110075019N0200001N1+02731+02191101061ADDAA199000091GF106991061041008001001001KA1240N+02321MA1999999098701MD1999999-0021REMSYN076AAXX  17124 82586 32598 60510 10273 20219 39870 40106 86400 333 20232 59002;EQDQ01  00002PRCP99
0167825860999992000031718004-05200-039300FM-12+021199999V0200501N002110075019N0200001N1+03261+01841100711ADDAA199000091GF105991051021008001001001MA1999999098371MD1999999-0061REMSYN070AAXX  17184 82586 32598 50504 10326 20184 39837 40071 85200 333 59006;EQDQ01  00002PRCP99
0186825860999992000031800004-05200-039300FM-12+021199999V0203601N001012200019N0010001N1+02801+02301100811ADDAA199000091GF104991041021012501001001KA1240M+03301MA1999999098511MD1999999+0001REMSYN076AAXX  18004 82586 32694 43602 10280 20230 39851 40081 84200 333 10330 58000;EQDQ01  00002PRCP99
0201825860999992000031812004-05200-039300FM-12+021199999V0200501N002610075019N0200001N1+02721+02561101011ADDAA124015091AY161061AY261061GF107991071041008001001001KA1240N+02301MA1999999098651MD1999999-0051MW1031REMSYN088AAXX  18124 82586 21598 70505 10272 20256 39865 40101 70366 87400 333 20230 59005 60154;
0167825860999992000031818004-05200-039300FM-12+021199999V0203601N001510075019N0200001N1+02931+02451100771ADDAA199000091GF106991061071008001001001MA1999999098411MD1999999+0041REMSYN070AAXX  18184 82586 32598 63603 10293 20245 39841 40077 86700 333 58004;EQDQ01  00002PRCP99
0180825860999992000031900004-05200-039300FM-12+021199999V0203601N001019999999N0010001N1+02421+02191100931ADDAA199000091GF106991999999999999999999KA1240M+03231MA1999999098551MD1999999+0041REMSYN070AAXX  19004 82586 32994 63602 10242 20219 39855 40093 333 10323 58004;EQDQ01  00002PRCP99
0186825860999992000031912004-05200-039300FM-12+021199999V0200501N002610075019N0200001N1+02761+02401101001ADDAA199000091GF106991061021008001001001KA1240N+02321MA1999999098631MD1999999-0021REMSYN076AAXX  19124 82586 32598 60505 10276 20240 39863 40100 86200 333 20232 59002;EQDQ01  00002PRCP99
0167825860999992000031918004-05200-039300FM-12+021199999V0203601N005110075019N0200001N1+02991+01891100711ADDAA199000091GF106991061021008001001001MA1999999098351MD1999999-0061REMSYN070AAXX  19184 82586 32598 63610 10299 20189 39835 40071 86200 333 59006;EQDQ01  00002PRCP99
0186825860999992000032000004-05200-039300FM-12+021199999V0201801N000510075019N0010001N1+02531+02311100911ADDAA199000091GF105991051051008001001001KA1240M+03321MA1999999098551MD1999999+0001REMSYN076AAXX  20004 82586 32594 51801 10253 20231 39855 40091 85500 333 10332 58000;EQDQ01  00002PRCP99
0167825860999992000032018004-05200-039300FM-12+021199999V0201801N003110075019N0200001N1+03301+02041100691ADDAA199000091GF106991061041008001001001MA1999999098341MD1999999-0011REMSYN070AAXX  20184 82586 32598 61806 10330 20204 39834 40069 86400 333 59001;EQDQ01  00002PRCP99
0196825860999992000032100004-05200-039300FM-12+021199999V02099999999992200019N0010001N1+02731+02451100841ADDAA199000091GA1001+999999999GF100991001001999999001001KA1240M+03381MA1999999098481MD1999999-0071REMSYN070AAXX  21004 82586 32994 036// 10273 20245 39848 40084 333 10338 59007;EQDQ01  00002PRCP99
0186825860999992000032112004-05200-039300FM-12+021199999V02099999999990075019N0200001N1+02761+02341100951ADDAA199000091GF106991061041008001001001KA1240N+02481MA1999999098591MD1999999-0061REMSYN076AAXX  21124 82586 32598 605// 10276 20234 39859 40095 86400 333 20248 59006;EQDQ01  00002PRCP99
0167825860999992000032118004-05200-039300FM-12+021199999V02099999999992200019N0200001N1+03321+01881100621ADDAA199000091GF104991041021008001001001MA1999999098281MD1999999-0061REMSYN070AAXX  21184 82586 32598 405// 10332 20188 39828 40062 84200 333 59006;EQDQ01  00002PRCP99
0196825860999992000032200004-05200-039300FM-12+021199999V02099999999992200019N0010001N1+02671+02431100831ADDAA199000091GA1001+999999999GF100991001001999999001001KA1240M+03351MA1999999098471MD1999999-0011REMSYN070AAXX  22004 82586 32994 036// 10267 20243 39847 40083 333 10335 59001;EQDQ01  00002PRCP99
0186825860999992000032212004-05200-039300FM-12+021199999V0200901N003612200019N0200001N1+02861+02061100971ADDAA199000091GF104991041021008001001001KA1240N+02361MA1999999098611MD1999999+0021REMSYN076AAXX  22124 82586 32598 40907 10286 20206 39861 40097 84200 333 20236 58002;EQDQ01  00002PRCP99
0167825860999992000032218004-05200-039300FM-12+021199999V0203601N003110075019N0200001N1+03421+01781100651ADDAA199000091GF106991061021008001001001MA1999999098311MD1999999+0031REMSYN070AAXX  22184 82586 32598 63606 10342 20178 39831 40065 86200 333 58003;EQDQ01  00002PRCP99
0186825860999992000032300004-05200-039300FM-12+021199999V0203601N003112200019N0010001N1+02821+02361100801ADDAA199000091GF104991041001012501051001KA1240M+03441MA1999999098451MD1999999-0021REMSYN076AAXX  23004 82586 32694 43606 10282 20236 39845 40080 84050 333 10344 59002;EQDQ01  00002PRCP99
0186825860999992000032312004-05200-039300FM-12+021199999V0200901N003612200019N0200001N1+02821+02331100911ADDAA199000091GF104991041021008001001001KA1240N+02441MA1999999098551MD1999999-0061REMSYN076AAXX  23124 82586 32598 40907 10282 20233 39855 40091 84200 333 20244 59006;EQDQ01  00002PRCP99
0167825860999992000032318004-05200-039300FM-12+021199999V02099999999990075019N0200001N1+03371+02071100661ADDAA199000091GF106991061041008001001001MA1999999098321MD1999999+0011REMSYN070AAXX  23184 82586 32598 605// 10337 20207 39832 40066 86400 333 58001;EQDQ01  00002PRCP99
0186825860999992000032400004-05200-039300FM-12+021199999V0203601N003112200019N0010001N1+02721+02431100871ADDAA199000091GF102991021011012501001001KA1240M+03421MA1999999098511MD1999999+0061REMSYN076AAXX  24004 82586 32694 23606 10272 20243 39851 40087 82100 333 10342 58006;EQDQ01  00002PRCP99
0186825860999992000032412004-05200-039300FM-12+021199999V02099999999990075019N0200001N1+02901+02201101011ADDAA199000091GF105991051021008001001001KA1240N+02521MA1999999098651MD1999999+0101REMSYN076AAXX  24124 82586 32598 509// 10290 20220 39865 40101 85200 333 20252 58010;EQDQ01  00002PRCP99
0167825860999992000032418004-05200-039300FM-12+021199999V0200901N003110075019N0200001N1+03411+02001100661ADDAA199000091GF106991061021008001001001MA1999999098331MD1999999+0011REMSYN070AAXX  24184 82586 32598 60906 10341 20200 39833 40066 86200 333 58001;EQDQ01  00002PRCP99
0201825860999992000032500004-05200-039300FM-12+021199999V0203601N003110075019N0010001N1+02681+02561100911ADDAA106003091AY161061AY221061GF106991061031008001001001KA1240M+03461MA1999999098551MD1999999+0041MW1131REMSYN088AAXX  25004 82586 21594 63606 10268 20256 39855 40091 71362 86300 333 10346 58004 60031;
0201825860999992000032512004-05200-039300FM-12+021199999V0200901N001010075019N0200001N1+02461+02341101071ADDAA124011991AY161061AY251061GF108991081071008001999999KA1240N+02101MA1999999098701MD1999999+0051MW1031REMSYN088AAXX  25124 82586 21598 80902 10246 20234 39870 40107 70365 887// 333 20210 58005 60124;
0167825860999992000032518004-05200-039300FM-12+021199999V02099999999990075019N0200001N1+03121+02171100741ADDAA199000091GF106991061041008001001001MA1999999098371MD1999999+0041REMSYN070AAXX  25184 82586 32598 609// 10312 20217 39837 40074 86400 333 58004;EQDQ01  00002PRCP99
0214825860999992000032600004-05200-039300FM-12+021199999V0200501N001510075019N0010001N1+02601+02511100881ADDAA199000091AY121061AY221061GF108991081091008001999999KA1240M+03141MA1999999098521MD1999999-0031MW1131REMSYN082AAXX  26004 82586 31594 80503 10260 20251 39852 40088 71322 889// 333 10314 59003;EQDQ01  00002PRCP99
0201825860999992000032612004-05200-039300FM-12+021199999V0200501N001010075019N0200001N1+02741+02471100941ADDAA124003091AY161061AY251061GF106991061021008001001001KA1240N+02351MA1999999098571MD1999999-0151MW1021REMSYN088AAXX  26124 82586 21598 60502 10274 20247 39857 40094 70265 86200 333 20235 59015 60034;
0183825860999992000032618004-05200-039300FM-12+021199999V0201401N003119999999N0200001N1+03121+02141100861ADDAA199000091GF106991999021008001001001MA1999999098241MD1999999-0111REMSYN070AAXX  26184 82586 32598 61406 10312 20214 39824 40086 84200 333 59011;EQDQ01+000042SCOTLCQ02  00002PRCP99
0230825860999992000032700004-05200-039300FM-12+021199999V0200901N001512200019N0010001N1+02621+02371100002ADDAA199000091AY121061AY221061GF104991041031008001001001KA1240M+03191MA1999999098481MD1999999-0041MW1131REMSYN082AAXX  27004 82586 31594 40903 10262 20237 39848 40000 71322 84300 333 10319 59004;EQDQ01+100003APOSLPQ02  00002PRCP99
0186825860999992000032712004-05200-039300FM-12+021199999V0200901N003110075019N0200001N1+02721+02431100871ADDAA199000091GF106991061041008001001001KA1240N+02381MA1999999098511MD1999999-0061REMSYN076AAXX  27124 82586 32598 60906 10272 20243 39851 40087 86400 333 20238 59006;EQDQ01  00002PRCP99
0167825860999992000032718004-05200-039300FM-12+021199999V0201801N003112200019N0200001N1+03201+02151100641ADDAA199000091GF106991031021008001001041MA1999999098291MD1999999+0031REMSYN070AAXX  27184 82586 32598 61806 10320 20215 39829 40064 83204 333 58003;EQDQ01  00002PRCP99
0220825860999992000032800004-05200-039300FM-12+021199999V0203201N002619999999N0010001N1+02421+02281100901ADDAA106000191AY151061AY221061GF108991999011008001001001KA1240M+03251MA1999999098521MD1999999+0041MW1031REMSYN088AAXX  28004 82586 21594 83205 10242 20228 39852 40090 70352 82100 333 10325 58004 69921;EQDQ01+000022SCOTLC
0173825860999992000032812004-05200-039300FM-12+021199999V0202301N001510450019N0200001N1+02541+02211101041ADDAA124000191GF108991041041008001021001KA1240N+02301MA1999999098651MD1999999+0141REMSYN082AAXX  28124 82586 22598 82303 10254 20221 39865 40104 84420 333 20230 58014 69924;
0167825860999992000032818004-05200-039300FM-12+021199999V0200901N001510075019N0200001N1+03021+02241100671ADDAA199000091GF106991061021008001001001MA1999999098311MD1999999+0021REMSYN070AAXX  28184 82586 32598 60903 10302 20224 39831 40067 86200 333 58002;EQDQ01  00002PRCP99
0214825860999992000032900004-05200-039300FM-12+021199999V0203601N003110075019N0010001N1+02581+02441100001ADDAA199000091AY121061AY221061GF108991081091008001999999KA1240M+03181MA1999999098521MD1999999+0001MW1131REMSYN082AAXX  29004 82586 31594 83606 10258 20244 39852 40000 71322 889// 333 10318 58000;EQDQ01  00002PRCP99
0182825860999992000032918004-05200-039300FM-12+021199999V0201401N001510450019N0200001N1+02821+02221100881ADDAA106002091AY161061AY221061GF108991041021008001021999MA1999999098501MD1999999+0191MW1031REMSYN082AAXX  29184 82586 21598 81403 10282 20222 39850 40088 70362 8422/ 333 58019 60021;
0186825860999992000033000004-05200-039300FM-12+021199999V0200901N003110075019N0010001N1+02481+02231100981ADDAA199000091GF106991061021008001001001KA1240M+03851MA1999999098581MD1999999+0021REMSYN076AAXX  30004 82586 32594 60906 10248 20223 39858 40098 86200 333 10385 58002;EQDQ01  00002PRCP99
0173825860999992000033012004-05200-039300FM-12+021199999V0201801N000510075019N0200001N1+02541+02421101081ADDAA124002091GF108991081071008001999999KA1240N+02301MA1999999098691MD1999999+0001REMSYN082AAXX  30124 82586 22598 81801 10254 20242 39869 40108 887// 333 20230 58000 60024;
0182825860999992000033018004-05200-039300FM-12+021199999V0201801N001510075019N0200001N1+02361+02281100881ADDAA106029091AY191061AY261061GF108991081091008001999999MA1999999098481MD1999999-0021MW1511REMSYN082AAXX  30184 82586 21598 81803 10236 20228 39848 40088 75196 889// 333 59002 60291;
0201825860999992000033100004-05200-039300FM-12+021199999V0200501N001510075019N0010001N1+02341+02071101091ADDAA106000191AY151061AY221061GF106991061041008001001001KA1240M+03001MA1999999098691MD1999999+0111MW1031REMSYN088AAXX  31004 82586 21594 60503 10234 20207 39869 40109 70352 86400 333 10300 58011 69921;
0201825860999992000033112004-05200-039300FM-12+021199999V0200901N004110075019N0200001N1+02581+02481101091ADDAA124030091AY151061AY221061GF107991071071008001001001KA1240N+02281MA1999999098701MD1999999+0011MW1031REMSYN088AAXX  31124 82586 21598 70908 10258 20248 39870 40109 70352 87700 333 20228 58001 60304;
0167825860999992000033118004-05200-039300FM-12+021199999V0200901N002110075019N0200001N1+03021+02161100751ADDAA199000091GF106991061041008001001001MA1999999098391MD1999999-0091REMSYN070AAXX  31184 82586 32598 60904 10302 20216 39839 40075 86400 333 59009;EQDQ01  00002PRCP99
0186825860999992000040100004-05200-039300FM-12+021199999V0209999C000010075019N0010001N1+02441+02151101071ADDAA199000091GF106991061021008001001001KA1240M+03061MA1999999098681MD1999999-0011REMSYN076AAXX  01004 82586 32594 60000 10244 20215 39868 40107 86200 333 10306 59001;EQDQ01  00002PRCP99
0186825860999992000040112004-05200-039300FM-12+021199999V0201401N003110075019N0200001N1+02621+02411101131ADDAA199000091GF106991061041008001001001KA1240N+02261MA1999999098751MD1999999+0051REMSYN076AAXX  01124 82586 32598 61406 10262 20241 39875 40113 86400 333 20226 58005;EQDQ01  00002PRCP99
0167825860999992000040118004-05200-039300FM-12+021199999V0200901N002610075019N0200001N1+03201+02151100751ADDAA199000091GF106991061021008001001001MA1999999098401MD1999999+0011REMSYN070AAXX  01184 82586 32598 60905 10320 20215 39840 40075 86200 333 58001;EQDQ01  00002PRCP99
0201825860999992000040200004-05200-039300FM-12+021199999V0200501N001010075019N0010001N1+02441+02221100931ADDAA106002091AY161061AY221061GF106991061031008001001001KA1240M+03221MA1999999098551MD1999999-0131MW1131REMSYN088AAXX  02004 82586 21594 60502 10244 20222 39855 40093 71362 86300 333 10322 59013 60021;
0173825860999992000040212004-05200-039300FM-12+021199999V0201801N002110075019N0200001N1+02621+02311101131ADDAA124002091GF106991061041008001001001KA1240N+02331MA1999999098751MD1999999+0001REMSYN082AAXX  02124 82586 22598 61804 10262 20231 39875 40113 86400 333 20233 58000 60024;
0167825860999992000040218004-05200-039300FM-12+021199999V0201801N001512200019N0200001N1+03181+02041100821ADDAA199000091GF104991041021008001001001MA1999999098471MD1999999+0071REMSYN070AAXX  02184 82586 32598 41803 10318 20204 39847 40082 84200 333 58007;EQDQ01  00002PRCP99
0201825860999992000040300004-05200-039300FM-12+021199999V0201801N000510075019N0010001N1+02391+02011101081ADDAA106002091AY161061AY221061GF105991051041008001001001KA1240M+03191MA1999999098691MD1999999+0141MW1031REMSYN088AAXX  03004 82586 21594 51801 10239 20201 39869 40108 70362 85400 333 10319 58014 60021;
0173825860999992000040312004-05200-039300FM-12+021199999V0200901N003110075019N0200001N1+02701+02431101131ADDAA124002091GF106991061041008001001001KA1240N+02261MA1999999098751MD1999999+0001REMSYN082AAXX  03124 82586 22598 60906 10270 20243 39875 40113 86400 333 20226 58000 60024;
0167825860999992000040318004-05200-039300FM-12+021199999V0201801N003612200019N0200001N1+03231+01771100841ADDAA199000091GF104991041021008001001001MA1999999098481MD1999999+0011REMSYN070AAXX  03184 82586 32598 41807 10323 20177 39848 40084 84200 333 58001;EQDQ01  00002PRCP99
0196825860999992000040400004-05200-039300FM-12+021199999V0209999C000012200019N0010001N1+02681+02041101011ADDAA199000091GA1001+999999999GF100991001001999999001001KA1240M+03301MA1999999098651MD1999999-0041REMSYN070AAXX  04004 82586 32994 00000 10268 20204 39865 40101 333 10330 59004;EQDQ01  00002PRCP99
0186825860999992000040412004-05200-039300FM-12+021199999V0201801N001012200019N0200001N1+02821+02291101161ADDAA199000091GF104991041021008001001001KA1240N+02301MA1999999098801MD1999999+0051REMSYN076AAXX  04124 82586 32598 41802 10282 20229 39880 40116 84200 333 20230 58005;EQDQ01  00002PRCP99
0167825860999992000040418004-05200-039300FM-12+021199999V0201801N003112200019N0200001N1+03221+02011100841ADDAA199000091GF104991041021008001001001MA1999999098481MD1999999+0001REMSYN070AAXX  04184 82586 32598 41806 10322 20201 39848 40084 84200 333 58000;EQDQ01  00002PRCP99
0196825860999992000040500004-05200-039300FM-12+021199999V0209999C000012200019N0010001N1+02661+02221101031ADDAA199000091GA1001+999999999GF100991001001999999001001KA1240M+03281MA1999999098671MD1999999+0021REMSYN070AAXX  05004 82586 32994 00000 10266 20222 39867 40103 333 10328 58002;EQDQ01  00002PRCP99
0167825860999992000040518004-05200-039300FM-12+021199999V0201801N002112200019N0200001N1+03291+01931100861ADDAA199000091GF104991041021008001001001MA1999999098511MD1999999+0031REMSYN070AAXX  05184 82586 32598 41804 10329 20193 39851 40086 84200 333 58003;EQDQ01  00002PRCP99
0196825860999992000040600004-05200-039300FM-12+021199999V0200501N003112200019N0010001N1+02671+02071101041ADDAA199000091GA1001+999999999GF100991001001999999001001KA1240M+03321MA1999999098681MD1999999+0011REMSYN070AAXX  06004 82586 32994 00506 10267 20207 39868 40104 333 10332 58001;EQDQ01  00002PRCP99
0186825860999992000040612004-05200-039300FM-12+021199999V0201401N005712200019N0200001N1+02801+02251101091ADDAA199000091GF104991041021008001001001KA1240N+02401MA1999999098731MD1999999-0021REMSYN076AAXX  06124 82586 32598 41411 10280 20225 39873 40109 84200 333 20240 59002;EQDQ01  00002PRCP99
0182825860999992000040618004-05200-039300FM-12+021199999V0200501N003110075019N0200001N1+02751+02321100791ADDAA106004191AY161061AY221061GF108991081071008001999999MA1999999098421MD1999999-0091MW1151REMSYN082AAXX  06184 82586 21598 80506 10275 20232 39842 40079 71562 887// 333 59009 60041;
0173825860999992000040712004-05200-039300FM-12+021199999V0201801N004610075019N0200001N1+02701+02281100981ADDAA124004191GF107991071041008001001001KA1240N+02361MA1999999098621MD1999999-0111REMSYN082AAXX  07124 82586 22598 71809 10270 20228 39862 40098 87400 333 20236 59011 60044;
0182825860999992000040718004-05200-039300FM-12+021199999V0201801N004112200019N0200001N1+03101+02031100791ADDAA106000591AY151061AY221061GF104991041021008001001001MA1999999098351MD1999999-0071MW1031REMSYN082AAXX  07184 82586 21598 41808 10310 20203 39835 40079 70352 84200 333 59007 69951;
0201825860999992000040800004-05200-039300FM-12+021199999V0203601N001510075019N0010001N1+02401+02171100961ADDAA106000591AY151061AY221061GF105991051041008001001001KA1240M+03181MA1999999098581MD1999999-0011MW1031REMSYN088AAXX  08004 82586 21594 53603 10240 20217 39858 40096 70352 85400 333 10318 59001 69941;
0173825860999992000040812004-05200-039300FM-12+021199999V0201401N002612200019N0200001N1+02781+02231101001ADDAA124001091GF104991041011008001001001KA1240N+02201MA1999999098631MD1999999+0011REMSYN082AAXX  08124 82586 22598 41405 10278 20223 39863 40100 84100 333 20220 58001 69994;
0167825860999992000040818004-05200-039300FM-12+021199999V0201801N003112200019N0200001N1+03341+01801100711ADDAA199000091GF104991041021008001001001MA1999999098351MD1999999-0071REMSYN070AAXX  08184 82586 32598 41806 10334 20180 39835 40071 84200 333 59007;EQDQ01  00002PRCP99
0214825860999992000040900004-05200-039300FM-12+021199999V0200501N003110075019N0010001N1+02681+02111100931ADDAA199000091AY121061AY221061GF105991051031008001001001KA1240M+03341MA1999999098571MD1999999-0011MW1131REMSYN082AAXX  09004 82586 31594 50506 10268 20211 39857 40093 71322 85300 333 10334 59001;EQDQ01  00002PRCP99
0201825860999992000040912004-05200-039300FM-12+021199999V0201401N001510450019N0200001N1+02481+02341101051ADDAA124003091AY161061AY251061GF107991041041008001021001KA1240N+02161MA1999999098681MD1999999+0051MW1031REMSYN088AAXX  09124 82586 21598 71403 10248 20234 39868 40105 70365 84420 333 20216 58005 60034;
0167825860999992000040918004-05200-039300FM-12+021199999V0200501N003612200019N0200001N1+03141+02001100741ADDAA199000091GF106991031021008001001041MA1999999098321MD1999999+0031REMSYN070AAXX  09184 82586 32598 60507 10314 20200 39832 40074 83204 333 58003;EQDQ01  00002PRCP99
0186825860999992000041000004-05200-039300FM-12+021199999V0203601N000510075019N0010001N1+02561+01991100991ADDAA199000091GF105991051041008001001001KA1240M+03141MA1999999098601MD1999999+0031REMSYN076AAXX  10004 82586 32594 53601 10256 20199 39860 40099 85400 333 10314 58003;EQDQ01  00002PRCP99
0201825860999992000041012004-05200-039300FM-12+021199999V0200901N004112200019N0200001N1+02661+02441101021ADDAA124002091AY161061AY261061GF106991041041008001001011KA1240N+02361MA1999999098651MD1999999-0031MW1511REMSYN088AAXX  10124 82586 21598 60908 10266 20244 39865 40102 75166 84401 333 20236 59003 60024;
0182825860999992000041018004-05200-039300FM-12+021199999V0200501N006210075019N0200001N1+02671+02481100801ADDAA106006191AY161061AY221061GF108991081071008001999999MA1999999098421MD1999999+0041MW1031REMSYN082AAXX  10184 82586 21598 80512 10267 20248 39842 40080 70362 887// 333 58004 60061;
0201825860999992000041100004-05200-039300FM-12+021199999V0202701N001510075019N0010001N1+02501+02291100951ADDAA106004191AY161061AY251061GF106991061031008001001001KA1240M+03031MA1999999098581MD1999999-0021MW1131REMSYN088AAXX  11004 82586 21594 62703 10250 20229 39858 40095 71365 86300 333 10303 59002 60041;
0201825860999992000041112004-05200-039300FM-12+021199999V0200901N001511050019N0200001N1+02601+02501101051ADDAA124023991AY161061AY251061GF105991031021008001001021KA1240N+02141MA1999999098691MD1999999+0041MW1031REMSYN088AAXX  11124 82586 21598 50903 10260 20250 39869 40105 70365 83202 333 20214 58004 60244;
0167825860999992000041118004-05200-039300FM-12+021199999V0201401N001510075019N0200001N1+03101+02181100761ADDAA199000091GF106991061021008001001001MA1999999098421MD1999999+0001REMSYN070AAXX  11184 82586 32598 61403 10310 20218 39842 40076 86200 333 58000;EQDQ01  00002PRCP99
0214825860999992000041200004-05200-039300FM-12+021199999V0200501N002612200019N0010001N1+02601+02191100951ADDAA199000091AY121061AY221061GF104991041031008001001001KA1240M+03151MA1999999098581MD1999999+0001MW1131REMSYN082AAXX  12004 82586 31594 40505 10260 20219 39858 40095 71322 84300 333 10315 58000;EQDQ01  00002PRCP99
0201825860999992000041212004-05200-039300FM-12+021199999V0201401N001511050019N0200001N1+02621+02521101011ADDAA124002091AY161061AY221061GF106991031021008001001021KA1240N+02361MA1999999098641MD1999999-0051MW1031REMSYN088AAXX  12124 82586 21598 61403 10262 20252 39864 40101 70362 83202 333 20236 59005 60024;
0167825860999992000041218004-05200-039300FM-12+021199999V0201801N001512200019N0200001N1+03121+02281100661ADDAA199000091GF106991031021008001001041MA1999999098301MD1999999-0121REMSYN070AAXX  12184 82586 32598 61803 10312 20228 39830 40066 83204 333 59012;EQDQ01  00002PRCP99
0186825860999992000041300004-05200-039300FM-12+021199999V0201401N001019999999N0010001N1+02531+02251100931ADDAA199000091GF106991061001012501051001KA1240M+03161MA1999999098551MD1999999-0031REMSYN076AAXX  13004 82586 32694 61402 10253 20225 39855 40093 86050 333 10316 59003;EQDQ01  00002PRCP99
0201825860999992000041312004-05200-039300FM-12+021199999V0201801N001010075019N0200001N1+02621+02531101001ADDAA124004191AY161061AY221061GF108991081071008001999999KA1240N+02341MA1999999098631MD1999999-0011MW1511REMSYN088AAXX  13124 82586 21598 81802 10262 20253 39863 40100 75162 887// 333 20234 59001 60044;
0182825860999992000041318004-05200-039300FM-12+021199999V0201801N001510075019N0200001N1+02461+02391100761ADDAA106014091AY191061AY261061GF108991081071008001999999MA1999999098371MD1999999+0071MW1611REMSYN082AAXX  13184 82586 21598 81803 10246 20239 39837 40076 76196 887// 333 58007 60141;
0201825860999992000041400004-05200-039300FM-12+021199999V0201801N004110075019N0010001N1+02221+02191101081ADDAA106006191AY191061AY261061GF108991081071008001999999KA1240M+02911MA1999999098681MD1999999+0131MW1931REMSYN088AAXX  14004 82586 21594 81808 10222 20219 39868 40108 79396 887// 333 10291 58013 60061;
0167825860999992000041418004-05200-039300FM-12+021199999V0201801N002112200019N0200001N1+02941+02241100851ADDAA199000091GF105991031021008001001041MA1999999098471MD1999999+0101REMSYN070AAXX  14184 82586 32598 51804 10294 20224 39847 40085 83204 333 58010;EQDQ01  00002PRCP99
0202825860999992000041500004-05200-039300FM-12+021199999V02099999999992200019N0010001N1+02521+02071101071ADDAA199000091GF103991999021008001001001KA1240M+02991MA1999999098681MD1999999+0001REMSYN076AAXX  15004 82586 32594 305// 10252 20207 39868 40107 84200 333 10299 58000;EQDQ01+000042SCOTLCQ02  00002PRCP99
0202825860999992000041512004-05200-039300FM-12+021199999V0200501N001510075019N0200001N1+02701+02431101231ADDAA199000091GF106991999041008001001001KA1240N+02261MA1999999098851MD1999999+0151REMSYN076AAXX  15124 82586 32598 60503 10270 20243 39885 40123 85400 333 20226 58015;EQDQ01+000052SCOTLCQ02  00002PRCP99
0182825860999992000041518004-05200-039300FM-12+021199999V0200901N000510075019N0200001N1+02611+02011100841ADDAA106002091AY161061AY251061GF108991081071008001999999MA1999999098451MD1999999-0021MW1611REMSYN082AAXX  15184 82586 21598 80901 10261 20201 39845 40084 76165 887// 333 59002 60021;
0201825860999992000041600004-05200-039300FM-12+021199999V0203601N003110075019N0010001N1+02621+02351101201ADDAA106001091AY161061AY221061GF108991081071008001999999KA1240M+03141MA1999999098831MD1999999+0151MW1031REMSYN088AAXX  16004 82586 21594 83606 10262 20235 39883 40120 70362 887// 333 10314 58015 60011;
0173825860999992000041612004-05200-039300FM-12+021199999V0201801N001512200019N0200001N1+02541+02251101141ADDAA124003091GF103991031001012501031001KA1240N+02231MA1999999098761MD1999999-0091REMSYN082AAXX  16124 82586 22698 31803 10254 20225 39876 40114 83030 333 20223 59009 60034;
0195825860999992000041618004-05200-039300FM-12+021199999V0202301N001510075019N0200001N1+03091+02321100791ADDAA199000091AY121061AY221061GF108991081071008001999999MA1999999098421MD1999999-0021MW1151REMSYN076AAXX  16184 82586 31598 82303 10309 20232 39842 40079 71522 887// 333 59002;EQDQ01  00002PRCP99
0214825860999992000041700004-05200-039300FM-12+021199999V0203601N003110075019N0010001N1+02421+02181101121ADDAA199000091AY121061AY221061GF108991081031008001999999KA1240M+03101MA1999999098751MD1999999-0081MW1131REMSYN082AAXX  17004 82586 31594 83606 10242 20218 39875 40112 71322 883// 333 10310 59008;EQDQ01  00002PRCP99
0186825860999992000041712004-05200-039300FM-12+021199999V0202701N001510075019N0200001N1+02641+02331101151ADDAA199000091GF107991071071008001001001KA1240N+02261MA1999999098771MD1999999+0011REMSYN076AAXX  17124 82586 32598 72703 10264 20233 39877 40115 87700 333 20226 58001;EQDQ01  00002PRCP99
0195825860999992000041718004-05200-039300FM-12+021199999V0200501N002610075019N0200001N1+03041+02501100811ADDAA199000091AY121061AY221061GF107991071071008001001001MA1999999098451MD1999999+0021MW1131REMSYN076AAXX  17184 82586 31598 70505 10304 20250 39845 40081 71322 87700 333 58002;EQDQ01  00002PRCP99
0201825860999992000041800004-05200-039300FM-12+021199999V0201801N001510075019N0010001N1+02421+02071101111ADDAA106005191AY191061AY261061GF108991081071008001999999KA1240M+03151MA1999999098731MD1999999-0021MW1031REMSYN088AAXX  18004 82586 21594 81803 10242 20207 39873 40111 70396 887// 333 10315 59002 60051;
0173825860999992000041812004-05200-039300FM-12+021199999V0200901N001010075019N0200001N1+02601+02501101171ADDAA124005191GF106991061041008001001001KA1240N+02261MA1999999098781MD1999999+0011REMSYN082AAXX  18124 82586 22598 60902 10260 20250 39878 40117 86400 333 20226 58001 60054;
0167825860999992000041818004-05200-039300FM-12+021199999V02099999999990075019N0200001N1+03141+02161100811ADDAA199000091GF105991051041008001001001MA1999999098451MD1999999+0001REMSYN070AAXX  18184 82586 32598 509// 10314 20216 39845 40081 85400 333 58000;EQDQ01  00002PRCP99
0201825860999992000041900004-05200-039300FM-12+021199999V0203201N000510075019N0010001N1+02301+02091101081ADDAA106022191AY161061AY261061GF108991081071008001999999KA1240M+03161MA1999999098681MD1999999-0051MW1031REMSYN088AAXX  19004 82586 21594 83201 10230 20209 39868 40108 70366 887// 333 10316 59005 60221;
0201825860999992000041912004-05200-039300FM-12+021199999V0200901N001510075019N0200001N1+02601+02461101181ADDAA124027991AY191061AY261061GF108991081071008001999999KA1240N+02221MA1999999098781MD1999999+0001MW1031REMSYN088AAXX  19124 82586 21598 80903 10260 20246 39878 40118 70396 887// 333 20222 58000 60284;
0182825860999992000041918004-05200-039300FM-12+021199999V0201401N005110075019N0200001N1+03051+02431100841ADDAA106000191AY151061AY221061GF106991061071008001001001MA1999999098481MD1999999+0031MW1151REMSYN082AAXX  19184 82586 21598 61410 10305 20243 39848 40084 71552 86700 333 58003 69921;
0201825860999992000042000004-05200-039300FM-12+021199999V0200501N001019999999N0200001N1+02491+02271101081ADDAA106000191AY151061AY221061GF108991071999008001999999KA1240M+03101MA1999999098651MD1999999-0031MW1031REMSYN088AAXX  20004 82586 21598 80502 10249 20227 39865 40108 70352 87/// 333 10310 59003 69921;
0201825860999992000042012004-05200-039300FM-12+021199999V0200901N001510075019N0200001N1+02701+02561101111ADDAA124000591AY151061AY221061GF108991081071008001999999KA1240N+02361MA1999999098741MD1999999-0041MW1031REMSYN088AAXX  20124 82586 21598 80903 10270 20256 39874 40111 70352 887// 333 20236 59004 69964;
0167825860999992000042018004-05200-039300FM-12+021199999V0200901N003110075019N0200001N1+03161+02341100801ADDAA199000091GF105991051021008001001001MA1999999098441MD1999999-0041REMSYN070AAXX  20184 82586 32598 50906 10316 20234 39844 40080 85200 333 59004;EQDQ01  00002PRCP99
0201825860999992000042112004-05200-039300FM-12+021199999V0200501N004610075019N0200001N1+02761+02441101021ADDAA124005191AY161061AY221061GF106991061041008001001001KA1240N+02381MA1999999098661MD1999999-0081MW1031REMSYN088AAXX  21124 82586 21598 60509 10276 20244 39866 40102 70362 86400 333 20238 59008 60054;
0167825860999992000042118004-05200-039300FM-12+021199999V0201401N002612200019N0200001N1+03151+02271100711ADDAA199000091GF104991041021008001001001MA1999999098351MD1999999-0091REMSYN070AAXX  21184 82586 32598 41405 10315 20227 39835 40071 84200 333 59009;EQDQ01  00002PRCP99
0196825860999992000042200004-05200-039300FM-12+021199999V0200501N002112200019N0010001N1+02621+02051100951ADDAA199000091GA1001+999999999GF100991001001999999001001KA1240M+03191MA1999999098591MD1999999-0081REMSYN070AAXX  22004 82586 32994 00504 10262 20205 39859 40095 333 10319 59008;EQDQ01  00002PRCP99
0167825860999992000042218004-05200-039300FM-12+021199999V0200901N002110075019N0200001N1+03201+02331100721ADDAA199000091GF106991061041008001001001MA1999999098371MD1999999+0021REMSYN070AAXX  22184 82586 32598 60904 10320 20233 39837 40072 86400 333 58002;EQDQ01  00002PRCP99
0196825860999992000042300004-05200-039300FM-12+021199999V0200501N001012200019N0010001N1+02621+02141100961ADDAA199000091GA1001+999999999GF100991001001999999001001KA1240M+03251MA1999999098601MD1999999+0011REMSYN070AAXX  23004 82586 32994 00502 10262 20214 39860 40096 333 10325 58001;EQDQ01  00002PRCP99
0186825860999992000042312004-05200-039300FM-12+021199999V0200901N003110075019N0200001N1+02661+02481101081ADDAA199000091GF106991061041008001001001KA1240N+02231MA1999999098711MD1999999+0031REMSYN076AAXX  23124 82586 32598 60906 10266 20248 39871 40108 86400 333 20223 58003;EQDQ01  00002PRCP99
0182825860999992000042318004-05200-039300FM-12+021199999V0200501N003110075019N0200001N1+02561+02291100911ADDAA106015091AY161061AY221061GF108991081071008001999999MA1999999098521MD1999999+0151MW1211REMSYN082AAXX  23184 82586 21598 80506 10256 20229 39852 40091 72162 887// 333 58015 60151;
0201825860999992000042400004-05200-039300FM-12+021199999V0200501N001010075019N0010001N1+02421+02241101071ADDAA106004191AY161061AY221061GF108991081071008001999999KA1240M+03241MA1999999098691MD1999999+0091MW1031REMSYN088AAXX  24004 82586 21594 80502 10242 20224 39869 40107 70362 887// 333 10324 58009 60041;
0167825860999992000042418004-05200-039300FM-12+021199999V0201401N002110075019N0200001N1+02961+02351100781ADDAA199000091GF106991061041008001001001MA1999999098421MD1999999-0101REMSYN070AAXX  24184 82586 32598 61404 10296 20235 39842 40078 86400 333 59010;EQDQ01  00002PRCP99
0214825860999992000042500004-05200-039300FM-12+021199999V02099999999990075019N0010001N1+02401+01891101011ADDAA199000091AY121061AY221061GF106991061031008001001001KA1240M+03061MA1999999098621MD1999999-0071MW1131REMSYN082AAXX  25004 82586 31594 636// 10240 20189 39862 40101 71322 86300 333 10306 59007;EQDQ01  00002PRCP99
0201825860999992000042512004-05200-039300FM-12+021199999V02099999999990075019N0200001N1+02541+02211101071ADDAA124019191AY161061AY251061GF107991071041008001001001KA1240N+02231MA1999999098701MD1999999+0041MW1031REMSYN088AAXX  25124 82586 21598 705// 10254 20221 39870 40107 70365 87400 333 20223 58004 60194;
0182825860999992000042518004-05200-039300FM-12+021199999V0200501N001510075019N0200001N1+02951+02361100851ADDAA106000191AY151061AY221061GF106991061041008001001001MA1999999098481MD1999999+0061MW1031REMSYN082AAXX  25184 82586 21598 60503 10295 20236 39848 40085 70352 86400 333 58006 69921;
0201825860999992000042600004-05200-039300FM-12+021199999V0200501N004610075019N0010001N1+02221+02191101131ADDAA106003091AY161061AY261061GF108991081071008001999999KA1240M+03031MA1999999098731MD1999999+0111MW1611REMSYN088AAXX  26004 82586 21594 80509 10222 20219 39873 40113 76166 887// 333 10303 58011 60031;
0201825860999992000042612004-05200-039300FM-12+021199999V0201801N001510075019N0200001N1+02281+02231101261ADDAA124007991AY161061AY251061GF108991081071008001999999KA1240N+02201MA1999999098851MD1999999+0151MW1211REMSYN088AAXX  26124 82586 21598 81803 10228 20223 39885 40126 72165 887// 333 20220 58015 60084;
0182825860999992000042618004-05200-039300FM-12+021199999V0203601N003110075019N0200001N1+02361+02281101011ADDAA106001091AY161061AY221061GF108991081071008001999999MA1999999098611MD1999999+0031MW1211REMSYN082AAXX  26184 82586 21598 83606 10236 20228 39861 40101 72162 887// 333 58003 60011;
0201825860999992000042700004-05200-039300FM-12+021199999V0209999C000012200019N0010001N1+02321+02031101191ADDAA106006191AY161061AY261061GF104991041041008001001001KA1240M+02831MA1999999098781MD1999999+0051MW1031REMSYN088AAXX  27004 82586 21594 40000 10232 20203 39878 40119 70366 84400 333 10283 58005 60061;
0201825860999992000042712004-05200-039300FM-12+021199999V0200901N002610075019N0200001N1+02521+02431101231ADDAA124007991AY151061AY221061GF108991081071008001999999KA1240N+02201MA1999999098831MD1999999-0021MW1031REMSYN088AAXX  27124 82586 21598 80905 10252 20243 39883 40123 70352 887// 333 20220 59002 60084;
0167825860999992000042718004-05200-039300FM-12+021199999V0200901N003112200019N0200001N1+03001+01491100941ADDAA199000091GF104991041021008001001001MA1999999098581MD1999999-0031REMSYN070AAXX  27184 82586 32598 40906 10300 20149 39858 40094 84200 333 59003;EQDQ01  00002PRCP99
0196825860999992000042800004-05200-039300FM-12+021199999V0209999C000012200019N0010001N1+02441+02011101141ADDAA199000091GA1001+999999999GF100991001001999999001001KA1240M+03031MA1999999098751MD1999999-0031REMSYN070AAXX  28004 82586 32994 00000 10244 20201 39875 40114 333 10303 59003;EQDQ01  00002PRCP99
0186825860999992000042812004-05200-039300FM-12+021199999V0201401N001510075019N0200001N1+02621+02351101211ADDAA199000091GF106991061041008001001001KA1240N+02141MA1999999098831MD1999999+0001REMSYN076AAXX  28124 82586 32598 61403 10262 20235 39883 40121 86400 333 20214 58000;EQDQ01  00002PRCP99
0201825860999992000042818004-05200-039300FM-12+021199999V0200901N003110450019N0040001N1+02661+02441101061ADDAA106000591AY161061AY251061GF108991041071008001021999MA1999999100332MD1999999+0161MW1141REMSYN082AAXX  28184 82586 21596 80906 10266 20244 30033 40106 71465 8472/ 333 58016 69941;EQDQ01+100333APOSP 
0186825860999992000042912004-05200-039300FM-12+021199999V0201801N001510075019N0200001N1+02601+02331101211ADDAA199000091GF106991061041008001001001KA1240N+02261MA1999999098831MD1999999+0001REMSYN076AAXX  29124 82586 32598 61803 10260 20233 39883 40121 86400 333 20226 58000;EQDQ01  00002PRCP99
0167825860999992000042918004-05200-039300FM-12+021199999V02099999999991050019N0200001N1+02931+02221100921ADDAA199000091GF106991031021008001001021MA1999999098571MD1999999+0011REMSYN070AAXX  29184 82586 32598 618// 10293 20222 39857 40092 83202 333 58001;EQDQ01  00002PRCP99
0201825860999992000043000004-05200-039300FM-12+021199999V0203601N001510075019N0010001N1+02241+02161101221ADDAA106011991AY161061AY251061GF108991081071008001999999KA1240M+03011MA1999999098821MD1999999-0011MW1611REMSYN088AAXX  30004 82586 21594 83603 10224 20216 39882 40122 76165 887// 333 10301 59001 60121;
0201825860999992000043012004-05200-039300FM-12+021199999V0201401N002110075019N0200001N1+02601+02331101251ADDAA124013091AY151061AY251061GF106991061041008001001001KA1240N+02161MA1999999098851MD1999999+0021MW1031REMSYN088AAXX  30124 82586 21598 61404 10260 20233 39885 40125 70355 86400 333 20216 58002 60134;
0167825860999992000043018004-05200-039300FM-12+021199999V0200901N003112200019N0200001N1+02981+01981100961ADDAA199000091GF104991041021008001001001MA1999999098591MD1999999+0021REMSYN070AAXX  30184 82586 32598 40906 10298 20198 39859 40096 84200 333 58002;EQDQ01  00002PRCP99
0196825860999992000050100004-05200-039300FM-12+021199999V0209999C000012200019N0010001N1+02441+01641101161ADDAA199000091GA1001+999999999GF100991001001999999001001KA1240M+03011MA1999999098771MD1999999-0051REMSYN070AAXX  01004 82586 32994 00000 10244 20164 39877 40116 333 10301 59005;EQDQ01  00002PRCP99
0186825860999992000050112004-05200-039300FM-12+021199999V0200901N005112200019N0200001N1+02741+02051101181ADDAA199000091GF104991031011008001001011KA1240N+02321MA1999999098801MD1999999-0051REMSYN076AAXX  01124 82586 32598 40910 10274 20205 39880 40118 83101 333 20232 59005;EQDQ01  00002PRCP99
0167825860999992000050118004-05200-039300FM-12+021199999V0201401N002112200019N0200001N1+03041+02031100901ADDAA199000091GF106991031021008001001041MA1999999098541MD1999999-0051REMSYN070AAXX  01184 82586 32598 61404 10304 20203 39854 40090 83204 333 59005;EQDQ01  00002PRCP99
