0072827950999992000010100004-07220-035880FM-15+0560SBKG V0201201N00511220001CN0099001N1+02301+01901999999ADDMA1101291999999MW1001REMMET039SBKG 010000Z 12010KT CAVOK 23/19 Q1013;
0120827950999992000010101004-07220-035880FM-15+0560SBKG V0201201N004112200019N0112651N1+02301+02001999999ADDGA1021+004809999GF102991999999999999999999MA1101291999999MW1001REMMET045SBKG 010100Z 12008KT 9999 FEW016 23/20 Q1013;
0120827950999992000010102004-07220-035880FM-15+0560SBKG V0201201N004112200019N0112651N1+02201+02101999999ADDGA1021+004809999GF102991999999999999999999MA1101291999999MW1001REMMET045SBKG 010200Z 12008KT 9999 FEW016 22/21 Q1013;
0120827950999992000010103004-07220-035880FM-15+0560SBKG V0201201N003112200019N0112651N1+02201+02001999999ADDGA1021+004809999GF102991999999999999999999MA1101191999999MW1001REMMET045SBKG 010300Z 12006KT 9999 FEW016 22/20 Q1012;
0120827950999992000010104004-07220-035880FM-15+0560SBKG V0201201N003112200019N0112651N1+02201+02001999999ADDGA1021+004809999GF104991999999999999999999MA1101191999999MW1001REMMET045SBKG 010400Z 12006KT 9999 SCT016 22/20 Q1012;
0120827950999992000010105004-07220-035880FM-15+0560SBKG V0201301N003112200019N0112651N1+02201+02001999999ADDGA1021+004809999GF104991999999999999999999MA1101081999999MW1001REMMET045SBKG 010500Z 13006KT 9999 SCT016 22/20 Q1011;
0120827950999992000010106004-07220-035880FM-15+0560SBKG V0200901N002112200019N0112651N1+02101+02001999999ADDGA1021+004809999GF104991999999999999999999MA1101081999999MW1001REMMET045SBKG 010600Z 09004KT 9999 SCT016 21/20 Q1011;
0120827950999992000010107004-07220-035880FM-15+0560SBKG V0201801N002112200019N0112651N1+02101+02001999999ADDGA1021+004809999GF104991999999999999999999MA1101191999999MW1001REMMET045SBKG 010700Z 18004KT 9999 SCT016 21/20 Q1012;
0120827950999992000010108004-07220-035880FM-15+0560SBKG V0201301N001512200019N0112651N1+02101+02001999999ADDGA1021+004809999GF102991999999999999999999MA1101081999999MW1001REMMET045SBKG 010800Z 13003KT 9999 FEW016 21/20 Q1011;
0143827950999992000010109004-07220-035880FM-15+0560SBKG V0201201N001012200019N0112651N1+02101+02001999999ADDGA1021+006009999GA2021+090009999GF104991999999999999999999MA1101191999999MW1001REMMET052SBKG 010900Z 12002KT 9999 SCT020 SCT300 21/20 Q1012;
0120827950999992000010110004-07220-035880FM-15+0560SBKG V0201101N003612200019N0112651N1+02201+02001999999ADDGA1021+006009999GF104991999999999999999999MA1101191999999MW1001REMMET045SBKG 011000Z 11007KT 9999 SCT020 22/20 Q1012;
0143827950999992000010111004-07220-035880FM-15+0560SBKG V0201101N003612200019N0112651N1+02401+01901999999ADDGA1021+006009999GA2021+090009999GF104991999999999999999999MA1101291999999MW1001REMMET052SBKG 011100Z 11007KT 9999 SCT020 SCT300 24/19 Q1013;
0282827950999992000010112004-07220-035880SY-MT+0560SBKG V0201401N005110900019N0100001N1+02521+01821100951ADDAA106000091GA1021+006609999GA2071+090009999GF106991999011008001001001KA1240N+02111MA1101191094871MD1999999-0141MW1001REMSYN076AAXX  01124 82795 32597 61410 10252 20182 39487 40095 82100 333 20211 59014;MET052SBKG 011200Z 12007KT 9999 SCT022 BKN300 26/19 Q1012;EQDQ01  00002PRCP06
0143827950999992000010113004-07220-035880FM-15+0560SBKG V0201001N003610900019N0112651N1+02701+01801999999ADDGA1021+006609999GA2071+090009999GF107991999999999999999999MA1101191999999MW1001REMMET052SBKG 011300Z 10007KT 9999 SCT022 BKN300 27/18 Q1012;
0143827950999992000010114004-07220-035880FM-15+0560SBKG V0201201N005112200019N0112651N1+02801+01701999999ADDGA1021+007509999GA2021+090009999GF104991999999999999999999MA1101081999999MW1001REMMET052SBKG 011400Z 12010KT 9999 SCT025 SCT300 28/17 Q1011;
0120827950999992000010115004-07220-035880FM-15+0560SBKG V0201201N004112200019N0112651N1+03001+01601999999ADDGA1021+007509999GF104991999999999999999999MA1101081999999MW1001REMMET045SBKG 011500Z 12008KT 9999 SCT025 30/16 Q1011;
0120827950999992000010116004-07220-035880FM-15+0560SBKG V0201201N005112200019N0112651N1+03101+01601999999ADDGA1021+009009999GF104991999999999999999999MA1101021999999MW1001REMMET045SBKG 011600Z 12010KT 9999 SCT030 31/16 Q1010;
0120827950999992000010117004-07220-035880FM-15+0560SBKG V0201501N005112200019N0112651N1+03101+01601999999ADDGA1021+009009999GF104991999999999999999999MA1100911999999MW1001REMMET045SBKG 011700Z 15010KT 9999 SCT030 31/16 Q1009;
0240827950999992000010118004-07220-035880SY-MT+0560SBKG V0201401N004612200019N0020001N1+02941+01551100611ADDAA106000091GA1021+009009999GF105991999011008001001001MA1100911094511MD1999999-0101MW1001REMSYN070AAXX  01184 82795 32595 51409 10294 20155 39451 40061 82100 333 59010;MET045SBKG 011800Z 12010KT 9999 SCT030 31/17 Q1009;EQDQ01  00002PRCP06
0120827950999992000010119004-07220-035880FM-15+0560SBKG V0201001N005112200019N0112651N1+03101+01601999999ADDGA1021+009009999GF102991999999999999999999MA1100911999999MW1001REMMET045SBKG 011900Z 10010KT 9999 FEW030 31/16 Q1009;
0120827950999992000010120004-07220-035880FM-15+0560SBKG V0201001N005112200019N0112651N1+03001+01801999999ADDGA1021+009009999GF102991999999999999999999MA1100911999999MW1001REMMET045SBKG 012000Z 10010KT 9999 FEW030 30/18 Q1009;
0120827950999992000010121004-07220-035880FM-15+0560SBKG V0201201N005112200019N0112651N1+02801+01701999999ADDGA1021+006009999GF102991999999999999999999MA1101021999999MW1001REMMET045SBKG 012100Z 12010KT 9999 FEW020 28/17 Q1010;
0120827950999992000010122004-07220-035880FM-15+0560SBKG V0201201N005112200019N0112651N1+02601+01801999999ADDGA1021+004509999GF102991999999999999999999MA1101081999999MW1001REMMET045SBKG 012200Z 12010KT 9999 FEW015 26/18 Q1011;
0120827950999992000010123004-07220-035880FM-15+0560SBKG V0201201N005112200019N0112651N1+02401+01901999999ADDGA1021+004509999GF102991999999999999999999MA1101191999999MW1001REMMET045SBKG 012300Z 12010KT 9999 FEW015 24/19 Q1012;
0275827950999992000010200004-07220-035880SY-MT+0560SBKG V0201401N001512200019N0100001N1+02301+01921100851ADDAA106000091GA1021+004509999GF102991021011008001001001KA1240M+03111MA1101291094821MD1999999-0101MW1001REMSYN076AAXX  02004 82795 32597 21403 10230 20192 39482 40085 82100 333 10311 59010;MET045SBKG 020000Z 12008KT 9999 FEW015 23/19 Q1013;EQDQ01+000000PRSWM2Q02  00002PRCP06
0139827950999992000010201004-07220-035880FM-15+0560SBKG V0201201N004112200019N0112651N1+02301+02001999999ADDGA1021+004509999GF102991999999999999999999MA1101291999999MW1001REMMET045SBKG 020100Z 12008KT 9999 FEW015 23/20 Q1013;EQDQ01+000000PRSWM2
0139827950999992000010202004-07220-035880FM-15+0560SBKG V0201201N003112200019N0112651N1+02201+02001999999ADDGA1021+004509999GF102991999999999999999999MA1101291999999MW1001REMMET045SBKG 020200Z 12006KT 9999 FEW015 22/20 Q1013;EQDQ01+000000PRSWM2
0139827950999992000010203004-07220-035880FM-15+0560SBKG V0200901N003112200019N0112651N1+02201+02001999999ADDGA1021+004509999GF102991999999999999999999MA1101081999999MW1001REMMET045SBKG 020300Z 09006KT 9999 FEW015 22/20 Q1011;EQDQ01+000000PRSWM2
0139827950999992000010204004-07220-035880FM-15+0560SBKG V0201201N003112200019N0112651N1+02101+02001999999ADDGA1021+004509999GF102991999999999999999999MA1101081999999MW1001REMMET045SBKG 020400Z 12006KT 9999 FEW015 21/20 Q1011;EQDQ01+000000PRSWM2
0139827950999992000010205004-07220-035880FM-15+0560SBKG V0201201N002112200019N0112651N1+02101+02001999999ADDGA1021+004509999GF104991999999999999999999MA1101081999999MW1001REMMET045SBKG 020500Z 12004KT 9999 SCT015 21/20 Q1011;EQDQ01+000000PRSWM2
0140827950999992000010206004-07220-035880FM-15+0560SBKG V0200901N002112200019N0112651N1+02101+02001999999ADDGA1021+004509999GF104991999999999999999999MA1101081999999MW1001REMMET046SBKG 020600Z 09004KT 9999 SCT015 21/20 Q1011 ;EQDQ01+000000PRSWM2
0140827950999992000010208004-07220-035880FM-15+0560SBKG V0201001N001012200019N0112651N1+02001+02001999999ADDGA1021+004509999GF102991999999999999999999MA1101081999999MW1001REMMET046SBKG 020800Z 10002KT 9999 FEW015 20/20 Q1011 ;EQDQ01+000000PRSWM2
0139827950999992000010209004-07220-035880FM-15+0560SBKG V0209999C000012200019N0112651N1+02001+02001999999ADDGA1021+004509999GF102991999999999999999999MA1101191999999MW1001REMMET045SBKG 020900Z 00000KT 9999 FEW015 20/20 Q1012;EQDQ01+000000PRSWM2
0139827950999992000010210004-07220-035880FM-15+0560SBKG V0201501N003112200019N0112651N1+02401+02001999999ADDGA1021+004809999GF104991999999999999999999MA1101191999999MW1001REMMET045SBKG 021000Z 15006KT 9999 SCT016 24/20 Q1012;EQDQ01+000000PRSWM2
0139827950999992000010211004-07220-035880FM-15+0560SBKG V0201201N004112200019N0112651N1+02501+01901999999ADDGA1021+006009999GF104991999999999999999999MA1101191999999MW1001REMMET045SBKG 021100Z 12008KT 9999 SCT020 25/19 Q1012;EQDQ01+000000PRSWM2
0275827950999992000010212004-07220-035880SY-MT+0560SBKG V0201401N003111050019N0100001N1+02561+01801100921ADDAA106000091GA1021+007509999GF105991031041008001001031KA1240N+02081MA1101191094801MD1999999-0011MW1001REMSYN076AAXX  02124 82795 32597 51406 10256 20180 39480 40092 83403 333 20208 59001;MET045SBKG 021200Z 16006KT 9999 SCT025 26/18 Q1012;EQDQ01+000000PRSWM2Q02  00002PRCP06
0139827950999992000010213004-07220-035880FM-15+0560SBKG V0201601N003112200019N0112651N1+02701+01701999999ADDGA1021+007509999GF104991999999999999999999MA1101191999999MW1001REMMET045SBKG 021300Z 16006KT 9999 SCT025 27/17 Q1012;EQDQ01+000000PRSWM2
0139827950999992000010214004-07220-035880FM-15+0560SBKG V0201301N004112200019N0112651N1+02901+01701999999ADDGA1021+009009999GF104991999999999999999999MA1101081999999MW1001REMMET045SBKG 021400Z 13008KT 9999 SCT030 29/17 Q1011;EQDQ01+000000PRSWM2
0139827950999992000010215004-07220-035880FM-15+0560SBKG V0201001N003110090019N0112651N1+03001+01601999999ADDGA1071+009009999GF107991999999999999999999MA1101081999999MW1001REMMET045SBKG 021500Z 10006KT 9999 BKN030 30/16 Q1011;EQDQ01+000000PRSWM2
0139827950999992000010216004-07220-035880FM-15+0560SBKG V0201201N005110090019N0112651N1+03101+01601999999ADDGA1071+009009999GF107991999999999999999999MA1101021999999MW1001REMMET045SBKG 021600Z 12010KT 9999 BKN030 31/16 Q1010;EQDQ01+000000PRSWM2
0139827950999992000010217004-07220-035880FM-15+0560SBKG V0201601N003110090019N0112651N1+03101+01601999999ADDGA1071+009009999GF107991999999999999999999MA1100911999999MW1001REMMET045SBKG 021700Z 16006KT 9999 BKN030 31/16 Q1009;EQDQ01+000000PRSWM2
0256827950999992000010218004-07220-035880SY-MT+0560SBKG V0200901N005110090019N0100001N1+02811+01901100651ADDAA106000091GA1071+009009999GF106991041081008001001061MA1100911094511MD1999999+0001MW1001REMSYN070AAXX  02184 82795 32597 60910 10281 20190 39451 40065 84806 333 58000;MET045SBKG 021800Z 12010KT 9999 BKN030 30/16 Q1009;EQDQ01+000000PRSWM2Q02  00002PRCP06
0162827950999992000010219004-07220-035880FM-15+0560SBKG V0201201N005112200019N0112651N1+03001+01701999999ADDGA1021+007509999GA2021+090009999GF104991999999999999999999MA1100911999999MW1001REMMET052SBKG 021900Z 12010KT 9999 SCT025 SCT300 30/17 Q1009;EQDQ01+000000PRSWM2
0162827950999992000010220004-07220-035880FM-15+0560SBKG V0201201N005112200019N0112651N1+02901+01701999999ADDGA1021+007509999GA2021+090009999GF104991999999999999999999MA1100911999999MW1001REMMET052SBKG 022000Z 12010KT 9999 SCT025 SCT300 29/17 Q1009;EQDQ01+000000PRSWM2
0162827950999992000010221004-07220-035880FM-15+0560SBKG V0201001N005112200019N0112651N1+02701+02001999999ADDGA1021+006009999GA2021+090009999GF104991999999999999999999MA1101021999999MW1001REMMET052SBKG 022100Z 10010KT 9999 SCT020 SCT300 27/20 Q1010;EQDQ01+000000PRSWM2
0162827950999992000010222004-07220-035880FM-15+0560SBKG V0201001N006212200019N0112651N1+02501+02001999999ADDGA1021+006009999GA2021+030009999GF104991999999999999999999MA1101081999999MW1001REMMET052SBKG 022200Z 10012KT 9999 SCT020 SCT100 25/20 Q1011;EQDQ01+000000PRSWM2
0162827950999992000010223004-07220-035880FM-15+0560SBKG V0201001N005112200019N0112651N1+02501+02001999999ADDGA1021+006009999GA2021+030009999GF104991999999999999999999MA1101081999999MW1001REMMET052SBKG 022300Z 10010KT 9999 SCT020 SCT100 25/20 Q1011;EQDQ01+000000PRSWM2
0275827950999992000010300004-07220-035880SY-MT+0560SBKG V0201401N001510075019N0100001N1+02331+02001101011ADDAA106000091GA1021+004509999GF105991051061008001001001KA1240M+03071MA1101191094881MD1999999+0061MW1001REMSYN076AAXX  03004 82795 32597 51403 10233 20200 39488 40101 85600 333 10307 58006;MET045SBKG 030000Z 10010KT 9999 SCT015 24/20 Q1012;EQDQ01+000000PRSWM2Q02  00002PRCP06
0139827950999992000010301004-07220-035880FM-15+0560SBKG V0201001N005112200019N0112651N1+02301+02001999999ADDGA1021+004509999GF104991999999999999999999MA1101191999999MW1001REMMET045SBKG 030100Z 10010KT 9999 SCT015 23/20 Q1012;EQDQ01+000000PRSWM2
0139827950999992000010302004-07220-035880FM-15+0560SBKG V0201001N004110045019N0112651N1+02301+02001999999ADDGA1071+004509999GF107991999999999999999999MA1101191999999MW1001REMMET045SBKG 030200Z 10008KT 9999 BKN015 23/20 Q1012;EQDQ01+000000PRSWM2
0139827950999992000010303004-07220-035880FM-15+0560SBKG V0201201N004112200019N0112651N1+02301+02101999999ADDGA1021+003609999GF104991999999999999999999MA1101081999999MW1001REMMET045SBKG 030300Z 12008KT 9999 SCT012 23/21 Q1011;EQDQ01+000000PRSWM2
0139827950999992000010304004-07220-035880FM-15+0560SBKG V0201201N003112200019N0112651N1+02301+02101999999ADDGA1021+003609999GF104991999999999999999999MA1101021999999MW1001REMMET045SBKG 030400Z 12006KT 9999 SCT012 23/21 Q1010;EQDQ01+000000PRSWM2
0162827950999992000010305004-07220-035880FM-15+0560SBKG V0201201N002112200019N0112651N1+02301+02101999999ADDGA1021+003009999GA2021+004809999GF104991999999999999999999MA1101021999999MW1001REMMET052SBKG 030500Z 12004KT 9999 FEW010 SCT016 23/21 Q1010;EQDQ01+000000PRSWM2
0162827950999992000010306004-07220-035880FM-15+0560SBKG V0201201N003112200019N0112651N1+02201+02101999999ADDGA1021+003009999GA2021+004509999GF104991999999999999999999MA1101021999999MW1001REMMET052SBKG 030600Z 12006KT 9999 SCT010 SCT015 22/21 Q1010;EQDQ01+000000PRSWM2
0162827950999992000010307004-07220-035880FM-15+0560SBKG V0201301N002112200019N0112651N1+02201+02101999999ADDGA1021+003009999GA2021+004509999GF104991999999999999999999MA1101021999999MW1001REMMET052SBKG 030700Z 13004KT 9999 SCT010 SCT015 22/21 Q1010;EQDQ01+000000PRSWM2
0162827950999992000010308004-07220-035880FM-15+0560SBKG V0201201N002112200019N0112651N1+02201+02101999999ADDGA1021+003009999GA2021+004509999GF104991999999999999999999MA1101081999999MW1001REMMET052SBKG 030800Z 12004KT 9999 FEW010 SCT015 22/21 Q1011;EQDQ01+000000PRSWM2
0162827950999992000010310004-07220-035880FM-15+0560SBKG V0201501N003110045019N0112651N1+02401+02001999999ADDGA1021+003009999GA2071+004509999GF107991999999999999999999MA1101191999999MW1001REMMET052SBKG 031000Z 15006KT 9999 FEW010 BKN015 24/20 Q1012;EQDQ01+000000PRSWM2
0162827950999992000010311004-07220-035880FM-15+0560SBKG V0201201N005110060019N0112651N1+02501+01901999999ADDGA1021+004509999GA2071+006009999GF107991999999999999999999MA1101191999999MW1001REMMET052SBKG 031100Z 12010KT 9999 SCT015 BKN020 25/19 Q1012;EQDQ01+000000PRSWM2
0291827950999992000010312004-07220-035880SY-MT+0560SBKG V0201401N00461006001CN0100001N1+02511+01931100971ADDAA106000091GA1071+006009999GF199999061051008001001001KA1240N+02131MA1101191094841MD1999999+0041MW1001REMSYN076AAXX  03124 82795 32597 61409 10251 20193 39484 40097 86500 333 20213 58004;MET045SBKG 031200Z 12006KT 9999 BKN020 26/19 Q1012;EQDQ01+000062SCOTCVQ02+000000PRSWM2Q03  00002PRCP06
0139827950999992000010313004-07220-035880FM-15+0560SBKG V0201701N003110060019N0112651N1+02701+02001999999ADDGA1071+006009999GF107991999999999999999999MA1101191999999MW1001REMMET045SBKG 031300Z 17006KT 9999 BKN020 27/20 Q1012;EQDQ01+000000PRSWM2
0139827950999992000010315004-07220-035880FM-15+0560SBKG V0201001N005110060019N0112651N1+02601+02101999999ADDGA1071+006009999GF107991999999999999999999MA1101291999999MW1001REMMET045SBKG 031500Z 10010KT 9999 BKN020 26/21 Q1013;EQDQ01+000000PRSWM2
0162827950999992000010316004-07220-035880FM-15+0560SBKG V0201001N002112200019N0112651N1+02801+02001999999ADDGA1021+006009999GA2021+090009999GF104991999999999999999999MA1101021999999MW1001REMMET052SBKG 031600Z 10004KT 9999 SCT020 SCT300 28/20 Q1010;EQDQ01+000000PRSWM2
0162827950999992000010317004-07220-035880FM-15+0560SBKG V0201001N004110900019N0112651N1+02901+02001999999ADDGA1021+006009999GA2071+090009999GF107991999999999999999999MA1100911999999MW1001REMMET052SBKG 031700Z 10008KT 9999 SCT020 BKN300 29/20 Q1009;EQDQ01+000000PRSWM2
0333827950999992000010318004-07220-035880SY-MT+0560SBKG V0201401N00511006001CN0100001N1+02801+02001100631ADDAA106000091AY101061AY201061GA1071+006009999GA2071+090009999GF199999031051008001021001MA1100911094531MD1999999+0021MW1141REMSYN076AAXX  03184 82795 31597 61410 10280 20200 39453 40063 71400 83520 333 58002;MET052SBKG 031800Z 10012KT 9999 BKN020 BKN300 28/21 Q1009;EQDQ01+000062SCOTCVQ02+000000PRSWM2Q03  00002PRCP06Q04    003PRSWM1
0162827950999992000010320004-07220-035880FM-15+0560SBKG V0201001N007210900019N0112651N1+02601+02101999999ADDGA1021+006009999GA2071+090009999GF107991999999999999999999MA1101021999999MW1001REMMET052SBKG 032000Z 10014KT 9999 SCT020 BKN300 26/21 Q1010;EQDQ01+000000PRSWM2
0139827950999992000010321004-07220-035880FM-15+0560SBKG V0201001N004112200019N0112651N1+02401+02001999999ADDGA1021+004509999GF102991999999999999999999MA1101021999999MW1001REMMET045SBKG 032100Z 10008KT 9999 FEW015 24/20 Q1010;EQDQ01+000000PRSWM2
0139827950999992000010322004-07220-035880FM-15+0560SBKG V0201001N003610045019N0112651N1+02301+02001999999ADDGA1071+004509999GF107991999999999999999999MA1101081999999MW1001REMMET045SBKG 032200Z 10007KT 9999 BKN015 23/20 Q1011;EQDQ01+000000PRSWM2
0139827950999992000010323004-07220-035880FM-15+0560SBKG V0201001N003612200019N0112651N1+02201+02101999999ADDGA1021+004509999GF104991999999999999999999MA1101081999999MW1001REMMET045SBKG 032300Z 10007KT 9999 SCT015 22/21 Q1011;EQDQ01+000000PRSWM2
0319827950999992000010400004-07220-035880SY-MT+0560SBKG V0200901N005112200019N0100001N1+02131+02061100951ADDAA106000591AY151061AY221061GA1071+004509999GF199999061021008001001001KA1240M+02911MA1101191094911MD1999999-0071MW1021REMSYN088AAXX  04004 82795 21597 40910 10213 20206 39491 40095 70252 86200 333 10291 59007 69951;MET045SBKG 040000Z 13007KT 9999 BKN015 22/20 Q1012;EQDQ01+000042SCOTCVQ02+000000PRSWM2Q03    003PRSWM1
0139827950999992000010401004-07220-035880FM-15+0560SBKG V0201001N002610045019N0112651N1+02201+02101999999ADDGA1071+004509999GF107991999999999999999999MA1101191999999MW1001REMMET045SBKG 040100Z 10005KT 9999 BKN015 22/21 Q1012;EQDQ01+000000PRSWM2
0122827950999992000010402004-07220-035880FM-15+0560SBKG V0201001N002610045019N0112651N1+02201+02101999999ADDGA1071+004509999GF107991999999999999999999MW1001REMMET043SBKG 040200Z 10005KT 9999 BKN01522/21 Q012;EQDQ01+000000PRSWM2
0162827950999992000010403004-07220-035880FM-15+0560SBKG V0201201N003110045019N0112651N1+02201+02101999999ADDGA1021+003009999GA2071+004509999GF107991999999999999999999MA1101191999999MW1001REMMET052SBKG 040300Z 12006KT 9999 FEW010 BKN015 22/21 Q1012;EQDQ01+000000PRSWM2
0159827950999992000010404004-07220-035880FM-15+0560SBKG V0201201N004110030019N0080001N1+02201+02101999999ADDGA1071+003009999GF107991999999999999999999MA1101081999999MW1611REMMET049SBKG 040400Z 12008KT 8000 -RA BKN010 22/21 Q1011;EQDQ01+000003PRSWM1Q02    003PRSWM1
0139827950999992000010405004-07220-035880FM-15+0560SBKG V0201201N004110030019N0112651N1+02201+02101999999ADDGA1071+003009999GF107991999999999999999999MA1101081999999MW1001REMMET045SBKG 040500Z 12008KT 9999 BKN010 22/21 Q1011;EQDQ01+000000PRSWM2
0139827950999992000010406004-07220-035880FM-15+0560SBKG V0201201N003110030019N0112651N1+02101+02001999999ADDGA1071+003009999GF107991999999999999999999MA1101081999999MW1001REMMET045SBKG 040600Z 12006KT 9999 BKN010 21/20 Q1011;EQDQ01+000000PRSWM2
0139827950999992000010407004-07220-035880FM-15+0560SBKG V0201201N003610030019N0112651N1+02101+02001999999ADDGA1071+003009999GF107991999999999999999999MA1101081999999MW1001REMMET045SBKG 040700Z 12007KT 9999 BKN010 21/20 Q1011;EQDQ01+000000PRSWM2
0139827950999992000010408004-07220-035880FM-15+0560SBKG V0201201N003110030019N0112651N1+02101+02001999999ADDGA1071+003009999GF107991999999999999999999MA1101081999999MW1001REMMET045SBKG 040800Z 12006KT 9999 BKN010 21/20 Q1011;EQDQ01+000000PRSWM2
0158827950999992000010409254-07220-035880FM-15+0560SBKG V0201201N003110030019N0050001N1+02101+02001999999ADDGA1071+003009999GF107991999999999999999999MA1101291999999MW1101REMMET048SBKG 040925Z 12006KT 5000 BR BKN010 21/20 Q1013;EQDQ01+000003PRSWM1Q02    003PRSWM1
0162827950999992000010411004-07220-035880FM-15+0560SBKG V0201201N003110045019N0112651N1+02201+02001999999ADDGA1071+004509999GA2071+021009999GF107991999999999999999999MA1101291999999MW1001REMMET052SBKG 041100Z 12006KT 9999 BKN015 BKN070 22/20 Q1013;EQDQ01+000000PRSWM2
0320827950999992000010412004-07220-035880SY-MT+0560SBKG V0201401N004110045019N0100001N1+02131+02061101161ADDAA124002091AY161061AY221061GA1071+004509999GA2071+021009999GF108991081071008001999999KA1240N+02001MA1101391094981MD1999999+0141MW1161MW2611REMSYN088AAXX  04124 82795 21597 81408 10213 20206 39498 40116 71662 887// 333 20200 58014 60024;MET056SBKG 041200Z 12006KT 5000 -RA BKN015 BKN070 22/20 Q1014;EQDQ01    003PRSWM1
0185827950999992000010413004-07220-035880FM-15+0560SBKG V0201401N003110210019N0112651N1+02301+02001999999ADDGA1021+004509999GA2021+006009999GA3071+021009999GF107991999999999999999999MA1101391999999MW1001REMMET059SBKG 041300Z 14006KT 9999 SCT015 SCT020 BKN070 23/20 Q1014;EQDQ01+000000PRSWM2
0162827950999992000010414004-07220-035880FM-15+0560SBKG V0201001N005110060019N0112651N1+02501+02001999999ADDGA1071+006009999GA2071+030009999GF107991999999999999999999MA1101291999999MW1001REMMET052SBKG 041400Z 10010KT 9999 BKN020 BKN100 25/20 Q1013;EQDQ01+000000PRSWM2
0188827950999992000010415004-07220-035880FM-15+0560SBKG V0201001N005112200019N0112651N1+02601+01901999999ADDGA1021+006609999GA2021+007509029GA3021+030009999GF104991999999999999999999MA1101291999999MW1001REMMET062SBKG 041500Z 10010KT 9999 FEW022 FEW025TCU SCT100 26/19 Q1013;EQDQ01+000000PRSWM2
0188827950999992000010416004-07220-035880FM-15+0560SBKG V0201201N003612200019N0112651N1+02701+01901999999ADDGA1021+006609999GA2021+007509029GA3021+030009999GF104991999999999999999999MA1101191999999MW1001REMMET062SBKG 041600Z 12007KT 9999 SCT022 FEW025TCU SCT100 27/19 Q1012;EQDQ01+000000PRSWM2
0208827950999992000010417004-07220-035880FM-15+0560SBKG V0201401N005110060019N0050001N1+02301+02101999999ADDGA1071+006009999GA2021+007509029GA3071+024009999GF107991999999999999999999MA1101191999999MW1611REMMET066SBKG 041700Z 14010KT 5000 -RA BKN020 SCT025TCU BKN080 23/21 Q1012;EQDQ01+000003PRSWM1Q02    003PRSWM1
0333827950999992000010418004-07220-035880SY-MT+0560SBKG V0201401N003110270019N0040001N1+02231+02031100851ADDAA106002091AY161061AY221061GA1021+006009999GA2021+007509029GA3071+027009999GF108991051071008001011999MA1101081094691MD1999999+0161MW1021REMSYN082AAXX  04184 82795 21596 81406 10223 20203 39469 40085 70262 8571/ 333 58016 60021;MET062SBKG 041800Z 07004KT 9999 FEW020 FEW025TCU BKN090 23/21 Q1011;EQDQ01+000000PRSWM2Q02    003PRSWM1
0162827950999992000010419004-07220-035880FM-15+0560SBKG V0200701N002110270019N0112651N1+02401+02101999999ADDGA1021+006009999GA2071+027009999GF107991999999999999999999MA1101021999999MW1001REMMET052SBKG 041900Z 07004KT 9999 FEW020 BKN090 24/21 Q1010;EQDQ01+000000PRSWM2
0162827950999992000010420004-07220-035880FM-15+0560SBKG V0209999C000010270019N0112651N1+02501+02101999999ADDGA1021+006009999GA2071+027009999GF107991999999999999999999MA1101021999999MW1001REMMET052SBKG 042000Z 00000KT 9999 FEW020 BKN090 25/21 Q1010;EQDQ01+000000PRSWM2
0162827950999992000010421004-07220-035880FM-15+0560SBKG V0201201N003112200019N0112651N1+02401+02101999999ADDGA1021+006009999GA2021+027009999GF104991999999999999999999MA1101021999999MW1001REMMET052SBKG 042100Z 12006KT 9999 FEW020 SCT090 24/21 Q1010;EQDQ01+000000PRSWM2
0185827950999992000010422004-07220-035880FM-15+0560SBKG V0201201N003110270019N0112651N1+02401+02001999999ADDGA1021+004509999GA2071+027009999GA3071+090009999GF107991999999999999999999MA1101081999999MW1001REMMET059SBKG 042200Z 12006KT 9999 FEW015 BKN090 BKN300 24/20 Q1011;EQDQ01+000000PRSWM2
0185827950999992000010423004-07220-035880FM-15+0560SBKG V0201201N003110270019N0112651N1+02401+02001999999ADDGA1021+004509999GA2071+027009999GA3071+090009999GF107991999999999999999999MA1101191999999MW1001REMMET059SBKG 042300Z 12006KT 9999 SCT015 BKN090 BKN300 24/20 Q1012;EQDQ01+000000PRSWM2
0337827950999992000010500004-07220-035880SY-MT+0560SBKG V0201401N00211027001CN0100001N1+02231+02081101111ADDAA106000091GA1021+004509999GA2071+027009999GA3071+090009999GF199999021061008001011001KA1240M+02601MA1101291094951MD1999999+0141MW1001REMSYN076AAXX  05004 82795 32597 51404 10223 20208 39495 40111 82610 333 10260 58014;MET059SBKG 050000Z 12006KT 9999 SCT015 BKN090 BKN300 23/21 Q1013;EQDQ01+000052SCOTCVQ02+000000PRSWM2Q03  00002PRCP06
0162827950999992000010501004-07220-035880FM-15+0560SBKG V0201001N002112200019N0112651N1+02201+02101999999ADDGA1021+004509999GA2021+027009999GF104991999999999999999999MA1101291999999MW1001REMMET052SBKG 050100Z 10004KT 9999 SCT015 SCT090 22/21 Q1013;EQDQ01+000000PRSWM2
0139827950999992000010503004-07220-035880FM-15+0560SBKG V0201001N003112200019N0112651N1+02201+02101999999ADDGA1021+004509999GF104991999999999999999999MA1101291999999MW1001REMMET045SBKG 050300Z 10006KT 9999 SCT015 22/21 Q1013;EQDQ01+000000PRSWM2
0139827950999992000010504004-07220-035880FM-15+0560SBKG V0201801N002112200019N0112651N1+02101+02001999999ADDGA1021+004509999GF104991999999999999999999MA1101191999999MW1001REMMET045SBKG 050400Z 18004KT 9999 SCT015 21/20 Q1012;EQDQ01+000000PRSWM2
0139827950999992000010505004-07220-035880FM-15+0560SBKG V0201701N003112200019N0112651N1+02101+02001999999ADDGA1021+004509999GF104991999999999999999999MA1101081999999MW1001REMMET045SBKG 050500Z 17006KT 9999 SCT015 21/20 Q1011;EQDQ01+000000PRSWM2
0139827950999992000010506004-07220-035880FM-15+0560SBKG V0201601N001012200019N0112651N1+02101+02001999999ADDGA1021+004509999GF102991999999999999999999MA1101081999999MW1001REMMET045SBKG 050600Z 16002KT 9999 FEW015 21/20 Q1011;EQDQ01+000000PRSWM2
0139827950999992000010507004-07220-035880FM-15+0560SBKG V0201701N002112200019N0112651N1+02101+02001999999ADDGA1021+004509999GF102991999999999999999999MA1101081999999MW1001REMMET045SBKG 050700Z 17004KT 9999 FEW015 21/20 Q1011;EQDQ01+000000PRSWM2
0162827950999992000010508004-07220-035880FM-15+0560SBKG V0201401N003110300019N0112651N1+02101+02101999999ADDGA1021+004509999GA2071+030009999GF107991999999999999999999MA1101191999999MW1001REMMET052SBKG 050800Z 14006KT 9999 SCT015 BKN100 21/21 Q1012;EQDQ01+000000PRSWM2
0139827950999992000010510004-07220-035880FM-15+0560SBKG V0201001N001510045019N0090001N1+02101+02101999999ADDGA1071+004509999GF107991999999999999999999MA1101291999999MW1001REMMET045SBKG 051000Z 10003KT 9000 BKN015 21/21 Q1013;EQDQ01+000000PRSWM2
0152827950999992000010511004-07220-035880FM-15+0560SBKG V0200901N00311220001CN0112651N1+02201+02101999999ADDGA1071+003909999GA2021+005409999MA1101291999999MW1001REMMET052SBKG 051100Z 09006KT 9999 BKN013 SCT018 22/21 Q1013;EQDQ01+000042SCOTCVQ02+000000PRSWM2
0201827950999992000010512004-07220-035880FM-12+0560SBKG V0201401N003610075019N0040001N1+02151+01991101141ADDAA124002091AY161061AY221061GF108991081071008001999999KA1240N+02081MA1999999094971MD1999999-0011MW1161REMSYN088AAXX  05124 82795 21596 81407 10215 20199 39497 40114 71662 887// 333 20208 59001 60024;
0162827950999992000010513004-07220-035880FM-15+0560SBKG V0201201N002610270019N0112651N1+02501+02001999999ADDGA1021+006009999GA2071+027009999GF107991999999999999999999MA1101391999999MW1001REMMET052SBKG 051300Z 12005KT 9999 SCT020 BKN090 25/20 Q1014;EQDQ01+000000PRSWM2
0162827950999992000010514004-07220-035880FM-15+0560SBKG V0200601N003110270019N0112651N1+02601+02101999999ADDGA1021+006609999GA2071+027009999GF107991999999999999999999MA1101391999999MW1001REMMET052SBKG 051400Z 06006KT 9999 SCT022 BKN090 26/21 Q1014;EQDQ01+000000PRSWM2
0162827950999992000010515004-07220-035880FM-15+0560SBKG V0200901N003110270019N0112651N1+02701+02101999999ADDGA1021+006609999GA2071+027009999GF107991999999999999999999MA1101291999999MW1001REMMET052SBKG 051500Z 09006KT 9999 SCT022 BKN090 27/21 Q1013;EQDQ01+000000PRSWM2
0162827950999992000010517004-07220-035880FM-15+0560SBKG V0201201N006210060019N0112651N1+02801+02101999999ADDGA1071+006009999GA2071+027009999GF107991999999999999999999MA1101191999999MW1001REMMET052SBKG 051700Z 12012KT 9999 BKN020 BKN090 28/21 Q1012;EQDQ01+000000PRSWM2
0182827950999992000010518004-07220-035880FM-12+0560SBKG V0201401N000510450019N0040001N1+02641+01901100891ADDAA106000191AY151061AY221061GF106991041081008001031001MA1999999094751MD1999999+0061MW1021REMSYN082AAXX  05184 82795 21596 61401 10264 20190 39475 40089 70252 84830 333 58006 69921;
0162827950999992000010519004-07220-035880FM-15+0560SBKG V0201201N006210270019N0112651N1+02601+01901999999ADDGA1021+006009999GA2071+027009999GF107991999999999999999999MA1101081999999MW1001REMMET052SBKG 051900Z 12012KT 9999 FEW020 BKN090 26/19 Q1011;EQDQ01+000000PRSWM2
0091827950999992000010521004-07220-035880FM-15+0560SBKG V0201201N00511220001CN0099001N1+02401+02001999999ADDMA1101191999999MW1001REMMET039SBKG 052100Z 12010KT CAVOK 24/20 Q1012;EQDQ01+000000PRSWM2
0139827950999992000010522004-07220-035880FM-15+0560SBKG V0201201N005112200019N0112651N1+02301+02001999999ADDGA1021+006009999GF102991999999999999999999MA1101191999999MW1001REMMET045SBKG 052200Z 12010KT 9999 FEW020 23/20 Q1012;EQDQ01+000000PRSWM2
0139827950999992000010601004-07220-035880FM-15+0560SBKG V0201201N004112200019N0112651N1+02201+02101999999ADDGA1021+003609999GF104991999999999999999999MA1101291999999MW1001REMMET045SBKG 060100Z 12008KT 9999 SCT012 22/21 Q1013;EQDQ01+000000PRSWM2
0162827950999992000010602004-07220-035880FM-15+0560SBKG V0201201N003112200019N0112651N1+02201+02101999999ADDGA1021+003009999GA2021+004509999GF104991999999999999999999MA1101291999999MW1001REMMET052SBKG 060200Z 12006KT 9999 FEW010 SCT015 22/21 Q1013;EQDQ01+000000PRSWM2
0162827950999992000010603004-07220-035880FM-15+0560SBKG V0201201N002612200019N0112651N1+02201+02101999999ADDGA1021+003009999GA2021+004509999GF104991999999999999999999MA1101291999999MW1001REMMET052SBKG 060300Z 12005KT 9999 FEW010 SCT015 22/21 Q1013;EQDQ01+000000PRSWM2
0162827950999992000010604004-07220-035880FM-15+0560SBKG V0201201N003612200019N0112651N1+02201+02101999999ADDGA1021+003009999GA2021+004509999GF104991999999999999999999MA1101191999999MW1001REMMET052SBKG 060400Z 12007KT 9999 FEW010 SCT015 22/21 Q1012;EQDQ01+000000PRSWM2
0162827950999992000010605004-07220-035880FM-15+0560SBKG V0201201N002612200019N0112651N1+02201+02001999999ADDGA1021+003009999GA2021+004509999GF104991999999999999999999MA1101191999999MW1001REMMET052SBKG 060500Z 12005KT 9999 FEW010 SCT015 22/20 Q1012;EQDQ01+000000PRSWM2
0162827950999992000010606004-07220-035880FM-15+0560SBKG V0201201N002112200019N0112651N1+02101+02101999999ADDGA1021+003009999GA2021+004509999GF104991999999999999999999MA1101191999999MW1001REMMET052SBKG 060600Z 12004KT 9999 FEW010 SCT015 21/21 Q1012;EQDQ01+000000PRSWM2
0162827950999992000010607004-07220-035880FM-15+0560SBKG V0209999C000012200019N0112651N1+02101+02101999999ADDGA1021+003009999GA2021+004509999GF104991999999999999999999MA1101191999999MW1001REMMET052SBKG 060700Z 00000KT 9999 FEW010 SCT015 21/21 Q1012;EQDQ01+000000PRSWM2
0139827950999992000010608004-07220-035880FM-15+0560SBKG V0201301N002112200019N0112651N1+02101+02101999999ADDGA1021+004509999GF104991999999999999999999MA1101191999999MW1001REMMET045SBKG 060800Z 13004KT 9999 SCT015 21/21 Q1012;EQDQ01+000000PRSWM2
0182827950999992000010609004-07220-035880FM-15+0560SBKG V0201201N002610900019N0112651N1+02101+02101999999ADDGA1021+004509999GA2071+090009999GF107991999999999999999999MA1101191999999MW1611REMMET056SBKG 060900Z 12005KT 9999 -RA SCT015 BKN300 21/21 Q1012;EQDQ01+000003PRSWM1Q02    003PRSWM1
0162827950999992000010610004-07220-035880FM-15+0560SBKG V0201301N003110900019N0112651N1+02201+02201999999ADDGA1021+004509999GA2071+090009999GF107991999999999999999999MA1101291999999MW1001REMMET052SBKG 061000Z 13006KT 9999 SCT015 BKN300 22/22 Q1013;EQDQ01+000000PRSWM2
0162827950999992000010611004-07220-035880FM-15+0560SBKG V0201201N003110900019N0112651N1+02401+02101999999ADDGA1021+006009999GA2071+090009999GF107991999999999999999999MA1101391999999MW1001REMMET052SBKG 061100Z 12006KT 9999 SCT020 BKN300 24/21 Q1014;EQDQ01+000000PRSWM2
0326827950999992000010612004-07220-035880SY-MT+0560SBKG V0201401N00311090001CN0100001N1+02381+02011101161ADDAA124000191AY151061AY221061GA1021+006009999GA2071+090009999GF107991051051008001071001KA1240N+02121MA1101391095001MD1999999+0021MW1021REMSYN088AAXX  06124 82795 21597 71406 10238 20201 39500 40116 70252 85570 333 20212 58002 69924;MET052SBKG 061200Z 09005KT 9999 SCT020 BKN300 24/21 Q1014;EQDQ01+000000PRSWM2Q02    003PRSWM1
0152827950999992000010613004-07220-035880FM-15+0560SBKG V0201201N00311220001CN0112651N1+02601+02101999999ADDGA1071+006009999GA2021+027009999MA1101391999999MW1001REMMET052SBKG 061300Z 12006KT 9999 BKN020 SCT090 26/21 Q1014;EQDQ01+000042SCOTCVQ02+000000PRSWM2
0162827950999992000010614004-07220-035880FM-15+0560SBKG V0201201N003612200019N0112651N1+02601+02101999999ADDGA1021+006009999GA2021+027009999GF104991999999999999999999MA1101391999999MW1001REMMET052SBKG 061400Z 12007KT 9999 SCT020 SCT090 26/21 Q1014;EQDQ01+000000PRSWM2
0165827950999992000010616004-07220-035880FM-15+0560SBKG V0201201N004112200019N0112651N1+03001+01901999999ADDGA1021+007509999GA2021+009009029GF102991999999999999999999MA1101191999999MW1001REMMET055SBKG 061600Z 12008KT 9999 SCT025 FEW030TCU 30/19 Q1012;EQDQ01+000000PRSWM2
0162827950999992000010619004-07220-035880FM-15+0560SBKG V0201301N005112200019N0112651N1+02701+02101999999ADDGA1021+004509999GA2021+006009999GF104991999999999999999999MA1101081999999MW1001REMMET052SBKG 061900Z 13010KT 9999 FEW015 SCT020 27/21 Q1011;EQDQ01+000000PRSWM2
0185827950999992000010621004-07220-035880FM-15+0560SBKG V0201201N004110045019N0112651N1+02401+02101999999ADDGA1021+003609999GA2071+004509999GA3071+090009999GF107991999999999999999999MA1101191999999MW1001REMMET059SBKG 062100Z 12008KT 9999 SCT012 BKN015 BKN300 24/21 Q1012;EQDQ01+000000PRSWM2
0164827950999992000010622004-07220-035880FM-15+0560SBKG V0201001N003112200019N0112651N1+02401+02101999999ADDGA1021+003009999GA2021+004509099GF102991999999999999999999MA1101291999999MW1001REMMET054SBKG 062200Z 10006KT 9999 SCT010 FEW015CB 24/21 Q1013;EQDQ01+000000PRSWM2
0139827950999992000010623004-07220-035880FM-15+0560SBKG V0201201N005112200019N0112651N1+02401+02101999999ADDGA1021+003009999GF104991999999999999999999MA1101291999999MW1001REMMET045SBKG 062300Z 12010KT 9999 SCT010 24/21 Q1013;EQDQ01+000000PRSWM2
0275827950999992000010700004-07220-035880SY-MT+0560SBKG V0201401N003610075019N0100001N1+02211+02081101181ADDAA106000091GA1021+003009999GF106991061071008001001001KA1240M+02931MA1101391095021MD1999999+0021MW1001REMSYN076AAXX  07004 82795 32597 61407 10221 20208 39502 40118 86700 333 10293 58002;MET045SBKG 070000Z 12008KT 9999 SCT010 23/22 Q1014;EQDQ01+000000PRSWM2Q02  00002PRCP06
0182827950999992000010701004-07220-035880FM-15+0560SBKG V0201201N003110030019N0080001N1+02301+02201999999ADDGA1021+002409999GA2071+003009999GF107991999999999999999999MA1101391999999MW1611REMMET056SBKG 070100Z 12006KT 8000 -RA SCT008 BKN010 23/22 Q1014;EQDQ01+000003PRSWM1Q02    003PRSWM1
0191827950999992000010702004-07220-035880FM-15+0560SBKG V0201001N004110030019N0080001N1+02301+02201999999ADDGA1021+002409999GA2071+003009999GF107991999999999999999999MA1101391999999MW1101MW2611REMMET059SBKG 070200Z 10008KT 8000 -RA BR SCT008 BKN010 23/22 Q1014;EQDQ01+000003PRSWM1Q02    003PRSWM1
0162827950999992000010703004-07220-035880FM-15+0560SBKG V0201301N003610030019N0080001N1+02201+02201999999ADDGA1021+002409999GA2071+003009999GF107991999999999999999999MA1101291999999MW1001REMMET052SBKG 070300Z 13007KT 8000 SCT008 BKN010 22/22 Q1013;EQDQ01+000000PRSWM2
0162827950999992000010704004-07220-035880FM-15+0560SBKG V0201501N004112200019N0112651N1+02201+02101999999ADDGA1021+003009999GA2021+004509999GF104991999999999999999999MA1101291999999MW1001REMMET052SBKG 070400Z 15008KT 9999 FEW010 SCT015 22/21 Q1013;EQDQ01+000000PRSWM2
0159827950999992000010705004-07220-035880FM-15+0560SBKG V0201501N003112200019N0112651N1+02101+02101999999ADDGA1021+004509999GF104991999999999999999999MA1101191999999MW1611REMMET049SBKG 070500Z 15006KT 9999 -RA SCT015 21/21 Q1012;EQDQ01+000003PRSWM1Q02    003PRSWM1
0159827950999992000010706004-07220-035880FM-15+0560SBKG V0201201N003112200019N0112651N1+02101+02101999999ADDGA1021+004509999GF104991999999999999999999MA1101191999999MW1611REMMET049SBKG 070600Z 12006KT 9999 -RA SCT015 21/21 Q1012;EQDQ01+000003PRSWM1Q02    003PRSWM1
0139827950999992000010707004-07220-035880FM-15+0560SBKG V0201001N002112200019N0112651N1+02101+02101999999ADDGA1021+004509999GF104991999999999999999999MA1101191999999MW1001REMMET045SBKG 070700Z 10004KT 9999 SCT015 21/21 Q1012;EQDQ01+000000PRSWM2
0139827950999992000010708004-07220-035880FM-15+0560SBKG V0201201N002112200019N0112651N1+02101+02101999999ADDGA1021+003009999GF104991999999999999999999MA1101191999999MW1001REMMET045SBKG 070800Z 12004KT 9999 SCT010 21/21 Q1012;EQDQ01+000000PRSWM2
0162827950999992000010709004-07220-035880FM-15+0560SBKG V0201501N002612200019N0090001N1+02201+02101999999ADDGA1021+003009999GA2021+004509999GF104991999999999999999999MA1101191999999MW1001REMMET052SBKG 070900Z 15005KT 9000 SCT010 SCT015 22/21 Q1012;EQDQ01+000000PRSWM2
0185827950999992000010710004-07220-035880FM-15+0560SBKG V0201201N002610600019N0112651N1+02301+02101999999ADDGA1021+003009999GA2021+004509999GA3071+060009999GF107991999999999999999999MA1101291999999MW1001REMMET059SBKG 071000Z 12005KT 9999 FEW010 SCT015 BKN200 23/21 Q1013;EQDQ01+000000PRSWM2
0162827950999992000010711004-07220-035880FM-15+0560SBKG V0201201N003110450019N0112651N1+02401+02101999999ADDGA1021+004509999GA2071+045009999GF107991999999999999999999MA1101391999999MW1001REMMET052SBKG 071100Z 12006KT 9999 SCT015 BKN150 24/21 Q1014;EQDQ01+000000PRSWM2
0320827950999992000010712004-07220-035880SY-MT+0560SBKG V0200901N00211004501CN0040001N1+02311+02111101161ADDAA124002091AY151061AY221061GA1021+003609999GA2071+004509999GF108991061071008001001999KA1240N+02071MA1101391095001MD1999999+0001MW1141MW2611REMSYN088AAXX  07124 82795 21596 80904 10231 20211 39500 40116 71452 8670/ 333 20207 58000 60024;MET056SBKG 071200Z 12008KT 8000 -RA SCT012 BKN015 26/22 Q1014;EQDQ01    003PRSWM1
0139827950999992000010713004-07220-035880FM-15+0560SBKG V0201201N005112200019N0112651N1+02601+02101999999ADDGA1021+004809999GF104991999999999999999999MA1101391999999MW1001REMMET045SBKG 071300Z 12010KT 9999 SCT016 26/21 Q1014;EQDQ01+000000PRSWM2
0139827950999992000010714004-07220-035880FM-15+0560SBKG V0201301N005110060019N0112651N1+02801+02001999999ADDGA1071+006009999GF107991999999999999999999MA1101291999999MW1001REMMET045SBKG 071400Z 13010KT 9999 BKN020 28/20 Q1013;EQDQ01+000000PRSWM2
0139827950999992000010715004-07220-035880FM-15+0560SBKG V0201301N005110060019N0112651N1+02801+01901999999ADDGA1071+006009999GF107991999999999999999999MA1101291999999MW1001REMMET045SBKG 071500Z 13010KT 9999 BKN020 28/19 Q1013;EQDQ01+000000PRSWM2
0162827950999992000010717004-07220-035880FM-15+0560SBKG V0201201N003110060019N0112651N1+02601+02101999999ADDGA1021+004509999GA2071+006009999GF107991999999999999999999MA1101081999999MW1001REMMET052SBKG 071700Z 12006KT 9999 FEW015 BKN020 26/21 Q1011;EQDQ01+000000PRSWM2
0148827950999992000010718004-07220-035880FM-12+0560SBKG V0201401N005110450019N0100001N1+02761+01991100881ADDAA106000021GF106991031091008001041001MA1999999094751MD1999999-0041REMSYN070AAXX  07184 82795 32597 61410 10276 20199 39475 40088 83940 333 59004;
0162827950999992000010719004-07220-035880FM-15+0560SBKG V0201201N004110060019N0112651N1+02601+02101999999ADDGA1021+004509999GA2071+006009999GF107991999999999999999999MA1101021999999MW1001REMMET052SBKG 071900Z 12008KT 9999 FEW015 BKN020 26/21 Q1010;EQDQ01+000000PRSWM2
0162827950999992000010721004-07220-035880FM-15+0560SBKG V0201201N004110300019N0112651N1+02401+02101999999ADDGA1021+006009999GA2071+030009999GF107991999999999999999999MA1101081999999MW1001REMMET052SBKG 072100Z 12008KT 9999 SCT020 BKN100 24/21 Q1011;EQDQ01+000000PRSWM2
0162827950999992000010722004-07220-035880FM-15+0560SBKG V0201201N005110300019N0112651N1+02401+02101999999ADDGA1021+006009999GA2071+030009999GF107991999999999999999999MA1101081999999MW1001REMMET052SBKG 072200Z 12010KT 9999 SCT020 BKN100 24/21 Q1011;EQDQ01+000000PRSWM2
0162827950999992000010723004-07220-035880FM-15+0560SBKG V0200901N004112200019N0112651N1+02301+02001999999ADDGA1021+006009999GA2021+030009999GF104991999999999999999999MA1101191999999MW1001REMMET052SBKG 072300Z 09008KT 9999 FEW020 SCT100 23/20 Q1012;EQDQ01+000000PRSWM2
0291827950999992000010800004-07220-035880SY-MT+0560SBKG V0201401N004110075019N0100001N1+02231+02061100971ADDAA106000091GA1021+004509999GF107991999021008001001001KA1240M+02831MA1101191094821MD1999999-0021MW1001REMSYN076AAXX  08004 82795 32597 71408 10223 20206 39482 40097 85200 333 10283 59002;MET045SBKG 080000Z 10008KT 9999 SCT015 23/20 Q1012;EQDQ01+000052SCOTLCQ02+000000PRSWM2Q03  00002PRCP06
0139827950999992000010801004-07220-035880FM-15+0560SBKG V0201001N004110045019N0112651N1+02301+02101999999ADDGA1071+004509999GF107991999999999999999999MA1101291999999MW1001REMMET045SBKG 080100Z 10008KT 9999 BKN015 23/21 Q1013;EQDQ01+000000PRSWM2
0139827950999992000010802004-07220-035880FM-15+0560SBKG V0201001N003110045019N0112651N1+02301+02101999999ADDGA1071+004509999GF107991999999999999999999MA1101191999999MW1001REMMET045SBKG 080200Z 10006KT 9999 BKN015 23/21 Q1012;EQDQ01+000000PRSWM2
0139827950999992000010803004-07220-035880FM-15+0560SBKG V0201201N003112200019N0112651N1+02301+02101999999ADDGA1021+004509999GF104991999999999999999999MA1101191999999MW1001REMMET045SBKG 080300Z 12006KT 9999 SCT015 23/21 Q1012;EQDQ01+000000PRSWM2
0139827950999992000010804004-07220-035880FM-15+0560SBKG V0201301N003112200019N0112651N1+02201+02101999999ADDGA1021+003609999GF104991999999999999999999MA1101081999999MW1001REMMET045SBKG 080400Z 13006KT 9999 SCT012 22/21 Q1011;EQDQ01+000000PRSWM2
0139827950999992000010806004-07220-035880FM-15+0560SBKG V0201201N003112200019N0112651N1+02201+02201999999ADDGA1021+002409999GF104991999999999999999999MA1101081999999MW1001REMMET045SBKG 080600Z 12006KT 9999 SCT008 22/22 Q1011;EQDQ01+000000PRSWM2
0139827950999992000010807004-07220-035880FM-15+0560SBKG V0201301N001510021019N0112651N1+02201+02201999999ADDGA1071+002109999GF107991999999999999999999MA1101081999999MW1001REMMET045SBKG 080700Z 13003KT 9999 BKN007 22/22 Q1011;EQDQ01+000000PRSWM2
0183827950999992000010808004-07220-035880FM-15+0560SBKG V0201201N003110036019N0080001N1+02201+02201999999ADDGA1021+002109999GA2071+003609999GF107991999999999999999999MA1101081999999MW1161REMMET057SBKG 080800Z 12006KT 8000 VCSH SCT007 BKN012 22/22 Q1011;EQDQ01+000003PRSWM1Q02    003PRSWM1
0161827950999992000010809004-07220-035880FM-16+0560SBKG V0201201N004110036019N0112651N1+99999+99999999999ADDGA1021+002409999GA2071+003609999GF107991999999999999999999MA1101191999999MW1001REMMET051SBKG 080900Z 12008KT 9999 SCT008 BKN012 2/22 Q1012;EQDQ01+000000PRSWM2
0162827950999992000010810004-07220-035880FM-15+0560SBKG V0201201N003110045019N0112651N1+02301+02101999999ADDGA1021+003009999GA2071+004509999GF107991999999999999999999MA1101191999999MW1001REMMET052SBKG 081000Z 12006KT 9999 FEW010 BKN015 23/21 Q1012;EQDQ01+000000PRSWM2
0161827950999992000010811004-07220-035880FM-15+0560SBKG V0201501N003110060019N0112651N1+02401+02101999999ADDGA1021+004509999GA2071+006009999GF107991999999999999999999MA1101291999999MW1001REMMET051SBKG 081100Z 15006KT 9999 FEW015 BKN20 24/21 Q1013;EQDQ01+000000PRSWM2
0336827950999992000010812004-07220-035880SY-MT+0560SBKG V0201401N003110060019N0040001N1+02331+02131101141ADDAA124000891AY151061AY221061GA1021+004509999GA2071+006009999GF107991051051008001021001KA1240M+99999MA1101391094981MD1999999-0021MW1021MW2611REMSYN088AAXX  08124 82795 21596 71406 10233 20213 39498 40114 70252 85520 333 10215 59002 69984;MET056SBKG 081200Z 13008KT 8000 -RA SCT015 BKN020 25/21 Q1014;EQDQ01    003PRSWM1Q02 +02152ATMX  
0182827950999992000010813004-07220-035880FM-15+0560SBKG V0201201N005110060019N0080001N1+02501+02101999999ADDGA1021+004509999GA2071+006009999GF107991999999999999999999MA1101391999999MW1611REMMET056SBKG 081300Z 12010KT 8000 -RA SCT015 BKN020 25/21 Q1014;EQDQ01+000003PRSWM1Q02    003PRSWM1
0182827950999992000010814004-07220-035880FM-15+0560SBKG V0201201N005110060019N0080001N1+02601+02001999999ADDGA1021+004509999GA2071+006009999GF107991999999999999999999MA1101291999999MW1611REMMET056SBKG 081400Z 12010KT 8000 -RA SCT015 BKN020 26/20 Q1013;EQDQ01+000003PRSWM1Q02    003PRSWM1
0139827950999992000010816004-07220-035880FM-15+0560SBKG V0201001N006210060019N0112651N1+02701+02001999999ADDGA1071+006009999GF107991999999999999999999MA1101191999999MW1001REMMET045SBKG 081600Z 10012KT 9999 BKN020 27/20 Q1012;EQDQ01+000000PRSWM2
0182827950999992000010817004-07220-035880FM-15+0560SBKG V0201001N004110060019N0060001N1+02501+02101999999ADDGA1021+004509999GA2071+006009999GF107991999999999999999999MA1101191999999MW1611REMMET056SBKG 081700Z 10008KT 6000 -RA SCT015 BKN020 25/21 Q1012;EQDQ01+000003PRSWM1Q02    003PRSWM1
0307827950999992000010818004-07220-035880SY-MT+0560SBKG V0201401N004610900019N0100001N1+02411+02091100841ADDAA106000891AY151061AY221061GA1021+006009999GA2071+090009999GF108991081071008001999999MA1101081094701MD1999999-0051MW1021REMSYN082AAXX  08184 82795 21597 81409 10241 20209 39470 40084 70252 887// 333 59005 69971;MET052SBKG 081800Z 10008KT 9999 SCT020 BKN300 25/21 Q1011;EQDQ01+000000PRSWM2Q02    003PRSWM1
0162827950999992000010819004-07220-035880FM-15+0560SBKG V0201201N003110900019N0112651N1+02501+02101999999ADDGA1021+006009999GA2071+090009999GF107991999999999999999999MA1101021999999MW1001REMMET052SBKG 081900Z 12006KT 9999 SCT020 BKN300 25/21 Q1010;EQDQ01+000000PRSWM2
0185827950999992000010821004-07220-035880FM-15+0560SBKG V0201101N003612200019N0112651N1+02301+02201999999ADDGA1021+004509999GA2021+006009029GF104991999999999999999999MA1101081999999MW1611REMMET059SBKG 082100Z 11007KT 9999 -RA SCT015 SCT020TCU 23/22 Q1011;EQDQ01+000003PRSWM1Q02    003PRSWM1
0208827950999992000010822004-07220-035880FM-15+0560SBKG V0201301N003610240019N0112651N1+02301+02201999999ADDGA1021+003609999GA2021+006009029GA3071+024009999GF107991999999999999999999MA1101191999999MW1611REMMET066SBKG 082200Z 13007KT 9999 -RA SCT012 SCT020TCU BKN080 23/22 Q1012;EQDQ01+000003PRSWM1Q02    003PRSWM1
0186827950999992000010823004-07220-035880FM-15+0560SBKG V0201301N002110060019N0050001N1+02201+02201999999ADDGA1021+003009999GA2071+006009029GF107991999999999999999999MA1101191999999MW1811REMMET060SBKG 082300Z 13004KT 5000 SHRA SCT010 BKN020TCU 22/22 Q1012;EQDQ01+000003PRSWM1Q02    003PRSWM1
0353827950999992000010900004-07220-035880SY-MT+0560SBKG V0201401N00361024001CN0020001N1+02151+02091101041ADDAA106002091AY161061AY221061GA1021+003609999GA2021+006009029GA3081+024009999GF108991051071008001011001KA1240M+02701MA1101291094971MD1999999+0151MW1021MW2611REMSYN088AAXX  09004 82795 21595 81407 10215 20209 39497 40104 70262 85710 333 10270 58015 60021;MET073SBKG 090000Z 14007KT 9999 -RA SCT012 FEW020TCU OVC080 22/22 Q1013 RESHRA;EQDQ01    003PRSWM1
0162827950999992000010901004-07220-035880FM-15+0560SBKG V0201301N003610240019N0112651N1+02201+02201999999ADDGA1021+003009999GA2081+024009999GF108991999999999999999999MA1101391999999MW1001REMMET052SBKG 090100Z 13007KT 9999 SCT010 OVC080 22/22 Q1014;EQDQ01+000000PRSWM2
0185827950999992000010902004-07220-035880FM-15+0560SBKG V0201601N001510240019N0112651N1+02201+02201999999ADDGA1021+002109999GA2021+003009999GA3081+024009999GF108991999999999999999999MA1101291999999MW1001REMMET059SBKG 090200Z 16003KT 9999 FEW007 SCT010 OVC080 22/22 Q1013;EQDQ01+000000PRSWM2
0205827950999992000010903004-07220-035880FM-15+0560SBKG V0201501N004110030019N0080001N1+02201+02101999999ADDGA1021+002109999GA2071+003009999GA3081+024009999GF108991999999999999999999MA1101291999999MW1611REMMET063SBKG 090300Z 15008KT 8000 -RA SCT007 BKN010 OVC080 22/21 Q1013;EQDQ01+000003PRSWM1Q02    003PRSWM1
0214827950999992000010904004-07220-035880FM-15+0560SBKG V0201501N003110030019N0080001N1+02201+02101999999ADDGA1021+002109999GA2071+003009999GA3081+024009999GF108991999999999999999999MA1101291999999MW1101MW2611REMMET066SBKG 090400Z 15006KT 8000 -RA BR FEW007 BKN010 OVC080 22/21 Q1013;EQDQ01+000003PRSWM1Q02    003PRSWM1
0213827950999992000010905004-07220-035880FM-15+0560SBKG V0201301N004110030019N0050001N1+02201+02101999999ADDGA1021+002109999GA2071+003009999GA3081+024009999GF108991999999999999999999MA1101191999999MW1101MW2631REMMET065SBKG 090500Z 13008KT 5000 RA BR SCT007 BKN010 OVC080 22/21 Q1012;EQDQ01+000003PRSWM1Q02    003PRSWM1
0213827950999992000010907004-07220-035880FM-15+0560SBKG V0200701N002110030019N0050001N1+02101+02101999999ADDGA1071+003009999GA2021+005109999GA3081+024009999GF108991999999999999999999MA1101191999999MW1101MW2631REMMET065SBKG 090700Z 07004KT 5000 RA BR SCT017 BKN010 OVC080 21/21 Q1012;EQDQ01+000003PRSWM1Q02    003PRSWM1
0204827950999992000010908004-07220-035880FM-15+0560SBKG V0201201N001010030019N0050001N1+02101+02101999999ADDGA1021+002109999GA2071+003009999GA3081+024009999GF108991999999999999999999MA1101291999999MW1101REMMET062SBKG 090800Z 12002KT 5000 BR SCT007 BKN010 OVC080 21/21 Q1013;EQDQ01+000003PRSWM1Q02    003PRSWM1
0162827950999992000010910004-07220-035880FM-15+0560SBKG V0201401N004110300019N0112651N1+02201+02101999999ADDGA1021+004509999GA2071+030009999GF107991999999999999999999MA1101391999999MW1001REMMET052SBKG 091000Z 14008KT 9999 SCT015 BKN100 22/21 Q1014;EQDQ01+000000PRSWM2
0185827950999992000010911004-07220-035880FM-15+0560SBKG V0201601N003110300019N0112651N1+02401+02101999999ADDGA1021+004509999GA2021+006009999GA3071+030009999GF107991999999999999999999MA1101391999999MW1001REMMET059SBKG 091100Z 16006KT 9999 SCT015 SCT020 BKN100 24/21 Q1014;EQDQ01+000000PRSWM2
0304827950999992000010912004-07220-035880SY-MT+0560SBKG V0201401N004610060019N0100001N1+02351+02171101211ADDAA124038191GA1071+006009999GA2071+030009999GF199999041021008001001001KA1240N+02031MA1101491095041MD1999999+0061MW1001REMSYN082AAXX  09124 82795 22597 61409 10235 20217 39504 40121 84200 333 20203 58006 60384;MET052SBKG 091200Z 10010KT 9999 BKN020 BKN100 25/21 Q1015;EQDQ01+000062SCOTCVQ02+000000PRSWM2
0162827950999992000010913004-07220-035880FM-15+0560SBKG V0201801N003110060019N0112651N1+02501+02101999999ADDGA1071+006009999GA2071+030009999GF107991999999999999999999MA1101391999999MW1001REMMET052SBKG 091300Z 18006KT 9999 BKN020 BKN100 25/21 Q1014;EQDQ01+000000PRSWM2
0165827950999992000010916004-07220-035880FM-15+0560SBKG V0201001N003112200019N0112651N1+02901+01901999999ADDGA1021+007509999GA2021+009009029GF102991999999999999999999MA1101291999999MW1001REMMET055SBKG 091600Z 10006KT 9999 SCT025 FEW030TCU 29/19 Q1013;EQDQ01+000000PRSWM2
0188827950999992000010917004-07220-035880FM-15+0560SBKG V0201201N006212200019N0112651N1+02601+02301999999ADDGA1021+004509999GA2021+007509999GA3021+009009029GF104991999999999999999999MA1101191999999MW1001REMMET062SBKG 091700Z 12012KT 9999 SCT015 SCT025 SCT030TCU 26/23 Q1012;EQDQ01+000000PRSWM2
0298827950999992000010918004-07220-035880SY-MT+0560SBKG V0201401N004612200019N0100001N1+02531+02091100901ADDAA106000091GA1021+007509999GA2021+009009029GF106991999021008001001001MA1101191094761MD1999999+0061MW1001REMSYN070AAXX  09184 82795 32597 61409 10253 20209 39476 40090 83200 333 58006;MET055SBKG 091800Z 13010KT 9999 FEW025 FEW030TCU 26/22 Q1012;EQDQ01+000000PRSWM2Q02+000032SCOTLCQ03  00002PRCP06
0139827950999992000010919004-07220-035880FM-15+0560SBKG V0201201N004112200019N0112651N1+02501+02201999999ADDGA1021+006009999GF102991999999999999999999MA1101191999999MW1001REMMET045SBKG 091900Z 12008KT 9999 FEW020 25/22 Q1012;EQDQ01+000000PRSWM2
0139827950999992000010920004-07220-035880FM-15+0560SBKG V0201201N004112200019N0112651N1+02501+02201999999ADDGA1021+004509999GF102991999999999999999999MA1101191999999MW1001REMMET045SBKG 092000Z 12008KT 9999 FEW015 25/22 Q1012;EQDQ01+000000PRSWM2
0162827950999992000010921004-07220-035880FM-15+0560SBKG V0201201N003112200019N0112651N1+02401+02101999999ADDGA1021+004509999GA2021+090009999GF104991999999999999999999MA1101291999999MW1001REMMET052SBKG 092100Z 12006KT 9999 SCT015 SCT300 24/21 Q1013;EQDQ01+000000PRSWM2
0182827950999992000010922004-07220-035880FM-15+0560SBKG V0201101N003610045019N0112651N1+02201+02101999999ADDGA1021+002109999GA2071+004509999GF107991999999999999999999MA1101291999999MW1611REMMET056SBKG 092200Z 11007KT 9999 -RA FEW007 BKN015 22/21 Q1013;EQDQ01+000003PRSWM1Q02    003PRSWM1
0182827950999992000010923004-07220-035880FM-15+0560SBKG V0201301N004110045019N0080001N1+02201+02001999999ADDGA1021+002109999GA2071+004509999GF107991999999999999999999MA1101491999999MW1651REMMET056SBKG 092300Z 13008KT 8000 +RA SCT007 BKN015 22/20 Q1015;EQDQ01+000003PRSWM1Q02    003PRSWM1
0326827950999992000011000004-07220-035880SY-MT+0560SBKG V0201401N00361004501CN0100001N1+02201+02171101261ADDAA106022191AY161061AY221061GA1021+002109999GA2071+004509999GF108991081051008001999999KA1240M+02841MA1101491095121MD1999999+0151MW1211REMSYN088AAXX  10004 82795 21597 81407 10220 20217 39512 40126 72162 885// 333 10284 58015 60221;MET052SBKG 100000Z 12004KT 8000 SCT007 BKN015 22/22 Q1015;EQDQ01+000000PRSWM2Q02    003PRSWM1
0181827950999992000011001004-07220-035880FM-15+0560SBKG V0201201N003110045019N0050001N1+02201+02201999999ADDGA1021+002109999GA2071+004509999GF107991999999999999999999MA1101491999999MW1101REMMET055SBKG 100100Z 12006KT 5000 BR SCT007 BKN015 22/22 Q1015;EQDQ01+000003PRSWM1Q02    003PRSWM1
0181827950999992000011002004-07220-035880FM-15+0560SBKG V0201301N002110045019N0050001N1+02201+02201999999ADDGA1021+001509999GA2071+004509999GF107991999999999999999999MA1101491999999MW1101REMMET055SBKG 100200Z 13004KT 5000 BR SCT005 BKN015 22/22 Q1015;EQDQ01+000003PRSWM1Q02    003PRSWM1
0181827950999992000011003004-07220-035880FM-15+0560SBKG V0201201N003110045019N0050001N1+02201+02101999999ADDGA1021+001509999GA2071+004509999GF107991999999999999999999MA1101391999999MW1101REMMET055SBKG 100300Z 12006KT 5000 BR SCT005 BKN015 22/21 Q1014;EQDQ01+000003PRSWM1Q02    003PRSWM1
0162827950999992000011004004-07220-035880FM-15+0560SBKG V0201001N002110045019N0060001N1+02201+02101999999ADDGA1021+001809999GA2071+004509999GF107991999999999999999999MA1101391999999MW1001REMMET052SBKG 100400Z 10004KT 6000 SCT006 BKN015 22/21 Q1014;EQDQ01+000000PRSWM2
0139827950999992000011005004-07220-035880FM-15+0560SBKG V0201201N003112200019N0112651N1+02201+02101999999ADDGA1021+004509999GF104991999999999999999999MA1101391999999MW1001REMMET045SBKG 100500Z 12006KT 9999 SCT015 22/21 Q1014;EQDQ01+000000PRSWM2
0139827950999992000011006004-07220-035880FM-15+0560SBKG V0201001N003112200019N0112651N1+02101+02001999999ADDGA1021+004509999GF104991999999999999999999MA1101291999999MW1001REMMET045SBKG 100600Z 10006KT 9999 SCT015 21/20 Q1013;EQDQ01+000000PRSWM2
0162827950999992000011007004-07220-035880FM-15+0560SBKG V0201001N002110210019N0112651N1+02101+02001999999ADDGA1021+004509999GA2071+021009999GF107991999999999999999999MA1101191999999MW1001REMMET052SBKG 100700Z 10004KT 9999 SCT015 BKN070 21/20 Q1012;EQDQ01+000000PRSWM2
0162827950999992000011008004-07220-035880FM-15+0560SBKG V0201401N003110210019N0112651N1+02101+02001999999ADDGA1021+004509999GA2071+021009999GF107991999999999999999999MA1101291999999MW1001REMMET052SBKG 100800Z 14006KT 9999 SCT015 BKN070 21/20 Q1013;EQDQ01+000000PRSWM2
0162827950999992000011009004-07220-035880FM-15+0560SBKG V0201401N002112200019N0112651N1+02201+02001999999ADDGA1021+004509999GA2021+024009999GF104991999999999999999999MA1101291999999MW1001REMMET052SBKG 100900Z 14004KT 9999 FEW015 SCT080 22/20 Q1013;EQDQ01+000000PRSWM2
0162827950999992000011010004-07220-035880FM-15+0560SBKG V0201401N002612200019N0112651N1+02201+02101999999ADDGA1021+003609999GA2021+024009999GF104991999999999999999999MA1101391999999MW1001REMMET052SBKG 101000Z 14005KT 9999 FEW012 SCT080 22/21 Q1014;EQDQ01+000000PRSWM2
0298827950999992000011012004-07220-035880SY-MT+0560SBKG V0201401N00311006601CN0100001N1+02391+02031101161ADDAA124022191AY161061AY221061GA1071+006609999GF108991081071008001999999KA1240N+02091MA1101391094981MD1999999-0061MW1021MW2161REMSYN088AAXX  10124 82795 21597 81406 10239 20203 39498 40116 70262 887// 333 20209 59006 60224;MET050SBKG 101200Z 15005KT 8000 VCSH BKN022 22/21 Q1014;EQDQ01    003PRSWM1
0139827950999992000011013004-07220-035880FM-15+0560SBKG V0201401N003612200019N0112651N1+02401+02101999999ADDGA1021+006609999GF104991999999999999999999MA1101391999999MW1001REMMET045SBKG 101300Z 14007KT 9999 SCT022 24/21 Q1014;EQDQ01+000000PRSWM2
0139827950999992000011014004-07220-035880FM-15+0560SBKG V0201301N001010066019N0112651N1+02501+02101999999ADDGA1071+006609999GF107991999999999999999999MA1101391999999MW1001REMMET045SBKG 101400Z 13002KT 9999 BKN022 25/21 Q1014;EQDQ01+000000PRSWM2
0139827950999992000011015004-07220-035880FM-15+0560SBKG V0201201N003112200019N0112651N1+02501+02101999999ADDGA1021+006009999GF104991999999999999999999MA1101291999999MW1001REMMET045SBKG 101500Z 12006KT 9999 SCT020 25/21 Q1013;EQDQ01+000000PRSWM2
0162827950999992000011016004-07220-035880FM-15+0560SBKG V0201501N002112200019N0112651N1+02701+02001999999ADDGA1021+006009999GA2021+024009999GF104991999999999999999999MA1101291999999MW1001REMMET052SBKG 101600Z 15004KT 9999 SCT020 SCT080 27/20 Q1013;EQDQ01+000000PRSWM2
0162827950999992000011017004-07220-035880FM-15+0560SBKG V0201501N003112200019N0112651N1+02901+01901999999ADDGA1021+006009999GA2021+024009999GF104991999999999999999999MA1101191999999MW1001REMMET052SBKG 101700Z 15006KT 9999 SCT020 SCT080 29/19 Q1012;EQDQ01+000000PRSWM2
0284827950999992000011018004-07220-035880SY-MT+0560SBKG V0201401N002612200019N0100001N1+02821+01801100891ADDAA106000391AY151061AY221061GA1021+006009999GF105991051031008001001001MA1101081094771MD1999999+0011MW1021REMSYN082AAXX  10184 82795 21597 51405 10282 20180 39477 40089 70252 85300 333 58001 69931;MET045SBKG 101800Z 15005KT 9999 SCT020 29/17 Q1011;EQDQ01+000000PRSWM2Q02    003PRSWM1
0139827950999992000011019004-07220-035880FM-15+0560SBKG V0201501N003112200019N0112651N1+02901+01601999999ADDGA1021+006009999GF104991999999999999999999MA1101081999999MW1001REMMET045SBKG 101900Z 15006KT 9999 SCT020 29/16 Q1011;EQDQ01+000000PRSWM2
0139827950999992000011020004-07220-035880FM-15+0560SBKG V0201501N003112200019N0112651N1+02901+01601999999ADDGA1021+006009999GF104991999999999999999999MA1101081999999MW1001REMMET045SBKG 102000Z 15006KT 9999 SCT020 29/16 Q1011;EQDQ01+000000PRSWM2
0139827950999992000011021004-07220-035880FM-15+0560SBKG V0201201N004112200019N0112651N1+02701+02001999999ADDGA1021+006009999GF104991999999999999999999MA1101081999999MW1001REMMET045SBKG 102100Z 12008KT 9999 SCT020 27/20 Q1011;EQDQ01+000000PRSWM2
0139827950999992000011022004-07220-035880FM-15+0560SBKG V0201201N003112200019N0112651N1+02501+01901999999ADDGA1021+006009999GF102991999999999999999999MA1101191999999MW1001REMMET045SBKG 102200Z 12006KT 9999 FEW020 25/19 Q1012;EQDQ01+000000PRSWM2
0091827950999992000011023004-07220-035880FM-15+0560SBKG V0201301N00511220001CN0099001N1+02401+01901999999ADDMA1101291999999MW1001REMMET039SBKG 102300Z 13010KT CAVOK 24/19 Q1013;EQDQ01+000000PRSWM2
0247827950999992000011100004-07220-035880SY-MT+0560SBKG V0201401N002112200019N0100001N1+02231+01861101111ADDAA106000091GF100991001001999999001001KA1240M+02881MA1101391094951MD1999999-0161MW1001REMSYN070AAXX  11004 82795 32997 01404 10223 20186 39495 40111 333 10288 59016;MET039SBKG 110000Z 13008KT CAVOK 23/20 Q1014;EQDQ01+000000PRSWM2Q02  00002PRCP06
0091827950999992000011101004-07220-035880FM-15+0560SBKG V0201201N00311220001CN0099001N1+02301+01801999999ADDMA1101391999999MW1001REMMET039SBKG 110100Z 12006KT CAVOK 23/18 Q1014;EQDQ01+000000PRSWM2
0091827950999992000011102004-07220-035880FM-15+0560SBKG V0201201N00311220001CN0099001N1+02201+01901999999ADDMA1101391999999MW1001REMMET039SBKG 110200Z 12006KT CAVOK 22/19 Q1014;EQDQ01+000000PRSWM2
0091827950999992000011103004-07220-035880FM-15+0560SBKG V0201201N00211220001CN0099001N1+02101+01801999999ADDMA1101291999999MW1001REMMET039SBKG 110300Z 12004KT CAVOK 21/18 Q1013;EQDQ01+000000PRSWM2
0091827950999992000011104004-07220-035880FM-15+0560SBKG V0201501N00261220001CN0099001N1+02101+01801999999ADDMA1101291999999MW1001REMMET039SBKG 110400Z 15005KT CAVOK 21/18 Q1013;EQDQ01+000000PRSWM2
0091827950999992000011105004-07220-035880FM-15+0560SBKG V0201101N00261220001CN0099001N1+02001+01901999999ADDMA1101291999999MW1001REMMET039SBKG 110500Z 11005KT CAVOK 20/19 Q1013;EQDQ01+000000PRSWM2
0091827950999992000011107004-07220-035880FM-15+0560SBKG V0209999C00001220001CN0099001N1+01901+01801999999ADDMA1101291999999MW1001REMMET039SBKG 110700Z 00000KT CAVOK 19/18 Q1013;EQDQ01+000000PRSWM2
0091827950999992000011108004-07220-035880FM-15+0560SBKG V0209999C00001220001CN0099001N1+01901+01801999999ADDMA1101291999999MW1001REMMET039SBKG 110800Z 00000KT CAVOK 19/18 Q1013;EQDQ01+000000PRSWM2
0091827950999992000011109004-07220-035880FM-15+0560SBKG V0201401N00101220001CN0099001N1+02001+01901999999ADDMA1101291999999MW1001REMMET039SBKG 110900Z 14002KT CAVOK 20/19 Q1013;EQDQ01+000000PRSWM2
0162827950999992000011111004-07220-035880FM-15+0560SBKG V0201801N004112200019N0112651N1+02301+01901999999ADDGA1021+006009999GA2021+024009999GF104991999999999999999999MA1101391999999MW1001REMMET052SBKG 111100Z 18008KT 9999 SCT020 SCT080 23/19 Q1014;EQDQ01+000000PRSWM2
0265827950999992000011112004-07220-035880SY-MT+0560SBKG V0201401N003112200019N0100001N1+02421+01841101111ADDAA124000391GA1021+006009999GF105991051021008001001001KA1240N+01991MA1101391094951MD1999999-0031MW1001REMSYN082AAXX  11124 82795 22597 51406 10242 20184 39495 40111 85200 333 20199 59003 69934;MET045SBKG 111200Z 13004KT 9999 SCT020 25/19 Q1014;EQDQ01+000000PRSWM2
0139827950999992000011113004-07220-035880FM-15+0560SBKG V0201201N003112200019N0112651N1+02601+01801999999ADDGA1021+006009999GF104991999999999999999999MA1101391999999MW1001REMMET045SBKG 111300Z 12006KT 9999 SCT020 26/18 Q1014;EQDQ01+000000PRSWM2
0139827950999992000011114004-07220-035880FM-15+0560SBKG V0201201N003112200019N0112651N1+02701+01801999999ADDGA1021+006009999GF104991999999999999999999MA1101291999999MW1001REMMET045SBKG 111400Z 12006KT 9999 SCT020 27/18 Q1013;EQDQ01+000000PRSWM2
0139827950999992000011115004-07220-035880FM-15+0560SBKG V0201301N004112200019N0112651N1+02901+01801999999ADDGA1021+007509999GF104991999999999999999999MA1101291999999MW1001REMMET045SBKG 111500Z 13008KT 9999 SCT025 29/18 Q1013;EQDQ01+000000PRSWM2
0139827950999992000011116004-07220-035880FM-15+0560SBKG V0201601N004112200019N0112651N1+03001+01801999999ADDGA1021+009009999GF104991999999999999999999MA1101191999999MW1001REMMET045SBKG 111600Z 16008KT 9999 SCT030 30/18 Q1012;EQDQ01+000000PRSWM2
0139827950999992000011117004-07220-035880FM-15+0560SBKG V0201801N002612200019N0112651N1+03001+01601999999ADDGA1021+009009999GF104991999999999999999999MA1101081999999MW1001REMMET045SBKG 111700Z 18005KT 9999 SCT030 30/16 Q1011;EQDQ01+000000PRSWM2
0167827950999992000011118004-07220-035880FM-12+0560SBKG V0201401N003110075019N0100001N1+02931+01771100901ADDAA106000091GF105991051021008001001001MA1999999094781MD1999999+0011REMSYN070AAXX  11184 82795 32597 51406 10293 20177 39478 40090 85200 333 58001;EQDQ01  00002PRCP06
0186827950999992000011200004-07220-035880FM-12+0560SBKG V0201401N005110075019N0100001N1+02281+02071100981ADDAA106000091GF105991051061008001001001KA1240M+02991MA1999999094841MD1999999-0111REMSYN076AAXX  12004 82795 32597 51410 10228 20207 39484 40098 85600 333 10299 59011;EQDQ01  00002PRCP06
0186827950999992000011212004-07220-035880FM-12+0560SBKG V0200901N004112200019N0100001N1+02401+01991101171ADDAA106000091GF104991041021008001001001KA1240N+02091MA1999999095031MD1999999+0081REMSYN076AAXX  12124 82795 32597 40908 10240 20199 39503 40117 84200 333 20209 58008;EQDQ01  00002PRCP06
0139827950999992000011217004-07220-035880FM-15+0560SBKG V0201201N003110090019N0112651N1+03101+01801999999ADDGA1071+009009999GF107991999999999999999999MA1101081999999MW1001REMMET045SBKG 121700Z 12006KT 9999 BKN030 31/18 Q1011;EQDQ01+000000PRSWM2
0167827950999992000011218004-07220-035880FM-12+0560SBKG V0200501N004612200019N0100001N1+02941+01591100881ADDAA106000091GF103991031021008001001001MA1999999094761MD1999999-0021REMSYN070AAXX  12184 82795 32597 30509 10294 20159 39476 40088 83200 333 59002;EQDQ01  00002PRCP06
0139827950999992000011219004-07220-035880FM-15+0560SBKG V0201201N003112200019N0112651N1+03101+01801999999ADDGA1021+009009999GF104991999999999999999999MA1101021999999MW1001REMMET045SBKG 121900Z 12006KT 9999 SCT030 31/18 Q1010;EQDQ01+000000PRSWM2
0091827950999992000011222004-07220-035880FM-15+0560SBKG V0201001N00411220001CN0099001N1+02601+02001999999ADDMA1101191999999MW1001REMMET039SBKG 122200Z 10008KT CAVOK 26/20 Q1012;EQDQ01+000000PRSWM2
0139827950999992000011223004-07220-035880FM-15+0560SBKG V0201201N005112200019N0112651N1+02501+02001999999ADDGA1021+004509999GF104991999999999999999999MA1101291999999MW1001REMMET045SBKG 122300Z 12010KT 9999 SCT015 25/20 Q1013;EQDQ01+000000PRSWM2
0275827950999992000011300004-07220-035880SY-MT+0560SBKG V0201401N006210075019N0100001N1+02261+02031101131ADDAA106000091GA1021+004509999GF105991051031008001001001KA1240M+03011MA1101291094991MD1999999+0151MW1001REMSYN076AAXX  13004 82795 32597 51412 10226 20203 39499 40113 85300 333 10301 58015;MET045SBKG 130000Z 10012KT 9999 SCT015 24/20 Q1013;EQDQ01+000000PRSWM2Q02  00002PRCP06
0139827950999992000011301004-07220-035880FM-15+0560SBKG V0201001N004112200019N0112651N1+02301+02001999999ADDGA1021+004509999GF104991999999999999999999MA1101391999999MW1001REMMET045SBKG 130100Z 10008KT 9999 SCT015 23/20 Q1014;EQDQ01+000000PRSWM2
0139827950999992000011302004-07220-035880FM-15+0560SBKG V0201001N004112200019N0112651N1+02301+02001999999ADDGA1021+004509999GF104991999999999999999999MA1101291999999MW1001REMMET045SBKG 130200Z 10008KT 9999 SCT015 23/20 Q1013;EQDQ01+000000PRSWM2
0139827950999992000011303004-07220-035880FM-15+0560SBKG V0201201N003112200019N0112651N1+02201+02101999999ADDGA1021+004809999GF102991999999999999999999MA1101291999999MW1001REMMET045SBKG 130300Z 12006KT 9999 FEW016 22/21 Q1013;EQDQ01+000000PRSWM2
0139827950999992000011304004-07220-035880FM-15+0560SBKG V0201201N003112200019N0112651N1+02201+02101999999ADDGA1021+003609999GF102991999999999999999999MA1101291999999MW1001REMMET045SBKG 130400Z 12006KT 9999 FEW012 22/21 Q1013;EQDQ01+000000PRSWM2
0139827950999992000011305004-07220-035880FM-15+0560SBKG V0201201N003112200019N0112651N1+02201+02101999999ADDGA1021+003009999GF104991999999999999999999MA1101291999999MW1001REMMET045SBKG 130500Z 12006KT 9999 SCT010 22/21 Q1013;EQDQ01+000000PRSWM2
0139827950999992000011306004-07220-035880FM-15+0560SBKG V0201201N002612200019N0112651N1+02201+02101999999ADDGA1021+003009999GF104991999999999999999999MA1101291999999MW1001REMMET045SBKG 130600Z 12005KT 9999 SCT010 22/21 Q1013;EQDQ01+000000PRSWM2
0139827950999992000011307004-07220-035880FM-15+0560SBKG V0201501N001512200019N0112651N1+02101+02101999999ADDGA1021+002709999GF102991999999999999999999MA1101291999999MW1001REMMET045SBKG 130700Z 15003KT 9999 FEW009 21/21 Q1013;EQDQ01+000000PRSWM2
0139827950999992000011308004-07220-035880FM-15+0560SBKG V0201501N002112200019N0112651N1+02101+02101999999ADDGA1021+003009999GF104991999999999999999999MA1101291999999MW1001REMMET045SBKG 130800Z 15004KT 9999 SCT010 21/21 Q1013;EQDQ01+000000PRSWM2
0162827950999992000011309004-07220-035880FM-15+0560SBKG V0201201N002112200019N0112651N1+02201+02101999999ADDGA1021+003009999GA2021+004509999GF104991999999999999999999MA1101391999999MW1001REMMET052SBKG 130900Z 12004KT 9999 FEW010 SCT015 22/21 Q1014;EQDQ01+000000PRSWM2
0139827950999992000011310004-07220-035880FM-15+0560SBKG V0201201N003112200019N0112651N1+02301+02001999999ADDGA1021+004509999GF104991999999999999999999MA1101391999999MW1001REMMET045SBKG 131000Z 12006KT 9999 SCT015 23/20 Q1014;EQDQ01+000000PRSWM2
0139827950999992000011311004-07220-035880FM-15+0560SBKG V0201201N004112200019N0112651N1+02501+02001999999ADDGA1021+006009999GF104991999999999999999999MA1101491999999MW1001REMMET045SBKG 131100Z 12008KT 9999 SCT020 25/20 Q1015;EQDQ01+000000PRSWM2
0291827950999992000011312004-07220-035880SY-MT+0560SBKG V0201401N00411007501CN0100001N1+02531+01781101201ADDAA106000091GA1071+007509999GF199999031021008001001011KA1240N+02111MA1101491095051MD1999999-0021MW1001REMSYN076AAXX  13124 82795 32597 51408 10253 20178 39505 40120 83201 333 20211 59002;MET045SBKG 131200Z 13008KT 9999 BKN025 26/20 Q1015;EQDQ01+000052SCOTCVQ02+000000PRSWM2Q03  00002PRCP06
0139827950999992000011313004-07220-035880FM-15+0560SBKG V0201501N003110075019N0112651N1+02801+02001999999ADDGA1071+007509999GF107991999999999999999999MA1101491999999MW1001REMMET045SBKG 131300Z 15006KT 9999 BKN025 28/20 Q1015;EQDQ01+000000PRSWM2
0139827950999992000011314004-07220-035880FM-15+0560SBKG V0201201N005110075019N0112651N1+02901+01901999999ADDGA1071+007509999GF107991999999999999999999MA1101491999999MW1001REMMET045SBKG 131400Z 12010KT 9999 BKN025 29/19 Q1015;EQDQ01+000000PRSWM2
0139827950999992000011315004-07220-035880FM-15+0560SBKG V0201001N004112200019N0112651N1+02901+01901999999ADDGA1021+009009999GF104991999999999999999999MA1101391999999MW1001REMMET045SBKG 131500Z 10008KT 9999 SCT030 29/19 Q1014;EQDQ01+000000PRSWM2
0140827950999992000011316004-07220-035880FM-15+0560SBKG V0201401N005112200019N0112651N1+03001+01901999999ADDGA1021+009009999GF104991999999999999999999MA1101291999999MW1001REMMET046SBKG 131600Z 14010KT 9999 SCT030 30/19 Q1013 ;EQDQ01+000000PRSWM2
0257827950999992000011318004-07220-035880SY-MT+0560SBKG V0201401N001512200019N0100001N1+03041+01571100821ADDAA106000091GA1021+009009999GF104991021031008001001011MA1101081094711MD1999999-0041MW1001REMSYN070AAXX  13184 82795 32597 41403 10304 20157 39471 40082 82301 333 59004;MET046SBKG 131800Z 10006KT 9999 SCT030 31/20 Q1011 ;EQDQ01+000000PRSWM2Q02  00002PRCP06
0140827950999992000011320004-07220-035880FM-15+0560SBKG V0201201N005112200019N0112651N1+02901+02001999999ADDGA1021+006009999GF104991999999999999999999MA1101081999999MW1001REMMET046SBKG 132000Z 12010KT 9999 SCT020 29/20 Q1011 ;EQDQ01+000000PRSWM2
0139827950999992000011322004-07220-035880FM-15+0560SBKG V0201101N006712200019N0112651N1+02601+02001999999ADDGA1021+005409999GF104991999999999999999999MA1101291999999MW1001REMMET045SBKG 132200Z 11013KT 9999 SCT018 26/20 Q1013;EQDQ01+000000PRSWM2
0139827950999992000011323004-07220-035880FM-15+0560SBKG V0201201N005112200019N0112651N1+02501+02001999999ADDGA1021+005409999GF104991999999999999999999MA1101291999999MW1001REMMET045SBKG 132300Z 12010KT 9999 SCT018 25/20 Q1013;EQDQ01+000000PRSWM2
0295827950999992000011400004-07220-035880SY-MT+056099999V0201401N005119999999N0020001N1+02401+02071101091ADDAA199000091GA1021+004509999GF106991999021008001001001KA1240M+03071MA1101391094951MD1999999+0041MW1001REMSYN080    AAXX  14004 82795 32595 61410 10240 20207 39495 40109 83200 333 10307 58004;MET045SBKG 140000Z 12010KT 9999 SCT015 24/21 Q1014;EQDQ01+000032SCOTLCQ02+000000PRSWM2Q03  00002PRCP99
0139827950999992000011401004-07220-035880FM-15+0560SBKG V0201201N003612200019N0112651N1+02301+02101999999ADDGA1021+004509999GF104991999999999999999999MA1101391999999MW1001REMMET045SBKG 140100Z 12007KT 9999 SCT015 23/21 Q1014;EQDQ01+000000PRSWM2
0162827950999992000011402004-07220-035880FM-15+0560SBKG V0201101N004112200019N0112651N1+02301+02101999999ADDGA1021+003009999GA2021+004509999GF104991999999999999999999MA1101291999999MW1001REMMET052SBKG 140200Z 11008KT 9999 FEW010 SCT015 23/21 Q1013;EQDQ01+000000PRSWM2
0139827950999992000011403004-07220-035880FM-15+0560SBKG V0201201N003112200019N0112651N1+02301+02101999999ADDGA1021+004509999GF104991999999999999999999MA1101291999999MW1001REMMET045SBKG 140300Z 12006KT 9999 SCT015 23/21 Q1013;EQDQ01+000000PRSWM2
0162827950999992000011404004-07220-035880FM-15+0560SBKG V0201201N003112200019N0112651N1+02301+02101999999ADDGA1021+003009999GA2021+004509999GF104991999999999999999999MA1101191999999MW1001REMMET052SBKG 140400Z 12006KT 9999 FEW010 SCT015 23/21 Q1012;EQDQ01+000000PRSWM2
0162827950999992000011405004-07220-035880FM-15+0560SBKG V0201201N002612200019N0112651N1+02301+02101999999ADDGA1021+003009999GA2021+004509999GF104991999999999999999999MA1101081999999MW1001REMMET052SBKG 140500Z 12005KT 9999 FEW010 SCT015 23/21 Q1011;EQDQ01+000000PRSWM2
0139827950999992000011406004-07220-035880FM-15+0560SBKG V0201301N002112200019N0112651N1+02301+02101999999ADDGA1021+003009999GF104991999999999999999999MA1101081999999MW1001REMMET045SBKG 140600Z 13004KT 9999 SCT010 23/21 Q1011;EQDQ01+000000PRSWM2
0162827950999992000011408004-07220-035880FM-15+0560SBKG V0201301N003110045019N0112651N1+02201+02101999999ADDGA1021+003009999GA2071+004509999GF107991999999999999999999MA1101081999999MW1001REMMET052SBKG 140800Z 13006KT 9999 SCT010 BKN015 22/21 Q1011;EQDQ01+000000PRSWM2
0162827950999992000011409004-07220-035880FM-15+0560SBKG V0201701N003110060019N0112651N1+02201+02101999999ADDGA1021+004509999GA2071+006009999GF107991999999999999999999MA1101191999999MW1001REMMET052SBKG 140900Z 17006KT 9999 SCT015 BKN020 22/21 Q1012;EQDQ01+000000PRSWM2
0139827950999992000011410004-07220-035880FM-15+0560SBKG V0201601N003110060019N0112651N1+02401+02101999999ADDGA1071+006009999GF107991999999999999999999MA1101291999999MW1001REMMET045SBKG 141000Z 16006KT 9999 BKN020 24/21 Q1013;EQDQ01+000000PRSWM2
0088827950999992000011411004-07220-035880FM-15+0560SBKG V02099999999992200019N0099001N1+99999+99999999999ADDMW1001REMMET051SBKG 14110Z 16008KT 9999 SCT020 BKN300 25/21 Q1013;EQDQ01+000000PRSWM2
0318827950999992000011412004-07220-035880SY-MT+056099999V0201401N00461090001CN0100001N1+02511+02001100991ADDAA199000091GA1021+006009999GA2071+090009999GF199999031041008001001021KA1240N+02201MA1101291094861MD1999999-0121MW1001REMSYN080    AAXX  14124 82795 32597 61409 10251 20200 39486 40099 83402 333 20220 59012;MET052SBKG 141200Z 12010KT 9999 SCT020 BKN300 26/21 Q1013;EQDQ01+000062SCOTCVQ02+000000PRSWM2Q03  00002PRCP99
0162827950999992000011413004-07220-035880FM-15+0560SBKG V0201201N003110060019N0112651N1+02601+02001999999ADDGA1071+006009999GA2071+090009999GF107991999999999999999999MA1101291999999MW1001REMMET052SBKG 141300Z 12006KT 9999 BKN020 BKN300 26/20 Q1013;EQDQ01+000000PRSWM2
0209827950999992000011414254-07220-035880FM-15+0560SBKG V0201501N006210060019N0030001N1+02501+02101999999ADDGA1071+006009999GA2021+007509029GA3071+090009999GF107991999999999999999999MA1101191999999MW1811REMMET067SBKG 141425Z 15012KT 3000 SHRA BKN020 FEW025TCU BKN300 25/21 Q1012;EQDQ01+000003PRSWM1Q02    003PRSWM1
0188827950999992000011416004-07220-035880FM-15+0560SBKG V0201101N004112200019N0112651N1+02801+02101999999ADDGA1021+006609999GA2021+009009029GA3021+090009999GF104991999999999999999999MA1101081999999MW1001REMMET062SBKG 141600Z 11008KT 9999 FEW022 FEW030TCU SCT300 28/21 Q1011;EQDQ01+000000PRSWM2
0162827950999992000011417004-07220-035880FM-15+0560SBKG V0201301N004110900019N0112651N1+02801+02001999999ADDGA1021+006609999GA2071+090009999GF107991999999999999999999MA1101021999999MW1001REMMET052SBKG 141700Z 13008KT 9999 FEW022 BKN300 28/20 Q1010;EQDQ01+000000PRSWM2
0360827950999992000011418004-07220-035880SY-MT+0560SBKG V0201401N00261027001CN0040001N1+02831+01941100721ADDAA106000391AY151061AY221061GA1021+006009999GA2021+007509029GA3021+027009999GA4071+090009999GF107991061081008001021001MA1101021094621MD1999999-0361MW1021REMSYN086    AAXX  14184 82795 21596 71405 10283 20194 39462 40072 70252 86820 333 59036 69931;MET069SBKG 141800Z 11012KT 9999 FEW020 FEW025TCU SCT090 BKN300 27/21 Q1010;EQDQ01+000000PRSWM2Q02    003PRSWM1
0162827950999992000011419004-07220-035880FM-15+0560SBKG V0201001N005112200019N0112651N1+02701+02201999999ADDGA1021+006009999GA2021+030009999GF104991999999999999999999MA1101021999999MW1001REMMET052SBKG 141900Z 10010KT 9999 FEW020 SCT100 27/22 Q1010;EQDQ01+000000PRSWM2
0139827950999992000011420004-07220-035880FM-15+0560SBKG V0200701N006212200019N0112651N1+02701+02101999999ADDGA1021+006009999GF102991999999999999999999MA1101021999999MW1001REMMET045SBKG 142000Z 07012KT 9999 FEW020 27/21 Q1010;EQDQ01+000000PRSWM2
0162827950999992000011421004-07220-035880FM-15+0560SBKG V0201201N006212200019N0112651N1+02601+02401999999ADDGA1021+006009999GA2021+030009999GF104991999999999999999999MA1101021999999MW1001REMMET052SBKG 142100Z 12012KT 9999 SCT020 SCT100 26/24 Q1010;EQDQ01+000000PRSWM2
0181827950999992000011422004-07220-035880FM-15+0560SBKG V0201201N006212200019N0112651N1+02401+02101999999ADDGA1021+006009999GA2021+030009999GF104991999999999999999999MA1101081999999MW1171REMMET055SBKG 142200Z 12012KT 9999 TS FEW020 SCT100 24/21 Q1011;EQDQ01+000003PRSWM1Q02    003PRSWM1
0181827950999992000011423004-07220-035880FM-15+0560SBKG V0201201N004112200019N0112651N1+02401+02201999999ADDGA1021+006009999GA2021+030009999GF104991999999999999999999MA1101081999999MW1171REMMET055SBKG 142300Z 12008KT 9999 TS FEW020 SCT100 24/22 Q1011;EQDQ01+000003PRSWM1Q02    003PRSWM1
0300827950999992000011500004-07220-035880SY-MT+056099999V0200901N003610075019N0040001N1+02281+02131100891ADDAA106000191AY151061AY221061GA1021+004509999GF108991081071008001999999KA1240M+02861MA1101191094761MD1999999-0191MW1021MW2171REMSYN092    AAXX  15004 82795 21596 80907 10228 20213 39476 40089 70252 887// 333 10286 59019 69911;MET048SBKG 150000Z 12006KT 9999 TS SCT015 23/22 Q1012;EQDQ01    003PRSWM1
0190827950999992000011501004-07220-035880FM-15+0560SBKG V0201201N003112200019N0050001N1+02201+02201999999ADDGA1021+001509999GA2021+004509999GF104991999999999999999999MA1101191999999MW1801MW2951REMMET058SBKG 150100Z 12006KT 5000 -TSRA FEW005 SCT015 22/22 Q1012;EQDQ01+000003PRSWM1Q02    003PRSWM1
0181827950999992000011502004-07220-035880FM-15+0560SBKG V0201201N003110045019N0080001N1+02201+02201999999ADDGA1021+001509999GA2071+004509999GF107991999999999999999999MA1101191999999MW1631REMMET055SBKG 150200Z 12006KT 8000 RA SCT005 BKN015 22/22 Q1012;EQDQ01+000003PRSWM1Q02    003PRSWM1
0182827950999992000011503004-07220-035880FM-15+0560SBKG V0201201N005110030019N0050001N1+02201+02201999999ADDGA1021+001809999GA2071+003009999GF107991999999999999999999MA1101191999999MW1611REMMET056SBKG 150300Z 12010KT 5000 -RA SCT006 BKN010 22/22 Q1012;EQDQ01+000003PRSWM1Q02    003PRSWM1
0162827950999992000011504004-07220-035880FM-15+0560SBKG V0201201N003110030019N0060001N1+02201+02101999999ADDGA1021+001809999GA2071+003009999GF107991999999999999999999MA1101081999999MW1001REMMET052SBKG 150400Z 12006KT 6000 SCT006 BKN010 22/21 Q1011;EQDQ01+000000PRSWM2
0182827950999992000011505004-07220-035880FM-15+0560SBKG V0200901N003110030019N0040001N1+02201+02101999999ADDGA1071+003009999GA2071+021009999GF107991999999999999999999MA1101081999999MW1611REMMET056SBKG 150500Z 09006KT 4000 -RA BKN010 BKN070 22/21 Q1011;EQDQ01+000003PRSWM1Q02    003PRSWM1
0182827950999992000011506004-07220-035880FM-15+0560SBKG V0200901N003110030019N0040001N1+02101+02101999999ADDGA1071+003009999GA2071+021009999GF107991999999999999999999MA1101021999999MW1611REMMET056SBKG 150600Z 09006KT 4000 -RA BKN010 BKN070 21/21 Q1010;EQDQ01+000003PRSWM1Q02    003PRSWM1
0182827950999992000011507004-07220-035880FM-15+0560SBKG V0200901N003110210019N0050001N1+02101+02101999999ADDGA1021+003009999GA2071+021009999GF107991999999999999999999MA1101021999999MW1611REMMET056SBKG 150700Z 09006KT 5000 -RA SCT010 BKN070 21/21 Q1010;EQDQ01+000003PRSWM1Q02    003PRSWM1
0162827950999992000011508004-07220-035880FM-15+0560SBKG V0200901N003110030019N0060001N1+02101+02101999999ADDGA1071+003009999GA2071+021009999GF107991999999999999999999MA1101081999999MW1001REMMET052SBKG 150800Z 09006KT 6000 BKN010 BKN070 21/21 Q1011;EQDQ01+000000PRSWM2
0204827950999992000011509004-07220-035880FM-15+0560SBKG V0200901N002110036019N0050001N1+02101+02101999999ADDGA1071+003609999GA2021+024009999GA3071+090009999GF107991999999999999999999MA1101081999999MW1101REMMET062SBKG 150900Z 09004KT 5000 BR BKN012 SCT080 BKN300 21/21 Q1011;EQDQ01+000003PRSWM1Q02    003PRSWM1
0162827950999992000011510004-07220-035880FM-15+0560SBKG V0201001N003610045019N0090001N1+02201+02101999999ADDGA1071+004509999GA2071+024009999GF107991999999999999999999MA1101191999999MW1001REMMET052SBKG 151000Z 10007KT 9000 BKN015 BKN080 22/21 Q1012;EQDQ01+000000PRSWM2
0162827950999992000011511004-07220-035880FM-15+0560SBKG V0201301N003110270019N0112651N1+02301+02101999999ADDGA1021+006009999GA2071+027009999GF107991999999999999999999MA1101291999999MW1001REMMET052SBKG 151100Z 13006KT 9999 SCT020 BKN090 23/21 Q1013;EQDQ01+000000PRSWM2
0313827950999992000011512004-07220-035880SY-MT+056099999V0201401N005119999999N0100001N1+02441+01901101041ADDAA124009991AY161061AY221061GF106991999021008001001001KA1240N+02021MA1999999094901MD1999999+0041MW1031REMSYN092    AAXX  15124 82795 21597 61410 10244 20190 39490 40104 70362 84200 333 20202 58004 60104;MET051SBKG151200Z 13008KT 9999 SCT022 BKN100 25/20 Q1013;EQDQ01+000042SCOTLCQ02+000000PRSWM2Q03    003PRSWM1
0139827950999992000011513004-07220-035880FM-15+0560SBKG V0201201N004112200019N0112651N1+02701+02001999999ADDGA1021+006609999GF104991999999999999999999MA1101291999999MW1001REMMET045SBKG 151300Z 12008KT 9999 SCT022 27/20 Q1013;EQDQ01+000000PRSWM2
0139827950999992000011514004-07220-035880FM-15+0560SBKG V0201101N005112200019N0112651N1+02701+01801999999ADDGA1021+007509999GF104991999999999999999999MA1101291999999MW1001REMMET045SBKG 151400Z 11010KT 9999 SCT025 27/18 Q1013;EQDQ01+000000PRSWM2
0162827950999992000011515004-07220-035880FM-15+0560SBKG V0200901N003110900019N0112651N1+02901+01801999999ADDGA1021+007509999GA2071+090009999GF107991999999999999999999MA1101291999999MW1001REMMET052SBKG 151500Z 09006KT 9999 SCT025 BKN300 29/18 Q1013;EQDQ01+000000PRSWM2
0185827950999992000011516004-07220-035880FM-15+0560SBKG V0201001N003110900019N0112651N1+02901+01801999999ADDGA1021+006009999GA2021+030009999GA3071+090009999GF107991999999999999999999MA1101191999999MW1001REMMET059SBKG 151600Z 10006KT 9999 SCT020 SCT100 BKN300 29/18 Q1012;EQDQ01+000000PRSWM2
0211827950999992000011517004-07220-035880FM-15+0560SBKG V0200901N00311030001CN0112651N1+02901+01701999999ADDGA1021+004809029GA2021+006009999GA3021+030009999GA4071+090009999GF107991999999999999999999MA1101021999999MW1001REMMET069SBKG 151700Z 09006KT 9999 FEW016TCU SCT020 SCT100 BKN300 29/17 Q1010;EQDQ01+000000PRSWM2
0309827950999992000011518004-07220-035880SY-MT+0560SBKG V0201401N002610900019N0100001N1+02831+01771100731ADDAA199000021GA1021+004809029GA2021+006009999GA3071+090009999GF106991999021008001001001MA1101021094611MD1999999-0011MW1001REMSYN074    AAXX  15184 82795 32597 61405 10283 20177 39461 40073 85200 333 59001;MET062SBKG 151800Z 15006KT 9999 FEW016TCU SCT020 BKN300 29/18 Q1010;EQDQ01+000000PRSWM2Q02+000052SCOTLC
0139827950999992000011521004-07220-035880FM-15+0560SBKG V0201501N002612200019N0112651N1+02701+02001999999ADDGA1021+006009999GF104991999999999999999999MA1101081999999MW1001REMMET045SBKG 152100Z 15005KT 9999 SCT020 27/20 Q1011;EQDQ01+000000PRSWM2
0139827950999992000011522004-07220-035880FM-15+0560SBKG V0201201N003112200019N0112651N1+02601+02001999999ADDGA1021+006009999GF104991999999999999999999MA1101081999999MW1001REMMET045SBKG 152200Z 12006KT 9999 SCT020 26/20 Q1011;EQDQ01+000000PRSWM2
0139827950999992000011523004-07220-035880FM-15+0560SBKG V0201301N004110060019N0112651N1+02501+02001999999ADDGA1071+006009999GF107991999999999999999999MA1101191999999MW1001REMMET045SBKG 152300Z 13008KT 9999 BKN020 25/20 Q1012;EQDQ01+000000PRSWM2
0295827950999992000011600004-07220-035880SY-MT+056099999V0209999C000012200019N0100001N1+02281+01881100921ADDAA199000091GA1021+007509999GF104991999021008001001001KA1240M+02881MA1101191094781MD1999999+0021MW1001REMSYN080    AAXX  16004 82795 32597 40900 10228 20188 39478 40092 81200 333 10288 58002;MET045SBKG 160000Z 12008KT 9999 SCT025 24/20 Q1012;EQDQ01+000012SCOTLCQ02+000000PRSWM2Q03  00002PRCP99
0139827950999992000011601004-07220-035880FM-15+0560SBKG V0201001N003112200019N0112651N1+02301+02001999999ADDGA1021+007509999GF102991999999999999999999MA1101191999999MW1001REMMET045SBKG 160100Z 10006KT 9999 FEW025 23/20 Q1012;EQDQ01+000000PRSWM2
0091827950999992000011602004-07220-035880FM-15+0560SBKG V0201201N00311220001CN0099001N1+02201+02101999999ADDMA1101191999999MW1001REMMET039SBKG 160200Z 12006KT CAVOK 22/21 Q1012;EQDQ01+000000PRSWM2
0139827950999992000011603004-07220-035880FM-15+0560SBKG V0200901N002112200019N0112651N1+02201+02101999999ADDGA1021+004509999GF102991999999999999999999MA1101081999999MW1001REMMET045SBKG 160300Z 09004KT 9999 FEW015 22/21 Q1011;EQDQ01+000000PRSWM2
0139827950999992000011604004-07220-035880FM-15+0560SBKG V0201001N002112200019N0112651N1+02201+02101999999ADDGA1021+004509999GF104991999999999999999999MA1101021999999MW1001REMMET045SBKG 160400Z 10004KT 9999 SCT015 22/21 Q1010;EQDQ01+000000PRSWM2
0139827950999992000011605004-07220-035880FM-15+0560SBKG V0201101N002612200019N0112651N1+02201+02101999999ADDGA1021+003909999GF104991999999999999999999MA1101021999999MW1001REMMET045SBKG 160500Z 11005KT 9999 SCT013 22/21 Q1010;EQDQ01+000000PRSWM2
0139827950999992000011606004-07220-035880FM-15+0560SBKG V0201001N002612200019N0112651N1+02201+02101999999ADDGA1021+002409999GF104991999999999999999999MA1101021999999MW1001REMMET045SBKG 160600Z 10005KT 9999 SCT008 22/21 Q1010;EQDQ01+000000PRSWM2
0139827950999992000011607004-07220-035880FM-15+0560SBKG V0201201N003610024019N0112651N1+02101+02101999999ADDGA1071+002409999GF107991999999999999999999MA1101021999999MW1001REMMET045SBKG 160700Z 12007KT 9999 BKN008 21/21 Q1010;EQDQ01+000000PRSWM2
0139827950999992000011608004-07220-035880FM-15+0560SBKG V0201201N002112200019N0112651N1+02101+02101999999ADDGA1021+002409999GF104991999999999999999999MA1101081999999MW1001REMMET045SBKG 160800Z 12004KT 9999 SCT008 21/21 Q1011;EQDQ01+000000PRSWM2
0139827950999992000011610004-07220-035880FM-15+0560SBKG V0201501N002112200019N0112651N1+02201+02101999999ADDGA1021+004509999GF104991999999999999999999MA1101191999999MW1001REMMET045SBKG 161000Z 15004KT 9999 SCT015 22/21 Q1012;EQDQ01+000000PRSWM2
0139827950999992000011611004-07220-035880FM-15+0560SBKG V0201201N004112200019N0112651N1+02401+02001999999ADDGA1021+006009999GF104991999999999999999999MA1101191999999MW1001REMMET045SBKG 161100Z 12008KT 9999 SCT020 24/20 Q1012;EQDQ01+000000PRSWM2
0307827950999992000011612004-07220-035880SY-MT+056099999V0201401N003112200019N0100001N1+02491+01841101021ADDAA124000191AY151061AY221061GA1021+006009999GF104991041051008001001001KA1240N+02111MA1101291094881MD1999999-0021MW1021REMSYN092    AAXX  16124 82795 21597 41406 10249 20184 39488 40102 70252 84500 333 20211 59002 69914;MET045SBKG 161200Z 12002KT 9999 SCT020 26/20 Q1013;EQDQ01+000000PRSWM2Q02    003PRSWM1
0139827950999992000011613004-07220-035880FM-15+0560SBKG V0201001N003112200019N0112651N1+02701+02001999999ADDGA1021+006009999GF104991999999999999999999MA1101291999999MW1001REMMET045SBKG 161300Z 10006KT 9999 SCT020 27/20 Q1013;EQDQ01+000000PRSWM2
0139827950999992000011614004-07220-035880FM-15+0560SBKG V0201501N003112200019N0112651N1+02801+01901999999ADDGA1021+006009999GF104991999999999999999999MA1101291999999MW1001REMMET045SBKG 161400Z 15006KT 9999 SCT020 28/19 Q1013;EQDQ01+000000PRSWM2
0139827950999992000011615004-07220-035880FM-15+0560SBKG V0201001N001512200019N0112651N1+02901+01701999999ADDGA1021+007509999GF104991999999999999999999MA1101191999999MW1001REMMET045SBKG 161500Z 10003KT 9999 SCT025 29/17 Q1012;EQDQ01+000000PRSWM2
0139827950999992000011616004-07220-035880FM-15+0560SBKG V0201301N004112200019N0112651N1+03001+01801999999ADDGA1021+009009999GF102991999999999999999999MA1101081999999MW1001REMMET045SBKG 161600Z 13008KT 9999 FEW030 30/18 Q1011;EQDQ01+000000PRSWM2
0139827950999992000011617004-07220-035880FM-15+0560SBKG V0201501N003112200019N0112651N1+03001+01701999999ADDGA1021+009009999GF104991999999999999999999MA1101081999999MW1001REMMET045SBKG 161700Z 15006KT 9999 SCT030 30/17 Q1011;EQDQ01+000000PRSWM2
0260827950999992000011618004-07220-035880SY-MT+056099999V0201401N004610120019N0100001N1+02781+02061100781ADDAA199000091GA1021+009009999GF105991051081008001001001MA1101081094661MD1999999+0051MW1001REMSYN074    AAXX  16184 82795 32597 51409 10278 20206 39466 40078 85800 333 58005;MET045SBKG 161800Z 12010KT 9999 SCT030 30/20 Q1011;EQDQ01+000000PRSWM2Q02  00002PRCP99
0139827950999992000011619004-07220-035880FM-15+0560SBKG V0201201N005712200019N0112651N1+02901+02001999999ADDGA1021+009009999GF104991999999999999999999MA1101081999999MW1001REMMET045SBKG 161900Z 12011KT 9999 SCT030 29/20 Q1011;EQDQ01+000000PRSWM2
0139827950999992000011620004-07220-035880FM-15+0560SBKG V0201201N005112200019N0112651N1+02801+02201999999ADDGA1021+009009999GF102991999999999999999999MA1101081999999MW1001REMMET045SBKG 162000Z 12010KT 9999 FEW030 28/22 Q1011;EQDQ01+000000PRSWM2
0162827950999992000011621004-07220-035880FM-15+0560SBKG V0201001N005112200019N0112651N1+02601+02001999999ADDGA1021+004509999GA2021+006009999GF104991999999999999999999MA1101191999999MW1001REMMET052SBKG 162100Z 10010KT 9999 FEW015 SCT020 26/20 Q1012;EQDQ01+000000PRSWM2
0139827950999992000011622004-07220-035880FM-15+0560SBKG V0201001N004112200019N0112651N1+02401+02101999999ADDGA1021+004509999GF102991999999999999999999MA1101291999999MW1001REMMET045SBKG 162200Z 10008KT 9999 FEW015 24/21 Q1013;EQDQ01+000000PRSWM2
0162827950999992000011623004-07220-035880FM-15+0560SBKG V0201101N004112200019N0112651N1+02401+02101999999ADDGA1021+003009999GA2021+004509999GF104991999999999999999999MA1101291999999MW1001REMMET052SBKG 162300Z 11008KT 9999 FEW010 SCT015 24/21 Q1013;EQDQ01+000000PRSWM2
0302827950999992000011700004-07220-035880SY-MT+0560SBKG V0201401N003112200019N0100001N1+02261+02031101081ADDAA199000091GA1021+003009999GA2021+004509999GF105991051031008001001001KA1240M+03011MA1101391094941MD1999999+0161MW1001REMSYN080    AAXX  17004 82795 32597 51406 10226 20203 39494 40108 85300 333 10301 58016;MET052SBKG 170000Z 10006KT 9999 FEW010 SCT015 23/22 Q1014;EQDQ01+000000PRSWM2Q02  00002PRCP99
0139827950999992000011701004-07220-035880FM-15+0560SBKG V0201001N003112200019N0112651N1+02301+02101999999ADDGA1021+003009999GF104991999999999999999999MA1101391999999MW1001REMMET045SBKG 170100Z 10006KT 9999 SCT010 23/21 Q1014;EQDQ01+000000PRSWM2
0162827950999992000011702004-07220-035880FM-15+0560SBKG V0201001N003612200019N0112651N1+02301+02101999999ADDGA1021+002409999GA2021+003009999GF104991999999999999999999MA1101391999999MW1001REMMET052SBKG 170200Z 10007KT 9999 FEW008 SCT010 23/21 Q1014;EQDQ01+000000PRSWM2
0162827950999992000011703004-07220-035880FM-15+0560SBKG V0201001N003112200019N0112651N1+02301+02201999999ADDGA1021+001509999GA2021+003009999GF104991999999999999999999MA1101291999999MW1001REMMET052SBKG 170300Z 10006KT 9999 SCT005 SCT010 23/22 Q1013;EQDQ01+000000PRSWM2
0162827950999992000011704004-07220-035880FM-15+0560SBKG V0201201N002112200019N0112651N1+02201+02201999999ADDGA1021+001509999GA2021+003009999GF104991999999999999999999MA1101191999999MW1001REMMET052SBKG 170400Z 12004KT 9999 SCT005 SCT010 22/22 Q1012;EQDQ01+000000PRSWM2
0162827950999992000011705004-07220-035880FM-15+0560SBKG V0201201N004112200019N0112651N1+02201+02201999999ADDGA1021+001509999GA2021+003009999GF104991999999999999999999MA1101191999999MW1001REMMET052SBKG 170500Z 12008KT 9999 SCT005 SCT010 22/22 Q1012;EQDQ01+000000PRSWM2
0139827950999992000011706004-07220-035880FM-15+0560SBKG V0201201N003112200019N0112651N1+02201+02201999999ADDGA1021+003009999GF104991999999999999999999MA1101191999999MW1001REMMET045SBKG 170600Z 12006KT 9999 SCT010 22/22 Q1012;EQDQ01+000000PRSWM2
0123827950999992000011707004-07220-035880FM-15+0560SBKG V0201201N002112200019N0112651N1+02201+02201999999ADDGA1021+003009999GF104991999999999999999999MW1001REMMET044SBKG 170700Z 12004KT 9999 SCT010 22/22 Q101;EQDQ01+000000PRSWM2
0162827950999992000011708004-07220-035880FM-15+0560SBKG V0201201N003112200019N0112651N1+02201+02201999999ADDGA1021+001209999GA2021+003009999GF104991999999999999999999MA1101191999999MW1001REMMET052SBKG 170800Z 12006KT 9999 FEW004 SCT010 22/22 Q1012;EQDQ01+000000PRSWM2
0162827950999992000011709004-07220-035880FM-15+0560SBKG V0201201N003112200019N0080001N1+02201+02201999999ADDGA1021+001809999GA2021+003609999GF104991999999999999999999MA1101291999999MW1001REMMET052SBKG 170900Z 12006KT 8000 SCT006 SCT012 22/22 Q1013;EQDQ01+000000PRSWM2
0162827950999992000011710004-07220-035880FM-15+0560SBKG V0201201N003110036019N0112651N1+02301+02201999999ADDGA1021+002709999GA2071+003609999GF107991999999999999999999MA1101391999999MW1001REMMET052SBKG 171000Z 12006KT 9999 SCT009 BKN012 23/22 Q1014;EQDQ01+000000PRSWM2
0295827950999992000011712004-07220-035880SY-MT+056099999V0201401N00411005401CN0100001N1+02541+01951101171ADDAA199000091GA1071+005409999GF199999051021008001001001KA1240N+02131MA1101491095031MD1999999+0151MW1001REMSYN080    AAXX  17124 82795 32597 51408 10254 20195 39503 40117 85200 333 20213 58015;MET045SBKG 171200Z 10004KT 9999 BKN018 26/20 Q1015;EQDQ01+000052SCOTCVQ02+000000PRSWM2Q03  00002PRCP99
0165827950999992000011713004-07220-035880FM-15+0560SBKG V0201201N004112200019N0112651N1+02701+02001999999ADDGA1021+006009999GA2021+007509029GF102991999999999999999999MA1101491999999MW1001REMMET055SBKG 171300Z 12008KT 9999 SCT020 FEW025TCU 27/20 Q1015;EQDQ01+000000PRSWM2
0139827950999992000011714004-07220-035880FM-15+0560SBKG V0200901N003112200019N0112651N1+02801+02001999999ADDGA1021+007509999GF104991999999999999999999MA1101391999999MW1001REMMET045SBKG 171400Z 09006KT 9999 SCT025 28/20 Q1014;EQDQ01+000000PRSWM2
0152827950999992000011715004-07220-035880FM-15+0560SBKG V0201201N00411220001CN0112651N1+02901+02101999999ADDGA1071+007509999GA2021+090009999MA1101391999999MW1001REMMET052SBKG 171500Z 12008KT 9999 BKN025 SCT300 29/21 Q1014;EQDQ01+000042SCOTCVQ02+000000PRSWM2
0152827950999992000011716004-07220-035880FM-15+0560SBKG V0201001N00311220001CN0112651N1+02901+02001999999ADDGA1071+007509999GA2021+090009999MA1101291999999MW1001REMMET052SBKG 171600Z 10006KT 9999 BKN025 SCT300 29/20 Q1013;EQDQ01+000042SCOTCVQ02+000000PRSWM2
0152827950999992000011717004-07220-035880FM-15+0560SBKG V0201001N00411220001CN0112651N1+02901+02001999999ADDGA1071+007509999GA2021+090009999MA1101191999999MW1001REMMET052SBKG 171700Z 10008KT 9999 BKN025 SCT300 29/20 Q1012;EQDQ01+000042SCOTCVQ02+000000PRSWM2
0337827950999992000011718004-07220-035880SY-MT+056099999V0201401N004610075019N0100001N1+02741+02021101011ADDAA199000091AY121061AY221061GA1021+004509999GA2071+007509999GF199999081081008001001001MA1101191094881MD1999999+0221MW1161REMSYN080    AAXX  17184 82795 31597 61409 10274 20202 39488 40101 71622 88800 333 58022;MET052SBKG 171800Z 12006KT 9999 FEW015 BKN025 29/20 Q1012;EQDQ01+000062SCOTCVQ02+000000PRSWM2Q03  00002PRCP99Q04    003PRSWM1
0162827950999992000011719004-07220-035880FM-15+0560SBKG V0201201N003110060019N0112651N1+02601+02201999999ADDGA1021+004509999GA2071+006009999GF107991999999999999999999MA1101291999999MW1001REMMET052SBKG 171900Z 12006KT 9999 SCT015 BKN020 26/22 Q1013;EQDQ01+000000PRSWM2
0185827950999992000011720004-07220-035880FM-15+0560SBKG V0201001N005110900019N0112651N1+02601+02201999999ADDGA1021+004509999GA2021+006009999GA3071+090009999GF107991999999999999999999MA1101291999999MW1001REMMET059SBKG 172000Z 10010KT 9999 FEW015 SCT020 BKN300 26/22 Q1013;EQDQ01+000000PRSWM2
0162827950999992000011722004-07220-035880FM-15+0560SBKG V0201001N003110300019N0112651N1+02401+02101999999ADDGA1021+004809999GA2071+030009999GF107991999999999999999999MA1101391999999MW1001REMMET052SBKG 172200Z 10006KT 9999 SCT016 BKN100 24/21 Q1014;EQDQ01+000000PRSWM2
0162827950999992000011723004-07220-035880FM-15+0560SBKG V0201001N003112200019N0112651N1+02401+02101999999ADDGA1021+004509999GA2021+030009999GF104991999999999999999999MA1101491999999MW1001REMMET052SBKG 172300Z 10006KT 9999 SCT015 SCT100 24/21 Q1015;EQDQ01+000000PRSWM2
0323827950999992000011800004-07220-035880SY-MT+0560SBKG V0201401N003612200019N0100001N1+02241+02161101261ADDAA106000591AY151061AY221061GA1021+004509999GF106991999021008001001001KA1240M+02891MA1101491095111MD1999999+0171MW1021REMSYN092    AAXX  18004 82795 21597 61407 10224 20216 39511 40126 70252 84200 333 10289 58017 69941;MET045SBKG 180000Z 09006KT 9999 SCT015 23/21 Q1015;EQDQ01+000000PRSWM2Q02+000042SCOTLCQ03    003PRSWM1
0139827950999992000011801004-07220-035880FM-15+0560SBKG V0200901N003112200019N0112651N1+02301+02101999999ADDGA1021+004509999GF104991999999999999999999MA1101491999999MW1001REMMET045SBKG 180100Z 09006KT 9999 SCT015 23/21 Q1015;EQDQ01+000000PRSWM2
0139827950999992000011802004-07220-035880FM-15+0560SBKG V0201001N003110045019N0112651N1+02301+02101999999ADDGA1071+004509999GF107991999999999999999999MA1101591999999MW1001REMMET045SBKG 180200Z 10006KT 9999 BKN015 23/21 Q1016;EQDQ01+000000PRSWM2
0162827950999992000011803004-07220-035880FM-15+0560SBKG V0200901N003112200019N0112651N1+02201+02101999999ADDGA1021+002409999GA2021+004509999GF104991999999999999999999MA1101491999999MW1001REMMET052SBKG 180300Z 09006KT 9999 SCT008 SCT015 22/21 Q1015;EQDQ01+000000PRSWM2
0162827950999992000011805004-07220-035880FM-15+0560SBKG V0201001N003112200019N0112651N1+02201+02201999999ADDGA1021+001509999GA2021+003609999GF104991999999999999999999MA1101291999999MW1001REMMET052SBKG 180500Z 10006KT 9999 FEW005 SCT012 22/22 Q1013;EQDQ01+000000PRSWM2
0182827950999992000011806004-07220-035880FM-15+0560SBKG V0201201N003110045019N0080001N1+02201+02101999999ADDGA1021+003009999GA2071+004509999GF107991999999999999999999MA1101291999999MW1611REMMET056SBKG 180600Z 12006KT 8000 -RA SCT010 BKN015 22/21 Q1013;EQDQ01+000003PRSWM1Q02    003PRSWM1
0162827950999992000011808004-07220-035880FM-15+0560SBKG V0201501N003110030019N0112651N1+02201+02101999999ADDGA1021+001509999GA2071+003009999GF107991999999999999999999MA1101391999999MW1001REMMET052SBKG 180800Z 15006KT 9999 SCT005 BKN010 22/21 Q1014;EQDQ01+000000PRSWM2
0162827950999992000011809004-07220-035880FM-15+0560SBKG V0201501N001010750019N0112651N1+02501+02301999999ADDGA1021+006009999GA2071+075009999GF107991999999999999999999MA1101081999999MW1001REMMET052SBKG 180900Z 15002KT 9999 FEW020 BKN250 25/23 Q1011;EQDQ01+000000PRSWM2
0162827950999992000011810004-07220-035880FM-15+0560SBKG V0201201N003110045019N0112651N1+02301+02101999999ADDGA1021+003009999GA2071+004509999GF107991999999999999999999MA1101592999999MW1001REMMET052SBKG 181000Z 12006KT 9999 FEW010 BKN015 23/21 Q1016;EQDQ01+000000PRSWM2
0162827950999992000011811004-07220-035880FM-15+0560SBKG V0201201N004110060019N0112651N1+02401+02101999999ADDGA1021+004509999GA2071+006009999GF107991999999999999999999MA1101591999999MW1001REMMET052SBKG 181100Z 12008KT 9999 FEW015 BKN020 24/21 Q1016;EQDQ01+000000PRSWM2
0323827950999992000011812004-07220-035880SY-MT+056099999V0201401N00671006001CN0100001N1+02421+01991101371ADDAA124000591AY151061AY221061GA1071+006009999GF199999031021008001001011KA1240N+02121MA1101691095201MD1999999+0171MW1021REMSYN092    AAXX  18124 82795 21597 51413 10242 20199 39520 40137 70252 83201 333 20212 58017 69954;MET045SBKG 181200Z 12010KT 9999 BKN020 25/21 Q1017;EQDQ01+000052SCOTCVQ02+000000PRSWM2Q03    003PRSWM1
0139827950999992000011813004-07220-035880FM-15+0560SBKG V0201201N005110060019N0112651N1+02701+02001999999ADDGA1071+006009999GF107991999999999999999999MA1101591999999MW1001REMMET045SBKG 181300Z 12010KT 9999 BKN020 27/20 Q1016;EQDQ01+000000PRSWM2
0139827950999992000011816004-07220-035880FM-15+0560SBKG V0201001N004112200019N0112651N1+02901+02001999999ADDGA1021+006009999GF104991999999999999999999MA1101391999999MW1001REMMET045SBKG 181600Z 10008KT 9999 SCT020 29/20 Q1014;EQDQ01+000000PRSWM2
0139827950999992000011817004-07220-035880FM-15+0560SBKG V0200901N003112200019N0112651N1+02901+02001999999ADDGA1021+006009999GF104991999999999999999999MA1101491999999MW1001REMMET045SBKG 181700Z 09006KT 9999 SCT020 29/20 Q1015;EQDQ01+000000PRSWM2
