0201829000999992000010112004-08050-034920FM-12+000799999V0200901N003110075019N0100001N1+02731+02281101091ADDAA124004191AY161061AY241061GF105991051021008001001001KA1240N+02241MA1999999101061MD1999999-0141MW1021REMSYN088AAXX  01124 82900 21597 50906 10273 20228 30106 40109 70264 85200 333 20224 59014 60044;
0167829000999992000010118004-08050-034920FM-12+000799999V0201401N003110075019N0020001N1+02871+02161100761ADDAA106000091GF106991061021008001001001MA1999999100671MD1999999-0211REMSYN070AAXX  01184 82900 32595 61406 10287 20216 30067 40076 86200 333 59021;EQDQ01  00002PRCP06
0186829000999992000010200004-08050-034920FM-12+000799999V0201401N001510075019N0020001N1+02641+02231101011ADDAA106000091GF106991061021008001001001KA1240M+02961MA1999999100921MD1999999-0061REMSYN076AAXX  02004 82900 32595 61403 10264 20223 30092 40101 86200 333 10296 59006;EQDQ01  00002PRCP06
0201829000999992000010212004-08050-034920FM-12+000799999V0200901N002610450019N0100001N1+02871+02131100991ADDAA124003091AY161061AY221061GF105991041021008001031001KA1240N+02261MA1999999100901MD1999999-0101MW1021REMSYN088AAXX  02124 82900 21597 50905 10287 20213 30090 40099 70262 84230 333 20226 59010 60034;
0167829000999992000010218004-08050-034920FM-12+000799999V0201401N005110450019N0100001N1+02921+02221100811ADDAA106000091GF106991041021008001031001MA1999999100721MD1999999+0051REMSYN070AAXX  02184 82900 32597 61410 10292 20222 30072 40081 84230 333 58005;EQDQ01  00002PRCP06
0186829000999992000010300004-08050-034920FM-12+000799999V0200901N003610075019N0020001N1+02701+02281101041ADDAA106000091GF106991061021008001001001KA1240M+02961MA1999999100951MD1999999+0031REMSYN076AAXX  03004 82900 32595 60907 10270 20228 30095 40104 86200 333 10296 58003;EQDQ01  00002PRCP06
0220829000999992000010312004-08050-034920FM-12+000799999V0200901N002119999999N0100001N1+02801+02311100971ADDAA124003091AY161061AY221061GF105991999021008001001001KA1240N+02471MA1999999100881MD1999999-0021MW1031REMSYN088AAXX  03124 82900 21597 50904 10280 20231 30088 40097 70362 86200 333 20247 59002 60034;EQDQ01+000062SCOTLC
0201829000999992000010318004-08050-034920FM-12+000799999V0203201N001510075019N0100001N1+02501+02341999999ADDAA106007991AY161061AY261061GF107991071031008001001001MA1999999100741MD1999999+0021MW1031REMSYN082AAXX  03184 82900 21597 73203 10250 20234 30074 40183 70366 87300 333 58002 60081;EQDQ01+101833APOSLP
0186829000999992000010400004-08050-034920FM-12+000799999V0209999C000010075019N0020001N1+02451+02351100981ADDAA106000091GF106991061021008001001001KA1240M+02871MA1999999100891MD1999999-0061REMSYN076AAXX  04004 82900 32595 60000 10245 20235 30089 40098 86200 333 10287 59006;EQDQ01  00002PRCP06
0201829000999992000010412004-08050-034920FM-12+000799999V0200901N003110075019N0100001N1+02761+02281101071ADDAA124016091AY161061AY251061GF108991081021008001001001KA1240N+02301MA1999999100981MD1999999-0101MW1031REMSYN088AAXX  04124 82900 21597 80906 10276 20228 30098 40107 70365 88200 333 20230 59010 60164;
0167829000999992000010418004-08050-034920FM-12+000799999V0200901N003110075019N0100001N1+02901+02391100811ADDAA106000091GF105991051021008001001001MA1999999100721MD1999999-0021REMSYN070AAXX  04184 82900 32597 50906 10290 20239 30072 40081 85200 333 59002;EQDQ01  00002PRCP06
0186829000999992000010500004-08050-034920FM-12+000799999V0201401N001512200019N0020001N1+02671+02291101031ADDAA106000091GF104991031011008001031001KA1240M+02961MA1999999100941MD1999999+0051REMSYN076AAXX  05004 82900 32595 41403 10267 20229 30094 40103 83130 333 10296 58005;EQDQ01  00002PRCP06
0201829000999992000010512004-08050-034920FM-12+000799999V0201401N003110075019N0100001N1+02801+02291101111ADDAA124013091AY161061AY221061GF106991061031008001001001KA1240N+02281MA1999999101021MD1999999+0041MW1021REMSYN088AAXX  05124 82900 21597 61406 10280 20229 30102 40111 70262 86300 333 20228 58004 60134;
0182829000999992000010518004-08050-034920FM-12+000799999V0203601N002110075019N0100001N1+02541+02291101001ADDAA106000891AY161061AY261061GF108991081071008001999999MA1999999100911MD1999999+0191MW1031REMSYN082AAXX  05184 82900 21597 83604 10254 20229 30091 40100 70366 887// 333 58019 69981;
0201829000999992000010612004-08050-034920FM-12+000799999V0201801N001510075019N0100001N1+02481+02381101271ADDAA124026991AY161061AY261061GF107991051031008001031001KA1240N+02291MA1999999101181MD1999999+0161MW1031REMSYN088AAXX  06124 82900 21597 71803 10248 20238 30118 40127 70366 85330 333 20229 58016 60274;
0201829000999992000010700004-08050-034920FM-12+000799999V0202301N001510075019N0020001N1+02351+02261101131ADDAA106019191AY161061AY261061GF107991071071008001001001KA1240M+02891MA1999999101041MD1999999+0011MW1011REMSYN088AAXX  07004 82900 21595 72303 10235 20226 30104 40113 70166 87700 333 10289 58001 60191;
0201829000999992000010712004-08050-034920FM-12+000799999V0203201N001510075019N0100001N1+02241+02101101191ADDAA124115191AY161061AY251061GF108991081021008001001001KA1240N+02261MA1999999101101MD1999999-0081MW1031REMSYN088AAXX  07124 82900 21597 83203 10224 20210 30110 40119 70365 88200 333 20226 59008 61154;
0182829000999992000010718004-08050-034920FM-12+000799999V0202301N001510075019N0100001N1+02431+02231100991ADDAA106005191AY161061AY231061GF106991061021008001001001MA1999999100901MD1999999-0021MW1021REMSYN082AAXX  07184 82900 21597 62303 10243 20223 30090 40099 70263 86200 333 59002 60051;
0201829000999992000010800004-08050-034920FM-12+000799999V0209999C000010075019N0020001N1+02431+02391101001ADDAA106002091AY161061AY221061GF106991061021008001001001KA1240M+02721MA1999999100911MD1999999-0131MW1031REMSYN088AAXX  08004 82900 21595 60000 10243 20239 30091 40100 70362 86200 333 10272 59013 60021;
0201829000999992000010812004-08050-034920FM-12+000799999V0200901N004610075019N0100001N1+02711+02331101101ADDAA124023991AY161061AY261061GF107991071051008001001001KA1240N+02301MA1999999101011MD1999999-0091MW1021REMSYN088AAXX  08124 82900 21597 70909 10271 20233 30101 40110 70266 87500 333 20230 59009 60244;
0182829000999992000010818004-08050-034920FM-12+000799999V0200901N003110075019N0100001N1+02631+02411100981ADDAA106009991AY161061AY261061GF107991071071008001001001MA1999999100891MD1999999-0011MW1031REMSYN082AAXX  08184 82900 21597 70906 10263 20241 30089 40098 70366 87700 333 59001 60101;
0201829000999992000010900004-08050-034920FM-12+000799999V0201401N001510075019N0020001N1+02531+02331101051ADDAA106009991AY161061AY261061GF107991071071008001001001KA1240M+02781MA1999999100961MD1999999+0051MW1031REMSYN088AAXX  09004 82900 21595 71403 10253 20233 30096 40105 70366 87700 333 10278 58005 60101;
0201829000999992000010912004-08050-034920FM-12+000799999V0201401N003610075019N0100001N1+02751+02321101241ADDAA124024991AY161061AY261061GF106991061021008001001001KA1240N+02301MA1999999101151MD1999999+0141MW1021REMSYN088AAXX  09124 82900 21597 61407 10275 20232 30115 40124 70266 86200 333 20230 58014 60254;
0186829000999992000011000004-08050-034920FM-12+000799999V0201401N001512200019N0020001N1+02631+02231101351ADDAA106000091GF102991021011008001001001KA1240M+02941MA1999999101261MD1999999+0041REMSYN076AAXX  10004 82900 32595 21403 10263 20223 30126 40135 82100 333 10294 58004;EQDQ01  00002PRCP06
0201829000999992000011012004-08050-034920FM-12+000799999V0201801N003110075019N0100001N1+02811+02081101191ADDAA124005191AY161061AY221061GF106991061021008001001001KA1240N+02401MA1999999101101MD1999999-0051MW1031REMSYN088AAXX  10124 82900 21597 61806 10281 20208 30110 40119 70362 86200 333 20240 59005 60054;
0167829000999992000011018004-08050-034920FM-12+000799999V0201801N003610075019N0100001N1+02891+02101100891ADDAA106000091GF105991051021008001001001MA1999999100801MD1999999-0231REMSYN070AAXX  10184 82900 32597 51807 10289 20210 30080 40089 85200 333 59023;EQDQ01  00002PRCP06
0186829000999992000011100004-08050-034920FM-12+000799999V0201801N001512200019N0020001N1+02561+02111101111ADDAA106000091GF101991011021008001001001KA1240M+02941MA1999999101021MD1999999-0241REMSYN076AAXX  11004 82900 32595 11803 10256 20211 30102 40111 81200 333 10294 59024;EQDQ01  00002PRCP06
0186829000999992000011112004-08050-034920FM-12+000799999V0201801N002112200019N0100001N1+02761+02141101121ADDAA106000091GF104991041021008001001001KA1240N+02161MA1999999101031MD1999999-0071REMSYN076AAXX  11124 82900 32597 41804 10276 20214 30103 40112 84200 333 20216 59007;EQDQ01  00002PRCP06
0167829000999992000011118004-08050-034920FM-12+000799999V0201801N005112200019N0100001N1+02881+02301100891ADDAA106000091GF103991031021008001001001MA1999999100801MD1999999+0001REMSYN070AAXX  11184 82900 32597 31810 10288 20230 30080 40089 83200 333 58000;EQDQ01  00002PRCP06
0186829000999992000011200004-08050-034920FM-12+000799999V0201801N001510075019N0020001N1+02581+02271100951ADDAA106000091GF106991061021008001001001KA1240M+02941MA1999999100861MD1999999-0161REMSYN076AAXX  12004 82900 32595 61803 10258 20227 30086 40095 86200 333 10294 59016;EQDQ01  00002PRCP06
0201829000999992000011212004-08050-034920FM-12+000799999V0202301N001510450019N0100001N1+02721+02261101111ADDAA124000391AY161061AY221061GF106991041021008001041001KA1240N+02231MA1999999101021MD1999999-0011MW1021REMSYN088AAXX  12124 82900 21597 62303 10272 20226 30102 40111 70262 84240 333 20223 59001 69934;
0167829000999992000011218004-08050-034920FM-12+000799999V0200901N003112200019N0100001N1+02861+02181100991ADDAA106000091GF101991011011008001021001MA1999999100901MD1999999+0101REMSYN070AAXX  12184 82900 32597 10906 10286 20218 30090 40099 81120 333 58010;EQDQ01  00002PRCP06
0186829000999992000011300004-08050-034920FM-12+000799999V0200901N002110075019N0020001N1+02691+02221101151ADDAA106000091GF106991061021008001001001KA1240M+02951MA1999999101061MD1999999+0201REMSYN076AAXX  13004 82900 32595 60904 10269 20222 30106 40115 86200 333 10295 58020;EQDQ01  00002PRCP06
0186829000999992000011312004-08050-034920FM-12+000799999V0201401N001510075019N0100001N1+02841+02351101191ADDAA106000091GF106991061021008001001001KA1240N+02281MA1999999101101MD1999999+0081REMSYN076AAXX  13124 82900 32597 61403 10284 20235 30110 40119 86200 333 20228 58008;EQDQ01  00002PRCP06
0167829000999992000011318004-08050-034920FM-12+000799999V0201401N003110075019N0100001N1+02961+02351101031ADDAA106000091GF105991051021008001001001MA1999999100941MD1999999+0041REMSYN070AAXX  13184 82900 32597 51406 10296 20235 30094 40103 85200 333 58004;EQDQ01  00002PRCP06
0190829000999992000011400004-08050-034920FM-12+000799999V0201801N003110075019N0020001N1+02671+02351101101ADDAA199000091GF106991061021008001001001KA1240M+02981MA1999999101011MD1999999-0051REMSYN080    AAXX  14004 82900 32595 61806 10267 20235 30101 40110 86200 333 10298 59005;EQDQ01  00002PRCP99
0205829000999992000011412004-08050-034920FM-12+000799999V0201401N003610075019N0100001N1+02781+02361101011ADDAA124002091AY161061AY221061GF106991061031008001001001KA1240N+02341MA1999999100921MD1999999-0181MW1021REMSYN092    AAXX  14124 82900 21597 61407 10278 20236 30092 40101 70262 86300 333 20234 59018 60024;
0171829000999992000011418004-08050-034920FM-12+000799999V0200901N004610075019N0100001N1+02741+02401100801ADDAA199000091GF107991061051008001041001MA1999999100711MD1999999-0231REMSYN074    AAXX  14184 82900 32597 70909 10274 20240 30071 40080 86540 333 59023;EQDQ01  00002PRCP99
0205829000999992000011500004-08050-034920FM-12+000799999V0201801N002610075019N0020001N1+02541+02351100951ADDAA106009991AY161061AY221061GF107991071071008001001001KA1240M+02971MA1999999100861MD1999999-0151MW1601REMSYN092    AAXX  15004 82900 21595 71805 10254 20235 30086 40095 76062 87700 333 10297 59015 60101;
0224829000999992000011512004-08050-034920FM-12+000799999V0200901N002119999999N0100001N1+02871+02231101111ADDAA124010991AY161061AY221061GF105991999021008001001001KA1240N+02471MA1999999101021MD1999999+0101MW1021REMSYN092    AAXX  15124 82900 21597 50904 10287 20223 30102 40111 70262 84200 333 20247 58010 60114;EQDQ01+000042SCOTLC
0171829000999992000011518004-08050-034920FM-12+000799999V0201801N003112200019N0100001N1+02921+02081100871ADDAA199000091GF102991021011008001001001MA1999999100781MD1999999+0071REMSYN074    AAXX  15184 82900 32597 21806 10292 20208 30078 40087 82100 333 58007;EQDQ01  00002PRCP99
0206829000999992000011600004-08050-034920FM-12+000799999V0201401N001012200019N0020001N1+02471+02271100991ADDAA199000091GF103991999011008001001001KA1240M+03031MA1999999100881MD1999999+0021REMSYN080    AAXX  16004 82900 32595 31402 10247 20227 30088 40099 82100 333 10303 58002;EQDQ01+000022SCOTLCQ02  00002PRCP99
0190829000999992000011612004-08050-034920FM-12+000799999V0200901N002110075019N0100001N1+02881+02301101031ADDAA199000091GF106991061021008001001001KA1240N+02161MA1999999100941MD1999999-0081REMSYN080    AAXX  16124 82900 32597 60904 10288 20230 30094 40103 86200 333 20216 59008;EQDQ01  00002PRCP99
0171829000999992000011618004-08050-034920FM-12+000799999V0200901N003110075019N0100001N1+02951+02261100931ADDAA199000091GF106991061021008001001001MA1999999100841MD1999999+0061REMSYN074    AAXX  16184 82900 32597 60906 10295 20226 30084 40093 86200 333 58006;EQDQ01  00002PRCP99
0190829000999992000011700004-08050-034920FM-12+000799999V0200901N001510075019N0020001N1+02731+02301101061ADDAA199000091GF106991061041008001001001KA1240M+03001MA1999999100971MD1999999+0091REMSYN080    AAXX  17004 82900 32595 60903 10273 20230 30097 40106 86400 333 10300 58009;EQDQ01  00002PRCP99
0190829000999992000011712004-08050-034920FM-12+000799999V0200501N002610075019N0100001N1+02821+02401101191ADDAA199000091GF106991051031008001021001KA1240N+02341MA1999999101101MD1999999+0161REMSYN080    AAXX  17124 82900 32597 60505 10282 20240 30110 40119 85320 333 20234 58016;EQDQ01  00002PRCP99
0171829000999992000011718004-08050-034920FM-12+000799999V0200901N005110075019N0100001N1+02941+02361100991ADDAA199000091GF106991061021008001001001MA1999999100901MD1999999+0061REMSYN074    AAXX  17184 82900 32597 60910 10294 20236 30090 40099 86200 333 58006;EQDQ01  00002PRCP99
0205829000999992000011800004-08050-034920FM-12+000799999V0200501N003110075019N0020001N1+02721+02211101241ADDAA106006191AY161061AY221061GF106991061021008001001001KA1240M+02991MA1999999101151MD1999999+0181MW1031REMSYN092    AAXX  18004 82900 21595 60506 10272 20221 30115 40124 70362 86200 333 10299 58018 60061;
0205829000999992000011812004-08050-034920FM-12+000799999V0200901N003610075019N0100001N1+02901+02271101371ADDAA124013091AY161061AY261061GF106991061021008001001001KA1240N+02241MA1999999101281MD1999999+0181MW1021REMSYN092    AAXX  18124 82900 21597 60907 10290 20227 30128 40137 70266 86200 333 20224 58018 60134;
0186829000999992000011818004-08050-034920FM-12+000799999V0200901N003610075019N0100001N1+02861+02191101051ADDAA106001091AY161061AY261061GF106991061021008001001001MA1999999100961MD1999999+0061MW1031REMSYN086    AAXX  18184 82900 21597 60907 10286 20219 30096 40105 70366 86200 333 58006 60011;
0190829000999992000011900004-08050-034920FM-12+000799999V0200901N003110075019N0020001N1+02671+02291101181ADDAA199000091GF106991061021008001001001KA1240M+02981MA1999999101091MD1999999-0061REMSYN080    AAXX  19004 82900 32595 60906 10267 20229 30109 40118 86200 333 10298 59006;EQDQ01  00002PRCP99
0177829000999992000011912004-08050-034920FM-12+000799999V0200901N003110075019N0100001N1+02871+02081101271ADDAA124001091GF105991051021008001001001KA1240N+02331MA1999999101181MD1999999-0101REMSYN086    AAXX  19124 82900 22597 50906 10287 20208 30118 40127 85200 333 20233 59010 60014;
0167829000999992000011918004-08050-034920FM-12+000799999V0200901N001510075019N0100001N1+02951+02101101021ADDAA199000091GF106991061021008001001001MA1999999100931MD1999999-0031REMSYN070AAXX  19184 82900 32597 60903 10295 20210 30093 40102 86200 333 59003;EQDQ01  00002PRCP99
0186829000999992000012000004-08050-034920FM-12+000799999V0200501N001512200019N0020001N1+02651+02181100991ADDAA199000091GF102991021011008001001001KA1240M+03021MA1999999100901MD1999999-0191REMSYN076AAXX  20004 82900 32595 20503 10265 20218 30090 40099 82100 333 10302 59019;EQDQ01  00002PRCP99
0186829000999992000012012004-08050-034920FM-12+000799999V0203601N002110075019N0100001N1+02801+02271101171ADDAA199000091GF105991051021008001001001KA1240N+02101MA1999999101081MD1999999-0101REMSYN076AAXX  20124 82900 32597 53604 10280 20227 30108 40117 85200 333 20210 59010;EQDQ01  00002PRCP99
0167829000999992000012018004-08050-034920FM-12+000799999V0200501N004112200019N0100001N1+03071+02301100791ADDAA199000091GF103991031011008001001001MA1999999100701MD1999999-0231REMSYN070AAXX  20184 82900 32597 30508 10307 20230 30070 40079 83100 333 59023;EQDQ01  00002PRCP99
0186829000999992000012100004-08050-034920FM-12+000799999V0203601N001510075019N0020001N1+02721+02321101091ADDAA199000091GF106991061021008001001001KA1240M+03191MA1999999101001MD1999999+0101REMSYN076AAXX  21004 82900 32595 63603 10272 20232 30100 40109 86200 333 10319 58010;EQDQ01  00002PRCP99
0201829000999992000012112004-08050-034920FM-12+000799999V0201801N001510075019N0100001N1+02481+02381101271ADDAA124026991AY161061AY261061GF107991051031008001031001KA1240N+02291MA1999999101181MD1999999+0161MW1031REMSYN088AAXX  21124 82900 21597 71803 10248 20238 30118 40127 70366 85330 333 20229 58016 60274;
0167829000999992000012118004-08050-034920FM-12+000799999V0200901N003110075019N0100001N1+03031+02311100961ADDAA199000091GF106991061021008001001001MA1999999100871MD1999999+0171REMSYN070AAXX  21184 82900 32597 60906 10303 20231 30087 40096 86200 333 58017;EQDQ01  00002PRCP99
0186829000999992000012200004-08050-034920FM-12+000799999V0200501N003110075019N0020001N1+02771+02441101161ADDAA199000091GF106991061021008001001001KA1240M+03191MA1999999101071MD1999999+0071REMSYN076AAXX  22004 82900 32595 60506 10277 20244 30107 40116 86200 333 10319 58007;EQDQ01  00002PRCP99
0186829000999992000012212004-08050-034920FM-12+000799999V0200501N002110450019N0100001N1+02961+02281101321ADDAA199000091GF106991041021008001031001KA1240N+02421MA1999999101291MD1999999+0111REMSYN076AAXX  22124 82900 32597 60504 10296 20228 30129 40132 84230 333 20242 58011;EQDQ01  00002PRCP99
0167829000999992000012218004-08050-034920FM-12+000799999V0200901N004110450019N0100001N1+02971+02371100981ADDAA199000091GF106991041021008001031001MA1999999100891MD1999999+0021REMSYN070AAXX  22184 82900 32597 60908 10297 20237 30089 40098 84230 333 58002;EQDQ01  00002PRCP99
0186829000999992000012300004-08050-034920FM-12+000799999V0200501N002110075019N0020001N1+02751+02341101251ADDAA199000091GF106991061021008001001001KA1240M+03101MA1999999101161MD1999999+0091REMSYN076AAXX  23004 82900 32595 60504 10275 20234 30116 40125 86200 333 10310 58009;EQDQ01  00002PRCP99
0186829000999992000012312004-08050-034920FM-12+000799999V0200501N001010075019N0100001N1+02861+02261101191ADDAA199000091GF105991051021008001001001KA1240N+02271MA1999999101101MD1999999-0191REMSYN076AAXX  23124 82900 32597 50502 10286 20226 30110 40119 85200 333 20227 59019;EQDQ01  00002PRCP99
0183829000999992000012318004-08050-034920FM-12+000799999V0200501N004619999999N0100001N1+02951+02261100991ADDAA199000091GF106991999021008001001001MA1999999100901MD1999999+0011REMSYN070AAXX  23184 82900 32597 60509 10295 20226 30090 40099 84200 333 58001;EQDQ01+000042SCOTLCQ02  00002PRCP99
0202829000999992000012400004-08050-034920FM-12+000799999V0209999C000010075019N0020001N1+02591+02391101121ADDAA199000091GF106991999021008001001001KA1240M+03021MA1999999101031MD1999999-0131REMSYN076AAXX  24004 82900 32595 60000 10259 20239 30103 40112 85200 333 10302 59013;EQDQ01+000052SCOTLCQ02  00002PRCP99
0186829000999992000012412004-08050-034920FM-12+000799999V0200501N002110450019N0100001N1+02831+02101101191ADDAA199000091GF106991041021008001041001KA1240N+02261MA1999999101101MD1999999+0001REMSYN076AAXX  24124 82900 32597 60504 10283 20210 30110 40119 84240 333 20226 58000;EQDQ01  00002PRCP99
0186829000999992000012500004-08050-034920FM-12+000799999V0200501N001512200019N0020001N1+02701+02281101131ADDAA199000091GF102991021011008001001001KA1240M+03121MA1999999101041MD1999999+0011REMSYN076AAXX  25004 82900 32595 20503 10270 20228 30104 40113 82100 333 10312 58001;EQDQ01  00002PRCP99
0186829000999992000012512004-08050-034920FM-12+000799999V0200501N001510075019N0100001N1+02861+02311101231ADDAA199000091GF105991051021008001001001KA1240N+02241MA1999999101141MD1999999+0041REMSYN076AAXX  25124 82900 32597 50503 10286 20231 30114 40123 85200 333 20224 58004;EQDQ01  00002PRCP99
0167829000999992000012518004-08050-034920FM-12+000799999V0200901N003612200019N0100001N1+02971+02331101061ADDAA199000091GF103991031021008001001001MA1999999100971MD1999999+0081REMSYN070AAXX  25184 82900 32597 30907 10297 20233 30097 40106 83200 333 58008;EQDQ01  00002PRCP99
0186829000999992000012600004-08050-034920FM-12+000799999V0200501N002610075019N0020001N1+02751+02341101181ADDAA199000091GF105991051021008001001001KA1240M+03151MA1999999101091MD1999999+0011REMSYN076AAXX  26004 82900 32595 50505 10275 20234 30109 40118 85200 333 10315 58001;EQDQ01  00002PRCP99
0201829000999992000012612004-08050-034920FM-12+000799999V0200901N003610075019N0100001N1+02841+02311101401ADDAA124004191AY161061AY221061GF105991051021008001001001KA1240N+02271MA1999999101311MD1999999+0171MW1021REMSYN088AAXX  26124 82900 21597 50907 10284 20231 30131 40140 70262 85200 333 20227 58017 60044;
0167829000999992000012618004-08050-034920FM-12+000799999V0200901N003610075019N0100001N1+02961+02351101071ADDAA199000091GF106991061021008001001001MA1999999100981MD1999999+0011REMSYN070AAXX  26184 82900 32597 60907 10296 20235 30098 40107 86200 333 58001;EQDQ01  00002PRCP99
0202829000999992000012700004-08050-034920FM-12+000799999V0202001N046829999999N0020001N1+99999+99999999999ADDAA199000091KA1240M+03351MA1999999999999MD1999999+0101REMSYN070AAXX  27004 82900 32595 /2091 20909 39791 4//// 82200 333 10335 58010;EQDQ01+004683WOSPD Q02+097913APOSP Q03  00002PRCP99Q04 097913APOSP 
0186829000999992000012712004-08050-034920FM-12+000799999V0200901N001510075019N0100001N1+02801+02081101311ADDAA199000091GF106991061021008001001001KA1240N+02301MA1999999101221MD1999999-0091REMSYN076AAXX  27124 82900 32597 60903 10280 20208 30122 40131 86200 333 20230 59009;EQDQ01  00002PRCP99
0167829000999992000012718004-08050-034920FM-12+000799999V0200901N003110075019N0100001N1+02971+02121100981ADDAA199000091GF105991051021008001001001MA1999999100891MD1999999-0091REMSYN070AAXX  27184 82900 32597 50906 10297 20212 30089 40098 85200 333 59009;EQDQ01  00002PRCP99
0186829000999992000012800004-08050-034920FM-12+000799999V0200901N001512200019N0020001N1+02711+02391101231ADDAA199000091GF104991041021008001001001KA1240M+03061MA1999999101141MD1999999+0001REMSYN076AAXX  28004 82900 32595 40903 10271 20239 30114 40123 84200 333 10306 58000;EQDQ01  00002PRCP99
0206829000999992000012812004-08050-034920FM-12+000799999V0200201N006712200019N0200001N1+99999+99999101331ADDAA199000091GF102991999011008001001001KA1240N+02341MA1999999999999MD1999999+0021REMSYN064AAXX  28124 82900 32598 20213 39719 40133 85100 333 20234 58002;EQDQ01+000052SCOTLCQ02  00002PRCP99Q03 097193APOSP 
0183829000999992000012818004-08050-034920FM-12+000799999V0200901N004612200019N0100001N1+02981+02301100951ADDAA199000091GF103991031021008001001001MA1999999100862MD1999999-0031REMSYN070AAXX  28184 82900 32597 30909 10298 20230 30086 40095 83200 333 59003;EQDQ01+100863APOSP Q02  00002PRCP99
0186829000999992000012900004-08050-034920FM-12+000799999V0200901N001512200019N0020001N1+02711+02281101171ADDAA199000091GF103991031021008001001001KA1240M+03061MA1999999101081MD1999999-0061REMSYN076AAXX  29004 82900 32595 30903 10271 20228 30108 40117 83200 333 10306 59006;EQDQ01  00002PRCP99
0186829000999992000012912004-08050-034920FM-12+000799999V0200901N002110075019N0100001N1+02961+02281101281ADDAA199000091GF105991051021008001001001KA1240N+02281MA1999999101191MD1999999+0031REMSYN076AAXX  29124 82900 32597 50904 10296 20228 30119 40128 85200 333 20228 58003;EQDQ01  00002PRCP99
0167829000999992000012918004-08050-034920FM-12+000799999V0200901N003110075019N0100001N1+02981+02251101111ADDAA199000091GF106991061021008001001001MA1999999101021MD1999999-0061REMSYN070AAXX  29184 82900 32597 60906 10298 20225 30102 40111 86200 333 59006;EQDQ01  00002PRCP99
0202829000999992000013000004-08050-034920FM-12+000799999V0200901N003119999999N0020001N1+02771+02231101161ADDAA199000091GF105991999011008001001001KA1240M+03081MA1999999101041MD1999999-0051REMSYN076AAXX  30004 82900 32595 50906 10277 20223 30104 40116 82100 333 10308 59005;EQDQ01+000022SCOTLCQ02  00002PRCP99
0186829000999992000013012004-08050-034920FM-12+000799999V0201401N003110075019N0100001N1+02921+02361101421ADDAA199000091GF106991061021008001001001KA1240N+02651MA1999999101331MD1999999+0141REMSYN076AAXX  30124 82900 32597 61406 10292 20236 30133 40142 86200 333 20265 58014;EQDQ01  00002PRCP99
0167829000999992000013018004-08050-034920FM-12+000799999V0200901N005110075019N0100001N1+02851+02351101211ADDAA199000091GF106991061071008001001001MA1999999101121MD1999999-0101REMSYN070AAXX  30184 82900 32597 60910 10285 20235 30112 40121 86700 333 59010;EQDQ01  00002PRCP99
0201829000999992000013100004-08050-034920FM-12+000799999V0202301N001010075019N0020001N1+02671+02431101371ADDAA106005191AY161061AY221061GF107991071071008001001001KA1240M+03041MA1999999101281MD1999999+0211MW1011REMSYN088AAXX  31004 82900 21595 72302 10267 20243 30128 40137 70162 87700 333 10304 58021 60051;
0173829000999992000013112004-08050-034920FM-12+000799999V0201401N003110075019N0100001N1+02881+02321101591ADDAA124005191GF106991061021008001001001KA1240N+02201MA1999999101501MD1999999+0171REMSYN082AAXX  31124 82900 22597 61406 10288 20232 30150 40159 86200 333 20220 58017 60054;
0167829000999992000013118004-08050-034920FM-12+000799999V0201801N004110075019N0100001N1+02891+02281101291ADDAA199000091GF105991051021008001001001MA1999999101201MD1999999+0081REMSYN070AAXX  31184 82900 32597 51808 10289 20228 30120 40129 85200 333 58008;EQDQ01  00002PRCP99
0186829000999992000020100004-08050-034920FM-12+000799999V0201801N003112200019N0020001N1+02681+02291101431ADDAA199000091GF103991031021008001001001KA1240M+03011MA1999999101341MD1999999+0061REMSYN076AAXX  01004 82900 32595 31806 10268 20229 30134 40143 83200 333 10301 58006;EQDQ01  00002PRCP99
0201829000999992000020112004-08050-034920FM-12+000799999V0201401N004610075019N0100001N1+02901+02301101521ADDAA124007991AY161061AY221061GF107991061051008001031001KA1240N+02301MA1999999101431MD1999999-0071MW1031REMSYN088AAXX  01124 82900 21597 71409 10290 20230 30143 40152 70362 86530 333 20230 59007 60084;
0167829000999992000020118004-08050-034920FM-12+000799999V0201401N003610075019N0100001N1+02921+02241101211ADDAA199000091GF105991051021008001001001MA1999999101121MD1999999-0081REMSYN070AAXX  01184 82900 32597 51407 10292 20224 30112 40121 85200 333 59008;EQDQ01  00002PRCP99
0186829000999992000020200004-08050-034920FM-12+000799999V0200901N002610075019N0020001N1+02691+02311101441ADDAA199000091GF105991051011008001001001KA1240M+02961MA1999999101351MD1999999+0011REMSYN076AAXX  02004 82900 32595 50905 10269 20231 30135 40144 85100 333 10296 58001;EQDQ01  00002PRCP99
0186829000999992000020212004-08050-034920FM-12+000799999V0209999C000010075019N0100001N1+02851+02331101271ADDAA199000091GF105991051021008001001001KA1240N+02281MA1999999101181MD1999999-0101REMSYN076AAXX  02124 82900 32597 50000 10285 20233 30118 40127 85200 333 20228 59010;EQDQ01  00002PRCP99
0186829000999992000020300004-08050-034920FM-12+000799999V0203601N001012200019N0020001N1+02711+02411101281ADDAA199000091GF102991021011008001001001KA1240M+03161MA1999999101131MD1999999-0221REMSYN076AAXX  03004 82900 32595 23602 10271 20241 30113 40128 82100 333 10316 59022;EQDQ01  00002PRCP99
0186829000999992000020312004-08050-034920FM-12+000799999V0203601N003110450019N0100001N1+02831+02381101191ADDAA199000091GF106991041021008001041001KA1240N+02341MA1999999101101MD1999999-0141REMSYN076AAXX  03124 82900 32597 63606 10283 20238 30110 40119 84240 333 20234 59014;EQDQ01  00002PRCP99
0167829000999992000020318004-08050-034920FM-12+000799999V0200501N003112200019N0100001N1+03081+02211100821ADDAA199000091GF101991011021008001001001MA1999999100731MD1999999-0251REMSYN070AAXX  03184 82900 32597 10506 10308 20221 30073 40082 81200 333 59025;EQDQ01  00002PRCP99
0196829000999992000020400004-08050-034920FM-12+000799999V0203601N001512200019N0020001N1+02691+02371101081ADDAA199000091GA1001+999999999GF100991001001999999001001KA1240M+03191MA1999999100991MD1999999-0141REMSYN070AAXX  04004 82900 32995 03603 10269 20237 30099 40108 333 10319 59014;EQDQ01  00002PRCP99
0186829000999992000020412004-08050-034920FM-12+000799999V0203601N002110075019N0100001N1+02871+02371101371ADDAA199000091GF106991051041008001021001KA1240N+02341MA1999999101281MD1999999+0181REMSYN076AAXX  04124 82900 32597 63604 10287 20237 30128 40137 85420 333 20234 58018;EQDQ01  00002PRCP99
0167829000999992000020418004-08050-034920FM-12+000799999V0200501N005712200019N0100001N1+03131+02181101091ADDAA199000091GF102991021001008001031001MA1999999101001MD1999999+0271REMSYN070AAXX  04184 82900 32597 20511 10313 20218 30100 40109 82030 333 58027;EQDQ01  00002PRCP99
0202829000999992000020500004-08050-034920FM-12+000799999V0200501N001512200019N0020001N1+02731+02401101161ADDAA199000091GF101991999011008001001001KA1240M+03201MA1999999101071MD1999999+0081REMSYN076AAXX  05004 82900 32595 10503 10273 20240 30107 40116 82100 333 10320 58008;EQDQ01+000022SCOTLCQ02  00002PRCP99
0186829000999992000020512004-08050-034920FM-12+000799999V0200501N002110075019N0100001N1+02941+02291101441ADDAA199000091GF106991061021008001001001KA1240N+02261MA1999999101351MD1999999+0071REMSYN076AAXX  05124 82900 32597 60504 10294 20229 30135 40144 86200 333 20226 58007;EQDQ01  00002PRCP99
0167829000999992000020518004-08050-034920FM-12+000799999V0200901N004612200019N0100001N1+03091+02371101201ADDAA199000091GF104991041011008001001001MA1999999101111MD1999999+0111REMSYN070AAXX  05184 82900 32597 40909 10309 20237 30111 40120 84100 333 58011;EQDQ01  00002PRCP99
0186829000999992000020612004-08050-034920FM-12+000799999V0200901N003110075019N0100001N1+02981+02331101381ADDAA199000091GF105991051021008001001001KA1240N+02341MA1999999101291MD1999999-0061REMSYN076AAXX  06124 82900 32597 50906 10298 20233 30129 40138 85200 333 20234 59006;EQDQ01  00002PRCP99
0167829000999992000020618004-08050-034920FM-12+000799999V0200901N004610075019N0100001N1+02961+02401101161ADDAA199000091GF106991061021008001001001MA1999999101071MD1999999-0041REMSYN070AAXX  06184 82900 32597 60909 10296 20240 30107 40116 86200 333 59004;EQDQ01  00002PRCP99
0186829000999992000020700004-08050-034920FM-12+000799999V0200501N002112200019N0020001N1+02741+02301101291ADDAA199000091GF104991041021008001001001KA1240M+03041MA1999999101201MD1999999-0031REMSYN076AAXX  07004 82900 32595 40504 10274 20230 30120 40129 84200 333 10304 59003;EQDQ01  00002PRCP99
0201829000999992000020712004-08050-034920FM-12+000799999V0200901N003110075019N0100001N1+02831+02241101351ADDAA124001091AY161061AY211061GF106991061021008001001001KA1240N+02381MA1999999101261MD1999999-0031MW1031REMSYN088AAXX  07124 82900 21597 60906 10283 20224 30126 40135 70361 86200 333 20238 59003 60014;
0167829000999992000020718004-08050-034920FM-12+000799999V0200901N002610075019N0100001N1+02961+02261101101ADDAA199000091GF105991051021008001001001MA1999999101011MD1999999-0061REMSYN070AAXX  07184 82900 32597 50905 10296 20226 30101 40110 85200 333 59006;EQDQ01  00002PRCP99
0186829000999992000020800004-08050-034920FM-12+000799999V0200901N003110075019N0020001N1+02751+02281101311ADDAA199000091GF105991051021008001001001KA1240M+03121MA1999999101221MD1999999+0021REMSYN076AAXX  08004 82900 32595 50906 10275 20228 30122 40131 85200 333 10312 58002;EQDQ01  00002PRCP99
0201829000999992000020812004-08050-034920FM-12+000799999V0200901N004110075019N0100001N1+02921+02361101501ADDAA124015091AY161061AY221061GF107991061071008001021001KA1240N+02361MA1999999101411MD1999999+0151MW1011REMSYN088AAXX  08124 82900 21597 70908 10292 20236 30141 40150 70162 86720 333 20236 58015 60154;
0167829000999992000020818004-08050-034920FM-12+000799999V0200901N003112200019N0100001N1+02941+02291101111ADDAA199000091GF104991031021008001031001MA1999999101051MD1999999+0011REMSYN070AAXX  08184 82900 32597 40906 10294 20229 30105 40111 83230 333 58001;EQDQ01  00002PRCP99
0186829000999992000020900004-08050-034920FM-12+000799999V0200901N003112200019N0020001N1+02761+02281101371ADDAA199000091GF104991041021008001001001KA1240M+03021MA1999999101281MD1999999+0061REMSYN076AAXX  09004 82900 32595 40906 10276 20228 30128 40137 84200 333 10302 58006;EQDQ01  00002PRCP99
0186829000999992000020912004-08050-034920FM-12+000799999V0201401N004110075019N0100001N1+02921+02321101421ADDAA199000091GF106991061021008001001001KA1240N+02251MA1999999101331MD1999999-0081REMSYN076AAXX  09124 82900 32597 61408 10292 20232 30133 40142 86200 333 20225 59008;EQDQ01  00002PRCP99
0167829000999992000020918004-08050-034920FM-12+000799999V0201401N004110075019N0100001N1+02941+02241101191ADDAA199000091GF106991061021008001001001MA1999999101101MD1999999+0081REMSYN070AAXX  09184 82900 32597 61408 10294 20224 30110 40119 86200 333 58008;EQDQ01  00002PRCP99
0186829000999992000021000004-08050-034920FM-12+000799999V0200901N002110450019N0020001N1+02671+02331101291ADDAA199000091GF105991031011008001051001KA1240M+03041MA1999999101201MD1999999-0081REMSYN076AAXX  10004 82900 32595 50904 10267 20233 30120 40129 83150 333 10304 59008;EQDQ01  00002PRCP99
0201829000999992000021012004-08050-034920FM-12+000799999V0200901N002110075019N0100001N1+02741+02261101371ADDAA124000591AY151061AY231061GF106991061021008001001001KA1240N+02461MA1999999101281MD1999999-0051MW1021REMSYN088AAXX  10124 82900 21597 60904 10274 20226 30128 40137 70253 86200 333 20246 59005 69944;
0167829000999992000021018004-08050-034920FM-12+000799999V0200901N003110075019N0100001N1+02921+02321101131ADDAA199000091GF106991061021008001001001MA1999999101041MD1999999-0061REMSYN070AAXX  10184 82900 32597 60906 10292 20232 30104 40113 86200 333 59006;EQDQ01  00002PRCP99
0186829000999992000021100004-08050-034920FM-12+000799999V0200901N003110075019N0020001N1+02771+02321101161ADDAA199000091GF106991061021008001001001KA1240M+03061MA1999999101071MD1999999-0131REMSYN076AAXX  11004 82900 32595 60906 10277 20232 30107 40116 86200 333 10306 59013;EQDQ01  00002PRCP99
0186829000999992000021112004-08050-034920FM-12+000799999V0201401N003110075019N0100001N1+02861+02161101211ADDAA199000091GF105991051021008001001001KA1240N+02381MA1999999101121MD1999999-0161REMSYN076AAXX  11124 82900 32597 51406 10286 20216 30112 40121 85200 333 20238 59016;EQDQ01  00002PRCP99
0167829000999992000021118004-08050-034920FM-12+000799999V0201401N005110075019N0100001N1+02931+02241101111ADDAA199000091GF106991061021008001001001MA1999999101021MD1999999-0021REMSYN070AAXX  11184 82900 32597 61410 10293 20224 30102 40111 86200 333 59002;EQDQ01  00002PRCP99
0186829000999992000021200004-08050-034920FM-12+000799999V0201401N003112200019N0020001N1+02731+02191101161ADDAA199000091GF102991021011008001001001KA1240M+03041MA1999999101071MD1999999+0001REMSYN076AAXX  12004 82900 32595 21406 10273 20219 30107 40116 82100 333 10304 58000;EQDQ01  00002PRCP99
0202829000999992000021212004-08050-034920FM-12+000799999V0201401N003110075019N0100001N1+02891+02221101361ADDAA199000091GF106991999021008001001001KA1240N+02101MA1999999101271MD1999999+0151REMSYN076AAXX  12124 82900 32597 61406 10289 20222 30127 40136 85200 333 20210 58015;EQDQ01+000052SCOTLCQ02  00002PRCP99
0167829000999992000021218004-08050-034920FM-12+000799999V0201401N003610075019N0100001N1+02961+02211101091ADDAA199000091GF105991051021008001001001MA1999999101001MD1999999-0051REMSYN070AAXX  12184 82900 32597 51407 10296 20221 30100 40109 85200 333 59005;EQDQ01  00002PRCP99
0186829000999992000021300004-08050-034920FM-12+000799999V0201401N001510075019N0020001N1+02761+02341101181ADDAA199000091GF105991051021008001001001KA1240M+03081MA1999999101091MD1999999+0021REMSYN076AAXX  13004 82900 32595 51403 10276 20234 30109 40118 85200 333 10308 58002;EQDQ01  00002PRCP99
0186829000999992000021312004-08050-034920FM-12+000799999V0201801N005710075019N0100001N1+02821+02291101231ADDAA199000091GF107991061051008001041001KA1240N+02221MA1999999101141MD1999999-0131REMSYN076AAXX  13124 82900 32597 71811 10282 20229 30114 40123 86540 333 20222 59013;EQDQ01  00002PRCP99
0182829000999992000021318004-08050-034920FM-12+000799999V0201401N003110450019N0100001N1+02921+02321100961ADDAA106002091AY161061AY221061GF106991041071008001031001MA1999999100871MD1999999-0131MW1011REMSYN082AAXX  13184 82900 21597 61406 10292 20232 30087 40096 70162 84730 333 59013 60021;
0186829000999992000021400004-08050-034920FM-12+000799999V0209999C000010075019N0020001N1+02641+02391101231ADDAA199000091GF106991061021008001001001KA1240M+03011MA1999999101141MD1999999+0051REMSYN076AAXX  14004 82900 32595 60000 10264 20239 30114 40123 86200 333 10301 58005;EQDQ01  00002PRCP99
0201829000999992000021412004-08050-034920FM-12+000799999V0201801N003610075019N0100001N1+02731+02431101291ADDAA124007191AY161061AY291061GF107991061071008001021001KA1240N+02301MA1999999101201MD1999999+0061MW1031REMSYN088AAXX  14124 82900 21597 71807 10273 20243 30120 40129 70369 86720 333 20230 58006 60074;
0167829000999992000021418004-08050-034920FM-12+000799999V0201801N003110075019N0100001N1+02891+02251101131ADDAA199000091GF106991051071008001061001MA1999999101041MD1999999+0171REMSYN070AAXX  14184 82900 32597 61806 10289 20225 30104 40113 85760 333 58017;EQDQ01  00002PRCP99
0186829000999992000021500004-08050-034920FM-12+000799999V0202701N002110075019N0020001N1+02521+02191101221ADDAA199000091GF107991071021008001001001KA1240M+03021MA1999999101131MD1999999-0011REMSYN076AAXX  15004 82900 32595 72704 10252 20219 30113 40122 87200 333 10302 59001;EQDQ01  00002PRCP99
0186829000999992000021512004-08050-034920FM-12+000799999V0202301N001510075019N0100001N1+02821+02401101181ADDAA199000091GF106991061021008001001001KA1240N+02301MA1999999101091MD1999999-0111REMSYN076AAXX  15124 82900 32597 62303 10282 20240 30109 40118 86200 333 20230 59011;EQDQ01  00002PRCP99
0167829000999992000021518004-08050-034920FM-12+000799999V0200901N005110075019N0100001N1+02931+02381100921ADDAA199000091GF106991061021008001001001MA1999999100831MD1999999-0211REMSYN070AAXX  15184 82900 32597 60910 10293 20238 30083 40092 86200 333 59021;EQDQ01  00002PRCP99
0186829000999992000021600004-08050-034920FM-12+000799999V0209999C000010075019N0020001N1+02541+02401101201ADDAA199000091GF107991071071008001001001KA1240M+03141MA1999999101111MD1999999-0021REMSYN076AAXX  16004 82900 32595 70000 10254 20240 30111 40120 87700 333 10314 59002;EQDQ01  00002PRCP99
0201829000999992000021612004-08050-034920FM-12+000799999V0201801N002610075019N0100001N1+02571+02521101291ADDAA124006191AY161061AY221061GF107991061071008001021001KA1240N+02371MA1999999101201MD1999999+0111MW1011REMSYN088AAXX  16124 82900 21597 71805 10257 20252 30120 40129 70162 86720 333 20237 58011 60064;
0182829000999992000021618004-08050-034920FM-12+000799999V0201401N004110450019N0100001N1+02871+02371100901ADDAA106004191AY191061AY261061GF105991041041008001031001MA1999999100811MD1999999+0021MW1011REMSYN082AAXX  16184 82900 21597 51408 10287 20237 30081 40090 70196 84430 333 58002 60041;
0186829000999992000021700004-08050-034920FM-12+000799999V0202301N001010075019N0020001N1+02611+02371101241ADDAA199000091GF106991061021008001001001KA1240M+02901MA1999999101151MD1999999+0041REMSYN076AAXX  17004 82900 32595 62302 10261 20237 30115 40124 86200 333 10290 58004;EQDQ01  00002PRCP99
0201829000999992000021712004-08050-034920FM-12+000799999V0201801N004110075019N0100001N1+02801+02381101241ADDAA124008991AY161061AY261061GF105991051021008001001001KA1240N+02251MA1999999101151MD1999999-0051MW1031REMSYN088AAXX  17124 82900 21597 51808 10280 20238 30115 40124 70366 85200 333 20225 59005 60094;
0167829000999992000021718004-08050-034920FM-12+000799999V0201401N005712200019N0100001N1+02931+02341100931ADDAA199000091GF104991041021008001001001MA1999999100841MD1999999+0031REMSYN070AAXX  17184 82900 32597 41411 10293 20234 30084 40093 84200 333 58003;EQDQ01  00002PRCP99
0186829000999992000021800004-08050-034920FM-12+000799999V0201401N005110075019N0020001N1+02781+02401101231ADDAA199000091GF106991061021008001001001KA1240M+03011MA1999999101141MD1999999-0011REMSYN076AAXX  18004 82900 32595 61410 10278 20240 30114 40123 86200 333 10301 59001;EQDQ01  00002PRCP99
0186829000999992000021812004-08050-034920FM-12+000799999V0201401N004110075019N0100001N1+02941+02191101321ADDAA199000091GF106991061021008001001001KA1240N+02641MA1999999101231MD1999999+0081REMSYN076AAXX  18124 82900 32597 61408 10294 20219 30123 40132 86200 333 20264 58008;EQDQ01  00002PRCP99
0167829000999992000021818004-08050-034920FM-12+000799999V0201401N004112200019N0100001N1+03041+02181101051ADDAA199000091GF102991021021008001001001MA1999999100961MD1999999+0121REMSYN070AAXX  18184 82900 32597 21408 10304 20218 30096 40105 82200 333 58012;EQDQ01  00002PRCP99
0186829000999992000021900004-08050-034920FM-12+000799999V0201801N003110075019N0020001N1+02721+02261101231ADDAA199000091GF106991061021008001001001KA1240M+03081MA1999999101441MD1999999+0001REMSYN076AAXX  19004 82900 32595 61806 10272 20226 30144 40123 86200 333 10308 58000;EQDQ01  00002PRCP99
0202829000999992000021912004-08050-034920FM-12+000799999V0201401N003119999999N0100001N1+02891+02231101301ADDAA199000091GF106991999021008001001001KA1240N+02371MA1999999101211MD1999999-0021REMSYN076AAXX  19124 82900 32597 61406 10289 20223 30121 40130 84200 333 20237 59002;EQDQ01+000042SCOTLCQ02  00002PRCP99
0167829000999992000021918004-08050-034920FM-12+000799999V0201801N003110450019N0100001N1+03001+02221101061ADDAA199000091GF105991041021008001021001MA1999999100971MD1999999+0011REMSYN070AAXX  19184 82900 32597 51806 10300 20222 30097 40106 84220 333 58001;EQDQ01  00002PRCP99
0186829000999992000022000004-08050-034920FM-12+000799999V0202301N001510450019N0020001N1+02711+02321101231ADDAA199000091GF105991031021008001031001KA1240M+03141MA1999999101141MD1999999+0001REMSYN076AAXX  20004 82900 32595 52303 10271 20232 30114 40123 83230 333 10314 58000;EQDQ01  00002PRCP99
0201829000999992000022012004-08050-034920FM-12+000799999V0200901N001010075019N0100001N1+02471+02361101471ADDAA124000591AY191061AY221061GF108991081071008001001001KA1240N+02441MA1999999101381MD1999999+0171MW1501REMSYN088AAXX  20124 82900 21597 80902 10247 20236 30138 40147 75092 88700 333 20244 58017 69964;
0201829000999992000022018004-08050-034920FM-12+000799999V0203201N003110075019N0100001N1+02811+02221101021ADDAA106001091AY161061AY221061GF107991999071008001001001MA1999999100931MD1999999-0041MW1011REMSYN082AAXX  20184 82900 21597 73206 10281 20222 30093 40102 70162 85700 333 59004 60011;EQDQ01+000052SCOTLC
0167829000999992000022100004-08050-034920FM-12+000799999V0201401N001510075019N0020001N1+02631+02331101221ADDAA199000021GF106991061021008001001001KA1240M+02851MA1999999101131MD1999999-0011REMSYN076AAXX  21004 82900 32595 61403 10263 20233 30113 40122 86200 333 10285 59001;
0167829000999992000022118004-08050-034920FM-12+000799999V0201401N004110075019N0100001N1+02911+02361100941ADDAA199000091GF106991061021008001001001MA1999999100851MD1999999-0081REMSYN070AAXX  21184 82900 32597 61408 10291 20236 30085 40094 86200 333 59008;EQDQ01  00002PRCP99
0186829000999992000022200004-08050-034920FM-12+000799999V0201401N001512200019N0020001N1+02771+02421101211ADDAA199000091GF102991021021008001001001KA1240M+03041MA1999999101121MD1999999-0011REMSYN076AAXX  22004 82900 32595 21403 10277 20242 30112 40121 82200 333 10304 59001;EQDQ01  00002PRCP99
0201829000999992000022212004-08050-034920FM-12+000799999V0202301N001010075019N0100001N1+02701+02431101231ADDAA124011991AY161061AY231061GF108991081071008001999999KA1240N+02331MA1999999101141MD1999999-0011MW1031REMSYN088AAXX  22124 82900 21597 82302 10270 20243 30114 40123 70363 887// 333 20233 59001 60124;
0182829000999992000022218004-08050-034920FM-12+000799999V0201401N002110450019N0100001N1+02871+02351100981ADDAA106002091AY161061AY291061GF106991041021008001021001MA1999999100891MD1999999+0041MW1021REMSYN082AAXX  22184 82900 21597 61404 10287 20235 30089 40098 70269 84220 333 58004 60021;
0186829000999992000022300004-08050-034920FM-12+000799999V0209999C000010075019N0020001N1+02561+02441101201ADDAA199000091GF107991071071008001001001KA1240M+02891MA1999999101111MD1999999-0011REMSYN076AAXX  23004 82900 32595 70000 10256 20244 30111 40120 87700 333 10289 59001;EQDQ01  00002PRCP99
0201829000999992000022312004-08050-034920FM-12+000799999V0202301N003110075019N0100001N1+02441+02231101251ADDAA124006191AY191061AY261061GF106991061021008001001001KA1240N+02361MA1999999101161MD1999999+0021MW1021REMSYN088AAXX  23124 82900 21597 62306 10244 20223 30116 40125 70296 86200 333 20236 58002 60064;
0186829000999992000022400004-08050-034920FM-12+000799999V0209999C000012200019N0020001N1+02371+02351101221ADDAA199000091GF102991021011008001001001KA1240M+02601MA1999999101131MD1999999+0021REMSYN076AAXX  24004 82900 32595 20000 10237 20235 30113 40122 82100 333 10260 58002;EQDQ01  00002PRCP99
0201829000999992000022412004-08050-034920FM-12+000799999V0201401N003110075019N0100001N1+02781+02381101191ADDAA124011991AY161061AY221061GF107991061071008001021001KA1240N+02261MA1999999101101MD1999999-0061MW1031REMSYN088AAXX  24124 82900 21597 71406 10278 20238 30110 40119 70362 86720 333 20226 59006 60124;
0167829000999992000022418004-08050-034920FM-12+000799999V0201401N004110450019N0100001N1+02921+02341101031ADDAA199000091GF105991041021008001031001MA1999999100941MD1999999+0041REMSYN070AAXX  24184 82900 32597 51408 10292 20234 30094 40103 84230 333 58004;EQDQ01  00002PRCP99
0186829000999992000022500004-08050-034920FM-12+000799999V0209999C000012200019N0020001N1+02491+02271101161ADDAA199000091GF102991021011008001001001KA1240M+02991MA1999999101071MD1999999-0061REMSYN076AAXX  25004 82900 32595 20000 10249 20227 30107 40116 82100 333 10299 59006;EQDQ01  00002PRCP99
0186829000999992000022512004-08050-034920FM-12+000799999V0209999C000010075019N0100001N1+02721+02411101241ADDAA199000091GF106991051051008001031001KA1240N+02181MA1999999101151MD1999999-0051REMSYN076AAXX  25124 82900 32597 60000 10272 20241 30115 40124 85530 333 20218 59005;EQDQ01  00002PRCP99
0167829000999992000022518004-08050-034920FM-12+000799999V0200901N001510450019N0100001N1+02911+02321101111ADDAA199000091GF105991031021008001021001MA1999999101021MD1999999+0081REMSYN070AAXX  25184 82900 32597 50903 10291 20232 30102 40111 83220 333 58008;EQDQ01  00002PRCP99
0186829000999992000022612004-08050-034920FM-12+000799999V0201401N000510450019N0100001N1+02861+02351101211ADDAA199000091GF106991041021008001031001KA1240N+02321MA1999999101121MD1999999-0031REMSYN076AAXX  26124 82900 32597 61401 10286 20235 30112 40121 84230 333 20232 59003;EQDQ01  00002PRCP99
0182829000999992000022618004-08050-034920FM-12+000799999V0200501N001510075019N0100001N1+02471+02301101091ADDAA106006191AY161061AY261061GF107991071061008001001001MA1999999101001MD1999999-0111MW1011REMSYN082AAXX  26184 82900 21597 70503 10247 20230 30100 40109 70166 87600 333 59011 60061;
0201829000999992000022700004-08050-034920FM-12+000799999V0201401N003110075019N0020001N1+02681+02381101231ADDAA106004191AY161061AY221061GF105991051021008001001001KA1240M+02981MA1999999101141MD1999999+0031MW1021REMSYN088AAXX  27004 82900 21595 51406 10268 20238 30114 40123 70262 85200 333 10298 58003 60041;
0167829000999992000022718004-08050-034920FM-12+000799999V0201401N003110075019N0100001N1+02931+02141101001ADDAA199000091GF106991061021008001001001MA1999999100911MD1999999-0091REMSYN070AAXX  27184 82900 32597 61406 10293 20214 30091 40100 86200 333 59009;EQDQ01  00002PRCP99
0186829000999992000022800004-08050-034920FM-12+000799999V0201401N003110120019N0020001N1+02771+02341101281ADDAA199000091GF105991051081008001001001KA1240M+03021MA1999999101121MD1999999-0021REMSYN076AAXX  28004 82900 32595 51406 10277 20234 30112 40128 85800 333 10302 59002;EQDQ01  00002PRCP99
0186829000999992000022812004-08050-034920FM-12+000799999V0201401N003110075019N0100001N1+02891+02221101191ADDAA199000091GF107991061021008001031001KA1240N+02271MA1999999101101MD1999999-0031REMSYN076AAXX  28124 82900 32597 71406 10289 20222 30110 40119 86230 333 20227 59003;EQDQ01  00002PRCP99
0167829000999992000022818004-08050-034920FM-12+000799999V0201401N004610075019N0100001N1+02971+02281100991ADDAA199000091GF106991051021008001031001MA1999999100901MD1999999-0011REMSYN070AAXX  28184 82900 32597 61409 10297 20228 30090 40099 85230 333 59001;EQDQ01  00002PRCP99
0186829000999992000022900004-08050-034920FM-12+000799999V0201401N003110075019N0020001N1+02711+02341101161ADDAA199000091GF106991061021008001001001KA1240M+03041MA1999999101071MD1999999-0051REMSYN076AAXX  29004 82900 32595 61406 10271 20234 30107 40116 86200 333 10304 59005;EQDQ01  00002PRCP99
0186829000999992000022912004-08050-034920FM-12+000799999V0201401N003610075019N0100001N1+02961+02211101311ADDAA199000091GF106991061021008001001001KA1240N+02301MA1999999101221MD1999999+0121REMSYN076AAXX  29124 82900 32597 61407 10296 20221 30122 40131 86200 333 20230 58012;EQDQ01  00002PRCP99
0167829000999992000022918004-08050-034920FM-12+000799999V0201401N003610450019N0100001N1+02961+02331101091ADDAA199000091GF105991031021008001021001MA1999999101001MD1999999+0101REMSYN070AAXX  29184 82900 32597 51407 10296 20233 30100 40109 83220 333 58010;EQDQ01  00002PRCP99
0186829000999992000030100004-08050-034920FM-12+000799999V0201401N003110075019N0020001N1+02771+02301101331ADDAA199000091GF105991051021008001001001KA1240M+03051MA1999999101241MD1999999+0171REMSYN076AAXX  01004 82900 32595 51406 10277 20230 30124 40133 85200 333 10305 58017;EQDQ01  00002PRCP99
0201829000999992000030112004-08050-034920FM-12+000799999V0200501N001510075019N0100001N1+02791+02321101361ADDAA124005191AY161061AY231061GF106991061021008001001001KA1240N+02281MA1999999101271MD1999999+0051MW1021REMSYN088AAXX  01124 82900 21597 60503 10279 20232 30127 40136 70263 86200 333 20228 58005 60054;
0167829000999992000030118004-08050-034920FM-12+000799999V0201401N003110075019N0100001N1+02941+02471101141ADDAA199000091GF105991051021008001001001MA1999999101051MD1999999+0051REMSYN070AAXX  01184 82900 32597 51406 10294 20247 30105 40114 85200 333 58005;EQDQ01  00002PRCP99
0186829000999992000030200004-08050-034920FM-12+000799999V0201401N003112200019N0020001N1+02751+02281101311ADDAA199000091GF104991041021008001001001KA1240M+03001MA1999999101221MD1999999-0021REMSYN076AAXX  02004 82900 32595 41406 10275 20228 30122 40131 84200 333 10300 59002;EQDQ01  00002PRCP99
0201829000999992000030212004-08050-034920FM-12+000799999V0201401N003110450019N0100001N1+02921+02271101301ADDAA124001091AY161061AY221061GF105991031021008001021001KA1240N+02371MA1999999101211MD1999999-0061MW1021REMSYN088AAXX  02124 82900 21597 51406 10292 20227 30121 40130 70262 83220 333 20237 59006 60014;
0167829000999992000030218004-08050-034920FM-12+000799999V0201401N002110450019N0100001N1+02921+02321101171ADDAA199000091GF105991031021008001021001MA1999999101081MD1999999+0031REMSYN070AAXX  02184 82900 32597 51404 10292 20232 30108 40117 83220 333 58003;EQDQ01  00002PRCP99
0186829000999992000030300004-08050-034920FM-12+000799999V0201401N001012200019N0020001N1+02751+02281101191ADDAA199000091GF104991041021008001001001KA1240M+03071MA1999999101101MD1999999-0121REMSYN076AAXX  03004 82900 32595 41402 10275 20228 30110 40119 84200 333 10307 59012;EQDQ01  00002PRCP99
0201829000999992000030312004-08050-034920FM-12+000799999V0203201N003110075019N0100001N1+02471+02341101351ADDAA124013091AY161061AY221061GF108991081031008001999999KA1240N+02291MA1999999101261MD1999999+0051MW1031REMSYN088AAXX  03124 82900 21597 83206 10247 20234 30126 40135 70362 883// 333 20229 58005 60134;
0182829000999992000030318004-08050-034920FM-12+000799999V0200901N004110075019N0100001N1+02971+02351100951ADDAA106002091AY161061AY221061GF106991051021008001031001MA1999999100861MD1999999-0221MW1011REMSYN082AAXX  03184 82900 21597 60908 10297 20235 30086 40095 70162 85230 333 59022 60021;
0202829000999992000030400004-08050-034920FM-12+000799999V0201401N001512200019N0020001N1+02731+02261101241ADDAA199000091GF103991999021008001001001KA1240M+02981MA1999999101151MD1999999+0151REMSYN076AAXX  04004 82900 32595 31403 10273 20226 30115 40124 84200 333 10298 58015;EQDQ01+000042SCOTLCQ02  00002PRCP99
0167829000999992000030418004-08050-034920FM-12+000799999V0201401N005110075019N0100001N1+02931+02361101101ADDAA199000091GF106991061071008001001001MA1999999101011MD1999999+0151REMSYN070AAXX  04184 82900 32597 61410 10293 20236 30101 40110 86700 333 58015;EQDQ01  00002PRCP99
0186829000999992000030500004-08050-034920FM-12+000799999V0201401N003110075019N0020001N1+02771+02341101341ADDAA199000091GF106991061021008001001001KA1240M+03041MA1999999101251MD1999999+0101REMSYN076AAXX  05004 82900 32595 61406 10277 20234 30125 40134 86200 333 10304 58010;EQDQ01  00002PRCP99
0220829000999992000030512004-08050-034920FM-12+000799999V0201401N003119999999N0100001N1+02871+02281101331ADDAA124005191AY161061AY221061GF105991999021008001001001KA1240N+02321MA1999999101241MD1999999+0011MW1021REMSYN088AAXX  05124 82900 21597 51406 10287 20228 30124 40133 70262 83200 333 20232 58001 60054;EQDQ01+000032SCOTLC
0182829000999992000030518004-08050-034920FM-12+000799999V0201401N003110450019N0100001N1+02861+02481101121ADDAA106000191AY151061AY211061GF106991041071008001031001MA1999999101031MD1999999+0021MW1011REMSYN082AAXX  05184 82900 21597 61406 10286 20248 30103 40112 70151 84730 333 58002 69911;
0186829000999992000030600004-08050-034920FM-12+000799999V0201401N003112200019N0020001N1+02761+02281101291ADDAA199000091GF104991041021008001001001KA1240M+03021MA1999999101201MD1999999-0051REMSYN076AAXX  06004 82900 32595 41406 10276 20228 30120 40129 84200 333 10302 59005;EQDQ01  00002PRCP99
0173829000999992000030612004-08050-034920FM-12+000799999V0201401N003110075019N0100001N1+02931+02311101311ADDAA124000191GF106991061021008001001001KA1240N+02351MA1999999101221MD1999999-0021REMSYN082AAXX  06124 82900 22597 61406 10293 20231 30122 40131 86200 333 20235 59002 69914;
0167829000999992000030618004-08050-034920FM-12+000799999V0201401N003110075019N0020001N1+02971+02351100981ADDAA199000091GF106991061021008001001001MA1999999100891MD1999999-0141REMSYN070AAXX  06184 82900 32595 61406 10297 20235 30089 40098 86200 333 59014;EQDQ01  00002PRCP99
0186829000999992000030700004-08050-034920FM-12+000799999V0201401N003110075019N0020001N1+02791+02291101181ADDAA199000091GF105991051021008001001001KA1240M+03041MA1999999101091MD1999999-0111REMSYN076AAXX  07004 82900 32595 51406 10279 20229 30109 40118 85200 333 10304 59011;EQDQ01  00002PRCP99
0201829000999992000030712004-08050-034920FM-12+000799999V0202701N001010075019N0100001N1+02581+02421101191ADDAA124016091AY161061AY221061GF106991051041008001031001KA1240N+02361MA1999999101101MD1999999-0121MW1011REMSYN088AAXX  07124 82900 21597 62702 10258 20242 30110 40119 70162 85430 333 20236 59012 60164;
0182829000999992000030718004-08050-034920FM-12+000799999V0201401N003110075019N0100001N1+02891+02411100961ADDAA106001091AY151061AY221061GF107991071071008001001001MA1999999100871MD1999999-0021MW1011REMSYN082AAXX  07184 82900 21597 71406 10289 20241 30087 40096 70152 87700 333 59002 69991;
0186829000999992000030800004-08050-034920FM-12+000799999V0203601N002610075019N0020001N1+02511+02451101091ADDAA199000091GF106991061021008001001001KA1240M+02951MA1999999101001MD1999999-0091REMSYN076AAXX  08004 82900 32595 63605 10251 20245 30100 40109 86200 333 10295 59009;EQDQ01  00002PRCP99
0201829000999992000030812004-08050-034920FM-12+000799999V0200901N002610075019N0100001N1+02861+02421101181ADDAA124001091AY161061AY221061GF107991051051008001031001KA1240N+02241MA1999999101091MD1999999-0011MW1031REMSYN088AAXX  08124 82900 21597 70905 10286 20242 30109 40118 70362 85530 333 20224 59001 69994;
0167829000999992000030818004-08050-034920FM-12+000799999V0201401N004112200019N0100001N1+02961+02401100901ADDAA199000091GF104991031021008001041001MA1999999100811MD1999999-0061REMSYN070AAXX  08184 82900 32597 41408 10296 20240 30081 40090 83240 333 59006;EQDQ01  00002PRCP99
0201829000999992000030900004-08050-034920FM-12+000799999V0201401N003110075019N0020001N1+02791+02381101061ADDAA106000191AY151061AY221061GF105991051031008001001001KA1240M+03071MA1999999100971MD1999999-0031MW1031REMSYN088AAXX  09004 82900 21595 51406 10279 20238 30097 40106 70352 85300 333 10307 59003 69921;
0201829000999992000030912004-08050-034920FM-12+000799999V0201401N003610075019N0100001N1+02911+02341101331ADDAA124005191AY161061AY221061GF106991061021008001001001KA1240N+02401MA1999999101241MD1999999+0151MW1021REMSYN088AAXX  09124 82900 21597 61407 10291 20234 30124 40133 70262 86200 333 20240 58015 60054;
0167829000999992000030918004-08050-034920FM-12+000799999V0201401N003610450019N0100001N1+02961+02421100951ADDAA199000091GF106991031021008001031001MA1999999100861MD1999999+0051REMSYN070AAXX  09184 82900 32597 61407 10296 20242 30086 40095 83230 333 58005;EQDQ01  00002PRCP99
0201829000999992000031000004-08050-034920FM-12+000799999V0201401N001510075019N0020001N1+02671+02351101211ADDAA106002091AY161061AY221061GF106991061021008001001001KA1240M+03041MA1999999101121MD1999999+0151MW1011REMSYN088AAXX  10004 82900 21595 61403 10267 20235 30112 40121 70162 86200 333 10304 58015 60021;
0201829000999992000031012004-08050-034920FM-12+000799999V0200901N003610075019N0100001N1+02851+02421101281ADDAA124002091AY161061AY221061GF107991071061008001001001KA1240N+02401MA1999999101191MD1999999-0051MW1031REMSYN088AAXX  10124 82900 21597 70907 10285 20242 30119 40128 70362 87600 333 20240 59005 60024;
0167829000999992000031018004-08050-034920FM-12+000799999V0201401N003110075019N0100001N1+02881+02411101081ADDAA199000091GF108991081071008001001001MA1999999100991MD1999999+0031REMSYN070AAXX  10184 82900 32597 81406 10288 20241 30099 40108 88700 333 58003;EQDQ01  00002PRCP99
0186829000999992000031100004-08050-034920FM-12+000799999V0201401N002610075019N0020001N1+02761+02301101281ADDAA199000091GF106991061021008001001001KA1240M+02941MA1999999101191MD1999999+0071REMSYN076AAXX  11004 82900 32595 61405 10276 20230 30119 40128 86200 333 10294 58007;EQDQ01  00002PRCP99
0201829000999992000031112004-08050-034920FM-12+000799999V0201401N001510075019N0100001N1+02741+02301101121ADDAA124001091AY161061AY211061GF106991061021008001001001KA1240N+02301MA1999999101031MD1999999+0101MW1021REMSYN088AAXX  11124 82900 21597 61403 10274 20230 30103 40112 70261 86200 333 20230 58010 60014;
0167829000999992000031118004-08050-034920FM-12+000799999V0201401N003112200019N0100001N1+02971+02281100961ADDAA199000091GF104991041021008001001001MA1999999100871MD1999999-0121REMSYN070AAXX  11184 82900 32597 41406 10297 20228 30087 40096 84200 333 59012;EQDQ01  00002PRCP99
0186829000999992000031200004-08050-034920FM-12+000799999V0200901N001512200019N0020001N1+02811+02221101061ADDAA199000091GF102991021011008001001001KA1240M+03051MA1999999100971MD1999999-0221REMSYN076AAXX  12004 82900 32595 20903 10281 20222 30097 40106 82100 333 10305 59022;EQDQ01  00002PRCP99
0186829000999992000031212004-08050-034920FM-12+000799999V0201401N003110075019N0100001N1+02921+02241101121ADDAA199000091GF105991051021008001001001KA1240N+02201MA1999999101031MD1999999+0001REMSYN076AAXX  12124 82900 32597 51406 10292 20224 30103 40112 85200 333 20220 58000;EQDQ01  00002PRCP99
0167829000999992000031218004-08050-034920FM-12+000799999V0201401N003112200019N0100001N1+03051+01971100791ADDAA199000091GF101991011011008001001001MA1999999100701MD1999999+0101REMSYN070AAXX  12184 82900 32597 11406 10305 20197 30070 40079 81100 333 58010;EQDQ01  00002PRCP99
0186829000999992000031300004-08050-034920FM-12+000799999V0201401N001012200019N0020001N1+02751+02281100931ADDAA199000091GF101991011011008001001001KA1240M+03101MA1999999100841MD1999999-0131REMSYN076AAXX  13004 82900 32595 11402 10275 20228 30084 40093 81100 333 10310 59013;EQDQ01  00002PRCP99
0186829000999992000031312004-08050-034920FM-12+000799999V0200501N002110450019N0100001N1+02861+02331101091ADDAA199000091GF106991041021008001021001KA1240N+02401MA1999999101001MD1999999-0031REMSYN076AAXX  13124 82900 32597 60504 10286 20233 30100 40109 84220 333 20240 59003;EQDQ01  00002PRCP99
0167829000999992000031318004-08050-034920FM-12+000799999V0200901N003612200019N0100001N1+03041+02431100801ADDAA199000091GF103991031021008001001001MA1999999100711MD1999999-0011REMSYN070AAXX  13184 82900 32597 30907 10304 20243 30071 40080 83200 333 59001;EQDQ01  00002PRCP99
0186829000999992000031400004-08050-034920FM-12+000799999V0200501N003110075019N0020001N1+02791+02311101011ADDAA199000091GF106991061021008001001001KA1240M+03151MA1999999100921MD1999999+0081REMSYN076AAXX  14004 82900 32595 60506 10279 20231 30092 40101 86200 333 10315 58008;EQDQ01  00002PRCP99
0201829000999992000031412004-08050-034920FM-12+000799999V0200501N001510075019N0100001N1+02731+02431101211ADDAA124002091AY161061AY221061GF106991061021008001001001KA1240N+02311MA1999999101121MD1999999+0121MW1031REMSYN088AAXX  14124 82900 21597 60503 10273 20243 30112 40121 70362 86200 333 20231 58012 60024;
0167829000999992000031418004-08050-034920FM-12+000799999V0200901N003110450019N0100001N1+02941+02381101051ADDAA199000091GF105991031021008001021001MA1999999100961MD1999999+0251REMSYN070AAXX  14184 82900 32597 50906 10294 20238 30096 40105 83220 333 58025;EQDQ01  00002PRCP99
0165829000999992000031500004-08050-034920FM-12+000799999V0200901N004110075019N0020001N1+02831+02361101171ADDAA199000091GF106991061021008001001001KA1240M+03131MD1999999+0161REMSYN070AAXX  15004 82900 32595 60908 10283 20236 40117 86200 333 10313 58016;EQDQ01  00002PRCP99
0167829000999992000031518004-08050-034920FM-12+000799999V0201401N003612200019N0100001N1+02961+02181101161ADDAA199000091GF102991021021008001031001MA1999999101071MD1999999+0111REMSYN070AAXX  15184 82900 32597 21407 10296 20218 30107 40116 82230 333 58011;EQDQ01  00002PRCP99
0202829000999992000031600004-08050-034920FM-12+000799999V0201401N003112200019N0020001N1+02701+02181101191ADDAA199000091GF102991999021008001001001KA1240M+03091MA1999999101101MD1999999+0021REMSYN076AAXX  16004 82900 32595 21406 10270 20218 30110 40119 83200 333 10309 58002;EQDQ01+000032SCOTLCQ02  00002PRCP99
0186829000999992000031612004-08050-034920FM-12+000799999V0201401N004110075019N0100001N1+02971+02181101211ADDAA199000091GF106991061021008001001001KA1240N+02401MA1999999101121MD1999999-0111REMSYN076AAXX  16124 82900 32597 61408 10297 20218 30112 40121 86200 333 20240 59011;EQDQ01  00002PRCP99
0167829000999992000031618004-08050-034920FM-12+000799999V0201401N004110075019N0100001N1+02961+02071100941ADDAA199000091GF106991061021008001001001MA1999999100851MD1999999-0221REMSYN070AAXX  16184 82900 32597 61408 10296 20207 30085 40094 86200 333 59022;EQDQ01  00002PRCP99
0186829000999992000031700004-08050-034920FM-12+000799999V0200901N001510075019N0020001N1+02761+02231101051ADDAA199000091GF106991061021008001001001KA1240M+03071MA1999999100961MD1999999-0141REMSYN076AAXX  17004 82900 32595 60903 10276 20223 30096 40105 86200 333 10307 59014;EQDQ01  00002PRCP99
0186829000999992000031712004-08050-034920FM-12+000799999V0201801N003110450019N0100001N1+02931+02081101161ADDAA199000091GF105991041021008001011001KA1240N+02291MA1999999101071MD1999999-0051REMSYN076AAXX  17124 82900 32597 51806 10293 20208 30107 40116 84210 333 20229 59005;EQDQ01  00002PRCP99
0167829000999992000031718004-08050-034920FM-12+000799999V0201401N004612200019N0100001N1+02981+02061101741ADDAA199000091GF103991021021008001041001MA1999999101651MD1999999-0201REMSYN070AAXX  17184 82900 32597 31409 10298 20206 30165 40174 82240 333 59020;EQDQ01  00002PRCP99
0186829000999992000031800004-08050-034920FM-12+000799999V0201401N003110075019N0020001N1+02071+99999101001ADDAA199000091GF106991061021008001001001KA1240M+03081MA1999999100911MD1999999-0051REMSYN076AAXX  18004 82900 32595 61406 10207 20234 30091 40100 86200 333 10308 59005;EQDQ01  00002PRCP99
0186829000999992000031812004-08050-034920FM-12+000799999V0201401N001510450019N0100001N1+02921+02291101071ADDAA199000091GF106991041071008001031001KA1240N+02321MA1999999100981MD1999999-0091REMSYN076AAXX  18124 82900 32597 61403 10292 20229 30098 40107 84730 333 20232 59009;EQDQ01  00002PRCP99
0167829000999992000031818004-08050-034920FM-12+000799999V0200901N003110075019N0100001N1+03011+02221100741ADDAA199000091GF106991061021008001001001MA1999999100651MD1999999-0261REMSYN070AAXX  18184 82900 32597 60906 10301 20222 30065 40074 86200 333 59026;EQDQ01  00002PRCP99
0186829000999992000031900004-08050-034920FM-12+000799999V0200901N001512200019N0020001N1+02801+02271101001ADDAA199000091GF104991041011008001001001KA1240M+03091MA1999999100911MD1999999+0001REMSYN076AAXX  19004 82900 32595 40903 10280 20227 30091 40100 84100 333 10309 58000;EQDQ01  00002PRCP99
0202829000999992000031912004-08050-034920FM-12+000799999V0201401N002619999999N0100001N1+02931+02311101121ADDAA199000091GF105991999021008001001001KA1240N+02361MA1999999101031MD1999999+0051REMSYN076AAXX  19124 82900 32597 51405 10293 20231 30103 40112 84200 333 20236 58005;EQDQ01+000042SCOTLCQ02  00002PRCP99
0183829000999992000031918004-08050-034920FM-12+000799999V0201401N004610075019N0100001N1+02991+02271100831ADDAA199000091GF106991999021008001001001MA1999999100741MD1999999+0091REMSYN070AAXX  19184 82900 32597 61409 10299 20227 30074 40083 85200 333 58009;EQDQ01+000052SCOTLCQ02  00002PRCP99
0186829000999992000032000004-08050-034920FM-12+000799999V0201401N001512200019N0020001N1+02771+02301101101ADDAA199000091GF103991031021008001001001KA1240M+03101MA1999999101011MD1999999+0101REMSYN076AAXX  20004 82900 32595 31403 10277 20230 30101 40110 83200 333 10310 58010;EQDQ01  00002PRCP99
0201829000999992000032012004-08050-034920FM-12+000799999V0201401N001510075019N0100001N1+02871+02281101191ADDAA124003091AY161061AY221061GF106991061021008001001001KA1240N+02471MA1999999101101MD1999999+0071MW1021REMSYN088AAXX  20124 82900 21597 61403 10287 20228 30110 40119 70262 86200 333 20247 58007 60034;
0167829000999992000032018004-08050-034920FM-12+000799999V0201401N001512200019N0100001N1+02901+02201100991ADDAA199000091GF104991041021008001001001MA1999999100901MD1999999+0161REMSYN070AAXX  20184 82900 32597 41403 10290 20220 30090 40099 84200 333 58016;EQDQ01  00002PRCP99
0186829000999992000032100004-08050-034920FM-12+000799999V0201801N003110075019N0020001N1+02791+02221101071ADDAA199000091GF105991051021008001001001KA1240M+03071MA1999999100981MD1999999-0031REMSYN076AAXX  21004 82900 32595 51806 10279 20222 30098 40107 85200 333 10307 59003;EQDQ01  00002PRCP99
0201829000999992000032112004-08050-034920FM-12+000799999V0201801N002110450019N0100001N1+02721+02341101211ADDAA124014091AY161061AY221061GF106991031021008001031001KA1240N+02301MA1999999101121MD1999999+0021MW1021REMSYN088AAXX  21124 82900 21597 61804 10272 20234 30112 40121 70262 83230 333 20230 58002 60144;
0167829000999992000032118004-08050-034920FM-12+000799999V0201401N003112200019N0100001N1+02971+02081100891ADDAA199000091GF102991021021008001001001MA1999999100801MD1999999-0101REMSYN070AAXX  21184 82900 32597 21406 10297 20208 30080 40089 82200 333 59010;EQDQ01  00002PRCP99
0186829000999992000032200004-08050-034920FM-12+000799999V0201801N003112200019N0020001N1+02711+02151101041ADDAA199000091GF102991021011008001001001KA1240M+03021MA1999999100951MD1999999-0021REMSYN076AAXX  22004 82900 32595 21806 10271 20215 30095 40104 82100 333 10302 59002;EQDQ01  00002PRCP99
0186829000999992000032212004-08050-034920FM-12+000799999V0200901N001510075019N0100001N1+02911+02061101191ADDAA199000091GF106991061021008001001001KA1240N+02101MA1999999101101MD1999999-0021REMSYN076AAXX  22124 82900 32597 60903 10291 20206 30110 40119 86200 333 20210 59002;EQDQ01  00002PRCP99
0167829000999992000032218004-08050-034920FM-12+000799999V0201401N003112200019N0100001N1+02981+02171100861ADDAA199000091GF103991031021008001001001MA1999999100771MD1999999-0031REMSYN070AAXX  22184 82900 32597 31406 10298 20217 30077 40086 83200 333 59003;EQDQ01  00002PRCP99
0186829000999992000032300004-08050-034920FM-12+000799999V0201801N003112200019N0020001N1+02751+02191101091ADDAA199000091GF102991021011008001001001KA1240M+03071MA1999999101001MD1999999+0051REMSYN076AAXX  23004 82900 32595 21806 10275 20219 30100 40109 82100 333 10307 58005;EQDQ01  00002PRCP99
0201829000999992000032312004-08050-034920FM-12+000799999V0201401N003110075019N0100001N1+02951+02311101091ADDAA124000891AY151061AY221061GF106991051041008001021001KA1240N+02291MA1999999101001MD1999999-0101MW1011REMSYN088AAXX  23124 82900 21597 61406 10295 20231 30100 40109 70152 85420 333 20229 59010 69974;
0167829000999992000032318004-08050-034920FM-12+000799999V0201401N005112200019N0100001N1+02971+02351100951ADDAA199000091GF104991031021008001011001MA1999999100861MD1999999+0091REMSYN070AAXX  23184 82900 32597 41410 10297 20235 30086 40095 83210 333 58009;EQDQ01  00002PRCP99
0186829000999992000032400004-08050-034920FM-12+000799999V0200401N003110075019N0020001N1+02791+02291101051ADDAA199000091GF106991061021008001001001KA1240M+03061MA1999999100961MD1999999-0041REMSYN076AAXX  24004 82900 32595 60406 10279 20229 30096 40105 86200 333 10306 59004;EQDQ01  00002PRCP99
0201829000999992000032412004-08050-034920FM-12+000799999V0202301N001510075019N0100001N1+02661+02461101231ADDAA124010991AY161061AY261061GF106991061031008001001001KA1240N+02391MA1999999101141MD1999999+0141MW1031REMSYN088AAXX  24124 82900 21597 62303 10266 20246 30114 40123 70366 86300 333 20239 58014 60114;
0182829000999992000032418004-08050-034920FM-12+000799999V0201401N003610075019N0100001N1+02871+02281100951ADDAA115014091AY161061AY221061GF105991051021008001001001MA1999999100861MD1999999+0001MW1021REMSYN082AAXX  24184 82900 21597 51407 10287 20228 30086 40095 70262 85200 333 58000 60140;
0186829000999992000032500004-08050-034920FM-12+000799999V0201801N003110075019N0020001N1+02711+02371101191ADDAA199000091GF105991051021008001001001KA1240M+03021MA1999999101101MD1999999+0141REMSYN076AAXX  25004 82900 32595 51806 10271 20237 30110 40119 85200 333 10302 58014;EQDQ01  00002PRCP99
0201829000999992000032512004-08050-034920FM-12+000799999V0201801N003110075019N0100001N1+02731+02451101101ADDAA124019191AY161061AY251061GF106991061021008001001001KA1240N+02021MA1999999101011MD1999999-0131MW1031REMSYN088AAXX  25124 82900 21597 61806 10273 20245 30101 40110 70365 86200 333 20202 59013 60194;
0167829000999992000032518004-08050-034920FM-12+000799999V0201401N005110075019N0100001N1+02961+01971100851ADDAA199000091GF106991061071008001031001MA1999999100761MD1999999-0101REMSYN070AAXX  25184 82900 32597 61410 10296 20197 30076 40085 86730 333 59010;EQDQ01  00002PRCP99
0201829000999992000032600004-08050-034920FM-12+000799999V0209999C000010120019N0020001N1+02391+02301101191ADDAA106004191AY161061AY221061GF108991081081008001999999KA1240M+03021MA1999999101091MD1999999-0011MW1601REMSYN088AAXX  26004 82900 21595 80000 10239 20230 30109 40119 76062 888// 333 10302 59001 60041;
0201829000999992000032612004-08050-034920FM-12+000799999V0201801N002110075019N0100001N1+02861+02481101191ADDAA124009991AY161061AY221061GF106991061021008001001001KA1240N+02341MA1999999101101MD1999999-0011MW1021REMSYN088AAXX  26124 82900 21597 61804 10286 20248 30110 40119 70262 86200 333 20234 59001 60104;
0183829000999992000032618004-08050-034920FM-12+000799999V0201401N003119999999N0100001N1+02941+02311100801ADDAA199000091GF106991999021008001001001MA1999999100711MD1999999-0121REMSYN070AAXX  26184 82900 32597 61406 10294 20231 30071 40080 84200 333 59012;EQDQ01+000042SCOTLCQ02  00002PRCP99
0186829000999992000032700004-08050-034920FM-12+000799999V0201401N001510075019N0020001N1+02761+02301101061ADDAA199000091GF105991051021008001001001KA1240M+03001MA1999999100971MD1999999-0121REMSYN076AAXX  27004 82900 32595 51403 10276 20230 30097 40106 85200 333 10300 59012;EQDQ01  00002PRCP99
0201829000999992000032712004-08050-034920FM-12+000799999V0201401N005110075019N0100001N1+02821+02291101071ADDAA124023191AY161061AY221061GF106991051071008001021001KA1240N+02361MA1999999100981MD1999999-0221MW1011REMSYN088AAXX  27124 82900 21597 61410 10282 20229 30098 40107 70162 85720 333 20236 59022 60234;
0167829000999992000032718004-08050-034920FM-12+000799999V0201401N004610450019N0100001N1+02891+02391100921ADDAA199000091GF105991041061008001031001MA1999999100831MD1999999+0121REMSYN070AAXX  27184 82900 32597 51409 10289 20239 30083 40092 84630 333 58012;EQDQ01  00002PRCP99
0186829000999992000032800004-08050-034920FM-12+000799999V0201801N004610075019N0020001N1+02771+02381101061ADDAA199000091GF106991061021008001001001KA1240M+03001MA1999999100971MD1999999+0001REMSYN076AAXX  28004 82900 32595 61809 10277 20238 30097 40106 86200 333 10300 58000;EQDQ01  00002PRCP99
0201829000999992000032812004-08050-034920FM-12+000799999V0201801N002610075019N0100001N1+02801+02481101111ADDAA124009991AY161061AY221061GF107991071031008001001001KA1240N+02381MA1999999101021MD1999999+0041MW1031REMSYN088AAXX  28124 82900 21597 71805 10280 20248 30102 40111 70362 87300 333 20238 58004 60104;
0182829000999992000032818004-08050-034920FM-12+000799999V0201801N005710075019N0100001N1+02921+02291100801ADDAA106000391AY161061AY221061GF107991051031008001041001MA1999999100711MD1999999-0121MW1021REMSYN082AAXX  28184 82900 21597 71811 10292 20229 30071 40080 70262 85340 333 59012 69931;
0186829000999992000032900004-08050-034920FM-12+000799999V0201801N002112200019N0020001N1+02661+02331100991ADDAA199000091GF104991041021008001001001KA1240M+02991MA1999999100901MD1999999-0071REMSYN076AAXX  29004 82900 32595 41804 10266 20233 30090 40099 84200 333 10299 59007;EQDQ01  00002PRCP99
0201829000999992000032912004-08050-034920FM-12+000799999V0201801N001010075019N0100001N1+02721+02411101201ADDAA124001091AY161061AY221061GF107991051031008001021001KA1240N+02451MA1999999101111MD1999999+0091MW1021REMSYN088AAXX  29124 82900 21597 71802 10272 20241 30111 40120 70262 85320 333 20245 58009 60014;
0167829000999992000032918004-08050-034920FM-12+000799999V0201401N002110450019N0100001N1+02861+02331100991ADDAA199000091GF105991031021008001031001MA1999999100901MD1999999+0191REMSYN070AAXX  29184 82900 32597 51404 10286 20233 30090 40099 83230 333 58019;EQDQ01  00002PRCP99
0202829000999992000033000004-08050-034920FM-12+000799999V0201401N001519999999N0020001N1+02731+02361101061ADDAA199000091GF106991999021008001001001KA1240M+02971MA1999999100971MD1999999+0071REMSYN076AAXX  30004 82900 32595 61403 10273 20236 30097 40106 83200 333 10297 58007;EQDQ01+000032SCOTLCQ02  00002PRCP99
0201829000999992000033012004-08050-034920FM-12+000799999V0202301N003110075019N0100001N1+02361+02191101201ADDAA124027991AY161061AY251061GF106991061021008001001001KA1240N+02251MA1999999101111MD1999999+0001MW1031REMSYN088AAXX  30124 82900 21597 62306 10236 20219 30111 40120 70365 86200 333 20225 58000 60284;
0182829000999992000033018004-08050-034920FM-12+000799999V0201801N003110075019N0100001N1+02541+02251101091ADDAA106000191AY151061AY211061GF106991061021008001001001MA1999999101001MD1999999+0101MW1021REMSYN082AAXX  30184 82900 21597 61806 10254 20225 30100 40109 70251 86200 333 58010 69911;
0201829000999992000033100004-08050-034920FM-12+000799999V0209999C000010075019N0020001N1+02411+02281101261ADDAA106001091AY151061AY221061GF107991071061008001001001KA1240M+02781MA1999999101171MD1999999+0201MW1031REMSYN088AAXX  31004 82900 21595 70000 10241 20228 30117 40126 70352 87600 333 10278 58020 69991;
0201829000999992000033112004-08050-034920FM-12+000799999V0201801N001010450019N0100001N1+02781+02381101381ADDAA124003091AY161061AY221061GF106991031021008001031001KA1240N+02241MA1999999101291MD1999999+0181MW1021REMSYN088AAXX  31124 82900 21597 61802 10278 20238 30129 40138 70262 83230 333 20224 58018 60034;
0167829000999992000033118004-08050-034920FM-12+000799999V0201401N002110075019N0100001N1+02691+02241101081ADDAA199000091GF106991061041008001001001MA1999999100991MD1999999-0011REMSYN070AAXX  31184 82900 32597 61404 10269 20224 30099 40108 86400 333 59001;EQDQ01  00002PRCP99
0186829000999992000040100004-08050-034920FM-12+000799999V0202301N001512200019N0020001N1+02531+02331101261ADDAA199000091GF102991021011008001001001KA1240M+02971MA1999999101131MD1999999+0001REMSYN076AAXX  01004 82900 32595 22303 10253 20233 30113 40126 82100 333 10297 58000;EQDQ01  00002PRCP99
0201829000999992000040112004-08050-034920FM-12+000799999V0202301N001510075019N0100001N1+02631+02411101301ADDAA124021191AY161061AY261061GF107991071061008001001001KA1240N+02311MA1999999101211MD1999999-0061MW1031REMSYN088AAXX  01124 82900 21597 72303 10263 20241 30121 40130 70366 87600 333 20231 59006 60214;
0182829000999992000040118004-08050-034920FM-12+000799999V0201401N003110075019N0100001N1+02831+02481101001ADDAA106002091AY161061AY221061GF106991061071008001001001MA1999999100911MD1999999-0081MW1031REMSYN082AAXX  01184 82900 21597 61406 10283 20248 30091 40100 70362 86700 333 59008 60021;
0186829000999992000040200004-08050-034920FM-12+000799999V0201401N002112200019N0020001N1+02721+02431101211ADDAA199000091GF104991041021008001001001KA1240M+03001MA1999999101121MD1999999-0051REMSYN076AAXX  02004 82900 32595 41404 10272 20243 30112 40121 84200 333 10300 59005;EQDQ01  00002PRCP99
0201829000999992000040212004-08050-034920FM-12+000799999V0201401N005110075019N0100001N1+02901+02321101331ADDAA124002091AY161061AY221061GF106991051021008001031001KA1240N+02621MA1999999101241MD1999999+0031MW1011REMSYN088AAXX  02124 82900 21597 61410 10290 20232 30124 40133 70162 85230 333 20262 58003 60024;
0167829000999992000040218004-08050-034920FM-12+000799999V0201801N003110075019N0100001N1+02951+02331101051ADDAA199000091GF106991061021008001001001MA1999999100961MD1999999+0051REMSYN070AAXX  02184 82900 32597 61806 10295 20233 30096 40105 86200 333 58005;EQDQ01  00002PRCP99
0202829000999992000040300004-08050-034920FM-12+000799999V0201801N001510075019N0020001N1+02771+02341101291ADDAA199000091GF106991999021008001001001KA1240M+03031MA1999999101201MD1999999+0081REMSYN076AAXX  03004 82900 32595 61803 10277 20234 30120 40129 85200 333 10303 58008;EQDQ01+000052SCOTLCQ02  00002PRCP99
0201829000999992000040312004-08050-034920FM-12+000799999V0201801N005110075019N0100001N1+02831+02381101391ADDAA124001091AY161061AY211061GF106991061021008001001001KA1240N+02361MA1999999101301MD1999999+0061MW1031REMSYN088AAXX  03124 82900 21597 61810 10283 20238 30130 40139 70361 86200 333 20236 58006 60014;
0167829000999992000040318004-08050-034920FM-12+000799999V0201801N003110075019N0100001N1+02941+02211101031ADDAA199000091GF105991051021008001001001MA1999999100941MD1999999-0021REMSYN070AAXX  03184 82900 32597 51806 10294 20221 30094 40103 85200 333 59002;EQDQ01  00002PRCP99
0201829000999992000040400004-08050-034920FM-12+000799999V0202301N001510075019N0020001N1+02471+02431101351ADDAA106034091AY191061AY261061GF107991071071008001001001KA1240M+03001MA1999999101261MD1999999+0061MW1011REMSYN088AAXX  04004 82900 21595 72303 10247 20243 30126 40135 70196 87700 333 10300 58006 60341;
0201829000999992000040412004-08050-034920FM-12+000799999V0201401N006210450019N0100001N1+02881+02301101341ADDAA124040991AY191061AY261061GF105991041071008001031001KA1240N+02381MA1999999101251MD1999999-0051MW1011REMSYN088AAXX  04124 82900 21597 51412 10288 20230 30125 40134 70196 84730 333 20238 59005 60414;
0167829000999992000040418004-08050-034920FM-12+000799999V0201801N005110075019N0100001N1+02961+02281101021ADDAA199000091GF106991051041008001021001MA1999999100931MD1999999-0011REMSYN070AAXX  04184 82900 32597 61810 10296 20228 30093 40102 85420 333 59001;EQDQ01  00002PRCP99
0186829000999992000040500004-08050-034920FM-12+000799999V0201801N003112200019N0020001N1+02781+02181101331ADDAA199000091GF104991041011008001001001KA1240M+02991MA1999999101241MD1999999-0021REMSYN076AAXX  05004 82900 32595 41806 10278 20218 30124 40133 84100 333 10299 59002;EQDQ01  00002PRCP99
0186829000999992000040512004-08050-034920FM-12+000799999V0201801N003110075019N0100001N1+02881+02281101381ADDAA199000091GF105991051021008001001001KA1240N+02281MA1999999101291MD1999999+0041REMSYN076AAXX  05124 82900 32597 51806 10288 20228 30129 40138 85200 333 20228 58004;EQDQ01  00002PRCP99
0167829000999992000040518004-08050-034920FM-12+000799999V0201801N005112200019N0100001N1+02961+02311101081ADDAA199000091GF104991041021008001001001MA1999999100991MD1999999+0061REMSYN070AAXX  05184 82900 32597 41810 10296 20231 30099 40108 84200 333 58006;EQDQ01  00002PRCP99
0186829000999992000040600004-08050-034920FM-12+000799999V0201801N003110075019N0020001N1+02781+02401101311ADDAA199000091GF106991061021008001001001KA1240M+03011MA1999999101221MD1999999-0021REMSYN076AAXX  06004 82900 32595 61806 10278 20240 30122 40131 86200 333 10301 59002;EQDQ01  00002PRCP99
0201829000999992000040612004-08050-034920FM-12+000799999V0201401N003110450019N0100001N1+02921+02341101211ADDAA124018091AY161061AY221061GF105991031021008001041001KA1240N+02351MA1999999101121MD1999999-0171MW1021REMSYN088AAXX  06124 82900 21597 51406 10292 20234 30112 40121 70262 83240 333 20235 59017 60184;
0182829000999992000040618004-08050-034920FM-12+000799999V0201801N003610450019N0100001N1+02901+02341101051ADDAA106000391AY161061AY221061GF106991041021008001021001MA1999999100961MD1999999-0021MW1021REMSYN082AAXX  06184 82900 21597 61807 10290 20234 30096 40105 70262 84220 333 59002 69931;
0186829000999992000040700004-08050-034920FM-12+000799999V0202301N001510075019N0020001N1+02711+02411101241ADDAA199000091GF106991061071008001001001KA1240M+02991MA1999999101151MD1999999-0071REMSYN076AAXX  07004 82900 32595 62303 10271 20241 30115 40124 86700 333 10299 59007;EQDQ01  00002PRCP99
0173829000999992000040712004-08050-034920FM-12+000799999V0201801N005110075019N0100001N1+02811+02221101091ADDAA124000391GF106991061021008001001001KA1240N+02221MA1999999101001MD1999999-0121REMSYN082AAXX  07124 82900 22597 61810 10281 20222 30100 40109 86200 333 20222 59012 69934;
0167829000999992000040718004-08050-034920FM-12+000799999V0201801N003110075019N0100001N1+02931+02381100901ADDAA199000091GF105991051021008001001001MA1999999100811MD1999999-0151REMSYN070AAXX  07184 82900 32597 51806 10293 20238 30081 40090 85200 333 59015;EQDQ01  00002PRCP99
0201829000999992000040800004-08050-034920FM-12+000799999V0201801N001512200019N0020001N1+02521+02361101161ADDAA106001091AY151061AY221061GF102991021011008001001001KA1240M+03021MA1999999101071MD1999999-0081MW1011REMSYN088AAXX  08004 82900 21595 21803 10252 20236 30107 40116 70152 82100 333 10302 59008 69991;
0201829000999992000040812004-08050-034920FM-12+000799999V0202301N000510075019N0100001N1+02531+02401101181ADDAA124020191AY161061AY261061GF108991071071008001031001KA1240N+02261MA1999999101091MD1999999+0091MW1211REMSYN088AAXX  08124 82900 21597 82301 10253 20240 30109 40118 72166 87730 333 20226 58009 60204;
0182829000999992000040818004-08050-034920FM-12+000799999V0202701N001510120019N0100001N1+02401+02371101021ADDAA106061091AY191061AY261061GF108991081081008001999999MA1999999100931MD1999999+0121MW1611REMSYN082AAXX  08184 82900 21597 82703 10240 20237 30093 40102 76196 888// 333 58012 60611;
0201829000999992000040900004-08050-034920FM-12+000799999V0201801N001510075019N0020001N1+02351+02331101211ADDAA106027991AY161061AY261061GF108991081071008001001001KA1240M+02751MA1999999101121MD1999999+0051MW1211REMSYN088AAXX  09004 82900 21595 81803 10235 20233 30112 40121 72166 88700 333 10275 58005 60281;
0201829000999992000040912004-08050-034920FM-12+000799999V0201801N003110075019N0100001N1+02641+02301101211ADDAA124117191AY161061AY261061GF108991081051008001999999KA1240N+02201MA1999999101101MD1999999+0031MW1031REMSYN088AAXX  09124 82900 21597 81806 10264 20230 30110 40121 70366 885// 333 20220 58003 61174;
0167829000999992000040918004-08050-034920FM-12+000799999V0201801N002110075019N0100001N1+02761+02281101061ADDAA199000091GF107991071071008001001001MA1999999100971MD1999999+0041REMSYN070AAXX  09184 82900 32597 71804 10276 20228 30097 40106 87700 333 58004;EQDQ01  00002PRCP99
0186829000999992000041000004-08050-034920FM-12+000799999V0202301N002110075019N0020001N1+02521+02421101221ADDAA199000091GF106991061031008001001001KA1240M+02841MA1999999101131MD1999999+0011REMSYN076AAXX  10004 82900 32595 62304 10252 20242 30113 40122 86300 333 10284 58001;EQDQ01  00002PRCP99
0201829000999992000041012004-08050-034920FM-12+000799999V0209999C000010075019N0100001N1+02541+02481101361ADDAA124000591AY191061AY261061GF108991081031008001999999KA1240N+02471MA1999999101271MD1999999+0151MW1611REMSYN088AAXX  10124 82900 21597 80000 10254 20248 30127 40136 76196 883// 333 20247 58015 69964;
0182829000999992000041018004-08050-034920FM-12+000799999V0201801N003610450019N0100001N1+02851+02351100991ADDAA106002091AY161061AY221061GF105991041021008001021001MA1999999100901MD1999999-0071MW1021REMSYN082AAXX  10184 82900 21597 51807 10285 20235 30090 40099 70262 84220 333 59007 60021;
0167829000999992000041100004-08050-034920FM-12+000799999V0202301N001010075019N0020001N1+02551+02311101171ADDAA199000021GF106991061021008001001001KA1240M+02901MA1999999101081MD1999999-0051REMSYN076AAXX  11004 82900 32595 62302 10255 20231 30108 40117 86200 333 10290 59005;
0201829000999992000041112004-08050-034920FM-12+000799999V0202301N001510075019N0100001N1+02571+02561101451ADDAA124016091AY191061AY261061GF106991061021008001001001KA1240N+02281MA1999999101361MD1999999-0211MW1031REMSYN088AAXX  11124 82900 21597 62303 10257 20256 30136 40145 70396 86200 333 20228 59021 60164;
0182829000999992000041118004-08050-034920FM-12+000799999V0201401N001510075019N0100001N1+02931+02641101141ADDAA106004191AY161061AY231061GF105991051021008001001001MA1999999101051MD1999999+0151MW1021REMSYN082AAXX  11184 82900 21597 51403 10293 20264 30105 40114 70263 85200 333 58015 60041;
0201829000999992000041200004-08050-034920FM-12+000799999V0200901N002110075019N0020001N1+02541+02421101191ADDAA106009991AY161061AY221061GF107991071071008001001001KA1240M+02941MA1999999101101MD1999999+0021MW1601REMSYN088AAXX  12004 82900 21595 70904 10254 20242 30110 40119 76062 87700 333 10294 58002 60101;
0201829000999992000041212004-08050-034920FM-12+000799999V0202301N002110075019N0100001N1+02801+02481101191ADDAA124023191AY161061AY221061GF106991051041008001021001KA1240N+02361MA1999999101101MD1999999+0261MW1031REMSYN088AAXX  12124 82900 21597 62304 10280 20248 30110 40119 70362 85420 333 20236 58026 60234;
0182829000999992000041218004-08050-034920FM-12+000799999V0201401N003110075019N0100001N1+02551+02441100881ADDAA106011991AY191061AY261061GF108991081071008001001001MA1999999100791MD1999999+0261MW1631REMSYN082AAXX  12184 82900 21597 81406 10255 20244 30079 40088 76396 88700 333 58026 60121;
0201829000999992000041300004-08050-034920FM-12+000799999V0201801N001010075019N0020001N1+02641+02331101001ADDAA106003091AY161061AY221061GF107991071031008001001001KA1240M+02921MA1999999100911MD1999999-0191MW1031REMSYN088AAXX  13004 82900 21595 71802 10264 20233 30091 40100 70362 87300 333 10292 59019 60031;
0201829000999992000041312004-08050-034920FM-12+000799999V0201401N002110075019N0100001N1+02881+02391101211ADDAA124020191AY161061AY221061GF106991061031008001001001KA1240N+02391MA1999999101121MD1999999+0021MW1021REMSYN088AAXX  13124 82900 21597 61404 10288 20239 30112 40121 70262 86300 333 20239 58002 60204;
0167829000999992000041318004-08050-034920FM-12+000799999V0201401N004110075019N0100001N1+02891+02301101011ADDAA199000091GF105991051021008001001001MA1999999100921MD1999999+0131REMSYN070AAXX  13184 82900 32597 51408 10289 20230 30092 40101 85200 333 58013;EQDQ01  00002PRCP99
0201829000999992000041400004-08050-034920FM-12+000799999V0201801N001510075019N0020001N1+02571+02441101261ADDAA106000591AY151061AY221061GF107991071061008001001001KA1240M+02951MA1999999101171MD1999999+0261MW1031REMSYN088AAXX  14004 82900 21595 71803 10257 20244 30117 40126 70352 87600 333 10295 58026 69961;
0167829000999992000041418004-08050-034920FM-12+000799999V0201401N001510450019N0100001N1+02851+02421100991ADDAA199000091GF106991031021008001031001MA1999999100901MD1999999-0021REMSYN070AAXX  14184 82900 32597 61403 10285 20242 30090 40099 83230 333 59002;EQDQ01  00002PRCP99
0242829000999992000041500004-08050-034920FM-12+000799999V0209999C000019999999N0020001N1+02611+02441101281ADDAA106000491AY121061AY211061GA1999+000159999GF107991071071008001001001KA1240M+03001MA1999999101191MD1999999+0021MW1601REMSYN094AAXX  15004 82900 21595 70000 10261 20244 30119 40128 76021 87700 333 10300 58002 69941 8022/;EQDQ01    003SCCGA1
0201829000999992000041512004-08050-034920FM-12+000799999V0202701N001510450019N0100001N1+02711+02481101391ADDAA124005191AY161061AY221061GF106991041021008001041001KA1240N+02381MA1999999101301MD1999999+0161MW1031REMSYN088AAXX  15124 82900 21597 62703 10271 20248 30130 40139 70362 84240 333 20238 58016 60054;
0167829000999992000041518004-08050-034920FM-12+000799999V0201401N003110075019N0100001N1+02931+02361101171ADDAA199000091GF105991051021008001001001MA1999999101081MD1999999+0181REMSYN070AAXX  15184 82900 32597 51406 10293 20236 30108 40117 85200 333 58018;EQDQ01  00002PRCP99
0186829000999992000041600004-08050-034920FM-12+000799999V0209999C000010075019N0020001N1+02581+02461101371ADDAA199000091GF106991061031008001001001KA1240M+03001MA1999999101281MD1999999+0091REMSYN076AAXX  16004 82900 32595 60000 10258 20246 30128 40137 86300 333 10300 58009;EQDQ01  00002PRCP99
0201829000999992000041612004-08050-034920FM-12+000799999V0201801N002110075019N0100001N1+02711+02481101341ADDAA124000191AY191061AY251061GF108991071071008001021001KA1240N+02461MA1999999101251MD1999999-0051MW1031REMSYN088AAXX  16124 82900 21597 81804 10271 20248 30125 40134 70395 87720 333 20246 59005 69924;
0167829000999992000041618004-08050-034920FM-12+000799999V0201401N004110450019N0100001N1+02851+02351100931ADDAA199000091GF105991041051008001031001MA1999999100841MD1999999-0241REMSYN070AAXX  16184 82900 32597 51408 10285 20235 30084 40093 84530 333 59024;EQDQ01  00002PRCP99
0201829000999992000041700004-08050-034920FM-12+000799999V0201801N001510075019N0020001N1+02641+02441101321ADDAA106007991AY121061AY211061GF107991071021008001001001KA1240M+02971MA1999999101231MD1999999-0051MW1611REMSYN088AAXX  17004 82900 21595 71803 10264 20244 30123 40132 76121 87200 333 10297 59005 60081;
0201829000999992000041712004-08050-034920FM-12+000799999V0202301N001010075019N0100001N1+02531+02381101371ADDAA124025991AY161061AY261061GF108991081071008001999999KA1240N+02301MA1999999101281MD1999999+0031MW1031REMSYN088AAXX  17124 82900 21597 82302 10253 20238 30128 40137 70366 887// 333 20230 58003 60264;
0182829000999992000041718004-08050-034920FM-12+000799999V0201401N002110075019N0100001N1+02661+02351100991ADDAA106000391AY161061AY261061GF108991081051008001001001MA1999999100901MD1999999+0061MW1031REMSYN082AAXX  17184 82900 21597 81404 10266 20235 30090 40099 70366 88500 333 58006 69931;
0186829000999992000041800004-08050-034920FM-12+000799999V0202301N001010075019N0020001N1+02461+02391101211ADDAA199000091GF106991061021008001001001KA1240M+02651MA1999999101121MD1999999-0111REMSYN076AAXX  18004 82900 32595 62302 10246 20239 30112 40121 86200 333 10265 59011;EQDQ01  00002PRCP99
0201829000999992000041812004-08050-034920FM-12+000799999V0209999C000010450019N0100001N1+02741+02431101451ADDAA124003091AY161061AY221061GF106991041021008001031001KA1240N+02241MA1999999101361MD1999999+0081MW1021REMSYN088AAXX  18124 82900 21597 60000 10274 20243 30136 40145 70262 84230 333 20224 58008 60034;
0167829000999992000041818004-08050-034920FM-12+000799999V0201401N003110450019N0100001N1+02821+02381101091ADDAA199000091GF105991031021008001041001MA1999999101001MD1999999+0101REMSYN070AAXX  18184 82900 32597 51406 10282 20238 30100 40109 83240 333 58010;EQDQ01  00002PRCP99
0186829000999992000041900004-08050-034920FM-12+000799999V0209999C000010075019N0020001N1+02441+02371101351ADDAA199000091GF105991051021008001001001KA1240M+02951MA1999999101261MD1999999+0141REMSYN076AAXX  19004 82900 32595 50000 10244 20237 30126 40135 85200 333 10295 58014;EQDQ01  00002PRCP99
0201829000999992000041912004-08050-034920FM-12+000799999V0209999C000010075019N0100001N1+02531+02361101401ADDAA124009991AY161061AY241061GF107991051021008001041001KA1240N+01941MA1999999101311MD1999999-0051MW1031REMSYN088AAXX  19124 82900 21597 70000 10253 20236 30131 40140 70364 85240 333 20194 59005 60104;
0167829000999992000041918004-08050-034920FM-12+000799999V0201401N003110075019N0100001N1+02861+02441101141ADDAA199000091GF105991051021008001001001MA1999999101051MD1999999+0051REMSYN070AAXX  19184 82900 32597 51406 10286 20244 30105 40114 85200 333 58005;EQDQ01  00002PRCP99
0201829000999992000042000004-08050-034920FM-12+000799999V0209999C000012200019N0020001N1+02491+02411101351ADDAA106000191AY151061AY221061GF102991021011008001001001KA1240M+03011MA1999999101261MD1999999+0001MW1011REMSYN088AAXX  20004 82900 21595 20000 10249 20241 30126 40135 70152 82100 333 10301 58000 69921;
0201829000999992000042012004-08050-034920FM-12+000799999V0201801N001012200019N0100001N1+02741+02401101301ADDAA124000391AY151061AY221061GF104991031041008001021001KA1240N+02391MA1999999101211MD1999999-0101MW1011REMSYN088AAXX  20124 82900 21597 41802 10274 20240 30121 40130 70152 83420 333 20239 59010 69934;
0201829000999992000042112004-08050-034920FM-12+000799999V0200901N001010075019N0100001N1+02841+02481101201ADDAA124004191AY161061AY221061GF105991051021008001001001KA1240N+02381MA1999999101111MD1999999-0101MW1021REMSYN088AAXX  21124 82900 21597 50902 10284 20248 30111 40120 70262 85200 333 20238 59010 60044;
0167829000999992000042118004-08050-034920FM-12+000799999V0201401N003112200019N0100001N1+02961+02401100821ADDAA199000091GF102991021021008001001001MA1999999100731MD1999999-0141REMSYN070AAXX  21184 82900 32597 21406 10296 20240 30073 40082 82200 333 59014;EQDQ01  00002PRCP99
0186829000999992000042200004-08050-034920FM-12+000799999V0200901N001510075019N0020001N1+02711+02391101151ADDAA199000091GF105991051021008001001001KA1240M+03011MA1999999101061MD1999999-0121REMSYN076AAXX  22004 82900 32595 50903 10271 20239 30106 40115 85200 333 10301 59012;EQDQ01  00002PRCP99
0167829000999992000042218004-08050-034920FM-12+000799999V0200901N001512200019N0100001N1+03051+02361100921ADDAA199000091GF103991031011008001001001MA1999999100831MD1999999+0101REMSYN070AAXX  22184 82900 32597 30903 10305 20236 30083 40092 83100 333 58010;EQDQ01  00002PRCP99
0186829000999992000042300004-08050-034920FM-12+000799999V0209999C000012200019N0020001N1+02541+02401101151ADDAA199000091GF101991011011008001001001KA1240M+03121MA1999999101061MD1999999+0001REMSYN076AAXX  23004 82900 32595 10000 10254 20240 30106 40115 81100 333 10312 58000;EQDQ01  00002PRCP99
0186829000999992000042312004-08050-034920FM-12+000799999V0200901N001512200019N0100001N1+02911+02371101331ADDAA199000091GF104991041021008001001001KA1240N+02221MA1999999101241MD1999999+0061REMSYN076AAXX  23124 82900 32597 40903 10291 20237 30124 40133 84200 333 20222 58006;EQDQ01  00002PRCP99
0167829000999992000042318004-08050-034920FM-12+000799999V0201401N003110075019N0100001N1+02981+02401101041ADDAA199000091GF106991061031008001001001MA1999999100951MD1999999+0121REMSYN070AAXX  23184 82900 32597 61406 10298 20240 30095 40104 86300 333 58012;EQDQ01  00002PRCP99
0167829000999992000042418004-08050-034920FM-12+000799999V0201801N004112200019N0100001N1+02881+02371100991ADDAA199000091GF104991031021008001041001MA1999999100901MD1999999-0051REMSYN070AAXX  24184 82900 32597 41808 10288 20237 30090 40099 83240 333 59005;EQDQ01  00002PRCP99
0201829000999992000042500004-08050-034920FM-12+000799999V0202301N001512200019N0020001N1+02551+02361101191ADDAA106001091AY161061AY221061GF102991021021008001001001KA1240M+03011MA1999999101101MD1999999-0031MW1011REMSYN088AAXX  25004 82900 21595 22303 10255 20236 30110 40119 70162 82200 333 10301 59003 60011;
0201829000999992000042512004-08050-034920FM-12+000799999V0201801N003110075019N0100001N1+02781+02321101141ADDAA124015091AY161061AY221061GF107991061031008001041001KA1240N+02341MA1999999101051MD1999999-0121MW1031REMSYN088AAXX  25124 82900 21597 71806 10278 20232 30105 40114 70362 86340 333 20234 59012 60154;
0182829000999992000042518004-08050-034920FM-12+000799999V0201401N004610075019N0100001N1+02841+02311101021ADDAA106000191AY161061AY261061GF108991081061008001999999MA1999999100931MD1999999+0031MW1031REMSYN082AAXX  25184 82900 21597 81409 10284 20231 30093 40102 70366 886// 333 58003 69921;
0201829000999992000042600004-08050-034920FM-12+000799999V0202301N002110075019N0020001N1+02361+02291101341ADDAA106041991AY161061AY261061GF107991071071008001001001KA1240M+02961MA1999999101251MD1999999+0151MW1031REMSYN088AAXX  26004 82900 21595 72304 10236 20229 30125 40134 70366 87700 333 10296 58015 60421;
0201829000999992000042612004-08050-034920FM-12+000799999V0202301N003610075019N0100001N1+02411+02241101461ADDAA124052191AY161061AY261061GF107991061071008001021001KA1240N+02221MA1999999101371MD1999999+0321MW1031REMSYN088AAXX  26124 82900 21597 72307 10241 20224 30137 40146 70366 86720 333 20222 58032 60524;
0182829000999992000042618004-08050-034920FM-12+000799999V0201801N002110075019N0100001N1+02831+02121101191ADDAA106001091AY161061AY221061GF106991051021008001041001MA1999999101101MD1999999+0171MW1011REMSYN082AAXX  26184 82900 21597 61804 10283 20212 30110 40119 70162 85240 333 58017 60011;
0186829000999992000042700004-08050-034920FM-12+000799999V0202301N001512200019N0020001N1+02471+02281101421ADDAA199000091GF102991021021008001001001KA1240M+02841MA1999999101331MD1999999+0081REMSYN076AAXX  27004 82900 32595 22303 10247 20228 30133 40142 82200 333 10284 58008;EQDQ01  00002PRCP99
0173829000999992000042712004-08050-034920FM-12+000799999V0201801N003110075019N0100001N1+02791+02291101381ADDAA124001091GF106991061021008001001001KA1240N+02141MA1999999101291MD1999999-0061REMSYN082AAXX  27124 82900 22597 61806 10279 20229 30129 40138 86200 333 20214 59006 60014;
0167829000999992000042718004-08050-034920FM-12+000799999V0201401N003110075019N0100001N1+02931+02361101111ADDAA199000091GF105991051021008001001001MA1999999101021MD1999999-0081REMSYN070AAXX  27184 82900 32597 51406 10293 20236 30102 40111 85200 333 59008;EQDQ01  00002PRCP99
0186829000999992000042800004-08050-034920FM-12+000799999V0202301N002112200019N0020001N1+02561+02401101431ADDAA199000091GF104991041021008001001001KA1240M+02961MA1999999101341MD1999999+0011REMSYN076AAXX  28004 82900 32595 42304 10256 20240 30134 40143 84200 333 10296 58001;EQDQ01  00002PRCP99
0201829000999992000042812004-08050-034920FM-12+000799999V0202301N001510450019N0100001N1+02651+02371101531ADDAA124013091AY161061AY221061GF106991041021008001031001KA1240N+02361MA1999999101441MD1999999+0151MW1031REMSYN088AAXX  28124 82900 21597 62303 10265 20237 30144 40153 70362 84230 333 20236 58015 60134;
0167829000999992000042818004-08050-034920FM-12+000799999V0201401N003610450019N0100001N1+02891+02321101211ADDAA199000091GF105991031021008001021001MA1999999101121MD1999999+0101REMSYN070AAXX  28184 82900 32597 51407 10289 20232 30112 40121 83220 333 58010;EQDQ01  00002PRCP99
0201829000999992000042900004-08050-034920FM-12+000799999V0201401N001510075019N0020001N1+02711+02341101511ADDAA106000191AY151061AY221061GF106991061021008001001001KA1240M+02981MA1999999101421MD1999999+0081MW1031REMSYN088AAXX  29004 82900 21595 61403 10271 20234 30142 40151 70352 86200 333 10298 58008 69921;
0201829000999992000042912004-08050-034920FM-12+000799999V0201801N003110450019N0100001N1+02821+02391101481ADDAA124017091AY161061AY261061GF106991041021008001031001KA1240N+02401MA1999999101391MD1999999-0051MW1031REMSYN088AAXX  29124 82900 21597 61806 10282 20239 30139 40148 70366 84230 333 20240 59005 60174;
0167829000999992000042918004-08050-034920FM-12+000799999V0201801N004610075019N0100001N1+02871+02211101211ADDAA199000091GF106991061021008001001001MA1999999101121MD1999999+0001REMSYN070AAXX  29184 82900 32597 61809 10287 20221 30112 40121 86200 333 58000;EQDQ01  00002PRCP99
0202829000999992000043000004-08050-034920FM-12+000799999V0201801N004612200019N0020001N1+02711+02261101411ADDAA199000091GF102991999011008001001001KA1240M+02951MA1999999101321MD1999999-0101REMSYN076AAXX  30004 82900 32595 21809 10271 20226 30132 40141 83100 333 10295 59010;EQDQ01+000032SCOTLCQ02  00002PRCP99
