0201832360999992000010100004-12150-045000FM-12+044099999V0200501N002110450019N9999999N1+02191+02101100811ADDAA106002091AY151061AY251061GF108991041051008001021999KA1240M+02841MA1999999095891MD1999999-0081MW1501REMSYN088AAXX  01004 83236 215// 80504 10219 20210 39589 40081 75055 8452/ 333 10284 59008 60021;
0201832360999992000010112004-12150-045000FM-12+044099999V0200501N001510450019N0040001N1+02211+02081100931ADDAA124015091AY161061AY261061GF108991031051008001021999KA1240N+02151MA1999999095991MD1999999-0091MW1511REMSYN088AAXX  01124 83236 21596 80503 10221 20208 39599 40093 75166 8352/ 333 20215 59009 60154;
0186832360999992000010200004-12150-045000FM-12+044099999V0200501N001012200019N9999999N1+02441+02131100611ADDAA106000091GF103991031041008001001001KA1240M+02891MA1999999095701MD1999999-0191REMSYN076AAXX  02004 83236 325// 30502 10244 20213 39570 40061 83400 333 10289 59019;EQDQ01  00002PRCP06
0201832360999992000010212004-12150-045000FM-12+044099999V0209999C000010450019N0040001N1+02271+02121100751ADDAA124020191AY161061AY261061GF108991041051008001021999KA1240N+02091MA1999999095841MD1999999-0151MW1401REMSYN088AAXX  02124 83236 21596 80000 10227 20212 39584 40075 74066 8452/ 333 20209 59015 60204;
0182832360999992000010218004-12150-045000FM-12+044099999V0209999C000010450019N0100001N1+02411+02211100581ADDAA106011991AY161061AY261061GF108991031051008001021999MA1999999095681MD1999999+0121MW1511REMSYN082AAXX  02184 83236 21597 80000 10241 20221 39568 40058 75166 8352/ 333 58012 60121;
0201832360999992000010300004-12150-045000FM-12+044099999V0209999C000010210019N9999999N1+02251+02161100841ADDAA106001091AY161061AY261061GF108991081001022501021999KA1240M+02441MA1999999095921MD1999999+0221MW1021REMSYN088AAXX  03004 83236 218// 80000 10225 20216 39592 40084 70266 8802/ 333 10244 58022 60011;
0201832360999992000010312004-12150-045000FM-12+044099999V0209999C000010075019N0100001N1+02371+02191100771ADDAA124014091AY151061AY251061GF108991051051008001021999KA1240N+02161MA1999999095851MD1999999+0011MW1021REMSYN088AAXX  03124 83236 21597 80000 10237 20219 39585 40077 70255 8552/ 333 20216 58001 60144;
0195832360999992000010318004-12150-045000FM-12+044099999V0200501N004110450019N0200001N1+02921+02271999999ADDAA106000021AY141061AY261061GF106991031021008001041061MA1999999095511MD1999999+0171MW1221REMSYN076AAXX  03184 83236 31598 60508 10292 20227 39551 4//// 72246 83246 333 58017;EQDQ01+000002PRSWM1
0201832360999992000010400004-12150-045000FM-12+044099999V0209999C000010210019N0040001N1+02311+02181100821ADDAA106000891AY151061AY251061GF108991081001022501021999KA1240M+02961MA1999999095911MD1999999-0011MW1411REMSYN088AAXX  04004 83236 21896 80000 10231 20218 39591 40082 74155 8802/ 333 10296 59001 69971;
0167832360999992000010418004-12150-045000FM-12+044099999V0200901N001010450019N0100001N1+02531+02111999999ADDAA106000091GF108991021011008001021999MA1999999095851MD1999999+0341REMSYN070AAXX  04184 83236 32597 80902 10253 20211 39585 4//// 8212/ 333 58034;EQDQ01  00002PRCP06
0186832360999992000010500004-12150-045000FM-12+044099999V0209999C000010210019N0040001N1+02311+02181100791ADDAA106000091GF108991081001022501021999KA1240M+02581MA1999999095871MD1999999-0041REMSYN076AAXX  05004 83236 32896 80000 10231 20218 39587 40079 8802/ 333 10258 59004;EQDQ01  00002PRCP06
0214832360999992000010512004-12150-045000FM-12+044099999V0209999C000010075019N0200001N1+02471+02231101031ADDAA106000091AY121061AY221061GF107991051051008001021031KA1240N+01871MA1999999096121MD1999999+0031MW1151REMSYN082AAXX  05124 83236 31598 70000 10247 20223 39612 40103 71522 85523 333 20187 58003;EQDQ01  00002PRCP06
0182832360999992000010518004-12150-045000FM-12+044099999V0209999C000010075019N0100001N1+02511+02311999999ADDAA106007191AY161061AY251061GF107991061041008001051041MA1999999095811MD1999999-0041MW1031REMSYN082AAXX  05184 83236 21597 70000 10251 20231 39581 40/// 70365 86454 333 59004 60071;
0173832360999992000010612004-12150-045000FM-12+044099999V0209999C000010450019N0200001N1+02391+02131101011ADDAA124007191GF106991041031008001071041KA1240N+01991MA1999999096091MD1999999-0031REMSYN082AAXX  06124 83236 22598 60000 10239 20213 39609 40101 84374 333 20199 59003 60074;
0214832360999992000010700004-12150-045000FM-12+044099999V0209999C000010075019N0100001N1+02121+02021100911ADDAA106000091AY121061AY221061GF106991061051008001071001KA1240M+03051MA1999999095981MD1999999+0051MW1131REMSYN082AAXX  07004 83236 31597 60000 10212 20202 39598 40091 71322 86570 333 10305 58005;EQDQ01  00002PRCP06
0186832360999992000010712004-12150-045000FM-12+044099999V0209999C000010075019N0100001N1+02391+02031100991ADDAA106000091GF107991061021008001071041KA1240N+01951MA1999999096061MD1999999-0031REMSYN076AAXX  07124 83236 32597 70000 10239 20203 39606 40099 86274 333 20195 59003;EQDQ01  00002PRCP06
0195832360999992000010718004-12150-045000FM-12+044099999V0200501N004110075019N0100001N1+03011+01911999999ADDAA106000091AY121061AY221061GF107991061051008001071051MA1999999095681MD1999999-0051MW1151REMSYN076AAXX  07184 83236 31597 70508 10301 20191 39568 40/// 71522 86575 333 59005;EQDQ01  00002PRCP06
0201832360999992000010800004-12150-045000FM-12+044099999V0209999C000010120019N0040001N1+02121+02051100731ADDAA106000191AY151061AY251061GF108991071081008001999999KA1240M+03041MA1999999095811MD1999999-0171MW1031REMSYN088AAXX  08004 83236 21596 80000 10212 20205 39581 40073 70355 878// 333 10304 59017 69921;
0173832360999992000010812004-12150-045000FM-12+044099999V0209999C000010075019N0200001N1+02391+02151101041ADDAA124000191GF106991051021008001061031KA1240N+02031MA1999999096111MD1999999+0051REMSYN082AAXX  08124 83236 22598 60000 10239 20215 39611 40104 85263 333 20203 58005 69924;
0195832360999992000010818004-12150-045000FM-12+044099999V0200501N003610075019N0100001N1+02861+01921999999ADDAA106000091AY121061AY221061GF108991071061008001071999MA1999999095681MD1999999+0001MW1171REMSYN076AAXX  08184 83236 31597 80507 10286 20192 39568 4//// 71722 8767/ 333 58000;EQDQ01  00002PRCP06
0201832360999992000010912004-12150-045000FM-12+044099999V0209999C000010075019N0040001N1+02271+02111101261ADDAA124002091AY151061AY251061GF108991071051008001031999KA1240N+02131MA1999999096231MD1999999+0211MW1201REMSYN088AAXX  09124 83236 21596 80000 10227 20211 39623 40126 72055 8753/ 333 20213 58021 60024;
0182832360999992000010918004-12150-045000FM-12+044099999V0209999C000010075019N0040001N1+02561+02081999999ADDAA106002091AY161061AY261061GF108991071051008001071999MA1999999096051MD1999999+0371MW1171REMSYN082AAXX  09184 83236 21596 80000 10256 20208 39605 4//// 71766 8757/ 333 58037 60021;
0201832360999992000011000004-12150-045000FM-12+044099999V0209999C000010075019N9999999N1+02151+02091101121ADDAA106017091AY161061AY261061GF108991071061008001999999KA1240M+02601MA1999999096171MD1999999+0261MW1101REMSYN088AAXX  10004 83236 215// 80000 10215 20209 39617 40112 71066 876// 333 10260 58026 60171;
0201832360999992000011012004-12150-045000FM-12+044099999V0209999C000010075019N0100001N1+02271+02121101161ADDAA124019191AY151061AY251061GF106991051061008001071051KA1240N+01991MA1999999096211MD1999999-0111MW1101REMSYN088AAXX  10124 83236 21597 60000 10227 20212 39621 40116 71055 85675 333 20199 59011 60194;
0167832360999992000011018004-12150-045000FM-12+044099999V0200501N002610075019N0200001N1+02911+01901999999ADDAA106000091GF106991051041008001031051MA1999999095891MD1999999-0161REMSYN070AAXX  10184 83236 32598 60505 10291 20190 39589 4//// 85435 333 59016;EQDQ01  00002PRCP06
0186832360999992000011100004-12150-045000FM-12+044099999V0201801N001012200019N9999999N1+02341+02241100891ADDAA106000091GF103991031021008001001001KA1240M+02971MA1999999095961MD1999999-0211REMSYN076AAXX  11004 83236 325// 31802 10234 20224 39596 40089 83200 333 10297 59021;EQDQ01  00002PRCP06
0186832360999992000011112004-12150-045000FM-12+044099999V0209999C000010075019N0100001N1+02471+02091101091ADDAA106000091GF108991061071008001051999KA1240N+02001MA1999999096171MD1999999-0041REMSYN076AAXX  11124 83236 32597 80000 10247 20209 39617 40109 8675/ 333 20200 59004;EQDQ01  00002PRCP06
0195832360999992000011118004-12150-045000FM-12+044099999V0200901N004110075019N0100001N1+02751+02211999999ADDAA106000091AY121061AY221061GF107991061051008001071031MA1999999095821MD1999999-0071MW1151REMSYN076AAXX  11184 83236 31597 70908 10275 20221 39582 4//// 71522 86573 333 59007;EQDQ01  00002PRCP06
0186832360999992000011200004-12150-045000FM-12+044099999V0209999C000010075019N0040001N1+02451+02341100851ADDAA106000091GF108991061071008001021999KA1240M+02971MA1999999095951MD1999999-0011REMSYN076AAXX  12004 83236 32596 80000 10245 20234 39595 40085 8672/ 333 10297 59001;EQDQ01  00002PRCP06
0186832360999992000011212004-12150-045000FM-12+044099999V0209999C000010075019N0200001N1+02411+01951100951ADDAA106000091GF106991051021008001081031KA1240N+02051MA1999999096031MD1999999-0141REMSYN076AAXX  12124 83236 32598 60000 10241 20195 39603 40095 85283 333 20205 59014;EQDQ01  00002PRCP06
0167832360999992000011218004-12150-045000FM-12+044099999V0200501N001010075019N0100001N1+02731+02051999999ADDAA106000091GF108991071021008001071999MA1999999095861MD1999999+0041REMSYN070AAXX  12184 83236 32597 80502 10273 20205 39586 4//// 8727/ 333 58004;EQDQ01  00002PRCP06
0186832360999992000011300004-12150-045000FM-12+044099999V0209999C000012200019N0200001N1+02401+02011100791ADDAA106000091GF104991031021012501041031KA1240M+02801MA1999999095891MD1999999-0061REMSYN076AAXX  13004 83236 32698 40000 10240 20201 39589 40079 83243 333 10280 59006;EQDQ01  00002PRCP06
0186832360999992000011312004-12150-045000FM-12+044099999V0209999C000010075019N0200001N1+02581+02171101051ADDAA106000091GF106991051021008001051031KA1240N+02061MA1999999096151MD1999999+0121REMSYN076AAXX  13124 83236 32598 60000 10258 20217 39615 40105 85253 333 20206 58012;EQDQ01  00002PRCP06
0167832360999992000011318004-12150-045000FM-12+044099999V0200501N004110075019N0200001N1+03041+01881999999ADDAA106000091GF107991051021008001071041MA1999999095821MD1999999-0041REMSYN070AAXX  13184 83236 32598 70508 10304 20188 39582 4//// 85274 333 59004;EQDQ01  00002PRCP06
0190832360999992000011400004-12150-045000FM-12+044099999V0209999C000012200019N0100001N1+02591+02251100711ADDAA199000091GF104991021001022501071031KA1240M+03171MA1999999095841MD1999999-0051REMSYN080    AAXX  14004 83236 32897 40000 10259 20225 39584 40071 82073 333 10317 59005;EQDQ01  00002PRCP99
0190832360999992000011412004-12150-045000FM-12+044099999V0209999C000012200019N0500001N1+02511+02111101011ADDAA199000091GF103991011021012501001041KA1240N+02021MA1999999096131MD1999999-0021REMSYN080    AAXX  14124 83236 32699 30000 10251 20211 39613 40101 81204 333 20202 59002;EQDQ01  00002PRCP99
0199832360999992000011418004-12150-045000FM-12+044099999V0203201N001010075019N0200001N1+03321+01651999999ADDAA199000091AY121061AY221061GF106991051051008001071051MA1999999095611MD1999999-0211MW1171REMSYN080    AAXX  14184 83236 31598 63202 10332 20165 39561 40/// 71722 85575 333 59021;EQDQ01  00002PRCP99
0215832360999992000011500004-12150-045000FM-12+044099999V0209999C000012200019N0500001N1+02291+02211100661ADDAA106006191AY191061AY261061GA1001+999999999GF100991001001999999001001KA1240M+03361MA1999999095761MD1999999-0081MW1021REMSYN086    AAXX  15004 83236 21999 00000 10229 20221 39576 40066 70296 333 10336 59008 60061;
0187832360999992000011512004-12150-045000FM-12+044099999V0209999C000012200019N0500001N1+02491+02211100911ADDAA124006191GA1001+999999999GF100991001001999999001001KA1240N+01911MA1999999096001MD1999999-0131REMSYN080    AAXX  15124 83236 22999 00000 10249 20221 39600 40091 333 20191 59013 60064;
0171832360999992000011518004-12150-045000FM-12+044099999V0203201N001012200019N0500001N1+03351+01671999999ADDAA199000091GF102991021021012501001001MA1999999095591MD1999999-0021REMSYN074    AAXX  15184 83236 32699 23202 10335 20167 39559 4//// 82200 333 59002;EQDQ01  00002PRCP99
0200832360999992000011600004-12150-045000FM-12+044099999V0209999C000012200019N9999999N1+02521+02171100521ADDAA199000091GA1001+999999999GF100991001001999999001001KA1240M+03501MA1999999095651MD1999999-0111REMSYN074    AAXX  16004 83236 329// 00000 10252 20217 39565 40052 333 10350 59011;EQDQ01  00002PRCP99
0190832360999992000011612004-12150-045000FM-12+044099999V0209999C000012200019N0500001N1+02481+01901100931ADDAA199000091GF103991021021012501001051KA1240N+01831MA1999999096041MD1999999+0041REMSYN080    AAXX  16124 83236 32699 30000 10248 20190 39604 40093 82205 333 20183 58004;EQDQ01  00002PRCP99
0171832360999992000011618004-12150-045000FM-12+044099999V0200501N002110075019N0200001N1+03231+01801999999ADDAA199000091GF107991051021008001081041MA1999999095681MD1999999+0091REMSYN074    AAXX  16184 83236 32598 70504 10323 20180 39568 40/// 85284 333 58009;EQDQ01  00002PRCP99
0218832360999992000011700004-12150-045000FM-12+044099999V0209999C000010450019N9999999N1+02421+02231100661ADDAA199000091AY121061AY221061GF106991041051008001071041KA1240M+03271MA1999999095771MD1999999+0121MW1131REMSYN086    AAXX  17004 83236 315// 60000 10242 20223 39577 40066 71322 84574 333 10327 58012;EQDQ01  00002PRCP99
0190832360999992000011712004-12150-045000FM-12+044099999V0209999C000010075019N0200001N1+02631+02051100911ADDAA199000091GF106991051021008001061051KA1240N+02131MA1999999096031MD1999999-0011REMSYN080    AAXX  17124 83236 32598 60000 10263 20205 39603 40091 85265 333 20213 59001;EQDQ01  00002PRCP99
0199832360999992000011718004-12150-045000FM-12+044099999V0200501N002110075019N0200001N1+03221+02051999999ADDAA199000091AY121061AY221061GF106991051061008001051041MA1999999095671MD1999999-0011MW1171REMSYN080    AAXX  17184 83236 31598 60504 10322 20205 39567 4//// 71722 85654 333 59001;EQDQ01  00002PRCP99
0218832360999992000011800004-12150-045000FM-12+044099999V0209999C000010075019N0100001N1+02371+02261100841ADDAA199000091AY121061AY221061GF107991051051008001061051KA1240M+03281MA1999999095951MD1999999-0091MW1131REMSYN086    AAXX  18004 83236 31597 70000 10237 20226 39595 40084 71322 85565 333 10328 59009;EQDQ01  00002PRCP99
0205832360999992000011812004-12150-045000FM-12+044099999V0209999C000010450019N0500001N1+02631+02161101081ADDAA124008991AY161061AY251061GF105991031021008001051031KA1240N+02221MA1999999096181MD1999999+0151MW1031REMSYN092    AAXX  18124 83236 21599 50000 10263 20216 39618 40108 70365 83253 333 20222 58015 60094;
0203832360999992000011818004-12150-045000FM-12+044099999V0200501N002610075019N0200001N1+03261+02051999999ADDAA199000091GF106991051041008001071041MA1999999999999MD1999999+0181REMSYN074    AAXX  18184 83236 32598 60505 10326 20205 3985/ 4//// 85474 333 58018;EQDQ01+098503APOSP Q02  00002PRCP99Q03 098503APOSP 
0234832360999992000011900004-12150-045000FM-12+044099999V0209999C000011050019N0100001N1+02571+02111100711ADDAA199000091AY121061AY221061GF106991041051008001001051KA1240M+03271MA1999999095842MD1999999-0111MW1131REMSYN086    AAXX  19004 83236 31597 60000 10257 20211 39584 40071 71322 84505 333 10327 59011;EQDQ01+095843APOSP Q02  00002PRCP99
0190832360999992000011912004-12150-045000FM-12+044099999V0209999C000010450019N0200001N1+02801+02131101051ADDAA199000091GF105991041021008001071031KA1240N+02171MA1999999096181MD1999999+0001REMSYN080    AAXX  19124 83236 32598 50000 10280 20213 39618 40105 84273 333 20217 58000;EQDQ01  00002PRCP99
0167832360999992000011918004-12150-045000FM-12+044099999V0209999C000010075019N0200001N1+02911+02171999999ADDAA199000091GF107991051021008001081041MA1999999095801MD1999999-0051REMSYN070AAXX  19184 83236 32598 70000 10291 20217 39580 4//// 85284 333 59005;EQDQ01  00002PRCP99
0186832360999992000012012004-12150-045000FM-12+044099999V0209999C000010450019N0200001N1+02551+02271101011ADDAA199000091GF106991021011008001041051KA1240N+02211MA1999999096131MD1999999-0051REMSYN076AAXX  20124 83236 32598 60000 10255 20227 39613 40101 82145 333 20221 59005;EQDQ01  00002PRCP99
0182832360999992000012018004-12150-045000FM-12+044099999V0202701N001010450019N0100001N1+02941+02161999999ADDAA106013091AY191061AY261061GF107991041041008001061001MA1999999095751MD1999999-0051MW1021REMSYN082AAXX  20184 83236 21597 72702 10294 20216 39575 4//// 70296 84460 333 59005 60131;
0214832360999992000012100004-12150-045000FM-12+044099999V0209999C000010450019N0100001N1+02531+02361100771ADDAA199000091AY101061AY221061GF108991031031008001021999KA1240M+03091MA1999999095901MD1999999+0071MW1131REMSYN082AAXX  21004 83236 31597 80000 10253 20236 39590 40077 71302 8332/ 333 10309 58007;EQDQ01  00002PRCP99
0195832360999992000012112004-12150-045000FM-12+044099999V0203201N000510450019N0200001N1+02531+02191999999ADDAA124014091AY151061AY251061GF106991031021008001031001KA1240N+02281MA1999999096041MD1999999-0141MW1021REMSYN082AAXX  21124 83236 31598 63201 10253 20219 39604 70255 83230 333 20228 59014 60144;
0182832360999992000012118004-12150-045000FM-12+044099999V0201801N002110450019N0100001N1+02481+02131999999ADDAA106000191AY151061AY251061GF107991041091008001041001MA1999999095691MD1999999-0061MW1151REMSYN082AAXX  21184 83236 31597 71804 10248 20213 39569 40/// 71555 84940 333 59006 69921;
0220832360999992000012200004-12150-045000FM-12+044099999V0209999C000019999999N0100001N1+02541+02111100931ADDAA106002091AY151061AY251061GF108991999081022501021999KA1240M+03071MA1999999096051MD1999999+0151MW1021REMSYN088AAXX  22004 83236 21897 80000 10254 20211 39605 40093 70255 8082/ 333 10307 58015 60021;EQDQ01+000002SCOTLC
0187832360999992000012212004-12150-045000FM-12+044099999V0200501N003110450019N0200001N1+02371+02131101151ADDAA124004191AY151061AY251061GF105991031021008001061001KA1240N+02171MA1999999096241MW1021REMSYN088AAXX  22124 83236 21598 50506 10237 20213 39624 40115 70255 83260 333 20217 5820/ 60044;
0181832360999992000012218004-12150-045000FM-12+044099999V0200501N003612200019N0200001N1+02891+02231999999ADDAA199000091AY101061AY221061GF106991041091008001001041MA1999999095811MW1151REMSYN076AAXX  22184 83236 31598 60507 10289 20223 39581 40/// 71502 84904 333 58/02;EQDQ01  00002PRCP99
0201832360999992000012300004-12150-045000FM-12+044099999V0200501N006210210019N9999999N1+02311+02131100951ADDAA106000191AY151061AY251061GF108991081001022501021999KA1240M+02921MA1999999096031MD1999999-0021MW1511REMSYN088AAXX  23004 83236 218// 80512 10231 20213 39603 40095 75155 8802/ 333 10292 59002 69921;
0201832360999992000012312004-12150-045000FM-12+044099999V0209999C000010450019N0100001N1+02251+02161101171ADDAA124033091AY161061AY261061GF107991031011008001021001KA1240N+02151MA1999999096231MD1999999-0011MW1421REMSYN088AAXX  23124 83236 21597 70000 10225 20216 39623 40117 74266 83120 333 20215 59001 60334;
0167832360999992000012318004-12150-045000FM-12+044099999V0202701N003110450019N0200001N1+02811+02201999999ADDAA199000091GF106991041031008001041001MA1999999095831MD1999999+0021REMSYN070AAXX  23184 83236 32598 62706 10281 20220 39583 4//// 84340 333 58002;EQDQ01  00002PRCP99
0201832360999992000012400004-12150-045000FM-12+044099999V0209999C000010450019N9999999N1+02341+02171100941ADDAA106014091AY161061AY261061GF108991041051008001021999KA1240M+02901MA1999999096011MD1999999-0021MW1021REMSYN088AAXX  24004 83236 215// 80000 10234 20217 39601 40094 70266 8452/ 333 10290 59002 60141;
0173832360999992000012412004-12150-045000FM-12+044099999V0209999C000010450019N0200001N1+02571+02191100971ADDAA124014091GF105991021021008001041001KA1240N+02151MA1999999096071MD1999999-0161REMSYN082AAXX  24124 83236 22598 50000 10257 20219 39607 40097 82240 333 20215 59016 60144;
0201832360999992000012500004-12150-045000FM-12+044099999V0209999C000010210019N0040001N1+02481+02321100871ADDAA106000191AY151061AY251061GF108991081021022501001001KA1240M+02921MA1999999095981MD1999999-0011MW1021REMSYN088AAXX  25004 83236 21896 80000 10248 20232 39598 40087 70255 88200 333 10292 59001 69921;
0201832360999992000012512004-12150-045000FM-12+044099999V0209999C000010450019N0100001N1+02351+02031101141ADDAA124007991AY151061AY251061GF107991011011008001021001KA1240N+02101MA1999999096231MD1999999+0151MW1021REMSYN088AAXX  25124 83236 21597 70000 10235 20203 39623 40114 70255 81120 333 20210 58015 60084;
0195832360999992000012518004-12150-045000FM-12+044099999V0202301N001010075019N0040001N1+02761+02231999999ADDAA199000091AY101061AY221061GF107991051071008001021001MA1999999095831MD1999999+0051MW1151REMSYN076AAXX  25184 83236 31596 72302 10276 20223 39583 4//// 71502 85720 333 58005;EQDQ01  00002PRCP99
0201832360999992000012600004-12150-045000FM-12+044099999V0209999C000012200019N9999999N1+02491+02291100971ADDAA106000391AY151061AY251061GF104991041021008001001001KA1240M+03011MA1999999096061MD1999999+0081MW1021REMSYN088AAXX  26004 83236 215// 40000 10249 20229 39606 40097 70255 84200 333 10301 58008 69931;
0173832360999992000012612004-12150-045000FM-12+044099999V0201801N000512200019N0200001N1+02551+02271101201ADDAA124000391GF104991031021008001041001KA1240N+02171MA1999999096301MD1999999+0081REMSYN082AAXX  26124 83236 22598 41801 10255 20227 39630 40120 83240 333 20217 58008 69934;
0167832360999992000012618004-12150-045000FM-12+044099999V0200901N003111050019N0200001N1+03141+02161999999ADDAA199000091GF105991021021008001001021MA1999999095881MD1999999+0031REMSYN070AAXX  26184 83236 32598 50906 10314 20216 39588 40/// 82202 333 58003;EQDQ01  00002PRCP99
0186832360999992000012700004-12150-045000FM-12+044099999V0209999C000012200019N0100001N1+02511+02341100931ADDAA199000091GF104991041041008001001001KA1240M+03301MA1999999096041MD1999999-0021REMSYN076AAXX  27004 83236 32597 40000 10251 20234 39604 40093 84400 333 10330 59002;EQDQ01  00002PRCP99
0186832360999992000012712004-12150-045000FM-12+044099999V0209999C000012200019N0200001N1+02611+02331101141ADDAA199000091GF106991021011008001001061KA1240N+02141MA1999999096251MD1999999-0051REMSYN076AAXX  27124 83236 32598 60000 10261 20233 39625 40114 82106 333 20214 59005;EQDQ01  00002PRCP99
0167832360999992000012718004-12150-045000FM-12+044099999V0203601N001012200019N0200001N1+03161+02081999999ADDAA199000091GF106991031021008001001061MA1999999095861MD1999999-0021REMSYN070AAXX  27184 83236 32598 63602 10316 20208 39586 4//// 83206 333 59002;EQDQ01  00002PRCP99
0186832360999992000012800004-12150-045000FM-12+044099999V0209999C000010075019N0200001N1+02571+02421100901ADDAA199000091GF105991051041008001001001KA1240M+03341MA1999999096021MD1999999-0021REMSYN076AAXX  28004 83236 32598 50000 10257 20242 39602 40090 85400 333 10334 59002;EQDQ01  00002PRCP99
0167832360999992000012818004-12150-045000FM-12+044099999V0203601N003110450019N0200001N1+02991+02351999999ADDAA199000091GF105991021021008001021001MA1999999095851MD1999999-0011REMSYN070AAXX  28184 83236 32598 53606 10299 20235 39585 4//// 82220 333 59001;EQDQ01  00002PRCP99
0186832360999992000012900004-12150-045000FM-12+044099999V0209999C000010450019N0200001N1+02361+02201100961ADDAA199000091GF105991021021008001021001KA1240M+03231MA1999999096061MD1999999+0041REMSYN076AAXX  29004 83236 32598 50000 10236 20220 39606 40096 82220 333 10323 58004;EQDQ01  00002PRCP99
0186832360999992000012912004-12150-045000FM-12+044099999V0209999C000012200019N0200001N1+02501+02211101111ADDAA199000091GF102991001001999999001041KA1240N+02041MA1999999096201MD1999999-0051REMSYN076AAXX  29124 83236 32998 20000 10250 20221 39620 40111 80004 333 20204 59005;EQDQ01  00002PRCP99
0167832360999992000012918004-12150-045000FM-12+044099999V0201801N002111050019N0200001N1+02861+02461999999ADDAA199000091GF105991021031008001001031MA1999999095811MD1999999-0041REMSYN070AAXX  29184 83236 32598 51804 10286 20246 39581 40/// 82303 333 59004;EQDQ01  00002PRCP99
0214832360999992000013000004-12150-045000FM-12+044099999V0202301N001010450019N0100001N1+02521+02231100931ADDAA199000091AY101061AY221061GF106991011041008001021001KA1240M+03231MA1999999096041MD1999999-0021MW1121REMSYN082AAXX  30004 83236 31597 62302 10252 20223 39604 40093 71202 81420 333 10323 59002;EQDQ01  00002PRCP99
0202832360999992000013012004-12150-045000FM-12+044099999V0200901N001012200019N0200001N1+02691+02261101161ADDAA199000091GF104991001001999999001041KA1240N+02211MA1999999096271MD1999999+0071REMSYN076AAXX  30124 83236 32598 40902 10269 20226 39627 40116 80004 333 20221 58007;EQDQ01+008002SCOLCBQ02  00002PRCP99
0167832360999992000013018004-12150-045000FM-12+044099999V0200501N004612200019N0200001N1+03211+01711999999ADDAA199000091GF104991021021008001001041MA1999999096021MD1999999+0211REMSYN070AAXX  30184 83236 32598 40509 10321 20171 39602 4//// 82204 333 58021;EQDQ01  00002PRCP99
0186832360999992000013100004-12150-045000FM-12+044099999V0209999C000012200019N9999999N1+02481+02301101161ADDAA199000091GF103991031021008001001001KA1240M+03241MA1999999096271MD1999999+0231REMSYN076AAXX  31004 83236 325// 30000 10248 20230 39627 40116 83200 333 10324 58023;EQDQ01  00002PRCP99
0186832360999992000013112004-12150-045000FM-12+044099999V0209999C000012200019N0500001N1+02651+02201101421ADDAA199000091GF102991021001008001061001KA1240N+02161MA1999999096511MD1999999+0241REMSYN076AAXX  31124 83236 32599 20000 10265 20220 39651 40142 82060 333 20216 58024;EQDQ01  00002PRCP99
0167832360999992000013118004-12150-045000FM-12+044099999V0200501N003612200019N0500001N1+03191+02071999999ADDAA199000091GF103991021021008001001011MA1999999096191MD1999999+0171REMSYN070AAXX  31184 83236 32599 30507 10319 20207 39619 4//// 82201 333 58017;EQDQ01  00002PRCP99
0186832360999992000020100004-12150-045000FM-12+044099999V0209999C000012200019N0200001N1+02521+02291101091ADDAA199000091GF104991021021008001041001KA1240M+03251MA1999999096201MD1999999-0071REMSYN076AAXX  01004 83236 32598 40000 10252 20229 39620 40109 82240 333 10325 59007;EQDQ01  00002PRCP99
0186832360999992000020112004-12150-045000FM-12+044099999V0209999C000012200019N0500001N1+02531+02111101411ADDAA199000091GF102991001001999999001011KA1240N+01971MA1999999096491MD1999999-0021REMSYN076AAXX  01124 83236 32999 20000 10253 20211 39649 40141 80001 333 20197 59002;EQDQ01  00002PRCP99
0167832360999992000020118004-12150-045000FM-12+044099999V0200501N001012200019N0200001N1+03351+02021999999ADDAA199000091GF104991031021008001001011MA1999999096021MD1999999-0171REMSYN070AAXX  01184 83236 32598 40502 10335 20202 39602 40/// 83201 333 59017;EQDQ01  00002PRCP99
0186832360999992000020200004-12150-045000FM-12+044099999V0209999C000012200019N9999999N1+02571+02361100891ADDAA199000091GF103991031021008001001001KA1240M+03381MA1999999096011MD1999999-0191REMSYN076AAXX  02004 83236 325// 30000 10257 20236 39601 40089 83200 333 10338 59019;EQDQ01  00002PRCP99
0202832360999992000020212004-12150-045000FM-12+044099999V0209999C000019999999N0200001N1+02541+02211101101ADDAA199000091GF105991999021008001001001KA1240N+02111MA1999999096211MD1999999-0281REMSYN076AAXX  02124 83236 32598 50000 10254 20221 39621 40110 84200 333 20211 59028;EQDQ01+000042SCOTLCQ02  00002PRCP99
0201832360999992000020300004-12150-045000FM-12+044099999V0209999C000010075019N9999999N1+02431+02331100921ADDAA106001091AY151061AY251061GF107991071071008001001001KA1240M+03311MA1999999096031MD1999999+0021MW1131REMSYN088AAXX  03004 83236 215// 70000 10243 20233 39603 40092 71355 87700 333 10331 58002 60011;
0189832360999992000020312004-12150-045000FM-12+044099999V0209999C000012200019N0200001N1+02491+02211100981ADDAY191061AY261061GF104991999999999999999999KA1240N+02071MA1999999096081MD1999999-0131MW1021REMSYN087AAXX  03124 83236 21998 40000 10249 20221 39608 40098 70296 8005 333 20207 59013 60464;
0195832360999992000020318004-12150-045000FM-12+044099999V0202301N001012200019N0200001N1+02491+02191999999ADDAA199000091AY101061AY291061GF106991041031008001001041MA1999999095761MD1999999+0001MW1151REMSYN076AAXX  03184 83236 31598 62302 10249 20219 39576 4//// 71509 84304 333 58000;EQDQ01  00002PRCP99
0195832360999992000020400004-12150-045000FM-12+044099999V0209999C000010075019N9999999N1+02471+02301100921ADDAA199000021AY101061AY291061GF108991081071008001999999KA1240M+03141MA1999999096031MD1999999+0001MW1951REMSYN082AAXX  04004 83236 315// 80000 10247 20230 39603 40092 79509 887// 333 10314 58000;
0167832360999992000020412004-12150-045000FM-12+044099999V0200501N001010075019N0100001N1+02611+02331101041ADDAA199000021GF107991051021008001071051KA1240N+02241MA1999999096151MD1999999+0071REMSYN076AAXX  04124 83236 32597 70502 10261 20233 39615 40104 85275 333 20224 58007;
0195832360999992000020418004-12150-045000FM-12+044099999V0203201N002610075019N0100001N1+02661+02181999999ADDAA199000091AY121061AY221061GF108991071051008001081999MA1999999095751MD1999999-0011MW1171REMSYN076AAXX  04184 83236 31597 83205 10266 20218 39575 4//// 71722 8758/ 333 59001;EQDQ01  00002PRCP99
0201832360999992000020500004-12150-045000FM-12+044099999V0200501N001510075019N9999999N1+02231+02171101131ADDAA106005191AY161061AY251061GF108991071051008001999999KA1240M+03141MA1999999096211MD1999999+0181MW1131REMSYN088AAXX  05004 83236 215// 80503 10223 20217 39621 40113 71365 875// 333 10314 58018 60051;
0173832360999992000020512004-12150-045000FM-12+044099999V0200501N001010075019N0100001N1+02311+02221101391ADDAA124005191GF108991061071008001051999KA1240N+02181MA1999999096431MD1999999+0281REMSYN082AAXX  05124 83236 22597 80502 10231 20222 39643 40139 8675/ 333 20218 58028 60054;
0195832360999992000020518004-12150-045000FM-12+044099999V0203201N001010075019N0200001N1+02551+02331999999ADDAA199000091AY121061AY221061GF107991051051008001071051MA1999999096141MD1999999+0381MW1171REMSYN076AAXX  05184 83236 31598 73202 10255 20233 39614 4//// 71722 85575 333 58038;EQDQ01  00002PRCP99
0186832360999992000020612004-12150-045000FM-12+044099999V0209999C000010120019N0100001N1+02471+02281101341ADDAA199000091GF108991071081008001051999KA1240N+02251MA1999999096411MD1999999-0021REMSYN076AAXX  06124 83236 32597 80000 10247 20228 39641 40134 8785/ 333 20225 59002;EQDQ01  00002PRCP99
0167832360999992000020618004-12150-045000FM-12+044099999V0200501N001510075019N0100001N1+03001+01911999999ADDAA199000091GF108991071071008001081999MA1999999095991MD1999999-0141REMSYN070AAXX  06184 83236 32597 80503 10300 20191 39599 4//// 8778/ 333 59014;EQDQ01  00002PRCP99
0214832360999992000020700004-12150-045000FM-12+044099999V0200501N002112200019N9999999N1+02371+02091101181ADDAA199000091AY121061AY221061GF105991041051008001001041KA1240M+03131MA1999999096261MD1999999+0031MW1131REMSYN082AAXX  07004 83236 315// 50504 10237 20209 39626 40118 71322 84504 333 10313 58003;EQDQ01  00002PRCP99
0186832360999992000020712004-12150-045000FM-12+044099999V0209999C000010120019N0100001N1+02461+02171101371ADDAA199000091GF108991071081008001051999KA1240N+02231MA1999999096461MD1999999+0051REMSYN076AAXX  07124 83236 32597 80000 10246 20217 39646 40137 8785/ 333 20223 58005;EQDQ01  00002PRCP99
0167832360999992000020718004-12150-045000FM-12+044099999V0203201N001010075019N0200001N1+02531+02021999999ADDAA199000091GF106991051041008001071051MA1999999096151MD1999999+0161REMSYN070AAXX  07184 83236 32598 63202 10253 20202 39615 4//// 85475 333 58016;EQDQ01  00002PRCP99
0214832360999992000020800004-12150-045000FM-12+044099999V0209999C000010075019N9999999N1+02331+02091101161ADDAA199000091AY121061AY221061GF106991061051008001031001KA1240M+02691MA1999999096241MD1999999-0021MW1131REMSYN082AAXX  08004 83236 315// 60000 10233 20209 39624 40116 71322 86530 333 10269 59002;EQDQ01  00002PRCP99
0186832360999992000020812004-12150-045000FM-12+044099999V0209999C000010075019N0200001N1+02581+02151101291ADDAA199000091GF106991051021008001061051KA1240N+02101MA1999999096371MD1999999-0091REMSYN076AAXX  08124 83236 32598 60000 10258 20215 39637 40129 85265 333 20210 59009;EQDQ01  00002PRCP99
0167832360999992000020818004-12150-045000FM-12+044099999V0200501N002610450019N0200001N1+03131+01711999999ADDAA199000091GF106991041021008001071041MA1999999095901MD1999999-0251REMSYN070AAXX  08184 83236 32598 60505 10313 20171 39590 4//// 84274 333 59025;EQDQ01  00002PRCP99
0214832360999992000020900004-12150-045000FM-12+044099999V0201801N001010075019N9999999N1+02281+01981101091ADDAA199000091AY121061AY221061GF105991051051008001061001KA1240M+03171MA1999999096181MD1999999-0061MW1131REMSYN082AAXX  09004 83236 315// 51802 10228 20198 39618 40109 71322 85560 333 10317 59006;EQDQ01  00002PRCP99
0201832360999992000020912004-12150-045000FM-12+044099999V0209999C000010075019N0100001N1+02321+02021101261ADDAA124026991AY161061AY261061GF108991061071008001051999KA1240N+02121MA1999999096321MD1999999-0051MW1101REMSYN088AAXX  09124 83236 21597 80000 10232 20202 39632 40126 71066 8675/ 333 20212 59005 60274;
0167832360999992000020918004-12150-045000FM-12+044099999V0200501N003112200019N0500001N1+02971+01811999999ADDAA199000091GF104991031021008001001031MA1999999095921MD1999999+0021REMSYN070AAXX  09184 83236 32599 40506 10297 20181 39592 4//// 83203 333 58002;EQDQ01  00002PRCP99
0186832360999992000021012004-12150-045000FM-12+044099999V0209999C000010120019N0200001N1+02671+02291101151ADDAA199000091GF107991061081008001061051KA1240N+02001MA1999999096251MD1999999-0071REMSYN076AAXX  10124 83236 32598 70000 10267 20229 39625 40115 86865 333 20200 59007;EQDQ01  00002PRCP99
0167832360999992000021018004-12150-045000FM-12+044099999V0200501N004612200019N0200001N1+03011+01681999999ADDAA199000091GF105991041021008001001041MA1999999095901MD1999999-0021REMSYN070AAXX  10184 83236 32598 50509 10301 20168 39590 40/// 84204 333 59002;EQDQ01  00002PRCP99
0186832360999992000021100004-12150-045000FM-12+044099999V0200901N001519999999N9999999N1+02331+01961101061ADDAA199000091GF106991041001999999061031KA1240M+03051MA1999999096081MD1999999+0001REMSYN076AAXX  11004 83236 32/// 60903 10233 20196 39608 40106 84063 333 10305 58000;EQDQ01  00002PRCP99
0186832360999992000021112004-12150-045000FM-12+044099999V0209999C000010120019N0100001N1+02561+02061101251ADDAA199000091GF108991071081008001051999KA1240N+02111MA1999999096341MD1999999+0091REMSYN076AAXX  11124 83236 32597 80000 10256 20206 39634 40125 8785/ 333 20211 58009;EQDQ01  00002PRCP99
0167832360999992000021118004-12150-045000FM-12+044099999V0200501N003612200019N0500001N1+03061+01841999999ADDAA199000091GF104991031021008001001031MA1999999095961MD1999999+0061REMSYN070AAXX  11184 83236 32599 40507 10306 20184 39596 4//// 83203 333 58006;EQDQ01  00002PRCP99
0214832360999992000021200004-12150-045000FM-12+044099999V0209999C000012200019N9999999N1+02361+02071100951ADDAA199000091AY121061AY221061GF104991021051008001001051KA1240M+03081MA1999999096051MD1999999-0031MW1131REMSYN082AAXX  12004 83236 315// 40000 10236 20207 39605 40095 71322 82505 333 10308 59003;EQDQ01  00002PRCP99
0186832360999992000021212004-12150-045000FM-12+044099999V0209999C000010075019N0200001N1+02551+02111101191ADDAA199000091GF106991051041008001061051KA1240N+02151MA1999999096281MD1999999-0061REMSYN076AAXX  12124 83236 32598 60000 10255 20211 39628 40119 85465 333 20215 59006;EQDQ01  00002PRCP99
0167832360999992000021218004-12150-045000FM-12+044099999V0200501N002610075019N0200001N1+03041+01781999999ADDAA199000091GF106991051041008001071031MA1999999095811MD1999999-0151REMSYN070AAXX  12184 83236 32598 60505 10304 20178 39581 4//// 85473 333 59015;EQDQ01  00002PRCP99
0214832360999992000021300004-12150-045000FM-12+044099999V0209999C000010075019N9999999N1+02531+01791100811ADDAA199000091AY121061AY221061GF108991071051008001061999KA1240M+03081MA1999999095941MD1999999-0111MW1131REMSYN082AAXX  13004 83236 315// 80000 10253 20179 39594 40081 71322 8756/ 333 10308 59011;EQDQ01  00002PRCP99
0201832360999992000021312004-12150-045000FM-12+044099999V0200501N002610450019N0200001N1+02551+02061101191ADDAA124004191AY161061AY251061GF106991041021008001061051KA1240N+02161MA1999999096301MD1999999+0021MW1021REMSYN088AAXX  13124 83236 21598 60505 10255 20206 39630 40119 70265 84265 333 20216 58002 60044;
0167832360999992000021318004-12150-045000FM-12+044099999V0203601N003112200019N0500001N1+03061+01581999999ADDAA199000091GF104991041021008001001001MA1999999095991MD1999999+0181REMSYN070AAXX  13184 83236 32599 43606 10306 20158 39599 40/// 84200 333 58018;EQDQ01  00002PRCP99
0186832360999992000021400004-12150-045000FM-12+044099999V0209999C000012200019N9999999N1+02381+01911101071ADDAA199000091GF102991001001999999001041KA1240M+03081MA1999999096161MD1999999+0221REMSYN076AAXX  14004 83236 329// 20000 10238 20191 39616 40107 80004 333 10308 58022;EQDQ01  00002PRCP99
0186832360999992000021412004-12150-045000FM-12+044099999V0209999C000012200019N0500001N1+02571+01931101301ADDAA199000091GF103991031021008001001001KA1240N+02041MA1999999096381MD1999999+0081REMSYN076AAXX  14124 83236 32599 30000 10257 20193 39638 40130 83200 333 20204 58008;EQDQ01  00002PRCP99
0182832360999992000021418004-12150-045000FM-12+044099999V0209999C000010075019N0100001N1+02451+01991999999ADDAA112007191AY161061AY261061GF107991061051008001071031MA1999999096081MD1999999+0091MW1171REMSYN082AAXX  14184 83236 21597 70000 10245 20199 39608 4//// 71766 86573 333 58009 60072;
0201832360999992000021500004-12150-045000FM-12+044099999V0209999C000010075019N9999999N1+02151+01971101271ADDAA106020191AY161061AY261061GF108991071051008001081999KA1240M+03071MA1999999096341MD1999999+0181MW1131REMSYN088AAXX  15004 83236 215// 80000 10215 20197 39634 40127 71366 8758/ 333 10307 58018 60201;
0173832360999992000021512004-12150-045000FM-12+044099999V0209999C000012200019N0500001N1+02401+02131101251ADDAA124027991GF103991031021008001001001KA1240N+01961MA1999999096301MD1999999-0081REMSYN082AAXX  15124 83236 22599 30000 10240 20213 39630 40125 83200 333 20196 59008 60284;
0195832360999992000021518004-12150-045000FM-12+044099999V0200501N001510075019N0100001N1+03051+02181999999ADDAA199000091AY121061AY221061GF107991071051008001071001MA1999999095901MD1999999-0181MW1171REMSYN076AAXX  15184 83236 31597 70503 10305 20218 39590 4//// 71722 87570 333 59018;EQDQ01  00002PRCP99
0214832360999992000021600004-12150-045000FM-12+044099999V0209999C000011050019N9999999N1+02241+01271101001ADDAA199000091AY121061AY221061GF106991031051008001001051KA1240M+03101MA1999999096071MD1999999-0271MW1131REMSYN082AAXX  16004 83236 315// 60000 10224 20127 39607 40100 71322 83505 333 10310 59027;EQDQ01  00002PRCP99
0186832360999992000021612004-12150-045000FM-12+044099999V0200501N001510075019N0200001N1+02511+02131101191ADDAA199000091GF107991061021008001061071KA1240N+02111MA1999999096261MD1999999-0041REMSYN076AAXX  16124 83236 32598 70503 10251 20213 39626 40119 86267 333 20211 59004;EQDQ01  00002PRCP99
0195832360999992000021618004-12150-045000FM-12+044099999V0202301N002110075019N0100001N1+02671+02391999999ADDAA199000091AY121061AY221061GF108991071051008001071999MA1999999095871MD1999999-0031MW1151REMSYN076AAXX  16184 83236 31597 82304 10267 20239 39587 40/// 71522 8757/ 333 59003;EQDQ01  00002PRCP99
0201832360999992000021700004-12150-045000FM-12+044099999V0209999C000010075019N9999999N1+02291+02181100981ADDAA112000191AY101061AY251061GF108991071051008001081999KA1240M+03111MA1999999096071MD1999999+0001MW1131REMSYN088AAXX  17004 83236 215// 80000 10229 20218 39607 40098 71305 8758/ 333 10311 58000 69912;
0201832360999992000021712004-12150-045000FM-12+044099999V0209999C000010075019N0040001N1+02111+01951101251ADDAA124007991AY161061AY261061GF108991061071008001051999KA1240N+01951MA1999999096291MD1999999+0031MW1101REMSYN088AAXX  17124 83236 21596 80000 10211 20195 39629 40125 71066 8675/ 333 20195 58003 60084;
0167832360999992000021718004-12150-045000FM-12+044099999V0200501N002610075019N0200001N1+02911+01961999999ADDAA199000091GF106991051021008001071051MA1999999095851MD1999999-0021REMSYN070AAXX  17184 83236 32598 60505 10291 20196 39585 4//// 85275 333 59002;EQDQ01  00002PRCP99
0186832360999992000021800004-12150-045000FM-12+044099999V0200901N002612200019N9999999N1+02431+02131101021ADDAA199000091GF105991031001022501061041KA1240M+02941MA1999999096091MD1999999+0021REMSYN076AAXX  18004 83236 328// 50905 10243 20213 39609 40102 83064 333 10294 58002;EQDQ01  00002PRCP99
0202832360999992000021812004-12150-045000FM-12+044099999V0200501N001510075019N0100001N1+02451+02131101001ADDAA199000091GF108991999071008001051999KA1240N+02071MA1999999096301MD1999999+0011REMSYN076AAXX  18124 83236 32597 80503 10245 20213 39630 40100 8875/ 333 20207 58001;EQDQ01+000082SCOTLCQ02  00002PRCP99
0167832360999992000021818004-12150-045000FM-12+044099999V0200501N002110075019N0200001N1+03001+01941999999ADDAA199000091GF106991051041008001071051MA1999999095841MD1999999-0011REMSYN070AAXX  18184 83236 32598 60504 10300 20194 39584 4//// 85475 333 59001;EQDQ01  00002PRCP99
0201832360999992000021900004-12150-045000FM-12+044099999V0202301N001010075019N9999999N1+02181+02041101211ADDAA118006191AY161061AY261061GF108991071051008001081999KA1240M+03041MA1999999096361MD1999999+0271MW1131REMSYN088AAXX  19004 83236 215// 82302 10218 20204 39636 40121 71366 8758/ 333 10304 58027 60063;
0201832360999992000021912004-12150-045000FM-12+044099999V0209999C000010075019N0200001N1+02391+02091101381ADDAA124034091AY161061AY251061GF106991051021008001061051KA1240N+02051MA1999999096431MD1999999+0131MW1021REMSYN088AAXX  19124 83236 21598 60000 10239 20209 39643 40138 70265 85265 333 20205 58013 60344;
0167832360999992000021918004-12150-045000FM-12+044099999V0200501N002610075019N0200001N1+02901+01961999999ADDAA199000091GF107991061041008001071041MA1999999096011MD1999999+0171REMSYN070AAXX  19184 83236 32598 70505 10290 20196 39601 4//// 86474 333 58017;EQDQ01  00002PRCP99
0186832360999992000022000004-12150-045000FM-12+044099999V0209999C000011050019N9999999N1+02341+02201101191ADDAA199000091GF105991021021008001001051KA1240M+02941MA1999999096261MD1999999-0101REMSYN076AAXX  20004 83236 325// 50000 10234 20220 39626 40119 82205 333 10294 59010;EQDQ01  00002PRCP99
0186832360999992000022012004-12150-045000FM-12+044099999V0209999C000010075019N0100001N1+02421+02211101341ADDAA199000091GF107991071051008001001001KA1240N+02091MA1999999096411MD1999999-0021REMSYN076AAXX  20124 83236 32597 70000 10242 20221 39641 40134 87500 333 20209 59002;EQDQ01  00002PRCP99
0167832360999992000022018004-12150-045000FM-12+044099999V0200501N002610075019N0200001N1+03041+02121999999ADDAA199000091GF105991051021008001001001MA1999999096011MD1999999+0001REMSYN070AAXX  20184 83236 32598 50505 10304 20212 39601 4//// 85200 333 58000;EQDQ01  00002PRCP99
0201832360999992000022100004-12150-045000FM-12+044099999V0209999C000012200019N9999999N1+02311+02181101041ADDAA106009991AY161061AY261061GF103991021021008001061001KA1240M+03071MA1999999096121MD1999999+0141MW1021REMSYN088AAXX  21004 83236 215// 30000 10231 20218 39612 40104 70266 82260 333 10307 58014 60101;
0182832360999992000022118004-12150-045000FM-12+044099999V0200901N001510075019N0100001N1+02881+02231999999ADDAA106004191AY161061AY261061GF105991051021008001001001MA1999999095991MD1999999-0021MW1151REMSYN082AAXX  21184 83236 21597 50903 10288 20223 39599 4//// 71566 85200 333 59002 60041;
0214832360999992000022200004-12150-045000FM-12+044099999V0209999C000012200019N9999999N1+02391+02281101011ADDAA199000091AY101061AY221061GF103991031031008001001001KA1240M+02951MA1999999096101MD1999999-0021MW1131REMSYN082AAXX  22004 83236 315// 30000 10239 20228 39610 40101 71302 83300 333 10295 59002;EQDQ01  00002PRCP99
0201832360999992000022212004-12150-045000FM-12+044099999V0203601N000510075019N0100001N1+02331+02151101261ADDAA124005191AY151061AY251061GF107991071051008001001001KA1240N+02191MA1999999096331MD1999999-0071MW1021REMSYN088AAXX  22124 83236 21597 73601 10233 20215 39633 40126 70255 87500 333 20219 59007 60054;
0182832360999992000022218004-12150-045000FM-12+044099999V0209999C000010075019N0200001N1+02801+02381999999ADDAA106011991AY161061AY261061GF106991051031008001041001MA1999999095971MD1999999-0021MW1021REMSYN082AAXX  22184 83236 21598 60000 10280 20238 39597 40/// 70266 85340 333 59002 60121;
0186832360999992000022300004-12150-045000FM-12+044099999V0209999C000012200019N9999999N1+02441+02351101041ADDAA199000091GF103991031001022501061001KA1240M+02991MA1999999096121MD1999999+0031REMSYN076AAXX  23004 83236 328// 30000 10244 20235 39612 40104 83060 333 10299 58003;EQDQ01  00002PRCP99
0201832360999992000022312004-12150-045000FM-12+044099999V0203601N001510120019N0100001N1+02511+02291101251ADDAA124013091AY161061AY261061GF107991071081008001001001KA1240N+02251MA1999999096341MD1999999+0011MW1021REMSYN088AAXX  23124 83236 31597 73603 10251 20229 39634 40125 70266 87800 333 20225 58001 60134;
0201832360999992000022400004-12150-045000FM-12+044099999V0209999C000010075019N9999999N1+02361+02291100991ADDAA106005191AY161061AY261061GF107991071051008001001001KA1240M+02951MA1999999096091MD1999999-0041MW1021REMSYN088AAXX  24004 83236 215// 70000 10236 20229 39609 40099 70266 87500 333 10295 59004 60051;
0173832360999992000022412004-12150-045000FM-12+044099999V0200501N000512200019N0200001N1+02511+02131101161ADDAA124005191GF105991031021008001001041KA1240N+02151MA1999999096251MD1999999-0091REMSYN082AAXX  24124 83236 22598 50501 10251 20213 39625 40116 83204 333 20215 59009 60054;
0167832360999992000022418004-12150-045000FM-12+044099999V0201401N002110450019N0100001N1+02531+02231999999ADDAA199000091GF107991041071008001021001MA1999999095941MD1999999+0001REMSYN070AAXX  24184 83236 32597 71404 10253 20223 39594 4//// 84720 333 58000;EQDQ01  00002PRCP99
0186832360999992000022500004-12150-045000FM-12+044099999V0209999C000012200019N9999999N1+02301+02231100841ADDAA199000091GF102991021021008001001001KA1240M+02921MA1999999095941MD1999999-0151REMSYN076AAXX  25004 83236 325// 20000 10230 20223 39594 40084 82200 333 10292 59015;EQDQ01  00002PRCP99
0186832360999992000022512004-12150-045000FM-12+044099999V0209999C000010450019N0200001N1+02431+02131101161ADDAA199000091GF105991031021008001061001KA1240N+02181MA1999999096231MD1999999-0021REMSYN076AAXX  25124 83236 32598 50000 10243 20213 39623 40116 83260 333 20218 59002;EQDQ01  00002PRCP99
0167832360999992000022518004-12150-045000FM-12+044099999V0200501N003112200019N0200001N1+03021+01761999999ADDAA199000091GF103991021011008001001011MA1999999095841MD1999999-0101REMSYN070AAXX  25184 83236 32598 30506 10302 20176 39584 40/// 82101 333 59010;EQDQ01  00002PRCP99
0214832360999992000022600004-12150-045000FM-12+044099999V0209999C000012200019N9999999N1+02591+02381100891ADDAA199000091AY101061AY231061GF104991031031008001041001KA1240M+03161MA1999999095841MD1999999+0061MW1131REMSYN082AAXX  26004 83236 315// 40000 10259 20238 39584 40089 71303 83340 333 10316 58006;EQDQ01  00002PRCP99
0201832360999992000022612004-12150-045000FM-12+044099999V0200501N004110450019N0040001N1+02241+02101101331ADDAA124011991AY161061AY261061GF108991041051008001021999KA1240N+02051MA1999999096401MD1999999+0171MW1511REMSYN088AAXX  26124 83236 21596 80508 10224 20210 39640 40133 75166 8452/ 333 20205 58017 60124;
0182832360999992000022618004-12150-045000FM-12+044099999V0203601N002111050019N0200001N1+02951+02111999999ADDAA106000191AY151061AY251061GF106991031021008001001051MA1999999095931MD1999999+0091MW1021REMSYN082AAXX  26184 83236 21598 63604 10295 20211 39593 4//// 70255 83205 333 58009 69921;
0167832360999992000022700004-12150-045000FM-12+044099999V0209999C000012200019N9999999N1+02461+02361100941ADDAA199000021GF103991031021008001001001KA1240M+03081MA1999999096021MD1999999+0021REMSYN076AAXX  27004 83236 325// 30000 10246 20236 39602 40094 83200 333 10308 58002;
0201832360999992000022712004-12150-045000FM-12+044099999V0209999C000010450019N0040001N1+02271+02141101331ADDAA124039191AY161061AY261061GF108991031051008001021999KA1240N+02071MA1999999096391MD1999999-0011MW1401REMSYN088AAXX  27124 83236 21596 80000 10227 20214 39639 40133 74066 8352/ 333 20207 59001 60394;
0167832360999992000022718004-12150-045000FM-12+044099999V0203601N000510450019N0200001N1+03031+01961999999ADDAA199000091GF105991031021008001061021MA1999999095881MD1999999-0051REMSYN070AAXX  27184 83236 32598 53601 10303 20196 39588 4//// 83262 333 59005;EQDQ01  00002PRCP99
0186832360999992000022800004-12150-045000FM-12+044099999V0209999C000010075019N9999999N1+02311+02221100931ADDAA199000091GF108991081051008001999999KA1240M+03041MA1999999096001MD1999999-0021REMSYN076AAXX  28004 83236 325// 80000 10231 20222 39600 40093 885// 333 10304 59002;EQDQ01  00002PRCP99
0186832360999992000022812004-12150-045000FM-12+044099999V0200901N000510075019N0200001N1+02511+02211101171ADDAA199000091GF105991051021008001001001KA1240N+02121MA1999999096251MD1999999-0141REMSYN076AAXX  28124 83236 32598 50901 10251 20221 39625 40117 85200 333 20212 59014;EQDQ01  00002PRCP99
0195832360999992000022818004-12150-045000FM-12+044099999V0200901N001511050019N0100001N1+02871+02191999999ADDAA199000091AY101061AY291061GF106991041091008001001031MA1999999095851MD1999999-0031MW1151REMSYN076AAXX  28184 83236 31597 60903 10287 20219 39585 40/// 71509 84903 333 59003;EQDQ01  00002PRCP99
0230832360999992000022900004-12150-045000FM-12+044099999V0209999C000010075019N9999999N1+02411+02301100941ADDAA199000091AY101061AY221061GF106991999071008001001001KA1240M+02941MA1999999096041MD1999999+0041MW1131REMSYN082AAXX  29004 83236 315// 60000 10241 20230 39604 40094 71302 85700 333 10294 58004;EQDQ01+000052SCOTLCQ02  00002PRCP99
0201832360999992000022912004-12150-045000FM-12+044099999V0200901N001010450019N0040001N1+02331+02071101381ADDAA124009991AY161061AY261061GF108991031051008001021999KA1240N+02191MA1999999096441MD1999999+0191MW1411REMSYN088AAXX  29124 83236 21596 80902 10233 20207 39644 40138 74166 8352/ 333 20219 58019 60104;
0167832360999992000022918004-12150-045000FM-12+044099999V0200501N001510450019N0200001N1+02831+02221999999ADDAA199000091GF107991031021008001061061MA1999999096111MD1999999+0261REMSYN070AAXX  29184 83236 32598 70503 10283 20222 39611 4//// 83266 333 58026;EQDQ01  00002PRCP99
0186832360999992000030100004-12150-045000FM-12+044099999V0209999C000012200019N9999999N1+02431+02331101111ADDAA199000091GF104991041001022501011001KA1240M+02861MA1999999096191MD1999999+0151REMSYN076AAXX  01004 83236 328// 40000 10243 20233 39619 40111 84010 333 10286 58015;EQDQ01  00002PRCP99
0186832360999992000030112004-12150-045000FM-12+044099999V0201801N001510075019N0100001N1+02471+02171101311ADDAA199000091GF107991071051008001001001KA1240N+02121MA1999999096391MD1999999-0051REMSYN076AAXX  01124 83236 32597 71803 10247 20217 39639 40131 87500 333 20212 59005;EQDQ01  00002PRCP99
0167832360999992000030118004-12150-045000FM-12+044099999V0200901N002111050019N0200001N1+02921+02191999999ADDAA199000091GF105991041031008001001031MA1999999096001MD1999999-0091REMSYN070AAXX  01184 83236 32598 50904 10292 20219 39600 4//// 84303 333 59009;EQDQ01  00002PRCP99
0214832360999992000030200004-12150-045000FM-12+044099999V0201801N001510075019N9999999N1+02511+02191101101ADDAA199000091AY101061AY221061GF105991051071008001001001KA1240M+03031MA1999999096201MD1999999+0011MW1131REMSYN082AAXX  02004 83236 315// 51803 10251 20219 39620 40110 71302 85700 333 10303 58001;EQDQ01  00002PRCP99
0201832360999992000030212004-12150-045000FM-12+044099999V0209999C000010450019N0200001N1+02531+02231101281ADDAA124002091AY161061AY261061GF105991041031008001041001KA1240N+02221MA1999999096371MD1999999-0021MW1021REMSYN088AAXX  02124 83236 21598 50000 10253 20223 39637 40128 70266 84340 333 20222 59002 60024;
0195832360999992000030218004-12150-045000FM-12+044099999V0201801N006710450019N0100001N1+02541+02111999999ADDAA199000091AY101061AY291061GF107991041071008001021001MA1999999096051MD1999999+0051MW1151REMSYN076AAXX  02184 83236 31597 71813 10254 20211 39605 4//// 71509 84720 333 58005;EQDQ01  00002PRCP99
0186832360999992000030300004-12150-045000FM-12+044099999V0209999C000012200019N9999999N1+02251+02161101041ADDAA199000091GF104991041001022501021001KA1240M+03021MA1999999096131MD1999999-0071REMSYN076AAXX  03004 83236 328// 40000 10225 20216 39613 40104 84020 333 10302 59007;EQDQ01  00002PRCP99
0186832360999992000030312004-12150-045000FM-12+044099999V0209999C000012200019N0200001N1+02511+02191101131ADDAA199000091GF104991031021008001041001KA1240N+02121MA1999999096211MD1999999-0161REMSYN076AAXX  03124 83236 32598 40000 10251 20219 39621 40113 83240 333 20212 59016;EQDQ01  00002PRCP99
0195832360999992000030318004-12150-045000FM-12+044099999V0200501N002610450019N0200001N1+02951+02161999999ADDAA199000091AY101061AY221061GF106991041031008001041001MA1999999095861MD1999999-0191MW1151REMSYN076AAXX  03184 83236 31598 60505 10295 20216 39586 4//// 71502 84340 333 59019;EQDQ01  00002PRCP99
0214832360999992000030400004-12150-045000FM-12+044099999V0209999C000012200019N9999999N1+02421+02321100981ADDAA199000091AY101061AY221061GF104991041071008001001001KA1240M+03081MA1999999096081MD1999999-0051MW1131REMSYN082AAXX  04004 83236 315// 40000 10242 20232 39608 40098 71302 84700 333 10308 59005;EQDQ01  00002PRCP99
0195832360999992000030418004-12150-045000FM-12+044099999V0200501N001510075019N0200001N1+02901+01961999999ADDAA199000091AY121061AY221061GF106991061051008001071001MA1999999095951MD1999999+0091MW1151REMSYN076AAXX  04184 83236 31598 60503 10290 20196 39595 4//// 71522 86570 333 58009;EQDQ01  00002PRCP99
0186832360999992000030512004-12150-045000FM-12+044099999V0209999C000010075019N0200001N1+02631+01961101281ADDAA199000091GF106991051021008001061041KA1240N+02191MA1999999096371MD1999999+0111REMSYN076AAXX  05124 83236 32598 60000 10263 20196 39637 40128 85264 333 20219 58011;EQDQ01  00002PRCP99
0182832360999992000030518004-12150-045000FM-12+044099999V0200501N001511050019N0200001N1+02831+02171999999ADDAA106007191AY161061AY261061GF106991041051008001001051MA1999999096021MD1999999+0071MW1171REMSYN082AAXX  05184 83236 21598 60503 10283 20217 39602 4//// 71766 84505 333 58007 60071;
0214832360999992000030600004-12150-045000FM-12+044099999V0201801N001512200019N0200001N1+02311+02251101001ADDAA199000091AY121061AY221061GF103991031051008001001001KA1240M+03041MA1999999096101MD1999999-0031MW1131REMSYN082AAXX  06004 83236 31598 31803 10231 20225 39610 40100 71322 83500 333 10304 59003;EQDQ01  00002PRCP99
0173832360999992000030612004-12150-045000FM-12+044099999V0200901N001012200019N0500001N1+02351+01721101271ADDAA124007191GF104991021021012501001031KA1240N+02081MA1999999096341MD1999999-0031REMSYN082AAXX  06124 83236 22699 40902 10235 20172 39634 40127 82203 333 20208 59003 60074;
0167832360999992000030618004-12150-045000FM-12+044099999V0201801N003110075019N0200001N1+03101+01701999999ADDAA199000091GF106991051041008001071031MA1999999095961MD1999999-0061REMSYN070AAXX  06184 83236 32598 61806 10310 20170 39596 4//// 85473 333 59006;EQDQ01  00002PRCP99
0214832360999992000030700004-12150-045000FM-12+044099999V0209999C000012200019N9999999N1+02431+02251100941ADDAA199000091AY101061AY221061GF103991031051012501001001KA1240M+03141MA1999999096031MD1999999-0071MW1131REMSYN082AAXX  07004 83236 316// 30000 10243 20225 39603 40094 71302 83500 333 10314 59007;EQDQ01  00002PRCP99
0186832360999992000030712004-12150-045000FM-12+044099999V0200501N001510075019N0200001N1+02641+02091101071ADDAA199000091GF107991061021008001061051KA1240N+02201MA1999999096181MD1999999-0161REMSYN076AAXX  07124 83236 32598 70503 10264 20209 39618 40107 86265 333 20220 59016;EQDQ01  00002PRCP99
0167832360999992000030718004-12150-045000FM-12+044099999V0200901N001012200019N0200001N1+03061+01831999999ADDAA199000091GF106991041021008001001041MA1999999095791MD1999999-0171REMSYN070AAXX  07184 83236 32598 60902 10306 20183 39579 4//// 84204 333 59017;EQDQ01  00002PRCP99
0214832360999992000030800004-12150-045000FM-12+044099999V0209999C000010075019N0200001N1+02401+02241100761ADDAA199000091AY101061AY221061GF105991051051008001061001KA1240M+03121MA1999999095881MD1999999-0151MW1131REMSYN082AAXX  08004 83236 31598 50000 10240 20224 39588 40076 71302 85560 333 10312 59015;EQDQ01  00002PRCP99
0186832360999992000030812004-12150-045000FM-12+044099999V0200501N005710120019N0100001N1+02371+02151101071ADDAA199000091GF108991071081008001061999KA1240N+02181MA1999999096151MD1999999+0031REMSYN076AAXX  08124 83236 32597 80511 10237 20215 39615 40107 8786/ 333 20218 58003;EQDQ01  00002PRCP99
0183832360999992000030818004-12150-045000FM-12+044099999V0200501N004110075019N0100001N1+02731+02201999999ADDAA199000091GF108991999071008001051999MA1999999095761MD1999999-0031REMSYN070AAXX  08184 83236 32597 80508 10273 20220 39576 4//// 8875/ 333 59003;EQDQ01+000082SCOTLCQ02  00002PRCP99
0186832360999992000030900004-12150-045000FM-12+044099999V0209999C000010120019N9999999N1+02421+02251100941ADDAA199000091GF108991071081008001999999KA1240M+02791MA1999999096031MD1999999+0151REMSYN076AAXX  09004 83236 325// 80000 10242 20225 39603 40094 878// 333 10279 58015;EQDQ01  00002PRCP99
0201832360999992000030912004-12150-045000FM-12+044099999V0209999C000010120019N0040001N1+02231+02051101321ADDAA124002091AY161061AY251061GF108991061081008001051999KA1240N+02171MA1999999096371MD1999999+0221MW1101REMSYN088AAXX  09124 83236 21596 80000 10223 20205 39637 40132 71065 8685/ 333 20217 58022 60024;
0167832360999992000030918004-12150-045000FM-12+044099999V0203601N002610075019N0200001N1+02901+01931999999ADDAA199000091GF106991051021008001061051MA1999999095891MD1999999+0131REMSYN070AAXX  09184 83236 32598 63605 10290 20193 39589 4//// 85265 333 58013;EQDQ01  00002PRCP99
0214832360999992000031000004-12150-045000FM-12+044099999V0200501N001510075019N9999999N1+02411+02071101061ADDAA199000091AY101061AY221061GF106991061051008001071001KA1240M+02941MA1999999096131MD1999999+0101MW1131REMSYN082AAXX  10004 83236 315// 60503 10241 20207 39613 40106 71302 86570 333 10294 58010;EQDQ01  00002PRCP99
0201832360999992000031012004-12150-045000FM-12+044099999V0209999C000010075019N0020001N1+02191+02101101411ADDAA124042991AY161061AY261061GF108991071061008001999999KA1240N+02131MA1999999096461MD1999999+0091MW1611REMSYN088AAXX  10124 83236 21595 80000 10219 20210 39646 40141 76166 876// 333 20213 58009 60434;
0154832360999992000031018004-12150-045000FM-12+044099999V0200501N001010075019N0200001N1+02781+02061999999ADDAA112000591GF105991051031008001071001MA1999999095951MD1999999+0061REMSYN076AAXX  10184 83236 22598 50502 10278 20206 39595 4//// 85370 333 58006 69942;
0195832360999992000031100004-12150-045000FM-12+044099999V0200501N001510075019N9999999N1+02411+02071101061ADDAA199000021AY101061AY221061GF106991061051008001071001KA1240M+02941MA1999999096131MD1999999+0101MW1131REMSYN082AAXX  11004 83236 315// 60503 10241 20207 39613 40106 71302 86570 333 10294 58010;
0201832360999992000031112004-12150-045000FM-12+044099999V0209999C000010075019N0100001N1+02371+02151101281ADDAA124000591AY151061AY251061GF107991061021008001061051KA1240N+02121MA1999999096331MD1999999-0131MW1101REMSYN088AAXX  11124 83236 21597 70000 10237 20215 39633 40128 71055 86265 333 20212 59013 69954;
0167832360999992000031118004-12150-045000FM-12+044099999V0200501N002110075019N0200001N1+02951+02051999999ADDAA199000091GF105991051021008001081001MA1999999095771MD1999999-0181REMSYN070AAXX  11184 83236 32598 50504 10295 20205 39577 4//// 85280 333 59018;EQDQ01  00002PRCP99
0214832360999992000031200004-12150-045000FM-12+044099999V0200501N001510450019N9999999N1+02431+02191100901ADDAA199000091AY101061AY221061GF106991041051008001071041KA1240M+02981MA1999999095991MD1999999-0211MW1131REMSYN082AAXX  12004 83236 315// 60503 10243 20219 39599 40090 71302 84574 333 10298 59021;EQDQ01  00002PRCP99
0201832360999992000031212004-12150-045000FM-12+044099999V0209999C000010075019N0200001N1+02451+02091101061ADDAA124000191AY151061AY251061GF107991061071008001051041KA1240N+02191MA1999999096151MD1999999-0181MW1021REMSYN088AAXX  12124 83236 21598 70000 10245 20209 39615 40106 70255 86754 333 20219 59018 69924;
0182832360999992000031218004-12150-045000FM-12+044099999V0209999C000010120019N0100001N1+02351+02181999999ADDAA106005191AY161061AY261061GF108991071081008001071999MA1999999095761MD1999999-0011MW1511REMSYN082AAXX  12184 83236 21597 80000 10235 20218 39576 4//// 75166 8787/ 333 59001 60051;
0173832360999992000031300004-12150-045000FM-12+044099999V0209999C000012200019N9999999N1+02281+02181100791ADDAA106000191GF104991021001022501061051KA1240M+02731MA1999999095881MD1999999-0111REMSYN082AAXX  13004 83236 228// 40000 10228 20218 39588 40079 82065 333 10273 59011 69921;
0201832360999992000031312004-12150-045000FM-12+044099999V0209999C000010120019N0100001N1+02391+02111100991ADDAA124005191AY161061AY261061GF108991071081008001051999KA1240N+02121MA1999999096071MD1999999-0081MW1101REMSYN088AAXX  13124 83236 21597 80000 10239 20211 39607 40099 71066 8785/ 333 20212 59008 60054;
0167832360999992000031318004-12150-045000FM-12+044099999V0209999C000010075019N0100001N1+02691+02041999999ADDAA199000091GF108991071041008001071999MA1999999095581MD1999999-0181REMSYN070AAXX  13184 83236 32597 80000 10269 20204 39558 4//// 8747/ 333 59018;EQDQ01  00002PRCP99
0201832360999992000031400004-12150-045000FM-12+044099999V0209999C000010075019N9999999N1+02211+02131100881ADDAA106003091AY151061AY251061GF108991071061008001999999KA1240M+02751MA1999999095951MD1999999+0071MW1511REMSYN088AAXX  14004 83236 215// 80000 10221 20213 39595 40088 75155 876// 333 10275 58007 60031;
0201832360999992000031412004-12150-045000FM-12+044099999V0200501N002110075019N0100001N1+02431+02151101001ADDAA124007191AY161061AY251061GF107991051041008001071051KA1240N+02161MA1999999096071MD1999999+0001MW1031REMSYN088AAXX  14124 83236 21597 70504 10243 20215 39607 40100 70365 85475 333 20216 58000 60074;
0167832360999992000031418004-12150-045000FM-12+044099999V0200501N001510075019N0040001N1+02551+02091999999ADDAA199000091GF108991061071008001051999MA1999999095651MD1999999+0071REMSYN070AAXX  14184 83236 32596 80503 10255 20209 39565 4//// 8675/ 333 58007;EQDQ01  00002PRCP99
0186832360999992000031500004-12150-045000FM-12+044099999V0200501N002610120019N9999999N1+02401+02241100861ADDAA199000091GF108991061081008001061999KA1240M+02821MA1999999095951MD1999999+0001REMSYN076AAXX  15004 83236 325// 80505 10240 20224 39595 40086 8686/ 333 10282 58000;EQDQ01  00002PRCP99
0202832360999992000031512004-12150-045000FM-12+044099999V0209999C000010075019N0100001N1+02491+02211101151ADDAA199000091GF108991999071008001061999KA1240N+02181MA1999999096241MD1999999+0171REMSYN076AAXX  15124 83236 32597 80000 10249 20221 39624 40115 8876/ 333 20218 58017;EQDQ01+000082SCOTLCQ02  00002PRCP99
0167832360999992000031518004-12150-045000FM-12+044099999V0200501N003110450019N0200001N1+03051+02001999999ADDAA199000091GF106991041031008001051041MA1999999095751MD1999999+0091REMSYN070AAXX  15184 83236 32598 60506 10305 20200 39575 4//// 84354 333 58009;EQDQ01  00002PRCP99
0214832360999992000031600004-12150-045000FM-12+044099999V0201401N001010075019N9999999N1+02491+02251100901ADDAA199000091AY101061AY221061GF106991051051008001061051KA1240M+03071MA1999999096011MD1999999+0061MW1131REMSYN082AAXX  16004 83236 315// 61402 10249 20225 39601 40090 71302 85565 333 10307 58006;EQDQ01  00002PRCP99
0186832360999992000031612004-12150-045000FM-12+044099999V0202301N001010075019N0200001N1+02541+02131101141ADDAA199000091GF106991051021008001051041KA1240N+02261MA1999999096241MD1999999+0001REMSYN076AAXX  16124 83236 32598 62302 10254 20213 39624 40114 85254 333 20226 58000;EQDQ01  00002PRCP99
0167832360999992000031618004-12150-045000FM-12+044099999V0200501N002110075019N0200001N1+03001+02191999999ADDAA199000091GF105991051021008001071051MA1999999095721MD1999999-0021REMSYN070AAXX  16184 83236 32598 50504 10300 20219 39572 4//// 85275 333 59002;EQDQ01  00002PRCP99
0186832360999992000031700004-12150-045000FM-12+044099999V0209999C000010075019N9999999N1+02451+02271100801ADDAA199000091GF106991051021008001061041KA1240M+03021MA1999999095921MD1999999-0091REMSYN076AAXX  17004 83236 325// 60000 10245 20227 39592 40080 85264 333 10302 59009;EQDQ01  00002PRCP99
0201832360999992000031712004-12150-045000FM-12+044099999V0209999C000010450019N0200001N1+02431+02051101101ADDAA124000891AY121061AY261061GF105991041021008001051041KA1240N+02151MA1999999096191MD1999999-0051MW1021REMSYN088AAXX  17124 83236 21598 50000 10243 20205 39619 40110 70226 84254 333 20215 59005 69984;
0196832360999992000031800004-12150-045000FM-12+044099999V0209999C000012200019N9999999N1+02321+02131100741ADDAA199000091GA1001+999999999GF100991001001999999001001KA1240M+03031MA1999999095831MD1999999-0091REMSYN070AAXX  18004 83236 329// 00000 10232 20213 39583 40074 333 10303 59009;EQDQ01  00002PRCP99
0186832360999992000031812004-12150-045000FM-12+044099999V0209999C000012200019N0500001N1+02491+02051100961ADDAA199000091GF104991031021012501001041KA1240N+01981MA1999999096041MD1999999-0151REMSYN076AAXX  18124 83236 32699 40000 10249 20205 39604 40096 83204 333 20198 59015;EQDQ01  00002PRCP99
0167832360999992000031818004-12150-045000FM-12+044099999V0200501N001511050019N0500001N1+03061+01701999999ADDAA199000091GF105991031021008001001031MA1999999095621MD1999999-0101REMSYN070AAXX  18184 83236 32599 50503 10306 20170 39562 4//// 83203 333 59010;EQDQ01  00002PRCP99
0196832360999992000031900004-12150-045000FM-12+044099999V0209999C000012200019N9999999N1+02311+02031100961ADDAA199000091GA1001+999999999GF100991001001999999001001KA1240M+03071MA1999999095791MD1999999-0041REMSYN070AAXX  19004 83236 329// 00000 10231 20203 39579 40096 333 10307 59004;EQDQ01  00002PRCP99
0186832360999992000031912004-12150-045000FM-12+044099999V0209999C000012200019N0200001N1+02351+02051100911ADDAA199000091GF103991001001999999001041KA1240N+01861MA1999999095991MD1999999-0051REMSYN076AAXX  19124 83236 32998 30000 10235 20205 39599 40091 80004 333 20186 59005;EQDQ01  00002PRCP99
0167832360999992000031918004-12150-045000FM-12+044099999V0200901N003112200019N0200001N1+03121+01801999999ADDAA199000091GF104991021011008001001041MA1999999095641MD1999999+0021REMSYN070AAXX  19184 83236 32598 40906 10312 20180 39564 4//// 82104 333 58002;EQDQ01  00002PRCP99
0186832360999992000032000004-12150-045000FM-12+044099999V0209999C000012200019N9999999N1+02441+02351100771ADDAA199000091GF103991031001022501041001KA1240M+03181MA1999999095871MD1999999+0081REMSYN076AAXX  20004 83236 328// 30000 10244 20235 39587 40077 83040 333 10318 58008;EQDQ01  00002PRCP99
0186832360999992000032012004-12150-045000FM-12+044099999V0201801N001012200019N0500001N1+02471+02111101121ADDAA199000091GF103991001001999999001041KA1240N+01991MA1999999096201MD1999999+0211REMSYN076AAXX  20124 83236 32999 31802 10247 20211 39620 40112 80004 333 20199 58021;EQDQ01  00002PRCP99
0167832360999992000032018004-12150-045000FM-12+044099999V0200501N004610450019N0200001N1+03161+02201999999ADDAA199000091GF105991041091008001041001MA1999999095801MD1999999+0161REMSYN070AAXX  20184 83236 32598 50509 10316 20220 39580 4//// 84940 333 58016;EQDQ01  00002PRCP99
0186832360999992000032100004-12150-045000FM-12+044099999V0209999C000012200019N9999999N1+02411+02191100831ADDAA199000091GF103991031001022501061001KA1240M+03221MA1999999095961MD1999999+0061REMSYN076AAXX  21004 83236 328// 30000 10241 20219 39596 40083 83060 333 10322 58006;EQDQ01  00002PRCP99
0186832360999992000032112004-12150-045000FM-12+044099999V0209999C000012200019N0500001N1+02571+02111101061ADDAA199000091GF101991011011008001001001KA1240N+02081MA1999999096161MD1999999-0041REMSYN076AAXX  21124 83236 32599 10000 10257 20211 39616 40106 81100 333 20208 59004;EQDQ01  00002PRCP99
0182832360999992000032118004-12150-045000FM-12+044099999V0200501N004110075019N0200001N1+03031+02181999999ADDAA106000191AY151061AY251061GF106991061091008001001001MA1999999095751MD1999999-0051MW1151REMSYN082AAXX  21184 83236 21598 60508 10303 20218 39575 4//// 71555 86900 333 59005 69921;
0201832360999992000032200004-12150-045000FM-12+044099999V0209999C000010075019N9999999N1+02351+02261100891ADDAA106007191AY161061AY261061GF106991051091008001041001KA1240M+03081MA1999999095991MD1999999+0031MW1021REMSYN088AAXX  22004 83236 215// 60000 10235 20226 39599 40089 70266 85940 333 10308 58003 60071;
0201832360999992000032212004-12150-045000FM-12+044099999V0202301N000512200019N0500001N1+02441+02171101151ADDAA124018091AY191061AY261061GF103991031011008001001001KA1240N+02061MA1999999096231MD1999999+0071MW1021REMSYN088AAXX  22124 83236 21599 32301 10244 20217 39623 40115 70296 83100 333 20206 58007 60184;
0167832360999992000032218004-12150-045000FM-12+044099999V0203601N003612200019N0200001N1+02971+02131999999ADDAA199000091GF104991041021008001001001MA1999999095861MD1999999+0111REMSYN070AAXX  22184 83236 32598 43607 10297 20213 39586 4//// 84200 333 58011;EQDQ01  00002PRCP99
0186832360999992000032300004-12150-045000FM-12+044099999V0209999C000010120019N9999999N1+02511+02291100851ADDAA199000091GF106991061081008001001001KA1240M+02991MA1999999095951MD1999999-0041REMSYN076AAXX  23004 83236 325// 60000 10251 20229 39595 40085 86800 333 10299 59004;EQDQ01  00002PRCP99
0186832360999992000032312004-12150-045000FM-12+044099999V0209999C000010075019N0100001N1+02531+02151101071ADDAA199000091GF107991071051008001001001KA1240N+02561MA1999999096171MD1999999-0061REMSYN076AAXX  23124 83236 32597 70000 10253 20215 39617 40107 87500 333 20256 59006;EQDQ01  00002PRCP99
0167832360999992000032318004-12150-045000FM-12+044099999V0200501N003612200019N0500001N1+03051+02061999999ADDAA199000091GF103991031021008001001001MA1999999095871MD1999999-0081REMSYN070AAXX  23184 83236 32599 30507 10305 20206 39587 4//// 83200 333 59008;EQDQ01  00002PRCP99
0196832360999992000032400004-12150-045000FM-12+044099999V0209999C000012200019N9999999N1+02441+02271100881ADDAA199000091GA1001+999999999GF100991001001999999001001KA1240M+03061MA1999999095991MD1999999+0001REMSYN070AAXX  24004 83236 329// 00000 10244 20227 39599 40088 333 10306 58000;EQDQ01  00002PRCP99
0196832360999992000032412004-12150-045000FM-12+044099999V0209999C000012200019N0500001N1+02471+02011101221ADDAA199000091GA1001+999999999GF100991001001999999001001KA1240N+01891MA1999999096311MD1999999+0141REMSYN070AAXX  24124 83236 32999 00000 10247 20201 39631 40122 333 20189 58014;EQDQ01  00002PRCP99
0167832360999992000032418004-12150-045000FM-12+044099999V0201401N003112200019N0500001N1+03171+01861999999ADDAA199000091GF103991031021008001001001MA1999999095961MD1999999+0091REMSYN070AAXX  24184 83236 32599 31406 10317 20186 39596 4//// 83200 333 58009;EQDQ01  00002PRCP99
0196832360999992000032500004-12150-045000FM-12+044099999V0209999C000012200019N9999999N1+02341+02001101041ADDAA199000091GA1001+999999999GF100991001001999999001001KA1240M+03301MA1999999096131MD1999999+0141REMSYN070AAXX  25004 83236 329// 00000 10234 20200 39613 40104 333 10330 58014;EQDQ01  00002PRCP99
0186832360999992000032512004-12150-045000FM-12+044099999V0209999C000012200019N0500001N1+02481+01941101221ADDAA199000091GF102991021001022501061001KA1240N+01931MA1999999096311MD1999999+0001REMSYN076AAXX  25124 83236 32899 20000 10248 20194 39631 40122 82060 333 20193 58000;EQDQ01  00002PRCP99
0167832360999992000032518004-12150-045000FM-12+044099999V0201401N005112200019N0500001N1+03091+01711999999ADDAA199000091GF103991021061008001001041MA1999999095911MD1999999-0051REMSYN070AAXX  25184 83236 32599 31410 10309 20171 39591 4//// 82604 333 59005;EQDQ01  00002PRCP99
0196832360999992000032600004-12150-045000FM-12+044099999V0209999C000012200019N9999999N1+02391+02031100801ADDAA199000091GA1001+999999999GF100991001001999999001001KA1240M+03121MA1999999095901MD1999999-0231REMSYN070AAXX  26004 83236 329// 00000 10239 20203 39590 40080 333 10312 59023;EQDQ01  00002PRCP99
0186832360999992000032612004-12150-045000FM-12+044099999V0202301N000510075019N0200001N1+02401+02011101081ADDAA199000091GF106991061041008001001001KA1240N+01941MA1999999096161MD1999999-0151REMSYN076AAXX  26124 83236 32598 62301 10240 20201 39616 40108 86400 333 20194 59015;EQDQ01  00002PRCP99
0167832360999992000032618004-12150-045000FM-12+044099999V0200501N003111050019N0200001N1+03071+02081999999ADDAA199000091GF106991041021008001001081MA1999999095771MD1999999-0141REMSYN070AAXX  26184 83236 32598 60506 10307 20208 39577 4//// 84208 333 59014;EQDQ01  00002PRCP99
0186832360999992000032700004-12150-045000FM-12+044099999V0201801N001012200019N9999999N1+02251+02101100891ADDAA199000091GF103991031001022501061001KA1240M+03091MA1999999095961MD1999999+0061REMSYN076AAXX  27004 83236 328// 31802 10225 20210 39596 40089 83060 333 10309 58006;EQDQ01  00002PRCP99
0186832360999992000032712004-12150-045000FM-12+044099999V0202701N000519999999N0200001N1+02481+02031101101ADDAA199000091GF105991001001999999001051KA1240N+01901MA1999999096171MD1999999+0011REMSYN076AAXX  27124 83236 32998 52701 10248 20203 39617 40110 80005 333 20190 58001;EQDQ01  00002PRCP99
0167832360999992000032718004-12150-045000FM-12+044099999V0201501N002111050019N0200001N1+03141+02041999999ADDAA199000091GF106991031021008001001051MA1999999095751MD1999999-0021REMSYN070AAXX  27184 83236 32598 61504 10314 20204 39575 4//// 83205 333 59002;EQDQ01  00002PRCP99
0186832360999992000032812004-12150-045000FM-12+044099999V0209999C000012200019N0200001N1+02451+02131101151ADDAA199000091GF106991011011008001001061KA1240N+01951MA1999999096241MD1999999+0071REMSYN076AAXX  28124 83236 32598 60000 10245 20213 39624 40115 81106 333 20195 58007;EQDQ01  00002PRCP99
0191832360999992000032818004-12150-045000FM-12+044099999V0200901N001519999999N0200001N1+02051+01881999999ADDAA199000091AY101061AY291061GA1041+013509079GF106991999999008001999999MA1999999095771MW1151REMSYN070AAXX  28184 83236 31598 60903 10205 20188 39577 4//// 71509 333 84345;EQDQ01  00002PRCP99
0214832360999992000032900004-12150-045000FM-12+044099999V0201801N001010075019N9999999N1+02431+02151100851ADDAA199000091AY101061AY221061GF106991061071008001001001KA1240M+03101MA1999999095951MD1999999+0041MW1131REMSYN082AAXX  29004 83236 315// 61802 10243 20215 39595 40085 71302 86700 333 10310 58004;EQDQ01  00002PRCP99
0186832360999992000032912004-12150-045000FM-12+044099999V0200501N002111050019N0100001N1+02491+02151101091ADDAA199000091GF107991041021008001001061KA1240N+02061MA1999999096181MD1999999-0061REMSYN076AAXX  29124 83236 32597 70504 10249 20215 39618 40109 84206 333 20206 59006;EQDQ01  00002PRCP99
0182832360999992000032918004-12150-045000FM-12+044099999V0201401N002110075019N0100001N1+02871+02211999999ADDAA106000191AY101061AY291061GF107991061031008001041051MA1999999095801MD1999999-0031MW1951REMSYN082AAXX  29184 83236 21597 71404 10287 20221 39580 4//// 79509 86345 333 59003 69921;
0201832360999992000033000004-12150-045000FM-12+044099999V0209999C000012200019N9999999N1+02311+02251100931ADDAA106000191AY191061AY261061GF103991031031008001001001KA1240M+02951MA1999999096021MD1999999+0071MW1131REMSYN088AAXX  30004 83236 215// 30000 10231 20225 39602 40093 71396 83300 333 10295 58007 69911;
0201832360999992000033012004-12150-045000FM-12+044099999V0209999C000012200019N0200001N1+02511+02211101091ADDAA124007991AY161061AY261061GF105991031021008001001041KA1240N+02111MA1999999096171MD1999999-0011MW1021REMSYN088AAXX  30124 83236 21598 50000 10251 20221 39617 40109 70266 83204 333 20211 59001 60084;
0195832360999992000033018004-12150-045000FM-12+044099999V0200501N002112200019N0200001N1+02911+02201999999ADDAA199000091AY101061AY221061GF106991041031008001001041MA1999999095801MD1999999+0001MW1151REMSYN076AAXX  30184 83236 31598 60504 10291 20220 39580 4//// 71502 84304 333 58000;EQDQ01  00002PRCP99
0201832360999992000033112004-12150-045000FM-12+044099999V0209999C000012200019N0200001N1+02441+02171101231ADDAA124001091AY161061AY261061GF104991021021008001001041KA1240N+02031MA1999999096301MD1999999+0131MW1021REMSYN088AAXX  31124 83236 21598 40000 10244 20217 39630 40123 70266 82204 333 20203 58013 60014;
0167832360999992000033118004-12150-045000FM-12+044099999V0203601N003610450019N0200001N1+02991+02121999999ADDAA199000091GF105991041021008001041001MA1999999095861MD1999999+0061REMSYN070AAXX  31184 83236 32598 53607 10299 20212 39586 4//// 84240 333 58006;EQDQ01  00002PRCP99
0214832360999992000040100004-12150-045000FM-12+044099999V0209999C000012200019N9999999N1+02331+02151100981ADDAA199000091AY101061AY221061GF102991021031008001001001KA1240M+03021MA1999999096071MD1999999+0021MW1131REMSYN082AAXX  01004 83236 315// 20000 10233 20215 39607 40098 71302 82300 333 10302 58002;EQDQ01  00002PRCP99
0202832360999992000040112004-12150-045000FM-12+044099999V0209999C000012200019N0500001N1+02551+02061101201ADDAA199000091GA1001+999999999GF100991001001999999001001KA1240N+02021MA1999999096291MD1999999-0011REMSYN076AAXX  01124 83236 32999 00000 10255 20206 39629 40120 80005 333 20202 59001;EQDQ01  00002PRCP99
0195832360999992000040118004-12150-045000FM-12+044099999V0202701N001012200019N0200001N1+03121+02081999999ADDAA199000091AY101061AY221061GF106991041031008001001041MA1999999095921MD1999999+0061MW1151REMSYN076AAXX  01184 83236 31598 62702 10312 20208 39592 40/// 71502 84304 333 58006;EQDQ01  00002PRCP99
0186832360999992000040200004-12150-045000FM-12+044099999V0209999C000012200019N9999999N1+02351+02241101011ADDAA199000091GF104991041081008001001001KA1240M+03181MA1999999096111MD1999999+0041REMSYN076AAXX  02004 83236 325// 40000 10235 20224 39611 40101 84800 333 10318 58004;EQDQ01  00002PRCP99
0186832360999992000040212004-12150-045000FM-12+044099999V0209999C000012200019N0500001N1+02451+02071101311ADDAA199000091GF104991011011008001001051KA1240N+01891MA1999999096381MD1999999+0091REMSYN076AAXX  02124 83236 32599 40000 10245 20207 39638 40131 81105 333 20189 58009;EQDQ01  00002PRCP99
0167832360999992000040218004-12150-045000FM-12+044099999V0203201N001011050019N0200001N1+03151+02161999999ADDAA199000091GF105991021011008001001051MA1999999095971MD1999999+0021REMSYN070AAXX  02184 83236 32598 53202 10315 20216 30597 4//// 82105 333 58002;EQDQ01  00002PRCP99
0214832360999992000040300004-12150-045000FM-12+044099999V0201401N000510075019N9999999N1+02451+02301101001ADDAA199000091AY101061AY221061GF105991051071008001001001KA1240M+03181MA1999999096101MD1999999-0011MW1131REMSYN082AAXX  03004 83236 315// 51401 10245 20230 39610 40100 71302 85700 333 10318 59001;EQDQ01  00002PRCP99
0186832360999992000040312004-12150-045000FM-12+044099999V0203601N000512200019N0200001N1+02571+02171101271ADDAA199000091GF104991031021008001061001KA1240N+02161MA1999999096361MD1999999-0021REMSYN076AAXX  03124 83236 32598 43601 10257 20217 39636 40127 83260 333 20216 59002;EQDQ01  00002PRCP99
0195832360999992000040318004-12150-045000FM-12+044099999V0202701N001011050019N0200001N1+02921+02171999999ADDAA199000091AY101061AY291061GF105991041031008001001031MA1999999096021MD1999999+0101MW1151REMSYN076AAXX  03184 83236 31598 52702 10292 20217 39602 4//// 71509 84303 333 58010;EQDQ01  00002PRCP99
0201832360999992000040400004-12150-045000FM-12+044099999V0209999C000012200019N9999999N1+02311+02201101111ADDAA106004191AY161061AY261061GF103991031001022501061001KA1240M+03021MA1999999096201MD1999999+0001MW1021REMSYN088AAXX  04004 83236 218// 30000 10231 20220 39620 40111 70266 83060 333 10302 58000 60041;
0173832360999992000040412004-12150-045000FM-12+044099999V0200901N003110450019N0200001N1+02641+02001101361ADDAA124004191GF106991041021008001041001KA1240N+02151MA1999999096441MD1999999+0181REMSYN082AAXX  04124 83236 22598 60906 10264 20200 39644 40136 84240 333 20215 58018 60044;
0195832360999992000040418004-12150-045000FM-12+044099999V0200501N004110075019N0200001N1+02861+02141999999ADDAA199000091AY101061AY221061GF106991061031008001001001MA1999999096061MD1999999+0041MW1151REMSYN076AAXX  04184 83236 31598 60508 10286 20214 39606 40/// 71502 86300 333 58004;EQDQ01  00002PRCP99
0201832360999992000040500004-12150-045000FM-12+044099999V0209999C000012200019N9999999N1+02251+02091101181ADDAA106000191AY151061AY251061GF104991041081008001001001KA1240M+03031MA1999999096281MD1999999+0081MW1021REMSYN088AAXX  05004 83236 215// 40000 10225 20209 39628 40118 70255 84800 333 10303 58008 69921;
0173832360999992000040512004-12150-045000FM-12+044099999V0209999C000010075019N0200001N1+02391+01911101451ADDAA124000191GF107991051021008001061041KA1240N+02191MA1999999096521MD1999999+0081REMSYN082AAXX  05124 83236 22598 70000 10239 20191 39652 40145 85264 333 20219 58008 69924;
0167832360999992000040518004-12150-045000FM-12+044099999V0201401N003110075019N0200001N1+02891+01831999999ADDAA199000091GF107991061021008001071041MA1999999096131MD1999999+0071REMSYN070AAXX  05184 83236 32598 71406 10289 20183 39613 40/// 86274 333 58007;EQDQ01  00002PRCP99
0186832360999992000040612004-12150-045000FM-12+044099999V0201801N001010450019N0200001N1+02531+01981101331ADDAA199000091GF106991041021008001071041KA1240N+02191MA1999999096411MD1999999-0111REMSYN076AAXX  06124 83236 32598 61802 10253 20198 39641 40133 84274 333 20219 59011;EQDQ01  00002PRCP99
0182832360999992000040618004-12150-045000FM-12+044099999V0200501N001510075019N0200001N1+02811+02031999999ADDAA106000191AY151061AY251061GF106991051061008001001041MA1999999096041MD1999999-0091MW1151REMSYN082AAXX  06184 83236 21598 60503 10281 20203 39604 4//// 71555 85604 333 59009 69921;
0201832360999992000040712004-12150-045000FM-12+044099999V0209999C000012200019N0500001N1+02611+02101101131ADDAA124001091AY161061AY251061GF104991031021008001051031KA1240N+02111MA1999999096231MD1999999-0181MW1021REMSYN088AAXX  07124 83236 22599 40000 10261 20210 39623 40113 70265 83253 333 20211 59018 60014;
0167832360999992000040718004-12150-045000FM-12+044099999V0203601N002610075019N0200001N1+03061+01901999999ADDAA199000091GF106991051041008001001041MA1999999095891MD1999999-0161REMSYN070AAXX  07184 83236 32598 63605 10306 20190 39589 40/// 85404 333 59016;EQDQ01  00002PRCP99
0214832360999992000040800004-12150-045000FM-12+044099999V0209999C000012200019N9999999N1+02381+02111101011ADDAA199000091AY121061AY221061GF105991041051008001001041KA1240M+03101MA1999999096121MD1999999+0001MW1131REMSYN082AAXX  08004 83236 315// 50000 10238 20211 39612 40101 71322 84504 333 10310 58000;EQDQ01  00002PRCP99
0186832360999992000040812004-12150-045000FM-12+044099999V0209999C000010075019N0200001N1+02461+01941101201ADDAA199000091GF106991051021008001061051KA1240N+02121MA1999999096271MD1999999+0041REMSYN076AAXX  08124 83236 32598 60000 10246 20194 39627 40120 85265 333 20212 58004;EQDQ01  00002PRCP99
0182832360999992000040818004-12150-045000FM-12+044099999V0200501N002110075019N0100001N1+03011+01911999999ADDAA106001091AY161061AY251061GF107991061051008001071031MA1999999095901MD1999999+0011MW1151REMSYN082AAXX  08184 83236 21597 70504 10301 20191 39590 4//// 71565 86573 333 58001 60011;
0201832360999992000040900004-12150-045000FM-12+044099999V0209999C000010075019N9999999N1+02101+02031101031ADDAA106001091AY151061AY251061GF108991071051008001071999KA1240M+03121MA1999999096101MD1999999-0021MW1131REMSYN088AAXX  09004 83236 215// 80000 10210 20203 39610 40103 71355 8757/ 333 10312 59002 60011;
0173832360999992000040912004-12150-045000FM-12+044099999V0209999C000010120019N0200001N1+02211+02171101241ADDAA124002091GF108991061081008001051999KA1240N+01971MA1999999096281MD1999999+0011REMSYN082AAXX  09124 83236 22598 80000 10221 20217 39628 40124 8685/ 333 20197 58001 60024;
0167832360999992000040918004-12150-045000FM-12+044099999V0200501N001010075019N0200001N1+03041+01781999999ADDAA199000091GF106991051021008001061041MA1999999095921MD1999999+0021REMSYN070AAXX  09184 83236 32598 60502 10304 20178 39592 4//// 85264 333 58002;EQDQ01  00002PRCP99
0186832360999992000041000004-12150-045000FM-12+044099999V0209999C000012200019N9999999N1+02381+02151100991ADDAA199000091GF103991021021012501001031KA1240M+03131MA1999999096061MD1999999-0041REMSYN076AAXX  10004 83236 326// 30000 10238 20215 39606 40099 82203 333 10313 59004;EQDQ01  00002PRCP99
0186832360999992000041012004-12150-045000FM-12+044099999V0209999C000011050019N0500001N1+02571+01901101121ADDAA199000091GF105991031001022501061051KA1240N+02051MA1999999096211MD1999999-0071REMSYN076AAXX  10124 83236 32899 50000 10257 20190 39621 40112 83065 333 20205 59007;EQDQ01  00002PRCP99
0167832360999992000041018004-12150-045000FM-12+044099999V0200501N003610450019N0200001N1+03091+01821999999ADDAA199000091GF106991041041008001071041MA1999999095861MD1999999-0061REMSYN070AAXX  10184 83236 32598 60507 10309 20182 39586 40/// 84474 333 59006;EQDQ01  00002PRCP99
0214832360999992000041100004-12150-045000FM-12+044099999V0201801N001011050019N9999999N1+02251+02031100951ADDAA199000091AY121061AY221061GF105991031051008001001051KA1240M+03161MA1999999096041MD1999999-0211MW1131REMSYN082AAXX  11004 83236 315// 51802 10225 20203 39604 40095 71322 83505 333 10316 59021;EQDQ01  00002PRCP99
0186832360999992000041112004-12150-045000FM-12+044099999V0202301N001011050019N0500001N1+02571+02161101181ADDAA199000091GF105991021021012501001051KA1240N+02081MA1999999096261MD1999999+0051REMSYN076AAXX  11124 83236 32699 52302 10257 20216 39626 40118 82205 333 20208 58005;EQDQ01  00002PRCP99
0167832360999992000041118004-12150-045000FM-12+044099999V0200501N001510075019N0200001N1+03191+01691999999ADDAA199000091GF107991071051008001071051MA1999999095851MD1999999-0011REMSYN070AAXX  11184 83236 32598 70503 10319 20169 39585 40/// 87575 333 59001;EQDQ01  00002PRCP99
0214832360999992000041200004-12150-045000FM-12+044099999V0209999C000011050019N9999999N1+02331+02071100951ADDAA199000091AY121061AY221061GF106991031051008001001051KA1240M+03231MA1999999096051MD1999999+0011MW1131REMSYN082AAXX  12004 83236 315// 60000 10233 20207 39605 40095 71322 83505 333 10323 58001;EQDQ01  00002PRCP99
0186832360999992000041212004-12150-045000FM-12+044099999V0201801N001010450019N0200001N1+02491+02071101101ADDAA199000091GF106991041021008001071041KA1240N+02001MA1999999096181MD1999999-0081REMSYN076AAXX  12124 83236 32598 61802 10249 20207 39618 40110 84274 333 20200 59008;EQDQ01  00002PRCP99
0167832360999992000041218004-12150-045000FM-12+044099999V0200501N001510075019N0200001N1+02801+02061999999ADDAA199000091GF108991071021008001081999MA1999999095841MD1999999-0011REMSYN070AAXX  12184 83236 32598 80503 10280 20206 39584 4//// 8728/ 333 59001;EQDQ01  00002PRCP99
0186832360999992000041300004-12150-045000FM-12+044099999V0209999C000010075019N9999999N1+02361+02241100971ADDAA199000091GF108991061021008001071999KA1240M+02881MA1999999096071MD1999999+0021REMSYN076AAXX  13004 83236 325// 80000 10236 20224 39607 40097 8627/ 333 10288 58002;EQDQ01  00002PRCP99
0201832360999992000041312004-12150-045000FM-12+044099999V0202301N001510450019N0200001N1+02451+02191101171ADDAA124003091AY161061AY261061GF106991041021008001061041KA1240N+02111MA1999999096251MD1999999+0071MW1021REMSYN088AAXX  13124 83236 21598 62303 10245 20219 39625 40117 70266 84264 333 20211 58007 60034;
0182832360999992000041318004-12150-045000FM-12+044099999V0200901N001510450019N0200001N1+02791+02271999999ADDAA106003091AY161061AY251061GF106991031031008001071051MA1999999095791MD1999999+0051MW1031REMSYN082AAXX  13184 83236 21598 60903 10279 20227 39579 40/// 70365 83375 333 58005 60031;
0186832360999992000041400004-12150-045000FM-12+044099999V0209999C000012200019N9999999N1+02281+02071100931ADDAA199000091GF103991011001022501071031KA1240M+03261MA1999999096011MD1999999-0061REMSYN076AAXX  14004 83236 328// 30000 10228 20207 39601 40093 81073 333 10326 59006;EQDQ01  00002PRCP99
0167832360999992000041418004-12150-045000FM-12+044099999V0203601N001010075019N0200001N1+03071+02051999999ADDAA199000091GF107991051021008001071051MA1999999095851MD1999999+0061REMSYN070AAXX  14184 83236 32598 73602 10307 20205 39585 40/// 85275 333 58006;EQDQ01  00002PRCP99
0214832360999992000041500004-12150-045000FM-12+044099999V0201801N001010450019N9999999N1+02241+02141101061ADDAA199000091AY121061AY221061GF106991041051008001071041KA1240M+03081MA1999999096141MD1999999+0131MW1131REMSYN082AAXX  15004 83236 315// 61802 10224 20214 39614 40106 71322 84574 333 10308 58013;EQDQ01  00002PRCP99
0186832360999992000041512004-12150-045000FM-12+044099999V0209999C000010120019N0100001N1+02351+02131101381ADDAA199000091GF108991061081008001051999KA1240N+02201MA1999999096431MD1999999+0131REMSYN076AAXX  15124 83236 32597 80000 10235 20213 39643 40138 8685/ 333 20220 58013;EQDQ01  00002PRCP99
0167832360999992000041518004-12150-045000FM-12+044099999V0200501N003110075019N0200001N1+02921+02091999999ADDAA199000091GF107991051041008001071051MA1999999096001MD1999999+0151REMSYN070AAXX  15184 83236 32598 70506 10292 20209 39600 4//// 85475 333 58015;EQDQ01  00002PRCP99
0186832360999992000041600004-12150-045000FM-12+044099999V0209999C000010450019N9999999N1+02361+02221101161ADDAA199000091GF106991041021008001061041KA1240M+03121MA1999999096231MD1999999+0091REMSYN076AAXX  16004 83236 325// 60000 10236 20222 39623 40116 84264 333 10312 58009;EQDQ01  00002PRCP99
0186832360999992000041612004-12150-045000FM-12+044099999V0209999C000010450019N0200001N1+02571+02171101291ADDAA199000091GF106991041021008001061051KA1240N+02111MA1999999096371MD1999999-0061REMSYN076AAXX  16124 83236 32598 60000 10257 20217 39637 40129 84265 333 20211 59006;EQDQ01  00002PRCP99
0195832360999992000041618004-12150-045000FM-12+044099999V0201401N003110075019N0200001N1+02851+02291999999ADDAA199000091AY121061AY221061GF107991051051008001071041MA1999999095881MD1999999-0121MW1171REMSYN076AAXX  16184 83236 31598 71406 10285 20229 39588 40/// 71722 85574 333 59012;EQDQ01  00002PRCP99
0214832360999992000041700004-12150-045000FM-12+044099999V0209999C000010450019N9999999N1+02461+02321101011ADDAA199000091AY121061AY221061GF106991041051008001061051KA1240M+03181MA1999999096121MD1999999-0111MW1131REMSYN082AAXX  17004 83236 315// 60000 10246 20232 39612 40101 71322 84565 333 10318 59011;EQDQ01  00002PRCP99
0186832360999992000041712004-12150-045000FM-12+044099999V0200501N003610075019N0200001N1+02471+02191101161ADDAA199000091GF107991061071008001051041KA1240N+02201MA1999999096251MD1999999-0121REMSYN076AAXX  17124 83236 32598 70507 10247 20219 39625 40116 86754 333 20220 59012;EQDQ01  00002PRCP99
0195832360999992000041718004-12150-045000FM-12+044099999V0200501N002610075019N0200001N1+03071+01931999999ADDAA199000091AY101061AY221061GF106991051051008001061051MA1999999095791MD1999999-0091MW1151REMSYN076AAXX  17184 83236 31598 60505 10307 20193 39579 4//// 71502 85565 333 59009;EQDQ01  00002PRCP99
0201832360999992000041800004-12150-045000FM-12+044099999V0201801N001010075019N9999999N1+02261+02211100921ADDAA106004191AY161061AY251061GF106991061051008001061001KA1240M+03121MA1999999096001MD1999999-0121MW1131REMSYN088AAXX  18004 83236 215// 61802 10226 20221 39600 40092 71365 86560 333 10312 59012 60041;
0173832360999992000041812004-12150-045000FM-12+044099999V0209999C000010075019N0200001N1+02531+02271101261ADDAA124004191GF107991051021008001051041KA1240N+02061MA1999999096341MD1999999+0091REMSYN082AAXX  18124 83236 22598 70000 10253 20227 39634 40126 85254 333 20206 58009 60044;
0167832360999992000041818004-12150-045000FM-12+044099999V0203601N002612200019N0200001N1+03071+01871999999ADDAA199000091GF104991031021008001001051MA1999999095861MD1999999+0071REMSYN070AAXX  18184 83236 32598 43605 10307 20187 39586 4//// 83205 333 58007;EQDQ01  00002PRCP99
0218832360999992000041900004-12150-045000FM-12+044099999V0201801N001012200019N9999999N1+02321+02201100941ADDAA199000091GF102991001001999999001061KA1240M+03101MA1999999999999MD1999999+0031REMSYN076AAXX  19004 83236 329// 21802 10232 20220 39203 40094 80006 333 10310 58003;EQDQ01+092033APOSP Q02  00002PRCP99Q03 092033APOSP 
0201832360999992000041912004-12150-045000FM-12+044099999V0209999C000010075019N0020001N1+02211+02171101411ADDAA124014091AY161061AY261061GF108991071061008001041001KA1240N+02131MA1999999096451MD1999999+0111MW1621REMSYN088AAXX  19124 83236 21595 80000 10221 20217 39645 40141 76266 87640 333 20213 58011 60144;
0154832360999992000041918004-12150-045000FM-12+044099999V0201801N001011050019N0200001N1+02921+02141999999ADDAA106001091GF105991041021008001001031MA1999999095931MD1999999+0071REMSYN076AAXX  19184 83236 32598 51802 10292 20214 39593 40/// 84203 333 58007 60011;
0167832360999992000042000004-12150-045000FM-12+044099999V0209999C000012200019N9999999N1+02331+02201101131ADDAA199000021GF104991021001022501061051KA1240M+03041MA1999999096191MD1999999+0161REMSYN076AAXX  20004 83236 328// 40000 10233 20220 39619 40113 82065 333 10304 58016;
0173832360999992000042012004-12150-045000FM-12+044099999V0209999C000010075019N0200001N1+02531+02271101181ADDAA124001091GF107991051021008001051061KA1240N+02191MA1999999096271MD1999999-0181REMSYN082AAXX  20124 83236 22598 70000 10253 20227 39627 40118 85256 333 20219 59018 60014;
0167832360999992000042018004-12150-045000FM-12+044099999V0200501N002112200019N0500001N1+03171+02171999999ADDAA199000091GF102991021021012501001001MA1999999095781MD1999999-0151REMSYN070AAXX  20184 83236 32699 20504 10317 20217 39578 4//// 82200 333 59015;EQDQ01  00002PRCP99
0186832360999992000042112004-12150-045000FM-12+044099999V0209999C000011050019N0500001N1+02551+02131101031ADDAA199000091GF105991021021008001001051KA1240N+02051MA1999999096141MD1999999-0131REMSYN076AAXX  21124 83236 32599 50000 10255 20213 39614 40103 82205 333 20205 59013;EQDQ01  00002PRCP99
0167832360999992000042118004-12150-045000FM-12+044099999V0200501N002612200019N0500001N1+03231+01951999999ADDAA199000091GF102991021021008001001001MA1999999095691MD1999999-0091REMSYN070AAXX  21184 83236 32599 20505 10323 20195 39569 4//// 82200 333 59009;EQDQ01  00002PRCP99
0214832360999992000042200004-12150-045000FM-12+044099999V0201801N001011050019N9999999N1+02441+02321100801ADDAA199000091AY121061AY221061GF105991031051008001001051KA1240M+03241MA1999999095921MD1999999-0151MW1131REMSYN082AAXX  22004 83236 315// 51802 10244 20232 39592 40080 71322 83505 333 10324 59015;EQDQ01  00002PRCP99
0168832360999992000042218004-12150-045000FM-12+044099999V0201401N001010075019N0200001N1+03211+01961999999ADDAA199000091GF107991051021008001061051MD1999999+0011REMSYN070AAXX  22184 83236 32598 71402 10321 20196 32957 4//// 85265 333 58001;EQDQ01+029571APOSP Q02  00002PRCP99
0214832360999992000042300004-12150-045000FM-12+044099999V0209999C000010075019N9999999N1+02541+02331100991ADDAA199000091AY191061AY291061GF108991071061008001071999KA1240M+03281MA1999999096111MD1999999+0191MW1171REMSYN082AAXX  23004 83236 315// 80000 10254 20233 39611 40099 71799 8767/ 333 10328 58019;EQDQ01  00002PRCP99
0201832360999992000042312004-12150-045000FM-12+044099999V0201801N003110075019N0040001N1+02271+02121101261ADDAA124002091AY161061AY261061GF108991071061008001041999KA1240N+02211MA1999999096341MD1999999+0221MW1151REMSYN088AAXX  23124 83236 21596 81806 10227 20212 39634 40126 71566 8764/ 333 20221 58022 60024;
0182832360999992000042318004-12150-045000FM-12+044099999V0203201N001010075019N0200001N1+03071+02141999999ADDAA106001091AY121061AY221061GF106991051051008001071051MA1999999095921MD1999999+0221MW1131REMSYN082AAXX  23184 83236 31598 63202 10307 20214 39592 4//// 71322 85575 333 58022 60011;
0214832360999992000042400004-12150-045000FM-12+044099999V0209999C000010075019N9999999N1+02541+02331100991ADDAA199000091AY191061AY291061GF108991071061008001071999KA1240M+03281MA1999999096111MD1999999+0191MW1171REMSYN082AAXX  24004 83236 315// 80000 10254 20233 39611 40099 71799 8767/ 333 10328 58019;EQDQ01  00002PRCP99
0195832360999992000042418004-12150-045000FM-12+044099999V0200901N003111050019N0200001N1+02951+02241999999ADDAA199000091AY191061AY291061GF105991041091008001001031MA1999999095951MD1999999+0031MW1151REMSYN076AAXX  24184 83236 31598 50906 10295 20224 39595 4//// 71599 84903 333 58003;EQDQ01  00002PRCP99
0180832360999992000042500004-12150-045000FM-12+044099999V0209999C000019999999N9999999N1+02471+02281101041ADDAA199000091GF106991999999008001999999KA1240M+03031MA1999999096131MD1999999-0021REMSYN070AAXX  25004 83236 325// 60000 10247 20228 39613 40104 333 10303 59002;EQDQ01  00002PRCP99
0186832360999992000042512004-12150-045000FM-12+044099999V0203601N001010075019N0200001N1+02531+02191101211ADDAA199000091GF105991051021008001001001KA1240N+02111MA1999999096311MD1999999+0011REMSYN076AAXX  25124 83236 32598 53602 10253 20219 39631 40121 85200 333 20211 58001;EQDQ01  00002PRCP99
0167832360999992000042518004-12150-045000FM-12+044099999V0201401N002111050019N0200001N1+03111+02031999999ADDAA199000091GF106991041021008001001081MA1999999095891MD1999999-0061REMSYN070AAXX  25184 83236 32598 61404 10311 20203 39589 40/// 84208 333 59006;EQDQ01  00002PRCP99
0186832360999992000042600004-12150-045000FM-12+044099999V0209999C000012200019N9999999N1+02421+02111101101ADDAA199000091GF104991041001022501011001KA1240M+03161MA1999999096191MD1999999+0061REMSYN076AAXX  26004 83236 328// 40000 10242 20211 39619 40110 84010 333 10316 58006;EQDQ01  00002PRCP99
0186832360999992000042612004-12150-045000FM-12+044099999V0201801N001512200019N0200001N1+02371+01781101391ADDAA199000091GF103991031061008001001001KA1240N+01911MA1999999096461MD1999999+0151REMSYN076AAXX  26124 83236 32598 31803 10237 20178 39646 40139 83600 333 20191 58015;EQDQ01  00002PRCP99
0167832360999992000042618004-12150-045000FM-12+044099999V0201801N001012200019N0200001N1+03031+01861999999ADDAA199000091GF105991031021008001001041MA1999999096081MD1999999+0191REMSYN070AAXX  26184 83236 32598 51802 10303 20186 39608 4//// 83204 333 58019;EQDQ01  00002PRCP99
0196832360999992000042700004-12150-045000FM-12+044099999V0201801N000512200019N9999999N1+02221+01951101221ADDAA199000091GA1001+999999999GF100991001001999999001001KA1240M+03041MA1999999096281MD1999999+0091REMSYN070AAXX  27004 83236 329// 01801 10222 20195 39628 40122 333 10304 58009;EQDQ01  00002PRCP99
0186832360999992000042712004-12150-045000FM-12+044099999V0209999C000019999999N0500001N1+02221+01781101581ADDAA199000091GF105991001001999999001041KA1240N+01621MA1999999096611MD1999999+0151REMSYN076AAXX  27124 83236 32999 50000 10222 20178 39661 40158 80004 333 20162 58015;EQDQ01  00002PRCP99
0167832360999992000042718004-12150-045000FM-12+044099999V0201401N002112200019N0200001N1+03031+01751999999ADDAA199000091GF104991041021008001001001MA1999999096111MD1999999+0031REMSYN070AAXX  27184 83236 32598 41404 10303 20175 39611 4//// 84200 333 58003;EQDQ01  00002PRCP99
0196832360999992000042800004-12150-045000FM-12+044099999V0209999C000012200019N9999999N1+02061+01871101291ADDAA199000091GA1001+999999999GF100991001001999999001001KA1240M+03041MA1999999096331MD1999999+0051REMSYN070AAXX  28004 83236 329// 00000 10206 20187 39633 40129 333 10304 58005;EQDQ01  00002PRCP99
0196832360999992000042812004-12150-045000FM-12+044099999V0201801N001012200019N0500001N1+02291+01861101571ADDAA199000091GA1001+999999999GF100991001001999999001001KA1240N+01601MA1999999096591MD1999999-0021REMSYN070AAXX  28124 83236 32999 01802 10229 20186 39659 40157 333 20160 59002;EQDQ01  00002PRCP99
0167832360999992000042818004-12150-045000FM-12+044099999V0201801N002112200019N0200001N1+03111+01701999999ADDAA199000091GF104991041021008001001001MA1999999096161MD1999999+0051REMSYN070AAXX  28184 83236 32598 41804 10311 20170 39616 40/// 84200 333 58005;EQDQ01  00002PRCP99
0196832360999992000042900004-12150-045000FM-12+044099999V0209999C000012200019N9999999N1+02191+01881101281ADDAA199000091GA1001+999999999GF100991001001999999001001KA1240M+03161MA1999999096331MD1999999+0001REMSYN070AAXX  29004 83236 329// 00000 10219 20188 39633 40128 333 10316 58000;EQDQ01  00002PRCP99
0186832360999992000042912004-12150-045000FM-12+044099999V0202301N001012200019N0500001N1+02371+01931101561ADDAA199000091GF102991021011008001001001KA1240N+01791MA1999999096601MD1999999+0011REMSYN076AAXX  29124 83236 32599 22302 10237 20193 39660 40156 82100 333 20179 58001;EQDQ01  00002PRCP99
0167832360999992000042918004-12150-045000FM-12+044099999V0203601N002112200019N0200001N1+03031+01891999999ADDAA199000091GF104991041021008001001001MA1999999096171MD1999999+0091REMSYN070AAXX  29184 83236 32598 43604 10303 20189 39617 4//// 84200 333 58009;EQDQ01  00002PRCP99
0159832360999992000043000004-12150-045000FM-12+044099999V0209999C000012200019N9999999N1+02291+02051101201ADDAA199000091GA1001+999999999GF100991001001999999001001MA1999999096271REMSYN060AAXX  30004 83236 329// 00000 10229 20205 39627 40120 59006;EQDQ01  00002PRCP99
0186832360999992000043012004-12150-045000FM-12+044099999V0209999C000012200019N0500001N1+02431+01971101521ADDAA199000091GF103991001001999999001041KA1240N+01921MA1999999096481MD1999999-0121REMSYN076AAXX  30124 83236 32999 30000 10243 20197 39648 40152 80004 333 20192 59012;EQDQ01  00002PRCP99
0167832360999992000043018004-12150-045000FM-12+044099999V0200901N003112200019N0500001N1+03151+01941999999ADDAA199000091GF104991041021008001001001MA1999999096021MD1999999-0151REMSYN070AAXX  30184 83236 32599 40906 10315 20194 39602 4//// 84200 333 59015;EQDQ01  00002PRCP99
