0201832420999992000010100004-12570-041380FM-12+042799999V0203601N000510042019N9999999N1+02171+02111100961ADDAA106009991AY161061AY221061GF108991081061004501999999KA1240M+02961MA1999999096131MD1999999-0171MW1621REMSYN088AAXX  01004 83242 214// 83601 10217 20211 39613 40096 76262 886// 333 10296 59017 60101;
0201832420999992000010112004-12570-041380FM-12+042799999V0203601N000510042019N0040001N1+02321+02001101011ADDAA124022191AY161061AY221061GF108991081071004501999999KA1240N+02071MA1999999096191MD1999999-0101MW1021REMSYN088AAXX  01124 83242 21496 83601 10232 20200 39619 40101 70262 887// 333 20207 59010 60224;
0167832420999992000010118004-12570-041380FM-12+042799999V0202701N001010042019N0100001N1+02771+02091100581ADDAA106000091GF107991061071004501051001MA1999999095811MD1999999-0021REMSYN070AAXX  01184 83242 32497 72702 10277 20209 39581 40058 86750 333 59002;EQDQ01  00002PRCP06
0196832420999992000010200004-12570-041380FM-12+042799999V0201801N000512200019N9999999N1+02311+02131100811ADDAA106000091GA1001+999999999GF100991001001999999001001KA1240M+02901MA1999999096011MD1999999-0121REMSYN070AAXX  02004 83242 329// 01801 10231 20213 39601 40081 333 10290 59012;EQDQ01  00002PRCP06
0186832420999992000010212004-12570-041380FM-12+042799999V0201801N001010042019N0040001N1+02381+01911100971ADDAA106000091GF108991071071004501001071KA1240N+02131MA1999999096171MD1999999-0021REMSYN076AAXX  02124 83242 32496 81802 10238 20191 39617 40097 87707 333 20213 59002;EQDQ01  00002PRCP06
0182832420999992000010218004-12570-041380FM-12+042799999V0201801N001011050019N0040001N1+02731+01891100571ADDAA106000191AY151061AY221061GF107991041071004501001031MA1999999095811MD1999999+0001MW1031REMSYN082AAXX  02184 83242 21496 71802 10273 20189 39581 40057 70352 84703 333 58000 69921;
0186832420999992000010300004-12570-041380FM-12+042799999V0201801N001012200019N9999999N1+02291+02091100801ADDAA106000091GF102991021031022501001091KA1240M+02821MA1999999096011MD1999999+0001REMSYN076AAXX  03004 83242 328// 21802 10229 20209 39601 40080 82309 333 10282 58000;EQDQ01  00002PRCP06
0185832420999992000010312004-12570-041380FM-12+042799999V0201801N001010042019N0020001N1+02321+02021100971ADDAA124000191GF108991081071004501999999KA1240N+02071MA1999999096161MD1999999-0011MW1401REMSYN088AAXX  03124 83242 21495 81802 10232 20202 39616 40097 740// 887// 333 20207 59001 69924;
0167832420999992000010318004-12570-041380FM-12+042799999V0201801N001010042019N0100001N1+02651+02041100601ADDAA106000091GF107991061071004501051001MA1999999095841MD1999999+0031REMSYN070AAXX  03184 83242 32497 71802 10265 20204 39584 40060 86750 333 58003;EQDQ01  00002PRCP06
0167832420999992000010418004-12570-041380FM-12+042799999V0201801N001012200019N0100001N1+02961+01991100611ADDAA106000091GF104991031021004501001011MA1999999095871MD1999999+0031REMSYN070AAXX  04184 83242 32497 41802 10296 20199 39587 40061 83201 333 58003;EQDQ01  00002PRCP06
0198832420999992000010500004-12570-041380FM-12+042799999V0201801N001012200019N9999999N1+02531+01981100831ADDAA106000091GF103991031041004501001001KA1240M+03031MA1999999096061MD1999999+0181MW1131REMSYN082AAXX  05004 83242 314// 31802 10253 20198 39606 40083 713// 83400 333 10303 58018;EQDQ01  00002PRCP06
0198832420999992000010512004-12570-041380FM-12+042799999V0201801N000510042019N0020001N1+02351+02031101031ADDAA106000091GF108991081071004501999999KA1240N+02171MA1999999096251MD1999999-0041MW1401REMSYN082AAXX  05124 83242 31495 81801 10235 20203 39625 40103 740// 887// 333 20217 59004;EQDQ01  00002PRCP06
0179832420999992000010518004-12570-041380FM-12+042799999V0201801N002110450019N0100001N1+02941+01911100711ADDAA106000091GF105991031051004501051011MA1999999095971MD1999999+0101MW1171REMSYN076AAXX  05184 83242 31497 51804 10294 20191 39597 40071 717// 83551 333 58010;EQDQ01  00002PRCP06
0198832420999992000010612004-12570-041380FM-12+042799999V0201801N002110450019N0040001N1+02371+01951101141ADDAA106000091GF106991031041004501031011KA1240N+02111MA1999999096351MD1999999+0101MW1401REMSYN082AAXX  06124 83242 31496 61804 10237 20195 39635 40114 740// 83431 333 20211 58010;EQDQ01  00002PRCP06
0186832420999992000010700004-12570-041380FM-12+042799999V0200901N001010450019N9999999N1+02441+01951100911ADDAA106000091GF108991031021004501061001KA1240M+03031MA1999999096121MD1999999-0081REMSYN076AAXX  07004 83242 324// 80902 10244 20195 39612 40091 83260 333 10303 59008;EQDQ01  00002PRCP06
0198832420999992000010712004-12570-041380FM-12+042799999V0201801N000510042019N0040001N1+02461+01811101111ADDAA106000091GF105991051031004501001001KA1240N+02131MA1999999096321MD1999999-0031MW1401REMSYN082AAXX  07124 83242 31496 51801 10246 20181 39632 40111 740// 85300 333 20213 59003;EQDQ01  00002PRCP06
0167832420999992000010718004-12570-041380FM-12+042799999V0201801N001012200019N0100001N1+02891+01931100721ADDAA106000091GF104991031031004501021001MA1999999095971MD1999999-0121REMSYN070AAXX  07184 83242 32497 41802 10289 20193 39597 40072 83320 333 59012;EQDQ01  00002PRCP06
0186832420999992000010800004-12570-041380FM-12+042799999V0200901N000510042019N9999999N1+02501+02001100831ADDAA106000091GF106991061021004501001001KA1240M+02961MA1999999096071MD1999999-0051REMSYN076AAXX  08004 83242 324// 60901 10250 20200 39607 40083 86200 333 10296 59005;EQDQ01  00002PRCP06
0201832420999992000010812004-12570-041380FM-12+042799999V0200901N001510042019N0010001N1+02231+02101101151ADDAA124000191AY151061AY241061GF107991051071004501051091KA1240N+02091MA1999999096361MD1999999+0041MW1031REMSYN088AAXX  08124 83242 21494 70903 10223 20210 39636 40115 70354 85759 333 20209 58004 69914;
0182832420999992000010818004-12570-041380FM-12+042799999V0202301N001510450019N0100001N1+02561+02291100781ADDAA106004191AY191061AY261061GF105991031071004501051031MA1999999096001MD1999999+0061MW1031REMSYN082AAXX  08184 83242 21497 52303 10256 20229 39600 40078 70396 83753 333 58006 60041;
0201832420999992000010912004-12570-041380FM-12+042799999V0201801N002610042019N0020001N1+02251+01921101341ADDAA124006191AY151061AY241061GF108991081071004501999999KA1240N+02001MA1999999096501MD1999999+0141MW1021REMSYN088AAXX  09124 83242 21495 81805 10225 20192 39650 40134 70254 887// 333 20200 58014 60064;
0182832420999992000010918004-12570-041380FM-12+042799999V0200901N000510450019N0100001N1+02621+02031101051ADDAA106000891AY151061AY221061GF107991021071004501011041MA1999999096241MD1999999+0241MW1031REMSYN082AAXX  09184 83242 21497 70901 10262 20203 39624 40105 70352 82714 333 58024 69981;
0186832420999992000011000004-12570-041380FM-12+042799999V0200901N000512200019N9999999N1+02181+02011101171ADDAA106000091GF102991021001022501031001KA1240M+02761MA1999999096331MD1999999+0011REMSYN076AAXX  10004 83242 328// 20901 10218 20201 39633 40117 82030 333 10276 58001;EQDQ01  00002PRCP06
0201832420999992000011012004-12570-041380FM-12+042799999V0200901N001010042019N0040001N1+02331+02031101251ADDAA124002091AY151061AY241061GF107991061071004501061001KA1240N+02071MA1999999096421MD1999999-0081MW1151REMSYN088AAXX  10124 83242 21496 70902 10233 20203 39642 40125 71554 86760 333 20207 59008 60024;
0167832420999992000011018004-12570-041380FM-12+042799999V0201801N001510450019N0100001N1+02821+02051100801ADDAA106000091GF106991041041004501031001MA1999999096031MD1999999-0211REMSYN070AAXX  10184 83242 32497 61803 10282 20205 39603 40080 84430 333 59021;EQDQ01  00002PRCP06
0201832420999992000011100004-12570-041380FM-12+042799999V0200901N001010042019N9999999N1+02241+02161101071ADDAA106000391AY151061AY221061GF108991081071004501999999KA1240M+03041MA1999999096261MD1999999-0071MW1021REMSYN088AAXX  11004 83242 214// 80902 10224 20216 39626 40107 70252 887// 333 10304 59007 69931;
0201832420999992000011112004-12570-041380FM-12+042799999V0201801N002610042019N0040001N1+02301+01961101271ADDAA124000391AY151061AY221061GF107991071071004501001001KA1240N+02051MA1999999096441MD1999999-0021MW1401REMSYN088AAXX  11124 83242 21496 71805 10230 20196 39644 40127 74052 87700 333 20205 59002 69934;
0167832420999992000011118004-12570-041380FM-12+042799999V0201401N001510450019N0100001N1+02841+01961100821ADDAA106000091GF105991031021004501041021MA1999999096051MD1999999+0021REMSYN070AAXX  11184 83242 32497 51403 10284 20196 39605 40082 83242 333 58002;EQDQ01  00002PRCP06
0201832420999992000011200004-12570-041380FM-12+042799999V0200501N001510042019N9999999N1+02181+02061101001ADDAA106000591AY151061AY221061GF108991081071004501999999KA1240M+02921MA1999999096181MD1999999-0081MW1501REMSYN088AAXX  12004 83242 214// 80503 10218 20206 39618 40100 75052 887// 333 10292 59008 69961;
0201832420999992000011212004-12570-041380FM-12+042799999V0201801N002110042019N0040001N1+02241+01921101191ADDAA124000891AY151061AY221061GF108991081071004501999999KA1240N+02091MA1999999096311MD1999999-0091MW1401REMSYN088AAXX  12124 83242 21496 81804 10224 20192 39631 40119 74052 887// 333 20209 59009 69984;
0167832420999992000011218004-12570-041380FM-12+042799999V0202301N001010450019N0100001N1+02801+02031100801ADDAA106000091GF106991041041004501061011MA1999999096031MD1999999-0021REMSYN070AAXX  12184 83242 32497 62302 10280 20203 39603 40080 84461 333 59002;EQDQ01  00002PRCP06
0186832420999992000011300004-12570-041380FM-12+042799999V0203601N000510450019N9999999N1+02221+01871100931ADDAA106000091GF106991041071004501051031KA1240M+02981MA1999999096111MD1999999-0071REMSYN076AAXX  13004 83242 324// 63601 10222 20187 39611 40093 84753 333 10298 59007;EQDQ01  00002PRCP06
0186832420999992000011312004-12570-041380FM-12+042799999V0201801N001010450019N0200001N1+02381+01951101281ADDAA106000091GF106991041061004501041001KA1240N+02401MA1999999096461MD1999999+0111REMSYN076AAXX  13124 83242 32498 61802 10238 20195 39646 40128 84640 333 20240 58011;EQDQ01  00002PRCP06
0167832420999992000011318004-12570-041380FM-12+042799999V0201401N002110450019N0200001N1+03031+01531100781ADDAA106000091GF105991031021004501031011MA1999999096051MD1999999+0021REMSYN070AAXX  13184 83242 32498 51404 10303 20153 39605 40078 83231 333 58002;EQDQ01  00002PRCP06
0190832420999992000011400004-12570-041380FM-12+042799999V0202701N001012200019N9999999N1+02351+01801100901ADDAA199000091GF101991001001999999001021KA1240M+03101MA1999999096101MD1999999-0011REMSYN080    AAXX  14004 83242 329// 12702 10235 20180 39610 40090 80002 333 10310 59001;EQDQ01  00002PRCP99
0190832420999992000011412004-12570-041380FM-12+042799999V0201801N001510042019N0100001N1+02341+01951101181ADDAA199000091GF108991081071004501999999KA1240N+02171MA1999999096371MD1999999-0091REMSYN080    AAXX  14124 83242 32497 81803 10234 20195 39637 40118 887// 333 20217 59009;EQDQ01  00002PRCP99
0171832420999992000011418004-12570-041380FM-12+042799999V0201401N001012200019N0100001N1+02941+01971100681ADDAA199000091GF103991031011004501001001MA1999999095941MD1999999-0111REMSYN074    AAXX  14184 83242 32497 31402 10294 20197 39594 40068 83100 333 59011;EQDQ01  00002PRCP99
0200832420999992000011500004-12570-041380FM-12+042799999V0200501N000512200019N9999999N1+02421+01911100721ADDAA199000091GA1001+999999999GF100991001001999999001001KA1240M+03061MA1999999095941MD1999999-0161REMSYN074    AAXX  15004 83242 329// 00501 10242 20191 39594 40072 333 10306 59016;EQDQ01  00002PRCP99
0190832420999992000011512004-12570-041380FM-12+042799999V0202701N000510042019N0100001N1+02421+01931101001ADDAA199000091GF106991051021004501031001KA1240N+02171MA1999999096211MD1999999-0161REMSYN080    AAXX  15124 83242 32497 62701 10242 20193 39621 40100 85230 333 20217 59016;EQDQ01  00002PRCP99
0171832420999992000011518004-12570-041380FM-12+042799999V0202301N002112200019N0100001N1+02981+01861100561ADDAA199000091GF102991021011004501001001MA1999999095841MD1999999-0101REMSYN074    AAXX  15184 83242 32497 22304 10298 20186 39584 40056 82100 333 59010;EQDQ01  00002PRCP99
0200832420999992000011600004-12570-041380FM-12+042799999V0200901N000512200019N9999999N1+02381+01891100671ADDAA199000091GA1001+999999999GF100991001001999999001001KA1240M+03121MA1999999095891MD1999999-0051REMSYN074    AAXX  16004 83242 329// 00901 10238 20189 39589 40067 333 10312 59005;EQDQ01  00002PRCP99
0190832420999992000011612004-12570-041380FM-12+042799999V0201401N001012200019N0100001N1+02581+01641100991ADDAA199000091GF102991011011004501001021KA1240N+01991MA1999999096221MD1999999+0011REMSYN080    AAXX  16124 83242 32497 21402 10258 20164 39622 40099 81102 333 20199 58001;EQDQ01  00002PRCP99
0171832420999992000011618004-12570-041380FM-12+042799999V0201801N001511050019N0100001N1+03111+01851100511ADDAA199000091GF106991011031004501001021MA1999999095781MD1999999-0061REMSYN074    AAXX  16184 83242 32497 61803 10311 20185 39578 40051 81302 333 59006;EQDQ01  00002PRCP99
0202832420999992000011700004-12570-041380FM-12+042799999V0202301N001012200019N9999999N1+02581+02061100781ADDAA199000091GF102991011071004501051001KA1240M+03221MA1999999096041MD1999999+0151MW1131REMSYN086    AAXX  17004 83242 314// 22302 10258 20206 39604 40078 713// 81750 333 10322 58015;EQDQ01  00002PRCP99
0202832420999992000011712004-12570-041380FM-12+042799999V0201801N001510450019N0040001N1+02501+01941101081ADDAA199000091GF106991031041004501061001KA1240N+02051MA1999999096311MD1999999-0091MW1401REMSYN086    AAXX  17124 83242 31496 61803 10250 20194 39631 40108 740// 83460 333 20205 59009;EQDQ01  00002PRCP99
0171832420999992000011718004-12570-041380FM-12+042799999V0201401N001510042019N0100001N1+02701+01991100831ADDAA199000091GF107991071071004501001001MA1999999096051MD1999999+0271REMSYN074    AAXX  17184 83242 32497 71403 10270 20199 39605 40083 87700 333 58027;EQDQ01  00002PRCP99
0200832420999992000011800004-12570-041380FM-12+042799999V0200901N000512200019N9999999N1+02361+01991100961ADDAA199000091GA1001+999999999GF100991001001999999001001KA1240M+02861MA1999999096181MD1999999+0141REMSYN074    AAXX  18004 83242 329// 00901 10236 20199 39618 40096 333 10286 58014;EQDQ01  00002PRCP99
0202832420999992000011812004-12570-041380FM-12+042799999V0201801N000510042019N0040001N1+02421+01931101291ADDAA199000091GF108991081071004501999999KA1240N+02011MA1999999096491MD1999999+0181MW1401REMSYN086    AAXX  18124 83242 31496 81801 10242 20193 39649 40129 740// 887// 333 20201 58018;EQDQ01  00002PRCP99
0171832420999992000011818004-12570-041380FM-12+042799999V0201401N001010042019N0100001N1+02961+01991100801ADDAA199000091GF105991051061004501001001MA1999999096041MD1999999-0011REMSYN074    AAXX  18184 83242 32497 51402 10296 20199 39604 40080 85600 333 59001;EQDQ01  00002PRCP99
0162832420999992000011900004-12570-041380FM-12+042799999V0203601N001012200019N9999999N1+02541+02061100901ADDAA199000091GF102991021021004501001001MA1999999096131REMSYN079    AAXX  19004 83242 324// 23602 10254 20206 39613 40090 82200 333 1014 59005;EQDQ01  00002PRCP99
0202832420999992000011912004-12570-041380FM-12+042799999V0201401N001010042019N0040001N1+02461+02091101161ADDAA199000091GF108991081071004501999999KA1240N+02171MA1999999096381MD1999999-0111MW1401REMSYN086    AAXX  19124 83242 31496 81402 10246 20209 39638 40116 740// 887// 333 20217 59011;EQDQ01  00002PRCP99
0167832420999992000011918004-12570-041380FM-12+042799999V0201401N000512200019N0100001N1+03381+02061100431ADDAA199000091GF103991021021004501061001MA1999999095741MD1999999-0301REMSYN070AAXX  19184 83242 32497 31401 10338 20206 39574 40043 82260 333 59030;EQDQ01  00002PRCP99
0186832420999992000012000004-12570-041380FM-12+042799999V0202701N000512200019N9999999N1+02681+01971100691ADDAA199000091GF102991011041004501051001KA1240M+03491MA1999999095941MD1999999-0191REMSYN076AAXX  20004 83242 324// 22701 10268 20197 39594 40069 81450 333 10349 59019;EQDQ01  00002PRCP99
0186832420999992000012012004-12570-041380FM-12+042799999V0201401N000512200019N0100001N1+02701+02131100811ADDAA199000091GF104991021021004501031011KA1240N+02151MA1999999096091MD1999999-0291REMSYN076AAXX  20124 83242 32497 41401 10270 20213 39609 40081 82231 333 20215 59029;EQDQ01  00002PRCP99
0182832420999992000012018004-12570-041380FM-12+042799999V0201401N000510450019N0100001N1+02651+02271100471ADDAA106000791AY191061AY211061GF107991031051004501061001MA1999999095701MD1999999-0041MW1031REMSYN082AAXX  20184 83242 21497 71401 10265 20227 39570 40047 70391 83560 333 59004 69901;
0186832420999992000012100004-12570-041380FM-12+042799999V0200501N000511050019N9999999N1+02441+02131100741ADDAA199000091GF106991011031004501051031KA1240M+03261MA1999999095991MD1999999+0051REMSYN076AAXX  21004 83242 324// 60501 10244 20213 39599 40074 81353 333 10326 58005;EQDQ01  00002PRCP99
0201832420999992000012112004-12570-041380FM-12+042799999V0201401N000510042019N0100001N1+02361+02171100761ADDAA124000591AY151061AY241061GF107991051071004501031001KA1240N+02051MA1999999095981MD1999999-0111MW1031REMSYN088AAXX  21124 83242 21497 71401 10236 20217 39598 40076 70354 85730 333 20205 59011 69944;
0167832420999992000012118004-12570-041380FM-12+042799999V0200501N002610450019N0100001N1+03061+01931100461ADDAA199000091GF106991021031004501061001MA1999999095721MD1999999+0021REMSYN070AAXX  21184 83242 32497 60505 10306 20193 39572 40046 82360 333 58002;EQDQ01  00002PRCP99
0201832420999992000012200004-12570-041380FM-12+042799999V0201801N000510042019N9999999N1+02381+02171100941ADDAA106000791AY151061AY221061GF108991081071004501999999KA1240M+03211MA1999999096141MD1999999+0151MW1021REMSYN088AAXX  22004 83242 214// 81801 10238 20217 39614 40094 70252 887// 333 10321 58015 69901;
0201832420999992000012212004-12570-041380FM-12+042799999V0200501N002610042019N0100001N1+02521+01841101031ADDAA124000791AY151061AY221061GF106991061071004501001001KA1240N+02211MA1999999096251MD1999999+0271MW1031REMSYN088AAXX  22124 83242 32497 60505 10252 20184 39625 40103 70352 86700 333 20221 58027 69904;
0167832420999992000012218004-12570-041380FM-12+042799999V0203201N004110450019N0100001N1+03041+01681100581ADDAA199000091GF106991041061004501051001MA1999999095851MD1999999+0131REMSYN070AAXX  22184 83242 32497 63208 10304 20168 39585 40058 84650 333 58013;EQDQ01  00002PRCP99
0198832420999992000012300004-12570-041380FM-12+042799999V0203201N002610042019N9999999N1+02761+01971100781ADDAA199000091GF108991081071004501999999KA1240M+03201MA1999999096051MD1999999-0091MW1131REMSYN082AAXX  23004 83242 314// 83205 10276 20197 39605 40078 713// 887// 333 10320 59009;EQDQ01  00002PRCP99
0186832420999992000012312004-12570-041380FM-12+042799999V0201401N001010450019N0100001N1+02581+02171100871ADDAA199000091GF106991021021004501031001KA1240N+02281MA1999999096131MD1999999-0121REMSYN076AAXX  23124 83242 32497 61402 10258 20217 39613 40087 82230 333 20228 59012;EQDQ01  00002PRCP99
0182832420999992000012318004-12570-041380FM-12+042799999V0203601N002610042019N0100001N1+03111+01791100431ADDAA106005191AY191061AY261061GF107991051071004501051031MA1999999095731MD1999999-0121MW1031REMSYN082AAXX  23184 83242 21497 73605 10311 20179 39573 40043 70396 85753 333 59012 60051;
0198832420999992000012400004-12570-041380FM-12+042799999V0203601N001010042019N9999999N1+02481+02111100881ADDAA199000091GF108991081071004501999999KA1240M+03181MA1999999096121MD1999999+0071MW1131REMSYN082AAXX  24004 83242 314// 83602 10248 20211 39612 40088 713// 887// 333 10318 58007;EQDQ01  00002PRCP99
0201832420999992000012412004-12570-041380FM-12+042799999V0201401N001010090019N0040001N1+02461+02011100991ADDAA124010991AY161061AY221061GF106991061081004501031001KA1240N+02111MA1999999096211MD1999999+0081MW1401REMSYN088AAXX  24124 83242 21496 61402 10246 20201 39621 40099 74062 86830 333 20211 58008 60114;
0201832420999992000012500004-12570-041380FM-12+042799999V0203601N003110042019N9999999N1+02161+02081100941ADDAA106034091AY191061AY261061GF108991081071004501999999KA1240M+03021MA1999999096131MD1999999+0011MW1131REMSYN088AAXX  25004 83242 214// 83606 10216 20208 39613 40094 71396 887// 333 10302 58001 60341;
0201832420999992000012512004-12570-041380FM-12+042799999V0201101N021610042019N0020001N1+02311+02241101191ADDAA124039191AY161061AY241061GF108991081071004501999999KA1240N+02071MA1999999096361MD1999999+0151MW1401REMSYN088AAXX  25124 83242 21495 81142 10231 20224 39636 40119 74064 887// 333 20207 58015 60394;
0167832420999992000012518004-12570-041380FM-12+042799999V0201401N002110450019N0100001N1+03021+02181100651ADDAA199000091GF106991041041004501031001MA1999999095901MD1999999+0041REMSYN070AAXX  25184 83242 32497 61404 10302 20218 39590 40065 84430 333 58004;EQDQ01  00002PRCP99
0186832420999992000012600004-12570-041380FM-12+042799999V0200901N001012200019N9999999N1+02491+02291100931ADDAA199000091GF101991011071004501001001KA1240M+03121MA1999999096141MD1999999+0011REMSYN076AAXX  26004 83242 324// 10902 10249 20229 39614 40093 81700 333 10312 58001;EQDQ01  00002PRCP99
0201832420999992000012612004-12570-041380FM-12+042799999V0201801N000510042019N0020001N1+02321+02181101351ADDAA124000191AY151061AY211061GF108991081071004501999999KA1240N+02281MA1999999096541MD1999999+0151MW1401REMSYN088AAXX  26124 83242 21495 81801 10232 20218 39654 40135 74051 887// 333 20228 58015 69924;
0167832420999992000012618004-12570-041380FM-12+042799999V0201801N001512200019N0100001N1+02961+02051100811ADDAA199000091GF104991031021004501031001MA1999999096081MD1999999+0181REMSYN070AAXX  26184 83242 32497 41803 10296 20205 39608 40081 83230 333 58018;EQDQ01  00002PRCP99
0196832420999992000012700004-12570-041380FM-12+042799999V0201401N000512200019N9999999N1+02471+02151100961ADDAA199000091GA1001+999999999GF100991001001999999001001KA1240M+03091MA1999999096171MD1999999+0031REMSYN070AAXX  27004 83242 329// 01401 10247 20215 39617 40096 333 10309 58003;EQDQ01  00002PRCP99
0186832420999992000012712004-12570-041380FM-12+042799999V0200501N001010042019N0100001N1+02551+02211101171ADDAA199000091GF107991071071004501001001KA1240N+02031MA1999999096391MD1999999-0151REMSYN076AAXX  27124 83242 32497 70502 10255 20221 39639 40117 87700 333 20203 59015;EQDQ01  00002PRCP99
0167832420999992000012718004-12570-041380FM-12+042799999V0200501N002610450019N0100001N1+03151+02141100601ADDAA199000091GF105991031021004501031011MA1999999095881MD1999999-0201REMSYN070AAXX  27184 83242 32497 50505 10315 20214 39588 40060 83231 333 59020;EQDQ01  00002PRCP99
0201832420999992000012800004-12570-041380FM-12+042799999V0201801N002110042019N9999999N1+02661+02181100931ADDAA106002091AY191061AY221061GF106991061071004501999999KA1240M+03401MA1999999096181MD1999999-0011MW1601REMSYN088AAXX  28004 83242 214// 61804 10266 20218 39618 40093 76092 867// 333 10340 59001 60021;
0167832420999992000012818004-12570-041380FM-12+042799999V0200501N003610042019N0100001N1+03141+02161100651ADDAA199000091GF107991051061004501051001MA1999999095951MD1999999+0071REMSYN070AAXX  28184 83242 32497 70507 10314 20216 39595 40065 85650 333 58007;EQDQ01  00002PRCP99
0198832420999992000012900004-12570-041380FM-12+042799999V0202701N000512200019N9999999N1+02521+02291100971ADDAA199000091GF103991031071004501001001KA1240M+03341MA1999999096201MD1999999+0021MW1131REMSYN082AAXX  29004 83242 314// 32701 10252 20229 39620 40097 713// 83700 333 10334 58002;EQDQ01  00002PRCP99
0201832420999992000012912004-12570-041380FM-12+042799999V0201801N001510042019N0020001N1+02481+02111101321ADDAA124009991AY191061AY261061GF107991061071004501051001KA1240N+02171MA1999999096531MD1999999+0161MW1401REMSYN088AAXX  29124 83242 21495 71803 10248 20211 39653 40132 74096 86750 333 20217 58016 60104;
0167832420999992000012918004-12570-041380FM-12+042799999V0201801N001510450019N0100001N1+02961+02211100861ADDAA199000091GF106991031031004501021011MA1999999096111MD1999999+0161REMSYN070AAXX  29184 83242 32497 61803 10296 20221 39611 40086 83321 333 58016;EQDQ01  00002PRCP99
0186832420999992000013000004-12570-041380FM-12+042799999V0201401N000512200019N9999999N1+02541+02211101111ADDAA199000091GF102991021021004501001001KA1240M+03021MA1999999096331MD1999999+0131REMSYN076AAXX  30004 83242 324// 21401 10254 20221 39633 40111 82200 333 10302 58013;EQDQ01  00002PRCP99
0186832420999992000013012004-12570-041380FM-12+042799999V0201801N001012200019N0040001N1+02421+02011101431ADDAA199000091GF105991041021004501001011KA1240N+02151MA1999999096641MD1999999+0011REMSYN076AAXX  30124 83242 32496 51802 10242 20201 39664 40143 84201 333 20215 58001;EQDQ01  00002PRCP99
0167832420999992000013018004-12570-041380FM-12+042799999V0201401N002610450019N0100001N1+03021+01891101061ADDAA199000091GF106991041021004501061021MA1999999096311MD1999999+0201REMSYN070AAXX  30184 83242 32497 61405 10302 20189 39631 40106 84262 333 58020;EQDQ01  00002PRCP99
0196832420999992000013100004-12570-041380FM-12+042799999V0202301N000512200019N9999999N1+02441+01951101231ADDAA199000091GA1001+999999999GF100991001001999999001001KA1240M+03121MA1999999096441MD1999999+0111REMSYN070AAXX  31004 83242 329// 02301 10244 20195 39644 40123 333 10312 58011;EQDQ01  00002PRCP99
0186832420999992000013112004-12570-041380FM-12+042799999V0201801N002611050019N0100001N1+02521+02051101591ADDAA199000091GF105991031021004501001021KA1240N+02211MA1999999096791MD1999999+0151REMSYN076AAXX  31124 83242 32497 51805 10252 20205 39679 40159 83202 333 20221 58015;EQDQ01  00002PRCP99
0167832420999992000013118004-12570-041380FM-12+042799999V0201801N002111050019N0100001N1+03051+01991101101ADDAA199000091GF105991041021004501001021MA1999999096371MD1999999+0061REMSYN070AAXX  31184 83242 32497 51804 10305 20199 39637 40110 84202 333 58006;EQDQ01  00002PRCP99
0196832420999992000020100004-12570-041380FM-12+042799999V0203601N001012200019N9999999N1+02481+01981101131ADDAA199000091GA1001+999999999GF100991001001999999001001KA1240M+03171MA1999999096351MD1999999-0091REMSYN070AAXX  01004 83242 329// 03602 10248 20198 39635 40113 333 10317 59009;EQDQ01  00002PRCP99
0214832420999992000020112004-12570-041380FM-12+042799999V0201401N001010042019N0040001N1+02401+01971101541ADDAA199000091GF107991071061004501001001KA1240N+99999MA1999999096731MD1999999-0061MW1401REMSYN082AAXX  01124 83242 31496 71402 10240 20197 39673 40154 740// 87600 333 20255 59006;EQDQ01  00002PRCP99Q02 +02552ATMN  
0167832420999992000020118004-12570-041380FM-12+042799999V0201401N001012200019N0100001N1+03001+02031100961ADDAA199000091GF103991021011004501001021MA1999999096211MD1999999-0161REMSYN070AAXX  01184 83242 32497 31402 10300 20203 39621 40096 82102 333 59016;EQDQ01  00002PRCP99
0196832420999992000020200004-12570-041380FM-12+042799999V0200901N000512200019N9999999N1+02561+02081100971ADDAA199000091GA1001+999999999GF100991001001999999001001KA1240M+03101MA1999999096201MD1999999-0151REMSYN070AAXX  02004 83242 329// 00901 10256 20208 39620 40097 333 10310 59015;EQDQ01  00002PRCP99
0186832420999992000020212004-12570-041380FM-12+042799999V0200901N000512200019N0100001N1+02621+02031101021ADDAA199000091GF103991011011004501001011KA1240N+01951MA1999999096271MD1999999-0461REMSYN076AAXX  02124 83242 32497 30901 10262 20203 39627 40102 81101 333 20195 59046;EQDQ01  00002PRCP99
0198832420999992000020300004-12570-041380FM-12+042799999V0203201N005112200019N9999999N1+03071+01681100591ADDAA199000091GF102991021061004501001001KA1240M+03521MA1999999095901MD1999999-0301MW1131REMSYN082AAXX  03004 83242 314// 23210 10307 20168 39590 40059 713// 82600 333 10352 59030;EQDQ01  00002PRCP99
0186832420999992000020312004-12570-041380FM-12+042799999V0201401N001010450019N0100001N1+02811+02171100791ADDAA199000091GF106991031021004501031021KA1240N+02211MA1999999096111MD1999999-0161REMSYN076AAXX  03124 83242 32497 61402 10281 20217 39611 40079 83232 333 20221 59016;EQDQ01  00002PRCP99
0167832420999992000020318004-12570-041380FM-12+042799999V0203201N005110450019N0100001N1+03441+02041100261ADDAA199000091GF107991031071004501051031MA1999999095591MD1999999-0221REMSYN070AAXX  03184 83242 32497 73210 10344 20204 39559 40026 83753 333 59022;EQDQ01  00002PRCP99
0198832420999992000020400004-12570-041380FM-12+042799999V0201401N000510042019N9999999N1+02931+02111100481ADDAA199000091GF106991061071004501001001KA1240M+03521MA1999999095801MD1999999-0101MW1131REMSYN082AAXX  04004 83242 324// 61401 10293 20211 39580 40048 713// 86700 333 10352 59010;EQDQ01  00002PRCP99
0186832420999992000020412004-12570-041380FM-12+042799999V0201801N000510450019N0100001N1+02541+02171100841ADDAA199000091GF106991041041004501031001KA1240N+02211MA1999999096121MD1999999+0011REMSYN076AAXX  04124 83242 32497 61801 10254 20217 39612 40084 84430 333 20221 58001;EQDQ01  00002PRCP99
0182832420999992000020418004-12570-041380FM-12+042799999V0201401N004110042019N0020001N1+02581+01971100741ADDAA106000791AY191061AY221061GF108991081071004501999999MA1999999095971MD1999999+0381MW1501REMSYN082AAXX  04184 83242 21495 81408 10258 20197 39597 40074 75092 887// 333 58038 69901;
0201832420999992000020500004-12570-041380FM-12+042799999V0203201N008210042019N9999999N1+02411+01991100841ADDAA106006191AY161061AY221061GF108991081071004501999999KA1240M+03261MA1999999096081MD1999999+0281MW1031REMSYN088AAXX  05004 83242 214// 83216 10241 20199 39608 40084 70362 887// 333 10326 58028 60061;
0173832420999992000020512004-12570-041380FM-12+042799999V0201401N001010450019N0100001N1+02581+02211101131ADDAA124006191GF106991021011004501031011KA1240N+02111MA1999999096351MD1999999+0231REMSYN082AAXX  05124 83242 22497 61402 10258 20221 39635 40113 82131 333 20211 58023 60064;
0179832420999992000020518004-12570-041380FM-12+042799999V0203201N001011050019N0100001N1+03311+01851100711ADDAA199000091GF106991041071004501001021MA1999999096001MD1999999+0031MW1151REMSYN076AAXX  05184 83242 31497 63202 10331 20185 39600 40071 715// 84702 333 58003;EQDQ01  00002PRCP99
0201832420999992000020612004-12570-041380FM-12+042799999V0201401N000510450019N0100001N1+02501+02131101311ADDAA124013091AY161061AY241061GF106991041061004501031021KA1240N+02191MA1999999096521MD1999999+0171MW1011REMSYN088AAXX  06124 83242 21497 61401 10250 20213 39652 40131 70164 84632 333 20219 58017 60134;
0167832420999992000020618004-12570-041380FM-12+042799999V0201401N001510042019N0100001N1+03061+02111100871ADDAA199000091GF106991051051004501031001MA1999999096141MD1999999+0141REMSYN070AAXX  06184 83242 32497 61403 10306 20211 39614 40087 85530 333 58014;EQDQ01  00002PRCP99
0196832420999992000020700004-12570-041380FM-12+042799999V0203601N000512200019N9999999N1+02481+01901101021ADDAA199000091GA1001+999999999GF100991001001999999001001KA1240M+03041MA1999999096251MD1999999+0001REMSYN070AAXX  07004 83242 329// 03601 10248 20190 39625 40102 333 10304 59000;EQDQ01  00002PRCP99
0214832420999992000020712004-12570-041380FM-12+042799999V0201401N000510450019N0100001N1+02601+02061101181ADDAA124000191AY141061AY201061GF106991041051004501031011KA1240N+02211MA1999999096411MD1999999-0111REMSYN088AAXX  07124 83242 21497 61401 10260 20206 39641 40118 75640 84531 333 20221 59011 69924;EQDQ01+000562PRSWM1
0167832420999992000020718004-12570-041380FM-12+042799999V0201401N001510450019N0100001N1+03101+02031100861ADDAA199000091GF106991021021004501011011MA1999999096131MD1999999-0011REMSYN070AAXX  07184 83242 32497 61403 10310 20203 39613 40086 82211 333 59001;EQDQ01  00002PRCP99
0196832420999992000020800004-12570-041380FM-12+042799999V0200901N000512200019N9999999N1+02481+02111100961ADDAA199000091GA1001+999999999GF100991001001999999001001KA1240M+03161MA1999999096251MD1999999-0051REMSYN070AAXX  08004 83242 329// 00901 10248 20211 39625 40096 333 10316 59005;EQDQ01  00002PRCP99
0186832420999992000020812004-12570-041380FM-12+042799999V0201401N002110042019N0100001N1+02431+01881101371ADDAA199000091GF106991051071004501031001KA1240N+02071MA1999999096571MD1999999+0161REMSYN076AAXX  08124 83242 32497 61404 10243 20188 39657 40137 85730 333 20207 58016;EQDQ01  00002PRCP99
0167832420999992000020818004-12570-041380FM-12+042799999V0201401N001512200019N0100001N1+02981+01891100821ADDAA199000091GF104991031021004501001011MA1999999096141MD1999999+0011REMSYN070AAXX  08184 83242 32497 41403 10298 20189 39614 40082 83201 333 58001;EQDQ01  00002PRCP99
0196832420999992000020900004-12570-041380FM-12+042799999V0200901N000512200019N9999999N1+02431+01951101071ADDAA199000091GA1001+999999999GF100991001001999999001001KA1240M+03061MA1999999096291MD1999999+0041REMSYN070AAXX  09004 83242 329// 00901 10243 20195 39629 40107 333 10306 58004;EQDQ01  00002PRCP99
0198832420999992000020912004-12570-041380FM-12+042799999V0201801N001010042019N0040001N1+02421+02031101361ADDAA199000091GF107991061061004501041001KA1240N+02151MA1999999096561MD1999999-0011MW1401REMSYN082AAXX  09124 83242 31496 71802 10242 20203 39656 40136 740// 86640 333 20215 59001;EQDQ01  00002PRCP99
0167832420999992000020918004-12570-041380FM-12+042799999V0201401N001510450019N0100001N1+03021+01921100901ADDAA199000091GF106991041041004501031011MA1999999096141MD1999999+0001REMSYN070AAXX  09184 83242 32497 61403 10302 20192 39614 40090 84431 333 59000;EQDQ01  00002PRCP99
0201832420999992000021012004-12570-041380FM-12+042799999V0201401N001010042019N0040001N1+02481+01981101231ADDAA124000191AY151061AY201061GF106991051061004501031001KA1240N+02171MA1999999096441MD1999999-0121MW1401REMSYN088AAXX  10124 83242 21496 61402 10248 20198 39644 40123 74050 85630 333 20217 59012 69924;
0167832420999992000021018004-12570-041380FM-12+042799999V0201801N001010450019N0100001N1+03061+01901100821ADDAA199000091GF106991041031004501041001MA1999999096001MD1999999+0001REMSYN070AAXX  10184 83242 32497 61802 10306 20190 39600 40082 84340 333 59000;EQDQ01  00002PRCP99
0186832420999992000021100004-12570-041380FM-12+042799999V0201801N001010042019N9999999N1+02541+02021101131ADDAA199000091GF108991081061004501999999KA1240M+03181MA1999999096351MD1999999+0101REMSYN076AAXX  11004 83242 324// 81802 10254 20202 39635 40113 886// 333 10318 58010;EQDQ01  00002PRCP99
0186832420999992000021112004-12570-041380FM-12+042799999V0201801N001010042019N0100001N1+02501+02051101291ADDAA199000091GF106991051061004501001011KA1240N+02261MA1999999096501MD1999999+0061REMSYN076AAXX  11124 83242 32497 61802 10250 20205 39650 40129 85601 333 20226 58006;EQDQ01  00002PRCP99
0179832420999992000021118004-12570-041380FM-12+042799999V0200501N001010450019N0100001N1+02921+01891100941ADDAA199000091GF106991041071004501031001MA1999999096211MD1999999+0141MW1151REMSYN076AAXX  11184 83242 31497 60502 10292 20189 39621 40094 715// 84730 333 58014;EQDQ01  00002PRCP99
0196832420999992000021200004-12570-041380FM-12+042799999V0203601N000512200019N9999999N1+02471+02011100961ADDAA199000091GA1001+999999999GF100991001001999999001001KA1240M+03041MA1999999096191MD1999999-0161REMSYN070AAXX  12004 83242 329// 03601 10247 20201 39619 40096 333 10304 59016;EQDQ01  00002PRCP99
0186832420999992000021212004-12570-041380FM-12+042799999V0201401N001510042019N0100001N1+02571+01991101311ADDAA199000091GF106991051041004501001091KA1240N+02031MA1999999096521MD1999999+0021REMSYN076AAXX  12124 83242 32497 61403 10257 20199 39652 40131 85409 333 20203 58002;EQDQ01  00002PRCP99
0167832420999992000021218004-12570-041380FM-12+042799999V0201401N002110042019N0100001N1+02941+01941100751ADDAA199000091GF106991061021004501001001MA1999999096051MD1999999-0161REMSYN070AAXX  12184 83242 32497 61404 10294 20194 39605 40075 86200 333 59016;EQDQ01  00002PRCP99
0186832420999992000021300004-12570-041380FM-12+042799999V0203601N001510042019N9999999N1+02451+01881100881ADDAA199000091GF106991061021004501001001KA1240M+03061MA1999999096111MD1999999-0081REMSYN076AAXX  13004 83242 324// 63603 10245 20188 39611 40088 86200 333 10306 59008;EQDQ01  00002PRCP99
0186832420999992000021312004-12570-041380FM-12+042799999V0201801N001010042019N0100001N1+02461+01971101231ADDAA199000091GF107991061061004501031001KA1240N+02151MA1999999096441MD1999999-0011REMSYN076AAXX  13124 83242 32497 71802 10246 20197 39644 40123 86630 333 20215 59001;EQDQ01  00002PRCP99
0167832420999992000021318004-12570-041380FM-12+042799999V0201801N002110450019N0100001N1+03001+01841100921ADDAA199000091GF106991041041004501061011MA1999999096141MD1999999+0091REMSYN070AAXX  13184 83242 32497 61804 10300 20184 39614 40092 84461 333 58009;EQDQ01  00002PRCP99
0186832420999992000021400004-12570-041380FM-12+042799999V0201401N001010042019N9999999N1+02501+02071101161ADDAA199000091GF108991081061004501999999KA1240M+03161MA1999999096381MD1999999+0271REMSYN076AAXX  14004 83242 324// 81402 10250 20207 39638 40116 886// 333 10316 58027;EQDQ01  00002PRCP99
0201832420999992000021412004-12570-041380FM-12+042799999V0202301N002110450019N0040001N1+02481+02291101371ADDAA124000191AY151061AY221061GF106991041071004501031021KA1240N+02221MA1999999096581MD1999999+0141MW1401REMSYN088AAXX  14124 83242 21496 62304 10248 20229 39658 40137 74052 84732 333 20222 58014 69914;
0167832420999992000021418004-12570-041380FM-12+042799999V0201401N001510450019N0100001N1+03001+01941100951ADDAA199000091GF107991041071004501041011MA1999999096181MD1999999+0041REMSYN070AAXX  14184 83242 32497 71403 10300 20194 39618 40095 84741 333 58004;EQDQ01  00002PRCP99
0186832420999992000021500004-12570-041380FM-12+042799999V0201401N000510042019N9999999N1+02561+02081101111ADDAA199000091GF107991061071004501051001KA1240M+03141MA1999999096331MD1999999-0051REMSYN076AAXX  15004 83242 324// 71401 10256 20208 39633 40111 86750 333 10314 59005;EQDQ01  00002PRCP99
0186832420999992000021512004-12570-041380FM-12+042799999V0201801N002610450019N0100001N1+02561+02041101211ADDAA199000091GF106991041031004501051011KA1240N+02251MA1999999096441MD1999999-0141REMSYN076AAXX  15124 83242 32497 61805 10256 20204 39644 40121 84351 333 20225 59014;EQDQ01  00002PRCP99
0217832420999992000021518004-12570-041380FM-12+042799999V0202701N001510042019N0100001N1+02541+02171100921ADDAA106000891AY151061AY201061GF107991051061004501031021MA1999999999999MD1999999-0061MW1021REMSYN082AAXX  15184 83242 21497 72703 10254 20217 39162 40092 70250 85632 333 59006 69981;EQDQ01+091623APOSP Q02 091623APOSP 
0201832420999992000021600004-12570-041380FM-12+042799999V0201801N001010042019N9999999N1+02441+02091101081ADDAA106000891AY191061AY211061GF108991081071004501999999KA1240M+03101MA1999999096301MD1999999-0031MW1501REMSYN088AAXX  16004 83242 214// 81802 10244 20209 39630 40108 75091 887// 333 10310 59003 69981;
0201832420999992000021612004-12570-041380FM-12+042799999V0201801N000510042019N0020001N1+02321+02151101261ADDAA124003091AY161061AY221061GF108991081071004501999999KA1240N+02071MA1999999096461MD1999999+0021MW1401REMSYN088AAXX  16124 83242 21495 81801 10232 20215 39646 40126 74062 887// 333 20207 58002 60034;
0182832420999992000021618004-12570-041380FM-12+042799999V0201401N001512200019N0100001N1+03021+02021100721ADDAA106003091AY161061AY211061GF106991041051004501001061MA1999999095981MD1999999-0141MW1031REMSYN082AAXX  16184 83242 21497 61403 10302 20202 39598 40072 70361 84506 333 59014 60031;
0186832420999992000021700004-12570-041380FM-12+042799999V0201401N002110042019N9999999N1+02521+02051101111ADDAA199000091GF108991081071004501999999KA1240M+03101MA1999999096311MD1999999+0011REMSYN076AAXX  17004 83242 324// 81404 10252 20205 39631 40111 887// 333 10310 58001;EQDQ01  00002PRCP99
0201832420999992000021712004-12570-041380FM-12+042799999V0201401N001010042019N0100001N1+02531+02001101191ADDAA124003091AY161061AY221061GF107991051041004501031021KA1240N+02061MA1999999096421MD1999999-0041MW1011REMSYN088AAXX  17124 83242 21497 71402 10253 20200 39642 40119 70162 85432 333 20206 59004 60034;
0167832420999992000021718004-12570-041380FM-12+042799999V0201401N002110450019N0100001N1+03121+01921100721ADDAA199000091GF106991041071004501041011MA1999999095981MD1999999+0001REMSYN070AAXX  17184 83242 32497 61404 10312 20192 39598 40072 84741 333 58000;EQDQ01  00002PRCP99
0201832420999992000021800004-12570-041380FM-12+042799999V0200901N001010042019N9999999N1+02481+02111101061ADDAA106000891AY151061AY221061GF107991051071004501051001KA1240M+03161MA1999999096291MD1999999-0021MW1031REMSYN088AAXX  18004 83242 214// 70902 10248 20211 39629 40106 70352 85750 333 10316 59002 69981;
0201832420999992000021812004-12570-041380FM-12+042799999V0201801N001010042019N0020001N1+02421+02211101251ADDAA124000891AY151061AY221061GF107991061071004501051001KA1240N+02261MA1999999096461MD1999999+0041MW1401REMSYN088AAXX  18124 83242 21495 71802 10242 20221 39646 40125 74052 86750 333 20226 58004 69984;
0182832420999992000021818004-12570-041380FM-12+042799999V0200501N002110042019N0040001N1+02681+02181101041ADDAA106003091AY191061AY261061GF107991051071004501061001MA1999999096581MD1999999+0281MW1401REMSYN082AAXX  18184 83242 21496 70504 10268 20218 39658 40104 74096 85760 333 58028 60031;
0201832420999992000021912004-12570-041380FM-12+042799999V0201801N001010042019N0040001N1+02361+02171101411ADDAA124005191AY161061AY221061GF108991081071004501999999KA1240N+02171MA1999999096591MD1999999+0131MW1401REMSYN088AAXX  19124 83242 21496 81802 10236 20217 39659 40141 74062 887// 333 20217 58013 60054;
0167832420999992000021918004-12570-041380FM-12+042799999V0201401N001510450019N0100001N1+02941+02291100981ADDAA199000091GF106991031071004501031011MA1999999096221MD1999999-0291REMSYN070AAXX  19184 83242 32497 61403 10294 20229 39622 40098 83731 333 59029;EQDQ01  00002PRCP99
0186832420999992000022000004-12570-041380FM-12+042799999V0201801N001010042019N9999999N1+02501+01981101221ADDAA199000091GF107991071071004501001001KA1240M+03041MA1999999096401MD1999999+0011REMSYN076AAXX  20004 83242 324// 71802 10250 20198 39640 40122 87700 333 10304 58001;EQDQ01  00002PRCP99
0186832420999992000022012004-12570-041380FM-12+042799999V0201401N001510042019N0100001N1+02441+01971101351ADDAA199000091GF107991051071004501031001KA1240N+02181MA1999999096551MD1999999+0041REMSYN076AAXX  20124 83242 32497 71403 10244 20197 39655 40135 85730 333 20218 58004;EQDQ01  00002PRCP99
0167832420999992000022018004-12570-041380FM-12+042799999V0201801N002112200019N0100001N1+02981+01951100941ADDAA199000091GF104991031051004501031001MA1999999096201MD1999999-0021REMSYN070AAXX  20184 83242 32497 41804 10298 20195 39620 40094 83530 333 59002;EQDQ01  00002PRCP99
0201832420999992000022100004-12570-041380FM-12+042799999V0203601N000510042019N9999999N1+02201+02121101241ADDAA106003091AY161061AY241061GF107991051071004501031001KA1240M+03051MA1999999096421MD1999999+0021MW1031REMSYN088AAXX  21004 83242 214// 73601 10220 20212 39642 40124 70364 85730 333 10305 58002 60031;
0167832420999992000022118004-12570-041380FM-12+042799999V0201401N002110450019N0100001N1+02781+02061100881ADDAA199000091GF106991031071004501061021MA1999999096191MD1999999-0011REMSYN070AAXX  21184 83242 32497 61404 10278 20206 39619 40088 83762 333 59001;EQDQ01  00002PRCP99
0201832420999992000022200004-12570-041380FM-12+042799999V0201801N000510042019N9999999N1+02181+02131101271ADDAA106000591AY141061AY221061GF108991081071004501999999KA1240M+02941MA1999999096441MD1999999+0021MW1501REMSYN088AAXX  22004 83242 214// 81801 10218 20213 39644 40127 75042 887// 333 10294 58002 69941;
0201832420999992000022212004-12570-041380FM-12+042799999V0201801N002110042019N0040001N1+02341+02171101351ADDAA124000591AY151061AY221061GF107991061071004501041001KA1240N+02051MA1999999096511MD1999999-0021MW1401REMSYN088AAXX  22124 83242 21496 71804 10234 20217 39651 40135 74052 86740 333 20205 59002 69964;
0167832420999992000022218004-12570-041380FM-12+042799999V0201401N001510450019N0100001N1+02841+01961100921ADDAA199000091GF105991041071004501031001MA1999999096141MD1999999-0051REMSYN070AAXX  22184 83242 32497 51403 10284 20196 39614 40092 84730 333 59005;EQDQ01  00002PRCP99
0186832420999992000022300004-12570-041380FM-12+042799999V0201401N001010042019N9999999N1+02481+02051101071ADDAA199000091GF106991061071004501001001KA1240M+03021MA1999999096281MD1999999-0161REMSYN076AAXX  23004 83242 324// 61402 10248 20205 39628 40107 86700 333 10302 59016;EQDQ01  00002PRCP99
0198832420999992000022312004-12570-041380FM-12+042799999V0201801N001510042019N0040001N1+02351+01991101281ADDAA199000091GF108991081071004501999999KA1240N+02131MA1999999096481MD1999999-0031MW1401REMSYN082AAXX  23124 83242 31496 81803 10235 20199 39648 40128 740// 887// 333 20213 59003;EQDQ01  00002PRCP99
0196832420999992000022400004-12570-041380FM-12+042799999V0203601N001512200019N9999999N1+02401+02151101021ADDAA199000091GA1001+999999999GF100991001001999999001001KA1240M+02881MA1999999096231MD1999999-0051REMSYN070AAXX  24004 83242 329// 03603 10240 20215 39623 40102 333 10288 59005;EQDQ01  00002PRCP99
0201832420999992000022412004-12570-041380FM-12+042799999V0201801N001510450019N0040001N1+02381+01951101221ADDAA124000791AY151061AY201061GF106991041061004501051001KA1240N+02151MA1999999096421MD1999999-0061MW1401REMSYN088AAXX  24124 83242 21496 61803 10238 20195 39642 40122 74050 84650 333 20215 59006 69904;
0167832420999992000022418004-12570-041380FM-12+042799999V0202301N001512200019N0100001N1+03051+01901100891ADDAA199000091GF105991041031004501001011MA1999999096151MD1999999+0031REMSYN070AAXX  24184 83242 32497 52303 10305 20190 39615 40089 84301 333 58003;EQDQ01  00002PRCP99
0198832420999992000022500004-12570-041380FM-12+042799999V0201801N000512200019N9999999N1+02461+02011100921ADDAA199000091GF103991031051004501001001KA1240M+03121MA1999999096131MD1999999-0101MW1131REMSYN082AAXX  25004 83242 314// 31801 10246 20201 39613 40092 713// 83500 333 10312 59010;EQDQ01  00002PRCP99
0201832420999992000022512004-12570-041380FM-12+042799999V0201401N001010042019N0040001N1+02411+02091101161ADDAA124000591AY151061AY221061GF106991051071004501031001KA1240N+02151MA1999999096371MD1999999-0051MW1401REMSYN088AAXX  25124 83242 21496 61402 10241 20209 39637 40116 74052 85730 333 20215 59005 69964;
0167832420999992000022518004-12570-041380FM-12+042799999V0201401N001512200019N0100001N1+03141+02001100681ADDAA199000091GF103991021021004501041001MA1999999095961MD1999999-0191REMSYN070AAXX  25184 83242 32497 31403 10314 20200 39596 40068 82240 333 59019;EQDQ01  00002PRCP99
0196832420999992000022600004-12570-041380FM-12+042799999V0209999C000012200019N9999999N1+02621+02161100901ADDAA199000091GA1001+999999999GF100991001001999999001001KA1240M+03191MA1999999096131MD1999999+0001REMSYN070AAXX  26004 83242 329// 00900 10262 20216 39613 40090 333 10319 59000;EQDQ01  00002PRCP99
0198832420999992000022612004-12570-041380FM-12+042799999V0200901N000510042019N0040001N1+02461+02091101191ADDAA199000091GF107991071071004501001001KA1240N+02261MA1999999096421MD1999999+0051MW1401REMSYN082AAXX  26124 83242 31496 70901 10246 20209 39642 40119 740// 87700 333 20226 58005;EQDQ01  00002PRCP99
0167832420999992000022618004-12570-041380FM-12+042799999V0201401N002110450019N0100001N1+03051+02051100761ADDAA199000091GF106991041021004501031021MA1999999096041MD1999999+0081REMSYN070AAXX  26184 83242 32497 61404 10305 20205 39604 40076 84232 333 58008;EQDQ01  00002PRCP99
0201832420999992000022700004-12570-041380FM-12+042799999V0201801N000510042019N9999999N1+02421+02191101091ADDAA106001091AY161061AY221061GF108991081071004501999999KA1240M+03161MA1999999096271MD1999999+0141MW1031REMSYN088AAXX  27004 83242 214// 81801 10242 20219 39627 40109 70362 887// 333 10316 58014 60011;
0201832420999992000022712004-12570-041380FM-12+042799999V0201801N000510042019N0020001N1+02441+02191101221ADDAA124020191AY161061AY221061GF108991081071004501999999KA1240N+02171MA1999999096431MD1999999+0011MW1401REMSYN088AAXX  27124 83242 21495 81801 10244 20219 39643 40122 74062 887// 333 20217 58001 60204;
0167832420999992000022718004-12570-041380FM-12+042799999V0201401N001510450019N0100001N1+03001+02031100751ADDAA199000091GF106991041071004501031021MA1999999096021MD1999999-0021REMSYN070AAXX  27184 83242 32497 61403 10300 20203 39602 40075 84732 333 59002;EQDQ01  00002PRCP99
0212832420999992000022800004-12570-041380FM-12+042799999V0201801N001512200019N9999999N1+02381+02291100941ADDAA199000091GA1001+999999999GF100991001001999999001001KA1240M+03251MA1999999098022MD1999999+0031REMSYN070AAXX  28004 83242 329// 01803 10238 20229 39802 40094 333 10325 58003;EQDQ01+098023APOSP Q02  00002PRCP99
0201832420999992000022812004-12570-041380FM-12+042799999V0201401N001510042019N0040001N1+02421+02071101211ADDAA124034091AY151061AY221061GF107991061071004501041001KA1240N+02091MA1999999096401MD1999999-0031MW1401REMSYN088AAXX  28124 83242 21496 71403 10242 20207 39640 40121 74052 86740 333 20209 59003 60344;
0154832420999992000022818004-12570-041380FM-12+042799999V0200901N001010042019N0100001N1+02801+02181100811ADDAA106000791GF106991051071004501061001MA1999999096051MD1999999+0031REMSYN076AAXX  28184 83242 21497 60902 10280 20218 39605 40081 85760 333 58003 69901;
0198832420999992000022900004-12570-041380FM-12+042799999V0200501N000512200019N9999999N1+02321+02111101021ADDAA199000091GF103991031071004501001001KA1240M+02921MA1999999096221MD1999999-0101MW1131REMSYN082AAXX  29004 83242 314// 30501 10232 20211 39622 40102 713// 83700 333 10292 59010;EQDQ01  00002PRCP99
0201832420999992000022912004-12570-041380FM-12+042799999V0201801N001010450019N0100001N1+02501+01911101351ADDAA124004191AY161061AY241061GF106991041071004501041091KA1240N+02051MA1999999096541MD1999999+0141MW1031REMSYN088AAXX  29124 83242 21497 61802 10250 20191 39654 40135 70364 84749 333 20205 58014 60044;
0167832420999992000022918004-12570-041380FM-12+042799999V0201401N000510042019N0100001N1+02901+01991101001ADDAA199000091GF106991051061004501051001MA1999999096231MD1999999+0181REMSYN070AAXX  29184 83242 32497 61401 10290 20199 39623 40100 85650 333 58018;EQDQ01  00002PRCP99
0186832420999992000030100004-12570-041380FM-12+042799999V0200501N000510042019N9999999N1+02401+02261101131ADDAA199000091GF108991081071004501999999KA1240M+02941MA1999999096341MD1999999+0121REMSYN076AAXX  01004 83242 324// 80501 10240 20226 39634 40113 887// 333 10294 58012;EQDQ01  00002PRCP99
0201832420999992000030112004-12570-041380FM-12+042799999V0201801N000510042019N0040001N1+02401+02051101381ADDAA124000891AY151061AY221061GF107991061071004501031001KA1240N+02151MA1999999096571MD1999999+0031MW1401REMSYN088AAXX  01124 83242 21496 71801 10240 20205 39657 40138 74052 86730 333 20215 58003 69974;
0167832420999992000030118004-12570-041380FM-12+042799999V0201801N003110450019N0100001N1+02871+02051100981ADDAA199000091GF107991041071004501031021MA1999999096221MD1999999-0011REMSYN070AAXX  01184 83242 32497 71806 10287 20205 39622 40098 84732 333 59001;EQDQ01  00002PRCP99
0186832420999992000030200004-12570-041380FM-12+042799999V0202301N001010042019N9999999N1+02521+02131101211ADDAA199000091GF108991081071004501999999KA1240M+02951MA1999999096421MD1999999-0081REMSYN076AAXX  02004 83242 324// 82302 10252 20213 39642 40121 887// 333 10295 59008;EQDQ01  00002PRCP99
0201832420999992000030212004-12570-041380FM-12+042799999V0202301N001010042019N0010001N1+02251+02161101361ADDAA124000791AY151061AY221061GF108991081071004501999999KA1240N+02161MA1999999096551MD1999999-0021MW1401REMSYN088AAXX  02124 83242 21494 82302 10225 20216 39655 40136 74052 887// 333 20216 59002 69904;
0167832420999992000030218004-12570-041380FM-12+042799999V0201401N001510450019N0100001N1+03001+02031100821ADDAA199000091GF106991041071004501041011MA1999999096081MD1999999-0141REMSYN070AAXX  02184 83242 32497 61403 10300 20203 39608 40082 84741 333 59014;EQDQ01  00002PRCP99
0201832420999992000030300004-12570-041380FM-12+042799999V0201801N000510042019N9999999N1+02381+02221101141ADDAA106005191AY161061AY221061GF107991071071004501001001KA1240M+03061MA1999999096321MD1999999-0101MW1031REMSYN088AAXX  03004 83242 214// 71801 10238 20222 39632 40114 70362 87700 333 10306 59010 60051;
0201832420999992000030312004-12570-041380FM-12+042799999V0201801N001010450019N0040001N1+02461+02131101251ADDAA124006191AY161061AY221061GF106991041071004501041001KA1240N+02111MA1999999096451MD1999999-0101MW1401REMSYN088AAXX  03124 83242 21496 61802 10246 20213 39645 40125 74062 84740 333 20211 59010 60064;
0179832420999992000030318004-12570-041380FM-12+042799999V0201401N002610042019N0100001N1+02821+02101100991ADDAA199000091GF107991061071004501031001MA1999999096121MD1999999+0041MW1151REMSYN076AAXX  03184 83242 31497 71405 10282 20210 39612 40099 715// 86730 333 58004;EQDQ01  00002PRCP99
0201832420999992000030400004-12570-041380FM-12+042799999V0203601N000510042019N9999999N1+02241+02071101141ADDAA106000191AY151061AY221061GF107991071051004501001001KA1240M+03001MA1999999096331MD1999999+0011MW1031REMSYN088AAXX  04004 83242 214// 73601 10224 20207 39633 40114 70352 87500 333 10300 58001 69921;
0182832420999992000030418004-12570-041380FM-12+042799999V0201401N001510042019N0100001N1+02841+02091100991ADDAA106000791AY151061AY221061GF107991061071004501031001MA1999999096211MD1999999+0091MW1031REMSYN082AAXX  04184 83242 21497 71403 10284 20209 39621 40099 70352 86730 333 58009 69901;
0201832420999992000030512004-12570-041380FM-12+042799999V0201801N002610042019N0040001N1+02441+01951101461ADDAA124000591AY151061AY241061GF107991061071004501061001KA1240N+02111MA1999999096641MD1999999+0191MW1031REMSYN088AAXX  05124 83242 21496 71805 10244 20195 39664 40146 70354 86760 333 20211 58019 69944;
0167832420999992000030518004-12570-041380FM-12+042799999V0201801N003112200019N0100001N1+02981+01831101011ADDAA199000091GF102991011031004501001021MA1999999096261MD1999999+0051REMSYN070AAXX  05184 83242 32497 21806 10298 20183 39626 40101 81302 333 58005;EQDQ01  00002PRCP99
0186832420999992000030600004-12570-041380FM-12+042799999V0200901N000510042019N9999999N1+02501+01981101191ADDAA199000091GF107991071051004501001001KA1240M+03071MA1999999096401MD1999999-0101REMSYN076AAXX  06004 83242 324// 70901 10250 20198 39640 40119 87500 333 10307 59010;EQDQ01  00002PRCP99
0198832420999992000030612004-12570-041380FM-12+042799999V0201801N002610042019N0020001N1+02381+02011101381ADDAA199000091GF107991071071004501001001KA1240N+02151MA1999999096581MD1999999-0061MW1401REMSYN082AAXX  06124 83242 31495 71805 10238 20201 39658 40138 740// 87700 333 20215 59006;EQDQ01  00002PRCP99
0182832420999992000030618004-12570-041380FM-12+042799999V0201801N002110042019N0010001N1+02521+02091101091ADDAA106009991AY141061AY221061GF108991081071004501999999MA1999999096291MD1999999+0031MW1621REMSYN082AAXX  06184 83242 21494 81804 10252 20209 39629 40109 76242 887// 333 58003 60101;
0201832420999992000030700004-12570-041380FM-12+042799999V0209999C000010042019N9999999N1+02341+02261101141ADDAA106001091AY161061AY241061GF108991081071004501999999KA1240M+02821MA1999999096331MD1999999-0071MW1031REMSYN088AAXX  07004 83242 214// 83600 10234 20226 39633 40114 70364 887// 333 10282 59007 60011;
0201832420999992000030712004-12570-041380FM-12+042799999V0201801N001010042019N0020001N1+02241+02101101201ADDAA124013091AY161061AY221061GF108991081071004501999999KA1240N+01891MA1999999096381MD1999999-0201MW1401REMSYN088AAXX  07124 83242 21495 81802 10224 20210 39638 40120 74062 887// 333 20189 59020 60134;
0167832420999992000030718004-12570-041380FM-12+042799999V0201801N002111050019N0100001N1+02931+02001100761ADDAA199000091GF107991031071004501001081MA1999999096001MD1999999-0291REMSYN070AAXX  07184 83242 32497 71804 10293 20200 39600 40076 83708 333 59029;EQDQ01  00002PRCP99
0196832420999992000030800004-12570-041380FM-12+042799999V0200901N001012200019N9999999N1+02381+02131100861ADDAA199000091GA1001+999999999GF100991001001999999001001KA1240M+03071MA1999999096061MD1999999-0271REMSYN070AAXX  08004 83242 329// 00902 10238 20213 39606 40086 333 10307 59027;EQDQ01  00002PRCP99
0201832420999992000030812004-12570-041380FM-12+042799999V0201801N000510042019N0020001N1+02401+02111101061ADDAA124000191AY151061AY221061GF108991081071004501999999KA1240N+02151MA1999999096271MD1999999-0111MW1401REMSYN088AAXX  08124 83242 21495 81801 10240 20211 39627 40106 74052 887// 333 20215 59011 69924;
0167832420999992000030818004-12570-041380FM-12+042799999V0201401N001010450019N0100001N1+02041+01971100571ADDAA199000091GF106991041041004501021011MA1999999095851MD1999999-0151REMSYN070AAXX  08184 83242 32497 61402 10204 20197 39585 40057 84421 333 59015;EQDQ01  00002PRCP99
0186832420999992000030900004-12570-041380FM-12+042799999V0202301N000510042019N9999999N1+02551+02191100901ADDAA199000091GF108991081071004501999999KA1240M+03121MA1999999096131MD1999999+0071REMSYN076AAXX  09004 83242 324// 82301 10255 20219 39613 40090 887// 333 10312 58007;EQDQ01  00002PRCP99
0198832420999992000030912004-12570-041380FM-12+042799999V0201801N001510042019N0020001N1+02471+02151101211ADDAA199000091GF107991061071004501031001KA1240N+02271MA1999999096431MD1999999+0161MW1401REMSYN082AAXX  09124 83242 31495 71803 10247 20215 39643 40121 740// 86730 333 20227 58016;EQDQ01  00002PRCP99
0179832420999992000030918004-12570-041380FM-12+042799999V0201401N002110450019N0100001N1+03101+02091100681ADDAA199000091GF106991041071004501031021MA1999999095971MD1999999+0121MW1151REMSYN076AAXX  09184 83242 31497 61404 10310 20209 39597 40068 715// 84732 333 58012;EQDQ01  00002PRCP99
0201832420999992000031000004-12570-041380FM-12+042799999V0202301N001010042019N9999999N1+02301+02181101161ADDAA106002091AY161061AY221061GF108991081071004501999999KA1240M+03181MA1999999096361MD1999999+0231MW1601REMSYN088AAXX  10004 83242 214// 82302 10230 20218 39636 40116 76062 887// 333 10318 58023 60021;
0201832420999992000031012004-12570-041380FM-12+042799999V0201801N001010042019N0040001N1+02421+02071101331ADDAA124002091AY161061AY221061GF108991081071004501999999KA1240N+02211MA1999999096511MD1999999+0081MW1901REMSYN088AAXX  10124 83242 21496 81802 10242 20207 39651 40133 79062 887// 333 20221 58008 60024;
0182832420999992000031018004-12570-041380FM-12+042799999V0202301N002610450019N0100001N1+02641+02031101011ADDAA106007991AY161061AY241061GF106991041071004501031001MA1999999096221MD1999999+0251MW1031REMSYN082AAXX  10184 83242 21497 62305 10264 20203 39622 40101 70364 84730 333 58025 60081;
0201832420999992000031100004-12570-041380FM-12+042799999V0202301N001010042019N9999999N1+02301+02181101161ADDAA106002091AY161061AY221061GF108991081071004501999999KA1240M+03181MA1999999096361MD1999999+0231MW1601REMSYN088AAXX  11004 83242 214// 82302 10230 20218 39636 40116 76062 887// 333 10318 58023 60021;
0201832420999992000031112004-12570-041380FM-12+042799999V0201801N001010042019N0020001N1+02381+02191101241ADDAA124027991AY161061AY221061GF108991081071004501999999KA1240N+02171MA1999999096421MD1999999-0081MW1401REMSYN088AAXX  11124 83242 21495 81802 10238 20219 39642 40124 74062 887// 333 20217 59008 60284;
0182832420999992000031118004-12570-041380FM-12+042799999V0201401N001010450019N0040001N1+02021+99999100661ADDAA106002091AY161061AY221061GF106991041071004501041021MA1999999095921MD1999999-0301MW1051REMSYN082AAXX  11184 83242 21496 61402 10202 20210 39592 40066 70562 84742 333 59030 60021;
0186832420999992000031200004-12570-041380FM-12+042799999V0200901N001012200019N9999999N1+02501+02131100781ADDAA199000091GF102991021071004501001001KA1240M+03101MA1999999096011MD1999999-0331REMSYN076AAXX  12004 83242 324// 20902 10250 20213 39601 40078 82700 333 10310 59033;EQDQ01  00002PRCP99
0201832420999992000031212004-12570-041380FM-12+042799999V0201801N000510042019N0005001N1+02341+02291101061ADDAA124003091AY161061AY211061GF108991081071004501999999KA1240N+02281MA1999999096271MD1999999-0151MW1401REMSYN088AAXX  12124 83242 21493 81801 10234 20229 39627 40106 74061 887// 333 20228 59015 60034;
0182832420999992000031218004-12570-041380FM-12+042799999V0201401N001010042019N0020001N1+02581+02381100621ADDAA106001091AY161061AY231061GF106991051071004501031001MA1999999095861MD1999999-0061MW1401REMSYN082AAXX  12184 83242 21495 61402 10258 20238 39586 40062 74063 85730 333 59006 60011;
0186832420999992000031300004-12570-041380FM-12+042799999V0209999C000010042019N9999999N1+02371+02281100731ADDAA199000091GF106991061071004501001001KA1240M+02791MA1999999095941MD1999999-0071REMSYN076AAXX  13004 83242 324// 60000 10237 20228 39594 40073 86700 333 10279 59007;EQDQ01  00002PRCP99
0201832420999992000031312004-12570-041380FM-12+042799999V0201401N001010042019N0020001N1+02501+02171100811ADDAA124001091AY161061AY221061GF107991061071004501031001KA1240N+02121MA1999999096041MD1999999-0131MW1401REMSYN088AAXX  13124 83242 31495 71402 10250 20217 39604 40081 74062 86730 333 20212 59013 60014;
0182832420999992000031318004-12570-041380FM-12+042799999V0200901N002110042019N0100001N1+02821+02331100361ADDAA106000591AY151061AY241061GF108991081071004501999999MA1999999095611MD1999999-0271MW1171REMSYN082AAXX  13184 83242 21497 80904 10282 20233 39561 40036 71754 887// 333 59027 69961;
0201832420999992000031400004-12570-041380FM-12+042799999V0202301N000510042019N9999999N1+02281+02251100791ADDAA106004191AY191061AY241061GF108991081071004501999999KA1240M+02881MA1999999096011MD1999999+0071MW1611REMSYN088AAXX  14004 83242 214// 82301 10228 20225 39601 40079 76194 887// 333 10288 58007 60041;
0201832420999992000031412004-12570-041380FM-12+042799999V0201801N002110450019N0040001N1+02341+02221100971ADDAA124007191AY161061AY221061GF106991031051004501031021KA1240N+02151MA1999999096161MD1999999+0121MW1401REMSYN088AAXX  14124 83242 21496 61804 10234 20222 39616 40097 74062 83532 333 20215 58012 60074;
0182832420999992000031418004-12570-041380FM-12+042799999V0202301N000510042019N0100001N1+02341+02111100601ADDAA106018091AY161061AY241061GF108991081071004501999999MA1999999095801MD1999999+0191MW1511REMSYN082AAXX  14184 83242 21497 82301 10234 20211 39580 40060 75164 887// 333 58019 60181;
0201832420999992000031500004-12570-041380FM-12+042799999V0200901N001010042019N9999999N1+02251+02211101091ADDAA106011991AY191061AY241061GF108991081071004501999999KA1240M+02561MA1999999096281MD1999999+0171MW1631REMSYN088AAXX  15004 83242 214// 80902 10225 20221 39628 40109 76394 887// 333 10256 58017 60121;
0201832420999992000031512004-12570-041380FM-12+042799999V0201801N000510042019N0005001N1+02221+02191101251ADDAA124042991AY191061AY261061GF108991081071004501999999KA1240N+02111MA1999999096421MD1999999+0261MW1401REMSYN088AAXX  15124 83242 21493 81801 10222 20219 39642 40125 74096 887// 333 20211 58026 60434;
0182832420999992000031518004-12570-041380FM-12+042799999V0201801N001510450019N0100001N1+02681+02181100821ADDAA106000891AY151061AY241061GF106991041061004501031091MA1999999096061MD1999999-0261MW1171REMSYN082AAXX  15184 83242 21497 61803 10268 20218 39606 40082 71754 84639 333 59026 69981;
0195832420999992000031600004-12570-041380FM-12+042799999V0203601N000510042019N9999999N1+02231+99999101081ADDAA106004191AY191061AY261061GF107991051071004501031001KA1240M+02821MA1999999096261MD1999999-0021MW1401REMSYN082AAXX  16004 83242 214// 73601 10223 39626 40108 74096 85730 333 10282 59002 60041;
0201832420999992000031612004-12570-041380FM-12+042799999V0200901N001510042019N0040001N1+02471+02031101121ADDAA124005191AY161061AY221061GF106991051071004501031001KA1240N+02111MA1999999096401MD1999999-0021MW1401REMSYN088AAXX  16124 83242 21496 60903 10247 20203 39640 40112 74062 85730 333 20211 59002 60054;
0167832420999992000031618004-12570-041380FM-12+042799999V0201801N001510450019N0100001N1+02921+01921100881ADDAA199000091GF106991041021004501031051MA1999999096031MD1999999-0031REMSYN070AAXX  16184 83242 32497 61803 10292 20192 39603 40088 84235 333 59003;EQDQ01  00002PRCP99
0186832420999992000031700004-12570-041380FM-12+042799999V0200901N000512200019N9999999N1+02271+02031100921ADDAA199000091GF101991001001999999001011KA1240M+02991MA1999999096121MD1999999-0141REMSYN076AAXX  17004 83242 329// 10901 10227 20203 39612 40092 80001 333 10299 59014;EQDQ01  00002PRCP99
0201832420999992000031712004-12570-041380FM-12+042799999V0201401N002110042019N0040001N1+02371+01991101241ADDAA124000391AY151061AY201061GF106991051041004501001051KA1240N+02051MA1999999096421MD1999999+0021MW1051REMSYN088AAXX  17124 83242 21496 61404 10237 20199 39642 40124 70550 85405 333 20205 58002 69934;
0186832420999992000031800004-12570-041380FM-12+042799999V0200901N001012200019N9999999N1+02231+01861100831ADDAA199000091GF101991001001999999001011KA1240M+02991MA1999999096031MD1999999-0091REMSYN076AAXX  18004 83242 329// 10902 10223 20186 39603 40083 80001 333 10299 59009;EQDQ01  00002PRCP99
0198832420999992000031812004-12570-041380FM-12+042799999V0200501N001010042019N0040001N1+02281+01831101021ADDAA199000091GF106991061041004501001001KA1240N+01971MA1999999096261MD1999999-0161MW1401REMSYN082AAXX  18124 83242 31496 60502 10228 20183 39626 40102 740// 86400 333 20197 59016;EQDQ01  00002PRCP99
0167832420999992000031818004-12570-041380FM-12+042799999V0201801N001512200019N0100001N1+02921+02041100611ADDAA199000091GF102991021021004501001001MA1999999095851MD1999999-0061REMSYN070AAXX  18184 83242 32497 21803 10292 20204 39585 40061 82200 333 59006;EQDQ01  00002PRCP99
0198832420999992000031900004-12570-041380FM-12+042799999V0203601N001012200019N9999999N1+02221+01841100791ADDAA199000091GF101991001001999999001011KA1240M+02981MA1999999095981MD1999999-0051MW1051REMSYN082AAXX  19004 83242 319// 13602 10222 20184 39598 40079 705// 80001 333 10298 59005;EQDQ01  00002PRCP99
0198832420999992000031912004-12570-041380FM-12+042799999V0201401N001010042019N0040001N1+02381+02031101071ADDAA199000091GF106991051061004501031001KA1240N+01951MA1999999096251MD1999999-0011MW1401REMSYN082AAXX  19124 83242 31496 61402 10238 20203 39625 40107 740// 85630 333 20195 59001;EQDQ01  00002PRCP99
0167832420999992000031918004-12570-041380FM-12+042799999V0201801N002110450019N0200001N1+03031+01881100601ADDAA199000091GF108991011031004501061071MA1999999095851MD1999999+0001REMSYN070AAXX  19184 83242 32498 81804 10303 20188 39585 40060 81367 333 58000;EQDQ01  00002PRCP99
0186832420999992000032000004-12570-041380FM-12+042799999V0200501N000512200019N9999999N1+02391+02011100781ADDAA199000091GF102991001001999999001011KA1240M+03121MA1999999096001MD1999999+0021REMSYN076AAXX  20004 83242 329// 20501 10239 20201 39600 40078 80001 333 10312 58002;EQDQ01  00002PRCP99
0201832420999992000032012004-12570-041380FM-12+042799999V0200501N001510042019N0020001N1+02411+02111101251ADDAA124000191AY151061AY221061GF108991081071004501999999KA1240N+02211MA1999999096451MD1999999+0201MW1101REMSYN088AAXX  20124 83242 21495 80503 10241 20211 39645 40125 71052 887// 333 20221 58020 69914;
0167832420999992000032018004-12570-041380FM-12+042799999V0202301N001512200019N0100001N1+03061+02051100801ADDAA199000091GF103991011021004501041091MA1999999096071MD1999999+0221REMSYN070AAXX  20184 83242 32497 32303 10306 20205 39607 40080 81249 333 58022;EQDQ01  00002PRCP99
0186832420999992000032100004-12570-041380FM-12+042799999V0201801N001010042019N9999999N1+02561+02081100891ADDAA199000091GF106991051051004501031001KA1240M+03141MA1999999096121MD1999999+0121REMSYN076AAXX  21004 83242 324// 61802 10256 20208 39612 40089 85530 333 10314 58012;EQDQ01  00002PRCP99
0201832420999992000032112004-12570-041380FM-12+042799999V0201801N002110042019N0020001N1+02261+02141101291ADDAA124007191AY161061AY221061GF107991071071004501001001KA1240N+02081MA1999999096491MD1999999+0041MW1401REMSYN088AAXX  21124 83242 21495 71804 10226 20214 39649 40129 74062 87700 333 20208 58004 60074;
0182832420999992000032118004-12570-041380FM-12+042799999V0202301N001510450019N0100001N1+02541+02041100901ADDAA106002091AY161061AY241061GF106991041071004501031011MA1999999096121MD1999999+0051MW1031REMSYN082AAXX  21184 83242 21497 62303 10254 20204 39612 40090 70364 84731 333 58005 60021;
0186832420999992000032200004-12570-041380FM-12+042799999V0209999C000012200019N9999999N1+02331+02171101041ADDAA199000091GF103991021051004501031001KA1240M+02731MA1999999096231MD1999999+0111REMSYN076AAXX  22004 83242 324// 30000 10233 20217 39623 40104 82530 333 10273 58011;EQDQ01  00002PRCP99
0173832420999992000032212004-12570-041380FM-12+042799999V0201801N001510450019N0100001N1+02421+02071101161ADDAA124002091GF105991041041004501041001KA1240N+02051MA1999999096361MD1999999-0131REMSYN082AAXX  22124 83242 22497 51803 10242 20207 39636 40116 84440 333 20205 59013 60024;
0179832420999992000032218004-12570-041380FM-12+042799999V0201801N002110042019N0040001N1+02581+02041100961ADDAA199000091GF108991081071004501999999MA1999999096161MD1999999+0041MW1151REMSYN076AAXX  22184 83242 31496 81804 10258 20204 39616 40096 715// 887// 333 58004;EQDQ01  00002PRCP99
0201832420999992000032300004-12570-041380FM-12+042799999V0201801N001010042019N9999999N1+02191+02131101101ADDAA106000191AY151061AY221061GF108991081071004501999999KA1240M+02781MA1999999096291MD1999999+0061MW1031REMSYN088AAXX  23004 83242 214// 81802 10219 20213 39629 40110 70352 887// 333 10278 58006 69921;
0201832420999992000032312004-12570-041380FM-12+042799999V0201801N002110042019N0040001N1+02341+02111101251ADDAA124000191AY151061AY221061GF107991061071004501071001KA1240N+02051MA1999999096421MD1999999+0061MW1101REMSYN088AAXX  23124 83242 21496 71804 10234 20211 39642 40125 71052 86770 333 20205 58006 69914;
0182832420999992000032318004-12570-041380FM-12+042799999V0201801N001510042019N0100001N1+02661+02271101071ADDAA106000391AY151061AY241061GF107991071071004501001001MA1999999096271MD1999999+0111MW1151REMSYN082AAXX  23184 83242 21497 71803 10266 20227 39627 40107 71554 87700 333 58011 69931;
0196832420999992000032400004-12570-041380FM-12+042799999V0203201N000512200019N9999999N1+02141+02091101111ADDAA199000091GA1001+999999999GF100991001001999999001001KA1240M+03221MA1999999096291MD1999999+0001REMSYN070AAXX  24004 83242 329// 03201 10214 20209 39629 40111 333 10322 58000;EQDQ01  00002PRCP99
0201832420999992000032412004-12570-041380FM-12+042799999V0201401N001010042019N0020001N1+02321+02131101411ADDAA124000591AY151061AY221061GF107991061071004501031001KA1240N+02031MA1999999096571MD1999999+0151MW1101REMSYN088AAXX  24124 83242 21495 71402 10232 20213 39657 40141 71052 86730 333 20203 58015 69954;
0167832420999992000032418004-12570-041380FM-12+042799999V0201801N001010450019N0100001N1+02801+02151101121ADDAA199000091GF105991031021004501031091MA1999999096321MD1999999+0051REMSYN070AAXX  24184 83242 32497 51802 10280 20215 39632 40112 83239 333 58005;EQDQ01  00002PRCP99
0196832420999992000032500004-12570-041380FM-12+042799999V0203601N000512200019N9999999N1+02271+01921101101ADDAA199000091GA1001+999999999GF100991001001999999001001KA1240M+02891MA1999999096291MD1999999+0001REMSYN070AAXX  25004 83242 329// 03601 10227 20192 39629 40110 333 10289 58000;EQDQ01  00002PRCP99
0186832420999992000032512004-12570-041380FM-12+042799999V0201401N002110042019N0100001N1+02481+02031101331ADDAA199000091GF106991051071004501031001KA1240N+02031MA1999999096501MD1999999-0071REMSYN076AAXX  25124 83242 32497 61404 10248 20203 39650 40133 85730 333 20203 59007;EQDQ01  00002PRCP99
0167832420999992000032518004-12570-041380FM-12+042799999V0202301N001510450019N0100001N1+03001+02031100811ADDAA199000091GF106991031071004501061011MA1999999096051MD1999999-0271REMSYN070AAXX  25184 83242 32497 62303 10300 20203 39605 40081 83761 333 59027;EQDQ01  00002PRCP99
0201832420999992000032600004-12570-041380FM-12+042799999V0201401N001010042019N9999999N1+02411+02151101051ADDAA106000591AY151061AY221061GF108991081071004501999999KA1240M+03121MA1999999096241MD1999999-0051MW1511REMSYN088AAXX  26004 83242 214// 81402 10241 20215 39624 40105 75152 887// 333 10312 59005 69941;
0201832420999992000032612004-12570-041380FM-12+042799999V0201801N001510042019N0020001N1+02341+02111101241ADDAA124001091AY151061AY241061GF107991061071004501081001KA1240N+02121MA1999999096441MD1999999-0161MW1051REMSYN088AAXX  26124 83242 21495 71803 10234 20211 39644 40124 70554 86780 333 20212 59016 60014;
0167832420999992000032618004-12570-041380FM-12+042799999V0201801N002610450019N0100001N1+02911+01861100761ADDAA199000091GF105991031031004501081021MA1999999096011MD1999999-0041REMSYN070AAXX  26184 83242 32497 51805 10291 20186 39601 40076 83382 333 59004;EQDQ01  00002PRCP99
0186832420999992000032700004-12570-041380FM-12+042799999V0200201N001012200019N9999999N1+02271+01921100971ADDAA199000091GF101991001001999999001021KA1240M+03001MA1999999096161MD1999999-0081REMSYN076AAXX  27004 83242 329// 10202 10227 20192 39616 40097 80002 333 10300 59008;EQDQ01  00002PRCP99
0186832420999992000032712004-12570-041380FM-12+042799999V0201401N001010042019N0040001N1+02471+01981101161ADDAA199000091GF107991071021004501001011KA1240N+02091MA1999999096351MD1999999-0091REMSYN076AAXX  27124 83242 32496 71402 10247 20198 39635 40116 87201 333 20209 59009;EQDQ01  00002PRCP99
0167832420999992000032718004-12570-041380FM-12+042799999V0201801N001010450019N0200001N1+03001+01941100641ADDAA199000091GF107991011011004501051021MA1999999095901MD1999999-0111REMSYN070AAXX  27184 83242 32498 71802 10300 20194 39590 40064 81152 333 59011;EQDQ01  00002PRCP99
0201832420999992000032812004-12570-041380FM-12+042799999V0201401N002110450019N0040001N1+02421+01131101231ADDAA124029091AY161061AY221061GF106991041071004501071021KA1240N+02111MA1999999096441MD1999999+0091MW1051REMSYN088AAXX  28124 83242 21496 61404 10242 20113 39644 40123 70562 84772 333 20211 58009 60294;
0167832420999992000032818004-12570-041380FM-12+042799999V0201401N001510450019N0100001N1+02921+02011100701ADDAA199000091GF106991031041004501031081MA1999999095951MD1999999+0051REMSYN070AAXX  28184 83242 32497 61403 10292 20201 39595 40070 83438 333 58005;EQDQ01  00002PRCP99
0186832420999992000032900004-12570-041380FM-12+042799999V0201801N001010042019N9999999N1+02461+02031100931ADDAA199000091GF106991061071004501001001KA1240M+03031MA1999999096151MD1999999-0041REMSYN076AAXX  29004 83242 324// 61802 10246 20203 39615 40093 86700 333 10303 59004;EQDQ01  00002PRCP99
0201832420999992000032912004-12570-041380FM-12+042799999V0201401N000510450019N0100001N1+02251+01991101201ADDAA124025991AY161061AY221061GF106991041071004501031011KA1240N+01911MA1999999096391MD1999999-0051MW1031REMSYN088AAXX  29124 83242 21497 61401 10225 20199 39639 40120 70362 84731 333 20191 59005 60264;
0167832420999992000032918004-12570-041380FM-12+042799999V0201801N001010042019N0100001N1+02801+02061100791ADDAA199000091GF107991051071004501031021MA1999999096031MD1999999+0081REMSYN070AAXX  29184 83242 32497 71802 10280 20206 39603 40079 85732 333 58008;EQDQ01  00002PRCP99
0201832420999992000033000004-12570-041380FM-12+042799999V0203201N001010042019N9999999N1+02161+02111101081ADDAA106003091AY191061AY261061GF108991081071004501999999KA1240M+02901MA1999999096261MD1999999+0111MW1511REMSYN088AAXX  30004 83242 214// 83202 10216 20211 39626 40108 75196 887// 333 10290 58011 60031;
0201832420999992000033012004-12570-041380FM-12+042799999V0201801N001510042019N0040001N1+02261+02111101241ADDAA124008991AY161061AY221061GF107991061071004501031001KA1240N+02071MA1999999096401MD1999999+0011MW1101REMSYN088AAXX  30124 83242 21496 71803 10226 20211 39640 40124 71062 86730 333 20207 58001 60094;
0179832420999992000033018004-12570-041380FM-12+042799999V0202301N001510450019N0100001N1+02861+02091100931ADDAA199000091GF106991041071004501061021MA1999999096151MD1999999+0121MW1151REMSYN076AAXX  30184 83242 31497 62303 10286 20209 39615 40093 715// 84762 333 58012;EQDQ01  00002PRCP99
0186832420999992000033100004-12570-041380FM-12+042799999V0201801N003110042019N9999999N1+02341+01931101161ADDAA199000091GF108991081071004501999999KA1240M+02921MA1999999096341MD1999999+0081REMSYN076AAXX  31004 83242 324// 81806 10234 20193 39634 40116 887// 333 10292 58008;EQDQ01  00002PRCP99
0198832420999992000033112004-12570-041380FM-12+042799999V0201801N002610042019N0040001N1+02361+02051101351ADDAA199000091GF106991051071004501031001KA1240N+02071MA1999999096531MD1999999+0131MW1101REMSYN082AAXX  31124 83242 31496 61805 10236 20205 39653 40135 710// 85730 333 20207 58013;EQDQ01  00002PRCP99
0167832420999992000033118004-12570-041380FM-12+042799999V0201801N001510450019N0100001N1+02811+02021100881ADDAA199000091GF105991031071004501041001MA1999999096101MD1999999-0051REMSYN070AAXX  31184 83242 32497 51803 10281 20202 39610 40088 83740 333 59005;EQDQ01  00002PRCP99
0186832420999992000040100004-12570-041380FM-12+042799999V0201801N001510042019N9999999N1+02441+02071101141ADDAA199000091GF108991081061004501999999KA1240M+02901MA1999999096341MD1999999+0001REMSYN076AAXX  01004 83242 324// 81803 10244 20207 39634 40114 886// 333 10290 58000;EQDQ01  00002PRCP99
0186832420999992000040112004-12570-041380FM-12+042799999V0201801N001510042019N0100001N1+02471+02071101361ADDAA199000091GF107991061071004501031001KA1240N+02131MA1999999096561MD1999999+0031REMSYN076AAXX  01124 83242 32497 71803 10247 20207 39656 40136 86730 333 20213 58003;EQDQ01  00002PRCP99
0167832420999992000040118004-12570-041380FM-12+042799999V0201801N002112200019N0100001N1+02881+02001100921ADDAA199000091GF102991011031004501001011MA1999999096161MD1999999+0061REMSYN070AAXX  01184 83242 32497 21804 10288 20200 39616 40092 81301 333 58006;EQDQ01  00002PRCP99
0186832420999992000040200004-12570-041380FM-12+042799999V0201801N000510042019N9999999N1+02401+01991101171ADDAA199000091GF108991081071004501999999KA1240M+02981MA1999999096381MD1999999+0041REMSYN076AAXX  02004 83242 324// 81801 10240 20199 39638 40117 887// 333 10298 58004;EQDQ01  00002PRCP99
0201832420999992000040212004-12570-041380FM-12+042799999V0201401N001510042019N0040001N1+02471+02051101371ADDAA124000191AY151061AY221061GF107991061071004501081001KA1240N+02171MA1999999096571MD1999999+0011MW1051REMSYN088AAXX  02124 83242 21496 71403 10247 20205 39657 40137 70552 86780 333 20217 58001 69914;
0167832420999992000040218004-12570-041380FM-12+042799999V0201801N002110450019N0100001N1+02961+01991100881ADDAA199000091GF106991041071004501031091MA1999999096131MD1999999-0031REMSYN070AAXX  02184 83242 32497 61804 10296 20199 39613 40088 84739 333 59003;EQDQ01  00002PRCP99
0186832420999992000040300004-12570-041380FM-12+042799999V0201401N000510042019N9999999N1+02351+02151101281ADDAA199000091GF108991081071004501999999KA1240M+03021MA1999999096481MD1999999+0101REMSYN076AAXX  03004 83242 324// 81401 10235 20215 39648 40128 887// 333 10302 58010;EQDQ01  00002PRCP99
0201832420999992000040312004-12570-041380FM-12+042799999V0201801N002110042019N0020001N1+02341+02151101421ADDAA124000391AY181061AY251061GF108991081071004501999999KA1240N+02151MA1999999096601MD1999999+0031MW1401REMSYN088AAXX  03124 83242 21495 81804 10234 20215 39660 40142 74085 887// 333 20215 58003 69934;
0179832420999992000040318004-12570-041380FM-12+042799999V0202301N002110450019N0100001N1+02861+02161100961ADDAA199000091GF105991031071004501031091MA1999999096191MD1999999+0061MW1151REMSYN076AAXX  03184 83242 31497 52304 10286 20216 39619 40096 715// 83739 333 58006;EQDQ01  00002PRCP99
0201832420999992000040400004-12570-041380FM-12+042799999V0202701N000510042019N9999999N1+02201+02131101321ADDAA106003091AY191061AY261061GF108991081071004501999999KA1240M+02981MA1999999096491MD1999999+0011MW1031REMSYN088AAXX  04004 83242 214// 82701 10220 20213 39649 40132 70396 887// 333 10298 58001 60031;
0201832420999992000040412004-12570-041380FM-12+042799999V0201801N003110042019N0020001N1+02201+02061101541ADDAA124020191AY161061AY221061GF107991061071004501031001KA1240N+02031MA1999999096691MD1999999+0091MW1101REMSYN088AAXX  04124 83242 21495 71806 10220 20206 39669 40154 71062 86730 333 20203 58009 60204;
0182832420999992000040418004-12570-041380FM-12+042799999V0201801N002110450019N0100001N1+02601+02121101071ADDAA106000591AY151061AY211061GF106991041071004501061001MA1999999096271MD1999999+0081MW1021REMSYN082AAXX  04184 83242 21497 61804 10260 20212 39627 40107 70251 84760 333 58008 69961;
0201832420999992000040500004-12570-041380FM-12+042799999V0201801N001510042019N9999999N1+02101+02081101461ADDAA106039991AY191061AY281061GF108991081071004501999999KA1240M+02761MA1999999096601MD1999999+0111MW1611REMSYN088AAXX  05004 83242 214// 81803 10210 20208 39660 40146 76198 887// 333 10276 58011 60401;
0201832420999992000040512004-12570-041380FM-12+042799999V0201801N002610042019N0020001N1+02221+02081101541ADDAA124040991AY161061AY251061GF108991081071004501999999KA1240N+02051MA1999999096681MD1999999-0011MW1101REMSYN088AAXX  05124 83242 21495 81805 10222 20208 39668 40154 71065 887// 333 20205 59001 60414;
0182832420999992000040518004-12570-041380FM-12+042799999V0201801N001010450019N0040001N1+02561+02251101121ADDAA106002091AY161061AY221061GF106991031071004501051031MA1999999096301MD1999999+0031MW1031REMSYN082AAXX  05184 83242 21496 61802 10256 20225 39630 40112 70362 83753 333 58003 60021;
0201832420999992000040600004-12570-041380FM-12+042799999V0201801N000510042019N9999999N1+02191+02151101411ADDAA106016091AY161061AY221061GF108991081071004501999999KA1240M+02701MA1999999096561MD1999999-0041MW1031REMSYN088AAXX  06004 83242 214// 81801 10219 20215 39656 40141 70362 887// 333 10270 59004 60161;
0201832420999992000040612004-12570-041380FM-12+042799999V0201801N002610042019N0020001N1+02241+02161101481ADDAA124019191AY151061AY221061GF107991061071004501031001KA1240N+02011MA1999999096631MD1999999-0051MW1101REMSYN088AAXX  06124 83242 21495 71805 10224 20216 39663 40148 71052 86730 333 20201 59005 60194;
0182832420999992000040618004-12570-041380FM-12+042799999V0201801N001512200019N0100001N1+02721+02031101031ADDAA106003091AY161061AY221061GF104991021071004501061011MA1999999096241MD1999999-0061MW1021REMSYN082AAXX  06184 83242 21497 41803 10272 20203 39624 40103 70262 82761 333 59006 60031;
0201832420999992000040712004-12570-041380FM-12+042799999V0201801N003110042019N0020001N1+02371+02091101301ADDAA124004191AY161061AY241061GF107991071071004501001001KA1240N+02091MA1999999096481MD1999999-0151MW1151REMSYN088AAXX  07124 83242 21495 71806 10237 20209 39648 40130 71564 87700 333 20209 59015 60044;
0167832420999992000040718004-12570-041380FM-12+042799999V0201801N002112200019N0100001N1+02891+01991100821ADDAA199000091GF102991011021004501081001MA1999999096061MD1999999-0181REMSYN070AAXX  07184 83242 32497 21804 10289 20199 39606 40082 81280 333 59018;EQDQ01  00002PRCP99
0201832420999992000040800004-12570-041380FM-12+042799999V0201801N000510042019N9999999N1+02281+02141101171ADDAA106002091AY191061AY261061GF108991081071004501999999KA1240M+03001MA1999999096361MD1999999-0031MW1021REMSYN088AAXX  08004 83242 214// 81801 10228 20214 39636 40117 70296 887// 333 10300 59003 60021;
0201832420999992000040812004-12570-041380FM-12+042799999V0200901N002110042019N0020001N1+02281+02091101371ADDAA124017091AY161061AY221061GF107991051031004501051011KA1240N+02031MA1999999096541MD1999999+0061MW1101REMSYN088AAXX  08124 83242 21495 70904 10228 20209 39654 40137 71062 85351 333 20203 58006 60174;
0167832420999992000040818004-12570-041380FM-12+042799999V0201801N001010450019N0100001N1+02781+01981100971ADDAA199000091GF107991021031004501051021MA1999999096181MD1999999+0121REMSYN070AAXX  08184 83242 32497 71802 10278 20198 39618 40097 82352 333 58012;EQDQ01  00002PRCP99
0186832420999992000040900004-12570-041380FM-12+042799999V0201801N000510042019N9999999N1+02241+02051101201ADDAA199000091GF108991081071004501999999KA1240M+02851MA1999999096371MD1999999+0011REMSYN076AAXX  09004 83242 324// 81801 10224 20205 39637 40120 887// 333 10285 58001;EQDQ01  00002PRCP99
0201832420999992000040912004-12570-041380FM-12+042799999V0201801N001010042019N0040001N1+02281+02141101201ADDAA124000191AY101061AY221061GF107991061061004501071001KA1240N+02031MA1999999096371MD1999999-0171MW1151REMSYN088AAXX  09124 83242 21496 71802 10228 20214 39637 40120 71502 86670 333 20203 59017 69914;
0167832420999992000040918004-12570-041380FM-12+042799999V0201801N001510042019N0100001N1+02821+02101100891ADDAA199000091GF106991051071004501031001MA1999999096111MD1999999-0071REMSYN070AAXX  09184 83242 32497 61803 10282 20210 39611 40089 85730 333 59007;EQDQ01  00002PRCP99
0186832420999992000041000004-12570-041380FM-12+042799999V0201801N000512200019N9999999N1+02281+02111101101ADDAA199000091GF102991021001008001031001KA1240M+02901MA1999999096251MD1999999-0121REMSYN076AAXX  10004 83242 325// 21801 10228 20211 39625 40110 82030 333 10290 59012;EQDQ01  00002PRCP99
0201832420999992000041012004-12570-041380FM-12+042799999V0201801N001510042019N0020001N1+02321+02051101251ADDAA124000191AY151061AY211061GF107991061071004501061001KA1240N+02071MA1999999096431MD1999999+0061MW1101REMSYN088AAXX  10124 83242 21495 71803 10232 20205 39643 40125 71051 86760 333 20207 58006 69914;
0167832420999992000041018004-12570-041380FM-12+042799999V0201801N001010450019N0100001N1+02581+02101100951ADDAA199000091GF107991041061004501071001MA1999999096161MD1999999+0051REMSYN070AAXX  10184 83242 32497 71802 10258 20210 39616 40095 84670 333 58005;EQDQ01  00002PRCP99
0186832420999992000041100004-12570-041380FM-12+042799999V0209999C000010042019N9999999N1+02181+02101101141ADDAA199000091GF108991081071004501999999KA1240M+02661MA1999999096311MD1999999+0061REMSYN076AAXX  11004 83242 324// 80000 10218 20210 39631 40114 887// 333 10266 58006;EQDQ01  00002PRCP99
0186832420999992000041112004-12570-041380FM-12+042799999V0201801N001010450019N0100001N1+02401+02091101271ADDAA199000091GF106991041071004501061011KA1240N+02091MA1999999096461MD1999999+0031REMSYN076AAXX  11124 83242 32497 61802 10240 20209 39646 40127 84761 333 20209 58003;EQDQ01  00002PRCP99
0167832420999992000041118004-12570-041380FM-12+042799999V0201801N001510450019N0100001N1+02781+02301100911ADDAA199000091GF106991041041004501061021MA1999999096131MD1999999-0031REMSYN070AAXX  11184 83242 32497 61803 10278 20230 39613 40091 84462 333 59003;EQDQ01  00002PRCP99
0186832420999992000041200004-12570-041380FM-12+042799999V0201801N001012200019N9999999N1+02261+01991100941ADDAA199000091GF103991021051004501061001KA1240M+02861MA1999999096141MD1999999-0171REMSYN076AAXX  12004 83242 324// 31802 10226 20199 39614 40094 82560 333 10286 59017;EQDQ01  00002PRCP99
0186832420999992000041212004-12570-041380FM-12+042799999V0201801N001510450019N0100001N1+02371+02071101201ADDAA199000091GF106991041071004501031001KA1240N+02051MA1999999096441MD1999999-0061REMSYN076AAXX  12124 83242 32497 61803 10237 20207 39644 40120 84730 333 20205 59006;EQDQ01  00002PRCP99
0167832420999992000041218004-12570-041380FM-12+042799999V0202301N000510450019N0100001N1+02921+01921100771ADDAA199000091GF106991031021004501021011MA1999999096011MD1999999-0121REMSYN070AAXX  12184 83242 32497 62301 10292 20192 39601 40077 83221 333 59012;EQDQ01  00002PRCP99
0186832420999992000041300004-12570-041380FM-12+042799999V0201801N000510042019N9999999N1+02301+01961100951ADDAA199000091GF107991071061004501001001KA1240M+02981MA1999999096151MD1999999+0011REMSYN076AAXX  13004 83242 324// 71801 10230 20196 39615 40095 87600 333 10298 58001;EQDQ01  00002PRCP99
0186832420999992000041312004-12570-041380FM-12+042799999V0201801N001510042019N0040001N1+02471+01941101271ADDAA199000091GF107991061031004501031001KA1240N+02141MA1999999096471MD1999999+0071REMSYN076AAXX  13124 83242 32496 71803 10247 20194 39647 40127 86330 333 20214 58007;EQDQ01  00002PRCP99
0167832420999992000041318004-12570-041380FM-12+042799999V0201801N001512200019N0100001N1+02961+02101100851ADDAA199000091GF102991011071004501081031MA1999999096011MD1999999+0001REMSYN070AAXX  13184 83242 32497 21803 10296 20210 39601 40085 81783 333 58000;EQDQ01  00002PRCP99
0186832420999992000041400004-12570-041380FM-12+042799999V0203601N001010042019N9999999N1+02481+02151101111ADDAA199000091GF108991081071004501999999KA1240M+03001MA1999999096331MD1999999+0181REMSYN076AAXX  14004 83242 324// 83602 10248 20215 39633 40111 887// 333 10300 58018;EQDQ01  00002PRCP99
0167832420999992000041418004-12570-041380FM-12+042799999V0201801N002110042019N0100001N1+02801+01951100911ADDAA199000091GF107991051071004501031011MA1999999096151MD1999999+0141REMSYN070AAXX  14184 83242 32497 71804 10280 20195 39615 40091 85731 333 58014;EQDQ01  00002PRCP99
0186832420999992000041500004-12570-041380FM-12+042799999V0200901N000510042019N9999999N1+02441+02071101221ADDAA199000091GF108991081071004501999999KA1240M+02901MA1999999096431MD1999999+0101REMSYN076AAXX  15004 83242 324// 80901 10244 20207 39643 40122 887// 333 10290 58010;EQDQ01  00002PRCP99
0186832420999992000041512004-12570-041380FM-12+042799999V0200901N000510450019N0100001N1+02441+02011101391ADDAA199000091GF106991041071004501031001KA1240N+02111MA1999999096591MD1999999+0091REMSYN076AAXX  15124 83242 32497 60901 10244 20201 39659 40139 84730 333 20211 58009;EQDQ01  00002PRCP99
0167832420999992000041518004-12570-041380FM-12+042799999V0201801N001512200019N0100001N1+02981+02371100871ADDAA199000091GF104991011021004501061051MA1999999096121MD1999999-0031REMSYN070AAXX  15184 83242 32497 41803 10298 20237 39612 40087 81265 333 59003;EQDQ01  00002PRCP99
0186832420999992000041600004-12570-041380FM-12+042799999V0203601N000510450019N9999999N1+02401+01991101291ADDAA199000091GF107991031071004501051021KA1240M+03061MA1999999096491MD1999999+0061REMSYN076AAXX  16004 83242 324// 73601 10240 20199 39649 40129 83752 333 10306 58006;EQDQ01  00002PRCP99
0201832420999992000041612004-12570-041380FM-12+042799999V0203601N001510042019N0040001N1+02321+02131101381ADDAA124000191AY151061AY221061GF108991081061004501999999KA1240N+02031MA1999999096561MD1999999-0031MW1101REMSYN088AAXX  16124 83242 21496 83603 10232 20213 39656 40138 71052 886// 333 20203 59003 69924;
0167832420999992000041618004-12570-041380FM-12+042799999V0201801N001512200019N0100001N1+02981+02041100801ADDAA199000091GF103991011021004501031051MA1999999096071MD1999999-0051REMSYN070AAXX  16184 83242 32497 31803 10298 20204 39607 40080 81235 333 59005;EQDQ01  00002PRCP99
0186832420999992000041700004-12570-041380FM-12+042799999V0201801N000510450019N9999999N1+02341+02011100981ADDAA199000091GF106991041051004501031001KA1240M+03041MA1999999096181MD1999999-0311REMSYN076AAXX  17004 83242 324// 61801 10234 20201 39618 40098 84530 333 10304 59031;EQDQ01  00002PRCP99
0201832420999992000041712004-12570-041380FM-12+042799999V0202701N000510042019N0020001N1+02331+02091101311ADDAA124000191AY151061AY221061GF108991081071004501999999KA1240N+02171MA1999999096501MD1999999-0061MW1401REMSYN088AAXX  17124 83242 21495 82701 10233 20209 39650 40131 74052 887// 333 20217 59006 69914;
0179832420999992000041718004-12570-041380FM-12+042799999V0201801N001012200019N0040001N1+02811+02021100791ADDAA199000091GF104991021021004501031011MA1999999096041MD1999999-0031MW1051REMSYN076AAXX  17184 83242 31496 41802 10281 20202 39604 40079 705// 82231 333 59003;EQDQ01  00002PRCP99
0186832420999992000041800004-12570-041380FM-12+042799999V0203601N001010042019N9999999N1+02331+02001101061ADDAA199000091GF107991071071004501001001KA1240M+02921MA1999999096261MD1999999+0081REMSYN076AAXX  18004 83242 324// 73602 10233 20200 39626 40106 87700 333 10292 58008;EQDQ01  00002PRCP99
0201832420999992000041812004-12570-041380FM-12+042799999V0201801N001510042019N0100001N1+02381+02011101341ADDAA124000791AY151061AY241061GF107991051031004501061001KA1240N+02131MA1999999096521MD1999999+0021MW1031REMSYN088AAXX  18124 83242 21497 71803 10238 20201 39652 40134 70354 85360 333 20213 58002 69904;
0167832420999992000041818004-12570-041380FM-12+042799999V0201801N001012200019N0100001N1+02841+02011100841ADDAA199000091GF104991031021004501031001MA1999999096091MD1999999+0051REMSYN070AAXX  18184 83242 32497 41802 10284 20201 39609 40084 83230 333 58005;EQDQ01  00002PRCP99
0186832420999992000041900004-12570-041380FM-12+042799999V0203601N000512200019N9999999N1+02281+02001101061ADDAA199000091GF103991031001012501031001KA1240M+02931MA1999999096251MD1999999-0011REMSYN076AAXX  19004 83242 326// 33601 10228 20200 39625 40106 83030 333 10293 59001;EQDQ01  00002PRCP99
0186832420999992000041912004-12570-041380FM-12+042799999V0201801N001010042019N0100001N1+02401+02051101381ADDAA199000091GF108991051071004501071001KA1240N+02171MA1999999096561MD1999999-0041REMSYN076AAXX  19124 83242 32497 81802 10240 20205 39656 40138 85770 333 20217 59004;EQDQ01  00002PRCP99
0167832420999992000041918004-12570-041380FM-12+042799999V0201801N001512200019N0100001N1+02941+02161100991ADDAA199000091GF103991021021004501011001MA1999999096241MD1999999+0151REMSYN070AAXX  19184 83242 32497 31803 10294 20216 39624 40099 82210 333 58015;EQDQ01  00002PRCP99
0196832420999992000042000004-12570-041380FM-12+042799999V0203601N000512200019N9999999N1+02341+02011101111ADDAA199000091GA1001+999999999GF100991001001999999001001KA1240M+03001MA1999999096301MD1999999+0051REMSYN070AAXX  20004 83242 329// 03601 10234 20201 39630 40111 333 10300 58005;EQDQ01  00002PRCP99
0201832420999992000042012004-12570-041380FM-12+042799999V0201801N001510042019N0020001N1+02441+02191101271ADDAA124000791AY151061AY211061GF108991081061004501999999KA1240N+02091MA1999999096471MD1999999-0091MW1101REMSYN088AAXX  20124 83242 21495 81803 10244 20219 39647 40127 71051 886// 333 20209 59009 69904;
0167832420999992000042018004-12570-041380FM-12+042799999V0201801N001510450019N0100001N1+03061+02141100691ADDAA199000091GF108991021031004501051071MA1999999095951MD1999999-0291REMSYN070AAXX  20184 83242 32497 81803 10306 20214 39595 40069 82357 333 59029;EQDQ01  00002PRCP99
0186832420999992000042112004-12570-041380FM-12+042799999V0200901N001510042019N0040001N1+02601+02191101041ADDAA199000091GF107991061071004501081001KA1240N+02331MA1999999096281MD1999999-0191REMSYN076AAXX  21124 83242 32496 70903 10260 20219 39628 40104 86780 333 20233 59019;EQDQ01  00002PRCP99
0167832420999992000042118004-12570-041380FM-12+042799999V0201401N002110450019N0100001N1+03221+02031100411ADDAA199000091GF108991011031004501081071MA1999999095721MD1999999-0231REMSYN070AAXX  21184 83242 32497 81404 10322 20203 39572 40041 81387 333 59023;EQDQ01  00002PRCP99
0198832420999992000042200004-12570-041380FM-12+042799999V0202701N000510450019N9999999N1+02661+02071100731ADDAA199000091GF106991041071004501081011KA1240M+03291MA1999999096001MD1999999-0151MW1131REMSYN082AAXX  22004 83242 314// 62701 10266 20207 39600 40073 713// 84781 333 10329 59015;EQDQ01  00002PRCP99
0167832420999992000042218004-12570-041380FM-12+042799999V0201801N002611050019N0100001N1+03061+02381100501ADDAA199000091GF107991031071004501001031MA1999999095791MD1999999+0071REMSYN070AAXX  22184 83242 32497 71805 10306 20238 39579 40050 83703 333 58007;EQDQ01  00002PRCP99
0201832420999992000042300004-12570-041380FM-12+042799999V0203601N001010042019N9999999N1+02461+02251100901ADDAA106000891AY191061AY251061GF107991071071004501001001KA1240M+03141MA1999999096131MD1999999+0131MW1131REMSYN088AAXX  23004 83242 214// 73602 10246 20225 39613 40090 71395 87700 333 10314 58013 69971;
0201832420999992000042312004-12570-041380FM-12+042799999V0203601N001510042019N0020001N1+02361+02221101231ADDAA124009991AY161061AY241061GF107991051071004501031031KA1240N+02131MA1999999096431MD1999999+0181MW1101REMSYN088AAXX  23124 83242 21495 73603 10236 20222 39643 40123 71064 85733 333 20213 58018 60104;
0167832420999992000042318004-12570-041380FM-12+042799999V0201801N001010042019N0100001N1+02851+02231100831ADDAA199000091GF107991051071004501031021MA1999999096081MD1999999+0291REMSYN070AAXX  23184 83242 32497 71802 10285 20223 39608 40083 85732 333 58029;EQDQ01  00002PRCP99
0201832420999992000042400004-12570-041380FM-12+042799999V0203601N001010042019N9999999N1+02461+02251100901ADDAA106000891AY191061AY251061GF107991071071004501001001KA1240M+03141MA1999999096131MD1999999+0131MW1131REMSYN088AAXX  24004 83242 214// 73602 10246 20225 39613 40090 71395 87700 333 10314 58013 69971;
0167832420999992000042418004-12570-041380FM-12+042799999V0201801N001510450019N0100001N1+02741+02071100971ADDAA199000091GF107991021071004501051021MA1999999096191MD1999999+0111REMSYN070AAXX  24184 83242 32497 71803 10274 20207 39619 40097 82752 333 58011;EQDQ01  00002PRCP99
0201832420999992000042500004-12570-041380FM-12+042799999V0203601N000510042019N9999999N1+02311+02161101231ADDAA106001091AY161061AY221061GF108991081071004501999999KA1240M+02821MA1999999096411MD1999999-0101MW1021REMSYN088AAXX  25004 83242 214// 83601 10231 20216 39641 40123 70262 887// 333 10282 59010 60011;
0201832420999992000042512004-12570-041380FM-12+042799999V0201801N001510042019N0040001N1+02291+02011101401ADDAA124004191AY161061AY221061GF106991051071004501041001KA1240N+02071MA1999999096561MD1999999+0071MW1401REMSYN088AAXX  25124 83242 21496 61803 10229 20201 39656 40140 74062 85740 333 20207 58007 60044;
0168832420999992000042518004-12570-041380FM-12+042799999V0201801N001512200019N0100001N1+02801+02061100951ADDAA199000091GF104991021021004501021011MD1999999-0021REMSYN070AAXX  25184 83242 32497 41803 10280 20206 39160 40095 82221 333 59002;EQDQ01+091603APOSP Q02  00002PRCP99
0196832420999992000042600004-12570-041380FM-12+042799999V0200501N002112200019N9999999N1+02101+01861101261ADDAA199000091GA1001+999999999GF100991001001999999001001KA1240M+02861MA1999999096421MD1999999+0011REMSYN070AAXX  26004 83242 329// 00504 10210 20186 39642 40126 333 10286 58001;EQDQ01  00002PRCP99
0125832420999992000042612004-12570-041380FM-12+042799999V0201801N001519999999N0100001N1+02251+99999999999ADDGF105991999999004501999999REMSYN087AAXX  26124 83242 21497 51803 10225 2090 39669 40154 70254 83542 333 20195 58013 69934;
0167832420999992000042618004-12570-041380FM-12+042799999V0201401N001512200019N0100001N1+02781+01761101171ADDAA199000091GF104991031041004501031001MA1999999096371MD1999999+0201REMSYN070AAXX  26184 83242 32497 41403 10278 20176 39637 40117 83430 333 58020;EQDQ01  00002PRCP99
0186832420999992000042700004-12570-041380FM-12+042799999V0201801N000510042019N9999999N1+02141+01881101391ADDAA199000091GF106991061051004501001001KA1240M+02341MA1999999096541MD1999999-0121REMSYN076AAXX  27004 83242 324// 61801 10214 20188 39654 40139 86500 333 10234 59012;EQDQ01  00002PRCP99
0186832420999992000042712004-12570-041380FM-12+042799999V0201801N002110042019N0100001N1+02241+01901101581ADDAA199000091GF106991051071004501061001KA1240N+02031MA1999999096721MD1999999-0031REMSYN076AAXX  27124 83242 32497 61804 10224 20190 39672 40158 85760 333 20203 59003;EQDQ01  00002PRCP99
0167832420999992000042718004-12570-041380FM-12+042799999V0201401N001512200019N0100001N1+02821+01911101091ADDAA199000091GF103991021021004501041001MA1999999096301MD1999999-0071REMSYN070AAXX  27184 83242 32497 31403 10282 20191 39630 40109 82240 333 59007;EQDQ01  00002PRCP99
0186832420999992000042800004-12570-041380FM-12+042799999V0209999C000012200019N9999999N1+02171+01841101391ADDAA199000091GF102991021031004501001001KA1240M+02901MA1999999096541MD1999999+0001REMSYN076AAXX  28004 83242 324// 20000 10217 20184 39654 40139 82300 333 10290 58000;EQDQ01  00002PRCP99
0198832420999992000042812004-12570-041380FM-12+042799999V0201401N001510042019N0040001N1+02201+01991101651ADDAA199000091GF108991081071004501999999KA1240N+02041MA1999999096791MD1999999+0071MW1161REMSYN082AAXX  28124 83242 31496 81403 10220 20199 39679 40165 716// 887// 333 20204 58007;EQDQ01  00002PRCP99
0179832420999992000042818004-12570-041380FM-12+042799999V0201801N001010450019N0100001N1+02681+01991101171ADDAA199000091GF106991041071004501061011MA1999999096371MD1999999+0071MW1151REMSYN076AAXX  28184 83242 31497 61802 10268 20199 39637 40117 715// 84761 333 58007;EQDQ01  00002PRCP99
0201832420999992000042900004-12570-041380FM-12+042799999V0203601N000510042019N9999999N1+02261+02181101441ADDAA106003091AY161061AY211061GF108991081071004501999999KA1240M+02861MA1999999096601MD1999999+0061MW1501REMSYN088AAXX  29004 83242 214// 83601 10226 20218 39660 40144 75061 887// 333 10286 58006 60031;
0201832420999992000042912004-12570-041380FM-12+042799999V0203601N001010042019N0020001N1+02201+02121101621ADDAA124021191AY161061AY221061GF108991081071004501999999KA1240N+01931MA1999999096771MD1999999-0021MW1101REMSYN088AAXX  29124 83242 21495 83602 10220 20212 39677 40162 71062 887// 333 20193 59002 60214;
0182832420999992000042918004-12570-041380FM-12+042799999V0201801N001010042019N0100001N1+02641+02421101341ADDAA106000791AY151061AY221061GF106991051071004501031001MA1999999096511MD1999999+0141MW1101REMSYN082AAXX  29184 83242 31497 61802 10264 20242 39651 40134 71052 85730 333 58014 69901;
0198832420999992000043000004-12570-041380FM-12+042799999V0200901N000512200019N9999999N1+02181+02041101411ADDAA199000091GF104991041071004501001001KA1240M+02771MA1999999096561MD1999999-0041MW1101REMSYN082AAXX  30004 83242 314// 40901 10218 20204 39656 40141 710// 84700 333 10277 59004;EQDQ01  00002PRCP99
0201832420999992000043012004-12570-041380FM-12+042799999V0201801N001510450019N0040001N1+02281+02131101561ADDAA124023991AY181061AY261061GF106991041071004501031021KA1240N+02071MA1999999096711MD1999999-0061MW1101REMSYN088AAXX  30124 83242 21496 61803 10228 20213 39671 40156 71086 84732 333 20207 59006 60244;
0167832420999992000043018004-12570-041380FM-12+042799999V0201801N001512200019N0100001N1+02701+02061101081ADDAA199000091GF104991021021004501031011MA1999999096291MD1999999-0221REMSYN070AAXX  30184 83242 32497 41803 10270 20206 39629 40108 82231 333 59022;EQDQ01  00002PRCP99
