0186832880999992000010100004-13270-043420FM-12+0458SBLP V0203601N000510450019N9999999N1+02321+02201101001ADDAA106000091GF108991041051008001021999KA1240M+02621MA1999999095871MD1999999-0101REMSYN076AAXX  01004 83288 325// 83601 10232 20220 39587 40100 8452/ 333 10262 59010;EQDQ01  00002PRCP06
0121832880999992000010109004-13270-043420FM-15+0458SBLP V0209999C000012200019N0080001N1+99999+99999999999ADDGA1021+003009999GF104991999999999999999999MW1001MW2611REMMET055SBLP 010900Z 00000KT 8000 -RA SCT010 KN100 21/21 Q1010;
0166832880999992000010110004-13270-043420FM-15+0458SBLP V0209999C000010300019N0080001N1+02101+02101999999ADDGA1021+003009999GA2081+030009999GF108991999999999999999999MA1101021999999MW1611REMMET056SBLP 011000Z 00000KT 8000 -RA SCT010 OVC100 21/21 Q1010;EQDQ01    003PRSWM1
0143832880999992000010111004-13270-043420FM-15+0458SBLP V0209999C000010300019N0112651N1+02201+02101999999ADDGA1021+003009999GA2081+030009999GF108991999999999999999999MA1101081999999MW1001REMMET052SBLP 011100Z 00000KT 9999 SCT010 OVC100 22/21 Q1011;
0310832880999992000010112004-13270-043420SY-MT+0458SBLP V0203601N00151030001CN0200001N1+02181+02061101231ADDAA124033091AY161061AY261061GA1021+003009999GA2071+030009999GF108991031061008001021999KA1240N+02021MA1101081096101MD1999999-0041MW1031REMSYN088AAXX  01124 83288 21598 83603 10218 20206 39610 40123 70366 8362/ 333 20202 59004 60334;MET052SBLP 011200Z 00000KT 9999 SCT010 BKN100 22/21 Q1011;EQDQ01    003PRSWM1
0143832880999992000010113004-13270-043420FM-15+0458SBLP V0209999C000010300019N0112651N1+02301+02201999999ADDGA1021+003009999GA2071+030009999GF107991999999999999999999MA1101081999999MW1001REMMET052SBLP 011300Z 00000KT 9999 SCT010 BKN100 23/22 Q1011;
0143832880999992000010114004-13270-043420FM-15+0458SBLP V0209999C000010300019N0112651N1+02501+02201999999ADDGA1021+004509999GA2071+030009999GF107991999999999999999999MA1101081999999MW1001REMMET052SBLP 011400Z 00000KT 9999 SCT015 BKN100 25/22 Q1011;
0143832880999992000010115004-13270-043420FM-15+0458SBLP V0209999C000010300019N0112651N1+02701+02201999999ADDGA1021+006009999GA2071+030009999GF107991999999999999999999MA1101021999999MW1001REMMET052SBLP 011500Z 00000KT 9999 SCT020 BKN100 27/22 Q1010;
0143832880999992000010116004-13270-043420FM-15+0458SBLP V0203301N003110300019N0112651N1+02801+02201999999ADDGA1021+009009999GA2071+030009999GF107991999999999999999999MA1100911999999MW1001REMMET052SBLP 011600Z 33006KT 9999 SCT030 BKN100 28/22 Q1009;
0143832880999992000010117004-13270-043420FM-15+0458SBLP V0203001N003110300019N0112651N1+02901+02301999999ADDGA1021+009009999GA2071+030009999GF107991999999999999999999MA1100811999999MW1001REMMET052SBLP 011700Z 30006KT 9999 SCT030 BKN100 29/23 Q1008;
0310832880999992000010118004-13270-043420SY-MT+0458SBLP V0203601N00151060001CN0200001N1+02821+02241100701ADDAA106000091GA1021+009009999GA2021+012009029GA3071+060009999GF199999031091008001031021MA1100711095631MD1999999-0221MW1161REMSYN070AAXX  01184 83288 32598 63603 10282 20224 39563 40070 83932 333 59022;MET067SBLP 011800Z 06010KT 8000 VCSH SCT030 FEW040TCU BKN200 30/23 Q1007;EQDQ01  00002PRCP06Q02    003PRSWM1
0166832880999992000010119004-13270-043420FM-15+0458SBLP V0203001N003110060019N0060001N1+02301+02201999999ADDGA1071+006009999GA2081+030009999GF108991999999999999999999MA1100711999999MW1611REMMET056SBLP 011900Z 30006KT 6000 -RA BKN020 OVC100 23/22 Q1007;EQDQ01    003PRSWM1
0166832880999992000010120004-13270-043420FM-15+0458SBLP V0203001N003110060019N0060001N1+02301+02201999999ADDGA1071+006009999GA2071+030009999GF107991999999999999999999MA1100711999999MW1611REMMET056SBLP 012000Z 30006KT 6000 -RA BKN020 BKN100 23/22 Q1007;EQDQ01    003PRSWM1
0143832880999992000010121004-13270-043420FM-15+0458SBLP V0200801N002110300019N0112651N1+02401+02301999999ADDGA1021+006009999GA2071+030009999GF107991999999999999999999MA1100711999999MW1001REMMET052SBLP 012100Z 08004KT 9999 SCT020 BKN100 24/23 Q1007;
0183832880999992000010200004-13270-043420FM-12+0458SBLP V0201401N000512200019N9999999N1+02231+02121100941ADDAA106002091GA1001+999999999GF100991001001999999001001KA1240M+02861MA1999999095821MD1999999-0051REMSYN076AAXX  02004 83288 219// 01401 10223 20212 39582 40094 333 10286 59005 60021;
0091832880999992000010209004-13270-043420FM-15+0458SBLP V0209999C00001220001CN0099001N1+02201+02101999999ADDMA1100811999999MW1001REMMET039SBLP 020900Z 00000KT CAVOK 22/21 Q1008;EQDQ01+000000PRSWM2
0091832880999992000010210004-13270-043420FM-15+0458SBLP V0209999C00001220001CN0099001N1+02201+02101999999ADDMA1100911999999MW1001REMMET039SBLP 021000Z 00000KT CAVOK 22/21 Q1009;EQDQ01+000000PRSWM2
0091832880999992000010211004-13270-043420FM-15+0458SBLP V0209999C00001220001CN0099001N1+02401+02101999999ADDMA1100911999999MW1001REMMET039SBLP 021100Z 00000KT CAVOK 24/21 Q1009;EQDQ01+000000PRSWM2
0243832880999992000010212004-13270-043420SY-MT+0458SBLP V0209999C000019999999N0500001N1+02371+01971100941ADDAA124002091GF108991001001999999001071KA1240N+02191MA1101021095831MD1999999+0011MW1001REMSYN082AAXX  02124 83288 22999 80000 10237 20197 39583 40094 80007 333 20219 58001 60024;MET039SBLP 021200Z 00000KT CAVOK 24/21 Q1010;EQDQ01+000000PRSWM2
0162832880999992000010213004-13270-043420FM-15+0458SBLP V0209999C000010300019N0112651N1+02601+02101999999ADDGA1021+009009999GA2071+030009999GF107991999999999999999999MA1101021999999MW1001REMMET052SBLP 021300Z 00000KT 9999 FEW030 BKN100 26/21 Q1010;EQDQ01+000000PRSWM2
0162832880999992000010214004-13270-043420FM-15+0458SBLP V0209999C000010300019N0112651N1+02801+02101999999ADDGA1021+009009999GA2071+030009999GF107991999999999999999999MA1101021999999MW1001REMMET052SBLP 021400Z 00000KT 9999 FEW030 BKN100 28/21 Q1010;EQDQ01+000000PRSWM2
0162832880999992000010215004-13270-043420FM-15+0458SBLP V0209999C000010300019N0112651N1+02901+02101999999ADDGA1021+009009999GA2071+030009999GF107991999999999999999999MA1100911999999MW1001REMMET052SBLP 021500Z 00000KT 9999 FEW030 BKN100 29/21 Q1009;EQDQ01+000000PRSWM2
0162832880999992000010216004-13270-043420FM-15+0458SBLP V0209999C000010300019N0112651N1+03101+02101999999ADDGA1021+006009999GA2071+030009999GF107991999999999999999999MA1100811999999MW1001REMMET052SBLP 021600Z 00000KT 9999 SCT020 BKN100 31/21 Q1008;EQDQ01+000000PRSWM2
0162832880999992000010217004-13270-043420FM-15+0458SBLP V0209999C000010300019N0112651N1+03101+02101999999ADDGA1021+009009999GA2071+030009999GF107991999999999999999999MA1100711999999MW1001REMMET052SBLP 021700Z 00000KT 9999 SCT030 BKN100 31/21 Q1007;EQDQ01+000000PRSWM2
0295832880999992000010218004-13270-043420SY-MT+0458SBLP V0203601N00211030001CN0200001N1+02961+02101100591ADDAA106000091GA1021+009009999GA2071+030009999GF199999021021008001001031MA1100611095531MD1999999-0101MW1001REMSYN070AAXX  02184 83288 32598 53604 10296 20210 39553 40059 82203 333 59010;MET052SBLP 021800Z 00000KT 9999 SCT030 BKN100 31/21 Q1006;EQDQ01+000052SCOTCVQ02+000000PRSWM2Q03  00002PRCP06
0162832880999992000010219004-13270-043420FM-15+0458SBLP V0209999C000010300019N0112651N1+03101+02101999999ADDGA1021+009009999GA2071+030009999GF107991999999999999999999MA1100511999999MW1001REMMET052SBLP 021900Z 00000KT 9999 SCT030 BKN100 31/21 Q1005;EQDQ01+000000PRSWM2
0162832880999992000010220004-13270-043420FM-15+0458SBLP V0209999C000010300019N0112651N1+02901+02201999999ADDGA1021+009009999GA2071+030009999GF107991999999999999999999MA1100611999999MW1001REMMET052SBLP 022000Z 00000KT 9999 SCT030 BKN100 29/22 Q1006;EQDQ01+000000PRSWM2
0182832880999992000010221004-13270-043420FM-15+0458SBLP V0209999C000010300019N0080001N1+02501+02301999999ADDGA1021+009009999GA2071+030009999GF107991999999999999999999MA1100811999999MW1611REMMET056SBLP 022100Z 00000KT 8000 -RA SCT030 BKN100 25/23 Q1008;EQDQ01+000003PRSWM1Q02    003PRSWM1
0214832880999992000010300004-13270-043420FM-12+0458SBLP V0209999C000019999999N9999999N1+02151+01911101121ADDAA106037191AY191061AY291061GF108991001001999999001071KA1240M+03001MA1999999095901MD1999999+0081REMSYN088AAXX  03004 83288 219// 80000 10215 20191 39590 40112 75699 80007 333 10300 58008 60371;EQDQ01+000562PRSWM1
0162832880999992000010309004-13270-043420FM-15+0458SBLP V0209999C000010300019N0112651N1+02101+02001999999ADDGA1021+006009999GA2071+030009999GF107991999999999999999999MA1100911999999MW1001REMMET052SBLP 030900Z 00000KT 9999 FEW020 BKN100 21/20 Q1009;EQDQ01+000000PRSWM2
0162832880999992000010310004-13270-043420FM-15+0458SBLP V0209999C000010300019N0112651N1+02101+02101999999ADDGA1021+006009999GA2071+030009999GF107991999999999999999999MA1100911999999MW1001REMMET052SBLP 031000Z 00000KT 9999 FEW020 BKN100 21/21 Q1009;EQDQ01+000000PRSWM2
0162832880999992000010311004-13270-043420FM-15+0458SBLP V0209999C000010300019N0112651N1+02301+02101999999ADDGA1021+006009999GA2071+030009999GF107991999999999999999999MA1101021999999MW1001REMMET052SBLP 031100Z 00000KT 9999 FEW020 BKN100 23/21 Q1010;EQDQ01+000000PRSWM2
0326832880999992000010312004-13270-043420SY-MT+0458SBLP V0203601N000510300019N0200001N1+02401+02091100951ADDAA124039991AY161061AY251061GA1021+006009999GA2071+030009999GF108991041051008001021999KA1240N+02241MA1101021095831MD1999999+0001MW1031REMSYN088AAXX  03124 83288 21598 83601 10240 20209 39583 40095 70365 8452/ 333 20224 58000 60404;MET052SBLP 031200Z 00000KT 9999 FEW020 BKN100 25/22 Q1010;EQDQ01+000000PRSWM2Q02    003PRSWM1
0162832880999992000010313004-13270-043420FM-15+0458SBLP V0209999C000010300019N0112651N1+02701+02201999999ADDGA1021+006009999GA2071+030009999GF107991999999999999999999MA1101021999999MW1001REMMET052SBLP 031300Z 00000KT 9999 SCT020 BKN100 27/22 Q1010;EQDQ01+000000PRSWM2
0162832880999992000010314004-13270-043420FM-15+0458SBLP V0209999C000010300019N0112651N1+02901+02101999999ADDGA1021+006009999GA2071+030009999GF107991999999999999999999MA1101021999999MW1001REMMET052SBLP 031400Z 00000KT 9999 FEW020 BKN100 29/21 Q1010;EQDQ01+000000PRSWM2
0162832880999992000010315004-13270-043420FM-15+0458SBLP V0209999C000010300019N0112651N1+02901+02201999999ADDGA1021+006009999GA2071+030009999GF107991999999999999999999MA1100911999999MW1001REMMET052SBLP 031500Z 00000KT 9999 SCT020 BKN100 29/22 Q1009;EQDQ01+000000PRSWM2
0162832880999992000010316004-13270-043420FM-15+0458SBLP V0200201N003110300019N0112651N1+03001+02101999999ADDGA1021+006009999GA2071+030009999GF107991999999999999999999MA1100911999999MW1001REMMET052SBLP 031600Z 02006KT 9999 SCT020 BKN100 30/21 Q1009;EQDQ01+000000PRSWM2
0162832880999992000010317004-13270-043420FM-15+0458SBLP V0209999C000010300019N0112651N1+03101+02101999999ADDGA1021+009009999GA2071+030009999GF107991999999999999999999MA1100711999999MW1001REMMET052SBLP 031700Z 00000KT 9999 SCT030 BKN100 31/21 Q1007;EQDQ01+000000PRSWM2
0295832880999992000010318004-13270-043420SY-MT+0458SBLP V0203601N00051030001CN0200001N1+02901+02041100771ADDAA106000091GA1021+009009999GA2071+030009999GF199999031021008001021001MA1100711095691MD1999999+0151MW1001REMSYN070AAXX  03184 83288 32598 63601 10290 20204 39569 40077 83220 333 58015;MET052SBLP 031800Z 00000KT 9999 SCT030 BKN100 31/21 Q1007;EQDQ01+000062SCOTCVQ02+000000PRSWM2Q03  00002PRCP06
0162832880999992000010320004-13270-043420FM-15+0458SBLP V0209999C000012200019N0112651N1+03101+02101999999ADDGA1021+009009999GA2021+030009999GF104991999999999999999999MA1100511999999MW1001REMMET052SBLP 032000Z 00000KT 9999 SCT030 SCT100 31/21 Q1005;EQDQ01+000000PRSWM2
0162832880999992000010321004-13270-043420FM-15+0458SBLP V0209999C000012200019N0112651N1+03001+02101999999ADDGA1021+009009999GA2021+030009999GF104991999999999999999999MA1100511999999MW1001REMMET052SBLP 032100Z 00000KT 9999 SCT030 SCT100 30/21 Q1005;EQDQ01+000000PRSWM2
0186832880999992000010400004-13270-043420FM-12+0458SBLP V0201401N000512200019N9999999N1+02581+02371100851ADDAA106000091GF104991031051008001021001KA1240M+03021MA1999999095761MD1999999-0141REMSYN076AAXX  04004 83288 325// 41401 10258 20237 39576 40085 83520 333 10302 59014;EQDQ01  00002PRCP06
0162832880999992000010410004-13270-043420FM-15+0458SBLP V0209999C000010300019N0112651N1+02201+02001999999ADDGA1021+006009999GA2071+030009999GF107991999999999999999999MA1101191999999MW1001REMMET052SBLP 041000Z 00000KT 9999 FEW020 BKN100 22/20 Q1012;EQDQ01+000000PRSWM2
0162832880999992000010411004-13270-043420FM-15+0458SBLP V0200601N003110300019N0112651N1+02301+02101999999ADDGA1021+006009999GA2071+030009999GF107991999999999999999999MA1101291999999MW1001REMMET052SBLP 041100Z 06006KT 9999 SCT020 BKN100 23/21 Q1013;EQDQ01+000000PRSWM2
0298832880999992000010412004-13270-043420SY-MT+0458SBLP V0203601N001010300019N0200001N1+02361+02051101301ADDAA106000091GA1021+006009999GA2071+030009999GF108991031021008001011999KA1240N+02041MA1101291096181MD1999999-0351MW1001REMSYN076AAXX  04124 83288 32598 83602 10236 20205 39618 40130 8321/ 333 20204 59035;MET052SBLP 041200Z 00000KT 9999 SCT020 BKN100 24/21 Q1013;EQDQ01+000000PRSWM2Q02  00002PRCP06
0162832880999992000010413004-13270-043420FM-15+0458SBLP V0209999C000010300019N0112651N1+02501+02101999999ADDGA1021+006009999GA2071+030009999GF107991999999999999999999MA1101391999999MW1001REMMET052SBLP 041300Z 00000KT 9999 SCT020 BKN100 25/21 Q1014;EQDQ01+000000PRSWM2
0162832880999992000010414004-13270-043420FM-15+0458SBLP V0209999C000010300019N0112651N1+02701+02001999999ADDGA1021+006009999GA2071+030009999GF107991999999999999999999MA1101291999999MW1001REMMET052SBLP 041400Z 00000KT 9999 SCT020 BKN100 27/20 Q1013;EQDQ01+000000PRSWM2
0162832880999992000010415004-13270-043420FM-15+0458SBLP V0202401N002110300019N0112651N1+02801+02001999999ADDGA1021+009009999GA2071+030009999GF107991999999999999999999MA1101191999999MW1001REMMET052SBLP 041500Z 24004KT 9999 FEW030 BKN100 28/20 Q1012;EQDQ01+000000PRSWM2
0162832880999992000010416004-13270-043420FM-15+0458SBLP V0209999C000010300019N0112651N1+02901+02101999999ADDGA1021+009009999GA2071+030009999GF107991999999999999999999MA1101191999999MW1001REMMET052SBLP 041600Z 00000KT 9999 SCT030 BKN100 29/21 Q1012;EQDQ01+000000PRSWM2
0162832880999992000010417004-13270-043420FM-15+0458SBLP V0209999C000010300019N0112651N1+02901+02101999999ADDGA1021+009009999GA2071+030009999GF107991999999999999999999MA1101081999999MW1001REMMET052SBLP 041700Z 00000KT 9999 SCT030 BKN100 29/21 Q1011;EQDQ01+000000PRSWM2
0279832880999992000010418004-13270-043420SY-MT+0458SBLP V0201801N000510300019N0200001N1+02721+02151100981ADDAA106000091GA1021+009009999GA2071+030009999GF108991041021008001011999MA1101021095881MD1999999-0191MW1001REMSYN070AAXX  04184 83288 32598 81801 10272 20215 39588 40098 8421/ 333 59019;MET052SBLP 041800Z 00000KT 9999 SCT030 BKN100 29/21 Q1010;EQDQ01+000000PRSWM2Q02  00002PRCP06
0162832880999992000010419004-13270-043420FM-15+0458SBLP V0209999C000010300019N0112651N1+02901+02101999999ADDGA1021+009009999GA2071+030009999GF107991999999999999999999MA1100911999999MW1001REMMET052SBLP 041900Z 00000KT 9999 SCT030 BKN100 29/21 Q1009;EQDQ01+000000PRSWM2
0162832880999992000010420004-13270-043420FM-15+0458SBLP V0209999C000010300019N0112651N1+02801+02101999999ADDGA1021+009009999GA2071+030009999GF107991999999999999999999MA1100811999999MW1001REMMET052SBLP 042000Z 00000KT 9999 SCT030 BKN100 28/21 Q1008;EQDQ01+000000PRSWM2
0162832880999992000010421004-13270-043420FM-15+0458SBLP V0209999C000010300019N0112651N1+02701+02101999999ADDGA1021+009009999GA2071+030009999GF107991999999999999999999MA1100911999999MW1001REMMET052SBLP 042100Z 00000KT 9999 SCT030 BKN100 27/21 Q1009;EQDQ01+000000PRSWM2
0186832880999992000010500004-13270-043420FM-12+0458SBLP V0201801N000510450019N9999999N1+02421+02251101021ADDAA106000091GF106991031051008001011001KA1240M+02781MA1999999095911MD1999999+0151REMSYN076AAXX  05004 83288 325// 61801 10242 20225 39591 40102 83510 333 10278 58015;EQDQ01  00002PRCP06
0091832880999992000010509004-13270-043420FM-15+0458SBLP V0209999C00001220001CN0099001N1+02201+02001999999ADDMA1101081999999MW1001REMMET039SBLP 050900Z 00000KT CAVOK 22/20 Q1011;EQDQ01+000000PRSWM2
0158832880999992000010510004-13270-043420FM-15+0458SBLP V0209999C000012200019N0005001N1+02201+02201999999ADDGA1021+003009999GF104991999999999999999999MA1101191999999MW1441REMMET048SBLP 051000Z 00000KT 0500 FG SCT010 22/22 Q1012;EQDQ01+000003PRSWM1Q02    003PRSWM1
0186832880999992000010512004-13270-043420FM-12+0458SBLP V0202701N001519999999N0200001N1+02461+02191101231ADDAA106000091GF108991001001999999001071KA1240N+02161MA1999999096121MD1999999+0061REMSYN076AAXX  05124 83288 32998 82703 10246 20219 39612 40123 80007 333 20216 58006;EQDQ01  00002PRCP06
0139832880999992000010513004-13270-043420FM-15+0458SBLP V0209999C000012200019N0112651N1+02701+02101999999ADDGA1021+006009999GF104991999999999999999999MA1101391999999MW1001REMMET045SBLP 051300Z 00000KT 9999 SCT020 27/21 Q1014;EQDQ01+000000PRSWM2
0139832880999992000010514004-13270-043420FM-15+0458SBLP V0209999C000012200019N0112651N1+02801+02101999999ADDGA1021+006009999GF104991999999999999999999MA1101391999999MW1001REMMET045SBLP 051400Z 00000KT 9999 SCT020 28/21 Q1014;EQDQ01+000000PRSWM2
0139832880999992000010515004-13270-043420FM-15+0458SBLP V0209999C000010090019N0112651N1+02801+02101999999ADDGA1071+009009999GF107991999999999999999999MA1101291999999MW1001REMMET045SBLP 051500Z 00000KT 9999 BKN030 28/21 Q1013;EQDQ01+000000PRSWM2
0162832880999992000010516004-13270-043420FM-15+0458SBLP V0203101N004110090019N0112651N1+03001+02201999999ADDGA1071+009009999GA2071+060009999GF107991999999999999999999MA1101191999999MW1001REMMET052SBLP 051600Z 31008KT 9999 BKN030 BKN200 30/22 Q1012;EQDQ01+000000PRSWM2
0182832880999992000010517004-13270-043420FM-15+0458SBLP V0202801N003110090019N0060001N1+02801+02301999999ADDGA1071+009009999GA2071+060009999GF107991999999999999999999MA1101081999999MW1611REMMET056SBLP 051700Z 28006KT 6000 -RA BKN030 BKN200 28/23 Q1011;EQDQ01+000003PRSWM1Q02    003PRSWM1
0301832880999992000010518004-13270-043420SY-MT+0458SBLP V0201401N001510090019N0200001N1+02581+02191100981ADDAA106000191AY151061AY251061GA1071+009009999GA2071+060009999GF106991041081008001001051MA1101021095871MD1999999-0011MW1021MW2611REMSYN082AAXX  05184 83288 21598 61403 10258 20219 39587 40098 70255 84805 333 59001 69921;MET056SBLP 051800Z 15008KT 9999 -RA BKN030 BKN200 27/22 Q1010;EQDQ01    003PRSWM1
0206832880999992000010521004-13270-043420FM-15+0458SBLP V0201201N006210600019N0112651N1+02801+02301999999ADDGA1021+009009999GA2021+012009099GA3071+060009999GF107991999999999999999999MA1100911999999MW1171REMMET064SBLP 052100Z 12012KT 9999 TS SCT030 FEW040CB BKN200 28/23 Q1009;EQDQ01+000003PRSWM1Q02    003PRSWM1
0091832880999992000010609004-13270-043420FM-15+0458SBLP V0201801N00211220001CN0099001N1+02001+02001999999ADDMA1101081999999MW1001REMMET039SBLP 060900Z 18004KT CAVOK 20/20 Q1011;EQDQ01+000000PRSWM2
0091832880999992000010610004-13270-043420FM-15+0458SBLP V0201801N00311220001CN0099001N1+02201+02101999999ADDMA1101191999999MW1001REMMET039SBLP 061000Z 18006KT CAVOK 22/21 Q1012;EQDQ01+000000PRSWM2
0091832880999992000010611004-13270-043420FM-15+0458SBLP V0201801N00211220001CN0099001N1+02501+02101999999ADDMA1101291999999MW1001REMMET039SBLP 061100Z 18004KT CAVOK 25/21 Q1013;EQDQ01+000000PRSWM2
0243832880999992000010612004-13270-043420SY-MT+0458SBLP V0201401N000512200019N0200001N1+02631+02031101351ADDAA124000191GF103991021011008001001021KA1240N+02061MA1101291096231MD1999999+0111MW1001REMSYN082AAXX  06124 83288 22598 31401 10263 20203 39623 40135 82102 333 20206 58011 69924;MET039SBLP 061200Z 10005KT CAVOK 27/21 Q1013;EQDQ01+000000PRSWM2
0139832880999992000010613004-13270-043420FM-15+0458SBLP V0200601N003112200019N0112651N1+02901+02101999999ADDGA1021+012009999GF102991999999999999999999MA1101291999999MW1001REMMET045SBLP 061300Z 06006KT 9999 FEW040 29/21 Q1013;EQDQ01+000000PRSWM2
0123832880999992000010614004-13270-043420FM-15+0458SBLP V0200601N001510120019N0112651N1+02901+02101999999ADDGA1071+012009999GF107991999999999999999999MW1001REMMET044SBLP 061400Z 06003KT 9999 BKN040 29/21 Q101;EQDQ01+000000PRSWM2
0139832880999992000010616004-13270-043420FM-15+0458SBLP V0200601N002110090019N0112651N1+03001+02201999999ADDGA1071+009009999GF107991999999999999999999MA1101191999999MW1001REMMET045SBLP 061600Z 06004KT 9999 BKN030 30/22 Q1012;EQDQ01+000000PRSWM2
0206832880999992000010619004-13270-043420FM-15+0458SBLP V0200901N002112200019N0112651N1+03101+02101999999ADDGA1021+009009999GA2021+012009099GA3021+090009999GF104991999999999999999999MA1100811999999MW1171REMMET064SBLP 061900Z 09004KT 9999 TS SCT030 FEW040CB SCT300 31/21 Q1008;EQDQ01+000003PRSWM1Q02    003PRSWM1
0162832880999992000010621004-13270-043420FM-15+0458SBLP V0203601N003112200019N0112651N1+02401+02101999999ADDGA1021+009009999GA2021+090009999GF104991999999999999999999MA1100911999999MW1001REMMET052SBLP 062100Z 36006KT 9999 FEW030 SCT300 24/21 Q1009;EQDQ01+000000PRSWM2
0183832880999992000010700004-13270-043420FM-12+0458SBLP V0201401N000512200019N9999999N1+02311+02281100791ADDAA106003091GA1001+999999999GF100991001001999999001001KA1240M+03041MA1999999095591MD1999999+0141REMSYN076AAXX  07004 83288 219// 01401 10231 20228 39559 40079 333 10304 58014 60031;
0091832880999992000010709004-13270-043420FM-15+0458SBLP V0209999C00001220001CN0099001N1+02001+02001999999ADDMA1101081999999MW1001REMMET039SBLP 070900Z 00000KT CAVOK 20/20 Q1011;EQDQ01+000000PRSWM2
0091832880999992000010710004-13270-043420FM-15+0458SBLP V0209999C00001220001CN0099001N1+02201+02101999999ADDMA1101191999999MW1001REMMET039SBLP 071000Z 00000KT CAVOK 22/21 Q1012;EQDQ01+000000PRSWM2
0091832880999992000010711004-13270-043420FM-15+0458SBLP V0209999C00001220001CN0099001N1+02501+02101999999ADDMA1101191999999MW1001REMMET039SBLP 071100Z 00000KT CAVOK 25/21 Q1012;EQDQ01+000000PRSWM2
0224832880999992000010712004-13270-043420SY-MT+0458SBLP V0200901N00151220001CN0200001N1+02581+02001101251ADDAA124003091GF100991001001999999001001MA1101191096141MD1999999-0091MW1001REMSYN076AAXX  07124 83288 22998 00903 10258 20200 39614 40125 333 22000 59009 60034;MET039SBLP 071200Z 07008KT CAVOK 27/20 Q1012;EQDQ01+000000PRSWM2
0139832880999992000010713004-13270-043420FM-15+0458SBLP V0200701N003112200019N0112651N1+02801+02001999999ADDGA1021+012009999GF104991999999999999999999MA1101291999999MW1001REMMET045SBLP 071300Z 07006KT 9999 SCT040 28/20 Q1013;EQDQ01+000000PRSWM2
0139832880999992000010714004-13270-043420FM-15+0458SBLP V0200701N003112200019N0112651N1+02901+02001999999ADDGA1021+012009999GF104991999999999999999999MA1101191999999MW1001REMMET045SBLP 071400Z 07006KT 9999 SCT040 29/20 Q1012;EQDQ01+000000PRSWM2
0139832880999992000010717004-13270-043420FM-15+0458SBLP V0201801N003112200019N0112651N1+03101+02001999999ADDGA1021+009009999GF104991999999999999999999MA1101021999999MW1001REMMET045SBLP 071700Z 18006KT 9999 SCT030 31/20 Q1010;EQDQ01+000000PRSWM2
0256832880999992000010718004-13270-043420SY-MT+0458SBLP V0201801N001012200019N0200001N1+03041+01451100871ADDAA106000091GA1021+009009999GF103991031021008001001001MA1100911095791MD1999999+0111MW1001REMSYN070AAXX  07184 83288 32598 31802 10304 20145 39579 40087 83200 333 58011;MET045SBLP 071800Z 00000KT 9999 SCT030 32/20 Q1009;EQDQ01+000000PRSWM2Q02  00002PRCP06
0139832880999992000010721004-13270-043420FM-15+0458SBLP V0200901N003112200019N0112651N1+03001+02001999999ADDGA1021+009009999GF102991999999999999999999MA1100811999999MW1001REMMET045SBLP 072100Z 09006KT 9999 FEW030 30/20 Q1008;EQDQ01+000000PRSWM2
0196832880999992000010800004-13270-043420FM-12+0458SBLP V0209999C000012200019N9999999N1+02421+02111100911ADDAA106000091GA1001+999999999GF100991001001999999001001KA1240M+03061MA1999999095831MD1999999+0241REMSYN070AAXX  08004 83288 329// 00000 10242 20211 39583 40091 333 10306 58024;EQDQ01  00002PRCP06
0162832880999992000010809004-13270-043420FM-15+0458SBLP V0209999C000010300019N0112651N1+02201+02101999999ADDGA1021+006009999GA2071+030009999GF107991999999999999999999MA1101081999999MW1001REMMET052SBLP 080900Z 00000KT 9999 SCT020 BKN100 22/21 Q1011;EQDQ01+000000PRSWM2
0161832880999992000010810004-13270-043420FM-15+0458SBLP V0209999C000010300019N0112651N1+99999+99999999999ADDGA1021+006009999GA2071+030009999GF107991999999999999999999MA1101191999999MW1001REMMET051SBLP 081000Z 00000KT 9999 FEW020 BKN100 2/21 Q1012;EQDQ01+000000PRSWM2
0162832880999992000010811004-13270-043420FM-15+0458SBLP V0209999C000010300019N0112651N1+02501+02001999999ADDGA1021+006009999GA2071+030009999GF107991999999999999999999MA1101291999999MW1001REMMET052SBLP 081100Z 00000KT 9999 FEW020 BKN100 25/20 Q1013;EQDQ01+000000PRSWM2
0298832880999992000010812004-13270-043420SY-MT+0458SBLP V0201401N002110300019N0200001N1+02481+02031101271ADDAA106000091GA1021+009009999GA2071+030009999GF106991001001999999001091KA1240N+02061MA1101291096151MD1999999+0011MW1001REMSYN076AAXX  08124 83288 32998 61404 10248 20203 39615 40127 80009 333 20206 58001;MET052SBLP 081200Z 09006KT 9999 FEW030 BKN100 27/20 Q1013;EQDQ01+000000PRSWM2Q02  00002PRCP06
0162832880999992000010813004-13270-043420FM-15+0458SBLP V0200901N003112200019N0112651N1+02901+01901999999ADDGA1021+009009999GA2021+030009999GF104991999999999999999999MA1101391999999MW1001REMMET052SBLP 081300Z 09006KT 9999 FEW030 SCT100 29/19 Q1014;EQDQ01+000000PRSWM2
0162832880999992000010814004-13270-043420FM-15+0458SBLP V0200901N003112200019N0112651N1+02901+01901999999ADDGA1021+009009999GA2021+030009999GF104991999999999999999999MA1101391999999MW1001REMMET052SBLP 081400Z 09006KT 9999 SCT030 SCT100 29/19 Q1014;EQDQ01+000000PRSWM2
0139832880999992000010815004-13270-043420FM-15+0458SBLP V0200901N003112200019N0112651N1+02901+01901999999ADDGA1021+009009999GF104991999999999999999999MA1101291999999MW1001REMMET045SBLP 081500Z 09006KT 9999 SCT030 29/19 Q1013;EQDQ01+000000PRSWM2
0139832880999992000010817004-13270-043420FM-15+0458SBLP V0201201N003112200019N0112651N1+03101+02001999999ADDGA1021+009009999GF104991999999999999999999MA1101021999999MW1001REMMET045SBLP 081700Z 12006KT 9999 SCT030 31/20 Q1010;EQDQ01+000000PRSWM2
0256832880999992000010818004-13270-043420SY-MT+0458SBLP V0201801N000512200019N0200001N1+02621+02121100971ADDAA106000091GA1021+009009999GF106991031081008001021001MA1100911095871MD1999999+0081MW1001REMSYN070AAXX  08184 83288 32598 61801 10262 20212 39587 40097 83820 333 58008;MET045SBLP 081800Z 18006KT 9999 SCT030 26/23 Q1009;EQDQ01+000000PRSWM2Q02  00002PRCP06
0162832880999992000010819004-13270-043420FM-15+0458SBLP V0201201N003112200019N0112651N1+02801+02201999999ADDGA1021+009009999GA2021+090009999GF104991999999999999999999MA1100811999999MW1001REMMET052SBLP 081900Z 12006KT 9999 SCT030 SCT300 28/22 Q1008;EQDQ01+000000PRSWM2
0162832880999992000010820004-13270-043420FM-15+0458SBLP V0201201N003112200019N0112651N1+02901+02301999999ADDGA1021+009009999GA2021+090009999GF104991999999999999999999MA1100811999999MW1001REMMET052SBLP 082000Z 12006KT 9999 FEW030 SCT300 29/23 Q1008;EQDQ01+000000PRSWM2
0162832880999992000010821004-13270-043420FM-15+0458SBLP V0201601N003112200019N0112651N1+02901+02301999999ADDGA1021+009009999GA2021+090009999GF102991999999999999999999MA1100811999999MW1001REMMET052SBLP 082100Z 16006KT 9999 FEW030 FEW300 29/23 Q1008;EQDQ01+000000PRSWM2
0091832880999992000010909004-13270-043420FM-15+0458SBLP V0201801N00311220001CN0099001N1+02101+02001999999ADDMA1101291999999MW1001REMMET039SBLP 090900Z 18006KT CAVOK 21/20 Q1013;EQDQ01+000000PRSWM2
0091832880999992000010910004-13270-043420FM-15+0458SBLP V0201801N00311220001CN0099001N1+02101+02001999999ADDMA1101291999999MW1001REMMET039SBLP 091000Z 18006KT CAVOK 21/20 Q1013;EQDQ01+000000PRSWM2
0162832880999992000010911004-13270-043420FM-15+0458SBLP V0201801N002110300019N0112651N1+02301+02001999999ADDGA1021+009009999GA2071+030009999GF107991999999999999999999MA1101391999999MW1001REMMET052SBLP 091100Z 18004KT 9999 FEW030 BKN100 23/20 Q1014;EQDQ01+000000PRSWM2
0264832880999992000010912004-13270-043420SY-MT+0458SBLP V0201401N000510450019N0200001N1+02441+01901101441ADDAA106000091GF106991031011008001021001KA1240N+02061MA1999999096311MD1999999-0091MW1001REMSYN076AAXX  09124 83288 32598 61401 10244 20190 39631 40144 83120 333 20206 59009;MET050SBLP 091200Z ///// 9999 FEW030 BKN100 25/18 Q1015;EQDQ01+000000PRSWM2Q02  00002PRCP06
0162832880999992000010913004-13270-043420FM-15+0458SBLP V0200901N003110300019N0112651N1+02601+01801999999ADDGA1021+009009999GA2071+030009999GF107991999999999999999999MA1101591999999MW1001REMMET052SBLP 091300Z 09006KT 9999 SCT030 BKN100 26/18 Q1016;EQDQ01+000000PRSWM2
0162832880999992000010916004-13270-043420FM-15+0458SBLP V0201801N003110300019N0112651N1+02801+01901999999ADDGA1021+009009999GA2071+030009999GF107991999999999999999999MA1101491999999MW1001REMMET052SBLP 091600Z 18006KT 9999 SCT030 BKN100 28/19 Q1015;EQDQ01+000000PRSWM2
0162832880999992000010917004-13270-043420FM-15+0458SBLP V0201801N003110300019N0112651N1+02801+02001999999ADDGA1021+009009999GA2071+030009999GF107991999999999999999999MA1101391999999MW1001REMMET052SBLP 091700Z 18006KT 9999 SCT030 BKN100 28/20 Q1014;EQDQ01+000000PRSWM2
0279832880999992000010918004-13270-043420SY-MT+0458SBLP V0201801N000510300019N0200001N1+02661+01951101321ADDAA106000091GA1021+009009999GA2071+030009999GF108991061051008001021999MA1101291096201MD1999999+0421MW1001REMSYN070AAXX  09184 83288 32598 81801 10266 20195 39620 40132 8652/ 333 58042;MET052SBLP 091800Z 18006KT 9999 SCT030 BKN100 28/20 Q1013;EQDQ01+000000PRSWM2Q02  00002PRCP06
0162832880999992000010919004-13270-043420FM-15+0458SBLP V0201801N003110300019N0112651N1+02801+02001999999ADDGA1021+009009999GA2071+030009999GF107991999999999999999999MA1101191999999MW1001REMMET052SBLP 091900Z 18006KT 9999 SCT030 BKN100 28/20 Q1012;EQDQ01+000000PRSWM2
0162832880999992000010920004-13270-043420FM-15+0458SBLP V0209999C000010300019N0112651N1+02801+02001999999ADDGA1021+009009999GA2071+030009999GF107991999999999999999999MA1101191999999MW1001REMMET052SBLP 092000Z 00000KT 9999 SCT030 BKN100 28/20 Q1012;EQDQ01+000000PRSWM2
0162832880999992000010921004-13270-043420FM-15+0458SBLP V0209999C000010300019N0112651N1+02701+02001999999ADDGA1021+009009999GA2071+030009999GF107991999999999999999999MA1101191999999MW1001REMMET052SBLP 092100Z 00000KT 9999 SCT030 BKN100 27/20 Q1012;EQDQ01+000000PRSWM2
0196832880999992000011000004-13270-043420FM-12+0458SBLP V0209999C000012200019N9999999N1+02401+02111101371ADDAA106000091GA1001+999999999GF100991001001999999001001KA1240M+02701MA1999999096251MD1999999+0191REMSYN070AAXX  10004 83288 329// 00000 10240 20211 39625 40137 333 10270 58019;EQDQ01  00002PRCP06
0091832880999992000011009004-13270-043420FM-15+0458SBLP V0209999C00001220001CN0099001N1+02101+02001999999ADDMA1101291999999MW1001REMMET039SBLP 100900Z 00000KT CAVOK 21/20 Q1013;EQDQ01+000000PRSWM2
0091832880999992000011010004-13270-043420FM-15+0458SBLP V0201801N00311220001CN0099001N1+02201+01901999999ADDMA1101291999999MW1001REMMET039SBLP 101000Z 18006KT CAVOK 22/19 Q1013;EQDQ01+000000PRSWM2
0298832880999992000011012004-13270-043420SY-MT+0458SBLP V0201401N001512200019N0200001N1+02571+02181101431ADDAA106000091GA1021+009009999GA2021+090009999GF103991011011008001001041KA1240N+02001MA1101391096311MD1999999+0001MW1001REMSYN076AAXX  10124 83288 32598 31403 10257 20218 39631 40143 81104 333 20200 58000;MET052SBLP 101200Z 09006KT 9999 FEW030 SCT300 26/19 Q1014;EQDQ01+000000PRSWM2Q02  00002PRCP06
0139832880999992000011013004-13270-043420FM-15+0458SBLP V0200201N002112200019N0112651N1+02901+01801999999ADDGA1021+009009999GF104991999999999999999999MA1101491999999MW1001REMMET045SBLP 101300Z 02004KT 9999 SCT030 29/18 Q1015;EQDQ01+000000PRSWM2
0139832880999992000011014004-13270-043420FM-15+0458SBLP V0200901N003112200019N0112651N1+03001+01801999999ADDGA1021+009009999GF104991999999999999999999MA1101391999999MW1001REMMET045SBLP 101400Z 09006KT 9999 SCT030 30/18 Q1014;EQDQ01+000000PRSWM2
0139832880999992000011015004-13270-043420FM-15+0458SBLP V0209999C000012200019N0112651N1+03001+01801999999ADDGA1021+009009999GF104991999999999999999999MA1101291999999MW1001REMMET045SBLP 101500Z 00000KT 9999 SCT030 30/18 Q1013;EQDQ01+000000PRSWM2
0139832880999992000011016004-13270-043420FM-15+0458SBLP V0201801N003110090019N0112651N1+03101+02001999999ADDGA1071+009009999GF107991999999999999999999MA1101291999999MW1001REMMET045SBLP 101600Z 18006KT 9999 BKN030 31/20 Q1013;EQDQ01+000000PRSWM2
0139832880999992000011017004-13270-043420FM-15+0458SBLP V0201801N003110090019N0112651N1+03101+02001999999ADDGA1071+009009999GF107991999999999999999999MA1101081999999MW1001REMMET045SBLP 101700Z 18006KT 9999 BKN030 31/20 Q1011;EQDQ01+000000PRSWM2
0256832880999992000011018004-13270-043420SY-MT+0458SBLP V0201801N001512200019N0200001N1+02981+02201101081ADDAA106000091GA1021+009009999GF104991041021008001001001MA1101081095991MD1999999-0211MW1001REMSYN070AAXX  10184 83288 32598 41803 10298 20220 39599 40108 84200 333 59021;MET045SBLP 101800Z 18004KT 9999 SCT030 31/20 Q1011;EQDQ01+000000PRSWM2Q02  00002PRCP06
0139832880999992000011019004-13270-043420FM-15+0458SBLP V0201801N005112200019N0112651N1+03201+02001999999ADDGA1021+009009999GF104991999999999999999999MA1101021999999MW1001REMMET045SBLP 101900Z 18010KT 9999 SCT030 32/20 Q1010;EQDQ01+000000PRSWM2
0139832880999992000011020004-13270-043420FM-15+0458SBLP V0201801N005112200019N0112651N1+03001+02101999999ADDGA1021+009009999GF104991999999999999999999MA1100911999999MW1001REMMET045SBLP 102000Z 18010KT 9999 SCT030 30/21 Q1009;EQDQ01+000000PRSWM2
0139832880999992000011021004-13270-043420FM-15+0458SBLP V0201901N004112200019N0112651N1+02901+02001999999ADDGA1021+009009999GF104991999999999999999999MA1100911999999MW1001REMMET045SBLP 102100Z 19008KT 9999 SCT030 29/20 Q1009;EQDQ01+000000PRSWM2
0186832880999992000011100004-13270-043420FM-12+0458SBLP V0200901N000512200019N9999999N1+02381+02031101171ADDAA106000091GF104991021051008001021001KA1240M+03041MA1999999096061MD1999999-0191REMSYN076AAXX  11004 83288 325// 40901 10238 20203 39606 40117 82520 333 10304 59019;EQDQ01  00002PRCP06
0091832880999992000011109004-13270-043420FM-15+0458SBLP V0209999C00001220001CN0099001N1+02101+02001999999ADDMA1101291999999MW1001REMMET039SBLP 110900Z 00000KT CAVOK 21/20 Q1013;EQDQ01+000000PRSWM2
0091832880999992000011110004-13270-043420FM-15+0458SBLP V0201601N00261220001CN0099001N1+02201+01901999999ADDMA1101391999999MW1001REMMET039SBLP 111000Z 16005KT CAVOK 22/19 Q1014;EQDQ01+000000PRSWM2
0091832880999992000011111004-13270-043420FM-15+0458SBLP V0201601N00411220001CN0099001N1+02501+02001999999ADDMA1101391999999MW1001REMMET039SBLP 111100Z 16008KT CAVOK 25/20 Q1014;EQDQ01+000000PRSWM2
0269832880999992000011112004-13270-043420SY-MT+0458SBLP V0201401N001019999999N0200001N1+02541+01931999999ADDAA106000091GF107991001001999999001051KA1240N+02021MA1101391096221MD1999999-0091MW1001REMSYN076AAXX  11124 83288 32998 71402 10254 20193 39622 40512 80005 333 20202 59009;MET039SBLP 111200Z 13008KT CAVOK 26/20 Q1014;EQDQ01+000000PRSWM2Q02  00002PRCP06Q03 105123APOSLP
0139832880999992000011113004-13270-043420FM-15+0458SBLP V0201001N003112200019N0112651N1+02701+01801999999ADDGA1021+012009999GF102991999999999999999999MA1101391999999MW1001REMMET045SBLP 111300Z 10006KT 9999 FEW040 27/18 Q1014;EQDQ01+000000PRSWM2
0139832880999992000011114004-13270-043420FM-15+0458SBLP V0209999C000012200019N0112651N1+02801+01901999999ADDGA1021+012009999GF102991999999999999999999MA1101391999999MW1001REMMET045SBLP 111400Z 00000KT 9999 FEW040 28/19 Q1014;EQDQ01+000000PRSWM2
0162832880999992000011115004-13270-043420FM-15+0458SBLP V0201301N003110600019N0112651N1+02801+01901999999ADDGA1021+012009999GA2071+060009999GF107991999999999999999999MA1101291999999MW1001REMMET052SBLP 111500Z 13006KT 9999 FEW040 BKN200 28/19 Q1013;EQDQ01+000000PRSWM2
0162832880999992000011116004-13270-043420FM-15+0458SBLP V0209999C000010900019N0112651N1+03001+01901999999ADDGA1021+009009999GA2071+090009999GF107991999999999999999999MA1101291999999MW1001REMMET052SBLP 111600Z 00000KT 9999 FEW030 BKN300 30/19 Q1013;EQDQ01+000000PRSWM2
0162832880999992000011117004-13270-043420FM-15+0458SBLP V0209999C000010900019N0112651N1+03001+01901999999ADDGA1021+009009999GA2071+090009999GF107991999999999999999999MA1101191999999MW1001REMMET052SBLP 111700Z 00000KT 9999 FEW030 BKN300 30/19 Q1012;EQDQ01+000000PRSWM2
0183832880999992000011118004-13270-043420FM-12+0458SBLP V0201801N002119999999N0200001N1+02791+02011100962ADDAA106000091GF108991001001999999001071MA1999999095861MD1999999-0131REMSYN070AAXX  11184 83288 32998 81804 10279 20201 39586 40096 80007 333 59013;EQDQ01+100963APOSLPQ02  00002PRCP06
0186832880999992000011200004-13270-043420FM-12+0458SBLP V0202301N001012200019N9999999N1+02341+02011100971ADDAA106000091GF103991001001999999001051KA1240M+02841MA1999999095871MD1999999-0191REMSYN076AAXX  12004 83288 329// 32302 10234 20201 39587 40097 80005 333 10284 59019;EQDQ01  00002PRCP06
0186832880999992000011212004-13270-043420FM-12+0458SBLP V0200901N000512200019N0200001N1+02361+01951101211ADDAA106000091GF103991031011008001021021KA1240N+02071MA1999999096101MD1999999-0121REMSYN076AAXX  12124 83288 32598 30901 10236 20195 39610 40121 83122 333 20207 59012;EQDQ01  00002PRCP06
0162832880999992000011217004-13270-043420FM-15+0458SBLP V0200801N004110600019N0112651N1+03001+01801999999ADDGA1021+009009999GA2071+060009999GF107991999999999999999999MA1101081999999MW1001REMMET052SBLP 121700Z 08008KT 9999 FEW030 BKN200 30/18 Q1011;EQDQ01+000000PRSWM2
0167832880999992000011218004-13270-043420FM-12+0458SBLP V0200901N000510075019N0200001N1+02821+01911100991ADDAA106000091GF106991051011008001021021MA1999999095891MD1999999+0031REMSYN070AAXX  12184 83288 32598 60901 10282 20191 39589 40099 85122 333 58003;EQDQ01  00002PRCP06
0162832880999992000011219004-13270-043420FM-15+0458SBLP V0203601N002110600019N0112651N1+03001+02001999999ADDGA1021+009009999GA2071+060009999GF107991999999999999999999MA1101021999999MW1001REMMET052SBLP 121900Z 36004KT 9999 FEW030 BKN200 30/20 Q1010;EQDQ01+000000PRSWM2
0162832880999992000011221004-13270-043420FM-15+0458SBLP V0209999C000010600019N0112651N1+02901+02001999999ADDGA1021+009009999GA2071+060009999GF107991999999999999999999MA1101021999999MW1001REMMET052SBLP 122100Z 00000KT 9999 FEW030 BKN200 29/20 Q1010;EQDQ01+000000PRSWM2
0212832880999992000011300004-13270-043420FM-12+0458SBLP V0200901N000512200019N9999999N1+02531+01981999999ADDAA106000091GF102991001001999999001021KA1240M+02961MA1999999999999MD1999999-0011REMSYN070AAXX  13004 83288 329// 20901 10253 20198 30094 80002 333 10296 59001;EQDQ01+100943APOSP Q02  00002PRCP06Q03 100943APOSP 
0091832880999992000011309004-13270-043420FM-15+0458SBLP V0209999C00001220001CN0099001N1+02101+02001999999ADDMA1101191999999MW1001REMMET039SBLP 130900Z 00000KT CAVOK 21/20 Q1012;EQDQ01+000000PRSWM2
0091832880999992000011310004-13270-043420FM-15+0458SBLP V0201601N00261220001CN0099001N1+02301+02001999999ADDMA1101291999999MW1001REMMET039SBLP 131000Z 16005KT CAVOK 23/20 Q1013;EQDQ01+000000PRSWM2
0091832880999992000011311004-13270-043420FM-15+0458SBLP V0209999C00001220001CN0099001N1+02601+02001999999ADDMA1101291999999MW1001REMMET039SBLP 131100Z 00000KT CAVOK 26/20 Q1013;EQDQ01+000000PRSWM2
0253832880999992000011312004-13270-043420SY-MT+0458SBLP V0200201N004612200019N0200001N1+02701+01991101301ADDAA106000091GF102991001001999999001021KA1240N+02021MA1101391098621MD1999999-0101MW1001REMSYN076AAXX  13124 83288 32998 20209 10270 20199 39862 40130 80002 333 20202 59010;MET039SBLP 131200Z 06008KT CAVOK 28/20 Q1014;EQDQ01+000000PRSWM2Q02  00002PRCP06
0091832880999992000011313004-13270-043420FM-15+0458SBLP V0200301N00311220001CN0099001N1+03001+02001999999ADDMA1101391999999MW1001REMMET039SBLP 131300Z 03006KT CAVOK 30/20 Q1014;EQDQ01+000000PRSWM2
0162832880999992000011314004-13270-043420FM-15+0458SBLP V0200301N003112200019N0112651N1+03101+02001999999ADDGA1021+012009999GA2021+090009999GF104991999999999999999999MA1101291999999MW1001REMMET052SBLP 131400Z 03006KT 9999 FEW040 SCT300 31/20 Q1013;EQDQ01+000000PRSWM2
0162832880999992000011315004-13270-043420FM-15+0458SBLP V0200301N003112200019N0112651N1+03201+01901999999ADDGA1021+012009999GA2021+090009999GF104991999999999999999999MA1101191999999MW1001REMMET052SBLP 131500Z 03006KT 9999 FEW040 SCT300 32/19 Q1012;EQDQ01+000000PRSWM2
0162832880999992000011316004-13270-043420FM-15+0458SBLP V0200901N003112200019N0112651N1+03201+01801999999ADDGA1021+009009999GA2021+090009999GF104991999999999999999999MA1101191999999MW1001REMMET052SBLP 131600Z 09006KT 9999 SCT030 SCT300 32/18 Q1012;EQDQ01+000000PRSWM2
0183832880999992000011318004-13270-043420FM-12+0458SBLP V0202001N019012200019N0200001N1+03201+02181100981ADDAA106000091GF104991021021008001001021MA1999999095902MD1999999+0011REMSYN070AAXX  13184 83288 32598 42037 10320 20218 39590 40098 82202 333 58001;EQDQ01+095903APOSP Q02  00002PRCP06
0140832880999992000011319004-13270-043420FM-15+0458SBLP V0203601N003112200019N0112651N1+03301+01801999999ADDGA1021+009009999GF104991999999999999999999MA1100911999999MW1001REMMET046SBLP 131900Z 36006KT 9999 SCT030 33/18 Q1009 ;EQDQ01+000000PRSWM2
0140832880999992000011320004-13270-043420FM-15+0458SBLP V0203601N003112200019N0112651N1+03201+01801999999ADDGA1021+009009999GF104991999999999999999999MA1100911999999MW1001REMMET046SBLP 132000Z 36006KT 9999 SCT030 32/18 Q1009 ;EQDQ01+000000PRSWM2
0139832880999992000011321004-13270-043420FM-15+0458SBLP V0203601N003112200019N0112651N1+03201+01901999999ADDGA1021+009009999GF102991999999999999999999MA1100911999999MW1001REMMET045SBLP 132100Z 36006KT 9999 FEW030 32/19 Q1009;EQDQ01+000000PRSWM2
0200832880999992000011400004-13270-043420FM-12+045899999V0209999C000012200019N9999999N1+02601+02121100941ADDAA199000091GA1001+999999999GF100991001001999999001001KA1240M+03281MA1999999095861MD1999999+0001REMSYN074    AAXX  14004 83288 329// 00000 10260 20212 39586 40094 333 10328 58000;EQDQ01  00002PRCP99
0091832880999992000011409004-13270-043420FM-15+0458SBLP V0209999C00001220001CN0099001N1+02101+01901999999ADDMA1101081999999MW1001REMMET039SBLP 140900Z 00000KT CAVOK 21/19 Q1011;EQDQ01+000000PRSWM2
0091832880999992000011410004-13270-043420FM-15+0458SBLP V0209999C00001220001CN0099001N1+02401+01901999999ADDMA1101191999999MW1001REMMET039SBLP 141000Z 00000KT CAVOK 24/19 Q1012;EQDQ01+000000PRSWM2
0091832880999992000011411004-13270-043420FM-15+0458SBLP V0209999C00001220001CN0099001N1+02701+01901999999ADDMA1101291999999MW1001REMMET039SBLP 141100Z 00000KT CAVOK 27/19 Q1013;EQDQ01+000000PRSWM2
0257832880999992000011412004-13270-043420SY-MT+045899999V0203601N001012200019N0200001N1+02621+02161101351ADDAA199000091GF102991011011008001001021KA1240N+02021MA1101291096251MD1999999+0051MW1001REMSYN080    AAXX  14124 83288 32598 23602 10262 20216 39625 40135 81102 333 20202 58005;MET039SBLP 141200Z 00000KT CAVOK 29/19 Q1013;EQDQ01+000000PRSWM2Q02  00002PRCP99
0091832880999992000011413004-13270-043420FM-15+0458SBLP V0209999C00001220001CN0099001N1+03101+01901999999ADDMA1101291999999MW1001REMMET039SBLP 141300Z 00000KT CAVOK 31/19 Q1013;EQDQ01+000000PRSWM2
0139832880999992000011414004-13270-043420FM-15+0458SBLP V0209999C000012200019N0112651N1+03101+01901999999ADDGA1021+009009999GF102991999999999999999999MA1101291999999MW1001REMMET045SBLP 141400Z 00000KT 9999 FEW030 31/19 Q1013;EQDQ01+000000PRSWM2
0139832880999992000011415004-13270-043420FM-15+0458SBLP V0209999C000012200019N0112651N1+03201+01901999999ADDGA1021+009009999GF104991999999999999999999MA1101191999999MW1001REMMET045SBLP 141500Z 00000KT 9999 SCT030 32/19 Q1012;EQDQ01+000000PRSWM2
0139832880999992000011416004-13270-043420FM-15+0458SBLP V0209999C000012200019N0112651N1+03301+01801999999ADDGA1021+009009999GF104991999999999999999999MA1101081999999MW1001REMMET045SBLP 141600Z 00000KT 9999 SCT030 33/18 Q1011;EQDQ01+000000PRSWM2
0139832880999992000011417004-13270-043420FM-15+0458SBLP V0209999C000012200019N0112651N1+03301+01801999999ADDGA1021+009009999GF104991999999999999999999MA1101021999999MW1001REMMET045SBLP 141700Z 00000KT 9999 SCT030 33/18 Q1010;EQDQ01+000000PRSWM2
0260832880999992000011418004-13270-043420SY-MT+045899999V0201401N001512200019N0200001N1+03241+02011100881ADDAA199000091GA1021+009009999GF102991021011008001001001MA1100911095811MD1999999-0091MW1001REMSYN074    AAXX  14184 83288 32598 21403 10324 20201 39581 40088 82100 333 59009;MET045SBLP 141800Z 22006KT 9999 SCT030 33/18 Q1009;EQDQ01+000000PRSWM2Q02  00002PRCP99
0139832880999992000011419004-13270-043420FM-15+0458SBLP V0201801N003112200019N0112651N1+03301+01801999999ADDGA1021+009009999GF102991999999999999999999MA1100811999999MW1001REMMET045SBLP 141900Z 18006KT 9999 FEW030 33/18 Q1008;EQDQ01+000000PRSWM2
0091832880999992000011420004-13270-043420FM-15+0458SBLP V0201801N00311220001CN0099001N1+03301+01801999999ADDMA1100811999999MW1001REMMET039SBLP 142000Z 18006KT CAVOK 33/18 Q1008;EQDQ01+000000PRSWM2
0091832880999992000011421004-13270-043420FM-15+0458SBLP V0201801N00311220001CN0099001N1+03301+01801999999ADDMA1100711999999MW1001REMMET039SBLP 142100Z 18006KT CAVOK 33/18 Q1007;EQDQ01+000000PRSWM2
0200832880999992000011500004-13270-043420FM-12+045899999V0201801N000512200019N9999999N1+02741+02021100801ADDAA199000091GA1001+999999999GF100991001001999999001001KA1240M+03261MA1999999095741MD1999999-0121REMSYN074    AAXX  15004 83288 329// 01801 10274 20202 39574 40080 333 10326 59012;EQDQ01  00002PRCP99
0091832880999992000011509004-13270-043420FM-15+0458SBLP V0209999C00001220001CN0099001N1+02101+02001999999ADDMA1101021999999MW1001REMMET039SBLP 150900Z 00000KT CAVOK 21/20 Q1010;EQDQ01+000000PRSWM2
0091832880999992000011510004-13270-043420FM-15+0458SBLP V0209999C00001220001CN0099001N1+02301+01901999999ADDMA1101081999999MW1001REMMET039SBLP 151000Z 00000KT CAVOK 23/19 Q1011;EQDQ01+000000PRSWM2
0091832880999992000011511004-13270-043420FM-15+0458SBLP V0209999C00001220001CN0099001N1+02601+01901999999ADDMA1101081999999MW1001REMMET039SBLP 151100Z 00000KT CAVOK 26/19 Q1011;EQDQ01+000000PRSWM2
0251832880999992000011512004-13270-043420SY-MT+045899999V0209999C000012200019N0200001N1+02601+01761101061ADDAA199000091GF100991001001999999001001KA1240N+02031MA1101081095991MD1999999-0261MW1001REMSYN074    AAXX  15124 83288 32998 00000 10260 20176 39599 40106 333 20203 59026;MET039SBLP 151200Z 00000KT CAVOK 28/19 Q1011;EQDQ01+000000PRSWM2Q02  00002PRCP99
0091832880999992000011513004-13270-043420FM-15+0458SBLP V0209999C00001220001CN0099001N1+03001+01901999999ADDMA1101081999999MW1001REMMET039SBLP 151300Z 00000KT CAVOK 30/19 Q1011;EQDQ01+000000PRSWM2
0091832880999992000011514004-13270-043420FM-15+0458SBLP V0209999C00001220001CN0099001N1+03101+01801999999ADDMA1101081999999MW1001REMMET039SBLP 151400Z 00000KT CAVOK 31/18 Q1011;EQDQ01+000000PRSWM2
0139832880999992000011515004-13270-043420FM-15+0458SBLP V0201801N003112200019N0112651N1+03201+01901999999ADDGA1021+009009999GF102991999999999999999999MA1101021999999MW1001REMMET045SBLP 151500Z 18006KT 9999 FEW030 32/19 Q1010;EQDQ01+000000PRSWM2
0139832880999992000011516004-13270-043420FM-15+0458SBLP V0203501N002112200019N0112651N1+03201+01701999999ADDGA1021+009009999GF102991999999999999999999MA1101021999999MW1001REMMET045SBLP 151600Z 35004KT 9999 FEW030 32/17 Q1010;EQDQ01+000000PRSWM2
0139832880999992000011517004-13270-043420FM-15+0458SBLP V0203601N001512200019N0112651N1+03201+01801999999ADDGA1021+009009999GF102991999999999999999999MA1100811999999MW1001REMMET045SBLP 151700Z 36003KT 9999 FEW030 32/18 Q1008;EQDQ01+000000PRSWM2
0238832880999992000011518004-13270-043420SY-MT+045899999V0201801N001512200019N0200001N1+03281+01621100841ADDAA199000091GF102991021011008001001001MA1100711095791MD1999999-0021MW1001REMSYN074    AAXX  15184 83288 32598 21803 10328 20162 39579 40084 82100 333 59002;MET039SBLP 151800Z 21006KT CAVOK 34/16 Q1007;EQDQ01+000000PRSWM2Q02  00002PRCP99
0091832880999992000011521004-13270-043420FM-15+0458SBLP V0202101N00211220001CN0099001N1+03201+01901999999ADDMA1100611999999MW1001REMMET039SBLP 152100Z 21004KT CAVOK 32/19 Q1006;EQDQ01+000000PRSWM2
0200832880999992000011600004-13270-043420FM-12+045899999V0201801N000512200019N9999999N1+02671+01901100601ADDAA199000091GA1001+999999999GF100991001001999999001001KA1240M+03311MA1999999095541MD1999999-0201REMSYN074    AAXX  16004 83288 329// 01801 10267 20190 39554 40060 333 10331 59020;EQDQ01  00002PRCP99
0143832880999992000011610004-13270-043420FM-15+0458SBLP V0209999C00001220001CN0099001N1+02301+02001999999ADDMA1101021999999MW1001REMMET091SBLP 161000Z 00000KT CAVOK 23/20 Q1010 SBMS 161000Z 13003KT 9999 FEW018 SCT100 27/24 Q1009;EQDQ01+000000PRSWM2
0091832880999992000011611004-13270-043420FM-15+0458SBLP V0209999C00001220001CN0099001N1+02601+02101999999ADDMA1101021999999MW1001REMMET039SBLP 161100Z 00000KT CAVOK 26/21 Q1010;EQDQ01+000000PRSWM2
0257832880999992000011612004-13270-043420SY-MT+045899999V0202701N000519999999N0200001N1+02601+02121101061ADDAA199000091GF105991001001999999001081KA1240N+02061MA1101081095971MD1999999-0021MW1001REMSYN080    AAXX  16124 83288 32998 52701 10260 20212 39597 40106 80008 333 20206 59002;MET039SBLP 161200Z 00000KT CAVOK 27/20 Q1011;EQDQ01+000000PRSWM2Q02  00002PRCP99
0091832880999992000011613004-13270-043420FM-15+0458SBLP V0203601N00211220001CN0099001N1+02901+02001999999ADDMA1101191999999MW1001REMMET039SBLP 161300Z 36004KT CAVOK 29/20 Q1012;EQDQ01+000000PRSWM2
0091832880999992000011614004-13270-043420FM-15+0458SBLP V0200301N00311220001CN0099001N1+03101+02101999999ADDMA1101081999999MW1001REMMET039SBLP 161400Z 03006KT CAVOK 31/21 Q1011;EQDQ01+000000PRSWM2
0162832880999992000011615004-13270-043420FM-15+0458SBLP V0203401N002110900019N0112651N1+03201+02101999999ADDGA1021+012009999GA2071+090009999GF107991999999999999999999MA1101021999999MW1001REMMET052SBLP 161500Z 34004KT 9999 FEW040 BKN300 32/21 Q1010;EQDQ01+000000PRSWM2
0162832880999992000011616004-13270-043420FM-15+0458SBLP V0203201N003110900019N0112651N1+03301+02001999999ADDGA1021+009009999GA2071+090009999GF107991999999999999999999MA1101021999999MW1001REMMET052SBLP 161600Z 32006KT 9999 FEW030 BKN300 33/20 Q1010;EQDQ01+000000PRSWM2
0162832880999992000011617004-13270-043420FM-15+0458SBLP V0203601N003110900019N0112651N1+03401+02001999999ADDGA1021+009009999GA2071+090009999GF107991999999999999999999MA1100911999999MW1001REMMET052SBLP 161700Z 36006KT 9999 FEW030 BKN300 34/20 Q1009;EQDQ01+000000PRSWM2
0299832880999992000011618004-13270-043420SY-MT+045899999V0203601N00151090001CN0200001N1+03261+02111100751ADDAA199000091GA1021+009009999GA2071+090009999GF199999021011008001001081MA1100811095691MD1999999-0101MW1001REMSYN074    AAXX  16184 83288 32598 63603 10326 20211 39569 40075 82108 333 59010;MET052SBLP 161800Z 33006KT 9999 FEW030 BKN300 34/20 Q1008;EQDQ01+000062SCOTCVQ02+000000PRSWM2Q03  00002PRCP99
0162832880999992000011619004-13270-043420FM-15+0458SBLP V0203401N003110900019N0112651N1+03401+02001999999ADDGA1021+009009999GA2071+090009999GF107991999999999999999999MA1100711999999MW1001REMMET052SBLP 161900Z 34006KT 9999 FEW030 BKN300 34/20 Q1007;EQDQ01+000000PRSWM2
0162832880999992000011620004-13270-043420FM-15+0458SBLP V0203601N003110900019N0112651N1+03401+02001999999ADDGA1021+009009999GA2071+090009999GF107991999999999999999999MA1100711999999MW1001REMMET052SBLP 162000Z 36006KT 9999 FEW030 BKN300 34/20 Q1007;EQDQ01+000000PRSWM2
0162832880999992000011621004-13270-043420FM-15+0458SBLP V0209999C000010900019N0112651N1+03301+02001999999ADDGA1021+009009999GA2071+090009999GF107991999999999999999999MA1100711999999MW1001REMMET052SBLP 162100Z 00000KT 9999 FEW030 BKN300 33/20 Q1007;EQDQ01+000000PRSWM2
0190832880999992000011700004-13270-043420FM-12+045899999V0200901N001019999999N9999999N1+02761+02121100801ADDAA199000091GF108991001001999999001071KA1240M+03281MA1999999095741MD1999999-0201REMSYN080    AAXX  17004 83288 329// 80902 10276 20212 39574 40080 80007 333 10328 59020;EQDQ01  00002PRCP99
0091832880999992000011709004-13270-043420FM-15+0458SBLP V0209999C00001220001CN0099001N1+02301+02101999999ADDMA1101021999999MW1001REMMET039SBLP 170900Z 00000KT CAVOK 23/21 Q1010;EQDQ01+000000PRSWM2
0091832880999992000011710004-13270-043420FM-15+0458SBLP V0209999C00001220001CN0099001N1+02401+02101999999ADDMA1101081999999MW1001REMMET039SBLP 171000Z 00000KT CAVOK 24/21 Q1011;EQDQ01+000000PRSWM2
0257832880999992000011712004-13270-043420SY-MT+045899999V0203201N000512200019N0200001N1+02771+02161101021ADDAA199000091GF102991021011008001001021KA1240N+02241MA1101191095951MD1999999-0021MW1001REMSYN080    AAXX  17124 83288 32598 23201 10277 20216 39595 40102 82102 333 20224 59002;MET039SBLP 171200Z 00000KT CAVOK 30/20 Q1012;EQDQ01+000000PRSWM2Q02  00002PRCP99
0139832880999992000011714004-13270-043420FM-15+0458SBLP V0209999C000012200019N0112651N1+03201+01901999999ADDGA1021+009009999GF102991999999999999999999MA1101191999999MW1001REMMET045SBLP 171400Z 00000KT 9999 FEW030 32/19 Q1012;EQDQ01+000000PRSWM2
0139832880999992000011715004-13270-043420FM-15+0458SBLP V0209999C000012200019N0112651N1+03301+01901999999ADDGA1021+009009999GF104991999999999999999999MA1101081999999MW1001REMMET045SBLP 171500Z 00000KT 9999 SCT030 33/19 Q1011;EQDQ01+000000PRSWM2
0139832880999992000011716004-13270-043420FM-15+0458SBLP V0203601N002112200019N0112651N1+03401+02201999999ADDGA1021+012009999GF104991999999999999999999MA1101021999999MW1001REMMET045SBLP 171600Z 36004KT 9999 SCT040 34/22 Q1010;EQDQ01+000000PRSWM2
0139832880999992000011717004-13270-043420FM-15+0458SBLP V0202701N002110120019N0112651N1+03301+02101999999ADDGA1071+012009999GF107991999999999999999999MA1100911999999MW1001REMMET045SBLP 171700Z 27004KT 9999 BKN040 33/21 Q1009;EQDQ01+000000PRSWM2
0299832880999992000011718004-13270-043420SY-MT+045899999V0202301N00051090001CN0200001N1+03131+02111100791ADDAA199000091GA1021+012009999GA2071+090009999GF199999041021008001021001MA1100811095741MD1999999-0051MW1001REMSYN074    AAXX  17184 83288 32598 62301 10313 20211 39574 40079 84220 333 59005;MET052SBLP 171800Z 00000KT 9999 SCT040 BKN300 32/21 Q1008;EQDQ01+000062SCOTCVQ02+000000PRSWM2Q03  00002PRCP99
0162832880999992000011719004-13270-043420FM-15+0458SBLP V0209999C000012200019N0112651N1+03401+02201999999ADDGA1021+012009999GA2021+090009999GF104991999999999999999999MA1100711999999MW1001REMMET052SBLP 171900Z 00000KT 9999 FEW040 SCT300 34/22 Q1007;EQDQ01+000000PRSWM2
0162832880999992000011720004-13270-043420FM-15+0458SBLP V0209999C000012200019N0112651N1+03301+02001999999ADDGA1021+012009999GA2021+090009999GF104991999999999999999999MA1100711999999MW1001REMMET052SBLP 172000Z 00000KT 9999 FEW040 SCT300 33/20 Q1007;EQDQ01+000000PRSWM2
0139832880999992000011721004-13270-043420FM-15+0458SBLP V0200801N003112200019N0112651N1+03201+02201999999ADDGA1021+012009999GF102991999999999999999999MA1100711999999MW1001REMMET045SBLP 172100Z 08006KT 9999 FEW040 32/22 Q1007;EQDQ01+000000PRSWM2
0190832880999992000011800004-13270-043420FM-12+045899999V0200901N000512200019N9999999N1+02741+02261101001ADDAA199000091GF103991021081008001021001KA1240M+03271MA1999999095931MD1999999+0191REMSYN080    AAXX  18004 83288 325// 30901 10274 20226 39593 40100 82820 333 10327 58019;EQDQ01  00002PRCP99
0139832880999992000011809004-13270-043420FM-15+0458SBLP V0209999C000012200019N0112651N1+02301+02001999999ADDGA1021+009009999GF104991999999999999999999MA1101291999999MW1001REMMET045SBLP 180900Z 00000KT 9999 SCT030 23/20 Q1013;EQDQ01+000000PRSWM2
0139832880999992000011810004-13270-043420FM-15+0458SBLP V0209999C000012200019N0112651N1+02501+02001999999ADDGA1021+009009999GF102991999999999999999999MA1101391999999MW1001REMMET045SBLP 181000Z 00000KT 9999 FEW030 25/20 Q1014;EQDQ01+000000PRSWM2
0139832880999992000011811004-13270-043420FM-15+0458SBLP V0209999C000012200019N0112651N1+02701+02001999999ADDGA1021+009009999GF104991999999999999999999MA1101391999999MW1001REMMET045SBLP 181100Z 00000KT 9999 SCT030 27/20 Q1014;EQDQ01+000000PRSWM2
0295832880999992000011812004-13270-043420SY-MT+045899999V0203601N001012200019N0200001N1+02621+02231101321ADDAA199000091GA1021+009009999GF199999011011008001001001KA1240N+02261MA1101391096231MD1999999+0271MW1001REMSYN080    AAXX  18124 83288 32598 13602 10262 20223 39623 40132 81100 333 20226 58027;MET045SBLP 181200Z 00000KT 9999 FEW030 29/19 Q1014;EQDQ01+000012SCOTCVQ02+000000PRSWM2Q03  00002PRCP99
0139832880999992000011813004-13270-043420FM-15+0458SBLP V0209999C000012200019N0112651N1+03101+01901999999ADDGA1021+009009999GF102991999999999999999999MA1101391999999MW1001REMMET045SBLP 181300Z 00000KT 9999 FEW030 31/19 Q1014;EQDQ01+000000PRSWM2
0139832880999992000011816004-13270-043420FM-15+0458SBLP V0209999C000012200019N0112651N1+03401+01901999999ADDGA1021+009009999GF104991999999999999999999MA1101081999999MW1001REMMET045SBLP 181600Z 00000KT 9999 SCT030 34/19 Q1011;EQDQ01+000000PRSWM2
0139832880999992000011817004-13270-043420FM-15+0458SBLP V0209999C000012200019N0112651N1+03401+02001999999ADDGA1021+009009999GF104991999999999999999999MA1101021999999MW1001REMMET045SBLP 181700Z 00000KT 9999 SCT030 34/20 Q1010;EQDQ01+000000PRSWM2
0260832880999992000011818004-13270-043420SY-MT+045899999V0202701N001512200019N0200001N1+03281+02401100931ADDAA199000091GA1021+009009999GF102991021011008001001001MA1101021095871MD1999999+0131MW1001REMSYN074    AAXX  18184 83288 32598 22703 10328 20240 39587 40093 82100 333 58013;MET045SBLP 181800Z 36006KT 9999 SCT030 34/19 Q1010;EQDQ01+000000PRSWM2Q02  00002PRCP99
0139832880999992000011820004-13270-043420FM-15+0458SBLP V0203601N003112200019N0112651N1+03401+02001999999ADDGA1021+009009999GF102991999999999999999999MA1100811999999MW1001REMMET045SBLP 182000Z 36006KT 9999 FEW030 34/20 Q1008;EQDQ01+000000PRSWM2
0091832880999992000011821004-13270-043420FM-15+0458SBLP V0209999C00001220001CN0099001N1+03401+01901999999ADDMA1100811999999MW1001REMMET039SBLP 182100Z 00000KT CAVOK 34/19 Q1008;EQDQ01+000000PRSWM2
0190832880999992000011900004-13270-043420FM-12+045899999V0209999C000012200019N9999999N1+02861+02371101051ADDAA199000091GF103991001001999999001051KA1240M+03361MA1999999095981MD1999999+0051REMSYN080    AAXX  19004 83288 329// 30000 10286 20237 39598 40105 80005 333 10336 58005;EQDQ01  00002PRCP99
0139832880999992000011909004-13270-043420FM-15+0458SBLP V0203601N003112200019N0112651N1+02401+02101999999ADDGA1021+009009999GF104991999999999999999999MA1101191999999MW1001REMMET045SBLP 190900Z 36006KT 9999 SCT030 24/21 Q1012;EQDQ01+000000PRSWM2
0139832880999992000011910004-13270-043420FM-15+0458SBLP V0203601N003112200019N0112651N1+02601+02001999999ADDGA1021+009009999GF102991999999999999999999MA1101191999999MW1001REMMET045SBLP 191000Z 36006KT 9999 FEW030 26/20 Q1012;EQDQ01+000000PRSWM2
0139832880999992000011911004-13270-043420FM-15+0458SBLP V0203601N003112200019N0112651N1+02801+02001999999ADDGA1021+009009999GF102991999999999999999999MA1101291999999MW1001REMMET045SBLP 191100Z 36006KT 9999 FEW030 28/20 Q1013;EQDQ01+000000PRSWM2
0279832880999992000011912004-13270-043420SY-MT+045899999V0203601N000512200019N0200001N1+02721+02221101251ADDAA199000091GA1021+009009999GF102991021011008001001021KA1240N+02281MA1101391096171MD1999999-0031MW1001REMSYN080    AAXX  19124 83288 32598 23601 10272 20222 39617 40125 82102 333 20228 59003;MET045SBLP 191200Z 36006KT 9999 FEW030 29/20 Q1014;EQDQ01+000000PRSWM2Q02  00002PRCP99
0139832880999992000011913004-13270-043420FM-15+0458SBLP V0203601N003112200019N0112651N1+03101+02001999999ADDGA1021+009009999GF102991999999999999999999MA1101391999999MW1001REMMET045SBLP 191300Z 36006KT 9999 FEW030 31/20 Q1014;EQDQ01+000000PRSWM2
0139832880999992000011914004-13270-043420FM-15+0458SBLP V0203601N003112200019N0112651N1+03301+02001999999ADDGA1021+009009999GF104991999999999999999999MA1101291999999MW1001REMMET045SBLP 191400Z 36006KT 9999 SCT030 33/20 Q1013;EQDQ01+000000PRSWM2
0139832880999992000011915004-13270-043420FM-15+0458SBLP V0203601N003112200019N0112651N1+03301+01901999999ADDGA1021+009009999GF104991999999999999999999MA1101191999999MW1001REMMET045SBLP 191500Z 36006KT 9999 SCT030 33/19 Q1012;EQDQ01+000000PRSWM2
0139832880999992000011916004-13270-043420FM-15+0458SBLP V0203601N003112200019N0112651N1+03401+01901999999ADDGA1021+009009999GF104991999999999999999999MA1101081999999MW1001REMMET045SBLP 191600Z 36006KT 9999 SCT030 34/19 Q1011;EQDQ01+000000PRSWM2
0139832880999992000011917004-13270-043420FM-15+0458SBLP V0203601N003112200019N0112651N1+03401+01901999999ADDGA1021+009009999GF104991999999999999999999MA1101021999999MW1001REMMET045SBLP 191700Z 36006KT 9999 SCT030 34/19 Q1010;EQDQ01+000000PRSWM2
0167832880999992000011918004-13270-043420FM-12+0458SBLP V0203201N001011050019N0200001N1+03341+02191100781ADDAA199000091GF106991041021008001001021MA1999999095721MD1999999-0151REMSYN070AAXX  19184 83288 32598 63202 10334 20219 39572 40078 84202 333 59015;EQDQ01  00002PRCP99
0139832880999992000011919004-13270-043420FM-15+0458SBLP V0203601N003112200019N0112651N1+03501+01901999999ADDGA1021+009009999GF104991999999999999999999MA1100711999999MW1001REMMET045SBLP 191900Z 36006KT 9999 SCT030 35/19 Q1007;EQDQ01+000000PRSWM2
0139832880999992000011920004-13270-043420FM-15+0458SBLP V0203601N003112200019N0112651N1+03401+01901999999ADDGA1021+009009999GF102991999999999999999999MA1100711999999MW1001REMMET045SBLP 192000Z 36006KT 9999 FEW030 34/19 Q1007;EQDQ01+000000PRSWM2
0139832880999992000011921004-13270-043420FM-15+0458SBLP V0203601N003112200019N0112651N1+03301+01901999999ADDGA1021+009009999GF102991999999999999999999MA1100711999999MW1001REMMET045SBLP 192100Z 36006KT 9999 FEW030 33/19 Q1007;EQDQ01+000000PRSWM2
0196832880999992000012000004-13270-043420FM-12+0458SBLP V0201801N001012200019N9999999N1+02721+02191100881ADDAA199000091GA1001+999999999GF100991001001999999001001KA1240M+03361MA1999999095811MD1999999-0171REMSYN070AAXX  20004 83288 329// 01802 10272 20219 39581 40088 333 10336 59017;EQDQ01  00002PRCP99
0162832880999992000012009004-13270-043420FM-15+0458SBLP V0209999C000010300019N0112651N1+02301+02101999999ADDGA1021+009009999GA2071+030009999GF107991999999999999999999MA1101081999999MW1001REMMET052SBLP 200900Z 00000KT 9999 FEW030 BKN100 23/21 Q1011;EQDQ01+000000PRSWM2
0162832880999992000012010004-13270-043420FM-15+0458SBLP V0209999C000010300019N0112651N1+02401+02101999999ADDGA1021+009009999GA2071+030009999GF107991999999999999999999MA1101191999999MW1001REMMET052SBLP 201000Z 00000KT 9999 FEW030 BKN100 24/21 Q1012;EQDQ01+000000PRSWM2
0162832880999992000012011004-13270-043420FM-15+0458SBLP V0209999C000010300019N0112651N1+02501+02101999999ADDGA1021+009009999GA2071+030009999GF107991999999999999999999MA1101191999999MW1001REMMET052SBLP 201100Z 00000KT 9999 FEW030 BKN100 25/21 Q1012;EQDQ01+000000PRSWM2
0298832880999992000012012004-13270-043420SY-MT+0458SBLP V0201801N00051030001CN0200001N1+02401+02111101241ADDAA199000091GA1021+009009999GA2071+030009999GF108991031011008001041061KA1240N+02181MA1101291096141MD1999999-0031MW1001REMSYN076AAXX  20124 83288 32598 81801 10240 20211 39614 40124 83146 333 20218 59003;MET052SBLP 201200Z 00000KT 9999 FEW030 BKN100 26/21 Q1013;EQDQ01+000000PRSWM2Q02  00002PRCP99
0162832880999992000012013004-13270-043420FM-15+0458SBLP V0209999C000012200019N0112651N1+02601+02101999999ADDGA1021+009009999GA2021+030009999GF104991999999999999999999MA1101391999999MW1001REMMET052SBLP 201300Z 00000KT 9999 SCT030 SCT100 26/21 Q1014;EQDQ01+000000PRSWM2
0162832880999992000012015004-13270-043420FM-15+0458SBLP V0203601N003110300019N0112651N1+02801+02101999999ADDGA1021+009009999GA2071+030009999GF107991999999999999999999MA1101191999999MW1001REMMET052SBLP 201500Z 36006KT 9999 SCT030 BKN100 28/21 Q1012;EQDQ01+000000PRSWM2
0162832880999992000012016004-13270-043420FM-15+0458SBLP V0203001N002110300019N0112651N1+02801+02101999999ADDGA1021+012009999GA2071+030009999GF107991999999999999999999MA1101081999999MW1001REMMET052SBLP 201600Z 30004KT 9999 SCT040 BKN100 28/21 Q1011;EQDQ01+000000PRSWM2
0162832880999992000012017004-13270-043420FM-15+0458SBLP V0203601N002110300019N0112651N1+02901+02101999999ADDGA1021+009009999GA2071+030009999GF107991999999999999999999MA1101021999999MW1001REMMET052SBLP 201700Z 36004KT 9999 FEW030 BKN100 29/21 Q1010;EQDQ01+000000PRSWM2
0279832880999992000012018004-13270-043420SY-MT+0458SBLP V0203601N00101030001CN0200001N1+02981+02231100811ADDAA199000091GA1021+009009999GA2071+030009999GF107991031081008001011021MA1100811095741MD1999999+0021MW1001REMSYN070AAXX  20184 83288 32598 73602 10298 20223 39574 40081 83812 333 58002;MET052SBLP 201800Z 36006KT 9999 FEW030 BKN100 31/22 Q1008;EQDQ01+000000PRSWM2Q02  00002PRCP99
0162832880999992000012019004-13270-043420FM-15+0458SBLP V0200301N003110300019N0112651N1+03101+02201999999ADDGA1021+009009999GA2071+030009999GF107991999999999999999999MA1100811999999MW1001REMMET052SBLP 201900Z 03006KT 9999 SCT030 BKN100 31/22 Q1008;EQDQ01+000000PRSWM2
0162832880999992000012020004-13270-043420FM-15+0458SBLP V0202401N002110300019N0112651N1+03001+02201999999ADDGA1021+009009999GA2071+030009999GF107991999999999999999999MA1100811999999MW1001REMMET052SBLP 202000Z 24004KT 9999 SCT030 BKN100 30/22 Q1008;EQDQ01+000000PRSWM2
0162832880999992000012021004-13270-043420FM-15+0458SBLP V0209999C000010300019N0112651N1+02901+02201999999ADDGA1021+006009999GA2071+030009999GF107991999999999999999999MA1100811999999MW1001REMMET052SBLP 202100Z 00000KT 9999 FEW020 BKN100 29/22 Q1008;EQDQ01+000000PRSWM2
0186832880999992000012100004-13270-043420FM-12+0458SBLP V0209999C000010450019N9999999N1+02681+02241101011ADDAA199000091GF106991041051008001031001KA1240M+03021MA1999999095921MD1999999+0111REMSYN076AAXX  21004 83288 325// 60000 10268 20224 39592 40101 84530 333 10302 58011;EQDQ01  00002PRCP99
0162832880999992000012109004-13270-043420FM-15+0458SBLP V0200601N002110300019N0112651N1+02201+02101999999ADDGA1021+006009999GA2071+030009999GF107991999999999999999999MA1101021999999MW1001REMMET052SBLP 210900Z 06004KT 9999 SCT020 BKN100 22/21 Q1010;EQDQ01+000000PRSWM2
0162832880999992000012110004-13270-043420FM-15+0458SBLP V0203601N003110300019N0112651N1+02201+02101999999ADDGA1021+006009999GA2071+030009999GF107991999999999999999999MA1101021999999MW1001REMMET052SBLP 211000Z 36006KT 9999 FEW020 BKN100 22/21 Q1010;EQDQ01+000000PRSWM2
0162832880999992000012111004-13270-043420FM-15+0458SBLP V0200301N002110300019N0112651N1+02301+02201999999ADDGA1021+006009999GA2071+030009999GF107991999999999999999999MA1101021999999MW1001REMMET052SBLP 211100Z 03004KT 9999 SCT020 BKN100 23/22 Q1010;EQDQ01+000000PRSWM2
0326832880999992000012112004-13270-043420SY-MT+0458SBLP V0202701N000510300019N0200001N1+02391+02151101111ADDAA124000391AY151061AY251061GA1021+006009999GA2071+030009999GF108991041051008001021999KA1240N+02251MA1101081096021MD1999999-0121MW1031REMSYN088AAXX  21124 83288 21598 82701 10239 20215 39602 40111 70355 8452/ 333 20225 59012 69934;MET052SBLP 211200Z 36004KT 9999 SCT020 BKN100 25/22 Q1011;EQDQ01+000000PRSWM2Q02    003PRSWM1
0185832880999992000012113004-13270-043420FM-15+0458SBLP V0203601N003110300019N0112651N1+02601+02101999999ADDGA1021+006009999GA2021+009009999GA3071+030009999GF107991999999999999999999MA1101191999999MW1001REMMET059SBLP 211300Z 36006KT 9999 SCT020 FEW030 BKN100 26/21 Q1012;EQDQ01+000000PRSWM2
0162832880999992000012114004-13270-043420FM-15+0458SBLP V0203601N003110060019N0112651N1+02701+02201999999ADDGA1071+006009999GA2071+030009999GF107991999999999999999999MA1101191999999MW1001REMMET052SBLP 211400Z 36006KT 9999 BKN020 BKN100 27/22 Q1012;EQDQ01+000000PRSWM2
0162832880999992000012115004-13270-043420FM-15+0458SBLP V0203601N002110300019N0112651N1+02701+02201999999ADDGA1021+009009999GA2071+030009999GF107991999999999999999999MA1101191999999MW1001REMMET052SBLP 211500Z 36004KT 9999 FEW030 BKN100 27/22 Q1012;EQDQ01+000000PRSWM2
0162832880999992000012116004-13270-043420FM-15+0458SBLP V0203601N003110300019N0112651N1+02901+02201999999ADDGA1021+009009999GA2071+030009999GF107991999999999999999999MA1101021999999MW1001REMMET052SBLP 211600Z 36006KT 9999 SCT030 BKN100 29/22 Q1010;EQDQ01+000000PRSWM2
0162832880999992000012117004-13270-043420FM-15+0458SBLP V0203601N003110300019N0112651N1+03001+02201999999ADDGA1021+009009999GA2071+030009999GF107991999999999999999999MA1100911999999MW1001REMMET052SBLP 211700Z 36006KT 9999 SCT030 BKN100 30/22 Q1009;EQDQ01+000000PRSWM2
0301832880999992000012118004-13270-043420SY-MT+0458SBLP V0203601N001510300019N0200001N1+02581+02101100851ADDAA106003091AY151061AY251061GA1021+009009999GA2071+030009999GF108991061081008001021999MA1100811095741MD1999999+0001MW1031MW2611REMSYN082AAXX  21184 83288 21598 83603 10258 20210 39574 40085 70355 8682/ 333 58000 60031;MET056SBLP 211800Z 36006KT 6000 -RA SCT030 BKN100 30/22 Q1008;EQDQ01    003PRSWM1
0162832880999992000012119004-13270-043420FM-15+0458SBLP V0203601N003110300019N0112651N1+03001+02001999999ADDGA1021+009009999GA2071+030009999GF107991999999999999999999MA1100811999999MW1001REMMET052SBLP 211900Z 36006KT 9999 SCT030 BKN100 30/20 Q1008;EQDQ01+000000PRSWM2
0162832880999992000012120004-13270-043420FM-15+0458SBLP V0200901N003110300019N0112651N1+02901+02101999999ADDGA1021+009009999GA2071+030009999GF107991999999999999999999MA1100811999999MW1001REMMET052SBLP 212000Z 09006KT 9999 SCT030 BKN100 29/21 Q1008;EQDQ01+000000PRSWM2
0214832880999992000012121004-13270-043420FM-15+0458SBLP V0202701N006210300019N0060001N1+02901+02101999999ADDGA1021+009009999GA2021+012009099GA3071+030009999GF107991999999999999999999MA1100811999999MW1811MW2951REMMET066SBLP 212100Z 27012KT 6000 TSRA SCT030 FEW040CB BKN100 29/21 Q1008;EQDQ01+000003PRSWM1Q02    003PRSWM1
0220832880999992000012200004-13270-043420FM-12+0458SBLP V0200901N001010075019N9999999N1+02061+02011101311ADDAA106015091AY161061AY251061GF108991999051008001021999KA1240M+02931MA1999999096161MD1999999+0241MW1031REMSYN088AAXX  22004 83288 215// 80902 10206 20201 39616 40131 70365 8852/ 333 10293 58024 60151;EQDQ01+000082SCOTLC
0162832880999992000012209004-13270-043420FM-15+0458SBLP V0200901N003110300019N0112651N1+02101+02001999999ADDGA1021+004509999GA2071+030009999GF107991999999999999999999MA1101191999999MW1001REMMET052SBLP 220900Z 09006KT 9999 SCT015 BKN100 21/20 Q1012;EQDQ01+000000PRSWM2
0162832880999992000012210004-13270-043420FM-15+0458SBLP V0200901N003110300019N0112651N1+02201+02001999999ADDGA1021+004509999GA2071+030009999GF107991999999999999999999MA1101291999999MW1001REMMET052SBLP 221000Z 09006KT 9999 SCT015 BKN100 22/20 Q1013;EQDQ01+000000PRSWM2
0162832880999992000012211004-13270-043420FM-15+0458SBLP V0203601N003110300019N0112651N1+02301+02101999999ADDGA1021+004509999GA2071+030009999GF107991999999999999999999MA1101291999999MW1001REMMET052SBLP 221100Z 36006KT 9999 SCT015 BKN100 23/21 Q1013;EQDQ01+000000PRSWM2
0318832880999992000012212004-13270-043420SY-MT+0458SBLP V0203601N001510300019N0200001N1+02421+02171101331ADDAA124019191AY161061GA1021+006009999GA2071+030009999GF108991021081008001031021KA1240N+02061MA1101291096181MD1999999+0161MW1021REMSYN088AAXX  22124 83288 21598 83603 10242 20217 39618 40133 7026/ 82832 333 20206 58016 60194;MET052SBLP 221200Z 36006KT 9999 FEW020 BKN100 25/21 Q1013;EQDQ01+000000PRSWM2Q02    003PRSWM1
0162832880999992000012213004-13270-043420FM-15+0458SBLP V0203601N003110300019N0112651N1+02701+02101999999ADDGA1021+009009999GA2071+030009999GF107991999999999999999999MA1101291999999MW1001REMMET052SBLP 221300Z 36006KT 9999 FEW030 BKN100 27/21 Q1013;EQDQ01+000000PRSWM2
0162832880999992000012215004-13270-043420FM-15+0458SBLP V0203601N003110300019N0112651N1+02901+02101999999ADDGA1021+009009999GA2071+030009999GF107991999999999999999999MA1101191999999MW1001REMMET052SBLP 221500Z 36006KT 9999 SCT030 BKN100 29/21 Q1012;EQDQ01+000000PRSWM2
0162832880999992000012217004-13270-043420FM-15+0458SBLP V0203601N003110300019N0112651N1+03001+02201999999ADDGA1021+009009999GA2071+030009999GF107991999999999999999999MA1101081999999MW1001REMMET052SBLP 221700Z 36006KT 9999 SCT030 BKN100 30/22 Q1011;EQDQ01+000000PRSWM2
0279832880999992000012218004-13270-043420SY-MT+0458SBLP V0203601N001510300019N0200001N1+02961+02281100971ADDAA199000091GA1021+009009999GA2071+030009999GF105991031051008001001051MA1101021095871MD1999999+0131MW1001REMSYN070AAXX  22184 83288 32598 53603 10296 20228 39587 40097 83505 333 58013;MET052SBLP 221800Z 36006KT 9999 SCT030 BKN100 30/22 Q1010;EQDQ01+000000PRSWM2Q02  00002PRCP99
0162832880999992000012219004-13270-043420FM-15+0458SBLP V0203601N003110300019N0112651N1+03001+02201999999ADDGA1021+009009999GA2071+030009999GF107991999999999999999999MA1100911999999MW1001REMMET052SBLP 221900Z 36006KT 9999 SCT030 BKN100 30/22 Q1009;EQDQ01+000000PRSWM2
0162832880999992000012220004-13270-043420FM-15+0458SBLP V0203601N003110300019N0112651N1+03001+02101999999ADDGA1021+009009999GA2071+030009999GF107991999999999999999999MA1100911999999MW1001REMMET052SBLP 222000Z 36006KT 9999 SCT030 BKN100 30/21 Q1009;EQDQ01+000000PRSWM2
0162832880999992000012221004-13270-043420FM-15+0458SBLP V0203601N003112200019N0112651N1+02901+02101999999ADDGA1021+009009999GA2021+030009999GF104991999999999999999999MA1100911999999MW1001REMMET052SBLP 222100Z 36006KT 9999 FEW030 SCT100 29/21 Q1009;EQDQ01+000000PRSWM2
0186832880999992000012300004-13270-043420FM-12+0458SBLP V0203601N001512200019N9999999N1+02301+02071101111ADDAA199000091GF104991021031008001041001KA1240M+02981MA1999999095991MD1999999-0171REMSYN076AAXX  23004 83288 325// 43603 10230 20207 39599 40111 82340 333 10298 59017;EQDQ01  00002PRCP99
0162832880999992000012309004-13270-043420FM-15+0458SBLP V0203601N003110300019N0112651N1+02101+02101999999ADDGA1021+003009999GA2071+030009999GF107991999999999999999999MA1101191999999MW1001REMMET052SBLP 230900Z 36006KT 9999 SCT010 BKN100 21/21 Q1012;EQDQ01+000000PRSWM2
0162832880999992000012310004-13270-043420FM-15+0458SBLP V0203601N003110300019N0112651N1+02201+02101999999ADDGA1021+003009999GA2071+030009999GF107991999999999999999999MA1101191999999MW1001REMMET052SBLP 231000Z 36006KT 9999 SCT010 BKN100 22/21 Q1012;EQDQ01+000000PRSWM2
0326832880999992000012312004-13270-043420SY-MT+0458SBLP V0203601N00051030001CN0200001N1+02241+02081101301ADDAA124016091AY161061AY251061GA1021+003009999GA2071+030009999GF108991061051008001021999KA1240N+02031MA1101391096161MD1999999-0021MW1021REMSYN088AAXX  23124 83288 21598 83601 10224 20208 39616 40130 70265 8652/ 333 20203 59002 60164;MET052SBLP 231200Z 36006KT 9999 SCT010 BKN100 25/21 Q1014;EQDQ01+000000PRSWM2Q02    003PRSWM1
0162832880999992000012313004-13270-043420FM-15+0458SBLP V0203601N003110300019N0112651N1+02601+02101999999ADDGA1021+003009999GA2071+030009999GF107991999999999999999999MA1101391999999MW1001REMMET052SBLP 231300Z 36006KT 9999 SCT010 BKN100 26/21 Q1014;EQDQ01+000000PRSWM2
0162832880999992000012314004-13270-043420FM-15+0458SBLP V0203601N003110300019N0112651N1+02701+02101999999ADDGA1021+003009999GA2071+030009999GF107991999999999999999999MA1101291999999MW1001REMMET052SBLP 231400Z 36006KT 9999 SCT010 BKN100 27/21 Q1013;EQDQ01+000000PRSWM2
0162832880999992000012315004-13270-043420FM-15+0458SBLP V0203601N003110300019N0112651N1+02701+02101999999ADDGA1021+009009999GA2071+030009999GF107991999999999999999999MA1101191999999MW1001REMMET052SBLP 231500Z 36006KT 9999 FEW030 BKN100 27/21 Q1012;EQDQ01+000000PRSWM2
0139832880999992000012316004-13270-043420FM-15+0458SBLP V0209999C000012200019N0112651N1+02901+02101999999ADDGA1021+009009999GF104991999999999999999999MA1101021999999MW1001REMMET045SBLP 231600Z 00000KT 9999 SCT030 29/21 Q1010;EQDQ01+000000PRSWM2
0162832880999992000012317004-13270-043420FM-15+0458SBLP V0203601N003112200019N0112651N1+03001+02201999999ADDGA1021+009009999GA2021+030009999GF104991999999999999999999MA1100911999999MW1001REMMET052SBLP 231700Z 36006KT 9999 SCT030 SCT100 30/22 Q1009;EQDQ01+000000PRSWM2
0256832880999992000012318004-13270-043420SY-MT+0458SBLP V0203601N001012200019N0200001N1+02921+02271100881ADDAA199000091GA1021+009009999GF106991041021008001021041MA1100811095791MD1999999-0081MW1001REMSYN070AAXX  23184 83288 32598 63602 10292 20227 39579 40088 84224 333 59008;MET045SBLP 231800Z 36008KT 9999 SCT030 30/22 Q1008;EQDQ01+000000PRSWM2Q02  00002PRCP99
0162832880999992000012319004-13270-043420FM-15+0458SBLP V0203601N004112200019N0112651N1+03001+02201999999ADDGA1021+009009999GA2021+030009999GF104991999999999999999999MA1100811999999MW1001REMMET052SBLP 231900Z 36008KT 9999 SCT030 SCT100 30/22 Q1008;EQDQ01+000000PRSWM2
0206832880999992000012320004-13270-043420FM-15+0458SBLP V0202701N004110300019N0112651N1+02601+02201999999ADDGA1021+009009999GA2021+012009099GA3071+030009999GF107991999999999999999999MA1100911999999MW1171REMMET064SBLP 232000Z 27008KT 9999 TS SCT030 FEW040CB BKN100 26/22 Q1009;EQDQ01+000003PRSWM1Q02    003PRSWM1
0206832880999992000012321004-13270-043420FM-15+0458SBLP V0202701N004110300019N0112651N1+02501+02001999999ADDGA1021+009009999GA2021+012009099GA3071+030009999GF107991999999999999999999MA1100911999999MW1171REMMET064SBLP 232100Z 27008KT 9999 TS SCT030 FEW040CB BKN100 25/20 Q1009;EQDQ01+000003PRSWM1Q02    003PRSWM1
0186832880999992000012400004-13270-043420FM-12+0458SBLP V0202701N001510450019N9999999N1+02301+02071101161ADDAA199000091GF105991031051008001011001KA1240M+02961MA1999999096031MD1999999+0041REMSYN076AAXX  24004 83288 325// 52703 10230 20207 39603 40116 83510 333 10296 58004;EQDQ01  00002PRCP99
0162832880999992000012409004-13270-043420FM-15+0458SBLP V0200601N003110300019N0112651N1+02201+02101999999ADDGA1021+009009999GA2071+030009999GF107991999999999999999999MA1101081999999MW1001REMMET052SBLP 240900Z 06006KT 9999 FEW030 BKN100 22/21 Q1011;EQDQ01+000000PRSWM2
0161832880999992000012410004-13270-043420FM-15+0458SBLP V0203601N00311006001CN0112651N1+02201+02101999999ADDGA1071+000159999GA2021+006009999GF107991999999999999999999MA1101191999999MW1001REMMET051SBLP 241000Z 36006KT 9999 FEW020 BKN00 22/21 Q1012;EQDQ01+000000PRSWM2
0162832880999992000012411004-13270-043420FM-15+0458SBLP V0203601N003110300019N0112651N1+02301+02201999999ADDGA1021+006009999GA2071+030009999GF107991999999999999999999MA1101191999999MW1001REMMET052SBLP 241100Z 36006KT 9999 FEW020 BKN100 23/22 Q1012;EQDQ01+000000PRSWM2
0298832880999992000012412004-13270-043420SY-MT+0458SBLP V0203601N001511050019N0200001N1+02501+02211101221ADDAA199000091GA1021+006009999GA2021+030009999GF105991021011008001051021KA1240N+02181MA1101191096101MD1999999-0061MW1001REMSYN076AAXX  24124 83288 32598 53603 10250 20221 39610 40122 82152 333 20218 59006;MET052SBLP 241200Z 36006KT 9999 FEW020 SCT100 26/21 Q1012;EQDQ01+000000PRSWM2Q02  00002PRCP99
0177832880999992000012413004-13270-043420FM-15+0458SBLP V0203601N003112200019N0112651N1+02801+99999999999ADDGA1021+009009999GA2021+030009999GF104991999999999999999999MA1101291999999MW1001REMMET051SBLP 241300Z 36006KT 9999 FEW030 SCT100 28/2 Q1013;EQDQ01+000203ATOD  Q02+000000PRSWM2
0162832880999992000012414004-13270-043420FM-15+0458SBLP V0209999C000010300019N0112651N1+02801+02001999999ADDGA1021+009009999GA2071+030009999GF107991999999999999999999MA1101191999999MW1001REMMET052SBLP 241400Z 00000KT 9999 FEW030 BKN100 28/20 Q1012;EQDQ01+000000PRSWM2
0162832880999992000012415004-13270-043420FM-15+0458SBLP V0203601N003110300019N0112651N1+03001+01901999999ADDGA1021+009009999GA2071+030009999GF107991999999999999999999MA1101191999999MW1001REMMET052SBLP 241500Z 36006KT 9999 SCT030 BKN100 30/19 Q1012;EQDQ01+000000PRSWM2
0162832880999992000012416004-13270-043420FM-15+0458SBLP V0203601N003112200019N0112651N1+03101+02101999999ADDGA1021+009009999GA2021+030009999GF104991999999999999999999MA1101021999999MW1001REMMET052SBLP 241600Z 36006KT 9999 SCT030 SCT100 31/21 Q1010;EQDQ01+000000PRSWM2
0139832880999992000012418004-13270-043420FM-15+0458SBLP V0203601N003112200019N0112651N1+03101+02101999999ADDGA1021+009009999GF104991999999999999999999MA1100811999999MW1001REMMET045SBLP 241800Z 36006KT 9999 SCT030 31/21 Q1008;EQDQ01+000000PRSWM2
0139832880999992000012419004-13270-043420FM-15+0458SBLP V0203601N003110090019N0112651N1+03201+02101999999ADDGA1071+009009999GF107991999999999999999999MA1100811999999MW1001REMMET045SBLP 241900Z 36006KT 9999 BKN030 32/21 Q1008;EQDQ01+000000PRSWM2
0139832880999992000012420004-13270-043420FM-15+0458SBLP V0203601N003110300019N0112651N1+02901+02101999999ADDGA1071+030009999GF107991999999999999999999MA1100811999999MW1001REMMET045SBLP 242000Z 36006KT 9999 BKN100 29/21 Q1008;EQDQ01+000000PRSWM2
0139832880999992000012421004-13270-043420FM-15+0458SBLP V0201801N002112200019N0112651N1+02801+02201999999ADDGA1021+009009999GF104991999999999999999999MA1100811999999MW1001REMMET045SBLP 242100Z 18004KT 9999 SCT030 28/22 Q1008;EQDQ01+000000PRSWM2
0201832880999992000012500004-13270-043420FM-12+0458SBLP V0200901N000510450019N9999999N1+02341+02171101091ADDAA106000591AY161061AY251061GF105991041011008001021001KA1240M+03091MA1999999095981MD1999999+0051MW1021REMSYN088AAXX  25004 83288 215// 50901 10234 20217 39598 40109 70265 84120 333 10309 58005 69961;
0162832880999992000012509004-13270-043420FM-15+0458SBLP V0203601N003110300019N0112651N1+02101+02001999999ADDGA1021+003009999GA2071+030009999GF107991999999999999999999MA1101191999999MW1001REMMET052SBLP 250900Z 36006KT 9999 SCT010 BKN100 21/20 Q1012;EQDQ01+000000PRSWM2
0162832880999992000012510004-13270-043420FM-15+0458SBLP V0203601N003110300019N0112651N1+02301+02101999999ADDGA1021+003009999GA2071+030009999GF107991999999999999999999MA1101291999999MW1001REMMET052SBLP 251000Z 36006KT 9999 SCT010 BKN100 23/21 Q1013;EQDQ01+000000PRSWM2
0162832880999992000012511004-13270-043420FM-15+0458SBLP V0203601N003110300019N0112651N1+02501+02101999999ADDGA1021+004509999GA2071+030009999GF107991999999999999999999MA1101391999999MW1001REMMET052SBLP 251100Z 36006KT 9999 SCT015 BKN100 25/21 Q1014;EQDQ01+000000PRSWM2
0162832880999992000012512004-13270-043420FM-15+0458SBLP V0203601N003112200019N0112651N1+02601+02101999999ADDGA1021+004509999GA2021+030009999GF104991999999999999999999MA1101391999999MW1001REMMET052SBLP 251200Z 36006KT 9999 FEW015 SCT100 26/21 Q1014;EQDQ01+000000PRSWM2
0162832880999992000012513004-13270-043420FM-15+0458SBLP V0203601N003112200019N0112651N1+02701+02101999999ADDGA1021+006009999GA2021+030009999GF104991999999999999999999MA1101391999999MW1001REMMET052SBLP 251300Z 36006KT 9999 FEW020 SCT100 27/21 Q1014;EQDQ01+000000PRSWM2
0139832880999992000012514004-13270-043420FM-15+0458SBLP V0202701N003112200019N0112651N1+02801+02101999999ADDGA1021+009009999GF104991999999999999999999MA1101391999999MW1001REMMET045SBLP 251400Z 27006KT 9999 SCT030 28/21 Q1014;EQDQ01+000000PRSWM2
0139832880999992000012515004-13270-043420FM-15+0458SBLP V0202701N003112200019N0112651N1+02801+02101999999ADDGA1021+009009999GF104991999999999999999999MA1101291999999MW1001REMMET045SBLP 251500Z 27006KT 9999 SCT030 28/21 Q1013;EQDQ01+000000PRSWM2
0130832880999992000012516004-13270-043420FM-15+0458SBLP V0209999C000012200019N0112651N1+99999+99999999999ADDGA1021+009009999GF104991999999999999999999MW1001REMMET051SBLP 251600Z 00000KT 9999 SCT030BKN100 29/22 Q1012;EQDQ01+000000PRSWM2
0162832880999992000012517004-13270-043420FM-15+0458SBLP V0209999C000010300019N0112651N1+03001+02301999999ADDGA1021+009009999GA2071+030009999GF107991999999999999999999MA1101081999999MW1001REMMET052SBLP 251700Z 00000KT 9999 SCT030 BKN100 30/23 Q1011;EQDQ01+000000PRSWM2
0279832880999992000012518004-13270-043420SY-MT+0458SBLP V0202701N000510300019N0200001N1+02801+02181100991ADDAA199000091GA1021+009009999GA2071+030009999GF105991041011008001021021MA1101021095891MD1999999+0151MW1001REMSYN070AAXX  25184 83288 32598 52701 10280 20218 39589 40099 84122 333 58015;MET052SBLP 251800Z 00000KT 9999 SCT030 BKN100 29/22 Q1010;EQDQ01+000000PRSWM2Q02  00002PRCP99
0162832880999992000012519004-13270-043420FM-15+0458SBLP V0209999C000010300019N0112651N1+02901+02201999999ADDGA1021+009009999GA2071+030009999GF107991999999999999999999MA1100911999999MW1001REMMET052SBLP 251900Z 00000KT 9999 FEW030 BKN100 29/22 Q1009;EQDQ01+000000PRSWM2
0162832880999992000012520004-13270-043420FM-15+0458SBLP V0209999C000010300019N0112651N1+02901+02201999999ADDGA1021+009009999GA2071+030009999GF107991999999999999999999MA1100911999999MW1001REMMET052SBLP 252000Z 00000KT 9999 FEW030 BKN100 29/22 Q1009;EQDQ01+000000PRSWM2
0162832880999992000012521004-13270-043420FM-15+0458SBLP V0209999C000010300019N0112651N1+02901+02201999999ADDGA1021+009009999GA2071+030009999GF107991999999999999999999MA1100911999999MW1001REMMET052SBLP 252100Z 00000KT 9999 FEW030 BKN100 29/22 Q1009;EQDQ01+000000PRSWM2
0186832880999992000012600004-13270-043420FM-12+0458SBLP V0200501N000512200019N9999999N1+02491+02271101101ADDAA199000091GF102991021021008001001001KA1240M+02921MA1999999095991MD1999999+0011REMSYN076AAXX  26004 83288 325// 20501 10249 20227 39599 40110 82200 333 10292 58001;EQDQ01  00002PRCP99
0162832880999992000012609004-13270-043420FM-15+0458SBLP V0209999C000010900019N0112651N1+02201+02101999999ADDGA1021+009009999GA2071+090009999GF107991999999999999999999MA1101291999999MW1001REMMET052SBLP 260900Z 00000KT 9999 SCT030 BKN300 22/21 Q1013;EQDQ01+000000PRSWM2
0162832880999992000012610004-13270-043420FM-15+0458SBLP V0209999C000012200019N0112651N1+02301+02201999999ADDGA1021+009009999GA2021+090009999GF104991999999999999999999MA1101391999999MW1001REMMET052SBLP 261000Z 00000KT 9999 FEW030 SCT300 23/22 Q1014;EQDQ01+000000PRSWM2
0091832880999992000012611004-13270-043420FM-15+0458SBLP V0209999C00001220001CN0099001N1+02701+02201999999ADDMA1101391999999MW1001REMMET039SBLP 261100Z 00000KT CAVOK 27/22 Q1014;EQDQ01+000000PRSWM2
0289832880999992000012612004-13270-043420SY-MT+0458SBLP V0209999C000012200019N0500001N1+02621+02291101401ADDAA124004191AY161061GF103991001001999999001051KA1240N+02121MA1101491096291MD1999999-0021MW1011REMSYN088AAXX  26124 83288 21599 30000 10262 20229 39629 40140 7016/ 80005 333 20212 59002 60044;MET039SBLP 261200Z 00000KT CAVOK 29/23 Q1015;EQDQ01+008002SCOLCBQ02+000000PRSWM2Q03    003PRSWM1
0162832880999992000012613004-13270-043420FM-15+0458SBLP V0203601N002112200019N0112651N1+02901+02301999999ADDGA1021+009009999GA2021+090009999GF104991999999999999999999MA1101491999999MW1001REMMET052SBLP 261300Z 36004KT 9999 FEW030 SCT300 29/23 Q1015;EQDQ01+000000PRSWM2
0162832880999992000012614004-13270-043420FM-15+0458SBLP V0200601N003112200019N0112651N1+03001+02301999999ADDGA1021+009009999GA2021+090009999GF104991999999999999999999MA1101391999999MW1001REMMET052SBLP 261400Z 06006KT 9999 SCT030 SCT300 30/23 Q1014;EQDQ01+000000PRSWM2
0139832880999992000012615004-13270-043420FM-15+0458SBLP V0200901N003110090019N0112651N1+03101+02301999999ADDGA1071+009009999GF107991999999999999999999MA1101391999999MW1001REMMET045SBLP 261500Z 09006KT 9999 BKN030 31/23 Q1014;EQDQ01+000000PRSWM2
0139832880999992000012616004-13270-043420FM-15+0458SBLP V0203601N003112200019N0112651N1+03201+02201999999ADDGA1021+009009999GF104991999999999999999999MA1101191999999MW1001REMMET045SBLP 261600Z 36006KT 9999 SCT030 32/22 Q1012;EQDQ01+000000PRSWM2
0139832880999992000012617004-13270-043420FM-15+0458SBLP V0203301N003112200019N0112651N1+03301+02201999999ADDGA1021+009009999GF104991999999999999999999MA1101081999999MW1001REMMET045SBLP 261700Z 33006KT 9999 SCT030 33/22 Q1011;EQDQ01+000000PRSWM2
0279832880999992000012618004-13270-043420SY-MT+0458SBLP V0203201N001512200019N0200001N1+03181+02281101001ADDAA199000091GA1021+009009999GA2021+090009999GF104991021021008001001051MA1101021095921MD1999999+0031MW1001REMSYN070AAXX  26184 83288 32598 43203 10318 20228 39592 40100 82205 333 58003;MET052SBLP 261800Z 33004KT 9999 SCT030 SCT300 33/22 Q1010;EQDQ01+000000PRSWM2Q02  00002PRCP99
0162832880999992000012619004-13270-043420FM-15+0458SBLP V0203301N003112200019N0112651N1+03401+02201999999ADDGA1021+009009999GA2021+090009999GF104991999999999999999999MA1100911999999MW1001REMMET052SBLP 261900Z 33006KT 9999 FEW030 SCT300 34/22 Q1009;EQDQ01+000000PRSWM2
0162832880999992000012620004-13270-043420FM-15+0458SBLP V0203601N004112200019N0112651N1+03401+02201999999ADDGA1021+009009999GA2021+090009999GF104991999999999999999999MA1100911999999MW1001REMMET052SBLP 262000Z 36008KT 9999 FEW030 SCT300 34/22 Q1009;EQDQ01+000000PRSWM2
0091832880999992000012621004-13270-043420FM-15+0458SBLP V0203601N00311220001CN0099001N1+03101+02301999999ADDMA1100911999999MW1001REMMET039SBLP 262100Z 36006KT CAVOK 31/23 Q1009;EQDQ01+000000PRSWM2
0196832880999992000012700004-13270-043420FM-12+0458SBLP V0203601N000512200019N9999999N1+02681+02281101131ADDAA199000091GA1001+999999999GF100991001001999999001001KA1240M+03201MA1999999096051MD1999999+0061REMSYN070AAXX  27004 83288 329// 03601 10268 20228 39605 40113 333 10320 58006;EQDQ01  00002PRCP99
0139832880999992000012709004-13270-043420FM-15+0458SBLP V0209999C000010090019N0112651N1+02301+02101999999ADDGA1071+009009999GF107991999999999999999999MA1101191999999MW1001REMMET045SBLP 270900Z 00000KT 9999 BKN030 23/21 Q1012;EQDQ01+000000PRSWM2
0139832880999992000012710004-13270-043420FM-15+0458SBLP V0200301N002110090019N0112651N1+02401+02301999999ADDGA1071+009009999GF107991999999999999999999MA1101291999999MW1001REMMET045SBLP 271000Z 03004KT 9999 BKN030 24/23 Q1013;EQDQ01+000000PRSWM2
0162832880999992000012711004-13270-043420FM-15+0458SBLP V0209999C000010900019N0112651N1+02501+02301999999ADDGA1021+009009999GA2071+090009999GF107991999999999999999999MA1101391999999MW1001REMMET052SBLP 271100Z 00000KT 9999 SCT030 BKN300 25/23 Q1014;EQDQ01+000000PRSWM2
0298832880999992000012712004-13270-043420SY-MT+0458SBLP V0201801N001010450019N0200001N1+02641+02231101391ADDAA199000091GA1021+009009999GA2021+090009999GF105991031021008001021041KA1240N+02221MA1101391096291MD1999999+0001MW1001REMSYN076AAXX  27124 83288 32598 51802 10264 20223 39629 40139 83224 333 20222 58000;MET052SBLP 271200Z 33006KT 9999 FEW030 SCT300 28/23 Q1014;EQDQ01+000000PRSWM2Q02  00002PRCP99
0162832880999992000012713004-13270-043420FM-15+0458SBLP V0200101N003112200019N0112651N1+02901+02201999999ADDGA1021+009009999GA2021+090009999GF104991999999999999999999MA1101391999999MW1001REMMET052SBLP 271300Z 01006KT 9999 SCT030 SCT300 29/22 Q1014;EQDQ01+000000PRSWM2
0162832880999992000012714004-13270-043420FM-15+0458SBLP V0203301N003110900019N0112651N1+03101+02301999999ADDGA1021+009009999GA2071+090009999GF107991999999999999999999MA1101391999999MW1001REMMET052SBLP 271400Z 33006KT 9999 SCT030 BKN300 31/23 Q1014;EQDQ01+000000PRSWM2
0162832880999992000012715004-13270-043420FM-15+0458SBLP V0203301N003112200019N0112651N1+03301+02301999999ADDGA1021+009009999GA2021+090009999GF104991999999999999999999MA1101291999999MW1001REMMET052SBLP 271500Z 33006KT 9999 SCT030 SCT300 33/23 Q1013;EQDQ01+000000PRSWM2
0162832880999992000012716004-13270-043420FM-15+0458SBLP V0203301N003110900019N0112651N1+03301+02301999999ADDGA1021+009009999GA2071+090009999GF107991999999999999999999MA1101191999999MW1001REMMET052SBLP 271600Z 33006KT 9999 SCT030 BKN300 33/23 Q1012;EQDQ01+000000PRSWM2
0162832880999992000012717004-13270-043420FM-15+0458SBLP V0203601N003110900019N0112651N1+03301+02301999999ADDGA1021+009009999GA2071+090009999GF107991999999999999999999MA1101081999999MW1001REMMET052SBLP 271700Z 36006KT 9999 SCT030 BKN300 33/23 Q1011;EQDQ01+000000PRSWM2
0295832880999992000012718004-13270-043420SY-MT+0458SBLP V0202701N00101090001CN0200001N1+03241+02131100901ADDAA199000091GA1021+009009999GA2071+090009999GF199999041021008001001021MA1101021095841MD1999999-0021MW1001REMSYN070AAXX  27184 83288 32598 52702 10324 20213 39584 40090 84202 333 59002;MET052SBLP 271800Z 36006KT 9999 SCT030 BKN300 34/21 Q1010;EQDQ01+000052SCOTCVQ02+000000PRSWM2Q03  00002PRCP99
0162832880999992000012719004-13270-043420FM-15+0458SBLP V0203601N003110900019N0112651N1+03501+02201999999ADDGA1021+009009999GA2071+090009999GF107991999999999999999999MA1100911999999MW1001REMMET052SBLP 271900Z 36006KT 9999 SCT030 BKN300 35/22 Q1009;EQDQ01+000000PRSWM2
0162832880999992000012721004-13270-043420FM-15+0458SBLP V0203501N003110900019N0112651N1+03101+02301999999ADDGA1021+009009999GA2071+090009999GF107991999999999999999999MA1100911999999MW1001REMMET052SBLP 272100Z 35006KT 9999 FEW030 BKN300 31/23 Q1009;EQDQ01+000000PRSWM2
0091832880999992000012809004-13270-043420FM-15+0458SBLP V0209999C00001220001CN0099001N1+02301+02101999999ADDMA1101191999999MW1001REMMET039SBLP 280900Z 00000KT CAVOK 23/21 Q1012;EQDQ01+000000PRSWM2
0162832880999992000012810004-13270-043420FM-15+0458SBLP V0200901N003110300019N0112651N1+02301+02101999999ADDGA1021+009009999GA2071+030009999GF107991999999999999999999MA1101291999999MW1001REMMET052SBLP 281000Z 09006KT 9999 FEW030 BKN100 23/21 Q1013;EQDQ01+000000PRSWM2
0162832880999992000012811004-13270-043420FM-15+0458SBLP V0201801N003110300019N0112651N1+02501+02101999999ADDGA1021+009009999GA2071+030009999GF107991999999999999999999MA1101391999999MW1001REMMET052SBLP 281100Z 18006KT 9999 FEW030 BKN100 25/21 Q1014;EQDQ01+000000PRSWM2
0162832880999992000012812004-13270-043420FM-15+0458SBLP V0201201N003112200019N0112651N1+02801+02001999999ADDGA1021+009009999GA2021+030009999GF104991999999999999999999MA1101391999999MW1001REMMET052SBLP 281200Z 12006KT 9999 FEW030 SCT100 28/20 Q1014;EQDQ01+000000PRSWM2
0162832880999992000012813004-13270-043420FM-15+0458SBLP V0209999C000012200019N0112651N1+03001+01901999999ADDGA1021+009009999GA2021+030009999GF104991999999999999999999MA1101391999999MW1001REMMET052SBLP 281300Z 00000KT 9999 FEW030 SCT100 30/19 Q1014;EQDQ01+000000PRSWM2
0162832880999992000012814004-13270-043420FM-15+0458SBLP V0203501N002112200019N0112651N1+03101+02001999999ADDGA1021+009009999GA2021+030009999GF104991999999999999999999MA1101291999999MW1001REMMET052SBLP 281400Z 35004KT 9999 SCT030 SCT100 31/20 Q1013;EQDQ01+000000PRSWM2
0162832880999992000012815004-13270-043420FM-15+0458SBLP V0203601N003112200019N0112651N1+03201+01901999999ADDGA1021+009009999GA2021+030009999GF104991999999999999999999MA1101191999999MW1001REMMET052SBLP 281500Z 36006KT 9999 SCT030 SCT100 32/19 Q1012;EQDQ01+000000PRSWM2
0162832880999992000012816004-13270-043420FM-15+0458SBLP V0203601N003112200019N0112651N1+03201+02001999999ADDGA1021+009009999GA2021+030009999GF104991999999999999999999MA1101081999999MW1001REMMET052SBLP 281600Z 36006KT 9999 SCT030 SCT100 32/20 Q1011;EQDQ01+000000PRSWM2
0139832880999992000012817004-13270-043420FM-15+0458SBLP V0203601N003112200019N0112651N1+03301+02001999999ADDGA1021+009009999GF104991999999999999999999MA1101021999999MW1001REMMET045SBLP 281700Z 36006KT 9999 SCT030 33/20 Q1010;EQDQ01+000000PRSWM2
0256832880999992000012818004-13270-043420SY-MT+0458SBLP V0202701N000512200019N0200001N1+03261+02241100941ADDAA199000091GA1021+009009999GF105991031021008001001081MA1100911095881MD1999999+0041MW1001REMSYN070AAXX  28184 83288 32598 52701 10326 20224 39588 40094 83208 333 58004;MET045SBLP 281800Z 36006KT 9999 SCT030 34/20 Q1009;EQDQ01+000000PRSWM2Q02  00002PRCP99
0139832880999992000012819004-13270-043420FM-15+0458SBLP V0203601N003112200019N0112651N1+03401+02001999999ADDGA1021+009009999GF104991999999999999999999MA1100911999999MW1001REMMET045SBLP 281900Z 36006KT 9999 SCT030 34/20 Q1009;EQDQ01+000000PRSWM2
0139832880999992000012820004-13270-043420FM-15+0458SBLP V0202701N003110090019N0112651N1+03401+02101999999ADDGA1071+009009999GF107991999999999999999999MA1100911999999MW1001REMMET045SBLP 282000Z 27006KT 9999 BKN030 34/21 Q1009;EQDQ01+000000PRSWM2
0139832880999992000012821004-13270-043420FM-15+0458SBLP V0201801N003110090019N0112651N1+03201+02101999999ADDGA1071+009009999GF107991999999999999999999MA1101021999999MW1001REMMET045SBLP 282100Z 18006KT 9999 BKN030 32/21 Q1010;EQDQ01+000000PRSWM2
0196832880999992000012900004-13270-043420FM-12+0458SBLP V0200901N000512200019N9999999N1+02541+02211101181ADDAA199000091GA1001+999999999GF100991001001999999001001KA1240M+03261MA1999999096091MD1999999+0041REMSYN070AAXX  29004 83288 329// 00901 10254 20221 39609 40118 333 10326 58004;EQDQ01  00002PRCP99
0139832880999992000012909004-13270-043420FM-15+0458SBLP V0200901N003112200019N0112651N1+02301+02101999999ADDGA1021+009009999GF104991999999999999999999MA1101291999999MW1001REMMET045SBLP 290900Z 09006KT 9999 SCT030 23/21 Q1013;EQDQ01+000000PRSWM2
0139832880999992000012910004-13270-043420FM-15+0458SBLP V0200901N003112200019N0112651N1+02501+02001999999ADDGA1021+009009999GF104991999999999999999999MA1101291999999MW1001REMMET045SBLP 291000Z 09006KT 9999 SCT030 25/20 Q1013;EQDQ01+000000PRSWM2
0139832880999992000012911004-13270-043420FM-15+0458SBLP V0200901N003112200019N0112651N1+02601+02001999999ADDGA1021+009009999GF104991999999999999999999MA1101291999999MW1001REMMET045SBLP 291100Z 09006KT 9999 SCT030 26/20 Q1013;EQDQ01+000000PRSWM2
0275832880999992000012912004-13270-043420SY-MT+0458SBLP V0201401N000511050019N0200001N1+02621+02141101281ADDAA199000091GA1021+009009999GF106991041011008001001021KA1240N+02211MA1101391096181MD1999999-0071MW1001REMSYN076AAXX  29124 83288 32598 61401 10262 20214 39618 40128 84102 333 20221 59007;MET045SBLP 291200Z 09006KT 9999 FEW030 27/21 Q1014;EQDQ01+000000PRSWM2Q02  00002PRCP99
0091832880999992000012913004-13270-043420FM-15+0458SBLP V0209999C00001220001CN0099001N1+02901+02101999999ADDMA1101391999999MW1001REMMET039SBLP 291300Z 00000KT CAVOK 29/21 Q1014;EQDQ01+000000PRSWM2
0139832880999992000012914004-13270-043420FM-15+0458SBLP V0209999C000012200019N0112651N1+02901+02101999999ADDGA1021+009009999GF102991999999999999999999MA1101291999999MW1001REMMET045SBLP 291400Z 00000KT 9999 FEW030 29/21 Q1013;EQDQ01+000000PRSWM2
0139832880999992000012915004-13270-043420FM-15+0458SBLP V0209999C000012200019N0112651N1+03201+02001999999ADDGA1021+009009999GF104991999999999999999999MA1101191999999MW1001REMMET045SBLP 291500Z 00000KT 9999 SCT030 32/20 Q1012;EQDQ01+000000PRSWM2
0139832880999992000012916004-13270-043420FM-15+0458SBLP V0209999C000012200019N0112651N1+03201+02101999999ADDGA1021+009009999GF104991999999999999999999MA1101191999999MW1001REMMET045SBLP 291600Z 00000KT 9999 SCT030 32/21 Q1012;EQDQ01+000000PRSWM2
0162832880999992000012917004-13270-043420FM-15+0458SBLP V0202101N002112200019N0112651N1+03201+02101999999ADDGA1021+009009999GA2021+090009999GF104991999999999999999999MA1101081999999MW1001REMMET052SBLP 291700Z 21004KT 9999 SCT030 SCT300 32/21 Q1011;EQDQ01+000000PRSWM2
0323832880999992000012918004-13270-043420SY-MT+0458SBLP V0201401N000510900019N0200001N1+03001+02271101031ADDAA199000091GA1021+009009999GA2021+012009099GA3071+090009999GF106991051081008001021001MA1101021095951MD1999999+0071MW1171REMSYN070AAXX  29184 83288 32598 61401 10300 20227 39595 40103 85820 333 58007;MET064SBLP 291800Z 18006KT 9999 TS SCT030 FEW040CB BKN300 31/23 Q1010;EQDQ01+000003PRSWM1Q02  00002PRCP99Q03    003PRSWM1
0162832880999992000012919004-13270-043420FM-15+0458SBLP V0201201N003110900019N0112651N1+02801+02301999999ADDGA1021+009009999GA2071+090009999GF107991999999999999999999MA1100911999999MW1001REMMET052SBLP 291900Z 12006KT 9999 FEW030 BKN300 28/23 Q1009;EQDQ01+000000PRSWM2
0162832880999992000012920004-13270-043420FM-15+0458SBLP V0201501N003110900019N0112651N1+02801+02301999999ADDGA1021+009009999GA2071+090009999GF107991999999999999999999MA1100911999999MW1001REMMET052SBLP 292000Z 15006KT 9999 FEW030 BKN300 28/23 Q1009;EQDQ01+000000PRSWM2
0162832880999992000012921004-13270-043420FM-15+0458SBLP V0201501N003110900019N0112651N1+02701+02301999999ADDGA1021+009009999GA2071+090009999GF107991999999999999999999MA1101021999999MW1001REMMET052SBLP 292100Z 15006KT 9999 FEW030 BKN300 27/23 Q1010;EQDQ01+000000PRSWM2
0186832880999992000013000004-13270-043420FM-12+0458SBLP V0201401N000512200019N9999999N1+02501+02171101241ADDAA199000091GF103991021081008001021001KA1240M+03171MA1999999096141MD1999999+0051REMSYN076AAXX  30004 83288 325// 31401 10250 20217 39614 40124 82820 333 10317 58005;EQDQ01  00002PRCP99
0091832880999992000013009004-13270-043420FM-15+0458SBLP V0201601N00211220001CN0099001N1+02201+02201999999ADDMA1101391999999MW1001REMMET039SBLP 300900Z 16004KT CAVOK 22/22 Q1014;EQDQ01+000000PRSWM2
0091832880999992000013010004-13270-043420FM-15+0458SBLP V0209999C00001220001CN0099001N1+02201+02201999999ADDMA1101491999999MW1001REMMET039SBLP 301000Z 00000KT CAVOK 22/22 Q1015;EQDQ01+000000PRSWM2
0091832880999992000013011004-13270-043420FM-15+0458SBLP V0200901N00211220001CN0099001N1+02601+02101999999ADDMA1101491999999MW1001REMMET039SBLP 301100Z 09004KT CAVOK 26/21 Q1015;EQDQ01+000000PRSWM2
0253832880999992000013012004-13270-043420SY-MT+0458SBLP V0200901N001512200019N0200001N1+02701+02111101531ADDAA199000091GF103991001001999999001021KA1240N+02181MA1101591096421MD1999999+0241MW1001REMSYN076AAXX  30124 83288 32998 30903 10270 20211 39642 40153 80002 333 20218 58024;MET039SBLP 301200Z 09008KT CAVOK 28/20 Q1016;EQDQ01+000000PRSWM2Q02  00002PRCP99
0091832880999992000013013004-13270-043420FM-15+0458SBLP V0200901N00211220001CN0099001N1+02901+02101999999ADDMA1101591999999MW1001REMMET039SBLP 301300Z 09004KT CAVOK 29/21 Q1016;EQDQ01+000000PRSWM2
0091832880999992000013014004-13270-043420FM-15+0458SBLP V0201901N00311220001CN0099001N1+03001+02001999999ADDMA1101491999999MW1001REMMET039SBLP 301400Z 19006KT CAVOK 30/20 Q1015;EQDQ01+000000PRSWM2
