0186834980999992000011200004-17730-039250FM-12+000399999V0200901N001512200019N9999999N1+02511+02231101261ADDAA106000091GF104991041001012501021001KA1240M+02951MA1999999101211MD1999999-0221REMSYN076AAXX  12004 83498 326// 40903 10251 20223 30121 40126 84020 333 10295 59022;EQDQ01  00002PRCP06
0201834980999992000011212004-17730-039250FM-12+000399999V0200501N001010450019N0200001N1+02441+02251101331ADDAA124000591AY161061AY261061GF107991041081008001031031KA1240N+02271MA1999999101281MD1999999-0171MW1621REMSYN088AAXX  12124 83498 21598 70502 10244 20225 30128 40133 76266 84833 333 20227 59017 69954;
0167834980999992000022518004-17730-039250FM-12+000399999V0200501N003112200019N0200001N1+03001+02291101001ADDAA199000091GF102991021011008001001001MA1999999100951MD1999999-0121REMSYN070AAXX  25184 83498 32598 20506 10300 20229 30095 40100 82100 333 59012;EQDQ01  00002PRCP99
0182834980999992000061718004-17730-039250FM-12+000399999V02099999999992200019N0200001N1+02541+02091101571ADDAA106007191AY161061AY261061GF104991041021008001001001MA1999999101521MD1999999+0001MW1211REMSYN082AAXX  17184 83498 21598 4//// 10254 20209 30152 40157 72166 84200 333 58000 60071;
0167834980999992000082818004-17730-039250FM-12+000399999V02099999999990120019N0200001N1+02601+02141100921ADDAA199000091GF107991061081008001001091MA1999999100871MD1999999-0191REMSYN070AAXX  28184 83498 32598 7//// 10260 20214 30087 40092 86809 333 59019;EQDQ01  00002PRCP99
