0121821980999991992010100004-01717-045400FM-12+004499999V0200501N00311220001CN0020001N9+02681+02451101001ADDAA106000091AG14000GF100991001001999999001001MA1999999100491MD1999999+0011REMSYN017333   10/// 58001EQDQ01  00003PRCP99
0134821980999991992010112004-01717-045400FM-12+004499999V0200901N00311015001CN0100001N9+02861+02361101001ADDAA106000091AG14000GF105991051021017501001001KA1999N+02391MA1999999100491MD1999999-0201REMSYN017333   20239 59020EQDQ01  00003PRCP99
0115821980999991992010118004-01717-045400FM-12+004499999V0200501N00621220001CN0100001N9+03201+02411100671ADDAA106000091AG14000GF102991021011017501001001MA1999999100161MD1999999-0251REMSYN011333   59025EQDQ01  00003PRCP99
0134821980999991992010212004-01717-045400FM-12+004499999V0200501N00621015001CN0100001N9+02901+02471100901ADDAA106000091AG14000GF105991051021017501001001KA1999N+02491MA1999999100391MD1999999-0101REMSYN017333   20249 59010EQDQ01  00003PRCP99
0115821980999991992010318004-01717-045400FM-12+004499999V0200901N00771015001CN0100001N9+03141+02351100871ADDAA106000091AG14000GF105991051021017501001001MA1999999100361MD1999999+0161REMSYN011333   58016EQDQ01  00003PRCP99
0121821980999991992010400004-01717-045400FM-12+004499999V0200901N00361220001CN0100001N9+02621+02371100911ADDAA106000091AG14000GF100991001001999999001001MA1999999100401MD1999999+0161REMSYN017333   10/// 58016EQDQ01  00003PRCP99
0134821980999991992010412004-01717-045400FM-12+004499999V0200901N00511220001CN0100001N9+02911+02341101021ADDAA106000091AG14000GF103991031021017501001001KA1999N+02441MA1999999100511MD1999999+0101REMSYN017333   20244 58010EQDQ01  00003PRCP99
0115821980999991992010418004-01717-045400FM-12+004499999V0200901N00511220001CN0100001N9+03171+02361100851ADDAA106000091AG14000GF104991041021017501001001MA1999999100341MD1999999-0021REMSYN011333   59002EQDQ01  00003PRCP99
0121821980999991992010500004-01717-045400FM-12+004499999V0200501N00151220001CN0100001N9+02661+02371100921ADDAA106000091AG14000GF100991001001999999001001MA1999999100411MD1999999+0011REMSYN017333   10/// 58001EQDQ01  00003PRCP99
0115821980999991992010518004-01717-045400FM-12+004499999V0200901N002119999999N0100001N9+03261+02301100711ADDAA106000091AG14000GF106991031021017501001001MA1999999100301MD1999999+0031REMSYN011333   58003EQDQ01  00003PRCP99
0115821980999991992010618004-01717-045400FM-12+004499999V0200501N00571220001CN0100001N9+03241+02281100671ADDAA106000091AG14000GF102991021021017501001001MA1999999100161MD1999999+0001REMSYN011333   59000EQDQ01  00003PRCP99
0134821980999991992010812004-01717-045400FM-12+004499999V0200501N00311045001CN0100001N9+02871+02521100961ADDAA106000091AG14000GF105991031021017501061001KA1999N+02511MA1999999100451MD1999999+0051REMSYN017333   20251 58005EQDQ01  00003PRCP99
0115821980999991992010818004-01717-045400FM-12+004499999V0200501N00571220001CN0100001N9+03261+02411100731ADDAA106000091AG14000GF103991031021017501001001MA1999999100221MD1999999-0031REMSYN011333   59003EQDQ01  00003PRCP99
0134821980999991992010912004-01717-045400FM-12+004499999V0200501N00411045001CN0100001N9+02821+02411100971ADDAA106000091AG14000GF106991031051017501011011KA1999N+02451MA1999999100461MD1999999+0011REMSYN017333   20245 58001EQDQ01  00003PRCP99
0134821980999991992011012004-01717-045400FM-12+004499999V0200501N00411015001CN0100001N9+02831+02461100941ADDAA106000091AG14000GF105991051021017501001001KA1999N+02441MA1999999100431MD1999999-0031REMSYN017333   20244 59003EQDQ01  00003PRCP99
0115821980999991992011218004-01717-045400FM-12+004499999V0200901N00671220001CN0100001N9+03271+02321100671ADDAA106000091AG14000GF102991021021017501001001MA1999999100161MD1999999+0051REMSYN011333   58005EQDQ01  00003PRCP99
0134821980999991992011312004-01717-045400FM-12+004499999V0200501N00411015001CN0100001N9+02801+02441102861ADDAA106000091AG14000GF105991051021017501001001KA1999N+02431MA1999999100351MD1999999-0111REMSYN017333   20243 59011EQDQ01  00003PRCP99
0115821980999991992011418004-01717-045400FM-12+004499999V0200501N00571015001CN0100001N9+03181+02321100631ADDAA106000091AG14000GF108991081021017501001001MA1999999100121MD1999999+0021REMSYN011333   58002EQDQ01  00003PRCP99
0134821980999991992011512004-01717-045400FM-12+004499999V0200501N00311015001CN0100001N9+02771+02481100971ADDAA106000091AG14000GF108991061051017501011001KA1999N+02391MA1999999100461MD1999999+0111REMSYN017333   20239 58011EQDQ01  00003PRCP99
0121821980999991992011600004-01717-045400FM-12+004499999V0200501N00311105001CN0100001N9+02641+02351100931ADDAA106000091AG14000GF105991021011017501031011MA1999999100421MD1999999+0151REMSYN017333   10/// 58015EQDQ01  00003PRCP99
0134821980999991992011612004-01717-045400FM-12+004499999V0200901N00311015001CN0100001N9+02691+02461101101ADDAA106000091AG14000GF108991051051017501011001KA1999N+02411MA1999999100591MD1999999+0131REMSYN017333   20241 58013EQDQ01  00003PRCP99
0115821980999991992011618004-01717-045400FM-12+004499999V0200501N00261015001CN0100001N9+03131+02461100991ADDAA106000091AG14000GF108991051021017501061001MA1999999100481MD1999999+0141REMSYN011333   58014EQDQ01  00003PRCP99
0134821980999991992011712004-01717-045400FM-12+004499999V0200501N00151105001CN0100001N9+02771+02481101221ADDAA106000091AG14000GF105991021011017501011011KA1999N+02481MA1999999100711MD1999999+0121REMSYN017333   20248 58012EQDQ01  00003PRCP99
0115821980999991992011718004-01717-045400FM-12+004499999V0200901N00461220001CN0100001N9+03131+02381100891ADDAA106000091AG14000GF103991031011017501001001MA1999999100381MD1999999-0101REMSYN011333   59010EQDQ01  00003PRCP99
0134821980999991992011812004-01717-045400FM-12+004499999V0200901N00411015001CN0100001N9+02881+02541101111ADDAA106000091AG14000GF106991061021017501001001KA1999N+02491MA1999999100601MD1999999-0111REMSYN017333   20249 59011EQDQ01  00003PRCP99
0115821980999991992011818004-01717-045400FM-12+004499999V0200501N00411045001CN0100001N9+03081+02441100801ADDAA106000091AG14000GF105991031021017501061001MA1999999100661MD1999999-0121REMSYN011333   59012EQDQ01  00003PRCP99
0115821980999991992011918004-01717-045400FM-12+004499999V0200501N00571015001CN0100001N9+03061+02451100761ADDAA106000091AG14000GF105991051021017501001001MA1999999100251MD1999999-0111REMSYN011333   59011EQDQ01  00003PRCP99
0134821980999991992012012004-01717-045400FM-12+004499999V0200501N00411045001CN0100001N9+02841+02521101041ADDAA106000091AG14000GF108991041021017501061001KA1999N+02371MA1999999100531MD1999999-0071REMSYN017333   20237 59007EQDQ01  00003PRCP99
0134821980999991992012112004-01717-045400FM-12+004499999V0200501N00411045001CN0100001N9+02821+02501100921ADDAA106000091AG14000GF106991041021017501061001KA1999N+02411MA1999999100401MD1999999-0131REMSYN017333   20241 59013EQDQ01  00003PRCP99
0115821980999991992012118004-01717-045400FM-12+004499999V0200501N00621015001CN0100001N9+03121+02481100691ADDAA106000091AG14000GF105991051021017501001001MA1999999100181MD1999999-0181REMSYN011333   59018EQDQ01  00003PRCP99
0134821980999991992012212004-01717-045400FM-12+004499999V0200501N00461045001CN0100001N9+02921+02541100931ADDAA106000091AG14000GF107991041021017501061001KA1999N+02501MA1999999100421MD1999999+0021REMSYN017333   20250 58002EQDQ01  00003PRCP99
0143821980999991992012218004-01717-045400FM-12+004499999V0200501N00461220001CN0100001N9+02541+02491100631ADDAA106045091AG19006AY161999AY221999GF106991041051017501001061MA1999999100121MD1999999-0061MW1021REMSYN017333   59006 60451EQDQ01  04503PRCP99
0162821980999991992012312004-01717-045400FM-12+004499999V0200501N00461045001CN0100001N9+02741+02541100991ADDAA124048091AG19006AY161999AY251999GF107991031071017501061041KA1999N+02391MA1999999100471MD1999999+0051MW1031REMSYN023333   20239 58005 60484EQDQ01  04803PRCP99
0115821980999991992012318004-01717-045400FM-12+004499999V0200501N00571045001CN0100001N9+02881+02501100651ADDAA106000091AG14000GF106991041021017501061001MA1999999100141MD1999999+0021REMSYN011333   58002EQDQ01  00003PRCP99
0143821980999991992012418004-01717-045400FM-12+004499999V0201801N00101045001CN0100001N9+02331+02291100861ADDAA106034091AG10006AY161999AY251999GF108991041051017501021001MA1999999100351MD1999999+0211MW1021REMSYN017333   58021 60341EQDQ01  03403PRCP99
0162821980999991992012512004-01717-045400FM-12+004499999V0200901N00211015001CN0100001N9+02421+02391101171ADDAA124044091AG10006AY161999AY251999GF108991051071017501021001KA1999N+02291MA1999999100651MD1999999+0131MW1021REMSYN023333   20229 58013 60444EQDQ01  04403PRCP99
0143821980999991992012518004-01717-045400FM-12+004499999V0203201N00151015001CN0040001N9+02451+02431100971ADDAA106040091AG19006AY161999AY251999GF108991051051017501021001MA1999999100451MD1999999+0101MW1021REMSYN017333   58010 60401EQDQ01  04003PRCP99
0149821980999991992012600004-01717-045400FM-12+004499999V0203201N00101045001CN0020001N9+02411+02371101031ADDAA106001091AG19006AY161999AY251999GF107991041021017501061001MA1999999100511MD1999999+0031MW1021REMSYN023333   10/// 58003 69991EQDQ01  00103PRCP99
0162821980999991992012612004-01717-045400FM-12+004499999V0203201N00051045001CN0100001N9+02491+02471101101ADDAA124044091AG19006AY161999AY221999GF107991041021017501041041KA1999N+02311MA1999999100581MD1999999-0011MW1021REMSYN023333   20231 59001 60444EQDQ01  04403PRCP99
0073821980999991992012712004-01717-045400FM-12+004499999V0201401N00151045001CN0040001N9+02621+02531101021ADDAG12006AY161999AY221999GF106991031051017501041041MA1999999100531MW1031
0143821980999991992012718004-01717-045400FM-12+004499999V0201801N00211015001CN0020001N9+02461+02431100841ADDAA106021091AG10006AY161999AY221999GF108991051071017501021001MA1999999100321MD1999999+0061MW1031REMSYN017333   58006 60211EQDQ01  02103PRCP99
0162821980999991992012812004-01717-045400FM-12+004499999V0202701N00051045001CN0040001N9+02321+02291101031ADDAA124083091AG19007AY161999AY251999GF107991041071017501021001KA1999N+02221MA1999999100521MD1999999-0011MW1511REMSYN023333   20222 59001 60834EQDQ01  08303PRCP99
0143821980999991992012818004-01717-045400FM-12+004499999V0202301N00211015001CN0100001N9+02511+02361100791ADDAA106001091AG10006AY161999AY221999GF108991051051017501021001MA1999999100281MD1999999-0041MW1021REMSYN017333   59004 60011EQDQ01  00103PRCP99
0134821980999991992013012004-01717-045400FM-12+004499999V0200501N00151015001CN0100001N9+02711+02681101051ADDAA106000091AG14000GF107991051021017501061001KA1999N+02431MA1999999100531MD1999999+0091REMSYN017333   20243 58009EQDQ01  00003PRCP99
0127821980999991992020212004-01717-045400FM-12+004499999V0200501N00311045001CN0100001N9+02801+02521101081ADDAA124002091AG10000GF106991031021017501061011MA1999999100561MD1999999-0081REMSYN023333   20/// 59008 60024EQDQ01  00203PRCP99
0143821980999991992020318004-01717-045400FM-12+004499999V0200901N00211015001CN0100001N9+03101+02461100721ADDAA106001091AG10006AY161999AY251999GF105991051021017501001001MA1999999100211MD1999999-0211MW1021REMSYN017333   59021 60011EQDQ01  00103PRCP99
0106821980999991992020412004-01717-045400FM-12+004499999V0200901N00311220001CN0100001N9+02541+02361100801ADDAA106000091AG14000GF100991001001999999001001MD1999999-0221REMSYN017333   10/// 59022EQDQ01  00003PRCP99
0143821980999991992020418004-01717-045400FM-12+004499999V0200901N00671045001CN0100001N9+02701+02461100721ADDAA106002091AG10006AY161999AY221999GF108991041051017501021001MA1999999100211MD1999999+0001MW1021REMSYN017333   58000 60021EQDQ01  00203PRCP99
0127821980999991992020512004-01717-045400FM-12+004499999V0200901N00361220001CN0100001N9+02781+02521100971ADDAA124002091AG10000GF102991021011017501001001MA1999999100461MD1999999+0071REMSYN023333   20/// 58007 60024EQDQ01  00203PRCP99
0115821980999991992020518004-01717-045400FM-12+004499999V0200901N00621220001CN0100001N9+03161+02291100771ADDAA106000091AG14000GF103991031021017501001001MA1999999100261MD1999999+0051REMSYN011333   58005EQDQ01  00003PRCP99
0121821980999991992020612004-01717-045400FM-12+004499999V0200501N00311045001CN0100001N9+02751+02461100981ADDAA106000091AG14000GF106991031021017501061001MA1999999100461MD1999999+0061REMSYN017333   20/// 58006EQDQ01  00003PRCP99
0143821980999991992020618004-01717-045400FM-12+004499999V0200501N00571220001CN0100001N9+02741+02451100841ADDAA106006091AG19006AY161999AY221999GF104991031051017501021001MA1999999100331MD1999999+0071MW1021REMSYN017333   58007 60061EQDQ01  00603PRCP99
0143821980999991992020918004-01717-045400FM-12+004499999V0203201N00101045001CN0100001N9+02721+02541100751ADDAA106002091AG10006AY161999AY221999GF108991041051017501061001MA1999999100241MD1999999+0081MW1021REMSYN017333   58008 60021EQDQ01  00203PRCP99
0143821980999991992021018004-01717-045400FM-12+004499999V0200501N00461015001CN0020001N9+02441+02391100871ADDAA106009091AG10023AY161999AY221999GF108991081001017501021001MA1999999100361MD1999999+0121MW1641REMSYN017333   58012 60091EQDQ01  00903PRCP99
0143821980999991992021218004-01717-045400FM-12+004499999V0201401N00411015001CN0100001N9+02521+02431100821ADDAA106089091AG10006AY161999AY221999GF108991051021017501001001MA1999999100311MD1999999+0051MW1021REMSYN017333   58005 60891EQDQ01  08903PRCP99
0149821980999991992021312004-01717-045400FM-12+004499999V0200901N00151045001CN0100001N9+02371+02281101151ADDAA124108091AG10006AY161999AY281999GF108991041071017501011001MA1999999100631MD1999999+0091MW1021REMSYN023333   20/// 58009 61084EQDQ01  10803PRCP99
0115821980999991992021418004-01717-045400FM-12+004499999V0200901N00261045001CN0100001N9+02901+02501100821ADDAA106000091AG14000GF108991041021017501061001MA1999999100311MD1999999-0071REMSYN011333   59007EQDQ01  00003PRCP99
0149821980999991992021512004-01717-045400FM-12+004499999V0200201N00151045001CN0100001N9+02281+02231101231ADDAA124013091AG10006AY161999AY221999GF107991041071017501011001MA1999999100711MD1999999+0091MW1031REMSYN023333   20/// 58009 60134EQDQ01  01303PRCP99
0149821980999991992021712004-01717-045400FM-12+004499999V0200901N00211220001CN0100001N9+02611+02501101071ADDAA124025091AG10006AY161999AY211999GF103991031021017501001001MA1999999100551MD1999999-0201MW1011REMSYN023333   20/// 59020 60254EQDQ01  02503PRCP99
0143821980999991992021718004-01717-045400FM-12+004499999V0200501N00311045001CN0100001N9+02571+02401100841ADDAA106007091AG10006AY161999AY221999GF106991031051017501041001MA1999999100331MD1999999-0181MW1021REMSYN017333   59018 60071EQDQ01  00703PRCP99
0149821980999991992021912004-01717-045400FM-12+004499999V0203201N00051015001CN0100001N9+02451+02451101031ADDAA124023091AG10013AY161999AY251999GF108991051051017501021001MA1999999100511MD1999999+0091MW1911REMSYN023333   20/// 58009 60234EQDQ01  02303PRCP99
0143821980999991992021918004-01717-045400FM-12+004499999V0200501N00151015001CN0100001N9+02551+02451100741ADDAA106006091AG10006AY161999AY251999GF108991051051017501041001MA1999999100231MD1999999+0101MW1021REMSYN017333   58010 60061EQDQ01  00603PRCP99
0149821980999991992022012004-01717-045400FM-12+004499999V0202701N00101015001CN0100001N9+02271+02251101251ADDAA124051091AG10006AY161999AY261999GF108991051051017501021001MA1999999100731MD1999999+0221MW1021REMSYN023333   20/// 58022 60514EQDQ01  05103PRCP99
0127821980999991992022112004-01717-045400FM-12+004499999V0201801N00101015001CN0100001N9+02441+02411101001ADDAA124000191AG10000GF105991051021017501001001MA1999999100481MD1999999-0251REMSYN023333   20/// 59025 69914EQDQ01  00013PRCP99
0143821980999991992022118004-01717-045400FM-12+004499999V0200901N00211045001CN0100001N9+02641+02421100721ADDAA106003091AG10006AY161999AY221999GF108991031051017501021001MA1999999100211MD1999999-0151MW1021REMSYN017333   59015 60031EQDQ01  00303PRCP99
0127821980999991992022212004-01717-045400FM-12+004499999V0200901N00211045001CN0100001N9+02701+02581100991ADDAA124005091AG10000GF107991041021017501061001MA1999999100471MD1999999-0111REMSYN023333   20/// 59011 60054EQDQ01  00503PRCP99
0115821980999991992022218004-01717-045400FM-12+004499999V0200901N00571045001CN0100001N9+02971+02491100601ADDAA106000091AG14000GF105991041021017501061001MA1999999100091MD1999999-0121REMSYN011333   59012EQDQ01  00003PRCP99
0143821980999991992022318004-01717-045400FM-12+004499999V0200901N00151045001CN0100001N9+02451+02401100991ADDAA106020091AG19006AY161999AY221999GF108991041051017501021001MA1999999100481MD1999999+0391MW1021REMSYN017333   58039 60201EQDQ01  02003PRCP99
0149821980999991992022500004-01717-045400FM-12+004499999V0200501N00151220001CN0100001N9+02501+02471101101ADDAA106002091AG10006AY161999AY211999GF103991031021017501001001MA1999999100581MD1999999+0051MW1011REMSYN023333   10/// 58005 60021EQDQ01  00203PRCP99
0127821980999991992022512004-01717-045400FM-12+004499999V0200901N00511015001CN0100001N9+02721+02541101161ADDAA124004091AG10000GF106991061001017501031001MA1999999100641MD1999999+0071REMSYN023333   20/// 58007 60044EQDQ01  00403PRCP99
0121821980999991992022612004-01717-045400FM-12+004499999V0200901N00571220001CN0100001N9+02811+02581101191ADDAA106000091AG14000GF103991031021017501001001MA1999999100671MD1999999+0031REMSYN017333   20/// 58003EQDQ01  00003PRCP99
0149821980999991992022700004-01717-045400FM-12+004499999V0209999999999220001CN0100001N9+02621+02461101081ADDAA106001091AG19006AY161999AY201999GF100991001001999999001001MA1999999100571MD1999999+0071MW1011REMSYN023333   10/// 58007 69991EQDQ01  00103PRCP99
0127821980999991992022712004-01717-045400FM-12+004499999V0200901N00411045001CN0100001N9+02881+02641101221ADDAA124001091AG10000GF106991031021017501031011MA1999999100711MD1999999+0141REMSYN023333   20/// 58014 69994EQDQ01  00103PRCP99
0115821980999991992022718004-01717-045400FM-12+004499999V0200901N00411015001CN0100001N9+02801+02481100991ADDAA106000091AG14000GF108991051051017501041001MA1999999100401MD1999999+0061REMSYN011333   58006EQDQ01  00003PRCP99
0121821980999991992022812004-01717-045400FM-12+004499999V0200901N005719999999N0100001N9+02791+02561101171ADDAA106000091AG14000GF105991031021017501001001MA1999999100661MD1999999-0051REMSYN017333   20/// 59005EQDQ01  00003PRCP99
0149821980999991992022900004-01717-045400FM-12+004499999V0200501N00411220001CN0100001N9+02591+02461101161ADDAA106003091AG10006AY161999AY211999GF100991001001999999001001MA1999999100651MD1999999+0081MW1011REMSYN023333   10/// 58008 60031EQDQ01  00303PRCP99
0127821980999991992022912004-01717-045400FM-12+004499999V0200901N00211045001CN0100001N9+02771+02581101151ADDAA124003091AG10000GF106991041021017501061001MA1999999100631MD1999999-0031REMSYN023333   20/// 59003 60034EQDQ01  00303PRCP99
0135821980999991992022918004-01717-045400FM-12+004499999V0200501N00511045001CN0100001N9+02781+02501100821ADDAA106000491AA299000591AG10001AY151999AY221999GF108991041051017501061001MA1999999100311MD1999999-0211MW1021REMSYN017333   59021 69941
0149821980999991992030100004-01717-045400FM-12+004499999V0200901N00411220001CN0100001N9+02541+02421101041ADDAA106001091AG19006AY161999AY211999GF100991001001999999001001MA1999999100551MD1999999-0131MW1011REMSYN023333   10/// 59013 69981EQDQ01  00103PRCP99
0143821980999991992030218004-01717-045400FM-12+004499999V0200901N00151015001CN0100001N9+02341+02291101021ADDAA106061091AG10048AY161999AY261999GF108991081001017501021001MA1999999100511MD1999999-0041MW1651REMSYN017333   59004 60611EQDQ01  06103PRCP99
0149821980999991992030312004-01717-045400FM-12+004499999V0201401N00151045001CN0100001N9+02581+02571101171ADDAA124040091AG10006AY161999AY221999GF106991031021017501061001MA1999999100651MD1999999-0111MW1031REMSYN023333   20/// 59011 60404EQDQ01  04003PRCP99
0115821980999991992030418004-01717-045400FM-12+004499999V0200501N00621015001CN0100001N9+02961+02491100831ADDAA106000091AG14000GF105991051021017501001001MA1999999100321MD1999999-0111REMSYN011333   59011EQDQ01  00003PRCP99
0121821980999991992030600004-01717-045400FM-12+004499999V0200501N00151220001CN0100001N9+02521+02361100881ADDAA106000091AG14000GF100991001001999999001001MA1999999100371MD1999999+0021REMSYN017333   10/// 58002EQDQ01  00003PRCP99
0127821980999991992030612004-01717-045400FM-12+004499999V0200901N00211045001CN0100001N9+02791+02621100921ADDAA124006091AG10000GF106991031021017501041011MA1999999100401MD1999999-0031REMSYN023333   20/// 59003 60064EQDQ01  00603PRCP99
0115821980999991992030618004-01717-045400FM-12+004499999V0200901N00511015001CN0100001N9+03121+02511100591ADDAA106000091AG14000GF106991061021017501001001MA1999999100081MD1999999-0231REMSYN011333   59023EQDQ01  00003PRCP99
0121821980999991992030712004-01717-045400FM-12+004499999V0200901N00361045001CN0100001N9+02721+02581100931ADDAA106000091AG14000GF106991041021017501061001MA1999999100411MD1999999+0011REMSYN017333   20/// 58001EQDQ01  00003PRCP99
0115821980999991992030818004-01717-045400FM-12+004499999V0200901N00261045001CN0100001N9+02941+02561100681ADDAA106000091AG14000GF106991041021017501061001MA1999999100171MD1999999+0061REMSYN011333   58006EQDQ01  00003PRCP99
0121821980999991992030912004-01717-045400FM-12+004499999V0200501N00311045001CN0100001N9+02811+02521100881ADDAA106000091AG14000GF105991031021017501061001MA1999999100371MD1999999-0051REMSYN017333   20/// 59005EQDQ01  00003PRCP99
0115821980999991992030918004-01717-045400FM-12+004499999V0200901N00511220001CN0100001N9+03091+02521100561ADDAA106000091AG14000GF106991041021017501001011MA1999999100051MD1999999-0121REMSYN011333   59012EQDQ01  00003PRCP99
0121821980999991992031012004-01717-045400FM-12+004499999V0200901N00211045001CN0100001N9+02651+02501100991ADDAA106000091AG14000GF106991031051017501061001MA1999999100471MD1999999+0101REMSYN017333   20/// 58010EQDQ01  00003PRCP99
0127821980999991992031112004-01717-045400FM-12+004499999V0200901N00211220001CN0100001N9+02871+02601100921ADDAA124004091AG10000GF105991021021017501001011MA1999999100401MD1999999-0071REMSYN023333   20/// 59007 60044EQDQ01  00403PRCP99
0143821980999991992031118004-01717-045400FM-12+004499999V0200901N00621045001CN0100001N9+02841+02481100641ADDAA124002091AG10006AY161999AY221999GF105991031021017501061011MA1999999100131MD1999999-0101MW1021REMSYN017333   59010 60024EQDQ01  00203PRCP99
0121821980999991992031200004-01717-045400FM-12+004499999V0200501N00311045001CN0100001N9+02631+02481100711ADDAA106000091AG14000GF105991021011017501031001MA1999999100201MD1999999-0181REMSYN017333   10/// 59018EQDQ01  00003PRCP99
0127821980999991992031212004-01717-045400FM-12+004499999V0200901N00361105001CN0100001N9+02801+02521100951ADDAA124002091AG10000GF105991021021017501031011MA1999999100431MD1999999+0031REMSYN023333   20/// 58003 60024EQDQ01  00203PRCP99
0162821980999991992031312004-01717-045400FM-12+004499999V0200901N00151007501CN0100001N9+02661+02461101071ADDAA124019091AG10006AY161999AY221999GF108991051051008001041001KA1999N+02401MA1999999101011MD1999999+0001MW1031REMSYN023333   20240 58000 60194EQDQ01  01903PRCP99
0121821980999991992031412004-01717-045400FM-12+004499999V0200501N00311045001CN0100001N9+02851+02541100991ADDAA106000091AG14000GF105991031021017501061001MA1999999100471MD1999999+0021REMSYN017333   20/// 58002EQDQ01  00003PRCP99
0143821980999991992031418004-01717-045400FM-12+004499999V0200501N00261015001CN0100001N9+02681+02541100641ADDAA106011091AG10006AY161999AY221999GF108991051021017501061001MA1999999100131MD1999999-0071MW1021REMSYN017333   59007 60111EQDQ01  01103PRCP99
0149821980999991992031600004-01717-045400FM-12+004499999V0200901N00151045001CN0100001N9+02521+02421100911ADDAA106001091AG10006AY161999AY221999GF106991031071017501061001MA1999999100401MD1999999+0001MW1011REMSYN023333   10/// 58000 60011EQDQ01  00103PRCP99
0127821980999991992031612004-01717-045400FM-12+004499999V0200501N004619999999N0100001N9+02841+02561100991ADDAA124004091AG10000GF106991999999017501999999MA1999999100471MD1999999+0081REMSYN023333   20/// 58008 60044EQDQ01  00403PRCP99
0127821980999991992031712004-01717-045400FM-12+004499999V0200901N00311015001CN0100001N9+02721+02581101151ADDAA124005091AG10000GF108991051011017501011001MA1999999100631MD1999999+0161REMSYN023333   20/// 58016 60054EQDQ01  00503PRCP99
0143821980999991992031718004-01717-045400FM-12+004499999V0200901N00411045001CN0100001N9+02781+02601100821ADDAA106001091AG10006AY161999AY221999GF106991041021017501061001MA1999999100311MD1999999+0001MW1021REMSYN017333   58000 60011EQDQ01  00103PRCP99
0121821980999991992031800004-01717-045400FM-12+004499999V0200501N00311045001CN0100001N9+02511+02381101001ADDAA106000091AG14000GF105991021021017501061001MA1999999100481MD1999999+0031REMSYN017333   10/// 58003EQDQ01  00003PRCP99
0149821980999991992031912004-01717-045400FM-12+004499999V0201401N00211015001CN0100001N9+02411+02371101081ADDAA124018091AG10006AY161999AY251999GF108991051051017501061001MA1999999100561MD1999999-0171MW1021REMSYN023333   20/// 59017 60184EQDQ01  01803PRCP99
0149821980999991992032000004-01717-045400FM-12+004499999V0200501N00411045001CN0100001N9+02531+02511100921ADDAA106003091AG19006AY161999AY211999GF106991031071017501061001MA1999999100401MD1999999-0171MW1011REMSYN023333   10/// 59017 60031EQDQ01  00303PRCP99
0149821980999991992032012004-01717-045400FM-12+004499999V0201801N00151015001CN0100001N9+02441+02411101061ADDAA124011091AG10006AY161999AY221999GF108991051051017501021001MA1999999100541MD1999999-0021MW1031REMSYN023333   20/// 59002 60114EQDQ01  01103PRCP99
0143821980999991992032018004-01717-045400FM-12+004499999V0203201N00101015001CN0100001N9+02641+02541100731ADDAA106000391AG10001AY151999AY221999GF108991061051017501041001MA1999999100211MD1999999-0131MW1021REMSYN017333   59013 69931EQDQ01  00033PRCP99
0115821980999991992032218004-01717-045400FM-12+004499999V0201401N00211015001CN0100001N9+02861+02561100831ADDAA106000091AG14000GF108991051021017501041001MA1999999100321MD1999999+0201REMSYN011333   58020EQDQ01  00003PRCP99
0121821980999991992032312004-01717-045400FM-12+004499999V0200901N00311045001CN0100001N9+02531+02401101091ADDAA106000091AG14000GF107991041021017501041011MA1999999100571MD1999999-0051REMSYN017333   20/// 59005EQDQ01  00003PRCP99
0115821980999991992032318004-01717-045400FM-12+004499999V0200501N00461045001CN0100001N9+02841+02481100811ADDAA106000091AG14000GF105991031021017501061001MA1999999100301MD1999999-0021REMSYN011333   59002EQDQ01  00003PRCP99
0149821980999991992032412004-01717-045400FM-12+004499999V0209991C00001015001CN0005001N9+02351+02311101131ADDAA124011091AG19048AY161999AY221999GF108991061071017501021001MA1999999100611MD1999999+0041MW1651REMSYN023333   20/// 58004 60114EQDQ01  01103PRCP99
0149821980999991992032512004-01717-045400FM-12+004499999V0201401N00151015001CN0100001N9+02491+02471999999ADDAA124035091AG10006AY161999AY221999GF108991061071017501011001MA1999999100591MD1999999-0021MW1021REMSYN023333   20/// 59002 60354EQDQ01  03503PRCP99
0127821980999991992032712004-01717-045400FM-12+004499999V0200901N00311220001CN0100001N9+02721+02541101251ADDAA124004091AG10000GF105991021021017501001011MA1999999100731MD1999999+0091REMSYN023333   20/// 58009 60044EQDQ01  00403PRCP99
0143821980999991992032718004-01717-045400FM-12+004499999V0200501N00511045001CN0100001N9+02921+02411100991ADDAA106001091AG10006AY161999AY221999GF106991041021017501061001MA1999999100481MD1999999+0121MW1021REMSYN017333   58012 60011EQDQ01  00103PRCP99
0127821980999991992032812004-01717-045400FM-12+004499999V0200501N00211045001CN0100001N9+02711+02501101291ADDAA124001091AG10000GF106991021021017501031011MA1999999100771MD1999999+0041REMSYN023333   20/// 58004 60014EQDQ01  00103PRCP99
0143821980999991992032818004-01717-045400FM-12+004499999V0200501N00261045001CN0100001N9+02601+02511100921ADDAA106023091AG10006AY161999AY221999GF108991041021001501041001MA1999999100411MD1999999-0071MW1021REMSYN017333   59007 60231EQDQ01  02303PRCP99
0149821980999991992040212004-01717-045400FM-12+004499999V0202701N00211015001CN0100001N9+02451+02431101131ADDAA124026091AG10006AY161999AY211999GF108991051071017501061001MA1999999100611MD1999999-0021MW1021REMSYN023333   20/// 59002 60264EQDQ01  02603PRCP99
0143821980999991992040218004-01717-045400FM-12+004499999V0203201N00151045001CN0100001N9+02621+02521100811ADDAA106003091AG10006AY161999AY221999GF108991041051017501041001MA1999999100301MD1999999-0081MW1021REMSYN017333   59008 60031EQDQ01  00303PRCP99
0121821980999991992040300004-01717-045400FM-12+004499999V0202701N00151220001CN0100001N9+02441+02411101031ADDAA106000091AG14000GF100991001001999999001001MA1999999100511MD1999999+0051REMSYN017333   10/// 58005EQDQ01  00003PRCP99
0127821980999991992040312004-01717-045400FM-12+004499999V0202301N00211045001CN0100001N9+02521+02431101171ADDAA124003091AG10000GF106991041021017501061001MA1999999100651MD1999999+0041REMSYN023333   20/// 58004 60034EQDQ01  00303PRCP99
0121821980999991992040412004-01717-045400FM-12+004499999V0209991C00001220001CN0100001N9+02641+02401101211ADDAA124003091AG10000GF104991021021017501041041MA1999999100591MD1999999-0061REMSYN017333   59006 60034EQDQ01  00303PRCP99
0127821980999991992040912004-01717-045400FM-12+004499999V0200901N00461045001CN0100001N9+02831+02501101061ADDAA124002091AG10000GF106991031021017501041011MA1999999100551MD1999999+0001REMSYN023333   20/// 58000 60024EQDQ01  00203PRCP99
0121821980999991992041012004-01717-045400FM-12+004499999V0200901N00461045001CN0100001N9+02851+02581100891ADDAA106000091AG14000GF106991031021017501041011MA1999999100381MD1999999-0171REMSYN017333   20/// 59017EQDQ01  00003PRCP99
0127821980999991992041312004-01717-045400FM-12+004499999V0200901N00101015001CN0100001N9+02761+02561100891ADDAA124004091AG10000GF107991051011017501031011MA1999999100371MD1999999+0011REMSYN023333   20/// 58001 60044EQDQ01  00403PRCP99
0149821980999991992041412004-01717-045400FM-12+004499999V0200901N00051045001CN0100001N9+02621+02461100931ADDAA124002091AG10006AY161999AY211999GF106991031021017501031011MA1999999100421MD1999999+0051MW1031REMSYN023333   20/// 58005 60024EQDQ01  00203PRCP99
0115821980999991992041418004-01717-045400FM-12+004499999V0200901N00671045001CN0100001N9+03081+02521100591ADDAA106000091AG14000GF106991031021017501061011MA1999999100081MD1999999-0141REMSYN011333   59014EQDQ01  00003PRCP99
0121821980999991992041500004-01717-045400FM-12+004499999V0201401N00211015001CN0100001N9+02621+02481101011ADDAA106000091AG14000GF106991061021017501001001MA1999999100501MD1999999+0011REMSYN017333   10/// 58001EQDQ01  00003PRCP99
0141821980999991992041512004-01717-045400FM-12+004499999V0201401N00211015001CN0100001N9+02561+02401101171ADDAA124000291AA299000391AG10006AY161999AY221999GF107991051051017501061001MA1999999100651MD1999999+0231MW1021REMSYN023333   10/// 58023 69924
0127821980999991992041712004-01717-045400FM-12+004499999V0200501N00461015001CN0100001N9+02791+02601101101ADDAA124032091AG10000GF108991061071017501021011MA1999999100581MD1999999-0081REMSYN023333   20/// 59008 60324EQDQ01  03203PRCP99
0115821980999991992041718004-01717-045400FM-12+004499999V0200901N00361045001CN0100001N9+03081+02521100841ADDAA106000091AG14000GF105991031021017501061001MA1999999100331MD1999999-0241REMSYN011333   59024EQDQ01  00003PRCP99
0115821980999991992041918004-01717-045400FM-12+004499999V0200901N00721045001CN0100001N9+03131+02481100531ADDAA106000091AG14000GF106991041021017501061001MA1999999100021MD1999999-0111REMSYN011333   59011EQDQ01  00003PRCP99
0121821980999991992042012004-01717-045400FM-12+004499999V0200901N00311220001CN0100001N9+02861+02581100831ADDAA106000091AG14000GF104991021011017501011011MA1999999100321MD1999999-0061REMSYN017333   20/// 59006EQDQ01  00003PRCP99
0119821980999991992042212004-01717-045400FM-12+004499999V0200901N00461220001CN0100001N9+02871+02601100941ADDAA124000491AA299000591AG10000GF103991031011017501001001MA1999999100431MD1999999+0081REMSYN023333   20/// 58008 69944
0115821980999991992042318004-01717-045400FM-12+004499999V0200901N00511045001CN0100001N9+03011+02511100621ADDAA106000091AG14000GF108991041021017501061001MA1999999100111MD1999999-0191REMSYN011333   59019EQDQ01  00003PRCP99
0121821980999991992042712004-01717-045400FM-12+004499999V0200901N00151015001CN0100001N9+02871+02521101081ADDAA106000091AG14000GF105991051021017501001001MA1999999100571MD1999999-0021REMSYN017333   20/// 59002EQDQ01  00003PRCP99
0115821980999991992042718004-01717-045400FM-12+004499999V0200901N00721045001CN0100001N9+03141+02341100791ADDAA106000091AG14000GF106991041021017501061001MA1999999100281MD1999999-0141REMSYN011333   59014EQDQ01  00003PRCP99
0115821980999991992042818004-01717-045400FM-12+004499999V0200501N00571015001CN0100001N9+03021+02521100541ADDAA106000091AG14000GF106991051021017501061001MA1999999100031MD1999999-0241REMSYN011333   59024EQDQ01  00003PRCP99
0127821980999991992042912004-01717-045400FM-12+004499999V0200901N00211015001CN0100001N9+02831+02681100821ADDAA124004091AG10000GF105991051021017501001001MA1999999100311MD1999999-0111REMSYN023333   20/// 59011 60044EQDQ01  00403PRCP99
0115821980999991992042918004-01717-045400FM-12+004499999V0200901N00411045001CN0100001N9+03171+02561100551ADDAA106000091AG14000GF105991041021017501061001MA1999999100041MD1999999+0011REMSYN011333   58001EQDQ01  00003PRCP99
0115821980999991992043018004-01717-045400FM-12+004499999V0200501N00621045001CN0100001N9+03141+02601100641ADDAA106000091AG14000GF106991041021017501061001MA1999999100141MD1999999+0091REMSYN011333   58009EQDQ01  00003PRCP99
0121821980999991992050500004-01717-045400FM-12+004499999V0200501N00311045001CN0100001N9+02601+02481100781ADDAA106000091AG14000GF106991041021017501061001MA1999999100271MD1999999-0031REMSYN017333   10/// 59003EQDQ01  00003PRCP99
0127821980999991992050512004-01717-045400FM-12+004499999V0200501N00361015001CN0100001N9+02881+02541100901ADDAA124003091AG10000GF105991051021017501001001MA1999999100391MD1999999-0011REMSYN023333   20/// 59001 60034EQDQ01  00303PRCP99
0121821980999991992050612004-01717-045400FM-12+004499999V0200501N00411015001CN0100001N9+02881+02481100961ADDAA106000091AG14000GF105991051021017501001001MA1999999100451MD1999999+0061REMSYN017333   20/// 58006EQDQ01  00003PRCP99
0121821980999991992050712004-01717-045400FM-12+004499999V0200501N00361220001CN0100001N9+02861+02441100991ADDAA106000091AG14000GF104991021021017501031011MA1999999100481MD1999999+0031REMSYN017333   20/// 58003EQDQ01  00003PRCP99
0121821980999991992050812004-01717-045400FM-12+004499999V0200901N00311220001CN0100001N9+02771+02441101071ADDAA106000091AG14000GF104991021021017501041011MA1999999100561MD1999999+0081REMSYN017333   20/// 58008EQDQ01  00003PRCP99
0115821980999991992050818004-01717-045400FM-12+004499999V0200901N00361220001CN0100001N9+03151+02371100771ADDAA106000091AG14000GF104991041021017501001001MA1999999100261MD1999999-0061REMSYN011333   59006EQDQ01  00003PRCP99
0121821980999991992050900004-01717-045400FM-12+004499999V0200501N00261220001CN0100001N9+02631+02491100911ADDAA106000091AG14000GF104991021011017501031011MA1999999100401MD1999999+0031REMSYN017333   10/// 58003EQDQ01  00003PRCP99
0121821980999991992050912004-01717-045400FM-12+004499999V0200901N00411220001CN0100001N9+02771+02561101071ADDAA106000091AG14000GF104991041021017501001001MA1999999100561MD1999999+0001REMSYN017333   20/// 58000EQDQ01  00003PRCP99
0121821980999991992051112004-01717-045400FM-12+004499999V0200501N00101015001CN0100001N9+02891+02521101151ADDAA106000091AG14000GF106991061021017501001001MA1999999100641MD1999999+0011REMSYN017333   20/// 58001EQDQ01  00003PRCP99
0115821980999991992051118004-01717-045400FM-12+004499999V0200901N00621012001CN0100001N9+03091+02491100821ADDAA106000091AG14000GF105991051021012501001001MA1999999100311MD1999999-0011REMSYN011333   59001EQDQ01  00003PRCP99
0121821980999991992051212004-01717-045400FM-12+004499999V0200901N00311220001CN0100001N9+02811+02521101031ADDAA106000091AG14000GF103991031021999999001001MA1999999100521MD1999999-0121REMSYN017333   20/// 59012EQDQ01  00003PRCP99
0121821980999991992051312004-01717-045400FM-12+004499999V0200901N00311015001CN0100001N9+02841+02561100971ADDAA106000091AG14000GF105991051011017501001001MA1999999100461MD1999999-0061REMSYN017333   20/// 59006EQDQ01  00003PRCP99
0121821980999991992051412004-01717-045400FM-12+004499999V0200901N00261015001CN0100001N9+02831+02561100971ADDAA106000091AG14000GF105991051021017501001001MA1999999100461MD1999999+0001REMSYN017333   20/// 58000EQDQ01  00003PRCP99
0115821980999991992051818004-01717-045400FM-12+004499999V0200901N00511015001CN0100001N9+03121+02511100761ADDAA106000091AG14000GF105991051021017501001001MA1999999100251MD1999999-0061REMSYN011333   59006EQDQ01  00003PRCP99
0115821980999991992051912004-01717-045400FM-12+004499999V0200901N00411015001CN0100001N9+02871+02561101081ADDAA106000091AG14000GF105991051021017501001001MA1999999100581MD1999999+0041REMSYN011333   58004EQDQ01  00003PRCP99
0121821980999991992052012004-01717-045400FM-12+004499999V0200501N00461220001CN0100001N9+02811+02421101071ADDAA106000091AG14000GF104991041021017501001001MA1999999100561MD1999999-0021REMSYN017333   20/// 59002EQDQ01  00003PRCP99
0115821980999991992052018004-01717-045400FM-12+004499999V0200901N00461220001CN0100001N9+03121+02461100781ADDAA106000091AG14000GF104991041021017501001001MA1999999100271MD1999999-0051REMSYN011333   59005EQDQ01  00003PRCP99
0070821980999991992052103004-01717-045400FM-12+004499999V0200301N00211045001CN0200001N9+02541+02251101221ADDAG12000GF105991011051008001031001MD1999999-0011REMSYN011333   59001
0091821980999991992052212004-01717-045400FM-12+004499999V0200901N00511220001CN0100001N9+02841+02521101051ADDAG12000GF104991041021017501001001MA1999999100541MD1999999-0031REMSYN017333   20/// 59003
0121821980999991992052312004-01717-045400FM-12+004499999V0200901N00411015001CN0100001N9+02831+02501999999ADDAA106000091AG14000GF106991061021017501001001MA1999999100561MD1999999+0021REMSYN017333   20/// 58002EQDQ01  00003PRCP99
0149821980999991992052412004-01717-045400FM-12+004499999V0201801N00151045001CN0100001N9+02641+02541101191ADDAA124002091AG10005AY161999AY221999GF107991041051017501061001MA1999999100671MD1999999+0111MW1031REMSYN023333   20/// 58011 60024EQDQ01  00203PRCP99
0127821980999991992052512004-01717-045400FM-12+004499999V0200901N00261045001CN0100001N9+02911+02621101081ADDAA124012091AG10000GF105991031021017501061001MA1999999100571MD1999999-0101REMSYN023333   20/// 59010 60124EQDQ01  01203PRCP99
0143821980999991992052518004-01717-045400FM-12+004499999V0200901N00461045001CN0100001N9+02991+02581100841ADDAA106000391AG10001AY151999AY221999GF105991031021017501061001MA1999999100331MD1999999+0031MW1021REMSYN017333   58003 69931EQDQ01  00033PRCP99
0115821980999991992052618004-01717-045400FM-12+004499999V0200501N00571015001CN0100001N9+03181+02441100781ADDAA106000091AG14000GF105991051021017501001001MA1999999100271MD1999999-0061REMSYN011333   59006EQDQ01  00003PRCP99
0121821980999991992052712004-01717-045400FM-12+004499999V0200901N00461220001CN0100001N9+02861+02501100941ADDAA106000091AG14000GF103991031011017501001001MA1999999100471MD1999999-0241REMSYN017333   20/// 59024EQDQ01  00003PRCP99
0121821980999991992052912004-01717-045400FM-12+004499999V0200901N00411015001CN0100001N9+02821+02541100941ADDAA106000091AG14000GF106991061021017501001001MA1999999100431MD1999999+0081REMSYN017333   20/// 58008EQDQ01  00003PRCP99
0115821980999991992053118004-01717-045400FM-12+004499999V0200501N00511220001CN0100001N9+03081+02521100811ADDAA106000091AG14000GF104991041021017501001001MA1999999100301MD1999999-0071REMSYN011333   59007EQDQ01  00003PRCP99
0115821980999991992060112004-01717-045400FM-12+004499999V0200901N00411220001CN0100001N9+02881+02521101071ADDAA106000091AG14000GF103991031021017501001001MA1999999100561MD1999999-0031REMSYN011333   59003EQDQ01  00003PRCP99
0121821980999991992060200004-01717-045400FM-12+004499999V0209991C00001220001CN0100001N9+02621+02421100951ADDAA106000091AG14000GF100991001001999999001001MA1999999100441MD1999999+0011REMSYN017333   10/// 58001EQDQ01  00003PRCP99
0121821980999991992060212004-01717-045400FM-12+004499999V0209991C00001045001CN0100001N9+02901+02501101071ADDAA106000091AG14000GF106991031021017501031011MA1999999100561MD1999999+0001REMSYN017333   20/// 58000EQDQ01  00003PRCP99
0127821980999991992060312004-01717-045400FM-12+004499999V0200901N00361220001CN0100001N9+02811+02541101091ADDAA124002091AG10000GF103991021021017501031011MA1999999100581MD1999999+0021REMSYN023333   20/// 58002 60024EQDQ01  00203PRCP99
0143821980999991992060318004-01717-045400FM-12+004499999V0200901N00621015001CN0100001N9+02921+02501100861ADDAA106002091AG10005AY161999AY221999GF106991061021017501001001MA1999999100351MD1999999-0081MW1021REMSYN017333   59008 60021EQDQ01  00203PRCP99
0121821980999991992060400004-01717-045400FM-12+004499999V0200501N00361220001CN0100001N9+02611+02441101011ADDAA106000091AG14000GF100991001001999999001001MA1999999100501MD1999999+0001REMSYN017333   10/// 58000EQDQ01  00003PRCP99
0127821980999991992060412004-01717-045400FM-12+004499999V0200501N00261045001CN0100001N9+02791+02521101141ADDAA124002091AG10000GF106991031021017501041011MA1999999100621MD1999999+0041REMSYN023333   20/// 58004 60024EQDQ01  00203PRCP99
0119821980999991992060512004-01717-045400FM-12+004499999V0200501N00261045001CN0100001N9+02811+02521101061ADDAA124000491AA299000591AG10000GF106991041021017501061001MA1999999100551MD1999999-0071REMSYN023333   20/// 59007 69944
0121821980999991992060812004-01717-045400FM-12+004499999V0200801N00211105001CN0100001N9+02841+02561101101ADDAA106000091AG14000GF105991021021017501041011MA1999999100591MD1999999+0001REMSYN017333   20/// 58000EQDQ01  00003PRCP99
0143821980999991992060818004-01717-045400FM-12+004499999V0200901N00311220001CN0100001N9+02901+02461100821ADDAA106003091AG10005AY161999AY221999GF104991041021017501001001MA1999999100311MD1999999-0071MW1021REMSYN017333   59007 60031EQDQ01  00303PRCP99
0143821980999991992060918004-01717-045400FM-12+004499999V0200901N00571220001CN0100001N9+02611+02511100761ADDAA106002091AG10005AY161999AY221999GF103991001031017501061001MA1999999100251MD1999999-0061MW1021REMSYN017 333 59006 60021?EQDQ01  00203PRCP99
0149821980999991992061012004-01717-045400FM-12+004499999V0200901N00261015001CN0100001N9+02371+02291101221ADDAA124010091AG10005AY161999AY221999GF108991061071017501021001MA1999999100701MD1999999+0141MW1021REMSYN023333   20/// 58014 60104EQDQ01  01003PRCP99
0143821980999991992061018004-01717-045400FM-12+004499999V0200901N00671045001CN0100001N9+02841+02421100921ADDAA106018091AG10005AY161999AY221999GF106991031021017501061001MA1999999100401MD1999999+0151MW1021REMSYN017333   58015 60181EQDQ01  01803PRCP99
0127821980999991992061112004-01717-045400FM-12+004499999V0200901N00461220001CN0100001N9+02821+02501101241ADDAA124018091AG10000GF103991031011017501001001MA1999999100721MD1999999+0021REMSYN023333   20/// 58002 60184EQDQ01  01803PRCP99
0121821980999991992061200004-01717-045400FM-12+004499999V0201401N00311220001CN0100001N9+02541+02381101301ADDAA106000091AG14000GF103991031021017501001001MA1999999100791MD1999999+0031REMSYN017333   10/// 58003EQDQ01  00003PRCP99
0121821980999991992061212004-01717-045400FM-12+004499999V0200901N00461220001CN0100001N9+02851+02561101331ADDAA106000091AG14000GF102991021011017501001001MA1999999100811MD1999999+0091REMSYN017333   20/// 58009EQDQ01  00003PRCP99
0092821980999991992061221004-01717-045400FM-12+004499999V0201201N00361045001CN0200001N9+02481+02341101221ADDAG12005AY161999AY221999GF107991031051008001031001MD1999999+0081MW1031REMSYN011333   58008
0121821980999991992061312004-01717-045400FM-12+004499999V0200501N00361220001CN0100001N9+02831+02521101201ADDAA106000091AG14000GF103991031021017501001001MA1999999100691MD1999999-0121REMSYN017333   20/// 59012EQDQ01  00003PRCP99
0121821980999991992061412004-01717-045400FM-12+004499999V0200901N00461220001CN0100001N9+02901+02521101241ADDAA106000091AG14000GF103991031021017501001001MA1999999100721MD1999999+0031REMSYN017333   20/// 58003EQDQ01  00003PRCP99
0121821980999991992061512004-01717-045400FM-12+004499999V0200901N00311220001CN0100001N9+02781+02501101221ADDAA106000091AG14000GF103991021011017501001011MA1999999100701MD1999999-0021REMSYN017333   20/// 59002EQDQ01  00003PRCP99
0121821980999991992061600004-01717-045400FM-12+004499999V0200901N00151220001CN0100001N9+02531+02361101091ADDAA106000091AG14000GF100991001001999999001001MA1999999100571MD1999999+0041REMSYN017333   10/// 58004EQDQ01  00003PRCP99
0121821980999991992061612004-01717-045400FM-12+004499999V0200901N00261220001CN0100001N9+02721+02431101271ADDAA106000091AG14000GF103991031021017501001001MA1999999100751MD1999999+0051REMSYN017333   20/// 58005EQDQ01  00003PRCP99
0149821980999991992061800004-01717-045400FM-12+004499999V0209991C00001015001CN0100001N9+02431+02411101151ADDAA106009091AG19005AY161999AY221999GF107991071001017501011001MA1999999100631MD1999999-0101MW1021REMSYN023333   10/// 59010 60091EQDQ01  00903PRCP99
0127821980999991992061812004-01717-045400FM-12+004499999V0200901N00101220001CN0100001N9+02581+02371101161ADDAA124009091AG10000GF104991021011017501041011MA1999999100641MD1999999-0101REMSYN023333   20/// 59010 60094EQDQ01  00903PRCP99
0115821980999991992061818004-01717-045400FM-12+004499999V0200901N00311220001CN0100001N9+02961+02491100911ADDAA106000091AG14000GF104991041021017501001001MA1999999100401MD1999999-0181REMSYN011333   59018EQDQ01  00003PRCP99
0149821980999991992061912004-01717-045400FM-12+004499999V0201401N00211045001CN0100001N9+02431+02371101221ADDAA124008091AG10005AY161999AY211999GF106991031021017501061001MA1999999100701MD1999999+0061MW1031REMSYN023333   20/// 58006 60084EQDQ01  00803PRCP99
0127821980999991992062012004-01717-045400FM-12+004499999V0200901N00211045001CN0100001N9+02761+02421101221ADDAA124010091AG10000GF106991031021017501061001MA1999999100701MD1999999+0001REMSYN023333   20/// 58000 60104EQDQ01  01003PRCP99
0121821980999991992062200004-01717-045400FM-12+004499999V0200501N00311220001CN0100001N9+02531+02351101101ADDAA106000091AG14000GF100991001001999999001001MA1999999100591MD1999999-0041REMSYN017333   10/// 59004EQDQ01  00003PRCP99
0121821980999991992062212004-01717-045400FM-12+004499999V0200501N00261220001CN0100001N9+02831+02541101371ADDAA106000091AG14000GF102991021011017501001001MA1999999100851MD1999999+0101REMSYN017333   20/// 58010EQDQ01  00003PRCP99
0143821980999991992062218004-01717-045400FM-12+004499999V0200901N00461220001CN0100001N9+03061+02521100991ADDAA106004091AG10005AY171999AY221999GF104991041021017501001001MA1999999100481MD1999999+0011MW1021REMSYN017333   58001 60041EQDQ01  00403PRCP99
0137821980999991992062400004-01717-045400FM-12+004499999V0200501N00211220001CN0100001N9+02511+02431101041ADDAA106000091AG14000GA1001+999999999GF100991001001999999001001MA1999999100531MD1999999-0141REMSYN017 333 10/// 59014?EQDQ01  00003PRCP99
0127821980999991992062412004-01717-045400FM-12+004499999V0200901N00361105001CN0100001N9+02761+02481101251ADDAA124010091AG10000GF105991021021017501041011MA1999999100731MD1999999-0111REMSYN023 333 20/// 59011 60104?EQDQ01  01003PRCP99
0115821980999991992062418004-01717-045400FM-12+004499999V0200901N00571220001CN0100001N9+02941+02401101021ADDAA106000091AG14000GF103991031021017501001001MA1999999100511MD1999999+0271REMSYN011333   58027EQDQ01  00003PRCP99
0121821980999991992062512004-01717-045400FM-12+004499999V0200901N00511220001CN0100001N9+02811+02501101241ADDAA106000091AG14000GF103991031021017501001001MA1999999100721MD1999999-0011REMSYN017333   20/// 59001EQDQ01  00003PRCP99
0115821980999991992062518004-01717-045400FM-12+004499999V0200901N00671220001CN0100001N9+02921+02501100951ADDAA106000091AG14000GF104991041021017501001001MA1999999100441MD1999999-0071REMSYN011 333 59007?EQDQ01  00003PRCP99
0149821980999991992062612004-01717-045400FM-12+004499999V0200901N00411045001CN0100001N9+02571+02481101281ADDAA124002091AG10005AY161999AY211999GF105991021021017501061001MA1999999100761MD1999999+0041MW1031REMSYN023 333 20/// 58004 60024?EQDQ01  00203PRCP99
0143821980999991992062618004-01717-045400FM-12+004499999V0201401N00151220001CN0100001N9+02901+02341100951ADDAA106003091AG10005AY161999AY221999GF104991041021017501001001MA1999999100441MD1999999+0001MW1021REMSYN017 333 58000 60031?EQDQ01  00303PRCP99
0137821980999991992062700004-01717-045400FM-12+004499999V0200501N00151220001CN0100001N9+02511+02431101121ADDAA106000091AG14000GA1001+999999999GF100991001001999999001001MA1999999100601MD1999999-0041REMSYN017 333 10/// 59004?EQDQ01  00003PRCP99
0127821980999991992062712004-01717-045400FM-12+004499999V0200501N00261220001CN0100001N9+02771+02521101311ADDAA124003091AG10000GF104991041011017501001001MA1999999100791MD1999999+0031REMSYN023 333 20/// 58003 60034?EQDQ01  00303PRCP99
0121821980999991992062812004-01717-045400FM-12+004499999V0200501N00311220001CN0100001N9+02721+02431101321ADDAA106000091AG14000GF103991031011017501001001MA1999999100801MD1999999+0011REMSYN017 333 20/// 58001?EQDQ01  00003PRCP99
0121821980999991992062912004-01717-045400FM-12+004499999V0200901N00261220001CN0100001N9+02731+02451101251ADDAA106000091AG14000GF102991021011017501001001MA1999999100731MD1999999-0071REMSYN017 333 20/// 59007?EQDQ01  00003PRCP99
0137821980999991992063012004-01717-045400FM-12+004499999V0200901N00461220001CN0100001N9+02701+02501101381ADDAA106000091AG14000GA1001+999999999GF100991001001999999001001MA1999999100861MD1999999+0131REMSYN017 333 20/// 58013?EQDQ01  00003PRCP99
0115821980999991992070118004-01717-045400FM-12+004499999V0200901N00361220001CN0100001N9+03191+02481101001ADDAA106000091AG14000GF103991051021017501001001MA1999999100491MD1999999+0111REMSYN011 333 58011?EQDQ01  00003PRCP99
0137821980999991992070200004-01717-045400FM-12+004499999V0200501N00411220001CN0100001N9+02621+02411101221ADDAA106000091AG14000GA1001+999999999GF100991001001999999001001MA1999999100701MD1999999+0041REMSYN017 333 10/// 58004?EQDQ01  00003PRCP99
0137821980999991992070218004-01717-045400FM-12+004499999V0200901N00571220001CN0100001N9+02741+02461101001ADDAA106000091AG14005AY161999AY221999GF104991021021017501061001MA1999999100571MD1999999+0081MW1021REMSYN011 333 58008?EQDQ01  00003PRCP99
0137821980999991992070412004-01717-045400FM-12+004499999V0200501N00461220001CN0100001N9+02711+02331101421ADDAA106000091AG14000GA1001+999999999GF100991001001999999001001MA1999999100901MD1999999+0041REMSYN017 333 20/// 58004?EQDQ01  00003PRCP99
0115821980999991992070418004-01717-045400FM-12+004499999V0209999999999220001CN0100001N9+02991+02351101221ADDAA106000091AG14000GF104991041021017501001001MA1999999100711MD1999999+0051REMSYN011 333 58005?EQDQ01  00003PRCP99
0121821980999991992070612004-01717-045400FM-12+004499999V0200501N04991220001CN0100001N9+02731+02451101311ADDAA106000091AG14000GF102991011011017501041001MA1999999100801MD1999999-0071REMSYN017 333 20/// 59007?EQDQ01  00003PRCP99
0127821980999991992070712004-01717-045400FM-12+004499999V0200501N00511045001CN0100001N9+02651+02461101351ADDAA124011091AG10000GF105991021021017501031001MA1999999100831MD1999999+0031REMSYN023 333 20/// 58003 60114?EQDQ01  01103PRCP99
0143821980999991992070718004-01717-045400FM-12+004499999V0200901N00261015001CN0100001N9+02361+02331101121ADDAA106049091AG10005AY161999AY221999GF108991051051017501041001MA1999999100601MD1999999-0031MW1021REMSYN017 333 59003 60491?EQDQ01  04903PRCP99
0115821980999991992070818004-01717-045400FM-12+004499999V0200901N00511015001CN0100001N9+02931+02391101141ADDAA106000091AG14000GF105991051021017501001001MA1999999100631MD1999999+0031REMSYN011 333 58003?EQDQ01  00003PRCP99
0115821980999991992070918004-01717-045400FM-12+004499999V0200501N00621015001CN0100001N9+02911+02341101121ADDAA106000091AG14000GF105991051021017501001001MA1999999100611MD1999999-0021REMSYN011 333 59002?EQDQ01  00003PRCP99
0121821980999991992071000004-01717-045400FM-12+004499999V0200501N00211220001CN0100001N9+02511+02341101351ADDAA106000091AG14000GF103991031011017501001001MA1999999100831MD1999999+0091REMSYN017 333 10/// 58009?EQDQ01  00003PRCP99
0127821980999991992071212004-01717-045400FM-12+004499999V0200501N00461220001CN0100001N9+02751+02521101341ADDAA124002091AG10000GF104991041021017501001001MA1999999100801MD1999999+0071REMSYN023 333 20/// 58007 60024?EQDQ01  00203PRCP99
0115821980999991992071218004-01717-045400FM-12+004499999V0200901N00461220001CN0100001N9+03011+02341101121ADDAA106000091AG14000GF103991031021017501001001MA1999999100601MD1999999+0051REMSYN011 333 58005?EQDQ01  00003PRCP99
0149821980999991992071312004-01717-045400FM-12+004499999V0201801N00261015001CN0100001N9+02391+02311101291ADDAA124000191AG10005AY161999AY211999GF107991051071017501061001MA1999999100771MD1999999-0031MW1031REMSYN023 333 20/// 59003 69914?EQDQ01  00013PRCP99
0127821980999991992071412004-01717-045400FM-12+004499999V0200501N00211220001CN0100001N9+02551+02401101331ADDAA124021091AG10000GF104991041001017501031001MA1999999100811MD1999999+0041REMSYN023 333 20/// 58004 60214?EQDQ01  02103PRCP99
0143821980999991992071418004-01717-045400FM-12+004499999V0200501N00361015001CN0100001N9+02771+02461101041ADDAA106009091AG10005AY161999AY231999GF106991061021017501001001MA1999999100531MD1999999-0101MW1021REMSYN017 333 59010 60091?EQDQ01  00903PRCP99
0121821980999991992071600004-01717-045400FM-12+004499999V0200901N00261220001CN0100001N9+02501+02341101261ADDAA106000091AG14000GF104991021011017501031011MA1999999100751MD1999999-0071REMSYN017 333 10/// 59007?EQDQ01  00003PRCP99
0115821980999991992071618004-01717-045400FM-12+004499999V0200901N00311220001CN0100001N9+03061+02401101131ADDAA106000091AG14000GF103991041021017501001001MA1999999100621MD1999999-0011REMSYN011 333 59001?EQDQ01  00003PRCP99
0115821980999991992071718004-01717-045400FM-12+004499999V0200901N00571220001CN0100001N9+03041+02481101121ADDAA106000091AG14000GF104991041021017501001001MA1999999100611MD1999999-0011REMSYN011 333 59001?EQDQ01  00003PRCP99
0121821980999991992071800004-01717-045400FM-12+004499999V0200501N00261045001CN0100001N9+02521+02311101211ADDAA106000091AG14000GF105991021011017501031001MA1999999100701MD1999999-0081REMSYN017 333 10/// 59008?EQDQ01  00003PRCP99
0121821980999991992071812004-01717-045400FM-12+004499999V0200501N00411015001CN0100001N9+02761+02481101411ADDAA106000091AG14000GF106991061021017501001001MA1999999100891MD1999999+0031REMSYN017 333 20/// 58003?EQDQ01  00003PRCP99
0115821980999991992071818004-01717-045400FM-12+004499999V0200901N00621220001CN0100001N9+03011+02371101191ADDAA106000091AG14000GF104991041021017501001001MA1999999100681MD1999999+0071REMSYN011 333 58007?EQDQ01  00003PRCP99
0121821980999991992072012004-01717-045400FM-12+004499999V0200501N00261220001CN0100001N9+02681+02351101491ADDAA106000091AG14000GF103991031011017501001001MA1999999100971MD1999999-0041REMSYN017 333 20/// 59004?EQDQ01  00003PRCP99
0121821980999991992072112004-01717-045400FM-12+004499999V0200901N00151015001CN0100001N9+02721+02391101491ADDAA106000091AG14000GF105991051021017501001001MA1999999100971MD1999999+0001REMSYN017 333 20/// 58000?EQDQ01  00003PRCP99
0115821980999991992072118004-01717-045400FM-12+004499999V0201401N00361015001CN0100001N9+03011+02321101141ADDAA106000091AG14000GF105991051021017501001001MA1999999100651MD1999999-0051REMSYN011 333 59005?EQDQ01  00003PRCP99
0137821980999991992072200004-01717-045400FM-12+004499999V0200501N00151220001CN0100001N9+02501+02311101361ADDAA106000091AG14000GA1001+999999999GF100991001001999999001001MA1999999100841MD1999999+0081REMSYN017 333 10/// 58008?EQDQ01  00003PRCP99
0121821980999991992072212004-01717-045400FM-12+004499999V0200901N00211220001CN0100001N9+02721+02411101481ADDAA106000091AG14000GF103991031021017501001001MA1999999100961MD1999999-0011REMSYN017 333 20/// 59001?EQDQ01  00003PRCP99
0115821980999991992072218004-01717-045400FM-12+004499999V0200501N00511015001CN0100001N9+02981+02351101161ADDAA106000091AG14000GF105991051021017501001001MA1999999100641MD1999999+0001REMSYN011 333 58000?EQDQ01  00003PRCP99
0121821980999991992072300004-01717-045400FM-12+004499999V0200501N00311045001CN0100001N9+02541+02381101321ADDAA106000091AG14000GF106991031021017501061001MA1999999100801MD1999999-0041REMSYN017 333 10/// 59004?EQDQ01  00003PRCP99
0121821980999991992072312004-01717-045400FM-12+004499999V0200501N00311015001CN0100001N9+02611+02441101561ADDAA106000091AG14000GF105991051021017501001001MA1999999101041MD1999999+0081REMSYN017 333 20/// 58008?EQDQ01  00003PRCP99
0115821980999991992072318004-01717-045400FM-12+004499999V0200501N00211045001CN0100001N9+02901+02481101241ADDAA106000091AG14000GF106991041021017501061001MA1999999100731MD1999999+0091REMSYN011 333 58009?EQDQ01  00003PRCP99
0121821980999991992072400004-01717-045400FM-12+004499999V0203601N00051045001CN0100001N9+02111+02031101541ADDAA106000091AG14000GF106991041021017501061001MA1999999101021MD1999999+0221REMSYN017 333 10/// 58022?EQDQ01  00003PRCP99
0149821980999991992072412004-01717-045400FM-12+004499999V0200501N00361015001CN0100001N9+02741+02481999999ADDAA124005091AG10005AY171999AY231999GF105991051021017501001001MA1999999101051MD1410001+0011MW1021REMSYN023 333 20/// 58001 60054?EQDQ01  00503PRCP99
0070821980999991992072415004-01717-045400FM-12+004499999V0209991C00001220001CN0200001N9+03001+02291101541ADDAG12000GF104991041021008001001001MD1999999-0081REMSYN011 333 59008?
0115821980999991992072418004-01717-045400FM-12+004499999V0200901N00571015001CN0100001N9+03021+02441101231ADDAA106000091AG14000GF105991051021017501001001MA1999999100711MD1999999-0021REMSYN011 333 59002?EQDQ01  00003PRCP99
0121821980999991992072512004-01717-045400FM-12+004499999V0200901N00461015001CN0100001N9+02631+02441101611ADDAA106000091AG14000GF107991051021017501011001MA1999999101091MD1999999+0041REMSYN017 333 20/// 58004?EQDQ01  00003PRCP99
0127821980999991992072712004-01717-045400FM-12+004499999V0200501N04631220001CN0100001N9+02741+02401101541ADDAA124006091AG10000GF103991031011017501001001MA1999999101021MD1999999+0071REMSYN023 333 20/// 58007 60064?EQDQ01  00603PRCP99
0115821980999991992072718004-01717-045400FM-12+004499999V0200901N00461220001CN0100001N9+03001+02391101221ADDAA106000091AG14000GF104991041021017501001001MA1999999100711MD1999999+0031REMSYN011 333 58003?EQDQ01  00003PRCP99
0121821980999991992072812004-01717-045400FM-12+004499999V0200901N004119999999N0100001N9+02711+02431101461ADDAA106000091AG14000GF106991031021017501001001MA1999999100941MD1999999+0081REMSYN017 333 20/// 58008?EQDQ01  00003PRCP99
0143821980999991992072818004-01717-045400FM-12+004499999V0200901N00311015001CN0100001N9+02821+02421101121ADDAA106000591AG10001AY151999AY221999GF105991051021017501001001MA1999999100611MD1999999-0101MW1021REMSYN017 333 59010 69951?EQDQ01  00053PRCP99
0137821980999991992072900004-01717-045400FM-12+004499999V0200901N00261220001CN0100001N9+02461+02371101281ADDAA106000091AG14000GA1001+999999999GF100991001001999999001001MA1999999100761MD1999999-0041REMSYN017 333 10/// 59004?EQDQ01  00003PRCP99
0121821980999991992073012004-01717-045400FM-12+004499999V0200901N00361015001CN0100001N9+02621+02391101311ADDAA106000091AG14000GF107991051021017501061001MA1999999100791MD1999999+0031REMSYN017 333 20/// 58003?EQDQ01  00003PRCP99
0143821980999991992073014004-01717-045400FM-12+004499999V0200901N00361220001CN0100001N9+03041+02411101011ADDAA106001091AG10999AY151999AY221999GF104991041021017501001001MA1999999100491MD1999999-0031MW1021REMSYN017 333 59003 69971?EQDQ01  00103PRCP99
0143821980999991992073018004-01717-045400FM-12+004499999V0200901N00361220001CN0100001N9+03041+02411101011ADDAA106001091AG10001AY151999AY221999GF104991041021017501001001MA1999999100491MD1999999-0031MW1021REMSYN017 333 59003 69971?EQDQ01  00103PRCP99
0115821980999991992073118004-01717-045400FM-12+004499999V0200901N00621220001CN0100001N9+03021+02461101131ADDAA106000091AG14000GF104991041021017501001001MA1999999100681MD1999999+0121REMSYN011 333 58012?EQDQ01  00003PRCP99
0137821980999991992080100004-01717-045400FM-12+004499999V0200501N00311220001CN0100001N9+02691+02481101331ADDAA106000091AG14000GA1001+999999999GF100991001001999999001001MA1999999100811MD1999999+0181REMSYN017 333 10/// 58018?EQDQ01  00003PRCP99
0115821980999991992080318004-01717-045400FM-12+004499999V0200501N00411045001CN0100001N9+02881+02461101151ADDAA106000091AG14000GF106991041021017501061001MA1999999100631MD1999999+0001REMSYN011 333 58000?EQDQ01  00003PRCP99
0115821980999991992080418004-01717-045400FM-12+004499999V0200501N00361045001CN0100001N9+02811+02381101091ADDAA106000091AG14000GF107991031071017501061001MA1999999100571MD1999999-0061REMSYN011 333 59006?EQDQ01  00003PRCP99
0137821980999991992080500004-01717-045400FM-12+004499999V0200901N00311220001CN0100001N9+02451+02361101391ADDAA106000091AG14000GA1001+999999999GF100991001001999999001001MA1999999100871MD1999999+0061REMSYN017 333 10/// 58006?EQDQ01  00003PRCP99
0121821980999991992080512004-01717-045400FM-12+004499999V0200901N00361220001CN0100001N9+02631+02391101431ADDAA106000091AG14000GF102991021011017501001001MA1999999100911MD1999999+0011REMSYN017 333 20/// 58001?EQDQ01  00003PRCP99
0115821980999991992080518004-01717-045400FM-12+004499999V0200101N02111220001CN0100001N9+03011+02391101161ADDAA106000091AG14000GF104991021011017501041001MA1999999100641MD1999999+0071REMSYN011 333 58007?EQDQ01  00003PRCP99
0121821980999991992080712004-01717-045400FM-12+004499999V0200901N00361220001CN0100001N9+02611+02441101351ADDAA106000091AG14000GF102991021011017501001001MA1999999100831MD1999999-0161REMSYN017 333 20/// 59016?EQDQ01  00003PRCP99
0115821980999991992080718004-01717-045400FM-12+004499999V0200501N00571045001CN0100001N9+02891+02431101181ADDAA106000091AG14000GF105991031021017501061001MA1999999100561MD1999999-0151REMSYN011 333 59015?EQDQ01  00003PRCP99
0121821980999991992080812004-01717-045400FM-12+004499999V0200901N003619999999N0100001N9+02671+02451101351ADDAA106000091AG14000GF106991031021017501001001MA1999999100831MD1999999+0001REMSYN017 333 20/// 58000?EQDQ01  00003PRCP99
0143821980999991992080818004-01717-045400FM-12+004499999V0200501N00261045001CN0100001N9+02661+02441101071ADDAA106005091AG10005AY161999AY221999GF108991041051017501061001MA1999999100551MD1999999-0011MW1021REMSYN017 333 59001 60051?EQDQ01  00503PRCP99
0143821980999991992081018004-01717-045400FM-12+004499999V0200501N00571045001CN0100001N9+02841+02441101041ADDAA106000391AG10001AY151999AY221999GF106991041021017501061001MA1999999100531MD1999999-0011MW1021REMSYN017 333 59001 69931?EQDQ01  00033PRCP99
0121821980999991992081100004-01717-045400FM-12+004499999V0200901N00311045001CN0100001N9+02491+02381101121ADDAA106000091AG14000GF105991021011017501031001MA1999999100601MD1999999-0091REMSYN017 333 10/// 59009?EQDQ01  00003PRCP99
0127821980999991992081112004-01717-045400FM-12+004499999V0200901N00671015001CN0100001N9+02731+02391101461ADDAA124000391AG10000GF105991051021017501001001MA1999999100941MD1999999+0271REMSYN023 333 20/// 58027 69934?EQDQ01  00033PRCP99
0115821980999991992081118004-01717-045400FM-12+004499999V0200901N00571220001CN0100001N9+03051+02431101051ADDAA106000091AG14000GF103991031021017501001001MA1999999100541MD1999999+0011REMSYN011 333 58001?EQDQ01  00003PRCP99
0121821980999991992081212004-01717-045400FM-12+004499999V0200901N00511015001CN0100001N9+02711+02301101501ADDAA106000091AG14000GF107991051021017501061001MA1999999100981MD1999999+0041REMSYN017 333 20/// 58004?EQDQ01  00003PRCP99
0115821980999991992081218004-01717-045400FM-12+004499999V0200901N00571015001CN0100001N9+02981+02301101171ADDAA106000091AG14000GF105991051021017501001001MA1999999100661MD1999999+0121REMSYN011 333 58012?EQDQ01  00003PRCP99
0137821980999991992081300004-01717-045400FM-12+004499999V0200501N00311220001CN0100001N9+02501+02251101311ADDAA106000091AG14000GA1001+999999999GF100991001001999999001001MA1999999100791MD1999999+0001REMSYN017 333 10/// 58000?EQDQ01  00003PRCP99
0121821980999991992081312004-01717-045400FM-12+004499999V0201401N00151220001CN0100001N9+02621+02331101461ADDAA106000091AG14000GF103991031021017501001001MA1999999100941MD1999999-0041REMSYN017 333 20/// 59004?EQDQ01  00003PRCP99
0121821980999991992081412004-01717-045400FM-12+004499999V0200501N00311015001CN0100001N9+02641+02401100141ADDAA106000091AG14000GF105991051021017501001001MA1999999100901MD1999999-0041REMSYN017 333 20/// 59004?EQDQ01  00003PRCP99
0143821980999991992081418004-01717-045400FM-12+004499999V0200901N00511220001CN0100001N9+02791+02501101051ADDAA106001091AG10005AY161999AY221999GF104991041021017501001001MA1999999100541MD1999999-0121MW1021REMSYN017 333 59012 60011?EQDQ01  00103PRCP99
0121821980999991992081500004-01717-045400FM-12+004499999V0200501N00211220001CN0100001N9+02511+02361101141ADDAA106000091AG14000GF103991031011017501001001MA1999999100621MD1999999-0171REMSYN017 333 10/// 59017?EQDQ01  00003PRCP99
0127821980999991992081512004-01717-045400FM-12+004499999V0200501N00621015001CN0100001N9+02731+02371101371ADDAA124001091AG10000GF105991051021017501001001MA1999999100851MD1999999-0051REMSYN023 333 20/// 59005 60014?EQDQ01  00103PRCP99
0127821980999991992081612004-01717-045400FM-12+004499999V0200901N00361015001CN0100001N9+02781+02481101261ADDAA124001091AG10000GF105991051021017501001001MA1999999100741MD1999999-0111REMSYN023 333 20/// 59011 69984?EQDQ01  00103PRCP99
0121821980999991992081712004-01717-045400FM-12+004499999V0200901N00461220001CN0100001N9+02761+02501101301ADDAA106000091AG14000GF105991041021017501001011MA1999999100781MD1999999+0041REMSYN017 333 20/// 58004?EQDQ01  00003PRCP99
0143821980999991992081718004-01717-045400FM-12+004499999V0200901N00621045001CN0100001N9+02661+02501101211ADDAA106000391AG10001AY151999AY221999GF105991031021017501061001MA1999999100701MD1999999+0081MW1021REMSYN017 333 58008 69931?EQDQ01  00033PRCP99
0127821980999991992081812004-01717-045400FM-12+004499999V0200901N00511220001CN0100001N9+02691+02261101461ADDAA124000391AG10000GF102991021011017501001001MA1999999100941MD1999999+0161REMSYN023 333 20/// 58016 69934?EQDQ01  00033PRCP99
0115821980999991992081818004-01717-045400FM-12+004499999V0200901N00721220001CN0100001N9+02991+02201101211ADDAA106000091AG14000GF103991031021017501001001MA1999999100711MD1999999+0011REMSYN011 333 58001?EQDQ01  00003PRCP99
0137821980999991992081900004-01717-045400FM-12+004499999V0200501N00211220001CN0100001N9+02471+02291101331ADDAA106000091AG14000GA1001+999999999GF100991001001999999001001MA1999999100811MD1999999+0051REMSYN017 333 10/// 58005?EQDQ01  00003PRCP99
0132821980999991992081912004-01717-045400FM-12+004499999V0200901N00211220001CN0200001N9+02611+02331101451ADDAA124000691AA299000591AG10000GF102991021041004501001001KA1999N+02131MA1999999101391MD1999999-0011REMSYN023 333 20213 59001 69964?
0115821980999991992081918004-01717-045400FM-12+004499999V0200901N00571220001CN0100001N9+03061+02301101151ADDAA106000091AG14000GF103991031021017501001001MA1999999100641MD1999999-0071REMSYN011 333 59007?EQDQ01  00003PRCP99
0115821980999991992082018004-01717-045400FM-12+004499999V0200901N00671220001CN0100001N9+03111+02411999999ADDAA106000091AG14000GF104991041021017501001001MA1999999100521MD1999999-0121REMSYN011 333 59012?EQDQ01  00003PRCP99
0121821980999991992082112004-01717-045400FM-12+004499999V0200901N00361015001CN0100001N9+02751+02351101411ADDAA106000091AG14000GF105991051021017501001001MA1999999100891MD1999999-0041REMSYN017 333 20/// 59004?EQDQ01  00003PRCP99
0115821980999991992082118004-01717-045400FM-12+004499999V0200901N00621220001CN0100001N9+03091+02271101141ADDAA106000091AG14000GF102991021021017501001001MA1999999100631MD1999999+0111REMSYN011 333 58011?EQDQ01  00003PRCP99
0127821980999991992082212004-01717-045400FM-12+004499999V0200901N00571015001CN0100001N9+02731+02301101241ADDAA124000191AG10000GF106991061021017501001001MA1999999100721MD1999999-0711REMSYN023 333 20/// 59071 69914?EQDQ01  00013PRCP99
0115821980999991992082418004-01717-045400FM-12+004499999V0200901N00411015001CN0100001N9+03001+02391101041ADDAA106000091AG14000GF105991051021017501001001MA1999999100531MD1999999+0021REMSYN011 333 58002?EQDQ01  00003PRCP99
0137821980999991992082500004-01717-045400FM-12+004499999V0200901N00361220001CN0100001N9+02531+02351101181ADDAA106000091AG14000GA1001+999999999GF100991001001999999001001MA1999999100661MD1999999-0021REMSYN017 333 10/// 59002?EQDQ01  00003PRCP99
0121821980999991992082512004-01717-045400FM-12+004499999V0200501N00511220001CN0100001N9+02751+02481101341ADDAA106000091AG14000GF103991031021017501001001MA1999999100821MD1999999+0061REMSYN017 333 20/// 58006?EQDQ01  00003PRCP99
0115821980999991992082518004-01717-045400FM-12+004499999V0200501N00571015001CN0100001N9+02991+02351101171ADDAA106000091AG14000GF105991051021017501001001MA1999999100651MD1999999+0121REMSYN011 333 58012?EQDQ01  00003PRCP99
0115821980999991992082618004-01717-045400FM-12+004499999V0200501N00461045001CN0100001N9+02941+02471101161ADDAA106000091AG14000GF106991041021017501061001MA1999999100641MD1999999-0011REMSYN011 333 59001?EQDQ01  00003PRCP99
0137821980999991992082700004-01717-045400FM-12+004499999V0200901N00311220001CN0100001N9+02501+02341101421ADDAA106000091AG14000GA1001+999999999GF100991001001999999001001MA1999999100901MD1999999+0091REMSYN017 333 10/// 58009?EQDQ01  00003PRCP99
0121821980999991992082712004-01717-045400FM-12+004499999V0200501N00361220001CN0100001N9+02761+02421101401ADDAA106000091AG14000GF103991031021017501001001MA1999999100881MD1999999-0161REMSYN017 333 20/// 59016?EQDQ01  00003PRCP99
0115821980999991992082818004-01717-045400FM-12+004499999V0200901N00511220001CN0100001N9+03071+02371101161ADDAA106000091AG14000GF104991041021017501001001MA1999999100641MD1999999-0041REMSYN011 333 59004?EQDQ01  00003PRCP99
0121821980999991992082912004-01717-045400FM-12+004499999V0200901N00461015001CN0100001N9+02811+02381101401ADDAA106000091AG14000GF106991061021017501001001MA1999999100881MD1999999+0011REMSYN017 333 20/// 58001?EQDQ01  00003PRCP99
0115821980999991992083018004-01717-045400FM-12+004499999V0200901N00571220001CN0100001N9+03011+02371101061ADDAA106000091AG14000GF104991041021017501001001MA1999999100541MD1999999-0121REMSYN011 333 59012?EQDQ01  00003PRCP99
0137821980999991992083100004-01717-045400FM-12+004499999V0200901N00261220001CN0100001N9+02591+02321101181ADDAA106000091AG14000GA1001+999999999GF100991001001999999001001MA1999999100671MD1999999-0051REMSYN017 333 10/// 59005?EQDQ01  00003PRCP99
0121821980999991992083112004-01717-045400FM-12+004499999V0200501N00361015001CN0100001N9+02761+02461101221ADDAA106000091AG14000GF105991051021017501001001MA1999999100701MD1999999-0161REMSYN017 333 20/// 59016?EQDQ01  00003PRCP99
0115821980999991992083118004-01717-045400FM-12+004499999V0200901N00621015001CN0100001N9+03021+02361100981ADDAA106000091AG14000GF106991061021017501001001MA1999999100471MD1999999-0071REMSYN011 333 59007?EQDQ01  00003PRCP99
0115821980999991992090118004-01717-045400FM-12+004499999V0200901N00511015001CN0100001N9+03001+02291100981ADDAA106000091AG14000GF105991051021017501001001MA1999999100461MD1999999-0011REMSYN011 333 59001?EQDQ01  00003PRCP99
0121821980999991992090212004-01717-045400FM-12+004499999V0200901N00511015001CN0100001N9+02781+02421101221ADDAA106000091AG14000GF105991051011017501001001MA1999999100701MD1999999+0061REMSYN017 333 20/// 58006?EQDQ01  00003PRCP99
0121821980999991992090312004-01717-045400FM-12+004499999V0200901N00461220001CN0100001N9+02791+02421101281ADDAA106000091AG14000GF104991041021017501001001MA1999999100761MD1999999+0061REMSYN017 333 20/// 58006?EQDQ01  00003PRCP99
0115821980999991992090318004-01717-045400FM-12+004499999V0200901N00621015001CN0100001N9+03111+02311100951ADDAA106000091AG14000GF105991051021017501001001MA1999999100431MD1999999-0061REMSYN011 333 59006?EQDQ01  00003PRCP99
0121821980999991992090400004-01717-045400FM-12+004499999V0200501N00311220001CN0100001N9+02521+02361101051ADDAA106000091AG14000GF103991031011017501001001MA1999999100531MD1999999+0001REMSYN017 333 10/// 58000?EQDQ01  00003PRCP99
0121821980999991992090412004-01717-045400FM-12+004499999V0200901N00871015001CN0100001N9+02731+02401101141ADDAA106000091AG14000GF105991051021017501001001MA1999999100621MD1999999-0151REMSYN017 333 20/// 59015?EQDQ01  00003PRCP99
0115821980999991992090418004-01717-045400FM-12+004499999V0200901N00621015001CN0100001N9+03061+02271100951ADDAA106000091AG14000GF106991061021017501001001MA1999999100431MD1999999+0001REMSYN011 333 58000?EQDQ01  00003PRCP99
0121821980999991992090512004-01717-045400FM-12+004499999V0200501N00461015001CN0100001N9+02731+02211101131ADDAA106000091AG14000GF106991061021017501001001MA1999999100611MD1999999-0011REMSYN017 333 20/// 59001?EQDQ01  00003PRCP99
0115821980999991992090518004-01717-045400FM-12+004499999V0200901N00511015001CN0100001N9+03141+02331100881ADDAA106000091AG14000GF105991051021017501001001MA1999999100361MD1999999-0071REMSYN011 333 59007?EQDQ01  00003PRCP99
0121821980999991992090612004-01717-045400FM-12+004499999V0200501N00361220001CN0100001N9+02751+02461101121ADDAA106000091AG14000GF104991041021017501001001MA1999999100601MD1999999-0011REMSYN017 333 20/// 59001?EQDQ01  00003PRCP99
0121821980999991992090712004-01717-045400FM-12+004499999V0200501N00311015001CN0100001N9+02791+02401101251ADDAA106000091AG14000GF106991061021017501001001MA1999999100731MD1999999+0131REMSYN017 333 20/// 58013?EQDQ01  00003PRCP99
0121821980999991992090912004-01717-045400FM-12+004499999V0200501N00461045001CN0100001N9+02741+02301101191ADDAA106000091AG14000GF107991041071017501061001MA1999999100671MD1999999-0021REMSYN017 333 20/// 59002?EQDQ01  00003PRCP99
0115821980999991992090918004-01717-045400FM-12+004499999V0200901N00671045001CN0100001N9+02981+02371100981ADDAA106000091AG14000GF106991031021017501061001MA1999999100461MD1999999-0081REMSYN011 333 59008?EQDQ01  00003PRCP99
0115821980999991992091018004-01717-045400FM-12+004499999V0200901N00511015001CN0100001N9+03091+02371101001ADDAA106000091AG14000GF106991061021017501001001MA1999999100481MD1999999+0021REMSYN011 333 58002?EQDQ01  00003PRCP99
0115821980999991992091118004-01717-045400FM-12+004499999V0200901N00511220001CN0100001N9+03131+02271100981ADDAA106000091AG14000GF104991041021017501001001MA1999999100461MD1999999-0021REMSYN011 333 59002?EQDQ01  00003PRCP99
0121821980999991992091212004-01717-045400FM-12+004499999V0200901N00411045001CN0100001N9+02771+02461101211ADDAA106000091AG14000GF106991041021017501061001MA1999999100691MD1999999-0091REMSYN017 333 20/// 59009?EQDQ01  00003PRCP99
0115821980999991992091218004-01717-045400FM-12+004499999V0200901N00571220001CN0100001N9+03081+02211100961ADDAA106000091AG14000GF103991031021017501001001MA1999999100441MD1999999-0021REMSYN011 333 59002?EQDQ01  00003PRCP99
0121821980999991992091300004-01717-045400FM-12+004499999V0200901N00361220001CN0100001N9+02621+02451101011ADDAA106000091AG14000GF104991021011017501031001MA1999999100491MD1999999-0061REMSYN017 333 10/// 59006?EQDQ01  00003PRCP99
0121821980999991992091312004-01717-045400FM-12+004499999V0200901N00411220001CN0100001N9+02731+02321101041ADDAA106000091AG14000GF103991031011017501001001MA1999999100521MD1999999-0171REMSYN017 333 20/// 59017?EQDQ01  00003PRCP99
0115821980999991992091412004-01717-045400FM-12+004499999V0200901N00571015001CN0100001N9+03121+02331100721ADDAA106000091AG14000GF105991051021017501001001MA1999999100201MD1999999-0051REMSYN011 333 59005?EQDQ01  00003PRCP99
0121821980999991992091512004-01717-045400FM-12+004499999V0200901N00361015001CN0100001N9+02731+02341101171ADDAA106000091AG14000GF108991061071017501061001MA1999999100651MD1999999+0201REMSYN017 333 20/// 58020?EQDQ01  00003PRCP99
0115821980999991992091518004-01717-045400FM-12+004499999V0200901N00621045001CN0100001N9+02961+02311100881ADDAA106000091AG14000GF105991031021017501061001MA1999999100361MD1999999+0161REMSYN011 333 58016?EQDQ01  00003PRCP99
0115821980999991992091618004-01717-045400FM-12+004499999V0200901N00511045001CN0100001N9+03111+02261100881ADDAA106000091AG14000GF105991031021017501061001MA1999999100361MD1999999+0001REMSYN011 333 58000?EQDQ01  00003PRCP99
0121821980999991992091712004-01717-045400FM-12+004499999V0200501N00311012001CN0040001N9+02631+02441101021ADDAA106000091AG14000GF105991051021012501001001MA1999999100531MD1999999-0041REMSYN017 333 20/// 59004?EQDQ01  00003PRCP99
0121821980999991992091800004-01717-045400FM-12+004499999V0200901N00311220001CN0100001N9+02521+02381100921ADDAA106000091AG14000GF103991031011017501001001MA1999999100401MD1999999+0001REMSYN017 333 10/// 58000?EQDQ01  00003PRCP99
0121821980999991992091812004-01717-045400FM-12+004499999V0200501N00461015001CN0100001N9+02751+02461101081ADDAA106000091AG14000GF106991061021017501001001MA1999999100561MD1999999+0031REMSYN017 333 20/// 58003?EQDQ01  00003PRCP99
0115821980999991992091818004-01717-045400FM-12+004499999V0200501N00511220001CN0100001N9+03081+02441100851ADDAA106000091AG14000GF103991031021017501001001MA1999999100331MD1999999-0041REMSYN011 333 59004?EQDQ01  00003PRCP99
0121821980999991992091912004-01717-045400FM-12+004499999V0200901N00411015001CN0100001N9+02811+02401101091ADDAA106000091AG14000GF108991061021017501061001MA1999999100571MD1999999-0011REMSYN017 333 20/// 59001?EQDQ01  00003PRCP99
0115821980999991992091918004-01717-045400FM-12+004499999V0200901N00621045001CN0100001N9+02941+02331100881ADDAA106000091AG14000GF106991041021017501061001MA1999999100361MD1999999+0031REMSYN011 333 58003?EQDQ01  00003PRCP99
0121821980999991992092012004-01717-045400FM-12+004499999V0200901N00571045001CN0100001N9+02741+02381101111ADDAA106000091AG14000GF107991041071017501061001MA1999999100591MD1999999+0021REMSYN017 333 20/// 58002?EQDQ01  00003PRCP99
0115821980999991992092112004-01717-045400FM-12+004499999V0200901N005719999999N0100001N9+02771+02381101081ADDAA106000091AG14000GF105991031021017501001001MA1999999100561MD1999999-0031REMSYN011 333 59003?EQDQ01  00003PRCP99
0115821980999991992092118004-01717-045400FM-12+004499999V0200901N00621220001CN0100001N9+03071+02291100881ADDAA106000091AG14000GF104991041021017501001001MA1999999100361MD1999999-0041REMSYN011 333 59004?EQDQ01  00003PRCP99
0121821980999991992092212004-01717-045400FM-12+004499999V0200901N00411220001CN0100001N9+02731+02321101181ADDAA106000091AG14000GF103991031021017501001001MA1999999100661MD1999999+0101REMSYN017 333 20/// 58010?EQDQ01  00003PRCP99
0115821980999991992092218004-01717-045400FM-12+004499999V0200901N00721220001CN0100001N9+03161+02291100791ADDAA106000091AG14000GF103991031021017501001001MA1999999100271MD1999999-0091REMSYN011 333 59009?EQDQ01  00003PRCP99
0121821980999991992092312004-01717-045400FM-12+004499999V0200901N00511220001CN0100001N9+02741+02301101151ADDAA106000091AG14000GF103991031021017501001001MA1999999100631MD1999999-0031REMSYN017 333 20/// 59003?EQDQ01  00003PRCP99
0115821980999991992092318004-01717-045400FM-12+004499999V0200901N00671015001CN0100001N9+03121+02221100881ADDAA106000091AG14000GF105991051021017501001001MA1999999100361MD1999999+0081REMSYN011 333 58008?EQDQ01  00003PRCP99
0137821980999991992092400004-01717-045400FM-12+004499999V0200501N00361220001CN0100001N9+02531+02381101051ADDAA106000091AG14000GA1001+999999999GF100991001001999999001001MA1999999100531MD1999999+0081REMSYN017 333 10/// 58008?EQDQ01  00003PRCP99
0121821980999991992092412004-01717-045400FM-12+004499999V0200901N00461015001CN0100001N9+02891+02431101091ADDAA106000091AG14000GF106991061021017501001001MA1999999100571MD1999999-0061REMSYN017 333 20/// 59006?EQDQ01  00003PRCP99
0115821980999991992092518004-01717-045400FM-12+004499999V0200901N00511015001CN0100001N9+03081+02471100781ADDAA106000091AG14000GF105991051021017501001001MA1999999100261MD1999999-0131REMSYN011 333 59013?EQDQ01  00003PRCP99
0121821980999991992092612004-01717-045400FM-12+004499999V0200901N00461015001CN0100001N9+02771+02361101151ADDAA106000091AG14000GF106991061021017501001001MA1999999100631MD1999999+0161REMSYN017 333 20/// 58016?EQDQ01  00003PRCP99
0115821980999991992092818004-01717-045400FM-12+004499999V0200901N00511015001CN0100001N9+03061+02451101071ADDAA106000091AG14000GF105991051021017501001001MA1999999100551MD1999999-0051REMSYN011 333 59005?EQDQ01  00003PRCP99
0121821980999991992092912004-01717-045400FM-12+004499999V0200901N00461015001CN0100001N9+02781+02421101371ADDAA106000091AG14000GF106991061021017501001001MA1999999100851MD1999999+0061REMSYN017 333 20/// 58006?EQDQ01  00003PRCP99
0115821980999991992092918004-01717-045400FM-12+004499999V0200901N00571220001CN0100001N9+03101+02511101081ADDAA106000091AG14000GF104991041021017501001001MA1999999100561MD1999999-0011REMSYN011 333 59001?EQDQ01  00003PRCP99
0121821980999991992093012004-01717-045400FM-12+004499999V0200901N00311015001CN0100001N9+02641+02351101391ADDAA106000091AG14000GF108991061021017501001001MA1999999100871MD1999999+0021REMSYN017 333 20/// 58002?EQDQ01  00003PRCP99
0115821980999991992100118004-01717-045400FM-12+004499999V0200501N00571220001CN0100001N9+03061+02301100941ADDAA106000091AG14000GF103991031021017501001001MA1999999100421MD1999999-0081REMSYN011 333 59008?EQDQ01  00003PRCP99
0121821980999991992100212004-01717-045400FM-12+004499999V0200501N00411015001CN0100001N9+02781+02361101061ADDAA106000091AG14000GF107991051021017501061001MA1999999100541MD1999999-0131REMSYN017 333 20/// 59013?EQDQ01  00003PRCP99
0115821980999991992100418004-01717-045400FM-12+004499999V0200501N00361015001CN0100001N9+03011+02341100861ADDAA106000091AG14000GF106991061021017501001001MA1999999100341MD1999999-0121REMSYN011 333 59012?EQDQ01  00003PRCP99
0115821980999991992100618004-01717-045400FM-12+004499999V0200901N00571015001CN0100001N9+03161+02291100951ADDAA106000091AG14000GF105991051021017501001001MA1999999100431MD1999999+0071REMSYN011 333 58007?EQDQ01  00003PRCP99
0121821980999991992100712004-01717-045400FM-12+004499999V0200501N00721220001CN0100001N9+02831+02261101261ADDAA106000091AG14000GF104991041021017501001001MA1999999100741MD1999999+0071REMSYN017 333 20/// 58007?EQDQ01  00003PRCP99
0121821980999991992100812004-01717-045400FM-12+004499999V0200501N00411220001CN0100001N9+02911+02371101321ADDAA106000091AG14000GF103991031011017501001001MA1999999100801MD1999999+0061REMSYN017 333 20/// 58006?EQDQ01  00003PRCP99
0121821980999991992100912004-01717-045400FM-12+004499999V0200501N00411220001CN0100001N9+02821+02271101311ADDAA106000091AG14000GF102991021011017501001001MA1999999100791MD1999999-0011REMSYN017 333 20/// 59001?EQDQ01  00003PRCP99
0115821980999991992100918004-01717-045400FM-12+004499999V0200901N00571220001CN0100001N9+03131+02251101091ADDAA106000091AG14000GF103991031021017501001001MA1999999100571MD1999999-0041REMSYN011 333 59004?EQDQ01  00003PRCP99
0121821980999991992101012004-01717-045400FM-12+004499999V0200901N00411045001CN0100001N9+02841+02401101391ADDAA106000091AG14000GF106991021021017501061001MA1999999100871MD1999999+0091REMSYN017 333 20/// 58009?EQDQ01  00003PRCP99
0115821980999991992101318004-01717-045400FM-12+004499999V0200901N00571015001CN0100001N9+03081+02381100981ADDAA106000091AG14000GF105991051021017501001001MA1999999100461MD1999999+0031REMSYN011 333 58003?EQDQ01  00003PRCP99
0115821980999991992101418004-01717-045400FM-12+004499999V0200901N00461015001CN0100001N9+03071+02211101091ADDAA106000091AG14000GF106991061021017501001001MA1999999100571MD1999999+0111REMSYN011 333 58011?EQDQ01  00003PRCP99
0121821980999991992101512004-01717-045400FM-12+004499999V0200501N00511220001CN0100001N9+02821+02361101381ADDAA106000091AG14000GF103991031021017501001001MA1999999100861MD1999999+0091REMSYN017 333 20/// 58009?EQDQ01  00003PRCP99
0121821980999991992101612004-01717-045400FM-12+004499999V0200901N00361045001CN0100001N9+02811+02341101291ADDAA106000091AG14000GF105991031021017501061001MA1999999100771MD1999999-0091REMSYN017 333 20/// 59009?EQDQ01  00003PRCP99
0119821980999991992101712004-01717-045400FM-12+004499999V0200501N00511015001CN0100001N9+02811+02521101271ADDAA106000091AA224002091AG10000GF108991061071017501061001MA1999999100751MD1999999-0021REMSYN023 333 20/// 59002 60024?
0137821980999991992101900004-01717-045400FM-12+004499999V0200501N00311220001CN0100001N9+02571+02361101081ADDAA106000091AG14000GA1001+999999999GF100991001001999999001001MA1999999100561MD1999999+0001REMSYN017 333 10/// 58000?EQDQ01  00003PRCP99
0121821980999991992101912004-01717-045400FM-12+004499999V0200901N00211045001CN0100001N9+02801+02361101101ADDAA106000091AG14000GF106991041021017501061001MA1999999100581MD1999999-0111REMSYN017 333 20/// 59011?EQDQ01  00003PRCP99
0115821980999991992101918004-01717-045400FM-12+004499999V0200901N00621220001CN0100001N9+03181+02251100881ADDAA106000091AG14000GF103991031021017501001001MA1999999100361MD1999999-0131REMSYN011 333 59013?EQDQ01  00003PRCP99
0137821980999991992102000004-01717-045400FM-12+004499999V0200501N00261220001CN0100001N9+02501+02311101121ADDAA106000091AG14000GA1001+999999999GF100991001001999999001001MA1999999100601MD1999999+0041REMSYN017 333 10/// 58004?EQDQ01  00003PRCP99
0121821980999991992102012004-01717-045400FM-12+004499999V0201401N00101045001CN0100001N9+02731+02431101221ADDAA106000091AG14000GF108991041021017501061001MA1999999100701MD1999999+0121REMSYN017 333 20/// 58012?EQDQ01  00003PRCP99
0121821980999991992102112004-01717-045400FM-12+004499999V0200501N00411015001CN0100001N9+02821+02381100131ADDAA106000091AG14000GF105991051021017501001001MA1999999100851MD1999999+0151REMSYN017 333 20/// 58015?EQDQ01  00003PRCP99
0121821980999991992102212004-01717-045400FM-12+004499999V0200901N00461045001CN0100001N9+02791+02311101311ADDAA106000091AG14000GF106991041021017501061001MA1999999100791MD1999999-0061REMSYN017 333 20/// 59006?EQDQ01  00003PRCP99
0137821980999991992102500004-01717-045400FM-12+004499999V0200501N00361220001CN0100001N9+02541+02331101031ADDAA106000091AG14000GA1001+999999999GF100991001001999999001001MA1999999100511MD1999999-0031REMSYN017 333 10/// 59003?EQDQ01  00003PRCP99
0121821980999991992102612004-01717-045400FM-12+004499999V0200501N00411220001CN0100001N9+02811+02341101181ADDAA106000091AG14000GF103991031021017501001001MA1999999100641MD1999999-0011REMSYN017 333 20/// 59001?EQDQ01  00003PRCP99
0115821980999991992102618004-01717-045400FM-12+004499999V0200901N00461045001CN0100001N9+02881+02251100931ADDAA106000091AG14000GF108991041021017501061001MA1999999100411MD1999999-0041REMSYN011 333 59004?EQDQ01  00003PRCP99
0121821980999991992102712004-01717-045400FM-12+004499999V0200501N00311015001CN0100001N9+02771+02311101111ADDAA106000091AG14000GF108991061071017501061001MA1999999100591MD1999999-0071REMSYN017 333 20/// 59007?EQDQ01  00003PRCP99
0115821980999991992102718004-01717-045400FM-12+004499999V0200901N00511015001CN0100001N9+02991+02441100791ADDAA106000091AG14000GF106991061021017501001001MA1999999100371MD1999999-0141REMSYN011 333 59014?EQDQ01  00003PRCP99
0121821980999991992102812004-01717-045400FM-12+004499999V0200901N00411015001CN0100001N9+02431+02301100991ADDAA106000091AG14000GF108991061071017501061001MA1999999100471MD1999999-0011REMSYN017 333 20/// 59001?EQDQ01  00003PRCP99
0115821980999991992110118004-01717-045400FM-12+004499999V0200501N00571015001CN0100001N9+03021+02341100641ADDAA106000091AG14000GF106991061021017501001001MA1999999100131MD1999999-0201REMSYN011 333 59020?EQDQ01  00003PRCP99
0121821980999991992110300004-01717-045400FM-12+004499999V0200501N00311045001CN0100001N9+02591+02391100881ADDAA106000091AG14000GF105991021011017501031001MA1999999100361MD1999999+0031REMSYN017 333 10/// 58003?EQDQ01  00003PRCP99
0121821980999991992110312004-01717-045400FM-12+004499999V0200501N005119999999N0100001N9+02891+02371101011ADDAA106000091AG14000GF105991031021017501001001MA1999999100511MD1999999-0071REMSYN017 333 20/// 59007?EQDQ01  00003PRCP99
0115821980999991992110318004-01717-045400FM-12+004499999V0200501N00511220001CN0100001N9+03161+02451100781ADDAA106000091AG14000GF102991021021017501001001MA1999999100271MD1999999-0011REMSYN011 333 59001?EQDQ01  00003PRCP99
0115821980999991992110418004-01717-045400FM-12+004499999V0200501N00511015001CN0100001N9+03071+02421100691ADDAA106000091AG14000GF105991051021017501001001MA1999999100181MD1999999-0091REMSYN011 333 59009?EQDQ01  00003PRCP99
0121821980999991992110500004-01717-045400FM-12+004499999V0200501N00311220001CN0100001N9+02521+02331100811ADDAA106000091AG14000GF103991021011017501031001MA1999999100301MD1999999-0061REMSYN017 333 10/// 59006?EQDQ01  00003PRCP99
0121821980999991992110612004-01717-045400FM-12+004499999V0200501N00411045001CN0100001N9+02881+02481100911ADDAA106000091AG14000GF106991041021017501061001MA1999999100401MD1999999+0001REMSYN017 333 20/// 58000?EQDQ01  00003PRCP99
0115821980999991992110618004-01717-045400FM-12+004499999V0203601N00361045001CN0100001N9+03011+02341100651ADDAA106000091AG14000GF107991031071017501061001MA1999999100141MD1999999-0061REMSYN011 333 59006?EQDQ01  00003PRCP99
0121821980999991992110712004-01717-045400FM-12+004499999V0200501N00311045001CN0100001N9+02841+02481101001ADDAA106000091AG14000GF106991041021017501061001MA1999999100481MD1999999+0081REMSYN017 333 20/// 58008?EQDQ01  00003PRCP99
0115821980999991992110718004-01717-045400FM-12+004499999V0200901N00621015001CN0100001N9+02901+02321100691ADDAA106000091AG14000GF106991051021017501061001MA1999999100181MD1999999+0011REMSYN011 333 58001?EQDQ01  00003PRCP99
0127821980999991992110912004-01717-045400FM-12+004499999V0200901N00151015001CN0100001N9+02881+02541101261ADDAA124003091AG10000GF106991061021017501001001MA1999999100741MD1999999+0001REMSYN023 333 20/// 58000 60034?EQDQ01  00303PRCP99
0092821980999991992111009004-01717-045400FM-12+004499999V0209991C00001220001CN0040001N9+02321+02271101121ADDAG11000AY101999AY201999GF101991011061001501001001MD1999999+0001MW1101REMSYN011 333 58000?
0115821980999991992111018004-01717-045400FM-12+004499999V0200901N00461220001CN0100001N9+03121+02361100861ADDAA106000091AG14000GF103991031021017501001001MA1999999100341MD1999999-0071REMSYN011 333 59007?EQDQ01  00003PRCP99
0121821980999991992111112004-01717-045400FM-12+004499999V0200501N00411015001CN0100001N9+02801+02361101041ADDAA106000091AG14000GF108991061071017501061001MA1999999100521MD1999999-0211REMSYN017 333 20/// 59021?EQDQ01  00003PRCP99
0127821980999991992111212004-01717-045400FM-12+004499999V0200901N00511045001CN0100001N9+02871+02461101001ADDAA124002091AG10000GF106991031021017501061001MA1999999100481MD1999999-0021REMSYN023 333 20/// 59002 60024?EQDQ01  00203PRCP99
0115821980999991992111218004-01717-045400FM-12+004499999V0200901N00461045001CN0100001N9+02821+02331100851ADDAA106000091AG14000GF108991041021017501061001MA1999999100331MD1999999+0021REMSYN011 333 58002?EQDQ01  00003PRCP99
0121821980999991992111300004-01717-045400FM-12+004499999V0200501N00311220001CN0100001N9+02511+02361100821ADDAA106000091AG14000GF104991021011017501031001MA1999999100301MD1999999-0091REMSYN017 333 10/// 59009?EQDQ01  00003PRCP99
0121821980999991992111312004-01717-045400FM-12+004499999V0200501N00261105001CN0100001N9+02791+02481101011ADDAA106000091AG14000GF105991021021017501041011MA1999999100491MD1999999+0011REMSYN017 333 20/// 58001?EQDQ01  00003PRCP99
0115821980999991992111318004-01717-045400FM-12+004499999V0200501N00571045001CN0100001N9+03031+02461100781ADDAA106000091AG14000GF106991041021017501061001MA1999999100271MD1999999-0061REMSYN011 333 59006?EQDQ01  00003PRCP99
0121821980999991992111412004-01717-045400FM-12+004499999V0200901N00621015001CN0100001N9+02911+02771101041ADDAA106000091AG14000GF108991061071017501061001MA1999999100521MD1999999+0031REMSYN017 333 20/// 58003?EQDQ01  00003PRCP99
0115821980999991992111418004-01717-045400FM-12+004499999V0200901N00511015001CN0100001N9+02881+02301100851ADDAA106000091AG14000GF108991051021017501061001MA1999999100331MD1999999+0061REMSYN011 333 58006?EQDQ01  00003PRCP99
0121821980999991992111612004-01717-045400FM-12+004499999V0200501N00511045001CN0100001N9+02821+02401101101ADDAA106000091AG14000GF105991041021017501061001MA1999999100581MD1999999+0031REMSYN017 333 20/// 58003?EQDQ01  00003PRCP99
0121821980999991992111712004-01717-045400FM-12+004499999V0200501N00361045001CN0100001N9+02831+02441101021ADDAA106000091AG14000GF106991021021017501041011MA1999999100511MD1999999-0071REMSYN017 333 20/// 59007?EQDQ01  00003PRCP99
0115821980999991992111718004-01717-045400FM-12+004499999V0200501N00461220001CN0100001N9+03101+02391100711ADDAA106000091AG14000GF105991041021017501001011MA1999999100271MD1999999-0081REMSYN011 333 59008?EQDQ01  00003PRCP99
0115821980999991992111818004-01717-045400FM-12+004499999V0200501N00511045001CN0100001N9+02981+02421100741ADDAA106000091AG14000GF106991041021017501061001MA1999999100231MD1999999+0031REMSYN011 333 58003?EQDQ01  00003PRCP99
0121821980999991992111912004-01717-045400FM-12+004499999V0200501N005719999999N0100001N9+02931+02401101061ADDAA106000091AG14000GF105991031021017501001001MA1999999100551MD1999999+0081REMSYN017 333 20/// 58008?EQDQ01  00003PRCP99
0121821980999991992112012004-01717-045400FM-12+004499999V0200901N00361015001CN0100001N9+02921+02361101131ADDAA106000091AG14000GF106991061021017501001001MA1999999100621MD1999999+0071REMSYN017 333 20/// 58007?EQDQ01  00003PRCP99
0115821980999991992112018004-01717-045400FM-12+004499999V0200901N00621015001CN0100001N9+03121+02381100831ADDAA106000091AG14000GF105991051021017501001001MA1999999100321MD1999999-0041REMSYN011 333 59004?EQDQ01  00003PRCP99
0115821980999991992112118004-01717-045400FM-12+004499999V0200901N00511220001CN0100001N9+03281+02291100711ADDAA106000091AG14000GF103991031021017501001001MA1999999100201MD1999999-0121REMSYN011 333 59012?EQDQ01  00003PRCP99
0115821980999991992112218004-01717-045400FM-12+004499999V0200901N00511220001CN0100001N9+03161+02371100601ADDAA106000091AG14000GF104991041021017501001001MA1999999100091MD1999999-0111REMSYN011 333 59011?EQDQ01  00003PRCP99
0121821980999991992112312004-01717-045400FM-12+004499999V0200901N00571220001CN0100001N9+02921+02451100811ADDAA106000091AG14000GF104991041021017501001001MA1999999100301MD1999999-0061REMSYN017 333 20/// 59006?EQDQ01  00003PRCP99
0115821980999991992112418004-01717-045400FM-12+004499999V0200901N00511015001CN0100001N9+03251+02391100741ADDAA106000091AG14000GF105991051021017501001001MA1999999100231MD1999999+0121REMSYN011 333 58012?EQDQ01  00003PRCP99
0121821980999991992112500004-01717-045400FM-12+004499999V0200901N00411015001CN0100001N9+03021+02411100981ADDAA106000091AG14000GF106991061021017501001001MA1999999100471MD1999999-0021REMSYN017 333 20/// 59002?EQDQ01  00003PRCP99
0121821980999991992112512004-01717-045400FM-12+004499999V0200901N00411015001CN0100001N9+03021+02411100981ADDAA106000091AG14000GF106991061021017501001001MA1999999100471MD1999999-0021REMSYN017 333 20/// 59002?EQDQ01  00003PRCP99
0115821980999991992112518004-01717-045400FM-12+004499999V0200901N00671220001CN0100001N9+03231+02371100811ADDAA106000091AG14000GF104991041021017501001001MA1999999100301MD1999999+0071REMSYN011 333 58007?EQDQ01  00003PRCP99
0137821980999991992112700004-01717-045400FM-12+004499999V0200501N00311220001CN0100001N9+02531+02331100861ADDAA106000091AG14000GA1001+999999999GF100991001001999999001001MA1999999100341MD1999999-0141REMSYN017 333 10/// 59014?EQDQ01  00003PRCP99
0115821980999991992112718004-01717-045400FM-12+004499999V0200901N00511015001CN0100001N9+03201+02271100711ADDAA106000091AG14000GF105991051021017501001001MA1999999100201MD1999999-0101REMSYN011 333 59010?EQDQ01  00003PRCP99
0121821980999991992112812004-01717-045400FM-12+004499999V0200901N00361015001CN0100001N9+02711+02391100891ADDAA106000091AG14000GF108991051071017501061001MA1999999100371MD1999999-0081REMSYN017 333 20/// 59008?EQDQ01  00003PRCP99
0115821980999991992112818004-01717-045400FM-12+004499999V0200501N00671045001CN0100001N9+02981+02371100641ADDAA106000091AG14000GF106991041021017501061001MA1999999100131MD1999999-0071REMSYN011 333 59007?EQDQ01  00003PRCP99
0127821980999991992113012004-01717-045400FM-12+004499999V0200501N00361105001CN0100001N9+02901+02461101011ADDAA124002091AG10000GF105991021021017501041011MA1999999100501MD1999999+0031REMSYN023 333 20/// 58003 60024?EQDQ01  00203PRCP99
0115821980999991992113018004-01717-045400FM-12+004499999V0200501N00511045001CN0100001N9+02941+02331100791ADDAA106000091AG14000GF108991041021017501061001MA1999999100281MD1999999+0001REMSYN011 333 58000?EQDQ01  00003PRCP99
0121821980999991992120112004-01717-045400FM-12+004499999V0200901N00211015001CN0100001N9+02851+02441101031ADDAA106000091AG14000GF105991051021017501001001MA1999999100521MD1999999+0021REMSYN017 333 20/// 58002?EQDQ01  00003PRCP99
0115821980999991992120118004-01717-045400FM-12+004499999V0200901N00721220001CN0100001N9+03181+02251100781ADDAA106000091AG14000GF104991041021017501001001MA1999999100271MD1999999-0011REMSYN011 333 59001?EQDQ01  00003PRCP99
0121821980999991992120212004-01717-045400FM-12+004499999V0200901N00411220001CN0100001N9+02931+02341101111ADDAA106000091AG14000GF104991041021017501001001MA1999999100601MD1999999+0081REMSYN017 333 20/// 58008?EQDQ01  00003PRCP99
0134821980999991992120712004-01717-045400FM-12+004499999V0200901N00311015001CN0100001N9+02921+02341101161ADDAA106000091AG14000GF108991061071017501061001KA1999N+02571MA1999999100651MD1999999-0031REMSYN017 333 20257 59003?EQDQ01  00003PRCP99
0115821980999991992120718004-01717-045400FM-12+004499999V0200901N00511045001CN0100001N9+03151+02431100871ADDAA106000091AG14000GF106991041021017501061001MA1999999100361MD1999999+0001REMSYN011 333 58000?EQDQ01  00003PRCP99
0134821980999991992120812004-01717-045400FM-12+004499999V0200501N005119999999N0100001N9+02891+02311101191ADDAA106000091AG14000GF105991051001017501001001KA1999N+02501MA1999999100681MD1999999+0031REMSYN017 333 20250 58003?EQDQ01  00003PRCP99
0115821980999991992120818004-01717-045400FM-12+004499999V0203601N00571220001CN0100001N9+03111+02441100811ADDAA106000091AG14000GF103991031021017501001001MA1999999100301MD1999999-0061REMSYN011 333 59006?EQDQ01  00003PRCP99
0134821980999991992120900004-01717-045400FM-12+004499999V0200501N00411220001CN0100001N9+02621+02441100871ADDAA106000091AG14000GF103991031011017501001001KA1999M+03201MA1999999100361MD1999999+0031REMSYN017 333 10320 58003?EQDQ01  00003PRCP99
0134821980999991992120912004-01717-045400FM-12+004499999V0200501N00511220001CN0100001N9+02911+02461100991ADDAA106000091AG14000GF105991021021017501001011KA1999N+02401MA1999999100481MD1999999-0201REMSYN017 333 20240 59020?EQDQ01  00003PRCP99
0115821980999991992120918004-01717-045400FM-12+004499999V0200501N00511220001CN0100001N9+03131+02391999999ADDAA106000091AG14000GF104991041021017501001001MA1999999100101MD1999999-0201REMSYN011 333 59020?EQDQ01  00003PRCP99
0134821980999991992121012004-01717-045400FM-12+004499999V0200501N004119999999N0100001N9+02881+02441100981ADDAA106000091AG14000GF106991041061012501001001KA1999N+02491MA1999999100471MD1999999-0011REMSYN017 333 20249 59001?EQDQ01  00003PRCP99
0115821980999991992121018004-01717-045400FM-12+004499999V0200901N00621045001CN0100001N9+03261+02381100671ADDAA106000091AG14000GF105991041021017501061001MA1999999100161MD1999999+0061REMSYN011 333 58006?EQDQ01  00003PRCP99
0134821980999991992121112004-01717-045400FM-12+004499999V0200901N00621045001CN0100001N9+02911+02321100961ADDAA106000091AG14000GF106991041021017501061001KA1999N+02491MA1999999100451MD1999999-0021REMSYN017 333 20249 59002?EQDQ01  00003PRCP99
0115821980999991992121118004-01717-045400FM-12+004499999V0200901N00461015001CN0100001N9+03221+02371100731ADDAA106000091AG14000GF105991051021017501001001MA1999999100221MD1999999+0061REMSYN011 333 58006?EQDQ01  00003PRCP99
0134821980999991992121212004-01717-045400FM-12+004499999V0200501N00511015001CN0100001N9+02871+02301101031ADDAA106000091AG14000GF105991051021017501001001KA1999N+02451MA1999999100521MD1999999+0071REMSYN017 333 20245 58007?EQDQ01  00003PRCP99
0115821980999991992121218004-01717-045400FM-12+004499999V0200501N00411220001CN0100001N9+03181+02471100721ADDAA106000091AG14000GF104991041021017501001001MA1999999100211MD1999999-0011REMSYN011 333 59001?EQDQ01  00003PRCP99
0134821980999991992121412004-01717-045400FM-12+004499999V0200501N00261015001CN0100001N9+02891+02521101031ADDAA106000091AG14000GF107991051021017501061011KA1999N+02531MA1999999100521MD1999999+0061REMSYN017 333 20253 58006?EQDQ01  00003PRCP99
0115821980999991992121418004-01717-045400FM-12+004499999V0200501N00511015001CN0100001N9+02981+02491100811ADDAA106000091AG14000GF108991051021017501061001MA1999999100301MD1999999+0001REMSYN011 333 58000?EQDQ01  00003PRCP99
0121821980999991992121512004-01717-045400FM-12+004499999V0200901N00411015001CN0100001N9+02931+02471101001ADDAA106000091AG14000GF106991061021017501001001MA1999999100491MD1999999-0031REMSYN017 333 20/// 59003?EQDQ01  00003PRCP99
0134821980999991992121600004-01717-045400FM-12+004499999V0200501N00261220001CN0100001N9+02641+02411100991ADDAA106000091AG14000GF104991041021017501001001KA1999M+03331MA1999999100481MD1999999+0011REMSYN017 333 10333 58001?EQDQ01  00003PRCP99
0134821980999991992121612004-01717-045400FM-12+004499999V0200901N00571015001CN0100001N9+02951+02441101051ADDAA106000091AG14000GF106991061021017501001001KA1999N+02491MA1999999100541MD1999999+0051REMSYN017 333 20249 58005?EQDQ01  00003PRCP99
