0134823970999991992010112004-03733-038550FM-12+001999999V0200901N00461012001CN0200001N9+02981+02241101161ADDAA106000091AG14000GF105991051081008001001001KA1999N+02521MA1999999100851MD1999999-0261REMSYN017333   20252 59026EQDQ01  00003PRCP99
0115823970999991992010118004-03733-038550FM-12+001999999V0200901N00511220001CN0200001N9+03021+02161100841ADDAA106000091AG14000GF101991011011008001001001MA1999999100531MD1999999-0191REMSYN011333   59019EQDQ01  00003PRCP99
0154823970999991992010212004-03733-038550FM-12+001999999V0200901N00511012001CN0200001N9+02881+02251101191ADDAA124000291AA299000391AG10001AY151999AY221999GF107991061081008001001011KA1999N+02561MA1999999100881MD1999999+0001MW1011REMSYN023333   20256 58000 69924
0115823970999991992010218004-03733-038550FM-12+001999999V0200901N00511220001CN0200001N9+03011+02181100881ADDAA106000091AG14000GF106991011011008001001041MA1999999100571MD1999999-0041REMSYN011333   59004EQDQ01  00003PRCP99
0134823970999991992010312004-03733-038550FM-12+001999999V0200901N00621012001CN0200001N9+99999+99999101231ADDAA106000091AG14000GF106991061081008001001001KA1999N+02561MA1999999100921MD1999999+0071REMSYN017333   20256 58007EQDQ01  00003PRCP99
0115823970999991992010318004-03733-038550FM-12+001999999V0200901N00511220001CN0200001N9+03051+02301101051ADDAA106000091AG14000GF105991011011008001001041MA1999999100741MD1999999+0171REMSYN011333   58017EQDQ01  00003PRCP99
0134823970999991992010412004-03733-038550FM-12+001999999V0200901N00511220001CN0200001N9+02971+02171101301ADDAA106000091AG14000GF104991031081008001001011KA1999N+02591MA1999999100991MD1999999-0071REMSYN017333   20259 59007EQDQ01  00003PRCP99
0115823970999991992010418004-03733-038550FM-12+001999999V0200901N00721220001CN0200001N9+03041+02121101001ADDAA106000091AG14000GF101991011011008001001001MA1999999100691MD1999999-0051REMSYN011333   59005EQDQ01  00003PRCP99
0134823970999991992010512004-03733-038550FM-12+001999999V0201401N00311012001CN0200001N9+02821+02241101211ADDAA106000091AG14000GF106991061081008001001001KA1999N+02451MA1999999100901MD1999999-0091REMSYN017333   20245 59009EQDQ01  00003PRCP99
0134823970999991992010612004-03733-038550FM-12+001999999V0200901N00461220001CN0200001N9+02961+02211101121ADDAA106000091AG14000GF104991041021008001001001KA1999N+02501MA1999999100811MD1999999-0091REMSYN017333   20250 59009EQDQ01  00003PRCP99
0115823970999991992010618004-03733-038550FM-12+001999999V0200901N00461220001CN0200001N9+03051+02221100841ADDAA106000091AG14000GF101991011011008001001001MA1999999100531MD1999999-0021REMSYN011333   59002EQDQ01  00003PRCP99
0134823970999991992010712004-03733-038550FM-12+001999999V0200901N00411220001CN0200001N9+02981+02281101101ADDAA106000091AG14000GF106991041011008001001041KA1999N+02331MA1999999100791MD1999999-0021REMSYN017333   20233 59002EQDQ01  00003PRCP99
0115823970999991992010718004-03733-038550FM-12+001999999V0200901N00511105001CN0200001N9+02931+02261100811ADDAA106000091AG14000GF107991011011008001001061MA1999999100501MD1999999-0031REMSYN011333   59003EQDQ01  00003PRCP99
0134823970999991992010800004-03733-038550FM-12+001999999V0200901N00151220001CN9999999N9+02631+02331101151ADDAA106000091AG14000GF104991021011008001001041KA1999M+03191MA1999999100841MD1999999+0031REMSYN017333   10319 58003EQDQ01  00003PRCP99
0134823970999991992010812004-03733-038550FM-12+001999999V0200901N00411012001CN0200001N9+02871+02251101181ADDAA106000091AG14000GF106991061081008001001001KA1999N+02291MA1999999100871MD1999999-0081REMSYN017333   20229 59008EQDQ01  00003PRCP99
0115823970999991992010818004-03733-038550FM-12+001999999V0200901N003619999999N0200001N9+02971+02161100901ADDAA106000091AG14000GF107991011011008001001001MA1999999100591MD1999999+0091REMSYN011333   58009EQDQ01  00003PRCP99
0121823970999991992010912004-03733-038550FM-12+001999999V0200901N00361012001CN0200001N9+02941+02191101151ADDAA106000091AG14000GF105991051081008001001001MA1999999100841MD1999999-0031REMSYN017333   20/// 59003EQDQ01  00003PRCP99
0134823970999991992011000004-03733-038550FM-12+001999999V0200901N00211220001CN9999999N9+02661+02331101081ADDAA106000091AG14000GF102991021011008001001001KA1999M+03181MA1999999100771MD1999999+0011REMSYN017333   10318 58001EQDQ01  00003PRCP99
0134823970999991992011012004-03733-038550FM-12+001999999V0200901N00511012001CN0200001N9+02821+02291101141ADDAA106000091AG14000GF106991061081008001001001KA1999N+02561MA1999999100831MD1999999-0011REMSYN017333   20256 59001EQDQ01  00003PRCP99
0115823970999991992011018004-03733-038550FM-12+001999999V0200901N00411220001CN0200001N9+03061+02191100841ADDAA106000091AG14000GF101991011011008001001001MA1999999100531MD1999999-0051REMSYN011333   59005EQDQ01  00003PRCP99
0134823970999991992011112004-03733-038550FM-12+001999999V0200901N00361220001CN0200001N9+03001+02221101151ADDAA106000091AG14000GF103991031011008001001001KA1999N+02401MA1999999100841MD1999999+0011REMSYN017333   20240 58001EQDQ01  00003PRCP99
0115823970999991992011118004-03733-038550FM-12+001999999V0200901N00511220001CN0200001N9+03061+02301100851ADDAA106000091AG14000GF103991021011008001001011MA1999999100541MD1999999+0011REMSYN011333   58001EQDQ01  00003PRCP99
0134823970999991992011212004-03733-038550FM-12+001999999V0200901N00511220001CN0200001N9+02951+02261101181ADDAA106000091AG14000GF103991031081008001001001KA1999N+02601MA1999999100871MD1999999-0031REMSYN017333   20260 59003EQDQ01  00003PRCP99
0115823970999991992011218004-03733-038550FM-12+001999999V0200901N00511220001CN0200001N9+03001+02171100901ADDAA106000091AG14000GF103991031011008001001001MA1999999100591MD1999999+0051REMSYN011333   58005EQDQ01  00003PRCP99
0134823970999991992011312004-03733-038550FM-12+001999999V0200901N00511012001CN0200001N9+02931+02141101021ADDAA106000091AG14000GF106991051081008001001011KA1999N+02421MA1999999100711MD1999999-0161REMSYN017333   20242 59016EQDQ01  00003PRCP99
0115823970999991992011318004-03733-038550FM-12+001999999V0200901N00361045001CN0200001N9+02971+02251100681ADDAA106000091AG14000GF107991021011008001011061MA1999999100371MD1999999-0221REMSYN011333   59022EQDQ01  00003PRCP99
0134823970999991992011412004-03733-038550FM-12+001999999V0200901N00461012001CN0200001N9+02901+02171101031ADDAA106000091AG14000GF105991051081008001001001KA1999N+02461MA1999999100721MD1999999+0011REMSYN017333   20246 58001EQDQ01  00003PRCP99
0115823970999991992011418004-03733-038550FM-12+001999999V0200901N00461045001CN0200001N9+02961+02211100741ADDAA106000091AG14000GF107991011011008001011061MA1999999100431MD1999999+0061REMSYN011333   58006EQDQ01  00003PRCP99
0134823970999991992011512004-03733-038550FM-12+001999999V0200901N00411012001CN0200001N9+02861+02211101111ADDAA106000091AG14000GF106991061081008001001001KA1999N+02531MA1999999100801MD1999999+0031REMSYN017333   20253 58003EQDQ01  00003PRCP99
0115823970999991992011518004-03733-038550FM-12+001999999V0200901N00461220001CN0200001N9+03041+02121100871ADDAA106000091AG14000GF106991031011008001001041MA1999999100561MD1999999+0131REMSYN011333   58013EQDQ01  00003PRCP99
0134823970999991992011600004-03733-038550FM-12+001999999V0200901N00261045001CN9999999N9+02681+02351101121ADDAA106000091AG14000GF108991011011008001051999KA1999M+03121MA1999999100811MD1999999+0071REMSYN017333   10312 58007EQDQ01  00003PRCP99
0134823970999991992011612004-03733-038550FM-12+001999999V0200901N00211045001CN0200001N9+02871+02321101181ADDAA106000091AG14000GF108991041051008001071999KA1999N+02421MA1999999100871MD1999999+0071REMSYN017333   20242 58007EQDQ01  00003PRCP99
0115823970999991992011618004-03733-038550FM-12+001999999V0200901N00411045001CN0200001N9+02951+02281101001ADDAA106000091AG14000GF108991041051008001021999MA1999999100691MD1999999+0131REMSYN011333   58013EQDQ01  00003PRCP99
0134823970999991992011712004-03733-038550FM-12+001999999V0200901N00361012001CN0200001N9+02801+02381101321ADDAA106000091AG14000GF107991051081008001071001KA1999N+02501MA1999999101011MD1999999+0141REMSYN017333   20250 58014EQDQ01  00003PRCP99
0115823970999991992011718004-03733-038550FM-12+001999999V0200901N00461045001CN0200001N9+02901+02321101041ADDAA106000091AG14000GF107991041051008001071001MA1999999100731MD1999999+0041REMSYN011333   58004EQDQ01  00003PRCP99
0134823970999991992011812004-03733-038550FM-12+001999999V0200501N00151012001CN0200001N9+02951+02281101281ADDAA106000091AG14000GF106991061081008001001001KA1999N+02361MA1999999100971MD1999999-0041REMSYN017333   20236 59004EQDQ01  00003PRCP99
0135823970999991992011818004-03733-038550FM-12+001999999V0200501N00361045001CN0200001N9+02931+02471100981ADDAA106000691AA299000591AG10006AY161999AY221999GF107991031021008001071001MA1999999100671MD1999999-0061MW1031REMSYN017333   59006 69961
0132823970999991992011912004-03733-038550FM-12+001999999V0200901N00411012001CN0200001N9+02971+02351101251ADDAA124000691AA299000591AG10000GF106991061081008001001001KA1999N+02561MA1999999100941MD1999999-0031REMSYN023333   20256 59003 69964
0085823970999991992011918004-03733-038550FM-12+001999999V0200901N00671220001CN0200001N9+03031+02261100941ADDAG12000GF102991021011008001001001MA1999999100631MD1999999-0041REMSYN011333   59004
0134823970999991992012012004-03733-038550FM-12+001999999V0200901N00311220001CN0200001N9+02951+02261101251ADDAA106000091AG14000GF103991031081008001001001KA1999N+02521MA1999999100941MD1999999+0001REMSYN017333   20252 58000EQDQ01  00003PRCP99
0162823970999991992012112004-03733-038550FM-12+001999999V0200901N00361012001CN0200001N9+02911+02341101111ADDAA124000191AG10001AY151999AY221999GF106991061081008001001001KA1999N+02441MA1999999100801MD1999999-0141MW1031REMSYN023333   20244 59014 69914EQDQ01  00013PRCP99
0115823970999991992012118004-03733-038550FM-12+001999999V0200901N00571220001CN0200001N9+03031+02331100841ADDAA106000091AG14000GF103991031011008001001001MA1999999100531MD1999999-0051REMSYN011333   59005EQDQ01  00003PRCP99
0162823970999991992012212004-03733-038550FM-12+001999999V0200901N00361012001CN0200001N9+02901+02271101121ADDAA124002091AG10006AY161999AY221999GF106991061081008001001001KA1999N+02481MA1999999100811MD1999999+0011MW1031REMSYN023333   20248 58001 60024EQDQ01  00203PRCP99
0115823970999991992012218004-03733-038550FM-12+001999999V0200901N00311220001CN0200001N9+03091+02301100841ADDAA106000091AG14000GF103991031011008001001001MA1999999100531MD1999999+0001REMSYN011333   58000EQDQ01  00003PRCP99
0134823970999991992012312004-03733-038550FM-12+001999999V0200501N00361012001CN0200001N9+02951+02331101101ADDAA106000091AG14000GF106991061081008001001001KA1999N+02581MA1999999100791MD1999999-0021REMSYN017333   20258 59002EQDQ01  00003PRCP99
0115823970999991992012318004-03733-038550FM-12+001999999V0200501N00461220001CN0200001N9+03051+02381100791ADDAA106000091AG14000GF106991041021008001001011MA1999999100481MD1999999-0051REMSYN011333   59005EQDQ01  00003PRCP99
0162823970999991992012412004-03733-038550FM-12+001999999V0200901N00261007501CN0200001N9+02831+02481101061ADDAA124002091AG10006AY161999AY221999GF108991061051008001071999KA1999N+02531MA1999999100751MD1999999-0041MW1031REMSYN023333   20253 59004 60024EQDQ01  00203PRCP99
0143823970999991992012418004-03733-038550FM-12+001999999V0200501N00311007501CN0200001N9+02821+02381100811ADDAA106004091AG10007AY161999AY221999GF108991061051008001021999MA1999999100501MD1999999+0021MW1151REMSYN017333   58002 60041EQDQ01  00403PRCP99
0162823970999991992012500004-03733-038550FM-12+001999999V0209991C00001045001CN9999999N9+02631+02521101121ADDAA106002091AG10007AY161999AY221999GF108991031071008001021999KA1999M+03021MA1999999100811MD1999999+0031MW1511REMSYN023333   10302 58003 60021EQDQ01  00203PRCP99
0162823970999991992012512004-03733-038550FM-12+001999999V0200901N00211004201CN0200001N9+02491+02311101301ADDAA124006091AG10001AY151999AY221999GF108991051071004501021999KA1999N+02341MA1999999100991MD1999999+0141MW1021REMSYN023333   20234 58014 60064EQDQ01  00603PRCP99
0115823970999991992012518004-03733-038550FM-12+001999999V0200501N00261045001CN0200001N9+02841+02221100951ADDAA106000091AG14000GF107991021011008001071001MA1999999100641MD1999999+0141REMSYN011333   58014EQDQ01  00003PRCP99
0162823970999991992012612004-03733-038550FM-12+001999999V0200901N00151007501CN0200001N9+02721+02481101221ADDAA124003091AG19006AY161999AY221999GF108991051071008001021999KA1999N+02401MA1999999100911MD1999999-0081MW1021REMSYN023333   20240 59008 60034EQDQ01  00303PRCP99
0162823970999991992012712004-03733-038550FM-12+001999999V0200901N00411007501CN0010001N9+02371+02281101281ADDAA124017091AG10013AY161999AY221999GF108991051071008001021999KA1999N+02321MA1999999100971MD1999999+0061MW1611REMSYN023333   20232 58006 60174EQDQ01  01703PRCP99
0115823970999991992012718004-03733-038550FM-12+001999999V0200901N00361012001CN0200001N9+02911+02341100801ADDAA106000091AG14000GF105991051081008001001001MA1999999100491MD1999999-0121REMSYN011333   59012EQDQ01  00003PRCP99
0134823970999991992012800004-03733-038550FM-12+001999999V0200901N00101007501CN9999999N9+02621+02421100961ADDAA106000091AG14000GF108991051051008001071999KA1999M+03001MA1999999100651MD1999999-0201REMSYN017333   10300 59020EQDQ01  00003PRCP99
0162823970999991992012812004-03733-038550FM-12+001999999V0200901N00261007501CN0200001N9+02771+02421101041ADDAA124002091AG10006AY161999AY221999GF107991051051008001071001KA1999N+02321MA1999999100731MD1999999-0241MW1031REMSYN023333   20232 59024 60024EQDQ01  00203PRCP99
0115823970999991992012818004-03733-038550FM-12+001999999V0200501N00211045001CN0200001N9+02941+02191100731ADDAA106000091AG14000GF107991041071008001071001MA1999999100421MD1999999-0071REMSYN011333   59007EQDQ01  00003PRCP99
0134823970999991992012900004-03733-038550FM-12+001999999V0200501N00051007501CN9999999N9+02691+02391101051ADDAA106000091AG14000GF108991081071008001999999KA1999M+03041MA1999999100741MD1999999+0091REMSYN017333   10304 58009EQDQ01  00003PRCP99
0162823970999991992012912004-03733-038550FM-12+001999999V0201401N00151007501CN0200001N9+02491+02361101241ADDAA124010091AG10006AY161999AY221999GF108991051071008001021999KA1999N+02301MA1999999100931MD1999999+0201MW1021REMSYN023333   20230 58020 60104EQDQ01  01003PRCP99
0115823970999991992012918004-03733-038550FM-12+001999999V0200901N00361007501CN0200001N9+02771+02361100901ADDAA106000091AG14000GF108991051051008001071999MA1999999100591MD1999999+0171REMSYN011333   58017EQDQ01  00003PRCP99
0134823970999991992013012004-03733-038550FM-12+001999999V0201801N00311045001CN0200001N9+02831+02261101141ADDAA106000091AG14000GF107991011011008001071001KA1999N+02381MA1999999100831MD1999999-0101REMSYN017333   20238 59010EQDQ01  00003PRCP99
0115823970999991992020118004-03733-038550FM-12+001999999V0200901N00511045001CN0200001N9+03031+02361101031ADDAA106000091AG14000GF105991031021008001061011MA1999999100721MD1999999+0011REMSYN011333   58001EQDQ01  00003PRCP99
0162823970999991992020212004-03733-038550FM-12+001999999V0201401N00311007501CN0200001N9+02721+02391101281ADDAA124001091AG10006AY161999AY221999GF107991051051008001051001KA1999N+02501MA1999999100971MD1999999-0061MW1031REMSYN023333   20250 59006 60014EQDQ01  00103PRCP99
0115823970999991992020218004-03733-038550FM-12+001999999V0200901N00461045001CN0200001N9+02991+02291100991ADDAA106000091AG14000GF106991031011008001061001MA1999999100681MD1999999-0041REMSYN011333   59004EQDQ01  00003PRCP99
0162823970999991992020312004-03733-038550FM-12+001999999V0200901N00361012001CN0200001N9+02941+02361101181ADDAA124000391AG10001AY151999AY221999GF105991051081008001001001KA1999N+02421MA1999999100871MD1999999-0101MW1011REMSYN023333   20242 59010 69934EQDQ01  00033PRCP99
0134823970999991992020412004-03733-038550FM-12+001999999V0200901N00361012001CN0200001N9+02911+02361101081ADDAA106000091AG14000GF106991061081008001001001KA1999N+02601MA1999999100771MD1999999-0101REMSYN017333   20260 59010EQDQ01  00003PRCP99
0115823970999991992020418004-03733-038550FM-12+001999999V0200901N00361220001CN0200001N9+03101+02231100881ADDAA106000091AG14000GF101991011011008001001001MA1999999100571MD1999999+0011REMSYN011333   58001EQDQ01  00003PRCP99
0134823970999991992020500004-03733-038550FM-12+001999999V0200901N00311220001CN9999999N9+02711+02371101081ADDAA106000091AG14000GF103991031011008001001001KA1999M+03171MA1999999100771MD1999999-0081REMSYN017333   10317 59008EQDQ01  00003PRCP99
0134823970999991992020512004-03733-038550FM-12+001999999V0200901N00411220001CN0200001N9+02971+02151101221ADDAA106000091AG14000GF102991021011008001001001KA1999N+02551MA1999999100911MD1999999+0141REMSYN017333   20255 58014EQDQ01  00003PRCP99
0115823970999991992020518004-03733-038550FM-12+001999999V0200901N00411220001CN0200001N9+03101+02201100921ADDAA106000091AG14000GF103991031011008001001001MA1999999100611MD1999999+0041REMSYN011333   58004EQDQ01  00003PRCP99
0134823970999991992020600004-03733-038550FM-12+001999999V0201401N00051220001CN9999999N9+02651+02331101171ADDAA106000091AG14000GF100991001001999999001001KA1999M+03201MA1999999100861MD1999999+0091REMSYN017333   10320 58009EQDQ01  00003PRCP99
0134823970999991992020612004-03733-038550FM-12+001999999V0200901N00261012001CN0200001N9+03001+02341101101ADDAA106000091AG14000GF105991051081008001001001KA1999N+02461MA1999999100791MD1999999-0121REMSYN017333   20246 59012EQDQ01  00003PRCP99
0115823970999991992020618004-03733-038550FM-12+001999999V0200901N00511220001CN0200001N9+03041+02331100921ADDAA106000091AG14000GF103991021011008001031001MA1999999100621MD1999999+0001REMSYN011333   58000EQDQ01  00003PRCP99
0162823970999991992020712004-03733-038550FM-12+001999999V0200901N00511045001CN0200001N9+02851+02281101161ADDAA124005091AG10006AY161999AY221999GF106991031021008001051081KA1999N+02501MA1999999100851MD1999999+0061MW1011REMSYN023333   20250 58006 60054EQDQ01  00503PRCP99
0115823970999991992020718004-03733-038550FM-12+001999999V0200901N00361220001CN0200001N9+02851+02241100841ADDAA106000091AG14000GF103991021011008001001011MA1999999100531MD1999999-0081REMSYN011333   59008EQDQ01  00003PRCP99
0134823970999991992020800004-03733-038550FM-12+001999999V0200901N00211220001CN9999999N9+02721+02321101101ADDAA106000091AG14000GF104991041021008001001001KA1999M+03151MA1999999100791MD1999999-0031REMSYN017333   10315 59003EQDQ01  00003PRCP99
0134823970999991992020812004-03733-038550FM-12+001999999V0200901N00511220001CN0200001N9+02921+02291101161ADDAA106000091AG14000GF104991041021008001001001KA1999N+02421MA1999999100851MD1999999+0001REMSYN017333   20242 58000EQDQ01  00003PRCP99
0115823970999991992020818004-03733-038550FM-12+001999999V0200901N00261220001CN0200001N9+03051+02301100881ADDAA106000091AG14000GF103991021011008001001011MA1999999100571MD1999999+0041REMSYN011333   58004EQDQ01  00003PRCP99
0115823970999991992020918004-03733-038550FM-12+001999999V0209999999999045001CN0200001N9+03101+02181100841ADDAA106000091AG14000GF105991011011008001031051MA1999999100531MD1999999-0041REMSYN011333   59004EQDQ01  00003PRCP99
0134823970999991992021012004-03733-038550FM-12+001999999V0200901N00461045001CN0200001N9+02921+02341101171ADDAA106000091AG14000GF106991041081008001051001KA1999N+02601MA1999999100861MD1999999+0011REMSYN017333   20260 58001EQDQ01  00003PRCP99
0143823970999991992021018004-03733-038550FM-12+001999999V0200901N00411045001CN0200001N9+02941+02331100931ADDAA106002091AG10006AY161999AY221999GF106991031081008001071001MA1999999100621MD1999999+0001MW1021REMSYN017333   58000 60021EQDQ01  00203PRCP99
0162823970999991992021112004-03733-038550FM-12+001999999V0200901N00311045001CN0200001N9+02831+02401101261ADDAA124006091AG10006AY161999AY221999GF108991041081008001071999KA1999N+02521MA1999999100951MD1999999+0091MW1021REMSYN023333   20252 58009 60064EQDQ01  00603PRCP99
0162823970999991992021212004-03733-038550FM-12+001999999V0200901N00361045001CN0200001N9+02701+02301101291ADDAA124010091AG10006AY161999AY221999GF106991021011008001071001KA1999N+02311MA1999999100981MD1999999+0031MW1011REMSYN023333   20231 58003 60104EQDQ01  01003PRCP99
0115823970999991992021218004-03733-038550FM-12+001999999V0200901N00511045001CN0200001N9+02901+02221100881ADDAA106000091AG14000GF107991011011008001071001MA1999999100571MD1999999-0151REMSYN011333   59015EQDQ01  00003PRCP99
0162823970999991992021300004-03733-038550FM-12+001999999V0201801N00211004201CN9999999N9+02201+02151101271ADDAA106014091AG10021AY121999AY221999GF108991081071004501999999KA1999M+02981MA1999999100961MD1999999+0051MW1631REMSYN023333   10298 58005 60141EQDQ01  01403PRCP99
0162823970999991992021312004-03733-038550FM-12+001999999V0201401N00311045001CN0200001N9+02681+02281101221ADDAA124028091AG10006AY161999AY221999GF106991011011008001031001KA1999N+02151MA1999999100911MD1999999-0071MW1011REMSYN023333   20215 59007 60284EQDQ01  02803PRCP99
0134823970999991992021400004-03733-038550FM-12+001999999V0201801N00211045001CN9999999N9+02521+02451101251ADDAA106000091AG14000GF106991011011008001051001KA1999M+03111MA1999999100941MD1999999-0021REMSYN017333   10311 59002EQDQ01  00003PRCP99
0154823970999991992021412004-03733-038550FM-12+001999999V0200901N00461105001CN0200001N9+02881+02131101251ADDAA124000691AA299000591AG10001AY151999AY221999GF105991011011008001001051KA1999N+02361MA1999999100941MD1999999+0031MW1011REMSYN023333   20236 58003 69964
0115823970999991992021418004-03733-038550FM-12+001999999V0201401N00311045001CN0200001N9+02901+02361100921ADDAA106000091AG14000GF107991021011008001071061MA1999999100611MD1999999+0021REMSYN011333   58002EQDQ01  00003PRCP99
0162823970999991992021512004-03733-038550FM-12+001999999V0201401N00261220001CN0200001N9+02791+02381101271ADDAA124008091AG10006AY161999AY251999GF106991011011008001001041KA1999N+02351MA1999999100961MD1999999+0021MW1031REMSYN023333   20235 58002 60084EQDQ01  00803PRCP99
0115823970999991992021518004-03733-038550FM-12+001999999V0200901N00511105001CN0200001N9+03041+02281100951ADDAA106000091AG14000GF107991021091008001001061MA1999999100641MD1999999+0031REMSYN011333   58003EQDQ01  00003PRCP99
0162823970999991992021612004-03733-038550FM-12+001999999V0200901N00101007501CN0200001N9+02321+02241101621ADDAA124017091AG19014AY161999AY221999GF108991081071008001999999KA1999N+02251MA1999999101311MD1999999+0351MW1611REMSYN023333   20225 58035 60174EQDQ01  01703PRCP99
0134823970999991992021700004-03733-038550FM-12+001999999V0201401N00101045001CN9999999N9+02481+02341101331ADDAA106000091AG14000GF108991011011004501021999KA1999M+02791MA1999999101021MD1999999+0011REMSYN017333   10279 58001EQDQ01  00003PRCP99
0115823970999991992021718004-03733-038550FM-12+001999999V0200901N00361220001CN0200001N9+02921+02291100951ADDAA106000091AG14000GF104991021021008001001051MA1999999100641MD1999999-0211REMSYN011333   59021EQDQ01  00003PRCP99
0134823970999991992021800004-03733-038550FM-12+001999999V0200901N00211045001CN9999999N9+02681+02331101191ADDAA106000091AG14000GF107991031021008001051001KA1999M+03021MA1999999100881MD1999999-0141REMSYN017333   10302 59014EQDQ01  00003PRCP99
0162823970999991992021812004-03733-038550FM-12+001999999V0201401N00411045001CN0200001N9+02641+02331101091ADDAA124038091AG10006AY161999AY221999GF105991021011008001031051KA1999N+02231MA1999999100781MD1999999-0141MW1011REMSYN023333   20223 59014 60384EQDQ01  03803PRCP99
0134823970999991992021900004-03733-038550FM-12+001999999V0200901N00051220001CN9999999N9+02601+02391101031ADDAA106000091AG14000GF102991021021008001001001KA1999M+02991MA1999999100721MD1999999-0161REMSYN017333   10299 59016EQDQ01  00003PRCP99
0162823970999991992021912004-03733-038550FM-12+001999999V0201401N00151045001CN0200001N9+02541+02381101141ADDAA124031091AG10006AY161999AY221999GF108991041081004501071999KA1999N+02331MA1999999100831MD1999999+0051MW1021REMSYN023333   20233 58005 60314EQDQ01  03103PRCP99
0143823970999991992021918004-03733-038550FM-12+001999999V0201401N00311045001CN0200001N9+02941+02311100801ADDAA106000391AG10001AY151999AY221999GF106991031011008001071041MA1999999100491MD1999999+0001MW1021REMSYN017333   58000 69931EQDQ01  00033PRCP99
0134823970999991992022000004-03733-038550FM-12+001999999V0201801N00211004201CN9999999N9+02421+02301101081ADDAA106000091AG14000GF108991081071004501999999KA1999M+02951MA1999999100771MD1999999+0051REMSYN017333   10295 58005EQDQ01  00003PRCP99
0162823970999991992022012004-03733-038550FM-12+001999999V0201401N00211045001CN0200001N9+02631+02051101151ADDAA124016091AG10019AY191999AY261999GF107991031031008001071001KA1999N+02311MA1999999100841MD1999999+0011MW1031REMSYN023333   20231 58001 60164EQDQ01  01603PRCP99
0143823970999991992022018004-03733-038550FM-12+001999999V0200501N00511004201CN0200001N9+02421+02171101011ADDAA106000191AG10001AY151999AY221999GF108991081071004501999999MA1999999100701MD1999999+0211MW1021REMSYN017333   58021 69911EQDQ01  00013PRCP99
0162823970999991992022112004-03733-038550FM-12+001999999V0201801N00211007501CN0200001N9+02471+02271101191ADDAA124023091AG10006AY161999AY221999GF108991081071008001999999KA1999N+02231MA1999999100881MD1999999+0041MW1021REMSYN023333   20223 58004 60234EQDQ01  02303PRCP99
0135823970999991992022118004-03733-038550FM-12+001999999V0201401N00461045001CN0010001N9+02781+02361100951ADDAA106000291AA299000391AG10001AY121999AY221999GF108991041081004501071999MA1999999100641MD1999999-0061MW1511REMSYN017333   59006 69921
0162823970999991992022212004-03733-038550FM-12+001999999V0201401N00411012001CN0200001N9+02811+02381101121ADDAA124006091AG10006AY161999AY221999GF106991061081008001001001KA1999N+02271MA1999999100811MD1999999-0071MW1031REMSYN023333   20227 59007 60064EQDQ01  00603PRCP99
0115823970999991992022218004-03733-038550FM-12+001999999V0200901N00361220001CN0200001N9+03021+02361100831ADDAA106000091AG14000GF103991011021008001001021MA1999999100521MD1999999-0121REMSYN011333   59012EQDQ01  00003PRCP99
0162823970999991992022312004-03733-038550FM-12+001999999V0201401N00511045001CN0200001N9+02741+02301101181ADDAA124006091AG10019AY191999AY221999GF106991031021008001031061KA1999N+02351MA1999999100871MD1999999+0061MW1011REMSYN023333   20235 58006 60064EQDQ01  00603PRCP99
0115823970999991992022318004-03733-038550FM-12+001999999V0200901N00461105001CN0200001N9+02951+02351100961ADDAA106000091AG14000GF106991021021008001041041MA1999999100651MD1999999+0131REMSYN011333   58013EQDQ01  00003PRCP99
0134823970999991992022400004-03733-038550FM-12+001999999V0200901N00151220001CN9999999N9+02641+02421101281ADDAA106000091AG14000GF102991021021008001001001KA1999M+03021MA1999999100971MD1999999+0201REMSYN017333   10302 58020EQDQ01  00003PRCP99
0134823970999991992022412004-03733-038550FM-12+001999999V0201401N00311012001CN0200001N9+02781+02341101321ADDAA106000091AG14000GF106991051081008001001041KA1999N+02311MA1999999101011MD1999999+0141REMSYN017333   20231 58014EQDQ01  00003PRCP99
0115823970999991992022418004-03733-038550FM-12+001999999V0200901N00411045001CN0200001N9+03101+02091101101ADDAA106000091AG14000GF107991011011008001071001MA1999999100791MD1999999+0141REMSYN011333   58014EQDQ01  00003PRCP99
0134823970999991992022500004-03733-038550FM-12+001999999V0200901N00311045001CN9999999N9+02761+02341101371ADDAA106000091AG14000GF107991021011008001071001KA1999M+03031MA1999999101061MD1999999+0091REMSYN017333   10303 58009EQDQ01  00003PRCP99
0162823970999991992022512004-03733-038550FM-12+001999999V0201401N00361220001CN0200001N9+02841+02311101361ADDAA124002091AG10006AY161999AY221999GF103991021081008001001021KA1999N+02401MA1999999101051MD1999999+0041MW1021REMSYN023333   20240 58004 60024EQDQ01  00203PRCP99
0115823970999991992022518004-03733-038550FM-12+001999999V0200901N00461012001CN0200001N9+03021+02341101121ADDAA106000091AG14000GF106991051081008001031051MA1999999100811MD1999999+0021REMSYN011333   58002EQDQ01  00003PRCP99
0162823970999991992022612004-03733-038550FM-12+001999999V0201401N00051004201CN0005001N9+02441+02411101471ADDAA124039091AG10020AY191999AY261999GF108991081071004501999999KA1999N+02401MA1999999101161MD1999999+0111MW1511REMSYN023333   20240 58011 60394EQDQ01  03903PRCP99
0162823970999991992022712004-03733-038550FM-12+001999999V0201401N00211007501CN0200001N9+02581+02461101511ADDAA124005091AG10019AY191999AY261999GF108991051011008001071999KA1999N+02421MA1999999101201MD1999999+0041MW1021REMSYN023333   20242 58004 60054EQDQ01  00503PRCP99
0115823970999991992022718004-03733-038550FM-12+001999999V0200901N00361045001CN0200001N9+02901+02401101161ADDAA106000091AG14000GF107991011021008001071001MA1999999100851MD1999999+0081REMSYN011333   58008EQDQ01  00003PRCP99
0134823970999991992022812004-03733-038550FM-12+001999999V0201401N00311012001CN0200001N9+02871+02391101371ADDAA106000091AG14000GF106991061081008001001001KA1999N+02341MA1999999101061MD1999999-0141REMSYN017333   20234 59014EQDQ01  00003PRCP99
0115823970999991992022818004-03733-038550FM-12+001999999V0200901N00361105001CN0200001N9+02971+02301101121ADDAA106000091AG14000GF107991011021008001001061MA1999999100811MD1999999-0041REMSYN011333   59004EQDQ01  00003PRCP99
0162823970999991992022912004-03733-038550FM-12+001999999V0201801N00361220001CN0200001N9+02821+02401101291ADDAA124000391AG10001AY151999AY221999GF104991031021008001051001KA1999N+02381MA1999999100981MD1999999-0081MW1021REMSYN023333   20238 59008 69934EQDQ01  00033PRCP99
0162823970999991992030112004-03733-038550FM-12+001999999V0201401N00211012001CN0010001N9+02701+02501101341ADDAA124003091AG10007AY161999AY231999GF107991051081008001071001KA1999N+02401MA1999999101031MD1999999+0051MW1511REMSYN023333   20240 58005 60034EQDQ01  00303PRCP99
0143823970999991992030118004-03733-038550FM-12+001999999V0200901N00311045001CN0200001N9+02861+02421101041ADDAA106002091AG19006AY161999AY221999GF107991021081008001071061MA1999999100731MD1999999+0051MW1021REMSYN017333   58005 60021EQDQ01  00203PRCP99
0134823970999991992030200004-03733-038550FM-12+001999999V0200501N00101220001CN9999999N9+02641+02441101341ADDAA106000091AG14000GF105991021011008001001061KA1999M+03041MA1999999101031MD1999999+0081REMSYN017333   10304 58008EQDQ01  00003PRCP99
0162823970999991992030212004-03733-038550FM-12+001999999V0200901N00101045001CN0200001N9+02571+02371101461ADDAA124006091AG19006AY161999AY221999GF107991041071008001071001KA1999N+02261MA1999999101151MD1999999+0121MW1031REMSYN023333   20226 58012 60064EQDQ01  00603PRCP99
0115823970999991992030218004-03733-038550FM-12+001999999V0200901N00461220001CN0200001N9+02921+02411101091ADDAA106000091AG14000GF103991021011008001051001MA1999999100781MD1999999+0051REMSYN011333   58005EQDQ01  00003PRCP99
0162823970999991992030312004-03733-038550FM-12+001999999V0201401N00261012001CN0200001N9+02801+02271101331ADDAA124000191AG10001AY151999AY221999GF106991061081008001001001KA1999N+02321MA1999999101021MD1999999-0131MW1031REMSYN023333   20232 59013 69914EQDQ01  00013PRCP99
0115823970999991992030318004-03733-038550FM-12+001999999V0200901N00411220001CN0200001N9+03001+02111101021ADDAA106000091AG14000GF101991011091008001001001MA1999999100711MD1999999-0071REMSYN011333   59007EQDQ01  00003PRCP99
0134823970999991992030400004-03733-038550FM-12+001999999V0200901N00151012001CN9999999N9+02681+02451101201ADDAA106000091AG14000GF106991061081008001001001KA1999M+03071MA1999999100891MD1999999-0091REMSYN017333   10307 59009EQDQ01  00003PRCP99
0162823970999991992030412004-03733-038550FM-12+001999999V0201401N00361007501CN0010001N9+02411+02371101231ADDAA124011091AG10026AY191999AY261999GF108991081071008001999999KA1999N+02341MA1999999100921MD1999999-0101MW1611REMSYN023333   20234 59010 60114EQDQ01  01103PRCP99
0143823970999991992030418004-03733-038550FM-12+001999999V0200901N00311220001CN0200001N9+02901+02341100921ADDAA106002091AG10006AY161999AY211999GF104991031011008001061001MA1999999100611MD1999999-0101MW1011REMSYN017333   59010 60021EQDQ01  00203PRCP99
0140823970999991992030512004-03733-038550FM-12+001999999V0201401N00411220001CN0200001N9+02791+02181101151ADDAA124002091AG10000GF102991011011008001051001KA1999N+02341MA1999999100841MD1999999+0061REMSYN023333   20234 58006 60024EQDQ01  00203PRCP99
0115823970999991992030518004-03733-038550FM-12+001999999V0200901N00361045001CN0200001N9+02901+02301100911ADDAA106000091AG14000GF108991031081008001071999MA1999999100601MD1999999-0011REMSYN011333   59001EQDQ01  00003PRCP99
0134823970999991992030612004-03733-038550FM-12+001999999V0201401N00311012001CN0200001N9+02861+02281101081ADDAA106000091AG14000GF106991061081008001001001KA1999N+02501MA1999999100771MD1999999-0091REMSYN017333   20250 59009EQDQ01  00003PRCP99
0115823970999991992030618004-03733-038550FM-12+001999999V0201401N00211045001CN0200001N9+02871+02301100831ADDAA106000091AG14000GF107991031051008001071001MA1999999100521MD1999999-0081REMSYN011333   59008EQDQ01  00003PRCP99
0154823970999991992030712004-03733-038550FM-12+001999999V0201801N00361045001CN0200001N9+02751+02421101091ADDAA124000691AA299000591AG10006AY161999AY221999GF107991041081008001051001KA1999N+02361MA1999999100781MD1999999+0011MW1031REMSYN023333   20236 58001 69964
0115823970999991992030718004-03733-038550FM-12+001999999V0200901N00361220001CN0200001N9+03041+02361100831ADDAA106000091AG14000GF102991011011008001001011MA1999999100521MD1999999+0001REMSYN011333   58000EQDQ01  00003PRCP99
0162823970999991992030812004-03733-038550FM-12+001999999V0201401N00261012001CN0200001N9+02881+02501101001ADDAA124006091AG19006AY161999AY251999GF107991061081008001001011KA1999N+02441MA1999999100691MD1999999-0091MW1031REMSYN023333   20244 59009 60064EQDQ01  00603PRCP99
0143823970999991992030818004-03733-038550FM-12+001999999V0200901N00411220001CN0200001N9+03001+02491100771ADDAA106000391AG10006AY161999AY221999GF104991011011008001001051MA1999999100461MD1999999-0061MW1011REMSYN017333   59006 69931EQDQ01  00033PRCP99
0115823970999991992030918004-03733-038550FM-12+001999999V0200901N00511220001CN0200001N9+02981+02371100751ADDAA106000091AG14000GF106991031011008001001061MA1999999100441MD1999999-0021REMSYN011333   59002EQDQ01  00003PRCP99
0134823970999991992031000004-03733-038550FM-12+001999999V0200901N00361220001CN9999999N9+02741+02451100931ADDAA106000091AG14000GF103991031021008001001001KA1999M+03071MA1999999100621MD1999999-0151REMSYN017333   10307 59015EQDQ01  00003PRCP99
0162823970999991992031012004-03733-038550FM-12+001999999V0201401N00311045001CN0200001N9+02871+01941101051ADDAA124010091AG10006AY161999AY221999GF106991031081008001031011KA1999N+02421MA1999999100741MD1999999+0051MW1031REMSYN023333   20242 58005 60104EQDQ01  01003PRCP99
0115823970999991992031018004-03733-038550FM-12+001999999V0200901N00461045001CN0200001N9+03021+02101100801ADDAA106000091AG14000GF107991021021008001051001MA1999999100491MD1999999+0051REMSYN011333   58005EQDQ01  00003PRCP99
0134823970999991992031112004-03733-038550FM-12+001999999V0201401N00461220001CN0200001N9+02871+02411101081ADDAA106000091AG14000GF104991041021008001001001KA1999N+02461MA1999999100771MD1999999+0031REMSYN017333   20246 58003EQDQ01  00003PRCP99
0115823970999991992031118004-03733-038550FM-12+001999999V0200901N00571220001CN0200001N9+03011+02391100781ADDAA106000091AG14000GF102991011021008001081001MA1999999100471MD1999999-0021REMSYN011333   59002EQDQ01  00003PRCP99
0134823970999991992031200004-03733-038550FM-12+001999999V0201401N00101045001CN9999999N9+02661+02441101041ADDAA106000091AG14000GF108991021021008001011999KA1999M+03091MA1999999100731MD1999999+0011REMSYN017333   10309 58001EQDQ01  00003PRCP99
0162823970999991992031212004-03733-038550FM-12+001999999V0201401N00461220001CN0200001N9+02821+02331101101ADDAA124002091AG19019AY191999AY261999GF106991031081008001001061KA1999N+02431MA1999999100791MD1999999+0021MW1031REMSYN023333   20243 58002 60024EQDQ01  00203PRCP99
0143823970999991992031218004-03733-038550FM-12+001999999V0200901N00871012001CN0200001N9+02901+02341100901ADDAA106000191AG10001AY121999AY221999GF107991051081008001071001MA1999999100591MD1999999+0121MW1501REMSYN017333   58012 69911EQDQ01  00013PRCP99
0115823970999991992031318004-03733-038550FM-12+001999999V0200901N00461220001CN0200001N9+02971+02421100791ADDAA106000091AG14000GF102991011021008001001051MA1999999100481MD1999999-0111REMSYN011333   59011EQDQ01  00003PRCP99
0162823970999991992031400004-03733-038550FM-12+001999999V0200901N00151045001CN9999999N9+02571+02491101101ADDAA106008091AG10006AY161999AY221999GF108991021021008001071999KA1999M+03111MA1999999100791MD1999999-0101MW1031REMSYN023333   10311 59010 60081EQDQ01  00803PRCP99
0162823970999991992031412004-03733-038550FM-12+001999999V0201401N00511105001CN0200001N9+02791+02381101081ADDAA124018091AG19006AY161999AY251999GF107991041081008001001061KA1999N+02381MA1999999100771MD1999999-0051MW1031REMSYN023333   20238 59005 60184EQDQ01  01803PRCP99
0115823970999991992031418004-03733-038550FM-12+001999999V0200901N00511220001CN0200001N9+03041+02281100771ADDAA106000091AG14000GF104991011011008001001061MA1999999100461MD1999999-0021REMSYN011333   59002EQDQ01  00003PRCP99
0134823970999991992031500004-03733-038550FM-12+001999999V0200901N00211220001CN9999999N9+02701+02411101031ADDAA106000091AG14000GF100991001001999999001001KA1999M+03051MA1999999100721MD1999999-0071REMSYN017333   10305 59007EQDQ01  00003PRCP99
0134823970999991992031512004-03733-038550FM-12+001999999V0201401N00311105001CN0200001N9+02841+02291101091ADDAA106000091AG14000GF106991021011008001031061KA1999N+02381MA1999999100781MD1999999+0011REMSYN017333   20238 58001EQDQ01  00003PRCP99
0143823970999991992031518004-03733-038550FM-12+001999999V0200901N00261045001CN0200001N9+02661+02421100851ADDAA106001091AG19009AY161999AY211999GF107991031051008001071001MA1999999100541MD1999999+0081MW1211REMSYN017333   58008 60011EQDQ01  00103PRCP99
0162823970999991992031600004-03733-038550FM-12+001999999V0209991C00001007501CN9999999N9+02561+02471101191ADDAA106003091AG10006AY161999AY221999GF108991081071008001999999KA1999M+03051MA1999999100881MD1999999+0161MW1031REMSYN023333   10305 58016 60031EQDQ01  00303PRCP99
0162823970999991992031612004-03733-038550FM-12+001999999V0201801N00211007501CN0200001N9+02581+02421101261ADDAA124004091AG10001AY151999AY221999GF107991051051008001071001KA1999N+02271MA1999999100951MD1999999+0161MW1021REMSYN023333   20227 58016 60044EQDQ01  00403PRCP99
0135823970999991992031618004-03733-038550FM-12+001999999V0200901N00361045001CN0200001N9+02881+02461100891ADDAA106000291AA299000391AG10001AY151999AY221999GF107991041051008001071001MA1999999100581MD1999999+0041MW1021REMSYN017333   58004 69921
0162823970999991992031712004-03733-038550FM-12+001999999V0201401N00311045001CN0200001N9+02591+02441101361ADDAA124002091AG10006AY161999AY221999GF106991031081008001051051KA1999N+02421MA1999999101051MD1999999+0141MW1011REMSYN023333   20242 58014 60024EQDQ01  00203PRCP99
0115823970999991992031718004-03733-038550FM-12+001999999V0200901N00511105001CN0200001N9+02561+02421100881ADDAA106000091AG14000GF105991031081008001001051MA1999999100571MD1999999-0011REMSYN011333   59001EQDQ01  00003PRCP99
0134823970999991992031800004-03733-038550FM-12+001999999V0200901N00151012001CN9999999N9+02661+02431101241ADDAA106000091AG14000GF105991051081008001001001KA1999M+03061MA1999999100931MD1999999+0031REMSYN017333   10306 58003EQDQ01  00003PRCP99
0134823970999991992031812004-03733-038550FM-12+001999999V0201801N00101220001CN0200001N9+02801+02201101371ADDAA106000091AG14000GF105991011011008001001061KA1999N+02441MA1999999101061MD1999999+0011REMSYN017333   20244 58001EQDQ01  00003PRCP99
0115823970999991992031818004-03733-038550FM-12+001999999V0201401N00151012001CN0200001N9+02981+02281101061ADDAA106000091AG14000GF108991051081008001071999MA1999999100751MD1999999+0181REMSYN011333   58018EQDQ01  00003PRCP99
0134823970999991992031900004-03733-038550FM-12+001999999V0201401N00151045001CN9999999N9+02681+02461101271ADDAA106000091AG14000GF108991041051008001071999KA1999M+03011MA1999999100961MD1999999+0031REMSYN017333   10301 58003EQDQ01  00003PRCP99
0134823970999991992031912004-03733-038550FM-12+001999999V0201401N00311045001CN0200001N9+02641+02331101331ADDAA106000091AG14000GF107991011011008001051001KA1999N+02401MA1999999101021MD1999999-0041REMSYN017333   20240 59004EQDQ01  00003PRCP99
0134823970999991992032000004-03733-038550FM-12+001999999V0209991C00001021001CN9999999N9+02501+02431101031ADDAA106000091AG14000GF106991061001022501051001KA1999M+02931MA1999999100721MD1999999-0241REMSYN017333   10293 59024EQDQ01  00003PRCP99
0162823970999991992032012004-03733-038550FM-12+001999999V0201801N00261045001CN0005001N9+02711+02471101051ADDAA124046091AG10019AY191999AY261999GF106991041081008001031001KA1999N+02301MA1999999100741MD1999999-0281MW1021REMSYN023333   20230 59028 60464EQDQ01  04603PRCP99
0115823970999991992032018004-03733-038550FM-12+001999999V0200901N003119999999N0200001N9+02881+02481100681ADDAA106000091AG14000GF108991031021008001001999MA1999999100371MD1999999-0271REMSYN011333   59027EQDQ01  00003PRCP99
0134823970999991992032100004-03733-038550FM-12+001999999V0209991C00001220001CN9999999N9+02561+02471101011ADDAA106000091AG14000GF106991021001022501031041KA1999M+03051MA1999999100701MD1999999-0021REMSYN017333   10305 59002EQDQ01  00003PRCP99
0162823970999991992032112004-03733-038550FM-12+001999999V0201401N00211045001CN0200001N9+02841+02541101031ADDAA124000591AG10006AY161999AY221999GF106991041081008001031001KA1999N+02461MA1999999100721MD1999999-0021MW1031REMSYN023333   20246 59002 69954EQDQ01  00053PRCP99
0135823970999991992032118004-03733-038550FM-12+001999999V0200901N00461220001CN0200001N9+02951+02351100691ADDAA106000491AA299000591AG19006AY161999AY221999GF104991011021008001041051MA1999999100381MD1999999+0011MW1011REMSYN017333   58001 69941
0162823970999991992032212004-03733-038550FM-12+001999999V0201801N00151045001CN0200001N9+02561+02421101291ADDAA124015091AG10006AY161999AY251999GF108991031051008001021999KA1999N+02381MA1999999100981MD1999999+0261MW1031REMSYN023333   20238 58026 60154EQDQ01  01503PRCP99
0135823970999991992032218004-03733-038550FM-12+001999999V0201401N00151004201CN0200001N9+02721+02521101001ADDAA106000491AA299000591AG10001AY151999AY221999GF108991081071004501999999MA1999999100691MD1999999+0311MW1021REMSYN017333   58031 69941
0162823970999991992032300004-03733-038550FM-12+001999999V0209991C00001045001CN9999999N9+02541+02451101191ADDAA106000191AG10001AY151999AY221999GF108991011011008001071999KA1999M+02751MA1999999100881MD1999999+0201MW1031REMSYN023333   10275 58020 69911EQDQ01  00013PRCP99
0140823970999991992032312004-03733-038550FM-12+001999999V0201401N00151045001CN0200001N9+02721+02391101261ADDAA124000591AG10000GF106991031081008001061001KA1999N+02361MA1999999100951MD1999999-0031REMSYN023333   20236 59003 69954EQDQ01  00053PRCP99
0143823970999991992032318004-03733-038550FM-12+001999999V0200901N00361004201CN0040001N9+02531+02361101041ADDAA106000391AG10002AY151999AY221999GF108991081071004501999999MA1999999100731MD1999999+0041MW1511REMSYN017333   58004 69931EQDQ01  00033PRCP99
0140823970999991992032400004-03733-038550FM-12+001999999V0200901N00211045001CN9999999N9+02511+02191101281ADDAA106003091AG10000GF108991031051008001071999KA1999M+03011MA1999999100971MD1999999+0091REMSYN023333   10301 58009 60031EQDQ01  00303PRCP99
0140823970999991992032412004-03733-038550FM-12+001999999V0201801N00311045001CN0200001N9+02701+02411101181ADDAA124003091AG10000GF106991011011008001031001KA1999N+02371MA1999999100871MD1999999-0081REMSYN023333   20237 59008 60034EQDQ01  00303PRCP99
0115823970999991992032418004-03733-038550FM-12+001999999V0200901N00311045001CN0200001N9+02921+02241100911ADDAA106000091AG14000GF107991021021008001031061MA1999999100601MD1999999-0131REMSYN011333   59013EQDQ01  00003PRCP99
0134823970999991992032500004-03733-038550FM-12+001999999V0209991C00001045001CN9999999N9+02601+02401101221ADDAA106000091AG14000GF108991021041008001071999KA1999M+02991MA1999999100911MD1999999-0061REMSYN017333   10299 59006EQDQ01  00003PRCP99
0162823970999991992032512004-03733-038550FM-12+001999999V0200901N00151004201CN0020001N9+02381+02291101411ADDAA124073091AG10007AY161999AY221999GF108991081071004501999999KA1999N+02251MA1999999101101MD1999999+0231MW1511REMSYN023333   20225 58023 60734EQDQ01  07303PRCP99
0143823970999991992032518004-03733-038550FM-12+001999999V0200901N00151045001CN0200001N9+02681+02201100921ADDAA106006091AG10006AY161999AY221999GF106991021011008001071001MA1999999100611MD1999999+0011MW1011REMSYN017333   58001 60061EQDQ01  00603PRCP99
0140823970999991992032612004-03733-038550FM-12+001999999V0201401N00151220001CN0200001N9+02741+02341101361ADDAA124006091AG10000GF105991041081008001001011KA1999N+02201MA1999999101051MD1999999-0051REMSYN023333   20220 59005 60064EQDQ01  00603PRCP99
0115823970999991992032618004-03733-038550FM-12+001999999V0200901N00361220001CN0200001N9+02881+02281100981ADDAA106000091AG14000GF103991011091008001061031MA1999999100671MD1999999+0061REMSYN011333   58006EQDQ01  00003PRCP99
0134823970999991992032700004-03733-038550FM-12+001999999V0200901N00151220001CN9999999N9+02491+02341101251ADDAA106000091AG14000GF102991021011008001001001KA1999M+03031MA1999999100941MD1999999+0131REMSYN017333   10303 58013EQDQ01  00003PRCP99
0162823970999991992032712004-03733-038550FM-12+001999999V0200901N00101045001CN0200001N9+02701+02461101361ADDAA124009091AG10006AY161999AY221999GF107991041081008001071001KA1999N+02321MA1999999101051MD1999999+0001MW1021REMSYN023333   20232 58000 60094EQDQ01  00903PRCP99
0115823970999991992032718004-03733-038550FM-12+001999999V0200901N00311045001CN0200001N9+02911+02341101071ADDAA106000091AG14000GF107991041031008001071001MA1999999100761MD1999999+0091REMSYN011333   58009EQDQ01  00003PRCP99
0134823970999991992032800004-03733-038550FM-12+001999999V0209991C00001007501CN9999999N9+02601+02441101411ADDAA106000091AG14000GF108991081071008001999999KA1999M+02961MA1999999101101MD1999999+0161REMSYN017333   10296 58016EQDQ01  00003PRCP99
0134823970999991992032812004-03733-038550FM-12+001999999V0200901N00101007501CN0200001N9+02471+02381101421ADDAA106000091AG14000GF108991081071008001999999KA1999N+02341MA1999999101111MD1999999+0061REMSYN017333   20234 58006EQDQ01  00003PRCP99
0115823970999991992032818004-03733-038550FM-12+001999999V0200901N00151045001CN0200001N9+02601+02331101071ADDAA106000091AG14000GF108991031081008001071999MA1999999100761MD1999999+0001REMSYN011333   58000EQDQ01  00003PRCP99
0162823970999991992032900004-03733-038550FM-12+001999999V0200901N00051045001CN9999999N9+02501+02451101311ADDAA106001091AG10009AY161999AY221999GF107991041031008001071001KA1999M+02851MA1999999101001MD1999999-0101MW1211REMSYN023333   10285 59010 60011EQDQ01  00103PRCP99
0162823970999991992032912004-03733-038550FM-12+001999999V0200501N00101045001CN0200001N9+02421+02351101411ADDAA124013091AG10006AY161999AY221999GF108991041071008001071999KA1999N+02261MA1999999101101MD1999999-0011MW1011REMSYN023333   20226 59001 60134EQDQ01  01303PRCP99
0115823970999991992032918004-03733-038550FM-12+001999999V0200501N00051045001CN0200001N9+02821+02381100971ADDAA106000091AG14000GF107991021081008001071061MA1999999100661MD1999999+0101REMSYN011333   58010EQDQ01  00003PRCP99
0162823970999991992033012004-03733-038550FM-12+001999999V0201801N00151012001CN0200001N9+02621+02461101261ADDAA124001091AG19006AY161999AY221999GF107991051081008001001011KA1999N+02311MA1999999100951MD1999999-0151MW1021REMSYN023333   20231 59015 60014EQDQ01  00103PRCP99
0115823970999991992033018004-03733-038550FM-12+001999999V0200901N00311007501CN0200001N9+02681+02391100971ADDAA106000091AG14000GF108991051031008001071999MA1999999100661MD1999999+0001REMSYN011333   58000EQDQ01  00003PRCP99
0162823970999991992040112004-03733-038550FM-12+001999999V0201801N00101004201CN0200001N9+02501+02341101331ADDAA124018091AG10006AY161999AY221999GF108991081071004501999999KA1999N+02301MA1999999101021MD1999999+0101MW1031REMSYN023333   20230 58010 60184EQDQ01  01803PRCP99
0156823970999991992040200004-03733-038550FM-12+001999999V0209991C00001220001CN9999999N9+02521+02421101161ADDAA106000091AG10002AY121999AY211999GF102991021031008001001001KA1999M+03001MA1999999100851MD1999999+0011MW1131REMSYN017333   10300 58001EQDQ01  00003PRCP99
0081823970999991992040212004-03733-038550FM-12+001999999V0202301N00151105001CN0200001N9+02771+02501101171ADDAA106000091AG14000GF107991021081008001001061MA1999999100861EQDQ01  00003PRCP99
0137823970999991992040218004-03733-038550FM-12+001999999V0202301N00101045001CN0200001N9+02661+02391100821ADDAA106000091AG14017AY191999AY221999GF108991021081008001071061MA1999999100511MD1999999+0031MW1021REMSYN011333   58003EQDQ01  00003PRCP99
0134823970999991992040312004-03733-038550FM-12+001999999V0201801N00311105001CN0200001N9+02761+02381101321ADDAA106000091AG14000GF105991021081008001071081KA1999N+02321MA1999999101011MD1999999+0151REMSYN017333   20232 58015EQDQ01  00003PRCP99
0115823970999991992040318004-03733-038550FM-12+001999999V0200901N00211045001CN0200001N9+02821+02441100951ADDAA106000091AG14000GF108991021011008001071061MA1999999100641MD1999999+0131REMSYN011333   58013EQDQ01  00003PRCP99
0162823970999991992040412004-03733-038550FM-12+001999999V0201401N00311012001CN0200001N9+02771+02481101411ADDAA124000391AG10001AY151999AY221999GF107991051081008001061011KA1999N+02351MA1999999101101MD1999999+0091MW1031REMSYN023333   20235 58009 69934EQDQ01  00033PRCP99
0106823970999991992040612004-03733-038550FM-12+001999999V0201401N00311012001CN0200001N9+02721+02481101211ADDAG12006AY161999AY231999GF107991051081008001001051KA1999N+02351MA1999999100901MW1031REMSYN011333   20235
0162823970999991992040712004-03733-038550FM-12+001999999V0201401N00151007501CN0005001N9+02441+02411101231ADDAA124058091AG10013AY161999AY221999GF108991081071008001999999KA1999N+02361MA1999999100921MD1999999+0021MW1611REMSYN023333   20236 58002 60584EQDQ01  05803PRCP99
0115823970999991992040818004-03733-038550FM-12+001999999V0200901N00311045001CN0200001N9+02981+02421100951ADDAA106000091AG14000GF105991011011008001061001MA1999999100641MD1999999+0051REMSYN011333   58005EQDQ01  00003PRCP99
0162823970999991992040912004-03733-038550FM-12+001999999V0201401N00151007501CN0200001N9+02681+02521101261ADDAA124003091AG10013AY161999AY211999GF107991051051008001061001KA1999N+02371MA1999999100951MD1999999+0031MW1611REMSYN023333   20237 58003 60034EQDQ01  00303PRCP99
0115823970999991992040918004-03733-038550FM-12+001999999V0200901N00361012001CN0200001N9+02961+02401101021ADDAA106000091AG14000GF105991051081008001001001MA1999999100711MD1999999+0041REMSYN011333   58004EQDQ01  00003PRCP99
0162823970999991992041012004-03733-038550FM-12+001999999V0201801N00411220001CN0200001N9+02791+02421101121ADDAA124002091AG10006AY161999AY221999GF104991041081008001001001KA1999N+02361MA1999999100811MD1999999-0141MW1011REMSYN023333   20236 59014 60024EQDQ01  00203PRCP99
0135823970999991992041018004-03733-038550FM-12+001999999V0201401N00361220001CN0200001N9+02981+02421100771ADDAA106000491AA299000591AG10006AY161999AY221999GF102991021011008001001001MA1999999100461MD1999999-0251MW1011REMSYN017333   59025 69941
0162823970999991992041112004-03733-038550FM-12+001999999V0201401N00411220001CN0200001N9+02721+02321101081ADDAA124003091AG10006AY161999AY211999GF104991021011008001031001KA1999N+02341MA1999999100771MD1999999-0041MW1031REMSYN023333   20234 59004 60034EQDQ01  00303PRCP99
0115823970999991992041118004-03733-038550FM-12+001999999V0200901N00411045001CN0200001N9+02941+02431100661ADDAA106000091AG14000GF106991011011008001031001MA1999999100351MD1999999-0111REMSYN011333   59011EQDQ01  00003PRCP99
0115823970999991992041218004-03733-038550FM-12+001999999V0200901N00411220001CN0200001N9+03061+02271100701ADDAA106000091AG14000GF104991999999008001999999MA1999999100391MD1999999+0041REMSYN011333   58004EQDQ01  00003PRCP99
0134823970999991992041312004-03733-038550FM-12+001999999V0201401N00311045001CN0200001N9+02701+02261101111ADDAA106000091AG14000GF107991031051008001071001KA1999N+02301MA1999999100881MD1999999+0051REMSYN017333   20230 58005EQDQ01  00003PRCP99
0143823970999991992041318004-03733-038550FM-12+001999999V0200901N00211045001CN0200001N9+02681+02411100811ADDAA106004091AG10006AY161999AY221999GF106991011021008001031001MA1999999100501MD1999999+0111MW1011REMSYN017333   58011 60041EQDQ01  00403PRCP99
0134823970999991992041400004-03733-038550FM-12+001999999V0201801N00211220001CN9999999N9+02441+02321101081ADDAA106000091AG14000GF103991011011008001001041KA1999M+02841MA1999999100771MD1999999+0111REMSYN017333   10284 58011EQDQ01  00003PRCP99
0162823970999991992041412004-03733-038550FM-12+001999999V0201401N00311004201CN0200001N9+02801+02341101161ADDAA124005091AG10006AY161999AY221999GF107991051051004501071001KA1999N+02321MA1999999100851MD1999999+0051MW1021REMSYN023333   20232 58005 60054EQDQ01  00503PRCP99
0143823970999991992041418004-03733-038550FM-12+001999999V0200901N00311105001CN0200001N9+02741+02321100851ADDAA106005091AG10006AY161999AY221999GF106991011021008001071061MA1999999100541MD1999999+0041MW1011REMSYN017333   58004 60051EQDQ01  00503PRCP99
0162823970999991992041500004-03733-038550FM-12+001999999V0201801N00151004201CN9999999N9+02441+02411101221ADDAA106002091AG10013AY161999AY221999GF108991081071004501999999KA1999M+02971MA1999999100911MD1999999+0141MW1611REMSYN023333   10297 58014 60021EQDQ01  00203PRCP99
0162823970999991992041512004-03733-038550FM-12+001999999V0201401N00311007501CN0200001N9+02721+02371101291ADDAA124010091AG10006AY161999AY201999GF106991061071008001001001KA1999N+02351MA1999999100981MD1999999+0131MW1031REMSYN023333   20235 58013 60104EQDQ01  01003PRCP99
0115823970999991992041518004-03733-038550FM-12+001999999V0200901N00411220001CN0200001N9+02981+02301100901ADDAA106000091AG14000GF103991011011008001001061MA1999999100591MD1999999+0051REMSYN011333   58005EQDQ01  00003PRCP99
0134823970999991992041600004-03733-038550FM-12+001999999V0201401N00051007501CN9999999N9+02581+02481101201ADDAA106000091AG10000GF106991061031008001001001KA1999M+03091MA1999999100891MD1999999-0021REMSYN017 333 10309 59002?EQDQ01  00003PRCP99
0115823970999991992041618004-03733-038550FM-12+001999999V0200901N00411220001CN0200001N9+02941+02361100951ADDAA106000091AG14000GF102991021031008001001001MA1999999100641MD1999999+0051REMSYN011 333 58005?EQDQ01  00003PRCP99
0134823970999991992041700004-03733-038550FM-12+001999999V0200901N00051220001CN9999999N9+02561+02441101261ADDAA106000091AG14000GF101991011011008001001001KA1999M+03071MA1999999100951MD1999999+0061REMSYN017333   10307 58006EQDQ01  00003PRCP99
0134823970999991992041712004-03733-038550FM-12+001999999V0201401N00211012001CN0200001N9+02781+02481101291ADDAA106000091AG14000GF106991051081008001031001KA1999N+02361MA1999999100981MD1999999-0031REMSYN017333   20236 59003EQDQ01  00003PRCP99
0115823970999991992041718004-03733-038550FM-12+001999999V0200901N00411220001CN0200001N9+02971+02301100951ADDAA106000091AG14000GF102991021011008001001001MA1999999100641MD1999999+0001REMSYN011333   58000EQDQ01  00003PRCP99
0134823970999991992041800004-03733-038550FM-12+001999999V0201401N00051220001CN9999999N9+02551+02421101171ADDAA106000091AG14000GF100991001001999999001001KA1999M+03061MA1999999100861MD1999999-0091REMSYN017333   10306 59009EQDQ01  00003PRCP99
0134823970999991992041812004-03733-038550FM-12+001999999V0201401N00311012001CN0200001N9+02821+02461101191ADDAA106000091AG14000GF106991061081008001001001KA1999N+02401MA1999999100881MD1999999-0101REMSYN017333   20240 59010EQDQ01  00003PRCP99
0115823970999991992041818004-03733-038550FM-12+001999999V0200901N00461220001CN0200001N9+02961+02401100801ADDAA106000091AG14000GF105991021021008001001041MA1999999100491MD1999999-0151REMSYN011333   59015EQDQ01  00003PRCP99
0134823970999991992041900004-03733-038550FM-12+001999999V0200901N00261220001CN9999999N9+02721+02451101021ADDAA106000091AG14000GF101991011011008001001001KA1999M+03061MA1999999100711MD1999999-0151REMSYN017333   10306 59015EQDQ01  00003PRCP99
0162823970999991992041912004-03733-038550FM-12+001999999V0200901N00311045001CN0200001N9+02541+02441101141ADDAA124027091AG10006AY161999AY221999GF107991031051008001071001KA1999N+02531MA1999999100831MD1999999-0051MW1031REMSYN023333   20253 59005 60274EQDQ01  02703PRCP99
0115823970999991992041918004-03733-038550FM-12+001999999V0200901N00461220001CN0200001N9+02921+02921100701ADDAA106000091AG14000GF102991011011008001031001MA1999999100391MD1999999-0101REMSYN011333   59010EQDQ01  00003PRCP99
0134823970999991992042012004-03733-038550FM-12+001999999V0201401N00211012001CN0200001N9+02821+02541101041ADDAA106000091AG14000GF107991071081008001001001KA1999N+02321MA1999999100731MD1999999-0101REMSYN017333   20232 59010EQDQ01  00003PRCP99
0143823970999991992042018004-03733-038550FM-12+001999999V0200901N00211220001CN0200001N9+02931+02451100741ADDAA106006091AG10006AY161999AY221999GF102991021011008001001001MA1999999100431MD1999999+0041MW1011REMSYN017333   58004 60061EQDQ01  00603PRCP99
0140823970999991992042112004-03733-038550FM-12+001999999V0200901N003119999999N0200001N9+99999+99999101131ADDAA124017091AG10000GF106991001081008001001001KA1999N+02401MA1999999100891MD1999999+0091REMSYN023333   20240 58009 60174EQDQ01  01703PRCP99
0115823970999991992042118004-03733-038550FM-12+001999999V0200901N00311012001CN0200001N9+02961+02451100901ADDAA106000091AG14000GF106991051081008001001081MA1999999100591MD1999999+0161REMSYN011333   58016EQDQ01  00003PRCP99
0134823970999991992042200004-03733-038550FM-12+001999999V0200901N00151220001CN9999999N9+02671+02411101091ADDAA106000091AG14000GF101991011011008001001001KA1999M+03011MA1999999100781MD1999999+0181REMSYN017333   10301 58018EQDQ01  00003PRCP99
0134823970999991992042212004-03733-038550FM-12+001999999V0201401N00411220001CN0200001N9+02801+02421101211ADDAA106000091AG14000GF103991031021008001001001KA1999N+02381MA1999999100901MD1999999+0021REMSYN017333   20238 58002EQDQ01  00003PRCP99
0115823970999991992042218004-03733-038550FM-12+001999999V0201401N00461220001CN0200001N9+03021+02361100911ADDAA106000091AG14000GF101991011011008001001001MA1999999100601MD1999999+0011REMSYN011333   58001EQDQ01  00003PRCP99
0134823970999991992042300004-03733-038550FM-12+001999999V0200901N00461045001CN9999999N9+02811+02481101091ADDAA106000091AG14000GF106991041051008001071001KA1999M+03131MA1999999100781MD1999999+0001REMSYN017333   10313 58000EQDQ01  00003PRCP99
0134823970999991992042312004-03733-038550FM-12+001999999V0201401N00361012001CN0200001N9+02761+02281101071ADDAA106000091AG14000GF106991061081008001001001KA1999N+02431MA1999999100761MD1999999-0141REMSYN017333   20243 59014EQDQ01  00003PRCP99
0115823970999991992042318004-03733-038550FM-12+001999999V0200901N00361045001CN0200001N9+02991+02371100821ADDAA106000091AG14000GF106991031051008001051001MA1999999100511MD1999999-0091REMSYN011333   59009EQDQ01  00003PRCP99
0154823970999991992042412004-03733-038550FM-12+001999999V0201401N00311012001CN0200001N9+02721+02431100991ADDAA124000291AA299000391AG10001AY151999AY221999GF105991051081008001001001KA1999N+02291MA1999999100681MD1999999-0081MW1011REMSYN023333   20229 59008 69924
0134823970999991992042500004-03733-038550FM-12+001999999V0200901N00211220001CN9999999N9+02651+02351100841ADDAA106000091AG14000GF100991001001999999001001KA1999M+03031MA1999999100531MD1999999-0081REMSYN017333   10303 59008EQDQ01  00003PRCP99
0134823970999991992042512004-03733-038550FM-12+001999999V0201401N00361012001CN0200001N9+02781+02361100981ADDAA106000091AG14000GF106991061081008001001001KA1999N+02301MA1999999100671MD1999999-0011REMSYN017333   20230 59001EQDQ01  00003PRCP99
0115823970999991992042518004-03733-038550FM-12+001999999V0201401N00261220001CN0200001N9+02941+02241100871ADDAA106000091AG14000GF101991011011008001001001MA1999999100471MD1999999+0141REMSYN011333   58014EQDQ01  00003PRCP99
0134823970999991992042612004-03733-038550FM-12+001999999V0201401N00411220001CN0200001N9+02821+02271101331ADDAA106000091AG14000GF102991011011008001051001KA1999N+02381MA1999999101021MD1999999+0351REMSYN017333   20238 58035EQDQ01  00003PRCP99
0115823970999991992042618004-03733-038550FM-12+001999999V0200901N00411045001CN0200001N9+03031+02261101031ADDAA106000091AG14000GF106991011011008001051001MA1999999100721MD1999999+0251REMSYN011333   58025EQDQ01  00003PRCP99
0134823970999991992042712004-03733-038550FM-12+001999999V0201401N00361220001CN0200001N9+02821+02271101251ADDAA106000091AG14000GF105991011011008001001061KA1999N+02381MA1999999100941MD1999999-0081REMSYN017333   20238 59008EQDQ01  00003PRCP99
0115823970999991992042718004-03733-038550FM-12+001999999V0200901N00361220001CN0200001N9+03021+02341100901ADDAA106000091AG14000GF105991011011008001001061MA1999999100591MD1999999-0131REMSYN011333   59013EQDQ01  00003PRCP99
0134823970999991992042812004-03733-038550FM-12+001999999V0201401N00311220001CN0200001N9+02831+02351101101ADDAA106000091AG14000GF104991041081008001001001KA1999N+02371MA1999999100791MD1999999-0151REMSYN017333   20237 59015EQDQ01  00003PRCP99
0115823970999991992042818004-03733-038550FM-12+001999999V0200901N00261220001CN0200001N9+02941+02241100761ADDAA106000091AG14000GF102991011011008001001041MA1999999100451MD1999999-0141REMSYN011333   59014EQDQ01  00003PRCP99
0134823970999991992042900004-03733-038550FM-12+001999999V0200901N00051220001CN9999999N9+02581+02371100981ADDAA106000091AG14000GF100991001001999999001001KA1999M+03091MA1999999100671MD1999999-0171REMSYN017333   10309 59017EQDQ01  00003PRCP99
0134823970999991992042912004-03733-038550FM-12+001999999V0201801N00211045001CN0200001N9+02741+02471101041ADDAA106000091AG14000GF108991041021008001071999KA1999N+02401MA1999999100731MD1999999-0061REMSYN017333   20240 59006EQDQ01  00003PRCP99
0115823970999991992042918004-03733-038550FM-12+001999999V0200901N00311220001CN0200001N9+02981+02331100711ADDAA106000091AG14000GF106991011011008001001061MA1999999100401MD1999999-0051REMSYN011333   59005EQDQ01  00003PRCP99
0134823970999991992043000004-03733-038550FM-12+001999999V0209991C00001012001CN9999999N9+02601+02461101061ADDAA106000091AG14000GF107991071081008001001001KA1999M+03071MA1999999100751MD1999999+0081REMSYN017333   10307 58008EQDQ01  00003PRCP99
0162823970999991992043012004-03733-038550FM-12+001999999V0200901N00411012001CN0200001N9+02821+02421101161ADDAA124002091AG10006AY161999AY221999GF106991061081008001001001KA1999N+02461MA1999999100851MD1999999+0121MW1011REMSYN023333   20246 58012 60024EQDQ01  00203PRCP99
0143823970999991992043018004-03733-038550FM-12+001999999V0200901N00461220001CN0200001N9+02921+02391100921ADDAA106000191AG10001AY151999AY221999GF104991031011008001001011MA1999999100611MD1999999+0211MW1011REMSYN017333   58021 69911EQDQ01  00013PRCP99
0135823970999991992050118004-03733-038550FM-12+001999999V0200901N00361012001CN0200001N9+02901+02321101041ADDAA106000291AA299000391AG10005AY161999AY211999GF106991051081008001001011MA1999999100731MD1999999+0121MW1031REMSYN017333   58012 69921
0134823970999991992050200004-03733-038550FM-12+001999999V0201401N00051220001CN9999999N9+02531+02331101311ADDAA106000091AG14000GF100991001001999999001001KA1999M+03021MA1999999101001MD1999999+0151REMSYN017333   10302 58015EQDQ01  00003PRCP99
0132823970999991992050212004-03733-038550FM-12+001999999V0201401N00261012001CN0200001N9+02781+02461101341ADDAA124000291AA299000391AG10000GF106991061081008001001001KA1999N+02321MA1999999101031MD1999999+0041REMSYN023333   20232 58004 69924
0115823970999991992050218004-03733-038550FM-12+001999999V0200901N00411220001CN0200001N9+03001+02341100971ADDAA106000091AG14000GF102991021011008001001001MA1999999100661MD1999999-0071REMSYN011333   59007EQDQ01  00003PRCP99
0162823970999991992050312004-03733-038550FM-12+001999999V0201401N00361012001CN0200001N9+02821+02381101171ADDAA124003091AG10005AY161999AY221999GF107991051081008001031001KA1999N+02381MA1999999100861MD1999999-0171MW1031REMSYN023333   20238 59017 60034EQDQ01  00303PRCP99
0115823970999991992050318004-03733-038550FM-12+001999999V0200901N00311220001CN0200001N9+02951+02351100801ADDAA106000091AG14000GF101991011011008001001001MA1999999100491MD1999999-0201REMSYN011333   59020EQDQ01  00003PRCP99
0140823970999991992050412004-03733-038550FM-12+001999999V0201001N00261045001CN0200001N9+02661+02371101081ADDAA124007091AG10005GF106991011081008001031001KA1999N+02361MA1999999100771MD1999999-0091REMSYN023333   20236 59009 60074EQDQ01  00703PRCP99
0143823970999991992050418004-03733-038550FM-12+001999999V0200501N00361007501CN0200001N9+02751+02421100791ADDAA106003091AG10005AY161999AY221999GF106991051071008001031001MA1999999100481MD1999999-0011MW1021REMSYN017333   59001 60031EQDQ01  00303PRCP99
0134823970999991992050500004-03733-038550FM-12+001999999V0200501N00101220001CN9999999N9+02541+02401101001ADDAA106000091AG14000GF102991021011008001001001KA1999M+02901MA1999999100691MD1999999+0001REMSYN017333   10290 58000EQDQ01  00003PRCP99
0162823970999991992050512004-03733-038550FM-12+001999999V0200901N00211004201CN0010001N9+02321+02291101111ADDAA124018091AG10023AY161999AY221999GF108991081071004501999999KA1999N+02301MA1999999100801MD1999999+0031MW1631REMSYN023333   20230 58003 60184EQDQ01  01803PRCP99
0143823970999991992050518004-03733-038550FM-12+001999999V0200901N00361045001CN0200001N9+02801+02271100801ADDAA106006091AG10005AY161999AY221999GF105991031081008001031081MA1999999100491MD1999999+0011MW1101REMSYN017333   58001 60061EQDQ01  00603PRCP99
0140823970999991992050612004-03733-038550FM-12+001999999V0200901N00411220001CN0200001N9+02881+02281101201ADDAA124006091AG10000GF103991031021008001001001KA1999N+02251MA1999999100891MD1999999+0091REMSYN023333   20225 58009 60064EQDQ01  00603PRCP99
0115823970999991992050618004-03733-038550FM-12+001999999V0200901N00411012001CN0200001N9+02881+02351100941ADDAA106000091AG14000GF106991051081008001051001MA1999999100631MD1999999+0141REMSYN011333   58014EQDQ01  00003PRCP99
0147823970999991992050700004-03733-038550FM-12+001999999V0200901N00051220001CN9999999N9+02421+02331101101ADDAA106001091AG10005AY161999AY211999GF100991001001999999001001KA1999M+02971MD1999999+0101MW1011REMSYN023333   10297 58010 60011EQDQ01  00103PRCP99
0140823970999991992050712004-03733-038550FM-12+001999999V0200901N00261012001CN0200001N9+02921+02271101201ADDAA124001091AG10000GF105991051081008001001001KA1999N+02271MA1999999100891MD1999999+0001REMSYN023333   20227 58000 60014EQDQ01  00103PRCP99
0115823970999991992050718004-03733-038550FM-12+001999999V0200901N00311007501CN0200001N9+99999+99999100921ADDAA106000091AG14000GF105991051011008001001001MA1999999100611MD1999999-0021REMSYN011333   59002EQDQ01  00003PRCP99
0134823970999991992050800004-03733-038550FM-12+001999999V0200901N00101220001CN9999999N9+02561+02351101171ADDAA106000091AG14000GF100991001001999999001001KA1999M+02981MA1999999100861MD1999999+0071REMSYN017333   10298 58007EQDQ01  00003PRCP99
0162823970999991992050812004-03733-038550FM-12+001999999V0201401N00311012001CN0200001N9+02841+02461101251ADDAA124001091AG10005AY161999AY221999GF106991061081008001001001KA1999N+02321MA1999999100941MD1999999+0051MW1021REMSYN023333   20232 58005 60014EQDQ01  00103PRCP99
0143823970999991992050818004-03733-038550FM-12+001999999V0200901N00461045001CN0200001N9+02841+02461100981ADDAA124002091AG10005AY161999AY221999GF105991041021008001091051MA1999999100671MD1999999+0061MW1011REMSYN017333   58006 60024EQDQ01  00203PRCP99
0162823970999991992050912004-03733-038550FM-12+001999999V0201401N00311012001CN0200001N9+02701+02461101271ADDAA124002091AG10002AY151999AY211999GF106991051081008001001051KA1999N+02361MA1999999100961MD1999999+0021MW1201REMSYN023333   20236 58002 60024EQDQ01  00203PRCP99
0115823970999991992050918004-03733-038550FM-12+001999999V0201401N00411220001CN0200001N9+02841+02401100991ADDAA106000091AG14000GF101991011011008001001001MA1999999100681MD1999999+0011REMSYN011333   58001EQDQ01  00003PRCP99
0134823970999991992051000004-03733-038550FM-12+001999999V0201401N00051220001CN9999999N9+02521+02421101251ADDAA106000091AG14000GF101991011011008001001001KA1999M+03041MA1999999100941MD1999999+0021REMSYN017333   10304 58002EQDQ01  00003PRCP99
0162823970999991992051012004-03733-038550FM-12+001999999V0201401N00411012001CN0200001N9+02781+02341101331ADDAA124002091AG10005AY161999AY221999GF106991061081008001001001KA1999N+02381MA1999999101021MD1999999+0061MW1011REMSYN023333   20238 58006 60024EQDQ01  00203PRCP99
0115823970999991992051018004-03733-038550FM-12+001999999V0201401N00361220001CN0200001N9+99999+99999100981ADDAA106000091AG14000GF100991001001999999001001MA1999999100671MD1999999-0011REMSYN011333   59001EQDQ01  00003PRCP99
0134823970999991992051100004-03733-038550FM-12+001999999V0200901N00261220001CN9999999N9+02701+02301101231ADDAA106000091AG14000GF100991001001999999001001KA1999M+03071MA1999999100921MD1999999-0021REMSYN017333   10307 59002EQDQ01  00003PRCP99
0134823970999991992051112004-03733-038550FM-12+001999999V0201401N00411220001CN0200001N9+02781+02131101441ADDAA106000091AG14000GF102991011011008001041001KA1999N+02311MA1999999101131MD1999999+0111REMSYN017333   20231 58011EQDQ01  00003PRCP99
0115823970999991992051118004-03733-038550FM-12+001999999V0201401N00361220001CN0200001N9+02961+02211101081ADDAA106000091AG14000GF103991011011008001041001MA1999999100771MD1999999+0101REMSYN011333   58010EQDQ01  00003PRCP99
0134823970999991992051200004-03733-038550FM-12+001999999V0200901N00151220001CN9999999N9+02621+02351101261ADDAA106000091AG14000GF100991001001999999001001KA1999M+03031MA1999999100951MD1999999-0031REMSYN017333   10303 59003EQDQ01  00003PRCP99
0162823970999991992051212004-03733-038550FM-12+001999999V0201401N00211012001CN0200001N9+02751+02341101281ADDAA124001091AG10001AY151999AY221999GF106991061081008001001001KA1999N+02361MA1999999100971MD1999999-0161MW1011REMSYN023333   20236 59016 69974EQDQ01  00103PRCP99
0115823970999991992051218004-03733-038550FM-12+001999999V0200901N00261220001CN0200001N9+03071+02011100931ADDAA106000091AG14000GF103991011011008001091041MA1999999100621MD1999999-0151REMSYN011333   59015EQDQ01  00003PRCP99
0162823970999991992051312004-03733-038550FM-12+001999999V0201401N00211012001CN0200001N9+02771+02441101231ADDAA124000191AG10001AY151999AY221999GF106991061081008001001001KA1999N+02371MA1999999100921MD1999999-0051MW1011REMSYN023333   20237 59005 69914EQDQ01  00013PRCP99
0115823970999991992051318004-03733-038550FM-12+001999999V0200901N00311045001CN0200001N9+02881+02391100911ADDAA106000091AG14000GF106991041021008001081001MA1999999100601MD1999999-0021REMSYN011333   59002EQDQ01  00003PRCP99
0162823970999991992051400004-03733-038550FM-12+001999999V0201401N00211007501CN0005001N9+02481+02391101201ADDAA124027091AG10012AY161999AY211999GF108991081071008001999999KA1999N+02481MA1999999100891MD1999999-0031MW1621REMSYN023333   20248 59003 60274EQDQ01  02703PRCP99
0162823970999991992051412004-03733-038550FM-12+001999999V0201401N00211007501CN0005001N9+02481+02391101201ADDAA124027091AG10012AY161999AY211999GF108991081071008001999999KA1999N+02481MA1999999100891MD1999999-0031MW1621REMSYN023333   20248 59003 60274EQDQ01  02703PRCP99
0143823970999991992051418004-03733-038550FM-12+001999999V0200901N00311045001CN0200001N9+02741+02401100841ADDAA106002091AG10005AY161999AY221999GF107991011021008001071001MA1999999100531MD1999999-0071MW1021REMSYN017333   59007 60021EQDQ01  00203PRCP99
0134823970999991992051500004-03733-038550FM-12+001999999V0200901N001519999999N9999999N9+02711+02411101111ADDAA106000091AG14000GF108991081001008001071999KA1999M+02871MA1999999100801MD1999999+0001REMSYN017333   10287 58000EQDQ01  00003PRCP99
0140823970999991992051512004-03733-038550FM-12+001999999V0200901N00311220001CN0200001N9+02701+02201101181ADDAA124002091AG10000GF103991031031008001001001KA1999N+02351MA1999999100871MD1999999-0021REMSYN023333   20235 59002 60024EQDQ01  00203PRCP99
0115823970999991992051518004-03733-038550FM-12+001999999V0200901N00511105001CN0200001N9+02821+02331100911ADDAA106000091AG14000GF105991021081008001061061MA1999999100601MD1999999+0071REMSYN011333   58007EQDQ01  00003PRCP99
0134823970999991992051612004-03733-038550FM-12+001999999V0201401N00511220001CN0200001N9+02711+02341101181ADDAA106000091AG14000GF104991031021008001001021KA1999N+02301MA1999999100871MD1999999+0071REMSYN017333   20230 58007EQDQ01  00003PRCP99
0115823970999991992051618004-03733-038550FM-12+001999999V0200901N00361220001CN0200001N9+02901+02201100801ADDAA106000091AG14000GF101991001001999999001051MA1999999100491MD1999999-0111REMSYN011333   59011EQDQ01  00003PRCP99
0134823970999991992051700004-03733-038550FM-12+001999999V0200901N00151007501CN9999999N9+02671+02391101091ADDAA106000091AG14000GF107991071051008001001001KA1999M+03011MA1999999100781MD1999999-0011REMSYN017333   10301 59001EQDQ01  00003PRCP99
0134823970999991992051712004-03733-038550FM-12+001999999V0200901N00311012001CN0200001N9+02921+02361101161ADDAA106000091AG14000GF106991051081008001061001KA1999N+02501MA1999999100851MD1999999-0021REMSYN017333   20250 59002EQDQ01  00003PRCP99
0143823970999991992051718004-03733-038550FM-12+001999999V0200901N00461045001CN0200001N9+99999+99999101021ADDAA106002091AG10005AY161999AY221999GF107991021011008001071001MA1999999100711MD1999999+0221MW1031REMSYN017333   58022 60021EQDQ01  00203PRCP99
0140823970999991992051812004-03733-038550FM-12+001999999V0201401N00261220001CN0200001N9+02831+02311101281ADDAA124003091AG10000GF104991031081008001051011KA1999N+02291MA1999999100971MD1999999+0121REMSYN023333   20229 58012 60034EQDQ01  00303PRCP99
0115823970999991992051818004-03733-038550FM-12+001999999V0200901N00461220001CN0200001N9+02901+02311101011ADDAA106000091AG14000GF102991011011008001001051MA1999999100701MD1999999-0011REMSYN011333   59001EQDQ01  00003PRCP99
0162823970999991992052012004-03733-038550FM-12+001999999V0201401N00211012001CN0200001N9+02721+02451101291ADDAA124001091AG10001AY151999AY221999GF108991081081008001001001KA1999N+02351MA1999999100981MD1999999-0011MW1031REMSYN023333   20235 59001 69974EQDQ01  00103PRCP99
0115823970999991992052118004-03733-038550FM-12+001999999V0200901N00411220001CN0200001N9+02871+02231101051ADDAA106000091AG14000GF101991011001022501051001MA1999999100741MD1999999+0071REMSYN011333   58007EQDQ01  00003PRCP99
0134823970999991992052212004-03733-038550FM-12+001999999V0201401N00411012001CN0200001N9+02741+02301101361ADDAA106000091AG14000GF106991061081008001001001KA1999N+02301MA1999999101051MD1999999-0081REMSYN017333   20230 59008EQDQ01  00003PRCP99
0115823970999991992052218004-03733-038550FM-12+001999999V0200901N00411220001CN0200001N9+02911+02321100991ADDAA106000091AG14000GF105991021011008001001011MA1999999100681MD1999999-0061REMSYN011333   59006EQDQ01  00003PRCP99
0134823970999991992052300004-03733-038550FM-12+001999999V0200901N00261220001CN9999999N9+02681+02411101251ADDAA106000091AG14000GF102991021011008001001001KA1999M+03021MA1999999100941MD1999999-0011REMSYN017333   10302 59001EQDQ01  00003PRCP99
0134823970999991992052312004-03733-038550FM-12+001999999V0201401N00411012001CN0200001N9+02741+02261101351ADDAA106000091AG14000GF107991071081008001001001KA1999N+02351MA1999999101041MD1999999-0011REMSYN017333   20235 59001EQDQ01  00003PRCP99
0115823970999991992052318004-03733-038550FM-12+001999999V0201401N00411220001CN0200001N9+02901+02321101051ADDAA106000091AG14000GF102991011011008001001041MA1999999100741MD1999999+0061REMSYN011333   58006EQDQ01  00003PRCP99
0154823970999991992052412004-03733-038550FM-12+001999999V0200901N00411220001CN0200001N9+02751+02251101411ADDAA124000291AA299000391AG10001AY151999AY221999GF104991021011002501041011KA1999N+02411MA1999999101001MD1999999+0061MW1011REMSYN023333   20241 58006 69924
0115823970999991992052418004-03733-038550FM-12+001999999V0201401N00411220001CN0200001N9+02921+02171101041ADDAA106000091AG14000GF102991011011008001001011MA1999999100731MD1999999-0061REMSYN011333   59006EQDQ01  00003PRCP99
0134823970999991992052500004-03733-038550FM-12+001999999V0201401N00101220001CN9999999N9+02501+02291101301ADDAA106000091AG14000GF100991001001999999001001KA1999M+03041MA1999999100991MD1999999-0031REMSYN017333   10304 59003EQDQ01  00003PRCP99
0134823970999991992052512004-03733-038550FM-12+001999999V0201401N00361220001CN0200001N9+02701+02221101401ADDAA106000091AG14000GF102991021011008001001001KA1999N+02341MA1999999101091MD1999999-0011REMSYN017333   20234 59001EQDQ01  00003PRCP99
0115823970999991992052518004-03733-038550FM-12+001999999V0200901N00411220001CN0200001N9+02901+02301101081ADDAA106000091AG14000GF101991011011008001001001MA1999999100771MD1999999-0041REMSYN011333   59004EQDQ01  00003PRCP99
0134823970999991992052600004-03733-038550FM-12+001999999V0200901N00101220001CN9999999N9+02621+02231101361ADDAA106000091AG14000GF100991001001999999001001KA1999M+02981MA1999999101051MD1999999+0061REMSYN017333   10298 58006EQDQ01  00003PRCP99
0162823970999991992052612004-03733-038550FM-12+001999999V0200901N00311220001CN0200001N9+02771+02161101431ADDAA124000591AG10005AY161999AY201999GF101991011011008001001001KA1999N+02391MA1999999101121MD1999999+0031MW1011REMSYN023333   20239 58003 69954EQDQ01  00053PRCP99
0115823970999991992052618004-03733-038550FM-12+001999999V0200901N00361220001CN0200001N9+02941+02111100961ADDAA106000091AG14000GF101991011011008001001001MA1999999100651MD1999999-0121REMSYN011333   59012EQDQ01  00003PRCP99
0134823970999991992052700004-03733-038550FM-12+001999999V0200901N00051220001CN9999999N9+02551+02331101191ADDAA106000091AG14000GF102991021011008001001001KA1999M+03031MA1999999100881MD1999999-0171REMSYN017333   10303 59017EQDQ01  00003PRCP99
0154823970999991992052712004-03733-038550FM-12+001999999V0201401N00151007501CN0200001N9+02631+02391101211ADDAA106000491AA299000591AG10001AY151999AY221999GF108991051051008001071999KA1999N+02361MA1999999100901MD1999999-0221MW1021REMSYN023333   20236 59022 69941
0115823970999991992052718004-03733-038550FM-12+001999999V0200901N00361220001CN0200001N9+02851+02281100801ADDAA106000091AG14000GF101991011011008001001001MA1999999100491MD1999999-0161REMSYN011333   59016EQDQ01  00003PRCP99
0134823970999991992052800004-03733-038550FM-12+001999999V0200901N00051007501CN9999999N9+02521+02361101081ADDAA106000091AG14000GF106991061021008001001001KA1999M+02991MA1999999100771MD1999999-0111REMSYN017333   10299 59011EQDQ01  00003PRCP99
0134823970999991992052812004-03733-038550FM-12+001999999V0201401N00311012001CN0200001N9+02741+02401101111ADDAA106000091AG14000GF106991061081008001001001KA1999N+02311MA1999999100801MD1999999-0101REMSYN017333   20231 59010EQDQ01  00003PRCP99
0115823970999991992052818004-03733-038550FM-12+001999999V0200901N00361220001CN0200001N9+02941+02311100741ADDAA106000091AG14000GF101991011011008001001001MA1999999100431MD1999999-0061REMSYN011333   59006EQDQ01  00003PRCP99
0162823970999991992052912004-03733-038550FM-12+001999999V0201401N00461012001CN0200001N9+99999+99999101211ADDAA124003091AG10005AY161999AY221999GF108991081081008001999999KA1999N+02361MA1999999100901MD1999999+0101MW1021REMSYN023333   20236 58010 60034EQDQ01  00303PRCP99
0115823970999991992052918004-03733-038550FM-12+001999999V0200901N00361220001CN0200001N9+02861+02311100931ADDAA106000091AG14000GF101991011011008001001001MA1999999100201MD1999999-0191REMSYN011333   59019EQDQ01  00003PRCP99
0134823970999991992053000004-03733-038550FM-12+001999999V0200901N00311220001CN9999999N9+02551+02401101231ADDAA106000091AG14000GF103991031021008001001001KA1999M+02971MA1999999100921MD1999999+0181REMSYN017333   10297 58018EQDQ01  00003PRCP99
0134823970999991992053012004-03733-038550FM-12+001999999V0201401N00311220001CN0200001N9+02721+02391101341ADDAA106000091AG14000GF104991041021008001001001KA1999N+02361MA1999999101031MD1999999+0131REMSYN017333   20236 58013EQDQ01  00003PRCP99
0115823970999991992053018004-03733-038550FM-12+001999999V0200901N00361220001CN0200001N9+02901+02201100971ADDAA106000091AG14000GF101991011011008001001001MA1999999100661MD1999999+0041REMSYN011333   58004EQDQ01  00003PRCP99
0162823970999991992053112004-03733-038550FM-12+001999999V0201401N00151012001CN0200001N9+02671+02451101321ADDAA124001091AG10005AY161999AY211999GF106991061081008001001001KA1999N+02471MA1999999101001MD1999999-0031MW1031REMSYN023333   20247 59003 60014EQDQ01  00103PRCP99
0115823970999991992053118004-03733-038550FM-12+001999999V0200901N00461220001CN0200001N9+02891+02341101021ADDAA106000091AG14000GF102991021011008001001001MA1999999100711MD1999999+0051REMSYN011333   58005EQDQ01  00003PRCP99
0162823970999991992060112004-03733-038550FM-12+001999999V0200901N00211007501CN0200001N9+02681+02451101351ADDAA124023091AG10005AY161999AY221999GF108991061071008001999999KA1999N+02321MA1999999101041MD1999999+0041MW1021REMSYN023333   20232 58004 60234EQDQ01  02303PRCP99
0115823970999991992060118004-03733-038550FM-12+001999999V0200901N00571220001CN0200001N9+02801+02361101081ADDAA106000091AG14000GF104991031081008001061001MA1999999100771MD1999999+0061REMSYN011333   58006EQDQ01  00003PRCP99
0134823970999991992060212004-03733-038550FM-12+001999999V0201401N00361220001CN0200001N9+02721+02301101391ADDAA106000091AG14000GF103991031081008001001001KA1999N+02321MA1999999101081MD1999999+0041REMSYN017333   20232 58004EQDQ01  00003PRCP99
0115823970999991992060218004-03733-038550FM-12+001999999V0201401N00411220001CN0200001N9+02911+02221101091ADDAA106000091AG14000GF101991011011008001001001MA1999999100781MD1999999+0011REMSYN011333   58001EQDQ01  00003PRCP99
0134823970999991992060300004-03733-038550FM-12+001999999V0200901N00211012001CN9999999N9+02621+02371101331ADDAA106000091AG14000GF106991061081008001001001KA1999M+03011MA1999999101021MD1999999+0031REMSYN017333   10301 58003EQDQ01  00003PRCP99
0132823970999991992060312004-03733-038550FM-12+001999999V0201401N00361007501CN0200001N9+02541+02361101401ADDAA106000091AA224010091AG14007GF108991081071008001999999KA1999N+02341MA1999999101091MD1999999+0011REMSYN023333   20234 58001 60104
0121823970999991992060318004-03733-038550FM-12+001999999V0200901N00311220001CN0200001N9+02841+02351101071ADDAA106001091AG10000GF103991031011008001001001MA1999999100761MD1999999-0021REMSYN017333   59002 60011EQDQ01  00103PRCP99
0134823970999991992060400004-03733-038550FM-12+001999999V0200901N00051220001CN9999999N9+02461+02361101261ADDAA106000091AG14000GF104991041021008001001001KA1999M+02911MA1999999100951MD1999999-0071REMSYN017333   10291 59007EQDQ01  00003PRCP99
0140823970999991992060412004-03733-038550FM-12+001999999V0201401N00311012001CN0200001N9+02701+02431101301ADDAA124001091AG10000GF106991061081008001001001KA1999N+02341MA1999999100991MD1999999-0101REMSYN023333   20234 59010 60014EQDQ01  00103PRCP99
0143823970999991992060418004-03733-038550FM-12+001999999V0200901N00261220001CN0200001N9+99999+99999100941ADDAA106002091AG10005AY161999AY201999GF101991011011008001001001MA1999999100631MD1999999-0131MW1011REMSYN017333   59013 60021EQDQ01  00203PRCP99
0162823970999991992060512004-03733-038550FM-12+001999999V0201401N00261012001CN0200001N9+02661+02371101291ADDAA124007091AG10005AY161999AY221999GF106991061081008001001001KA1999N+02371MA1999999100981MD1999999+0001MW1011REMSYN023333   20237 59000 60074EQDQ01  00703PRCP99
0115823970999991992060518004-03733-038550FM-12+001999999V0200901N00461220001CN0200001N9+02881+02181101051ADDAA106000091AG14000GF101991011011008001001001MA1999999100741MD1999999+0011REMSYN011333   58001EQDQ01  00003PRCP99
0134823970999991992060800004-03733-038550FM-12+001999999V0200901N00211045001CN9999999N9+02621+02421101321ADDAA106000091AG14000GF107991041081008001071001KA1999M+02911MA1999999101011MD1999999+0011REMSYN017333   10291 58001EQDQ01  00003PRCP99
0162823970999991992060812004-03733-038550FM-12+001999999V0201401N00311012001CN0200001N9+02701+02411101301ADDAA124002091AG10005AY161999AY221999GF105991051081008001001001KA1999N+02361MA1999999100991MD1999999-0071MW1031REMSYN023333   20236 59007 60024EQDQ01  00203PRCP99
0115823970999991992060818004-03733-038550FM-12+001999999V0200901N00361045001CN0200001N9+02821+02061101051ADDAA106000091AG14000GF105991031021008001031001MA1999999100041MD1999999-0031REMSYN011333   59003EQDQ01  00003PRCP99
0134823970999991992060900004-03733-038550FM-12+001999999V0200901N00311045001CN9999999N9+02661+02441101301ADDAA106000091AG14000GF108991041081008001071999KA1999M+02931MA1999999100991MD1999999-0021REMSYN017333   10293 59002EQDQ01  00003PRCP99
0162823970999991992060912004-03733-038550FM-12+001999999V0201401N00411045001CN0200001N9+02711+02261101341ADDAA124012091AG10005AY161999AY221999GF105991031081008001031001KA1999N+02321MA1999999101011MD1999999+0021MW1011REMSYN023333   20232 58002 60124EQDQ01  01203PRCP99
0115823970999991992060918004-03733-038550FM-12+001999999V0200901N00511220001CN0200001N9+02861+02351101011ADDAA106000091AG14000GF101991011011008001001001MA1999999100701MD1999999-0041REMSYN011 333 59004?EQDQ01  00003PRCP99
0162823970999991992061012004-03733-038550FM-12+001999999V0201801N00211004201CN0010001N9+02451+02251101441ADDAA124033091AG10006AY161999AY221999GF108991081071004501999999KA1999N+02291MA1999999101131MD1999999+0121MW1501REMSYN023333   20229 58012 60334EQDQ01  03303PRCP99
0143823970999991992061018004-03733-038550FM-12+001999999V0200901N002619999999N0200001N9+02601+02391101201ADDAA106010091AG10005AY161999AY221999GF107991041051008001001001MA1999999100891MD1999999+0191MW1021REMSYN017333   58019 60101EQDQ01  01003PRCP99
0154823970999991992061100004-03733-038550FM-12+001999999V0201801N00101220001CN9999999N9+02281+02201101461ADDAA106000291AA299000391AG10000AY151999AY221999GF103991021021008001031001KA1999M+02671MA1999999101151MD1999999+0201MW1011REMSYN023333   10267 58020 69921
0162823970999991992061112004-03733-038550FM-12+001999999V0201401N00411012001CN0200001N9+02661+02391101271ADDAA124011091AG10005AY161999AY221999GF106991061081008001001001KA1999N+02231MA1999999101261MD1999999+0131MW1031REMSYN023333   20223 58013 60114EQDQ01  01103PRCP99
0115823970999991992061118004-03733-038550FM-12+001999999V0200901N00461220001CN0200001N9+03801+02341101261ADDAA106000091AG14000GF103991031081008001001001MA1999999100951MD1999999+0061REMSYN011333   58006EQDQ01  00003PRCP99
0134823970999991992061200004-03733-038550FM-12+001999999V0200901N00211220001CN9999999N9+02541+02331101521ADDAA106000091AG14000GF102991021011008001001001KA1999M+02911MA1999999101211MD1999999+0061REMSYN017333   10291 58006EQDQ01  00003PRCP99
0132823970999991992061212004-03733-038550FM-12+001999999V0201401N00361012001CN0200001N9+02701+02341101601ADDAA124000491AA299000591AG10000GF106991061081008001001001KA1999N+02261MA1999999101291MD1999999+0001REMSYN023333   20226 58000 69944
0115823970999991992061218004-03733-038550FM-12+001999999V0200901N00511220001CN0200001N9+02901+02021101231ADDAA106000091AG14000GF100991001001999999001001MA1999999100921MD1999999-0031REMSYN011333   59003EQDQ01  00003PRCP99
0134823970999991992061300004-03733-038550FM-12+001999999V0200901N00211220001CN9999999N9+02621+02251101481ADDAA106000091AG14000GF101991011011008001001001KA1999M+02971MA1999999101171MD1999999-0041REMSYN017333   10297 59004EQDQ01  00003PRCP99
0154823970999991992061312004-03733-038550FM-12+001999999V0201401N00411012001CN0200001N9+02701+02481101471ADDAA124000291AA299000391AG10000AY151999AY211999GF106991061081008001001001KA1999N+02301MA1999999101161MD1999999-0131MW1031REMSYN023333   20230 59013 69924
0115823970999991992061318004-03733-038550FM-12+001999999V0200901N00571220001CN0200001N9+02831+02261101121ADDAA106000091AG14000GF101991011011008001001001MA1999999100811MD1999999-0111REMSYN011333   59011EQDQ01  00003PRCP99
0134823970999991992061412004-03733-038550FM-12+001999999V0201801N00511220001CN0200001N9+02711+02011101411ADDAA106000091AG14000GF101991011011008001001001KA1999N+02281MA1999999101101MD1999999-0061REMSYN017333   20228 59006EQDQ01  00003PRCP99
0115823970999991992061418004-03733-038550FM-12+001999999V0200901N00461220001CN0200001N9+02901+01961101061ADDAA106000091AG14000GF100991001001999999001001MA1999999100751MD1999999-0061REMSYN011333   59006EQDQ01  00003PRCP99
0150823970999991992061500004-03733-038550FM-12+001999999V0201801N00101220001CN9999999N9+02421+02191101331ADDAA106000091AG14000GF100991001001999999001001KA1999M+99999MA1999999101021MD1999999-0051REMSYN017333   10222 59005EQDQ01  00003PRCP99Q02 +02222ATMX  
0134823970999991992061512004-03733-038550FM-12+001999999V0201401N00461220001CN0200001N9+02681+02021101481ADDAA106000091AG14000GF101991011011008001001001KA1999N+02161MA1999999101171MD1999999+0071REMSYN017333   20216 58007EQDQ01  00003PRCP99
0115823970999991992061518004-03733-038550FM-12+001999999V0200901N00361220001CN0200001N9+02901+02151101131ADDAA106000091AG14000GF101991011011008001001001MA1999999100821MD1999999+0071REMSYN011333   58007EQDQ01  00003PRCP99
0134823970999991992061612004-03733-038550FM-12+001999999V0201401N00411220001CN0200001N9+02661+01971101511ADDAA106000091AG14000GF101991011011008001001001KA1999N+02171MA1999999101301MD1999999+0031REMSYN017333   20217 58003EQDQ01  00003PRCP99
0115823970999991992061618004-03733-038550FM-12+001999999V0200901N00571220001CN0200001N9+02831+02171101181ADDAA106000091AG14000GF101991011011008001001001MA1999999100871MD1999999+0051REMSYN011333   58005EQDQ01  00003PRCP99
0134823970999991992061700004-03733-038550FM-12+001999999V0200901N00261012001CN9999999N9+02651+02271101451ADDAA106000091AG14000GF106991061081008001001001KA1999M+02971MA1999999101141MD1999999+0061REMSYN017333   10297 58006EQDQ01  00003PRCP99
0134823970999991992061712004-03733-038550FM-12+001999999V0201401N00361220001CN0200001N9+02661+02001101491ADDAA106000091AG14000GF102991011011008001051001KA1999N+02301MA1999999101181MD1999999-0021REMSYN017333   20230 59002EQDQ01  00003PRCP99
0115823970999991992061718004-03733-038550FM-12+001999999V0200901N00461220001CN0200001N9+02881+02131101171ADDAA106000091AG14000GF101991011011008001001001MA1999999100861MD1999999-0011REMSYN011333   59001EQDQ01  00003PRCP99
0134823970999991992061800004-03733-038550FM-12+001999999V0200101N00311220001CN9999999N9+02561+02311101441ADDAA106000091AG14000GF102991021011008001001001KA1999M+02941MA1999999101131MD1999999-0011REMSYN017333   10294 59001EQDQ01  00003PRCP99
0134823970999991992061812004-03733-038550FM-12+001999999V0201801N00361220001CN0200001N9+02641+02071101461ADDAA106000091AG14000GF101991011011008001001001KA1999N+02231MA1999999101151MD1999999-0031REMSYN017333   20223 59003EQDQ01  00003PRCP99
0154823970999991992061912004-03733-038550FM-12+001999999V0201401N00411220001CN0200001N9+02831+02131101511ADDAA124000291AA299000391AG10000AY151999AY211999GF103991031081008001001001KA1999N+02241MA1999999101201MD1999999+0051MW1011REMSYN023333   20224 58005 69924
0115823970999991992061918004-03733-038550FM-12+001999999V0200901N00461220001CN0200001N9+02781+02211101181ADDAA106000091AG14000GF101991011011008001001001MA1999999100871MD1999999+0051REMSYN011333   58005EQDQ01  00003PRCP99
0134823970999991992062012004-03733-038550FM-12+001999999V0201401N00151012001CN0200001N9+02661+02331101511ADDAA106000091AG14000GF106991051081008001031001KA1999N+02221MA1999999101201MD1999999+0001REMSYN017333   20222 58000EQDQ01  00003PRCP99
0115823970999991992062018004-03733-038550FM-12+001999999V0200901N00461105001CN0200001N9+02781+02321101181ADDAA106000091AG14000GF107991031011008001001061MA1999999100871MD1999999+0001REMSYN011333   58000EQDQ01  00003PRCP99
0134823970999991992062100004-03733-038550FM-12+001999999V0200901N00151220001CN9999999N9+02521+02291101421ADDAA106000091AG14000GF100991001001999999001001KA1999M+02911MA1999999101111MD1999999+0031REMSYN017333   10291 58003EQDQ01  00003PRCP99
0134823970999991992062112004-03733-038550FM-12+001999999V0201801N00461012001CN0200001N9+02651+02291101531ADDAA106000091AG14000GF106991061081008001001001KA1999N+02311MA1999999101221MD1999999+0021REMSYN017333   20231 58002EQDQ01  00003PRCP99
0115823970999991992062118004-03733-038550FM-12+001999999V0200901N00461220001CN0200001N9+02841+02311101171ADDAA106000091AG14000GF103991031011008001001001MA1999999100861MD1999999-0011REMSYN011 333 59001?EQDQ01  00003PRCP99
0134823970999991992062200004-03733-038550FM-12+001999999V0200901N00361007501CN9999999N9+02641+02311101401ADDAA106000091AG14000GF107991071051008001001001KA1999M+02991MA1999999101091MD1999999-0021REMSYN017333   10299 59002EQDQ01  00003PRCP99
0162823970999991992062212004-03733-038550FM-12+001999999V0201401N00511012001CN0200001N9+02631+02231101511ADDAA124003091AG10005AY161999AY251999GF106991061081008001001001KA1999N+02271MA1999999101201MD1999999-0021MW1031REMSYN023333   20227 59002 60034EQDQ01  00303PRCP99
0115823970999991992062218004-03733-038550FM-12+001999999V0200901N00671220001CN0200001N9+02791+02181101191ADDAA106000091AG14000GF101991011011008001001001MA1999999100881MD1999999+0021REMSYN011333   58002EQDQ01  00003PRCP99
0134823970999991992062312004-03733-038550FM-12+001999999V0201401N00311012001CN0200001N9+02671+02351101551ADDAA106000091AG14000GF106991061081008001001001KA1999N+02301MA1999999101241MD1999999+0041REMSYN017333   20230 58004EQDQ01  00003PRCP99
0115823970999991992062318004-03733-038550FM-12+001999999V0200901N00411220001CN0200001N9+02841+02261101191ADDAA106000091AG14000GF101991021011008001001001MA1999999100881MD1999999+0001REMSYN011 333 58000?EQDQ01  00003PRCP99
0134823970999991992062400004-03733-038550FM-12+001999999V0200901N00151007501CN9999999N9+02581+02331101391ADDAA106000091AG14000GF105991051021008001001001KA1999M+03011MA1999999101081MD1999999-0091REMSYN017 333 10301 59009?EQDQ01  00003PRCP99
0134823970999991992062412004-03733-038550FM-12+001999999V0201801N00461012001CN0200001N9+02661+02371101581ADDAA106000091AG14000GF106991061081008001001001KA1999N+02311MA1999999101271MD1999999+0031REMSYN017 333 20231 58003?EQDQ01  00003PRCP99
0115823970999991992062418004-03733-038550FM-12+001999999V0200901N00411220001CN0200001N9+02831+02191101271ADDAA106000091AG14000GF101991011011008001001001MA1999999100961MD1999999+0081REMSYN011333   58008EQDQ01  00003PRCP99
0134823970999991992062500004-03733-038550FM-12+001999999V0200901N00261220001CN9999999N9+02581+02231101441ADDAA106000091AG14000GF101991011001008001001001KA1999M+02961MA1999999101131MD1999999+0051REMSYN017 333 10296 58005?EQDQ01  00003PRCP99
0162823970999991992062512004-03733-038550FM-12+001999999V0201401N00211220001CN0200001N9+02661+02111101461ADDAA124001091AG10005AY161999AY221999GF104991041021008001001001KA1999N+02291MA1999999101141MD1999999-0121MW1031REMSYN023333   20229 59012 60014EQDQ01  00103PRCP99
0115823970999991992062518004-03733-038550FM-12+001999999V0200901N00361045001CN0200001N9+02741+02301101191ADDAA106000091AG14000GF106991011081008001051001MA1999999100881MD1999999-0081REMSYN011 333 59008?EQDQ01  00003PRCP99
0162823970999991992062612004-03733-038550FM-12+001999999V0201801N00311220001CN0200001N9+02601+02231101481ADDAA124022091AG13000AY101999AY201999GF104991031081008001051001KA1999N+02251MA1999999101171MD1999999+0021MW1061REMSYN023 333 20225 58002 60224?EQDQ01  02203PRCP99
0115823970999991992062618004-03733-038550FM-12+001999999V0200901N00411045001CN0200001N9+02861+02061101161ADDAA106000091AG14000GF107991011011008001031001MA1999999100851MD1999999-0031REMSYN011 333 59003?EQDQ01  00003PRCP99
0150823970999991992062700004-03733-038550FM-12+001999999V0201401N00051220001CN9999999N9+02321+02281101371ADDAA106000091AG14000GA1001+999999999GF100991001001999999001001KA1999M+02911MA1999999101061MD1999999-0081REMSYN017 333 10291 59008?EQDQ01  00003PRCP99
0134823970999991992062712004-03733-038550FM-12+001999999V0201401N00361220001CN0200001N9+02621+02311101461ADDAA106000091AG14000GF104991041021008001001001KA1999N+02231MA1999999101151MD1999999-0021REMSYN017 333 20223 59002?EQDQ01  00003PRCP99
0115823970999991992062718004-03733-038550FM-12+001999999V0200901N00361220001CN0200001N9+02781+02251101171ADDAA106000091AG14000GF104991011011008001051001MA1999999100861MD1999999+0011REMSYN011 333 58001?EQDQ01  00003PRCP99
0134823970999991992062800004-03733-038550FM-12+001999999V0200901N00151045001CN9999999N9+02431+02281101451ADDAA106000091AG14000GF107991041081008001071001KA1999M+02891MA1999999101141MD1999999+0081REMSYN017 333 10289 58008?EQDQ01  00003PRCP99
0134823970999991992062812004-03733-038550FM-12+001999999V0201401N00211007501CN0200001N9+02621+02311101501ADDAA106000091AG14000GF106991061021008001001001KA1999N+02231MA1999999101191MD1999999+0041REMSYN017 333 20223 58004?EQDQ01  00003PRCP99
0115823970999991992062818004-03733-038550FM-12+001999999V0200901N00361220001CN0200001N9+02721+02301101181ADDAA106000091AG14000GF101991011011008001001001MA1999999100871MD1999999+0011REMSYN011 333 58001?EQDQ01  00003PRCP99
0134823970999991992062900004-03733-038550FM-12+001999999V0201401N00051220001CN9999999N9+02361+02261101421ADDAA106000091AG14000GF101991011001008001001001KA1999M+02891MA1999999101111MD1999999-0031REMSYN017 333 10289 59003?EQDQ01  00003PRCP99
0134823970999991992062912004-03733-038550FM-12+001999999V0201401N003619999999N0200001N9+02601+02291101531ADDAA106000091AG14000GF106991071081008001001001KA1999N+02211MA1999999101221MD1999999+0031REMSYN017 333 20221 58003?EQDQ01  00003PRCP99
0115823970999991992062918004-03733-038550FM-12+001999999V0201401N00411220001CN0200001N9+02811+02241101211ADDAA106000091AG14000GF101991011011008001001001MA1999999100901MD1999999+0031REMSYN011 333 58003?EQDQ01  00003PRCP99
0134823970999991992063012004-03733-038550FM-12+001999999V0201801N00461220001CN0200001N9+02701+02281101571ADDAA106000091AG14000GF102991021011008001001001KA1999N+02241MA1999999101261MD1999999+0041REMSYN017 333 20224 58004?EQDQ01  00003PRCP99
0115823970999991992063018004-03733-038550FM-12+001999999V0201401N005119999999N0200001N9+02821+02281101301ADDAA106000091AG14000GF105991011031008001001001MA1999999100991MD1999999+0091REMSYN011 333 58009?EQDQ01  00003PRCP99
0134823970999991992070100004-03733-038550FM-12+001999999V0201401N00151007501CN9999999N9+02561+02311101441ADDAA106000091AG14000GF105991051021008001001001KA1999M+02971MA1999999101131MD1999999-0011REMSYN017 333 10297 59001?EQDQ01  00003PRCP99
0134823970999991992070112004-03733-038550FM-12+001999999V0201401N00261012001CN0200001N9+02711+02221101491ADDAA106000091AG14000GF106991061081008001001001KA1999N+02271MA1999999101181MD1999999-0081REMSYN017 333 20227 59008?EQDQ01  00003PRCP99
0115823970999991992070118004-03733-038550FM-12+001999999V0200901N00461220001CN0200001N9+02821+02101101131ADDAA106000091AG14000GF101991011051008001001001MA1999999100821MD1999999-0171REMSYN011 333 59017?EQDQ01  00003PRCP99
0134823970999991992070200004-03733-038550FM-12+001999999V0200901N00261012001CN9999999N9+02571+02291101401ADDAA106000091AG14000GF106991061081008001001001KA1999M+02911MA1999999101091MD1999999+0041REMSYN017 333 10291 58004?EQDQ01  00003PRCP99
0134823970999991992070212004-03733-038550FM-12+001999999V0201401N00361012001CN0200001N9+02711+02201101631ADDAA106000091AG14000GF106991061081008001001001KA1999N+02281MA1999999101321MD1999999+0141REMSYN017 333 20228 58014?EQDQ01  00003PRCP99
0115823970999991992070218004-03733-038550FM-12+001999999V0200901N00461220001CN0200001N9+02871+02001101281ADDAA106000091AG14000GF101991011011008001001001MA1999999100971MD1999999+0151REMSYN011 333 58015?EQDQ01  00003PRCP99
0150823970999991992070300004-03733-038550FM-12+001999999V0201401N00051220001CN9999999N9+02391+02151101451ADDAA106000091AG14000GA1001+999999999GF100991001001999999001001KA1999M+02911MA1999999101141MD1999999+0051REMSYN017 333 10291 58005?EQDQ01  00003PRCP99
0134823970999991992070312004-03733-038550FM-12+001999999V0201401N00411012001CN0200001N9+02651+02201101631ADDAA106000091AG14000GF105991051081008001001001KA1999N+02161MA1999999101321MD1999999+0001REMSYN017 333 20216 58000?EQDQ01  00003PRCP99
0115823970999991992070318004-03733-038550FM-12+001999999V0200901N00511220001CN0200001N9+02841+01961101291ADDAA106000091AG14000GF101991011011008001001001MA1999999100981MD1999999+0011REMSYN011 333 58001?EQDQ01  00003PRCP99
0134823970999991992070400004-03733-038550FM-12+001999999V0200901N00211220001CN9999999N9+02531+02171101481ADDAA106000091AG14000GF103991031011008001001001KA1999M+02961MA1999999101171MD1999999+0031REMSYN017 333 10296 58003?EQDQ01  00003PRCP99
0134823970999991992070412004-03733-038550FM-12+001999999V0201401N00261220001CN0200001N9+02741+02261101691ADDAA106000091AG14000GF102991021011008001001001KA1999N+02191MA1999999101381MD1999999+0031REMSYN017 333 20219 58003?EQDQ01  00003PRCP99
0115823970999991992070418004-03733-038550FM-12+001999999V0200901N00411220001CN0200001N9+02841+02041101331ADDAA106000091AG14000GF101991011011008001001001MA1999999101021MD1999999+0041REMSYN011 333 58004?EQDQ01  00003PRCP99
0150823970999991992070500004-03733-038550FM-12+001999999V0201401N00051220001CN9999999N9+02401+02191101421ADDAA106000091AG14000GA1001+999999999GF100991001001999999001001KA1999M+02981MA1999999101111MD1999999-0061REMSYN017 333 10298 59006?EQDQ01  00003PRCP99
0134823970999991992070512004-03733-038550FM-12+001999999V0201401N00261012001CN0200001N9+02681+02201101601ADDAA106000091AG14000GF106991061081008001001001KA1999N+02241MA1999999101291MD1999999-0091REMSYN017 333 20224 59009?EQDQ01  00003PRCP99
