0115825780999991992010118004-05083-042817FM-12+009099999V0209999999999007501CN0040001N9+03821+01591100671ADDAA106000091AG14000GF105991051021008001001001MA1999999099681MD1999999-0151REMSYN011333   59015EQDQ01  00003PRCP99
0134825780999991992010212004-05083-042817FM-12+009099999V0209999999999220001CN0040001N9+03021+01921101141ADDAA106000091AG14000GF102991001001999999001091KA1999N+02241MA1999999100141MD1999999-0071REMSYN017333   20224 59007EQDQ01  00003PRCP99
0115825780999991992010218004-05083-042817FM-12+009099999V0209999999999007501CN0040001N9+03721+01721100651ADDAA106000091AG14000GF106991061021008001001001MA1999999099661MD1999999-0021REMSYN011333   59002EQDQ01  00003PRCP99
0134825780999991992010312004-05083-042817FM-12+009099999V0209999999999220001CN0040001N9+03031+01891101241ADDAA106000091AG14000GF106991001001999999001061KA1999N+02161MA1999999100231MD1999999+0091REMSYN017333   20216 58009EQDQ01  00003PRCP99
0115825780999991992010318004-05083-042817FM-12+009099999V0209999999999105001CN0040001N9+03721+01671100851ADDAA106000091AG14000GF107991031021008001001081MA1999999099851MD1999999+0191REMSYN011333   58019EQDQ01  00003PRCP99
0134825780999991992010412004-05083-042817FM-12+009099999V0209999999999105001CN0040001N9+03001+01941101361ADDAA106000091AG14000GF107991001001999999001091KA1999N+02251MA1999999100361MD1999999+0131REMSYN017333   20225 58013EQDQ01  00003PRCP99
0134825780999991992012312004-05083-042817FM-12+009099999V0203601N00211007501CN0040001N9+02841+02351101201ADDAA106000091AG14000GF107991071071008001001001KA1999N+02621MA1999999100191MD1999999+0041REMSYN017333   20262 58004EQDQ01  00003PRCP99
0162825780999991992012412004-05083-042817FM-12+009099999V0209999999999007501CN0040001N9+02491+02321101341ADDAA124010091AG10006AY161999AY201999GF108991081071008001999999KA1999N+02331MA1999999100321MD1999999+0131MW1021REMSYN023333   20233 58013 60104EQDQ01  01003PRCP99
0162825780999991992012500004-05083-042817FM-12+009099999V0209991C00001012001CN9999999N9+02381+02281101281ADDAA106003091AG10006AY161999AY201999GF108991081081008001999999KA1999M+03581MA1999999100251MD1999999+0361MW1021REMSYN023333   10358 58036 60031EQDQ01  00303PRCP99
0140825780999991992012512004-05083-042817FM-12+009099999V0203201N00101012001CN0040001N9+02561+02311101411ADDAA124003091AG10006GF108991081081008001999999KA1999N+02301MA1999999100381MD1999999+0061REMSYN023333   20230 58006 60034EQDQ01  00303PRCP99
0163825780999991992012612004-05083-042817FM-12+009099999V0203601N00151007501CN0040001N9+99999+99999101361ADDAA124006091AG19007AY161999AY201999GA1091+999999999GF109991081051008001999999KA1999N+02361MD1999999-0051MW1511REMSYN023333   20236 59005 60064EQDQ01  00603PRCP99
0154825780999991992012712004-05083-042817FM-12+009099999V0200501N00261007501CN0040001N9+02311+02281101401ADDAA124018091AG10007AY161999GF108991081001008001021999KA1999N+02301MA1999999100371MD1999999+0041MW1511REMSYN023333   20230 58004 60184EQDQ01  01803PRCP99
0162825780999991992012812004-05083-042817FM-12+009099999V0203201N00151007501CN0040001N9+02411+02331101331ADDAA124060091AG10006AY161999AY201999GF108991081051008001999999KA1999N+02301MA1999999100301MD1999999-0071MW1021REMSYN023333   20230 59007 60604EQDQ01  06003PRCP99
0162825780999991992013012004-05083-042817FM-12+009099999V0203601N00051007501CN0040001N9+02431+99999100371ADDAA124010091AG10006AY161999AY201999GF108991081071008001999999KA1999N+02101MA1999999103461MD1999999-0021MW1031REMSYN023333   20210 59002 60104EQDQ01  01003PRCP99
0162825780999991992020212004-05083-042817FM-12+009099999V0201801N00101007501CN0040001N9+02491+02321101351ADDAA124005091AG10007AY161999AY201999GF108991081071008001011999KA1999N+02241MA1999999100331MD1999999-0081MW1021REMSYN023333   20224 59008 60054EQDQ01  00503PRCP99
0132825780999991992020312004-05083-042817FM-12+009099999V0202301N00051015001CN0040001N9+02821+02331101271ADDAA124000491AA299000591AG10001GF107991071001017501031001KA1999N+02241MA1999999100261MD1999999-0071REMSYN023333   20224 59007 69944
0140825780999991992020412004-05083-042817FM-12+009099999V0200501N00261007501CN0040001N9+99999+99999101151ADDAA124003091AG19007GF106991061041008001001001KA1999N+02331MA1999999100141MD1999999-0121REMSYN023333   20233 59012 60034EQDQ01  00303PRCP99
0134825780999991992020500004-05083-042817FM-12+009099999V0200501N00051045001CN9999999N9+02681+02451100861ADDAA106000091AG14000GF106991041031008001071001KA1999M+03401MA1999999099851MD1999999-0081REMSYN017333   10340 59008EQDQ01  00003PRCP99
0134825780999991992020512004-05083-042817FM-12+009099999V0200501N00261220001CN0040001N9+02911+02341101231ADDAA106000091AG14000GF102991021011008001001001KA1999N+02361MA1999999100281MD1999999-0081REMSYN017333   20236 59008EQDQ01  00003PRCP99
0134825780999991992020612004-05083-042817FM-12+009099999V0209991C00001220001CN0040001N9+02711+02411101221ADDAA106000091AG14000GF103991021001017501031011KA1999N+02301MA1999999100211MD1999999-0011REMSYN017333   20230 59001EQDQ01  00003PRCP99
0115825780999991992020618004-05083-042817FM-12+009099999V0200901N00261007501CN0040001N9+03461+02061100831ADDAA106000091AG14000GF105991051021008001001001MA1999999099831MD1999999-0101REMSYN011333   59010EQDQ01  00003PRCP99
0162825780999991992020712004-05083-042817FM-12+009099999V0200501N00311045001CN0040001N9+02781+02481101131ADDAA124012091AG10007AY161999AY221999GF107991041051008001041001KA1999N+02431MA1999999100121MD1999999-0091MW1021REMSYN023333   20243 59009 60124EQDQ01  01203PRCP99
0134825780999991992020800004-05083-042817FM-12+009099999V0201401N00151007501CN9999999N9+02911+02381100871ADDAA106000091AG14000GF108991081051008001999999KA1999M+03341MA1999999098601MD1999999+0001REMSYN017333   10334 58000EQDQ01  00003PRCP99
0162825780999991992020812004-05083-042817FM-12+009099999V0201401N00211007501CN0040001N9+02781+02251101201ADDAA124001091AG10007AY161999AY201999GF108991061071008001021999KA1999N+02421MA1999999100201MD1999999+0271MW1021REMSYN023333   20242 58027 60014EQDQ01  00103PRCP99
0115825780999991992020818004-05083-042817FM-12+009099999V0200901N00211105001CN0040001N9+03221+02171100921ADDAA106000091AG14000GF108991021011008001001081MA1999999099911MD1999999+0081REMSYN011333   58008EQDQ01  00003PRCP99
0134825780999991992020912004-05083-042817FM-12+009099999V0201401N00151012001CN0040001N9+02881+02441101251ADDAA106000091AG14000GF106991061021012501001001KA1999N+02381MA1999999100241MD1999999-0051REMSYN017333   20238 59005EQDQ01  00003PRCP99
0162825780999991992021012004-05083-042817FM-12+009099999V0203201N00051007501CN0500001N9+02451+02411100391ADDAA124008091AG10008AY161999AY221999GF108991081001008001021041KA1999N+02331MA1999999100311MD1999999+0071MW1511REMSYN023333   20233 58007 60084EQDQ01  00803PRCP99
0115825780999991992021018004-05083-042817FM-12+009099999V0201401N00211045001CN0040001N9+03121+02411100921ADDAA106000091AG14000GF107991041011008001031081MA1999999099921MD1999999-0031REMSYN011333   59003EQDQ01  00003PRCP99
0162825780999991992021112004-05083-042817FM-12+009099999V0201401N00151007501CN0040001N9+02441+02341101421ADDAA124018091AG10007AY161999AY201999GF108991081071008001999999KA1999N+02211MA1999999100391MD1999999+0071MW1021REMSYN023333   20221 58007 60184EQDQ01  01803PRCP99
0162825780999991992021212004-05083-042817FM-12+009099999V0201401N00211007501CN0040001N9+02311+02141101481ADDAA124014091AG10007AY161999AY201999GF108991081071008001999999KA1999N+02261MA1999999100451MD1999999+0061MW1021REMSYN023333   20226 58006 60144EQDQ01  01403PRCP99
0115825780999991992021218004-05083-042817FM-12+009099999V0202301N00151220001CN0040001N9+02691+02311101201ADDAA106000091AG14000GF102991021041008001021999MA1999999100171MD1999999+0141REMSYN011333   58014EQDQ01  00003PRCP99
0162825780999991992021300004-05083-042817FM-12+009099999V0201401N00051012001CN9999999N9+02471+02361101261ADDAA106000391AG10001AY151999AY201999GF108991081081008001999999KA1999M+02721MA1999999100231MD1999999-0011MW1021REMSYN023333   10272 59001 69931EQDQ01  00033PRCP99
0162825780999991992021312004-05083-042817FM-12+009099999V0201401N00361007501CN0040001N9+02451+02051101431ADDAA124001091AG10007AY161999AY201999GF108991061071008001031999KA1999N+02201MA1999999100401MD1999999-0051MW1021REMSYN023333   20220 59005 60014EQDQ01  00103PRCP99
0134825780999991992021400004-05083-042817FM-12+009099999V0203201N00101007501CN9999999N9+02671+02241101271ADDAA106000091AG14000GF108991081071008001999999KA1999M+02961MA1999999100251MD1999999+0021REMSYN017333   10296 58002EQDQ01  00003PRCP99
0162825780999991992021412004-05083-042817FM-12+009099999V0201401N00101045001CN0040001N9+02411+02241101461ADDAA124001091AG10007AY161999AY201999GF108991011011008001021999KA1999N+02301MA1999999100431MD1999999+0031MW1021REMSYN023333   20230 58003 60014EQDQ01  00103PRCP99
0115825780999991992021418004-05083-042817FM-12+009099999V0200901N00211012001CN0040001N9+03011+02271101011ADDAA106000091AG14000GF108991061081008001021999MA1999999100001MD1999999-0081REMSYN011333   59008EQDQ01  00003PRCP99
0134825780999991992021512004-05083-042817FM-12+009099999V0200901N00151045001CN0040001N9+02701+02371101461ADDAA106000091AG14000GF107991021011008001031001KA1999N+02291MA1999999100441MD1999999-0011REMSYN017333   20229 59001EQDQ01  00003PRCP99
0162825780999991992021612004-05083-042817FM-12+009099999V0201401N00051015001CN0002001N9+02311+02181101661ADDAA124014091AG19009AY161999AY201999GF108991081001017501021999KA1999N+02261MA1999999100631MD1999999+0191MW1211REMSYN023333   20226 58019 60144EQDQ01  01403PRCP99
0140825780999991992021712004-05083-042817FM-12+009099999V0201401N00311007501CN0040001N9+02651+02321101351ADDAA124002091AG10007GF106991061021008001001001KA1999N+02261MA1999999100331MD1999999-0301REMSYN023333   20226 59030 60024EQDQ01  00203PRCP99
0115825780999991992021718004-05083-042817FM-12+009099999V0201401N00211012001CN0040001N9+03201+02271100991ADDAA106000091AG14000GF106991061081008001001001MA1999999099981MD1999999-0011REMSYN011333   59001EQDQ01  00003PRCP99
0134825780999991992021800004-05083-042817FM-12+009099999V0201801N00151012001CN9999999N9+02611+02311101191ADDAA106000091AG14000GF108991081081008001999999KA1999M+03241MA1999999100171MD1999999-0061REMSYN017333   10324 59006EQDQ01  00003PRCP99
0162825780999991992021812004-05083-042817FM-12+009099999V0201401N00211007501CN0040001N9+02691+02391101281ADDAA124027091AG10007AY161999AY201999GF106991051021008001001021KA1999N+02221MA1999999100261MD1999999-0071MW1011REMSYN023333   20222 59007 60274EQDQ01  02703PRCP99
0162825780999991992021900004-05083-042817FM-12+009099999V0203601N00151007501CN9999999N9+02581+02491101001ADDAA106005091AG10001AY151999AY201999GF108991061071008001021999KA1999M+03211MA1999999099991MD1999999-0181MW1021REMSYN023333   10321 59018 60051EQDQ01  00503PRCP99
0162825780999991992021912004-05083-042817FM-12+009099999V0200901N00101007501CN0040001N9+02311+02271101361ADDAA124013091AG10007AY161999AY201999GF108991081001008001021999KA1999N+02271MA1999999100331MD1999999+0071MW1021REMSYN023333   20227 58007 60134EQDQ01  01303PRCP99
0115825780999991992021918004-05083-042817FM-12+009099999V0201401N00211007501CN0040001N9+03051+02381100831ADDAA106000091AG14000GF107991051021008001001041MA1999999099821MD1999999-0031REMSYN011333   59003EQDQ01  00003PRCP99
0134825780999991992022000004-05083-042817FM-12+009099999V0203601N00151007501CN9999999N9+02401+02171101231ADDAA106000091AG14000GF108991081001008001021999KA1999M+03061MA1999999100211MD1999999+0221REMSYN017333   10306 58022EQDQ01  00003PRCP99
0115825780999991992022018004-05083-042817FM-12+009099999V0200501N00211105001CN0040001N9+03001+02391101151ADDAA106000091AG14000GF107991021011008001001081MA1999999100141MD1999999+0321REMSYN011333   58032EQDQ01  00003PRCP99
0162825780999991992022112004-05083-042817FM-12+009099999V0201401N00261007501CN0040001N9+02441+02301101371ADDAA124021091AG10007AY161999AY201999GF108991051071008001021999KA1999N+02181MA1999999100341MD1999999-0041MW1021REMSYN023333   20218 59004 60214EQDQ01  02103PRCP99
0115825780999991992022118004-05083-042817FM-12+009099999V0201401N00151007501CN0040001N9+02951+02431100971ADDAA106000091AG14000GF108991081071008001999999MA1999999099951MD1999999-0181REMSYN011333   59018EQDQ01  00003PRCP99
0146825780999991992022312004-05083-042817FM-12+009099999V0200901N00151007501CN0040001N9+99999+99999101321ADDAA124000591AG10000GF108991061011008001011999KA1999N+02301MA1999999100301MD1999999+0061MW1021REMSYN023333   20230 58006 69954EQDQ01  00053PRCP99
0134825780999991992022400004-05083-042817FM-12+009099999V0200501N00051007501CN9999999N9+99999+99999101231ADDAA106000091AG14000GF106991061021008001001001KA1999M+03311MA1999999100211MD1999999+0161REMSYN017333   10331 58016EQDQ01  00003PRCP99
0134825780999991992022412004-05083-042817FM-12+009099999V0201401N00261220001CN0040001N9+02811+02251101381ADDAA106000091AG14000GF103991021011008001001011KA1999N+02281MA1999999100361MD1999999+0061REMSYN017333   20228 58006EQDQ01  00003PRCP99
0115825780999991992022418004-05083-042817FM-12+009099999V0201401N00151007501CN0040001N9+03251+02281101121ADDAA106000091AG14000GF106991051021008001001011MA1999999100111MD1999999+0021REMSYN011333   58002EQDQ01  00003PRCP99
0134825780999991992022500004-05083-042817FM-12+009099999V0200901N00101045001CN9999999N9+02621+02181101321ADDAA106000091AG14000GF106991041031008001041001KA1999M+03281MA1999999100301MD1999999+0081REMSYN017333   10328 58008EQDQ01  00003PRCP99
0134825780999991992022512004-05083-042817FM-12+009099999V0201401N00211045001CN0040001N9+02781+02311101421ADDAA106000091AG14000GF107991021031008001041011KA1999N+02301MA1999999100401MD1999999+0041REMSYN017333   20230 58004EQDQ01  00003PRCP99
0115825780999991992022518004-05083-042817FM-12+009099999V0201401N00261045001CN0040001N9+03191+02391101161ADDAA106000091AG14000GF107991021011008001041081MA1999999100151MD1999999+0041REMSYN011333   58004EQDQ01  00003PRCP99
0134825780999991992022612004-05083-042817FM-12+009099999V0201401N00211220001CN0040001N9+02921+02361101451ADDAA106000091AG14000GF101991011001004501041001KA1999N+02271MA1999999100431MD1999999+0031REMSYN017333   20227 58003EQDQ01  00003PRCP99
0143825780999991992022712004-05083-042817FM-12+009099999V0201401N00211015001CN0040001N9+02611+02421101591ADDAA199004091AG10007AY161999AY201999GF108991081001017501011999KA1999N+02361MA1999999100561MD1999999+0131MW1021REMSYN023333   20236 58013 60040
0115825780999991992022718004-05083-042817FM-12+009099999V0200901N00151220001CN0040001N9+03261+02301101131ADDAA106000091AG14000GF106991031021008001001061MA1999999100121MD1999999+0041REMSYN011333   58004EQDQ01  00003PRCP99
0134825780999991992022800004-05083-042817FM-12+009099999V0200501N00051045001CN9999999N9+02521+02471101321ADDAA106000091AG14000GF107991041071008001041001KA1999M+03281MA1999999100301MD1999999+0011REMSYN017333   10328 58001EQDQ01  00003PRCP99
0150825780999991992022812004-05083-042817FM-12+009099999V0200501N00151220001CN0040001N9+02821+02271101491ADDAA106000091AG14000GF103991001001999999001011KA1999N+02261MA1999999100401MD1999999-0091REMSYN017333   20226 59009EQDQ01 008003SCOLCBQ02  00003PRCP99
0115825780999991992022818004-05083-042817FM-12+009099999V0201401N00211105001CN0040001N9+03301+02211101121ADDAA106000091AG14000GF108991031011008001001081MA1999999100111MD1999999-0011REMSYN011333   59001EQDQ01  00003PRCP99
0134825780999991992022912004-05083-042817FM-12+009099999V0200901N00051105001CN0040001N9+02771+02421101421ADDAA106000091AG14000GF106991021011008001001081KA1999N+02181MA1999999100401MD1999999-0071REMSYN017333   20218 59007EQDQ01  00003PRCP99
0162825780999991992030112004-05083-042817FM-12+009099999V0203201N00051007501CN0040001N9+02371+02331101481ADDAA124068091AG10006AY161999AY201999GF108991081071008001999999KA1999N+02251MA1999999100451MD1999999+0051MW1021REMSYN023333   20225 58005 60684EQDQ01  06803PRCP99
0162825780999991992030212004-05083-042817FM-12+009099999V0200501N00101045001CN0040001N9+02531+02421101601ADDAA124020091AG10006AY161999AY201999GF108991031051008001021999KA1999N+02341MA1999999100571MD1999999+0091MW1021REMSYN023333   20234 58009 60204EQDQ01  02003PRCP99
0073825780999991992030218004-05083-042817FM-12+009099999V0201801N00311045001CN0040001N9+02531+02341101161ADDAG12006AY161999AY201999GF108991041081008001041081MA1999999100141MW1021
0140825780999991992030312004-05083-042817FM-12+009099999V0200501N00101012001CN0040001N9+02531+02491101491ADDAA124002091AG10006GF108991081081008001999999KA1999N+02241MA1999999100461MD1999999-0081REMSYN023333   20224 59008 60024EQDQ01  00203PRCP99
0162825780999991992030412004-05083-042817FM-12+009099999V0201401N00151045001CN0040001N9+02481+02361101311ADDAA124002091AG10006AY161999AY201999GF106991021011008001031001KA1999N+02221MA1999999100291MD1999999-0171MW1011REMSYN023333   20222 59017 60024EQDQ01  00203PRCP99
0115825780999991992030418004-05083-042817FM-12+009099999V0201401N00261220001CN0040001N9+03291+02341100841ADDAA106000091AG14000GF102991021011008001001001MA1999999099831MD1999999-0171REMSYN011333   59017EQDQ01  00003PRCP99
0134825780999991992030512004-05083-042817FM-12+009099999V0201401N00261220001CN0040001N9+02841+02261101261ADDAA106000091AG14000GF101991011011008001001001KA1999N+02241MA1999999100241MD1999999-0051REMSYN017333   20224 59005EQDQ01  00003PRCP99
0115825780999991992030518004-05083-042817FM-12+009099999V0201401N00261220001CN0040001N9+03081+02261100951ADDAA106000091AG14000GF102991021011008001001001MA1999999099941MD1999999+0111REMSYN011333   58011EQDQ01  00003PRCP99
0134825780999991992030612004-05083-042817FM-12+009099999V0201401N00311220001CN0040001N9+02771+02191101251ADDAA106000091AG14000GF101991001001999999001091KA1999N+02081MA1999999100231MD1999999-0011REMSYN017333   20208 59001EQDQ01  00003PRCP99
0115825780999991992030618004-05083-042817FM-12+009099999V0201401N00261220001CN0040001N9+03291+02201100831ADDAA106000091AG14000GF102991021011008001001001MA1999999099821MD1999999-0121REMSYN011333   59012EQDQ01  00003PRCP99
0134825780999991992030712004-05083-042817FM-12+009099999V0200901N00151220001CN0040001N9+02901+02501101161ADDAA106000091AG14000GF104991041011008001001001KA1999N+02501MA1999999100151MD1999999-0081REMSYN017333   20250 59008EQDQ01  00003PRCP99
0134825780999991992030800004-05083-042817FM-12+009099999V0201401N00101045001CN9999999N9+02751+02521100931ADDAA106000091AG14000GF106991021011008001041001KA1999M+03421MA1999999099921MD1999999-0031REMSYN017333   10342 59003EQDQ01  00003PRCP99
0143825780999991992030812004-05083-042817FM-12+009099999V0201401N00211045001CN0040001N9+02821+02331999999ADDAA106000091AG14000GF106991031011008001041011KA1999N+02321MA1999999100191MD1999999+0041ME1100209REMSYN017333   20232 58004EQDQ01  00003PRCP99
0115825780999991992030918004-05083-042817FM-12+009099999V0201401N00151105001CN0040001N9+03221+02291100761ADDAA106000091AG14000GF108991041081008001001081MA1999999099751MD1999999-0151REMSYN011333   59015EQDQ01  00003PRCP99
0162825780999991992031000004-05083-042817FM-12+009099999V0209991C00001012001CN9999999N9+02411+02171101041ADDAA106001091AG13000AY111999AY201999GF108991081081008001999999KA1999M+03261MA1999999100021MD1999999-0051MW1021REMSYN023333   10326 59005 60011EQDQ01  00103PRCP99
0140825780999991992031012004-05083-042817FM-12+009099999V0200901N00151007501CN0040001N9+02821+02461101231ADDAA124001091AG10006GF107991061041008001041001KA1999N+02231MA1999999100211MD1999999+0041REMSYN023333   20223 58004 60014EQDQ01  00103PRCP99
0115825780999991992031018004-05083-042817FM-12+009099999V0201801N00151220001CN0040001N9+03271+02351100801ADDAA106000091AG14000GF107991041021008001001041MA1999999099791MD1999999+0041REMSYN011333   58004EQDQ01  00003PRCP99
0134825780999991992031112004-05083-042817FM-12+009099999V0201401N00151220001CN0040001N9+02881+02391101211ADDAA106000091AG14000GF101991011011008001001001KA1999N+02121MA1999999100191MD1999999-0021REMSYN017333   20212 59002EQDQ01  00003PRCP99
0134825780999991992031200004-05083-042817FM-12+009099999V0201401N00051220001CN9999999N9+02661+02521101011ADDAA106000091AG14000GF104991041031008001001001KA1999M+03341MA1999999100001MD1999999+0091REMSYN017333   10334 58009EQDQ01  00003PRCP99
0134825780999991992031212004-05083-042817FM-12+009099999V0201401N00261105001CN0040001N9+02781+02251101171ADDAA106000091AG14000GF106991011011008001031041KA1999N+02321MA1999999100161MD1999999-0031REMSYN017333   20232 59003EQDQ01  00003PRCP99
0115825780999991992031218004-05083-042817FM-12+009099999V0201401N00151045001CN0040001N9+03321+02351100871ADDAA106000091AG14000GF107991041031008001041001MA1999999099861MD1999999-0031REMSYN011333   59003EQDQ01  00003PRCP99
0115825780999991992031318004-05083-042817FM-12+009099999V0201801N00151007501CN0040001N9+03111+02461100871ADDAA106000091AG14000GF106991051021008001041001MA1999999099861MD1999999+0001REMSYN011333   58000EQDQ01  00003PRCP99
0134825780999991992031400004-05083-042817FM-12+009099999V0209999999999045001CN9999999N9+02631+02481101041ADDAA106000091AG14000GF107991021021008001031041KA1999M+03241MA1999999100031MD1999999-0011REMSYN017333   10324 59001EQDQ01  00003PRCP99
0134825780999991992031412004-05083-042817FM-12+009099999V0201401N00411045001CN0040001N9+02851+02261101251ADDAA106000091AG14000GF107991011011008001041061KA1999N+02421MA1999999100241MD1999999+0001REMSYN017333   20242 58000EQDQ01  00003PRCP99
0115825780999991992031418004-05083-042817FM-12+009099999V0201401N00361105001CN0040001N9+03231+02291100781ADDAA106000091AG14000GF107991041021008001001081MA1999999099771MD1999999-0091REMSYN011333   59009EQDQ01  00003PRCP99
0134825780999991992031500004-05083-042817FM-12+009099999V0200901N00051220001CN9999999N9+02511+02341101021ADDAA106000091AG14000GF106991041021008001001061KA1999M+03271MA1999999100001MD1999999-0031REMSYN017333   10327 59003EQDQ01  00003PRCP99
0134825780999991992031512004-05083-042817FM-12+009099999V0201401N00261220001CN0040001N9+02871+02281101221ADDAA106000091AG14000GF103991011011008001001061KA1999N+02221MA1999999100201MD1999999-0041REMSYN017333   20222 59004EQDQ01  00003PRCP99
0134825780999991992031600004-05083-042817FM-12+009099999V0203601N00101045001CN9999999N9+02751+02451101081ADDAA106000091AG14000GF106991021021008001041011KA1999M+03361MA1999999100041MD1999999+0041REMSYN017333   10336 58004EQDQ01  00003PRCP99
0115825780999991992031618004-05083-042817FM-12+009099999V0201401N00261007501CN0040001N9+03001+02441100941ADDAA106000091AG14000GF107991051031008001041001MA1999999099931MD1999999+0041REMSYN011333   58004EQDQ01  00003PRCP99
0162825780999991992031712004-05083-042817FM-12+009099999V0201401N00261007501CN0040001N9+02901+02541101421ADDAA124002091AG10006AY161999AY201999GF106991061031008001001001KA1999N+02391MA1999999100411MD1999999+0131MW1011REMSYN023333   20239 58013 60024EQDQ01  00203PRCP99
0159825780999991992031718004-05083-042817FM-12+009099999V0202701N00151007501CN0040001N9+02941+02521100961ADDAA106001091AG10006AY161999AY201999GF106991051031008001071001MA1999999999999MD1999999+0021MW1011REMSYN017333   58002 60011EQDQ01 099053APOSP Q02  00103PRCP99
0178825780999991992031800004-05083-042817FM-12+009099999V0200501N00101007501CN9999999N9+02591+02551101281ADDAA106004091AG10006AY161999AY201999GF108991061071008001041999KA1999M+99999MA1999999100261MD1999999+0021MW1021REMSYN023333   10226 58002 60041EQDQ01  00403PRCP99Q02 +02262ATMX  
0140825780999991992031812004-05083-042817FM-12+009099999V0201401N00211007501CN0040001N9+02841+02461101511ADDAA124004091AG10006GF107991051021008001021011KA1999N+02381MA1999999100491MD1999999+0081REMSYN023333   20238 58008 60044EQDQ01  00403PRCP99
0134825780999991992031900004-05083-042817FM-12+009099999V0201401N00051045001CN9999999N9+02611+02511101271ADDAA106000091AG14000GF106991021021008001041011KA1999M+03151MA1999999100251MD1999999-0011REMSYN017333   10315 59001EQDQ01  00003PRCP99
0134825780999991992031912004-05083-042817FM-12+009099999V0201401N00311220001CN0040001N9+02911+02151101301ADDAA106000091AG14000GF103991011011008001041011KA1999N+02331MA1999999100281MD1999999-0211REMSYN017333   20233 59021EQDQ01  00003PRCP99
0146825780999991992032000004-05083-042817FM-12+009099999V0203601N00151012001CN9999999N9+02421+02231101191ADDAA106023091AG13000GF108991081081008001999999KA1999M+03401MA1999999100171MD1999999-0081MW1021REMSYN023333   10340 59008 60231EQDQ01  02303PRCP99
0140825780999991992032012004-05083-042817FM-12+009099999V0200501N00101045001CN0040001N9+02591+02271101251ADDAA124023091AG10006GF108991041021008001031999KA1999N+02221MA1999999100231MD1999999-0051REMSYN023333   20222 59005 60234EQDQ01  02303PRCP99
0162825780999991992032212004-05083-042817FM-12+009099999V0201401N00151007501CN0040001N9+02471+02341101391ADDAA124062091AG10006AY161999AY201999GF108991081071008001999999KA1999N+02141MA1999999100361MD1999999+0211MW1021REMSYN023333   20214 58021 60624EQDQ01  06203PRCP99
0162825780999991992032300004-05083-042817FM-12+009099999V0203601N00051007501CN9999999N9+02601+02531101191ADDAA124001091AG13000AY111999AY201999GF108991051071008001021011KA1999M+03191MA1999999100171MD1999999+0181MW1021REMSYN023333   10319 58018 60014EQDQ01  00103PRCP99
0162825780999991992032312004-05083-042817FM-12+009099999V0201401N00151007501CN0040001N9+02551+02401101261ADDAA124013091AG10006AY161999AY201999GF108991061071008001001081KA1999N+02311MA1999999100241MD1999999-0141MW1021REMSYN023333   20231 59014 60134EQDQ01  01303PRCP99
0115825780999991992032318004-05083-042817FM-12+009099999V0200901N00211105001CN0040001N9+03061+02381101031ADDAA106000091AG14000GF107991021011008001001021MA1999999100021MD1999999-0071REMSYN011333   59007EQDQ01  00003PRCP99
0134825780999991992032400004-05083-042817FM-12+009099999V0209991C00001007501CN9999999N9+02671+02461101221ADDAA106000091AG14000GF108991081071008001999999KA1999M+03061MA1999999100201MD1999999+0031REMSYN017333   10306 58003EQDQ01  00003PRCP99
0134825780999991992032412004-05083-042817FM-12+009099999V0201401N00211007501CN0040001N9+02701+02461101321ADDAA106000091AG14000GF107991051071008001031001KA1999N+02331MA1999999100301MD1999999+0061REMSYN017333   20233 58006EQDQ01  00003PRCP99
0115825780999991992032418004-05083-042817FM-12+009099999V0202401N00051007501CN0040001N9+03181+02311100941ADDAA106000091AG14000GF108991051021008001021091MA1999999099931MD1999999-0091REMSYN011333   59009EQDQ01  00003PRCP99
0162825780999991992032500004-05083-042817FM-12+009099999V0200901N00151007501CN9999999N9+02371+02241101341ADDAA106001091AG10002AY121999AY201999GF108991061071008001021999KA1999M+03081MA1999999100311MD1999999+0111MW1601REMSYN023333   10308 58011 60011EQDQ01  00103PRCP99
0140825780999991992032512004-05083-042817FM-12+009099999V0200901N00211045001CN0040001N9+02711+02391101401ADDAA124001091AG10006GF107991031021008001031001KA1999N+02241MA1999999100371MD1999999+0071REMSYN023333   20224 58007 60014EQDQ01  00103PRCP99
0162825780999991992032612004-05083-042817FM-12+009099999V0200901N00151007501CN0040001N9+02491+02381101451ADDAA124029091AG10006AY161999AY201999GF108991071051008001021999KA1999N+02221MA1999999100421MD1999999+0051MW1021REMSYN023333   20222 58005 60294EQDQ01  02903PRCP99
0134825780999991992032700004-05083-042817FM-12+009099999V0200501N00151007501CN9999999N9+02391+02311101291ADDAA106000091AG14000GF108991061031008001999999KA1999M+03071MA1999999100271MD1999999+0061REMSYN017333   10307 58006EQDQ01  00003PRCP99
0162825780999991992032712004-05083-042817FM-12+009099999V0200501N00101220001CN0040001N9+02791+02401101491ADDAA124008091AG10000AY121999AY201999GF103991021011008001031001KA1999N+02281MA1999999100471MD1999999+0051MW1021REMSYN023333   20228 58005 60084EQDQ01  00803PRCP99
0115825780999991992032718004-05083-042817FM-12+009099999V0200901N00051045001CN0040001N9+02981+02371101011ADDAA106000091AG14000GF107991021021008001031081MA1999999100101MD1999999+0041REMSYN011333   58004EQDQ01  00003PRCP99
0140825780999991992033012004-05083-042817FM-12+009099999V0203601N00051220001CN0040001N9+02591+02401101421ADDAA124007091AG19006GF104991041011008001001001KA1999N+02241MA1999999100291MD1999999-0011REMSYN023333   20224 59001 60074EQDQ01  00703PRCP99
0162825780999991992040112004-05083-042817FM-12+009099999V0200501N00101012001CN0040001N9+02621+02411101351ADDAA124026091AG10006AY161999AY231999GF107991061081008001031001KA1999N+02181MA1999999100331MD1999999-0041MW1031REMSYN023333   20218 59004 60264EQDQ01  02603PRCP99
0162825780999991992040200004-05083-042817FM-12+009099999V0203201N00101012001CN9999999N9+02431+02301101211ADDAA106008091AG13000AY121999AY201999GF108991081081008001999999KA1999M+03221MA1999999100191MD1999999-0011MW1021REMSYN023333   10322 59001 60081EQDQ01  00803PRCP99
0162825780999991992040212004-05083-042817FM-12+009099999V0201401N00151007501CN0040001N9+02531+02341101401ADDAA124049091AG10006AY161999AY201999GF108991051051008001011999KA1999N+02121MA1999999100371MD1999999+0041MW1021REMSYN023333   20212 58004 60494EQDQ01  04903PRCP99
0162825780999991992040312004-05083-042817FM-12+009099999V0200901N001019999999N0040001N9+02371+02311101591ADDAA124034091AG10007AY161999AY201999GF108991081001008001999999KA1999N+02201MA1999999100561MD1999999+0191MW1201REMSYN023333   20220 58019 60344EQDQ01  03403PRCP99
0134825780999991992040412004-05083-042817FM-12+009099999V0200901N00101220001CN0006001N9+02741+02481101441ADDAA106000091AG14000GF103991031021008001001001KA1999N+02431MA1999999100421MD1999999-0141REMSYN017333   20243 59014EQDQ01  00003PRCP99
0162825780999991992040612004-05083-042817FM-12+009099999V0201401N00151045001CN0040001N9+02771+02441101371ADDAA124012091AG10006AY161999AY201999GF106991021011008001031001KA1999N+02381MA1999999100341MD1999999-0091MW1031REMSYN023333   20238 59009 60124EQDQ01  01203PRCP99
0162825780999991992040712004-05083-042817FM-12+009099999V0201401N00211220001CN0040001N9+02651+02411101311ADDAA124014091AG10006AY161999AY201999GF103991021011008001001061KA1999N+02281MA1999999100291MD1999999-0051MW1031REMSYN023333   20228 59005 60144EQDQ01  01403PRCP99
0134825780999991992040912004-05083-042817FM-12+009099999V0200901N00211220001CN0040001N9+02861+02351101381ADDAA106000091AG14000GF102991021021008001001001KA1999N+02261MA1999999100361MD1999999+0051REMSYN017333   20226 58005EQDQ01  00003PRCP99
0115825780999991992041218004-05083-042817FM-12+009099999V0201401N00771105001CN0200001N9+02881+02371100891ADDAA106000091AG14000GF106991011011008001001081MA1999999100361MD1999999+0101REMSYN011333   58010EQDQ01  00003PRCP99
0134825780999991992041312004-05083-042817FM-12+009099999V0201401N00311105001CN0040001N9+02691+02241101171ADDAA106000091AG14000GF108991001001999999001091KA1999N+02141MA1999999100151MD1999999+0011REMSYN017333   20214 58001EQDQ01  00003PRCP99
0134825780999991992041400004-05083-042817FM-12+009099999V0209999999999220001CN9999999N9+02691+02521101081ADDAA106000091AG14000GF104991041021008001001001KA1999M+03291MA1999999100061MD1999999+0061REMSYN017333   10329 58006EQDQ01  00003PRCP99
0134825780999991992041412004-05083-042817FM-12+009099999V0200901N00101220001CN0040001N9+02901+02321101161ADDAA106000091AG14000GF100991001001999999001001KA1999N+02331MA1999999100151MD1999999+0001REMSYN017333   20233 58000EQDQ01  00003PRCP99
0134825780999991992041500004-05083-042817FM-12+009099999V0209991C00001012001CN9999999N9+02511+02471101081ADDAA106000091AG14000GF108991081081008001999999KA1999M+03301MA1999999100071MD1999999+0011REMSYN017333   10330 58001EQDQ01  00003PRCP99
0162825780999991992041512004-05083-042817FM-12+009099999V0203601N00101007501CN0040001N9+02631+02411101421ADDAA124004091AG10006AY161999AY201999GF107991071051008001001001KA1999N+02361MA1999999100401MD1999999+0251MW1021REMSYN023333   20236 58025 60044EQDQ01  00403PRCP99
0134825780999991992041700004-05083-042817FM-12+009099999V0200501N00051012001CN9999999N9+02521+02421101261ADDAA106000091AG14000GF108991081081008001999999KA1999M+03181MA1999999100241MD1999999+0061REMSYN017333   10318 58006EQDQ01  00003PRCP99
0162825780999991992041712004-05083-042817FM-12+009099999V0200501N00151007501CN0040001N9+02691+02461101301ADDAA124007091AG10006AY161999AY201999GF106991061051008001001001KA1999N+02311MA1999999100291MD1999999-0161MW1011REMSYN023333   20231 59016 60074EQDQ01  00703PRCP99
0134825780999991992041900004-05083-042817FM-12+009099999V0200901N00311012001CN9999999N9+02721+02611100961ADDAA106000091AG14000GF108991081081008001999999KA1999M+03351MA1999999099951MD1999999-0091REMSYN017333   10335 59009EQDQ01  00003PRCP99
0134825780999991992041912004-05083-042817FM-12+009099999V0203601N00151105001CN0040001N9+02821+02461101171ADDAA106000091AG14000GF106991031011008001001091KA1999N+02361MA1999999100161MD1999999-0071REMSYN017333   20236 59007EQDQ01  00003PRCP99
0134825780999991992042000004-05083-042817FM-12+009099999V0209991C00001007501CN9999999N9+02661+02561100761ADDAA106000091AG14000GF107991071071008001001001KA1999M+03301MA1999999099751MD1999999-0201REMSYN017333   10330 59020EQDQ01  00003PRCP99
0134825780999991992042012004-05083-042817FM-12+009099999V0200901N00101105001CN0040001N9+02841+02541101101ADDAA106000091AG14000GF107991031011008001001091KA1999N+02841MA1999999100091MD1999999-0071REMSYN017333   20284 59007EQDQ01  00003PRCP99
0134825780999991992042112004-05083-042817FM-12+009099999V0200901N00151220001CN0040001N9+02881+02411101111ADDAA106000091AG14000GF103991031011008001001001KA1999N+02281MA1999999100101MD1999999+0021REMSYN017333   20228 58002EQDQ01  00003PRCP99
0081825780999991992042200004-05083-042817FM-12+009099999V0200901N00051045001CN9999999N9+02721+02561101041ADDAA106000091AG14000GF106991041011008001041001MA1999999100031EQDQ01  00003PRCP99
0134825780999991992042300004-05083-042817FM-12+009099999V0200901N00151220001CN9999999N9+02721+02481101071ADDAA106000091AG14000GF102991021011008001001001KA1999M+03441MA1999999100061MD1999999+0031REMSYN017333   10344 58003EQDQ01  00003PRCP99
0115825780999991992042312004-05083-042817FM-12+009099999V0201401N00261220001CN0040001N9+02951+02471101171ADDAA106000091AG14000GF100991001001999999001001MA1999999100161MD1999999-0121REMSYN011333   59012EQDQ01  00003PRCP99
0134825780999991992042412004-05083-042817FM-12+009099999V0200901N00211220001CN0040001N9+02791+02271101071ADDAA106000091AG14000GF100991001001999999001001KA1999N+02041MA1999999100061MD1999999-0101REMSYN017333   20204 59010EQDQ01  00003PRCP99
0134825780999991992042500004-05083-042817FM-12+009099999V0209999999999220001CN9999999N9+02521+02421100731ADDAA106000091AG14000GF103991031021008001001001KA1999M+03271MA1999999099721MD1999999-0161REMSYN017333   10327 59016EQDQ01  00003PRCP99
0134825780999991992042512004-05083-042817FM-12+009099999V0201401N00211220001CN0040001N9+02781+01981100961ADDAA106000091AG14000GF103991021011999999001001KA1999N+02071MA1999999100081MD1999999-0041REMSYN017333   20207 59004EQDQ01  00003PRCP99
0134825780999991992042700004-05083-042817FM-12+009099999V0202301N00051220001CN9999999N9+02621+02461101181ADDAA106000091AG14000GF104991041011008001001001KA1999M+03341MA1999999100161MD1999999+0221REMSYN017333   10334 58022EQDQ01  00003PRCP99
0134825780999991992042712004-05083-042817FM-12+009099999V0201401N00101220001CN0040001N9+02921+02501101351ADDAA106000091AG14000GF102991001001999999001061KA1999N+02161MA1999999100331MD1999999-0071REMSYN017333   20216 59007EQDQ01  00003PRCP99
0134825780999991992042812004-05083-042817FM-12+009099999V0203201N00151220001CN0040001N9+02941+02471101131ADDAA106000091AG14000GF101991011011008001001001KA1999N+02421MA1999999100121MD1999999-0211REMSYN017333   20242 59021EQDQ01  00003PRCP99
0134825780999991992042900004-05083-042817FM-12+009099999V0209991C00001220001CN9999999N9+02701+02561100851ADDAA106000091AG14000GF104991041021008001001001KA1999M+03401MA1999999099841MD1999999-0231REMSYN017333   10340 59023EQDQ01  00003PRCP99
0150825780999991992043000004-05083-042817FM-12+009099999V0209991C00001220001CN9999999N9+02521+02311100971ADDAA106000091AG14000GF103991001001999999001091KA1999M+03221MA1999999099951MD1999999+0111REMSYN017333   10322 58011EQDQ01 008003SCOLCBQ02  00003PRCP99
0134825780999991992043012004-05083-042817FM-12+009099999V0200901N00151007501CN0040001N9+02711+02481101301ADDAA106000091AG14000GF108991081071008001999999KA1999N+02261MA1999999100281MD1999999+0201REMSYN017333   20226 58020EQDQ01  00003PRCP99
0162825780999991992050112004-05083-042817FM-12+009099999V0200501N00101007501CN0040001N9+02731+02521101361ADDAA124009091AG10005AY161999AY201999GF108991081051008001999999KA1999N+02301MA1999999100341MD1999999+0061MW1021REMSYN023333   20230 58006 60094EQDQ01  00903PRCP99
0115825780999991992050118004-05083-042817FM-12+009099999V0200901N00101105001CN0040001N9+03201+02351100981ADDAA106000091AG14000GF107991021011008001001061MA1999999099971MD1999999+0041REMSYN011333   58004EQDQ01  00003PRCP99
0150825780999991992050200004-05083-042817FM-12+009099999V0209999999999007501CN9999999N9+03631+02521101041ADDAA106000091AG14000GF107991071031008001001001KA1999M+99999MA1999999100031MD1999999+0001REMSYN017333   10324 59000EQDQ01  00003PRCP99Q02 +03242ATMX  
0134825780999991992050212004-05083-042817FM-12+009099999V0201401N00051045001CN0040001N9+02831+02441101431ADDAA106000091AG14000GF105991041021008001031001KA1999N+02221MA1999999100411MD1999999+0131REMSYN017333   20222 58013EQDQ01  00003PRCP99
0070825780999991992050215004-05083-042817FM-12+009099999V0209991C00001007501CN0200001N9+03221+02321101281ADDAG12000GF106991061021008001001001MD1999999+0101REMSYN011333   58010
0134825780999991992050312004-05083-042817FM-12+009099999V0200901N00101012001CN0040001N9+02591+02421101291ADDAA106000091AG14000GF108991081081008001999999KA1999N+02301MA1999999100271MD1999999-0141REMSYN017333   20230 59014EQDQ01  00003PRCP99
0134825780999991992050412004-05083-042817FM-12+009099999V0200901N00151012001CN0040001N9+02551+02401101181ADDAA106000091AG14000GF108991081081008001999999KA1999N+02361MA1999999100161MD1999999-0111REMSYN017333   20236 59011EQDQ01  00003PRCP99
0134825780999991992050500004-05083-042817FM-12+009099999V0209999999999012001CN9999999N9+02511+02341100921ADDAA106000091AG14000GF106991061081008001001001KA1999M+03281MA1999999099901MD1999999+0061REMSYN017333   10328 58006EQDQ01  00003PRCP99
0134825780999991992050600004-05083-042817FM-12+009099999V0209991C00001007501CN9999999N9+02511+02341100881ADDAA106000091AG14000GF106991061031008001001001KA1999M+03301MA1999999099861MD1999999-0041REMSYN017333   10330 59004EQDQ01  00003PRCP99
0134825780999991992050612004-05083-042817FM-12+009099999V0200501N00211007501CN0040001N9+02701+02391101241ADDAA106000091AG14000GF106991061031008001001001KA1999N+02301MA1999999100221MD1999999+0091REMSYN017333   20230 58009EQDQ01  00003PRCP99
0134825780999991992050700004-05083-042817FM-12+009099999V0209991C00001007501CN9999999N9+02511+02401100981ADDAA106000091AG14000GF105991051021008001001001KA1999M+03181MA1999999099961MD1999999+0101REMSYN017333   10318 58010EQDQ01  00003PRCP99
0134825780999991992050712004-05083-042817FM-12+009099999V0200501N00261220001CN0040001N9+02931+02271101231ADDAA106000091AG14000GF102991021011008001001001KA1999N+02351MA1999999100221MD1999999-0021REMSYN017333   20235 59002EQDQ01  00003PRCP99
0134825780999991992050800004-05083-042817FM-12+009099999V0200901N00101220001CN9999999N9+02501+02361101081ADDAA106000091AG14000GF103991021011008001001001KA1999M+03231MA1999999100061MD1999999+0171REMSYN017333   10323 58017EQDQ01  00003PRCP99
0134825780999991992050812004-05083-042817FM-12+009099999V0200901N00211220001CN0040001N9+02831+02291101371ADDAA106000091AG14000GF102991001001999999001061KA1999N+02141MA1999999100351MD1999999+0151REMSYN017333   20214 58015EQDQ01  00003PRCP99
0162825780999991992050912004-05083-042817FM-12+009099999V0200901N00311220001CN0040001N9+02891+02371101401ADDAA124007091AG10005AY161999AY201999GF102991021011008001001001KA1999N+02351MA1999999100381MD1999999+0031MW1011REMSYN023333   20235 58003 60074EQDQ01  00703PRCP99
0134825780999991992051100004-05083-042817FM-12+009099999V0209999999999012001CN9999999N9+02661+02521101141ADDAA106000091AG14000GF106991061081008001001001KA1999M+03351MA1999999100121MD1999999-0031REMSYN017333   10335 59003EQDQ01  00003PRCP99
0134825780999991992051112004-05083-042817FM-12+009099999V0200901N00261105001CN0040001N9+02881+02371101511ADDAA106000091AG14000GF107991041011008001001021KA1999N+02381MA1999999100491MD1999999+0051REMSYN017333   20238 58005EQDQ01  00003PRCP99
0134825780999991992051200004-05083-042817FM-12+009099999V0209991C00001220001CN9999999N9+02581+02401101181ADDAA106000091AG14000GF102991021011008001001001KA1999M+03321MA1999999100161MD1999999+0041REMSYN017333   10332 58004EQDQ01  00003PRCP99
0134825780999991992051212004-05083-042817FM-12+009099999V0201401N00151220001CN0040001N9+02761+02301101411ADDAA106000091AG14000GF102991011011008001041001KA1999N+02161MA1999999100391MD1999999-0101REMSYN017333   20216 59010EQDQ01  00003PRCP99
0134825780999991992051312004-05083-042817FM-12+009099999V0201401N00211220001CN0040001N9+02751+02361101331ADDAA106000091AG14000GF102991021011008001001001KA1999N+02101MA1999999100311MD1999999-0081REMSYN017333   20210 59008EQDQ01  00003PRCP99
0134825780999991992051400004-05083-042817FM-12+009099999V0209999999999007501CN9999999N9+02501+02271101021ADDAA106000091AG14000GF105991051021008001001001KA1999M+03341MA1999999100001MD1999999-0151REMSYN017333   10334 59015EQDQ01  00003PRCP99
0134825780999991992051412004-05083-042817FM-12+009099999V0201401N00151220001CN0040001N9+02851+02461101251ADDAA106000091AG14000GF104991041021008001001001KA1999N+02241MA1999999100231MD1999999-0081REMSYN017333   20224 59008EQDQ01  00003PRCP99
0134825780999991992051512004-05083-042817FM-12+009099999V0201401N00101220001CN0040001N9+02851+02501101221ADDAA106000091AG14000GF102991021011008001001001KA1999N+02341MA1999999100201MD1999999-0031REMSYN017333   20234 59003EQDQ01  00003PRCP99
0134825780999991992051612004-05083-042817FM-12+009099999V0200901N00311220001CN0040001N9+02821+02381101261ADDAA106000091AG14000GF106991031011008001001011KA1999N+02281MA1999999100241MD1999999+0041REMSYN017333   20228 58004EQDQ01  00003PRCP99
0134825780999991992051812004-05083-042817FM-12+009099999V0200901N00151105001CN0040001N9+02721+02321101331ADDAA106000091AG14000GF107991011011008001001081KA1999N+02201MA1999999100311MD1999999+0071REMSYN017333   20220 58007EQDQ01  00003PRCP99
0134825780999991992052012004-05083-042817FM-12+009099999V0200901N00311012001CN0040001N9+02731+02321101361ADDAA106000091AG14000GF107991071081008001001001KA1999N+02181MA1999999100341MD1999999+0031REMSYN017333   20218 58003EQDQ01  00003PRCP99
0134825780999991992052300004-05083-042817FM-12+009099999V0209999999999007501CN9999999N9+02501+02251101101ADDAA106000091AG14000GF105991051021008001001001KA1999M+03401MA1999999100091MD1999999+0011REMSYN017333   10340 58001EQDQ01  00003PRCP99
0150825780999991992052312004-05083-042817FM-12+009099999V0201401N00211007501CN0040001N9+02691+02311101421ADDAA106000091AG14000GA1091+999999999GF109991061011008001001001KA1999N+02121MA1999999100401MD1999999+0131REMSYN017333   20212 58013EQDQ01  00003PRCP99
0081825780999991992052500004-05083-042817FM-12+009099999V0202301N00051007501CN9999999N9+02521+02211101121ADDAA106000091AG14000GF105991051021008001001001MA1999999100101EQDQ01  00003PRCP99
0081825780999991992052512004-05083-042817FM-12+009099999V0201401N00211007501CN0040001N9+02651+02351101481ADDAA106000091AG14000GF107991071071008001001001MA1999999100461EQDQ01  00003PRCP99
0134825780999991992052600004-05083-042817FM-12+009099999V0202701N00051007501CN9999999N9+02411+02171101311ADDAA106000091AG14000GF106991061031008001001001KA1999M+03281MA1999999100291MD1999999+0191REMSYN017333   10328 58019EQDQ01  00003PRCP99
0134825780999991992052612004-05083-042817FM-12+009099999V0201801N00261220001CN0040001N9+02491+02361101501ADDAA106000091AG14000GF101991011011008001001001KA1999N+02081MA1999999100481MD1999999+0021REMSYN017333   20208 58002EQDQ01  00003PRCP99
0134825780999991992052700004-05083-042817FM-12+009099999V0209991C00001007501CN9999999N9+02471+02211101151ADDAA106000091AG14000GF105991051021008001001001KA1999M+03461MA1999999100131MD1999999-0161REMSYN017333   10346 59016EQDQ01  00003PRCP99
0134825780999991992052712004-05083-042817FM-12+009099999V0201401N00261220001CN0040001N9+02861+02371101231ADDAA106000091AG14000GF102991021011008001001001KA1999N+02161MA1999999100211MD1999999-0271REMSYN017333   20216 59027EQDQ01  00003PRCP99
0134825780999991992052900004-05083-042817FM-12+009099999V0209999999999220001CN9999999N9+02721+02251100971ADDAA106000091AG14000GF104991041021008001001001KA1999M+03241MA1999999099961MD1999999-0041REMSYN017333   10324 59004EQDQ01  00003PRCP99
0134825780999991992052912004-05083-042817FM-12+009099999V0200901N00211220001CN0040001N9+02721+02371101301ADDAA106000091AG14000GF101991011011008001001001KA1999N+02081MA1999999100281MD1999999+0061REMSYN017333   20208 58006EQDQ01  00003PRCP99
0134825780999991992053000004-05083-042817FM-12+009099999V0200501N00051007501CN9999999N9+02341+02111101021ADDAA106000091AG14000GF106991061031008001001001KA1999M+03361MA1999999100101MD1999999+0041REMSYN017333   10336 58004EQDQ01  00003PRCP99
0134825780999991992053012004-05083-042817FM-12+009099999V0200901N00211220001CN0040001N9+02881+02211101421ADDAA106000091AG14000GF102991021011008001001001KA1999N+02021MA1999999100401MD1999999+0121REMSYN017333   20202 58012EQDQ01  00003PRCP99
0081825780999991992053112004-05083-042817FM-12+009099999V0200901N00151012001CN0040001N9+02601+02401101441ADDAA106000091AG14000GF108991081081008001999999MA1999999100421EQDQ01  00003PRCP99
0162825780999991992060112004-05083-042817FM-12+009099999V0201401N00101012001CN0040001N9+02591+99999101421ADDAA124002091AG10000AY121999AY201999GF108991081081008001999999KA1999N+02321MA1999999100401MD1999999-0031MW1011REMSYN023333   20232 59003 60024EQDQ01  00203PRCP99
0140825780999991992060212004-05083-042817FM-12+009099999V0200901N00151220001CN0040001N9+02741+02341101441ADDAA124002091AG10005GF102991011011008001041001KA1999N+02161MA1999999100421MD1999999+0021REMSYN023333   20216 58002 60024EQDQ01  00203PRCP99
0134825780999991992060300004-05083-042817FM-12+009099999V0200901N00051012001CN9999999N9+02521+02361101211ADDAA106000091AG14000GF106991061081008001001001KA1999M+03401MA1999999100191MD1999999-0121REMSYN017333   10340 59012EQDQ01  00003PRCP99
0134825780999991992060312004-05083-042817FM-12+009099999V0200501N00051220001CN0040001N9+02791+02361101411ADDAA106000091AG14000GF102991021011008001001001KA1999N+02141MA1999999100421MD1999999+0001REMSYN017333   20214 58000EQDQ01  00003PRCP99
0134825780999991992060400004-05083-042817FM-12+009099999V0200501N00101012001CN9999999N9+02681+02241101201ADDAA106000091AG14000GF106991061081008001001001KA1999M+03441MA1999999100191MD1999999+0001REMSYN017333   10344 58000EQDQ01  00003PRCP99
0134825780999991992060412004-05083-042817FM-12+009099999V0209999999999220001CN0040001N9+02841+02291101381ADDAA106000091AG14000GF102991021011008001001001KA1999N+02201MA1999999100361MD1999999-0061REMSYN017333   20220 59006EQDQ01  00003PRCP99
0134825780999991992060512004-05083-042817FM-12+009099999V0209991C00001015001CN0040001N9+02551+02331101391ADDAA106000091AG14000GF108991081001017501021999KA1999N+02141MA1999999100371MD1999999+0011REMSYN017333   20214 58001EQDQ01  00003PRCP99
0134825780999991992060900004-05083-042817FM-12+009099999V0202301N00051007501CN9999999N9+02611+02331101201ADDAA106000091AG14000GF106991061031008001001001KA1999M+03391MA1999999100181MD1999999+0001REMSYN017333   10339 58000EQDQ01  00003PRCP99
0134825780999991992060912004-05083-042817FM-12+009099999V0200901N00261220001CN0040001N9+02941+02241101361ADDAA106000091AG14000GF101991011011008001001001KA1999N+02311MA1999999100341MD1999999-0051REMSYN017333   20231 59005EQDQ01  00003PRCP99
0134825780999991992061012004-05083-042817FM-12+009099999V0200901N00261220001CN0040001N9+02901+02201101491ADDAA106000091AG14000GF103991011011008001041061KA1999N+02251MA1999999100401MD1999999+0061REMSYN017333   20225 58006EQDQ01  00003PRCP99
0146825780999991992061100004-05083-042817FM-12+009099999V0203601N00151012001CN9999999N9+02311+02221101351ADDAA106009091AG13000GF108991081081008001999999KA1999M+03481MA1999999100331MD1999999+0171MW1021REMSYN023333   10348 58017 60091EQDQ01  00903PRCP99
0140825780999991992061112004-05083-042817FM-12+009099999V0200901N00211220001CN0040001N9+02741+02171101631ADDAA124009091AG10005GF102991021001017501031001KA1999N+02121MA1999999100601MD1999999+0201REMSYN023333   20212 58020 60094EQDQ01  00903PRCP99
0134825780999991992061200004-05083-042817FM-12+009099999V0202701N00051220001CN9999999N9+02471+02191101401ADDAA106000091AG14000GF102991021011008001001001KA1999M+03421MA1999999100381MD1999999+0051REMSYN017333   10342 58005EQDQ01  00003PRCP99
0134825780999991992061212004-05083-042817FM-12+009099999V0200901N00211220001CN0040001N9+02791+02381101621ADDAA106000091AG14000GF101991011011008001001001KA1999N+02181MA1999999100601MD1999999+0001REMSYN017333   20218 58000EQDQ01  00003PRCP99
0134825780999991992061412004-05083-042817FM-12+009099999V0202301N00311220001CN0040001N9+02791+02041101521ADDAA106000091AG14000GF100991001001999999001001KA1999N+02181MA1999999100501MD1999999-0021REMSYN017333   20218 59002EQDQ01  00003PRCP99
0134825780999991992061500004-05083-042817FM-12+009099999V0209999999999220001CN9999999N9+02171+01931101221ADDAA106000091AG14000GF102991021001008001041001KA1999M+03341MA1999999100201MD1999999-0071REMSYN017333   10334 59007EQDQ01  00003PRCP99
0134825780999991992061512004-05083-042817FM-12+009099999V0200401N00361220001CN0040001N9+02541+01861101631ADDAA106000091AG14000GF101991999999999999999999KA1999N+01761MA1999999100601MD1999999+0101REMSYN017333   20176 58010EQDQ01  00003PRCP99
0134825780999991992061600004-05083-042817FM-12+009099999V0202301N00051220001CN9999999N9+02161+01991101361ADDAA106000091AG14000GF102991021011008001001001KA1999M+03251MA1999999100331MD1999999+0131REMSYN017333   10325 58013EQDQ01  00003PRCP99
0134825780999991992061612004-05083-042817FM-12+009099999V0201401N00511220001CN0040001N9+02591+01871101641ADDAA106000091AG14000GF100991001001999999001001KA1999N+01681MA1999999100611MD1999999+0011REMSYN017333   20168 58001EQDQ01  00003PRCP99
0134825780999991992061700004-05083-042817FM-12+009099999V0201401N00051220001CN9999999N9+02501+01941101431ADDAA106000091AG14000GF102991021021008001001001KA1999M+03201MA1999999100411MD1999999+0081REMSYN017333   10320 58008EQDQ01  00003PRCP99
0134825780999991992061712004-05083-042817FM-12+009099999V0201401N00211220001CN0040001N9+02611+01791101601ADDAA106000091AG14000GF102991021011008001001001KA1999N+01821MA1999999100571MD1999999-0041REMSYN017333   20182 59004EQDQ01  00003PRCP99
0134825780999991992061800004-05083-042817FM-12+009099999V0209991C00001220001CN9999999N9+02241+02011101391ADDAA106000091AG14000GF101991011011008001001001KA1999M+03251MA1999999100361MD1999999-0051REMSYN017333   10325 59005EQDQ01  00003PRCP99
0134825780999991992061812004-05083-042817FM-12+009099999V0201401N00361220001CN0040001N9+02641+01931101581ADDAA106000091AG14000GF100991001001999999001001KA1999N+01801MA1999999100551MD1999999-0021REMSYN017333   20180 59002EQDQ01  00003PRCP99
0134825780999991992061912004-05083-042817FM-12+009099999V0200901N00151220001CN0040001N9+02761+02141101451ADDAA106000091AG14000GF102991021011008001001001KA1999N+02001MA1999999100431MD1999999-0121REMSYN017333   20200 59012EQDQ01  00003PRCP99
0134825780999991992062012004-05083-042817FM-12+009099999V0201401N00151220001CN0040001N9+02691+02131101511ADDAA106000091AG14000GF105991001001999999001011KA1999N+01981MA1999999100491MD1999999+0061REMSYN017333   20198 58006EQDQ01  00003PRCP99
0134825780999991992062100004-05083-042817FM-12+009099999V0202301N00051220001CN9999999N9+02501+02251101351ADDAA106000091AG14000GF102991021011008001001001KA1999M+03441MA1999999100331MD1999999+0061REMSYN017333   10344 58006EQDQ01  00003PRCP99
0134825780999991992062112004-05083-042817FM-12+009099999V0201401N00261220001CN0040001N9+02721+01851101631ADDAA106000091AG14000GF100991001001999999001001KA1999N+01901MA1999999100611MD1999999+0121REMSYN017333   20190 58012EQDQ01  00003PRCP99
0134825780999991992062200004-05083-042817FM-12+009099999V0201801N00051220001CN9999999N9+02411+02171101291ADDAA106000091AG14000GF100991001001999999001001KA1999M+03381MA1999999100371MD1999999-0061REMSYN017333   10338 59006EQDQ01  00003PRCP99
0134825780999991992062212004-05083-042817FM-12+009099999V0201401N00151220001CN0040001N9+02771+02071101571ADDAA106000091AG14000GF100991001001999999001001KA1999N+01991MA1999999100541MD1999999-0071REMSYN017333   20199 59007EQDQ01  00003PRCP99
0162825780999991992062312004-05083-042817FM-12+009099999V0201401N00101220001CN0040001N9+02661+02371101581ADDAA124012091AG10005AY161999AY201999GF102991021021008001001001KA1999N+02301MA1999999100561MD1999999+0021MW1011REMSYN023333   20230 58002 60124EQDQ01  01203PRCP99
0081825780999991992062500004-05083-042817FM-12+009099999V0202301N00051045001CN9999999N9+02611+02401101281ADDAA106000091AG14000GF106991031021008001031001MA1999999100261EQDQ01  00003PRCP99
0134825780999991992062512004-05083-042817FM-12+009099999V0201401N00211220001CN0040001N9+02701+01981101551ADDAA106000091AG14000GF100991001001999999001001KA1999N+02091MA1999999100731MD1999999-0051REMSYN017333   20209 59005EQDQ01  00003PRCP99
0150825780999991992062712004-05083-042817FM-12+009099999V0201401N00261220001CN0040001N9+02781+01881101511ADDAA106000091AG14000GA1001+999999999GF100991001001999999001001KA1999N+01861MA1999999100491MD1999999-0091REMSYN017 333 20186 59009?EQDQ01  00003PRCP99
0134825780999991992062900004-05083-042817FM-12+009099999V0203201N00051012001CN9999999N9+02701+01661101351ADDAA106000091AG14000GF108991081081008001999999KA1999M+03421MA1999999100331MD1999999+0051REMSYN017 333 10342 58005?EQDQ01  00003PRCP99
0162825780999991992062912004-05083-042817FM-12+009099999V0202701N00051220001CN0040001N9+02661+02351101581ADDAA124001091AG10005AY161999AY201999GF103991031011008001001001KA1999N+02251MA1999999100561MD1999999+0021MW1011REMSYN023 333 20225 58002 60014?EQDQ01  00103PRCP99
0134825780999991992063012004-05083-042817FM-12+009099999V0200901N00101220001CN0040001N9+02651+02271101691ADDAA106000091AG14000GF102991021011008001001001KA1999N+02041MA1999999100661MD1999999+0101REMSYN017 333 20204 58010?EQDQ01  00003PRCP99
0134825780999991992070100004-05083-042817FM-12+009099999V0209991C00001012001CN9999999N9+02681+02281101271ADDAA106000091AG14000GF106991061081008001021001KA1999M+03681MA1999999100251MD1999999+0121REMSYN017 333 10368 58012?EQDQ01  00003PRCP99
0150825780999991992070112004-05083-042817FM-12+009099999V0201401N00151220001CN0040001N9+02951+02191101501ADDAA106000091AG14000GA1001+999999999GF100991001001999999001001KA1999N+02181MA1999999100481MD1999999-0081REMSYN017 333 20218 59008?EQDQ01  00003PRCP99
0134825780999991992070200004-05083-042817FM-12+009099999V0203201N00051007501CN9999999N9+02601+02141101291ADDAA106000091AG14000GF105991051031008001001001KA1999M+03621MA1999999100271MD1999999+0021REMSYN017 333 10362 58002?EQDQ01  00003PRCP99
0134825780999991992070212004-05083-042817FM-12+009099999V0200501N00151015001CN0040001N9+02441+02251101731ADDAA106000091AG14000GF108991081001017501021999KA1999N+02111MA1999999100701MD1999999+0221REMSYN017 333 20211 58022?EQDQ01  00003PRCP99
0162825780999991992070312004-05083-042817FM-12+009099999V0200501N00051007501CN0040001N9+02601+02401101621ADDAA124010091AG10005AY161999AY201999GF106991061031008001001001KA1999N+02121MA1999999100591MD1999999-0121MW1011REMSYN023 333 20212 59012 60104?EQDQ01  01003PRCP99
0134825780999991992070400004-05083-042817FM-12+009099999V0202301N00101007501CN9999999N9+02511+02291101341ADDAA106000091AG14000GF105991051021008001001001KA1999M+03391MA1999999100311MD1999999-0141REMSYN017 333 10339 59014?EQDQ01  00003PRCP99
0134825780999991992070412004-05083-042817FM-12+009099999V0201401N00151220001CN0040001N9+02641+02231101761ADDAA106000091AG14000GF103991031021008001001001KA1999N+02081MA1999999100731MD1999999+0151REMSYN017 333 20208 58015?EQDQ01  00003PRCP99
0150825780999991992070500004-05083-042817FM-12+009099999V0202701N00051220001CN9999999N9+02421+02091101471ADDAA106000091AG14000GA1001+999999999GF100991001001999999001001KA1999M+03381MA1999999100441MD1999999+0131REMSYN017 333 10338 58013?EQDQ01  00003PRCP99
0134825780999991992070512004-05083-042817FM-12+009099999V0209991C00001220001CN0040001N9+02551+02191101651ADDAA106000091AG14000GF101991011011008001001001KA1999N+01881MA1999999100621MD1999999-0111REMSYN017 333 20188 59011?EQDQ01  00003PRCP99
0134825780999991992070612004-05083-042817FM-12+009099999V0201801N00051012001CN0040001N9+02551+02251101621ADDAA106000091AG14000GF108991081081008001999999KA1999N+02151MA1999999100601MD1999999-0021REMSYN017 333 20215 59002?EQDQ01  00003PRCP99
0134825780999991992070712004-05083-042817FM-12+009099999V0201401N00151220001CN0040001N9+02731+02321101691ADDAA106000091AG14000GF101991011001017501041001KA1999N+02141MA1999999100671MD1999999+0071REMSYN017 333 20214 58007?EQDQ01  00003PRCP99
0134825780999991992070812004-05083-042817FM-12+009099999V0200901N00411220001CN0040001N9+02821+02051101691ADDAA106000091AG14000GF101991011011008001001001KA1999N+01901MA1999999100671MD1999999+0001REMSYN017 333 20190 58000?EQDQ01  00003PRCP99
0134825780999991992070900004-05083-042817FM-12+009099999V0201801N00051220001CN9999999N9+02461+02051101411ADDAA106000091AG14000GF102991021011008001001001KA1999M+03441MA1999999100391MD1999999+0031REMSYN017 333 10344 58003?EQDQ01  00003PRCP99
0150825780999991992070912004-05083-042817FM-12+009099999V0201401N00311220001CN0040001N9+02751+01781101701ADDAA106000091AG14000GA1001+999999999GF100991001001999999001001KA1999N+01951MA1999999100681MD1999999+0011REMSYN017 333 20195 58001?EQDQ01  00003PRCP99
0150825780999991992071012004-05083-042817FM-12+009099999V0201401N00211220001CN0040001N9+02671+01711101661ADDAA106000091AG14000GA1001+999999999GF100991001001999999001001KA1999N+02021MA1999999100641MD1999999-0041REMSYN017 333 20202 59004?EQDQ01  00003PRCP99
0150825780999991992071112004-05083-042817FM-12+009099999V0201401N00311220001CN0040001N9+02581+01721101661ADDAA106000091AG14000GA1001+999999999GF100991001001999999001001KA1999N+01781MA1999999100641MD1999999+0001REMSYN017 333 20178 58000?EQDQ01  00003PRCP99
0150825780999991992071212004-05083-042817FM-12+009099999V0201801N00101220001CN0040001N9+02671+02021101671ADDAA106000091AG14000GA1001+999999999GF100991001001999999001001KA1999N+01661MA1999999100651MD1999999-0011REMSYN017 333 20166 59001?EQDQ01  00003PRCP99
0140825780999991992071300004-05083-042817FM-12+009099999V0201401N00051012001CN9999999N9+02521+01931101471ADDAA106001091AG10000GF108991081081008001999999KA1999M+03341MA1999999100451MD1999999+0001REMSYN023 333 10334 58000 60011?EQDQ01  00103PRCP99
0140825780999991992071312004-05083-042817FM-12+009099999V0201401N00151012001CN0040001N9+02501+02311101671ADDAA124001091AG10005GF108991081081008001999999KA1999N+02291MA1999999100641MD1999999-0011REMSYN023 333 20229 59001 60014?EQDQ01  00103PRCP99
0134825780999991992071412004-05083-042817FM-12+009099999V0201801N00101220001CN0040001N9+02601+02191101591ADDAA106000091AG14000GF102991021001017501041001KA1999N+01931MA1999999100561MD1999999-0081REMSYN017 333 20193 59008?EQDQ01  00003PRCP99
0134825780999991992071500004-05083-042817FM-12+009099999V0209991C00001015001CN9999999N9+02441+02071101321ADDAA106000091AG14000GF106991061001017501031001KA1999M+03371MA1999999100301MD1999999-0041REMSYN017 333 10337 59004?EQDQ01  00003PRCP99
0134825780999991992071512004-05083-042817FM-12+009099999V0201401N00211220001CN0040001N9+02571+02171101721ADDAA106000091AG14000GF102991021011008001001001KA1999N+01921MA1999999100691MD1999999+0131REMSYN017 333 20192 58013?EQDQ01  00003PRCP99
0134825780999991992071600004-05083-042817FM-12+009099999V0200901N00051007501CN9999999N9+02601+01991101461ADDAA106000091AG14000GF106991061031008001001001KA1999M+03441MA1999999100441MD1999999+0141REMSYN017 333 10344 58014?EQDQ01  00003PRCP99
0134825780999991992071612004-05083-042817FM-12+009099999V0200901N00051015001CN0040001N9+02551+02131101671ADDAA106000091AG14000GF106991061001017501031001KA1999N+02081MA1999999100641MD1999999-0051REMSYN017 333 20208 59005?EQDQ01  00003PRCP99
0134825780999991992071712004-05083-042817FM-12+009099999V0200901N00151220001CN0040001N9+02721+02241101701ADDAA106000091AG14000GF101991011011008001001001KA1999N+02121MA1999999100681MD1999999+0021REMSYN017 333 20212 58002?EQDQ01  00003PRCP99
0134825780999991992071800004-05083-042817FM-12+009099999V0209991C00001007501CN9999999N9+02801+02361101381ADDAA106000091AG14000GF105991051031008001001001KA1999M+03541MA1999999100361MD1999999-0031REMSYN017 333 10354 59003?EQDQ01  00003PRCP99
0134825780999991992072000004-05083-042817FM-12+009099999V0202301N01231220001CN9999999N9+99999+99999101521ADDAA106000091AG14000GF104991041001017501021001KA1999M+03481MA1999999100501MD1999999+0011REMSYN017 333 10348 58001?EQDQ01  00003PRCP99
0150825780999991992072012004-05083-042817FM-12+009099999V0200901N00461220001CN0040001N9+02741+01891101831ADDAA106000091AG14000GA1001+999999999GF100991001001999999001001KA1999N+02101MA1999999100811MD1999999-0041REMSYN017 333 20210 59004?EQDQ01  00003PRCP99
0150825780999991992072112004-05083-042817FM-12+009099999V0201401N00361220001CN0040001N9+02611+01601101781ADDAA106000091AG14000GA1001+999999999GF100991001001999999001001KA1999N+01701MA1999999100751MD1999999-0061REMSYN017 333 20170 59006?EQDQ01  00003PRCP99
0081825780999991992072200004-05083-042817FM-12+009099999V0201801N00051220001CN9999999N9+02011+01441101521ADDAA106000091AG14000GF102991021011008001041001MA1999999100491EQDQ01  00003PRCP99
0097825780999991992072212004-05083-042817FM-12+009099999V0201401N00311220001CN0040001N9+02551+01861101791ADDAA106000091AG14000GA1001+999999999GF100991001001999999001001MA1999999100751EQDQ01  00003PRCP99
0134825780999991992072300004-05083-042817FM-12+009099999V0209991C00001220001CN9999999N9+02711+01691101531ADDAA106000091AG14000GF103991031001008001041001KA1999M+03461MA1999999100501MD1999999+0011REMSYN017 333 10346 58001?EQDQ01  00003PRCP99
0150825780999991992072312004-05083-042817FM-12+009099999V0201401N00051220001CN0040001N9+02571+01971101851ADDAA106000091AG14000GA1001+999999999GF100991001001999999001001KA1999N+01401MA1999999100821MD1999999+0071REMSYN017 333 20140 58007?EQDQ01  00003PRCP99
0134825780999991992072400004-05083-042817FM-12+009099999V0209991C00001220001CN9999999N9+02261+01771101581ADDAA106000091AG14000GF104991041021008001001001KA1999M+03481MA1999999100551MD1999999+0051REMSYN017 333 10348 58005?EQDQ01  00003PRCP99
0134825780999991992072412004-05083-042817FM-12+009099999V0201401N00261220001CN0040001N9+02821+01831101841ADDAA106000091AG14000GF101991011011008001001001KA1999N+01901MA1999999100811MD1999999-0011REMSYN017 333 20190 59001?EQDQ01  00003PRCP99
0150825780999991992072512004-05083-042817FM-12+009099999V0201801N00101220001CN0040001N9+02741+02051101831ADDAA106000091AG14000GA1001+999999999GF100991001001999999001001KA1999N+01921MA1999999100811MD1999999+0001REMSYN017 333 20192 58000?EQDQ01  00003PRCP99
0134825780999991992072600004-05083-042817FM-12+009099999V0209991C00001012001CN9999999N9+02511+01941101461ADDAA106000091AG14000GF106991061081008001001001KA1999M+03461MA1999999100441MD1999999-0031REMSYN017 333 10346 59003?EQDQ01  00003PRCP99
0134825780999991992072612004-05083-042817FM-12+009099999V0201401N00411220001CN0040001N9+02771+01771101781ADDAA106000091AG14000GF101991011011008001001001KA1999N+02001MA1999999100761MD1999999-0051REMSYN017 333 20200 59005?EQDQ01  00003PRCP99
0134825780999991992072712004-05083-042817FM-12+009099999V0201401N00311220001CN0040001N9+02691+01921101831ADDAA106000091AG14000GF101991011011008001001001KA1999N+01921MA1999999100891MD1999999+0041REMSYN017 333 20192 58004?EQDQ01  00003PRCP99
0134825780999991992072812004-05083-042817FM-12+009099999V0201401N00211220001CN0040001N9+02661+01871101531ADDAA106000091AG14000GF102991021011008001001001KA1999N+01921MA1999999100721MD1999999-0081REMSYN017 333 20192 59008?EQDQ01  00003PRCP99
0134825780999991992072900004-05083-042817FM-12+009099999V0202301N00051220001CN9999999N9+02391+01911101401ADDAA106000091AG14000GF103991021011008001001001KA1999M+03451MA1999999100311MD1999999-0121REMSYN017 333 10345 59012?EQDQ01  00003PRCP99
0134825780999991992072912004-05083-042817FM-12+009099999V0201401N00361220001CN0040001N9+02711+01781101661ADDAA106000091AG14000GF101991011001017501041001KA1999N+01831MA1999999100631MD1999999-0091REMSYN017 333 20183 59009?EQDQ01  00003PRCP99
0134825780999991992073000004-05083-042817FM-12+009099999V0201401N00151220001CN9999999N9+02711+01631101361ADDAA106000091AG14000GF103991031021008001001001KA1999M+03461MA1999999100341MD1999999-0031REMSYN017 333 10346 59003?EQDQ01  00003PRCP99
0150825780999991992073012004-05083-042817FM-12+009099999V0201401N00411220001CN0040001N9+02731+01791101651ADDAA106000091AG14000GA1001+999999999GF100991001001999999001001KA1999N+01881MA1999999100631MD1999999+0001REMSYN017 333 20188 58000?EQDQ01  00003PRCP99
0134825780999991992073112004-05083-042817FM-12+009099999V0201401N00311220001CN0040001N9+02851+01791101681ADDAA106000091AG14000GF103991011011008001001001KA1999N+01961MA1999999100661MD1999999+0031REMSYN017 333 20196 58003?EQDQ01  00003PRCP99
0150825780999991992080112004-05083-042817FM-12+009099999V0200901N00211220001CN0040001N9+02841+02041101631ADDAA106000091AG14000GA1001+999999999GF100991001001999999001001KA1999N+02021MA1999999100611MD1999999-0051REMSYN017 333 20202 59005?EQDQ01  00003PRCP99
0134825780999991992080312004-05083-042817FM-12+009099999V0203601N00101220001CN0040001N9+02611+02171101641ADDAA106000091AG14000GF102991021011008001001001KA1999N+02021MA1999999100651MD1999999-0051REMSYN017 333 20202 59005?EQDQ01  00003PRCP99
0134825780999991992080400004-05083-042817FM-12+009099999V0202301N00051220001CN9999999N9+02501+01961101381ADDAA106000091AG14000GF103991031031008001001001KA1999M+03481MA1999999100361MD1999999+0151REMSYN017 333 10348 58015?EQDQ01  00003PRCP99
0134825780999991992080412004-05083-042817FM-12+009099999V0201401N00361220001CN0040001N9+02901+01781101761ADDAA106000091AG14000GF102991021011008001001001KA1999N+02061MA1999999100741MD1999999+0071REMSYN017 333 20206 58007?EQDQ01  00003PRCP99
0134825780999991992080500004-05083-042817FM-12+009099999V0200501N00051220001CN9999999N9+02341+01761101451ADDAA106000091AG14000GF103991031021008001001001KA1999M+03401MA1999999100431MD1999999+0071REMSYN017 333 10340 58007?EQDQ01  00003PRCP99
0150825780999991992080512004-05083-042817FM-12+009099999V0201401N00411220001CN0040001N9+02741+01811101801ADDAA106000091AG14000GA1001+999999999GF100991001001999999001001KA1999N+01701MA1999999100771MD1999999+0031REMSYN017 333 20170 58003?EQDQ01  00003PRCP99
0134825780999991992080600004-05083-042817FM-12+009099999V0209991C00001220001CN9999999N9+02351+01691101381ADDAA106000091AG14000GF102991021011008001001001KA1999M+03481MA1999999100361MD1999999-0071REMSYN017 333 10348 59007?EQDQ01  00003PRCP99
0150825780999991992080612004-05083-042817FM-12+009099999V0201401N00311220001CN0040001N9+02721+01521101791ADDAA106000091AG14000GA1001+999999999GF100991001001999999001001KA1999N+01761MA1999999100761MD1999999-0011REMSYN017 333 20176 59001?EQDQ01  00003PRCP99
0134825780999991992080700004-05083-042817FM-12+009099999V0209991C00001012001CN9999999N9+02611+01651101411ADDAA106000091AG14000GF105991051081008001001001KA1999M+03501MA1999999100421MD1999999+0061REMSYN017 333 10350 58006?EQDQ01  00003PRCP99
0150825780999991992080712004-05083-042817FM-12+009099999V0201401N00261220001CN0040001N9+02891+01781101661ADDAA106000091AG14000GA1001+999999999GF100991001001999999001001KA1999N+02171MA1999999100141MD1999999-0121REMSYN017 333 20217 59012?EQDQ01  00003PRCP99
0150825780999991992080812004-05083-042817FM-12+009099999V0201401N00571220001CN0040001N9+02811+01751101661ADDAA106000091AG14000GA1001+999999999GF100991001001999999001001KA1999N+02211MA1999999100651MD1999999+0011REMSYN017 333 20221 58001?EQDQ01  00003PRCP99
0134825780999991992080900004-05083-042817FM-12+009099999V0209991C000019999999N9999999N9+02381+01891101301ADDAA106000091AG14000GF105991051001008001001001KA1999M+03481MA1999999100281MD1999999-0081REMSYN017 333 10348 59008?EQDQ01  00003PRCP99
0134825780999991992080912004-05083-042817FM-12+009099999V0201401N00151220001CN0040001N9+02771+01531101581ADDAA106000091AG14000GF101991001001999999001011KA1999N+01961MA1999999100561MD1999999-0091REMSYN017 333 20196 59009?EQDQ01  00003PRCP99
0134825780999991992081000004-05083-042817FM-12+009099999V0209991C00001220001CN9999999N9+02431+01741101281ADDAA106000091AG14000GF103991031011008001001001KA1999M+03521MA1999999100261MD1999999-0021REMSYN017 333 10352 59002?EQDQ01  00003PRCP99
0134825780999991992081012004-05083-042817FM-12+009099999V0202301N00261220001CN0040001N9+02761+01561101591ADDAA106000091AG14000GF101991011011008001001001KA1999N+01721MA1999999100671MD1999999+0011REMSYN017 333 20172 58001?EQDQ01  00003PRCP99
0123825780999991992081100004-05083-042817FM-12+009099999V0209991C000019999999N9999999N9+02601+01571101311ADDAG12000GF105991051021999999001001KA1999N+99999MA1999999100291MD1999999+0031REMSYN017 333 21136 58003?EQDQ01 -01362ATMN  
0134825780999991992081112004-05083-042817FM-12+009099999V0201401N00311220001CN0040001N9+02981+01831101691ADDAA106000091AG14000GF101991011011008001001001KA1999N+02041MA1999999100671MD1999999+0101REMSYN017 333 20204 58010?EQDQ01  00003PRCP99
0134825780999991992081200004-05083-042817FM-12+009099999V0200901N00051012001CN9999999N9+02911+02201101411ADDAA106000091AG14000GF106991061081008001001001KA1999M+03681MA1999999100401MD1999999+0111REMSYN017 333 10368 58011?EQDQ01  00003PRCP99
0134825780999991992081212004-05083-042817FM-12+009099999V0201401N00261220001CN0040001N9+02921+02171101721ADDAA106000091AG14000GF101991011011008001001001KA1999N+02021MA1999999100511MD1999999+0041REMSYN017 333 20202 58004?EQDQ01  00003PRCP99
0134825780999991992081300004-05083-042817FM-12+009099999V0200501N00051220001CN9999999N9+02751+01951101371ADDAA106000091AG14000GF104991041001017501031001KA1999M+03641MA1999999100351MD1999999-0051REMSYN017 333 10364 59005?EQDQ01  00003PRCP99
0134825780999991992081312004-05083-042817FM-12+009099999V0201401N00101220001CN0040001N9+02641+02181101711ADDAA106000091AG14000GF102991021011008001001001KA1999N+02061MA1999999100691MD1999999-0021REMSYN017 333 20206 59002?EQDQ01  00003PRCP99
0134825780999991992081412004-05083-042817FM-12+009099999V0200901N00261220001CN0040001N9+02791+02211101681ADDAA106000091AG14000GF103991021011008001041001KA1999N+02361MA1999999100661MD1999999-0031REMSYN017 333 20236 59003?EQDQ01  00003PRCP99
0162825780999991992081512004-05083-042817FM-12+009099999V0200501N00151007501CN0040001N9+02671+02271101681ADDAA124004091AG10000AY121999AY201999GF105991051031008001001001KA1999N+02291MA1999999100661MD1999999+0001MW1211REMSYN023 333 20229 58000 60044?EQDQ01  00403PRCP99
0134825780999991992081700004-05083-042817FM-12+009099999V0200901N00051007501CN9999999N9+02691+02161101181ADDAA106000091AG14000GF105991051031008001001001KA1999M+03601MA1999999100171MD1999999+0061REMSYN017 333 10360 58006?EQDQ01  00003PRCP99
0134825780999991992081712004-05083-042817FM-12+009099999V0200901N00211220001CN0040001N9+02841+01961101611ADDAA106000091AG14000GF102991011011008001001011KA1999N+01991MA1999999100591MD1999999+0011REMSYN017 333 20199 58001?EQDQ01  00003PRCP99
0134825780999991992081800004-05083-042817FM-12+009099999V0200901N00051007501CN9999999N9+02871+01721101361ADDAA106000091AG14000GF105991051031008001001001KA1999M+03721MA1999999100351MD1999999+0191REMSYN017 333 10372 58019?EQDQ01  00003PRCP99
0134825780999991992081812004-05083-042817FM-12+009099999V0201401N00261220001CN0040001N9+02851+01911101731ADDAA106000091AG14000GF102991011011008001001091KA1999N+01671MA1999999100711MD1999999+0121REMSYN017 333 20167 58012?EQDQ01  00003PRCP99
0134825780999991992081900004-05083-042817FM-12+009099999V0200901N00051007501CN9999999N9+02711+01661101431ADDAA106000091AG14000GF105991051021008001001001KA1999M+03621MA1999999100411MD1999999+0061REMSYN017 333 10362 58006?EQDQ01  00003PRCP99
0134825780999991992081912004-05083-042817FM-12+009099999V0200901N00261220001CN0040001N9+02881+01831101651ADDAA106000091AG14000GF101991011011008001001001KA1999N+01901MA1999999100631MD1999999-0081REMSYN017 333 20190 59008?EQDQ01  00003PRCP99
0134825780999991992082000004-05083-042817FM-12+009099999V0200901N00051220001CN9999999N9+02821+02101101371ADDAA106000091AG14000GF103991041021008001001001KA1999M+03621MA1999999100351MD1999999-0061REMSYN017 333 10362 59006?EQDQ01  00003PRCP99
0150825780999991992082012004-05083-042817FM-12+009099999V0201401N00311220001CN0040001N9+02921+01801101681ADDAA106000091AG14000GA1001+999999999GF100991001001999999001001KA1999N+02001MA1999999100661MD1999999+0031REMSYN017 333 20200 58003?EQDQ01  00003PRCP99
0134825780999991992082100004-05083-042817FM-12+009099999V0200901N00051220001CN9999999N9+02511+01711101281ADDAA106000091AG14000GF102991021021008001001001KA1999M+03701MA1999999100271MD1999999-0081REMSYN017 333 10370 59008?EQDQ01  00003PRCP99
0150825780999991992082112004-05083-042817FM-12+009099999V0201401N00261220001CN0040001N9+02871+01721101671ADDAA106000091AG14000GA1001+999999999GF100991001001999999001001KA1999N+01801MA1999999100651MD1999999-0011REMSYN017 333 20180 59001?EQDQ01  00003PRCP99
0134825780999991992082200004-05083-042817FM-12+009099999V0201401N00101220001CN9999999N9+02511+01531101321ADDAA106000091AG14000GF102991011001008001001001KA1999M+03721MA1999999100301MD1999999-0011REMSYN017 333 10372 59001?EQDQ01  00003PRCP99
0150825780999991992082212004-05083-042817FM-12+009099999V0202701N00361220001CN0040001N9+02861+01681101551ADDAA106000091AG14000GA1001+999999999GF100991001001999999001001KA1999N+01771MA1999999100531MD1999999-0131REMSYN017 333 20177 59013?EQDQ01  00003PRCP99
0150825780999991992082312004-05083-042817FM-12+009099999V0202301N00151220001CN0040001N9+02781+01731101621ADDAA106000091AG14000GA1001+999999999GF100991001001999999001001KA1999N+01741MA1999999100601MD1999999+0081REMSYN017 333 20174 58008?EQDQ01  00003PRCP99
0134825780999991992082412004-05083-042817FM-12+009099999V0203201N00101220001CN0040001N9+02811+01951101571ADDAA106000091AG14000GF103991001001999999001061KA1999N+01801MA1999999100551MD1999999-0051REMSYN017 333 20180 59005?EQDQ01  00003PRCP99
0134825780999991992082500004-05083-042817FM-12+009099999V0200901N00261220001CN9999999N9+02401+02031101581ADDAA106000091AG14000GF102991021011008001001001KA1999M+02781MA1999999101051MD1999999+0041REMSYN017 333 10278 58004?EQDQ01  00003PRCP99
0134825780999991992082600004-05083-042817FM-12+009099999V0202701N00051007501CN9999999N9+02771+02141101381ADDAA106000091AG14000GF106991061031008001001001KA1999M+03661MA1999999100361MD1999999+0151REMSYN017 333 10366 58015?EQDQ01  00003PRCP99
0134825780999991992082612004-05083-042817FM-12+009099999V0201401N00151220001CN0040001N9+02811+02151101791ADDAA106000091AG14000GF102991021011008001001001KA1999N+02131MA1999999100771MD1999999+0151REMSYN017 333 20213 58015?EQDQ01  00003PRCP99
0134825780999991992082700004-05083-042817FM-12+009099999V0209991C00001007501CN9999999N9+02681+01941999999ADDAA106000091AG14000GF105991051021008001001001KA1999M+03641MA1999999100311MD1999999-0051REMSYN017 333 10364 59005?EQDQ01  00003PRCP99
0150825780999991992082712004-05083-042817FM-12+009099999V0200901N00311220001CN0040001N9+02861+02111101711ADDAA106000091AG14000GA1001+999999999GF100991001001999999001001KA1999N+02041MA1999999100691MD1999999-0081REMSYN017 333 20204 59008?EQDQ01  00003PRCP99
0134825780999991992082800004-05083-042817FM-12+009099999V0201401N00051007501CN9999999N9+02691+01941101271ADDAA106000091AG14000GF105991051021008001001001KA1999M+03661MA1999999100261MD1999999-0051REMSYN017 333 10366 59005?EQDQ01  00003PRCP99
0134825780999991992082812004-05083-042817FM-12+009099999V0201401N00101220001CN0040001N9+02771+02121101691ADDAA106000091AG14000GF101991011011008001001001KA1999N+02101MA1999999100671MD1999999-0021REMSYN017 333 20210 59002?EQDQ01  00003PRCP99
0134825780999991992082900004-05083-042817FM-12+009099999V0209991C00001007501CN9999999N9+02741+01811101311ADDAA106000091AG14000GF105991051031008001001001KA1999M+03721MA1999999100291MD1999999+0031REMSYN017 333 10372 58003?EQDQ01  00003PRCP99
0134825780999991992083000004-05083-042817FM-12+009099999V0209991C00001007501CN9999999N9+02801+01811101281ADDAA106000091AG14000GF105991051031008001001001KA1999M+03761MA1999999100271MD1999999-0021REMSYN017 333 10376 59002?EQDQ01  00003PRCP99
0134825780999991992083012004-05083-042817FM-12+009099999V0201401N00261220001CN0040001N9+03011+02081101611ADDAA106000091AG14000GF104991041021008001001001KA1999N+02061MA1999999100601MD1999999-0071REMSYN017 333 20206 59007?EQDQ01  00003PRCP99
0134825780999991992083112004-05083-042817FM-12+009099999V0201401N00511220001CN0040001N9+03101+01941101481ADDAA106000091AG14000GF103991031011008001001001KA1999N+02281MA1999999100471MD1999999-0131REMSYN017 333 20228 59013?EQDQ01  00003PRCP99
0134825780999991992090100004-05083-042817FM-12+009099999V0201401N00051007501CN9999999N9+02831+01891101151ADDAA106000091AG14000GF106991061021008001001001KA1999M+03721MA1999999100151MD1999999-0091REMSYN017 333 10372 59009?EQDQ01  00003PRCP99
0134825780999991992090112004-05083-042817FM-12+009099999V0201401N00411220001CN0040001N9+03001+01751101431ADDAA106000091AG14000GF102991011011008001001091KA1999N+02061MA1999999100421MD1999999-0051REMSYN017 333 20206 59005?EQDQ01  00003PRCP99
0134825780999991992090200004-05083-042817FM-12+009099999V0200901N00051007501CN9999999N9+02571+01901101081ADDAA106000091AG14000GF105991051031008001001001KA1999M+03661MA1999999100071MD1999999-0081REMSYN017 333 10366 59008?EQDQ01  00003PRCP99
0134825780999991992090212004-05083-042817FM-12+009099999V0201401N00311220001CN0040001N9+02991+02061101501ADDAA106000091AG14000GF102991031011008001001001KA1999N+02001MA1999999100491MD1999999+0071REMSYN017 333 20200 58007?EQDQ01  00003PRCP99
0134825780999991992090300004-05083-042817FM-12+009099999V0202701N00051220001CN9999999N9+02631+01961101131ADDAA106000091AG14000GF103991031011008001001001KA1999M+03721MA1999999100121MD1999999+0061REMSYN017 333 10372 58006?EQDQ01  00003PRCP99
0150825780999991992090312004-05083-042817FM-12+009099999V0200901N00461220001CN0040001N9+03081+02101101461ADDAA106000091AG14000GA1001+999999999GF100991001001999999001001KA1999N+02041MA1999999100451MD1999999-0041REMSYN017 333 20204 59004?EQDQ01  00003PRCP99
0134825780999991992090412004-05083-042817FM-12+009099999V0200901N00261220001CN0040001N9+03001+02051101381ADDAA106000091AG14000GF101991011011008001001001KA1999N+02021MA1999999100371MD1999999-0081REMSYN017 333 20202 59008?EQDQ01  00003PRCP99
0134825780999991992090600004-05083-042817FM-12+009099999V0209991C00001220001CN9999999N9+02621+01831101111ADDAA106000091AG14000GF104991041021008001001001KA1999M+03761MA1999999100101MD1999999+0041REMSYN017 333 10376 58004?EQDQ01  00003PRCP99
0134825780999991992090612004-05083-042817FM-12+009099999V0201401N00051105001CN0040001N9+02751+02071101381ADDAA106000091AG14000GF106991001001999999001091KA1999N+02061MA1999999100361MD1999999-0041REMSYN017 333 20206 59004?EQDQ01  00003PRCP99
0134825780999991992090700004-05083-042817FM-12+009099999V0200501N00151007501CN9999999N9+02661+02241101041ADDAA106000091AG14000GF106991061031008001001001KA1999M+03781MA1999999100031MD1999999-0071REMSYN017 333 10378 59007?EQDQ01  00003PRCP99
0162825780999991992090712004-05083-042817FM-12+009099999V0200901N00361012001CN0040001N9+02771+02361101541ADDAA124002091AG10006AY161999AY201999GF108991081081008001999999KA1999N+02351MA1999999100521MD1999999+0161MW1011REMSYN023 333 20235 58016 60024?EQDQ01  00203PRCP99
0134825780999991992090800004-05083-042817FM-12+009099999V0209991C00001007501CN9999999N9+02781+02161101081ADDAA106000091AG14000GF106991061021008001001001KA1999M+03761MA1999999100071MD1999999+0041REMSYN017 333 10376 58004?EQDQ01  00003PRCP99
0134825780999991992090812004-05083-042817FM-12+009099999V0200901N00151007501CN0040001N9+02861+02191101481ADDAA106000091AG14000GF107991071021008001001001KA1999N+02531MA1999999100461MD1999999-0061REMSYN017 333 20253 59006?EQDQ01  00003PRCP99
0134825780999991992090900004-05083-042817FM-12+009099999V0200901N00051007501CN9999999N9+02741+02241101071ADDAA106000091AG14000GF106991061041008001001001KA1999M+03721MA1999999100061MD1999999-0011REMSYN017 333 10372 59001?EQDQ01  00003PRCP99
0134825780999991992090912004-05083-042817FM-12+009099999V0200901N00311220001CN0040001N9+02941+02141101451ADDAA106000091AG14000GF101991011011008001001001KA1999N+02231MA1999999100441MD1999999-0021REMSYN017 333 20223 59002?EQDQ01  00003PRCP99
0134825780999991992091012004-05083-042817FM-12+009099999V0200501N04731007501CN0040001N9+02911+02381101651ADDAA106000091AG14000GF106991061041008001001001KA1999N+02411MA1999999100641MD1999999+0201REMSYN017 333 20241 58020?EQDQ01  00003PRCP99
0134825780999991992091100004-05083-042817FM-12+009099999V0202301N00051007501CN9999999N9+03001+02051101291ADDAA106000091AG14000GF106991061041008001001001KA1999M+03721MA1999999100281MD1999999+0141REMSYN017 333 10372 58014?EQDQ01  00003PRCP99
0134825780999991992091112004-05083-042817FM-12+009099999V0202301N00311007501CN0040001N9+02921+99999101531ADDAA106000091AG14000GF107991071071008001001001KA1999N+02291MA1999999100521MD1999999-0121REMSYN017 333 20229 59012?EQDQ01  00003PRCP99
0134825780999991992091212004-05083-042817FM-12+009099999V0201401N00311220001CN0040001N9+02961+01991101511ADDAA106000091AG14000GF101991011011008001001001KA1999N+01121MA1999999100501MD1999999-0021REMSYN017 333 20112 59002?EQDQ01  00003PRCP99
0134825780999991992091400004-05083-042817FM-12+009099999V0200901N00101007501CN9999999N9+02711+01751100931ADDAA106000091AG14000GF105991051031008001001001KA1999M+03731MA1999999099921MD1999999-0131REMSYN017 333 10373 59013?EQDQ01  00003PRCP99
0134825780999991992091512004-05083-042817FM-12+009099999V0201401N00361007501CN0040001N9+03001+02051101391ADDAA106000091AG14000GF105991051011008001001001KA1999N+02121MA1999999100381MD1999999+0171REMSYN017 333 20212 58017?EQDQ01  00003PRCP99
0134825780999991992091612004-05083-042817FM-12+009099999V0200901N00511220001CN0040001N9+03101+02261101351ADDAA106000091AG14000GF103991031011008001001001KA1999N+02101MA1999999100341MD1999999-0041REMSYN017 333 20210 59004?EQDQ01  00003PRCP99
0134825780999991992091700004-05083-042817FM-12+009099999V0200901N00101220001CN9999999N9+02941+01941101131ADDAA106000091AG14000GF104991041021008001001001KA1999M+03741MA1999999100121MD1999999+0021REMSYN017 333 10374 58002?EQDQ01  00003PRCP99
0134825780999991992091712004-05083-042817FM-12+009099999V0200901N00361007501CN0040001N9+02981+01981101291ADDAA106000091AG14000GF105991051011008001001001KA1999N+02101MA1999999100281MD1999999-0061REMSYN017 333 20210 59006?EQDQ01  00003PRCP99
0134825780999991992091812004-05083-042817FM-12+009099999V0201401N00151220001CN0040001N9+03001+02371101231ADDAA106000091AG14000GF101991011011008001001001KA1999N+02281MA1999999100251MD1999999-0091REMSYN017 333 20228 59009?EQDQ01  00003PRCP99
0134825780999991992092000004-05083-042817FM-12+009099999V0202301N00101012001CN9999999N9+02871+02141101061ADDAA106000091AG14000GF108991081081008001999999KA1999M+03781MA1999999100051MD1999999+0101REMSYN017 333 10378 58010?EQDQ01  00003PRCP99
0134825780999991992092012004-05083-042817FM-12+009099999V0200901N00261007501CN0600001N9+02881+02231101411ADDAA106000091AG14000GF107991071051008001001001KA1999N+02441MA1999999100401MD1999999+0001REMSYN017 333 20244 58000?EQDQ01  00003PRCP99
0134825780999991992092100004-05083-042817FM-12+009099999V0209991C000019999999N9999999N9+02961+02161100101ADDAA106000091AG14000GF107991071001008001001001KA1999M+03731MA1999999100101MD1999999+0051REMSYN017 333 10373 58005?EQDQ01  00003PRCP99
0150825780999991992092112004-05083-042817FM-12+009099999V0201401N00261220001CN0040001N9+02041+99999101381ADDAA106000091AG14000GF103991031011008001001001KA1999N+99999MA1999999100371MD1999999-0031REMSYN017 333 20216 59003?EQDQ01  00003PRCP99Q02 +02162ATMN  
0134825780999991992092312004-05083-042817FM-12+009099999V0200901N00101007501CN9999999N9+02811+01901101011ADDAA106000091AG14000GF106991061021008001001001KA1999M+03721MA1999999100101MD1999999+0021REMSYN017 333 10372 58002?EQDQ01  00003PRCP99
0134825780999991992092612004-05083-042817FM-12+009099999V0201401N00261220001CN0040001N9+03031+02031101251ADDAA106000091AG14000GF102991021011008001001001KA1999N+02241MA1999999100231MD1999999-0031REMSYN017 333 20224 59003?EQDQ01  00003PRCP99
0100825780999991992092706004-05083-042817FM-12+009099999V0209991C00001220001CN0200001N9+02641+02161101021ADDAA106000091AG14000GF104991041051008001001999MD1999999+0101REMSYN011 333 58010?EQDQ01  00003PRCP99
0134825780999991992092712004-05083-042817FM-12+009099999V0200901N00411220001CN0040001N9+02991+01981101431ADDAA106000091AG14000GF102991011011008001001091KA1999N+02161MA1999999100421MD1999999+0171REMSYN017 333 20216 58017?EQDQ01  00003PRCP99
0086825780999991992092721004-05083-042817FM-12+009099999V0209991C00001220001CN0200001N9+03601+01901100801ADDAG12000GA1001+999999999GF100991001001999999001001MD1999999+0061REMSYN011 333 58006?
0150825780999991992092812004-05083-042817FM-12+009099999V0202301N00211220001CN0040001N9+02871+02111101501ADDAA106000091AG14000GA1001+999999999GF100991001001999999001001KA1999N+02041MA1999999100481MD1999999+0061REMSYN017 333 20204 58006?EQDQ01  00003PRCP99
0134825780999991992092912004-05083-042817FM-12+009099999V0201801N00151220001CN0040001N9+02811+02131101511ADDAA106000091AG14000GF104991041011008001001001KA1999N+02181MA1999999100501MD1999999+0021REMSYN017 333 20218 58002?EQDQ01  00003PRCP99
0134825780999991992100112004-05083-042817FM-12+009099999V0201401N00151007501CN0040001N9+02961+02331101431ADDAA106000091AG14000GF106991061021008001001001KA1999N+02161MA1999999100421MD1999999-0091REMSYN017 333 20216 59009?EQDQ01  00003PRCP99
0134825780999991992100312004-05083-042817FM-12+009099999V0200901N00261007501CN0040001N9+02841+02121101231ADDAA106000091AG14000GF107991071031008001001001KA1999N+02401MA1999999100221MD1999999-0021REMSYN017 333 20240 59002?EQDQ01  00003PRCP99
0134825780999991992100612004-05083-042817FM-12+009099999V0201401N00461007501CN0040001N9+03011+02001101451ADDAA106000091AG14000GF106991061021008001001001KA1999N+02191MA1999999100441MD1999999+0121REMSYN017 333 20219 58012?EQDQ01  00003PRCP99
0134825780999991992100712004-05083-042817FM-12+009099999V0200901N00311220001CN0040001N9+03011+01781101441ADDAA106000091AG14000GF102991001001999999001091KA1999N+02021MA1999999100431MD1999999-0011REMSYN017 333 20202 59001?EQDQ01  00003PRCP99
0159825780999991992100812004-05083-042817FM-12+009099999V0201401N00151220001CN0040001N9+02931+99999101441ADDAA106000091AG14000GA1021+135009009GF199999001001999999001999MA1999999100431MD1999999+0001REMSYN023 333 2/2/1 58000 82583?EQDQ01    003SCOTCVQ02    003SCOHCG
0134825780999991992101012004-05083-042817FM-12+009099999V0202301N00151007501CN0040001N9+02721+02151101601ADDAA106000091AG14000GF105991051011008001001001KA1999N+02291MA1999999100581MD1999999+0061REMSYN017 333 20229 58006?EQDQ01  00003PRCP99
0134825780999991992101212004-05083-042817FM-12+009099999V0200901N00151220001CN0040001N9+03011+02191101331ADDAA106000091AG14000GF101991011011008001001001KA1999N+02281MA1999999100321MD1999999-0121REMSYN017 333 20228 59012?EQDQ01  00003PRCP99
0134825780999991992101312004-05083-042817FM-12+009099999V0201401N00361220001CN0040001N9+03081+02111101431ADDAA106000091AG14000GF101991011011008001001001KA1999N+02301MA1999999100421MD1999999+0101REMSYN017 333 20230 58010?EQDQ01  00003PRCP99
0134825780999991992101512004-05083-042817FM-12+009099999V0200901N00211220001CN0040001N9+02911+01781101571ADDAA106000091AG14000GF101991011011008001001001KA1999N+02161MA1999999100561MD1999999+0081REMSYN017 333 20216 58008?EQDQ01  00003PRCP99
0082825780999991992101812004-05083-042817FM-12+009099999V0201401N00411220001CN0040001N9+03091+01821999999ADDAA106000091AG14000GA1001+999999999GF100991001001999999001001EQDQ01  00003PRCP99
0143825780999991992102012004-05083-042817FM-12+009099999V0201401N00261220001CN0040001N9+02991+02121999999ADDAA106000091AG14000GF101991011011008001001001KA1999N+02291MA1999999100421MD1999999+0071ME1100439REMSYN017 333 20229 58007?EQDQ01  00003PRCP99
0134825780999991992102112004-05083-042817FM-12+009099999V0200901N00261007501CN0040001N9+02981+02151101361ADDAA106000091AG14000GF107991071041008001001001KA1999N+02551MA1999999100361MD1999999-0061REMSYN017 333 20255 59006?EQDQ01  00003PRCP99
0134825780999991992102712004-05083-042817FM-12+009099999V0209991C00001007501CN0040001N9+02771+02161101371ADDAA106000091AG14000GF108991081071008001999999KA1999N+02431MA1999999100361MD1999999-0091REMSYN017 333 20243 59009?EQDQ01  00003PRCP99
0134825780999991992102812004-05083-042817FM-12+009099999V0200901N00311007501CN0040001N9+02961+02211101271ADDAA106000091AG14000GF106991061071008001001001KA1999N+02401MA1999999100261MD1999999-0101REMSYN017 333 20240 59010?EQDQ01  00003PRCP99
0134825780999991992110212004-05083-042817FM-12+009099999V0200501N001019999999N0040001N9+02821+02051101211ADDAA106000091AG14000GF108991081001008001051001KA1999N+02331MA1999999100201MD1999999+0031REMSYN017 333 20233 58003?EQDQ01  00003PRCP99
0134825780999991992110312004-05083-042817FM-12+009099999V0200901N00361220001CN0040001N9+03031+01921101231ADDAA106000091AG14000GF105991031011008001001011KA1999N+02331MA1999999100231MD1999999+0031REMSYN017 333 20233 58003?EQDQ01  00003PRCP99
0134825780999991992110512004-05083-042817FM-12+009099999V0200901N00151220001CN0040001N9+03011+02111101091ADDAA106000091AG14000GF102991011011008001001011KA1999N+02231MA1999999100091MD1999999-0051REMSYN017 333 20223 59005?EQDQ01  00003PRCP99
0134825780999991992110912004-05083-042817FM-12+009099999V0201801N00151220001CN0040001N9+02981+02331101381ADDAA106000091AG14000GF101991011011008001001001KA1999N+02201MA1999999100371MD1999999+0091REMSYN017 333 20220 58009?EQDQ01  00003PRCP99
0134825780999991992111012004-05083-042817FM-12+009099999V0201401N00211220001CN0040001N9+02911+02251101781ADDAA106000091AG14000GF103991031021008001001001KA1999N+02361MA1999999100371MD1999999+0001REMSYN017 333 20236 58000?EQDQ01  00003PRCP99
0134825780999991992111112004-05083-042817FM-12+009099999V0201401N00151007501CN0040001N9+02901+02271101271ADDAA106000091AG14000GF107991071071008001001001KA1999N+02521MA1999999100261MD1999999-0111REMSYN017 333 20252 59011?EQDQ01  00003PRCP99
0134825780999991992111612004-05083-042817FM-12+009099999V0200901N00211007501CN0040001N9+03001+02171101251ADDAA106000091AG14000GF105991051021008001001001KA1999N+02281MA1999999100251MD1999999+0051REMSYN017 333 20228 58005?EQDQ01  00003PRCP99
0134825780999991992111812004-05083-042817FM-12+009099999V0200901N00361007501CN0040001N9+03021+02131101151ADDAA106000091AG14000GF106991061011008001001001KA1999N+02381MA1999999100151MD1999999+0041REMSYN017 333 20238 58004?EQDQ01  00003PRCP99
0134825780999991992112012004-05083-042817FM-12+009099999V0201801N00151007501CN0040001N9+02951+02191101341ADDAA106000091AG14000GF106991061071008001001001KA1999N+02581MA1999999100341MD1999999+0091REMSYN017 333 20258 58009?EQDQ01  00003PRCP99
0134825780999991992112212004-05083-042817FM-12+009099999V0201401N00411220001CN0040001N9+03211+02091101081ADDAA106000091AG14000GF106991011011008001001061KA1999N+02341MA1999999100081MD1999999-0221REMSYN017 333 20234 59022?EQDQ01  00003PRCP99
0135825780999991992112512004-05083-042817FM-12+009099999V0200901N00211105001CN0040001N9+02141+01211101131ADDAA106000091AG14000GF108991021011008001001091KA1999N+99999MD1999999-0011REMSYN017 333 20240 59001?EQDQ01  00003PRCP99Q02 +02402ATMN  
0134825780999991992112612004-05083-042817FM-12+009099999V0200901N00411220001CN0040001N9+03141+02071101211ADDAA106000091AG14000GF103991031011008001001001KA1999N+02361MA1999999100211MD1999999+0081REMSYN017 333 20236 58008?EQDQ01  00003PRCP99
0134825780999991992112712004-05083-042817FM-12+009099999V0209991C00001220001CN9999999N9+02891+01971100651ADDAA106000091AG14000GF104991041021008001001001KA1999M+03841MA1999999099651MD1999999-0221REMSYN017 333 10384 59022?EQDQ01  00003PRCP99
0134825780999991992112912004-05083-042817FM-12+009099999V0203601N00261105001CN0040001N9+02851+02191101181ADDAA106000091AG14000GF107991041071008001001061KA1999N+02521MA1999999100171MD1999999+0071REMSYN017 333 20252 58007?EQDQ01  00003PRCP99
0132825780999991992113012004-05083-042817FM-12+009099999V0203601N00211007501CN0040001N9+02691+02351101241ADDAA106000091AA224004091AG10007GF108991081071008001999999KA1999N+02331MA1999999100221MD1999999+0051REMSYN023 333 20233 58005 60044?
0140825780999991992120112004-05083-042817FM-12+009099999V0201401N00211220001CN0040001N9+02861+02231101241ADDAA124001091AG10006GF103991081021008001001091KA1999N+02161MA1999999100221MD1999999+0001REMSYN023 333 20216 58000 60014?EQDQ01  00103PRCP99
0150825780999991992120212004-05083-042817FM-12+009099999V0201401N00151220001CN0040001N9+03101+02121101271ADDAA106000091AG14000GA1001+999999999GF100991001001999999001001KA1999N+02381MA1999999100261MD1999999+0041REMSYN017 333 20238 58004?EQDQ01  00003PRCP99
0134825780999991992120312004-05083-042817FM-12+009099999V0201401N00101105001CN0040001N9+03141+02131101311ADDAA106000091AG14000GF107991011011008001001061KA1999N+02421MA1999999100311MD1999999+0051REMSYN017 333 20242 58005?EQDQ01  00003PRCP99
0134825780999991992120712004-05083-042817FM-12+009099999V0200901N00151007501CN0040001N9+02781+02341101401ADDAA106000091AG14000GF108991061071008001021999KA1999N+02481MA1999999100391MD1999999+0111REMSYN017 333 20248 58011?EQDQ01  00003PRCP99
0134825780999991992120912004-05083-042817FM-12+009099999V0200501N002619999999N0040001N9+02771+02161101181ADDAA106000091AG14000GF106991061001008001051001KA1999N+02441MA1999999100171MD1999999-0101REMSYN017 333 20244 59010?EQDQ01  00003PRCP99
0162825780999991992121612004-05083-042817FM-12+009099999V0209999999999220001CN0040001N9+02981+02091101291ADDAA124011091AG10006AY161999AY201999GF103991011011008001031001KA1999N+02341MA1999999100281MD1999999+0071MW1011REMSYN023 333 20234 58007 60114?EQDQ01  01103PRCP99
0134825780999991992121712004-05083-042817FM-12+009099999V0209999999999220001CN0040001N9+03061+02221101191ADDAA106000091AG14000GF101991011011008001001001KA1999N+02301MA1999999100181MD1999999-0101REMSYN017 333 20230 59010?EQDQ01  00003PRCP99
0134825780999991992121812004-05083-042817FM-12+009099999V0209999999999220001CN0040001N9+03021+02071101241ADDAA106000091AG14000GF101991011011008001001001KA1999N+02381MA1999999100241MD1999999+0061REMSYN017 333 20238 58006?EQDQ01  00003PRCP99
0150825780999991992121912004-05083-042817FM-12+009099999V0209999999999220001CN0040001N9+03041+02001101061ADDAA106000091AG14000GA1001+999999999GF100991001001999999001001KA1999N+02261MA1999999100061MD1999999-0181REMSYN017 333 20226 59018?EQDQ01  00003PRCP99
0134825780999991992122212004-05083-042817FM-12+009099999V0209999999999045001CN0040001N9+03001+02051101231ADDAA106000091AG14000GF108991021011008001021061KA1999N+02421MA1999999100231MD1999999+0091REMSYN017 333 20242 58009?EQDQ01  00003PRCP99
0134825780999991992122312004-05083-042817FM-12+009099999V0209999999999105001CN0040001N9+03001+01971101311ADDAA106000091AG14000GF105991021011008001001031KA1999N+02281MA1999999100311MD1999999+0081REMSYN017 333 20228 58008?EQDQ01  00003PRCP99
0134825780999991992122512004-05083-042817FM-12+009099999V02099999999999999999N0040001N9+03001+02101101231ADDAA106000091AG14000GF106991031021008001001001KA1999N+02401MA1999999100231MD1999999-0021REMSYN017 333 20240 59002?EQDQ01  00003PRCP99
0081825780999991992122712004-05083-042817FM-12+009099999V0209999999999045001CN0040001N9+02881+02161101211ADDAA106000091AG14000GF107991021011008001031001MA1999999100201EQDQ01  00003PRCP99
0134825780999991992122812004-05083-042817FM-12+009099999V0209999999999045001CN0040001N9+02961+02151101191ADDAA106000091AG14000GF106991031011008001041001KA1999N+02471MA1999999100191MD1999999-0011REMSYN017 333 20247 59001?EQDQ01  00003PRCP99
