0070825830999991992062715004-05167-040667FM-12+029999999V0200501N002119999999N9999999N9+02421+01401101721ADDAG12000GF106991031011999999001011MD1999999-0121REMSYN011 333 59012?
0112825830999991992083006004-05167-040667FM-12+029999999V0202101N05401004201CN0080001N9+01121+01031999999ADDAA199007091AG10005AY161999AY221999GA1071+004209059KA1999N+00861MD1310091+9999MW1611REMSYN017 333 20086 87614?
0100825830999991992090303004-05167-040667FM-12+029999999V0201401N00211045001CN0200001N9+02021+01301101451ADDAA106000091AG14000GF106991061001999999031001MD1999999-0041REMSYN011 333 59004?EQDQ01  00003PRCP99
0115825830999991992092818004-05167-040667FM-12+029999999V0200901N00411220001CN0500001N9+03531+99999100941ADDAA106000091AG14000GF102991021011008001001001MA1999999098421MD1999999-0141REMSYN011 333 59014?EQDQ01  00003PRCP99
0101825830999991992111400004-05167-040667FM-12+029999999V0201801N00051004801CN0500001N9-00701-00871102551ADDAG12000GA1071+004809059GF107991081091004501001001MA1999999101721MD1210011+9999REMSYN011 333 87616?
0100825830999991992111603004-05167-040667FM-12+029999999V0209991C00001220001CN0200001N9+02251+01701101031ADDAA106000091AG14000GF103991031001999999031001MD1999999+0011REMSYN011 333 58001?EQDQ01  00003PRCP99
