0134827650999991992010100004-07333-047467FM-12+021299999V0201401N00151220001CN0200001N9+02601+02391101211ADDAA106000091AG14000GF100991001001999999001001KA1999M+03161MA1999999098811MD1999999-0131REMSYN017333   10316 59013EQDQ01  00003PRCP99
0134827650999991992010112004-07333-047467FM-12+021299999V0203601N00101012001CN0200001N9+02561+02361101491ADDAA106000091AG14000GF106991061081008001001001KA1999N+02291MA1999999099091MD1999999-0111REMSYN017333   20229 59011EQDQ01  00003PRCP99
0115827650999991992010118004-07333-047467FM-12+021299999V0202701N00151220001CN0200001N9+03121+02191101031ADDAA106000091AG14000GF104991021021008001031011MA1999999098651MD1999999-0081REMSYN011333   59008EQDQ01  00003PRCP99
0134827650999991992010200004-07333-047467FM-12+021299999V0201401N00101220001CN0200001N9+02741+02261101081ADDAA106000091AG14000GF100991001001999999001001KA1999M+03181MA1999999098691MD1999999-0121REMSYN017333   10318 59012EQDQ01  00003PRCP99
0162827650999991992010212004-07333-047467FM-12+021299999V0202301N00101007501CN0200001N9+02591+02271101301ADDAA124000391AG19006AY161999AY221999GF107991051011008001031001KA1999N+02341MA1999999098911MD1999999-0181MW1031REMSYN023333   20234 59018 69934EQDQ01  00033PRCP99
0115827650999991992010218004-07333-047467FM-12+021299999V0203201N00151012001CN0200001N9+03051+02311100901ADDAA106000091AG14000GF107991051081008001021001MA1999999098521MD1999999-0131REMSYN011333   59013EQDQ01  00003PRCP99
0138827650999991992010312004-07333-047467FM-12+021299999V0202701N00051045001CN0200001N9+02431+02161101481ADDAA124000491AA299000591AG10003GF108991011011008001011999KA1999N+02171MA1999999099061MD1999999+0151MW1211REMSYN023333   20217 58015 69944
0137827650999991992010318004-07333-047467FM-12+021299999V0200901N00101007501CN0200001N9+03221+02171101101ADDAA106000091AG14023AY191999AY221999GF105991051031008001001001MA1999999098721MD1999999+0201MW1291REMSYN011333   58020EQDQ01  00003PRCP99
0154827650999991992010400004-07333-047467FM-12+021299999V0203201N00211012001CN0200001N9+02321+02091101281ADDAA106000291AA299000391AG19019AY191999AY251999GF105991051081008001001001KA1999M+03221MA1999999098861MD1999999+0201MW1021REMSYN023333   10322 58020 69921
0154827650999991992010412004-07333-047467FM-12+021299999V0200601N00311220001CN0200001N9+02581+02171101511ADDAA124000691AA299000591AG10019AY191999AY251999GF102991021011008001001001KA1999N+02601MA1999999099091MD1999999+0031MW1021REMSYN023333   20260 58003 69964
0115827650999991992010418004-07333-047467FM-12+021299999V0202301N00151007501CN0200001N9+03201+02181100152ADDAA106000091AG14000GF105991051021008001001001MA1999999098671MD1999999-0051REMSYN011333   59005EQDQ01  00003PRCP99
0134827650999991992010500004-07333-047467FM-12+021299999V0203601N00101220001CN0200001N9+02721+02321101111ADDAA106000091AG14000GF100991001001999999001001KA1999M+03321MA1999999098721MD1999999-0151REMSYN017333   10332 59015EQDQ01  00003PRCP99
0134827650999991992010512004-07333-047467FM-12+021299999V0200501N00211012001CN0200001N9+02721+02321101401ADDAA106000091AG14000GF107991051081008001041001KA1999N+02271MA1999999099011MD1999999-0081REMSYN017333   20227 59008EQDQ01  00003PRCP99
0115827650999991992010518004-07333-047467FM-12+021299999V0202701N00151045001CN0200001N9+03341+02221100931ADDAA106000091AG14000GF105991041021008001041001MA1999999098571MD1999999-0101REMSYN011333   59010EQDQ01  00003PRCP99
0134827650999991992010600004-07333-047467FM-12+021299999V0203201N00051220001CN0200001N9+01881+01391100981ADDAA106000091AG14000GF100991001001999999001001KA1999M+03421MA1999999098611MD1999999-0111REMSYN017333   10342 59011EQDQ01  00003PRCP99
0134827650999991992010612004-07333-047467FM-12+021299999V0203601N00311007501CN0040001N9+02791+02301101301ADDAA106000091AG14000GF106991061021008001001001KA1999N+02321MA1999999098931MD1999999-0081REMSYN017333   20232 59008EQDQ01  00003PRCP99
0137827650999991992010618004-07333-047467FM-12+021299999V0203601N00311220001CN0100001N9+03311+02121100861ADDAA106000091AG10000AY121999AY221999GF103991031011008001001001MA1999999098501MD1999999-0071MW1051REMSYN011333   59007EQDQ01  00003PRCP99
0162827650999991992010712004-07333-047467FM-12+021299999V0200501N00151007501CN0200001N9+02441+02391101321ADDAA124003091AG19011AY161999AY221999GF108991081091008001999999KA1999N+02411MA1999999098921MD1999999-0011MW1291REMSYN023333   20241 59001 60034EQDQ01  00303PRCP99
0143827650999991992010718004-07333-047467FM-12+021299999V0201801N00261015001CN0010001N9+02401+02371101191ADDAA106003091AG19008AY161999AY221999GF108991081001017501021999MA1999999098791MD1999999+0291MW1531REMSYN017333   58029 60031EQDQ01  00303PRCP99
0162827650999991992010800004-07333-047467FM-12+021299999V0201801N00051045001CN0200001N9+02341+02311101321ADDAA106001091AG19006AY161999AY251999GF108991041071004501021999KA1999M+02721MA1999999098901MD1999999+0201MW1001REMSYN023333   10272 58020 69981EQDQ01  00103PRCP99
0162827650999991992010812004-07333-047467FM-12+021299999V0200501N00101007501CN0200001N9+02341+02221101431ADDAA124003091AG10001AY151999AY221999GF108991081051008001999999KA1999N+02271MA1999999099011MD1999999+0091MW1001REMSYN023333   20227 58009 60034EQDQ01  00303PRCP99
0143827650999991992010818004-07333-047467FM-12+021299999V0200901N00261012001CN0200001N9+02401+02371101261ADDAA106001091AG19006AY161999AY251999GF108991081081008001999999MA1999999098841MD1999999+0051MW1031REMSYN017333   58005 60011EQDQ01  00103PRCP99
0134827650999991992010900004-07333-047467FM-12+021299999V0200901N00101012001CN0200001N9+02281+02161101181ADDAA106000091AG14000GF108991081081008001999999KA1999M+02401MA1999999098761MD1999999-0141REMSYN017333   10240 59014EQDQ01  00003PRCP99
0140827650999991992010912004-07333-047467FM-12+021299999V0200901N00101012001CN0200001N9+02401+02311101501ADDAA124001091AG10000GF108991081081008001999999KA1999N+02151MA1999999099071MD1999999+0061REMSYN023333   20215 58006 60014EQDQ01  00103PRCP99
0121827650999991992010918004-07333-047467FM-12+021299999V0200501N00311012001CN0100001N9+03081+02131101051ADDAA106000091AG15002GF108991061081008001041999MA1999999098671MD1999999-0171MW1151REMSYN011333   59017EQDQ01  00003PRCP99
0156827650999991992011000004-07333-047467FM-12+021299999V0200501N00101007501CN0100001N9+02501+02411101221ADDAA106000091AG14019AY191999AY221999GF108991081051008001999999KA1999M+03151MA1999999098811MD1999999+0051MW1001REMSYN017333   10315 58005EQDQ01  00003PRCP99
0172827650999991992011012004-07333-047467FM-12+021299999V0200501N00261004201CN0100001N9+02471+02301101461ADDAA106999999AG14001AY121999AY221999GF108991081051004501999999KA1999N+02321MA1999999099051MD1999999-0021MW1501REMSYN017333   20232 59002EQDQ01  00003PRCP99Q02  00002PRCP06
0143827650999991992011018004-07333-047467FM-12+021299999V0203201N00211007501CN0200001N9+03101+02181100951ADDAA106003091AG19006AY161999AY261999GF107991051011008001031001MA1999999098581MD1999999-0091MW1031REMSYN017333   59009 60031EQDQ01  00303PRCP99
0134827650999991992011100004-07333-047467FM-12+021299999V0200901N00051007501CN0200001N9+02601+02391101211ADDAA106000091AG14000GF108991051021008001021999KA1999M+03131MA1999999098811MD1999999+0001REMSYN017333   10313 58000EQDQ01  00003PRCP99
0140827650999991992011112004-07333-047467FM-12+021299999V0200501N00101012001CN0200001N9+02561+02311101341ADDAA124003091AG10000GF108991081081008001999999KA1999N+02441MA1999999099931MD1999999-0121REMSYN023333   20244 59012 60034EQDQ01  00303PRCP99
0143827650999991992011118004-07333-047467FM-12+021299999V0203201N00211045001CN0200001N9+02781+02321100941ADDAA106003091AG10006AY161999AY221999GF107991011011008001021001MA1999999098562MD1999999-0021MW1021REMSYN017333   59002 60031EQDQ01  00303PRCP99
0162827650999991992011212004-07333-047467FM-12+021299999V0202701N00051045001CN0200001N9+02401+02301101401ADDAA124023091AG19020AY191999AY261999GF108991011071008001011999KA1999N+02211MA1999999098991MD1999999+0061MW1201REMSYN023333   20221 58006 60234EQDQ01  02303PRCP99
0115827650999991992011218004-07333-047467FM-12+021299999V0203601N00151220001CN0200001N9+02981+02201100951ADDAA106000091AG14000GF106991041021008001001011MA1999999098561MD1999999+0001REMSYN011333   58000EQDQ01  00003PRCP99
0134827650999991992011300004-07333-047467FM-12+021299999V0201801N00151007501CN0200001N9+02541+02251101111ADDAA106000091AG14000GF106991061021008001001001KA1999M+03101MA1999999098701MD1999999-0121REMSYN017333   10310 59012EQDQ01  00003PRCP99
0134827650999991992011400004-07333-047467FM-12+021299999V0201401N00101045001CN0200001N9+02501+02361100981ADDAA106000091AG14000GF108991021071008001011999KA1999M+02981MA1999999098591MD1999999-0111REMSYN017333   10298 59011EQDQ01  00003PRCP99
0143827650999991992011418004-07333-047467FM-12+021299999V0202701N00101012001CN0200001N9+02531+02191101071ADDAA106024091AG19006AY161999AY221999GF108991051081008001021999MA1999999098661MD1999999+0221MW1021REMSYN017333   58022 60241EQDQ01  02403PRCP99
0134827650999991992011500004-07333-047467FM-12+021299999V0203201N00101012001CN0200001N9+02361+02261101221ADDAA106000091AG14000GF108991081001012501021999KA1999M+02541MA1999999098801MD1999999+0211REMSYN017333   10254 58021EQDQ01  00003PRCP99
0140827650999991992011512004-07333-047467FM-12+021299999V0203601N00101007501CN0200001N9+02341+02261101341ADDAA124024091AG10000GF108991081051008001999999KA1999N+02171MA1999999098921MD1999999-0011REMSYN023333   20217 59001 60244EQDQ01  02403PRCP99
0115827650999991992011518004-07333-047467FM-12+021299999V0201401N00101045001CN0200001N9+02901+02201101021ADDAA106000091AG14000GF108991011011008001021999MA1999999098631MD1999999-0031REMSYN011333   59003EQDQ01  00003PRCP99
0146827650999991992011600004-07333-047467FM-12+021299999V0202701N00311007501CN0010001N9+02421+02331101321ADDAA106003091AG19021GF108991081051008001999999KA1999M+02981MA1999999098901MD1999999+0101MW1631REMSYN023333   10298 58010 60031EQDQ01  00303PRCP99
0162827650999991992011612004-07333-047467FM-12+021299999V0203601N00151007501CN0200001N9+02421+02281101531ADDAA124093091AG10006AY161999AY261999GF108991081051008001999999KA1999N+02151MA1999999099151MD1999999+0231MW1021REMSYN023333   20215 58023 60934EQDQ01  09303PRCP99
0127827650999991992011618004-07333-047467FM-12+021299999V0202701N00101012001CN0200001N9+02421+02191101331ADDAA106012091AG19017GF108991081081008001999999MA1999999098901MD1999999+0271MW1641REMSYN017333   58027 60121EQDQ01  01203PRCP99
0162827650999991992011700004-07333-047467FM-12+021299999V0201401N00101007501CN0200001N9+02341+02221101371ADDAA106005091AG10006AY161999AY261999GF108991081051008001999999KA1999M+02601MA1999999098941MD1999999+0041MW1001REMSYN023333   10260 58004 60051EQDQ01  00503PRCP99
0140827650999991992011712004-07333-047467FM-12+021299999V0200901N00051007501CN0200001N9+02401+02311101601ADDAA124018091AG10000GF108991081051008001999999KA1999N+02251MA1999999099171MD1999999+0021REMSYN023333   20225 58002 60184EQDQ01  01803PRCP99
0115827650999991992011718004-07333-047467FM-12+021299999V0202301N00101012001CN0200001N9+02901+02071101291ADDAA106000091AG14000GF107991051081008001031001MA1999999098891MD1999999-0011REMSYN011333   59001EQDQ01  00003PRCP99
0134827650999991992011800004-07333-047467FM-12+021299999V0200901N00051015001CN0200001N9+02601+02391101391ADDAA106000091AG14000GF107991071001017501031001KA1999M+02961MA1999999098981MD1999999+0041REMSYN017333   10296 58004EQDQ01  00003PRCP99
0134827650999991992011812004-07333-047467FM-12+021299999V0203601N00151012001CN0200001N9+02581+02351101541ADDAA106000091AG14000GF107991071081008001001001KA1999N+02361MA1999999099141MD1999999-0031REMSYN017333   20236 59003EQDQ01  00003PRCP99
0115827650999991992011818004-07333-047467FM-12+021299999V0203601N00211045001CN0200001N9+03191+02221101051ADDAA106000091AG14000GF105991041021008001011001MA1999999098681MD1999999-0211REMSYN011333   59021EQDQ01  00003PRCP99
0134827650999991992011900004-07333-047467FM-12+021299999V0201401N00101012001CN0200001N9+02661+02381101281ADDAA106000091AG14000GF108991081081008001999999KA1999M+03241MA1999999098881MD1999999-0101REMSYN017333   10324 59010EQDQ01  00003PRCP99
0162827650999991992011912004-07333-047467FM-12+021299999V0200501N00101012001CN0200001N9+02521+02381101501ADDAA124002091AG19006AY161999AY251999GF108991081081008001999999KA1999N+02401MA1999999099101MD1999999-0041MW1001REMSYN023333   20240 59004 60024EQDQ01  00203PRCP99
0143827650999991992011918004-07333-047467FM-12+021299999V0203601N00261007501CN0200001N9+02851+02391101051ADDAA106005091AG19006AY161999AY221999GF107991051021008001041021MA1999999098661MD1999999-0021MW1021REMSYN017333   59002 60051EQDQ01  00503PRCP99
0134827650999991992012000004-07333-047467FM-12+021299999V0200901N00051045001CN0200001N9+02601+02331101251ADDAA106000091AG14000GF107991041021008001041011KA1999M+03001MA1999999098851MD1999999-0031REMSYN017333   10300 59003EQDQ01  00003PRCP99
0140827650999991992012012004-07333-047467FM-12+021299999V0203201N00051007501CN0200001N9+02641+02411101441ADDAA124005091AG10000GF108991081021008001011001KA1999N+02431MA1999999099041MD1999999-0061REMSYN023333   20243 59006 60054EQDQ01  00503PRCP99
0115827650999991992012018004-07333-047467FM-12+021299999V0203201N00261007501CN0200001N9+03121+02331101011ADDAA106000091AG14000GF106991061021008001001001MA1999999098641MD1999999-0021REMSYN011333   59002EQDQ01  00003PRCP99
0162827650999991992012100004-07333-047467FM-12+021299999V0201401N00151045001CN0200001N9+02401+02351101301ADDAA106011091AG19006AY161999AY261999GF108991041071008001011999KA1999M+03141MA1999999098891MD1999999+0041MW1001REMSYN023333   10314 58004 60111EQDQ01  01103PRCP99
0162827650999991992012112004-07333-047467FM-12+021299999V0201801N00151007501CN0200001N9+02501+02291101401ADDAA124011091AG10006AY161999AY261999GF108991081051008001999999KA1999N+02351MA1999999099891MD1999999-0041MW1021REMSYN023333   20235 59004 60114EQDQ01  01103PRCP99
0137827650999991992012118004-07333-047467FM-12+021299999V0200501N00361007501CN0200001N9+02701+02221101061ADDAA106018091AG10006AY161999AY251999GF108991081051008001999999MA1999999098662MD1999999+0021REMSYN017333   58002 60181EQDQ01  01803PRCP99
0134827650999991992012200004-07333-047467FM-12+021299999V0201801N00151007501CN0200001N9+02541+02331101231ADDAA106000091AG14000GF108991081051008001999999KA1999M+02741MA1999999098831MD1999999-0061REMSYN017333   10274 59006EQDQ01  00003PRCP99
0140827650999991992012212004-07333-047467FM-12+021299999V0201401N00151004201CN0100001N9+02551+02331101341ADDAA124018091AG10000GF108991081051004501999999KA1999N+02271MA1999999098941MD1999999-0051REMSYN023333   20227 59005 60184EQDQ01  01803PRCP99
0143827650999991992012218004-07333-047467FM-12+021299999V0200501N00151045001CN0200001N9+02581+02291101061ADDAA106018091AG19019AY191999AY261999GF107991041081004501021001MA1999999098661MD1999999+0001MW1031REMSYN017333   58000 60181EQDQ01  01803PRCP99
0134827650999991992012300004-07333-047467FM-12+021299999V0201401N00101007501CN0200001N9+02481+02321101231ADDAA106000091AG14000GF108991051051008001021999KA1999M+02671MA1999999098831MD1999999+0001REMSYN017333   10267 58000EQDQ01  00003PRCP99
0143827650999991992012318004-07333-047467FM-12+021299999V0203201N00211045001CN0100001N9+02401+02311101161ADDAA106016091AG10007AY161999AY261999GF108991021071004501021999MA1999999098751MD1999999+0091MW1511REMSYN017333   58009 60161EQDQ01  01603PRCP99
0154827650999991992012400004-07333-047467FM-12+021299999V0202301N00311045001CN0200001N9+02381+02281101431ADDAA106000291AA299000391AG19001AY151999AY221999GF108991031071004501021999KA1999M+02541MA1999999099021MD1999999+0191MW1001REMSYN023333   10254 58019 69921
0140827650999991992012412004-07333-047467FM-12+021299999V0201401N00101045001CN0200001N9+02361+02191101601ADDAA124016091AG10000GF108991031011008001011999KA1999N+02251MA1999999099171MD1999999+0161REMSYN023333   20225 58016 60164EQDQ01  01603PRCP99
0066827650999991992012418004-07333-047467FM-12+021299999V0201801N001519999999N0200001N9+02741+02101999999ADDAA106000091AG14000GF108991999999008001999999EQDQ01  00003PRCP99
0156827650999991992012512004-07333-047467FM-12+021299999V0203201N00151007501CN0200001N9+02501+02211101511ADDAA124003091AG10006AY161999AY251999GF106991061051008001001001KA1999N+02281MA1999999099101MD1999999-0071REMSYN023333   20228 59007 60034EQDQ01  00303PRCP99
0143827650999991992012518004-07333-047467FM-12+021299999V0203601N00311045001CN0200001N9+02601+02421101131ADDAA106002091AG10003AY101999AY201999GF105991041021008001041001MA1999999098731MD1999999-0051MW1211REMSYN017333   59005 60021EQDQ01  00203PRCP99
0140827650999991992012600004-07333-047467FM-12+021299999V0200501N00101220001CN0200001N9+02461+02371101311ADDAA106000091AG19002GF104991041021008001001001KA1999M+03041MA1999999098901MD1999999-0031MW1131REMSYN017333   10304 59003EQDQ01  00003PRCP99
0140827650999991992012612004-07333-047467FM-12+021299999V0200501N00151045001CN0200001N9+02711+02301101381ADDAA124002091AG10000GF105991031011008001051001KA1999N+02341MA1999999098981MD1999999-0121REMSYN023333   20234 59012 60024EQDQ01  00203PRCP99
0115827650999991992012618004-07333-047467FM-12+021299999V0202301N00311012001CN0200001N9+02791+02421101031ADDAA106000091AG14000GF107991051081008001051001MA1999999098641MD1999999-0091REMSYN011333   59009EQDQ01  00003PRCP99
0154827650999991992012700004-07333-047467FM-12+021299999V0201401N00101012001CN0200001N9+02421+02351101311ADDAA106000491AA299000591AG19008AY161999AY221999GF108991051081008001021999KA1999M+03131MA1999999098911MD1999999+0011MW1131REMSYN023333   10313 58001 69941
0162827650999991992012712004-07333-047467FM-12+021299999V0200501N00311007501CN0200001N9+02561+02291101461ADDAA124009091AG19006AY161999AY261999GF108991081051008001999999KA1999N+02281MA1999999099051MD1999999+0071MW1021REMSYN023333   20228 58007 60094EQDQ01  00903PRCP99
0093827650999991992012718004-07333-047467FM-12+021299999V0203201N00311220001CN0200001N9+02881+02051101041ADDAA106000091AG14000GF106991041051008001001011MA1999999098651REMSYN003333EQDQ01  00003PRCP99
0156827650999991992012800004-07333-047467FM-12+021299999V0203201N00101007501CN0200001N9+02581+02481101241ADDAA106000091AG10002AY121999AY221999GF108991081051008001999999KA1999M+02941MA1999999098841MD1999999-0061MW1131REMSYN017333   10294 59006EQDQ01  00003PRCP99
0140827650999991992012812004-07333-047467FM-12+021299999V0202701N00151045001CN0200001N9+02581+02271101341ADDAA124001091AG10000GF108991041011008001051001KA1999N+02341MA1999999098941MD1999999-0111REMSYN023333   20234 59011 69984EQDQ01  00103PRCP99
0162827650999991992012900004-07333-047467FM-12+021299999V0200501N00101012001CN0200001N9+02401+02311101331ADDAA106001091AG10008AY161999AY221999GF108991081081008001999999KA1999M+03001MA1999999098851MD1999999+0011MW1131REMSYN023333   10300 58001 69981EQDQ01  00103PRCP99
0162827650999991992012912004-07333-047467FM-12+021299999V0203201N00211012001CN0200001N9+02521+02331101411ADDAA124014091AG19006AY161999AY251999GF108991081081008001999999KA1999N+02311MA1999999099001MD1999999+0061MW1021REMSYN023333   20231 58006 60144EQDQ01  01403PRCP99
0115827650999991992012918004-07333-047467FM-12+021299999V0203601N00461045001CN0200001N9+03041+02091100971ADDAA106000091AG14000GF106991041021008001041011MA1999999098601MD1999999+0031REMSYN011333   58003EQDQ01  00003PRCP99
0140827650999991992013000004-07333-047467FM-12+021299999V0209991C00001012001CN0200001N9+02761+02481101191ADDAA106000091AG19002GF108991081081008001999999KA1999M+03101MA1999999098801MD1999999-0051MW1131REMSYN017333   10310 59005EQDQ01  00003PRCP99
0154827650999991992013012004-07333-047467FM-12+021299999V0200501N00051045001CN0200001N9+02351+02071101371ADDAA124000291AA299000391AG10006AY161999AY221999GF108991031011008001021999KA1999N+02181MA1999999098971MD1999999-0031MW1031REMSYN023333   20218 59003 69924
0134827650999991992020100004-07333-047467FM-12+021299999V0202301N00051007501CN0200001N9+02521+02421101331ADDAA106000091AG14000GF108991051021008001021999KA1999M+03081MA1999999098921MD1999999+0031REMSYN017333   10308 58003EQDQ01  00003PRCP99
0143827650999991992020118004-07333-047467FM-12+021299999V0203601N00461007501CN0200001N9+02681+02261101111ADDAA106000191AG10001AY121999AY221999GF107991071021008001001001MA1999999098711MD1999999-0011MW1201REMSYN017333   59001 69911EQDQ01  00013PRCP99
0121827650999991992020212004-07333-047467FM-12+021299999V0200901N00151220001CN0200001N9+02521+02331101521ADDAA199000291AG10000GF107991041051008001001011KA1999N+02311MA1999999099111MD1999999+0011REMSYN023333   20231 58001 69922
0135827650999991992020218004-07333-047467FM-12+021299999V0200901N00101012001CN0200001N9+02881+02211101101ADDAA106000491AA299000591AG10003AY151999AY221999GF107991051081008001041001MA1999999098711MD1999999+0001MW1161REMSYN017333   58000 69941
0156827650999991992020300004-07333-047467FM-12+021299999V0209991C00001007501CN0200001N9+02501+02401101361ADDAA106008091AG10006AY171999AY261999GF108991081051008001999999KA1999M+02901MA1999999098951MD1999999+0051REMSYN023333   10290 58005 60081EQDQ01  00803PRCP99
0162827650999991992020312004-07333-047467FM-12+021299999V0200901N00151045001CN0200001N9+02531+02191101531ADDAA124009091AG10006AY161999AY221999GF105991031011008001041001KA1999N+02161MA1999999099121MD1999999+0011MW1011REMSYN023333   20216 58001 60094EQDQ01  00903PRCP99
0115827650999991992020318004-07333-047467FM-12+021299999V0203601N00211012001CN0200001N9+03221+02261100971ADDAA106000091AG14000GF106991051081008001051001MA1999999098691MD1999999-0111REMSYN011333   59011EQDQ01  00003PRCP99
0162827650999991992020400004-07333-047467FM-12+021299999V0203601N00051004201CN0100001N9+02381+02241101201ADDAA106003091AG10008AY161999AY261999GF108991081071004501999999KA1999M+03241MA1999999098791MD1999999-0161MW1511REMSYN023333   10324 59016 60031EQDQ01  00303PRCP99
0140827650999991992020412004-07333-047467FM-12+021299999V0202701N00051007501CN0200001N9+02601+02331101441ADDAA124003091AG10000GF108991081051008001999999KA1999N+02311MA1999999099031MD1999999-0091REMSYN023333   20231 59009 60034EQDQ01  00303PRCP99
0143827650999991992020418004-07333-047467FM-12+021299999V0200901N00261045001CN0200001N9+02521+02361101091ADDAA106002091AG10003AY121999AY221999GF106991041051008001041001MA1999999098681MD1999999+0081MW1211REMSYN017333   58008 60021EQDQ01  00203PRCP99
0156827650999991992020500004-07333-047467FM-12+021299999V0202301N00101007501CN0200001N9+02581+02491101151ADDAA106000091AG10002AY121999AY221999GF108991061051008001001001KA1999M+03041MA1999999098761MD1999999-0031MW1131REMSYN017333   10304 59003EQDQ01  00003PRCP99
0140827650999991992020512004-07333-047467FM-12+021299999V0200501N00151012001CN0200001N9+02641+02371101341ADDAA124002091AG10000GF107991071081008001001001KA1999N+02411MA1999999098941MD1999999-0091REMSYN023333   20241 59009 60024EQDQ01  00203PRCP99
0115827650999991992020518004-07333-047467FM-12+021299999V0200501N00461045001CN0200001N9+03161+02291101111ADDAA106000091AG14000GF107991041021008001031001MA1999999098741MD1999999+0061REMSYN011333   58006EQDQ01  00003PRCP99
0134827650999991992020612004-07333-047467FM-12+021299999V0201401N00151045001CN0200001N9+02661+02391101341ADDAA106000091AG14000GF106991021011008001051021KA1999N+02351MA1999999098951MD1999999+0011REMSYN017333   20235 58001EQDQ01  00003PRCP99
0135827650999991992020618004-07333-047467FM-12+021299999V0200201N00151045001CN0200001N9+02581+02331101021ADDAA106000691AA299000591AG19005AY151999AY221999GF107991031091008001041001MA1999999098631MD1999999-0111MW1291REMSYN017333   59011 69961
0134827650999991992020700004-07333-047467FM-12+021299999V0203601N00101220001CN0200001N9+02501+02411101031ADDAA106000091AG14000GF102991021011008001001001KA1999M+03161MA1999999098641MD1999999-0081REMSYN017333   10316 59008EQDQ01  00003PRCP99
0132827650999991992020712004-07333-047467FM-12+021299999V0203601N00511012001CN0200001N9+02601+02231101271ADDAA124000691AA299000591AG10000GF107991061081008001021001KA1999N+02251MA1999999098871MD1999999-0081REMSYN023333   20225 59008 69964
0143827650999991992020818004-07333-047467FM-12+021299999V0209991C00001045001CN0200001N9+02581+02271101271ADDAA106023091AG10006AY161999AY261999GF107991041051008001031001MA1999999098861MD1999999+0261MW1021REMSYN017333   58026 60231EQDQ01  02303PRCP99
0115827650999991992020918004-07333-047467FM-12+021299999V0200901N00151045001CN0200001N9+03121+02151101011ADDAA106000091AG14000GF106991031021008001051001MA1999999098621MD1999999-0241REMSYN011333   59024EQDQ01  00003PRCP99
0147827650999991992021012004-07333-047467FM-12+021299999V0201401N00051007501CN0100001N9+99999+99999101521ADDAA124002091AG19008AY161999AY251999GF108991061051008001041999KA1999N+02341MD1999999+0011MW1151REMSYN023333   20234 58001 60024EQDQ01  00203PRCP99
0137827650999991992021018004-07333-047467FM-12+021299999V0203201N00261007501CN0200001N9+02901+02271101151ADDAA106000091AG14002AY121999AY221999GF108991061051008001021999MA1999999098761MD1999999+0141MW1161REMSYN011333   58014EQDQ01  00003PRCP99
0162827650999991992021112004-07333-047467FM-12+021299999V0203601N00311009001CN0200001N9+02321+02131101591ADDAA124026091AG10006AY161999AY221999GF108991051081004501021999KA1999N+02251MA1999999099161MD1999999+0061MW1031REMSYN023333   20225 58006 60264EQDQ01  02603PRCP99
0162827650999991992021200004-07333-047467FM-12+021299999V0201401N00151007501CN0200001N9+02301+02181101531ADDAA106000191AG10001AY151999AY221999GF108991081051008001999999KA1999M+02831MA1999999099101MD1999999+0101MW1021REMSYN023333   10283 58010 69911EQDQ01  00013PRCP99
0162827650999991992021212004-07333-047467FM-12+021299999V0209991C00001045001CN0040001N9+02241+02161101661ADDAA124034091AG10014AY161999AY261999GF108991041051008001021999KA1999N+02151MA1999999099221MD1999999+0061MW1611REMSYN023333   20215 58006 60344EQDQ01  03403PRCP99
0143827650999991992021218004-07333-047467FM-12+021299999V0201801N00261045001CN0040001N9+02381+02291101451ADDAA106004091AG10014AY161999AY261999GF108991041051008001021999MA1999999099021MD1999999+0231MW1611REMSYN017333   58023 60041EQDQ01  00403PRCP99
0162827650999991992021300004-07333-047467FM-12+021299999V0200501N00151007501CN0040001N9+02221+02171101601ADDAA106016091AG10008AY161999AY261999GF108991051051008001011999KA1999M+02471MA1999999099161MD1999999+0071MW1511REMSYN023333   10247 58007 60161EQDQ01  01603PRCP99
0162827650999991992021312004-07333-047467FM-12+021299999V0202701N00101045001CN0200001N9+02261+02141101661ADDAA124020091AG10001AY151999AY221999GF108991031011008001021999KA1999N+02111MA1999999099241MD1999999+0021MW1021REMSYN023333   20211 58002 60204EQDQ01  02003PRCP99
0115827650999991992021418004-07333-047467FM-12+021299999V0201401N00311007501CN0200001N9+02941+02001101301ADDAA106000091AG14000GF108991061031008001021999MA1999999098901MD1999999-0161REMSYN011333   59016EQDQ01  00003PRCP99
0162827650999991992021500004-07333-047467FM-12+021299999V0202301N00261007501CN0040001N9+02361+02261101691ADDAA106001091AG10008AY151999AY221999GF108991081051008001999999KA1999M+02961MA1999999099261MD1999999-0031MW1611REMSYN023333   10296 59003 60011EQDQ01  00103PRCP99
0106827650999991992021512004-07333-047467FM-12+021299999V0201401N00101009001CN0200001N9+02381+02211101311ADDAG12006AY161999AY221999GF107991051081004501031001KA1999N+02201MA1999999099281MW1031REMSYN011333   20220
0115827650999991992021518004-07333-047467FM-12+021299999V0200501N00211007501CN0200001N9+03101+02181101251ADDAA106000091AG14000GF106991061021008001071001MA1999999098861MD1999999-0041REMSYN011333   59004EQDQ01  00003PRCP99
0162827650999991992021612004-07333-047467FM-12+021299999V0200501N00051045001CN0200001N9+02461+02251101731ADDAA124010091AG19006AY161999AY221999GF106991041021008001031011KA1999N+02161MA1999999099301MD1999999+0021MW1021REMSYN023333   20216 58002 60104EQDQ01  01003PRCP99
0134827650999991992021712004-07333-047467FM-12+021299999V0200901N00211012001CN0200001N9+02681+02171101531ADDAA106000091AG14000GF106991061081008001001001KA1999N+02181MA1999999099131MD1999999-0171REMSYN017333   20218 59017EQDQ01  00003PRCP99
0115827650999991992021718004-07333-047467FM-12+021299999V0200901N00361045001CN0200001N9+03101+01941101241ADDAA106000091AG14000GF106991041081008001031011MA1999999098851MD1999999-0071REMSYN011333   59007EQDQ01  00003PRCP99
0134827650999991992021800004-07333-047467FM-12+021299999V0201401N00151012001CN0200001N9+02601+02231101291ADDAA106000091AG14000GF106991051081008001031001KA1999M+03121MA1999999098901MD1999999-0081REMSYN017333   10312 59008EQDQ01  00003PRCP99
0134827650999991992021812004-07333-047467FM-12+021299999V0200901N00411220001CN0200001N9+02731+02151101291ADDAA106000091AG14000GF103991021011008001031001KA1999N+02361MA1999999098991MD1999999-0141REMSYN017333   20236 59014EQDQ01  00003PRCP99
0134827650999991992021900004-07333-047467FM-12+021299999V0200501N00051045001CN0200001N9+02591+02121101221ADDAA106000091AG14000GF107991021021008001051001KA1999M+03151MA1999999098831MD1999999-0071REMSYN017333   10315 59007EQDQ01  00003PRCP99
0109827650999991992021912004-07333-047467FM-12+021299999V0200501N002119999999N0200001N9+02341+02151101401ADDAG12008AY101999AY201999GA1051+999999079GF108991999999008001999999MA1999999098991MW1611REMSYN011333   8572/
0115827650999991992021918004-07333-047467FM-12+021299999V0202701N00211007501CN0200001N9+02981+02331101001ADDAA106000091AG14000GF106991061021008001001001MA1999999098621MD1999999-0021REMSYN011333   59002EQDQ01  00003PRCP99
0156827650999991992022000004-07333-047467FM-12+021299999V0202301N00051045001CN0200001N9+02481+02291101221ADDAA106000091AG14002AY121999AY221999GF108991041021008001051001KA1999M+03081MA1999999098811MD1999999-0021MW1131REMSYN017333   10308 59002EQDQ01  00003PRCP99
0162827650999991992022012004-07333-047467FM-12+021299999V0203601N00211012001CN0200001N9+02481+02151101621ADDAA124034091AG10019AY191999AY261999GF108991081081008001999999KA1999N+02191MA1999999099211MD1999999+0221MW1021REMSYN023333   20219 58022 60344EQDQ01  03403PRCP99
0143827650999991992022018004-07333-047467FM-12+021299999V0200501N00211012001CN0200001N9+02801+02081101291ADDAA106002091AG10006AY161999AY221999GF107991051081008001041001MA1999999098881MD1999999+0261MW1021REMSYN017333   58026 60021EQDQ01  00203PRCP99
0140827650999991992022112004-07333-047467FM-12+021299999V0200501N00261009001CN0200001N9+02471+02171101611ADDAA124002091AG10000GF108991071081004501021999KA1999N+02281MA1999999099191MD1999999-0021REMSYN023333   20228 59002 60024EQDQ01  00203PRCP99
0115827650999991992022118004-07333-047467FM-12+021299999V0200501N00511045001CN0200001N9+03061+01961101131ADDAA106000091AG14000GF107991041011008001031001MA1999999098751MD1999999-0131REMSYN011333   59013EQDQ01  00003PRCP99
0134827650999991992022200004-07333-047467FM-12+021299999V0200901N00211045001CN0200001N9+02521+02091101291ADDAA106000091AG14000GF108991031011008001021999KA1999M+03141MA1999999098881MD1999999-0041REMSYN017333   10314 59004EQDQ01  00003PRCP99
0134827650999991992022212004-07333-047467FM-12+021299999V0201401N00151045001CN0200001N9+02581+02191101411ADDAA106000091AG14000GF106991021071008001011001KA1999N+02151MA1999999099011MD1999999-0181REMSYN017333   20215 59018EQDQ01  00003PRCP99
0115827650999991992022218004-07333-047467FM-12+021299999V0200901N00361045001CN0200001N9+03261+01911101001ADDAA106000091AG14000GF105991031021008001041011MA1999999098641MD1999999-0111REMSYN011333   59011EQDQ01  00003PRCP99
0134827650999991992022300004-07333-047467FM-12+021299999V0200901N00101220001CN0200001N9+02681+02181101161ADDAA106000091AG14000GF100991001001999999001001KA1999M+03241MA1999999098771MD1999999-0111REMSYN017333   10324 59011EQDQ01  00003PRCP99
0134827650999991992022312004-07333-047467FM-12+021299999V0201401N00051105001CN0200001N9+02681+02181101461ADDAA106000091AG14000GF105991021011008001041011KA1999N+02301MA1999999099071MD1999999+0061REMSYN017333   20230 58006EQDQ01  00003PRCP99
0115827650999991992022318004-07333-047467FM-12+021299999V0200501N00261007501CN0200001N9+03101+02121101191ADDAA106000091AG14000GF107991051021008001031001MA1999999098821MD1999999+0181REMSYN011333   58018EQDQ01  00003PRCP99
0134827650999991992022412004-07333-047467FM-12+021299999V0200901N00051045001CN0200001N9+02551+02271101611ADDAA106000091AG14000GF106991021011008001011021KA1999N+02231MA1999999099201MD1999999+0131REMSYN017333   20223 58013EQDQ01  00003PRCP99
0134827650999991992022500004-07333-047467FM-12+021299999V0200901N00101220001CN0200001N9+02651+02231101351ADDAA106000091AG14000GF100991001001999999001001KA1999M+03241MA1999999098951MD1999999-0011REMSYN017333   10324 59001EQDQ01  00003PRCP99
0134827650999991992022512004-07333-047467FM-12+021299999V0200901N00311220001CN0200001N9+02841+02191101491ADDAA106000091AG14000GF103991021001008001041061KA1999N+02651MA1999999099101MD1999999-0101REMSYN017333   20265 59010EQDQ01  00003PRCP99
0115827650999991992022518004-07333-047467FM-12+021299999V0200901N00361007501CN0200001N9+03261+02401101191ADDAA106000091AG14000GF106991061021008001001001MA1999999098831MD1999999-0061REMSYN011333   59006EQDQ01  00003PRCP99
0134827650999991992022600004-07333-047467FM-12+021299999V0200501N00151220001CN0200001N9+02701+02351101371ADDAA106000091AG14000GF100991001001999999001001KA1999M+03321MA1999999098971MD1999999+0021REMSYN017333   10332 58002EQDQ01  00003PRCP99
0134827650999991992022612004-07333-047467FM-12+021299999V0200901N00261220001CN0200001N9+02841+02221101651ADDAA106000091AG14000GF101991011001017501041001KA1999N+02151MA1999999099261MD1999999+0161REMSYN017333   20215 58016EQDQ01  00003PRCP99
0134827650999991992022700004-07333-047467FM-12+021299999V0200501N00151220001CN0200001N9+02801+02311101331ADDAA106000091AG14000GF102991021021008001001001KA1999M+03421MA1999999098951MD1999999-0021REMSYN017333   10342 59002EQDQ01  00003PRCP99
0114827650999991992022712004-07333-047467FM-12+021299999V0200501N00411220001CN0200001N9+02791+02181101671ADDAA106000091AG14000GF103991011011008001031041KA1999N+02411MA1999999099281REMSYN011333   20241EQDQ01  00003PRCP99
0115827650999991992022718004-07333-047467FM-12+021299999V0200901N00311045001CN0200001N9+03261+02181101281ADDAA106000091AG14000GF105991031011008001031021MA1999999098911MD1999999+0031REMSYN011333   58003EQDQ01  00003PRCP99
0156827650999991992022800004-07333-047467FM-12+021299999V0203201N00101007501CN0200001N9+02611+02391101401ADDAA106000091AG10002AY111999AY211999GF107991051021008001021001KA1999M+03311MA1999999099011MD1999999+0061MW1131REMSYN017333   10331 58006EQDQ01  00003PRCP99
0134827650999991992022812004-07333-047467FM-12+021299999V0203601N00101220001CN0200001N9+02721+02371101551ADDAA106000091AG14000GF102991011011008001001041KA1999N+02351MA1999999099141MD1999999-0141REMSYN017333   20235 59014EQDQ01  00003PRCP99
0115827650999991992022818004-07333-047467FM-12+021299999V0203601N00211007501CN0200001N9+03321+02001101201ADDAA106000091AG14000GF106991061021008001001001MA1999999098801MD1999999-0111REMSYN011333   59011EQDQ01  00003PRCP99
0134827650999991992022900004-07333-047467FM-12+021299999V0200501N00151220001CN0200001N9+02701+02081101231ADDAA106000091AG14000GF100991001001999999001001KA1999M+03421MA1999999098831MD1999999-0181REMSYN017333   10342 59018EQDQ01  00003PRCP99
0134827650999991992022912004-07333-047467FM-12+021299999V0200901N00051220001CN0200001N9+02821+02271101501ADDAA106000091AG14000GF103991001001999999001011KA1999N+02261MA1999999099111MD1999999-0031REMSYN017333   20226 59003EQDQ01  00003PRCP99
0156827650999991992030100004-07333-047467FM-12+021299999V0203201N00101220001CN0200001N9+02621+02161101321ADDAA106000091AG14018AY191999AY291999GF102991021021008001001001KA1999M+03391MA1999999098931MD1999999+0101MW1001REMSYN017333   10339 58010EQDQ01  00003PRCP99
0134827650999991992030112004-07333-047467FM-12+021299999V0202301N00051220001CN0200001N9+02811+02311101591ADDAA106000091AG14000GF103991031011008001001001KA1999N+02251MA1999999099201MD1999999+0091REMSYN017333   20225 58009EQDQ01  00003PRCP99
0115827650999991992030118004-07333-047467FM-12+021299999V0203201N00101007501CN0200001N9+03271+02051101171ADDAA106000091AG14000GF105991051021008001001001MA1999999098801MD1999999+0001REMSYN011333   58000EQDQ01  00003PRCP99
0134827650999991992030200004-07333-047467FM-12+021299999V0203601N00101220001CN0200001N9+02721+02261101321ADDAA106000091AG14000GF100991001001999999001001KA1999M+03321MA1999999098941MD1999999+0011REMSYN017333   10332 58001EQDQ01  00003PRCP99
0134827650999991992030212004-07333-047467FM-12+021299999V0203601N00311007501CN0200001N9+02621+02231101661ADDAA106000091AG14000GF108991081051008001001001KA1999N+02151MA1999999099251MD1999999+0051REMSYN017333   20215 58005EQDQ01  00003PRCP99
0115827650999991992030218004-07333-047467FM-12+021299999V0203601N00151007501CN0200001N9+03221+01951101141ADDAA106000091AG14000GF106991061021008001001001MA1999999098771MD1999999-0031REMSYN011333   59003EQDQ01  00003PRCP99
0134827650999991992030300004-07333-047467FM-12+021299999V0200901N00051220001CN0200001N9+02621+02351101401ADDAA106000091AG14000GF102991021021008001001001KA1999M+03261MA1999999099001MD1999999+0061REMSYN017333   10326 58006EQDQ01  00003PRCP99
0134827650999991992030312004-07333-047467FM-12+021299999V0200501N00151220001CN0200001N9+02801+02131101591ADDAA106000091AG14000GF102991011011008001041001KA1999N+02291MA1999999099201MD1999999-0051REMSYN017333   20229 59005EQDQ01  00003PRCP99
0135827650999991992030318004-07333-047467FM-12+021299999V0202701N00211045001CN0200001N9+02861+02161101161ADDAA106001091AG10007AY161999GF106991041081008001041001MA1999999098771MD1999999+0001MW1151REMSYN017333   58000 60011EQDQ01  00103PRCP99
0140827650999991992030412004-07333-047467FM-12+021299999V0200901N00211220001CN0200001N9+02841+02121101391ADDAA124001091AG10000GF103991031011008001001001KA1999N+02251MA1999999099001MD1999999-0201REMSYN023333   20225 59020 60014EQDQ01  00103PRCP99
0115827650999991992030418004-07333-047467FM-12+021299999V0200901N00311007501CN0200001N9+03341+01951101011ADDAA106000091AG14000GF105991051021008001001001MA1999999098641MD1999999-0131REMSYN011333   59013EQDQ01  00003PRCP99
0134827650999991992030500004-07333-047467FM-12+021299999V0200501N00211220001CN0200001N9+02651+02091101141ADDAA106000091AG14000GF100991001001999999001001KA1999M+03381MA1999999098761MD1999999-0091REMSYN017333   10338 59009EQDQ01  00003PRCP99
0134827650999991992030512004-07333-047467FM-12+021299999V0200901N00311220001CN0200001N9+02861+02011101371ADDAA106000091AG14000GF100991001001999999001001KA1999N+02171MA1999999098991MD1999999-0011REMSYN017333   20217 59001EQDQ01  00003PRCP99
0115827650999991992030518004-07333-047467FM-12+021299999V0200901N00361220001CN0200001N9+03421+02131100981ADDAA106000091AG14000GF104991041011008001001001MA1999999098621MD1999999-0021REMSYN011333   59002EQDQ01  00003PRCP99
0134827650999991992030600004-07333-047467FM-12+021299999V0200501N00151220001CN0200001N9+02681+02021101061ADDAA106000091AG14000GF100991001001999999001001KA1999M+03461MA1999999098681MD1999999-0081REMSYN017333   10346 59008EQDQ01  00003PRCP99
0134827650999991992030612004-07333-047467FM-12+021299999V0200901N00261220001CN0200001N9+02841+01961101321ADDAA106000091AG14000GF102991011011008001001021KA1999N+02231MA1999999098941MD1999999-0051REMSYN017333   20223 59005EQDQ01  00003PRCP99
0115827650999991992030618004-07333-047467FM-12+021299999V0200901N00261220001CN0200001N9+03441+01761100921ADDAA106000091AG14000GF102991021011008001001001MA1999999098561MD1999999-0081REMSYN011333   59008EQDQ01  00003PRCP99
0134827650999991992030712004-07333-047467FM-12+021299999V0200901N00311220001CN0200001N9+02881+01891101301ADDAA106000091AG14000GF103991011011012501041041KA1999N+02141MA1999999098921MD1999999-0021REMSYN017333   20214 59002EQDQ01  00003PRCP99
0115827650999991992030718004-07333-047467FM-12+021299999V0200901N00411220001CN0200001N9+03461+01861100941ADDAA106000091AG14000GF104991021011008001061011MA1999999098581MD1999999+0021REMSYN011333   58002EQDQ01  00003PRCP99
0134827650999991992030800004-07333-047467FM-12+021299999V0200501N00151220001CN0200001N9+02711+02171100971ADDAA106000091AG14000GF100991001001999999001001KA1999M+03511MA1999999098601MD1999999+0001REMSYN017333   10351 58000EQDQ01  00003PRCP99
0093827650999991992030812004-07333-047467FM-12+021299999V0203601N00101220001CN0200001N9+02761+02211101241ADDAA106000091AG14000GF106991041011008001001041MA1999999098861REMSYN003333EQDQ01  00003PRCP99
0115827650999991992030818004-07333-047467FM-12+021299999V0200901N00261045001CN0200001N9+03461+01861100911ADDAA106000091AG14000GF105991031021008001041011MA1999999098561MD1999999-0021REMSYN011333   59002EQDQ01  00003PRCP99
0134827650999991992030900004-07333-047467FM-12+021299999V0200501N00261220001CN0200001N9+02741+02261100891ADDAA106000091AG14000GF102991021021008001001001KA1999M+03521MA1999999098521MD1999999-0081REMSYN017333   10352 59008EQDQ01  00003PRCP99
0154827650999991992030912004-07333-047467FM-12+021299999V0203601N00311012001CN0200001N9+02781+02251101321ADDAA124000291AA299000391AG10006AY161999AY221999GF106991051081008001001011KA1999N+02681MA1999999098941MD1999999+0081MW1021REMSYN023333   20268 58008 69924
0134827650999991992031012004-07333-047467FM-12+021299999V0202301N00151012001CN0200001N9+02521+02271101451ADDAA106000091AG14000GF108991081081008001999999KA1999N+02431MA1999999099051MD1999999+0111REMSYN017333   20243 58011EQDQ01  00003PRCP99
0120827650999991992031100004-07333-047467FM-12+021299999V0209991C00001220001CN0200001N9+02481+02381101001ADDAG12018AY191999AY261999GF104991041051008001001001KA1999M+03241MA1999999098641MD1999999-0031REMSYN017333   10324 59003
0140827650999991992031112004-07333-047467FM-12+021299999V0203601N00151012001CN0200001N9+02761+02341101301ADDAA124001091AG10000GF106991061081008001999999KA1999N+02191MA1999999098901MD1999999-0151REMSYN023333   20219 59015 60014EQDQ01  00103PRCP99
0115827650999991992031118004-07333-047467FM-12+021299999V0200901N00101007501CN0200001N9+03281+02131100851ADDAA106000091AG14000GF107991071021008001001001MA1999999098491MD1999999-0111REMSYN011333   59011EQDQ01  00003PRCP99
0134827650999991992031200004-07333-047467FM-12+021299999V0200901N00151045001CN0200001N9+02501+02051101031ADDAA106000091AG14000GF108991031071008001011999KA1999M+03341MA1999999098641MD1999999+0001REMSYN017333   10334 58000EQDQ01  00003PRCP99
0134827650999991992031212004-07333-047467FM-12+021299999V0201401N00151045001CN0200001N9+02721+02241101361ADDAA106000091AG14000GF106991041021008001031001KA1999N+02331MA1999999098961MD1999999+0061REMSYN017333   20233 58006EQDQ01  00003PRCP99
0134827650999991992031300004-07333-047467FM-12+021299999V0200501N00211220001CN0200001N9+02701+02221101111ADDAA106000091AG14000GF102991021001017501041001KA1999M+03431MA1999999098731MD1999999+0091REMSYN017333   10343 58009EQDQ01  00003PRCP99
0134827650999991992031312004-07333-047467FM-12+021299999V0200901N00361220001CN0200001N9+02821+02101101371ADDAA106000091AG14000GF104991011011008001021041KA1999N+02351MA1999999098991MD1999999+0031REMSYN017333   20235 58003EQDQ01  00003PRCP99
0115827650999991992031318004-07333-047467FM-12+021299999V0200501N00261045001CN0200001N9+03341+01981101011ADDAA106000091AG14000GF105991041021008001011001MA1999999098651MD1999999+0021REMSYN011333   58002EQDQ01  00003PRCP99
0134827650999991992031400004-07333-047467FM-12+021299999V0201401N00151007501CN0200001N9+02761+02301101141ADDAA106000091AG14000GF107991051011008001021001KA1999M+03431MA1999999098771MD1999999+0041REMSYN017333   10343 58004EQDQ01  00003PRCP99
0134827650999991992031412004-07333-047467FM-12+021299999V0200901N00461105001CN0200001N9+02861+02111101311ADDAA106000091AG14000GF105991021011008001021041KA1999N+02451MA1999999098931MD1999999-0061REMSYN017333   20245 59006EQDQ01  00003PRCP99
0134827650999991992031500004-07333-047467FM-12+021299999V0200501N00151007501CN0200001N9+02761+02191101071ADDAA106000091AG14000GF108991081051008001999999KA1999M+03341MA1999999098701MD1999999-0061REMSYN017333   10334 59006EQDQ01  00003PRCP99
0115827650999991992031518004-07333-047467FM-12+021299999V0200901N00311220001CN0200001N9+03221+01731101021ADDAA106000091AG14000GF103991021021008001001011MA1999999098651MD1999999-0111REMSYN011333   59011EQDQ01  00003PRCP99
0134827650999991992031600004-07333-047467FM-12+021299999V0200901N00151220001CN0200001N9+02601+02031101191ADDAA106000091AG14000GF101991011011008001001001KA1999M+03281MA1999999098811MD1999999+0101REMSYN017333   10328 58010EQDQ01  00003PRCP99
0134827650999991992031612004-07333-047467FM-12+021299999V0200901N00311220001CN0200001N9+02921+02141101301ADDAA106000091AG14000GF103991021011008001031001KA1999N+02291MA1999999098921MD1999999-0041REMSYN017333   20229 59004EQDQ01  00003PRCP99
0066827650999991992031618004-07333-047467FM-12+021299999V0200901N003119999999N0200001N9+03351+02021999999ADDAA106000091AG14000GF106991999999008001999999EQDQ01  00003PRCP99
0134827650999991992031712004-07333-047467FM-12+021299999V0203601N00101007501CN0200001N9+02801+02341101071ADDAA106000091AG14000GF108991081051008001999999KA1999N+02391MA1999999100081MD1999999+0161REMSYN017333   20239 58016EQDQ01  00003PRCP99
0115827650999991992031718004-07333-047467FM-12+021299999V0203601N00311045001CN0200001N9+03181+02221101071ADDAA106000091AG14000GF105991041051008001041001MA1999999098711MD1999999+0081REMSYN011333   58008EQDQ01  00003PRCP99
0134827650999991992031800004-07333-047467FM-12+021299999V0203201N00151012001CN0200001N9+02521+02211101331ADDAA106000091AG14000GF108991081081008001999999KA1999M+03121MA1999999098411MD1999999+0041REMSYN017333   10312 58004EQDQ01  00003PRCP99
0073827650999991992031818004-07333-047467FM-12+021299999V0202301N001519999999N0200001N9+02561+02401101431ADDAG12007AY161999AY251999GF108991999999008001999999MA1999999099021MW1511
0134827650999991992031900004-07333-047467FM-12+021299999V0201401N00051012001CN0200001N9+02501+02431101521ADDAA106000091AG14000GF108991081081008001999999KA1999M+02601MA1999999099111MD1999999+0171REMSYN017333   10260 58017EQDQ01  00003PRCP99
0140827650999991992031912004-07333-047467FM-12+021299999V0201801N00101009001CN0200001N9+02591+02291999999ADDAA124005091AG10000GF107991071081004501001001KA1999N+02381MA1999999099101MD1999999-0231REMSYN023333   20238 59023 60054EQDQ01  00503PRCP99
0115827650999991992031918004-07333-047467FM-12+021299999V0203201N00261045001CN0200001N9+03101+02181101051ADDAA106000091AG14000GF106991031011008001021031MA1999999098671MD1999999-0351REMSYN011333   59035EQDQ01  00003PRCP99
0134827650999991992032000004-07333-047467FM-12+021299999V0209991C00001012001CN0200001N9+02651+02391101161ADDAA106000091AG14000GF105991051081008001001001KA1999M+03191MA1999999098771MD1999999-0341REMSYN017333   10319 59034EQDQ01  00003PRCP99
0143827650999991992032018004-07333-047467FM-12+021299999V0203601N00211045001CN0200001N9+02681+02331101011ADDAA106015091AG10006AY161999AY261999GF108991041021008001051001MA1999999098621MD1999999-0051MW1001REMSYN017333   59005 60151EQDQ01  01503PRCP99
0137827650999991992032118004-07333-047467FM-12+021299999V0201801N00211012001CN0200001N9+02901+02171101021ADDAA106000091AG15002AY121999AY221999GF108991081081008001999999MA1999999098641MD1999999+0011MW1161REMSYN011333   58001EQDQ01  00003PRCP99
0115827650999991992032218004-07333-047467FM-12+021299999V0202301N00261045001CN0200001N9+02861+02311101101ADDAA106000091AG14000GF108991031081008001021999MA1999999098711MD1999999+0071REMSYN011333   58007EQDQ01  00003PRCP99
0154827650999991992032300004-07333-047467FM-12+021299999V0209991C00001012001CN0200001N9+02301+02231101301ADDAA106000291AA299000391AG13000AY111999AY261999GF108991081001012501021999KA1999M+02971MA1999999098891MD1999999+0011MW1021REMSYN023333   10297 58001 69921
0132827650999991992032312004-07333-047467FM-12+021299999V0200501N00261007501CN0200001N9+02621+02251101451ADDAA124000291AA299000391AG10000GF107991071021008001001001KA1999N+02351MA1999999099041MD1999999-0121REMSYN023333   20235 59012 69924
0127827650999991992032318004-07333-047467FM-12+021299999V0200501N00361007501CN0200001N9+02561+02361101191ADDAA106000591AG10007GF108991081021008001001001MA1999999098781MD1999999+0041MW1611REMSYN017333   58004 69951EQDQ01  00053PRCP99
0162827650999991992032400004-07333-047467FM-12+021299999V0203201N00101012001CN0200001N9+02361+02261101381ADDAA106007091AG19006AY161999AY261999GF108991081001012501021999KA1999M+03241MA1999999098971MD1999999+0081MW1021REMSYN023333   10324 58008 60071EQDQ01  00703PRCP99
0140827650999991992032412004-07333-047467FM-12+021299999V0200501N00151007501CN0200001N9+02661+02311101531ADDAA124007091AG10000GF108991081051008001999999KA1999N+02191MA1999999099121MD1999999+0081REMSYN023333   20219 58008 60074EQDQ01  00703PRCP99
0162827650999991992032512004-07333-047467FM-12+021299999V0203201N00101012001CN0200001N9+02501+02211101531ADDAA124002091AG10005AY171999AY261999GF107991051081008001041001KA1999N+02301MA1999999099121MD1999999+0001MW1031REMSYN023333   20230 58000 60024EQDQ01  00203PRCP99
0118827650999991992032518004-07333-047467FM-12+021299999V0202701N00261012001CN0200001N9+03041+02281101031ADDAA106000091AG14000GA1021+033009089GF106991051081008001051001MA1999999098651MD1999999-0221REMSYN017333   59022 82861
0134827650999991992032600004-07333-047467FM-12+021299999V0200901N00261012001CN0200001N9+02461+02251101321ADDAA106000091AG14000GF108991081081008001999999KA1999M+03101MA1999999098911MD1999999-0041REMSYN017333   10310 59004EQDQ01  00003PRCP99
0115827650999991992032618004-07333-047467FM-12+021299999V0202301N00151007501CN0200001N9+03081+02191100981ADDAA106000091AG14000GF107991071021008001001001MA1999999098601MD1999999-0051REMSYN011333   59005EQDQ01  00003PRCP99
0085827650999991992032700004-07333-047467FM-12+021299999V0200901N00411007501CN0200001N9+02341+02171101461ADDAG12013AY161999AY261999GF108991081051008001999999MA1999999099041MW1611REMSYN003333
0162827650999991992032712004-07333-047467FM-12+021299999V0201401N00051012001CN0200001N9+02301+02271101741ADDAA124062091AG19006AY161999AY261999GF108991081081008001999999KA1999N+02211MA1999999099301MD1999999+0201MW1021REMSYN023333   20221 58020 60624EQDQ01  06203PRCP99
0143827650999991992032718004-07333-047467FM-12+021299999V0203201N00051012001CN0200001N9+02281+02231101431ADDAA106037091AG10025AY191999AY261999GF107991051081008001041001MA1999999099001MD1999999+0401MW1611REMSYN017333   58040 60371EQDQ01  03703PRCP99
0134827650999991992032800004-07333-047467FM-12+021299999V0209991C00001007501CN0200001N9+02341+02261101621ADDAA106000091AG14000GF108991081051008001999999KA1999M+02701MA1999999099191MD1999999+0151REMSYN017333   10270 58015EQDQ01  00003PRCP99
0127827650999991992032812004-07333-047467FM-12+021299999V0200901N00101012001CN0200001N9+02411+02211101821ADDAA124037091AG10000GF107991061081008001031001MA1999999099391MD1999999+0091REMSYN023333   2020/ 58009 60374EQDQ01  03703PRCP99
0135827650999991992032818004-07333-047467FM-12+021299999V0200901N00151045001CN0200001N9+02951+02291101211ADDAA106000291AA299000391AG10008AY161999AY221999GF106991041051008001031091MA1999999098821MD1999999-0181MW1171REMSYN017333   59018 69921
0140827650999991992032912004-07333-047467FM-12+021299999V0200901N00101012001CN0200001N9+02541+02331101611ADDAA124000391AG10000GF108991081081008001999999KA1999N+02311MA1999999099201MD1999999-0141REMSYN023333   20231 59014 69934EQDQ01  00033PRCP99
0115827650999991992032918004-07333-047467FM-12+021299999V0202301N00151007501CN0200001N9+02961+02331101121ADDAA106000291AA299000391AG10006AY161999AY221999GF106991061021008001001001MA1999999098741MW1001REMSYN011333   69921
0156827650999991992033000004-07333-047467FM-12+021299999V0209991C00001220001CN0200001N9+02521+02361101361ADDAA106000091AG14002AY101999AY201999GF102991021011008001001001KA1999M+03241MA1999999098951MD1999999-0051MW1131REMSYN017333   10324 59005EQDQ01  00003PRCP99
0132827650999991992033012004-07333-047467FM-12+021299999V0202301N00101007501CN0200001N9+02561+02471101641ADDAA124000291AA299000391AG10000GF106991061021008001001001KA1999N+02161MA1999999099231MD1999999+0031REMSYN023333   20216 58003 69924
0115827650999991992033018004-07333-047467FM-12+021299999V0209999999999220001CN0200001N9+03181+02071101141ADDAA106000091AG14000GF104991031021008001001011MA1999999098771MD1999999+0031REMSYN011333   58003EQDQ01  00003PRCP99
0134827650999991992040100004-07333-047467FM-12+021299999V0203201N00051012001CN0200001N9+02541+02381101281ADDAA106000091AG14000GF105991051081008001001001KA1999M+03021MA1999999098871MD1999999-0071REMSYN017333   10302 59007EQDQ01  00003PRCP99
0115827650999991992040118004-07333-047467FM-12+021299999V0201801N00151007501CN0200001N9+03161+02171100891ADDAA106000091AG14000GF107991051021008001001041MA1999999098521MD1999999-0221REMSYN011333   59022EQDQ01  00003PRCP99
0162827650999991992040212004-07333-047467FM-12+021299999V0201801N00151007501CN0200001N9+02401+02311101591ADDAA124009091AG10005AY161999AY261999GF108991081051008001999999KA1999N+02231MA1999999099171MD1999999+0061MW1021REMSYN023333   20223 58006 60094EQDQ01  00903PRCP99
0066827650999991992040218004-07333-047467FM-12+021299999V0202301N00311045001CN0500001N9+02811+02641999999ADDAA106000091AG14000GF106991041021012501041001EQDQ01  00003PRCP99
0162827650999991992040300004-07333-047467FM-12+021299999V0200901N00151012001CN0200001N9+02361+02221101561ADDAA106002091AG10008AY161999AY261999GF108991081081008001999999KA1999M+02941MA1999999099141MD1999999+0161MW1601REMSYN023333   10294 58016 60021EQDQ01  00203PRCP99
0140827650999991992040312004-07333-047467FM-12+021299999V0201401N00101045001CN0200001N9+02351+02221101651ADDAA124002091AG10000GF108991031071004501021999KA1999N+02201MA1999999099221MD1999999+0051REMSYN023333   20220 58005 60024EQDQ01  00203PRCP99
0115827650999991992040318004-07333-047467FM-12+021299999V0202301N00101045001CN0200001N9+02661+02181101231ADDAA106000091AG14000GF108991041011008001021999MA1999999098821MD1999999+0021REMSYN011333   58002EQDQ01  00003PRCP99
0114827650999991992040412004-07333-047467FM-12+021299999V0200901N00051220001CN0200001N9+02661+02391101581ADDAA106000091AG14000GF104991031021008001041001KA1999N+02241MA1999999099171REMSYN011333   20224EQDQ01  00003PRCP99
0156827650999991992040700004-07333-047467FM-12+021299999V0203601N00101012001CN0200001N9+02561+02421101271ADDAA106000091AG14002AY121999AY211999GF106991061081008001001001KA1999M+03051MA1999999098971MD1999999+0061MW1131REMSYN017333   10305 58006EQDQ01  00003PRCP99
0148827650999991992040900004-07333-047467FM-12+021299999V0202401N00151007501CN0200001N9+02681+02451101241ADDAA106000091AG14018AY191999GF107991071051008001001001KA1999M+03221MA1999999098851MD1999999-0031MW1131REMSYN017333   10322 59003EQDQ01  00003PRCP99
0134827650999991992040912004-07333-047467FM-12+021299999V0202301N00051045001CN0200001N9+02541+02331101511ADDAA106000091AG14000GF108991021021008001021999KA1999N+02401MA1999999099111MD1999999+0051REMSYN017333   20240 58005EQDQ01  00003PRCP99
0143827650999991992040918004-07333-047467FM-12+021299999V0202301N00261045001CN0200001N9+02461+02231101171ADDAA106022091AG10025AY191999AY291999GF108991031031008001021999MA1999999098761MD1999999-0161MW1961REMSYN017333   59016 60221EQDQ01  02203PRCP99
0140827650999991992041012004-07333-047467FM-12+021299999V0201401N00051009001CN0200001N9+02501+02311101371ADDAA124034091AG10000GF107991071081004501001001KA1999N+02291MA1999999098951MD1999999-0161REMSYN023333   20229 59016 60344EQDQ01  03403PRCP99
0132827650999991992041112004-07333-047467FM-12+021299999V0200901N00101220001CN0200001N9+02741+02261101261ADDAA124000691AA299000591AG10000GF103991031011008001001001KA1999N+02291MA1999999098861MD1999999-0091REMSYN023333   20229 59009 69964
0115827650999991992041118004-07333-047467FM-12+021299999V0200901N00411007501CN0200001N9+03241+02131100781ADDAA106000091AG14000GF105991051021008001001001MA1999999098411MD1999999-0061REMSYN011333   59006EQDQ01  00003PRCP99
0134827650999991992041212004-07333-047467FM-12+021299999V0200501N00151105001CN0200001N9+02801+02251101291ADDAA106000091AG14000GF105991021021008001041011KA1999N+02321MA1999999098901MD1999999+0041REMSYN017333   20232 58004EQDQ01  00003PRCP99
0115827650999991992041218004-07333-047467FM-12+021299999V0201401N00261220001CN0200001N9+03201+01891100891ADDAA106000091AG14000GF102991021021008001001001MA1999999098521MD1999999+0111REMSYN011333   58011EQDQ01  00003PRCP99
0134827650999991992041300004-07333-047467FM-12+021299999V0200501N00151220001CN0200001N9+02561+02291101151ADDAA106000091AG14000GF102991021021008001001001KA1999M+03271MA1999999098771MD1999999+0171REMSYN017333   10327 58017EQDQ01  00003PRCP99
0134827650999991992041312004-07333-047467FM-12+021299999V0202301N00051220001CN0200001N9+02571+02171101331ADDAA106000091AG14000GF104991011021008001031011KA1999N+02221MA1999999098831MD1999999+0031REMSYN017333   20222 58003EQDQ01  00003PRCP99
0115827650999991992041318004-07333-047467FM-12+021299999V0201401N00311220001CN0200001N9+03221+02731100921ADDAA106000091AG14000GF102991011021008001031001MA1999999098581MD1999999+0061REMSYN011333   58006EQDQ01  00003PRCP99
0134827650999991992041400004-07333-047467FM-12+021299999V0200501N00151220001CN0200001N9+02521+02231101261ADDAA106000091AG14000GF101991011001008001041001KA1999M+03281MA1999999098861MD1999999+0091REMSYN017333   10328 58009EQDQ01  00003PRCP99
0134827650999991992041412004-07333-047467FM-12+021299999V0200901N00151220001CN0200001N9+02801+02081101361ADDAA106000091AG14000GF100991001001999999001001KA1999N+02201MA1999999098971MD1999999+0041REMSYN017333   20220 58004EQDQ01  00003PRCP99
0115827650999991992041418004-07333-047467FM-12+021299999V0201401N00261220001CN0200001N9+03301+02091100931ADDAA106000091AG14000GF103991031011008001001001MA1999999098561MD1999999-0021REMSYN011333   59002EQDQ01  00003PRCP99
0134827650999991992041500004-07333-047467FM-12+021299999V0203201N00101220001CN0200001N9+02721+02281101241ADDAA106000091AG14000GF103991031011008001001001KA1999M+03401MA1999999098861MD1999999+0001REMSYN017333   10340 58000EQDQ01  00003PRCP99
0134827650999991992041512004-07333-047467FM-12+021299999V0203601N00101045001CN0200001N9+02761+02231101471ADDAA106000091AG14000GF106991031011008001041001KA1999N+02351MA1999999099081MD1999999+0111REMSYN017333   20235 58011EQDQ01  00003PRCP99
0115827650999991992041518004-07333-047467FM-12+021299999V0203601N00261220001CN0200001N9+03281+02231100951ADDAA106000091AG14000GF106991041011008001001041MA1999999098591MD1999999+0031REMSYN011333   58003EQDQ01  00003PRCP99
0135827650999991992041618004-07333-047467FM-12+021299999V0201401N00261007501CN0200001N9+03001+02171101181ADDAA106000691AA299000591AG10001AY151999AY251999GF107991071051008001001001MA1999999098801MD1999999+0211MW1001REMSYN017 333 58021 69961?
0134827650999991992041700004-07333-047467FM-12+021299999V0201801N00051007501CN0200001N9+02521+02421101471ADDAA106000091AG14000GF107991051051008001051001KA1999M+03071MA1999999099061MD1999999+0171REMSYN017333   10307 58017EQDQ01  00003PRCP99
0146827650999991992041712004-07333-047467FM-12+021299999V0200901N00311007501CN0100001N9+02301+02221101621ADDAA124001091AG10006GF108991081051008001999999KA1999N+02301MA1999999099201MD1999999-0061MW1611REMSYN023333   20230 59006 60014EQDQ01  00103PRCP99
0143827650999991992041718004-07333-047467FM-12+021299999V0203201N00151007501CN0200001N9+02701+02281101161ADDAA106000391AG10001AY151999AY251999GF108991051051008001041011MA1999999098761MD1999999-0041MW1021REMSYN017333   59004 69931EQDQ01  00033PRCP99
0134827650999991992041800004-07333-047467FM-12+021299999V0203201N00051007501CN0200001N9+02501+02451101481ADDAA106000091AG14000GF108991081051008001999999KA1999M+02881MA1999999099061MD1999999+0001REMSYN017333   10288 58000EQDQ01  00003PRCP99
0162827650999991992041812004-07333-047467FM-12+021299999V0202301N00051045001CN0200001N9+02421+02331101421ADDAA124016091AG19005AY161999AY261999GF106991041051008001031001KA1999N+02281MA1999999099011MD1999999-0111MW1001REMSYN023333   20228 59011 60164EQDQ01  01603PRCP99
0115827650999991992041818004-07333-047467FM-12+021299999V0202301N00151007501CN0200001N9+03081+02131100981ADDAA106000091AG14000GF105991051031008001001001MA1999999098601MD1999999-0161REMSYN011333   59016EQDQ01  00003PRCP99
0140827650999991992041900004-07333-047467FM-12+021299999V0200501N00051220001CN0200001N9+02701+02461101111ADDAA106000091AG19002GF103991031021008001001001KA1999M+03281MA1999999098711MD1999999-0351MW1131REMSYN017333   10328 59035EQDQ01  00003PRCP99
0134827650999991992041912004-07333-047467FM-12+021299999V0201801N00101220001CN0200001N9+02741+02381101271ADDAA106000091AG14000GF102991021011008001001001KA1999N+02351MA1999999098881MD1999999-0131REMSYN017333   20235 59013EQDQ01  00003PRCP99
0143827650999991992041918004-07333-047467FM-12+021299999V0200501N00261045001CN0200001N9+02601+02231100891ADDAA106000391AG10001AY151999AY221999GF108991041011008001021999MA1999999098491MD1999999-0111MW1001REMSYN017333   59011 69931EQDQ01  00033PRCP99
0134827650999991992042000004-07333-047467FM-12+021299999V0201401N00051045001CN0200001N9+02401+02261100931ADDAA106000091AG14000GF105991031011008001041001KA1999M+03121MA1999999098541MD1999999-0171REMSYN017333   10312 59017EQDQ01  00003PRCP99
0115827650999991992042018004-07333-047467FM-12+021299999V0203201N00211007501CN0200001N9+03201+02091100711ADDAA106000091AG14000GF105991051021008001041001MA1999999098341MD1999999-0151REMSYN011333   59015EQDQ01  00003PRCP99
0134827650999991992042112004-07333-047467FM-12+021299999V0202301N00101045001CN0200001N9+02701+02411101381ADDAA106000091AG14000GF105991031021008001031011KA1999N+02381MA1999999098961MD1999999+0061REMSYN017333   20238 58006EQDQ01  00003PRCP99
0115827650999991992042118004-07333-047467FM-12+021299999V0201401N00151045001CN0200001N9+03181+02281100981ADDAA106000091AG14000GF106991041021008001041021MA1999999098611MD1999999+0001REMSYN011333   58000EQDQ01  00003PRCP99
0134827650999991992042200004-07333-047467FM-12+021299999V0203201N00101007501CN0200001N9+02681+02351101301ADDAA106000091AG14000GF106991061051008001001001KA1999M+03321MA1999999098911MD1999999+0251REMSYN017333   10332 58025EQDQ01  00003PRCP99
0162827650999991992042212004-07333-047467FM-12+021299999V0201401N00101220001CN0200001N9+02741+02401101361ADDAA124010091AG10005AY161999AY221999GF102991011011008001041001KA1999N+02271MA1999999098971MD1999999+0011MW1031REMSYN023333   20227 58001 60104EQDQ01  01003PRCP99
0115827650999991992042218004-07333-047467FM-12+021299999V0200901N00311220001CN0200001N9+03341+02021100941ADDAA106000091AG14000GF102991021011008001001001MA1999999098871MD1999999-0041REMSYN011333   59004EQDQ01  00003PRCP99
0134827650999991992042312004-07333-047467FM-12+021299999V0200901N00101220001CN0200001N9+02901+02341101241ADDAA106000091AG14000GF100991001001999999001001KA1999N+02431MA1999999098861MD1999999-0011REMSYN017333   20243 59001EQDQ01  00003PRCP99
0115827650999991992042318004-07333-047467FM-12+021299999V0200901N00261220001CN0200001N9+03341+02121100881ADDAA106000091AG14000GF104991041011008001001001MA1999999098521MD1999999-0051REMSYN011333   59005EQDQ01  00003PRCP99
0134827650999991992042400004-07333-047467FM-12+021299999V0200501N00151220001CN0200001N9+02621+02211100971ADDAA106000091AG14000GF102991021021008001001001KA1999M+03381MA1999999098601MD1999999-0231REMSYN017333   10338 59023EQDQ01  00003PRCP99
0134827650999991992042412004-07333-047467FM-12+021299999V0200501N00101220001CN0200001N9+02781+02091101241ADDAA106000091AG14000GF100991001001999999001001KA1999N+02261MA1999999098861MD1999999+0001REMSYN017333   20226 58000EQDQ01  00003PRCP99
0115827650999991992042418004-07333-047467FM-12+021299999V0200901N00311220001CN0200001N9+03301+01641100741ADDAA106000091AG14000GF103991031021008001001001MA1999999098381MD1999999-0141REMSYN011333   59014EQDQ01  00003PRCP99
0134827650999991992042512004-07333-047467FM-12+021299999V0200901N00101220001CN0200001N9+02631+02161100211ADDAA106000091AG14000GF101991011021008001031001KA1999N+02231MA1999999098821MD1999999-0041REMSYN017333   20223 59004EQDQ01  00003PRCP99
0115827650999991992042518004-07333-047467FM-12+021299999V0200901N00211220001CN0200001N9+03321+01851100881ADDAA106000091AG14000GF102991021021008001001001MA1999999098511MD1999999+0131REMSYN011333   58013EQDQ01  00003PRCP99
0115827650999991992042618004-07333-047467FM-12+021299999V0200901N00311007501CN0200001N9+03201+01991101301ADDAA106000091AG14000GF108991051021008001011999MA1999999098911MD1999999+0401REMSYN011333   58040EQDQ01  00003PRCP99
0134827650999991992042712004-07333-047467FM-12+021299999V0201401N00151220001CN0200001N9+02641+02161101551ADDAA106000091AG14000GF102991021011008001001001KA1999N+02081MA1999999099151MD1999999-0011REMSYN017333   20208 59001EQDQ01  00003PRCP99
0134827650999991992043012004-07333-047467FM-12+021299999V0200501N00101045001CN0200001N9+02781+02381101361ADDAA106000091AG14000GF106991041021008001061001KA1999N+02301MA1999999098971MD1999999+0101REMSYN017333   20230 58010EQDQ01  00003PRCP99
0115827650999991992043018004-07333-047467FM-12+021299999V0201801N00361045001CN0200001N9+03301+02121100951ADDAA106000091AG14000GF105991031031008001021001MA1999999098581MD1999999+0121REMSYN011333   58012EQDQ01  00003PRCP99
0115827650999991992050318004-07333-047467FM-12+021299999V0200501N00311220001CN0200001N9+03051+02311100921ADDAA106000091AG14000GF104991041031008001001001MA1999999098531MD1999999-0391REMSYN011333   59039EQDQ01  00003PRCP99
0115827650999991992051518004-07333-047467FM-12+021299999V0200901N00211220001CN0200001N9+03441+01801100921ADDAA106000091AG14000GF102991021011008001001001MA1999999098551MD1999999-0121REMSYN011333   59012EQDQ01  00003PRCP99
0134827650999991992051812004-07333-047467FM-12+021299999V0201401N00101220001CN0200001N9+02711+02261101441ADDAA106000091AG14000GF104991041011008001001001KA1999N+02201MA1999999099051MD1999999+0131REMSYN017333   20220 58013EQDQ01  00003PRCP99
0115827650999991992051818004-07333-047467FM-12+021299999V0203601N00151220001CN0200001N9+03381+01981101021ADDAA106000091AG14000GF104991031031008001021001MA1999999098651MD1999999+0131REMSYN011333   58013EQDQ01  00003PRCP99
0134827650999991992051900004-07333-047467FM-12+021299999V0200501N00101220001CN0200001N9+02631+02161101241ADDAA106000091AG14000GF101991011011008001001001KA1999M+03421MA1999999098851MD1999999+0091REMSYN017333   10342 58009EQDQ01  00003PRCP99
0143827650999991992052118004-07333-047467FM-12+021299999V0203601N00261012001CN0200001N9+02501+02211101231ADDAA106001091AG10002AY121999AY221999GF107991071081008001001001MA1999999098821MD1999999+0171MW1211REMSYN017333   58017 69981EQDQ01  00103PRCP99
0134827650999991992052712004-07333-047467FM-12+021299999V0202301N00051220001CN0200001N9+02741+02071101331ADDAA106000091AG14000GF102991021011008001001001KA1999N+02021MA1999999098951MD1999999-0291REMSYN017333   20202 59029EQDQ01  00003PRCP99
0115827650999991992052718004-07333-047467FM-12+021299999V0200501N00261220001CN0200001N9+03351+01631100921ADDAA106000091AG14000GF102991021011008001001001MA1999999098541MD1999999-0251REMSYN011333   59025EQDQ01  00003PRCP99
0134827650999991992053012004-07333-047467FM-12+021299999V0201401N00151220001CN0200001N9+02761+01971101511ADDAA106000091AG14000GF104991001001999999001051KA1999N+02021MA1999999099131MD1999999+0151REMSYN017333   20202 58015EQDQ01  00003PRCP99
0134827650999991992060212004-07333-047467FM-12+021299999V0200901N00151220001CN0200001N9+02701+02081101631ADDAA106000091AG14000GF103991031011008001001001KA1999N+02171MA1999999099231MD1999999+0111REMSYN017333   20217 58011EQDQ01  00003PRCP99
0115827650999991992060218004-07333-047467FM-12+021299999V0200501N00151007501CN0200001N9+03321+01851101141ADDAA106000091AG14000GF105991051011008001001001MA1999999098761MD1999999+0031REMSYN011333   58003EQDQ01  00003PRCP99
0081827650999991992060312004-07333-047467FM-12+021299999V0201801N00101220001CN0200001N9+02761+02041101521ADDAA106000091AG14000GF100991001001999999001001MA1999999099131EQDQ01  00003PRCP99
0134827650999991992060512004-07333-047467FM-12+021299999V0202701N00101220001CN0200001N9+02781+02061101471ADDAA106000091AG14000GF102991001001999999001041KA1999N+02161MA1999999099081MD1999999-0021REMSYN017333   20216 59002EQDQ01  00003PRCP99
0127827650999991992060518004-07333-047467FM-12+021299999V0200501N00571045001CN0200001N9+02751+02361101101ADDAA106025091AG10002GF106991031031008001021041MA1999999098711MD1999999+0031MW1211REMSYN017333   58003 60251EQDQ01  02503PRCP99
0134827650999991992060812004-07333-047467FM-12+021299999V0201401N00101220001CN0200001N9+02581+01781101581ADDAA106000091AG14000GF102991011011012501031001KA1999N+01831MA1999999099171MD1999999+0011REMSYN017333   20183 58001EQDQ01  00003PRCP99
0115827650999991992060818004-07333-047467FM-12+021299999V0200501N00361220001CN0200001N9+03361+01261101181ADDAA106000091AG14000GF102991021011008001001001MA1999999098791MD1999999+0031REMSYN011333   58003EQDQ01  00003PRCP99
0134827650999991992061212004-07333-047467FM-12+021299999V0202701N00101220001CN0200001N9+02701+02131101711ADDAA106000091AG14000GF102991021011008001001001KA1999N+02051MA1999999099311MD1999999+0001REMSYN017333   20205 58000EQDQ01  00003PRCP99
0115827650999991992061218004-07333-047467FM-12+021299999V0200901N00261007501CN0200001N9+03351+01671101271ADDAA106000091AG14000GF105991051021008001001001MA1999999098881MD1999999-0041REMSYN011333   59004EQDQ01  00003PRCP99
0115827650999991992061718004-07333-047467FM-12+021299999V0201401N00261220001CN0200001N9+03121+01301101441ADDAA106000091AG14000GF102991011011008001001041MA1999999090041MD1999999+0041REMSYN011333   58004EQDQ01  00003PRCP99
0134827650999991992062012004-07333-047467FM-12+021299999V0200901N00361220001CN0200001N9+02601+01451101691ADDAA106000091AG14000GF104991011011008001001041KA1999N+01971MA1999999099281MD1999999+0021REMSYN017333   20197 58002EQDQ01  00003PRCP99
0134827650999991992062312004-07333-047467FM-12+021299999V0200901N00361220001CN0200001N9+02801+01751101761ADDAA106000091AG14000GF102991021011008001001001KA1999N+02301MA1999999099371MD1999999+0041REMSYN017333   20230 58004EQDQ01  00003PRCP99
0115827650999991992062318004-07333-047467FM-12+021299999V0200901N002119999999N0200001N9+03361+01601101301ADDAA106000091AG14000GF107991021021008001001001MA1999999098931MD1999999+0041REMSYN011 333 58004?EQDQ01  00003PRCP99
0150827650999991992062612004-07333-047467FM-12+021299999V0200901N00311220001CN0200001N9+02731+01621101621ADDAA106000091AG14000GA1001+999999999GF100991001001999999001001KA1999N+02041MA1999999099231MD1999999+0011REMSYN017 333 20204 58001?EQDQ01  00003PRCP99
0115827650999991992062618004-07333-047467FM-12+021299999V0200501N00311220001CN0200001N9+03401+01541101241ADDAA106000091AG14000GF104991031021008001001041MA1999999098861MD1999999+0011REMSYN011 333 58001?EQDQ01  00003PRCP99
0134827650999991992062912004-07333-047467FM-12+021299999V0200901N00151220001CN0200001N9+02761+01941101691ADDAA106000091AG14000GF102991021011008001001001KA1999N+02021MA1999999099291MD1999999+0031REMSYN017 333 20202 58003?EQDQ01  00003PRCP99
0115827650999991992062918004-07333-047467FM-12+021299999V0200501N00311220001CN0200001N9+03251+01861101341ADDAA106000091AG14000GF104991041021008001001001MA1999999098951MD1999999+0121REMSYN011 333 58012?EQDQ01  00003PRCP99
0115827650999991992070218004-07333-047467FM-12+021299999V0200901N00261220001CN0200001N9+03521+02451101321ADDAA106000091AG14000GF104991041021008001001001MA1999999098931MD1999999+0061REMSYN011 333 58006?EQDQ01  00003PRCP99
0115827650999991992070818004-07333-047467FM-12+021299999V0200901N00361220001CN0200001N9+03361+01411101301ADDAA106000091AG14000GF104991041021008001001001MA1999999098951MD1999999-0051REMSYN011 333 59005?EQDQ01  00003PRCP99
0150827650999991992071412004-07333-047467FM-12+021299999V0201401N00151220001CN0200001N9+02741+02701101721ADDAA106000091AG14000GA1001+999999999GF100991001001999999001001KA1999N+01931MA1999999099321MD1999999-0061REMSYN017 333 20193 59006?EQDQ01  00003PRCP99
0115827650999991992071418004-07333-047467FM-12+021299999V0200501N00311220001CN0200001N9+03371+01141101331ADDAA106000091AG14000GF102991021011008001001001MA1999999098941MD1999999-0031REMSYN011 333 59003?EQDQ01  00003PRCP99
0150827650999991992072300004-07333-047467FM-12+021299999V0201801N00151220001CN0200001N9+02801+01201101681ADDAA106000091AG14000GA1001+999999999GF100991001001999999001001KA1999M+03441MA1999999099281MD1999999+0001REMSYN017 333 10344 58000?EQDQ01  00003PRCP99
0150827650999991992072312004-07333-047467FM-12+021299999V0201401N00151220001CN0200001N9+02501+01261101891ADDAA106000091AG14000GA1001+999999999GF100991001001999999001001KA1999N+01771MA1999999099491MD1999999-0021REMSYN017 333 20177 59002?EQDQ01  00003PRCP99
0131827650999991992072318004-07333-047467FM-12+021299999V0200901N00311220001CN0200001N9+03471+00981101431ADDAA106000091AG14000GA1001+999999999GF100991001001999999001001MA1999999099031MD1999999-0041REMSYN011 333 59004?EQDQ01  00003PRCP99
0134827650999991992072612004-07333-047467FM-12+021299999V0200401N00571220001CN0200001N9+02771+01531101881ADDAA106000091AG14000GF102991021021008001001001KA1999N+02161MA1999999099491MD1999999+0011REMSYN017 333 20216 58001?EQDQ01  00003PRCP99
0134827650999991992072900004-07333-047467FM-12+021299999V0200901N00101220001CN0200001N9+02781+01371101631ADDAA106000091AG14000GF102991021021008001001001KA1999M+03421MA1999999099251MD1999999-0021REMSYN017 333 10342 59002?EQDQ01  00003PRCP99
0150827650999991992080100004-07333-047467FM-12+021299999V0201401N00151220001CN0200001N9+02921+01261101471ADDAA106000091AG14000GA1001+999999999GF100991001001999999001001KA1999M+03561MA1999999099091MD1999999+0041REMSYN017 333 10356 58004?EQDQ01  00003PRCP99
0134827650999991992080112004-07333-047467FM-12+021299999V0201401N00151220001CN0200001N9+02861+01521101691ADDAA106000091AG14000GF102991021011008001091091KA1999N+02121MA1999999099311MD1999999-0111REMSYN017 333 20212 59011?EQDQ01  00003PRCP99
0115827650999991992080118004-07333-047467FM-12+021299999V0203601N00151220001CN0200001N9+03641+01321101221ADDAA106000091AG14000GF104991041011008001001001MA1999999098851MD1999999-0081REMSYN011 333 59008?EQDQ01  00003PRCP99
0134827650999991992080412004-07333-047467FM-12+021299999V0200501N00461220001CN0200001N9+02891+01391101881ADDAA106000091AG14000GF103991011011008001061001KA1999N+02161MA1999999099501MD1999999+0221REMSYN017 333 20216 58022?EQDQ01  00003PRCP99
0115827650999991992080418004-07333-047467FM-12+021299999V0201401N00261007501CN0200001N9+03301+01151101451ADDAA106000091AG14000GF106991061021008001001001MA1999999099061MD1999999+0221REMSYN011 333 58022?EQDQ01  00003PRCP99
0150827650999991992080700004-07333-047467FM-12+021299999V0200901N00101220001CN0200001N9+02821+01411101621ADDAA106000091AG14000GA1001+999999999GF100991001001999999001001KA1999M+03461MA1999999099231MD1999999+0041REMSYN017 333 10346 58004?EQDQ01  00003PRCP99
0150827650999991992080712004-07333-047467FM-12+021299999V0200901N00411220001CN0200001N9+02701+01151101811ADDAA106000091AG14000GA1001+999999999GF100991001001999999001001KA1999N+01991MA1999999099421MD1999999-0121REMSYN017 333 20199 59012?EQDQ01  00003PRCP99
0150827650999991992081012004-07333-047467FM-12+021299999V0200901N00051220001CN0200001N9+02871+02231101381ADDAA106000091AG14000GA1001+999999999GF100991001001999999001001KA1999N+01971MA1999999099321MD1999999+0001REMSYN017 333 20197 58000?EQDQ01  00003PRCP99
0115827650999991992081018004-07333-047467FM-12+021299999V0201401N00261220001CN0200001N9+03491+02191101231ADDAA106000091AG14000GF102991011011008001001011MA1999999098851MD1999999+0061REMSYN011 333 58006?EQDQ01  00003PRCP99
0115827650999991992081318004-07333-047467FM-12+021299999V0203201N00151105001CN0200001N9+03561+01681101251ADDAA106000091AG14000GF105991041021008001001021MA1999999098881MD1999999-0041REMSYN011 333 59004?EQDQ01  00003PRCP99
0134827650999991992081600004-07333-047467FM-12+021299999V0201401N00101220001CN0200001N9+03001+01881101281ADDAA106000091AG14000GF103991031001008001031001KA1999M+03501MA1999999098911MD1999999-0021REMSYN017 333 10350 59002?EQDQ01  00003PRCP99
0134827650999991992081612004-07333-047467FM-12+021299999V0200501N00261220001CN0200001N9+03031+01691101641ADDAA106000091AG14000GF104991021011008001031041KA1999N+02351MA1999999099271MD1999999+0031REMSYN017 333 20235 58003?EQDQ01  00003PRCP99
0097827650999991992081900004-07333-047467FM-12+021299999V0200901N00211220001CN0200001N9+02821+01411101461ADDAA106000091AG14000GA1001+999999999GF100991001001999999001001MA1999999099081EQDQ01  00003PRCP99
0134827650999991992081912004-07333-047467FM-12+021299999V0200501N00511220001CN0200001N9+99999+99999101751ADDAA106000091AG14000GF103991021011008001041001KA1999N+02191MA1999999099371MD1999999-0031REMSYN017 333 20219 59003?EQDQ01  00003PRCP99
0115827650999991992081918004-07333-047467FM-12+021299999V0200501N00311045001CN0200001N9+03551+01461101311ADDAA106000091AG14000GF106991041021008001011041MA1999999098941MD1999999+0051REMSYN011 333 58005?EQDQ01  00003PRCP99
0150827650999991992083112004-07333-047467FM-12+021299999V0200501N00311220001CN0200001N9+03061+01521101551ADDAA106000091AG14000GA1001+999999999GF100991001001999999001001KA1999N+02291MA1999999099191MD1999999-0171REMSYN017 333 20229 59017?EQDQ01  00003PRCP99
0150827650999991992091512004-07333-047467FM-12+021299999V0200501N00511220001CN0200001N9+03051+01451101481ADDAA106000091AG14000GA1001+999999999GF100991001001999999001001KA1999N+02331MA1999999099121MD1999999+0231REMSYN017 333 20233 58023?EQDQ01  00003PRCP99
0115827650999991992091518004-07333-047467FM-12+021299999V0200901N00311007501CN0200001N9+03601+01411100961ADDAA106000091AG14000GF106991061021008001001001MA1999999098611MD1999999+0191REMSYN011 333 58019?EQDQ01  00003PRCP99
0115827650999991992091618004-07333-047467FM-12+021299999V0200901N00311007501CN0200001N9+03491+01521100861ADDAA106000091AG14000GF105991051021008001001001MA1999999098511MD1999999-0101REMSYN011 333 59010?EQDQ01  00003PRCP99
0156827650999991992091712004-07333-047467FM-12+021299999V0203601N00151220001CN0020001N9+02961+01901101421ADDAA106000091AG10000AY121999AY211999GF104991041021008001001001KA1999N+02321MA1999999099051MD1999999-0011MW1041REMSYN017 333 20232 59001?EQDQ01  00003PRCP99
0115827650999991992091718004-07333-047467FM-12+021299999V0201801N00151220001CN0200001N9+03571+01591100881ADDAA106000091AG14000GF104991041021008001001001MA1999999098531MD1999999+0021REMSYN011 333 58002?EQDQ01  00003PRCP99
0150827650999991992091800004-07333-047467FM-12+021299999V0203601N00051220001CN0200001N9+02881+01971101031ADDAA106000091AG14000GA1001+999999999GF100991001001999999001001KA1999M+03611MA1999999098671MD1999999-0051REMSYN017 333 10361 59005?EQDQ01  00003PRCP99
0156827650999991992091812004-07333-047467FM-12+021299999V0203601N00101007501CN0020001N9+02751+02021101481ADDAA106000091AG10000AY121999AY211999GF107991071021008001001001KA1999N+02421MA1999999099101MD1999999+0051MW1041REMSYN017 333 20242 58005?EQDQ01  00003PRCP99
0137827650999991992091818004-07333-047467FM-12+021299999V0202701N00211220001CN0020001N9+03361+01971100941ADDAA106000091AG10000AY121999AY211999GF104991041021008001001001MA1999999098581MD1999999+0051MW1041REMSYN011 333 58005?EQDQ01  00003PRCP99
0162827650999991992091912004-07333-047467FM-12+021299999V0200901N00671002101CN0020001N9+02101+02031101671ADDAA124022091AG10005AY161999AY221999GF108991081071002501999999KA1999N+02081MA1999999099211MD1999999+0151MW1631REMSYN023 333 20208 58015 60224?EQDQ01  02203PRCP99
0143827650999991992091918004-07333-047467FM-12+021299999V0202701N00151012001CN0200001N9+02391+02211101311ADDAA106038091AG10016AY191999AY261999GF108991081001012501021999MA1999999098871MD1999999+0291MW1021REMSYN017 333 58029 60381?EQDQ01  03803PRCP99
0140827650999991992092012004-07333-047467FM-12+021299999V0200501N00211045001CN0200001N9+02421+02111101571ADDAA124038091AG10000GF108991041021008001021999KA1999N+01981MA1999999099141MD1999999-0111REMSYN023 333 20198 59011 60384?EQDQ01  03803PRCP99
0134827650999991992092112004-07333-047467FM-12+021299999V0200901N00101220001CN0200001N9+02661+01871101471ADDAA106000091AG14000GF102991011011008001031001KA1999N+02181MA1999999099071MD1999999-0071REMSYN017 333 20218 59007?EQDQ01  00003PRCP99
0115827650999991992092118004-07333-047467FM-12+021299999V0201401N00211007501CN0200001N9+03461+01731100941ADDAA106000091AG14000GF106991061021008001001001MA1999999098581MD1999999-0181REMSYN011 333 59018?EQDQ01  00003PRCP99
0134827650999991992100512004-07333-047467FM-12+021299999V0203601N00211220001CN0200001N9+02861+02161101311ADDAA106000091AG14000GF103991031011008001001001KA1999N+02301MA1999999098941MD1999999-0191REMSYN017 333 20230 59019?EQDQ01  00003PRCP99
0115827650999991992100518004-07333-047467FM-12+021299999V0203201N00101045001CN0200001N9+03311+01981100831ADDAA106000091AG14000GF108991031011008001021999MA1999999098471MD1999999-0151REMSYN011 333 59015?EQDQ01  00003PRCP99
0134827650999991992100612004-07333-047467FM-12+021299999V0203601N00361045001CN0200001N9+02701+01991101541ADDAA106000091AG14000GF105991031011008001051001KA1999N+02301MA1999999099151MD1999999+0211REMSYN017 333 20230 58021?EQDQ01  00003PRCP99
0115827650999991992100618004-07333-047467FM-12+021299999V0202301N00261045001CN0200001N9+02851+02041101241ADDAA106000091AG14000GF108991031011008001021999MA1999999098851MD1999999+0381REMSYN011 333 58038?EQDQ01  00003PRCP99
0150827650999991992101200004-07333-047467FM-12+021299999V0203601N00051220001CN0200001N9+02481+02271101251ADDAA106000091AG14000GA1001+999999999GF100991001001999999001001KA1999M+02961MA1999999098841MD1999999-0191REMSYN017 333 10296 59019?EQDQ01  00003PRCP99
0134827650999991992101212004-07333-047467FM-12+021299999V0200901N00101220001CN0100001N9+02601+02291101531ADDAA106000091AG10000GF103991031021008001001001KA1999N+02091MA1999999099121MD1999999-0161REMSYN017 333 20209 59016?EQDQ01  00003PRCP99
0150827650999991992101312004-07333-047467FM-12+021299999V0203601N00151220001CN0100001N9+02801+02081101501ADDAA106000091AG10000GA1001+999999999GF100991001001999999001001KA1999N+02261MA1999999099111MD1999999-0011REMSYN017 333 20226 59001?EQDQ01  00003PRCP99
0115827650999991992101318004-07333-047467FM-12+021299999V0200501N00211220001CN0100001N9+03511+01981100991ADDAA106000091AG10000GF104991999999008001999999MA1999999098631MD1999999-0041REMSYN011 333 59004?EQDQ01  00003PRCP99
0115827650999991992101418004-07333-047467FM-12+021299999V0203601N00311220001CN0200001N9+03221+02081101231ADDAA106000091AG14000GF101991081051008001021999MA1999999098851MD1999999+0201REMSYN011 333 58020?EQDQ01  00003PRCP99
0115827650999991992101518004-07333-047467FM-12+021299999V0203201N00261220001CN0200001N9+03281+02101101171ADDAA106000091AG14000GF104991031021008001041001MA1999999098811MD1999999+0041REMSYN011 333 58004?EQDQ01  00003PRCP99
0146827650999991992101612004-07333-047467FM-12+021299999V0200501N00101007501CN0200001N9+02451+02211101741ADDAA124004091AG10000GF108991081051008001999999KA1999N+02311MA1999999099321MD1999999+0111MW1511REMSYN023 333 20231 58011 60044?EQDQ01  00403PRCP99
0134827650999991992101712004-07333-047467FM-12+021299999V0203601N00151007501CN0200001N9+02901+02171101581ADDAA106000091AG14000GF106991061021008001001001KA1999N+02111MA1999999099701MD1999999-0121REMSYN017 333 20211 59012?EQDQ01  00003PRCP99
0115827650999991992101718004-07333-047467FM-12+021299999V0201401N00211007501CN0200001N9+03481+01571101021ADDAA106000091AG14000GF106991061011008001001001MA1999999098661MD1999999-0111REMSYN011 333 59011?EQDQ01  00003PRCP99
0134827650999991992101800004-07333-047467FM-12+021299999V0200501N00101220001CN0200001N9+02701+01801101121ADDAA106000091AG14000GF102991021011008001001001KA1999M+03541MA1999999098751MD1999999-0191REMSYN017 333 10354 59019?EQDQ01  00003PRCP99
0150827650999991992101900004-07333-047467FM-12+021299999V0203201N00101220001CN0200001N9+02861+01921101101ADDAA106000091AG14000GA1001+999999999GF100991001001999999001001KA1999M+03501MA1999999098741MD1999999-0011REMSYN017 333 10350 59001?EQDQ01  00003PRCP99
0130827650999991992101912004-07333-047467FM-12+021299999V0203601N001519999999N0020001N9+02891+02001101421ADDAA106000091AG14001AY151999AY211999KA1999N+02101MA1999999099051MD1999999-0091MW1021REMSYN017 333 20210 59009?EQDQ01  00003PRCP99
0115827650999991992101918004-07333-047467FM-12+021299999V0200501N00151220001CN0200001N9+03581+01701100911ADDAA106000091AG14000GF104991041021008001041001MA1999999098561MD1999999-0061REMSYN011 333 59006?EQDQ01  00003PRCP99
0110827650999991992102012004-07333-047467FM-12+021299999V0203601N005119999999N0020001N9+02921+02041101501ADDAA106000091AG10000AY121999AY211999KA1999N+02091MA1999999099131MW1051REMSYN011 333 20209?EQDQ01  00003PRCP99
0153827650999991992102018004-07333-047467FM-12+021299999V0203201N00261001201CN0020001N9+03341+02021101041ADDAA106000091AG10000AY111999AY211999GA1091+999999999GF109991091999999999999999MA1999999098671MD1999999+0111MW1051REMSYN011 333 58011?EQDQ01  00003PRCP99
0178827650999991992102112004-07333-047467FM-12+021299999V0202701N00101220001CN0040001N9+02841+02561101541ADDAA106000091AG10000AY141999AY241999GA1001+999999999GF100991001001999999001001KA1999N+02361MA1999999099161MD1999999+0031MW1041REMSYN023 333 20236 58003 58003?EQDQ01  00003PRCP99
0178827650999991992102212004-07333-047467FM-12+021299999V0203201N00101220001CN0040001N9+02681+02201101631ADDAA124000191AG13000AY141999AY241999GA1001+999999999GF100991001001999999001001KA1999N+02201MA1999999099221MD1999999+0061MW1041REMSYN023 333 20220 58006 69924?EQDQ01  00013PRCP99
0126827650999991992102312004-07333-047467FM-12+021299999V0203601N00211007501CN0200001N9+02561+02231101581ADDAG12000AY141999AY241999GF108991081051008001999999KA1999N+02371MA1999999099181MD1999999-0041MW1511REMSYN017 333 20237 59004?
0115827650999991992102318004-07333-047467FM-12+021299999V0203201N00211012001CN0200001N9+03341+02021101011ADDAA106000091AG14000GF106991061081008001001001MA1999999098651MD1999999+0001REMSYN011 333 58000?EQDQ01  00003PRCP99
0134827650999991992102400004-07333-047467FM-12+021299999V0201401N00101007501CN0200001N9+02561+02191101401ADDAA106000091AG14000GF108991081051008001011011KA1999M+03341MA1999999099001MD1999999-0031REMSYN017 333 10334 59003?EQDQ01  00003PRCP99
0134827650999991992102412004-07333-047467FM-12+021299999V0203601N00151007501CN0200001N9+02601+02191101581ADDAA106000091AG14000GF106991061011008001031001KA1999N+02251MA1999999099131MD1999999-0051REMSYN017 333 20225 59005?EQDQ01  00003PRCP99
0115827650999991992102418004-07333-047467FM-12+021299999V0202701N00211007501CN0200001N9+03341+02021101021ADDAA106000091AG14000GF106991061021008001001001MA1999999098651MD1999999+0001REMSYN011 333 58000?EQDQ01  00003PRCP99
0134827650999991992102512004-07333-047467FM-12+021299999V0203601N00211015001CN0200001N9+02861+02261101381ADDAA106000091AG14000GF106991061001017501031001KA1999N+02371MA1999999099011MD1999999-0121REMSYN017 333 20237 59012?EQDQ01  00003PRCP99
0152827650999991992102612004-07333-047467FM-12+021299999V0202301N00101220001CN0020001N9+02651+02231101511ADDAA106000091AG10000AY141999AY241999GA1001+999999999GF100991001001999999001001KA1999N+02391MA1999999099121MW1041REMSYN011 333 20239?EQDQ01  00003PRCP99
0137827650999991992102618004-07333-047467FM-12+021299999V0202301N00101007501CN0200001N9+03071+02191101071ADDAA106000091AG14000AY141999AY241999GF107991051031008001051001MA1999999098691MD1999999+0161MW1171REMSYN011 333 58016?EQDQ01  00003PRCP99
0156827650999991992102712004-07333-047467FM-12+021299999V0203601N00101007501CN0040001N9+02801+02251101401ADDAA106000091AG10000AY141999AY241999GF108991051021008001021999KA1999N+02341MA1999999099011MD1999999-0111MW1461REMSYN017 333 20234 59011?EQDQ01  00003PRCP99
0117827650999991992102718004-07333-047467FM-12+021299999V0200501N00311045001CN0100001N9+03291+02031100841ADDAA106000091AG10000AY141999AY241999GF108991041021008001021999MA1999999098471MW1051REMSYN005 333?EQDQ01  00003PRCP99
0134827650999991992102812004-07333-047467FM-12+021299999V0201401N00101012001CN0200001N9+02581+02121101371ADDAA106000091AG14000GF108991081081008001999999KA1999N+02131MA1999999099011MD1999999+0001REMSYN017 333 20213 58000?EQDQ01  00003PRCP99
0134827650999991992102912004-07333-047467FM-12+021299999V0200501N00261007501CN0200001N9+02601+02141101481ADDAA106000091AG14000GF108991081051008001999999KA1999N+02351MA1999999099081MD1999999+0071REMSYN017 333 20235 58007?EQDQ01  00003PRCP99
0134827650999991992103000004-07333-047467FM-12+021299999V0203601N00101220001CN0200001N9+02581+02331101131ADDAA106000091AG14000GF102991021051008001001001KA1999M+02941MA1999999098741MD1999999+0001REMSYN017 333 10294 59000?EQDQ01  00003PRCP99
0162827650999991992103012004-07333-047467FM-12+021299999V0203601N00361007501CN0040001N9+02721+01901101511ADDAA124005091AG13000AY141999AY241999GF106991061021008001001001KA1999N+02251MA1999999099111MD1999999+0031MW1041REMSYN023 333 20225 58003 60054?EQDQ01  00503PRCP99
0115827650999991992103018004-07333-047467FM-12+021299999V0200901N00211045001CN0100001N9+02961+01961101191ADDAA106000091AG10000GF108991011021008001021999MA1999999098811MD1999999+0181REMSYN011 333 58018?EQDQ01  00003PRCP99
0134827650999991992103112004-07333-047467FM-12+021299999V0201401N00101007501CN0200001N9+02361+02191101491ADDAA106000091AG14000GF108991081051008001999999KA1999N+02131MA1999999099071MD1999999-0041REMSYN017 333 20213 59004?EQDQ01  00003PRCP99
0137827650999991992110218004-07333-047467FM-12+021299999V0200501N00151007501CN0040001N9+02921+02171100861ADDAA106000091AG10000AY121999AY221999GF108991051021008001021999MA1999999098741MD1999999-0051MW1041REMSYN011 333 59005?EQDQ01  00003PRCP99
0154827650999991992110312004-07333-047467FM-12+021299999V0203601N00211012001CN0100001N9+02661+02221101341ADDAA106000091AA224000191AG10006AY161999AY221999GF108991061081008001021999KA1999N+02401MA1999999098951MD1999999+0061MW1421REMSYN023 333 20240 58006 69914?
0115827650999991992110318004-07333-047467FM-12+021299999V0203601N00101012001CN0200001N9+03201+02061100881ADDAA106000091AG14000GF107991051081008001021001MA1999999098521MD1999999+0051REMSYN011 333 58005?EQDQ01  00003PRCP99
0134827650999991992110400004-07333-047467FM-12+021299999V0202301N00211045001CN0200001N9+02661+02271101131ADDAA106000091AG14000GF108991041041008001021999KA1999M+03251MA1999999098741MD1999999+0041REMSYN017 333 10325 58004?EQDQ01  00003PRCP99
0134827650999991992110412004-07333-047467FM-12+021299999V0200901N00151009001CN0200001N9+02661+02241101341ADDAA106000091AG14000GF108991071081004501021999KA1999N+02381MA1999999098951MD1999999+0001REMSYN017 333 20238 58000?EQDQ01  00003PRCP99
0115827650999991992110418004-07333-047467FM-12+021299999V0201401N00051004201CN0200001N9+02571+02351100911ADDAA106000091AG14000GF108991071071004501021999MA1999999098511MD1999999-0011REMSYN011 333 59001?EQDQ01  00003PRCP99
0134827650999991992110512004-07333-047467FM-12+021299999V0203601N00151004201CN0200001N9+02571+02311101291ADDAA106000091AG14000GF108991071031004501021999KA1999N+02281MA1999999098881MD1999999-0071REMSYN017 333 20228 59007?EQDQ01  00003PRCP99
0140827650999991992110612004-07333-047467FM-12+021299999V0201401N00101012001CN0200001N9+02411+02171101291ADDAA124018091AG10000GF105991051081008001001001KA1999N+02151MA1999999098881MD1999999+0001REMSYN023 333 20215 58000 60184?EQDQ01  01803PRCP99
0115827650999991992110618004-07333-047467FM-12+021299999V0202701N00151220001CN0200001N9+03011+02051100961ADDAA106000091AG14000GF104991041021008001011011MA1999999098521MD1999999-0031REMSYN011 333 59003?EQDQ01  00003PRCP99
0134827650999991992110712004-07333-047467FM-12+021299999V0202301N00211007501CN0200001N9+02571+02311101241ADDAA106000091AG14000GF108991051071008001021999KA1999N+02221MA1999999098841MD1999999-0041REMSYN017 333 20222 59004?EQDQ01  00003PRCP99
0135827650999991992110718004-07333-047467FM-12+021299999V0203601N00151045001CN0040001N9+02451+02131101081ADDAA106000691AA299000591AG10019AY191999AY251999GF108991041051004501021999MA1999999098661MD1999999+0141MW1601REMSYN017 333 58014 69961?
0132827650999991992111112004-07333-047467FM-12+021299999V0203601N00101012001CN0200001N9+02741+02241101361ADDAA124000491AA299000591AG10000GF106991061081008001001001KA1999N+02341MA1999999098981MD1999999-0081REMSYN023 333 20234 59008 69944?
0162827650999991992111212004-07333-047467FM-12+021299999V0203201N00411007501CN0040001N9+02361+02291101421ADDAA124047091AG10001AY151999AY251999GF108991081051008001021999KA1999N+02181MA1999999099001MD1999999+0021MW1651REMSYN023 333 20218 58002 60474?EQDQ01  04703PRCP99
0115827650999991992111218004-07333-047467FM-12+021299999V0200901N00151012001CN0200001N9+02841+01961101101ADDAA106000091AG14000GF108991051081008001021999MA1999999098701MD1999999-0041REMSYN011 333 59004?EQDQ01  00003PRCP99
0134827650999991992111300004-07333-047467FM-12+021299999V0201801N00051007501CN0200001N9+02491+02361101141ADDAA106000091AG14000GF106991061051008001001001KA1999M+02871MA1999999098731MD1999999+0011REMSYN017 333 10287 58001?EQDQ01  00003PRCP99
0134827650999991992111312004-07333-047467FM-12+021299999V0201401N00051045001CN0100001N9+02601+02231101421ADDAA106000091AG14000GF106991031021008001041001KA1999N+02141MA1999999099021MD1999999+0021REMSYN017 333 20214 58002?EQDQ01  00003PRCP99
0134827650999991992111412004-07333-047467FM-12+021299999V0200501N00151012001CN0200001N9+02651+02311101361ADDAA106000091AG14000GF107991071081008001001001KA1999N+02311MA1999999098971MD1999999-0051REMSYN017 333 20231 59005?EQDQ01  00003PRCP99
0134827650999991992111612004-07333-047467FM-12+021299999V0203601N00261012001CN0200001N9+02741+02121101431ADDAA106000091AG14000GF108991061081008001021999KA1999N+02221MA1999999099031MD1999999-0121REMSYN017 333 20222 59012?EQDQ01  00003PRCP99
0115827650999991992111618004-07333-047467FM-12+021299999V0201801N00151045001CN0200001N9+02741+02321101101ADDAA106000091AG14000GF108991031051008001021999MA1999999098701MD1999999+0091REMSYN011 333 58009?EQDQ01  00003PRCP99
0115827650999991992111712004-07333-047467FM-12+021299999V0203601N00101007501CN0200001N9+02461+02251101441ADDAA106000091AG14000GF106991051021008001041001MA1999999099031MD1999999+0001REMSYN011 333 58000?EQDQ01  00003PRCP99
0115827650999991992111718004-07333-047467FM-12+021299999V0203201N00101045001CN0200001N9+03121+02141100981ADDAA106000091AG14000GF107991041081008001021001MA1999999098611MD1999999-0091REMSYN011 333 59009?EQDQ01  00003PRCP99
0150827650999991992111800004-07333-047467FM-12+021299999V0202301N00101220001CN0200001N9+02361+02251101181ADDAA106000091AG14000GA1001+999999999GF100991001001999999001001KA1999M+03161MA1999999098781MD1999999-0081REMSYN017 333 10316 59008?EQDQ01  00003PRCP99
0134827650999991992111812004-07333-047467FM-12+021299999V0202301N00101220001CN0200001N9+99999+99999101281ADDAA106000091AG14000GF102991011021008001041001KA1999N+02171MA1999999098881MD1999999-0151REMSYN017 333 20217 59015?EQDQ01  00003PRCP99
0134827650999991992112012004-07333-047467FM-12+021299999V0200501N00151045001CN0200001N9+02621+02141101531ADDAA106000091AG14000GF105991031011008001031001KA1999N+02181MA1999999099121MD1999999+0111REMSYN017 333 20218 58011?EQDQ01  00003PRCP99
0115827650999991992112018004-07333-047467FM-12+021299999V0201401N00151007501CN0200001N9+03071+02141101081ADDAA106000091AG14000GF106991051021008001041001MA1999999098961MD1999999-0051REMSYN011 333 59005?EQDQ01  00003PRCP99
0115827650999991992112118004-07333-047467FM-12+021299999V0203201N00101045001CN0200001N9+03161+02291100921ADDAA106000091AG14000GF106991041081008001021041MA1999999098551MD1999999-0141REMSYN011 333 59014?EQDQ01  00003PRCP99
0140827650999991992112212004-07333-047467FM-12+021299999V0200501N00051012001CN0200001N9+02541+02251101241ADDAA124004091AG10000GF108991051081008001021999KA1999N+02271MA1999999098831MD1999999-0271REMSYN023 333 20227 59027 60044?EQDQ01  00403PRCP99
0115827650999991992112218004-07333-047467FM-12+021299999V0200501N00151045001CN0200001N9+03241+02131100731ADDAA106000091AG14000GF105991041011008001021001MA1999999098371MD1999999-0181REMSYN011 333 59018?EQDQ01  00003PRCP99
0134827650999991992112312004-07333-047467FM-12+021299999V0202301N00101012001CN0200001N9+02621+02311101081ADDAA106000091AG14000GF107991071081008001001001KA1999N+02471MA1999999098701MD1999999-0131REMSYN017 333 20247 59013?EQDQ01  00003PRCP99
0137827650999991992112318004-07333-047467FM-12+021299999V0203201N00361045001CN0200001N9+03081+02291100771ADDAA106999999AG14000GF106991031031008001041001MA1999999098411MD1999999+0041MW1951REMSYN011 333 58004?EQDQ01  00003PRCP99Q02  00002PRCP06
0134827650999991992112400004-07333-047467FM-12+021299999V0203201N00151220001CN0200001N9+02701+02011100931ADDAA106000091AG14000GF101991011021008001001001KA1999M+03161MA1999999098551MD1999999+0081REMSYN017 333 10316 58008?EQDQ01  00003PRCP99
0121827650999991992112418004-07333-047467FM-12+021299999V0203201N00101007501CN0200001N9+02561+02171101181ADDAA106028091AG10000GF108991051051008001021999MA1999999098791MD1999999+0381REMSYN017 333 58038 60281?EQDQ01  02803PRCP99
0134827650999991992112500004-07333-047467FM-12+021299999V0209991C00001220001CN0200001N9+02401+02261101191ADDAA106000091AG14000GF103991031051008001001001KA1999M+02701MA1999999098791MD1999999+0241REMSYN017 333 10270 58024?EQDQ01  00003PRCP99
0140827650999991992112512004-07333-047467FM-12+021299999V0201401N00101004201CN0200001N9+02341+02201101471ADDAA124028091AG10000GF108991081051004501999999KA1999N+02121MA1999999099051MD1999999+0121REMSYN023 333 20212 58012 60284?EQDQ01  02803PRCP99
0135827650999991992112518004-07333-047467FM-12+021299999V0202701N00211045001CN0200001N9+02941+02311101071ADDAA106000491AA299000591AG10001AY151999AY251999GF105991031031008001041001MA1999999098681MD1999999-0111MW1951REMSYN017 333 59011 69941?
0143827650999991992112718004-07333-047467FM-12+021299999V0200901N00151007501CN0200001N9+02741+02301100911ADDAA106012091AG10006AY161999AY261999GF108991081071008001011041MA1999999098531MD1999999-0021MW1001REMSYN017 333 59002 60121?EQDQ01  01203PRCP99
0134827650999991992112912004-07333-047467FM-12+021299999V0209991C00001007501CN0200001N9+02601+02331101221ADDAA106000091AG14000GF106991061011008001001001KA1999N+02371MA1999999098831MD1999999-0081REMSYN017 333 20237 59008?EQDQ01  00003PRCP99
0134827650999991992113000004-07333-047467FM-12+021299999V0201401N00051045001CN0200001N9+02521+02381101171ADDAA106000091AG14000GF106991041011008001021001KA1999M+03001MA1999999098761MD1999999+0071REMSYN017 333 10300 58007?EQDQ01  00003PRCP99
0162827650999991992113012004-07333-047467FM-12+021299999V0200501N00151002101CN0040001N9+02181+99999101501ADDAA124073091AG10006AY161999AY261999GF108991081051002501999999KA1999N+02171MA1999999099071MD1999999+0241MW1611REMSYN023 333 20217 58024 60734?EQDQ01  07303PRCP99
0107827650999991992113018004-07333-047467FM-12+021299999V0200501N00311004201CN0200001N9+02421+02231101141ADDAG12006AY161999AY221999GF108991071051004501021999MA1999999098731MD1999999+0191MW1031REMSYN011 333 58019?
0162827650999991992120112004-07333-047467FM-12+021299999V0200501N00151045001CN0200001N9+02411+02151101391ADDAA124014091AG10006AY161999AY221999GF106991041081008001031001KA1999N+02141MA1999999098971MD1999999-0101MW1031REMSYN023 333 20214 59010 60144?EQDQ01  01403PRCP99
0120827650999991992120118004-07333-047467FM-12+021299999V0202701N00101012001CN0200001N9+02591+02391101181ADDAA106000491AA299000591AG10006AY161999AY221999GF107991061081008001021001MD1999999+0031MW1031REMSYN017 333 58003 69941?
0132827650999991992120212004-07333-047467FM-12+021299999V0200901N00101009001CN0200001N9+02441+02051101531ADDAA124000491AA299000591AG10000GF107991071081004501001001KA1999N+02261MA1999999099121MD1999999+0151REMSYN023 333 20226 58015 69944?
0115827650999991992120218004-07333-047467FM-12+021299999V0203201N00151220001CN0200001N9+03161+02231101081ADDAA106000091AG14000GF104991031021008001041001MA1999999098711MD1999999-0051REMSYN011 333 59005?EQDQ01  00003PRCP99
0066827650999991992120300004-07333-047467FM-12+021299999V0201401N002119999999N0200001N9+02541+02151999999ADDAA106000091AG14000GF108991999999008001999999EQDQ01  00003PRCP99
0121827650999991992120312004-07333-047467FM-12+021299999V0200901N00151045001CN0200001N9+02601+02351101521ADDAA124023091AG10000GF105991041021008001031001MA1999999099111MD1999999-0011REMSYN017 333 59001 60234?EQDQ01  02303PRCP99
0127827650999991992120318004-07333-047467FM-12+021299999V0203201N00151045001CN0200001N9+02581+02351101041ADDAA106015091AG10000GF105991031021008001031001MA1999999098641MD1999999-0071MW1971REMSYN017 333 59007 60151?EQDQ01  01503PRCP99
0140827650999991992120412004-07333-047467FM-12+021299999V0200901N00101012001CN0200001N9+02541+02311101351ADDAA124015091AG10000GF107991061081008001041001KA1999N+02321MA1999999098951MD1999999-0161REMSYN023 333 20232 59016 60154?EQDQ01  01503PRCP99
