0134827840999991992010112004-07317-039300FM-12+040999999V0201401N00211220001CN0200001N9+02861+01681101251ADDAA106000091AG14000GF101991011011008001001001KA1999N+02221MA1999999096611MD1999999-0231REMSYN017333   20222 59023EQDQ01  00003PRCP99
0134827840999991992010212004-07317-039300FM-12+040999999V0200501N00361220001CN0200001N9+02841+01671101211ADDAA106000091AG14000GF101991011011008001001001KA1999N+02501MA1999999096581MD1999999-0031REMSYN017333   20250 59003EQDQ01  00003PRCP99
0134827840999991992010312004-07317-039300FM-12+040999999V0200901N00311220001CN0200001N9+02841+01601101331ADDAA106000091AG14000GF101991011011008001001001KA1999N+02301MA1999999096691MD1999999+0111REMSYN017333   20230 58011EQDQ01  00003PRCP99
0115827840999991992010318004-07317-039300FM-12+040999999V0200901N00211220001CN0200001N9+03561+01061100821ADDAA106000091AG14000GF101991011011012501001001MA1999999096231MD1999999+0121REMSYN011333   58012EQDQ01  00003PRCP99
0134827840999991992010412004-07317-039300FM-12+040999999V0200901N00311220001CN0200001N9+02821+01651101411ADDAA106000091AG14000GF101991011011008001001001KA1999N+02401MA1999999096771MD1999999+0081REMSYN017333   20240 58008EQDQ01  00003PRCP99
0134827840999991992010512004-07317-039300FM-12+040999999V0200901N00151220001CN0200001N9+02801+01501101291ADDAA106000091AG14000GF100991001001999999001001KA1999N+02051MA1999999096651MD1999999-0121REMSYN017333   20205 59012EQDQ01  00003PRCP99
0115827840999991992010618004-07317-039300FM-12+040999999V0200501N00261220001CN0200001N9+03481+01411100641ADDAA106000091AG14000GF101991011011008001001001MA1999999096051MD1999999-0101REMSYN011333   59010EQDQ01  00003PRCP99
0134827840999991992010712004-07317-039300FM-12+040999999V0203601N00261220001CN0200001N9+02921+01711101081ADDAA106000091AG14000GF100991001001999999001001KA1999N+02131MA1999999096461MD1999999-0081REMSYN017333   20213 59008EQDQ01  00003PRCP99
0115827840999991992010718004-07317-039300FM-12+040999999V0200501N00311220001CN0200001N9+03581+01211100511ADDAA106000091AG14000GF100991001001999999001001MA1999999095931MD1999999-0121REMSYN011333   59012EQDQ01  00003PRCP99
0134827840999991992010800004-07317-039300FM-12+040999999V0203601N00261220001CN9999999N9+03031+01591100781ADDAA106000091AG14000GF100991001001999999001001KA1999M+03611MA1999999096191MD1999999-0111REMSYN017333   10361 59011EQDQ01  00003PRCP99
0115827840999991992010818004-07317-039300FM-12+040999999V0200501N00261012001CN0200001N9+03381+01571100691ADDAA106000091AG14000GF107991071081008001001001MA1999999096101MD1999999+0171REMSYN011333   58017EQDQ01  00003PRCP99
0134827840999991992011112004-07317-039300FM-12+040999999V0200501N00311012001CN0200001N9+02711+01781101221ADDAA106000091AG14000GF108991061081008001031999KA1999N+02171MA1999999096581MD1999999+0011REMSYN017333   20217 58001EQDQ01  00003PRCP99
0115827840999991992011118004-07317-039300FM-12+040999999V0200901N00261045001CN0200001N9+03271+01511100701ADDAA106000091AG14000GF108991021011008001021999MA1999999096101MD1999999+0001REMSYN011333   58000EQDQ01  00003PRCP99
0134827840999991992011200004-07317-039300FM-12+040999999V0202701N00051220001CN9999999N9+02641+01321100971ADDAA106000091AG14000GF100991001001999999001001KA1999M+03351MA1999999096341MD1999999+0111REMSYN017333   10335 58011EQDQ01  00003PRCP99
0134827840999991992011212004-07317-039300FM-12+040999999V0200501N00311007501CN0200001N9+02841+01761101211ADDAA106000091AG14000GF107991071021008001001001KA1999N+02511MA1999999096571MD1999999-0011REMSYN017333   20251 59001EQDQ01  00003PRCP99
0115827840999991992011218004-07317-039300FM-12+040999999V0200501N00411012001CN0200001N9+03481+01361100721ADDAA106000091AG14000GF106991051021012501021001MA1999999096141MD1999999+0041REMSYN011333   58004EQDQ01  00003PRCP99
0134827840999991992011312004-07317-039300FM-12+040999999V0200501N00931105001CN9999999N9+02861+02061100541ADDAA106000091AG14000GF107991011011008001001081KA1999N+02411MA1999999100281MD1999999-0181REMSYN017333   20241 59018EQDQ01  00003PRCP99
0134827840999991992011412004-07317-039300FM-12+040999999V0200501N00101007501CN0200001N9+02551+02021101071ADDAA106000091AG14000GF108991081071008001999999KA1999N+02361MA1999999096431MD1999999+0021REMSYN017333   20236 58002EQDQ01  00003PRCP99
0134827840999991992011600004-07317-039300FM-12+040999999V0201801N00101007501CN9999999N9+02741+01441101061ADDAA106000091AG14000GF108991081071008001999999KA1999M+03141MA1999999096421MD1999999+0121REMSYN017333   10314 58012EQDQ01  00003PRCP99
0162827840999991992011612004-07317-039300FM-12+040999999V0203201N00101007501CN0200001N9+02651+01901101241ADDAA124000191AG10001AY151999AY221999GF108991081071008001999999KA1999N+02421MA1999999096591MD1999999+0101MW1021REMSYN023333   20242 58010 69914EQDQ01  00013PRCP99
0115827840999991992011718004-07317-039300FM-12+040999999V0200901N00151045001CN0200001N9+03461+01571100871ADDAA106000091AG14000GF108991031021012501071999MA1999999096201MD1999999+0201REMSYN011333   58020EQDQ01  00003PRCP99
0134827840999991992011812004-07317-039300FM-12+040999999V0201401N00101045001CN0100001N9+02811+02061101331ADDAA106000091AG14000GF105991041081008001071001KA1999N+02381MA1999999096681MD1999999+0001REMSYN017333   20238 58000EQDQ01  00003PRCP99
0115827840999991992011918004-07317-039300FM-12+040999999V0200501N00101015001CN0200001N9+03361+01811100771ADDAA106000091AG14000GF108991051081012501021001MA1999999096171MD1999999+0011REMSYN011333   58001EQDQ01  00003PRCP99
0115827840999991992012118004-07317-039300FM-12+040999999V0209991C000019999999N0200001N9+03461+01641100651ADDAA106000091AG14000GF105991051021999999001001MA1999999096061MD1999999-0111REMSYN011333   59011EQDQ01  00003PRCP99
0154827840999991992012212004-07317-039300FM-12+040999999V0201401N00211220001CN0200001N9+02741+02071101141ADDAA124000291AA299000391AG10001AY151999AY221999GF104991031021008001071001KA1999N+02341MA1999999096501MD1999999-0011MW1021REMSYN023333   20234 59001 69924
0162827840999991992012312004-07317-039300FM-12+040999999V0203201N00151012001CN0100001N9+02631+02251101171ADDAA124023091AG10006AY161999AY221999GF108991081081008001999999KA1999N+02311MA1999999096541MD1999999+0041MW1021REMSYN023333   20231 58004 60234EQDQ01  02303PRCP99
0115827840999991992012318004-07317-039300FM-12+040999999V0203601N00311015001CN0200001N9+03381+01711100691ADDAA106000091AG14000GF108991061081012501071999MA1999999096101MD1999999+0051REMSYN011333   58005EQDQ01  00003PRCP99
0134827840999991992012412004-07317-039300FM-12+040999999V0200501N00101007501CN0200001N9+02601+02031101141ADDAA106000091AG14000GF108991081071008001999999KA1999N+02501MA1999999096501MD1999999-0041REMSYN017333   20250 59004EQDQ01  00003PRCP99
0134827840999991992012900004-07317-039300FM-12+040999999V0201401N00101007501CN9999999N9+02331+02031101241ADDAA106000091AG14000GF108991081071008001999999KA1999M+02871MA1999999096571MD1999999+0221REMSYN017333   10287 58022EQDQ01  00003PRCP99
0162827840999991992013012004-07317-039300FM-12+040999999V0202701N00101007501CN0200001N9+02261+02031101361ADDAA124059091AG10006AY161999AY221999GF108991081061008001999999KA1999N+02131MA1999999096671MD1999999+0041MW1021REMSYN023333   20213 58004 60594EQDQ01  05903PRCP99
0115827840999991992020118004-07317-039300FM-12+040999999V0200901N00101012001CN0200001N9+02991+01831101011ADDAA106000091AG14000GF108991081081008001999999MA1999999096371MD1999999+0081REMSYN011333   58008EQDQ01  00003PRCP99
0162827840999991992020212004-07317-039300FM-12+040999999V0200901N00261012001CN0200001N9+02661+02001101381ADDAA124004091AG10006AY161999AY221999GF108991081081008001999999KA1999N+02241MA1999999096721MD1999999-0061MW1021REMSYN023333   20224 59006 60044EQDQ01  00403PRCP99
0115827840999991992020218004-07317-039300FM-12+040999999V0203601N00211015001CN0200001N9+03081+01881100911ADDAA106000091AG14000GF107991061081012501031001MA1999999096291MD1999999-0081REMSYN011333   59008EQDQ01  00003PRCP99
0162827840999991992020412004-07317-039300FM-12+040999999V0209999999999007501CN0200001N9+02621+02011101271ADDAA124002091AG10006AY161999AY211999GF106991051021008001031001KA1999N+02261MA1999999096611MD1999999-0031MW1021REMSYN023333   20226 59003 60024EQDQ01  00203PRCP99
0115827840999991992020418004-07317-039300FM-12+040999999V0200501N00261012001CN0200001N9+03081+01921100881ADDAA106000091AG14000GF108991051021012501031999MA1999999096251MD1999999-0031REMSYN011333   59003EQDQ01  00003PRCP99
0134827840999991992020500004-07317-039300FM-12+040999999V0203601N00101220001CN9999999N9+02601+02191101101ADDAA106000091AG14000GF100991001001999999001001KA1999M+03191MA1999999096451MD1999999-0011REMSYN017333   10319 59001EQDQ01  00003PRCP99
0162827840999991992020512004-07317-039300FM-12+040999999V0200501N00151007501CN0200001N9+02531+02071101301ADDAA124017091AG10006AY161999AY211999GF106991051021008001031001KA1999N+02121MA1999999096641MD1999999+0031MW1021REMSYN023333   20212 58003 60174EQDQ01  01703PRCP99
0162827840999991992020612004-07317-039300FM-12+040999999V0200901N00211045001CN0200001N9+02641+02091101251ADDAA124003091AG10001AY151999AY221999GF107991031081008001031001KA1999N+02211MA1999999096591MD1999999-0051MW1021REMSYN023333   20221 59005 60034EQDQ01  00303PRCP99
0115827840999991992020618004-07317-039300FM-12+040999999V0203601N00311012001CN0200001N9+03061+01961100871ADDAA106000091AG14000GF107991051021012501031001MA1999999096241MD1999999-0051REMSYN011333   59005EQDQ01  00003PRCP99
0134827840999991992020700004-07317-039300FM-12+040999999V0201801N00151007501CN9999999N9+02631+02161100921ADDAA106000091AG14000GF108991081061008001999999KA1999M+03131MA1999999096291MD1999999-0251REMSYN017333   10313 59025EQDQ01  00003PRCP99
0162827840999991992020712004-07317-039300FM-12+040999999V0200501N00151007501CN0100001N9+02441+02011101231ADDAA124014091AG10006AY161999AY291999GF108991081071008001999999KA1999N+02291MA1999999096571MD1999999-0021MW1021REMSYN023333   20229 59002 60144EQDQ01  01403PRCP99
0162827840999991992020912004-07317-039300FM-12+040999999V0200901N00211007501CN0200001N9+02661+02021101271ADDAA124020091AG10006AY161999AY221999GF106991061021008001001001KA1999N+02181MA1999999096621MD1999999-0021MW1021REMSYN023333   20218 59002 60204EQDQ01  02003PRCP99
0134827840999991992021000004-07317-039300FM-12+040999999V0201801N00051007501CN9999999N9+02631+02051101241ADDAA106000091AG14000GF108991081071008001999999KA1999M+03121MA1999999096591MD1999999+0161REMSYN017333   10312 58016EQDQ01  00003PRCP99
0162827840999991992021012004-07317-039300FM-12+040999999V0200901N00211012001CN0200001N9+02621+02101101271ADDAA124000391AG10001AY151999AY221999GF108991081081008001999999KA1999N+02231MA1999999096621MD1999999+0001MW1021REMSYN023333   20223 58000 69934EQDQ01  00033PRCP99
0141827840999991992021218004-07317-039300FM-12+040999999V0200901N00311012001CN0200001N9+02891+01861101061ADDAA106000091AG14000GF108991051081008001071999MA1999999096401MD1999999-0041REMSYN011333   59004SYN020RJCT42  051043  1870EQDQ01  00003PRCP99
0115827840999991992021418004-07317-039300FM-12+040999999V0200901N00311012001CN0200001N9+02941+01911101031ADDAA106000091AG14000GF108991061081008001071999MA1999999096391MD1999999+0021REMSYN011333   58002EQDQ01  00003PRCP99
0162827840999991992021600004-07317-039300FM-12+040999999V0200901N00461045001CN0100001N9+02101+02071101481ADDAA106007091AG10027AY161999AY231999GF108991021071004501021999KA1999M+03171MA1999999096761MD1999999+0051MW1631REMSYN023333   10317 58005 60071EQDQ01  00703PRCP99
0162827840999991992021612004-07317-039300FM-12+040999999V0200901N00211012001CN0200001N9+02581+02101101591ADDAA124022091AG19006AY161999AY221999GF108991081081008001999999KA1999N+02101MA1999999096901MD1999999+0141MW1031REMSYN023333   20210 58014 60224EQDQ01  02203PRCP99
0162827840999991992021700004-07317-039300FM-12+040999999V0200501N00211004201CN0020001N9+02121+02071101551ADDAA106006091AG10027AY161999AY221999GF108991081061004501999999KA1999M+03011MA1999999096861MD1999999+0071MW1631REMSYN023333   10301 58007 60061EQDQ01  00603PRCP99
0162827840999991992021712004-07317-039300FM-12+040999999V0200901N00311012001CN0200001N9+02511+02051101391ADDAA124010091AG10006AY161999AY221999GF107991071081008001001001KA1999N+02101MA1999999096701MD1999999-0201MW1021REMSYN023333   20210 59020 60104EQDQ01  01003PRCP99
0121827840999991992021812004-07317-039300FM-12+040999999V0200901N00261220001CN0200001N9+02611+01961101221ADDAA199003091AG10000GF102991021021008001001001KA1999N+02201MA1999999096551MD1999999-0151REMSYN023333   20220 59015 60032
0162827840999991992021912004-07317-039300FM-12+040999999V0200901N00311045001CN0200001N9+02601+01991101211ADDAA124010091AG10006AY161999AY221999GF106991031021008001051081KA1999N+02131MA1999999096551MD1999999+0001MW1021REMSYN023333   20213 58000 60104EQDQ01  01003PRCP99
0115827840999991992021918004-07317-039300FM-12+040999999V0200901N00311220001CN0200001N9+02951+01911100881ADDAA106000091AG14000GF103991021021008001031001MA1999999096241MD1999999+0031REMSYN011333   58003EQDQ01  00003PRCP99
0162827840999991992022000004-07317-039300FM-12+040999999V0201801N00101045001CN0020001N9+02961+02041101251ADDAA106016091AG10027AY161999AY221999GF108991031071008001021999KA1999M+03011MA1999999096581MD1999999+0111MW1631REMSYN023333   10301 58011 60161EQDQ01  01603PRCP99
0162827840999991992022012004-07317-039300FM-12+040999999V0201401N00261045001CN0200001N9+02571+01901101301ADDAA124018091AG10006AY161999AY221999GF107991011011008001021001KA1999N+02111MA1999999096621MD1999999+0071MW1021REMSYN023333   20211 58007 60184EQDQ01  01803PRCP99
0115827840999991992022018004-07317-039300FM-12+040999999V0200901N00261012001CN0200001N9+02921+01951100961ADDAA106000091AG14000GF108991061081008001071999MA1999999096321MD1999999+0081REMSYN011333   58008EQDQ01  00003PRCP99
0115827840999991992022218004-07317-039300FM-12+040999999V0200901N00361220001CN0200001N9+02941+01881100951ADDAA106000091AG14000GF102991021021008001001001MA1999999096311MD1999999-0021REMSYN011333   59002EQDQ01  00003PRCP99
0134827840999991992022312004-07317-039300FM-12+040999999V0200901N00311007501CN0200001N9+02631+01881101271ADDAA106000091AG14000GF106991061021008001001001KA1999N+02051MA1999999096611MD1999999+0001REMSYN017333   20205 58000EQDQ01  00003PRCP99
0115827840999991992022318004-07317-039300FM-12+040999999V0200501N00211012001CN0200001N9+03021+01891101021ADDAA106000091AG14000GF106991061021012501001001MA1999999096381MD1999999+0071REMSYN011333   58007EQDQ01  00003PRCP99
0162827840999991992022412004-07317-039300FM-12+040999999V0200901N00211045001CN0200001N9+02541+01911101511ADDAA124011091AG10006AY161999AY221999GF105991041021008001011001KA1999N+02221MA1999999096831MD1999999+0221MW1031REMSYN023333   20222 58022 60114EQDQ01  01103PRCP99
0134827840999991992022500004-07317-039300FM-12+040999999V0209991C00001012001CN9999999N9+02401+02031101471ADDAA106000091AG14000GF107991071081008001001001KA1999M+03051MA1999999096791MD1999999+0011REMSYN017333   10305 58001EQDQ01  00003PRCP99
0162827840999991992022512004-07317-039300FM-12+040999999V0200901N00261045001CN0200001N9+02601+01921101461ADDAA124002091AG10006AY161999AY221999GF108991021021008001011999KA1999N+02201MA1999999096801MD1999999-0021MW1021REMSYN023333   20220 59002 60024EQDQ01  00203PRCP99
0162827840999991992022612004-07317-039300FM-12+040999999V0200901N00361045001CN0200001N9+02631+02141101551ADDAA124003091AG10006AY161999AY211999GF107991041081008001031001KA1999N+02231MA1999999096881MD1999999+0081MW1021REMSYN023333   20223 58008 60034EQDQ01  00303PRCP99
0115827840999991992022618004-07317-039300FM-12+040999999V0202301N00211012001CN0200001N9+02891+02321101181ADDAA106000091AG14000GF108991081081008001999999MA1999999096531MD1999999-0031REMSYN011333   59003EQDQ01  00003PRCP99
0134827840999991992022800004-07317-039300FM-12+040999999V0201401N00151220001CN9999999N9+02321+02051101401ADDAA106000091AG14000GF101991011081008001001001KA1999M+02961MA1999999096731MD1999999-0041REMSYN017333   10296 59004EQDQ01  00003PRCP99
0134827840999991992022812004-07317-039300FM-12+040999999V0201401N00151220001CN0200001N9+02581+02041101521ADDAA106000091AG14000GF102991011021008001011001KA1999N+02061MA1999999096841MD1999999-0171REMSYN017333   20206 59017EQDQ01  00003PRCP99
0115827840999991992022818004-07317-039300FM-12+040999999V0200501N00311007501CN0200001N9+02881+01831101191ADDAA106000091AG14000GF107991071061008001001001MA1999999096531MD1999999-0131REMSYN011333   59013EQDQ01  00003PRCP99
0134827840999991992030112004-07317-039300FM-12+040999999V0203601N00151220001CN0200001N9+02661+01871101461ADDAA106000091AG14000GF104991041021008001001001KA1999N+01981MA1999999096791MD1999999+0031REMSYN017333   20198 58003EQDQ01  00003PRCP99
0162827840999991992030212004-07317-039300FM-12+040999999V0202701N00101007501CN0040001N9+02221+02141101631ADDAA124037091AG10008AY161999AY221999GF108991081071008001999999KA1999N+02181MA1999999096931MD1999999+0141MW1211REMSYN023333   20218 58014 60374EQDQ01  03703PRCP99
0140827840999991992030312004-07317-039300FM-12+040999999V0200901N00311220001CN0200001N9+02641+01901101471ADDAA124002091AG10000GF102991021021008001001001KA1999N+02051MA1999999096791MD1999999-0141REMSYN023333   20205 59014 60024EQDQ01  00203PRCP99
0115827840999991992030318004-07317-039300FM-12+040999999V0200901N00151015001CN0200001N9+03041+01751101061ADDAA106000091AG14000GF106991061081012501001001MA1999999096421MD1999999-0041REMSYN011333   59004EQDQ01  00003PRCP99
0150827840999991992030512004-07317-039300FM-12+040999999V0200901N00211220001CN0200001N9+02631+01811101361ADDAA106000091AG14000GF101991011011008001001001KA1999M+99999MA1999999096701MD1999999+0001REMSYN017333   10210 58000EQDQ01  00003PRCP99Q02 +02102ATMX  
0115827840999991992030518004-07317-039300FM-12+040999999V0200901N00361220001CN0200001N9+03001+01711101011ADDAA106000091AG14000GF102991021021012501001001MA1999999096371MD1999999+0001REMSYN011333   58000EQDQ01  00003PRCP99
0162827840999991992030712004-07317-039300FM-12+040999999V0202701N00151007501CN0040001N9+02431+02051101271ADDAA124001091AG10006AY161999AY221999GF108991081071008001999999KA1999N+02301MA1999999096611MD1999999-0011MW1021REMSYN023333   20230 59001 60014EQDQ01  00103PRCP99
0162827840999991992030800004-07317-039300FM-12+040999999V0201401N00151012001CN9999999N9+02301+01791101121ADDAA106002091AG10008AY161999AY221999GF107991071081008001001001KA1999M+02901MA1999999096451MD1999999+0021MW1131REMSYN023333   10290 58002 60021EQDQ01  00203PRCP99
0140827840999991992030812004-07317-039300FM-12+040999999V0200901N00261012001CN0200001N9+02731+02121101191ADDAA124002091AG10000GF108991081081008001999999KA1999N+02271MA1999999096541MD1999999-0071REMSYN023333   20227 59007 60024EQDQ01  00203PRCP99
0115827840999991992030818004-07317-039300FM-12+040999999V0200901N00211012001CN0200001N9+03041+02091100751ADDAA106000091AG14000GF107991071081008001001001MA1999999096131MD1999999-0121REMSYN011333   59012EQDQ01  00003PRCP99
0162827840999991992031000004-07317-039300FM-12+040999999V0201801N00051220001CN9999999N9+02291+02161101081ADDAA106000191AG10001AY151999AY201999GF100991001001999999001001KA1999M+02891MA1999999096421MD1999999-0201MW1011REMSYN023333   10289 59020 69911EQDQ01  00013PRCP99
0140827840999991992031012004-07317-039300FM-12+040999999V0200501N00261045001CN0200001N9+02661+02181101231ADDAA124006091AG10000GF105991041081008001031001KA1999N+02281MA1999999096571MD1999999+0061REMSYN023333   20228 58006 60064EQDQ01  00603PRCP99
0134827840999991992031112004-07317-039300FM-12+040999999V0200501N00211220001CN0200001N9+02641+02051101271ADDAA106000091AG14000GF102991021021008001001001KA1999N+02171MA1999999096601MD1999999+0031REMSYN017333   20217 58003EQDQ01  00003PRCP99
0134827840999991992031212004-07317-039300FM-12+040999999V0201401N00311220001CN0200001N9+02731+02051101261ADDAA106000091AG14000GF104991041021008001001001KA1999N+02241MA1999999096611MD1999999+0011REMSYN017333   20224 58001EQDQ01  00003PRCP99
0115827840999991992031218004-07317-039300FM-12+040999999V0200901N00211220001CN0200001N9+03021+02161101271ADDAA106000091AG14000GF102991021021008001001001MA1999999096221MD1999999-0041REMSYN011333   59004EQDQ01  00003PRCP99
0134827840999991992031500004-07317-039300FM-12+040999999V0200901N00261012001CN9999999N9+02561+01851101181ADDAA106000091AG14000GF108991081081008001999999KA1999M+03021MA1999999096531MD1999999+0021REMSYN017333   10302 58002EQDQ01  00003PRCP99
0134827840999991992031512004-07317-039300FM-12+040999999V0200901N00311007501CN0200001N9+02751+01811101241ADDAA106000091AG14000GF108991081061008001999999KA1999N+02061MA1999999096591MD1999999-0091REMSYN017333   20206 59009EQDQ01  00003PRCP99
0154827840999991992031812004-07317-039300FM-12+040999999V0200901N00311045001CN0200001N9+02571+01881101531ADDAA124000691AA299000591AG10006AY161999AY221999GF108991031021008001011999KA1999N+02031MA1999999096851MD1999999+0001MW1021REMSYN023333   20203 58000 69964
0134827840999991992031912004-07317-039300FM-12+040999999V0200901N00261045001CN0200001N9+02441+01861101431ADDAA106000091AG14000GF108991021081008001021999KA1999N+02271MA1999999096751MD1999999-0101REMSYN017333   20227 59010EQDQ01  00003PRCP99
0134827840999991992032018004-07317-039300FM-12+040999999V0203601N00151220001CN0200001N9+02661+02001101131ADDAA106000091AG14000GF103991021081008001071001KA1999N+02161MA1999999096481MD1999999-0271REMSYN017333   20216 59027EQDQ01  00003PRCP99
0134827840999991992032200004-07317-039300FM-12+040999999V0201801N00051012001CN9999999N9+02431+02091101071ADDAA106000091AG14000GF105991051081008001001001KA1999M+03081MA1999999096421MD1999999+0011REMSYN017333   10308 58001EQDQ01  00003PRCP99
0134827840999991992032212004-07317-039300FM-12+040999999V0200901N00101012001CN0200001N9+02601+02081101401ADDAA106000091AG14000GF108991081081008001999999KA1999N+02201MA1999999096731MD1999999+0211REMSYN017333   20220 58021EQDQ01  00003PRCP99
0134827840999991992032300004-07317-039300FM-12+040999999V0201401N00101220001CN9999999N9+02341+02191101201ADDAA106000091AG14000GF100991001001999999001001KA1999M+03001MA1999999096541MD1999999+0121REMSYN017333   10300 58012EQDQ01  00003PRCP99
0134827840999991992032500004-07317-039300FM-12+040999999V0203601N00051220001CN9999999N9+02301+02181101161ADDAA106000091AG14000GF100991001001999999001001KA1999M+03001MA1999999096491MD1999999-0111REMSYN017333   10300 59011EQDQ01  00003PRCP99
0162827840999991992032512004-07317-039300FM-12+040999999V0200501N00211007501CN0040001N9+02351+02041101401ADDAA124008091AG10006AY161999AY211999GF108991081071008001999999KA1999N+02131MA1999999096721MD1999999+0071MW1021REMSYN023333   20213 58007 60084EQDQ01  00803PRCP99
0115827840999991992032518004-07317-039300FM-12+040999999V0203601N00101045001CN0200001N9+02841+02191100921ADDAA106000091AG14000GF106991041081008001071001MA1999999096271MD1999999+0021REMSYN011333   58002EQDQ01  00003PRCP99
0162827840999991992032700004-07317-039300FM-12+040999999V0200901N00311220001CN9999999N9+02161+02081101361ADDAA106002091AG10003AY111999AY211999GF101991011081008001001001KA1999M+03001MA1999999096671MD1999999+0191MW1211REMSYN023333   10300 58019 60021EQDQ01  00203PRCP99
0115827840999991992032718004-07317-039300FM-12+040999999V0200501N00261220001CN0200001N9+02901+01991101081ADDAA106000091AG14000GF103991031021012501001001MA1999999096431MD1999999+0121REMSYN011333   58012EQDQ01  00003PRCP99
0162827840999991992032812004-07317-039300FM-12+040999999V0201401N00211220001CN0200001N9+02661+01971101511ADDAA124013091AG10006AY161999AY211999GF102991021081008001001001KA1999N+02181MA1999999096841MD1999999+0001MW1011REMSYN023333   20218 58000 60134EQDQ01  01303PRCP99
0134827840999991992032900004-07317-039300FM-12+040999999V0200901N00101012001CN9999999N9+02441+02031101381ADDAA106000091AG14000GF107991071081008001001001KA1999M+03011MA1999999096721MD1999999-0021REMSYN017333   10301 59002EQDQ01  00003PRCP99
0134827840999991992032912004-07317-039300FM-12+040999999V0200901N00151012001CN0200001N9+02611+02061101491ADDAA106000091AG14000GF108991081081008001999999KA1999N+02141MA1999999096821MD1999999-0021REMSYN017333   20214 59002EQDQ01  00003PRCP99
0115827840999991992032918004-07317-039300FM-12+040999999V0201401N001019999999N0200001N9+02821+02271101021ADDAA106000091AG14001GF108991081999008001999999MA1999999096421MD1999999+0021REMSYN011333   58002EQDQ01  00003PRCP99
0162827840999991992040112004-07317-039300FM-12+040999999V0200901N00101012001CN0200001N9+02461+02131101401ADDAA124001091AG10005AY161999AY221999GF107991061081008001011001KA1999N+02121MA1999999076071MD1999999+0101MW1011REMSYN023333   20212 58010 60014EQDQ01  00103PRCP99
0134827840999991992040200004-07317-039300FM-12+040999999V0201401N00101012001CN9999999N9+02501+02251101141ADDAA106000091AG14000GF108991081081008001999999KA1999M+03031MA1999999096481MD1999999+0071REMSYN017333   10303 58007EQDQ01  00003PRCP99
0162827840999991992040212004-07317-039300FM-12+040999999V0200501N00101012001CN0040001N9+02521+02231101261ADDAA124032091AG10005AY161999AY221999GF107991061081008001031001KA1999N+02201MA1999999096601MD1999999-0131MW1021REMSYN023333   20220 59013 60324EQDQ01  03203PRCP99
0121827840999991992040218004-07317-039300FM-12+040999999V0202301N00211012001CN0200001N9+02641+02371100831ADDAA106006091AG10002GF108991051081008001021999MA1999999096171MD1999999+0001REMSYN017333   58000 60061EQDQ01  00603PRCP99
0162827840999991992040312004-07317-039300FM-12+040999999V0200501N00051007501CN0040001N9+02301+02221101481ADDAA124023091AG10005AY161999AY221999GF108991081071008001999999KA1999N+02201MA1999999096791MD1999999+0191MW1021REMSYN023333   20220 58019 60234EQDQ01  02303PRCP99
0162827840999991992040412004-07317-039300FM-12+040999999V0200501N00311012001CN0200001N9+02661+02111101501ADDAA124009091AG10005AY161999AY221999GF108991081081008001999999KA1999N+02201MA1999999096831MD1999999+0041MW1021REMSYN023333   20220 58004 60094EQDQ01  00903PRCP99
0162827840999991992040612004-07317-039300FM-12+040999999V0200901N00261012001CN0200001N9+02601+02251101411ADDAA124001091AG10001AY151999AY221999GF108991081081008001999999KA1999N+02321MA1999999096741MD1999999-0041MW1021REMSYN023333   20232 59004 60014EQDQ01  00103PRCP99
0115827840999991992040818004-07317-039300FM-12+040999999V0200501N00211045001CN0200001N9+02901+02151100961ADDAA106000091AG14000GF105991031021008001011001MA1999999096321MD1999999-0021REMSYN011333   59002EQDQ01  00003PRCP99
0162827840999991992040912004-07317-039300FM-12+040999999V0200901N00151012001CN0100001N9+02501+02251101411ADDAA124006091AG10001AY151999AY221999GF108991081081008001999999KA1999N+02321MA1999999096741MD1999999+0051MW1021REMSYN023333   20232 58005 60064EQDQ01  00603PRCP99
0162827840999991992041012004-07317-039300FM-12+040999999V0200901N00151007501CN0200001N9+02591+02121101281ADDAA124011091AG10005AY161999AY221999GF106991061021008001001001KA1999N+02221MA1999999096611MD1999999-0131MW1011REMSYN023333   20222 59013 60114EQDQ01  01103PRCP99
0115827840999991992041118004-07317-039300FM-12+040999999V0200901N00311220001CN0200001N9+02921+02041100791ADDAA106000091AG14000GF102991021021008001001001MA1999999096151MD1999999-0061REMSYN011333   59006EQDQ01  00003PRCP99
0115827840999991992041218004-07317-039300FM-12+040999999V0200901N00261045001CN0200001N9+02851+01991100851ADDAA106000091AG14000GF108991021081012501021999MA1999999096221MD1999999+0071REMSYN011333   58007EQDQ01  00003PRCP99
0134827840999991992041312004-07317-039300FM-12+040999999V0200901N00311220001CN0200001N9+02621+01881101271ADDAA106000091AG14000GF101991011011008001001001KA1999N+01941MA1999999096601MD1999999+0041REMSYN017333   20194 58004EQDQ01  00003PRCP99
0115827840999991992041318004-07317-039300FM-12+040999999V0200901N00311220001CN0200001N9+02911+01871100931ADDAA106000091AG14000GF103991021021008001011001MA1999999096281MD1999999+0061REMSYN011333   58006EQDQ01  00003PRCP99
0134827840999991992041500004-07317-039300FM-12+040999999V0209991C00001012001CN9999999N9+02341+02221101231ADDAA106000091AG14000GF108991081081008001999999KA1999M+03081MA1999999096571MD1999999+0081REMSYN017333   10308 58008EQDQ01  00003PRCP99
0162827840999991992041512004-07317-039300FM-12+040999999V0200501N00411045001CN0200001N9+02511+02131101461ADDAA124003091AG10005AY161999AY221999GF106991011081008001031001KA1999N+02221MA1999999096781MD1999999+0251MW1021REMSYN023333   20222 58025 60034EQDQ01  00303PRCP99
0115827840999991992041618004-07317-039300FM-12+040999999V0200901N00211220001CN0200001N9+03021+02211100951ADDAA106000091AG14000GF103991031021012501001001MA1999999096321MD1999999+0041REMSYN011 333 58004?EQDQ01  00003PRCP99
0134827840999991992041700004-07317-039300FM-12+040999999V0209991C00001220001CN9999999N9+02381+02241101341ADDAA106000091AG14000GF102991021021008001001001KA1999M+03111MA1999999096681MD1999999+0081REMSYN017333   10311 58008EQDQ01  00003PRCP99
0134827840999991992041712004-07317-039300FM-12+040999999V0200501N00101012001CN0100001N9+02551+02151101441ADDAA106000091AG14000GF108991081081008001999999KA1999N+02161MA1999999096761MD1999999-0011REMSYN017333   20216 59001EQDQ01  00003PRCP99
0162827840999991992041900004-07317-039300FM-12+040999999V0201801N00051007501CN9999999N9+02461+02321101111ADDAA106003091AG10005AY161999AY221999GF107991071021008001001001KA1999M+03101MA1999999096451MD1999999-0201MW1021REMSYN023333   10310 59020 60031EQDQ01  00303PRCP99
0162827840999991992041912004-07317-039300FM-12+040999999V0200501N00151012001CN0200001N9+02621+02181101251ADDAA124003091AG10001AY151999AY221999GF107991061081008001081001KA1999N+02171MA1999999096551MD1999999-0071MW1021REMSYN023333   20217 59007 60034EQDQ01  00303PRCP99
0134827840999991992042112004-07317-039300FM-12+040999999V0200501N00261012001CN0200001N9+02581+02211101331ADDAA106000091AG14000GF108991081081008001999999KA1999N+02041MA1999999096651MD1999999+0111REMSYN017333   20204 58011EQDQ01  00003PRCP99
0134827840999991992042200004-07317-039300FM-12+040999999V0209991C00001220001CN9999999N9+02421+02281101201ADDAA106000091AG14000GF100991001001999999001001KA1999M+03031MA1999999096541MD1999999+0201REMSYN017333   10303 58020EQDQ01  00003PRCP99
0162827840999991992042212004-07317-039300FM-12+040999999V0200501N00461220001CN0200001N9+02681+01991101461ADDAA124001091AG10001AY151999AY201999GF102991021021008001001071KA1999N+02241MA1999999096791MD1999999+0141MW1011REMSYN023333   20224 58014 69974EQDQ01  00103PRCP99
0115827840999991992042218004-07317-039300FM-12+040999999V0200901N00361220001CN0200001N9+03091+01951100981ADDAA106000091AG14000GF101991011021008001001001MA1999999096351MD1999999+0051REMSYN011333   58005EQDQ01  00003PRCP99
0115827840999991992042418004-07317-039300FM-12+040999999V0200901N00211220001CN0200001N9+03011+01881100701ADDAA106000091AG14000GF103991031021012501001001MA1999999096071MD1999999-0211REMSYN011333   59021EQDQ01  00003PRCP99
0134827840999991992042512004-07317-039300FM-12+040999999V0200501N00311220001CN0200001N9+02621+01861101171ADDAA106000091AG14000GF102991021021008001001001KA1999N+01921MA1999999096511MD1999999+0041REMSYN017333   20192 58004EQDQ01  00003PRCP99
0115827840999991992042518004-07317-039300FM-12+040999999V0200501N00151220001CN0200001N9+03001+01911100841ADDAA106000091AG14000GF103991031021008001001001MA1999999096201MD1999999+0131REMSYN011333   58013EQDQ01  00003PRCP99
0134827840999991992042600004-07317-039300FM-12+040999999V0202301N00051220001CN9999999N9+02171+02021101201ADDAA106000091AG14000GF100991001001999999001001KA1999M+03041MA1999999096531MD1999999+0291REMSYN017333   10304 58029EQDQ01  00003PRCP99
0134827840999991992042612004-07317-039300FM-12+040999999V0200901N00151220001CN0200001N9+02681+01781101491ADDAA106000091AG14000GF100991001001999999001001KA1999N+01781MA1999999096811MD1999999+0301REMSYN017333   20178 58030EQDQ01  00003PRCP99
0115827840999991992042618004-07317-039300FM-12+040999999V0200901N00361012001CN0200001N9+03061+01801101151ADDAA106000091AG14000GF107991071021012501001001MA1999999096491MD1999999+0291REMSYN011333   58029EQDQ01  00003PRCP99
0134827840999991992042718004-07317-039300FM-12+040999999V0201401N00151220001CN0200001N9+02701+01961101461ADDAA106000091AG14000GF101991011021008001001001KA1999N+02191MA1999999096781MD1999999-0031REMSYN017333   20219 59003EQDQ01  00003PRCP99
0134827840999991992042900004-07317-039300FM-12+040999999V0209991C00001220001CN9999999N9+02451+02211100961ADDAA106000091AG14000GF101991011011008001001001KA1999M+03131MA1999999096321MD1999999-0231REMSYN017333   10313 59023EQDQ01  00003PRCP99
0134827840999991992043000004-07317-039300FM-12+040999999V0209991C00001220001CN9999999N9+02351+02221101081ADDAA106000091AG14000GF100991001001999999001001KA1999M+03121MA1999999096421MD1999999+0101REMSYN017333   10312 58010EQDQ01  00003PRCP99
0134827840999991992043012004-07317-039300FM-12+040999999V0203601N00101012001CN0200001N9+02621+02271101301ADDAA106000091AG14000GF108991081081008001999999KA1999N+02201MA1999999096641MD1999999+0141REMSYN017333   20220 58014EQDQ01  00003PRCP99
0115827840999991992043018004-07317-039300FM-12+040999999V0209999999999012001CN0200001N9+02991+02251100871ADDAA106000091AG14000GF108991081061012501999999MA1999999096241MD1999999+0181REMSYN011333   58018EQDQ01  00003PRCP99
0134827840999991992050112004-07317-039300FM-12+040999999V0200501N00101012001CN0200001N9+02771+02061101411ADDAA106000091AG14000GF108991051081008001021999KA1999N+02121MA1999999096741MD1999999+0101REMSYN017333   20212 58010EQDQ01  00003PRCP99
0134827840999991992050200004-07317-039300FM-12+040999999V0202301N00051220001CN9999999N9+02321+02111101351ADDAA106000091AG14000GF101991011021008001001001KA1999M+03001MA1999999096681MD1999999+0151REMSYN017333   10300 58015EQDQ01  00003PRCP99
0134827840999991992050212004-07317-039300FM-12+040999999V0200501N00211220001CN0200001N9+02771+02061101451ADDAA106000091AG14000GF104991041021008001001001KA1999N+02001MA1999999096781MD1999999+0041REMSYN017333   20200 58004EQDQ01  00003PRCP99
0134827840999991992050512004-07317-039300FM-12+040999999V0200901N00151012001CN0200001N9+02581+02061101211ADDAA106000091AG14000GF108991081081008001999999KA1999N+02041MA1999999096531MD1999999+0021REMSYN017333   20204 58002EQDQ01  00003PRCP99
0134827840999991992050612004-07317-039300FM-12+040999999V0200501N00151012001CN0100001N9+02501+02171101311ADDAA106000091AG14000GF108991081081008001999999KA1999N+02071MA1999999096631MD1999999+0101REMSYN017333   20207 58010EQDQ01  00003PRCP99
0134827840999991992050700004-07317-039300FM-12+040999999V0202301N00051220001CN9999999N9+02321+02201101091ADDAA106000091AG14000GF100991001001999999001001KA1999M+03001MA1999999096451MD1999999+0091REMSYN017333   10300 58009EQDQ01  00003PRCP99
0162827840999991992050712004-07317-039300FM-12+040999999V0200501N00211012001CN0100001N9+02441+02191101311ADDAA124001091AG10005AY161999AY291999GF106991061081008001001001KA1999N+02101MA1999999096641MD1999999+0011MW1011REMSYN023333   20210 58001 60014EQDQ01  00103PRCP99
0134827840999991992050800004-07317-039300FM-12+040999999V0209991C00001220001CN9999999N9+99999+99999101171ADDAA106000091AG14000GF100991001001999999001001KA1999M+03031MA1999999096521MD1999999+0071REMSYN017333   10303 58007EQDQ01  00003PRCP99
0134827840999991992050812004-07317-039300FM-12+040999999V0200501N00211045001CN0200001N9+02671+02111100381ADDAA106000091AG14000GF107991041081008001071001KA1999N+02061MA1999999096701MD1999999+0061REMSYN017333   20206 58006EQDQ01  00003PRCP99
0134827840999991992051000004-07317-039300FM-12+040999999V0201801N00101045001CN9999999N9+02381+02171101291ADDAA106000091AG14000GF105991041021008001061001KA1999M+03111MA1999999096631MD1999999-0021REMSYN017333   10311 59002EQDQ01  00003PRCP99
0134827840999991992051012004-07317-039300FM-12+040999999V0200901N00411220001CN0200001N9+02751+01761101461ADDAA106000091AG14000GF101991011011008001001001KA1999N+02161MA1999999096791MD1999999+0031REMSYN017333   20216 58003EQDQ01  00003PRCP99
0134827840999991992051112004-07317-039300FM-12+040999999V0200901N00261220001CN0200001N9+02621+01861101561ADDAA106000091AG14000GF104991011011008001011001KA1999N+02011MA1999999096881MD1999999+0091REMSYN017333   20201 58009EQDQ01  00003PRCP99
0134827840999991992051312004-07317-039300FM-12+040999999V0200501N00211220001CN0200001N9+02621+01981101381ADDAA106000091AG14000GF102991011021008001011001KA1999N+01761MA1999999096701MD1999999-0071REMSYN017333   20176 59007EQDQ01  00003PRCP99
0134827840999991992051500004-07317-039300FM-12+040999999V0201401N00101220001CN9999999N9+02441+01861101171ADDAA106000091AG14000GF102991011021008001071001KA1999M+03231MA1999999096511MD1999999+0031REMSYN017333   10323 58003EQDQ01  00003PRCP99
0134827840999991992051512004-07317-039300FM-12+040999999V0200901N00261220001CN0200001N9+02701+01861101311ADDAA106000091AG14000GF101991011011008001001001KA1999N+01941MA1999999096651MD1999999-0021REMSYN017333   20194 59002EQDQ01  00003PRCP99
0134827840999991992051800004-07317-039300FM-12+040999999V0209991C00001220001CN9999999N9+02031+01851101161ADDAA106000091AG14000GF100991001001999999001001KA1999M+03101MA1999999096481MD1999999+0081REMSYN017333   10310 58008EQDQ01  00003PRCP99
0134827840999991992051812004-07317-039300FM-12+040999999V0200501N00261220001CN0200001N9+02641+01851101441ADDAA106000091AG14000GF102991011011008001011001KA1999N+01901MA1999999096751MD1999999+0121REMSYN017333   20190 58012EQDQ01  00003PRCP99
0162827840999991992052012004-07317-039300FM-12+040999999V0203601N00211012001CN0200001N9+02481+02131101401ADDAA124002091AG10005AY161999AY221999GF108991081081008001999999KA1999N+02241MA1999999096731MD1999999+0011MW1021REMSYN023333   20224 58001 60024EQDQ01  00203PRCP99
0134827840999991992052212004-07317-039300FM-12+040999999V0200501N00511220001CN0200001N9+02701+01441101481ADDAA106000091AG14000GF100991001001999999001001KA1999N+01681MA1999999096821MD1999999+0041REMSYN017333   20168 58004EQDQ01  00003PRCP99
0115827840999991992052218004-07317-039300FM-12+040999999V0200901N00211220001CN0200001N9+03191+01441101001ADDAA106000091AG14000GF101991011011008001001001MA1999999096351MD1999999+0901REMSYN011333   58090EQDQ01  00003PRCP99
0115827840999991992052618004-07317-039300FM-12+040999999V0201401N00261220001CN0200001N9+03091+01001101001ADDAA106000091AG14000GF101991011011008001001001MA1999999096361MD1999999-0151REMSYN011333   59015EQDQ01  00003PRCP99
0134827840999991992052800004-07317-039300FM-12+040999999V0201801N00101220001CN9999999N9+02081+01761101091ADDAA106000091AG14000GF100991001001999999001001KA1999M+03151MA1999999096411MD1999999-0171REMSYN017333   10315 59017EQDQ01  00003PRCP99
0134827840999991992052812004-07317-039300FM-12+040999999V0200901N00151220001CN0200001N9+02621+01881101241ADDAA106000091AG14000GF102991021021008001001001KA1999N+01841MA1999999096561MD1999999-0121REMSYN017333   20184 59012EQDQ01  00003PRCP99
0134827840999991992052912004-07317-039300FM-12+040999999V0200901N00311220001CN0200001N9+02671+01901101341ADDAA106000091AG14000GF102991021021008001001001KA1999N+02201MA1999999096701MD1999999+0141REMSYN017333   20220 58014EQDQ01  00003PRCP99
0134827840999991992053000004-07317-039300FM-12+040999999V0201401N00211220001CN9999999N9+02541+01861101251ADDAA106000091AG14000GF101991011001017501061001KA1999M+03291MA1999999096601MD1999999+0171REMSYN017333   10329 58017EQDQ01  00003PRCP99
0134827840999991992053012004-07317-039300FM-12+040999999V0201401N00261220001CN0200001N9+02741+01811101461ADDAA106000091AG14000GF101991011011008001001001KA1999N+02021MA1999999096801MD1999999+0101REMSYN017333   20202 58010EQDQ01  00003PRCP99
0134827840999991992053112004-07317-039300FM-12+040999999V0200901N00261012001CN0200001N9+02551+01861101511ADDAA106000091AG14000GF108991081081008001999999KA1999N+02291MA1999999096841MD1999999+0041REMSYN017333   20229 58004EQDQ01  00003PRCP99
0115827840999991992053118004-07317-039300FM-12+040999999V0200901N00261012001CN0200001N9+02891+01861101031ADDAA106000091AG14000GF108991081081008001999999MA1999999096391MD1999999+0071REMSYN011333   58007EQDQ01  00003PRCP99
0115827840999991992060218004-07317-039300FM-12+040999999V0201401N00211007501CN0200001N9+03021+01731101101ADDAA106000091AG14000GF106991061021008001001001MA1999999096451MD1999999+0031REMSYN011333   58003EQDQ01  00003PRCP99
0115827840999991992060518004-07317-039300FM-12+040999999V0200901N00151220001CN0200001N9+03021+01961101011ADDAA106000091AG14000GF104991041021012501001001MA1999999096361MD1999999+0061REMSYN011333   58006EQDQ01  00003PRCP99
0115827840999991992060818004-07317-039300FM-12+040999999V0200501N00211012001CN0200001N9+03201+01821100961ADDAA106000091AG14000GF106991061021012501001001MA1999999096341MD1999999-0121REMSYN011333   59012EQDQ01  00003PRCP99
0154827840999991992060900004-07317-039300FM-12+040999999V0200901N00211012001CN9999999N9+02471+02011101371ADDAA106000691AA299000591AG10000AY151999AY221999GF108991081081008001999999KA1999M+03271MA1999999096681MD1999999+0071MW1021REMSYN023333   10327 58007 69961
0162827840999991992060912004-07317-039300FM-12+040999999V0201801N00261220001CN0200001N9+02661+01791101471ADDAA124001091AG10000AY151999AY211999GF102991021021008001001001KA1999N+02301MA1999999096801MD1999999+0051MW1011REMSYN023333   20230 58005 60014EQDQ01  00103PRCP99
0134827840999991992061012004-07317-039300FM-12+040999999V0200901N00361007501CN0200001N9+02421+01791101561ADDAA106000091AG14000GF108991081051008001999999KA1999N+02031MA1999999096881MD1999999+0081REMSYN017333   20203 58008EQDQ01  00003PRCP99
0134827840999991992061100004-07317-039300FM-12+040999999V0201801N00101220001CN9999999N9+02191+01781101361ADDAA106000091AG14000GF100991001001999999001001KA1999M+02951MA1999999096761MD1999999+0111REMSYN017333   10295 58011EQDQ01  00003PRCP99
0134827840999991992061112004-07317-039300FM-12+040999999V0200901N00211220001CN0200001N9+02561+01831101671ADDAA106000091AG14000GF104991041021008001001001KA1999N+02151MA1999999096981MD1999999+0101REMSYN017333   20215 58010EQDQ01  00003PRCP99
0134827840999991992061200004-07317-039300FM-12+040999999V0209991C00001220001CN9999999N9+02081+01821101531ADDAA106000091AG14000GF101991011021008001001001KA1999M+03251MA1999999096841MD1999999+0081REMSYN017333   10325 58008EQDQ01  00003PRCP99
0134827840999991992061212004-07317-039300FM-12+040999999V0200901N00211007501CN0200001N9+02641+01901101761ADDAA106000091AG14000GF107991071021008001001001KA1999N+02051MA1999999097061MD1999999+0081REMSYN017333   20205 58008EQDQ01  00003PRCP99
0095827840999991992061412004-07317-039300FM-12+040999999V0201401N00311220001CN0200001N9+02521+01581101671ADDAA106000091AG14000GF100991001001999999001001MA1999999096991MD1810091+9999EQDQ01  00003PRCP99
0115827840999991992061418004-07317-039300FM-12+040999999V0200901N00461220001CN0200001N9+03061+01051101171ADDAA106000091AG14000GF100991001001999999001001MA1999999096531MD1999999+0081REMSYN011333   58008EQDQ01  00003PRCP99
0134827840999991992061512004-07317-039300FM-12+040999999V0201401N00361012001CN0200001N9+02381+01711101721ADDAA106000091AG14000GF105991051081008001001001KA1999N+01961MA1999999097021MD1999999+0031REMSYN017333   20196 58003EQDQ01  00003PRCP99
0081827840999991992061518004-07317-039300FM-12+040999999V0201401N00361220001CN0200001N9+02961+01531101281ADDAA106000091AG14000GF104991999999008001999999MA1999999096611EQDQ01  00003PRCP99
0134827840999991992061600004-07317-039300FM-12+040999999V0201401N00311220001CN9999999N9+02361+01661101541ADDAA106000091AG14000GF100991001001999999001001KA1999M+03091MA1999999096851MD1999999+0041REMSYN017333   10309 58004EQDQ01  00003PRCP99
0115827840999991992061718004-07317-039300FM-12+040999999V0201401N00361012001CN0200001N9+02821+01511101341ADDAA106000091AG14000GF107991071081008001001001MA1999999096661MD1999999-0091REMSYN011333   59009EQDQ01  00003PRCP99
0134827840999991992062100004-07317-039300FM-12+040999999V0200901N00261220001CN9999999N9+02501+01671101531ADDAA106000091AG14000GF100991001001999999001001KA1999M+03071MA1999999096851MD1999999+0101REMSYN017333   10307 58010EQDQ01  00003PRCP99
0134827840999991992062112004-07317-039300FM-12+040999999V0200901N00261012001CN0200001N9+02561+01831101711ADDAA106000091AG14000GF108991081081008001999999KA1999N+02181MA1999999097031MD1999999+0021REMSYN017333   20218 58002EQDQ01  00003PRCP99
0115827840999991992062118004-07317-039300FM-12+040999999V0201401N002619999999N0200001N9+02741+01831101331ADDAA106000091AG14000GF108991081999012501999999MA1999999096661MD1999999+0081REMSYN011 333 58008?EQDQ01  00003PRCP99
0115827840999991992062318004-07317-039300FM-12+040999999V0200901N00211220001CN0200001N9+02981+01741101291ADDAA106000091AG14000GF101991011011012501001001MA1999999096641MD1999999-0121REMSYN011 333 59012?EQDQ01  00003PRCP99
0115827840999991992062518004-07317-039300FM-12+040999999V0201401N00461012001CN0200001N9+02861+01901101241ADDAA106000091AG14000GF107991071021012501001001MA1999999096581MD1999999-0041REMSYN011 333 59004?EQDQ01  00003PRCP99
0134827840999991992062600004-07317-039300FM-12+040999999V0201401N00311012001CN0200001N9+02361+01691101661ADDAA106000091AG14000GF108991081081008001999999KA1999N+02051MA1999999096961MD1999999+0011REMSYN017 333 20205 58001?EQDQ01  00003PRCP99
0134827840999991992062612004-07317-039300FM-12+040999999V0201401N00261012001CN9999999N9+02361+01851101581ADDAA106000091AG14000GF108991081081008001999999KA1999M+03011MA1999999096901MD1999999+0061REMSYN017 333 10301 58006?EQDQ01  00003PRCP99
0121827840999991992062616004-07317-039300FM-12+040999999V02099999999999999999N0200001N9+02361+01691101661ADDAA106000091AG14999GF108991999999008001999999MA1999999096961MD1999999+0021REMSYN017 333 2/205 58002?EQDQ01  00003PRCP99
0150827840999991992062700004-07317-039300FM-12+040999999V0201401N00261220001CN9999999N9+02441+01591101451ADDAA106000091AG14000GA1001+999999999GF100991001001999999001001KA1999M+03131MA1999999096771MD1999999-0131REMSYN017 333 10313 59013?EQDQ01  00003PRCP99
0150827840999991992062712004-07317-039300FM-12+040999999V0200901N00151220001CN0200001N9+02661+01771101531ADDAA106000091AG14000GA1001+999999999GF100991001001999999001001KA1999N+01891MA1999999096861MD1999999-0101REMSYN017 333 20189 59010?EQDQ01  00003PRCP99
0134827840999991992062800004-07317-039300FM-12+040999999V0200901N00151007501CN9999999N9+02461+01851101431ADDAA106000091AG14000GF107991071021008001001001KA1999M+03221MA1999999096761MD1999999-0011REMSYN017 333 10322 59001?EQDQ01  00003PRCP99
0178827840999991992062812004-07317-039300FM-12+040999999V0203201N001019999999N0200001N9+02021+01871101681ADDAA106000191AG10000AY151999AY221999GF108991999999008001999999KA1999N+99999MA1999999096991MD1999999+0131MW1031REMSYN023 333 20209 58013 69911?EQDQ01  00013PRCP99Q02 +02092ATMN  
0067827840999991992062821004-07317-039300FM-12+040999999V0203401N000519999999N9999999N9+02101+01041100641ADDAA124001091AG10000GF108991081001008001071999REMSYN011 333 70009?
0134827840999991992070100004-07317-039300FM-12+040999999V0200901N00101220001CN9999999N9+02421+01741101571ADDAA106000091AG14000GF102991021021008001001001KA1999M+03251MA1999999096891MD1999999+0081REMSYN017 333 10325 58008?EQDQ01  00003PRCP99
0150827840999991992070112004-07317-039300FM-12+040999999V0200501N00101220001CN0200001N9+02661+01871101661ADDAA106000091AG14000GA1001+999999999GF100991001001999999001001KA1999N+01961MA1999999096981MD1999999-0051REMSYN017 333 20196 59005?EQDQ01  00003PRCP99
0115827840999991992070118004-07317-039300FM-12+040999999V0200901N00211220001CN0200001N9+03201+01551101111ADDAA106000091AG14000GF102991021021012501001001MA1999999096461MD1999999-0151REMSYN011 333 59015?EQDQ01  00003PRCP99
0115827840999991992070218004-07317-039300FM-12+040999999V0201801N00261012001CN0200001N9+03001+01641101291ADDAA106000091AG14000GF108991081081008001999999MA1999999096641MD1999999+0181REMSYN011 333 58018?EQDQ01  00003PRCP99
0178827840999991992070300004-07317-039300FM-12+040999999V0202301N00151220001CN9999999N9+02171+01951101551ADDAA106000391AG10000AY151999AY211999GA1001+999999999GF100991001001999999001001KA1999M+03131MA1999999096861MD1999999+0171MW1001REMSYN023 333 10313 58017 69931?EQDQ01  00033PRCP99
0156827840999991992070312004-07317-039300FM-12+040999999V0200901N00311220001CN0200001N9+02601+01681101711ADDAA124000391AG10000GA1001+999999999GF100991001001999999001001KA1999N+01771MA1999999097021MD1999999-0041REMSYN023 333 20177 59004 69934?EQDQ01  00033PRCP99
0134827840999991992070512004-07317-039300FM-12+040999999V0201401N00311007501CN0200001N9+02421+01541101721ADDAA106000091AG14000GF108991081071008001999999KA1999N+01981MA1999999097021MD1999999-0091REMSYN017 333 20198 59009?EQDQ01  00003PRCP99
0115827840999991992070618004-07317-039300FM-12+040999999V0201801N00311012001CN0200001N9+03081+01751101251ADDAA106000091AG14000GF107991071021012501001001MA1999999096571MD1999999-0021REMSYN011 333 59002?EQDQ01  00003PRCP99
0150827840999991992070712004-07317-039300FM-12+040999999V0200901N00151220001CN0200001N9+02571+01751101771ADDAA106000091AG14000GA1001+999999999GF100991001001999999001001KA1999N+01861MA1999999097081MD1999999+0061REMSYN017 333 20186 58006?EQDQ01  00003PRCP99
0115827840999991992070718004-07317-039300FM-12+040999999V0200901N00311220001CN0200001N9+03181+01571101211ADDAA106000091AG14000GF104991041021012501001001MA1999999096561MD1999999-0011REMSYN011 333 59001?EQDQ01  00003PRCP99
0085827840999991992070719004-07317-039300FM-12+040999999V0200901N00311220001CN0200001N9+03181+01571101211ADDAG12999GF104991041021012501001001MA1999999096561MD1999999-0011REMSYN011 333 59001?
0134827840999991992070812004-07317-039300FM-12+040999999V0200901N00211007501CN0200001N9+02581+02041101801ADDAA106000091AG14000GF106991061021008001001001KA1999N+02161MA1999999097111MD1999999+0041REMSYN017 333 20216 58004?EQDQ01  00003PRCP99
0120827840999991992070900004-07317-039300FM-12+040999999V0200901N00311007501CN9999999N9+02391+01821101611ADDAA106000091AG14000GF108991081021008001999999KA1999M+03151MA1999999096931REMSYN017 333 10315 51010?EQDQ01  00003PRCP99
0134827840999991992070912004-07317-039300FM-12+040999999V0200901N00211015001CN0200001N9+99999+99999101781ADDAA106000091AG14000GF106991061081012501001001KA1999N+02201MA1999999097091MD1999999-0021REMSYN017 333 20220 59002?EQDQ01  00003PRCP99
0115827840999991992070918004-07317-039300FM-12+040999999V0201801N00311015001CN0200001N9+02861+01551101331ADDAA106000091AG14000GF108991081081012501999999MA1999999096671MD1999999+0041REMSYN011 333 58004?EQDQ01  00003PRCP99
0134827840999991992071012004-07317-039300FM-12+040999999V0201401N00511012001CN0200001N9+02381+01821101821ADDAA106000091AG14000GF108991081081008001999999KA1999N+02041MA1999999090121MD1999999+0031REMSYN017 333 20204 58003?EQDQ01  00003PRCP99
0115827840999991992071018004-07317-039300FM-12+040999999V0201801N04112007501CN0200001N9+02521+01661101441ADDAA106000091AG14000GF108991081071008001999999MA1999999096752MD1999999+0081REMSYN011 333 58008?EQDQ01  00003PRCP99
0150827840999991992071112004-07317-039300FM-12+040999999V0200901N00461220001CN0200001N9+02441+01451101741ADDAA106000091AG14000GA1001+999999999GF100991001001999999001001KA1999N+01041MA1999999097031MD1999999-0091REMSYN017 333 20104 59009?EQDQ01  00003PRCP99
0097827840999991992071118004-07317-039300FM-12+040999999V0200901N00361220001CN0200001N9+03111+01501101191ADDAA106000091AG14000GA1001+999999999GF100991001001999999001001MA1999999096531EQDQ01  00003PRCP99
0134827840999991992071212004-07317-039300FM-12+040999999V0200901N00311012001CN0200001N9+02441+01861101681ADDAA106000091AG14000GF108991081081008001999999KA1999N+02191MA1999999096991MD1999999-0041REMSYN017 333 20219 59004?EQDQ01  00003PRCP99
0162827840999991992071300004-07317-039300FM-12+040999999V0201801N00101012001CN9999999N9+02181+01971101591ADDAA106002091AG13000AY111999AY221999GF108991081081008001999999KA1999M+02751MA1999999096891MD1999999+0101MW1021REMSYN023 333 10275 58010 60021?EQDQ01  00203PRCP99
0156827840999991992071312004-07317-039300FM-12+040999999V0200901N00311220001CN0200001N9+02481+01491101731ADDAA124002091AG10000GA1001+999999999GF100991001001999999001001KA1999N+01961MA1999999097021MD1999999+0031REMSYN023 333 20196 58003 60024?EQDQ01  00203PRCP99
0131827840999991992071318004-07317-039300FM-12+040999999V0200901N00261220001CN0200001N9+03001+01451101241ADDAA106000091AG14000GA1001+999999999GF100991001001999999001001MA1999999096561MD1999999-0161REMSYN011 333 59016?EQDQ01  00003PRCP99
0134827840999991992071412004-07317-039300FM-12+040999999V0200501N00211007501CN0200001N9+02581+01851101701ADDAA106000091AG14000GF106991061021008001001001KA1999N+02091MA1999999097011MD1999999-0011REMSYN017 333 20209 59001?EQDQ01  00003PRCP99
0115827840999991992071418004-07317-039300FM-12+040999999V0200901N00211015001CN0200001N9+03041+01451101161ADDAA106000091AG14000GF106991061081012501001001MA1999999096521MD1999999-0041REMSYN011 333 59004?EQDQ01  00003PRCP99
0134827840999991992071500004-07317-039300FM-12+040999999V0201801N00101007501CN9999999N9+02521+01931101501ADDAA106000091AG14000GF107991061021008001001001KA1999M+03211MA1999999096831MD1999999+0011REMSYN017 333 10321 58001?EQDQ01  00003PRCP99
0162827840999991992071512004-07317-039300FM-12+040999999V0201401N00101007501CN0040001N9+02121+02061101711ADDAA124007091AG10004AY161999AY221999GF108991081071008001999999KA1999N+02141MA1999999097011MD1999999+0001MW1611REMSYN023 333 20214 58000 60074?EQDQ01  00703PRCP99
0115827840999991992071518004-07317-039300FM-12+040999999V0201801N00211012001CN0200001N9+02961+01871101121ADDAA106000091AG14000GF107991071021012501001001MA1999999096571MD1999999+0051REMSYN011 333 58005?EQDQ01  00003PRCP99
0162827840999991992071600004-07317-039300FM-12+040999999V0202301N00051007501CN9999999N9+02281+02011101631ADDAA106004091AG10004AY161999AY221999GF108991081071008001999999KA1999M+03031MA1999999096931MD1999999+0101MW1021REMSYN023 333 10303 58010 60041?EQDQ01  00403PRCP99
0162827840999991992071612004-07317-039300FM-12+040999999V0200501N00261007501CN0200001N9+02541+01881101781ADDAA124004091AG10000AY151999AY221999GF106991061021008001001001KA1999N+02031MA1999999097081MD1999999+0071MW1021REMSYN023 333 20203 58007 60044?EQDQ01  00403PRCP99
0115827840999991992071618004-07317-039300FM-12+040999999V0200901N03802012001CN0200001N9+03141+01501101301ADDAA106000091AG14000GF105991051021012501001001MA1999999096651MD1999999+0081REMSYN011 333 58008?EQDQ01  00003PRCP99
0150827840999991992071812004-07317-039300FM-12+040999999V0200501N00261220001CN0200001N9+02521+00911101971ADDAA106000091AG14000GA1001+999999999GF100991001001999999001001KA1999N+01671MA1999999097271MD1999999+0161REMSYN017 333 20167 58016?EQDQ01  00003PRCP99
0134827840999991992071912004-07317-039300FM-12+040999999V0200501N00311012001CN0200001N9+02441+02091101971ADDAA106000091AG14000GF108991081081008001999999KA1999N+02121MA1999999097271MD1999999+0001REMSYN017 333 20212 58000?EQDQ01  00003PRCP99
0115827840999991992071918004-07317-039300FM-12+040999999V0200901N00261220001CN0200001N9+03081+01401101451ADDAA106000091AG14000GF102991021021012501001001MA1999999096801MD1999999+0031REMSYN011 333 58003?EQDQ01  00003PRCP99
0134827840999991992072000004-07317-039300FM-12+040999999V0201401N00361220001CN9999999N9+02301+01721101781ADDAA106000091AG14000GF101991011001008001001031KA1999M+03141MA1999999097081MD1999999+0081REMSYN017 333 10314 58008?EQDQ01  00003PRCP99
0150827840999991992072012004-07317-039300FM-12+040999999V0201401N00461007501CN0200001N9+02431+01461101981ADDAA106000091AG14000GF107991071021008001001001KA1999N+02121MA1999999999999MD1999999+0001REMSYN017 333 20212 58000?EQDQ01 090273APOSP Q02  00003PRCP99
0131827840999991992072018004-07317-039300FM-12+040999999V0201401N00411220001CN0200001N9+03001+01331101421ADDAA106000091AG14000GA1001+999999999GF100991001001999999001001MA1999999096761MD1999999-0041REMSYN011 333 59004?EQDQ01  00003PRCP99
0134827840999991992072112004-07317-039300FM-12+040999999V0201401N00411012001CN0200001N9+02361+01691101901ADDAA106000091AG14000GF108991081081008001999999KA1999N+01681MA1999999097191MD1999999-0081REMSYN017 333 20168 59008?EQDQ01  00003PRCP99
0150827840999991992072200004-07317-039300FM-12+040999999V0200901N00311220001CN9999999N9+02241+01621101671ADDAA106000091AG14000GA1001+999999999GF100991001001999999001001KA1999M+02591MA1999999096971MD1999999+0021REMSYN017 333 10259 58002?EQDQ01  00003PRCP99
0150827840999991992072212004-07317-039300FM-12+040999999V0200901N00311220001CN9999999N9+02241+01621101671ADDAA106000091AG14000GA1001+999999999GF100991001001999999001001KA1999M+02591MA1999999096971MD1999999+0021REMSYN017 333 10259 58002?EQDQ01  00003PRCP99
0115827840999991992072218004-07317-039300FM-12+040999999V0200901N00261220001CN0200001N9+03021+01331101281ADDAA106000091AG14000GF102991021021012501001001MA1999999096621MD1999999-0141REMSYN011 333 59014?EQDQ01  00003PRCP99
0150827840999991992072300004-07317-039300FM-12+040999999V0201801N00571220001CN9999999N9+02391+01451101601ADDAA106000091AG14000GA1001+999999999GF100991001001999999001001KA1999M+03141MA1999999096911MD1999999-0061REMSYN017 333 10314 59006?EQDQ01  00003PRCP99
0134827840999991992072312004-07317-039300FM-12+040999999V0200901N00151012001CN0200001N9+02551+01631101921ADDAA106000091AG14000GF107991071081008001001001KA1999N+02031MA1999999097221MD1999999+0051REMSYN017 333 20203 58005?EQDQ01  00003PRCP99
0081827840999991992072318004-07317-039300FM-12+040999999V0201401N00211220001CN0200001N9+03141+01321101451ADDAA106000091AG14000GF102991021021012501001001MA1999999096791EQDQ01  00003PRCP99
0150827840999991992072400004-07317-039300FM-12+040999999V0201401N00411220001CN9999999N9+02491+01571101691ADDAA106000091AG14000GA1001+999999999GF100991001001999999001001KA1999M+03191MA1999999097011MD1999999+0101REMSYN017 333 10319 58010?EQDQ01  00003PRCP99
0150827840999991992072412004-07317-039300FM-12+040999999V0200901N00461220001CN0200001N9+02641+01661101911ADDAA106000091AG14000GA1001+999999999GF100991001001999999001001KA1999N+02151MA1999999097221MD1999999+0001REMSYN017 333 20215 58000?EQDQ01  00003PRCP99
0131827840999991992072418004-07317-039300FM-12+040999999V0201401N00311220001CN0200001N9+03111+01371101411ADDAA106000091AG14000GA1001+999999999GF100991001001999999001001MA1999999096761MD1999999-0031REMSYN011 333 59003?EQDQ01  00003PRCP99
0115827840999991992072518004-07317-039300FM-12+040999999V0201401N00311012001CN0200001N9+02971+01461101351ADDAA106000091AG14000GF106991061021012501001001MA1999999096691MD1999999-0071REMSYN011 333 59007?EQDQ01  00003PRCP99
0150827840999991992072600004-07317-039300FM-12+040999999V0201401N00311220001CN9999999N9+02421+01721101591ADDAA106000091AG14000GA1001+999999999GF100991001001999999001001KA1999M+03051MA1999999096911MD1999999-0141REMSYN017 333 10305 59014?EQDQ01  00003PRCP99
0134827840999991992072612004-07317-039300FM-12+040999999V0200501N00211007501CN0200001N9+02341+01691101911ADDAA106000091AG14000GF108991081071008001999999KA1999N+01961MA1999999097211MD1999999-0021REMSYN017 333 20196 59002?EQDQ01  00003PRCP99
0115827840999991992072618004-07317-039300FM-12+040999999V0201401N00461012001CN0200001N9+03001+01611101391ADDAA106000091AG14000GF105991051021012501001001MA1999999096731MD1999999+0041REMSYN011 333 58004?EQDQ01  00003PRCP99
0134827840999991992072712004-07317-039300FM-12+040999999V0200501N00261007501CN0200001N9+02401+01551101921ADDAA106000091AG14000GF106991061021008001001001KA1999N+02001MA1999999097211MD1999999+0001REMSYN017 333 20200 58000?EQDQ01  00003PRCP99
0115827840999991992072718004-07317-039300FM-12+040999999V0201401N00411220001CN0200001N9+02901+01521101461ADDAA106000091AG14000GF104991041021012501001001MA1999999096791MD1999999+0061REMSYN011 333 58006?EQDQ01  00003PRCP99
0134827840999991992072812004-07317-039300FM-12+040999999V0200901N00311220001CN0200001N9+02481+01651101881ADDAA106000091AG14000GF104991041021008001001001KA1999N+02021MA1999999097181MD1999999-0031REMSYN017 333 20202 59003?EQDQ01  00003PRCP99
0115827840999991992072818004-07317-039300FM-12+040999999V0201801N00461220001CN0200001N9+03041+01451101341ADDAA106000091AG14000GF101991011021012501001001MA1999999096681MD1999999-0111REMSYN011 333 59011?EQDQ01  00003PRCP99
0150827840999991992072900004-07317-039300FM-12+040999999V0201401N00311220001CN9999999N9+02321+01631101661ADDAA106000091AG14000GA1001+999999999GF100991001001999999001001KA1999M+03061MA1999999096971MD1999999-0041REMSYN017 333 10306 59004?EQDQ01  00003PRCP99
0134827840999991992072912004-07317-039300FM-12+040999999V0201401N00931220001CN0200001N9+02501+01641101821ADDAA106000091AG14000GF101991011021008001001001KA1999N+02061MA1999999097121MD1999999-0061REMSYN017 333 20206 59006?EQDQ01  00003PRCP99
0115827840999991992072918004-07317-039300FM-12+040999999V0201801N00511012001CN0200001N9+02831+01651101381ADDAA106000091AG14000GF107991071021012501001001MA1999999096651MD1999999-0031REMSYN011 333 59003?EQDQ01  00003PRCP99
0150827840999991992073000004-07317-039300FM-12+040999999V0201401N00511220001CN9999999N9+02361+01661101591ADDAA106000091AG14000GA1001+999999999GF100991001001999999001001KA1999M+03031MA1999999096911MD1999999-0061REMSYN017 333 10303 59006?EQDQ01  00003PRCP99
0150827840999991992073012004-07317-039300FM-12+040999999V0200901N00461220001CN0200001N9+02501+01621101771ADDAA106000091AG14000GA1001+999999999GF100991001001999999001001KA1999N+02001MA1999999097081MD1999999-0041REMSYN017 333 20200 59004?EQDQ01  00003PRCP99
0115827840999991992073018004-07317-039300FM-12+040999999V0201401N00311012001CN0200001N9+03141+01361101191ADDAA106000091AG14000GF105991051021012501001001MA1999999096561MD1999999-0091REMSYN011 333 59009?EQDQ01  00003PRCP99
0134827840999991992080112004-07317-039300FM-12+040999999V0200901N00261220001CN0200001N9+02621+01791101691ADDAA106000091AG14000GF104991041021008001001001KA1999N+02121MA1999999097011MD1999999-0071REMSYN017 333 20212 59007?EQDQ01  00003PRCP99
0115827840999991992080118004-07317-039300FM-12+040999999V0200901N00151220001CN0200001N9+03181+01441101211ADDAA106000091AG14000GF103991031021008001001001MA1999999096571MD1999999-0081REMSYN011 333 59008?EQDQ01  00003PRCP99
0134827840999991992080212004-07317-039300FM-12+040999999V0200501N00101007501CN0200001N9+02541+01781101731ADDAA106000091AG14000GF106991061021008001001001KA1999N+01901MA1999999097031MD1999999+0021REMSYN017 333 20190 58002?EQDQ01  00003PRCP99
0115827840999991992080218004-07317-039300FM-12+040999999V0201401N00361012001CN0200001N9+03221+01391101001ADDAA106000091AG14000GF106991061021012501001001MA1999999096461MD1999999-0111REMSYN011 333 59011?EQDQ01  00003PRCP99
0134827840999991992080312004-07317-039300FM-12+040999999V0200901N00361220001CN0200001N9+02471+01551101721ADDAA106000091AG14000GF101991011011008001001001KA1999N+01951MA1999999097041MD1999999+0011REMSYN017 333 20195 58001?EQDQ01  00003PRCP99
0115827840999991992080418004-07317-039300FM-12+040999999V0201801N00461220001CN0200001N9+02981+01271101391ADDAA106000091AG14000GF101991011011012501001071MA1999999096731MD1999999+0071REMSYN011 333 58007?EQDQ01  00003PRCP99
0150827840999991992080500004-07317-039300FM-12+040999999V0201801N00051220001CN9999999N9+02181+01391101721ADDAA106000091AG14000GA1001+999999999GF100991001001999999001001KA1999M+03071MA1999999097011MD1999999+0041REMSYN017 333 10307 58004?EQDQ01  00003PRCP99
0134827840999991992080512004-07317-039300FM-12+040999999V0201401N00361012001CN0200001N9+02361+01591101941ADDAA106000091AG14000GF107991071081008001001001KA1999N+02041MA1999999097261MD1999999+0061REMSYN017 333 20204 58006?EQDQ01  00003PRCP99
0115827840999991992080518004-07317-039300FM-12+040999999V0201401N00311007501CN0200001N9+02941+01351101461ADDAA106000091AG14000GF105991051021008001001001MA1999999096791MD1999999+0061REMSYN011 333 58006?EQDQ01  00003PRCP99
0115827840999991992080618004-07317-039300FM-12+040999999V0200901N00361220001CN0200001N9+02981+01511101411ADDAA106000091AG14000GF103991031021012501001001MA1999999096741MD1999999-0051REMSYN011 333 59005?EQDQ01  00003PRCP99
0115827840999991992080718004-07317-039300FM-12+040999999V0201401N00361012001CN0200001N9+02761+01621101381ADDAA106000091AG14000GF108991081081008001999999MA1999999096711MD1999999-0031REMSYN011 333 59003?EQDQ01  00003PRCP99
0134827840999991992080812004-07317-039300FM-12+040999999V0201401N00261220001CN0200001N9+02491+01571101751ADDAA106000091AG14000GF101991011081008001001001KA1999N+02011MA1999999097061MD1999999-0091REMSYN017 333 20201 59009?EQDQ01  00003PRCP99
0115827840999991992080818004-07317-039300FM-12+040999999V0201401N00311220001CN0200001N9+02971+01441101251ADDAA106000091AG14000GF101991011011008001001001MA1999999096591MD1999999-0121REMSYN011 333 59012?EQDQ01  00003PRCP99
0097827840999991992080900004-07317-039300FM-12+040999999V0201401N00261220001CN9999999N9+02321+01361101551ADDAA106000091AG14000GA1001+999999999GF100991001001999999001001MA1999999096871EQDQ01  00003PRCP99
0097827840999991992080912004-07317-039300FM-12+040999999V0201401N00311220001CN0200001N9+02481+01511101701ADDAA106000091AG14000GA1001+999999999GF100991001001999999001001MA1999999097011EQDQ01  00003PRCP99
0131827840999991992080918004-07317-039300FM-12+040999999V0201401N00361220001CN0200001N9+03121+01161101131ADDAA106000091AG14000GA1001+999999999GF100991001001999999001001MA1999999096481MD1999999-0111REMSYN011 333 59011?EQDQ01  00003PRCP99
0150827840999991992081000004-07317-039300FM-12+040999999V0201401N00261220001CN9999999N9+02461+01521101531ADDAA106000091AG14000GA1001+999999999GF100991001001999999001001KA1999M+03161MA1999999096851MD1999999-0021REMSYN017 333 10316 59002?EQDQ01  00003PRCP99
0134827840999991992081012004-07317-039300FM-12+040999999V0201401N00411012001CN0200001N9+02511+01721101771ADDAA106000091AG14000GF106991061081008001001001KA1999N+01871MA1999999097091MD1999999+0081REMSYN017 333 20187 58008?EQDQ01  00003PRCP99
0115827840999991992081018004-07317-039300FM-12+040999999V0201401N00461220001CN0200001N9+03081+01601101241ADDAA106000091AG14000GF103991031021008001001001MA1999999096581MD1999999+0101REMSYN011 333 58010?EQDQ01  00003PRCP99
0115827840999991992081118004-07317-039300FM-12+040999999V0201401N00461220001CN0200001N9+03081+01441101271ADDAA106000091AG14000GF105991021011012501051091MA1999999096621MD1999999+0041REMSYN011 333 58004?EQDQ01  00003PRCP99
0134827840999991992081200004-07317-039300FM-12+040999999V0201401N00151007501CN9999999N9+02631+01461101661ADDAA106000091AG14000GF108991081051008001999999KA1999M+03141MA1999999096981MD1999999+0061REMSYN017 333 10314 58006?EQDQ01  00003PRCP99
0134827840999991992081212004-07317-039300FM-12+040999999V0200401N00211220001CN0200001N9+02601+01601101821ADDAA106000091AG14000GF103991021021008001061001KA1999N+02241MA1999999097141MD1999999+0031REMSYN017 333 20224 58003?EQDQ01  00003PRCP99
0134827840999991992081312004-07317-039300FM-12+040999999V0200901N00151007501CN0200001N9+02621+01861101761ADDAA106000091AG14000GF107991071021008001001001KA1999N+02281MA1999999097081MD1999999-0061REMSYN017 333 20228 59006?EQDQ01  00003PRCP99
0150827840999991992081400004-07317-039300FM-12+040999999V0201401N00101220001CN9999999N9+02651+01451101441ADDAA106000091AG14000GA1001+999999999GF100991001001999999001001KA1999M+03361MA1999999096781MD1999999-0031REMSYN017 333 10336 59003?EQDQ01  00003PRCP99
0134827840999991992081412004-07317-039300FM-12+040999999V0200901N00151012001CN0200001N9+02661+01821101731ADDAA106000091AG14000GF107991071081008001001001KA1999N+01911MA1999999097061MD1999999-0021REMSYN017 333 20191 59002?EQDQ01  00003PRCP99
0115827840999991992081418004-07317-039300FM-12+040999999V0201401N00261220001CN0200001N9+03191+01531101171ADDAA106000091AG14000GF104991041021008001001001MA1999999096541MD1999999-0021REMSYN011 333 59002?EQDQ01  00003PRCP99
0131827840999991992081618004-07317-039300FM-12+040999999V0200901N00261220001CN0200001N9+03301+01041101191ADDAA106000091AG14000GA1001+999999999GF100991001001999999001001MA1999999096551MD1999999+0171REMSYN011 333 58017?EQDQ01  00003PRCP99
0134827840999991992081712004-07317-039300FM-12+040999999V0201401N00311220001CN0200001N9+02551+01541101771ADDAA106000091AG14000GF101991011011008001001001KA1999N+02001MA1999999097091MD1999999+0111REMSYN017 333 20200 58011?EQDQ01  00003PRCP99
0135827840999991992082000004-07317-039300FM-12+040999999V0201401N00211220001CN9999999N9+02541+01511101601ADDAA106000091AG14000GA1001+999999999GF100991001001999999001001KA1999M+03231MD1999999-0031REMSYN017 333 10323 59003?EQDQ01  00003PRCP99
0150827840999991992082012004-07317-039300FM-12+040999999V0200901N00261220001CN0200001N9+02851+01521101801ADDAA106000091AG14000GA1001+999999999GF100991001001999999001001KA1999N+02001MA1999999097121MD1999999-0011REMSYN017 333 20200 59001?EQDQ01  00003PRCP99
0150827840999991992082100004-07317-039300FM-12+040999999V0200901N00261220001CN9999999N9+02581+01551101611ADDAA106000091AG14000GA1001+999999999GF100991001001999999001001KA1999M+03331MA1999999096941MD1999999+0021REMSYN017 333 10333 58002?EQDQ01  00003PRCP99
0134827840999991992082112004-07317-039300FM-12+040999999V0200901N00361220001CN0200001N9+02521+01491101861ADDAA106000091AG14000GF104991041081008001001001KA1999N+01921MA1999999097171MD1999999+0051REMSYN017 333 20192 58005?EQDQ01  00003PRCP99
0134827840999991992082200004-07317-039300FM-12+040999999V0201401N00261220001CN9999999N9+02571+01591101591ADDAA106000091AG14000GF101991011021008001001001KA1999M+03121MA1999999096921MD1999999-0021REMSYN017 333 10312 59002?EQDQ01  00003PRCP99
0150827840999991992082212004-07317-039300FM-12+040999999V0200901N00411220001CN0200001N9+02561+01281101721ADDAA106000091AG14000GA1001+999999999GF100991001001999999001001KA1999N+02071MA1999999097041MD1999999-0131REMSYN017 333 20207 59013?EQDQ01  00003PRCP99
0115827840999991992082218004-07317-039300FM-12+040999999V0200901N00311220001CN0200001N9+03231+01031101101ADDAA106000091AG14000GF101991011011008001001001MA1999999096461MD1999999-0271REMSYN011 333 59027?EQDQ01  00003PRCP99
0150827840999991992082312004-07317-039300FM-12+040999999V0201401N00311220001CN0200001N9+02541+01331101691ADDAA106000091AG14000GA1001+999999999GF100991001001999999001001KA1999N+01951MA1999999097011MD1999999-0031REMSYN017 333 20195 59003?EQDQ01  00003PRCP99
0131827840999991992082418004-07317-039300FM-12+040999999V0201401N00261220001CN0200001N9+03381+01271100971ADDAA106000091AG14000GA1001+999999999GF100991001001999999001001MA1999999096351MD1999999-0141REMSYN011 333 59014?EQDQ01  00003PRCP99
0150827840999991992082500004-07317-039300FM-12+040999999V0200501N00151220001CN9999999N9+02581+00921101341ADDAA106000091AG14000GA1001+999999999GF100991001001999999001001KA1999M+03461MA1999999096691MD1999999-0091REMSYN017 333 10346 59009?EQDQ01  00003PRCP99
0134827840999991992082512004-07317-039300FM-12+040999999V0200501N00101012001CN0200001N9+02441+01711101801ADDAA106000091AG14000GF106991061081008001001001KA1999N+01591MA1999999097111MD1999999+0191REMSYN017 333 20159 58019?EQDQ01  00003PRCP99
0134827840999991992082612004-07317-039300FM-12+040999999V0200901N00211012001CN0200001N9+02401+01731101851ADDAA106000091AG14000GF107991071081008001001001KA1999N+01741MA1999999097171MD1999999+0061REMSYN017 333 20174 58006?EQDQ01  00003PRCP99
0131827840999991992082818004-07317-039300FM-12+040999999V0200901N00311220001CN0200001N9+03291+00761101231ADDAA106000091AG14000GA1001+999999999GF100991001001999999001001MA1999999096591MD1999999+0061REMSYN011 333 58006?EQDQ01  00003PRCP99
0134827840999991992082900004-07317-039300FM-12+040999999V0201801N00151220001CN9999999N9+02541+01331101541ADDAA106000091AG14000GF101991011021008001001001KA1999M+03331MA1999999096871MD1999999+0051REMSYN017 333 10333 58005?EQDQ01  00003PRCP99
0134827840999991992082912004-07317-039300FM-12+040999999V0200501N00211220001CN0200001N9+02661+01681101771ADDAA106000091AG14000GF102991021021008001001001KA1999N+02121MA1999999097091MD1999999-0021REMSYN017 333 20212 59002?EQDQ01  00003PRCP99
0134827840999991992083000004-07317-039300FM-12+040999999V0200901N00151007501CN9999999N9+02791+01371101491ADDAA106000091AG14000GF108991081021008001999999KA1999M+03381MA1999999096841MD1999999-0031REMSYN017 333 10338 59003?EQDQ01  00003PRCP99
0134827840999991992083012004-07317-039300FM-12+040999999V0200901N00261007501CN0200001N9+02671+01741101711ADDAA106000091AG14000GF108991081021008001999999KA1999N+02301MA1999999097051MD1999999-0041REMSYN017 333 20230 59004?EQDQ01  00003PRCP99
0115827840999991992083018004-07317-039300FM-12+040999999V0201801N00311012001CN0200001N9+03241+01451101201ADDAA106000091AG14000GF108991081021012501999999MA1999999096571MD1999999+0041REMSYN011 333 58004?EQDQ01  00003PRCP99
0134827840999991992083112004-07317-039300FM-12+040999999V0200901N00411220001CN0200001N9+02531+01451101701ADDAA106000091AG14000GF102991021011008001001001KA1999N+02141MA1999999097031MD1999999-0021REMSYN017 333 20214 59002?EQDQ01  00003PRCP99
0150827840999991992090212004-07317-039300FM-12+040999999V0201401N00211220001CN0200001N9+02701+01541101651ADDAA106000091AG14000GA1001+999999999GF100991001001999999001001KA1999N+01891MA1999999096981MD1999999+0071REMSYN017 333 20189 58007?EQDQ01  00003PRCP99
0134827840999991992090312004-07317-039300FM-12+040999999V0200901N00361220001CN0200001N9+02701+01511101631ADDAA106000091AG14000GF101991011011008001001001KA1999N+02241MA1999999096971MD1999999-0011REMSYN017 333 20224 59001?EQDQ01  00003PRCP99
0115827840999991992090318004-07317-039300FM-12+040999999V0201801N00311220001CN0200001N9+03381+01381101001ADDAA106000091AG14000GF102991021011012501001001MA1999999096381MD1999999-0011REMSYN011 333 59001?EQDQ01  00003PRCP99
0134827840999991992090400004-07317-039300FM-12+040999999V0201401N00261007501CN9999999N9+02701+01341101251ADDAA106000091AG14000GF106991061021008001001001KA1999M+03431MA1999999096611MD1999999-0021REMSYN017 333 10343 59002?EQDQ01  00003PRCP99
0081827840999991992090412004-07317-039300FM-12+040999999V0200501N00311007501CN0200001N9+02511+01621101531ADDAA106000091AG14000GF108991081051008001999999MA1999999096861EQDQ01  00003PRCP99
0134827840999991992090500004-07317-039300FM-12+040999999V0201401N00051012001CN9999999N9+02541+01391101191ADDAA106000091AG14000GF108991081081008001999999KA1999M+03371MA1999999096541MD1999999-0071REMSYN017 333 10337 59007?EQDQ01  00003PRCP99
0134827840999991992090512004-07317-039300FM-12+040999999V0200501N00211220001CN0200001N9+02601+01681101501ADDAA106000091AG14000GF102991021021008001001001KA1999N+01921MA1999999096831MD1999999-0031REMSYN017 333 20192 59003?EQDQ01  00003PRCP99
0150827840999991992090600004-07317-039300FM-12+040999999V0201401N00151220001CN9999999N9+02341+01371101131ADDAA106000091AG14000GA1001+999999999GF100991001001999999001001KA1999M+03361MA1999999096471MD1999999-0071REMSYN017 333 10336 59007?EQDQ01  00003PRCP99
0150827840999991992090612004-07317-039300FM-12+040999999V0200501N00311220001CN0200001N9+02841+01391101371ADDAA106000091AG14000GA1001+999999999GF100991001001999999001001KA1999N+01801MA1999999096711MD1999999-0141REMSYN017 333 20180 59014?EQDQ01  00003PRCP99
0115827840999991992090618004-07317-039300FM-12+040999999V0200501N00211220001CN0200001N9+03501+01081100801ADDAA106000091AG14000GF102991021021012501001001MA1999999096181MD1999999-0061REMSYN011 333 59006?EQDQ01  00003PRCP99
0134827840999991992090700004-07317-039300FM-12+040999999V0201401N00051012001CN9999999N9+02521+01241101091ADDAA106000091AG14000GF108991081081008001999999KA1999M+03551MA1999999096451MD1999999+0021REMSYN017 333 10355 58002?EQDQ01  00003PRCP99
0162827840999991992090712004-07317-039300FM-12+040999999V0203601N00051012001CN0200001N9+02431+01991101541ADDAA124015091AG10005AY161999AY221999GF107991061081008001061001KA1999N+02101MA1999999096861MD1999999+0151MW1021REMSYN023 333 20210 58015 60154?EQDQ01  01503PRCP99
0134827840999991992090812004-07317-039300FM-12+040999999V0203601N00211012001CN0200001N9+02491+01851101521ADDAA106000091AG14000GF108991081081008001999999KA1999N+02231MA1999999096851MD1999999-0011REMSYN017 333 20223 59001?EQDQ01  00003PRCP99
0134827840999991992090912004-07317-039300FM-12+040999999V0203601N00051012001CN0200001N9+02461+01901101531ADDAA106000091AG14000GF108991081081008001999999KA1999N+02301MA1999999096851MD1999999+0001REMSYN017 333 20230 58000?EQDQ01  00003PRCP99
0115827840999991992090918004-07317-039300FM-12+040999999V0203601N00311220001CN0200001N9+03221+01691100911ADDAA106000091AG14000GF103991031021008001001001MA1999999096291MD1999999-0101REMSYN011 333 59010?EQDQ01  00003PRCP99
0115827840999991992091018004-07317-039300FM-12+040999999V0201401N00311012001CN0200001N9+02951+01591101151ADDAA106000091AG14000GF105991051081008001001001MA1999999096511MD1999999+0221REMSYN011 333 58022?EQDQ01  00003PRCP99
0134827840999991992091112004-07317-039300FM-12+040999999V0200901N00261012001CN0200001N9+02461+01681101671ADDAA106000091AG14000GF107991071081008001001001KA1999N+02141MA1999999096991MD1999999+0051REMSYN017 333 20214 58005?EQDQ01  00003PRCP99
0115827840999991992091118004-07317-039300FM-12+040999999V0200501N00311220001CN0200001N9+03081+01521101131ADDAA106000091AG14000GF103991031021008001001001MA1999999096481MD1999999-0031REMSYN011 333 59003?EQDQ01  00003PRCP99
0134827840999991992091212004-07317-039300FM-12+040999999V0201401N00311007501CN0200001N9+02301+01461101731ADDAA106000091AG14000GF108991081051008001999999KA1999N+02051MA1999999097031MD1999999+0041REMSYN017 333 20205 58004?EQDQ01  00003PRCP99
0134827840999991992091312004-07317-039300FM-12+040999999V0201401N00311012001CN0200001N9+02401+01631101481ADDAA106000091AG14000GF108991081081008001999999KA1999N+02051MA1999999096901MD1999999-0131REMSYN017 333 20205 59013?EQDQ01  00003PRCP99
0115827840999991992091318004-07317-039300FM-12+040999999V0200901N00211012001CN0200001N9+03181+01351100831ADDAA106000091AG14000GF105991051021012501001001MA1999999096201MD1999999-0221REMSYN011 333 59022?EQDQ01  00003PRCP99
0115827840999991992091418004-07317-039300FM-12+040999999V0200901N00211220001CN0200001N9+03031+01591100891ADDAA106000091AG14000GF104991051021008001061001MA1999999096251MD1999999+0051REMSYN011 333 58005?EQDQ01  00003PRCP99
0143827840999991992091500004-07317-039300FM-12+040999999V0200501N00101007501CN0100001N9+02171+02041101221ADDAA199002091AG10001AY151999AY221999GF108991081071008001999999KA1999M+03151MA1999999096611MD1999999+0121MW1611REMSYN023 333 10315 58012 60020?
0162827840999991992091512004-07317-039300FM-12+040999999V0201401N00361012001CN0200001N9+02571+01801101551ADDAA124002091AG10005AY161999AY221999GF108991081081008001999999KA1999N+02091MA1999999096861MD1999999+0111MW1021REMSYN023 333 20209 58011 60024?EQDQ01  00203PRCP99
0085827840999991992091518004-07317-039300FM-12+040999999V0200901N00261220001CN0200001N9+02001+01781101111ADDAG12000GF103991031021012501001001MA1999999096461MD1999999+0211REMSYN011 333 58021?
0162827840999991992091612004-07317-039300FM-12+040999999V0200901N00311012001CN0200001N9+02461+01881101561ADDAA124008091AG10005AY161999AY221999GF107991061081008001061001KA1999N+01981MA1999999096871MD1999999+0011MW1021REMSYN023 333 20198 58001 60084?EQDQ01  00803PRCP99
0162827840999991992091700004-07317-039300FM-12+040999999V0201801N00151004201CN0100001N9+02181+02101101421ADDAA106003091AG10005AY161999AY221999GF108991081071004501999999KA1999M+02891MA1999999096731MD1999999-0061MW1631REMSYN023 333 10289 59006 60031?EQDQ01  00303PRCP99
0162827840999991992091712004-07317-039300FM-12+040999999V0200901N00261012001CN0200001N9+02411+01771101461ADDAA124010091AG10005AY161999AY221999GF107991061081008001001001KA1999N+02121MA1999999096771MD1999999-0101MW1021REMSYN023 333 20212 59010 60104?EQDQ01  01003PRCP99
0115827840999991992091718004-07317-039300FM-12+040999999V0200901N00211012001CN0200001N9+03011+01611100891ADDAA106000091AG14000GF106991061021012501001001MA1999999096251MD1999999-0141REMSYN011 333 59014?EQDQ01  00003PRCP99
0150827840999991992091800004-07317-039300FM-12+040999999V0200501N00051220001CN9999999N9+02291+01921101161ADDAA106000091AG14000GA1001+999999999GF100991001001999999001001KA1999M+03071MA1999999096491MD1999999-0241REMSYN017 333 10307 59024?EQDQ01  00003PRCP99
0134827840999991992091812004-07317-039300FM-12+040999999V0200901N00311007501CN0200001N9+02521+01711101501ADDAA106000091AG14000GF108991081051008001999999KA1999N+02261MA1999999096821MD1999999+0051REMSYN017 333 20226 58005?EQDQ01  00003PRCP99
0115827840999991992091818004-07317-039300FM-12+040999999V0201801N00411220001CN0200001N9+03181+01651100921ADDAA106000091AG14000GF104991041021008001001001MA1999999096241MD1999999+0041REMSYN011 333 58004?EQDQ01  00003PRCP99
0115827840999991992091918004-07317-039300FM-12+040999999V0203601N00411220001CN0200001N9+03191+01491100931ADDAA106000091AG14000GF102991021011008001001001MA1999999096291MD1999999+0001REMSYN011 333 58000?EQDQ01  00003PRCP99
0134827840999991992092012004-07317-039300FM-12+040999999V0203601N00261012001CN0200001N9+02551+01951101531ADDAA106000091AG14000GF108991081081008001999999KA1999N+02211MA1999999096851MD1999999+0081REMSYN017 333 20221 58008?EQDQ01  00003PRCP99
0115827840999991992092018004-07317-039300FM-12+040999999V0203601N00211220001CN0200001N9+03171+01381100931ADDAA106000091AG14000GF103991031021012501001001MA1999999096311MD1999999+0021REMSYN011 333 58002?EQDQ01  00003PRCP99
0134827840999991992092112004-07317-039300FM-12+040999999V0200901N00211012001CN0200001N9+02531+01821101491ADDAA106000091AG14000GF108991081081008001999999KA1999N+02291MA1999999096831MD1999999-0021REMSYN017 333 20229 59002?EQDQ01  00003PRCP99
0115827840999991992092118004-07317-039300FM-12+040999999V0200901N00311007501CN0200001N9+03081+01641100951ADDAA106000091AG14000GF106991061021008001001001MA1999999096331MD1999999+0021REMSYN011 333 58002?EQDQ01  00003PRCP99
0143827840999991992092218004-07317-039300FM-12+040999999V0200901N00311007501CN0200001N9+03061+01701100961ADDAA106000191AG10001AY151999AY221999GF105991051021008001001001MA1999999096331MD1999999+0001MW1021REMSYN017 333 58000 69911?EQDQ01  00013PRCP99
0115827840999991992092318004-07317-039300FM-12+040999999V0200901N00151220001CN0200001N9+03041+01571101031ADDAA106000091AG14000GF103991061021008001001001MA1999999096361MD1999999+0031REMSYN011 333 58003?EQDQ01  00003PRCP99
0150827840999991992092412004-07317-039300FM-12+040999999V0200901N00311220001CN0200001N9+02631+01561101571ADDAA106000091AG14000GA1001+999999999GF100991001001999999001001KA1999N+02121MA1999999096901MD1999999+0051REMSYN017 333 20212 58005?EQDQ01  00003PRCP99
0115827840999991992092518004-07317-039300FM-12+040999999V0200901N00311012001CN0200001N9+03281+01491100721ADDAA106000091AG14000GF106991061021012501001001MA1999999096181MD1999999-0111REMSYN011 333 59011?EQDQ01  00003PRCP99
0134827840999991992092712004-07317-039300FM-12+040999999V0200901N00211012001CN0200001N9+02541+01731101651ADDAA106000091AG14000GF108991081081008001999999KA1999N+02171MA1999999096961MD1999999+0121REMSYN017 333 20217 58012?EQDQ01  00003PRCP99
0115827840999991992092718004-07317-039300FM-12+040999999V0200501N00211220001CN0200001N9+03341+01401100951ADDAA106000091AG14000GF101991011011012501001001MA1999999096331MD1999999+0041REMSYN011 333 58004?EQDQ01  00003PRCP99
0134827840999991992093012004-07317-039300FM-12+040999999V0203601N00101012001CN0200001N9+02521+01691101621ADDAA106000091AG14000GF107991061081008001011001KA1999N+02191MA1999999096961MD1999999+0061REMSYN017 333 20219 58006?EQDQ01  00003PRCP99
0134827840999991992100112004-07317-039300FM-12+040999999V0200901N00261007501CN0200001N9+02521+01771101511ADDAA106000091AG14000GF108991081051008001999999KA1999N+02201MA1999999096841MD1999999-0121REMSYN017 333 20220 59012?EQDQ01  00003PRCP99
0115827840999991992100118004-07317-039300FM-12+040999999V0200201N002119999999N0200001N9+03181+01311100941ADDAA106000091AG14000GF105991021011012501001001MA1999999096321MD1999999-0011REMSYN011 333 59001?EQDQ01  00003PRCP99
0134827840999991992100312004-07317-039300FM-12+040999999V0200501N00311007501CN0200001N9+02681+01551101351ADDAA106000091AG14000GF106991061061008001001001KA1999N+01801MA1999999096701MD1999999+0041REMSYN017 333 20180 58004?EQDQ01  00003PRCP99
0131827840999991992100318004-07317-039300FM-12+040999999V0201401N00151220001CN0200001N9+03361+01141100801ADDAA106000091AG14000GA1001+999999999GF100991001001999999001001MA1999999096181MD1999999-0021REMSYN011 333 59002?EQDQ01  00003PRCP99
0150827840999991992100412004-07317-039300FM-12+040999999V0203601N00261220001CN0200001N9+02581+01521101481ADDAA106000091AG14000GA1001+999999999GF100991001001999999001001KA1999N+01621MA1999999096801MD1999999+0101REMSYN017 333 20162 58010?EQDQ01  00003PRCP99
0131827840999991992100418004-07317-039300FM-12+040999999V0200901N00211220001CN0200001N9+03481+00621100811ADDAA106000091AG14000GA1001+999999999GF100991001001999999001001MA1999999096201MD1999999+0021REMSYN011 333 58002?EQDQ01  00003PRCP99
0150827840999991992100512004-07317-039300FM-12+040999999V0200501N00211220001CN0200001N9+02661+01711101401ADDAA106000091AG14000GA1001+999999999GF100991001001999999001001KA1999N+01721MA1999999096731MD1999999-0071REMSYN017 333 20172 59007?EQDQ01  00003PRCP99
0115827840999991992100618004-07317-039300FM-12+040999999V0200501N00211012001CN0200001N9+03291+01391100921ADDAA106000091AG14000GF106991061021012501001001MA1999999096311MD1999999+0251REMSYN011 333 58025?EQDQ01  00003PRCP99
0150827840999991992100812004-07317-039300FM-12+040999999V0200501N00311220001CN0200001N9+02781+01481101521ADDAA106000091AG14000GA1001+999999999GF100991001001999999001001KA1999N+01811MA1999999096851MD1999999-0081REMSYN017 333 20181 59008?EQDQ01  00003PRCP99
0115827840999991992100918004-07317-039300FM-12+040999999V0201801N00311220001CN0200001N9+03381+01221101011ADDAA106000091AG14000GF103991031011012501001001MA1999999096381MD1999999+0051REMSYN011 333 58005?EQDQ01  00003PRCP99
0115827840999991992101118004-07317-039300FM-12+040999999V0200501N00261220001CN0200001N9+03401+01121100861ADDAA106000091AG14000GF102991021061012501001001MA1999999096251MD1999999-0021REMSYN011 333 59002?EQDQ01  00003PRCP99
0134827840999991992101212004-07317-039300FM-12+040999999V0200901N00311220001CN0200001N9+02681+01521101431ADDAA106000091AG14000GF102991021021008001001001KA1999N+02111MA1999999096761MD1999999-0161REMSYN017 333 20211 59016?EQDQ01  00003PRCP99
0134827840999991992101312004-07317-039300FM-12+040999999V0200501N00261220001CN0200001N9+02681+01671101531ADDAA106000091AG14000GF104991041021008001001001KA1999N+02111MA1999999096861MD1999999+0101REMSYN017 333 20211 58010?EQDQ01  00003PRCP99
0115827840999991992101718004-07317-039300FM-12+040999999V0203601N00211007501CN0200001N9+03301+01151100951ADDAA106000091AG14000GF105991051021008001001001MA1999999096341MD1999999-0081REMSYN011 333 59008?EQDQ01  00003PRCP99
0134827840999991992101812004-07317-039300FM-12+040999999V0200501N00211220001CN0200001N9+02781+01441101561ADDAA106000091AG14000GF101991011011008001001001KA1999N+02081MA1999999096911MD1999999-0041REMSYN017 333 20208 59004?EQDQ01  00003PRCP99
0150827840999991992101912004-07317-039300FM-12+040999999V0200901N00361220001CN0200001N9+02801+01351101391ADDAA106000091AG14000GA1001+999999999GF100991001001999999001001KA1999N+02101MA1999999096741MD1999999-0171REMSYN017 333 20210 59017?EQDQ01  00003PRCP99
0131827840999991992101918004-07317-039300FM-12+040999999V0200901N00311220001CN0200001N9+03441+01091100831ADDAA106000091AG14000GA1001+999999999GF100991001001999999001001MA1999999096221MD1999999-0111REMSYN011 333 59011?EQDQ01  00003PRCP99
0134827840999991992102012004-07317-039300FM-12+040999999V0200901N00311220001CN0200001N9+02811+01721101451ADDAA106000091AG14000GF101991011011008001001001KA1999N+02231MA1999999096801MD1999999+0061REMSYN017 333 20223 58006?EQDQ01  00003PRCP99
0115827840999991992102118004-07317-039300FM-12+040999999V0203601N00211220001CN0200001N9+03461+01551100801ADDAA106000091AG14000GF103991031021008001001001MA1999999096201MD1999999-0011REMSYN011 333 59001?EQDQ01  00003PRCP99
0134827840999991992102412004-07317-039300FM-12+040999999V0200501N00211220001CN0200001N9+02801+01721101441ADDAA106000091AG14000GF102991021021008001001001KA1999N+02341MA1999999096791MD1999999-0111REMSYN017 333 20234 59011?EQDQ01  00003PRCP99
0115827840999991992102418004-07317-039300FM-12+040999999V0200501N00151220001CN0200001N9+03461+01501100821ADDAA106000091AG14000GF104991041021008001001001MA1999999096221MD1999999-0101REMSYN011 333 59010?EQDQ01  00003PRCP99
0134827840999991992102612004-07317-039300FM-12+040999999V0200901N00311220001CN0200001N9+02741+01611101461ADDAA106000091AG14000GF104991041021008001001001KA1999N+02241MA1999999096811MD1999999+0091REMSYN017 333 20224 58009?EQDQ01  00003PRCP99
0134827840999991992102712004-07317-039300FM-12+040999999V0200501N00151220001CN0200001N9+02711+01881101301ADDAA106000091AG14000GF104991041021008001001001KA1999N+02271MA1999999096661MD1999999-0151REMSYN017 333 20227 59015?EQDQ01  00003PRCP99
0134827840999991992103012004-07317-039300FM-12+040999999V0200501N00261220001CN0200001N9+02721+01621101391ADDAA106000091AG14000GF103991021011008001011001KA1999N+02251MA1999999096741MD1999999+0051REMSYN017 333 20225 58005?EQDQ01  00003PRCP99
0115827840999991992103018004-07317-039300FM-12+040999999V0200501N00361015001CN0200001N9+03401+01291100791ADDAA106000091AG14000GF106991061001017501011001MA1999999096191MD1999999-0011REMSYN011 333 59001?EQDQ01  00003PRCP99
0134827840999991992110112004-07317-039300FM-12+040999999V0200501N00311007501CN0200001N9+02701+01661101231ADDAA106000091AG14000GF105991051021008001001001KA1999N+02071MA1999999096581MD1999999-0101REMSYN017 333 20207 59010?EQDQ01  00003PRCP99
0134827840999991992110212004-07317-039300FM-12+040999999V0203601N00101012001CN0200001N9+02581+01801101271ADDAA106000091AG14000GF108991081081008001999999KA1999N+02211MA1999999096611MD1999999+0031REMSYN017 333 20221 58003?EQDQ01  00003PRCP99
0134827840999991992110312004-07317-039300FM-12+040999999V0203601N00361220001CN0200001N9+02731+01591101321ADDAA106000091AG14000GF102991021021008001001001KA1999N+02211MA1999999096601MD1999999+0051REMSYN017 333 20221 58005?EQDQ01  00003PRCP99
0115827840999991992110318004-07317-039300FM-12+040999999V0203601N00151220001CN0200001N9+03401+01351100731ADDAA106000091AG14000GF102991021011012501001001MA1999999096131MD1999999+0011REMSYN011 333 58001?EQDQ01  00003PRCP99
0115827840999991992110518004-07317-039300FM-12+040999999V0200501N00211220001CN0200001N9+03441+01151101521ADDAA106000091AG14000GF103991031061012501001001MA1999999095941MD1999999-0071REMSYN011 333 59007?EQDQ01  00003PRCP99
0134827840999991992110712004-07317-039300FM-12+040999999V0200501N00361012001CN0200001N9+02601+01761101221ADDAA106000091AG14000GF108991081081008001999999KA1999N+02371MA1999999096591MD1999999+0171REMSYN017 333 20237 58017?EQDQ01  00003PRCP99
0134827840999991992110812004-07317-039300FM-12+040999999V0200501N00151007501CN0200001N9+02661+01701101431ADDAA106000091AG14000GF108991081071008001999999KA1999N+02321MA1999999096751MD1999999+0161REMSYN017 333 20232 58016?EQDQ01  00003PRCP99
0150827840999991992111112004-07317-039300FM-12+040999999V0200901N00311220001CN0200001N9+02821+01481101261ADDAA106000091AG14000GA1001+999999999GF100991001001999999001001KA1999N+02331MA1999999096631MD1999999-0101REMSYN017 333 20233 59010?EQDQ01  00003PRCP99
0115827840999991992111318004-07317-039300FM-12+040999999V0200901N00261220001CN0200001N9+03401+01241100741ADDAA106000091AG14000GF101991011011012501001001MA1999999096121MD1999999-0051REMSYN011 333 59005?EQDQ01  00003PRCP99
0130827840999991992111512004-07317-039300FM-12+040999999V0203601N00211220001CN0200001N9+02831+01771101271ADDAA106000091AG14000GA1001+999999999GF100991001001999999001001KA1999N+02251MA1999999096631REMSYN011 333 20225?EQDQ01  00003PRCP99
0134827840999991992111712004-07317-039300FM-12+040999999V0200501N00211220001CN0200001N9+02891+01571101161ADDAA106000091AG14000GF101991011001017501011001KA1999N+02241MA1999999096541MD1999999-0081REMSYN017 333 20224 59008?EQDQ01  00003PRCP99
0134827840999991992111918004-07317-039300FM-12+040999999V0209999999999007501CN0200001N9+02481+01981101321ADDAA106000091AG14000GF108991081071008001999999KA1999N+02391MA1999999096671MD1999999+0201REMSYN017 333 20239 58020?EQDQ01  00003PRCP99
0134827840999991992112212004-07317-039300FM-12+040999999V0200901N00311007501CN0200001N9+02861+01621101101ADDAA106000091AG14000GF108991081061008001999999KA1999N+02251MA1999999096481MD1999999-0151REMSYN017 333 20225 59015?EQDQ01  00003PRCP99
0115827840999991992112218004-07317-039300FM-12+040999999V0200501N00261012001CN0200001N9+03421+01411100561ADDAA106000091AG14000GF105991051021012501001001MA1999999095971MD1999999-0111REMSYN011 333 59011?EQDQ01  00003PRCP99
0115827840999991992112318004-07317-039300FM-12+040999999V0200501N00261007501CN0009001N9+03381+01481100511ADDAA106000091AG14000GF105991051021008001001001MA1999999095931MD1999999-0041REMSYN011 333 59004?EQDQ01  00003PRCP99
0134827840999991992112712004-07317-039300FM-12+040999999V0209991C00001007501CN9999999N9+02591+02211100801ADDAA106000091AG14000GF106991061021008001001001KA1999M+03451MA1999999096171MD1999999-0231REMSYN017 333 10345 59023?EQDQ01  00003PRCP99
0134827840999991992112812004-07317-039300FM-12+040999999V0203601N00101007501CN0200001N9+02601+01841101121ADDAA106000091AG14000GF106991061021008001001001KA1999N+02341MA1999999096481MD1999999-0051REMSYN017 333 20234 59005?EQDQ01  00003PRCP99
0115827840999991992120218004-07317-039300FM-12+040999999V0200901N00211007501CN0200001N9+03371+01411100851ADDAA106000091AG14000GF105991051021008001001001MA1999999096241MD1999999-0091REMSYN011 333 59009?EQDQ01  00003PRCP99
0162827840999991992120612004-07317-039300FM-12+040999999V0201401N00261220001CN0200001N9+02861+01751101301ADDAA124000191AG10001AY151999AY211999GF101991011011012501001001KA1999N+02451MA1999999096661MD1999999+0011MW1011REMSYN023 333 20245 58001 69914?EQDQ01  00013PRCP99
0115827840999991992120618004-07317-039300FM-12+040999999V0200901N00151045001CN0200001N9+03511+01321100761ADDAA106000091AG14000GF107991021021012501021001MA1999999096141MD1999999-0011REMSYN011 333 59001?EQDQ01  00003PRCP99
0134827840999991992120712004-07317-039300FM-12+040999999V0200901N00311045001CN0200001N9+02791+01641101381ADDAA106000091AG14000GF107991011011008001051001KA1999N+02421MA1999999096751MD1999999-0091REMSYN017 333 20242 59009?EQDQ01  00003PRCP99
0134827840999991992120812004-07317-039300FM-12+040999999V0203601N00211220001CN0200001N9+02821+01711101301ADDAA106000091AG14000GF102991021021008001001001KA1999N+02341MA1999999096661MD1999999-0091REMSYN017 333 20234 59009?EQDQ01  00003PRCP99
0162827840999991992121018004-07317-039300FM-12+040999999V0200901N00151012001CN0200001N9+02581+02011101221ADDAA124033091AG10006AY161999AY211999GF108991061081008001031999KA1999N+02191MA1999999096571MD1999999+0021MW1021REMSYN023 333 20219 58002 60334?EQDQ01  03303PRCP99
0150827840999991992121212004-07317-039300FM-12+040999999V0209991C00001220001CN9999999N9+02481+01901100931ADDAA106000091AG14000GA1001+999999999GF100991001001999999001001KA1999M+03331MA1999999096301MD1999999-0071REMSYN017 333 10333 59007?EQDQ01  00003PRCP99
0115827840999991992121318004-07317-039300FM-12+040999999V0200501N00261045001CN0200001N9+03501+01431100581ADDAA106000091AG14000GF105991031021012501011091MA1999999095991MD1999999-0111REMSYN011 333 59011?EQDQ01  00003PRCP99
0115827840999991992121418004-07317-039300FM-12+040999999V0203201N00101012001CN0200001N9+03051+01751100811ADDAA106000091AG14000GF108991081081008001999999MA1999999096201MD1999999+0211REMSYN011 333 58021?EQDQ01  00003PRCP99
0154827840999991992121612004-07317-039300FM-12+040999999V0200901N00311220001CN0200001N9+02661+01711101431ADDAA124000691AA299000591AG10001AY151999AY211999GF103991011021008001071001KA1999N+02151MA1999999096761MD1999999+0161MW1011REMSYN023 333 20215 58016 69964?
0150827840999991992121712004-07317-039300FM-12+040999999V0201401N00211220001CN0200001N9+02691+01611101311ADDAA106000091AG14000GA1001+999999999GF100991001001999999001001KA1999N+02321MA1999999096671MD1999999-0091REMSYN017 333 20232 59009?EQDQ01  00003PRCP99
0115827840999991992121718004-07317-039300FM-12+040999999V0200901N00311220001CN0200001N9+03501+01431100641ADDAA106000091AG14000GF104991041021012501001001MA1999999096051MD1999999-0221REMSYN011 333 59022?EQDQ01  00003PRCP99
0115827840999991992122018004-07317-039300FM-12+040999999V0200501N00151220001CN0200001N9+03421+01361100581ADDAA106000091AG14000GF102991021021012501001001MA1999999095991MD1999999+0041REMSYN011 333 58004?EQDQ01  00003PRCP99
0134827840999991992122112004-07317-039300FM-12+040999999V0203601N00311012001CN0200001N9+02641+01391101191ADDAA106000091AG14000GF108991081081008001999999KA1999N+02371MA1999999096561MD1999999+0061REMSYN017 333 20237 58006?EQDQ01  00003PRCP99
0134827840999991992122212004-07317-039300FM-12+040999999V0200501N00261220001CN0200001N9+02721+01651101341ADDAA106000091AG14000GF102991021011008001001001KA1999N+02461MA1999999096711MD1999999+0151REMSYN017 333 20246 58015?EQDQ01  00003PRCP99
0115827840999991992122318004-07317-039300FM-12+040999999V0203601N00101220001CN0200001N9+03381+01431100821ADDAA106000091AG14000GF102991021021008001001001MA1999999096221MD1999999+0041REMSYN011 333 58004?EQDQ01  00003PRCP99
0115827840999991992122518004-07317-039300FM-12+040999999V0200501N00261045001CN0200001N9+03501+01081100691ADDAA106000091AG14000GF108991011011012501051091MA1999999096091MD1999999-0021REMSYN011 333 59002?EQDQ01  00003PRCP99
0131827840999991992122618004-07317-039300FM-12+040999999V0203601N00211220001CN0200001N9+03481+01191100521ADDAA106000091AG14000GA1001+999999999GF100991001001999999001001MA1999999096101MD1999999+0021REMSYN011 333 58002?EQDQ01  00003PRCP99
0134827840999991992122712004-07317-039300FM-12+040999999V0203601N00211220001CN0200001N9+02721+01791101141ADDAA106000091AG14000GF101991011011008001001001KA1999N+02091MA1999999096501MD1999999-0111REMSYN017 333 20209 59011?EQDQ01  00003PRCP99
0131827840999991992122718004-07317-039300FM-12+040999999V0203601N00361220001CN0200001N9+03501+00791100581ADDAA106000091AG14000GA1001+999999999GF100991001001999999001001MA1999999095981MD1999999-0131REMSYN011 333 59013?EQDQ01  00003PRCP99
0150827840999991992122812004-07317-039300FM-12+040999999V0201801N00151220001CN9999999N9+02521+00951100911ADDAA106000091AG14000GA1001+999999999GF100991001001999999001001KA1999M+03571MA1999999096271MD1999999+0021REMSYN017 333 10357 58002?EQDQ01  00003PRCP99
0115827840999991992122918004-07317-039300FM-12+040999999V0201401N00261007501CN0200001N9+03201+01551100781ADDAA106000091AG14000GF108991051071008001021999MA1999999096171MD1999999+0031REMSYN011 333 58003?EQDQ01  00003PRCP99
0115827840999991992123118004-07317-039300FM-12+040999999V0200901N00311012001CN0200001N9+03401+01401100801ADDAA106000091AG14000GF107991071021012501001001MA1999999096191MD1999999+0081REMSYN011 333 58008?EQDQ01  00003PRCP99
