0169827980999991992010112004-07100-034867SY-MT+0007SBJP V0201401N00411012001CN0040001N1+02901+02171999999ADDAA124000491AA299000591AG10000AY101999AY261999GA1041+006009089GF106991061081008001001001KA1999N+02601MA1101291999999MW1211REMSYN017333   20260 69944EQDQ01    003PRSWM1
0047827980999991992010116004-07100-034867FM-15+0007SBJP V0201501N00411006001CN0112001N1+03001+02101999999ADDAG12999GA1061+006009089MA1101081999999MW1001
0047827980999991992010117004-07100-034867FM-15+0007SBJP V0201701N00511006001CN0112001N1+02901+02101999999ADDAG11999GA1061+006009089MA1101021999999MW1001
0078827980999991992010118004-07100-034867FM-12+0007SBJP V0201401N00311012001CN0040001N9+02881+02161999999ADDAA106000091AG14000GF105991051081008001001001REMSYN003333EQDQ01  00003PRCP99
0047827980999991992010212004-07100-034867FM-15+0007SBJP V0202101N00311220001CN0112001N1+02701+02101999999ADDAG11000GA1041+006009089MA1101291999999MW1001
0047827980999991992010216004-07100-034867FM-15+0007SBJP V0201701N00411220001CN0112001N1+03001+02001999999ADDAG12999GA1031+006009089MA1101081999999MW1001
0047827980999991992010217004-07100-034867FM-15+0007SBJP V0201701N00511006001CN0112001N1+03001+02101999999ADDAG11999GA1051+006009089MA1101081999999MW1001
0109827980999991992010218004-07100-034867SY-MT+0007SBJP V0201401N00311006001CN0040001N1+02921+02121999999ADDAA106000091AG14000GA1051+006009089GF105991051021008001001001MA1101021999999REMSYN003333EQDQ01  00003PRCP99
0047827980999991992010311004-07100-034867FM-15+0007SBJP V0201301N00511006001CN0112001N1+02801+02201999999ADDAG12999GA1051+006009089MA1101291999999MW1001
0105827980999991992010312004-07100-034867FM-12+0007SBJP V0201401N00411012001CN0040001N9+02901+02201999999ADDAA124001091AG10000GF106991061081008001001001KA1999N+02601REMSYN017333   20260 69974EQDQ01  00103PRCP99
0068827980999991992010314004-07100-034867FM-15+0007SBJP V0201601N00411006001CN0112001N1+03001+02101999999ADDAG12999GA1051+006009089MA1101291999999MW1001REMMET012RJCT40  3672
0047827980999991992010316004-07100-034867FM-15+0007SBJP V0201501N00511220001CN0112001N1+03001+02001999999ADDAG11999GA1041+006009089MA1101291999999MW1001
0047827980999991992010317004-07100-034867FM-15+0007SBJP V0201701N00621220001CN0112001N1+03001+02001999999ADDAG11999GA1041+006009089MA1101191999999MW1001
0047827980999991992010318004-07100-034867FM-15+0007SBJP V0201501N00511220001CN0112001N1+03001+02001999999ADDAG12000GA1021+006009089MA1101191999999MW1001
0047827980999991992010410004-07100-034867FM-15+0007SBJP V0201501N00311006001CN0112001N1+02801+02101999999ADDAG12999GA1051+006009089MA1101391999999MW1001
0047827980999991992010411004-07100-034867FM-15+0007SBJP V0201701N00411006001CN0112001N1+02901+02101999999ADDAG12999GA1061+006009089MA1101491999999MW1001
0136827980999991992010412004-07100-034867SY-MT+0007SBJP V0201401N00411006001CN0040001N1+02901+02151999999ADDAA106000091AG14000GA1061+006009089GF105991051081008001001001KA1999N+02581MA1101491999999MW1001REMSYN011333   20258EQDQ01  00003PRCP99
0047827980999991992010413004-07100-034867FM-15+0007SBJP V0201201N00311006001CN0112001N1+03001+02101999999ADDAG12999GA1071+006009089MA1101491999999MW1001
0047827980999991992010414004-07100-034867FM-15+0007SBJP V0201801N00361006001CN0112001N1+03001+02001999999ADDAG12999GA1061+006009089MA1101391999999MW1001
0047827980999991992010415004-07100-034867FM-15+0007SBJP V0201201N00411006001CN0112001N1+03001+02001999999ADDAG11000GA1051+006009089MA1101391999999MW1001
0047827980999991992010416004-07100-034867FM-15+0007SBJP V0201501N00511006001CN0112001N1+03101+02001999999ADDAG12999GA1051+006009089MA1101291999999MW1001
0047827980999991992010417004-07100-034867FM-15+0007SBJP V0201301N00511006001CN0112001N1+03101+02101999999ADDAG12999GA1051+006009089MA1101191999999MW1001
0115827980999991992010418004-07100-034867SY-MT+0007SBJP V0201401N00311220001CN0100001N1+02921+02171999999ADDAA106000091AG14000GA1041+006009089GF104991041021008001001001MA1101191999999MW1001REMSYN003333EQDQ01  00003PRCP99
0047827980999991992010507004-07100-034867FM-15+0007SBJP V0209991C00001220001CN0112001N1+02301+02201999999ADDAG12999GA1021+006009089MA1101081999999MW1001
0099827980999991992010512004-07100-034867FM-12+0007SBJP V0201401N00311220001CN0040001N9+02901+02041999999ADDAA106000091AG14000GF104991041081008001001001KA1999N+02601REMSYN011333   20260EQDQ01  00003PRCP99
0047827980999991992010515004-07100-034867FM-15+0007SBJP V0201101N00411220001CN0112001N1+03101+01901999999ADDAG12000GA1031+006009089MA1101191999999MW1001
0047827980999991992010517004-07100-034867FM-15+0007SBJP V0201601N00311220001CN0112001N1+03001+02001999999ADDAG12999GA1031+006009089MA1101081999999MW1001
0047827980999991992010601004-07100-034867FM-15+0007SBJP V0201701N00311220001CN0112001N1+02501+02201999999ADDAG11999GA1011+006009089MA1101191999999MW1001
0130827980999991992010612004-07100-034867SY-MT+0007SBJP V0201401N00311006001CN0040001N1+02881+02231999999ADDAA106000091AG14000GA1051+006009089GF106991061081008001001001KA1999N+02321MA1101191999999REMSYN011333   20232EQDQ01  00003PRCP99
0047827980999991992010614004-07100-034867FM-15+0007SBJP V0201201N00411006001CN0112001N1+03001+02101999999ADDAG12999GA1061+006009089MA1101081999999MW1001
0047827980999991992010616004-07100-034867FM-15+0007SBJP V0200901N00411006001CN0112001N1+03101+02101999999ADDAG11999GA1051+006009089MA1101021999999MW1001
0047827980999991992010617004-07100-034867FM-15+0007SBJP V0201201N00311220001CN0112001N1+03101+02101999999ADDAG11999GA1021+006009089MA1100911999999MW1001
0115827980999991992010618004-07100-034867SY-MT+0007SBJP V0201401N00311220001CN0040001N1+02861+02281999999ADDAA106000091AG10000GA1021+006009089GF102991021021008001001001MA1100911999999MW1001REMSYN003333EQDQ01  00003PRCP99
0047827980999991992010709004-07100-034867FM-15+0007SBJP V0209991C00001220001CN0112001N1+02301+02201999999ADDAG12000GA1021+006009089MA1101021999999MW1001
0136827980999991992010712004-07100-034867SY-MT+0007SBJP V0200901N00311012001CN0040001N1+02881+02231999999ADDAA106000091AG14000GA1031+006009089GF105991051081008001001001KA1999N+02341MA1101081999999MW1001REMSYN011333   20234EQDQ01  00003PRCP99
0047827980999991992010716004-07100-034867FM-15+0007SBJP V0201201N00511220001CN0112001N1+03001+02001999999ADDAG11999GA1041+006009089MA1101021999999MW1001
0047827980999991992010717004-07100-034867FM-15+0007SBJP V0200901N00511220001CN0112001N1+03101+02101999999ADDAG11999GA1031+006009089MA1100911999999MW1001
0078827980999991992010718004-07100-034867FM-12+0007SBJP V0200901N00311012001CN0100001N9+02861+02231999999ADDAA106000091AG14000GF105991051081008001001001REMSYN003333EQDQ01  00003PRCP99
0099827980999991992010800004-07100-034867FM-12+0007SBJP V0200901N00261220001CN0020001N9+02721+02221999999ADDAA106000091AG14000GF104991041081008001001001KA1999M+03021REMSYN011333   10302EQDQ01  00003PRCP99
0047827980999991992010804004-07100-034867FM-15+0007SBJP V0209991C00001220001CN0112001N1+02401+02201999999ADDAG11999GA1031+006009089MA1101021999999MW1001
0047827980999991992010805004-07100-034867FM-15+0007SBJP V0209991C00001006001CN0112001N1+02401+02101999999ADDAG11999GA1051+006009089MA1101021999999MW1001
0047827980999991992010806004-07100-034867FM-15+0007SBJP V0209991C00001220001CN0112001N1+02301+02101999999ADDAG12000GA1031+006009089MA1101021999999MW1001
0047827980999991992010807004-07100-034867FM-15+0007SBJP V0209991C00001220001CN0112001N1+02301+02101999999ADDAG11999GA1041+006009089MA1101021999999MW1001
0047827980999991992010808004-07100-034867FM-15+0007SBJP V0209991C00001220001CN0112001N1+02201+02101999999ADDAG11999GA1021+006009059MA1101081999999MW1001
0047827980999991992010809004-07100-034867FM-15+0007SBJP V0209991C00001220001CN0112001N1+02301+02201999999ADDAG12000GA1021+006009089MA1101081999999MW1001
0136827980999991992010812004-07100-034867SY-MT+0007SBJP V0200901N00311006001CN0040001N1+02901+02271999999ADDAA106000091AG14000GA1051+006009089GF106991061081008001001001KA1999N+02461MA1101191999999MW1001REMSYN011333   20246EQDQ01  00003PRCP99
0047827980999991992010813004-07100-034867FM-15+0007SBJP V0200901N00261006001CN0112001N1+03001+02001999999ADDAG12999GA1051+006009089MA1101191999999MW1001
0047827980999991992010816004-07100-034867FM-15+0007SBJP V0201201N00411220001CN0112001N1+03101+02001999999ADDAG12999GA1041+006009089MA1101021999999MW1001
0047827980999991992010817004-07100-034867FM-15+0007SBJP V0201201N00411220001CN0112001N1+03101+02101999999ADDAG12999GA1031+006009089MA1101021999999MW1001
0109827980999991992010818004-07100-034867SY-MT+0007SBJP V0200901N00311012001CN0040001N1+02881+02301999999ADDAA106000091AG14000GA1031+006009089GF105991051081008001001001MA1101021999999REMSYN003333EQDQ01  00003PRCP99
0047827980999991992010911004-07100-034867FM-15+0007SBJP V0200901N00261220001CN0112001N1+02601+02301999999ADDAG12999GA1041+006009089MA1101191999999MW1001
0099827980999991992010912004-07100-034867FM-12+0007SBJP V0201401N00311012001CN0040001N9+02901+02251999999ADDAA106000091AG14000GF105991051081008001001001KA1999N+02601REMSYN011333   20260EQDQ01  00003PRCP99
0047827980999991992010917004-07100-034867FM-15+0007SBJP V0201001N00411220001CN0112001N1+03001+02101999999ADDAG12999GA1041+006009089MA1101021999999MW1001
0047827980999991992010918004-07100-034867FM-15+0007SBJP V0200901N00311220001CN0112001N1+03101+02101999999ADDAG11000GA1031+006009089MA1101021999999MW1001
0099827980999991992011000004-07100-034867FM-12+0007SBJP V0200901N00261220001CN0020001N9+02741+02261999999ADDAA106000091AG14000GF103991031021008001001001KA1999M+03041REMSYN011333   10304EQDQ01  00003PRCP99
0136827980999991992011012004-07100-034867SY-MT+0007SBJP V0200901N00311006001CN0040001N1+02901+02301999999ADDAA106000091AG14000GA1051+006009089GF105991051081008001001001KA1999N+02621MA1101191999999MW1001REMSYN011333   20262EQDQ01  00003PRCP99
0047827980999991992011015004-07100-034867FM-15+0007SBJP V0200901N00411220001CN0112001N1+03101+02101999999ADDAG12000GA1041+006009089MA1101081999999MW1001
0047827980999991992011016004-07100-034867FM-15+0007SBJP V0201301N00361220001CN0112001N1+03101+02101999999ADDAG12999GA1041+006009089MA1101021999999MW1001
0047827980999991992011017004-07100-034867FM-15+0007SBJP V0201401N00411220001CN0112001N1+03001+02101999999ADDAG12999GA1031+006009089MA1101021999999MW1001
0063827980999991992011018004-07100-034867FM-15+0007SBJP V0201201N00411060001CN0112001N1+03001+02101999999ADDAG12000GA1031+006009089GA2051+060009029MA1100911999999MW1001
0047827980999991992011112004-07100-034867FM-15+0007SBJP V0200901N00311006001CN0112001N1+02901+02301999999ADDAG11000GA1061+006009089MA1101191999999MW1001
0047827980999991992011116004-07100-034867FM-15+0007SBJP V0201301N00411006001CN0112001N1+03101+02201999999ADDAG12999GA1061+006009089MA1101021999999MW1001
0047827980999991992011117004-07100-034867FM-15+0007SBJP V0201001N00621220001CN0112001N1+03101+02201999999ADDAG12999GA1041+006009089MA1101021999999MW1001
0047827980999991992011118004-07100-034867FM-15+0007SBJP V0201201N00511220001CN0112001N1+03001+02201999999ADDAG12000GA1031+006009089MA1101021999999MW1001
0047827980999991992011211004-07100-034867FM-15+0007SBJP V0200901N00261220001CN0112001N1+02801+02201999999ADDAG12999GA1041+006009089MA1101191999999MW1001
0047827980999991992011214004-07100-034867FM-15+0007SBJP V0201201N00411220001CN0112001N1+02901+02101999999ADDAG12999GA1031+006009089MA1101191999999MW1001
0047827980999991992011216004-07100-034867FM-15+0007SBJP V0201401N00261220001CN0112001N1+03001+02101999999ADDAG11999GA1041+006009089MA1101081999999MW1001
0047827980999991992011217004-07100-034867FM-15+0007SBJP V0201101N00311006001CN0112001N1+03101+02101999999ADDAG12999GA1051+006009089MA1101021999999MW1001
0047827980999991992011218004-07100-034867FM-15+0007SBJP V0201201N00411006001CN0112001N1+03101+02101999999ADDAG12000GA1051+006009089MA1101021999999MW1001
0047827980999991992011219004-07100-034867FM-15+0007SBJP V0201201N00311006001CN0112001N1+02901+02201999999ADDAG12999GA1051+006009089MA1101021999999MW1001
0047827980999991992011220004-07100-034867FM-15+0007SBJP V0201201N00211220001CN0112001N1+02801+02201999999ADDAG12999GA1041+006009089MA1101021999999MW1001
0047827980999991992011312004-07100-034867FM-15+0007SBJP V0201501N00261006001CN0112001N1+02901+02201999999ADDAG12000GA1051+006009089MA1101081999999MW1001
0047827980999991992011407004-07100-034867FM-15+0007SBJP V0201701N00311220001CN0112001N1+02301+02201999999ADDAG11999GA1021+006009089MA1100911999999MW1001
0047827980999991992011408004-07100-034867FM-15+0007SBJP V0209991C00001220001CN0112001N1+02301+02201999999ADDAG12999GA1031+006009089MA1100911999999MW1001
0063827980999991992011410004-07100-034867FM-15+0007SBJP V0209991C00001060001CN0112001N1+02501+02301999999ADDAG12999GA1021+006009089GA2071+060009029MA1101081999999MW1001
0063827980999991992011411004-07100-034867FM-15+0007SBJP V0209991C00001060001CN0112001N1+02801+02201999999ADDAG12999GA1021+006009089GA2071+060009029MA1101081999999MW1001
0063827980999991992011412004-07100-034867FM-15+0007SBJP V0209991C00001060001CN0112001N1+02901+02201999999ADDAG12000GA1031+006009089GA2051+060009059MA1101081999999MW1001
0063827980999991992011416004-07100-034867FM-15+0007SBJP V0209991C00001006001CN0112001N1+03001+02001999999ADDAG12999GA1051+006009089GA2061+060009029MA1100911999999MW1001
0047827980999991992011419004-07100-034867FM-15+0007SBJP V0201401N00311220001CN0112001N1+02901+02101999999ADDAG12999GA1031+006009089MA1100811999999MW1001
0047827980999991992011509004-07100-034867FM-15+0007SBJP V0209991C00001220001CN0112001N1+02301+02101999999ADDAG11000GA1011+006009089MA1101081999999MW1001
0130827980999991992011512004-07100-034867SY-MT+0007SBJP V0200901N00311220001CN0040001N1+02901+02251999999ADDAA106000091AG14000GA1031+006009089GF104991041021008001001001KA1999N+02601MA1101081999999REMSYN011333   20260EQDQ01  00003PRCP99
0047827980999991992011516004-07100-034867FM-15+0007SBJP V0201201N00261220001CN0112001N1+03101+02001999999ADDAG12999GA1041+006009089MA1101021999999MW1001
0063827980999991992011517004-07100-034867FM-15+0007SBJP V0201201N00511060001CN0112001N1+03001+02101999999ADDAG11999GA1041+006009089GA2051+060009009MA1100911999999MW1001
0078827980999991992011518004-07100-034867FM-12+0007SBJP V0200901N00311007501CN0100001N9+02881+02301999999ADDAA106000091AG14000GF107991071071008001001001REMSYN003333EQDQ01  00003PRCP99
0099827980999991992011600004-07100-034867FM-12+0007SBJP V0209999999999220001CN0020001N9+02741+02261999999ADDAA106000091AG14000GF104991041071008001001001KA1999M+03021REMSYN011333   10302EQDQ01  00003PRCP99
0099827980999991992011612004-07100-034867FM-12+0007SBJP V0209999999999007501CN0040001N9+02901+02321999999ADDAA106000091AG14000GF106991061071008001001001KA1999N+02641REMSYN011333   20264EQDQ01  00003PRCP99
0084827980999991992011615004-07100-034867FM-15+0007SBJP V0201501N00311060001CN0112001N1+99999+99999999999ADDAG12000GA1031+006009089GA2071+060009029MA1101081999999MW1001REMMET012RJCT40  2732
0063827980999991992011616004-07100-034867FM-15+0007SBJP V0201201N00211060001CN0112001N1+03001+02101999999ADDAG11999GA1021+006009089GA2081+060009029MA1101081999999MW1001
0125827980999991992011618004-07100-034867SY-MT+0007SBJP V0201201N00311060001CN0100001N1+02891+02301999999ADDAA106000091AG14000GA1031+006009089GA2071+060009029GF108991081071008001999999MA1101081999999REMSYN003333EQDQ01  00003PRCP99
0063827980999991992011619004-07100-034867FM-15+0007SBJP V0209991C00001030001CN0112001N1+02901+02201999999ADDAG12999GA1021+006009089GA2061+030009039MA1101081999999MW1001
0047827980999991992011710004-07100-034867FM-15+0007SBJP V0201801N00311220001CN0112001N1+02401+02201999999ADDAG12999GA1031+006009089MA1101191999999MW1001
0047827980999991992011711004-07100-034867FM-15+0007SBJP V0201201N00361006001CN0112001N1+02601+02201999999ADDAG12999GA1051+006009089MA1101291999999MW1001
0130827980999991992011712004-07100-034867SY-MT+0007SBJP V0201201N00411006001CN0040001N1+02931+02361999999ADDAA106000091AG14000GA1061+006009089GF106991061071008001001001KA1999N+02401MA1101391999999REMSYN011333   20240EQDQ01  00003PRCP99
0047827980999991992011716004-07100-034867FM-15+0007SBJP V0201301N00361220001CN0112001N1+03001+02101999999ADDAG12999GA1041+006009089MA1101191999999MW1001
0078827980999991992011718004-07100-034867FM-12+0007SBJP V0209999999999012001CN0040001N9+02901+02321999999ADDAA106000091AG14000GF106991061081008001001001REMSYN003333EQDQ01  00003PRCP99
0063827980999991992011720004-07100-034867FM-15+0007SBJP V0201301N00311220001CN0112001N1+02901+02201999999ADDAG12999GA1021+006009089GA2031+060009029MA1101081999999MW1001
0047827980999991992011722004-07100-034867FM-15+0007SBJP V0201301N00211220001CN0112001N1+02701+02301999999ADDAG11999GA1011+006009089MA1101191999999MW1001
0047827980999991992011811004-07100-034867FM-15+0007SBJP V0209991C00001220001CN0112001N1+02701+02201999999ADDAG12999GA1031+006009089MA1101291999999MW1001
0099827980999991992011812004-07100-034867FM-12+0007SBJP V0209999999999012001CN0040001N9+02941+02361999999ADDAA106000091AG14000GF105991051081008001001001KA1999N+02661REMSYN011333   20266EQDQ01  00003PRCP99
0047827980999991992011815004-07100-034867FM-15+0007SBJP V0201501N00511060001CN0112001N1+03101+02001999999ADDAG12000GA1051+060009089MA1101191999999MW1001
0047827980999991992011817004-07100-034867FM-15+0007SBJP V0201701N00311220001CN0112001N1+03101+02001999999ADDAG11999GA1041+006009089MA1101081999999MW1001
0115827980999991992011818004-07100-034867SY-MT+0007SBJP V0201201N00361006001CN0040001N1+02911+02341999999ADDAA106000091AG10000GA1051+006009089GF106991061071008001021001MA1101081999999MW1001REMSYN003333EQDQ01  00003PRCP99
0047827980999991992011909004-07100-034867FM-15+0007SBJP V0209991C00001220001CN0112001N1+02301+02201999999ADDAG12000GA1021+006009089MA1101191999999MW1001
0099827980999991992011912004-07100-034867FM-12+0007SBJP V0209999999999012001CN0040001N9+99999+99999999999ADDAA106000091AG14000GF105991051081008001001001KA1999N+02641REMSYN011333   20264EQDQ01  00003PRCP99
0047827980999991992011913004-07100-034867FM-15+0007SBJP V0201301N00361006001CN0112001N1+03001+02201999999ADDAG11999GA1071+006009089MA1101291999999MW1001
0047827980999991992011914004-07100-034867FM-15+0007SBJP V0201301N00361006001CN0112001N1+03001+02201999999ADDAG12999GA1071+006009089MA1101291999999MW1001
0047827980999991992011915004-07100-034867FM-15+0007SBJP V0201401N00261006001CN0112001N1+03101+02201999999ADDAG11000GA1071+006009089MA1101191999999MW1001
0047827980999991992011916004-07100-034867FM-15+0007SBJP V0201301N00311006001CN0112001N1+02901+02301999999ADDAG12999GA1071+006009089MA1101081999999MW1001
0047827980999991992011917004-07100-034867FM-15+0007SBJP V0201801N00261006001CN0112001N1+03101+02201999999ADDAG12999GA1071+006009089MA1101081999999MW1001
0078827980999991992011918004-07100-034867FM-12+0007SBJP V0209999999999007501CN0100001N9+02901+02341999999ADDAA106000091AG14000GF106991061071008001001001REMSYN003333EQDQ01  00003PRCP99
0047827980999991992012009004-07100-034867FM-15+0007SBJP V0209991C00001220001CN0112001N1+02401+02301999999ADDAG12000GA1011+006009089MA1101191999999MW1001
0047827980999991992012011004-07100-034867FM-15+0007SBJP V0209991C00001220001CN0112001N1+02801+02401999999ADDAG11999GA1041+006009089MA1101191999999MW1001
0127827980999991992012012004-07100-034867FM-12+0007SBJP V0209999999999012001CN0040001N9+02861+02191999999ADDAA124014091AG10006AY161999AY221999GF105991051081008001001001KA1999N+02561MW1001REMSYN017333   20256 60144EQDQ01  01403PRCP99
0047827980999991992012014004-07100-034867FM-15+0007SBJP V0209991C00001220001CN0112001N1+03001+02201999999ADDAG12999GA1031+006009089MA1101191999999MW1001
0047827980999991992012016004-07100-034867FM-15+0007SBJP V0201201N00411220001CN0112001N1+03201+02101999999ADDAG12999GA1031+006009089MA1101081999999MW1001
0047827980999991992012017004-07100-034867FM-15+0007SBJP V0201401N00261220001CN0112001N1+03201+02101999999ADDAG12999GA1041+006009089MA1101021999999MW1001
0047827980999991992012018004-07100-034867FM-15+0007SBJP V0201501N00511220001CN0112001N1+03101+02201999999ADDAG12000GA1021+006009089MA1101021999999MW1001
0047827980999991992012110004-07100-034867FM-15+0007SBJP V0209991C00001220001CN0112001N1+02601+02301999999ADDAG12999GA1041+006009089MA1101081999999MW1001
0127827980999991992012112004-07100-034867FM-12+0007SBJP V0209999999999007501CN0100001N9+02851+02371999999ADDAA124008091AG10006AY161999AY221999GF105991051041008001001001KA1999N+02461MW1001REMSYN017333   20246 60084EQDQ01  00803PRCP99
0047827980999991992012115004-07100-034867FM-15+0007SBJP V0201301N00311006001CN0112001N1+03101+02201999999ADDAG11000GA1071+006009089MA1101081999999MW1001
0047827980999991992012116004-07100-034867FM-15+0007SBJP V0201601N00511006001CN0112001N1+03101+02101999999ADDAG11999GA1071+006009089MA1101021999999MW1001
0047827980999991992012117004-07100-034867FM-15+0007SBJP V0201501N00311006001CN0112001N1+03101+02201999999ADDAG11999GA1061+006009089MA1101021999999MW1001
0047827980999991992012118004-07100-034867FM-15+0007SBJP V0201701N00411220001CN0112001N1+03001+02301999999ADDAG11000GA1031+006009089MA1100911999999MW1001
0158827980999991992012212004-07100-034867SY-MT+0007SBJP V0201201N00511006001CN0040001N1+02901+02461999999ADDAA124002091AG19006AY161999AY221999GA1061+006009089GF106991061071008001001001KA1999N+02541MA1101081999999MW1001REMSYN017333   20254 60024EQDQ01  00203PRCP99
0047827980999991992012215004-07100-034867FM-15+0007SBJP V0201501N00411006001CN0112001N1+03001+02201999999ADDAG12000GA1071+006009089MA1101081999999MW1001
0047827980999991992012217004-07100-034867FM-15+0007SBJP V0201201N00411006001CN0112001N1+02901+02301999999ADDAG12999GA1061+006009089MA1100911999999MW1001
0115827980999991992012218004-07100-034867SY-MT+0007SBJP V0201501N00411006001CN0040001N1+02901+02261999999ADDAA106000091AG10000GA1061+006009089GF105991051081008001001001MA1100911999999MW1001REMSYN003333EQDQ01  00003PRCP99
0063827980999991992012309004-07100-034867FM-15+0007SBJP V0209991C00001030001CN0112001N1+02401+02301999999ADDAG11003GA1041+006009089GA2061+030009039MA1101081999999MW1211
0063827980999991992012310004-07100-034867FM-15+0007SBJP V0209991C00001006001CN0080001N1+02501+02401999999ADDAG11999GA1041+004809059GA2061+006009089MA1101081999999MW1601
0063827980999991992012311004-07100-034867FM-15+0007SBJP V0209991C00001006001CN0112001N1+02601+02401999999ADDAG11999GA1031+004809059GA2061+006009089MA1101191999999MW1001
0127827980999991992012312004-07100-034867FM-12+0007SBJP V0209999999999007501CN0040001N9+02681+02431999999ADDAA124018091AG19006AY161999AY221999GF108991081091008001999999KA1999N+02441MW1001REMSYN017333   20244 60184EQDQ01  01803PRCP99
0047827980999991992012314004-07100-034867FM-15+0007SBJP V0209991C00001006001CN0112001N1+02701+02401999999ADDAG11999GA1061+006009089MA1101081999999MW1001
0047827980999991992012316004-07100-034867FM-15+0007SBJP V0201201N00311006001CN0112001N1+02901+02101999999ADDAG11999GA1071+006009089MA1101021999999MW1001
0047827980999991992012317004-07100-034867FM-15+0007SBJP V0201201N00511006001CN0112001N1+03001+02101999999ADDAG11999GA1061+006009089MA1101021999999MW1001
0078827980999991992012318004-07100-034867FM-12+0007SBJP V0209999999999007501CN0100001N9+02861+02311999999ADDAA106000091AG14000GF107991071041008001001001REMSYN003333EQDQ01  00003PRCP99
0063827980999991992012319004-07100-034867FM-15+0007SBJP V0201201N00311030001CN0112001N1+02901+02101999999ADDAG11999GA1021+006009089GA2041+030009039MA1100911999999MW1001
0047827980999991992012409004-07100-034867FM-15+0007SBJP V0209991C00001220001CN0112001N1+02401+02301999999ADDAG11000GA1041+006009089MA1101021999999MW1001
0063827980999991992012411004-07100-034867FM-15+0007SBJP V0209991C00001006001CN0112001N1+02701+02301999999ADDAG11999GA1051+006009089GA2051+030009039MA1101081999999MW1001
0127827980999991992012412004-07100-034867FM-12+0007SBJP V0209999999999007501CN0040001N9+02801+02521999999ADDAA124002091AG10009AY161999AY221999GF108991081091008001999999KA1999N+02441MW1211REMSYN017333   20244 60024EQDQ01  00203PRCP99
0063827980999991992012414004-07100-034867FM-15+0007SBJP V0209991C00001006001CN0112001N1+02701+02401999999ADDAG11999GA1051+006009089GA2031+030009039MA1101081999999MW1001
0063827980999991992012416004-07100-034867FM-15+0007SBJP V0201301N00311006001CN0112001N1+02901+02301999999ADDAG12999GA1051+006009089GA2051+030009039MA1100911999999MW1001
0063827980999991992012417004-07100-034867FM-15+0007SBJP V0201201N00411030001CN0112001N1+02901+02301999999ADDAG11999GA1041+006009089GA2061+030009039MA1100911999999MW1001
0119827980999991992012500004-07100-034867FM-12+0007SBJP V0209999999999007501CN0040001N9+02671+02411999999ADDAA106000491AA299000591AG10006AY161999AY221999GF108991081091008001999999KA1999M+02941MW1001REMSYN017333   10294 69941
0063827980999991992012510004-07100-034867FM-15+0007SBJP V0209991C00001006001CN0112001N1+02701+02401999999ADDAG12999GA1051+006009089GA2061+030009039MA1101081999999MW1001
0158827980999991992012512004-07100-034867SY-MT+0007SBJP V0201401N00311006001CN0100001N1+02901+02341999999ADDAA124001091AG10006AY161999AY221999GA1061+006009089GF105991051021008001001001KA1999N+02501MA1101191999999MW1001REMSYN017333   20250 60014EQDQ01  00103PRCP99
0047827980999991992012516004-07100-034867FM-15+0007SBJP V0201201N00511220001CN0112001N1+03001+02301999999ADDAG12999GA1041+006009089MA1101021999999MW1001
0047827980999991992012517004-07100-034867FM-15+0007SBJP V0201301N00411220001CN0112001N1+03101+02401999999ADDAG12999GA1041+006009089MA1100911999999MW1001
0078827980999991992012518004-07100-034867FM-12+0007SBJP V0209999999999007501CN0100001N9+02941+02361999999ADDAA106000091AG14000GF105991051021008001001001REMSYN003333EQDQ01  00003PRCP99
0063827980999991992012610004-07100-034867FM-15+0007SBJP V0209991C00001006001CN0112001N1+02501+02401999999ADDAG11999GA1021+004509059GA2071+006009089MA1101191999999MW1001
0063827980999991992012611004-07100-034867FM-15+0007SBJP V0209991C00001030001CN0112001N1+02701+02401999999ADDAG11999GA1041+006009089GA2061+030009039MA1101191999999MW1001
0190827980999991992012612004-07100-034867SY-MT+0007SBJP V0209991C00001006001CN0020001N1+02701+02401999999ADDAA124014091AG10006AY161999AY221999GA1051+006009089GA2071+030009039GF106991061091008001999001KA1999N+02461MA1101191999999MW1001REMSYN017333   20246 60144EQDQ01    003SCOMCGQ02  01403PRCP99
0047827980999991992012615004-07100-034867FM-15+0007SBJP V0201301N00511006001CN0112001N1+03001+02501999999ADDAG12000GA1071+006009089MA1101081999999MW1001
0063827980999991992012616004-07100-034867FM-15+0007SBJP V0201001N00411006001CN0112001N1+03101+02301999999ADDAG12999GA1061+006009089GA2051+030009039MA1101021999999MW1001
0063827980999991992012617004-07100-034867FM-15+0007SBJP V0200901N00311006001CN0112001N1+02901+02401999999ADDAG12999GA1051+006009089GA2031+030009039MA1101021999999MW1001
0063827980999991992012709004-07100-034867FM-15+0007SBJP V0209991C00001006001CN0112001N1+02501+02401999999ADDAG12000GA1051+006009089GA2071+030009039MA1101081999999MW1001
0063827980999991992012714004-07100-034867FM-15+0007SBJP V0201601N00261027001CN0112001N1+02601+02401999999ADDAG11999GA1041+004809059GA2071+027009039MA1101191999999MW1601
0063827980999991992012715004-07100-034867FM-15+0007SBJP V0201701N00261006001CN0112001N1+02601+02301999999ADDAG11001GA1041+004809059GA2061+006009089MA1101081999999MW1501
0063827980999991992012718004-07100-034867FM-15+0007SBJP V0201601N00211030001CN0112001N1+02701+02401999999ADDAG11000GA1021+006009089GA2061+030009039MA1100911999999MW1001
0127827980999991992012800004-07100-034867FM-12+0007SBJP V0209999999999007501CN0020001N9+02581+02291999999ADDAA106004091AG10009AY161999AY221999GF108991081091008001999999KA1999M+02921MW1211REMSYN017333   10292 60041EQDQ01  00403PRCP99
0063827980999991992012811004-07100-034867FM-15+0007SBJP V0209991C00001030001CN0112001N1+02601+02301999999ADDAG11999GA1041+006009089GA2081+030009049MA1101021999999MW1001
0190827980999991992012812004-07100-034867SY-MT+0007SBJP V0209991C00001006001CN0040001N1+02841+02441999999ADDAA124009091AG19006AY161999AY221999GA1051+006009089GA2041+030009049GF107991071091008001999001KA1999N+02401MA1101021999999MW1001REMSYN017333   20240 60094EQDQ01    003SCOMCGQ02  00903PRCP99
0063827980999991992012814004-07100-034867FM-15+0007SBJP V0201201N00261006001CN0112001N1+02901+02401999999ADDAG11999GA1061+006009089GA2051+030009049MA1101021999999MW1001
0063827980999991992012817004-07100-034867FM-15+0007SBJP V0201501N00361030001CN0112001N1+03001+02301999999ADDAG11999GA1041+006009089GA2061+030009039MA1100811999999MW1001
0078827980999991992012818004-07100-034867FM-12+0007SBJP V0209999999999007501CN0040001N9+02881+02391999999ADDAA106000091AG14000GF107991071091008001001001REMSYN003333EQDQ01  00003PRCP99
0119827980999991992012900004-07100-034867FM-12+0007SBJP V0209999999999007501CN0040001N9+02601+02331999999ADDAA106000491AA299000591AG10006AY161999AY221999GF108991081041008001001001KA1999M+03021MW1001REMSYN017333   10302 69941
0063827980999991992012910004-07100-034867FM-15+0007SBJP V0209991C00001060001CN0112001N1+02401+02301999999ADDAG11999GA1021+006009089GA2071+060009029MA1101081999999MW1001
0190827980999991992012912004-07100-034867SY-MT+0007SBJP V0209991C00001060001CN0040001N1+02641+02391999999ADDAA124050091AG19006AY161999AY221999GA1021+006009089GA2071+060009029GF108991081041008001001999KA1999N+02321MA1101081999999MW1001REMSYN017333   20232 60504EQDQ01    003SCOHCGQ02  05003PRCP99
0063827980999991992012915004-07100-034867FM-15+0007SBJP V0209991C00001006001CN0112001N1+03001+02301999999ADDAG12000GA1051+006009089GA2071+030009039MA1101081999999MW1001
0063827980999991992012916004-07100-034867FM-15+0007SBJP V0200901N00261006001CN0112001N1+03101+02301999999ADDAG12999GA1051+006009089GA2071+030009039MA1101021999999MW1001
0063827980999991992012917004-07100-034867FM-15+0007SBJP V0201301N00511030001CN0112001N1+03101+02301999999ADDAG11999GA1031+006009089GA2071+030009039MA1100911999999MW1001
0063827980999991992012918004-07100-034867FM-15+0007SBJP V0201201N00411030001CN0112001N1+03001+02301999999ADDAG11000GA1031+006009089GA2061+030009039MA1100911999999MW1001
0079827980999991992013009004-07100-034867FM-15+0007SBJP V0209991C00001006001CN0112001N1+02501+02401999999ADDAG12003GA1031+004809059GA2051+006009089GA3071+030009039MA1101021999999MW1211
0063827980999991992013010004-07100-034867FM-15+0007SBJP V0209991C00001030001CN0112001N1+02601+02301999999ADDAG11999GA1031+004509059GA2061+030009039MA1101081999999MW1001
0127827980999991992013012004-07100-034867FM-12+0007SBJP V0209999999999007501CN0040001N9+02801+02461999999ADDAA124003091AG10006AY161999AY221999GF108991081091008001999999KA1999N+02541MW1001REMSYN017333   20254 60034EQDQ01  00303PRCP99
0063827980999991992013015004-07100-034867FM-15+0007SBJP V0201601N00261030001CN0112001N1+02901+02301999999ADDAG11000GA1041+006009089GA2071+030009039MA1101081999999MW1001
0063827980999991992013016004-07100-034867FM-15+0007SBJP V0209991C00001030001CN0112001N1+03001+02301999999ADDAG12999GA1031+006009089GA2061+030009039MA1101021999999MW1001
0063827980999991992013017004-07100-034867FM-15+0007SBJP V0201201N00311030001CN0112001N1+03001+02301999999ADDAG11999GA1031+006009089GA2061+030009039MA1100911999999MW1001
0078827980999991992020118004-07100-034867FM-12+0007SBJP V0209999999999007501CN0040001N9+02901+02261999999ADDAA106000091AG14000GF108991081091008001999999REMSYN003333EQDQ01  00003PRCP99
0127827980999991992020212004-07100-034867FM-12+0007SBJP V0209999999999007501CN0040001N9+02841+02401999999ADDAA124006091AG10006AY161999AY221999GF107991071091008001001001KA1999N+02441MW1001REMSYN017333   20244 60064EQDQ01  00603PRCP99
0063827980999991992020216004-07100-034867FM-15+0007SBJP V0201501N00311030001CN0112001N1+03001+02301999999ADDAG11999GA1041+006009089GA2061+030009039MA1101191999999MW1001
0063827980999991992020217004-07100-034867FM-15+0007SBJP V0201801N00261030001CN0112001N1+02901+02301999999ADDAG12999GA1041+006009089GA2061+030009039MA1101081999999MW1001
0063827980999991992020219004-07100-034867FM-15+0007SBJP V0201701N00361030001CN0112001N1+02801+02301999999ADDAG11999GA1031+006009089GA2051+030009039MA1101081999999MW1001
0063827980999991992020221004-07100-034867FM-15+0007SBJP V0201401N00261030001CN0112001N1+02701+02301999999ADDAG12000GA1021+006009089GA2071+030009039MA1101081999999MW1001
0063827980999991992020222004-07100-034867FM-15+0007SBJP V0201801N00361030001CN0112001N1+02701+02301999999ADDAG11999GA1021+006009089GA2061+030009039MA1101191999999MW1001
0099827980999991992020300004-07100-034867FM-12+0007SBJP V0209999999999007501CN0020001N9+02741+02341999999ADDAA106000091AG14000GF105991051071008001001001KA1999M+03061REMSYN011333   10306EQDQ01  00003PRCP99
0047827980999991992020306004-07100-034867FM-15+0007SBJP V0209991C00001220001CN0112001N1+02301+02201999999ADDAG11000GA1041+006009089MA1101191999999MW1001
0047827980999991992020307004-07100-034867FM-15+0007SBJP V0209991C00001006001CN0112001N1+02301+02201999999ADDAG11999GA1051+006009089MA1101081999999MW1001
0150827980999991992020312004-07100-034867SY-MT+0007SBJP V0201501N00411006001CN0040001N1+02941+02431999999ADDAA124000291AA299000391AG10006AY161999AY221999GA1071+006009089GF105991051081008001001001KA1999N+02501MA1101291999999MW1001REMSYN017333   20250 69924
0047827980999991992020315004-07100-034867FM-15+0007SBJP V0201501N00621006001CN0112001N1+03101+02301999999ADDAG11000GA1071+006009089MA1101191999999MW1001
0047827980999991992020316004-07100-034867FM-15+0007SBJP V0201001N00411006001CN0112001N1+03101+02301999999ADDAG11999GA1071+006009089MA1101081999999MW1001
0047827980999991992020317004-07100-034867FM-15+0007SBJP V0201501N00411006001CN0112001N1+03101+02301999999ADDAG11999GA1071+006009089MA1101021999999MW1001
0047827980999991992020409004-07100-034867FM-15+0007SBJP V0209991C00001220001CN0112001N1+02501+02401999999ADDAG11000GA1021+006009089MA1101081999999MW1001
0047827980999991992020410004-07100-034867FM-15+0007SBJP V0209991C00001220001CN0112001N1+02601+02201999999ADDAG11999GA1031+006009089MA1101081999999MW1001
0130827980999991992020412004-07100-034867SY-MT+0007SBJP V0201401N00411006001CN0040001N1+02901+02371999999ADDAA106000091AG10000GA1061+006009089GF106991061071008001021001KA1999N+02501MA1101191999999REMSYN011333   20250EQDQ01  00003PRCP99
0047827980999991992020417004-07100-034867FM-15+0007SBJP V0201501N00261220001CN0112001N1+03101+02301999999ADDAG11999GA1041+006009089MA1101021999999MW1001
0078827980999991992020418004-07100-034867FM-12+0007SBJP V0209999999999012001CN0040001N9+02941+02311999999ADDAA106000091AG14000GF107991071081008001001001REMSYN003333EQDQ01  00003PRCP99
0047827980999991992020419004-07100-034867FM-15+0007SBJP V0201301N00311220001CN0112001N1+03001+02301999999ADDAG11999GA1041+006009089MA1101021999999MW1001
0099827980999991992020500004-07100-034867FM-12+0007SBJP V02099999999999999999N0040001N9+99999+99999999999ADDAA106000091AG14000GF107991021041008001001001KA1999M+03061REMSYN011333   10306EQDQ01  00003PRCP99
0063827980999991992020509004-07100-034867FM-15+0007SBJP V0209991C00001006001CN0112001N1+02501+02401999999ADDAG11000GA1031+003009059GA2061+006009089MA1101081999999MW1001
0063827980999991992020510004-07100-034867FM-15+0007SBJP V0200901N00211003001CN0050001N1+02501+02401999999ADDAG11999GA1051+003009059GA2071+006009089MA1101191999999MW1601
0127827980999991992020512004-07100-034867FM-12+0007SBJP V0209999999999007501CN0100001N9+02921+02341999999ADDAA124003091AG10006AY161999AY221999GF106991061041008001001001KA1999N+02601MW1001REMSYN017333   20260 60034EQDQ01  00303PRCP99
0047827980999991992020513004-07100-034867FM-15+0007SBJP V0201101N00361220001CN0112001N1+02901+02301999999ADDAG12999GA1041+006009089MA1101191999999MW1001
0063827980999991992020515004-07100-034867FM-15+0007SBJP V0200901N00411030001CN0112001N1+02901+02301999999ADDAG12000GA1031+006009089GA2061+030009039MA1101191999999MW1001
0078827980999991992020518004-07100-034867FM-12+0007SBJP V0209999999999012001CN0040001N9+02931+02291999999ADDAA106000091AG14000GF105991051081008001001001REMSYN003333EQDQ01  00003PRCP99
0063827980999991992020609004-07100-034867FM-15+0007SBJP V0202101N00311006001CN0112001N1+02501+02401999999ADDAG12000GA1021+004509059GA2051+006009089MA1101081999999MW1001
0047827980999991992020612004-07100-034867FM-15+0007SBJP V0201501N00361006001CN0112001N1+02801+02301999999ADDAG12000GA1061+006009089MA1101191999999MW1001
0131827980999991992020618004-07100-034867SY-MT+0007SBJP V0201001N00311220001CN0040001N1+02941+02311999999ADDAA106000291AA299000391AG10006AY161999AY221999GA1051+006009089GF103991031021008001001001MA1101021999999MW1001REMSYN011333   69921
0047827980999991992020620004-07100-034867FM-15+0007SBJP V0201501N00311220001CN0112001N1+02901+02201999999ADDAG11999GA1031+006009089MA1101021999999MW1001
0099827980999991992020700004-07100-034867FM-12+0007SBJP V0209999999999007501CN0040001N9+02961+02211999999ADDAA106000091AG14000GF106991061091008001001001KA1999M+03041REMSYN011333   10304EQDQ01  00003PRCP99
0047827980999991992020706004-07100-034867FM-15+0007SBJP V0209991C00001220001CN0112001N1+02401+02301999999ADDAG12000GA1041+006009089MA1101081999999MW1001
0047827980999991992020707004-07100-034867FM-15+0007SBJP V0209991C00001220001CN0112001N1+02401+02201999999ADDAG12999GA1031+006009089MA1101081999999MW1001
0047827980999991992020708004-07100-034867FM-15+0007SBJP V0209991C00001220001CN0112001N1+02401+02301999999ADDAG12999GA1031+006009089MA1101081999999MW1001
0150827980999991992020712004-07100-034867SY-MT+0007SBJP V0201201N00261006001CN0100001N1+02901+02301999999ADDAA124000691AA299000591AG19006AY161999AY221999GA1061+006009089GF107991071041008001001001KA1999N+02621MA1101191999999MW1001REMSYN017333   20262 69964
0047827980999991992020716004-07100-034867FM-15+0007SBJP V0201001N00261220001CN0112001N1+03001+02201999999ADDAG12999GA1041+006009089MA1101081999999MW1001
0047827980999991992020717004-07100-034867FM-15+0007SBJP V0201101N00411220001CN0112001N1+03001+02201999999ADDAG12999GA1031+006009089MA1101021999999MW1001
0100827980999991992020718004-07100-034867FM-12+0007SBJP V0209999999999012001CN0040001N9+02921+02291999999ADDAA106000691AA299000591AG10006AY161999AY221999GF105991051081008001001001MW1001REMSYN011333   69961
0047827980999991992020808004-07100-034867FM-15+0007SBJP V0209991C00001220001CN0112001N1+02501+02401999999ADDAG12999GA1031+006009089MA1101081999999MW1211
0158827980999991992020812004-07100-034867SY-MT+0007SBJP V0201501N00311006001CN0040001N1+02981+02421999999ADDAA124003091AG19006AY161999AY221999GA1061+006009089GF106991061081008001001001KA1999N+02641MA1101291999999MW1001REMSYN017333   20264 60034EQDQ01  00303PRCP99
0047827980999991992020816004-07100-034867FM-15+0007SBJP V0201701N00261006001CN0112001N1+03001+02201999999ADDAG12999GA1071+006009089MA1101081999999MW1001
0047827980999991992020817004-07100-034867FM-15+0007SBJP V0201801N00411006001CN0112001N1+03101+02201999999ADDAG11999GA1061+006009089MA1101081999999MW1001
0131827980999991992020818004-07100-034867SY-MT+0007SBJP V0201501N00411012001CN0040001N1+02961+02401999999ADDAA106000491AA299000591AG10006AY161999AY221999GA1041+006009089GF105991051081008001001001MA1101021999999MW1001REMSYN011333   69941
0047827980999991992020819004-07100-034867FM-15+0007SBJP V0201801N00311220001CN0112001N1+02901+02301999999ADDAG12999GA1041+006009089MA1101021999999MW1001
0047827980999991992020820004-07100-034867FM-15+0007SBJP V0201701N00261220001CN9999999N1+02901+02301999999ADDAG11999GA1031+006009089MA1101021999999MW1001
0047827980999991992020910004-07100-034867FM-15+0007SBJP V0209991C00001220001CN0112001N1+02601+02301999999ADDAG12999GA1011+006009089MA1101191999999MW1001
0047827980999991992020912004-07100-034867FM-15+0007SBJP V0209991C00001220001CN0112001N1+03001+02201999999ADDAG12000GA1041+006009089MA1101191999999MW1001
0047827980999991992020916004-07100-034867FM-15+0007SBJP V0201601N00261220001CN0112001N1+03101+02001999999ADDAG12999GA1041+006009089MA1101081999999MW1001
0047827980999991992020917004-07100-034867FM-15+0007SBJP V0201401N00311220001CN0112001N1+03101+02001999999ADDAG11999GA1031+006009089MA1101021999999MW1001
0047827980999991992020918004-07100-034867FM-15+0007SBJP V0201701N00311220001CN0112001N1+03101+02001999999ADDAG12000GA1031+006009089MA1101021999999MW1001
0063827980999991992021010004-07100-034867FM-15+0007SBJP V0202201N00311030001CN0112001N1+02301+02101999999ADDAG11999GA1031+006009089GA2061+030009039MA1101191999999MW1001
0063827980999991992021011004-07100-034867FM-15+0007SBJP V0202101N00211030001CN0112001N1+02401+02101999999ADDAG11999GA1041+006009089GA2051+030009039MA1101291999999MW1001
0190827980999991992021012004-07100-034867SY-MT+0007SBJP V0202401N00211030001CN0100001N1+02621+02251999999ADDAA124015091AG19006AY161999AY221999GA1031+006009089GA2051+030009039GF108991081091008001999001KA1999N+02191MA1101191999999MW1001REMSYN017333   20219 60154EQDQ01    003SCOMCGQ02  01503PRCP99
0047827980999991992021013004-07100-034867FM-15+0007SBJP V0202301N00311220001CN0112001N1+02701+02201999999ADDAG11999GA1031+006009089MA1101191999999MW1001
0063827980999991992021016004-07100-034867FM-15+0007SBJP V0201501N00311006001CN0112001N1+03101+02201999999ADDAG11999GA1051+006009089GA2051+030009039MA1101081999999MW1001
0078827980999991992021018004-07100-034867FM-12+0007SBJP V0209999999999007501CN0100001N9+02821+02311999999ADDAA106000091AG14000GF108991081041008001001001REMSYN003333EQDQ01  00003PRCP99
0079827980999991992021021004-07100-034867FM-15+0007SBJP V0201601N00261030001CN0112001N1+02701+02401999999ADDAG12000GA1011+006009089GA2051+030009039GA3071+060009009MA1101081999999MW1001
0063827980999991992021022004-07100-034867FM-15+0007SBJP V0201701N00261030001CN0112001N1+02701+02401999999ADDAG11999GA1021+006009089GA2061+030009039MA1101081999999MW1001
0063827980999991992021023004-07100-034867FM-15+0007SBJP V0209991C00001030001CN0112001N1+02701+02301999999ADDAG11999GA1041+006009089GA2061+030009039MA1101191999999MW1001
0047827980999991992021100004-07100-034867FM-15+0007SBJP V0201501N00261220001CN0112001N1+02701+02301999999ADDAG11000GA1041+006009089MA1101291999999MW1001
0047827980999991992021106004-07100-034867FM-15+0007SBJP V0209991C00001220001CN0112001N1+02501+02401999999ADDAG11000GA1041+006009089MA1101081999999MW1001
0047827980999991992021107004-07100-034867FM-15+0007SBJP V0209991C00001220001CN0112001N1+02501+02401999999ADDAG11999GA1041+006009089MA1101081999999MW1001
0047827980999991992021108004-07100-034867FM-15+0007SBJP V0209991C00001006001CN0112001N1+02501+02301999999ADDAG11999GA1051+006009089MA1101081999999MW1001
0063827980999991992021109004-07100-034867FM-15+0007SBJP V0209991C00001030001CN0112001N1+02501+02401999999ADDAG11000GA1031+006009089GA2061+030009049MA1101191999999MW1001
0063827980999991992021110004-07100-034867FM-15+0007SBJP V0209991C00001030001CN0112001N1+02601+02401999999ADDAG11999GA1041+006009089GA2051+030009039MA1101291999999MW1001
0162827980999991992021112004-07100-034867SY-MT+0007SBJP V0209991C00001030001CN0040001N1+02781+02271999999ADDAA106000091AG14000GA1041+006009089GA2041+030009039GF108991081041008001999001KA1999N+02401MA1101391999999REMSYN011333   20240EQDQ01    003SCOMCGQ02  00003PRCP99
0079827980999991992021113004-07100-034867FM-15+0007SBJP V0203301N00261006001CN0112001N1+02701+02401999999ADDAG12999GA1031+004509059GA2041+006009089GA3071+030009039MA1101391999999MW1601
0079827980999991992021121004-07100-034867FM-15+0007SBJP V0201501N00211006001CN0112001N1+02501+02401999999ADDAG12000GA1031+003009059GA2051+006009089GA3071+027009039MA1101191999999MW1001
0063827980999991992021210004-07100-034867FM-15+0007SBJP V0202501N00261030001CN0112001N1+02301+02101999999ADDAG12999GA1041+006009089GA2041+030009039MA1101291999999MW1001
0105827980999991992021212004-07100-034867FM-12+0007SBJP V0209999999999007501CN0040001N9+02501+02301999999ADDAA124013091AG10000GF108991081041008001001001KA1999N+02211REMSYN017333   20221 60134EQDQ01  01303PRCP99
0063827980999991992021214004-07100-034867FM-15+0007SBJP V0201701N00311006001CN0112001N1+02901+02301999999ADDAG12999GA1051+006009089GA2051+030009039MA1101291999999MW1001
0047827980999991992021215004-07100-034867FM-15+0007SBJP V0201701N00511006001CN0112001N1+03001+02301999999ADDAG12000GA1061+006009089MA1101291999999MW1001
0063827980999991992021217004-07100-034867FM-15+0007SBJP V0201701N00511006001CN0112001N1+03001+02301999999ADDAG12999GA1051+006009089GA2041+030009039MA1101191999999MW1001
0063827980999991992021218004-07100-034867FM-15+0007SBJP V0201501N00621030001CN0112001N1+03001+02301999999ADDAG12000GA1041+006009089GA2051+030009039MA1101081999999MW1001
0099827980999991992021300004-07100-034867FM-12+0007SBJP V0209999999999007501CN0040001N9+02641+02071999999ADDAA106000091AG14000GF108991081091008001001001KA1999M+03001REMSYN011333   10300EQDQ01  00003PRCP99
0127827980999991992021312004-07100-034867FM-12+0007SBJP V0209999999999007501CN0100001N9+02891+02411999999ADDAA124003091AG10006AY161999AY221999GF107991071041008001001001KA1999N+02501MW1001REMSYN017333   20250 60034EQDQ01  00303PRCP99
0063827980999991992021318004-07100-034867FM-15+0007SBJP V0201801N00311030001CN0112001N1+02901+02201999999ADDAG12000GA1031+006009089GA2061+030009039MA1101081999999MW1001
0063827980999991992021319004-07100-034867FM-15+0007SBJP V0201701N00411030001CN0112001N1+02901+02101999999ADDAG11999GA1031+006009089GA2061+030009039MA1101081999999MW1001
0063827980999991992021321004-07100-034867FM-15+0007SBJP V0201801N00261030001CN0112001N1+02701+02201999999ADDAG12000GA1041+006009089GA2051+030009039MA1101191999999MW1001
0162827980999991992021400004-07100-034867SY-MT+0007SBJP V0202401N00261006001CN0040001N1+02601+02191999999ADDAA106000091AG14000GA1051+006009089GA2051+030009039GF107991071041008001999001KA1999M+03041MA1101391999999REMSYN011333   10304EQDQ01    003SCOMCGQ02  00003PRCP99
0063827980999991992021410004-07100-034867FM-15+0007SBJP V0209991C00001030001CN0112001N1+02501+02401999999ADDAG11999GA1021+006009089GA2051+030009039MA1101191999999MW1001
0063827980999991992021411004-07100-034867FM-15+0007SBJP V0209991C00001030001CN0112001N1+02601+02301999999ADDAG11999GA1041+006009089GA2061+030009039MA1101291999999MW1001
0127827980999991992021412004-07100-034867FM-12+0007SBJP V0209999999999007501CN0100001N9+02781+02401999999ADDAA124003091AG10006AY161999AY221999GF107991071021008001001001KA1999N+02341MW1001REMSYN017333   20234 60034EQDQ01  00303PRCP99
0063827980999991992021416004-07100-034867FM-15+0007SBJP V0209991C00001006001CN0112001N1+03001+02301999999ADDAG11999GA1051+006009089GA2071+030009039MA1101081999999MW1001
0063827980999991992021419004-07100-034867FM-15+0007SBJP V0201501N00411030001CN0112001N1+03001+02201999999ADDAG12999GA1031+006009089GA2051+030009039MA1101081999999MW1001
0047827980999991992021421004-07100-034867FM-15+0007SBJP V0201501N00411220001CN0112001N1+02801+02301999999ADDAG12000GA1041+006009089MA1101191999999MW1001
0047827980999991992021510004-07100-034867FM-15+0007SBJP V0209991C00001006001CN0112001N1+02501+02301999999ADDAG12999GA1061+006009089MA1101291999999MW1001
0063827980999991992021512004-07100-034867FM-15+0007SBJP V0201501N00211006001CN0112001N1+02801+02401999999ADDAG12000GA1031+004509059GA2071+006009089MA1101391999999MW1001
0063827980999991992021513004-07100-034867FM-15+0007SBJP V0201201N00211006001CN0112001N1+02901+02201999999ADDAG12999GA1031+003009059GA2081+006009089MA1101391999999MW1211
0063827980999991992021515004-07100-034867FM-15+0007SBJP V0201501N00411006001CN0112001N1+02701+02501999999ADDAG12000GA1031+004509059GA2071+006009089MA1101291999999MW1001
0063827980999991992021610004-07100-034867FM-15+0007SBJP V0209991C00001030001CN0112001N1+02501+02301999999ADDAG12999GA1041+006009089GA2071+030009039MA1101291999999MW1001
0063827980999991992021612004-07100-034867FM-15+0007SBJP V0201301N00311030001CN0112001N1+02701+02301999999ADDAG12000GA1031+006009089GA2071+030009039MA1101391999999MW1001
0063827980999991992021615004-07100-034867FM-15+0007SBJP V0201201N00311030001CN0112001N1+02801+02301999999ADDAG11000GA1031+006009089GA2071+030009039MA1101391999999MW1001
0063827980999991992021619004-07100-034867FM-15+0007SBJP V0201501N00211030001CN0112001N1+02601+02501999999ADDAG11999GA1031+006009089GA2071+030009039MA1101191999999MW1211
0079827980999991992021620004-07100-034867FM-15+0007SBJP V0209991C00001030001CN0112001N1+02601+02301999999ADDAG12999GA1031+006009089GA2051+030009039GA3071+060009029MA1101191999999MW1001
0063827980999991992021710004-07100-034867FM-15+0007SBJP V0202101N00211004501CN0112001N1+02301+02301999999ADDAG11999GA1051+004509059GA2061+024009049MA1101291999999MW1501
0063827980999991992021711004-07100-034867FM-15+0007SBJP V0202001N00261024001CN0112001N1+02401+02301999999ADDAG12999GA1041+004509059GA2071+024009049MA1101291999999MW1001
0174827980999991992021712004-07100-034867SY-MT+0007SBJP V0202401N00261024001CN0020001N1+02581+02031999999ADDAA124030091AG10006AY161999AY221999GA1041+004509059GA2071+024009049GF108991081091008001999999KA1999N+02321MA1101291999999MW1001REMSYN017333   20232 60304EQDQ01  03003PRCP99
0063827980999991992021716004-07100-034867FM-15+0007SBJP V0201701N00311030001CN0112001N1+02801+02201999999ADDAG11999GA1031+006009089GA2071+030009039MA1101191999999MW1001
0063827980999991992021717004-07100-034867FM-15+0007SBJP V0201701N00261030001CN0112001N1+02801+02201999999ADDAG12999GA1031+006009089GA2071+030009039MA1101191999999MW1001
0147827980999991992021718004-07100-034867SY-MT+0007SBJP V0201201N00261030001CN0040001N1+02701+02211999999ADDAA106000091AG14000GA1041+006009089GA2061+030009039GF107991071091008001999001MA1101191999999MW1001REMSYN003333EQDQ01    003SCOMCGQ02  00003PRCP99
0063827980999991992021719004-07100-034867FM-15+0007SBJP V0201501N00261030001CN0112001N1+02801+02201999999ADDAG12999GA1031+006009089GA2061+030009039MA1101191999999MW1001
0099827980999991992021800004-07100-034867FM-12+0007SBJP V0209999999999007501CN0020001N9+02621+02271999999ADDAA106000091AG14000GF105991051071008001001001KA1999M+02801REMSYN011333   10280EQDQ01  00003PRCP99
0119827980999991992021812004-07100-034867FM-12+0007SBJP V0209999999999007501CN0020001N9+02701+02371999999ADDAA124000691AA299000591AG10006AY161999AY221999GF106991061091008001001001KA1999N+02341MW1001REMSYN017333   20234 69964
0047827980999991992021813004-07100-034867FM-15+0007SBJP V0201901N00311006001CN0112001N1+02801+02301999999ADDAG12999GA1061+006009089MA1101191999999MW1001
0063827980999991992021814004-07100-034867FM-15+0007SBJP V0201901N00411004501CN0112001N1+02601+02401999999ADDAG11999GA1051+004509059GA2051+060009089MA1101191999999MW1211
0063827980999991992021817004-07100-034867FM-15+0007SBJP V0201701N00411006001CN0112001N1+02801+02401999999ADDAG11999GA1051+006009089GA2051+030009039MA1101021999999MW1001
0119827980999991992021900004-07100-034867FM-12+0007SBJP V0209999999999007501CN0020001N9+02641+02251999999ADDAA106000491AA299000591AG10006AY161999AY221999GF105991051071008001001001KA1999M+02821MW1001REMSYN017333   10282 69941
0047827980999991992021906004-07100-034867FM-15+0007SBJP V0209991C00001220001CN0112001N1+02501+02301999999ADDAG11000GA1041+006009089MA1101021999999MW1001
0047827980999991992021907004-07100-034867FM-15+0007SBJP V0209991C00001220001CN0112001N1+02501+02301999999ADDAG11999GA1031+006009089MA1101021999999MW1001
0047827980999991992021908004-07100-034867FM-15+0007SBJP V0209991C00001220001CN0112001N1+02501+02301999999ADDAG11999GA1041+006009089MA1101021999999MW1001
0047827980999991992021909004-07100-034867FM-15+0007SBJP V0209991C00001220001CN0112001N1+02601+02301999999ADDAG12000GA1021+006009089MA1101021999999MW1001
0047827980999991992021911004-07100-034867FM-15+0007SBJP V0201501N00261006001CN0112001N1+02801+02401999999ADDAG12999GA1061+006009089MA1101081999999MW1001
0174827980999991992021912004-07100-034867SY-MT+0007SBJP V0201701N00261030001CN0040001N1+02621+02371999999ADDAA124005091AG19009AY161999AY221999GA1041+006009089GA2071+030009039GF108991081091008001999999KA1999N+02521MA1101191999999MW1211REMSYN017333   20252 60054EQDQ01  00503PRCP99
0063827980999991992021914004-07100-034867FM-15+0007SBJP V0201401N00311006001CN0112001N1+02901+02301999999ADDAG11999GA1051+006009089GA2051+030009039MA1101081999999MW1001
0063827980999991992022010004-07100-034867FM-15+0007SBJP V0209991C00001006001CN0112001N1+02501+02401999999ADDAG12999GA1051+006009089GA2071+030009039MA1101081999999MW1001
0127827980999991992022012004-07100-034867FM-12+0007SBJP V0209999999999007501CN0020001N9+02901+02391999999ADDAA124001091AG10006AY161999AY221999GF106991061071008001001001KA1999N+02541MW1001REMSYN017333   20254 60014EQDQ01  00103PRCP99
0047827980999991992022016004-07100-034867FM-15+0007SBJP V0201901N00311006001CN0112001N1+03001+02301999999ADDAG12999GA1061+006009089MA1101081999999MW1001
0063827980999991992022018004-07100-034867FM-15+0007SBJP V0201801N00311006001CN0112001N1+02901+02301999999ADDAG11000GA1061+006009089GA2061+030009039MA1101021999999MW1001
0063827980999991992022019004-07100-034867FM-15+0007SBJP V0201801N00311030001CN0112001N1+02801+02301999999ADDAG12999GA1041+006009089GA2051+030009039MA1101021999999MW1001
0099827980999991992022100004-07100-034867FM-12+0007SBJP V0209999999999220001CN0020001N9+02721+02261999999ADDAA106000091AG14000GF104991041081008001001001KA1999M+02981REMSYN011333   10298EQDQ01  00003PRCP99
0063827980999991992022110004-07100-034867FM-15+0007SBJP V0202401N00311030001CN0112001N1+02601+02401999999ADDAG12999GA1021+006009089GA2051+030009039MA1101191999999MW1001
0063827980999991992022111004-07100-034867FM-15+0007SBJP V0202401N00311030001CN0112001N1+02601+02401999999ADDAG11999GA1031+006009089GA2051+030009039MA1101291999999MW1001
0185827980999991992022112004-07100-034867SY-MT+0007SBJP V0201801N00211006001CN0040001N1+02901+02271999999ADDAA124000491AA299000591AG19006AY161999AY221999GA1051+006009089GA2051+030009039GF106991061071008001999001KA1999N+02441MA1101291999999MW1001REMSYN017333   20244 69944EQDQ01    003SCOMCG
0063827980999991992022115004-07100-034867FM-15+0007SBJP V0201501N00311030001CN0112001N1+03001+02301999999ADDAG12000GA1041+006009089GA2041+030009039MA1101191999999MW1001
0063827980999991992022116004-07100-034867FM-15+0007SBJP V0201701N00311030001CN0112001N1+02801+02201999999ADDAG11999GA1031+006009089GA2071+030009039MA1101191999999MW1001
0063827980999991992022117004-07100-034867FM-15+0007SBJP V0201701N00261030001CN0112001N1+02801+02201999999ADDAG11999GA1031+006009089GA2071+030009039MA1101191999999MW1001
0063827980999991992022118004-07100-034867FM-15+0007SBJP V0201201N00261030001CN0112001N1+02801+02301999999ADDAG12000GA1041+006009089GA2061+030009039MA1101191999999MW1001
0047827980999991992022211004-07100-034867FM-15+0007SBJP V0209999999999220001CN0112001N1+02301+02301999999ADDAG12999GA1031+006009089MA1101081999999MW1001
0078827980999991992022218004-07100-034867FM-12+0007SBJP V0201401N00311012001CN0040001N9+02861+02341999999ADDAA106000091AG14000GF106991061081008001001001REMSYN003333EQDQ01  00003PRCP99
0099827980999991992022300004-07100-034867FM-12+0007SBJP V0201401N00411220001CN0040001N9+02701+02281999999ADDAA106000091AG14000GF104991041081008001001001KA1999M+03001REMSYN011333   10300EQDQ01  00003PRCP99
0063827980999991992022310004-07100-034867FM-15+0007SBJP V0209991C00001006001CN0112001N1+02601+02501999999ADDAG12999GA1021+004509059GA2061+006009089MA1101191999999MW1001
0099827980999991992022312004-07100-034867FM-12+0007SBJP V0201401N00311012001CN0040001N9+02881+02321999999ADDAA106000091AG14000GF105991051081008001001001KA1999N+02601REMSYN011333   20260EQDQ01  00003PRCP99
0047827980999991992022316004-07100-034867FM-15+0007SBJP V0201501N00411006001CN0112001N1+02801+02401999999ADDAG11999GA1051+006009089MA1101191999999MW1001
0078827980999991992022318004-07100-034867FM-12+0007SBJP V0201401N00411012001CN0040001N9+02861+02341999999ADDAA106000091AG14000GF105991051081008001001001REMSYN003333EQDQ01  00003PRCP99
0127827980999991992022412004-07100-034867FM-12+0007SBJP V0201401N00511007501CN0040001N9+02701+02261999999ADDAA124003091AG19009AY161999AY221999GF107991071071008001001001KA1999N+02441MW1211REMSYN017333   20244 60034EQDQ01  00303PRCP99
0099827980999991992022500004-07100-034867FM-12+0007SBJP V0209999999999012001CN0040001N9+02741+02321999999ADDAA106000091AG14000GF105991051081008001001001KA1999M+03001REMSYN011333   10300EQDQ01  00003PRCP99
0127827980999991992022512004-07100-034867FM-12+0007SBJP V0201401N00411007501CN0040001N9+02841+02421999999ADDAA124004091AG10006AY161999AY221999GF107991071021008001001001KA1999N+02461MW1001REMSYN017333   20246 60044EQDQ01  00403PRCP99
0078827980999991992022518004-07100-034867FM-12+0007SBJP V0201401N00511007501CN0040001N9+02861+02421999999ADDAA106000091AG14000GF107991071071008001001001REMSYN003333EQDQ01  00003PRCP99
0127827980999991992022612004-07100-034867FM-12+0007SBJP V0201401N00311012001CN0040001N9+02901+02461999999ADDAA124002091AG10006AY161999AY221999GF106991061081008001001001KA1999N+02681MW1001REMSYN017333   20268 60024EQDQ01  00203PRCP99
0063827980999991992022620004-07100-034867FM-15+0007SBJP V0201801N00311060001CN0112001N1+02801+02401999999ADDAG12999GA1041+006009089GA2081+060009029MA1101291999999MW1001
0047827980999991992022710004-07100-034867FM-15+0007SBJP V0201801N00261220001CN0112001N1+02701+02301999999ADDAG11999GA1041+006009089MA1101491999999MW1001
0047827980999991992022711004-07100-034867FM-15+0007SBJP V0201701N00311006001CN0112001N1+02901+02301999999ADDAG11999GA1051+006009089MA1101491999999MW1001
0158827980999991992022712004-07100-034867SY-MT+0007SBJP V0201401N00311006001CN0020001N1+02921+02271999999ADDAA124001091AG10006AY161999AY221999GA1061+006009089GF105991051081008001001001KA1999N+02621MA1101591999999MW1001REMSYN017333   20262 69974EQDQ01  00103PRCP99
0047827980999991992022713004-07100-034867FM-15+0007SBJP V0201801N00311006001CN0112001N1+02901+02301999999ADDAG11999GA1061+006009089MA1101591999999MW1001
0047827980999991992022717004-07100-034867FM-15+0007SBJP V0201601N00411220001CN0112001N1+03001+02201999999ADDAG11999GA1041+006009089MA1101391999999MW1001
0131827980999991992022718004-07100-034867SY-MT+0007SBJP V0201401N00311006001CN0040001N1+02921+02271999999ADDAA106000691AA299000591AG10006AY161999AY221999GA1051+006009089GF106991061081008001001001MA1101291999999MW1001REMSYN011333   69961
0127827980999991992022812004-07100-034867FM-12+0007SBJP V0201401N00311007501CN0040001N9+02701+02431999999ADDAA124002091AG10009AY161999AY221999GF108991081091008001001001KA1999N+02501MW1211REMSYN017333   20250 60024EQDQ01  00203PRCP99
0078827980999991992022818004-07100-034867FM-12+0007SBJP V0201401N00311007501CN0100001N9+02881+02251999999ADDAA106000091AG14000GF105991051021008001001001REMSYN003333EQDQ01  00003PRCP99
0099827980999991992022912004-07100-034867FM-12+0007SBJP V0201401N00311007501CN0100001N9+02891+02151999999ADDAA106000091AG14000GF105991051021008001001001KA1999N+02241REMSYN011333   20224EQDQ01  00003PRCP99
0099827980999991992030112004-07100-034867FM-12+0007SBJP V0201401N00311007501CN0100001N9+02901+02341999999ADDAA106000091AG14000GF105991051021008001001001KA1999N+02301REMSYN011333   20230EQDQ01  00003PRCP99
0099827980999991992030200004-07100-034867FM-12+0007SBJP V0201401N00311007501CN0040001N9+02681+02251999999ADDAA106000091AG14000GF106991061091008001001001KA1999M+03041REMSYN011333   10304EQDQ01  00003PRCP99
0099827980999991992030212004-07100-034867FM-12+0007SBJP V0201401N00411007501CN0100001N9+02901+02341999999ADDAA106000091AG14000GF105991051021008001001001KA1999N+02401REMSYN011333   20240EQDQ01  00003PRCP99
0078827980999991992030218004-07100-034867FM-12+0007SBJP V0201401N00511220001CN0040001N9+03001+02291999999ADDAA106000091AG14000GF104991041081008001001001REMSYN003333EQDQ01  00003PRCP99
0099827980999991992030312004-07100-034867FM-12+0007SBJP V0201401N00311012001CN0040001N9+03001+02271999999ADDAA106000091AG14000GF105991051081008001001001KA1999N+02701REMSYN011333   20270EQDQ01  00003PRCP99
0099827980999991992030400004-07100-034867FM-12+0007SBJP V0201401N00311007501CN0020001N9+02721+02461999999ADDAA106000091AG14000GF105991051071008001001001KA1999M+03101REMSYN011333   10310EQDQ01  00003PRCP99
0099827980999991992030412004-07100-034867FM-12+0007SBJP V0201401N00511220001CN0040001N9+02941+02261999999ADDAA106000091AG14000GF104991041081008001001001KA1999N+02641REMSYN011333   20264EQDQ01  00003PRCP99
0078827980999991992030418004-07100-034867FM-12+0007SBJP V0201401N00511220001CN0040001N9+02961+02341999999ADDAA106000091AG14000GF104991041021008001001001REMSYN003333EQDQ01  00003PRCP99
0099827980999991992030512004-07100-034867FM-12+0007SBJP V0201401N00511012001CN0040001N9+02941+02111999999ADDAA106000091AG14000GF106991061081008001001001KA1999N+02641REMSYN011333   20264EQDQ01  00003PRCP99
0078827980999991992030518004-07100-034867FM-12+0007SBJP V0201401N00411007501CN0040001N9+02941+02111999999ADDAA106000091AG14000GF105991051021008001001001REMSYN003333EQDQ01  00003PRCP99
0127827980999991992030612004-07100-034867FM-12+0007SBJP V0201401N00311007501CN0020001N9+02401+02131999999ADDAA124009091AG10008AY161999AY221999GF108991081091008001999999KA1999N+02341MW1601REMSYN017333   20234 60094EQDQ01  00903PRCP99
0108827980999991992030618004-07100-034867FM-12+0007SBJP V0201401N00311007501CN0020001N9+02721+02451999999ADDAA106001091AG10006AY161999AY221999GF108991081091008001999999MW1001REMSYN011333   60011EQDQ01  00103PRCP99
0127827980999991992030712004-07100-034867FM-12+0007SBJP V0201401N00151007501CN0040001N9+02861+02581999999ADDAA124015091AG10006AY161999AY221999GF106991061041008001001001KA1999N+02301MW1001REMSYN017333   20230 60154EQDQ01  01503PRCP99
0078827980999991992030718004-07100-034867FM-12+0007SBJP V0201401N00311007501CN0100001N9+02921+02471999999ADDAA106000091AG14000GF105991051021008001001001REMSYN003333EQDQ01  00003PRCP99
0127827980999991992030812004-07100-034867FM-12+0007SBJP V0201401N00461007501CN0100001N9+02931+02421999999ADDAA124005091AG19006AY161999AY221999GF105991051041008001001001KA1999N+02501MW1001REMSYN017333   20250 60054EQDQ01  00503PRCP99
0066827980999991992031000004-07100-034867FM-12+0007SBJP V0209999999999220001CN0040001N9+02761+02421999999ADDAA106000091AG14000GF104991999999008001999999EQDQ01  00003PRCP99
0099827980999991992031012004-07100-034867FM-12+0007SBJP V0201401N00511007501CN0100001N9+02971+02131999999ADDAA106000091AG14000GF106991061021008001001001KA1999N+02681REMSYN011333   20268EQDQ01  00003PRCP99
0078827980999991992031018004-07100-034867FM-12+0007SBJP V0201401N00511007501CN0100001N9+02941+02291999999ADDAA106000091AG14000GF105991051021008001001001REMSYN003333EQDQ01  00003PRCP99
0099827980999991992031100004-07100-034867FM-12+0007SBJP V0201401N00511007501CN0040001N9+02721+02241999999ADDAA106000091AG14000GF108991081091008001001001KA1999M+03041REMSYN011333   10304EQDQ01  00003PRCP99
0127827980999991992031112004-07100-034867FM-12+0007SBJP V0201401N00311007501CN0100001N9+02881+02411999999ADDAA124008091AG10006AY161999AY221999GF107991071041008001001001KA1999N+02521MW1001REMSYN017333   20252 60084EQDQ01  00803PRCP99
0108827980999991992031118004-07100-034867FM-12+0007SBJP V0201401N00311007501CN0100001N9+02921+02501999999ADDAA106004091AG10006AY161999AY221999GF106991061041008001001001MW1001REMSYN011333   60041EQDQ01  00403PRCP99
0099827980999991992031200004-07100-034867FM-12+0007SBJP V0201401N00311007501CN0040001N9+02761+02341999999ADDAA106000091AG14000GF107991071041008001001001KA1999M+03001REMSYN011333   10300EQDQ01  00003PRCP99
0127827980999991992031212004-07100-034867FM-12+0007SBJP V0201401N00311007501CN0040001N9+02441+02151999999ADDAA124048091AG19008AY161999AY221999GF108991081001008001021999KA1999N+02241MW1211REMSYN017333   20224 60484EQDQ01  04803PRCP99
0108827980999991992031218004-07100-034867FM-12+0007SBJP V0201401N00261007501CN0040001N9+02701+02331999999ADDAA106000191AG10006AY161999AY221999GF108991081091008001999999MW1001REMSYN011333   69911EQDQ01  00013PRCP99
0078827980999991992031318004-07100-034867FM-12+0007SBJP V0201401N00511007501CN0100001N9+02821+02381999999ADDAA106000091AG14000GF108991081091008001001091REMSYN003333EQDQ01  00003PRCP99
0099827980999991992031400004-07100-034867FM-12+0007SBJP V0201401N00511007501CN0040001N9+02681+02201999999ADDAA106000091AG14000GF107991071041008001001001KA1999M+02871REMSYN011333   10287EQDQ01  00003PRCP99
0127827980999991992031412004-07100-034867FM-12+0007SBJP V0201401N00511007501CN0100001N9+02911+02321999999ADDAA106000591AG19006AY161999AY221999GF105991051021008001001001KA1999N+02521MW1001REMSYN017333   20252 69951EQDQ01  00053PRCP99
0078827980999991992031418004-07100-034867FM-12+0007SBJP V0201401N00411007501CN0100001N9+02861+02261999999ADDAA106000091AG14000GF105991051041008001001001REMSYN003333EQDQ01  00003PRCP99
0127827980999991992031500004-07100-034867FM-12+0007SBJP V0201401N00311007501CN0040001N9+02601+02331999999ADDAA106009091AG10006AY161999AY221999GF108991081091008001999999KA1999M+03021MW1001REMSYN017333   10302 60091EQDQ01  00903PRCP99
0127827980999991992031512004-07100-034867FM-12+0007SBJP V0201401N00411007501CN0100001N9+02891+02321999999ADDAA124022091AG10006AY161999AY221999GF105991051021008001001001KA1999N+02451MW1001REMSYN017333   20245 60224EQDQ01  02203PRCP99
0078827980999991992031518004-07100-034867FM-12+0007SBJP V0201401N00411007501CN0100001N9+02901+02371999999ADDAA106000091AG14000GF105991051011008001001001REMSYN003333EQDQ01  00003PRCP99
0127827980999991992031600004-07100-034867FM-12+0007SBJP V0201401N00461007501CN0040001N9+02701+02221999999ADDAA106000191AG10006AY161999AY221999GF108991081091008001999999KA1999M+03021MW1001REMSYN017333   10302 69911EQDQ01  00013PRCP99
0091827980999991992031612004-07100-034867FM-12+0007SBJP V0201401N00311007501CN0040001N9+02701+02301999999ADDAG12008AY161999AY221999GF108991081001008001021999KA1999N+02301MW1211REMSYN011333   20230
0108827980999991992031618004-07100-034867FM-12+0007SBJP V0201401N00311007501CN0040001N9+02631+02441999999ADDAA106001091AG10008AY161999AY221999GF108991081001008001021999MW1211REMSYN011333   60011EQDQ01  00103PRCP99
0127827980999991992031712004-07100-034867FM-12+0007SBJP V0201401N00511007501CN0100001N9+99999+99999999999ADDAA124043091AG10006AY161999AY221999GF106991061041008001001001KA1999N+02321MW1001REMSYN017333   20232 60434EQDQ01  04303PRCP99
0078827980999991992031718004-07100-034867FM-12+0007SBJP V0201401N00411007501CN0100001N9+02881+02411999999ADDAA106000091AG14000GF106991061021008001001001REMSYN003333EQDQ01  00003PRCP99
0099827980999991992031800004-07100-034867FM-12+0007SBJP V0201401N00511007501CN0040001N9+02701+02281999999ADDAA106000091AG14000GF107991071091008001001001KA1999M+03021REMSYN011333   10302EQDQ01  00003PRCP99
0099827980999991992031812004-07100-034867FM-12+0007SBJP V0201401N00571007501CN0100001N9+02901+02431999999ADDAA106000091AG14000GF105991051021008001001001KA1999N+02601REMSYN011333   20260EQDQ01  00003PRCP99
0047827980999991992031816004-07100-034867FM-15+0007SBJP V0201901N00511006001CN0112001N1+03001+02101999999ADDAG12999GA1051+006009089MA1101291999999MW1211
0047827980999991992031817004-07100-034867FM-15+0007SBJP V0201901N00411220001CN0112001N1+03001+02201999999ADDAG11999GA1041+006009089MA1101191999999MW1001
0115827980999991992031818004-07100-034867SY-MT+0007SBJP V0201401N00671220001CN0100001N1+02921+02341999999ADDAA106000091AG14000GA1021+006009089GF104991041011008001001001MA1101191999999MW1001REMSYN003333EQDQ01  00003PRCP99
0047827980999991992031819004-07100-034867FM-15+0007SBJP V0201901N00411220001CN0112001N1+02901+02201999999ADDAG12999GA1031+006009089MA1101191999999MW1001
0047827980999991992031820004-07100-034867FM-15+0007SBJP V0201801N00361220001CN0112001N1+02801+02301999999ADDAG12999GA1041+006009089MA1101291999999MW1001
0099827980999991992031900004-07100-034867FM-12+0007SBJP V0201801N00461007501CN0100001N9+02721+02151999999ADDAA106000091AG14000GF106991061091008001001001KA1999M+03031REMSYN011333   10303EQDQ01  00003PRCP99
0145827980999991992031906004-07100-034867FM-12+0007SBJP V0202101N00261045001CN0500001N9+99999+99999102741ADDAA106000091AG14000GF108991081001999999071999KA1999N-00451MD1710161+9999REMSYN011333   21045EQDQ01 -00183ATOT  Q02 -00523ATOD  Q03  00003PRCP99
0045827980999991992031910004-07100-034867FM-15+0007SBJP V0202401N00311999991CY0099001N1+02501+02201999999ADDAG11999MA1101291999999MW1001REMMET005CAVOK
0099827980999991992031912004-07100-034867FM-12+0007SBJP V0201801N00311007501CN0100001N9+02781+02341999999ADDAA106000091AG14000GF106991061021008001001001KA1999N+02481REMSYN011333   20248EQDQ01  00003PRCP99
0047827980999991992031916004-07100-034867FM-15+0007SBJP V0201801N00511006001CN0112001N1+03001+02101999999ADDAG11999GA1071+006009089MA1101081999999MW1001
0047827980999991992031917004-07100-034867FM-15+0007SBJP V0201801N00511006001CN0112001N1+03001+02201999999ADDAG12999GA1071+006009089MA1101021999999MW1001
0127827980999991992032000004-07100-034867FM-12+0007SBJP V0201401N00311007501CN0040001N9+02601+02331999999ADDAA106001091AG10006AY161999AY221999GF108991081091008001001001KA1999M+03021MW1001REMSYN017333   10302 60011EQDQ01  00103PRCP99
0127827980999991992032012004-07100-034867FM-12+0007SBJP V0201401N00311007501CN0100001N9+02841+02241999999ADDAA124001091AG10006AY161999AY221999GF106991061021008001001001KA1999N+02341MW1001REMSYN017333   20234 60014EQDQ01  00103PRCP99
0047827980999991992032016004-07100-034867FM-15+0007SBJP V0201801N00311006001CN0112001N1+03001+02201999999ADDAG11999GA1061+006009089MA1100911999999MW1001
0115827980999991992032018004-07100-034867SY-MT+0007SBJP V0201401N00411006001CN0100001N1+02901+02271999999ADDAA106000091AG10000GA1051+006009089GF105991051021008001001001MA1100811999999MW1001REMSYN003333EQDQ01  00003PRCP99
0047827980999991992032019004-07100-034867FM-15+0007SBJP V0201501N00411006001CN0112001N1+02801+02201999999ADDAG12999GA1051+006009089MA1100811999999MW1001
0099827980999991992032100004-07100-034867FM-12+0007SBJP V0201401N002619999999N0040001N9+02701+02221999999ADDAA106000091AG14000GF107991081091008001001001KA1999M+03031REMSYN011333   10303EQDQ01  00003PRCP99
0136827980999991992032112004-07100-034867SY-MT+0007SBJP V0201401N00261006001CN0100001N1+02801+02381999999ADDAA106000091AG10000GA1051+006009089GF106991061041008001001001KA1999N+02341MA1101081999999MW1001REMSYN011333   20234EQDQ01  00003PRCP99
0047827980999991992032116004-07100-034867FM-15+0007SBJP V0201701N00261220001CN0112001N1+03101+02301999999ADDAG11999GA1041+006009089MA1101021999999MW1001
0078827980999991992032118004-07100-034867FM-12+0007SBJP V0201401N00311007501CN0100001N9+02961+02261999999ADDAA106000091AG14000GF105991051011008001001001REMSYN003333EQDQ01  00003PRCP99
0162827980999991992032212004-07100-034867SY-MT+0007SBJP V0201401N00311030001CN0100001N1+02981+02301999999ADDAA106000091AG10000GA1041+006009089GA2051+030009039GF105991051011008001999001KA1999N+02661MA1101291999999REMSYN011333   20266EQDQ01    003SCOMCGQ02  00003PRCP99
0063827980999991992032216004-07100-034867FM-15+0007SBJP V0201401N00311006001CN0112001N1+03001+02301999999ADDAG12999GA1051+006009089GA2061+030009039MA1101191999999MW1001
0063827980999991992032217004-07100-034867FM-15+0007SBJP V0201501N00211006001CN0112001N1+03001+02301999999ADDAG11999GA1051+006009089GA2051+030009039MA1101081999999MW1001
0141827980999991992032218004-07100-034867SY-MT+0007SBJP V0201401N00311006001CN0040001N1+02941+02311999999ADDAA106000091AG10000GA1051+006009089GA2051+030009039GF108991081091008001999001MA1101081999999REMSYN003333EQDQ01    003SCOMCGQ02  00003PRCP99
0063827980999991992032219004-07100-034867FM-15+0007SBJP V0201401N00211030001CN0112001N1+02901+02301999999ADDAG11999GA1041+006009089GA2061+030009039MA1101081999999MW1001
0063827980999991992032220004-07100-034867FM-15+0007SBJP V0201301N00261030001CN0112001N1+02801+02301999999ADDAG11999GA1031+006009089GA2041+030009039MA1101081999999MW1001
0099827980999991992032300004-07100-034867FM-12+0007SBJP V0201401N00311007501CN0040001N9+02621+02181999999ADDAA106000091AG14000GF106991061041008001001001KA1999M+03041REMSYN011333   10304EQDQ01  00003PRCP99
0047827980999991992032305004-07100-034867FM-15+0007SBJP V0209991C00001220001CN0112001N1+02401+02301999999ADDAG12999GA1031+006009089MA1101081999999MW1001
0063827980999991992032306004-07100-034867FM-15+0007SBJP V0201901N00211006001CN0112001N1+02401+02301999999ADDAG12000GA1021+003009059GA2041+006009089MA1101081999999MW1001
0047827980999991992032307004-07100-034867FM-15+0007SBJP V0202101N00211220001CN0112001N1+02301+02201999999ADDAG12999GA1041+006009089MA1101081999999MW1211
0047827980999991992032308004-07100-034867FM-15+0007SBJP V0201801N00211220001CN0112001N1+02301+02201999999ADDAG12999GA1041+006009089MA1101081999999MW1001
0063827980999991992032309004-07100-034867FM-15+0007SBJP V0209991C00001030001CN0090001N1+02401+02301999999ADDAG11002GA1041+006009089GA2061+030009049MA1101191999999MW1601
0047827980999991992032310004-07100-034867FM-15+0007SBJP V0209991C00001220001CN0112001N1+02501+02301999999ADDAG12999GA1041+006009089MA1101291999999MW1001
0068827980999991992032311004-07100-034867FM-15+0007SBJP V0209991C00001220001CN0112001N1+02701+02301999999ADDAG11999GA1041+006009089MA1101291999999MW1001REMMET012RJCT42  0903
0153827980999991992032312004-07100-034867SY-MT+0007SBJP V0201401N00411006001CN0100001N1+02881+02271999999ADDAA124001091AG10006AY161999AY221999GA1051+006009089GF106991061041008001001001KA1999N+02601MW1001REMSYN017333   20260 69994MET004113?EQDQ01  00103PRCP99
0063827980999991992032316004-07100-034867FM-15+0007SBJP V0201601N00411030001CN0112001N1+02901+02301999999ADDAG11999GA1041+006009089GA2071+030009039MA1101191999999MW1001
0063827980999991992032317004-07100-034867FM-15+0007SBJP V0201601N00511006001CN0112001N1+02901+02401999999ADDAG11999GA1051+006009089GA2061+030009039MA1101081999999MW1001
0171827980999991992032318004-07100-034867SY-MT+0007SBJP V0201401N00311030001CN0100001N1+02871+02371999999ADDAA106000391AG10006AY161999AY221999GA1041+006009089GA2071+030009039GF108991081091008001999001MA1101081999999MW1001REMSYN011333   69931EQDQ01    003SCOMCGQ02  00033PRCP99
0099827980999991992032400004-07100-034867FM-12+0007SBJP V0200501N00311007501CN0040001N9+02681+02261999999ADDAA106000091AG14000GF108991081041008001001001KA1999M+03011REMSYN011333   10301EQDQ01  00003PRCP99
0063827980999991992032406004-07100-034867FM-15+0007SBJP V0202601N00151006001CN0112001N1+02501+02301999999ADDAG12000GA1051+006009089GA2051+030009039MA1101021999999MW1001
0063827980999991992032407004-07100-034867FM-15+0007SBJP V0202201N00211006001CN0112001N1+02501+02401999999ADDAG12999GA1051+006009089GA2051+030009039MA1101021999999MW1001
0063827980999991992032408004-07100-034867FM-15+0007SBJP V0202701N00211006001CN0112001N1+02501+02401999999ADDAG11999GA1051+006009089GA2051+030009039MA1101081999999MW1001
0063827980999991992032409004-07100-034867FM-15+0007SBJP V0202701N00151024001CN0112001N1+02501+02401999999ADDAG12000GA1041+004509059GA2061+024009049MA1101081999999MW1001
0063827980999991992032410004-07100-034867FM-15+0007SBJP V0209991C00001024001CN0080001N1+02501+02401999999ADDAG12999GA1031+004509059GA2061+024009049MA1101191999999MW1501
0201827980999991992032412004-07100-034867SY-MT+0007SBJP V0209991C00001006001CN0040001N1+02561+02361999999ADDAA124000691AA299000591AG19006AY161999AY221999GA1051+006009089GA2051+030009039GF108991081041008001999001KA1999N+02421MA1101291999999MW1611REMSYN017333   20242 69964EQDQ01    003SCOMCGQ02    003PRSWM1
0063827980999991992032416004-07100-034867FM-15+0007SBJP V0201801N00511006001CN0112001N1+03001+02201999999ADDAG11999GA1051+006009089GA2051+030009039MA1101021999999MW1001
0063827980999991992032417004-07100-034867FM-15+0007SBJP V0201701N00411006001CN0112001N1+03001+02201999999ADDAG11999GA1051+006009089GA2031+030009039MA1101021999999MW1001
0108827980999991992032418004-07100-034867FM-12+0007SBJP V0201401N00411007501CN0100001N9+02901+02341999999ADDAA106000591AG10006AY161999AY221999GF107991071041008001001001MW1001REMSYN011333   69951EQDQ01  00053PRCP99
0063827980999991992032419004-07100-034867FM-15+0007SBJP V0201801N00311030001CN0112001N1+02901+02301999999ADDAG11999GA1041+006009089GA2051+030009039MA1101021999999MW1001
0063827980999991992032420004-07100-034867FM-15+0007SBJP V0201801N00311030001CN0112001N1+02801+02301999999ADDAG12999GA1031+006009089GA2051+030009039MA1101021999999MW1001
0127827980999991992032500004-07100-034867FM-12+0007SBJP V0200501N00311007501CN0040001N9+02671+02331999999ADDAA106001091AG10008AY161999AY221999GF108991081091008001001001KA1999M+03001MW1211REMSYN017333   10300 69981EQDQ01  00103PRCP99
0063827980999991992032510004-07100-034867FM-15+0007SBJP V0209991C00001030001CN0112001N1+02501+02301999999ADDAG11999GA1021+006009089GA2051+030009039MA1101191999999MW1001
0063827980999991992032511004-07100-034867FM-15+0007SBJP V0209991C00001030001CN0112001N1+02701+02301999999ADDAG11999GA1041+006009089GA2061+030009039MA1101191999999MW1001
0158827980999991992032512004-07100-034867SY-MT+0007SBJP V0209991C00001006001CN0100001N1+02701+02331999999ADDAA124005091AG10006AY161999AY221999GA1051+006009089GF108991081041008001001001KA1999N+02341MA1101291999999MW1001REMSYN017333   20234 60054EQDQ01  00503PRCP99
0047827980999991992032516004-07100-034867FM-15+0007SBJP V0201601N00411006001CN0112001N1+03001+02301999999ADDAG11999GA1051+006009089MA1101021999999MW1001
0063827980999991992032517004-07100-034867FM-15+0007SBJP V0201601N00411006001CN0112001N1+03001+02201999999ADDAG11999GA1051+006009089GA2061+030009039MA1100911999999MW1001
0147827980999991992032518004-07100-034867SY-MT+0007SBJP V0209991C00001006001CN0100001N1+02741+02301999999ADDAA106000091AG10000GA1051+006009089GA2051+030009039GF106991061021008001999001MA1100911999999MW1001REMSYN003333EQDQ01    003SCOMCGQ02  00003PRCP99
0063827980999991992032520004-07100-034867FM-15+0007SBJP V0201201N00411030001CN0112001N1+02701+02301999999ADDAG11999GA1031+006009089GA2051+030009039MA1101021999999MW1001
0063827980999991992032522004-07100-034867FM-15+0007SBJP V0201701N00311030001CN0112001N1+02601+02301999999ADDAG12999GA1031+006009089GA2051+030009039MA1101081999999MW1001
0047827980999991992032600004-07100-034867FM-15+0007SBJP V0201801N00311220001CN0112001N1+02601+02301999999ADDAG11000GA1031+006009089MA1101191999999MW1001
0047827980999991992032601004-07100-034867FM-15+0007SBJP V0209991C00001220001CN0112001N1+02601+02301999999ADDAG11999GA1021+006009089MA1101191999999MW1001
0047827980999991992032602004-07100-034867FM-15+0007SBJP V0209991C00001220001CN0112001N1+02501+02301999999ADDAG11999GA1041+006009089MA1101191999999MW1001
0047827980999991992032603004-07100-034867FM-15+0007SBJP V0209991C00001220001CN0112001N1+02401+02301999999ADDAG11000GA1011+006009089MA1101081999999MW1001
0047827980999991992032604004-07100-034867FM-15+0007SBJP V0209991C00001220001CN0112001N1+02401+02301999999ADDAG11999GA1011+006009089MA1101081999999MW1001
0047827980999991992032605004-07100-034867FM-15+0007SBJP V0209991C00001220001CN0112001N1+02401+02201999999ADDAG11999GA1021+006009089MA1101021999999MW1001
0047827980999991992032606004-07100-034867FM-15+0007SBJP V0209991C00001220001CN0112001N1+02301+02201999999ADDAG12000GA1021+006009089MA1101021999999MW1001
0047827980999991992032607004-07100-034867FM-15+0007SBJP V0209991C00001220001CN0112001N1+02301+02201999999ADDAG11999GA1031+006009089MA1101021999999MW1001
0063827980999991992032608004-07100-034867FM-15+0007SBJP V0202601N00311030001CN0112001N1+02401+02301999999ADDAG12999GA1031+006009089GA2031+030009039MA1101021999999MW1001
0047827980999991992032609004-07100-034867FM-15+0007SBJP V0209991C00001220001CN0112001N1+02301+02201999999ADDAG12000GA1011+006009089MA1101081999999MW1001
0130827980999991992032612004-07100-034867SY-MT+0007SBJP V0201901N00151006001CN0040001N1+02801+02301999999ADDAA106000091AG14000GA1051+006009089GF105991051021008001001001KA1999N+02301MA1101391999999REMSYN011333   20230EQDQ01  00003PRCP99
0063827980999991992032616004-07100-034867FM-15+0007SBJP V0201401N00261006001CN0112001N1+02801+02101999999ADDAG11999GA1031+004509059GA2041+006009089MA1101191999999MW1001
0047827980999991992032617004-07100-034867FM-15+0007SBJP V0201501N00211220001CN0112001N1+02901+02301999999ADDAG11999GA1041+006009089MA1101081999999MW1001
0109827980999991992032618004-07100-034867SY-MT+0007SBJP V0200901N00311007501CN0100001N1+02921+02271999999ADDAA106000091AG10000GA1041+006009089GF105991051011008001001001MA1101081999999REMSYN003333EQDQ01  00003PRCP99
0047827980999991992032619004-07100-034867FM-15+0007SBJP V0201501N00211220001CN0112001N1+02901+02301999999ADDAG11999GA1041+006009089MA1101081999999MW1001
0047827980999991992032620004-07100-034867FM-15+0007SBJP V0201601N00261220001CN0112001N1+02801+02201999999ADDAG11999GA1031+006009089MA1101081999999MW1001
0047827980999991992032621004-07100-034867FM-15+0007SBJP V0201601N00211220001CN0112001N1+02701+02301999999ADDAG11000GA1031+006009089MA1101191999999MW1001
0047827980999991992032622004-07100-034867FM-15+0007SBJP V0201701N00211220001CN0112001N1+02701+02401999999ADDAG11999GA1031+006009089MA1101291999999MW1001
0047827980999991992032623004-07100-034867FM-15+0007SBJP V0201801N00211220001CN0112001N1+02601+02301999999ADDAG11999GA1031+006009089MA1101291999999MW1001
0130827980999991992032700004-07100-034867SY-MT+0007SBJP V0201401N00311007501CN0040001N1+02681+02251999999ADDAA106000091AG14000GA1021+006009089GF107991071041008001001001KA1999M+03021MA1101391999999REMSYN011333   10302EQDQ01  00003PRCP99
0047827980999991992032701004-07100-034867FM-15+0007SBJP V0202001N00211220001CN0112001N1+02501+02401999999ADDAG11999GA1011+006009089MA1101391999999MW1001
0047827980999991992032702004-07100-034867FM-15+0007SBJP V0202101N00261220001CN0112001N1+02501+02401999999ADDAG11999GA1011+006009089MA1101291999999MW1001
0047827980999991992032703004-07100-034867FM-15+0007SBJP V0209991C00001220001CN0112001N1+02501+02401999999ADDAG12000GA1011+006009089MA1101291999999MW1001
0047827980999991992032704004-07100-034867FM-15+0007SBJP V0209991C00001220001CN0112001N1+02401+02301999999ADDAG12999GA1031+006009089MA1101191999999MW1211
0063827980999991992032705004-07100-034867FM-15+0007SBJP V0202401N00311006001CN0080001N1+02401+02301999999ADDAG11999GA1031+004509059GA2051+006009089MA1101191999999MW1601
0047827980999991992032706004-07100-034867FM-15+0007SBJP V0209991C00001220001CN0112001N1+02401+02301999999ADDAG12000GA1041+006009089MA1101081999999MW1001
0031827980999991992032707004-07100-034867FM-15+0007SBJP V0201501N00311220001CN0112001N1+02401+02301999999ADDAG12999MA1101081999999MW1211
0063827980999991992032708004-07100-034867FM-15+0007SBJP V0202401N00311004501CN0060001N1+02401+02301999999ADDAG12999GA1051+004509059GA2051+006009089MA1101191999999MW1601
0047827980999991992032710004-07100-034867FM-15+0007SBJP V0202401N00211220001CN0112001N1+02601+02401999999ADDAG11999GA1031+006009089MA1101291999999MW1001
0158827980999991992032712004-07100-034867SY-MT+0007SBJP V0200901N00311006001CN0100001N1+02921+02341999999ADDAA124002091AG19006AY161999AY221999GA1061+006009089GF105991051041008001001001KA1999N+02421MA1101391999999MW1001REMSYN017333   20242 60024EQDQ01  00203PRCP99
0047827980999991992032716004-07100-034867FM-15+0007SBJP V0201501N00621006001CN0112001N1+03001+02301999999ADDAG11999GA1061+006009089MA1101191999999MW1001
0047827980999991992032717004-07100-034867FM-15+0007SBJP V0201701N00261006001CN0112001N1+03001+02401999999ADDAG11999GA1061+006009089MA1101081999999MW1001
0125827980999991992032718004-07100-034867SY-MT+0007SBJP V0201401N00311004501CN0100001N1+02861+02371999999ADDAA106000091AG10002GA1051+004509059GA2061+006009089GF108991081091008001001001MA1101191999999REMSYN003333EQDQ01  00003PRCP99
0127827980999991992032800004-07100-034867FM-12+0007SBJP V0201801N00311007501CN0040001N9+02501+02231999999ADDAA106002091AG10006AY161999AY221999GF108991081041008001001001KA1999M+03011MW1001REMSYN017333   10301 60021EQDQ01  00203PRCP99
0063827980999991992032810004-07100-034867FM-15+0007SBJP V0201201N00411030001CN0020001N1+02401+02301999999ADDAG11999GA1041+004509059GA2081+030009049MA1101391999999MW1601
0196827980999991992032812004-07100-034867SY-MT+0007SBJP V0209991C00001006001CN0040001N1+02451+02281999999ADDAA124001091AG10008AY161999AY221999GA1051+006009089GA2071+030009039GF108991081999008001021999KA1999N+02401MA1101391999999MW1601MW2611REMSYN017333   20240 60014EQDQ01    003SCOLCGQ02  00103PRCP99
0063827980999991992032815004-07100-034867FM-15+0007SBJP V0201701N00311006001CN0112001N1+02801+02401999999ADDAG11000GA1051+006009089GA2071+030009039MA1101291999999MW1001
0063827980999991992032816004-07100-034867FM-15+0007SBJP V0201801N00411030001CN0112001N1+02701+02501999999ADDAG11999GA1041+006009089GA2061+030009039MA1101191999999MW1211
0063827980999991992032817004-07100-034867FM-15+0007SBJP V0201801N00411006001CN0112001N1+02801+02401999999ADDAG11999GA1051+006009089GA2051+030009039MA1101191999999MW1001
0171827980999991992032818004-07100-034867SY-MT+0007SBJP V0201401N00461006001CN0040001N1+02831+02401999999ADDAA106000191AG10006AY161999AY221999GA1051+006009089GA2061+030009039GF108991081999008001021999MA1101081999999MW1001REMSYN011333   69911EQDQ01    003SCOLCGQ02  00013PRCP99
0190827980999991992032900004-07100-034867SY-MT+0007SBJP V0201801N00211030001CN0040001N1+02541+02351999999ADDAA106007091AG10006AY161999AY221999GA1021+006009089GA2041+030009039GF108991081999008001021999KA1999M+03001MA1101291999999MW1001REMSYN017333   10300 60071EQDQ01    003SCOLCGQ02  00703PRCP99
0158827980999991992032912004-07100-034867SY-MT+0007SBJP V0201401N00311006001CN0100001N1+02901+02271999999ADDAA124015091AG10006AY161999AY221999GA1051+006009089GF106991061021008001001001KA1999N+02421MA1101391999999MW1001REMSYN017333   20242 60154EQDQ01  01503PRCP99
0047827980999991992032916004-07100-034867FM-15+0007SBJP V0201801N00511006001CN0112001N1+03001+02301999999ADDAG12999GA1051+006009089MA1101081999999MW1001
0047827980999991992032917004-07100-034867FM-15+0007SBJP V0201501N00411220001CN0112001N1+03001+02301999999ADDAG11999GA1041+006009089MA1101081999999MW1001
0141827980999991992032918004-07100-034867SY-MT+0007SBJP V0201401N00411030001CN0100001N1+02901+02051999999ADDAA106000091AG14000GA1041+006009089GA2051+030009039GF105991051011008001999001MA1101021999999REMSYN003333EQDQ01    003SCOMCGQ02  00003PRCP99
0063827980999991992033002004-07100-034867FM-15+0007SBJP V0201401N00261004501CN0040001N1+02401+02401999999ADDAG11999GA1051+004509059GA2081+027009049MA1101291999999MW1601
0063827980999991992033004004-07100-034867FM-15+0007SBJP V0201601N00361003001CN0080001N1+02401+02301999999ADDAG12999GA1051+003009059GA2081+027009049MA1101191999999MW1501
0063827980999991992033005004-07100-034867FM-15+0007SBJP V0201501N00261027001CN0060001N1+02401+02401999999ADDAG11999GA1041+003009059GA2081+027009049MA1101081999999MW1501
0063827980999991992033006004-07100-034867FM-15+0007SBJP V0202101N00411003001CN0080001N1+02401+02401999999ADDAG11002GA1051+003009059GA2081+027009049MA1101081999999MW1601
0063827980999991992033007004-07100-034867FM-15+0007SBJP V0202101N00311027001CN0112001N1+02401+02301999999ADDAG11999GA1041+003009059GA2061+027009049MA1101021999999MW1001
0063827980999991992033008004-07100-034867FM-15+0007SBJP V0202001N00411030001CN0112001N1+02401+02301999999ADDAG12999GA1031+004509059GA2051+030009049MA1101081999999MW1001
0063827980999991992033009004-07100-034867FM-15+0007SBJP V0209991C00001006001CN0112001N1+02401+02301999999ADDAG11000GA1031+004509059GA2041+006009089MA1101081999999MW1001
0047827980999991992033010004-07100-034867FM-15+0007SBJP V0202101N00311006001CN0112001N1+02501+02401999999ADDAG12999GA1051+006009089MA1101191999999MW1001
0063827980999991992033011004-07100-034867FM-15+0007SBJP V0201801N00411006001CN0112001N1+02501+02401999999ADDAG11999GA1031+004509059GA2051+006009089MA1101291999999MW1001
0196827980999991992033012004-07100-034867SY-MT+0007SBJP V0201401N00261006001CN0040001N1+02481+02341999999ADDAA124021091AG19008AY161999AY221999GA1041+004509059GA2061+006009089GF108991081999008001021999KA1999N+02401MA1101291999999MW1211MW2611REMSYN017333   20240 60214EQDQ01    003SCOLCGQ02  02103PRCP99
0063827980999991992033013004-07100-034867FM-15+0007SBJP V0202201N00311006001CN0112001N1+02601+02401999999ADDAG11999GA1041+004509059GA2061+006009089MA1101391999999MW1501
0063827980999991992033016004-07100-034867FM-15+0007SBJP V0202201N00411006001CN0112001N1+02801+02301999999ADDAG11999GA1051+006009089GA2061+030009039MA1101081999999MW1001
0063827980999991992033017004-07100-034867FM-15+0007SBJP V0202101N00361030001CN0112001N1+02801+02201999999ADDAG11999GA1041+006009089GA2051+030009039MA1101081999999MW1001
0108827980999991992033018004-07100-034867FM-12+0007SBJP V0201401N00411007501CN0100001N9+02841+02241999999ADDAA106001091AG10006AY161999AY221999GF108991081091008001001001MW1001REMSYN011333   60011EQDQ01  00103PRCP99
0063827980999991992033019004-07100-034867FM-15+0007SBJP V0201801N00511006001CN0112001N1+02801+02401999999ADDAG11999GA1051+006009089GA2051+030009039MA1101081999999MW1001
0063827980999991992033020004-07100-034867FM-15+0007SBJP V0202101N00511006001CN0112001N1+02701+02201999999ADDAG11999GA1051+006009089GA2051+030009039MA1101081999999MW1001
0047827980999991992033023004-07100-034867FM-15+0007SBJP V0202101N00411220001CN0112001N1+02501+02301999999ADDAG11999GA1041+006009089MA1101191999999MW1001
0127827980999991992040112004-07100-034867FM-12+0007SBJP V0202501N00261012001CN0040001N9+02721+02301999999ADDAA124010091AG10005AY161999AY221999GF106991061081008001001001KA1999N+02361MW1001REMSYN017333   20236 60104EQDQ01  01003PRCP99
0099827980999991992040200004-07100-034867FM-12+0007SBJP V0201401N00151007501CN0040001N9+02601+02381999999ADDAA106000091AG14000GF108991081091008001999999KA1999M+02861REMSYN011333   10286EQDQ01  00003PRCP99
0047827980999991992040215004-07100-034867FM-15+0007SBJP V0201501N00411006001CN0112001N1+02801+02401999999ADDAG12000GA1051+006009089MA1101081999999MW1001
0047827980999991992040217004-07100-034867FM-15+0007SBJP V0201601N00511006001CN0112001N1+02801+02401999999ADDAG11999GA1051+006009089MA1100911999999MW1001
0115827980999991992040218004-07100-034867SY-MT+0007SBJP V0201801N00311006001CN0100001N1+02701+02301999999ADDAA106000091AG14000GA1061+006009089GF105991051041008001001001MA1100911999999MW1001REMSYN003333EQDQ01  00003PRCP99
0063827980999991992040219004-07100-034867FM-15+0007SBJP V0201601N00511006001CN0112001N1+02701+02401999999ADDAG11999GA1051+006009089GA2051+030009039MA1100911999999MW1001
0063827980999991992040220004-07100-034867FM-15+0007SBJP V0201501N00311030001CN0112001N1+02701+02401999999ADDAG12999GA1041+006009089GA2051+030009039MA1101021999999MW1001
0063827980999991992040222004-07100-034867FM-15+0007SBJP V0201901N00311030001CN0112001N1+02501+02401999999ADDAG12999GA1021+006009089GA2041+030009039MA1101081999999MW1001
0047827980999991992040223004-07100-034867FM-15+0007SBJP V0201901N00361220001CN0112001N1+02501+02401999999ADDAG12999GA1041+006009089MA1101291999999MW1001
0063827980999991992040300004-07100-034867FM-15+0007SBJP V0202001N00261030001CN0112001N1+02501+02401999999ADDAG11000GA1031+006009089GA2041+030009039MA1101291999999MW1001
0063827980999991992040301004-07100-034867FM-15+0007SBJP V0209991C00001220001CN0112001N1+02501+02401999999ADDAG11999GA1021+006009089GA2031+030009039MA1101191999999MW1001
0047827980999991992040302004-07100-034867FM-15+0007SBJP V0209991C00001220001CN0112001N1+02501+02401999999ADDAG11999GA1021+006009089MA1101291999999MW1001
0047827980999991992040303004-07100-034867FM-15+0007SBJP V0209991C00001220001CN0112001N1+02501+02301999999ADDAG11000GA1021+006009089MA1101191999999MW1001
0047827980999991992040304004-07100-034867FM-15+0007SBJP V0209991C00001220001CN0112001N1+02401+02301999999ADDAG12999GA1011+006009089MA1101191999999MW1001
0047827980999991992040305004-07100-034867FM-15+0007SBJP V0209991C00001220001CN0112001N1+02401+02301999999ADDAG12999GA1011+006009089MA1101191999999MW1001
0047827980999991992040306004-07100-034867FM-15+0007SBJP V0209991C00001220001CN0112001N1+02401+02301999999ADDAG11000GA1021+006009089MA1101081999999MW1001
0047827980999991992040307004-07100-034867FM-15+0007SBJP V0209991C00001220001CN0112001N1+02401+02301999999ADDAG11999GA1011+006009089MA1101081999999MW1001
0047827980999991992040308004-07100-034867FM-15+0007SBJP V0209991C00001220001CN0112001N1+02401+02301999999ADDAG11999GA1031+006009089MA1101081999999MW1001
0047827980999991992040309004-07100-034867FM-15+0007SBJP V0209991C00001220001CN0112001N1+02401+02301999999ADDAG11000GA1031+006009089MA1101191999999MW1001
0130827980999991992040312004-07100-034867SY-MT+0007SBJP V0209991C00001006001CN0040001N1+02821+02331999999ADDAA106000091AG10000GA1051+006009089GF106991061081008001001001KA1999N+02401MA1101291999999REMSYN011333   20240EQDQ01  00003PRCP99
0047827980999991992040315004-07100-034867FM-15+0007SBJP V0201001N00411006001CN0112001N1+03101+02401999999ADDAG12000GA1061+006009089MA1101191999999MW1001
0047827980999991992040316004-07100-034867FM-15+0007SBJP V0201001N00511006001CN0112001N1+03101+02401999999ADDAG11999GA1061+006009089MA1101081999999MW1001
0063827980999991992040317004-07100-034867FM-15+0007SBJP V0201201N00311060001CN0112001N1+03101+02301999999ADDAG11999GA1031+006009089GA2051+060009009MA1101021999999MW1001
0063827980999991992040319004-07100-034867FM-15+0007SBJP V0201201N00411030001CN0112001N1+02901+02401999999ADDAG11999GA1041+006009089GA2051+030009039MA1101021999999MW1001
0047827980999991992040400004-07100-034867FM-15+0007SBJP V0209991C00001220001CN0112001N1+02601+02401999999ADDAG11000GA1021+006009089MA1101391999999MW1001
0047827980999991992040401004-07100-034867FM-15+0007SBJP V0202401N00311220001CN0112001N1+02601+02401999999ADDAG11999GA1021+006009089MA1101391999999MW1001
0063827980999991992040402004-07100-034867FM-15+0007SBJP V0202501N00261030001CN0112001N1+02501+02401999999ADDAG11999GA1021+006009089GA2041+030009039MA1101391999999MW1001
0063827980999991992040403004-07100-034867FM-15+0007SBJP V0202601N00311030001CN0112001N1+02501+02401999999ADDAG11000GA1021+006009089GA2051+030009039MA1101291999999MW1001
0063827980999991992040404004-07100-034867FM-15+0007SBJP V0201201N00511027001CN0030001N1+02401+02401999999ADDAG11999GA1041+003009059GA2081+027009049MA1101291999999MW1601
0063827980999991992040405004-07100-034867FM-15+0007SBJP V0201901N00211003001CN9999999N1+02401+02401999999ADDAG11999GA1051+003009059GA2081+027009049MA1101191999999MW1601
0122827980999991992040412004-07100-034867SY-MT+0007SBJP V0209991C00001007501CN0040001N1+02481+02481999999ADDAG12005AY161999AY221999GA1041+003009059GF108991081091008001999999KA1999N+02341MA1101491999999MW1001REMSYN011333   20234
0047827980999991992040612004-07100-034867FM-15+0007SBJP V0201501N00311006001CN0112001N1+02901+02301999999ADDAG11000GA1051+006009089MA1101291999999MW1001
0099827980999991992040718004-07100-034867FM-12+0007SBJP V0200901N00311012001CN0040001N9+02941+02431999999ADDAA106000091AG14000GF105991051081008001001001KA1999N+02681REMSYN011333   20268EQDQ01  00003PRCP99
0078827980999991992040818004-07100-034867FM-12+0007SBJP V0201401N00261007501CN0100001N9+02941+02261999999ADDAA106000091AG14000GF105991051021008001001001REMSYN003333EQDQ01  00003PRCP99
0127827980999991992040912004-07100-034867FM-12+0007SBJP V0201401N00311012001CN0040001N9+02921+02361999999ADDAA124002091AG10005AY161999AY221999GF105991051081008001001001KA1999N+02581MW1001REMSYN017333   20258 60024EQDQ01  00203PRCP99
0099827980999991992041018004-07100-034867FM-12+0007SBJP V0201401N00261007501CN0040001N9+02741+02401999999ADDAA106000091AG14000GF106991061091008001001001KA1999M+03041REMSYN011333   10304EQDQ01  00003PRCP99
0078827980999991992041118004-07100-034867FM-12+0007SBJP V0201401N00311012001CN0040001N9+02921+02311999999ADDAA106000091AG14000GF106991061081008001001001REMSYN003333EQDQ01  00003PRCP99
0078827980999991992041218004-07100-034867FM-12+0007SBJP V0201401N00511007501CN0100001N9+02921+02191999999ADDAA106000091AG14000GF105991051021008001001001REMSYN003333EQDQ01  00003PRCP99
0099827980999991992041312004-07100-034867FM-12+0007SBJP V0201401N00411007501CN0100001N9+02901+02251999999ADDAA106000091AG14000GF106991061021008001001001KA1999N+02681REMSYN011333   20268EQDQ01  00003PRCP99
0047827980999991992041316004-07100-034867FM-15+0007SBJP V0201601N00721006001CN0112001N1+03001+02201999999ADDAG12999GA1061+006009089MA1101021999999MW1001
0047827980999991992041317004-07100-034867FM-15+0007SBJP V0201801N00511006001CN0112001N1+03001+02201999999ADDAG12999GA1061+006009089MA1101021999999MW1001
0127827980999991992041400004-07100-034867FM-12+0007SBJP V0202701N00151007501CN0040001N9+02421+02281999999ADDAA106040091AG10005AY161999AY221999GF108991081091008001001001KA1999M+03101MW1001REMSYN017333   10310 60401EQDQ01  04003PRCP99
0079827980999991992041410004-07100-034867FM-15+0007SBJP V0201801N00311030001CN0112001N1+02701+02301999999ADDAG11999GA1041+006009089GA2041+006009089GA3051+030009039MA1101081999999MW1001
0047827980999991992041411004-07100-034867FM-15+0007SBJP V0201801N00311006001CN0112001N1+02801+02301999999ADDAG11999GA1071+006009089MA1101191999999MW1001
0158827980999991992041412004-07100-034867SY-MT+0007SBJP V0201401N00411006001CN0100001N1+02921+02341999999ADDAA124045091AG10005AY161999AY221999GA1071+006009089GF106991061041008001001001KA1999N+02341MA1101191999999MW1001REMSYN017333   20234 60454EQDQ01  04503PRCP99
0047827980999991992041414004-07100-034867FM-15+0007SBJP V0201601N00411006001CN0112001N1+03001+02201999999ADDAG11999GA1071+006009089MA1101191999999MW1001
0063827980999991992041416004-07100-034867FM-15+0007SBJP V0201501N00511030001CN0112001N1+03001+02301999999ADDAG11999GA1041+006009089GA2071+030009039MA1101021999999MW1001
0147827980999991992041418004-07100-034867SY-MT+0007SBJP V0201401N00511030001CN0100001N1+02901+02341999999ADDAA106000091AG10000GA1041+006009089GA2071+030009039GF107991071041008001999001MA1101021999999MW1001REMSYN003333EQDQ01    003SCOMCGQ02  00003PRCP99
0063827980999991992041419004-07100-034867FM-15+0007SBJP V0201801N00511030001CN0112001N1+03001+02301999999ADDAG11999GA1041+006009089GA2071+030009039MA1101021999999MW1001
0099827980999991992041500004-07100-034867FM-12+0007SBJP V0201401N00361007501CN0040001N9+02701+02431999999ADDAA106000091AG14000GF108991081091008001001001KA1999M+03041REMSYN011333   10304EQDQ01  00003PRCP99
0063827980999991992041504004-07100-034867FM-15+0007SBJP V0209991C00001006001CN0112001N1+02401+02301999999ADDAG12999GA1031+004509059GA2041+006009089MA1101081999999MW1211
0047827980999991992041507004-07100-034867FM-15+0007SBJP V0209991C00001220001CN0112001N1+02301+02201999999ADDAG12999GA1041+006009089MA1101021999999MW1001
0047827980999991992041511004-07100-034867FM-15+0007SBJP V0201801N00261220001CN9999999N1+02601+02301999999ADDAG12999GA1031+006009089MA1101291999999MW1991
0158827980999991992041512004-07100-034867SY-MT+0007SBJP V0201401N00571006001CN0100001N1+02901+02341999999ADDAA124002091AG10005AY161999AY221999GA1051+006009089GF106991061041008001001001KA1999N+02581MA1101291999999MW1001REMSYN017333   20258 60024EQDQ01  00203PRCP99
0047827980999991992041513004-07100-034867FM-15+0007SBJP V0201601N00511006001CN0112001N1+02801+02301999999ADDAG11999GA1061+006009089MA1101291999999MW1001
0047827980999991992041516004-07100-034867FM-15+0007SBJP V0201801N00411006001CN0112001N1+03001+02301999999ADDAG11999GA1061+006009089MA1101081999999MW1001
0109827980999991992041518004-07100-034867SY-MT+0007SBJP V0201401N00511007501CN0100001N1+02931+02221999999ADDAA106000091AG14000GA1041+006009089GF105991051021008001001001MA1101021999999REMSYN003333EQDQ01  00003PRCP99
0047827980999991992041519004-07100-034867FM-15+0007SBJP V0201801N00411220001CN0112001N1+02901+02301999999ADDAG11999GA1041+006009089MA1101081999999MW1001
0142827980999991992041600004-07100-034867FM-12+0007SBJP V0201401N00311220001CN0020001N9+02721+02221999999ADDAA106000391AG10005AY161999AY221999GF104991041021008001001001KA1999M+03001MA1999999999999MW1001REMSYN017 333 10300 69931?EQDQ01  00033PRCP99
0047827980999991992041609004-07100-034867FM-15+0007SBJP V0209991C00001220001CN0112001N1+02301+02201999999ADDAG12000GA1011+006009089MA1101191999999MW1001
0095827980999991992041618004-07100-034867FM-12+0007SBJP V0201401N00311220001CN0100001N9+02901+02251999999ADDAA106000091AG14000GF103991031021008001001001MA1999999999999REMSYN005 333?EQDQ01  00003PRCP99
0099827980999991992041712004-07100-034867FM-12+0007SBJP V0201401N00311012001CN0040001N9+02901+02271999999ADDAA106000091AG14000GF105991051081008001001001KA1999N+02321REMSYN011333   20232EQDQ01  00003PRCP99
0078827980999991992041718004-07100-034867FM-12+0007SBJP V0201401N00311220001CN0100001N9+02921+02241999999ADDAA106000091AG14000GF104991041021008001001001REMSYN003333EQDQ01  00003PRCP99
