0156829940999991992010212004-09667-035700FM-12+008999999V0201401N00671045001CN0500001N9+02871+02301101391ADDAA106000091AG14000AY101999AY221999GF106991031031008001041001KA1999N+02101MA1999999100381MD1999999+0041MW1031REMSYN017333   20210 58004EQDQ01  00003PRCP99
0137829940999991992010218004-09667-035700FM-12+008999999V0200901N00461007501CN0500001N9+03001+02301101261ADDAA106000091AG10000AY101999AY221999GF105991051031008001001001MA1999999100261MD1999999+0051MW1031REMSYN011333   58005EQDQ01  00003PRCP99
0156829940999991992010312004-09667-035700FM-12+008999999V0200901N00571007501CN0500001N9+02841+02101101461ADDAA106000091AG14000AY101999AY221999GF105991051031008001001001KA1999N+02141MA1999999100451MD1999999+0071MW1031REMSYN017333   20214 58007EQDQ01  00003PRCP99
0137829940999991992010318004-09667-035700FM-12+008999999V0200501N00411220001CN0500001N9+02961+02401101251ADDAA106000091AG14000AY101999AY201999GF103991031011012501001001MA1999999100241MD1999999-0021MW1011REMSYN011333   59002EQDQ01  00003PRCP99
0156829940999991992010400004-09667-035700FM-12+008999999V0200501N00261220001CN9999999N9+02501+02201101481ADDAA106000091AG14000AY101999AY221999GF104991041021008001001001KA1999M+03101MA1999999100451MD1999999+0101MW1031REMSYN017333   10310 58010EQDQ01  00003PRCP99
0156829940999991992010412004-09667-035700FM-12+008999999V0200901N00511007501CN0500001N9+02831+02101101451ADDAA106000091AG14000AY101999AY221999GF105991051021008001001001KA1999N+02131MA1999999100441MD1999999-0011MW1031REMSYN017333   20213 59001EQDQ01  00003PRCP99
0156829940999991992010600004-09667-035700FM-12+008999999V0200501N00151015001CN9999999N9+02481+02001101311ADDAA106000091AG14000AY101999AY221999GF105991051031017501001001KA1999M+03101MA1999999100281MD1999999-0081MW1031REMSYN017333   10310 59008EQDQ01  00003PRCP99
0156829940999991992010612004-09667-035700FM-12+008999999V0200501N00361220001CN0500001N9+02821+02101101381ADDAA106000091AG10000AY101999AY221999GF104991041021008001001001KA1999N+02141MA1999999100371MD1999999+0021MW1031REMSYN017333   20214 58002EQDQ01  00003PRCP99
0156829940999991992010700004-09667-035700FM-12+008999999V0200901N00361007501CN9999999N9+02401+02001101421ADDAA106000091AG10000AY101999AY221999GF105991051031008001001001KA1999M+03101MA1999999100191MD1999999-0091MW1031REMSYN017333   10310 59009EQDQ01  00003PRCP99
0156829940999991992010712004-09667-035700FM-12+008999999V0200501N00411007501CN0500001N9+02801+02101101281ADDAA106000091AG14000AY101999AY221999GF105991051031008001001001KA1999N+02121MA1999999100271MD1999999-0101MW1031REMSYN017333   20212 59010EQDQ01  00003PRCP99
0137829940999991992010718004-09667-035700FM-12+008999999V0200901N00571007501CN0500001N9+03001+02301101131ADDAA106000091AG10000AY101999AY221999GF105991051031008001001001MA1999999100131MD1999999+0081MW1031REMSYN011333   58008EQDQ01  00003PRCP99
0156829940999991992010800004-09667-035700FM-12+008999999V0200501N00211220001CN9999999N9+02431+02001101321ADDAA106000091AG14000AY101999AY221999GF104991041021008001001001KA1999M+03201MA1999999100291MD1999999+0101MW1031REMSYN017333   10320 58010EQDQ01  00003PRCP99
0137829940999991992010818004-09667-035700FM-12+008999999V0200901N00931220001CN0500001N9+03081+02101100931ADDAA106000091AG14000AY101999AY201999GF102991021011008001001001MA1999999099931MD1999999-0101MW1011REMSYN011333   59010EQDQ01  00003PRCP99
0156829940999991992010912004-09667-035700FM-12+008999999V0201401N00311012001CN0500001N9+02981+02001101401ADDAA106000091AG14000AY101999AY201999GF105991051021012501001001KA1999N+02121MA1999999100391MD1999999+0231MW1021REMSYN017333   20212 58023EQDQ01  00003PRCP99
0137829940999991992010918004-09667-035700FM-12+008999999V0200901N00871220001CN0500001N9+03061+01901101321ADDAA106000091AG10000AY101999AY201999GF103991031011017501001001MA1999999100321MD1999999+0391MW1011REMSYN011333   58039EQDQ01  00003PRCP99
0156829940999991992011000004-09667-035700FM-12+008999999V0201401N00461220001CN9999999N9+02501+02201101351ADDAA106000091AG10000AY101999AY201999GF103991031001012501041001KA1999M+03241MA1999999100321MD1999999+0131MW1011REMSYN017333   10324 58013EQDQ01  00003PRCP99
0156829940999991992011012004-09667-035700FM-12+008999999V0201401N00511045001CN0500001N9+02761+02001101271ADDAA106000091AG10000AY111999AY211999GF106991021021017501041001KA1999N+02081MA1999999100261MD1999999-0131MW1031REMSYN017333   20208 59013EQDQ01  00003PRCP99
0137829940999991992011018004-09667-035700FM-12+008999999V0201401N00871045001CN0500001N9+02881+01801101231ADDAA106000091AG14000AY111999AY211999GF105991021021012501061001MA1999999100221MD1999999-0101MW1021REMSYN011333   59010EQDQ01  00003PRCP99
0156829940999991992011100004-09667-035700FM-12+008999999V0201401N00361045001CN9999999N9+02461+02101101351ADDAA106000091AG14000AY111999AY211999GF106991021031012501041001KA1999M+03061MA1999999100321MD1999999+0001MW1021REMSYN017333   10306 58000EQDQ01  00003PRCP99
0156829940999991992011112004-09667-035700FM-12+008999999V0201401N00621015001CN0500001N9+02801+02001101351ADDAA106000091AG14000AY111999AY211999GF105991051021017501001001KA1999N+02041MA1999999100301MD1999999+0041MW1011REMSYN017333   20204 58004EQDQ01  00003PRCP99
0154829940999991992011212004-09667-035700FM-12+008999999V0201401N00311045001CN0200001N9+02721+02201101381ADDAA124000291AA299000391AG14000AY111999AY221999GF107991021031012501041001KA1999N+02021MA1999999100371MD1999999+0071MW1031REMSYN023333   20202 58007 69924
0156829940999991992011312004-09667-035700FM-12+008999999V0200901N00411015001CN0500001N9+02921+02001101351ADDAA106000091AG10000AY111999AY211999GF105991051021017501001001KA1999N+02001MA1999999100341MD1999999+0001MW1021REMSYN017333   20200 58000EQDQ01  00003PRCP99
0137829940999991992011318004-09667-035700FM-12+008999999V0201401N00511015001CN0500001N9+02981+01801101221ADDAA106000091AG14000AY101999AY211999GF105991051011017501001001MA1999999100211MD1999999-0031MW1021REMSYN011333   59003EQDQ01  00003PRCP99
0156829940999991992011400004-09667-035700FM-12+008999999V0200901N00311007501CN9999999N9+02411+02001101321ADDAA106000091AG14000AY101999AY221999GF105991051031008001001001KA1999M+03181MA1999999100291MD1999999-0051MW1031REMSYN017333   10318 59005EQDQ01  00003PRCP99
0137829940999991992011418004-09667-035700FM-12+008999999V0200501N00671220001CN0500001N9+02981+01801100181ADDAA106000091AG14000AY101999AY201999GF103991031011008001001001MA1999999100181MD1999999-0031MW1011REMSYN011333   59003EQDQ01  00003PRCP99
0156829940999991992011512004-09667-035700FM-12+008999999V0201401N00511045001CN0500001N9+02821+02101101381ADDAA106000091AG14000AY101999AY221999GF106991031021008001041001KA1999N+02101MA1999999100371MD1999999+0041MW1031REMSYN017333   20210 58004EQDQ01  00003PRCP99
0137829940999991992011518004-09667-035700FM-12+008999999V0200901N00571045001CN0200001N9+02881+02201101091ADDAA106000091AG14000AY101999AY221999GF106991031041017501041001MA1999999100081MD1999999-0101MW1031REMSYN011333   59010EQDQ01  00003PRCP99
0156829940999991992011600004-09667-035700FM-12+008999999V0200901N00311045001CN9999999N9+02401+02101101341ADDAA106000091AG10000AY101999AY221999GF106991031031008001041001KA1999M+03301MA1999999100311MD1999999-0041MW1031REMSYN017333   10330 59004EQDQ01  00003PRCP99
0156829940999991992011612004-09667-035700FM-12+008999999V0200901N00511045001CN0200001N9+02841+02001101251ADDAA106000091AG10000AY101999AY221999GF106991021031008001041001KA1999N+02181MA1999999100241MD1999999-0131MW1031REMSYN017333   20218 59013EQDQ01  00003PRCP99
0156829940999991992011700004-09667-035700FM-12+008999999V0209991C00001220001CN9999999N9+02401+02101101301ADDAA106000091AG10000AY101999AY201999GF103991031011012501001001KA1999M+03101MA1999999100271MD1999999+0041MW1011REMSYN017333   10310 58004EQDQ01  00003PRCP99
0156829940999991992011712004-09667-035700FM-12+008999999V0201401N00511045001CN0500001N9+02861+02001101291ADDAA106000091AG14000AY111999AY211999GF106991021021012501041001KA1999N+02021MA1999999100281MD1999999+0041MW1021REMSYN017333   20202 58004EQDQ01  00003PRCP99
0137829940999991992011718004-09667-035700FM-12+008999999V0201401N00101220001CN0500001N9+02941+01801101321ADDAA106000091AG10000AY101999AY201999GF104991041011012501001001MA1999999100311MD1999999+0251MW1011REMSYN011333   58025EQDQ01  00003PRCP99
0156829940999991992011800004-09667-035700FM-12+008999999V0200901N00211220001CN9999999N9+02441+02101101491ADDAA106000091AG10000AY101999AY201999GF103991031021012501001001KA1999M+03221MA1999999100461MD1999999+0191MW1031REMSYN017333   10322 58019EQDQ01  00003PRCP99
0137829940999991992011818004-09667-035700FM-12+008999999V0201401N00511220001CN0500001N9+02961+02001101331ADDAA106000091AG10000AY101999AY201999GF104991041011012501001001MA1999999100331MD1999999+0021MW1021REMSYN011333   58002EQDQ01  00003PRCP99
0156829940999991992011900004-09667-035700FM-12+008999999V0201401N00151045001CN9999999N9+02401+02101101451ADDAA106000091AG10000AY101999AY201999GF106991021021008001061001KA1999M+03101MA1999999100421MD1999999-0041MW1031REMSYN017333   10310 59004EQDQ01  00003PRCP99
0162829940999991992011912004-09667-035700FM-12+008999999V0200901N00311045001CN0500001N9+02621+02101101361ADDAA124001091AG19019AY191999AY211999GF106991021031012501041001KA1999N+02001MA1999999100351MD1999999+0071MW1031REMSYN023333   20200 58007 60014EQDQ01  00103PRCP99
0137829940999991992011918004-09667-035700FM-12+008999999V0201401N00511220001CN0500001N9+02941+01801101381ADDAA106000091AG10000AY101999AY201999GF104991041011017501001001MA1999999100371MD1999999+0041MW1021REMSYN011333   58004EQDQ01  00003PRCP99
0156829940999991992012000004-09667-035700FM-12+008999999V0200501N00311015001CN9999999N9+02441+02101101401ADDAA106000091AG14000AY111999AY211999GF105991051021017501001001KA1999M+03141MA1999999100371MD1999999-0051MW1021REMSYN017333   10314 59005EQDQ01  00003PRCP99
0156829940999991992012012004-09667-035700FM-12+008999999V0201401N00311045001CN0100001N9+02681-00211101331ADDAA106000091AG10000AY101999AY221999GF107991031031008001041001KA1999N+02201MA1999999100311MD1999999-0041MW1031REMSYN017333   20220 59004EQDQ01  00003PRCP99
0156829940999991992012100004-09667-035700FM-12+008999999V0200901N00361007501CN9999999N9+02601+02301101291ADDAA106000091AG14000AY101999AY221999GF106991061031008001001001KA1999M+02801MA1999999100271MD1999999-0101MW1031REMSYN017333   10280 59010EQDQ01  00003PRCP99
0156829940999991992012112004-09667-035700FM-12+008999999V0200501N00411007501CN0500001N9+02761+02201101361ADDAA106000091AG14000AY101999AY221999GF105991051031008001001001KA1999N+02251MA1999999100351MD1999999+0041MW1031REMSYN017333   20225 58004EQDQ01  00003PRCP99
0137829940999991992012118004-09667-035700FM-12+008999999V0200901N00511220001CN0500001N9+02981+02401100951ADDAA106000091AG14000AY101999AY201999GF103991031021008001001001MA1999999099951MD1999999-0301MW1011REMSYN011333   59030EQDQ01  00003PRCP99
0156829940999991992012200004-09667-035700FM-12+008999999V0200901N00361007501CN9999999N9+02501+02101101231ADDAA106000091AG10000AY101999AY221999GF105991051021008001001001KA1999M+03061MA1999999100211MD1999999-0061MW1031REMSYN017333   10306 59006EQDQ01  00003PRCP99
0156829940999991992012212004-09667-035700FM-12+008999999V0200901N00411007501CN0500001N9+02771+02201101291ADDAA106000091AG10000AY101999AY221999GF105991051031008001001001KA1999N+02121MA1999999100281MD1999999-0071MW1031REMSYN017333   20212 59007EQDQ01  00003PRCP99
0137829940999991992012218004-09667-035700FM-12+008999999V0200901N00621045001CN0200001N9+02841+02201101181ADDAA106000091AG10000AY101999AY221999GF106991031031008001041001MA1999999100171MD1999999+0231MW1031REMSYN011333   58023EQDQ01  00003PRCP99
0162829940999991992012312004-09667-035700FM-12+008999999V0201401N00311045001CN0100001N9+02461+02201101311ADDAA124015091AG19027AY191999AY211999GF108991041071012501021999KA1999N+01961MA1999999100291MD1999999+0011MW1611REMSYN023333   20196 58001 60154EQDQ01  01503PRCP99
0143829940999991992012318004-09667-035700FM-12+008999999V0201401N00411045001CN0200001N9+02861+02301101311ADDAA106001091AG10019AY191999AY211999GF107991021031012501041001MA1999999100301MD1999999+0131MW1031REMSYN017333   58013 60011EQDQ01  00103PRCP99
0162829940999991992012400004-09667-035700FM-12+008999999V0200501N00151045001CN9999999N9+02281+02201101421ADDAA106002091AG19019AY191999AY211999GF107991041031012501061001KA1999M+02941MA1999999100391MD1999999+0101MW1031REMSYN023333   10294 58010 60021EQDQ01  00203PRCP99
0162829940999991992012412004-09667-035700FM-12+008999999V0200901N00151045001CN0100001N9+02631+02201101381ADDAA124008091AG19019AY191999AY211999GF108991041071008001041999KA1999N+01941MA1999999100371MD1999999+0081MW1031REMSYN023333   20194 58008 60084EQDQ01  00803PRCP99
0143829940999991992012418004-09667-035700FM-12+008999999V0201401N00151045001CN0200001N9+02771+02201101321ADDAA106002091AG10019AY191999AY211999GF107991041031012501061001MA1999999100321MD1999999+0021MW1031REMSYN017333   58002 60021EQDQ01  00203PRCP99
0162829940999991992012512004-09667-035700FM-12+008999999V0201401N00151045001CN0100001N9+02441+02001101361ADDAA124004091AG10019AY191999AY211999GF107991041031012501041001KA1999N+01921MA1999999100341MD1999999-0051MW1031REMSYN023333   20192 59005 60044EQDQ01  00403PRCP99
0143829940999991992012518004-09667-035700FM-12+008999999V0201401N00311045001CN0100001N9+02641+02101101351ADDAA106001091AG19019AY191999AY211999GF107991041031012501061001MA1999999100341MD1999999+0021MW1031REMSYN017333   58002 60011EQDQ01  00103PRCP99
0156829940999991992012600004-09667-035700FM-12+008999999V0200901N00151045001CN9999999N9+02351+02101101341ADDAA106000091AG14000AY111999AY211999GF106991021031012501041001KA1999M+02801MA1999999100311MD1999999-0071MW1021REMSYN017333   10280 59007EQDQ01  00003PRCP99
0162829940999991992012612004-09667-035700FM-12+008999999V0201401N00311045001CN0100001N9+02401+02001101391ADDAA124015091AG19019AY191999AY211999GF108991041071012501041999KA1999N+01901MA1999999100361MD1999999+0021MW1031REMSYN023333   20190 58002 60154EQDQ01  01503PRCP99
0143829940999991992012618004-09667-035700FM-12+008999999V0201401N00411045001CN0500001N9+02641+02101101321ADDAA106002091AG19019AY191999AY211999GF106991021031012501041001MA1999999100311MD1999999-0031MW1031REMSYN017333   59003 60021EQDQ01  00203PRCP99
0162829940999991992012700004-09667-035700FM-12+008999999V0200501N00051045001CN9999999N9+02121+02001101521ADDAA106001091AG19019AY191999AY211999GF107991021031008001061001KA1999M+02781MA1999999100491MD1999999+0181MW1031REMSYN023333   10278 58018 60011EQDQ01  00103PRCP99
0162829940999991992012712004-09667-035700FM-12+008999999V0201401N00151045001CN0100001N9+02781+02201101431ADDAA124010091AG19019AY191999AY211999GF108991021031012501041999KA1999N+01921MA1999999100411MD1999999+0051MW1031REMSYN023333   20192 58005 60104EQDQ01  01003PRCP99
0143829940999991992012718004-09667-035700FM-12+008999999V0201401N00311045001CN0100001N9+02721+02201101461ADDAA106002091AG10019AY191999AY211999GF108991021071012501041999MA1999999100441MD1999999+0131MW1031REMSYN017333   58013 60021EQDQ01  00203PRCP99
0156829940999991992012800004-09667-035700FM-12+008999999V0200901N00151045001CN9999999N9+02261+02101101391ADDAA106000091AG14000AY111999AY211999GF106991021031012501041001KA1999M+02781MA1999999100361MD1999999-0131MW1031REMSYN017333   10278 59013EQDQ01  00003PRCP99
0162829940999991992012812004-09667-035700FM-12+008999999V0201401N00311045001CN0500001N9+02701+02101101361ADDAA124002091AG13000AY121999AY221999GF106991021031012501061001KA1999N+01941MA1999999100361MD1999999-0051MW1031REMSYN023333   20194 59005 60024EQDQ01  00203PRCP99
0137829940999991992012818004-09667-035700FM-12+008999999V0201401N00361045001CN0500001N9+02881+02201101351ADDAA106000091AG10000AY111999AY211999GF106991021011012501041001MA1999999100351MD1999999-0091MW1031REMSYN011333   59009EQDQ01  00003PRCP99
0162829940999991992012900004-09667-035700FM-12+008999999V0200501N00051045001CN9999999N9+02221+02201101371ADDAA106026091AG19027AY191999AY211999GF108991041071008001021999KA1999M+02921MA1999999100341MD1999999-0021MW1611REMSYN023333   10292 59002 60261EQDQ01  02603PRCP99
0162829940999991992012912004-09667-035700FM-12+008999999V0201401N00151045001CN0100001N9+02481+02301101371ADDAA124029091AG10019AY191999AY211999GF108991041071012501041999KA1999N+01921MA1999999100351MD1999999-0011MW1031REMSYN023333   20192 59001 60294EQDQ01  02903PRCP99
0143829940999991992012918004-09667-035700FM-12+008999999V0201401N00361045001CN0200001N9+02601+02001101321ADDAA106001091AG10019AY191999AY211999GF107991021041012501041001MA1999999100321MD1999999-0031MW1031REMSYN017333   59003 60011EQDQ01  00103PRCP99
0162829940999991992013000004-09667-035700FM-12+008999999V0200501N00051045001CN9999999N9+02241+02201101361ADDAA106001091AG19019AY191999AY211999GF108991041031008001041999KA1999M+02801MA1999999100331MD1999999-0031MW1031REMSYN023333   10280 59003 69981EQDQ01  00103PRCP99
0162829940999991992013012004-09667-035700FM-12+008999999V0200901N00311045001CN0100001N9+02501+02201101401ADDAA124004091AG10019AY191999AY211999GF108991021031012501041999KA1999N+01961MA1999999100371MD1999999+0021MW1031REMSYN023333   20196 58002 60044EQDQ01  00403PRCP99
0156829940999991992020100004-09667-035700FM-12+008999999V0200501N00101045001CN9999999N9+02401+02101101321ADDAA106000091AG14000AY111999AY211999GF106991021011012501041001KA1999M+02861MA1999999100291MD1999999+0011MW1031REMSYN017333   10286 58001EQDQ01  00003PRCP99
0137829940999991992020118004-09667-035700FM-12+008999999V0201401N00311045001CN0100001N9+02841+02301101381ADDAA106000091AG14000AY121999AY221999GF108991041031012501041999MA1999999100371MD1999999-0051MW1031REMSYN011333   59005EQDQ01  00003PRCP99
0156829940999991992020200004-09667-035700FM-12+008999999V0200501N00101045001CN9999999N9+02341+02201101351ADDAA106000091AG19000AY121999AY221999GF106991021031008001041001KA1999M+02941MA1999999100321MD1999999+0031MW1031REMSYN017333   10294 58003EQDQ01  00003PRCP99
0137829940999991992020218004-09667-035700FM-12+008999999V0201401N00411045001CN0500001N9+02881+02001101411ADDAA106000091AG14000AY111999AY211999GF106991021021012501041001MA1999999100411MD1999999+0041MW1021REMSYN011333   58004EQDQ01  00003PRCP99
0156829940999991992020300004-09667-035700FM-12+008999999V0200501N00101045001CN9999999N9+02421+02101101391ADDAA106000091AG19000AY121999AY221999GF106991021021008001061001KA1999M+02981MA1999999100361MD1999999+0041MW1031REMSYN017333   10298 58004EQDQ01  00003PRCP99
0162829940999991992020312004-09667-035700FM-12+008999999V0200901N00101045001CN0200001N9+02661+02101101461ADDAA124002091AG10018AY191999AY211999GF107991021031012501041001KA1999N+01901MA1999999100441MD1999999+0041MW1031REMSYN023333   20190 58004 60024EQDQ01  00203PRCP99
0156829940999991992020400004-09667-035700FM-12+008999999V0201401N00151045001CN9999999N9+02461+02101101501ADDAA106000091AG10000AY121999AY221999GF106991021021012501061001KA1999M+03121MA1999999100471MD1999999+0111MW1031REMSYN017333   10312 58011EQDQ01  00003PRCP99
0162829940999991992020412004-09667-035700FM-12+008999999V0201401N00411045001CN0100001N9+02761+02201101351ADDAA124002091AG19018AY191999AY211999GF107991021021012501061001KA1999N+02001MA1999999100331MD1999999-0111MW1031REMSYN023333   20200 59011 60024EQDQ01  00203PRCP99
0137829940999991992020418004-09667-035700FM-12+008999999V0201401N00311045001CN0500001N9+02881+02001101351ADDAA106000091AG14000AY111999AY211999GF106991021021012501041001MA1999999100351MD1999999-0221MW1031REMSYN011333   59022EQDQ01  00003PRCP99
0156829940999991992020500004-09667-035700FM-12+008999999V0200501N00051045001CN9999999N9+02361+02101101421ADDAA106000091AG14000AY111999AY211999GF106991021021012501041001KA1999M+03061MA1999999100391MD1999999-0081MW1021REMSYN017333   10306 59008EQDQ01  00003PRCP99
0162829940999991992020512004-09667-035700FM-12+008999999V0201401N00101045001CN0500001N9+02841+02401101321ADDAA124002091AG19018AY191999AY211999GF106991041031012501041001KA1999N+02021MA1999999100321MD1999999-0011MW1031REMSYN023333   20202 59001 60024EQDQ01  00203PRCP99
0137829940999991992020518004-09667-035700FM-12+008999999V0201401N00311045001CN0500001N9+02901+02001101411ADDAA106000091AG19000AY121999AY221999GF106991021021012501041001MA1999999100401MD1999999+0051MW1031REMSYN011333   58005EQDQ01  00003PRCP99
0162829940999991992020612004-09667-035700FM-12+008999999V0201401N00311045001CN0500001N9+02661+02001101351ADDAA124003091AG10018AY191999AY211999GF106991021031012501041001KA1999N+02041MA1999999100341MD1999999+0021MW1031REMSYN023333   20204 58002 60034EQDQ01  00303PRCP99
0137829940999991992020618004-09667-035700FM-12+008999999V0201401N00571045001CN0500001N9+02921+02101101431ADDAA106000091AG14000AY111999AY211999GF106991021011012501061001MA1999999100421MD1999999+0021MW1031REMSYN011333   58002EQDQ01  00003PRCP99
0156829940999991992020700004-09667-035700FM-12+008999999V0200501N00151045001CN9999999N9+02481+02101101431ADDAA106000091AG14000AY111999AY211999GF106991021021012501041001KA1999M+03161MA1999999100401MD1999999+0071MW1031REMSYN017333   10316 58007EQDQ01  00003PRCP99
0156829940999991992020712004-09667-035700FM-12+008999999V0201401N00311045001CN0500001N9+02881+02101101371ADDAA106000091AG14000AY111999AY211999GF106991021021012501061001KA1999N+02061MA1999999100361MD1999999+0021MW1031REMSYN017333   20206 58002EQDQ01  00003PRCP99
0162829940999991992020800004-09667-035700FM-12+008999999V0200501N00151045001CN9999999N9+02401+02101101461ADDAA124002091AG19018AY191999AY211999GF106991021031012501061001KA1999M+03101MA1999999100431MD1999999+0011MW1031REMSYN023333   10310 58001 60024EQDQ01  00203PRCP99
0162829940999991992020812004-09667-035700FM-12+008999999V0201401N00511012001CN0500001N9+02831+02201101331ADDAA124002091AG13000AY121999AY221999GF105991051021012501001001KA1999N+02061MA1999999100311MD1999999-0041MW1031REMSYN023333   20206 59004 60024EQDQ01  00203PRCP99
0137829940999991992020818004-09667-035700FM-12+008999999V0200901N00311220001CN0500001N9+02861+02301101341ADDAA106000091AG14000AY101999AY211999GF104991041021012501001001MA1999999100331MD1999999-0071MW1031REMSYN011333   59007EQDQ01  00003PRCP99
0156829940999991992020900004-09667-035700FM-12+008999999V0200501N00101220001CN9999999N9+02421+02001101351ADDAA106000091AG10000AY101999AY211999GF104991041021012501001001KA1999M+03081MA1999999100321MD1999999-0111MW1031REMSYN017333   10308 59011EQDQ01  00003PRCP99
0156829940999991992020912004-09667-035700FM-12+008999999V0200901N00151220001CN0500001N9+02901+02001101271ADDAA106000091AG14000AY101999AY201999GF104991041021012501001001KA1999N+02081MA1999999100261MD1999999-0061MW1031REMSYN017333   20208 59006EQDQ01  00003PRCP99
0156829940999991992021000004-09667-035700FM-12+008999999V0200501N00151220001CN9999999N9+02321+02101101391ADDAA106000091AG10000AY101999AY211999GF104991041021012501001001KA1999M+03121MA1999999100361MD1999999+0041MW1021REMSYN017333   10312 58004EQDQ01  00003PRCP99
0156829940999991992021012004-09667-035700FM-12+008999999V0200501N00151045001CN0500001N9+02881+02201101331ADDAA106000091AG14000AY111999AY211999GF106991021021012501061001KA1999N+02081MA1999999100321MD1999999+0061MW1031REMSYN017333   20208 58006EQDQ01  00003PRCP99
0137829940999991992021018004-09667-035700FM-12+008999999V0201401N00461045001CN0200001N9+02931+02301101351ADDAA106000091AG14000AY121999AY221999GF107991041021012501061001MA1999999100341MD1999999+0031MW1031REMSYN011333   58003EQDQ01  00003PRCP99
0162829940999991992021100004-09667-035700FM-12+008999999V0200501N00101045001CN9999999N9+02261+02201101351ADDAA106018091AG19026AY191999AY211999GF108991041071012501021999KA1999M+03001MA1999999100321MD1999999-0041MW1611REMSYN023333   10300 59004 60181EQDQ01  01803PRCP99
0162829940999991992021112004-09667-035700FM-12+008999999V0201401N00101045001CN0100001N9+02521+02401101371ADDAA124028091AG10018AY191999AY211999GF108991041071012501021999KA1999N+01921MA1999999100351MD1999999+0031MW1031REMSYN023333   20192 58003 60284EQDQ01  02803PRCP99
0162829940999991992021200004-09667-035700FM-12+008999999V0200501N00051045001CN9999999N9+02341+02201101351ADDAA106001091AG19018AY191999AY211999GF107991041071012501041999KA1999M+02881MA1999999100321MD1999999+0001MW1031REMSYN023333   10288 58000 69981EQDQ01  00103PRCP99
0162829940999991992021212004-09667-035700FM-12+008999999V0201401N00311045001CN0500001N9+02701+02101101371ADDAA124001091AG10000AY111999AY211999GF106991021031012501041001KA1999N+02081MA1999999100351MD1999999+0001MW1021REMSYN023333   20208 58000 69984EQDQ01  00103PRCP99
0162829940999991992021300004-09667-035700FM-12+008999999V0200501N00101045001CN9999999N9+02301+02101101291ADDAA106002091AG19018AY191999AY211999GF108991041031012501041999KA1999M+02901MA1999999100261MD1999999-0061MW1031REMSYN023333   10290 59006 60021EQDQ01  00203PRCP99
0162829940999991992021312004-09667-035700FM-12+008999999V0201401N00261045001CN0200001N9+02761+02201101271ADDAA124004091AG10018AY191999AY211999GF107991021031012501041001KA1999N+02061MA1999999100261MD1999999-0091MW1031REMSYN023333   20206 59009 60044EQDQ01  00403PRCP99
0156829940999991992021400004-09667-035700FM-12+008999999V0200501N00051045001CN9999999N9+02451+02301101381ADDAA106000091AG10000AY101999AY211999GF106991021021008001061001KA1999M+03061MA1999999100351MD1999999+0091MW1021REMSYN017333   10306 58009EQDQ01  00003PRCP99
0156829940999991992021412004-09667-035700FM-12+008999999V0200901N00151045001CN0200001N9+02701+02201101281ADDAA106000091AG19000AY121999AY221999GF107991021041012501041001KA1999N+02061MA1999999100271MD1999999+0011MW1031REMSYN017333   20206 58001EQDQ01  00003PRCP99
0137829940999991992021418004-09667-035700FM-12+008999999V0201401N00311045001CN0100001N9+02801+02101101331ADDAA106000091AG14000AY121999AY221999GF107991041041012501041001MA1999999100321MD1999999+0011MW1031REMSYN011333   58001EQDQ01  00003PRCP99
0162829940999991992021500004-09667-035700FM-12+008999999V0200501N00051045001CN9999999N9+02421+02101101391ADDAA106001091AG10018AY191999AY211999GF106991021031012501061001KA1999M+02921MA1999999100361MD1999999+0011MW1031REMSYN023333   10292 58001 60011EQDQ01  00103PRCP99
0137829940999991992021618004-09667-035700FM-12+008999999V0201401N00311045001CN0500001N9+02871+02301101411ADDAA106000091AG10000AY121999AY221999GF106991021021012501041001MA1999999100401MD1999999+0081MW1031REMSYN011333   58008EQDQ01  00003PRCP99
0162829940999991992021712004-09667-035700FM-12+008999999V0201401N00411045001CN0500001N9+02761+02001101361ADDAA124016091AG10018AY191999AY211999GF106991021031012501061001KA1999N+01981MA1999999100351MD1999999+0021MW1031REMSYN023333   20198 58002 60164EQDQ01  01603PRCP99
0162829940999991992021900004-09667-035700FM-12+008999999V0200501N00051045001CN9999999N9+02251+02201101401ADDAA106002091AG10018AY191999AY211999GF108991041071012501021999KA1999M+02761MA1999999100361MD1999999-0131MW1031REMSYN023333   10276 59013 60021EQDQ01  00203PRCP99
0162829940999991992021912004-09667-035700FM-12+008999999V0201401N00101045001CN0100001N9+02561+02301101301ADDAA124030091AG10018AY191999AY261999GF108991041071012501041999KA1999N+01901MA1999999100271MD1999999-0121MW1031REMSYN023333   20190 59012 60304EQDQ01  03003PRCP99
0143829940999991992021918004-09667-035700FM-12+008999999V0201401N00101045001CN0100001N9+02641+02401101431ADDAA106008091AG10018AY191999AY211999GF108991041071012501041999MA1999999100411MD1999999+0011MW1031REMSYN017333   58001 60081EQDQ01  00803PRCP99
0162829940999991992022012004-09667-035700FM-12+008999999V0201401N00361045001CN0500001N9+02661+01901101351ADDAA124011091AG10018AY191999AY211999GF106991021021012501061001KA1999N+01961MA1999999100331MD1999999+0061MW1031REMSYN023333   20196 58006 60114EQDQ01  01103PRCP99
0137829940999991992022018004-09667-035700FM-12+008999999V0201401N00511045001CN0200001N9+02821+02101101361ADDAA106000091AG14000AY111999AY211999GF107991021031012501061001MA1999999100341MD1999999-0071MW1021REMSYN011333   59007EQDQ01  00003PRCP99
0156829940999991992022100004-09667-035700FM-12+008999999V0200501N00051045001CN9999999N9+02401+02301101361ADDAA106000091AG14000AY111999AY211999GF106991021021012501061001KA1999M+02981MA1999999100331MD1999999-0081MW1021REMSYN017333   10298 59008EQDQ01  00003PRCP99
0162829940999991992022112004-09667-035700FM-12+008999999V0201401N00151045001CN0100001N9+02551+02401101451ADDAA124037091AG10021AY191999AY211999GF108991041071012501021999KA1999N+01901MA1999999100431MD1999999+0101MW1211REMSYN023333   20190 58010 60374EQDQ01  03703PRCP99
0143829940999991992022118004-09667-035700FM-12+008999999V0201401N00261045001CN0100001N9+02481+02401101481ADDAA106008091AG10026AY191999AY211999GF108991041071012501021999MA1999999100461MD1999999+0121MW1611REMSYN017333   58012 60081EQDQ01  00803PRCP99
0162829940999991992022200004-09667-035700FM-12+008999999V0200501N00051045001CN9999999N9+02301+02201101381ADDAA106009091AG19018AY191999AY211999GF108991041071012501041999KA1999M+02661MA1999999100351MD1999999+0021MW1031REMSYN023333   10266 58002 60091EQDQ01  00903PRCP99
0162829940999991992022400004-09667-035700FM-12+008999999V0200501N00051045001CN9999999N9+02321+02001101411ADDAA106004091AG10018AY191999AY211999GF107991031071008001021001KA1999M+02731MA1999999100381MD1999999+0071MW1031REMSYN023333   10273 58007 60041EQDQ01  00403PRCP99
0162829940999991992022412004-09667-035700FM-12+008999999V0200901N00571045001CN0100001N9+02661+02301101401ADDAA124010091AG19018AY191999AY211999GF107991031031008001041001KA1999N+02001MA1999999100381MD1999999-0041MW1031REMSYN023333   20200 59004 60104EQDQ01  01003PRCP99
0137829940999991992022418004-09667-035700FM-12+008999999V0200901N00211045001CN0500001N9+02801+02501101261ADDAA106000091AG14000AY101999AY221999GF106991021021008001041001MA1999999100251MD1999999-0031MW1031REMSYN011333   59003EQDQ01  00003PRCP99
0156829940999991992022512004-09667-035700FM-12+008999999V0200501N00101007501CN0500001N9+02681+02301101351ADDAA106000091AG14000AY121999AY201999GF105991051021008001001001KA1999N+01901MA1999999100331MD1999999-0051MW1301REMSYN017333   20190 59005EQDQ01  00003PRCP99
0137829940999991992022518004-09667-035700FM-12+008999999V0200501N00151045001CN0200001N9+02841+02501101361ADDAA106000091AG14000AY101999AY221999GF106991021031012501021001MA1999999100251MD1999999+0001MW1031REMSYN011333   58000EQDQ01  00003PRCP99
0162829940999991992022600004-09667-035700FM-12+008999999V0200501N00101045001CN9999999N9+02381+02101101401ADDAA106003091AG10018AY191999AY211999GF107991031041008001041001KA1999M+02851MA1999999100371MD1999999+0031MW1031REMSYN023333   10285 58003 60031EQDQ01  00303PRCP99
0162829940999991992022612004-09667-035700FM-12+008999999V0200901N00151045001CN0200001N9+02671+02401101381ADDAA124005091AG10018AY191999AY211999GF107991031041008001041001KA1999N+01921MA1999999100361MD1999999+0031MW1031REMSYN023333   20192 58003 60054EQDQ01  00503PRCP99
0156829940999991992022712004-09667-035700FM-12+008999999V0200901N00361045001CN0500001N9+02701+02001101321ADDAA106000091AG10000AY111999AY211999GF105991021021012501061001KA1999N+02001MA1999999100301MD1999999-0061MW1031REMSYN017333   20200 59006EQDQ01  00003PRCP99
0137829940999991992022718004-09667-035700FM-12+008999999V0200901N00511012001CN0500001N9+02801+02201101491ADDAA106000091AG10000AY111999AY211999GF106991061021012501001001MA1999999100481MD1999999+0221MW1021REMSYN011333   58022EQDQ01  00003PRCP99
0137829940999991992022818004-09667-035700FM-12+008999999V0201401N00311045001CN0500001N9+02871+02001101251ADDAA106000091AG14000AY111999AY211999GF106991021021012501061001MA1999999100241MD1999999-0241MW1031REMSYN011333   59024EQDQ01  00003PRCP99
0156829940999991992022900004-09667-035700FM-12+008999999V0200501N00051220001CN9999999N9+02381+02201101371ADDAA106000091AG10000AY101999AY201999GF104991041011008001001001KA1999M+03001MA1999999100341MD1999999-0041MW1021REMSYN017333   10300 59004EQDQ01  00003PRCP99
0156829940999991992022912004-09667-035700FM-12+008999999V0200501N00101012001CN0500001N9+02721+02001101251ADDAA106000091AG14000AY101999AY211999GF105991051021012501001001KA1999N+02101MA1999999100241MD1999999-0041MW1031REMSYN017333   20210 59004EQDQ01  00003PRCP99
0137829940999991992022918004-09667-035700FM-12+008999999V0200901N00151220001CN0500001N9+02951+02301101291ADDAA106000091AG10000AY101999AY201999GF104991041011012501001001MA1999999100281MD1999999+0041MW1011REMSYN011333   58004EQDQ01  00003PRCP99
0156829940999991992030100004-09667-035700FM-12+008999999V0200501N00051220001CN9999999N9+02381+02201101421ADDAA106000091AG10000AY101999AY201999GF104991041001008001061001KA1999M+03081MA1999999100391MD1999999+0051MW1011REMSYN017333   10308 58005EQDQ01  00003PRCP99
0137829940999991992030118004-09667-035700FM-12+008999999V0200901N00101220001CN0500001N9+02921+01801101231ADDAA106000091AG10000AY101999AY211999GF104991041001017501061001MA1999999100221MD1999999-0061MW1031REMSYN011333   59006EQDQ01  00003PRCP99
0137829940999991992030218004-09667-035700FM-12+008999999V0200901N00511045001CN0500001N9+02931+02501101291ADDAA106000091AG14000AY101999AY221999GF106991021021012501041001MA1999999100281MD1999999+0061MW1031REMSYN011333   58006EQDQ01  00003PRCP99
0156829940999991992030512004-09667-035700FM-12+008999999V0201401N00361220001CN0500001N9+02701+02001101361ADDAA106000091AG14000AY101999AY201999GF104991041011012501001001KA1999N+02121MA1999999100351MD1999999+0051MW1021REMSYN017333   20212 58005EQDQ01  00003PRCP99
0122829940999991992030518004-09667-035700FM-12+008999999V0201801N00361220001CN0500001N9+02881+02201101351ADDAA106000091AG10000AY101999AY201999GF104991041021017501001001MD1999999+0051MW1021REMSYN011333   58005EQDQ01  00003PRCP99
0156829940999991992030600004-09667-035700FM-12+008999999V0200501N00101220001CN9999999N9+02441+02201101371ADDAA106000091AG10000AY101999AY201999GF104991041011008001001001KA1999M+03181MA1999999100341MD1999999-0131MW1031REMSYN017333   10318 59013EQDQ01  00003PRCP99
0156829940999991992030612004-09667-035700FM-12+008999999V0200901N00151220001CN0500001N9+02721+02001101331ADDAA106000091AG10000AY101999AY201999GF104991041011012501001001KA1999N+02141MA1999999100321MD1999999-0031MW1011REMSYN017333   20214 59003EQDQ01  00003PRCP99
0137829940999991992030618004-09667-035700FM-12+008999999V0200901N00311220001CN0500001N9+02941+01801101331ADDAA106000091AG10000AY101999AY201999GF104991041001017501061001MA1999999100321MD1999999-0021MW1021REMSYN011333   59002EQDQ01  00003PRCP99
0156829940999991992030700004-09667-035700FM-12+008999999V0200901N00101220001CN9999999N9+02481+02001101351ADDAA106000091AG10000AY101999AY201999GF104991041011017501001001KA1999M+03201MA1999999100321MD1999999-0021MW1021REMSYN017333   10320 59002EQDQ01  00003PRCP99
0162829940999991992030712004-09667-035700FM-12+008999999V0201401N00411045001CN0200001N9+02701+02101101401ADDAA124008091AG10017AY191999AY211999GF107991041031012501061001KA1999N+02021MA1999999100381MD1999999+0061MW1031REMSYN023333   20202 58006 60084EQDQ01  00803PRCP99
0107829940999991992030718004-09667-035700FM-12+008999999V0201401N00311045001CN0200001N9+02781+02301101351ADDAG12017AY191999AY211999GF107991041071012501041001MA1999999100341MD1999999+0021MW1031REMSYN011333   58002
0162829940999991992030800004-09667-035700FM-12+008999999V0200901N00051045001CN9999999N9+02401+02201101421ADDAA106002091AG19017AY191999AY211999GF106991041071012501041001KA1999M+02881MA1999999100391MD1999999+0071MW1031REMSYN023333   10288 58007 60021EQDQ01  00203PRCP99
0162829940999991992030812004-09667-035700FM-12+008999999V0201401N00211045001CN0100001N9+02621+02401101441ADDAA124022091AG19024AY191999AY211999GF108991041071008001021999KA1999N+01971MA1999999100421MD1999999+0041MW1611REMSYN023333   20197 58004 60224EQDQ01  02203PRCP99
0143829940999991992030818004-09667-035700FM-12+008999999V0201401N00151045001CN0100001N9+02681+02101101331ADDAA106004091AG19017AY191999AY211999GF108991041071012501021999MA1999999100311MD1999999-0031MW1031REMSYN017333   59003 60041EQDQ01  00403PRCP99
0162829940999991992030900004-09667-035700FM-12+008999999V0200501N00051045001CN9999999N9+02361+02201101411ADDAA106002091AG19017AY191999AY211999GF108991041071012501021999KA1999M+02821MA1999999100381MD1999999-0041MW1031REMSYN023333   10282 59004 60021EQDQ01  00203PRCP99
0137829940999991992030918004-09667-035700FM-12+008999999V0200501N00461045001CN0500001N9+02801+02401101081ADDAA106000091AG14000AY101999AY221999GF106991021021008001041001MA1999999100071MD1999999-0241MW1031REMSYN011333   59024EQDQ01  00003PRCP99
0156829940999991992031012004-09667-035700FM-12+008999999V0200901N00411045001CN0500001N9+02741+02301101291ADDAA106000091AG14000AY101999AY221999GF107991021021008001041001KA1999N+02101MA1999999100281MD1999999-0081MW1031REMSYN017333   20210 59008EQDQ01  00003PRCP99
0137829940999991992031018004-09667-035700FM-12+008999999V0200901N00361045001CN0500001N9+02881+02501101101ADDAA106000091AG10000AY101999AY221999GF106991021021008001041001MA1999999100091MD1999999+0011MW1031REMSYN011333   58001EQDQ01  00003PRCP99
0143829940999991992031118004-09667-035700FM-12+008999999V0201401N00261045001CN0200001N9+02731+02301101101ADDAA106010091AG10017AY191999AY211999GF107991031031008001041001MA1999999100091MD1999999+0001MW1031REMSYN017333   58000 60101EQDQ01  01003PRCP99
0162829940999991992031212004-09667-035700FM-12+008999999V0201401N00311045001CN0200001N9+02701+02401101221ADDAA124012091AG19017AY191999AY211999GF107991041071012501041001KA1999N+01961MA1999999100211MD1999999-0111MW1031REMSYN023333   20196 59011 60124EQDQ01  01203PRCP99
0143829940999991992031218004-09667-035700FM-12+008999999V0201401N00311045001CN0100001N9+02701+02501101321ADDAA106008091AG10017AY191999AY261999GF107991041071012501021001MA1999999100301MD1999999+0221MW1031REMSYN017333   58022 60081EQDQ01  00803PRCP99
0162829940999991992031300004-09667-035700FM-12+008999999V0200501N00101045001CN9999999N9+02301+02201101351ADDAA106004091AG10017AY191999AY211999GF108991041071008001021999KA1999M+02881MA1999999100321MD1999999-0041MW1031REMSYN023333   10288 59004 60041EQDQ01  00403PRCP99
0162829940999991992031312004-09667-035700FM-12+008999999V0200901N00671045001CN0500001N9+02761+02301101311ADDAA124018091AG10017AY191999AY211999GF106991041031012501041001KA1999N+02101MA1999999100301MD1999999-0021MW1031REMSYN023333   20210 59002 60184EQDQ01  01803PRCP99
0137829940999991992031318004-09667-035700FM-12+008999999V0201401N00311045001CN0500001N9+02841+02201101241ADDAA106000091AG14000AY111999AY211999GF106991021021012501061001MA1999999100231MD1999999-0071MW1021REMSYN011333   59007EQDQ01  00003PRCP99
0162829940999991992031400004-09667-035700FM-12+008999999V0200501N00101220001CN9999999N9+02381+02201101431ADDAA106999929AG10017AY191999AY211999GF104991041021012501061001KA1999M+02921MA1999999100401MD1999999+0081MW1031REMSYN023333   10292 58008 69901EQDQ01  99993PRCP99
0156829940999991992031500004-09667-035700FM-12+008999999V0200901N00261045001CN9999999N9+02501+02401101331ADDAA106000091AG10000AY101999AY221999GF106991021031008001021001KA1999M+03001MA1999999100311MD1999999-0091MW1031REMSYN017333   10300 59009EQDQ01  00003PRCP99
0156829940999991992031512004-09667-035700FM-12+008999999V0200901N00511045001CN0500001N9+02751+02401101251ADDAA106000091AG14000AY101999AY221999GF105991031021012501041001KA1999N+02221MA1999999100241MD1999999-0061MW1031REMSYN017333   20222 59006EQDQ01  00003PRCP99
0137829940999991992031518004-09667-035700FM-12+008999999V0201401N00461045001CN0200001N9+02801+02501101091ADDAA106000091AG10000AY101999AY221999GF107991031031008001041001MA1999999100081MD1999999-0081MW1031REMSYN011333   59008EQDQ01  00003PRCP99
0156829940999991992031612004-09667-035700FM-12+008999999V0200901N004119999999N0500001N9+02731+02401101311ADDAA106000091AG14000AY101999AY221999GF106991999999012501999999KA1999N+02001MA1999999100291MD1999999+0051MW1031REMSYN017333   20200 58005EQDQ01  00003PRCP99
0143829940999991992031618004-09667-035700FM-12+008999999V0201401N00361045001CN0200001N9+02831+02501101111ADDAA106003091AG10017AY191999AY211999GF107991031041012501041001MA1999999100101MD1999999+0021MW1031REMSYN017333   58002 60031EQDQ01  00303PRCP99
0156829940999991992031700004-09667-035700FM-12+008999999V0200901N00361045001CN9999999N9+02501+02201101451ADDAA106000091AG10000AY101999AY221999GF106991021031008001021001KA1999M+02831MA1999999100421MD1999999+0021MW1031REMSYN017333   10283 58002EQDQ01  00003PRCP99
0162829940999991992031712004-09667-035700FM-12+008999999V0200501N00461045001CN0200001N9+02751+02401101301ADDAA124013091AG10017AY191999AY211999GF106991021021012501041001KA1999N+02101MA1999999100291MD1999999+0191MW1031REMSYN023333   20210 58019 60134EQDQ01  01303PRCP99
0137829940999991992031718004-09667-035700FM-12+008999999V0201401N00511045001CN0200001N9+02861+02501101321ADDAA106000091AG14000AY101999AY221999GF107991021041008001041001MA1999999100311MD1999999+0211MW1031REMSYN011333   58021EQDQ01  00003PRCP99
0156829940999991992031800004-09667-035700FM-12+008999999V0200501N00211007501CN9999999N9+02551+02201101401ADDAA106000091AG10000AY101999AY221999GF105991051021008001001001KA1999M+02881MA1999999100381MD1999999-0041MW1031REMSYN017333   10288 59004EQDQ01  00003PRCP99
0156829940999991992031812004-09667-035700FM-12+008999999V0200901N00411045001CN0500001N9+02731+02401101341ADDAA106000091AG10000AY101999AY221999GF106991021021012501041001KA1999N+02201MA1999999100321MD1999999+0031MW1031REMSYN017333   20220 58003EQDQ01  00003PRCP99
0137829940999991992031818004-09667-035700FM-12+008999999V0201401N00511045001CN0500001N9+02921+02601101341ADDAA106000091AG14000AY101999AY221999GF106991021021008001041001MA1999999100331MD1999999+0021MW1031REMSYN011333   58002EQDQ01  00003PRCP99
0134829940999991992031900004-09667-035700FM-12+008999999V0209999999999012001CN9999999N9+02741+02341101501ADDAA106000091AG14000GF106991061051012501001001KA1999M+03051MA1999999101431MD1999999-0031REMSYN017333   10305 59003EQDQ01  00003PRCP99
0156829940999991992031912004-09667-035700FM-12+008999999V0201401N00311045001CN0100001N9+02771+02201101371ADDAA106000091AG10000AY121999AY221999GF108991041031012501041999KA1999N+02041MA1999999100361MD1999999+0041MW1031REMSYN017333   20204 58004EQDQ01  00003PRCP99
0143829940999991992031918004-09667-035700FM-12+008999999V0201401N00361045001CN0100001N9+02781+02401101251ADDAA106001091AG10017AY191999AY211999GF107991041031012501041999MA1999999100241MD1999999-0091MW1031REMSYN017333   59009 60011EQDQ01  00103PRCP99
0134829940999991992032000004-09667-035700FM-12+008999999V0200501N00101220001CN9999999N9+02461+02201101361ADDAA106000091AG19000GF104991041041012501041001KA1999M+02881MA1999999100331MD1999999-0071REMSYN017333   10288 59007EQDQ01  00003PRCP99
0162829940999991992032012004-09667-035700FM-12+008999999V0201401N00151045001CN0100001N9+02621+02401101321ADDAA124008091AG10017AY191999AY211999GF108991041071012501021999KA1999N+02001MA1999999100331MD1999999-0031MW1031REMSYN023333   20200 59003 60084EQDQ01  00803PRCP99
0143829940999991992032018004-09667-035700FM-12+008999999V0201401N00151045001CN0200001N9+02741+02101101311ADDAA106004091AG19017AY191999AY211999GF107991041071012501041001MA1999999100301MD1999999+0061MW1031REMSYN017333   58006 60041EQDQ01  00403PRCP99
0156829940999991992032112004-09667-035700FM-12+008999999V0201401N00211045001CN0200001N9+02601+02301101241ADDAA106000091AG10000AY101999AY221999GF107991031041008001041001KA1999N+02101MA1999999100221MD1999999-0111MW1031REMSYN017333   20210 59011EQDQ01  00003PRCP99
0115829940999991992032118004-09667-035700FM-12+008999999V0200901N00721045001CN0020001N9+02901+99999100581ADDAA106000091AG14000GF107991021011008001071001MA1999999100381MD1999999-0091REMSYN011333   59009EQDQ01  00003PRCP99
0143829940999991992032318004-09667-035700FM-12+008999999V0200901N00211045001CN0200001N9+02801+02501101191ADDAA106004091AG10017AY191999AY211999GF106991021031008001041001MA1999999100181MD1999999+0071MW1031REMSYN017333   58007 60041EQDQ01  00403PRCP99
0162829940999991992032400004-09667-035700FM-12+008999999V0200501N00361045001CN9999999N9+02501+02201101331ADDAA106002091AG10017AY191999AY211999GF106991031041008001041001KA1999M+02831MA1999999100301MD1999999-0061MW1031REMSYN023333   10283 59006 60021EQDQ01  00203PRCP99
0162829940999991992032412004-09667-035700FM-12+008999999V0200901N00211045001CN0200001N9+02701+02401101371ADDAA124008091AG10017AY191999AY211999GF106991031031012501041001KA1999N+02171MA1999999100351MD1999999+0061MW1031REMSYN023333   20217 58006 60084EQDQ01  00803PRCP99
0137829940999991992032418004-09667-035700FM-12+008999999V0201401N00361045001CN0200001N9+02751+02401101161ADDAA106000091AG10000AY101999AY221999GF107991031031008001041001MA1999999100151MD1999999-0031MW1031REMSYN011333   59003EQDQ01  00003PRCP99
0156829940999991992032512004-09667-035700FM-12+008999999V0200501N00261045001CN0500001N9+02731+02401101381ADDAA106000091AG14000AY101999AY221999GF105991021021012501041001KA1999N+02101MA1999999100361MD1999999+0011MW1031REMSYN017333   20210 58001EQDQ01  00003PRCP99
0137829940999991992032518004-09667-035700FM-12+008999999V0201401N00511012001CN0500001N9+02881+02601101061ADDAA106000091AG14000AY101999AY221999GF105991051021012501001001MA1999999100051MD1999999-0101MW1031REMSYN011333   59010EQDQ01  00003PRCP99
0162829940999991992032612004-09667-035700FM-12+008999999V0201401N00101045001CN0200001N9+02681+02501101361ADDAA124016091AG10017AY191999AY211999GF107991041031012501041001KA1999N+01961MA1999999100351MD1999999-0011MW1031REMSYN023333   20196 59001 60164EQDQ01  01603PRCP99
0137829940999991992032618004-09667-035700FM-12+008999999V0200901N00151045001CN0500001N9+02841+02201101291ADDAA106000091AG10000AY121999AY221999GF106991021021012501061001MA1999999100281MD1999999+0231MW1031REMSYN011333   58023EQDQ01  00003PRCP99
0156829940999991992032700004-09667-035700FM-12+008999999V0200501N00101045001CN9999999N9+02401+02201101231ADDAA106000091AG14000AY111999AY211999GF106991021021012501061001KA1999M+02941MA1999999100201MD1999999-0191MW1021REMSYN017333   10294 59019EQDQ01  00003PRCP99
0162829940999991992032712004-09667-035700FM-12+008999999V0201401N00311045001CN0100001N9+02561+02401101341ADDAA124021091AG19024AY191999AY211999GF108991041071012501021999KA1999N+01901MA1999999100321MD1999999-0031MW1611REMSYN023333   20190 59003 60214EQDQ01  02103PRCP99
0143829940999991992032718004-09667-035700FM-12+008999999V0200501N00101045001CN0100001N9+02601+02501101311ADDAA106023091AG10017AY191999AY211999GF108991041071012501021999MA1999999100301MD1999999+0021MW1031REMSYN017333   58002 60231EQDQ01  02303PRCP99
0162829940999991992032800004-09667-035700FM-12+008999999V0200901N00051045001CN9999999N9+02281+02201101271ADDAA106002091AG19017AY191999AY211999GF106991041031012501041001KA1999M+02741MA1999999100241MD1999999+0041MW1031REMSYN023333   10274 58004 60021EQDQ01  00203PRCP99
0162829940999991992032812004-09667-035700FM-12+008999999V0201401N00101045001CN0100001N9+02481+02401101381ADDAA124062091AG10024AY191999AY211999GF108991041071012501021999KA1999N+01881MA1999999100361MD1999999+0041MW1611REMSYN023333   20188 58004 60624EQDQ01  06203PRCP99
0143829940999991992032818004-09667-035700FM-12+008999999V0200501N00101045001CN0100001N9+02581+02501101361ADDAA106016091AG10017AY191999AY211999GF108991041071012501021999MA1999999100341MD1999999+0041MW1031REMSYN017333   58004 60161EQDQ01  01603PRCP99
0162829940999991992032900004-09667-035700FM-12+008999999V0200501N00051045001CN9999999N9+02251+02201101311ADDAA106004091AG19017AY191999AY211999GF108991041071012501021999KA1999M+02701MA1999999100281MD1999999+0041MW1031REMSYN023333   10270 58004 60041EQDQ01  00403PRCP99
0162829940999991992032912004-09667-035700FM-12+008999999V0200901N00101045001CN0100001N9+02441+02301101381ADDAA124045091AG10017AY191999AY211999GF108991041071008001041999KA1999N+01841MA1999999100351MD1999999-0011MW1031REMSYN023333   20184 59001 60454EQDQ01  04503PRCP99
0143829940999991992032918004-09667-035700FM-12+008999999V0201401N00361045001CN0100001N9+02521+02401101401ADDAA106005091AG10017AY191999AY211999GF108991041071012501041999MA1999999100371MD1999999+0031MW1031REMSYN017333   58003 60051EQDQ01  00503PRCP99
0162829940999991992033000004-09667-035700FM-12+008999999V0200501N00101045001CN9999999N9+02351+02201101361ADDAA106002091AG19017AY191999AY211999GF108991041031012501041999KA1999M+02721MA1999999100331MD1999999+0051MW1031REMSYN023333   10272 58005 60021EQDQ01  00203PRCP99
0137829940999991992033018004-09667-035700FM-12+008999999V0200501N00511045001CN0500001N9+02861+02601101171ADDAA106000091AG10000AY101999AY221999GF106991031031008001041001MA1999999100161MD1999999-0211MW1031REMSYN011333   59021EQDQ01  00003PRCP99
0162829940999991992040212004-09667-035700FM-12+008999999V0201401N00101045001CN0200001N9+02601+02401101241ADDAA124004091AG10016AY191999AY211999GF106991041031012501041001KA1999N+01941MA1999999100221MD1999999+0011MW1031REMSYN023333   20194 58001 60044EQDQ01  00403PRCP99
0135829940999991992040218004-09667-035700FM-12+008999999V0200901N00101045001CN0100001N9+02701+02201101331ADDAA106000491AA299000591AG10016AY191999AY211999GF108991041071012501041999MA1999999100321MD1999999+0041MW1031REMSYN017333   58004 69941
0162829940999991992040300004-09667-035700FM-12+008999999V0200501N00051045001CN9999999N9+02321+02201101351ADDAA106001091AG10016AY191999AY211999GF108991041031012501041999KA1999M+02801MA1999999100321MD1999999+0041MW1031REMSYN023333   10280 58004 60011EQDQ01  00103PRCP99
0162829940999991992040312004-09667-035700FM-12+008999999V0201401N00101045001CN0500001N9+02761+02001101421ADDAA106002091AG10016AY191999AY211999GF106991021021012501061001KA1999N+01901MA1999999100411MD1999999+0191MW1031REMSYN023333   20190 58019 60021EQDQ01  00203PRCP99
0137829940999991992040318004-09667-035700FM-12+008999999V0201401N00151045001CN0500001N9+02821+02001101351ADDAA106000091AG14000AY111999AY211999GF106991021021012501061001MA1999999100341MD1999999+0021MW1031REMSYN011333   58002EQDQ01  00003PRCP99
0162829940999991992040912004-09667-035700FM-12+008999999V0201401N00051045001CN0100001N9+99999+99999101371ADDAA124012091AG10016AY191999AY211999GF108991041071012501041999KA1999N+01981MA1999999100361MD1999999+0041MW1031REMSYN023333   20198 58004 60124EQDQ01  01203PRCP99
0162829940999991992041000004-09667-035700FM-12+008999999V0200901N00101045001CN9999999N9+02381+02201101311ADDAA106002091AG10016AY191999AY211999GF106991041031012501041001KA1999M+02981MA1999999100281MD1999999+0011MW1031REMSYN023333   10298 58001 60021EQDQ01  00203PRCP99
0162829940999991992041012004-09667-035700FM-12+008999999V0201401N001019999999N0100001N9+02481+02301101361ADDAA124008091AG10016AY191999AY211999GF108991999999012501999999KA1999N+01951MA1999999100341MD1999999-0021MW1031REMSYN023333   20195 59002 60084EQDQ01  00803PRCP99
0156829940999991992041100004-09667-035700FM-12+008999999V0200501N00101045001CN9999999N9+02301+02201101351ADDAA106000091AG10000AY111999AY211999GF106991021021012501061001KA1999M+02901MA1999999100321MD1999999+0001MW1031REMSYN017333   10290 58000EQDQ01  00003PRCP99
0156829940999991992041200004-09667-035700FM-12+008999999V0200901N00151045001CN9999999N9+02401+02101101361ADDAA106000091AG10000AY101999AY221999GF107991031031008001041001KA1999M+02871MA1999999100331MD1999999+0011MW1031REMSYN017333   10287 58001EQDQ01  00003PRCP99
0156829940999991992041212004-09667-035700FM-12+008999999V0200501N00151007501CN0500001N9+02661+02401101341ADDAA106000091AG14000AY101999AY221999GF105991051021008001001001KA1999N+02201MA1999999100321MD1999999+0021MW1031REMSYN017333   20220 58002EQDQ01  00003PRCP99
0156829940999991992041300004-09667-035700FM-12+008999999V0200901N00101045001CN9999999N9+02501+02201101381ADDAA106000091AG10000AY101999AY221999GF107991021041008001041001KA1999M+02901MA1999999100351MD1999999+0021MW1031REMSYN017333   10290 58002EQDQ01  00003PRCP99
0156829940999991992041312004-09667-035700FM-12+008999999V0200901N00211220001CN0500001N9+02741+02401101301ADDAA106000091AG10000AY101999AY221999GF104991041021012501001001KA1999N+02221MA1999999100281MD1999999-0041MW1031REMSYN017333   20222 59004EQDQ01  00003PRCP99
0137829940999991992041318004-09667-035700FM-12+008999999V0200901N00511012001CN0500001N9+02941+02601101221ADDAA106000091AG14000AY101999AY221999GF105991051021012501001001MA1999999100211MD1999999+0011MW1031REMSYN011333   58001EQDQ01  00003PRCP99
0156829940999991992041400004-09667-035700FM-12+008999999V0200501N00151045001CN9999999N9+02531+02201101321ADDAA106000091AG10000AY101999AY221999GF107991031031012501041001KA1999M+02961MA1999999100301MD1999999-0051MW1031REMSYN017333   10296 59005EQDQ01  00003PRCP99
0137829940999991992041418004-09667-035700FM-12+008999999V0200901N00411045001CN0500001N9+02921+02501101191ADDAA106000091AG10000AY101999AY221999GF106991021021008001041001MA1999999100181MD1999999-0031MW1031REMSYN011333   59003EQDQ01  00003PRCP99
0156829940999991992041500004-09667-035700FM-12+008999999V0200501N00101045001CN9999999N9+02501+02201101331ADDAA106000091AG10000AY101999AY221999GF106991021021012501041001KA1999M+02951MA1999999100301MD1999999+0081MW1031REMSYN017333   10295 58008EQDQ01  00003PRCP99
0156829940999991992041512004-09667-035700FM-12+008999999V0200901N00211045001CN0500001N9+02731+02401101291ADDAA106000091AG14000AY101999AY221999GF106991021021008001041001KA1999N+02101MA1999999100281MD1999999+0021MW1031REMSYN017333   20210 58002EQDQ01  00003PRCP99
0137829940999991992041618004-09667-035700FM-12+008999999V0201401N00211045001CN0500001N9+02901+02301101331ADDAA106000091AG10000AY111999AY221999GF106991041021012501061001MA1999999100321MD1999999+0041MW1031REMSYN011 333 58004?EQDQ01  00003PRCP99
0156829940999991992041700004-09667-035700FM-12+008999999V0200901N00101045001CN9999999N9+02401+02001101291ADDAA106000091AG10000AY111999AY211999GF106991021011012501061001KA1999M+03061MA1999999100261MD1999999-0021MW1021REMSYN017333   10306 59002EQDQ01  00003PRCP99
0156829940999991992041712004-09667-035700FM-12+008999999V0200901N00311045001CN0500001N9+02821+02101101371ADDAA106000091AG10000AY101999AY211999GF106991041011012501041001KA1999N+02021MA1999999100361MD1999999-0021MW1021REMSYN017333   20202 59002EQDQ01  00003PRCP99
0137829940999991992041918004-09667-035700FM-12+008999999V0200901N00461220001CN0500001N9+02941+02601101161ADDAA106000091AG14000AY101999AY221999GF103991031021008001001001MA1999999100151MD1999999-0041MW1031REMSYN011333   59004EQDQ01  00003PRCP99
0156829940999991992042000004-09667-035700FM-12+008999999V0200501N00151045001CN9999999N9+02551+02301101281ADDAA106000091AG10000AY101999AY221999GF106991021021008001041001KA1999M+02961MA1999999100261MD1999999-0041MW1031REMSYN017333   10296 59004EQDQ01  00003PRCP99
0156829940999991992042012004-09667-035700FM-12+008999999V0200501N00261045001CN0500001N9+02741+02401101261ADDAA106000091AG14000AY101999AY221999GF106991021021012501041001KA1999N+02121MA1999999100251MD1999999-0031MW1031REMSYN017333   20212 59003EQDQ01  00003PRCP99
0156829940999991992042112004-09667-035700FM-12+008999999V0200901N00151045001CN0200001N9+02721+02001101301ADDAA106000091AG10000AY101999AY221999GF107991021021012501041001KA1999N+02081MA1999999100281MD1999999+0021MW1031REMSYN017333   20208 58002EQDQ01  00003PRCP99
0156829940999991992042200004-09667-035700FM-12+008999999V0200901N00101045001CN9999999N9+02581+02101101281ADDAA106000091AG10000AY101999AY221999GF106991021021012501041001KA1999M+02971MA1999999100261MD1999999-0011MW1031REMSYN017333   10297 59001EQDQ01  00003PRCP99
0137829940999991992042212004-09667-035700FM-12+008999999V0200901N00211045001CN0200001N9+02701+02001101281ADDAA106000091AG10000AY101999AY221999GF106991021021008001041001MA1999999100261MD1999999-0021MW1031REMSYN011333   59002EQDQ01  00003PRCP99
0137829940999991992042218004-09667-035700FM-12+008999999V0200901N00511045001CN0200001N9+02901+02201101381ADDAA106000091AG10000AY101999AY221999GF107991021031012501041001MA1999999100371MD1999999+0221MW1031REMSYN011333   58022EQDQ01  00003PRCP99
0137829940999991992042318004-09667-035700FM-12+008999999V0201801N00511220001CN0500001N9+02841+02201101371ADDAA106000091AG10000AY111999AY211999GF103991011021012501001001MA1999999100361MD1999999+0001MW1031REMSYN011333   58000EQDQ01  00003PRCP99
0156829940999991992042400004-09667-035700FM-12+008999999V0200901N00151045001CN9999999N9+02421+02101101311ADDAA106000091AG10000AY101999AY211999GF105991021021012501041001KA1999M+03061MA1999999100281MD1999999+0041MW1021REMSYN017333   10306 58004EQDQ01  00003PRCP99
0156829940999991992042412004-09667-035700FM-12+008999999V0200901N00311045001CN0100001N9+02721+02201101281ADDAA106000091AG14000AY111999AY211999GF107991041021012501061001KA1999N+02001MA1999999100271MD1999999+0011MW1021REMSYN017333   20200 58001EQDQ01  00003PRCP99
0162829940999991992042500004-09667-035700FM-12+008999999V0200901N00101045001CN9999999N9+02301+02101101261ADDAA106002091AG19016AY191999AY211999GF106991041031012501041001KA1999M+03101MA1999999100231MD1999999-0051MW1031REMSYN023333   10310 59005 60021EQDQ01  00203PRCP99
0162829940999991992042512004-09667-035700FM-12+008999999V0200901N00361045001CN0500001N9+02721+02001101321ADDAA124004091AG10016AY191999AY211999GF105991041021012501061001KA1999N+02061MA1999999100311MD1999999+0041MW1031REMSYN023333   20206 58004 60044EQDQ01  00403PRCP99
0137829940999991992042518004-09667-035700FM-12+008999999V0201401N00621220001CN0500001N9+02941+01901101331ADDAA106000091AG10000AY101999AY201999GF103991031011012501001001MA1999999100321MD1999999+0101MW1011REMSYN011333   58010EQDQ01  00003PRCP99
0156829940999991992042600004-09667-035700FM-12+008999999V0209991C00001220001CN9999999N9+02361+02101101391ADDAA106000091AG10000AY101999AY211999GF104991041011008001001001KA1999M+03201MA1999999100361MD1999999+0131MW1021REMSYN017333   10320 58013EQDQ01  00003PRCP99
0156829940999991992042612004-09667-035700FM-12+008999999V0200901N00101045001CN0500001N9+02781+02001101271ADDAA106000091AG14000AY111999AY211999GF106991021021012501041001KA1999N+02021MA1999999100261MD1999999-0061MW1031REMSYN017333   20202 59006EQDQ01  00003PRCP99
0137829940999991992042618004-09667-035700FM-12+008999999V0200901N00361045001CN0500001N9+02881+02001101321ADDAA106000091AG10000AY111999AY211999GF106991021021012501041001MA1999999100311MD1999999-0011MW1021REMSYN011333   59001EQDQ01  00003PRCP99
0134829940999991992042700004-09667-035700FM-12+008999999V0201401N00101045001CN9999999N9+02301+02101103112ADDAA106000091AG14000GF106991021031008001061001KA1999M+02981MA1999999100281MD1999999-0081REMSYN017333   10298 59008EQDQ01  00003PRCP99
0122829940999991992042718004-09667-035700FM-12+008999999V0200901N00361220001CN0500001N9+02861+02201101171ADDAA106000091AG10000AY101999AY221999GF103991031021012501001001MD1999999-0151MW1031REMSYN011333   59015EQDQ01  00003PRCP99
0156829940999991992042812004-09667-035700FM-12+008999999V0201401N00101220001CN0500001N9+02741+02101101311ADDAA106000091AG10000AY101999AY201999GF103991031011008001001001KA1999N+02081MA1999999100291MD1999999+0041MW1011REMSYN017333   20208 58004EQDQ01  00003PRCP99
0137829940999991992042818004-09667-035700FM-12+008999999V0201401N00461220001CN0500001N9+02901+02201101021ADDAA106000091AG10000AY101999AY201999GF103991031021008001001001MA1999999100011MD1999999-0151MW1011REMSYN011333   59015EQDQ01  00003PRCP99
0156829940999991992042900004-09667-035700FM-12+008999999V0201401N00101012001CN9999999N9+02531+02101101311ADDAA106000091AG10000AY101999AY221999GF105991051031012501001001KA1999M+03001MA1999999100281MD1999999+0001MW1031REMSYN017333   10300 58000EQDQ01  00003PRCP99
0156829940999991992042912004-09667-035700FM-12+008999999V0200901N00211220001CN0500001N9+02751+02201101271ADDAA106000091AG10000AY101999AY201999GF103991031021008001001001KA1999N+02101MA1999999100261MD1999999-0031MW1011REMSYN017333   20210 59003EQDQ01  00003PRCP99
0156829940999991992043000004-09667-035700FM-12+008999999V0201401N00051007501CN9999999N9+02601+02101101311ADDAA106000091AG10000AY101999AY221999GF105991051031008001001001KA1999M+03061MA1999999100291MD1999999+0011MW1031REMSYN017333   10306 58001EQDQ01  00003PRCP99
0156829940999991992043012004-09667-035700FM-12+008999999V0200901N00211220001CN0500001N9+02821+02001101311ADDAA106000091AG10000AY111999AY211999GF103991031021012501001001KA1999N+01961MA1999999100301MD1999999+0041MW1021REMSYN017333   20196 58004EQDQ01  00003PRCP99
0137829940999991992043018004-09667-035700FM-12+008999999V0200901N00361045001CN0500001N9+02901+01901101091ADDAA106000091AG10000AY111999AY211999GF106991021021012501061001MA1999999100081MD1999999+0131MW1021REMSYN011333   58013EQDQ01  00003PRCP99
0162829940999991992050100004-09667-035700FM-12+008999999V0200501N00151220001CN9999999N9+02461+02301101351ADDAA106002091AG13000AY101999AY201999GF103991999999008001999999KA1999M+03141MA1999999100321MD1999999+0101MW1031REMSYN023333   10314 58010 60021EQDQ01  00203PRCP99
0162829940999991992050112004-09667-035700FM-12+008999999V0200901N00621012001CN0500001N9+02761+01701101321ADDAA124002091AG10000AY111999AY211999GF105991051021012501001001KA1999N+01921MA1999999100311MD1999999+0011MW1021REMSYN023333   20192 58001 60024EQDQ01  00203PRCP99
0137829940999991992050118004-09667-035700FM-12+008999999V0200901N00571045001CN0500001N9+02881+02001101231ADDAA106000091AG14000AY111999AY211999GF105991021021012501061001MA1999999100221MD1999999+0141MW1031REMSYN011333   58014EQDQ01  00003PRCP99
0156829940999991992050200004-09667-035700FM-12+008999999V0200501N02571012001CN9999999N9+02441+02101101321ADDAA106000091AG10000AY101999AY211999GF105991051011012501001001KA1999M+03041MA1999999100291MD1999999-0031MW1031REMSYN017333   10304 59003EQDQ01  00003PRCP99
0162829940999991992050212004-09667-035700FM-12+008999999V0200901N00511045001CN0500001N9+02781+02001101261ADDAA124002091AG10014AY191999AY211999GF106991041021012501041001KA1999N+01971MA1999999100251MD1999999-0061MW1031REMSYN023333   20197 59006 60024EQDQ01  00203PRCP99
0137829940999991992050218004-09667-035700FM-12+008999999V0200901N00311045001CN0500001N9+02901+02001101291ADDAA106000091AG14000AY111999AY221999GF106991021031017501061001MA1999999100281MD1999999+0061MW1031REMSYN011333   58006EQDQ01  00003PRCP99
0156829940999991992050300004-09667-035700FM-12+008999999V0200501N00051045001CN9999999N9+02461+02101101381ADDAA106000091AG19000AY121999AY221999GF106991041021012501061001KA1999M+03061MA1999999100351MD1999999+0061MW1031REMSYN017333   10306 58006EQDQ01  00003PRCP99
0162829940999991992050312004-09667-035700FM-12+008999999V0200901N00151045001CN0500001N9+02701+02101101291ADDAA124004091AG10014AY191999AY211999GF106991041031012501061001KA1999N+01981MA1999999100281MD1999999+0031MW1031REMSYN023333   20198 58003 60044EQDQ01  00403PRCP99
0137829940999991992050318004-09667-035700FM-12+008999999V0201401N00361045001CN0500001N9+02881+02001101271ADDAA106000091AG10000AY111999AY211999GF105991021021017501041001MA1999999100261MD1999999-0021MW1031REMSYN011333   59002EQDQ01  00003PRCP99
0156829940999991992050400004-09667-035700FM-12+008999999V0200501N00151045001CN9999999N9+02401+02101101291ADDAA106000091AG14000AY111999AY211999GF106991021011012501061001KA1999M+03081MA1999999100261MD1999999-0091MW1031REMSYN017333   10308 59009EQDQ01  00003PRCP99
0137829940999991992050418004-09667-035700FM-12+008999999V0201801N00311007501CN0500001N9+02871+02201101031ADDAA106000091AG10000AY101999AY221999GF105991051031008001001001MA1999999100021MD1999999-0241MW1031REMSYN011333   59024EQDQ01  00003PRCP99
0156829940999991992050500004-09667-035700FM-12+008999999V0200901N00051045001CN9999999N9+02461+02401101271ADDAA106000091AG10000AY101999AY221999GF106991021031008001021001KA1999M+02941MA1999999100261MD1999999+0001MW1031REMSYN017333   10294 58000EQDQ01  00003PRCP99
0137829940999991992050518004-09667-035700FM-12+008999999V0200901N00461045001CN0200001N9+02741+02101100981ADDAA106000091AG14000AY101999AY221999GF106991031031008001041001MA1999999099981MD1999999-0041MW1031REMSYN011333   59004EQDQ01  00003PRCP99
0156829940999991992050612004-09667-035700FM-12+008999999V0200501N00211220001CN0500001N9+02741+02101101321ADDAA106000091AG14000AY101999AY221999GF104991041021008001001001KA1999N+02101MA1999999100301MD1999999+0051MW1031REMSYN017333   20210 58005EQDQ01  00003PRCP99
0137829940999991992050618004-09667-035700FM-12+008999999V0200901N00511220001CN0500001N9+02881+02201101011ADDAA106000091AG10000AY101999AY201999GF103991031021008001001001MA1999999100001MD1999999+0021MW1011REMSYN011333   58002EQDQ01  00003PRCP99
0156829940999991992050700004-09667-035700FM-12+008999999V0200901N00101045001CN9999999N9+02581+02201101311ADDAA106000091AG10000AY101999AY221999GF106991021021008001041001KA1999M+02921MA1999999100291MD1999999+0021MW1031REMSYN017333   10292 58002EQDQ01  00003PRCP99
0156829940999991992050712004-09667-035700FM-12+008999999V0200501N00211007501CN0500001N9+02731+02001101281ADDAA106000091AG14000AY101999AY221999GF105991051021008001001001KA1999N+02001MA1999999100261MD1999999-0041MW1031REMSYN017333   20200 59004EQDQ01  00003PRCP99
0137829940999991992050718004-09667-035700FM-12+008999999V0200901N00461220001CN0500001N9+02941+02201101141ADDAA106000091AG14000AY101999AY201999GF103991031021008001001001MA1999999100141MD1999999+0141MW1011REMSYN011333   58014EQDQ01  00003PRCP99
0156829940999991992050812004-09667-035700FM-12+008999999V0201401N00411045001CN0500001N9+02721+01901101361ADDAA106000091AG10000AY111999AY211999GF106991041021012501061001KA1999N+02041MA1999999100341MD1999999+0081MW1031REMSYN017333   20204 58008EQDQ01  00003PRCP99
0137829940999991992050818004-09667-035700FM-12+008999999V0200901N00671045001CN0200001N9+02841+02101101271ADDAA106000091AG10000AY101999AY221999GF106991031031008001041001MA1999999100261MD1999999+0121MW1031REMSYN011333   58012EQDQ01  00003PRCP99
0156829940999991992050900004-09667-035700FM-12+008999999V0201401N00361045001CN9999999N9+02501+02201101351ADDAA106000091AG14000AY111999AY211999GF106991021021012501061001KA1999M+02901MA1999999100321MD1999999+0051MW1031REMSYN017333   10290 58005EQDQ01  00003PRCP99
0156829940999991992050912004-09667-035700FM-12+008999999V0200501N00411220001CN0500001N9+02771+02201101501ADDAA106000091AG10000AY101999AY201999GF104991041021008001001001KA1999N+02081MA1999999100491MD1999999+0151MW1011REMSYN017333   20208 58015EQDQ01  00003PRCP99
0115829940999991992050918004-09667-035700FM-12+008999999V0200901N00821220001CN0020001N9+02161+99999100851ADDAA106000091AG14000GF102991021021008001001001MA1999999100661MD1999999-0011REMSYN011333   59001EQDQ01  00003PRCP99
0162829940999991992051012004-09667-035700FM-12+008999999V0200901N00151045001CN0100001N9+02641+02301101381ADDAA124002091AG19016AY191999AY211999GF107991021031012501041001KA1999N+02061MA1999999100361MD1999999-0131MW1211REMSYN023333   20206 59013 60024EQDQ01  00203PRCP99
0137829940999991992051018004-09667-035700FM-12+008999999V0201801N00311220001CN0500001N9+02851+02001101331ADDAA106000091AG10000AY101999AY211999GF104991041021012501041001MA1999999100321MD1999999+0071MW1031REMSYN011333   58007EQDQ01  00003PRCP99
0156829940999991992051100004-09667-035700FM-12+008999999V0201401N00101045001CN9999999N9+02421+02101101281ADDAA106000091AG10000AY101999AY211999GF105991021011008001061001KA1999M+02961MA1999999100251MD1999999-0091MW1021REMSYN017333   10296 59009EQDQ01  00003PRCP99
0070829940999991992051103004-09667-035700FM-12+008999999V0202101N00211220001CN0200001N9+02581+02381101461ADDAG12000GF103991031021008001001001MD1999999-0011REMSYN011333   59001
0137829940999991992051118004-09667-035700FM-12+008999999V0201401N00311007501CN0500001N9+02861+02001101331ADDAA106000091AG14000AY101999AY221999GF105991051031008001001001MA1999999100321MD1999999+0001MW1031REMSYN011333   58000EQDQ01  00003PRCP99
0156829940999991992051218004-09667-035700FM-12+008999999V0200901N00211045001CN0500001N9+02701+02101101391ADDAA106000091AG14000AY101999AY221999GF106991021021008001041001KA1999N+02001MA1999999100371MD1999999-0081MW1031REMSYN017333   20200 59008EQDQ01  00003PRCP99
0156829940999991992051300004-09667-035700FM-12+008999999V0200501N00051220001CN9999999N9+02501+02201101411ADDAA106000091AG10000AY101999AY201999GF103991031011008001001001KA1999M+02901MA1999999100381MD1999999+0031MW1011REMSYN017333   10290 58003EQDQ01  00003PRCP99
0156829940999991992051312004-09667-035700FM-12+008999999V0200901N00151220001CN0500001N9+02721+02101101341ADDAA106000091AG14000AY101999AY221999GF104991041021008001001001KA1999N+02101MA1999999100321MD1999999-0051MW1031REMSYN017333   20210 59005EQDQ01  00003PRCP99
0137829940999991992051318004-09667-035700FM-12+008999999V0200901N00461007501CN0500001N9+02881+02201101251ADDAA106000091AG10000AY101999AY221999GF105991051031008001001001MA1999999100241MD1999999-0031MW1031REMSYN011333   59003EQDQ01  00003PRCP99
0156829940999991992051412004-09667-035700FM-12+008999999V0200501N00211045001CN0100001N9+02561+02301101371ADDAA106000091AG14000AY121999AY221999GF108991041031008001041999KA1999N+02041MA1999999100351MD1999999+0031MW1031REMSYN017333   20204 58003EQDQ01  00003PRCP99
0137829940999991992051418004-09667-035700FM-12+008999999V0201401N00311045001CN0500001N9+02701+02001101311ADDAA106000091AG14000AY111999AY221999GF106991021021012501061001MA1999999100301MD1999999+0061MW1031REMSYN011333   58006EQDQ01  00003PRCP99
0154829940999991992051500004-09667-035700FM-12+008999999V0201401N00151045001CN9999999N9+02361+02001101411ADDAA106000491AA299000591AG10014AY191999AY211999GF108991041031012501041999KA1999M+02861MA1999999100381MD1999999+0031MW1031REMSYN023333   10286 58003 69941
0154829940999991992051512004-09667-035700FM-12+008999999V0201401N00361045001CN0200001N9+02701+02101101381ADDAA124000491AA299000591AG10014AY191999AY211999GF107991041031012501061001KA1999N+01981MA1999999100361MD1999999+0011MW1031REMSYN023333   20198 58001 69944
0137829940999991992051518004-09667-035700FM-12+008999999V0200901N00411045001CN0500001N9+02831+02101101071ADDAA106000091AG10000AY101999AY221999GF105991021031008001041001MA1999999100061MD1999999-0241MW1031REMSYN011333   59024EQDQ01  00003PRCP99
0141829940999991992051612004-09667-035700FM-12+008999999V0200901N00211220001CN0500001N9+02741+02001101341ADDAA106000091AG10000AY101999AY221999GF103991031021008001001001KA1999N+02101MD1999999-0041MW1031REMSYN017333   20210 59004EQDQ01  00003PRCP99
0137829940999991992051618004-09667-035700FM-12+008999999V0201401N00311045001CN0500001N9+02821+02201101311ADDAA106000091AG10000AY111999AY211999GF106991021021012501061001MA1999999100301MD1999999-0021MW1031REMSYN011333   59002EQDQ01  00003PRCP99
0156829940999991992051700004-09667-035700FM-12+008999999V0203601N00151012001CN9999999N9+02441+02201101371ADDAA106000091AG14000AY111999AY211999GF105991051021012501001001KA1999M+02961MA1999999100341MD1999999+0031MW1021REMSYN017333   10296 58003EQDQ01  00003PRCP99
0156829940999991992051800004-09667-035700FM-12+008999999V0200901N00101007501CN9999999N9+02581+02001101351ADDAA106000091AG10000AY101999AY221999GF105991051031008001001001KA1999M+02831MA1999999100331MD1999999-0051MW1031REMSYN017333   10283 59005EQDQ01  00003PRCP99
0137829940999991992051818004-09667-035700FM-12+008999999V0200901N00101220001CN0500001N9+02921+02401101141ADDAA106000091AG14000AY101999AY201999GF103991031011008001001001MA1999999100141MD1999999+9991MW1011REMSYN011333   59906EQDQ01  00003PRCP99
0156829940999991992051900004-09667-035700FM-12+008999999V0201401N00151007501CN9999999N9+02681+02001101351ADDAA106000091AG14000AY101999AY221999GF105991051021008001001001KA1999M+03101MA1999999100331MD1999999+0081MW1031REMSYN017333   10310 58008EQDQ01  00003PRCP99
0156829940999991992051912004-09667-035700FM-12+008999999V0200901N00261220001CN0500001N9+02741+02101101331ADDAA106000091AG14000AY101999AY201999GF103991031021008001001001KA1999N+02121MA1999999100311MD1999999+0021MW1011REMSYN017333   20212 58002EQDQ01  00003PRCP99
0137829940999991992051918004-09667-035700FM-12+008999999V0200901N00511220001CN0500001N9+03081+02201101131ADDAA106000091AG14000AY101999AY201999GF102991021011008001001001MA1999999100131MD1999999-0011MW1011REMSYN011333   59001EQDQ01  00003PRCP99
0126829940999991992052000004-09667-035700FM-12+008999999V0200901N00101007501CN9999999N9+02631+02101101311ADDAG11000AY101999AY221999GF105991051031008001001001KA1999M+03201MA1999999100291MD1999999-0041MW1031REMSYN017333   10320 59004
0137829940999991992052118004-09667-035700FM-12+008999999V0200901N00311220001CN0500001N9+02941+01901101331ADDAA106000091AG14000AY131999AY211999GF103991031021012501001001MA1999999099321MD1999999+0091MW1021REMSYN011333   58009EQDQ01  00003PRCP99
0156829940999991992052200004-09667-035700FM-12+008999999V0200501N00101045001CN9999999N9+02441+02001101311ADDAA106000091AG14000AY111999AY211999GF106991021031012501061001KA1999M+03021MA1999999100281MD1999999-0031MW1031REMSYN017333   10302 59003EQDQ01  00003PRCP99
0156829940999991992052212004-09667-035700FM-12+008999999V0202301N00261045001CN0100001N9+02581+02301101461ADDAA106000091AG10000AY121999AY221999GF108991041071008001041999KA1999N+01941MA1999999100141MD1999999+0051MW1031REMSYN017333   20194 58005EQDQ01  00003PRCP99
0135829940999991992052218004-09667-035700FM-12+008999999V0201401N00311045001CN0100001N9+02601+02001101221ADDAA106000491AA299000591AG10014AY191999AY211999GF108991041071012501041999MA1999999100201MD1999999-0121MW1031REMSYN017333   59012 69941
0162829940999991992052300004-09667-035700FM-12+008999999V0209991C00001045001CN9999999N9+02381+02301101361ADDAA106001091AG19016AY191999AY261999GF108991041031008001041999KA1999M+02801MA1999999100331MD1999999+0051MW1211REMSYN023333   10280 58005 60011EQDQ01  00103PRCP99
0162829940999991992052312004-09667-035700FM-12+008999999V0200901N00311045001CN0500001N9+02801+02001101441ADDAA124001091AG13000AY121999AY221999GF106991041021012501041001KA1999N+02021MA1999999100431MD1999999-0011MW1031REMSYN023333   20202 59001 60014EQDQ01  00103PRCP99
0137829940999991992052318004-09667-035700FM-12+008999999V0201401N00621220001CN0500001N9+02881+01801101441ADDAA106000091AG10000AY101999AY201999GF103991031011017501001001MA1999999100421MD1999999+0221MW1011REMSYN011333   58022EQDQ01  00003PRCP99
0156829940999991992052400004-09667-035700FM-12+008999999V0200901N00101220001CN9999999N9+02461+02001101331ADDAA106000091AG10000AY101999AY201999GF104991041011008001001001KA1999M+03061MA1999999100301MD1999999-0031MW1021REMSYN017333   10306 59003EQDQ01  00003PRCP99
0156829940999991992052412004-09667-035700FM-12+008999999V0201401N00261012001CN0500001N9+02581+01901101311ADDAA106000091AG14000AY111999AY211999GF105991051021012501001001KA1999N+01921MA1999999100291MD1999999-0141MW1021REMSYN017333   20192 59014EQDQ01  00003PRCP99
0137829940999991992052418004-09667-035700FM-12+008999999V0201401N00411045001CN0500001N9+02901+02301101371ADDAA106000091AG10000AY111999AY211999GF106991021011012501061001MA1999999100361MD1999999-0061MW1021REMSYN011333   59006EQDQ01  00003PRCP99
0156829940999991992052500004-09667-035700FM-12+008999999V0200901N00101220001CN9999999N9+02451+02201101351ADDAA106000091AG10000AY101999AY201999GF103991031021008001001001KA1999M+03001MA1999999100321MD1999999+0021MW1011REMSYN017333   10300 58002EQDQ01  00003PRCP99
0137829940999991992052518004-09667-035700FM-12+008999999V0200901N00151045001CN0200001N9+02861+02001101371ADDAA106000091AG10000AY101999AY221999GF105991021031008001041001MA1999999100361MD1999999+0001MW1031REMSYN011333   58000EQDQ01  00003PRCP99
0156829940999991992052612004-09667-035700FM-12+008999999V0200901N00211045001CN0200001N9+02631+02001101401ADDAA106000091AG10000AY101999AY221999GF106991031031008001041001KA1999N+02001MA1999999100881MD1999999+0051MW1031REMSYN017333   20200 58005EQDQ01  00003PRCP99
0156829940999991992052800004-09667-035700FM-12+008999999V0200501N00101045001CN9999999N9+02551+02001101431ADDAA106000091AG10000AY101999AY221999GF106991031041008001041001KA1999M+02841MA1999999100411MD1999999-0081MW1031REMSYN017333   10284 59008EQDQ01  00003PRCP99
0162829940999991992052812004-09667-035700FM-12+008999999V0200901N00211045001CN0200001N9+02731+02101101311ADDAA124006091AG10014AY191999AY211999GF106991021031008001021001KA1999N+02101MA1999999100291MD1999999-0091MW1031REMSYN023333   20210 59009 60064EQDQ01  00603PRCP99
0143829940999991992052818004-09667-035700FM-12+008999999V0200901N00511045001CN0200001N9+02751+02101101291ADDAA106005091AG10014AY191999AY211999GF107991031041008001041001MA1999999100281MD1999999+0101MW1031REMSYN017333   58010 60051EQDQ01  00503PRCP99
0162829940999991992052900004-09667-035700FM-12+008999999V0201801N00051045001CN9999999N9+02401+02101101351ADDAA106010091AG19014AY191999AY211999GF106991031031008001041001KA1999M+02781MA1999999100321MD1999999-0091MW1031REMSYN023333   10278 59009 60101EQDQ01  01003PRCP99
0162829940999991992052912004-09667-035700FM-12+008999999V0201801N00101045001CN0200001N9+02451+02001101421ADDAA124045091AG10014AY191999AY211999GF107991041071012501021001KA1999N+01901MA1999999100401MD1999999+0111MW1031REMSYN023333   20190 58011 60454EQDQ01  04503PRCP99
0143829940999991992052918004-09667-035700FM-12+008999999V0201801N00101045001CN0100001N9+02601+02301101341ADDAA106001091AG10014AY191999AY211999GF108991041071012501041999MA1999999100321MD1999999+0041MW1031REMSYN017333   58004 60011EQDQ01  00103PRCP99
0162829940999991992053000004-09667-035700FM-12+008999999V0201401N00101045001CN9999999N9+02381+02301101391ADDAA106022091AG10014AY191999AY211999GF108991041071008001021999KA1999M+02741MA1999999100361MD1999999+0041MW1031REMSYN023333   10274 58004 60221EQDQ01  02203PRCP99
0162829940999991992053012004-09667-035700FM-12+008999999V0202301N00151045001CN0100001N9+02561+02401101371ADDAA124059091AG10016AY191999AY261999GF108991041071012501041999KA1999N+01881MA1999999100341MD1999999-0061MW1211REMSYN023333   20188 59006 60594EQDQ01  05903PRCP99
0143829940999991992053018004-09667-035700FM-12+008999999V0201401N00311045001CN0500001N9+02661+02201101361ADDAA106004091AG10014AY191999AY211999GF106991041031012501061001MA1999999100341MD1999999+0021MW1031REMSYN017333   58002 60041EQDQ01  00403PRCP99
0162829940999991992053112004-09667-035700FM-12+008999999V0201401N00101045001CN0200001N9+02441+02001101331ADDAA124022091AG10014AY191999AY211999GF107991041031012501021001KA1999N+01861MA1999999100311MD1999999-0031MW1031REMSYN023333   20186 59003 60224EQDQ01  02203PRCP99
0162829940999991992060100004-09667-035700FM-12+008999999V0200901N00151045001CN9999999N9+02321+02101101381ADDAA106001091AG10013AY191999AY211999GF107991041031012501041001KA1999M+02701MA1999999100351MD1999999-0051MW1031REMSYN023333   10270 59005 60011EQDQ01  00103PRCP99
0143829940999991992060118004-09667-035700FM-12+008999999V0200901N00101045001CN0200001N9+02601+02001101281ADDAA106002091AG10000AY101999AY211999GF106991031031008001041001MA1999999100261MD1999999-0031MW1031REMSYN017333   59003 60021EQDQ01  00203PRCP99
0137829940999991992060218004-09667-035700FM-12+008999999V0200901N00411045001CN0500001N9+02821+02101101321ADDAA106000091AG14000AY101999AY221999GF106991031031008001041001MA1999999100311MD1999999+0051MW1031REMSYN011333   58005EQDQ01  00003PRCP99
0137829940999991992060318004-09667-035700FM-12+008999999V0200901N00671045001CN0500001N9+02821+02101101211ADDAA106000091AG10000AY101999AY221999GF106991021041008001041001MA1999999100201MD1999999-0111MW1031REMSYN011333   59011EQDQ01  00003PRCP99
0162829940999991992060400004-09667-035700FM-12+008999999V0200901N00101045001CN9999999N9+02581+02201101351ADDAA106004091AG10013AY191999AY211999GF106991031041008001041001KA1999M+02861MA1999999100331MD1999999-0091MW1031REMSYN023333   10286 59009 60041EQDQ01  00403PRCP99
0162829940999991992060412004-09667-035700FM-12+008999999V0200901N00361045001CN0100001N9+02681+02101101451ADDAA124014091AG10015AY191999AY211999GF106991031071008001021999KA1999N+02061MA1999999100431MD1999999+0131MW1211REMSYN023333   20206 58013 60144EQDQ01  01403PRCP99
0143829940999991992060418004-09667-035700FM-12+008999999V0200901N00411045001CN0200001N9+02751+02101101221ADDAA106003091AG10013AY191999AY211999GF106991031031008001061001MA1999999100201MD1999999+0001MW1031REMSYN017333   58000 60031EQDQ01  00303PRCP99
0143829940999991992060518004-09667-035700FM-12+008999999V0201801N00461045001CN0200001N9+02661+02201101291ADDAA106001091AG10013AY191999AY211999GF106991031041012501041001MA1999999100271MD1999999+0071MW1031REMSYN017333   58007 60011EQDQ01  00103PRCP99
0162829940999991992060812004-09667-035700FM-12+008999999V0200901N00311045001CN0200001N9+02581+02001101491ADDAA124049091AG10018AY191999AY211999GF107991041071008001021001KA1999N+01901MA1999999100461MD1999999+0041MW1611REMSYN023333   20190 58004 60494EQDQ01  04903PRCP99
0143829940999991992060818004-09667-035700FM-12+008999999V0201901N00721045001CN0200001N9+02641+02001101331ADDAA106003091AG10013AY191999AY211999GF106991031041008001041001MA1999999100311MD1999999-0121MW1031REMSYN017333   59012 60031EQDQ01  00303PRCP99
0162829940999991992060900004-09667-035700FM-12+008999999V0200501N00311045001CN9999999N9+02401+02001101491ADDAA106006091AG10013AY191999AY211999GF106991031031008001041001KA1999M+02661MA1999999100461MD1999999-0051MW1031REMSYN023333   10266 59005 60061EQDQ01  00603PRCP99
0162829940999991992060912004-09667-035700FM-12+008999999V0201801N00101045001CN0200001N9+02531+02001101671ADDAA124019091AG10013AY191999AY211999GF106991041031012501061001KA1999N+01801MA1999999100641MD1999999+0181MW1031REMSYN023333   20180 58018 60194EQDQ01  01903PRCP99
0137829940999991992060918004-09667-035700FM-12+008999999V0200901N00211045001CN0200001N9+02701+02101101331ADDAA106000091AG10000AY101999AY221999GF106991031031008001061001MA1999999100311MD1999999+0001MW1031REMSYN011 333 58000?EQDQ01  00003PRCP99
0137829940999991992061018004-09667-035700FM-12+008999999V0201401N00411045001CN0200001N9+02751+02101101361ADDAA106000091AG10000AY101999AY221999GF106991021031008001061001MA1999999100341MD1999999+0031MW1031REMSYN011333   58003EQDQ01  00003PRCP99
0143829940999991992061118004-09667-035700FM-12+008999999V0201401N00261045001CN0500001N9+02621+02001101391ADDAA106001091AG10013AY191999AY211999GF105991021021012501061001MA1999999100471MD1999999+0131MW1031REMSYN017333   58013 60011EQDQ01  00103PRCP99
0156829940999991992061200004-09667-035700FM-12+008999999V0200901N00051012001CN9999999N9+02301+02101101501ADDAA106000091AG10000AY101999AY211999GF105991051011012501001001KA1999M+02801MA1999999100471MD1999999+0041MW1021REMSYN017333   10280 58004EQDQ01  00003PRCP99
0162829940999991992061212004-09667-035700FM-12+008999999V0200901N00211045001CN0200001N9+02521+02101101401ADDAA124020091AG10013AY191999AY211999GF107991041031008001061001KA1999N+01861MA1999999100371MD1999999-0081MW1031REMSYN023333   20186 59008 60204EQDQ01  02003PRCP99
0137829940999991992061218004-09667-035700FM-12+008999999V0201401N00361045001CN0500001N9+02801+02301101261ADDAA106000091AG14000AY111999AY211999GF105991021021017501061001MA1999999100241MD1999999-0231MW1021REMSYN011333   59023EQDQ01  00003PRCP99
0156829940999991992061300004-09667-035700FM-12+008999999V0209991C00001012001CN9999999N9+02361+02101101231ADDAA106000091AG10000AY101999AY211999GF105991051011012501001001KA1999M+02861MA1999999100201MD1999999-0271MW1021REMSYN017333   10286 59027EQDQ01  00003PRCP99
0137829940999991992061518004-09667-035700FM-12+008999999V0200901N00571045001CN0500001N9+02661+02101101611ADDAA106000091AG14000AY101999AY221999GF106991031031012501041001MA1999999100591MD1999999+0001MW1031REMSYN011333   58000EQDQ01  00003PRCP99
0162829940999991992061612004-09667-035700FM-12+008999999V0201801N00511045001CN0200001N9+02581+02001101791ADDAA124005091AG10013AY191999AY211999GF106991031031008001061001KA1999N+01901MA1999999100761MD1999999+0121MW1031REMSYN023333   20190 58012 60054EQDQ01  00503PRCP99
0143829940999991992061618004-09667-035700FM-12+008999999V0201801N00511045001CN0200001N9+02641+02101101731ADDAA106002091AG10015AY191999AY211999GF107991031071008001021001MA1999999100701MD1999999+0111MW1601REMSYN017333   58011 60021EQDQ01  00203PRCP99
0162829940999991992061700004-09667-035700FM-12+008999999V0201801N00311045001CN9999999N9+02401+02001101831ADDAA106004091AG10015AY191999AY211999GF107991031071008001021001KA1999M+02651MA1999999100801MD1999999+0191MW1601REMSYN023333   10265 58019 60041EQDQ01  00403PRCP99
0162829940999991992061712004-09667-035700FM-12+008999999V0200901N00511045001CN0200001N9+02601+02001101771ADDAA124013091AG10013AY191999AY211999GF106991031031008001061001KA1999N+01961MA1999999100741MD1999999-0021MW1031REMSYN023333   20196 59002 60134EQDQ01  01303PRCP99
0143829940999991992061718004-09667-035700FM-12+008999999V0201801N00511045001CN0200001N9+02631+02001101631ADDAA106003091AG10013AY191999AY211999GF106991031041008001041001MA1999999100601MD1999999-0101MW1031REMSYN017333   59010 60031EQDQ01  00303PRCP99
0162829940999991992061812004-09667-035700FM-12+008999999V0201401N00311045001CN0500001N9+02601+01101101381ADDAA124007091AG10013AY191999AY211999GF106991041021012501061001KA1999N+01981MA1999999100361MD1999999-0281MW1031REMSYN023333   20198 59028 60074EQDQ01  00703PRCP99
0137829940999991992061818004-09667-035700FM-12+008999999V0201401N00411220001CN0500001N9+02781+02001101281ADDAA106000091AG14000AY101999AY211999GF104991041021012501001001MA1999999100261MD1999999-0341MW1021REMSYN011333   59034EQDQ01  00003PRCP99
0156829940999991992061900004-09667-035700FM-12+008999999V0200501N00101220001CN9999999N9+02371+02101101331ADDAA106000091AG10000AY101999AY201999GF103991031011008001001001KA1999M+02821MA1999999100301MD1999999-0401MW1021REMSYN017333   10282 59040EQDQ01  00003PRCP99
0156829940999991992061912004-09667-035700FM-12+008999999V0200901N00101045001CN0500001N9+02621+02101101341ADDAA106000091AG14000AY111999AY211999GF106991021011012501041001KA1999N+01861MA1999999100321MD1999999-0041MW1031REMSYN017333   20186 59004EQDQ01  00003PRCP99
0137829940999991992061918004-09667-035700FM-12+008999999V0200501N00101045001CN0500001N9+02821+02001999999ADDAA106013091AG10000AY101999AY211999GF105991041021017501041001MA1999999100291MD1999999+0031MW1021REMSYN011333   58003EQDQ01  01303PRCP99
0156829940999991992062000004-09667-035700FM-12+008999999V0202301N00101007501CN9999999N9+02441+02101101291ADDAA106000091AG10000AY111999AY211999GF106991061021008001001001KA1999M+02881MA1999999100261MD1999999-0041MW1021REMSYN017333   10288 59004EQDQ01  00003PRCP99
0162829940999991992062012004-09667-035700FM-12+008999999V0200901N00051045001CN0100001N9+02321+02301101341ADDAA106032091AG10018AY191999AY211999GF108991041071012501021999KA1999N+01801MA1999999100311MD1999999-0011MW1611REMSYN023333   20180 59001 60321EQDQ01  03203PRCP99
0143829940999991992062018004-09667-035700FM-12+008999999V0200501N00151045001CN0100001N9+02361+02301101361ADDAA106062091AG10018AY191999AY211999GF108991041071008001021999MA1999999100341MD1999999+0051MW1611REMSYN017333   58005 60621EQDQ01  06203PRCP99
0162829940999991992062100004-09667-035700FM-12+008999999V0200501N00051007501CN9999999N9+02261+02201101371ADDAA106068091AG19018AY191999AY211999GF108991051071008001021999KA1999M+02461MA1999999100341MD1999999-0151MW1611REMSYN023333   10246 59015 60681EQDQ01  06803PRCP99
0162829940999991992062112004-09667-035700FM-12+008999999V0200501N00101045001CN0500001N9+02471+02301101331ADDAA124145091AG10013AY191999AY211999GF106991021021012501061001KA1999N+01821MA1999999100301MD1999999-0111MW1031REMSYN023333   20182 59011 61454EQDQ01  14503PRCP99
0153829940999991992062118004-09667-035700FM-12+008999999V0201401N00361045001CN0500001N9+02621+02101101331ADDAA106000091AG10000AY101999AY211999GF106991021021012501041001MA1999999999999MD1999999-0041MW1021REMSYN011 333 59004?EQDQ01 103003APOSP Q02  00003PRCP99
0156829940999991992062200004-09667-035700FM-12+008999999V0209991C00001220001CN9999999N9+02241+02101101321ADDAA106000091AG10000AY111999AY211999GF103991031021012501001001KA1999M+02781MA1999999100291MD1999999-0051MW1031REMSYN017333   10278 59005EQDQ01  00003PRCP99
0162829940999991992062218004-09667-035700FM-12+008999999V0200901N00211045001CN0200001N9+02651+02101101691ADDAA124004091AG10013AY191999AY211999GF106991031031008001061001KA1999N+01881MA1999999100671MD1999999+0371MW1031REMSYN023333   20188 58037 60044EQDQ01  00403PRCP99
0162829940999991992062300004-09667-035700FM-12+008999999V0200901N00311045001CN9999999N9+02401+02101101741ADDAA106010091AG10025AY191999AY211999GF107991031071008001021001KA1999M+02701MA1999999100711MD1999999+0421MW1641REMSYN023333   10270 58042 60101EQDQ01  01003PRCP99
0162829940999991992062312004-09667-035700FM-12+008999999V0201801N00311045001CN0100001N9+02401+02201101771ADDAA124048091AG10015AY191999AY211999GF107991041071008001021001KA1999N+01801MA1999999100741MD1999999+0071MW1601REMSYN023333   20180 58007 60484EQDQ01  04803PRCP99
0162829940999991992062400004-09667-035700FM-12+008999999V0200901N00211045001CN9999999N9+02351+02101101761ADDAA106008091AG10013AY191999AY211999GF106991021031008001061001KA1999M+02601MA1999999100731MD1999999+0021MW1031REMSYN023 333 10260 58002 60081?EQDQ01  00803PRCP99
0162829940999991992062412004-09667-035700FM-12+008999999V0201801N00051045001CN0500001N9+02451+02101101791ADDAA124069091AG10013AY191999AY211999GF105991021031008001061001KA1999N+01801MA1999999100761MD1999999+0021MW1031REMSYN023 333 20180 58002 60694?EQDQ01  06903PRCP99
0137829940999991992062418004-09667-035700FM-12+008999999V0200901N00311045001CN0200001N9+02631+01901101601ADDAA106000091AG14000AY101999AY221999GF106991021031008001041001MA1999999100581MD1999999+0001MW1031REMSYN011333   58000EQDQ01  00003PRCP99
0162829940999991992062500004-09667-035700FM-12+008999999V0201801N00151045001CN9999999N9+02421+02001101731ADDAA106005091AG10015AY191999AY211999GF107991031071008001021001KA1999M+02651MA1999999100701MD1999999-0031MW1601REMSYN023333   10265 59003 60051EQDQ01  00503PRCP99
0162829940999991992062512004-09667-035700FM-12+008999999V0200501N00151045001CN0100001N9+02401+02101101511ADDAA124013091AG10013AY191999AY211999GF108991041071008001041999KA1999N+01821MA1999999100481MD1999999-0281MW1031REMSYN023 333 20182 59028 60134?EQDQ01  01303PRCP99
0126829940999991992062600004-09667-035700FM-12+008999999V0200901N00101045001CN9999999N9+02281+02201101381ADDAG12013AY191999AY211999GF108991041071012501041999KA1999M+02791MA1999999100351MD1999999-0351MW1031REMSYN017 333 10279 59035?
0162829940999991992062612004-09667-035700FM-12+008999999V0200901N00361045001CN0200001N9+02581+02301101311ADDAA124020091AG10013AY191999AY211999GF107991041031017501041001KA1999N+01861MA1999999100281MD1999999-0201MW1031REMSYN023 333 20186 59020 60204?EQDQ01  02003PRCP99
0156829940999991992062700004-09667-035700FM-12+008999999V0209991C00001045001CN9999999N9+02261+02201101411ADDAA106000091AG10000AY111999AY221999GF106991021021012501041001KA1999M+02901MA1999999100381MD1999999+0031MW1031REMSYN017 333 10290 58003?EQDQ01  00003PRCP99
0162829940999991992062712004-09667-035700FM-12+008999999V0200801N00261045001CN0500001N9+02601+02301101341ADDAA124028091AG10013AY191999AY211999GF106991021021012501061001KA1999N+01841MA1999999100321MD1999999+0041MW1031REMSYN023 333 20184 58004 60284?EQDQ01  02803PRCP99
0135829940999991992062718004-09667-035700FM-12+008999999V0201401N00361045001CN0500001N9+02761+02201101251ADDAA106000491AA299000591AG10013AY191999AY211999GF106991041031012501061001MA1999999100241MD1999999+0061MW1031REMSYN017 333 58006 69941?
0162829940999991992062800004-09667-035700FM-12+008999999V0203201N00051045001CN9999999N9+02301+02201101291ADDAA124002091AG10013AY191999AY211999GF107991041071012501041999KA1999M+02861MA1999999100261MD1999999-0121MW1031REMSYN023 333 10286 59012 60024?EQDQ01  00203PRCP99
0162829940999991992062812004-09667-035700FM-12+008999999V0200901N00101045001CN0200001N9+02641+02101101321ADDAA106008091AG10013AY191999AY211999GF107991041031012501041001KA1999N+01861MA1999999100301MD1999999-0021MW1031REMSYN023 333 20186 59002 60081?EQDQ01  00803PRCP99
0135829940999991992062818004-09667-035700FM-12+008999999V0201401N00101045001CN0200001N9+02741+02201101311ADDAA106000691AA299000591AG10013AY191999AY211999GF107991041031012501041001MA1999999100301MD1999999+0121MW1031REMSYN017 333 58012 69961?
0162829940999991992062900004-09667-035700FM-12+008999999V0200501N00101045001CN9999999N9+02771+02201101321ADDAA106000191AG10013AY191999AY211999GF107991021021008001061001KA1999M+02871MA1999999100291MD1999999+0031MW1021REMSYN023 333 10287 58003 69921?EQDQ01  00013PRCP99
0137829940999991992062918004-09667-035700FM-12+008999999V0201801N00261045001CN0200001N9+02781+02101101581ADDAA106000091AG10000AY101999AY221999GF107991031041008001041001MA1999999100551MD1999999+0251MW1031REMSYN011 333 58025?EQDQ01  00003PRCP99
0131829940999991992063018004-09667-035700FM-12+008999999V0200901N00571220001CN0020001N9+03121+99999101181ADDAA106000091AG14000GA1001+999999999GF100991001001999999001001MA1999999100891MD1999999+0071REMSYN011 333 58007?EQDQ01  00003PRCP99
0156829940999991992070100004-09667-035700FM-12+008999999V0200901N00151007501CN9999999N9+02421+02001101631ADDAA106000091AG10000AY101999AY221999GF106991061031008001001001KA1999M+02751MA1999999100601MD1999999-0111MW1031REMSYN017 333 10275 59011?EQDQ01  00003PRCP99
0162829940999991992070112004-09667-035700FM-12+008999999V0200901N00101045001CN0200001N9+02571+02101101581ADDAA124005091AG13000AY101999AY211999GF105991031031008001061001KA1999N+01981MA1999999100551MD1999999-0051MW1031REMSYN023 333 20198 59005 60054?EQDQ01  00503PRCP99
0162829940999991992070212004-09667-035700FM-12+008999999V0201401N00211045001CN0200001N9+02671+02301101451ADDAA124005091AG10013AY191999AY211999GF107991041031012501061001KA1999N+01881MA1999999100431MD1999999-0121MW1031REMSYN023 333 20188 59012 60054?EQDQ01  00503PRCP99
0137829940999991992070218004-09667-035700FM-12+008999999V0201401N00211105001CN0200001N9+02821+02101101451ADDAA106000091AG10000AY101999AY211999GF105991021041012501001051MA1999999100441MD1999999+0011MW1021REMSYN011 333 58001?EQDQ01  00003PRCP99
0156829940999991992070300004-09667-035700FM-12+008999999V0200901N00051012001CN9999999N9+02381+02201101381ADDAA106000091AG10000AY101999AY211999GF105991051021012501001001KA1999M+02881MA1999999100351MD1999999-0261MW1021REMSYN017 333 10288 59026?EQDQ01  00003PRCP99
0156829940999991992070312004-09667-035700FM-12+008999999V0201401N00311045001CN0500001N9+02651+02201101301ADDAA106000091AG10000AY111999AY211999GF105991021021012501061001KA1999N+01871MA1999999100281MD1999999-0151MW1031REMSYN017 333 20187 59015?EQDQ01  00003PRCP99
0137829940999991992070318004-09667-035700FM-12+008999999V0200901N00311045001CN0500001N9+02781+02101101201ADDAA106000091AG10000AY111999AY211999GF106991021021012501061001MA1999999100191MD1999999-0241MW1031REMSYN011 333 59024?EQDQ01  00003PRCP99
0156829940999991992070400004-09667-035700FM-12+008999999V0200501N00101220001CN9999999N9+02271+02201101341ADDAA106000091AG10000AY101999AY201999GF103991031011012501001001KA1999M+02841MA1999999100311MD1999999-0041MW1021REMSYN017 333 10284 59004?EQDQ01  00003PRCP99
0142829940999991992070912004-09667-035700FM-12+008999999V0201401N00261045001CN0500001N9+02721+02101101691ADDAA124007091AG10013AY191999AY211999GF106991041021012501061001KA1999N+01901MA1999999100671MW1031REMSYN017 333 20190 60074?EQDQ01  00703PRCP99
0123829940999991992070918004-09667-035700FM-12+008999999V0200901N00361045001CN0100001N9+02751+02201101591ADDAA106000191AG10013AY191999AY211999GF108991041031012501041999MA1999999100571MW1021REMSYN011 333 69911?EQDQ01  00013PRCP99
0142829940999991992071000004-09667-035700FM-12+008999999V0209991C00001045001CN9999999N9+02261+02201101481ADDAA106004091AG10013AY191999AY211999GF108991021071012501041999KA1999M+02781MA1999999100451MW1031REMSYN017 333 10278 60041?EQDQ01  00403PRCP99
0162829940999991992071012004-09667-035700FM-12+008999999V0200901N00311045001CN0500001N9+02541+02101101581ADDAA124004091AG10013AY191999AY211999GF106991041031012501061001KA1999N+01821MA1999999100561MD1999999-0111MW1031REMSYN023 333 20182 59011 60044?EQDQ01  00403PRCP99
0137829940999991992071018004-09667-035700FM-12+008999999V0201401N00461012001CN0500001N9+02601+01901101661ADDAA106000091AG10000AY111999AY211999GF105991051011012501001001MA1999999100641MD1999999-0031MW1021REMSYN011 333 59003?EQDQ01  00003PRCP99
0156829940999991992071100004-09667-035700FM-12+008999999V0200501N00051015001CN9999999N9+02241+02201101601ADDAA106000091AG10000AY101999AY211999GF105991051021017501001001KA1999M+02801MA1999999100571MD1999999+0121MW1021REMSYN017 333 10280 58012?EQDQ01  00003PRCP99
0131829940999991992071418004-09667-035700FM-12+008999999V0200901N00671220001CN0020001N9+03121+99999101061ADDAA106000091AG14000GA1001+999999999GF100991001001999999001001MA1999999100871MD1999999+0001REMSYN011 333 58000?EQDQ01  00003PRCP99
0142829940999991992071512004-09667-035700FM-12+008999999V0200501N00101045001CN0100001N9+02501+02301101361ADDAA124015091AG10013AY191999AY211999GF108991041071012501041999KA1999N+01801MA1999999100341MW1031REMSYN017 333 20180 60154?EQDQ01  01503PRCP99
0156829940999991992071612004-09667-035700FM-12+008999999V0202301N00211012001CN0500001N9+02561+02201101771ADDAA106000091AG10000AY121999AY221999GF106991051021012501001001KA1999N+01861MA1999999100761MD1999999+0421MW1031REMSYN017 333 20186 58042?EQDQ01  00003PRCP99
0137829940999991992071618004-09667-035700FM-12+008999999V0201401N00211045001CN0500001N9+02621+02101101711ADDAA106000091AG10000AY121999AY221999GF107991021021012501061001MA1999999100701MD1999999+0381MW1031REMSYN011 333 58038?EQDQ01  00003PRCP99
0136829940999991992071700004-09667-035700FM-12+008999999V0200901N00101220001CN9999999N9+02301+02201101561ADDAA106000091AG10000AY101999AY201999GF104991041011012501001001KA1999M+02691MA1999999100531MW1011REMSYN011 333 10269?EQDQ01  00003PRCP99
0143829940999991992071718004-09667-035700FM-12+008999999V0201401N00311220001CN0500001N9+02801+01801101451ADDAA106002091AG10013AY191999AY211999GF104991041011012501001001MA1999999100441MD1999999-0261MW1031REMSYN017 333 59026 60021?EQDQ01  00203PRCP99
0156829940999991992071800004-09667-035700FM-12+008999999V0200501N00101220001CN9999999N9+02281+02201101451ADDAA106000091AG10000AY101999AY201999GF104991041021017501001001KA1999M+02861MA1999999100421MD1999999-0111MW1021REMSYN017 333 10286 59011?EQDQ01  00003PRCP99
0162829940999991992071812004-09667-035700FM-12+008999999V0200901N00101045001CN0100001N9+02461+02201101381ADDAA124004091AG10013AY191999AY211999GF106991041071012501041999KA1999N+01871MA1999999100361MD1999999-0141MW1031REMSYN023 333 20187 59014 60044?EQDQ01  00403PRCP99
0143829940999991992071818004-09667-035700FM-12+008999999V0200501N00101045001CN0100001N9+02561+02501101411ADDAA106008091AG10013AY191999AY211999GF108991041071012501041999MA1999999100391MD1999999-0051MW1031REMSYN017 333 59005 60081?EQDQ01  00803PRCP99
0162829940999991992071912004-09667-035700FM-12+008999999V0201401N00361045001CN0100001N9+02381+02301101441ADDAA124020091AG10013AY191999AY211999GF108991041071012501041999KA1999N+01781MA1999999100411MD1999999+0021MW1031REMSYN023 333 20178 58002 60204?EQDQ01  02003PRCP99
0143829940999991992071918004-09667-035700FM-12+008999999V0200901N00101045001CN0100001N9+02601+02401101401ADDAA106002091AG10013AY191999AY211999GF107991041031012501061001MA1999999100381MD1999999+0021MW1031REMSYN017 333 58002 60021?EQDQ01  00203PRCP99
0162829940999991992072000004-09667-035700FM-12+008999999V0201401N00051045001CN9999999N9+02221+02101101491ADDAA106002091AG10013AY191999AY211999GF107991031041012501061001KA1999M+02721MA1999999100461MD1999999+0051MW1031REMSYN023 333 10272 58005 60021?EQDQ01  00203PRCP99
0142829940999991992072112004-09667-035700FM-12+008999999V0201401N00311045001CN0500001N9+02781+02101101331ADDAA124010091AG10013AY191999AY211999GF106991021021012501061001KA1999N+01861MA1999999100321MW1031REMSYN017 333 20186 60104?EQDQ01  01003PRCP99
0123829940999991992072118004-09667-035700FM-12+008999999V0200901N00101045001CN0500001N9+02641+02301101401ADDAA106002091AG10013AY191999AY211999GF106991021031012501061001MA1999999100391MW1031REMSYN011 333 60021?EQDQ01  00203PRCP99
0162829940999991992072212004-09667-035700FM-12+008999999V0201401N00361045001CN0500001N9+02561+02101101381ADDAA106004091AG13000AY111999AY211999GF106991021021012501041001KA1999N+01881MA1999999100361MD1999999+0041MW1031REMSYN023 333 20188 58004 60041?EQDQ01  00403PRCP99
0137829940999991992072218004-09667-035700FM-12+008999999V0201401N00361220001CN0500001N9+02781+01801101381ADDAA106000091AG10000AY101999AY201999GF104991021011017501041001MA1999999100371MD1999999-0071MW1021REMSYN011 333 59007?EQDQ01  00003PRCP99
0156829940999991992072300004-09667-035700FM-12+008999999V0200901N00101220001CN9999999N9+02281+02201101391ADDAA106000091AG10000AY101999AY201999GF104991021021012501061001KA1999M+02861MA1999999100361MD1999999-0021MW1021REMSYN017 333 10286 59002?EQDQ01  00003PRCP99
0156829940999991992072312004-09667-035700FM-12+008999999V0201401N00311012001CN0500001N9+02761+02101101421ADDAA106000091AG10000AY101999AY211999GF105991051021012501001001KA1999N+01901MA1999999100411MD1999999+0051MW1031REMSYN017 333 20190 58005?EQDQ01  00003PRCP99
