0124833390999991992011118004-14050-042617FM-12+088299999V0202701N00311045001CN0200001N9+02301+02001100771ADDAA106013091AG10003AY161061AY261061GF108991041021004501021999MA1999999091081MD1999999-0011MW1021REMSYN017333   59001 60131
0115833390999991992012112004-14050-042617FM-12+088299999V0201401N00411004201CN0200001N9+02191+02011101331ADDAA106000091AG14000GF108991051021004501021999KA1240N+01881MA1999999091551MD1999999-0051REMSYN017333   20188 59005
0096833390999991992031618004-14050-042617FM-12+088299999V0209999999999220001CN0200001N9+02621+01671101201ADDAA106000091AG14000GF104991041021004501001001MA1999999091481MD1999999+0081REMSYN011333   58008
0115833390999991992031712004-14050-042617FM-12+088299999V0209999999999004201CN0200001N9+02121+01891101631ADDAA106000091AG14000GF106991061021004501001001KA1240N+01781MA1999999091861MD1999999+0091REMSYN017333   20178 58009
0096833390999991992031718004-14050-042617FM-12+088299999V0209999999999004201CN0200001N9+02701+01781101411ADDAA106000091AG14000GF105991051021004501001001MA1999999091691MD1999999+0211REMSYN011333   58021
0115833390999991992031800004-14050-042617FM-12+088299999V0209999999999220001CN9999999N9+02301+01721101451ADDAA106000091AG14000GF100991001001999999001001KA1240M+02751MA1999999091701MD1999999+0071REMSYN017333   10275 58007
0115833390999991992031812004-14050-042617FM-12+088299999V0209999999999220001CN0200001N9+02221+01691101091ADDAA106000091AG14000GF104991041021004501001001KA1240N+01701MA1999999092021MD1999999+0161REMSYN017333   20170 58016
0096833390999991992031818004-14050-042617FM-12+088299999V0209999999999220001CN0200001N9+02681+01701101511ADDAA106000091AG14000GF104991041021004501001001MA1999999091771MD1999999+0081REMSYN011333   58008
0115833390999991992031900004-14050-042617FM-12+088299999V0209999999999220001CN9999999N9+02241+01691101481ADDAA106000091AG14000GF100991001001999999001001KA1240M+02741MA1999999091741MD1999999+0041REMSYN017333   10274 58004
0115833390999991992031912004-14050-042617FM-12+088299999V0209999999999004201CN0200001N9+02101+01821101591ADDAA106000091AG14000GF106991061021004501001001KA1240N+01781MA1999999091821MD1999999-0201REMSYN017333   20178 59020
0096833390999991992031918004-14050-042617FM-12+088299999V0209999999999220001CN0200001N9+02601+01741999999ADDAA106000091AG14000GF103991021011004501001091MA1999999091261MD1999999-0181REMSYN011333   59018
0115833390999991992032000004-14050-042617FM-12+088299999V0209999999999220001CN9999999N9+02121+01931101311ADDAA106000091AG14000GF100991001001999999001001KA1240M+02641MA1999999091561MD1999999-0181REMSYN017333   10264 59018
0115833390999991992032012004-14050-042617FM-12+088299999V0209999999999004201CN0200001N9+02101+01761101371ADDAA106000091AG14000GF106991061021004501001001KA1240N+01701MA1999999091601MD1999999-0221REMSYN017333   20170 59022
0096833390999991992032018004-14050-042617FM-12+088299999V0209999999999004201CN0200001N9+02621+01731101021ADDAA106000091AG14000GF105991051021004501001001MA1999999091321MD1999999-0151REMSYN011333   59015
0115833390999991992032100004-14050-042617FM-12+088299999V0209999999999220001CN9999999N9+02101+01721101151ADDAA106000091AG14000GF100991001001999999001001KA1240M+02671MA1999999091411MD1999999-0151REMSYN017333   10267 59015
0115833390999991992032112004-14050-042617FM-12+088299999V0209999999999004201CN0200001N9+02101+01621101361ADDAA106000091AG14000GF106991061021004501001001KA1240N+01721MA1999999091601MD1999999+0001REMSYN017333   20172 58000
0096833390999991992032118004-14050-042617FM-12+088299999V0209999999999004201CN0200001N9+02461+01661101041ADDAA106000091AG14000GF106991061021004501001001MA1999999091321MD1999999+0001REMSYN011333   58000
0115833390999991992032200004-14050-042617FM-12+088299999V0209999999999004201CN9999999N9+02141+01641101281ADDAA106000091AG14000GF105991051021004501001001KA1240M+02491MA1999999091531MD1999999+0121REMSYN017333   10249 58012
0115833390999991992032212004-14050-042617FM-12+088299999V0209999999999004201CN0200001N9+02001+01801101511ADDAA106000091AG14000GF108991081021004501999999KA1240N+01671MA1999999091731MD1999999+0131REMSYN017333   20167 58013
0096833390999991992032218004-14050-042617FM-12+088299999V0209999999999045001CN0200001N9+02451+01611101251ADDAA106000091AG14000GF105991031021004501031001MA1999999091511MD1999999+0191REMSYN011333   58019
0115833390999991992032300004-14050-042617FM-12+088299999V0209999999999220001CN9999999N9+02081+01641101441ADDAA106000091AG14000GF102991021021004501001001KA1240M+02511MA1999999091661MD1999999+0131REMSYN017333   10251 58013
0137833390999991992032312004-14050-042617FM-12+088299999V0209999999999004201CN0200001N9+01991+99999101681ADDAA106000091AG10000AY101061AY201061GF106991061021004501001001KA1240N+01681MA1999999091861MD1999999+0131MW1101REMSYN017333   20168 58013
0096833390999991992032318004-14050-042617FM-12+088299999V0209999999999220001CN0200001N9+02591+99999101261ADDAA106000091AG14000GF102991021021004501001001MA1999999091541MD1999999+0031REMSYN011333   58003
0115833390999991992032400004-14050-042617FM-12+088299999V0209999999999220001CN9999999N9+02071+99999101451ADDAA106000091AG14000GF100991001001999999001001KA1240M+02631MA1999999091671MD1999999+0011REMSYN017333   10263 58001
0137833390999991992032412004-14050-042617FM-12+088299999V0209999999999004201CN0200001N9+02001+99999101501ADDAA106000091AG10000AY101061AY201061GF106991061021004501001001KA1240N+01701MA1999999091721MD1999999-0141MW1101REMSYN017333   20170 59014
0096833390999991992032418004-14050-042617FM-12+088299999V0209999999999220001CN0200001N9+02591+99999999999ADDAA106000091AG14000GF103991021021004501021001MA1999999091441MD1999999-0101REMSYN011333   59010
0115833390999991992032500004-14050-042617FM-12+088299999V0209999999999220001CN9999999N9+02161+99999101341ADDAA106000091AG14000GF100991001001999999001001KA1240M+02631MA1999999091581MD1999999-0091REMSYN017333   10263 59009
0137833390999991992032512004-14050-042617FM-12+088299999V0209999999999004201CN0040001N9+02051+99999101441ADDAA106000091AG10000AY101061AY201061GF107991061021004501021999KA1240N+01721MA1999999091671MD1999999-0051MW1101REMSYN017333   20172 59005
0096833390999991992032518004-14050-042617FM-12+088299999V0209999999999220001CN0200001N9+02661+99999999999ADDAA106000091AG14000GF103991031021004501001001MA1999999091341MD1999999-0101REMSYN011333   59010
0115833390999991992032600004-14050-042617FM-12+088299999V0209999999999220001CN9999999N9+02271+99999101241ADDAA106000091AG14000GF100991001001999999001001KA1240M+02731MA1999999091501MD1999999-0081REMSYN017333   10273 59008
0137833390999991992032612004-14050-042617FM-12+088299999V0201401N00411004201CN0200001N9+02101+99999101551ADDAA106000091AG10000AY101061AY201061GF106991061021004501001001KA1240N+01701MA1999999091791MD1999999+0121MW1101REMSYN017333   20170 58012
0096833390999991992032618004-14050-042617FM-12+088299999V0200901N00511220001CN0200001N9+02591+99999999999ADDAA106000091AG14000GF102991021021004501001001MA1999999091441MD1999999+0101REMSYN011333   58010
0115833390999991992032700004-14050-042617FM-12+088299999V0201401N00411220001CN9999999N9+02231+99999101381ADDAA106000091AG14000GF100991001001999999001001KA1240M+02651MA1999999091681MD1999999+0131REMSYN017333   10265 58013
0137833390999991992032712004-14050-042617FM-12+088299999V0201401N00721004201CN0040001N9+01981+99999101691ADDAA106000091AG10000AY101061AY201061GF106991051021004501021001KA1240N+01761MA1999999091901MD1999999+0111MW1101REMSYN017333   20176 58011
0096833390999991992032718004-14050-042617FM-12+088299999V0201401N00461220001CN0200001N9+02631+99999999999ADDAA106000091AG14000GF103991031021004501001001MA1999999091651MD1999999+0211REMSYN011333   58021
0137833390999991992032800004-14050-042617FM-12+088299999V0209999999999220001CN9999999N9+02141+99999101581ADDAA106000091AG10000AY101061AY201061GF102991021021004501001001KA1240M+02661MA1999999091781MD1999999+0131MW1101REMSYN017333   10266 58013
0137833390999991992032812004-14050-042617FM-12+088299999V0201401N00461004201CN0200001N9+01981+99999101721ADDAA106000091AG14000AY101061AY201061GF106991061021004501001001KA1240N+01641MA1999999091911MD1999999+0011MW1101REMSYN017333   20164 58001
0096833390999991992032818004-14050-042617FM-12+088299999V0201401N00621220001CN0200001N9+02541+99999999999ADDAA106000091AG14000GF102991011021004501001021MA1999999091651MD1999999+0001REMSYN011333   58000
0115833390999991992032900004-14050-042617FM-12+088299999V0201401N00461220001CN9999999N9+02181+99999101571ADDAA106000091AG14000GF104991041021004501001001KA1240M+02631MA1999999091791MD1999999+0011REMSYN017333   10263 58001
0137833390999991992032912004-14050-042617FM-12+088299999V0201401N00771004201CN0040001N9+01971+99999101721ADDAA106000091AG14000AY101061AY201061GF108991081051004501999999KA1240N+01681MA1999999091911MD1999999+0001MW1101REMSYN017333   20168 58000
0096833390999991992032918004-14050-042617FM-12+088299999V0201401N00311220001CN0200001N9+02541+99999999999ADDAA106000091AG14000GF102991021021004501001001MA1999999091581MD1999999-0071REMSYN011333   59007
0115833390999991992033000004-14050-042617FM-12+088299999V0201401N00671220001CN9999999N9+02351+99999101411ADDAA106000091AG14000GF100991001001999999001001KA1240M+02591MA1999999091651MD1999999-0141REMSYN017333   10259 59014
0115833390999991992033012004-14050-042617FM-12+088299999V0201401N00511004201CN0200001N9+02061+01841101551ADDAA106000091AG14000GF106991061021004501001001KA1240N+01781MA1999999091791MD1999999-0121REMSYN017333   20178 59012
0096833390999991992033018004-14050-042617FM-12+088299999V0201401N00511220001CN0200001N9+02561+01851101281ADDAA106000091AG14000GF104991041021004501001001MA1999999091551MD1999999-0031REMSYN011333   59003
0115833390999991992033100004-14050-042617FM-12+088299999V0201401N00671004201CN9999999N9+02181+01941101441ADDAA106000091AG14000GF106991061021004501001001KA1240M+02651MA1999999091671MD1999999+0021REMSYN017333   10265 58002
0115833390999991992033112004-14050-042617FM-12+088299999V0201401N00821220001CN0200001N9+02061+01621101451ADDAA106000091AG14000GF102991021021004501001001KA1240N+01601MA1999999091641MD1999999-0151REMSYN017333   20160 59015
0096833390999991992033118004-14050-042617FM-12+088299999V0200901N00571220001CN0200001N9+02701+01691101121ADDAA106000091AG14000GF102991021021004501001001MA1999999091431MD1999999-0121REMSYN011333   59012
0115833390999991992040100004-14050-042617FM-12+088299999V0201401N00411220001CN9999999N9+02301+01791101321ADDAA106000091AG14000GF100991001001999999001001KA1240M+02741MA1999999091581MD1999999-0091REMSYN017333   10274 59009
0115833390999991992040200004-14050-042617FM-12+088299999V0201401N00511220001CN9999999N9+02241+01821101231ADDAA106000091AG14000GF100991001001999999001001KA1240M+02651MA1999999091491MD1999999-0091REMSYN017333   10265 59009
0143833390999991992040212004-14050-042617FM-12+088299999V0201401N00511004201CN0200001N9+02021+01851101461ADDAA124000591AG10002AY161061AY241061GF108991051051004501021999KA1240N+01741MA1999999091711MD1999999+0011MW1101REMSYN023333   20174 58001 69954
0115833390999991992040218004-14050-042617FM-12+088299999V0201401N003119999999N0200001N9+02601+01921101011ADDAA106000091AG14000GF106991999021004501001001MA1999999091311MD1999999-0031REMSYN011333   59003EQDQ01+000032SCOTLC
0115833390999991992040300004-14050-042617FM-12+088299999V0209991C00001004201CN9999999N9+02181+01941101331ADDAA106000091AG14000GF106991061021004501001001KA1240M+02631MA1999999091571MD1999999+0081REMSYN017333   10263 58008
0137833390999991992040312004-14050-042617FM-12+088299999V0201401N00261004201CN0200001N9+02121+02001101481ADDAA106000091AG10000AY101061AY221061GF106991061021004501001001KA1240N+01691MA1999999091721MD1999999+0011MW1101REMSYN017333   20169 58001
0096833390999991992040318004-14050-042617FM-12+088299999V0201401N00511004201CN0200001N9+02741+01811101011ADDAA106000091AG14000GF105991051021004501001001MA1999999091341MD1999999+0031REMSYN011333   58003
0115833390999991992040400004-14050-042617FM-12+088299999V0209991C00001220001CN9999999N9+02261+01941101331ADDAA106000091AG14000GF100991001001999999001001KA1240M+02751MA1999999091591MD1999999+0021REMSYN017333   10275 58002
0137833390999991992040412004-14050-042617FM-12+088299999V0201401N00361004201CN0200001N9+02141+01911101581ADDAA106000091AG19000AY121061AY221061GF106991061021004501001001KA1240N+01661MA1999999091821MD1999999+0101MW1101REMSYN017333   20166 58010
0137833390999991992040612004-14050-042617FM-12+088299999V0201401N00261004201CN0040001N9+02021+01921101611ADDAA106000091AG10000AY101061AY201061GF107991061021004501021999KA1240N+01751MA1999999091811MD1999999-0071MW1101REMSYN017333   20175 59007
0115833390999991992040800004-14050-042617FM-12+088299999V0209991C00001220001CN9999999N9+02221+01511101221ADDAA106000091AG14000GF100991001001999999001001KA1240M+02781MA1999999091501MD1999999-0031REMSYN017333   10278 59003
0137833390999991992040912004-14050-042617FM-12+088299999V0200901N00311220001CN0200001N9+02281+01921101411ADDAA106000091AG10000AY101061AY201061GF102991021021004501001001KA1240N+01561MA1999999091671MD1999999+0081MW1101REMSYN017333   20156 58008
0096833390999991992040918004-14050-042617FM-12+088299999V0201401N00461220001CN0200001N9+02851+01191101061ADDAA106000091AG14000GF102991021021004501001001MA1999999091381MD1999999+0021REMSYN011333   58002
0115833390999991992041000004-14050-042617FM-12+088299999V0200901N00051220001CN9999999N9+02251+01641101201ADDAA106000091AG14000GF100991001001999999001001KA1240M+02911MA1999999091481MD1999999-0011REMSYN017333   10291 59001
0137833390999991992041012004-14050-042617FM-12+088299999V0201401N00411004201CN0040001N9+02101+01951101371ADDAA106000091AG14000AY101061AY201061GF108991081051004501999999KA1240N+01801MA1999999091621MD1999999-0051MW1101REMSYN017333   20180 59005
0096833390999991992041118004-14050-042617FM-12+088299999V0201401N00511105001CN0200001N9+02401+01861101041ADDAA106000091AG14000GF105991041021004501001021MA1999999091321MD1999999-0131REMSYN011333   59013
0137833390999991992041200004-14050-042617FM-12+088299999V0201401N00621220001CN9999999N9+02101+01861101181ADDAA106000091AG10000AY101061AY201061GF102991021021004501001001KA1240M+02431MA1999999091431MD1999999-0061MW1101REMSYN017333   10243 59006
0113833390999991992041212004-14050-042617FM-12+088299999V0201401N00511004201CN0040001N9+01921+01871101471ADDAA124000491AA299000591AG10000GF106991061021004501001001MA1999999091671MD1999999-0011REMSYN017333   59001 69944
0096833390999991992041218004-14050-042617FM-12+088299999V0200901N00461220001CN0200001N9+02551+01451101131ADDAA106000091AG14000GF102991021021004501001001MA1999999091411MD1999999+0091REMSYN011333   58009
0115833390999991992041300004-14050-042617FM-12+088299999V0201401N00311220001CN9999999N9+02081+01561101291ADDAA106000091AG14000GF102991021021004501001001KA1240M+02591MA1999999091521MD1999999+0091REMSYN017333   10259 58009
0115833390999991992041312004-14050-042617FM-12+088299999V0201401N00511004201CN0200001N9+02061+01741101411ADDAA106000091AG14000GF106991061021004501001001KA1240N+01691MA1999999091651MD1999999-0021REMSYN017333   20169 59002
0096833390999991992041318004-14050-042617FM-12+088299999V0201401N00511105001CN0200001N9+02521+01431101051ADDAA106000091AG14000GF106991021021004501031041MA1999999091341MD1999999-0071REMSYN011333   59007
0115833390999991992041400004-14050-042617FM-12+088299999V0201401N00101220001CN9999999N9+02121+01441999999ADDAA106000091AG14000GF102991011021004501001041KA1240M+02631MA1999999091631MD1999999+0111REMSYN017333   10263 58011
0115833390999991992041412004-14050-042617FM-12+088299999V0201401N00211004201CN0200001N9+02081+01761101471ADDAA106000091AG14000GF105991051021004501001001KA1240N+01441MA1999999091701MD1999999+0051REMSYN017333   20144 58005
0096833390999991992041418004-14050-042617FM-12+088299999V0200901N00211220001CN0200001N9+02801+01531100991ADDAA106000091AG14000GF103991031021004501001001MA1999999091291MD1999999-0051REMSYN011333   59005
0115833390999991992041500004-14050-042617FM-12+088299999V0201401N00311220001CN9999999N9+02221+01511101381ADDAA106000091AG14000GF100991001001999999001001KA1240M+02851MA1999999091541MD1999999-0091REMSYN017333   10285 59009
0115833390999991992041912004-14050-042617FM-12+088299999V0200901N00261220001CN0200001N9+02321+01961101231ADDAA106000091AG14000GF104991041021004501001001KA1240N+01681MA1999999091521MD1999999-0121REMSYN017333   20168 59012
0137833390999991992042012004-14050-042617FM-12+088299999V0203601N00051004201CN0040001N9+02141+02021101131ADDAA106000091AG14000AY101061AY201061GF107991061021004501021999KA1240N+01821MA1999999091421MD1999999-0101MW1101REMSYN017333   20182 59010
0096833390999991992042018004-14050-042617FM-12+088299999V0200901N00151004201CN0200001N9+02831+01711100601ADDAA106000091AG14000GF106991051021004501031001MA1999999090981MD1999999-0091REMSYN011333   59009
0126833390999991992042112004-14050-042617FM-12+088299999V0203601N00101004201CN0040001N9+02201+02051101291ADDAG12002AY161061AY261061GF108991081051004501999999KA1240N+01821MA1999999091551MD1999999+0131MW1101REMSYN017333   20182 58013
0126833390999991992042115004-14050-042617FM-12+088299999V0203601N00101004201CN0040001N9+02201+02051101291ADDAG12002AY161031AY261031GF108991081051004501999999KA1240N+01821MA1999999091551MD1999999+0131MW1011REMSYN017333   20182 58013
0096833390999991992042118004-14050-042617FM-12+088299999V0201801N00101004201CN0040001N9+02581+02101100981ADDAA106000091AG14000GF107991061021004501021999MA1999999091291MD1999999+0311REMSYN011333   58031
0115833390999991992042200004-14050-042617FM-12+088299999V0200901N00101004201CN9999999N9+02261+02211101371ADDAA106000091AG14000GF108991081051004501999999KA1240M+02771MA1999999091641MD1999999+0351REMSYN017333   10277 58035
0137833390999991992042212004-14050-042617FM-12+088299999V0201401N00621004201CN0200001N9+02171+02061101561ADDAA106000091AG10000AY101061AY201061GF106991061021004501001001KA1240N+01941MA1999999091801MD1999999+0251MW1101REMSYN017333   20194 58025
0137833390999991992042312004-14050-042617FM-12+088299999V0201401N00571004201CN0200001N9+02171+01901101451ADDAA106000091AG14000AY101061AY201061GF106991061021004501001001KA1240N+01851MA1999999091701MD1999999-0101MW1101REMSYN017333   20185 59010
0096833390999991992042318004-14050-042617FM-12+088299999V0200901N00511220001CN0200001N9+02561+01731101041ADDAA106000091AG14000GF103991031021004501001001MA1999999091351MD1999999-0171REMSYN011333   59017
0115833390999991992042400004-14050-042617FM-12+088299999V0201401N00101220001CN9999999N9+02201+01761101141ADDAA106000091AG14000GF100991001001999999001001KA1240M+02611MA1999999091421MD1999999-0201REMSYN017333   10261 59020
0137833390999991992042412004-14050-042617FM-12+088299999V0200901N00211004201CN0040001N9+01981+01931101271ADDAA106000091AG10000AY101061AY201061GF107991061021004501021999KA1240N+01641MA1999999091521MD1999999-0181MW1101REMSYN017333   20164 59018
0096833390999991992042418004-14050-042617FM-12+088299999V0201401N00361220001CN0200001N9+02651+01421100831ADDAA106000091AG14000GF103991031021004501001001MA1999999091151MD1999999-0201REMSYN011333   59020
0115833390999991992042500004-14050-042617FM-12+088299999V0201401N00621220001CN9999999N9+02251+01691101021ADDAA106000091AG14000GF100991001001999999001001KA1240M+02691MA1999999091291MD1999999-0131REMSYN017333   10269 59013
0137833390999991992042512004-14050-042617FM-12+088299999V0201401N00411004201CN0200001N9+02341+02011101301ADDAA106000091AG14000AY101061AY201061GF106991061021004501001001KA1240N+01581MA1999999091581MD1999999+0061MW1101REMSYN017333   20158 58006
0096833390999991992042518004-14050-042617FM-12+088299999V0201401N00461045001CN0200001N9+02681+01611101051ADDAA106000091AG14000GF105991041021004501021001MA1999999091351MD1999999+0201REMSYN011333   58020
0115833390999991992042600004-14050-042617FM-12+088299999V0201401N00261220001CN9999999N9+02301+01721101211ADDAA106000091AG14000GF100991001001999999001001KA1240M+02721MA1999999091501MD1999999+0211REMSYN017333   10272 58021
0115833390999991992042612004-14050-042617FM-12+088299999V0200901N00461004201CN0200001N9+02171+01631101681ADDAA106000091AG14000GF105991051021004501001001KA1240N+01801MA1999999091921MD1999999+0341REMSYN017333   20180 58034
0096833390999991992042618004-14050-042617FM-12+088299999V0200901N00361004201CN0200001N9+02481+01801101451ADDAA106000091AG14000GF107991061021004501021999MA1999999091711MD1999999+0361REMSYN011333   58036
0143833390999991992042700004-14050-042617FM-12+088299999V0200901N00261004201CN9999999N9+02051+01991101601ADDAA106000591AG19002AY161061AY261061GF108991081051004501999999KA1240M+02521MA1999999091821MD1999999+0321MW1101REMSYN023333   10252 58032 69951
0143833390999991992042712004-14050-042617FM-12+088299999V0200901N00621004201CN0200001N9+02161+01881101651ADDAA124001091AG10002AY161061AY221061GF106991061021004501001001KA1240N+01801MA1999999091861MD1999999-0061MW1021REMSYN023333   20180 59006 60014
0096833390999991992042718004-14050-042617FM-12+088299999V0200901N00511220001CN0200001N9+02641+01721101171ADDAA106000091AG14000GF103991031021004501001001MA1999999091451MD1999999-0261REMSYN011333   59026
0115833390999991992042800004-14050-042617FM-12+088299999V0202601N00151220001CN9999999N9+02181+01721101301ADDAA106000091AG14000GF100991001001999999001001KA1240M+02671MA1999999091551MD1999999-0271REMSYN017333   10267 59027
0115833390999991992042812004-14050-042617FM-12+088299999V0200501N00151220001CN0200001N9+02381+02011101211ADDAA106000091AG14000GF102991021021004501001001KA1240N+01721MA1999999091501MD1999999-0361REMSYN017333   20172 59036
0096833390999991992042818004-14050-042617FM-12+088299999V0201401N00151220001CN0200001N9+02741+01871100721ADDAA106000091AG14000GF103991031021004501001001MA1999999091061MD1999999-0391REMSYN011333   59039
0115833390999991992042900004-14050-042617FM-12+088299999V0201401N00511004201CN9999999N9+02241+01991101051ADDAA106000091AG14000GF106991061021004501001001KA1240M+02911MA1999999091351MD1999999-0201REMSYN017333   10291 59020
0137833390999991992042912004-14050-042617FM-12+088299999V0201401N00311004201CN0040001N9+02141+01931101321ADDAA106000091AG10000AY141061AY221061GF108991061051004501021999KA1240N+01841MA1999999091581MD1999999+0081MW1401REMSYN017333   20184 58008
0096833390999991992042918004-14050-042617FM-12+088299999V0201401N00411220001CN0200001N9+02701+01831100841ADDAA106000091AG14000GF102991021021004501001001MA1999999091171MD1999999+0111REMSYN011333   58011
0115833390999991992043000004-14050-042617FM-12+088299999V0201401N00101220001CN9999999N9+02241+01901101201ADDAA106000091AG14000GF103991031021004501001001KA1240M+02751MA1999999091471MD1999999+0121REMSYN017333   10275 58012
0115833390999991992043012004-14050-042617FM-12+088299999V0201401N00261004201CN0200001N9+02321+01961101381ADDAA106000091AG14000GF105991051021004501001001KA1240N+01731MA1999999091651MD1999999+0071REMSYN017333   20173 58007
0096833390999991992043018004-14050-042617FM-12+088299999V0201401N00311220001CN0200001N9+02761+01751101061ADDAA106000091AG14000GF103991031021004501001001MA1999999091381MD1999999-0211REMSYN011333   59021
0115833390999991992050100004-14050-042617FM-12+088299999V0209991C00001220001CN9999999N9+02321+01961101291ADDAA106000091AG14000GF100991001001999999001001KA1240M+02791MA1999999091571MD1999999+0101REMSYN017333   10279 58010
0115833390999991992050112004-14050-042617FM-12+088299999V0201401N00511220001CN0200001N9+02251+01981101641ADDAA106000091AG14000GF102991021021004501001001KA1240N+01721MA1999999091891MD1999999+0241REMSYN017333   20172 58024
0115833390999991992050200004-14050-042617FM-12+088299999V0209991C00001220001CN9999999N9+02161+01681101361ADDAA106000091AG14000GF100991001001999999001001KA1240M+02751MA1999999091621MD1999999+0051REMSYN017333   10275 58005
0137833390999991992050212004-14050-042617FM-12+088299999V0201401N00411045001CN0010001N9+01921+01821101841ADDAA106000091AG14000AY121061AY221061GF108991031051004501021999KA1240N+01601MA1999999092021MD1999999+0131MW1401REMSYN017333   20160 58013
0096833390999991992050218004-14050-042617FM-12+088299999V0201401N00411220001CN0200001N9+02581+01691101211ADDAA106000091AG14000GF104991041021004501001001MA1999999091501MD1999999+0051REMSYN011333   58005
0115833390999991992050300004-14050-042617FM-12+088299999V0209991C00001220001CN9999999N9+02041+01761101471ADDAA106000091AG14000GF100991001001999999001001KA1240M+02691MA1999999091671MD1999999+0051REMSYN017333   10269 58005
0115833390999991992050312004-14050-042617FM-12+088299999V0201401N00511004201CN0200001N9+02001+01851101461ADDAA106000091AG14000GF106991061021004501001001KA1240N+01671MA1999999091661MD1999999-0361REMSYN017333   20167 59036
0115833390999991992050318004-14050-042617FM-12+088299999V0200901N00511220001CN0200001N9+02561+01731999999ADDAA106000091AG14000GF103991031021004501001001MA1999999091301MD1999999-0201REMSYN011333   59020EQDQ01+100003APOSLP
0115833390999991992050400004-14050-042617FM-12+088299999V0201401N00311220001CN9999999N9+02181+01781101431ADDAA106000091AG14000GF102991021021004501001001KA1240M+02641MA1999999091461MD1999999-0211REMSYN017333   10264 59021
0143833390999991992050412004-14050-042617FM-12+088299999V0200901N00361004201CN0200001N9+02021+01901101401ADDAA112005091AG10002AY161061AY261061GF106991061021004501001001KA1240N+01761MA1999999091641MD1999999-0021MW1101REMSYN023333   20176 59002 60052
0096833390999991992050418004-14050-042617FM-12+088299999V0201401N00211004201CN0200001N9+02461+01661101001ADDAA106000091AG14000GF106991051021004501031001MA1999999091301MD1999999+0001REMSYN011333   58000
0126833390999991992050500004-14050-042617FM-12+088299999V0201401N00511004201CN9999999N9+02161+01861101181ADDAG12000AY101061AY201061GF108991081051004501999999KA1240M+02491MA1999999091431MD1999999-0031MW1501REMSYN017333   10249 59003
0137833390999991992050512004-14050-042617FM-12+088299999V0201401N00461004201CN0040001N9+01861+01731101351ADDAA106000091AG14000AY151061AY201061GF108991081051004501999999KA1240N+01661MA1999999091571MD1999999-0071MW1101REMSYN017333   20166 59007
0096833390999991992050518004-14050-042617FM-12+088299999V0201401N00411220001CN0200001N9+02641+00971100981ADDAA106000091AG14000GF102991021021004501001001MA1999999091281MD1999999-0021REMSYN011333   59002
0115833390999991992050600004-14050-042617FM-12+088299999V0201401N00621220001CN9999999N9+02181+01671101081ADDAA106000091AG14000GF100991001001999999001001KA1240M+02661MA1999999091331MD1999999-0101REMSYN017333   10266 59010
0137833390999991992050612004-14050-042617FM-12+088299999V0200901N00311004201CN0200001N9+02001+01801101291ADDAA106000091AG14000AY101061AY201061GF106991061021004501001001KA1240N+01641MA1999999091541MD1999999-0031MW1101REMSYN017333   20164 59003
0096833390999991992050618004-14050-042617FM-12+088299999V0201401N00411220001CN0200001N9+02621+01501100981ADDAA106000091AG14000GF102991011021004501001021MA1999999091271MD1999999-0011REMSYN011333   59001
0115833390999991992050700004-14050-042617FM-12+088299999V0201401N00411220001CN9999999N9+02231+01651101051ADDAA106000091AG14000GF103991031021004501001001KA1240M+02691MA1999999091321MD1999999+0041REMSYN017333   10269 58004
0115833390999991992050712004-14050-042617FM-12+088299999V0200901N00311220001CN0200001N9+02201+01801101331ADDAA106000091AG14000GF102991021021004501001001KA1240N+01601MA1999999091591MD1999999+0051REMSYN017333   20160 58005
0124833390999991992050718004-14050-042617FM-12+088299999V0202701N00051004201CN0040001N9+02351+02071100921ADDAA106001091AG10008AY191061AY261061GF107991061021004501021999MA1999999091211MD1999999-0061MW1171REMSYN017333   59006 60011
0137833390999991992050800004-14050-042617FM-12+088299999V0201401N00461220001CN9999999N9+02201+01671101111ADDAA106000091AG14007AY191061AY201061GF102991021021004501001001KA1240M+02771MA1999999091391MD1999999+0071MW1021REMSYN017333   10277 58007
0143833390999991992050812004-14050-042617FM-12+088299999V0201401N00211004201CN0200001N9+02101+01841101261ADDAA124001091AG10002AY161061AY261061GF106991061021004501001001KA1240N+01621MA1999999091531MD1999999+0061MW1101REMSYN023333   20162 58006 60014
0115833390999991992050818004-14050-042617FM-12+088299999V0201401N00261220001CN0200001N9+02691+99999100971ADDAA106000091AG14000GF104991041021004501001001MA1999999091271MD1999999+0061REMSYN011333   58006EQDQ01+026873ATOD  
0143833390999991992050900004-14050-042617FM-12+088299999V0201401N00211004201CN9999999N9+01821+01621101121ADDAA106001091AG19007AY191061AY261061GF108991081051004501999999KA1240M+02751MA1999999091351MD1999999+0041MW1131REMSYN023333   10275 58004 60011
0143833390999991992050912004-14050-042617FM-12+088299999V0201401N00101004201CN0040001N9+02041+01891101301ADDAA124001091AG10002AY161061AY261061GF107991061021004501021999KA1240N-00561MA1999999091521MD1999999-0011MW1101REMSYN023333   21056 59001 60014
0096833390999991992050918004-14050-042617FM-12+088299999V0201401N00261220001CN0200001N9+02661+01681101081ADDAA106000091AG14000GF102991021021004501001001MA1999999091371MD1999999+0101REMSYN011333   58010
0115833390999991992051000004-14050-042617FM-12+088299999V0201401N00361220001CN9999999N9+02251+01861101101ADDAA106000091AG14000GF100991001001999999001001KA1240M+02691MA1999999091371MD1999999+0071REMSYN017333   10269 58007
0156833390999991992051012004-14050-042617FM-12+088299999V0201401N006719999999N0040001N9+02021+01901101371ADDAA106000091AG10000AY101061AY201061GF108991001001999999001041KA1240N+01801MA1999999091621MD1999999+0011MW1101REMSYN017333   20180 58001EQDQ01+000942SCOLCB
0096833390999991992051018004-14050-042617FM-12+088299999V0200901N00571004201CN0200001N9+02301+01811101121ADDAA106000091AG14000GF106991051021004501021001MA1999999091391MD1999999+0021REMSYN011333   58002
0137833390999991992051100004-14050-042617FM-12+088299999V0201401N00151220001CN9999999N9+02081+01841101151ADDAA106000091AG10000AY101061AY201061GF102991021021004501001001KA1240M+02511MA1999999091401MD1999999+0031MW1101REMSYN017333   10251 58003
0115833390999991992051112004-14050-042617FM-12+088299999V0201401N00571220001CN0200001N9+02101+01761101721ADDAA106000091AG14000GF104991041021004501001001KA1240N+01751MA1999999092171MD1999999+0291REMSYN017333   20175 58029
0096833390999991992051118004-14050-042617FM-12+088299999V0201401N00511004201CN0200001N9+02401+01771101431ADDAA106000091AG14000GF105991051021004501001001MA1999999091671MD1999999+0221REMSYN011333   58022
0115833390999991992051200004-14050-042617FM-12+088299999V0201401N00411220001CN9999999N9+02121+01741101531ADDAA106000091AG14000GF100991001001999999001001KA1240M+02471MA1999999091751MD1999999+0351REMSYN017333   10247 58035
0115833390999991992051212004-14050-042617FM-12+088299999V0201401N00311004201CN0200001N9+02041+01781101601ADDAA106000091AG14000GF108991051021004501021999KA1240N+01701MA1999999091821MD1999999-0111REMSYN017333   20170 59011
0096833390999991992051218004-14050-042617FM-12+088299999V0201401N00411220001CN0200001N9+02581+01661101161ADDAA106000091AG14000GF103991031021004501001001MA1999999091461MD1999999-0211REMSYN011333   59021
0115833390999991992051300004-14050-042617FM-12+088299999V0201401N00311220001CN9999999N9+02081+01741101461ADDAA106000091AG14000GF100991001001999999001001KA1240M+02611MA1999999091681MD1999999-0071REMSYN017333   10261 59007
0115833390999991992051312004-14050-042617FM-12+088299999V0201401N00311004201CN0200001N9+02121+01801101601ADDAA106000091AG14000GF105991051021004501001001KA1240N+01521MA1999999091821MD1999999+0001REMSYN017333   20152 58000
0096833390999991992051318004-14050-042617FM-12+088299999V0201401N00261220001CN0200001N9+02721+01771101131ADDAA106000091AG14000GF102991021021004501001001MA1999999091421MD1999999-0041REMSYN011333   59004
0115833390999991992051400004-14050-042617FM-12+088299999V0209991C00001220001CN9999999N9+02181+01761101351ADDAA106000091AG14000GF100991001001999999001001KA1240M+02731MA1999999091601MD1999999-0081REMSYN017333   10273 59008
0115833390999991992051412004-14050-042617FM-12+088299999V0201401N00261220001CN0200001N9+02161+01741101471ADDAA106000091AG14000GF102991021021004501001001KA1240N+01481MA1999999091711MD1999999-0111REMSYN017333   20148 59011
0096833390999991992051418004-14050-042617FM-12+088299999V0201401N00211220001CN0200001N9+02781+01671101091ADDAA106000091AG14000GF103991021021004501001011MA1999999091391MD1999999-0031REMSYN011333   59003
0115833390999991992051500004-14050-042617FM-12+088299999V0202301N00151220001CN9999999N9+02381+01281101331ADDAA106000091AG14000GF100991001001999999001001KA1240M+02811MA1999999091601MD1999999+0001REMSYN017333   10281 58000
0115833390999991992051512004-14050-042617FM-12+088299999V0201401N00151220001CN0200001N9+02261+01711101441ADDAA106000091AG14000GF102991021021004501001001KA1240N+01461MA1999999091711MD1999999+0001REMSYN017333   20146 58000
0115833390999991992051612004-14050-042617FM-12+088299999V0201401N00311220001CN0200001N9+02161+01801101421ADDAA106000091AG14000GF102991021021004501001001KA1240N+01521MA1999999091661MD1999999-0051REMSYN017333   20152 59005
0096833390999991992051618004-14050-042617FM-12+088299999V0201401N00311220001CN0200001N9+02721+01421100901ADDAA106000091AG14000GF100991001001999999001001MA1999999091231MD1999999-0121REMSYN011333   59012
0115833390999991992051700004-14050-042617FM-12+088299999V0209991C00001220001CN9999999N9+02171+01561101261ADDAA106000091AG14000GF100991001001999999001001KA1240M+02731MA1999999091521MD1999999+0001REMSYN017333   10273 58000
0115833390999991992051712004-14050-042617FM-12+088299999V0200501N00151220001CN0200001N9+02201+01611101311ADDAA106000091AG14000GF100991001001999999001001KA1240N+01581MA1999999091571MD1999999-0091REMSYN017333   20158 59009
0096833390999991992051718004-14050-042617FM-12+088299999V0201401N00511220001CN0200001N9+02781+01331100861ADDAA106000091AG14000GF102991021021004501001001MA1999999091201MD1999999-0031REMSYN011333   59003
0115833390999991992051800004-14050-042617FM-12+088299999V0209991C00001220001CN9999999N9+02281+01661101151ADDAA106000091AG14000GF100991001001999999001001KA1240M+02851MA1999999091441MD1999999-0081REMSYN017333   10285 59008
0115833390999991992051812004-14050-042617FM-12+088299999V0203601N00151220001CN0200001N9+02201+01671101231ADDAA106000091AG14000GF100991001001999999001001KA1240N+01641MA1999999091511MD1999999-0061REMSYN017333   20164 59006
0096833390999991992051818004-14050-042617FM-12+088299999V0202301N00211220001CN0200001N9+03071+01001100771ADDAA106000091AG14000GF102991021021004501001001MA1999999091151MD1999999-0051REMSYN011333   59005
0115833390999991992051900004-14050-042617FM-12+088299999V0209991C00001220001CN9999999N9+02361+01401101091ADDAA106000091AG14000GF100991001001999999001001KA1240M+03151MA1999999091391MD1999999-0091REMSYN017333   10315 59009
0115833390999991992051912004-14050-042617FM-12+088299999V0200901N00211220001CN0200001N9+02401+01601101171ADDAA106000091AG14000GF102991021021004501001001KA1240N+01821MA1999999091411MD1999999-0021REMSYN017333   20182 59002
0096833390999991992051918004-14050-042617FM-12+088299999V0201401N00211220001CN0200001N9+03051+01451100871ADDAA106000091AG14000GF103991031021004501001001MA1999999091241MD1999999+0091REMSYN011333   58009
0115833390999991992052000004-14050-042617FM-12+088299999V0209991C00001220001CN9999999N9+02381+01481101041ADDAA106000091AG14000GF102991021021004501001001KA1240M+03111MA1999999091361MD1999999-0031REMSYN017333   10311 59003
0115833390999991992052012004-14050-042617FM-12+088299999V0200501N00051220001CN0200001N9+02321+01721101171ADDAA106000091AG14000GF102991021021004501001001KA1240N+01801MA1999999091471MD1999999-0021REMSYN017333   20180 59002
0096833390999991992052118004-14050-042617FM-12+088299999V0201401N00511220001CN0200001N9+02601+01381100951ADDAA106000091AG14000GF102991021021004501001001MA1999999091261MD1999999+0021REMSYN011333   58002
0115833390999991992052200004-14050-042617FM-12+088299999V0200901N00151220001CN9999999N9+02101+01461101121ADDAA106000091AG14000GF100991001001999999001001KA1240M+02641MA1999999091381MD1999999+0011REMSYN017333   10264 58001
0137833390999991992052312004-14050-042617FM-12+088299999V0201401N00151004201CN0200001N9+01841+01621101171ADDAA106000091AG10000AY101061AY201061GF105991051021004501001001KA1240N+01301MA1999999091391MD1999999+0041MW1101REMSYN017333   20130 58004
0096833390999991992052318004-14050-042617FM-12+088299999V0201401N00261220001CN0200001N9+02541+01361101121ADDAA106000091AG14000GF103991031021004501001001MA1999999091381MD1999999+0081REMSYN011333   58008
0115833390999991992052400004-14050-042617FM-12+088299999V0201801N00101220001CN9999999N9+02101+01241101081ADDAA106000091AG14000GF100991001001999999001001KA1240M+02591MA1999999091321MD1999999-0011REMSYN017333   10259 59001
0115833390999991992052412004-14050-042617FM-12+088299999V0200501N00051220001CN0200001N9+01981+01521101071ADDAA106000091AG14000GF100991001001999999001001KA1240N+01861MA1999999091331MD1999999-0061REMSYN017333   20186 59006
0096833390999991992052418004-14050-042617FM-12+088299999V0201401N00571220001CN0200001N9+02541+01191100971ADDAA106000091AG14000GF102991021021004501001001MA1999999091281MD1999999-0101REMSYN011333   59010
0115833390999991992052500004-14050-042617FM-12+088299999V0201401N00361220001CN9999999N9+02021+01271101151ADDAA106000091AG14000GF100991001001999999001001KA1240M+02591MA1999999091391MD1999999+0071REMSYN017333   10259 58007
0115833390999991992052512004-14050-042617FM-12+088299999V0201401N00671004201CN0200001N9+01901+01521101871ADDAA106000091AG14000GF106991061021004501001001KA1240N+01481MA1999999092001MD1999999+0531REMSYN017333   20148 58053
0096833390999991992052518004-14050-042617FM-12+088299999V0201401N00511004201CN0200001N9+02321+01671101531ADDAA106000091AG14000GF106991061021004501001001MA1999999091731MD1999999+0451REMSYN011333   58045
0115833390999991992052700004-14050-042617FM-12+088299999V0201401N00571220001CN9999999N9+02041+01621101511ADDAA106000091AG14000GF100991001001999999001001KA1240M+02451MA1999999091701MD1999999-0121REMSYN017333   10245 59012
0115833390999991992052712004-14050-042617FM-12+088299999V0201401N00511004201CN0200001N9+01981+01661101451ADDAA106000091AG14000GF106991061021004501001001KA1240N+01641MA1999999091651MD1999999-0301REMSYN017333   20164 59030
0096833390999991992052718004-14050-042617FM-12+088299999V0200901N00511004201CN0200001N9+02421+01651101131ADDAA106000091AG14000GF106991061021004501001001MA1999999091391MD1999999-0171REMSYN011333   59017
0115833390999991992052812004-14050-042617FM-12+088299999V0201401N00511004201CN0200001N9+01961+01741101491ADDAA106000091AG14000GF105991051021004501001001KA1240N+01621MA1999999091691MD1999999+0041REMSYN017333   20162 58004
0096833390999991992052818004-14050-042617FM-12+088299999V0201401N00511220001CN0200001N9+02481+01701101041ADDAA106000091AG14000GF102991021021004501001001MA1999999091321MD1999999-0071REMSYN011333   59007
0115833390999991992052900004-14050-042617FM-12+088299999V0201401N00311220001CN9999999N9+02121+01721101331ADDAA106000091AG14000GF102991021021004501001001KA1240M+02521MA1999999091561MD1999999-0011REMSYN017333   10252 59001
0134833390999991992052912004-14050-042617FM-12+088299999V0201401N00311004201CN0200001N9+02041+01761101601ADDAA106000091AG14000GF106991061021004501001001KA1240N+01771MA1999999999999MD1999999+0131REMSYN017333   20177 58013EQDQ01 101823APOSP 
0115833390999991992052918004-14050-042617FM-12+088299999V0201401N00311220001CN0200001N9+02521+01711101251ADDAA106000091AG14000GF102991021021004501001001MA1999999091502MD1999999+0181REMSYN011333   58018EQDQ01+091503APOSP 
0115833390999991992053000004-14050-042617FM-12+088299999V0201401N00511220001CN9999999N9+02101+01721101521ADDAA106000091AG14000GF100991001001999999001001KA1240M+02551MA1999999091741MD1999999+0081REMSYN017333   10255 58008
0115833390999991992053012004-14050-042617FM-12+088299999V0201401N00771220001CN0200001N9+01961+01741101701ADDAA106000091AG14000GF104991041021004501001001KA1240N+01661MA1999999091891MD1999999+0071REMSYN017333   20166 58007
0115833390999991992060100004-14050-042617FM-12+088299999V0201401N00311220001CN9999999N9+02021+01541101601ADDAA106000091AG14000GF100991001001999999001001KA1240M+02571MA1999999091771MD1999999+0051REMSYN017333   10257 58005
0137833390999991992060112004-14050-042617FM-12+088299999V0201401N00511004201CN0200001N9+01971+01771101751ADDAA106000091AG14000AY101061AY201061GF105991051021004501001001KA1240N+01601MA1999999091931MD1999999-0021MW1101REMSYN017333   20160 59002
0096833390999991992060118004-14050-042617FM-12+088299999V0201401N00261220001CN0200001N9+02561+01451101231ADDAA106000091AG14000GF102991021021004501001001MA1999999091501MD1999999-0081REMSYN011333   59008
0137833390999991992060212004-14050-042617FM-12+088299999V0201401N00311004201CN0040001N9+01861+01741999999ADDAA106000091AG14000AY101061AY201061GF107991061021004501021999KA1240N+01581MA1999999091821MD1999999-0111MW1101REMSYN017333   20158 59011
0096833390999991992060218004-14050-042617FM-12+088299999V0201401N00621220001CN0200001N9+02381+01681101261ADDAA106000091AG14000GF102991021021004501001001MA1999999091511MD1999999+0011REMSYN011333   58001
0137833390999991992060300004-14050-042617FM-12+088299999V0201401N00671220001CN9999999N9+02031+01941101521ADDAA106000091AG10000AY101061AY201061GF102991021021004501001001KA1240M+02431MA1999999091711MD1999999-0011MW1101REMSYN017333   10243 59001
0156833390999991992060312004-14050-042617FM-12+088299999V0201401N00671004201CN0040001N9+01841+01841101711ADDAA106999999AG14000AY101061AY201061GF108991081051004501999999KA1240N+01681MA1999999091881MD1999999+0061MW1501REMSYN017333   20168 58006EQDQ01  00002PRCP06
0118833390999991992060318004-14050-042617FM-12+088299999V0200901N00511220001CN0200001N9+02531+01631101241ADDAA106000091AG14000AY151061AY201061GF103991031021004501001001MA1999999091511MD1999999+0001MW1021REMSYN011333   58000
0154833390999991992060412004-14050-042617FM-12+088299999V0201401N00411004201CN0040001N9+01971+01961101581ADDAA124000891AA299001091AG10002AY161061AY261061GF107991061021004501021999KA1240N+01781MA1999999091801MD1999999-0081MW1011REMSYN023333   20178 59008 69984
0096833390999991992060418004-14050-042617FM-12+088299999V0201401N00361220001CN0200001N9+02541+01881101111ADDAA106000091AG14000GF102991021021004501001001MA1999999091411MD1999999-0101REMSYN011333   59010
0118833390999991992060518004-14050-042617FM-12+088299999V0201401N00261004201CN0200001N9+02321+01551101141ADDAA106000091AG14000GA1031+013209039GF106991051021004501031001MA1999999091401MD1999999-0011REMSYN017333   59001 83344
0134833390999991992060600004-14050-042617FM-12+088299999V0201401N00571220001CN9999999N9+02171+01401101381ADDAA106000091AG14000GF103991999021004501001001KA1240M+02391MA1999999091611MD1999999-0031REMSYN017333   10239 59003EQDQ01+000022SCOTLC
0115833390999991992060812004-14050-042617FM-12+088299999V0201401N00461004201CN0200001N9+01901+01651101811ADDAA106000091AG14000GF106991061021004501001001KA1240N+01581MA1999999091971MD1999999+0231REMSYN017333   20158 58023
0115833390999991992060912004-14050-042617FM-12+088299999V0201401N00411220001CN9999999N9+02041+01661101641ADDAA106000091AG14000GF100991001001999999001001KA1240M+02541MA1999999091821MD1999999+0251REMSYN017333   10254 58025
0095833390999991992060918004-14050-042617FM-12+088299999V0209999999999220001CN0200001N9+02381+01631101371ADDAA106000091AG14000GF103991031021004501001001MA1999999091601MD1999999+0001REMSYN010 333 58000
0115833390999991992061012004-14050-042617FM-12+088299999V0201401N00511004201CN0200001N9+01801+01621101761ADDAA106000091AG14000GF108991051021004501021999KA1240N+01541MA1999999091911MD1999999-0041REMSYN017333   20154 59004
0096833390999991992061018004-14050-042617FM-12+088299999V0201401N00311220001CN0200001N9+02481+01651101281ADDAA106000091AG14000GF102991021021004501001001MA1999999091541MD1999999-0061REMSYN011333   59006
0115833390999991992061100004-14050-042617FM-12+088299999V0201401N00311220001CN9999999N9+01981+01521101621ADDAA106000091AG14000GF100991001001999999001001KA1240M+02491MA1999999091801MD1999999+0021REMSYN017333   10249 58002
0115833390999991992061112004-14050-042617FM-12+088299999V0201401N00311004201CN0200001N9+01881+01601101911ADDAA106000091AG14000GF105991051021004501001001KA1240N+01381MA1999999092061MD1999999+0151REMSYN017333   20138 58015
0096833390999991992061118004-14050-042617FM-12+088299999V0201401N00261220001CN0200001N9+02501+01261101461ADDAA106000091AG14000GF102991021021004501001001MA1999999091691MD1999999+0151REMSYN011333   58015
0115833390999991992061200004-14050-042617FM-12+088299999V0209991C00001220001CN9999999N9+02441+01741101671ADDAA106000091AG14000GF100991001001999999001001KA1240M+02531MA1999999091971MD1999999+0171REMSYN017333   10253 58017
0115833390999991992061212004-14050-042617FM-12+088299999V0201401N00101220001CN0200001N9+01981+01421101861ADDAA106000091AG14000GF102991021021004501001001KA1240N+01301MA1999999092071MD1999999+0011REMSYN017333   20130 58001
0096833390999991992061218004-14050-042617FM-12+088299999V0201401N00411220001CN0200001N9+02501+01191101481ADDAA106000091AG14000GF102991021021004501001001MA1999999091701MD1999999+0011REMSYN011333   58001
0115833390999991992061300004-14050-042617FM-12+088299999V0201401N00311220001CN9999999N9+02061+01231101731ADDAA106000091AG14000GF102991021021004501001001KA1240M+02531MA1999999091911MD1999999-0061REMSYN017333   10253 59006
0115833390999991992061312004-14050-042617FM-12+088299999V0201401N00721004201CN0200001N9+01861+01571101901ADDAA106000091AG14000GF106991061021004501001001KA1240N+01541MA1999999092051MD1999999+0021REMSYN017333   20154 58002
0096833390999991992061318004-14050-042617FM-12+088299999V0201401N00671004201CN0200001N9+02281+01411101581ADDAA106000091AG14000GF106991061021004501001001MA1999999091481MD1999999+0081REMSYN011333   58008
0096833390999991992061418004-14050-042617FM-12+088299999V0201401N00721004201CN0200001N9+01901+01321101781ADDAA106000091AG14000GF106991061021004501001001MA1999999091921MD1999999+0141REMSYN011333   58014
0115833390999991992061500004-14050-042617FM-12+088299999V0201401N01081220001CN9999999N9+01741+01471101911ADDAA106000091AG14000GF103991031021004501001001KA1240M+02041MA1999999092021MD1999999+0091REMSYN017333   10204 58009
0154833390999991992061512004-14050-042617FM-12+088299999V0201401N00931004201CN0040001N9+01561+01361102001ADDAA124000491AA299000591AG10002AY161061AY261061GF107991061021004501021999KA1240N+01301MA1999999092081MD1999999-0071MW1101REMSYN023333   20130 59007 69944
0096833390999991992061518004-14050-042617FM-12+088299999V0201401N00151004201CN0200001N9+02071+01101101791ADDAA106000091AG14000GF105991051021004501001001MA1999999091941MD1999999+0021REMSYN011333   58002
0115833390999991992061600004-14050-042617FM-12+088299999V0201401N00461220001CN9999999N9+01741+00981101871ADDAA106000091AG14000GF102991021021004501001001KA1240M+02111MA1999999091971MD1999999-0051REMSYN017333   10211 59005
0096833390999991992061618004-14050-042617FM-12+088299999V0201401N00771220001CN0200001N9+02101+00891101791ADDAA106000091AG14000GF102991021021004501001001MA1999999091921MD1999999-0021REMSYN011333   59002
0115833390999991992061700004-14050-042617FM-12+088299999V0201401N00721220001CN9999999N9+01761+01121101831ADDAA106000091AG14000GF100991001001999999001001KA1240M+02171MA1999999091941MD1999999-0031REMSYN017333   10217 59003
0137833390999991992061712004-14050-042617FM-12+088299999V0201401N01081220001CN0200001N9+01581+01241101871ADDAA106000091AG14000AY101061AY201061GF104991041021004501001001KA1240N+01201MA1999999091971MD1999999-0031MW1101REMSYN017333   20120 59003
0096833390999991992061718004-14050-042617FM-12+088299999V0201401N00621004201CN0040001N9+02081+01201101751ADDAA106000091AG14000GF107991061021004501021999MA1999999091881MD1999999-0041REMSYN011333   59004
0154833390999991992061800004-14050-042617FM-12+088299999V0201401N00311004201CN9999999N9+01631+01541101751ADDAA106000491AA299000591AG19002AY161061AY261061GF108991081051004501999999KA1240M+02131MA1999999091961MD1999999+0031MW1101REMSYN023333   10213 58003 69941
0154833390999991992061812004-14050-042617FM-12+088299999V0201401N00571004201CN0040001N9+01501+01321101891ADDAA124000891AA299001091AG10002AY161061AY261061GF108991081051004501999999KA1240N+01301MA1999999091961MD1999999-0011MW1101REMSYN023333   20130 59001 69984
0096833390999991992061818004-14050-042617FM-12+088299999V0200901N00871004201CN0040001N9+02001+01271101721ADDAA106000091AG14000GF106991051021004501031001MA1999999091851MD1999999-0031REMSYN011333   59003
0143833390999991992061900004-14050-042617FM-12+088299999V0201401N00821004201CN9999999N9+01621+01571101891ADDAA106001091AG19002AY161061AY261061GF108991081051004501999999KA1240M+02071MA1999999091961MD1999999+0001MW1501REMSYN023333   10207 58000 60011
0143833390999991992061912004-14050-042617FM-12+088299999V0201401N01081004201CN0040001N9+01441+01391101841ADDAA124009091AG10002AY161061AY261061GF108991081051004501999999KA1240N+01261MA1999999091921MD1999999-0041MW1501REMSYN023333   20126 59004 60094
0118833390999991992061918004-14050-042617FM-12+088299999V0201401N00411004201CN0040001N9+01821+01451101691ADDAA106000091AG14000AY141061AY201061GF108991081051004501999999MA1999999091801MD1999999-0051MW1101REMSYN011333   59005
0143833390999991992062000004-14050-042617FM-12+088299999V0200901N00151004201CN9999999N9+01661+01601101901ADDAA106001091AG10002AY161061AY261061GF108991081051004501999999KA1240M+01851MA1999999091971MD1999999+0011MW1101REMSYN023333   10185 58001 60011
0143833390999991992062012004-14050-042617FM-12+088299999V0201401N00621004201CN0200001N9+01621+01561101861ADDAA124001091AG10002AY161061AY261061GF107991071021004501001001KA1240N+01341MA1999999091961MD1999999+0041MW1101REMSYN023333   20134 58004 60014
0096833390999991992062018004-14050-042617FM-12+088299999V0200901N00721004201CN0200001N9+02161+01301101611ADDAA106000091AG14000GF106991051021004501021001MA1999999091771MD1999999-0031REMSYN011333   59003
0178833390999991992062100004-14050-042617FM-12+088299999V0201401N00261006001CN9999999N9+02041+01991101771ADDAA106000391AG19004AY161061AY261061GF108991081081002501999999KA1240M+02721MA1999999999999MD1999999+0201MW1911REMSYN023333   10272 58020 69931EQDQ01+098853APOSP Q02 098853APOSP 
0137833390999991992062112004-14050-042617FM-12+088299999V0201401N00721004201CN0040001N9+01631+01401101781ADDAA106000091AG14000AY101061AY201061GF108991081051004501999999KA1240N+01481MA1999999091911MD1999999-0051MW1101REMSYN017333   20148 59005
0095833390999991992062118004-14050-042617FM-12+088299999V0200901N00461045001CN0200001N9+02201+01441101591ADDAA106000091AG14000GF105991041021004501021001MA1999999091761MD1999999-0011REMSYN010 333 59001
0137833390999991992062200004-14050-042617FM-12+088299999V0200901N00361004201CN9999999N9+01901+01731101861ADDAA106000091AG10000AY101061AY201061GF106991061021004501001001KA1240M+02251MA1999999091981MD1999999+0001MW1101REMSYN017333   10225 58000
0143833390999991992062212004-14050-042617FM-12+088299999V0201401N00671004201CN0010001N9+01761+01741102051ADDAA124007091AG10002AY161061AY261061GF108991061051004501021999KA1240N+01401MA1999999092151MD1999999+0241MW1501REMSYN023333   20140 58024 60074
0143833390999991992062300004-14050-042617FM-12+088299999V0201401N00721004201CN9999999N9+01761+01701101901ADDAA124002091AG10002AY161061AY261061GF108991051051004501021999KA1240M+02131MA1999999092011MD1999999+0031MW1031REMSYN023333   10213 58003 60024
0143833390999991992062312004-14050-042617FM-12+088299999V0201401N00511004201CN0200001N9+02781+01541101961ADDAA124002091AG10002AY161061AY241061GF105991051021004501001001KA1240N+01461MA1999999092071MD1999999-0081MW1021REMSYN023333   20146 59008 60024
0095833390999991992062318004-14050-042617FM-12+088299999V0201401N00511220001CN0200001N9+02231+01601101511ADDAA106000091AG14000GF102991021021004501001001MA1999999091711MD1999999-0151REMSYN010 333 59015
0130833390999991992062400004-14050-042617FM-12+088299999V0201401N00461220001CN9999999N9+01921+01531101741ADDAA106000091AG14000GA1001+999999999GF100991001001999999001001KA1240M+02251MA1999999091891MD1999999-0121REMSYN016 333 10225 59012
0136833390999991992062412004-14050-042617FM-12+088299999V0201401N00621004201CN0010001N9+01621+01521102001ADDAA106000091AG10000AY141061AY221061GF108991051051004501021999KA1240N+01441MA1999999092111MD1999999+0041MW1401REMSYN016 333 20144 58004
0096833390999991992062418004-14050-042617FM-12+088299999V0201401N00571004201CN0200001N9+02121+01481101671ADDAA106000091AG14000GF105991051021004501001001MA1999999091841MD1999999+0131REMSYN011333   58013
0114833390999991992062512004-14050-042617FM-12+088299999V0201401N00571004201CN0200001N9+01741+01521102021ADDAA106000091AG14000GF106991061021004501001001KA1240N+01481MA1999999092141MD1999999+0031REMSYN016 333 20148 58003
0095833390999991992062518004-14050-042617FM-12+088299999V0201401N00151220001CN0200001N9+02221+01351101621ADDAA106000091AG14000GF103991031021004501001001MA1999999091791MD1999999-0051REMSYN010 333 59005
0114833390999991992062600004-14050-042617FM-12+088299999V0201401N00571220001CN9999999N9+01941+01361101871ADDAA106000091AG14000GF102991021021004501001001KA1240M+02291MA1999999092011MD1999999+0021REMSYN016 333 10229 58002
0114833390999991992062612004-14050-042617FM-12+088299999V0201401N00511004201CN0200001N9+01701+01531101941ADDAA106000091AG14000GF108991051051004501021999KA1240N+01481MA1999999092061MD1999999-0081REMSYN016 333 20148 59008
0095833390999991992062718004-14050-042617FM-12+088299999V0201401N00311004201CN0200001N9+02241+01431101481ADDAA106000091AG14000GF106991061021004501001001MA1999999091671MD1999999-0081REMSYN010 333 59008
0095833390999991992062818004-14050-042617FM-12+088299999V0201401N00411004201CN0200001N9+02301+01481101411ADDAA106000091AG14000GF105991051021004501001001MA1999999091631MD1999999-0041REMSYN010 333 59004
0114833390999991992062912004-14050-042617FM-12+088299999V0201401N00261004201CN0040001N9+01781+01671101721ADDAA106000091AG10000GF108991081051004501999999KA1240N+01401MA1999999091881MD1999999-0081REMSYN016 333 20140 59008
0095833390999991992062918004-14050-042617FM-12+088299999V0201401N00261220001CN0200001N9+02401+01351101401ADDAA106000091AG14000GF102991021021004501001001MA1999999091631MD1999999+0001REMSYN010 333 58000
0130833390999991992063000004-14050-042617FM-12+088299999V0201801N00151220001CN9999999N9+01981+01371101581ADDAA106000091AG14000GA1001+999999999GF100991001001999999001001KA1240M+02451MA1999999091761MD1999999-0041REMSYN016 333 10245 59004
0136833390999991992063012004-14050-042617FM-12+088299999V0201401N00361004201CN0040001N9+01661+01631101731ADDAA106000091AG10000AY101061AY201061GF108991081051004501999999KA1240N+01321MA1999999091871MD1999999-0011MW1401REMSYN016 333 20132 59001
0117833390999991992063018004-14050-042617FM-12+088299999V0201401N00311220001CN0200001N9+02461+01321101411ADDAA106000091AG10000AY141061AY201061GF102991021021004501001001MA1999999091641MD1999999+0011MW1021REMSYN010 333 58001
0130833390999991992070100004-14050-042617FM-12+088299999V0201401N00101220001CN9999999N9+01941+01381101571ADDAA106000091AG14000GA1001+999999999GF100991001001999999001001KA1240M+02481MA1999999091731MD1999999-0031REMSYN016 333 10248 59003
0136833390999991992070112004-14050-042617FM-12+088299999V0201401N00311004201CN0040001N9+01701+01671101721ADDAA106000091AG10000AY101061AY201061GF108991081051004501999999KA1240N+01241MA1999999091861MD1999999-0011MW1401REMSYN016 333 20124 59001
0136833390999991992070118004-14050-042617FM-12+088299999V0201401N003119999999N0200001N9+02521+01101101401ADDAA106000091AG10000AY141061AY201061GF105991999021004501001001MA1999999091631MD1999999-0011MW1021REMSYN010 333 59001EQDQ01+000022SCOTLC
0136833390999991992070212004-14050-042617FM-12+088299999V0201401N00311004201CN0040001N9+01691+01651101721ADDAA106000091AG10000AY101061AY201061GF106991061021004501001001KA1240N+01321MA1999999091881MD1999999+0021MW1101REMSYN016 333 20132 58002
0095833390999991992070218004-14050-042617FM-12+088299999V0201401N00411220001CN0200001N9+02421+01281101491ADDAA106000091AG14000GF102991021021004501001001MA1999999091691MD1999999+0061REMSYN010 333 58006
0130833390999991992070300004-14050-042617FM-12+088299999V0201801N00051220001CN9999999N9+01951+01421101601ADDAA106000091AG14000GA1001+999999999GF100991001001999999001001KA1240M+02491MA1999999091751MD1999999+0011REMSYN016 333 10249 58001
0136833390999991992070312004-14050-042617FM-12+088299999V0201401N004119999999N0040001N9+01721+01691101701ADDAA106000091AG10000AY101061AY201061GF108991999999004501999999KA1240N+01381MA1999999091851MD1999999-0031MW1421REMSYN016 333 20138 59003
0117833390999991992070318004-14050-042617FM-12+088299999V0201401N00571220001CN0200001N9+02491+01211101481ADDAA106000091AG10000AY141061AY201061GF103991031021004501001001MA1999999091701MD1999999+0011MW1021REMSYN010 333 58001
0142833390999991992070412004-14050-042617FM-12+088299999V0200901N00771004201CN0200001N9+01801+01601101701ADDAA124009091AG10002AY161061AY261061GF106991061021004501001001KA1240N+01521MA1999999091851MD1999999+0001MW1101REMSYN022 333 20152 58000 60094
0095833390999991992070418004-14050-042617FM-12+088299999V0200901N00461004201CN0200001N9+02241+01291101611ADDAA106000091AG14000GF106991061021004501001001MA1999999091801MD1999999+0101REMSYN010 333 58010
0114833390999991992070512004-14050-042617FM-12+088299999V0201401N00101000601CN0046001N9+01581+01531101841ADDAA106000091AG14000GF108991081051000751999999KA1240N+01401MA1999999091881MD1999999+0031REMSYN016 333 20140 58003
0117833390999991992070518004-14050-042617FM-12+088299999V0201401N00821220001CN0200001N9+02171+01271101561ADDAA106000091AG10000AY141061AY201061GF104991041021004501001001MA1999999091751MD1999999-0051MW1021REMSYN010 333 59005
0117833390999991992070618004-14050-042617FM-12+088299999V0200901N00361220001CN0200001N9+02321+01421101661ADDAA106000091AG10000AY141061AY221061GF103991031021004501001001MA1999999091851MD1999999+0101MW1021REMSYN010 333 58010
0114833390999991992070712004-14050-042617FM-12+088299999V0200901N00261004201CN0200001N9+01821+01531102011ADDAA106000091AG14000GF105991051021004501001001KA1240N+01231MA1999999092141MD1999999-0021REMSYN016 333 20123 59002
0095833390999991992070718004-14050-042617FM-12+088299999V0201401N00511220001CN0200001N9+02361+01431101631ADDAA106000091AG14000GF103991031021004501001001MA1999999091811MD1999999-0041REMSYN010 333 59004
0114833390999991992070800004-14050-042617FM-12+088299999V0201401N00511220001CN9999999N9+02041+01431101821ADDAA106000091AG14000GF102991021021004501001001KA1240M+02421MA1999999091981MD1999999+0011REMSYN016 333 10242 58001
0114833390999991992070812004-14050-042617FM-12+088299999V0201401N00671004201CN0200001N9+01681+01461102031ADDAA106000091AG14000GF108991051021004501021999KA1240N+01401MA1999999092151MD1999999+0011REMSYN016 333 20140 58001
0095833390999991992070818004-14050-042617FM-12+088299999V0200901N00771004201CN0200001N9+02281+01271101681ADDAA106000091AG14000GF105991051021004501001001MA1999999091851MD1999999+0041REMSYN010 333 58004
0133833390999991992070900004-14050-042617FM-12+088299999V0201401N00571220001CN9999999N9+01861+01571101911ADDAA106000091AG14000GF104991041021004501001001KA1240N+99999MA1999999092031MD1999999+0051REMSYN016 333 20231 58005EQDQ01 +02312ATMN  
0114833390999991992070912004-14050-042617FM-12+088299999V0201401N00671004201CN0200001N9+01671+01531102071ADDAA106000091AG14000GF108991061051004501021999KA1240N+01461MA1999999092171MD1999999+0021REMSYN016 333 20146 58002
0095833390999991992070918004-14050-042617FM-12+088299999V0209999999999004201CN0200001N9+02221+01331101721ADDAA106000091AG14000GF106991061021004501001001MA1999999091881MD1999999+0031REMSYN010 333 58003
0114833390999991992071012004-14050-042617FM-12+088299999V0209999999999004201CN0200001N9+01721+01371102031ADDAA106000091AG14000GF105991051021004501001001KA1240N+01421MA1999999092141MD1999999-0031REMSYN016 333 20142 59003
0111833390999991992071018004-14050-042617FM-12+088299999V0209999999999220001CN0200001N9+02321+00961101581ADDAA106000091AG14000GA1001+999999999GF100991001001999999001001MA1999999091761MD1999999-0121REMSYN010 333 59012
0130833390999991992071100004-14050-042617FM-12+088299999V0209999999999220001CN9999999N9+01881+01141101881ADDAA106000091AG14000GA1001+999999999GF100991001001999999001001KA1240M+02331MA1999999092011MD1999999-0061REMSYN016 333 10233 59006
0114833390999991992071112004-14050-042617FM-12+088299999V0201401N00671004201CN0200001N9+01561+01431101971ADDAA106000091AG14000GF108991051051004501021999KA1240N+01341MA1999999092071MD1999999-0071REMSYN016 333 20134 59007
0142833390999991992071200004-14050-042617FM-12+088299999V0201401N00671004201CN9999999N9+01681+01621101951ADDAA106005091AG10002AY161061AY241061GF108991051051004501021999KA1240M+02251MA1999999092031MD1999999+0021MW1401REMSYN022 333 10225 58002 60051
0161833390999991992071212004-14050-042617FM-12+088299999V0201401N04162004201CN0010001N9+01481+01421102061ADDAA124005091AG10002AY161061AY241061GF108991061051004501021999KA1240N+01261MA1999999092141MD1999999+0071MW1401REMSYN022 333 20126 58007 60054EQDQ01+004163WOSPD 
0095833390999991992071218004-14050-042617FM-12+088299999V0201401N00571220001CN0200001N9+02061+01521101781ADDAA106000091AG14000GF104991041021004501001001MA1999999091911MD1999999+0141REMSYN010 333 58014
0142833390999991992071312004-14050-042617FM-12+088299999V0201401N00671004201CN0200001N9+01531+01411102061ADDAA124001091AG10002AY161061AY261061GF106991061021004501001001KA1240N+01261MA1999999092121MD1999999-0021MW1101REMSYN022 333 20126 59002 60014
0095833390999991992071318004-14050-042617FM-12+088299999V0200401N00411220001CN0200001N9+02221+01131101681ADDAA106000091AG14000GF102991021021004501001001MA1999999091841MD1999999-0071REMSYN010 333 59007
0136833390999991992071400004-14050-042617FM-12+088299999V0201401N00461004201CN9999999N9+01881+01531101741ADDAA106000091AG10000AY101061AY201061GF106991051021004501021001KA1240M+02261MA1999999091861MD1999999-0181MW1101REMSYN016 333 10226 59018
0136833390999991992071412004-14050-042617FM-12+088299999V0201401N00621004201CN0200001N9+01621+01371102061ADDAA106000091AG10000AY101061AY201061GF106991061021004501001001KA1240N+01301MA1999999092141MD1999999+0021MW1101REMSYN016 333 20130 58002
0130833390999991992071512004-14050-042617FM-12+088299999V0201401N00311220001CN0200001N9+01861+01471101941ADDAA106000091AG14000GA1001+999999999GF100991001001999999001001KA1240N+01241MA1999999092081MD1999999-0061REMSYN016 333 20124 59006
0130833390999991992071600004-14050-042617FM-12+088299999V0201801N00101220001CN9999999N9+02121+01381101561ADDAA106000091AG14000GA1001+999999999GF100991001001999999001001KA1240M+02701MA1999999091751MD1999999-0121REMSYN016 333 10270 59012
0155833390999991992071612004-14050-042617FM-12+088299999V0201401N00361004201CN0040001N9+01701+01701101981ADDAA106000091AG10000AY101061AY201061GF108991081051004501999999KA1240N+99999MA1999999092121MD1999999+0041MW1421REMSYN016 333 20186 58004EQDQ01 +01862ATMN  
0136833390999991992071618004-14050-042617FM-12+088299999V0201401N00511220001CN0200001N9+02551+01161101611ADDAA106000091AG10000AY141061AY201061GF103991999021004501001001MA1999999091831MD1999999+0101MW1021REMSYN010 333 58010EQDQ01+000022SCOTLC
0130833390999991992071700004-14050-042617FM-12+088299999V0201801N00101220001CN9999999N9+01991+00881101841ADDAA106000091AG14000GA1001+999999999GF100991001001999999001001KA1240M+02571MA1999999091981MD1999999+0231REMSYN016 333 10257 58023
0136833390999991992071712004-14050-042617FM-12+088299999V0201401N00311220001CN0200001N9+01781+01631102041ADDAA106000091AG10000AY101061AY201061GF104991041021004501001001KA1240N+01381MA1999999092171MD1999999+0051MW1101REMSYN016 333 20138 58005
0095833390999991992071718004-14050-042617FM-12+088299999V0201401N00621220001CN0200001N9+02381+00941101681ADDAA106000091AG14000GF102991021021004501001001MA1999999091871MD1999999+0041REMSYN010 333 58004
0136833390999991992071812004-14050-042617FM-12+088299999V0201401N00461004201CN0200001N9+01621+01471102191ADDAA106000091AG10000AY101061AY201061GF106991051021004501021001KA1240N+01301MA1999999092281MD1999999+0111MW1101REMSYN016 333 20130 58011
0095833390999991992071818004-14050-042617FM-12+088299999V0200901N00771004201CN0200001N9+02221+01331101881ADDAA106000091AG14000GF107991061021004501021011MA1999999092031MD1999999+0161REMSYN010 333 58016
0136833390999991992071900004-14050-042617FM-12+088299999V0201401N00671220001CN9999999N9+01771+01651102101ADDAA106000091AG10000AY101061AY201061GF102991021021004501001001KA1240M+02251MA1999999092181MD1999999+0111MW1101REMSYN016 333 10225 58011
0155833390999991992071912004-14050-042617FM-12+088299999V0201401N00461004201CN0040001N9+01571+01501102391ADDAA106000091AG10000AY101061AY201061GF108991081051004501999999KA1240N+99999MA1999999092441MD1999999+0161MW1101REMSYN016 333 20238 58016EQDQ01 +02382ATMN  
0095833390999991992071918004-14050-042617FM-12+088299999V0201401N00411220001CN0200001N9+02301+01111101881ADDAA106000091AG14000GF102991021021004501001001MA1999999092041MD1999999+0011REMSYN010 333 58001
0114833390999991992072012004-14050-042617FM-12+088299999V0201401N00721004201CN0200001N9+01541+01381102281ADDAA106000091AG14000GF106991061021004501001001KA1240N+01321MA1999999092351MD1999999-0091REMSYN016 333 20132 59009
0120833390999991992072018004-14050-042617FM-12+088299999V0200901N00931220001CN0200001N9+02301+01201999999ADDAA106000091AG14000GA1001+999999999GF100991001001999999001001MA1999999091941MD1999999-0101ME1431779REMSYN010 333 59010
0130833390999991992072100004-14050-042617FM-12+088299999V0201401N00871220001CN9999999N9+01901+01031102011ADDAA106000091AG14000GA1001+999999999GF100991001001999999001001KA1240M+02331MA1999999092111MD1999999-0101REMSYN016 333 10233 59010
0114833390999991992072112004-14050-042617FM-12+088299999V0201401N00571220001CN0200001N9+01681+01311102181ADDAA106000091AG14000GF103991031021004501001001KA1240N+01301MA1999999092281MD1999999-0071REMSYN016 333 20130 59007
0095833390999991992072118004-14050-042617FM-12+088299999V0201401N00511004201CN0200001N9+02191+01241101801ADDAA106000091AG14000GF105991051021004501001001MA1999999091951MD1999999+0011REMSYN010 333 58001
0130833390999991992072200004-14050-042617FM-12+088299999V0201401N00311220001CN9999999N9+01841+01371101921ADDAA106000091AG14000GA1001+999999999GF100991001001999999001001KA1240M+02271MA1999999092041MD1999999-0071REMSYN016 333 10227 59007
0130833390999991992072212004-14050-042617FM-12+088299999V0201401N00311220001CN9999999N9+01841+01371101921ADDAA106000091AG14000GA1001+999999999GF100991001001999999001001KA1240M+02271MA1999999092041MD1999999-0071REMSYN016 333 10227 59007
0095833390999991992072218004-14050-042617FM-12+088299999V0201401N00361220001CN0200001N9+02361+01031101631ADDAA106000091AG14000GF102991021021004501001001MA1999999091811MD1999999-0141REMSYN010 333 59014
0130833390999991992072300004-14050-042617FM-12+088299999V0201401N00311220001CN9999999N9+01861+00831101891ADDAA106000091AG14000GA1001+999999999GF100991001001999999001001KA1240M+02411MA1999999092021MD1999999-0021REMSYN016 333 10241 59002
0114833390999991992072312004-14050-042617FM-12+088299999V0201401N00461220001CN0200001N9+01841+01311102151ADDAA106000091AG14000GF102991021021004501001001KA1240N+01121MA1999999092261MD1999999+0081REMSYN016 333 20112 58008
0130833390999991992072400004-14050-042617FM-12+088299999V0201401N00821220001CN9999999N9+01901+01511102091ADDAA106000091AG14000GA1001+999999999GF100991001001999999001001KA1240M+02491MA1999999092211MD1999999+0131REMSYN016 333 10249 58013
0142833390999991992072412004-14050-042617FM-12+088299999V0201401N00821004201CN0010001N9+01541+01481102251ADDAA124002091AG10002AY161061AY241061GF108991061051004501021999KA1240N+01361MA1999999092321MD1999999+0061MW1401REMSYN022 333 20136 58006 60024
0117833390999991992072418004-14050-042617FM-12+088299999V0201401N00771004201CN0200001N9+01741+01501102031ADDAA106000091AG10000AY141061AY221061GF108991061021004501021999MA1999999092131MD1999999+0221MW1021REMSYN010 333 58022
0117833390999991992072518004-14050-042617FM-12+088299999V0201401N00821004201CN0200001N9+01921+01381101861ADDAA106000091AG10000AY141061AY221061GF105991051021004501001001MA1999999091981MD1999999-0151MW1021REMSYN010 333 59015
0114833390999991992072700004-14050-042617FM-12+088299999V0201401N00771004201CN9999999N9+01701+01331102051ADDAA106000091AG14000GF106991061021004501001001KA1240M+02111MA1999999092171MD1999999-0021REMSYN016 333 10211 59002
0136833390999991992072712004-14050-042617FM-12+088299999V0201401N01081220001CN0200001N9+01521+01231102281ADDAA106000091AG10000AY101061AY201061GF104991041021004501001001KA1240N+01221MA1999999092331MD1999999-0021MW1101REMSYN016 333 20122 59002
0136833390999991992072812004-14050-042617FM-12+088299999V0201401N00411004201CN0200001N9+01601+01271102231ADDAA106000091AG10000AY101061AY201061GF106991051021004501031001KA1240N+01261MA1999999092291MD1999999-0031MW1101REMSYN016 333 20126 59003
0114833390999991992072912004-14050-042617FM-12+088299999V0201401N00771220001CN0200001N9+01701+01291102061ADDAA106000091AG14000GF103991031021004501001001KA1240N+01271MA1999999092171MD1999999-0121REMSYN016 333 20127 59012
0095833390999991992072918004-14050-042617FM-12+088299999V0201401N00311220001CN0200001N9+02461+00771101601ADDAA106000091AG14000GF102991021021004501001001MA1999999091801MD1999999-0141REMSYN010 333 59014
0130833390999991992073000004-14050-042617FM-12+088299999V0201401N00261220001CN9999999N9+01961+00801101841ADDAA106000091AG14000GA1001+999999999GF100991001001999999001001KA1240M+02531MA1999999091981MD1999999+0011REMSYN016 333 10253 58001
0136833390999991992073012004-14050-042617FM-12+088299999V0201401N00411220001CN0200001N9+01801+01451101941ADDAA106000091AG10000AY101061AY201061GF102991021021004501001001KA1240N+01241MA1999999092081MD1999999-0091MW1101REMSYN016 333 20124 59009
0130833390999991992073112004-14050-042617FM-12+088299999V0201401N00461220001CN0500001N9+01881+01321102021ADDAA106000091AG14000GA1001+999999999GF100991001001999999001001KA1240N+01141MA1999999092151MD1999999+0071REMSYN016 333 20114 58007
0111833390999991992073118004-14050-042617FM-12+088299999V0201801N00211220001CN0200001N9+02521+00541101551ADDAA106000091AG14000GA1001+999999999GF100991001001999999001001MA1999999091771MD1999999-0011REMSYN010 333 59001
0130833390999991992080112004-14050-042617FM-12+088299999V0200901N00311220001CN0200001N9+01861+01351101871ADDAA106000091AG14000GA1001+999999999GF100991001001999999001001KA1240N+01121MA1999999092031MD1999999-0121REMSYN016 333 20112 59012
0095833390999991992080118004-14050-042617FM-12+088299999V0202301N00261220001CN0200001N9+02641+00741101451ADDAA106000091AG14000GF102991021021004501001001MA1999999091651MD1999999-0121REMSYN010 333 59012
0130833390999991992080212004-14050-042617FM-12+088299999V0201401N00511220001CN0200001N9+01961+01401101831ADDAA106000091AG14000GA1001+999999999GF100991001001999999001001KA1240N+01281MA1999999092001MD1999999-0031REMSYN016 333 20128 59003
0111833390999991992080218004-14050-042617FM-12+088299999V0201401N00461220001CN0200001N9+02591+00591101461ADDAA106000091AG14000GA1001+999999999GF100991001001999999001001MA1999999091661MD1999999+0011REMSYN010 333 58001
0130833390999991992080300004-14050-042617FM-12+088299999V0201401N00361220001CN9999999N9+02031+00621101741ADDAA106000091AG14000GA1001+999999999GF100991001001999999001001KA1240M+02621MA1999999091921MD1999999-0071REMSYN016 333 10262 59007
0114833390999991992080312004-14050-042617FM-12+088299999V0201401N00361004201CN0200001N9+01881+01431101991ADDAA106000091AG14000GF106991061021004501001001KA1240N+01341MA1999999092141MD1999999+0141REMSYN016 333 20134 58014
0095833390999991992080318004-14050-042617FM-12+088299999V0200901N00771220001CN0200001N9+02351+01321101731ADDAA106000091AG14000GF103991031021004501001001MA1999999091861MD1999999+0201REMSYN010 333 58020
0142833390999991992080400004-14050-042617FM-12+088299999V0201401N00511004201CN9999999N9+01741+01681102091ADDAA106001091AG10002AY161061AY241061GF108991061051004501021999KA1240M+02391MA1999999092201MD1999999+0281MW1601REMSYN022 333 10239 58028 60011
0142833390999991992080412004-14050-042617FM-12+088299999V0201401N00671004201CN0200001N9+01611+01401102241ADDAA124006091AG10002AY161061AY241061GF106991061021004501001001KA1240N+01361MA1999999092301MD1999999+0161MW1021REMSYN022 333 20136 58016 60064
0095833390999991992080418004-14050-042617FM-12+088299999V0201401N00771220001CN0200001N9+02341+00941101751ADDAA106000091AG14000GF102991021021004501001001MA1999999091911MD1999999+0051REMSYN010 333 58005
0130833390999991992080500004-14050-042617FM-12+088299999V0201401N00511220001CN9999999N9+01851+01171101971ADDAA106000091AG14000GA1001+999999999GF100991001001999999001001KA1240M+02351MA1999999092081MD1999999-0121REMSYN016 333 10235 59012
0114833390999991992080512004-14050-042617FM-12+088299999V0201401N00771004201CN0200001N9+01701+01351102141ADDAA106000091AG14000GF106991061021004501001001KA1240N+01221MA1999999092241MD1999999-0061REMSYN016 333 20122 59006
0095833390999991992080518004-14050-042617FM-12+088299999V0201401N00821220001CN0200001N9+02301+01081101811ADDAA106000091AG14000GF104991041021004501001001MA1999999091961MD1999999+0051REMSYN010 333 58005
0114833390999991992080600004-14050-042617FM-12+088299999V0201401N00721004201CN9999999N9+01701+01461102131ADDAA106000091AG14000GF106991061021004501001001KA1240M+02371MA1999999092211MD1999999+0131REMSYN016 333 10237 58013
0114833390999991992080612004-14050-042617FM-12+088299999V0201401N00511004201CN0200001N9+01641+01351102301ADDAA106000091AG14000GF106991061021004501001001KA1240N+01301MA1999999092351MD1999999+0111REMSYN016 333 20130 58011
0095833390999991992080618004-14050-042617FM-12+088299999V0201401N00671004201CN0200001N9+02251+01011101821ADDAA106000091AG14000GF105991051021004501001001MA1999999091971MD1999999+0011REMSYN010 333 58001
0114833390999991992080700004-14050-042617FM-12+088299999V0201401N00931220001CN9999999N9+01881+01061101991ADDAA106000091AG14000GF103991031021004501001001KA1240M+02311MA1999999092101MD1999999-0011REMSYN016 333 10231 59001
0114833390999991992080712004-14050-042617FM-12+088299999V0201401N00821004201CN0200001N9+01621+01161102171ADDAA106000091AG14000GF106991061021004501001001KA1240N+01261MA1999999092261MD1999999-0091REMSYN016 333 20126 59009
0095833390999991992080718004-14050-042617FM-12+088299999V0200901N00671220001CN0200001N9+02281+00891101771ADDAA106000091AG14000GF103991011021004501001011MA1999999091871MD1999999-0101REMSYN010 333 59010
0114833390999991992080812004-14050-042617FM-12+088299999V0201401N00721004201CN0200001N9+01581+01331102131ADDAA106000091AG14000GF108991061021004501021999KA1240N+01301MA1999999092181MD1999999-0081REMSYN016 333 20130 59008
0095833390999991992080818004-14050-042617FM-12+088299999V0201401N00671004201CN0200001N9+02201+01171101651ADDAA106000091AG14000GF105991051021004501001001MA1999999091811MD1999999-0061REMSYN010 333 59006
0114833390999991992080912004-14050-042617FM-12+088299999V0201401N00771220001CN0200001N9+01781+01231101981ADDAA106000091AG14000GF103991031021004501001001KA1240N+01301MA1999999092091MD1999999-0091REMSYN016 333 20130 59009
0095833390999991992080918004-14050-042617FM-12+088299999V0201401N00821220001CN0200001N9+02241+01021101501ADDAA106000091AG14000GF103991031021004501001001MA1999999091681MD1999999-0131REMSYN010 333 59013
0114833390999991992081000004-14050-042617FM-12+088299999V0201401N00821220001CN9999999N9+01721+01451101871ADDAA106000091AG14000GF102991021021004501001001KA1240M+02421MA1999999091991MD1999999+0001REMSYN016 333 10242 58000
0136833390999991992081012004-14050-042617FM-12+088299999V0201401N00621004201CN0200001N9+01631+01331102171ADDAA106000091AG10000AY101061AY201061GF106991061021004501001001KA1240N+01301MA1999999092241MD1999999+0151MW1101REMSYN016 333 20130 58015
0095833390999991992081018004-14050-042617FM-12+088299999V0201401N00511220001CN0200001N9+02341+00751101711ADDAA106000091AG14000GF103991021021004501001021MA1999999091871MD1999999+0191REMSYN010 333 58019
0114833390999991992081100004-14050-042617FM-12+088299999V0201401N00621004201CN9999999N9+01861+01321101961ADDAA106000091AG14000GF105991051021004501001001KA1240M+02391MA1999999092071MD1999999+0081REMSYN016 333 10239 58008
0153833390999991992081112004-14050-042617FM-12+088299999V0201401N00461004201CN0200001N9+01641+01291102101ADDAA124000791AA299001091AG10002AY161061AY261061GF106991051021004501031001KA1240N+01341MA1999999092201MD1999999-0041MW1101REMSYN022 333 20134 59004 69974
0095833390999991992081118004-14050-042617FM-12+088299999V0200901N00571004201CN0200001N9+02321+00691101641ADDAA106000091AG14000GF105991051021004501001001MA1999999091821MD1999999-0051REMSYN010 333 59005
0165833390999991992081200004-14050-042617FM-12+088299999V0201401N00461220001CN9999999N9+01971+00951101911ADDAA106000091AG14000GA1001+999999999GF100991001001999999001001KA1240M+02381MA1999999999999MD1999999-0031REMSYN016 333 10238 59003EQDQ01+102043APOSP Q02 102043APOSP 
0133833390999991992081212004-14050-042617FM-12+088299999V0201401N00511004201CN0200001N9+01701+01481101971ADDAA106000091AG14000GF108991999021004501001001KA1240N+01421MA1999999092101MD1999999-0101REMSYN016 333 20142 59010EQDQ01+000062SCOTLC
0095833390999991992081218004-14050-042617FM-12+088299999V0201401N00311004201CN0200001N9+02391+00941101541ADDAA106000091AG14000GF106991051021004501001041MA1999999091741MD1999999-0081REMSYN010 333 59008
0114833390999991992081300004-14050-042617FM-12+088299999V0201401N00311004201CN9999999N9+02091+01141101811ADDAA106000091AG14000GF105991051021004501001001KA1240M+02451MA1999999091961MD1999999-0081REMSYN016 333 10245 59008
0136833390999991992081312004-14050-042617FM-12+088299999V0201401N00461004201CN0040001N9+01781+01611101931ADDAA106000091AG10000AY101061AY201061GF108991081051004501999999KA1240N+01501MA1999999092081MD1999999-0021MW1101REMSYN016 333 20150 59002
0095833390999991992081318004-14050-042617FM-12+088299999V0201401N00461220001CN0200001N9+02691+00681101461ADDAA106000091AG14000GF103991031021004501001001MA1999999091711MD1999999-0031REMSYN010 333 59003
0130833390999991992081400004-14050-042617FM-12+088299999V0201801N00051220001CN9999999N9+02201+00781101671ADDAA106000091AG14000GA1001+999999999GF100991001001999999001001KA1240M+02781MA1999999091851MD1999999-0111REMSYN016 333 10278 59011
0136833390999991992081412004-14050-042617FM-12+088299999V0201401N00151004201CN0040001N9+01741+01711101811ADDAA106000091AG10000AY101061AY201061GF108991081051004501999999KA1240N+01321MA1999999091971MD1999999-0111MW1421REMSYN016 333 20132 59011
0117833390999991992081418004-14050-042617FM-12+088299999V0201401N00621220001CN0200001N9+02071+01151101351ADDAA106000091AG10000AY141061AY201061GF103991031021004501001001MA1999999091601MD1999999-0111MW1021REMSYN010 333 59011
0116833390999991992081512004-14050-042617FM-12+088299999V0201401N00621004201CN0040001N9+01721+01621101751ADDAA106000091AG10000AY101061AY201061GF108991081051004501999999KA1240N+01541MA1999999091911MW1101REMSYN010 333 20154
0095833390999991992081518004-14050-042617FM-12+088299999V0200901N00461220001CN0200001N9+02381+01341101401ADDAA106000091AG14000GF103991021021004501021001MA1999999091641MD1999999+0041REMSYN010 333 58004
0130833390999991992081600004-14050-042617FM-12+088299999V0201401N00671220001CN9999999N9+02101+01341101711ADDAA106000091AG14000GA1001+999999999GF100991001001999999001001KA1240M+02411MA1999999091871MD1999999+0101REMSYN016 333 10241 58010
0136833390999991992081612004-14050-042617FM-12+088299999V0201401N00821004201CN0040001N9+01771+01561101901ADDAA106000091AG10000AY101061AY201061GF106991051021004501021001KA1240N+01531MA1999999092501MD1999999+0141MW1101REMSYN016 333 20153 58014
0095833390999991992081618004-14050-042617FM-12+088299999V0201401N00671220001CN0200001N9+02341+01271101631ADDAA106000091AG14000GF102991021021004501001001MA1999999091831MD1999999+0191REMSYN010 333 58019
0136833390999991992081700004-14050-042617FM-12+088299999V0201401N01341220001CN9999999N9+01841+01551101821ADDAA106000091AG10000AY101061AY201061GF102991021021004501001001KA1240M+02391MA1999999091751MD1999999+0081MW1101REMSYN016 333 10239 58008
0114833390999991992081712004-14050-042617FM-12+088299999V0201401N00571004201CN0200001N9+01641+01351102101ADDAA106000091AG14000GF108991051051004501021999KA1240N+01421MA1999999092201MD1999999+0151REMSYN016 333 20142 58015
0095833390999991992081718004-14050-042617FM-12+088299999V0200901N00511220001CN0200001N9+02301+01261101721ADDAA106000091AG14000GF104991041021004501001001MA1999999091881MD1999999+0051REMSYN010 333 58005
0130833390999991992081800004-14050-042617FM-12+088299999V0201401N00571220001CN9999999N9+01821+01291101901ADDAA106000091AG14000GA1001+999999999GF100991001001999999001001KA1240M+02341MA1999999092021MD1999999+0071REMSYN016 333 10234 58007
0114833390999991992081812004-14050-042617FM-12+088299999V0200901N00671004201CN0200001N9+01921+01271102111ADDAA106000091AG14000GF105991051021004501001001KA1240N+01421MA1999999092231MD1999999+0031REMSYN016 333 20142 58003
0095833390999991992081818004-14050-042617FM-12+088299999V0200901N00311220001CN0200001N9+02431+01301101641ADDAA106000091AG14000GF104991041021004501001001MA1999999091831MD1999999-0051REMSYN010 333 59005
0130833390999991992081900004-14050-042617FM-12+088299999V0201401N00571220001CN9999999N9+02001+00991101821ADDAA106000091AG14000GA1001+999999999GF100991001001999999001001KA1240M+02451MA1999999091981MD1999999-0041REMSYN016 333 10245 59004
0114833390999991992081912004-14050-042617FM-12+088299999V0200901N00261004201CN0200001N9+01761+01471101971ADDAA106000091AG14000GF106991061021004501001001KA1240N+01221MA1999999092111MD1999999-0121REMSYN016 333 20122 59012
0095833390999991992081918004-14050-042617FM-12+088299999V0201401N00311220001CN0200001N9+02671+01351101471ADDAA106000091AG14000GF102991021021004501001001MA1999999091701MD1999999-0131REMSYN010 333 59013
0130833390999991992082000004-14050-042617FM-12+088299999V0201401N00411220001CN9999999N9+02141+01311101771ADDAA106000091AG14000GA1001+999999999GF100991001001999999001001KA1240M+02731MA1999999091941MD1999999-0041REMSYN016 333 10273 59004
0095833390999991992082018004-14050-042617FM-12+088299999V0201401N00671220001CN0200001N9+02701+01261101531ADDAA106000091AG14000GF102991021021004501001001MA1999999091751MD1999999+0051REMSYN010 333 58005
0130833390999991992082100004-14050-042617FM-12+088299999V0201401N00821220001CN9999999N9+02221+01071101781ADDAA106000091AG14000GA1001+999999999GF100991001001999999001001KA1240M+02711MA1999999091951MD1999999-0011REMSYN016 333 10271 59001
0114833390999991992082112004-14050-042617FM-12+088299999V0201401N00511004201CN0200001N9+01821+01491102001ADDAA106000091AG14000GF106991061021004501001001KA1240N+01471MA1999999092151MD1999999-0011REMSYN016 333 20147 59001
0111833390999991992082118004-14050-042617FM-12+088299999V0201401N00571220001CN0200001N9+02561+01241101531ADDAA106000091AG14000GA1001+999999999GF100991001001999999001001MA1999999091771MD1999999+0021REMSYN010 333 58002
0130833390999991992082200004-14050-042617FM-12+088299999V0201401N00821220001CN9999999N9+02101+01271101821ADDAA106000091AG14000GA1001+999999999GF100991001001999999001001KA1240M+02641MA1999999091981MD1999999+0031REMSYN016 333 10264 58003
0114833390999991992082212004-14050-042617FM-12+088299999V0201401N00721004201CN0200001N9+01801+01471101861ADDAA106000091AG14000GF106991061021004501001001KA1240N+01441MA1999999092021MD1999999-0131REMSYN016 333 20144 59013
0095833390999991992082218004-14050-042617FM-12+088299999V0201401N00411220001CN0200001N9+02561+01101101451ADDAA106000091AG14000GF102991021021004501001001MA1999999091691MD1999999-0081REMSYN010 333 59008
0130833390999991992082300004-14050-042617FM-12+088299999V0201401N00311220001CN9999999N9+02101+01341101721ADDAA106000091AG14000GA1001+999999999GF100991001001999999001001KA1240M+02611MA1999999091891MD1999999-0041REMSYN016 333 10261 59004
0130833390999991992082400004-14050-042617FM-12+088299999V0209991C00001220001CN9999999N9+02181+01321101531ADDAA106000091AG14000GA1001+999999999GF100991001001999999001001KA1240M+02751MA1999999091721MD1999999-0171REMSYN016 333 10275 59017
0130833390999991992082412004-14050-042617FM-12+088299999V0200501N00151220001CN0200001N9+02141+01461101581ADDAA106000091AG14000GA1001+999999999GF100991001001999999001001KA1240N+01381MA1999999091821MD1999999-0151REMSYN016 333 20138 59015
0130833390999991992082500004-14050-042617FM-12+088299999V0201801N00151220001CN9999999N9+02361+01261101331ADDAA106000091AG14000GA1001+999999999GF100991001001999999001001KA1240M+03041MA1999999091601MD1999999-0121REMSYN016 333 10304 59012
0095833390999991992082518004-14050-042617FM-12+088299999V0201401N00311220001CN0200001N9+02921+01381101251ADDAA106000091AG14000GF102991021021004501001001MA1999999091561MD1999999+0161REMSYN010 333 58016
0114833390999991992082612004-14050-042617FM-12+088299999V0201401N00671004201CN0200001N9+01981+01661101911ADDAA106000091AG14000GF105991051021004501001001KA1240N+01581MA1999999092101MD1999999+0221REMSYN016 333 20158 58022
0095833390999991992082618004-14050-042617FM-12+088299999V0201401N00621220001CN0200001N9+02741+01221101421ADDAA106000091AG14000GF102991021021004501001001MA1999999091681MD1999999+0121REMSYN010 333 58012
0130833390999991992082700004-14050-042617FM-12+088299999V0201401N00821220001CN9999999N9+02161+01501101711ADDAA106000091AG14000GA1001+999999999GF100991001001999999001001KA1240M+02731MA1999999091901MD1999999+0021REMSYN016 333 10273 58002
0149833390999991992082712004-14050-042617FM-12+088299999V0201401N00621220001CN0200001N9+01921+01661101951ADDAA106000091AG14000GF104991999021004501001001KA1240N+99999MA1999999092121MD1999999+0021REMSYN016 333 20206 58002EQDQ01+000062SCOTLCQ02 +02062ATMN  
0095833390999991992082718004-14050-042617FM-12+088299999V0201401N00871220001CN0200001N9+02541+01261101461ADDAA106000091AG14000GF102991021021004501001001MA1999999091711MD1999999+0031REMSYN010 333 58003
0114833390999991992082812004-14050-042617FM-12+088299999V0201401N00511004201CN0200001N9+01981+01501101891ADDAA106000091AG14000GF106991061021004501001001KA1240N+01621MA1999999092061MD1999999-0061REMSYN016 333 20162 59006
0095833390999991992082818004-14050-042617FM-12+088299999V0201401N00511220001CN0200001N9+02541+01391101481ADDAA106000091AG14000GF104991041021004501001001MA1999999091821MD1999999+0011REMSYN010 333 58001
0130833390999991992082900004-14050-042617FM-12+088299999V0201401N00671220001CN9999999N9+02161+01501101641ADDAA106000091AG14000GA1001+999999999GF100991001001999999001001KA1240M+02571MA1999999091841MD1999999-0041REMSYN016 333 10257 59004
0095833390999991992082918004-14050-042617FM-12+088299999V0201401N00511220001CN0200001N9+02651+01191101431ADDAA106000091AG14000GF104991041021004501001001MA1999999091691MD1999999-0031REMSYN010 333 59003
0130833390999991992083000004-14050-042617FM-12+088299999V0201401N00511220001CN9999999N9+02221+01251101691ADDAA106000091AG14000GA1001+999999999GF100991001001999999001001KA1240M+02671MA1999999091901MD1999999+0061REMSYN016 333 10267 58006
0114833390999991992083012004-14050-042617FM-12+088299999V0201401N00571220001CN0200001N9+01861+01431101941ADDAA106000091AG14000GF103991031021004501001001KA1240N+01461MA1999999092111MD1999999+0051REMSYN016 333 20146 58005
0095833390999991992083018004-14050-042617FM-12+088299999V0200901N00511220001CN0200001N9+02621+01151101551ADDAA106000091AG14000GF102991021021004501001001MA1999999091791MD1999999+0101REMSYN010 333 58010
0130833390999991992083100004-14050-042617FM-12+088299999V0201401N00511220001CN9999999N9+02101+01271101831ADDAA106000091AG14000GA1001+999999999GF100991001001999999001001KA1240M+02651MA1999999092001MD1999999+0101REMSYN016 333 10265 58010
0114833390999991992083112004-14050-042617FM-12+088299999V0201401N00871220001CN0200001N9+01921+01381101871ADDAA106000091AG14000GF103991031021004501001001KA1240N+01431MA1999999091041MD1999999-0071REMSYN016 333 20143 59007
0095833390999991992083118004-14050-042617FM-12+088299999V0201401N00771004201CN0200001N9+02481+01371101391ADDAA106000091AG14000GF105991051021004501001001MA1999999091651MD1999999-0141REMSYN010 333 59014
0095833390999991992090118004-14050-042617FM-12+088299999V0201401N00671220001CN0200001N9+02481+01171101341ADDAA106000091AG14000GF102991021021004501001001MA1999999091571MD1999999-0081REMSYN010 333 59008
0130833390999991992090200004-14050-042617FM-12+088299999V0201401N00511220001CN9999999N9+02021+01391101571ADDAA106000091AG14000GA1001+999999999GF100991001001999999001001KA1240M+02531MA1999999091761MD1999999-0081REMSYN016 333 10253 59008
0114833390999991992090212004-14050-042617FM-12+088299999V0201401N00511220001CN0200001N9+01871+01411101831ADDAA106000091AG14000GF102991021021004501001001KA1240N+01361MA1999999091991MD1999999+0081REMSYN016 333 20136 58008
0095833390999991992090218004-14050-042617FM-12+088299999V0201401N00571220001CN0200001N9+02541+01231101331ADDAA106000091AG14000GF102991021021004501001001MA1999999091571MD1999999+0001REMSYN010 333 58000
0130833390999991992090300004-14050-042617FM-12+088299999V0201401N00571220001CN9999999N9+02181+01291101581ADDAA106000091AG14000GA1001+999999999GF100991001001999999001001KA1240M+02571MA1999999091771MD1999999+0011REMSYN016 333 10257 58001
0114833390999991992090312004-14050-042617FM-12+088299999V0201401N00571004201CN0200001N9+01961+01591101751ADDAA106000091AG14000GF106991061021004501001001KA1240N+01621MA1999999091941MD1999999-0051REMSYN016 333 20162 59005
0081833390999991992090318004-14050-042617FM-12+088299999V0201401N00511220001CN0200001N9+02681+01171101321ADDAA106000091AG14000GF102991021021004501001001MA1999999091581REMSYN010 333 5800/
0130833390999991992090400004-14050-042617FM-12+088299999V0201401N00511220001CN9999999N9+02221+01331101531ADDAA106000091AG14000GA1001+999999999GF100991001001999999001001KA1240M+02751MA1999999091751MD1999999-0021REMSYN016 333 10275 59002
0095833390999991992090418004-14050-042617FM-12+088299999V0201401N00671220001CN0200001N9+02661+01331101171ADDAA106000091AG14000GF103991031021004501001001MA1999999091361MD1999999-0021REMSYN010 333 59002
0114833390999991992090512004-14050-042617FM-12+088299999V0201401N00411004201CN0200001N9+02061+01561101511ADDAA106000091AG14000GF105991051021004501001001KA1240N+01491MA1999999091741MD1999999+0001REMSYN016 333 20149 58000
0111833390999991992090518004-14050-042617FM-12+088299999V0201401N00411220001CN0200001N9+02801+00931101001ADDAA106000091AG14000GA1001+999999999GF100991001001999999001001MA1999999091311MD1999999-0051REMSYN010 333 59005
0130833390999991992090600004-14050-042617FM-12+088299999V0201401N00511220001CN9999999N9+02351+01161101201ADDAA106000091AG14000GA1001+999999999GF100991001001999999001001KA1240M+02851MA1999999091471MD1999999-0131REMSYN016 333 10285 59013
0133833390999991992090618004-14050-042617FM-12+088299999V0201401N00411220001CN0200001N9+02021+01391101411ADDAA106000091AG14000GF102991021021999999001001KA1240N+01471MA1999999091691MD1999999-0051REMSYN016 333 20147 59005EQDQ01+000992SCOLCB
0130833390999991992090700004-14050-042617FM-12+088299999V0201401N00411220001CN9999999N9+02281+01271101371ADDAA106000091AG14000GA1001+999999999GF100991001001999999001001KA1240M+02871MA1999999091531MD1999999+0061REMSYN016 333 10287 58006
0114833390999991992090712004-14050-042617FM-12+088299999V0201401N00311220001CN0200001N9+02281+01661101441ADDAA106000091AG14000GF103991999999004501999999KA1240N+01621MA1999999091711MD1999999+0021REMSYN016 333 20162 58002
0095833390999991992090718004-14050-042617FM-12+088299999V0209991C00001004201CN0200001N9+02941+01481100981ADDAA106000091AG14000GF106991061021004501001001MA1999999091901MD1999999+0051REMSYN010 333 58005
0114833390999991992090800004-14050-042617FM-12+088299999V0209991C00001004201CN9999999N9+02401+01731101261ADDAA106000091AG14000GF108991081021004501999999KA1240M+02971MA1999999091551MD1999999+0021REMSYN016 333 10297 58002
0142833390999991992090812004-14050-042617FM-12+088299999V0201401N00311004201CN0010001N9+01971+01881101471ADDAA124002091AG10002AY161061AY241061GF108991061021004501021999KA1240N+01741MA1999999091721MD1999999+0011MW1401REMSYN022 333 20174 58001 60024
0119833390999991992090818004-14050-042617FM-12+088299999V0201401N00361006001CN0200001N9+02541+01571101101ADDAA106000091AG10000AY141061AY201061GA1051+006009029GF106991999999004501999999MA1999999091381MW1021REMSYN010 333 85220
0142833390999991992090900004-14050-042617FM-12+088299999V0201401N00671004201CN0010001N9+01601+01551101801ADDAA124001091AG10002AY161061AY241061GF108991051051004501021999KA1240N+01461MA1999999091931MD1999999+0211MW1401REMSYN022 333 20146 58021 60014
0117833390999991992090918004-14050-042617FM-12+088299999V0201401N00671045001CN0200001N9+02281+01571101271ADDAA106000091AG10000AY141061AY221061GF106991041021004501031001MA1999999091571MD1999999+0191MW1021REMSYN010 333 58019
0114833390999991992091000004-14050-042617FM-12+088299999V0201401N00821220001CN9999999N9+02041+01411101611ADDAA106000091AG14000GF104991041021004501001001KA1240M+02331MA1999999091761MD1999999+0091REMSYN016 333 10233 58009
0114833390999991992091012004-14050-042617FM-12+088299999V0201401N00931004201CN0200001N9+01821+01221101821ADDAA106000091AG14000GF106991061021004501001001KA1240N+01421MA1999999091981MD1999999+0051REMSYN016 333 20142 58005
0095833390999991992091018004-14050-042617FM-12+088299999V0201401N00361004201CN0200001N9+02251+01201101591ADDAA106000091AG14000GF105991051021004501001001MA1999999091771MD1999999+0201REMSYN010 333 58020
0130833390999991992091100004-14050-042617FM-12+088299999V0201401N00671220001CN9999999N9+01961+01141101791ADDAA106000091AG14000GA1001+999999999GF100991001001999999001001KA1240M+02281MA1999999091941MD1999999+0181REMSYN016 333 10228 58018
0095833390999991992091118004-14050-042617FM-12+088299999V0201401N00671045001CN0200001N9+02201+01281101531ADDAA106000091AG14000GF106991041021004501031001MA1999999091711MD1999999-0061REMSYN010 333 59006
0114833390999991992091121004-14050-042617FM-12+088299999V0201401N00821004201CN9999999N9+01841+01321101851ADDAA106000091AG14000GF108991061051004501021999KA1240M+02231MA1999999091971MD1999999+0031REMSYN016 333 10223 58003
0114833390999991992091212004-14050-042617FM-12+088299999V0201401N00771004201CN0200001N9+01641+01201101941ADDAA106000091AG14000GF106991061021004501001001KA1240N+01221MA1999999092061MD1999999+0091REMSYN016 333 20122 58009
0114833390999991992091300004-14050-042617FM-12+088299999V0201401N00821220001CN9999999N9+01881+01011101741ADDAA106000091AG14000GF102991021021004501001001KA1240M+02311MA1999999091871MD1999999-0101REMSYN016 333 10231 59010
0114833390999991992091312004-14050-042617FM-12+088299999V0201401N00511004201CN0200001N9+01741+01251101771ADDAA106000091AG14000GF105991051021004501001001KA1240N+01321MA1999999091911MD1999999-0151REMSYN016 333 20132 59015
0114833390999991992091400004-14050-042617FM-12+088299999V0201401N00821045001CN9999999N9+02161+01161101351ADDAA106000091AG14000GF106991031021004501031001KA1240M+02611MA1999999091551MD1999999-0321REMSYN016 333 10261 59032
0114833390999991992091412004-14050-042617FM-12+088299999V0201401N00821004201CN0200001N9+01841+01411101511ADDAA106000091AG14000GF106991061021004501001001KA1240N+01521MA1999999091711MD1999999-0201REMSYN016 333 20152 59020
0095833390999991992091418004-14050-042617FM-12+088299999V0201401N00981004201CN0200001N9+02461+01191101141ADDAA106000091AG14000GF106991061021004501001001MA1999999091411MD1999999-0011REMSYN010 333 59001
0114833390999991992091500004-14050-042617FM-12+088299999V0201401N00821220001CN9999999N9+02061+01261101491ADDAA106000091AG14000GF103991031021004501001001KA1240M+02491MA1999999091681MD1999999+0131REMSYN016 333 10249 58013
0153833390999991992091512004-14050-042617FM-12+088299999V0201401N00821004201CN0010001N9+01701+01621101771ADDAA124000491AA299000591AG10000AY151061AY241061GF108991051051004501021999KA1240N+01481MA1999999091931MD1999999+0221MW1401REMSYN022 333 20148 58022 69944
0117833390999991992091518004-14050-042617FM-12+088299999V0201401N00671220001CN0200001N9+02531+01291101271ADDAA106000091AG10000AY141061AY221061GF103991031021004501001001MA1999999091531MD1999999+0121MW1021REMSYN010 333 58012
0130833390999991992091600004-14050-042617FM-12+088299999V0201401N00671220001CN9999999N9+02081+01371101441ADDAA106000091AG14000GA1001+999999999GF100991001001999999001001KA1240M+02591MA1999999091721MD1999999+0041REMSYN016 333 10259 58004
0136833390999991992091612004-14050-042617FM-12+088299999V0201401N00571220001CN0200001N9+01981+01421101641ADDAA106000091AG14000GA1031+013209039GF104991041021004501001001KA1240N+01461MA1999999091841MD1999999-0091REMSYN022 333 20146 59009 83344
0095833390999991992091618004-14050-042617FM-12+088299999V0201401N00571220001CN0200001N9+02641+01171101131ADDAA106000091AG14000GF102991021021004501001001MA1999999091401MD1999999-0131REMSYN010 333 59013
0130833390999991992091700004-14050-042617FM-12+088299999V0201401N00771220001CN9999999N9+02301+01201101331ADDAA106000091AG14000GA1001+999999999GF100991001001999999001001KA1240M+03681MA1999999091581MD1999999-0141REMSYN016 333 10368 59014
0114833390999991992091712004-14050-042617FM-12+088299999V0201401N00511220001CN0200001N9+01981+01421101501ADDAA106000091AG14000GF103991031021004501001001KA1240N+01481MA1999999091741MD1999999-0101REMSYN016 333 20148 59010
0095833390999991992091718004-14050-042617FM-12+088299999V0201401N00621220001CN0750001N9+02721+01171101071ADDAA106000091AG14000GF102991001001999999001011MA1999999091361MD1999999-0041REMSYN010 333 59004
0130833390999991992091800004-14050-042617FM-12+088299999V0209991C00001220001CN9999999N9+02241+01241101321ADDAA106000091AG14000GA1001+999999999GF100991001001999999001001KA1240M+02751MA1999999091561MD1999999-0021REMSYN016 333 10275 59002
0114833390999991992091812004-14050-042617FM-12+088299999V0201401N00511004201CN0200001N9+01961+01441101561ADDAA106000091AG14000GF106991061021004501001001KA1240N+01661MA1999999091781MD1999999+0041REMSYN016 333 20166 58004
0111833390999991992091818004-14050-042617FM-12+088299999V0201401N00571220001CN0200001N9+02861+01031101021ADDAA106000091AG14000GA1001+999999999GF100991001001999999001001MA1999999091341MD1999999-0021REMSYN010 333 59002
0130833390999991992091900004-14050-042617FM-12+088299999V0201401N00411220001CN9999999N9+02361+01101101231ADDAA106000091AG14000GA1001+999999999GF100991001001999999001001KA1240M+02891MA1999999091491MD1999999-0071REMSYN016 333 10289 59007
0114833390999991992091912004-14050-042617FM-12+088299999V0201401N00461004201CN0200001N9+01961+01501101501ADDAA106000091AG14000GF106991061021004501001001KA1240N+01541MA1999999091741MD1999999-0041REMSYN016 333 20154 59004
0095833390999991992091918004-14050-042617FM-12+088299999V0201401N00571220001CN0200001N9+02721+01281101081ADDAA106000091AG14000GF102991021021004501001001MA1999999091371MD1999999+0031REMSYN010 333 58003
0130833390999991992092000004-14050-042617FM-12+088299999V0201401N00511220001CN9999999N9+02281+01031101381ADDAA106000091AG14000GA1001+999999999GF100991001001999999001001KA1240M+02751MA1999999091621MD1999999+0131REMSYN016 333 10275 58013
0114833390999991992092012004-14050-042617FM-12+088299999V0201401N01081004201CN0200001N9+02041+01471101491ADDAA106000091AG14000GF106991061021004501001001KA1240N+01561MA1999999091731MD1999999-0011REMSYN016 333 20156 59001
0114833390999991992092112004-14050-042617FM-12+088299999V0200901N00671004201CN0200001N9+02061+01471101681ADDAA106000091AG14000GF106991061021004501001001KA1240N+01581MA1999999091901MD1999999+0171REMSYN016 333 20158 58017
0127833390999991992092118004-14050-042617FM-12+088299999V0200901N00511045001CN0100001N9+02481+02031101321ADDAA106006091AG10002AY161061AY251061GF107991041021004501081011MD1999999+0181MW1031REMSYN016 333 58018 60061EQDQ01+098443APOSP 
0114833390999991992092200004-14050-042617FM-12+088299999V0201401N00671004201CN9999999N9+02121+01621101561ADDAA106000091AG14000GF105991051021004501001001KA1240M+02671MA1999999091781MD1999999+0121REMSYN016 333 10267 58012
0095833390999991992092218004-14050-042617FM-12+088299999V0201401N00771220001CN0200001N9+02461+01251101251ADDAA106000091AG14000GF104991041021004501001001MA1999999091501MD1999999-0041REMSYN010 333 59004
0114833390999991992092300004-14050-042617FM-12+088299999V0201401N00621004201CN9999999N9+02041+01621101541ADDAA106000091AG14000GF106991061021004501001001KA1240M+02551MA1999999091741MD1999999-0041REMSYN016 333 10255 59004
0114833390999991992092312004-14050-042617FM-12+088299999V0200901N00671004201CN0200001N9+01891+01361101801ADDAA106000091AG14000GF106991061021004501001001KA1240N+01461MA1999999091871MD1999999+0081REMSYN016 333 20146 58008
