0115822800999991997010100004-02533-044283FM-12+005199999V0209999999999220001CN0200001N1+02641+02441100671ADDAA106000091AG10000GF103991031021004501001001KA1240M+03251MA1999999100091MD1999999-0081REMSYN017 333 10325 59008;
0115822800999991997010112004-02533-044283FM-12+005199999V0209999999999045001CN0200001N1+02821+02441100931ADDAA106000091AG10000GF108991031021004501031999KA1240N+02491MA1999999100351MD1999999+0121REMSYN017 333 20249 58012;
0096822800999991997010118004-02533-044283FM-12+005199999V0209999999999105001CN0200001N1+03161+02521100591ADDAA106000091AG10000GF105991011011008001031011MA1999999100021MD1999999+0021REMSYN011 333 58002;
0115822800999991997010212004-02533-044283FM-12+005199999V0209999999999045001CN0200001N1+02901+02341100931ADDAA106000091AG10000GF106991041021004501031011KA1240N+02511MA1999999100351MD1999999+0001REMSYN017 333 20251 58000;
0096822800999991997010218004-02533-044283FM-12+005199999V0209999999999220001CN0200001N1+03201+02381100581ADDAA106000091AG10000GF104991021021004501031001MA1999999100001MD1999999-0021REMSYN011 333 59002;
0143822800999991997010312004-02533-044283FM-12+005199999V0209999999999004201CN0200001N1+02601+02331101091ADDAA124002091AG10006AY161061AY221061GF108991051061004501021999KA1240N+02491MA1999999100511MD1999999+0161MW1011REMSYN023 333 20249 58016 60024;
0096822800999991997010318004-02533-044283FM-12+005199999V0209999999999004201CN0200001N1+02921+02451100821ADDAA106000091AG10000GF108991051051004501021999MA1999999100241MD1999999+0241REMSYN011 333 58024;
0115822800999991997010412004-02533-044283FM-12+005199999V0209999999999220001CN0200001N1+02921+02361100961ADDAA106000091AG10000GF104991031021004501031001KA1240N+02491MA1999999100381MD1999999-0131REMSYN017 333 20249 59013;
0096822800999991997010418004-02533-044283FM-12+005199999V0209999999999220001CN0200001N1+03141+02501100681ADDAA106000091AG10000GF102991011011008001031001MA1999999100101MD1999999+0141REMSYN011 333 58014;
0115822800999991997010512004-02533-044283FM-12+005199999V0209999999999045001CN0200001N1+02851+02351100891ADDAA106000091AG10000GF106991041031004501031001KA1240N+02591MA1999999100311MD1999999-0071REMSYN017 333 20259 59007;
0096822800999991997010518004-02533-044283FM-12+005199999V0209999999999045001CN0200001N1+03161+02641100671ADDAA106000091AG10000GF107991041051004501031001MA1999999100091MD1999999-0011REMSYN011 333 59001;
0115822800999991997010612004-02533-044283FM-12+005199999V0209999999999045001CN0200001N1+02881+02321101081ADDAA106000091AG10000GF106991041021004501031001KA1240N+02491MA1999999100501MD1999999+0191REMSYN017 333 20249 58019;
0115822800999991997010712004-02533-044283FM-12+005199999V0209999999999045001CN0200001N1+02701+02281101151ADDAA106000091AG10000GF106991041061004501051001KA1240N+02411MA1999999100571MD1999999+0071REMSYN017 333 20241 58007;
0124822800999991997010718004-02533-044283FM-12+005199999V0209999999999045001CN0200001N1+02901+02341100911ADDAA106001091AG10006AY161061AY221061GF108991041061004501051021MA1999999100331MD1999999+0091MW1011REMSYN017 333 58009 69981;
0121822800999991997010812004-02533-044283FM-12+005199999V02099999999990450019N0200001N1+02861+02311101151ADDAA124001091AG10000GF106991041021004501031001KA1240N+02351MA1999999100571MD1999999+0001REMSYN023 333 20235 58000 69984;
0096822800999991997010818004-02533-044283FM-12+005199999V0209999999999045001CN0200001N1+03061+02431100881ADDAA106000091AG10000GF105991031021004501021001MA1999999100301MD1999999-0031REMSYN011 333 59003;
0131822800999991997010900004-02533-044283FM-12+005199999V0209999999999220001CN0200001N1+02641+02381101061ADDAA106000091AG10000GA1001+999999999GF100991001001999999001001KA1240M+03321MA1999999100481MD1999999+0031REMSYN017 333 10332 58003;
0115822800999991997010912004-02533-044283FM-12+005199999V0209999999999045001CN0200001N1+02801+02311101211ADDAA106000091AG10000GF107991041021004501031001KA1240N+02391MA1999999100631MD1999999+0061REMSYN017 333 20239 58006;
0096822800999991997010918004-02533-044283FM-12+005199999V02099999999999999999N0200001N1+02961+02331100941ADDAA106000091AG10000GF106991031001012501031041MA1999999100361MD1999999+0061REMSYN011 333 58006;
0143822800999991997011012004-02533-044283FM-12+005199999V0209999999999045001CN0200001N1+02781+02421101141ADDAA124000191AG10006AY161061AY221061GF108991041021004501031999KA1240N+02561MA1999999100561MD1999999-0061MW1021REMSYN023 333 20256 59006 69914;
0096822800999991997011018004-02533-044283FM-12+005199999V0209999999999045001CN0200001N1+03101+02461100851ADDAA106000091AG10000GF106991031021004501031001MA1999999100271MD1999999-0091REMSYN011 333 59009;
0115822800999991997011112004-02533-044283FM-12+005199999V0209999999999045001CN0200001N1+02901+02341101031ADDAA106000091AG10000GF106991031021004501031021KA1240N+02411MA1999999100451MD1999999-0111REMSYN017 333 20241 59011;
0115822800999991997011118004-02533-044283FM-12+005199999V0209999999999045001CN0200001N1+03201+02281100751ADDAA106000091AG10000GF106991041011004501041001MA1999999100181MD1999999+0091REMSYN011 333 58009;EQDQ01+999990APOSP 
0115822800999991997011212004-02533-044283FM-12+005199999V0209999999999045001CN0200001N1+02851+02311101091ADDAA106000091AG10000GF106991041021004501051001KA1240N+02451MA1999999100511MD1999999+0061REMSYN017 333 20245 58006;
0143822800999991997011312004-02533-044283FM-12+005199999V0209999999999045001CN0200001N1+02741+02341101221ADDAA124000191AG10006AY161061AY221061GF108991041051008001031999KA1240N+02251MA1999999100641MD1999999+0131MW1021REMSYN023 333 20225 58013 69924;
0124822800999991997011318004-02533-044283FM-12+005199999V0209999999999045001CN0200001N1+02681+02351100911ADDAA106000191AG10006AY161061AY221061GF108991041051008001031999MA1999999100331MD1999999+0091MW1161REMSYN017 333 58009 69921;
0143822800999991997011412004-02533-044283FM-12+005199999V0209999999999045001CN0200001N1+02331+02221101121ADDAA124016091AG10017AY191061AY261061GF108991031051008001021999KA1240N+02241MA1999999100541MD1999999-0101MW1021REMSYN023 333 20224 59010 60164;
0096822800999991997011418004-02533-044283FM-12+005199999V0209999999999045001CN0200001N1+03041+02411100921ADDAA106000091AG10000GF106991031021004501031011MA1999999100341MD1999999+0011REMSYN011 333 58001;
0115822800999991997011500004-02533-044283FM-12+005199999V0209999999999220001CN0200001N1+02621+02371101121ADDAA106000091AG10000GF103991011021004501031011KA1240M+03081MA1999999100541MD1999999-0071REMSYN017 333 10308 59007;
0115822800999991997011512004-02533-044283FM-12+005199999V02099999999990450019N0200001N1+02821+02441101241ADDAA106000091AG10000GF106991031021004501011001KA1240N+02391MA1999999100661MD1999999+0121REMSYN017 333 20239 58012;
0096822800999991997011518004-02533-044283FM-12+005199999V0209999999999220001CN0200001N1+03181+02471100941ADDAA106000091AG10000GF104991011011008001031011MA1999999100361MD1999999+0051REMSYN011 333 58005;
0115822800999991997011612004-02533-044283FM-12+005199999V0209999999999045001CN0200001N1+02861+02311101091ADDAA106000091AG10000GF106991041021004501051011KA1240N+02511MA1999999100511MD1999999-0151REMSYN017 333 20251 59015;
0096822800999991997011618004-02533-044283FM-12+005199999V0209999999999220001CN0200001N1+03121+02411100841ADDAA106000091AG10000GF104991031021004501001011MA1999999100261MD1999999-0101REMSYN011 333 59010;
0115822800999991997011712004-02533-044283FM-12+005199999V0209999999999220001CN0200001N1+02861+02311101051ADDAA106000091AG10000GF104991031021004501001021KA1240N+02471MA1999999100471MD1999999-0041REMSYN017 333 20247 59004;
0096822800999991997011718004-02533-044283FM-12+005199999V0209999999999220001CN0200001N1+03171+02531100821ADDAA106000091AG10000GF104991041021004501001001MA1999999100241MD1999999-0021REMSYN011 333 59002;
0115822800999991997011812004-02533-044283FM-12+005199999V0209999999999045001CN0200001N1+02941+02381101161ADDAA106000091AG10000GF105991031021004501031001KA1240N+02491MA1999999100581MD1999999+0111REMSYN017 333 20249 58011;
0096822800999991997011818004-02533-044283FM-12+005199999V0209999999999220001CN0200001N1+03081+02321100821ADDAA106000091AG10000GF104991021021004501021001MA1999999100241MD1999999+0001REMSYN011 333 58000;
0115822800999991997011900004-02533-044283FM-12+005199999V0209999999999220001CN0200001N1+02621+02351100991ADDAA106000091AG10000GF104991011011008001011001KA1240M+03161MA1999999100411MD1999999+0121REMSYN017 333 10316 58012;
0115822800999991997011912004-02533-044283FM-12+005199999V0209999999999045001CN0200001N1+02881+02411101141ADDAA106000091AG10000GF105991031021004501031011KA1240N+02461MA1999999100561MD1999999-0021REMSYN017 333 20246 59002;
0096822800999991997011918004-02533-044283FM-12+005199999V0209999999999220001CN0200001N1+03161+02391100851ADDAA106000091AG10000GF104991021021004501031031MA1999999100271MD1999999+0031REMSYN011 333 58003;
0104822800999991997012012004-02533-044283FM-12+005199999V0209999999999045001CN0200001N1+02861+02441101131ADDAG10000GF106991041021004501051001KA1240N+02491MA1999999100551MD1999999-0011REMSYN017 333 20249 59001;
0096822800999991997012018004-02533-044283FM-12+005199999V0209999999999105001CN0200001N1+03141+02301100821ADDAA106000091AG10000GF105991031021004501001021MA1999999100241MD1999999-0031REMSYN011 333 59003;
0121822800999991997012112004-02533-044283FM-12+005199999V02099999999990042019N0200001N1+02701+02411101051ADDAA124001091AG10006GF108991061051004501031999KA1240N+02511MA1999999100471MD1999999-0081REMSYN023 333 20251 59008 69984;
0096822800999991997012118004-02533-044283FM-12+005199999V0209999999999105001CN0200001N1+03241+02281100771ADDAA106000091AG10000GF106991041021004501001021MA1999999100191MD1999999-0051REMSYN011 333 59005;
0115822800999991997012212004-02533-044283FM-12+005199999V0209999999999045001CN0200001N1+02761+02381101151ADDAA106000091AG10000GF108991031021004501071999KA1240N+02411MA1999999100571MD1999999+0101REMSYN017 333 20241 58010;
0124822800999991997012218004-02533-044283FM-12+005199999V0209999999999045001CN0200001N1+02761+02401100921ADDAA106003091AG10006AY161061AY221061GF108991041071004501021999MA1999999100341MD1999999+0151MW1911REMSYN017 333 58015 60031;
0121822800999991997012312004-02533-044283FM-12+005199999V0209999999999004201CN0200001N1+02621+02351101211ADDAA124009091AG10000GF108991061051004501031999KA1240N+02381MA1999999100631MD1999999+0061REMSYN023 333 20238 58006 60094;
0096822800999991997012318004-02533-044283FM-12+005199999V0209999999999045001CN0200001N1+02921+02341100921ADDAA106000091AG10000GF107991041021004501031021MA1999999100341MD1999999+0001REMSYN011 333 58000;
0143822800999991997012512004-02533-044283FM-12+005199999V0209999999999045001CN0200001N1+02741+02471101121ADDAA124006091AG10006AY161061AY211061GF105991031021004501031011KA1240N+02391MA1999999100541MD1999999-0161MW1031REMSYN023 333 20239 59016 60064;
0118822800999991997012518004-02533-044283FM-12+005199999V0209999999999045001CN0200001N1+02841+02421100851ADDAA106000091AG10000AY121061AY211061GF106991031051008001041011MA1999999100271MD1999999-0261MW1171REMSYN011 333 59026;
0143822800999991997012612004-02533-044283FM-12+005199999V0209999999999045001CN0200001N1+02601+02271101071ADDAA124014091AG10006AY161061AY221061GF106991041051004501031001KA1240N+02231MA1999999100491MD1999999-0051MW1011REMSYN023 333 20223 59005 60144;
0096822800999991997012618004-02533-044283FM-12+005199999V0209999999999004201CN0100001N1+02921+02361100751ADDAA106000091AG10000GF106991051021004501001021MA1999999100171MD1999999-0101REMSYN011 333 59010;
0124822800999991997012718004-02533-044283FM-12+005199999V0209999999999004201CN0040001N1+02431+02151100901ADDAA106029091AG10006AY161061AY221061GF108991081071004501999999MA1999999100321MD1999999+0151MW1911REMSYN017 333 58015 60291;
0121822800999991997012812004-02533-044283FM-12+005199999V0209999999999045001CN0200001N1+02721+02391101071ADDAA124034091AG10000GF106991041021004501031011KA1240N+02261MA1999999100491MD1999999+0001REMSYN023 333 20226 58000 60344;
0096822800999991997012818004-02533-044283FM-12+005199999V0209999999999045001CN0200001N1+02821+02381100811ADDAA106000091AG10000GF107991031051008001031061MA1999999100231MD1999999-0091REMSYN011 333 59009;
0143822800999991997012900004-02533-044283FM-12+005199999V0209999999999045001CN0100001N1+02541+02451100951ADDAA106002091AG10006AY161061AY261061GF108991031031004501021999KA1240M+03101MA1999999100371MD1999999-0131MW1911REMSYN023 333 10310 59013 60021;
0143822800999991997012912004-02533-044283FM-12+005199999V0209999999999004201CN0200001N1+02701+02431100931ADDAA124006091AG10006AY161061AY221061GF108991061051004501031999KA1240N+02361MA1999999100351MD1999999-0141MW1011REMSYN023 333 20236 59014 60064;
0124822800999991997012918004-02533-044283FM-12+005199999V0209999999999045001CN0100001N1+02801+02251100711ADDAA106000591AG10006AY161061AY221061GF106991041021004501051001MA1999999100131MD1999999-0101MW1021REMSYN017 333 59010 69961;
0121822800999991997013012004-02533-044283FM-12+005199999V0209999999999004201CN0200001N1+02771+02411101061ADDAA124001091AG10000GF108991051061004501051999KA1240N+02471MA1999999100481MD1999999+0131REMSYN023 333 20247 58013 69984;
0096822800999991997013018004-02533-044283FM-12+005199999V0209999999999004201CN0200001N1+02801+02341100861ADDAA106000091AG10000GF108991061051004501021999MA1999999100281MD1999999+0051REMSYN011 333 58005;
0143822800999991997013112004-02533-044283FM-12+005199999V0209999999999045001CN0200001N1+02661+02461101121ADDAA124012091AG10006AY161061AY221061GF107991021011008001031011KA1240N+02261MA1999999100541MD1999999+0061MW1021REMSYN023 333 20226 58006 60124;
0096822800999991997013118004-02533-044283FM-12+005199999V0209999999999045001CN0200001N1+03051+02481100841ADDAA106000091AG10000GF107991031021004501031011MA1999999100261MD1999999-0021REMSYN011 333 59002;
0115822800999991997020112004-02533-044283FM-12+005199999V0209999999999220001CN0200001N1+02881+02321101031ADDAA106000091AG10000GF103991021021004501031001KA1240N+02291MA1999999100451MD1999999-0091REMSYN017 333 20229 59009;
0096822800999991997020118004-02533-044283FM-12+005199999V0209999999999220001CN0200001N1+03061+02451100831ADDAA106000091AG10000GF102991021021004501001001MA1999999100251MD1999999-0011REMSYN011 333 59001;
0115822800999991997020212004-02533-044283FM-12+005199999V0209999999999045001CN0200001N1+02841+02291101051ADDAA106000091AG10000GF105991041021004501031001KA1240N+02451MA1999999100471MD1999999+0021REMSYN017 333 20245 58002;
0096822800999991997020218004-02533-044283FM-12+005199999V0209999999999220001CN0200001N1+03021+02311100841ADDAA106000091AG10000GF104991041021004501001001MA1999999100261MD1999999+0011REMSYN011 333 58001;
0115822800999991997020312004-02533-044283FM-12+005199999V0209999999999220001CN0200001N1+02881+02411101071ADDAA106000091AG10000GF104991031021004501001011KA1240N+02261MA1999999100491MD1999999+0021REMSYN017 333 20226 58002;
0118822800999991997020318004-02533-044283FM-12+005199999V0209999999999045001CN0200001N1+02801+02421100841ADDAA106000091AG10000AY111061AY201061GF107991041051008001031011MA1999999100261MD1999999+0001MW1171REMSYN011 333 58000;
0096822800999991997020418004-02533-044283FM-12+005199999V0209999999999045001CN0200001N1+03001+02321100821ADDAA106000091AG10000GF105991041021004501031001MA1999999100241MD1999999-0021REMSYN011 333 59002;
0115822800999991997020512004-02533-044283FM-12+005199999V0209999999999045001CN0200001N1+02841+02311100991ADDAA106000091AG10000GF105991041021004501051001KA1240N+02391MA1999999100411MD1999999-0081REMSYN017 333 20239 59008;
0096822800999991997020518004-02533-044283FM-12+005199999V0209999999999045001CN0200001N1+02961+02561100701ADDAA106000091AG10000GF107991041061004501031011MA1999999100121MD1999999-0121REMSYN011 333 59012;
0143822800999991997020612004-02533-044283FM-12+005199999V0209999999999045001CN0200001N1+02841+02421100991ADDAA124001091AG10006AY161061AY211061GF107991041021004501031011KA1240N+02511MA1999999100411MD1999999+0001MW1031REMSYN023 333 20251 58000 60014;
0124822800999991997020618004-02533-044283FM-12+005199999V0209999999999045001CN0200001N1+02941+02451100711ADDAA106001091AG10006AY161061AY211061GF106991021011008001061011MA1999999100131MD1999999+0011MW1021REMSYN017 333 58001 60011;
0143822800999991997020712004-02533-044283FM-12+005199999V0209999999999045001CN0200001N1+02841+02311101151ADDAA124001091AG10006AY161061AY221061GF107991041021004501051021KA1240N+02451MA1999999100571MD1999999+0161MW1011REMSYN023 333 20245 58016 60014;
0096822800999991997020718004-02533-044283FM-12+005199999V0209999999999045001CN0200001N1+02981+02331100901ADDAA106000091AG10000GF106991041021004501011001MA1999999100321MD1999999+0191REMSYN011 333 58019;
0115822800999991997020812004-02533-044283FM-12+005199999V0209999999999004201CN0200001N1+02821+02331101151ADDAA106000091AG10000GF108991061051004501021999KA1240N+02471MA1999999100571MD1999999+0001REMSYN017 333 20247 58000;
0096822800999991997020818004-02533-044283FM-12+005199999V0209999999999004201CN0200001N1+03021+02341100901ADDAA106000091AG10000GF108991061051004501021999MA1999999100321MD1999999+0001REMSYN011 333 58000;
0115822800999991997020900004-02533-044283FM-12+005199999V0209999999999220001CN0200001N1+02641+02371100951ADDAA106000091AG10000GF103991031051004501001001KA1240M+03171MA1999999100371MD1999999-0111REMSYN017 333 10317 59011;
0073822800999991997020912004-02533-044283FM-12+005199999V02099999999999999999N0200001N1+02681+02481101171ADDAG10006AY161061AY221061GF107991999999004501999999MA1999999100591MW1021
0143822800999991997021012004-02533-044283FM-12+005199999V0209999999999004201CN0200001N1+02361+02281101201ADDAA124044091AG10006AY161061AY221061GF108991051061004501021999KA1240N+02171MA1999999100611MD1999999+0021MW1011REMSYN023 333 20217 58002 60444;
0096822800999991997021018004-02533-044283FM-12+005199999V0209999999999004201CN0200001N1+03021+02391101011ADDAA106000091AG10000GF108991051051004501021999MA1999999100431MD1999999+0051REMSYN011 333 58005;
0115822800999991997021100004-02533-044283FM-12+005199999V0209999999999220001CN0200001N1+02601+02291101081ADDAA106000091AG10000GF102991021011008001001001KA1240M+03071MA1999999100501MD1999999+0031REMSYN017 333 10307 58003;
0115822800999991997021112004-02533-044283FM-12+005199999V0209999999999045001CN0200001N1+02761+02341101111ADDAA106000091AG10000GF106991041051004501031001KA1240N+02391MA1999999100531MD1999999-0081REMSYN017 333 20239 59008;
0124822800999991997021118004-02533-044283FM-12+005199999V0209999999999004201CN0040001N1+02421+02331100911ADDAA106010091AG10000AY121061AY221061GF108991061071004501021999MA1999999100331MD1999999-0101MW1951REMSYN017 333 59010 60101;
0121822800999991997021212004-02533-044283FM-12+005199999V0209999999999045001CN0200001N1+02721+02391101131ADDAA124011091AG10000GF108991031021004501031999KA1240N+02341MA1999999100551MD1999999+0021REMSYN023 333 20234 58002 60114;
0096822800999991997021218004-02533-044283FM-12+005199999V0209999999999045001CN0200001N1+02921+02421100901ADDAA106000091AG10000GF108991031021004501071001MA1999999100321MD1999999-0011REMSYN011 333 59001;
0115822800999991997021312004-02533-044283FM-12+005199999V0209999999999004201CN0200001N1+02681+02281101171ADDAA106000091AG10000GF108991051061004501051999KA1240N+02441MA1999999100591MD1999999+0041REMSYN017 333 20244 58004;
0124822800999991997021318004-02533-044283FM-12+005199999V0209999999999004201CN0200001N1+02801+02361100971ADDAA106005091AG10006AY161061AY221061GF108991051061004501031999MA1999999100391MD1999999+0071MW1161REMSYN017 333 58007 60051;
0096822800999991997021718004-02533-044283FM-12+005199999V0209999999999220001CN0200001N1+03141+02301100901ADDAA106000091AG10000GF102991021021004501001001MA1999999100321MD1999999-0081REMSYN011 333 59008;
0115822800999991997021800004-02533-044283FM-12+005199999V0209999999999220001CN0200001N1+02601+02291100951ADDAA106000091AG10000GF101991011011008001001001KA1240M+03151MA1999999100371MD1999999-0041REMSYN017 333 10315 59004;
0115822800999991997021812004-02533-044283FM-12+005199999V0209999999999220001CN0200001N1+02821+02441101141ADDAA106000091AG10000GF104991041021004501001001KA1240N+02421MA1999999100561MD1999999-0011REMSYN017 333 20242 59001;
0096822800999991997021818004-02533-044283FM-12+005199999V0209999999999220001CN0200001N1+03161+02451100861ADDAA106000091AG10000GF103991011011008001031021MA1999999100281MD1999999-0041REMSYN011 333 59004;
0124822800999991997021918004-02533-044283FM-12+005199999V0209999999999004201CN0200001N1+02461+02301100871ADDAA106015091AG10006AY161061AY221061GF108991061051004501031999MA1999999100291MD1999999+0011MW1211REMSYN017 333 58001 60151;
0143822800999991997022012004-02533-044283FM-12+005199999V0209999999999004201CN0200001N1+02501+02361101191ADDAA124027091AG10006AY161061AY221061GF108991051061004501021999KA1240N+02351MA1999999100611MD1999999-0101MW1011REMSYN023 333 20235 59010 60274;
0096822800999991997022018004-02533-044283FM-12+005199999V0209999999999045001CN0200001N1+03001+02391100861ADDAA106000091AG10000GF106991031021004501051021MA1999999100281MD1999999-0011REMSYN011 333 59001;
0115822800999991997022112004-02533-044283FM-12+005199999V0209999999999045001CN0200001N1+02821+02401101161ADDAA106000091AG10000GF106991041021004501031011KA1240N+02391MA1999999100581MD1999999-0031REMSYN017 333 20239 59003;
0096822800999991997022118004-02533-044283FM-12+005199999V0209999999999045001CN0200001N1+02981+02441100911ADDAA106000091AG10000GF108991021031004501071999MA1999999100331MD1999999+0051REMSYN011 333 58005;
0115822800999991997022212004-02533-044283FM-12+005199999V0209999999999220001CN0200001N1+02881+02371101251ADDAA106000091AG10000GF104991041021004501001001KA1240N+02481MA1999999100671MD1999999+0091REMSYN017 333 20248 58009;
0096822800999991997022218004-02533-044283FM-12+005199999V0209999999999220001CN0200001N1+03221+02321100941ADDAA106000091AG10000GF103991031021004501001001MA1999999100361MD1999999+0031REMSYN011 333 58003;
0115822800999991997022312004-02533-044283FM-12+005199999V0209999999999220001CN0200001N1+02801+02361101191ADDAA106000091AG10000GF103991031021004501001001KA1240N+02491MA1999999100611MD1999999-0061REMSYN017 333 20249 59006;
0085822800999991997022318004-02533-044283FM-12+005199999V0209999999999220001CN0200001N1+03221+02371100941ADDAG10000GF102991021021004501001001MA1999999100361MD1999999+0001REMSYN011 333 58000;
0115822800999991997022412004-02533-044283FM-12+005199999V0209999999999004201CN0200001N1+02841+02401101161ADDAA106000091AG10000GF106991061021004501001001KA1240N+02481MA1999999100581MD1999999-0031REMSYN017 333 20248 59003;
0096822800999991997022418004-02533-044283FM-12+005199999V0209999999999220001CN0200001N1+03221+02501100891ADDAA106000091AG10000GF103991031021004501001001MA1999999100311MD1999999-0051REMSYN011 333 59005;
0115822800999991997022512004-02533-044283FM-12+005199999V0209999999999220001CN0200001N1+02901+02341101051ADDAA106000091AG10000GF104991041021004501001001KA1240N+02491MA1999999100471MD1999999-0111REMSYN017 333 20249 59011;
0096822800999991997022518004-02533-044283FM-12+005199999V0209999999999220001CN0200001N1+03081+02371100851ADDAA106000091AG10000GF104991041021004501001001MA1999999100271MD1999999-0041REMSYN011 333 59004;
0115822800999991997022612004-02533-044283FM-12+005199999V0209999999999045001CN0200001N1+02921+02361101091ADDAA106000091AG10000GF106991031021004501011021KA1240N+02471MA1999999100511MD1999999+0041REMSYN017 333 20247 58004;
0096822800999991997022618004-02533-044283FM-12+005199999V0209999999999220001CN0200001N1+03081+02351100981ADDAA106000091AG10000GF102991021011008001001001MA1999999100401MD1999999+0131REMSYN011 333 58013;
0115822800999991997022712004-02533-044283FM-12+005199999V0209999999999004201CN0200001N1+02741+02341101171ADDAA106000091AG10000GF106991051021004501001011KA1240N+02401MA1999999100591MD1999999+0081REMSYN017 333 20240 58008;
0096822800999991997022718004-02533-044283FM-12+005199999V0209999999999220001CN0200001N1+03161+02471100941ADDAA106000091AG10000GF102991011011008001001011MA1999999100361MD1999999-0041REMSYN011 333 59004;
0115822800999991997022812004-02533-044283FM-12+005199999V0209999999999220001CN0200001N1+02801+02271101111ADDAA106000091AG10000GF104991041021004501001001KA1240N+02351MA1999999100531MD1999999-0061REMSYN017 333 20235 59006;
0096822800999991997022818004-02533-044283FM-12+005199999V0209999999999220001CN0200001N1+03001+02321100821ADDAA106000091AG10000GF104991041021004501001001MA1999999100241MD1999999-0121REMSYN011 333 59012;
0115822800999991997030112004-02533-044283FM-12+005199999V0209999999999045001CN0200001N1+02761+02341101111ADDAA106000091AG10000GF106991031021004501051001KA1240N+02381MA1999999100531MD1999999+0001REMSYN017 333 20238 58000;
0096822800999991997030118004-02533-044283FM-12+005199999V02099999999990450019N0200001N1+02881+02281101731ADDAA106000091AG10000GF106991041021004501031001MA1999999100151MD1999999-0091REMSYN011 333 59009;
0115822800999991997030200004-02533-044283FM-12+005199999V0209999999999045001CN0200001N1+02921+02341100722ADDAA106000091AG10000GF108991031021004501031999MA1999999100141MD1999999-0011REMSYN011 333 59001;EQDQ01+100723APOSLP
0115822800999991997030212004-02533-044283FM-12+005199999V0209999999999045001CN0200001N1+02821+02201100971ADDAA106000091AG10000GF107991031021004501051001KA1240N+02531MA1999999100391MD1999999-0141REMSYN017 333 20253 59014;
0096822800999991997030218004-02533-044283FM-12+005199999V0209999999999045001CN0200001N1+02921+02341100721ADDAA106000091AG10000GF108991031021004501031999MA1999999100141MD1999999-0011REMSYN011 333 59001;
0115822800999991997030312004-02533-044283FM-12+005199999V0209999999999045001CN0200001N1+02801+02381101091ADDAA106000091AG10000GF107991041021004501031999KA1240N+02311MA1999999100511MD1999999+0121REMSYN017 333 20231 58012;
0096822800999991997030318004-02533-044283FM-12+005199999V0209999999999220001CN0200001N1+03021+02461100801ADDAA106000091AG10000GF104991021011008001041001MA1999999100221MD1999999+0081REMSYN011 333 58008;
0143822800999991997030412004-02533-044283FM-12+005199999V0209999999999004201CN0200001N1+02501+02341101171ADDAA124002091AG10006AY161061AY211061GF108991061051004501021999KA1240N+02381MA1999999100591MD1999999+0081MW1011REMSYN023 333 20238 58008 60024;
0124822800999991997030418004-02533-044283FM-12+005199999V0209999999999004201CN0040001N1+02401+02261101011ADDAA106007091AG10006AY161061AY221061GF108991081071004501999999MA1999999100431MD1999999+0211MW1911REMSYN017 333 58021 60071;
0143822800999991997030512004-02533-044283FM-12+005199999V0209999999999045001CN0200001N1+02561+02291101141ADDAA124014091AG10006AY161061AY221061GF108991031011008001031999KA1240N+02371MA1999999100561MD1999999-0011MW1021REMSYN023 333 20237 59001 60144;
0096822800999991997030518004-02533-044283FM-12+005199999V0209999999999045001CN0200001N1+03041+02481100811ADDAA106000091AG10000GF107991041021004501031011MA1999999100231MD1999999-0201REMSYN011 333 59020;
0132822800999991997030612004-02533-044283FM-12+005199999V0209999999999045001CN0200001N1+02781+02361101171ADDAA106000091AA224033091AG10000GF105991031021004501051001KA1240N+02271MA1999999100591MD1999999-0111REMSYN023 333 20227 59011 60334;
0124822800999991997030618004-02533-044283FM-12+005199999V0209999999999004201CN0200001N1+02841+02381100781ADDAA106002091AG10006AY161061AY221061GF108991051061004501021999MA1999999100201MD1999999-0031MW1011REMSYN017 333 59003 60021;
0132822800999991997030712004-02533-044283FM-12+005199999V0209999999999045001CN0040001N1+02801+02381101051ADDAA106000091AA224002091AG10000GF106991031021004501031001KA1240N+02491MA1999999100471MD1999999-0121REMSYN023 333 20249 59012 60024;
0096822800999991997030718004-02533-044283FM-12+005199999V0209999999999220001CN0200001N1+03141+02481100821ADDAA106000091AG10000GF103991011011008001001021MA1999999100241MD1999999+0041REMSYN011 333 58004;
0115822800999991997030812004-02533-044283FM-12+005199999V0209999999999045001CN0200001N1+02761+02481101171ADDAA106000091AG10000GF107991041021004501031011KA1240N+02451MA1999999100591MD1999999+0121REMSYN017 333 20245 58012;
0124822800999991997030818004-02533-044283FM-12+005199999V0209999999999045001CN0200001N1+02941+02471100911ADDAA106000191AG10006AY161061AY211061GF107991041021004501031011MA1999999100331MD1999999+0091MW1021REMSYN017 333 58009 69921;
0124822800999991997030918004-02533-044283FM-12+005199999V0209999999999045001CN0200001N1+02901+02501100821ADDAA106000191AG10006AY161061AY221061GF107991041051004501031001MA1999999100241MD1999999-0091MW1021REMSYN017 333 59009 69911;
0131822800999991997031000004-02533-044283FM-12+005199999V0209999999999220001CN0200001N1+02621+02481100781ADDAA106000091AG10000GA1001+999999999GF100991001001999999001001KA1240M+03141MA1999999100201MD1999999-0241REMSYN017 333 10314 59024;
0121822800999991997031012004-02533-044283FM-12+005199999V0209999999999045001CN0200001N1+02881+02371100931ADDAA124000191AG10000GF106991041021004501051001KA1240N+02501MA1999999100351MD1999999-0081REMSYN023 333 20250 59008 69914;
0124822800999991997031018004-02533-044283FM-12+005199999V0209999999999045001CN0200001N1+02581+02481100751ADDAA106052091AG10006AY161061AY221061GF108991041051004501021999MA1999999100101MD1999999-0071MW1171REMSYN017 333 59007 60521;
0143822800999991997031112004-02533-044283FM-12+005199999V0209999999999045001CN0200001N1+02861+02541101061ADDAA124058091AG10006AY161061AY221061GF106991021021004501031011KA1240N+02591MA1999999100481MD1999999+0131MW1021REMSYN023 333 20259 58013 60584;
0124822800999991997031118004-02533-044283FM-12+005199999V0209999999999045001CN0200001N1+03061+02521100761ADDAA106005091AG10006AY161061AY211061GF106991031021004501031021MA1999999100181MD1999999+0011MW1021REMSYN017 333 58001 60051;
0121822800999991997031212004-02533-044283FM-12+005199999V0209999999999220001CN0200001N1+02861+02371101091ADDAA124005091AG10000GF105991031021004501001011KA1240N+02501MA1999999100511MD1999999+0031REMSYN023 333 20250 58003 60054;
0096822800999991997031218004-02533-044283FM-12+005199999V0209999999999220001CN0200001N1+03201+02381100781ADDAA106000091AG10000GF103991021021004501001021MA1999999100201MD1999999+0021REMSYN011 333 58002;
0115822800999991997031312004-02533-044283FM-12+005199999V0209999999999045001CN0200001N1+02861+02371101131ADDAA106000091AG10000GF105991041021004501031001KA1240N+02521MA1999999100551MD1999999+0041REMSYN017 333 20252 58004;
0096822800999991997031318004-02533-044283FM-12+005199999V0209999999999045001CN0200001N1+03121+02281100921ADDAA106000091AG10000GF106991021021004501031021MA1999999100341MD1999999+0141REMSYN011 333 58014;
0115822800999991997031412004-02533-044283FM-12+005199999V0209999999999045001CN0200001N1+02881+02481101131ADDAA106000091AG10000GF106991041051004501011001KA1240N+02551MA1999999100551MD1999999+0001REMSYN017 333 20255 58000;
0096822800999991997031418004-02533-044283FM-12+005199999V0209999999999045001CN0200001N1+03141+02551100921ADDAA106000091AG10000GF105991031051008001021001MA1999999100341MD1999999+0001REMSYN011 333 58000;
0096822800999991997031518004-02533-044283FM-12+005199999V0209999999999220001CN0200001N1+03081+02491100791ADDAA106000091AG10000GF104991041021004501001001MA1999999100211MD1999999-0131REMSYN011 333 59013;
0115822800999991997031600004-02533-044283FM-12+005199999V0209999999999220001CN0200001N1+02641+02411101031ADDAA106000091AG10000GF103991031021004501001001KA1240M+03091MA1999999100451MD1999999+0011REMSYN017 333 10309 58001;
0115822800999991997031612004-02533-044283FM-12+005199999V0209999999999045001CN0200001N1+02731+02301101051ADDAA106000091AG10000GF107991041021004501031021KA1240N+02491MA1999999100471MD1999999-0111REMSYN017 333 20249 59011;
0096822800999991997031618004-02533-044283FM-12+005199999V0209999999999004201CN0200001N1+02961+02561100801ADDAA106000091AG10000GF107991051051004501031001MA1999999100221MD1999999+0011REMSYN011 333 58001;
0143822800999991997031712004-02533-044283FM-12+005199999V0209999999999045001CN0200001N1+02781+02501101081ADDAA124001091AG10006AY161061AY221061GF107991041021004501031999KA1240N+02491MA1999999100501MD1999999+0031MW1021REMSYN023 333 20249 58003 69974;
0096822800999991997031718004-02533-044283FM-12+005199999V0209999999999045001CN0200001N1+02861+02521100801ADDAA106000091AG10000GF108991041031004501041999MA1999999100221MD1999999+0001REMSYN011 333 58000;
0143822800999991997031800004-02533-044283FM-12+005199999V0209999999999045001CN0200001N1+02561+02421100931ADDAA106001091AG10006AY161061AY221061GF107991031021004501031011KA1240M+03001MA1999999100351MD1999999-0011MW1021REMSYN023 333 10300 59001 69981;
0143822800999991997031812004-02533-044283FM-12+005199999V0209999999999004201CN0200001N1+02781+02401101051ADDAA124003091AG10006AY161061AY221061GF108991051061004501051999KA1240N+02391MA1999999100471MD1999999-0031MW1011REMSYN023 333 20239 59003 60034;
0124822800999991997031818004-02533-044283FM-12+005199999V0209999999999004201CN0100001N1+02701+02431100781ADDAA106001091AG10000AY121061AY221061GF108991051071004501021999MA1999999100151MD1999999-0071MW1911REMSYN017 333 59007 60011;
0143822800999991997031912004-02533-044283FM-12+005199999V0209999999999004201CN0200001N1+02721+02431100991ADDAA124007091AG10006AY161061AY221061GF108991061061004501051999KA1240N+02311MA1999999100411MD1999999-0061MW1011REMSYN023 333 20231 59006 60074;
0124822800999991997031918004-02533-044283FM-12+005199999V0209999999999004201CN0200001N1+02601+02331100761ADDAA106005091AG10006AY161061AY221061GF108991071061004501021999MA1999999100181MD1999999+0031MW1021REMSYN017 333 58003 60051;
0143822800999991997032012004-02533-044283FM-12+005199999V0209999999999045001CN0200001N1+02381+02281101151ADDAA124013091AG10006AY161061AY221061GF108991041051004501021999KA1240N+02371MA1999999100571MD1999999+0161MW1611REMSYN023 333 20237 58016 60134;
0124822800999991997032018004-02533-044283FM-12+005199999V0209999999999045001CN0200001N1+02781+02421100731ADDAA106005091AG10006AY161061AY261061GF108991031021004501071999MA1999999100151MD1999999-0031MW1021REMSYN017 333 59003 60051;
0143822800999991997032112004-02533-044283FM-12+005199999V0209999999999004201CN0200001N1+02561+02421101081ADDAA124059091AG10006AY161061AY221061GF108991051061004501021999KA1240N+02361MA1999999100501MD1999999-0071MW1011REMSYN023 333 20236 59007 60594;
0096822800999991997032118004-02533-044283FM-12+005199999V0209999999999004201CN0100001N1+02781+02481100751ADDAA106000091AG10000GF108991051051004501021999MA1999999100171MD1999999+0021REMSYN011 333 58002;
0143822800999991997032212004-02533-044283FM-12+005199999V0209999999999004201CN0200001N1+02541+02401101181ADDAA124003091AG10006AY161061AY221061GF108991061061004501021999KA1240N+02291MA1999999100601MD1999999+0101MW1021REMSYN023 333 20229 58010 60034;
0124822800999991997032218004-02533-044283FM-12+005199999V0209999999999004201CN0200001N1+02601+02461100891ADDAA106000191AG10006AY161061AY221061GF108991051061004501021999MA1999999100311MD1999999+0141MW1161REMSYN017 333 58014 69911;
0143822800999991997032312004-02533-044283FM-12+005199999V0209999999999045001CN0200001N1+02321+02271101391ADDAA124031091AG10006AY161061AY221061GF108991041051008001021999KA1240N+02311MA1999999100801MD1999999+0201MW1161REMSYN023 333 20231 58020 60314;
0124822800999991997032318004-02533-044283FM-12+005199999V0209999999999045001CN0200001N1+02651+02351101081ADDAA106018091AG10006AY161061AY261061GF108991041051008001031999MA1999999100501MD1999999+0191MW1021REMSYN017 333 58019 60181;
0143822800999991997032412004-02533-044283FM-12+005199999V0209999999999004201CN0100001N1+02421+02371101361ADDAA124019091AG10006AY161061AY221061GF108991061071004501021999KA1240N+02291MA1999999100771MD1999999-0031MW1611REMSYN023 333 20229 59003 60194;
0124822800999991997032418004-02533-044283FM-12+005199999V0209999999999045001CN0200001N1+02861+02311101011ADDAA106001091AG10006AY161061AY211061GF105991031051004501031001MA1999999100431MD1999999-0111MW1021REMSYN017 333 59011 60011;
0124822800999991997032518004-02533-044283FM-12+005199999V0209999999999004201CN0200001N1+02761+02401100921ADDAA106004091AG10006AY161061AY221061GF108991051051004501999999MA1999999100341MD1999999-0091MW1021REMSYN017 333 59009 60041;
0143822800999991997032612004-02533-044283FM-12+005199999V0209999999999045001CN0200001N1+02621+02421101171ADDAA124031091AG10006AY161061AY221061GF107991041021004501031999KA1240N+02231MA1999999100591MD1999999-0021MW1021REMSYN023 333 20223 59002 60314;
0096822800999991997032618004-02533-044283FM-12+005199999V0209999999999045001CN0200001N1+02801+02421100741ADDAA106000091AG10000GF108991041051008001031999MA1999999100161MD1999999-0181REMSYN011 333 59018;
0143822800999991997032712004-02533-044283FM-12+005199999V0209999999999004201CN0040001N1+02341+02291101171ADDAA124062091AG10006AY161061AY221061GF108991071071004501021999KA1240N+02291MA1999999100581MD1999999+0001MW1611REMSYN023 333 20229 58000 60624;
0143822800999991997032812004-02533-044283FM-12+005199999V0209999999999004201CN0100001N1+02241+02211101371ADDAA124056091AG10006AY161061AY221061GF108991061071004501021999KA1240N+02221MA1999999100781MD1999999+0191MW1911REMSYN023 333 20222 58019 60564;
0096822800999991997032818004-02533-044283FM-12+005199999V0209999999999004201CN0200001N1+02741+02381101031ADDAA106000091AG10000GF108991051051004501031999MA1999999100481MD1999999+0211REMSYN011 333 58021;
0115822800999991997032912004-02533-044283FM-12+005199999V0209999999999220001CN0200001N1+02761+02401101181ADDAA106000091AG10000GF104991031021004501051001KA1240N+02231MA1999999100601MD1999999-0181REMSYN017 333 20223 59018;
0096822800999991997032918004-02533-044283FM-12+005199999V0209999999999220001CN0200001N1+02961+02531100831ADDAA106000091AG10000GF103991011021004501061041MA1999999100251MD1999999-0231REMSYN011 333 59023;
0143822800999991997033012004-02533-044283FM-12+005199999V0209999999999004201CN0040001N1+02301+02271101491ADDAA124056091AG10006AY161061AY221061GF108991081071004501999999KA1240N+02271MA1999999100901MD1999999+0301MW1611REMSYN023 333 20227 58030 60564;
0124822800999991997033018004-02533-044283FM-12+005199999V0209999999999004201CN0200001N1+02481+02281101201ADDAA106006091AG10000AY101061AY221061GF108991051051004501031999MA1999999100621MD1999999+0371MW1621REMSYN017 333 58037 60061;
0121822800999991997033112004-02533-044283FM-12+005199999V0209999999999220001CN0200001N1+02601+02331101401ADDAA124007091AG10000GF103991031051004501001001KA1240N+02101MA1999999100821MD1999999-0021REMSYN023 333 20210 59002 60074;
0096822800999991997033118004-02533-044283FM-12+005199999V0209999999999220001CN0200001N1+02981+02471101011ADDAA106000091AG10000GF103991031021004501001001MA1999999100431MD1999999-0191REMSYN011 333 59019;
0115822800999991997040112004-02533-044283FM-12+005199999V0209999999999045001CN0200001N1+02801+02481101371ADDAA106000091AG10000GF106991041021004501031011KA1240N+02411MA1999999100791MD1999999-0031REMSYN017 333 20241 59003;
0096822800999991997040118004-02533-044283FM-12+005199999V0209999999999220001CN0200001N1+02861+02461101051ADDAA106000091AG10000GF104991011021008001061041MA1999999100471MD1999999+0041REMSYN011 333 58004;
0143822800999991997040212004-02533-044283FM-12+005199999V0209999999999004201CN0200001N1+02401+02261101401ADDAA124022091AG10006AY161061AY221061GF108991051061004501051999KA1240N+02301MA1999999100811MD1999999+0021MW1011REMSYN023 333 20230 58002 60224;
0096822800999991997040218004-02533-044283FM-12+005199999V0209999999999045001CN0200001N1+02701+02201101121ADDAA106000091AG10000GF107991041061004501051001MA1999999100541MD1999999+0071REMSYN011 333 58007;
0143822800999991997040312004-02533-044283FM-12+005199999V0209999999999004201CN0200001N1+02601+02331101381ADDAA124029091AG10006AY161061AY221061GF108991061051004501031999KA1240N+02371MA1999999100791MD1999999-0021MW1021REMSYN023 333 20237 59002 60294;
0124822800999991997040318004-02533-044283FM-12+005199999V0209999999999220001CN0200001N1+02921+02561101041ADDAA106011091AG10006AY161061AY221061GF104991031021004501001041MA1999999100461MD1999999-0081MW1021REMSYN017 333 59008 60111;
0121822800999991997040412004-02533-044283FM-12+005199999V0209999999999004201CN0200001N1+02781+02461101301ADDAA124011091AG10000GF106991061021004501001001KA1240N+02241MA1999999100721MD1999999-0071REMSYN023 333 20224 59007 60114;
0124822800999991997040418004-02533-044283FM-12+005199999V0209999999999045001CN0200001N1+02981+02531101021ADDAA106000191AG10006AY161061AY211061GF106991031051004501061031MA1999999100441MD1999999-0021MW1031REMSYN017 333 59002 69921;
0143822800999991997040512004-02533-044283FM-12+005199999V0209999999999004201CN0200001N1+02701+02431101101ADDAA124010091AG10006AY161061AY211061GF108991051061004501021999KA1240N+02371MA1999999100591MD1999999-0131MW1021REMSYN023 333 20237 59013 60104;
0124822800999991997040518004-02533-044283FM-12+005199999V0209999999999220001CN0200001N1+02961+02471100921ADDAA106006091AG10006AY161061AY221061GF104991041021004501001001MA1999999100341MD1999999-0101MW1021REMSYN017 333 59010 60061;
0143822800999991997040612004-02533-044283FM-12+005199999V0209999999999004201CN0200001N1+02801+02381101191ADDAA124018091AG10006AY161061AY221061GF108991061051004501031999KA1240N+02311MA1999999100611MD1999999+0021MW1011REMSYN023 333 20231 58002 60184;
0124822800999991997040618004-02533-044283FM-12+005199999V0209999999999004201CN0200001N1+02761+02521101201ADDAA106002091AG10006AY161061AY221061GF108991051061004501031999MA1999999100621MD1999999+0011MW1171REMSYN017 333 58001 60021;
0121822800999991997040712004-02533-044283FM-12+005199999V0209999999999045001CN0200001N1+02901+02561101181ADDAA124002091AG10000GF105991041021004501031001KA1240N+02431MA1999999100601MD1999999-0011REMSYN023 333 20243 59001 60024;
0096822800999991997040718004-02533-044283FM-12+005199999V0209999999999220001CN0200001N1+02981+02581100811ADDAA106000091AG10000GF104991021031004501031011MA1999999100231MD1999999-0121REMSYN011 333 59012;
0143822800999991997040800004-02533-044283FM-12+005199999V0209999999999045001CN0200001N1+02521+02381101061ADDAA106003091AG10000AY121061AY211061GF108991041071004501021999KA1240M+03061MA1999999100481MD1999999-0051MW1921REMSYN023 333 10306 59005 60031;
0143822800999991997040812004-02533-044283FM-12+005199999V0209999999999220001CN0200001N1+02801+02381100971ADDAA124005091AG10006AY161061AY221061GF104991031051004501031001KA1240N+02291MA1999999100391MD1999999-0211MW1011REMSYN023 333 20229 59021 60054;
0124822800999991997040818004-02533-044283FM-12+005199999V0209999999999004201CN0200001N1+02741+02451100731ADDAA106001091AG10006AY161061AY221061GF108991051051004501031001MA1999999100151MD1999999-0081MW1171REMSYN017 333 59008 60011;
0143822800999991997040912004-02533-044283FM-12+005199999V0209999999999004201CN0200001N1+02501+02361101121ADDAA124038091AG10006AY161061AY221061GF108991051061004501021999KA1240N+02391MA1999999100541MD1999999+0151MW1011REMSYN023 333 20239 58015 60384;
0124822800999991997040918004-02533-044283FM-12+005199999V0209999999999004201CN0200001N1+02601+02461100951ADDAA106001091AG10006AY161061AY221061GF108991061061004501051999MA1999999100371MD1999999+0221MW1161REMSYN017 333 58022 60011;
0143822800999991997041000004-02533-044283FM-12+005199999V0209999999999004201CN0200001N1+02501+02401101031ADDAA106000391AG10006AY161061AY221061GF108991061051004501051999KA1240M+02901MA1999999100451MD1999999+0071MW1211REMSYN023 333 10290 58007 69931;
0143822800999991997041012004-02533-044283FM-12+005199999V0209999999999045001CN0200001N1+02641+02501101221ADDAA124006091AG10006AY161061AY221061GF107991021011008001031011KA1240N+02201MA1999999100641MD1999999+0101MW1021REMSYN023 333 20220 58010 60064;
0124822800999991997041018004-02533-044283FM-12+005199999V0209999999999045001CN0200001N1+02541+02331101011ADDAA106000591AG10000AY121061AY211061GF108991041071004501021999MA1999999100431MD1999999+0061MW1951REMSYN017 333 58006 69941;
0121822800999991997041112004-02533-044283FM-12+005199999V0209999999999220001CN0200001N1+02801+02381101171ADDAA124001091AG10000GF104991031021004501031001KA1240N+02191MA1999999100591MD1999999-0051REMSYN023 333 20219 59005 69974;
0124822800999991997041118004-02533-044283FM-12+005199999V0209999999999045001CN0200001N1+02601+02351101011ADDAA106011091AG10006AY161061AY221061GF107991041051004501031001MA1999999100431MD1999999+0001MW1171REMSYN017 333 58000 60111;
0143822800999991997041212004-02533-044283FM-12+005199999V0209999999999004201CN0200001N1+02661+02391101171ADDAA124020091AG10006AY161061AY221061GF108991051061004501051999KA1240N+02201MA1999999100591MD1999999+0001MW1011REMSYN023 333 20220 58000 60204;
0096822800999991997041218004-02533-044283FM-12+005199999V0209999999999004201CN0200001N1+03021+02531100801ADDAA106000091AG10000GF107991051051004501021001MA1999999100221MD1999999-0211REMSYN011 333 59021;
0143822800999991997041312004-02533-044283FM-12+005199999V0209999999999045001CN0200001N1+02441+02391101251ADDAA124037091AG10006AY161061AY261061GF108991041071004501021999KA1240N+02291MA1999999100671MD1999999+0081MW1611REMSYN023 333 20229 58008 60374;
0124822800999991997041318004-02533-044283FM-12+005199999V0209999999999045001CN0200001N1+02581+02481100931ADDAA106015091AG10006AY161061AY261061GF108991041071004501021999MA1999999100351MD1999999+0131MW1911REMSYN017 333 58013 60151;
0143822800999991997041412004-02533-044283FM-12+005199999V0209999999999045001CN0200001N1+02561+02461101321ADDAA124048091AG10006AY161061AY261061GF107991041051008001031011KA1240N+02321MA1999999100731MD1999999+0061MW1021REMSYN023 333 20232 58006 60484;
0124822800999991997041418004-02533-044283FM-12+005199999V0209999999999045001CN0200001N1+02361+02281101171ADDAA106013091AG10006AY161061AY221061GF108991041071004501021999MA1999999100581MD1999999+0231MW1911REMSYN017 333 58023 60131;
0143822800999991997041512004-02533-044283FM-12+005199999V0209999999999045001CN0200001N1+02641+02421101291ADDAA124014091AG10006AY161061AY221061GF107991041021004501031011KA1240N+02271MA1999999100701MD1999999-0031MW1031REMSYN023 333 20227 59003 60144;
0124822800999991997041518004-02533-044283FM-12+005199999V0209999999999105001CN0200001N1+02721+02481100911ADDAA106011091AG10006AY161061AY221061GF106991021021004501031061MA1999999100331MD1999999-0251MW1021REMSYN017 333 59025 60111;
0121822800999991997041612004-02533-044283FM-12+005199999V0209999999999220001CN0200001N1+02781+02481101251ADDAA124011091AG10000GF104991011011008001031011KA1240N+02331MA1999999100671MD1999999-0031REMSYN023 333 20233 59003 60114;
0115822800999991997041618004-02533-044283FM-12+005199999V0209999999999220001CN0200001N1+03201+02581100901ADDAA106000091AG10000GF104991021021004501031011MA1999999100321MD1999999-0011REMSYN011 333 59001;EQDQ01+000222PRSWM1
0115822800999991997041700004-02533-044283FM-12+005199999V0209999999999220001CN0200001N1+02581+02421101121ADDAA106000091AG10000GF103991011011008001001011KA1240M+03271MA1999999100541MD1999999-0041REMSYN017 333 10327 59004;
0115822800999991997041712004-02533-044283FM-12+005199999V0209999999999220001CN0200001N1+02801+02381101151ADDAA106000091AG10000GF102991021011008001001001KA1240N+02371MA1999999100571MD1999999-0101REMSYN017 333 20237 59010;
0096822800999991997041718004-02533-044283FM-12+005199999V0209999999999004201CN0200001N1+03041+02521100801ADDAA106000091AG10000GF105991051021004501001001MA1999999100221MD1999999-0101REMSYN011 333 59010;
0115822800999991997041812004-02533-044283FM-12+005199999V0209999999999045001CN0200001N1+02841+02421101091ADDAA106000091AG10000GF105991041021004501011001KA1240N+02371MA1999999100511MD1999999-0061REMSYN017 333 20237 59006;
0124822800999991997041818004-02533-044283FM-12+005199999V0209999999999004201CN0200001N1+02601+02331100911ADDAA106001091AG10006AY161061AY221061GF108991051051004501021001MA1999999100331MD1999999+0111MW1171REMSYN017 333 58011 60011;
0121822800999991997041912004-02533-044283FM-12+005199999V0209999999999220001CN0200001N1+02881+02501101151ADDAA124002091AG10000GF104991021021004501031011KA1240N+02471MA1999999100571MD1999999+0061REMSYN023 333 20247 58006 60024;
0096822800999991997041918004-02533-044283FM-12+005199999V0209999999999045001CN0200001N1+02981+02491100881ADDAA106000091AG10000GF106991031021004501031001MA1999999100301MD1999999-0031REMSYN011 333 59003;
0115822800999991997042012004-02533-044283FM-12+005199999V0209999999999220001CN0200001N1+02781+02401101201ADDAA106000091AG10000GF105991041021004501001011KA1240N+02291MA1999999100621MD1999999+0051REMSYN017 333 20229 58005;
0096822800999991997042018004-02533-044283FM-12+005199999V0209999999999004201CN0200001N1+03001+02491100901ADDAA106000091AG10000GF105991051021004501001001MA1999999100321MD1999999+0021REMSYN011 333 58002;
0115822800999991997042112004-02533-044283FM-12+005199999V0209999999999220001CN0200001N1+02881+02461101211ADDAA106000091AG10000GF104991041021004501001001KA1240N+02391MA1999999100631MD1999999+0011REMSYN017 333 20239 58001;
0115822800999991997042212004-02533-044283FM-12+005199999V0209999999999007501CN0200001N1+02801+02581101151ADDAA106000091AG10000GF108991061051008001031999KA1240N+02461MA1999999100571MD1999999-0061REMSYN017 333 20246 59006;
0124822800999991997042218004-02533-044283FM-12+005199999V0209999999999045001CN0200001N1+02431+02391100871ADDAA106071091AG10018AY191061AY261061GF108991041071004501021999MA1999999100291MD1999999+0081MW1951REMSYN017 333 58008 60711;
0121822800999991997042312004-02533-044283FM-12+005199999V0209999999999220001CN0200001N1+02881+02371101101ADDAA124071091AG10000GF104991041021004501001001KA1240N+02351MA1999999100521MD1999999-0021REMSYN023 333 20235 59002 60714;
0096822800999991997042318004-02533-044283FM-12+005199999V0209999999999004201CN0200001N1+03021+02571100761ADDAA106000091AG10000GF106991061021004501001001MA1999999100181MD1999999+0111REMSYN011 333 58011;
0115822800999991997042412004-02533-044283FM-12+005199999V0209999999999220001CN0200001N1+02881+02371101051ADDAA106000091AG10000GF105991041021004501001011KA1240N+02451MA1999999100471MD1999999-0051REMSYN017 333 20245 59005;
0124822800999991997042418004-02533-044283FM-12+005199999V0209999999999004201CN0200001N1+02721+02381100731ADDAA106004091AG10000AY121061AY221061GF107991051061004501021001MA1999999100151MD1999999-0031MW1211REMSYN017 333 59003 60041;
0121822800999991997042512004-02533-044283FM-12+005199999V02099999999990450019N0200001N1+02721+02501101261ADDAA124013091AG10000GF106991031021004501031011KA1240N+02311MA1999999100681MD1999999+0211REMSYN023 333 20231 58021 60134;
0124822800999991997042518004-02533-044283FM-12+005199999V0209999999999045001CN0200001N1+02461+02301101051ADDAA106018091AG10018AY191061AY261061GF108991041071004501021999MA1999999100471MD1999999+0321MW1951REMSYN017 333 58032 60181;
0143822800999991997042612004-02533-044283FM-12+005199999V0209999999999220001CN0200001N1+02661+02581101291ADDAA124033091AG10006AY161061AY211061GF103991021021004501031001KA1240N+02201MA1999999100711MD1999999+0031MW1011REMSYN023 333 20220 58003 60334;
0096822800999991997042618004-02533-044283FM-12+005199999V0209999999999220001CN0200001N1+02941+02451100981ADDAA106000091AG10000GF103991021021004501031001MA1999999100401MD1999999-0071REMSYN011 333 59007;
0135822800999991997042712004-02533-044283FM-12+005199999V0209999999999220001CN0200001N1+02781+02361101191ADDAA124019091AG10000AY121061GF104991021021004501031001KA1240N+02251MA1999999100411MD1999999-0101MW1061REMSYN023 333 20225 59010 60194;
0096822800999991997042718004-02533-044283FM-12+005199999V0209999999999045001CN0200001N1+03021+02501100951ADDAA106000091AG10000GF107991041051004501031001MA1999999100371MD1999999-0031REMSYN011 333 59003;
0143822800999991997042812004-02533-044283FM-12+005199999V0209999999999045001CN0200001N1+02401+02311101401ADDAA124008091AG10006AY161061AY221061GF108991041051008001021999KA1240N+02311MA1999999100811MD1999999+0201MW1911REMSYN023 333 20231 58020 60084;
0096822800999991997042818004-02533-044283FM-12+005199999V0209999999999045001CN0200001N1+02921+02341101151ADDAA106000091AG10000GF107991031021004501071011MA1999999100571MD1999999+0201REMSYN011 333 58020;
0143822800999991997042912004-02533-044283FM-12+005199999V0209999999999004201CN0200001N1+02601+02331101371ADDAA124001091AG10006AY161061AY221061GF108991051061004501021999KA1240N+02351MA1999999100781MD1999999-0031MW1011REMSYN023 333 20235 59003 69984;
0124822800999991997042918004-02533-044283FM-12+005199999V0209999999999004201CN0200001N1+02741+02401101131ADDAA106003091AG10000AY121061AY211061GF107991051051004501021001MA1999999100551MD1999999-0021MW1211REMSYN017 333 59002 60031;
0121822800999991997043012004-02533-044283FM-12+005199999V02099999999990042019N0200001N1+02681+02411101361ADDAA124004091AG10000GF108991061051004501031999KA1240N+02331MA1999999100771MD1999999-0011REMSYN023 333 20233 59001 60044;
0124822800999991997043018004-02533-044283FM-12+005199999V0209999999999004201CN0200001N1+02941+02561100921ADDAA106000191AG10000AY121061AY211061GF107991051061004501021001MA1999999100341MD1999999-0211MW1211REMSYN017 333 59021 69921;
0143822800999991997050112004-02533-044283FM-12+005199999V0209999999999105001CN0200001N1+02861+02521101251ADDAA124014091AG10005AY161061AY211061GF105991011021004501031011KA1240N+02321MA1999999100671MD1999999-0101MW1021REMSYN023 333 20232 59010 60144;
0143822800999991997050212004-02533-044283FM-12+005199999V0209999999999004201CN0200001N1+02721+02431101151ADDAA124000591AG10005AY161061AY221061GF107991051061004501051011KA1240N+02311MA1999999100571MD1999999-0101MW1161REMSYN023 333 20231 59010 69944;
0124822800999991997050218004-02533-044283FM-12+005199999V0209999999999004201CN0200001N1+02941+02561101021ADDAA106001091AG10005AY161061AY221061GF107991051051004501031001MA1999999100441MD1999999+0091MW1021REMSYN017 333 58009 60011;
0143822800999991997050312004-02533-044283FM-12+005199999V0209999999999004201CN0200001N1+02601+02331101381ADDAA124004091AG10000AY121061AY221061GF108991051061004501021999KA1240N+02291MA1999999100791MD1999999+0221MW1211REMSYN023 333 20229 58022 60044;
0124822800999991997050318004-02533-044283FM-12+005199999V0209999999999004201CN0100001N1+02741+02481101151ADDAA106006091AG10005AY161061AY221061GF107991051051004501021001MA1999999100571MD1999999+0121MW1021REMSYN017 333 58012 60061;
0121822800999991997050412004-02533-044283FM-12+005199999V0209999999999220001CN0200001N1+02781+02461101361ADDAA124006091AG10000GF103991011011008001031011KA1240N+02301MA1999999100781MD1999999-0011REMSYN023 333 20230 59001 60064;
0124822800999991997050418004-02533-044283FM-12+005199999V0209999999999045001CN0200001N1+02781+02561100951ADDAA106003091AG10016AY191061AY261061GF106991031081004501031051MA1999999100371MD1999999-0201MW1951REMSYN017 333 59020 60031;
0143822800999991997050512004-02533-044283FM-12+005199999V0209999999999004201CN0200001N1+02601+02331101241ADDAA124056091AG10005AY161061AY221061GF108991051061004501051999KA1240N+02311MA1999999100651MD1999999-0131MW1011REMSYN023 333 20231 59013 60564;
0124822800999991997050518004-02533-044283FM-12+005199999V0209999999999004201CN0200001N1+02601+02351100881ADDAA106022091AG10005AY161061AY221061GF108991061061004501021999MA1999999100301MD1999999-0071MW1211REMSYN017 333 59007 60221;
0124822800999991997050618004-02533-044283FM-12+005199999V0209999999999004201CN0200001N1+02541+02341101071ADDAA106018091AG10005AY161061AY221061GF108991051061004501021999MA1999999100491MD1999999+0191MW1161REMSYN017 333 58019 60181;
0143822800999991997050712004-02533-044283FM-12+005199999V0209999999999045001CN0200001N1+02601+02511101341ADDAA124023091AG10005AY161061AY221061GF105991011021008001031051KA1240N+02351MA1999999100761MD1999999-0011MW1031REMSYN023 333 20235 59001 60234;
0096822800999991997050718004-02533-044283FM-12+005199999V0209999999999045001CN0200001N1+02741+02501101061ADDAA106000091AG10000GF108991041051008001031999MA1999999100481MD1999999-0011REMSYN011 333 59001;
0121822800999991997050812004-02533-044283FM-12+005199999V0209999999999004201CN0200001N1+02401+02311101381ADDAA124000591AG10000GF108991071061004501021999KA1240N+02351MA1999999100791MD1999999+0031REMSYN023 333 20235 58003 69964;
0096822800999991997050818004-02533-044283FM-12+005199999V0209999999999004201CN0200001N1+02981+02531101081ADDAA106000091AG10000GF107991051051004501021001MA1999999100501MD1999999+0021REMSYN011 333 58002;
0143822800999991997050912004-02533-044283FM-12+005199999V0209999999999045001CN0200001N1+02701+02371101391ADDAA124000591AG10005AY161061AY221061GF106991031021004501031021KA1240N+02291MA1999999100811MD1999999+0021MW1011REMSYN023 333 20229 58002 69964;
0096822800999991997050918004-02533-044283FM-12+005199999V0209999999999004201CN0200001N1+03001+02391101121ADDAA106000091AG10000GF106991051021004501051001MA1999999100541MD1999999+0041REMSYN011 333 58004;
0047822800999991997051012004-02533-044283FM-12+005199999V02099999999999999999N0200001N1+02801+02481999999ADDAA106000091AG10000GF105991999999004501999999
0096822800999991997051018004-02533-044283FM-12+005199999V0209999999999045001CN0200001N1+03001+02371101091ADDAA106000091AG10000GF107991031051004501061011MA1999999100511MD1999999-0031REMSYN011 333 59003;
0143822800999991997051112004-02533-044283FM-12+005199999V0209999999999220001CN0200001N1+02841+02381101271ADDAA124003091AG10005AY161061AY221061GF103991031021004501001001KA1240N+02341MA1999999100691MD1999999-0071MW1011REMSYN023 333 20234 59007 60034;
0096822800999991997051118004-02533-044283FM-12+005199999V0209999999999045001CN0200001N1+03041+02501101001ADDAA106000091AG10000GF106991041051004501021001MA1999999100421MD1999999-0091REMSYN011 333 59009;
0143822800999991997051212004-02533-044283FM-12+005199999V0209999999999004201CN0200001N1+02701+02351101231ADDAA124020091AG10005AY161061AY221061GF106991061051004501031999KA1240N+02361MA1999999100651MD1999999-0041MW1011REMSYN023 333 20236 59004 60204;
0096822800999991997051218004-02533-044283FM-12+005199999V0209999999999004201CN0200001N1+03161+02451101001ADDAA106000091AG10000GF106991061021004501001001MA1999999100421MD1999999+0001REMSYN011 333 58000;
0115822800999991997051312004-02533-044283FM-12+005199999V0209999999999220001CN0200001N1+02881+02481101361ADDAA106000091AG10000GF104991041021004501001001KA1240N+02391MA1999999100781MD1999999+0131REMSYN017 333 20239 58013;
0096822800999991997051318004-02533-044283FM-12+005199999V0209999999999045001CN0200001N1+03001+02571101011ADDAA106000091AG10000GF105991041021004501031001MA1999999100431MD1999999+0011REMSYN011 333 58001;
0115822800999991997051412004-02533-044283FM-12+005199999V0209999999999045001CN0200001N1+02801+02381101231ADDAA106000091AG10000GF106991041021004501051001KA1240N+02311MA1999999100651MD1999999-0131REMSYN017 333 20231 59013;
0096822800999991997051418004-02533-044283FM-12+005199999V0209999999999045001CN0200001N1+02881+02521101021ADDAA106000091AG10000GF106991031021004501031001MA1999999100441MD1999999+0011REMSYN011 333 58001;
0115822800999991997051512004-02533-044283FM-12+005199999V0209999999999220001CN0200001N1+02881+02321101271ADDAA106000091AG10000GF104991041021004501001001KA1240N+02301MA1999999100691MD1999999+0041REMSYN017 333 20230 58004;
0124822800999991997051518004-02533-044283FM-12+005199999V0209999999999220001CN0200001N1+02841+02521101011ADDAA106003091AG10005AY161061AY221061GF104991031021004501001021MA1999999100431MD1999999-0011MW1021REMSYN017 333 59001 60031;
0143822800999991997051612004-02533-044283FM-12+005199999V0209999999999220001CN0200001N1+02681+02351101271ADDAA124004091AG10005AY161061AY211061GF102991011011008001031001KA1240N+02321MA1999999100691MD1999999+0001MW1021REMSYN023 333 20232 58000 60044;
0096822800999991997051618004-02533-044283FM-12+005199999V0209999999999045001CN0200001N1+02901+02521100941ADDAA106000091AG10000GF106991021031004501031001MA1999999100361MD1999999-0071REMSYN011 333 59007;
0143822800999991997051712004-02533-044283FM-12+005199999V0209999999999220001CN0200001N1+02701+02281101291ADDAA124019091AG10005AY161061AY221061GF103991031001012501051001KA1240N+02301MA1999999100711MD1999999+0021MW1011REMSYN023 333 20230 58002 60194;
0096822800999991997051718004-02533-044283FM-12+005199999V0209999999999004201CN0200001N1+03201+02411101001ADDAA106000091AG10000GF105991051021004501001001MA1999999100421MD1999999+0061REMSYN011 333 58006;
0115822800999991997051812004-02533-044283FM-12+005199999V0209999999999220001CN0200001N1+02821+02331101151ADDAA106000091AG10000GF102991021051004501001001KA1240N+02311MA1999999100571MD1999999-0141REMSYN017 333 20231 59014;
0096822800999991997051818004-02533-044283FM-12+005199999V0209999999999220001CN0200001N1+03201+02381100901ADDAA106000091AG10000GF104991031021004501001011MA1999999100321MD1999999-0101REMSYN011 333 59010;
0115822800999991997051912004-02533-044283FM-12+005199999V0209999999999004201CN0200001N1+02741+02541101161ADDAA106000091AG10000GF106991061021004501001001KA1240N+02461MA1999999100581MD1999999+0011REMSYN017 333 20246 58001;
0107822800999991997051918004-02533-044283FM-12+005199999V0209999999999045001CN0200001N1+02921+02581100861ADDAG10000AY111061AY201061GF106991031071004501021011MA1999999100281MD1999999-0041MW1911REMSYN011 333 59004;
0143822800999991997052012004-02533-044283FM-12+005199999V0209999999999220001CN0200001N1+02801+02311101171ADDAA124044091AG10005AY161061AY221061GF102991011051004501001021KA1240N+02351MA1999999100591MD1999999+0011MW1011REMSYN023 333 20235 58001 60444;
0096822800999991997052018004-02533-044283FM-12+005199999V0209999999999220001CN0200001N1+03161+02451100841ADDAA106000091AG10000GF104991041021004501001001MA1999999100261MD1999999-0021REMSYN011 333 59002;
0115822800999991997052112004-02533-044283FM-12+005199999V0209999999999220001CN0200001N1+02841+02521101101ADDAA106000091AG10000GF102991011011008001001041KA1240N+02321MA1999999100521MD1999999-0071REMSYN017 333 20232 59007;
0096822800999991997052118004-02533-044283FM-12+005199999V0209999999999045001CN0200001N1+03141+02381100821ADDAA106000091AG10000GF106991031011008001031001MA1999999100241MD1999999-0021REMSYN011 333 59002;
0115822800999991997052212004-02533-044283FM-12+005199999V0209999999999220001CN0200001N1+02841+02381101191ADDAA106000091AG10000GF103991011011008001001051KA1240N+02391MA1999999100611MD1999999+0091REMSYN017 333 20239 58009;
0096822800999991997052218004-02533-044283FM-12+005199999V0209999999999220001CN0200001N1+03201+02431100801ADDAA106000091AG10000GF104991031021004501001011MA1999999100221MD1999999-0021REMSYN011 333 59002;
0134822800999991997052312004-02533-044283FM-12+005199999V0209999999999220001CN0200001N1+02881+02411101241ADDAA106000091AG10000GF104991001001999999001041KA1240N+02411MA1999999100661MD1999999+0441REMSYN017 333 20241 58044;EQDQ01+000042SCOTLC
0096822800999991997052318004-02533-044283FM-12+005199999V0209999999999007501CN0200001N1+03221+02431100981ADDAA106000091AG10000GF105991051021008001001001MA1999999100401MD1999999-0101REMSYN011 333 59010;
0096822800999991997052418004-02533-044283FM-12+005199999V0209999999999220001CN0200001N1+03181+02491101071ADDAA106000091AG10000GF103991021021008001001041MA1999999100491MD1999999+0091REMSYN011 333 58009;
0143822800999991997052512004-02533-044283FM-12+005199999V0209999999999004201CN0200001N1+02501+02301101381ADDAA124015091AG10005AY161061AY221061GF108991061051004501021999KA1240N+02371MA1999999100791MD1999999+0121MW1011REMSYN023 333 20237 58012 60154;
0096822800999991997052518004-02533-044283FM-12+005199999V0209999999999045001CN0200001N1+03001+02371101121ADDAA106000091AG10000GF108991041051004501031999MA1999999100541MD1999999+0051REMSYN011 333 58005;
0115822800999991997052612004-02533-044283FM-12+005199999V0209999999999105001CN0200001N1+02701+02281101271ADDAA106000091AG10000GF105991031021004501001021KA1240N+02291MA1999999100691MD1999999-0101REMSYN017 333 20229 59010;
0143822800999991997052712004-02533-044283FM-12+005199999V0209999999999220001CN0200001N1+02821+02331101251ADDAA124001091AG10005AY161061AY211061GF102991021001012501031001KA1240N+02291MA1999999100671MD1999999-0021MW1011REMSYN023 333 20229 59002 60014;
0143822800999991997052812004-02533-044283FM-12+005199999V0209999999999045001CN0200001N1+02741+02471101331ADDAA124004091AG10005AY161061AY211061GF106991021011004501031011KA1240N+02371MA1999999100751MD1999999+0081MW1031REMSYN023 333 20237 58008 60044;
0096822800999991997052818004-02533-044283FM-12+005199999V0209999999999045001CN0200001N1+03181+02491101001ADDAA106000091AG10000GF105991031021004501051011MA1999999100421MD1999999+0081REMSYN011 333 58008;
0115822800999991997052912004-02533-044283FM-12+005199999V0209999999999220001CN0200001N1+02881+02321101311ADDAA106000091AG10000GF103991011011008001001021KA1240N+02371MA1999999100731MD1999999-0021REMSYN017 333 20237 59002;
0096822800999991997052918004-02533-044283FM-12+005199999V0209999999999220001CN0200001N1+03161+02471100951ADDAA106000091AG10000GF102991021021008001001001MA1999999100371MD1999999-0051REMSYN011 333 59005;
0115822800999991997053012004-02533-044283FM-12+005199999V0209999999999220001CN0200001N1+02841+02291101311ADDAA106000091AG10000GF101991011011008001001001KA1240N+02481MA1999999100731MD1999999+0001REMSYN017 333 20248 58000;
0096822800999991997053018004-02533-044283FM-12+005199999V0209999999999220001CN0200001N1+03101+02491100911ADDAA106000091AG10000GF103991031021004501001001MA1999999100331MD1999999-0041REMSYN011 333 59004;
0115822800999991997053112004-02533-044283FM-12+005199999V0209999999999045001CN0200001N1+02841+02541101331ADDAA106000091AG10000GF106991031021004501031011KA1240N+02421MA1999999100751MD1999999+0021REMSYN017 333 20242 58002;
0096822800999991997053118004-02533-044283FM-12+005199999V0209999999999220001CN0200001N1+03031+02571101001ADDAA106000091AG10000GF104991031021004501001041MA1999999100421MD1999999+0091REMSYN011 333 58009;
0115822800999991997060112004-02533-044283FM-12+005199999V0209999999999220001CN0200001N1+02901+02341101311ADDAA106000091AG10000GF104991031021004501011001KA1240N+02391MA1999999100731MD1999999-0021REMSYN017 333 20239 59002;
0096822800999991997060118004-02533-044283FM-12+005199999V0209999999999004201CN0200001N1+02861+02111101091ADDAA106000091AG10000GF108991051051004501021001MA1999999100511MD1999999+0091REMSYN011 333 58009;
0143822800999991997060212004-02533-044283FM-12+005199999V0209999999999220001CN0200001N1+02881+02371101311ADDAA124002091AG10005AY161061AY211061GF104991041021004501001001KA1240N+02391MA1999999100731MD1999999+0001MW1011REMSYN023 333 20239 58000 60024;
0096822800999991997060218004-02533-044283FM-12+005199999V0209999999999220001CN0200001N1+03141+02451100991ADDAA106000091AG10000GF104991041021004501001001MA1999999100411MD1999999-0101REMSYN011 333 59010;
0121822800999991997060312004-02533-044283FM-12+005199999V0209999999999045001CN0200001N1+02761+02481101291ADDAA124000191AG10000GF106991041021004501031001KA1240N+02391MA1999999100711MD1999999-0021REMSYN023 333 20239 59002 69924;
0096822800999991997060318004-02533-044283FM-12+005199999V0209999999999220001CN0200001N1+03121+02531100971ADDAA106000091AG10000GF104991041021004501001001MA1999999100391MD1999999-0021REMSYN011 333 59002;
0115822800999991997060412004-02533-044283FM-12+005199999V0209999999999220001CN0200001N1+02821+02331101271ADDAA106000091AG10000GF103991031021004501001001KA1240N+02391MA1999999100591MD1999999-0121REMSYN017 333 20239 59012;
0096822800999991997060418004-02533-044283FM-12+005199999V0209999999999004201CN0200001N1+02961+02351100901ADDAA106000091AG10000GF108991051051004501021001MA1999999100321MD1999999-0071REMSYN011 333 59007;
0121822800999991997060512004-02533-044283FM-12+005199999V0209999999999220001CN0200001N1+02821+02291101151ADDAA124002091AG10000GF104991021021004501001021KA1240N+02321MA1999999100571MD1999999-0021REMSYN023 333 20232 59002 60024;
0096822800999991997060518004-02533-044283FM-12+005199999V0209999999999220001CN0200001N1+03141+02431100901ADDAA106000091AG10000GF103991031021004501001001MA1999999100321MD1999999+0001REMSYN011 333 58000;
0115822800999991997060612004-02533-044283FM-12+005199999V0209999999999220001CN0200001N1+02781+02401101041ADDAA106000091AG10000GF105991041021004501001011KA1240N+02291MA1999999100461MD1999999-0111REMSYN017 333 20229 59011;
0115822800999991997060712004-02533-044283FM-12+005199999V0209999999999045001CN0200001N1+02821+02271100971ADDAA106000091AG10000GF106991011011008001011021KA1240N+02251MA1999999100391MD1999999-0071REMSYN017 333 20225 59007;
0096822800999991997060718004-02533-044283FM-12+005199999V0209999999999220001CN0200001N1+03141+02381100601ADDAA106000091AG10000GF104991041021004501001001MA1999999100021MD1999999-0121REMSYN011 333 59012;
0115822800999991997060812004-02533-044283FM-12+005199999V0209999999999045001CN0200001N1+02841+02311101151ADDAA106000091AG10000GF106991021021004501011021KA1240N+02321MA1999999100571MD1999999+0181REMSYN017 333 20232 58018;
0096822800999991997060818004-02533-044283FM-12+005199999V0209999999999004201CN0200001N1+03041+02431100901ADDAA106000091AG10000GF105991051021004501001001MA1999999100321MD1999999+0301REMSYN011 333 58030;
0115822800999991997060912004-02533-044283FM-12+005199999V0209999999999045001CN0200001N1+02801+02341101371ADDAA106000091AG10000GF106991041021004501011001KA1240N+02311MA1999999100781MD1999999+0211REMSYN017 333 20231 58021;
0096822800999991997060918004-02533-044283FM-12+005199999V0209999999999004201CN0200001N1+03001+02461101101ADDAA106000091AG10000GF105991051021004501001001MA1999999100521MD1999999+0201REMSYN011 333 58020;
0115822800999991997061012004-02533-044283FM-12+005199999V0209999999999045001CN0200001N1+02801+02361101471ADDAA106000091AG10000GF105991041021004501011001KA1240N+02281MA1999999100891MD1999999+0111REMSYN017 333 20228 58011;
0096822800999991997061018004-02533-044283FM-12+005199999V0209999999999004201CN0200001N1+03061+02451101241ADDAA106000091AG10000GF105991051021004501001001MA1999999100661MD1999999+0141REMSYN011 333 58014;
0096822800999991997061118004-02533-044283FM-12+005199999V0209999999999105001CN0200001N1+03061+02351101211ADDAA106000091AG10000GF105991021021004501011011MA1999999100631MD1999999-0041REMSYN011 333 59004;
0115822800999991997061212004-02533-044283FM-12+005199999V0209999999999004201CN0200001N1+02801+02441101391ADDAA106000091AG10000GF106991061021004501001001KA1240N+02341MA1999999100811MD1999999-0061REMSYN017 333 20234 59006;
0096822800999991997061218004-02533-044283FM-12+005199999V0209999999999220001CN0200001N1+03101+02491101161ADDAA106000091AG10000GF103991021021004501001011MA1999999100581MD1999999-0041REMSYN011 333 59004;
0115822800999991997061312004-02533-044283FM-12+005199999V0209999999999220001CN0200001N1+02801+02251101471ADDAA106000091AG10000GF103991031011008001001001KA1240N+02271MA1999999100891MD1999999-0081REMSYN017 333 20227 59008;
0096822800999991997061318004-02533-044283FM-12+005199999V0209999999999220001CN0200001N1+03061+02451101161ADDAA106000091AG10000GF103991031021008001001001MA1999999100581MD1999999+0001REMSYN011 333 58000;
0115822800999991997061412004-02533-044283FM-12+005199999V0209999999999045001CN0200001N1+02761+02341101331ADDAA106000091AG10000GF106991041051004501031001KA1240N+02291MA1999999100751MD1999999-0141REMSYN017 333 20229 59014;
0096822800999991997061418004-02533-044283FM-12+005199999V0209999999999220001CN0200001N1+03031+02411100971ADDAA106000091AG10000GF103991031021004501001001MA1999999100391MD1999999-0191REMSYN011 333 59019;
0115822800999991997061512004-02533-044283FM-12+005199999V0209999999999220001CN0200001N1+02841+02291101261ADDAA106000091AG10000GF101991011011008001001001KA1240N+02291MA1999999100681MD1999999-0071REMSYN017 333 20229 59007;
0096822800999991997061518004-02533-044283FM-12+005199999V0209999999999220001CN0200001N1+03041+02431101001ADDAA106000091AG10000GF104991041021004501001001MA1999999100421MD1999999+0031REMSYN011 333 58003;
0115822800999991997061612004-02533-044283FM-12+005199999V0209999999999220001CN0200001N1+02821+02361101201ADDAA106000091AG10000GF104991041021004501001001KA1240N+02281MA1999999100621MD1999999-0061REMSYN017 333 20228 59006;
0096822800999991997061618004-02533-044283FM-12+005199999V0209999999999220001CN0200001N1+03161+02471100901ADDAA106000091AG10000GF103991031021004501001001MA1999999100321MD1999999-0101REMSYN011 333 59010;
0115822800999991997061712004-02533-044283FM-12+005199999V0209999999999220001CN0200001N1+02841+02291101261ADDAA106000091AG10000GF102991021011008001001001KA1240N+02291MA1999999100681MD1999999+0061REMSYN017 333 20229 58006;
0096822800999991997061718004-02533-044283FM-12+005199999V0209999999999220001CN0200001N1+03141+02401100991ADDAA106000091AG10000GF103991031021004501001001MA1999999100411MD1999999+0091REMSYN011 333 58009;
0115822800999991997061812004-02533-044283FM-12+005199999V0209999999999004201CN0200001N1+02781+02481101341ADDAA106000091AG10000GF105991051021004501001001KA1240N+02361MA1999999100761MD1999999+0081REMSYN017 333 20236 58008;
0124822800999991997061818004-02533-044283FM-12+005199999V0209999999999220001CN0200001N1+02841+02461101031ADDAA106002091AG10005AY161061AY211061GF104991021021004501031001MA1999999100451MD1999999+0041MW1011REMSYN017 333 58004 60021;
0121822800999991997061912004-02533-044283FM-12+005199999V0209999999999220001CN0200001N1+02801+02361101261ADDAA124002091AG10000GF101991011011008001001001KA1240N+02341MA1999999100681MD1999999-0081REMSYN023 333 20234 59008 60024;
0096822800999991997061918004-02533-044283FM-12+005199999V0209999999999220001CN0200001N1+03141+02431100941ADDAA106000091AG10000GF104991041021004501001001MA1999999100361MD1999999-0091REMSYN011 333 59009;
0115822800999991997062012004-02533-044283FM-12+005199999V0209999999999045001CN0200001N1+02801+02341101251ADDAA106000091AG10000GF105991031021004501051001KA1240N+02391MA1999999100671MD1999999-0011REMSYN017 333 20239 59001;
0096822800999991997062018004-02533-044283FM-12+005199999V0209999999999220001CN0200001N1+03181+02471100921ADDAA106000091AG10000GF102991021021004501001001MA1999999100341MD1999999-0021REMSYN011 333 59002;
0096822800999991997062118004-02533-044283FM-12+005199999V0209999999999045001CN0200001N1+03021+02501100931ADDAA106000091AG10000GF105991041021004501031001MA1999999100351MD1999999+0011REMSYN011 333 58001;
0096822800999991997062212004-02533-044283FM-12+005199999V0209999999999045001CN0200001N1+02781+02341101261ADDAA106000091AG10000GF105991041021004501031001MA1999999100681MD1999999+0021REMSYN011 333 58002;
0124822800999991997062218004-02533-044283FM-12+005199999V0209999999999045001CN0200001N1+02981+02551101101ADDAA106001091AG10005AY161061AY221061GF106991031051004501031001MA1999999100521MD1999999+0121MW1021REMSYN017 333 58012 60011;
0121822800999991997062312004-02533-044283FM-12+005199999V0209999999999220001CN0200001N1+02801+02341101231ADDAA124001091AG10000GF104991041021004501001001KA1240N+02351MA1999999100651MD1999999-0031REMSYN023 333 20235 59003 60014;
0096822800999991997062318004-02533-044283FM-12+005199999V0209999999999220001CN0200001N1+03101+02201101021ADDAA106000091AG10000GF103991031021004501001001MA1999999100441MD1999999-0081REMSYN011 333 59008;
0115822800999991997062412004-02533-044283FM-12+005199999V0209999999999220001CN0200001N1+02821+02401101211ADDAA106000091AG10000GF102991021021004501001001KA1240N+02331MA1999999100631MD1999999-0021REMSYN017 333 20233 59002;
0096822800999991997062418004-02533-044283FM-12+005199999V0209999999999045001CN0200001N1+03041+02501100931ADDAA106000091AG10000GF106991041021004501031001MA1999999100351MD1999999-0091REMSYN011 333 59009;
0115822800999991997062512004-02533-044283FM-12+005199999V0209999999999004201CN0200001N1+02801+02361101071ADDAA106000091AG10000GF105991051021004501001001KA1240N+02291MA1999999100491MD1999999-0141REMSYN017 333 20229 59014;
0096822800999991997062518004-02533-044283FM-12+005199999V0209999999999220001CN0200001N1+03041+02431100801ADDAA106000091AG10000GF104991041021004501001001MA1999999100221MD1999999-0131REMSYN011 333 59013;
0115822800999991997062612004-02533-044283FM-12+005199999V0209999999999220001CN0200001N1+02821+02291101101ADDAA106000091AG10000GF104991041021004501001001KA1240N+02311MA1999999100521MD1999999+0031REMSYN017 333 20231 58003;
0096822800999991997062618004-02533-044283FM-12+005199999V0209999999999220001CN0200001N1+03041+02501100851ADDAA106000091AG10000GF104991041021004501001001MA1999999100271MD1999999+0051REMSYN011 333 58005;
0115822800999991997062712004-02533-044283FM-12+005199999V0209999999999004201CN0200001N1+02841+02461101151ADDAA106000091AG10000GF105991051021004501001001KA1240N+02351MA1999999100571MD1999999+0051REMSYN017 333 20235 58005;
0124822800999991997062718004-02533-044283FM-12+005199999V0209999999999045001CN0200001N1+03001+02511100921ADDAA106000591AG10005AY161061AY211061GF106991041051004501031001MA1999999100341MD1999999+0071MW1151REMSYN017 333 58007 69941;
0121822800999991997062812004-02533-044283FM-12+005199999V0209999999999004201CN0200001N1+02861+02461101271ADDAA124010091AG10000GF105991051021004501001001KA1240N+02291MA1999999100691MD1999999+0121REMSYN023 333 20229 58012 60104;
0096822800999991997062818004-02533-044283FM-12+005199999V0209999999999220001CN0200001N1+03061+02451101041ADDAA106000091AG10000GF104991041021004501001001MA1999999100461MD1999999+0121REMSYN011 333 58012;
0115822800999991997062912004-02533-044283FM-12+005199999V0209999999999220001CN0200001N1+02801+02271101471ADDAA106000091AG10000GF104991041021004501001001KA1240N+02371MA1999999100891MD1999999+0201REMSYN017 333 20237 58020;
0096822800999991997062918004-02533-044283FM-12+005199999V0209999999999220001CN0200001N1+03061+02471101171ADDAA106000091AG10000GF104991041021004501001001MA1999999100591MD1999999+0131REMSYN011 333 58013;
0115822800999991997063012004-02533-044283FM-12+005199999V0209999999999220001CN0200001N1+02741+02321101471ADDAA106000091AG10000GF104991041021004501001001KA1240N+02221MA1999999100891MD1999999+0001REMSYN017 333 20222 58000;
0096822800999991997063018004-02533-044283FM-12+005199999V0209999999999220001CN0200001N1+03041+02501101151ADDAA106000091AG10000GF102991021021004501001001MA1999999100571MD1999999-0021REMSYN011 333 59002;
0115822800999991997070112004-02533-044283FM-12+005199999V0209999999999045001CN0200001N1+02801+02251101371ADDAA106000091AG10000GF105991041021004501011001KA1240N+02271MA1999999100791MD1999999-0101REMSYN017 333 20227 59010;
0096822800999991997070118004-02533-044283FM-12+005199999V0209999999999004201CN0200001N1+03001+02321101111ADDAA106000091AG10000GF105991051021004501001001MA1999999100531MD1999999-0041REMSYN011 333 59004;
0115822800999991997070212004-02533-044283FM-12+005199999V0209999999999004201CN0200001N1+02761+02341101271ADDAA106000091AG10000GF106991051021004501031001KA1240N+02371MA1999999100691MD1999999-0101REMSYN017 333 20237 59010;
0124822800999991997070218004-02533-044283FM-12+005199999V0209999999999004201CN0200001N1+02761+02461101041ADDAA106003091AG10005AY161061AY221061GF105991051021004501001001MA1999999100461MD1999999-0071MW1021REMSYN017 333 59007 60031;
0121822800999991997070312004-02533-044283FM-12+005199999V0209999999999220001CN0200001N1+02701+02281101371ADDAA124003091AG10000GF103991031011004501001001KA1240N+02301MA1999999100791MD1999999+0101REMSYN023 333 20230 58010 60034;
0096822800999991997070318004-02533-044283FM-12+005199999V0209999999999220001CN0200001N1+03101+02341101011ADDAA106000091AG10000GF103991031021004501001001MA1999999100431MD1999999-0031REMSYN011 333 59003;
0134822800999991997070412004-02533-044283FM-12+005199999V0209999999999220001CN0200001N1+02801+02341101361ADDAA106000091AG10000GF104991999021004501001001KA1240N+02311MA1999999100781MD1999999-0011REMSYN017 333 20231 59001;EQDQ01+000052SCOTLC
0096822800999991997070418004-02533-044283FM-12+005199999V0209999999999220001CN0200001N1+03141+02401101001ADDAA106000091AG10000GF104991041021004501001001MA1999999100421MD1999999-0011REMSYN011 333 59001;
0121822800999991997070512004-02533-044283FM-12+005199999V0209999999999004201CN0200001N1+02781+02361101371ADDAA124008091AG10000GF106991051021004501051001KA1240N+02201MA1999999100791MD1999999+0011REMSYN023 333 20220 58001 60084;
0096822800999991997070518004-02533-044283FM-12+005199999V0209999999999220001CN0200001N1+03081+02541101041ADDAA106000091AG10000GF104991041021004501001001MA1999999100461MD1999999-0041REMSYN011 333 59004;
0115822800999991997070612004-02533-044283FM-12+005199999V0209999999999045001CN0200001N1+02701+02281101271ADDAA106000091AG10000GF107991021021004501051999KA1240N+02401MA1999999100691MD1999999-0101REMSYN017 333 20240 59010;
0115822800999991997070712004-02533-044283FM-12+005199999V0209999999999220001CN0200001N1+02761+02281101351ADDAA106000091AG10000GF104991031021004501031001KA1240N+02291MA1999999100771MD1999999+0081REMSYN017 333 20229 58008;
0096822800999991997070718004-02533-044283FM-12+005199999V0209999999999220001CN0200001N1+03061+02501101011ADDAA106000091AG10000GF102991021011008001001001MA1999999100431MD1999999-0041REMSYN011 333 59004;
0115822800999991997070812004-02533-044283FM-12+005199999V0209999999999220001CN0200001N1+02741+02401101241ADDAA106000091AG10000GF104991041021004501001001KA1240N+02251MA1999999100661MD1999999-0111REMSYN017 333 20225 59011;
0096822800999991997070818004-02533-044283FM-12+005199999V0209999999999004201CN0200001N1+03141+02531100911ADDAA106000091AG10000GF105991051021004501001001MA1999999100331MD1999999-0101REMSYN011 333 59010;
0115822800999991997070912004-02533-044283FM-12+005199999V0209999999999220001CN0200001N1+02781+02421101201ADDAA106000091AG10000GF104991041021004501001001KA1240N+02371MA1999999100621MD1999999-0041REMSYN017 333 20237 59004;
0096822800999991997070918004-02533-044283FM-12+005199999V0209999999999220001CN0200001N1+03201+02351100931ADDAA106000091AG10000GF102991021021004501001001MA1999999100351MD1999999+0021REMSYN011 333 58002;
0115822800999991997071012004-02533-044283FM-12+005199999V0209999999999220001CN0200001N1+02701+02301101301ADDAA106000091AG10000GF103991031011008001001001KA1240N+02271MA1999999100721MD1999999+0101REMSYN017 333 20227 58010;
0096822800999991997071018004-02533-044283FM-12+005199999V0209999999999220001CN0200001N1+03121+02331101131ADDAA106000091AG10000GF102991021011008001001001MA1999999100551MD1999999+0201REMSYN011 333 58020;
0115822800999991997071112004-02533-044283FM-12+005199999V0209999999999220001CN0200001N1+02801+02421101461ADDAA106000091AG10000GF103991021021004501001011KA1240N+02351MA1999999100881MD1999999+0161REMSYN017 333 20235 58016;
0096822800999991997071118004-02533-044283FM-12+005199999V0209999999999220001CN0200001N1+03061+02451101181ADDAA106000091AG10000GF103991011021004501031011MA1999999100601MD1999999+0051REMSYN011 333 58005;
0096822800999991997071218004-02533-044283FM-12+005199999V0209999999999220001CN0200001N1+03041+02551101141ADDAA106000091AG10000GF104991041021004501001001MA1999999100561MD1999999-0041REMSYN011 333 59004;
0115822800999991997071312004-02533-044283FM-12+005199999V0209999999999045001CN0200001N1+02801+02481101431ADDAA106000091AG10000GF105991041021004501031001KA1240N+02321MA1999999100851MD1999999+0001REMSYN017 333 20232 58000;
0096822800999991997071318004-02533-044283FM-12+005199999V0209999999999220001CN0200001N1+03021+02501101161ADDAA106000091AG10000GF104991031021004501061001MA1999999100581MD1999999+0021REMSYN011 333 58002;
0121822800999991997071412004-02533-044283FM-12+005199999V0209999999999220001CN0200001N1+02701+02411101521ADDAA124006091AG10000GF104991031021004501031001KA1240N+02291MA1999999100941MD1999999+0091REMSYN023 333 20229 58009 60064;
0115822800999991997071512004-02533-044283FM-12+005199999V0209999999999004201CN0200001N1+02801+02421101501ADDAA106000091AG10000GF105991051021004501001001KA1240N+02411MA1999999100921MD1999999-0021REMSYN017 333 20241 59002;
0096822800999991997071518004-02533-044283FM-12+005199999V0209999999999220001CN0200001N1+03131+02431101161ADDAA106000091AG10000GF102991021021004501001001MA1999999100581MD1999999-0071REMSYN011 333 59007;
0115822800999991997071612004-02533-044283FM-12+005199999V0209999999999220001CN0200001N1+02801+02381101451ADDAA106000091AG10000GF102991011021004501051001KA1240N+02331MA1999999100871MD1999999-0051REMSYN017 333 20233 59005;
0096822800999991997071618004-02533-044283FM-12+005199999V0209999999999220001CN0200001N1+03161+02501101091ADDAA106000091AG10000GF103991031021004501001001MA1999999100511MD1999999-0071REMSYN011 333 59007;
0115822800999991997071712004-02533-044283FM-12+005199999V0209999999999004201CN0200001N1+02801+02421101461ADDAA106000091AG10000GF106991061021004501001001KA1240N+02261MA1999999100881MD1999999+0011REMSYN017 333 20226 58001;
0096822800999991997071718004-02533-044283FM-12+005199999V0209999999999220001CN0200001N1+03041+02451101091ADDAA106000091AG10000GF103991031021004501001001MA1999999100511MD1999999+0001REMSYN011 333 58000;
0115822800999991997071812004-02533-044283FM-12+005199999V0209999999999220001CN0200001N1+02781+02461101461ADDAA106000091AG10000GF102991021011008001001001KA1240N+02291MA1999999100881MD1999999+0001REMSYN017 333 20229 58000;
0096822800999991997071818004-02533-044283FM-12+005199999V0209999999999220001CN0200001N1+03081+02541101171ADDAA106000091AG10000GF104991041021004501001001MA1999999100591MD1999999+0081REMSYN011 333 58008;
0115822800999991997071912004-02533-044283FM-12+005199999V0209999999999004201CN0200001N1+02661+02311101551ADDAA106000091AG10000GF108991051051004501031999KA1240N+02341MA1999999100971MD1999999+0091REMSYN017 333 20234 58009;
0121822800999991997072012004-02533-044283FM-12+005199999V0209999999999220001CN0200001N1+02781+02421101651ADDAA124004091AG10000GF104991041021004501001001KA1240N+02351MA1999999101071MD1999999+0101REMSYN023 333 20235 58010 60044;
0118822800999991997072018004-02533-044283FM-12+005199999V0209999999999045001CN0200001N1+03041+02501101341ADDAA106000091AG10000AY111061AY201061GF106991041051004501061011MA1999999100741MD1999999-0031MW1171REMSYN011 333 59003;
0115822800999991997072112004-02533-044283FM-12+005199999V0209999999999220001CN0200001N1+02801+02361101641ADDAA106000091AG10000GF103991031021004501001001KA1240N+02391MA1999999101061MD1999999-0011REMSYN017 333 20239 59001;
0115822800999991997072118004-02533-044283FM-12+005199999V0209999999999220001CN0200001N1+03121+02481101281ADDAA106000091AG10000GF104991999021004501001001MA1999999100701MD1999999-0041REMSYN011 333 59004;EQDQ01+000032SCOTLC
0115822800999991997072212004-02533-044283FM-12+005199999V0209999999999220001CN0200001N1+02781+02421101501ADDAA106000091AG10000GF104991031021004501031001KA1240N+02301MA1999999100921MD1999999-0141REMSYN017 333 20230 59014;
0096822800999991997072218004-02533-044283FM-12+005199999V0209999999999045001CN0200001N1+03021+02551101231ADDAA106000091AG10000GF105991041021004501031001MA1999999100651MD1999999-0051REMSYN011 333 59005;
0131822800999991997072300004-02533-044283FM-12+005199999V0209999999999220001CN0200001N1+02481+02321101421ADDAA106000091AG10000GA1001+999999999GF100991001001999999001001KA1240M+03111MA1999999100841MD1999999-0031REMSYN017 333 10311 59003;
0134822800999991997072312004-02533-044283FM-12+005199999V02099999999999999999N0200001N1+02781+02321101541ADDAA106000091AG10000GF105991999021004501001001KA1240N+02311MA1999999100961MD1999999+0041REMSYN017 333 20231 58004;EQDQ01+000062SCOTLC
0096822800999991997072318004-02533-044283FM-12+005199999V0209999999999220001CN0200001N1+03161+02521101291ADDAA106000091AG10000GF103991031021004501001001MA1999999100711MD1999999+0061REMSYN011 333 58006;
0115822800999991997072412004-02533-044283FM-12+005199999V0209999999999220001CN0200001N1+02781+02421101571ADDAA106000091AG10000GF104991041021004501001001KA1240N+02291MA1999999100991MD1999999+0031REMSYN017 333 20229 58003;
0096822800999991997072418004-02533-044283FM-12+005199999V0209999999999220001CN0200001N1+03141+02431101311ADDAA106000091AG10000GF102991021011008001001001MA1999999100731MD1999999+0021REMSYN011 333 58002;
0115822800999991997072512004-02533-044283FM-12+005199999V0209999999999004201CN0200001N1+02741+02341101491ADDAA106000091AG10000GF105991051021004501001001KA1240N+02231MA1999999100911MD1999999-0081REMSYN017 333 20223 59008;
0096822800999991997072518004-02533-044283FM-12+005199999V0209999999999220001CN0200001N1+03201+02481101251ADDAA106000091AG10000GF104991041021004501001001MA1999999100671MD1999999-0061REMSYN011 333 59006;
0115822800999991997072612004-02533-044283FM-12+005199999V0209999999999004201CN0200001N1+02741+02401101491ADDAA106000091AG10000GF105991051021004501001001KA1240N+02231MA1999999100911MD1999999+0001REMSYN017 333 20223 58000;
0115822800999991997072712004-02533-044283FM-12+005199999V0209999999999220001CN0200001N1+02741+02321101511ADDAA106000091AG10000GF104991041021004501001001KA1240N+02221MA1999999100931MD1999999+0021REMSYN017 333 20222 58002;
0096822800999991997072718004-02533-044283FM-12+005199999V0209999999999220001CN0200001N1+03021+02341101191ADDAA106000091AG10000GF103991031021004501001001MA1999999100611MD1999999+0001REMSYN011 333 58000;
0115822800999991997072812004-02533-044283FM-12+005199999V0209999999999220001CN0200001N1+02741+02341101451ADDAA106000091AG10000GF104991041021004501001001KA1240N+02271MA1999999100871MD1999999-0061REMSYN017 333 20227 59006;
0096822800999991997072818004-02533-044283FM-12+005199999V0209999999999220001CN0200001N1+03141+02401101151ADDAA106000091AG10000GF103991021021004501031001MA1999999100571MD1999999-0041REMSYN011 333 59004;
0115822800999991997072912004-02533-044283FM-12+005199999V0209999999999220001CN0200001N1+02801+02361101451ADDAA106000091AG10000GF103991031021004501001001KA1240N+02371MA1999999100871MD1999999+0001REMSYN017 333 20237 58000;
0096822800999991997072918004-02533-044283FM-12+005199999V0209999999999220001CN0200001N1+03101+02411101211ADDAA106000091AG10000GF102991011011008001001011MA1999999100631MD1999999+0061REMSYN011 333 58006;
0115822800999991997073012004-02533-044283FM-12+005199999V0209999999999220001CN0200001N1+02781+02421101621ADDAA106000091AG10000GF103991021021004501081001KA1240N+02391MA1999999101041MD1999999+0171REMSYN017 333 20239 58017;
0096822800999991997073018004-02533-044283FM-12+005199999V0209999999999220001CN0200001N1+03101+02461101311ADDAA106000091AG10000GF102991021021004501001001MA1999999100731MD1999999+0101REMSYN011 333 58010;
0115822800999991997073112004-02533-044283FM-12+005199999V0209999999999004201CN0200001N1+02701+02281101661ADDAA106000091AG10000GF105991051021004501001001KA1240N+02311MA1999999101081MD1999999+0041REMSYN017 333 20231 58004;
0096822800999991997073118004-02533-044283FM-12+005199999V0209999999999220001CN0200001N1+03061+02501101401ADDAA106000091AG10000GF104991041021008001001001MA1999999100821MD1999999+0091REMSYN011 333 58009;
0115822800999991997080112004-02533-044283FM-12+005199999V0209999999999045001CN0200001N1+02841+02381101611ADDAA106000091AG10000GF105991041021004501011001KA1240N+02481MA1999999101031MD1999999-0051REMSYN017 333 20248 59005;
0096822800999991997080118004-02533-044283FM-12+005199999V0209999999999220001CN0200001N1+03101+02461101351ADDAA106000091AG10000GF102991021021004501001001MA1999999100771MD1999999-0051REMSYN011 333 59005;
0115822800999991997080212004-02533-044283FM-12+005199999V0209999999999045001CN0200001N1+02801+02271101491ADDAA106000091AG10000GF106991041021004501031001KA1240N+02451MA1999999100911MD1999999-0121REMSYN017 333 20245 59012;
0096822800999991997080218004-02533-044283FM-12+005199999V0209999999999220001CN0200001N1+03101+02191101211ADDAA106000091AG10000GF102991021021004501001001MA1999999100631MD1999999+0141REMSYN011 333 58014;
0115822800999991997080312004-02533-044283FM-12+005199999V0209999999999045001CN0200001N1+02701+02301101511ADDAA106000091AG10000GF106991041021004501051001KA1240N+02331MA1999999100931MD1999999+0021REMSYN017 333 20233 58002;
0096822800999991997080318004-02533-044283FM-12+005199999V0209999999999220001CN0200001N1+03101+02261101251ADDAA106000091AG10000GF102991021021004501001001MA1999999100671MD1999999+0041REMSYN011 333 58004;
0115822800999991997080412004-02533-044283FM-12+005199999V0209999999999220001CN0200001N1+02801+02251101551ADDAA106000091AG10000GF103991031011008001001001KA1240N+02391MA1999999100971MD1999999+0041REMSYN017 333 20239 58004;
0096822800999991997080418004-02533-044283FM-12+005199999V0209999999999220001CN0200001N1+03101+02341101271ADDAA106000091AG10000GF102991021021004501001001MA1999999100691MD1999999+0021REMSYN011 333 58002;
0115822800999991997080512004-02533-044283FM-12+005199999V0209999999999220001CN0200001N1+02761+02281101671ADDAA106000091AG10000GF102991021011008001001001KA1240N+02301MA1999999101091MD1999999+0121REMSYN017 333 20230 58012;
0096822800999991997080518004-02533-044283FM-12+005199999V0209999999999220001CN0200001N1+03141+02431101291ADDAA106000091AG10000GF103991031021004501001001MA1999999100711MD1999999+0021REMSYN011 333 58002;
0115822800999991997080612004-02533-044283FM-12+005199999V02099999999991050019N0200001N1+02841+99999101511ADDAA106000091AG10000GF105991031011008001001091KA1240N+02291MA1999999100931MD1999999-0161REMSYN017 333 20229 59016;
0096822800999991997080618004-02533-044283FM-12+005199999V0209999999999220001CN0200001N1+03201+02381101181ADDAA106000091AG10000GF103991031021004501001001MA1999999100601MD1999999-0111REMSYN011 333 59011;
0115822800999991997080712004-02533-044283FM-12+005199999V0209999999999045001CN0200001N1+02801+02381101551ADDAA106000091AG10000GF106991041021004501051001KA1240N+02401MA1999999100971MD1999999+0041REMSYN017 333 20240 58004;
0096822800999991997080718004-02533-044283FM-12+005199999V0209999999999004201CN0200001N1+03061+02301101191ADDAA106000091AG10000GF106991051021004501031001MA1999999100611MD1999999+0011REMSYN011 333 58001;
0115822800999991997080812004-02533-044283FM-12+005199999V0209999999999004201CN0200001N1+02721+02301101571ADDAA106000091AG10000GF107991051021004501051999KA1240N+02321MA1999999100981MD1999999+0011REMSYN017 333 20232 58001;
0096822800999991997080818004-02533-044283FM-12+005199999V0209999999999220001CN0200001N1+03361+02451101231ADDAA106000091AG10000GF104991041021004501001001MA1999999100651MD1999999+0041REMSYN011 333 58004;
0131822800999991997080900004-02533-044283FM-12+005199999V0209999999999220001CN0200001N1+02521+02231101351ADDAA106000091AG10000GA1001+999999999GF100991001001999999001001KA1240M+03181MA1999999100771MD1999999-0021REMSYN017 333 10318 59002;
0115822800999991997080912004-02533-044283FM-12+005199999V0209999999999220001CN0200001N1+02741+02321101551ADDAA106000091AG10000GF101991011011004501001001KA1240N+02301MA1999999100971MD1999999-0011REMSYN017 333 20230 59001;
0096822800999991997080918004-02533-044283FM-12+005199999V0209999999999220001CN0200001N1+03101+02491101181ADDAA106000091AG10000GF104991041021004501001001MA1999999100601MD1999999-0051REMSYN011 333 59005;
0115822800999991997081012004-02533-044283FM-12+005199999V0209999999999220001CN0200001N1+02801+02361101411ADDAA106000091AG10000GF104991031021004501011001KA1240N+02391MA1999999100831MD1999999-0141REMSYN017 333 20239 59014;
0096822800999991997081018004-02533-044283FM-12+005199999V0209999999999045001CN0200001N1+02921+02361101201ADDAA106000091AG10000GF106991041051004501021001MA1999999100621MD1999999+0021REMSYN011 333 58002;
0115822800999991997081100004-02533-044283FM-12+005199999V0209999999999220001CN0200001N1+02541+02321101351ADDAA106000091AG10000GF103991011011004501021001KA1240M+03041MA1999999100771MD1999999+0011REMSYN017 333 10304 58001;
0115822800999991997081112004-02533-044283FM-12+005199999V0209999999999004201CN0200001N1+02821+02331101531ADDAA106000091AG10000GF107991061021004501051999KA1240N+02351MA1999999100951MD1999999+0121REMSYN017 333 20235 58012;
0096822800999991997081118004-02533-044283FM-12+005199999V0209999999999045001CN0200001N1+02921+02341101211ADDAA106000091AG10000GF105991021021004501031001MA1999999100631MD1999999+0011REMSYN011 333 58001;
0115822800999991997081212004-02533-044283FM-12+005199999V0209999999999045001CN0200001N1+02781+02321101551ADDAA106000091AG10000GF105991041021004501031001KA1240N+02391MA1999999100971MD1999999+0021REMSYN017 333 20239 58002;
0096822800999991997081218004-02533-044283FM-12+005199999V0209999999999045001CN0200001N1+03041+02481101181ADDAA106000091AG10000GF105991031021004501031001MA1999999100601MD1999999-0031REMSYN011 333 59003;
0096822800999991997081318004-02533-044283FM-12+005199999V0209999999999220001CN0200001N1+02961+02421101221ADDAA106000091AG10000GF104991041021004501001001MA1999999100641MD1999999+0041REMSYN011 333 58004;
0115822800999991997081412004-02533-044283FM-12+005199999V0209999999999045001CN0200001N1+02801+02311101451ADDAA106000091AG10000GF106991041021004501051001KA1240N+02401MA1999999100871MD1999999-0161REMSYN017 333 20240 59016;
0096822800999991997081418004-02533-044283FM-12+005199999V0209999999999045001CN0200001N1+02901+02431101191ADDAA106000091AG10000GF106991031021004501031001MA1999999100611MD1999999-0031REMSYN011 333 59003;
0115822800999991997081512004-02533-044283FM-12+005199999V0209999999999220001CN0200001N1+02841+02291101451ADDAA106000091AG10000GF104991041021004501001001KA1240N+02411MA1999999100871MD1999999+0001REMSYN017 333 20241 58000;
0096822800999991997081518004-02533-044283FM-12+005199999V0209999999999045001CN0200001N1+02901+02341101171ADDAA106000091AG10000GF106991031021004501051001MA1999999100591MD1999999-0021REMSYN011 333 59002;
0115822800999991997081612004-02533-044283FM-12+005199999V0209999999999220001CN0200001N1+02821+02291101461ADDAA106000091AG10000GF103991031021004501001001KA1240N+02351MA1999999100881MD1999999+0011REMSYN017 333 20235 58001;
0096822800999991997081618004-02533-044283FM-12+005199999V0209999999999220001CN0200001N1+03081+02321101171ADDAA106000091AG10000GF104991041021004501001001MA1999999100591MD1999999+0001REMSYN011 333 58000;
0115822800999991997081712004-02533-044283FM-12+005199999V0209999999999220001CN0200001N1+02861+02311101511ADDAA106000091AG10000GF103991031011008001001001KA1240N+02361MA1999999100931MD1999999+0051REMSYN017 333 20236 58005;
0096822800999991997081718004-02533-044283FM-12+005199999V0209999999999220001CN0200001N1+03201+02381101181ADDAA106000091AG10000GF104991041021004501001001MA1999999100601MD1999999+0011REMSYN011 333 58001;
0115822800999991997081812004-02533-044283FM-12+005199999V0209999999999220001CN0200001N1+02801+02321101451ADDAA106000091AG10000GF103991031021004501001001KA1240N+02401MA1999999100871MD1999999-0051REMSYN017 333 20240 59005;
0096822800999991997081818004-02533-044283FM-12+005199999V0209999999999220001CN0200001N1+03101+02261101101ADDAA106000091AG10000GF102991021021004501001001MA1999999100521MD1999999-0081REMSYN011 333 59008;
0115822800999991997081912004-02533-044283FM-12+005199999V0209999999999220001CN0200001N1+02821+02331101391ADDAA106000091AG10000GF104991041021004501001001KA1240N+02391MA1999999100811MD1999999-0061REMSYN017 333 20239 59006;
0096822800999991997081918004-02533-044283FM-12+005199999V0209999999999220001CN0200001N1+03101+02541101031ADDAA106000091AG10000GF104991031021004501031001MA1999999100451MD1999999-0071REMSYN011 333 59007;
0115822800999991997082012004-02533-044283FM-12+005199999V0209999999999220001CN0200001N1+02821+02291101351ADDAA106000091AG10000GF101991011011008001001001KA1240N+02191MA1999999100771MD1999999-0041REMSYN017 333 20219 59004;
0096822800999991997082018004-02533-044283FM-12+005199999V0209999999999220001CN0200001N1+03101+02261101101ADDAA106000091AG10000GF102991021021004501001001MA1999999100521MD1999999+0071REMSYN011 333 58007;
0115822800999991997082112004-02533-044283FM-12+005199999V0209999999999220001CN0200001N1+02851+02331101351ADDAA106000091AG10000GF103991031021004501001001KA1240N+02291MA1999999100771MD1999999+0001REMSYN017 333 20229 58000;
0096822800999991997082118004-02533-044283FM-12+005199999V0209999999999220001CN0200001N1+03071+02351101201ADDAA106000091AG10000GF102991021021004501001001MA1999999100621MD1999999+0101REMSYN011 333 58010;
0115822800999991997082212004-02533-044283FM-12+005199999V0209999999999004201CN0200001N1+02821+02331101391ADDAA106000091AG10000GF105991051021004501001001KA1240N+02231MA1999999100811MD1999999+0041REMSYN017 333 20223 58004;
0096822800999991997082218004-02533-044283FM-12+005199999V0209999999999220001CN0200001N1+03121+02551101101ADDAA106000091AG10000GF102991021021004501011001MA1999999100521MD1999999-0101REMSYN011 333 59010;
0115822800999991997082312004-02533-044283FM-12+005199999V0209999999999045001CN0200001N1+02841+02421101311ADDAA106000091AG10000GF106991041021004501031001KA1240N+02331MA1999999100731MD1999999-0081REMSYN017 333 20233 59008;
0096822800999991997082318004-02533-044283FM-12+005199999V0209999999999220001CN0200001N1+03021+02531101121ADDAA106000091AG10000GF103991031021004501001001MA1999999100541MD1999999+0021REMSYN011 333 58002;
0115822800999991997082412004-02533-044283FM-12+005199999V0209999999999220001CN0200001N1+02861+02371101351ADDAA106000091AG10000GF103991031021004501001001KA1240N+02391MA1999999100771MD1999999+0041REMSYN017 333 20239 58004;
