0121825710999991997010100004-05500-045267FM-12+017499999V0202701N00101220001CN0100001N1+02391+02291100801ADDAA106000091AG10000GF102991021031004501001001KA1240M+03041MA1999999098821MD1999999-0071MW1131REMSYN017 333 10304 59007;
0143825710999991997010112004-05500-045267FM-12+017499999V0202301N00211045001CN0100001N1+02391+02241101161ADDAA124015091AG10018AY191061AY261061GF107991041051004501031001KA1240N+01931MA1999999099171MD1999999+0081MW1011REMSYN023 333 20193 58008 60154;
0096825710999991997010118004-05500-045267FM-12+017499999V0200501N00211004201CN0100001N1+03031+02311100741ADDAA106000091AG10000GF106991061051004501001001MA1999999098781MD1999999+0071REMSYN011 333 58007;
0115825710999991997010200004-05500-045267FM-12+017499999V0209991C00001220001CN0100001N1+02541+02381100901ADDAA106000091AG10000GF101991011001017501041001KA1240M+03101MA1999999098921MD1999999+0101REMSYN017 333 10310 58010;
0135825710999991997010212004-05500-045267FM-12+017499999V0203601N00101045001CN0040001N1+02321+02271101191ADDAA124007091AG10006AY161061GF108991041071004501021999KA1240N+02121MA1999999099211MD1999999+0041MW1611REMSYN023 333 20212 58004 60074;
0116825710999991997010218004-05500-045267FM-12+017499999V0203201N001019999999N0100001N1+02701+02371100861ADDAA106000191AG10006AY161061GF106991999999008001999999MA1999999098891MD1999999+0111MW1021REMSYN017 333 58011 69921;
0115825710999991997010300004-05500-045267FM-12+017499999V0202701N00101220001CN0100001N1+02451+02351100991ADDAA106000091AG10000GF102991021001017501041001KA1240M+02751MA1999999099011MD1999999+0091REMSYN017 333 10275 58009;
0135825710999991997010312004-05500-045267FM-12+017499999V0201801N00411009001CN0100001N1+02391+02291101371ADDAA124002091AG10006AY161061GF107991071081004501001001KA1240N+02151MA1999999099381MD1999999+0171MW1021REMSYN023 333 20215 58017 60024;
0096825710999991997010318004-05500-045267FM-12+017499999V0202301N00101015001CN0100001N1+02671+02241100961ADDAA106000091AG10000GF106991061001017501071001MA1999999098991MD1999999+0101REMSYN011 333 58010;
0115825710999991997010412004-05500-045267FM-12+017499999V0203201N00101045001CN0100001N1+02601+02391101181ADDAA106000091AG10000GF106991041021004501011001KA1240N+02151MA1999999099211MD1999999-0171REMSYN017 333 20215 59017;
0096825710999991997010418004-05500-045267FM-12+017499999V0203201N00211045001CN0100001N1+03111+02261100771ADDAA106000091AG10000GF105991031021008001031001MA1999999098821MD1999999-0171REMSYN011 333 59017;
0135825710999991997010512004-05500-045267FM-12+017499999V0202301N00101045001CN0020001N1+02441+02411101191ADDAA124006091AG10006AY161061GF108991031071004501021999KA1240N+02241MA1999999099221MD1999999+0011MW1611REMSYN023 333 20224 58001 60064;
0124825710999991997010518004-05500-045267FM-12+017499999V0202301N00101012001CN0040001N1+02391+02351101101ADDAA106011091AG10006AY161061AY261061GF108991081001012501021999MA1999999099121MD1999999+0301MW1611REMSYN017 333 58030 60111;
0135825710999991997010612004-05500-045267FM-12+017499999V0202701N00101004201CN0100001N1+02281+02251101371ADDAA124012091AG10006AY161061GF108991081051004501999999KA1240N+01951MA1999999099371MD1999999+0151MW1021REMSYN023 333 20195 58015 60124;
0121825710999991997010700004-05500-045267FM-12+017499999V0201401N00101220001CN0100001N1+02471+02321101091ADDAA106000091AG10000GF102991011011008001011001KA1240M+02971MA1999999099101MD1999999-0031MW1131REMSYN017 333 10297 59003;
0124825710999991997010718004-05500-045267FM-12+017499999V0202301N00101045001CN0040001N1+02201+02151101271ADDAA106019091AG10018AY191061AY261061GF108991031071008001021999MA1999999099271MD1999999+0271MW1951REMSYN017 333 58027 60191;
0096825710999991997010818004-05500-045267FM-12+017499999V0201401N00311045001CN0100001N1+02911+02411101111ADDAA106000091AG10000GF107991031021008001011001MA1999999099141MD1999999-0131REMSYN011 333 59013;
0082825710999991997010900004-05500-045267FM-12+017499999V0202701N00101220001CN0100001N1+02421+02321101341ADDAA106000091AG10000GF101991011001017501041001MA1999999099341MW1131REMSYN005 333;
0135825710999991997010912004-05500-045267FM-12+017499999V0202701N00101004201CN0100001N1+02291+02251101421ADDAA106000191AG10006AY161061GF108991081071004501999999KA1240N+01891MA1999999099421MD1999999+0001MW1021REMSYN023 333 20189 58000 69911;
0096825710999991997010918004-05500-045267FM-12+017499999V0202301N00211220001CN0100001N1+03101+02261101041ADDAA106000091AG10000GF104991041021008001001001MA1999999099081MD1999999-0061REMSYN011 333 59006;
0143825710999991997011012004-05500-045267FM-12+017499999V0202701N00101012001CN0100001N1+02281+02161101341ADDAA124006091AG10018AY191061AY261061GF106991061081008001001001KA1240N+01931MA1999999099351MD1999999-0071MW1021REMSYN023 333 20193 59007 60064;
0096825710999991997011018004-05500-045267FM-12+017499999V0203601N002110450019N0100001N1+02821+02291101061ADDAA106000091AG10000GF106991031021008001011001MA1999999099081MD1999999+0001REMSYN011 333 58000;
0121825710999991997011100004-05500-045267FM-12+017499999V0202701N00101220001CN0100001N1+02481+02381101061ADDAA106000091AG10000GF101991011031004501001001KA1240M+02901MA1999999099071MD1999999-0171MW1131REMSYN017 333 10290 59017;
0096825710999991997011118004-05500-045267FM-12+017499999V0203201N00101007501CN0100001N1+02821+02391101001ADDAA106000091AG10000GF108991081051008001999999MA1999999099031MD1999999-0051REMSYN011 333 59005;
0135825710999991997011212004-05500-045267FM-12+017499999V0203301N00101007501CN0100001N1+02511+02111101431ADDAA124007091AG10006AY161061GF108991081051008001999999KA1240N+01881MA1999999099441MD1999999+0101MW1021REMSYN023 333 20188 58010 60074;
0115825710999991997011312004-05500-045267FM-12+017499999V0202701N00101105001CN0100001N1+02561+02341101391ADDAA106000091AG10000GF105991021021004501011011KA1240N+02021MA1999999099411MD1999999-0031REMSYN017 333 20202 59003;
0096825710999991997011318004-05500-045267FM-12+017499999V0203201N00101045001CN0100001N1+03081+02321100931ADDAA106000091AG10000GF105991041021008001011001MA1999999098981MD1999999-0071REMSYN011 333 59007;
0143825710999991997011400004-05500-045267FM-12+017499999V0202701N00101004201CN0100001N1+02291+02231101331ADDAA106009091AG10018AY191061AY261061GF108991081051004501999999KA1240M+03161MA1999999099341MD1999999+0191MW1131REMSYN023 333 10316 58019 60091;
0121825710999991997011412004-05500-045267FM-12+017499999V0203601N00101004201CN0100001N1+02401+02211101461ADDAA124009091AG10000GF108991081051004501999999KA1240N+02001MA1999999099461MD1999999+0051REMSYN023 333 20200 58005 60094;
0096825710999991997011418004-05500-045267FM-12+017499999V0203201N00211007501CN0100001N1+02911+02321101061ADDAA106000091AG10000GF105991051021008001001001MA1999999099091MD1999999+0111REMSYN011 333 58011;
0121825710999991997011500004-05500-045267FM-12+017499999V0209991C00001220001CN0100001N1+02501+02341101211ADDAA106000091AG10000GF104991999999008001999999KA1240M+02971MA1999999099231MD1999999-0111MW1131REMSYN017 333 10297 59011;
0115825710999991997011512004-05500-045267FM-12+017499999V0202701N00101045001CN0100001N1+02421+02211101441ADDAA106000091AG10000GF106991021021004501041011KA1240N+01981MA1999999099451MD1999999-0011REMSYN017 333 20198 59001;
0096825710999991997011518004-05500-045267FM-12+017499999V0200501N00211045001CN0100001N1+02861+02261101141ADDAA106000091AG10000GF106991031021008001011011MA1999999099161MD1999999+0071REMSYN011 333 58007;
0121825710999991997011600004-05500-045267FM-12+017499999V0209991C00001220001CN0100001N1+02481+02361101181ADDAA106000091AG10000GF104991041001017501011001KA1240M+02901MA1999999099201MD1999999-0031MW1131REMSYN017 333 10290 59003;
0115825710999991997011612004-05500-045267FM-12+017499999V0203201N00101220001CN0100001N1+02571+02361101261ADDAA106000091AG10000GF104991021021004501031001KA1240N+02031MA1999999099281MD1999999+0171REMSYN017 333 20203 58017;
0096825710999991997011618004-05500-045267FM-12+017499999V0202701N00101220001CN0100001N1+03131+02301100941ADDAA106000091AG10000GF105991041021008001001011MA1999999098981MD1999999-0181REMSYN011 333 59018;
0121825710999991997011712004-05500-045267FM-12+017499999V0203201N00101045001CN0100001N1+02621+02391101241ADDAA124001091AG10000GF106991031021008001051001KA1240N+02061MA1999999099261MD1999999-0021REMSYN023 333 20206 59002 69984;
0096825710999991997011718004-05500-045267FM-12+017499999V0203201N00101220001CN0100001N1+03161+02371100851ADDAA106000091AG10000GF103991031021008001001001MA1999999098901MD1999999-0081REMSYN011 333 59008;
0137825710999991997011800004-05500-045267FM-12+017499999V0209991C00001220001CN0100001N1+02641+02331100871ADDAA106000091AG10000GA1001+999999999GF100991001001999999001001KA1240M+03221MA1999999098911MD1999999-0131MW1131REMSYN017 333 10322 59013;
0115825710999991997011812004-05500-045267FM-12+017499999V0202301N00101007501CN0100001N1+02471+02361101331ADDAA106000091AG10000GF108991081051008001999999KA1240N+02191MA1999999099331MD1999999+0091REMSYN017 333 20219 58009;
0096825710999991997011818004-05500-045267FM-12+017499999V0201401N00311007501CN0100001N1+02661+02371101031ADDAA106000091AG10000GF108991081051008001999999MA1999999099061MD1999999+0161REMSYN011 333 58016;
0115825710999991997011900004-05500-045267FM-12+017499999V0209991C00001220001CN0100001N1+02481+02381101111ADDAA106000091AG10000GF102991021001017501031001KA1240M+02781MA1999999099131MD1999999+0221REMSYN017 333 10278 58022;
0096825710999991997011918004-05500-045267FM-12+017499999V0203201N00511007501CN0100001N1+02951+02431101041ADDAA106000091AG10000GF108991081051008001999999MA1999999090801MD1999999+0021REMSYN011 333 58002;
0154825710999991997012012004-05500-045267FM-12+017499999V0203201N00101007501CN0100001N1+02331+02201101451ADDAA124002091AG10006AY161061GF108991081051008001999999KA1240N+02031MA1999999099451MD1999999+0031MW1021REMSYN023 333 20203 58003 60024;EQDQ01+000072PSTWM2
0096825710999991997012018004-05500-045267FM-12+017499999V0203201N00101045001CN0100001N1+03041+02281100961ADDAA106000091AG10000GF106991041021008001031001MA1999999098991MD1999999-0091REMSYN011 333 59009;
0135825710999991997012100004-05500-045267FM-12+017499999V0209991C00001004201CN0100001N1+02481+02321101131ADDAA106002091AG10006AY161061GF108991081051004501999999KA1240M+03091MA1999999099141MD1999999-0211MW1131REMSYN023 333 10309 59021 60021;
0135825710999991997012112004-05500-045267FM-12+017499999V0201801N00211007501CN0100001N1+02341+02201101321ADDAA124002091AG10006AY161061GF108991081051008001999999KA1240N+02081MA1999999099331MD1999999-0121MW1021REMSYN023 333 20208 59012 60024;
0096825710999991997012118004-05500-045267FM-12+017499999V0203201N00101007501CN0100001N1+02651+02251101131ADDAA106000091AG10000GF108991081051008001999999MA1999999099151MD1999999+0161REMSYN011 333 58016;
0115825710999991997012200004-05500-045267FM-12+017499999V0209991C00001004201CN0100001N1+02461+02341101181ADDAA106000091AG10000GF108991081051004501999999KA1240M+02721MA1999999099191MD1999999+0051REMSYN017 333 10272 58005;
0115825710999991997012212004-05500-045267FM-12+017499999V0202301N00051007501CN0100001N1+02461+02251101381ADDAA106000091AG10000GF108991061051008001031999KA1240N+02191MA1999999099391MD1999999+0061REMSYN017 333 20219 58006;
0127825710999991997012218004-05500-045267FM-12+017499999V0202701N00101007501CN0100001N1+02711+99999101081ADDAA106000591AG10000GF108991081051008001999999MA1999999099111MD1999999-0041MW1911REMSYN017 333 59004 69941;EQDQ01+999990APOSP 
0135825710999991997012300004-05500-045267FM-12+017499999V0209991C00001004201CN0100001N1+02321+02271101271ADDAA106003091AG10006AY161061GF108991081051004501999999KA1240M+03031MA1999999099281MD1999999+0091MW1021REMSYN023 333 10303 58009 60031;
0135825710999991997012312004-05500-045267FM-12+017499999V0203201N00311007501CN0100001N1+02321+02271101441ADDAA124005091AG10006AY161061GF108991081051008001999999KA1240N+02031MA1999999099441MD1999999+0051MW1021REMSYN023 333 20203 58005 60054;
0096825710999991997012318004-05500-045267FM-12+017499999V0203201N00051007501CN0100001N1+02831+02401101081ADDAA106000091AG10000GF108991081051008001999999MA1999999099111MD1999999+0001REMSYN011 333 58000;
0135825710999991997012400004-05500-045267FM-12+017499999V0209991C00001021001CN0100001N1+02321+02251101391ADDAA106000191AG10006AY161061GF108991081041022501999999KA1240M+02871MA1999999099391MD1999999+0111MW1021REMSYN023 333 10287 58011 69911;
0134825710999991997012500004-05500-045267FM-12+017499999V0209991C00001007501CN0100001N1+02521+02361101201ADDAA106000091AG10000GF108991081051008001999999KA1240N+99999MA1999999099211MD1999999-0181REMSYN017 333 20294 59018;EQDQ01 +02942ATMN  
0115825710999991997012512004-05500-045267FM-12+017499999V0203201N00101007501CN0100001N1+02431+02281101381ADDAA106000091AG10000GF108991081051008001999999KA1240N+02101MA1999999099391MD1999999-0031REMSYN017 333 20210 59003;
0096825710999991997012518004-05500-045267FM-12+017499999V0202301N00511007501CN0100001N1+02421+02321101281ADDAA106000091AG10000GF108991081051008001999999MA1999999099291MD1999999+0181REMSYN011 333 58018;
0115825710999991997012600004-05500-045267FM-12+017499999V0209991C00001004201CN0100001N1+02221+02141101261ADDAA106000091AG10000GF108991081051004501999999KA1240M+02701MA1999999099261MD1999999+0051REMSYN017 333 10270 58005;
0115825710999991997012612004-05500-045267FM-12+017499999V0200901N00101007501CN0100001N1+02421+02211101391ADDAA106000091AG10000GF108991081051008001999999KA1240N+01981MA1999999099391MD1999999+0001REMSYN017 333 20198 58000;
0096825710999991997012618004-05500-045267FM-12+017499999V0200501N00311220001CN0100001N1+03001+02371100911ADDAA106000091AG10000GF103991031021008001001001MA1999999098951MD1999999-0341REMSYN011 333 59034;
0110825710999991997012718004-05500-045267FM-12+017499999V0202301N00101007501CN0100001N1+02661+02431100981ADDAA106000091AG10018AY191061GF107991061051008001011001MA1999999099001MD1999999+0051MW1171REMSYN011 333 58005;
0115825710999991997012800004-05500-045267FM-12+017499999V0200501N00411004201CN0100001N1+02361+02261101201ADDAA106000391AG10006AY161061GF108991081051004501999999KA1240M+02901MA1999999099231MW1021REMSYN017 333 10290 69931;
0051825710999991997012812004-05500-045267FM-12+017499999V0201401N00101045001CN0100001N1+02451+02211101301ADDAG10000GF106991031021004501031999MA1999999099311
0096825710999991997012818004-05500-045267FM-12+017499999V0201401N00311007501CN0100001N1+02801+02311100921ADDAA106000091AG10000GF106991061021008001001001MA1999999098951MD1999999-0051REMSYN011 333 59005;
0121825710999991997012900004-05500-045267FM-12+017499999V0209991C00001220001CN0100001N1+02551+02381101061ADDAA106000091AG10000GF103991031021008001001001KA1240M+03121MA1999999099081MD1999999-0151MW1131REMSYN017 333 10312 59015;
0115825710999991997012912004-05500-045267FM-12+017499999V0202301N00101045001CN0100001N1+02551+02171101231ADDAA106000091AG10000GF106991031021004501011001KA1240N+02001MA1999999099251MD1999999-0161REMSYN017 333 20200 59016;
0087825710999991997012918004-05500-045267FM-12+017499999V0201401N00101045001CN0100001N1+02901+02461100891ADDAG10018AY191061AY261061GF105991031021008001011001MA1999999098921MW1021REMSYN005 333;
0096825710999991997013018004-05500-045267FM-12+017499999V0200901N00311220001CN0100001N1+03111+02311100871ADDAA106000091AG10000GF104991031021008001001011MA1999999098921MD1999999+0001REMSYN011 333 58000;
0137825710999991997013100004-05500-045267FM-12+017499999V0203201N00511220001CN0100001N1+02481+02411101111ADDAA106000091AG10000GA1001+999999999GF100991001001999999001001KA1240M+03191MA1999999099131MD1999999+0031MW1131REMSYN017 333 10319 58003;
0135825710999991997013112004-05500-045267FM-12+017499999V0202701N001010075019N0100001N1+02301+02201101381ADDAA124006091AG10006AY161061GF108991081051008001999999KA1240N+01941MA1999999099391MD1999999+0141MW1021REMSYN023 333 20194 58014 60064;
0096825710999991997013118004-05500-045267FM-12+017499999V0203601N00311045001CN0100001N1+02051+99999101021ADDAA106000091AG10000GF106991031021008001031011MA1999999099351MD1999999+0131REMSYN011 333 58013;
0127825710999991997020112004-05500-045267FM-12+017499999V0202301N00101004201CN0100001N1+02451+02351101341ADDAA124000191AG10000GF108991081051004501999999KA1240N+02061MA1999999099351MD1999999-0041MW1621REMSYN023 333 20206 59004 69924;
0116825710999991997020118004-05500-045267FM-12+017499999V0202701N00101007501CN0100001N1+02741+02431100941ADDAA106002091AG10007AY161061GF108991081051008001999999MA1999999098971MD1999999-0081MW1021REMSYN017 333 59008 60021;
0148825710999991997020200004-05500-045267FM-12+017499999V0209991C00001007501CN0100001N1+02401+02171101181ADDAA106000091AG10000AY111061GF108991081061008001999999KA1240M+02941MA1999999099191MD1999999-0061MW1141REMSYN017 333 10294 59006;EQDQ01+000072PSTWM2
0143825710999991997020300004-05500-045267FM-12+017499999V0202301N00311999999CN0100001N1+02301+02201101221ADDAA106010091AG10020AY191061AY261061GF108991999081004501081051KA1240M+03211MA1999999099231MD1999999+0041MW1021REMSYN023 333 10321 58004 60101;
0096825710999991997020318004-05500-045267FM-12+017499999V0201401N00311220001CN0100001N1+03021+02311100911ADDAA106000091AG10000GF104991041021008001001001MA1999999098951MD1999999+0021REMSYN011 333 58002;
0121825710999991997020400004-05500-045267FM-12+017499999V0209991C00001220001CN0100001N1+02451+02211101071ADDAA106000091AG10000GF101991011001017501041001KA1240M+03111MA1999999099091MD1999999+0061MW1131REMSYN017 333 10311 58006;
0096825710999991997020418004-05500-045267FM-12+017499999V0202301N00211045001CN0100001N1+03121+02301100871ADDAA106000091AG10000GF105991041021008001011001MA1999999098911MD1999999-0041REMSYN011 333 59004;
0131825710999991997020500004-05500-045267FM-12+017499999V0209991C00001220001CN0100001N1+02601+02391101051ADDAA106000091AG10000GA1001+999999999GF100991001001999999001001KA1240M+03211MA1999999099081MD1999999-0011REMSYN017 333 10321 59001;
0115825710999991997020512004-05500-045267FM-12+017499999V0202301N00101004201CN0100001N1+02461+02341101221ADDAA106000091AG10000GF108991081051004501999999KA1240N+01941MA1999999099241MD1999999-0031REMSYN017 333 20194 59003;
0096825710999991997020518004-05500-045267FM-12+017499999V0201401N00311220001CN0100001N1+03101+02261100781ADDAA106000091AG10000GF104991041021008001001001MA1999999098831MD1999999-0081REMSYN011 333 59008;
0121825710999991997020612004-05500-045267FM-12+017499999V0203201N00101004201CN0100001N1+02421+02391101191ADDAA199276091AG10000GF108991081051004501999999KA1240N+01911MA1999999099211MD1999999-0031REMSYN023 333 20191 59003 62765;
0096825710999991997020618004-05500-045267FM-12+017499999V0201401N00311045001CN0100001N1+03161+02261100871ADDAA106000091AG10000GF105991031021008001011001MA1999999098911MD1999999+0081REMSYN011 333 58008;
0131825710999991997020700004-05500-045267FM-12+017499999V0209991C00001220001CN0100001N1+02581+02311101091ADDAA106000091AG10000GA1001+999999999GF100991001001999999001001KA1240M+03211MA1999999099111MD1999999+0081REMSYN017 333 10321 58008;
0135825710999991997020712004-05500-045267FM-12+017499999V0202301N00101007501CN0100001N1+02181+02101101441ADDAA124026091AG10007AY161061GF108991081051008001999999KA1240N+01881MA1999999099451MD1999999+0241MW1021REMSYN023 333 20188 58024 60264;
0096825710999991997020718004-05500-045267FM-12+017499999V0203201N00101007501CN0100001N1+02781+02421101171ADDAA106000091AG10000GF108991081051008001999999MA1999999099191MD1999999+0281REMSYN011 333 58028;
0108825710999991997020818004-05500-045267FM-12+017499999V0202301N00101045001CN0100001N1+02741+02431101071ADDAA106001091AG10000GF106991031021008001031011MA1999999099091MD1999999-0101MW1951REMSYN017 333 59010 69991;
0121825710999991997020912004-05500-045267FM-12+017499999V0202701N00101220001CN0100001N1+02471+02251101331ADDAA124001091AG10000GF103991021021008001001011KA1240N+01961MA1999999099341MD1999999-0091REMSYN023 333 20196 59009 69994;
0145825710999991997021000004-05500-045267FM-12+017499999V0209991C00001220001CN0100001N1+02461+02171101101ADDAA106000091AG10020AY191061GA1001+999999999GF100991001001999999001001KA1240M+03161MA1999999099121MD1999999+0021MW1131REMSYN017 333 10316 58002;
0096825710999991997021018004-05500-045267FM-12+017499999V0200901N00311007501CN0100001N1+02721+02281101261ADDAA106000091AG10000GF107991051051008001031001MA1999999099271MD1999999+0191REMSYN011 333 58019;
0110825710999991997021118004-05500-045267FM-12+017499999V0203601N00311045001CN0100001N1+02821+02421101031ADDAA106000091AG10020AY191061GF106991031031008001041011MA1999999099051MD1999999-0221MW1021REMSYN011 333 59022;
0121825710999991997021200004-05500-045267FM-12+017499999V0209991C000019999999N0100001N1+02381+02211101231ADDAA106000091AG10000GF108991999999008001999999KA1240M+03091MA1999999099251MD1999999-0021MW1131REMSYN017 333 10309 59002;
0115825710999991997021212004-05500-045267FM-12+017499999V0202701N00101045001CN0100001N1+02561+02361101311ADDAA106000091AG10000GF107991031051008001031011KA1240N+02001MA1999999099321MD1999999+0041REMSYN017 333 20200 58004;
0096825710999991997021218004-05500-045267FM-12+017499999V0200501N00511045001CN0100001N1+02941+02361101101ADDAA106000091AG10000GF106991031031008001031011MA1999999099081MD1999999+0031REMSYN011 333 58003;
0129825710999991997021300004-05500-045267FM-12+017499999V0209991C00001007501CN0100001N1+02461+02341101191ADDAA106000091AG10020AY191061GF108991081051008001999999KA1240M+03041MA1999999099211MD1999999-0041MW1021REMSYN017 333 10304 59004;
0154825710999991997021312004-05500-045267FM-12+017499999V0200501N00101045001CN0100001N1+02421+02231101471ADDAA124000391AG10007AY161061GF106991031051008001031011KA1240N+02051MA1999999099471MD1999999+0161MW1021REMSYN023 333 20205 58016 69934;EQDQ01+999990APOSP 
0096825710999991997021318004-05500-045267FM-12+017499999V0201401N00101007501CN0100001N1+02961+02281101101ADDAA106000091AG10000GF105991051021008001001011MA1999999099101MD1999999+0021REMSYN011 333 58002;
0096825710999991997021718004-05500-045267FM-12+017499999V0200501N00211045001CN0100001N1+03121+02281101011ADDAA106000091AG10000GF105991041021008001011001MA1999999099041MD1999999+0021REMSYN011 333 58002;
0115825710999991997021800004-05500-045267FM-12+017499999V0209991C00001220001CN0100001N1+02541+02311101081ADDAA106000091AG10000GF101991011001999999011001KA1240M+03171MA1999999099111MD1999999+0021REMSYN017 333 10317 58002;
0115825710999991997021812004-05500-045267FM-12+017499999V0203601N00101220001CN0100001N1+02641+02391101321ADDAA106000091AG10000GF103991031021004501001001KA1240N+02011MA1999999099351MD1999999-0031REMSYN017 333 20201 59003;
0096825710999991997021818004-05500-045267FM-12+017499999V0201401N00311007501CN0100001N1+03121+02221100981ADDAA106000091AG10000GF105991051021008001001001MA1999999099021MD1999999-0021REMSYN011 333 59002;
0115825710999991997021912004-05500-045267FM-12+017499999V0200501N00101004201CN0100001N1+02481+02251101381ADDAA106000091AG10000GF107991071021004501001001KA1240N+01951MA1999999099401MD1999999+0051REMSYN017 333 20195 58005;
0096825710999991997021918004-05500-045267FM-12+017499999V0201401N00311220001CN0100001N1+03101+02261100951ADDAA106000091AG10000GF104991031021008001011001MA1999999098991MD1999999-0031REMSYN011 333 59003;
0135825710999991997022000004-05500-045267FM-12+017499999V0209991C00001220001CN0100001N1+02531+02341101071ADDAA106002091AG10007AY161061GF102991021001017501041001KA1240M+03191MA1999999099091MD1999999-0051MW1131REMSYN023 333 10319 59005 60021;
0135825710999991997022012004-05500-045267FM-12+017499999V0202701N00101009001CN0100001N1+02461+02301101401ADDAA124005091AG10007AY161061GF107991071081004501001001KA1240N+02011MA1999999099421MD1999999+0021MW1021REMSYN023 333 20201 58002 60054;
0096825710999991997022018004-05500-045267FM-12+017499999V0200501N00311045001CN0100001N1+02981+02281101021ADDAA106000091AG10000GF106991041021008001011001MA1999999099051MD1999999+0061REMSYN011 333 58006;
0115825710999991997022112004-05500-045267FM-12+017499999V0203201N00101220001CN0100001N1+02541+02311101361ADDAA106000091AG10000GF104991021011004501011011KA1240N+02031MA1999999099381MD1999999-0041REMSYN017 333 20203 59004;
0096825710999991997022118004-05500-045267FM-12+017499999V0200501N00411045001CN0100001N1+03161+02291101021ADDAA106000091AG10000GF106991031021008001011011MA1999999099061MD1999999+0011REMSYN011 333 58001;
0143825710999991997022212004-05500-045267FM-12+017499999V0200501N002110042019N0100001N1+02221+99999101551ADDAA124030091AG10020AY191061AY261061GF108991081051004501999999KA1240N+02001MA1999999099561MD1999999+0181MW1911REMSYN023 333 20200 58018 60304;
0096825710999991997022218004-05500-045267FM-12+017499999V0201801N00101007501CN0100001N1+02911+02391101181ADDAA106000091AG10000GF106991051021008001011001MA1999999099211MD1999999+0151REMSYN011 333 58015;
0135825710999991997022300004-05500-045267FM-12+017499999V0209991C00001220001CN0100001N1+02501+02401101261ADDAA106001091AG10007AY161061GF102991001001999999001011KA1240M+02971MA1999999099271MD1999999+0011MW1021REMSYN023 333 10297 58001 60011;
0121825710999991997022312004-05500-045267FM-12+017499999V0202301N00101009001CN0100001N1+02541+02381101561ADDAA124001091AG10000GF106991061081004501001001KA1240N+01971MA1999999099571MD1999999+0011REMSYN023 333 20197 58001 60014;
0116825710999991997022318004-05500-045267FM-12+017499999V0201401N00211012001CN0100001N1+02871+02351101181ADDAA106000591AG10007AY161061GF107991071081008001001001MA1999999099211MD1999999+0001MW1021REMSYN017 333 58000 69951;
0121825710999991997022412004-05500-045267FM-12+017499999V0202701N00101220001CN0100001N1+02501+02381101371ADDAA124000591AG10000GF102991021011004501001001KA1240N+02031MA1999999099391MD1999999-0181REMSYN023 333 20203 59018 69954;
0096825710999991997022418004-05500-045267FM-12+017499999V0200501N00211220001CN0100001N1+03141+02271100981ADDAA106000091AG10000GF103991031021008001001001MA1999999099031MD1999999-0181REMSYN011 333 59018;
0115825710999991997022512004-05500-045267FM-12+017499999V0200501N00101004201CN0100001N1+02601+02421101271ADDAA106000091AG10000GF107991071051004501001001KA1240N+01981MA1999999099291MD1999999-0101REMSYN017 333 20198 59010;
0096825710999991997022518004-05500-045267FM-12+017499999V0202301N00211220001CN0100001N1+03081+02421100881ADDAA106000091AG10000GF104991031021008001011001MA1999999098921MD1999999-0111REMSYN011 333 59011;
0115825710999991997022600004-05500-045267FM-12+017499999V0209991C00001220001CN0100001N1+02501+02361101021ADDAA106000091AG10000GF103991031001017501031001KA1240M+03171MA1999999099051MD1999999+0031REMSYN017 333 10317 58003;
0115825710999991997022612004-05500-045267FM-12+017499999V0200501N00311004201CN0100001N1+02561+02351101291ADDAA106000091AG10000GF106991061021004501001001KA1240N+01981MA1999999099321MD1999999+0021REMSYN017 333 20198 58002;
0096825710999991997022618004-05500-045267FM-12+017499999V0203201N00101220001CN0100001N1+03081+02241101021ADDAA106000091AG10000GF104991041021008001001001MA1999999099061MD1999999+0141REMSYN011 333 58014;
0131825710999991997022700004-05500-045267FM-12+017499999V0209991C00001220001CN0100001N1+02531+02331101221ADDAA106000091AG10000GA1001+999999999GF100991001001999999001001KA1240M+03151MA1999999099241MD1999999+0191REMSYN017 333 10315 58019;
0115825710999991997022712004-05500-045267FM-12+017499999V0200501N00311007501CN0100001N1+02601+02351101411ADDAA106000091AG10000GF106991051051008001001011KA1240N+02081MA1999999099431MD1999999+0121REMSYN017 333 20208 58012;
0096825710999991997022718004-05500-045267FM-12+017499999V0203201N00311220001CN0100001N1+03081+02211101081ADDAA106000091AG10000GF106991041031008001001011MA1999999099121MD1999999+0061REMSYN011 333 58006;
0131825710999991997022800004-05500-045267FM-12+017499999V0209991C00001220001CN0100001N1+02631+02411101091ADDAA106000091AG10000GA1001+999999999GF100991001001999999001001KA1240M+03151MA1999999099121MD1999999-0121REMSYN017 333 10315 59012;
0115825710999991997022812004-05500-045267FM-12+017499999V0203601N00311007501CN0100001N1+02631+02311101291ADDAA106000091AG10000GF106991061051008001001001KA1240N+02111MA1999999099321MD1999999-0111REMSYN017 333 20211 59011;
0096825710999991997022818004-05500-045267FM-12+017499999V0203201N00101220001CN0100001N1+03141+02181100901ADDAA106000091AG10000GF104991041021008001001001MA1999999098951MD1999999-0171REMSYN011 333 59017;
0131825710999991997030100004-05500-045267FM-12+017499999V0209991C00001220001CN0100001N1+02661+02431101041ADDAA106000091AG10000GA1001+999999999GF100991001001999999001001KA1240M+03201MA1999999099081MD1999999-0041REMSYN017 333 10320 59004;
0115825710999991997030112004-05500-045267FM-12+017499999V0203201N00101007501CN0100001N1+02581+02351101241ADDAA106000091AG10000GF108991081051008001999999KA1240N+02141MA1999999099271MD1999999-0051REMSYN017 333 20214 59005;
0096825710999991997030118004-05500-045267FM-12+017499999V0200501N00311045001CN0100001N1+02981+02491100711ADDAA106000091AG10000GF106991031011008001031021MA1999999098761MD1999999-0191REMSYN011 333 59019;
0143825710999991997030200004-05500-045267FM-12+017499999V0209991C00001007501CN0100001N1+02451+02351100961ADDAA106001091AG10018AY191061AY261061GF108991081051008001999999KA1240M+03111MA1999999098991MD1999999-0091MW1021REMSYN023 333 10311 59009 69981;
0116825710999991997030212004-05500-045267FM-12+017499999V0203201N001019999999N0100001N1+02361+02331101221ADDAA124009091AG10006AY161061GF108991999999008001999999MA1999999099231MD1999999-0041MW1911REMSYN017 333 59004 60094;
0116825710999991997030218004-05500-045267FM-12+017499999V0201401N00311007501CN0100001N1+02771+02231100961ADDAA106023091AG10006AY161061GF108991081051008001999999MA1999999098961MD1999999+0201MW1921REMSYN017 333 58020 60231;
0135825710999991997030300004-05500-045267FM-12+017499999V0209991C00001004201CN0100001N1+02341+02321101061ADDAA106003091AG10006AY161061GF108991081051004501999999KA1240M+02751MA1999999099071MD1999999+0081MW1021REMSYN023 333 10275 58008 60031;
0121825710999991997030312004-05500-045267FM-12+017499999V0202701N00101004201CN0100001N1+02461+02361101371ADDAA124026091AG10000GF108991081051004501999999KA1240N+02101MA1999999099381MD1999999+0151REMSYN023 333 20210 58015 60264;
0096825710999991997030318004-05500-045267FM-12+017499999V0203601N00311220001CN0100001N1+03041+02281100941ADDAA106000091AG10000GF104991041021008001001001MA1999999098981MD1999999+0021REMSYN011 333 58002;
0131825710999991997030400004-05500-045267FM-12+017499999V0209991C00001220001CN0100001N1+02541+02421101101ADDAA106000091AG10000GA1001+999999999GF100991001001999999001001KA1240M+03081MA1999999099121MD1999999+0051REMSYN017 333 10308 58005;
0143825710999991997030412004-05500-045267FM-12+017499999V0202301N00101004201CN0100001N1+02341+02221101481ADDAA124045091AG10018AY191061AY261061GF107991071021004501001001KA1240N+01981MA1999999099491MD1999999+0111MW1021REMSYN023 333 20198 58011 60454;
0115825710999991997030500004-05500-045267FM-12+017499999V0203601N00211220001CN0100001N1+02491+02321101291ADDAA106000091AG10000GF102991021011008001001001KA1240M+03091MA1999999099301MD1999999+0181REMSYN017 333 10309 58018;
0135825710999991997030512004-05500-045267FM-12+017499999V0201401N00511220001CN0100001N1+02431+02131101351ADDAA124000191AG10006AY161061GF104991021021004501031001KA1240N+01991MA1999999099361MD1999999-0131MW1031REMSYN023 333 20199 59013 69924;
0096825710999991997030518004-05500-045267FM-12+017499999V0201401N00311045001CN0100001N1+03021+02131101011ADDAA106000091AG10000GF106991031021008001011011MA1999999099041MD1999999-0031REMSYN011 333 59003;
0115825710999991997030612004-05500-045267FM-12+017499999V0200501N00211004201CN0100001N1+02561+02381101311ADDAA106000091AG10000GF106991061021004501001001KA1240N+02011MA1999999099331MD1999999-0031REMSYN017 333 20201 59003;
0108825710999991997030618004-05500-045267FM-12+017499999V0200501N00211007501CN0040001N1+02561+02441100921ADDAA106007091AG10000GF107991061091008001011001MA1999999098941MD1999999-0101MW1951REMSYN017 333 59010 60071;
0143825710999991997030712004-05500-045267FM-12+017499999V0202701N00101045001CN0040001N1+02181+02151101381ADDAA124024091AG10018AY191061AY261061GF108991041071004501011999KA1240N+01961MA1999999099381MD1999999+0051MW1011REMSYN023 333 20196 58005 60244;
0096825710999991997030718004-05500-045267FM-12+017499999V0202301N00101045001CN0100001N1+03001+02391100981ADDAA106000091AG10000GF105991041021008001011001MA1999999099021MD1999999+0081REMSYN011 333 58008;
0115825710999991997030800004-05500-045267FM-12+017499999V0203201N00101220001CN0100001N1+02421+02421101131ADDAA106000091AG10000GF101991011001017501041001KA1240M+03151MA1999999099141MD1999999-0011REMSYN017 333 10315 59001;
0134825710999991997030812004-05500-045267FM-12+017499999V0203201N00101045001CN0100001N1+02571+02151101421ADDAA106000091AG10000GF105991021021004501041001KA1240N+02051MA1999999999999MD1999999+0061REMSYN017 333 20205 58006;EQDQ01 088443APOSP 
0115825710999991997030818004-05500-045267FM-12+017499999V0200501N00211220001CN0100001N1+03131+02361101021ADDAA106000091AG10000GF104991031021008001031001MA1999999099062MD1999999+0041REMSYN011 333 58004;EQDQ01+099063APOSP 
0116825710999991997030918004-05500-045267FM-12+017499999V0200501N00211220001CN0100001N1+02871+02421100921ADDAA106000591AG10006AY161061GF104991021021008001031001MA1999999098961MD1999999-0101MW1021REMSYN017 333 59010 69951;
0143825710999991997031012004-05500-045267FM-12+017499999V0202301N00101045001CN0040001N1+02281+02231101251ADDAA124004091AG10000AY121061AY221061GF108991041071004501021999KA1240N+02011MA1999999099261MD1999999-0121MW1611REMSYN023 333 20201 59012 60044;
0116825710999991997031018004-05500-045267FM-12+017499999V0202701N00101045001CN0100001N1+02701+02371100891ADDAA106004091AG10006AY161061GF106991041081008001011001MA1999999098921MD1999999-0041MW1021REMSYN017 333 59004 60041;
0135825710999991997031100004-05500-045267FM-12+017499999V0202701N00101012001CN0100001N1+02321+02271101041ADDAA106003091AG10006AY161061GF106991061081008001001001KA1240M+02871MA1999999099051MD1999999+0011MW1131REMSYN023 333 10287 58001 60031;
0135825710999991997031112004-05500-045267FM-12+017499999V0202701N00101004201CN0100001N1+02461+02361101291ADDAA124008091AG10006AY161061GF107991061021004501001011KA1240N+02111MA1999999099301MD1999999+0041MW1021REMSYN023 333 20211 58004 60084;
0096825710999991997031118004-05500-045267FM-12+017499999V0200501N00311220001CN0100001N1+03121+02361100861ADDAA106000091AG10000GF104991031021008001011001MA1999999098901MD1999999-0021REMSYN011 333 59002;
0143825710999991997031200004-05500-045267FM-12+017499999V0209991C00001220001CN0100001N1+02481+02361101041ADDAA106000591AG10018AY191061AY261061GF102991021001017501041001KA1240M+03171MA1999999099061MD1999999+0011MW1131REMSYN023 333 10317 58001 69941;
0121825710999991997031212004-05500-045267FM-12+017499999V0202301N00101004201CN0100001N1+02571+02421101361ADDAA124000591AG10000GF106991051021004501001011KA1240N+02101MA1999999099381MD1999999+0081REMSYN023 333 20210 58008 69944;
0116825710999991997031218004-05500-045267FM-12+017499999V0202301N00211045001CN0100001N1+02721+02391101121ADDAA106008091AG10006AY161061GF107991031021008001071001MA1999999099141MD1999999+0241MW1021REMSYN017 333 58024 60081;
0115825710999991997031300004-05500-045267FM-12+017499999V0202701N00101220001CN0100001N1+02501+02471101171ADDAA106000091AG10000GF102991021001017501011001KA1240M+02771MA1999999099191MD1999999+0131REMSYN017 333 10277 58013;
0143825710999991997031312004-05500-045267FM-12+017499999V0202301N00101004201CN0100001N1+02581+02421101461ADDAA124010091AG10006AY161061AY221061GF107991051051004501031001KA1240N+02141MA1999999099481MD1999999+0101MW1011REMSYN023 333 20214 58010 60104;
0096825710999991997031318004-05500-045267FM-12+017499999V0201401N00311012001CN0100001N1+02961+02401101131ADDAA106000091AG10000GF106991061081008001001001MA1999999099161MD1999999+0021REMSYN011 333 58002;
0115825710999991997031400004-05500-045267FM-12+017499999V0209991C00001220001CN0100001N1+02401+02281101201ADDAA106000091AG10000GF102991021001017501041001KA1240M+03081MA1999999099221MD1999999+0031REMSYN017 333 10308 58003;
0115825710999991997031412004-05500-045267FM-12+017499999V0202301N00311004201CN0100001N1+02501+02401101491ADDAA106000091AG10000GF108991081051004501999999KA1240N+02081MA1999999099501MD1999999+0021REMSYN017 333 20208 58002;
0124825710999991997031418004-05500-045267FM-12+017499999V0202301N00101045001CN0100001N1+02711+02411101171ADDAA106001091AG10006AY161061AY221061GF106991031031008001031001MA1999999099191MD1999999+0031MW1021REMSYN017 333 58003 69991;
0115825710999991997031612004-05500-045267FM-12+017499999V0203201N00101220001CN0100001N1+02501+02341101251ADDAA106000091AG10000GF104991031021004501001011KA1240N+02111MA1999999099271MD1999999-0101REMSYN017 333 20211 59010;
0116825710999991997031618004-05500-045267FM-12+017499999V0200501N00211220001CN0100001N1+03001+02371100811ADDAA106001091AG10006AY161061GF104991041021008001001001MA1999999098851MD1999999-0111MW1021REMSYN017 333 59011 60011;
0143825710999991997031712004-05500-045267FM-12+017499999V0203201N00101220001CN0100001N1+02521+02361101241ADDAA124038091AG10006AY161061AY221061GF105991041021004501001011KA1240N+02111MA1999999099251MD1999999-0021MW1011REMSYN023 333 20211 59002 60384;
0096825710999991997031718004-05500-045267FM-12+017499999V0200901N00211004201CN0100001N1+03051+02431100751ADDAA106000091AG10000GF106991051051004501011001MA1999999098801MD1999999-0051REMSYN011 333 59005;
0135825710999991997031800004-05500-045267FM-12+017499999V0203201N00311004201CN0040001N1+02311+02271101181ADDAA106025091AG10006AY161061GF108991081001004501021011KA1240M+03101MA1999999099191MD1999999+0011MW1631REMSYN023 333 10310 58001 60251;
0135825710999991997031812004-05500-045267FM-12+017499999V0202701N00101007501CN0100001N1+02421+02351101281ADDAA124043091AG10006AY161061GF108991081051008001999999KA1240N+02091MA1999999099281MD1999999+0031MW1021REMSYN023 333 20209 58003 60434;
0091825710999991997031818004-05500-045267FM-12+017499999V0200901N00511007501CN0100001N1+02441+02341100861ADDAG10000GF108991081051008001999999MA1999999098881MD1999999+0081MW1601REMSYN011 333 58008;
0143825710999991997031900004-05500-045267FM-12+017499999V0200901N00311004201CN0040001N1+02261+02231101131ADDAA106014091AG10018AY191061AY261061GF108991081051004501999999KA1240M+03081MA1999999099141MD1999999-0051MW1911REMSYN023 333 10308 59005 60141;
0143825710999991997031912004-05500-045267FM-12+017499999V0202701N00101007501CN0100001N1+02451+02351101281ADDAA124020091AG10006AY161061AY221061GF108991081051008001999999KA1240N+02061MA1999999099291MD1999999+0011MW1021REMSYN023 333 20206 58001 60204;
0102825710999991997031918004-05500-045267FM-12+017499999V0200901N00511007501CN0100001N1+02501+02401101031ADDAA106000091AG10000GF108991081051008001999999MA1999999099041MD1999999+0161MW1171REMSYN011 333 58016;
0148825710999991997032000004-05500-045267FM-12+017499999V0202301N000510075019N0100001N1+02411+02351101091ADDAA106999999AG10018AY191061GF108991081051008001999999KA1240M+03101MA1999999099111MD1999999-0031MW1921REMSYN017 333 10310 59003;EQDQ01  00002PRCP06
0135825710999991997032012004-05500-045267FM-12+017499999V0202301N00101007501CN0100001N1+02421+02331101361ADDAA124000191AG10006AY161061GF108991081051008001999999KA1240N+02021MA1999999099371MD1999999+0081MW1021REMSYN023 333 20202 58008 69914;
0116825710999991997032018004-05500-045267FM-12+017499999V0200501N00511045001CN0100001N1+02701+02451100831ADDAA106000191AG10006AY161061GF106991041051008001031011MA1999999098861MD1999999-0181MW1021REMSYN017 333 59018 69911;
0115825710999991997032100004-05500-045267FM-12+017499999V0200501N00101015001CN0100001N1+02401+02371101061ADDAA106000091AG10000GF107991071001017501031001KA1240M+03001MA1999999099071MD1999999-0041REMSYN017 333 10300 59004;
0121825710999991997032112004-05500-045267FM-12+017499999V0203201N00101007501CN0100001N1+02561+02361101321ADDAA124000191AG10000GF108991081051008001999999KA1240N+02151MA1999999099341MD1999999-0031REMSYN023 333 20215 59003 69914;
0116825710999991997032118004-05500-045267FM-12+017499999V0203601N00311007501CN0100001N1+02621+02411100971ADDAA106013091AG10006AY161061GF108991081051008001999999MA1999999098991MD1999999+0131MW1601REMSYN017 333 58013 60131;
0135825710999991997032212004-05500-045267FM-12+017499999V0202701N00101007501CN0100001N1+02381+02311101391ADDAA124024091AG10006AY161061GF108991081051008001999999KA1240N+02061MA1999999099391MD1999999+0051MW1021REMSYN023 333 20206 58005 60244;
0096825710999991997032218004-05500-045267FM-12+017499999V0203201N00311220001CN0100001N1+02941+02331100931ADDAA106000091AG10000GF105991041051008001001011MA1999999098971MD1999999-0021REMSYN011 333 59002;
0121825710999991997032300004-05500-045267FM-12+017499999V0203201N00101007501CN0100001N1+02451+02281101151ADDAA106000091AG10000GF108991081051008001999999KA1240M+03031MA1999999099161MD1999999-0131MW1131REMSYN017 333 10303 59013;
0135825710999991997032312004-05500-045267FM-12+017499999V0202701N00101007501CN0100001N1+02341+02291101511ADDAA124007091AG10006AY161061GF108991081051008001999999KA1240N+02031MA1999999099521MD1999999+0131MW1601REMSYN023 333 20203 58013 60074;
0108825710999991997032318004-05500-045267FM-12+017499999V0200501N00311007501CN0100001N1+02521+02381101181ADDAA106000191AG10000GF108991081051008001999999MA1999999099191MD1999999+0221MW1601REMSYN017 333 58022 69911;
0154825710999991997032400004-05500-045267FM-12+017499999V0200501N00101015001CN0100001N1+02351+02291101311ADDAA106000591AG10006AY161061GF107991999001017501031001KA1240M+02781MA1999999099321MD1999999+0161MW1021REMSYN023 333 10278 58016 69961;EQDQ01+000062SCOTLC
0135825710999991997032412004-05500-045267FM-12+017499999V0203201N00101007501CN0100001N1+02421+02371101491ADDAA124001091AG10006AY161061GF108991081051008001999999KA1240N+02071MA1999999099501MD1999999+0001MW1021REMSYN023 333 20207 58000 69984;
0124825710999991997032418004-05500-045267FM-12+017499999V0203201N00721220001CN0100001N1+02921+02411101001ADDAA106000591AG10006AY161061AY221061GF106991041051008001001011MA1999999099031MD1999999-0151MW1031REMSYN017 333 59015 69941;
0134825710999991997032500004-05500-045267FM-12+017499999V0209991C000019999999N0100001N1+02501+02321101211ADDAA106000091AG10000GF108991081051999999999999KA1240M+03111MA1999999099231MD1999999+0001REMSYN017 333 10311 59000;EQDQ01+000992SCOLCB
0121825710999991997032512004-05500-045267FM-12+017499999V0203201N00101045001CN0100001N1+02521+02291101391ADDAA124000591AG10000GF106991041051008001041001KA1240N+02041MA1999999099411MD1999999-0091REMSYN023 333 20204 59009 69944;
0096825710999991997032518004-05500-045267FM-12+017499999V0202701N00101045001CN0100001N1+03011+02341100951ADDAA106000091AG10000GF106991031021008001031011MA1999999098991MD1999999-0041REMSYN011 333 59004;
0135825710999991997032612004-05500-045267FM-12+017499999V0200501N00311007501CN0100001N1+02461+02361101331ADDAA124003091AG10006AY161061GF108991081051008001999999KA1240N+02121MA1999999099341MD1999999-0071MW1021REMSYN023 333 20212 59007 60034;
0116825710999991997032618004-05500-045267FM-12+017499999V0202301N00311007501CN0100001N1+02401+02371100871ADDAA106010091AG10006AY161061GF108991081051008001999999MA1999999098881MD1999999-0111MW1601REMSYN017 333 59011 60101;
0135825710999991997032700004-05500-045267FM-12+017499999V0209991C00001004201CN0100001N1+02341+02321101111ADDAA106004091AG10006AY161061GF108991081051004501999999KA1240M+02791MA1999999099131MD1999999-0041MW1601REMSYN023 333 10279 59004 60041;
0135825710999991997032712004-05500-045267FM-12+017499999V0203201N00101007501CN0100001N1+02381+02311101271ADDAA124026091AG10006AY161061GF108991081051008001999999KA1240N+02051MA1999999099281MD1999999-0061MW1021REMSYN023 333 20205 59006 60264;
0135825710999991997032812004-05500-045267FM-12+017499999V0203201N00101007501CN0100001N1+02251+02211101551ADDAA124027091AG10006AY161061GF108991081051008001999999KA1240N+01961MA1999999099541MD1999999+0261MW1601REMSYN023 333 20196 58026 60274;
0116825710999991997032818004-05500-045267FM-12+017499999V0202301N00101045001CN0100001N1+02631+02291101131ADDAA106000191AG10006AY161061GF106991031051008001031011MA1999999099141MD1999999+0201MW1021REMSYN017 333 58020 69911;
0115825710999991997032900004-05500-045267FM-12+017499999V0209991C00001015001CN0100001N1+02421+02351101301ADDAA106000091AG10000GF105991051001017501031001KA1240M+02811MA1999999099311MD1999999+0071REMSYN017 333 10281 58007;
0108825710999991997032918004-05500-045267FM-12+017499999V0201801N00311007501CN0100001N1+02131+02091101221ADDAA106028091AG10000GF108991081051008001999999MA1999999099221MD1999999+0081MW1651REMSYN017 333 58008 60281;
0135825710999991997033012004-05500-045267FM-12+017499999V0203201N00101007501CN0100001N1+02261+02241101591ADDAA124040091AG10006AY161061GF108991081051008001999999KA1240N+01961MA1999999099581MD1999999+0201MW1601REMSYN023 333 20196 58020 60404;
0116825710999991997033018004-05500-045267FM-12+017499999V0200501N00101007501CN0100001N1+02751+02361101201ADDAA106000191AG10006AY161061GF107991071051008001001001MA1999999099211MD1999999-0011MW1021REMSYN017 333 59001 69911;
0115825710999991997033100004-05500-045267FM-12+017499999V0209991C00001220001CN0100001N1+02361+02311101401ADDAA106000091AG10000GF102991021001017501041001KA1240M+02791MA1999999099401MD1999999+0111REMSYN017 333 10279 58011;
0121825710999991997033112004-05500-045267FM-12+017499999V0201801N00101007501CN0100001N1+02331+02271101621ADDAA124000191AG10000GF108991081051008001999999KA1240N+01981MA1999999099621MD1999999+0041REMSYN023 333 20198 58004 69914;
0096825710999991997033118004-05500-045267FM-12+017499999V0203601N00101220001CN0100001N1+03021+02341101061ADDAA106000091AG10000GF102991021021008001001001MA1999999099091MD1999999-0121REMSYN011 333 59012;
0131825710999991997040100004-05500-045267FM-12+017499999V0202701N00101220001CN0100001N1+02551+02381101341ADDAA106000091AG10000GA1001+999999999GF100991001001999999001001KA1240M+03091MA1999999099351MD1999999-0051REMSYN017 333 10309 59005;
0135825710999991997040112004-05500-045267FM-12+017499999V0200501N00101007501CN0100001N1+02601+02391101561ADDAA124000191AG10006AY161061GF107991051051008001031001KA1240N+02021MA1999999099581MD1999999-0041MW1021REMSYN023 333 20202 59004 69914;
0124825710999991997040118004-05500-045267FM-12+017499999V0202701N00101045001CN0100001N1+02661+02291101171ADDAA106008091AG10017AY191061AY261061GF106991031051008001031011MA1999999099191MD1999999+0101MW1021REMSYN017 333 58010 60081;
0137825710999991997040200004-05500-045267FM-12+017499999V0209991C00001220001CN0100001N1+02501+02431101361ADDAA106000091AG10000GA1001+999999999GF100991001001999999001001KA1240M+02891MA1999999099381MD1999999+0031MW1131REMSYN017 333 10289 58003;
0121825710999991997040212004-05500-045267FM-12+017499999V0202301N00101004201CN0100001N1+02511+02291101671ADDAA124008091AG10000GF107991051051004501011001KA1240N+02081MA1999999099681MD1999999+0101REMSYN023 333 20208 58010 60084;
0116825710999991997040218004-05500-045267FM-12+017499999V0202301N00211007501CN0100001N1+02961+02451101191ADDAA106001091AG10006AY161061GF106991051051008001011001MA1999999099221MD1999999+0031MW1171REMSYN017 333 58003 69971;
0135825710999991997040300004-05500-045267FM-12+017499999V0203201N00101012001CN0100001N1+02491+02431101501ADDAA106000191AG10006AY161061GF106991061081008001001001KA1240M+03011MA1999999099511MD1999999+0131MW1021REMSYN023 333 10301 58013 69921;
0135825710999991997040312004-05500-045267FM-12+017499999V0202301N001019999999N0100001N1+02481+02291101601ADDAA124002091AG10006AY161061GF105991999999004501999999KA1240N+02061MA1999999099611MD1999999-0071MW1031REMSYN023 333 20206 59007 60024;
0096825710999991997040318004-05500-045267FM-12+017499999V0200501N00211045001CN0100001N1+03041+02231101081ADDAA106000091AG10000GF105991041021008001011001MA1999999099121MD1999999-0101REMSYN011 333 59010;
0115825710999991997040400004-05500-045267FM-12+017499999V0203201N00101220001CN0100001N1+02541+02331101411ADDAA106000091AG10000GF102991021001017501041001KA1240M+03161MA1999999099431MD1999999-0081REMSYN017 333 10316 59008;
0115825710999991997040412004-05500-045267FM-12+017499999V0203201N00101220001CN0100001N1+02591+02331101481ADDAA106000091AG10000GF104991031001017501051011KA1240N+02031MA1999999099501MD1999999-0111REMSYN017 333 20203 59011;
0108825710999991997040418004-05500-045267FM-12+017499999V0202301N00211220001CN0100001N1+02781+02301101071ADDAA106003091AG10000GF104991031031004501041001MA1999999099101MD1999999-0021MW1801REMSYN017 333 59002 60031;
0135825710999991997040512004-05500-045267FM-12+017499999V0200501N00101009001CN0100001N1+02341+02291101481ADDAA124004091AG10006AY161061GF106991061081004501001001KA1240N+02071MA1999999099491MD1999999-0011MW1601REMSYN023 333 20207 59001 60044;
0096825710999991997040518004-05500-045267FM-12+017499999V0203201N00101220001CN0100001N1+02981+02371101041ADDAA106000091AG10000GF104991021021008001011001MA1999999099081MD1999999-0021REMSYN011 333 59002;
0121825710999991997040600004-05500-045267FM-12+017499999V0202301N00211220001CN0100001N1+02461+02391101151ADDAA106000091AG10000GF101991011001017501041001KA1240M+03101MA1999999099161MD1999999-0221MW1131REMSYN017 333 10310 59022;
0115825710999991997040612004-05500-045267FM-12+017499999V0202701N00101004201CN0100001N1+02421+02391101521ADDAA106000091AG10000GF108991081051004501999999KA1240N+02021MA1999999099531MD1999999+0041REMSYN017 333 20202 58004;
0096825710999991997040618004-05500-045267FM-12+017499999V0202301N00211220001CN0100001N1+03191+02331100971ADDAA106000091AG10000GF104991021021008001011001MA1999999099021MD1999999-0061REMSYN011 333 59006;
0131825710999991997040700004-05500-045267FM-12+017499999V0209991C00001220001CN0100001N1+02561+02351101231ADDAA106000091AG10000GA1001+999999999GF100991001001999999001001KA1240M+03241MA1999999099251MD1999999+0091REMSYN017 333 10324 58009;
0134825710999991997040712004-05500-045267FM-12+017499999V0201801N00101004201CN0100001N1+02391+02351101421ADDAA106000091AG10000GF108991999021004501001001KA1240N+01991MA1999999099441MD1999999-0091REMSYN017 333 20199 59009;EQDQ01+000072SCOTLC
0096825710999991997040718004-05500-045267FM-12+017499999V0200501N00211220001CN0100001N1+03111+02391100951ADDAA106000091AG10000GF104991031021008001011001MA1999999098991MD1999999-0031REMSYN011 333 59003;
0121825710999991997040800004-05500-045267FM-12+017499999V0202301N00101220001CN0100001N1+02651+02391101191ADDAA106000091AG10000GF101991011031004501001001KA1240M+03231MA1999999099211MD1999999-0041MW1131REMSYN017 333 10323 59004;
0115825710999991997040812004-05500-045267FM-12+017499999V0200901N00311004201CN0100001N1+02691+02331101271ADDAA106000091AG10000GF106991051021004501001011KA1240N+02001MA1999999099301MD1999999-0141REMSYN017 333 20200 59014;
0096825710999991997040818004-05500-045267FM-12+017499999V0201401N00211220001CN0100001N1+03081+02271100871ADDAA106000091AG10000GF104991031021008001001011MA1999999098911MD1999999-0081REMSYN011 333 59008;
0135825710999991997040912004-05500-045267FM-12+017499999V0200901N00211004201CN0100001N1+02441+02341101411ADDAA124004091AG10006AY161061GF108991081051004501999999KA1240N+02041MA1999999099431MD1999999+0131MW1021REMSYN023 333 20204 58013 60044;
0096825710999991997040918004-05500-045267FM-12+017499999V0201401N00311045001CN0100001N1+02981+02201101021ADDAA106000091AG10000GF105991031021008001011011MA1999999099061MD1999999+0151REMSYN011 333 58015;
0121825710999991997041000004-05500-045267FM-12+017499999V0209991C00001220001CN0100001N1+02501+02271101201ADDAA106000091AG10000GF101991011001017501041001KA1240M+03041MA1999999099221MD1999999+0121MW1131REMSYN017 333 10304 58012;
0115825710999991997041012004-05500-045267FM-12+017499999V0203201N00101004201CN0100001N1+02641+02391101451ADDAA106000091AG10000GF107991061051004501011001KA1240N+02111MA1999999099471MD1999999+0041REMSYN017 333 20211 58004;
0096825710999991997041018004-05500-045267FM-12+017499999V0201801N00311045001CN0100001N1+03021+02341101091ADDAA106000091AG10000GF106991031021008001041001MA1999999099131MD1999999+0071REMSYN011 333 58007;
0115825710999991997041100004-05500-045267FM-12+017499999V0201401N00311004201CN0100001N1+02541+02231101341ADDAA106000091AG10000GF106991061021004501001001KA1240M+03171MA1999999099371MD1999999+0151REMSYN017 333 10317 58015;
0096825710999991997041118004-05500-045267FM-12+017499999V0201401N00311220001CN0100001N1+03081+02291101071ADDAA106000091AG10000GF104991041021008001001001MA1999999099111MD1999999-0021REMSYN011 333 59002;
0096825710999991997041218004-05500-045267FM-12+017499999V0201401N00211012001CN0100001N1+02961+02331100901ADDAA106000091AG10000GF106991051081008001011001MA1999999098941MD1999999-0171REMSYN011 333 59017;
0115825710999991997041312004-05500-045267FM-12+017499999V0203201N00101004201CN0100001N1+02441+02351101321ADDAA106000091AG10000GF108991081051004501999999KA1240N+02071MA1999999099341MD1999999-0031REMSYN017 333 20207 59003;
0115825710999991997041412004-05500-045267FM-12+017499999V0203201N00101004201CN0100001N1+02501+02311101511ADDAA106000091AG10000GF107991071051004501001001KA1240N+02121MA1999999099521MD1999999+0181REMSYN017 333 20212 58018;
0096825710999991997041418004-05500-045267FM-12+017499999V0203601N00211045001CN0100001N1+03061+02351101041ADDAA106000091AG10000GF105991031021008001011001MA1999999099081MD1999999+0081REMSYN011 333 58008;
0129825710999991997041500004-05500-045267FM-12+017499999V0200501N00211045001CN0100001N1+02381+02311101411ADDAA106000091AG10006AY161061GF106991021021017501071001KA1240M+03111MA1999999099421MD1999999+0071MW1131REMSYN017 333 10311 58007;
0115825710999991997041512004-05500-045267FM-12+017499999V0201401N00311004201CN0100001N1+02401+02261101491ADDAA106000091AG10000GF108991081051004501999999KA1240N+02111MA1999999099501MD1999999-0021REMSYN017 333 20211 59002;
0096825710999991997041518004-05500-045267FM-12+017499999V0200501N00311220001CN0100001N1+03021+02161101011ADDAA106000091AG10000GF104991021021008001001011MA1999999099051MD1999999-0031REMSYN011 333 59003;
0115825710999991997041600004-05500-045267FM-12+017499999V0201801N00211045001CN0100001N1+02441+02281101331ADDAA106000091AG10000GF105991021021004501031001KA1240M+03071MA1999999099341MD1999999-0081REMSYN017 333 10307 59008;
0135825710999991997041612004-05500-045267FM-12+017499999V0201401N00311004201CN0100001N1+02611+02351101531ADDAA124000191AG10006AY161061GF108991081051004501999999KA1240N+02051MA1999999099541MD1999999+0041MW1021REMSYN023 333 20205 58004 69924;
0096825710999991997041618004-05500-045267FM-12+017499999V0201801N00411045001CN0100001N1+03101+02291101061ADDAA106000091AG10000GF106991041021008001011001MA1999999099101MD1999999+0051REMSYN011 333 58005;
0135825710999991997041700004-05500-045267FM-12+017499999V0202301N00101012001CN0100001N1+02431+02301101351ADDAA106000591AG10006AY161061GF107991071081008001001001KA1240M+03191MA1999999099371MD1999999+0031MW1131REMSYN023 333 10319 58003 69961;
0121825710999991997041712004-05500-045267FM-12+017499999V0201401N00311220001CN0100001N1+02641+02181101371ADDAA124000591AG10000GF102991021001017501031001KA1240N+02001MA1999999099391MD1999999-0051REMSYN023 333 20200 59005 69964;
0096825710999991997041718004-05500-045267FM-12+017499999V0201801N00311220001CN0100001N1+03131+02171101001ADDAA106000091AG10000GF104991041021008001001001MA1999999099041MD1999999-0061REMSYN011 333 59006;
0131825710999991997041800004-05500-045267FM-12+017499999V0209991C00001220001CN0100001N1+02521+02311101201ADDAA106000091AG10000GA1001+999999999GF100991001001999999001001KA1240M+03031MA1999999099231MD1999999-0141REMSYN017 333 10303 59014;
0115825710999991997041812004-05500-045267FM-12+017499999V0201801N00311220001CN0100001N1+02801+02221101311ADDAA106000091AG10000GF102991021001017501031001KA1240N+02011MA1999999100341MD1999999-0051REMSYN017 333 20201 59005;
0115825710999991997041818004-05500-045267FM-12+017499999V0201401N00311220001CN0100001N1+03201+02211100961ADDAA106000091AG10000GF103991031021008001001001MA1999999099012MD1999999-0031REMSYN011 333 59003;EQDQ01+099013APOSP 
0131825710999991997041900004-05500-045267FM-12+017499999V0209991C00001220001CN0100001N1+02621+02311101121ADDAA106000091AG10000GA1001+999999999GF100991001001999999001001KA1240M+03271MA1999999099161MD1999999-0071REMSYN017 333 10327 59007;
0115825710999991997041912004-05500-045267FM-12+017499999V0203201N00101220001CN0100001N1+02661+02351101331ADDAA106000091AG10000GF103991031021008001001001KA1240N+02031MA1999999099361MD1999999+0021REMSYN017 333 20203 58002;
0096825710999991997041918004-05500-045267FM-12+017499999V0201401N00511045001CN0100001N1+03181+02361100981ADDAA106000091AG10000GF105991041051008001041001MA1999999099031MD1999999+0021REMSYN011 333 58002;
0115825710999991997042012004-05500-045267FM-12+017499999V0203201N00101220001CN0100001N1+02681+02291101491ADDAA106000091AG10000GF103991031001017501031001KA1240N+02041MA1999999099511MD1999999+0151REMSYN017 333 20204 58015;
0096825710999991997042018004-05500-045267FM-12+017499999V0200501N00311220001CN0100001N1+03201+02181101021ADDAA106000091AG10000GF104991041021008001001001MA1999999099071MD1999999+0041REMSYN011 333 58004;
0115825710999991997042100004-05500-045267FM-12+017499999V0209991C00001220001CN0100001N1+02601+02351101171ADDAA106000091AG10000GF102991021001017501041001KA1240M+03291MA1999999099201MD1999999-0031REMSYN017 333 10329 59003;
0115825710999991997042112004-05500-045267FM-12+017499999V0203601N00311220001CN0100001N1+02771+02341101381ADDAA106000091AG10000GF103991021021008001001011KA1240N+02111MA1999999099411MD1999999-0101REMSYN017 333 20211 59010;
0127825710999991997042212004-05500-045267FM-12+017499999V0203201N00101007501CN0100001N1+02481+02341101351ADDAA124012091AG10000GF108991081051008001999999KA1240N+02011MA1999999099371MD1999999-0041MW1631REMSYN023 333 20201 59004 60124;
0096825710999991997042218004-05500-045267FM-12+017499999V0202301N00101220001CN0100001N1+02701+02391100871ADDAA106000091AG10000GF105991031051008001001011MA1999999098901MD1999999-0111REMSYN011 333 59011;
0115825710999991997042300004-05500-045267FM-12+017499999V0209991C00001007501CN0100001N1+02521+02401101191ADDAA106000091AG10000GF108991081051008001999999KA1240M+03191MA1999999099211MD1999999+0071REMSYN017 333 10319 58007;
0115825710999991997042312004-05500-045267FM-12+017499999V0202701N00101007501CN0100001N1+02541+02381101981ADDAA106000091AG10000GF108991081051008001999999KA1240N+02101MA1999999099391MD1999999+0021REMSYN017 333 20210 58002;
0135825710999991997042318004-05500-045267FM-12+017499999V0200501N00101045001CN0100001N1+03131+02281100912ADDAA106000191AG10006AY161061GF105991031021008001031011MA1999999098951MD1999999+0051MW1021REMSYN017 333 58005 69911;EQDQ01+100913APOSLP
0115825710999991997042400004-05500-045267FM-12+017499999V0209991C00001220001CN0100001N1+02561+02421101021ADDAA106000091AG10000GF102991021001017501041001KA1240M+03231MA1999999099051MD1999999-0161REMSYN017 333 10323 59016;
0121825710999991997042412004-05500-045267FM-12+017499999V0203201N00101007501CN0100001N1+02621+02411101351ADDAA124000191AG10000GF108991081051008001999999KA1240N+02121MA1999999099381MD1999999-0011REMSYN023 333 20212 59001 69914;
0124825710999991997042418004-05500-045267FM-12+017499999V0203201N00101007501CN0100001N1+02371+02331101061ADDAA106010091AG10017AY191061AY261061GF108991081051008001999999MA1999999099071MD1999999+0121MW1911REMSYN017 333 58012 60101;
0135825710999991997042500004-05500-045267FM-12+017499999V0209991C00001004201CN0100001N1+02361+02341101381ADDAA106002091AG10006AY161061GF108991081051004501999999KA1240M+02811MA1999999099401MD1999999+0351MW1021REMSYN023 333 10281 58035 60021;
0121825710999991997042512004-05500-045267FM-12+017499999V0202301N001010075019N0100001N1+02391+02331101541ADDAA124012091AG10000GF108991081051008001999999KA1240N+02091MA1999999099541MD1999999+0161REMSYN023 333 20209 58016 60124;
0116825710999991997042518004-05500-045267FM-12+017499999V0202301N00511045001CN0100001N1+02681+02391101231ADDAA106000191AG10006AY161061GF106991031051008001031011MA1999999099251MD1999999+0181MW1021REMSYN017 333 58018 69921;
0121825710999991997042612004-05500-045267FM-12+017499999V0202301N00101007501CN0100001N1+02461+02271101451ADDAA124000191AG10000GF108991081051008001999999KA1240N+02041MA1999999099461MD1999999-0081REMSYN023 333 20204 59008 69924;
0102825710999991997042618004-05500-045267FM-12+017499999V0201401N00311007501CN0100001N1+02781+02361101071ADDAA106000191AG10000GF108991081051008001999999MA1999999099091MD1999999-0161REMSYN017 333 59016 69921;
0151825710999991997042700004-05500-045267FM-12+017499999V0209991C00001220001CN0100001N1+02481+02321101281ADDAA106001091AG10006AY161061GA1001+999999999GF100991001001999999001001KA1240M+03071MA1999999099291MD1999999-0081MW1001REMSYN023 333 10307 59008 69981;
0121825710999991997042712004-05500-045267FM-12+017499999V0202701N00101045001CN0100001N1+02571+02441101381ADDAA124001091AG10000GF106991031021008001051011KA1240N+02131MA1999999099401MD1999999-0061REMSYN023 333 20213 59006 60014;
0116825710999991997042718004-05500-045267FM-12+017499999V0203201N00311105001CN0100001N1+02641+02421100961ADDAA106008091AG10006AY161061GF105991021031008001031011MA1999999098991MD1999999-0101MW1611REMSYN017 333 59010 60081;
0131825710999991997042800004-05500-045267FM-12+017499999V0209991C00001220001CN0100001N1+02541+02421101281ADDAA106000091AG10000GA1001+999999999GF100991001001999999001001KA1240M+03151MA1999999099301MD1999999+0011REMSYN017 333 10315 58001;
0135825710999991997042812004-05500-045267FM-12+017499999V0202301N00101004201CN0100001N1+02261+02241101721ADDAA124012091AG10006AY161061GF108991081051004501999999KA1240N+02041MA1999999099721MD1999999+0321MW1611REMSYN023 333 20204 58032 60124;
0124825710999991997042818004-05500-045267FM-12+017499999V0202701N00311007501CN0100001N1+02581+02331101381ADDAA106000191AG10006AY161061AY211061GF108991081051008001999999MA1999999099401MD1999999+0411MW1021REMSYN017 333 58041 69911;
0121825710999991997042912004-05500-045267FM-12+017499999V0202701N00101007501CN0100001N1+02421+02351101761ADDAA124000191AG10000GF108991081051008001999999KA1240N+02001MA1999999099761MD1999999+0041REMSYN023 333 20200 58004 69914;
0096825710999991997042918004-05500-045267FM-12+017499999V0202701N00101220001CN0100001N1+03061+02301101241ADDAA106000091AG10000GF103991031021008001001001MA1999999099271MD1999999-0131REMSYN011 333 59013;
0143825710999991997043012004-05500-045267FM-12+017499999V0202701N001010042019N0100001N1+02181+02151101611ADDAA124006091AG10017AY191061AY261061GF108991081051004501999999KA1240N+02001MA1999999099611MD1999999-0151MW1911REMSYN023 333 20200 59015 60064;
0116825710999991997043018004-05500-045267FM-12+017499999V0203201N00101045001CN0100001N1+02731+02431101181ADDAA106005091AG10006AY161061GF106991041051008001031001MA1999999099201MD1999999-0071MW1021REMSYN017 333 59007 60051;
0121825710999991997050100004-05500-045267FM-12+017499999V0202701N00101007501CN0100001N1+02441+02411101321ADDAA106000091AG10000GF108991081051008001999999KA1240M+02851MA1999999099321MD1999999-0091MW1131REMSYN017 333 10285 59009;
0121825710999991997050112004-05500-045267FM-12+017499999V0202701N00101045001CN0100001N1+02501+02401101441ADDAA124005091AG10000GF106991031021008001031011KA1240N+02101MA1999999099451MD1999999-0161REMSYN023 333 20210 59016 60054;
0115825710999991997050212004-05500-045267FM-12+017499999V0202701N00101007501CN0100001N1+02441+02371101481ADDAA106000091AG10000GF108991051051008001031999KA1240N+01951MA1999999099491MD1999999+0041REMSYN017 333 20195 58004;
0124825710999991997050218004-05500-045267FM-12+017499999V0202701N00101007501CN0100001N1+02321+02271101241ADDAA106032091AG10015AY191061AY261061GF108991081051008001999999MA1999999099241MD1999999+0191MW1911REMSYN017 333 58019 60321;
0135825710999991997050300004-05500-045267FM-12+017499999V0209991C00001004201CN0100001N1+02301+02281101391ADDAA106000591AG10005AY161061GF108991081051004501999999KA1240M+02931MA1999999099391MD1999999+0141MW1021REMSYN023 333 10293 58014 69961;
0135825710999991997050312004-05500-045267FM-12+017499999V0202701N00101007501CN0100001N1+02281+02261101671ADDAA124048091AG10005AY161061GF108991081051008001999999KA1240N+02051MA1999999099661MD1999999+0171MW1611REMSYN023 333 20205 58017 60484;
0096825710999991997050318004-05500-045267FM-12+017499999V0202701N00311007501CN0200001N1+02721+02431101461ADDAA106000091AG10000GF108991081051008001999999MA1999999099281MD1999999+0041REMSYN011 333 58004;
0135825710999991997050400004-05500-045267FM-12+017499999V0209991C00001004201CN0100001N1+02391+02371101551ADDAA106002091AG10005AY161061GF108991081051004501999999KA1240M+02811MA1999999099551MD1999999+0161MW1611REMSYN023 333 10281 58016 60021;
0154825710999991997050412004-05500-045267FM-12+017499999V0203201N001019999999N0100001N1+02501+02361101571ADDAA124002091AG10005AY161061GF106991999051008001999999KA1240N+02011MA1999999099581MD1999999+0081MW1021REMSYN023 333 20201 58008 60024;EQDQ01+000082SCOTLC
0096825710999991997050418004-05500-045267FM-12+017499999V0202301N00101220001CN0100001N1+02981+02371101081ADDAA106000091AG10000GF105991041031008001001011MA1999999099121MD1999999-0161REMSYN011 333 59016;
0135825710999991997050500004-05500-045267FM-12+017499999V0202701N00101004201CN0100001N1+02461+02431101351ADDAA106007091AG10005AY161061GF108991081051004501999999KA1240M+03051MA1999999099371MD1999999-0181MW1021REMSYN023 333 10305 59018 60071;
0121825710999991997050512004-05500-045267FM-12+017499999V0202301N00101045001CN0100001N1+02431+02321101471ADDAA124007091AG10000GF107991021021004501071001KA1240N+02131MA1999999099481MD1999999-0101REMSYN023 333 20213 59010 60074;
0096825710999991997050518004-05500-045267FM-12+017499999V0201801N00311045001CN0100001N1+02831+02271101141ADDAA106000091AG10000GF106991021021008001071001MA1999999099171MD1999999+0051REMSYN011 333 58005;
0096825710999991997050618004-05500-045267FM-12+017499999V0202301N00311220001CN0100001N1+02921+02241101141ADDAA106000091AG10000GF104991031021008001011001MA1999999099161MD1999999-0011REMSYN011 333 59001;
0135825710999991997050700004-05500-045267FM-12+017499999V0202301N00101220001CN0100001N1+02471+02301101441ADDAA106000191AG10005AY161061GF101991011001017501041001KA1240M+03081MA1999999099451MD1999999+0071MW1021REMSYN023 333 10308 58007 69921;
0121825710999991997050712004-05500-045267FM-12+017499999V0201401N00511220001CN0100001N1+02591+02101101551ADDAA124000191AG10000GF106991041001017501051011KA1240N+02051MA1999999099571MD1999999+0011REMSYN023 333 20205 58001 69924;
0096825710999991997050718004-05500-045267FM-12+017499999V0201401N00511220001CN0100001N1+02931+02191101281ADDAA106000091AG10000GF104991031021004501001011MA1999999099311MD1999999+0151REMSYN011 333 58015;
0115825710999991997050800004-05500-045267FM-12+017499999V0202301N00101220001CN0100001N1+02541+02251101441ADDAA106000091AG10000GF103991031001017501031001KA1240M+03031MA1999999099461MD1999999+0011REMSYN017 333 10303 58001;
0115825710999991997050812004-05500-045267FM-12+017499999V0201401N00311045001CN0100001N1+02601+02171101621ADDAA106000091AG10000GF105991021021004501051001KA1240N+02001MA1999999099641MD1999999-0071REMSYN017 333 20200 59007;
0096825710999991997050818004-05500-045267FM-12+017499999V0201401N00311045001CN0100001N1+02921+02221101311ADDAA106000091AG10000GF105991041021008001031001MA1999999099341MD1999999+0031REMSYN011 333 58003;
0121825710999991997050900004-05500-045267FM-12+017499999V0201401N00211220001CN0100001N1+02441+02211101621ADDAA106000091AG10000GF102991011031004501011001KA1240M+03021MA1999999099631MD1999999+0171MW1131REMSYN017 333 10302 58017;
0115825710999991997050912004-05500-045267FM-12+017499999V0201401N00311045001CN0100001N1+02581+02211101631ADDAA106000091AG10000GF106991041021004501041001KA1240N+02081MA1999999099641MD1999999+0001REMSYN017 333 20208 58000;
0096825710999991997050918004-05500-045267FM-12+017499999V0201401N00411007501CN0100001N1+02901+02271101341ADDAA106000091AG10000GF106991051021008001011001MA1999999099371MD1999999+0031REMSYN011 333 58003;
0135825710999991997051000004-05500-045267FM-12+017499999V0202301N00101004201CN0100001N1+02461+02271101551ADDAA106000191AG10005AY161061GF105991051021004501001001KA1240M+03031MA1999999099561MD1999999-0071MW1011REMSYN023 333 10303 59007 69911;
0121825710999991997051012004-05500-045267FM-12+017499999V0201401N00511220001CN0100001N1+02641+02181101581ADDAA124000191AG10000GF104991021021004501001011KA1240N+02001MA1999999099601MD1999999-0041REMSYN023 333 20200 59004 69914;
0096825710999991997051018004-05500-045267FM-12+017499999V0201401N00511045001CN0100001N1+03031+02241101291ADDAA106000091AG10000GF105991031021008001011001MA1999999099321MD1999999-0051REMSYN011 333 59005;
0115825710999991997051100004-05500-045267FM-12+017499999V0209991C00001220001CN0100001N1+02451+02251101421ADDAA106000091AG10000GF104991041001017501031001KA1240M+03081MA1999999099441MD1999999-0121REMSYN017 333 10308 59012;
0115825710999991997051112004-05500-045267FM-12+017499999V0201801N00621220001CN0100001N1+02681+02181101591ADDAA106000091AG10000GF102991011011004501001011KA1240N+01931MA1999999099611MD1999999+0011REMSYN017 333 20193 58001;
0096825710999991997051118004-05500-045267FM-12+017499999V0201401N00311220001CN0100001N1+03081+02241101271ADDAA106000091AG10000GF102991021021008001001001MA1999999099301MD1999999-0021REMSYN011 333 59002;
0131825710999991997051200004-05500-045267FM-12+017499999V0209991C00001220001CN0100001N1+02531+02191101361ADDAA106000091AG10000GA1001+999999999GF100991001001999999001001KA1240M+03141MA1999999099391MD1999999-0051REMSYN017 333 10314 59005;
0115825710999991997051212004-05500-045267FM-12+017499999V0201801N00511220001CN0100001N1+02561+02131101581ADDAA106000091AG10000GF102991011001017501011011KA1240N+01821MA1999999099601MD1999999-0011REMSYN017 333 20182 59001;
0096825710999991997051218004-05500-045267FM-12+017499999V0201401N00311220001CN0100001N1+03051+02091101241ADDAA106000091AG10000GF104991021021008001011001MA1999999099271MD1999999-0031REMSYN011 333 59003;
0131825710999991997051300004-05500-045267FM-12+017499999V0202301N00101220001CN0100001N1+02461+02171101461ADDAA106000091AG10000GA1001+999999999GF100991001001999999001001KA1240M+03151MA1999999099471MD1999999+0081REMSYN017 333 10315 58008;
0115825710999991997051312004-05500-045267FM-12+017499999V0201801N00211220001CN0100001N1+02581+02121101601ADDAA106000091AG10000GF102991011001017501011011KA1240N+01721MA1999999099611MD1999999+0011REMSYN017 333 20172 58001;
0096825710999991997051318004-05500-045267FM-12+017499999V0200501N00211045001CN0100001N1+03021+02161101231ADDAA106000091AG10000GF105991031021008001011011MA1999999099251MD1999999-0031REMSYN011 333 59003;
0115825710999991997051400004-05500-045267FM-12+017499999V0209991C00001220001CN0100001N1+02841+02261101361ADDAA106000091AG10000GF102991021001017501011001KA1240M+03191MA1999999099381MD1999999-0091REMSYN017 333 10319 59009;
0115825710999991997051412004-05500-045267FM-12+017499999V0203201N00101004201CN0100001N1+02351+02271101521ADDAA106000091AG10000GF108991081051004501999999KA1240N+01811MA1999999099531MD1999999-0081REMSYN017 333 20181 59008;
0096825710999991997051418004-05500-045267FM-12+017499999V0201401N00211220001CN0100001N1+03101+02121101141ADDAA106000091AG10000GF103991021011008001001011MA1999999099171MD1999999-0081REMSYN011 333 59008;
0121825710999991997051500004-05500-045267FM-12+017499999V0209991C00001220001CN0100001N1+02451+02271101341ADDAA106000091AG10000GF102991011031004501011001KA1240M+03181MA1999999099351MD1999999-0031MW1131REMSYN017 333 10318 59003;
0115825710999991997051512004-05500-045267FM-12+017499999V0202701N00101004201CN0100001N1+02361+02261101561ADDAA106000091AG10000GF108991081051004501999999KA1240N+01861MA1999999099561MD1999999+0031REMSYN017 333 20186 58003;
0096825710999991997051518004-05500-045267FM-12+017499999V0203201N00101220001CN0100001N1+03091+02211101081ADDAA106000091AG10000GF103991031021008001001001MA1999999099121MD1999999+0051REMSYN011 333 58005;
0131825710999991997051600004-05500-045267FM-12+017499999V0209991C00001220001CN0100001N1+02541+02311101311ADDAA106000091AG10000GA1001+999999999GF100991001001999999001001KA1240M+03201MA1999999099321MD1999999-0031REMSYN017 333 10320 59003;
0115825710999991997051612004-05500-045267FM-12+017499999V0202301N00101045001CN0100001N1+02491+02301101551ADDAA106000091AG10000GF107991021021004501051001KA1240N+02011MA1999999099561MD1999999+0001REMSYN017 333 20201 58000;
0096825710999991997051618004-05500-045267FM-12+017499999V0201401N00311220001CN0100001N1+03041+02091101171ADDAA106000091AG10000GF103991031021008001001001MA1999999099201MD1999999+0081REMSYN011 333 58008;
0131825710999991997051712004-05500-045267FM-12+017499999V0201401N00721220001CN0100001N1+02541+01981101611ADDAA106000091AG10000GA1001+999999999GF100991001001999999001001KA1240N+01981MA1999999099621MD1999999+0061REMSYN017 333 20198 58006;
0096825710999991997051718004-05500-045267FM-12+017499999V0200501N00311220001CN0100001N1+03051+02061101181ADDAA106000091AG10000GF102991021011008001001001MA1999999099211MD1999999+0011REMSYN011 333 58001;
0115825710999991997051800004-05500-045267FM-12+017499999V0201401N00211220001CN0100001N1+02431+02091101421ADDAA106000091AG10000GF104991011021008001031001KA1240M+03101MA1999999099441MD1999999+0021REMSYN017 333 10310 58002;
0131825710999991997051812004-05500-045267FM-12+017499999V0201401N00511220001CN0100001N1+02641+01981101521ADDAA106000091AG10000GA1001+999999999GF100991001001999999001001KA1240N+01851MA1999999099541MD1999999-0081REMSYN017 333 20185 59008;
0096825710999991997051818004-05500-045267FM-12+017499999V0201401N00311220001CN0100001N1+03131+02111101051ADDAA106000091AG10000GF103991031021008001001001MA1999999099091MD1999999-0121REMSYN011 333 59012;
0115825710999991997051912004-05500-045267FM-12+017499999V0201401N00621220001CN0100001N1+02691+02111101411ADDAA106000091AG10000GF102991021001017501031001KA1240N+01901MA1999999099441MD1999999-0101REMSYN017 333 20190 59010;
0096825710999991997051918004-05500-045267FM-12+017499999V0201401N00411012001CN0100001N1+02861+02211101111ADDAA106000091AG10000GF107991071081008001001001MA1999999099141MD1999999+0051REMSYN011 333 58005;
0131825710999991997052000004-05500-045267FM-12+017499999V0209991C00001220001CN0100001N1+02421+02321101231ADDAA106000091AG10000GA1001+999999999GF100991001001999999001001KA1240M+03011MA1999999099251MD1999999-0141REMSYN017 333 10301 59014;
0115825710999991997052012004-05500-045267FM-12+017499999V0202701N00101004201CN0100001N1+02361+02291101451ADDAA106000091AG10000GF108991081051004501999999KA1240N+01991MA1999999099461MD1999999+0021REMSYN017 333 20199 58002;
0096825710999991997052018004-05500-045267FM-12+017499999V0201401N00211220001CN0100001N1+02981+02281101031ADDAA106000091AG10000GF104991031021008001011001MA1999999099061MD1999999-0021REMSYN011 333 59002;
0115825710999991997052100004-05500-045267FM-12+017499999V0202301N00101220001CN0100001N1+02701+02321101211ADDAA106000091AG10000GF101991011001017501031001KA1240M+03111MA1999999099231MD1999999-0021REMSYN017 333 10311 59002;
0131825710999991997052112004-05500-045267FM-12+017499999V0201401N00411220001CN0100001N1+02711+02221101341ADDAA106000091AG10000GA1001+999999999GF100991001001999999001001KA1240N+01941MA1999999099371MD1999999-0091REMSYN017 333 20194 59009;
0096825710999991997052118004-05500-045267FM-12+017499999V0201401N00511220001CN0100001N1+03091+02041101011ADDAA106000091AG10000GF103991031021008001001001MA1999999099051MD1999999-0011REMSYN011 333 59001;
0131825710999991997052200004-05500-045267FM-12+017499999V0209991C00001220001CN0100001N1+02331+02071101241ADDAA106000091AG10000GA1001+999999999GF100991001001999999001001KA1240M+03151MA1999999099261MD1999999+0031REMSYN017 333 10315 58003;
0115825710999991997052212004-05500-045267FM-12+017499999V0201401N00311004201CN0100001N1+02601+02231101441ADDAA106000091AG10000GF105991051021004501001001KA1240N+01921MA1999999099451MD1999999+0081REMSYN017 333 20192 58008;
0096825710999991997052218004-05500-045267FM-12+017499999V0201401N00311220001CN0100001N1+03141+02181101051ADDAA106000091AG10000GF104991041021008001001001MA1999999099081MD1999999+0031REMSYN011 333 58003;
0131825710999991997052312004-05500-045267FM-12+017499999V0201801N00621220001CN0100001N1+99999+99999101471ADDAA106000091AG10000GA1001+999999999GF100991001001999999001001KA1240N+01941MA1999999099491MD1999999+0041REMSYN017 333 20194 58004;
0096825710999991997052318004-05500-045267FM-12+017499999V0201401N00411220001CN0100001N1+03041+02061101181ADDAA106000091AG10000GF103991031021008001001001MA1999999099211MD1999999+0131REMSYN011 333 58013;
0115825710999991997052400004-05500-045267FM-12+017499999V0209991C00001220001CN0100001N1+02431+02171101221ADDAA106000091AG10000GF101991011001017501011001KA1240M+03191MA1999999099241MD1999999-0041REMSYN017 333 10319 59004;
0096825710999991997052418004-05500-045267FM-12+017499999V0201401N00311045001CN0100001N1+02641+02231101321ADDAA106000091AG10000GF106991031021008001051001MA1999999099331MD1999999+0121REMSYN011 333 58012;
0115825710999991997052512004-05500-045267FM-12+017499999V0201801N00511220001CN0100001N1+99999+99999101501ADDAA106000091AG10000GF101991011001017501031001KA1240N+02241MA1999999099521MD1999999-0161REMSYN017 333 20224 59016;
0131825710999991997052612004-05500-045267FM-12+017499999V0209991C00001220001CN0100001N1+02561+02191101411ADDAA106000091AG10000GA1001+999999999GF100991001001999999001001KA1240N+01811MA1999999099431MD1999999-0091REMSYN017 333 20181 59009;
0096825710999991997052618004-05500-045267FM-12+017499999V0201401N00411220001CN0100001N1+03151+02101101081ADDAA106000091AG10000GF103991031021008001001001MA1999999099121MD1999999-0101REMSYN011 333 59010;
0131825710999991997052700004-05500-045267FM-12+017499999V0209991C00001220001CN0100001N1+02471+02251101331ADDAA106000091AG10000GA1001+999999999GF100991001001999999001001KA1240M+03201MA1999999099351MD1999999-0051REMSYN017 333 10320 59005;
0115825710999991997052712004-05500-045267FM-12+017499999V0201401N00411220001CN0100001N1+02611+02191101501ADDAA106000091AG10000GF101991001001999999001011KA1240N+01821MA1999999099521MD1999999+0091REMSYN017 333 20182 58009;
0131825710999991997052800004-05500-045267FM-12+017499999V0209991C00001220001CN0100001N1+02491+02171101381ADDAA106000091AG10000GA1001+999999999GF100991001001999999001001KA1240M+03181MA1999999099401MD1999999+0051REMSYN017 333 10318 58005;
0115825710999991997052812004-05500-045267FM-12+017499999V0201401N00411220001CN0100001N1+02571+02041101581ADDAA106000091AG10000GF102991001001999999001011KA1240N+01791MA1999999099601MD1999999+0081REMSYN017 333 20179 58008;
0096825710999991997052818004-05500-045267FM-12+017499999V0201401N00311220001CN0100001N1+03071+02051101211ADDAA106000091AG10000GF103991031011008001001001MA1999999099241MD1999999+0041REMSYN011 333 58004;
0115825710999991997052912004-05500-045267FM-12+017499999V0202701N00101220001CN0100001N1+02381+02191101591ADDAA106000091AG10000GF102991001001999999001011KA1240N+01721MA1999999099591MD1999999-0011REMSYN017 333 20172 59001;
0096825710999991997052918004-05500-045267FM-12+017499999V0201401N00311220001CN0100001N1+03111+02001101181ADDAA106000091AG10000GF104991021011008001001011MA1999999099201MD1999999-0041REMSYN011 333 59004;
0131825710999991997053000004-05500-045267FM-12+017499999V0209991C00001220001CN0100001N1+02351+02131101371ADDAA106000091AG10000GA1001+999999999GF100991001001999999001001KA1240M+03171MA1999999099371MD1999999-0091REMSYN017 333 10317 59009;
0115825710999991997053012004-05500-045267FM-12+017499999V0202301N00101220001CN0100001N1+02501+02171101501ADDAA106000091AG10000GF101991011001017501011001KA1240M+02721MA1999999099511MD1999999-0081REMSYN017 333 10272 59008;
0096825710999991997053018004-05500-045267FM-12+017499999V0201401N00311220001CN0100001N1+03061+01991101131ADDAA106000091AG10000GF104991031021008001011001MA1999999099151MD1999999-0051REMSYN011 333 59005;
0131825710999991997053100004-05500-045267FM-12+017499999V0209991C00001220001CN0100001N1+02431+02151101341ADDAA106000091AG10000GA1001+999999999GF100991001001999999001001KA1240M+03191MA1999999099351MD1999999-0021REMSYN017 333 10319 59002;
0115825710999991997053112004-05500-045267FM-12+017499999V0202701N00101220001CN0100001N1+02471+02211101541ADDAA106000091AG10000GF103991021001008001031011KA1240N+01791MA1999999099551MD1999999-0041REMSYN017 333 20179 59004;
0096825710999991997060118004-05500-045267FM-12+017499999V0201401N00311220001CN0100001N1+03181+02011101171ADDAA106000091AG10000GF103991021021008001001011MA1999999099191MD1999999+0021REMSYN011 333 58002;
0131825710999991997060200004-05500-045267FM-12+017499999V0209991C00001220001CN0100001N1+02461+02191101371ADDAA106000091AG10000GA1001+999999999GF100991001001999999001001KA1240M+03241MA1999999099391MD1999999+0001REMSYN017 333 10324 58000;
0115825710999991997060212004-05500-045267FM-12+017499999V0203201N00101220001CN0100001N1+02531+02271101621ADDAA106000091AG10000GF103991021031008001001011KA1240N+01731MA1999999099631MD1999999+0081REMSYN017 333 20173 58008;
0096825710999991997060218004-05500-045267FM-12+017499999V0201801N00311220001CN0100001N1+03061+02141101261ADDAA106000091AG10000GF103991031021008001001001MA1999999099291MD1999999+0101REMSYN011 333 58010;
0131825710999991997060300004-05500-045267FM-12+017499999V0209991C00001220001CN0100001N1+02471+02171101341ADDAA106000091AG10000GA1001+999999999GF100991001001999999001001KA1240M+03171MA1999999099361MD1999999-0031REMSYN017 333 10317 59003;
0131825710999991997060312004-05500-045267FM-12+017499999V0209991C00001220001CN0100001N1+02541+02041101501ADDAA106000091AG10000GA1001+999999999GF100991001001999999001001KA1240N+01771MA1999999099511MD1999999-0121REMSYN017 333 20177 59012;
0096825710999991997060318004-05500-045267FM-12+017499999V0200901N00311220001CN0100001N1+03041+02181101181ADDAA106000091AG10000GF104991041021008001001001MA1999999099281MD1999999-0091REMSYN011 333 59009;
0131825710999991997060412004-05500-045267FM-12+017499999V0203601N00101220001CN0100001N1+02521+02231101441ADDAA106000091AG10000GA1001+999999999GF100991001001999999001001KA1240N+01731MA1999999099451MD1999999-0061REMSYN017 333 20173 59006;
0096825710999991997060418004-05500-045267FM-12+017499999V0201401N00511220001CN0100001N1+03081+02101101061ADDAA106000091AG10000GF103991031021008001001001MA1999999099091MD1999999-0111REMSYN011 333 59011;
0131825710999991997060500004-05500-045267FM-12+017499999V0209991C00001220001CN0100001N1+02411+02151101201ADDAA106000091AG10000GA1001+999999999GF100991001001999999001001KA1240M+03191MA1999999099221MD1999999-0141REMSYN017 333 10319 59014;
0115825710999991997060512004-05500-045267FM-12+017499999V0200901N00311220001CN0100001N1+02511+02191101361ADDAA106000091AG10000GF102991011001017501041011KA1240N+01721MA1999999099651MD1999999-0081REMSYN017 333 20172 59008;
0096825710999991997060518004-05500-045267FM-12+017499999V0201401N00311220001CN0100001N1+03111+02151101021ADDAA106000091AG10000GF102991021021008001001001MA1999999099051MD1999999-0041REMSYN011 333 59004;
0131825710999991997060600004-05500-045267FM-12+017499999V0209991C00001220001CN0100001N1+02351+02071101231ADDAA106000091AG10000GA1001+999999999GF100991001001999999001001KA1240M+03191MA1999999099251MD1999999+0031REMSYN017 333 10319 58003;
0115825710999991997060612004-05500-045267FM-12+017499999V0203601N00311045001CN0100001N1+02521+02171101271ADDAA106000091AG10000GF106991021051008001041011KA1240N+01661MA1999999099281MD1999999-0091REMSYN017 333 20166 59009;
0131825710999991997060700004-05500-045267FM-12+017499999V0209991C00001220001CN0100001N1+02461+02051101081ADDAA106000091AG10000GA1001+999999999GF100991001001999999001001KA1240M+03221MA1999999099101MD1999999-0151REMSYN017 333 10322 59015;
0115825710999991997060712004-05500-045267FM-12+017499999V0200701N00101220001CN0100001N1+02381+02191101101ADDAA106000091AG10000GF104991001001999999001011KA1240N+01861MA1999999099111MD1999999-0171REMSYN017 333 20186 59017;
0096825710999991997060718004-05500-045267FM-12+017499999V0200901N00311220001CN0100001N1+03201+02211100761ADDAA106000091AG10000GF105991021021008001001011MA1999999098801MD1999999+0071REMSYN011 333 58007;
0096825710999991997060818004-05500-045267FM-12+017499999V0203201N00311220001CN0100001N1+03141+02321100971ADDAA106000091AG10000GF104991041021008001001001MA1999999099011MD1999999+0211REMSYN011 333 58021;
0131825710999991997060900004-05500-045267FM-12+017499999V0209991C00001220001CN0100001N1+02481+02321101191ADDAA106000091AG10000GA1001+999999999GF100991001001999999001001KA1240M+03221MA1999999099211MD1999999+0101REMSYN017 333 10322 58010;
0115825710999991997060912004-05500-045267FM-12+017499999V0200501N00311220001CN0100001N1+02551+02311101531ADDAA106000091AG10000GF106991041051008001001011KA1240N+01881MA1999999099541MD1999999+0181REMSYN017 333 20188 58018;
0096825710999991997060918004-05500-045267FM-12+017499999V0203201N00101220001CN0100001N1+03181+02221101271ADDAA106000091AG10000GF103991031021008001001001MA1999999099311MD1999999+0301REMSYN011 333 58030;
0131825710999991997061000004-05500-045267FM-12+017499999V0209991C00001220001CN0100001N1+02521+02311101371ADDAA106000091AG10000GA1001+999999999GF100991001001999999001001KA1240M+03271MA1999999099391MD1999999+0181REMSYN017 333 10327 58018;
0115825710999991997061012004-05500-045267FM-12+017499999V0203201N00311007501CN0100001N1+02521+02311101731ADDAA106000091AG10000GF108991081051008001999999KA1240N+01861MA1999999099741MD1999999+0201REMSYN017 333 20186 58020;
0096825710999991997061018004-05500-045267FM-12+017499999V0200501N00311220001CN0100001N1+03121+02081101421ADDAA106000091AG10000GF103991031021008001001001MA1999999099451MD1999999+0141REMSYN011 333 58014;
0096825710999991997061118004-05500-045267FM-12+017499999V0201401N00311220001CN0100001N1+03151+02041101451ADDAA106000091AG10000GF103991031021008001001001MA1999999099471MD1999999+0021REMSYN011 333 58002;
0131825710999991997061212004-05500-045267FM-12+017499999V0202301N00101220001CN0100001N1+02511+02151101561ADDAA106000091AG10000GA1001+999999999GF100991001001999999001001KA1240N+01681MA1999999099571MD1999999-0201REMSYN017 333 20168 59020;
0096825710999991997061218004-05500-045267FM-12+017499999V0200501N00311220001CN0100001N1+03181+01941101261ADDAA106000091AG10000GF102991021011008001001001MA1999999099291MD1999999-0181REMSYN011 333 59018;
0131825710999991997061300004-05500-045267FM-12+017499999V0209991C00001220001CN0100001N1+02411+02031101461ADDAA106000091AG10000GA1001+999999999GF100991001001999999001001KA1240M+03231MA1999999099471MD1999999-0031REMSYN017 333 10323 59003;
0131825710999991997061312004-05500-045267FM-12+017499999V0202301N00101220001CN0100001N1+02451+02031101721ADDAA106000091AG10000GA1001+999999999GF100991001001999999001001KA1240N+01581MA1999999099731MD1999999+0161REMSYN017 333 20158 58016;
0096825710999991997061318004-05500-045267FM-12+017499999V0202301N00101220001CN0100001N1+03101+01901101341ADDAA106000091AG10000GF103991031021008001001001MA1999999099361MD1999999+0071REMSYN011 333 58007;
0096825710999991997061418004-05500-045267FM-12+017499999V0202301N00311220001CN0100001N1+03061+01801101181ADDAA106000091AG10000GF102991021021008001001001MA1999999099201MD1999999-0161REMSYN011 333 59016;
0131825710999991997061500004-05500-045267FM-12+017499999V0209991C00001220001CN0100001N1+02421+01951101381ADDAA106000091AG10000GA1001+999999999GF100991001001999999001001KA1240M+03241MA1999999099381MD1999999-0181REMSYN017 333 10324 59018;
0096825710999991997061518004-05500-045267FM-12+017499999V0201401N00311220001CN0100001N1+03221+01951101201ADDAA106000091AG10000GF102991021021008001001001MA1999999099231MD1999999+0031REMSYN011 333 58003;
0131825710999991997061612004-05500-045267FM-12+017499999V0202301N00101220001CN0100001N1+02241+01921101471ADDAA106000091AG10000GA1001+999999999GF100991001001999999001001KA1240N+01471MA1999999099471MD1999999-0111REMSYN017 333 20147 59011;
0096825710999991997061618004-05500-045267FM-12+017499999V0201401N00311220001CN0100001N1+03131+01951101111ADDAA106000091AG10000GF103991031011008001001001MA1999999099131MD1999999-0101REMSYN011 333 59010;
0115825710999991997061712004-05500-045267FM-12+017499999V0202701N00101220001CN0100001N1+02511+02151101511ADDAA106000091AG10000GF101991001001999999001011KA1240N+01771MA1999999099521MD1999999+0051REMSYN017 333 20177 58005;
0096825710999991997061718004-05500-045267FM-12+017499999V0201401N00211220001CN0100001N1+03261+02051101141ADDAA106000091AG10000GF104991031021008001001011MA1999999099181MD1999999+0051REMSYN011 333 58005;
0131825710999991997061800004-05500-045267FM-12+017499999V0209991C00001220001CN0100001N1+02511+02171101291ADDAA106000091AG10000GA1001+999999999GF100991001001999999001001KA1240M+03331MA1999999099311MD1999999-0011REMSYN017 333 10333 59001;
0115825710999991997061812004-05500-045267FM-12+017499999V0202701N00101220001CN0100001N1+02681+02261101521ADDAA106000091AG10000GF101991011011004501001001KA1240N+01821MA1999999099541MD1999999+0021REMSYN017 333 20182 58002;
0096825710999991997061818004-05500-045267FM-12+017499999V0201401N00411220001CN0100001N1+03191+01871101101ADDAA106000091AG10000GF103991031021008001001001MA1999999099141MD1999999-0041REMSYN011 333 59004;
0115825710999991997061912004-05500-045267FM-12+017499999V0201401N00211220001CN0100001N1+02661+99999101521ADDAA106000091AG10000GF104991031021004501011001KA1240N+01781MA1999999099531MD1999999-0011REMSYN017 333 20178 59001;
0096825710999991997061918004-05500-045267FM-12+017499999V0201401N00311220001CN0100001N1+03241+01931101091ADDAA106000091AG10000GF102991021021008001001001MA1999999099131MD1999999-0011REMSYN011 333 59001;
0131825710999991997062012004-05500-045267FM-12+017499999V0202301N00101220001CN0100001N1+02481+02031101531ADDAA106000091AG10000GA1001+999999999GF100991001001999999001001KA1240N+01601MA1999999099541MD1999999+0011REMSYN017 333 20160 58001;
0096825710999991997062018004-05500-045267FM-12+017499999V0201401N00411220001CN0100001N1+03191+01441101131ADDAA106000091AG10000GF101991011011004501001001MA1999999099151MD1999999+0021REMSYN011 333 58002;
0096825710999991997062118004-05500-045267FM-12+017499999V0201401N00411220001CN0100001N1+03221+01881101061ADDAA106000091AG10000GF102991021021008001001001MA1999999099091MD1999999-0061REMSYN011 333 59006;
0115825710999991997062212004-05500-045267FM-12+017499999V0202701N00101220001CN0100001N1+02591+02231101571ADDAA106000091AG10000GF103991031001017501031001KA1240N+01721MA1999999099591MD1999999+0101REMSYN017 333 20172 58010;
0096825710999991997062218004-05500-045267FM-12+017499999V0201401N00511220001CN0100001N1+03201+01931101141ADDAA106000091AG10000GF103991031021008001001001MA1999999099171MD1999999+0081REMSYN011 333 58008;
0131825710999991997062300004-05500-045267FM-12+017499999V0203601N00101220001CN0100001N1+02491+02031101321ADDAA106000091AG10000GA1001+999999999GF100991001001999999001001KA1240M+03291MA1999999099341MD1999999+0061REMSYN017 333 10329 58006;
0131825710999991997062312004-05500-045267FM-12+017499999V0203201N00101220001CN0100001N1+02631+01961101511ADDAA106000091AG10000GA1001+999999999GF100991001001999999001001KA1240N+01591MA1999999099531MD1999999-0061REMSYN017 333 20159 59006;
0096825710999991997062318004-05500-045267FM-12+017499999V0200901N00411220001CN0100001N1+03171+01861101171ADDAA106000091AG10000GF103991031021008001001001MA1999999099201MD1999999+0031REMSYN011 333 58003;
0134825710999991997062400004-05500-045267FM-12+017499999V0209991C00001220001CN0100001N1+02431+01931101281ADDAA106000091AG10000GF101991999001017501031001KA1240M+03211MA1999999099301MD1999999-0041REMSYN017 333 10321 59004;EQDQ01+000022SCOTLC
0131825710999991997062412004-05500-045267FM-12+017499999V0203201N00101220001CN0100001N1+02501+02001101451ADDAA106000091AG10000GA1001+999999999GF100991001001999999001001KA1240N+01601MA1999999099461MD1999999-0071REMSYN017 333 20160 59007;
0096825710999991997062418004-05500-045267FM-12+017499999V0201401N00311220001CN0100001N1+03161+01861101071ADDAA106000091AG10000GF102991021011004501001001MA1999999099101MD1999999-0101REMSYN011 333 59010;
0131825710999991997062500004-05500-045267FM-12+017499999V0209991C00001220001CN0100001N1+02441+02011101231ADDAA106000091AG10000GA1001+999999999GF100991001001999999001001KA1240M+03251MA1999999099251MD1999999-0051REMSYN017 333 10325 59005;
0131825710999991997062512004-05500-045267FM-12+017499999V0201701N00101220001CN0100001N1+02321+01911101341ADDAA106000091AG10000GA1001+999999999GF100991001001999999001001KA1240N+01541MA1999999099351MD1999999-0111REMSYN017 333 20154 59011;
0096825710999991997062518004-05500-045267FM-12+017499999V0201401N00211220001CN0100001N1+03191+01731100951ADDAA106000091AG10000GF103991031011008001001001MA1999999098981MD1999999-0121REMSYN011 333 59012;
0131825710999991997062600004-05500-045267FM-12+017499999V0203201N00101220001CN0100001N1+02421+01931101211ADDAA106000091AG10000GA1001+999999999GF100991001001999999001001KA1240M+03241MA1999999099221MD1999999-0031REMSYN017 333 10324 59003;
0115825710999991997062612004-05500-045267FM-12+017499999V0203601N00101220001CN0100001N1+02451+02011101421ADDAA106000091AG10000GF102991021021004501001001KA1240N+01711MA1999999099431MD1999999+0081REMSYN017 333 20171 58008;
0096825710999991997062618004-05500-045267FM-12+017499999V0201401N00311220001CN0100001N1+03241+01861101031ADDAA106000091AG10000GF103991031021008001001001MA1999999099071MD1999999+0091REMSYN011 333 58009;
0131825710999991997062700004-05500-045267FM-12+017499999V0209991C00001220001CN0100001N1+02541+01911101211ADDAA106000091AG10000GA1001+999999999GF100991001001999999001001KA1240M+03291MA1999999099231MD1999999+0011REMSYN017 333 10329 58001;
0131825710999991997062712004-05500-045267FM-12+017499999V0202301N00211220001CN0100001N1+02621+01961101371ADDAA106000091AG10000GA1001+999999999GF100991001001999999001001KA1240N+01731MA1999999099401MD1999999-0031REMSYN017 333 20173 59003;
0115825710999991997062718004-05500-045267FM-12+017499999V0201401N00311220001CN0100001N1+03271+01561101051ADDAA106000091AG10000GF102991999011008001001001MA1999999099091MD1999999+0021REMSYN011 333 58002;EQDQ01+000032SCOTLC
0115825710999991997062812004-05500-045267FM-12+017499999V0203201N00101220001CN0100001N1+02291+01811101551ADDAA106000091AG10000GF102991021001017501011001KA1240N+01531MA1999999099551MD1999999+0151REMSYN017 333 20153 58015;
0096825710999991997062818004-05500-045267FM-12+017499999V0201401N00411220001CN0100001N1+03201+01671101211ADDAA106000091AG10000GF103991021021008001011001MA1999999099231MD1999999+0141REMSYN011 333 58014;
0115825710999991997062912004-05500-045267FM-12+017499999V0202301N00101220001CN0100001N1+02311+01941101661ADDAA106000091AG10000GF104991031021004501001011KA1240N+01521MA1999999099661MD1999999+0111REMSYN017 333 20152 58011;
0096825710999991997062918004-05500-045267FM-12+017499999V0201401N00311220001CN0100001N1+03231+01801101321ADDAA106000091AG10000GF103991031021008001001001MA1999999099341MD1999999+0111REMSYN011 333 58011;
0115825710999991997063012004-05500-045267FM-12+017499999V0202701N00101220001CN0100001N1+02391+02111101701ADDAA106000091AG10000GF104991041021004501001001KA1240N+01741MA1999999099711MD1999999+0051REMSYN017 333 20174 58005;
0096825710999991997063018004-05500-045267FM-12+017499999V0201401N00211220001CN0100001N1+03191+01851101351ADDAA106000091AG10000GF104991041021008001001001MA1999999099381MD1999999+0041REMSYN011 333 58004;
0115825710999991997070112004-05500-045267FM-12+017499999V0202701N00101004201CN0100001N1+02171+02111101651ADDAA106000091AG10000GF108991081071004501999999KA1240N+01561MA1999999099651MD1999999-0061REMSYN017 333 20156 59006;
0096825710999991997070118004-05500-045267FM-12+017499999V0201401N00311220001CN0100001N1+03051+02031101211ADDAA106000091AG10000GF103991031021008001001001MA1999999099231MD1999999-0151REMSYN011 333 59015;
0131825710999991997070200004-05500-045267FM-12+017499999V0209991C00001220001CN0100001N1+02481+02091101321ADDAA106000091AG10000GA1001+999999999GF100991001001999999001001KA1240M+03141MA1999999099321MD1999999-0191REMSYN017 333 10314 59019;
0127825710999991997070212004-05500-045267FM-12+017499999V0200501N00311007501CN0100001N1+02301+01921101611ADDAA124000191AG10000GF108991081051008001999999KA1240N+02111MA1999999099611MD1999999-0041MW1601REMSYN023 333 20211 59004 69924;
0096825710999991997070218004-05500-045267FM-12+017499999V0201401N00311220001CN0100001N1+03011+02191101161ADDAA106000091AG10000GF103991031021008001001001MA1999999099191MD1999999-0041REMSYN011 333 59004;
0131825710999991997070300004-05500-045267FM-12+017499999V0209991C00001220001CN0100001N1+02521+02111101371ADDAA106000091AG10000GA1001+999999999GF100991001001999999001001KA1240M+03201MA1999999099381MD1999999+0061REMSYN017 333 10320 58006;
0137825710999991997070312004-05500-045267FM-12+017499999V0201801N00311220001CN0100001N1+02521+01981101561ADDAA124000191AG10000GA1001+999999999GF100991001001999999001001KA1240N+01751MA1999999099571MD1999999-0041REMSYN023 333 20175 59004 69914;
0096825710999991997070318004-05500-045267FM-12+017499999V0200901N00311220001CN0100001N1+03241+01781101121ADDAA106000091AG10000GF102991021011008001001001MA1999999099161MD1999999-0031REMSYN011 333 59003;
0131825710999991997070400004-05500-045267FM-12+017499999V0209991C00001220001CN0100001N1+02431+01821101401ADDAA106000091AG10000GA1001+999999999GF100991001001999999001001KA1240M+03271MA1999999099411MD1999999+0031REMSYN017 333 10327 58003;
0131825710999991997070412004-05500-045267FM-12+017499999V0209991C00001220001CN0100001N1+02471+01351101691ADDAA106000091AG10000GA1001+999999999GF100991001001999999001001KA1240N+01611MA1999999099701MD1999999+0131REMSYN017 333 20161 58013;
0096825710999991997070418004-05500-045267FM-12+017499999V0201401N00311220001CN0100001N1+03311+01841101241ADDAA106000091AG10000GF102991021011008001001001MA1999999099281MD1999999+0121REMSYN011 333 58012;
0131825710999991997070500004-05500-045267FM-12+017499999V0209991C00001220001CN0100001N1+02541+02021101361ADDAA106000091AG10000GA1001+999999999GF100991001001999999001001KA1240M+03361MA1999999099381MD1999999-0031REMSYN017 333 10336 59003;
0131825710999991997070512004-05500-045267FM-12+017499999V0201401N00311220001CN0100001N1+02621+01831101581ADDAA106000091AG10000GA1001+999999999GF100991001001999999001001KA1240N+01681MA1999999099601MD1999999-0101REMSYN017 333 20168 59010;
0096825710999991997070518004-05500-045267FM-12+017499999V0200901N00311220001CN0100001N1+03361+01601101161ADDAA106000091AG10000GF102991011011008001001011MA1999999099201MD1999999-0021REMSYN011 333 59002;
0131825710999991997070612004-05500-045267FM-12+017499999V0200901N00311220001CN0100001N1+02601+01711101571ADDAA106000091AG10000GA1001+999999999GF100991001001999999001001KA1240N+01611MA1999999099601MD1999999-0011REMSYN017 333 20161 59001;
0131825710999991997070700004-05500-045267FM-12+017499999V0209991C00001220001CN0100001N1+02501+01871101361ADDAA106000091AG10000GA1001+999999999GF100991001001999999001001KA1240M+03271MA1999999099381MD1999999+0031REMSYN017 333 10327 58003;
0131825710999991997070712004-05500-045267FM-12+017499999V0203601N00101220001CN0100001N1+02491+01701101591ADDAA106000091AG10000GA1001+999999999GF100991001001999999001001KA1240N+01961MA1999999099601MD1999999+0011REMSYN017 333 20196 58001;
0096825710999991997070718004-05500-045267FM-12+017499999V0200501N00311220001CN0100001N1+03161+01751101201ADDAA106000091AG10000GF103991031021008001001001MA1999999099221MD1999999-0081REMSYN011 333 59008;
0131825710999991997070800004-05500-045267FM-12+017499999V0209991C00001220001CN0100001N1+02531+01911101311ADDAA106000091AG10000GA1001+999999999GF100991001001999999001001KA1240M+03271MA1999999099541MD1999999-0051REMSYN017 333 10327 59005;
0115825710999991997070812004-05500-045267FM-12+017499999V0201401N00311220001CN0100001N1+02491+01701101531ADDAA106000091AG10000GF106991041001017501031011KA1240N+01631MA1999999099541MD1999999-0061REMSYN017 333 20163 59006;
0096825710999991997070818004-05500-045267FM-12+017499999V0201401N00311220001CN0100001N1+03171+01921101161ADDAA106000091AG10000GF103991031021008001001001MA1999999099181MD1999999-0041REMSYN011 333 59004;
0131825710999991997070900004-05500-045267FM-12+017499999V0209991C00001220001CN0100001N1+02521+01931101211ADDAA106000091AG10000GA1001+999999999GF100991001001999999001001KA1240M+03271MA1999999099231MD1999999-0101REMSYN017 333 10327 59010;
0115825710999991997070912004-05500-045267FM-12+017499999V0201401N00311220001CN0100001N1+02531+01771101481ADDAA106000091AG10000GF101991001001999999001011KA1240N+01691MA1999999099491MD1999999-0051REMSYN017 333 20169 59005;
0096825710999991997070918004-05500-045267FM-12+017499999V0202301N00511220001CN0100001N1+03211+01631101161ADDAA106000091AG10000GF102991021011008001001001MA1999999099231MD1999999+0011REMSYN011 333 58001;
