0115825960999991997010112004-05650-035417FM-12+006199999V0200901N00511007501CN0040001N1+02991+02301100941ADDAA106000091AG10000GF105991051021008001001001KA1240N+02351MA1999999100221MD1999999+0021REMSYN017 333 20235 58002;
0096825960999991997010118004-05650-035417FM-12+006199999V0201401N00511220001CN0040001N1+03141+02181100711ADDAA106000091AG10000GF103991021011008001001011MA1999999099991MD1999999+0131REMSYN011 333 58013;
0134825960999991997010200004-05650-035417FM-12+006199999V0200901N00311007501CN9999999N9+02601+02371100901ADDAA106000091AG10000GF105991051021008001001001KA1240M+03131MA1999999100181MD1999999+0091REMSYN017 333 10313 58009;EQDQ01+000002VOVAR 
0143825960999991997010212004-05650-035417FM-12+006199999V0200901N00621007501CN0040001N1+02961+02311101051ADDAA124001091AG10001AY151061AY221061GF108991081021008001001001KA1240N+02431MA1999999100331MD1999999+0111MW1031REMSYN023 333 20243 58011 69994;
0096825960999991997010218004-05650-035417FM-12+006199999V0200901N00571220001CN0040001N1+02981+02201100771ADDAA106000091AG10000GF103991021021008001001021MA1999999100051MD1999999+0061REMSYN011 333 58006;
0115825960999991997010312004-05650-035417FM-12+006199999V0200901N00511045001CN0040001N1+02931+02141101111ADDAA106000091AG10000GF107991041021008001071021KA1240N+02221MA1999999100391MD1999999+0061REMSYN017 333 20222 58006;
0115825960999991997010313004-05650-035417FM-12+006199999V0200901N00511045001CN0040001N1+02931+02141101111ADDAA106000091AG10999GF107991041021008001071021KA1240N+02221MA1999999100391MD1999999+0061REMSYN017 333 20222 58006;
0096825960999991997010318004-05650-035417FM-12+006199999V0200901N00571220001CN0040001N1+03121+02081100821ADDAA106000091AG10000GF103991001001999999001091MA1999999100101MD1999999+0051REMSYN011 333 58005;
0096825960999991997010418004-05650-035417FM-12+006199999V0200901N00671220001CN0040001N1+03071+02171100771ADDAA106000091AG10000GF102991011061008001001051MA1999999100051MD1999999-0051REMSYN011 333 59005;
0150825960999991997010500004-05650-035417FM-12+006199999V0200901N00151220001CN9999999N9+02621+02311101021ADDAA106000091AG10000GA1001+999999999GF100991001001999999001001KA1240M+03141MA1999999100301MD1999999-0111REMSYN017 333 10314 59011;EQDQ01+000002VOVAR 
0115825960999991997010512004-05650-035417FM-12+006199999V0200901N00511012001CN0040001N1+02981+02281101071ADDAA106000091AG10000GF107991071081008001001001KA1240N+02331MA1999999100351MD1999999-0021REMSYN017 333 20233 59002;
0115825960999991997010612004-05650-035417FM-12+006199999V0201401N00361007501CN0040001N1+03041+02181101091ADDAA106000091AG10000GF107991071041008001011081KA1240N+01841MA1999999100371MD1999999+0021REMSYN017 333 20184 58002;
0096825960999991997010618004-05650-035417FM-12+006199999V0200901N00571220001CN0040001N1+03101+02201100841ADDAA106000091AG10000GF102991021011008001001001MA1999999100121MD1999999+0131REMSYN011 333 58013;
0131825960999991997010700004-05650-035417FM-12+006199999V0200901N00261220001CN0040001N1+02601+02311101111ADDAA106000091AG10000GA1001+999999999GF100991001001999999001001KA1240M+03231MA1999999100391MD1999999+0061REMSYN017 333 10323 58006;
0115825960999991997010712004-05650-035417FM-12+006199999V0200901N00511007501CN0040001N1+02961+02261101291ADDAA106000091AG10000GF108991051021008001011021KA1240N+02451MA1999999100571MD1999999+0201REMSYN017 333 20245 58020;
0096825960999991997010718004-05650-035417FM-12+006199999V0200901N00571045001CN0040001N1+03061+02221100921ADDAA106000091AG10000GF106991031021008001011051MA1999999100201MD1999999+0081REMSYN011 333 58008;
0150825960999991997010800004-05650-035417FM-12+006199999V0200901N00261220001CN9999999N9+02611+02331101221ADDAA106000091AG10000GA1001+999999999GF100991001001999999001001KA1240M+03141MA1999999100501MD1999999+0111REMSYN017 333 10314 58011;EQDQ01+000002VOVAR 
0115825960999991997010812004-05650-035417FM-12+006199999V0201401N00511007501CN0040001N1+02961+02261101221ADDAA106000091AG10000GF108991061021008001011999KA1240N+02381MA1999999100501MD1999999-0071REMSYN017 333 20238 59007;
0134825960999991997010900004-05650-035417FM-12+006199999V0200901N00151007501CN9999999N9+02591+02311101211ADDAA106000091AG10000GF105991051061008001001001KA1240M+03191MA1999999100491MD1999999-0011REMSYN017 333 10319 59001;EQDQ01+000002VOVAR 
0115825960999991997010912004-05650-035417FM-12+006199999V0201401N00511007501CN0040001N1+03001+02221101191ADDAA106000091AG10000GF108991061021008001061001KA1240N+02381MA1999999100471MD1999999-0031REMSYN017 333 20238 59003;
0089825960999991997011012004-05650-035417FM-12+006199999V02099999999999999999N0040001N1+03001+02141101121ADDAA106000091AG10000KA1240N+02311MA1999999100471MD1999999+0001REMSYN017 333 20231 58000;
0096825960999991997011018004-05650-035417FM-12+006199999V0201401N00411105001CN0040001N1+03091+02071100891ADDAA106000091AG10000GF106991031021008001001031MA1999999100171MD1999999-0111REMSYN011 333 59011;
0112825960999991997011118004-05650-035417FM-12+006199999V0200901N00621220001CN0040001N1+03101+02031100921ADDAA106000091AG10000GA1001+999999999GF100991001001999999001001MA1999999100201MD1999999+0031REMSYN011 333 58003;
0115825960999991997011212004-05650-035417FM-12+006199999V0201401N00361045001CN0040001N1+02941+02261101211ADDAA106000091AG10000GF106991041021008001091081KA1240N+02281MA1999999100491MD1999999+0031REMSYN017 333 20228 58003;
0112825960999991997011218004-05650-035417FM-12+006199999V0200901N00461220001CN0040001N1+03121+02081100881ADDAA106000091AG10000GA1001+999999999GF100991001001999999001001MA1999999100161MD1999999-0041REMSYN011 333 59004;
0115825960999991997011312004-05650-035417FM-12+006199999V0201401N00461045001CN0040001N1+02291+02201101231ADDAA106000091AG10000GF106991041021008001091081KA1240N+02271MA1999999100511MD1999999+0021REMSYN017 333 20227 58002;
0096825960999991997011318004-05650-035417FM-12+006199999V0200901N00571220001CN0040001N1+03091+02211100881ADDAA106000091AG10000GF106991041011008001001011MA1999999100161MD1999999+0001REMSYN011 333 58000;
0134825960999991997011400004-05650-035417FM-12+006199999V0200901N00311220001CN9999999N9+02691+02311101111ADDAA106000091AG10000GF103991031021008001001001KA1240M+03191MA1999999100391MD1999999+0021REMSYN017 333 10319 58002;EQDQ01+000002VOVAR 
0115825960999991997011412004-05650-035417FM-12+006199999V0200901N00511220001CN0040001N1+03041+02061101291ADDAA106000091AG10000GF106991041081008001001011KA1240N+02351MA1999999100571MD1999999+0061REMSYN017 333 20235 58006;
0096825960999991997011418004-05650-035417FM-12+006199999V0200901N00571045001CN0040001N1+03051+02061101081ADDAA106000091AG10000GF108991031011008001061061MA1999999100361MD1999999+0201REMSYN011 333 58020;
0162825960999991997011500004-05650-035417FM-12+006199999V0200901N00151007501CN9999999N9+02541+02361101271ADDAA106000391AG10001AY151061AY281061GF106991061021008001001001KA1240M+03141MA1999999100551MD1999999+0161MW1011REMSYN023 333 10314 58016 69931;EQDQ01+000002VOVAR 
0121825960999991997011512004-05650-035417FM-12+006199999V0200901N00621045001CN0040001N1+02991+02011101321ADDAA124000391AG10000GF107991041021008001031061KA1240N+02271MA1999999100601MD1999999+0031REMSYN023 333 20227 58003 69934;
0096825960999991997011518004-05650-035417FM-12+006199999V0200901N00511220001CN0040001N1+03151+01971101051ADDAA106000091AG10000GF104991021011008001041061MA1999999100331MD1999999-0031REMSYN011 333 59003;
0115825960999991997011612004-05650-035417FM-12+006199999V0200901N00621045001CN0040001N1+03071+02081101201ADDAA106000091AG10000GF106991041021008001091081KA1240N+02241MA1999999100481MD1999999-0121REMSYN017 333 20224 59012;
0096825960999991997011618004-05650-035417FM-12+006199999V0200901N00571105001CN0040001N1+03051+02121100911ADDAA106000091AG10000GF106991031021008001001031MA1999999100191MD1999999-0141REMSYN011 333 59014;
0150825960999991997011700004-05650-035417FM-12+006199999V0200901N00261220001CN9999999N9+02541+02191101111ADDAA106000091AG10000GA1001+999999999GF100991001001999999001001KA1240M+03141MA1999999100391MD1999999-0111REMSYN017 333 10314 59011;EQDQ01+000002VOVAR 
0115825960999991997011712004-05650-035417FM-12+006199999V0200901N00621007501CN0040001N1+03001+02141101081ADDAA106000091AG10000GF105991051021008001001001KA1240N+02141MA1999999100361MD1999999-0121REMSYN017 333 20214 59012;
0096825960999991997011718004-05650-035417FM-12+006199999V0200901N00621105001CN0040001N1+03051+02091100861ADDAA106000091AG10000GF106991041021008001001031MA1999999100141MD1999999-0151REMSYN011 333 59015;
0115825960999991997011812004-05650-035417FM-12+006199999V0200501N00511007501CN0040001N1+02911+02201101111ADDAA106000091AG10000GF106991061021008001001001KA1240N+02251MA1999999100391MD1999999+0031REMSYN017 333 20225 58003;
0096825960999991997011818004-05650-035417FM-12+006199999V0200901N00511220001CN0040001N1+03121+02151100861ADDAA106000091AG10000GF104991021011008001001061MA1999999100131MD1999999-0011REMSYN011 333 59001;
0150825960999991997011900004-05650-035417FM-12+006199999V0200901N00211220001CN9999999N9+02551+02251101131ADDAA106000091AG10000GA1001+999999999GF100991001001999999001001KA1240M+03151MA1999999100411MD1999999+0141REMSYN017 333 10315 58014;EQDQ01+000002VOVAR 
0115825960999991997011912004-05650-035417FM-12+006199999V0201401N00511007501CN0040001N1+03021+02181101221ADDAA106000091AG10000GF108991051021008001031021KA1240N+02201MA1999999100501MD1999999+0111REMSYN017 333 20220 58011;
0096825960999991997011918004-05650-035417FM-12+006199999V0200901N00621220001CN0040001N1+03061+02301100941ADDAA106000091AG10000GF104991031021008001031001MA1999999100221MD1999999+0091REMSYN011 333 58009;
0150825960999991997012000004-05650-035417FM-12+006199999V0200901N00361220001CN9999999N9+02641+02311101131ADDAA106000091AG10000GA1001+999999999GF100991001001999999001001KA1240M+03151MA1999999100411MD1999999+0001REMSYN017 333 10315 58000;EQDQ01+000002VOVAR 
0115825960999991997012012004-05650-035417FM-12+006199999V0200901N00571007501CN0040001N1+03081+02211101151ADDAA106000091AG10000GF105991051011008001001001KA1240N+02461MA1999999100431MD1999999-0071REMSYN017 333 20246 59007;
0096825960999991997012018004-05650-035417FM-12+006199999V0200901N00771220001CN0040001N1+03151+02131100851ADDAA106000091AG10000GF101991011021008001001001MA1999999100131MD1999999-0091REMSYN011 333 59009;
0115825960999991997012112004-05650-035417FM-12+006199999V0200901N00411007501CN0040001N1+02861+02211101161ADDAA106000091AG10000GF108991081021008001001001KA1240N+02321MA1999999100441MD1999999+0011REMSYN017 333 20232 58001;
0096825960999991997012118004-05650-035417FM-12+006199999V0200901N00511007501CN0040001N1+03011+02141100921ADDAA106000091AG10000GF106991051021008001001031MA1999999100201MD1999999+0071REMSYN011 333 58007;
0150825960999991997012200004-05650-035417FM-12+006199999V0200901N00151220001CN9999999N9+02631+02311101171ADDAA106000091AG10000GF104991021011999999001031KA1240M+03091MA1999999100451MD1999999+0051REMSYN017 333 10309 58005;EQDQ01+000992SCOLCBQ02+000002VOVAR 
0115825960999991997012212004-05650-035417FM-12+006199999V0200901N00511045001CN0040001N1+02981+01951101221ADDAA106000091AG10000GF108991031021008001091081KA1240N+02121MA1999999100501MD1999999+0061REMSYN017 333 20212 58006;
0096825960999991997012218004-05650-035417FM-12+006199999V0200501N00571105001CN0040001N1+02911+02121100941ADDAA106000091AG10000GF108991021011008001001061MA1999999100211MD1999999+0011REMSYN011 333 58001;
0134825960999991997012300004-05650-035417FM-12+006199999V0200901N00211220001CN9999999N9+02601+02251101131ADDAA106000091AG10000GF105991001001999999001061KA1240M+03101MA1999999100411MD1999999-0041REMSYN017 333 10310 59004;EQDQ01+000002VOVAR 
0134825960999991997012312004-05650-035417FM-12+006199999V0200901N00211220001CN9999999N9+02601+02251101131ADDAA106000091AG10000GF105991001001999999001061KA1240M+03101MA1999999100411MD1999999-0041REMSYN017 333 10310 59004;EQDQ01+000002VOVAR 
0096825960999991997012318004-05650-035417FM-12+006199999V0200901N00671105001CN0040001N1+02951+02161100931ADDAA106000091AG10000GF107991031001017501031061MA1999999100201MD1999999-0011REMSYN011 333 59001;
0143825960999991997012412004-05650-035417FM-12+006199999V0201801N00311007501CN0020001N1+02421+02281101281ADDAA124021091AG10006AY161061AY261061GF108991081071008001001001KA1240N+02221MA1999999100551MD1999999+0091MW1641REMSYN023 333 20222 58009 60214;
0124825960999991997012418004-05650-035417FM-12+006199999V0200901N00311007501CN0040001N1+02621+02351101011ADDAA106003091AG10006AY161061AY221061GF108991081061008001001001MA1999999100291MD1999999+0091MW1021REMSYN017 333 58009 60031;
0134825960999991997012500004-05650-035417FM-12+006199999V0209991C00001007501CN9999999N9+02481+02301101191ADDAA106000091AG10000GF108991081061008001001001KA1240M+02981MA1999999100461MD1999999+0001REMSYN017 333 10298 58000;EQDQ01+000002VOVAR 
0143825960999991997012512004-05650-035417FM-12+006199999V0200901N00511045001CN0040001N1+02851+02231101131ADDAA124000591AG10001AY151061AY221061GF107991021021008001091081KA1240N+02101MA1999999100411MD1999999-0141MW1011REMSYN023 333 20210 59014 69964;
0096825960999991997012518004-05650-035417FM-12+006199999V0200901N00621045001CN0040001N1+02901+02271100901ADDAA106000091AG10000GF107991031021008001091001MA1999999100181MD1999999-0111REMSYN011 333 59011;
0150825960999991997012600004-05650-035417FM-12+006199999V0200901N00211220001CN9999999N9+03521+02251101191ADDAA106000091AG10000GF102991001001999999001031KA1240M+99999MA1999999100471MD1999999+0011REMSYN017 333 10307 58001;EQDQ01+000002VOVAR Q02 +03072ATMX  
0115825960999991997012612004-05650-035417FM-12+006199999V0200901N00311105001CN0040001N1+02931+02291101181ADDAA106000091AG10000GF107991041021008001001091KA1240N+02201MA1999999100391MD1999999-0021REMSYN017 333 20220 59002;
0096825960999991997012618004-05650-035417FM-12+006199999V0200901N00621220001CN0040001N1+03011+02171100781ADDAA106000091AG10000GF104991031021008001031001MA1999999100051MD1999999-0131REMSYN011 333 59013;
0115825960999991997012712004-05650-035417FM-12+006199999V0200901N00461105001CN0040001N1+02931+02241101061ADDAA106000091AG10000GF105991021011008001031021KA1240N+02261MA1999999100341MD1999999-0051REMSYN017 333 20226 59005;
0096825960999991997012718004-05650-035417FM-12+006199999V0200901N00511105001CN0040001N1+02941+02081100891ADDAA106000091AG10000GF107991031011008001001081MA1999999100141MD1999999+0091REMSYN011 333 58009;
0150825960999991997012800004-05650-035417FM-12+006199999V0200901N00261220001CN9999999N9+02561+02211101081ADDAA106000091AG10000GA1001+999999999GF100991001001999999001001KA1240M+03101MA1999999100361MD1999999-0041REMSYN017 333 10310 59004;EQDQ01+000002VOVAR 
0070825960999991997012812004-05650-035417FM-12+006199999V0200901N005119999999N0040001N1+02891+02311101171ADDAG10000GF107991999021008001061051MA1999999100451EQDQ01+000002SCOTLC
0096825960999991997012818004-05650-035417FM-12+006199999V0200501N00571220001CN0040001N1+03041+02231100881ADDAA106000091AG10000GF104991041011008001001001MA1999999100161MD1999999+0021REMSYN011 333 58002;
0134825960999991997012900004-05650-035417FM-12+006199999V0200901N00311220001CN9999999N9+02641+02231101041ADDAA106000091AG10000GF101991011011008001001001KA1240M+03101MA1999999100321MD1999999-0041REMSYN017 333 10310 59004;EQDQ01+000002VOVAR 
0143825960999991997012912004-05650-035417FM-12+006199999V0200901N00621007501CN0040001N1+02911+02271101061ADDAA124001091AG10001AY151061AY211061GF107991051011008001031001KA1240N+02251MA1999999100341MD1999999-0111MW1011REMSYN023 333 20225 59011 60014;
0115825960999991997013012004-05650-035417FM-12+006199999V0201401N00461007501CN0040001N1+02991+02011101091ADDAA106000091AG10000GF105991051021008001001001KA1240N+02161MA1999999100371MD1999999+0031REMSYN017 333 20216 58003;
0096825960999991997013018004-05650-035417FM-12+006199999V0200901N00571220001CN0040001N1+03061+02051100871ADDAA106000091AG10000GF103991021021008001001031MA1999999100151MD1999999+0011REMSYN011 333 58001;
0115825960999991997013112004-05650-035417FM-12+006199999V0200501N00461220001CN0040001N1+02971+02231101211ADDAA106000091AG10000GF104991031011008001001031KA1240N+02231MA1999999100491MD1999999-0121REMSYN017 333 20223 59012;
0096825960999991997013118004-05650-035417FM-12+006199999V0200901N004619999999N0040001N1+02981+02201100901ADDAA106000091AG10000GF108991061001008001011061MA1999999100171MD1999999+0021REMSYN011 333 58002;
0115825960999991997020112004-05650-035417FM-12+006199999V0200901N00571007501CN0040001N1+03011+02141101171ADDAA106000091AG10000GF106991061011008001001001KA1240N+02171MA1999999100451MD1999999-0041REMSYN017 333 20217 59004;
0096825960999991997020118004-05650-035417FM-12+006199999V0200901N00671105001CN0040001N1+03081+02101100871ADDAA106000091AG10000GF106991001001999999001031MA1999999100151MD1999999-0021REMSYN011 333 59002;
0132825960999991997020212004-05650-035417FM-12+006199999V0200901N00571007501CN0040001N1+02931+02191101161ADDAA106000091AA224002091AG10000GF105991051011008001001001KA1240N+02331MA1999999100441MD1999999-0011REMSYN023 333 20233 59001 60024;
0096825960999991997020218004-05650-035417FM-12+006199999V0200901N00511220001CN0040001N1+03091+02101100911ADDAA106000091AG10000GF101991011011008001001001MA1999999100191MD1999999+0041REMSYN011 333 58004;
0115825960999991997020312004-05650-035417FM-12+006199999V0200901N00511007501CN0040001N1+03031+02021101101ADDAA106000091AG10000GF106991061021008001001001KA1240N+02191MA1999999100381MD1999999-0061REMSYN017 333 20219 59006;
0112825960999991997020318004-05650-035417FM-12+006199999V0200901N00671220001CN0040001N1+03151+02131100841ADDAA106000091AG10000GA1001+999999999GF100991001001999999001001MA1999999100121MD1999999-0071REMSYN011 333 59007;
0150825960999991997020400004-05650-035417FM-12+006199999V0200901N00311220001CN9999999N9+02601+02391101011ADDAA106000091AG10000GA1001+999999999GF100991001001999999001001KA1240M+03161MA1999999100291MD1999999-0021REMSYN017 333 10316 59002;EQDQ01+000002VOVAR 
0096825960999991997020418004-05650-035417FM-12+006199999V0200901N00621220001CN0040001N1+03081+02071100851ADDAA106000091AG10000GF102991021011008001001001MA1999999100131MD1999999+0011REMSYN011 333 58001;
0115825960999991997020512004-05650-035417FM-12+006199999V0200901N00621007501CN0040001N1+03081+02071101111ADDAA106000091AG10000GF106991061011008001001001KA1240N+02211MA1999999100391MD1999999-0031REMSYN017 333 20221 59003;
0112825960999991997020518004-05650-035417FM-12+006199999V0200901N00671220001CN0040001N1+03121+01951100771ADDAA106000091AG10000GA1001+999999999GF100991001001999999001001MA1999999100051MD1999999-0081REMSYN011 333 59008;
0115825960999991997020612004-05650-035417FM-12+006199999V0200901N00671007501CN0040001N1+02971+02021101181ADDAA106000091AG10000GF105991051011008001001001KA1240N+02301MA1999999100461MD1999999+0071REMSYN017 333 20230 58007;
0112825960999991997020618004-05650-035417FM-12+006199999V0200901N00511220001CN0040001N1+03081+01921100971ADDAA106000091AG10000GA1001+999999999GF100991001001999999001001MA1999999100231MD1999999+0181REMSYN011 333 58018;
0143825960999991997020712004-05650-035417FM-12+006199999V0200901N00311007501CN0040001N1+02701+02371101241ADDAA124001091AG10001AY151061AY211061GF107991071021008001999999KA1240N+02231MA1999999100521MD1999999+0061MW1511REMSYN023 333 20223 58006 69994;
0096825960999991997020718004-05650-035417FM-12+006199999V0200901N00511045001CN0040001N1+03021+02241101001ADDAA106000091AG10000GF105991031011008001031001MA1999999100281MD1999999+0051REMSYN011 333 58005;
0123825960999991997021012004-05650-035417FM-12+006199999V0200901N00511105001CN0040001N1+02921+02221101271ADDAA124037091AG10007AY161061AY221061GF106991041021008001001021KA1240N+02211MA1999999100551MW1031REMSYN017 333 20221 60374;
0076825960999991997021018004-05650-035417FM-12+006199999V0200901N00571220001CN0040001N1+03021+02261101071ADDAA106000091AG10000GF104991041021008001001001MA1999999100351REMSYN005 333;
0115825960999991997021212004-05650-035417FM-12+006199999V0200901N00571045001CN0040001N1+02941+02191101181ADDAA106000091AG10000GF106991031011008001091031KA1240N+02271MA1999999100461MD1999999+0011REMSYN017 333 20227 58001;
0096825960999991997021218004-05650-035417FM-12+006199999V0200901N00571105001CN0040001N1+02981+02281100971ADDAA106000091AG10000GF107991041021008001001031MA1999999100251MD1999999-0031REMSYN011 333 59003;
0150825960999991997021300004-05650-035417FM-12+006199999V0200901N00311220001CN9999999N9+02621+02391101051ADDAA106000091AG10000GA1001+999999999GF100991001001999999001001KA1240M+03181MA1999999100331MD1999999-0031REMSYN017 333 10318 59003;EQDQ01+000002VOVAR 
0115825960999991997021312004-05650-035417FM-12+006199999V0200901N00671012001CN0040001N1+02931+02171101301ADDAA106000091AG10000GF107991051081008001001031KA1240N+02331MA1999999100581MD1999999+0121REMSYN017 333 20233 58012;
0096825960999991997021318004-05650-035417FM-12+006199999V0200901N00511045001CN0040001N1+02961+02071101111ADDAA106000091AG10000GF106991021011008001031091MA1999999100391MD1999999+0141REMSYN011 333 58014;
0096825960999991997021418004-05650-035417FM-12+006199999V0200901N00721045001CN0040001N1+03041+02091101061ADDAA106000091AG10000GF105991031021008001031001MA1999999100341MD1999999-0051REMSYN011 333 59005;
0115825960999991997021512004-05650-035417FM-12+006199999V0200901N00621045001CN0040001N1+02911+02151101291ADDAA106000091AG10000GF107991031021008001091031KA1240N+02251MA1999999100571MD1999999+0011REMSYN017 333 20225 58001;
0096825960999991997021518004-05650-035417FM-12+006199999V0200901N00511045001CN0040001N1+03031+02101101021ADDAA106000091AG10000GF105991031021008001021001MA1999999100301MD1999999-0041REMSYN011 333 59004;
0115825960999991997021612004-05650-035417FM-12+006199999V0200901N00511105001CN0040001N1+02951+02141101281ADDAA106000091AG10000GF107991041011008001001091KA1240N+02281MA1999999100561MD1999999-0011REMSYN017 333 20228 59001;
0096825960999991997021618004-05650-035417FM-12+006199999V0200901N00461105001CN0040001N1+03011+02051100951ADDAA106000091AG10000GF107991021011008001001061MA1999999100231MD1999999-0071REMSYN011 333 59007;
0143825960999991997021712004-05650-035417FM-12+006199999V0200901N00621045001CN0040001N1+02851+02221101251ADDAA124000391AG10001AY151061AY211061GF107991041021008001041081KA1240N+02361MA1999999100531MD1999999-0031MW1031REMSYN023 333 20236 59003 69934;
0096825960999991997021718004-05650-035417FM-12+006199999V0200901N00721045001CN0040001N1+02951+02211100961ADDAA106000091AG10000GF107991031011008001031061MA1999999100241MD1999999+0011REMSYN011 333 58001;
0150825960999991997021800004-05650-035417FM-12+006199999V0200901N00211220001CN9999999N9+02561+02271101071ADDAA106000091AG10000GF103991031061999999001001KA1240M+03141MA1999999100351MD1999999-0071REMSYN017 333 10314 59007;EQDQ01+000992SCOLCBQ02+000002VOVAR 
0143825960999991997021812004-05650-035417FM-12+006199999V0200901N00261105001CN0040001N1+02761+02381101291ADDAA124021091AG10007AY161061AY251061GF107991041021008001001031KA1240N+02301MA1999999100571MD1999999+0041MW1031REMSYN023 333 20230 58004 60214;
0143825960999991997021818004-05650-035417FM-12+006199999V0201801N00511007501CN0040001N1+02421+02251101001ADDAA106002091AG10007AY161061AY251061GF108991999021008001061999MA1999999100271MD1999999+0031MW1631REMSYN017 333 58003 60021;EQDQ01+000082SCOTLC
0115825960999991997021900004-05650-035417FM-12+006199999V0200901N00151220001CN0040001N1+02331+02131101171ADDAA106000091AG10000GF104991041011008001001001KA1240M+02931MA1999999100451MD1999999+0101REMSYN017 333 10293 58010;
0143825960999991997021912004-05650-035417FM-12+006199999V0200901N00461007501CN0040001N1+02791+02381101221ADDAA124010091AG10007AY161061AY251061GF106991061021008001001001KA1240N+02271MA1999999100501MD1999999-0071MW1031REMSYN023 333 20227 59007 60104;
0096825960999991997021918004-05650-035417FM-12+006199999V0200901N00411045001CN0040001N1+02911+02221100961ADDAA106000091AG10000GF106991021011008001031091MA1999999100241MD1999999-0031REMSYN011 333 59003;
0115825960999991997022000004-05650-035417FM-12+006199999V0200901N00101220001CN0040001N1+02491+02301101221ADDAA106000091AG10000GF104991021011008001001091KA1240M+03001MA1999999100501MD1999999+0051REMSYN017 333 10300 58005;
0143825960999991997022012004-05650-035417FM-12+006199999V0201801N00211007501CN0040001N1+02641+02391101211ADDAA124006091AG10007AY161061AY221061GF108991081011008001999999KA1240N+02291MA1999999100541MD1999999+0041MW1011REMSYN023 333 20229 58004 60064;
0096825960999991997022018004-05650-035417FM-12+006199999V0200901N00461220001CN0040001N1+02961+02331100931ADDAA106000091AG10000GF104991041021008001001001MA1999999100211MD1999999-0031REMSYN011 333 59003;
0143825960999991997022112004-05650-035417FM-12+006199999V0201401N00511045001CN0040001N1+02801+02291101291ADDAA124006091AG10007AY161061AY251061GF107991041021008001031091KA1240N+02361MA1999999100571MD1999999+0031MW1031REMSYN023 333 20236 58003 60064;
0096825960999991997022118004-05650-035417FM-12+006199999V0200901N00571007501CN0040001N1+02941+02361101011ADDAA106000091AG10000GF107991051021008001011061MA1999999100291MD1999999+0081REMSYN011 333 58008;
0143825960999991997022212004-05650-035417FM-12+006199999V0200901N00671045001CN0040001N1+02901+02321101391ADDAA124000591AG10001AY151061AY211061GF106991041021008001031001KA1240N+02411MA1999999100661MD1999999+0091MW1011REMSYN023 333 20241 58009 69944;
0096825960999991997022218004-05650-035417FM-12+006199999V0200901N00511220001CN0040001N1+02961+02351101121ADDAA106000091AG10000GF103991031011008001001001MA1999999100391MD1999999+0101REMSYN011 333 58010;
0143825960999991997022312004-05650-035417FM-12+006199999V0200901N00571007501CN0040001N1+02831+02331101401ADDAA124003091AG10007AY161061AY251061GF107991051061008001031001KA1240N+02351MA1999999100671MD1999999+0011MW1011REMSYN023 333 20235 58001 60034;
0096825960999991997022318004-05650-035417FM-12+006199999V0201401N00461220001CN0040001N1+03031+02241101081ADDAA106000091AG10000GF102991021011008001001001MA1999999100361MD1999999-0031REMSYN011 333 59003;
0115825960999991997022412004-05650-035417FM-12+006199999V0200901N00571220001CN0040001N1+02941+02221101241ADDAA106000091AG10000GF104991041081008001001001KA1240N+02341MA1999999100521MD1999999-0151REMSYN017 333 20234 59015;
0096825960999991997022418004-05650-035417FM-12+006199999V0200901N00571220001CN0040001N1+03011+02111100941ADDAA106000091AG10000GF102991021011008001001001MA1999999100221MD1999999-0141REMSYN011 333 59014;
0150825960999991997022500004-05650-035417FM-12+006199999V0200901N00261220001CN9999999N9+02521+02311101111ADDAA106000091AG10000GA1001+999999999GF100991001001999999001001KA1240M+03111MA1999999100391MD1999999-0181REMSYN017 333 10311 59018;EQDQ01+000002VOVAR 
0115825960999991997022512004-05650-035417FM-12+006199999V0200901N00511012001CN0040001N1+02931+02121101181ADDAA106000091AG10000GF106991061081008001001001KA1240N+02321MA1999999100461MD1999999-0061REMSYN017 333 20232 59006;
0115825960999991997022518004-05650-035417FM-12+006199999V0200901N00571220001CN0040001N1+02961+02101100931ADDAA106000091AG10000GF104991041011999999001001MA1999999100211MD1999999-0011REMSYN011 333 59001;EQDQ01+000992SCOLCB
0150825960999991997022600004-05650-035417FM-12+006199999V0200901N00211220001CN9999999N9+02391+02121101111ADDAA106000091AG10000GA1001+999999999GF100991001001999999001001KA1240M+03081MA1999999100391MD1999999+0001REMSYN017 333 10308 58000;EQDQ01+000002VOVAR 
0096825960999991997022618004-05650-035417FM-12+006199999V0200901N00821007501CN0040001N1+02971+01991101001ADDAA106000091AG10000GF105991051011008001001001MA1999999100271MD1999999+0061REMSYN011 333 58006;
0134825960999991997022700004-05650-035417FM-12+006199999V0200901N00151220001CN9999999N9+02491+02271101171ADDAA106000091AG10000GF102991021061008001001001KA1240M+03101MA1999999100451MD1999999+0061REMSYN017 333 10310 58006;EQDQ01+000002VOVAR 
0115825960999991997022712004-05650-035417FM-12+006199999V0200901N00411007501CN0040001N1+02861+02281101271ADDAA106000091AG10000GF107991071021008001001001KA1240N+02191MA1999999100551MD1999999+0011REMSYN017 333 20219 58001;
0096825960999991997022818004-05650-035417FM-12+006199999V0200901N00571220001CN0040001N1+03151+02051100761ADDAA106000091AG10000GF102991001001999999001061MA1999999100031MD1999999-0231REMSYN011 333 59023;
0150825960999991997030100004-05650-035417FM-12+006199999V0200901N00151220001CN9999999N9+02621+02291101021ADDAA106000091AG10000GA1001+999999999GF100991001001999999001001KA1240M+03161MA1999999100301MD1999999-0081REMSYN017 333 10316 59008;EQDQ01+000002VOVAR 
0115825960999991997030112004-05650-035417FM-12+006199999V0200501N00461007501CN0040001N1+02941+02291101071ADDAA106000091AG10000GF106991061021008001001001KA1240N+02311MA1999999100351MD1999999-0051REMSYN017 333 20231 59005;
0096825960999991997030118004-05650-035417FM-12+006199999V0200501N005110450019N0040001N1+03031+02161100781ADDAA106000091AG10000GF107991031011008001091081MA1999999100061MD1999999+0031REMSYN011 333 58003;
0115825960999991997030212004-05650-035417FM-12+006199999V0200501N00361045001CN0040001N1+02971+02421101011ADDAA106000091AG10000GF106991041021008001021001KA1240N+02301MA1999999100291MD1999999-0061REMSYN017 333 20230 59006;
0132825960999991997030312004-05650-035417FM-12+006199999V0200901N00211007501CN0040001N1+02541+02441101161ADDAG10006AY161061AY221061GF108991051071008001021051KA1240N+02261MA1999999100431MD1999999+0141MW1651REMSYN023 333 20226 58014 69374;
0076825960999991997030318004-05650-035417FM-12+006199999V0200901N00511045001CN0040001N1+02921+02391100861ADDAA106000091AG10000GF108991041021008001051031MA1999999100131REMSYN005 333;
0130825960999991997030400004-05650-035417FM-12+006199999V0200901N00261220001CN9999999N9+02641+02411101141ADDAA106000091AG10000GA1001+999999999GF100991001001999999001001KA1999M+03041MA1999999100421REMSYN011 333 10304;EQDQ01+000002VOVAR 
0115825960999991997030412004-05650-035417FM-12+006199999V0200901N00511007501CN0040001N1+02901+02321101211ADDAA106000091AG10000GF108991051021008001011999KA1240N+02571MA1999999100491MD1999999+0061REMSYN017 333 20257 58006;
0096825960999991997030418004-05650-035417FM-12+006199999V0200901N00461045001CN0040001N1+02871+02281100941ADDAA106000091AG10000GF107991041021008001011081MA1999999100331MD1999999+0091REMSYN011 333 58009;
0178825960999991997030500004-05650-035417FM-12+006199999V0200901N002119999999N9999999N9+02461+02301101141ADDAA106002091AG10006AY161061AY221061GF105991999021008001001001KA1240M+02991MA1999999100481MD1999999+0061MW1031REMSYN023 333 10299 58006 60021;EQDQ01+000042SCOTLCQ02+000002VOVAR 
0143825960999991997030512004-05650-035417FM-12+006199999V0200901N00461045001CN0040001N1+02861+02371101201ADDAA124002091AG10006AY161061AY211061GF106991021081008001031091KA1240N+02381MA1999999100481MD1999999-0011MW1021REMSYN023 333 20238 59001 60024;
0096825960999991997030518004-05650-035417FM-12+006199999V0200901N00571045001CN0040001N1+02811+02271100961ADDAA106000091AG10000GF107991041021008001011081MA1999999100231MD1999999+0011REMSYN011 333 58001;
0150825960999991997030600004-05650-035417FM-12+006199999V0200901N00211220001CN9999999N9+02521+02221101161ADDAA106000091AG10000GA1001+999999999GF100991001001999999001001KA1240M+03001MA1999999100441MD1999999-0081REMSYN017 333 10300 59008;EQDQ01+000002VOVAR 
0115825960999991997030612004-05650-035417FM-12+006199999V0200901N00571045001CN0040001N1+02911+02201101131ADDAA106000091AG10000GF106991031011008001051091KA1240N+02461MA1999999100411MD1999999-0071REMSYN017 333 20246 59007;
0096825960999991997030618004-05650-035417FM-12+006199999V0200901N00671220001CN0040001N1+02991+02121100851ADDAA106000091AG10000GF103991021011008001051001MA1999999100121MD1999999-0111REMSYN011 333 59011;
0150825960999991997030700004-05650-035417FM-12+006199999V0200901N00311220001CN9999999N9+02581+02351101121ADDAA106000091AG10000GA1001+999999999GF100991001001999999001001KA1240M+03061MA1999999100401MD1999999-0041REMSYN017 333 10306 59004;EQDQ01+000002VOVAR 
0115825960999991997030712004-05650-035417FM-12+006199999V0200901N00051007501CN0040001N1+02881+02301101191ADDAA106000091AG10000GF106991061021008001001001KA1240N+02251MA1999999100471MD1999999+0061REMSYN017 333 20225 58006;
0096825960999991997030718004-05650-035417FM-12+006199999V0200901N00571007501CN0040001N1+02991+02281100891ADDAA106000091AG10000GF105991051011008001001001MA1999999100171MD1999999+0051REMSYN011 333 58005;
0150825960999991997030800004-05650-035417FM-12+006199999V0200901N00261220001CN9999999N9+02541+02251101211ADDAA106000091AG10000GA1001+999999999GF100991001001999999001001KA1240M+03121MA1999999100491MD1999999+0091REMSYN017 333 10312 58009;EQDQ01+000002VOVAR 
0115825960999991997030812004-05650-035417FM-12+006199999V0200901N00571045001CN0040001N1+02971+02261101211ADDAA106000091AG10000GF106991041011008001051031KA1240N+02261MA1999999100491MD1999999+0021REMSYN017 333 20226 58002;
0096825960999991997030818004-05650-035417FM-12+006199999V0200901N00511220001CN0040001N1+03081+02241100921ADDAA106000091AG10000GF104991031001017501051031MA1999999100201MD1999999+0031REMSYN011 333 58003;
0150825960999991997030900004-05650-035417FM-12+006199999V0200901N00211220001CN9999999N9+02641+02371101181ADDAA106000091AG10000GA1001+999999999GF100991001001999999001001KA1240M+03161MA1999999100461MD1999999-0031REMSYN017 333 10316 59003;EQDQ01+000002VOVAR 
0143825960999991997030912004-05650-035417FM-12+006199999V0200901N00511045001CN0040001N1+02991+02201101191ADDAA124000591AG10001AY151061AY211061GF106991031021008001051021KA1240N+02361MA1999999100471MD1999999-0021MW1011REMSYN023 333 20236 59002 69944;
0096825960999991997030918004-05650-035417FM-12+006199999V0200901N00511105001CN0040001N1+03051+02381100871ADDAA106000091AG10000GF105991041021008001001091MA1999999100141MD1999999-0061REMSYN011 333 59006;
0134825960999991997031012004-05650-035417FM-12+006199999V0200901N00621045001CN0040001N1+02941+02261101191ADDAA106000091AG10000GF107991031061008001011001KA1240M+99999MA1999999100471MD1999999+0001REMSYN017 333 10241 58000;EQDQ01 +02412ATMX  
0096825960999991997031018004-05650-035417FM-12+006199999V0200901N00571105001CN0040001N1+03051+02181100871ADDAA106000091AG10000GF106991021011008001031031MA1999999100151MD1999999+0011REMSYN011 333 58001;
0150825960999991997031100004-05650-035417FM-12+006199999V0200901N00261220001CN9999999N9+02631+02251101131ADDAA106000091AG10000GA1001+999999999GF100991001001999999001001KA1240M+03191MA1999999100411MD1999999+0011REMSYN017 333 10319 58001;EQDQ01+000002VOVAR 
0115825960999991997031112004-05650-035417FM-12+006199999V0200901N00671220001CN0040001N1+03011+02141101181ADDAA106000091AG10000GF106991041081008001001041KA1240N+02301MA1999999100461MD1999999-0011REMSYN017 333 20230 59001;
0096825960999991997031118004-05650-035417FM-12+006199999V0200901N00621105001CN0040001N1+03071+02271100911ADDAA106000091AG10000GF106991041021008001001081MA1999999100191MD1999999+0041REMSYN011 333 58004;
0143825960999991997031212004-05650-035417FM-12+006199999V0200901N00261007501CN0040001N1+02601+02441101301ADDAA124031091AG10006AY161061AY251061GF108991051071008001011999KA1240N+02271MA1999999100571MD1999999+0111MW1511REMSYN023 333 20227 58011 60314;
0124825960999991997031218004-05650-035417FM-12+006199999V0200501N00621045001CN0040001N1+02411+02241101101ADDAA106002091AG10000AY121061AY221061GF108991041071008001021999MA1999999100371MD1999999+0181MW1611REMSYN017 333 58018 60021;
0162825960999991997031300004-05650-035417FM-12+006199999V0200501N00151007501CN9999999N9+02521+02421101361ADDAA106003091AG10006AY161061AY251061GF108991081071008001999999KA1240M+03041MA1999999100631MD1999999+0151MW1611REMSYN023 333 10304 58015 60031;EQDQ01+000002VOVAR 
0124825960999991997031318004-05650-035417FM-12+006199999V0200901N00361045001CN0040001N1+02901+02411101111ADDAA106000191AG10001AY151061AY221061GF107991041021008001091091MA1999999100391MD1999999+0031MW1021REMSYN017 333 58003 69921;
0162825960999991997031400004-05650-035417FM-12+006199999V0200901N00311007501CN9999999N9+02531+02421101371ADDAA106002091AG10000AY121061AY221061GF108991081071008001999999KA1240M+02951MA1999999100631MD1999999+0021MW1611REMSYN023 333 10295 58002 60021;EQDQ01+000002VOVAR 
0143825960999991997031412004-05650-035417FM-12+006199999V0200901N00571045001CN0040001N1+02881+02351101301ADDAA124011091AG10006AY161061AY261061GF107991041021008001031091KA1240N+02381MA1999999100581MD1999999-0051MW1031REMSYN023 333 20238 59005 60114;
0076825960999991997031418004-05650-035417FM-12+006199999V0200901N00571045001CN0040001N1+03031+02141100931ADDAA106000091AG10000GF106991041021008001041031MA1999999100201REMSYN005 333;
0143825960999991997031512004-05650-035417FM-12+006199999V0201801N00311007501CN0040001N1+02601+02441101231ADDAA124020091AG10006AY161061AY261061GF108991051071008001011999KA1240N+02301MA1999999100501MD1999999-0081MW1611REMSYN023 333 20230 59008 60204;
0124825960999991997031518004-05650-035417FM-12+006199999V0200901N00461220001CN0040001N1+02971+02191100921ADDAA106005091AG10006AY161061AY251061GF104991021001017501041091MA1999999100201MD1999999-0101MW1161REMSYN017 333 59010 60051;
0134825960999991997031600004-05650-035417FM-12+006199999V0201401N00211220001CN9999999N9+02441+02321101121ADDAA106000091AG10000GF102991001001999999001051KA1240M+02951MA1999999100391MD1999999-0151REMSYN017 333 10295 59015;EQDQ01+000002VOVAR 
0110825960999991997031612004-05650-035417FM-12+006199999V0200901N00361105001CN0040001N1+02801+02341101121ADDAG10000GF106991041021008001001021KA1240N+02211MA1999999100391MD1999999-0111REMSYN023 333 20221 59011 69054;
0096825960999991997031618004-05650-035417FM-12+006199999V0200901N00411105001CN0040001N1+02911+02101100831ADDAA106000091AG10000GF107991031011008001001091MA1999999100101MD1999999-0101REMSYN011 333 59010;
0150825960999991997031700004-05650-035417FM-12+006199999V0200901N00151220001CN9999999N9+02401+02241101051ADDAA106000091AG10000GA1001+999999999GF100991001001999999001001KA1240M+02991MA1999999100321MD1999999-0071REMSYN017 333 10299 59007;EQDQ01+000002VOVAR 
0115825960999991997031712004-05650-035417FM-12+006199999V0200901N00511220001CN0040001N1+02891+02301101081ADDAA106000091AG10000GF106991031021008001001061KA1240N+02231MA1999999100361MD1999999-0031REMSYN017 333 20223 59003;
0096825960999991997031718004-05650-035417FM-12+006199999V0200501N00411220001CN0040001N1+02971+02231100751ADDAA106000091AG10000GF106991021011008001001061MA1999999100021MD1999999-0081REMSYN011 333 59008;
0150825960999991997031800004-05650-035417FM-12+006199999V0200501N00151220001CN9999999N9+02541+02331101021ADDAA106000091AG10000GA1001+999999999GF100991001001999999001001KA1240M+03071MA1999999100301MD1999999-0021REMSYN017 333 10307 59002;EQDQ01+000002VOVAR 
0115825960999991997031812004-05650-035417FM-12+006199999V0200501N00461007501CN0040001N1+02951+02381101271ADDAA106000091AG10000GF106991061021008001001001KA1240N+02191MA1999999100351MD1999999-0011REMSYN017 333 20219 59001;
0096825960999991997031818004-05650-035417FM-12+006199999V0200501N00461007501CN0040001N1+03031+02291100731ADDAA106000091AG10000GF106991061011008001001001MA1999999100011MD1999999-0011REMSYN011 333 59001;
0150825960999991997031900004-05650-035417FM-12+006199999V0200901N00151220001CN9999999N9+02521+02341101041ADDAA106000091AG10000GA1001+999999999GF100991001001999999001001KA1240M+03131MA1999999100321MD1999999+0021REMSYN017 333 10313 58002;EQDQ01+000002VOVAR 
0115825960999991997031912004-05650-035417FM-12+006199999V0200901N00411045001CN0040001N1+02931+02291100951ADDAA106000091AG10000GF107991031081008001061081KA1240N+02381MA1999999100231MD1999999-0121REMSYN017 333 20238 59012;
0096825960999991997031918004-05650-035417FM-12+006199999V0200901N00571220001CN0040001N1+03011+02141100731ADDAA106000091AG10000GF106991021011008001001061MA1999999100011MD1999999+0001REMSYN011 333 58000;
0115825960999991997032012004-05650-035417FM-12+006199999V0201401N00261007501CN0040001N1+02871+02421101001ADDAA106000091AG10000GF107991071021008001001001KA1240N+02321MA1999999100281MD1999999+0051REMSYN017 333 20232 58005;
0096825960999991997032018004-05650-035417FM-12+006199999V0200901N00461220001CN0040001N1+03011+02221100721ADDAA106000091AG10000GF102991021011008001001001MA1999999100001MD1999999-0011REMSYN011 333 59001;
0115825960999991997032100004-05650-035417FM-12+006199999V0200901N00211220001CN0040001N1+02591+02351101021ADDAA106000091AG10000GF101991011021008001001001KA1240M+03171MA1999999100301MD1999999+0001REMSYN017 333 10317 58000;
0143825960999991997032112004-05650-035417FM-12+006199999V0200901N00361012001CN0040001N1+02921+02271101031ADDAA124003091AG10006AY161061AY251061GF106991061081008001001001KA1240N+02311MA1999999100311MD1999999+0031MW1021REMSYN023 333 20231 58003 60034;
0096825960999991997032118004-05650-035417FM-12+006199999V0200901N00311220001CN0040001N1+03031+02341100721ADDAA106000091AG10000GF102991021011008001001001MA1999999099981MD1999999-0021REMSYN011 333 59002;
0115825960999991997032200004-05650-035417FM-12+006199999V0200901N00261220001CN0040001N1+02611+02391101111ADDAA106000091AG10000GF103991031061008001001001KA1240M+03931MA1999999100391MD1999999-0011REMSYN017 333 10393 59001;
0132825960999991997032212004-05650-035417FM-12+006199999V0200901N00411007501CN0040001N1+02851+02331101111ADDAA106000091AA224000591AG10001GF108991081021008001999999KA1240N+02421MA1999999100391MD1999999+0081REMSYN023 333 20242 58008 69954;
0096825960999991997032218004-05650-035417FM-12+006199999V0200901N00261045001CN0040001N1+02771+02341100841ADDAA106000091AG10000GF108991041021008001021999MA1999999100111MD1999999+0131REMSYN011 333 58013;
0096825960999991997032318004-05650-035417FM-12+006199999V0200901N00461045001CN0040001N1+03001+02391100901ADDAA106000091AG10000GF107991031021008001051021MA1999999100811MD1999999+0071REMSYN011 333 58007;
0134825960999991997032400004-05650-035417FM-12+006199999V0200901N00101015001CN9999999N9+02591+02421101201ADDAA106000091AG10000GF108991081001017501011999KA1240M+03051MA1999999100481MD1999999+0001REMSYN017 333 10305 58000;EQDQ01+000002VOVAR 
0115825960999991997032412004-05650-035417FM-12+006199999V0200901N00211045001CN0040001N1+02801+02441101201ADDAA106000091AG10000GF107991041021008001061081KA1240N+02421MA1999999100481MD1999999+0051REMSYN017 333 20242 58005;
0096825960999991997032418004-05650-035417FM-12+006199999V0200901N00461045001CN0040001N1+02881+02351100781ADDAA106000091AG10000GF108991021021008001091081MA1999999100051MD1999999-0131REMSYN011 333 59013;
0134825960999991997032500004-05650-035417FM-12+006199999V0200901N00051015001CN9999999N9+02591+02421101091ADDAA106000091AG10000GF108991081001017501011999KA1240M+03071MA1999999100371MD1999999-0111REMSYN017 333 10307 59011;EQDQ01+000002VOVAR 
0143825960999991997032512004-05650-035417FM-12+006199999V0200901N00261045001CN0040001N1+02861+02441101071ADDAA124000191AG10001AY151061AY221061GF107991031031008001081091KA1240N+02361MA1999999100351MD1999999-0131MW1031REMSYN023 333 20236 59013 69924;
0124825960999991997032518004-05650-035417FM-12+006199999V0201401N00151007501CN0040001N1+02621+02461100781ADDAA106083091AG10018AY191061AY261061GF108991051021008001021999MA1999999100051MD1999999+0001MW1151REMSYN017 333 58000 60831;
0178825960999991997032600004-05650-035417FM-12+006199999V0200501N001019999999N9999999N9+02411+02261101091ADDAA106002091AG10006AY161061AY251061GF108991999999008001999999KA1240M+02911MA1999999100361MD1999999-0011MW1171REMSYN023 333 10291 59001 60021;EQDQ01+000092SCOTLCQ02+000002VOVAR 
0143825960999991997032612004-05650-035417FM-12+006199999V0201401N00511015001CN0040001N1+02551+02331101231ADDAA124086091AG10001AY151061AY221061GF108991051001017501081081KA1240N+02281MA1999999100501MD1999999+0151MW1021REMSYN023 333 20228 58015 60864;
0096825960999991997032618004-05650-035417FM-12+006199999V0200901N00261105001CN0040001N1+02881+02251100741ADDAA106000091AG10000GF107991041001017501031091MA1999999100011MD1999999-0041REMSYN011 333 59004;
0134825960999991997032700004-05650-035417FM-12+006199999V0200501N00151220001CN9999999N9+02501+99999101041ADDAA106000091AG10000GF104991021011008001051001KA1240M+02961MA1999999100381MD1999999-0041REMSYN017 333 10296 59004;EQDQ01+000002VOVAR 
0115825960999991997032712004-05650-035417FM-12+006199999V0200901N00211045001CN0040001N1+02791+02401101101ADDAA106000091AG10000GF106991031021008001021091KA1240N+02341MA1999999100371MD1999999-0131REMSYN017 333 20234 59013;
0124825960999991997032718004-05650-035417FM-12+006199999V0200901N00511045001CN0040001N1+02801+02361100791ADDAA106001091AG10001AY151061AY221061GF108991041041008001031021MA1999999100061MD1999999+0051MW1031REMSYN017 333 58005 69991;
0134825960999991997032800004-05650-035417FM-12+006199999V0200901N00151007501CN9999999N9+02461+02281101181ADDAA106000091AG10000GF108991081061008001999999KA1240M+03001MA1999999100451MD1999999+0131REMSYN017 333 10300 58013;EQDQ01+000002VOVAR 
0121825960999991997032812004-05650-035417FM-12+006199999V0200901N003110450019N0090001N1+02841+02481101231ADDAA124004091AG10006GF107991041011000751031001KA1240N+02271MA1999999100511MD1999999+0141REMSYN023 333 20227 58014 60044;
0096825960999991997032818004-05650-035417FM-12+006199999V0200901N00461045001CN0040001N1+02941+02311100941ADDAA106000091AG10000GF106991031011008001051021MA1999999100221MD1999999+0161REMSYN011 333 58016;
0150825960999991997032900004-05650-035417FM-12+006199999V0200901N00151220001CN9999999N9+02471+02271101301ADDAA106000091AG10000GA1001+999999999GF100991001001999999001001KA1240M+03031MA1999999100581MD1999999+0131REMSYN017 333 10303 58013;EQDQ01+000002VOVAR 
0115825960999991997032912004-05650-035417FM-12+006199999V0200901N00311045001CN0040001N1+02781+02341101321ADDAA106000091AG10000GF106991031011008001041001KA1240N+02201MA1999999100591MD1999999+0081REMSYN017 333 20220 58008;
0096825960999991997032918004-05650-035417FM-12+006199999V0200901N00461220001CN0040001N1+02981+02281100931ADDAA106000091AG10000GF103991031011008001001001MA1999999100211MD1999999-0011REMSYN011 333 59001;
0150825960999991997033000004-05650-035417FM-12+006199999V0200901N00151220001CN9999999N9+02981+02321101211ADDAA106000091AG10000GA1001+999999999GF100991001001999999001001KA1240M+03081MA1999999100491MD1999999-0091REMSYN017 333 10308 59009;EQDQ01+000002VOVAR 
0143825960999991997033012004-05650-035417FM-12+006199999V0200901N00211045001CN0040001N1+02751+02471101301ADDAA124000591AG10001AY151061AY211061GF106991041021008001031001KA1240N+02341MA1999999100571MD1999999-0021MW1511REMSYN023 333 20234 59002 69944;
0096825960999991997033018004-05650-035417FM-12+006199999V0200901N00361220001CN0040001N1+02911+02391100941ADDAA106000091AG10000GF104991031011008001001061MA1999999100211MD1999999+0001REMSYN011 333 58000;
0150825960999991997033100004-05650-035417FM-12+006199999V0200901N00051220001CN9999999N9+02531+02381101301ADDAA106000091AG10000GA1001+999999999GF100991001001999999001001KA1240M+03051MA1999999100571MD1999999+0081REMSYN017 333 10305 58008;EQDQ01+000002VOVAR 
0143825960999991997033112004-05650-035417FM-12+006199999V0201801N00211045001CN0040001N1+02701+02461101401ADDAA124001091AG10001AY151061AY211061GF108991041021008001091081KA1240N+02371MA1999999100661MD1999999+0091MW1021REMSYN023 333 20237 58009 69974;
0124825960999991997033118004-05650-035417FM-12+006199999V0201801N00211045001CN0040001N1+02751+02541101081ADDAA106001091AG10001AY151061AY221061GF108991031071008001091081MA1999999100351MD1999999+0141MW1291REMSYN017 333 58014 69991;
0178825960999991997040100004-05650-035417FM-12+006199999V0200901N00101220001CN9999999N9+02461+02371101331ADDAA106002091AG10006AY161061AY211061GA1001+999999999GF100991001001999999001001KA1240M+03031MA1999999100601MD1999999+0031MW1001REMSYN023 333 10303 58003 60021;EQDQ01+000002VOVAR 
0143825960999991997040112004-05650-035417FM-12+006199999V0201401N00151045001CN0040001N1+02591+02381101321ADDAA124003091AG10000AY121061AY211061GF108991031071008001011999KA1240N+02221MA1999999100591MD1999999+0081MW1141REMSYN023 333 20222 58008 60034;
0096825960999991997040118004-05650-035417FM-12+006199999V0201401N00261045001CN0040001N1+02731+02431101081ADDAA106000091AG10000GF108991031021008001011999MA1999999100351MD1999999+0001REMSYN011 333 58000;
0143825960999991997040212004-05650-035417FM-12+006199999V0201401N00211045001CN0040001N1+02681+02311101431ADDAA124002091AG10001AY151061AY221061GF108991041071008001011999KA1240N+02231MA1999999100691MD1999999-0051MW1151REMSYN023 333 20223 59005 60024;
0124825960999991997040218004-05650-035417FM-12+006199999V0203601N00211007501CN0020001N1+02641+02351101091ADDAA106012091AG10006AY161061AY251061GF108991061071008001021999MA1999999100361MD1999999+0011MW1161REMSYN017 333 58001 60121;
0143825960999991997040312004-05650-035417FM-12+006199999V0201401N00211220001CN0040001N1+02761+02281101401ADDAA124016091AG10017AY191061AY261061GF106991031001017501091061KA1240N+02061MA1999999100681MD1999999-0011MW1031REMSYN023 333 20206 59001 60164;
0096825960999991997040318004-05650-035417FM-12+006199999V0200901N00461105001CN0040001N1+02871+02211101041ADDAA106000091AG10000GF106991041001017501051031MA1999999100311MD1999999-0051REMSYN011 333 59005;
0134825960999991997040400004-05650-035417FM-12+006199999V0201401N00151220001CN9999999N9+02501+02361101351ADDAA106000091AG10000GF102991021061008001001001KA1240M+03071MA1999999100621MD1999999-0081REMSYN017 333 10307 59008;EQDQ01+000002VOVAR 
0115825960999991997040412004-05650-035417FM-12+006199999V0201801N00311012001CN0040001N1+02801+02311101361ADDAA106000091AG10000GF106991061081008001001001KA1240N+02241MA1999999100641MD1999999-0041REMSYN017 333 20224 59004;
0096825960999991997040418004-05650-035417FM-12+006199999V0200901N00411220001CN0040001N1+02971+02281101031ADDAA106000091AG10000GF102991021011008001001001MA1999999100301MD1999999-0011REMSYN011 333 59001;
0150825960999991997040500004-05650-035417FM-12+006199999V0201401N00101220001CN9999999N9+02501+02341101271ADDAA106000091AG10000GA1001+999999999GF100991001001999999001001KA1240M+03071MA1999999100551MD1999999-0071REMSYN017 333 10307 59007;EQDQ01+000002VOVAR 
0115825960999991997040512004-05650-035417FM-12+006199999V0200901N00101007501CN0040001N1+02561+02401101301ADDAA106000091AG10000GF108991081071008001001001KA1240N+02291MA1999999100571MD1999999-0071REMSYN017 333 20229 59007;
0124825960999991997040518004-05650-035417FM-12+006199999V0200901N00311045001CN0040001N1+02881+02131100911ADDAA106002091AG10006AY161061AY211061GF106991031021008001051091MA1999999100181MD1999999-0121MW1031REMSYN017 333 59012 60021;
0134825960999991997040600004-05650-035417FM-12+006199999V0201401N00051007501CN9999999N9+02601+02401101201ADDAA106000091AG10000GF105991051051008001001001KA1240M+02941MA1999999100471MD1999999-0081REMSYN017 333 10294 59008;EQDQ01+000002VOVAR 
0143825960999991997040612004-05650-035417FM-12+006199999V0201801N00211007501CN0040001N1+02421+02371101321ADDAA124047091AG10006AY161061AY261061GF108991051071008001011999KA1240N+02321MA1999999100591MD1999999+0021MW1211REMSYN023 333 20232 58002 60474;
0124825960999991997040618004-05650-035417FM-12+006199999V0200901N00211007501CN0040001N1+02461+02361101021ADDAA106020091AG10006AY161061AY251061GF108991081071008001999999MA1999999100291MD1999999+0111MW1611REMSYN017 333 58011 60201;
0121825960999991997040712004-05650-035417FM-12+006199999V0201401N00411007501CN0040001N1+02811+02361101261ADDAA124021091AG10000GF106991051021008001061001KA1240N+02211MA1999999100531MD1999999-0061REMSYN023 333 20221 59006 60214;
0096825960999991997040718004-05650-035417FM-12+006199999V0200901N00461220001CN0040001N1+02881+02231100961ADDAA106000091AG10000GF102991011011008001001091MA1999999100231MD1999999-0061REMSYN011 333 59006;
0150825960999991997040800004-05650-035417FM-12+006199999V0201401N00101220001CN9999999N9+02351+02181101231ADDAA106000091AG10000GA1001+999999999GF100991001001999999001001KA1240M+02981MA1999999100501MD1999999-0021REMSYN017 333 10298 59002;EQDQ01+000002VOVAR 
0115825960999991997040812004-05650-035417FM-12+006199999V0200901N00361007501CN0040001N1+02841+02261101151ADDAA106000091AG10000GF106991061011008001001001KA1240N+02131MA1999999100421MD1999999-0111REMSYN017 333 20213 59011;
0096825960999991997040818004-05650-035417FM-12+006199999V0200901N00461220001CN0040001N1+02961+02181100831ADDAA106000091AG10000GF102991021011008001001001MA1999999100101MD1999999-0131REMSYN011 333 59013;
0150825960999991997040900004-05650-035417FM-12+006199999V0200901N00101220001CN9999999N9+02461+02281101081ADDAA106000091AG10000GA1001+999999999GF100991001001999999001001KA1240M+03051MA1999999100361MD1999999-0141REMSYN017 333 10305 59014;EQDQ01+000002VOVAR 
0137825960999991997040912004-05650-035417FM-12+006199999V0200901N00361045001CN0040001N1+02671+02371101271ADDAA106000091AG10000AY121061AY211061GF108991041071008001021999KA1240N+02281MA1999999100541MD1999999+0121MW1151REMSYN017 333 20228 58012;
0124825960999991997040918004-05650-035417FM-12+006199999V0200901N00311045001CN0040001N1+02841+02401100941ADDAA106000591AG10001AY151061AY221061GF108991031081008001041081MA1999999100211MD1999999+0111MW1021REMSYN017 333 58011 69951;
0134825960999991997041000004-05650-035417FM-12+006199999V0201801N00101015001CN9999999N9+02411+02261101191ADDAA106000091AG10000GF106991061001017501031999KA1240M+02851MA1999999100461MD1999999+0101REMSYN017 333 10285 58010;EQDQ01+000002VOVAR 
0143825960999991997041012004-05650-035417FM-12+006199999V0201401N00361015001CN0040001N1+02691+02281101291ADDAA124001091AG10001AY151061AY221061GF108991051001017501071081KA1240N+02231MA1999999100561MD1999999+0021MW1021REMSYN023 333 20223 58002 60014;
0115825960999991997041112004-05650-035417FM-12+006199999V0201801N00461045001CN0040001N1+02841+02131101291ADDAA106000091AG10000GF107991021061008001061031KA1240N+02241MA1999999100571MD1999999+0011REMSYN017 333 20224 58001;
0096825960999991997041118004-05650-035417FM-12+006199999V0201401N00261045001CN0040001N1+02931+02361101021ADDAA106000091AG10000GF106991041051008001021001MA1999999100291MD1999999-0061REMSYN011 333 59006;
0150825960999991997041200004-05650-035417FM-12+006199999V0201801N00261220001CN9999999N9+02421+02191101271ADDAA106000091AG10000GA1001+999999999GF100991001001999999001001KA1240M+03011MA1999999100541MD1999999-0051REMSYN017 333 10301 59005;EQDQ01+000002VOVAR 
0115825960999991997041212004-05650-035417FM-12+006199999V0201401N00411015001CN0040001N1+02671+02271101231ADDAA106000091AG10000GF108991081001017501071999KA1240N+02261MA1999999100501MD1999999-0071REMSYN017 333 20226 59007;
0096825960999991997041218004-05650-035417FM-12+006199999V0201401N00511045001CN0040001N1+02741+02341100851ADDAA106000091AG10000GF106991031011008001031091MA1999999100121MD1999999-0171REMSYN011 333 59017;
0150825960999991997041300004-05650-035417FM-12+006199999V0201401N00151220001CN9999999N9+02461+02361101101ADDAA106000091AG10000GA1001+999999999GF100991001001999999001001KA1240M+02991MA1999999100371MD1999999-0121REMSYN017 333 10299 59012;EQDQ01+000002VOVAR 
0096825960999991997041318004-05650-035417FM-12+006199999V0201401N00461045001CN0040001N1+03051+02331100741ADDAA106000091AG10000GF107991021011008001061081MA1999999100021MD1999999-0101REMSYN011 333 59010;
0161825960999991997041400004-05650-035417FM-12+006199999V0200501N003119999999N9999999N9+02431+02351101271ADDAG10017AY191061AY221061GF108991999999008001999999KA1240M+03051MA1999999100541MD1999999+0171MW1161REMSYN017 333 10305 58017;EQDQ01+000092SCOTLCQ02+000002VOVAR 
0143825960999991997041412004-05650-035417FM-12+006199999V0201401N00311007501CN0040001N1+02771+02401101291ADDAA124003091AG10006AY161061AY251061GF108991051021008001011999KA1240N+02371MA1999999100561MD1999999+0191MW1031REMSYN023 333 20237 58019 60034;
0124825960999991997041418004-05650-035417FM-12+006199999V0200901N00361015001CN0040001N1+02841+02251100991ADDAA106000591AG10001AY151061AY221061GF108991051001017501091061MA1999999100261MD1999999+0021MW1021REMSYN017 333 58002 69941;
0134825960999991997041500004-05650-035417FM-12+006199999V0201801N00151007501CN9999999N9+02541+02381101411ADDAA106000091AG10000GF108991081011008001999999KA1240M+03001MA1999999100681MD1999999+0141REMSYN017 333 10300 58014;EQDQ01+000002VOVAR 
0143825960999991997041512004-05650-035417FM-12+006199999V0201401N00261045001CN0040001N1+02771+02401101311ADDAA124001091AG10001AY151061AY221061GF106991021011008001031091KA1240N+02281MA1999999100591MD1999999+0031MW1031REMSYN023 333 20228 58003 69984;
0096825960999991997041518004-05650-035417FM-12+006199999V0200901N00511105001CN0040001N1+02951+02291101011ADDAA106000091AG10000GF106991021011008001041031MA1999999100281MD1999999+0021REMSYN011 333 58002;
0115825960999991997041600004-05650-035417FM-12+006199999V0201401N00151220001CN0040001N1+02461+02301101331ADDAA106000091AG10000GF101991011011008001001001KA1240M+03051MA1999999100601MD1999999-0081REMSYN017 333 10305 59008;
0143825960999991997041612004-05650-035417FM-12+006199999V0200901N00461007501CN0040001N1+02901+02301101331ADDAA124000591AG10001AY151061AY211061GF106991061011008001001001KA1240N+02301MA1999999100611MD1999999+0021MW1031REMSYN023 333 20230 58002 69954;
0096825960999991997041618004-05650-035417FM-12+006199999V0201401N00461220001CN0040001N1+02951+02261101051ADDAA106000091AG10000GF104991041011008001001001MA1999999100331MD1999999+0051REMSYN011 333 58005;
0150825960999991997041700004-05650-035417FM-12+006199999V0201401N00211220001CN9999999N9+02431+02251101311ADDAA106000091AG10000GA1001+999999999GF100991001001999999001001KA1240M+03091MA1999999100591MD1999999-0011REMSYN017 333 10309 59001;EQDQ01+000002VOVAR 
0143825960999991997041712004-05650-035417FM-12+006199999V0201401N00311007501CN0040001N1+02691+02501101291ADDAA124003091AG10006AY161061AY251061GF107991051021008001061001KA1240N+02231MA1999999100561MD1999999-0051MW1201REMSYN023 333 20223 59005 60034;
0096825960999991997041718004-05650-035417FM-12+006199999V0201401N00461220001CN0040001N1+02951+02051100941ADDAA106000091AG10000GF101991011011008001001001MA1999999100211MD1999999-0121REMSYN011 333 59012;
0143825960999991997041812004-05650-035417FM-12+006199999V0201401N00151045001CN0040001N1+02481+02361101231ADDAA124011091AG10006AY161061AY261061GF108991041071008001011999KA1240N+02281MA1999999100501MD1999999-0061MW1201REMSYN023 333 20228 59006 60114;
0124825960999991997041818004-05650-035417FM-12+006199999V0201401N00311045001CN0040001N1+02661+02241100961ADDAA106002091AG10006AY161061AY251061GF107991031021008001091081MA1999999100231MD1999999+0021MW1021REMSYN017 333 58002 60021;
0134825960999991997041900004-05650-035417FM-12+006199999V0201801N00101007501CN9999999N9+02451+02321101251ADDAA106000091AG10000GF108991081011008001999999KA1240M+02881MA1999999100521MD1999999-0021REMSYN017 333 10288 59002;EQDQ01+000002VOVAR 
0115825960999991997041912004-05650-035417FM-12+006199999V0201801N00261045001CN0040001N1+02581+02351101351ADDAA106000091AG10000GF106991031011008001051091KA1240N+02191MA1999999100621MD1999999+0121REMSYN017 333 20219 58012;
0096825960999991997041918004-05650-035417FM-12+006199999V0200501N00311220001CN0040001N1+02981+02201100871ADDAA106000091AG10000GF102991021021008001001001MA1999999100151MD1999999-0081REMSYN011 333 59008;
0134825960999991997042000004-05650-035417FM-12+006199999V0201401N00151220001CN9999999N9+02471+02301101181ADDAA106000091AG10000GF103991031011008001001001KA1240M+03081MA1999999100461MD1999999-0071REMSYN017 333 10308 59007;EQDQ01+000002VOVAR 
0143825960999991997042012004-05650-035417FM-12+006199999V0201801N00461045001CN0040001N1+02861+02391101271ADDAA124001091AG10001AY151061AY211061GF107991041011008001051091KA1240N+02291MA1999999100551MD1999999-0071MW1031REMSYN023 333 20229 59007 69984;
0096825960999991997042018004-05650-035417FM-12+006199999V0201401N00461220001CN0040001N1+02941+02241100961ADDAA106000091AG10000GF105991021011008001001061MA1999999100241MD1999999+0071REMSYN011 333 58007;
0150825960999991997042100004-05650-035417FM-12+006199999V0200901N00151220001CN9999999N9+02441+02281101251ADDAA106000091AG10000GA1001+999999999GF100991001001999999001001KA1240M+03051MA1999999100531MD1999999+0071REMSYN017 333 10305 58007;EQDQ01+000002VOVAR 
0096825960999991997042118004-05650-035417FM-12+006199999V0200901N00411220001CN0040001N1+02951+02261100941ADDAA106000091AG10000GF102991021011008001001001MA1999999100221MD1999999-0021REMSYN011 333 59002;
0115825960999991997042212004-05650-035417FM-12+006199999V0201401N00461007501CN0040001N1+02921+02271101301ADDAA106000091AG10000GF108991051021008001011081KA1240N+02261MA1999999100581MD1999999+0021REMSYN017 333 20226 58002;
0096825960999991997042218004-05650-035417FM-12+006199999V0200901N00461105001CN0040001N1+02981+02281100891ADDAA106000091AG10000GF107991031011008001001031MA1999999100161MD1999999-0061REMSYN011 333 59006;
0134825960999991997042300004-05650-035417FM-12+006199999V0201401N00151220001CN9999999N9+02471+02251101141ADDAA106000091AG10000GF106991001001999999001041KA1240M+03081MA1999999100421MD1999999-0031REMSYN017 333 10308 59003;EQDQ01+000002VOVAR 
0115825960999991997042312004-05650-035417FM-12+006199999V0201401N00411045001CN0040001N1+02861+02371101151ADDAA106000091AG10000GF106991031081008001061081KA1240N+02261MA1999999100431MD1999999-0151REMSYN017 333 20226 59015;
0096825960999991997042318004-05650-035417FM-12+006199999V0201401N00461220001CN0040001N1+02971+02211100801ADDAA106000091AG10000GF106991011061008001001061MA1999999100071MD1999999-0091REMSYN011 333 59009;
0134825960999991997042400004-05650-035417FM-12+006199999V0201401N00051220001CN9999999N9+02501+02321101091ADDAA106000091AG10000GF102991001001999999001051KA1240M+03071MA1999999100371MD1999999-0051REMSYN017 333 10307 59005;EQDQ01+000002VOVAR 
0115825960999991997042412004-05650-035417FM-12+006199999V0200901N00261045001CN0040001N1+02831+02381101201ADDAA106000091AG10000GF108991031081008001011999KA1240N+02261MA1999999100481MD1999999+0051REMSYN017 333 20226 58005;
0096825960999991997042418004-05650-035417FM-12+006199999V0203601N00051105001CN0040001N1+02981+02201100881ADDAA106000091AG10000GF108991041001017501061081MA1999999100151MD1999999+0081REMSYN011 333 58008;
0134825960999991997042500004-05650-035417FM-12+006199999V0209991C00001015001CN9999999N9+02491+02321101171ADDAA106000091AG10000GF108991081001017501071999KA1240M+03021MA1999999100451MD1999999+0081REMSYN017 333 10302 58008;EQDQ01+000002VOVAR 
0115825960999991997042512004-05650-035417FM-12+006199999V0200901N00311007501CN0040001N1+02891+02281101251ADDAA106000091AG10000GF106991051021008001061001KA1240N+02261MA1999999100531MD1999999+0051REMSYN017 333 20226 58005;
0124825960999991997042518004-05650-035417FM-12+006199999V0200901N00511012001CN0040001N1+02921+02361100901ADDAA106004091AG10006AY161061AY251061GF107991051081008001001031MA1999999100171MD1999999+0021MW1021REMSYN017 333 58002 60041;
0150825960999991997042600004-05650-035417FM-12+006199999V0201401N001519999999N9999999N9+02501+02401101211ADDAA106000091AG10000GF108991999999008001999999KA1240M+03011MA1999999100491MD1999999-0041REMSYN017 333 10301 59004;EQDQ01+000092SCOTLCQ02+000002VOVAR 
0143825960999991997042612004-05650-035417FM-12+006199999V0201401N00211045001CN0040001N1+02731+02391101261ADDAA124004091AG10000AY121061AY221061GF108991031071008001011999KA1240N+02231MA1999999100531MD1999999+0001MW1141REMSYN023 333 20223 58000 60044;
0134825960999991997042700004-05650-035417FM-12+006199999V0200901N00051007501CN9999999N9+02561+02421101291ADDAA106000091AG10000GF107991071071008001999999KA1240M+02901MA1999999100561MD1999999+0071REMSYN017 333 10290 58007;EQDQ01+000002VOVAR 
0143825960999991997042712004-05650-035417FM-12+006199999V0200901N00261007501CN0040001N1+02851+02381101241ADDAA124001091AG10001AY151061AY221061GF106991051021008001001051KA1240N+02271MA1999999100521MD1999999-0011MW1031REMSYN023 333 20227 59001 69974;
0096825960999991997042718004-05650-035417FM-12+006199999V0200901N00411220001CN0040001N1+03011+02241100971ADDAA106000091AG10000GF104991021011008001001061MA1999999100241MD1999999+0011REMSYN011 333 58001;
0134825960999991997042800004-05650-035417FM-12+006199999V0200901N00101220001CN9999999N9+02481+02321101281ADDAA106000091AG10000GF102991021011008001001001KA1240M+03091MA1999999100561MD1999999+0001REMSYN017 333 10309 58000;EQDQ01+000002VOVAR 
0115825960999991997042812004-05650-035417FM-12+006199999V0201401N00311012001CN0040001N1+02921+02291101331ADDAA106000091AG10000GF106991061081008001001001KA1240N+02251MA1999999100611MD1999999+0091REMSYN017 333 20225 58009;
0096825960999991997042818004-05650-035417FM-12+006199999V0201401N00461220001CN0040001N1+03021+02181101101ADDAA106000091AG10000GF101991011061008001001001MA1999999100371MD1999999+0131REMSYN011 333 58013;
0143825960999991997042912004-05650-035417FM-12+006199999V0201401N00311007501CN0040001N1+02701+02461101471ADDAA124001091AG10001AY151061AY251061GF108991051021008001011999KA1240N+02371MA1999999100741MD1999999+0131MW1021REMSYN023 333 20237 58013 60014;
0096825960999991997042918004-05650-035417FM-12+006199999V0200901N00511105001CN0040001N1+02971+02381101141ADDAA106000091AG10000GF106991031001017501031091MA1999999100421MD1999999+0051REMSYN011 333 58005;
0134825960999991997043000004-05650-035417FM-12+006199999V0201401N00151015001CN9999999N9+02551+02331101321ADDAA106000091AG10000GF105991051001017501041999KA1240M+03141MA1999999100591MD1999999-0021REMSYN017 333 10314 59002;EQDQ01+000002VOVAR 
0115825960999991997043012004-05650-035417FM-12+006199999V0201401N003610075019N0040001N1+02911+02321101311ADDAA106000091AG10000GF106991061021008001001001KA1240N+02281MA1999999100591MD1999999-0151REMSYN017 333 20228 59015;
0096825960999991997043018004-05650-035417FM-12+006199999V0201401N00461220001CN0040001N1+03101+02121100961ADDAA106000091AG10000GF101991011001017501041001MA1999999100241MD1999999-0181REMSYN011 333 59018;
0150825960999991997050100004-05650-035417FM-12+006199999V0201401N00151220001CN9999999N9+02541+02231101271ADDAA106000091AG10000GA1001+999999999GF100991001001999999001001KA1240M+03311MA1999999100551MD1999999-0041REMSYN017 333 10331 59004;EQDQ01+000002VOVAR 
0115825960999991997050112004-05650-035417FM-12+006199999V0201401N00461007501CN0040001N1+02841+02241101231ADDAA106000091AG10000GF105991051011008001001001KA1240N+02211MA1999999100511MD1999999-0081REMSYN017 333 20221 59008;
0096825960999991997050118004-05650-035417FM-12+006199999V0200901N00511220001CN0040001N1+02871+02371100911ADDAA106000091AG10000GF106991041001017501091041MA1999999100181MD1999999-0061REMSYN011 333 59006;
0162825960999991997050200004-05650-035417FM-12+006199999V0201401N00211007501CN9999999N9+02411+02381101111ADDAA106011091AG10005AY161061AY251061GF108991081071008001999999KA1240M+03131MA1999999100381MD1999999-0171MW1651REMSYN023 333 10313 59017 60111;EQDQ01+000002VOVAR 
0124825960999991997050218004-05650-035417FM-12+006199999V0201401N00101007501CN0020001N1+02451+02351101121ADDAA106021091AG10005AY161061AY221061GF108991081071008001999999MA1999999100391MD1999999+0211MW1011REMSYN017 333 58021 60211;
0134825960999991997050300004-05650-035417FM-12+006199999V0201801N00051220001CN9999999N9+02361+02291101401ADDAA106000091AG10000GF104991001001999999001061KA1240M+02461MA1999999100671MD1999999+0291REMSYN017 333 10246 58029;EQDQ01+000002VOVAR 
0143825960999991997050312004-05650-035417FM-12+006199999V0201401N00261045001CN0000001N1+02821+02361101451ADDAA124021091AG10005AY161061AY221061GF106991031011008001051091KA1240N+02231MA1999999100721MD1999999+0011MW1011REMSYN023 333 20223 58001 60214;
0096825960999991997050318004-05650-035417FM-12+006199999V0200901N00411105001CN0040001N1+02931+02221101151ADDAA106000091AG10000GF107991031021008001001061MA1999999100431MD1999999+0041REMSYN011 333 58004;
0134825960999991997050400004-05650-035417FM-12+006199999V0200201N00211220001CN9999999N9+02491+02341101441ADDAA106000091AG10000GF102991021011008001001001KA1240M+03011MA1999999100711MD1999999+0041REMSYN017 333 10301 58004;EQDQ01+000002VOVAR 
0143825960999991997050412004-05650-035417FM-12+006199999V0200901N00311007501CN0040001N1+02871+02371101391ADDAA124020091AG10005AY161061AY251061GF106991051011008001021001KA1240N+02231MA1999999100671MD1999999-0051MW1011REMSYN023 333 20223 59005 60204;
0096825960999991997050418004-05650-035417FM-12+006199999V0200901N00361045001CN0040001N1+02901+02301101031ADDAA106000091AG10000GF107991041021008001051091MA1999999100311MD1999999-0121REMSYN011 333 59012;
0150825960999991997050500004-05650-035417FM-12+006199999V0200901N00151220001CN9999999N9+02471+02321101311ADDAA106000091AG10000GA1001+999999999GF100991001001999999001001KA1240M+03051MA1999999100591MD1999999-0121REMSYN017 333 10305 59012;EQDQ01+000002VOVAR 
0115825960999991997050512004-05650-035417FM-12+006199999V0201801N00571045001CN0040001N1+02771+02321101231ADDAA106000091AG10000GF107991031081008001061081KA1240N+02291MA1999999100501MD1999999-0171REMSYN017 333 20229 59017;
0096825960999991997050518004-05650-035417FM-12+006199999V0201401N00461220001CN0040001N1+03001+02291100871ADDAA106000091AG10000GF104991021011008001001061MA1999999100151MD1999999-0161REMSYN011 333 59016;
0150825960999991997050600004-05650-035417FM-12+006199999V0201801N00151220001CN9999999N9+02441+02271101281ADDAA106000091AG10000GA1001+999999999GF100991001001999999001001KA1240M+03071MA1999999100491MD1999999-0101REMSYN017 333 10307 59010;EQDQ01+000002VOVAR 
0143825960999991997050612004-05650-035417FM-12+006199999V0201401N00311007501CN0040001N1+02551+02401101271ADDAA124003091AG10005AY161061AY211061GF108991051071008001011999KA1240N+02281MA1999999100541MD1999999+0041MW1521REMSYN023 333 20228 58004 60034;
0124825960999991997050618004-05650-035417FM-12+006199999V0201401N003119999999N0040001N1+02731+02301101061ADDAA106007091AG10005AY161061AY251061GF108991999999008001999999MA1999999100331MD1999999+0181MW1021REMSYN017 333 58018 60071;
0150825960999991997050700004-05650-035417FM-12+006199999V0201401N001519999999N9999999N9+02481+02301101371ADDAA106000091AG10000GF108991999999008001999999KA1240M+02781MA1999999100641MD1999999+0151REMSYN017 333 10278 58015;EQDQ01+000092SCOTLCQ02+000002VOVAR 
0143825960999991997050712004-05650-035417FM-12+006199999V0201801N00211045001CN0040001N1+02521+02361101441ADDAA124014091AG10005AY161061AY251061GF108991031021008001071999KA1240N+02251MA1999999100701MD1999999+0161MW1021REMSYN023 333 20225 58016 60144;
0096825960999991997050718004-05650-035417FM-12+006199999V0200901N00461105001CN0040001N1+02931+02291101091ADDAA106000091AG10000GF106991011061008001041031MA1999999100361MD1999999+0031REMSYN011 333 58003;
0150825960999991997050800004-05650-035417FM-12+006199999V0200101N00101220001CN9999999N9+02441+02321101401ADDAA106000091AG10000GA1001+999999999GF100991001001999999001001KA1240M+02971MA1999999100661MD1999999+0021REMSYN017 333 10297 58002;EQDQ01+000002VOVAR 
0143825960999991997050812004-05650-035417FM-12+006199999V0200901N00211105001CN0040001N1+02831+02371101491ADDAA124000591AG10001AY151061AY211061GF106991021011008001091041KA1240N+02261MA1999999100751MD1999999+0051MW1021REMSYN023 333 20226 58005 69964;
0124825960999991997050818004-05650-035417FM-12+006199999V0200901N00511220001CN0040001N1+02921+02241101171ADDAA106001091AG10001AY151061AY211061GF102991021011008001001001MA1999999100441MD1999999+0081MW1021REMSYN017 333 58008 69981;
0150825960999991997050900004-05650-035417FM-12+006199999V0201401N00101220001CN9999999N9+02441+02341101481ADDAA106000091AG10000GA1001+999999999GF100991001001999999001001KA1240M+03001MA1999999100741MD1999999+0081REMSYN017 333 10300 58008;EQDQ01+000002VOVAR 
0143825960999991997050912004-05650-035417FM-12+006199999V0201401N00361045001CN0040001N1+02801+02361101521ADDAA124001091AG10001AY151061AY211061GF106991031081008001061021KA1240N+02221MA1999999100781MD1999999+0031MW1031REMSYN023 333 20222 58003 69994;
0096825960999991997050918004-05650-035417FM-12+006199999V0200901N00461220001CN0040001N1+02781+02361101191ADDAA106000091AG10000GF104991021021008001001011MA1999999100461MD1999999+0021REMSYN011 333 58002;
0178825960999991997051000004-05650-035417FM-12+006199999V0201801N00311220001CN9999999N9+02451+02281101431ADDAA124000591AG10001AY151061AY201061GA1001+999999999GF100991001001999999001001KA1240M+03011MA1999999100701MD1999999-0041MW1001REMSYN023 333 10301 59004 69944;EQDQ01+000002VOVAR 
0143825960999991997051012004-05650-035417FM-12+006199999V0201401N00411007501CN0040001N1+02751+02301101391ADDAA124000591AG10001AY151061AY211061GF106991051011008001001091KA1240N+02341MA1999999100661MD1999999-0121MW1011REMSYN023 333 20234 59012 69944;
0096825960999991997051018004-05650-035417FM-12+006199999V0201401N00211007501CN0040001N1+02641+02371101191ADDAA106000091AG10000GF107991051071008001051091MA1999999100461MD1999999+0001REMSYN011 333 58000;
0162825960999991997051100004-05650-035417FM-12+006199999V0201801N00101007501CN9999999N9+02361+02261101461ADDAA106004091AG10005AY161061AY251061GF108991081071008001999999KA1240M+03021MA1999999100731MD1999999+0031MW1511REMSYN023 333 10302 58003 60041;EQDQ01+000002VOVAR 
0143825960999991997051112004-05650-035417FM-12+006199999V0201801N00511007501CN0040001N1+02601+02271101431ADDAA124020091AG10005AY161061AY251061GF108991081021008001999999KA1240N+02201MA1999999100701MD1999999+0041MW1011REMSYN023 333 20220 58004 60204;
0143825960999991997051118004-05650-035417FM-12+006199999V0201401N00461220001CN0040001N1+02881+02131101141ADDAA106001091AG10001AY151061AY211061GF103991999011008001001001MA1999999100411MD1999999-0051MW1031REMSYN017 333 59005 69981;EQDQ01+000022SCOTLC
0134825960999991997051200004-05650-035417FM-12+006199999V0200901N00151220001CN9999999N9+02351+02131101341ADDAA106000091AG10000GF102991021001017501051001KA1240M+02951MA1999999100641MD1999999-0121REMSYN017 333 10295 59012;EQDQ01+000002VOVAR 
0143825960999991997051212004-05650-035417FM-12+006199999V0201801N00211007501CN0040001N1+02401+02281101411ADDAA124002091AG10001AY151061AY221061GF108991051071008001011999KA1240N+02251MA1999999100671MD1999999-0031MW1531REMSYN023 333 20225 59003 60024;
0124825960999991997051218004-05650-035417FM-12+006199999V0209991C00001045001CN0040001N1+02781+02271101101ADDAA106001091AG10001AY151061AY221061GF106991021011008001091091MA1999999100371MD1999999-0041MW1021REMSYN017 333 59004 60011;
0121825960999991997051312004-05650-035417FM-12+006199999V0201401N00311220001CN0040001N1+02731+02191101421ADDAA124001091AG10000GF105991031001017501031041KA1240N+02201MA1999999100681MD1999999+0011REMSYN023 333 20220 58001 60014;
0096825960999991997051318004-05650-035417FM-12+006199999V0200901N00361220001CN0040001N1+02971+02231101031ADDAA106000091AG10000GF101991001001999999001091MA1999999100301MD1999999-0071REMSYN011 333 59007;
0150825960999991997051400004-05650-035417FM-12+006199999V0209991C00001220001CN9999999N9+02441+02341101331ADDAA106000091AG10000GA1001+999999999GF100991001001999999001001KA1240M+03051MA1999999100601MD1999999-0071REMSYN017 333 10305 59007;EQDQ01+000002VOVAR 
0115825960999991997051412004-05650-035417FM-12+006199999V0201401N00411007501CN0040001N1+02731+02281101371ADDAA106000091AG10000GF106991051011008001061001KA1240N+02211MA1999999100641MD1999999-0041REMSYN017 333 20221 59004;
0096825960999991997051418004-05650-035417FM-12+006199999V0200901N00411220001CN0040001N1+02931+02271101021ADDAA106000091AG10000GF102991021001017501061001MA1999999100291MD1999999-0011REMSYN011 333 59001;
0134825960999991997051500004-05650-035417FM-12+006199999V0200901N00051220001CN9999999N9+02441+02341101311ADDAA106000091AG10000GF102991001001999999001011KA1240M+03071MA1999999100581MD1999999-0021REMSYN017 333 10307 59002;EQDQ01+000002VOVAR 
0115825960999991997051512004-05650-035417FM-12+006199999V0201401N00461045001CN0040001N1+02781+02321101401ADDAA106000091AG10000GF107991041021008001061081KA1240N+02281MA1999999100661MD1999999+0021REMSYN017 333 20228 58002;
0115825960999991997051612004-05650-035417FM-12+006199999V0201401N00511015001CN0040001N1+02581+02231101441ADDAA106000091AG10000GF108991081001017501071999KA1240N+02191MA1999999100701MD1999999+0041REMSYN017 333 20219 58004;
0150825960999991997051700004-05650-035417FM-12+006199999V0201801N00261220001CN9999999N9+02411+02191101391ADDAA106000091AG10000GA1001+999999999GF100991001001999999001001KA1240M+02991MA1999999100661MD1999999+0021REMSYN017 333 10299 58002;EQDQ01+000002VOVAR 
0121825960999991997051712004-05650-035417FM-12+006199999V0201801N00671007501CN0040001N1+02781+02251101351ADDAA124000591AG10000GF105991051011008001001001KA1240N+02231MA1999999100621MD1999999-0081REMSYN023 333 20223 59008 69944;
0096825960999991997051718004-05650-035417FM-12+006199999V0201401N00511220001CN0040001N1+02961+02101101001ADDAA106000091AG10000GF103991021021008001021001MA1999999100281MD1999999-0081REMSYN011 333 59008;
0178825960999991997051800004-05650-035417FM-12+006199999V0201401N00211012001CN9999999N9+02391+02281101371ADDAA106001091AG10001AY151061AY211061GF108991999081008001071999KA1240M+03071MA1999999100641MD1999999-0021MW1511REMSYN023 333 10307 59002 69971;EQDQ01+000082SCOTLCQ02+000002VOVAR 
0143825960999991997051812004-05650-035417FM-12+006199999V0200901N00211007501CN0010001N1+02541+02441101331ADDAA124028091AG10005AY161061AY261061GF108991061071008001021999KA1240N+02301MA1999999100601MD1999999-0021MW1631REMSYN023 333 20230 59002 60284;
0162825960999991997051900004-05650-035417FM-12+006199999V0201401N00211045001CN9999999N9+02461+02361101061ADDAA124008091AG10005AY161061AY251061GF107991041021008001051091KA1240M+02901MA1999999100331MD1999999-0311MW1611REMSYN023 333 10290 59031 60084;EQDQ01+000002VOVAR 
0143825960999991997051912004-05650-035417FM-12+006199999V0200901N00511105001CN0040001N1+02821+02271101271ADDAA124022091AG10005AY161061AY251061GF106991021021008001061031KA1240N+02331MA1999999100541MD1999999-0061MW1021REMSYN023 333 20233 59006 60224;
0143825960999991997052012004-05650-035417FM-12+006199999V0201401N00461007501CN0040001N1+02811+02271101291ADDAA106000391AG10001AY151061AY221061GF107991071021008001001001KA1240N+02181MA1999999100561MD1999999+0021MW1031REMSYN023 333 20218 58002 69931;
0096825960999991997052018004-05650-035417FM-12+006199999V0200901N00571220001CN0040001N1+02881+02181101001ADDAA106000091AG10000GF103991031021008001001001MA1999999100271MD1999999-0061REMSYN011 333 59006;
0115825960999991997052112004-05650-035417FM-12+006199999V0200901N00671220001CN0040001N1+02841+02221101221ADDAA106000091AG10000GF106991031081008001001041KA1240N+02161MA1999999100491MD1999999-0071REMSYN017 333 20216 59007;
0150825960999991997052200004-05650-035417FM-12+006199999V0201401N00151220001CN9999999N9+02381+02211101251ADDAA106000091AG10000GA1001+999999999GF100991001001999999001001KA1240M+03021MA1999999100521MD1999999-0031REMSYN017 333 10302 59003;EQDQ01+000002VOVAR 
0096825960999991997052218004-05650-035417FM-12+006199999V0201401N00571220001CN0040001N1+02881+02211101021ADDAA106000091AG10000GF106991031011008001001011MA1999999100291MD1999999+0071REMSYN011 333 58007;
0134825960999991997052300004-05650-035417FM-12+006199999V0201401N00101220001CN9999999N9+02441+02271101231ADDAA106000091AG10000GF104991021001017501031041KA1240M+02961MA1999999100501MD1999999-0021REMSYN017 333 10296 59002;EQDQ01+000002VOVAR 
0143825960999991997052312004-05650-035417FM-12+006199999V0200901N00821045001CN0040001N1+02871+02261101301ADDAA124002091AG10001AY151061AY251061GF106991041021008001061001KA1240N+02361MA1999999100561MD1999999-0051MW1021REMSYN023 333 20236 59005 60024;
0162825960999991997052400004-05650-035417FM-12+006199999V0200901N00211007501CN9999999N9+02931+02321101271ADDAA106006091AG10005AY161061AY251061GF108991081071008001999999KA1240M+03001MA1999999100541MD1999999+0041MW1161REMSYN023 333 10300 58004 60061;EQDQ01+000002VOVAR 
0143825960999991997052412004-05650-035417FM-12+006199999V0201401N00511007501CN0040001N1+02831+02291101291ADDAA124013091AG10005AY161061AY251061GF106991051021008001001011KA1240N+02331MA1999999100561MD1999999+0001MW1031REMSYN023 333 20233 58000 60134;
0096825960999991997052418004-05650-035417FM-12+006199999V0200901N00511045001CN0040001N1+02881+02351101011ADDAA106000091AG10000GF106991041021008001051091MA1999999100281MD1999999-0041REMSYN011 333 59004;
0134825960999991997052500004-05650-035417FM-12+006199999V0201801N00151105001CN9999999N9+02391+02221101291ADDAA106000091AG10000GF105991011011008001001021KA1240M+02951MA1999999100561MD1999999+0021REMSYN017 333 10295 58002;EQDQ01+000002VOVAR 
0150825960999991997052600004-05650-035417FM-12+006199999V0201801N00151220001CN9999999N9+02381+02241101321ADDAA106000091AG10000GA1001+999999999GF100991001001999999001001KA1240M+02961MA1999999100601MD1999999+0041REMSYN017 333 10296 58004;EQDQ01+000002VOVAR 
0115825960999991997052612004-05650-035417FM-12+006199999V0201801N00361105001CN0040001N1+02661+02291101401ADDAA106000091AG10000GF106991011061008001031061KA1240N+02221MA1999999100661MD1999999+0041REMSYN017 333 20222 58004;
0096825960999991997052618004-05650-035417FM-12+006199999V0200901N00511220001CN0040001N1+02871+02231101031ADDAA106000091AG10000GF104991031011008001061001MA1999999100301MD1999999-0141REMSYN011 333 59014;
0143825960999991997052712004-05650-035417FM-12+006199999V0201801N00361007501CN0020001N1+02381+02291101501ADDAA124005091AG10005AY161061AY251061GF108991061071008001011999KA1240N+02241MA1999999100761MD1999999+0101MW1531REMSYN023 333 20224 58010 60054;
0096825960999991997052718004-05650-035417FM-12+006199999V0201401N00411220001CN0040001N1+02811+02181101181ADDAA106000091AG10000GF106991031001017501071061MA1999999100451MD1999999+0151REMSYN011 333 58015;
0150825960999991997052800004-05650-035417FM-12+006199999V0201401N00211220001CN9999999N9+02391+02291101451ADDAA106000091AG10000GA1001+999999999GF100991001001999999001001KA1240M+02911MA1999999100671MD1999999+0081REMSYN017 333 10291 58008;EQDQ01+000002VOVAR 
0143825960999991997052812004-05650-035417FM-12+006199999V0201801N00461007501CN0040001N1+02661+02271101431ADDAA124000191AG10001AY151061AY211061GF106991061021008001001001KA1240N+02111MA1999999100691MD1999999-0071MW1031REMSYN023 333 20211 59007 69914;
0096825960999991997052818004-05650-035417FM-12+006199999V0200901N00411220001CN0040001N1+02871+02161101131ADDAA106000091AG10000GF102991011001017501061051MA1999999100401MD1999999-0051REMSYN011 333 59005;
0134825960999991997052900004-05650-035417FM-12+006199999V0201401N00261220001CN9999999N9+02361+02131101431ADDAA106000091AG10000GF101991011001017501041001KA1240M+02981MA1999999100691MD1999999+0021REMSYN017 333 10298 58002;EQDQ01+000002VOVAR 
0143825960999991997052912004-05650-035417FM-12+006199999V0201401N00361045001CN0040001N1+02701+02371101461ADDAA124000591AG10001AY151061AY221061GF106991041021008001061001KA1240N+02111MA1999999100721MD1999999+0031MW1021REMSYN023 333 20211 58003 69954;
0096825960999991997052918004-05650-035417FM-12+006199999V0200901N00511220001CN0040001N1+02851+02141101111ADDAA106000091AG10000GF102991021011008001001001MA1999999100381MD1999999-0021REMSYN011 333 59002;
0115825960999991997053000004-05650-035417FM-12+006199999V0201401N00151220001CN0040001N1+02391+02211101361ADDAA106000091AG10000GF102991021021008001001001KA1240M+03011MA1999999100631MD1999999-0061REMSYN017 333 10301 59006;
0143825960999991997053012004-05650-035417FM-12+006199999V0201401N00151045001CN0040001N1+02661+02331101411ADDAA124003091AG10001AY151061AY211061GF106991041021008001061001KA1240N+02221MA1999999100671MD1999999-0051MW1031REMSYN023 333 20222 59005 60034;
0096825960999991997053018004-05650-035417FM-12+006199999V0200901N00621045001CN0040001N1+02841+02221101101ADDAA106000091AG10000GF106991031021008001071001MA1999999100371MD1999999-0011REMSYN011 333 59001;
0150825960999991997053100004-05650-035417FM-12+006199999V0201401N00151220001CN9999999N9+02391+02141101341ADDAA106000091AG10000GA1001+999999999GF100991001001999999001001KA1240M+02951MA1999999100611MD1999999-0021REMSYN017 333 10295 59002;EQDQ01+000002VOVAR 
0143825960999991997053112004-05650-035417FM-12+006199999V0201401N00461220001CN0040001N1+02801+02181101461ADDAA124000191AG10001AY151061AY211061GF104991041081008001001001KA1240N+02201MA1999999100721MD1999999+0051MW1021REMSYN023 333 20220 58005 69924;
0096825960999991997053118004-05650-035417FM-12+006199999V0209999999999220001CN0040001N1+02841+02091101111ADDAA106000091AG10000GF104991011011008001051001MA1999999100381MD1999999+0011REMSYN011 333 58001;
0150825960999991997060100004-05650-035417FM-12+006199999V0200901N00151220001CN9999999N9+02341+02201101321ADDAA106000091AG10000GA1001+999999999GF100991001001999999001001KA1240M+02951MA1999999100591MD1999999-0021REMSYN017 333 10295 59002;EQDQ01+000002VOVAR 
0115825960999991997060112004-05650-035417FM-12+006199999V0201401N00511007501CN0040001N1+02761+02301101401ADDAA106000091AG10000GF106991051011008001051001KA1240N+02101MA1999999100661MD1999999-0061REMSYN017 333 20210 59006;
0096825960999991997060118004-05650-035417FM-12+006199999V0201401N00511105001CN0040001N1+02921+02191101111ADDAA106000091AG10000GF108991031011008001001061MA1999999100381MD1999999+0001REMSYN011 333 58000;
0115825960999991997060212004-05650-035417FM-12+006199999V0201401N00411012001CN0040001N1+02761+02211101481ADDAA106000091AG10000GF106991061081008001001001KA1240N+02281MA1999999100741MD1999999+0061REMSYN017 333 20228 58006;
0150825960999991997060300004-05650-035417FM-12+006199999V0201401N00151220001CN9999999N9+02311+02111101471ADDAA106000091AG10000GA1001+999999999GF100991001001999999001001KA1240M+02981MA1999999100731MD1999999-0081REMSYN017 333 10298 59008;EQDQ01+000002VOVAR 
0115825960999991997060312004-05650-035417FM-12+006199999V0201401N00511220001CN0040001N1+02731+02211101471ADDAA106000091AG10000GF102991021011008001001001KA1240N+02011MA1999999100731MD1999999-0011REMSYN017 333 20201 59001;
0096825960999991997060318004-05650-035417FM-12+006199999V0200901N00511045001CN0040001N1+02871+02211101161ADDAA106000091AG10000GF105991031081008001061001MA1999999100431MD1999999-0081REMSYN011 333 59008;
0178825960999991997060400004-05650-035417FM-12+006199999V0201401N00151220001CN9999999N9+02341+02281101351ADDAA106001091AG10000AY151061AY211061GA1001+999999999GF100991001001999999001001KA1240M+03001MA1999999100621MD1999999-0111MW1001REMSYN023 333 10300 59011 60011;EQDQ01+000002VOVAR 
0143825960999991997060412004-05650-035417FM-12+006199999V0200901N00261220001CN0040001N1+02821+02331101441ADDAA124001091AG10000AY151061AY211061GF104991041081008001001001KA1240N+02121MA1999999100701MD1999999-0031MW1021REMSYN023 333 20212 59003 60014;
0162825960999991997060500004-05650-035417FM-12+006199999V0200901N00151007501CN9999999N9+02441+02281101351ADDAA106000191AG10000AY121061AY211061GF108991081071008001999999KA1240M+02981MA1999999100621MD1999999+0001MW1501REMSYN023 333 10298 58000 69911;EQDQ01+000002VOVAR 
0143825960999991997060512004-05650-035417FM-12+006199999V0200901N00261012001CN0040001N1+02781+02281101301ADDAA124003091AG10005AY161061AY251061GF105991051081008001001001KA1240N+02141MA1999999100571MD1999999-0131MW1021REMSYN023 333 20214 59013 60034;
0096825960999991997060518004-05650-035417FM-12+006199999V0200901N00571220001CN0040001N1+02861+02111100931ADDAA106000091AG10000GF105991041011008001001011MA1999999100201MD1999999-0121REMSYN011 333 59012;
0150825960999991997060600004-05650-035417FM-12+006199999V0201401N00101220001CN9999999N9+02311+02161101251ADDAA106000091AG10000GA1001+999999999GF100991001001999999001001KA1240M+02981MA1999999100521MD1999999-0101REMSYN017 333 10298 59010;EQDQ01+000002VOVAR 
0143825960999991997060612004-05650-035417FM-12+006199999V0201801N00151007501CN0040001N1+02491+02321101181ADDAA124001091AG10000AY151061AY251061GF108991061071008001011999KA1240N+02041MA1999999100451MD1999999-0121MW1141REMSYN023 333 20204 59012 60014;
0134825960999991997060700004-05650-035417FM-12+006199999V0201801N00101220001CN9999999N9+02371+02261101021ADDAA106000091AG10000GF102991001001999999001031KA1240M+02911MA1999999100321MD1999999-0201REMSYN017 333 10291 59020;EQDQ01+000002VOVAR 
0121825960999991997060712004-05650-035417FM-12+006199999V0201801N00151007501CN0040001N1+02591+02331101041ADDAA124007091AG10000GF108991081071008001999999KA1240N+02141MA1999999100311MD1999999-0141REMSYN023 333 20214 59014 60074;
0124825960999991997060718004-05650-035417FM-12+006199999V0200901N00461220001CN0040001N1+02861+02161100731ADDAA106000391AG10000AY151061AY211061GF102991021011008001001001MA1999999100001MD1999999-0101MW1031REMSYN017 333 59010 69931;
0134825960999991997060800004-05650-035417FM-12+006199999V0201801N00051220001CN9999999N9+02351+02331101051ADDAA106000091AG10000GF101991011011008001001001KA1240M+02911MA1999999100321MD1999999+0001REMSYN017 333 10291 58000;EQDQ01+000002VOVAR 
0143825960999991997060812004-05650-035417FM-12+006199999V0200901N00361045001CN0040001N1+02781+02271101241ADDAA124000391AG10000AY151061AY211061GF106991041021008001051031KA1240N+02101MA1999999100511MD1999999-0201MW1011REMSYN023 333 20210 59020 69934;
0096825960999991997060818004-05650-035417FM-12+006199999V0200901N00461105001CN0040001N1+02881+02181101011ADDAA106000091AG10000GF106991021011008001051031MA1999999100281MD1999999-0281REMSYN011 333 59028;
0150825960999991997060900004-05650-035417FM-12+006199999V0200901N00051220001CN9999999N9+02361+02221101161ADDAA106000091AG10000GA1001+999999999GF100991001001999999001001KA1240M+02961MA1999999100431MD1999999+0111REMSYN017 333 10296 58011;EQDQ01+000002VOVAR 
0115825960999991997060912004-05650-035417FM-12+006199999V0201401N00311105001CN0040001N1+02831+02241101491ADDAA106000091AG10000GF106991031081008001001021KA1240N+02051MA1999999100751MD1999999+0241REMSYN017 333 20205 58024;
0096825960999991997060918004-05650-035417FM-12+006199999V0200901N00461105001CN0040001N1+02851+02221101211ADDAA106000091AG10000GF107991031011008001001021MA1999999100521MD1999999+0241REMSYN011 333 58024;
0150825960999991997061000004-05650-035417FM-12+006199999V0201401N00101220001CN9999999N9+02371+02221101431ADDAA106000091AG10000GA1001+999999999GF100991001001999999001001KA1240M+02961MA1999999100691MD1999999+0261REMSYN017 333 10296 58026;EQDQ01+000002VOVAR 
0115825960999991997061012004-05650-035417FM-12+006199999V0200901N00461105001CN0040001N1+02831+02281101591ADDAA106000091AG10000GF106991041021008001001021KA1240N+02111MA1999999100851MD1999999+0101REMSYN017 333 20211 58010;
0096825960999991997061018004-05650-035417FM-12+006199999V0201401N00511105001CN0100001N1+02901+02071101421ADDAA106000091AG10000GF107991021061008001001021MA1999999100681MD1999999+0161REMSYN011 333 58016;
0096825960999991997061118004-05650-035417FM-12+006199999V0201401N00461105001CN0040001N1+02841+02401101371ADDAA106000091AG10000GF106991011011008001001031MA1999999100641MD1999999-0041REMSYN011 333 59004;
0096825960999991997061218004-05650-035417FM-12+006199999V0201401N00511220001CN0040001N1+02861+01951101271ADDAA106000091AG10000GF103991021021008001001061MA1999999100541MD1999999-0101REMSYN011 333 59010;
0150825960999991997061300004-05650-035417FM-12+006199999V0201401N00151220001CN9999999N9+02241+01961101561ADDAA106000091AG10000GA1001+999999999GF100991001001999999001001KA1240M+02941MA1999999100821MD1999999-0051REMSYN017 333 10294 59005;EQDQ01+000002VOVAR 
0115825960999991997061312004-05650-035417FM-12+006199999V0201401N00411045001CN0040001N1+02661+02201101581ADDAA106000091AG10000GF106991031081008001061001KA1240N+01941MA1999999100841MD1999999+0061REMSYN017 333 20194 58006;
0096825960999991997061418004-05650-035417FM-12+006199999V0200901N00461220001CN0040001N1+02881+01861101131ADDAA106000091AG10000GF101991001001999999001091MA1999999100401MD1999999-0111REMSYN011 333 59011;
0143825960999991997061612004-05650-035417FM-12+006199999V0201401N00461220001CN0040001N1+02721+02321101351ADDAA124003091AG10000AY111061AY201061GF103991031081008001001001KA1240N+02131MA1999999100621MD1999999-0111MW1021REMSYN023 333 20213 59011 60034;
0096825960999991997061618004-05650-035417FM-12+006199999V0201401N00511220001CN0040001N1+02871+02011101091ADDAA106000091AG10000GF102991021061008001001001MA1999999100361MD1999999-0091REMSYN011 333 59009;
0162825960999991997061712004-05650-035417FM-12+006199999V0200901N00311220001CN9999999N9+02721+02341101451ADDAA124001091AG10000AY151061AY211061GF102991021021008001001001KA1240N+02121MA1999999100711MD1999999+0091MW1011REMSYN023 333 20212 58009 69974;EQDQ01+000002VOVAR 
0096825960999991997061718004-05650-035417FM-12+006199999V0200901N00461045001CN0040001N1+02811+02151101151ADDAA106000091AG10000GF106991041021008001061001MA1999999100421MD1999999+0061REMSYN011 333 58006;
0162825960999991997061800004-05650-035417FM-12+006199999V0200901N00051045001CN9999999N9+02351+02221101451ADDAA106000191AG10000AY111061AY221061GF106991041021008001041001KA1240M+02961MA1999999100711MD1999999+0111MW1011REMSYN023 333 10296 58011 69921;EQDQ01+000002VOVAR 
0143825960999991997061812004-05650-035417FM-12+006199999V0201401N00461007501CN0040001N1+02671+02281101531ADDAA124006091AG10005AY161061AY251061GF106991061011008001001001KA1240N+02061MA1999999100791MD1999999+0081MW1021REMSYN023 333 20206 58008 60064;
0096825960999991997061818004-05650-035417FM-12+006199999V0201401N00461220001CN0040001N1+02781+02041101211ADDAA106000091AG10000GF104991041011008001001001MA1999999100481MD1999999+0061REMSYN011 333 58006;
0150825960999991997061900004-05650-035417FM-12+006199999V0201401N00151220001CN9999999N9+02281+02091101411ADDAA106000091AG10000GA1001+999999999GF100991001001999999001001KA1240M+02951MA1999999100671MD1999999-0041REMSYN017 333 10295 59004;EQDQ01+000002VOVAR 
0115825960999991997061912004-05650-035417FM-12+006199999V0201401N00411220001CN0040001N1+02671+02111101461ADDAA106000091AG10000GF102991021061008001001001KA1240N+02041MA1999999100721MD1999999-0071REMSYN017 333 20204 59007;
0096825960999991997061918004-05650-035417FM-12+006199999V0200901N00461007501CN0040001N1+02861+02161101121ADDAA106000091AG10000GF106991061011008001001001MA1999999100391MD1999999-0091REMSYN011 333 59009;
0134825960999991997062000004-05650-035417FM-12+006199999V0201401N00151220001CN9999999N9+02301+02181101391ADDAA106000091AG10000GF102991021001008001041001KA1240M+02941MA1999999100651MD1999999-0201REMSYN017 333 10294 59020;EQDQ01+000002VOVAR 
0115825960999991997062012004-05650-035417FM-12+006199999V0201401N00311012001CN0040001N1+02701+02261101431ADDAA106000091AG10000GF106991061081008001001001KA1240N+02051MA1999999100691MD1999999-0031REMSYN017 333 20205 59003;
0096825960999991997062018004-05650-035417FM-12+006199999V0200901N00511220001CN0040001N1+02881+02321101121ADDAA106000091AG10000GF104991041011008001001001MA1999999100391MD1999999+0001REMSYN011 333 58000;
0134825960999991997062100004-05650-035417FM-12+006199999V0200901N00151220001CN9999999N9+02341+02151101351ADDAA106000091AG10000GF101991011001017501041001KA1240M+02971MA1999999100621MD1999999-0031REMSYN017 333 10297 59003;EQDQ01+000002VOVAR 
0143825960999991997062118004-05650-035417FM-12+006199999V0201401N00511220001CN0040001N1+02831+02121101101ADDAA199000191AG10000AY151061AY201061GF104991999021008001001001MA1999999100371MD1999999-0021MW1011REMSYN017 333 59002 69913;EQDQ01+000022SCOTLC
0143825960999991997062212004-05650-035417FM-12+006199999V0201801N00361007501CN0040001N1+02961+02181101451ADDAA124002091AG10000AY151061AY221061GF105991051011008001001001KA1240N+02131MA1999999100711MD1999999+0021MW1031REMSYN023 333 20213 58002 60024;
0096825960999991997062218004-05650-035417FM-12+006199999V0200901N00361007501CN0040001N1+02741+02021101241ADDAA106000091AG10000GF107991051011008001051999MA1999999100511MD1999999+0141REMSYN011 333 58014;
0143825960999991997062312004-05650-035417FM-12+006199999V0201401N00211007501CN0040001N1+02461+02251101461ADDAA124000391AG10000AY151061AY221061GF107991071061008001999999KA1240N+02101MA1999999100721MD1999999+0011MW1021REMSYN023 333 20210 58001 69934;
0096825960999991997062318004-05650-035417FM-12+006199999V0200901N00411045001CN0040001N1+02171+02111101161ADDAA106000091AG10000GF106991041011008001021081MA1999999100431MD1999999-0081REMSYN011 333 59008;
0115825960999991997062412004-05650-035417FM-12+006199999V0201401N00361007501CN0040001N1+02621+02241101321ADDAA106000091AG10000GF106991061021008001001001KA1240N+02061MA1999999100591MD1999999-0131REMSYN017 333 20206 59013;
0096825960999991997062418004-05650-035417FM-12+006199999V0201401N00511105001CN0040001N1+02891+02161101061ADDAA106000091AG10000GF105991041021008001001091MA1999999100331MD1999999-0101REMSYN011 333 59010;
0134825960999991997062500004-05650-035417FM-12+006199999V0201401N00211220001CN9999999N9+02321+02161101311ADDAA106000091AG10000GF101991011011008001001001KA1240M+02901MA1999999100451MD1999999-0031REMSYN017 333 10290 59003;EQDQ01+000002VOVAR 
0115825960999991997062512004-05650-035417FM-12+006199999V0201801N00721220001CN0040001N1+02681+01971101311ADDAA106000091AG10000GF102991021021008001001001KA1240N+02001MA1999999100581MD1999999-0011REMSYN017 333 20200 59001;
0096825960999991997062518004-05650-035417FM-12+006199999V0201401N00461220001CN0040001N1+02861+02031100991ADDAA106000091AG10000GF101991011021008001001001MA1999999100361MD1999999-0071REMSYN011 333 59007;
0150825960999991997062600004-05650-035417FM-12+006199999V0201401N00261220001CN9999999N9+02231+01901101171ADDAA106000091AG10000GA1001+999999999GF100991001001999999001001KA1240M+02991MA1999999100441MD1999999-0141REMSYN017 333 10299 59014;EQDQ01+000002VOVAR 
0115825960999991997062612004-05650-035417FM-12+006199999V0201401N00461007501CN0040001N1+02611+01891101291ADDAA106000091AG10000GF107991071061008001999999KA1240N+01951MA1999999100561MD1999999-0021REMSYN017 333 20195 59002;
0096825960999991997062618004-05650-035417FM-12+006199999V0201401N00411045001CN0040001N1+02781+01981101041ADDAA106000091AG10000GF108991021021008001071061MA1999999100361MD1999999+0051REMSYN011 333 58005;
0096825960999991997062718004-05650-035417FM-12+006199999V0200901N00621220001CN0040001N1+02891+02031101111ADDAA106000091AG10000GF102991011021008001021001MA1999999100381MD1999999+0071REMSYN011 333 58007;
0124825960999991997062818004-05650-035417FM-12+006199999V0200901N00461045001CN0040001N1+02741+02171101261ADDAA106000191AG10000AY151061AY221061GF106991041021008001021001MA1999999100531MD1999999+0151MW1021REMSYN017 333 58015 69911;
0150825960999991997062900004-05650-035417FM-12+006199999V0200901N00151220001CN9999999N9+02341+02171101511ADDAA106000091AG10000GA1001+999999999GF100991001001999999001001KA1240M+02761MA1999999100771MD1999999+0101REMSYN017 333 10276 58010;EQDQ01+000002VOVAR 
0143825960999991997062912004-05650-035417FM-12+006199999V0201401N00361045001CN0040001N1+02681+02241101601ADDAA124000591AG10000AY151061AY221061GF105991041021008001031001KA1240N+02051MA1999999100861MD1999999+0101MW1021REMSYN023 333 20205 58010 69964;
0096825960999991997062918004-05650-035417FM-12+006199999V0200901N00511045001CN0040001N1+02881+02301101291ADDAA106000091AG10000GF106991011011008001021091MA1999999100561MD1999999+0031REMSYN011 333 58003;
0115825960999991997063012004-05650-035417FM-12+006199999V0200901N00311105001CN0040001N1+02711+02281101501ADDAA106000091AG10000GF106991031081008001001091KA1240N+02101MA1999999100761MD1999999-0101REMSYN017 333 20210 59010;
0096825960999991997063018004-05650-035417FM-12+006199999V0200901N00461105001CN0040001N1+02871+02141101231ADDAA106000091AG10000GF106991011061008001001091MA1999999100501MD1999999-0061REMSYN011 333 59006;
0115825960999991997070112004-05650-035417FM-12+006199999V0201401N00361012001CN0040001N1+02681+02161101541ADDAA106000091AG10000GF107991071081008001071001KA1240N+02021MA1999999100801MD1999999+0041REMSYN017 333 20202 58004;
0096825960999991997070118004-05650-035417FM-12+006199999V0200901N00511220001CN0040001N1+02801+02081101201ADDAA106000091AG10000GF104991041011008001001001MA1999999100471MD1999999-0031REMSYN011 333 59003;
0134825960999991997070200004-05650-035417FM-12+006199999V0201401N00151220001CN9999999N9+02311+02071101481ADDAA106000091AG10000GF102991021081008001001001KA1240M+02951MA1999999100741MD1999999+0021REMSYN017 333 10295 58002;EQDQ01+000002VOVAR 
0134825960999991997070300004-05650-035417FM-12+006199999V0201401N002619999999N9999999N9+02351+02001101511ADDAA106000091AG10000GF105991999999008001999999KA1240M+02901MA1999999100771MD1999999+0031REMSYN017 333 10290 58003;EQDQ01+000002VOVAR 
0143825960999991997070312004-05650-035417FM-12+006199999V0201801N00311007501CN0020001N1+02261+02161101581ADDAA124006091AG10000AY121061AY211061GF108991051071008001021999KA1240N+02021MA1999999100841MD1999999-0021MW1541REMSYN023 333 20202 59002 60064;
0124825960999991997070318004-05650-035417FM-12+006199999V0201401N00461007501CN0040001N1+02671+02351101131ADDAA106002091AG10005AY161061AY251061GF108991051071008001011999MA1999999100401MD1999999-0071MW1201REMSYN017 333 59007 60021;
