0115827840999991997010112004-07317-039300FM-12+040999999V0200901N00151045001CN0200001N1+02701+02111101031ADDAA106000091AG10000GF106991041021008001011001KA1240N+02291MA1999999096381MD1999999-0021REMSYN017 333 20229 59002;
0096827840999991997010118004-07317-039300FM-12+040999999V0200501N00261105001CN0200001N1+03261+01841100571ADDAA106000091AG10000GF105991021021008001001021MA1999999095971MD1999999+0111REMSYN011 333 58011;
0134827840999991997010300004-07317-039300FM-12+040999999V0200901N00051007501CN9999999N9+02671+02201100821ADDAA106000091AG10000GF108991081061008001999999KA1240M+03311MA1999999096191MD1999999+0081REMSYN017 333 10331 58008;EQDQ01+000002VOVAR 
0115827840999991997010312004-07317-039300FM-12+040999999V0200501N00261045001CN0200001N1+02701+01941101211ADDAA106000091AG10000GF105991021011008001031001KA1240N+02391MA1999999096571MD1999999+0131REMSYN017 333 20239 58013;
0096827840999991997010318004-07317-039300FM-12+040999999V0200901N00211220001CN0200001N1+03281+01701100691ADDAA106000091AG10000GF101991011011012501001001MA1999999096091MD1999999+0051REMSYN011 333 58005;
0134827840999991997010412004-07317-039300FM-12+040999999V0200901N00211220001CN0200001N1+02761+02021101161ADDAA106000091AG10000GF103991999011008001001001KA1240N+02271MA1999999096521MD1999999-0051REMSYN017 333 20227 59005;EQDQ01+000012SCOTLC
0150827840999991997010500004-07317-039300FM-12+040999999V0209991C00001220001CN9999999N9+02461+01941100821ADDAA106000091AG10000GA1001+999999999GF100991001001999999001001KA1240M+03421MA1999999096191MD1999999-0201REMSYN017 333 10342 59020;EQDQ01+000002VOVAR 
0143827840999991997010512004-07317-039300FM-12+040999999V0203601N00151012001CN0200001N1+02641+02051101161ADDAA124000391AG10001AY151061AY211061GF108991081081008001999999KA1240N+02341MA1999999096511MD1999999-0011MW1021REMSYN023 333 20234 59001 69934;
0115827840999991997010612004-07317-039300FM-12+040999999V0200501N00311007501CN0200001N1+02741+02051101221ADDAA106000091AG10000GF107991071021008001001001KA1240N+02391MA1999999096571MD1999999+0061REMSYN017 333 20239 58006;
0134827840999991997010700004-07317-039300FM-12+040999999V0202701N00051012001CN9999999N9+02601+01991100921ADDAA106000091AG10000GF107991071081008001001001KA1240M+03401MA1999999096291MD1999999+0111REMSYN017 333 10340 58011;EQDQ01+000002VOVAR 
0143827840999991997010712004-07317-039300FM-12+040999999V0200501N00211012001CN0200001N1+02601+02121101371ADDAA124002091AG10006AY161061AY251061GF107991071081008001001001KA1240N+02271MA1999999096711MD1999999+0141MW1021REMSYN023 333 20227 58014 60024;
0096827840999991997010718004-07317-039300FM-12+040999999V0203601N00101220001CN0200001N1+03151+01971100821ADDAA106000091AG10000GF104991041021012501001001MA1999999096201MD1999999+0121REMSYN011 333 58012;
0150827840999991997010900004-07317-039300FM-12+040999999V0209991C00001220001CN9999999N9+02401+02091101161ADDAA106000091AG10000GA1001+999999999GF100991001001999999001001KA1240M+03211MA1999999096501MD1999999+0031REMSYN017 333 10321 58003;EQDQ01+000002VOVAR 
0115827840999991997010912004-07317-039300FM-12+040999999V0200501N00101007501CN0200001N1+02541+02061101331ADDAA106000091AG10000GF108991081051008001999999KA1240N+02161MA1999999096661MD1999999-0021REMSYN017 333 20216 59002;
0096827840999991997010918004-07317-039300FM-12+040999999V0201401N00151045001CN0200001N1+03181+02011100971ADDAA106000091AG10000GF108991031021008001031999MA1999999096281MD1999999-0051REMSYN011 333 59005;
0162827840999991997011000004-07317-039300FM-12+040999999V0200901N00101220001CN9999999N9+02281+01961101121ADDAA106001091AG10000AY111061AY211061GF101991011081008001001001KA1240M+03241MA1999999096451MD1999999-0051MW1201REMSYN023 333 10324 59005 69991;EQDQ01+000002VOVAR 
0143827840999991997011012004-07317-039300FM-12+040999999V0200501N00151012001CN0200001N1+02601+02121101341ADDAA124001091AG10001AY151061AY211061GF108991061081008001031999KA1240N+02131MA1999999096671MD1999999+0011MW1021REMSYN023 333 20213 58001 60014;
0096827840999991997011018004-07317-039300FM-12+040999999V0200901N00151012001CN0200001N1+03261+01951100831ADDAA106000091AG10000GF107991051081008001031001MA1999999096211MD1999999-0071REMSYN011 333 59007;
0115827840999991997011112004-07317-039300FM-12+040999999V0200501N00211012001CN0200001N1+02671+02111101261ADDAA106000091AG10000GF108991081081008001999999KA1240N+02161MA1999999096601MD1999999-0071REMSYN017 333 20216 59007;
0115827840999991997011212004-07317-039300FM-12+040999999V0200901N00051012001CN0200001N1+02621+02031101261ADDAA106000091AG10000GF108991081081008001999999KA1240N+02241MA1999999096611MD1999999+0011REMSYN017 333 20224 58001;
0150827840999991997011300004-07317-039300FM-12+040999999V0203201N00051220001CN9999999N9+02601+02141100981ADDAA106000091AG10000GA1001+999999999GF100991001001999999001001KA1240M+03251MA1999999096341MD1999999-0021REMSYN017 333 10325 59002;EQDQ01+000002VOVAR 
0115827840999991997011312004-07317-039300FM-12+040999999V0200901N00051012001CN0200001N1+02551+02111101351ADDAA106000091AG10000GF108991081081008001999999KA1240N+02381MA1999999096691MD1999999+0081REMSYN017 333 20238 58008;
0150827840999991997011400004-07317-039300FM-12+040999999V0203201N00051220001CN9999999N9+02461+02131101061ADDAA106000091AG10000GA1001+999999999GF100991001001999999001001KA1240M+03201MA1999999096411MD1999999+0071REMSYN017 333 10320 58007;EQDQ01+000002VOVAR 
0143827840999991997011412004-07317-039300FM-12+040999999V0200901N00101007501CN0200001N1+02451+02111101391ADDAA124000391AG10001AY151061AY211061GF108991081061008001999999KA1240N+02241MA1999999096721MD1999999+0031MW1021REMSYN023 333 20224 58003 69934;
0115827840999991997011512004-07317-039300FM-12+040999999V0200501N004110075019N0200001N1+02671+01951101421ADDAA106000091AG10000GF107991051021008001031081KA1240N+02191MA1999999096751MD1999999+0031REMSYN017 333 20219 58003;
0096827840999991997011518004-07317-039300FM-12+040999999V0200501N00311220001CN0200001N1+03151+01541100981ADDAA106000091AG10000GF103991011011008001071001MA1999999096351MD1999999-0041REMSYN011 333 59004;
0150827840999991997011600004-07317-039300FM-12+040999999V0201801N00101220001CN9999999N9+02301+01751101141ADDAA106000091AG10000GA1001+999999999GF100991001001999999001001KA1240M+03241MA1999999096471MD1999999-0121REMSYN017 333 10324 59012;EQDQ01+000002VOVAR 
0115827840999991997011612004-07317-039300FM-12+040999999V0200501N00311220001CN0200001N1+02721+01901101261ADDAA106000091AG10000GF102991011021008001011001KA1240N+01921MA1999999096601MD1999999-0151REMSYN017 333 20192 59015;
0096827840999991997011618004-07317-039300FM-12+040999999V0203601N00311045001CN0200001N1+03221+01731100821ADDAA106000091AG10000GF108991011011008001071999MA1999999096191MD1999999-0161REMSYN011 333 59016;
0134827840999991997011700004-07317-039300FM-12+040999999V0209991C00001012001CN9999999N9+02551+01951100931ADDAA106000091AG10000GF108991081081008001999999KA1240M+03391MA1999999096301MD1999999-0171REMSYN017 333 10339 59017;EQDQ01+000002VOVAR 
0134827840999991997011712004-07317-039300FM-12+040999999V0203601N002119999999N0200001N1+02591+02011101141ADDAA106000091AG10000GF105991999081008001999999KA1240N+02341MA1999999096491MD1999999-0111REMSYN017 333 20234 59011;EQDQ01+000082SCOTLC
0096827840999991997011718004-07317-039300FM-12+040999999V0202701N00151045001CN0200001N1+03021+01861100771ADDAA106000091AG10000GF108991011021008001071999MA1999999096151MD1999999-0041REMSYN011 333 59004;
0134827840999991997011800004-07317-039300FM-12+040999999V0201801N00151007501CN9999999N9+02401+01891100871ADDAA106000091AG10000GF108991081061008001999999KA1240M+03191MA1999999096231MD1999999-0071REMSYN017 333 10319 59007;EQDQ01+000002VOVAR 
0115827840999991997011812004-07317-039300FM-12+040999999V0200501N00151012001CN0200001N1+02601+01941101231ADDAA106000091AG10000GF108991081081008001999999KA1240N+02261MA1999999096571MD1999999+0081REMSYN017 333 20226 58008;
0134827840999991997011900004-07317-039300FM-12+040999999V0209991C00001007501CN9999999N9+02301+01851101151ADDAA106000091AG10000GF106991061061008001001001KA1240M+03311MA1999999096491MD1999999+0261REMSYN017 333 10331 58026;EQDQ01+000002VOVAR 
0115827840999991997011912004-07317-039300FM-12+040999999V0201801N00151045001CN0200001N1+02681+01971101281ADDAA106000091AG10000GF107991021011008001071091KA1240N+02241MA1999999096621MD1999999+0051REMSYN017 333 20224 58005;
0096827840999991997011918004-07317-039300FM-12+040999999V0200901N00211012001CN0200001N1+03381+01661100751ADDAA106000091AG10000GF107991051021012501071001MA1999999096151MD1999999+0111REMSYN011 333 58011;
0143827840999991997012012004-07317-039300FM-12+040999999V0200901N00151012001CN0200001N1+02651+02071101431ADDAA124001091AG10001AY151061AY221061GF108991071081008001031999KA1240N+02271MA1999999096671MD1999999+0051MW1021REMSYN023 333 20227 58005 60014;
0096827840999991997012018004-07317-039300FM-12+040999999V0203601N00051045001CN0200001N1+03121+01921100821ADDAA106000091AG10000GF108991011021008001021999MA1999999096201MD1999999+0051REMSYN011 333 58005;
0162827840999991997012100004-07317-039300FM-12+040999999V0203201N00151007501CN9999999N9+02361+01871101091ADDAA106000391AG10000AY121061AY221061GF108991081071008001999999KA1240M+03191MA1999999096441MD1999999+0021MW1201REMSYN023 333 10319 58002 69931;EQDQ01+000002VOVAR 
0121827840999991997012112004-07317-039300FM-12+040999999V0203601N00211012001CN0200001N1+02561+02041101251ADDAA124000391AG10000GF108991081081008001999999KA1240N+02201MA1999999096581MD1999999-0091REMSYN023 333 20220 59009 69934;
0096827840999991997012118004-07317-039300FM-12+040999999V0200901N00101045001CN0200001N1+03081+01871100791ADDAA106000091AG10000GF108991041021012501071091MA1999999096171MD1999999-0031REMSYN011 333 59003;
0134827840999991997012200004-07317-039300FM-12+040999999V0200901N00151012001CN9999999N9+02471+01781101271ADDAA106000091AG10000GF108991081081008001999999KA1240M+03151MA1999999096541MD1999999+0101REMSYN017 333 10315 58010;EQDQ01+000002VOVAR 
0143827840999991997012212004-07317-039300FM-12+040999999V0200501N00051007501CN0040001N1+02281+02091101371ADDAA124002091AG10001AY151061AY221061GF108991081071008001999999KA1240N+02181MA1999999096691MD1999999+0111MW1511REMSYN023 333 20218 58011 60024;
0143827840999991997012312004-07317-039300FM-12+040999999V0201401N00051045001CN0040001N1+02381+02071101321ADDAA124001091AG10001AY151061AY221061GF108991011021008001021999KA1240N+02171MA1999999096641MD1999999-0051MW1021REMSYN023 333 20217 59005 60014;
0096827840999991997012318004-07317-039300FM-12+040999999V0200501N00261015001CN0200001N1+02791+02011100931ADDAA106000091AG10000GF108991071081012501021999MA1999999096281MD1999999-0051REMSYN011 333 59005;
0143827840999991997012412004-07317-039300FM-12+040999999V0201801N00051007501CN0040001N1+02261+02031101501ADDAA124015091AG10006AY161061AY221061GF108991081071008001999999KA1240N+02021MA1999999096811MD1999999+0171MW1021REMSYN023 333 20202 58017 60154;
0134827840999991997012600004-07317-039300FM-12+040999999V0202701N00101007501CN9999999N9+02541+02231101051ADDAA106000091AG10000GF108991081071008001999999KA1240M+03091MA1999999096411MD1999999-0211REMSYN017 333 10309 59021;EQDQ01+000002VOVAR 
0143827840999991997012612004-07317-039300FM-12+040999999V0202701N00151007501CN0100001N1+02121+02001101451ADDAA124036091AG10006AY161061AY221061GF108991081071008001999999KA1240N+02051MA1999999096761MD1999999+0201MW1021REMSYN023 333 20205 58020 60364;
0096827840999991997012618004-07317-039300FM-12+040999999V0200901N00211012001CN0200001N1+02631+01731100881ADDAA106000091AG10000GF108991081071012501999999MA1999999096231MD1999999+0081REMSYN011 333 58008;
0134827840999991997012700004-07317-039300FM-12+040999999V0201801N00051012001CN9999999N9+02141+01971101091ADDAA106000091AG10000GF107991061081008001031001KA1240M+02691MA1999999096401MD1999999-0011REMSYN017 333 10269 59001;EQDQ01+000002VOVAR 
0115827840999991997012712004-07317-039300FM-12+040999999V0200901N00261012001CN0200001N1+02631+02031101141ADDAA106000091AG10000GF108991061081008001071999KA1240N+02031MA1999999096471MD1999999-0291REMSYN017 333 20203 59029;
0150827840999991997020100004-07317-039300FM-12+040999999V0209991C00001220001CN9999999N9+02421+01991101091ADDAA106000091AG10000GA1001+999999999GF100991001001999999001001KA1240M+03151MA1999999096441MD1999999+0041REMSYN017 333 10315 58004;EQDQ01+000002VOVAR 
0143827840999991997020112004-07317-039300FM-12+040999999V0200501N00051012001CN0200001N1+02521+02021101301ADDAA124000391AG10001AY151061AY211061GF108991081081008001999999KA1240N+02261MA1999999096631MD1999999+0001MW1021REMSYN023 333 20226 58000 69934;
0143827840999991997020212004-07317-039300FM-12+040999999V0202301N00151007501CN0200001N1+02281+02161101361ADDAA124025091AG10019AY191061AY261061GF108991081071008001999999KA1240N+02121MA1999999096681MD1999999+0051MW1021REMSYN023 333 20212 58005 60254;
0143827840999991997020412004-07317-039300FM-12+040999999V0200501N00051012001CN0100001N1+02461+02151101261ADDAA124001091AG10006AY161061AY211061GF108991081081008001999999KA1240N+02131MA1999999096591MD1999999-0031MW1021REMSYN023 333 20213 59003 60014;
0096827840999991997020418004-07317-039300FM-12+040999999V0200501N00211045001CN0200001N1+03021+02041100821ADDAA106000091AG10000GF107991041021012501011001MA1999999096191MD1999999+0001REMSYN011 333 58000;
0115827840999991997020512004-07317-039300FM-12+040999999V0200901N00361007501CN0200001N1+02681+01861101241ADDAA106000091AG10000GF106991061021008001001001KA1240N+02281MA1999999096581MD1999999-0041REMSYN017 333 20228 59004;
0096827840999991997020518004-07317-039300FM-12+040999999V0200501N00101220001CN0200001N1+03081+01951100771ADDAA106000091AG10000GF102991021021008001011001MA1999999096151MD1999999-0041REMSYN011 333 59004;
0096827840999991997020618004-07317-039300FM-12+040999999V0200501N00151012001CN0200001N1+03001+02001100841ADDAA106000091AG10000GF107991071081008001001001MA1999999096211MD1999999+0061REMSYN011 333 58006;
0162827840999991997020700004-07317-039300FM-12+040999999V0209991C00001012001CN9999999N9+02421+01931101151ADDAA106000391AG10001AY151061AY221061GF108991081081008001999999KA1240M+03061MA1999999096501MD1999999+0021MW1021REMSYN023 333 10306 58002 69931;EQDQ01+000002VOVAR 
0143827840999991997020712004-07317-039300FM-12+040999999V0200501N00211007501CN0200001N1+02631+02101101371ADDAA124001091AG10001AY151061AY221061GF106991061021008001001001KA1240N+02131MA1999999096711MD1999999+0131MW1021REMSYN023 333 20213 58013 60014;
0112827840999991997020718004-07317-039300FM-12+040999999V0203601N00151220001CN0200001N1+03081+01601101001ADDAA106000091AG10000GA1001+999999999GF100991001001999999001001MA1999999096361MD1999999+0151REMSYN011 333 58015;
0143827840999991997020912004-07317-039300FM-12+040999999V0200901N00151045001CN0200001N1+02581+02101101301ADDAA124013091AG10019AY191061AY261061GF108991031081008001061999KA1240N+02181MA1999999096631MD1999999-0081MW1021REMSYN023 333 20218 59008 60134;
0096827840999991997020918004-07317-039300FM-12+040999999V0203601N00211015001CN0200001N1+03061+02051100851ADDAA106000091AG10000GF108991081081012501999999MA1999999096221MD1999999-0041REMSYN011 333 59004;
0143827840999991997021012004-07317-039300FM-12+040999999V0203601N00151012001CN0200001N1+02581+02101101391ADDAA124007091AG10006AY161061AY221061GF108991061081008001061999KA1240N+02141MA1999999096711MD1999999+0081MW1031REMSYN023 333 20214 58008 60074;
0096827840999991997021018004-07317-039300FM-12+040999999V0200501N00151012001CN0200001N1+02901+02021101081ADDAA106000091AG10000GF107991051081008001021001MA1999999096431MD1999999+0211REMSYN011 333 58021;
0143827840999991997021212004-07317-039300FM-12+040999999V0200501N00101007501CN0200001N1+02461+02131101331ADDAA124000191AG10001AY151061AY221061GF108991081071008001999999KA1240N+02221MA1999999096661MD1999999-0021MW1021REMSYN023 333 20222 59002 69924;
0124827840999991997021218004-07317-039300FM-12+040999999V0200501N00151012001CN0200001N1+02721+02101101011ADDAA106000591AG10001AY151061AY221061GF108991081081008001999999MA1999999096371MD1999999+0031MW1021REMSYN017 333 58003 69941;
0143827840999991997021312004-07317-039300FM-12+040999999V0202301N00151007501CN0040001N1+02261+02091101501ADDAA124000591AG10001AY151061AY221061GF108991081071008001999999KA1240N+02111MA1999999096811MD1999999+0151MW1021REMSYN023 333 20211 58015 69954;
0096827840999991997021318004-07317-039300FM-12+040999999V0200501N00151012001CN0200001N1+02581+02061101211ADDAA106000091AG10000GF108991081081008001999999MA1999999096551MD1999999+0181REMSYN011 333 58018;
0096827840999991997021418004-07317-039300FM-12+040999999V0203601N00261220001CN0200001N1+03001+01971100961ADDAA106000091AG10000GF104991031021008001031001MA1999999096341MD1999999-0211REMSYN011 333 59021;
0134827840999991997021500004-07317-039300FM-12+040999999V0201401N00151007501CN9999999N9+02351+01851101321ADDAA106000091AG10000GF106991061021008001001001KA1240M+03091MA1999999096651MD1999999+0091REMSYN017 333 10309 58009;EQDQ01+000002VOVAR 
0143827840999991997021512004-07317-039300FM-12+040999999V0200501N00261045001CN0200001N1+02511+01941101441ADDAA124009091AG10019AY191061AY261061GF105991031021008001031001KA1240N+02001MA1999999096761MD1999999+0051MW1021REMSYN023 333 20200 58005 60094;
0115827840999991997021612004-07317-039300FM-12+040999999V0200501N00311220001CN0200001N1+02561+02021101401ADDAA106000091AG10000GF102991021021008001001001KA1240N+02021MA1999999096721MD1999999-0041REMSYN017 333 20202 59004;
0096827840999991997021618004-07317-039300FM-12+040999999V0203601N00261220001CN0200001N1+02951+01881100931ADDAA106000091AG10000GF103991031021012501001001MA1999999096291MD1999999-0151REMSYN011 333 59015;
0134827840999991997021700004-07317-039300FM-12+040999999V0209991C00001012001CN9999999N9+02301+01941101181ADDAA106000091AG10000GF106991061081008001001001KA1240M+03021MA1999999096521MD1999999+0041REMSYN017 333 10302 58004;EQDQ01+000002VOVAR 
0115827840999991997021712004-07317-039300FM-12+040999999V0200501N00101220001CN0200001N1+02621+02031101381ADDAA106000091AG10000GF103991031021008001001001KA1240N+02081MA1999999096711MD1999999-0011REMSYN017 333 20208 59001;
0150827840999991997021800004-07317-039300FM-12+040999999V0201801N00051220001CN9999999N9+02341+02111101111ADDAA106000091AG10000GA1001+999999999GF100991001001999999001001KA1240M+03181MA1999999096451MD1999999-0071REMSYN017 333 10318 59007;EQDQ01+000002VOVAR 
0115827840999991997021812004-07317-039300FM-12+040999999V0200501N00261220001CN0200001N1+02681+02041101371ADDAA106000091AG10000GF102991021021008001001001KA1240N+02291MA1999999096701MD1999999-0011REMSYN017 333 20229 59001;
0115827840999991997021912004-07317-039300FM-12+040999999V0200901N00311220001CN0200001N1+02691+01971101371ADDAA106000091AG10000GF103991021021008001021001KA1240N+02061MA1999999096711MD1999999+0011REMSYN017 333 20206 58001;
0096827840999991997021918004-07317-039300FM-12+040999999V0203601N00311045001CN0200001N1+02961+01991100961ADDAA106000091AG10000GF106991041021008001021001MA1999999096321MD1999999+0041REMSYN011 333 58004;
0134827840999991997022000004-07317-039300FM-12+040999999V0201401N00101220001CN9999999N9+02351+02111101181ADDAA106000091AG10000GF101991011081008001001001KA1240M+03131MA1999999096521MD1999999-0091REMSYN017 333 10313 59009;EQDQ01+000002VOVAR 
0115827840999991997022012004-07317-039300FM-12+040999999V0200501N00211007501CN0200001N1+02581+02041101351ADDAA106000091AG10000GF106991061021008001001001KA1240N+02221MA1999999096681MD1999999-0031REMSYN017 333 20222 59003;
0115827840999991997022112004-07317-039300FM-12+040999999V0200901N00211007501CN0200001N1+02641+02031101401ADDAA106000091AG10000GF107991051021008001051001KA1240N+02121MA1999999096741MD1999999+0061REMSYN017 333 20212 58006;
0162827840999991997022200004-07317-039300FM-12+040999999V0209991C00001045001CN9999999N9+02301+02161101361ADDAA106003091AG10006AY161061AY221061GF108991011081008001051999KA1240M+03021MA1999999096691MD1999999+0101MW1021REMSYN023 333 10302 58010 60031;EQDQ01+000002VOVAR 
0121827840999991997022212004-07317-039300FM-12+040999999V0200901N00261045001CN0200001N1+02621+02071101531ADDAA124003091AG10000GF105991021021008001011001KA1240N+02131MA1999999096851MD1999999+0111REMSYN023 333 20213 58011 60034;
0096827840999991997022218004-07317-039300FM-12+040999999V0200501N00151220001CN0200001N1+03021+01921101031ADDAA106000091AG10000GF102991021081012501001001MA1999999096411MD1999999+0031REMSYN011 333 58003;
0162827840999991997022300004-07317-039300FM-12+040999999V0209991C00001012001CN9999999N9+02291+02211101361ADDAA106002091AG10006AY161061AY221061GF108991081081008001999999KA1240M+03091MA1999999096691MD1999999+0001MW1021REMSYN023 333 10309 58000 60021;EQDQ01+000002VOVAR 
0121827840999991997022312004-07317-039300FM-12+040999999V0200501N00261012001CN0200001N1+02551+02131101591ADDAA124002091AG10000GF107991071081008001001001KA1240N+02071MA1999999096901MD1999999+0051REMSYN023 333 20207 58005 60024;
0096827840999991997022318004-07317-039300FM-12+040999999V0203601N00151220001CN0200001N1+03041+01911101101ADDAA106000091AG10000GF102991021021012501001001MA1999999096431MD1999999+0041REMSYN011 333 58004;
0115827840999991997022412004-07317-039300FM-12+040999999V0203601N00211220001CN0200001N1+02601+02011101361ADDAA106000091AG10000GF103991031021008001001001KA1240N+02181MA1999999096701MD1999999-0201REMSYN017 333 20218 59020;
0096827840999991997022418004-07317-039300FM-12+040999999V0200501N00211220001CN0200001N1+03041+02031100931ADDAA106000091AG10000GF102991021021008001061001MA1999999096301MD1999999-0151REMSYN011 333 59015;
0150827840999991997022500004-07317-039300FM-12+040999999V0201801N00051220001CN9999999N9+02311+02051101041ADDAA106000091AG10000GA1001+999999999GF100991001001999999001001KA1240M+03121MA1999999096381MD1999999-0151REMSYN017 333 10312 59015;EQDQ01+000002VOVAR 
0115827840999991997022512004-07317-039300FM-12+040999999V0200501N00211007501CN0200001N1+02561+02081101291ADDAA106000091AG10000GF106991051021008001031001KA1240N+02071MA1999999096621MD1999999-0081REMSYN017 333 20207 59008;
0150827840999991997022700004-07317-039300FM-12+040999999V0202301N00051220001CN9999999N9+02321+01941101151ADDAA106000091AG10000GA1001+999999999GF100991001001999999001001KA1240M+03081MA1999999096481MD1999999+0071REMSYN017 333 10308 58007;EQDQ01+000002VOVAR 
0115827840999991997022712004-07317-039300FM-12+040999999V0200501N00261220001CN0200001N1+02641+01831101361ADDAA106000091AG10000GF102991011011008001071001KA1240N+02161MA1999999096691MD1999999+0051REMSYN017 333 20216 58005;
0096827840999991997022818004-07317-039300FM-12+040999999V0202601N00151220001CN0200001N1+03141+01971100741ADDAA106000091AG10000GF103991011021008001071001MA1999999096111MD1999999-0211REMSYN011 333 59021;
0150827840999991997030100004-07317-039300FM-12+040999999V0209991C00001220001CN9999999N9+02261+01921100951ADDAA106000091AG10000GA1001+999999999GF100991001001999999001001KA1240M+03191MA1999999096291MD1999999-0141REMSYN017 333 10319 59014;EQDQ01+000002VOVAR 
0115827840999991997030112004-07317-039300FM-12+040999999V0203201N00051012001CN0200001N1+02581+02101101221ADDAA106000091AG10000GF108991081081008001999999KA1240N+02021MA1999999096551MD1999999-0061REMSYN017 333 20202 59006;
0096827840999991997030118004-07317-039300FM-12+040999999V0200501N000510450019N0200001N1+02781+01981100781ADDAA106000091AG10000GF108991011011008001021999MA1999999096131MD1999999+0021REMSYN011 333 58002;
0115827840999991997030212004-07317-039300FM-12+040999999V0209991C00001999999CN0200001N1+02541+02021101131ADDAA106000091AG10000GF108991081999008001999999KA1240N+02031MA1999999096461MD1999999-0091REMSYN017 333 20203 59009;
0096827840999991997030218004-07317-039300FM-12+040999999V0203201N00211015001CN0200001N1+02891+02031100691ADDAA106000091AG10000GF108991071081012501051999MA1999999096061MD1999999-0071REMSYN011 333 59007;
0150827840999991997030300004-07317-039300FM-12+040999999V0209991C00001220001CN9999999N9+02341+02051100911ADDAA106000091AG10000GA1001+999999999GF100991001001999999001001KA1240M+03091MA1999999096261MD1999999+0001REMSYN017 333 10309 58000;EQDQ01+000002VOVAR 
0134827840999991997030312004-07317-039300FM-12+040999999V0200501N00101012001CN0200001N1+02111+02111101271ADDAA106000091AG10000GF107991071081008001001001KA1240N+99999MA1999999096611MD1999999+0151REMSYN017 333 20227 58015;EQDQ01 +02272ATMN  
0096827840999991997030318004-07317-039300FM-12+040999999V0200501N00361220001CN0200001N1+03121+01991100711ADDAA106000091AG10000GF104991021021008001071001MA1999999096091MD1999999+0031REMSYN011 333 58003;
0143827840999991997030400004-07317-039300FM-12+040999999V0200901N00311007501CN0100001N1+02321+02091101301ADDAA106001091AG10000AY121061AY201061GF108991081071008001999999KA1240M+03191MA1999999096631MD1999999+0371MW1511REMSYN023 333 10319 58037 60011;
0143827840999991997030412004-07317-039300FM-12+040999999V0201401N00151045001CN0200001N1+02611+02191101391ADDAA124007091AG10006AY161061AY251061GF108991031021008001011999KA1240N+02241MA1999999096721MD1999999+0111MW1021REMSYN023 333 20224 58011 60074;
0118827840999991997030418004-07317-039300FM-12+040999999V0201401N002619999999N0100001N1+02921+02141100911ADDAA106000091AG10000AY121061AY221061GF108991021021008001999999MA1999999096271MD1999999+0181MW1151REMSYN011 333 58018;
0156827840999991997030500004-07317-039300FM-12+040999999V0200901N00051007501CN9999999N9+02421+02051101201ADDAA106000091AG10018AY191061AY221061GF108991081061008001999999KA1240M+03071MA1999999096541MD1999999-0091MW1021REMSYN017 333 10307 59009;EQDQ01+000002VOVAR 
0156827840999991997030512004-07317-039300FM-12+040999999V0200901N00051007501CN9999999N9+02421+02051101201ADDAA106000091AG10018AY191061AY221061GF108991081061008001999999KA1240M+03071MA1999999096541MD1999999-0091MW1021REMSYN017 333 10307 59009;EQDQ01+000002VOVAR 
0096827840999991997030518004-07317-039300FM-12+040999999V0201401N00261045001CN0200001N1+03081+01591100851ADDAA106000091AG10000GF107991041021008001061001MA1999999096231MD1999999-0041REMSYN011 333 59004;
0115827840999991997030612004-07317-039300FM-12+040999999V0200901N00211220001CN0200001N1+02741+02021101201ADDAA106000091AG10000GF104991041021008001001001KA1240N+02161MA1999999096551MD1999999-0121REMSYN017 333 20216 59012;
0115827840999991997030712004-07317-039300FM-12+040999999V0203601N00101012001CN0040001N1+02341+02091101351ADDAA106000091AG10000GF108991081081008001999999KA1240N+02281MA1999999096681MD1999999+0131REMSYN017 333 20228 58013;
0096827840999991997030818004-07317-039300FM-12+040999999V0201401N00211007501CN0200001N1+03191+01801100891ADDAA106000091AG10000GF108991051021008001071999MA1999999096281MD1999999+0101REMSYN011 333 58010;
0134827840999991997030900004-07317-039300FM-12+040999999V0201801N00101012001CN9999999N9+02551+01961101101ADDAA106000091AG10000GF108991081081008001999999KA1240M+03251MA1999999096451MD1999999+0011REMSYN017 333 10325 58001;EQDQ01+000002VOVAR 
0143827840999991997030912004-07317-039300FM-12+040999999V0200501N00101012001CN0200001N1+02681+02111101291ADDAA124000191AG10001AY151061AY221061GF108991081081008001999999KA1240N+02301MA1999999096641MD1999999-0021MW1021REMSYN023 333 20230 59002 69924;
0143827840999991997031012004-07317-039300FM-12+040999999V0201401N00151012001CN0200001N1+02671+02091101211ADDAA124006091AG10006AY161061AY221061GF107991051081008001061001KA1240N+02211MA1999999096561MD1999999-0081MW1021REMSYN023 333 20221 59008 60064;
0121827840999991997031112004-07317-039300FM-12+040999999V0200501N00261007501CN0200001N1+02581+02101101331ADDAA124013091AG10000GF106991061021008001001001KA1240N+02091MA1999999096671MD1999999+0111REMSYN023 333 20209 58011 60134;
0096827840999991997031118004-07317-039300FM-12+040999999V0203601N00211220001CN0200001N1+03021+01961100851ADDAA106000091AG10000GF104991031021008001031001MA1999999096221MD1999999-0091REMSYN011 333 59009;
0096827840999991997031218004-07317-039300FM-12+040999999V0200501N00151007501CN0200001N1+03071+01901100961ADDAA106000091AG10000GF105991051021008001001001MA1999999096331MD1999999+0111REMSYN011 333 58011;
0096827840999991997031318004-07317-039300FM-12+040999999V0200501N00211220001CN0200001N1+03041+02031101001ADDAA106000091AG10000GF103991021021008001071001MA1999999096371MD1999999+0041REMSYN011 333 58004;
0096827840999991997031418004-07317-039300FM-12+040999999V0201401N00311015001CN0200001N1+03041+02031101041ADDAA106000091AG10000GF108991081081012501999999MA1999999096401MD1999999+0031REMSYN011 333 58003;
0134827840999991997031512004-07317-039300FM-12+040999999V0201401N00151220001CN0200001N1+02651+02001101301ADDAA106000091AG10000GF104991999021008001001001KA1240N+02171MA1999999096641MD1999999-0131REMSYN017 333 20217 59013;EQDQ01+000032SCOTLC
0096827840999991997031518004-07317-039300FM-12+040999999V0200901N00261220001CN0200001N1+03161+01921100811ADDAA106000091AG10000GF104991041021012501001001MA1999999096201MD1999999-0201REMSYN011 333 59020;
0115827840999991997031612004-07317-039300FM-12+040999999V0200501N00211012001CN0200001N1+02581+02101101201ADDAA106000091AG10000GF108991081081008001999999KA1240N+02261MA1999999096541MD1999999-0101REMSYN017 333 20226 59010;
0115827840999991997031712004-07317-039300FM-12+040999999V0203601N00311045001CN0200001N1+02661+01921101181ADDAA106000091AG10000GF106991041021008001031001KA1240N+02251MA1999999096531MD1999999-0011REMSYN017 333 20225 59001;
0096827840999991997031718004-07317-039300FM-12+040999999V0203201N00151045001CN0200001N1+03151+01941100691ADDAA106000091AG10000GF108991011011008001031021MA1999999096081MD1999999-0021REMSYN011 333 59002;
0143827840999991997032012004-07317-039300FM-12+040999999V0203201N00101045001CN0200001N1+02591+02251101171ADDAA124023091AG10006AY161061AY221061GF107991021021008001071001KA1240N+02241MA1999999096531MD1999999+0091MW1021REMSYN023 333 20224 58009 60234;
0143827840999991997032112004-07317-039300FM-12+040999999V0203601N00101007501CN0040001N1+02501+02211101181ADDAA124005091AG10018AY191061AY261061GF108991081071008001999999KA1240N+02231MA1999999096521MD1999999-0011MW1031REMSYN023 333 20223 59001 60054;
0124827840999991997032218004-07317-039300FM-12+040999999V0201801N00101012001CN0200001N1+02571+02151100981ADDAA106005091AG10006AY161061AY221061GF108991061081008001031999MA1999999096321MD1999999+0241MW1021REMSYN017 333 58024 60051;
0121827840999991997032312004-07317-039300FM-12+040999999V0201801N00051007501CN0200001N1+02441+02091101471ADDAA124005091AG10000GF108991061071008001021999KA1240N+02141MA1999999096781MD1999999+0071REMSYN023 333 20214 58007 60054;
0124827840999991997032318004-07317-039300FM-12+040999999V0201401N00211007501CN0200001N1+02441+02131100981ADDAA106011091AG10006AY161061AY221061GF108991081061008001999999MA1999999096311MD1999999-0011MW1021REMSYN017 333 59001 60111;
0134827840999991997032400004-07317-039300FM-12+040999999V0209991C00001007501CN9999999N9+02301+02221101311ADDAA106000091AG10000GF108991081071008001999999KA1240M+02791MA1999999096631MD1999999+0051REMSYN017 333 10279 58005;EQDQ01+000002VOVAR 
0132827840999991997032412004-07317-039300FM-12+040999999V0200901N00151012001CN0200001N1+02501+02191101271ADDAA106000091AA224011091AG10000GF108991061081008001031999KA1240N+02201MA1999999096601MD1999999-0181REMSYN023 333 20220 59018 60114;
0096827840999991997032418004-07317-039300FM-12+040999999V0201801N00151012001CN0200001N1+02651+02201100801ADDAA106000091AG10000GF108991081081008001999999MA1999999096161MD1999999-0151REMSYN011 333 59015;
0118827840999991997032518004-07317-039300FM-12+040999999V0203601N00211012001CN0040001N1+02821+02201100771ADDAA106000091AG10000AY121061AY221061GF106991061081008001001001MA1999999096131MD1999999-0031MW1151REMSYN011 333 59003;
0143827840999991997032612004-07317-039300FM-12+040999999V0200501N00151007501CN0020001N1+02241+02171101331ADDAA124062091AG10006AY161061AY221061GF108991081071008001999999KA1240N+02161MA1999999096631MD1999999-0061MW1021REMSYN023 333 20216 59006 60624;
0096827840999991997032618004-07317-039300FM-12+040999999V0200901N00101007501CN0100001N1+02541+02211100801ADDAA106000091AG10000GF108991081071008001999999MA1999999096141MD1999999+0011REMSYN011 333 58001;
0143827840999991997032712004-07317-039300FM-12+040999999V0200901N00101007501CN0200001N1+02371+02131101231ADDAA124001091AG10006AY161061AY221061GF108991081071008001999999KA1240N+02171MA1999999096551MD1999999-0081MW1021REMSYN023 333 20217 59008 60014;
0124827840999991997032818004-07317-039300FM-12+040999999V0202701N00311004201CN0040001N1+02281+02201101151ADDAA106015091AG10018AY191061AY261061GF108991081071004501999999MA1999999096461MD1999999+0241MW1951REMSYN017 333 58024 60151;
0115827840999991997033012004-07317-039300FM-12+040999999V0200901N00261007501CN0200001N1+02681+02041101391ADDAA106000091AG10000GF107991051021008001011001KA1240N+02131MA1999999096721MD1999999+0051REMSYN017 333 20213 58005;
0096827840999991997033018004-07317-039300FM-12+040999999V0203601N00311012001CN0200001N1+02931+02041100961ADDAA106000091AG10000GF108991061021012501999999MA1999999096321MD1999999+0021REMSYN011 333 58002;
0143827840999991997040212004-07317-039300FM-12+040999999V0200501N00211012001CN0200001N1+02681+02111101501ADDAA124001091AG10001AY151061AY221061GF107991071081008001001001KA1240N+02321MA1999999096841MD1999999+0031MW1021REMSYN023 333 20232 58003 60014;
0115827840999991997040312004-07317-039300FM-12+040999999V0200501N00151220001CN0200001N1+02711+01861101511ADDAA106000091AG10000GF102991021001017501071001KA1240N+02121MA1999999096841MD1999999+0001REMSYN017 333 20212 58000;
0115827840999991997040412004-07317-039300FM-12+040999999V0203601N00151012001CN0200001N1+02621+02141101421ADDAA106000091AG10000GF107991071081008001001001KA1240N+02071MA1999999096751MD1999999-0091REMSYN017 333 20207 59009;
0115827840999991997040512004-07317-039300FM-12+040999999V0200901N00211007501CN0200001N1+02741+02101101391ADDAA106000091AG10000GF105991051021008001001001KA1240N+02101MA1999999096731MD1999999-0021REMSYN017 333 20210 59002;
0096827840999991997040518004-07317-039300FM-12+040999999V0200501N00211220001CN0200001N1+03061+02081100861ADDAA106000091AG10000GF102991021021008001001001MA1999999096231MD1999999-0111REMSYN011 333 59011;
0115827840999991997040612004-07317-039300FM-12+040999999V0200901N00211012001CN0200001N1+02661+02161101391ADDAA106000091AG10000GF108991081081008001999999KA1240N+01941MA1999999096731MD1999999+0001REMSYN017 333 20194 58000;
0096827840999991997040618004-07317-039300FM-12+040999999V0200901N00151015001CN0200001N1+03041+01971100971ADDAA106000091AG10000GF108991081081012501999999MA1999999096321MD1999999+0091REMSYN011 333 58009;
0143827840999991997040812004-07317-039300FM-12+040999999V0200901N00211012001CN0100001N1+02541+02131101291ADDAA124001091AG10001AY151061AY221061GF108991081081008001999999KA1240N+02261MA1999999096621MD1999999-0021MW1021REMSYN023 333 20226 59002 60014;
0115827840999991997041112004-07317-039300FM-12+040999999V0201401N00361220001CN0200001N1+02511+01841101501ADDAA106000091AG10000GF103991031021008001001001KA1240N+02201MA1999999096821MD1999999+0081REMSYN017 333 20220 58008;
0096827840999991997041118004-07317-039300FM-12+040999999V0201401N00311012001CN0200001N1+02961+01961101051ADDAA106000091AG10000GF105991051021012501001001MA1999999096411MD1999999-0051REMSYN011 333 59005;
0115827840999991997041312004-07317-039300FM-12+040999999V0200901N00211045001CN0200001N1+02771+02041101181ADDAA106000091AG10000GF108991011011008001011999KA1240N+02121MA1999999096531MD1999999-0131REMSYN017 333 20212 59013;
0096827840999991997041318004-07317-039300FM-12+040999999V0200901N00311015001CN0200001N1+02941+02061100751ADDAA106000091AG10000GF108991081081012501999999MA1999999096131MD1999999+0121REMSYN011 333 58012;
0134827840999991997041400004-07317-039300FM-12+040999999V0200901N00101220001CN9999999N9+02501+02051101231ADDAA106000091AG10000GF101991011081008001001001KA1240M+03251MA1999999096581MD1999999+0071REMSYN017 333 10325 58007;EQDQ01+000002VOVAR 
0115827840999991997041412004-07317-039300FM-12+040999999V0200501N00211045001CN0200001N1+02681+02161101261ADDAA106000091AG10000GF107991011021008001031001KA1240N+02251MA1999999096611MD1999999+0081REMSYN017 333 20225 58008;
0073827840999991997041512004-07317-039300FM-12+040999999V0200501N002119999999N0200001N1+02541+02131101411ADDAG10005AY161061AY291061GF107991999999008001999999MA1999999096731MW1021
0096827840999991997041618004-07317-039300FM-12+040999999V0201401N00261220001CN0200001N1+02961+02021101111ADDAA106000091AG10000GF103991031021008001001001MA1999999096461MD1999999+0161REMSYN011 333 58016;
0115827840999991997041712004-07317-039300FM-12+040999999V0200901N00211220001CN0200001N1+02651+01951101421ADDAA106000091AG10000GF102991021021008001001001KA1240N+02181MA1999999096751MD1999999-0111REMSYN017 333 20218 59011;
0096827840999991997041718004-07317-039300FM-12+040999999V0200901N00261220001CN0200001N1+03001+01841101011ADDAA106000091AG10000GF102991021021012501001001MA1999999096371MD1999999-0091REMSYN011 333 59009;
0134827840999991997041800004-07317-039300FM-12+040999999V0203601N00151007501CN9999999N9+02381+02071101291ADDAA106000091AG10000GF108991081021008001999999KA1240M+03051MA1999999096631MD1999999-0061REMSYN017 333 10305 59006;EQDQ01+000002VOVAR 
0143827840999991997041812004-07317-039300FM-12+040999999V0200901N00311220001CN0200001N1+02711+01941101341ADDAA124000591AG10001AY151061AY211061GF102991021021008001001001KA1240N+02201MA1999999096681MD1999999-0071MW1011REMSYN023 333 20220 59007 69954;
0115827840999991997041912004-07317-039300FM-12+040999999V0200501N00261012001CN0200001N1+02611+02101101421ADDAA106000091AG10000GF107991061081008001031001KA1240N+02081MA1999999096741MD1999999+0061REMSYN017 333 20208 58006;
0096827840999991997041918004-07317-039300FM-12+040999999V0203601N00211012001CN0200001N1+02571+02061101021ADDAA106000091AG10000GF106991051081008001061001MA1999999096351MD1999999+0001REMSYN011 333 58000;
0115827840999991997042012004-07317-039300FM-12+040999999V0201401N00101012001CN0200001N1+02561+02081101401ADDAA106000091AG10000GF108991081081008001999999KA1240N+02091MA1999999096721MD1999999-0021REMSYN017 333 20209 59002;
0096827840999991997042018004-07317-039300FM-12+040999999V0200501N00311045001CN0200001N1+03001+02031100971ADDAA106000091AG10000GF106991031021012501061001MA1999999096331MD1999999-0021REMSYN011 333 59002;
0134827840999991997042100004-07317-039300FM-12+040999999V0201401N00151007501CN9999999N9+02261+01991101251ADDAA106000091AG10000GF108991081061008001999999KA1240M+03091MA1999999096581MD1999999-0051REMSYN017 333 10309 59005;EQDQ01+000002VOVAR 
0115827840999991997042112004-07317-039300FM-12+040999999V0200501N00151007501CN0200001N1+02641+02071101411ADDAA106000091AG10000GF107991061021008001061001KA1240N+02071MA1999999096741MD1999999+0021REMSYN017 333 20207 58002;
0096827840999991997042118004-07317-039300FM-12+040999999V0200901N00151045001CN0200001N1+03071+02051100951ADDAA106000091AG10000GF105991041021008001011001MA1999999096311MD1999999-0021REMSYN011 333 59002;
0115827840999991997042212004-07317-039300FM-12+040999999V0200901N00211007501CN0200001N1+02661+02041101331ADDAA106000091AG10000GF105991051021008001001001KA1240N+02231MA1999999096661MD1999999-0061REMSYN017 333 20223 59006;
0096827840999991997042218004-07317-039300FM-12+040999999V0203601N00101045001CN0200001N1+03061+01901100901ADDAA106000091AG10000GF106991021021008001011001MA1999999096251MD1999999-0061REMSYN011 333 59006;
0134827840999991997042300004-07317-039300FM-12+040999999V0201801N00101220001CN9999999N9+02321+02151101151ADDAA106000091AG10000GF101991011061008001001001KA1240M+03111MA1999999096491MD1999999-0041REMSYN017 333 10311 59004;EQDQ01+000002VOVAR 
0115827840999991997042312004-07317-039300FM-12+040999999V0200501N00101045001CN0200001N1+02711+02111101261ADDAA106000091AG10000GF106991041021008001071001KA1240N+02261MA1999999096601MD1999999-0061REMSYN017 333 20226 59006;
0096827840999991997042318004-07317-039300FM-12+040999999V0200501N00151045001CN0200001N1+02861+02171100851ADDAA106000091AG10000GF106991031081008001021001MA1999999096221MD1999999-0031REMSYN011 333 59003;
0115827840999991997042412004-07317-039300FM-12+040999999V0200901N00211007501CN0200001N1+02601+02081101271ADDAA106000091AG10000GF107991061021008001071001KA1240N+02141MA1999999096611MD1999999+0011REMSYN017 333 20214 58001;
0096827840999991997042418004-07317-039300FM-12+040999999V0200501N00461012001CN0200001N1+02781+02211100911ADDAA106000091AG10000GF108991061081008001071999MA1999999096261MD1999999+0041REMSYN011 333 58004;
0124827840999991997042518004-07317-039300FM-12+040999999V0201801N00101012001CN0200001N1+02371+02191101091ADDAA106000591AG10000AY101061AY251061GF108991081081008001999999MA1999999096411MD1999999+0151MW1291REMSYN017 333 58015 69951;
0121827840999991997042612004-07317-039300FM-12+040999999V0200501N00051007501CN0040001N1+02441+02211101451ADDAA124001091AG10000GF108991081071008001999999KA1240N+02181MA1999999096761MD1999999+0011REMSYN023 333 20218 58001 60014;
0143827840999991997042700004-07317-039300FM-12+040999999V0203201N00101007501CN0100001N1+02321+02201101261ADDAA106002091AG10001AY151061AY221061GF108991081071008001999999KA1240M+03031MA1999999096681MD1999999+0051MW1531REMSYN023 333 10303 58005 60021;
0143827840999991997042712004-07317-039300FM-12+040999999V0202701N00151007501CN0200001N1+02391+02091101391ADDAA124024091AG10005AY161061AY221061GF108991081071008001999999KA1240N+02111MA1999999096711MD1999999-0051MW1021REMSYN023 333 20211 59005 60244;
0096827840999991997042718004-07317-039300FM-12+040999999V0201401N00101015001CN0200001N1+02811+02111101021ADDAA106000091AG10000GF108991051081012501021999MA1999999096371MD1999999+0151REMSYN011 333 58015;
0115827840999991997042812004-07317-039300FM-12+040999999V0200501N00211007501CN0200001N1+02621+02211101491ADDAA106000091AG10000GF107991061021008001031001KA1240N+02181MA1999999096811MD1999999+0101REMSYN017 333 20218 58010;
0096827840999991997042818004-07317-039300FM-12+040999999V0200501N00151220001CN0200001N1+02981+02061101061ADDAA106000091AG10000GF103991021021008001011001MA1999999096421MD1999999+0051REMSYN011 333 58005;
0150827840999991997042900004-07317-039300FM-12+040999999V0209991C00001220001CN9999999N9+02381+02211101481ADDAA106000091AG10000GA1001+999999999GF100991001001999999001001KA1240M+03031MA1999999096811MD1999999+0121REMSYN017 333 10303 58012;EQDQ01+000002VOVAR 
0143827840999991997042912004-07317-039300FM-12+040999999V0200501N00261007501CN0200001N1+02611+02231101591ADDAA124006091AG10005AY161061AY211061GF107991061021008001061001KA1240N+02201MA1999999096911MD1999999+0101MW1021REMSYN023 333 20220 58010 60064;
0096827840999991997042918004-07317-039300FM-12+040999999V0200501N00211220001CN0200001N1+03061+02141101101ADDAA106000091AG10000GF103991031021008001001001MA1999999096461MD1999999+0041REMSYN011 333 58004;
0115827840999991997043012004-07317-039300FM-12+040999999V0200501N00101220001CN0200001N1+02641+02091101461ADDAA106000091AG10000GF104991041021008001001001KA1240N+02041MA1999999096791MD1999999-0121REMSYN017 333 20204 59012;
0115827840999991997050112004-07317-039300FM-12+040999999V0201401N00211012001CN0200001N1+02581+02121101351ADDAA106000091AG10000GF107991071081008001001001KA1240N+01971MA1999999096671MD1999999-0011REMSYN017 333 20197 59001;
0096827840999991997050118004-07317-039300FM-12+040999999V0200901N00211220001CN0200001N1+03001+01971100951ADDAA106000091AG10000GF104991041021008001001001MA1999999096311MD1999999-0061REMSYN011 333 59006;
0115827840999991997050212004-07317-039300FM-12+040999999V0200901N00151045001CN0200001N1+02641+02091101421ADDAA106000091AG10000GF106991041021008001061001KA1240N+02341MA1999999096751MD1999999+0081REMSYN017 333 20234 58008;
0162827840999991997050300004-07317-039300FM-12+040999999V0209991C00001007501CN9999999N9+02331+02251101411ADDAA106001091AG10005AY161061AY221061GF108991081071008001999999KA1240M+02951MA1999999098741MD1999999+0201MW1131REMSYN023 333 10295 58020 60011;EQDQ01+000002VOVAR 
0143827840999991997050312004-07317-039300FM-12+040999999V0209991C00001007501CN0040001N1+02401+02191101611ADDAA124013091AG10005AY161061AY221061GF108991081071008001999999KA1240N+02221MA1999999096921MD1999999+0171MW1201REMSYN023 333 20222 58017 60134;
0121827840999991997050412004-07317-039300FM-12+040999999V0200901N00101007501CN0200001N1+02401+02401101591ADDAA124000191AG10000GF108991081071008001999999KA1240N+02171MA1999999096901MD1999999-0021REMSYN023 333 20217 59002 69924;
0096827840999991997050518004-07317-039300FM-12+040999999V0201401N00311012001CN0200001N1+02821+01971101021ADDAA106000091AG10000GF108991051081008001011999MA1999999096371MD1999999-0091REMSYN011 333 59009;
0118827840999991997050618004-07317-039300FM-12+040999999V0200901N00211012001CN0040001N1+02791+02011101101ADDAA106000091AG10000AY121061AY221061GF108991061081008001001081MA1999999096451MD1999999+0081MW1151REMSYN011 333 58008;
0124827840999991997050718004-07317-039300FM-12+040999999V0200901N00261012001CN0200001N1+02771+02161101161ADDAA106000191AG10000AY111061AY211061GF106991051081008001031001MA1999999096501MD1999999+0051MW1201REMSYN017 333 58005 69921;
0143827840999991997050812004-07317-039300FM-12+040999999V0201401N00311012001CN0200001N1+02421+01951101621ADDAA124003091AG10000AY151061AY221061GF107991071081008001001001KA1240N+02151MA1999999096931MD1999999+0091MW1021REMSYN023 333 20215 58009 60034;
0124827840999991997050818004-07317-039300FM-12+040999999V0200901N00261012001CN0200001N1+02771+02161101161ADDAA106000191AG10000AY111061AY211061GF106991051081008001031001MA1999999096501MD1999999+0051MW1201REMSYN017 333 58005 69921;
0143827840999991997050912004-07317-039300FM-12+040999999V0201401N00151012001CN0020001N1+02471+02031101651ADDAA124000191AG10000AY121061AY221061GF108991081081008001999999KA1240N+02241MA1999999096961MD1999999+0031MW1161REMSYN023 333 20224 58003 69914;
0096827840999991997050918004-07317-039300FM-12+040999999V0200901N00311220001CN0200001N1+02901+02021101201ADDAA106000091AG10000GF104991031021008001021001MA1999999096551MD1999999-0091REMSYN011 333 59009;
0096827840999991997051018004-07317-039300FM-12+040999999V0201401N00311220001CN0200001N1+02821+01911101281ADDAA106000091AG10000GF102991021021008001001001MA1999999096621MD1999999+0071REMSYN011 333 58007;
0115827840999991997051112004-07317-039300FM-12+040999999V0200901N00261220001CN0200001N1+02651+01831101551ADDAA106000091AG10000GF102991011011008001031001KA1240N+02021MA1999999096861MD1999999-0061REMSYN017 333 20202 59006;
0115827840999991997051212004-07317-039300FM-12+040999999V0201401N00211220001CN0200001N1+02581+99999101551ADDAA106000091AG10000GF102991011011008001011001KA1240N+01981MA1999999096861MD1999999+0001REMSYN017 333 20198 58000;
0096827840999991997051218004-07317-039300FM-12+040999999V0200901N00261045001CN0200001N1+02861+01951101181ADDAA106000091AG10000GF106991041021008001061001MA1999999096581MD1999999-0091REMSYN011 333 59009;
0096827840999991997051418004-07317-039300FM-12+040999999V0200901N00051012001CN0200001N1+02891+02001101081ADDAA106000091AG10000GF107991071081008001001001MA1999999096421MD1999999-0061REMSYN011 333 59006;
0134827840999991997051500004-07317-039300FM-12+040999999V0200901N00101007501CN9999999N9+02321+01981101361ADDAA106000091AG10000GF106991061021008001001001KA1240M+03101MA1999999096691MD1999999-0021REMSYN017 333 10310 59002;EQDQ01+000002VOVAR 
0115827840999991997051512004-07317-039300FM-12+040999999V0200901N00211045001CN0200001N1+02661+01791101471ADDAA106000091AG10000GF106991011011008001031001KA1240N+01901MA1999999096801MD1999999+0021REMSYN017 333 20190 58002;
0096827840999991997051518004-07317-039300FM-12+040999999V0201401N00311220001CN0200001N1+02921+01801101171ADDAA106000091AG10000GF104991031021008001041001MA1999999096511MD1999999-0091REMSYN011 333 59009;
0115827840999991997051612004-07317-039300FM-12+040999999V0201401N00311012001CN0200001N1+02501+01891101561ADDAA106000091AG10000GF107991071081008001001001KA1240N+02151MA1999999096881MD1999999+0081REMSYN017 333 20215 58008;
0096827840999991997051618004-07317-039300FM-12+040999999V0201401N00361045001CN0200001N1+02681+01971101211ADDAA106000091AG10000GF107991041081008001031001MA1999999096541MD1999999+0031REMSYN011 333 58003;
0115827840999991997051712004-07317-039300FM-12+040999999V0201401N00511007501CN0200001N1+02451+01811101561ADDAA106000091AG10000GF106991061021008001001001KA1240N+02121MA1999999096871MD1999999-0011REMSYN017 333 20212 59001;
0096827840999991997051718004-07317-039300FM-12+040999999V0201401N00461012001CN0200001N1+02601+01871101231ADDAA106000091AG10000GF107991071081008001001001MA1999999096561MD1999999+0021REMSYN011 333 58002;
0115827840999991997051812004-07317-039300FM-12+040999999V0200901N00151012001CN0200001N1+02601+01961101461ADDAA106000091AG10000GF107991071081008001001001KA1240N+02081MA1999999096831MD1999999-0041REMSYN017 333 20208 59004;
0115827840999991997051912004-07317-039300FM-12+040999999V0201401N00461220001CN0200001N1+02641+02001101371ADDAA106000091AG10000GF103991031021008001031001KA1240N+02181MA1999999096711MD1999999-0121REMSYN017 333 20218 59012;
0143827840999991997052012004-07317-039300FM-12+040999999V0201401N00311220001CN0200001N1+02551+01981101421ADDAA124001091AG10005AY161061AY211061GF102991021021008001001001KA1240N+02061MA1999999096751MD1999999+0081MW1021REMSYN023 333 20206 58008 60014;
0096827840999991997052018004-07317-039300FM-12+040999999V0200501N00311220001CN0200001N1+02941+01761101021ADDAA106000091AG10000GF102991021021008001001001MA1999999096371MD1999999-0021REMSYN011 333 59002;
0150827840999991997052100004-07317-039300FM-12+040999999V0201401N00051220001CN9999999N9+02101+01841101301ADDAA106000091AG10000GA1001+999999999GF100991001001999999001001KA1240M+03011MA1999999096621MD1999999-0051REMSYN017 333 10301 59005;EQDQ01+000002VOVAR 
0115827840999991997052112004-07317-039300FM-12+040999999V0200901N00411007501CN0200001N1+02671+02041101331ADDAA106000091AG10000GF106991061021008001001001KA1240N+02001MA1999999096651MD1999999-0101REMSYN017 333 20200 59010;
0096827840999991997052118004-07317-039300FM-12+040999999V0200901N00311045001CN0200001N1+02821+02051100971ADDAA106000091AG10000GF105991041021008001061001MA1999999096311MD1999999-0061REMSYN011 333 59006;
0162827840999991997052200004-07317-039300FM-12+040999999V0200901N000519999999N9999999N9+02301+02031101341ADDAA106006091AG10005AY161061AY251061GF106991061001008001031001KA1240M+02961MA1999999096671MD1999999+0051MW1011REMSYN023 333 10296 58005 60061;EQDQ01+000002VOVAR 
0121827840999991997052212004-07317-039300FM-12+040999999V0200501N00261220001CN0200001N1+02561+01931101481ADDAA124006091AG10000GF102991021021008001001001KA1240N+01961MA1999999096801MD1999999+0151REMSYN023 333 20196 58015 60064;
0115827840999991997052312004-07317-039300FM-12+040999999V0200901N00211012001CN0200001N1+02541+02061101461ADDAA106000091AG10000GF108991081081008001999999KA1240N+02041MA1999999096771MD1999999-0031REMSYN017 333 20204 59003;
0118827840999991997052318004-07317-039300FM-12+040999999V0200901N00151007501CN0040001N1+02631+02251101061ADDAA106000091AG10000AY121061AY221061GF107991071071008001001001MA1999999096641MD1999999-0011MW1171REMSYN011 333 59001;
0096827840999991997052418004-07317-039300FM-12+040999999V0201401N00361220001CN0200001N1+02741+01971101161ADDAA106000091AG10000GF103991031021008001001001MA1999999096501MD1999999+0101REMSYN011 333 58010;
0143827840999991997052512004-07317-039300FM-12+040999999V0200901N00261007501CN0200001N1+02361+01931101551ADDAA124006091AG10005AY161061AY211061GF108991081051008001999999KA1240N+02081MA1999999096851MD1999999+0041MW1021REMSYN023 333 20208 58004 60064;
0115827840999991997052612004-07317-039300FM-12+040999999V0201401N00311220001CN0200001N1+02501+01821101481ADDAA106000091AG10000GF101991011011008001001001KA1240N+01851MA1999999096791MD1999999-0061REMSYN017 333 20185 59006;
0150827840999991997052700004-07317-039300FM-12+040999999V0201801N00151220001CN9999999N9+02121+01911101421ADDAA106000091AG10000GA1001+999999999GF100991001001999999001001KA1240M+02951MA1999999096731MD1999999+0001REMSYN017 333 10295 58000;EQDQ01+000002VOVAR 
0115827840999991997052812004-07317-039300FM-12+040999999V0201401N00311220001CN0200001N1+02501+01771101591ADDAA106000091AG10000GF102991021021008001001001KA1240N+02201MA1999999096911MD1999999+0071REMSYN017 333 20220 58007;
0096827840999991997052818004-07317-039300FM-12+040999999V0201401N00211220001CN0200001N1+02781+01821101251ADDAA106000091AG10000GF104991031021008001011001MA1999999096591MD1999999+0051REMSYN011 333 58005;
0096827840999991997052918004-07317-039300FM-12+040999999V0200501N00261220001CN0200001N1+02871+01871101101ADDAA106000091AG10000GF102991021021008001001001MA1999999096441MD1999999-0151REMSYN011 333 59015;
0115827840999991997053012004-07317-039300FM-12+040999999V0201401N00101045001CN0200001N1+02541+01951101531ADDAA106000091AG10000GF106991041021008001061001KA1240N+01931MA1999999096841MD1999999-0501REMSYN017 333 20193 59050;
0096827840999991997053018004-07317-039300FM-12+040999999V0200901N00211220001CN0200001N1+02981+01831101091ADDAA106000091AG10000GF102991021011008001001001MA1999999096441MD1999999+0001REMSYN011 333 58000;
0115827840999991997060112004-07317-039300FM-12+040999999V0200901N00151007501CN0200001N1+02581+01871101571ADDAA106000091AG10000GF106991051021008001011001KA1240N+01921MA1999999096881MD1999999+0021REMSYN017 333 20192 58002;
0115827840999991997060212004-07317-039300FM-12+040999999V0200901N00361045001CN0200001N1+02581+01901101601ADDAA106000091AG10000GF105991041021008001031001KA1240N+02031MA1999999096911MD1999999+0031REMSYN017 333 20203 58003;
0096827840999991997060318004-07317-039300FM-12+040999999V0201401N00311012001CN0200001N1+02961+01841101101ADDAA106000091AG10000GF105991051021012501001001MA1999999096451MD1999999-0121REMSYN011 333 59012;
0150827840999991997060400004-07317-039300FM-12+040999999V0201401N00101220001CN9999999N9+02301+01901101351ADDAA106000091AG10000GA1001+999999999GF100991001001999999001001KA1240M+03011MA1999999096671MD1999999-0161REMSYN017 333 10301 59016;EQDQ01+000002VOVAR 
0115827840999991997060412004-07317-039300FM-12+040999999V0200501N00211220001CN0200001N1+02501+01941101521ADDAA106000091AG10000GF104991041021008001001001KA1240N+02041MA1999999096841MD1999999-0011REMSYN017 333 20204 59001;
0115827840999991997060612004-07317-039300FM-12+040999999V0203201N00051007501CN0200001N1+02341+01871101361ADDAA106000091AG10000GF108991081051008001999999KA1240N+01831MA1999999096661MD1999999-0041REMSYN017 333 20183 59004;
0115827840999991997060712004-07317-039300FM-12+040999999V0203201N00101007501CN0200001N1+02551+01951101151ADDAA106000091AG10000GF105991051021008001001001KA1240N+01651MA1999999096471MD1999999-0191REMSYN017 333 20165 59019;
0150827840999991997060800004-07317-039300FM-12+040999999V0209991C00001220001CN9999999N9+01991+01791101061ADDAA106000091AG10000GA1001+999999999GF100991001001999999001001KA1240M+03081MA1999999096381MD1999999-0061REMSYN017 333 10308 59006;EQDQ01+000002VOVAR 
0115827840999991997060812004-07317-039300FM-12+040999999V0203601N00211999999CN0200001N1+02501+02001101301ADDAA106000091AG10000GF108991081999008001999999KA1240N+01841MA1999999096611MD1999999+0141REMSYN017 333 20184 58014;
0115827840999991997060818004-07317-039300FM-12+040999999V0203601N002619999999N0200001N1+02941+01851100971ADDAA106000091AG10000GF108991999021012501001001MA1999999096321MD1999999+0271REMSYN011 333 58027;EQDQ01+000032SCOTLC
0150827840999991997060900004-07317-039300FM-12+040999999V0201801N00101220001CN9999999N9+02101+01841101221ADDAA106000091AG10000GA1001+999999999GF100991001001999999001001KA1240M+03031MA1999999096541MD1999999+0161REMSYN017 333 10303 58016;EQDQ01+000002VOVAR 
0115827840999991997060912004-07317-039300FM-12+040999999V0203201N00051007501CN0100001N1+02321+01961101611ADDAA106000091AG10000GF108991081071008001999999KA1240N+01681MA1999999096901MD1999999-0291REMSYN017 333 20168 59029;
0115827840999991997061012004-07317-039300FM-12+040999999V0203201N00151220001CN0200001N1+02581+01991101741ADDAA106000091AG10000GF104991041021008001001001KA1240N+01661MA1999999097041MD1999999+0151REMSYN017 333 20166 58015;
0096827840999991997061018004-07317-039300FM-12+040999999V0201401N00261220001CN0200001N1+03191+01571101341ADDAA106000091AG10000GF102991011011008001011001MA1999999096671MD1999999+0071REMSYN011 333 58007;
0115827840999991997061118004-07317-039300FM-12+040999999V0201401N00361220001CN0200001N1+02971+01681101401ADDAA106000091AG10000GF103991031021008001001001MA1999999096781MD1999999+0071REMSYN011 333 58007;EQDQ01+999990APOSP 
0150827840999991997061200004-07317-039300FM-12+040999999V0201401N00101220001CN9999999N9+02001+01601101551ADDAA106000091AG10000GA1001+999999999GF100991001001999999001001KA1240M+03021MA1999999096851MD1999999+0011REMSYN017 333 10302 58001;EQDQ01+000002VOVAR 
0115827840999991997061212004-07317-039300FM-12+040999999V0200901N00311220001CN0200001N1+02471+01351101751ADDAA106000091AG10000GF102991001001999999001041KA1240N+01511MA1999999097041MD1999999-0051REMSYN017 333 20151 59005;
0115827840999991997061213004-07317-039300FM-12+040999999V0200901N00311220001CN0200001N1+02471+01351101751ADDAA106000091AG10999GF102991001001999999001041KA1240N+01511MA1999999097041MD1999999-0051REMSYN017 333 20151 59005;
0115827840999991997061412004-07317-039300FM-12+040999999V0200501N00211220001CN0200001N1+02541+01711101621ADDAA106000091AG10000GF101991011011008001001001KA1240N+01491MA1999999096911MD1999999-0141REMSYN017 333 20149 59014;
0112827840999991997061418004-07317-039300FM-12+040999999V0201401N00311220001CN0200001N1+03001+01411101141ADDAA106000091AG10000GA1001+999999999GF100991001001999999001001MA1999999096471MD1999999-0121REMSYN011 333 59012;
0143827840999991997061612004-07317-039300FM-12+040999999V0200901N00211220001CN0200001N1+02531+01931101501ADDAA124004091AG10004AY161061AY211061GF103991021021008001061001KA1240N+02021MA1999999096821MD1999999-0061MW1021REMSYN023 333 20202 59006 60044;
0150827840999991997061700004-07317-039300FM-12+040999999V0209991C00001220001CN9999999N9+02101+01861101421ADDAA106000091AG10000GA1001+999999999GF100991001001999999001001KA1240M+03041MA1999999096731MD1999999-0051REMSYN017 333 10304 59005;EQDQ01+000002VOVAR 
0115827840999991997061712004-07317-039300FM-12+040999999V0200901N00211220001CN0750001N1+02561+01931101581ADDAA106000091AG10000GF103991031021008001001001KA1240N+01991MA1999999096891MD1999999+0071REMSYN017 333 20199 58007;
0115827840999991997061812004-07317-039300FM-12+040999999V0200901N00461220001CN0200001N1+02601+01761101591ADDAA106000091AG10000GF101991011011008001001001KA1240N+02071MA1999999096911MD1999999+0021REMSYN017 333 20207 58002;
0134827840999991997061900004-07317-039300FM-12+040999999V0201401N00151007501CN9999999N9+02281+01731101461ADDAA106000091AG10000GF108991081021008001999999KA1240M+03021MA1999999096781MD1999999+0041REMSYN017 333 10302 58004;EQDQ01+000002VOVAR 
0112827840999991997061918004-07317-039300FM-12+040999999V0201401N00411220001CN0200001N1+03021+01121101051ADDAA106000091AG10000GA1001+999999999GF100991001001999999001001MA1999999096401MD1999999-0091REMSYN011 333 59009;
0115827840999991997062012004-07317-039300FM-12+040999999V0200501N00211220001CN0200001N1+02491+01781101591ADDAA106000091AG10000GF101991011011008001001001KA1240N+01731MA1999999096881MD1999999-0021REMSYN017 333 20173 59002;
0096827840999991997062018004-07317-039300FM-12+040999999V0200901N00211220001CN0200001N1+02961+01611101091ADDAA106000091AG10000GF102991021011008001001001MA1999999096441MD1999999+0041REMSYN011 333 58004;
0115827840999991997062112004-07317-039300FM-12+040999999V0200901N00311012001CN0200001N1+02501+01871101551ADDAA106000091AG10000GF106991061081008001001001KA1240N+02071MA1999999096861MD1999999-0021REMSYN017 333 20207 59002;
0131827840999991997062212004-07317-039300FM-12+040999999V0200901N00261220001CN0200001N1+02541+01511101591ADDAA106000091AG10000GA1001+999999999GF100991001001999999001001KA1240N+02021MA1999999096911MD1999999+0051REMSYN017 333 20202 58005;
0096827840999991997062218004-07317-039300FM-12+040999999V0201401N00361220001CN0200001N1+02941+01591101221ADDAA106000091AG10000GF102991021011012501001001MA1999999096561MD1999999+0121REMSYN011 333 58012;
0143827840999991997062312004-07317-039300FM-12+040999999V0200901N00211007501CN0200001N1+02431+01791101581ADDAA124000191AG10000AY151061AY211061GF108991071021008001061999KA1240N+02101MA1999999096881MD1999999-0031MW1021REMSYN023 333 20210 59003 69914;
0150827840999991997062400004-07317-039300FM-12+040999999V0201401N00051220001CN9999999N9+02261+01751101391ADDAA106000091AG10000GA1001+999999999GF100991001001999999001001KA1240M+03071MA1999999096711MD1999999-0061REMSYN017 333 10307 59006;EQDQ01+000002VOVAR 
0115827840999991997062412004-07317-039300FM-12+040999999V0200901N00101012001CN0200001N1+02301+01811101481ADDAA106000091AG10000GF107991071081008001001001KA1240N+01741MA1999999096791MD1999999-0091REMSYN017 333 20174 59009;
0096827840999991997062418004-07317-039300FM-12+040999999V0201401N00151220001CN0200001N1+02961+01641101121ADDAA106000091AG10000GF102991021021012501001001MA1999999096471MD1999999-0011REMSYN011 333 59001;
0131827840999991997062712004-07317-039300FM-12+040999999V0200501N00211220001CN0200001N1+02481+01541101451ADDAA106000091AG10000GA1001+999999999GF100991001001999999001001KA1240N+01481MA1999999096771MD1999999+0071REMSYN017 333 20148 58007;
0134827840999991997062900004-07317-039300FM-12+040999999V0201401N00151012001CN9999999N9+02481+01801101401ADDAA106000091AG10000GF108991081081008001999999KA1240M+03141MA1999999096731MD1999999+0121REMSYN017 333 10314 58012;EQDQ01+000002VOVAR 
0143827840999991997062912004-07317-039300FM-12+040999999V0200901N00151012001CN0200001N1+02291+02011101701ADDAA124015091AG10004AY161061AY221061GF108991081081008001999999KA1240N+02091MA1999999097011MD1999999+0121MW1021REMSYN023 333 20209 58012 60154;
0096827840999991997062918004-07317-039300FM-12+040999999V0200901N00151220001CN0200001N1+02991+01621101251ADDAA106000091AG10000GF102991021021012501001001MA1999999096591MD1999999+0101REMSYN011 333 58010;
0150827840999991997063000004-07317-039300FM-12+040999999V0202301N00051220001CN9999999N9+02041+01831101511ADDAA106000091AG10000GA1001+999999999GF100991001001999999001001KA1240M+03071MA1999999096801MD1999999+0071REMSYN017 333 10307 58007;EQDQ01+000002VOVAR 
0115827840999991997063012004-07317-039300FM-12+040999999V0200501N00051012001CN0200001N1+02331+01851101731ADDAA106000091AG10000GF108991081081008001999999KA1240N+01921MA1999999097021MD1999999+0011REMSYN017 333 20192 58001;
0134827840999991997070100004-07317-039300FM-12+040999999V0201801N00101007501CN9999999N9+02141+01861101421ADDAA106000091AG10000GF107991071021008001001001KA1240M+03081MA1999999096741MD1999999+0051REMSYN017 333 10308 58005;EQDQ01+000002VOVAR 
0134827840999991997070112004-07317-039300FM-12+040999999V0201401N00211007501CN0200001N1+02551+01951101561ADDAA106000091AG10000GF108991999021008001061999KA1240N+02181MA1999999096881MD1999999-0141REMSYN017 333 20218 59014;EQDQ01+000082SCOTLC
0096827840999991997070118004-07317-039300FM-12+040999999V0202701N00101015001CN0200001N1+02961+01961101151ADDAA106000091AG10000GF108991081081012501999999MA1999999096501MD1999999-0121REMSYN011 333 59012;
0132827840999991997070212004-07317-039300FM-12+040999999V0200901N00461220001CN0200001N1+02571+01821101651ADDAA106000091AA224005091AG10000GF101991011021008001001001KA1240N+02161MA1999999096961MD1999999+0081REMSYN023 333 20216 58008 60054;
0096827840999991997070218004-07317-039300FM-12+040999999V0201401N00311220001CN0200001N1+03021+01621101161ADDAA106000091AG10000GF103991031021012501001001MA1999999096511MD1999999+0011REMSYN011 333 58001;
0150827840999991997070300004-07317-039300FM-12+040999999V0201401N00311220001CN9999999N9+02321+01471101551ADDAA106000091AG10000GA1001+999999999GF100991001001999999001001KA1240M+03081MA1999999096861MD1999999+0171REMSYN017 333 10308 58017;EQDQ01+000002VOVAR 
0131827840999991997070312004-07317-039300FM-12+040999999V0201401N00101220001CN0200001N1+02421+01431101681ADDAA106000091AG10000GA1001+999999999GF100991001001999999001001KA1240N+01901MA1999999096981MD1999999-0021REMSYN017 333 20190 59002;
0112827840999991997070318004-07317-039300FM-12+040999999V0201401N00311220001CN0200001N1+02981+01441101191ADDAA106000091AG10000GA1001+999999999GF100991001001999999001001MA1999999096531MD1999999+0021REMSYN011 333 58002;
0119827840999991997070400004-07317-039300FM-12+040999999V0201401N00461007501CN9999999N9+02481+01601101501ADDAA106000091AG10000GF108991081021008001999999KA1240M+03011MD1999999-0041REMSYN017 333 10301 59004;EQDQ01+000002VOVAR 
0115827840999991997070412004-07317-039300FM-12+040999999V0201401N00261012001CN0200001N1+02401+01891101701ADDAA106000091AG10000GF108991081081008001999999KA1240N+02101MA1999999097031MD1999999+0031REMSYN017 333 20210 58003;
0096827840999991997070418004-07317-039300FM-12+040999999V0201401N00411220001CN0200001N1+02971+01681101251ADDAA106000091AG10000GF102991021011012501001001MA1999999096591MD1999999+0061REMSYN011 333 58006;
0115827840999991997070512004-07317-039300FM-12+040999999V0201401N00211007501CN0200001N1+02411+01731101691ADDAA106000091AG10000GF106991061021008001001001KA1240N+02071MA1999999097001MD1999999-0011REMSYN017 333 20207 59001;
0096827840999991997070518004-07317-039300FM-12+040999999V0200901N00311012001CN0200001N1+02861+01521101221ADDAA106000091AG10000GF106991061021012501001001MA1999999096561MD1999999-0031REMSYN011 333 59003;
0150827840999991997070600004-07317-039300FM-12+040999999V0201401N00411220001CN9999999N9+02301+01321101471ADDAA106000091AG10000GA1001+999999999GF100991001001999999001001KA1240M+03021MA1999999096781MD1999999-0101REMSYN017 333 10302 59010;EQDQ01+000002VOVAR 
0131827840999991997070612004-07317-039300FM-12+040999999V0200501N00151220001CN0200001N1+02491+01491101611ADDAA106000091AG10000GA1001+999999999GF100991001001999999001001KA1240N+01961MA1999999096921MD1999999-0081REMSYN017 333 20196 59008;
0096827840999991997070618004-07317-039300FM-12+040999999V0200901N00311012001CN0200001N1+03031+01471101191ADDAA106000091AG10000GF106991061021012501001001MA1999999096571MD1999999-0031REMSYN011 333 59003;
0150827840999991997070700004-07317-039300FM-12+040999999V0201401N00461220001CN9999999N9+02361+01731101481ADDAA106000091AG10000GA1001+999999999GF100991001001999999001001KA1240M+03131MA1999999096801MD1999999+0081REMSYN017 333 10313 58008;EQDQ01+000002VOVAR 
0131827840999991997070712004-07317-039300FM-12+040999999V0200901N00211220001CN0200001N1+02461+01581101641ADDAA106000091AG10000GA1001+999999999GF100991001001999999001001KA1240N+01881MA1999999096951MD1999999-0031REMSYN017 333 20188 59003;
0112827840999991997070718004-07317-039300FM-12+040999999V0201401N00261220001CN0200001N1+03041+01531101191ADDAA106000091AG10000GA1001+999999999GF100991001001999999001001MA1999999096541MD1999999+0011REMSYN011 333 58001;
0115827840999991997070812004-07317-039300FM-12+040999999V0201401N00311220001CN0200001N1+02521+01661101551ADDAA106000091AG10000GF102991021021008001001001KA1240N+02081MA1999999096871MD1999999-0081REMSYN017 333 20208 59008;
0096827840999991997070818004-07317-039300FM-12+040999999V0200901N00411220001CN0200001N1+03071+01551101151ADDAA106000091AG10000GF101991011011012501001001MA1999999096481MD1999999-0041REMSYN011 333 59004;
0131827840999991997070912004-07317-039300FM-12+040999999V0201401N00311220001CN0200001N1+02441+01481101591ADDAA106000091AG10000GA1001+999999999GF100991001001999999001001KA1240N+01971MA1999999096901MD1999999+0031REMSYN017 333 20197 58003;
0096827840999991997070918004-07317-039300FM-12+040999999V0201401N00411220001CN0200001N1+02901+01521101271ADDAA106000091AG10000GF103991031021012501001001MA1999999096571MD1999999+0071REMSYN011 333 58007;
0115827840999991997071012004-07317-039300FM-12+040999999V0200901N00411012001CN0200001N1+02461+01781101581ADDAA106000091AG10000GF108991081081008001999999KA1240N+02081MA1999999096891MD1999999-0101REMSYN017 333 20208 59010;
0096827840999991997071018004-07317-039300FM-12+040999999V0200901N00311012001CN0200001N1+03011+01531101271ADDAA106000091AG10000GF105991051021012501001001MA1999999096621MD1999999+0051REMSYN011 333 58005;
0143827840999991997071112004-07317-039300FM-12+040999999V0200901N00211012001CN0200001N1+02341+01871101731ADDAA124001091AG10000AY151061AY221061GF108991081081008001999999KA1240N+02081MA1999999097041MD1999999+0151MW1021REMSYN023 333 20208 58015 60014;
0118827840999991997071118004-07317-039300FM-12+040999999V0201801N00261015001CN0100001N1+02721+01931101341ADDAA106000091AG10000AY121061AY221061GF108991081081012501999999MA1999999096671MD1999999+0051MW1151REMSYN011 333 58005;
0115827840999991997071218004-07317-039300FM-12+040999999V0200901N00311220001CN0200001N1+02871+01921101291ADDAA106000091AG10000GF104991999021012501001001MA1999999096631MD1999999-0051REMSYN011 333 59005;EQDQ01+000032SCOTLC
0134827840999991997071300004-07317-039300FM-12+040999999V0209991C00001007501CN9999999N9+02261+02051101501ADDAA106000091AG10000GF106991061021008001001001KA1240M+02911MA1999999096811MD1999999-0161REMSYN017 333 10291 59016;EQDQ01+000002VOVAR 
0143827840999991997071312004-07317-039300FM-12+040999999V0200901N00051220001CN0200001N1+02521+01741101771ADDAA124000191AG10000AY151061AY211061GF103991031021008001001001KA1240N+02101MA1999999097071MD1999999+0101MW1011REMSYN023 333 20210 58010 69924;
0096827840999991997071318004-07317-039300FM-12+040999999V0201401N00311220001CN0200001N1+03001+01781101291ADDAA106000091AG10000GF102991021021012501001001MA1999999096641MD1999999+0031REMSYN011 333 58003;
0131827840999991997071412004-07317-039300FM-12+040999999V0200901N00361220001CN0200001N1+02441+01661101861ADDAA106000091AG10000GA1001+999999999GF100991001001999999001001KA1240N+01971MA1999999097161MD1999999+0091REMSYN017 333 20197 58009;
0150827840999991997071500004-07317-039300FM-12+040999999V0201401N00261220001CN9999999N9+02261+01571101721ADDAA106000091AG10000GA1001+999999999GF100991001001999999001001KA1240M+03001MA1999999097021MD1999999+0051REMSYN017 333 10300 58005;EQDQ01+000002VOVAR 
0131827840999991997071512004-07317-039300FM-12+040999999V0201401N00101220001CN0200001N1+02481+01541101841ADDAA106000091AG10000GA1001+999999999GF100991001001999999001001KA1240N+02001MA1999999097141MD1999999-0021REMSYN017 333 20200 59002;
0112827840999991997071518004-07317-039300FM-12+040999999V0201401N00211220001CN0200001N1+03021+01391101341ADDAA106000091AG10000GA1001+999999999GF100991001001999999001001MA1999999096671MD1999999-0051REMSYN011 333 59005;
0131827840999991997071612004-07317-039300FM-12+040999999V0201401N00311220001CN0200001N1+02531+01581101751ADDAA106000091AG10000GA1001+999999999GF100991001001999999001001KA1240N+01901MA1999999097071MD1999999-0071REMSYN017 333 20190 59007;
0096827840999991997071618004-07317-039300FM-12+040999999V0201801N00261220001CN0200001N1+03011+01331101291ADDAA106000091AG10000GF102991021011012501001001MA1999999096631MD1999999-0041REMSYN011 333 59004;
0115827840999991997071712004-07317-039300FM-12+040999999V0201401N00311012001CN0200001N1+02371+01781101761ADDAA106000091AG10000GF108991081081008001999999KA1240N+02071MA1999999097061MD1999999-0011REMSYN017 333 20207 59001;
0150827840999991997071800004-07317-039300FM-12+040999999V0200501N00051220001CN9999999N9+02141+01611101671ADDAA106000091AG10000GA1001+999999999GF100991001001999999001001KA1240M+02791MA1999999096961MD1999999-0021REMSYN017 333 10279 59002;EQDQ01+000002VOVAR 
0121827840999991997071812004-07317-039300FM-12+040999999V0201401N00311220001CN0200001N1+02441+01691101791ADDAA124002091AG10000GF102991021081008001001001KA1240N+01921MA1999999097081MD1999999+0021REMSYN023 333 20192 58002 60024;
0096827840999991997071818004-07317-039300FM-12+040999999V0201401N00311012001CN0200001N1+02841+01701101401ADDAA106000091AG10000GF106991061021012501001001MA1999999096721MD1999999-0061REMSYN011 333 59006;
0115827840999991997071912004-07317-039300FM-12+040999999V0200501N00311007501CN0200001N1+02501+01721101871ADDAA106000091AG10000GF107991071021008001001001KA1240N+02001MA1999999097171MD1999999+0091REMSYN017 333 20200 58009;
0096827840999991997071918004-07317-039300FM-12+040999999V0201401N00211220001CN0200001N1+03101+01371101361ADDAA106000091AG10000GF103991031021012501001001MA1999999096701MD1999999-0021REMSYN011 333 59002;
0150827840999991997072000004-07317-039300FM-12+040999999V0201401N00411220001CN9999999N9+02451+01641101671ADDAA106000091AG10000GA1001+999999999GF100991001001999999001001KA1240M+03171MA1999999096991MD1999999+0021REMSYN017 333 10317 58002;EQDQ01+000002VOVAR 
0115827840999991997072012004-07317-039300FM-12+040999999V0200501N00261007501CN0200001N1+02421+01931101981ADDAA106000091AG10000GF108991081071008001999999KA1240N+02031MA1999999097271MD1999999+0101REMSYN017 333 20203 58010;
0124827840999991997072018004-07317-039300FM-12+040999999V0200901N00101007501CN0200001N1+02341+02011101761ADDAA106002091AG10004AY161061AY221061GF108991081071008001999999MA1999999097041MD1999999+0041MW1021REMSYN017 333 58004 60021;
0162827840999991997072100004-07317-039300FM-12+040999999V0201801N00261007501CN9999999N9+02051+01941101921ADDAA106003091AG10004AY161061AY221061GF108991081071008001999999KA1240M+02491MA1999999097201MD1999999+0211MW1201REMSYN023 333 10249 58021 60031;EQDQ01+000002VOVAR 
0137827840999991997072112004-07317-039300FM-12+040999999V0200901N00311220001CN0200001N1+02381+01681101951ADDAA124005091AG10000GA1001+999999999GF100991001001999999001001KA1240N+01961MA1999999097231MD1999999-0041REMSYN023 333 20196 59004 60054;
0112827840999991997072118004-07317-039300FM-12+040999999V0200901N00311220001CN0200001N1+02921+01531101461ADDAA106000091AG10000GA1001+999999999GF100991001001999999001001MA1999999096791MD1999999-0241REMSYN011 333 59024;
0131827840999991997072212004-07317-039300FM-12+040999999V0201401N00311220001CN0200001N1+02481+01621101881ADDAA106000091AG10000GA1001+999999999GF100991001001999999001001KA1240N+02021MA1999999097171MD1999999-0061REMSYN017 333 20202 59006;
0112827840999991997072218004-07317-039300FM-12+040999999V0201401N00411220001CN0200001N1+02921+01461101401ADDAA106000091AG10000GA1001+999999999GF100991001001999999001001MA1999999096731MD1999999-0061REMSYN011 333 59006;
0115827840999991997072312004-07317-039300FM-12+040999999V0200901N00261007501CN0200001N1+02501+01721101891ADDAA106000091AG10000GF106991061021008001001001KA1240N+02071MA1999999097191MD1999999+0021REMSYN017 333 20207 58002;
0096827840999991997072318004-07317-039300FM-12+040999999V0200901N00311012001CN0200001N1+02961+01611101441ADDAA106000091AG10000GF107991071021012501001001MA1999999096781MD1999999+0051REMSYN011 333 58005;
0096827840999991997072418004-07317-039300FM-12+040999999V0200901N00311220001CN0200001N1+02921+01381101551ADDAA106000091AG10000GF104991041021012501001001MA1999999096871MD1999999+0091REMSYN011 333 58009;
0150827840999991997072500004-07317-039300FM-12+040999999V0201401N00671220001CN9999999N9+02361+01381101751ADDAA106000091AG10000GA1001+999999999GF100991001001999999001001KA1240M+03031MA1999999097051MD1999999+0071REMSYN017 333 10303 58007;EQDQ01+000002VOVAR 
0115827840999991997072512004-07317-039300FM-12+040999999V0201401N00461007501CN0200001N1+02401+01651101891ADDAA106000091AG10000GF105991051021008001001001KA1240N+02071MA1999999097191MD1999999-0071REMSYN017 333 20207 59007;
0096827840999991997072518004-07317-039300FM-12+040999999V0201401N00261012001CN0200001N1+02831+01581101511ADDAA106000091AG10000GF107991071021012501001001MA1999999096831MD1999999-0041REMSYN011 333 59004;
0131827840999991997072612004-07317-039300FM-12+040999999V0201401N00621220001CN0200001N1+02411+01551101781ADDAA106000091AG10000GA1001+999999999GF100991001001999999001001KA1240N+01881MA1999999097081MD1999999-0111REMSYN017 333 20188 59011;
0150827840999991997072700004-07317-039300FM-12+040999999V0201401N00151220001CN9999999N9+02251+01401101671ADDAA106000091AG10000GA1001+999999999GF100991001001999999001001KA1240M+03011MA1999999096971MD1999999-0081REMSYN017 333 10301 59008;EQDQ01+000002VOVAR 
0115827840999991997072712004-07317-039300FM-12+040999999V0201401N00571220001CN0200001N1+02411+01601101841ADDAA106000091AG10000GF102991021001008001001001KA1240N+01981MA1999999097141MD1999999+0061REMSYN017 333 20198 58006;
0096827840999991997072718004-07317-039300FM-12+040999999V0201401N00411220001CN0200001N1+02941+01321101291ADDAA106000091AG10000GF102991021021012501001001MA1999999096631MD1999999-0031REMSYN011 333 59003;
0115827840999991997072812004-07317-039300FM-12+040999999V0201401N00411007501CN0200001N1+02201+01751101821ADDAA106000091AG10000GF106991061021008001001001KA1240N+02021MA1999999097121MD1999999-0021REMSYN017 333 20202 59002;
0096827840999991997072818004-07317-039300FM-12+040999999V0201401N00311012001CN0200001N1+02821+01581101341ADDAA106000091AG10000GF106991051021012501011001MA1999999096671MD1999999+0041REMSYN011 333 58004;
0096827840999991997072918004-07317-039300FM-12+040999999V0200901N00261012001CN0200001N1+03021+01351101371ADDAA106000091AG10000GF108991081061012501999999MA1999999096711MD1999999+0041REMSYN011 333 58004;
0150827840999991997073000004-07317-039300FM-12+040999999V0201401N00261220001CN9999999N9+02391+01531101741ADDAA106000091AG10000GA1001+999999999GF100991001001999999001001KA1240M+03071MA1999999097051MD1999999+0111REMSYN017 333 10307 58011;EQDQ01+000002VOVAR 
0115827840999991997073012004-07317-039300FM-12+040999999V0200901N00261007501CN0200001N1+02501+01841101891ADDAA106000091AG10000GF107991071021008001001001KA1240N+02001MA1999999097191MD1999999+0001REMSYN017 333 20200 58000;
0096827840999991997073018004-07317-039300FM-12+040999999V0201801N00101045001CN0200001N1+03011+01571101401ADDAA106000091AG10000GF108991031021012501021999MA1999999096741MD1999999+0031REMSYN011 333 58003;
0134827840999991997073112004-07317-039300FM-12+040999999V0201401N00361012001CN0200001N1+02361+01781101991ADDAA106000091AG10000GF108991081081008001999999KA1240N+02181MA1999999097261MD1999999+0091REMSYN017 333 20218 58009;EQDQ01+999990APOSP 
0096827840999991997073118004-07317-039300FM-12+040999999V0200901N00311007501CN0200001N1+02741+01731101651ADDAA106000091AG10000GF108991061051008001021999MA1999999096961MD1999999+0221REMSYN011 333 58022;
0112827840999991997080118004-07317-039300FM-12+040999999V0201401N00311220001CN0200001N1+03101+01621101381ADDAA106000091AG10000GA1001+999999999GF100991001001999999001001MA1999999096721MD1999999-0241REMSYN011 333 59024;
0131827840999991997080312004-07317-039300FM-12+040999999V0200901N00411220001CN0200001N1+02481+01271101921ADDAA106000091AG10000GA1001+999999999GF100991001001999999001001KA1240N+01801MA1999999097221MD1999999+0001REMSYN017 333 20180 58000;
0112827840999991997080318004-07317-039300FM-12+040999999V0201401N00311220001CN0200001N1+03121+01161101331ADDAA106000091AG10000GA1001+999999999GF100991001001999999001001MA1999999096671MD1999999-0061REMSYN011 333 59006;
0115827840999991997080412004-07317-039300FM-12+040999999V0200501N00361220001CN0200001N1+02491+01651101941ADDAA106000091AG10000GF103991031021008001001001KA1240N+01601MA1999999097241MD1999999+0021REMSYN017 333 20160 58002;
0096827840999991997080518004-07317-039300FM-12+040999999V0200901N00311012001CN0200001N1+02841+01731101561ADDAA106000091AG10000GF107991071021012501001001MA1999999096891MD1999999+0071REMSYN011 333 58007;
0096827840999991997080618004-07317-039300FM-12+040999999V0200901N00461007501CN0200001N1+02951+01721101451ADDAA106000091AG10000GF107991071021008001001001MA1999999096791MD1999999-0101REMSYN011 333 59010;
0115827840999991997080712004-07317-039300FM-12+040999999V0200901N00461012001CN0200001N1+02371+01761101931ADDAA106000091AG10000GF107991071081008001001001KA1240N+02081MA1999999097231MD1999999+0061REMSYN017 333 20208 58006;
0096827840999991997080718004-07317-039300FM-12+040999999V0201401N00411012001CN0200001N1+03141+01501101341ADDAA106000091AG10000GF108991081021012501999999MA1999999096691MD1999999-0101REMSYN011 333 59010;
0115827840999991997080812004-07317-039300FM-12+040999999V0201401N00311012001CN0040001N1+02431+01791101871ADDAA106000091AG10000GF108991081081008001999999KA1240N+02111MA1999999097171MD1999999-0061REMSYN017 333 20211 59006;
0134827840999991997080818004-07317-039300FM-12+040999999V0201401N00311012001CN0040001N1+02431+01791101871ADDAA106000091AG10000GF108991081081008001999999KA1240N+02111MA1999999093172MD1999999-0061REMSYN017 333 20211 59006;EQDQ01+093173APOSP 
0131827840999991997081012004-07317-039300FM-12+040999999V0201401N00311220001CN0200001N1+02561+01701101761ADDAA106000091AG10000GA1001+999999999GF100991001001999999001001KA1240N+02161MA1999999097081MD1999999+0061REMSYN017 333 20216 58006;
0150827840999991997081100004-07317-039300FM-12+040999999V0201401N00411220001CN9999999N9+02541+01651101571ADDAA106000091AG10000GA1001+999999999GF100991001001999999001001KA1240M+03291MA1999999096901MD1999999-0021REMSYN017 333 10329 59002;EQDQ01+000002VOVAR 
0115827840999991997081112004-07317-039300FM-12+040999999V0200901N00461012001CN0200001N1+02541+01811101771ADDAA106000091AG10000GF106991051081008001031001KA1240N+02131MA1999999097091MD1999999+0011REMSYN017 333 20213 58001;
0096827840999991997081118004-07317-039300FM-12+040999999V0200901N00311045001CN0200001N1+02881+01801101381ADDAA106000091AG10000GF105991041021008001011001MA1999999096721MD1999999+0191REMSYN011 333 58019;
0115827840999991997081212004-07317-039300FM-12+040999999V0200901N00411012001CN0200001N1+02501+01721101871ADDAA106000091AG10000GF108991081081008001999999KA1240N+02001MA1999999097171MD1999999+0081REMSYN017 333 20200 58008;
0096827840999991997081218004-07317-039300FM-12+040999999V0201401N00261045001CN0200001N1+02861+01751101381ADDAA106000091AG10000GF105991041021008001031001MA1999999096711MD1999999-0011REMSYN011 333 59001;
0150827840999991997081300004-07317-039300FM-12+040999999V0201401N00151220001CN9999999N9+02361+01661101701ADDAA106000091AG10000GA1001+999999999GF100991001001999999001001KA1240M+02961MA1999999097011MD1999999+0051REMSYN017 333 10296 58005;EQDQ01+000002VOVAR 
0115827840999991997081312004-07317-039300FM-12+040999999V0200501N00211220001CN0200001N1+02611+01631101811ADDAA106000091AG10000GF101991011011008001001001KA1240N+02021MA1999999097121MD1999999-0051REMSYN017 333 20202 59005;
0096827840999991997081318004-07317-039300FM-12+040999999V0200401N00211220001CN0200001N1+03161+01291101291ADDAA106000091AG10000GF102991021021008001011001MA1999999096641MD1999999-0071REMSYN011 333 59007;
0115827840999991997081412004-07317-039300FM-12+040999999V0201401N00461220001CN0200001N1+02471+01631101791ADDAA106000091AG10000GF102991021021008001001001KA1240N+02001MA1999999097101MD1999999-0021REMSYN017 333 20200 59002;
0131827840999991997081512004-07317-039300FM-12+040999999V0201401N00361220001CN0200001N1+02501+02291101791ADDAA106000091AG10000GA1001+999999999GF100991001001999999001001KA1240N+01731MA1999999097091MD1999999-0011REMSYN017 333 20173 59001;
0112827840999991997081518004-07317-039300FM-12+040999999V0200901N00411220001CN0200001N1+03091+01121101251ADDAA106000091AG10000GA1001+999999999GF100991001001999999001001MA1999999096591MD1999999-0101REMSYN011 333 59010;
0115827840999991997081612004-07317-039300FM-12+040999999V0200901N00211012001CN0200001N1+02401+01701101861ADDAA106000091AG10000GF107991071081008001001001KA1240N+02011MA1999999097161MD1999999+0091REMSYN017 333 20201 58009;
0143827840999991997081712004-07317-039300FM-12+040999999V0200901N00311220001CN0200001N1+02541+01541101851ADDAA124000191AG10000AY151061AY211061GF102991021071008001001001KA1240N+02001MA1999999097151MD1999999-0011MW1031REMSYN023 333 20200 59001 69924;
0096827840999991997081718004-07317-039300FM-12+040999999V0200901N00211012001CN0200001N1+03121+01301101311ADDAA106000091AG10000GF108991081021012501999999MA1999999096651MD1999999-0131REMSYN011 333 59013;
0115827840999991997081800004-07317-039300FM-12+040999999V0201401N00311007501CN0200001N1+02501+01671101771ADDAA106000091AG10000GF106991061021008001001001KA1240N+02181MA1999999097091MD1999999-0061REMSYN017 333 20218 59006;
0115827840999991997081812004-07317-039300FM-12+040999999V0201401N00311007501CN0200001N1+02501+01671101771ADDAA106000091AG10000GF106991061021008001001001KA1240N+02181MA1999999097091MD1999999-0061REMSYN017 333 20218 59006;
0115827840999991997081912004-07317-039300FM-12+040999999V0201401N00361220001CN0200001N1+02431+01461101731ADDAA106000091AG10000GF104991041021008001001001KA1240N+02001MA1999999097041MD1999999-0051REMSYN017 333 20200 59005;
0096827840999991997081918004-07317-039300FM-12+040999999V0201401N00411012001CN0200001N1+02961+01421101241ADDAA106000091AG10000GF106991061021012501001001MA1999999096581MD1999999-0071REMSYN011 333 59007;
0115827840999991997082012004-07317-039300FM-12+040999999V0201401N00311007501CN0200001N1+02491+01571101761ADDAA106000091AG10000GF105991051021008001001001KA1240N+02041MA1999999097071MD1999999+0031REMSYN017 333 20204 58003;
0112827840999991997082118004-07317-039300FM-12+040999999V0201401N00261220001CN0200001N1+03151+01501101251ADDAA106000091AG10000GA1001+999999999GF100991001001999999001001MA1999999096601MD1999999+0001REMSYN011 333 58000;
0131827840999991997082212004-07317-039300FM-12+040999999V0200901N00311220001CN0200001N1+02691+01421101691ADDAA106000091AG10000GA1001+999999999GF100991001001999999001001KA1240N+02071MA1999999097021MD1999999-0091REMSYN017 333 20207 59009;
0096827840999991997082218004-07317-039300FM-12+040999999V0201401N00411220001CN0200001N1+03311+01361101141ADDAA106000091AG10000GF101991011011008001001001MA1999999096501MD1999999-0101REMSYN011 333 59010;
0150827840999991997082300004-07317-039300FM-12+040999999V0200901N00151220001CN9999999N9+02561+01381101451ADDAA106000091AG10000GA1001+999999999GF100991001001999999001001KA1240M+03371MA1999999096791MD1999999-0121REMSYN017 333 10337 59012;EQDQ01+000002VOVAR 
0131827840999991997082312004-07317-039300FM-12+040999999V0200901N00151220001CN0200001N1+02691+01451101631ADDAA106000091AG10000GA1001+999999999GF100991001001999999001001KA1240N+01941MA1999999096961MD1999999-0061REMSYN017 333 20194 59006;
0096827840999991997082318004-07317-039300FM-12+040999999V0201401N00151220001CN0200001N1+03361+01411101061ADDAA106000091AG10000GF101991011011008001001001MA1999999096431MD1999999-0071REMSYN011 333 59007;
0115827840999991997082412004-07317-039300FM-12+040999999V0201401N00211007501CN0200001N1+02401+01821101671ADDAA106000091AG10000GF108991081071008001999999KA1240N+01851MA1999999096991MD1999999+0031REMSYN017 333 20185 58003;
0096827840999991997082418004-07317-039300FM-12+040999999V0200901N00211220001CN0200001N1+03181+01571101111ADDAA106000091AG10000GF101991011011012501001001MA1999999096461MD1999999+0031REMSYN011 333 58003;
0096827840999991997082518004-07317-039300FM-12+040999999V0203601N00311220001CN0200001N1+03531+01031101101ADDAA106000091AG10000GF101991011021008001001001MA1999999096471MD1999999+0011REMSYN011 333 58001;
0115827840999991997082612004-07317-039300FM-12+040999999V0201401N00311220001CN0200001N1+02741+01701101791ADDAA106000091AG10000GF101991011011008001001001KA1240N+02011MA1999999097121MD1999999+0161REMSYN017 333 20201 58016;
0096827840999991997082618004-07317-039300FM-12+040999999V0201801N00361220001CN0200001N1+03421+01311101261ADDAA106000091AG10000GF101991011021008001001001MA1999999096631MD1999999+0161REMSYN011 333 58016;
0115827840999991997082712004-07317-039300FM-12+040999999V0201401N00461220001CN0200001N1+02581+01521101841ADDAA106000091AG10000GF101991011011008001001001KA1240N+02061MA1999999097161MD1999999+0041REMSYN017 333 20206 58004;
0096827840999991997082718004-07317-039300FM-12+040999999V0201401N00311220001CN0200001N1+03241+01211101271ADDAA106000091AG10000GF101991011011008001011001MA1999999096631MD1999999+0001REMSYN011 333 58000;
0115827840999991997082912004-07317-039300FM-12+040999999V0201401N00411012001CN0200001N1+02471+01681101701ADDAA106000091AG10000GF107991071081008001001001KA1240N+02101MA1999999097021MD1999999-0051REMSYN017 333 20210 59005;
0096827840999991997082918004-07317-039300FM-12+040999999V0201401N00311220001CN0200001N1+03041+01321101541ADDAA106000091AG10000GF104991041021012501001001MA1999999096491MD1999999-0041REMSYN011 333 59004;
0115827840999991997083012004-07317-039300FM-12+040999999V0201401N00361220001CN0200001N1+02551+01541101651ADDAA106000091AG10000GF102991021021008001001001KA1240N+01981MA1999999096971MD1999999-0051REMSYN017 333 20198 59005;
0096827840999991997083018004-07317-039300FM-12+040999999V0201401N00211220001CN0200001N1+03081+01441101071ADDAA106000091AG10000GF102991021021008001001001MA1999999096431MD1999999-0061REMSYN011 333 59006;
0115827840999991997083112004-07317-039300FM-12+040999999V0200901N00211012001CN0200001N1+02381+01631101681ADDAA106000091AG10000GF108991081081008001999999KA1240N+02081MA1999999096991MD1999999-0021REMSYN017 333 20208 59002;
0096827840999991997083118004-07317-039300FM-12+040999999V0201401N00261220001CN0200001N1+03061+01421101061ADDAA106000091AG10000GF104991041021012501001001MA1999999096421MD1999999-0011REMSYN011 333 59001;
0150827840999991997090200004-07317-039300FM-12+040999999V0200901N00151220001CN9999999N9+02501+01481101371ADDAA106000091AG10000GA1001+999999999GF100991001001999999001001KA1240M+03251MA1999999096701MD1999999-0051REMSYN017 333 10325 59005;EQDQ01+000002VOVAR 
0131827840999991997090212004-07317-039300FM-12+040999999V0200901N00151220001CN0200001N1+02701+00981101531ADDAA106000091AG10000GA1001+999999999GF100991001001999999001001KA1240N+01821MA1999999096861MD1999999-0091REMSYN017 333 20182 59009;
0131827840999991997090312004-07317-039300FM-12+040999999V0203601N00151220001CN0200001N1+02661+01621101411ADDAA106000091AG10000GA1001+999999999GF100991001001999999001001KA1240N+01761MA1999999096761MD1999999-0101REMSYN017 333 20176 59010;
0096827840999991997090318004-07317-039300FM-12+040999999V0203601N00101220001CN0200001N1+03321+01381100781ADDAA106000091AG10000GF103991031021008001001001MA1999999096161MD1999999-0071REMSYN011 333 59007;
0096827840999991997090418004-07317-039300FM-12+040999999V0201401N00151220001CN0200001N1+03431+01511100851ADDAA106000091AG10000GF103991031021012501001001MA1999999096251MD1999999+0091REMSYN011 333 58009;
0128827840999991997090512004-07317-039300FM-12+040999999V02099999999999999999N0010001N1+02021+01541101161ADDAA106000091AG10000GF106991051031999999061001KA1999N+01481MA1999999094841MD1110101+9999REMSYN011 333 20148;EQDQ01+000992SCOLCB
0115827840999991997090518004-07317-039300FM-12+040999999V0201401N00411220001CN0200001N1+03441+01531100881ADDAA106000091AG10000GF103991031021008001001001MA1999999096282MD1999999+0031REMSYN011 333 58003;EQDQ01+096283APOSP 
0134827840999991997090612004-07317-039300FM-12+040999999V0200501N00211220001CN0200001N1+02851+01851101311ADDAA106000091AG10000GF102991999011008001001001KA1240N+02041MA1999999096681MD1999999-0091REMSYN017 333 20204 59009;EQDQ01+000012SCOTLC
0115827840999991997090712004-07317-039300FM-12+040999999V0200501N00311012001CN0200001N1+02601+01891101211ADDAA106000091AG10000GF108991081081008001999999KA1240N+02261MA1999999096571MD1999999-0111REMSYN017 333 20226 59011;
0096827840999991997090718004-07317-039300FM-12+040999999V0201401N00261045001CN0200001N1+03661+01461100611ADDAA106000091AG10000GF108991011011012501011999MA1999999096011MD1999999-0141REMSYN011 333 59014;
0096827840999991997090719004-07317-039300FM-12+040999999V0201401N00261045001CN0200001N1+03661+01461100611ADDAA106000091AG10999GF108991011011012501011999MA1999999096011MD1999999-0141REMSYN011 333 59014;
0136827840999991997090812004-07317-039300FM-12+040999999V0200501N00311220001CN0020001N1+02321+02001101351ADDAA106000091AG10000AY141061AY211061GF101991999081008001999999KA1999N+02161MA1999999096671MW1281REMSYN011 333 20216;EQDQ01+000082SCOTLC
0096827840999991997090818004-07317-039300FM-12+040999999V0200901N00151220001CN0200001N1+02941+01821100831ADDAA106000091AG10000GF104991011011008001011001MA1999999096201MD1999999+0191REMSYN011 333 58019;
0124827840999991997090918004-07317-039300FM-12+040999999V0200501N00211220001CN0200001N1+03481+01411100761ADDAA106000091AG10000AJ199999999999999GF102991011021008001041001IA1219MA1999999096141REMSYN011 333 45900;EQDQ01  09002SNDP  
0115827840999991997091012004-07317-039300FM-12+040999999V0200501N00151220001CN0200001N1+02591+01901101441ADDAA106000091AG10000GF103991031021008001001001KA1240N+01691MA1999999096761MD1999999+0041REMSYN017 333 20169 58004;
0096827840999991997091118004-07317-039300FM-12+040999999V0203601N00151220001CN0200001N1+03341+01671100811ADDAA106000091AG10000GF101991011021008001001001MA1999999096181MD1999999-0041REMSYN011 333 59004;
0096827840999991997091218004-07317-039300FM-12+040999999V0203601N00151012001CN0200001N1+03461+01401100771ADDAA106000091AG10000GF106991061021012501001001MA1999999096161MD1999999-0021REMSYN011 333 59002;
0134827840999991997091300004-07317-039300FM-12+040999999V0201401N00261220001CN9999999N9+02821+01411101071ADDAA106000091AG10000GF102991021081008001001001KA1240M+03551MA1999999096441MD1999999+0021REMSYN017 333 10355 58002;EQDQ01+000002VOVAR 
0115827840999991997091312004-07317-039300FM-12+040999999V0200901N00311220001CN0200001N1+02771+01591101501ADDAA106000091AG10000GF101991011011008001001001KA1240N+02301MA1999999096851MD1999999+0131REMSYN017 333 20230 58013;
0096827840999991997091318004-07317-039300FM-12+040999999V0200501N00261220001CN0200001N1+03401+01241100841ADDAA106000091AG10000GF101991011011008001001001MA1999999096241MD1999999+0081REMSYN011 333 58008;
0096827840999991997091418004-07317-039300FM-12+040999999V0201401N00311012001CN0200001N1+03321+01221101111ADDAA106000091AG10000GF106991061021012501001001MA1999999096481MD1999999+0241REMSYN011 333 58024;
0131827840999991997091512004-07317-039300FM-12+040999999V0200901N00261220001CN0200001N1+02751+01641101701ADDAA106000091AG10000GA1001+999999999GF100991001001999999001001KA1240N+01921MA1999999097041MD1999999+0011REMSYN017 333 20192 58001;
0096827840999991997091518004-07317-039300FM-12+040999999V0201401N00261220001CN0200001N1+03421+01411101041ADDAA106000091AG10000GF102991021021008001001001MA1999999096411MD1999999-0071REMSYN011 333 59007;
0115827840999991997091612004-07317-039300FM-12+040999999V0200901N00101220001CN0200001N1+02771+01891101461ADDAA106000091AG10000GF101991011011008001001001KA1240N+01911MA1999999096801MD1999999-0241REMSYN017 333 20191 59024;
0131827840999991997091618004-07317-039300FM-12+040999999V0201401N00311220001CN0200001N1+03681+01161100662ADDAA106000091AG10000GA1001+999999999GF100991001001999999001001MA1999999096071MD1999999-0341REMSYN011 333 59034;EQDQ01+100663APOSLP
0150827840999991997091700004-07317-039300FM-12+040999999V0201401N00211220001CN9999999N9+02901+00091101011ADDAA106000091AG10000GA1001+999999999GF100991001001999999001001KA1240M+03751MA1999999096391MD1999999-0241REMSYN017 333 10375 59024;EQDQ01+000002VOVAR 
0115827840999991997091712004-07317-039300FM-12+040999999V0203601N00151007501CN0200001N1+02571+01781101551ADDAA106000091AG10000GF106991061021008001001001KA1240N+02091MA1999999096901MD1999999+0101REMSYN017 333 20209 58010;
0112827840999991997091718004-07317-039300FM-12+040999999V0201401N00211220001CN0200001N1+03461+01231100891ADDAA106000091AG10000GA1001+999999999GF100991001001999999001001MA1999999096271MD1999999+0201REMSYN011 333 58020;
0115827840999991997091812004-07317-039300FM-12+040999999V0200501N00101012001CN0200001N1+02481+01801101451ADDAA106000091AG10000GF108991081081008001999999KA1240N+01821MA1999999096791MD1999999-0111REMSYN017 333 20182 59011;
0112827840999991997091818004-07317-039300FM-12+040999999V0200901N00211220001CN0200001N1+03401+00371100801ADDAA106000091AG10000GA1001+999999999GF100991001001999999001001MA1999999096171MD1999999-0011REMSYN011 333 59001;
0150827840999991997091900004-07317-039300FM-12+040999999V0202301N00101220001CN9999999N9+02301+01171101151ADDAA106000091AG10000GA1001+999999999GF100991001001999999001001KA1240M+03451MA1999999096481MD1999999-0031REMSYN017 333 10345 59003;EQDQ01+000002VOVAR 
0115827840999991997091912004-07317-039300FM-12+040999999V0203601N00151007501CN0200001N1+02471+01811101371ADDAA106000091AG10000GF108991081051008001999999KA1240N+01731MA1999999096691MD1999999-0101REMSYN017 333 20173 59010;
0096827840999991997091918004-07317-039300FM-12+040999999V0200901N00211220001CN0200001N1+03431+01561100751ADDAA106000091AG10000GF103991021021008001011001MA1999999096131MD1999999-0041REMSYN011 333 59004;
0096827840999991997092018004-07317-039300FM-12+040999999V0202701N00101220001CN0200001N1+03331+01781100741ADDAA106000091AG10000GF103991031021008001001001MA1999999096131MD1999999+0021REMSYN011 333 58002;
0115827840999991997092112004-07317-039300FM-12+040999999V0200901N00101220001CN0200001N1+02641+01801101301ADDAA106000091AG10000GF103991031021012501001001KA1240N+01981MA1999999096661MD1999999-0041REMSYN017 333 20198 59004;
0096827840999991997092118004-07317-039300FM-12+040999999V0200501N00211220001CN0200001N1+03501+01431100711ADDAA106000091AG10000GF103991031021012501001001MA1999999096111MD1999999-0021REMSYN011 333 59002;
0115827840999991997092212004-07317-039300FM-12+040999999V0200501N00151220001CN0200001N1+02701+01691101441ADDAA106000091AG10000GF102991021011008001001001KA1240N+02251MA1999999096791MD1999999+0131REMSYN017 333 20225 58013;
0096827840999991997092318004-07317-039300FM-12+040999999V0200501N00211220001CN0200001N1+03571+01311100781ADDAA106000091AG10000GF102991021021008001001001MA1999999096171MD1999999-0011REMSYN011 333 59001;
0150827840999991997092400004-07317-039300FM-12+040999999V0209991C00001220001CN9999999N9+02621+01261101041ADDAA106000091AG10000GA1001+999999999GF100991001001999999001001KA1240M+03601MA1999999096401MD1999999+0011REMSYN017 333 10360 58001;EQDQ01+000002VOVAR 
0115827840999991997092412004-07317-039300FM-12+040999999V0200501N00261007501CN0200001N1+02591+01661101611ADDAA106000091AG10000GF106991061021008001001001KA1240N+01971MA1999999096941MD1999999+0221REMSYN017 333 20197 58022;
0115827840999991997092418004-07317-039300FM-12+040999999V0200501N00261220001CN0200001N1+03441+01091100971ADDAA106000091AG10000GF103991999021008001001001MA1999999096341MD1999999+0181REMSYN011 333 58018;EQDQ01+000042SCOTLC
0096827840999991997092518004-07317-039300FM-12+040999999V0200901N00261015001CN0200001N1+03341+00941101161ADDAA106000091AG10000GF106991061001017501071001MA1999999096521MD1999999+0171REMSYN011 333 58017;
0096827840999991997092618004-07317-039300FM-12+040999999V0200901N00311007501CN0200001N1+03381+01381101151ADDAA106000091AG10000GF107991071021008001001001MA1999999096511MD1999999-0011REMSYN011 333 59001;
0131827840999991997092712004-07317-039300FM-12+040999999V0203201N00261220001CN0200001N1+02811+01721101621ADDAA106000091AG10000GA1001+999999999GF100991001001999999001001KA1240N+02061MA1999999096951MD1999999-0141REMSYN017 333 20206 59014;
0096827840999991997092718004-07317-039300FM-12+040999999V0201401N00361220001CN0200001N1+03601+01221100971ADDAA106000091AG10000GF101991011011008001001001MA1999999096351MD1999999-0161REMSYN011 333 59016;
0131827840999991997092812004-07317-039300FM-12+040999999V0200501N00311220001CN0200001N1+02551+01421101761ADDAA106000091AG10000GA1001+999999999GF100991001001999999001001KA1240N+01881MA1999999097091MD1999999+0111REMSYN017 333 20188 58011;
0112827840999991997092818004-07317-039300FM-12+040999999V0201401N00361220001CN0200001N1+03441+01031101051ADDAA106000091AG10000GA1001+999999999GF100991001001999999001001MA1999999096431MD1999999+0081REMSYN011 333 58008;
0112827840999991997093018004-07317-039300FM-12+040999999V0200901N00311220001CN0200001N1+03581+00781100931ADDAA106000091AG10000GA1001+999999999GF100991001001999999001001MA1999999096331MD1999999-0031REMSYN011 333 59003;
0112827840999991997100218004-07317-039300FM-12+040999999V0201801N00311220001CN0200001N1+03781+01021100511ADDAA106000091AG10000GA1001+999999999GF100991001001999999001001MA1999999095931MD1999999-0231REMSYN011 333 59023;
0096827840999991997100318004-07317-039300FM-12+040999999V0200901N00151220001CN0200001N1+03581+01391100611ADDAA106000091AG10000GF102991011011008001011001MA1999999096021MD1999999+0091REMSYN011 333 58009;
0134827840999991997100500004-07317-039300FM-12+040999999V0203201N00051007501CN9999999N9+02921+01711101211ADDAA106000091AG10000GF108991081071008001999999KA1240M+03531MA1999999096581MD1999999+0131REMSYN017 333 10353 58013;EQDQ01+000002VOVAR 
0143827840999991997100512004-07317-039300FM-12+040999999V0200901N00461012001CN0200001N1+02851+01601101521ADDAA124000591AG10001AY151061AY221061GF107991071081008001001001KA1240N+02401MA1999999096881MD1999999+0041MW1021REMSYN023 333 20240 58004 69954;
0150827840999991997100600004-07317-039300FM-12+040999999V0200901N00311220001CN9999999N9+02941+01551101311ADDAA106000091AG10000GA1001+999999999GF100991001001999999001001KA1240M+03531MA1999999096681MD1999999+0101REMSYN017 333 10353 58010;EQDQ01+000002VOVAR 
