0134832420999991997010100004-12567-041383FM-12+042799999V0203601N00721004201CN9999999N9+02671+02061100561ADDAA106000091AG10000GF108991081031004501999999KA1240M+03381MA1999999095831MD1999999-0081REMSYN017 333 10338 59008;EQDQ01+000002VOVAR 
0143832420999991997010112004-12567-041383FM-12+042799999V0201801N00051004201CN0100001N1+02491+02341100921ADDAA124004091AG10000AY121061AY261061GF108991081051004501999999KA1240N+02241MA1999999096171MD1999999+0011MW1021REMSYN023 333 20224 58001 60044;
0124832420999991997010118004-12567-041383FM-12+042799999V0201801N00151004201CN0040001N1+02281+02251100671ADDAA106007091AG10000AY121061AY261061GF108991081051004501999999MA1999999095841MD1999999+0351MW1021REMSYN017 333 58035 60071;
0134832420999991997010200004-12567-041383FM-12+042799999V0203601N00771004201CN9999999N9+02601+02351100541ADDAA106000091AG10000GF108991081031004501999999KA1240M+03041MA1999999095801MD1999999-0031REMSYN017 333 10304 59003;EQDQ01+000002VOVAR 
0143832420999991997010212004-12567-041383FM-12+042799999V0201801N00051004201CN0100001N1+02121+02101101051ADDAA124010091AG10000AY121061AY261061GF108991081051004501999999KA1240N+02031MA1999999096251MD1999999+0081MW1021REMSYN023 333 20203 58008 60104;
0096832420999991997010218004-12567-041383FM-12+042799999V0202301N00101220001CN0500001N1+02971+02551100491ADDAA106000091AG10000GF103991021031004501001031MA1999999095761MD1999999-0081REMSYN011 333 59008;
0162832420999991997010300004-12567-041383FM-12+042799999V0203601N00151004201CN9999999N9+02301+02221100841ADDAA106000391AG10010AY191061AY221061GF105991051051004501001001KA1240M+03061MA1999999096021MD1999999+0221MW1021REMSYN023 333 10306 58022 69931;EQDQ01+000002VOVAR 
0143832420999991997010312004-12567-041383FM-12+042799999V0201801N00051004201CN0100001N1+02421+02321101121ADDAA124000591AG10000AY121061AY251061GF108991081051004501999999KA1240N+02111MA1999999096311MD1999999+0061MW1021REMSYN023 333 20211 58006 69954;
0096832420999991997010318004-12567-041383FM-12+042799999V0201401N00151004201CN0500001N1+02911+02621100681ADDAA106000091AG10000GF107991061031004501061001MA1999999095931MD1999999+0151REMSYN011 333 58015;
0134832420999991997010400004-12567-041383FM-12+042799999V0203601N00051220001CN9999999N9+02441+02391100931ADDAA106000091AG10000GF101991011031004501001001KA1240M+02941MA1999999096151MD1999999+0131REMSYN017 333 10294 58013;EQDQ01+000002VOVAR 
0143832420999991997010412004-12567-041383FM-12+042799999V0202301N00101004201CN0040001N1+02351+02331101161ADDAA124000591AG10000AY111061AY261061GF108991081051004501999999KA1240N+02271MA1999999096361MD1999999+0051MW1021REMSYN023 333 20227 58005 69964;
0159832420999991997010418004-12567-041383FM-12+042799999V0203601N00151007501CN0100001N1+02241+02091999999ADDAA106008091AG10000AY151061AY211061GF108991081051008001999999MA1999999999999MD1999999+0121MW1021REMSYN017 333 58012 60081;EQDQ01+092223APOSP Q02 092223APOSP 
0150832420999991997010500004-12567-041383FM-12+042799999V0200901N00051220001CN9999999N9+02641+02551100821ADDAA106000091AG10000GF101991011031004501001001KA1240M+03121MA1999999096062MD1999999-0091REMSYN017 333 10312 59009;EQDQ01+096063APOSP Q02+000002VOVAR 
0115832420999991997010512004-12567-041383FM-12+042799999V0201801N00151004201CN0040001N1+02481+02321101091ADDAA106000091AG10000GF108991081041004501999999KA1240N+02231MA1999999096321MD1999999-0041REMSYN017 333 20223 59004;
0150832420999991997010600004-12567-041383FM-12+042799999V0203601N00051220001CN9999999N9+02601+02391100721ADDAA106000091AG10000GA1001+999999999GF100991001001999999001001KA1240M+03121MA1999999095971MD1999999-0091REMSYN017 333 10312 59009;EQDQ01+000002VOVAR 
0115832420999991997010612004-12567-041383FM-12+042799999V0202301N00151004201CN0100001N1+02481+02271101111ADDAA106000091AG10000GF108991081051004501999999KA1240N+02291MA1999999096341MD1999999+0021REMSYN017 333 20229 58002;
0096832420999991997010618004-12567-041383FM-12+042799999V0201801N00211220001CN0500001N1+03201+02211100681ADDAA106000091AG10000GF102991021031004501001001MA1999999095971MD1999999+0061REMSYN011 333 58006;
0150832420999991997010700004-12567-041383FM-12+042799999V0201801N00051220001CN9999999N9+02681+02281100901ADDAA106000091AG10000GA1001+999999999GF100991001001999999001001KA1240M+03321MA1999999096151MD1999999+0181REMSYN017 333 10332 58018;EQDQ01+000002VOVAR 
0115832420999991997010712004-12567-041383FM-12+042799999V0201801N00151004201CN0100001N1+02481+02151101351ADDAA106000091AG10000GF107991071041004501001001KA1240N+02331MA1999999096581MD1999999+0241REMSYN017 333 20233 58024;
0150832420999991997010800004-12567-041383FM-12+042799999V0202301N00051220001CN9999999N9+02661+02021100971ADDAA106000091AG10000GA1001+999999999GF100991001001999999001001KA1240M+03371MA1999999096211MD1999999+0061REMSYN017 333 10337 58006;EQDQ01+000002VOVAR 
0115832420999991997010812004-12567-041383FM-12+042799999V0201801N00261220001CN0200001N1+02621+01881101291ADDAA106000091AG10000GF102991021021004501001001KA1240N+02191MA1999999096531MD1999999-0051REMSYN017 333 20219 59005;
0096832420999991997010818004-12567-041383FM-12+042799999V0201801N00771220001CN0500001N1+02681+02091101171ADDAA106000091AG10000GF102991011031004501061001MA1999999096381MD1999999+0271REMSYN011 333 58027;
0150832420999991997010900004-12567-041383FM-12+042799999V0203601N00051220001CN9999999N9+02331+01851101041ADDAA106000091AG10000GA1001+999999999GF100991001001999999001001KA1240M+02981MA1999999096271MD1999999+0061REMSYN017 333 10298 58006;EQDQ01+000002VOVAR 
0115832420999991997010912004-12567-041383FM-12+042799999V0201801N00151004201CN0100001N1+02451+02071101401ADDAA106000091AG10000GF106991061021004501001001KA1240N+02191MA1999999096591MD1999999+0061REMSYN017 333 20219 58006;
0096832420999991997010918004-12567-041383FM-12+042799999V0200901N00311220001CN0500001N1+03241+01961100901ADDAA106000091AG10000GF102991021031004501001001MA1999999096171MD1999999-0211REMSYN011 333 59021;
0150832420999991997011000004-12567-041383FM-12+042799999V0203601N00101220001CN9999999N9+02641+02161100961ADDAA106000091AG10000GA1001+999999999GF100991001001999999001001KA1240M+03341MA1999999096201MD1999999-0071REMSYN017 333 10334 59007;EQDQ01+000002VOVAR 
0115832420999991997011012004-12567-041383FM-12+042799999V0202301N00101004201CN0100001N1+02521+02131101251ADDAA106000091AG10000GF108991081041004501999999KA1240N+02291MA1999999096491MD1999999-0101REMSYN017 333 20229 59010;
0096832420999991997011018004-12567-041383FM-12+042799999V0201801N00151045001CN0500001N1+03141+02211100741ADDAA106000091AG10000GF107991021031004501061031MA1999999096031MD1999999-0141REMSYN011 333 59014;
0134832420999991997011100004-12567-041383FM-12+042799999V0203601N00151220001CN9999999N9+02681+02091100801ADDAA106000091AG10000GF101991011031004501001001KA1240M+03221MA1999999096061MD1999999-0141REMSYN017 333 10322 59014;EQDQ01+000002VOVAR 
0166832420999991997011200004-12567-041383FM-12+042799999V0203601N00151220001CN9999999N9+02501+02111100961ADDAA106000091AG10000GA1001+999999999GF100991001001999999001001KA1240M+03061MA1999999096171MD1999999+0111REMSYN017 333 10306 58011;EQDQ01+999990APOSLPQ02+000002VOVAR 
0101832420999991997011212004-12567-041383FM-12+042799999V0203601N00101004201CN0100001N1+02401+01991101261ADDAA106000091AG10000GF108991081051004501999999KA1240N+02261MA1999999096471REMSYN017 333 20226 58///;
0076832420999991997011218004-12567-041383FM-12+042799999V0201801N00261220001CN0500001N1+03291+02181100661ADDAA106000091AG10000GF101991011031004501001001MA1999999095961REMSYN005 333;
0134832420999991997011300004-12567-041383FM-12+042799999V0203601N00101220001CN9999999N9+02661+02041100821ADDAA106000091AG10000GF102991021031004501001001KA1240M+03341MA1999999096071MD1999999-0101REMSYN017 333 10334 59010;EQDQ01+000002VOVAR 
0115832420999991997011312004-12567-041383FM-12+042799999V0203601N00151004201CN0100001N1+02441+02071101261ADDAA106000091AG10000GF108991081051004501999999KA1240N+02341MA1999999096491MD1999999+0021REMSYN017 333 20234 58002;
0096832420999991997011318004-12567-041383FM-12+042799999V0201801N00211220001CN0500001N1+03181+02311100711ADDAA106000091AG10000GF102991021011004501001001MA1999999096001MD1999999+0041REMSYN011 333 58004;
0134832420999991997011400004-12567-041383FM-12+042799999V0203601N00051220001CN9999999N9+02701+02081100841ADDAA106000091AG10000GF102991021021008001001001KA1240M+03321MA1999999096091MD1999999+0021REMSYN017 333 10332 58002;EQDQ01+000002VOVAR 
0115832420999991997011412004-12567-041383FM-12+042799999V0201801N00101004201CN0200001N1+02581+02101101231ADDAA106000091AG10000GF107991071021004501001001KA1240N+02321MA1999999096481MD1999999-0011REMSYN017 333 20232 59001;
0096832420999991997011418004-12567-041383FM-12+042799999V0201301N00311220001CN0500001N1+03321+02071100671ADDAA106000091AG10000GF102991021031004501001001MA1999999095981MD1999999-0021REMSYN011 333 59002;
0150832420999991997011500004-12567-041383FM-12+042799999V0203601N00151220001CN9999999N9+02721+01931100871ADDAA106000091AG10000GA1001+999999999GF100991001001999999001001KA1240M+03401MA1999999096131MD1999999+0041REMSYN017 333 10340 58004;EQDQ01+000002VOVAR 
0156832420999991997011512004-12567-041383FM-12+042799999V0202301N00101045001CN0100001N1+02521+99999101271ADDAA124001091AG10000AY121061AY211061GF106991021041004501011001KA1240N+02261MA1999999096501MD1999999+0021REMSYN023 333 20226 58002 60014;EQDQ01+000702PRSWM1
0096832420999991997011518004-12567-041383FM-12+042799999V0201801N00311220001CN0500001N1+03361+02141100591ADDAA106000091AG10000GF102991021031004501001001MA1999999095921MD1999999-0061REMSYN011 333 59006;
0134832420999991997011600004-12567-041383FM-12+042799999V0200501N00211004201CN9999999N9+02921+02011100851ADDAA106000091AG10000GF107991071031004501001001KA1240M+03461MA1999999096121MD1999999-0011REMSYN017 333 10346 59001;EQDQ01+000002VOVAR 
0115832420999991997011612004-12567-041383FM-12+042799999V0201401N00101004201CN0100001N1+02561+02191101161ADDAA106000091AG10000GF108991081051004501999999KA1240N+02351MA1999999096431MD1999999-0071REMSYN017 333 20235 59007;
0096832420999991997011618004-12567-041383FM-12+042799999V0202301N00151220001CN0500001N1+03211+02261100681ADDAA106000091AG10000GF102991021031004501001001MA1999999095981MD1999999+0061REMSYN011 333 58006;
0134832420999991997011700004-12567-041383FM-12+042799999V0200901N00101220001CN9999999N9+02801+02181100741ADDAA106000091AG10000GF103991031021004501001001KA1240M+03241MA1999999096021MD1999999-0101REMSYN017 333 10324 59010;EQDQ01+000002VOVAR 
0115832420999991997011712004-12567-041383FM-12+042799999V0201801N00151105001CN0200001N1+02521+02151101021ADDAA106000091AG10000GF108991041021004501001071KA1240N+02361MA1999999096281MD1999999-0151REMSYN017 333 20236 59015;
0096832420999991997011718004-12567-041383FM-12+042799999V0202301N00211220001CN0500001N1+03391+02181100311ADDAA106000091AG10000GF103991031031004501001001MA1999999095661MD1999999-0321REMSYN011 333 59032;
0121832420999991997011812004-12567-041383FM-12+042799999V0201801N00151004201CN0100001N1+02581+02211100991ADDAA124005091AG10000GF108991071021004501001071KA1240N+02251MA1999999096221MD1999999-0061REMSYN023 333 20225 59006 60054;
0096832420999991997011818004-12567-041383FM-12+042799999V0200901N00101004201CN0200001N1+03041+02281100461ADDAA106000091AG10000GF108991081031004501999999MA1999999095741MD1999999+0081REMSYN011 333 58008;
0162832420999991997011900004-12567-041383FM-12+042799999V0203601N00151004201CN9999999N9+02251+02211101021ADDAA106002091AG10010AY191061AY261061GF108991081051004501999999KA1240M+03081MA1999999096231MD1999999+0251MW1021REMSYN023 333 10308 58025 60021;EQDQ01+000002VOVAR 
0143832420999991997011912004-12567-041383FM-12+042799999V0200901N00151045001CN0100001N1+02261+02141101201ADDAA124080091AG10000AY121061AY261061GF108991041041004501011999KA1240N+02251MA1999999096371MD1999999+0151MW1021REMSYN023 333 20225 58015 60804;
0096832420999991997011918004-12567-041383FM-12+042799999V0209991C00001021001CN0500001N1+02711+02221100881ADDAA106000091AG10000GF108991081001022501011999MA1999999096071MD1999999+0331REMSYN011 333 58033;
0134832420999991997012000004-12567-041383FM-12+042799999V0201801N00051004201CN9999999N9+02471+02251101121ADDAA106000091AG10000GF108991081051004501999999KA1240M+02781MA1999999096311MD1999999+0081REMSYN017 333 10278 58008;EQDQ01+000002VOVAR 
0143832420999991997012012004-12567-041383FM-12+042799999V0200901N00101004201CN0040001N1+02141+02111101361ADDAA124015091AG10000AY121061AY261061GF108991081051004501999999KA1240N+02021MA1999999096531MD1999999+0161MW1021REMSYN023 333 20202 58016 60154;
0124832420999991997012018004-12567-041383FM-12+042799999V0201801N00051004201CN0100001N1+02661+02221100991ADDAA106001091AG10003AY161061AY221061GF108991081041004501999999MA1999999096201MD1999999+0131MW1021REMSYN017 333 58013 69981;
0134832420999991997012100004-12567-041383FM-12+042799999V0209991C00001045001CN9999999N9+02351+02291101051ADDAA106000091AG10000GF108991031041004501011999KA1240M+02681MA1999999096231MD1999999-0081REMSYN017 333 10268 59008;EQDQ01+000002VOVAR 
0140832420999991997012112004-12567-041383FM-12+042799999V0201801N04832220001CN0100001N1+02491+02051101021ADDAA124001091AG10000GF107991021021004501001011KA1240N+02131MA1999999096451MD1999999-0081REMSYN023 333 20213 59008 69984;EQDQ01+004833WOSPD 
0096832420999991997012118004-12567-041383FM-12+042799999V0201401N00311220001CN0500001N1+02851+02261100801ADDAA106000091AG10000GF104991041021004501001001MA1999999096051MD1999999-0151REMSYN011 333 59015;
0134832420999991997012200004-12567-041383FM-12+042799999V0202701N00051004201CN9999999N9+02421+02191101011ADDAA106000091AG10000GF108991081041004501999999KA1240M+02981MA1999999096231MD1999999+0001REMSYN017 333 10298 58000;EQDQ01+000002VOVAR 
0115832420999991997012212004-12567-041383FM-12+042799999V0201801N00101004201CN0040001N1+02371+02151101211ADDAA106000091AG10000GF108991081051004501999999KA1240N+02271MA1999999096411MD1999999-0041REMSYN017 333 20227 59004;
0096832420999991997012218004-12567-041383FM-12+042799999V0201401N00151220001CN0500001N1+03021+02071100681ADDAA106000091AG10000GF103991021031004501001031MA1999999095961MD1999999-0091REMSYN011 333 59009;
0134832420999991997012300004-12567-041383FM-12+042799999V0203601N00151004201CN9999999N9+02551+02251100961ADDAA106000091AG10000GF106991061041004501001001KA1240M+03081MA1999999096181MD1999999-0051REMSYN017 333 10308 59005;EQDQ01+000002VOVAR 
0115832420999991997012312004-12567-041383FM-12+042799999V0201801N00211220001CN0200001N1+02501+01981101191ADDAA106000091AG10000GF102991021021004501001001KA1240N+02191MA1999999096421MD1999999+0011REMSYN017 333 20219 58001;
0096832420999991997012318004-12567-041383FM-12+042799999V0201401N00311220001CN0500001N1+03111+01991100701ADDAA106000091AG10000GF102991011031004501001031MA1999999095991MD1999999+0031REMSYN011 333 58003;
0134832420999991997012400004-12567-041383FM-12+042799999V0200501N00151004201CN9999999N9+02651+02091101071ADDAA106000091AG10000GF107991071041004501001001KA1240M+03161MA1999999096311MD1999999+0131REMSYN017 333 10316 58013;EQDQ01+000002VOVAR 
0115832420999991997012412004-12567-041383FM-12+042799999V0200501N00051004201CN0100001N1+02471+02071101211ADDAA106000091AG10000GF106991061041004501001001KA1240N+02261MA1999999096441MD1999999+0021REMSYN017 333 20226 58002;
0178832420999991997012500004-12567-041383FM-12+042799999V0203601N00311004201CN9999999N9+02421+02321101091ADDAA106007091AG10000AY121061AY261061GF108991081051004501999999KA1240M+03131MA1999999096291MD1999999-0021MW1021REMSYN023 333 10313 59002 60071;EQDQ01+999990APOSLPQ02+000002VOVAR 
0143832420999991997012512004-12567-041383FM-12+042799999V0201401N00101004201CN0100001N1+02361+02151101191ADDAA124009091AG10000AY121061AY261061GF106991051021004501061001KA1240N+02131MA1999999096391MD1999999-0051MW1021REMSYN023 333 20213 59005 60094;
0096832420999991997012518004-12567-041383FM-12+042799999V0201401N00151105001CN0500001N1+03001+02341100611ADDAA106000091AG10000GF106991021031004501001031MA1999999095881MD1999999-0151REMSYN011 333 59015;
0162832420999991997012600004-12567-041383FM-12+042799999V0203601N00311004201CN9999999N9+02241+02211101101ADDAA106008091AG10000AY121061AY261061GF108991081071004501999999KA1240M+03101MA1999999096291MD1999999+0001MW1211REMSYN023 333 10310 58000 60081;EQDQ01+000002VOVAR 
0143832420999991997012612004-12567-041383FM-12+042799999V0201801N00101004201CN0040001N1+02241+02191101231ADDAA124061091AG10010AY191061AY261061GF108991081071004501999999KA1240N+02061MA1999999096401MD1999999+0011MW1021REMSYN023 333 20206 58001 60614;
0096832420999991997012618004-12567-041383FM-12+042799999V0202301N00151220001CN0500001N1+02841+02221100661ADDAA106000091AG10000GF102991011031004501001031MA1999999095901MD1999999+0021REMSYN011 333 58002;
0143832420999991997012712004-12567-041383FM-12+042799999V0201401N00151220001CN0100001N1+02401+02031101141ADDAA124019091AG10000AY151061AY221061GF104991041021004501001001KA1240N+02161MA1999999096321MD1999999-0081MW1021REMSYN023 333 20216 59008 60194;
0096832420999991997012718004-12567-041383FM-12+042799999V0201801N00101105001CN0500001N1+02971+02281100681ADDAA106000091AG10000GF106991031031004501001031MA1999999095941MD1999999+0041REMSYN011 333 58004;
0134832420999991997012800004-12567-041383FM-12+042799999V0201801N00051021001CN9999999N9+02501+02291100931ADDAA106000091AG10000GF107991071001022501011001KA1240M+03041MA1999999096151MD1999999+0001REMSYN017 333 10304 58000;EQDQ01+000002VOVAR 
0115832420999991997012812004-12567-041383FM-12+042799999V0201801N00101004201CN0040001N1+02381+02071101201ADDAA106000091AG10000GF108991081041004501999999KA1240N+02201MA1999999096411MD1999999+0091REMSYN017 333 20220 58009;
0096832420999991997012818004-12567-041383FM-12+042799999V0201801N00211105001CN0500001N1+02941+02331100771ADDAA106000091AG10000GF107991031031004501001031MA1999999096031MD1999999+0091REMSYN011 333 58009;
0143832420999991997012912004-12567-041383FM-12+042799999V0203601N00101004201CN0100001N1+02301+02091101261ADDAA124003091AG10003AY161061AY221061GF107991071051004501001001KA1240N+02151MA1999999096461MD1999999+0051MW1021REMSYN023 333 20215 58005 60034;
0150832420999991997013000004-12567-041383FM-12+042799999V0209991C00001220001CN9999999N9+02491+02191101061ADDAA106000091AG10000GA1001+999999999GF100991001001999999001001KA1240M+03081MA1999999096271MD1999999+0091REMSYN017 333 10308 58009;EQDQ01+000002VOVAR 
0115832420999991997013012004-12567-041383FM-12+042799999V0201801N00151105001CN0200001N1+02501+01981101271ADDAA106000091AG10000GF107991031021004501001081KA1240N+02011MA1999999096491MD1999999+0031REMSYN017 333 20201 58003;
0096832420999991997013018004-12567-041383FM-12+042799999V0201801N00261220001CN0500001N1+02981+02061100821ADDAA106000091AG10000GF103991021031004501001031MA1999999096071MD1999999-0031REMSYN011 333 59003;
0162832420999991997013100004-12567-041383FM-12+042799999V0209991C00001004201CN9999999N9+02341+02241101071ADDAA106003091AG10003AY161061AY201061GF108991081051004501999999KA1240M+03061MA1999999096281MD1999999+0011MW1021REMSYN023 333 10306 58001 60031;EQDQ01+000002VOVAR 
0121832420999991997013112004-12567-041383FM-12+042799999V0201401N00211220001CN0200001N1+02501+02001101331ADDAA124003091AG10000GF104991041021004501001001KA1240N+01921MA1999999096521MD1999999+0031REMSYN023 333 20192 58003 60034;
0115832420999991997013118004-12567-041383FM-12+042799999V0202701N001019999999N0500001N1+03041+01881100891ADDAA106000091AG10000GF105991999011004501001001MA1999999096111MD1999999+0041REMSYN011 333 58004;EQDQ01+000022SCOTLC
0150832420999991997020100004-12567-041383FM-12+042799999V0200901N00051220001CN9999999N9+02521+02071100971ADDAA106000091AG10000GA1001+999999999GF100991001001999999001001KA1240M+03101MA1999999096201MD1999999-0081REMSYN017 333 10310 59008;EQDQ01+000002VOVAR 
0115832420999991997020112004-12567-041383FM-12+042799999V0200901N00051004201CN0100001N1+02381+02091101271ADDAA106000091AG10000GF108991081041004501999999KA1240N+02191MA1999999096481MD1999999-0041REMSYN017 333 20219 59004;
0096832420999991997020118004-12567-041383FM-12+042799999V0202301N00101220001CN0500001N1+03001+02191100781ADDAA106000091AG10000GF104991021031004501001031MA1999999096041MD1999999-0071REMSYN011 333 59007;
0134832420999991997020200004-12567-041383FM-12+042799999V0200901N00051004201CN9999999N9+02541+02231100891ADDAA106000091AG10000GF107991071041004501001001KA1240M+03101MA1999999096111MD1999999-0091REMSYN017 333 10310 59009;EQDQ01+000002VOVAR 
0115832420999991997020212004-12567-041383FM-12+042799999V0201801N00101004201CN0100001N1+02481+02111101331ADDAA106000091AG10000GF107991061021004501001081KA1240N+02211MA1999999096541MD1999999+0061REMSYN017 333 20221 58006;
0096832420999991997020218004-12567-041383FM-12+042799999V0201801N00261004201CN0500001N1+03081+02271100791ADDAA106000091AG10000GF106991061031004501001001MA1999999096061MD1999999+0041REMSYN011 333 58004;
0162832420999991997020300004-12567-041383FM-12+042799999V0203601N00151004201CN9999999N9+02441+02271101121ADDAA106000191AG10000AY151061AY221061GF108991081031004501999999KA1240M+03181MA1999999096331MD1999999+0221MW1131REMSYN023 333 10318 58022 69921;EQDQ01+000002VOVAR 
0143832420999991997020312004-12567-041383FM-12+042799999V0201801N00261004201CN0100001N1+02441+02031101181ADDAA124000591AG10000AY151061AY221061GF106991061021004501001001KA1240N+02201MA1999999096391MD1999999-0151MW1021REMSYN023 333 20220 59015 69964;
0096832420999991997020318004-12567-041383FM-12+042799999V0202301N00211220001CN0500001N1+02991+02241100741ADDAA106000091AG10000GF104991041021004501001001MA1999999096001MD1999999-0061REMSYN011 333 59006;
0162832420999991997020400004-12567-041383FM-12+042799999V0201801N00051220001CN9999999N9+02441+02301101031ADDAA106010091AG10003AY161061AY221061GF104991041051004501001001KA1240M+03061MA1999999096251MD1999999-0081MW1021REMSYN023 333 10306 59008 60101;EQDQ01+000002VOVAR 
0121832420999991997020412004-12567-041383FM-12+042799999V0201801N00101045001CN0200001N1+02481+02071101271ADDAA124010091AG10000GF106991041021004501061011KA1240N+02131MA1999999096481MD1999999+0091REMSYN023 333 20213 58009 60104;
0096832420999991997020418004-12567-041383FM-12+042799999V0200901N00261220001CN0500001N1+03021+02161100861ADDAA106000091AG10000GF104991041021004501001001MA1999999096111MD1999999+0111REMSYN011 333 58011;
0134832420999991997020500004-12567-041383FM-12+042799999V0201801N00211004201CN9999999N9+02621+02141101131ADDAA106000091AG10000GF108991081041004501999999KA1240M+03161MA1999999096361MD1999999+0111REMSYN017 333 10316 58011;EQDQ01+000002VOVAR 
0115832420999991997020512004-12567-041383FM-12+042799999V0201801N00311004201CN0200001N1+02391+02051101301ADDAA106000091AG10000GF107991071041004501001001KA1240N+02121MA1999999096511MD1999999+0031REMSYN017 333 20212 58003;
0096832420999991997020518004-12567-041383FM-12+042799999V0201401N00311220001CN0500001N1+03011+02181100811ADDAA106000091AG10000GF104991041021004501001001MA1999999096071MD1999999-0041REMSYN011 333 59004;
0162832420999991997020600004-12567-041383FM-12+042799999V0202301N00051220001CN9999999N9+02301+02131101161ADDAA106017091AG10009AY191061AY261061GF103991031041004501001001KA1240M+03061MA1999999096351MD1999999-0011MW1021REMSYN023 333 10306 59001 60171;EQDQ01+000002VOVAR 
0121832420999991997020612004-12567-041383FM-12+042799999V0201801N00311004201CN0100001N1+02381+02011101361ADDAA124017091AG10000GF107991071041004501001001KA1240N+02111MA1999999096541MD1999999+0031REMSYN023 333 20211 58003 60174;
0096832420999991997020618004-12567-041383FM-12+042799999V0201801N00361004201CN0500001N1+02981+01981100911ADDAA106000091AG10000GF106991061021004501001001MA1999999096141MD1999999+0071REMSYN011 333 58007;
0134832420999991997020700004-12567-041383FM-12+042799999V0200901N00261004201CN9999999N9+02601+01921101181ADDAA106000091AG10000GF108991081051004501999999KA1240M+03081MA1999999096401MD1999999+0051REMSYN017 333 10308 58005;EQDQ01+000002VOVAR 
0121832420999991997020712004-12567-041383FM-12+042799999V0201801N00211220001CN0200001N1+02381+01911101401ADDAA124000591AG10000GF104991041021004501001001KA1240N+01971MA1999999096611MD1999999+0071REMSYN023 333 20197 58007 69944;
0096832420999991997020718004-12567-041383FM-12+042799999V0201801N00311004201CN0500001N1+02901+02101101091ADDAA106000091AG10000GF105991051031004501001001MA1999999096341MD1999999+0171REMSYN011 333 58017;
0134832420999991997020800004-12567-041383FM-12+042799999V0200901N00101004201CN9999999N9+02541+02091101231ADDAA106000091AG10000GF105991051041004501001001KA1240M+02941MA1999999096441MD1999999+0041REMSYN017 333 10294 58004;EQDQ01+000002VOVAR 
0143832420999991997020812004-12567-041383FM-12+042799999V0202301N00261220001CN0100001N1+02411+02051101391ADDAA124000591AG10000AY151061AY221061GF104991041021004501001001KA1240N+02171MA1999999096601MD1999999-0011MW1021REMSYN023 333 20217 59001 69954;
0096832420999991997020818004-12567-041383FM-12+042799999V0201801N00311220001CN0500001N1+03141+02001100981ADDAA106000091AG10000GF102991011031004501061001MA1999999096241MD1999999-0071REMSYN011 333 59007;
0134832420999991997020900004-12567-041383FM-12+042799999V0201801N00411004201CN9999999N9+02681+02021101111ADDAA106000091AG10000GF108991081051004501999999KA1240M+03171MA1999999096341MD1999999-0101REMSYN017 333 10317 59010;EQDQ01+000002VOVAR 
0143832420999991997020912004-12567-041383FM-12+042799999V0201801N00311004201CN0100001N1+02301+02031101421ADDAA124017091AG10003AY161061AY221061GF108991081041004501999999KA1240N+02111MA1999999096631MD1999999+0031MW1021REMSYN023 333 20211 58003 60174;
0096832420999991997020918004-12567-041383FM-12+042799999V0202301N00151220001CN0500001N1+03001+02341100961ADDAA106000091AG10000GF102991021031004501001001MA1999999096201MD1999999-0041REMSYN011 333 59004;
0134832420999991997021000004-12567-041383FM-12+042799999V0201801N00151004201CN9999999N9+02601+02141101111ADDAA106000091AG10000GF108991081051004501999999KA1240M+03091MA1999999096321MD1999999-0021REMSYN017 333 10309 59002;EQDQ01+000002VOVAR 
0115832420999991997021012004-12567-041383FM-12+042799999V0201801N00311004201CN0100001N1+02331+02071101401ADDAA106000091AG10000GF107991071041004501001001KA1240N+02171MA1999999096601MD1999999-0031REMSYN017 333 20217 59003;
0124832420999991997021018004-12567-041383FM-12+042799999V0201801N00051220001CN0500001N1+02701+02281101071ADDAA106000191AG10000AY151061AY211061GF103991031031004501001001MA1999999096291MD1999999+0091MW1021REMSYN017 333 58009 69921;
0162832420999991997021100004-12567-041383FM-12+042799999V0203601N00261220001CN9999999N9+02141+02021101301ADDAA106002091AG10009AY191061AY261061GF102991021031004501001001KA1240M+02941MA1999999096471MD1999999+0151MW1131REMSYN023 333 10294 58015 60021;EQDQ01+000002VOVAR 
0143832420999991997021112004-12567-041383FM-12+042799999V0201801N00151004201CN0100001N1+02241+02071101441ADDAA124003091AG10000AY151061AY211061GF108991081041004501999999KA1240N+02071MA1999999096591MD1999999-0011MW1021REMSYN023 333 20207 59001 60034;
0096832420999991997021118004-12567-041383FM-12+042799999V0201801N00101004201CN0200001N1+02641+02051101121ADDAA106000091AG10000GF108991081041004501999999MA1999999096311MD1999999+0021REMSYN011 333 58002;
0143832420999991997021212004-12567-041383FM-12+042799999V0202301N00151004201CN0100001N1+02111+02051101421ADDAA124004091AG10003AY161061AY221061GF108991081041004501999999KA1240N+02051MA1999999096581MD1999999-0011MW1021REMSYN023 333 20205 59001 60044;
0124832420999991997021218004-12567-041383FM-12+042799999V0202301N00151004201CN0100001N1+02671+02161101051ADDAA106002091AG10009AY191061AY261061GF108991081071004501999999MA1999999096251MD1999999-0061MW1161REMSYN017 333 59006 60021;
0178832420999991997021300004-12567-041383FM-12+042799999V0202701N00101004201CN9999999N9+02021+01951101321ADDAA106022091AG10009AY191061AY261061GF108991081071004501999999KA1240M+02701MA1999999096441MD1999999+0031MW1021REMSYN023 333 10270 58003 60221;EQDQ01+999990APOSP Q02+000002VOVAR 
0121832420999991997021312004-12567-041383FM-12+042799999V0201801N00051004201CN0100001N1+02241+02101101461ADDAA124023091AG10000GF108991081041004501999999KA1240N+01931MA1999999096601MD1999999+0021REMSYN023 333 20193 58002 60234;
0124832420999991997021318004-12567-041383FM-12+042799999V0201801N00211220001CN0200001N1+02701+02261101131ADDAA106001091AG10009AY191061AY261061GF103991021091004501001031MA1999999096311MD1999999+0061MW1031REMSYN017 333 58006 60011;
0143832420999991997021412004-12567-041383FM-12+042799999V0201801N00261220001CN0100001N1+02341+02131101391ADDAA124001091AG10000AY151061AY221061GF103991031021004501001001KA1240N+02101MA1999999096571MD1999999-0031MW1031REMSYN023 333 20210 59003 60014;
0124832420999991997021518004-12567-041383FM-12+042799999V0201401N00101105001CN0100001N1+02581+02291100961ADDAA106008091AG10003AY161061AY221061GF106991041091004501001031MA1999999096161MD1999999-0041MW1021REMSYN017 333 59004 60081;
0162832420999991997021600004-12567-041383FM-12+042799999V0200501N00101004201CN9999999N9+02241+02211101261ADDAA106021091AG10009AY191061AY261061GF108991081071004501999999KA1240M+02761MA1999999096431MD1999999-0151MW1031REMSYN023 333 10276 59015 60211;EQDQ01+000002VOVAR 
0143832420999991997021612004-12567-041383FM-12+042799999V0202301N00101004201CN0100001N1+02351+02171101421ADDAA124041091AG10009AY191061AY261061GF107991071041004501001001KA1240N+02111MA1999999096591MD1999999+0001MW1021REMSYN023 333 20211 58000 60414;
0096832420999991997021618004-12567-041383FM-12+042799999V0202301N00261220001CN0500001N1+02951+02211100871ADDAA106000091AG10000GF103991031031004501001001MA1999999096101MD1999999-0061REMSYN011 333 59006;
0134832420999991997021700004-12567-041383FM-12+042799999V0201401N00051004201CN9999999N9+02301+02181101211ADDAA106000091AG10000GF108991081051004501999999KA1240M+03001MA1999999096401MD1999999-0031REMSYN017 333 10300 59003;EQDQ01+000002VOVAR 
0115832420999991997021712004-12567-041383FM-12+042799999V0201801N00261004201CN0200001N1+02481+02051101411ADDAA106000091AG10000GF106991061021004501001001KA1240N+02171MA1999999096601MD1999999+0011REMSYN017 333 20217 58001;
0096832420999991997021718004-12567-041383FM-12+042799999V0201801N00211220001CN0500001N1+02981+02151100971ADDAA106000091AG10000GF103991031021004501001001MA1999999096221MD1999999+0121REMSYN011 333 58012;
0162832420999991997021800004-12567-041383FM-12+042799999V0200501N00051021001CN9999999N9+02201+02121101161ADDAA106002091AG10009AY191061AY261061GF107991071001022501081001KA1240M+03041MA1999999096351MD1999999-0051MW1021REMSYN023 333 10304 59005 60021;EQDQ01+000002VOVAR 
0140832420999991997021812004-12567-041383FM-12+042799999V0200901N000519999999N0100001N1+02331+02131101481ADDAA124002091AG10000GF107991999041004501001001KA1240N+02071MA1999999096641MD1999999+0041REMSYN023 333 20207 58004 60024;EQDQ01+000002SCOTLC
0124832420999991997021818004-12567-041383FM-12+042799999V0200901N00311004201CN0040001N1+02471+02261101141ADDAA106001091AG10009AY191061AY261061GF108991081041004501999999MA1999999096341MD1999999+0121MW1201REMSYN017 333 58012 60011;
0162832420999991997021900004-12567-041383FM-12+042799999V0201801N00051004201CN9999999N9+02261+02231101311ADDAA106003091AG10009AY191061AY261061GF108991081051004501999999KA1240M+02921MA1999999096491MD1999999+0141MW1021REMSYN023 333 10292 58014 60031;EQDQ01+000002VOVAR 
0143832420999991997021912004-12567-041383FM-12+042799999V0201801N00261220001CN0200001N1+02481+02131101441ADDAA124004091AG10000AY151061AY221061GF104991041021004501001001KA1240N+02171MA1999999096621MD1999999-0021MW1021REMSYN023 333 20217 59002 60044;
0096832420999991997021918004-12567-041383FM-12+042799999V0201801N00151004201CN0500001N1+02901+02301100981ADDAA106000091AG10000GF106991061031004501001001MA1999999096211MD1999999-0131REMSYN011 333 59013;
0162832420999991997022000004-12567-041383FM-12+042799999V0209999999999004201CN9999999N9+02281+02201101201ADDAA106000391AG10000AY151061AY221061GF108991081051004501999999KA1240M+02941MA1999999096401MD1999999-0091MW1021REMSYN023 333 10294 59009 69931;EQDQ01+000002VOVAR 
0143832420999991997022012004-12567-041383FM-12+042799999V0201401N00051004201CN0100001N1+02301+02181101371ADDAA124001091AG10003AY161061AY221061GF108991081041004501999999KA1240N+02081MA1999999096541MD1999999-0081MW1021REMSYN023 333 20208 59008 60014;
0096832420999991997022018004-12567-041383FM-12+042799999V0201801N00151220001CN0500001N1+02941+02241100941ADDAA106000091AG10000GF103991021031004501001031MA1999999096141MD1999999-0041REMSYN011 333 59004;
0134832420999991997022100004-12567-041383FM-12+042799999V0202701N00151004201CN9999999N9+02441+02191101191ADDAA106000091AG10000GF108991081031004501999999KA1240M+03011MA1999999096381MD1999999-0021REMSYN017 333 10301 59002;EQDQ01+000002VOVAR 
0143832420999991997022112004-12567-041383FM-12+042799999V0202301N00051004201CN0100001N1+02441+02211101431ADDAA124003091AG10003AY161061AY221061GF108991081041004501999999KA1240N+02191MA1999999096631MD1999999+0091MW1021REMSYN023 333 20219 58009 60034;
0096832420999991997022118004-12567-041383FM-12+042799999V0201801N00311105001CN0500001N1+02301+02171100961ADDAA106000091AG10000GF107991031031004501001031MA1999999096201MD1999999+0031REMSYN011 333 58003;
0162832420999991997022200004-12567-041383FM-12+042799999V0201801N00151004201CN9999999N9+02441+02091101371ADDAA106003091AG10009AY191061AY261061GF108991081071004501999999KA1240M+03051MA1999999096571MD1999999+0191MW1021REMSYN023 333 10305 58019 60031;EQDQ01+000002VOVAR 
0121832420999991997022212004-12567-041383FM-12+042799999V0201801N001510042019N0200001N1+02341+01951101481ADDAA124005091AG10003GF108991081051004501999999KA1240N+02161MA1999999096661MD1999999-0031REMSYN023 333 20216 59003 60054;
0137832420999991997022218004-12567-041383FM-12+042799999V0202301N00411004201CN0040001N1+02981+02151101161ADDAA106002091AG10009AY191061AY261061GF108991081051004501999999MA1999999096361MD1999999+0161REMSYN017 333 58016 60021;EQDQ01+000692PRSWM1
0134832420999991997022300004-12567-041383FM-12+042799999V0209991C00001004201CN9999999N9+02281+02231101421ADDAA106000091AG10000GF107991071041004501001001KA1240M+03021MA1999999096591MD1999999+0021REMSYN017 333 10302 58002;EQDQ01+000002VOVAR 
0143832420999991997022312004-12567-041383FM-12+042799999V0201801N00151220001CN0200001N1+02371+02131101581ADDAA124005091AG10003AY161061AY211061GF102991021021004501001001KA1240N+02191MA1999999096751MD1999999+0091MW1021REMSYN023 333 20219 58009 60054;
0096832420999991997022318004-12567-041383FM-12+042799999V0201801N00211220001CN0500001N1+03011+02181101041ADDAA106000091AG10000GF102991021021004501001001MA1999999096281MD1999999-0081REMSYN011 333 59008;
0150832420999991997022400004-12567-041383FM-12+042799999V0202701N00151220001CN9999999N9+02421+02051101101ADDAA106000091AG10000GA1001+999999999GF100991001001999999001001KA1240M+03051MA1999999096301MD1999999-0291REMSYN017 333 10305 59029;EQDQ01+000002VOVAR 
0115832420999991997022412004-12567-041383FM-12+042799999V0201801N00151004201CN0100001N1+02401+02091101321ADDAA106000091AG10000GF108991081041004501999999KA1240N+02151MA1999999096511MD1999999-0241REMSYN017 333 20215 59024;
0096832420999991997022418004-12567-041383FM-12+042799999V0201801N00211220001CN0500001N1+03081+02191100761ADDAA106000091AG10000GF101991011031004501001001MA1999999096011MD1999999-0271REMSYN011 333 59027;
0134832420999991997022500004-12567-041383FM-12+042799999V0202701N00051220001CN9999999N9+02521+02131100861ADDAA106000091AG10000GF102991011011004501001011KA1240M+03101MA1999999096091MD1999999-0211REMSYN017 333 10310 59021;EQDQ01+000002VOVAR 
0143832420999991997022512004-12567-041383FM-12+042799999V0209991C00001004201CN0100001N1+02301+02181101171ADDAA124018091AG10003AY161061AY211061GF108991081041004501999999KA1240N+02131MA1999999096371MD1999999-0141MW1021REMSYN023 333 20213 59014 60184;
0096832420999991997022518004-12567-041383FM-12+042799999V0201801N00211004201CN0100001N1+02931+02361100671ADDAA106000091AG10000GF107991071031004501001001MA1999999095921MD1999999-0081REMSYN011 333 59008;
0134832420999991997022600004-12567-041383FM-12+042799999V0209991C00001004201CN9999999N9+02521+02341100931ADDAA106000091AG10000GF107991071041004501001001KA1240M+02981MA1999999096141MD1999999+0051REMSYN017 333 10298 58005;EQDQ01+000002VOVAR 
0115832420999991997022612004-12567-041383FM-12+042799999V0201801N00151004201CN0100001N1+02481+02151101191ADDAA106000091AG10000GF108991081041004501999999KA1240N+02291MA1999999096411MD1999999+0041REMSYN017 333 20229 58004;
0096832420999991997022618004-12567-041383FM-12+042799999V0201801N00211004201CN0200001N1+02881+02371100801ADDAA106000091AG10000GF107991071041004501001001MA1999999096061MD1999999+0131REMSYN011 333 58013;
0143832420999991997022712004-12567-041383FM-12+042799999V0201801N00051004201CN0040001N1+02281+02161101531ADDAA124004091AG10003AY161061AY221061GF108991081071004501999999KA1240N+02231MA1999999096521MD1999999+0111MW1021REMSYN023 333 20223 58011 60044;
0096832420999991997022718004-12567-041383FM-12+042799999V0202301N00151045001CN0200001N1+02761+02251100821ADDAA106000091AG10000GF107991031031004501061081MA1999999096061MD1999999+0001REMSYN011 333 58000;
0162832420999991997022800004-12567-041383FM-12+042799999V0203601N00511004201CN9999999N9+02521+02021101041ADDAA106002091AG10009AY191061AY261061GF108991081071004501999999KA1240M+02911MA1999999096251MD1999999+0021MW1211REMSYN023 333 10291 58002 60021;EQDQ01+000002VOVAR 
0143832420999991997022812004-12567-041383FM-12+042799999V0202301N00101004201CN0100001N1+02161+02111101181ADDAA124011091AG10009AY191061AY261061GF108991081061004501999999KA1240N+02051MA1999999096371MD1999999-0151MW1021REMSYN023 333 20205 59015 60114;
0096832420999991997022818004-12567-041383FM-12+042799999V0202301N00151004201CN0200001N1+02641+02251100771ADDAA106000091AG10000GF107991071031004501001001MA1999999095971MD1999999-0091REMSYN011 333 59009;
0162832420999991997030100004-12567-041383FM-12+042799999V0202701N00101004201CN9999999N9+02141+02111101081ADDAA106022091AG10003AY161061AY221061GF108991081071004501999999KA1240M+02661MA1999999096241MD1999999-0011MW1021REMSYN023 333 10266 59001 60221;EQDQ01+000002VOVAR 
0143832420999991997030112004-12567-041383FM-12+042799999V0209991C00001004201CN0040001N1+02221+02081101191ADDAA124028091AG10003AY161061AY221061GF108991081061004501999999KA1240N+02071MA1999999096351MD1999999-0021MW1021REMSYN023 333 20207 59002 60284;
0124832420999991997030118004-12567-041383FM-12+042799999V0203601N00411004201CN0100001N1+02711+02101100631ADDAA106008091AG10003AY161061AY221061GF108991081031004501999999MA1999999095851MD1999999-0121MW1021REMSYN017 333 59012 60081;
0134832420999991997030200004-12567-041383FM-12+042799999V0200901N00101220001CN9999999N9+02261+02231100821ADDAA106000091AG10000GF102991021031004501001001KA1240M+02721MA1999999096011MD1999999-0231REMSYN017 333 10272 59023;EQDQ01+000002VOVAR 
0143832420999991997030212004-12567-041383FM-12+042799999V0201401N00101004201CN0100001N1+02151+02141100931ADDAA124016091AG10003AY161061AY221061GF107991071041004501001001KA1240N+02111MA1999999096101MD1999999-0251MW1021REMSYN023 333 20211 59025 60164;
0096832420999991997030218004-12567-041383FM-12+042799999V0202301N00101220001CN0200001N1+02781+02321100671ADDAA106000091AG10000GF104991041031004501001001MA1999999095901MD1999999+0051REMSYN011 333 58005;
0162832420999991997030300004-12567-041383FM-12+042799999V0201801N00051004201CN9999999N9+02261+02241100861ADDAA106010091AG10008AY191061AY261061GF108991081051004501999999KA1240M+02841MA1999999096041MD1999999+0031MW1021REMSYN023 333 10284 58003 60101;EQDQ01+000002VOVAR 
0143832420999991997030312004-12567-041383FM-12+042799999V0201801N00051004201CN0100001N1+02301+02181101251ADDAA124011091AG10003AY161061AY221061GF108991081051004501999999KA1240N+02141MA1999999096431MD1999999+0331MW1021REMSYN023 333 20214 58033 60114;
0096832420999991997030318004-12567-041383FM-12+042799999V0201801N00151004201CN0200001N1+02711+02311100761ADDAA106000091AG10000GF107991061031004501031001MA1999999095981MD1999999+0081REMSYN011 333 58008;
0162832420999991997030400004-12567-041383FM-12+042799999V0203601N00051004201CN9999999N9+02161+02131101161ADDAA106017091AG10003AY161061AY251061GF108991081051004501999999KA1240M+02821MA1999999096321MD1999999+0281MW1201REMSYN023 333 10282 58028 60171;EQDQ01+000002VOVAR 
0143832420999991997030412004-12567-041383FM-12+042799999V0201801N00101004201CN0040001N1+02031+01991101591ADDAA124070091AG10003AY161061AY261061GF108991081061004501999999KA1240N+01981MA1999999096711MD1999999+0281MW1201REMSYN023 333 20198 58028 60704;
0124832420999991997030418004-12567-041383FM-12+042799999V0200901N00051004201CN0100001N1+02261+02141101231ADDAA106002091AG10003AY161061AY221061GF108991081061004501999999MA1999999096381MD1999999+0401MW1021REMSYN017 333 58040 60021;
0134832420999991997030500004-12567-041383FM-12+042799999V0202701N00051045001CN9999999N9+02171+02041101311ADDAA106000091AG10000GF107991041061004501011001KA1240M+02421MA1999999096451MD1999999+0131REMSYN017 333 10242 58013;EQDQ01+000002VOVAR 
0143832420999991997030512004-12567-041383FM-12+042799999V0201801N00101004201CN0100001N1+02361+02171101431ADDAA124002091AG10000AY151061AY221061GF107991071041004501001001KA1240N+02011MA1999999096591MD1999999-0121MW1021REMSYN023 333 20201 59012 60024;
0096832420999991997030518004-12567-041383FM-12+042799999V0202701N00101004201CN0200001N1+02731+02211100941ADDAA106000091AG10000GF107991061031004501001011MA1999999096151MD1999999-0231REMSYN011 333 59023;
0134832420999991997030600004-12567-041383FM-12+042799999V0200901N00051220001CN9999999N9+02241+02191101201ADDAA106000091AG10000GF102991021051004501001001KA1240M+02791MA1999999096381MD1999999-0071REMSYN017 333 10279 59007;EQDQ01+000002VOVAR 
0143832420999991997030612004-12567-041383FM-12+042799999V0201801N00101004201CN0100001N1+02281+02161101321ADDAA124000391AG10000AY151061AY211061GF108991081051004501999999KA1240N+02151MA1999999096491MD1999999-0101MW1021REMSYN023 333 20215 59010 69934;
0096832420999991997030618004-12567-041383FM-12+042799999V0202301N00101220001CN0200001N1+02921+02191100801ADDAA106000091AG10000GF104991041001004501071001MA1999999096051MD1999999-0101REMSYN011 333 59010;
0162832420999991997030700004-12567-041383FM-12+042799999V0200501N00151004201CN9999999N9+02361+02191101211ADDAA106000191AG10008AY191061AY251061GF108991081071004501999999KA1240M+02941MA1999999096391MD1999999+0011MW1291REMSYN023 333 10294 58001 69921;EQDQ01+000002VOVAR 
0143832420999991997030712004-12567-041383FM-12+042799999V0200901N00261004201CN0040001N1+02161+02081101421ADDAA124009091AG10003AY161061AY221061GF108991081061004501999999KA1240N+02031MA1999999096581MD1999999+0091MW1021REMSYN023 333 20203 58009 60094;
0062832420999991997030718004-12567-041383FM-12+042799999V0201801N00211021001CN0200001N1+02611+02141101051ADDAA106000091AG10000GF107991071001022501071001MA1999999096251
0134832420999991997030800004-12567-041383FM-12+042799999V0209991C00001220001CN9999999N9+02301+02181101161ADDAA106000091AG10000GF102991021041004501001001KA1240M+02681MA1999999096331MD1999999-0061REMSYN017 333 10268 59006;EQDQ01+000002VOVAR 
0096832420999991997030818004-12567-041383FM-12+042799999V0201801N00151220001CN0500001N1+02971+01921100951ADDAA106000091AG10000GF102991011011004501001011MA1999999096191MD1999999-0061REMSYN011 333 59006;
0134832420999991997030900004-12567-041383FM-12+042799999V0202301N00461004201CN9999999N9+02321+02031101411ADDAA106000091AG10000GF108991081071004501999999KA1240M+03011MA1999999096591MD1999999+0261REMSYN017 333 10301 58026;EQDQ01+000002VOVAR 
0143832420999991997030912004-12567-041383FM-12+042799999V0201801N00211220001CN0100001N1+02361+02071101391ADDAA124000591AG10008AY191061AY261061GF103991021021004501061001KA1240N+01991MA1999999096571MD1999999+0001MW1011REMSYN023 333 20199 58000 69964;
0096832420999991997030918004-12567-041383FM-12+042799999V0201801N00211045001CN0200001N1+02801+02181100951ADDAA106000091AG10000GF106991031021004501061001MA1999999096161MD1999999-0031REMSYN011 333 59003;
0162832420999991997031000004-12567-041383FM-12+042799999V0200901N00051004201CN9999999N9+02101+02051101351ADDAA106008091AG10003AY161061AY221061GF108991081061004501999999KA1240M+02911MA1999999096511MD1999999-0081MW1021REMSYN023 333 10291 59008 60081;EQDQ01+000002VOVAR 
0143832420999991997031012004-12567-041383FM-12+042799999V0201801N00261004201CN0100001N1+02301+01961101441ADDAA124009091AG10000AY151061AY221061GF108991081061004501999999KA1240N+01961MA1999999095591MD1999999+0021MW1021REMSYN023 333 20196 58002 60094;
0096832420999991997031018004-12567-041383FM-12+042799999V0201801N00311220001CN0200001N1+02521+02071101121ADDAA106000091AG10000GF104991041041004501001001MA1999999096301MD1999999+0141REMSYN011 333 58014;
0134832420999991997031100004-12567-041383FM-12+042799999V0201801N00211004201CN9999999N9+02221+01991101361ADDAA106000091AG10000GF108991081051004501999999KA1240M+02641MA1999999096521MD1999999+0011REMSYN017 333 10264 58001;EQDQ01+000002VOVAR 
0143832420999991997031112004-12567-041383FM-12+042799999V0201801N00151004201CN0040001N1+02201+02061101461ADDAA124000391AG10000AY151061AY221061GF107991071051004501001001KA1240N+01961MA1999999096611MD1999999+0021MW1021REMSYN023 333 20196 58002 69934;
0096832420999991997031118004-12567-041383FM-12+042799999V0201801N00261220001CN0200001N1+02761+02121101021ADDAA106000091AG10000GF102991021031004501001001MA1999999096231MD1999999-0071REMSYN011 333 59007;
0162832420999991997031200004-12567-041383FM-12+042799999V0201801N00151004201CN9999999N9+02101+02081101501ADDAA106003091AG10008AY191061AY261061GF108991081071004501999999KA1240M+02801MA1999999096641MD1999999+0121MW1131REMSYN023 333 10280 58012 60031;EQDQ01+000002VOVAR 
0143832420999991997031212004-12567-041383FM-12+042799999V0201801N00151105001CN0100001N1+02391+02151101531ADDAA124003091AG10000AY151061AY221061GF108991041021004501001071KA1240N+02011MA1999999096691MD1999999+0081MW1021REMSYN023 333 20201 58008 60034;
0096832420999991997031218004-12567-041383FM-12+042799999V0201801N00151220001CN0500001N1+02891+02171101111ADDAA106000091AG10000GF103991031031004501001001MA1999999096321MD1999999+0091REMSYN011 333 58009;
0162832420999991997031300004-12567-041383FM-12+042799999V0203601N00051004201CN9999999N9+02001+01931101581ADDAA106019091AG10008AY191061AY261061GF108991081071004501999999KA1240M+02901MA1999999096721MD1999999+0081MW1201REMSYN023 333 10290 58008 60191;EQDQ01+000002VOVAR 
0096832420999991997031318004-12567-041383FM-12+042799999V0201801N00311105001CN0500001N1+02861+02161101231ADDAA106000091AG10000GF108991021021004501001071MA1999999096471MD1999999+0101REMSYN011 333 58010;
0150832420999991997031400004-12567-041383FM-12+042799999V0200901N001019999999N9999999N9+02321+02181101391ADDAA106000091AG10000GF106991999021004501001001KA1240M+02921MA1999999096561MD1999999-0161REMSYN017 333 10292 59016;EQDQ01+000022SCOTLCQ02+000002VOVAR 
0115832420999991997031412004-12567-041383FM-12+042799999V0201801N00051004201CN0100001N1+02381+02071101561ADDAA106000091AG10000GF106991061021004501001001KA1240N+02191MA1999999096721MD1999999-0031REMSYN017 333 20219 59003;
0096832420999991997031418004-12567-041383FM-12+042799999V0201401N00151004201CN0500001N1+02961+02311101041ADDAA106000091AG10000GF105991051041004501001001MA1999999096291MD1999999-0131REMSYN011 333 59013;
0134832420999991997031500004-12567-041383FM-12+042799999V0209991C00001220001CN9999999N9+02401+02211101221ADDAA106000091AG10000GF102991021001022501061001KA1240M+02971MA1999999096421MD1999999-0141REMSYN017 333 10297 59014;EQDQ01+000002VOVAR 
0115832420999991997031512004-12567-041383FM-12+042799999V0201801N00151004201CN0100001N1+02371+02071101321ADDAA106000091AG10000GF108991081041004501999999KA1240N+02181MA1999999096511MD1999999-0211REMSYN017 333 20218 59021;
0096832420999991997031518004-12567-041383FM-12+042799999V0201401N00261105001CN0500001N1+02931+02281100801ADDAA106000091AG10000GF108991021021004501001071MA1999999096051MD1999999-0241REMSYN011 333 59024;
0096832420999991997031618004-12567-041383FM-12+042799999V0202301N00101220001CN0200001N1+02821+02271100551ADDAA106000091AG10000GF104991031031004501001031MA1999999095801MD1999999-0251REMSYN011 333 59025;
0143832420999991997031700004-12567-041383FM-12+042799999V0202701N005119999999N0200001N1+02221+02201100891ADDAA106015091AG10008AY191061AY261061GF108991999999004501999999KA1240M+02831MA1999999096091MD1999999-0111MW1211REMSYN023 333 10283 59011 60151;
0143832420999991997031712004-12567-041383FM-12+042799999V0203601N00051004201CN0040001N1+02311+02291101001ADDAA124041091AG10003AY161061AY221061GF108991081061004501999999KA1240N+02151MA1999999096181MD1999999-0141MW1021REMSYN023 333 20215 59014 60414;
0096832420999991997031718004-12567-041383FM-12+042799999V0201801N00211004201CN0200001N1+02931+02401100391ADDAA106000091AG10000GF108991081071004501999999MA1999999095651MD1999999-0151REMSYN011 333 59015;
0162832420999991997031800004-12567-041383FM-12+042799999V0200901N00051004201CN9999999N9+02201+02181100931ADDAA106044091AG10008AY191061AY261061GF108991081071004501999999KA1240M+02941MA1999999096111MD1999999+0021MW1211REMSYN023 333 10294 58002 60441;EQDQ01+000002VOVAR 
0143832420999991997031812004-12567-041383FM-12+042799999V0200901N00101004201CN0040001N1+02211+02171101031ADDAA124093091AG10008AY191061AY261061GF108991081061004501999999KA1240N+02131MA1999999096201MD1999999+0021MW1021REMSYN023 333 20213 58002 60934;
0096832420999991997031818004-12567-041383FM-12+042799999V0203601N00261045001CN0200001N1+02841+02191100581ADDAA106000091AG10000GF106991041031004501061031MA1999999095831MD1999999+0181REMSYN011 333 58018;
0162832420999991997031900004-12567-041383FM-12+042799999V0203601N00101004201CN9999999N9+02201+02121101211ADDAA106005091AG10003AY161061AY221061GF108991081071004501999999KA1240M+02861MA1999999096371MD1999999+0261MW1021REMSYN023 333 10286 58026 60051;EQDQ01+000002VOVAR 
0143832420999991997031912004-12567-041383FM-12+042799999V0201801N00051004201CN0100001N1+02161+02131101231ADDAA124006091AG10003AY161061AY221061GF108991081061004501999999KA1240N+02041MA1999999096391MD1999999+0191MW1021REMSYN023 333 20204 58019 60064;
0096832420999991997031918004-12567-041383FM-12+042799999V0201801N00151045001CN0200001N1+02701+02261100751ADDAA106000091AG10000GF107991041031004501031001MA1999999095971MD1999999+0141REMSYN011 333 58014;
0162832420999991997032000004-12567-041383FM-12+042799999V0202701N00151004201CN9999999N9+02141+02111101181ADDAA106093091AG10003AY161061AY221061GF108991081071004501999999KA1240M+02741MA1999999096331MD1999999-0041MW1211REMSYN023 333 10274 59004 60931;EQDQ01+000002VOVAR 
0143832420999991997032012004-12567-041383FM-12+042799999V0201801N00051004201CN0040001N1+02361+02191101201ADDAA124104091AG10003AY161061AY221061GF108991081071004501999999KA1240N+02111MA1999999096371MD1999999-0021MW1021REMSYN023 333 20211 59002 61044;
0096832420999991997032018004-12567-041383FM-12+042799999V0201801N00051045001CN0200001N1+02741+02171100731ADDAA106000091AG10000GF108991031041004501061071MA1999999095951MD1999999-0021REMSYN011 333 59002;
0134832420999991997032100004-12567-041383FM-12+042799999V0203601N00051004201CN9999999N9+02361+02281101011ADDAA106000091AG10000GF108991081041004501999999KA1240M+02831MA1999999096211MD1999999-0121REMSYN017 333 10283 59012;EQDQ01+000002VOVAR 
0143832420999991997032112004-12567-041383FM-12+042799999V0201801N00051004201CN0040001N1+02261+02191101131ADDAA124179091AG10003AY161061AY261061GF108991081061004501999999KA1240N+02081MA1999999096311MD1999999-0061MW1021REMSYN023 333 20208 59006 61794;
0096832420999991997032118004-12567-041383FM-12+042799999V0201801N00151004201CN0100001N1+02581+02211100661ADDAA106000091AG10000GF107991071031004501001001MA1999999095881MD1999999-0071REMSYN011 333 59007;
0143832420999991997032212004-12567-041383FM-12+042799999V0201801N00051004201CN0040001N1+02181+02101101211ADDAA124034091AG10003AY161061AY221061GF108991081041004501999999KA1240N+02011MA1999999096371MD1999999+0061MW1021REMSYN023 333 20201 58006 60344;
0096832420999991997032218004-12567-041383FM-12+042799999V0203601N00261004201CN0200001N1+02661+02201100701ADDAA106000091AG10000GF108991081041004501999999MA1999999095921MD1999999+0041REMSYN011 333 58004;
0134832420999991997032300004-12567-041383FM-12+042799999V0200501N00101021001CN9999999N9+02311+02111100901ADDAA106000091AG10000GF106991061001022501061001KA1240M+02761MA1999999096091MD1999999-0131REMSYN017 333 10276 59013;EQDQ01+000002VOVAR 
0115832420999991997032312004-12567-041383FM-12+042799999V0201801N00151004201CN0100001N1+02421+02191101151ADDAA106000091AG10000GF107991061041004501031001KA1240N+02051MA1999999096341MD1999999-0031REMSYN017 333 20205 59003;
0124832420999991997032318004-12567-041383FM-12+042799999V0201801N00461004201CN0200001N1+02771+02231100781ADDAA106000591AG10000AY151061AY221061GF107991071041004501001001MA1999999096001MD1999999+0081MW1021REMSYN017 333 58008 69951;
0150832420999991997032400004-12567-041383FM-12+042799999V0203601N00311045001CN9999999N9+02501+02191100941ADDAA106000091AG10000GF106991031041004501051001KA1240M+02821MA1999999096151MD1999999+0061REMSYN017 333 10282 58006;EQDQ01+999990APOSLPQ02+000002VOVAR 
0121832420999991997032412004-12567-041383FM-12+042799999V0201801N00151004201CN0100001N1+02581+02251100931ADDAA124000591AG10000GF107991071041004501001001KA1240N+02311MA1999999096171MD1999999-0171REMSYN023 333 20231 59017 69954;
0124832420999991997032418004-12567-041383FM-12+042799999V0201801N00101004201CN0200001N1+02691+02411100511ADDAA106000591AG10000AY151061AY221061GF107991071031004501001001MA1999999095771MD1999999-0231MW1021REMSYN017 333 59023 69941;
0143832420999991997032512004-12567-041383FM-12+042799999V0201801N00051004201CN0040001N1+02241+02211101041ADDAA124070091AG10003AY161061AY221061GF108991081061004501999999KA1240N+02071MA1999999096211MD1999999+0041MW1201REMSYN023 333 20207 58004 60704;
0124832420999991997032518004-12567-041383FM-12+042799999V0203601N00311004201CN0100001N1+02731+02211100591ADDAA106003091AG10003AY161061AY221061GF107991071071004501001001MA1999999095811MD1999999+0041MW1031REMSYN017 333 58004 60031;
0134832420999991997032600004-12567-041383FM-12+042799999V0203601N00051045001CN9999999N9+02231+02161100861ADDAA106000091AG10000GF107991031041004501011001KA1240M+02751MA1999999096051MD1999999-0121REMSYN017 333 10275 59012;EQDQ01+000002VOVAR 
0143832420999991997032612004-12567-041383FM-12+042799999V0201801N00261004201CN0040001N1+02191+02181101041ADDAA124006091AG10003AY161061AY221061GF108991081061004501999999KA1240N+02061MA1999999096211MD1999999+0001MW1021REMSYN023 333 20206 58000 60064;
0143832420999991997032618004-12567-041383FM-12+042799999V0201801N00261004201CN0100001N1+02231+99999100631ADDAA106001091AG10003AY161061AY221061GF107991071071004501001001MA1999999094852MD1999999+0041MW1031REMSYN017 333 58004 60011;EQDQ01+094853APOSP 
0143832420999991997032712004-12567-041383FM-12+042799999V0201801N00261004201CN0040001N1+02231+02211101171ADDAA124054091AG10003AY161061AY221061GF108991081071004501999999KA1240N+02131MA1999999096331MD1999999+0121MW1201REMSYN023 333 20213 58012 60544;
0124832420999991997032718004-12567-041383FM-12+042799999V0201801N00361004201CN0040001N1+02161+02141100941ADDAA106030091AG10003AY161061AY221061GF108991081071004501999999MA1999999096101MD1999999+0251MW1201REMSYN017 333 58025 60301;
0131832420999991997032806004-12567-041383FM-12+042799999V0201501N00311220001CN0200001N1+02121+01911100971ADDAA106000091AG10000GA1001+999999999GF100991001001999999001001MA1999999096121MD1999999+0121REMSYN011 333 58012;EQDQ01+999990APOSP 
0124832420999991997032818004-12567-041383FM-12+042799999V0201801N00151220001CN0200001N1+02531+02251101021ADDAA106008091AG10003AY161061AY221061GF104991021071004501061001MA1999999096211MD1999999+0111MW1031REMSYN017 333 58011 60081;
0124832420999991997032918004-12567-041383FM-12+042799999V0202301N00051004201CN0100001N1+02771+02271100971ADDAA106001091AG10003AY161061AY221061GF106991061071004501001001MA1999999096191MD1999999-0021MW1031REMSYN017 333 59002 69991;
0134832420999991997033000004-12567-041383FM-12+042799999V0200901N00461220001CN9999999N9+02241+02171101251ADDAA106000091AG10000GF102991021051004501051001KA1240M+02841MA1999999096421MD1999999-0061REMSYN017 333 10284 59006;EQDQ01+000002VOVAR 
0121832420999991997040112004-12567-041383FM-12+042799999V0201801N00101004201CN0040001N1+02301+02011101601ADDAA124001091AG10000GF107991071051004501001001KA1240N+02131MA1999999096761MD1999999+0061REMSYN023 333 20213 58006 60014;
0096832420999991997040118004-12567-041383FM-12+042799999V0201801N00211220001CN0200001N1+02821+02121101151ADDAA106000091AG10000GF102991021031004501001001MA1999999096371MD1999999+0141REMSYN011 333 58014;
0150832420999991997040200004-12567-041383FM-12+042799999V0203601N00051220001CN9999999N9+02221+02081101441ADDAA106000091AG10000GA1001+999999999GF100991001001999999001001KA1240M+02841MA1999999096601MD1999999+0061REMSYN017 333 10284 58006;EQDQ01+000002VOVAR 
0115832420999991997040212004-12567-041383FM-12+042799999V0201401N00051220001CN0100001N1+02451+02071101591ADDAA106000091AG10000GF103991031021004501001001KA1240N+01981MA1999999096761MD1999999+0001REMSYN017 333 20198 58000;
0143832420999991997040312004-12567-041383FM-12+042799999V0200901N00101004201CN0040001N1+02161+02131101531ADDAA124003091AG10003AY161061AY211061GF108991081061004501999999KA1240N+02091MA1999999096691MD1999999-0071MW1201REMSYN023 333 20209 59007 60034;
0115832420999991997041112004-12567-041383FM-12+042799999V0201801N00311004201CN0040001N1+02211+01901101611ADDAA106000091AG10000GF107991071021004501001001KA1240N+02051MA1999999096751MD1999999+0021REMSYN017 333 20205 58002;
0143832420999991997041212004-12567-041383FM-12+042799999V0200901N00151004201CN0040001N1+02311+02161101421ADDAA124002091AG10003AY161061AY211061GF107991071041004501001001KA1240N+02051MA1999999096581MD1999999-0171MW1031REMSYN023 333 20205 59017 60024;
0096832420999991997041218004-12567-041383FM-12+042799999V0200501N00051220001CN0200001N1+02861+02281100861ADDAA106000091AG10000GF102991021041004501001001MA1999999096081MD1999999-0341REMSYN011 333 59034;
0134832420999991997041300004-12567-041383FM-12+042799999V0201801N00051004201CN9999999N9+02481+02191101101ADDAA106000091AG10000GF107991071051004501001001KA1240M+02921MA1999999096301MD1999999-0221REMSYN017 333 10292 59022;EQDQ01+000002VOVAR 
0143832420999991997041312004-12567-041383FM-12+042799999V0201401N00101220001CN0040001N1+02421+02111101191ADDAA124007091AG10003AY161061AY221061GF104991041071004501001001KA1240N+02101MA1999999096401MD1999999-0181MW1031REMSYN023 333 20210 59018 60074;
0115832420999991997041318004-12567-041383FM-12+042799999V0201401N00051004201CN0200001N1+02841+02381100821ADDAA106000091AG10000GF108991999041004501001001MA1999999096041MD1999999-0041REMSYN011 333 59004;EQDQ01+000062SCOTLC
0134832420999991997041400004-12567-041383FM-12+042799999V0201801N00411004201CN9999999N9+02591+02291101121ADDAA106000091AG10000GF108991081051004501999999KA1240M+02881MA1999999096331MD1999999+0031REMSYN017 333 10288 58003;EQDQ01+000002VOVAR 
0115832420999991997041412004-12567-041383FM-12+042799999V0201801N00101004201CN0040001N1+02321+02181101361ADDAA106000091AG10000GF108991081051004501999999KA1240N+02191MA1999999096551MD1999999+0151REMSYN017 333 20219 58015;
0096832420999991997041418004-12567-041383FM-12+042799999V0201801N00101045001CN0200001N1+02821+02291100901ADDAA106000091AG10000GF107991031031004501061011MA1999999096151MD1999999+0111REMSYN011 333 58011;
0143832420999991997041512004-12567-041383FM-12+042799999V0200901N00051004201CN0040001N1+02241+02171101261ADDAA124052091AG10003AY161061AY221061GF108991081041004501999999KA1240N+01941MA1999999096451MD1999999-0101MW1021REMSYN023 333 20194 59010 60524;
0096832420999991997041518004-12567-041383FM-12+042799999V0201801N00151105001CN0200001N1+02531+02091101151ADDAA106000091AG10000GF105991021041004501061011MA1999999096331MD1999999+0181REMSYN011 333 58018;
0115832420999991997041612004-12567-041383FM-12+042799999V0200901N00261220001CN0100001N1+02421+01971101681ADDAA106000091AG10000GF103991021021004501001091KA1240N+02031MA1999999096841MD1999999+0391REMSYN017 333 20203 58039;
0096832420999991997041618004-12567-041383FM-12+042799999V0201401N00051004201CN0100001N1+02531+02131101261ADDAA106000091AG10000GF107991071041004501001001MA1999999096441MD1999999+0111REMSYN011 333 58011;
0143832420999991997041712004-12567-041383FM-12+042799999V0201801N00101004201CN0040001N1+02151+02061101591ADDAA124002091AG10000AY151061AY221061GF108991081041004501999999KA1240N+01931MA1999999096711MD1999999-0131MW1021REMSYN023 333 20193 59013 60024;
0096832420999991997041718004-12567-041383FM-12+042799999V0201801N00151021001CN0100001N1+02411+02051101251ADDAA106000091AG10000GF108991081001022501071999MA1999999096401MD1999999-0041REMSYN011 333 59004;
0115832420999991997041812004-12567-041383FM-12+042799999V0201401N00101045001CN0100001N1+02421+02051101461ADDAA106000091AG10000GF106991011011004501061001KA1240N+01921MA1999999096631MD1999999-0081REMSYN017 333 20192 59008;
0096832420999991997041818004-12567-041383FM-12+042799999V0200901N00151045001CN0200001N1+02731+02211101031ADDAA106000091AG10000GF107991031031004501061001MA1999999096231MD1999999-0171REMSYN011 333 59017;
0143832420999991997041912004-12567-041383FM-12+042799999V0201401N00101004201CN0040001N1+02331+02201101411ADDAA124004091AG10003AY161061AY221061GF107991071051004501001001KA1240N+02091MA1999999096591MD1999999-0041MW1031REMSYN023 333 20209 59004 60044;
0096832420999991997041918004-12567-041383FM-12+042799999V0202301N00101220001CN0100001N1+02861+02211100891ADDAA106000091AG10000GF102991021021004501001001MA1999999096121MD1999999-0111REMSYN011 333 59011;
0115832420999991997042012004-12567-041383FM-12+042799999V0201801N00211004201CN0100001N1+02381+02151101441ADDAA106000091AG10000GF107991071021004501001001KA1240N+02081MA1999999096621MD1999999+0031REMSYN017 333 20208 58003;
0096832420999991997042018004-12567-041383FM-12+042799999V0201801N00151220001CN0200001N1+02861+02261100921ADDAA106000091AG10000GF102991021011004501001001MA1999999096141MD1999999+0021REMSYN011 333 58002;
0134832420999991997042100004-12567-041383FM-12+042799999V0209991C00001220001CN9999999N9+02341+02151101211ADDAA106000091AG10000GF104991021071004501061001KA1240M+02941MA1999999096401MD1999999-0051REMSYN017 333 10294 59005;EQDQ01+000002VOVAR 
0115832420999991997042112004-12567-041383FM-12+042799999V0200901N00101004201CN0040001N1+02381+02191101391ADDAA106000091AG10000GF107991071021004501001001KA1240N+02131MA1999999096571MD1999999-0051REMSYN017 333 20213 59005;
0096832420999991997042118004-12567-041383FM-12+042799999V0201801N00101220001CN0200001N1+02761+02251100901ADDAA106000091AG10000GF104991031031004501001031MA1999999096121MD1999999-0021REMSYN011 333 59002;
0143832420999991997042212004-12567-041383FM-12+042799999V0201801N00151004201CN0040001N1+02341+02171101331ADDAA124000391AG10000AY151061AY221061GF108991081041004501999999KA1240N+02201MA1999999096511MD1999999-0061MW1021REMSYN023 333 20220 59006 69934;
0096832420999991997042218004-12567-041383FM-12+042799999V0200901N00051004201CN0100001N1+02671+02281100981ADDAA106000091AG10000GF107991071031004501001001MA1999999096181MD1999999+0061REMSYN011 333 58006;
0140832420999991997042300004-12567-041383FM-12+042799999V0200501N00151004201CN9999999N9+02181+02161101151ADDAA106004091AG10000GF107991071041004501001001KA1240M+02721MA1999999096321MD1999999-0111REMSYN023 333 10272 59011 60041;EQDQ01+000002VOVAR 
0143832420999991997042312004-12567-041383FM-12+042799999V0202301N00051004201CN0040001N1+02291+02231101321ADDAA124009091AG10003AY161061AY221061GF108991081051004501999999KA1240N+02121MA1999999096491MD1999999-0021MW1021REMSYN023 333 20212 59002 60094;
0096832420999991997042318004-12567-041383FM-12+042799999V0201801N00101004201CN0100001N1+02641+02311100851ADDAA106000091AG10000GF108991081071004501999999MA1999999096061MD1999999-0121REMSYN011 333 59012;
0134832420999991997042400004-12567-041383FM-12+042799999V0203601N00051045001CN9999999N9+02241+02211101131ADDAA106000091AG10000GF108991041041004501011999KA1240M+02661MA1999999096301MD1999999-0021REMSYN017 333 10266 59002;EQDQ01+000002VOVAR 
0143832420999991997042412004-12567-041383FM-12+042799999V0202301N00101004201CN0040001N1+02321+02201101241ADDAA124000391AG10000AY151061AY221061GF107991071041004501001001KA1240N+02151MA1999999096421MD1999999-0071MW1031REMSYN023 333 20215 59007 69934;
0096832420999991997042418004-12567-041383FM-12+042799999V0201801N00261004201CN0100001N1+02721+02321100771ADDAA106000091AG10000GF106991061031004501001001MA1999999096001MD1999999-0061REMSYN011 333 59006;
0143832420999991997042512004-12567-041383FM-12+042799999V0200901N00051004201CN0040001N1+02261+02181101311ADDAA124005091AG10000AY151061AY221061GF108991081071004501999999KA1240N+02051MA1999999096481MD1999999+0061MW1021REMSYN023 333 20205 58006 60054;
0096832420999991997042518004-12567-041383FM-12+042799999V0200501N00051004201CN0100001N1+02681+02281100851ADDAA106000091AG10000GF107991071031004501001001MA1999999096061MD1999999+0061REMSYN011 333 58006;
0143832420999991997042612004-12567-041383FM-12+042799999V0201801N00101220001CN0040001N1+02301+02221101211ADDAA124000191AG10000AY151061AY241061GF104991021021004501031001KA1240N+01961MA1999999096391MD1999999-0091MW1421REMSYN023 333 20196 59009 69914;
0134832420999991997042700004-12567-041383FM-12+042799999V0203601N00051004201CN9999999N9+02461+02031101111ADDAA106000091AG10000GF106991061071004501001001KA1240M+02991MA1999999096311MD1999999+0081REMSYN017 333 10299 58008;EQDQ01+000002VOVAR 
0143832420999991997042712004-12567-041383FM-12+042799999V0202301N00101004201CN0040001N1+02301+02161101251ADDAA124028091AG10008AY191061AY261061GF108991081071004501999999KA1240N+02071MA1999999096451MD1999999+0061MW1021REMSYN023 333 20207 58006 60284;
0124832420999991997042718004-12567-041383FM-12+042799999V0203601N00101004201CN0040001N1+02521+02091101101ADDAA106000191AG10000AY151061AY221061GF108991081031004501999999MA1999999096291MD1999999+0231MW1021REMSYN017 333 58023 69911;
0143832420999991997042812004-12567-041383FM-12+042799999V0201401N00051004201CN0040001N1+02361+02221101541ADDAA124001091AG10003AY161061AY221061GF108991081041004501999999KA1240N+02091MA1999999096701MD1999999+0251MW1031REMSYN023 333 20209 58025 60014;
0096832420999991997042818004-12567-041383FM-12+042799999V0201801N00211004201CN0100001N1+02751+02231101421ADDAA106000091AG10000GF107991071031004501001001MA1999999096281MD1999999-0011REMSYN011 333 59001;
0162832420999991997042900004-12567-041383FM-12+042799999V0200501N00151004201CN9999999N9+02251+02241101491ADDAA106002091AG10003AY161061AY221061GF108991081051004501999999KA1240M+02781MA1999999096661MD1999999+0161MW1021REMSYN023 333 10278 58016 60021;EQDQ01+000002VOVAR 
0121832420999991997042912004-12567-041383FM-12+042799999V0201401N00101004201CN0040001N1+02451+02171101601ADDAA124002091AG10000GF108991081051004501999999KA1240N+02151MA1999999096771MD1999999+0071REMSYN023 333 20215 58007 60024;
0096832420999991997042918004-12567-041383FM-12+042799999V0202301N00151105001CN0100001N1+02891+02301101051ADDAA106000091AG10000GF105991031031004501001031MA1999999096281MD1999999+0001REMSYN011 333 58000;
0143832420999991997043012004-12567-041383FM-12+042799999V0200901N000510042019N0040001N1+02271+02141101531ADDAA124049091AG10003AY161061AY221061GF107991071071004501001001KA1240N+01991MA1999999096701MD1999999-0071MW1021REMSYN023 333 20199 59007 60494;
0096832420999991997043018004-12567-041383FM-12+042799999V0201801N00311004201CN0100001N1+02781+02231101021ADDAA106000091AG10000GF107991071031004501001001MA1999999096241MD1999999-0041REMSYN011 333 59004;
0143832420999991997050112004-12567-041383FM-12+042799999V0201801N00151004201CN0040001N1+02341+02181101471ADDAA124015091AG10007AY191061AY261061GF108991081061004501999999KA1240N+02151MA1999999096651MD1999999-0051MW1021REMSYN023 333 20215 59005 60154;
0124832420999991997050118004-12567-041383FM-12+042799999V0200501N00151004201CN0040001N1+02421+02251101131ADDAA106001091AG10002AY161061AY221061GF108991081061004501999999MA1999999096301MD1999999+0061MW1201REMSYN017 333 58006 60011;
0143832420999991997050212004-12567-041383FM-12+042799999V0201801N00211004201CN0040001N1+02161+02131101581ADDAA124012091AG10002AY161061AY221061GF108991081061004501999999KA1240N+02071MA1999999096711MD1999999+0061MW1021REMSYN023 333 20207 58006 60124;
0124832420999991997050218004-12567-041383FM-12+042799999V0201801N00151004201CN0040001N1+02641+02231101181ADDAA106001091AG10002AY161061AY221061GF108991081071004501999999MA1999999096361MD1999999+0061MW1201REMSYN017 333 58006 60011;
0162832420999991997050300004-12567-041383FM-12+042799999V0201801N00101004201CN9999999N9+02261+02141101561ADDAA106000391AG10000AY151061AY221061GF108991081051004501999999KA1240M+02661MA1999999096701MD1999999+0081MW1021REMSYN023 333 10266 58008 69931;EQDQ01+000002VOVAR 
0143832420999991997050312004-12567-041383FM-12+042799999V0201801N00151004201CN0040001N1+02141+02061101731ADDAA199002091AG10000AY151061AY221061GF108991081041004501999999KA1240N+02001MA1999999096871MD1999999+0161MW1021REMSYN023 333 20200 58016 60023;
0096832420999991997050318004-12567-041383FM-12+042799999V0202301N00261004201CN0100001N1+02481+02191101411ADDAA106000091AG10000GF107991071071004501001001MA1999999096571MD1999999+0211REMSYN011 333 58021;
0162832420999991997050400004-12567-041383FM-12+042799999V0201801N00101004201CN9999999N9+02111+02101101691ADDAA106009091AG10002AY161061AY221061GF108991081051004501999999KA1240M+02501MA1999999096821MD1999999+0121MW1021REMSYN023 333 10250 58012 60091;EQDQ01+000002VOVAR 
0121832420999991997050412004-12567-041383FM-12+042799999V0201401N00051045001CN0100001N1+02181+02041101741ADDAA124009091AG10000GF107991021041004501031001KA1240N+01991MA1999999096851MD1999999-0021REMSYN023 333 20199 59002 60094;
0096832420999991997050418004-12567-041383FM-12+042799999V0201801N00211220001CN0200001N1+02541+02111101351ADDAA106000091AG10000GF105991021021004501001011MA1999999096511MD1999999-0061REMSYN011 333 59006;
0150832420999991997050500004-12567-041383FM-12+042799999V0209991C00001220001CN9999999N9+02081+01961101571ADDAA106000091AG10000GA1001+999999999GF100991001001999999001001KA1240M+02621MA1999999096701MD1999999-0121REMSYN017 333 10262 59012;EQDQ01+000002VOVAR 
0115832420999991997050512004-12567-041383FM-12+042799999V0201801N00211045001CN0100001N1+02201+01901101591ADDAA106000091AG10000GF106991021011004501061001KA1240N+01861MA1999999096721MD1999999-0131REMSYN017 333 20186 59013;
0096832420999991997050518004-12567-041383FM-12+042799999V0201801N00361004201CN0100001N1+02441+02031101221ADDAA106000091AG10000GF107991071041004501001001MA1999999096411MD1999999-0101REMSYN011 333 59010;
0143832420999991997050612004-12567-041383FM-12+042799999V0201801N00411004201CN0040001N1+02261+01881101691ADDAA106002091AG10000AY151061AY221061GF107991071041004501001001KA1240N+01951MA1999999096831MD1999999+0111MW1021REMSYN023 333 20195 58011 60021;
0096832420999991997050618004-12567-041383FM-12+042799999V0201801N00261045001CN0100001N1+02401+01991101421ADDAA106000091AG10000GF108991041041004501011999MA1999999096571MD1999999+0161REMSYN011 333 58016;
0115832420999991997050712004-12567-041383FM-12+042799999V0201801N00361004201CN0100001N1+02241+01821101781ADDAA106000091AG10000GF105991051021004501001001KA1240N+01881MA1999999096911MD1999999+0081REMSYN017 333 20188 58008;
0096832420999991997050718004-12567-041383FM-12+042799999V0201801N00261004201CN0100001N1+02351+02031101461ADDAA106000091AG10000GF107991071041004501001001MA1999999096601MD1999999+0031REMSYN011 333 58003;
0115832420999991997050812004-12567-041383FM-12+042799999V0201801N00311021001CN0100001N1+02141+01781101811ADDAA106000091AG10000GF108991081001022501021999KA1240N+01831MA1999999096941MD1999999+0031REMSYN017 333 20183 58003;
0096832420999991997050818004-12567-041383FM-12+042799999V0201801N00311021001CN0100001N1+02321+01941101531ADDAA106000091AG10000GF108991081001022501071999MA1999999096661MD1999999+0061REMSYN011 333 58006;
0115832420999991997050912004-12567-041383FM-12+042799999V0201801N00261021001CN0040001N1+02131+01801101881ADDAA106000091AG10000GF108991081001022501011999KA1240N+01981MA1999999097001MD1999999+0061REMSYN017 333 20198 58006;
0096832420999991997050918004-12567-041383FM-12+042799999V0201801N00101021001CN0100001N1+02371+01991101521ADDAA106000091AG10000GF107991071001022501011001MA1999999096671MD1999999+0011REMSYN011 333 58001;
0115832420999991997051012004-12567-041383FM-12+042799999V0201801N00211004201CN0040001N1+02171+01921101781ADDAA106000091AG10000GF108991081041004501999999KA1240N+02001MA1999999096901MD1999999-0101REMSYN017 333 20200 59010;
0096832420999991997051018004-12567-041383FM-12+042799999V0201801N00051004201CN0100001N1+02441+02011101461ADDAA106000091AG10000GF108991081041004501999999MA1999999096621MD1999999-0051REMSYN011 333 59005;
0115832420999991997051112004-12567-041383FM-12+042799999V0201801N00211004201CN0040001N1+02081+01871101801ADDAA106000091AG10000GF107991071041004501001001KA1240N+01971MA1999999096921MD1999999+0021REMSYN017 333 20197 58002;
0096832420999991997051118004-12567-041383FM-12+042799999V0201801N00151004201CN0040001N1+02551+02081101421ADDAA106000091AG10000GF107991071041004501001001MA1999999096581MD1999999-0041REMSYN011 333 59004;
0115832420999991997051212004-12567-041383FM-12+042799999V0201801N00211021001CN0040001N1+02141+01801101691ADDAA106000091AG10000GF107991071001022501051001KA1240N+01991MA1999999096831MD1999999-0091REMSYN017 333 20199 59009;
0096832420999991997051218004-12567-041383FM-12+042799999V0201801N00151220001CN0200001N1+02681+01891101271ADDAA106000091AG10000GF102991011011004501001011MA1999999096461MD1999999-0121REMSYN011 333 59012;
0134832420999991997051300004-12567-041383FM-12+042799999V0209991C00001220001CN9999999N9+02081+01871101491ADDAA106000091AG10000GF101991011011004501001001KA1240M+02701MA1999999096621MD1999999-0141REMSYN017 333 10270 59014;EQDQ01+000002VOVAR 
0115832420999991997051312004-12567-041383FM-12+042799999V0201801N00151220001CN0040001N1+02191+01881101621ADDAA106000091AG10000GF102991021011004501001001KA1240N+01841MA1999999096751MD1999999-0081REMSYN017 333 20184 59008;
0096832420999991997051318004-12567-041383FM-12+042799999V0200901N00151220001CN0200001N1+02781+02061101021ADDAA106000091AG10000GF102991011011004501001051MA1999999096231MD1999999-0231REMSYN011 333 59023;
0115832420999991997051412004-12567-041383FM-12+042799999V0209991C00001220001CN0100001N1+02161+01861101461ADDAA106000091AG10000GF103991021001004501061031KA1240N+01621MA1999999096441MD1999999-0141REMSYN017 333 20162 59014;
0096832420999991997051418004-12567-041383FM-12+042799999V0201801N00151220001CN0200001N1+02921+02141100981ADDAA106000091AG10000GF102991021011004501001001MA1999999096191MD1999999-0041REMSYN011 333 59004;
0154832420999991997051512004-12567-041383FM-12+042799999V0201401N00101004201CN0040001N1+02171+02041101661ADDAA124006091AG10002AY161061GF107991071051004501001001KA1240N+01981MA1999999096801MD1999999+0211MW1021REMSYN023 333 20198 58021 60064;EQDQ01+000072PSTWM1
0096832420999991997051518004-12567-041383FM-12+042799999V0201801N00151004201CN0040001N1+02331+02001101371ADDAA106000091AG10000GF107991071031004501001001MA1999999096511MD1999999+0321REMSYN011 333 58032;
0162832420999991997051600004-12567-041383FM-12+042799999V0200901N00311004201CN9999999N9+02021+01951101631ADDAA106002091AG10002AY161061AY221061GF108991081051004501999999KA1240M+02331MA1999999096751MD1999999+0271MW1021REMSYN023 333 10233 58027 60021;EQDQ01+000002VOVAR 
0134832420999991997051700004-12567-041383FM-12+042799999V0201801N00101004201CN9999999N9+02111+01881101751ADDAA106000091AG10000GF108991081051004501999999KA1240M+02331MA1999999096841MD1999999+0091REMSYN017 333 10233 58009;EQDQ01+000002VOVAR 
0082832420999991997051718004-12567-041383FM-12+042799999V0201801N00311045001CN0100001N1+02471+01941101391ADDAA106000091AG10000GF107991041021004501061001MA1999999096541REMSYN011 333 58///;
0143832420999991997051812004-12567-041383FM-12+042799999V0201801N00311004201CN0040001N1+02101+01891101741ADDAA124000191AG10000AY151061AY241061GF108991081041004501999999KA1240N+01801MA1999999096871MD1999999-0151MW1021REMSYN023 333 20180 59015 69924;
0096832420999991997051818004-12567-041383FM-12+042799999V0201801N00261004201CN0100001N1+02381+01971101301ADDAA106000091AG10000GF107991071031004501001001MA1999999096461MD1999999-0081REMSYN011 333 59008;
0134832420999991997051900004-12567-041383FM-12+042799999V0201801N00101004201CN9999999N9+02181+02011101541ADDAA106000091AG10000GF108991081051004501999999KA1240M+02441MA1999999096681MD1999999-0081REMSYN017 333 10244 59008;EQDQ01+000002VOVAR 
0115832420999991997051912004-12567-041383FM-12+042799999V0201801N00311220001CN0100001N1+02301+01791101651ADDAA106000091AG10000GF102991021011004501001001KA1240N+01981MA1999999096801MD1999999-0071REMSYN017 333 20198 59007;
0096832420999991997051918004-12567-041383FM-12+042799999V0201801N00051004201CN0100001N1+02461+02071101251ADDAA106000091AG10000GF108991081031004501999999MA1999999096421MD1999999-0041REMSYN011 333 59004;
0143832420999991997052012004-12567-041383FM-12+042799999V0201801N00151004201CN0040001N1+02181+02041101611ADDAA124001091AG10002AY161061AY221061GF108991081071004501999999KA1240N+02031MA1999999096741MD1999999-0061MW1401REMSYN023 333 20203 59006 60014;
0124832420999991997052018004-12567-041383FM-12+042799999V0201801N00151045001CN0100001N1+02541+02191101171ADDAA106001091AG10002AY161061AY221061GF105991031031004501061001MA1999999096341MD1999999-0081MW1031REMSYN017 333 59008 60011;
0162832420999991997052100004-12567-041383FM-12+042799999V0201801N00101004201CN9999999N9+02141+02111101461ADDAA106001091AG10002AY161061AY221061GF108991081051004501999999KA1240M+02641MA1999999096601MD1999999-0041MW1021REMSYN023 333 10264 59004 69981;EQDQ01+000002VOVAR 
0143832420999991997052112004-12567-041383FM-12+042799999V0201401N00151004201CN0040001N1+02171+02041101521ADDAA124004091AG10002AY161061AY221061GF108991081061004501999999KA1240N+02001MA1999999096661MD1999999-0081MW1151REMSYN023 333 20200 59008 60044;
0124832420999991997052118004-12567-041383FM-12+042799999V0201801N00101220001CN0100001N1+02501+02131101151ADDAA106000191AG10000AY151061AY221061GF104991041021004501001001MA1999999096321MD1999999-0021MW1031REMSYN017 333 59002 69911;
0143832420999991997052212004-12567-041383FM-12+042799999V0201401N00261004201CN0100001N1+02171+02031101661ADDAA124006091AG10002AY161061AY221061GF107991071021004501001001KA1240N+01991MA1999999096801MD1999999+0141MW1031REMSYN023 333 20199 58014 60064;
0124832420999991997052218004-12567-041383FM-12+042799999V0201801N00051004201CN0040001N1+02381+02191101301ADDAA106001091AG10002AY161061AY221061GF107991071071004501001001MA1999999096461MD1999999+0141MW1151REMSYN017 333 58014 69971;
0143832420999991997052312004-12567-041383FM-12+042799999V0201801N00311004201CN0040001N1+02141+02021101771ADDAA124001091AG10000AY151061AY211061GF108991081061004501999999KA1240N+01921MA1999999096891MD1999999+0091MW1021REMSYN023 333 20192 58009 69994;
0096832420999991997052318004-12567-041383FM-12+042799999V0201801N00211004201CN0040001N1+02451+02151101331ADDAA106000091AG10000GF107991071071004501001001MA1999999096491MD1999999+0031REMSYN011 333 58003;
0121832420999991997052412004-12567-041383FM-12+042799999V0201801N00311021001CN0100001N1+02201+01761101691ADDAA124002091AG10000GF107991071001022501021001KA1240N+01801MA1999999096831MD1999999-0061REMSYN023 333 20180 59006 60024;
0096832420999991997052418004-12567-041383FM-12+042799999V0201801N00151045001CN0100001N1+02391+02051101391ADDAA106000091AG10000GF106991031031004501061001MA1999999096521MD1999999+0031REMSYN011 333 58003;
0143832420999991997052512004-12567-041383FM-12+042799999V0201801N00051004201CN0040001N1+02081+02031101691ADDAA124004091AG10002AY161061AY221061GF108991081041004501999999KA1240N+01931MA1999999096801MD1999999-0031MW1031REMSYN023 333 20193 59003 60044;
0143832420999991997052612004-12567-041383FM-12+042799999V0201801N00151004201CN0040001N1+02051+01991101611ADDAA124000591AG10000AY151061AY221061GF108991081061004501999999KA1240N+01871MA1999999096721MD1999999-0081MW1021REMSYN023 333 20187 59008 69954;
0150832420999991997052700004-12567-041383FM-12+042799999V0203601N00101220001CN9999999N9+02021+01941101501ADDAA106000091AG10000GA1001+999999999GF100991001001999999001001KA1240M+02601MA1999999096621MD1999999-0051REMSYN017 333 10260 59005;EQDQ01+000002VOVAR 
0143832420999991997052712004-12567-041383FM-12+042799999V0201801N00101004201CN0040001N1+02061+01931101811ADDAA124002091AG10002AY161061AY241061GF107991071041004501001001KA1240N+01871MA1999999096911MD1999999+0191MW1031REMSYN023 333 20187 58019 60024;
0096832420999991997052718004-12567-041383FM-12+042799999V0201801N00261220001CN0100001N1+02521+02001101391ADDAA106000091AG10000GF102991021021004501001001MA1999999096541MD1999999+0171REMSYN011 333 58017;
0115832420999991997052812004-12567-041383FM-12+042799999V0201801N00211220001CN0100001N1+02191+01781101751ADDAA106000091AG10000GF102991011011004501001091KA1240N+01771MA1999999096881MD1999999-0031REMSYN017 333 20177 59003;
0096832420999991997052818004-12567-041383FM-12+042799999V0201801N00261220001CN0200001N1+02601+01921101341ADDAA106000091AG10000GF103991021011004501001011MA1999999096511MD1999999-0031REMSYN011 333 59003;
0143832420999991997052912004-12567-041383FM-12+042799999V0201801N00101004201CN0040001N1+02201+01971101641ADDAA124000191AG10000AY151061AY221061GF107991071021004501001001KA1240N+01981MA1999999096761MD1999999-0121MW1031REMSYN023 333 20198 59012 69914;
0096832420999991997052918004-12567-041383FM-12+042799999V0201401N00151220001CN0200001N1+02771+02041101121ADDAA106000091AG10000GF101991011011004501001001MA1999999096321MD1999999-0191REMSYN011 333 59019;
0115832420999991997053012004-12567-041383FM-12+042799999V0201801N00101220001CN0100001N1+01981+01851101561ADDAA106000091AG10000GF104991011011004501001011KA1240N+01591MA1999999096681MD1999999-0081REMSYN017 333 20159 59008;
0096832420999991997053018004-12567-041383FM-12+042799999V0201401N00101220001CN0200001N1+02801+02031101131ADDAA106000091AG10000GF102991011011004501001011MA1999999096301MD1999999-0021REMSYN011 333 59002;
0115832420999991997053112004-12567-041383FM-12+042799999V0202701N00051220001CN0040001N1+01981+99999101761ADDAA106000091AG10000GF102991021021004501001001KA1240N+01741MA1999999096871MD1999999+0191REMSYN017 333 20174 58019;
0096832420999991997053118004-12567-041383FM-12+042799999V0201401N00151220001CN0200001N1+02691+02011101231ADDAA106000091AG10000GF102991021011004501001001MA1999999096401MD1999999+0101REMSYN011 333 58010;
0115832420999991997060112004-12567-041383FM-12+042799999V0202701N00051004201CN0040001N1+02161+01861101711ADDAA106000091AG10000GF107991071041004501001001KA1240N+01921MA1999999096831MD1999999-0041REMSYN017 333 20192 59004;
0096832420999991997060118004-12567-041383FM-12+042799999V0200501N00101220001CN0200001N1+02661+02021101221ADDAA106000091AG10000GF102991021011004501001001MA1999999096411MD1999999+0011REMSYN011 333 58001;
0115832420999991997060212004-12567-041383FM-12+042799999V0201801N00151004201CN0040001N1+02201+01781101791ADDAA106000091AG10000GF107991071041004501001001KA1240N+01781MA1999999096921MD1999999+0091REMSYN017 333 20178 58009;
0096832420999991997060218004-12567-041383FM-12+042799999V0201401N00151220001CN0200001N1+02521+01961101361ADDAA106000091AG10000GF102991021011004501001001MA1999999096531MD1999999+0121REMSYN011 333 58012;
0115832420999991997060312004-12567-041383FM-12+042799999V0203601N00101004201CN0040001N1+02021+01761101781ADDAA106000091AG10000GF108991081041004501999999KA1240N+01871MA1999999096881MD1999999-0041REMSYN017 333 20187 59004;
0096832420999991997060318004-12567-041383FM-12+042799999V0201401N00101220001CN0100001N1+02461+01971101361ADDAA106000091AG10000GF102991021021004501001001MA1999999096511MD1999999-0021REMSYN011 333 59002;
0150832420999991997060400004-12567-041383FM-12+042799999V0209991C00001220001CN9999999N9+01981+01901101531ADDAA106000091AG10000GA1001+999999999GF100991001001999999001001KA1240M+02561MA1999999096641MD1999999-0111REMSYN017 333 10256 59011;EQDQ01+000002VOVAR 
0115832420999991997060412004-12567-041383FM-12+042799999V0201801N00101004201CN0040001N1+02081+01841101651ADDAA106000091AG10000GF108991081061004501999999KA1240N+01931MA1999999096761MD1999999-0121REMSYN017 333 20193 59012;
0096832420999991997060418004-12567-041383FM-12+042799999V0201401N00151004201CN0100001N1+02561+02021101151ADDAA106000091AG10000GF107991071041004501001001MA1999999096321MD1999999-0191REMSYN011 333 59019;
0143832420999991997060512004-12567-041383FM-12+042799999V0202301N00101004201CN0040001N1+02171+02041101431ADDAA124000191AG10000AY151061AY221061GF108991081061004501999999KA1240N+01911MA1999999096561MD1999999-0201MW1021REMSYN023 333 20191 59020 69914;
0096832420999991997060518004-12567-041383FM-12+042799999V0202301N00101220001CN0200001N1+02701+02081100921ADDAA106000091AG10000GF102991011021004501001011MA1999999096121MD1999999-0201REMSYN011 333 59020;
0115832420999991997060612004-12567-041383FM-12+042799999V0201801N00151220001CN0100001N1+02201+02031101181ADDAA106000091AG10000GF102991011011004501001011KA1240N+01841MA1999999096331MD1999999-0231REMSYN017 333 20184 59023;
0115832420999991997060712004-12567-041383FM-12+042799999V0201801N00101105001CN0200001N1+02411+02111100801ADDAA106000091AG10000GF108991001001999999001071KA1240N+01941MA1999999096031MD1999999-0301REMSYN017 333 20194 59030;
0096832420999991997060718004-12567-041383FM-12+042799999V0201801N00211220001CN0200001N1+03261+02211100271ADDAA106000091AG10000GF103991031021004501001001MA1999999095561MD1999999-0121REMSYN011 333 59012;
0115832420999991997060812004-12567-041383FM-12+042799999V0201801N00051004201CN0040001N1+02261+02161101011ADDAA106000091AG10000GF107991071041004501001001KA1240N+02091MA1999999096221MD1999999+0191REMSYN017 333 20209 58019;
0096832420999991997060818004-12567-041383FM-12+042799999V0201801N00101004201CN0100001N1+02811+02401100601ADDAA106000091AG10000GF107991071031004501001001MA1999999095851MD1999999+0291REMSYN011 333 58029;
0134832420999991997060900004-12567-041383FM-12+042799999V0200901N00051220001CN9999999N9+02321+02151100981ADDAA106000091AG10000GF102991021031004501001001KA1240M+02911MA1999999096171MD1999999+0231REMSYN017 333 10291 58023;EQDQ01+000002VOVAR 
0143832420999991997060912004-12567-041383FM-12+042799999V0201401N00101045001CN0100001N1+02331+02151101301ADDAA124000391AG10000AY151061AY211061GF106991011021004501061001KA1240N+02061MA1999999096491MD1999999+0271MW1031REMSYN023 333 20206 58027 69934;
0062832420999991997060918004-12567-041383FM-12+042799999V0201801N001519999999N0100001N1+02681+02281101071ADDAA106000091AG10000GF107991999999004501999999MA1999999096281
0162832420999991997061000004-12567-041383FM-12+042799999V0201801N00211004201CN9999999N9+02081+02051101501ADDAA106001091AG10006AY191061AY261061GF108991081071004501999999KA1240M+02911MA1999999096651MD1999999+0481MW1131REMSYN023 333 10291 58048 69991;EQDQ01+000002VOVAR 
0143832420999991997061012004-12567-041383FM-12+042799999V0201801N00101004201CN0020001N1+02041+01971101841ADDAA124015091AG10006AY191061AY261061GF108991081061004501999999KA1240N+01951MA1999999096941MD1999999+0451MW1401REMSYN023 333 20195 58045 60154;
0135832420999991997061018004-12567-041383FM-12+042799999V0201801N00151004201CN0010001N1+02131+02121101641ADDAA106999929AG10002AY121061GF108991081061004501999999MA1999999096741MD1999999+0461MW1401REMSYN017 333 58046 69901;EQDQ01+000072PSTWM1
0096832420999991997061118004-12567-041383FM-12+042799999V0201801N00101004201CN0040001N1+02291+02031101641ADDAA106000091AG10000GF108991081061004501999999MA1999999096761MD1999999+0021REMSYN011 333 58002;
0134832420999991997061200004-12567-041383FM-12+042799999V0200901N00101004201CN9999999N9+02101+02051101731ADDAA106000091AG10000GF108991081061004501999999KA1240M+02321MA1999999096841MD1999999-0051REMSYN017 333 10232 59005;EQDQ01+000002VOVAR 
0143832420999991997061212004-12567-041383FM-12+042799999V0201801N00051004201CN0040001N1+02131+02001101731ADDAA124000591AG10002AY161061AY221061GF107991071071004501001001KA1240N+01961MA1999999096891MD1999999-0161MW1031REMSYN023 333 20196 59016 69964;
0096832420999991997061218004-12567-041383FM-12+042799999V0201801N00101004201CN0040001N1+02471+02091101421ADDAA106000091AG10000GF108991081031004501999999MA1999999096581MD1999999-0181REMSYN011 333 59018;
0143832420999991997061312004-12567-041383FM-12+042799999V0200901N00151004201CN0040001N1+02121+02041101761ADDAA124000391AG10000AY151061AY221061GF108991081061004501999999KA1240N+02031MA1999999096891MD1999999+0001MW1401REMSYN023 333 20203 58000 69934;
0124832420999991997061318004-12567-041383FM-12+042799999V0202301N00211004201CN0040001N1+02341+02031101451ADDAA106001091AG10002AY161061AY221061GF107991071031004501001001MA1999999096601MD1999999+0021MW1021REMSYN017 333 58002 69991;
0125832420999991997061412004-12567-041383FM-12+042799999V0201801N00101004201CN0040001N1+02141+01971101641ADDAA124001091AG10000GF106991061021004501001001IA1029IA2999+01309KA1240N+01811MA1999999096761REMSYN023 333 20181 39013 69994;
0096832420999991997061418004-12567-041383FM-12+042799999V0200501N00151220001CN0100001N1+02671+02041101281ADDAA106000091AG10000GF102991021021004501001001MA1999999096441MD1999999-0161REMSYN011 333 59016;
0115832420999991997061512004-12567-041383FM-12+042799999V0201401N00101220001CN0040001N1+02221+01961101661ADDAA106000091AG10000GF103991031021004501001001KA1240N+01791MA1999999096781MD1999999+0021REMSYN017 333 20179 58002;
0096832420999991997061518004-12567-041383FM-12+042799999V0202301N00101105001CN0200001N1+02681+02021101211ADDAA106000091AG10000GF106991021011004501001021MA1999999096371MD1999999-0071REMSYN011 333 59007;
0115832420999991997061612004-12567-041383FM-12+042799999V0201801N00051004201CN0100001N1+02131+01931101611ADDAA106000091AG10000GF107991071041004501001001KA1240N+01911MA1999999096711MD1999999-0071REMSYN017 333 20191 59007;
0096832420999991997061618004-12567-041383FM-12+042799999V0201401N00151220001CN0200001N1+02831+02041101061ADDAA106000091AG10000GF102991021011004501001001MA1999999096261MD1999999-0111REMSYN011 333 59011;
0143832420999991997061712004-12567-041383FM-12+042799999V0202301N00051220001CN0100001N1+02261+01991101641ADDAA124000191AG10000AY151061AY221061GF104991041021004501001001KA1240N+01911MA1999999096791MD1999999+0081MW1011REMSYN023 333 20191 58008 69914;
0096832420999991997061718004-12567-041383FM-12+042799999V0200501N00151105001CN0200001N1+02801+02181101231ADDAA106000091AG10000GF107991011031004501001031MA1999999096421MD1999999+0161REMSYN011 333 58016;
0115832420999991997061812004-12567-041383FM-12+042799999V0202301N00051220001CN0020001N1+02081+01911101711ADDAA106000091AG10000GF104991021021004501061001KA1240N+01841MA1999999096831MD1999999+0041REMSYN017 333 20184 58004;
0143832420999991997061912004-12567-041383FM-12+042799999V0201601N00101004201CN0020001N1+02061+01961101701ADDAA124000591AG10002AY161061AY221061GF108991081071004501999999KA1240N+01911MA1999999096831MD1999999+0001MW1401REMSYN023 333 20191 58000 69964;
0124832420999991997061918004-12567-041383FM-12+042799999V0202301N00211004201CN0040001N1+02181+02011101341ADDAA106001091AG10002AY161061AY221061GF107991071061004501001001MA1999999096521MD1999999+0061MW1021REMSYN017 333 58006 60011;
0154832420999991997062012004-12567-041383FM-12+042799999V0202301N00101220001CN0040001N1+02061+01891101731ADDAA124999929AG10002AY121061GF104991041021004501001001KA1240N+01761MA1999999096831MD1999999+0001MW1031REMSYN023 333 20176 58000 69904;EQDQ01+000072PSTWM1
0096832420999991997062018004-12567-041383FM-12+042799999V0201401N00101004201CN0100001N1+02351+02011101371ADDAA106000091AG10000GF108991081041004501999999MA1999999096511MD1999999-0011REMSYN011 333 59001;
0143832420999991997062112004-12567-041383FM-12+042799999V0201801N00211004201CN0010001N1+02051+01961101701ADDAA124001091AG10002AY161061AY241061GF108991081071004501999999KA1240N+01981MA1999999096821MD1999999-0011MW1401REMSYN023 333 20198 59001 69974;
0096832420999991997062118004-12567-041383FM-12+042799999V0201801N00051004201CN0100001N1+02621+02161101211ADDAA106000091AG10000GF105991051021004501001001MA1999999096401MD1999999-0111REMSYN011 333 59011;
0134832420999991997062200004-12567-041383FM-12+042799999V0202701N00051004201CN9999999N9+02201+02131101481ADDAA106000091AG10000GF107991071051004501001001KA1240M+02641MA1999999096621MD1999999+0001REMSYN017 333 10264 58000;EQDQ01+000002VOVAR 
0115832420999991997062212004-12567-041383FM-12+042799999V0200901N00051045001CN0100001N1+02141+01801101761ADDAA106000091AG10000GF105991041021004501061001KA1240N+01961MA1999999096891MD1999999+0071REMSYN017 333 20196 58007;
0096832420999991997062218004-12567-041383FM-12+042799999V0201801N00261220001CN0200001N1+02581+01821101341ADDAA106000091AG10000GF102991021011004501001001MA1999999096521MD1999999+0121REMSYN011 333 58012;
0115832420999991997062312004-12567-041383FM-12+042799999V0202301N00211004201CN0040001N1+02151+01701101691ADDAA106000091AG10000GF105991051021004501001001KA1240N+01851MA1999999096801MD1999999-0091REMSYN017 333 20185 59009;
0096832420999991997062318004-12567-041383FM-12+042799999V0202301N00211220001CN0200001N1+02561+01641101321ADDAA106000091AG10000GF102991011011004501061001MA1999999096491MD1999999-0031REMSYN011 333 59003;
0115832420999991997062412004-12567-041383FM-12+042799999V0201601N00151004201CN0100001N1+02121+01761101611ADDAA106000091AG10000GF107991071021004501001001KA1240N+01551MA1999999096721MD1999999-0081REMSYN017 333 20155 59008;
0096832420999991997062418004-12567-041383FM-12+042799999V0201801N00151220001CN0200001N1+02561+01731101271ADDAA106000091AG10000GF102991021011004501001001MA1999999096411MD1999999-0081REMSYN011 333 59008;
0115832420999991997062512004-12567-041383FM-12+042799999V0201801N00051004201CN0020001N1+01861+01681101561ADDAA106000091AG10000GF107991071041004501001001KA1240N+01361MA1999999096641MD1999999-0081REMSYN017 333 20136 59008;
0096832420999991997062518004-12567-041383FM-12+042799999V0200901N00151105001CN0200001N1+02611+01861101171ADDAA106000091AG10000GF108991011011004501001071MA1999999096281MD1999999-0131REMSYN011 333 59013;
0115832420999991997062612004-12567-041383FM-12+042799999V0200501N00211105001CN0100001N1+02061+01661101541ADDAA106000091AG10000GF108991011011004501001071KA1240N+01451MA1999999096641MD1999999+0001REMSYN017 333 20145 58000;
0096832420999991997062618004-12567-041383FM-12+042799999V0201401N00101220001CN0200001N1+02631+01601101221ADDAA106000091AG10000GF101991011011004501001001MA1999999096341MD1999999+0061REMSYN011 333 58006;
0115832420999991997062712004-12567-041383FM-12+042799999V0201801N00101105001CN0100001N1+01751+01561101581ADDAA106000091AG10000GF108991011011004501001071KA1240N+01281MA1999999096661MD1999999+0021REMSYN017 333 20128 58002;
0096832420999991997062718004-12567-041383FM-12+042799999V0201401N00101220001CN0200001N1+02791+01921101181ADDAA106000091AG10000GF101991011031004501001001MA1999999096311MD1999999-0031REMSYN011 333 59003;
0150832420999991997062800004-12567-041383FM-12+042799999V0200901N00151220001CN9999999N9+02001+01701101381ADDAA106000091AG10000GA1001+999999999GF100991001001999999001001KA1240M+02781MA1999999096481MD1999999+0001REMSYN017 333 10278 58000;EQDQ01+000002VOVAR 
0115832420999991997062812004-12567-041383FM-12+042799999V0202301N00151004201CN0040001N1+02191+01901101681ADDAA106000091AG10000GF107991071021004501001001KA1240N+01781MA1999999096801MD1999999+0141REMSYN017 333 20178 58014;
0096832420999991997062818004-12567-041383FM-12+042799999V0201601N00101220001CN0200001N1+02721+01791101331ADDAA106000091AG10000GF102991021011004501001001MA1999999096501MD1999999+0191REMSYN011 333 58019;
0150832420999991997062900004-12567-041383FM-12+042799999V0203601N00051220001CN9999999N9+01961+01591101561ADDAA106000091AG10000GA1001+999999999GF100991001001999999001001KA1240M+02781MA1999999096691MD1999999+0211REMSYN017 333 10278 58021;EQDQ01+000002VOVAR 
0115832420999991997062912004-12567-041383FM-12+042799999V0201401N00101220001CN0100001N1+02001+01641101901ADDAA106000091AG10000GF102991021021004501001001KA1240N+01431MA1999999096991MD1999999+0191REMSYN017 333 20143 58019;
0096832420999991997062918004-12567-041383FM-12+042799999V0201401N00101220001CN0200001N1+02651+02001101451ADDAA106000091AG10000GF102991021031004501001001MA1999999096991MD1999999+0081REMSYN011 333 58008;
0150832420999991997063000004-12567-041383FM-12+042799999V0209991C00001220001CN9999999N9+02011+01831101671ADDAA106000091AG10000GA1001+999999999GF100991001001999999001001KA1240M+02701MA1999999096771MD1999999+0081REMSYN017 333 10270 58008;EQDQ01+000002VOVAR 
0115832420999991997063012004-12567-041383FM-12+042799999V0201801N00101004201CN0040001N1+02041+01851101831ADDAA106000091AG10000GF108991081031004501999999KA1240N+01821MA1999999096931MD1999999-0061REMSYN017 333 20182 59006;
0096832420999991997063018004-12567-041383FM-12+042799999V0201801N00101220001CN0200001N1+02631+02001101361ADDAA106000091AG10000GF101991011011004501001001MA1999999096511MD1999999-0071REMSYN011 333 59007;
0150832420999991997070100004-12567-041383FM-12+042799999V0203601N00151220001CN9999999N9+01981+01781101471ADDAA106000091AG10000GA1001+999999999GF100991001001999999001001KA1240M+02691MA1999999096581MD1999999-0191REMSYN017 333 10269 59019;EQDQ01+000002VOVAR 
0115832420999991997070112004-12567-041383FM-12+042799999V0200901N00051004201CN0020001N1+02081+01911101801ADDAA106000091AG10000GF108991081041004501999999KA1240N+01891MA1999999096901MD1999999-0031REMSYN017 333 20189 59003;
0096832420999991997070118004-12567-041383FM-12+042799999V0201601N00211220001CN0100001N1+02561+01931101301ADDAA106000091AG10000GF102991021031004501001001MA1999999096471MD1999999-0041REMSYN011 333 59004;
0115832420999991997070212004-12567-041383FM-12+042799999V0201801N00261045001CN0040001N1+02241+01841101791ADDAA106000091AG10000GF106991021041004501061001KA1240N+01931MA1999999096921MD1999999+0021REMSYN017 333 20193 58002;
0096832420999991997070218004-12567-041383FM-12+042799999V0201801N00261220001CN0200001N1+02421+01911101431ADDAA106000091AG10000GF102991011011004501061001MA1999999096591MD1999999+0121REMSYN011 333 58012;
0140832420999991997070300004-12567-041383FM-12+042799999V0200901N001519999999N9999999N9+02121+01951101711ADDAA106000191AG10000GF108991081051999999999999KA1240M+02501MA1999999096851MD1999999+0101REMSYN023 333 10250 58010 69911;EQDQ01+000002VOVAR 
0121832420999991997070312004-12567-041383FM-12+042799999V0201801N00101220001CN0100001N1+02141+01801101871ADDAA124000191AG10000GF102991021021004501001001KA1240N+01871MA1999999096991MD1999999+0071REMSYN023 333 20187 58007 69914;
0096832420999991997070318004-12567-041383FM-12+042799999V0202301N00211105001CN0200001N1+02571+01611101381ADDAA106000091AG10000GF108991001001999999001071MA1999999096551MD1999999-0041REMSYN011 333 59004;
0150832420999991997070400004-12567-041383FM-12+042799999V0200901N00051220001CN9999999N9+01851+01641101691ADDAA106000091AG10000GA1001+999999999GF100991001001999999001001KA1240M+02641MA1999999096791MD1999999-0061REMSYN017 333 10264 59006;EQDQ01+000002VOVAR 
0115832420999991997070412004-12567-041383FM-12+042799999V0201801N00101004201CN0040001N1+02001+01761101951ADDAA106000091AG10000GF107991071021004501001001KA1240N+01661MA1999999097031MD1999999+0041REMSYN017 333 20166 58004;
0096832420999991997070418004-12567-041383FM-12+042799999V0201601N00211220001CN0200001N1+02621+01861101451ADDAA106000091AG10000GF101991011011004501001001MA1999999096591MD1999999+0041REMSYN011 333 58004;
0150832420999991997070500004-12567-041383FM-12+042799999V0203601N00101220001CN9999999N9+02001+01811101691ADDAA106000091AG10000GA1001+999999999GF100991001001999999001001KA1240M+02641MA1999999096791MD1999999+0001REMSYN017 333 10264 58000;EQDQ01+000002VOVAR 
0115832420999991997070512004-12567-041383FM-12+042799999V0201601N00101220001CN0040001N1+01921+01681101901ADDAA106000091AG10000GF102991021011004501001001KA1240N+01551MA1999999096981MD1999999-0051REMSYN017 333 20155 59005;
0150832420999991997070600004-12567-041383FM-12+042799999V0201801N00101220001CN9999999N9+02101+01701101741ADDAA106000091AG10000GA1001+999999999GF100991001001999999001001KA1240M+02621MA1999999096841MD1999999+0051REMSYN017 333 10262 58005;EQDQ01+000002VOVAR 
0154832420999991997070612004-12567-041383FM-12+042799999V0201801N00151004201CN0020001N1+01841+01781101841ADDAA124002091AG10002AY161061GF108991081071004501999999KA1240N+01681MA1999999096921MD1999999-0061MW1401REMSYN023 333 20168 59006 60024;EQDQ01+000072PSTWM1
