0162833390999991997010100004-14050-042617FM-12+088299999V0202301N00101004201CN9999999N9+02101+01741100821ADDAA106000191AG10003AY161061AY221061GF108991061021004501021999KA1240M+02681MA1999999091111MD1999999-0101MW1021REMSYN023 333 10268 59010 69921;EQDQ01+000002VOVAR 
0143833390999991997010112004-14050-042617FM-12+088299999V0200501N00151004201CN0200001N1+02261+02051101031ADDAA124033091AG10003AY161061AY221061GF106991061021004501001001KA1240N+01931MA1999999091321MD1999999-0011MW1021REMSYN023 333 20193 59001 60334;
0102833390999991997010118004-14050-042617FM-12+088299999V0200901N002610042019N0040001N1+02601+02011100661ADDAA106000191AG10000GF108991051021004501021999MA1999999090991MD1999999+0021REMSYN017 333 58002 69921;
0162833390999991997010200004-14050-042617FM-12+088299999V0202701N00101045001CN9999999N9+02041+01921100991ADDAA106009091AG10003AY161061AY221061GF108991041021004501021999KA1240M+02601MA1999999091271MD1999999+0161MW1401REMSYN023 333 10260 58016 60091;EQDQ01+000002VOVAR 
0143833390999991997010212004-14050-042617FM-12+088299999V0200901N00311004201CN0200001N1+02281+02071101061ADDAA124012091AG10003AY161061AY261061GF106991061021004501001001KA1240N+01941MA1999999091341MD1999999+0021MW1021REMSYN023 333 20194 58002 60124;
0124833390999991997010218004-14050-042617FM-12+088299999V0202301N00101004201CN0200001N1+02281+02011100711ADDAA106000191AG10003AY161061AY221061GF108991051021004501021999MA1999999091021MD1999999+0031MW1171REMSYN017 333 58003 69921;
0156833390999991997010300004-14050-042617FM-12+088299999V0202701N00311004201CN9999999N9+02201+01941101061ADDAA106000091AG10010AY191061AY221061GF108991061021004501021999KA1240M+02681MA1999999091351MD1999999+0071MW1171REMSYN017 333 10268 58007;EQDQ01+000002VOVAR 
0143833390999991997010312004-14050-042617FM-12+088299999V0200501N00101004201CN0200001N1+02261+02051101201ADDAA124000191AG10003AY161061AY221061GF106991061021004501001001KA1240N+02041MA1999999091481MD1999999+0141MW1021REMSYN023 333 20204 58014 69924;
0124833390999991997010318004-14050-042617FM-12+088299999V0200501N00151004201CN0200001N1+02081+01961100851ADDAA106003091AG10003AY161061AY221061GF108991051021004501021999MA1999999091141MD1999999+0121MW1021REMSYN017 333 58012 60031;
0162833390999991997010400004-14050-042617FM-12+088299999V0209991C00001045001CN9999999N9+02201+01931101051ADDAA106001091AG10003AY161061AY241061GF108991041021004501021999KA1240M+02621MA1999999091331MD1999999-0021MW1401REMSYN023 333 10262 59002 60011;EQDQ01+000002VOVAR 
0143833390999991997010412004-14050-042617FM-12+088299999V0200901N00311004201CN0200001N1+02201+02031101141ADDAA124004091AG10003AY161061AY241061GF108991051021004501021999KA1240N+01961MA1999999091421MD1999999-0061MW1021REMSYN023 333 20196 59006 60044;
0124833390999991997010418004-14050-042617FM-12+088299999V0201401N00151004201CN0200001N1+02381+02211100831ADDAA106004091AG10003AY161061AY221061GF108991061021004501021999MA1999999091131MD1999999-0011MW1021REMSYN017 333 59001 60041;
0134833390999991997010500004-14050-042617FM-12+088299999V0209991C00001004201CN9999999N9+02181+02061101021ADDAA106000091AG10000GF106991061021004501001001KA1240M+02591MA1999999091311MD1999999-0021REMSYN017 333 10259 59002;EQDQ01+000002VOVAR 
0143833390999991997010512004-14050-042617FM-12+088299999V0200901N00211004201CN0200001N1+02311+02001101111ADDAA124004091AG10003AY161061AY221061GF106991061021004501001001KA1240N+02021MA1999999091401MD1999999-0021MW1021REMSYN023 333 20202 59002 60044;
0124833390999991997010518004-14050-042617FM-12+088299999V0201801N00101004201CN0200001N1+02261+02141100841ADDAA106018091AG10010AY191061AY261061GF108991051021004501021999MA1999999091141MD1999999+0011MW1021REMSYN017 333 58001 60181;
0134833390999991997010600004-14050-042617FM-12+088299999V0209991C00001220001CN9999999N9+02271+01981100991ADDAA106000091AG10000GF103991031021004501001001KA1240M+02701MA1999999091301MD1999999-0011REMSYN017 333 10270 59001;EQDQ01+000002VOVAR 
0143833390999991997010612004-14050-042617FM-12+088299999V0201401N00511004201CN0200001N1+02401+02091101201ADDAA124018091AG10003AY161061AY261061GF106991061021004501001001KA1240N+01981MA1999999091501MD1999999+0101MW1101REMSYN023 333 20198 58010 60184;
0096833390999991997010618004-14050-042617FM-12+088299999V0201401N00051220001CN0200001N1+02841+01911100831ADDAA106000091AG10000GF104991041021004501001001MA1999999091191MD1999999+0051REMSYN011 333 58005;
0156833390999991997010700004-14050-042617FM-12+088299999V0201801N00101004201CN9999999N9+02421+02011101121ADDAA106000091AG10000AY101061AY201061GF106991051021004501021001KA1240M+02891MA1999999091441MD1999999+0141MW1171REMSYN017 333 10289 58014;EQDQ01+000002VOVAR 
0137833390999991997010712004-14050-042617FM-12+088299999V0200901N00671004201CN0200001N1+02261+01991101311ADDAA106000091AG10010AY191061AY201061GF106991061021004501001001KA1240N+02061MA1999999091601MD1999999+0101MW1101REMSYN017 333 20206 58010;
0096833390999991997010718004-14050-042617FM-12+088299999V0201401N00771220001CN0200001N1+02701+01781101021ADDAA106000091AG10000GF102991021021004501001001MA1999999091351MD1999999+0161REMSYN011 333 58016;
0150833390999991997010800004-14050-042617FM-12+088299999V0201401N00621220001CN9999999N9+02441+01641101081ADDAA106000091AG10000GA1001+999999999GF100991001001999999001001KA1240M+02721MA1999999091391MD1999999-0051REMSYN017 333 10272 59005;EQDQ01+000002VOVAR 
0115833390999991997010812004-14050-042617FM-12+088299999V0201401N00151004201CN0200001N1+02121+01721101331ADDAA106000091AG10000GF105991051021004501001001KA1240N+01821MA1999999091611MD1999999+0011REMSYN017 333 20182 58001;
0096833390999991997010818004-14050-042617FM-12+088299999V0201401N00621220001CN0200001N1+02581+01461101141ADDAA106000091AG10000GF102991021021004501001001MA1999999091441MD1999999+0091REMSYN011 333 58009;
0156833390999991997010900004-14050-042617FM-12+088299999V0201401N00571220001CN9999999N9+02191+01861101231ADDAA106000091AG10000AY101061AY201061GF102991021021004501001001KA1240M+02621MA1999999091491MD1999999+0101MW1101REMSYN017 333 10262 58010;EQDQ01+000002VOVAR 
0137833390999991997010912004-14050-042617FM-12+088299999V0201401N00461004201CN0200001N1+02171+01801101351ADDAA106000091AG10000AY101061AY201061GF106991061021004501001001KA1240N+01821MA1999999091611MD1999999+0001MW1101REMSYN017 333 20182 58000;
0096833390999991997010918004-14050-042617FM-12+088299999V0201401N00461220001CN0200001N1+02701+01571101081ADDAA106000091AG10000GF102991021021004501001001MA1999999091391MD1999999-0051REMSYN011 333 59005;
0150833390999991997011000004-14050-042617FM-12+088299999V0201801N00151220001CN9999999N9+02331+01671101061ADDAA106000091AG10000GA1001+999999999GF100991001001999999001001KA1240M+02731MA1999999091351MD1999999-0141REMSYN017 333 10273 59014;EQDQ01+000002VOVAR 
0137833390999991997011012004-14050-042617FM-12+088299999V0201401N00461004201CN0200001N1+02181+01901101271ADDAA106000091AG10000AY101061AY201061GF106991061021004501001001KA1240N+01941MA1999999091521MD1999999-0061MW1101REMSYN017 333 20194 59006;
0096833390999991997011018004-14050-042617FM-12+088299999V0201801N00151004201CN0200001N1+02461+01941100981ADDAA106000091AG10000GF106991051021004501001021MA1999999091291MD1999999-0101REMSYN011 333 59010;
0134833390999991997011100004-14050-042617FM-12+088299999V0209991C00001004201CN9999999N9+02341+01811101011ADDAA106000091AG10000GF107991061021004501021999KA1240M+02741MA1999999091311MD1999999-0041REMSYN017 333 10274 59004;EQDQ01+000002VOVAR 
0137833390999991997011112004-14050-042617FM-12+088299999V0201401N00261004201CN0200001N1+02161+02011101201ADDAA106000091AG10000AY101061AY201061GF106991061021004501001001KA1240N+01941MA1999999091481MD1999999-0041MW1101REMSYN017 333 20194 59004;
0118833390999991997011118004-14050-042617FM-12+088299999V0200901N00051004201CN0200001N1+02631+02011100941ADDAA106000091AG10010AY191061AY201061GF106991061021004501001001MA1999999091251MD1999999-0041MW1021REMSYN011 333 59004;
0162833390999991997011200004-14050-042617FM-12+088299999V0201801N00261004201CN9999999N9+02001+01881101211ADDAA106006091AG10010AY191061AY201061GF108991081051004501999999KA1240M+02671MA1999999091461MD1999999+0151MW1621REMSYN023 333 10267 58015 60061;EQDQ01+000002VOVAR 
0143833390999991997011212004-14050-042617FM-12+088299999V0201401N00361004201CN0200001N1+02221+01961101561ADDAA124007091AG10003AY161061AY261061GF106991061021004501001001KA1240N+01831MA1999999091211MD1999999+0031MW1101REMSYN023 333 20183 58003 60074;
0096833390999991997011218004-14050-042617FM-12+088299999V0200901N00461220001CN0200001N1+02801+01871100861ADDAA106000091AG10000GF104991041021004501001001MA1999999091191MD1999999-0061REMSYN011 333 59006;
0115833390999991997011312004-14050-042617FM-12+088299999V0200901N00261045001CN0200001N1+02201+01991101341ADDAA106000091AG10000GF106991031021004501021001KA1240N+01921MA1999999091621MD1999999+0111REMSYN017 333 20192 58011;
0096833390999991997011318004-14050-042617FM-12+088299999V0201401N00511004201CN0200001N1+02801+01951100961ADDAA106000091AG10000GF105991051021004501001001MA1999999091301MD1999999+0111REMSYN011 333 58011;
0115833390999991997011412004-14050-042617FM-12+088299999V0200901N00211220001CN0200001N1+02321+02031101301ADDAA106000091AG10000GF104991041021004501001001KA1240N+02021MA1999999091591MD1999999-0031REMSYN017 333 20202 59003;
0096833390999991997011418004-14050-042617FM-12+088299999V0201401N00411220001CN0200001N1+02821+01741100921ADDAA106000091AG10000GF104991041021004501001001MA1999999091261MD1999999-0041REMSYN011 333 59004;
0115833390999991997011512004-14050-042617FM-12+088299999V0201401N00261004201CN0200001N1+02241+01961101421ADDAA106000091AG10000GF106991061021004501001001KA1240N+01861MA1999999091691MD1999999+0101REMSYN017 333 20186 58010;
0096833390999991997011518004-14050-042617FM-12+088299999V0201401N00571220001CN0200001N1+02821+01801100941ADDAA106000091AG10000GF104991041021004501001001MA1999999091271MD1999999+0011REMSYN011 333 58001;
0134833390999991997011600004-14050-042617FM-12+088299999V0201401N00151220001CN9999999N9+02341+01761101061ADDAA106000091AG10000GF102991021021004501001001KA1240M+02961MA1999999091361MD1999999-0041REMSYN017 333 10296 59004;EQDQ01+000002VOVAR 
0115833390999991997011612004-14050-042617FM-12+088299999V0200501N00151220001CN0200001N1+02521+01931101281ADDAA106000091AG10000GF102991021021004501001001KA1240N+01971MA1999999091591MD1999999-0101REMSYN017 333 20197 59010;
0096833390999991997011618004-14050-042617FM-12+088299999V0203201N00411004201CN0200001N1+02621+02011100921ADDAA106000091AG10000GF106991061021004501001001MA1999999091241MD1999999-0031REMSYN011 333 59003;
0134833390999991997011700004-14050-042617FM-12+088299999V0201801N00151220001CN9999999N9+02251+01921100981ADDAA106000091AG10000GF102991021021004501001001KA1240M+02941MA1999999091311MD1999999-0051REMSYN017 333 10294 59005;EQDQ01+000002VOVAR 
0143833390999991997011712004-14050-042617FM-12+088299999V0202701N00311004201CN0200001N1+02401+02071101201ADDAA124001091AG10003AY161061AY221061GF106991061021004501001001KA1240N+02061MA1999999091491MD1999999-0101MW1021REMSYN023 333 20206 59010 60014;
0124833390999991997011718004-14050-042617FM-12+088299999V0200501N002610042019N0200001N1+02121+99999100831ADDAA106009091AG10010AY191061AY261061GF106991061021004501001001MA1999999091131MD1999999-0111MW1601REMSYN017 333 59011 60091;
0162833390999991997011800004-14050-042617FM-12+088299999V0201401N00101004201CN9999999N9+02281+02111100911ADDAA106000391AG10003AY161061AY221061GF108991081021004501999999KA1240M+02861MA1999999091241MD1999999-0071MW1021REMSYN023 333 10286 59007 69931;EQDQ01+000002VOVAR 
0143833390999991997011812004-14050-042617FM-12+088299999V0200501N00101045001CN0200001N1+02321+02051101181ADDAA124010091AG10003AY161061AY221061GF106991041021004501031001KA1240N+01981MA1999999091471MD1999999-0021MW1021REMSYN023 333 20198 59002 60104;
0096833390999991997011818004-14050-042617FM-12+088299999V0203201N00261004201CN0200001N1+02681+01921100751ADDAA106000091AG10000GF108991051021004501021999MA1999999091091MD1999999-0041REMSYN011 333 59004;
0156833390999991997011900004-14050-042617FM-12+088299999V0201801N00101045001CN9999999N9+02051+01991101201ADDAA106000091AG10000AY121061AY221061GF108991041021004501021999KA1240M+02761MA1999999091471MD1999999+0231MW1401REMSYN017 333 10276 58023;EQDQ01+000002VOVAR 
0096833390999991997011918004-14050-042617FM-12+088299999V0209991C00001045001CN0200001N1+02501+01941100961ADDAA106000091AG10000GF106991041021004501021001MA1999999091261MD1999999+0171REMSYN011 333 58017;
0134833390999991997012000004-14050-042617FM-12+088299999V0201401N00311004201CN9999999N9+02241+01941101111ADDAA106000091AG10000GF108991051021004501021999KA1240M+02741MA1999999091401MD1999999-0071REMSYN017 333 10274 59007;EQDQ01+000002VOVAR 
0137833390999991997012012004-14050-042617FM-12+088299999V0200901N00261004201CN0040001N1+02101+01931101381ADDAA106000091AG10000AY101061AY201061GF106991051021004501021999KA1240N+01961MA1999999091631MD1999999+0031MW1101REMSYN017 333 20196 58003;
0118833390999991997012018004-14050-042617FM-12+088299999V0201401N00151004201CN0040001N1+02421+02011101001ADDAA106000091AG10000AY101061AY201061GF107991061021004501021999MA1999999091291MD1999999+0031MW1171REMSYN011 333 58003;
0178833390999991997012100004-14050-042617FM-12+088299999V0201801N001519999999N9999999N9+02001+01681101071ADDAA106006091AG10003AY161061AY261061GF106991999031004501001001KA1240M+02461MA1999999091371MD1999999-0031MW1101REMSYN023 333 10246 59003 60061;EQDQ01+000022SCOTLCQ02+000002VOVAR 
0143833390999991997012112004-14050-042617FM-12+088299999V0200901N00411004201CN0200001N1+02101+01911101281ADDAA124006091AG10003AY161061AY261061GF106991061021004501001001KA1240N+01761MA1999999091521MD1999999-0111MW1101REMSYN023 333 20176 59011 60064;
0096833390999991997012118004-14050-042617FM-12+088299999V0201401N00461220001CN0200001N1+02681+01761100861ADDAA106000091AG10000GF104991041021004501001001MA1999999091181MD1999999-0111REMSYN011 333 59011;
0134833390999991997012200004-14050-042617FM-12+088299999V0201801N00151220001CN9999999N9+02261+01791101051ADDAA106000091AG10000GF102991021021004501001001KA1240M+02721MA1999999091341MD1999999-0031REMSYN017 333 10272 59003;EQDQ01+000002VOVAR 
0143833390999991997012212004-14050-042617FM-12+088299999V0202701N00051004201CN0200001N1+02091+01891101231ADDAA124005091AG10003AY161061AY261061GF106991061021004501001001KA1240N+01941MA1999999091491MD1999999-0031MW1101REMSYN023 333 20194 59003 60054;
0124833390999991997012218004-14050-042617FM-12+088299999V0201401N00411004201CN0200001N1+02561+01881100871ADDAA106005091AG10010AY191061AY261061GF105991051021004501001001MA1999999091191MD1999999+0011MW1021REMSYN017 333 58001 60051;
0134833390999991997012300004-14050-042617FM-12+088299999V0201801N00051220001CN9999999N9+02121+01881101071ADDAA106000091AG10000GF102991021011004501001001KA1240M+02641MA1999999091341MD1999999+0001REMSYN017 333 10264 58000;EQDQ01+000002VOVAR 
0143833390999991997012312004-14050-042617FM-12+088299999V0201401N00311220001CN0200001N1+02201+01821101251ADDAA124005091AG10003AY161061AY261061GF103991031021004501001001KA1240N+01761MA1999999091511MD1999999+0021MW1021REMSYN023 333 20176 58002 60054;
0096833390999991997012318004-14050-042617FM-12+088299999V0201401N00361220001CN0200001N1+02651+01711100951ADDAA106000091AG10000GF102991021021004501001001MA1999999091251MD1999999+0061REMSYN011 333 58006;
0134833390999991997012400004-14050-042617FM-12+088299999V0209991C00001220001CN9999999N9+02221+01581101011ADDAA106000091AG10000GF102991021021004501001001KA1240M+02681MA1999999091301MD1999999-0041REMSYN017 333 10268 59004;EQDQ01+000002VOVAR 
0115833390999991997012412004-14050-042617FM-12+088299999V0200501N00051220001CN0200001N1+02301+01851101231ADDAA106000091AG10000GF104991041021004501001001KA1240N+01831MA1999999091511MD1999999+0001REMSYN017 333 20183 58000;
0143833390999991997012512004-14050-042617FM-12+088299999V0200901N00151004201CN0200001N1+02181+01921101221ADDAA124012091AG10003AY161061AY261061GF106991061021004501001001KA1240N+01881MA1999999091481MD1999999-0031MW1101REMSYN023 333 20188 59003 60124;
0118833390999991997012518004-14050-042617FM-12+088299999V0201401N00511004201CN0200001N1+02641+01691100811ADDAA106000091AG10010AY191061AY201061GF106991061021004501001001MA1999999091141MD1999999-0121MW1021REMSYN011 333 59012;
0162833390999991997012600004-14050-042617FM-12+088299999V0202301N00211004201CN9999999N9+02001+01831101121ADDAA106021091AG10010AY191061AY261061GF108991081051004501999999KA1240M+02721MA1999999091381MD1999999+0041MW1601REMSYN023 333 10272 58004 60211;EQDQ01+000002VOVAR 
0143833390999991997012612004-14050-042617FM-12+088299999V0209999999999004201CN0040001N1+02001+01801101201ADDAA124023091AG10003AY161061AY261061GF108991081051004501999999KA1240N+01941MA1999999091441MD1999999-0041MW1101REMSYN023 333 20194 59004 60234;
0096833390999991997012618004-14050-042617FM-12+088299999V0202701N00211004201CN0200001N1+02301+01901100841ADDAA106000091AG10000GF106991061021004501001001MA1999999091141MD1999999+0001REMSYN011 333 58000;
0162833390999991997012700004-14050-042617FM-12+088299999V0201801N00051004201CN9999999N9+02081+01931100991ADDAA106003091AG10003AY161061AY261061GF108991081051004501999999KA1240M+02611MA1999999091251MD1999999-0131MW1101REMSYN023 333 10261 59013 60031;EQDQ01+000002VOVAR 
0143833390999991997012712004-14050-042617FM-12+088299999V0201401N00101004201CN0200001N1+02121+01891101231ADDAA124029091AG10003AY161061AY221061GF106991061021004501001001KA1240N+01921MA1999999091481MD1999999+0041MW1021REMSYN023 333 20192 58004 60294;
0096833390999991997012718004-14050-042617FM-12+088299999V0200901N00511220001CN0200001N1+02621+01701100881ADDAA106000091AG10000GF105991031021004501001011MA1999999091191MD1999999+0051REMSYN011 333 58005;
0134833390999991997012800004-14050-042617FM-12+088299999V0201401N00511220001CN9999999N9+02201+01841101131ADDAA106000091AG10000GF102991021021004501001001KA1240M+02641MA1999999091401MD1999999+0151REMSYN017 333 10264 58015;EQDQ01+000002VOVAR 
0115833390999991997012812004-14050-042617FM-12+088299999V0201401N00411004201CN0200001N1+02141+01911101281ADDAA106000091AG10000GF106991061021004501001001KA1240N+01961MA1999999091541MD1999999+0061REMSYN017 333 20196 58006;
0096833390999991997012818004-14050-042617FM-12+088299999V0201401N00671004201CN0200001N1+02621+01841100911ADDAA106000091AG10000GF106991061021004501001001MA1999999091231MD1999999+0041REMSYN011 333 58004;
0115833390999991997012912004-14050-042617FM-12+088299999V0200901N00671004201CN0200001N1+02181+01951101311ADDAA106000091AG10000GF106991061021004501001001KA1240N+01941MA1999999091571MD1999999+0131REMSYN017 333 20194 58013;
0134833390999991997013000004-14050-042617FM-12+088299999V0209991C00001220001CN9999999N9+02301+01591101171ADDAA106000091AG10000GF102991021021004501001001KA1240M+02721MA1999999091471MD1999999+0071REMSYN017 333 10272 58007;EQDQ01+000002VOVAR 
0096833390999991997013018004-14050-042617FM-12+088299999V0200901N00511220001CN0200001N1+02621+01861101001ADDAA106000091AG10000GF104991021021004501001041MA1999999091311MD1999999-0031REMSYN011 333 59003;
0150833390999991997013100004-14050-042617FM-12+088299999V0209991C00001220001CN9999999N9+02191+01761101171ADDAA106000091AG10000GA1001+999999999GF100991001001999999001001KA1240M+02671MA1999999091431MD1999999-0041REMSYN017 333 10267 59004;EQDQ01+000002VOVAR 
0115833390999991997013112004-14050-042617FM-12+088299999V0200901N00621220001CN0200001N1+02221+01761101361ADDAA106000091AG10000GF102991021021004501001001KA1240N+01701MA1999999091621MD1999999-0041REMSYN017 333 20170 59004;
0096833390999991997013118004-14050-042617FM-12+088299999V0200901N00151220001CN0200001N1+02801+01461101021ADDAA106000091AG10000GF103991031021004501001001MA1999999091341MD1999999+0031REMSYN011 333 58003;
0150833390999991997020100004-14050-042617FM-12+088299999V0209991C00001220001CN9999999N9+02261+01471101091ADDAA106000091AG10000GA1001+999999999GF100991001001999999001001KA1240M+02841MA1999999091381MD1999999-0051REMSYN017 333 10284 59005;EQDQ01+000002VOVAR 
0115833390999991997020112004-14050-042617FM-12+088299999V0201401N00211220001CN0200001N1+02321+01891101321ADDAA106000091AG10000GF105991021021004501001041KA1240N+01761MA1999999091601MD1999999-0021REMSYN017 333 20176 59002;
0096833390999991997020118004-14050-042617FM-12+088299999V0200901N00311004201CN0200001N1+02701+01881100961ADDAA106000091AG10000GF106991061021004501001001MA1999999091251MD1999999-0091REMSYN011 333 59009;
0134833390999991997020200004-14050-042617FM-12+088299999V0202301N00101004201CN9999999N9+02321+01741101071ADDAA106000091AG10000GF106991061021004501001001KA1240M+02811MA1999999091371MD1999999-0011REMSYN017 333 10281 59001;EQDQ01+000002VOVAR 
0115833390999991997020212004-14050-042617FM-12+088299999V0201401N00621045001CN0200001N1+02361+01931100901ADDAA106000091AG10000GF106991041021004501031001KA1240N+01881MA1999999091231MD1999999-0371REMSYN017 333 20188 59037;
0096833390999991997020218004-14050-042617FM-12+088299999V0201401N00361220001CN0200001N1+02801+01691100961ADDAA106000091AG10000GF105991041021004501001041MA1999999091291MD1999999+0041REMSYN011 333 58004;
0134833390999991997020300004-14050-042617FM-12+088299999V0201401N00411004201CN9999999N9+02341+01761101161ADDAA106000091AG10000GF108991061021004501021999KA1240M+02811MA1999999091461MD1999999+0091REMSYN017 333 10281 58009;EQDQ01+000002VOVAR 
0137833390999991997020312004-14050-042617FM-12+088299999V0201401N00511004201CN0200001N1+02031+01721101231ADDAA106000091AG10000AY101061AY201061GF106991061021004501001001KA1240N+01941MA1999999091501MD1999999+0271MW1101REMSYN017 333 20194 58027;
0096833390999991997020318004-14050-042617FM-12+088299999V0201401N00671004201CN0200001N1+02621+01151100901ADDAA106000091AG10000GF106991051021004501021001MA1999999091221MD1999999-0071REMSYN011 333 59007;
0134833390999991997020400004-14050-042617FM-12+088299999V0201801N00261220001CN9999999N9+02341+01411101041ADDAA106000091AG10000GF102991021021004501001001KA1240M+02681MA1999999091331MD1999999-0131REMSYN017 333 10268 59013;EQDQ01+000002VOVAR 
0137833390999991997020412004-14050-042617FM-12+088299999V0200901N00311004201CN0200001N1+02041+01761101271ADDAA106000091AG10000AY101061AY201061GF106991061021004501001001KA1240N+01901MA1999999091541MD1999999+0041MW1101REMSYN017 333 20190 58004;
0096833390999991997020418004-14050-042617FM-12+088299999V0200901N00571220001CN0200001N1+02871+01551101011ADDAA106000091AG10000GF103991031021004501001001MA1999999091341MD1999999+0121REMSYN011 333 58012;
0134833390999991997020500004-14050-042617FM-12+088299999V0201401N00411220001CN9999999N9+02321+01601101181ADDAA106000091AG10000GF102991021021004501001001KA1240M+02881MA1999999091451MD1999999+0121REMSYN017 333 10288 58012;EQDQ01+000002VOVAR 
0137833390999991997020512004-14050-042617FM-12+088299999V0201401N00461004201CN0040001N1+01971+01771101331ADDAA106000091AG10000AY101061AY201061GF108991081051004501999999KA1240N+01801MA1999999091581MD1999999+0041MW1101REMSYN017 333 20180 58004;
0096833390999991997020518004-14050-042617FM-12+088299999V0201401N00671220001CN0200001N1+02721+01461100991ADDAA106000091AG10000GF104991041021004501001001MA1999999091311MD1999999-0031REMSYN011 333 59003;
0162833390999991997020600004-14050-042617FM-12+088299999V0201401N00311004201CN9999999N9+02041+01781101241ADDAA106010091AG10009AY191061AY261061GF108991081051004501999999KA1240M+02781MA1999999091471MD1999999+0021MW1101REMSYN023 333 10278 58002 60101;EQDQ01+000002VOVAR 
0143833390999991997020612004-14050-042617FM-12+088299999V0201401N00771004201CN0040001N1+01921+01701101371ADDAA124010091AG10003AY161061AY261061GF108991081051004501999999KA1240N+01801MA1999999091591MD1999999+0011MW1101REMSYN023 333 20180 58001 60104;
0096833390999991997020618004-14050-042617FM-12+088299999V0201401N00461220001CN0200001N1+02731+01121101111ADDAA106000091AG10000GF102991021021004501001001MA1999999091381MD1999999+0071REMSYN011 333 58007;
0134833390999991997020700004-14050-042617FM-12+088299999V0201401N00311220001CN9999999N9+02261+01621101271ADDAA106000091AG10000GF102991021021004501001001KA1240M+02761MA1999999091501MD1999999+0031REMSYN017 333 10276 58003;EQDQ01+000002VOVAR 
0115833390999991997020712004-14050-042617FM-12+088299999V0200901N00051220001CN0200001N1+02171+01571101381ADDAA106000091AG10000GF102991021021004501001001KA1240N+01831MA1999999091641MD1999999+0051REMSYN017 333 20183 58005;
0096833390999991997020718004-14050-042617FM-12+088299999V0200901N00361220001CN0200001N1+02641+01481101161ADDAA106000091AG10000GF103991031021004501001001MA1999999091451MD1999999+0071REMSYN011 333 58007;
0150833390999991997020800004-14050-042617FM-12+088299999V0201801N00261220001CN9999999N9+02221+01431101201ADDAA106000091AG10000GA1001+999999999GF100991001001999999001001KA1240M+02701MA1999999091471MD1999999-0031REMSYN017 333 10270 59003;EQDQ01+000002VOVAR 
0137833390999991997020812004-14050-042617FM-12+088299999V0201401N00461004201CN0200001N1+02121+01781101431ADDAA106000091AG10000AY101061AY201061GF106991061021004501001001KA1240N+01861MA1999999091671MD1999999+0031MW1101REMSYN017 333 20186 58003;
0096833390999991997020818004-14050-042617FM-12+088299999V0201401N00461220001CN0200001N1+02621+01501101181ADDAA106000091AG10000GF102991021021004501001001MA1999999091901MD1999999+0041REMSYN011 333 58004;
0150833390999991997020900004-14050-042617FM-12+088299999V0201801N00411220001CN9999999N9+02281+01541101211ADDAA106000091AG10000GA1001+999999999GF100991001001999999001001KA1240M+02661MA1999999091481MD1999999+0011REMSYN017 333 10266 58001;EQDQ01+000002VOVAR 
0115833390999991997020912004-14050-042617FM-12+088299999V0201401N00771004201CN0040001N1+02001+01661101441ADDAA106000091AG10000GF108991081051004501999999KA1240N+01861MA1999999091681MD1999999+0011REMSYN017 333 20186 58001;
0096833390999991997020918004-14050-042617FM-12+088299999V0201401N00361220001CN0200001N1+02641+01581101131ADDAA106000091AG10000GF103991031021004501001001MA1999999091431MD1999999-0061REMSYN011 333 59006;
0150833390999991997021000004-14050-042617FM-12+088299999V0201401N00411220001CN9999999N9+02201+01561101181ADDAA106000091AG10000GA1001+999999999GF100991001001999999001001KA1240M+02741MA1999999091441MD1999999-0041REMSYN017 333 10274 59004;EQDQ01+000002VOVAR 
0115833390999991997021012004-14050-042617FM-12+088299999V0201401N00511004201CN0200001N1+02061+01781101551ADDAA106000091AG10000GF106991061021004501001001KA1240N+01821MA1999999091781MD1999999+0101REMSYN017 333 20182 58010;
0096833390999991997021018004-14050-042617FM-12+088299999V0201401N00461220001CN0200001N1+02761+01751101211ADDAA106000091AG10000GF103991031021004501001001MA1999999091511MD1999999+0081REMSYN011 333 58008;
0134833390999991997021100004-14050-042617FM-12+088299999V0201401N00461004201CN9999999N9+02101+01781101461ADDAA106000091AG10000GF106991061021004501001001KA1240M+02781MA1999999091641MD1999999+0291REMSYN017 333 10278 58029;EQDQ01+000002VOVAR 
0137833390999991997021112004-14050-042617FM-12+088299999V0201401N00571004201CN0040001N1+01941+01701101531ADDAA106000091AG10000AY101061AY201061GF108991081051004501999999KA1240N+01781MA1999999091731MD1999999-0051MW1101REMSYN017 333 20178 59005;
0096833390999991997021118004-14050-042617FM-12+088299999V0201401N00571220001CN0200001N1+02561+01671101231ADDAA106000091AG10000GF104991031021004501031001MA1999999091511MD1999999+0001REMSYN011 333 58000;
0115833390999991997021212004-14050-042617FM-12+088299999V0201401N00671004201CN0200001N1+02061+01781101431ADDAA106000091AG10000GF106991061021004501001001KA1240N+01891MA1999999091681MD1999999-0051REMSYN017 333 20189 59005;
0096833390999991997021218004-14050-042617FM-12+088299999V0201401N00411220001CN0200001N1+02701+01501101091ADDAA106000091AG10000GF104991041021004501001001MA1999999091391MD1999999-0121REMSYN011 333 59012;
0134833390999991997021300004-14050-042617FM-12+088299999V0201401N00511220001CN9999999N9+01801+01531101431ADDAA106000091AG10000GF103991031021004501001001KA1240M+02761MA1999999091631MD1999999+0151REMSYN017 333 10276 58015;EQDQ01+000002VOVAR 
0143833390999991997021312004-14050-042617FM-12+088299999V0201401N00571004201CN0200001N1+02021+01761101611ADDAA124000591AG10003AY161061AY261061GF108991051021004501021999KA1240N+01771MA1999999091781MD1999999+0101MW1021REMSYN023 333 20177 58010 69944;
0096833390999991997021318004-14050-042617FM-12+088299999V0200901N00411220001CN0200001N1+02701+01571101231ADDAA106000091AG10000GF104991041021004501001001MA1999999091511MD1999999+0121REMSYN011 333 58012;
0162833390999991997021412004-14050-042617FM-12+088299999V0200901N005119999999N0200001N1+02171+01801101591ADDAA124000591AG10003AY161061AY221061GF105991999021004501001001KA1240N+01841MA1999999091731MD1999999-0051MW1021REMSYN023 333 20184 59005 69944;EQDQ01+000062SCOTLC
0096833390999991997021518004-14050-042617FM-12+088299999V0200901N00361004201CN0200001N1+02741+01641101081ADDAA106000091AG10000GF105991051021004501001001MA1999999091381MD1999999-0131REMSYN011 333 59013;
0115833390999991997021600004-14050-042617FM-12+088299999V0201401N00511220001CN0200001N1+02221+01801101301ADDAA106000091AG10000GF104991041021004501001001KA1240M+02821MA1999999091571MD1999999-0111REMSYN017 333 10282 59011;
0115833390999991997021612004-14050-042617FM-12+088299999V0201401N00461004201CN0200001N1+02081+01841101521ADDAA106000091AG10000GF108991051021004501021999KA1240N+01881MA1999999091751MD1999999+0001REMSYN017 333 20188 58000;
0096833390999991997021618004-14050-042617FM-12+088299999V0201401N00461004201CN0200001N1+02701+01661100991ADDAA106000091AG10000GF105991051021004501001001MA1999999091311MD1999999-0071REMSYN011 333 59007;
0150833390999991997021700004-14050-042617FM-12+088299999V0200901N00101220001CN9999999N9+02261+01541101201ADDAA106000091AG10000GA1001+999999999GF100991001001999999001001KA1240M+02741MA1999999091461MD1999999-0111REMSYN017 333 10274 59011;EQDQ01+000002VOVAR 
0115833390999991997021712004-14050-042617FM-12+088299999V0201401N00101220001CN0200001N1+02221+01821101441ADDAA106000091AG10000GF103991031021004501001001KA1240N+01841MA1999999091701MD1999999-0051REMSYN017 333 20184 59005;
0096833390999991997021718004-14050-042617FM-12+088299999V0201401N00511220001CN0200001N1+02321+00961101091ADDAA106000091AG10000GF102991011021004501001021MA1999999091361MD1999999+0051REMSYN011 333 58005;
0134833390999991997021800004-14050-042617FM-12+088299999V0200901N00311220001CN9999999N9+02341+01641101201ADDAA106000091AG10000GF102991021021004501001001KA1240M+02871MA1999999091491MD1999999+0031REMSYN017 333 10287 58003;EQDQ01+000002VOVAR 
0115833390999991997021812004-14050-042617FM-12+088299999V0201401N00361220001CN0200001N1+02201+01781101401ADDAA106000091AG10000GF104991041021004501001001KA1240N+01841MA1999999091661MD1999999-0041REMSYN017 333 20184 59004;
0096833390999991997021818004-14050-042617FM-12+088299999V0201401N00461004201CN0200001N1+02901+01401101051ADDAA106000091AG10000GF106991051021004501021001MA1999999091381MD1999999+0021REMSYN011 333 58002;
0134833390999991997021900004-14050-042617FM-12+088299999V0201401N00311220001CN9999999N9+02301+01901101211ADDAA106000091AG10000GF104991041021004501001001KA1240M+02971MA1999999091491MD1999999+0001REMSYN017 333 10297 58000;EQDQ01+000002VOVAR 
0115833390999991997021912004-14050-042617FM-12+088299999V0201401N00721220001CN0200001N1+02301+01771101321ADDAA106000091AG10000GF103991031021004501001001KA1240N+01901MA1999999091601MD1999999-0061REMSYN017 333 20190 59006;
0096833390999991997021918004-14050-042617FM-12+088299999V0200901N00511220001CN0200001N1+02841+01571101031ADDAA106000091AG10000GF104991041021004501001001MA1999999091351MD1999999-0031REMSYN011 333 59003;
0150833390999991997022000004-14050-042617FM-12+088299999V0201401N00411220001CN9999999N9+02421+01651101071ADDAA106000091AG10000GA1001+999999999GF100991001001999999001001KA1240M+02881MA1999999091381MD1999999-0111REMSYN017 333 10288 59011;EQDQ01+000002VOVAR 
0115833390999991997022012004-14050-042617FM-12+088299999V0201401N00511004201CN0200001N1+02241+01821101271ADDAA106000091AG10000GF106991061021004501001001KA1240N+01861MA1999999091561MD1999999-0041REMSYN017 333 20186 59004;
0096833390999991997022018004-14050-042617FM-12+088299999V0201401N00311220001CN0200001N1+02901+01551100961ADDAA106000091AG10000GF103991031021004501001001MA1999999091301MD1999999-0051REMSYN011 333 59005;
0134833390999991997022100004-14050-042617FM-12+088299999V0201401N00511220001CN9999999N9+02441+01761101171ADDAA106000091AG10000GF102991021021004501001001KA1240M+02961MA1999999091451MD1999999+0071REMSYN017 333 10296 58007;EQDQ01+000002VOVAR 
0137833390999991997022112004-14050-042617FM-12+088299999V0201401N00261004201CN0200001N1+02221+01941101331ADDAA106000091AG10000AY101061AY201061GF106991061021004501001001KA1240N+02001MA1999999091651MD1999999+0061MW1101REMSYN017 333 20200 58006;
0096833390999991997022118004-14050-042617FM-12+088299999V0201401N00461045001CN0200001N1+03001+01411100971ADDAA106000091AG10000GF105991041021004501021001MA1999999091341MD1999999+0041REMSYN011 333 58004;
0134833390999991997022200004-14050-042617FM-12+088299999V0201401N00571220001CN9999999N9+02401+01821101271ADDAA106000091AG10000GF104991041021004501001001KA1240M+03081MA1999999091551MD1999999+0101REMSYN017 333 10308 58010;EQDQ01+000002VOVAR 
0137833390999991997022212004-14050-042617FM-12+088299999V0201401N00461004201CN0040001N1+02251+01941101501ADDAA106000091AG10000AY101061AY201061GF108991081051004501999999KA1240N+02041MA1999999091761MD1999999+0141MW1101REMSYN017 333 20204 58014;
0096833390999991997022218004-14050-042617FM-12+088299999V0201401N00621220001CN0200001N1+02861+01721101161ADDAA106000091AG10000GF104991041021004501001001MA1999999091491MD1999999+0111REMSYN011 333 58011;
0150833390999991997022300004-14050-042617FM-12+088299999V0201401N004619999999N9999999N9+02501+01391101261ADDAA106000091AG10000GF105991999021004501001001KA1240M+02921MA1999999091551MD1999999+0001REMSYN017 333 10292 58000;EQDQ01+000062SCOTLCQ02+000002VOVAR 
0115833390999991997022312004-14050-042617FM-12+088299999V0201401N00511220001CN0200001N1+02261+01771101481ADDAA106000091AG10000GF102991021021004501001001KA1240N+01881MA1999999091761MD1999999+0001REMSYN017 333 20188 58000;
0096833390999991997022318004-14050-042617FM-12+088299999V0201401N00311220001CN0200001N1+02941+01231101151ADDAA106000091AG10000GF103991031021004501001001MA1999999091401MD1999999-0091REMSYN011 333 59009;
0150833390999991997022400004-14050-042617FM-12+088299999V0201801N00261220001CN9999999N9+02421+01151101151ADDAA106000091AG10000GA1001+999999999GF100991001001999999001001KA1240M+03001MA1999999091451MD1999999-0101REMSYN017 333 10300 59010;EQDQ01+000002VOVAR 
0115833390999991997022412004-14050-042617FM-12+088299999V0200901N00311220001CN0200001N1+02341+01851101331ADDAA106000091AG10000GF102991021021004501001001KA1240N+01861MA1999999091631MD1999999-0131REMSYN017 333 20186 59013;
0096833390999991997022418004-14050-042617FM-12+088299999V0200901N00261004201CN0200001N1+03061+01581100811ADDAA106000091AG10000GF105991051021004501001001MA1999999091201MD1999999-0201REMSYN011 333 59020;
0134833390999991997022500004-14050-042617FM-12+088299999V0201401N00101220001CN9999999N9+02541+01481100941ADDAA106000091AG10000GF103991021021004501031001KA1240M+03201MA1999999091281MD1999999-0121REMSYN017 333 10320 59012;EQDQ01+000002VOVAR 
0115833390999991997022512004-14050-042617FM-12+088299999V0201401N00311004201CN0200001N1+02341+01981101111ADDAA106000091AG10000GF106991061021004501001001KA1240N+02081MA1999999091441MD1999999-0191REMSYN017 333 20208 59019;
0096833390999991997022518004-14050-042617FM-12+088299999V0209991C00001045001CN0200001N1+02841+01831100711ADDAA106000091AG10000GF106991041021004501021001MA1999999091091MD1999999-0111REMSYN011 333 59011;
0162833390999991997022600004-14050-042617FM-12+088299999V0202301N00151004201CN9999999N9+02101+01851999999ADDAA106001091AG10003AY161061AY221061GF108991051021004501021999KA1240M+02961MA1999999091361MD1999999+0081MW1131REMSYN023 333 10296 58008 60011;EQDQ01+000002VOVAR 
0143833390999991997022612004-14050-042617FM-12+088299999V0200501N00101004201CN0200001N1+02181+02041101311ADDAA124001091AG10003AY161061AY221061GF108991061021004501021999KA1240N+02031MA1999999091561MD1999999+0121MW1021REMSYN023 333 20203 58012 60014;
0096833390999991997022618004-14050-042617FM-12+088299999V0202301N00311004201CN0200001N1+02101+01781101051ADDAA106000091AG10000GF108991051021004501021999MA1999999091311MD1999999+0221REMSYN011 333 58022;
0162833390999991997022700004-14050-042617FM-12+088299999V0202301N00101004201CN9999999N9+02001+01921101221ADDAA106003091AG10003AY161061AY221061GF108991051021004501021999KA1240M+02541MA1999999091471MD1999999+0111MW1601REMSYN023 333 10254 58011 60031;EQDQ01+000002VOVAR 
0143833390999991997022712004-14050-042617FM-12+088299999V0200901N00151004201CN0200001N1+02201+01921101371ADDAA124004091AG10003AY161061AY221061GF106991061021004501001001KA1240N+01901MA1999999091611MD1999999+0051MW1021REMSYN023 333 20190 58005 60044;
0124833390999991997022718004-14050-042617FM-12+088299999V0203201N00101004201CN0010001N1+02001+01931101151ADDAA106007091AG10000AY141061AY221061GF108991051021004501021999MA1999999091381MD1999999+0071MW1601REMSYN017 333 58007 60071;
0162833390999991997022800004-14050-042617FM-12+088299999V0209991C00001045001CN9999999N9+01981+01831101251ADDAA106005091AG10003AY161061AY241061GF106991041021004501021001KA1240M+02571MA1999999091501MD1999999+0031MW1021REMSYN023 333 10257 58003 60051;EQDQ01+000002VOVAR 
0143833390999991997022812004-14050-042617FM-12+088299999V0201401N00101004201CN0040001N1+02021+01941101241ADDAA124012091AG10003AY161061AY261061GF108991051021004501021999KA1240N+01881MA1999999091471MD1999999-0141MW1401REMSYN023 333 20188 59014 60124;
0118833390999991997022818004-14050-042617FM-12+088299999V0200501N00101004201CN0200001N1+02461+01941100821ADDAA106000091AG10000AY141061AY221061GF106991061021004501001001MA1999999091121MD1999999-0161MW1021REMSYN011 333 59016;
0162833390999991997030100004-14050-042617FM-12+088299999V0209991C00001004201CN9999999N9+02021+01891101071ADDAA106001091AG10003AY161061AY221061GF108991051021004501021999KA1240M+02501MA1999999091321MD1999999-0181MW1401REMSYN023 333 10250 59018 69981;EQDQ01+000002VOVAR 
0143833390999991997030112004-14050-042617FM-12+088299999V0203601N00261045001CN0200001N1+02061+01841101111ADDAA124026091AG10003AY161061AY241061GF106991041021004501021001KA1240N+01841MA1999999091361MD1999999-0091MW1021REMSYN023 333 20184 59009 60264;
0124833390999991997030118004-14050-042617FM-12+088299999V0203201N002110042019N0200001N1+02121+02001100761ADDAA106001091AG10003AY161061AY221061GF108991051021004501021999MA1999999091041MD1999999-0081MW1021REMSYN017 333 59008 60011;
0162833390999991997030200004-14050-042617FM-12+088299999V0209991C00001004201CN9999999N9+02021+01951100971ADDAA106003091AG10003AY161061AY241061GF108991051051004501021999KA1240M+02281MA1999999091241MD1999999-0081MW1401REMSYN023 333 10228 59008 60031;EQDQ01+000002VOVAR 
0143833390999991997030212004-14050-042617FM-12+088299999V0203601N00261004201CN0200001N1+02251+01841100981ADDAA124005091AG10003AY161061AY241061GF108991061021004501021999KA1240N+01901MA1999999091261MD1999999-0101MW1041REMSYN023 333 20190 59010 60054;
0096833390999991997030218004-14050-042617FM-12+088299999V0203201N00411004201CN0200001N1+02471+01961100641ADDAA106000091AG10000GF108991061021004501021999MA1999999090961MD1999999-0081REMSYN011 333 59008;
0162833390999991997030300004-14050-042617FM-12+088299999V0209991C00001004201CN9999999N9+02071+01981100991ADDAA106001091AG10003AY161061AY221061GF108991051021004501021999KA1240M+02631MA1999999091271MD1999999+0031MW1021REMSYN023 333 10263 58003 60011;EQDQ01+000002VOVAR 
0143833390999991997030312004-14050-042617FM-12+088299999V0202701N00311004201CN0040001N1+02001+01921101281ADDAA124041091AG10003AY161061AY261061GF108991081051004501999999KA1240N+01931MA1999999091521MD1999999+0261MW1601REMSYN023 333 20193 58026 60414;
0124833390999991997030318004-14050-042617FM-12+088299999V0203601N00211004201CN0200001N1+02481+02011100921ADDAA106004091AG10003AY161061AY261061GF106991061021004501001001MA1999999091201MD1999999+0241MW1021REMSYN017 333 58024 60041;
0162833390999991997030400004-14050-042617FM-12+088299999V0209991C00001004201CN9999999N9+01981+01911101231ADDAA106002091AG10003AY161061AY261061GF108991081051004501999999KA1240M+02541MA1999999091461MD1999999+0191MW1101REMSYN023 333 10254 58019 60021;EQDQ01+000002VOVAR 
0143833390999991997030412004-14050-042617FM-12+088299999V0200901N00051004201CN0200001N1+02091+01911101401ADDAA124012091AG10003AY161061AY221061GF106991051021004501031001KA1240N+01881MA1999999091631MD1999999+0111MW1121REMSYN023 333 20188 58011 60124;
0124833390999991997030418004-14050-042617FM-12+088299999V0200901N00311004201CN0200001N1+02451+02071101131ADDAA106002091AG10003AY161061AY261061GF106991061021004501001001MA1999999091401MD1999999+0201MW1101REMSYN017 333 58020 60021;
0143833390999991997030512004-14050-042617FM-12+088299999V0201401N00361004201CN0200001N1+02071+01891101471ADDAA124020091AG10003AY161061AY261061GF106991051021004501021001KA1240N+01841MA1999999091691MD1999999+0061MW1101REMSYN023 333 20184 58006 60204;
0096833390999991997030518004-14050-042617FM-12+088299999V0201401N00411004201CN0200001N1+02621+01911101041ADDAA106000091AG10000GF105991051021004501001001MA1999999091341MD1999999-0061REMSYN011 333 59006;
0162833390999991997030600004-14050-042617FM-12+088299999V0202701N00151004201CN9999999N9+02021+01921101281ADDAA106002091AG10003AY161061AY261061GF108991081051004501999999KA1240M+02641MA1999999091321MD1999999-0031MW1101REMSYN023 333 10264 59003 60021;EQDQ01+000002VOVAR 
0143833390999991997030612004-14050-042617FM-12+088299999V0201401N00571004201CN0200001N1+02081+01841101321ADDAA124002091AG10003AY161061AY261061GF106991061021004501001001KA1240N+01861MA1999999091551MD1999999-0121MW1101REMSYN023 333 20186 59012 60024;
0096833390999991997030618004-14050-042617FM-12+088299999V0201401N00571220001CN0200001N1+02521+01891100961ADDAA106000091AG10000GF105991041021004501001041MA1999999091261MD1999999-0081REMSYN011 333 59008;
0156833390999991997030700004-14050-042617FM-12+088299999V0209991C00001004201CN9999999N9+02081+02001101221ADDAA106000091AG10000AY101061AY201061GF108991081051004501999999KA1240M+02541MA1999999091471MD1999999-0051MW1101REMSYN017 333 10254 59005;EQDQ01+000002VOVAR 
0115833390999991997030712004-14050-042617FM-12+088299999V0201401N00411220001CN0200001N1+02141+01701101361ADDAA106000091AG10000GF104991031021004501001021KA1240N+01861MA1999999091601MD1999999+0051REMSYN017 333 20186 58005;
0096833390999991997030718004-14050-042617FM-12+088299999V0201401N00361004201CN0200001N1+02591+01661101011ADDAA106000091AG10000GF105991051021004501001001MA1999999091321MD1999999+0061REMSYN011 333 58006;
0150833390999991997030800004-14050-042617FM-12+088299999V0201401N03082220001CN9999999N9+02221+01691101241ADDAA106000091AG10000GA1001+999999999GF100991001001999999001001KA1240M+02601MA1999999091511MD1999999+0041REMSYN017 333 10260 58004;EQDQ01+000002VOVAR 
0096833390999991997030818004-14050-042617FM-12+088299999V0201401N00311220001CN0200001N1+02701+01781101071ADDAA106000091AG10000GF103991021021004501001021MA1999999091381MD1999999+0061REMSYN011 333 58006;
0156833390999991997030900004-14050-042617FM-12+088299999V0200901N00101220001CN9999999N9+02261+01691101211ADDAA106000091AG10000AY101061AY201061GF102991021021004501001001KA1240M+02741MA1999999091501MD1999999-0011MW1131REMSYN017 333 10274 59001;EQDQ01+000002VOVAR 
0137833390999991997030912004-14050-042617FM-12+088299999V0201401N00411004201CN0200001N1+02071+01801101331ADDAA106000091AG10000AY101061AY201061GF106991061021004501001001KA1240N+01841MA1999999091631MD1999999-0071MW1101REMSYN017 333 20184 59007;
0096833390999991997030918004-14050-042617FM-12+088299999V0201401N00571045001CN0200001N1+02591+01641101091ADDAA106000091AG10000GF105991041021004501031001MA1999999091381MD1999999+0001REMSYN011 333 58000;
0134833390999991997031012004-14050-042617FM-12+088299999V0200901N009819999999N0200001N1+02121+01621101471ADDAA106000091AG10000GF105991999021004501001001KA1240N+01721MA1999999091711MD1999999+0081REMSYN017 333 20172 58008;EQDQ01+000062SCOTLC
0115833390999991997031018004-14050-042617FM-12+088299999V0200901N004119999999N0200001N1+02461+01681101231ADDAA106000091AG10000GF105991999021004501001001MA1999999091501MD1999999+0121REMSYN011 333 58012;EQDQ01+000062SCOTLC
0115833390999991997031112004-14050-042617FM-12+088299999V0201401N00571004201CN0200001N1+02021+01701101511ADDAA106000091AG10000GF106991061021004501001001KA1240N+01821MA1999999091731MD1999999+0021REMSYN017 333 20182 58002;
0115833390999991997031212004-14050-042617FM-12+088299999V0201401N00571220001CN0200001N1+02091+01781101561ADDAA106000091AG10000GF104991041021004501001001KA1240N+01781MA1999999091801MD1999999+0071REMSYN017 333 20178 58007;
0143833390999991997032512004-14050-042617FM-12+088299999V0201401N00311004201CN0200001N1+02181+02041101131ADDAA124000591AG10003AY161061AY261061GF106991061021004501001001KA1240N+02021MA1999999091401MD1999999-0011MW1101REMSYN023 333 20202 59001 69944;
0096833390999991997032518004-14050-042617FM-12+088299999V0201401N00361004201CN0200001N1+02661+01901100751ADDAA106000091AG10000GF106991061021004501001001MA1999999091091MD1999999-0051REMSYN011 333 59005;
0156833390999991997032600004-14050-042617FM-12+088299999V0209991C00001004201CN9999999N9+02101+01931101031ADDAA106000091AG10000AY101061AY201061GF106991051021004501021001KA1240M+02731MA1999999091311MD1999999-0031MW1101REMSYN017 333 10273 59003;EQDQ01+000002VOVAR 
0137833390999991997032612004-14050-042617FM-12+088299999V0201401N00411004201CN0040001N1+01981+01781101191ADDAA106000091AG10000AY101061AY201061GF106991051021004501021001KA1240N+01901MA1999999091441MD1999999+0041MW1101REMSYN017 333 20190 58004;
0118833390999991997032618004-14050-042617FM-12+088299999V0201401N00621004201CN0040001N1+02141+01951100951ADDAA106000091AG10000AY101061AY201061GF107991061021004501021999MA1999999091221MD1999999+0131MW1101REMSYN011 333 58013;
0143833390999991997032712004-14050-042617FM-12+088299999V0201401N00621004201CN0040001N1+01831+01761101281ADDAA124015091AG10003AY161061AY261061GF108991081051004501999999KA1240N+01781MA1999999091501MD1999999+0061MW1511REMSYN023 333 20178 58006 60154;
0118833390999991997032718004-14050-042617FM-12+088299999V0201401N00621220001CN0200001N1+02401+01991100931ADDAA106000091AG10008AY191061AY261061GF104991041021004501001001MA1999999091221MD1999999+0001MW1021REMSYN011 333 58000;
0143833390999991997032812004-14050-042617FM-12+088299999V0201401N00511004201CN0040001N1+02001+01931101451ADDAA124006091AG10003AY161061AY261061GF108991081051004501999999KA1240N+01861MA1999999091651MD1999999+0151MW1101REMSYN023 333 20186 58015 60064;
0096833390999991997032818004-14050-042617FM-12+088299999V0201401N00621220001CN0200001N1+02401+01751101131ADDAA106000091AG10000GF104991041021004501001001MA1999999091401MD1999999+0181REMSYN011 333 58018;
0162833390999991997032900004-14050-042617FM-12+088299999V0200901N00211004201CN9999999N9+02001+01931101411ADDAA106017091AG10003AY161061AY261061GF108991081051004501999999KA1240M+02451MA1999999091631MD1999999+0141MW1101REMSYN023 333 10245 58014 60171;EQDQ01+000002VOVAR 
0143833390999991997032912004-14050-042617FM-12+088299999V0201401N00721004201CN0040001N1+01921+01841101461ADDAA124017091AG10003AY161061AY261061GF108991081051004501999999KA1240N+01881MA1999999091651MD1999999+0001MW1101REMSYN023 333 20188 58000 60174;
0124833390999991997032918004-14050-042617FM-12+088299999V0200901N00461004201CN0200001N1+02241+01901101171ADDAA106001091AG10003AY161061AY261061GF106991061021004501001001MA1999999091431MD1999999+0031MW1101REMSYN017 333 58003 69981;
0156833390999991997033000004-14050-042617FM-12+088299999V0201401N00571220001CN9999999N9+02101+01891101371ADDAA106000091AG10000AY101061AY201061GF102991021021004501001001KA1240M+02361MA1999999091591MD1999999-0041MW1101REMSYN017 333 10236 59004;EQDQ01+000002VOVAR 
0143833390999991997033012004-14050-042617FM-12+088299999V0201401N00621004201CN0040001N1+01921+01841101271ADDAA124001091AG10003AY161061AY261061GF108991081051004501999999KA1240N+01821MA1999999091671MD1999999+0021MW1101REMSYN023 333 20182 58002 69984;
0096833390999991997033018004-14050-042617FM-12+088299999V0201401N00571220001CN0200001N1+02441+01761101141ADDAA106000091AG10000GF104991041021004501001001MA1999999091411MD1999999-0021REMSYN011 333 59002;
0156833390999991997033100004-14050-042617FM-12+088299999V0201401N00461220001CN9999999N9+02151+01971101381ADDAA106000091AG10000AY101061AY201061GF102991021021004501001001KA1240M+02521MA1999999091611MD1999999+0021MW1101REMSYN017 333 10252 58002;EQDQ01+000002VOVAR 
0137833390999991997033112004-14050-042617FM-12+088299999V0201401N00511004201CN0200001N1+02061+01901101531ADDAA106000091AG10000AY101061AY201061GF108991081051004501999999KA1240N+01921MA1999999091751MD1999999+0081MW1101REMSYN017 333 20192 58008;
0096833390999991997033118004-14050-042617FM-12+088299999V0200901N00621045001CN0200001N1+02501+01911101081ADDAA106000091AG10000GF105991041021004501031001MA1999999091371MD1999999-0041REMSYN011 333 59004;
0162833390999991997040100004-14050-042617FM-12+088299999V0201401N00311004201CN9999999N9+02081+01961101391ADDAA106002091AG10002AY161061AY261061GF108991081051004501999999KA1240M+02521MA1999999091621MD1999999+0011MW1601REMSYN023 333 10252 58001 60021;EQDQ01+000002VOVAR 
0143833390999991997040112004-14050-042617FM-12+088299999V0201401N00261004201CN0040001N1+02021+01921101591ADDAA124004091AG10002AY161061AY261061GF106991051021004501021001KA1240N+01941MA1999999091791MD1999999+0041MW1101REMSYN023 333 20194 58004 60044;
0096833390999991997040118004-14050-042617FM-12+088299999V0201401N00461220001CN0200001N1+02601+01791101211ADDAA106000091AG10000GF104991031021004501001041MA1999999091501MD1999999+0131REMSYN011 333 58013;
0150833390999991997040200004-14050-042617FM-12+088299999V0209999999999220001CN9999999N9+02161+01741101491ADDAA106000091AG10000GA1001+999999999GF100991001001999999001001KA1240M+02561MA1999999091721MD1999999+0101REMSYN017 333 10256 58010;EQDQ01+000002VOVAR 
0137833390999991997040212004-14050-042617FM-12+088299999V0200901N00261004201CN0200001N1+02021+01901101661ADDAA106000091AG10000AY101061AY201061GF106991061021004501001001KA1240N+01721MA1999999091871MD1999999+0081MW1101REMSYN017 333 20172 58008;
0096833390999991997040218004-14050-042617FM-12+088299999V0201401N00311220001CN0200001N1+02701+01751101421ADDAA106000091AG10000GF103991021021004501001021MA1999999091591MD1999999+0091REMSYN011 333 58009;
0096833390999991997040318004-14050-042617FM-12+088299999V0201401N00311220001CN0200001N1+02621+01781101131ADDAA106000091AG10000GF103991021021004501021001MA1999999091431MD1999999-0161REMSYN011 333 59016;
0172833390999991997040400004-14050-042617FM-12+088299999V0209991C00001220001CN9999999N9+02161+01881101281ADDAA106000091AG10000AY101061AY201061GA1001+999999999GF100991001001999999001001KA1240M+02661MA1999999091541MD1999999-0111MW1101REMSYN017 333 10266 59011;EQDQ01+000002VOVAR 
0137833390999991997040412004-14050-042617FM-12+088299999V0200501N00211004201CN0200001N1+02301+01961101481ADDAA106000091AG10000AY101061AY201061GF105991051021004501001001KA1240N+01781MA1999999091741MD1999999+0001MW1101REMSYN017 333 20178 58000;
0096833390999991997040418004-14050-042617FM-12+088299999V0201401N00361220001CN0200001N1+02701+01861101101ADDAA106000091AG10000GF102991021021004501001001MA1999999091401MD1999999-0031REMSYN011 333 59003;
0150833390999991997040500004-14050-042617FM-12+088299999V0201801N00051220001CN9999999N9+02161+01591101321ADDAA106000091AG10000GA1001+999999999GF100991001001999999001001KA1240M+02781MA1999999091551MD1999999+0011REMSYN017 333 10278 58001;EQDQ01+000002VOVAR 
0137833390999991997040512004-14050-042617FM-12+088299999V0200901N00311220001CN0200001N1+02281+01941101341ADDAA106000091AG10000AY101061AY201061GF102991021021004501001001KA1240N+01761MA1999999091601MD1999999-0141MW1101REMSYN017 333 20176 59014;
0112833390999991997040518004-14050-042617FM-12+088299999V0200901N00411220001CN0200001N1+02741+01481101081ADDAA106000091AG10000GA1001+999999999GF100991001001999999001001MA1999999091391MD1999999-0011REMSYN011 333 59001;
0172833390999991997040600004-14050-042617FM-12+088299999V0201401N00311220001CN9999999N9+02101+01741101271ADDAA106000091AG10000AY101061AY201061GA1001+999999999GF100991001001999999001001KA1240M+02761MA1999999091541MD1999999-0011MW1011REMSYN017 333 10276 59001;EQDQ01+000002VOVAR 
0137833390999991997040612004-14050-042617FM-12+088299999V0201401N00771004201CN0200001N1+01981+01901101551ADDAA106000091AG10000AY101061AY201061GF106991061021004501001001KA1240N+01841MA1999999091751MD1999999+0151MW1101REMSYN017 333 20184 58015;
0096833390999991997040618004-14050-042617FM-12+088299999V0201401N00621045001CN0200001N1+02501+01671101221ADDAA106000091AG10000GF105991041021004501021001MA1999999091491MD1999999+0101REMSYN011 333 58010;
0156833390999991997040700004-14050-042617FM-12+088299999V0201401N00621220001CN9999999N9+02241+01981101431ADDAA106000091AG10000AY101061AY201061GF102991021021004501001001KA1240M+02561MA1999999091661MD1999999+0121MW1101REMSYN017 333 10256 58012;EQDQ01+000002VOVAR 
0143833390999991997040712004-14050-042617FM-12+088299999V0201401N00821004201CN0040001N1+01921+01841101541ADDAA124002091AG10002AY161061AY261061GF108991081051004501999999KA1240N+01861MA1999999091761MD1999999+0011MW1101REMSYN023 333 20186 58001 60024;
0096833390999991997040718004-14050-042617FM-12+088299999V0201401N00571004201CN0200001N1+02441+01831101251ADDAA106000091AG10000GF106991061021004501001001MA1999999091521MD1999999+0031REMSYN011 333 58003;
0162833390999991997040800004-14050-042617FM-12+088299999V0201401N00931004201CN9999999N9+01981+01901101381ADDAA106002091AG10002AY161061AY261061GF108991081051004501999999KA1240M+02441MA1999999091641MD1999999-0021MW1101REMSYN023 333 10244 59002 60021;EQDQ01+000002VOVAR 
0143833390999991997040812004-14050-042617FM-12+088299999V0201401N00771004201CN0040001N1+01761+01631101601ADDAA124012091AG10002AY161061AY261061GF108991081051004501999999KA1240N+01731MA1999999091761MD1999999+0001MW1101REMSYN023 333 20173 58000 60124;
0096833390999991997040818004-14050-042617FM-12+088299999V0201401N00671004201CN0040001N1+02161+01741101331ADDAA106000091AG10000GF107991061021004501021999MA1999999091531MD1999999+0011REMSYN011 333 58001;
0188833390999991997040900004-14050-042617FM-12+088299999V0201401N00571004201CN9999999N9+02001+01781101411ADDAA106000091AG10000AY101061AY201061GF106991061021004501001001KA1240M+02261MA1999999999999MD1999999-0041MW1101REMSYN017 333 10226 59004;EQDQ01+096603APOSP Q02+000002VOVAR Q03 096603APOSP 
0137833390999991997040912004-14050-042617FM-12+088299999V0200901N00101004201CN0200001N1+02881+01691101551ADDAA106000091AG10000AY101061AY201061GF106991061021004501001001KA1240N+01751MA1999999091741MD1999999-0021MW1101REMSYN017 333 20175 59002;
0096833390999991997040918004-14050-042617FM-12+088299999V0201401N00621004201CN0200001N1+02221+01621101311ADDAA106000091AG10000GF106991061021004501001001MA1999999091541MD1999999+0011REMSYN011 333 58001;
0162833390999991997041000004-14050-042617FM-12+088299999V0201401N00361004201CN9999999N9+01861+01761101531ADDAA106000591AG10002AY161061AY261061GF108991081051004501999999KA1240M+02261MA1999999091651MD1999999+0051MW1101REMSYN023 333 10226 58005 69961;EQDQ01+000002VOVAR 
0143833390999991997041012004-14050-042617FM-12+088299999V0201401N00511220001CN0200001N1+01861+01531101611ADDAA124000591AG10002AY161061AY261061GF104991041021004501001001KA1240N+01701MA1999999091771MD1999999+0031MW1101REMSYN023 333 20170 58003 69964;
0096833390999991997041018004-14050-042617FM-12+088299999V0201401N00261220001CN0200001N1+02301+01481101381ADDAA106000091AG10000GF104991041021004501001001MA1999999091601MD1999999+0061REMSYN011 333 58006;
0156833390999991997041100004-14050-042617FM-12+088299999V0201401N00361220001CN9999999N9+01921+01611101501ADDAA106000091AG10000AY101061AY201061GF102991021021004501001001KA1240M+02351MA1999999091681MD1999999+0031MW1101REMSYN017 333 10235 58003;EQDQ01+000002VOVAR 
0137833390999991997041112004-14050-042617FM-12+088299999V0201401N00511004201CN0200001N1+01741+01611101661ADDAA106000091AG10000AY101061AY201061GF106991061021004501001001KA1240N+01681MA1999999091821MD1999999+0051MW1101REMSYN017 333 20168 58005;
0096833390999991997041118004-14050-042617FM-12+088299999V0201401N00211004201CN0200001N1+02281+01611101291ADDAA106000091AG10000GF105991051021004501001001MA1999999091521MD1999999-0081REMSYN011 333 59008;
0156833390999991997041200004-14050-042617FM-12+088299999V0201401N00261220001CN9999999N9+01841+01581101431ADDAA106000091AG10000AY101061AY201061GF102991021021004501001001KA1240M+02331MA1999999091601MD1999999-0081MW1101REMSYN017 333 10233 59008;EQDQ01+000002VOVAR 
0137833390999991997041212004-14050-042617FM-12+088299999V0200901N00311004201CN0040001N1+01821+01701101481ADDAA106000091AG10000AY101061AY201061GF108991081051004501999999KA1240N+01621MA1999999091651MD1999999-0171MW1101REMSYN017 333 20162 59017;
0096833390999991997041218004-14050-042617FM-12+088299999V0200901N00101220001CN0200001N1+02531+01791101001ADDAA106000091AG10000GF103991031021004501001001MA1999999091261MD1999999-0261REMSYN011 333 59026;
0172833390999991997041300004-14050-042617FM-12+088299999V0201801N00051220001CN9999999N9+02131+01781101211ADDAA106000091AG10000AY101061AY201061GA1001+999999999GF100991001001999999001001KA1240M+02661MA1999999091441MD1999999-0161MW1101REMSYN017 333 10266 59016;EQDQ01+000002VOVAR 
0137833390999991997041312004-14050-042617FM-12+088299999V0200501N00151004201CN0200001N1+02051+01891101261ADDAA106000091AG10000AY101061AY201061GF105991051021004501001001KA1240N+01661MA1999999091511MD1999999-0141MW1101REMSYN017 333 20166 59014;
0124833390999991997041318004-14050-042617FM-12+088299999V0200901N00261004201CN0200001N1+02481+01831100991ADDAA106001091AG10002AY161061AY261061GF106991061021004501001001MA1999999091281MD1999999+0021MW1021REMSYN017 333 58002 69981;
0156833390999991997041400004-14050-042617FM-12+088299999V0201801N00101220001CN9999999N9+02101+01821101191ADDAA106000091AG10000AY101061AY201061GF102991021021004501001001KA1240M+02531MA1999999091441MD1999999+0001MW1101REMSYN017 333 10253 58000;EQDQ01+000002VOVAR 
0143833390999991997041412004-14050-042617FM-12+088299999V0201401N00211220001CN0200001N1+02201+01901101421ADDAA124001091AG10002AY161061AY221061GF104991021021004501001041KA1240N+01841MA1999999091661MD1999999+0151MW1021REMSYN023 333 20184 58015 69984;
0096833390999991997041418004-14050-042617FM-12+088299999V0201401N00511220001CN0200001N1+02561+01801101091ADDAA106000091AG10000GF106991031021004501001041MA1999999091371MD1999999+0091REMSYN011 333 58009;
0134833390999991997041500004-14050-042617FM-12+088299999V0201401N00101220001CN9999999N9+02041+01781101351ADDAA106000091AG10000GF103991021021004501001041KA1240M+02631MA1999999091631MD1999999+0191REMSYN017 333 10263 58019;EQDQ01+000002VOVAR 
0115833390999991997041512004-14050-042617FM-12+088299999V0201401N00411220001CN0200001N1+02121+01801101531ADDAA106000091AG10000GF104991041021004501001001KA1240N+01851MA1999999091751MD1999999+0091REMSYN017 333 20185 58009;
0096833390999991997041518004-14050-042617FM-12+088299999V0201401N00311105001CN0200001N1+02541+01631101201ADDAA106000091AG10000GF106991021021004501031061MA1999999091471MD1999999+0101REMSYN011 333 58010;
0134833390999991997041600004-14050-042617FM-12+088299999V0201401N00311004201CN9999999N9+02121+01641101101ADDAA106000091AG10000GF106991051021004501021001KA1240M+02611MA1999999091731MD1999999+0101REMSYN017 333 10261 58010;EQDQ01+000002VOVAR 
0134833390999991997041612004-14050-042617FM-12+088299999V0201401N005719999999N0200001N1+02071+01721101791ADDAA106000091AG10000GF105991999021004501001001KA1240N+01781MA1999999091971MD1999999+0221REMSYN017 333 20178 58022;EQDQ01+000012SCOTLC
0096833390999991997041618004-14050-042617FM-12+088299999V0201401N00461045001CN0200001N1+02201+01561101471ADDAA106000091AG10000GF107991041021004501021001MA1999999091671MD1999999+0201REMSYN011 333 58020;
0134833390999991997041700004-14050-042617FM-12+088299999V0201401N00411045001CN9999999N9+02061+01621101511ADDAA106000091AG10000GF105991021021004501031001KA1240M+02221MA1999999091751MD1999999+0021REMSYN017 333 10222 58002;EQDQ01+000002VOVAR 
0137833390999991997041712004-14050-042617FM-12+088299999V0201401N00411045001CN0010001N1+01821+01721101661ADDAA106000091AG10000AY121061AY221061GF108991031021004501021999KA1240N+01801MA1999999091841MD1999999-0131MW1401REMSYN017 333 20180 59013;
0124833390999991997041718004-14050-042617FM-12+088299999V0201401N00461045001CN0040001N1+01861+01691101461ADDAA106000591AG10002AY161061AY241061GF108991041021004501021999MA1999999091631MD1999999-0041MW1401REMSYN017 333 59004 69941;
0162833390999991997041800004-14050-042617FM-12+088299999V0201401N00621045001CN9999999N9+01781+01631101621ADDAA106001091AG10002AY161061AY241061GF108991041021004501021999KA1240M+02091MA1999999091771MD1999999+0021MW1501REMSYN023 333 10209 58002 60011;EQDQ01+000002VOVAR 
0143833390999991997041812004-14050-042617FM-12+088299999V0201401N00411004201CN0200001N1+01881+01621101631ADDAA124001091AG10002AY161061AY241061GF108991051021004501021999KA1240N+01621MA1999999091791MD1999999-0051MW1021REMSYN023 333 20162 59005 60014;
0118833390999991997041818004-14050-042617FM-12+088299999V0201801N00261004201CN0040001N1+02061+01801101321ADDAA106000091AG10000AY101061AY201061GF108991081051004501999999MA1999999091511MD1999999-0121MW1101REMSYN011 333 59012;
0134833390999991997041900004-14050-042617FM-12+088299999V0201401N00261004201CN9999999N9+01941+01751101441ADDAA106000091AG10000GF108991051051004501021999KA1240M+02241MA1999999091641MD1999999-0131REMSYN017 333 10224 59013;EQDQ01+000002VOVAR 
0096833390999991997041918004-14050-042617FM-12+088299999V0201801N00311004201CN0200001N1+02481+01751101091ADDAA106000091AG10000GF106991061021004501001001MA1999999091371MD1999999-0141REMSYN011 333 59014;
0134833390999991997042000004-14050-042617FM-12+088299999V0201401N00411220001CN9999999N9+02081+01911101391ADDAA106000091AG10000GF102991021021004501001001KA1240M+02561MA1999999091621MD1999999-0021REMSYN017 333 10256 59002;EQDQ01+000002VOVAR 
0096833390999991997042018004-14050-042617FM-12+088299999V0201401N00461004201CN0200001N1+02221+01881101171ADDAA106000091AG10000GF106991061021004501001001MA1999999091421MD1999999+0051REMSYN011 333 58005;
0134833390999991997042100004-14050-042617FM-12+088299999V0209991C00001220001CN9999999N9+01961+01841101421ADDAA106000091AG10000GF102991021021004501001001KA1240M+02361MA1999999091621MD1999999+0001REMSYN017 333 10236 58000;EQDQ01+000002VOVAR 
0137833390999991997042112004-14050-042617FM-12+088299999V0201401N00101004201CN0040001N1+02101+01931101511ADDAA106000091AG10000AY101061AY201061GF108991081051004501999999KA1240N+01801MA1999999091731MD1999999-0021MW1101REMSYN017 333 20180 59002;
0124833390999991997042118004-14050-042617FM-12+088299999V0201401N00261220001CN0200001N1+02541+01731101071ADDAA106012091AG10007AY191061AY261061GF104991041021004501001001MA1999999091351MD1999999-0071MW1021REMSYN017 333 59007 60121;
0156833390999991997042200004-14050-042617FM-12+088299999V0201401N00151004201CN9999999N9+02081+01871101341ADDAA106000091AG10000AY101061AY201061GF106991061021004501001001KA1240M+02741MA1999999091581MD1999999-0041MW1101REMSYN017 333 10274 59004;EQDQ01+000002VOVAR 
0143833390999991997042212004-14050-042617FM-12+088299999V0201401N00361004201CN0040001N1+02081+01961101401ADDAA124012091AG10002AY161061AY261061GF108991081051004501999999KA1240N+01861MA1999999091641MD1999999-0091MW1101REMSYN023 333 20186 59009 60124;
0096833390999991997042218004-14050-042617FM-12+088299999V0201401N00261004201CN0200001N1+02541+01931101001ADDAA106000091AG10000GF105991051021004501001001MA1999999091291MD1999999-0061REMSYN011 333 59006;
0156833390999991997042300004-14050-042617FM-12+088299999V0201801N00311045001CN9999999N9+02141+01911101241ADDAA106000091AG10000AY101061AY201061GF106991021021004501021001KA1240M+02601MA1999999091491MD1999999-0091MW1101REMSYN017 333 10260 59009;EQDQ01+000002VOVAR 
0137833390999991997042312004-14050-042617FM-12+088299999V0200901N00261004201CN0040001N1+02051+01921101381ADDAA106000091AG10000AY101061AY201061GF108991081051004501999999KA1240N+01941MA1999999091621MD1999999-0021MW1101REMSYN017 333 20194 59002;
0096833390999991997042318004-14050-042617FM-12+088299999V0201401N00311004201CN0200001N1+02461+01921100981ADDAA106000091AG10000GF106991051021004501021001MA1999999091271MD1999999-0021REMSYN011 333 59002;
0162833390999991997042400004-14050-042617FM-12+088299999V0209991C00001004201CN9999999N9+01921+01841101291ADDAA106030091AG10002AY161061AY261061GF108991081051004501999999KA1240M+02481MA1999999091521MD1999999+0031MW1101REMSYN023 333 10248 58003 60301;EQDQ01+000002VOVAR 
0143833390999991997042412004-14050-042617FM-12+088299999V0200901N00151004201CN0040001N1+01981+01901101411ADDAA124031091AG10002AY161061AY261061GF108991081051004501999999KA1240N+01881MA1999999091611MD1999999-0011MW1401REMSYN023 333 20188 59001 60314;
0124833390999991997042418004-14050-042617FM-12+088299999V0200501N00261004201CN0040001N1+02151+02021101041ADDAA106018091AG10002AY161061AY261061GF108991081051004501999999MA1999999091301MD1999999+0031MW1641REMSYN017 333 58003 60181;
0162833390999991997042500004-14050-042617FM-12+088299999V0209991C00001004201CN9999999N9+01971+01881101331ADDAA106029091AG10002AY161061AY261061GF106991051021004501031001KA1240M+02461MA1999999091531MD1999999+0011MW1101REMSYN023 333 10246 58001 60291;EQDQ01+000002VOVAR 
0143833390999991997042512004-14050-042617FM-12+088299999V0209991C00001004201CN0040001N1+01981+01901101471ADDAA124046091AG10002AY161061AY261061GF107991061021004501031999KA1240N+01761MA1999999091651MD1999999+0041MW1101REMSYN023 333 20176 58004 60464;
0124833390999991997042518004-14050-042617FM-12+088299999V0201801N00051004201CN0200001N1+02381+02211101091ADDAA106001091AG10002AY161061AY261061GF105991051021004501001001MA1999999091351MD1999999+0051MW1101REMSYN017 333 58005 60011;
0156833390999991997042600004-14050-042617FM-12+088299999V0202701N00051220001CN9999999N9+02151+01931101191ADDAA106000091AG10000AY101061AY201061GF104991041021004501001001KA1240M+02601MA1999999091441MD1999999-0091MW1101REMSYN017 333 10260 59009;EQDQ01+000002VOVAR 
0143833390999991997042612004-14050-042617FM-12+088299999V0203601N00051004201CN0200001N1+02191+02061101281ADDAA124001091AG10002AY161061AY261061GF106991051021004501031001KA1240N+01801MA1999999091441MD1999999-0111MW1101REMSYN023 333 20180 59011 60014;
0096833390999991997042618004-14050-042617FM-12+088299999V0200901N00151045001CN0200001N1+02601+01761101001ADDAA106000091AG10000GF105991041021004501021001MA1999999091301MD1999999-0051REMSYN011 333 59005;
0156833390999991997042700004-14050-042617FM-12+088299999V0201801N00151220001CN9999999N9+02201+01861101181ADDAA106000091AG10000AY101061AY201061GF102991021021004501001001KA1240M+02661MA1999999091451MD1999999+0011MW1101REMSYN017 333 10266 58001;EQDQ01+000002VOVAR 
0137833390999991997042712004-14050-042617FM-12+088299999V0201401N00461004201CN0200001N1+02261+01981101341ADDAA106000091AG10000AY101061AY201061GF106991051021004501031001KA1240N+01861MA1999999091611MD1999999+0071MW1101REMSYN017 333 20186 58007;
0096833390999991997042718004-14050-042617FM-12+088299999V0201401N00411004201CN0200001N1+02621+01881101091ADDAA106000091AG10000GF106991051021004501021001MA1999999091391MD1999999+0091REMSYN011 333 58009;
0143833390999991997042812004-14050-042617FM-12+088299999V0201401N00311045001CN0010001N1+02001+01881101631ADDAA124001091AG10002AY161061AY241061GF108991021021004501021999KA1240N+01881MA1999999091831MD1999999+0221MW1401REMSYN023 333 20188 58022 60014;
0118833390999991997042818004-14050-042617FM-12+088299999V0201401N00311004201CN0200001N1+02421+01821101261ADDAA106000091AG10000AY141061AY221061GF106991061021004501001001MA1999999091531MD1999999+0141MW1021REMSYN011 333 58014;
0143833390999991997042912004-14050-042617FM-12+088299999V0209991C00001045001CN0010001N1+02001+01931101781ADDAA124005091AG10002AY161061AY241061GF108991041051004501021999KA1240N+01941MA1999999091961MD1999999+0131MW1401REMSYN023 333 20194 58013 60054;
0118833390999991997042918004-14050-042617FM-12+088299999V0201401N00151220001CN0200001N1+02581+01771101251ADDAA106000091AG10000AY141061AY221061GF103991031021004501001001MA1999999091531MD1999999+0001MW1021REMSYN011 333 58000;
0134833390999991997043000004-14050-042617FM-12+088299999V0209991C00001004201CN9999999N9+02101+01931101561ADDAA106000091AG10000GF108991051021004501021999KA1240M+02641MA1999999091761MD1999999-0071REMSYN017 333 10264 59007;EQDQ01+000002VOVAR 
0115833390999991997043012004-14050-042617FM-12+088299999V0201401N003610042019N0200001N1+02101+01931101691ADDAA106000091AG10000GF108991051021004501021999KA1240N+02001MA1999999091901MD1999999-0061REMSYN017 333 20200 59006;
0096833390999991997043018004-14050-042617FM-12+088299999V0201401N00311004201CN0200001N1+02391+01891101241ADDAA106000091AG10000GF106991061021004501001001MA1999999091511MD1999999-0021REMSYN011 333 59002;
0134833390999991997050100004-14050-042617FM-12+088299999V0201401N00511004201CN9999999N9+02121+01911101571ADDAA106000091AG10000GF106991061021004501001001KA1240M+02401MA1999999091791MD1999999+0031REMSYN017 333 10240 58003;EQDQ01+000002VOVAR 
0115833390999991997050112004-14050-042617FM-12+088299999V0201401N00671045001CN0200001N1+01971+01781101651ADDAA106000091AG10000GF108991031051004501021999KA1240N+01861MA1999999091841MD1999999-0061REMSYN017 333 20186 59006;
0096833390999991997050118004-14050-042617FM-12+088299999V0201401N00671220001CN0200001N1+02361+01781101241ADDAA106000091AG10000GF103991021021004501001011MA1999999091501MD1999999-0011REMSYN011 333 59001;
0134833390999991997050200004-14050-042617FM-12+088299999V0201401N00671004201CN9999999N9+01991+01811101541ADDAA106000091AG10000GF106991061021004501001001KA1240M+02361MA1999999091741MD1999999-0051REMSYN017 333 10236 59005;EQDQ01+000002VOVAR 
0137833390999991997050212004-14050-042617FM-12+088299999V0201401N00511045001CN0010001N1+01901+01781101651ADDAA106000091AG10000AY121061AY221061GF108991041051004501021999KA1240N+01821MA1999999091831MD1999999-0011MW1401REMSYN017 333 20182 59001;
0096833390999991997050218004-14050-042617FM-12+088299999V0201401N00511004201CN0200001N1+02301+01941101401ADDAA106000091AG10000GF106991061021004501001001MA1999999091631MD1999999+0131REMSYN011 333 58013;
0134833390999991997050300004-14050-042617FM-12+088299999V0201401N00671004201CN9999999N9+02041+01891101711ADDAA106000091AG10000GF106991061021004501001001KA1240M+03221MA1999999091881MD1999999+0141REMSYN017 333 10322 58014;EQDQ01+000002VOVAR 
0115833390999991997050312004-14050-042617FM-12+088299999V0201401N00671220001CN0200001N1+01961+01641101791ADDAA106000091AG10000GF103991031021004501001001KA1240N+01721MA1999999091961MD1999999+0131REMSYN017 333 20172 58013;
0096833390999991997050318004-14050-042617FM-12+088299999V0201401N00311004201CN0200001N1+02181+01701101641ADDAA106000091AG10000GF106991061021004501001001MA1999999091831MD1999999+0201REMSYN011 333 58020;
0134833390999991997050400004-14050-042617FM-12+088299999V0201401N00511004201CN9999999N9+02041+01721101721ADDAA106000091AG10000GF106991061021004501001001KA1240M+02241MA1999999091901MD1999999+0021REMSYN017 333 10224 58002;EQDQ01+000002VOVAR 
0115833390999991997050412004-14050-042617FM-12+088299999V0201401N00981004201CN0200001N1+01921+01621101741ADDAA106000091AG10000GF106991061021004501001001KA1240N+01741MA1999999091921MD1999999-0041REMSYN017 333 20174 59004;
0096833390999991997050418004-14050-042617FM-12+088299999V0201401N00621220001CN0200001N1+02281+01591101491ADDAA106000091AG10000GF103991031021004501001001MA1999999091711MD1999999-0121REMSYN011 333 59012;
0134833390999991997050500004-14050-042617FM-12+088299999V0201401N00361220001CN9999999N9+01941+01641101751ADDAA106000091AG10000GF102991021021004501001001KA1240M+02321MA1999999091921MD1999999+0021REMSYN017 333 10232 58002;EQDQ01+000002VOVAR 
0137833390999991997050512004-14050-042617FM-12+088299999V0201401N00871004201CN0200001N1+01851+01621101631ADDAA106000091AG10000AY101061AY201061GF106991061021004501001001KA1240N+01631MA1999999091801MD1999999-0121MW1101REMSYN017 333 20163 59012;
0096833390999991997050518004-14050-042617FM-12+088299999V0201401N00771004201CN0200001N1+02161+01631101411ADDAA106000091AG10000GF106991061021004501001001MA1999999091611MD1999999-0101REMSYN011 333 59010;
0156833390999991997050600004-14050-042617FM-12+088299999V0201401N00151220001CN9999999N9+01961+01701101581ADDAA106000091AG10000AY101061AY201061GF102991021021004501001001KA1240M+02221MA1999999091751MD1999999-0171MW1101REMSYN017 333 10222 59017;EQDQ01+000002VOVAR 
0137833390999991997050612004-14050-042617FM-12+088299999V0201401N00821004201CN0200001N1+01801+01581101761ADDAA106000091AG10000AY101061AY201061GF106991061021004501001001KA1240N+01621MA1999999091921MD1999999+0121MW1101REMSYN017 333 20162 58012;
0096833390999991997050618004-14050-042617FM-12+088299999V0201401N00871004201CN0200001N1+02121+01441101511ADDAA106000091AG10000GF106991051021004501021001MA1999999091691MD1999999-0081REMSYN011 333 59008;
0156833390999991997050700004-14050-042617FM-12+088299999V0201401N00361220001CN9999999N9+01801+01601101711ADDAA106000091AG10000AY101061AY201061GF102991021021004501001001KA1240M+02201MA1999999091851MD1999999+0101MW1101REMSYN017 333 10220 58010;EQDQ01+000002VOVAR 
0137833390999991997050712004-14050-042617FM-12+088299999V0201401N00621004201CN0040001N1+01661+01561101861ADDAA106000091AG10000AY101061AY201061GF108991081051004501999999KA1240N+01601MA1999999091981MD1999999+0061MW1101REMSYN017 333 20160 58006;
0096833390999991997050718004-14050-042617FM-12+088299999V0201401N00621004201CN0040001N1+02031+01521101591ADDAA106000091AG10000GF107991061021004501021999MA1999999091751MD1999999+0061REMSYN011 333 58006;
0156833390999991997050800004-14050-042617FM-12+088299999V0200901N00211220001CN9999999N9+01761+01591101801ADDAA106000091AG10000AY101061AY201061GF102991021021004501001001KA1240M+02041MA1999999091921MD1999999+0071MW1101REMSYN017 333 10204 58007;EQDQ01+000002VOVAR 
0137833390999991997050812004-14050-042617FM-12+088299999V0201401N00571004201CN0200001N1+01701+01531101881ADDAA106000091AG10000AY101061AY201061GF106991061021004501001001KA1240N+01521MA1999999092001MD1999999+0021MW1101REMSYN017 333 20152 58002;
0096833390999991997050818004-14050-042617FM-12+088299999V0201401N00461004201CN0040001N1+02021+01561101661ADDAA106000091AG10000GF107991061021004501021999MA1999999091811MD1999999+0061REMSYN011 333 58006;
0156833390999991997050900004-14050-042617FM-12+088299999V0201401N00361220001CN9999999N9+01801+01561101861ADDAA106000091AG10000AY101061AY201061GF102991021021004501001001KA1240M+02061MA1999999091981MD1999999+0061MW1101REMSYN017 333 10206 58006;EQDQ01+000002VOVAR 
0137833390999991997050912004-14050-042617FM-12+088299999V0201401N00101045001CN0200001N1+01791+01521101931ADDAA106000091AG10000AY101061AY201061GF105991041021004501031001KA1240N+01581MA1999999092051MD1999999+0051MW1101REMSYN017 333 20158 58005;
0096833390999991997050918004-14050-042617FM-12+088299999V0201401N00411045001CN0200001N1+02121+01501101661ADDAA106000091AG10000GF105991041021004501021001MA1999999091831MD1999999+0021REMSYN011 333 58002;
0156833390999991997051000004-14050-042617FM-12+088299999V0201401N00511004201CN9999999N9+01901+01591101771ADDAA106000091AG10000AY101061AY201061GF106991061021004501001001KA1240M+02101MA1999999091921MD1999999-0061MW1101REMSYN017 333 10210 59006;EQDQ01+000002VOVAR 
0137833390999991997051012004-14050-042617FM-12+088299999V0201401N00461004201CN0200001N1+01801+01671101841ADDAA106000091AG10000AY101061AY201061GF106991061021004501001001KA1240N+01661MA1999999091981MD1999999-0071MW1101REMSYN017 333 20166 59007;
0096833390999991997051018004-14050-042617FM-12+088299999V0201401N00311004201CN0200001N1+02221+01621101561ADDAA106000091AG10000GF105991051021004501001001MA1999999091751MD1999999-0081REMSYN011 333 59008;
0156833390999991997051100004-14050-042617FM-12+088299999V0201401N00671220001CN9999999N9+01961+01611101731ADDAA106000091AG10000AY101061AY201061GF103991031021004501001001KA1240M+02231MA1999999091891MD1999999-0031MW1101REMSYN017 333 10223 59003;EQDQ01+000002VOVAR 
0137833390999991997051112004-14050-042617FM-12+088299999V0200901N00671004201CN0200001N1+01871+01571101811ADDAA106000091AG10000AY101061AY201061GF106991051021004501021001KA1240N+01661MA1999999091961MD1999999-0021MW1101REMSYN017 333 20166 59002;
0096833390999991997051118004-14050-042617FM-12+088299999V0201401N00571220001CN0200001N1+02381+01421101521ADDAA106000091AG10000GF102991011021004501031001MA1999999091741MD1999999-0011REMSYN011 333 59001;
0150833390999991997051200004-14050-042617FM-12+088299999V0201401N006719999999N9999999N9+01981+01421101731ADDAA106000091AG10000GF105991999021004501001001KA1240M+02371MA1999999091381MD1999999+0001REMSYN017 333 10237 58000;EQDQ01+000022SCOTLCQ02+000002VOVAR 
0115833390999991997051212004-14050-042617FM-12+088299999V0201401N00671220001CN0200001N1+01861+01411101841ADDAA106000091AG10000GF104991041021004501001001KA1240N+01601MA1999999091991MD1999999+0031REMSYN017 333 20160 58003;
0096833390999991997051218004-14050-042617FM-12+088299999V0201401N00311220001CN0200001N1+02341+01361101471ADDAA106000091AG10000GF102991021021004501001001MA1999999091671MD1999999-0071REMSYN011 333 59007;
0150833390999991997051300004-14050-042617FM-12+088299999V0201801N00101220001CN9999999N9+01901+01271101601ADDAA106000091AG10000GA1001+999999999GF100991001001999999001001KA1240M+02361MA1999999091771MD1999999-0121REMSYN017 333 10236 59012;EQDQ01+000002VOVAR 
0131833390999991997051312004-14050-042617FM-12+088299999V0209991C00001220001CN0200001N1+01951+01571101661ADDAA106000091AG10000GA1001+999999999GF100991001001999999001001KA1240N+01401MA1999999091841MD1999999-0151REMSYN017 333 20140 59015;
0096833390999991997051318004-14050-042617FM-12+088299999V0200901N00361220001CN0200001N1+02761+01241101271ADDAA106000091AG10000GF104991041021004501001001MA1999999091491MD1999999-0181REMSYN011 333 59018;
0150833390999991997051400004-14050-042617FM-12+088299999V0209991C00001220001CN9999999N9+01921+01201101441ADDAA106000091AG10000GA1001+999999999GF100991001001999999001001KA1240M+02801MA1999999091641MD1999999-0131REMSYN017 333 10280 59013;EQDQ01+000002VOVAR 
0115833390999991997051412004-14050-042617FM-12+088299999V0203601N00101220001CN0200001N1+02161+01381101511ADDAA106000091AG10000GF102991011021004501001041KA1240N+01601MA1999999091731MD1999999-0111REMSYN017 333 20160 59011;
0096833390999991997051418004-14050-042617FM-12+088299999V0201401N00311220001CN0200001N1+02521+01171101221ADDAA106000091AG10000GF104991021021004501031001MA1999999091471MD1999999-0021REMSYN011 333 59002;
0134833390999991997051500004-14050-042617FM-12+088299999V0202301N00101220001CN9999999N9+02001+01231101431ADDAA106000091AG10000GF102991011021004501031001KA1240M+02601MA1999999091661MD1999999+0021REMSYN017 333 10260 58002;EQDQ01+000002VOVAR 
0137833390999991997051512004-14050-042617FM-12+088299999V0201401N00671045001CN0020001N1+01721+01551101761ADDAA106000091AG10000AY121061AY221061GF108991041021004501021999KA1240N+01691MA1999999091911MD1999999+0181MW1401REMSYN017 333 20169 58018;
0096833390999991997051518004-14050-042617FM-12+088299999V0201401N00511004201CN0200001N1+02131+01611101431ADDAA106000091AG10000GF105991051021004501001001MA1999999091631MD1999999+0161REMSYN011 333 58016;
0134833390999991997051600004-14050-042617FM-12+088299999V0201401N00671004201CN9999999N9+01781+01511101661ADDAA106000091AG10000GF108991061021004501021999KA1240M+02181MA1999999091801MD1999999+0141REMSYN017 333 10218 58014;EQDQ01+000002VOVAR 
0115833390999991997051612004-14050-042617FM-12+088299999V0201401N00511004201CN0200001N1+01661+01421101921ADDAA106000091AG10000GF106991061021004501001001KA1240N+01561MA1999999092031MD1999999+0121REMSYN017 333 20156 58012;
0115833390999991997051618004-14050-042617FM-12+088299999V0201401N00571004201CN0200001N1+01821+01411101631ADDAA106000091AG10000GF108991999051004501021021MA1999999091761MD1999999+0131REMSYN011 333 58013;EQDQ01+000082SCOTLC
0134833390999991997051700004-14050-042617FM-12+088299999V0201401N00411045001CN9999999N9+01761+01471101981ADDAA106000091AG10000GF108991041051004501021999KA1240M+01941MA1999999092011MD1999999+0211REMSYN017 333 10194 58021;EQDQ01+000002VOVAR 
0115833390999991997051712004-14050-042617FM-12+088299999V0201401N00511004201CN0200001N1+01621+01461102041ADDAA106000091AG10000GF108991051051004501021999KA1240N+01571MA1999999092141MD1999999+0111REMSYN017 333 20157 58011;
0096833390999991997051718004-14050-042617FM-12+088299999V0201401N00671220001CN0200001N1+02241+01451101471ADDAA106000091AG10000GF104991041021004501001001MA1999999091661MD1999999-0101REMSYN011 333 59010;
0134833390999991997051800004-14050-042617FM-12+088299999V0201401N00571220001CN9999999N9+01841+01471101761ADDAA106000091AG10000GF102991021021004501001001KA1240M+02261MA1999999091891MD1999999-0021REMSYN017 333 10226 59002;EQDQ01+000002VOVAR 
0115833390999991997051812004-14050-042617FM-12+088299999V0201401N00771004201CN0200001N1+01741+01571101851ADDAA106000091AG10000GF106991061021004501001001KA1240N+01641MA1999999091981MD1999999-0161REMSYN017 333 20164 59016;
0096833390999991997051818004-14050-042617FM-12+088299999V0201401N00511004201CN0200001N1+02071+01601101491ADDAA106000091AG10000GF106991061021004501001001MA1999999091671MD1999999+0011REMSYN011 333 58001;
0134833390999991997051900004-14050-042617FM-12+088299999V0201401N00571004201CN9999999N9+01921+01591101661ADDAA106000091AG10000GF106991061021004501001001KA1240M+02101MA1999999091821MD1999999-0071REMSYN017 333 10210 59007;EQDQ01+000002VOVAR 
0137833390999991997051912004-14050-042617FM-12+088299999V0200901N00771004201CN0200001N1+01761+01501101851ADDAA106000091AG10000AY101061AY201061GF106991061021004501001001KA1240N+01641MA1999999091991MD1999999+0011MW1101REMSYN017 333 20164 58001;
0096833390999991997051918004-14050-042617FM-12+088299999V0201401N00511004201CN0200001N1+02061+01661101491ADDAA106000091AG10000GF106991061021004501001001MA1999999091671MD1999999+0001REMSYN011 333 58000;
0156833390999991997052000004-14050-042617FM-12+088299999V0200901N00151004201CN9999999N9+01841+01721101661ADDAA106000091AG10000AY101061AY201061GF106991061021004501001001KA1240M+02061MA1999999091811MD1999999-0011MW1101REMSYN017 333 10206 59001;EQDQ01+000002VOVAR 
0143833390999991997052012004-14050-042617FM-12+088299999V0201401N00511004201CN0040001N1+01761+01711101751ADDAA124004091AG10002AY161061AY261061GF108991081051004501999999KA1240N+01741MA1999999091891MD1999999-0101MW1401REMSYN023 333 20174 59010 60044;
0118833390999991997052018004-14050-042617FM-12+088299999V0201401N00621004201CN0200001N1+02101+01861101451ADDAA106000091AG10000AY141061AY201061GF106991061021004501001001MA1999999091641MD1999999-0031MW1021REMSYN011 333 59003;
0156833390999991997052100004-14050-042617FM-12+088299999V0201401N00871220001CN9999999N9+01981+01851101591ADDAA106000091AG10000AY101061AY201061GF104991041021004501001001KA1240M+02171MA1999999091751MD1999999-0061MW1101REMSYN017 333 10217 59006;EQDQ01+000002VOVAR 
0143833390999991997052112004-14050-042617FM-12+088299999V0201401N00771004201CN0040001N1+01831+01761101591ADDAA124000591AG10002AY161061AY261061GF108991081051004501999999KA1240N+01761MA1999999091761MD1999999-0131MW1101REMSYN023 333 20176 59013 69964;
0096833390999991997052118004-14050-042617FM-12+088299999V0201401N00571220001CN0200001N1+02281+01661101321ADDAA106000091AG10000GF103991031021004501001001MA1999999091551MD1999999-0091REMSYN011 333 59009;
0137833390999991997052212004-14050-042617FM-12+088299999V0200901N00821004201CN0040001N1+01861+01781101721ADDAA106000091AG10000AY101061AY201061GF108991081051004501999999KA1240N+01761MA1999999091881MD1999999+0121MW1101REMSYN017 333 20176 58012;
0096833390999991997052218004-14050-042617FM-12+088299999V0200901N00461220001CN0500001N1+02281+01831101391ADDAA106000091AG10000GF104991041021004501001001MA1999999091621MD1999999+0071REMSYN011 333 58007;
0172833390999991997052300004-14050-042617FM-12+088299999V0200901N00671004201CN9999999N9+01981+01911101621ADDAA106999999AG10000AY101061AY201061GF108991081051004501999999KA1240M+02331MA1999999091791MD1999999+0021MW1501REMSYN017 333 10233 58002;EQDQ01+000002VOVAR Q02  00002PRCP06
0137833390999991997052312004-14050-042617FM-12+088299999V0201401N00411004201CN0200001N1+01861+01741101831ADDAA106000091AG10000AY101061AY201061GF106991061021004501001001KA1240N+01741MA1999999091981MD1999999+0101MW1101REMSYN017 333 20174 58010;
0096833390999991997052318004-14050-042617FM-12+088299999V0200901N00571220001CN0200001N1+02381+01501101441ADDAA106000091AG10000GF102991021021004501001001MA1999999091671MD1999999+0051REMSYN011 333 58005;
0156833390999991997052400004-14050-042617FM-12+088299999V0201401N00361220001CN9999999N9+01981+01701101671ADDAA106000091AG10000AY101061AY201061GF102991021021004501001001KA1240M+02401MA1999999091841MD1999999+0051MW1101REMSYN017 333 10240 58005;EQDQ01+000002VOVAR 
0137833390999991997052412004-14050-042617FM-12+088299999V0200901N01341004201CN0200001N1+01821+01561101701ADDAA106000091AG10000AY101061AY201061GF105991051021004501001001KA1240N+01621MA1999999091861MD1999999-0121MW1101REMSYN017 333 20162 59012;
0096833390999991997052418004-14050-042617FM-12+088299999V0200901N00411004201CN0200001N1+02221+01651101471ADDAA106000091AG10000GF106991061021004501001001MA1999999091661MD1999999-0011REMSYN011 333 59001;
0137833390999991997052512004-14050-042617FM-12+088299999V0200901N00311004201CN0040001N1+01801+01741101801ADDAA106000091AG10000AY101061AY201061GF108991081051004501999999KA1240N+01731MA1999999091941MD1999999+0081MW1101REMSYN017 333 20173 58008;
0096833390999991997052518004-14050-042617FM-12+088299999V0201401N00311220001CN0200001N1+02371+01711101471ADDAA106000091AG10000GF103991021021004501001021MA1999999091691MD1999999+0031REMSYN011 333 58003;
0156833390999991997052600004-14050-042617FM-12+088299999V0201801N00101220001CN9999999N9+01821+01681101651ADDAA106000091AG10000AY101061AY201061GF102991021021004501001001KA1240M+02401MA1999999091801MD1999999-0031MW1101REMSYN017 333 10240 59003;EQDQ01+000002VOVAR 
0137833390999991997052612004-14050-042617FM-12+088299999V0201401N00261045001CN0010001N1+01801+01741101671ADDAA106000091AG10000AY121061AY221061GF108991041051004501021999KA1240N+01541MA1999999091821MD1999999-0121MW1401REMSYN017 333 20154 59012;
0096833390999991997052618004-14050-042617FM-12+088299999V0201401N00411220001CN0200001N1+02301+01651101331ADDAA106000091AG10000GF104991021021004501001041MA1999999091551MD1999999-0141REMSYN011 333 59014;
0150833390999991997052700004-14050-042617FM-12+088299999V0209991C00001220001CN9999999N9+01901+01571101611ADDAA106000091AG10000GA1001+999999999GF100991001001999999001001KA1240M+02331MA1999999091771MD1999999-0031REMSYN017 333 10233 59003;EQDQ01+000002VOVAR 
0115833390999991997052712004-14050-042617FM-12+088299999V0201401N00511004201CN0200001N1+01761+01631101881ADDAA106000091AG10000GF108991051051004501021999KA1240N+01701MA1999999092021MD1999999+0201REMSYN017 333 20170 58020;
0096833390999991997052718004-14050-042617FM-12+088299999V0200901N00411220001CN0200001N1+02241+01571101541ADDAA106000091AG10000GF104991041021004501001001MA1999999091741MD1999999+0191REMSYN011 333 58019;
0150833390999991997052800004-14050-042617FM-12+088299999V0201401N00411220001CN9999999N9+01781+01541101761ADDAA106000091AG10000GA1001+999999999GF100991001001999999001001KA1240M+02251MA1999999091891MD1999999+0121REMSYN017 333 10225 58012;EQDQ01+000002VOVAR 
0115833390999991997052812004-14050-042617FM-12+088299999V0201401N00411004201CN0200001N1+01701+01521101881ADDAA106000091AG10000GF106991061021004501001001KA1240N+01591MA1999999092001MD1999999-0021REMSYN017 333 20159 59002;
0096833390999991997052818004-14050-042617FM-12+088299999V0200901N00211220001CN0200001N1+02321+01551101501ADDAA106000091AG10000GF102991021021004501001001MA1999999091691MD1999999-0051REMSYN011 333 59005;
0150833390999991997052900004-14050-042617FM-12+088299999V0202301N00101220001CN9999999N9+01801+01511101651ADDAA106000091AG10000GA1001+999999999GF100991001001999999001001KA1240M+02361MA1999999091791MD1999999-0101REMSYN017 333 10236 59010;EQDQ01+000002VOVAR 
0115833390999991997052912004-14050-042617FM-12+088299999V0200501N00151004201CN0200001N1+01671+01621101771ADDAA106000091AG10000GF106991061021004501001001KA1240N+01371MA1999999091891MD1999999-0111REMSYN017 333 20137 59011;
0112833390999991997052918004-14050-042617FM-12+088299999V0200901N00101220001CN0200001N1+02481+01371101321ADDAA106000091AG10000GA1001+999999999GF100991001001999999001001MA1999999091541MD1999999-0151REMSYN011 333 59015;
0150833390999991997053000004-14050-042617FM-12+088299999V0209991C00001220001CN9999999N9+02041+01191101521ADDAA106000091AG10000GA1001+999999999GF100991001001999999001001KA1240M+02581MA1999999091691MD1999999-0101REMSYN017 333 10258 59010;EQDQ01+000002VOVAR 
0131833390999991997053012004-14050-042617FM-12+088299999V0209991C00001220001CN0200001N1+02281+01701101591ADDAA106000091AG10000GA1001+999999999GF100991001001999999001001KA1240N+01641MA1999999091821MD1999999-0071REMSYN017 333 20164 59007;
0096833390999991997053018004-14050-042617FM-12+088299999V0200901N00311220001CN0200001N1+02661+01371101251ADDAA106000091AG10000GF102991021021004501001001MA1999999091511MD1999999-0031REMSYN011 333 59003;
0150833390999991997053100004-14050-042617FM-12+088299999V0209991C00001220001CN9999999N9+02181+01371101461ADDAA106000091AG10000GA1001+999999999GF100991001001999999001001KA1240M+02701MA1999999091721MD1999999+0031REMSYN017 333 10270 58003;EQDQ01+000002VOVAR 
0115833390999991997053112004-14050-042617FM-12+088299999V0200901N00461004201CN0200001N1+01961+01741101711ADDAA106000091AG10000GF106991061021004501001001KA1240N+01701MA1999999091901MD1999999+0081REMSYN017 333 20170 58008;
0096833390999991997053118004-14050-042617FM-12+088299999V0201401N00311220001CN0200001N1+02501+01451101271ADDAA106000091AG10000GF104991041021004501001001MA1999999091521MD1999999+0011REMSYN011 333 58001;
0150833390999991997060100004-14050-042617FM-12+088299999V0201401N00511220001CN9999999N9+02001+01681101571ADDAA106000091AG10000GA1001+999999999GF100991001001999999001001KA1240M+02521MA1999999091761MD1999999+0041REMSYN017 333 10252 58004;EQDQ01+000002VOVAR 
0115833390999991997060112004-14050-042617FM-12+088299999V0200901N00261045001CN0200001N1+01761+01611101781ADDAA106000091AG10000GF108991041021004501021999KA1240N+01671MA1999999091941MD1999999+0041REMSYN017 333 20167 58004;
0096833390999991997060118004-14050-042617FM-12+088299999V0201401N00311004201CN0200001N1+02221+01511101351ADDAA106000091AG10000GF106991061021004501001001MA1999999091571MD1999999+0051REMSYN011 333 58005;
0150833390999991997060200004-14050-042617FM-12+088299999V0201401N00211220001CN9999999N9+01881+01531101711ADDAA106000091AG10000GA1001+999999999GF100991001001999999001001KA1240M+02401MA1999999091851MD1999999+0091REMSYN017 333 10240 58009;EQDQ01+000002VOVAR 
0137833390999991997060212004-14050-042617FM-12+088299999V0201401N00621004201CN0040001N1+01541+01481101291ADDAA106000091AG10000AY101061AY201061GF108991081051004501999999KA1240N+01521MA1999999091451MD1999999-0491MW1401REMSYN017 333 20152 59049;
0118833390999991997060218004-14050-042617FM-12+088299999V0201401N00411220001CN0200001N1+02141+01481101561ADDAA106000091AG10000AY141061AY201061GF103991031021004501001001MA1999999091731MD1999999+0161MW1021REMSYN011 333 58016;
0156833390999991997060300004-14050-042617FM-12+088299999V0201401N00311220001CN9999999N9+01751+01501101801ADDAA106000091AG10000AY101061AY201061GF102991021021004501001001KA1240M+02181MA1999999091911MD1999999+0061MW1101REMSYN017 333 10218 58006;EQDQ01+000002VOVAR 
0137833390999991997060312004-14050-042617FM-12+088299999V0201401N00311004201CN0040001N1+01541+01461101861ADDAA106000091AG10000AY101061AY201061GF108991081051004501999999KA1240N+01441MA1999999091961MD1999999+0011MW1401REMSYN017 333 20144 58001;
0118833390999991997060318004-14050-042617FM-12+088299999V0201401N00261220001CN0200001N1+02201+99999101481ADDAA106000091AG10000AY141061AY201061GF102991021021004501001001MA1999999091651MD1999999-0081MW1021REMSYN011 333 59008;
0172833390999991997060400004-14050-042617FM-12+088299999V0201401N00151220001CN9999999N9+01741+01491101641ADDAA106000091AG10000AY101061AY201061GA1001+999999999GF100991001001999999001001KA1240M+02221MA1999999091761MD1999999-0151MW1101REMSYN017 333 10222 59015;EQDQ01+000002VOVAR 
0137833390999991997060412004-14050-042617FM-12+088299999V0200901N00311004201CN0040001N1+01621+01541101711ADDAA106000091AG10000AY101061AY201061GF108991081051004501999999KA1240N+01381MA1999999091841MD1999999-0121MW1101REMSYN017 333 20138 59012;
0096833390999991997060418004-14050-042617FM-12+088299999V0200901N00211004201CN0200001N1+02421+01591101301ADDAA106000091AG10000GF106991051021004501021001MA1999999091501MD1999999-0151REMSYN011 333 59015;
0156833390999991997060500004-14050-042617FM-12+088299999V0209991C00001220001CN9999999N9+01861+01601101501ADDAA106000091AG10000AY101061AY201061GF102991021021004501001001KA1240M+02481MA1999999091651MD1999999-0111MW1101REMSYN017 333 10248 59011;EQDQ01+000002VOVAR 
0131833390999991997060512004-14050-042617FM-12+088299999V0200901N00051220001CN0200001N1+02001+01561101521ADDAA106000091AG10000GA1001+999999999GF100991001001999999001001KA1240N+01501MA1999999091711MD1999999-0131REMSYN017 333 20150 59013;
0096833390999991997060518004-14050-042617FM-12+088299999V0200901N00051220001CN0200001N1+02801+01241101031ADDAA106000091AG10000GF102991021021004501001001MA1999999091321MD1999999-0181REMSYN011 333 59018;
0150833390999991997060600004-14050-042617FM-12+088299999V0202701N00101220001CN9999999N9+02161+01431101161ADDAA106000091AG10000GA1001+999999999GF100991001001999999001001KA1240M+02841MA1999999091421MD1999999-0231REMSYN017 333 10284 59023;EQDQ01+000002VOVAR 
0115833390999991997060612004-14050-042617FM-12+088299999V0203201N00361220001CN0200001N1+02271+01641101161ADDAA106000091AG10000GF103991021021004501001021KA1240N+01641MA1999999091441MD1999999-0271REMSYN017 333 20164 59027;
0096833390999991997060718004-14050-042617FM-12+088299999V0202701N00361045001CN0200001N1+02731+01441100631ADDAA106000091AG10000GF106991021021004501031001MA1999999090971MD1999999-0191REMSYN011 333 59019;
0162833390999991997061100004-14050-042617FM-12+088299999V0201401N00671004201CN9999999N9+01721+01691101871ADDAA106000591AG10002AY161061AY241061GF108991051051004501021999KA1240M+01741MA1999999091991MD1999999+0171MW1501REMSYN023 333 10174 58017 69941;EQDQ01+000002VOVAR 
0137833390999991997061118004-14050-042617FM-12+088299999V0200901N005119999999N0200001N1+02181+01761101641ADDAA106000091AG10000AY141061AY221061GF106991999021004501001001MA1999999091811MD1999999-0061MW1021REMSYN011 333 59006;EQDQ01+000072SCOTLC
0150833390999991997061200004-14050-042617FM-12+088299999V0201401N00411220001CN9999999N9+01801+01671101781ADDAA106000091AG10000GA1001+999999999GF100991001001999999001001KA1240M+02181MA1999999091901MD1999999-0091REMSYN017 333 10218 59009;EQDQ01+000002VOVAR 
0137833390999991997061212004-14050-042617FM-12+088299999V0201401N00311045001CN0010001N1+01741+01641101851ADDAA106000091AG10000AY121061AY221061GF108991041051004501021999KA1240N+01581MA1999999091971MD1999999-0131MW1401REMSYN017 333 20158 59013;
0096833390999991997061218004-14050-042617FM-12+088299999V0201401N00151220001CN0200001N1+02341+01671101531ADDAA106000091AG10000GF103991021021004501001041MA1999999091731MD1999999-0081REMSYN011 333 59008;
0150833390999991997061300004-14050-042617FM-12+088299999V0209991C00001220001CN9999999N9+01861+01701101751ADDAA106000091AG10000GA1001+999999999GF100991001001999999001001KA1240M+02351MA1999999091891MD1999999-0011REMSYN017 333 10235 59001;EQDQ01+000002VOVAR 
0137833390999991997061312004-14050-042617FM-12+088299999V0201401N00361004201CN0010001N1+01881+01801101871ADDAA106000091AG10000AY121061AY221061GF108991051021004501021999KA1240N+01701MA1999999092011MD1999999+0041MW1401REMSYN017 333 20170 58004;
0096833390999991997061318004-14050-042617FM-12+088299999V0201401N00411220001CN0200001N1+02421+01651101451ADDAA106000091AG10000GF103991031021004501001001MA1999999091681MD1999999-0051REMSYN011 333 59005;
0150833390999991997061400004-14050-042617FM-12+088299999V0201401N00151220001CN9999999N9+01971+01701101741ADDAA106000091AG10000GA1001+999999999GF100991001001999999001001KA1240M+02441MA1999999091901MD1999999+0011REMSYN017 333 10244 58001;EQDQ01+000002VOVAR 
0115833390999991997061412004-14050-042617FM-12+088299999V0201401N00211220001CN0200001N1+02021+01641101601ADDAA106000091AG10000GF102991021021004501001001KA1240N+01521MA1999999091791MD1999999-0221REMSYN017 333 20152 59022;
0096833390999991997061418004-14050-042617FM-12+088299999V0201401N00411220001CN0200001N1+02541+01421101291ADDAA106000091AG10000GF102991021021004501001001MA1999999091531MD1999999-0151REMSYN011 333 59015;
0150833390999991997061500004-14050-042617FM-12+088299999V0209991C00001220001CN9999999N9+01931+01511101511ADDAA106000091AG10000GA1001+999999999GF100991001001999999001001KA1240M+02561MA1999999091701MD1999999-0201REMSYN017 333 10256 59020;EQDQ01+000002VOVAR 
0115833390999991997061512004-14050-042617FM-12+088299999V0209991C00001220001CN0200001N1+01841+01561101731ADDAA106000091AG10000GF103991021021004501001011KA1240N+01401MA1999999091891MD1999999+0101REMSYN017 333 20140 58010;
0096833390999991997061518004-14050-042617FM-12+088299999V0200501N00151220001CN0200001N1+02641+01091101251ADDAA106000091AG10000GF104991011021004501001011MA1999999091501MD1999999-0031REMSYN011 333 59003;
0134833390999991997061600004-14050-042617FM-12+088299999V0201801N00151220001CN9999999N9+01861+01371101491ADDAA106000091AG10000GF102991021021004501001001KA1240M+02741MA1999999091661MD1999999-0041REMSYN017 333 10274 59004;EQDQ01+000002VOVAR 
0134833390999991997061612004-14050-042617FM-12+088299999V0209991C00001220001CN0200001N1+02071+01581101551ADDAA106000091AG10000GF102991001001999999001011KA1240N+01541MA1999999091741MD1999999-0151REMSYN017 333 20154 59015;EQDQ01+000982SCOLCB
0096833390999991997061618004-14050-042617FM-12+088299999V0203201N00211004201CN0200001N1+02781+01441101111ADDAA106000091AG10000GF105991051021004501001001MA1999999091411MD1999999-0011REMSYN011 333 59001;
0150833390999991997061700004-14050-042617FM-12+088299999V0209991C00001220001CN9999999N9+02001+01481101411ADDAA106000091AG10000GA1001+999999999GF100991001001999999001001KA1240M+02841MA1999999091641MD1999999-0021REMSYN017 333 10284 59002;EQDQ01+000002VOVAR 
0131833390999991997061712004-14050-042617FM-12+088299999V0200501N00151220001CN0200001N1+02171+01761101641ADDAA106000091AG10000GA1001+999999999GF100991001001999999001001KA1240N+01681MA1999999091851MD1999999+0111REMSYN017 333 20168 58011;
0096833390999991997061718004-14050-042617FM-12+088299999V0201401N00311220001CN0200001N1+02681+01581101301ADDAA106000091AG10000GF103991021021004501001011MA1999999091561MD1999999+0151REMSYN011 333 58015;
0150833390999991997061800004-14050-042617FM-12+088299999V0209991C00001220001CN9999999N9+02121+01721101541ADDAA106000091AG10000GF103991001001999999001011KA1240M+02721MA1999999091771MD1999999+0131REMSYN017 333 10272 58013;EQDQ01+000982SCOLCBQ02+000002VOVAR 
0115833390999991997061812004-14050-042617FM-12+088299999V0201401N00511220001CN0200001N1+02021+01761101661ADDAA106000091AG10000GF104991041021004501001001KA1240N+01621MA1999999091851MD1999999+0001REMSYN017 333 20162 58000;
0150833390999991997061900004-14050-042617FM-12+088299999V0201401N00671220001CN9999999N9+02121+01441101631ADDAA106000091AG10000GA1001+999999999GF100991001001999999001001KA1240M+02541MA1999999091831MD1999999+0061REMSYN017 333 10254 58006;EQDQ01+000002VOVAR 
0143833390999991997061912004-14050-042617FM-12+088299999V0200901N00671004201CN0200001N1+01841+01711101691ADDAA124000591AG10002AY161061AY241061GF106991061021004501001001KA1240N+01711MA1999999091871MD1999999+0021MW1021REMSYN023 333 20171 58002 69944;
0124833390999991997061918004-14050-042617FM-12+088299999V0200901N00411004201CN0200001N1+02181+01671101471ADDAA106000191AG10002AY161061AY221061GF108991051021004501021999MA1999999091911MD1999999+0091MW1021REMSYN017 333 58009 69921;
