0143833980999991997010112004-15667-038933FM-12+000599999V0203601N00411007501CN0200001N1+02971+02441100921ADDAA124036091AG10000AY121061AY261061GF107991051051008001021001KA1240N+02391MA1999999100871MD1999999+0041MW1021REMSYN023 333 20239 58004 60364;
0096833980999991997010118004-15667-038933FM-12+000599999V0203601N00511045001CN0200001N1+02941+02471100571ADDAA106000091AG10000GF106991031021008001041011MA1999999100521MD1999999-0021REMSYN011 333 59002;
0115833980999991997010212004-15667-038933FM-12+000599999V0200501N00311220001CN0200001N1+02911+02451101041ADDAA106000091AG10000GF104991021031008001021001KA1240N+02431MA1999999100991MD1999999+0121REMSYN017 333 20243 58012;
0096833980999991997010218004-15667-038933FM-12+000599999V0200501N00511045001CN0200001N1+02941+02471100611ADDAA106000091AG10000GF106991041021008001041011MA1999999100561MD1999999+0041REMSYN011 333 58004;
0143833980999991997010312004-15667-038933FM-12+000599999V0200501N00211007501CN0040001N1+02801+02441101321ADDAA124004091AG10003AY161061AY221061GF107991051051008001021001KA1240N+02511MA1999999101271MD1999999+0281MW1021REMSYN023 333 20251 58028 60044;
0096833980999991997010318004-15667-038933FM-12+000599999V0203601N00511045001CN0100001N1+02881+02321100621ADDAA106000091AG10000GF106991031051008001021001MA1999999100771MD1999999+0211REMSYN011 333 58021;
0115833980999991997010412004-15667-038933FM-12+000599999V0200501N00411220001CN0100001N1+02921+02431101131ADDAA106000091AG10000GF103991031021008001001001KA1240N+02401MA1999999101081MD1999999-0201REMSYN017 333 20240 59020;
0096833980999991997010418004-15667-038933FM-12+000599999V0200501N00511045001CN0200001N1+02931+02361100881ADDAA106000091AG10000GF106991031051008001041011MA1999999100831MD1999999+0061REMSYN011 333 58006;
0115833980999991997010512004-15667-038933FM-12+000599999V0203601N00211220001CN0200001N1+02881+02371101151ADDAA106000091AG10000GF104991041051008001001001KA1240N+02521MA1999999101101MD1999999+0021REMSYN017 333 20252 58002;
0096833980999991997010518004-15667-038933FM-12+000599999V0200501N00511045001CN0200001N1+02941+02321100811ADDAA106000091AG10000GF106991041021008001041001MA1999999100761MD1999999-0071REMSYN011 333 59007;
0143833980999991997010612004-15667-038933FM-12+000599999V0200501N00311045001CN0100001N1+02921+02501101101ADDAA124002091AG10003AY161061AY221061GF106991041051008001021001KA1240N+02431MA1999999101051MD1999999-0051MW1021REMSYN023 333 20243 59005 60024;
0096833980999991997010618004-15667-038933FM-12+000599999V0200501N00511045001CN0200001N1+02951+02471101011ADDAA106000091AG10000GF106991031051008001041011MA1999999100961MD1999999+0201REMSYN011 333 58020;
0115833980999991997010712004-15667-038933FM-12+000599999V0200901N00101220001CN0200001N1+02931+02291101521ADDAA106000091AG10000GF102991011021008001041001KA1240N+02521MA1999999101471MD1999999+0421REMSYN017 333 20252 58042;
0096833980999991997010718004-15667-038933FM-12+000599999V0200501N00511220001CN0200001N1+02931+02111101111ADDAA106000091AG10000GF104991021021008001041011MA1999999101061MD1999999+0101REMSYN011 333 58010;
0124833980999991997010818004-15667-038933FM-12+000599999V0200901N00311045001CN0200001N1+02891+02341101261ADDAA106002091AG10003AY161061AY221061GF106991031051008001041011MA1999999101211MD1999999+0151MW1021REMSYN017 333 58015 60021;
0096833980999991997011018004-15667-038933FM-12+000599999V0200901N00411220001CN0200001N1+02951+02331101061ADDAA106000091AG10000GF104991021021008001041011MA1999999101011MD1999999-0161REMSYN011 333 59016;
0134833980999991997011100004-15667-038933FM-12+000599999V0200501N00311220001CN9999999N9+02751+02281101101ADDAA106000091AG10000GF104991031011008001031001KA1240M+03051MA1999999101051MD1999999-0121REMSYN017 333 10305 59012;EQDQ01+000002VOVAR 
0096833980999991997011118004-15667-038933FM-12+000599999V0200901N00311220001CN0200001N1+02971+02301101041ADDAA106000091AG10000GF104991041021008001001001MA1999999100991MD1999999-0021REMSYN011 333 59002;
0115833980999991997011212004-15667-038933FM-12+000599999V0200501N00311007501CN0100001N1+02821+02311101201ADDAA106000091AG10000GF106991051051008001041001KA1240N+02231MA1999999101151MD1999999-0061REMSYN017 333 20223 59006;
0096833980999991997011218004-15667-038933FM-12+000599999V0200501N00511045001CN0200001N1+02941+02261101011ADDAA106000091AG10000GF106991031051008001041011MA1999999100961MD1999999-0031REMSYN011 333 59003;
0143833980999991997011312004-15667-038933FM-12+000599999V0200501N00311045001CN0100001N1+02891+02321101281ADDAA124002091AG10003AY161061AY221061GF106991031051008001041001KA1240N+02271MA1999999101231MD1999999+0081MW1021REMSYN023 333 20227 58008 60024;
0096833980999991997011318004-15667-038933FM-12+000599999V0200501N00511045001CN0200001N1+02941+02311101051ADDAA106000091AG10000GF105991031021008001041011MA1999999101001MD1999999+0041REMSYN011 333 58004;
0134833980999991997011400004-15667-038933FM-12+000599999V0200501N00211045001CN9999999N9+02721+99999101311ADDAA106000091AG10000GF105991031021008001041001KA1240M+02991MA1999999101261MD1999999+0131REMSYN017 333 10299 58013;EQDQ01+000002VOVAR 
0115833980999991997011412004-15667-038933FM-12+000599999V0200501N00411045001CN0200001N1+02941+02291101291ADDAA106000091AG10000GF106991041021008001041001KA1240N+02291MA1999999101241MD1999999+0011REMSYN017 333 20229 58001;
0096833980999991997011418004-15667-038933FM-12+000599999V0200501N00511220001CN0200001N1+02951+02331101031ADDAA106000091AG10000GF104991021021008001041011MA1999999100981MD1999999-0021REMSYN011 333 59002;
0134833980999991997011500004-15667-038933FM-12+000599999V0200501N00211220001CN9999999N9+02711+02331101311ADDAA106000091AG10000GF103991021011008001041001KA1240M+03001MA1999999101251MD1999999-0011REMSYN017 333 10300 59001;EQDQ01+000002VOVAR 
0115833980999991997011512004-15667-038933FM-12+000599999V0200501N00311045001CN0200001N1+02951+01301101351ADDAA106000091AG10000GF106991041051008001041001KA1240N+02311MA1999999101301MD1999999+0011REMSYN017 333 20231 58001;
0143833980999991997011612004-15667-038933FM-12+000599999V0203601N00211045001CN0100001N1+02931+02401101261ADDAA124002091AG10003AY161061AY221061GF106991041051008001041001KA1240N+02311MA1999999101211MD1999999-0011MW1021REMSYN023 333 20231 59001 60024;
0096833980999991997011618004-15667-038933FM-12+000599999V0200901N00621220001CN0200001N1+02951+02401101021ADDAA106000091AG10000GF104991021021008001041001MA1999999100971MD1999999-0011REMSYN011 333 59001;
0134833980999991997011700004-15667-038933FM-12+000599999V0203601N00211220001CN9999999N9+02641+02411101041ADDAA106000091AG10000GF102991021021008001001001KA1240M+03041MA1999999100991MD1999999-0081REMSYN017 333 10304 59008;EQDQ01+000002VOVAR 
0115833980999991997011712004-15667-038933FM-12+000599999V0203601N00511045001CN0200001N1+02971+02351101081ADDAA106000091AG10000GF107991041051008001041011KA1240N+02301MA1999999101031MD1999999-0181REMSYN017 333 20230 59018;
0096833980999991997011718004-15667-038933FM-12+000599999V0203601N00621045001CN0200001N1+02921+02341100731ADDAA106000091AG10000GF106991021021008001041011MA1999999100681MD1999999-0291REMSYN011 333 59029;
0134833980999991997011800004-15667-038933FM-12+000599999V0203601N00211045001CN9999999N9+02681+02501100861ADDAA106000091AG10000GF106991031051008001031011KA1240M+03051MA1999999100811MD1999999-0181REMSYN017 333 10305 59018;EQDQ01+000002VOVAR 
0096833980999991997011818004-15667-038933FM-12+000599999V0200501N00511007501CN0100001N1+02771+02361100741ADDAA106000091AG10000GF107991051051008001041001MA1999999100691MD1999999+0011REMSYN011 333 58001;
0096833980999991997011918004-15667-038933FM-12+000599999V0200501N00511045001CN0200001N1+02921+02411100971ADDAA106000091AG10000GF106991031051008001041011MA1999999100921MD1999999+0231REMSYN011 333 58023;
0143833980999991997012012004-15667-038933FM-12+000599999V0203601N00311045001CN0100001N1+02791+02361101331ADDAA124005091AG10009AY191061AY261061GF106991041051008001021001KA1240N+02331MA1999999101281MD1999999+0011MW1021REMSYN023 333 20233 58001 60054;
0096833980999991997012018004-15667-038933FM-12+000599999V0200901N00151045001CN0200001N1+02991+02271101121ADDAA106000091AG10000GF106991021051008001031011MA1999999101071MD1999999+0151REMSYN011 333 58015;
0134833980999991997012100004-15667-038933FM-12+000599999V0200501N00311045001CN9999999N9+02661+02371101181ADDAA106000091AG10000GF105991031051008001041001KA1240M+03031MA1999999101131MD1999999+0051REMSYN017 333 10303 58005;EQDQ01+000002VOVAR 
0143833980999991997012112004-15667-038933FM-12+000599999V0200501N00311045001CN0100001N1+02891+02321101271ADDAA124001091AG10009AY191061AY261061GF106991031051008001021001KA1240N+02381MA1999999101221MD1999999-0061MW1021REMSYN023 333 20238 59006 60014;
0096833980999991997012118004-15667-038933FM-12+000599999V0200901N00411045001CN0200001N1+02871+02181101071ADDAA106000091AG10000GF106991031021008001041011MA1999999101021MD1999999-0051REMSYN011 333 59005;
0134833980999991997012200004-15667-038933FM-12+000599999V0200501N00211045001CN9999999N9+02621+02271101181ADDAA106000091AG10000GF105991021021008001041001KA1240M+02971MA1999999101131MD1999999+0001REMSYN017 333 10297 58000;EQDQ01+000002VOVAR 
0115833980999991997012212004-15667-038933FM-12+000599999V0203601N00311045001CN0200001N1+02911+02121101241ADDAA106000091AG10000GF106991031021008001041011KA1240N+02291MA1999999101191MD1999999-0031REMSYN017 333 20229 59003;
0096833980999991997012218004-15667-038933FM-12+000599999V0200501N00511045001CN0200001N1+02911+02321101041ADDAA106000091AG10000GF106991031051008001041001MA1999999100991MD1999999-0031REMSYN011 333 59003;
0150833980999991997012300004-15667-038933FM-12+000599999V0200501N00211220001CN9999999N9+02611+99999101291ADDAA106000091AG10000GF104991011041008001051001KA1240M+99999MA1999999101241MD1999999+0111REMSYN017 333 10247 58011;EQDQ01+000002VOVAR Q02 +02472ATMX  
0115833980999991997012312004-15667-038933FM-12+000599999V0200901N00311007501CN0100001N1+02791+02291101301ADDAA106000091AG10000GF107991051051008001021001KA1240N+02191MA1999999101251MD1999999+0061REMSYN017 333 20219 58006;
0134833980999991997012400004-15667-038933FM-12+000599999V0203601N00101220001CN9999999N9+02591+02311101301ADDAA106000091AG10000GF103991011051008001031001KA1240M+03021MA1999999101251MD1999999+0011REMSYN017 333 10302 58001;EQDQ01+000002VOVAR 
0143833980999991997012412004-15667-038933FM-12+000599999V0200501N00311007501CN0040001N1+02431+02301101321ADDAA124020091AG10009AY191061AY261061GF108991051071008001031001KA1240N+01791MA1999999101271MD1999999+0021MW1601REMSYN023 333 20179 58002 60204;
0143833980999991997012512004-15667-038933FM-12+000599999V0203201N00311007501CN0100001N1+02741+02361101251ADDAA124002091AG10003AY161061AY221061GF106991051051008001021001KA1240N+02311MA1999999101201MD1999999-0071MW1021REMSYN023 333 20231 59007 60024;
0096833980999991997012518004-15667-038933FM-12+000599999V0200501N00311045001CN0200001N1+02891+02021101081ADDAA106000091AG10000GF105991031021008001041001MA1999999101031MD1999999-0081REMSYN011 333 59008;
0143833980999991997012612004-15667-038933FM-12+000599999V0200501N00311045001CN0100001N1+02891+02321101221ADDAA124003091AG10003AY161061AY221061GF106991041051008001041001KA1240N+02191MA1999999101171MD1999999-0031MW1011REMSYN023 333 20219 59003 60034;
0096833980999991997012618004-15667-038933FM-12+000599999V0200901N00311105001CN0200001N1+02871+02301100961ADDAA106000091AG10000GF105991021051008001041011MA1999999100911MD1999999-0121REMSYN011 333 59012;
0134833980999991997012800004-15667-038933FM-12+000599999V0200501N00051220001CN9999999N9+02661+02221101141ADDAA106000091AG10000GF104991041021008001001001KA1240M+02991MA1999999101091MD1999999-0051REMSYN017 333 10299 59005;EQDQ01+000002VOVAR 
0143833980999991997012812004-15667-038933FM-12+000599999V0202701N00101045001CN0100001N1+02521+02231101271ADDAA124005091AG10003AY161061AY221061GF106991031051008001041001KA1240N+02201MA1999999101221MD1999999+0101MW1011REMSYN023 333 20220 58010 60054;
0143833980999991997012912004-15667-038933FM-12+000599999V0203201N00101045001CN0100001N1+02701+02221101431ADDAA124002091AG10000AY151061AY221061GF106991031051008001041041KA1240N+02111MA1999999101381MD1999999+0161MW1021REMSYN023 333 20211 58016 60024;
0134833980999991997013000004-15667-038933FM-12+000599999V0200501N00051220001CN9999999N9+02661+02331101411ADDAA106000091AG10000GF104991021011008001041001KA1240M+02961MA1999999101361MD1999999+0151REMSYN017 333 10296 58015;EQDQ01+000002VOVAR 
0150833980999991997013012004-15667-038933FM-12+000599999V0201401N00411220001CN0200001N1+02041+01621101421ADDAA106000091AG10000GF101991999021004501001001KA1240N+01821MA1999999999999MD1999999+0091REMSYN017 333 20182 58009;EQDQ01+000022SCOTLCQ02 091663APOSP 
0115833980999991997013018004-15667-038933FM-12+000599999V0200901N00101220001CN0200001N1+02981+02351101231ADDAA106000091AG10000GF102991011021008001041001MA1999999101182MD1999999-0091REMSYN011 333 59009;EQDQ01+101183APOSP 
0134833980999991997013100004-15667-038933FM-12+000599999V0200901N00101045001CN9999999N9+02621+02331101371ADDAA106000091AG10000GF105991031011008001041001KA1240M+02991MA1999999101321MD1999999-0041REMSYN017 333 10299 59004;EQDQ01+000002VOVAR 
0143833980999991997013112004-15667-038933FM-12+000599999V0202301N00101220001CN0100001N1+02911+02011101461ADDAA124010091AG10003AY161061AY221061GF104991021031008001041001KA1240N+02031MA1999999101411MD1999999+0101MW1021REMSYN023 333 20203 58010 60104;
0096833980999991997013118004-15667-038933FM-12+000599999V0200901N00211220001CN0100001N1+02921+02321101151ADDAA106000091AG10000GF103991031021008001001011MA1999999101101MD1999999-0081REMSYN011 333 59008;
0134833980999991997020100004-15667-038933FM-12+000599999V0209991C00001220001CN9999999N9+02671+02261101151ADDAA106000091AG10000GF104991021011008001031001KA1240M+02931MA1999999101101MD1999999-0221REMSYN017 333 10293 59022;EQDQ01+000002VOVAR 
0115833980999991997020112004-15667-038933FM-12+000599999V0200901N00211045001CN0100001N1+02951+02401101251ADDAA106000091AG10000GF106991031051008001041001KA1240N+02131MA1999999101201MD1999999-0211REMSYN017 333 20213 59021;
0096833980999991997020118004-15667-038933FM-12+000599999V0202301N00211220001CN0200001N1+02811+02441101091ADDAA106000091AG10000GF102991999999008001999999MA1999999101041MD1999999-0061REMSYN011 333 59006;
0143833980999991997020212004-15667-038933FM-12+000599999V0202301N00101220001CN0100001N1+02831+02381101371ADDAA124003091AG10003AY161061AY221061GF104991041021008001001001KA1240N+02411MA1999999101321MD1999999+0121MW1021REMSYN023 333 20241 58012 60034;
0124833980999991997020218004-15667-038933FM-12+000599999V0200501N00101007501CN0040001N1+02741+02301101201ADDAA106000391AG10003AY161061AY201061GF108991061071008001071999MA1999999101111MD1999999+0001MW1601REMSYN017 333 58000 69931;
0134833980999991997020300004-15667-038933FM-12+000599999V0200901N00211045001CN9999999N9+02671+02221101261ADDAA106000091AG10000GF105991031051008001021001KA1240M+03031MA1999999101111MD1999999+0111REMSYN017 333 10303 58011;EQDQ01+000002VOVAR 
0143833980999991997020312004-15667-038933FM-12+000599999V0201401N00211045001CN0100001N1+02791+02271101301ADDAA124002091AG10003AY161061AY221061GF106991041051008001021001KA1240N+02091MA1999999101251MD1999999-0071MW1021REMSYN023 333 20209 59007 60024;
0096833980999991997020318004-15667-038933FM-12+000599999V0201401N00211045001CN0200001N1+02821+02291101121ADDAA106000091AG10000GF106991031051008001021001MA1999999101071MD1999999-0081REMSYN011 333 59008;
0096833980999991997020418004-15667-038933FM-12+000599999V0202301N00101220001CN0200001N1+02901+02251101411ADDAA106000091AG10000GF102991021021008001001001MA1999999101031MD1999999+0111REMSYN011 333 58011;
0143833980999991997020512004-15667-038933FM-12+000599999V0200901N00261045001CN0100001N1+02751+02281101451ADDAA124018091AG10003AY161061AY221061GF106991031071008001041001KA1240N+02191MA1999999101401MD1999999+0011MW1511REMSYN023 333 20219 58001 60184;
0096833980999991997020518004-15667-038933FM-12+000599999V0202301N00211220001CN0200001N1+02821+02311101241ADDAA106000091AG10000GF102991021021008001001001MA1999999101191MD1999999-0171REMSYN011 333 59017;
0143833980999991997020612004-15667-038933FM-12+000599999V0201401N00311045001CN0100001N1+02861+02281101481ADDAA124007091AG10003AY161061AY221061GF105991031051008001041001KA1240N+02261MA1999999101431MD1999999+0031MW1021REMSYN023 333 20226 58003 60074;
0124833980999991997020618004-15667-038933FM-12+000599999V0201401N00101045001CN0100001N1+02851+02111101431ADDAA106003091AG10003AY161061AY221061GF105991031051008001051001MA1999999101381MD1999999+0191MW1021REMSYN017 333 58019 60031;
0143833980999991997020712004-15667-038933FM-12+000599999V0202301N00211007501CN0100001N1+02611+02251101531ADDAA124007091AG10003AY161061AY221061GF107991051051008001021001KA1240N+02201MA1999999101481MD1999999+0031MW1021REMSYN023 333 20220 58003 60074;
0096833980999991997020718004-15667-038933FM-12+000599999V0200901N00101220001CN0200001N1+02881+02261101381ADDAA106000091AG10000GF103991011021008001041001MA1999999101331MD1999999-0031REMSYN011 333 59003;
0143833980999991997020812004-15667-038933FM-12+000599999V0202301N00211045001CN0100001N1+02631+02351101541ADDAA124011091AG10009AY191061AY261061GF106991041051008001021001KA1240N+02171MA1999999101491MD1999999+0011MW1021REMSYN023 333 20217 58001 60114;
0096833980999991997020818004-15667-038933FM-12+000599999V0200901N00101045001CN0100001N1+02811+02171101351ADDAA106000091AG10000GF105991011051008001021001MA1999999101301MD1999999-0031REMSYN011 333 59003;
0134833980999991997020912004-15667-038933FM-12+000599999V0202301N01031045001CN9999999N9+02501+02251101431ADDAA106000091AG10000GF105991031051008001031001KA1240M+02911MA1999999101381MD1999999-0021REMSYN017 333 10291 59002;EQDQ01+000002VOVAR 
0143833980999991997021012004-15667-038933FM-12+000599999V0201801N00211007501CN0100001N1+02621+02351101541ADDAA124010091AG10003AY161061AY221061GF106991051051008001021001KA1240N+02161MA1999999101491MD1999999+0001MW1021REMSYN023 333 20216 58000 60104;
0124833980999991997021018004-15667-038933FM-12+000599999V0200501N00101007501CN0040001N1+02441+01881101691ADDAA106020091AG10003AY161061AY201061GF108991061071008001021999MA1999999101631MD1999999+0301MW1001REMSYN017 333 58030 60201;
0143833980999991997021112004-15667-038933FM-12+000599999V0202301N00101045001CN0100001N1+02751+02341101461ADDAA124030091AG10009AY191061AY261061GF106991041051008001041001KA1240N+02061MA1999999101411MD1999999-0081MW1021REMSYN023 333 20206 59008 60304;
0096833980999991997021118004-15667-038933FM-12+000599999V0200501N00101220001CN0100001N1+02721+02241101441ADDAA106000091AG10000GF104991021051008001021001MA1999999101391MD1999999-0241REMSYN011 333 59024;
0143833980999991997021212004-15667-038933FM-12+000599999V0202301N00211045001CN0100001N1+02651+02371101461ADDAA124002091AG10003AY161061AY221061GF106991041051008001041001KA1240N+02291MA1999999101411MD1999999+0001MW1021REMSYN023 333 20229 58000 60024;
0096833980999991997021218004-15667-038933FM-12+000599999V0200901N00211045001CN0200001N1+02881+02261101291ADDAA106000091AG10000GF106991011051008001051001MA1999999101241MD1999999-0151REMSYN011 333 59015;
0143833980999991997021312004-15667-038933FM-12+000599999V0201801N00101045001CN0100001N1+02621+02351101461ADDAA124020091AG10003AY161061AY221061GF106991041051008001021001KA1240N+02191MA1999999101411MD1999999+0001MW1601REMSYN023 333 20219 58000 60204;
0124833980999991997021318004-15667-038933FM-12+000599999V0200901N00211045001CN0100001N1+02861+02311101361ADDAA106003091AG10003AY161061AY221061GF106991041051008001021001MA1999999101311MD1999999+0071MW1021REMSYN017 333 58007 60031;
0143833980999991997021412004-15667-038933FM-12+000599999V0202701N00101007501CN0040001N1+02401+02231101541ADDAA124014091AG10003AY161061AY221061GF108991051051008001021999KA1240N+02251MA1999999101491MD1999999+0081MW1601REMSYN023 333 20225 58008 60144;
0096833980999991997021518004-15667-038933FM-12+000599999V0200501N00101220001CN0200001N1+02821+02241101261ADDAA106000091AG10000GF104991041021008001001001MA1999999101211MD1999999-0031REMSYN011 333 59003;
0143833980999991997021612004-15667-038933FM-12+000599999V0202301N00211045001CN0100001N1+02721+02301101421ADDAA124007091AG10009AY191061AY261061GF106991031051008001041001KA1240N+02171MA1999999101371MD1999999-0051MW1011REMSYN023 333 20217 59005 60074;
0096833980999991997021618004-15667-038933FM-12+000599999V0200901N00211220001CN0200001N1+02861+02311101171ADDAA106000091AG10000GF102991021021008001001001MA1999999101121MD1999999-0191REMSYN011 333 59019;
0096833980999991997021718004-15667-038933FM-12+000599999V0200501N00211220001CN0200001N1+02901+02271101291ADDAA106000091AG10000GF102991021021008001001001MA1999999101241MD1999999+0121REMSYN011 333 58012;
0143833980999991997021812004-15667-038933FM-12+000599999V0200901N00311045001CN0100001N1+02731+02361101551ADDAA124004091AG10009AY191061AY261061GF106991041051008001021001KA1240N+02271MA1999999101501MD1999999+0071MW1011REMSYN023 333 20227 58007 60044;
0124833980999991997021818004-15667-038933FM-12+000599999V0200501N00101007501CN0100001N1+02811+02441101371ADDAA106002091AG10003AY161061AY221061GF108991061051008001021999MA1999999101311MD1999999+0071MW1021REMSYN017 333 58007 60021;
0143833980999991997021912004-15667-038933FM-12+000599999V0200501N00211045001CN0100001N1+02921+02361101471ADDAA124002091AG10000AY151061AY221061GF105991031021008001041001KA1240N+02251MA1999999101421MD1999999-0081MW1011REMSYN023 333 20225 59008 60024;
0096833980999991997021918004-15667-038933FM-12+000599999V0201401N00211220001CN0200001N1+02971+02251101391ADDAA106000091AG10000GF102991021021008001001001MA1999999101341MD1999999+0031REMSYN011 333 58003;
0124833980999991997022018004-15667-038933FM-12+000599999V0200501N00211045001CN0200001N1+02821+02331101221ADDAA106003091AG10003AY161061AY221061GF105991031051008001021001MA1999999101161MD1999999-0181MW1021REMSYN017 333 59018 60031;
0134833980999991997022100004-15667-038933FM-12+000599999V0200501N00211007501CN9999999N9+02601+02391101491ADDAA106000091AG10000GF108991051051008001021999KA1240M+02941MA1999999101441MD1999999+0161REMSYN017 333 10294 58016;EQDQ01+000002VOVAR 
0124833980999991997022118004-15667-038933FM-12+000599999V0200501N00211045001CN0200001N1+02821+02311101431ADDAA106001091AG10003AY161061AY221061GF105991031051008001021001MA1999999101381MD1999999+0221MW1021REMSYN017 333 58022 60011;
0115833980999991997022218004-15667-038933FM-12+000599999V0200901N00101220001CN0200001N1+02881+02321101471ADDAA106000091AG10000GF102991021021008001001001MA1999999101421MD1999999+0041REMSYN011 333 58004;EQDQ01+999990APOSP 
0143833980999991997022312004-15667-038933FM-12+000599999V0202301N00211045001CN0100001N1+02771+02361101571ADDAA124003091AG10003AY161061AY221061GF105991031051008001041001KA1240N+02251MA1999999101521MD1999999-0061MW1021REMSYN023 333 20225 59006 60034;
0096833980999991997022318004-15667-038933FM-12+000599999V0200501N00101220001CN0200001N1+02891+02211101231ADDAA106000091AG10000GF102991021011008001001001MA1999999101181MD1999999-0241REMSYN011 333 59024;
0115833980999991997022412004-15667-038933FM-12+000599999V0202301N00211045001CN0100001N1+02811+02361101261ADDAA106000091AG10000GF106991041021008001041001KA1240N+02231MA1999999101211MD1999999-0311REMSYN017 333 20223 59031;
0096833980999991997022418004-15667-038933FM-12+000599999V0200501N00211220001CN0200001N1+02921+02291100981ADDAA106000091AG10000GF104991031021008001001011MA1999999100931MD1999999-0251REMSYN011 333 59025;
0143833980999991997022512004-15667-038933FM-12+000599999V0209991C00001045001CN0200001N1+02841+02341101131ADDAA124001091AG10003AY161061AY221061GF106991041051008001041001KA1240N+02301MA1999999101081MD1999999-0131MW1021REMSYN023 333 20230 59013 60014;
0062833980999991997022518004-15667-038933FM-12+000599999V0200501N00211045001CN0100001N1+02771+02381101011ADDAA106000091AG10000GF106991031051008001041001MA1999999100951
0096833980999991997022718004-15667-038933FM-12+000599999V0200501N00311045001CN0100001N1+02931+02401100951ADDAA106000091AG10000GF105991041051008001021001MA1999999100901MD1999999-0041REMSYN011 333 59004;
0143833980999991997022812004-15667-038933FM-12+000599999V0202301N00101004201CN0040001N1+02491+02391101121ADDAA124053091AG10009AY191061AY261061GF108991051071004501021999KA1240N+02221MA1999999101071MD1999999-0021MW1621REMSYN023 333 20222 59002 60534;
0115833980999991997030112004-15667-038933FM-12+000599999V0203601N00311007501CN0100001N1+02861+02391100951ADDAA106000091AG10000GF107991051051008001021001KA1240N+02371MA1999999100901MD1999999-0171REMSYN017 333 20237 59017;
0096833980999991997030118004-15667-038933FM-12+000599999V0200501N00311045001CN0100001N1+02941+02361100701ADDAA106000091AG10000GF105991031051008001021001MA1999999100651MD1999999+0251REMSYN011 333 58025;
0162833980999991997030312004-15667-038933FM-12+000599999V0203601N00211007501CN0040001N1+02591+02291101181ADDAA124030091AG10008AY191061AY261061GF108991999051008001051999KA1240N+02221MA1999999101131MD1999999+0131MW1021REMSYN023 333 20222 58013 60304;EQDQ01+000082SCOTLC
0124833980999991997030318004-15667-038933FM-12+000599999V0200501N00211045001CN0100001N1+02761+02191101001ADDAA106000191AG10000AY151061AY221061GF108991041051008001041999MA1999999100951MD1999999-0071MW1021REMSYN017 333 59007 69911;
0143833980999991997030412004-15667-038933FM-12+000599999V0209991C00001004201CN0020001N1+02391+02231101491ADDAA124029091AG10008AY191061AY261061GF108991051071004501021999KA1240N+02261MA1999999101441MD1999999+0311MW1621REMSYN023 333 20226 58031 60294;
0124833980999991997030418004-15667-038933FM-12+000599999V0203601N00411007501CN0040001N1+02731+02341101201ADDAA106003091AG10003AY161061AY221061GF108991051071008001021999MA1999999101151MD1999999+0201MW1611REMSYN017 333 58020 60031;
0096833980999991997030518004-15667-038933FM-12+000599999V0200901N00101220001CN0100001N1+02861+02441101201ADDAA106000091AG10000GF104991021021008001051001MA1999999101111MD1999999+0001REMSYN011 333 58000;
0162833980999991997030600004-15667-038933FM-12+000599999V0209991C00001004201CN9999999N9+02461+02271101321ADDAA106003091AG10003AY161061AY221061GF106991051071004501021001KA1240M+02911MA1999999101271MD1999999-0011MW1621REMSYN023 333 10291 59001 60031;EQDQ01+000002VOVAR 
0143833980999991997030612004-15667-038933FM-12+000599999V0201401N00311045001CN0100001N1+02801+02221101351ADDAA124011091AG10003AY161061AY221061GF106991021051008001041011KA1240N+02161MA1999999101301MD1999999-0111MW1021REMSYN023 333 20216 59011 60114;
0096833980999991997030618004-15667-038933FM-12+000599999V0200901N00311105001CN0200001N1+02861+02111101111ADDAA106000091AG10000GF105991021021008001041011MA1999999101061MD1999999-0091REMSYN011 333 59009;
0134833980999991997030712004-15667-038933FM-12+000599999V0209991C00001220001CN0200001N1+02691+02351101371ADDAA106000091AG10000GF103991031021008001001001KA1240N+02221MA1999999101321MD1999999+0021REMSYN017 333 20222 58002;EQDQ01+999990APOSP 
0096833980999991997030718004-15667-038933FM-12+000599999V0200901N00101220001CN0200001N1+02901+02201101331ADDAA106000091AG10000GF102991021021008001001001MA1999999101281MD1999999+0221REMSYN011 333 58022;
0134833980999991997030800004-15667-038933FM-12+000599999V0209991C00001220001CN9999999N9+02671+02241101401ADDAA106000091AG10000GF102991021021008001001011KA1240M+02951MA1999999101351MD1999999+0191REMSYN017 333 10295 58019;EQDQ01+000002VOVAR 
0104833980999991997030903004-15667-038933FM-12+000599999V0200901N00461220001CN0200001N1+02721+02351101221ADDAG10000GF104991041051008001001001MA1999999101171MD1999999+0051REMSYN011 333 58005;EQDQ01+999990APOSP 
0143833980999991997030912004-15667-038933FM-12+000599999V0202301N00101007501CN0040001N1+02451+02321101511ADDAA124016091AG10008AY191061AY261061GF108991061051008001021999KA1240N+02241MA1999999101461MD1999999+0081MW1021REMSYN023 333 20224 58008 60164;
0124833980999991997030918004-15667-038933FM-12+000599999V0201401N00101007501CN0100001N1+02741+02261101301ADDAA106002091AG10003AY161061AY221061GF107991051051008001021001MA1999999101251MD1999999-0021MW1021REMSYN017 333 59002 60021;
0143833980999991997031012004-15667-038933FM-12+000599999V0201401N00101007501CN0200001N1+02801+02461101481ADDAA124012091AG10003AY161061AY221061GF105991051051008001001001KA1240N+02221MA1999999101431MD1999999-0051MW1021REMSYN023 333 20222 59005 60124;
0096833980999991997031018004-15667-038933FM-12+000599999V0201801N00101045001CN0100001N1+02681+02241101291ADDAA106000091AG10000GF106991021051008001051001MA1999999101241MD1999999-0011REMSYN011 333 59001;
0134833980999991997031100004-15667-038933FM-12+000599999V0209991C00001220001CN9999999N9+02541+02171101461ADDAA106000091AG10000GF103991031051008001001001KA1240M+02891MA1999999101411MD1999999-0071REMSYN017 333 10289 59007;EQDQ01+000002VOVAR 
0143833980999991997031112004-15667-038933FM-12+000599999V0202301N00101007501CN0100001N1+02511+02361101491ADDAA124005091AG10003AY161061AY221061GF107991051051008001021001KA1240N+02301MA1999999101441MD1999999+0011MW1021REMSYN023 333 20230 58001 60054;
0124833980999991997031118004-15667-038933FM-12+000599999V0201401N00101220001CN0100001N1+02901+02321101351ADDAA106002091AG10000AY151061AY221061GF104991041021008001001001MA1999999101301MD1999999-0061MW1021REMSYN017 333 59006 60021;
0134833980999991997031200004-15667-038933FM-12+000599999V0209991C00001220001CN9999999N9+02481+02341101481ADDAA106000091AG10000GF103991031011008001001001KA1240M+02881MA1999999101471MD1999999+0021REMSYN017 333 10288 58002;EQDQ01+000002VOVAR 
0124833980999991997031218004-15667-038933FM-12+000599999V0203201N00101007501CN0040001N1+02341+02181101401ADDAA106006091AG10003AY161061AY221061GF108991061071008001021999MA1999999101351MD1999999+0051MW1021REMSYN017 333 58005 60061;
0134833980999991997031300004-15667-038933FM-12+000599999V0209991C00001045001CN9999999N9+02261+02101101571ADDAA106000091AG10000GF106991041051008001021001KA1240M+02721MA1999999101521MD1999999+0091REMSYN017 333 10272 58009;EQDQ01+000002VOVAR 
0134833980999991997031400004-15667-038933FM-12+000599999V0200501N00101220001CN9999999N9+02621+02241101661ADDAA106000091AG10000GF102991021021008001001001KA1240M+02931MA1999999101601MD1999999+0081REMSYN017 333 10293 58008;EQDQ01+000002VOVAR 
0096833980999991997031418004-15667-038933FM-12+000599999V0200501N00101220001CN0200001N1+02891+02321101281ADDAA106000091AG10000GF102991021021008001001001MA1999999101331MD1999999-0161REMSYN011 333 59016;
0134833980999991997031500004-15667-038933FM-12+000599999V0203601N00101220001CN9999999N9+02671+02261101441ADDAA106000091AG10000GF102991021021008001001011KA1240M+02941MA1999999101391MD1999999-0121REMSYN017 333 10294 59012;EQDQ01+000002VOVAR 
0115833980999991997031512004-15667-038933FM-12+000599999V0203201N00101220001CN0200001N1+02811+02331101341ADDAA106000091AG10000GF104991041051008001001001KA1240N+02161MA1999999101291MD1999999-0231REMSYN017 333 20216 59023;
0096833980999991997031518004-15667-038933FM-12+000599999V0200501N00211220001CN0200001N1+02911+02291101421ADDAA106000091AG10000GF102991021021008001001001MA1999999101371MD1999999-0021REMSYN011 333 59002;
0096833980999991997031618004-15667-038933FM-12+000599999V0200501N00311220001CN0200001N1+02901+02271100641ADDAA106000091AG10000GF103991031021008001051001MA1999999100591MD1999999-0781REMSYN011 333 59078;
0162833980999991997031712004-15667-038933FM-12+000599999V0200501N00101007501CN0040001N1+02611+02311100901ADDAA124001091AG10003AY161061AY201061GF108991999021008001001001KA1240N+02461MA1999999100851MD1999999-0121MW1601REMSYN023 333 20246 59012 60014;EQDQ01+000062SCOTLC
0124833980999991997031718004-15667-038933FM-12+000599999V0203201N00211007501CN0040001N1+02631+02421100581ADDAA106002091AG10003AY161061AY201061GF108991061071008001021001MA1999999100531MD1999999-0031MW1601REMSYN017 333 59003 60021;
0124833980999991997031818004-15667-038933FM-12+000599999V0203201N00151012001CN0040001N1+02321+02161100851ADDAA106150091AG10003AY161061AY201061GF108991061071012501021999MA1999999100801MD1999999+0271MW1601REMSYN017 333 58027 61501;
0126833980999991997031912004-15667-038933FM-12+000599999V0202301N00101007501CN0040001N1+02291+02161101251ADDAG10003AY161061AY221061GF108991061051008001021999KA1240N+02171MA1999999101201MD1999999+0351MW1021REMSYN017 333 20217 58035;
0096833980999991997031918004-15667-038933FM-12+000599999V0202701N00101007501CN0100001N1+02781+02181100971ADDAA106000091AG10000GF108991061051008001021999MA1999999100921MD1999999+0121REMSYN011 333 58012;
0134833980999991997032000004-15667-038933FM-12+000599999V0209991C00001007501CN9999999N9+02541+02381101181ADDAA106000091AG10000GF108991061051008001021999KA1240M+02781MA1999999101131MD1999999-0261REMSYN017 333 10278 59026;EQDQ01+000002VOVAR 
0115833980999991997032012004-15667-038933FM-12+000599999V0200501N00101007501CN0040001N1+02491+02251101281ADDAA106000091AG10000GF108991061051008001021999KA1240N+02251MA1999999101231MD1999999+0031REMSYN017 333 20225 58003;
0143833980999991997032112004-15667-038933FM-12+000599999V0202701N00101007501CN0040001N1+02421+02331101121ADDAA124016091AG10000AY121061AY261061GF108991071061008001021999KA1240N+02201MA1999999101071MD1999999-0161MW1601REMSYN023 333 20220 59016 60164;
0124833980999991997032118004-15667-038933FM-12+000599999V0201801N00101007501CN0040001N1+02441+02301100981ADDAA106001091AG10003AY161061AY201061GF108991061071008001021999MA1999999100931MD1999999+0041MW1601REMSYN017 333 58004 60011;
0143833980999991997032212004-15667-038933FM-12+000599999V0200501N00101007501CN0040001N1+02431+02271101141ADDAA124002091AG10000AY151061AY221061GF108991061051008001021999KA1240N+02181MA1999999101181MD1999999+0011MW1021REMSYN023 333 20218 58001 60024;
0143833980999991997032312004-15667-038933FM-12+000599999V0203201N00101012001CN0040001N1+02411+02331101331ADDAA124058091AG10003AY161061AY201061GF108991061071012501021999KA1240N+02101MA1999999101281MD1999999+0201MW1601REMSYN023 333 20210 58020 60584;
0096833980999991997032318004-15667-038933FM-12+000599999V0200501N00211007501CN0100001N1+02671+02351101291ADDAA106000091AG10000GF107991051051008001021001MA1999999101241MD1999999+0471REMSYN011 333 58047;
0143833980999991997032412004-15667-038933FM-12+000599999V0203201N00211007501CN0100001N1+02621+02411100941ADDAA124034091AG10003AY161061AY221061GF107991061051008001021001KA1240N+02241MA1999999100891MD1999999-0391MW1021REMSYN023 333 20224 59039 60344;
0096833980999991997032418004-15667-038933FM-12+000599999V0200501N00311045001CN0100001N1+02701+02301100681ADDAA106000091AG10000GF106991011021008001051001MA1999999100631MD1999999-0161REMSYN011 333 59016;
0134833980999991997032500004-15667-038933FM-12+000599999V0209991C00001007501CN9999999N9+02571+02371101011ADDAA106000091AG10000GF108991061051008001021999KA1240M+02841MA1999999100961MD1999999+0181REMSYN017 333 10284 58018;EQDQ01+000002VOVAR 
0107833980999991997032518004-15667-038933FM-12+000599999V0200501N00101007501CN0100001N1+02851+02371100711ADDAG10003AY161061AY221061GF106991061051008001051001MA1999999100661MD1999999+0031MW1021REMSYN011 333 58003;
0162833980999991997032600004-15667-038933FM-12+000599999V0203201N00101007501CN9999999N9+02471+02361101041ADDAA106000191AG10008AY191061AY261061GF108991061071008001021999KA1240M+02861MA1999999100991MD1999999+0031MW1601REMSYN023 333 10286 58003 69921;EQDQ01+000002VOVAR 
0124833980999991997032618004-15667-038933FM-12+000599999V0201401N00101007501CN0040001N1+02741+02321100851ADDAA106012091AG10003AY161061AY221061GF108991061051008001021999MA1999999100801MD1999999+0141MW1021REMSYN017 333 58014 60121;
0132833980999991997032712004-15667-038933FM-12+000599999V0201801N00311045001CN0100001N1+02651+02291101231ADDAA106000091AA224012091AG10000GF108991021051008001031011KA1240N+02141MA1999999101181MD1999999+0161REMSYN023 333 20214 58016 60124;
0096833980999991997032718004-15667-038933FM-12+000599999V0201801N00311045001CN0100001N1+02671+02291101041ADDAA106000091AG10000GF106991041051008001021001MA1999999100991MD1999999+0191REMSYN011 333 58019;
0134833980999991997032800004-15667-038933FM-12+000599999V0209991C00001045001CN9999999N9+02401+02301101281ADDAA106000091AG10000GF106991031051008001031001KA1240M+02871MA1999999101231MD1999999+0111REMSYN017 333 10287 58011;EQDQ01+000002VOVAR 
0096833980999991997032818004-15667-038933FM-12+000599999V0201401N00411105001CN0200001N1+02881+02301101201ADDAA106000091AG10000GF105991021051008001041011MA1999999101151MD1999999+0161REMSYN011 333 58016;
0134833980999991997032900004-15667-038933FM-12+000599999V0201801N00211220001CN9999999N9+02461+02301101471ADDAA106000091AG10000GF104991021051008001031001KA1240M+02911MA1999999101421MD1999999+0191REMSYN017 333 10291 58019;EQDQ01+000002VOVAR 
0123833980999991997032912004-15667-038933FM-12+000599999V0202301N00101007501CN0040001N1+02461+02211101441ADDAA124003091AG10003AY161061AY221061GF108991061051008001021999KA1240N+02201MA1999999101391MW1021REMSYN017 333 20220 60034;
0143833980999991997033012004-15667-038933FM-12+000599999V0201801N00101007501CN0040001N1+02521+02341101631ADDAA124007091AG10003AY161061AY221061GF108991051051008001021999KA1240N+02231MA1999999101581MD1999999+0191MW1021REMSYN023 333 20223 58019 60074;
0096833980999991997033018004-15667-038933FM-12+000599999V0201401N00311045001CN0100001N1+02821+02291101091ADDAA106000091AG10000GF107991041051008001041011MA1999999101041MD1999999-0141REMSYN011 333 59014;
0143833980999991997033112004-15667-038933FM-12+000599999V0203601N00101045001CN0100001N1+02791+02311101551ADDAA124007091AG10003AY161061AY221061GF106991031051008001041011KA1240N+02271MA1999999101501MD1999999-0081MW1021REMSYN023 333 20227 59008 60074;
0096833980999991997033118004-15667-038933FM-12+000599999V0200501N00311045001CN0200001N1+02821+02441101241ADDAA106000091AG10000GF106991041051008001041011MA1999999101191MD1999999+0151REMSYN011 333 58015;
0134833980999991997040100004-15667-038933FM-12+000599999V0200501N00211045001CN9999999N9+02621+02251101461ADDAA106000091AG10000GF105991031051008001031001KA1240M+02871MA1999999101411MD1999999-0011REMSYN017 333 10287 59001;EQDQ01+000002VOVAR 
0115833980999991997040112004-15667-038933FM-12+000599999V0200901N00311045001CN0100001N1+02801+02271101551ADDAA106000091AG10000GF106991031051008001041011KA1240N+02201MA1999999101501MD1999999+0001REMSYN017 333 20220 58000;
0096833980999991997040118004-15667-038933FM-12+000599999V0200901N00101045001CN0100001N1+02831+02311101421ADDAA106000091AG10000GF106991041021008001041001MA1999999101371MD1999999-0041REMSYN011 333 59004;
0134833980999991997040200004-15667-038933FM-12+000599999V0200501N00211045001CN9999999N9+02621+02251101521ADDAA106000091AG10000GF105991021051008001031001KA1240M+02871MA1999999101471MD1999999+0061REMSYN017 333 10287 58006;EQDQ01+000002VOVAR 
0096833980999991997040218004-15667-038933FM-12+000599999V0200901N00211045001CN0100001N1+02841+02351101291ADDAA106000091AG10000GF106991031051008001041011MA1999999101241MD1999999-0131REMSYN011 333 59013;
0081833980999991997040312004-15667-038933FM-12+000599999V0200901N002619999999N0200001N1+02101+02021101511ADDAA106000091AG10000GF106991999001004501001001MA1999999091741EQDQ01+000012SCOTLC
0115833980999991997040318004-15667-038933FM-12+000599999V0200501N00311105001CN0200001N1+02891+02121101131ADDAA106000091AG10000GF105991021021008001041011MA1999999101082MD1999999-0161REMSYN011 333 59016;EQDQ01+101083APOSP 
0134833980999991997040400004-15667-038933FM-12+000599999V0200501N00211220001CN9999999N9+02621+02101101241ADDAA106000091AG10000GF104991021011008001031001KA1240M+02931MA1999999101191MD1999999-0141REMSYN017 333 10293 59014;EQDQ01+000002VOVAR 
0115833980999991997040412004-15667-038933FM-12+000599999V0203601N00211220001CN0100001N1+02801+02131101431ADDAA106000091AG10000GF104991011021008001041011KA1240N+02151MA1999999101381MD1999999-0011REMSYN017 333 20215 59001;
0096833980999991997040418004-15667-038933FM-12+000599999V0200501N00311220001CN0200001N1+02881+02081101121ADDAA106000091AG10000GF104991021021008001041011MA1999999101071MD1999999-0011REMSYN011 333 59001;
0115833980999991997040512004-15667-038933FM-12+000599999V0203201N00211045001CN0100001N1+02811+02381101341ADDAA106000091AG10000GF106991031051008001041001KA1240N+02211MA1999999091301MD1999999-0091REMSYN017 333 20221 59009;
0047833980999991997040518004-15667-038933FM-12+000599999V0200501N003119999999N0200001N1+02931+02241999999ADDAA106000091AG10000GF105991999999008001999999
0134833980999991997040600004-15667-038933FM-12+000599999V0200501N00211220001CN9999999N9+02661+02311101301ADDAA106000091AG10000GF103991021011008001031001KA1240M+03061MA1999999101251MD1999999+0021REMSYN017 333 10306 58002;EQDQ01+000002VOVAR 
0115833980999991997040612004-15667-038933FM-12+000599999V0201401N00411045001CN0040001N1+02781+02271101501ADDAA106000091AG10000GF106991041051008001041001KA1240N+02291MA1999999101451MD1999999+0161REMSYN017 333 20229 58016;
0096833980999991997040618004-15667-038933FM-12+000599999V0200901N00311045001CN0200001N1+02881+02371101221ADDAA106000091AG10000GF106991041051008001041011MA1999999101171MD1999999+0191REMSYN011 333 58019;
0134833980999991997040700004-15667-038933FM-12+000599999V0201401N00211045001CN9999999N9+02681+02241101481ADDAA106000091AG10000GF105991031011008001031001KA1240M+02971MA1999999101421MD1999999+0181REMSYN017 333 10297 58018;EQDQ01+000002VOVAR 
0143833980999991997040712004-15667-038933FM-12+000599999V0201801N00211045001CN0040001N1+02551+02361101591ADDAA124022091AG10007AY191061AY261061GF106991041051008001041001KA1240N+02261MA1999999101541MD1999999+0091MW1521REMSYN023 333 20226 58009 60224;
0124833980999991997040718004-15667-038933FM-12+000599999V0201401N00411045001CN0040001N1+02691+02301101321ADDAA106002091AG10002AY161061AY221061GF107991041071008001021001MA1999999101271MD1999999+0101MW1501REMSYN017 333 58010 60021;
0134833980999991997040800004-15667-038933FM-12+000599999V0201801N00311045001CN9999999N9+02581+02331101581ADDAA106000091AG10000GF106991031051008001021001KA1240M+02871MA1999999101531MD1999999+0101REMSYN017 333 10287 58010;EQDQ01+000002VOVAR 
0143833980999991997040812004-15667-038933FM-12+000599999V0201801N00411007501CN0040001N1+02541+02251101631ADDAA124008091AG10007AY191061AY261061GF107991051051008001021001KA1240N+02191MA1999999101571MD1999999+0031MW1021REMSYN023 333 20219 58003 60084;
0124833980999991997040818004-15667-038933FM-12+000599999V0201801N00311007501CN0100001N1+02561+02381101281ADDAA106023091AG10002AY161061AY221061GF108991051051008001021999MA1999999101231MD1999999-0041MW1021REMSYN017 333 59004 60231;
0143833980999991997040912004-15667-038933FM-12+000599999V0201801N00311004201CN0040001N1+02381+02191101611ADDAA124061091AG10002AY161061AY221061GF108991051071004501021999KA1240N+02191MA1999999101551MD1999999-0021MW1611REMSYN023 333 20219 59002 60614;
0124833980999991997040918004-15667-038933FM-12+000599999V0201801N00511045001CN0100001N1+02661+01921101351ADDAA106003091AG10002AY161061AY221061GF106991031051008001041001MA1999999101301MD1999999+0071MW1021REMSYN017 333 58007 60031;
0121833980999991997041012004-15667-038933FM-12+000599999V0203301N00211045001CN0100001N1+02541+02041101551ADDAA124003091AG10000GF105991021021008001041001KA1240N+02021MA1999999101501MD1999999-0051REMSYN023 333 20202 59005 60034;
0096833980999991997041018004-15667-038933FM-12+000599999V0201801N00511045001CN0100001N1+02681+02061101371ADDAA106000091AG10000GF106991041051008001021001MA1999999101321MD1999999+0021REMSYN011 333 58002;
0134833980999991997041100004-15667-038933FM-12+000599999V0202301N00211220001CN9999999N9+02321+02051101601ADDAA106000091AG10000GF104991031011008001031001KA1240M+02821MA1999999101551MD1999999+0081REMSYN017 333 10282 58008;EQDQ01+000002VOVAR 
0132833980999991997041112004-15667-038933FM-12+000599999V0201801N00311045001CN0100001N1+02521+99999101641ADDAG10002AY161061AY221061GF106991031021008001041001KA1240N+01991MA1999999101571MD1999999+0071MW1021REMSYN023 333 20199 58007 50024;
0096833980999991997041118004-15667-038933FM-12+000599999V0201801N00411045001CN0200001N1+02741+01951101351ADDAA106000091AG10000GF105991031021008001041011MA1999999101301MD1999999-0021REMSYN011 333 59002;
0134833980999991997041200004-15667-038933FM-12+000599999V0202301N00211220001CN9999999N9+02161+02021101521ADDAA106000091AG10000GF104991021011008001031001KA1240M+02811MA1999999101471MD1999999-0081REMSYN017 333 10281 59008;EQDQ01+000002VOVAR 
0115833980999991997041212004-15667-038933FM-12+000599999V0201801N00211045001CN0100001N1+02561+01981101401ADDAA106000091AG10000GF105991021011008001041001KA1240N+01971MA1999999101351MD1999999-0221REMSYN017 333 20197 59022;
0134833980999991997041300004-15667-038933FM-12+000599999V0200501N00211220001CN9999999N9+02481+01941101191ADDAA106000091AG10000GF104991021011008001041011KA1240M+02841MA1999999101141MD1999999-0231REMSYN017 333 10284 59023;EQDQ01+000002VOVAR 
0115833980999991997041312004-15667-038933FM-12+000599999V0203201N00211220001CN0100001N1+02801+02221101201ADDAA106000091AG10000GF104991031021008001041001KA1240N+01991MA1999999101151MD1999999-0201REMSYN017 333 20199 59020;
0134833980999991997041400004-15667-038933FM-12+000599999V0203201N00101045001CN9999999N9+02401+02261101171ADDAA106000091AG10000GF105991021011008001031001KA1240M+02871MA1999999101121MD1999999-0021REMSYN017 333 10287 59002;EQDQ01+000002VOVAR 
0115833980999991997041412004-15667-038933FM-12+000599999V0203201N00101045001CN0100001N1+02741+02341101461ADDAA106000091AG10000GF106991031051008001041001KA1240N+02181MA1999999101311MD1999999+0161REMSYN017 333 20218 58016;
0096833980999991997041418004-15667-038933FM-12+000599999V0200501N00311045001CN0200001N1+02821+02201101131ADDAA106000091AG10000GF106991021051008001041011MA1999999101081MD1999999+0181REMSYN011 333 58018;
0134833980999991997041500004-15667-038933FM-12+000599999V0200501N00211045001CN9999999N9+02591+02191101371ADDAA106000091AG10000GF105991031011008001031001KA1240M+02871MA1999999101321MD1999999+0201REMSYN017 333 10287 58020;EQDQ01+000002VOVAR 
0096833980999991997041518004-15667-038933FM-12+000599999V0200901N00311045001CN0200001N1+02821+02201101281ADDAA106000091AG10000GF106991031021008001041001MA1999999091231MD1999999+0151REMSYN011 333 58015;
0096833980999991997041618004-15667-038933FM-12+000599999V0201401N00311045001CN0100001N1+02801+02221101391ADDAA106000091AG10000GF107991031051008001041001MA1999999101341MD1999999+0111REMSYN011 333 58011;
0134833980999991997041700004-15667-038933FM-12+000599999V0202701N00101045001CN9999999N9+02261+02121101511ADDAA106000091AG10000GF106991031011008001041001KA1240M+02891MA1999999101461MD1999999-0021REMSYN017 333 10289 59002;EQDQ01+000002VOVAR 
0115833980999991997041712004-15667-038933FM-12+000599999V0202301N00211045001CN0100001N1+02651+02241101581ADDAA106000091AG10000GF107991031051008001041011KA1240N+02101MA1999999101531MD1999999-0131REMSYN017 333 20210 59013;
0096833980999991997041718004-15667-038933FM-12+000599999V0201401N00211045001CN0200001N1+02771+02111101321ADDAA106000091AG10000GF107991021051008001041011MA1999999101271MD1999999-0071REMSYN011 333 59007;
0134833980999991997041800004-15667-038933FM-12+000599999V0202301N00101045001CN9999999N9+02391+02211101441ADDAA106000091AG10000GF106991041051008001021001KA1240M+02881MA1999999101391MD1999999-0071REMSYN017 333 10288 59007;EQDQ01+000002VOVAR 
0143833980999991997041812004-15667-038933FM-12+000599999V0201801N00311045001CN0040001N1+02561+02311101451ADDAA124002091AG10002AY161061AY221061GF107991031071008001021001KA1240N+02191MA1999999101401MD1999999-0131MW1501REMSYN023 333 20219 59013 60024;
0124833980999991997041818004-15667-038933FM-12+000599999V0203601N00211004201CN0040001N1+02321+02201101281ADDAA106007091AG10002AY161061AY221061GF108991051071004501021001MA1999999101231MD1999999-0041MW1601REMSYN017 333 59004 60071;
0162833980999991997041900004-15667-038933FM-12+000599999V0203201N00211004201CN9999999N9+02301+99999101431ADDAA106003091AG10002AY161061AY221061GF108991081071004501999999KA1240M+02791MA1999999101381MD1999999-0011MW1601REMSYN023 333 10279 59001 60031;EQDQ01+000002VOVAR 
0162833980999991997041912004-15667-038933FM-12+000599999V0200901N00311004201CN0020001N1+02461+02271101481ADDAA124057091AG10002AY161061AY221061GF108991081071004501999999KA1240N+02191MA1999999101421MD1999999+0031MW1521REMSYN023 333 20219 58003 60574;EQDQ01+999990APOSP 
0124833980999991997041918004-15667-038933FM-12+000599999V0203601N00211007501CN0040001N1+02381+02211101191ADDAA106003091AG10002AY161061AY221061GF108991051051008001021999MA1999999101141MD1999999-0091MW1021REMSYN017 333 59009 60031;
0143833980999991997042012004-15667-038933FM-12+000599999V0202301N00311007501CN0040001N1+02451+02281101501ADDAA124013091AG10002AY161061AY221061GF108991051051008001021999KA1240N+02161MA1999999101451MD1999999+0031MW1021REMSYN023 333 20216 58003 60134;
0124833980999991997042018004-15667-038933FM-12+000599999V0200901N00311045001CN0100001N1+02611+02271101171ADDAA106001091AG10002AY161061AY221061GF106991041051008001021001MA1999999101121MD1999999-0021MW1021REMSYN017 333 59002 60011;
0121833980999991997042112004-15667-038933FM-12+000599999V0200501N00211045001CN0020001N1+02741+02171101381ADDAA124001091AG10000GF106991041021008001041001KA1240N+02251MA1999999101331MD1999999-0121REMSYN023 333 20225 59012 60014;
0096833980999991997042118004-15667-038933FM-12+000599999V0200501N00311045001CN0100001N1+02741+02241101111ADDAA106000091AG10000GF106991031051008001041001MA1999999101061MD1999999-0061REMSYN011 333 59006;
0134833980999991997042200004-15667-038933FM-12+000599999V0203601N00101045001CN9999999N9+02601+02351101301ADDAA106000091AG10000GF106991041051008001021001KA1240M+02831MA1999999101251MD1999999-0031REMSYN017 333 10283 59003;EQDQ01+000002VOVAR 
0143833980999991997042212004-15667-038933FM-12+000599999V0200501N00211045001CN0200001N1+02781+02341101471ADDAA124000591AG10000AY151061AY221061GF105991031011008001041001KA1240N+02291MA1999999101421MD1999999+0091MW1011REMSYN023 333 20229 58009 69954;
0096833980999991997042218004-15667-038933FM-12+000599999V0200501N00211105001CN0200001N1+02921+02921101111ADDAA106000091AG10000GF105991021011008001041041MA1999999101061MD1999999+0001REMSYN011 333 58000;
0134833980999991997042300004-15667-038933FM-12+000599999V0200501N00101220001CN9999999N9+02621+02291101261ADDAA106000091AG10000GF104991021011008001041041KA1240M+02901MA1999999101311MD1999999-0041REMSYN017 333 10290 59004;EQDQ01+000002VOVAR 
0115833980999991997042312004-15667-038933FM-12+000599999V0202701N00101045001CN0100001N1+02721+02371101421ADDAA106000091AG10000GF106991041051008001041001KA1240N+02201MA1999999101371MD1999999-0051REMSYN017 333 20220 59005;
0096833980999991997042318004-15667-038933FM-12+000599999V0200901N00211045001CN0100001N1+02721+02301101091ADDAA106000091AG10000GF107991041051008001021001MA1999999101041MD1999999-0021REMSYN011 333 59002;
0140833980999991997042400004-15667-038933FM-12+000599999V0209991C00001007501CN9999999N9+02421+02151101311ADDAA106000591AG10000GF107991051051008001021001KA1240M+02891MA1999999101261MD1999999+0051REMSYN023 333 10289 58005 69941;EQDQ01+000002VOVAR 
0143833980999991997042412004-15667-038933FM-12+000599999V0202301N00211007501CN0040001N1+02481+02151101321ADDAA124005091AG10007AY191061AY261061GF107991051051008001021001KA1240N+02181MA1999999101271MD1999999-0101MW1021REMSYN023 333 20218 59010 60054;
0124833980999991997042418004-15667-038933FM-12+000599999V0201401N00311007501CN0040001N1+02681+02291100981ADDAA106001091AG10002AY161061AY221061GF107991051051008001021001MA1999999100931MD1999999-0111MW1021REMSYN017 333 59011 60011;
0162833980999991997042500004-15667-038933FM-12+000599999V0202701N00101045001CN9999999N9+02431+02341101231ADDAA106003091AG10002AY161061AY221061GF106991041051008001021001KA1240M+02741MA1999999101181MD1999999-0081MW1021REMSYN023 333 10274 59008 60031;EQDQ01+000002VOVAR 
0096833980999991997042518004-15667-038933FM-12+000599999V0202301N00101105001CN0200001N1+02881+02301100921ADDAA106000091AG10000GF105991021011008001041041MA1999999100781MD1999999-0061REMSYN011 333 59006;
0150833980999991997042600004-15667-038933FM-12+000599999V0200901N00101045001CN9999999N9+02721+02211101001ADDAA106000091AG10000GF105991031011008001041001KA1240M+02901MA1999999095882MD1999999-0231REMSYN017 333 10290 59023;EQDQ01+095883APOSP Q02+000002VOVAR 
0096833980999991997042618004-15667-038933FM-12+000599999V0203601N00211045001CN0100001N1+02871+02411100811ADDAA106000091AG10000GF106991031051008001041001MA1999999100761MD1999999-0111REMSYN011 333 59011;
0115833980999991997042712004-15667-038933FM-12+000599999V0203201N00101045001CN0100001N1+02731+02431101271ADDAA106000091AG10000GF106991031051008001041001KA1240N+02211MA1999999101221MD1999999+0101REMSYN017 333 20221 58010;
0096833980999991997042818004-15667-038933FM-12+000599999V0200901N00211045001CN0100001N1+02821+02291101261ADDAA106000091AG10000GF106991031051008001041001MA1999999101211MD1999999+0201REMSYN011 333 58020;
0134833980999991997043000004-15667-038933FM-12+000599999V0202701N00101045001CN9999999N9+02601+02231101411ADDAA106000091AG10000GF105991021051008001031001KA1240M+02881MA1999999101361MD1999999+0061REMSYN017 333 10288 58006;EQDQ01+000002VOVAR 
0096833980999991997043018004-15667-038933FM-12+000599999V0201401N00211007501CN0040001N1+02661+02261101251ADDAA106000091AG10000GF107991051051008001021001MA1999999101221MD1999999+0131REMSYN011 333 58013;
0134833980999991997050100004-15667-038933FM-12+000599999V0202301N00101045001CN9999999N9+02421+02281101501ADDAA106000091AG10000GF106991031051008001021001KA1240M+02701MA1999999101451MD1999999+0091REMSYN017 333 10270 58009;EQDQ01+000002VOVAR 
0154833980999991997050112004-15667-038933FM-12+000599999V0201801N00211045001CN0040001N1+02501+02331101551ADDAA106000091AA224001091AG10002AY161061AY221061GF106991041051008001021001KA1240N+02161MA1999999101501MD1999999-0051MW1021REMSYN023 333 20216 59005 60014;
0162833980999991997050200004-15667-038933FM-12+000599999V0202301N00101007501CN9999999N9+02391+02231101511ADDAA106015091AG10002AY161061AY221061GF107991051051008001021001KA1240M+02891MA1999999101461MD1999999+0011MW1021REMSYN023 333 10289 58001 60151;EQDQ01+000002VOVAR 
0143833980999991997050212004-15667-038933FM-12+000599999V0200901N00211105001CN0100001N1+02781+02251101741ADDAA124016091AG10000AY151061AY221061GF105991021011008001041041KA1240N+02241MA1999999101681MD1999999+0181MW1011REMSYN023 333 20224 58018 60164;
0124833980999991997050218004-15667-038933FM-12+000599999V0200901N00211045001CN0100001N1+02801+02151101451ADDAA106002091AG10002AY161061AY221061GF106991031051008001041011MA1999999101401MD1999999+0211MW1021REMSYN017 333 58021 60021;
0134833980999991997050300004-15667-038933FM-12+000599999V0209991C00001045001CN9999999N9+02381+02211101721ADDAA106000091AG10000GF105991031051008001021001KA1240M+02861MA1999999101661MD1999999+0201REMSYN017 333 10286 58020;EQDQ01+000002VOVAR 
0143833980999991997050312004-15667-038933FM-12+000599999V0201801N00211045001CN0100001N1+02521+02311101781ADDAA199019091AG10002AY161061AY221061GF106991041051008001041001KA1240N+02131MA1999999101721MD1999999+0041MW1021REMSYN023 333 20213 58004 60190;
0096833980999991997050418004-15667-038933FM-12+000599999V0201401N00311220001CN0200001N1+02911+02241101551ADDAA106000091AG10000GF104991041021008001001001MA1999999101501MD1999999-0011REMSYN011 333 59001;
0143833980999991997050512004-15667-038933FM-12+000599999V0202301N00101045001CN0040001N1+02411+02231101621ADDAA124013091AG10002AY161061AY221061GF106991041051008001021001KA1240N+02141MA1999999101561MD1999999-0101MW1021REMSYN023 333 20214 59010 60134;
0096833980999991997050518004-15667-038933FM-12+000599999V0201401N00211220001CN0200001N1+02881+02101101621ADDAA106000091AG10000GF103991031021008001001001MA1999999101561MD1999999+0061REMSYN011 333 58006;
0162833980999991997050600004-15667-038933FM-12+000599999V0202301N00101007501CN9999999N9+02381+02211101621ADDAA106000191AG10000AY151061AY221061GF108991061051008001021999KA1240M+02331MA1999999101561MD1999999-0061MW1021REMSYN023 333 10233 59006 69921;EQDQ01+000002VOVAR 
0143833980999991997050612004-15667-038933FM-12+000599999V0201801N00311045001CN0040001N1+02371+02111101691ADDAA124011091AG10002AY161061AY221061GF106991041051008001021001KA1240N+02101MA1999999101631MD1999999+0071MW1021REMSYN023 333 20210 58007 60114;
0096833980999991997050618004-15667-038933FM-12+000599999V0201401N00511045001CN0200001N1+02711+02301101531ADDAA106000091AG10000GF106991041051008001031001MA1999999101481MD1999999+0151REMSYN011 333 58015;
0134833980999991997050700004-15667-038933FM-12+000599999V0209991C00001220001CN9999999N9+02271+02091101821ADDAA106000091AG10000GF102991021011008001001001KA1240M+02221MA1999999101761MD1999999+0201REMSYN017 333 10222 58020;EQDQ01+000002VOVAR 
0143833980999991997050712004-15667-038933FM-12+000599999V0202301N00211045001CN0040001N1+02281+02071101861ADDAA124002091AG10002AY161061AY221061GF106991041051008001021001KA1240N+02011MA1999999101801MD1999999+0171MW1021REMSYN023 333 20201 58017 60024;
0134833980999991997050800004-15667-038933FM-12+000599999V0209991C00001007501CN9999999N9+02341+02091101861ADDAA106000091AG10000GF107991071051008001001001KA1240M+02301MA1999999101801MD1999999+0041REMSYN017 333 10230 58004;EQDQ01+000002VOVAR 
0115833980999991997050812004-15667-038933FM-12+000599999V0202301N00311045001CN0040001N1+02381+01911101911ADDAA106000091AG10000GF106991021051008001041001KA1240N+02041MA1999999101841MD1999999+0051REMSYN017 333 20204 58005;
0096833980999991997050818004-15667-038933FM-12+000599999V0201401N00311007501CN0100001N1+02711+02711101631ADDAA106000091AG10000GF107991051051008001021001MA1999999101571MD1999999+0091REMSYN011 333 58009;
0134833980999991997050900004-15667-038933FM-12+000599999V0209991C00001220001CN9999999N9+02191+02091101441ADDAA106000091AG10000GF102991999999008001999999KA1240M+02161MA1999999101391MD1999999-0411REMSYN017 333 10216 59041;EQDQ01+000002VOVAR 
0115833980999991997050912004-15667-038933FM-12+000599999V0202301N00311045001CN0040001N1+02381+02171101931ADDAA106000091AG10000GF108991041051008001021001KA1240N+02011MA1999999101871MD1999999+0021REMSYN017 333 20201 58002;
0096833980999991997050918004-15667-038933FM-12+000599999V0200901N00101045001CN0100001N1+02631+02031101661ADDAA106000091AG10000GF105991031051008001021001MA1999999101611MD1999999-0041REMSYN011 333 59004;
0134833980999991997051000004-15667-038933FM-12+000599999V0202301N00101045001CN9999999N9+02261+02071101781ADDAA106000091AG10000GF106991041051008001021001KA1240M+02671MA1999999101721MD1999999+0331REMSYN017 333 10267 58033;EQDQ01+000002VOVAR 
0115833980999991997051012004-15667-038933FM-12+000599999V0201801N00211045001CN0100001N1+02581+02101101821ADDAA106000091AG10000GF106991021051008001041001KA1240N+01991MA1999999101761MD1999999-0111REMSYN017 333 20199 59011;
0096833980999991997051018004-15667-038933FM-12+000599999V0201801N00311045001CN0100001N1+02601+02121101591ADDAA106000091AG10000GF106991041051008001021001MA1999999101541MD1999999-0071REMSYN011 333 59007;
0115833980999991997051112004-15667-038933FM-12+000599999V0202301N00211045001CN0100001N1+02461+01971101841ADDAA106000091AG10000GF106991031021008001041001KA1240N+02001MA1999999101781MD1999999+0021REMSYN017 333 20200 58002;
0096833980999991997051118004-15667-038933FM-12+000599999V0201801N00311045001CN0100001N1+02661+01951101561ADDAA106000091AG10000GF106991021021008001051001MA1999999101511MD1999999-0031REMSYN011 333 59003;
0115833980999991997051212004-15667-038933FM-12+000599999V0202301N00101045001CN0100001N1+02461+01971101731ADDAA106000091AG10000GF105991031011008001041001KA1240N+01821MA1999999101671MD1999999-0111REMSYN017 333 20182 59011;
0096833980999991997051218004-15667-038933FM-12+000599999V0201401N00101220001CN0200001N1+02641+02031101431ADDAA106000091AG10000GF103991011021008001041001MA1999999101381MD1999999-0131REMSYN011 333 59013;
0166833980999991997051300004-15667-038933FM-12+000599999V0203201N00101220001CN9999999N9+02081+01961101531ADDAA106000091AG10000GF104991021011008001031001KA1240M+02731MA1999999999999MD1999999-0181REMSYN017 333 10273 59018;EQDQ01+091483APOSP Q02+000002VOVAR Q03 091483APOSP 
0115833980999991997051312004-15667-038933FM-12+000599999V0203201N00101220001CN0200001N1+02521+02131101501ADDAA106000091AG10000GF104991021011008001041001KA1240N+01811MA1999999101451MD1999999-0221REMSYN017 333 20181 59022;
0134833980999991997051400004-15667-038933FM-12+000599999V0202701N00101220001CN9999999N9+02221+02081101301ADDAA106000091AG10000GF103991021011008001031001KA1240M+02791MA1999999101251MD1999999-0231REMSYN017 333 10279 59023;EQDQ01+000002VOVAR 
0115833980999991997051412004-15667-038933FM-12+000599999V0202301N00211220001CN0200001N1+02481+01981101431ADDAA106000091AG10000GF104991031011008001041001KA1240N+01791MA1999999101381MD1999999-0071REMSYN017 333 20179 59007;
0124833980999991997051418004-15667-038933FM-12+000599999V0201401N00211045001CN0100001N1+02601+02101101601ADDAA106004091AG10000AY151061AY221061GF106991041051008001021001MA1999999101251MD1999999+0161MW1021REMSYN017 333 58016 60041;
0134833980999991997051500004-15667-038933FM-12+000599999V0202301N00101045001CN9999999N9+02241+02011101581ADDAA106000091AG10000GF105991021051008001031001KA1240M+02781MA1999999101531MD1999999+0281REMSYN017 333 10278 58028;EQDQ01+000002VOVAR 
0143833980999991997051512004-15667-038933FM-12+000599999V0202301N00101007501CN0040001N1+02161+01951101821ADDAA124005091AG10002AY161061AY221061GF108991051051008001021999KA1240N+01901MA1999999101761MD1999999+0381MW1021REMSYN023 333 20190 58038 60054;
0096833980999991997051518004-15667-038933FM-12+000599999V0201401N00101045001CN0100001N1+02521+01711101571ADDAA106000091AG10000GF105991021021008001031001MA1999999101521MD1999999+0271REMSYN011 333 58027;
0134833980999991997051600004-15667-038933FM-12+000599999V0209991C00001045001CN9999999N9+01981+01831101771ADDAA106000091AG10000GF105991031051008001021001KA1240M+02621MA1999999101711MD1999999+0181REMSYN017 333 10262 58018;EQDQ01+000002VOVAR 
0115833980999991997051612004-15667-038933FM-12+000599999V0201801N00211045001CN0100001N1+02431+01881101891ADDAA106000091AG10000GF106991031051008001041001KA1240N+01811MA1999999101841MD1999999+0071REMSYN017 333 20181 58007;
0107833980999991997051618004-15667-038933FM-12+000599999V0201401N00211045001CN0100001N1+02511+01931101741ADDAG10000AY151061AY221061GF106991011051008001051001MA1999999101681MD1999999-0031MW1021REMSYN011 333 59003;
0134833980999991997051700004-15667-038933FM-12+000599999V0202301N00101045001CN9999999N9+02061+01821101911ADDAA106000091AG10000GF105991021051008001031001KA1240M+02691MA1999999101851MD1999999+0141REMSYN017 333 10269 58014;EQDQ01+000002VOVAR 
0121833980999991997051712004-15667-038933FM-12+000599999V0202301N00101045001CN0040001N1+02281+02011101961ADDAA124000191AG10000GF107991041051008001021001KA1240N+01901MA1999999101901MD1999999+0071REMSYN023 333 20190 58007 69914;
0096833980999991997051718004-15667-038933FM-12+000599999V0201401N00311045001CN0100001N1+02661+02071101591ADDAA106000091AG10000GF106991031051008001021001MA1999999101541MD1999999-0141REMSYN011 333 59014;
0162833980999991997051800004-15667-038933FM-12+000599999V0209991C00001007501CN9999999N9+02201+02081101861ADDAA106000591AG10000AY151061AY221061GF108991051051008001031999KA1240M+02151MA1999999101801MD1999999-0051MW1021REMSYN023 333 10215 59005 69941;EQDQ01+000002VOVAR 
0143833980999991997051812004-15667-038933FM-12+000599999V0202301N00101045001CN0100001N1+02501+02171101831ADDAA124003091AG10002AY161061AY221061GF107991021051008001021001KA1240N+01991MA1999999101771MD1999999-0111MW1021REMSYN023 333 20199 59011 60034;
0096833980999991997051818004-15667-038933FM-12+000599999V0201401N00311045001CN0200001N1+02681+02021101471ADDAA106000091AG10000GF105991021051008001041001MA1999999101421MD1999999-0121REMSYN011 333 59012;
0134833980999991997051900004-15667-038933FM-12+000599999V0201401N00101220001CN9999999N9+02291+02011101721ADDAA106000091AG10000GF102991021021008001001001KA1240M+02721MA1999999101661MD1999999-0141REMSYN017 333 10272 59014;EQDQ01+000002VOVAR 
0143833980999991997051912004-15667-038933FM-12+000599999V0201801N00311004201CN0020001N1+02301+02181101751ADDAA124003091AG10002AY161061AY221061GF108991081071004501999999KA1240N+02011MA1999999101691MD1999999-0081MW1601REMSYN023 333 20201 59008 60034;
0124833980999991997051918004-15667-038933FM-12+000599999V0201401N00211045001CN0100001N1+02681+02061101441ADDAA106001091AG10000AY151061AY221061GF106991011021008001051001MA1999999101391MD1999999-0031MW1021REMSYN017 333 59003 60011;
0134833980999991997052000004-15667-038933FM-12+000599999V0209991C00001045001CN9999999N9+02311+02201101631ADDAA106000091AG10000GF105991031051008001031001KA1240M+02711MA1999999101571MD1999999-0071REMSYN017 333 10271 59007;EQDQ01+000002VOVAR 
0143833980999991997052012004-15667-038933FM-12+000599999V0202301N00101045001CN0100001N1+02481+02191101711ADDAA124003091AG10002AY161061AY221061GF106991031051008001031001KA1240N+02021MA1999999101651MD1999999-0041MW1021REMSYN023 333 20202 59004 60034;
0096833980999991997052018004-15667-038933FM-12+000599999V0201401N00211220001CN0200001N1+02741+02241101401ADDAA106000091AG10000GF102991021021008001001001MA1999999101351MD1999999-0041REMSYN011 333 59004;
0150833980999991997052100004-15667-038933FM-12+000599999V0209991C000019999999N9999999N9+02361+02221101691ADDAA106000091AG10000GF105991999031008001001001KA1240M+02781MA1999999101631MD1999999+0061REMSYN017 333 10278 58006;EQDQ01+000022SCOTLCQ02+000002VOVAR 
0143833980999991997052112004-15667-038933FM-12+000599999V0203201N00101045001CN0040001N1+02401+02301101591ADDAA124003091AG10002AY161061AY221061GF106991041071008001021001KA1240N+02101MA1999999101541MD1999999-0111MW1601REMSYN023 333 20210 59011 60034;
0096833980999991997052118004-15667-038933FM-12+000599999V0201401N01031220001CN0200001N1+02741+02241101401ADDAA106000091AG10000GF102991021021008001001001MA1999999101351MD1999999+0001REMSYN011 333 58000;
0134833980999991997052200004-15667-038933FM-12+000599999V0200501N00101220001CN9999999N9+02511+02401101631ADDAA106000091AG10000GF103991031021008001001001KA1240M+02771MA1999999101571MD1999999-0061REMSYN017 333 10277 59006;EQDQ01+000002VOVAR 
0115833980999991997052212004-15667-038933FM-12+000599999V0201801N00211045001CN0100001N1+02661+02391101681ADDAA106000091AG10000GF106991031051008001031001KA1240N+02131MA1999999101621MD1999999+0081REMSYN017 333 20213 58008;
0085833980999991997052218004-15667-038933FM-12+000599999V0200501N00101220001CN0200001N1+02701+02281101421ADDAG10000GF103991031051008001001001MA1999999101371MD1999999-0021REMSYN011 333 59002;
0143833980999991997052312004-15667-038933FM-12+000599999V0200901N00211045001CN0040001N1+02661+02161101841ADDAA124003091AG10002AY161061AY221061GF106991041051008001021001KA1240N+02071MA1999999101781MD1999999+0161MW1021REMSYN023 333 20207 58016 60034;
0096833980999991997052318004-15667-038933FM-12+000599999V0200501N00101220001CN0200001N1+02741+02071101511ADDAA106000091AG10000GF102991021021008001001001MA1999999101461MD1999999+0091REMSYN011 333 58009;
0134833980999991997052400004-15667-038933FM-12+000599999V0202301N00101045001CN9999999N9+02301+02131101701ADDAA106000091AG10000GF105991021051008001031001KA1240M+02801MA1999999101641MD1999999+0061REMSYN017 333 10280 58006;EQDQ01+000002VOVAR 
0156833980999991997052412004-15667-038933FM-12+000599999V0202301N00101045001CN0040001N1+02441+02111101811ADDAA124002091AG10002AY161061AY221061GF108991041051008001021001KA1240N+02001MA1999999101751MD1999999-0031REMSYN023 333 20200 59003 60024;EQDQ01+000222PRSWM1
0124833980999991997052418004-15667-038933FM-12+000599999V0201401N00311045001CN0100001N1+02721+02121101501ADDAA106002091AG10002AY161061AY221061GF106991041051008001021001MA1999999101431MD1999999-0011MW1021REMSYN017 333 59001 60021;
0121833980999991997052512004-15667-038933FM-12+000599999V0202301N00211045001CN0100001N1+02531+02151101701ADDAA124002091AG10000GF105991021051008001041001KA1240N+02031MA1999999101641MD1999999-0111REMSYN023 333 20203 59011 60024;
0096833980999991997052518004-15667-038933FM-12+000599999V0203601N00211045001CN0200001N1+02701+02111101351ADDAA106000091AG10000GF106991031051008001041001MA1999999101301MD1999999-0151REMSYN011 333 59015;
0134833980999991997052600004-15667-038933FM-12+000599999V0203201N00101220001CN9999999N9+02321+02181101521ADDAA106000091AG10000GF104991021051008001041001KA1240M+02771MA1999999101471MD1999999-0141REMSYN017 333 10277 59014;EQDQ01+000002VOVAR 
0096833980999991997052618004-15667-038933FM-12+000599999V0201401N00311045001CN0100001N1+02661+02091101311ADDAA106000091AG10000GF106991041051008001031001MA1999999101261MD1999999-0041REMSYN011 333 59004;
0162833980999991997052700004-15667-038933FM-12+000599999V0202701N00101220001CN9999999N9+02251+02141101661ADDAA106006091AG10002AY161061AY221061GF103991031051008001001001KA1240M+02821MA1999999101601MD1999999+0131MW1021REMSYN023 333 10282 58013 60061;EQDQ01+000002VOVAR 
0143833980999991997052712004-15667-038933FM-12+000599999V0202301N00101007501CN0040001N1+02281+02011101871ADDAA124008091AG10002AY161061AY221061GF107991051051008001021001KA1240N+01971MA1999999101811MD1999999+0331MW1021REMSYN023 333 20197 58033 60084;
0124833980999991997052718004-15667-038933FM-12+000599999V0201801N00101220001CN0100001N1+02601+02171101621ADDAA106000191AG10000AY151061AY221061GF104991011051008001031001MA1999999101561MD1999999+0301MW1021REMSYN017 333 58030 69921;
0134833980999991997052800004-15667-038933FM-12+000599999V0202301N00051220001CN9999999N9+02101+02071101751ADDAA106000091AG10000GF102991021021008001001001KA1240M+02391MA1999999101691MD1999999+0091REMSYN017 333 10239 58009;EQDQ01+000002VOVAR 
0121833980999991997052812004-15667-038933FM-12+000599999V0202701N00211045001CN0100001N1+02361+02011101741ADDAA124000191AG10000GF106991021051008001041001KA1240N+01791MA1999999101681MD1999999-0131REMSYN023 333 20179 59013 69924;
0096833980999991997052818004-15667-038933FM-12+000599999V0201401N00101045001CN0200001N1+02741+02021101501ADDAA106000091AG10000GF105991011021008001051001MA1999999101451MD1999999-0111REMSYN011 333 59011;
0134833980999991997052900004-15667-038933FM-12+000599999V0202301N00101220001CN9999999N9+02091+01051101511ADDAA106000091AG10000GF102991021021008001001001KA1240M+02721MA1999999101461MD1999999-0231REMSYN017 333 10272 59023;EQDQ01+000002VOVAR 
0115833980999991997052912004-15667-038933FM-12+000599999V0203201N00101220001CN0100001N1+02461+02051101551ADDAA106000091AG10000GF104991011021008001041001KA1240N+01751MA1999999101501MD1999999-0181REMSYN017 333 20175 59018;
0096833980999991997052918004-15667-038933FM-12+000599999V0200501N00211220001CN0200001N1+02651+02201101201ADDAA106000091AG10000GF102991021021008001001001MA1999999101151MD1999999-0301REMSYN011 333 59030;
0134833980999991997053000004-15667-038933FM-12+000599999V0203201N00101220001CN9999999N9+02741+01891101411ADDAA106000091AG10000GF102991021011008001001001KA1240M+02811MA1999999101361MD1999999-0101REMSYN017 333 10281 59010;EQDQ01+000002VOVAR 
0115833980999991997053012004-15667-038933FM-12+000599999V0202301N00101045001CN0200001N1+02641+02161101451ADDAA106000091AG10000GF105991021021008001041001KA1240N+01821MA1999999101401MD1999999-0101REMSYN017 333 20182 59010;
0096833980999991997053018004-15667-038933FM-12+000599999V0200501N00101220001CN0200001N1+02701+02301101281ADDAA106000091AG10000GF104991021021008001051001MA1999999101231MD1999999+0081REMSYN011 333 58008;
0115833980999991997053112004-15667-038933FM-12+000599999V0201801N00311045001CN0100001N1+02481+02111101751ADDAA106000091AG10000GF106991041051008001031001KA1240N+01571MA1999999101691MD1999999+0291REMSYN017 333 20157 58029;
0134833980999991997060100004-15667-038933FM-12+000599999V0202301N00411007501CN9999999N9+02141+01931101601ADDAA106000091AG10000GF108991051051008001021999KA1240M+02621MA1999999101601MD1999999+0091REMSYN017 333 10262 58009;EQDQ01+000002VOVAR 
0115833980999991997060112004-15667-038933FM-12+000599999V0202301N00211007501CN0010001N1+02171+01801101831ADDAA106000091AG10000GF108991061051008001021999KA1240N+01941MA1999999101771MD1999999+0081REMSYN017 333 20194 58008;
0096833980999991997060118004-15667-038933FM-12+000599999V0201401N00211007501CN0100001N1+02221+01851101561ADDAA106000091AG10000GF108991061051008001021999MA1999999101511MD1999999+0051REMSYN011 333 58005;
0134833980999991997060200004-15667-038933FM-12+000599999V0202301N00101045001CN9999999N9+02041+01801101761ADDAA106000091AG10000GF106991031051008001031001KA1240M+02401MA1999999101701MD1999999+0101REMSYN017 333 10240 58010;EQDQ01+000002VOVAR 
0115833980999991997060212004-15667-038933FM-12+000599999V0202301N00101045001CN0100001N1+02321+01911101841ADDAA106000091AG10000GF106991021051008001031001KA1240N+01831MA1999999101781MD1999999+0011REMSYN017 333 20183 58001;
0096833980999991997060218004-15667-038933FM-12+000599999V0201401N00211007501CN0100001N1+02381+01871101611ADDAA106000091AG10000GF108991061051008001021999MA1999999101551MD1999999+0041REMSYN011 333 58004;
0134833980999991997060300004-15667-038933FM-12+000599999V0203201N00101220001CN9999999N9+02041+01961101761ADDAA106000091AG10000GF102991021011008001001001KA1240M+02491MA1999999101701MD1999999+0001REMSYN017 333 10249 58000;EQDQ01+000002VOVAR 
0115833980999991997060312004-15667-038933FM-12+000599999V0202301N00211045001CN0100001N1+02321+01851101861ADDAA106000091AG10000GF105991021051008001041001KA1240N+01811MA1999999101801MD1999999+0021REMSYN017 333 20181 58002;
0096833980999991997060318004-15667-038933FM-12+000599999V0201401N00101045001CN0100001N1+02431+01901101511ADDAA106000091AG10000GF106991011051008001051001MA1999999101461MD1999999-0091REMSYN011 333 59009;
0134833980999991997060400004-15667-038933FM-12+000599999V0203201N00101220001CN9999999N9+02011+01831101451ADDAA106000091AG10000GF102991021021008001001001KA1240M+02551MA1999999101401MD1999999-0301REMSYN017 333 10255 59030;EQDQ01+000002VOVAR 
0115833980999991997060412004-15667-038933FM-12+000599999V0203201N00101045001CN0100001N1+02421+01791101631ADDAA106000091AG10000GF105991021011008001041001KA1240N+01761MA1999999101571MD1999999-0231REMSYN017 333 20176 59023;
0134833980999991997060500004-15667-038933FM-12+000599999V0200501N00211220001CN9999999N9+02371+01991101491ADDAA106000091AG10000GF102991021011008001001001KA1240M+02531MA1999999101441MD1999999+0041REMSYN017 333 10253 58004;EQDQ01+000002VOVAR 
0115833980999991997060512004-15667-038933FM-12+000599999V0203201N00101045001CN0100001N1+02661+02071101331ADDAA106000091AG10000GF105991021011008001041001KA1240N+01861MA1999999101281MD1999999-0291REMSYN017 333 20186 59029;
0096833980999991997060518004-15667-038933FM-12+000599999V0200501N00411220001CN0200001N1+02671+02181100901ADDAA106000091AG10000GF102991021021008001001001MA1999999100851MD1999999+0001REMSYN011 333 58000;
0134833980999991997060600004-15667-038933FM-12+000599999V0203601N00211220001CN9999999N9+02421+02231100991ADDAA106000091AG10000GF104991021011008001031001KA1240M+02691MA1999999100941MD1999999-0501REMSYN017 333 10269 59050;EQDQ01+000002VOVAR 
0115833980999991997060612004-15667-038933FM-12+000599999V0203601N00211105001CN0100001N1+02721+02191100981ADDAA106000091AG10000GF105991021011008001041011KA1240N+02101MA1999999100931MD1999999-0351REMSYN017 333 20210 59035;
0134833980999991997060700004-15667-038933FM-12+000599999V0203601N00411220001CN9999999N9+02501+02311100671ADDAA106000091AG10000GF104991021011008001031001KA1240M+02931MA1999999100621MD1999999-0321REMSYN017 333 10293 59032;EQDQ01+000002VOVAR 
0115833980999991997060712004-15667-038933FM-12+000599999V0202701N00101220001CN0200001N1+02701+02261100811ADDAA106000091AG10000GF102991011011008001051001KA1240N+02101MA1999999100761MD1999999-0171REMSYN017 333 20210 59017;
0120833980999991997060800004-15667-038933FM-12+000599999V0203201N00101220001CN9999999N9+02641+02251100751ADDAA106000091AG10000GF102991021021008001001001KA1240M+02901MA1999999100071REMSYN017 333 10290 59808;EQDQ01+000002VOVAR 
0115833980999991997060812004-15667-038933FM-12+000599999V0202701N00101007501CN0100001N1+02451+01921100951ADDAA106000091AG10000GF108991061051008001021999KA1240N+02201MA1999999100871MD1999999+0111REMSYN017 333 20220 58011;
0096833980999991997060818004-15667-038933FM-12+000599999V0200501N00101220001CN0200001N1+02821+02331100581ADDAA106000091AG10000GF104991999999008001999999MA1999999100531MD1999999+0021REMSYN011 333 58002;
0134833980999991997060900004-15667-038933FM-12+000599999V0203601N00211045001CN9999999N9+02501+02361100931ADDAA106000091AG10000GF106991041051008001021001KA1240M+02821MA1999999100881MD1999999+0181REMSYN017 333 10282 58018;EQDQ01+000002VOVAR 
0143833980999991997060912004-15667-038933FM-12+000599999V0201801N00211007501CN0040001N1+02421+02131101471ADDAA124002091AG10002AY161061AY221061GF108991051051008001021999KA1240N+02101MA1999999101321MD1999999+0451MW1021REMSYN023 333 20210 58045 60024;
0124833980999991997060918004-15667-038933FM-12+000599999V0202301N00101045001CN0100001N1+02211+01821101391ADDAA106000191AG10002AY161061AY221061GF108991021051008001041999MA1999999101341MD1999999+0811MW1021REMSYN017 333 58081 69921;
0162833980999991997061000004-15667-038933FM-12+000599999V0209991C00001004201CN9999999N9+02041+01921101541ADDAA106002091AG10006AY191061AY261061GF108991081071004501999999KA1240M+02801MA1999999101491MD1999999+0611MW1511REMSYN023 333 10280 58061 60021;EQDQ01+000002VOVAR 
0143833980999991997061012004-15667-038933FM-12+000599999V0202301N00101007501CN0040001N1+02221+01901101941ADDAA124036091AG10006AY191061AY261061GF107991051051008001021001KA1240N+01891MA1999999101881MD1999999+0561MW1021REMSYN023 333 20189 58056 60364;
0096833980999991997061018004-15667-038933FM-12+000599999V0201801N00101007501CN0100001N1+02421+01881101781ADDAA106000091AG10000GF108991051051008001031011MA1999999101721MD1999999+0381REMSYN011 333 58038;
0134833980999991997061100004-15667-038933FM-12+000599999V0202301N00101045001CN9999999N9+02161+01931101841ADDAA106000091AG10000GF106991041051008001021001KA1240M+02481MA1999999101781MD1999999+0291REMSYN017 333 10248 58029;EQDQ01+000002VOVAR 
0096833980999991997061118004-15667-038933FM-12+000599999V0202301N00101007501CN0100001N1+02511+01931101781ADDAA106000091AG10000GF108991061051008001021999MA1999999101721MD1999999+0001REMSYN011 333 58000;
0162833980999991997061200004-15667-038933FM-12+000599999V0203201N00101007501CN9999999N9+02141+02041101871ADDAA106001091AG10002AY161061AY221061GF108991061051008001021999KA1240M+02501MA1999999101811MD1999999+0031MW1021REMSYN023 333 10250 58003 60011;EQDQ01+000002VOVAR 
0121833980999991997061212004-15667-038933FM-12+000599999V0202701N00051007501CN0040001N1+02341+02051101831ADDAA124001091AG10000GF107991051051008001021001KA1240N+02001MA1999999101771MD1999999-0091REMSYN023 333 20200 59009 60014;
0096833980999991997061218004-15667-038933FM-12+000599999V0200501N00101220001CN0200001N1+02651+02221101551ADDAA106000091AG10000GF104991021021008001041001MA1999999101501MD1999999-0221REMSYN011 333 59022;
0134833980999991997061300004-15667-038933FM-12+000599999V0202701N00101220001CN9999999N9+02281+02231101731ADDAA106000091AG10000GF103991031021008001001001KA1240M+02671MA1999999101671MD1999999-0141REMSYN017 333 10267 59014;EQDQ01+000002VOVAR 
0143833980999991997061312004-15667-038933FM-12+000599999V0203201N00101045001CN0100001N1+02561+02311101731ADDAA124008091AG10002AY161061AY221061GF105991031011008001041001KA1240N+02131MA1999999101671MD1999999-0101MW1011REMSYN023 333 20213 59010 60084;
0096833980999991997061318004-15667-038933FM-12+000599999V0200501N00101220001CN0200001N1+02701+02231101511ADDAA106000091AG10000GF102991021021008001001001MA1999999101451MD1999999-0051REMSYN011 333 59005;
0121833980999991997061400004-15667-038933FM-12+000599999V0200501N00101220001CN9999999N9+02301+02181101881ADDAA106000091AG10000GF102991021011008001001001MA1999999101821MD1999999+0151REMSYN017 333 1085/ 58015;EQDQ01+000002VOVAR 
0096833980999991997061418004-15667-038933FM-12+000599999V0203601N00311220001CN0200001N1+02701+02171101381ADDAA106000091AG10000GF104991031021008001041001MA1999999101331MD1999999-0121REMSYN011 333 59012;
0134833980999991997061500004-15667-038933FM-12+000599999V0203601N00101220001CN9999999N9+02451+02171101511ADDAA106000091AG10000GF103991031011008001001001KA1240M+02721MA1999999101461MD1999999-0361REMSYN017 333 10272 59036;EQDQ01+000002VOVAR 
0115833980999991997061512004-15667-038933FM-12+000599999V0203601N00211045001CN0100001N1+02541+02211101651ADDAA106000091AG10000GF106991031051008001041001KA1240N+01891MA1999999101591MD1999999+0031REMSYN017 333 20189 58003;
0096833980999991997061518004-15667-038933FM-12+000599999V0200501N00311220001CN0200001N1+02681+02061101351ADDAA106000091AG10000GF104991021021008001041041MA1999999101301MD1999999-0031REMSYN011 333 59003;
0134833980999991997061600004-15667-038933FM-12+000599999V0203601N00211220001CN9999999N9+02441+02191101451ADDAA106000091AG10000GF105991031011008001001041KA1240M+02741MA1999999101401MD1999999-0061REMSYN017 333 10274 59006;EQDQ01+000002VOVAR 
0115833980999991997061612004-15667-038933FM-12+000599999V0203601N00311045001CN0100001N1+02641+02181101441ADDAA106000091AG10000GF106991021051008001041001KA1240N+01991MA1999999101391MD1999999-0201REMSYN017 333 20199 59020;
0096833980999991997061618004-15667-038933FM-12+000599999V0200501N00211220001CN0200001N1+02801+02271101121ADDAA106000091AG10000GF102991021021008001001001MA1999999101071MD1999999-0231REMSYN011 333 59023;
0134833980999991997061700004-15667-038933FM-12+000599999V0203601N00311220001CN9999999N9+02501+02291101261ADDAA106000091AG10000GF104991021021008001031001KA1240M+02791MA1999999101311MD1999999-0091REMSYN017 333 10279 59009;EQDQ01+000002VOVAR 
0115833980999991997061712004-15667-038933FM-12+000599999V0203601N00211045001CN0100001N1+02681+02201101561ADDAA106000091AG10000GF106991041051008001041001KA1240N+02051MA1999999101511MD1999999+0121REMSYN017 333 20205 58012;
0096833980999991997061718004-15667-038933FM-12+000599999V0200501N00101220001CN0100001N1+02701+02221101361ADDAA106000091AG10000GF102991021021008001001001MA1999999101311MD1999999+0241REMSYN011 333 58024;
0134833980999991997061800004-15667-038933FM-12+000599999V0203601N00101105001CN9999999N9+02421+02251101471ADDAA106000091AG10000GF105991021021008001041011KA1240M+02811MA1999999101421MD1999999+0111REMSYN017 333 10281 58011;EQDQ01+000002VOVAR 
0115833980999991997061812004-15667-038933FM-12+000599999V0203601N00101220001CN0100001N1+02601+02311101671ADDAA106000091AG10000GF104991031021008001041001KA1240N+01971MA1999999101611MD1999999+0101REMSYN017 333 20197 58010;
0134833980999991997061900004-15667-038933FM-12+000599999V0202701N00101220001CN9999999N9+02401+02091101701ADDAA106000091AG10000GF104991011011008001031001KA1240M+02781MA1999999101641MD1999999+0221REMSYN017 333 10278 58022;EQDQ01+000002VOVAR 
0162833980999991997061912004-15667-038933FM-12+000599999V0201001N022619999999N0020001N1+02241+02121101741ADDAA124004091AG10006AY191061AY261061GF107991999071004501999999KA1240N+01991MA1999999101681MD1999999+0071MW1601REMSYN023 333 20199 58007 60044;EQDQ01+000082SCOTLC
0096833980999991997061918004-15667-038933FM-12+000599999V0200501N00101220001CN0200001N1+02621+02231101491ADDAA106000091AG10000GF102991021021008001001001MA1999999101441MD1999999+0011REMSYN011 333 58001;
0143833980999991997062012004-15667-038933FM-12+000599999V0202301N00101220001CN0100001N1+02401+02211101781ADDAA124003091AG10002AY161061AY221061GF104991041021008001001001KA1240N+02041MA1999999101721MD1999999+0041MW1021REMSYN023 333 20204 58004 60034;
0096833980999991997062018004-15667-038933FM-12+000599999V0200501N00101220001CN0200001N1+02631+02141101451ADDAA106000091AG10000GF102991021021008001001001MA1999999101401MD1999999-0041REMSYN011 333 59004;
0134833980999991997062100004-15667-038933FM-12+000599999V0202701N00101045001CN9999999N9+02201+02121101771ADDAA106000091AG10000GF105991011021008001031001KA1240M+02691MA1999999101721MD1999999-0081REMSYN017 333 10269 59008;EQDQ01+000002VOVAR 
0115833980999991997062112004-15667-038933FM-12+000599999V0202701N00101045001CN0100001N1+02561+02351101701ADDAA106000091AG10000GF105991021021008001031001KA1240N+01991MA1999999101641MD1999999-0081REMSYN017 333 20199 59008;
0115833980999991997062118004-15667-038933FM-12+000599999V0200501N00101220001CN0200001N1+02681+99999101431ADDAA106000091AG10000GF102991999021008001001001MA1999999101381MD1999999-0021REMSYN011 333 59002;EQDQ01+000032SCOTLC
0134833980999991997062200004-15667-038933FM-12+000599999V0203201N00101220001CN9999999N9+02161+02061101641ADDAA106000091AG10000GF102991021011008001001001KA1240N+01701MA1999999101581MD1999999-0141REMSYN017 333 20170 59014;EQDQ01+000002VOVAR 
0115833980999991997062212004-15667-038933FM-12+000599999V0200501N00101220001CN0200001N1+02421+02131101751ADDAA106000091AG10000GF102991021021008001001001KA1240N+01771MA1999999101691MD1999999+0051REMSYN017 333 20177 58005;
0115833980999991997062312004-15667-038933FM-12+000599999V0202701N00101220001CN0100001N1+02381+02291101651ADDAA106000091AG10000GF104991021031008001011001KA1240N+01771MA1999999101591MD1999999-0101REMSYN017 333 20177 59010;
0096833980999991997062318004-15667-038933FM-12+000599999V0200501N00101220001CN0200001N1+02661+01901101431ADDAA106000091AG10000GF102991021021008001001001MA1999999101381MD1999999+0051REMSYN011 333 58005;
0134833980999991997062400004-15667-038933FM-12+000599999V0202701N00101220001CN9999999N9+02021+01831101491ADDAA106000091AG10000GF104991021011008001041001KA1240M+02741MA1999999101441MD1999999-0101REMSYN017 333 10274 59010;EQDQ01+000002VOVAR 
0115833980999991997062412004-15667-038933FM-12+000599999V0202701N00101220001CN0100001N1+02421+01981101551ADDAA106000091AG10000GF104991011011008001041001KA1240N+01691MA1999999101501MD1999999-0091REMSYN017 333 20169 59009;
0096833980999991997062418004-15667-038933FM-12+000599999V0200501N00211220001CN0100001N1+02681+01921101231ADDAA106000091AG10000GF102991011011008001051001MA1999999101281MD1999999-0101REMSYN011 333 59010;
0134833980999991997062500004-15667-038933FM-12+000599999V0203601N00101220001CN9999999N9+02281+01941101411ADDAA106000091AG10000GF103991021011008001031001KA1240M+02761MA1999999101361MD1999999-0081REMSYN017 333 10276 59008;EQDQ01+000002VOVAR 
0115833980999991997062512004-15667-038933FM-12+000599999V0202701N00101220001CN0100001N1+02381+02071101451ADDAA106000091AG10000GF103991031021008001001001KA1240N+01711MA1999999101401MD1999999-0101REMSYN017 333 20171 59010;
0096833980999991997062518004-15667-038933FM-12+000599999V0200501N00101220001CN0200001N1+02641+02141101211ADDAA106000091AG10000GF102991011021008001041001MA1999999101161MD1999999-0121REMSYN011 333 59012;
0134833980999991997062600004-15667-038933FM-12+000599999V0203201N00101220001CN9999999N9+02201+01991101331ADDAA106000091AG10000GF103991021011008001031001KA1240M+02701MA1999999101281MD1999999-0081REMSYN017 333 10270 59008;EQDQ01+000002VOVAR 
0115833980999991997062612004-15667-038933FM-12+000599999V0203201N00101220001CN0100001N1+02561+02151101441ADDAA106000091AG10000GF104991011021008001041001KA1240N+02001MA1999999101391MD1999999-0011REMSYN017 333 20200 59001;
0096833980999991997062618004-15667-038933FM-12+000599999V0200501N00211220001CN0200001N1+02741+02001101221ADDAA106000091AG10000GF102991011021008001041001MA1999999101171MD1999999+0011REMSYN011 333 58001;
0134833980999991997062700004-15667-038933FM-12+000599999V0203601N00101220001CN9999999N9+02401+02051101311ADDAA106000091AG10000GF103991031011008001001001KA1240M+02691MA1999999101261MD1999999-0021REMSYN017 333 10269 59002;EQDQ01+000002VOVAR 
0115833980999991997062712004-15667-038933FM-12+000599999V0202701N00101220001CN0100001N1+02461+02131101491ADDAA106000091AG10000GF104991011021008001041001KA1240N+01861MA1999999101441MD1999999+0051REMSYN017 333 20186 58005;
0096833980999991997062718004-15667-038933FM-12+000599999V0200501N00211105001CN0200001N1+02491+02211101281ADDAA106000091AG10000GF105991011021008001041011MA1999999101231MD1999999+0061REMSYN011 333 58006;
0134833980999991997062800004-15667-038933FM-12+000599999V0203201N00101045001CN9999999N9+02301+02111101401ADDAA106000091AG10000GF105991021051008001031001KA1240M+02711MA1999999101351MD1999999+0091REMSYN017 333 10271 58009;EQDQ01+000002VOVAR 
0115833980999991997062812004-15667-038933FM-12+000599999V0203201N00211007501CN0040001N1+02421+02231101621ADDAA106000091AG10000GF107991051051008001021001KA1240N+02001MA1999999101571MD1999999+0131REMSYN017 333 20200 58013;
0096833980999991997062818004-15667-038933FM-12+000599999V0200501N00211045001CN0100001N1+02661+02071101421ADDAA106000091AG10000GF106991031051008001031001MA1999999101371MD1999999+0141REMSYN011 333 58014;
0115833980999991997062912004-15667-038933FM-12+000599999V0203201N00101220001CN0100001N1+02461+02151101811ADDAA106000091AG10000GF104991031011008001041001KA1240N+01971MA1999999101751MD1999999+0411REMSYN017 333 20197 58041;
0096833980999991997062918004-15667-038933FM-12+000599999V0200501N00211220001CN0200001N1+02661+02071101611ADDAA106000091AG10000GF104991021021008001041001MA1999999101551MD1999999+0181REMSYN011 333 58018;
0096833980999991997063018004-15667-038933FM-12+000599999V0200501N00211220001CN0200001N1+02641+02031101531ADDAA106000091AG10000GF104991031021008001041001MA1999999101481MD1999999-0171REMSYN011 333 59017;
0134833980999991997070100004-15667-038933FM-12+000599999V0202701N00101220001CN9999999N9+02101+01891101641ADDAA106000091AG10000GF103991031011008001001001KA1240M+02781MA1999999101581MD1999999-0151REMSYN017 333 10278 59015;EQDQ01+000002VOVAR 
0096833980999991997070118004-15667-038933FM-12+000599999V0203601N00211220001CN0200001N1+02701+01991101461ADDAA106000091AG10000GF104991021021008001041011MA1999999101411MD1999999+0031REMSYN011 333 58003;
0134833980999991997070200004-15667-038933FM-12+000599999V0201801N00211220001CN9999999N9+02201+02031101701ADDAA106000091AG10000GF104991041011008001001001KA1240M+02661MA1999999101641MD1999999+0061REMSYN017 333 10266 58006;EQDQ01+000002VOVAR 
0115833980999991997070212004-15667-038933FM-12+000599999V0202301N00101045001CN0100001N1+02301+02131101431ADDAA106000091AG10000GF106991041051008001021001KA1240N+01931MA1999999101381MD1999999-0331REMSYN017 333 20193 59033;
0096833980999991997070218004-15667-038933FM-12+000599999V0201401N00101220001CN0200001N1+02761+01751101701ADDAA106000091AG10000GF102991011021008001051001MA1999999101641MD1999999-0231REMSYN011 333 59023;
0134833980999991997070300004-15667-038933FM-12+000599999V0202701N00101220001CN9999999N9+01981+01791101761ADDAA106000091AG10000GF104991041011008001001001KA1240M+02741MA1999999101701MD1999999+0061REMSYN017 333 10274 58006;EQDQ01+000002VOVAR 
0115833980999991997070312004-15667-038933FM-12+000599999V0202701N00101045001CN0100001N1+02281+01961101861ADDAA106000091AG10000GF105991031051008001041001KA1240N+01641MA1999999101801MD1999999+0421REMSYN017 333 20164 58042;
0096833980999991997070318004-15667-038933FM-12+000599999V0200501N00101220001CN0200001N1+02841+02301101481ADDAA106000091AG10000GF102991021021008001001001MA1999999101431MD1999999-0251REMSYN011 333 59025;
0134833980999991997070400004-15667-038933FM-12+000599999V0200501N00101220001CN9999999N9+02381+01951101721ADDAA106000091AG10000GF103991031021008001001001KA1240M+02731MA1999999101661MD1999999-0041REMSYN017 333 10273 59004;EQDQ01+000002VOVAR 
0134833980999991997070500004-15667-038933FM-12+000599999V0203201N00101220001CN9999999N9+02161+01991101741ADDAA106000091AG10000GF103991031011008001001001KA1240M+02771MA1999999101681MD1999999+0021REMSYN017 333 10277 58002;EQDQ01+000002VOVAR 
0115833980999991997070512004-15667-038933FM-12+000599999V0202301N00101220001CN0100001N1+02231+02091101881ADDAA106000091AG10000GF103991031021008001001001KA1240N+01701MA1999999101831MD1999999+0011REMSYN017 333 20170 58001;
0096833980999991997070518004-15667-038933FM-12+000599999V0201401N00211045001CN0200001N1+02701+01991101651ADDAA106000091AG10000GF105991031011008001041001MA1999999101591MD1999999+0151REMSYN011 333 58015;
0143833980999991997070612004-15667-038933FM-12+000599999V0201801N00211007501CN0040001N1+02391+02191101881ADDAA124008091AG10002AY161061AY221061GF107991051051008001021001KA1240N+02011MA1999999101821MD1999999-0011MW1011REMSYN023 333 20201 59001 60084;
0143833980999991997070712004-15667-038933FM-12+000599999V0201801N00211045001CN0040001N1+02241+02101101891ADDAA124014091AG10002AY161061AY221061GF106991041051008001021001KA1240N+01981MA1999999101831MD1999999+0011MW1021REMSYN023 333 20198 58001 60144;
0124833980999991997070718004-15667-038933FM-12+000599999V0201801N00211045001CN0040001N1+02461+02171101711ADDAA106002091AG10002AY161061AY221061GF106991041051008001021999MA1999999101651MD1999999+0001MW1021REMSYN017 333 58000 60021;
0134833980999991997070800004-15667-038933FM-12+000599999V0202301N00101007501CN9999999N9+02121+02001101741ADDAA106000091AG10000GF108991061051008001021999KA1240M+02531MA1999999101681MD1999999-0061REMSYN017 333 10253 59006;EQDQ01+000002VOVAR 
0096833980999991997070818004-15667-038933FM-12+000599999V0201401N00211220001CN0200001N1+02631+02031101611ADDAA106000091AG10000GF102991021031008001001001MA1999999101551MD1999999-0101REMSYN011 333 59010;
0162833980999991997070900004-15667-038933FM-12+000599999V0202301N00101007501CN9999999N9+02151+02011101841ADDAA106000191AG10000AY151061AY221061GF108991061071008001021999KA1240M+02691MA1999999101781MD1999999+0101MW1021REMSYN023 333 10269 58010 69921;EQDQ01+000002VOVAR 
0143833980999991997070912004-15667-038933FM-12+000599999V0202301N00101045001CN0100001N1+02271+01981101941ADDAA124003091AG10002AY161061AY221061GF106991041051008001021001KA1240N+01901MA1999999101881MD1999999+0031MW1021REMSYN023 333 20190 58003 60034;
0124833980999991997070918004-15667-038933FM-12+000599999V0202701N00101007501CN0100001N1+02371+02171101731ADDAA106001091AG10000AY151061AY201061GF108991061071008001021999MA1999999101671MD1999999+0121MW1501REMSYN017 333 58012 60011;
0162833980999991997071000004-15667-038933FM-12+000599999V0209991C00001220001CN9999999N9+02111+01971101441ADDAA106002091AG10002AY161061AY221061GF102991021051008001001001KA1240M+02691MA1999999101391MD1999999-0391MW1021REMSYN023 333 10269 59039 60021;EQDQ01+000002VOVAR 
0129833980999991997071012004-15667-038933FM-12+000599999V0203201N00101007501CN0040001N1+02331+01981101941ADDAA124081091AG10002AY161061AY221061GF107991051051008001021001KA1240N+01991MA1999999101881MW1011REMSYN023 333 20199 48000 60814;
0096833980999991997071018004-15667-038933FM-12+000599999V0200901N00101220001CN0200001N1+02651+02161101771ADDAA106000091AG10000GF102991021031008001001001MA1999999101711MD1999999+0041REMSYN011 333 58004;
0162833980999991997071100004-15667-038933FM-12+000599999V0202301N00101220001CN9999999N9+02221+02101101961ADDAA106001091AG10000AY151061AY221061GF103991021051008001021001KA1240M+02681MA1999999101901MD1999999+0511MW1021REMSYN023 333 10268 58051 60011;EQDQ01+000002VOVAR 
0143833980999991997071112004-15667-038933FM-12+000599999V0201801N00211007501CN0040001N1+02341+02051101941ADDAA124003091AG10002AY161061AY221061GF107991051051008001021001KA1240N+02001MA1999999101881MD1999999+0001MW1011REMSYN023 333 20200 58000 60034;
0124833980999991997071118004-15667-038933FM-12+000599999V0201401N00211007501CN0100001N1+02431+02051101961ADDAA106001091AG10000AY151061AY221061GF108991061051008001021999MA1999999101971MD1999999+0191MW1021REMSYN017 333 58019 69991;
0121833980999991997071212004-15667-038933FM-12+000599999V0203201N00101045001CN0100001N1+02401+02051101821ADDAA124001091AG10000GF105991021021008001041001KA1240N+01781MA1999999101761MD1999999-0121REMSYN023 333 20178 59012 69994;
0096833980999991997071218004-15667-038933FM-12+000599999V0200501N00101220001CN0200001N1+02541+02251101521ADDAA106000091AG10000GF102991021021008001001001MA1999999101471MD1999999-0431REMSYN011 333 59043;
0115833980999991997071312004-15667-038933FM-12+000599999V0202301N00101045001CN0100001N1+02261+01941101911ADDAA106000091AG10000GF105991021011008001041001KA1240N+01751MA1999999101851MD1999999+0091REMSYN017 333 20175 58009;
0096833980999991997071318004-15667-038933FM-12+000599999V0201401N00311045001CN0200001N1+02581+01921101631ADDAA106000091AG10000GF105991021051008001041001MA1999999101571MD1999999+0101REMSYN011 333 58010;
0115833980999991997071412004-15667-038933FM-12+000599999V0202701N00101045001CN0040001N1+02211+02031101971ADDAA106000091AG10000GF107991031051008001031001KA1240N+01711MA1999999101911MD1999999+0061REMSYN017 333 20171 58006;
0162833980999991997071500004-15667-038933FM-12+000599999V0209991C00001045001CN9999999N9+02351+01991101941ADDAA106000391AG10000AY151061AY221061GF106991031051008001031001KA1240M+02631MA1999999101881MD1999999+0081MW1021REMSYN023 333 10263 58008 69931;EQDQ01+000002VOVAR 
0143833980999991997071512004-15667-038933FM-12+000599999V0202301N00101045001CN0100001N1+02381+01951101971ADDAA124002091AG10002AY161061AY221061GF106991041051008001031001KA1240N+02011MA1999999101911MD1999999+0001MW1021REMSYN023 333 20201 58000 60024;
0096833980999991997071518004-15667-038933FM-12+000599999V0200501N00101220001CN0200001N1+02621+02051101711ADDAA106000091AG10000GF103991011041008001031001MA1999999101651MD1999999-0041REMSYN011 333 59004;
0150833980999991997071600004-15667-038933FM-12+000599999V0200901N003119999999N9999999N9+02441+01881101901ADDAA106000091AG10000GF106991999999008001999999KA1240M+02711MA1999999101841MD1813302-0041REMSYN017 333 10271 59004;EQDQ01+003302APC3  Q02+000002VOVAR 
0115833980999991997071612004-15667-038933FM-12+000599999V0202701N00101045001CN0100001N1+02361+01991102051ADDAA106000091AG10000GF106991041021008001041001KA1240N+01751MA1999999101991MD1999999+0081REMSYN017 333 20175 58008;
0096833980999991997071618004-15667-038933FM-12+000599999V0201401N00101220001CN0200001N1+02611+01861101801ADDAA106000091AG10000GF102991021021008001001001MA1999999101741MD1999999-0091REMSYN011 333 59009;
0134833980999991997071700004-15667-038933FM-12+000599999V0203001N01131220001CN9999999N9+02481+02391101941ADDAA106000091AG10000GF102991021011008001001001KA1240M+02651MA1999999101881MD1999999+0041REMSYN017 333 10265 58004;EQDQ01+000002VOVAR 
0143833980999991997071812004-15667-038933FM-12+000599999V0202701N00101045001CN0100001N1+02411+01971102091ADDAA124007091AG10002AY161061AY221061GF106991021051008001041001KA1240N+01761MA1999999102031MD1999999+0081MW1021REMSYN023 333 20176 58008 60074;
0096833980999991997071818004-15667-038933FM-12+000599999V0201401N00211220001CN0200001N1+02661+02071101951ADDAA106000091AG10000GF103991031051008001001001MA1999999101891MD1999999+0071REMSYN011 333 58007;
0143833980999991997071912004-15667-038933FM-12+000599999V0200901N00311007501CN0040001N1+02501+01921102141ADDAA124017091AG10002AY161061AY221061GF108991051021008001999999KA1240N+02051MA1999999102081MD1999999+0051MW1021REMSYN023 333 20205 58005 60174;
0096833980999991997071918004-15667-038933FM-12+000599999V0200901N00211220001CN0200001N1+02661+01871102001ADDAA106000091AG10000GF104991021021008001041041MA1999999101941MD1999999+0051REMSYN011 333 58005;
0143833980999991997072012004-15667-038933FM-12+000599999V0202701N00101220001CN0100001N1+02411+02091102271ADDAA124019091AG10000AY151061AY221061GF104991011051008001051001KA1240N+01911MA1999999102211MD1999999+0131MW1021REMSYN023 333 20191 58013 60194;
0096833980999991997072018004-15667-038933FM-12+000599999V0200901N00101220001CN0200001N1+02611+02331101941ADDAA106000091AG10000GF103991031021008001001001MA1999999101881MD1999999-0061REMSYN011 333 59006;
0143833980999991997072112004-15667-038933FM-12+000599999V0202701N00101045001CN0040001N1+02181+02041102171ADDAA124002091AG10002AY161061AY221061GF107991041051008001021001KA1240N+01881MA1999999102111MD1999999-0101MW1021REMSYN023 333 20188 59010 60024;
0134833980999991997072200004-15667-038933FM-12+000599999V0202701N00101220001CN9999999N9+01981+01901102041ADDAA106000091AG10000GF102991021021008001001001KA1240M+02511MA1999999101981MD1999999-0061REMSYN017 333 10251 59006;EQDQ01+000002VOVAR 
0143833980999991997072212004-15667-038933FM-12+000599999V0202701N00101007501CN0040001N1+02061+01911102121ADDAA124003091AG10002AY161061AY221061GF107991051051008001021001KA1240N+01691MA1999999102061MD1999999-0051MW1011REMSYN023 333 20169 59005 60034;
0096833980999991997072218004-15667-038933FM-12+000599999V0200501N00101220001CN0200001N1+02611+02011102101ADDAA106000091AG10000GF102991021021008001001041MA1999999101941MD1999999+0111REMSYN011 333 58011;
0134833980999991997072300004-15667-038933FM-12+000599999V0209991C00001220001CN9999999N9+02021+01781102151ADDAA106000091AG10000GF102991021021008001001001KA1240M+02661MA1999999102091MD1999999+0111REMSYN017 333 10266 58011;EQDQ01+000002VOVAR 
