0135825710999991987010100004-05500-045267FM-12+015399999V0202301N00051004201CN0100001N9+02371+02281101381ADDAA106003091AG10999AY161061GF108991081051004501999999KA1240M+03171MA1999999099391MD1999999+0151MW1021REMSYN023333   10317 58015 60031
0102825710999991987010112004-05500-045267FM-12+015399999V0202701N00051004201CN0100001N9+02361+02261101641ADDAA124003091AG10999GF108991081051004501999999MA1999999099641MD1999999+0161REMSYN017333   58016 60034
0102825710999991987010118004-05500-045267FM-12+015399999V0203601N00101004201CN0100001N9+02971+02431101181ADDAA106000091AG10999GF108991081051004501999999MA1999999099221MD1999999+0041MW1171REMSYN011333   58004
0143825710999991987010200004-05500-045267FM-12+015399999V0202301N00261220001CN0100001N9+02281+02231101301ADDAA106018091AG10999AY191061AY261061GF100991001001999999001001KA1240M+03001MA1999999099301MD1999999-0091MW1131REMSYN023333   10300 59009 60181
0116825710999991987010212004-05500-045267FM-12+015399999V0201401N00151009001CN0100001N9+02411+02281101661ADDAA124020091AG10999AY161061GF108991051081004501031999MA1999999099661MD1999999+0021REMSYN023333   20/// 58002 60204
0096825710999991987010218004-05500-045267FM-12+015399999V0201401N00211045001CN0100001N9+02831+02421101201ADDAA106000091AG10999GF107991041021008001011001MA1999999099221MD1999999+0001REMSYN011333   58000
0116825710999991987010312004-05500-045267FM-12+015399999V0200501N00051045001CN0100001N9+02431+02231101501ADDAA106008091AG10999AY161061GF105991021021004501031001MA1999999101141MD1999999-0151REMSYN023333   20/// 59015 60081
0129825710999991987010318004-05500-045267FM-12+015399999V0200501N00151220001CN0100001N9+02981+02401101121ADDAA106002091AG10999AY161061GF104991999999008001999999MA1999999099152MD1999999-0071REMSYN017333   59007 60021EQDQ01+099153APOSP 
0135825710999991987010400004-05500-045267FM-12+015399999V0202701N00151012001CN0100001N9+02491+02391101151ADDAA106011091AG10999AY161061GF106991061081008001001001KA1240M+03051MA1999999099171MD1999999-0141MW1131REMSYN023333   10305 59014 60111
0093825710999991987010418004-05500-045267FM-12+015399999V0200901N00411045001CN0100001N9+02911+02321101031ADDAG10999AY161061GF105991031021008001011001MA1999999099071MD1999999-0081REMSYN011333   59008
0121825710999991987010500004-05500-045267FM-12+015399999V0200501N00151220001CN0100001N9+02481+02381101221ADDAA106000091AG10999GF102991021001017501011001KA1240M+02981MA1999999099281MD1999999+0071MW1131REMSYN017333   10298 58007
0102825710999991987010512004-05500-045267FM-12+015399999V0200901N00151220001CN0100001N9+02541+02331101401ADDAA124000391AG10999GF104991041021004501001001MA1999999099421MD1999999+0001REMSYN017333   58000 69934
0110825710999991987010518004-05500-045267FM-12+015399999V0200901N00151220001CN0100001N9+02851+02191101071ADDAA106000091AG10999AY191061GF103991031001008001041001MA1999999099061MD1999999-0011REMSYN017333   59001 5901/
0121825710999991987010600004-05500-045267FM-12+015399999V0200501N00101220001CN0100001N9+02461+02381101151ADDAA106000091AG10999GF104991041001017501031001KA1240M+03021MA1999999099171MD1999999-0071MW1131REMSYN017333   10302 59007
0096825710999991987010612004-05500-045267FM-12+015399999V0200901N00151220001CN0100001N9+02651+02271101281ADDAA106000091AG10999GF104991011011004501041001MA1999999099401MD1999999-0021REMSYN011333   59002
0096825710999991987010618004-05500-045267FM-12+015399999V0200501N00261045001CN0100001N9+03071+02321101011ADDAA106000091AG10999GF106991021021008001011001MA1999999099041MD1999999-0021REMSYN011333   59002
0115825710999991987010700004-05500-045267FM-12+015399999V0209991C00001220001CN0100001N9+02471+02321101191ADDAA106000091AG10999GF102991021001017501011001KA1240M+03001MA1999999099211MD1999999+0041REMSYN017333   10300 58004
0110825710999991987010712004-05500-045267FM-12+015399999V0200501N00151045001CN0100001N9+02581+02271101461ADDAA124000591AG10999AY161061GF106991021021004501031001MA1999999099941MD1999999+0071REMSYN017333   58007 69954
0115825710999991987010718004-05500-045267FM-12+015399999V0200901N00511045001CN0100001N9+02961+02281101101ADDAA106000091AG10999GF106991031021008001031001MA1999999099142MD1999999+0101REMSYN011333   58010EQDQ01+099143APOSP 
0115825710999991987010800004-05500-045267FM-12+015399999V0201401N00051220001CN0100001N9+02491+02291101281ADDAA106000091AG10999GF101991011001017501011001KA1240M+03031MA1999999099281MD1999999+0071REMSYN017333   10303 58007
0130825710999991987010812004-05500-045267FM-12+015399999V0202701N00101045001CN0100001N9+02241+02171101511ADDAA124032091AG10999AY191061AY261061GF108991041071004501021999MA1999999099511MD1999999+0041MW1911REMSYN023333   20/// 58004 60324
0096825710999991987010818004-05500-045267FM-12+015399999V0200501N00101045001CN0100001N9+02941+02361101071ADDAA106000091AG10999GF106991041021008001011001MA1999999099111MD1999999-0031REMSYN011333   59003
0115825710999991987010900004-05500-045267FM-12+015399999V0209991C00001220001CN0100001N9+02511+02411101241ADDAA106000091AG10999GF101991011001012501011001KA1240M+02991MA1999999099251MD1999999-0031REMSYN017333   10299 59003
0096825710999991987010912004-05500-045267FM-12+015399999V0200501N00311220001CN0100001N9+02661+02371101331ADDAA106000091AG10999GF103991011011008001011001MA1999999099361MD1999999-0151REMSYN011333   59015
0102825710999991987010918004-05500-045267FM-12+015399999V0203201N00361045001CN0100001N9+02481+02251101061ADDAA106000091AG10999GF106991031021004501021001MA1999999099081MD1999999-0031MW1171REMSYN011333   59003
0102825710999991987011012004-05500-045267FM-12+015399999V0202301N00051004201CN0100001N9+02421+02301101391ADDAA106000091AG10999GF107991071021004501001001MA1999999099391MD1999999+0031REMSYN017333   20/// 58003
0131825710999991987011100004-05500-045267FM-12+015399999V0201401N00151220001CN0100001N9+02421+02391101201ADDAG10999AY191061GF103991999001999999011001KA1240M+03031MA1999999099211MD1999999+0081REMSYN017333   10303 58008EQDQ01+000012SCOTLC
0127825710999991987011212004-05500-045267FM-12+015399999V0201401N00511045001CN0040001N9+02291+02201101581ADDAA124000291AA299000391AG10999AY191061GF108991041071004501021999MA1999999099581MD1999999+0041MW1911REMSYN017333   58004 69924
0118825710999991987011218004-05500-045267FM-12+015399999V0200901N00211220001CN0100001N9+02921+02341101211ADDAA106001091AG10999AY191061AY261061GF104991031021008001041001MA1999999099241MD1999999+0091REMSYN017333   58009 60011
0123825710999991987011300004-05500-045267FM-12+015399999V0202701N00051220001CN0100001N9+02171+02091101311ADDAA106000091AG10999AY191061GF103991031001004501031001KA1240M+02991MA1999999099311MD1999999+0121REMSYN017333   10299 58012
0108825710999991987011318004-05500-045267FM-12+015399999V0201801N00051045001CN0100001N9+02771+02441101231ADDAA106000191AG10999GF108991041071008001021999MA1999999099321MD1999999+0081MW1911REMSYN017333   58008 69911
0159825710999991987011400004-05500-045267FM-12+015399999V0209991C00001220001CN0100001N9+02421+02371101301ADDAA106000491AA299000591AG10999AY161061GF102991021001017501011001KA1240M+02901MA1999999099311MD1999999+0001REMSYN023333   10290 58000 69941EQDQ01+999990APOSLP
0121825710999991987011412004-05500-045267FM-12+015399999V0203601N00151004201CN0100001N9+02491+02411101481ADDAA124000691AA299000591AG10999AY161061GF108991081051004501999999MA1999999099491MD1999999-0031REMSYN017333   59003 69964
0096825710999991987011418004-05500-045267FM-12+015399999V0200501N00261045001CN0100001N9+02871+02281101231ADDAA106000091AG10999GF106991021021008001071001MA1999999099261MD1999999-0061REMSYN011333   59006
0115825710999991987011500004-05500-045267FM-12+015399999V0200501N00051220001CN0100001N9+02481+02361101201ADDAA106000091AG10999GF104991041001017501011001KA1240M+02981MA1999999099221MD1999999-0091REMSYN017333   10298 59009
0102825710999991987011512004-05500-045267FM-12+015399999V0200501N00211004201CN0100001N9+02541+02351101431ADDAA106000091AG10999GF108991081021004501999999MA1999999099451MD1999999-0041REMSYN017333   20/// 59004
0096825710999991987011518004-05500-045267FM-12+015399999V0200501N00101045001CN0100001N9+02841+02351101261ADDAA106000091AG10999GF106991031021008001011001MA1999999099181MD1999999-0081REMSYN011333   59008
0102825710999991987011612004-05500-045267FM-12+015399999V0203601N00101004201CN0100001N9+02581+02371101481ADDAA106000091AG10999GF108991051021004501031999MA1999999099491MD1999999+0041REMSYN017333   20/// 58004
0096825710999991987011618004-05500-045267FM-12+015399999V0209991C00001007501CN0100001N9+02761+02431101061ADDAA106000091AG10999GF106991061021008001001001MA1999999099401MD1999999+0061REMSYN011333   58006
0121825710999991987011700004-05500-045267FM-12+015399999V0202301N00151220001CN0100001N9+02681+02461101161ADDAA106000091AG10999GF103991031001017501041001KA1240M+03191MA1999999099191MD1999999-0061MW1131REMSYN017333   10319 59006
0115825710999991987011800004-05500-045267FM-12+015399999V0200501N00151220001CN0100001N9+02551+02441101081ADDAA106000091AG10999GF102991021001017501011001KA1240M+03021MA1999999099111MD1999999-0081REMSYN017333   10302 59008
0102825710999991987011812004-05500-045267FM-12+015399999V0202301N00051004201CN0100001N9+02421+02301101391ADDAA106000091AG10999GF107991071021004501001001MA1999999099391MD1999999+0031REMSYN017333   20/// 58003
0096825710999991987011818004-05500-045267FM-12+015399999V0200501N00211007501CN0100001N9+02871+02461101021ADDAA106000091AG10999GF108991081051008001999999MA1999999099051MD1999999+0001REMSYN011333   58000
0115825710999991987011900004-05500-045267FM-12+015399999V0209991C00001220001CN0100001N9+02531+02421101051ADDAA106000091AG10999GF100991001001999999001001KA1240M+02971MA1999999099071MD1999999-0041REMSYN017333   10297 59004
0124825710999991987011912004-05500-045267FM-12+015399999V0209991C00001004201CN0200001N9+02261+02161101401ADDAA124022091AG10999AY191061AY261061GF108991081051004501999999MA1999999099411MD1999999+0021MW1021REMSYN017333   58002 60224
0096825710999991987011918004-05500-045267FM-12+015399999V0200901N00211045001CN0100001N9+02991+02531100901ADDAA106000091AG10999GF106991031031008001021011MA1999999099041MD1999999+0011REMSYN011333   58001
0122825710999991987012012004-05500-045267FM-12+015399999V0201401N00151004201CN0100001N9+02281+02161101421ADDAA124003091AG10999AY161061GF108991081051004501999999MA1999999099431MD1999999+0391MW1021REMSYN023333   20/// 58039 60034
0096825710999991987012018004-05500-045267FM-12+015399999V0201801N00211004201CN0100001N9+02701+02461101161ADDAA106000091AG10999GF108991081051004501999999MA1999999099181MD1999999+0141REMSYN011333   58014
0096825710999991987012023004-05500-045267FM-12+015399999V0201801N00211004201CN0100001N9+02701+02461101161ADDAA106000091AG10999GF108991081051004501999999MA1999999099181MD1999999+0141REMSYN011333   58014
0143825710999991987012100004-05500-045267FM-12+015399999V0209991C00001004201CN0100001N9+02181+02151101401ADDAA106012091AG10999AY191061AY261061GF108991081051004501999999KA1240M+02831MA1999999099401MD1999999+0231MW1021REMSYN023333   10283 58023 60121
0143825710999991987012112004-05500-045267FM-12+015399999V0209991C00001004201CN0100001N9+02181+02151101401ADDAA106012091AG10999AY191061AY261061GF108991081051004501999999KA1240M+02831MA1999999099401MD1999999+0231MW1021REMSYN023333   10283 58023 60121
0115825710999991987012200004-05500-045267FM-12+015399999V0203601N00101220001CN0100001N9+02481+02321101001ADDAA106000091AG10999GF100991001001999999001001KA1240M+03041MA1999999099011MD1999999-0381REMSYN017333   10304 59038
0096825710999991987012212004-05500-045267FM-12+015399999V0203601N00151220001CN0100001N9+02651+02391101311ADDAA106000091AG10999GF103991021031008001031011MA1999999099331MD1999999+0071REMSYN011333   58007
0096825710999991987012218004-05500-045267FM-12+015399999V0200501N00151007501CN0100001N9+03001+02511100901ADDAA106000091AG10999GF108991081051008001999999MA1999999098931MD1999999-0031REMSYN011333   59003
0102825710999991987012312004-05500-045267FM-12+015399999V0200501N00151007501CN0100001N9+02571+02351101321ADDAA106000091AG10999GF108991051051008001031011MA1999999099331MD1999999+0001REMSYN017333   20/// 58000
0131825710999991987012318004-05500-045267FM-12+015399999V0203601N00151045001CN0100001N9+02991+02471100971ADDAA106000091AG10999GF106991031031008001041011MA1999999099021MD1999999+0091REMSYN011333   58009EQDQ01+090023APOSP Q02+999990APOSP 
0115825710999991987012400004-05500-045267FM-12+015399999V0209991C00001220001CN0100001N9+02581+02441101031ADDAA106000091AG10999GF100991001001999999001001KA1240M+03111MA1999999099061MD1999999+0051REMSYN017333   10311 58005
0102825710999991987012412004-05500-045267FM-12+015399999V0201801N00051045001CN0100001N9+02461+02361101321ADDAA106000091AG10999GF108991041051004501021011MA1999999099341MD1999999+0011REMSYN017333   20/// 58001
0115825710999991987012500004-05500-045267FM-12+015399999V0200901N00051220001CN0100001N9+02561+02471101121ADDAA106000091AG10999GF100991001001999999001001KA1240M+03171MA1999999099141MD1999999+0081REMSYN017333   10317 58008
0115825710999991987012512004-05500-045267FM-12+015399999V0200501N00211045001CN0100001N9+02621+02411101341ADDAA106000091AG10999GF106991031051008001021011MA1999999099361MD1999999+0031REMSYN011333   58003EQDQ01+999990APOSP 
0096825710999991987012612004-05500-045267FM-12+015399999V0200501N00151220001CN0100001N9+02631+02291101251ADDAA106000091AG10999GF106991031001017501021011MA1999999099271MD1999999-0101REMSYN011333   59010
0096825710999991987012618004-05500-045267FM-12+015399999V0200501N00151220001CN0100001N9+03211+02351100961ADDAA106000091AG10999GF104991041021008001001001MA1999999099001MD1999999-0031REMSYN011333   59003
0115825710999991987012700004-05500-045267FM-12+015399999V0203601N00101220001CN0200001N9+02541+02321101151ADDAA106000091AG10999GF100991001001999999001001KA1240M+03261MA1999999099241MD1999999+0111REMSYN017333   10326 58011
0096825710999991987012718004-05500-045267FM-12+015399999V0200501N00151220001CN0100001N9+03221+02481101081ADDAA106000091AG10999GF103991031021008001001001MA1999999099131MD1999999+0131REMSYN011333   58013
0115825710999991987012800004-05500-045267FM-12+015399999V0209991C00001220001CN0100001N9+02661+02441101131ADDAA106000091AG10999GF100991001001999999001001KA1240M+03291MA1999999099191MD1999999+0021REMSYN017333   10329 58002
0102825710999991987012812004-05500-045267FM-12+015399999V0203601N00311045001CN0100001N9+02661+02411101491ADDAA106000091AG10999GF106991031051004501021011MA1999999099521MD1999999+0081REMSYN017333   20/// 58008
0096825710999991987012818004-05500-045267FM-12+015399999V0203601N00311220001CN0100001N9+03141+02451101191ADDAA106000091AG10999GF104991041021008001001001MA1999999099241MD1999999+0111REMSYN011333   58011
0115825710999991987012900004-05500-045267FM-12+015399999V0203601N00051220001CN0100001N9+02621+02341101151ADDAA106000091AG10999GF100991001001999999001001KA1240M+03211MA1999999099181MD1999999-0011REMSYN017333   10321 59001
0102825710999991987012912004-05500-045267FM-12+015399999V0200501N00151045001CN0100001N9+02601+02391101451ADDAA106000091AG10999GF107991031051004501031021MA1999999099471MD1999999-0051REMSYN017333   20/// 59005
0115825710999991987013000004-05500-045267FM-12+015399999V0203601N00051220001CN0100001N9+02401+02231101611ADDAA106000091AG10999GF100991001001999999001001KA1240M+03091MA1999999099231MD1999999+0051REMSYN017333   10309 58005
0102825710999991987013012004-05500-045267FM-12+015399999V0203601N00211004201CN0100001N9+02621+02371101981ADDAA106000091AG10999GF105991051031004501001001MA1999999099361MD1999999-0111REMSYN017333   20/// 59011
0115825710999991987013100004-05500-045267FM-12+015399999V0209991C00001220001CN0100001N9+02581+02381101091ADDAA106000091AG10999GF100991001001999999001001KA1240M+03171MA1999999099121MD1999999-0111REMSYN017333   10317 59011
0102825710999991987013112004-05500-045267FM-12+015399999V0200501N00211004201CN0100001N9+02541+02401101401ADDAA106000091AG10001GF108991051051004501999999MA1999999100921MD1999999+0061REMSYN017333   20/// 58006
0127825710999991987013118004-05500-045267FM-12+015399999V0200901N00151004201CN0100001N9+02881+02631101021ADDAA199003091AG10001GF106991061061004501001001MA1999999099052MD1999999-0041MW1211REMSYN017333   59004 60030EQDQ01+099053APOSP 
0108825710999991987020112004-05500-045267FM-12+015399999V0203601N00261004201CN0100001N9+02621+02391101441ADDAA124003091AG10999GF106991061061004501001001MA1999999099451MD1999999+0031REMSYN023333   20/// 58003 60034
0115825710999991987020200004-05500-045267FM-12+015399999V0200901N00101220001CN0100001N9+02611+02371101131ADDAA106000091AG10999GF100991001001999999001001KA1240M+03291MA1999999099161MD1999999+0001REMSYN017333   10329 58000
0102825710999991987020212004-05500-045267FM-12+015399999V0203601N00261220001CN0100001N9+02581+02331101441ADDAA106000091AG10999GF104991041041004501001001MA1999999099461MD1999999+0011REMSYN017333   20/// 58001
0096825710999991987020218004-05500-045267FM-12+015399999V0200901N00311220001CN0100001N9+03271+02181101031ADDAA106000091AG10999GF103991031021008001001001MA1999999099091MD1999999+0011REMSYN011333   58001
0115825710999991987020300004-05500-045267FM-12+015399999V0200501N00151220001CN0100001N9+02641+02291101151ADDAA106000091AG10999GF100991001001999999001001KA1240M+03311MA1999999099181MD1999999+0021REMSYN017333   10331 58002
0102825710999991987020312004-05500-045267FM-12+015399999V0203601N00211220001CN0100001N9+02601+02291101261ADDAA106000091AG10999GF102991011011008001041001MA1999999099291MD1999999-0171REMSYN017333   20/// 59017
0115825710999991987020400004-05500-045267FM-12+015399999V0200501N00151220001CN0100001N9+02611+02351101021ADDAA106000091AG10999GF100991001001999999001001KA1240M+03311MA1999999099051MD1999999-0131REMSYN017333   10331 59013
0096825710999991987020412004-05500-045267FM-12+015399999V0200501N00311220001CN0100001N9+02781+02381101371ADDAA106000091AG10999GF102991011011008001041001MA1999999099401MD1999999+0111REMSYN011333   58011
0115825710999991987020500004-05500-045267FM-12+015399999V0200501N00101220001CN0100001N9+02701+02501101001ADDAA106000091AG10999GF100991001001999999001001KA1240M+03411MA1999999099051MD1999999+0001REMSYN017333   10341 58000
0102825710999991987020512004-05500-045267FM-12+015399999V0203601N00151004201CN0100001N9+02681+02391101371ADDAA106000091AG10999GF106991061031004501001001MA1999999099401MD1999999+0001REMSYN017333   20/// 58000
0096825710999991987020518004-05500-045267FM-12+015399999V0200501N00261220001CN0100001N9+03191+02331101021ADDAA106000091AG10999GF103991031021008001001001MA1999999099071MD1999999+0111REMSYN011333   58011
0115825710999991987020600004-05500-045267FM-12+015399999V0209991C00001220001CN0100001N9+02571+02361101051ADDAA106000091AG10999GF100991001001999999001001KA1240M+03311MA1999999099081MD1999999+0031REMSYN017333   10331 58003
0102825710999991987020612004-05500-045267FM-12+015399999V0200501N00211004201CN0100001N9+02661+02371101381ADDAA106000091AG10999GF106991061021004501001001MA1999999099411MD1999999+0011REMSYN017333   20/// 58001
0143825710999991987020700004-05500-045267FM-12+015399999V0202301N00151220001CN0040001N9+02321+02271101101ADDAA106026091AG10999AY191061AY261061GF102991021001017501041001KA1240M+03231MA1999999099111MD1999999+0041MW1021REMSYN023333   10323 58004 60261
0108825710999991987020712004-05500-045267FM-12+015399999V0200501N00361004201CN0100001N9+02591+02381101431ADDAA124027091AG10999GF106991061041004501001001MA1999999099441MD1999999+0031REMSYN023333   20/// 58003 60274
0096825710999991987020718004-05500-045267FM-12+015399999V0200501N00211045001CN0100001N9+03101+02341101001ADDAA106000091AG10999GF106991041031008001041001MA1999999099041MD1999999+0021REMSYN011333   58002
0096825710999991987020818004-05500-045267FM-12+015399999V0201401N00361015001CN0100001N9+02991+02301101221ADDAA106000091AG10999GF108991081001017501021999MA1999999099251MD1999999+0211REMSYN011333   58021
0115825710999991987020900004-05500-045267FM-12+015399999V0201801N00151015001CN0100001N9+02541+02331101301ADDAA106000091AG10999GF106991061001017501061001KA1240M+03061MA1999999099321MD1999999+0031REMSYN017333   10306 58003
0102825710999991987020912004-05500-045267FM-12+015399999V0200501N00361004201CN0100001N9+02591+02351101541ADDAA106000091AG10999GF106991061021004501001001MA1999999099561MD1999999+0001REMSYN017333   520// 58000
0110825710999991987020918004-05500-045267FM-12+015399999V0200501N00101045001CN0100001N9+02991+02441101151ADDAA106002091AG10999AY161061GF105991031021008001021001MA1999999099181MD1999999-0071REMSYN017333   59007 60021
0108825710999991987021012004-05500-045267FM-12+015399999V0201401N00051045001CN0100001N9+02501+02291101601ADDAA124003091AG10999GF106991041021004501031001MA1999999099601MD1999999+0041REMSYN023333   20/// 58004 60034
0119825710999991987021018004-05500-045267FM-12+015399999V0200901N00571045001CN0040001N9+02621+02411101221ADDAA106000291AA299000391AG10999GF108991041071004501021999MA1999999099241MD1999999+0061MW1911REMSYN017333   58006 69921
0116825710999991987021112004-05500-045267FM-12+015399999V0201401N00051004201CN0100001N9+02381+02221101561ADDAA124016091AG10999AY161061GF108991081051004501999999MA1999999099561MD1999999-0041REMSYN023333   20/// 59004 60164
0116825710999991987021118004-05500-045267FM-12+015399999V0201801N00361045001CN0040001N9+02321+02271101291ADDAA106014091AG10999AY161061GF108991041071008001021999MA1999999099291MD1999999+0051MW1911REMSYN017333   58005 60141
0115825710999991987021200004-05500-045267FM-12+015399999V0202301N00101220001CN0100001N9+02291+02251101321ADDAA106000091AG10999GF100991001001999999001001KA1240M+02691MA1999999099331MD1999999-0111REMSYN017333   10269 59011
0099825710999991987021212004-05500-045267FM-12+015399999V0200901N00211004201CN0100001N9+02601+02271101391ADDAG10999AY161061GF105991051021004501031001MA1999999099401MD1999999-0161REMSYN017333   2021/ 59016
0154825710999991987021300004-05500-045267FM-12+015399999V0200501N00311004201CN0100001N9+02361+02291101261ADDAA106000291AA299000391AG10999AY191061AY261061GF108991081051004501999999KA1240M+03051MA1999999099281MD1999999-0051MW1911REMSYN023333   10305 59005 69921
0122825710999991987021312004-05500-045267FM-12+015399999V0203601N00151045001CN0020001N9+02251+02211101451ADDAA124033091AG10999AY161061GF108991041071004501021999MA1999999099451MD1999999+0051MW1911REMSYN023333   20/// 58005 60334
0121825710999991987021318004-05500-045267FM-12+015399999V0203601N00211045001CN0100001N9+02581+02271101221ADDAA106000891AA299001091AG10001AY161061GF105991021021008001071001MA1999999099231MD1999999+0231REMSYN017333   58023 69981
0115825710999991987021400004-05500-045267FM-12+015399999V0203601N00101045001CN0100001N9+02341+02241101361ADDAA106000091AG10999GF106991031021008001031001KA1240M+02741MA1999999099361MD1999999+0081REMSYN017333   10274 58008
0102825710999991987021412004-05500-045267FM-12+015399999V0200101N00151220001CN0100001N9+02531+02191101411ADDAA124008091AG10999GF103991011021004501031001MA1999999099421MD1999999-0031REMSYN017333   59003 60084
0096825710999991987021418004-05500-045267FM-12+015399999V0200501N00311220001CN0100001N9+02991+02251101061ADDAA106000091AG10999GF103991031021008001001001MA1999999099091MD1999999+0141REMSYN011333   58014
0115825710999991987021500004-05500-045267FM-12+015399999V0200901N00151220001CN0100001N9+02491+02321101231ADDAA106000091AG10999GF102991021001017501031001KA1240M+03101MA1999999099251MD1999999-0111REMSYN017333   10310 59011
0116825710999991987021512004-05500-045267FM-12+015399999V0201801N00211004201CN0100001N9+02361+02261101401ADDAA124018091AG10999AY161061GF107991051021004501041001MA1999999099411MD1999999-0011REMSYN023333   20/// 59001 60184
0110825710999991987021518004-05500-045267FM-12+015399999V0201801N00211007501CN0100001N9+02931+02341101061ADDAA106005091AG10999AY161061GF106991051021008001041001MA1999999099091MD1999999+0001REMSYN017333   58000 60051
0129825710999991987021600004-05500-045267FM-12+015399999V0209991C00001220001CN0100001N9+02411+02351101191ADDAA106000591AG10999AY161061GF103991031001017501041001KA1240M+03031MA1999999099201MD1999999-0051REMSYN023333   10303 59005 69951
0108825710999991987021612004-05500-045267FM-12+015399999V0202301N00051004201CN0100001N9+02361+02341101411ADDAA124006091AG10999GF108991081051004501999999MA1999999099421MD1999999+0011REMSYN023333   20/// 58001 60064
0110825710999991987021618004-05500-045267FM-12+015399999V0203201N00101045001CN0100001N9+02921+02501101011ADDAA106004091AG10999AY161061GF106991041051008001041001MA1999999099051MD1999999-0041REMSYN017333   59004 60041
0129825710999991987021700004-05500-045267FM-12+015399999V0200501N00101004201CN0100001N9+02391+02281101311ADDAA106002091AG10999AY161061GF108991081051004501999999KA1240M+02981MA1999999099221MD1999999+0021REMSYN023333   10298 58002 60021
0122825710999991987021712004-05500-045267FM-12+015399999V0203201N001519999999N0100001N9+02421+02321101421ADDAA124005091AG10999AY121061GF108991999999004501999999MA1999999099421MD1999999+0001MW1471REMSYN023333   20/// 58000 60054
0135825710999991987021800004-05500-045267FM-12+015399999V0202301N00101004201CN0100001N9+02301+02271101461ADDAA106002091AG10999AY161061GF108991081071004501999999KA1240M+02841MA1999999099461MD1999999+0241MW1611REMSYN023333   10284 58024 60021
0130825710999991987021812004-05500-045267FM-12+015399999V0200501N00051004201CN0100001N9+02391+02261101511ADDAA124018091AG10999AY191061AY261061GF108991081071004501999999MA1999999099511MD1999999-0091MW1021REMSYN023333   20/// 59009 60184
0096825710999991987021818004-05500-045267FM-12+015399999V0200901N00261045001CN0100001N9+03041+02281101031ADDAA106000091AG10999GF105991031021008001041001MA1999999099121MD1999999-0061REMSYN011333   59006
0121825710999991987021900004-05500-045267FM-12+015399999V0200501N00151220001CN0100001N9+02521+02381101201ADDAA106000091AG10999GF104991041051004501001001KA1240M+03081MA1999999099221MD1999999-0121MW1131REMSYN017333   10308 59012
0102825710999991987021912004-05500-045267FM-12+015399999V0200501N00101004201CN0100001N9+02451+02321101391ADDAA106000091AG10001GF108991081051004501999999MA1999999099411MD1999999-0101REMSYN017333   20/// 59010
0135825710999991987022000004-05500-045267FM-12+015399999V0200501N00051220001CN0100001N9+02481+02341101071ADDAA106002091AG10999AY161061GF104991041051004501001001KA1240M+03081MA1999999099991MD1999999-0131MW1121REMSYN023333   10308 59013 60021
0108825710999991987022012004-05500-045267FM-12+015399999V0200501N00151045001CN0100001N9+02551+02331101261ADDAA124002091AG10999GF106991031051004501031011MA1999999099281MD1999999-0131REMSYN023333   20/// 59013 60024
0116825710999991987022018004-05500-045267FM-12+015399999V0201801N00151007501CN0100001N9+03091+02521100901ADDAA106005091AG10999AY161061GF106991061031008001001001MA1999999098951MD1999999-0181MW1021REMSYN017333   59018 60051
0108825710999991987022112004-05500-045267FM-12+015399999V0200901N00151045001CN0100001N9+02621+02411101251ADDAA124005091AG10999GF106991031051004501021011MA1999999099271MD1999999-0011REMSYN023333   20/// 59001 60054
0121825710999991987022200004-05500-045267FM-12+015399999V0200901N00101220001CN0100001N9+02561+02331100971ADDAA106000091AG10999GF100991001001999999001001KA1240M+03191MA1999999099001MD1999999+0051MW1131REMSYN017333   10319 58005
0102825710999991987022212004-05500-045267FM-12+015399999V0200901N00211004201CN0100001N9+02611+02391101381ADDAA106000091AG10999GF108991081051004501999999MA1999999099411MD1999999+0141REMSYN017333   20/// 58014
0096825710999991987022218004-05500-045267FM-12+015399999V0200501N00311220001CN0100001N9+03081+02401101071ADDAA106000091AG10999GF104991031021008001001011MA1999999099111MD1999999+0251REMSYN011333   58025
0140825710999991987022300004-05500-045267FM-12+015399999V0200501N00101220001CN0100001N9+02571+02351101161ADDAA106000091AG10999GF100991001001999999001001KA1240M+03071MA1999999099181MD1999999+0181MW1131REMSYN017333   10307 58018EQDQ01+999990APOSLP
0133825710999991987022312004-05500-045267FM-12+015399999V0200501N00101220001CN0100001N9+02481+02251101431ADDAA124000491AA299000591AG10999AY161061GF106991031001017501031011MA1999999099471MD1999999+0061MW1021REMSYN023333   20/// 58006 69944
0096825710999991987022318004-05500-045267FM-12+015399999V0200501N00211045001CN0100001N9+03041+02501100991ADDAA106000091AG10999GF108991031031008001021011MA1999999099041MD1999999-0071REMSYN011333   59007
0115825710999991987022400004-05500-045267FM-12+015399999V0200501N00101220001CN0100001N9+02621+02421101091ADDAA106000091AG10999GF100991001001999999001001KA1240M+03171MA1999999099121MD1999999-0061REMSYN017333   10317 59006
0130825710999991987022412004-05500-045267FM-12+015399999V0200501N00311015001CN0100001N9+02521+02211101381ADDAA124021091AG10999AY191061AY261061GF106991061001017501051011MA1999999099401MD1999999-0071MW1021REMSYN023333   20/// 59007 60214
0116825710999991987022418004-05500-045267FM-12+015399999V0200901N00211045001CN0100001N9+03041+02521101011ADDAA106000191AG10999AY161061GF106991031031008001051051MA1999999099051MD1999999+0011MW1021REMSYN017333   58001 69911
0115825710999991987022500004-05500-045267FM-12+015399999V0209999999999220001CN0100001N9+02521+02311101131ADDAA106000091AG10999GF100991001001999999001001KA1240M+03081MA1999999099151MD1999999+0031REMSYN017333   10308 58003
0108825710999991987022512004-05500-045267FM-12+015399999V0209991C00001004201CN0100001N9+02481+02321101361ADDAA124000191AG10999GF108991081051004501999999MA1999999099311MD1999999-0021REMSYN023333   20/// 59002 69914
0096825710999991987022518004-05500-045267FM-12+015399999V0201401N00211045001CN0100001N9+03191+02551101031ADDAA106000091AG10999GF106991031031008001021011MA1999999099081MD1999999+0031REMSYN011333   58003
0140825710999991987022600004-05500-045267FM-12+015399999V0200501N001019999999N0100001N9+02661+02591101161ADDAA106000091AG10999GF106991061071999999001001KA1240M+03161MA1999999099181MD1999999+0031MW1131REMSYN017333   10316 58003EQDQ01+000992SCOLCB
0102825710999991987022612004-05500-045267FM-12+015399999V0200501N00151220001CN0100001N9+02641+02411101341ADDAA106000091AG10999GF105991031021008001001011MA1999999099371MD1999999-0011REMSYN017333   20/// 59001
0096825710999991987022618004-05500-045267FM-12+015399999V0200901N00151007501CN0100001N9+03141+02501101111ADDAA106000091AG10999GF105991051031008001001001MA1999999099161MD1999999+0081REMSYN011333   58008
0102825710999991987022712004-05500-045267FM-12+015399999V0200501N00211220001CN0100001N9+02621+02411101421ADDAA106000091AG10999GF103991031021008001001001MA1999999099451MD1999999+0081REMSYN017333   20/// 58008
0096825710999991987022718004-05500-045267FM-12+015399999V0200901N00311220001CN0100001N9+03241+02501101021ADDAA106000091AG10999GF103991031021008001001001MA1999999099071MD1999999-0091REMSYN011333   59009
0115825710999991987022800004-05500-045267FM-12+015399999V0200501N00151220001CN0100001N9+02661+02441101131ADDAA106000091AG10999GF100991001001999999001001KA1240M+03271MA1999999099161MD1999999+0011REMSYN017333   10327 58001
0102825710999991987022812004-05500-045267FM-12+015399999V0200501N00211004201CN0100001N9+02641+02411101321ADDAA106000091AG10999GF107991071051004501001001MA1999999099351MD1999999-0101REMSYN017333   20/// 59010
0110825710999991987022818004-05500-045267FM-12+015399999V0202301N00151045001CN0100001N9+02831+02561100971ADDAA106004091AG10999AY161061GF105991041051008001041001MA1999999099001MD1999999-0071REMSYN017333   59007 60041
0115825710999991987030100004-05500-045267FM-12+015399999V0203201N00151007501CN0100001N9+02491+02391101181ADDAA106000091AG10999GF107991071021008001001001KA1240M+03081MA1999999099201MD1999999+0041REMSYN017333   10308 58004
0096825710999991987030118004-05500-045267FM-12+015399999V0203201N00101045001CN0100001N9+03221+02481100891ADDAA106000091AG10999GF105991041021008001011001MA1999999098941MD1999999-0061REMSYN011333   59006
0130825710999991987030212004-05500-045267FM-12+015399999V0200901N00311004201CN0040001N9+02501+02401101451ADDAA124002091AG10999AY191061AY261061GF108991081071004501999999MA1999999099471MD1999999+0221MW1031REMSYN023333   20/// 58022 60024
0116825710999991987030218004-05500-045267FM-12+015399999V0201401N00101007501CN0100001N9+02561+02351101091ADDAA106021091AG10999AY161061GF107991071051008001001001MA1999999099111MD1999999+0171MW1011REMSYN017333   58017 60211
0137825710999991987030300004-05500-045267FM-12+015399999V0209991C00001220001CN0100001N9+02401+02331101251ADDAA106000091AG10999AY111061AY201061GF103991031041008001001001KA1240M+02691MA1999999099251MD1999999+0141MW1131REMSYN017333   10269 58014
0108825710999991987030312004-05500-045267FM-12+015399999V0200501N00151004201CN0100001N9+02631+02331101431ADDAA124021091AG10999GF108991081051004501999999MA1999999099451MD1999999-0021REMSYN023333   20/// 59002 60214
0096825710999991987030318004-05500-045267FM-12+015399999V0203201N00261007501CN0200001N9+02891+02321101071ADDAA106000091AG10999GF108991061031008001041999MA1999999099381MD1999999+0121REMSYN011333   58012
0148825710999991987030400004-05500-045267FM-12+015399999V0200501N00051004201CN0100001N9+02371+02311101301ADDAA106000091AG10999AY191061GF108991081071004501999999KA1240N+99999MA1999999099321MD1999999+0071MW1131REMSYN017333   20299 58007EQDQ01 +02992ATMN  
0130825710999991987030412004-05500-045267FM-12+015399999V0203601N00211004201CN0100001N9+02441+02321101501ADDAA124001091AG10999AY191061AY261061GF108991081051004501999999MA1999999099511MD1999999+0061MW1011REMSYN023333   20/// 58006 60014
0096825710999991987030418004-05500-045267FM-12+015399999V0203601N00261045001CN0100001N9+02871+02361101081ADDAA106000091AG10999GF106991031041008001021001MA1999999099111MD1999999+0041REMSYN011333   58004
0121825710999991987030500004-05500-045267FM-12+015399999V0200501N00101007501CN0100001N9+02371+02261101311ADDAA106000091AG10999GF106991061051008001001001KA1240M+02881MA1999999099321MD1999999+0001MW1131REMSYN017333   10288 58000
0102825710999991987030512004-05500-045267FM-12+015399999V0200201N00261004201CN0100001N9+02461+02301101441ADDAA106000091AG10999GF108991081051004501999999MA1999999099451MD1999999-0061REMSYN017333   20/// 59006
0115825710999991987030600004-05500-045267FM-12+015399999V0200501N00051220001CN0100001N9+02451+02341101221ADDAA106000091AG10999GF104991041031008001041001KA1240M+02951MA1999999099241MD1999999-0281REMSYN017333   10295 59028
0102825710999991987030612004-05500-045267FM-12+015399999V0200601N00211004201CN0200001N9+02501+02341101301ADDAA106000091AG10999GF108991081051004501999999MA1999999099321MD1999999-0131REMSYN017333   20/// 59013
0096825710999991987030618004-05500-045267FM-12+015399999V0203601N00261007501CN0100001N9+03051+02331100881ADDAA106000091AG10999GF106991061021008001001001MA1999999098921MD1999999-0211REMSYN011333   59021
0108825710999991987030712004-05500-045267FM-12+015399999V0200901N00051045001CN0100001N9+02511+02401101351ADDAA124002091AG10999GF108991041071004501021999MA1999999099371MD1999999+0051REMSYN023333   20/// 58005 60024
0116825710999991987030718004-05500-045267FM-12+015399999V0200501N00151045001CN0040001N9+02511+02431101011ADDAA106003091AG10999AY161061GF108991041071004501021999MA1999999099031MD1999999-0111MW1911REMSYN017333   59011 60031
0146825710999991987030800004-05500-045267FM-12+015399999V0201801N00101045001CN0040001N9+02461+02441101151ADDAA106000491AA299000591AG10999AY161061GF108991041051004501021999KA1240M+02731MA1999999099371MD1999999+0001MW1911REMSYN023333   10273 58000 69941
0124825710999991987030812004-05500-045267FM-12+015399999V0200501N00051004201CN0100001N9+02511+02401101321ADDAA124005091AG10999AY161061AY281061GF108991061051004501041001MA1999999099341MD1999999-0031REMSYN023333   20/// 59003 60054
0110825710999991987030818004-05500-045267FM-12+015399999V0202701N00151007501CN0100001N9+02521+02471100951ADDAA106009091AG10999AY161061GF108991081051008001999999MA1999999098971MD1999999-0061REMSYN017333   59006 60091
0135825710999991987030900004-05500-045267FM-12+015399999V0202301N00151045001CN0040001N9+02321+02301101231ADDAA106006091AG10999AY161061GF108991041071004501021999KA1240M+02831MA1999999099241MD1999999+0071MW1911REMSYN023333   10283 58007 60061
0130825710999991987030912004-05500-045267FM-12+015399999V0201401N00101004201CN0040001N9+02271+02241101451ADDAA124054091AG10999AY161061AY261061GF108991081071004501999999MA1999999099451MD1999999+0111MW1611REMSYN023333   20/// 58011 60544
0135825710999991987030918004-05500-045267FM-12+015399999V0200501N00151009001CN0100001N9+02541+02331101191ADDAA106000991AA299001091AG10999AY161061AY261061GF108991081081004501999999MA1999999099201MD1999999+0031MW1021REMSYN017333   58003 69991
0115825710999991987031000004-05500-045267FM-12+015399999V0200901N00101007501CN0100001N9+02321+02291101301ADDAA106000091AG10999GF108991061051008001021999KA1240M+02581MA1999999099301MD1999999+0061REMSYN017333   10258 58006
0116825710999991987031012004-05500-045267FM-12+015399999V0202301N00101004201CN0100001N9+02341+02321101341ADDAA124001091AG10999AY161061GF107991051051004501031001MA1999999099431MD1999999-0021REMSYN023333   20/// 59002 60014
0096825710999991987031018004-05500-045267FM-12+015399999V0200501N00211220001CN0100001N9+03071+02301101051ADDAA106000091AG10999GF104991041021008001001001MA1999999099091MD1999999-0511REMSYN011333   59051
0115825710999991987031100004-05500-045267FM-12+015399999V0200501N00101220001CN0100001N9+02461+02341101261ADDAA106000091AG10999GF101991011001017501011001KA1240M+03111MA1999999099271MD1999999-0031REMSYN017333   10311 59003
0102825710999991987031112004-05500-045267FM-12+015399999V0200501N00101004201CN0100001N9+02441+02371101421ADDAA106000091AG10999GF108991081051004501999999MA1999999099431MD1999999+0001REMSYN017333   20/// 58000
0096825710999991987031118004-05500-045267FM-12+015399999V0200501N00261220001CN0200001N9+03061+02351100891ADDAA106000091AG10999GF102991011011008001041001MA1999999098921MD1999999+0171REMSYN011333   58017
0118825710999991987031200004-05500-045267FM-12+015399999V0209991C000019999999N0100001N9+02491+02391101181ADDAG10999AY111061GF105991999999017501999999KA1240M+03121MA1999999099201MD1999999-0071MW1131REMSYN017333   10312 59007
0122825710999991987031212004-05500-045267FM-12+015399999V0201801N00151045001CN0020001N9+02281+02221101591ADDAA124034091AG10999AY161061GF108991041071004501021999MA1999999099491MD1999999+0161MW1911REMSYN023333   20/// 58016 60344
0124825710999991987031218004-05500-045267FM-12+015399999V0200501N00051045001CN0040001N9+02251+02221101301ADDAA106032091AG10001AY161061AY261061GF108991041071004501021999MA1999999099301MD1999999+0381MW1911REMSYN017333   58038 60321
0129825710999991987031300004-05500-045267FM-12+015399999V0200501N00051012001CN0040001N9+02361+02241101401ADDAA106000191AG10999AY161061GF108991081081008001999999KA1240M+02501MA1999999099401MD1999999+0201REMSYN023333   10250 58020 69911
0122825710999991987031312004-05500-045267FM-12+015399999V0201801N00151004201CN0100001N9+02281+02231101551ADDAA124032091AG10999AY161061GF108991081071004501999999MA1999999099541MD1999999-0051MW1021REMSYN023333   20/// 59005 60324
0096825710999991987031318004-05500-045267FM-12+015399999V0201401N00101045001CN0100001N9+02961+02331100991ADDAA106000091AG10999GF107991041031008001041011MA1999999099121MD1999999-0281REMSYN011333   59028
0134825710999991987031400004-05500-045267FM-12+015399999V0203201N00101220001CN0100001N9+02441+02271101211ADDAA106000091AG10001GF103991021021008001031001KA1240M+99999MA1999999099221MD1999999+0181REMSYN017333   10234 58018EQDQ01 +02342ATMX  
0102825710999991987031412004-05500-045267FM-12+015399999V0200501N00261004201CN0100001N9+02491+02291101401ADDAA106000091AG10999GF108991081051004501999999MA1999999099411MD1999999-0131REMSYN017333   20/// 59013
0119825710999991987031418004-05500-045267FM-12+015399999V0203201N00151045001CN0040001N9+02751+02431100971ADDAA106000291AA299000391AG10999GF106991031091008001041001MA1999999098991MD1999999-0031MW1911REMSYN017333   59003 69921
0115825710999991987031500004-05500-045267FM-12+015399999V0202101N00101004201CN0040001N9+02361+02331101381ADDAA106000091AG10999GF108991081051004501999999KA1240M+03071MA1999999099391MD1999999-0171REMSYN017333   10307 59017
0130825710999991987031512004-05500-045267FM-12+015399999V0200501N00211004201CN0040001N9+02231+02191101591ADDAA124022091AG10999AY161061AY261061GF108991081071004501999999MA1999999099591MD1999999+0181MW1611REMSYN023333   20/// 58018 60224
0116825710999991987031518004-05500-045267FM-12+015399999V0200501N00151045001CN0100001N9+02631+02231101231ADDAA106000391AG10999AY161061GF107991041061008001021001MA1999999099241MD1999999+0251MW1011REMSYN017333   58025 69931
0121825710999991987031600004-05500-045267FM-12+015399999V0203601N00101220001CN0100001N9+02311+02271101371ADDAA106000091AG10999GF102991021001017501041001KA1240M+02691MA1999999099371MD1999999-0021MW1011REMSYN017333   10269 59002
0108825710999991987031612004-05500-045267FM-12+015399999V0200501N00151004201CN0100001N9+02341+02311101531ADDAA124000391AG10999GF108991081051004501999999MA1999999099531MD1999999-0061REMSYN023333   20/// 59006 69934
0127825710999991987031618004-05500-045267FM-12+015399999V0201801N00211045001CN0100001N9+02801+02481101091ADDAA106000991AA299001091AG10999AY161061GF106991041021008001011001MA1999999099111MD1999999-0131MW1021REMSYN017333   59013 69991
0143825710999991987031700004-05500-045267FM-12+015399999V0209991C00001004201CN0100001N9+02301+02281101371ADDAA106003091AG10999AY191061AY281061GF108991081051004501999999KA1240M+02891MA1999999099371MD1999999-0091MW1911REMSYN023333   10289 59009 60031
0130825710999991987031712004-05500-045267FM-12+015399999V0200501N00101004201CN0100001N9+02501+02341101371ADDAA124005091AG10999AY191061AY261061GF106991061031004501001001MA1999999099381MD1999999-0151MW1011REMSYN023333   20/// 59015 60054
0082825710999991987031718004-05500-045267FM-12+015399999V0200501N00151220001CN0100001N9+03011+99999100991ADDAA106000091AG10999GF104991031021008001041001MA1999999099041REMSYN011333   49008
0162825710999991987031800004-05500-045267FM-12+015399999V0209991C00001007501CN0100001N9+02551+02341101111ADDAA106000191AG10999AY191061AY261061GF107991051051008001021001KA1240M+03031MA1999999098132MD1999999-0241MW1131REMSYN023333   10303 59024 69911EQDQ01+098133APOSP 
0108825710999991987031812004-05500-045267FM-12+015399999V0200501N00151045001CN0100001N9+02451+02301101321ADDAA124000191AG10999GF105991031021004501041001MA1999999099331MD1999999-0151REMSYN023333   20/// 59015 69914
0116825710999991987031818004-05500-045267FM-12+015399999V0203601N00051045001CN0100001N9+02541+02511100951ADDAA106032091AG10999AY161061GF105991031051008001041001MA1999999098971MD1999999-0061MW1021REMSYN017333   59006 60321
0143825710999991987031912004-05500-045267FM-12+015399999V0203601N00311045001CN0020001N9+02181+02151101331ADDAA106016091AG10999AY191061AY261061GF108991041071004501021999KA1240M+02961MA1999999099331MD1999999+0201MW1911REMSYN023333   10296 58020 60161
0121825710999991987032000004-05500-045267FM-12+015399999V0200501N00151220001CN0100001N9+02461+02391101331ADDAA106000091AG10999GF103991031001017501041001KA1240M+03081MA1999999099341MD1999999+0011MW1131REMSYN017333   10308 58001
0102825710999991987032012004-05500-045267FM-12+015399999V0200501N00151004201CN0100001N9+02421+02301102511ADDAA106000091AG10999GF108991081051004501999999MA1999999099521MD1999999+0081REMSYN017333   20/// 58008
0115825710999991987032018004-05500-045267FM-12+015399999V0200901N00261045001CN0100001N9+03031+02391101032ADDAA106000091AG10999GF106991021031008001041011MA1999999099071MD1999999-0021REMSYN011333   59002EQDQ01+101033APOSLP
0143825710999991987032100004-05500-045267FM-12+015399999V0200501N00051004201CN0100001N9+02261+02211101151ADDAA112021091AG10999AY191061AY261061GF108991081071004501999999KA1240M+03081MA1999999099161MD1999999-0181MW1131REMSYN023333   10308 59018 60212
0108825710999991987032112004-05500-045267FM-12+015399999V0200901N00211220001CN0100001N9+02561+02271101281ADDAA124012091AG10999GF102991021001017501041001MA1999999099291MD1999999-0231REMSYN023333   20/// 59023 60124
0096825710999991987032118004-05500-045267FM-12+015399999V0203601N00261220001CN0100001N9+03111+02361100831ADDAA106000091AG10001GF102991011021008001041001MA1999999098871MD1999999-0201REMSYN011333   59020
0140825710999991987032200004-05500-045267FM-12+015399999V0200901N00151004201CN0100001N9+02521+02421101642ADDAA106000091AG10999GF108991081051004501999999KA1240M+03151MA1999999099071MD1999999-0091MW1131REMSYN017333   10315 59009EQDQ01+101643APOSLP
0102825710999991987032218004-05500-045267FM-12+015399999V0200901N00211045001CN0100001N9+02641+02351101211ADDAA106000091AG10999GF106991031051004501031011MA1999999099241MD1999999-0051REMSYN017333   20/// 59005
0140825710999991987032300004-05500-045267FM-12+015399999V0209991C000019999999N0100001N9+02551+02381100961ADDAA106000091AG10999GF108991081051999999999999KA1240M+03121MA1999999098991MD1999999-0081MW1171REMSYN017333   10312 59008EQDQ01+000992SCOLCB
0102825710999991987032312004-05500-045267FM-12+015399999V0209991C00001004201CN0100001N9+02591+02381101291ADDAA106000091AG10999GF108991081051004501999999MA1999999099311MD1999999+0071REMSYN017333   20/// 58007
0116825710999991987032318004-05500-045267FM-12+015399999V0203601N00311004201CN0100001N9+02641+02501100871ADDAA106002091AG10999AY161061GF108991081051004501999999MA1999999098901MD1999999+0091MW1911REMSYN017333   58009 60021
0137825710999991987032412004-05500-045267FM-12+015399999V0200501N00101045001CN0100001N9+02671+02351101261ADDAA124012091AG10999AY161061AY261061GF108991041031004501021001KA1240N+02121MA1999999099561MD1999999-0081REMSYN023333   20212 59008 60124
0154825710999991987032418004-05500-045267FM-12+015399999V0201801N00101220001CN0100001N9+03001+02511100262ADDAA106000991AA299001091AG10001AY161061AY221061GF106991041021008001001011MA1999999098901MD1999999+0001MW1021REMSYN017333   58000 69991EQDQ01+100263APOSLP
0121825710999991987032500004-05500-045267FM-12+015399999V0209991C00001220001CN0100001N9+02591+02481101021ADDAA106000091AG10999GF100991001001999999001001KA1240M+03101MA1999999099041MD1999999-0191MW1131REMSYN017333   10310 59019
0119825710999991987032512004-05500-045267FM-12+015399999V0200501N00211004201CN0100001N9+02621+02411101211ADDAA124000991AA299001091AG10999GF108991081071004501999999MA1999999099241MD1999999-0061REMSYN023333   20/// 59006 69994
0096825710999991987032518004-05500-045267FM-12+015399999V0200501N00151220001CN0100001N9+03081+02471100671ADDAA106000091AG10999GF105991031021008001001011MA1999999098731MD1999999-0171REMSYN011333   59017
0129825710999991987032600004-05500-045267FM-12+015399999V0200501N00211004201CN0100001N9+02551+02511101061ADDAA106000091AG10999AY191061GF108991081051004501999999KA1240M+03151MA1999999099091MD1999999+0051MW1131REMSYN017333   10315 58005
0102825710999991987032612004-05500-045267FM-12+015399999V0209991C00001004201CN0100001N9+02521+02401101191ADDAA106000091AG10999GF108991081051004501999999MA1999999099211MD1999999-0031REMSYN017333   20/// 59003
0096825710999991987032618004-05500-045267FM-12+015399999V0202701N00151007501CN0100001N9+02881+02461100991ADDAA106000091AG10999GF108991081051008001999999MA1999999098841MD1999999+0111REMSYN011333   58011
0115825710999991987032700004-05500-045267FM-12+015399999V0202301N00101220001CN0100001N9+02591+02511101021ADDAA106000091AG10999GF100991001001999999001001KA1240M+02941MA1999999099051MD1999999-0051REMSYN017333   10294 59005
0099825710999991987032712004-05500-045267FM-12+015399999V0203601N00151105001CN0100001N9+02601+02481101181ADDAG10999AY161061GF105991021021008001031011MA1999999099211MD1999999+0001MW1021REMSYN011333   58000
0096825710999991987032718004-05500-045267FM-12+015399999V0200501N00211220001CN0100001N9+03061+02381100731ADDAA106000091AG10999GF105991031021008001001011MA1999999098791MD1999999+0051REMSYN011333   58005
0115825710999991987032800004-05500-045267FM-12+015399999V0209991C00001220001CN0100001N9+02541+02441101021ADDAA106000091AG10999GF105991031001017501051081KA1240M+03041MA1999999099051MD1999999+0001REMSYN017333   10304 58000
0102825710999991987032812004-05500-045267FM-12+015399999V0200501N00101004201CN0100001N9+02511+02341101291ADDAA106000091AG10999GF108991081051004501999999MA1999999099311MD1999999+0101REMSYN017333   20/// 58010
0108825710999991987032912004-05500-045267FM-12+015399999V0200501N00051004201CN0100001N9+02461+02341101271ADDAA124002091AG10999GF108991081051004501999999MA1999999099281MD1999999-0031REMSYN023333   20/// 59003 60024
0096825710999991987032918004-05500-045267FM-12+015399999V0203601N00101220001CN0100001N9+03011+02391100721ADDAA106000091AG10999GF106991041021008001001011MA1999999098761MD1999999-0141REMSYN011333   59014
0143825710999991987033000004-05500-045267FM-12+015399999V0200501N00311004201CN0100001N9+02341+02321101081ADDAA106010091AG10999AY191061AY261061GF108991081051004501999999KA1240M+03071MA1999999099091MD1999999-0061MW1951REMSYN023333   10307 59006 60101
0141825710999991987033012004-05500-045267FM-12+015399999V0200901N00101004201CN0100001N9+02421+02281101191ADDAA106000091AA224020091AG10999AY191061AY261061GF108991081051004501999999MA1999999099831MD1999999-0071MW1021REMSYN023333   20/// 59007 60204
0115825710999991987033018004-05500-045267FM-12+015399999V0200901N00211045001CN0100001N9+02921+02471100731ADDAA106000091AG10999GF106991031021008001031011MA1999999098782MD1999999+0021REMSYN011333   58002EQDQ01+098783APOSP 
0102825710999991987033112004-05500-045267FM-12+015399999V0200901N00261004201CN0100001N9+02641+02441101201ADDAA106000091AG10999GF108991081051004501999999MA1999999099231MD1999999+0021REMSYN017333   20/// 58002
0154825710999991987040100004-05500-045267FM-12+015399999V0209991C00001004201CN0100001N9+02451+02351101151ADDAA106000891AA299001091AG10999AY191061AY261061GF108991081051004501999999KA1240M+02851MA1999999099171MD1999999+0181MW1131REMSYN023333   10285 58018 69981
0116825710999991987040112004-05500-045267FM-12+015399999V0200501N00311007501CN0100001N9+02511+02311101371ADDAA124005091AG10999AY161061GF107991071051008001001001MA1999999099391MD1999999+0191MW1031REMSYN017333   58019 60054
0096825710999991987040118004-05500-045267FM-12+015399999V0200501N00311220001CN0100001N9+02971+02281101041ADDAA106000091AG10999GF103991021021008001031001MA1999999099081MD1999999+0121REMSYN011333   58012
0115825710999991987040200004-05500-045267FM-12+015399999V0200901N00101220001CN0100001N9+02521+02401101181ADDAA106000091AG10999GF100991001001999999001001KA1240M+03081MA1999999099201MD1999999+0031REMSYN017333   10308 58003
0102825710999991987040212004-05500-045267FM-12+015399999V0200901N00311220001CN0100001N9+02721+02411101281ADDAA106000091AG10999GF104991031011004501001011MA1999999099311MD1999999-0081REMSYN017333   20/// 59008
0096825710999991987040218004-05500-045267FM-12+015399999V0200501N00411220001CN0100001N9+03121+02221101101ADDAA106000091AG10999GF103991031021008001001001MA1999999099041MD1999999-0041REMSYN011333   59004
0115825710999991987040300004-05500-045267FM-12+015399999V0201401N00101220001CN0100001N9+02481+02321101171ADDAA106000091AG10999GF100991001001999999001001KA1240M+03171MA1999999099201MD1999999+0001REMSYN017333   10317 58000
0102825710999991987040312004-05500-045267FM-12+015399999V0200901N00151045001CN0100001N9+02601+02391101431ADDAA106000091AG10999GF105991041031004501041001MA1999999099451MD1999999+0101REMSYN017333   20/// 58010
0096825710999991987040318004-05500-045267FM-12+015399999V0201401N00211045001CN0100001N9+03181+02331101041ADDAA106000091AG10999GF106991031021008001041011MA1999999099081MD1999999+0041REMSYN011333   58004
0115825710999991987040400004-05500-045267FM-12+015399999V0200501N00051220001CN0100001N9+02621+02521101201ADDAA106000091AG10999GF103991021021008001071001KA1240M+03201MA1999999099231MD1999999+0031REMSYN017333   10320 58003
0102825710999991987040412004-05500-045267FM-12+015399999V0200901N00101220001CN0100001N9+02781+02401101331ADDAA106000091AG10999GF104991021021004501041011MA1999999099361MD1999999-0091REMSYN017333   20/// 59009
0096825710999991987040418004-05500-045267FM-12+015399999V0200901N00151045001CN0100001N9+02981+02421100951ADDAA106000091AG10999GF107991041051008001041001MA1999999099001MD1999999-0081REMSYN011333   59008
0146825710999991987040500004-05500-045267FM-12+015399999V0202301N00101015001CN0100001N9+02431+02391101171ADDAA106000291AA299000391AG10999AY161061GF105991051001017501031001KA1240M+03071MA1999999099201MD1999999-0071MW1131REMSYN023333   10307 59007 69921
0122825710999991987040512004-05500-045267FM-12+015399999V0203601N00311045001CN0040001N9+02261+02241101481ADDAA124022091AG10999AY161061GF108991041071004501021999MA1999999099481MD1999999+0121MW1911REMSYN023333   20/// 58012 60224
0124825710999991987040518004-05500-045267FM-12+015399999V0202301N00051045001CN0040001N9+02341+02291101081ADDAA106026091AG10999AY161061AY261061GF108991041071004501021999MA1999999099091MD1999999+0091MW1911REMSYN017333   58009 60261
0121825710999991987040600004-05500-045267FM-12+015399999V0200501N00051045001CN0100001N9+02291+02251101401ADDAA106000091AG10999GF107991031021008001041001KA1240M+02461MA1999999099401MD1999999+0201MW1131REMSYN017333   10246 58020
0108825710999991987040612004-05500-045267FM-12+015399999V0200901N00051012001CN0100001N9+02351+02241101621ADDAA124026091AG10999GF107991071081008001001001MA1999999099621MD1999999+0141REMSYN023333   20/// 58014 60264
0096825710999991987040618004-05500-045267FM-12+015399999V0203601N00311220001CN0100001N9+03101+02391101081ADDAA106000091AG10999GF104991031021008001011001MA1999999099121MD1999999+0031REMSYN011333   58003
0115825710999991987040700004-05500-045267FM-12+015399999V0202301N00101220001CN0100001N9+02491+02321101511ADDAA106000091AG10999GF104991031021008001031001KA1240M+03141MA1999999099521MD1999999+0011REMSYN017333   10314 58001
0133825710999991987040712004-05500-045267FM-12+015399999V0201401N00151045001CN0100001N9+02491+02341101601ADDAA106000291AA299000391AG10999AY161061GF105991031021004501031001MA1999999099611MD1999999-0011MW1021REMSYN023333   20/// 59001 69921
0096825710999991987040718004-05500-045267FM-12+015399999V0200501N00311220001CN0100001N9+03131+02411101211ADDAA106000091AG10999GF104991031021008001031001MA1999999099251MD1999999+0131REMSYN011333   58013
0115825710999991987040800004-05500-045267FM-12+015399999V0209991C00001220001CN0100001N9+02501+02361101331ADDAA106000091AG10999GF101991011001012501031001KA1240M+03161MA1999999099351MD1999999-0171REMSYN017333   10316 59017
0096825710999991987040818004-05500-045267FM-12+015399999V0200901N00311220001CN0100001N9+03151+99999100991ADDAA106000091AG10999GF104991021021008001041001MA1999999099031MD1999999-0221REMSYN011333   59022
0121825710999991987040900004-05500-045267FM-12+015399999V0200501N00151015001CN0100001N9+02341+02311101281ADDAA106000091AG10999GF108991081001017501021999KA1240M+03221MA1999999099301MD1999999-0051MW1131REMSYN017333   10322 59005
0102825710999991987040912004-05500-045267FM-12+015399999V0202701N00051220001CN0100001N9+02601+02441101261ADDAA106000091AG10999GF104991021021008001041011MA1999999099261MD1999999-0231REMSYN017333   20/// 59023
0121825710999991987041200004-05500-045267FM-12+015399999V0200901N00151220001CN0100001N9+02571+02521101041ADDAA106000091AG10999GF104991031001017501041011KA1240M+03031MA1999999099051MD1999999-0141MW1131REMSYN017333   10303 59014
0096825710999991987041212004-05500-045267FM-12+015399999V0200501N00211220001CN0100001N9+02661+02411101261ADDAA106000091AG10999GF102991021011008001001001MA1999999099291MD1999999-0021REMSYN011333   59002
0096825710999991987041218004-05500-045267FM-12+015399999V0201401N00311220001CN0100001N9+03141+02431100731ADDAA106000091AG10999GF104991041021008001001001MA1999999098781MD1999999-0121REMSYN011333   59012
0135825710999991987041300004-05500-045267FM-12+015399999V0200501N00261045001CN0040001N9+02431+02321101171ADDAA106006091AG10999AY161061GF108991041071008001021999KA1240M+03191MA1999999099191MD1999999+4121MW1911REMSYN023333   10319 58412 60061
0096825710999991987041318004-05500-045267FM-12+015399999V0200501N00261105001CN0100001N9+03111+02231100901ADDAA106000091AG10999GF105991021021008001041011MA1999999098941MD1999999+0161REMSYN011333   58016
0115825710999991987041400004-05500-045267FM-12+015399999V0200501N00051220001CN0100001N9+02601+02501101091ADDAA106000091AG10999GF104991041001017501041001KA1240M+03171MA1999999099131MD1999999-0061REMSYN017333   10317 59006
0102825710999991987041412004-05500-045267FM-12+015399999V0200901N00311220001CN0100001N9+02861+02521101091ADDAA106000091AG10999GF102991011001017501041011MA1999999099331MD1999999+0081REMSYN017333   20/// 58008
0115825710999991987041500004-05500-045267FM-12+015399999V0200901N00151220001CN0100001N9+02491+02251101201ADDAA106000091AG10999GF101991011001017501031001KA1240M+03271MA1999999099241MD1999999+0111REMSYN017333   10327 58011
0102825710999991987041512004-05500-045267FM-12+015399999V0203201N00151220001CN0100001N9+02531+02331101361ADDAA106000091AG10999GF101991011001012501041001MA1999999099381MD1999999+0051REMSYN017333   20/// 58005
0096825710999991987041518004-05500-045267FM-12+015399999V0200901N00261220001CN0100001N9+03161+02191100921ADDAA106000091AG10999GF103991031021008001001001MA1999999098951MD1999999-0051REMSYN011333   59005
0102825710999991987041612004-05500-045267FM-12+015399999V0200901N00261004201CN0100001N9+02771+02401101241ADDAA106000091AG10999GF106991061041004501001001MA1999999099271MD1999999-0111REMSYN017333   20/// 59011
0096825710999991987041618004-05500-045267FM-12+015399999V0200901N00311045001CN0100001N9+03181+02441100961ADDAA106000091AG10999GF105991041021008001041001MA1999999099001MD1999999+0051REMSYN011333   58005
0115825710999991987041700004-05500-045267FM-12+015399999V0200901N00101004201CN0100001N9+02571+02311101191ADDAA106000091AG10999GF107991051051004501041001KA1240M+03211MA1999999099221MD1999999+0121REMSYN017333   10321 58012
0102825710999991987041712004-05500-045267FM-12+015399999V0200501N00311045001CN0100001N9+02681+02351101401ADDAA106000091AG10999GF106991031031008001041001MA1999999099431MD1999999+0161REMSYN017333   20/// 58016
0096825710999991987041718004-05500-045267FM-12+015399999V0200901N00311045001CN0100001N9+02931+02291101071ADDAA106000091AG10999GF105991031021008001041011MA1999999099111MD1999999+0111REMSYN011333   58011
0096825710999991987041818004-05500-045267FM-12+015399999V0200901N00311045001CN0100001N9+03031+02291101211ADDAA106000091AG10999GF105991031021008001041011MA1999999099241MD1999999+0131REMSYN011333   58013
0121825710999991987041900004-05500-045267FM-12+015399999V0201401N00211220001CN0100001N9+02471+02031101381ADDAA106000091AG10999GF102991021001017501041001KA1240M+03071MA1999999099411MD1999999+0061MW1131REMSYN017333   10307 58006
0096825710999991987041918004-05500-045267FM-12+015399999V0200501N00151015001CN0100001N9+02911+02411101161ADDAA106000091AG10999GF106991061001017501021001MA1999999099181MD1999999-0061REMSYN011333   59006
0115825710999991987042000004-05500-045267FM-12+015399999V0200501N00101220001CN0100001N9+02461+02361101211ADDAA106000091AG10999GF100991001001999999001001KA1240M+03231MA1999999099241MD1999999-0171REMSYN017333   10323 59017
0096825710999991987042012004-05500-045267FM-12+015399999V0200501N00051220001CN0100001N9+99999+99999101391ADDAA106000091AG10999GF102991001001999999001011MA1999999099411MD1999999-0051REMSYN011333   59005
0096825710999991987042018004-05500-045267FM-12+015399999V0200901N00261220001CN0100001N9+03231+02171101061ADDAA106000091AG10999GF102991011011008001041001MA1999999099101MD1999999-0081REMSYN011333   59008
0102825710999991987042112004-05500-045267FM-12+015399999V0200501N00151004201CN0100001N9+02601+02451101291ADDAA106000091AG10999GF106991051051004501021021MA1999999099311MD1999999-0101REMSYN017333   20/// 59010
0096825710999991987042118004-05500-045267FM-12+015399999V0200901N00311220001CN0100001N9+03151+02351100991ADDAA106000091AG10999GF104991041021008001001001MA1999999099001MD1999999-0061REMSYN011333   59006
0115825710999991987042200004-05500-045267FM-12+015399999V0200901N00051220001CN0100001N9+02501+02341101091ADDAA106000091AG10999GF100991001001999999001001KA1240M+03201MA1999999099121MD1999999-0091REMSYN017333   10320 59009
0102825710999991987042212004-05500-045267FM-12+015399999V0200501N00261220001CN0100001N9+02761+02341101221ADDAA106000091AG10999GF103991021001017501031011MA1999999099251MD1999999-0061REMSYN017333   20/// 59006
0096825710999991987042218004-05500-045267FM-12+015399999V0200101N00311220001CN0100001N9+03201+02351100861ADDAA106000091AG10999GF103991031031008001001001MA1999999098911MD1999999-0131REMSYN011333   59013
0115825710999991987042300004-05500-045267FM-12+015399999V0200901N00151220001CN0100001N9+02581+02351101071ADDAA106000091AG10999GF100991001001999999001001KA1240M+03261MA1999999099111MD1999999-0011REMSYN017333   10326 59001
0121825710999991987042312004-05500-045267FM-12+015399999V0200501N002119999999N0100001N9+02631+02531101321ADDAA106000091AG10999GF105991001001999999001011MA1999999099351MD1999999+0101REMSYN017333   20/// 58010EQDQ01+000052SCOTLC
0115825710999991987042400004-05500-045267FM-12+015399999V0200901N00101220001CN0100001N9+02591+02401101021ADDAA106000091AG10999GF100991001001999999001001KA1240M+03211MA1999999099061MD1999999-0061REMSYN017333   10321 59006
0102825710999991987042412004-05500-045267FM-12+015399999V0200501N00101220001CN0100001N9+02681+02431101221ADDAA106000091AG10999GF101991001001999999001011MA1999999099251MD1999999-0101REMSYN017333   20/// 59010
0102825710999991987042512004-05500-045267FM-12+015399999V0200501N00211220001CN0100001N9+02691+02391101211ADDAA106000091AG10999GF105991041001017501031011MA1999999099241MD1999999-0011REMSYN017333   202// 59001
0096825710999991987042518004-05500-045267FM-12+015399999V0203201N00101045001CN0100001N9+03141+02601100771ADDAA106000091AG10999GF108991041021008001021011MA1999999098821MD1999999+0041REMSYN011333   58004
0115825710999991987042600004-05500-045267FM-12+015399999V0203601N001519999999N0100001N9+02641+02481101031ADDAA106000091AG10999GF105991031001999999041011KA1240M+03191MA1999999099071MD1999999+0061REMSYN017333   10319 58006
0122825710999991987042612004-05500-045267FM-12+015399999V0209991C00001004201CN0100001N9+02441+02321101241ADDAA124004091AG10999AY161061GF108991081051004501999999MA1999999099261MD1999999+0021MW1021REMSYN023333   20/// 58002 60044
0096825710999991987042618004-05500-045267FM-12+015399999V0200901N00211004201CN0100001N9+02871+02391101021ADDAA106000091AG10999GF108991081051004501999999MA1999999099041MD1999999+0141REMSYN011333   58014
0102825710999991987042712004-05500-045267FM-12+015399999V0202301N00101004201CN0100001N9+02521+02421101461ADDAA106000091AG10999GF108991081051004501999999MA1999999099471MD1999999+0211REMSYN017333   20/// 58021
0096825710999991987042718004-05500-045267FM-12+015399999V0203601N00361045001CN0100001N9+02941+02471101021ADDAA106000091AG10999GF108991041071004501021011MA1999999099061MD1999999+0001REMSYN011333   58000
0134825710999991987042800004-05500-045267FM-12+015399999V0209991C000019999999N0100001N9+02501+02471101211ADDAA106000091AG10999GF108991999051999999001001KA1240M+03091MA1999999099101MD1999999+0061REMSYN017333   10309 58006EQDQ01+000062SCOTLC
0102825710999991987042812004-05500-045267FM-12+015399999V0209991C00001004201CN0100001N9+02601+02421101511ADDAA106000091AG10999GF108991081051004501999999MA1999999099531MD1999999+0061REMSYN017333   20/// 58006
0096825710999991987042818004-05500-045267FM-12+015399999V0200501N00361220001CN0100001N9+03201+02481101121ADDAA106000091AG10999GF104991031021008001001011MA1999999099171MD1999999+0111REMSYN011333   58011
0115825710999991987042900004-05500-045267FM-12+015399999V0209991C00001220001CN0100001N9+02541+02421101301ADDAA106000091AG10999GF100991001001999999001001KA1240M+03201MA1999999099321MD1999999+0091REMSYN017333   10320 58009
0102825710999991987042912004-05500-045267FM-12+015399999V0200901N00151220001CN0100001N9+02681+02281101531ADDAA106000091AG10999GF104991021001017501021011MA1999999099551MD1999999+0021REMSYN017333   20/// 58002
0096825710999991987042918004-05500-045267FM-12+015399999V0200901N00151220001CN0100001N9+03221+02431101051ADDAA106000091AG10999GF104991041031008001001001MA1999999099101MD1999999-0071REMSYN011333   59007
0135825710999991987043000004-05500-045267FM-12+015399999V0200901N00051220001CN0100001N9+02491+02451101231ADDAA106002091AG10999AY161061GF100991001001999999001001KA1240M+03241MA1999999099861MD1999999-0061MW1001REMSYN023333   10324 59006 60021
0108825710999991987043012004-05500-045267FM-12+015399999V0201401N00051220001CN0100001N9+02641+02461101331ADDAA124002091AG10999GF107991041001008001021011MA1999999099351MD1999999-0201REMSYN023333   20/// 59020 60024
0096825710999991987043018004-05500-045267FM-12+015399999V0200901N00261220001CN0100001N9+03201+02411100971ADDAA106000091AG10999GF105991041021008001001011MA1999999099021MD1999999-0081REMSYN011333   59008
0108825710999991987050112004-05500-045267FM-12+015399999V0200901N000519999999N0040001N9+02551+02381101181ADDAA124001091AG10999GF106991999999017501999999MA1999999099201MD1999999-0151REMSYN023333   20/// 59015 60014
0096825710999991987050118004-05500-045267FM-12+015399999V0203601N00261220001CN0100001N9+03201+02331100771ADDAA106000091AG10999GF104991031021008001001011MA1999999098821MD1999999-0201REMSYN011333   59020
0121825710999991987050200004-05500-045267FM-12+015399999V0200301N00101220001CN0100001N9+02561+02401101051ADDAA106000091AG10999GF101991011001017501041001KA1240M+03271MA1999999099081MD1999999-0051MW1131REMSYN017333   10327 59005
0102825710999991987050212004-05500-045267FM-12+015399999V0203201N00051004201CN0100001N9+02521+02301101321ADDAA106000091AG10001GF108991081051004501999999MA1999999099341MD1999999+0141REMSYN017333   20/// 58014
0096825710999991987050218004-05500-045267FM-12+015399999V0200901N00151045001CN0100001N9+03111+02361100791ADDAA106000091AG10999GF106991031021008001011001MA1999999098871MD1999999+0021REMSYN011333   58002
0129825710999991987050300004-05500-045267FM-12+015399999V0201801N00051220001CN0100001N9+02531+02361101111ADDAA106000091AG10999AY191061GF103991031001017501041001KA1240M+03181MA1999999099131MD1999999+0011MW1131REMSYN017333   10318 58001
0102825710999991987050312004-05500-045267FM-12+015399999V0203601N00151045001CN0100001N9+02521+02291101371ADDAA106000091AG10999GF105991021021004501031001MA1999999099391MD1999999+0051REMSYN017333   20/// 58005
0096825710999991987050318004-05500-045267FM-12+015399999V0200501N00311220001CN0100001N9+02881+02301100841ADDAA106000091AG10999GF104991031021008001031001MA1999999098851MD1999999+0031REMSYN011333   58003
0121825710999991987050400004-05500-045267FM-12+015399999V0202301N00051045001CN0090001N9+02591+02441101221ADDAA106000091AG10999GF106991031051000751011001KA1240M+03141MA1999999099241MD1999999+0111MW1131REMSYN017333   10314 58011
0122825710999991987050412004-05500-045267FM-12+015399999V0200501N00151004201CN0100001N9+02451+02341101481ADDAA124003091AG10999AY161061GF107991051021004501031001MA1999999099491MD1999999+0101MW1021REMSYN023333   20/// 58010 60034
0121825710999991987050500004-05500-045267FM-12+015399999V0202301N00101220001CN0100001N9+02361+02331101341ADDAA106000091AG10999GF102991021001017501031001KA1240M+02731MA1999999099351MD1999999+0111MW1131REMSYN017333   10273 58011
0108825710999991987050512004-05500-045267FM-12+015399999V0200501N00151220001CN0100001N9+02661+02411101371ADDAA124037091AG10999GF102991021011008001001001MA1999999099391MD1999999-0101REMSYN023333   20/// 59010 60374
0096825710999991987050518004-05500-045267FM-12+015399999V0200501N00311220001CN0100001N9+03061+02381100941ADDAA106000091AG10999GF102991021021008001001001MA1999999098981MD1999999-0121REMSYN011333   59012
0121825710999991987050600004-05500-045267FM-12+015399999V0200501N00051220001CN0100001N9+02541+02441101141ADDAA106000091AG10999GF101991011011008001001001KA1240M+03151MA1999999099131MD1999999-0181MW1131REMSYN017333   10315 59018
0130825710999991987050612004-05500-045267FM-12+015399999V0200501N00151220001CN0100001N9+02721+02391101351ADDAA124017091AG10999AY191061AY261061GF104991041031008001001001MA1999999099381MD1999999-0011MW1011REMSYN023333   20/// 59001 60174
0096825710999991987050618004-05500-045267FM-12+015399999V0200501N00411220001CN0100001N9+03031+02391100941ADDAA106000091AG10999GF105991031021008001001011MA1999999098981MD1999999+0001REMSYN011333   58000
0129825710999991987050700004-05500-045267FM-12+015399999V0200901N00151220001CN0100001N9+02471+02431101121ADDAA106000091AG10999AY121061GF102991021001017501001021KA1240M+03071MA1999999099151MD1999999-0021MW1151REMSYN017333   10307 59002
0096825710999991987050718004-05500-045267FM-12+015399999V0200501N00311220001CN0100001N9+03471+02331101001ADDAA106000091AG10999GF104991031021008001031001MA1999999099041MD1999999+0061REMSYN011333   58006
0115825710999991987050800004-05500-045267FM-12+015399999V0203601N00211220001CN0100001N9+02521+02401101041ADDAA106000091AG10999GF100991001001999999001001KA1240M+03241MA1999999099071MD1999999-0081REMSYN017333   10324 59008
0115825710999991987050812004-05500-045267FM-12+015399999V0201401N00051220001CN0100001N9+02581+02401101351ADDAA106000091AG10999GF101991011001017501031001KA1240N+02201MA1999999099371MD1999999+0051REMSYN017333   20220 58005
0096825710999991987050818004-05500-045267FM-12+015399999V0200501N00151220001CN0100001N9+03101+02361100931ADDAA106000091AG10999GF103991031021008001001001MA1999999098981MD1999999-0061REMSYN011333   59006
0115825710999991987050912004-05500-045267FM-12+015399999V0203601N00151220001CN0100001N9+02521+02401101371ADDAA106000091AG10999GF102991021021008001001001KA1240N+02121MA1999999099391MD1999999+0021REMSYN017333   20212 58002
0096825710999991987050918004-05500-045267FM-12+015399999V0200901N00311220001CN0100001N9+03201+02351101031ADDAA106000091AG10999GF104991031021008001041001MA1999999099071MD1999999+0091REMSYN011333   58009
0115825710999991987051012004-05500-045267FM-12+015399999V0200501N00151220001CN0100001N9+02671+02431101451ADDAA106000091AG10999GF104991041021008001001001KA1240N+02121MA1999999099471MD1999999+0081REMSYN017333   20212 58008
0115825710999991987051100004-05500-045267FM-12+015399999V0200501N00151220001CN0100001N9+02511+02341101301ADDAA106000091AG10999GF100991001001999999001001KA1240M+03211MA1999999099321MD1999999+0051REMSYN017333   10321 58005
0115825710999991987051112004-05500-045267FM-12+015399999V0201401N00411220001CN0100001N9+02701+02171101511ADDAA106000091AG10999GF100991001001999999001001KA1240N+02041MA1999999099531MD1999999+0061REMSYN017333   20204 58006
0115825710999991987051212004-05500-045267FM-12+015399999V0200901N00411009001CN0200001N9+02541+02111101551ADDAA106000091AG10999GF106991061081004501001001KA1240N+02131MA1999999099561MD1999999+0031REMSYN017333   20213 58003
0096825710999991987051218004-05500-045267FM-12+015399999V0200901N00311220001CN0100001N9+03001+02241101201ADDAA106000091AG10999GF103991021021008001041001MA1999999099221MD1999999+0051REMSYN011333   58005
0115825710999991987051300004-05500-045267FM-12+015399999V0201401N00051220001CN0100001N9+02381+02261101341ADDAA106000091AG10999GF100991001001999999001001KA1240M+03031MA1999999099351MD1999999+0021REMSYN017333   10303 58002
0115825710999991987051312004-05500-045267FM-12+015399999V0200901N00311220001CN0100001N9+02701+02221101361ADDAA106000091AG10999GF100991001001999999001001KA1240N+02001MA1999999099381MD1999999-0081REMSYN017333   20200 59008
0096825710999991987051318004-05500-045267FM-12+015399999V0200901N00411220001CN0100001N9+03081+02241101001ADDAA106000091AG10999GF103991031021008001001001MA1999999099031MD1999999-0191REMSYN011333   59019
0115825710999991987051400004-05500-045267FM-12+015399999V0209991C00001220001CN0100001N9+02421+02261101151ADDAA106000091AG10999GF100991001001999999001001KA1240M+03171MA1999999099171MD1999999-0181REMSYN017333   10317 59018
0115825710999991987051412004-05500-045267FM-12+015399999V0200901N00311220001CN0100001N9+02701+02201101191ADDAA106000091AG10999GF100991001001999999001001KA1240N+01961MA1999999099211MD1999999+0171REMSYN017333   20196 58017
0096825710999991987051418004-05500-045267FM-12+015399999V0200501N00311220001CN0100001N9+03141+02211100821ADDAA106000091AG10999GF102991021011008001001001MA1999999098851MD1999999-0181REMSYN011333   59018
0115825710999991987051500004-05500-045267FM-12+015399999V0209991C00001220001CN0040001N9+02571+02311100931ADDAA106000091AG10999GF100991001001999999001001KA1240M+03021MA1999999098951MD1999999-0121REMSYN017333   10302 59012
0115825710999991987051512004-05500-045267FM-12+015399999V0200901N00151220001CN0100001N9+02681+02201101041ADDAA106000091AG10999GF100991001001999999001001KA1240N+02001MA1999999099071MD1999999-0141REMSYN017333   20200 59014
0096825710999991987051518004-05500-045267FM-12+015399999V0200901N00361220001CN0100001N9+03121+02021100701ADDAA106000091AG10999GF103991031021004501001001MA1999999098741MD1999999-0111REMSYN011333   59011
0115825710999991987051600004-05500-045267FM-12+015399999V0209991C00001220001CN0100001N9+02441+02341100911ADDAA106000091AG10999GF101991011011008001001001KA1240M+03151MA1999999098941MD1999999-0161REMSYN017333   10315 59016
0115825710999991987051612004-05500-045267FM-12+015399999V0200901N00461220001CN0100001N9+02801+02181101091ADDAA106000091AG10999GF102991021001017501031001KA1240N+02161MA1999999099121MD1999999-0051REMSYN017333   20216 59005
0096825710999991987051618004-05500-045267FM-12+015399999V0200901N00361220001CN0100001N9+03201+02241100751ADDAA106000091AG10999GF103991031021008001011001MA1999999098801MD1999999+0061REMSYN011333   58006
0115825710999991987051700004-05500-045267FM-12+015399999V0200901N00101220001CN0100001N9+02451+02231101011ADDAA106000091AG10999GF100991001001999999001001KA1240M+03231MA1999999099061MD1999999+0121REMSYN017333   10323 58012
0115825710999991987051712004-05500-045267FM-12+015399999V0200901N00311220001CN0100001N9+02721+02101101201ADDAA106000091AG10999GF101991011001017501011001KA1240N+01961MA1999999099231MD1999999+0111REMSYN017333   20196 58011
0115825710999991987051800004-05500-045267FM-12+015399999V0203601N00051220001CN0100001N9+02541+02311101181ADDAA106000091AG10999GF100991001001999999001001KA1240M+03201MA1999999099211MD1999999+0151REMSYN017333   10320 58015
0115825710999991987051812004-05500-045267FM-12+015399999V0203601N00151007501CN0100001N9+02521+02331101411ADDAA106000091AG10999GF108991081051008001999999KA1240N+02391MA1999999099431MD1999999+0011REMSYN017333   20239 58001
0096825710999991987051818004-05500-045267FM-12+015399999V0200501N00211045001CN0100001N9+03021+02411101051ADDAA106000091AG10999GF106991041031008001041001MA1999999099081MD1999999+0121REMSYN011333   58012
0115825710999991987051912004-05500-045267FM-12+015399999V0200501N00151220001CN0100001N9+02591+02371101321ADDAA106000091AG10999GF102991021011008001001001KA1240N+02061MA1999999099341MD1999999-0081REMSYN017333   20206 59008
0096825710999991987051918004-05500-045267FM-12+015399999V0200501N00311220001CN0100001N9+03181+02191100901ADDAA106000091AG10999GF102991021011008001001001MA1999999098951MD1999999-0141REMSYN011333   59014
0115825710999991987052012004-05500-045267FM-12+015399999V0200501N00311220001CN0100001N9+02651+02291101221ADDAA106000091AG10999GF102991021011004501001001KA1240N+02001MA1999999099241MD1999999-0101REMSYN017333   20200 59010
0115825710999991987052112004-05500-045267FM-12+015399999V0200501N00101220001CN0100001N9+02731+02391101221ADDAA106000091AG10999GF104991041021004501001001KA1240N+02101MA1999999099251MD1999999+0011REMSYN017333   20210 58001
0096825710999991987052118004-05500-045267FM-12+015399999V0200901N00211220001CN0100001N9+03201+02331100841ADDAA106000091AG10999GF103991031021008001001001MA1999999098891MD1999999+0051REMSYN011333   58005
0115825710999991987052200004-05500-045267FM-12+015399999V0200501N00151220001CN0100001N9+02571+02471101041ADDAA106000091AG10999GF100991001001999999001001KA1240M+03271MA1999999099081MD1999999+0071REMSYN017333   10327 58007
0115825710999991987052212004-05500-045267FM-12+015399999V0203201N00151220001CN0100001N9+02561+02351101331ADDAA106000091AG10999GF102991011011004501011001KA1240N+02151MA1999999099351MD1999999+0101REMSYN017333   20215 58010
0131825710999991987052218004-05500-045267FM-12+015399999V0200501N00151045001CN0100001N9+03161+02391100861ADDAA106000091AG10999GF107991031021008001041001MA1999999098921MD1999999+0011REMSYN011333   58001EQDQ01+098093APOSP Q02+999990APOSP 
0115825710999991987052300004-05500-045267FM-12+015399999V0200501N00101220001CN0100001N9+02491+02491101081ADDAA106000091AG10999GF100991001001999999001001KA1240M+03301MA1999999099111MD1999999+0031REMSYN017333   10330 58003
0115825710999991987052312004-05500-045267FM-12+015399999V0200501N00101004201CN0100001N9+02591+02421101261ADDAA106000091AG10001GF107991071021004501001001KA1240N+02251MA1999999099291MD1999999-0061REMSYN017333   20225 59006
0096825710999991987052318004-05500-045267FM-12+015399999V0200901N00211220001CN0100001N9+03241+02221100841ADDAA106000091AG10999GF102991021011008001001001MA1999999098881MD1999999-0021REMSYN011333   59002
0115825710999991987052400004-05500-045267FM-12+015399999V0200501N00151220001CN0100001N9+02551+02331101071ADDAA106000091AG10999GF100991001001999999001001KA1240M+03281MA1999999099101MD1999999-0011REMSYN017333   10328 59001
0115825710999991987052500004-05500-045267FM-12+015399999V0200501N00051220001CN0100001N9+02451+02281101211ADDAA106000091AG10999GF100991001001999999001001KA1240M+03221MA1999999099231MD1999999+0131REMSYN017333   10322 58013
0121825710999991987052512004-05500-045267FM-12+015399999V0200501N00051004201CN0100001N9+02471+02301101631ADDAA124001091AG10999GF108991081051004501999999KA1240N+02001MA1999999099641MD1999999+0201REMSYN023333   20200 58020 60014
0096825710999991987052518004-05500-045267FM-12+015399999V0200501N00261220001CN0100001N9+03171+02171101181ADDAA106000091AG10999GF102991011011008001001011MA1999999099211MD1999999+0201REMSYN011333   58020
0121825710999991987052610004-05500-045267FM-12+015399999V0200501N00101220001CN0100001N9+02491+02321101391ADDAA106000091AG10001GF101991011001017501041001KA1240M+03221MA1999999099411MD1999999+0191MW1131REMSYN017333   10322 58019
0115825710999991987052612004-05500-045267FM-12+015399999V0200501N00151004201CN0100001N9+02391+02351101681ADDAA106000091AG10001GF108991081051004501999999KA1240N+02051MA1999999099691MD1999999+0051REMSYN017333   20205 58005
0096825710999991987052618004-05500-045267FM-12+015399999V0200901N00311220001CN0100001N9+03101+02261101251ADDAA106000091AG10999GF103991031021008001001001MA1999999099281MD1999999+0071REMSYN011333   58007
0115825710999991987052700004-05500-045267FM-12+015399999V0209991C00001220001CN0100001N9+02461+02281101501ADDAA106000091AG10999GF100991001001999999001001KA1240M+03161MA1999999099511MD1999999+0091REMSYN017333   10316 58009
0115825710999991987052712004-05500-045267FM-12+015399999V0200901N00151004201CN0100001N9+02521+02381101781ADDAA106000091AG10999GF108991081051004501999999KA1240N+02071MA1999999099791MD1999999+0101REMSYN017333   20207 58010
0096825710999991987052718004-05500-045267FM-12+015399999V0200901N00411220001CN0100001N9+03111+02151101331ADDAA106000091AG10999GF102991021011008001001001MA1999999099341MD1999999+0061REMSYN011333   58006
0117825710999991987052800004-05500-045267FM-12+015399999V0200501N00151220001CN0100001N9+02421+02111101561ADDAA106000091AG10999AY161061AY221061GF102991021001017501001031KA1240M+03011MA1999999099571MW1131REMSYN011333   10301
0115825710999991987052812004-05500-045267FM-12+015399999V0200901N00311220001CN0100001N9+02541+02011101871ADDAA106000091AG10999GF101991011011012501001001KA1240N+01951MA1999999099881MD1999999+0091REMSYN017333   20195 58009
0096825710999991987052818004-05500-045267FM-12+015399999V0200901N00261220001CN0100001N9+03141+02181101451ADDAA106000091AG10999GF102991021011008001001001MA1999999099471MD1999999+0131REMSYN011333   58013
0115825710999991987052912004-05500-045267FM-12+015399999V0200901N00311220001CN0100001N9+02721+02081101851ADDAA106000091AG10999GF100991001001999999001001KA1240N+02031MA1999999099871MD1999999-0011REMSYN017333   20203 59001
0120825710999991987052918004-05500-045267FM-12+015399999V0202501N04992220001CN0005001N9+03111+02181101461ADDAG10999GF103991999021008001001001MA1999999099481MD1999999+0011REMSYN011333   58001EQDQ01+004993WOSPD Q02+000022SCOTLC
0115825710999991987053012004-05500-045267FM-12+015399999V0200901N00151220001CN0100001N9+02571+02171101681ADDAA106000091AG10999GF100991001001999999001001KA1240N+01941MA1999999099691MD1999999-0181REMSYN017333   20194 59018
0096825710999991987053018004-05500-045267FM-12+015399999V0200501N00211220001CN0100001N9+03201+02121101361ADDAA106000091AG10999GF100991001001999999001001MA1999999099391MD1999999-0091REMSYN011333   59009
0115825710999991987053112004-05500-045267FM-12+015399999V0201401N00051004201CN0100001N9+02341+02291101741ADDAA106000091AG10999GF108991081051004501999999KA1240N+01961MA1999999099741MD1999999+0051REMSYN017333   20196 58005
0096825710999991987053118004-05500-045267FM-12+015399999V0200901N00261220001CN0100001N9+03101+02181101311ADDAA106000091AG10999GF101991011011008001001041MA1999999099331MD1999999-0061REMSYN011333   59006
0115825710999991987060112004-05500-045267FM-12+015399999V0201401N00051004201CN0100001N9+02401+02261101711ADDAA106000091AG10999GF108991081051004501999999KA1240N+02061MA1999999099721MD1999999-0021REMSYN017333   20206 59002
0127825710999991987060118004-05500-045267FM-12+015399999V0200901N00311220001CN0100001N9+03151+02131101241ADDAA106000291AA299000391AG10999AY161061GF103991031021008001001001MA1999999099281MD1999999-0051MW1011REMSYN017333   59005 69921
0121825710999991987060212004-05500-045267FM-12+015399999V0200501N00051045001CN0100001N9+02321+02261101601ADDAA124000391AG10999GF108991041071004501021999KA1240N+02001MA1999999099601MD1999999+0121REMSYN023333   20200 58012 69934
0096825710999991987060218004-05500-045267FM-12+015399999V0200901N00151220001CN0100001N9+03211+02211101191ADDAA106000091AG10999GF103991031021008001001001MA1999999099221MD1999999-0061REMSYN011333   59006
0115825710999991987060300004-05500-045267FM-12+015399999V0200501N00101220001CN0100001N9+02411+02271101281ADDAA106000091AG10999GF100991001001999999001001KA1240M+03061MA1999999099361MD1999999-0031REMSYN017333   10306 59003
0134825710999991987060312004-05500-045267FM-12+015399999V0200501N003119999999N0100001N9+02571+02311101341ADDAA106000091AG10999GF105991999011008001001001KA1240N+02001MA1999999099461MD1999999-0041REMSYN017333   20200 59004EQDQ01+000022SCOTLC
0115825710999991987060318004-05500-045267FM-12+015399999V0200501N00151220001CN0100001N9+03141+02181101121ADDAA106000091AG10999GF103991031021008001001001MA1999999099181MD1999999-0081REMSYN011333   59008EQDQ01+999990APOSLP
0115825710999991987060412004-05500-045267FM-12+015399999V0200901N00211220001CN0100001N9+02711+02011101451ADDAA106000091AG10999GF103991011011012501011001KA1240N+01941MA1999999099471MD1999999+0011REMSYN017333   20194 58001
0115825710999991987060500004-05500-045267FM-12+015399999V0200501N00101220001CN0100001N9+02441+02071101161ADDAA106000091AG10999GF100991001001999999001001KA1240M+03171MA1999999099191MD1999999-0091REMSYN017333   10317 59009
0115825710999991987060512004-05500-045267FM-12+015399999V0201801N00101004201CN0100001N9+02351+02131101401ADDAA106000091AG10999GF108991081051004501999999KA1240N+01901MA1999999099411MD1999999-0061REMSYN017333   20190 59006
0115825710999991987060612004-05500-045267FM-12+015399999V0200501N00151220001CN0100001N9+02591+02311101391ADDAA106000091AG10999GF102991011021004501001011KA1240N+01921MA1999999099411MD1999999+0001REMSYN017333   20192 58000
0096825710999991987060618004-05500-045267FM-12+015399999V0200901N00261220001CN0100001N9+03031+02131101071ADDAA106000091AG10999GF103991021021008001011001MA1999999099371MD1999999+0071REMSYN011333   58007
0115825710999991987060712004-05500-045267FM-12+015399999V0201801N00051007501CN0100001N9+02271+02251101641ADDAA106000091AG10999GF107991071021008001001001KA1240N+02041MA1999999099651MD1999999+0241REMSYN017333   20204 58024
0115825710999991987060718004-05500-045267FM-12+015399999V0200901N00311045001CN0100001N9+03021+02181100222ADDAA106000091AG10999GF106991031021008001031001MA1999999099241MD1999999+0151REMSYN011333   58015EQDQ01+100223APOSLP
0115825710999991987060812004-05500-045267FM-12+015399999V0200501N00101045001CN0100001N9+02321+02201101571ADDAA106000091AG10999GF107991071001999999031001KA1240M+03141MA1999999099571MD1999999+0051REMSYN017333   10314 58005
0096825710999991987060818004-05500-045267FM-12+015399999V0200501N00311045001CN0100001N9+02961+02331101361ADDAA106000091AG10999GF105991031021008001031001MA1999999099391MD1999999+0151REMSYN011333   58015
0115825710999991987060912004-05500-045267FM-12+015399999V0201801N00311220001CN0100001N9+02721+02391101591ADDAA106000091AG10999GF104991041021004501001001KA1240N+02231MA1999999099611MD1999999-0171REMSYN017333   20223 59017
0096825710999991987060918004-05500-045267FM-12+015399999V0200501N00311220001CN0100001N9+03221+01161102081ADDAA106000091AG10999GF103991031021008001001001MA1999999099201MD1999999-0191REMSYN011333   59019
0115825710999991987061000004-05500-045267FM-12+015399999V0200501N00101220001CN0100001N9+02561+02231101321ADDAA106000091AG10999GF100991001001999999001001KA1240M+03251MA1999999099351MD1999999-0191REMSYN017333   10325 59019
0134825710999991987061012004-05500-045267FM-12+015399999V0203601N00151220001CN0100001N9+02741+02261101461ADDAA106000091AG10999GF102991021021004501001001KA1240N+02101MA1999999099481MD1999999-0131REMSYN017333   20210 59013EQDQ01+999990APOSLP
0096825710999991987061018004-05500-045267FM-12+015399999V0200901N00311220001CN0100001N9+03251+02181101021ADDAA106000091AG10999GF103991031021008001001001MA1999999099061MD1999999-0141REMSYN011333   59014
0115825710999991987061112004-05500-045267FM-12+015399999V0200501N00151045001CN0100001N9+02681+02321101481ADDAA106000091AG10999GF106991041031004501041001KA1240N+02121MA1999999099501MD1999999+0021REMSYN017333   20212 58002
0096825710999991987061118004-05500-045267FM-12+015399999V0200901N00151220001CN0100001N9+02961+02031101051ADDAA106000091AG10999GF102991999999008001999999MA1999999099091MD1999999+0031REMSYN011333   58003
0140825710999991987061200004-05500-045267FM-12+015399999V0200501N00151220001CN0100001N9+02441+02211101311ADDAA106000091AG10999GF102991001001999999001011KA1240M+03231MA1999999099932MD1999999+0051MW1131REMSYN017333   10323 58005EQDQ01+099933APOSP 
0115825710999991987061212004-05500-045267FM-12+015399999V0200901N00051007501CN0100001N9+02561+02331101511ADDAA106000091AG10999GF106991061031008001001001KA1240N+02041MA1999999099521MD1999999+0021REMSYN017333   20204 58002
0096825710999991987061218004-05500-045267FM-12+015399999V0200501N00461220001CN0100001N9+03101+02261101211ADDAA106000091AG10999GF103991021031008001041001MA1999999099231MD1999999+0141REMSYN011333   58014
0166825710999991987061300004-05500-045267FM-12+015399999V0200901N00151220001CN0100001N9+99999+99999102412ADDAA106000091AG10999GF100991001001999999001001KA1240M+03211MA1999999999999MD1999999+0001REMSYN017333   10321 59000EQDQ01+103353APOSP Q02+102413APOSLPQ03 103353APOSP 
0115825710999991987061312004-05500-045267FM-12+015399999V0200501N00151012001CN0100001N9+02641+02391101531ADDAA106000091AG10999GF107991071051012501001001KA1240N+02241MA1999999099551MD1999999+0031REMSYN017333   20224 58003
0096825710999991987061318004-05500-045267FM-12+015399999V0200901N00311220001CN0100001N9+03181+02251101161ADDAA106000091AG10999GF104991031031008001041001MA1999999099201MD1999999-0031REMSYN011333   59003
0121825710999991987061400004-05500-045267FM-12+015399999V0200501N00151220001CN0100001N9+02521+02341101331ADDAA106000091AG10999GF103991031001017501041001KA1240M+03241MA1999999099361MD1999999+0031MW1131REMSYN017333   10324 58003
0115825710999991987061412004-05500-045267FM-12+015399999V0200501N00261004201CN0100001N9+02631+02371101451ADDAA106000091AG10999GF108991081051004501999999KA1240N+02051MA1999999099471MD1999999-0081REMSYN017333   20205 59008
0096825710999991987061418004-05500-045267FM-12+015399999V0200901N00311220001CN0100001N9+03241+02131101001ADDAA106000091AG10999GF102991021021008001001001MA1999999099041MD1999999-0161REMSYN011333   59016
0115825710999991987061500004-05500-045267FM-12+015399999V0200501N00151220001CN0100001N9+02501+02211101181ADDAA106000091AG10999GF100991001001999999001001KA1240M+03291MA1999999099201MD1999999-0161REMSYN017333   10329 59016
0115825710999991987061512004-05500-045267FM-12+015399999V0200901N00151004201CN0100001N9+02551+02291101451ADDAA106000091AG10999GF108991081051004501999999KA1240N+01941MA1999999099471MD1999999+0001REMSYN017333   20194 58000
0096825710999991987061518004-05500-045267FM-12+015399999V0200901N00311220001CN0100001N9+03151+01841101041ADDAA106000091AG10999GF102991011001017501041011MA1999999099071MD1999999+0031REMSYN011333   58003
0115825710999991987061600004-05500-045267FM-12+015399999V0203601N00051007501CN0100001N9+02591+00211101241ADDAA106000091AG10999GF106991061051008001001001KA1240M+03241MA1999999099661MD1999999+0061REMSYN017333   10324 58006
0115825710999991987061612004-05500-045267FM-12+015399999V0203601N00151007501CN0100001N9+02541+02351101561ADDAA106000091AG10999GF108991081051008001999999KA1240N+02241MA1999999099581MD1999999+0111REMSYN017333   20224 58011
0096825710999991987061618004-05500-045267FM-12+015399999V0200501N00151220001CN0100001N9+03251+02101101191ADDAA106000091AG10001GF102991021011008001001001MA1999999099231MD1999999+0161REMSYN011333   58016
0115825710999991987061700004-05500-045267FM-12+015399999V0200501N00151220001CN0100001N9+02551+02211101341ADDAA106000091AG10999GF100991001001999999001001KA1240M+03311MA1999999099361MD1999999+0101REMSYN017333   10331 58010
0115825710999991987061712004-05500-045267FM-12+015399999V0200501N00361004201CN0100001N9+02541+02251101671ADDAA106000091AG10999GF108991081051004501999999KA1240N+02001MA1999999099681MD1999999+0101REMSYN017333   20200 58010
0096825710999991987061718004-05500-045267FM-12+015399999V0200901N00151220001CN0100001N9+03201+02241101321ADDAA106000091AG10999GF103991031021008001001001MA1999999099351MD1999999+0121REMSYN011333   58012
0121825710999991987061800004-05500-045267FM-12+015399999V0203601N00151220001CN0100001N9+02561+02331101541ADDAA106000091AG10999GF102991021001017501041001KA1240M+03241MA1999999099561MD1999999+0201MW1131REMSYN017333   10324 58020
0115825710999991987061812004-05500-045267FM-12+015399999V0202701N00101004201CN0100001N9+02361+02261101831ADDAA106000091AG10999GF108991081051004501999999KA1240N+02101MA1999999099831MD1999999+0181REMSYN017333   20210 58018
0096825710999991987061818004-05500-045267FM-12+015399999V0200501N00101220001CN0100001N9+03201+02211101341ADDAA106000091AG10999GF103991031021008001001001MA1999999099371MD1999999+0021REMSYN011333   58002
0115825710999991987061900004-05500-045267FM-12+015399999V0203601N00211220001CN0100001N9+02511+02341101581ADDAA106000091AG10999GF100991001001999999001001KA1240M+03251MA1999999099591MD1999999+0031REMSYN017333   10325 58003
0134825710999991987061912004-05500-045267FM-12+015399999V0200501N002119999999N0100001N9+02461+02301101721ADDAA106000091AG10999GF107991071051999999001001KA1240N+02181MA1999999099731MD1999999-0101REMSYN017333   20218 59010EQDQ01+000992SCOLCB
0096825710999991987061918004-05500-045267FM-12+015399999V0200901N00311220001CN0100001N9+03121+02251101301ADDAA106000091AG10999GF103991031021008001001001MA1999999099331MD1999999-0041REMSYN011333   59004
0115825710999991987062000004-05500-045267FM-12+015399999V0203601N00261220001CN0100001N9+02521+02291101471ADDAA106000091AG10999GF100991001001999999001001KA1240M+03211MA1999999099481MD1999999-0111REMSYN017333   10321 59011
0115825710999991987062012004-05500-045267FM-12+015399999V0200501N00311220001CN0100001N9+02671+02241101671ADDAA106000091AG10999GF104991031021004501041001KA1240N+02231MA1999999099691MD1999999-0041REMSYN017333   20223 59004
0115825710999991987062112004-05500-045267FM-12+015399999V0203601N00311220001CN0100001N9+02631+02161101651ADDAA106000091AG10999GF100991001001999999001001KA1240N+02311MA1999999099661MD1999999-0031REMSYN017333   20231 59003
0096825710999991987062118004-05500-045267FM-12+015399999V0200901N00411220001CN0100001N9+99999+99999101621ADDAA106000091AG10999GF102991021021008001001001MA1999999099201MD1999999-0041REMSYN011333   59004
0115825710999991987062212004-05500-045267FM-12+015399999V0200901N00151220001CN0100001N9+02621+02211101651ADDAA106000091AG10999GF100991001001999999001001KA1240N+02241MA1999999099661MD1999999+0001REMSYN017333   20224 58000
0115825710999991987062312004-05500-045267FM-12+015399999V0200901N00151220001CN0100001N9+02601+02191101751ADDAA106000091AG10999GF100991001001999999001001KA1240N+02011MA1999999099761MD1999999+0101REMSYN017333   20201 58010
0096825710999991987062318004-05500-045267FM-12+015399999V0200901N00151220001CN0100001N9+03231+02111101321ADDAA106000091AG10999GF102991021021008001001001MA1999999099391MD1999999+0061REMSYN011333   58006
0115825710999991987062400004-05500-045267FM-12+015399999V0203601N00151220001CN0100001N9+02511+02191101471ADDAA106000091AG10999GF100991001001999999001001KA1240M+03291MA1999999099491MD1999999+0031REMSYN017333   10329 58003
0115825710999991987062412004-05500-045267FM-12+015399999V0200501N00211220001CN0100001N9+02581+02291101711ADDAA106000091AG10999GF103991031001017501041001KA1240N+02191MA1999999099721MD1999999-0041REMSYN017333   20219 59004
0096825710999991987062418004-05500-045267FM-12+015399999V0200501N00311220001CN0100001N9+03281+02291101301ADDAA106000091AG10999GF103991031021008001001001MA1999999099341MD1999999-0021REMSYN011333   59002
0115825710999991987062500004-05500-045267FM-12+015399999V0203601N00101220001CN0100001N9+02441+02171101471ADDAA106000091AG10999GF100991001001999999001001KA1240M+03291MA1999999099441MD1999999-0011REMSYN017333   10329 59001
0115825710999991987062512004-05500-045267FM-12+015399999V0203601N00151004201CN0100001N9+02501+02321101821ADDAA106000091AG10999GF108991081051004501999999KA1240N+02031MA1999999099831MD1999999+0111REMSYN017333   20203 58011
0096825710999991987062518004-05500-045267FM-12+015399999V0200501N00361220001CN0100001N9+03221+02111101421ADDAA106000091AG10999GF102991021021008001001001MA1999999099461MD1999999+0121REMSYN011333   58012
0115825710999991987062600004-05500-045267FM-12+015399999V0200501N00261220001CN0100001N9+02461+02191101571ADDAA106000091AG10999GF100991001001999999001001KA1240M+03271MA1999999099581MD1999999+0101REMSYN017333   10327 58010
0115825710999991987062612004-05500-045267FM-12+015399999V0200901N00211220001CN0100001N9+02681+02431101891ADDAA106000091AG10001GF100991001001999999001001KA1240N+02301MA1999999099901MD1999999+0071REMSYN017333   20230 58007
0096825710999991987062618004-05500-045267FM-12+015399999V0200501N00151220001CN0100001N9+03161+02171101421ADDAA106000091AG10999GF103991031021008001001001MA1999999099461MD1999999+0001REMSYN011333   58000
0115825710999991987062700004-05500-045267FM-12+015399999V0203601N00101220001CN0100001N9+02451+02131101581ADDAA106000091AG10999GF100991001001999999001001KA1240M+03211MA1999999099621MD1999999+0041REMSYN017333   10321 58004
0115825710999991987062712004-05500-045267FM-12+015399999V0202301N00051220001CN0100001N9+02501+02001101891ADDAA106000091AG10999GF100991001001999999001001KA1240N+02201MA1999999099901MD1999999+0001REMSYN017333   20220 58000
0096825710999991987062718004-05500-045267FM-12+015399999V0200501N00151220001CN0100001N9+03131+01951101531ADDAA106000091AG10999GF103991031021008001001001MA1999999099571MD1999999+0111REMSYN011333   58011
0115825710999991987062812004-05500-045267FM-12+015399999V0200401N00311220001CN0100001N9+02601+02121101761ADDAA106000091AG10999GF101991999999999999999999KA1240N+01931MA1999999099771MD1999999+0201REMSYN017333   20193 58020
0096825710999991987062818004-05500-045267FM-12+015399999V0200901N00361220001CN0100001N9+03161+02121101361ADDAA106000091AG10999GF102991021021008001001001MA1999999099411MD1999999-0161REMSYN011333   59016
0115825710999991987062912004-05500-045267FM-12+015399999V0200901N00261004201CN0100001N9+02581+01991101751ADDAA106000091AG10999GF108991071051004501999999KA1240N+02321MA1999999099761MD1999999-0011REMSYN017333   20232 59001
0096825710999991987062918004-05500-045267FM-12+015399999V0200901N00361220001CN0100001N9+03121+02531101371ADDAA106000091AG10999GF102991021021008001001001MA1999999099411MD1999999+0001REMSYN011333   58000
0115825710999991987063012004-05500-045267FM-12+015399999V0200901N00311220001CN0100001N9+02611+01821101701ADDAA106000091AG10001GF100991001001999999001001KA1240N+02231MA1999999099711MD1999999-0051REMSYN017333   20223 59005
0085825710999991987063018004-05500-045267FM-12+015399999V0200901N00461007501CN0100001N9+02961+02211101351ADDAG10999GF108991081051008001999999MA1999999099391MD1999999-0031REMSYN011333   59003
0115825710999991987070112004-05500-045267FM-12+015399999V0200901N00461220001CN0100001N9+02831+02021101501ADDAA106000091AG10999GF100991001001999999001001KA1240N+02141MA1999999099531MD1999999-0181REMSYN017333   20214 59018
0096825710999991987070118004-05500-045267FM-12+015399999V0201401N00411220001CN0100001N9+03231+01881101161ADDAA106000091AG10999GF102991021011008001001001MA1999999099201MD1999999-0011REMSYN011333   59001
0115825710999991987070200004-05500-045267FM-12+015399999V0200901N00151220001CN0100001N9+02461+01941101331ADDAA106000091AG10999GF100991001001999999001001KA1240M+03321MA1999999099361MD1999999-0041REMSYN017333   10332 59004
0115825710999991987070212004-05500-045267FM-12+015399999V0200901N00311220001CN0100001N9+02571+01901101501ADDAA106000091AG10999GF100991001001999999001001KA1240N+01801MA1999999099511MD1999999-0021REMSYN017333   20180 59002
0096825710999991987070218004-05500-045267FM-12+015399999V0200901N00311220001CN0100001N9+03351+01831101071ADDAA106000091AG10999GF101991011011008001001001MA1999999099111MD1999999-0091REMSYN011333   59009
0115825710999991987070300004-05500-045267FM-12+015399999V0200501N00151220001CN0100001N9+02471+02011101321ADDAA106000091AG10999GF100991001001999999001001KA1240M+03361MA1999999099341MD1999999-0021REMSYN017333   10336 59002
0096825710999991987070318004-05500-045267FM-12+015399999V0200901N00461220001CN0100001N9+03221+02111101171ADDAA106000091AG10999GF102991021011008001001001MA1999999099201MD1999999+0091REMSYN011333   58009
0115825710999991987070412004-05500-045267FM-12+015399999V0201401N00511220001CN0100001N9+02691+01921101471ADDAA106000091AG10999GF100991001001999999001001KA1240N+02001MA1999999099491MD1999999-0111REMSYN017333   20200 59011
0096825710999991987070418004-05500-045267FM-12+015399999V0200501N00411220001CN0100001N9+03171+02051101131ADDAA106000091AG10999GF103991031021008001001001MA1999999099161MD1999999-0041REMSYN011333   59004
0115825710999991987070500004-05500-045267FM-12+015399999V0200501N00151220001CN0100001N9+02591+02101101331ADDAA106000091AG10999GF102991011011008001041001KA1240M+03311MA1999999099261MD1999999+0001REMSYN017333   10331 58000
0115825710999991987070512004-05500-045267FM-12+015399999V0200901N00511220001CN0100001N9+02721+01981101541ADDAA106000091AG10999GF100991001001999999001001KA1240N+02131MA1999999099571MD1999999+0081REMSYN017333   20213 58008
0096825710999991987070518004-05500-045267FM-12+015399999V0200901N00311220001CN0100001N9+03271+01981101131ADDAA106000091AG10999GF103991031021008001001001MA1999999099171MD1999999+0011REMSYN011333   58001
0115825710999991987070600004-05500-045267FM-12+015399999V0200901N00151220001CN0100001N9+02521+02071101351ADDAA106000091AG10999GF100991001001999999001001KA1240M+03311MA1999999099381MD1999999+0021REMSYN017333   10331 58002
0115825710999991987070612004-05500-045267FM-12+015399999V0200901N00261220001CN0100001N9+02641+01951101551ADDAA106000091AG10999GF100991001001999999001001KA1240N+01961MA1999999099571MD1999999+0001REMSYN017333   20196 58000
0096825710999991987070618004-05500-045267FM-12+015399999V0200901N00261220001CN0100001N9+03331+01801101051ADDAA106000091AG10999GF100991001001999999001001MA1999999099091MD1999999-0081REMSYN011333   59008
0115825710999991987070700004-05500-045267FM-12+015399999V0200501N00101220001CN0100001N9+02491+01921101321ADDAA106000091AG10999GF100991001001999999001001KA1240M+03381MA1999999099341MD1999999-0041REMSYN017333   10338 59004
0115825710999991987070712004-05500-045267FM-12+015399999V0200501N00151220001CN0100001N9+02701+02081101571ADDAA106000091AG10999GF106991001001999999001011KA1240N+02001MA1999999099591MD1999999+0021REMSYN017333   20200 58002
