0115827650999991987010100004-07333-047467FM-12+019299999V0209991C00001007501CN0200001N9+02401+02171101521ADDAA106000091AG10999GF108991081051008001999999KA1240M+02941MA1999999099091MD1999999+0091REMSYN017333   10294 58009
0115827650999991987010112004-07333-047467FM-12+019299999V0200901N00211045001CN0200001N9+02541+02231101741ADDAA106000091AG10999GF106991031021008001041081KA1240N+02191MA1999999099321MD1999999+0051REMSYN017333   20219 58005
0096827650999991987010118004-07333-047467FM-12+019299999V0202301N00151045001CN0200001N9+02861+02311101371ADDAA106000091AG10999GF108991021021008001021999MA1999999098981MD1999999+0161REMSYN011333   58016
0115827650999991987010200004-07333-047467FM-12+019299999V0200501N00101220001CN0200001N9+02451+02301101491ADDAA106000091AG10999GF103991031051008001001001KA1240M+03001MA1999999099081MD1999999-0011REMSYN017333   10300 59001
0115827650999991987010212004-07333-047467FM-12+019299999V0203601N00151045001CN0200001N9+02601+02331101751ADDAA106000091AG10999GF107991031021008001041001KA1240N+02221MA1999999099331MD1999999+0011REMSYN017333   20222 58001
0124827650999991987010218004-07333-047467FM-12+019299999V0201401N00151045001CN0200001N9+02461+02211101431ADDAA106008091AG10999AY161061AY261061GF108991021051008001021999MA1999999099021MD1999999+0031MW1511REMSYN017333   58003 60081
0132827650999991987010312004-07333-047467FM-12+019299999V0202301N00151012001CN0200001N9+02411+02261101671ADDAA106000091AA224008091AG10999GF107991061081008001041001KA1240N+02201MA1999999099251MD1999999-0081REMSYN023333   20220 59008 60084
0096827650999991987010318004-07333-047467FM-12+019299999V0202701N00151007501CN0200001N9+03031+02161101311ADDAA106000091AG10999GF106991051021008001001031MA1999999098921MD1999999-0091REMSYN011333   59009
0115827650999991987010400004-07333-047467FM-12+019299999V0209991C00001220001CN0200001N9+02601+02401101361ADDAA106000091AG10999GF100991001001999999001001KA1240M+03061MA1999999098951MD1999999-0041REMSYN017333   10306 59004
0135827650999991987010412004-07333-047467FM-12+019299999V0200501N00051012001CN0200001N9+02501+02361101551ADDAA124004091AG10999AY161061GF107991071081008001001001KA1240N+02221MA1999999099141MD1999999-0111MW1211REMSYN023333   20222 59011 60044
0132827650999991987010512004-07333-047467FM-12+019299999V0200501N00101220001CN0200001N9+02601+02101101501ADDAA106000091AA224000291AG10001GF102991011011008001041001KA1240N+02131MA1999999099091MD1999999-0051REMSYN023333   20213 59005 69924
0124827650999991987010518004-07333-047467FM-12+019299999V0200501N00051045001CN0200001N9+02451+02341101191ADDAA124004091AG10999AY191061AY261061GF106991021091008001021001MA1999999098771MD1999999+0051MW1021REMSYN017333   58005 60044
0121827650999991987010612004-07333-047467FM-12+019299999V0200501N00101220001CN0200001N9+02621+02311101401ADDAA124004091AG10999GF103991011021008001031001KA1240N+02111MA1999999099091MD1999999+0001REMSYN023333   20211 58000 60044
0115827650999991987010618004-07333-047467FM-12+019299999V0209991C00001220001CN0100001N9+03071+02361100981ADDAA106000091AG10999GF104991999021012501001001MA1999999099301MD1999999+0021REMSYN011333   58002EQDQ01+000032SCOTLC
0143827650999991987010700004-07333-047467FM-12+019299999V0202301N00151007501CN0200001N9+02251+02191101351ADDAA106006091AG10999AY191061AY261061GF108991081051008001999999KA1240M+03161MA1999999098941MD1999999+0101MW1511REMSYN023333   10316 58010 60061
0121827650999991987010712004-07333-047467FM-12+019299999V0202301N00051012001CN0200001N9+02401+02301101621ADDAA124006091AG10999GF107991061081008001041001KA1240N+02181MA1999999099191MD1999999+0101REMSYN023333   20218 58010 60064
0116827650999991987010718004-07333-047467FM-12+019299999V0201401N00311045001CN0040001N9+02341+02161101381ADDAA106013091AG10999AY151061GF108991041051008001061999MA1999999098981MD1999999+0301MW1951REMSYN017333   58030 60131
0143827650999991987010800004-07333-047467FM-12+019299999V0202601N00051007501CN0200001N9+02361+02231101561ADDAA106010091AG10999AY161061AY261061GF107991071051008001001001KA1240M+02651MA1999999099131MD1999999+0171MW1511REMSYN023333   10265 58017 60101
0121827650999991987010812004-07333-047467FM-12+019299999V0201401N00151007501CN0200001N9+02391+02231101601ADDAA124028091AG10999GF108991071051008001041999KA1240N+02211MA1999999099171MD1999999-0021REMSYN023333   20221 59002 60284
0107827650999991987010818004-07333-047467FM-12+019299999V0202301N00151045001CN0200001N9+02601+02441101211ADDAG10999AY161061AY261061GF107991031081008001021999MA1999999098801MD1999999-0141MW1021REMSYN011333   59014
0115827650999991987010900004-07333-047467FM-12+019299999V0201401N00051045001CN0200001N9+02331+01701101301ADDAA106000091AG10999GF106991061001999999031001KA1240M+02981MA1999999098881MD1999999-0251REMSYN017333   10298 59025
0121827650999991987010912004-07333-047467FM-12+019299999V0200501N00051045001CN0200001N9+02591+02311101471ADDAA124006091AG10999GF106991061001999999031001KA1240N+02241MA1999999099071MD1999999-0101REMSYN023333   20224 59010 60064
0102827650999991987010918004-07333-047467FM-12+019299999V0203201N00151045001CN0200001N9+03151+02371101071ADDAA106000091AG10999GF106991031031008001041011MA1999999098691MD1999999-0181MW1171REMSYN011333   59018
0134827650999991987011112004-07333-047467FM-12+019299999V0200501N00101045001CN0200001N9+02521+02321101581ADDAA106000091AG10999GF107991041021008001041001KA1240N+99999MA1999999099481MD1999999+0031REMSYN017333   20258 58003EQDQ01 +02582ATMN  
0096827650999991987011212004-07333-047467FM-12+019299999V0209991C00001105001CN0100001N9+02481+02431101301ADDAA106000091AG10999GF105991031021008001001021MA1999999099431MD1999999+0101REMSYN011333   58010
0096827650999991987011218004-07333-047467FM-12+019299999V0203601N00151045001CN0100001N9+02901+02321101091ADDAA106000091AG10999GF106991041031008001031001MA1999999099411MD1999999+0101REMSYN011333   58010
0132827650999991987011312004-07333-047467FM-12+019299999V0200501N00311045001CN0100001N9+02981+02401101211ADDAA124000791AA299001091AG10999GF105991041031008001021001KA1240N+02391MA1999999099561MD1999999+0061REMSYN023333   20239 58006 69974
0115827650999991987011318004-07333-047467FM-12+019299999V0209991C000019999999N0100001N9+03021+02361101261ADDAA106000091AG10999GF106991999031008001001001MA1999999099461MD1999999+0061REMSYN011333   58006EQDQ01+000042SCOTLC
0143827650999991987011400004-07333-047467FM-12+019299999V0201401N00101021001CN0100001N9+02241+02211101431ADDAA106011091AG10999AY161061AY261061GF108991081001022501021999KA1240M+03111MA1999999099011MD1999999+0001MW1031REMSYN023333   10311 58000 60111
0121827650999991987011412004-07333-047467FM-12+019299999V0202301N00101045001CN0200001N9+02501+02211101571ADDAA124011091AG10999GF105991031021008001041001KA1240N+02091MA1999999099141MD1999999-0091REMSYN023333   20209 59009 60114
0096827650999991987011418004-07333-047467FM-12+019299999V0203601N00101007501CN0100001N9+02981+02301101191ADDAA106000091AG10999GF106991051031008001031001MA1999999099411MD1999999+0101REMSYN011333   58010
0115827650999991987011612004-07333-047467FM-12+019299999V0203601N00151220001CN0200001N9+02711+02261101521ADDAA106000091AG10999GF101991011011008001001001KA1240N+02231MA1999999099731MD1999999-0031REMSYN017333   20223 59003
0115827650999991987011618004-07333-047467FM-12+019299999V0203601N00101220001CN0200001N9+03191+02251101161ADDAA106000091AG10999GF104991041021008001001001MA1999999098792MD1999999-0091REMSYN011333   59009EQDQ01+098793APOSP 
0132827650999991987011712004-07333-047467FM-12+019299999V0201401N00051220001CN0200001N9+02641+02271101451ADDAA124000291AA299000391AG10999GF101991011011008001001001KA1240N+02131MA1999999099041MD1999999-0091REMSYN023333   20213 59009 69924
0108827650999991987011718004-07333-047467FM-12+019299999V0201401N00511007501CN0200001N9+02431+02251101241ADDAA106002091AG10999GF108991081091008001999999MA1999999098831MD1999999+0041MW1951REMSYN017333   58004 60021
0121827650999991987011812004-07333-047467FM-12+019299999V0201401N00101012001CN0200001N9+02561+02401101401ADDAA124004091AG10999GF107991071081008001001001KA1240N+02191MA1999999098991MD1999999-0051REMSYN023333   20219 59005 60044
0124827650999991987011818004-07333-047467FM-12+019299999V0202301N00151012001CN0200001N9+02551+02331101131ADDAA106008091AG10999AY191061AY261061GF108991081081008001999999MA1999999098721MD1999999-0111MW1001REMSYN017333   59011 60081
0143827650999991987011912004-07333-047467FM-12+019299999V0200501N00051007501CN0200001N9+02511+02311101551ADDAA124010091AG10999AY161061AY261061GF107991071051008001999999KA1240N+02161MA1999999099141MD1999999+0151MW1031REMSYN023333   20216 58015 60104
0096827650999991987011918004-07333-047467FM-12+019299999V0201401N00311012001CN0200001N9+02881+02391101181ADDAA106000091AG10999GF106991061081008001001001MA1999999098781MD1999999+0061REMSYN011333   58006
0092827650999991987012018004-07333-047467FM-12+019299999V0200901N00211007501CN0200001N9+02401+02111101631ADDAG10999AY161061AY261061GF108991999051008001011041MA1999999099211MW1001EQDQ01+000082SCOTLC
0124827650999991987012023004-07333-047467FM-12+019299999V0201401N00311012001CN0200001N9+02551+02111101431ADDAA106002091AG10999AY161051AY261051GF108991081081008001999999MA1999999099021MD1999999+0241MW1021REMSYN017333   58024 60021
0124827650999991987012200004-07333-047467FM-12+019299999V0202301N00101007501CN0200001N9+02301+02231101171ADDAA106007091AG10999AY161061AY261061GF108991081051008001999999MA1999999098751MD1999999-0251MW1511REMSYN017333   59025 60071
0143827650999991987012212004-07333-047467FM-12+019299999V0202301N00101007501CN0200001N9+02301+02231101171ADDAA106007091AG10999AY161061AY261061GF108991081051008001999999KA1240M+02991MA1999999098751MD1999999-0251MW1511REMSYN023333   10299 59025 60071
0096827650999991987012218004-07333-047467FM-12+019299999V0200501N00101007501CN0200001N9+03151+02241100951ADDAA106000091AG10999GF105991051021008001001001MA1999999098571MD1999999-0041REMSYN011333   59004
0115827650999991987012312004-07333-047467FM-12+019299999V0203201N00101007501CN0200001N9+02701+02191101421ADDAA106000091AG10999GF105991051021008001001001KA1240N+02201MA1999999099021MD1999999+0021REMSYN017333   20220 58002
0096827650999991987012318004-07333-047467FM-12+019299999V0203201N00151007501CN0200001N9+03081+02071101031ADDAA106000091AG10999GF105991051021008001001001MA1999999098661MD1999999+0091REMSYN011333   58009
0134827650999991987012412004-07333-047467FM-12+019299999V0203201N001019999999N0100001N9+02751+02181101321ADDAA106000091AG10999GF106991999021008001001001KA1240N+02101MA1999999099041MD1999999+0091REMSYN017333   20210 58009EQDQ01+000042SCOTLC
0115827650999991987012512004-07333-047467FM-12+019299999V0203201N00101012001CN0200001N9+02601+02291101371ADDAA106000091AG10999GF106991061021012501001001KA1240N+02121MA1999999099031MD1999999+0041REMSYN017333   20212 58004
0140827650999991987012612004-07333-047467FM-12+019299999V0200501N00101012001CN0200001N9+02721+02391101451ADDAA124007091AG10999GF106991061081008001001001KA1240N+02291MA1999999099061MD1999999+0031REMSYN023333   20229 58003 60074EQDQ01+999990APOSLP
0096827650999991987012618004-07333-047467FM-12+019299999V0202301N00101220001CN0200001N9+03281+02161101021ADDAA106000091AG10999GF104991041021008001001001MA1999999098661MD1999999+0011REMSYN011333   58001
0121827650999991987012800004-07333-047467FM-12+019299999V0200501N00151220001CN0200001N9+02701+02411101251ADDAA106000091AG10999GF101991011031008001001001KA1240M+03341MA1999999098871MD1999999-0041MW1131REMSYN017333   10334 59004
0115827650999991987012812004-07333-047467FM-12+019299999V0203601N00101220001CN0200001N9+02751+02441101591ADDAA106000091AG10999GF104991041011008001001001KA1240N+02351MA1999999099201MD1999999+0021REMSYN017333   20235 58002
0096827650999991987012818004-07333-047467FM-12+019299999V0203201N00151220001CN0200001N9+03261+02411101171ADDAA106000091AG10999GF105991041011008001001011MA1999999098801MD1999999-0031REMSYN011333   59003
0143827650999991987012900004-07333-047467FM-12+019299999V0203601N00151007501CN0200001N9+02331+02201101421ADDAA106002091AG10999AY191061AY261061GF108991081051008001999999KA1240M+03291MA1999999099021MD1999999+0151MW1611REMSYN023333   10329 58015 60021
0121827650999991987012912004-07333-047467FM-12+019299999V0200901N00511007501CN0200001N9+02601+02211101551ADDAA124002091AG10999GF107991061051008001031001KA1240N+02201MA1999999099131MD1999999-0071REMSYN023333   20220 59007 60024
0096827650999991987012918004-07333-047467FM-12+019299999V0203601N00101045001CN0200001N9+03201+02271101181ADDAA106000091AG10999GF107991041021008001031011MA1999999098801MD1999999+0001REMSYN011333   58000
0121827650999991987013112004-07333-047467FM-12+019299999V0203601N00211012001CN0200001N9+02641+02291101481ADDAA124010091AG10001GF108991081081008001999999KA1240N+02131MA1999999099081MD1999999-0021REMSYN023333   20213 59002 60104
0115827650999991987020300004-07333-047467FM-12+019299999V0200501N00151220001CN0200001N9+02751+02401101201ADDAA106000091AG10999GF102991021051008001001001KA1240M+03361MA1999999098831MD1999999-0061REMSYN017333   10336 59006
0115827650999991987020312004-07333-047467FM-12+019299999V0202701N00101220001CN0200001N9+02801+02261101321ADDAA106000091AG10999GF102991021051008001001001KA1240N+02421MA1999999098941MD1999999-0081REMSYN017333   20242 59008
0115827650999991987020412004-07333-047467FM-12+019299999V0200501N00101220001CN0200001N9+02801+02381101411ADDAA106000091AG10999GF104991041021008001001001KA1240N+02311MA1999999099041MD1999999+0101REMSYN017333   20231 58010
0124827650999991987020418004-07333-047467FM-12+019299999V0202301N00051220001CN0200001N9+03001+02391101061ADDAA106001091AG10999AY121061AY221061GF104991041061008001001001MA1999999098661MD1999999+0061MW1011REMSYN017333   58006 60011
0115827650999991987020500004-07333-047467FM-12+019299999V0203201N00051220001CN0200001N9+02521+02341101161ADDAA106000091AG10999GF101991011011008001001001KA1240M+03341MA1999999098771MD1999999+0071REMSYN017333   10334 58007
0121827650999991987020512004-07333-047467FM-12+019299999V0200901N00101220001CN0200001N9+02621+02291101541ADDAA124001091AG10999GF101991011021008001001001KA1240N+02161MA1999999099131MD1999999+0091REMSYN023333   20216 58009 60014
0115827650999991987020612004-07333-047467FM-12+019299999V0200501N00261007501CN0200001N9+02781+02341101471ADDAA106000091AG10999GF107991051051008001031001KA1240N+02251MA1999999099081MD1999999-0051REMSYN017333   20225 59005
0115827650999991987020712004-07333-047467FM-12+019299999V0203601N00311045001CN0200001N9+02681+02181101521ADDAA106000091AG10999GF107991041021008001031001KA1240N+02301MA1999999099131MD1999999+0051REMSYN017333   20230 58005
0096827650999991987020718004-07333-047467FM-12+019299999V0200501N00211045001CN0200001N9+03341+02101101061ADDAA106000091AG10999GF106991041051008001031011MA1999999098701MD1999999+0051REMSYN011333   58005
0051827650999991987020912004-07333-047467FM-12+019299999V0202301N000519999999N0200001N9+02301+02161101401ADDAG10999GF106991999999999999999999MA1999999098991
0121827650999991987021012004-07333-047467FM-12+019299999V0200501N00151220001CN0200001N9+02531+02191101691ADDAA124006091AG10999GF104991021011008001041011KA1240N+02151MA1999999099271MD1999999-0041REMSYN023333   20215 59004 60064
0096827650999991987021018004-07333-047467FM-12+019299999V0203601N00411007501CN0200001N9+02831+02101101361ADDAA106000091AG10999GF105991051031008001001001MA1999999098951MD1999999+0001REMSYN011333   58000
0106827650999991987021115004-07333-047467FM-12+019299999V0209991C00001045001CN0100001N9+02441+02441104221ADDAG10999AY161031AY201031GF108991031051000751021999MA1999999101741MD1210141+9999MW1611EQDQ01+999990APOSLP
0159827650999991987021118004-07333-047467FM-12+019299999V0200501N00311004201CN0200001N9+02431+02351101432ADDAA106002091AG10999AY151061AY251061GF108991081051004501999999MA1999999099012MD1999999+0051MW1511REMSYN017333   58005 60021EQDQ01+099013APOSP Q02+101433APOSLP
0115827650999991987021200004-07333-047467FM-12+019299999V0201401N00101007501CN0200001N9+02371+02271101401ADDAA106000091AG10999GF107991051021008001031001KA1240M+02581MA1999999099051MD1999999-0121REMSYN017333   10258 59012
0121827650999991987021212004-07333-047467FM-12+019299999V0201401N00101045001CN0200001N9+02441+02251101571ADDAA124002091AG10999GF106991041021008001031011KA1240N+02171MA1999999099151MD1999999-0141REMSYN023333   20217 59014 60024
0091827650999991987021418004-07333-047467FM-12+019299999V0203601N00211012001CN0200001N9+02931+02381101091ADDAG10999GF106991051081008001041061MA1999999098761MD1999999-0191MW1151REMSYN011333   59019
0115827650999991987021612004-07333-047467FM-12+019299999V0202301N00101012001CN0200001N9+02501+02361101501ADDAA106000091AG10999GF107991071081008001001001KA1240N+02291MA1999999099091MD1999999+0001REMSYN017333   20229 58000
0096827650999991987021718004-07333-047467FM-12+019299999V0203201N00311012001CN0200001N9+02881+02301101861ADDAA106000091AG10999GF107991051081008001041021MA1999999098861MD1999999+0111REMSYN011333   58011
0115827650999991987021800004-07333-047467FM-12+019299999V0202701N00151007501CN0200001N9+02541+02381101511ADDAA106000091AG10999GF108991081051008001999999KA1240M+02891MA1999999099101MD1999999+0161REMSYN017333   10289 58016
0143827650999991987021812004-07333-047467FM-12+019299999V0200501N00311045001CN0200001N9+02621+02251101501ADDAA124000191AG10999AY151061AY221061GF106991041021008001031001KA1240N+02291MA1999999099101MD1999999-0031MW1021REMSYN023333   20229 59003 69914
0096827650999991987021818004-07333-047467FM-12+019299999V0200501N00211045001CN0200001N9+03281+02371101231ADDAA106000091AG10999GF107991031031008001041031MA1999999098841MD1999999-0021REMSYN011333   59002
0115827650999991987022012004-07333-047467FM-12+019299999V0201401N00101007501CN0200001N9+02561+02351101421ADDAA106000091AG10999GF106991051021008001041001KA1240N+02151MA1999999099021MD1999999-0071REMSYN017333   20215 59007
0102827650999991987022018004-07333-047467FM-12+019299999V0200501N00411220001CN0200001N9+03151+02321101041ADDAA106004091AG10999GF103991021021008001041001MA1999999098661MD1999999-0091REMSYN017333   59009 60041
0118827650999991987022318004-07333-047467FM-12+019299999V0200501N00311012001CN0200001N9+03231+02491101021ADDAA106000091AG10999AY191061AY291061GF106991061081008001001001MA1999999098731MD1999999-0021MW1021REMSYN011333   59002
0096827650999991987030118004-07333-047467FM-12+019299999V0202301N00151220001CN0200001N9+03141+02351101041ADDAA106000091AG10999GF104991031021008001041001MA1999999098671MD1999999-0031REMSYN011333   59003
0115827650999991987030312004-07333-047467FM-12+019299999V0202701N00101012001CN0200001N9+02581+02231101551ADDAA106000091AG10999GF107991071081008001001001KA1240N+02281MA1999999099151MD1999999+0101REMSYN017333   20228 58010
0124827650999991987030318004-07333-047467FM-12+019299999V0203601N00101004201CN0100001N9+02481+02231101191ADDAA106002091AG10999AY161061AY261061GF108991081051004501999999MA1999999098791MD1999999+0091MW1501REMSYN017333   58009 60021
0134827650999991987030412004-07333-047467FM-12+019299999V0200501N001019999999N0100001N9+02781+02341101041ADDAA106000091AG10999GF108991999031008001001001KA1240N+02391MA1999999099061MD1999999+0021REMSYN017333   20239 58002EQDQ01+000042SCOTLC
0147827650999991987030418004-07333-047467FM-12+019299999V0201801N003119999999N0100001N9+02501+02321101031ADDAA106000091AG10999GF108991999031008001001001MA1999999098621MD1999999+0101REMSYN011333   58010EQDQ01+000042SCOTLCQ02+100873APOSP Q03+999990APOSP 
0134827650999991987030500004-07333-047467FM-12+019299999V0203201N00211007501CN0200001N9+02601+02331101341ADDAA106000091AG10999GF108991081051008001999999KA1240M+03141MA1999999099932MD1999999-0081REMSYN017333   10314 59008EQDQ01+099933APOSP 
0143827650999991987030512004-07333-047467FM-12+019299999V0203201N00151007501CN0200001N9+02361+02261101601ADDAA124066091AG10999AY161061AY251061GF108991081051008001999999KA1240N+02171MA1999999099191MD1999999+0021MW1021REMSYN023333   20217 58002 60664
0115827650999991987030600004-07333-047467FM-12+019299999V0209991C00001220001CN0200001N9+02401+02311101331ADDAA106000091AG10999GF102991011011008001041001KA1240M+02681MA1999999098911MD1999999-0021REMSYN017333   10268 59002
0132827650999991987030612004-07333-047467FM-12+019299999V0200501N00151220001CN0750001N9+02641+02311101371ADDAA124000891AA299001091AG10999GF102991011011008001001041KA1240N+02201MA1999999098961MD1999999-0231REMSYN023333   20220 59023 69984
0143827650999991987030712004-07333-047467FM-12+019299999V0200501N00101004201CN0200001N9+02301+02251101531ADDAA124066091AG10999AY161061AY261061GF108991081051004501999999KA1240N+02211MA1999999099111MD1999999+0151MW1511REMSYN023333   20221 58015 60664
0124827650999991987030718004-07333-047467FM-12+019299999V0203601N00211007501CN0200001N9+02531+02231101211ADDAA106001091AG10999AY151061AY251061GF108991081051008001999999MA1999999098801MD1999999+0281MW1021REMSYN017333   58028 60011
0121827650999991987030812004-07333-047467FM-12+019299999V0203201N00151012001CN0200001N9+02581+02171101481ADDAA124001091AG10999GF108991081081008001999999KA1240N+02251MA1999999099071MD1999999-0041REMSYN023333   20225 59004 60014
0126827650999991987030912004-07333-047467FM-12+019299999V0200501N00051012001CN0200001N9+02421+02191101511ADDAG10999AY161061AY251061GF107991071081008001001001KA1240N+02111MA1999999099081MD1999999+0011MW1031REMSYN017333   20211 58001
0116827650999991987030918004-07333-047467FM-12+019299999V0200501N00261045001CN0200001N9+02771+02421101071ADDAA106000191AG10999AY151061GF105991041081008001041001MA1999999098661MD1999999-0151MW1161REMSYN017333   59015 69911
0121827650999991987031012004-07333-047467FM-12+019299999V0203201N00151045001CN0200001N9+02521+02271101591ADDAA124000191AG10999GF107991041081008001031001KA1240N+02291MA1999999099171MD1999999+0091REMSYN023333   20229 58009 69914
0096827650999991987031018004-07333-047467FM-12+019299999V0202301N00211045001CN0200001N9+03041+02281101081ADDAA106000091AG10999GF105991021021008001041001MA1999999098701MD1999999+0041REMSYN011333   58004
0115827650999991987031112004-07333-047467FM-12+019299999V0209991C00001007501CN0100001N9+02501+02361101431ADDAA106000091AG10999GF108991081051008001999999KA1240N+01991MA1999999099761MD1999999-0101REMSYN017333   20199 59010
0115827650999991987031118004-07333-047467FM-12+019299999V0209991C000019999999N0200001N9+02891+02361101041ADDAA106000091AG10999GF107991999071012501999999MA1999999099101MD1999999-0101REMSYN011333   59010EQDQ01+000082SCOTLC
0143827650999991987031200004-07333-047467FM-12+019299999V0202201N00101007501CN0200001N9+02441+02301101331ADDAA106030091AG10999AY161061AY261061GF108991071051008001999999KA1240M+03141MA1999999098981MD1999999+0101MW1021REMSYN023333   10314 58010 60301
0143827650999991987031212004-07333-047467FM-12+019299999V0200501N00261004201CN0040001N9+02171+02141101441ADDAA124063091AG10999AY161061AY261061GF108991081051004501999999KA1240N+02151MA1999999099301MD1999999+0201MW1011REMSYN023333   20215 58020 60634
0124827650999991987031218004-07333-047467FM-12+019299999V0200901N00211007501CN0200001N9+02651+02201101311ADDAA106009091AG10001AY161061AY261061GF107991071011008001001001MA1999999098901MD1999999+0271MW1021REMSYN017333   58027 60091
0143827650999991987031312004-07333-047467FM-12+019299999V0200501N00101007501CN0200001N9+02381+02151101661ADDAA124009091AG10999AY151061AY251061GF108991081051008001999999KA1240N+02101MA1999999099241MD1999999-0061MW1021REMSYN023333   20210 59006 60094
0096827650999991987031318004-07333-047467FM-12+019299999V0202301N00101045001CN0200001N9+02871+02161101501ADDAA106000091AG10999GF106991041021008001041001MA1999999098711MD1999999-0191REMSYN011333   59019
0124827650999991987031418004-07333-047467FM-12+019299999V0202701N00211045001CN0200001N9+02701+02221101121ADDAA106009091AG10999AY161061AY251061GF106991041051008001031001MA1999999098721MD1999999+0011MW1021REMSYN017333   58001 60091
0124827650999991987031518004-07333-047467FM-12+019299999V0200901N00311220001CN0200001N9+03091+02091101091ADDAA106001091AG10999AY161061AY261061GF105991041021008001001041MA1999999098711MD1999999-0011MW1031REMSYN017333   59001 60011
0124827650999991987031618004-07333-047467FM-12+019299999V0200501N00151012001CN0200001N9+02401+02311101331ADDAA106006091AG10999AY191061AY251061GF108991081081008001999999MA1999999098911MD1999999-0201MW1531REMSYN017333   59020 60061
0154827650999991987031700004-07333-047467FM-12+019299999V0202301N00051007501CN0200001N9+02381+02331101421ADDAA106000491AA299000591AG10999AY151061AY251061GF108991081051008001999999KA1240M+02801MA1999999099021MD1999999+0011MW1021REMSYN023333   10280 58001 69941
0121827650999991987031712004-07333-047467FM-12+019299999V0200901N00101045001CN0200001N9+02661+02271101491ADDAA124006091AG10999GF106991021021008001031011KA1240N+02261MA1999999099081MD1999999-0111REMSYN023333   20226 59011 60064
0124827650999991987031718004-07333-047467FM-12+019299999V0203201N00151045001CN0700001N9+02831+02381101621ADDAA106003091AG10999AY121061AY221061GF107991031041008001031001MA1999999098841MD1999999-0071MW1161REMSYN017333   59007 60031
0143827650999991987031812004-07333-047467FM-12+019299999V0202301N00101045001CN0200001N9+02511+02361101431ADDAA124014091AG10999AY151061AY251061GF105991011081008001031001KA1240N+02291MA1999999099021MD1999999-0061MW1031REMSYN023333   20229 59006 60144
0096827650999991987031818004-07333-047467FM-12+019299999V0201401N00361012001CN0200001N9+03111+02391100941ADDAA106000091AG10999GF106991061081008001001001MA1999999098561MD1999999-0081REMSYN011333   59008
0096827650999991987031918004-07333-047467FM-12+019299999V0201801N00051045001CN0200001N9+02801+02421101321ADDAA106000091AG10999GF108991041081008001061001MA1999999098911MD1999999+0321REMSYN011333   58032
0115827650999991987032012004-07333-047467FM-12+019299999V0200501N00051012001CN0200001N9+02481+02421101611ADDAA106000091AG10999GF108991081081008001999999KA1240N+02371MA1999999099201MD1999999+0011REMSYN017333   20237 58001
0124827650999991987032018004-07333-047467FM-12+019299999V0201401N00311045001CN0200001N9+02821+02381101151ADDAA106000191AG10999AY151061AY221061GF106991031021008001031011MA1999999098761MD1999999-0151MW1021REMSYN017333   59015 69911
0121827650999991987032112004-07333-047467FM-12+019299999V0200501N00151220001CN0200001N9+02751+02341101361ADDAA124000191AG10999GF102991021001017501031001KA1240N+02251MA1999999098971MD1999999-0231REMSYN023333   20225 59023 69914
0082827650999991987032118004-07333-047467FM-12+019299999V0200501N00151220001CN0200001N9+03261+02211100861ADDAA106000091AG10001GF104991041011008001001001MA1999999098491REMSYN011333   29027
0115827650999991987032200004-07333-047467FM-12+019299999V0200501N00101012001CN0200001N9+02631+02251101071ADDAA106000091AG10999GF108991081081008001999999KA1240M+03341MA1999999098691MD1999999-0171REMSYN017333   10334 59017
0096827650999991987032218004-07333-047467FM-12+019299999V0203201N00211045001CN0200001N9+03001+02421100871ADDAA106000091AG10999GF107991031021008001041071MA1999999098491MD1999999+0001REMSYN011333   58000
0154827650999991987032412004-07333-047467FM-12+019299999V0201401N00311045001CN0100001N9+02481+02361101181ADDAA124000991AA299001091AG10999AY161061AY221061GF105991041031004501021001KA1240N+02101MA1999999099661MD1999999+0061MW1031REMSYN023333   20210 58006 69994
0143827650999991987032500004-07333-047467FM-12+019299999V0203601N00101012001CN0200001N9+02701+02531101091ADDAA106000591AG10999AY161061AY261061GF105991051081008001001999KA1240M+03201MA1999999098701MD1999999-0181MW1131REMSYN023333   10320 59018 69951
0154827650999991987032512004-07333-047467FM-12+019299999V0202301N00051105001CN0200001N9+02741+02451101291ADDAA124000691AA299000591AG10999AY151061AY251061GF105991021021008001041081KA1240N+02371MA1999999098901MD1999999-0071MW1021REMSYN023333   20237 59007 69964
0124827650999991987032518004-07333-047467FM-12+019299999V0203201N00101045001CN0200001N9+02431+02371100881ADDAA118004091AG10999AY191061AY261061GF107991041051012501021999MA1999999098481MD1999999-0081MW1021REMSYN017333   59008 60043
0115827650999991987032600004-07333-047467FM-12+019299999V0201401N00051007501CN0200001N9+02501+02411101191ADDAA106000091AG10999GF108991081051008001999999KA1240M+03041MA1999999098801MD1999999+0101REMSYN017333   10304 58010
0115827650999991987032700004-07333-047467FM-12+019299999V0200501N00101220001CN0200001N9+02381+02351101221ADDAA106000091AG10999GF100991001001999999001001KA1240M+02581MA1999999098801MD1999999+0001REMSYN017333   10258 58000
0104827650999991987032712004-07333-047467FM-12+019299999V0200501N00101045001CN0200001N9+02561+02331101341ADDAG10999GF107991031021008001041001KA1240N+02161MA1999999098931MD1999999-0081REMSYN017333   20216 59008
0096827650999991987032718004-07333-047467FM-12+019299999V0201401N00261045001CN0200001N9+02821+02241100891ADDAA106000091AG10999GF106991031081008001021001MA1999999098501MD1999999-0181REMSYN011333   59018
0121827650999991987032800004-07333-047467FM-12+019299999V0203201N00051220001CN0200001N9+02501+02401101311ADDAA106000091AG10999GF101991011031008001001001KA1240M+03031MA1999999098721MD1999999-0081MW1131REMSYN017333   10303 59008
0143827650999991987032812004-07333-047467FM-12+019299999V0203201N00101012001CN0200001N9+02471+02341101411ADDAA124058091AG10999AY161061AY261061GF107991071081008001001001KA1240N+02261MA1999999099001MD1999999+0201MW1031REMSYN023333   20226 58020 60584
0121827650999991987032912004-07333-047467FM-12+019299999V0202301N00051012001CN0100001N9+02481+02381101361ADDAA124001091AG10999GF108991081081008001999999KA1240N+02271MA1999999098951MD1999999-0051REMSYN023333   20227 59005 60014
0124827650999991987032918004-07333-047467FM-12+019299999V0202301N00151045001CN0200001N9+02661+02411100921ADDAA106014091AG10999AY161061AY261061GF107991041021008001031021MA1999999098531MD1999999-0091MW1021REMSYN017333   59009 60141
0121827650999991987033000004-07333-047467FM-12+019299999V0200901N00151007501CN0200001N9+02551+02451101131ADDAA106000091AG10999GF108991081091008001999999KA1240M+02971MA1999999098731MD1999999-0151MW1131REMSYN017333   10297 59015
0143827650999991987033012004-07333-047467FM-12+019299999V0200901N00101012001CN0200001N9+02551+02331101311ADDAA124014091AG10999AY161061AY261061GF107991071081008001001001KA1240N+02271MA1999999098911MD1999999-0041MW1031REMSYN023333   20227 59004 60144
0115827650999991987033018004-07333-047467FM-12+019299999V0200501N00151007501CN0200001N9+03021+02321100821ADDAA106000091AG10999GF107991071021008001021001MA1999999088442MD1999999-0091REMSYN011333   59009EQDQ01+088443APOSP 
0115827650999991987033112004-07333-047467FM-12+019299999V0202301N00101007501CN0200001N9+02521+02331101341ADDAA106000091AG10999GF108991081051008001999999KA1240N+02311MA1999999098941MD1999999+0031REMSYN017333   20231 58003
0096827650999991987033118004-07333-047467FM-12+019299999V0209999999999012001CN0200001N9+02731+02431101071ADDAA106000091AG10999GF107991061051012501021999MA1999999098671MD1999999+0231REMSYN011333   58023
0127827650999991987040100004-07333-047467FM-12+019299999V0200901N00101007501CN0200001N9+02401+02301101241ADDAA106000191AG10999GF108991081051008001999999KA1240M+02761MA1999999098881MD1999999+0071MW1521REMSYN023333   10276 58007 69911
0121827650999991987040112004-07333-047467FM-12+019299999V0201401N00051012001CN0200001N9+02541+02311101521ADDAA124000191AG10999GF108991081081008001999999KA1240N+02231MA1999999099101MD1999999+0131REMSYN023333   20223 58013 69914
0096827650999991987040118004-07333-047467FM-12+019299999V0202301N00211045001CN0200001N9+03001+02271101061ADDAA106000091AG10999GF106991041021008001031001MA1999999098671MD1999999+0001REMSYN011333   58000
0156827650999991987040200004-07333-047467FM-12+019299999V0200901N00051220001CN0200001N9+04241+02371101291ADDAA106002091AG10999AY161061AY261061GF102991021001017501021001KA1240M+99999MA1999999098891MD1999999+0011REMSYN023333   10298 58001 60021EQDQ01 +02982ATMX  
0121827650999991987040212004-07333-047467FM-12+019299999V0201401N00101220001CN0200001N9+02751+02431101341ADDAA124002091AG10999GF101991011011008001001001KA1240N+02231MA1999999098941MD1999999-0161REMSYN023333   20223 59016 60024
0107827650999991987040218004-07333-047467FM-12+019299999V0201401N00311012001CN0200001N9+02471+02301101101ADDAG10999AY161061AY261061GF107991071081008001001001MA1999999098691MD1999999+0021MW1151REMSYN011333   58002
0115827650999991987040300004-07333-047467FM-12+019299999V0209991C00001012001CN0200001N9+02501+02431101201ADDAA106000091AG10999GF107991071081008001999999KA1240M+03001MA1999999098871MD1999999-0061REMSYN017333   10300 59006
0121827650999991987040312004-07333-047467FM-12+019299999V0201801N00051012001CN0200001N9+02601+02361101581ADDAA124011091AG10999GF105991051081008001041001KA1240N+02341MA1999999099171MD1999999+0061REMSYN023333   20234 58006 60114
0124827650999991987040318004-07333-047467FM-12+019299999V0203201N00151012001CN0200001N9+02821+02501101191ADDAA106013091AG10999AY161061AY261061GF107991061081008001041001MA1999999098801MD1999999+0111MW1021REMSYN017333   58011 60131
0110827650999991987040400004-07333-047467FM-12+019299999V0201401N00101007501CN0200001N9+02621+02521101411ADDAG10999GF108991081031008001999999KA1240M+03141MA1999999099011MD1999999+0201MW1171REMSYN017333   10314 58020
0149827650999991987040412004-07333-047467FM-12+019299999V0202301N00151012001CN0200001N9+02401+02311101541ADDAA106023091AG10999AY161061AY261061GF108991081081008001999999KA1240N+02341MA1999999099131MD1999999-0041MW1021REMSYN029333   20234 59004 59004 60231
0096827650999991987040418004-07333-047467FM-12+019299999V0203201N00311045001CN0200001N9+02981+02251101031ADDAA106000091AG10999GF105991031021008001031001MA1999999098651MD1999999-0141REMSYN011333   59014
0137827650999991987040500004-07333-047467FM-12+019299999V0202301N00101045001CN0200001N9+02321+02161101401ADDAA106000191AG10999AY151061AY211061GF108991021071008001011999KA1240M+03051MA1999999098981MD1999999-0051REMSYN023333   10305 59005 69911
0121827650999991987040512004-07333-047467FM-12+019299999V0201401N00101012001CN0200001N9+02401+02301101471ADDAA124000191AG10999GF108991081081008001999999KA1240N+02221MA1999999099041MD1999999-0011REMSYN023333   20222 59001 69914
0096827650999991987040518004-07333-047467FM-12+019299999V0202301N00151045001CN0200001N9+03081+02131101031ADDAA106000091AG10999GF106991041021008001031001MA1999999098651MD1999999+0001REMSYN011333   58000
0143827650999991987040600004-07333-047467FM-12+019299999V0200901N00051007501CN0200001N9+02401+02371101481ADDAA106004091AG10999AY191061AY261061GF108991081051008001999999KA1240M+03181MA1999999099061MD1999999+0081MW1001REMSYN023333   10318 58008 60041
0143827650999991987040612004-07333-047467FM-12+019299999V0201401N00101007501CN0200001N9+02381+02351101751ADDAA124005091AG10999AY161061AY261061GF108991051051008001021999KA1240N+02271MA1999999099281MD1999999+0231MW1611REMSYN023333   20227 58023 60054
0124827650999991987040618004-07333-047467FM-12+019299999V0203201N00261045001CN0200001N9+02981+02421101271ADDAA106005091AG10999AY161061AY261061GF106991041081008001041001MA1999999098881MD1999999+0231MW1021REMSYN017333   58023 60051
0143827650999991987040712004-07333-047467FM-12+019299999V0200901N00151004201CN0200001N9+02451+02271101741ADDAA124014091AG10999AY161061AY261061GF108991081051004501999999KA1240N+02221MA1999999099311MD1999999+0031MW1031REMSYN023333   20222 58003 60144
0131827650999991987040718004-07333-047467FM-12+019299999V0200501N00151015001CN0040001N9+02561+02301101331ADDAA106000091AG10999GF106991061011017501001001MA1999999098931MD1999999+0061REMSYN011333   58006EQDQ01+096943APOSP Q02+999990APOSP 
0115827650999991987040800004-07333-047467FM-12+019299999V0209991C00001220001CN0200001N9+02531+02421101491ADDAA106000091AG10999GF102991021001022501061001KA1240M+03031MA1999999099081MD1999999-0211REMSYN017333   10303 59021
0096827650999991987040818004-07333-047467FM-12+019299999V0200901N00311220001CN0200001N9+03241+01961101151ADDAA106000091AG10999GF103991031021008001001001MA1999999098781MD1999999-0161REMSYN011333   59016
0134827650999991987040900004-07333-047467FM-12+019299999V0200501N00101220001CN0200001N9+02641+02331101341ADDAA106000091AG10999GF104991999001008001041001KA1240M+03261MA1999999098951MD1999999-0131REMSYN017333   10326 59013EQDQ01+000012SCOTLC
0115827650999991987040912004-07333-047467FM-12+019299999V0201401N00051220001CN0200001N9+02701+02231101301ADDAA106000091AG10999GF100991001001999999001001KA1240N+02211MA1999999098971MD1999999-0261REMSYN017333   20221 59026
0115827650999991987041000004-07333-047467FM-12+019299999V0200901N00151220001CN0200001N9+02701+02431101211ADDAA106000091AG10999GF101991011011008001001001KA1240M+03281MA1999999098821MD1999999-0061REMSYN017333   10328 59006
0115827650999991987041200004-07333-047467FM-12+019299999V0203601N00151220001CN0200001N9+02701+02371101101ADDAA106000091AG10999GF103991031001999999031001KA1240M+03321MA1999999098731MD1999999-0011REMSYN017333   10332 59001
0115827650999991987041212004-07333-047467FM-12+019299999V0200901N00101220001CN0200001N9+02841+02331101331ADDAA106000091AG10999GF102991021021008001001001KA1240N+02481MA1999999098951MD1999999-0011REMSYN017333   20248 59001
0124827650999991987041218004-07333-047467FM-12+019299999V0203201N00211045001CN0200001N9+03021+02441100831ADDAA106003091AG10999AY161061AY261061GF106991041051008001031001MA1999999098461MD1999999-0011MW1291REMSYN017333   59001 60031
0143827650999991987041300004-07333-047467FM-12+019299999V0203201N00101012001CN0200001N9+02501+02471101101ADDAA106004091AG10999AY161061AY261061GF106991061081008001001001KA1240M+03301MA1999999098711MD1999999-0021MW1001REMSYN023333   10330 59002 60041
0096827650999991987041318004-07333-047467FM-12+019299999V0200501N00261220001CN0200001N9+03251+01861100951ADDAA106000091AG10999GF103991021021008001001021MA1999999098601MD1999999+0141REMSYN011333   58014
0115827650999991987041400004-07333-047467FM-12+019299999V0200901N00051220001CN0200001N9+02661+02241101221ADDAA106000091AG10999GF102991011011008001051001KA1240M+03281MA1999999098841MD1999999+0131REMSYN017333   10328 58013
0115827650999991987041412004-07333-047467FM-12+019299999V0200501N00101220001CN0200001N9+02921+02331101391ADDAA106000091AG10999GF101991001001999999001011KA1240N+02271MA1999999099011MD1999999+0061REMSYN017333   20227 58006
0096827650999991987041418004-07333-047467FM-12+019299999V0201401N00151220001CN0200001N9+03341+02021101071ADDAA106000091AG10999GF101991011021008001001001MA1999999098701MD1999999+0101REMSYN011333   58010
0115827650999991987041500004-07333-047467FM-12+019299999V0200501N00151220001CN0200001N9+02581+02251101251ADDAA106000091AG10999GF100991001001999999001001KA1240M+03341MA1999999098861MD1999999+0021REMSYN017333   10334 58002
0115827650999991987041512004-07333-047467FM-12+019299999V0201401N00671220001CN0200001N9+02701+02151101461ADDAA106000091AG10999GF100991001001999999001001KA1240N+02361MA1999999099061MD1999999+0051REMSYN017333   20236 58005
0096827650999991987041518004-07333-047467FM-12+019299999V0201401N00311220001CN0200001N9+03261+02111101021ADDAA106000091AG10999GF100991001001999999001001MA1999999098651MD1999999-0051REMSYN011333   59005
0115827650999991987041612004-07333-047467FM-12+019299999V0201401N00461220001CN0200001N9+02801+02181101341ADDAA106000091AG10999GF100991001001999999001001KA1240N+02211MA1999999098951MD1999999-0111REMSYN017333   20221 59011
0096827650999991987041618004-07333-047467FM-12+019299999V0200901N00101220001CN0200001N9+03201+01781101071ADDAA106000091AG10999GF102991021021008001001001MA1999999098701MD1999999+0051REMSYN011333   58005
0104827650999991987041700004-07333-047467FM-12+019299999V0200901N00151220001CN0200001N9+02601+02291101271ADDAG10999GF100991001001999999001001KA1240M+03281MA1999999098881MD1999999+0161REMSYN017333   10328 58016
0115827650999991987041712004-07333-047467FM-12+019299999V0201401N00101220001CN0200001N9+02681+02041101431ADDAA106000091AG10999GF101991011011008001001001KA1240N+02211MA1999999099041MD1999999+0091REMSYN017333   20221 58009
0096827650999991987041718004-07333-047467FM-12+019299999V0200901N00211220001CN0200001N9+03251+02001101111ADDAA106000091AG10999GF103991031021008001001001MA1999999098741MD1999999+0041REMSYN011333   58004
0084827650999991987041721004-07333-047467FM-12+019299999V0209991C00001220001CN0150001N9+03241+02341999999ADDAG10999GF100991001001999999001001MA1999999101142MD1410001+9999EQDQ01+101143APOSP 
0096827650999991987041818004-07333-047467FM-12+019299999V0200901N00311220001CN0200001N9+03261+02051101191ADDAA106000091AG10999GF103991031011008001001001MA1999999098821MD1999999+0081REMSYN011333   58008
0115827650999991987041900004-07333-047467FM-12+019299999V0200901N00151220001CN0200001N9+02641+02271101401ADDAA106000091AG10999GF100991001001999999001001KA1240M+03291MA1999999099021MD1999999+0081REMSYN017333   10329 58008
0096827650999991987042018004-07333-047467FM-12+019299999V0200501N00101045001CN0200001N9+03061+01961101101ADDAA106000091AG10999GF106991031051008001031001MA1999999098831MD1999999+0091REMSYN011333   58009
0115827650999991987042100004-07333-047467FM-12+019299999V0200501N00051220001CN0200001N9+02641+02541101231ADDAA106000091AG10999GF102991021021008001001001KA1240M+03341MA1999999098851MD1999999-0081REMSYN017333   10334 59008
0115827650999991987042112004-07333-047467FM-12+019299999V0200901N00051220001CN0200001N9+02801+02181101351ADDAA106000091AG10999GF101991011011008001001001KA1240N+02251MA1999999098961MD1999999-0171REMSYN017333   20225 59017
0115827650999991987042200004-07333-047467FM-12+019299999V0200501N00151220001CN0200001N9+02521+02151101171ADDAA106000091AG10999GF100991001001999999001001KA1240M+03441MA1999999098781MD1999999-0071REMSYN017333   10344 59007
0115827650999991987042212004-07333-047467FM-12+019299999V0200901N00261220001CN0200001N9+02821+02171101321ADDAA106000091AG10999GF100991001001999999001001KA1240N+02151MA1999999098991MD1999999+0031REMSYN017333   20215 58003
0096827650999991987042218004-07333-047467FM-12+019299999V0200901N00211220001CN0200001N9+03421+02021100981ADDAA106000091AG10999GF102991021021008001001001MA1999999098621MD1999999-0011REMSYN011333   59001
0115827650999991987042300004-07333-047467FM-12+019299999V0200501N00101220001CN0200001N9+02631+02251101131ADDAA106000091AG10999GF100991001001999999001001KA1240M+03451MA1999999098751MD1999999-0031REMSYN017333   10345 59003
0115827650999991987042312004-07333-047467FM-12+019299999V0201401N00051220001CN0200001N9+02731+02211101411ADDAA106000091AG10999GF102991001001999999001011KA1240N+02281MA1999999099021MD1999999+0031REMSYN017333   20228 58003
0115827650999991987042400004-07333-047467FM-12+019299999V0200501N00051220001CN0200001N9+02681+02311101091ADDAA106000091AG10999GF100991001001999999001001KA1240M+03431MA1999999098711MD1999999-0041REMSYN017333   10343 59004
0115827650999991987042412004-07333-047467FM-12+019299999V0200901N00051220001CN0200001N9+02871+02211101321ADDAA106000091AG10999GF105991001001999999001011KA1240N+02251MA1999999098951MD1999999+0081REMSYN017333   20225 58008
0115827650999991987042512004-07333-047467FM-12+019299999V0203201N00101105001CN0200001N9+02881+02321101311ADDAA106000091AG10999GF105991011021008001031011KA1240N+02341MA1999999098941MD1999999+0001REMSYN017333   20234 58000
0096827650999991987042518004-07333-047467FM-12+019299999V0203201N00211105001CN0200001N9+03261+02181100861ADDAA106000091AG10999GF105991021021008001031041MA1999999098501MD1999999+0061REMSYN011333   58006
0121827650999991987042600004-07333-047467FM-12+019299999V0203201N00101220001CN0200001N9+02701+02461101061ADDAA106000091AG10999GF102991021021008001001001KA1240M+03461MA1999999098691MD1999999+0061MW1131REMSYN017333   10346 58006
0162827650999991987042612004-07333-047467FM-12+019299999V0200901N00151007501CN0040001N9+99999+99999101501ADDAA124035091AG10999AY191061AY261061GF108991999051008001021999KA1240N+02211MA1999999099091MD1999999+0151MW1611REMSYN023333   20221 58015 60354EQDQ01+000082SCOTLC
0124827650999991987042618004-07333-047467FM-12+019299999V0202701N00151007501CN0200001N9+02481+02271101181ADDAA106005091AG10999AY161061AY261061GF108991081051008001999999MA1999999098771MD1999999+0271MW1021REMSYN017333   58027 60051
0143827650999991987042712004-07333-047467FM-12+019299999V0203601N000519999999N0200001N9+02561+01931101481ADDAA124005091AG10999AY141061AY201061GF106991999999008001999999KA1240N+02191MA1999999099071MD1999999-0021MW1321REMSYN023333   20219 59002 60054
0124827650999991987042718004-07333-047467FM-12+019299999V0202701N00261045001CN0200001N9+03161+02341101071ADDAA106002091AG10999AY161061AY261061GF106991041081008001041011MA1999999098691MD1999999-0081MW1021REMSYN017333   59008 60021
0154827650999991987042800004-07333-047467FM-12+019299999V0200501N00151007501CN0200001N9+02481+02391101411ADDAA106000491AA299000591AG10999AY161061AY261061GF108991081051008001999999KA1240M+03101MA1999999099001MD1999999+0001MW1131REMSYN023333   10310 58000 69941
0121827650999991987042812004-07333-047467FM-12+019299999V0200901N00211220001CN0200001N9+02621+02351101671ADDAA124002091AG10999GF104991021021008001031001KA1240N+02321MA1999999099261MD1999999+0191REMSYN023333   20232 58019 60024
0124827650999991987042818004-07333-047467FM-12+019299999V0202301N00151220001CN0200001N9+02881+02371101261ADDAA106001091AG10999AY161061AY261061GF103991021021008001041001MA1999999098871MD1999999+0101MW1021REMSYN017333   58010 60011
0143827650999991987042900004-07333-047467FM-12+019299999V0202301N00051007501CN0020001N9+02341+02261101481ADDAA106004091AG10999AY161061AY261061GF108991081051008001999999KA1240M+03161MA1999999099071MD1999999+0071MW1021REMSYN023333   10316 58007 60041
0143827650999991987042912004-07333-047467FM-12+019299999V0202301N00151045001CN0200001N9+02541+02331101711ADDAA124008091AG10999AY161061AY261061GF107991041021008001041021KA1240N+02241MA1999999099291MD1999999+0031MW1021REMSYN023333   20224 58003 60084
0096827650999991987042918004-07333-047467FM-12+019299999V0201401N00211045001CN0200001N9+03021+02411101261ADDAA106000091AG10999GF105991031021008001041021MA1999999098901MD1999999+0031REMSYN011333   58003
0134827650999991987043000004-07333-047467FM-12+019299999V0201801N00051220001CN0200001N9+02651+02411101371ADDAA106000091AG10999GF100991001001999999001001KA1240M+03101MA1999999099972MD1999999-0101REMSYN017333   10310 59010EQDQ01+099973APOSP 
0115827650999991987043012004-07333-047467FM-12+019299999V0200501N00151045001CN0200001N9+02561+02381101501ADDAA106000091AG10999GF106991041021008001031001KA1240N+02331MA1999999099101MD1999999-0191REMSYN017333   20233 59019
0096827650999991987043018004-07333-047467FM-12+019299999V0200901N00151220001CN0200001N9+03201+01961101091ADDAA106000091AG10999GF103991031021008001001001MA1999999098701MD1999999-0181REMSYN011333   59018
0115827650999991987050100004-07333-047467FM-12+019299999V0200601N00051220001CN0200001N9+02681+02501101241ADDAA106000091AG10999GF100991001001999999001001KA1240M+03281MA1999999098851MD1999999-0121REMSYN017333   10328 59012
0115827650999991987050112004-07333-047467FM-12+019299999V0200501N00051220001CN0200001N9+02801+02201101351ADDAA106000091AG10999GF103991011021008001001011KA1240N+02371MA1999999098971MD1999999-0131REMSYN017333   20237 59013
0096827650999991987050118004-07333-047467FM-12+019299999V0202301N00151045001CN0200001N9+03301+02021100881ADDAA106000091AG10999GF106991031021008001031011MA1999999098571MD1999999-0771REMSYN011333   59077
0143827650999991987050212004-07333-047467FM-12+019299999V0203601N00051012001CN0200001N9+02581+02401101381ADDAA124011091AG10001AY191061AY261061GF108991081081008001999999KA1240N+02311MA1999999098991MD1999999+0021MW1001REMSYN023333   20231 58002 60114
0096827650999991987050218004-07333-047467FM-12+019299999V0202301N00101012001CN0200001N9+03081+02241100931ADDAA106000091AG10999GF108991061081008001031999MA1999999098501MD1999999+0001REMSYN011333   58000
0137827650999991987050300004-07333-047467FM-12+019299999V0201401N00151007501CN0200001N9+02481+02451101281ADDAA106000091AG10999AY191061AY291061GF108991081051008001999999KA1240M+03131MA1999999098881MD1999999+0231MW1131REMSYN017333   10313 58023
0143827650999991987050312004-07333-047467FM-12+019299999V0202701N00151012001CN0200001N9+02621+02371101471ADDAA124001091AG10999AY161061AY261061GF106991061081008001001001KA1240N+02311MA1999999099071MD1999999+0001MW1031REMSYN023333   20231 58000 60014
0102827650999991987050318004-07333-047467FM-12+019299999V0202301N00211007501CN0200001N9+03101+02151100931ADDAA106000091AG10999GF108991061051008001031999MA1999999098561MD1999999+0061MW1161REMSYN011333   58006
0137827650999991987050400004-07333-047467FM-12+019299999V0203201N00151007501CN0200001N9+02361+02331101391ADDAA106015091AG10999AY191061AY261061GF108991081051008001999999KA1240M+03121MA1999999098981MD1999999+0101REMSYN023333   10312 58010 60151
0143827650999991987050412004-07333-047467FM-12+019299999V0200501N00051012001CN0200001N9+02641+02271101571ADDAA124013091AG10999AY161061AY261061GF106991061081008001031999KA1240N+02311MA1999999099161MD1999999+0091MW1021REMSYN023333   20231 58009 60134
0115827650999991987050500004-07333-047467FM-12+019299999V0201801N00151012001CN0200001N9+02501+02341101421ADDAA106000091AG10999GF108991081081008001999999KA1240M+03051MA1999999099021MD1999999+0041REMSYN017333   10305 58004
0115827650999991987050512004-07333-047467FM-12+019299999V0200901N00151220001CN0200001N9+02601+02291101511ADDAA106000091AG10999GF102991021021008001001001KA1240N+02211MA1999999099101MD1999999-0061REMSYN017333   20221 59006
0096827650999991987050518004-07333-047467FM-12+019299999V0203601N00151012001CN0200001N9+02901+02411101081ADDAA106000091AG10999GF106991061081008001001001MA1999999098701MD1999999+0001REMSYN011333   58000
0115827650999991987050612004-07333-047467FM-12+019299999V0200901N00051007501CN0200001N9+02661+02371101491ADDAA106000091AG10999GF107991061021008001041001KA1240N+02291MA1999999099091MD1999999+0011REMSYN017333   20229 58001
0096827650999991987050618004-07333-047467FM-12+019299999V0200901N00311220001CN0200001N9+03221+02261100991ADDAA106000091AG10999GF104991031021008001041001MA1999999098631MD1999999-0071REMSYN011333   59007
0104827650999991987050700004-07333-047467FM-12+019299999V0200501N00051220001CN0200001N9+02581+02421101201ADDAG10999GF101991011051008001001001KA1240M+03241MA1999999098811MD1999999+0011REMSYN017333   10324 58001
0115827650999991987050800004-07333-047467FM-12+019299999V0200501N00101220001CN0200001N9+02561+02311101231ADDAA106000091AG10999GF100991001001999999001001KA1240M+03301MA1999999098841MD1999999+0031REMSYN017333   10330 58003
0115827650999991987050812004-07333-047467FM-12+019299999V0200901N00101220001CN0200001N9+02761+02381101501ADDAA106000091AG10999GF100991001001999999001001KA1240N+02211MA1999999099101MD1999999+0101REMSYN017333   20221 58010
0096827650999991987050818004-07333-047467FM-12+019299999V0201401N00151220001CN0200001N9+03321+02111101181ADDAA106000091AG10999GF101991011021008001001001MA1999999098711MD1999999+0061REMSYN011333   58006
0115827650999991987050912004-07333-047467FM-12+019299999V0201801N00051220001CN0200001N9+02701+02221101511ADDAA106000091AG10999GF100991001001999999001001KA1240N+02211MA1999999099121MD1999999+0021REMSYN017333   20221 58002
0096827650999991987050918004-07333-047467FM-12+019299999V0201401N00101220001CN0200001N9+03241+01951101131ADDAA106000091AG10999GF102991011021008001001011MA1999999098761MD1999999+0051REMSYN011333   58005
0115827650999991987051012004-07333-047467FM-12+019299999V0200901N00051220001CN0200001N9+02761+02041101601ADDAA106000091AG10999GF101991011011008001001001KA1240N+02171MA1999999099201MD1999999+0081REMSYN017333   20217 58008
0096827650999991987051018004-07333-047467FM-12+019299999V0200901N00211220001CN0200001N9+03341+01541101131ADDAA106000091AG10999GF102991021021008001001001MA1999999098761MD1999999+0001REMSYN011333   58000
0115827650999991987051112004-07333-047467FM-12+019299999V0200901N00311220001CN0200001N9+02751+02191101601ADDAA106000091AG10999GF102991001001999999001011KA1240N+02041MA1999999099211MD1999999+0011REMSYN017333   20204 58001
0115827650999991987051212004-07333-047467FM-12+019299999V0200901N00151220001CN0200001N9+02561+01901101691ADDAA106000091AG10999GF101991011001999999031001KA1240N+02021MA1999999099271MD1999999+0061REMSYN017333   20202 58006
0096827650999991987051218004-07333-047467FM-12+019299999V0200901N00151007501CN0200001N9+03131+02131101291ADDAA106000091AG10999GF106991061021008001001001MA1999999098901MD1999999+0091REMSYN011333   58009
0115827650999991987051300004-07333-047467FM-12+019299999V0200501N00101220001CN0200001N9+02481+02151101471ADDAA106000091AG10999GF101991011001999999041001KA1240M+03191MA1999999099061MD1999999+0061REMSYN017333   10319 58006
0115827650999991987051312004-07333-047467FM-12+019299999V0201401N00151220001CN0200001N9+02681+02041101541ADDAA106000091AG10999GF100991001001999999001001KA1240N+02011MA1999999099161MD1999999-0111REMSYN017333   20201 59011
0096827650999991987051318004-07333-047467FM-12+019299999V0200901N00211220001CN0200001N9+03251+02161101111ADDAA106000091AG10999GF101991011011008001001001MA1999999098731MD1999999-0171REMSYN011333   59017
0115827650999991987051400004-07333-047467FM-12+019299999V0200501N00101220001CN0200001N9+02501+02111101131ADDAA106000091AG10999GF100991001001999999001001KA1240M+03261MA1999999098861MD1999999-0101REMSYN017333   10326 59010
0062827650999991987051412004-07333-047467FM-12+019299999V0200901N00101220001CN0200001N9+02681+02181101331ADDAA106000091AG10001GF100991001001999999001001MA1999999098931
0096827650999991987051418004-07333-047467FM-12+019299999V0201401N00151220001CN0200001N9+03291+01861100901ADDAA106000091AG10999GF102991021021008001001001MA1999999098531MD1999999-0201REMSYN011333   59020
0115827650999991987051512004-07333-047467FM-12+019299999V0201401N00101220001CN0200001N9+02581+02081101191ADDAA106000091AG10999GF102991001001999999001011KA1240N+02061MA1999999098801MD1999999-0131REMSYN017333   20206 59013
0096827650999991987051518004-07333-047467FM-12+019299999V0200901N00311220001CN0200001N9+03331+02021100771ADDAA106000091AG10999GF102991021021008001001001MA1999999098401MD1999999-0131REMSYN011333   59013
0115827650999991987051600004-07333-047467FM-12+019299999V0200501N00151220001CN0200001N9+02561+02111101021ADDAA106000091AG10999GF100991001001999999001001KA1240M+03361MA1999999098631MD1999999-0121REMSYN017333   10336 59012
0115827650999991987051612004-07333-047467FM-12+019299999V0200901N00151220001CN0200001N9+02751+02161101241ADDAA106000091AG10999GF102991011001999999041011KA1240N+02061MA1999999098851MD1999999+0051REMSYN017333   20206 58005
0096827650999991987051618004-07333-047467FM-12+019299999V0200901N00311220001CN0200001N9+03291+02031100881ADDAA106000091AG10999GF103991021021012501001011MA1999999098511MD1999999+0111REMSYN011333   58011
0115827650999991987051712004-07333-047467FM-12+019299999V0201401N00151012001CN0200001N9+02701+02111101351ADDAA106000091AG10999GF107991071081008001001001KA1240N+02111MA1999999098961MD1999999+0111REMSYN017333   20211 58011
0096827650999991987051718004-07333-047467FM-12+019299999V0200901N00261220001CN0200001N9+03321+01801100961ADDAA106000091AG10999GF103991031021008001001001MA1999999098601MD1999999-0251REMSYN011333   59025
0115827650999991987051800004-07333-047467FM-12+019299999V0200501N00051220001CN0200001N9+02701+02281101221ADDAA106000091AG10999GF100991001001999999001001KA1240M+03361MA1999999098841MD1999999+0121REMSYN017333   10336 58012
0143827650999991987051812004-07333-047467FM-12+019299999V0200901N00101220001CN0200001N9+02761+02231101481ADDAA112000491AG10999AY151061AY251061GF102991021021008001001011KA1240N+02381MA1999999099091MD1999999+0131MW1021REMSYN023333   20238 58013 69942
0096827650999991987051818004-07333-047467FM-12+019299999V0200501N00361045001CN0200001N9+03121+02251101091ADDAA106000091AG10999GF105991031021008001031001MA1999999098721MD1999999+0121REMSYN011333   58012
0115827650999991987051900004-07333-047467FM-12+019299999V0200501N00051220001CN0200001N9+02681+02241101201ADDAA106000091AG10999GF100991001001999999001001KA1240M+03271MA1999999098821MD1999999-0051REMSYN017333   10327 59005
0115827650999991987051912004-07333-047467FM-12+019299999V0200501N00101220001CN0200001N9+02881+02301101381ADDAA106000091AG10999GF100991001001999999001001KA1240N+02241MA1999999099001MD1999999-0091REMSYN017333   20224 59009
0096827650999991987051918004-07333-047467FM-12+019299999V0200501N00211220001CN0100001N9+03281+02071100941ADDAA106000091AG10999GF102991021021008001001001MA1999999098571MD1999999-0151REMSYN011333   59015
0115827650999991987052012004-07333-047467FM-12+019299999V0200501N00261220001CN0200001N9+02791+02181101291ADDAA106000091AG10999GF103991001001999999001011KA1240N+02291MA1999999098901MD1999999-0101REMSYN017333   20229 59010
0096827650999991987052118004-07333-047467FM-12+019299999V0200501N00311105001CN0200001N9+03421+02061100931ADDAA106000091AG10999GF106991041081008001001071MA1999999098581MD1999999+0131REMSYN011333   58013
0115827650999991987052200004-07333-047467FM-12+019299999V0200501N00101220001CN0200001N9+02541+02151101091ADDAA106000091AG10999GF100991001001999999001001KA1240M+03461MA1999999098711MD1999999+0061REMSYN017333   10346 58006
0115827650999991987052212004-07333-047467FM-12+019299999V0203201N00151220001CN0200001N9+02801+02291101391ADDAA106000091AG10999GF101991001001999999041011KA1240N+02201MA1999999099001MD1999999+0121REMSYN017333   20220 58012
0096827650999991987052218004-07333-047467FM-12+019299999V0203601N00151220001CN0200001N9+03161+02291101021ADDAA106000091AG10999GF104991031031008001041001MA1999999098651MD1999999+0071REMSYN011333   58007
0121827650999991987052312004-07333-047467FM-12+019299999V0200901N00051220001CN0200001N9+02801+02361101351ADDAA106000191AG10001GF103991021021008001041011KA1240N+02271MA1999999098961MD1999999-0041REMSYN023333   20227 59004 69911
0096827650999991987052318004-07333-047467FM-12+019299999V0200901N00101220001CN0200001N9+03361+02301100911ADDAA106000091AG10999GF103991021021008001041001MA1999999098551MD1999999-0101REMSYN011333   59010
0115827650999991987052412004-07333-047467FM-12+019299999V0200901N00151220001CN0200001N9+02981+02281101481ADDAA106000091AG10999GF103991011011008001001041KA1240N+02291MA1999999099101MD1999999+0141REMSYN017333   20229 58014
0096827650999991987052418004-07333-047467FM-12+019299999V0200901N00151220001CN0200001N9+03351+01671100991ADDAA106000091AG10999GF103991011011008001001041MA1999999098601MD1999999+0051REMSYN011333   58005
0115827650999991987052500004-07333-047467FM-12+019299999V0203601N00051220001CN0200001N9+02691+02091101301ADDAA106000091AG10999GF100991001001999999001001KA1240M+03421MA1999999098931MD1999999+0101REMSYN017333   10342 58010
0115827650999991987052512004-07333-047467FM-12+019299999V0200901N00151220001CN0200001N9+02741+02171101721ADDAA106000091AG10999GF101991001001999999041011KA1240N+02111MA1999999099321MD1999999+0221REMSYN017333   20211 58022
0096827650999991987052518004-07333-047467FM-12+019299999V0201401N00261220001CN0200001N9+03441+01921101241ADDAA106000091AG10999GF102991021021008001001011MA1999999098871MD1999999+0271REMSYN011333   58027
0115827650999991987052610004-07333-047467FM-12+019299999V0209991C00001220001CN0200001N9+02671+02141101541ADDAA106000091AG10001GF100991001001999999001001KA1240M+03481MA1999999099121MD1999999+0191REMSYN017333   10348 58019
0115827650999991987052612004-07333-047467FM-12+019299999V0201401N00151220001CN0200001N9+02741+02241101821ADDAA106000091AG10001GF102991001001999999001011KA1240N+02091MA1999999099421MD1999999+0101REMSYN017333   20209 58010
0096827650999991987052618004-07333-047467FM-12+019299999V0200901N00261220001CN0200001N9+03441+01841101271ADDAA106000091AG10999GF102991021021008001001001MA1999999098891MD1999999+0001REMSYN011333   58000
0115827650999991987052700004-07333-047467FM-12+019299999V0200901N00151220001CN0200001N9+02621+02071101571ADDAA106000091AG10999GF100991001001999999001001KA1240M+03481MA1999999099181MD1999999+0061REMSYN017333   10348 58006
0081827650999991987052712004-07333-047467FM-12+019299999V0200901N00101220001CN0200001N9+02761+02231101851ADDAA106000091AG10999GF100991001001999999001001MA1999999099441EQDQ01+999990APOSLP
0085827650999991987052718004-07333-047467FM-12+019299999V0200901N00311220001CN0200001N9+03421+01981101371ADDAG10999GF101991011021008001001001MA1999999099001MD1999999+0111REMSYN011333   58011
0115827650999991987052800004-07333-047467FM-12+019299999V0200501N00151220001CN0200001N9+02581+02151101631ADDAA106000091AG10999GF100991001001999999001001KA1240M+03441MA1999999099231MD1999999+0051REMSYN017333   10344 58005
0115827650999991987052812004-07333-047467FM-12+019299999V0200901N00151220001CN0200001N9+02801+01951101921ADDAA106000091AG10999GF100991001001999999001001KA1240N+02161MA1999999099521MD1999999+0081REMSYN017333   20216 58008
0096827650999991987052818004-07333-047467FM-12+019299999V0201401N00261220001CN0200001N9+03361+02001101531ADDAA106000091AG10999GF103991031021008001001001MA1999999099161MD1999999+0161REMSYN011333   58016
0115827650999991987052912004-07333-047467FM-12+019299999V0200501N00151220001CN0200001N9+02791+02201101921ADDAA106000091AG10999GF102991001001999999001011KA1240N+02151MA1999999099521MD1999999+0001REMSYN017333   20215 58000
0096827650999991987052918004-07333-047467FM-12+019299999V0201401N00311220001CN0200001N9+03351+01671101481ADDAA106000091AG10999GF102991021021008001001011MA1999999099111MD1999999-0051REMSYN011333   59005
0115827650999991987053012004-07333-047467FM-12+019299999V0200901N00151220001CN0200001N9+02621+01911101931ADDAA106000091AG10999GF100991001001999999001001KA1240N+01991MA1999999099521MD1999999+0001REMSYN017333   20199 58000
0096827650999991987053018004-07333-047467FM-12+019299999V0201401N00211220001CN0200001N9+03441+02331101481ADDAA106000091AG10999GF101991011011008001001001MA1999999099101MD1999999-0011REMSYN011333   59001
0115827650999991987053100004-07333-047467FM-12+019299999V0200901N00151220001CN0200001N9+02561+01901101611ADDAA106000091AG10999GF100991001001999999001001KA1240M+03501MA1999999099231MD1999999-0011REMSYN017333   10350 59001
0115827650999991987053112004-07333-047467FM-12+019299999V0200501N00151220001CN0200001N9+02701+02061101851ADDAA106000091AG10999GF100991001001999999001001KA1240N+02011MA1999999099451MD1999999-0071REMSYN017333   20201 59007
0096827650999991987053118004-07333-047467FM-12+019299999V0200501N00261220001CN0200001N9+03521+01601101311ADDAA106000091AG10999GF102991021011008001001001MA1999999098931MD1999999-0171REMSYN011333   59017
0115827650999991987060112004-07333-047467FM-12+019299999V0200501N00051220001CN0200001N9+02761+02161101701ADDAA106000091AG10999GF100991001001999999001001KA1240N+02011MA1999999099301MD1999999-0151REMSYN017333   20201 59015
0113827650999991987060118004-07333-047467FM-12+019299999V0200901N00261220001CN0200001N9+03321+02141101331ADDAA106000691AA299000591AG10999GF104991041021008001001001MA1999999098951MD1999999+0021REMSYN017333   58002 69961
0132827650999991987060212004-07333-047467FM-12+019299999V0200501N00051220001CN0200001N9+02661+02271101641ADDAA124000691AA299000591AG10999GF101991001001999999031011KA1240N+01971MA1999999099241MD1999999-0061REMSYN023333   20197 59006 69964
0096827650999991987060218004-07333-047467FM-12+019299999V0201401N00151220001CN0200001N9+03401+02211101321ADDAA106000091AG10999GF104991031021008001001011MA1999999098851MD1999999-0101REMSYN011333   59010
0115827650999991987060300004-07333-047467FM-12+019299999V0200501N00151220001CN0200001N9+02641+02361101381ADDAA106000091AG10999GF103991031021008001001001KA1240M+03051MA1999999098991MD1999999+0071REMSYN017333   10305 58007
0115827650999991987060318004-07333-047467FM-12+019299999V0200901N00261220001CN0200001N9+03441+01961101091ADDAA106000091AG10999GF102991021021008001001001MA1999999098751MD1999999-0101REMSYN011333   59010EQDQ01+999990APOSLP
0115827650999991987060412004-07333-047467FM-12+019299999V0201401N00151220001CN0200001N9+02801+01981101511ADDAA106000091AG10999GF100991001001999999001001KA1240N+02011MA1999999099121MD1999999+0001REMSYN017333   20201 58000
0096827650999991987060418004-07333-047467FM-12+019299999V0201401N00311220001CN0200001N9+03401+01811101091ADDAA106000091AG10999GF104991031001999999041011MA1999999098721MD1999999-0031REMSYN011333   59003
0115827650999991987060500004-07333-047467FM-12+019299999V0200901N00151220001CN0200001N9+02541+02111101191ADDAA106000091AG10999GF104991041081008001001001KA1240M+03421MA1999999098801MD1999999-0041REMSYN017333   10342 59004
0115827650999991987060512004-07333-047467FM-12+019299999V0201401N00151220001CN0200001N9+02761+01941101501ADDAA106000091AG10999GF101991011001999999041001KA1240N+02011MA1999999099101MD1999999-0021REMSYN017333   20201 59002
0070827650999991987060515004-07333-047467FM-12+019299999V0201001N00511007501CN0150001N9+02741+02041999999ADDAG10999GF105991051011008001031001MA1999999101442EQDQ01+101443APOSP 
0115827650999991987060612004-07333-047467FM-12+019299999V0200901N00151220001CN0200001N9+02681+02061101481ADDAA106000091AG10999GF101991011021008001031001KA1240N+02131MA1999999099081MD1999999-0021REMSYN017333   20213 59002
0096827650999991987060618004-07333-047467FM-12+019299999V0200901N00211220001CN0200001N9+03441+01581101081ADDAA106000091AG10999GF103991031021008001001001MA1999999098701MD1999999+0041REMSYN011333   58004
0115827650999991987060700004-07333-047467FM-12+019299999V0200501N00151220001CN0200001N9+02621+01961101231ADDAA106000091AG10999GF100991001001999999001001KA1240M+03521MA1999999098841MD1999999+0001REMSYN017333   10352 58000
0115827650999991987060712004-07333-047467FM-12+019299999V0209991C00001007501CN0200001N9+02641+02001101671ADDAA106000091AG10999GF105991051011008001001001KA1240N+01961MA1999999099271MD1999999+0191REMSYN017333   20196 58019
0096827650999991987060718004-07333-047467FM-12+019299999V0200901N00211007501CN0200001N9+03281+01741101241ADDAA106000091AG10999GF105991051021008001001001MA1999999098861MD1999999+0561REMSYN011333   58056
0115827650999991987060812004-07333-047467FM-12+019299999V0200501N00151220001CN0200001N9+02601+02301101441ADDAA106000091AG10999GF100991001001999999001001KA1240M+03401MA1999999099041MD1999999+0201REMSYN017333   10340 58020
0069827650999991987060815004-07333-047467FM-12+019299999V0209991C00001007501CN0150001N9+02641+02141999999ADDAG10999GF107991071011008001001001MD1710101+9999EQDQ01+101843APOSP 
0096827650999991987060818004-07333-047467FM-12+019299999V0200901N00261220001CN0200001N9+03381+01981101581ADDAA106000091AG10999GF104991041021008001001001MA1999999099001MD1999999-0221REMSYN011333   59022
0115827650999991987060912004-07333-047467FM-12+019299999V0201801N00051220001CN0200001N9+02721+02281101761ADDAA106000091AG10999GF100991001001999999001001KA1240N+02061MA1999999099361MD1999999-0101REMSYN017333   20206 59010
0096827650999991987060918004-07333-047467FM-12+019299999V0200901N00311220001CN0200001N9+03441+01971101231ADDAA106000091AG10999GF101991011021008001001001MA1999999098861MD1999999-0141REMSYN011333   59014
0115827650999991987061000004-07333-047467FM-12+019299999V0200901N00151220001CN0200001N9+02561+02061101461ADDAA106000091AG10999GF102991021001999999031001KA1240M+03491MA1999999099061MD1999999-0181REMSYN017333   10349 59018
0115827650999991987061012004-07333-047467FM-12+019299999V0200501N00151220001CN0200001N9+02781+02131101571ADDAA106000091AG10999GF104991041021008001001001KA1240N+02071MA1999999099171MD1999999-0191REMSYN017333   20207 59019
0096827650999991987061018004-07333-047467FM-12+019299999V0200901N00151220001CN0200001N9+03301+01761101121ADDAA106000091AG10999GF104991041021008001001001MA1999999098751MD1999999-0111REMSYN011333   59011
0115827650999991987061112004-07333-047467FM-12+019299999V0200901N00151220001CN0500001N9+02821+02051101501ADDAA106000091AG10999GF100991001001999999001001KA1240N+02151MA1999999099111MD1999999-0061REMSYN017333   20215 59006
0115827650999991987061200004-07333-047467FM-12+019299999V0200901N00151007501CN0200001N9+02621+01981101341ADDAA106000091AG10999GF105991051021008001001001KA1240M+03451MA1999999098951MD1999999+0021REMSYN017333   10345 58002
0115827650999991987061212004-07333-047467FM-12+019299999V0200901N00211220001CN0200001N9+02781+02101101591ADDAA106000091AG10999GF103991011011008001001011KA1240N+02121MA1999999099201MD1999999+0091REMSYN017333   20212 58009
0096827650999991987061218004-07333-047467FM-12+019299999V0200501N00361105001CN0200001N9+03401+01681101291ADDAA106000091AG10999GF105991021021008001031011MA1999999098921MD1999999+0211REMSYN011333   58021
0115827650999991987061300004-07333-047467FM-12+019299999V0200901N00151220001CN0200001N9+02821+02101101431ADDAA106000091AG10999GF104991041051008001001001KA1240M+03461MA1999999099051MD1999999+0101REMSYN017333   10346 58010
0115827650999991987061312004-07333-047467FM-12+019299999V0201401N00151220001CN0200001N9+02681+01991101651ADDAA106000091AG10999GF101991011021008001001001KA1240N+02111MA1999999099261MD1999999+0061REMSYN017333   20211 58006
0096827650999991987061318004-07333-047467FM-12+019299999V0200501N00311012001CN0200001N9+03371+02121101581ADDAA106000091AG10999GF107991071081008001001001MA1999999098911MD1999999-0011REMSYN011333   59001
0115827650999991987061412004-07333-047467FM-12+019299999V0201401N00151012001CN0200001N9+02681+02311101541ADDAA106000091AG10999GF106991061081008001001001KA1240N+02291MA1999999099141MD1999999-0121REMSYN017333   20229 59012
0096827650999991987061418004-07333-047467FM-12+019299999V0200901N00311220001CN0200001N9+03351+01511101101ADDAA106000091AG10999GF104991041021008001001001MA1999999098741MD1999999-0171REMSYN011333   59017
0115827650999991987061600004-07333-047467FM-12+019299999V0200901N00101220001CN0200001N9+02601+02061101361ADDAA106000091AG10999GF100991001001999999001001KA1240M+03491MA1999999098981MD1999999+0101REMSYN017333   10349 58010
0115827650999991987061612004-07333-047467FM-12+019299999V0200901N00151220001CN0200001N9+02781+01731101701ADDAA106000091AG10999GF101991011011008001001001KA1240N+02051MA1999999099601MD1999999+0141REMSYN017333   20205 58014
0096827650999991987061618004-07333-047467FM-12+019299999V0200901N00151220001CN0200001N9+03551+02571101241ADDAA106000091AG10001GF101991011011008001001001MA1999999098871MD1999999+0191REMSYN011333   58019
0115827650999991987061700004-07333-047467FM-12+019299999V0200801N00101220001CN0200001N9+02661+02001101441ADDAA106000091AG10999GF100991001001999999001001KA1240M+03281MA1999999099051MD1999999+0071REMSYN017333   10328 58007
0115827650999991987061712004-07333-047467FM-12+019299999V0203201N00101220001CN0200001N9+02841+02121101801ADDAA106000091AG10999GF101991011001999999031001KA1240N+02131MA1999999099311MD1999999+0011REMSYN017333   20213 58001
0096827650999991987061718004-07333-047467FM-12+019299999V0200501N00261007501CN0200001N9+03461+01981101381ADDAA106000091AG10999GF105991051021008001001001MA1999999099011MD1999999+0141REMSYN011333   58014
0104827650999991987061800004-07333-047467FM-12+019299999V0201801N00101220001CN0200001N9+02761+01971101601ADDAG10999GF100991001001999999001001KA1240M+03541MA1999999099221MD1999999+0171REMSYN017333   10354 58017
0115827650999991987061812004-07333-047467FM-12+019299999V0200501N00101220001CN0200001N9+02851+02221101831ADDAA106000091AG10999GF102991011011008001041001KA1240N+02171MA1999999099441MD1999999+0131REMSYN017333   20217 58013
0096827650999991987061818004-07333-047467FM-12+019299999V0203601N00361220001CN0200001N9+03401+01891101431ADDAA106000091AG10999GF104991041021008001001001MA1999999099051MD1999999+0041REMSYN011333   58004
0115827650999991987061900004-07333-047467FM-12+019299999V0203201N00051220001CN0100001N9+02701+02131101611ADDAA106000091AG10999GF100991001001999999001001KA1240M+03501MA1999999099211MD1999999+0011REMSYN017333   10350 58001
0115827650999991987061912004-07333-047467FM-12+019299999V0200501N00101220001CN0200001N9+02921+02291101711ADDAA106000091AG10999GF103991031011008001001001KA1240N+02201MA1999999099321MD1999999-0121REMSYN017333   20220 59012
0096827650999991987061918004-07333-047467FM-12+019299999V0201401N00311007501CN0200001N9+03361+02071101261ADDAA106000091AG10999GF106991061011008001001001MA1999999098881MD1999999-0171REMSYN011333   59017
0115827650999991987062004004-07333-047467FM-12+019299999V0203201N00101220001CN0200001N9+02631+02251101521ADDAA106000091AG10999GF102991021011008001001001KA1240M+03441MA1999999099131MD1999999-0101REMSYN017333   10344 59010
0115827650999991987062012004-07333-047467FM-12+019299999V0200501N00411012001CN0200001N9+02761+02211101801ADDAA106000091AG10999GF106991061081008001001001KA1240N+02291MA1999999099401MD1999999+0081REMSYN017333   20229 58008
0096827650999991987062018004-07333-047467FM-12+019299999V0200501N00311220001CN0200001N9+03181+02011101381ADDAA106000091AG10999GF104991031051008001031001MA1999999099001MD1999999+0121REMSYN011333   58012
0115827650999991987062100004-07333-047467FM-12+019299999V0209991C00001220001CN0200001N9+02681+02101101571ADDAA106000091AG10999GF102991021011008001001001KA1240M+03281MA1999999099181MD1999999+0051REMSYN017333   10328 58005
0115827650999991987062112004-07333-047467FM-12+019299999V0200501N00101220001CN0200001N9+02721+02151101801ADDAA106000091AG10999GF101991001001999999001011KA1240N+02181MA1999999099401MD1999999+0001REMSYN017333   20218 58000
0096827650999991987062118004-07333-047467FM-12+019299999V0200901N00411007501CN0200001N9+03261+01801101351ADDAA106000091AG10999GF105991051021008001001001MA1999999098971MD1999999-0031REMSYN011333   59003
0115827650999991987062212004-07333-047467FM-12+019299999V0201401N00101220001CN0200001N9+02751+02001101711ADDAA106000091AG10999GF101991011011008001001001KA1240N+02031MA1999999099321MD1999999-0081REMSYN017333   20203 59008
0115827650999991987062300004-07333-047467FM-12+019299999V0200901N00101220001CN0200001N9+02741+01891101491ADDAA106000091AG10999GF100991001001999999001001KA1240M+03461MA1999999099101MD1999999-0011REMSYN017333   10346 59001
0115827650999991987062312004-07333-047467FM-12+019299999V0200501N00151220001CN0200001N9+02841+02011101801ADDAA106000091AG10999GF103991031011008001001001KA1240N+02151MA1999999099451MD1999999+0131REMSYN017333   20215 58013
0096827650999991987062318004-07333-047467FM-12+019299999V0200901N00311220001CN0200001N9+03481+01751101361ADDAA106000091AG10999GF103991031011008001001001MA1999999098991MD1999999+0011REMSYN011333   58001
0115827650999991987062400004-07333-047467FM-12+019299999V0200901N00151220001CN0200001N9+02651+01931101611ADDAA106000091AG10999GF100991001001999999001001KA1240M+03651MA1999999099221MD1999999+0121REMSYN017333   10365 58012
0115827650999991987062412004-07333-047467FM-12+019299999V0202301N00101220001CN0200001N9+02551+01981101761ADDAA106000091AG10999GF101991011001017501041001KA1240N+02051MA1999999099361MD1999999-0111REMSYN017333   20205 59011
0096827650999991987062418004-07333-047467FM-12+019299999V0200901N00261220001CN0200001N9+03501+01681101341ADDAA106000091AG10999GF102991021021008001001001MA1999999098971MD1999999-0021REMSYN011333   59002
0115827650999991987062500004-07333-047467FM-12+019299999V0200901N00101220001CN0200001N9+02801+01901101551ADDAA106000091AG10999GF100991001001999999001001KA1240M+03591MA1999999099161MD1999999-0061REMSYN017333   10359 59006
0115827650999991987062512004-07333-047467FM-12+019299999V0200901N00101007501CN0200001N9+02641+02181101891ADDAA106000091AG10999GF106991061051008001001001KA1240N+02211MA1999999099491MD1999999+0131REMSYN017333   20221 58013
0115827650999991987062600004-07333-047467FM-12+019299999V0200401N00151220001CN0200001N9+02721+02001101621ADDAA106000091AG10999GF100991001001999999001001KA1240M+03561MA1999999099231MD1999999+0071REMSYN017333   10356 58007
0115827650999991987062612004-07333-047467FM-12+019299999V0200901N00151220001CN0200001N9+02781+02111101951ADDAA106000091AG10999GF101991011011008001001001KA1240N+02191MA1999999099551MD1999999+0061REMSYN017333   20219 58006
0096827650999991987062618004-07333-047467FM-12+019299999V0200901N00151220001CN0200001N9+03301+01551101541ADDAA106000091AG10999GF102991011011008001001041MA1999999099151MD1999999+0061REMSYN011333   58006
0115827650999991987062700004-07333-047467FM-12+019299999V0201401N00101220001CN0200001N9+02281+01781101721ADDAA106000091AG10999GF100991001001999999001001KA1240M+03381MA1999999099331MD1999999+0101REMSYN017333   10338 58010
0115827650999991987062712004-07333-047467FM-12+019299999V0200901N00311220001CN0200001N9+02841+01791101991ADDAA106000091AG10999GF101991011011008001001001KA1240N+02091MA1999999099591MD1999999+0041REMSYN017333   20209 58004
0115827650999991987062800004-07333-047467FM-12+019299999V0201401N00101220001CN0200001N9+02641+01771101761ADDAA106000091AG10999GF100991001001999999001001KA1240M+03381MA1999999099371MD1999999+0041REMSYN017333   10338 58004
0115827650999991987062812004-07333-047467FM-12+019299999V0200901N00101105001CN0200001N9+02501+02001101841ADDAA106000091AG10999GF107991011011008001001071KA1240N+02091MA1999999099431MD1999999-0161REMSYN017333   20209 59016
0096827650999991987062818004-07333-047467FM-12+019299999V0200501N00311220001CN0200001N9+02281+01621101461ADDAA106000091AG10999GF104991041021008001001001MA1999999099071MD1999999-0141REMSYN011333   59014
0115827650999991987062900004-07333-047467FM-12+019299999V0201401N00051220001CN0200001N9+02701+01991101641ADDAA106000091AG10999GF102991021021008001001001KA1240M+03341MA1999999099241MD1999999-0131REMSYN017333   10334 59013
0115827650999991987062912004-07333-047467FM-12+019299999V0200901N00311220001CN0200001N9+02661+01711101911ADDAA106000091AG10999GF100991001001999999001001KA1240N+02221MA1999999099511MD1999999+0081REMSYN017333   20222 58008
0115827650999991987063000004-07333-047467FM-12+019299999V0200901N00101220001CN0200001N9+99999+99999101551ADDAA106000091AG10999GF100991001001999999001001KA1240M+03381MA1999999099151MD1999999-0091REMSYN017333   10338 59009
0115827650999991987063012004-07333-047467FM-12+019299999V0200901N00361220001CN0200001N9+02701+01781101731ADDAA106000091AG10001GF100991001001999999001001KA1240N+02141MA1999999099331MD1999999-0181REMSYN017333   20214 59018
0096827650999991987063018004-07333-047467FM-12+019299999V0200901N00361220001CN0200001N9+03321+01521101331ADDAA106000091AG10999GF103991031021008001001001MA1999999098961MD1999999-0171REMSYN011333   59017
0115827650999991987070100004-07333-047467FM-12+019299999V0200901N00151012001CN0200001N9+02851+01731101011ADDAA106000091AG10999GF108991081081008001999999KA1240M+03381MA1999999099031MD1999999-0121REMSYN017333   10338 59012
0115827650999991987070112004-07333-047467FM-12+019299999V0200901N00671220001CN0200001N9+02861+01921101591ADDAA106000091AG10999GF102991021011008001001001KA1240N+02451MA1999999099211MD1999999-0121REMSYN017333   20245 59012
0096827650999991987070118004-07333-047467FM-12+019299999V0200901N00361220001CN0200001N9+03361+01731101201ADDAA106000091AG10999GF103991031011008001001001MA1999999098851MD1999999-0111REMSYN011333   59011
0115827650999991987070200004-07333-047467FM-12+019299999V0201401N00151220001CN0200001N9+02641+01801101411ADDAA106000091AG10999GF100991001001999999001001KA1240M+03451MA1999999099031MD1999999+0001REMSYN017333   10345 58000
0115827650999991987070212004-07333-047467FM-12+019299999V0201401N00151220001CN0200001N9+02701+01861101571ADDAA106000091AG10999GF100991001001999999001001KA1240N+02011MA1999999099171MD1999999-0041REMSYN017333   20201 59004
0096827650999991987070218004-07333-047467FM-12+019299999V0200901N00211220001CN0200001N9+03351+01581101191ADDAA106000091AG10999GF101991011011008001001001MA1999999098811MD1999999-0041REMSYN011333   59004
0115827650999991987070300004-07333-047467FM-12+019299999V0200901N00151220001CN0200001N9+02721+01821101291ADDAA106000091AG10999GF100991001001999999001001KA1240M+03461MA1999999098901MD1999999-0131REMSYN017333   10346 59013
0096827650999991987070318004-07333-047467FM-12+019299999V0200901N00621220001CN0200001N9+03181+01871101281ADDAA106000091AG10999GF103991031021008001001001MA1999999098901MD1999999+0091REMSYN011333   58009
0115827650999991987070400004-07333-047467FM-12+019299999V0201401N00101220001CN0200001N9+02751+01891101411ADDAA106000091AG10999GF100991001001999999001001KA1240M+03441MA1999999099031MD1999999+0131REMSYN017333   10344 58013
0115827650999991987070412004-07333-047467FM-12+019299999V0201401N00411220001CN0200001N9+02841+01851101591ADDAA106000091AG10999GF100991001001999999001001KA1240N+02151MA1999999099211MD1999999-0091REMSYN017333   20215 59009
0115827650999991987070500004-07333-047467FM-12+019299999V0200901N00151007501CN0200001N9+02821+01891101401ADDAA106000091AG10999GF107991071021008001001001KA1240M+03561MA1999999099031MD1999999+0001REMSYN017333   10356 58000
0115827650999991987070512004-07333-047467FM-12+019299999V0200901N00671220001CN0200001N9+02821+01941101621ADDAA106000091AG10999GF100991001001999999001001KA1240N+02121MA1999999099241MD1999999+0031REMSYN017333   20212 58003
0096827650999991987070518004-07333-047467FM-12+019299999V0200901N00211220001CN0200001N9+03401+01771101191ADDAA106000091AG10999GF103991031021008001001001MA1999999098821MD1999999+0001REMSYN011333   58000
0115827650999991987070600004-07333-047467FM-12+019299999V0201401N00151220001CN0200001N9+02821+01841101411ADDAA106000091AG10999GF102991021011008001001001KA1240M+03521MA1999999099031MD1999999+0001REMSYN017333   10352 58000
0115827650999991987070612004-07333-047467FM-12+019299999V0201401N00361220001CN0200001N9+02871+01901101651ADDAA106000091AG10999GF100991001001999999001001KA1240N+02021MA1999999099261MD1999999+0021REMSYN017333   20202 58002
0096827650999991987070618004-07333-047467FM-12+019299999V0200901N00311220001CN0200001N9+03551+01521101121ADDAA106000091AG10999GF101991011021008001001001MA1999999098781MD1999999-0041REMSYN011333   59004
0115827650999991987070712004-07333-047467FM-12+019299999V0200901N00571220001CN0200001N9+02881+01731101631ADDAA106000091AG10999GF102991011011008001001041KA1240N+02031MA1999999099251MD1999999-0011REMSYN017333   20203 59001
0096827650999991987070718004-07333-047467FM-12+019299999V0200901N00261220001CN0200001N9+03391+01791101211ADDAA106000091AG10999GF103991031011008001001001MA1999999099841MD1999999+0111REMSYN011333   58011
0115827650999991987070812004-07333-047467FM-12+019299999V0200901N00361220001CN0200001N9+02861+01871101691ADDAA106000091AG10999GF101991001001999999001011KA1240N+02171MA1999999099301MD1999999+0051REMSYN017333   20217 58005
0096827650999991987070818004-07333-047467FM-12+019299999V0201401N00051220001CN0200001N9+03481+01611101211ADDAA106000091AG10999GF103991031021008001001001MA1999999098851MD1999999+0011REMSYN011333   58001
0115827650999991987070900004-07333-047467FM-12+019299999V0200901N00151007501CN0200001N9+02921+01771101391ADDAA106000091AG10999GF106991061051008001001001KA1240M+03521MA1999999099021MD1999999+0031REMSYN017333   10352 58003
0115827650999991987070912004-07333-047467FM-12+019299999V0200901N00211220001CN0200001N9+02901+02041101611ADDAA106000091AG10999GF100991001001999999001001KA1240N+02241MA1999999099041MD1999999-0061REMSYN017333   20224 59006
0096827650999991987070918004-07333-047467FM-12+019299999V0201401N00311220001CN0200001N9+03551+01621101131ADDAA106000091AG10999GF102991021021008001001001MA1999999098781MD1999999-0071REMSYN011333   59007
0115827650999991987071012004-07333-047467FM-12+019299999V0200501N00151220001CN0200001N9+02801+02801101521ADDAA106000091AG10999GF103991031011008001001001KA1240N+02031MA1999999099131MD1999999-0111REMSYN017333   20203 59011
0096827650999991987071018004-07333-047467FM-12+019299999V0200901N00151220001CN0200001N9+03411+01501101121ADDAA106000091AG10999GF105991041011008001001041MA1999999098751MD1999999-0031REMSYN011333   59003
0115827650999991987071112004-07333-047467FM-12+019299999V0200501N00361220001CN0200001N9+02761+02021101561ADDAA106000091AG10999GF102991001001999999001011KA1240N+01991MA1999999099171MD1999999+0041REMSYN017333   20199 58004
0096827650999991987071118004-07333-047467FM-12+019299999V0200901N00261220001CN0200001N9+03501+01721101071ADDAA106000091AG10999GF103991031021008001001001MA1999999098701MD1999999-0051REMSYN011333   59005
0115827650999991987071200004-07333-047467FM-12+019299999V0200901N00151220001CN0200001N9+02741+01761101211ADDAA106000091AG10999GF100991001001999999001001KA1240M+03561MA1999999098831MD1999999-0131REMSYN017333   10356 59013
0115827650999991987071212004-07333-047467FM-12+019299999V0200501N00311220001CN0200001N9+02781+02091101531ADDAA106000091AG10999GF103991021021008001011001KA1240N+02041MA1999999099141MD1999999-0031REMSYN017333   20204 59003
0115827650999991987071300004-07333-047467FM-12+019299999V0200901N00311220001CN0200001N9+02761+01881101851ADDAA106000091AG10999GF100991001001999999001001KA1240M+03501MA1999999098901MD1999999+0071REMSYN017333   10350 58007
0096827650999991987071318004-07333-047467FM-12+019299999V0200901N00511220001CN0200001N9+03551+01671101071ADDAA106000091AG10999GF102991021011008001001001MA1999999098701MD1999999-0061REMSYN011333   59006
0115827650999991987071412004-07333-047467FM-12+019299999V0200901N00261220001CN0200001N9+02881+02131101481ADDAA106000091AG10999GF100991001001999999001001KA1240N+02031MA1999999099111MD1999999+0031REMSYN017333   20203 58003
0096827650999991987071418004-07333-047467FM-12+019299999V0201401N00261220001CN0200001N9+03561+01591101071ADDAA106000091AG10999GF102991021021008001001001MA1999999098701MD1999999+0001REMSYN011333   58000
0115827650999991987071500004-07333-047467FM-12+019299999V0200901N00151220001CN0200001N9+02781+01881101331ADDAA106000091AG10999GF100991001001999999001001KA1240M+03601MA1999999098961MD1999999+0011REMSYN017333   10360 58001
0115827650999991987071512004-07333-047467FM-12+019299999V0200901N00311220001CN0200001N9+02871+02801101581ADDAA106000091AG10999GF100991001001999999001001KA1240N+02171MA1999999099201MD1999999+0091REMSYN017333   20217 58009
0096827650999991987071518004-07333-047467FM-12+019299999V0200901N00311220001CN0200001N9+03501+01681101171ADDAA106000091AG10999GF102991021011008001001001MA1999999098801MD1999999+0101REMSYN011333   58010
0115827650999991987071600004-07333-047467FM-12+019299999V0200501N00151220001CN0200001N9+02701+01631101391ADDAA106000091AG10999GF101991011011008001001001KA1240M+03561MA1999999099011MD1999999+0051REMSYN017333   10356 58005
0115827650999991987071612004-07333-047467FM-12+019299999V0200901N00151220001CN0200001N9+02801+01901101621ADDAA106000091AG10999GF102991021011008001001001KA1240N+02151MA1999999099231MD1999999+0031REMSYN017333   20215 58003
0096827650999991987071618004-07333-047467FM-12+019299999V0200901N00411220001CN0200001N9+03401+01501101271ADDAA106000091AG10999GF104991041021008001001001MA1999999098901MD1999999+0101REMSYN011333   58010
0115827650999991987071712004-07333-047467FM-12+019299999V0201401N00261220001CN0200001N9+02501+01891101471ADDAA106000091AG10999GF100991001001999999001001KA1240N+01901MA1999999099071MD1999999-0161REMSYN017333   20190 59016
0096827650999991987071718004-07333-047467FM-12+019299999V0201401N00311220001CN0200001N9+03401+01501101061ADDAA106000091AG10999GF104991041021008001001001MA1999999098691MD1999999-0211REMSYN011333   59021
0115827650999991987071800004-07333-047467FM-12+019299999V0200901N00151220001CN0200001N9+02661+01681101321ADDAA106000091AG10999GF100991001001999999001001KA1240M+03501MA1999999098921MD1999999-0011REMSYN017333   10350 59001
0115827650999991987071812004-07333-047467FM-12+019299999V0201401N00101220001CN0200001N9+02601+01761101461ADDAA106000091AG10999GF100991001001999999001001KA1240N+01951MA1999999099061MD1999999-0011REMSYN017333   20195 59001
0096827650999991987071818004-07333-047467FM-12+019299999V0200501N00261220001CN0200001N9+03401+01501101141ADDAA106000091AG10999GF102991021021008001001001MA1999999098771MD1999999+0081REMSYN011333   58008
0115827650999991987071912004-07333-047467FM-12+019299999V0201401N00261220001CN0200001N9+02721+01791101601ADDAA106000091AG10999GF100991001001999999001001KA1240N+01971MA1999999099201MD1999999+0141REMSYN017333   20197 58014
0115827650999991987071918004-07333-047467FM-12+019299999V0200901N00261220001CN0200001N9+03421+01271101161ADDAA106000091AG10999GF101991011011008001061061MA1999999098821MD1999999+0021REMSYN011333   58002EQDQ01+999990APOSP 
0115827650999991987072000004-07333-047467FM-12+019299999V0200901N00151220001CN0200001N9+02741+02611101421ADDAA106000091AG10999GF100991001001999999001001KA1240M+03541MA1999999099041MD1999999+0121REMSYN017333   10354 58012
0115827650999991987072012004-07333-047467FM-12+019299999V0201401N00151220001CN0200001N9+99999+99999101701ADDAA106000091AG10999GF100991001001999999001001KA1240N+01891MA1999999099301MD1999999+0101REMSYN017333   20189 58010
0096827650999991987072018004-07333-047467FM-12+019299999V0200901N00261220001CN0200001N9+03501+02531101261ADDAA106000091AG10001GF100991001001999999001001MA1999999098901MD1999999+0111REMSYN011333   58011
0115827650999991987072100004-07333-047467FM-12+019299999V0201401N00151220001CN0200001N9+02961+01531101421ADDAA106000091AG10999GF100991001001999999001001KA1240M+03561MA1999999099041MD1999999+0011REMSYN017333   10356 58001
0115827650999991987072112004-07333-047467FM-12+019299999V0200901N00151220001CN0200001N9+02781+01551101631ADDAA106000091AG10999GF100991001001999999001001KA1240N+01911MA1999999099251MD1999999-0051REMSYN017333   20191 59005
0096827650999991987072118004-07333-047467FM-12+019299999V0200901N00311220001CN0200001N9+03451+01211101081ADDAA106000091AG10999GF101991011011008001001001MA1999999098721MD1999999-0181REMSYN011333   59018
0115827650999991987072200004-07333-047467FM-12+019299999V0201401N00101220001CN0200001N9+02701+01341101331ADDAA106000091AG10999GF100991001001999999001001KA1240M+03531MA1999999098951MD1999999-0091REMSYN017333   10353 59009
0115827650999991987072212004-07333-047467FM-12+019299999V0209991C00001220001CN0200001N9+02611+01571101471ADDAA106000091AG10999GF100991001001999999001001KA1240N+01701MA1999999099071MD1999999-0181REMSYN017333   20170 59018
0096827650999991987072218004-07333-047467FM-12+019299999V0200901N00411220001CN0200001N9+03501+01431101041ADDAA106000091AG10999GF103991021011008001001041MA1999999098661MD1999999-0061REMSYN011333   59006
0115827650999991987072300004-07333-047467FM-12+019299999V0200901N00151220001CN0200001N9+02661+01531101281ADDAA106000091AG10999GF100991001001999999001001KA1240M+03501MA1999999098891MD1999999-0061REMSYN017333   10350 59006
0115827650999991987072312004-07333-047467FM-12+019299999V0201401N00101220001CN0200001N9+02661+01711101561ADDAA106000091AG10999GF100991001001999999001001KA1240N+01951MA1999999099161MD1999999+0091REMSYN017333   20195 58009
0096827650999991987072318004-07333-047467FM-12+019299999V0200901N00361220001CN0200001N9+03541+01521101161ADDAA106000091AG10999GF103991031021008001001001MA1999999098801MD1999999+0141REMSYN011333   58014
0134827650999991987072400004-07333-047467FM-12+019299999V0200901N00101220001CN0200001N9+03681+01421101371ADDAA106000091AG10999GF100991001001999999001001KA1240M+99999MA1999999098991MD1999999+0101REMSYN017333   10360 58010EQDQ01 +03602ATMX  
0115827650999991987072412004-07333-047467FM-12+019299999V0200501N00261220001CN0200001N9+02861+01751101641ADDAA106000091AG10999GF100991001001999999001001KA1240N+01951MA1999999099251MD1999999+0091REMSYN017333   20195 58009
0096827650999991987072418004-07333-047467FM-12+019299999V0200901N00411220001CN0200001N9+03481+01711101241ADDAA106000091AG10999GF101991999999008001999999MA1999999098871MD1999999+0071REMSYN011333   58007
0115827650999991987072512004-07333-047467FM-12+019299999V0200901N00411220001CN0200001N9+02821+01671101691ADDAA106000091AG10999GF100991001001999999001001KA1240N+02031MA1999999099301MD1999999+0051REMSYN017333   20203 58005
0096827650999991987072518004-07333-047467FM-12+019299999V0201401N00151220001CN0200001N9+03441+01481101271ADDAA106000091AG10999GF102991021011008001001001MA1999999098901MD1999999+0031REMSYN011333   58003
0115827650999991987072612004-07333-047467FM-12+019299999V0209999999999220001CN0200001N9+02521+01681101521ADDAA106000091AG10999GF100991001001999999001001KA1240N+01931MA1999999099131MD1999999-0171REMSYN017333   20193 59017
0096827650999991987072618004-07333-047467FM-12+019299999V0200901N00311220001CN0200001N9+03541+01521101041ADDAA106000091AG10999GF100991001001999999001001MA1999999098671MD1999999-0231REMSYN011333   59023
0115827650999991987072700004-07333-047467FM-12+019299999V0209991C00001220001CN0200001N9+02751+01771101181ADDAA106000091AG10999GF100991001001999999001001KA1240M+03561MA1999999098811MD1999999-0221REMSYN017333   10356 59022
0115827650999991987072712004-07333-047467FM-12+019299999V0202301N00101220001CN0200001N9+02701+01671101371ADDAA106000091AG10999GF101991011011008001001001KA1240N+01991MA1999999098981MD1999999-0151REMSYN017333   20199 59015
0115827650999991987072800004-07333-047467FM-12+019299999V0209991C00001220001CN0200001N9+02821+01911101201ADDAA106000091AG10999GF100991001001999999001001KA1240M+03561MA1999999098821MD1999999+0011REMSYN017333   10356 58001
0115827650999991987072812004-07333-047467FM-12+019299999V0201401N00151220001CN0200001N9+02791+01701101341ADDAA106000091AG10999GF102991011011008001001041KA1240N+02041MA1999999098961MD1999999-0021REMSYN017333   20204 59002
0096827650999991987072818004-07333-047467FM-12+019299999V0200901N00151220001CN0200001N9+03461+01551100871ADDAA106000091AG10999GF103991021011008001001041MA1999999098521MD1999999-0171REMSYN011333   59017
0096827650999991987072918004-07333-047467FM-12+019299999V0200901N00311220001CN0200001N9+03561+01531100981ADDAA106000091AG10999GF101991011011008001001001MA1999999098631MD1999999+0111REMSYN011333   58011
0115827650999991987073000004-07333-047467FM-12+019299999V0201401N00051220001CN0200001N9+02831+01481101191ADDAA106000091AG10999GF100991001001999999001001KA1240M+03561MA1999999098811MD1999999+0141REMSYN017333   10356 58014
0115827650999991987073012004-07333-047467FM-12+019299999V0209991C00001220001CN0200001N9+02761+01801101151ADDAA106000091AG10999GF102991021001017501041001KA1240N+02201MA1999999099131MD1999999+0121REMSYN017333   20220 58012
0096827650999991987073018004-07333-047467FM-12+019299999V0200501N00261220001CN0200001N9+03631+01531100971ADDAA106000091AG10999GF103991021021008001001011MA1999999098631MD1999999+0001REMSYN011333   58000
0115827650999991987073100004-07333-047467FM-12+019299999V0209991C00001220001CN0200001N9+02871+02721101131ADDAA106000091AG10999GF100991001001999999001001KA1240M+03661MA1999999098761MD1999999-0051REMSYN017333   10366 59005
0115827650999991987073112004-07333-047467FM-12+019299999V0203201N00151220001CN0200001N9+02821+02021101271ADDAA106000091AG10999GF103991031011008001001001KA1240N+02221MA1999999098901MD1999999-0231REMSYN017333   20222 59023
0096827650999991987073118004-07333-047467FM-12+019299999V0203201N00211220001CN0200001N9+03501+01771100871ADDAA106000091AG10999GF103991031021008001001001MA1999999098521MD1999999-0111REMSYN011333   59011
0115827650999991987080100004-07333-047467FM-12+019299999V0203201N00101220001CN0200001N9+02901+02041101131ADDAA106000091AG10999GF102991021021008001001001KA1240M+03581MA1999999098761MD1999999+0001REMSYN017333   10358 58000
0137827650999991987080112004-07333-047467FM-12+019299999V0202301N00151007501CN0040001N9+02771+01661101351ADDAA106000091AG10999AY121061AY221061GF106991061011008001001001KA1240N+02401MA1999999098981MD1999999+0081MW1051REMSYN017333   20240 58008
0096827650999991987080118004-07333-047467FM-12+019299999V0202701N00311220001CN0200001N9+03481+01711100821ADDAA106000091AG10999GF102991021011008001001001MA1999999098481MD1999999-0041REMSYN011333   59004
0137827650999991987080212004-07333-047467FM-12+019299999V0202301N00151007501CN0200001N9+02781+01731101481ADDAA106000091AG10999AY121061AY221061GF107991071021008001001001KA1240N+02291MA1999999099101MD1999999+0121MW1051REMSYN017333   20229 58012
0081827650999991987080218004-07333-047467FM-12+019299999V0200901N005119999999N0200001N9+03121+01951101161ADDAA106000091AG10999GF106991999999008001999999MA1999999098801EQDQ01+999990APOSLP
0104827650999991987080300004-07333-047467FM-12+019299999V0200401N00151220001CN0200001N9+02661+02181101391ADDAG10999GF102991021021008001001001KA1240M+03231MA1999999099001MD1999999+0211REMSYN017333   10323 58021
0154827650999991987080312004-07333-047467FM-12+019299999V0203201N00051007501CN0200001N9+02461+02211101541ADDAA124000791AA299001091AG10999AY151061AY251061GF108991081071008001999999KA1240N+02351MA1999999099131MD1999999+0031MW1021REMSYN023333   20235 58003 69974
0096827650999991987080318004-07333-047467FM-12+019299999V0200901N00311220001CN0200001N9+03201+01741101171ADDAA106000091AG10999GF106991031021008001001011MA1999999098801MD1999999+0001REMSYN011333   58000
0115827650999991987080400004-07333-047467FM-12+019299999V0200501N00151220001CN0200001N9+02681+01971101301ADDAA106000091AG10999GF102991021001017501031001KA1240M+03361MA1999999098901MD1999999-0101REMSYN017333   10336 59010
0101827650999991987080500004-07333-047467FM-12+019299999V0203201N00051045001CN0200001N9+02671+02111101231ADDAA106000091AG10999GF106991061001999999031001KA1240M+03341MA1999999098841REMSYN017333   10334 5900/
0115827650999991987080512004-07333-047467FM-12+019299999V0200901N00311220001CN0200001N9+03001+01781101431ADDAA106000091AG10999GF102991021001017501051001KA1240N+02301MA1999999099041MD1999999+0081REMSYN017333   20230 58008
0115827650999991987080518004-07333-047467FM-12+019299999V0200901N003119999999N0200001N9+03421+01651101131ADDAA106000091AG10999GF105991999011008001001001MA1999999098771MD1999999+0101REMSYN011333   58010EQDQ01+000042SCOTLC
0115827650999991987080600004-07333-047467FM-12+019299999V0200901N00151220001CN0200001N9+02791+02601101211ADDAA106000091AG10999GF101991011001999999041001KA1240M+03501MA1999999098851MD1999999+0011REMSYN017333   10350 58001
0115827650999991987080612004-07333-047467FM-12+019299999V0200501N00261220001CN0200001N9+02901+01811101551ADDAA106000091AG10999GF100991001001999999001001KA1240N+02051MA1999999099171MD1999999+0131REMSYN017333   20205 58013
0115827650999991987080618004-07333-047467FM-12+019299999V0201401N00261220001CN0200001N9+03881+01201101061ADDAA106000091AG10999GF101991011011008001001001MA1999999098112MD1999999-0061REMSYN011333   59006EQDQ01+098113APOSP 
0115827650999991987080700004-07333-047467FM-12+019299999V0203201N00051220001CN0200001N9+02941+01691101271ADDAA106000091AG10999GF101991011011008001001001KA1240M+03641MA1999999098901MD1999999+0051REMSYN017333   10364 58005
0115827650999991987080712004-07333-047467FM-12+019299999V0203201N00151220001CN0200001N9+02861+01871101451ADDAA106000091AG10999GF100991001001999999001001KA1240N+02111MA1999999099081MD1999999-0091REMSYN017333   20211 59009
0096827650999991987080718004-07333-047467FM-12+019299999V0202701N00211007501CN0200001N9+03601+01601100941ADDAA106000091AG10999GF106991061051008001001001MA1999999098581MD1999999-0131REMSYN011333   59013
0115827650999991987080800004-07333-047467FM-12+019299999V0203601N00101012001CN0200001N9+03061+01831101211ADDAA106000091AG10999GF107991071081008001001001KA1240M+03701MA1999999098851MD1999999-0051REMSYN017333   10370 59005
0115827650999991987080812004-07333-047467FM-12+019299999V0203201N00151220001CN0200001N9+02881+02131101441ADDAA106000091AG10999GF103991001001999999001011KA1240N+02311MA1999999099071MD1999999-0011REMSYN017333   20231 59001
0096827650999991987080818004-07333-047467FM-12+019299999V0200501N00211220001CN0200001N9+03621+01781101011ADDAA106000091AG10999GF103991031021008001001001MA1999999098671MD1999999+0091REMSYN011333   58009
0134827650999991987080912004-07333-047467FM-12+019299999V0203201N00211220001CN0200001N9+02781+02321101681ADDAA106000091AG10999GF102991001001999999001011KA1240N+02381MA1999999099301MD1999999+0231REMSYN017333   20238 58023EQDQ01+000952SCOLCB
0096827650999991987080918004-07333-047467FM-12+019299999V0202701N00311007501CN0200001N9+03521+01961101181ADDAA106000091AG10999GF105991051021008001001001MA1999999098801MD1999999+0131REMSYN011333   58013
0115827650999991987081000004-07333-047467FM-12+019299999V0202301N00101045001CN0200001N9+02741+01951101401ADDAA106000091AG10999GF108991031011008001041999KA1240M+03591MA1999999099031MD1999999+0131REMSYN017333   10359 58013
0115827650999991987081012004-07333-047467FM-12+019299999V0203201N00151220001CN0200001N9+02801+02151101691ADDAA106000091AG10999GF100991001001999999001001KA1240N+02211MA1999999099201MD1999999-0201REMSYN017333   20221 59020
0096827650999991987081018004-07333-047467FM-12+019299999V0203601N00361220001CN0200001N9+03501+01811101101ADDAA106000091AG10999GF103991031021008001001001MA1999999098751MD1999999-0051REMSYN011333   59005
