0115827840999991987010100004-07317-039300FM-12+040999999V0209991C00001220001CN9999999N9+02561+01621101191ADDAA106000091AG10999GF100991001001999999001001KA1240M+03061MA1999999096531MD1999999+0121REMSYN017333   10306 58012
0074827840999991987011400004-07317-039300FM-12+040999999V0201401N00151007501CN9999999N9+02721+01851999999ADDAA106000091AG10999GF108991081071008001999999MA1999999096661REMSYN003333
0095827840999991987011412004-07317-039300FM-12+040999999V0200501N00211220001CN0200001N9+02561+01701101561ADDAA106000091AG10999GF103991011011008001011001KA1240N+02061MA1999999096901REMSYN011333   20206
0074827840999991987011418004-07317-039300FM-12+040999999V0200901N00261220001CN0200001N9+03121+01521101131ADDAA106000091AG10999GF102991011021008001071001MA1999999096491REMSYN003333
0115827840999991987011500004-07317-039300FM-12+040999999V0209991C00001220001CN9999999N9+02361+01781101251ADDAA106000091AG10999GF100991001001999999001001KA1240M+03141MA1999999096581MD1999999-0081REMSYN017333   10314 59008
0115827840999991987011512004-07317-039300FM-12+040999999V0200501N00211220001CN0200001N9+02661+01871101431ADDAA106000091AG10999GF100991001001999999001001KA1240N+01951MA1999999096761MD1999999-0141REMSYN017333   20195 59014
0115827840999991987011600004-07317-039300FM-12+040999999V0209991C00001220001CN9999999N9+02311+01631101171ADDAA106000091AG10999GF100991001001999999001001KA1240M+03311MA1999999096511MD1999999-0071REMSYN017333   10331 59007
0115827840999991987011612004-07317-039300FM-12+040999999V0200901N00151012001CN0200001N9+02691+02131101371ADDAA106000091AG10999GF106991061081008001001001KA1240N+02161MA1999999096701MD1999999-0061REMSYN017333   20216 59006
0096827840999991987011618004-07317-039300FM-12+040999999V0203601N00151220001CN0200001N9+03261+01951100891ADDAA106000091AG10999GF102991011011012501071001MA1999999096271MD1999999-0021REMSYN011333   59002
0143827840999991987011700004-07317-039300FM-12+040999999V0201801N00101007501CN9999999N9+02291+02091101181ADDAA106006091AG10999AY161061AY221061GF108991081051008001999999KA1240M+03341MA1999999096521MD1999999+0011MW1211REMSYN023333   10334 58001 60061
0143827840999991987011712004-07317-039300FM-12+040999999V0200501N00211012001CN0200001N9+02621+02071101271ADDAA124007091AG10999AY161061AY221061GF106991061081008001001001KA1240N+02101MA1999999096601MD1999999-0101MW1021REMSYN023333   20210 59010 60074
0096827840999991987011718004-07317-039300FM-12+040999999V0200501N00151220001CN0200001N9+03251+01961100841ADDAA106000091AG10999GF101991999999008001999999MA1999999096221MD1999999-0051REMSYN011333   59005
0137827840999991987011800004-07317-039300FM-12+040999999V0201801N00051220001CN9999999N9+02481+02091101001ADDAA106000091AG10999AY181061AY211061GF100991001001999999001001KA1240M+03291MA1999999096351MD1999999-0171MW1001REMSYN017333   10329 59017
0115827840999991987011812004-07317-039300FM-12+040999999V0201801N00051012001CN0200001N9+02641+02161101271ADDAA106000091AG10999GF108991081081008001999999KA1240N+02221MA1999999096611MD1999999+0011REMSYN017333   20222 58001
0096827840999991987011818004-07317-039300FM-12+040999999V0200501N00151220001CN0200001N9+03201+01991100751ADDAA106000091AG10999GF103991031021012501001001MA1999999096141MD1999999-0081REMSYN011333   59008
0115827840999991987011900004-07317-039300FM-12+040999999V0201801N00101220001CN9999999N9+02551+02111100911ADDAA106000091AG10999GF100991001001999999001001KA1240M+03241MA1999999096271MD1999999-0081REMSYN017333   10324 59008
0115827840999991987011912004-07317-039300FM-12+040999999V0200901N00151012001CN0200001N9+02701+02151101291ADDAA106000091AG10999GF107991071081008001001001KA1240N+02281MA1999999096641MD1999999+0031REMSYN017333   20228 58003
0096827840999991987011918004-07317-039300FM-12+040999999V0203601N00211045001CN0200001N9+03241+02101100811ADDAA106000091AG10999GF105991041081008001011001MA1999999096201MD1999999+0061REMSYN011333   58006
0115827840999991987012012004-07317-039300FM-12+040999999V0203601N00051012001CN0200001N9+02641+01951101301ADDAA106000091AG10999GF108991061081008001011999KA1240N+02281MA1999999096641MD1999999+0001REMSYN017333   20228 58000
0096827840999991987012018004-07317-039300FM-12+040999999V0203601N00261045001CN0200001N9+02981+02061100871ADDAA106000091AG10999GF108991011021008001071999MA1999999096251MD1999999+0051REMSYN011333   58005
0096827840999991987012118004-07317-039300FM-12+040999999V0203601N00101007501CN0200001N9+02761+02141100901ADDAA106000091AG10999GF108991081061008001999999MA1999999096251MD1999999+0001REMSYN011333   58000
0137827840999991987012200004-07317-039300FM-12+040999999V0200501N00051220001CN9999999N9+02331+02271101091ADDAA106000091AG10999AY181061AY211061GF100991001001999999001001KA1240M+02901MA1999999096461MD1999999-0041MW1001REMSYN017333   10290 59004
0102827840999991987012212004-07317-039300FM-12+040999999V0203601N00151012001CN0200001N9+02521+02031101251ADDAA106000091AG10999GF107991061081008001031001MA1999999096581MD1999999-0061REMSYN017333   2/222 59006
0096827840999991987012218004-07317-039300FM-12+040999999V0201401N00211220001CN0200001N9+03221+01731100801ADDAA106000091AG10999GF103991031021012501001001MA1999999096181MD1999999-0071REMSYN011333   59007
0115827840999991987012312004-07317-039300FM-12+040999999V0200501N00211012001CN0200001N9+02641+01951101341ADDAA106000091AG10999GF106991061081008001001001KA1240N+02061MA1999999096671MD1999999+0091REMSYN017333   20206 58009
0096827840999991987012318004-07317-039300FM-12+040999999V0203601N00151045001CN0200001N9+03211+01821100891ADDAA106000091AG10999GF106991041021008001011001MA1999999096261MD1999999-0081REMSYN011333   59008
0100827840999991987012400004-07317-039300FM-12+040999999V0201801N00211220001CN9999999N9+02381+01731101051ADDAA106000091AG10999GF100991001001999999001001KA1240M+03231MD1999999+0021REMSYN017333   10323 58002
0115827840999991987012412004-07317-039300FM-12+040999999V0200501N00151220001CN0200001N9+02671+01971101301ADDAA106000091AG10999GF102991011011004501011001KA1240N+01891MA1999999096641MD1999999-0031REMSYN017333   20189 59003
0096827840999991987012418004-07317-039300FM-12+040999999V0203601N00261220001CN0200001N9+03291+01741101931ADDAA106000091AG10999GF103991031021008001001001MA1999999096301MD1999999+0041REMSYN011333   58004
0134827840999991987012500004-07317-039300FM-12+040999999V0201801N00151220001CN9999999N9+02501+01771101122ADDAA106000091AG10999GF100991001001999999001001KA1240M+03321MA1999999096471MD1999999+0071REMSYN017333   10332 58007EQDQ01+101123APOSLP
0096827840999991987012518004-07317-039300FM-12+040999999V0200501N00211220001CN0200001N9+03251+01641100921ADDAA106000091AG10999GF102991021011012501001001MA1999999096291MD1999999-0011REMSYN011333   59001
0115827840999991987012600004-07317-039300FM-12+040999999V0202301N00051220001CN9999999N9+02371+01801101081ADDAA106000091AG10999GF100991001001999999001001KA1240M+03271MA1999999096431MD1999999-0041REMSYN017333   10327 59004
0115827840999991987012612004-07317-039300FM-12+040999999V0200501N00101220001CN0200001N9+02671+01871101441ADDAA106000091AG10999GF103991011011008001071001KA1240N+01851MA1999999096771MD1999999-0021REMSYN017333   20185 59002
0096827840999991987012618004-07317-039300FM-12+040999999V0200501N00211220001CN0200001N9+03301+01551100951ADDAA106000091AG10999GF103991021021008001011001MA1999999096321MD1999999+0031REMSYN011333   58003
0115827840999991987012700004-07317-039300FM-12+040999999V0209991C00001220001CN9999999N9+02421+01821101131ADDAA106000091AG10999GF100991001001999999001001KA1240M+03371MA1999999096481MD1999999+0051REMSYN017333   10337 58005
0115827840999991987012712004-07317-039300FM-12+040999999V0200901N00151045001CN0008001N9+02621+01901101581ADDAA106000091AG10999GF106991031021008001071001KA1240N+01911MA1999999096911MD1999999+0141REMSYN017333   20191 58014
0096827840999991987012718004-07317-039300FM-12+040999999V0200901N00311045001CN0200001N9+03241+01581101081ADDAA106000091AG10001GF107991021081008001071001MA1999999096441MD1999999+0121REMSYN011333   58012
0115827840999991987012800004-07317-039300FM-12+040999999V0209991C00001220001CN9999999N9+02321+01761101271ADDAA106000091AG10999GF100991001001999999001001KA1240M+03311MA1999999096611MD1999999+0271REMSYN017333   10331 58027
0096827840999991987012818004-07317-039300FM-12+040999999V0201801N00101045001CN0200001N9+03271+01761101091ADDAA106000091AG10999GF106991031021008001011001MA1999999096451MD1999999+0011REMSYN011333   58001
0115827840999991987012900004-07317-039300FM-12+040999999V0209991C00001220001CN9999999N9+02481+01781101211ADDAA106000091AG10999GF100991001001999999001001KA1240M+03301MA1999999096551MD1999999-0061REMSYN017333   10330 59006
0115827840999991987012912004-07317-039300FM-12+040999999V0200901N00151007501CN0200001N9+02601+01991101451ADDAA106000091AG10999GF106991061021008001001001KA1240N+02021MA1999999096781MD1999999-0111REMSYN017333   20202 59011
0096827840999991987012918004-07317-039300FM-12+040999999V0200901N00211045001CN0200001N9+03341+01401100901ADDAA106000091AG10999GF107991031021012501011001MA1999999096361MD1999999-0091REMSYN011333   59009
0115827840999991987013000004-07317-039300FM-12+040999999V0203601N00051220001CN9999999N9+02301+01651101171ADDAA106000091AG10999GF100991001001999999001001KA1240M+03401MA1999999096511MD1999999-0061REMSYN017333   10340 59006
0115827840999991987013012004-07317-039300FM-12+040999999V0203601N00151007501CN0200001N9+02621+01981101391ADDAA106000091AG10999GF106991061021008001001001KA1240N+02071MA1999999096721MD1999999-0061REMSYN017333   20207 59006
0096827840999991987013018004-07317-039300FM-12+040999999V0200901N00051012001CN0200001N9+03201+01551100911ADDAA106000091AG10999GF107991071081008001001001MA1999999096291MD1999999-0071REMSYN011333   59007
0115827840999991987013100004-07317-039300FM-12+040999999V0209991C00001007501CN9999999N9+02671+01781101131ADDAA106000091AG10999GF108991081071008001999999KA1240M+03291MA1999999096491MD1999999-0021REMSYN017333   10329 59002
0115827840999991987013112004-07317-039300FM-12+040999999V0200501N00151007501CN0200001N9+02541+02001101461ADDAA106000091AG10001GF108991061051008001071999KA1240N+02301MA1999999096801MD1999999+0081REMSYN017333   20230 58008
0115827840999991987020100004-07317-039300FM-12+040999999V0201801N00101220001CN9999999N9+02481+01701101121ADDAA106000091AG10999GF100991001001999999001001KA1240M+03301MA1999999096461MD1999999-0031REMSYN017333   10330 59003
0115827840999991987020112004-07317-039300FM-12+040999999V0200901N00361220001CN0200001N9+02801+01841101431ADDAA106000091AG10999GF102991021021008001001001KA1240N+02241MA1999999096771MD1999999-0031REMSYN017333   20224 59003
0096827840999991987020118004-07317-039300FM-12+040999999V0200901N00411045001CN0200001N9+03501+01431100901ADDAA106000091AG10999GF107991031021012501011001MA1999999096301MD1999999-0031REMSYN011333   59003
0115827840999991987020200004-07317-039300FM-12+040999999V0209991C00001220001CN9999999N9+02461+01681101141ADDAA106000091AG10999GF100991001001999999001001KA1240M+03511MA1999999096501MD1999999+0041REMSYN017333   10351 58004
0115827840999991987020212004-07317-039300FM-12+040999999V0200901N00311045001CN0200001N9+02701+01661101491ADDAA106000091AG10999GF105991021011008001011001KA1240N+01971MA1999999096831MD1999999+0061REMSYN017333   20197 58006
0096827840999991987020218004-07317-039300FM-12+040999999V0200901N00311220001CN0200001N9+03401+01541100971ADDAA106000091AG10999GF103991031021008001001001MA1999999096361MD1999999+0061REMSYN011333   58006
0115827840999991987020300004-07317-039300FM-12+040999999V0201801N00311220001CN9999999N9+02471+01781101181ADDAA106000091AG10999GF100991001001999999001001KA1240M+03451MA1999999096531MD1999999+0031REMSYN017333   10345 58003
0115827840999991987020312004-07317-039300FM-12+040999999V0200901N00311220001CN0200001N9+02741+01841101261ADDAA106000091AG10999GF103991011011008001011001KA1240N+02241MA1999999096611MD1999999-0221REMSYN017333   20224 59022
0115827840999991987020400004-07317-039300FM-12+040999999V0201801N00101012001CN9999999N9+02731+02511101031ADDAA106000091AG10999GF107991071081008001001001KA1240M+03581MA1999999096401MD1999999-0181REMSYN017333   10358 59018
0115827840999991987020412004-07317-039300FM-12+040999999V0200901N00261220001CN0200001N9+02821+01791101391ADDAA106000091AG10999GF101991011011008001001001KA1240N+01911MA1999999096751MD1999999+0141REMSYN017333   20191 58014
0131827840999991987020418004-07317-039300FM-12+040999999V0200501N00311220001CN0200001N9+03551+01201999999ADDAA106000091AG10999GF103991999021008001001001MA1999999096201MD1999999+0051REMSYN011333   58005EQDQ01+000022SCOTLCQ02+100103APOSLP
0115827840999991987020500004-07317-039300FM-12+040999999V0202701N00101220001CN9999999N9+02361+01351101001ADDAA106000091AG10999GF100991001001999999001001KA1240M+03601MA1999999096381MD1999999-0021REMSYN017333   10360 59002
0115827840999991987020512004-07317-039300FM-12+040999999V0200501N00211220001CN0200001N9+02781+01761101431ADDAA106000091AG10999GF101991011011008001001001KA1240N+01861MA1999999096761MD1999999+0011REMSYN017333   20186 58001
0096827840999991987020518004-07317-039300FM-12+040999999V0200501N00261220001CN0200001N9+03471+01471100821ADDAA106000091AG10999GF104991041021012501001001MA1999999096211MD1999999+0011REMSYN011333   58001
0115827840999991987020600004-07317-039300FM-12+040999999V0200501N00311007501CN9999999N9+02491+01771101261ADDAA106000091AG10999GF108991081071008001999999KA1240M+03541MA1999999096611MD1999999+0231REMSYN017333   10354 58023
0115827840999991987020612004-07317-039300FM-12+040999999V0200501N00151220001CN0200001N9+02801+01751101351ADDAA106000091AG10999GF101991011001017501011001KA1240N+01871MA1999999096701MD1999999-0061REMSYN017333   20187 59006
0096827840999991987020618004-07317-039300FM-12+040999999V0203601N00101220001CN0200001N9+03481+01611100821ADDAA106000091AG10999GF104991041021008001001001MA1999999096211MD1999999+0001REMSYN011333   58000
0137827840999991987020700004-07317-039300FM-12+040999999V0201401N00361007501CN9999999N9+02771+01641101121ADDAA106000091AG10999AY131061AY231061GF108991081071008001999999KA1240M+03511MA1999999096491MD1999999-0121MW1291REMSYN017333   10351 59012
0115827840999991987020712004-07317-039300FM-12+040999999V0200501N00311220001CN0200001N9+02691+01941101341ADDAA106000091AG10999GF102991021011008001001001KA1240N+02121MA1999999096701MD1999999+0001REMSYN017333   20212 58000
0096827840999991987020718004-07317-039300FM-12+040999999V0200501N00211012001CN0200001N9+03441+01631100841ADDAA106000091AG10999GF106991061081008001001001MA1999999096231MD1999999+0021REMSYN011333   58002
0096827840999991987020818004-07317-039300FM-12+040999999V0203601N00311220001CN0200001N9+03161+01991101011ADDAA106000091AG10999GF104991041081012501001001MA1999999096371MD1999999+0141REMSYN011333   58014
0154827840999991987020900004-07317-039300FM-12+040999999V0209991C00001045001CN9999999N9+02331+02241101361ADDAA106000991AA299001091AG10999AY161061AY221061GF106991021081008001071001KA1240M+03201MA1999999096691MD1999999-0261MW1021REMSYN023333   10320 59026 69991
0162827840999991987020912004-07317-039300FM-12+040999999V0201801N00051220001CN0200001N9+02481+02031101551ADDAA124002091AG10999AY161061AY211061GF102991011021008001011001KA1240N+01971MA1999999999999MD1999999+0081MW1011REMSYN023333   20197 58008 60024EQDQ01 098863APOSP 
0131827840999991987020918004-07317-039300FM-12+040999999V02099999999999999999N0200001N9+03021+01891101101ADDAA106000091AG10999GA1091+999999999GF109991041021008001011001MA1999999096452MD1999999+0081REMSYN011333   58008EQDQ01+096453APOSP 
0156827840999991987021000004-07317-039300FM-12+040999999V0209991C00001007501CN9999999N9+02401+02211101321ADDAA106000091AG10999AY181061AY231061GF108991999051008001051999KA1240M+03111MA1999999096651MD1999999-0041MW1021REMSYN017333   10311 59004EQDQ01+000082SCOTLC
0143827840999991987021012004-07317-039300FM-12+040999999V0200501N00211012001CN0200001N9+02521+02001101531ADDAA124047091AG10999AY161061AY221061GF106991051081008001031001KA1240N+02011MA1999999096851MD1999999-0011MW1021REMSYN023333   20201 59001 60474
0096827840999991987021118004-07317-039300FM-12+040999999V0200501N00211045001CN0200001N9+03061+01991100961ADDAA106000091AG10999GF107991041021008001061001MA1999999096331MD1999999-0151REMSYN011333   59015
0115827840999991987021200004-07317-039300FM-12+040999999V0201801N00101045001CN9999999N9+02361+02131101221ADDAA106000091AG10999GF107991011051008001071001KA1240M+03101MA1999999096551MD1999999-0141REMSYN017333   10310 59014
0137827840999991987021300004-07317-039300FM-12+040999999V0209991C00001220001CN9999999N9+02351+02221101081ADDAA106000091AG10999AY181061AY211061GF100991001001999999001001KA1240M+03061MA1999999096421MD1999999-0131MW1001REMSYN017333   10306 59013
0129827840999991987021312004-07317-039300FM-12+040999999V0200501N00101012001CN0040001N9+02351+02131101411ADDAA124047091AG10999AY161061AY221061GF108991081081008001999999KA1240N+02011MA1999999096731MW1021REMSYN023333   20201 580// 60474
0096827840999991987021318004-07317-039300FM-12+040999999V0200901N00151015001CN0200001N9+03021+02031100911ADDAA106000091AG10001GF108991071081012501021999MA1999999096271MD1999999+0021REMSYN011333   58002
0137827840999991987021400004-07317-039300FM-12+040999999V0200901N00101007501CN9999999N9+02361+02241101261ADDAA106000091AG10999AY181061AY231061GF108991061051008001071999KA1240M+03081MA1999999096581MD1999999+0161MW1131REMSYN017333   10308 58016
0129827840999991987021412004-07317-039300FM-12+040999999V0203201N00051004201CN0040001N9+02421+02231101411ADDAA124006091AG10999AY161061AY231061GF108991081071004501999999KA1240N+02201MA1999999096731MW1021REMSYN023333   20220 58/// 60064
0096827840999991987021418004-07317-039300FM-12+040999999V0203601N00101012001CN0200001N9+02741+02171101091ADDAA106000091AG10999GF108991081081008001999999MA1999999096441MD1999999+0171REMSYN011333   58017
0137827840999991987021500004-07317-039300FM-12+040999999V0202701N00101220001CN9999999N9+02301+02181101251ADDAA106000091AG10999AY181061AY221061GF104991041001017501051001KA1240M+02811MA1999999096571MD1999999-0011MW1011REMSYN017333   10281 59001
0115827840999991987021512004-07317-039300FM-12+040999999V0200901N00051012001CN0200001N9+02571+02121101301ADDAA106000091AG10999GF108991081081008001999999KA1240N+02171MA1999999096631MD1999999-0101REMSYN017333   20217 59010
0096827840999991987021518004-07317-039300FM-12+040999999V0201801N00311220001CN0200001N9+03121+01791100911ADDAA106000091AG10999GF102991021091012501021001MA1999999096281MD1999999-0161REMSYN011333   59016
0115827840999991987021600004-07317-039300FM-12+040999999V0201401N00051220001CN9999999N9+02471+02091101131ADDAA106000091AG10999GF103991031081008001001001KA1240M+03191MA1999999096471MD1999999-0101REMSYN017333   10319 59010
0129827840999991987021612004-07317-039300FM-12+040999999V0201401N00151220001CN0200001N9+02671+01821101271ADDAA124001091AG10999AY161061AY211061GF102991011021008001071001KA1240N+02301MA1999999096611MW1011REMSYN023333   20230 52002 60014
0096827840999991987021618004-07317-039300FM-12+040999999V0200901N00211220001CN0200001N9+03091+01781100901ADDAA106000091AG10999GF102991011021008001011001MA1999999096281MD1999999+0001REMSYN011333   58000
0115827840999991987021700004-07317-039300FM-12+040999999V0201801N00211220001CN9999999N9+02361+01891101051ADDAA106000091AG10999GF100991001001999999001001KA1240M+03131MA1999999096401MD1999999-0071REMSYN017333   10313 59007
0115827840999991987021712004-07317-039300FM-12+040999999V0200501N00151012001CN0040001N9+02461+02211101291ADDAA106000091AG10999GF108991081081008001999999KA1240N+02181MA1999999096621MD1999999+0011REMSYN017333   20218 58001
0124827840999991987021718004-07317-039300FM-12+040999999V0203601N00311007501CN0200001N9+02851+02231100921ADDAA106000591AG10999AY161061AY231061GF108991071071008001071999MA1999999096281MD1999999+0001MW1021REMSYN017333   58000 69951
0143827840999991987021800004-07317-039300FM-12+040999999V0201801N00101220001CN9999999N9+02361+02281101271ADDAA106002091AG10999AY161061AY231061GF101991011051008001001001KA1240M+03041MA1999999096601MD1999999+0201MW1011REMSYN023333   10304 58020 60021
0143827840999991987021812004-07317-039300FM-12+040999999V0200501N00051004201CN0040001N9+02381+02151101501ADDAA124003091AG10999AY161061AY221061GF108991081071004501999999KA1240N+02221MA1999999096811MD1999999+0191MW1021REMSYN023333   20222 58019 60034
0096827840999991987021818004-07317-039300FM-12+040999999V0200501N00211045001CN0200001N9+03071+02081101011ADDAA106000091AG10999GF105991041021008001011001MA1999999096381MD1999999+0101REMSYN011333   58010
0115827840999991987021900004-07317-039300FM-12+040999999V0200901N00051220001CN9999999N9+02551+02351101301ADDAA106000091AG10999GF100991001001999999001001KA1240M+03161MA1999999096631MD1999999+0031REMSYN017333   10316 58003
0140827840999991987021912004-07317-039300FM-12+040999999V0200901N00261012001CN0200001N9+02541+02041101481ADDAA124009091AG10999GF108991081081008001999999KA1240N+99999MA1999999096811MD1999999+0001REMSYN023333   20288 58000 60094EQDQ01 +02882ATMN  
0096827840999991987021918004-07317-039300FM-12+040999999V0200901N00151220001CN0200001N9+03101+02001101011ADDAA106000091AG10999GF102991021021008001001001MA1999999096361MD1999999-0021REMSYN011333   59002
0137827840999991987022000004-07317-039300FM-12+040999999V0200501N00461007501CN9999999N9+02301+01871101241ADDAA106000091AG10999AY111061AY211061GF108991081071008001999999KA1240M+03141MA1999999096571MD1999999+0041MW1291REMSYN017333   10314 58004
0143827840999991987022012004-07317-039300FM-12+040999999V0200901N00311220001CN0200001N9+02681+01921101341ADDAA124001091AG10999AY161061AY211061GF102991021021008001001001KA1240N+02041MA1999999096671MD1999999-0141MW1011REMSYN023333   20204 59014 60014
0096827840999991987022018004-07317-039300FM-12+040999999V0200901N00311220001CN0200001N9+03041+01821100911ADDAA106000091AG10999GF103991031021008001001001MA1999999096271MD1999999-0011REMSYN011333   59001
0115827840999991987022112004-07317-039300FM-12+040999999V0201801N00311220001CN0200001N9+02631+01781101261ADDAA106000091AG10999GF101991011021008001001001KA1240N+02231MA1999999096601MD1999999-0071REMSYN017333   20223 59007
0096827840999991987022118004-07317-039300FM-12+040999999V0200901N00311220001CN0200001N9+03061+01831100851ADDAA106000091AG10999GF104991041021008001001001MA1999999096231MD1999999-0041REMSYN011333   59004
0115827840999991987022200004-07317-039300FM-12+040999999V0209991C00001012001CN9999999N9+02421+02051101111ADDAA106000091AG10999GF108991081081008001999999KA1240M+03111MA1999999096451MD1999999+0101REMSYN017333   10311 58010
0115827840999991987022212004-07317-039300FM-12+040999999V0200901N00311012001CN0200001N9+02761+02041101321ADDAA106000091AG10999GF108991081081008001999999KA1240N+02281MA1999999096661MD1999999+0061REMSYN017333   20228 58006
0096827840999991987022218004-07317-039300FM-12+040999999V0200901N00211220001CN0200001N9+03061+01961101051ADDAA106000091AG10999GF104991031021012501071001MA1999999096421MD1999999+0191REMSYN011333   58019
0143827840999991987022312004-07317-039300FM-12+040999999V0200501N00101009001CN0200001N9+02621+02231101511ADDAA124013091AG10999AY161061AY231061GF108991071081004501031011KA1240N+02241MA1999999096841MD1999999+0181MW1031REMSYN023333   20224 58018 60134
0096827840999991987022318004-07317-039300FM-12+040999999V0200901N00211220001CN0200001N9+03061+02141100961ADDAA106000091AG10999GF104991041081008001021999MA1999999096331MD1999999-0091REMSYN011333   59009
0143827840999991987022400004-07317-039300FM-12+040999999V0202701N00051012001CN9999999N9+02301+02181101231ADDAA106003091AG10999AY161061AY231061GF108991081081008001999999KA1240M+03151MA1999999096561MD1999999+0011MW1021REMSYN023333   10315 58001 60031
0143827840999991987022412004-07317-039300FM-12+040999999V0200501N00211045001CN0200001N9+02661+02181101351ADDAA124006091AG10999AY161061AY221061GF105991041081008001041001KA1240N+02221MA1999999096681MD1999999-0161MW1011REMSYN023333   20222 59016 60064
0096827840999991987022418004-07317-039300FM-12+040999999V0200501N00411220001CN0200001N9+03141+01791100931ADDAA106000091AG10999GF104991031021008001071001MA1999999096311MD1999999-0021REMSYN011333   59002
0137827840999991987022500004-07317-039300FM-12+040999999V0209991C00001220001CN9999999N9+02341+02071101191ADDAA106000091AG10999AY181061AY211061GF100991001001999999001001KA1240M+03191MA1999999096531MD1999999-0031MW1001REMSYN017333   10319 59003
0115827840999991987022512004-07317-039300FM-12+040999999V0200901N00211220001CN0200001N9+02761+02071101371ADDAA106000091AG10999GF103991021021008001031001KA1240N+02121MA1999999096711MD1999999+0031REMSYN017333   20212 58003
0096827840999991987022518004-07317-039300FM-12+040999999V0200901N00151007501CN0200001N9+03221+01881100971ADDAA106000091AG10999GF108991051021008001011999MA1999999096341MD1999999+0031REMSYN011333   58003
0115827840999991987022600004-07317-039300FM-12+040999999V0209991C00001220001CN9999999N9+02441+02111101181ADDAA106000091AG10999GF100991001001999999001001KA1240M+03251MA1999999096531MD1999999+0001REMSYN017333   10325 58000
0115827840999991987022612004-07317-039300FM-12+040999999V0200501N00261220001CN0200001N9+02631+01931101461ADDAA106000091AG10999GF103991011021008001031001KA1240N+02021MA1999999096791MD1999999+0081REMSYN017333   20202 58008
0096827840999991987022618004-07317-039300FM-12+040999999V0200501N00261220001CN0200001N9+03261+01641101071ADDAA106000091AG10999GF104991021021008001021001MA1999999096441MD1999999+0101REMSYN011333   58010
0115827840999991987022700004-07317-039300FM-12+040999999V0202701N00101220001CN9999999N9+02341+01951101221ADDAA106000091AG10999GF100991001001999999001001KA1240M+03301MA1999999096561MD1999999+0031REMSYN017333   10330 58003
0115827840999991987022712004-07317-039300FM-12+040999999V0200501N00311220001CN0200001N9+02731+02001101491ADDAA106000091AG10999GF102991021021008001001001KA1240N+02061MA1999999096821MD1999999+0031REMSYN017333   20206 58003
0096827840999991987022718004-07317-039300FM-12+040999999V0200901N00211012001CN0200001N9+03341+01581100921ADDAA106000091AG10999GF107991071021012501001001MA1999999096311MD1999999-0131REMSYN011333   59013
0115827840999991987022800004-07317-039300FM-12+040999999V0202301N00101007501CN9999999N9+02731+02121101121ADDAA106000091AG10999GF108991081071008001999999KA1240M+03381MA1999999096421MD1999999-0071REMSYN017333   10338 59007
0115827840999991987022812004-07317-039300FM-12+040999999V0200901N00261220001CN0200001N9+02701+01881101321ADDAA106000091AG10999GF101991011011008001001001KA1240N+02221MA1999999096671MD1999999-0051REMSYN017333   20222 59005
0096827840999991987022818004-07317-039300FM-12+040999999V0200501N00211220001CN0200001N9+03241+01751100871ADDAA106000091AG10999GF102991021021008001001001MA1999999096261MD1999999-0051REMSYN011333   59005
0115827840999991987030100004-07317-039300FM-12+040999999V0201801N00051220001CN9999999N9+02341+01871101061ADDAA106000091AG10999GF100991001001999999001001KA1240M+03371MA1999999096401MD1999999-0091REMSYN017333   10337 59009
0115827840999991987030112004-07317-039300FM-12+040999999V0200901N00211012001CN0200001N9+02741+02021101241ADDAA106000091AG10999GF107991061081008001071001KA1240N+02131MA1999999096581MD1999999-0091REMSYN017333   20213 59009
0096827840999991987030118004-07317-039300FM-12+040999999V0200501N00101015001CN0200001N9+03311+01931100761ADDAA106000091AG10999GF108991061081012501071999MA1999999096151MD1999999-0111REMSYN011333   59011
0115827840999991987030200004-07317-039300FM-12+040999999V0209991C00001220001CN9999999N9+02531+02091100991ADDAA106000091AG10999GF103991031071008001001001KA1240M+03371MA1999999096351MD1999999-0051REMSYN017333   10337 59005
0115827840999991987030212004-07317-039300FM-12+040999999V0200901N00151007501CN0200001N9+02641+02161101181ADDAA106000091AG10999GF108991081051008001999999KA1240N+02381MA1999999096531MD1999999-0051REMSYN017333   20238 59005
0096827840999991987030218004-07317-039300FM-12+040999999V0201401N00101012001CN0200001N9+03101+02091100851ADDAA106000091AG10999GF108991081081008001999999MA1999999096241MD1999999+0091REMSYN011333   58009
0143827840999991987030300004-07317-039300FM-12+040999999V0203601N00101220001CN9999999N9+02141+02061101201ADDAA106010091AG10999AY161061AY221061GF100991001001999999001001KA1240M+03131MA1999999096531MD1999999+0181MW1001REMSYN023333   10313 58018 60101
0096827840999991987030318004-07317-039300FM-12+040999999V0203601N00101045001CN0200001N9+02821+02121100971ADDAA106000091AG10999GF106991011051008001071001MA1999999096311MD1999999+0071REMSYN011333   58007
0137827840999991987030400004-07317-039300FM-12+040999999V0209991C00001220001CN9999999N9+02221+02101101151ADDAA106000091AG10999AY181061AY211061GF101991011081008001001001KA1240M+02881MA1999999096471MD1999999-0061MW1001REMSYN017333   10288 59006
0115827840999991987030412004-07317-039300FM-12+040999999V0201401N00101007501CN0200001N9+02371+01991101421ADDAA106000091AG10999GF108991081051008001999999KA1240N+02151MA1999999096741MD1999999+0071REMSYN017333   20215 58007
0096827840999991987030418004-07317-039300FM-12+040999999V0203601N00211004201CN0200001N9+02381+02071101171ADDAA106000091AG10999GF108991081071004501999999MA1999999096501MD1999999+0191REMSYN011333   58019
0137827840999991987030500004-07317-039300FM-12+040999999V0201801N00101220001CN9999999N9+02251+02181101281ADDAA106000091AG10999AY181061AY221061GF102991021071008001001001KA1240M+02731MA1999999096601MD1999999-0131MW1011REMSYN017333   10273 59013
0143827840999991987030512004-07317-039300FM-12+040999999V0200501N00151012001CN0200001N9+02541+02091101381ADDAA124000391AG10999AY161061AY221061GF108991061081008001031999KA1240N+02131MA1999999096701MD1999999-0041MW1031REMSYN023333   20213 59004 69934
0096827840999991987030518004-07317-039300FM-12+040999999V0200501N00461012001CN0200001N9+02921+01931100931ADDAA106000091AG10999GF107991061061012501071001MA1999999096291MD1999999-0211REMSYN011333   59021
0115827840999991987030600004-07317-039300FM-12+040999999V0202701N00101007501CN9999999N9+02421+02171101191ADDAA106000091AG10999GF108991071071008001051999KA1240M+03001MA1999999096531MD1999999-0071REMSYN017333   10300 59007
0115827840999991987030612004-07317-039300FM-12+040999999V0200501N00151012001CN0200001N9+02561+02081101271ADDAA106000091AG10999GF108991061081008001031999KA1240N+02251MA1999999096611MD1999999-0091REMSYN017333   20225 59009
0096827840999991987030618004-07317-039300FM-12+040999999V0200501N00261220001CN0200001N9+02981+01921100861ADDAA106000091AG10999GF104991041021008001001001MA1999999096231MD1999999-0061REMSYN011333   59006
0115827840999991987030712004-07317-039300FM-12+040999999V0200501N00151007501CN0200001N9+02621+02141101241ADDAA106000091AG10999GF106991061021008001001001KA1240N+02221MA1999999096581MD1999999-0031REMSYN017333   20222 59003
0096827840999991987030718004-07317-039300FM-12+040999999V0200501N00261220001CN0200001N9+03141+01941100891ADDAA106000091AG10999GF104991021021008001071001MA1999999096251MD1999999+0021REMSYN011333   58002
0115827840999991987030800004-07317-039300FM-12+040999999V0202301N00101220001CN9999999N9+02341+02001101031ADDAA106000091AG10999GF102991021061008001001001KA1240M+03181MA1999999096381MD1999999-0041REMSYN017333   10318 59004
0115827840999991987030812004-07317-039300FM-12+040999999V0200901N00101012001CN0200001N9+02711+02101101151ADDAA106000091AG10999GF108991081081008001999999KA1240N+02161MA1999999096501MD1999999-0061REMSYN017333   20216 59006
0096827840999991987030818004-07317-039300FM-12+040999999V0203601N00151015001CN0200001N9+03221+02011100661ADDAA106000091AG10999GF108991071081012501071999MA1999999096051MD1999999-0201REMSYN011333   59020
0143827840999991987030900004-07317-039300FM-12+040999999V0202301N00051045001CN9999999N9+02411+02321100951ADDAA106012091AG10999AY161061AY231061GF108991031051008001021999KA1240M+03241MA1999999096311MD1999999-0071MW1021REMSYN023333   10324 59007 60121
0143827840999991987030912004-07317-039300FM-12+040999999V0203201N00151004201CN0040001N9+02441+02111101281ADDAA124017091AG10999AY161061AY231061GF108991081071004501999999KA1240N+02281MA1999999096611MD1999999+0111MW1021REMSYN023333   20228 58011 60174
0096827840999991987030918004-07317-039300FM-12+040999999V0201401N00261007501CN0200001N9+02691+02171101001ADDAA106000091AG10999GF108991081071008001999999MA1999999096351MD1999999+0201REMSYN011333   58020
0137827840999991987031000004-07317-039300FM-12+040999999V0202701N00211007501CN9999999N9+02381+02151101261ADDAA106000091AG10999AY181061AY231061GF108991071061008001051999KA1240M+02751MA1999999096591MD1999999+0281MW1021REMSYN017333   10275 58028
0115827840999991987031012004-07317-039300FM-12+040999999V0203601N00101007501CN0200001N9+02501+02111101401ADDAA106000091AG10999GF108991081051008001999999KA1240N+02171MA1999999096741MD1999999+0121REMSYN017333   20217 58012
0124827840999991987031018004-07317-039300FM-12+040999999V0202701N00211009001CN0200001N9+02721+02191100951ADDAA106002091AG10999AY161061AY231061GF108991081081004501999999MA1999999096301MD1999999-0051MW1211REMSYN017333   59005 60021
0115827840999991987031100004-07317-039300FM-12+040999999V0202301N00101007501CN9999999N9+02461+02211101241ADDAA106000091AG10999GF108991081051008001999999KA1240M+03041MA1999999096581MD1999999-0021REMSYN017333   10304 59002
0121827840999991987031112004-07317-039300FM-12+040999999V0200501N00101007501CN0200001N9+02461+02111101401ADDAA124002091AG10999GF108991081051008001999999KA1240N+02281MA1999999096731MD1999999+0001REMSYN023333   20228 58000 60024
0096827840999991987031118004-07317-039300FM-12+040999999V0200901N00101012001CN0200001N9+03041+02091100851ADDAA106000091AG10999GF108991081081008001999999MA1999999096231MD1999999-0071REMSYN011333   59007
0143827840999991987031200004-07317-039300FM-12+040999999V0202701N00101007501CN9999999N9+02301+02231101271ADDAA106007091AG10999AY161061AY261061GF108991081051008001999999KA1240M+03061MA1999999096601MD1999999+0021MW1211REMSYN023333   10306 58002 60071
0143827840999991987031212004-07317-039300FM-12+040999999V0201401N00101007501CN0200001N9+02401+02071101361ADDAA124007091AG10999AY161061AY231061GF108991081061008001999999KA1240N+02121MA1999999096681MD1999999-0051MW1021REMSYN023333   20212 59005 60074
0096827840999991987031218004-07317-039300FM-12+040999999V0201801N00101045001CN0200001N9+02901+01901100901ADDAA106000091AG10001GF107991031081008001051001MA1999999096261MD1999999+0031REMSYN011333   58003
0137827840999991987031300004-07317-039300FM-12+040999999V0209991C00001015001CN9999999N9+02311+02141101191ADDAA106000091AG10999AY181061AY231061GF108991081001017501031999KA1240M+02951MA1999999096521MD1999999-0081MW1021REMSYN017333   10295 59008
0143827840999991987031312004-07317-039300FM-12+040999999V0203601N00101012001CN0040001N9+02261+02071101371ADDAA124019091AG10999AY161061AY231061GF108991081081008001999999KA1240N+02071MA1999999096681MD1999999+0001MW1021REMSYN023333   20207 58000 60194
0124827840999991987031318004-07317-039300FM-12+040999999V0202301N00311007501CN0040001N9+02401+02151100861ADDAA106001091AG10999AY161061AY231061GF108991071071008001071999MA1999999096191MD1999999-0071MW1021REMSYN017333   59007 60011
0137827840999991987031400004-07317-039300FM-12+040999999V0202301N00101220001CN9999999N9+02231+02161101291ADDAA106000091AG10999AY181061AY221061GF102991021041008001001001KA1240M+02811MA1999999096501MD1999999-0021MW1011REMSYN017333   10281 59002
0121827840999991987031412004-07317-039300FM-12+040999999V0203201N00051220001CN0200001N9+02501+01981101371ADDAA124006091AG10999GF103991011021008001061001KA1240N+02061MA1999999096691MD1999999+0011REMSYN023333   20206 58001 60064
0096827840999991987031418004-07317-039300FM-12+040999999V0200501N00051012001CN0200001N9+99999+99999100931ADDAA106000091AG10999GF107991071081008001001001MA1999999096281MD1999999+0091REMSYN011333   58009
0115827840999991987031500004-07317-039300FM-12+040999999V0201401N00151045001CN9999999N9+02441+02071101421ADDAA106000091AG10999GF108991021051008001021061KA1240M+03031MA1999999096741MD1999999+0241REMSYN017333   10303 58024
0096827840999991987031518004-07317-039300FM-12+040999999V0200501N00311007501CN0200001N9+02871+02071101051ADDAA106000091AG10999GF108991071071008001021999MA1999999096401MD1999999-0121REMSYN011333   59012
0143827840999991987031600004-07317-039300FM-12+040999999V0200501N00361004201CN0100001N9+02291+02181101491ADDAA106001091AG10999AY131061AY231061GF108991071051004501021999KA1240M+03011MA1999999096811MD1999999+0071MW1611REMSYN023333   10301 58007 60011
0143827840999991987031612004-07317-039300FM-12+040999999V0200501N00151012001CN0040001N9+02401+02191101561ADDAA124007091AG10999AY161061AY231061GF106991061081008001001001KA1240N+02181MA1999999096871MD1999999+0051MW1021REMSYN023333   20218 58005 60074
0096827840999991987031618004-07317-039300FM-12+040999999V0201401N00151012001CN0200001N9+02921+02091101071ADDAA106000091AG10999GF106991061081008001001001MA1999999096431MD1999999+0031REMSYN011333   58003
0115827840999991987031700004-07317-039300FM-12+040999999V0200901N00051007501CN9999999N9+02451+02211101281ADDAA106000091AG10999GF108991081071008001999999KA1240M+02981MA1999999096611MD1999999-0201REMSYN017333   10298 59020
0143827840999991987031712004-07317-039300FM-12+040999999V0200901N00261012001CN0200001N9+02621+02071101311ADDAA124001091AG10999AY161061AY221061GF106991051081008001061001KA1240N+02211MA1999999096651MD1999999-0221MW1021REMSYN023333   20221 59022 60014
0096827840999991987031718004-07317-039300FM-12+040999999V0200501N00261012001CN0200001N9+03131+02101100791ADDAA106000091AG10999GF107991071081008001001001MA1999999096171MD1999999-0261REMSYN011333   59026
0115827840999991987031800004-07317-039300FM-12+040999999V0201401N00101045001CN9999999N9+02361+02171101051ADDAA106000091AG10999GF108991011051008001021999KA1240M+03051MA1999999096401MD1999999-0211REMSYN017333   10305 59021
0115827840999991987031812004-07317-039300FM-12+040999999V0200901N00411007501CN0200001N9+02741+01971101231ADDAA106000091AG10999GF106991061021008001001001KA1240N+02121MA1999999096571MD1999999-0081REMSYN017333   20212 59008
0096827840999991987031818004-07317-039300FM-12+040999999V0200901N00261012001CN0200001N9+02921+02011100911ADDAA106000091AG10999GF106991061081008001001001MA1999999096271MD1999999+0101REMSYN011333   58010
0143827840999991987031900004-07317-039300FM-12+040999999V0203201N00051007501CN9999999N9+02361+02221101231ADDAA106002091AG10999AY161061AY221061GF108991081071008001999999KA1240M+02981MA1999999096571MD1999999+0171MW1021REMSYN023333   10298 58017 60021
0121827840999991987031912004-07317-039300FM-12+040999999V0200901N00211012001CN0200001N9+02691+02111101271ADDAA124002091AG10999GF107991071081008001001001KA1240N+02141MA1999999096611MD1999999+0041REMSYN023333   20214 58004 60024
0096827840999991987031918004-07317-039300FM-12+040999999V0200901N00211015001CN0200001N9+03091+02061100931ADDAA106000091AG10999GF108991071081012501011999MA1999999096301MD1999999+0031REMSYN011333   58003
0115827840999991987032000004-07317-039300FM-12+040999999V0202301N00101220001CN9999999N9+02341+02051101161ADDAA106000091AG10999GF100991001001999999001001KA1240M+03141MA1999999096501MD1999999+0031REMSYN017333   10314 58003
0143827840999991987032012004-07317-039300FM-12+040999999V0202701N00101004201CN0040001N9+02241+02161101511ADDAA124026091AG10999AY161061AY221061GF108991081071004501999999KA1240N+02141MA1999999096821MD1999999+0211MW1511REMSYN023333   20214 58021 60264
0096827840999991987032018004-07317-039300FM-12+040999999V0202301N00151045001CN0200001N9+02701+02201100991ADDAA106000091AG10999GF107991031081008001051001MA1999999096341MD1999999+0041REMSYN011333   58004
0137827840999991987032100004-07317-039300FM-12+040999999V0200501N00101007501CN9999999N9+02401+02301101121ADDAA106000091AG10999AY181061AY221061GF106991061021008001001001KA1240M+02931MA1999999096451MD1999999-0051MW1021REMSYN017333   10293 59005
0143827840999991987032112004-07317-039300FM-12+040999999V0203601N01031007501CN0040001N9+02481+02211101261ADDAA124005091AG10999AY161061AY221061GF108991081041008001999999KA1240N+02171MA1999999096591MD1999999-0231MW1021REMSYN023333   20217 59023 60054
0124827840999991987032118004-07317-039300FM-12+040999999V0202301N00101012001CN0200001N9+02661+02331100871ADDAA106000191AG10999AY161061AY231061GF108991081081008001999999MA1999999096221MD1999999-0121MW1021REMSYN017333   59012 69911
0115827840999991987032200004-07317-039300FM-12+040999999V0200501N00211007501CN9999999N9+02491+02171101241ADDAA106000091AG10999GF108991081071008001999999KA1240M+02801MA1999999096581MD1999999+0121REMSYN017333   10280 58012
0143827840999991987032212004-07317-039300FM-12+040999999V0201801N00101220001CN0200001N9+02541+02151101111ADDAA124054091AG10999AY161061AY261061GF104991041021008001001001KA1240N+02021MA1999999096451MD1999999-0141MW1011REMSYN023333   20202 59014 60544
0096827840999991987032218004-07317-039300FM-12+040999999V0203601N00211007501CN0200001N9+02901+02221100721ADDAA106000091AG10999GF108991081071008001999999MA1999999096081MD1999999-0141REMSYN011333   59014
0143827840999991987032312004-07317-039300FM-12+040999999V0200501N00151012001CN0200001N9+02561+02291101201ADDAA124009091AG10999AY161061AY221061GF108991061081008001031999KA1240N+02261MA1999999096541MD1999999+0091MW1021REMSYN023333   20226 58009 60094
0096827840999991987032318004-07317-039300FM-12+040999999V0200501N00211045001CN0200001N9+02961+02281100731ADDAA106000091AG10999GF108991041081008001021999MA1999999096111MD1999999+0031REMSYN011333   58003
0143827840999991987032400004-07317-039300FM-12+040999999V0203601N00051220001CN9999999N9+02381+02331101091ADDAA106010091AG10999AY161061AY211061GF102991021071008001001001KA1240M+03041MA1999999096431MD1999999+0081MW1011REMSYN023333   10304 58008 60101
0137827840999991987032500004-07317-039300FM-12+040999999V0203601N00051220001CN9999999N9+02321+02201101121ADDAA106000091AG10999AY181061AY201061GF100991001001999999001001KA1240M+03171MA1999999096461MD1999999+0031MW1001REMSYN017333   10317 58003
0134827840999991987032512004-07317-039300FM-12+040999999V0200501N00211007501CN0200001N9+02671+02431101221ADDAA106000091AG10999GF108991071071008001031999KA1240N+02411MA1999999999999MD1999999-0111REMSYN017333   20241 59011EQDQ01 099633APOSP 
0154827840999991987032518004-07317-039300FM-12+040999999V0202301N00051012001CN0200001N9+02841+02401100691ADDAA106000491AA299000591AG10999AY121061AY221061GF107991071081008001001001MA1999999096062MD1999999-0031MW1201REMSYN017333   59003 69941EQDQ01+096063APOSP 
0137827840999991987032600004-07317-039300FM-12+040999999V0209991C00001220001CN9999999N9+02321+02201101021ADDAA106000091AG10999AY181061AY201061GF100991001001999999001001KA1240M+02981MA1999999096361MD1999999-0101MW1001REMSYN017333   10298 59010
0132827840999991987032612004-07317-039300FM-12+040999999V0203201N00051007501CN0200001N9+02491+02191101071ADDAA124000491AA299000591AG10999GF108991081051008001999999KA1240N+02181MA1999999096411MD1999999-0091REMSYN023333   20218 59009 69944
0096827840999991987032618004-07317-039300FM-12+040999999V0203601N00101012001CN0200001N9+02861+02191100651ADDAA106000091AG10999GF108991081081008001999999MA1999999096021MD1999999-0041REMSYN011333   59004
0137827840999991987032700004-07317-039300FM-12+040999999V0200501N00101220001CN9999999N9+02341+02221100981ADDAA106000091AG10999AY181061AY201061GF100991001001999999001001KA1240M+02891MA1999999096341MD1999999-0021MW1001REMSYN017333   10289 59002
0115827840999991987032712004-07317-039300FM-12+040999999V0202701N00101045001CN0200001N9+02651+02031101161ADDAA106000091AG10999GF106991031081008001011001KA1240N+02161MA1999999096501MD1999999+0091REMSYN017333   20216 58009
0124827840999991987032718004-07317-039300FM-12+040999999V0203601N00311009001CN0020001N9+02701+02351100751ADDAA106000191AG10999AY121061AY221061GF108991081081004501999999MA1999999096101MD1999999+0081MW1511REMSYN017333   58008 69911
0121827840999991987032800004-07317-039300FM-12+040999999V0200501N00151007501CN0200001N9+02411+02151101201ADDAA124000191AG10999GF108991081051008001999999KA1240N+02221MA1999999096541MD1999999+0041REMSYN023333   20222 58004 69914
0121827840999991987032812004-07317-039300FM-12+040999999V0200501N00151007501CN0200001N9+02411+02151101201ADDAA124000191AG10999GF108991081051008001999999KA1240N+02221MA1999999096541MD1999999+0041REMSYN023333   20222 58004 69914
0096827840999991987032818004-07317-039300FM-12+040999999V0203601N00211007501CN0200001N9+03201+02071100701ADDAA106000091AG10999GF105991051021008001001001MA1999999096081MD1999999-0021REMSYN011333   59002
0115827840999991987032900004-07317-039300FM-12+040999999V0201401N00101045001CN9999999N9+02401+02241101141ADDAA106000091AG10999GF107991041071008001051001KA1240M+03101MA1999999096481MD1999999+0061REMSYN017333   10310 58006
0143827840999991987032912004-07317-039300FM-12+040999999V0200501N00101045001CN0200001N9+02391+02191101221ADDAA124035091AG10999AY161061AY231061GF108991031051008001021999KA1240N+02121MA1999999096551MD1999999-0011MW1021REMSYN023333   20212 59001 60354
0096827840999991987032918004-07317-039300FM-12+040999999V0203201N00051045001CN0200001N9+02911+02191100661ADDAA106000091AG10999GF108991031081008001021999MA1999999096031MD1999999-0051REMSYN011333   59005
0137827840999991987033000004-07317-039300FM-12+040999999V0201401N00051012001CN9999999N9+02381+02281101051ADDAA106000091AG10999AY181061AY231061GF108991081081008001999999KA1240M+02951MA1999999096391MD1999999-0091MW1021REMSYN017333   10295 59009
0143827840999991987033012004-07317-039300FM-12+040999999V0201401N00151004201CN0040001N9+02321+02181101241ADDAA124017091AG10999AY161061AY231061GF108991081071004501999999KA1240N+02081MA1999999096561MD1999999+0011MW1021REMSYN023333   20208 58001 60174
0096827840999991987033018004-07317-039300FM-12+040999999V0203601N00101045001CN0200001N9+02831+02221100731ADDAA106000091AG10001GF106991041021008001061001MA1999999096091MD1999999+0061REMSYN011333   58006
0137827840999991987033100004-07317-039300FM-12+040999999V0202301N00101220001CN9999999N9+02271+02161101011ADDAA106000091AG10999AY181061AY201061GF100991001001999999001001KA1240M+02911MA1999999096341MD1999999-0051MW1001REMSYN017333   10291 59005
0143827840999991987033112004-07317-039300FM-12+040999999V0201801N00101007501CN0040001N9+02221+02141101241ADDAA124024091AG10999AY161061AY221061GF108991081071008001999999KA1240N+02101MA1999999096551MD1999999-0011MW1211REMSYN023333   20210 59001 60244
0137827840999991987040100004-07317-039300FM-12+040999999V0209991C00001007501CN9999999N9+02361+02261101261ADDAA106000091AG10999AY181061AY231061GF108991081071008001999999KA1240M+02831MA1999999096581MD1999999+0141MW1131REMSYN017333   10283 58014
0143827840999991987040112004-07317-039300FM-12+040999999V0200501N00101012001CN0200001N9+02521+02151101411ADDAA124040091AG10999AY151061AY231061GF108991081081008001999999KA1240N+02121MA1999999096741MD1999999+0191MW1021REMSYN023333   20212 58019 60404
0124827840999991987040118004-07317-039300FM-12+040999999V0200901N00101012001CN0200001N9+02661+02371101061ADDAA106002091AG10999AY161061AY231061GF107991071081008001001001MA1999999096701MD1999999+0221MW1021REMSYN017333   58022 60021
0137827840999991987040200004-07317-039300FM-12+040999999V0200901N00051220001CN9999999N9+02261+02181101141ADDAA106000091AG10999AY181061AY221061GF100991001001999999001001KA1240M+02861MA1999999096471MD1999999-0411MW1001REMSYN017333   10286 59041
0140827840999991987040212004-07317-039300FM-12+040999999V0201401N00311220001CN0200001N9+02671+02041101291ADDAA124002091AG10999GF102991999011008001011001KA1240N+02121MA1999999096621MD1999999-0121REMSYN023333   20212 59012 60024EQDQ01+000002SCOTLC
0096827840999991987040218004-07317-039300FM-12+040999999V0200501N00261012001CN0200001N9+03001+02141100961ADDAA106000091AG10999GF108991081081008001999999MA1999999096321MD1999999-0081REMSYN011333   59008
0143827840999991987040300004-07317-039300FM-12+040999999V0202701N00101012001CN9999999N9+02401+02311101221ADDAA106003091AG10999AY161061AY231061GF107991071081008001001001KA1240M+03031MA1999999096561MD1999999+0091MW1021REMSYN023333   10303 58009 60031
0143827840999991987040312004-07317-039300FM-12+040999999V0200501N00211012001CN0200001N9+02641+02251101371ADDAA124005091AG10999AY161061AY221061GF108991061081008001031999KA1240N+02201MA1999999096701MD1999999+0081MW1021REMSYN023333   20220 58008 60054
0096827840999991987040318004-07317-039300FM-12+040999999V0200501N00211012001CN0200001N9+02941+02241100991ADDAA106000091AG10999GF108991081081008001999999MA1999999096351MD1999999+0021REMSYN011333   58002
0137827840999991987040400004-07317-039300FM-12+040999999V0201201N00101045001CN9999999N9+02321+02131101141ADDAA106000091AG10001AY181061AY231061GF107991021051008001011001KA1240M+03011MA1999999096481MD1999999-0081MW1021REMSYN017333   10301 59008
0115827840999991987040412004-07317-039300FM-12+040999999V0200501N00151012001CN0200001N9+02661+02041101281ADDAA106000091AG10999GF108991051081008001061999KA1240N+02141MA1999999096611MD1999999-0091REMSYN017333   20214 59009
0096827840999991987040418004-07317-039300FM-12+040999999V0200901N00211220001CN0200001N9+03121+01891100801ADDAA106000091AG10999GF103991021021008001071001MA1999999096171MD1999999-0181REMSYN011333   59018
0115827840999991987040500004-07317-039300FM-12+040999999V0203601N00051007501CN9999999N9+02501+02171101141ADDAA106000091AG10999GF108991081071008001999999KA1240M+03161MA1999999096491MD1999999+0011REMSYN017333   10316 58001
0115827840999991987040512004-07317-039300FM-12+040999999V0200901N00101007501CN0200001N9+02501+02171101301ADDAA106000091AG10999GF108991071051008001021999KA1240N+02121MA1999999096641MD1999999+0031REMSYN017333   20212 58003
0096827840999991987040518004-07317-039300FM-12+040999999V0200501N00211015001CN0200001N9+02831+02141100901ADDAA106000091AG10999GF108991071081012501071999MA1999999096251MD1999999+0081REMSYN011333   58008
0115827840999991987040600004-07317-039300FM-12+040999999V0209991C00001012001CN9999999N9+02381+02241101311ADDAA106000091AG10999GF108991081081008001999999KA1240M+02951MA1999999096641MD1999999+0151REMSYN017333   10295 58015
0115827840999991987040612004-07317-039300FM-12+040999999V0200501N00261012001CN0200001N9+02661+02161101531ADDAA106000091AG10999GF107991071081008001001001KA1240N+02281MA1999999096851MD1999999+0211REMSYN017333   20228 58021
0104827840999991987040618004-07317-039300FM-12+040999999V0200501N00261009001CN0020001N9+02921+02121101081ADDAA106000091AG10999AY121061AY221061GF106991061081004501001001MA1999999096441MW1161REMSYN011333   580/9
0143827840999991987040700004-07317-039300FM-12+040999999V0202301N00051220001CN9999999N9+02341+02221101401ADDAA106003091AG10999AY161061AY211061GF100991001001999999001001KA1240M+03091MA1999999096731MD1999999+0091MW1021REMSYN023333   10309 58009 60031
0121827840999991987040712004-07317-039300FM-12+040999999V0203601N00261220001CN0200001N9+02691+02131101631ADDAA124003091AG10999GF103991021021008001031001KA1240N+02131MA1999999096951MD1999999+0101REMSYN023333   20213 58010 60034
0135827840999991987040718004-07317-039300FM-12+040999999V0200901N00311012001CN0200001N9+03031+02021101161ADDAA106000891AA299001091AG10999AY161061AY221061GF106991061081008001001001MA1999999096511MD1999999+0071MW1011REMSYN017333   58007 69981
0137827840999991987040800004-07317-039300FM-12+040999999V0209991C00001220001CN9999999N9+02291+02051101371ADDAA106000091AG10999AY181061AY211061GF100991001001999999001001KA1240M+03071MA1999999096701MD1999999-0031MW1021REMSYN017333   10307 59003
0132827840999991987040812004-07317-039300FM-12+040999999V0200901N00361220001CN0200001N9+02701+01941101491ADDAA124000891AA299001091AG10999GF101991011011008001001001KA1240N+02021MA1999999096821MD1999999-0131REMSYN023333   20202 59013 69984
0096827840999991987040818004-07317-039300FM-12+040999999V0200501N00211007501CN0200001N9+03011+02051101081ADDAA106000091AG10999GF106991061021008001001001MA1999999096441MD1999999-0071REMSYN011333   59007
0115827840999991987040900004-07317-039300FM-12+040999999V0200501N00051012001CN9999999N9+02441+02231101341ADDAA106000091AG10999GF108991081081008001999999KA1240M+03111MA1999999096681MD1999999+0021REMSYN017333   10311 58002
0143827840999991987040912004-07317-039300FM-12+040999999V0200901N00311012001CN0200001N9+02621+02141101421ADDAA124020091AG10999AY161061AY231061GF108991081081008001999999KA1240N+02141MA1999999096751MD1999999-0071MW1021REMSYN023333   20214 59007 60204
0096827840999991987040918004-07317-039300FM-12+040999999V0200501N00151045001CN0200001N9+02921+02191100891ADDAA106000091AG10999GF106991031021008001021001MA1999999096251MD1999999-0191REMSYN011333   59019
0143827840999991987041000004-07317-039300FM-12+040999999V0202701N00151045001CN0100001N9+02331+02291101211ADDAA106014091AG10999AY161061AY261061GF108991031051004501021999KA1240M+02991MA1999999096551MD1999999-0131MW1611REMSYN023333   10299 59013 60141
0096827840999991987041018004-07317-039300FM-12+040999999V0203601N00211220001CN0200001N9+03001+02241100731ADDAA106000091AG10999GF104991031081012501071001MA1999999096101MD1999999-0151REMSYN011333   59015
0143827840999991987041100004-07317-039300FM-12+040999999V0200501N00311045001CN0040001N9+02251+02191101271ADDAA106004091AG10999AY161061AY231061GF108991021051004501021999KA1240M+03041MA1999999096601MD1999999+0051MW1631REMSYN023333   10304 58005 60041
0143827840999991987041112004-07317-039300FM-12+040999999V0200901N00311012001CN0200001N9+02691+02161101291ADDAA124010091AG10999AY161061AY221061GF106991061081008001001001KA1240N+02221MA1999999096621MD1999999+0011MW1021REMSYN023333   20222 58001 60104
0124827840999991987041118004-07317-039300FM-12+040999999V0200501N00211045001CN0200001N9+02901+02201100811ADDAA106000591AG10999AY161061AY221061GF106991041081008001011001MA1999999096181MD1999999+0081MW1021REMSYN017333   58008 69951
0137827840999991987041200004-07317-039300FM-12+040999999V0201401N00311012001CN9999999N9+02301+02201101131ADDAA106000091AG10999AY131061AY231061GF108991081081008001999999KA1240M+02991MA1999999096401MD1999999-0131MW1171REMSYN017333   10299 59013
0143827840999991987041212004-07317-039300FM-12+040999999V0200901N00261007501CN0200001N9+02681+01971101261ADDAA124016091AG10999AY161061AY221061GF105991051021008001001001KA1240N+02201MA1999999096601MD1999999-0221MW1011REMSYN023333   20220 59022 60164
0096827840999991987041218004-07317-039300FM-12+040999999V0200901N00211220001CN0200001N9+03001+01941100761ADDAA106000091AG10999GF102991011021012501021001MA1999999096151MD1999999-0031REMSYN011333   59003
0137827840999991987041300004-07317-039300FM-12+040999999V0201401N00051007501CN9999999N9+02251+02141101091ADDAA106000091AG10999AY181061AY221061GF105991051041008001001001KA1240M+03051MA1999999096431MD1999999-0041MW1031REMSYN017333   10305 59004
0115827840999991987041312004-07317-039300FM-12+040999999V0200501N00211220001CN0200001N9+02741+01951101171ADDAA106000091AG10999GF102991011021008001031001KA1240N+02241MA1999999096511MD1999999-0101REMSYN017333   20224 59010
0096827840999991987041318004-07317-039300FM-12+040999999V0200901N00411220001CN0200001N9+02941+01941101851ADDAA106000091AG10999GF103991021021008001021001MA1999999096221MD1999999+0071REMSYN011333   58007
0115827840999991987041400004-07317-039300FM-12+040999999V0209991C00001220001CN9999999N9+02231+02071101191ADDAA106000091AG10999GF101991011081008001001001KA1240M+03051MA1999999096531MD1999999+0101REMSYN017333   10305 58010
0134827840999991987041412004-07317-039300FM-12+040999999V0201401N00261220001CN0200001N9+02681+01971101391ADDAA106000091AG10999GF102991011021008001011001KA1240N+99999MA1999999096721MD1999999+0211REMSYN017333   20286 58021EQDQ01 +02862ATMN  
0096827840999991987041418004-07317-039300FM-12+040999999V0200901N00261220001CN0200001N9+03051+02021100971ADDAA106000091AG10999GF102991011021012501021001MA1999999096331MD1999999+0111REMSYN011333   58011
0115827840999991987041500004-07317-039300FM-12+040999999V0201401N00261012001CN9999999N9+02481+02031101231ADDAA106000091AG10999GF108991081081008001999999KA1240M+03081MA1999999096581MD1999999+0051REMSYN017333   10308 58005
0115827840999991987041512004-07317-039300FM-12+040999999V0200901N00261007501CN0200001N9+02701+02061101381ADDAA106000091AG10999GF105991051021008001001001KA1240N+02231MA1999999096721MD1999999+0001REMSYN017333   20223 58000
0096827840999991987041518004-07317-039300FM-12+040999999V0200901N00211012001CN0200001N9+02911+01991101001ADDAA106000091AG10999GF105991051081008001001001MA1999999096361MD1999999+0031REMSYN011333   58003
0115827840999991987041600004-07317-039300FM-12+040999999V0200901N00101220001CN9999999N9+02361+02171101141ADDAA106000091AG10999GF102991021081008001001001KA1240M+03061MA1999999096491MD1999999-0061REMSYN017333   10306 59006
0096827840999991987041618004-07317-039300FM-12+040999999V0200901N00151012001CN0200001N9+02881+01971101101ADDAA106000091AG10999GF106991061021012501001001MA1999999096351MD1999999-0011REMSYN011333   59001
0143827840999991987041700004-07317-039300FM-12+040999999V0201401N00101220001CN9999999N9+99999+99999101201ADDAA106001091AG10999AY161061AY211061GF102991021081008001001001KA1240M+02281MA1999999096591MD1999999+0101MW1031REMSYN023333   10228 58010 60011
0143827840999991987041712004-07317-039300FM-12+040999999V0200501N00361045001CN0200001N9+02601+01921101391ADDAA124001091AG10999AY161061AY221061GF106991041081008001061001KA1240N+02211MA1999999096721MD1999999+0011MW1021REMSYN023333   20221 58001 60014
0096827840999991987041718004-07317-039300FM-12+040999999V0200901N00361045001CN0200001N9+02921+02011101071ADDAA106000091AG10999GF106991041081008001071001MA1999999096431MD1999999+0081REMSYN011333   58008
0143827840999991987041800004-07317-039300FM-12+040999999V0202301N00051007501CN9999999N9+02331+02271101401ADDAA106011091AG10999AY161061AY231061GF108991081071008001999999KA1240M+03041MA1999999096731MD1999999+0141MW1211REMSYN023333   10304 58014 60111
0143827840999991987041812004-07317-039300FM-12+040999999V0200501N00211045001CN0200001N9+02661+02041101511ADDAA124023091AG10999AY161061AY221061GF105991021021008001051001KA1240N+02161MA1999999096841MD1999999+0161MW1021REMSYN023333   20216 58016 60234
0096827840999991987041818004-07317-039300FM-12+040999999V0200901N00211012001CN0200001N9+02971+02051101191ADDAA106000091AG10999GF107991071081008001001001MA1999999096541MD1999999+0111REMSYN011333   58011
0137827840999991987041900004-07317-039300FM-12+040999999V0202301N00261220001CN0010001N9+02201+02081101321ADDAA106000091AG10999AY181061AY201061GF100991001001999999001001KA1240M+02991MA1999999096691MD1999999-0041MW1031REMSYN017333   10299 59004
0115827840999991987041912004-07317-039300FM-12+040999999V0200901N00101012001CN0200001N9+02671+02041101461ADDAA106000091AG10999GF106991061081008001001001KA1240N+02121MA1999999096781MD1999999-0061REMSYN017333   20212 59006
0096827840999991987041918004-07317-039300FM-12+040999999V0200501N00311012001CN0200001N9+02991+02051101071ADDAA106000091AG10999GF105991051021012501001001MA1999999096421MD1999999-0121REMSYN011333   59012
0115827840999991987042012004-07317-039300FM-12+040999999V0201401N00311220001CN0200001N9+02661+02021101481ADDAA106000091AG10999GF102991021021008001001001KA1240N+01971MA1999999096831MD1999999+0031REMSYN017333   20197 58003
0115827840999991987042100004-07317-039300FM-12+040999999V0209991C00001220001CN9999999N9+02321+02111101271ADDAA106000091AG10999GF101991011021008001001001KA1240M+03121MA1999999096611MD1999999+0001REMSYN017333   10312 58000
0115827840999991987042112004-07317-039300FM-12+040999999V0201001N02571220001CN0200001N9+02741+01971101311ADDAA106000091AG10999GF102991011021008001011001KA1240N+02201MA1999999096651MD1999999-0161REMSYN017333   20220 59016
0096827840999991987042118004-07317-039300FM-12+040999999V0200901N00211220001CN0200001N9+03031+02101100981ADDAA106000091AG10999GF104991041021008001001001MA1999999096351MD1999999-0021REMSYN011333   59002
0137827840999991987042200004-07317-039300FM-12+040999999V0201801N00051220001CN9999999N9+02251+02121101221ADDAA106000091AG10999AY181061AY201061GF100991001001999999001001KA1240M+03091MA1999999096561MD1999999-0051MW1031REMSYN017333   10309 59005
0115827840999991987042212004-07317-039300FM-12+040999999V0200901N00261220001CN0200001N9+02721+02031101321ADDAA106000091AG10999GF102991021021008001001001KA1240N+02021MA1999999096651MD1999999+0001REMSYN017333   20202 58000
0096827840999991987042218004-07317-039300FM-12+040999999V0200901N00311012001CN0200001N9+02901+02171100921ADDAA106000091AG10999GF106991061081008001001001MA1999999096271MD1999999-0081REMSYN011333   59008
0115827840999991987042300004-07317-039300FM-12+040999999V0200901N00211220001CN9999999N9+02481+02031101221ADDAA106000091AG10999GF100991001001999999001001KA1240M+03021MA1999999096571MD1999999+0011REMSYN017333   10302 58001
0115827840999991987042312004-07317-039300FM-12+040999999V0200501N00461007501CN0200001N9+02681+01991101361ADDAA106000091AG10999GF106991061021008001001001KA1240N+02041MA1999999096701MD1999999+0051REMSYN017333   20204 58005
0137827840999991987042800004-07317-039300FM-12+040999999V0202301N00051220001CN9999999N9+02341+02221101361ADDAA106000091AG10999AY181061AY201061GF100991001001999999001001KA1240M+02941MA1999999096681MD1999999-0081MW1011REMSYN017333   10294 59008
0115827840999991987042812004-07317-039300FM-12+040999999V0203601N00101012001CN0200001N9+02691+02201101561ADDAA106000091AG10999GF107991071081008001001001KA1240N+02201MA1999999096801MD1999999+0161REMSYN017333   20220 58016
0118827840999991987042818004-07317-039300FM-12+040999999V0200501N00151220001CN0100001N9+03001+01971101131ADDAA106000091AG10999AY111061AY221061GF102991021021012501001001MA1999999096491MD1999999+0111MW1041REMSYN011333   58011
0115827840999991987042912004-07317-039300FM-12+040999999V0201401N00211012001CN0200001N9+02621+02141101531ADDAA106000091AG10999GF107991071081008001001001KA1240N+02161MA1999999096851MD1999999-0031REMSYN017333   20216 59003
0096827840999991987042918004-07317-039300FM-12+040999999V0201401N00261220001CN0200001N9+03131+01921101101ADDAA106000091AG10999GF103991031021008001001001MA1999999096461MD1999999-0031REMSYN011333   59003
0137827840999991987043000004-07317-039300FM-12+040999999V0209991C00001220001CN9999999N9+02201+02051101351ADDAA106000091AG10999AY181061AY201061GF100991001001999999001001KA1240M+03061MA1999999096671MD1999999-0011MW1011REMSYN017333   10306 59001
0115827840999991987043012004-07317-039300FM-12+040999999V0200901N00211012001CN0200001N9+02621+02051101391ADDAA106000091AG10999GF106991061081008001001001KA1240N+02101MA1999999096711MD1999999-0141REMSYN017333   20210 59014
0118827840999991987043018004-07317-039300FM-12+040999999V0200901N00211220001CN0100001N9+03011+01961100891ADDAA106000091AG10999AY111061AY211061GF102991021011012501001001MA1999999096261MD1999999-0201MW1041REMSYN011333   59020
0115827840999991987050100004-07317-039300FM-12+040999999V0202301N00151007501CN9999999N9+02431+02091101171ADDAA106000091AG10999GF107991071061008001001001KA1240M+03081MA1999999096511MD1999999-0161REMSYN017333   10308 59016
0095827840999991987051400004-07317-039300FM-12+040999999V0200501N00051220001CN9999999N9+02281+01771999999ADDAA106000091AG10999GF100991001001999999001001KA1240M+03101MA1999999096481REMSYN011333   10310
0095827840999991987051412004-07317-039300FM-12+040999999V0200901N00311220001CN0200001N9+02581+01801101291ADDAA106000091AG10999GF100991001001999999001001KA1240N+01631MA1999999096621REMSYN011333   20163
0074827840999991987051418004-07317-039300FM-12+040999999V0200501N00261220001CN0200001N9+02981+01951100811ADDAA106000091AG10999GF103991031021008001001001MA1999999096161REMSYN003333
0115827840999991987051500004-07317-039300FM-12+040999999V0201401N00051220001CN9999999N9+02231+01991101101ADDAA106000091AG10999GF104991041021008001001001KA1240M+03031MA1999999096441MD1999999-0041REMSYN017333   10303 59004
0096827840999991987051518004-07317-039300FM-12+040999999V0200501N00211045001CN0200001N9+02911+01961100771ADDAA106000091AG10999GF106991031021008001061001MA1999999096121MD1999999-0041REMSYN011333   59004
0115827840999991987051700004-07317-039300FM-12+040999999V0201801N00101012001CN9999999N9+02491+02091101011ADDAA106000091AG10999GF106991061081008001001001KA1240M+03081MA1999999096361MD1999999+0061REMSYN017333   10308 58006
0115827840999991987051712004-07317-039300FM-12+040999999V0200501N00211220001CN0200001N9+02661+02021101261ADDAA106000091AG10999GF104991041021008001001001KA1240N+01881MA1999999096611MD1999999+0051REMSYN017333   20188 58005
0143827840999991987051800004-07317-039300FM-12+040999999V0200501N00051007501CN9999999N9+02321+02231101151ADDAA106000591AG10999AY161061AY231061GF108991081071008001999999KA1240M+03111MA1999999096491MD1999999+0131MW1021REMSYN023333   10311 58013 69951
0121827840999991987051812004-07317-039300FM-12+040999999V0200901N00311220001CN0200001N9+02621+01881101361ADDAA124000591AG10001GF103991021021008001011001KA1240N+01851MA1999999096691MD1999999+0081REMSYN023333   20185 58008 69954
0096827840999991987051818004-07317-039300FM-12+040999999V0200901N00151220001CN0200001N9+03141+01771100901ADDAA106000091AG10999GF104991031021008001011001MA1999999096271MD1999999-0061REMSYN011333   59006
0115827840999991987051900004-07317-039300FM-12+040999999V0200501N00101220001CN9999999N9+02141+01861101191ADDAA106000091AG10999GF100991001001999999001001KA1240M+03171MA1999999096521MD1999999+0031REMSYN017333   10317 58003
0115827840999991987051912004-07317-039300FM-12+040999999V0203601N00151007501CN0200001N9+02621+02071101281ADDAA106000091AG10999GF105991051021008001001001KA1240N+01911MA1999999096611MD1999999-0081REMSYN017333   20191 59008
0096827840999991987051918004-07317-039300FM-12+040999999V0203601N00151045001CN0200001N9+03111+01871100821ADDAA106000091AG10999GF106991041021008001061001MA1999999096191MD1999999-0081REMSYN011333   59008
0115827840999991987052012004-07317-039300FM-12+040999999V0203601N00101007501CN0200001N9+02571+02111101261ADDAA106000091AG10999GF106991051021008001061001KA1240N+02061MA1999999086601MD1999999-0011REMSYN017333   20206 59001
0115827840999991987052018004-07317-039300FM-12+040999999V0200501N00151220001CN0200001N9+03081+02101100801ADDAA106000091AG10999GF104991041021008001001001MA1999999096172MD1999999-0021REMSYN011333   59002EQDQ01+096173APOSP 
0115827840999991987052100004-07317-039300FM-12+040999999V0209991C000019999999N0200001N9+02331+02091101031ADDAA106000091AG10999GF105991999999008001999999KA1240M+03151MA1999999096371MD1999999-0041REMSYN017333   10315 59004
0115827840999991987052112004-07317-039300FM-12+040999999V0200501N00211012001CN0040001N9+02521+02131101291ADDAA106000091AG10999GF108991081081008001999999KA1240N+02021MA1999999096621MD1999999+0021REMSYN017333   20202 58002
0096827840999991987052118004-07317-039300FM-12+040999999V0200501N00101220001CN0200001N9+03131+01951100841ADDAA106000091AG10999GF103991031021008001001001MA1999999096211MD1999999+0051REMSYN011333   58005
0115827840999991987052200004-07317-039300FM-12+040999999V0202701N00051220001CN9999999N9+02231+02051999999ADDAA106000091AG10999GF100991001001999999001001KA1240M+03171MA1999999096381MD1999999+0011REMSYN017333   10317 58001
0096827840999991987052218004-07317-039300FM-12+040999999V0200501N00211220001CN0200001N9+03091+01951100871ADDAA106000091AG10999GF103991021021008001011001MA1999999096141MD1999999+0031REMSYN011333   58003
0115827840999991987052300004-07317-039300FM-12+040999999V0201801N00051220001CN9999999N9+02141+01971101091ADDAA106000091AG10999GF100991001001999999001001KA1240M+03141MA1999999096431MD1999999+0051REMSYN017333   10314 58005
0115827840999991987052312004-07317-039300FM-12+040999999V0200501N00211220001CN0200001N9+02621+01881101291ADDAA106000091AG10999GF102991011011008001011001KA1240N+01711MA1999999096621MD1999999-0091REMSYN017333   20171 59009
0100827840999991987052318004-07317-039300FM-12+040999999V0200501N00261220001CN0200001N9+03161+01661100821ADDAA106000091AG10999GF102991021011008001001001MD1999999-0061REMSYN011333   59006EQDQ01+099183APOSP 
0115827840999991987052400004-07317-039300FM-12+040999999V0209999999999220001CN9999999N9+02171+01881101081ADDAA106000091AG10999GF101991011001999999011001KA1240M+03181MA1999999096421MD1999999-0011REMSYN017333   10318 59001
0115827840999991987052412004-07317-039300FM-12+040999999V0200901N00311220001CN0200001N9+02671+01901101451ADDAA106000091AG10999GF101991011011008001001001KA1240N+01801MA1999999096771MD1999999+0151REMSYN017333   20180 58015
0096827840999991987052418004-07317-039300FM-12+040999999V0201401N00261220001CN0200001N9+03161+01601100881ADDAA106000091AG10999GF103991011011008001011001MA1999999096211MD1999999+0071REMSYN011333   58007
0115827840999991987052500004-07317-039300FM-12+040999999V0201801N00151220001CN9999999N9+02121+01781101171ADDAA106000091AG10999GF100991001001999999001001KA1240M+03181MA1999999096501MD1999999+0081REMSYN017333   10318 58008
0115827840999991987052512004-07317-039300FM-12+040999999V0200901N00261007501CN0200001N9+02621+01931101591ADDAA106000091AG10999GF106991061021008001001001KA1240N+01881MA1999999096901MD1999999+0131REMSYN017333   20188 58013
0115827840999991987052600004-07317-039300FM-12+040999999V0201801N00051220001CN9999999N9+02201+01951101441ADDAA106000091AG10999GF102991021001017501011001KA1240M+03171MA1999999096761MD1999999+0261REMSYN017333   10317 58026
0096827840999991987052618004-07317-039300FM-12+040999999V0200901N00151220001CN0200001N9+03261+01721101141ADDAA106000091AG10999GF101991011011008001001001MA1999999096481MD1999999-0051REMSYN011333   59005
0115827840999991987052700004-07317-039300FM-12+040999999V0200901N00101220001CN9999999N9+02311+01391101481ADDAA106000091AG10999GF100991001001999999001001KA1240M+02301MA1999999096811MD1999999+0051REMSYN017333   10230 58005
0115827840999991987052712004-07317-039300FM-12+040999999V0200901N00101220001CN0200001N9+02611+01871101801ADDAA106000091AG10999GF101991011011008001001001KA1240N+01861MA1999999097111MD1999999+0051REMSYN017333   20186 58005
0096827840999991987052718004-07317-039300FM-12+040999999V0201401N00261220001CN0200001N9+03151+01691101231ADDAA106000091AG10999GF102991021021008001001001MA1999999096591MD1999999+0111REMSYN011333   58011
0115827840999991987052800004-07317-039300FM-12+040999999V0201401N00261220001CN9999999N9+02421+01931101641ADDAA106000091AG10999GF100991001001999999001001KA1240M+03171MA1999999096961MD1999999+0151REMSYN017333   10317 58015
0115827840999991987052812004-07317-039300FM-12+040999999V0201401N00261220001CN0200001N9+02611+01921101821ADDAA106000091AG10999GF104991041021008001001001KA1240N+02201MA1999999097131MD1999999+0021REMSYN017333   20220 58002
0096827840999991987052818004-07317-039300FM-12+040999999V0201401N00261220001CN0200001N9+03061+01871101471ADDAA106000091AG10999GF104991041021008001001001MA1999999096721MD1999999+0131REMSYN011333   58013
0104827840999991987052912004-07317-039300FM-12+040999999V0200901N00311220001CN0200001N9+02561+01751101811ADDAG10999GF101991011011008001001001KA1240N+02011MA1999999097131MD1999999+0001REMSYN017333   20201 58000
0115827840999991987053000004-07317-039300FM-12+040999999V0200201N00051220001CN9999999N9+02161+01721101571ADDAA106000091AG10999GF101991011011008001001001KA1240M+03141MA1999999096881MD1999999-0141REMSYN017333   10314 59014
0115827840999991987053012004-07317-039300FM-12+040999999V0203601N00151220001CN0200001N9+02681+01891101661ADDAA106000091AG10999GF101991011021008001001001KA1240N+01651MA1999999096971MD1999999-0161REMSYN017333   20165 59016
0096827840999991987053018004-07317-039300FM-12+040999999V0200501N00101220001CN0200001N9+03121+01821101201ADDAA106000091AG10999GF102991021021008001001001MA1999999096601MD1999999-0061REMSYN011333   59006
0115827840999991987053100004-07317-039300FM-12+040999999V0202301N00051220001CN9999999N9+02231+01941101481ADDAA106000091AG10999GF102991021021008001001001KA1240M+03241MA1999999096801MD1999999-0081REMSYN017333   10324 59008
0143827840999991987053112004-07317-039300FM-12+040999999V0203601N00101012001CN0200001N9+02461+02131101731ADDAA124000191AG10999AY161061AY221061GF107991071081008001001001KA1240N+02121MA1999999097031MD1999999+0061MW1021REMSYN023333   20212 58006 69914
0115827840999991987060100004-07317-039300FM-12+040999999V0201801N00051220001CN9999999N9+02261+02011101511ADDAA106000091AG10999GF100991001001999999001001KA1240M+03211MA1999999096821MD1999999+0021REMSYN017333   10321 58002
0115827840999991987060112004-07317-039300FM-12+040999999V0200901N00211012001CN0200001N9+02681+01811101651ADDAA106000091AG10999GF106991051081008001061001KA1240N+02161MA1999999096961MD1999999-0071REMSYN017333   20216 59007
0096827840999991987060118004-07317-039300FM-12+040999999V0203601N00151012001CN0200001N9+03351+01651101241ADDAA106000091AG10999GF108991081071012501999999MA1999999096611MD1999999-0061REMSYN011333   59006
0115827840999991987060200004-07317-039300FM-12+040999999V0202301N00151220001CN9999999N9+02171+01951101411ADDAA106000091AG10999GF100991001001999999001001KA1240M+03011MA1999999096741MD1999999+0081REMSYN017333   10301 58008
0115827840999991987060212004-07317-039300FM-12+040999999V0200501N00151220001CN0200001N9+02611+01961101561ADDAA106000091AG10999GF104991021021008001071001KA1240N+01961MA1999999096881MD1999999-0081REMSYN017333   20196 59008
0096827840999991987060218004-07317-039300FM-12+040999999V0200901N00261220001CN0200001N9+03151+01731101121ADDAA106000091AG10999GF103991031021008001001001MA1999999096481MD1999999-0131REMSYN011333   59013
0115827840999991987060300004-07317-039300FM-12+040999999V0201401N00151220001CN9999999N9+02541+01541101351ADDAA106000091AG10999GF100991001001999999001001KA1240M+03041MA1999999096691MD1999999-0051REMSYN017333   10304 59005
0115827840999991987060312004-07317-039300FM-12+040999999V0201401N00261220001CN0200001N9+02481+01801101551ADDAA106000091AG10999GF102991021021008001001001KA1240N+01871MA1999999096871MD1999999-0011REMSYN017333   20187 59001
0096827840999991987060318004-07317-039300FM-12+040999999V0201401N00211220001CN0200001N9+03141+01731101031ADDAA106000091AG10999GF103991031021008001001001MA1999999096391MD1999999-0091REMSYN011333   59009
0115827840999991987060400004-07317-039300FM-12+040999999V0200901N00311220001CN9999999N9+02581+01521101251ADDAA106000091AG10999GF100991001001999999001001KA1240M+03171MA1999999096591MD1999999-0101REMSYN017333   10317 59010
0115827840999991987060412004-07317-039300FM-12+040999999V0200901N00361220001CN0200001N9+02571+01561101461ADDAA106000091AG10999GF102991021001017501011001KA1240N+02041MA1999999096801MD1999999-0071REMSYN017333   20204 59007
0115827840999991987060512004-07317-039300FM-12+040999999V0200901N00211220001CN0200001N9+02661+01821101351ADDAA106000091AG10999GF103991031021008001001001KA1240N+02041MA1999999096691MD1999999-0111REMSYN017333   20204 59011
0096827840999991987060518004-07317-039300FM-12+040999999V0200501N00261007501CN0200001N9+03081+01601100911ADDAA106000091AG10999GF106991061021008001001001MA1999999096271MD1999999-0121REMSYN011333   59012
0115827840999991987060600004-07317-039300FM-12+040999999V0201801N000519999999N9999999N9+02251+01941101231ADDAA106000091AG10999GF105991051001012501031001KA1240M+03191MA1999999096561MD1999999-0011REMSYN017333   10319 59001
0115827840999991987060612004-07317-039300FM-12+040999999V0201401N00151045001CN0200001N9+02631+01931101331ADDAA106000091AG10999GF106991041021008001061001KA1240N+02141MA1999999096651MD1999999-0041REMSYN017333   20214 59004
0096827840999991987060618004-07317-039300FM-12+040999999V0200901N00151012001CN0200001N9+02821+02101100961ADDAA106000091AG10999GF107991071081008001001001MA1999999096311MD1999999+0041REMSYN011333   58004
0143827840999991987060700004-07317-039300FM-12+040999999V0201401N00151007501CN0100001N9+02261+02181101291ADDAA106002091AG10999AY161061AY231061GF108991081051008001999999KA1240M+02971MA1999999096621MD1999999+0061MW1511REMSYN023333   10297 58006 60021
0143827840999991987060712004-07317-039300FM-12+040999999V0200901N00151045001CN0200001N9+02501+02071101581ADDAA124008091AG10999AY161061AY231061GF108991031071008001021999KA1240N+02141MA1999999096891MD1999999+0241MW1021REMSYN023333   20214 58024 60084
0096827840999991987060718004-07317-039300FM-12+040999999V0201401N00211012001CN0200001N9+02701+02061101281ADDAA106000091AG10999GF108991081081008001999999MA1999999096611MD1999999+0301REMSYN011333   58030
0115827840999991987060800004-07317-039300FM-12+040999999V0201401N00151007501CN9999999N9+02431+02031101511ADDAA106000091AG10999GF107991071021008001001001KA1240M+02801MA1999999096831MD1999999+0231REMSYN017333   10280 58023
0134827840999991987060812004-07317-039300FM-12+040999999V0201401N00211220001CN0200001N9+02601+01921101771ADDAA106000091AG10999GF103991021021008001011001KA1240N+99999MA1999999097081MD1999999+0191REMSYN017333   20295 58019EQDQ01 +02952ATMN  
0096827840999991987060818004-07317-039300FM-12+040999999V0200901N00261012001CN0200001N9+03001+01911101311ADDAA106000091AG10999GF106991061081008001001001MA1999999096651MD1999999+0041REMSYN011333   58004
0115827840999991987060900004-07317-039300FM-12+040999999V0201401N00211007501CN9999999N9+02501+02031101571ADDAA106000091AG10999GF108991081071008001999999KA1240M+03071MA1999999096701MD1999999+0071REMSYN017333   10307 58007
0115827840999991987060912004-07317-039300FM-12+040999999V0201401N00261012001CN0200001N9+02521+02001101611ADDAA106000091AG10999GF107991071081008001001001KA1240N+02221MA1999999096931MD1999999-0151REMSYN017333   20222 59015
0096827840999991987060918004-07317-039300FM-12+040999999V0201401N00261220001CN0200001N9+02961+01931101071ADDAA106000091AG10999GF104991041021008001001001MA1999999096431MD1999999-0221REMSYN011333   59022
0115827840999991987061000004-07317-039300FM-12+040999999V0201401N00311007501CN9999999N9+02621+01931101431ADDAA106000091AG10999GF108991081041008001999999KA1240M+03051MA1999999096761MD1999999-0141REMSYN017333   10305 59014
0115827840999991987061012004-07317-039300FM-12+040999999V0200901N00261220001CN0200001N9+02651+01951101461ADDAA106000091AG10999GF103991031021008001031001KA1240N+02241MA1999999096801MD1999999-0131REMSYN017333   20224 59013
0096827840999991987061018004-07317-039300FM-12+040999999V0201401N00361045001CN0200001N9+02961+01781101061ADDAA106000091AG10999GF105991041021008001061001MA1999999096421MD1999999-0011REMSYN011333   59001
0115827840999991987061100004-07317-039300FM-12+040999999V0201401N00051007501CN9999999N9+02361+01911101361ADDAA106000091AG10999GF108991081041008001999999KA1240M+03001MA1999999096691MD1999999+0071REMSYN017333   10300 58007
0115827840999991987061112004-07317-039300FM-12+040999999V0200901N00261220001CN0200001N9+02661+01741100511ADDAA106000091AG10999GF102991021001017501031001KA1240N+01971MA1999999096841MD1999999+0041REMSYN017333   20197 58004
0115827840999991987061200004-07317-039300FM-12+040999999V0201401N00051220001CN9999999N9+02101+01821101381ADDAA106000091AG10999GF100991001001999999001001KA1240M+03111MA1999999096701MD1999999+0011REMSYN017333   10311 58001
0115827840999991987061212004-07317-039300FM-12+040999999V0200901N00151007501CN0200001N9+02691+02061101521ADDAA106000091AG10999GF105991051021008001001001KA1240N+01971MA1999999096841MD1999999+0001REMSYN017333   20197 58000
0085827840999991987061218004-07317-039300FM-12+040999999V0200501N00311012001CN0200001N9+03071+02101101191ADDAG10999GF106991051071012501071001MA1999999096541MD1999999+0121REMSYN011333   58012
0143827840999991987061312004-07317-039300FM-12+040999999V0200901N00361007501CN0200001N9+02681+02021101541ADDAA124009091AG10999AY161061AY221061GF106991061021008001001001KA1240N+02121MA1999999096861MD1999999+0021MW1021REMSYN023333   20212 58002 60094
0096827840999991987061318004-07317-039300FM-12+040999999V0200901N00261012001CN0200001N9+02901+02021101241ADDAA106000091AG10999GF107991071081008001001001MA1999999096591MD1999999+0051REMSYN011333   58005
0137827840999991987061400004-07317-039300FM-12+040999999V0209991C00001220001CN9999999N9+02201+02031101351ADDAA106000091AG10999AY181061AY201061GF100991001001999999001001KA1240M+02931MA1999999096681MD1999999-0281MW1021REMSYN017333   10293 59028
0115827840999991987061412004-07317-039300FM-12+040999999V0200901N00151220001CN0200001N9+02581+01771101511ADDAA106000091AG10999GF100991001001999999001001KA1240N+01671MA1999999096831MD1999999-0031REMSYN017333   20167 59003
0096827840999991987061418004-07317-039300FM-12+040999999V0201801N00151220001CN0200001N9+03121+01641101041ADDAA106000091AG10999GF101991011011012501001001MA1999999096401MD1999999-0191REMSYN011333   59019
0137827840999991987061500004-07317-039300FM-12+040999999V0201801N00051220001CN9999999N9+02041+01781101191ADDAA106000091AG10999AY181061AY201061GF100991001001999999001001KA1240M+03141MA1999999096511MD1999999-0171MW1021REMSYN017333   10314 59017
0115827840999991987061512004-07317-039300FM-12+040999999V0200501N00101220001CN0200001N9+02621+01701101371ADDAA106000091AG10999GF100991001001999999001001KA1240N+01911MA1999999096691MD1999999-0141REMSYN017333   20191 59014
0096827840999991987061518004-07317-039300FM-12+040999999V0200901N00211220001CN0200001N9+03141+01581100921ADDAA106000091AG10999GF101991011011008001001001MA1999999096281MD1999999-0121REMSYN011333   59012
0137827840999991987061600004-07317-039300FM-12+040999999V0201401N00101220001CN9999999N9+02071+01801101261ADDAA106000091AG10999AY181061AY201061GF100991001001999999001001KA1240M+03231MA1999999096581MD1999999+0071MW1021REMSYN017333   10323 58007
0115827840999991987061612004-07317-039300FM-12+040999999V0201401N00101007501CN0040001N9+02381+02011101591ADDAA106000091AG10999GF108991081051008001999999KA1240N+01881MA1999999096891MD1999999+0201REMSYN017333   20188 58020
0096827840999991987061618004-07317-039300FM-12+040999999V0201401N00211220001CN0200001N9+03041+01941101161ADDAA106000091AG10001GF103991031081012501001001MA1999999096501MD1999999+0221REMSYN011333   58022
0115827840999991987061700004-07317-039300FM-12+040999999V0202301N00151012001CN9999999N9+02381+01971101441ADDAA106000091AG10999GF107991071081008001001001KA1240M+03151MA1999999096761MD1999999+0181REMSYN017333   10315 58018
0115827840999991987061712004-07317-039300FM-12+040999999V0200901N00101012001CN0200001N9+02561+01971101691ADDAA106000091AG10999GF107991071081008001001001KA1240N+01831MA1999999097001MD1999999+0111REMSYN017333   20183 58011
0096827840999991987061718004-07317-039300FM-12+040999999V0200501N00261220001CN0200001N9+03161+01851101221ADDAA106000091AG10999GF104991041021008001001001MA1999999096571MD1999999+0071REMSYN011333   58007
0115827840999991987061800004-07317-039300FM-12+040999999V0201401N00211220001CN9999999N9+02211+01931101591ADDAA106000091AG10999GF100991001001999999001001KA1240M+03221MA1999999096921MD1999999-0161REMSYN017333   10322 59016
0134827840999991987061812004-07317-039300FM-12+040999999V0201401N00311220001CN0200001N9+02671+02181101681ADDAA106000091AG10999GF101991011011008001001001KA1240N+02041MA1999999999999MD1999999+0011REMSYN017333   20204 58001EQDQ01 101833APOSP 
0115827840999991987061818004-07317-039300FM-12+040999999V0200901N00261220001CN0200001N9+03181+01691101261ADDAA106000091AG10999GF102991021021012501001001MA1999999096612MD1999999+0041REMSYN011333   58004EQDQ01+096613APOSP 
0115827840999991987061900004-07317-039300FM-12+040999999V0209991C00001220001CN9999999N9+02111+01051101501ADDAA106000091AG10999GF100991001001999999001001KA1240M+03191MA1999999096831MD1999999-0091REMSYN017333   10319 59009
0154827840999991987061912004-07317-039300FM-12+040999999V0201401N00311007501CN0100001N9+02461+01971101811ADDAA124000291AA299000391AG10999AY161061AY221061GF108991081051008001999999KA1240N+02201MA1999999097111MD1999999+0101MW1021REMSYN023333   20220 58010 69924
0096827840999991987061918004-07317-039300FM-12+040999999V0201401N00211012001CN0200001N9+02861+02031101331ADDAA106000091AG10999GF108991081081008001999999MA1999999096681MD1999999+0071REMSYN011333   58007
0115827840999991987062012004-07317-039300FM-12+040999999V0200901N00261220001CN0200001N9+02621+01881101681ADDAA106000091AG10999GF102991021021008001001001KA1240N+01791MA1999999097001MD1999999-0111REMSYN017333   20179 59011
0096827840999991987062018004-07317-039300FM-12+040999999V0200501N00311220001CN0200001N9+03091+01641101221ADDAA106000091AG10999GF103991031021008001001001MA1999999096571MD1999999-0111REMSYN011333   59011
0115827840999991987062100004-07317-039300FM-12+040999999V0209991C00001220001CN9999999N9+02181+01841101491ADDAA106000091AG10999GF101991011021008001001001KA1240M+03151MA1999999096811MD1999999-0091REMSYN017333   10315 59009
0124827840999991987062112004-07317-039300FM-12+040999999V0200901N00151012001CN0200001N9+02471+02051101721ADDAA124000591AG10999AY161061AY231061GF108991081081008001999999MA1999999097021MD1999999+0031MW1021REMSYN017333   58003 69954
0096827840999991987062118004-07317-039300FM-12+040999999V0200901N00151015001CN0200001N9+03081+01751101181ADDAA106000091AG10999GF107991071081012501001001MA1999999096541MD1999999-0031REMSYN011333   59003
0115827840999991987062200004-07317-039300FM-12+040999999V0201401N00151220001CN9999999N9+02421+01911101481ADDAA106000091AG10999GF101991011081008001001001KA1240M+03131MA1999999096801MD1999999-0011REMSYN017333   10313 59001
0115827840999991987062212004-07317-039300FM-12+040999999V0201401N00311012001CN0200001N9+02581+01841101721ADDAA106000091AG10999GF107991071081008001001001KA1240N+02201MA1999999097041MD1999999+0021REMSYN017333   20220 58002
0096827840999991987062218004-07317-039300FM-12+040999999V0201401N00151220001CN0200001N9+03101+01581101281ADDAA106000091AG10999GF102991021021012501001001MA1999999096641MD1999999+0101REMSYN011333   58010
0115827840999991987062300004-07317-039300FM-12+040999999V0201401N00151220001CN9999999N9+02521+01771101531ADDAA106000091AG10999GF100991001001999999001001KA1240M+03161MA1999999096851MD1999999+0051REMSYN017333   10316 58005
0115827840999991987062312004-07317-039300FM-12+040999999V0200501N00211045001CN0200001N9+02701+02081101731ADDAA106000091AG10999GF106991031081008001071001KA1240N+02261MA1999999097051MD1999999+0011REMSYN017333   20226 58001
0096827840999991987062318004-07317-039300FM-12+040999999V0200501N00411220001CN0200001N9+03121+01891101241ADDAA106000091AG10999GF104991041021008001001001MA1999999096601MD1999999-0041REMSYN011333   59004
0115827840999991987062400004-07317-039300FM-12+040999999V0209991C00001220001CN9999999N9+02321+01911101561ADDAA106000091AG10999GF100991001001999999001001KA1240M+03261MA1999999096881MD1999999+0031REMSYN017333   10326 58003
0115827840999991987062412004-07317-039300FM-12+040999999V0200501N00151220001CN0200001N9+02641+01881101781ADDAA106000091AG10999GF102991011021008001011001KA1240N+01761MA1999999097091MD1999999+0041REMSYN017333   20176 58004
0115827840999991987062500004-07317-039300FM-12+040999999V0201401N00101220001CN9999999N9+02121+01681101591ADDAA106000091AG10999GF100991001001999999001001KA1240M+03211MA1999999096911MD1999999+0031REMSYN017333   10321 58003
0115827840999991987062512004-07317-039300FM-12+040999999V0201401N00311007501CN0200001N9+02541+01761101921ADDAA106000091AG10999GF106991061021008001001001KA1240N+01891MA1999999097211MD1999999+0121REMSYN017333   20189 58012
0096827840999991987062518004-07317-039300FM-12+040999999V0201401N00361220001CN0200001N9+03071+01621101441ADDAA106000091AG10999GF104991041021008001001001MA1999999096791MD1999999+0161REMSYN011333   58016
0115827840999991987062600004-07317-039300FM-12+040999999V0201401N00101220001CN9999999N9+02341+99999101701ADDAA106000091AG10999GF100991001001999999001001KA1240M+03151MA1999999097011MD1999999+0101REMSYN017333   10315 58010
0115827840999991987062612004-07317-039300FM-12+040999999V0200901N00311007501CN0200001N9+02501+01671101931ADDAA106000091AG10999GF106991061021008001001001KA1240N+02101MA1999999097231MD1999999+0021REMSYN017333   20210 58002
0115827840999991987062700004-07317-039300FM-12+040999999V0201401N00261220001CN9999999N9+02401+01551101651ADDAA106000091AG10999GF100991001001999999001001KA1240M+03141MA1999999096971MD1999999-0021REMSYN017333   10314 59002
0115827840999991987062712004-07317-039300FM-12+040999999V0201401N00211007501CN0200001N9+02411+01821101921ADDAA106000091AG10999GF108991081051008001999999KA1240N+01941MA1999999097221MD1999999-0011REMSYN017333   20194 59001
0143827840999991987062812004-07317-039300FM-12+040999999V0201401N00311012001CN0200001N9+02421+01841101821ADDAA124006091AG10999AY161061AY231061GF108991081081008001999999KA1240N+02041MA1999999097121MD1999999-0101MW1021REMSYN023333   20204 59010 60064
0096827840999991987062818004-07317-039300FM-12+040999999V0201401N00311012001CN0200001N9+02581+01871101531ADDAA106000091AG10999GF108991081081008001999999MA1999999096841MD1999999-0081REMSYN011333   59008
0115827840999991987062900004-07317-039300FM-12+040999999V0200901N00211012001CN9999999N9+02301+01831101761ADDAA106000091AG10999GF108991081081008001999999KA1240M+02691MA1999999097061MD1999999-0081REMSYN017333   10269 59008
0115827840999991987062912004-07317-039300FM-12+040999999V0201401N00151012001CN0200001N9+02361+01691101811ADDAA106000091AG10999GF106991051081008001061001KA1240N+02061MA1999999097111MD1999999-0011REMSYN017333   20206 59001
0096827840999991987062918004-07317-039300FM-12+040999999V0201401N00211012001CN0200001N9+02621+01911101421ADDAA106000091AG10999GF106991061081008001001001MA1999999096741MD1999999-0101REMSYN011333   59010
0096827840999991987063018004-07317-039300FM-12+040999999V0200901N00311007501CN0200001N9+02661+01711101321ADDAA106000091AG10999GF108991071041008001021999MA1999999096641MD1999999-0101REMSYN011333   59010
0115827840999991987070100004-07317-039300FM-12+040999999V0209991C00001007501CN9999999N9+02281+02071101511ADDAA106000091AG10999GF108991081071008001999999KA1240M+02741MA1999999096821MD1999999-0061REMSYN017333   10274 59006
0143827840999991987070112004-07317-039300FM-12+040999999V0200901N00311220001CN0200001N9+02511+01871101561ADDAA124003091AG10999AY161061AY221061GF103991021021008001011001KA1240N+01811MA1999999096871MD1999999-0081MW1011REMSYN023333   20181 59008 60034
0096827840999991987070118004-07317-039300FM-12+040999999V0201401N00261220001CN0200001N9+02911+01721101191ADDAA106000091AG10999GF104991041021008001001001MA1999999096531MD1999999-0111REMSYN011333   59011
0115827840999991987070212004-07317-039300FM-12+040999999V0200901N00261220001CN0200001N9+02561+01901101501ADDAA106000091AG10999GF103991031021008001001001KA1240N+01911MA1999999096811MD1999999-0061REMSYN017333   20191 59006
0096827840999991987070218004-07317-039300FM-12+040999999V0200901N00311012001CN0200001N9+02921+01921101131ADDAA106000091AG10999GF108991081081008001999999MA1999999096481MD1999999-0051REMSYN011333   59005
0096827840999991987070318004-07317-039300FM-12+040999999V0200901N00311007501CN0200001N9+02941+01911101221ADDAA106000091AG10999GF106991061021008001001001MA1999999096571MD1999999+0091REMSYN011333   58009
0115827840999991987070400004-07317-039300FM-12+040999999V0201401N00511220001CN9999999N9+02401+01971101401ADDAA106000091AG10999GF102991021081008001001001KA1240M+03031MA1999999096731MD1999999-0011REMSYN017333   10303 59001
0143827840999991987070412004-07317-039300FM-12+040999999V0200901N00211004201CN0200001N9+02441+01971101591ADDAA124003091AG10999AY161061AY221061GF108991081071004501999999KA1240N+02021MA1999999096901MD1999999-0031MW1401REMSYN023333   20202 59003 60034
0096827840999991987070418004-07317-039300FM-12+040999999V0201401N00411220001CN0200001N9+02921+01801101161ADDAA106000091AG10999GF104991041021008001001001MA1999999096511MD1999999-0071REMSYN011333   59007
0115827840999991987070500004-07317-039300FM-12+040999999V0200901N00151007501CN9999999N9+02401+02031101481ADDAA106000091AG10999GF108991081071008001999999KA1240M+03051MA1999999096801MD1999999+0071REMSYN017333   10305 58007
0154827840999991987070512004-07317-039300FM-12+040999999V0200901N00211007501CN0200001N9+02441+01811101641ADDAA106000091AA224006091AG10999AY161061AY231061GF108991081051008001999999KA1240N+02031MA1999999096951MD1999999+0051MW1021REMSYN023333   20203 58005 60064
0096827840999991987070518004-07317-039300FM-12+040999999V0201401N00261045001CN0200001N9+02921+01771101221ADDAA106000091AG10999GF108991011021008001061999MA1999999096561MD1999999+0051REMSYN011333   58005
0115827840999991987070600004-07317-039300FM-12+040999999V0201401N00311045001CN9999999N9+02571+01721101441ADDAA106000091AG10999GF108991031051008001021999KA1240M+02981MA1999999096771MD1999999-0031REMSYN017333   10298 59003
0115827840999991987070612004-07317-039300FM-12+040999999V0201401N00311045001CN0200001N9+02521+01961101641ADDAA106000091AG10999GF108991031051008001061999KA1240N+02221MA1999999096961MD1999999+0011REMSYN017333   20222 58001
0096827840999991987070618004-07317-039300FM-12+040999999V0201401N00361045001CN0200001N9+02931+01821101151ADDAA106000091AG10999GF108991031081008001061999MA1999999096501MD1999999-0061REMSYN011333   59006
0115827840999991987070700004-07317-039300FM-12+040999999V0201401N00211220001CN9999999N9+02421+01771101481ADDAA106000091AG10999GF100991001001999999001001KA1240M+03031MA1999999096801MD1999999+0031REMSYN017333   10303 58003
0115827840999991987070712004-07317-039300FM-12+040999999V0200901N00311012001CN0200001N9+02481+01871101641ADDAA106000091AG10999GF107991071081008001001001KA1240N+02151MA1999999096981MD1999999+0001REMSYN017333   20215 58000
0096827840999991987070718004-07317-039300FM-12+040999999V0201401N00311012001CN0200001N9+02801+01921101221ADDAA106000091AG10999GF108991081081008001999999MA1999999096561MD1999999+0061REMSYN011333   58006
0134827840999991987070800004-07317-039300FM-12+040999999V0201401N00311007501CN9999999N9+02501+01891101431ADDAA106000091AG10999GF108991999021008001001001KA1240M+02831MA1999999096761MD1999999-0041REMSYN017333   10283 59004EQDQ01+000072SCOTLC
0095827840999991987070812004-07317-039300FM-12+040999999V0200901N00261045001CN0200001N9+02541+99999101601ADDAA106000091AG10999GF108991011081008001061999KA1240N+02511MA1999999096921REMSYN011333   20251
0096827840999991987070818004-07317-039300FM-12+040999999V0201401N00261012001CN0200001N9+02931+01661101201ADDAA106000091AG10999GF105991051081008001001001MA1999999096551MD1999999-0011REMSYN011333   59001
0115827840999991987070900004-07317-039300FM-12+040999999V0209991C00001220001CN9999999N9+02171+01821101491ADDAA106000091AG10999GF101991011081008001001001KA1240M+02981MA1999999096801MD1999999-0011REMSYN017333   10298 59001
0115827840999991987070912004-07317-039300FM-12+040999999V0200901N00311220001CN0200001N9+02601+01741101591ADDAA106000091AG10999GF100991001001999999001001KA1240N+01701MA1999999096911MD1999999-0011REMSYN017333   20170 59001
0096827840999991987070918004-07317-039300FM-12+040999999V0201401N00211220001CN0200001N9+03031+01681101161ADDAA106000091AG10999GF102991021021012501001001MA1999999096501MD1999999-0051REMSYN011333   59005
0115827840999991987071000004-07317-039300FM-12+040999999V0201401N00151220001CN9999999N9+02121+01741101381ADDAA106000091AG10999GF100991001001999999001001KA1240M+03071MA1999999096701MD1999999-0101REMSYN017333   10307 59010
0115827840999991987071012004-07317-039300FM-12+040999999V0201801N00051012001CN0200001N9+02501+01871101581ADDAA106000091AG10999GF108991081081008001999999KA1240N+02101MA1999999096881MD1999999-0031REMSYN017333   20210 59003
0096827840999991987071018004-07317-039300FM-12+040999999V0200901N00311045001CN0200001N9+02731+01641101201ADDAA106000091AG10999GF108991031071008001021021MA1999999096541MD1999999+0041REMSYN011333   58004
0115827840999991987071112004-07317-039300FM-12+040999999V0200901N00261045001CN0200001N9+02581+01851101441ADDAA106000091AG10001GF106991041021012501011001KA1240N+01901MA1999999096841MD1999999+0041REMSYN017333   20190 58004
0096827840999991987071118004-07317-039300FM-12+040999999V0201401N00261012001CN0200001N9+03151+01711101021ADDAA106000091AG10999GF106991061021012501001001MA1999999096381MD1999999-0161REMSYN011333   59016
0115827840999991987071200004-07317-039300FM-12+040999999V0200901N00101220001CN9999999N9+02501+01771101271ADDAA106000091AG10999GF102991021021008001001001KA1240M+03191MA1999999096611MD1999999-0161REMSYN017333   10319 59016
0143827840999991987071212004-07317-039300FM-12+040999999V0200901N00261007501CN0200001N9+02281+01831101601ADDAA124001091AG10999AY161061AY231061GF108991081051008001001001KA1240N+01951MA1999999096911MD1999999+0171MW1011REMSYN023333   20195 58017 60014
0096827840999991987071218004-07317-039300FM-12+040999999V0200901N00211220001CN0200001N9+02981+01661101111ADDAA106000091AG10999GF102991021021012501001001MA1999999096471MD1999999+0091REMSYN011333   58009
0096827840999991987071318004-07317-039300FM-12+040999999V0201401N00361220001CN0200001N9+03111+00941101101ADDAA106000091AG10999GF100991001001999999001001MA1999999096461MD1999999-0011REMSYN011333   59001
0115827840999991987071400004-07317-039300FM-12+040999999V0201401N00261220001CN9999999N9+02421+01571101371ADDAA106000091AG10001GF100991001001999999001001KA1240M+03051MA1999999096711MD1999999+0031REMSYN017333   10305 58003
0115827840999991987071412004-07317-039300FM-12+040999999V0201401N00311220001CN0200001N9+02581+01661101511ADDAA106000091AG10999GF100991001001999999001001KA1240N+01941MA1999999096841MD1999999+0001REMSYN017333   20194 58000
0096827840999991987071418004-07317-039300FM-12+040999999V0201401N00311220001CN0200001N9+03181+00991101021ADDAA106000091AG10999GF100991001001999999001001MA1999999096391MD1999999-0071REMSYN011333   59007
0115827840999991987071500004-07317-039300FM-12+040999999V0201401N00311220001CN9999999N9+02591+01591101381ADDAA106000091AG10999GF100991001001999999001001KA1240M+03211MA1999999096721MD1999999+0011REMSYN017333   10321 58001
0115827840999991987071512004-07317-039300FM-12+040999999V0201401N00311220001CN0200001N9+02701+01601101571ADDAA106000091AG10999GF100991001001999999001001KA1240N+02671MA1999999096901MD1999999+0061REMSYN017333   20267 58006
0096827840999991987071518004-07317-039300FM-12+040999999V0201401N00311220001CN0200001N9+03081+01641101121ADDAA106000091AG10999GF100991001001999999001001MA1999999096471MD1999999+0081REMSYN011333   58008
0115827840999991987071600004-07317-039300FM-12+040999999V0201401N00051220001CN9999999N9+02041+01561101401ADDAA106000091AG10999GF100991001001999999001001KA1240M+03231MA1999999096721MD1999999+0001REMSYN017333   10323 58000
0115827840999991987071612004-07317-039300FM-12+040999999V0200901N00311012001CN0200001N9+02501+01751101701ADDAA106000091AG10999GF107991071081008001001001KA1240N+01931MA1999999096991MD1999999+0091REMSYN017333   20193 58009
0115827840999991987071700004-07317-039300FM-12+040999999V0201401N00101220001CN9999999N9+02401+01731101421ADDAA106000091AG10999GF100991001001999999001001KA1240M+03151MA1999999096721MD1999999+0001REMSYN017333   10315 58000
0095827840999991987071712004-07317-039300FM-12+040999999V0200901N00361012001CN0200001N9+02621+01641101401ADDAA106000091AG10999GF106991061081008001001001KA1240N+01911MA1999999096821REMSYN011333   20191
0096827840999991987071718004-07317-039300FM-12+040999999V0201401N00261012001CN0200001N9+02991+01451101111ADDAA106000091AG10999GF107991071021012501001001MA1999999096461MD1999999-0071REMSYN011333   59007
0115827840999991987071808004-07317-039300FM-12+040999999V0201401N00211220001CN9999999N9+02441+01641101291ADDAA106000091AG10999GF100991001001999999001001KA1240M+03071MA1999999096631MD1999999-0091REMSYN017333   10307 59009
0115827840999991987071812004-07317-039300FM-12+040999999V0201401N00151220001CN0200001N9+02641+01351101491ADDAA106000091AG10999GF100991001001999999001001KA1240N+02101MA1999999096821MD1999999+0001REMSYN017333   20210 58000
0096827840999991987071818004-07317-039300FM-12+040999999V0201401N00311007501CN0200001N9+02871+01671101121ADDAA106000091AG10999GF108991081041008001999999MA1999999096471MD1999999+0011REMSYN011333   58001
0115827840999991987071900004-07317-039300FM-12+040999999V0201401N00151220001CN9999999N9+02321+01671101421ADDAA106000091AG10999GF100991001001999999001001KA1240M+03041MA1999999096721MD1999999+0091REMSYN017333   10304 58009
0115827840999991987071912004-07317-039300FM-12+040999999V0200901N00411220001CN0200001N9+02531+01831101531ADDAA106000091AG10999GF100991001001999999001001KA1240N+01951MA1999999096861MD1999999+0101REMSYN017333   20195 58010
0096827840999991987071918004-07317-039300FM-12+040999999V0201401N00261012001CN0200001N9+03021+01301101161ADDAA106000091AG10999GF108991081081008001999999MA1999999096511MD1999999+0041REMSYN011333   58004
0115827840999991987072000004-07317-039300FM-12+040999999V0201401N00151220001CN9999999N9+02521+01551101441ADDAA106000091AG10999GF100991001001999999001001KA1240M+03091MA1999999096771MD1999999+0021REMSYN017333   10309 58002
