0051827980999991987010115004-07100-034867FM-12+0007SBJP V0201601N00511007501CN0150001N9+03041+02341999999ADDAG10999GF105991051011008001001001MA1999999101541
0065827980999991987010121004-07100-034867FM-12+0007SBJP V0201701N00511220001CN0150001N9+02741+02341999999ADDAG10999GF102991021011008001001001MA1999999101441MD1210141+9999
0051827980999991987010209004-07100-034867FM-12+0007SBJP V0201601N00361220001CN0150001N9+02541+02441999999ADDAG10999GF103991031011008001001001MA1999999101441
0065827980999991987010215004-07100-034867FM-12+0007SBJP V0201701N00621007501CN0150001N9+02941+02341999999ADDAG10999GF105991051011008001001001MA1999999101441MD1210041+9999
0051827980999991987010221004-07100-034867FM-12+0007SBJP V0201601N00411220001CN0150001N9+02741+02341999999ADDAG10999GF103991031011008001001001MA1999999101341
0065827980999991987010309004-07100-034867FM-12+0007SBJP V0202401N00261007501CN0150001N9+02441+02341999999ADDAG10999GF105991051011008001001001MA1999999101341MD1210141+9999
0087827980999991987010312004-07100-034867FM-12+0007SBJP V0201101N00261045001CN0080001N9+02541+02441999999ADDAG10999AY151061AY201061GF108991031051000751031999MA1999999101441MD1210141+9999MW1501
0087827980999991987010315004-07100-034867FM-12+0007SBJP V0201701N00621007501CN0150001N9+03041+02241999999ADDAG10999AY151031AY221031GF105991051021008001001001MA1999999101341MD1710101+9999MW1021
0065827980999991987010318004-07100-034867FM-12+0007SBJP V0201801N00771007501CN0150001N9+02941+02241999999ADDAG10999GF107991071021008001001001MA1999999101241MD1710101+9999
0065827980999991987010403004-07100-034867FM-12+0007SBJP V0202101N00311220001CN0150001N9+02541+02241999999ADDAG10999GF104991041011001501001001MA1999999101341MD1210141+9999
0051827980999991987010415004-07100-034867FM-12+0007SBJP V0201501N00621007501CN0150001N9+02941+02441999999ADDAG10999GF107991071011008001001001MA1999999101241
0065827980999991987010418004-07100-034867FM-12+0007SBJP V0201601N00511220001CN0150001N9+02941+02341999999ADDAG10999GF104991041011008001001001MA1999999101141MD1710141+9999
0051827980999991987010509004-07100-034867FM-12+0007SBJP V0202201N00511220001CN0150001N9+02341+02241999999ADDAG10999GF103991011011008001031001MA1999999101241
0051827980999991987010521004-07100-034867FM-12+0007SBJP V0201701N00411012001CN0150001N9+02541+02441999999ADDAG10999GF107991071081008001001001MA1999999101441
0051827980999991987010615004-07100-034867FM-12+0007SBJP V0201301N00511007501CN0150001N9+03041+02341999999ADDAG10999GF105991051011008001001001MA1999999101341
0065827980999991987010618004-07100-034867FM-12+0007SBJP V0201201N00311007501CN0150001N9+02941+02441999999ADDAG10999GF105991051011008001001001MA1999999101141MD1710201+9999
0051827980999991987010709004-07100-034867FM-12+0007SBJP V0202001N00261045001CN0150001N9+02441+02441999999ADDAG10999GF107991041011008001071001MA1999999101341
0065827980999991987010712004-07100-034867FM-12+0007SBJP V0209991C00001007501CN0150001N9+02641+02341999999ADDAG10999GF108991051011008001071001MA1999999101041MD1710301+9999
0065827980999991987010715004-07100-034867FM-12+0007SBJP V0200501N004119999999N0150001N9+02941+02441999999ADDAG10999GF107991999999008001999999MA1999999101441MD1210141+9999
0065827980999991987010718004-07100-034867FM-12+0007SBJP V0201301N00621007501CN0150001N9+02941+02441999999ADDAG10999GF107991071011008001031011MA1999999101241MD1710141+9999
0065827980999991987010815004-07100-034867FM-12+0007SBJP V0201301N00411007501CN0150001N9+03041+02341999999ADDAG10999GF105991051011008001001001MA1999999101341MD1710101+9999
0065827980999991987010821004-07100-034867FM-12+0007SBJP V0201601N00261220001CN0150001N9+02741+02441999999ADDAG10999GF104991041011008001001001MA1999999101241MD1210101+9999
0065827980999991987010912004-07100-034867FM-12+0007SBJP V0201401N00621007501CN0150001N9+02841+02341999999ADDAG10999GF106991061021008001001001MA1999999101441MD1210101+9999
0065827980999991987010915004-07100-034867FM-12+0007SBJP V0201201N00621007501CN0150001N9+03041+02241999999ADDAG10999GF105991051011008001001001MA1999999101341MD1710141+9999
0051827980999991987011009004-07100-034867FM-12+0007SBJP V0202401N00311220001CN0150001N9+02341+02241999999ADDAG10999GF104991041011008001001001MA1999999101341
0065827980999991987011012004-07100-034867FM-12+0007SBJP V0201301N00621007501CN0150001N9+02841+02241999999ADDAG10999GF105991051011008001001001MA1999999101441MD1210141+9999
0115827980999991987011112004-07100-034867FM-12+0007SBJP V0209999999999007501CN0200001N9+02901+02201101471ADDAA106000091AG10999GF107991071041008001001001KA1240N+02111MA1999999101271MD1999999-0091REMSYN017333   20211 59009
0051827980999991987011115004-07100-034867FM-12+0007SBJP V0201501N00621007501CN0150001N9+03041+02341999999ADDAG10999GF105991051011008001001001MA1999999101441
0065827980999991987011118004-07100-034867FM-12+0007SBJP V0201801N00771220001CN0150001N9+03041+02241999999ADDAG10999GF103991031011008001001001MA1999999101241MD1710201+9999
0065827980999991987011121004-07100-034867FM-12+0007SBJP V0201601N00411220001CN0150001N9+02741+02341999999ADDAG10999GF102991021011008001001001MA1999999101241MD1210241+9999
0051827980999991987011209004-07100-034867FM-12+0007SBJP V0209991C00001220001CN0150001N9+02341+02241999999ADDAG10999GF105991031011008001001011MA1999999101441
0065827980999991987011212004-07100-034867FM-12+0007SBJP V0201801N00511007501CN0150001N9+02841+02241999999ADDAG10999GF105991051011008001001001MA1999999101541MD1210101+9999
0065827980999991987011215004-07100-034867FM-12+0007SBJP V0201501N00511007501CN0150001N9+02841+02241999999ADDAG10999GF107991071011008001001001MA1999999101541MD1210041+9999
0065827980999991987011218004-07100-034867FM-12+0007SBJP V0201501N00511007501CN0150001N9+02841+02241999999ADDAG10999GF108991051011008001031999MA1999999101341MD1710141+9999
0065827980999991987011309004-07100-034867FM-12+0007SBJP V0201901N00261220001CN0150001N9+02341+02241999999ADDAG10999GF103991031011008001001001MA1999999101441MD1210141+9999
0065827980999991987011312004-07100-034867FM-12+0007SBJP V0201501N00511007501CN0150001N9+02841+02141999999ADDAG10999GF105991051011008001001001MA1999999101641MD1210241+9999
0065827980999991987011321004-07100-034867FM-12+0007SBJP V0201701N00411220001CN0150001N9+02741+02241999999ADDAG10999GF102991021011008001001001MA1999999101541MD1210141+9999
0051827980999991987011409004-07100-034867FM-12+0007SBJP V0202501N00411220001CN0150001N9+02111+02041999999ADDAG10999GF101991011011008001001001MA1999999101541
0065827980999991987011412004-07100-034867FM-12+0007SBJP V0201801N00621007501CN0150001N9+02841+02241999999ADDAG10999GF105991051021008001001001MA1999999101541MD1410001+9999
0065827980999991987011418004-07100-034867FM-12+0007SBJP V0201601N00621220001CN0150001N9+02941+02141999999ADDAG10999GF104991041011008001001001MA1999999101341MD1710241+9999
0051827980999991987011509004-07100-034867FM-12+0007SBJP V0202201N00261220001CN0150001N9+02241+02241999999ADDAG10999GF103991031011008001001001MA1999999101341
0065827980999991987011512004-07100-034867FM-12+0007SBJP V0201801N00511045001CN0150001N9+02841+02241999999ADDAG10999GF105991041011008001031001MA1999999101441MD1210141+9999
0051827980999991987011521004-07100-034867FM-12+0007SBJP V0201901N00621220001CN0150001N9+02641+02341999999ADDAG10999GF102991021011008001001001MA1999999101241
0051827980999991987011615004-07100-034867FM-12+0007SBJP V0201501N00311007501CN0150001N9+02841+02441999999ADDAG10001GF107991071011008001001001MA1999999101341
0065827980999991987011618004-07100-034867FM-12+0007SBJP V0201601N00621007501CN0150001N9+02941+02441999999ADDAG10999GF105991051011008001001001MA1999999101241MD1710101+9999
0065827980999991987011621004-07100-034867FM-12+0007SBJP V0201501N00511220001CN0150001N9+02741+02341999999ADDAG10001GF104991041011008001001001MA1999999101241MD1210041+9999
0051827980999991987011709004-07100-034867FM-12+0007SBJP V0202401N00211220001CN0150001N9+02441+02341999999ADDAG10999GF104991041011008001001001MA1999999101341
0087827980999991987011712004-07100-034867FM-12+0007SBJP V0201501N005119999999N0150001N9+02941+02441999999ADDAG10999AY101061AY201061GF105991999999008001999999MA1999999101341MD1410001+9999MW1511
0065827980999991987011715004-07100-034867FM-12+0007SBJP V0201501N00511007501CN0150001N9+03041+02341999999ADDAG10999GF106991061011008001001001MA1999999101241MD1210141+9999
0065827980999991987011718004-07100-034867FM-12+0007SBJP V0201201N00411007501CN0150001N9+03041+02341999999ADDAG10999GF105991051011008001001001MA1999999101141MD1710141+9999
0073827980999991987011809004-07100-034867FM-12+0007SBJP V0202201N00261220001CN0150001N9+02441+02441999999ADDAG10999AY161031AY201031GF103991031021008001001001MA1999999101241MW1211
0065827980999991987011812004-07100-034867FM-12+0007SBJP V0201301N00511007501CN0150001N9+02941+02441999999ADDAG10999GF105991051011008001001001MA1999999101341MD1210101+9999
0065827980999991987011815004-07100-034867FM-12+0007SBJP V0201301N00311220001CN0150001N9+03141+02341999999ADDAG10999GF104991041011008001001001MA1999999101241MD1710101+9999
0065827980999991987011818004-07100-034867FM-12+0007SBJP V0201201N00311220001CN0150001N9+03041+02341999999ADDAG10999GF103991031011008001001001MA1999999101041MD1710201+9999
0065827980999991987011821004-07100-034867FM-12+0007SBJP V0201101N00511220001CN0150001N9+02841+02441999999ADDAG10999GF101991011011008001001001MA1999999101141MD1210141+9999
0051827980999991987011909004-07100-034867FM-12+0007SBJP V0202701N00261220001CN0150001N9+02441+02341999999ADDAG10999GF103991031011008001001001MA1999999101241
0065827980999991987011912004-07100-034867FM-12+0007SBJP V0209991C00001007501CN0150001N9+02841+02441999999ADDAG10999GF106991061021008001001001MA1999999101341MD1210101+9999
0071827980999991987011915004-07100-034867FM-12+0007SBJP V0201401N00261007501CN0150001N9+02841+02441999999ADDAG10999GF107991071011008001001001MA1999999101241MD1710141+9999MW1211
0081827980999991987011918004-07100-034867FM-12+0007SBJP V0201501N00511007501CN0150001N9+02941+02341999999ADDAG10999AY121061AY211061GF105991051011008001001001MA1999999101141MD1710141+9999
0051827980999991987012003004-07100-034867FM-12+0007SBJP V0201701N00411220001CN0150001N9+02541+02441999999ADDAG10999GF104991041021008001001001MA1999999101141
0065827980999991987012021004-07100-034867FM-12+0007SBJP V0201601N00771220001CN0150001N9+02841+02341999999ADDAG10999GF104991041011008001031011MA1999999101141MD1210141+9999
0051827980999991987012115004-07100-034867FM-12+0007SBJP V0201601N00621007501CN0150001N9+02941+02341999999ADDAG10999GF106991061011008001001001MA1999999101241
0051827980999991987012209004-07100-034867FM-12+0007SBJP V0202401N00411220001CN0150001N9+02141+02041999999ADDAG10999GF103991031011008001001001MA1999999101241
0065827980999991987012212004-07100-034867FM-12+0007SBJP V0201201N00311220001CN0150001N9+02841+02141999999ADDAG10999GF104991041011008001001001MA1999999101341MD1210101+9999
0065827980999991987012215004-07100-034867FM-12+0007SBJP V0201301N00311007501CN0150001N9+03041+02141999999ADDAG10999GF105991051011008001001001MA1999999101241MD1210141+9999
0065827980999991987012218004-07100-034867FM-12+0007SBJP V0201601N00511007501CN0150001N9+03041+02341999999ADDAG10999GF105991051011008001001001MA1999999101141MD1710241+9999
0065827980999991987012221004-07100-034867FM-12+0007SBJP V0201501N00311220001CN0150001N9+02741+02341999999ADDAG10999GF103991031011008001001001MA1999999101141MD1410001+9999
0065827980999991987012300004-07100-034867FM-12+0007SBJP V0201501N00311220001CN0150001N9+02641+02341999999ADDAG10999GF103991031011008001001001MA1999999101341MD1210201+9999
0065827980999991987012309004-07100-034867FM-12+0007SBJP V0209991C00001220001CN0150001N9+02341+02241999999ADDAG10999GF104991041011008001001001MA1999999101241MD1210141+9999
0065827980999991987012312004-07100-034867FM-12+0007SBJP V0201501N00621007501CN0150001N9+02941+02241999999ADDAG10999GF105991051011008001001001MA1999999101441MD1210141+9999
0051827980999991987012318004-07100-034867FM-12+0007SBJP V0201301N00771007501CN0150001N9+03041+02241999999ADDAG10999GF105991051021008001001001MA1999999101241
0065827980999991987012321004-07100-034867FM-12+0007SBJP V0201501N00361220001CN0150001N9+02741+02341999999ADDAG10999GF103991031011008001001001MA1999999101241MD1410001+9999
0051827980999991987012409004-07100-034867FM-12+0007SBJP V0209991C00001220001CN0150001N9+02341+02241999999ADDAG10999GF101991011011008001001001MA1999999101341
0065827980999991987012415004-07100-034867FM-12+0007SBJP V0201501N00511007501CN0150001N9+03041+02241999999ADDAG10999GF106991061011008001001001MA1999999101341MD1710141+9999
0051827980999991987012512004-07100-034867FM-12+0007SBJP V0201501N00411007501CN0150001N9+02841+02341999999ADDAG10999GF105991051011008001001001MA1999999101441
0070827980999991987012521004-07100-034867FM-12+0007SBJP V0201801N00411220001CN0150001N9+02841+02241999999ADDAG10999GF101991011011999999001001MA1999999101341EQDQ01+000992SCOLCB
0065827980999991987012600004-07100-034867FM-12+0007SBJP V0209991C00001220001CN0150001N9+02641+02341999999ADDAG10999GF100991001001999999001001MA1999999101441MD1210101+9999
0051827980999991987012615004-07100-034867FM-12+0007SBJP V0201301N00771007501CN0150001N9+03041+02341999999ADDAG10999GF106991061011008001001001MA1999999101441
0065827980999991987012618004-07100-034867FM-12+0007SBJP V0201401N00411007501CN0150001N9+02941+02441999999ADDAG10999GF106991061011008001001001MA1999999101241MD1710201+9999
0065827980999991987012621004-07100-034867FM-12+0007SBJP V0201601N00261220001CN0150001N9+02741+02341999999ADDAG10999GF103991031011008001001001MA1999999101241MD1210041+9999
0065827980999991987012700004-07100-034867FM-12+0007SBJP V0201801N00261220001CN0150001N9+02541+02341999999ADDAG10999GF103991031011008001001001MA1999999101441MD1210241+9999
0051827980999991987012709004-07100-034867FM-12+0007SBJP V0202701N00261220001CN0150001N9+02341+02241999999ADDAG10999GF103991031011008001001001MA1999999101441
0065827980999991987012712004-07100-034867FM-12+0007SBJP V0201501N00261007501CN0150001N9+02941+02441999999ADDAG10999GF105991051011008001001001MA1999999101541MD1210101+9999
0065827980999991987012718004-07100-034867FM-12+0007SBJP V0201301N00621045001CN0150001N9+03041+02341999999ADDAG10999GF106991021011008001031011MA1999999101341MD1710141+9999
0065827980999991987012721004-07100-034867FM-12+0007SBJP V0201501N00511105001CN0150001N9+02841+02341999999ADDAG10999GF105991011011008001001021MA1999999101341MD1410001+9999
0065827980999991987012809004-07100-034867FM-12+0007SBJP V0202201N00261220001CN0150001N9+02341+02241999999ADDAG10999GF104991041011008001001001MA1999999101441MD1210141+9999
0065827980999991987012812004-07100-034867FM-12+0007SBJP V0201501N00621007501CN0150001N9+03041+02241999999ADDAG10999GF106991061011008001001001MA1999999101541MD1210141+9999
0065827980999991987012815004-07100-034867FM-12+0007SBJP V0201501N00821007501CN0150001N9+03141+02241999999ADDAG10001GF106991061021008001001001MA1999999101541MD1410001+9999
0065827980999991987012818004-07100-034867FM-12+0007SBJP V0201201N00511007501CN0150001N9+03041+02241999999ADDAG10999GF105991051021008001999999MA1999999101341MD1710201+9999
0065827980999991987012821004-07100-034867FM-12+0007SBJP V0201401N00261220001CN0150001N9+02741+02341999999ADDAG10999GF103991031011008001001001MA1999999101341MD1410001+9999
0051827980999991987012909004-07100-034867FM-12+0007SBJP V0202501N00311220001CN0150001N9+02241+02141999999ADDAG10999GF103991031011008001001001MA1999999101441
0065827980999991987012912004-07100-034867FM-12+0007SBJP V0201401N00411007501CN0150001N9+02841+02441999999ADDAG10999GF106991061021008001001001MA1999999101541MD1210101+9999
0065827980999991987012918004-07100-034867FM-12+0007SBJP V0201301N00411220001CN0150001N9+03041+02141999999ADDAG10999GF103991021011008001001021MA1999999101241MD1710241+9999
0051827980999991987013009004-07100-034867FM-12+0007SBJP V0203001N00261220001CN0150001N9+02341+02241999999ADDAG10999GF103991031011008001001001MA1999999101341
0065827980999991987013012004-07100-034867FM-12+0007SBJP V0201301N00621007501CN0150001N9+02941+02241999999ADDAG10999GF105991051011008001001001MA1999999101441MD1210141+9999
0051827980999991987013021004-07100-034867FM-12+0007SBJP V0201201N00511220001CN0150001N9+02841+02341999999ADDAG10999GF102991021011008001001001MA1999999101341
0051827980999991987013115004-07100-034867FM-12+0007SBJP V0201501N00411007501CN0150001N9+03141+02341999999ADDAG10999GF105991051011008001001001MA1999999101441
0065827980999991987013118004-07100-034867FM-12+0007SBJP V0201301N00771007501CN0150001N9+03041+02241999999ADDAG10999GF105991051011008001001001MA1999999101341MD1710101+9999
0084827980999991987013121004-07100-034867FM-12+0007SBJP V0201601N003619999999N0150001N9+02841+02441999999ADDAG10999GF107991999051008001001001MA1999999101341MD1210041+9999EQDQ01+000032SCOTLC
0087827980999991987020100004-07100-034867FM-12+0007SBJP V0201801N00511045001CN0150001N9+02641+02341999999ADDAG10999AY161061AY201061GF108991041051000751031011MA1999999101541MD1210141+9999MW1601
0051827980999991987020109004-07100-034867FM-12+0007SBJP V0201701N00511220001CN0150001N9+02641+02241999999ADDAG10999GF104991041011008001001001MA1999999101441
0065827980999991987020112004-07100-034867FM-12+0007SBJP V0201601N00211007501CN0150001N9+02841+02241999999ADDAG10999GF105991051011008001001001MA1999999101541MD1210101+9999
0065827980999991987020115004-07100-034867FM-12+0007SBJP V0201601N00721007501CN0150001N9+03141+02241999999ADDAG10999GF105991051011008001001001MA1999999101541MD1210041+9999
0065827980999991987020118004-07100-034867FM-12+0007SBJP V0201501N00511220001CN0150001N9+03041+02141999999ADDAG10999GF104991041011008001001001MA1999999101341MD1710241+9999
0065827980999991987020209004-07100-034867FM-12+0007SBJP V0201701N00311220001CN0150001N9+02541+02341999999ADDAG10999GF104991041011008001001001MA1999999101341MD1210141+9999
0084827980999991987020212004-07100-034867FM-12+0007SBJP V0201601N003119999999N0150001N9+02941+02341999999ADDAG10999GF106991999011008001001001MA1999999101541MD1210141+9999EQDQ01+000022SCOTLC
0065827980999991987020215004-07100-034867FM-12+0007SBJP V0201601N00621007501CN0150001N9+03041+02341999999ADDAG10999GF106991061021008001001001MA1999999101441MD1710101+9999
0065827980999991987020218004-07100-034867FM-12+0007SBJP V0201501N00721007501CN0150001N9+03041+02241999999ADDAG10999GF105991051021008001001001MA1999999101341MD1710101+9999
0065827980999991987020221004-07100-034867FM-12+0007SBJP V0201501N00511220001CN0150001N9+02741+02241999999ADDAG10999GF104991041011008001001001MA1999999101341MD1410001+9999
0051827980999991987020309004-07100-034867FM-12+0007SBJP V0209991C00001220001CN0150001N9+02341+02241999999ADDAG10999GF104991041011008001001001MA1999999101341
0065827980999991987020312004-07100-034867FM-12+0007SBJP V0201601N00511007501CN0150001N9+02941+02241999999ADDAG10999GF105991051021008001001001MA1999999101441MD1210101+9999
0065827980999991987020315004-07100-034867FM-12+0007SBJP V0201501N00511007501CN0150001N9+03141+02241999999ADDAG10999GF106991061011008001001001MA1999999101241MD1710241+9999
0065827980999991987020318004-07100-034867FM-12+0007SBJP V0201501N00621007501CN0150001N9+02941+02341999999ADDAG10999GF105991051011008001001001MA1999999101141MD1710141+9999
0051827980999991987020409004-07100-034867FM-12+0007SBJP V0202201N00311220001CN0150001N9+02341+02241999999ADDAG10999GF102991021011008001001001MA1999999101241
0065827980999991987020412004-07100-034867FM-12+0007SBJP V0201501N00511007501CN0150001N9+02941+02141999999ADDAG10999GF105991051011008001001001MA1999999101441MD1210241+9999
0051827980999991987020421004-07100-034867FM-12+0007SBJP V0201801N00511220001CN0150001N9+02841+02341999999ADDAG10999GF103991031011008001001001MA1999999101241
0051827980999991987020518004-07100-034867FM-12+0007SBJP V0201301N00411220001CN0150001N9+02941+02141999999ADDAG10999GF103991031011008001001001MA1999999101241
0065827980999991987020521004-07100-034867FM-12+0007SBJP V0209991C00001220001CN0150001N9+02641+02341999999ADDAG10999GF100991001001999999001001MA1999999101241MD1210141+9999
0051827980999991987020612004-07100-034867FM-12+0007SBJP V0201801N00411007501CN0150001N9+02841+02341999999ADDAG10999GF105991051011008001001001MA1999999101341
0065827980999991987020615004-07100-034867FM-12+0007SBJP V0201601N00411007501CN0150001N9+03401+02341999999ADDAG10999GF105991051011008001001001MA1999999101341MD1210141+9999
0065827980999991987020618004-07100-034867FM-12+0007SBJP V0201601N00771220001CN0150001N9+03041+02441999999ADDAG10999GF103991031011008001001001MA1999999101141MD1710141+9999
0065827980999991987020621004-07100-034867FM-12+0007SBJP V0201601N00621220001CN0150001N9+02641+02241999999ADDAG10999GF103991031011008001001001MA1999999101241MD1210101+9999
0065827980999991987020709004-07100-034867FM-12+0007SBJP V0202001N00261220001CN0150001N9+02441+02341999999ADDAG10999GF104991041011008001001001MA1999999101341MD1210141+9999
0051827980999991987020718004-07100-034867FM-12+0007SBJP V0201601N00511220001CN0150001N9+03041+02241999999ADDAG10001GF104991041011008001001001MA1999999101241
0065827980999991987020721004-07100-034867FM-12+0007SBJP V0201601N00411220001CN0150001N9+02841+02441999999ADDAG10999GF103991031011008001001001MA1999999101241MD1410001+9999
0051827980999991987020812004-07100-034867FM-12+0007SBJP V0201301N00621007501CN0150001N9+02941+02441999999ADDAG10999GF107991071021008001001001MA1999999101541
0065827980999991987020815004-07100-034867FM-12+0007SBJP V0201501N00511007501CN0150001N9+03041+02341999999ADDAG10999GF107991071011008001001001MA1999999101441MD1710141+9999
0065827980999991987020818004-07100-034867FM-12+0007SBJP V0201301N00621220001CN0150001N9+03041+02341999999ADDAG10999GF104991041011008001001001MA1999999101241MD1710241+9999
0051827980999991987020909004-07100-034867FM-12+0007SBJP V0201301N00311220001CN0150001N9+02641+02441999999ADDAG10999GF104991041011008001001001MA1999999101441
0065827980999991987020912004-07100-034867FM-12+0007SBJP V0201501N00621007501CN0150001N9+02841+02341999999ADDAG10999GF107991071011008001001001MA1999999101541MD1210141+9999
0057827980999991987021018004-07100-034867FM-12+0007SBJP V0201301N00311004201CN0150001N9+02741+02441999999ADDAG10999GF108991051051004501021999MA1999999101441MW1611
0087827980999991987021021004-07100-034867FM-12+0007SBJP V0209991C00001000601CN0080001N9+02441+02341999999ADDAG10999AY161031AY211031GF108991051051000751021999MA1999999101541MD1210141+9999MW1601
0065827980999991987021118004-07100-034867FM-12+0007SBJP V0201601N00621007501CN0150001N9+03041+02341999999ADDAG10999GF106991061011008001001001MA1999999101141MD1710141+9999
0065827980999991987021121004-07100-034867FM-12+0007SBJP V0201601N00311220001CN0150001N9+02741+02341999999ADDAG10999GF104991041011008001001001MA1999999101241MD1210141+9999
0065827980999991987021209004-07100-034867FM-12+0007SBJP V0202701N00261220001CN0150001N9+02341+02241999999ADDAG10999GF103991031011008001001001MA1999999101241MD1210141+9999
0065827980999991987021215004-07100-034867FM-12+0007SBJP V0201801N00411007501CN0150001N9+02641+02441999999ADDAG10999GF107991071021008001001001MA1999999101341MD1410001+9999
0090827980999991987021221004-07100-034867FM-12+0007SBJP V0201201N002619999999N0060001N9+02541+02441999999ADDAG10001GF107991071011999999001001MA1999999101141MD1410001+9999MW1211EQDQ01+000992SCOLCB
0051827980999991987021309004-07100-034867FM-12+0007SBJP V0202401N00261007501CN0150001N9+02541+02341999999ADDAG10999GF106991061021008001001001MA1999999101241
0065827980999991987021318004-07100-034867FM-12+0007SBJP V0201301N00511220001CN0150001N9+03041+02241999999ADDAG10999GF103991031011008001001001MA1999999101141MD1710241+9999
0051827980999991987021409004-07100-034867FM-12+0007SBJP V0202201N00411220001CN0150001N9+02341+02241999999ADDAG10999GF103991031011008001001001MA1999999101241
0051827980999991987021421004-07100-034867FM-12+0007SBJP V0201601N00511220001CN0150001N9+02641+02241999999ADDAG10999GF103991031011008001001001MA1999999101241
0051827980999991987021515004-07100-034867FM-12+0007SBJP V0201601N00771007501CN0150001N9+02941+02341999999ADDAG10999GF106991061011008001001001MA1999999101241
0065827980999991987021518004-07100-034867FM-12+0007SBJP V0201601N00511220001CN0150001N9+03041+02241999999ADDAG10999GF104991041011008001001001MA1999999101141MD1710141+9999
0065827980999991987021521004-07100-034867FM-12+0007SBJP V0201101N00511220001CN0150001N9+02841+01841999999ADDAG10999GF102991021011008001001001MA1999999101341MD1410001+9999
0065827980999991987021612004-07100-034867FM-12+0007SBJP V0202101N00411220001CN0150001N9+02741+02341999999ADDAG10999GF104991041011008001001001MA1999999101341MD1210141+9999
0065827980999991987021615004-07100-034867FM-12+0007SBJP V0201501N00411007501CN0150001N9+03741+02241999999ADDAG10999GF106991061011008001001001MA1999999101241MD1210141+9999
0065827980999991987021618004-07100-034867FM-12+0007SBJP V0201501N00511220001CN0150001N9+03041+02241999999ADDAG10999GF104991041011008001001001MA1999999101141MD1710141+9999
0065827980999991987021621004-07100-034867FM-12+0007SBJP V0201801N00261220001CN0150001N9+02641+02341999999ADDAG10999GF104991041011008001001001MA1999999101141MD1410001+9999
0065827980999991987021709004-07100-034867FM-12+0007SBJP V0202501N00311220001CN0150001N9+02341+02241999999ADDAG10999GF103991031011008001031011MA1999999101141MD1210141+9999
0065827980999991987021712004-07100-034867FM-12+0007SBJP V0201701N00511007501CN0150001N9+02841+02341999999ADDAG10999GF105991051011008001001001MA1999999101341MD1210141+9999
0065827980999991987021715004-07100-034867FM-12+0007SBJP V0201501N00511007501CN0150001N9+03041+02341999999ADDAG10999GF105991051021008001001001MA1999999101241MD1710101+9999
0065827980999991987021718004-07100-034867FM-12+0007SBJP V0201501N00511007501CN0150001N9+03041+02341999999ADDAG10999GF106991061021008001001001MA1999999101141MD1710101+9999
0065827980999991987021721004-07100-034867FM-12+0007SBJP V0201501N00261105001CN0150001N9+02741+02341999999ADDAG10999GF105991021011008001001021MA1999999101141MD1410001+9999
0051827980999991987021812004-07100-034867FM-12+0007SBJP V0201001N00261007501CN0150001N9+02841+02441999999ADDAG10999GF105991051021008001001001MA1999999101541
0065827980999991987021818004-07100-034867FM-12+0007SBJP V0201501N00621007501CN0150001N9+03141+02341999999ADDAG10999GF105991051011008001001001MA1999999101241MD1710141+9999
0051827980999991987021909004-07100-034867FM-12+0007SBJP V0209991C00001007501CN0150001N9+02441+02341999999ADDAG10999GF106991061011008001001001MA1999999101441
0065827980999991987021912004-07100-034867FM-12+0007SBJP V0201701N00511007501CN0150001N9+02841+02441999999ADDAG10999GF106991061011008001001001MA1999999101541MD1210141+9999
0051827980999991987021921004-07100-034867FM-12+0007SBJP V0201801N00511007501CN0150001N9+02741+02341999999ADDAG10999GF105991051011008001001001MA1999999101341
0051827980999991987022015004-07100-034867FM-12+0007SBJP V0201801N00821007501CN0150001N9+03041+02241999999ADDAG10999GF106991061011008001001001MA1999999101241
0065827980999991987022018004-07100-034867FM-12+0007SBJP V0201701N00621007501CN0150001N9+03041+02141999999ADDAG10999GF105991051011008001001001MA1999999101041MD1710241+9999
0065827980999991987022021004-07100-034867FM-12+0007SBJP V0201901N00411220001CN0150001N9+03041+02241999999ADDAG10001GF103991031011008001001001MA1999999101141MD1210141+9999
0065827980999991987022100004-07100-034867FM-12+0007SBJP V0201801N00511220001CN0150001N9+02641+02341999999ADDAG10999GF101991011011008001001001MA1999999101341MD1210241+9999
0051827980999991987022109004-07100-034867FM-12+0007SBJP V0202401N00261220001CN0150001N9+02241+02141999999ADDAG10999GF103991031011008001001001MA1999999101141
0065827980999991987022112004-07100-034867FM-12+0007SBJP V0201801N00621007501CN0150001N9+02841+02341999999ADDAG10999GF105991051011008001001001MA1999999101241MD1210141+9999
0065827980999991987022115004-07100-034867FM-12+0007SBJP V0201501N00621007501CN0150001N9+03041+02341999999ADDAG10999GF106991061011008001001001MA1999999101241MD1210041+9999
0065827980999991987022118004-07100-034867FM-12+0007SBJP V0201501N00621007501CN0150001N9+03041+02241999999ADDAG10999GF105991051011008001001001MA1999999101141MD1710141+9999
0084827980999991987022121004-07100-034867FM-12+0007SBJP V0201601N00511220001CN0150001N9+02841+02341999999ADDAG10999GF101991011011999999001001MA1999999101141MD1410001+9999EQDQ01+000992SCOLCB
0065827980999991987022209004-07100-034867FM-12+0007SBJP V0202401N00261220001CN0150001N9+02341+02241999999ADDAG10999GF102991021011008001001001MA1999999101241MD1210141+9999
0065827980999991987022212004-07100-034867FM-12+0007SBJP V0201601N00511007501CN0150001N9+02741+02341999999ADDAG10999GF107991071011008001001001MA1999999101441MD1210141+9999
0065827980999991987022215004-07100-034867FM-12+0007SBJP V0201601N00411007501CN0150001N9+02941+02341999999ADDAG10999GF106991061021008001001001MA1999999101341MD1710101+9999
0065827980999991987022218004-07100-034867FM-12+0007SBJP V0201501N00721007501CN0150001N9+03141+02241999999ADDAG10999GF105991051021008001001001MA1999999101241MD1710101+9999
0087827980999991987022303004-07100-034867FM-12+0007SBJP V0201701N00361000601CN0025001N9+02441+02341999999ADDAG10999AY161031AY201031GF108991051051000751031999MA1999999101441MD1210141+9999MW1621
0051827980999991987022309004-07100-034867FM-12+0007SBJP V0201301N00411007501CN0150001N9+02641+02441999999ADDAG10999GF107991071021008001001001MA1999999101341
0065827980999991987022312004-07100-034867FM-12+0007SBJP V0201501N00621007501CN0150001N9+02841+02441999999ADDAG10999GF105991051021008001031001MA1999999101541MD1210201+9999
0051827980999991987022318004-07100-034867FM-12+0007SBJP V0201501N00621007501CN0150001N9+03041+02341999999ADDAG10999GF106991061011008001001001MA1999999101241
0065827980999991987022412004-07100-034867FM-12+0007SBJP V0201701N00411007501CN0150001N9+02841+02441999999ADDAG10999GF107991071011008001001001MA1999999101441MD1210141+9999
0051827980999991987022515004-07100-034867FM-12+0007SBJP V0201701N00721220001CN0150001N9+03041+02341999999ADDAG10999GF104991041011008001001001MA1999999101441
0065827980999991987022518004-07100-034867FM-12+0007SBJP V0201501N00721220001CN0150001N9+03041+02241999999ADDAG10999GF104991041011008001001001MA1999999101241MD1710241+9999
0051827980999991987022609004-07100-034867FM-12+0007SBJP V0202401N00261220001CN0150001N9+02341+02241999999ADDAG10999GF103991031011008001001001MA1999999101441
0065827980999991987022618004-07100-034867FM-12+0007SBJP V0201701N00621007501CN0150001N9+03141+02341999999ADDAG10999GF106991061011008001001001MA1999999101341MD1710241+9999
0051827980999991987022703004-07100-034867FM-12+0007SBJP V0202101N00411220001CN0150001N9+02641+02441999999ADDAG10999GF101991011011008001001001MA1999999101541
0065827980999991987022709004-07100-034867FM-12+0007SBJP V0201801N00311220001CN0150001N9+02541+02341999999ADDAG10999GF103991031011008001001001MA1999999101441MD1210141+9999
0065827980999991987022712004-07100-034867FM-12+0007SBJP V0201701N00621007501CN0150001N9+02941+02341999999ADDAG10999GF105991051011008001001001MA1999999101541MD1210141+9999
0065827980999991987022715004-07100-034867FM-12+0007SBJP V0201801N00771007501CN0150001N9+03041+02341999999ADDAG10001GF105991051011008001001001MA1999999101441MD1210041+9999
0065827980999991987022718004-07100-034867FM-12+0007SBJP V0201601N00621220001CN0150001N9+03041+02241999999ADDAG10999GF104991041011008001001001MA1999999101241MD1710241+9999
0051827980999991987022809004-07100-034867FM-12+0007SBJP V0202401N00261220001CN0150001N9+02341+02241999999ADDAG10999GF102991021011008001001001MA1999999101241
0065827980999991987022812004-07100-034867FM-12+0007SBJP V0201801N00411007501CN0150001N9+02941+02441999999ADDAG10999GF107991071021008001001001MA1999999101441MD1210201+9999
0065827980999991987022818004-07100-034867FM-12+0007SBJP V0201501N00511220001CN0150001N9+03041+02341999999ADDAG10999GF103991031011008001001001MA1999999101141MD1710201+9999
0051827980999991987030109004-07100-034867FM-12+0007SBJP V0201801N00261220001CN0150001N9+02541+02341999999ADDAG10999GF103991031011008001001001MA1999999101241
0051827980999991987030115004-07100-034867FM-12+0007SBJP V0201601N00621007501CN0150001N9+03041+02341999999ADDAG10999GF105991051011008001001001MA1999999101241
0051827980999991987030215004-07100-034867FM-12+0007SBJP V0201501N00511007501CN0150001N9+03141+02341999999ADDAG10999GF105991051011008001001001MA1999999101241
0065827980999991987030218004-07100-034867FM-12+0007SBJP V0201501N00621220001CN0150001N9+03141+02441999999ADDAG10999GF102991021011008001001001MA1999999101141MD1710141+9999
0051827980999991987030312004-07100-034867FM-12+0007SBJP V0201701N00511007501CN0150001N9+02841+02341999999ADDAG10999GF105991051011008001001001MA1999999101341
0065827980999991987030315004-07100-034867FM-12+0007SBJP V0201401N00721007501CN0150001N9+03041+02341999999ADDAG10999GF107991071011008001001001MA1999999101241MD1210141+9999
0065827980999991987030318004-07100-034867FM-12+0007SBJP V0201501N00511045001CN0150001N9+03041+02341999999ADDAG10999GF108991041011008001031011MA1999999101041MD1710241+9999
0065827980999991987030321004-07100-034867FM-12+0007SBJP V0201301N00311045001CN0150001N9+02841+02441999999ADDAG10999GF105991021051008001031001MA1999999101041MD1410001+9999
0087827980999991987030409004-07100-034867FM-12+0007SBJP V0209991C000019999999N0150001N9+02541+02441999999ADDAG10999AY121031AY211031GF107991999999008001999999MA1999999101241MD1210141+9999MW1211
0065827980999991987030412004-07100-034867FM-12+0007SBJP V0209991C00001045001CN0150001N9+02641+02441999999ADDAG10999GF108991041011008001031041MA1999999101441MD1210141+9999
0065827980999991987030415004-07100-034867FM-12+0007SBJP V0200901N00511045001CN0150001N9+03041+02241999999ADDAG10999GF106991041011008001031001MA1999999101341MD1710101+9999
0065827980999991987030421004-07100-034867FM-12+0007SBJP V0201701N00411220001CN0150001N9+02741+02341999999ADDAG10999GF104991041011008001001001MA1999999101141MD1410001+9999
0051827980999991987030509004-07100-034867FM-12+0007SBJP V0202101N00311004201CN0150001N9+02441+02341999999ADDAG10999GF105991051051004501001001MA1999999101141
0065827980999991987030512004-07100-034867FM-12+0007SBJP V0202401N00261009001CN0150001N9+02641+02541999999ADDAG10999GF107991071081004501001001MA1999999101341MD1210101+9999
0065827980999991987030515004-07100-034867FM-12+0007SBJP V0201701N00311045001CN0150001N9+02741+02541999999ADDAG10999GF106991041011008001031001MA1999999101341MD1410001+9999
0065827980999991987030518004-07100-034867FM-12+0007SBJP V0201301N00511045001CN0150001N9+03041+02441999999ADDAG10999GF105991031011008001031001MA1999999101141MD1710241+9999
0051827980999991987030609004-07100-034867FM-12+0007SBJP V0201001N00361007501CN0150001N9+02441+02341999999ADDAG10999GF105991051011008001001001MA1999999101241
0051827980999991987030621004-07100-034867FM-12+0007SBJP V0201401N00411220001CN0150001N9+02841+02441999999ADDAG10999GF103991031011008001001001MA1999999101041
0051827980999991987030715004-07100-034867FM-12+0007SBJP V0201801N00411045001CN0150001N9+02741+02141999999ADDAG10999GF107991021011008001031001MA1999999101341
0065827980999991987030718004-07100-034867FM-12+0007SBJP V0201201N00411220001CN0150001N9+03041+02341999999ADDAG10999GF103991031011008001001001MA1999999101041MD1710341+9999
0065827980999991987030721004-07100-034867FM-12+0007SBJP V0201201N00511220001CN0150001N9+02841+02441999999ADDAG10999GF103991031011008001001001MA1999999101141MD1210141+9999
0065827980999991987030800004-07100-034867FM-12+0007SBJP V0201201N00511220001CN0150001N9+02741+02441999999ADDAG10999GF101991011011008001001001MA1999999101141MD1210141+9999
0051827980999991987030809004-07100-034867FM-12+0007SBJP V0201901N00361220001CN0150001N9+02441+02341999999ADDAG10999GF103991031011008001001001MA1999999101141
0071827980999991987030812004-07100-034867FM-12+0007SBJP V0201201N00311220001CN0150001N9+02841+02541999999ADDAG10999GF103991031011004501001001MA1999999101241MD1210141+9999MW1501
0084827980999991987030815004-07100-034867FM-12+0007SBJP V0201501N005719999999N0150001N9+03041+02441999999ADDAG10999GF106991999051008001001001MA1999999101141MD1210141+9999EQDQ01+000022SCOTLC
0065827980999991987030818004-07100-034867FM-12+0007SBJP V0201201N00621007501CN0150001N9+99999+99999999999ADDAG10999GF106991061011008001001081MA1999999100741MD1710141+9999
0065827980999991987030909004-07100-034867FM-12+0007SBJP V0201501N00261220001CN0150001N9+02441+02341999999ADDAG10999GF103991031011008001001001MA1999999100941MD1210141+9999
0065827980999991987030912004-07100-034867FM-12+0007SBJP V0201301N00311007501CN0150001N9+02941+02341999999ADDAG10999GF105991051011008001001001MA1999999101241MD1210141+9999
0065827980999991987030915004-07100-034867FM-12+0007SBJP V0201001N00511007501CN0150001N9+03041+02341999999ADDAG10999GF105991051021008001001011MA1999999101141MD1710101+9999
0065827980999991987030918004-07100-034867FM-12+0007SBJP V0201201N00571220001CN0150001N9+03241+02341999999ADDAG10999GF104991041021008001001001MA1999999101041MD1710101+9999
0065827980999991987030921004-07100-034867FM-12+0007SBJP V0201001N00411105001CN0150001N9+02741+02141999999ADDAG10999GF107991011011008001001031MA1999999101341MD1410001+9999
0065827980999991987031003004-07100-034867FM-12+0007SBJP V0209991C00001220001CN0150001N9+02541+02341999999ADDAG10999GF102991021011008001001001MA1999999101241MD1210141+9999
0051827980999991987031009004-07100-034867FM-12+0007SBJP V0202701N00211220001CN0150001N9+02441+02341999999ADDAG10999GF102991021011008001001001MA1999999101241
0051827980999991987031015004-07100-034867FM-12+0007SBJP V0200901N00621007501CN0150001N9+03141+02341999999ADDAG10999GF107991071011008001001001MA1999999101241
0051827980999991987031018004-07100-034867FM-12+0007SBJP V0201001N00511220001CN0150001N9+03041+02441999999ADDAG10999GF104991041011008001001001MA1999999101041
0051827980999991987031112004-07100-034867FM-12+0007SBJP V0201501N00511007501CN0150001N9+02841+02441999999ADDAG10999GF106991061011008001001001MA1999999101441
0051827980999991987031121004-07100-034867FM-12+0007SBJP V0201501N00261105001CN0150001N9+02841+02441999999ADDAG10999GF106991021011008001001021MA1999999101041
0051827980999991987031215004-07100-034867FM-12+0007SBJP V0201801N00411220001CN0150001N9+03041+02341999999ADDAG10999GF104991041011004501001001MA1999999101141
0065827980999991987031221004-07100-034867FM-12+0007SBJP V0201801N00511220001CN0150001N9+02741+02041999999ADDAG10999GF104991041011008001001001MA1999999101041MD1210141+9999
0051827980999991987031309004-07100-034867FM-12+0007SBJP V0202401N00261220001CN0150001N9+02341+02241999999ADDAG10999GF103991031011008001001001MA1999999101041
0065827980999991987031312004-07100-034867FM-12+0007SBJP V0201601N00511007501CN0150001N9+02841+02441999999ADDAG10999GF105991051011008001001001MA1999999101241MD1210241+9999
0065827980999991987031315004-07100-034867FM-12+0007SBJP V0201401N00771007501CN0150001N9+03141+02341999999ADDAG10999GF105991051011008001001001MA1999999101141MD1210141+9999
0065827980999991987031318004-07100-034867FM-12+0007SBJP V0201801N00771007501CN0150001N9+03141+02441999999ADDAG10999GF105991051011008001001001MA1999999100841MD1710241+9999
0065827980999991987031321004-07100-034867FM-12+0007SBJP V0201301N00411220001CN0150001N9+02841+02441999999ADDAG10999GF104991041011008001001001MA1999999101041MD1210201+9999
0065827980999991987031409004-07100-034867FM-12+0007SBJP V0202601N00261045001CN0150001N9+02441+02441999999ADDAG10999GF107991021011008001031011MA1999999101141MD1210141+9999
0065827980999991987031412004-07100-034867FM-12+0007SBJP V0201801N00261220001CN0150001N9+02841+02441999999ADDAG10999GF108991031011008001001011MA1999999101341MD1210141+9999
0065827980999991987031415004-07100-034867FM-12+0007SBJP V0201301N00511007501CN0150001N9+03241+02341999999ADDAG10999GF107991071021008001001001MA1999999101241MD1710101+9999
0051827980999991987031421004-07100-034867FM-12+0007SBJP V0201701N00361004201CN0150001N9+02641+02441999999ADDAG10999GF105991051051004501001001MA1999999101241
0065827980999991987031503004-07100-034867FM-12+0007SBJP V0202301N00311045001CN0150001N9+02541+02441999999ADDAG10999GF107991041011008001031011MA1999999101541MD1210141+9999
0051827980999991987031509004-07100-034867FM-12+0007SBJP V0202801N00311220001CN0150001N9+02441+02341999999ADDAG10999GF103991031011008001001001MA1999999101341
0065827980999991987031512004-07100-034867FM-12+0007SBJP V0201701N00511007501CN0150001N9+02841+02441999999ADDAG10999GF106991061021008001001001MA1999999101541MD1210201+9999
0065827980999991987031515004-07100-034867FM-12+0007SBJP V0201601N00621007501CN0150001N9+03041+02341999999ADDAG10999GF107991071011008001001001MA1999999101441MD1710141+9999
0057827980999991987031609004-07100-034867FM-12+0007SBJP V0202201N00511004201CN0150001N9+02341+02341999999ADDAG10999GF105991051051004501031001MA1999999101341MW1501
0087827980999991987031612004-07100-034867FM-12+0007SBJP V0202001N00511220001CN0150001N9+02541+02441999999ADDAG10999AY151061AY201061GF104991041051004501001001MA1999999101441MD1210141+9999MW1211
0051827980999991987031621004-07100-034867FM-12+0007SBJP V0201801N00621220001CN0150001N9+02841+02441999999ADDAG10999GF103991031011008001001001MA1999999101241
0051827980999991987031718004-07100-034867FM-12+0007SBJP V0202001N00621007501CN0150001N9+02941+02241999999ADDAG10999GF105991051011008001001001MA1999999101141
0065827980999991987031815004-07100-034867FM-12+0007SBJP V0201601N00511007501CN0150001N9+03141+02441999999ADDAG10999GF105991051011008001001001MA1999999101141MD1210141+9999
0065827980999991987031818004-07100-034867FM-12+0007SBJP V0201801N00771007501CN0150001N9+03041+02341999999ADDAG10999GF106991061011008001001001MA1999999101041MD1710141+9999
0087827980999991987031909004-07100-034867FM-12+0007SBJP V0200401N00261007501CN0150001N9+02441+02341999999ADDAG10999AY121031AY211031GF105991051011008001001001MA1999999101241MD1210141+9999MW1211
0065827980999991987031912004-07100-034867FM-12+0007SBJP V0201901N00411007501CN0150001N9+02841+02541999999ADDAG10999GF106991061011008001001001MA1999999101341MD1210141+9999
0065827980999991987031915004-07100-034867FM-12+0007SBJP V0201201N00511007501CN0150001N9+03041+02341999999ADDAG10999GF107991071021008001001001MA1999999101241MD1710101+9999
0065827980999991987031918004-07100-034867FM-12+0007SBJP V0201501N00621007501CN0150001N9+03141+02341999999ADDAG10999GF106991061021008001001001MA1999999101141MD1710101+9999
0065827980999991987031921004-07100-034867FM-12+0007SBJP V0201501N00411220001CN0150001N9+02841+02441999999ADDAG10999GF104991041011008001001001MA1999999101141MD1410001+9999
0073827980999991987032009004-07100-034867FM-12+0007SBJP V0203001N00261045001CN0150001N9+02441+02341999999ADDAG10999AY151031AY221031GF108991041051004501021999MA1999999101241MW1501
0087827980999991987032012004-07100-034867FM-12+0007SBJP V0202301N00411045001CN0150001N9+02541+02441999999ADDAG10999AY161061AY221061GF106991041011008001021001MA1999999101341MD1210101+9999MW1021
0051827980999991987032109004-07100-034867FM-12+0007SBJP V0202801N00311007501CN0150001N9+02441+02341999999ADDAG10999GF105991051011008001001001MA1999999101041
0065827980999991987032112004-07100-034867FM-12+0007SBJP V0202001N00261007501CN0150001N9+02841+02441999999ADDAG10999GF107991071011008001001001MA1999999101241MD1210241+9999
0051827980999991987032121004-07100-034867FM-12+0007SBJP V0201801N00411004201CN0150001N9+02541+02441999999ADDAG10999GF108991081021004501999999MA1999999101141
0051827980999991987032215004-07100-034867FM-12+0007SBJP V0201501N00511007501CN0150001N9+03041+02241999999ADDAG10999GF106991061011008001001001MA1999999101041
0065827980999991987032218004-07100-034867FM-12+0007SBJP V0201201N00411007501CN0150001N9+03041+02441999999ADDAG10999GF107991071011008001001001MA1999999100841MD1710241+9999
0065827980999991987032221004-07100-034867FM-12+0007SBJP V0201801N00411007501CN0150001N9+02741+02441999999ADDAG10999GF105991051011008001001001MA1999999101041MD1210241+9999
0051827980999991987032309004-07100-034867FM-12+0007SBJP V0209991C00001007501CN0150001N9+02541+02441999999ADDAG10999GF105991051011008001001001MA1999999101041
0071827980999991987032312004-07100-034867FM-12+0007SBJP V0201201N00311007501CN0150001N9+02741+02641999999ADDAG10999GF106991061011008001001001MA1999999101241MD1210241+9999MW1211
0065827980999991987032315004-07100-034867FM-12+0007SBJP V0201001N00511007501CN0150001N9+03041+02541999999ADDAG10999GF106991061011008001001001MA1999999101041MD1210241+9999
0084827980999991987032318004-07100-034867FM-12+0007SBJP V0201201N005119999999N0150001N9+03041+02441999999ADDAG10999GF106991999061008001001001MA1999999100941MD1710141+9999EQDQ01+000012SCOTLC
0065827980999991987032409004-07100-034867FM-12+0007SBJP V0202401N00261007501CN0150001N9+02441+02341999999ADDAG10999GF105991051011008001001001MA1999999101041MD1210141+9999
0065827980999991987032412004-07100-034867FM-12+0007SBJP V0201501N00411007501CN0150001N9+02941+02441999999ADDAG10999GF106991061011008001001001MA1999999101241MD1210141+9999
0065827980999991987032415004-07100-034867FM-12+0007SBJP V0202101N00621007501CN0150001N9+02941+02441999999ADDAG10999GF107991071021008001001001MA1999999101141MD1710101+9999
0065827980999991987032418004-07100-034867FM-12+0007SBJP V0201701N00261007501CN0150001N9+02941+02441999999ADDAG10001GF105991051021008001001001MA1999999100941MD1710201+9999
0065827980999991987032421004-07100-034867FM-12+0007SBJP V0201301N00361220001CN0150001N9+02741+02441999999ADDAG10999GF102991021011008001001001MA1999999101041MD1210141+9999
0065827980999991987032503004-07100-034867FM-12+0007SBJP V0202401N00211220001CN0150001N9+02541+02441999999ADDAG10999GF100991001001999999001001MA1999999101041MD1210141+9999
0051827980999991987032512004-07100-034867FM-12+0007SBJP V0202101N00511007501CN0150001N9+02941+02541999999ADDAG10999GF107991071021008001001001MA1999999101141
0071827980999991987032515004-07100-034867FM-12+0007SBJP V0202101N00721004201CN9999999N9+02541+02141999999ADDAG10999GF106991061051004501001001MA1999999101141MD1410001+9999MW1601
0051827980999991987032612004-07100-034867FM-12+0007SBJP V0202001N00411007501CN0150001N9+02741+02441999999ADDAG10999GF106991061011008001001001MA1999999101141
0051827980999991987032621004-07100-034867FM-12+0007SBJP V0201601N00261105001CN0150001N9+02741+02341999999ADDAG10999GF106991021011008001001021MA1999999100841
0051827980999991987032718004-07100-034867FM-12+0007SBJP V0201501N00511045001CN0150001N9+02841+02441999999ADDAG10999GF107991041011008001031001MA1999999100941
0065827980999991987032721004-07100-034867FM-12+0007SBJP V0201201N00261007501CN0150001N9+02741+02441999999ADDAG10999GF106991061011008001001001MA1999999100841MD1210141+9999
0065827980999991987032800004-07100-034867FM-12+0007SBJP V0209991C00001007501CN0150001N9+02641+02541999999ADDAG10999GF106991061011008001001001MA1999999101041MD1210041+9999
0051827980999991987032809004-07100-034867FM-12+0007SBJP V0202701N00261007501CN0150001N9+02441+02341999999ADDAG10999GF106991061011008001001001MA1999999101141
0065827980999991987032812004-07100-034867FM-12+0007SBJP V0202101N00411007501CN0150001N9+02841+02441999999ADDAG10999GF105991051011008001001001MA1999999101241MD1210141+9999
0065827980999991987032815004-07100-034867FM-12+0007SBJP V0200901N00511007501CN0150001N9+03041+02441999999ADDAG10999GF107991071011008001001001MA1999999101041MD1210041+9999
0065827980999991987032818004-07100-034867FM-12+0007SBJP V0201201N00511007501CN0150001N9+02941+02441999999ADDAG10999GF105991051011008001001001MA1999999100941MD1710141+9999
0065827980999991987032909004-07100-034867FM-12+0007SBJP V0202601N00261007501CN0150001N9+02541+02441999999ADDAG10999GF108991051051008001031999MA1999999101041MD1210141+9999
0092827980999991987032921004-07100-034867FM-12+0007SBJP V0201401N00311045001CN0150001N9+02641+02541999999ADDAG10999AY111031GF106991041011008001021001MA1999999100841MD1410001+9999EQDQ01+000072PSTWM2
0087827980999991987033003004-07100-034867FM-12+0007SBJP V0200901N00411045001CN0020001N9+02541+02441999999ADDAG10999AY191031AY251031GF108991031051000751021999MA1999999101141MD1210141+9999MW1951
0073827980999991987033009004-07100-034867FM-12+0007SBJP V0202401N00311045001CN0150001N9+02441+02341999999ADDAG10999AY161031AY221031GF107991041011004501021001MA1999999101141MW1601
0065827980999991987033012004-07100-034867FM-12+0007SBJP V0209991C00001007501CN0150001N9+02541+02441999999ADDAG10999GF107991071011008001001001MA1999999101241MD1210101+9999
0065827980999991987033015004-07100-034867FM-12+0007SBJP V0209991C00001007501CN0150001N9+02841+02341999999ADDAG10999GF106991061011008001001001MA1999999101141MD1710141+9999
0065827980999991987033018004-07100-034867FM-12+0007SBJP V0201201N00411045001CN0150001N9+02841+02341999999ADDAG10999GF105991031011008001031001MA1999999100941MD1710241+9999
0051827980999991987033109004-07100-034867FM-12+0007SBJP V0202601N00311007501CN0150001N9+02341+02341999999ADDAG10999GF105991051011008001001001MA1999999101041
0076827980999991987033112004-07100-034867FM-12+0007SBJP V0201201N00311004201CN0060001N9+02741+02441999999ADDAG10999GF107991999051004501001001MA1999999101241MW1151EQDQ01+000052SCOTLC
0051827980999991987033121004-07100-034867FM-12+0007SBJP V0202101N00311007501CN0150001N9+02541+02441999999ADDAG10999GF106991061011008001001001MA1999999101041
0051827980999991987040118004-07100-034867FM-12+0007SBJP V0201501N00261220001CN0150001N9+02941+02541999999ADDAG10999GF103991031011008001001001MA1999999101241
0051827980999991987040212004-07100-034867FM-12+0007SBJP V0201501N00511007501CN0150001N9+02841+02441999999ADDAG10999GF106991061011008001001001MA1999999101341
0051827980999991987040218004-07100-034867FM-12+0007SBJP V0201501N00621007501CN0150001N9+02941+02441999999ADDAG10999GF106991061011008001001001MA1999999101141
0065827980999991987040221004-07100-034867FM-12+0007SBJP V0201701N00261220001CN0150001N9+02741+02441999999ADDAG10999GF104991041011008001001001MA1999999101141MD1410001+9999
0051827980999991987040309004-07100-034867FM-12+0007SBJP V0202101N00311007501CN0150001N9+02541+02441999999ADDAG10999GF105991051011008001001001MA1999999101241
0051827980999991987040315004-07100-034867FM-12+0007SBJP V0201501N00621007501CN0150001N9+03041+02341999999ADDAG10999GF107991071011008001001001MA1999999101341
0051827980999991987040409004-07100-034867FM-12+0007SBJP V0202201N00411009001CN0150001N9+02441+02341999999ADDAG10999GF107991071081004501001001MA1999999101241
0065827980999991987040412004-07100-034867FM-12+0007SBJP V0201901N00511007501CN0150001N9+02741+02441999999ADDAG10999GF107991071011008001001001MA1999999101341MD1210101+9999
0065827980999991987040415004-07100-034867FM-12+0007SBJP V0201301N00261007501CN0150001N9+02841+02341999999ADDAG10999GF105991051011008001031001MA1999999101241MD1710141+9999
0065827980999991987040418004-07100-034867FM-12+0007SBJP V0201701N00511004201CN0150001N9+02741+02441999999ADDAG10999GF107991071011004501001001MA1999999101041MD1710241+9999
0051827980999991987040503004-07100-034867FM-12+0007SBJP V0202101N00311007501CN0150001N9+02441+02341999999ADDAG10999GF107991051011008001021001MA1999999101241
0051827980999991987040512004-07100-034867FM-12+0007SBJP V0201301N00511220001CN0150001N9+02841+02541999999ADDAG10999GF104991041051004501001001MA1999999101341
0051827980999991987040521004-07100-034867FM-12+0007SBJP V0201201N00411007501CN0150001N9+02841+02441999999ADDAG10999GF105991051011008001001001MA1999999101141
0070827980999991987040615004-07100-034867FM-12+0007SBJP V0201301N00621007501CN0045001N9+03141+02441999999ADDAG10999GF107991999011008001001001MA1999999101441EQDQ01+000062SCOTLC
0065827980999991987040618004-07100-034867FM-12+0007SBJP V0201801N00311220001CN0150001N9+03141+02341999999ADDAG10999GF103991031011008001001001MA1999999101241MD1710241+9999
0065827980999991987040621004-07100-034867FM-12+0007SBJP V0201801N00311220001CN0150001N9+02741+02441999999ADDAG10999GF101991011011008001001001MA1999999101341MD1210141+9999
0065827980999991987040700004-07100-034867FM-12+0007SBJP V0201801N00261220001CN0150001N9+02641+02441999999ADDAG10999GF101991011011008001001001MA1999999101441MD1210241+9999
0073827980999991987040709004-07100-034867FM-12+0007SBJP V0201201N00211007501CN0020001N9+02441+02341999999ADDAG10999AY161031AY221031GF107991071051008001001001MA1999999101541MW1631
0065827980999991987040712004-07100-034867FM-12+0007SBJP V0201901N00311007501CN0150001N9+02841+02541999999ADDAG10999GF106991061011008001001001MA1999999101641MD1210101+9999
0065827980999991987040715004-07100-034867FM-12+0007SBJP V0201501N00511007501CN0150001N9+03041+02341999999ADDAG10999GF105991051011008001001001MA1999999101541MD1210141+9999
0065827980999991987040718004-07100-034867FM-12+0007SBJP V0201801N00511220001CN0150001N9+03141+02341999999ADDAG10999GF104991041011008001031001MA1999999101341MD1710241+9999
0065827980999991987040721004-07100-034867FM-12+0007SBJP V0201901N00311220001CN0150001N9+02841+02641999999ADDAG10999GF103991031011008001001001MA1999999101441MD1210141+9999
0051827980999991987040803004-07100-034867FM-12+0007SBJP V0202401N00361220001CN0150001N9+02541+02441999999ADDAG10999GF101991011011008001001001MA1999999101441
0065827980999991987040809004-07100-034867FM-12+0007SBJP V0202401N00411220001CN0150001N9+02441+02341999999ADDAG10999GF103991031011008001001001MA1999999101341MD1210141+9999
0087827980999991987040812004-07100-034867FM-12+0007SBJP V0201701N00621045001CN0080001N9+02641+02441999999ADDAG10999AY151061AY201061GF108991041051000751031999MA1999999101641MD1210141+9999MW1501
0081827980999991987040815004-07100-034867FM-12+0007SBJP V0200601N00411007501CN0150001N9+02841+02441999999ADDAG10999AY151031AY201031GF107991071011008001001001MA1999999101441MD1710241+9999
0071827980999991987040818004-07100-034867FM-12+0007SBJP V0201601N00511045001CN0050001N9+02741+02541999999ADDAG10999GF106991031051002501021001MA1999999101241MD1710241+9999MW1501
0081827980999991987040821004-07100-034867FM-12+0007SBJP V0201701N00261007501CN0150001N9+02541+02441999999ADDAG10999AY151031AY201031GF106991051011008001021001MA1999999101341MD1210141+9999
0051827980999991987040909004-07100-034867FM-12+0007SBJP V0202401N00311007501CN0150001N9+02441+02341999999ADDAG10999GF105991051011008001001001MA1999999101241
0065827980999991987040912004-07100-034867FM-12+0007SBJP V0201801N00511007501CN0150001N9+02841+02541999999ADDAG10999GF107991071011008001001001MA1999999101341MD1210101+9999
0065827980999991987040918004-07100-034867FM-12+0007SBJP V0201501N00621007501CN0150001N9+02841+02541999999ADDAG10999GF107991071011008001001001MA1999999101041MD1710141+9999
0051827980999991987041003004-07100-034867FM-12+0007SBJP V0203301N00261007501CN0150001N9+02541+02441999999ADDAG10999GF106991061011008001001001MA1999999101241
0057827980999991987041012004-07100-034867FM-12+0007SBJP V0202701N00361004201CN0060001N9+02541+02441999999ADDAG10999GF105991051051004501001001MA1999999101341MW1101
0051827980999991987041021004-07100-034867FM-12+0007SBJP V0201301N00411004201CN0150001N9+02741+02541999999ADDAG10999GF105991051051004501001001MA1999999101041
0051827980999991987041115004-07100-034867FM-12+0007SBJP V0201501N00621007501CN0150001N9+03041+02441999999ADDAG10999GF105991051011008001001001MA1999999101241
0065827980999991987041118004-07100-034867FM-12+0007SBJP V0201201N00571007501CN0150001N9+03041+02441999999ADDAG10999GF105991051011008001001001MA1999999101041MD1710241+9999
0065827980999991987041121004-07100-034867FM-12+0007SBJP V0201801N00411045001CN0150001N9+02741+02441999999ADDAG10999GF108991021011008001031011MA1999999101041MD1210141+9999
0065827980999991987041200004-07100-034867FM-12+0007SBJP V0201701N00361220001CN0150001N9+02641+02441999999ADDAG10999GF103991031011008001001001MA1999999101241MD1210141+9999
0051827980999991987041209004-07100-034867FM-12+0007SBJP V0202101N00361007501CN0150001N9+02441+02341999999ADDAG10999GF105991051011008001001021MA1999999101041
0065827980999991987041212004-07100-034867FM-12+0007SBJP V0202201N00411045001CN0150001N9+02541+02441999999ADDAG10999GF105991041011008001021001MA1999999101241MD1210241+9999
0051827980999991987041221004-07100-034867FM-12+0007SBJP V0202101N00411220001CN0150001N9+02741+02341999999ADDAG10001GF103991031021008001001001MA1999999101041
0065827980999991987041300004-07100-034867FM-12+0007SBJP V0202001N00261220001CN0150001N9+02541+02441999999ADDAG10001GF103991031011008001001001MA1999999101241MD1210201+9999
0065827980999991987041309004-07100-034867FM-12+0007SBJP V0202401N00311220001CN0150001N9+02341+02241999999ADDAG10999GF101991011011008001001001MA1999999101041MD1210141+9999
0065827980999991987041312004-07100-034867FM-12+0007SBJP V0201301N00511007501CN0150001N9+02941+02441999999ADDAG10999GF106991061011008001001001MA1999999101241MD1210141+9999
0065827980999991987041318004-07100-034867FM-12+0007SBJP V0201501N00411007501CN0150001N9+03041+02341999999ADDAG10999GF106991061011008001001001MA1999999101041MD1710201+9999
0065827980999991987041321004-07100-034867FM-12+0007SBJP V0201801N00311220001CN0150001N9+02741+02441999999ADDAG10999GF102991021011008001001001MA1999999101041MD1410001+9999
0065827980999991987041400004-07100-034867FM-12+0007SBJP V0202001N00311220001CN0150001N9+02541+02441999999ADDAG10999GF101991011011008001001001MA1999999101141MD1210101+9999
0051827980999991987041409004-07100-034867FM-12+0007SBJP V0202201N00261105001CN0150001N9+02341+02241999999ADDAG10999GF105991021011008001001021MA1999999101241
0065827980999991987041412004-07100-034867FM-12+0007SBJP V0201801N00261007501CN0150001N9+02841+02241999999ADDAG10999GF106991061011008001001001MA1999999101341MD1210141+9999
0051827980999991987041509004-07100-034867FM-12+0007SBJP V0202401N00411045001CN0150001N9+02341+02341999999ADDAG10999GF107991041051004501021001MA1999999101341
0057827980999991987041615004-07100-034867FM-12+0007SBJP V0201601N00511004201CN0050001N9+02541+02441999999ADDAG10999GF106991051011004501031001MA1999999101241MW1601
0081827980999991987041618004-07100-034867FM-12+0007SBJP V0201601N00511045001CN0150001N9+02841+02541999999ADDAG10999AY161061AY201061GF106991041011008001031001MA1999999101141MD1710141+9999
0065827980999991987041621004-07100-034867FM-12+0007SBJP V0202101N00261220001CN0150001N9+02641+02441999999ADDAG10999GF104991021051008001031011MA1999999101241MD1210141+9999
0087827980999991987041700004-07100-034867FM-12+0007SBJP V0209991C00001220001CN0150001N9+02541+02441999999ADDAG10999AY121061AY211061GF103991031051000751001001MA1999999101341MD1210041+9999MW1211
0057827980999991987041709004-07100-034867FM-12+0007SBJP V0202301N00311004201CN0150001N9+02441+02341999999ADDAG10999GF106991061011004501001001MA1999999101241MW1211
0065827980999991987041715004-07100-034867FM-12+0007SBJP V0201501N00511007501CN0150001N9+02941+02441999999ADDAG10999GF107991071011008001001001MA1999999101441MD1210141+9999
0065827980999991987041718004-07100-034867FM-12+0007SBJP V0201601N00511045001CN0150001N9+02941+02341999999ADDAG10999GF108991041031008001011999MA1999999101341MD1710241+9999
0065827980999991987041721004-07100-034867FM-12+0007SBJP V0201801N00361220001CN0150001N9+02641+02341999999ADDAG10999GF103991031011008001001001MA1999999101341MD1410001+9999
0065827980999991987041809004-07100-034867FM-12+0007SBJP V0202101N00311220001CN0150001N9+02341+02341999999ADDAG10999GF103991031011008001001001MA1999999101441MD1210141+9999
0065827980999991987041812004-07100-034867FM-12+0007SBJP V0201501N00621007501CN0150001N9+02841+02441999999ADDAG10999GF106991061011008001001001MA1999999101541MD1210141+9999
0051827980999991987041815004-07100-034867FM-12+0007SBJP V0201701N00721007501CN0150001N9+02941+02441999999ADDAG10999GF106991061011008001001001MA1999999101441
0065827980999991987041818004-07100-034867FM-12+0007SBJP V0201601N00511220001CN0150001N9+03041+02341999999ADDAG10999GF103991031011008001001001MA1999999101341MD1710101+9999
0065827980999991987041821004-07100-034867FM-12+0007SBJP V0201601N00411220001CN0150001N9+02741+02441999999ADDAG10999GF101991011011008001001001MA1999999101441MD1210141+9999
0051827980999991987041912004-07100-034867FM-12+0007SBJP V0201501N00721220001CN0150001N9+02841+02341999999ADDAG10999GF104991041011008001001001MA1999999101441
0065827980999991987041915004-07100-034867FM-12+0007SBJP V0201501N00771007501CN0150001N9+03141+02341999999ADDAG10999GF106991061011008001001001MA1999999101341MD1710141+9999
0065827980999991987041918004-07100-034867FM-12+0007SBJP V0201801N00621007501CN0150001N9+03041+02341999999ADDAG10999GF105991051011008001001001MA1999999101241MD1710141+9999
0051827980999991987042003004-07100-034867FM-12+0007SBJP V0202001N00261220001CN0150001N9+02541+02341999999ADDAG10999GF104991041011008001001001MA1999999101441
0051827980999991987042006004-07100-034867FM-12+0007SBJP V0202201N00261007501CN0150001N9+02441+02441999999ADDAG10999GF106991061011008001001001MA1999999101241
0065827980999991987042009004-07100-034867FM-12+0007SBJP V0202401N00311045001CN0150001N9+02441+02341999999ADDAG10999GF105991021011008001031001MA1999999101341MD1210141+9999
0071827980999991987042012004-07100-034867FM-12+0007SBJP V0202001N00361004201CN0080001N9+02641+02541999999ADDAG10999GF106991061041004501001001MA1999999101541MD1210241+9999MW1501
0065827980999991987042121004-07100-034867FM-12+0007SBJP V0201501N00361007501CN0150001N9+02741+02341999999ADDAG10999GF105991051011008001001001MA1999999101241MD1210041+9999
0065827980999991987042215004-07100-034867FM-12+0007SBJP V0201601N00821007501CN0150001N9+02941+02441999999ADDAG10999GF107991071011008001001001MA1999999101241MD1210141+9999
0065827980999991987042218004-07100-034867FM-12+0007SBJP V0201601N00511007501CN0150001N9+03041+02341999999ADDAG10999GF106991061011008001001001MA1999999101041MD1710141+9999
0065827980999991987042221004-07100-034867FM-12+0007SBJP V0201901N00411220001CN0150001N9+02741+02441999999ADDAG10999GF103991031011008001001001MA1999999101141MD1210101+9999
0065827980999991987042300004-07100-034867FM-12+0007SBJP V0202101N00261007501CN0150001N9+02441+02341999999ADDAG10999GF107991051011008001071001MA1999999101341MD1210201+9999
0065827980999991987042312004-07100-034867FM-12+0007SBJP V0201701N00721007501CN0150001N9+02941+02441999999ADDAG10999GF106991061011008001001001MA1999999101341MD1210141+9999
0065827980999991987042315004-07100-034867FM-12+0007SBJP V0201701N00621007501CN0150001N9+03041+02441999999ADDAG10999GF105991051011008001001001MA1999999101241MD1710101+9999
0065827980999991987042403004-07100-034867FM-12+0007SBJP V0201801N00311220001CN0150001N9+02541+02441999999ADDAG10999GF103991031011008001001001MA1999999101141MD1210141+9999
0051827980999991987042409004-07100-034867FM-12+0007SBJP V0202401N00361220001CN0150001N9+02341+02241999999ADDAG10999GF103991031011008001001001MA1999999101141
0065827980999991987042418004-07100-034867FM-12+0007SBJP V0201601N00411007501CN0150001N9+02941+02441999999ADDAG10999GF107991071011008001001001MA1999999100941MD1710241+9999
0073827980999991987042503004-07100-034867FM-12+0007SBJP V0202401N00411004201CN0150001N9+02441+02341999999ADDAG10999AY151031AY221031GF107991051051004501011001MA1999999101141MW1501
0051827980999991987042509004-07100-034867FM-12+0007SBJP V0201501N00261220001CN0150001N9+02341+02241999999ADDAG10999GF104991041041002501001001MA1999999101041
0065827980999991987042621004-07100-034867FM-12+0007SBJP V0201501N00311045001CN0150001N9+02741+02641999999ADDAG10999GF108991041011008001031011MA1999999101041MD1210141+9999
0073827980999991987042709004-07100-034867FM-12+0007SBJP V0202701N00261220001CN0080001N9+02441+02441999999ADDAG10999AY161031AY201031GF102991021011008001001001MA1999999101241MW1211
0065827980999991987042712004-07100-034867FM-12+0007SBJP V0201601N00311007501CN0150001N9+02941+02541999999ADDAG10999GF105991051021008001001001MA1999999101441MD1210201+9999
0065827980999991987042715004-07100-034867FM-12+0007SBJP V0201201N00461220001CN0150001N9+03041+02441999999ADDAG10999GF104991041011008001001001MA1999999101241MD1210141+9999
0065827980999991987042718004-07100-034867FM-12+0007SBJP V0201501N00621220001CN0150001N9+03141+02441999999ADDAG10999GF104991041011008001001001MA1999999101041MD1710241+9999
0065827980999991987042721004-07100-034867FM-12+0007SBJP V0201301N00311220001CN0150001N9+02841+02541999999ADDAG10999GF102991021011008001001001MA1999999101141MD1210141+9999
0065827980999991987042809004-07100-034867FM-12+0007SBJP V0202501N00311220001CN0150001N9+02541+02441999999ADDAG10999GF104991041011008001001001MA1999999101341MD1210141+9999
0065827980999991987042812004-07100-034867FM-12+0007SBJP V0201901N00511007501CN0150001N9+02941+02541999999ADDAG10999GF106991061011008001001001MA1999999101541MD1210141+9999
0051827980999991987042815004-07100-034867FM-12+0007SBJP V0201601N00411007501CN0150001N9+03041+02441999999ADDAG10999GF106991061011008001001001MA1999999101441
0051827980999991987042818004-07100-034867FM-12+0007SBJP V0201801N00621007501CN0150001N9+03141+02341999999ADDAG10999GF105991051011008001001001MA1999999101341
0065827980999991987042821004-07100-034867FM-12+0007SBJP V0201701N00411220001CN0150001N9+02641+02441999999ADDAG10999GF103991031011008001001001MA1999999101341MD1410001+9999
0051827980999991987042909004-07100-034867FM-12+0007SBJP V0202401N00261220001CN0150001N9+02441+02341999999ADDAG10999GF102991021011008001001001MA1999999101441
0065827980999991987042912004-07100-034867FM-12+0007SBJP V0201901N00511007501CN0150001N9+02941+02441999999ADDAG10999GF105991051011008001001001MA1999999101541MD1210101+9999
0065827980999991987042915004-07100-034867FM-12+0007SBJP V0201801N00721220001CN0150001N9+03141+02341999999ADDAG10999GF104991041011008001001001MA1999999101441MD1710141+9999
0065827980999991987042918004-07100-034867FM-12+0007SBJP V0202001N00411007501CN0150001N9+03041+02341999999ADDAG10999GF105991051011008001001001MA1999999101241MD1710241+9999
0051827980999991987043012004-07100-034867FM-12+0007SBJP V0201801N00411007501CN0150001N9+02941+02341999999ADDAG10999GF105991051011008001001001MA1999999101441
0051827980999991987043021004-07100-034867FM-12+0007SBJP V0201801N00311220001CN0150001N9+02741+02341999999ADDAG10999GF101991011011008001001001MA1999999101141
0051827980999991987050115004-07100-034867FM-12+0007SBJP V0201501N00411007501CN0150001N9+03141+02441999999ADDAG10999GF106991061011008001001001MA1999999101041
0065827980999991987050118004-07100-034867FM-12+0007SBJP V0201501N00411220001CN0150001N9+03141+02341999999ADDAG10999GF103991031011008001001001MA1999999100841MD1710241+9999
0065827980999991987050121004-07100-034867FM-12+0007SBJP V0201501N00411220001CN0150001N9+02741+02441999999ADDAG10999GF102991021011008001001001MA1999999100941MD1210141+9999
0051827980999991987050209004-07100-034867FM-12+0007SBJP V0202801N00411220001CN0120001N9+02341+02341999999ADDAG10999GF102991021011008001001001MA1999999101041
0065827980999991987050212004-07100-034867FM-12+0007SBJP V0201501N00411007501CN0150001N9+02941+02441999999ADDAG10001GF107991071011008001001001MA1999999101241MD1210241+9999
0065827980999991987050215004-07100-034867FM-12+0007SBJP V0201501N00621007501CN0150001N9+03141+02341999999ADDAG10999GF107991071011008001001001MA1999999101141MD1210141+9999
0065827980999991987050218004-07100-034867FM-12+0007SBJP V0201101N00411220001CN0150001N9+03141+02441999999ADDAG10999GF103991031011008001001001MA1999999100941MD1710141+9999
0065827980999991987050221004-07100-034867FM-12+0007SBJP V0201201N00261220001CN0150001N9+02841+02441999999ADDAG10999GF103991031011008001001001MA1999999100941MD1410001+9999
0065827980999991987050300004-07100-034867FM-12+0007SBJP V0201201N00211220001CN0150001N9+02641+02441999999ADDAG10999GF103991031011008001001001MA1999999101141MD1210201+9999
0065827980999991987050309004-07100-034867FM-12+0007SBJP V0202301N00261220001CN0150001N9+02541+02441999999ADDAG10999GF103991031011008001001001MA1999999101041MD1210141+9999
0051827980999991987050315004-07100-034867FM-12+0007SBJP V0200901N00411007501CN0150001N9+03141+02441999999ADDAG10999GF105991051011008001001001MA1999999101141
0065827980999991987050318004-07100-034867FM-12+0007SBJP V0200901N00621220001CN0150001N9+03141+02341999999ADDAG10999GF104991041011008001001001MA1999999100941MD1710201+9999
0065827980999991987050321004-07100-034867FM-12+0007SBJP V0201501N00411220001CN0150001N9+02741+02441999999ADDAG10999GF102991021011008001001001MA1999999101041MD1210141+9999
0051827980999991987050409004-07100-034867FM-12+0007SBJP V0203301N00211220001CN0150001N9+02341+02241999999ADDAG10999GF103991031011008001001001MA1999999101141
0065827980999991987050412004-07100-034867FM-12+0007SBJP V0201501N00311220001CN0150001N9+02841+02541999999ADDAG10999GF104991041011008001001001MA1999999101341MD1210201+9999
0051827980999991987050509004-07100-034867FM-12+0007SBJP V0209991C00001004201CN0150001N9+02541+02441999999ADDAG10999GF105991051041004501001001MA1999999101341
0071827980999991987050512004-07100-034867FM-12+0007SBJP V0201501N00771004201CN0080001N9+02941+02541999999ADDAG10999GF105991051041004501001001MA1999999101441MD1210101+9999MW1601
0051827980999991987050521004-07100-034867FM-12+0007SBJP V0201901N00361220001CN0150001N9+02741+02441999999ADDAG10999GF102991021011008001001001MA1999999101141
0051827980999991987050615004-07100-034867FM-12+0007SBJP V0201801N00511007501CN0150001N9+03041+02441999999ADDAG10999GF107991071011008001001001MA1999999101241
0065827980999991987050618004-07100-034867FM-12+0007SBJP V0201801N00511045001CN0150001N9+02941+02341999999ADDAG10999GF106991041011008001031001MA1999999101141MD1710141+9999
0057827980999991987050709004-07100-034867FM-12+0007SBJP V0202201N00261220001CN0150001N9+02341+02341999999ADDAG10999GF103991031011008001001001MA1999999101241MW1211
0065827980999991987050715004-07100-034867FM-12+0007SBJP V0201601N00411220001CN0150001N9+03041+02241999999ADDAG10999GF103991031021008001001001MA1999999101241MD1710201+9999
0065827980999991987050718004-07100-034867FM-12+0007SBJP V0201501N00621002101CN0150001N9+03041+02341999999ADDAG10999GF105991051031002501001001MA1999999101041MD1710201+9999
0065827980999991987050721004-07100-034867FM-12+0007SBJP V0201801N00361220001CN0150001N9+02741+02441999999ADDAG10999GF101991011011008001001001MA1999999101141MD1210101+9999
0051827980999991987050809004-07100-034867FM-12+0007SBJP V0202401N00311220001CN0150001N9+02341+02241999999ADDAG10999GF102991021011008001001001MA1999999101241
0065827980999991987050812004-07100-034867FM-12+0007SBJP V0201601N00621001201CN0150001N9+02841+02441999999ADDAG10999GF105991051021001501001001MA1999999101441MD1210201+9999
0065827980999991987050815004-07100-034867FM-12+0007SBJP V0201501N00511007501CN0150001N9+03141+02241999999ADDAG10999GF105991051011008001001001MA1999999101241MD1710201+9999
0065827980999991987050818004-07100-034867FM-12+0007SBJP V0201801N00621220001CN0150001N9+03141+02341999999ADDAG10999GF104991041011008001001001MA1999999101041MD1710201+9999
0065827980999991987050821004-07100-034867FM-12+0007SBJP V0201801N00261220001CN0150001N9+02641+02341999999ADDAG10999GF101991011011008001001001MA1999999101141MD1210101+9999
0051827980999991987050909004-07100-034867FM-12+0007SBJP V0202601N00261220001CN0150001N9+02041+01941999999ADDAG10999GF100991001001999999001001MA1999999101141
0065827980999991987050912004-07100-034867FM-12+0007SBJP V0202101N00411220001CN0150001N9+02841+02341999999ADDAG10999GF104991041011008001001001MA1999999101441MD1210301+9999
0065827980999991987050915004-07100-034867FM-12+0007SBJP V0201501N00411007501CN0150001N9+03041+02241999999ADDAG10999GF105991051011008001001001MA1999999101441MD1410001+9999
0065827980999991987050918004-07100-034867FM-12+0007SBJP V0201601N00411220001CN0150001N9+03041+02441999999ADDAG10999GF104991041011008001001001MA1999999101241MD1710201+9999
0051827980999991987051009004-07100-034867FM-12+0007SBJP V0202501N00311220001CN0150001N9+02241+02141999999ADDAG10999GF101991011011008001001001MA1999999101341
0065827980999991987051012004-07100-034867FM-12+0007SBJP V0202201N00361007501CN0150001N9+02841+02441999999ADDAG10999GF105991051011008001001001MA1999999101541MD1210201+9999
0057827980999991987051115004-07100-034867FM-12+0007SBJP V0202101N00621007501CN0150001N9+02541+02441999999ADDAG10999GF107991071011008001001001MA1999999101541MW1211
0051827980999991987051212004-07100-034867FM-12+0007SBJP V0201601N00621007501CN0150001N9+02941+02441999999ADDAG10999GF106991061011008001001001MA1999999101641
0051827980999991987051309004-07100-034867FM-12+0007SBJP V0202201N00311220001CN0150001N9+02341+02241999999ADDAG10999GF103991031011004501999999MA1999999101341
0065827980999991987051315004-07100-034867FM-12+0007SBJP V0201701N00771007501CN0150001N9+03041+02341999999ADDAG10999GF106991061011008001001001MA1999999101341MD1710201+9999
0065827980999991987051318004-07100-034867FM-12+0007SBJP V0201801N00511220001CN0150001N9+03041+02341999999ADDAG10999GF104991041011008001001001MA1999999101141MD1710201+9999
0065827980999991987051321004-07100-034867FM-12+0007SBJP V0202001N00461220001CN0150001N9+02741+02341999999ADDAG10999GF102991021011008001001001MA1999999101241MD1210141+9999
0051827980999991987051412004-07100-034867FM-12+0007SBJP V0201501N00511220001CN0150001N9+02941+02341999999ADDAG10999GF104991041011008001001001MA1999999101341
0065827980999991987051418004-07100-034867FM-12+0007SBJP V0201601N00621007501CN0150001N9+03041+02341999999ADDAG10999GF106991061011008001001001MA1999999100941MD1710301+9999
0051827980999991987051509004-07100-034867FM-12+0007SBJP V0202401N00261004201CN0150001N9+02341+02341999999ADDAG10999GF107991071051004501001001MA1999999101141
0065827980999991987051512004-07100-034867FM-12+0007SBJP V0201701N00671220001CN0150001N9+02841+02441999999ADDAG10999GF103991031011008001001001MA1999999101241MD1210101+9999
0065827980999991987051515004-07100-034867FM-12+0007SBJP V0201501N00511007501CN0150001N9+03041+02341999999ADDAG10999GF105991051011008001001001MA1999999101041MD1710201+9999
0065827980999991987051518004-07100-034867FM-12+0007SBJP V0201701N00511220001CN0150001N9+03041+02241999999ADDAG10999GF104991041011008001001001MA1999999100941MD1710101+9999
0065827980999991987051521004-07100-034867FM-12+0007SBJP V0201601N00511220001CN0150001N9+02841+02341999999ADDAG10999GF102991021011008001001001MA1999999100941MD1410001+9999
0051827980999991987051615004-07100-034867FM-12+0007SBJP V0201501N00621007501CN0150001N9+03041+02241999999ADDAG10999GF105991051011008001001001MA1999999101141
0065827980999991987051618004-07100-034867FM-12+0007SBJP V0201801N00721220001CN0150001N9+03041+02041999999ADDAG10999GF103991031011008001001001MA1999999100941MD1710241+9999
0065827980999991987051621004-07100-034867FM-12+0007SBJP V0201501N00261220001CN0150001N9+02641+02241999999ADDAG10999GF100991001001999999001001MA1999999101041MD1210101+9999
0051827980999991987051709004-07100-034867FM-12+0007SBJP V0202501N00261220001CN0150001N9+02241+02141999999ADDAG10999GF101991011011008001001001MA1999999101141
0065827980999991987051712004-07100-034867FM-12+0007SBJP V0201501N01031220001CN0150001N9+02841+02341999999ADDAG10999GF104991041011008001001001MA1999999101241MD1210141+9999
0065827980999991987051715004-07100-034867FM-12+0007SBJP V0201501N01031007501CN0150001N9+03041+02241999999ADDAG10999GF105991051011008001001001MA1999999101241MD1410001+9999
0065827980999991987051718004-07100-034867FM-12+0007SBJP V0201301N00511220001CN0150001N9+03041+02141999999ADDAG10999GF102991021011008001001001MA1999999101141MD1710101+9999
0065827980999991987051721004-07100-034867FM-12+0007SBJP V0201801N00261220001CN0150001N9+02641+02241999999ADDAG10999GF101991011011008001001001MA1999999101141MD1410001+9999
0051827980999991987051809004-07100-034867FM-12+0007SBJP V0202701N00261220001CN0150001N9+02341+02241999999ADDAG10999GF104991041011008001001001MA1999999101241
0100827980999991987051812004-07100-034867FM-12+0007SBJP V0202001N00261007501CN0150001N9+02741+02241999999ADDAG10999GF105991051011008001001001MA1999999101341MD1210101+9999EQDQ01+000072APCTENQ02+000902APC3  
0065827980999991987051815004-07100-034867FM-12+0007SBJP V0201601N00411007501CN0150001N9+03041+02341999999ADDAG10999GF106991061011008001001001MA1999999101141MD1710201+9999
0065827980999991987051821004-07100-034867FM-12+0007SBJP V0201501N00311220001CN0150001N9+02641+02341999999ADDAG10999GF101991011011008001001001MA1999999101141MD1210101+9999
0051827980999991987051909004-07100-034867FM-12+0007SBJP V0202801N00261220001CN0150001N9+02141+02041999999ADDAG10999GF101991011011008001001001MA1999999101141
0051827980999991987051918004-07100-034867FM-12+0007SBJP V0201401N00411220001CN0150001N9+03041+02341999999ADDAG10999GF104991041011008001001001MA1999999100941
0051827980999991987052009004-07100-034867FM-12+0007SBJP V0202801N00261220001CN0150001N9+02241+02141999999ADDAG10999GF101991011011008001001001MA1999999101141
0065827980999991987052012004-07100-034867FM-12+0007SBJP V0201801N00261007501CN0150001N9+02841+02541999999ADDAG10999GF106991061011008001001001MA1999999101341MD1210201+9999
0051827980999991987052115004-07100-034867FM-12+0007SBJP V0201301N00411007501CN0150001N9+03041+02241999999ADDAG10999GF107991071011008001001001MA1999999101141
0065827980999991987052118004-07100-034867FM-12+0007SBJP V0201201N00511007501CN0150001N9+03041+02341999999ADDAG10999GF105991051011008001001001MA1999999101041MD1710241+9999
0065827980999991987052121004-07100-034867FM-12+0007SBJP V0201301N00361220001CN0150001N9+02741+02341999999ADDAG10999GF101991011011008001001001MA1999999101141MD1210101+9999
0051827980999991987052209004-07100-034867FM-12+0007SBJP V0209991C00001220001CN0150001N9+02241+02141999999ADDAG10999GF102991021011008001001001MA1999999101241
0065827980999991987052212004-07100-034867FM-12+0007SBJP V0201201N00211007501CN0150001N9+02941+02441999999ADDAG10999GF106991061011008001001001MA1999999101441MD1210241+9999
0065827980999991987052218004-07100-034867FM-12+0007SBJP V0201501N00931220001CN0150001N9+03041+02241999999ADDAG10999GF103991031021008001001001MA1999999101041MD1710201+9999
0065827980999991987052221004-07100-034867FM-12+0007SBJP V0201701N00511220001CN0150001N9+02741+02241999999ADDAG10999GF101991011011008001001001MA1999999101141MD1210101+9999
0051827980999991987052309004-07100-034867FM-12+0007SBJP V0202201N00211220001CN0150001N9+02341+02141999999ADDAG10999GF104991041011008001001001MA1999999101241
0051827980999991987052312004-07100-034867FM-12+0007SBJP V0201501N00931009001CN0150001N9+02841+02541999999ADDAG10999GF107991071081004501001001MA1999999101341
0065827980999991987052315004-07100-034867FM-12+0007SBJP V0201501N01231007501CN0150001N9+03041+02241999999ADDAG10001GF106991061011008001001001MA1999999101241MD1710101+9999
0065827980999991987052318004-07100-034867FM-12+0007SBJP V0201601N00621007501CN0150001N9+03041+02241999999ADDAG10999GF105991051011008001001001MA1999999101041MD1710201+9999
0065827980999991987052321004-07100-034867FM-12+0007SBJP V0201801N00411220001CN0150001N9+02741+02341999999ADDAG10999GF104991041011008001001001MA1999999101141MD1210101+9999
0051827980999991987052409004-07100-034867FM-12+0007SBJP V0202201N00261220001CN0150001N9+02341+02241999999ADDAG10999GF103991031011008001001001MA1999999101241
0065827980999991987052412004-07100-034867FM-12+0007SBJP V0201501N00771220001CN0150001N9+02941+02241999999ADDAG10999GF104991041011008001001001MA1999999101441MD1210201+9999
0065827980999991987052415004-07100-034867FM-12+0007SBJP V0201601N00411007501CN0150001N9+03041+02241999999ADDAG10999GF107991071011008001001001MA1999999101341MD1710101+9999
0065827980999991987052418004-07100-034867FM-12+0007SBJP V0201701N00621007501CN0150001N9+03041+02341999999ADDAG10999GF105991051011008001001001MA1999999101141MD1710201+9999
0051827980999991987052509004-07100-034867FM-12+0007SBJP V0202501N00261220001CN0150001N9+02241+02141999999ADDAG10999GF103991031011008001001001MA1999999101341
0065827980999991987052512004-07100-034867FM-12+0007SBJP V0202101N00311009001CN0150001N9+02841+02441999999ADDAG10999GF106991061081004501001001MA1999999101641MD1210301+9999
0065827980999991987052621004-07100-034867FM-12+0007SBJP V0201801N00511105001CN0150001N9+99999+99999999999ADDAG10999GF107991021051008001001031MA1999999101501MD1210201+9999
0051827980999991987052712004-07100-034867FM-12+0007SBJP V0202401N00511220001CN0150001N9+02841+02341999999ADDAG10999GF103991031011008001001001MA1999999101841
0065827980999991987052715004-07100-034867FM-12+0007SBJP V0201801N00621220001CN0150001N9+03141+02141999999ADDAG10999GF104991041011008001001001MA1999999101641MD1710201+9999
0051827980999991987052718004-07100-034867FM-12+0007SBJP V0201801N00721220001CN0150001N9+03141+02141999999ADDAG10999GF104991041011008001001001MA1999999101341
0065827980999991987052721004-07100-034867FM-12+0007SBJP V0201801N00511220001CN0150001N9+02741+02241999999ADDAG10999GF101991011011008001001001MA1999999101541MD1210201+9999
0051827980999991987052809004-07100-034867FM-12+0007SBJP V0202401N00311220001CN0150001N9+02341+02241999999ADDAG10999GF102991021011008001001001MA1999999101641
0065827980999991987052812004-07100-034867FM-12+0007SBJP V0202101N00411007501CN0150001N9+02741+02441999999ADDAG10999GF106991061011008001001001MA1999999101841MD1210201+9999
0065827980999991987052815004-07100-034867FM-12+0007SBJP V0202001N00721009001CN0050001N9+02641+02441999999ADDAG10999GF107991071081004501001001MA1999999101741MD1710101+9999
0087827980999991987052818004-07100-034867FM-12+0007SBJP V0201801N00511045001CN0150001N9+02941+02241999999ADDAG10999AY161061AY221061GF106991031021008001031001MA1999999101541MD1710201+9999MW1021
0065827980999991987052821004-07100-034867FM-12+0007SBJP V0201801N00511045001CN0150001N9+02741+02341999999ADDAG10999GF105991041011008001031001MA1999999101641MD1210101+9999
0051827980999991987052909004-07100-034867FM-12+0007SBJP V0202401N00411220001CN0150001N9+02341+02141999999ADDAG10999GF100991001001999999001001MA1999999101641
0065827980999991987052918004-07100-034867FM-12+0007SBJP V0201701N00411045001CN0150001N9+02941+02441999999ADDAG10999GF107991041011008001021001MA1999999101541MD1710201+9999
0051827980999991987053012004-07100-034867FM-12+0007SBJP V0201601N00261007501CN0150001N9+02841+02241999999ADDAG10999GF105991051011008001001001MA1999999101741
0051827980999991987053021004-07100-034867FM-12+0007SBJP V0201401N00261220001CN0150001N9+02741+02341999999ADDAG10999GF101991011011008001001001MA1999999101541
0051827980999991987053118004-07100-034867FM-12+0007SBJP V0201501N00621220001CN0150001N9+03041+02341999999ADDAG10999GF104991041011008001001001MA1999999101441
0065827980999991987053121004-07100-034867FM-12+0007SBJP V0201601N00311220001CN0150001N9+02741+02441999999ADDAG10999GF102991021051008001001001MA1999999101541MD1210101+9999
0051827980999991987060109004-07100-034867FM-12+0007SBJP V0202201N00411004201CN0050001N9+02341+02341999999ADDAG10999GF108991051051004501021999MA1999999101541
0065827980999991987060115004-07100-034867FM-12+0007SBJP V0202201N00511007501CN0150001N9+02941+02341999999ADDAG10999GF105991051011008001001001MA1999999101541MD1710101+9999
0065827980999991987060118004-07100-034867FM-12+0007SBJP V0201801N00411220001CN0150001N9+03041+02341999999ADDAG10999GF104991041011008001001001MA1999999101441MD1710101+9999
0051827980999991987060209004-07100-034867FM-12+0007SBJP V0201801N00311045001CN0150001N9+02341+02241999999ADDAG10001GF106991031051004501051001MA1999999101541
0065827980999991987060212004-07100-034867FM-12+0007SBJP V0201701N00511007501CN0150001N9+02741+02341999999ADDAG10999GF105991051011008001001001MA1999999101641MD1210101+9999
0065827980999991987060215004-07100-034867FM-12+0007SBJP V0201801N00511007501CN0150001N9+02741+02341999999ADDAG10999GF105991051021008001001001MA1999999101541MD1710101+9999
0051827980999991987060221004-07100-034867FM-12+0007SBJP V0201801N00511220001CN0150001N9+02641+02441999999ADDAG10999GF102991021011008001001001MA1999999101441
0051827980999991987060309004-07100-034867FM-12+0007SBJP V0202401N00361220001CN0150001N9+02241+02141999999ADDAG10999GF102991021051008001001001MA1999999101441
0065827980999991987060312004-07100-034867FM-12+0007SBJP V0202101N00821220001CN0150001N9+02841+02341999999ADDAG10999GF103991031011008001001001MA1999999101541MD1210101+9999
0065827980999991987060315004-07100-034867FM-12+0007SBJP V0201901N00411007501CN0150001N9+02841+02241999999ADDAG10999GF105991051011008001001001MA1999999101341MD1710201+9999
0051827980999991987060409004-07100-034867FM-12+0007SBJP V0202101N00511045001CN0150001N9+02241+02241999999ADDAG10999GF107991041051004501021001MA1999999101341
0071827980999991987060412004-07100-034867FM-12+0007SBJP V0202401N00411004201CN0080001N9+02441+02341999999ADDAG10999GF106991061051004501021001MA1999999101541MD1210201+9999MW1101
0051827980999991987060515004-07100-034867FM-12+0007SBJP V0201501N00511007501CN0150001N9+02841+02441999999ADDAG10999GF105991051011008001031001MA1999999101241
0065827980999991987060518004-07100-034867FM-12+0007SBJP V0201501N00511220001CN0150001N9+02941+02341999999ADDAG10999GF104991041011008001031001MA1999999101141MD1710141+9999
0065827980999991987060521004-07100-034867FM-12+0007SBJP V0202001N00311045001CN0150001N9+99999+99999999999ADDAG10999GF106991031011008001051001MA1999999101141MD1410001+9999
0051827980999991987060609004-07100-034867FM-12+0007SBJP V0209991C00001220001CN0150001N9+02341+02341999999ADDAG10999GF104991031011008001031001MA1999999101141
0071827980999991987060612004-07100-034867FM-12+0007SBJP V0200901N00411045001CN0080001N9+02541+02341999999ADDAG10999GF108991041051004501021999MA1999999101341MD1210241+9999MW1101
0051827980999991987060618004-07100-034867FM-12+0007SBJP V0209991C00001007501CN0150001N9+02541+02441999999ADDAG10999GF107991051021008001071001MA1999999101141
0087827980999991987060621004-07100-034867FM-12+0007SBJP V0202201N00211002101CN0050001N9+02441+02441999999ADDAG10999AY121031AY221031GF108991051051002501021001MA1999999101241MD1210101+9999MW1601
0051827980999991987060709004-07100-034867FM-12+0007SBJP V0209991C00001045001CN0150001N9+02341+02341999999ADDAG10999GF107991041051002501061001MA1999999101441
0100827980999991987060712004-07100-034867FM-12+0007SBJP V0201701N00511007501CN0150001N9+02741+02341999999ADDAG10999GF105991051011008001001001MA1999999101641MD1210201+9999EQDQ01+000072APCTENQ02+000702APC3  
0065827980999991987060715004-07100-034867FM-12+0007SBJP V0201701N00621007501CN0150001N9+02941+02341999999ADDAG10999GF107991071021008001001001MA1999999101541MD1710101+9999
0065827980999991987060718004-07100-034867FM-12+0007SBJP V0201301N00511220001CN0150001N9+02941+02341999999ADDAG10999GF104991041011008001001001MA1999999101441MD1710101+9999
0065827980999991987060721004-07100-034867FM-12+0007SBJP V0201801N00311220001CN0150001N9+02641+02341999999ADDAG10999GF102991021011008001001001MA1999999101541MD1210141+9999
0051827980999991987060809004-07100-034867FM-12+0007SBJP V0202501N00261220001CN0150001N9+02241+02241999999ADDAG10999GF103991031011008001001001MA1999999101441
0065827980999991987060812004-07100-034867FM-12+0007SBJP V0202001N00361045001CN0150001N9+02641+02341999999ADDAG10999GF107991021051004501071001MA1999999101741MD1210301+9999
0065827980999991987060815004-07100-034867FM-12+0007SBJP V0201801N00411007501CN0150001N9+03041+02341999999ADDAG10999GF105991051011008001001001MA1999999101641MD1710101+9999
0051827980999991987060818004-07100-034867FM-12+0007SBJP V0201801N00511220001CN0150001N9+02841+02441999999ADDAG10999GF100991001001999999001001MA1999999101441
0057827980999991987060909004-07100-034867FM-12+0007SBJP V0202701N00411045001CN0080001N9+02341+02341999999ADDAG10999GF106991041051004501031001MA1999999101441MW1101
0087827980999991987060912004-07100-034867FM-12+0007SBJP V0202101N00511004201CN0080001N9+02441+02441999999ADDAG10999AY111061AY201061GF105991051041004501001001MA1999999101641MD1210201+9999MW1511
0057827980999991987060921004-07100-034867FM-12+0007SBJP V0202001N00261004201CN0050001N9+02341+02341999999ADDAG10999GF108991051011004501021999MA1999999101441MW1501
0051827980999991987061015004-07100-034867FM-12+0007SBJP V0201801N00511007501CN0150001N9+02741+02341999999ADDAG10999GF105991051011008001031001MA1999999101441
0065827980999991987061018004-07100-034867FM-12+0007SBJP V0202101N00311045001CN0150001N9+02741+02341999999ADDAG10999GF106991041011008001021001MA1999999101341MD1710141+9999
0065827980999991987061021004-07100-034867FM-12+0007SBJP V0202001N00311045001CN0150001N9+02741+02141999999ADDAG10999GF108991031011008001071001MA1999999101341MD1410001+9999
0057827980999991987061109004-07100-034867FM-12+0007SBJP V0202401N00411045001CN0080001N9+02341+02241999999ADDAG10999GF106991041011004501031001MA1999999101441MW1501
0081827980999991987061112004-07100-034867FM-12+0007SBJP V0202101N00411045001CN0150001N9+02641+02341999999ADDAG10999AY151061AY251061GF106991041011004501031001MA1999999101641MD1210241+9999
0065827980999991987061115004-07100-034867FM-12+0007SBJP V0201801N00411045001CN0150001N9+02841+02441999999ADDAG10999GF107991041011008001071001MA1999999101541MD1710101+9999
0065827980999991987061118004-07100-034867FM-12+0007SBJP V0201201N00411007501CN0150001N9+02941+02341999999ADDAG10999GF105991051011008001001001MA1999999101241MD1710301+9999
0065827980999991987061121004-07100-034867FM-12+0007SBJP V0201801N003619999999N0080001N9+02441+02341999999ADDAG10999GF107991999999004501999999MA1999999101441MD1410001+9999
0051827980999991987061209004-07100-034867FM-12+0007SBJP V0202701N003119999999N0080001N9+02341+02341999999ADDAG10999GF107991999999004501999999MA1999999101541
0065827980999991987061212004-07100-034867FM-12+0007SBJP V0201701N00621007501CN0150001N9+02641+02441999999ADDAG10999GF107991051011008001071001MA1999999101641MD1210101+9999
0051827980999991987061218004-07100-034867FM-12+0007SBJP V0201501N00511007501CN0150001N9+02841+02341999999ADDAG10999GF107991051011008001071001MA1999999101441
0071827980999991987061221004-07100-034867FM-12+0007SBJP V0201801N00511004201CN0080001N9+02541+02441999999ADDAG10999GF108991051041004501021999MA1999999101541MD1210101+9999MW1601
0051827980999991987061309004-07100-034867FM-12+0007SBJP V0202101N00261004201CN0150001N9+02441+02341999999ADDAG10999GF107991071051004501001001MA1999999101441
0079827980999991987061312004-07100-034867FM-12+0007SBJP V0201801N00311004201CN0080001N9+02541+02441999999ADDAG10999AY121061GF107991071051004501001001MA1999999101641MD1210201+9999MW1601
0087827980999991987061315004-07100-034867FM-12+0007SBJP V0201801N00511004201CN0150001N9+02641+02541999999ADDAG10999AY161031AY201031GF107991071041004501001001MA1999999101541MD1710101+9999MW1211
0071827980999991987061318004-07100-034867FM-12+0007SBJP V0201701N00511045001CN0150001N9+02641+02541999999ADDAG10999GF107991041011008001031001MA1999999101341MD1710201+9999MW1601
0051827980999991987061409004-07100-034867FM-12+0007SBJP V0202101N00311220001CN0150001N9+02341+02241999999ADDAG10999GF104991041011008001001001MA1999999101341
0065827980999991987061412004-07100-034867FM-12+0007SBJP V0201801N00511220001CN0150001N9+02841+02441999999ADDAG10999GF104991041011008001001001MA1999999101541MD1210201+9999
0051827980999991987061518004-07100-034867FM-12+0007SBJP V0201501N00411045001CN0150001N9+02941+02341999999ADDAG10999GF105991041011008001031001MA1999999101141
0065827980999991987061521004-07100-034867FM-12+0007SBJP V0201601N00261045001CN0150001N9+02641+02441999999ADDAG10999GF105991021011008001071001MA1999999101241MD1210101+9999
0057827980999991987061609004-07100-034867FM-12+0007SBJP V0202201N00261007501CN0150001N9+02341+02341999999ADDAG10999GF107991051011008001031001MA1999999101441MW1101
0081827980999991987061612004-07100-034867FM-12+0007SBJP V0201501N00311004201CN0150001N9+02541+02441999999ADDAG10999AY131061AY201061GF106991061011004501001001MA1999999101541MD1210141+9999
0065827980999991987061615004-07100-034867FM-12+0007SBJP V0201001N00311009001CN0150001N9+02841+02441999999ADDAG10999GF107991071081004501001001MA1999999101441MD1710101+9999
0065827980999991987061618004-07100-034867FM-12+0007SBJP V0201201N00311007501CN0150001N9+02841+02341999999ADDAG10999GF105991051011008001001001MA1999999101341MD1710101+9999
0065827980999991987061621004-07100-034867FM-12+0007SBJP V0201301N00261007501CN0150001N9+02641+02441999999ADDAG10999GF105991051011008001001001MA1999999101441MD1210101+9999
0051827980999991987061709004-07100-034867FM-12+0007SBJP V0202401N00261045001CN0150001N9+02441+02341999999ADDAG10999GF107991041021008001071001MA1999999101541
0057827980999991987061715004-07100-034867FM-12+0007SBJP V0201801N00621045001CN0150001N9+02741+02441999999ADDAG10999GF107991031051008001031001MA1999999101641MW1501
0051827980999991987061718004-07100-034867FM-12+0007SBJP V0201601N00721220001CN0150001N9+02941+02241999999ADDAG10999GF104991041011008001001001MA1999999101541
0065827980999991987061721004-07100-034867FM-12+0007SBJP V0201901N00361220001CN0150001N9+02641+02341999999ADDAG10999GF101991011011008001001001MA1999999101641MD1210101+9999
0051827980999991987061803004-07100-034867FM-12+0007SBJP V0202401N00311220001CN0150001N9+02341+02241999999ADDAG10999GF102991021011008001001001MA1999999101741
0051827980999991987061806004-07100-034867FM-12+0007SBJP V0202401N00411007501CN0150001N9+02341+02241999999ADDAG10999GF105991051011008001001001MA1999999101641
0071827980999991987061809004-07100-034867FM-12+0007SBJP V0201801N00311004201CN0050001N9+02441+02341999999ADDAG10999GF105991051041004501001001MA1999999101641MD1410001+9999MW1601
0081827980999991987061812004-07100-034867FM-12+0007SBJP V0201201N00361045001CN0150001N9+02641+02441999999ADDAG10999AY161061AY201061GF105991041011008001031001MA1999999101741MD1210101+9999
0087827980999991987061815004-07100-034867FM-12+0007SBJP V0201901N00361007501CN0150001N9+02641+02541999999ADDAG10999AY161031AY211031GF106991061021008001001001MA1999999101641MD1710101+9999MW1601
0051827980999991987061903004-07100-034867FM-12+0007SBJP V0201301N00311220001CN0150001N9+02441+02341999999ADDAG10999GF104991041051004501001001MA1999999101741
0073827980999991987061909004-07100-034867FM-12+0007SBJP V0202401N00261009001CN0050001N9+02341+02241999999ADDAG10999AY161031AY221031GF107991071081004501001001MA1999999101741MW1601
0098827980999991987061912004-07100-034867FM-12+0007SBJP V0202801N002619999999N0150001N9+02541+02441999999ADDAG10999AY101061GF107991999999008001999999MA1999999101841MD1210101+9999MW1411EQDQ01+000072PSTWM1
0051827980999991987061921004-07100-034867FM-12+0007SBJP V0201701N00311220001CN0150001N9+02541+02341999999ADDAG10999GF101991011011008001001001MA1999999101641
0051827980999991987062003004-07100-034867FM-12+0007SBJP V0202201N00411220001CN0150001N9+02341+02241999999ADDAG10999GF100991001001999999001001MA1999999101741
0065827980999991987062006004-07100-034867FM-12+0007SBJP V0202401N00261220001CN0150001N9+02241+02141999999ADDAG10999GF103991031011008001001001MA1999999101641MD1710101+9999
0051827980999991987062015004-07100-034867FM-12+0007SBJP V0201801N00311007501CN0150001N9+02941+02241999999ADDAG10999GF105991051011008001001001MA1999999101641
0065827980999991987062018004-07100-034867FM-12+0007SBJP V0201601N00511220001CN0150001N9+02941+02141999999ADDAG10999GF104991041011008001001001MA1999999101441MD1710241+9999
0065827980999991987062021004-07100-034867FM-12+0007SBJP V0201601N00311220001CN0150001N9+02641+02341999999ADDAG10999GF102991021011008001001001MA1999999101641MD1210201+9999
0065827980999991987062100004-07100-034867FM-12+0007SBJP V0201801N00261220001CN0150001N9+02441+02341999999ADDAG10999GF102991021011008001001001MA1999999101741MD1210101+9999
0051827980999991987062109004-07100-034867FM-12+0007SBJP V0202601N00361220001CN0150001N9+02141+02141999999ADDAG10999GF101991011011008001001001MA1999999101641
0065827980999991987062112004-07100-034867FM-12+0007SBJP V0202201N00211007501CN0150001N9+02741+02441999999ADDAG10999GF106991061011008001001001MA1999999101741MD1210141+9999
0065827980999991987062115004-07100-034867FM-12+0007SBJP V0201201N00411220001CN0150001N9+02941+02241999999ADDAG10999GF103991031011008001001001MA1999999101641MD1710101+9999
0065827980999991987062118004-07100-034867FM-12+0007SBJP V0201501N00511220001CN0150001N9+02941+02241999999ADDAG10999GF103991999999008001999999MA1999999101441MD1710201+9999
0100827980999991987062121004-07100-034867FM-12+0007SBJP V0201601N00261220001CN0150001N9+02641+02341999999ADDAG10999GF101991011011008001001001MA1999999101541MD1210101+9999EQDQ01+000072APCTENQ02+000702APC3  
0065827980999991987062200004-07100-034867FM-12+0007SBJP V0202101N00261220001CN0150001N9+02441+02341999999ADDAG10999GF101991011011008001001001MA1999999101641MD1210101+9999
0065827980999991987062203004-07100-034867FM-12+0007SBJP V0202301N00261220001CN0150001N9+02541+02241999999ADDAG10999GF104991041011008001001001MA1999999101641MD1410001+9999
0065827980999991987062206004-07100-034867FM-12+0007SBJP V0202101N00411220001CN0150001N9+02341+02241999999ADDAG10999GF102991021011008001001001MA1999999101541MD1710141+9999
0065827980999991987062209004-07100-034867FM-12+0007SBJP V0202301N00411220001CN0150001N9+02341+02241999999ADDAG10999GF103991031011008001001001MA1999999101641MD1210101+9999
0065827980999991987062212004-07100-034867FM-12+0007SBJP V0202401N00411045001CN0150001N9+02641+02341999999ADDAG10999GF107991041011008001071001MA1999999101741MD1210101+9999
0065827980999991987062215004-07100-034867FM-12+0007SBJP V0202401N00311045001CN0150001N9+02841+02441999999ADDAG10999GF106991031011008001031001MA1999999101641MD1710141+9999
0065827980999991987062218004-07100-034867FM-12+0007SBJP V0201701N00621007501CN0150001N9+02641+02341999999ADDAG10999GF106991061041008001001001MA1999999101541MD1710101+9999
0065827980999991987062221004-07100-034867FM-12+0007SBJP V0202101N00311045001CN0150001N9+02541+02241999999ADDAG10999GF107991031051004501071999MA1999999101541MD1410001+9999
0065827980999991987062300004-07100-034867FM-12+0007SBJP V0202701N00311220001CN0150001N9+02341+02241999999ADDAG10999GF100991001001999999001001MA1999999101641MD1210101+9999
0073827980999991987062309004-07100-034867FM-12+0007SBJP V0209991C00001009001CN0080001N9+02241+02241999999ADDAG10999AY151031AY221031GF107991071081004501001001MA1999999101641MW1501
0087827980999991987062312004-07100-034867FM-12+0007SBJP V0202201N00411045001CN0150001N9+02641+02341999999ADDAG10999AY151061AY221061GF106991031021008001031001MA1999999101841MD1210201+9999MW1021
0051827980999991987062315004-07100-034867FM-12+0007SBJP V0201601N00511220001CN0150001N9+02941+02341999999ADDAG10999GF104991041011008001001001MA1999999101741
0065827980999991987062318004-07100-034867FM-12+0007SBJP V0201801N00721007501CN0150001N9+02941+02241999999ADDAG10999GF105991051011008001001001MA1999999101541MD1710201+9999
0051827980999991987062403004-07100-034867FM-12+0007SBJP V0202401N00361220001CN0150001N9+02241+02241999999ADDAG10999GF103991031011008001001001MA1999999101741
0051827980999991987062409004-07100-034867FM-12+0007SBJP V0202101N00411220001CN0150001N9+02241+02241999999ADDAG10999GF102991021011008001001001MA1999999101641
0065827980999991987062412004-07100-034867FM-12+0007SBJP V0201601N00261007501CN0150001N9+02841+02341999999ADDAG10999GF105991051011008001001001MA1999999101841MD1210201+9999
0051827980999991987062421004-07100-034867FM-12+0007SBJP V0201801N00261220001CN0150001N9+02641+02341999999ADDAG10999GF102991021011008001001001MA1999999101641
0051827980999991987062515004-07100-034867FM-12+0007SBJP V0201501N00821007501CN0150001N9+02941+02141999999ADDAG10999GF107991071011008001001001MA1999999101841
0051827980999991987062609004-07100-034867FM-12+0007SBJP V0202501N00361220001CN0150001N9+02141+02041999999ADDAG10999GF103991031011008001001001MA1999999101841
0065827980999991987062612004-07100-034867FM-12+0007SBJP V0201701N00311220001CN0150001N9+02741+02341999999ADDAG10999GF103991031011008001001001MA1999999101941MD1210101+9999
0065827980999991987062615004-07100-034867FM-12+0007SBJP V0201801N00721220001CN0150001N9+02941+02141999999ADDAG10999GF104991999999008001999999MA1999999101741MD1710201+9999
0065827980999991987062618004-07100-034867FM-12+0007SBJP V0201801N00621220001CN0150001N9+02941+02141999999ADDAG10999GF104991041011008001001001MA1999999101541MD1710201+9999
0065827980999991987062621004-07100-034867FM-12+0007SBJP V0201801N00411220001CN0150001N9+02641+02241999999ADDAG10999GF101991011011008001001001MA1999999101641MD1210141+9999
0051827980999991987062703004-07100-034867FM-12+0007SBJP V0202301N00261220001CN0150001N9+02341+02241999999ADDAG10999GF102991021011008001001001MA1999999101841
0067827980999991987062709004-07100-034867FM-12+0007SBJP V0202401N00311009001CN0050001N9+02241+02241999999ADDAG10999AY161031AY261031GF107991061081004501071001MA1999999101741
0065827980999991987062715004-07100-034867FM-12+0007SBJP V0201701N00511045001CN0150001N9+02641+02441999999ADDAG10999GF106991031011008001021001MA1999999101841MD1410001+9999
