0110829940999991987010100004-09667-035700FM-12+008999999V0201401N00151045001CN9999999N9+02401+02231101351ADDAA106999929AG10999AY191061AY261061GF108991041041017501041999MA1999999100321MW1031REMSYN017333   15800 69901
0154829940999991987010112004-09667-035700FM-12+008999999V0201401N00261045001CN0200001N9+02821+02271101481ADDAA124000291AA299000391AG10999AY191061AY261061GF107991031091012501041001KA1240N+02121MA1999999100471MD1999999+0111MW1031REMSYN023333   20212 58011 69924
0118829940999991987010118004-09667-035700FM-12+008999999V0201401N00411045001CN0200001N9+02961+02261101331ADDAA106000091AG10999AY121061AY221061GF107991031051017501041001MA1999999100331MD1999999+0091MW1031REMSYN011333   58009
0137829940999991987010212004-09667-035700FM-12+008999999V0201401N00411045001CN0200001N9+02841+02261101511ADDAA106000091AG10999AY121061AY221061GF107991021031012501041001KA1240N+02161MA1999999100501MD1999999+0231MW1031REMSYN017333   20216 58023
0137829940999991987010218004-09667-035700FM-12+008999999V0201401N00511045001CN0500001N9+03021+02211101171ADDAA106000091AG10999AY111061AY221061GF106991031031012501061001MA1999999091742MD1999999-0161MW1021REMSYN011333   59016EQDQ01+091743APOSP 
0143829940999991987010312004-09667-035700FM-12+008999999V0201401N00311045001CN0500001N9+02981+02011101391ADDAA124002091AG10999AY191061AY261061GF105991021031017501041001KA1240N+02021MA1999999100381MD1999999-0121MW1031REMSYN023333   20202 59012 60024
0118829940999991987010400004-09667-035700FM-12+008999999V0201401N00151220001CN9999999N9+02501+02131101431ADDAA106000091AG10999AY111061AY211061GF105991021001017501041041MA1999999100401MD1999999+0041MW1021REMSYN011333   58004
0143829940999991987010412004-09667-035700FM-12+008999999V0200501N00051045001CN0100001N9+02601+02191101371ADDAA124000191AG10999AY191061AY261061GF108991031091012501041999KA1240N+02101MA1999999100361MD1999999-0021MW1031REMSYN023333   20210 59002 69914
0135829940999991987010418004-09667-035700FM-12+008999999V0201401N00621045001CN0200001N9+02961+02131101181ADDAA106000291AA299000391AG10999AY191061AY261061GF107991031031017501041001MA1999999100171MD1999999-0071MW1031REMSYN017333   59007 69921
0143829940999991987010512004-09667-035700FM-12+008999999V0200501N00051045001CN0100001N9+02521+02321101971ADDAA124014091AG10999AY191061AY261061GF107991031091012501041001KA1240N+02021MA1999999100451MD1999999+0091MW1211REMSYN023333   20202 58009 60144
0118829940999991987010518004-09667-035700FM-12+008999999V0201401N00311220001CN0500001N9+02981+02121101231ADDAA106000091AG10999AY101061AY201061GF103991031011017501001001MA1999999100221MD1999999+0051MW1011REMSYN011333   58005
0154829940999991987010612004-09667-035700FM-12+008999999V0201401N00101045001CN0200001N9+02821+02201101451ADDAA124000491AA299000591AG10999AY191061AY261061GF107991021091017501041001KA1240N+02041MA1999999100431MD1999999-0021MW1031REMSYN023333   20204 59002 69944
0124829940999991987010618004-09667-035700FM-12+008999999V0201401N00261045001CN0100001N9+02651+02351101181ADDAA106003091AG10999AY191061AY261061GF107991031061017501041001MA1999999100171MD1999999-0051MW1211REMSYN017333   59005 60031
0143829940999991987010712004-09667-035700FM-12+008999999V0200901N00361045001CN0500001N9+02751+02281101461ADDAA124007091AG10001AY191061AY261061GF107991041031008001061041KA1240N+02121MA1999999100451MD1999999+0021MW1031REMSYN023333   20212 58002 60074
0118829940999991987010718004-09667-035700FM-12+008999999V0201401N00571012001CN0500001N9+02841+02261101241ADDAA106000091AG10999AY121061AY221061GF107991051031012501061001MA1999999100231MD1999999+0061MW1031REMSYN011333   58006
0130829940999991987010800004-09667-035700FM-12+008999999V0200501N00261007501CN9999999N9+02411+02331101481ADDAA106002091AG10999AY121061AY221061GF108991051071008001021999MA1999999100451MD1999999-0051MW1611REMSYN023333   10/// 59005 60021
0124829940999991987010818004-09667-035700FM-12+008999999V0200501N00211002101CN0020001N9+02471+02391101201ADDAA106022091AG10999AY191061AY261061GF107991051071002501021001MA1999999100181MD1999999-0051MW1611REMSYN017333   59005 60221
0143829940999991987010912004-09667-035700FM-12+008999999V0203601N002619999999N0100001N9+02301+02271101441ADDAA124058091AG10999AY191061AY261061GF108991031071999999021999KA1240N+02061MA1999999100411MD1999999+0051MW1611REMSYN023333   20206 58005 60584
0118829940999991987010918004-09667-035700FM-12+008999999V0200901N00571045001CN0500001N9+03001+02081101191ADDAA106000091AG10999AY121061AY221061GF106991031031017501041001MA1999999100181MD1999999+0001MW1031REMSYN011333   58000
0137829940999991987011012004-09667-035700FM-12+008999999V0200901N00311045001CN0040001N9+02861+01981101481ADDAA106000091AG10999AY111061AY211061GF106991021091017501061001KA1240N+02001MA1999999100461MD1999999+0051MW1031REMSYN017333   20200 58005
0118829940999991987011018004-09667-035700FM-12+008999999V0201401N00361045001CN0500001N9+03021+02101101281ADDAA106000091AG10999AY111061AY211061GF106991021031017501041001MA1999999100271MD1999999+0091MW1021REMSYN011333   58009
0124829940999991987011100004-09667-035700FM-12+008999999V0200501N00151220001CN9999999N9+02321+02131101411ADDAA106000091AG10999AY101061AY201061GF103991031021017501001001MA1999999100381MD1999999-0051MW1021REMSYN017333   10/// 59005
0096829940999991987011218004-09667-035700FM-12+008999999V0201401N00511220001CN0500001N9+03021+01731100771ADDAA106000091AG10999GF103991031001017501041001MA1999999100371MD1999999+0071REMSYN011333   58007
0115829940999991987011312004-09667-035700FM-12+008999999V0201401N00361045001CN0500001N9+02881+01801101501ADDAA106000091AG10999GF106991031051012501041001KA1240N+02201MA1999999100491MD1999999+0071REMSYN017333   20220 58007
0110829940999991987011318004-09667-035700FM-12+008999999V0200901N00511220001CN0500001N9+02901+02071101431ADDAA106000091AG10999AY111061GF104991021021008001061011MA1999999100421MD1999999+0051MW1011REMSYN011333   58005
0096829940999991987011418004-09667-035700FM-12+008999999V0200901N00461220001CN0500001N9+02901+01901101321ADDAA106000091AG10999GF102991011011004501001041MA1999999100311MD1999999-0111REMSYN011333   59011
0124829940999991987011500004-09667-035700FM-12+008999999V0209991C00001220001CN9999999N9+02501+02251101551ADDAA106000091AG10999AY101061AY201061GF102991021021008001001001MA1999999100521MD1999999-0161MW1031REMSYN017333   10/// 59016
0143829940999991987011512004-09667-035700FM-12+008999999V0200901N00311045001CN0500001N9+02801+02001101441ADDAA124004091AG10999AY191061AY261061GF106991021031017501041001KA1240N+02041MA1999999100421MD1999999-0111MW1031REMSYN023333   20204 59011 60044
0137829940999991987011600004-09667-035700FM-12+008999999V0200901N000519999999N9999999N9+02381+02221101291ADDAA106000091AG10999AY101061AY201061GF106991999021017501001001MA1999999100261MD1999999-0261MW1011REMSYN011333   59026EQDQ01+000032SCOTLC
0118829940999991987011618004-09667-035700FM-12+008999999V0201401N00461045001CN0500001N9+03041+02091101281ADDAA106000091AG10999AY111061AY211061GF106991021041017501061001MA1999999100281MD1999999+0051MW1021REMSYN011333   58005
0137829940999991987011712004-09667-035700FM-12+008999999V0200501N00361220001CN0500001N9+02751+02161101231ADDAA106000091AG10999AY101061AY201061GF104991041021008001001001KA1240N+02241MA1999999100221MD1999999-0151MW1031REMSYN017333   20224 59015
0118829940999991987011718004-09667-035700FM-12+008999999V0200901N00621220001CN0500001N9+02901+02151101001ADDAA106000091AG10999AY101061AY201061GF103991031011008001001001MA1999999100001MD1999999-0281MW1031REMSYN011333   59028
0124829940999991987011800004-09667-035700FM-12+008999999V0200501N00721220001CN9999999N9+02451+01271101191ADDAA106000091AG10999AY101061AY201061GF101991011011008001001001MA1999999100161MD1999999-0291MW1011REMSYN017333   10/// 59029
0137829940999991987011812004-09667-035700FM-12+008999999V0200501N00461220001CN0500001N9+02751+02201101211ADDAA106000091AG10999AY101061AY201061GF104991041021008001001001KA1240N+02201MA1999999100201MD1999999-0021MW1031REMSYN017333   20220 59002
0118829940999991987011818004-09667-035700FM-12+008999999V0200901N00511220001CN0500001N9+02991+02281100941ADDAA106000091AG10999AY101061AY201061GF101991011011008001001001MA1999999099941MD1999999-0061MW1011REMSYN011333   59006
0124829940999991987011900004-09667-035700FM-12+008999999V0200501N00261220001CN9999999N9+02521+02381101121ADDAA106000091AG10999AY101061AY201061GF101991011011002501001001MA1999999100181MD1999999-0161MW1011REMSYN017333   10/// 59016
0137829940999991987011912004-09667-035700FM-12+008999999V0200501N00461045001CN0500001N9+02801+02251101321ADDAA106000091AG10999AY121061AY221061GF105991021031017501061001KA1240N+02081MA1999999100311MD1999999+0111MW1031REMSYN017333   20208 58011
0118829940999991987011918004-09667-035700FM-12+008999999V0200901N00571220001CN0500001N9+03121+02301101181ADDAA106000091AG10999AY101061AY211061GF103991031021012501001001MA1999999100181MD1999999+0241MW1011REMSYN011333   58024
0137829940999991987012115004-09667-035700FM-12+008999999V0200501N00311045001CN0500001N9+02711+02121101331ADDAA106000091AG10999AY121031AY221031GF106991021041017501041001KA1240N+02161MA1999999100321MD1999999+0081MW1031REMSYN017333   20216 58008
0118829940999991987012118004-09667-035700FM-12+008999999V0201401N00411045001CN0500001N9+02951+01821101011ADDAA106000091AG10999AY121061AY221061GF107991011011004501061041MA1999999100011MD1999999-0301MW1011REMSYN011333   59030
0137829940999991987012212004-09667-035700FM-12+008999999V0200901N00361220001CN0500001N9+02751+01971101271ADDAA106000091AG10999AY111061AY201061GF104991031021008001001041KA1240N+02141MA1999999100261MD1999999+0021MW1011REMSYN017333   20214 58002
0118829940999991987012218004-09667-035700FM-12+008999999V0201401N00461220001CN0500001N9+03101+01701101201ADDAA106000091AG10999AY101061AY201061GF103991031011017501001001MA1999999100201MD1999999-0111MW1011REMSYN011333   59011
0137829940999991987012312004-09667-035700FM-12+008999999V0200501N00671220001CN0500001N9+02881+02161101271ADDAA106000091AG10999AY101061AY201061GF102991021011004501001001KA1240N+02151MA1999999100261MD1999999+0001MW1031REMSYN017333   20215 58000
0118829940999991987012318004-09667-035700FM-12+008999999V0200901N00571220001CN0500001N9+03141+02041101171ADDAA106000091AG10999AY101061AY201061GF103991031001017501041001MA1999999100171MD1999999-0031MW1011REMSYN011333   59003
0137829940999991987012412004-09667-035700FM-12+008999999V0200901N00721007501CN0500001N9+02781+02181101341ADDAA106000091AG10999AY101061AY201061GF107991061021008001001041KA1240N+02221MA1999999100331MD1999999+0071MW1031REMSYN017333   20222 58007
0118829940999991987012418004-09667-035700FM-12+008999999V0200901N00461220001CN0500001N9+03161+01991101141ADDAA106000091AG10999AY101061AY201061GF103991031011017501001001MA1999999100141MD1999999-0061MW1011REMSYN011333   59006
0137829940999991987012512004-09667-035700FM-12+008999999V0201401N00311220001CN0500001N9+03061+01931101451ADDAA106000091AG10999AY101061AY201061GF103991031021017501001001KA1240N+02101MA1999999100451MD1999999+0121MW1011REMSYN017333   20210 58012
0118829940999991987012518004-09667-035700FM-12+008999999V0201401N00621220001CN0500001N9+03201+01931101311ADDAA106000091AG10999AY101061AY201061GF103991031001017501041001MA1999999100311MD1999999+0171MW1021REMSYN011333   58017
0137829940999991987012612004-09667-035700FM-12+008999999V0200501N00261045001CN0200001N9+02761+02281101461ADDAA106000091AG10999AY121061AY221061GF107991021041017501041001KA1240N+02161MA1999999100441MD1999999+0111MW1031REMSYN017333   20216 58011
0118829940999991987012618004-09667-035700FM-12+008999999V0201401N00511045001CN0500001N9+03181+02041101201ADDAA106000091AG10999AY111061AY211061GF106991021061017501061001MA1999999100211MD1999999-0101MW1031REMSYN011333   59010
0124829940999991987012700004-09667-035700FM-12+008999999V0200501N00101220001CN9999999N9+02531+02031101321ADDAA106000091AG10999AY101061AY201061GF104991041021017501001001MA1999999100291MD1999999-0101MW1021REMSYN017333   10/// 59010
0137829940999991987012712004-09667-035700FM-12+008999999V0200901N00211045001CN0200001N9+99999+99999101401ADDAA106000091AG10999AY111061AY221061GF107991031031012501041001KA1240N+02141MA1999999100401MD1999999-0041MW1031REMSYN017333   20214 59004
0118829940999991987012718004-09667-035700FM-12+008999999V0200901N00461220001CN0500001N9+03041+01971101311ADDAA106000091AG10001AY101061AY201061GF103991031011017501001001MA1999999100311MD1999999+0101MW1011REMSYN011333   58010
0137829940999991987012812004-09667-035700FM-12+008999999V0201401N00671012001CN0500001N9+02771+02191101521ADDAA106000091AG10999AY101061AY201061GF106991061021012501001001KA1240N+02241MA1999999100511MD1999999+0111MW1031REMSYN017333   20224 58011
0118829940999991987012818004-09667-035700FM-12+008999999V0201401N00461220001CN0500001N9+03021+01891101251ADDAA106000091AG10999AY101061AY201061GF102991021011004501001001MA1999999100231MD1999999-0061MW1101REMSYN011333   59006
0124829940999991987012900004-09667-035700FM-12+008999999V0200501N00051220001CN9999999N9+02401+02171101401ADDAA106000091AG10999AY101061AY201061GF101991011011004501001001MA1999999100371MD1999999+0101MW1011REMSYN017333   10/// 58010
0137829940999991987012912004-09667-035700FM-12+008999999V0200901N00361012001CN0500001N9+02721+02261101471ADDAA106000091AG10999AY111061AY221061GF107991061031012501061001KA1240N+02121MA1999999100451MD1999999-0061MW1031REMSYN017333   20212 59006
0118829940999991987012918004-09667-035700FM-12+008999999V0200901N00571045001CN0500001N9+02861+02031101211ADDAA106000091AG10999AY121061AY221061GF106991031021008001061041MA1999999100201MD1999999-0051MW1011REMSYN011333   59005
0124829940999991987013000004-09667-035700FM-12+008999999V0200901N00151220001CN9999999N9+02521+02271101431ADDAA106000091AG10999AY101061AY201061GF101991011011002501001001MA1999999100401MD1999999+0031MW1011REMSYN017333   10/// 58003
0143829940999991987013012004-09667-035700FM-12+008999999V0200901N00311045001CN0100001N9+02301+02251101521ADDAA124037091AG10999AY161061AY261061GF108991041071008001021999KA1240N+02001MA1999999100501MD1999999+0051MW1611REMSYN023333   20200 58005 60374
0124829940999991987013018004-09667-035700FM-12+008999999V0200901N00461045001CN0500001N9+02821+02171101241ADDAA106002091AG10999AY191061AY261061GF105991021031012501041001MA1999999100231MD1999999-0021MW1031REMSYN017333   59002 60021
0124829940999991987013100004-09667-035700FM-12+008999999V0209991C00001012001CN9999999N9+02381+02241101231ADDAA106000091AG10999AY111061AY211061GF105991051021012501001001MA1999999100201MD1999999-0201MW1021REMSYN017333   10/// 59020
0143829940999991987013112004-09667-035700FM-12+008999999V0200501N00461045001CN0500001N9+02781+02211101481ADDAA124003091AG10001AY191061AY261061GF107991031091012501061001KA1240N+02101MA1999999100451MD1999999-0051MW1031REMSYN023333   20210 59005 60034
0118829940999991987020100004-09667-035700FM-12+008999999V0200901N00261220001CN9999999N9+02521+02171101381ADDAA106000091AG10999AY101061AY201061GF104991041011012501001001MA1999999100351MD1999999+0151MW1021REMSYN011333   58015
0137829940999991987020112004-09667-035700FM-12+008999999V0201401N00571045001CN0500001N9+02921+02011101471ADDAA106000091AG10999AY111061AY211061GF105991021021012501061001KA1240N+02161MA1999999100461MD1999999+0011MW1031REMSYN017333   20216 58001
0118829940999991987020118004-09667-035700FM-12+008999999V0200901N00511045001CN0500001N9+03121+01921101391ADDAA106000091AG10999AY121061AY231061GF106991021021017501041001MA1999999100391MD1999999+0001MW1021REMSYN011333   58000
0121829940999991987020212004-09667-035700FM-12+008999999V0201401N00461015001CN0500001N9+02861+02061101541ADDAA124999929AG10999GF106991061021017501001001KA1240N+02161MA1999999100531MD1999999+0071REMSYN023333   20216 58007 69904
0137829940999991987020312004-09667-035700FM-12+008999999V0201401N00511045001CN0500001N9+02421+01891101311ADDAA106000091AG10999AY111061AY211061GF106991021021017501041001KA1240N+02141MA1999999100311MD1999999-0221MW1031REMSYN017333   20214 59022
0118829940999991987020318004-09667-035700FM-12+008999999V0201401N00511045001CN0200001N9+02981+01861101251ADDAA106000091AG10999AY111061AY211061GF105991021011022501061001MA1999999100241MD1999999-0111MW1021REMSYN011333   59011
0137829940999991987020400004-09667-035700FM-12+008999999V0200901N00361220001CN0500001N9+02861+02031101461ADDAA106000091AG10999AY101061AY201061GF102991021021008001061041KA1240N+02341MA1999999100451MD1999999+0141MW1011REMSYN017333   20234 58014
0137829940999991987020412004-09667-035700FM-12+008999999V0200901N00361220001CN0500001N9+02861+02031101461ADDAA106000091AG10999AY101061AY201061GF102991021021008001061041KA1240N+02341MA1999999100451MD1999999+0141MW1011REMSYN017333   20234 58014
0118829940999991987020418004-09667-035700FM-12+008999999V0201401N00671220001CN0500001N9+02921+02041101171ADDAA106000091AG10999AY101061AY201061GF103991031021008001001001MA1999999100171MD1999999-0051MW1011REMSYN011333   59005
0124829940999991987020500004-09667-035700FM-12+008999999V0200501N00051220001CN9999999N9+02451+02211101331ADDAA106000091AG10999AY101061AY201061GF101991011011002501001001MA1999999100301MD1999999-0061MW1011REMSYN017333   10/// 59006
0143829940999991987020512004-09667-035700FM-12+008999999V0200901N00261012001CN0200001N9+02401+02171101521ADDAA124001091AG10999AY191061AY261061GF106991061061012501021001KA1240N+02201MA1999999100481MD1999999+0171MW1211REMSYN023333   20220 58017 60014
0118829940999991987020518004-09667-035700FM-12+008999999V0200501N00261045001CN0500001N9+03001+01881101351ADDAA106000091AG10999AY121061AY221061GF106991021041012501041001MA1999999100341MD1999999-0111MW1031REMSYN011333   59011
0124829940999991987020600004-09667-035700FM-12+008999999V0209991C00001045001CN9999999N9+02441+02201101311ADDAA106000091AG10999AY111061AY211061GF105991021031017501061001MA1999999100281MD1999999-0021MW1031REMSYN017333   10/// 59002
0137829940999991987020612004-09667-035700FM-12+008999999V0201401N00311045001CN0500001N9+02861+02101101471ADDAA106000091AG10999AY121061AY221061GF106991021031012501041001KA1240N+02121MA1999999100451MD1999999-0031MW1031REMSYN017333   20212 59003
0118829940999991987020618004-09667-035700FM-12+008999999V0201401N00461045001CN0500001N9+02981+01981101241ADDAA106000091AG10999AY111061AY211061GF106991021021017501041001MA1999999100241MD1999999-0241MW1021REMSYN011333   59024
0141829940999991987020700004-09667-035700FM-12+008999999V0200901N00211220001CN9999999N9+02581+02401101411ADDAA106000291AA299000391AG10999AY191061AY261061GF103991031021008001001001MA1999999100381MD1999999+0101MW1211REMSYN023333   10/// 58010 69921
0143829940999991987020712004-09667-035700FM-12+008999999V0200901N00311045001CN0500001N9+02741+02321101501ADDAA124001091AG10999AY191061AY261061GF105991021031012501041001KA1240N+02401MA1999999100491MD1999999+0041MW1031REMSYN023333   20240 58004 60014
0124829940999991987020800004-09667-035700FM-12+008999999V0200901N00151220001CN9999999N9+02601+02351101391ADDAA106000091AG10999AY101061AY221061GF104991041021012501001001MA1999999100371MD1999999-0011MW1031REMSYN017333   10/// 59001
0124829940999991987020900004-09667-035700FM-12+008999999V0200501N00151045001CN9999999N9+02601+02391101481ADDAA106000091AG10999AY101061AY221061GF106991031031012501041001MA1999999100461MD1999999+0081MW1031REMSYN017333   10/// 58008
0154829940999991987020912004-09667-035700FM-12+008999999V0200901N00261045001CN0200001N9+02621+02271101471ADDAA124000291AA299000391AG10999AY191061AY261061GF107991031091012501041001KA1240N+02181MA1999999100451MD1999999-0031MW1031REMSYN023333   20218 59003 69924
0143829940999991987021012004-09667-035700FM-12+008999999V0201401N00311045001CN0500001N9+02781+02211101361ADDAA124004091AG10999AY191061AY261061GF106991031031017501041001KA1240N+02141MA1999999100341MD1999999-0111MW1031REMSYN023333   20214 59011 60044
0137829940999991987021112004-09667-035700FM-12+008999999V0201401N00311045001CN0500001N9+02821+02171101411ADDAA106000091AG10999AY101061AY221061GF106991021021012501041001KA1240N+02001MA1999999100401MD1999999+0061MW1031REMSYN017333   20200 58006
0118829940999991987021118004-09667-035700FM-12+008999999V0200901N00311220001CN0500001N9+02851+02171101211ADDAA106000091AG10999AY101061AY201061GF103991031021012501001001MA1999999100201MD1999999-0041MW1011REMSYN011333   59004
0124829940999991987021318004-09667-035700FM-12+008999999V0200901N00511045001CN0200001N9+02761+02231101231ADDAA106003091AG10001AY191061AY261061GF107991031061017501041001MA1999999100221MD1999999+0041MW1031REMSYN017333   58004 60031
0143829940999991987021412004-09667-035700FM-12+008999999V0200901N00211045001CN0100001N9+02581+02331101421ADDAA124004091AG10001AY191061AY261061GF108991031071012501041999KA1240N+02101MA1999999100391MD1999999-0041MW1031REMSYN023333   20210 59004 60044
0143829940999991987021512004-09667-035700FM-12+008999999V0201401N00461220001CN0500001N9+02801+02251101361ADDAA124017091AG10999AY101061AY201061GF104991031031012501061001KA1240N+02281MA1999999100341MD1999999-0051MW1961REMSYN023333   20228 59005 60174
0118829940999991987021518004-09667-035700FM-12+008999999V0201401N00461012001CN0500001N9+02741+02281101121ADDAA106000091AG10999AY121061AY221061GF106991051031012501061001MA1999999100111MD1999999-0111MW1031REMSYN011333   59011
0124829940999991987021600004-09667-035700FM-12+008999999V0209999999999220001CN9999999N9+02511+02311101251ADDAA106000091AG10999AY111061AY201061GF102991021021004501061001MA1999999100231MD1999999-0101MW1011REMSYN017333   10/// 59010
0143829940999991987021612004-09667-035700FM-12+008999999V0200901N00461045001CN0200001N9+02651+02001101281ADDAA148016091AG10999AY191061AY261061GF107991041091012501041001KA1240N+02081MA1999999100261MD1999999-0081MW1211REMSYN023333   20208 59008 60168
0118829940999991987021618004-09667-035700FM-12+008999999V0200901N00461045001CN0500001N9+02941+02141101191ADDAA106000091AG10999AY121061AY221061GF106991021041012501061001MA1999999100181MD1999999+0071MW1031REMSYN011333   58007
0124829940999991987021700004-09667-035700FM-12+008999999V0200501N00151220001CN9999999N9+02431+02281101211ADDAA106000091AG10999AY101061AY201061GF104991041071004501001001MA1999999100181MD1999999-0051MW1011REMSYN017333   10/// 59005
0143829940999991987021712004-09667-035700FM-12+008999999V0201401N00101045001CN0100001N9+02451+02341101211ADDAA124008091AG10999AY191061AY261061GF108991041071012501021999KA1240N+02161MA1999999100191MD1999999-0071MW1031REMSYN023333   20216 59007 60084
0124829940999991987021800004-09667-035700FM-12+008999999V0203601N00101220001CN9999999N9+02481+02361101341ADDAA106000091AG10999AY101061AY201061GF102991021021004501001001MA1999999100311MD1999999+0131MW1011REMSYN017333   10/// 58013
0143829940999991987021812004-09667-035700FM-12+008999999V0200901N00211045001CN0500001N9+02741+02341101401ADDAA124003091AG10999AY191061AY261061GF106991031021012501041001KA1240N+02331MA1999999100381MD1999999+0191MW1031REMSYN023333   20233 58019 60034
0118829940999991987021818004-09667-035700FM-12+008999999V0200901N00151045001CN0500001N9+02971+02321101191ADDAA106000091AG10999AY101061AY221061GF106991031031012501041001MA1999999100181MD1999999+0061MW1011REMSYN011333   58006
0143829940999991987021912004-09667-035700FM-12+008999999V0200901N00311045001CN0200001N9+02751+02401101501ADDAA124003091AG10999AY191061AY261061GF106991021021012501041001KA1240N+02301MA1999999100481MD1999999+0101MW1031REMSYN023333   20230 58010 60034
0118829940999991987021918004-09667-035700FM-12+008999999V0200901N005119999999N0500001N9+02921+02041101311ADDAA106000091AG10999AY111061AY211061GF105991021001012501041041MA1999999100301MD1999999+0121MW1021REMSYN011333   58012
0141829940999991987022000004-09667-035700FM-12+008999999V0200901N00151012001CN9999999N9+02551+02401101471ADDAA106000291AA299000391AG10999AY191061AY261061GF105991051021012501001001MA1999999100451MD1999999+0141MW1031REMSYN023333   10/// 58014 69921
0143829940999991987022012004-09667-035700FM-12+008999999V0201401N00461045001CN0500001N9+02751+02021101451ADDAA124004091AG10999AY191061AY261061GF106991031061017501061001KA1240N+02201MA1999999100431MD1999999-0051MW1031REMSYN023333   20220 59005 60044
0118829940999991987022018004-09667-035700FM-12+008999999V0201401N00511045001CN0500001N9+02951+01941101251ADDAA106000091AG10999AY111061AY221061GF106991031051022501041001MA1999999100241MD1999999-0061MW1021REMSYN011333   59006
0118829940999991987022100004-09667-035700FM-12+008999999V0201401N00211220001CN9999999N9+02521+02171101271ADDAA106000091AG10001AY101061AY201061GF103991031011012501001001MA1999999100251MD1999999-0201MW1021REMSYN011333   59020
0143829940999991987022112004-09667-035700FM-12+008999999V0201401N00621045001CN0500001N9+02781+02091101181ADDAA124007091AG10999AY191061AY261061GF106991031031012501041001KA1240N+02261MA1999999100171MD1999999-0261MW1031REMSYN023333   20226 59026 60074
0124829940999991987022118004-09667-035700FM-12+008999999V0200901N00621045001CN0500001N9+02801+02201101111ADDAA106005091AG10999AY191061AY261061GF106991041091012501041001MA1999999100101MD1999999-0141MW1031REMSYN017333   59014 60051
0126829940999991987022200004-09667-035700FM-12+008999999V0200501N00051045001CN9999999N9+02401+02311101191ADDAG10999AY191061AY261061GF106991031031012501021001KA1240M+03021MA1999999100601MD1999999-0021MW1031REMSYN017333   10302 59002
0143829940999991987022212004-09667-035700FM-12+008999999V0200901N00311045001CN0500001N9+02841+02041101271ADDAA124011091AG10999AY191061AY261061GF106991041021012501041001KA1240N+02161MA1999999100261MD1999999+0091MW1031REMSYN023333   20216 58009 60114
0118829940999991987022218004-09667-035700FM-12+008999999V0200901N00411220001CN0500001N9+02961+02021101111ADDAA106000091AG10999AY101061AY201061GF103991031021017501001001MA1999999100151MD1999999+0051MW1011REMSYN011333   58005
0143829940999991987022312004-09667-035700FM-12+008999999V0200901N00671045001CN0500001N9+02841+02191101421ADDAA124004091AG10999AY191061AY261061GF106991031031012501061001KA1240N+02141MA1999999100411MD1999999+0151MW1031REMSYN023333   20214 58015 60044
0118829940999991987022318004-09667-035700FM-12+008999999V0200901N00311045001CN0500001N9+02981+02121101181ADDAA106000091AG10999AY111061AY221061GF106991031051012501041001MA1999999100181MD1999999+0031MW1031REMSYN011333   58003
0143829940999991987022412004-09667-035700FM-12+008999999V0200901N00211045001CN0100001N9+02401+02331101351ADDAA124000591AG10999AY191061AY261061GF108991041071008001021999KA1240N+02201MA1999999100331MD1999999+0151MW1031REMSYN023333   20220 58015 69954
0118829940999991987022418004-09667-035700FM-12+008999999V0200901N004119999999N0500001N9+02901+02101101111ADDAA106000091AG10999AY121061AY221061GF106991031001012501041041MA1999999100111MD1999999-0071MW1031REMSYN011333   59007
0118829940999991987022500004-09667-035700FM-12+008999999V0200501N00151220001CN9999999N9+02441+02301101391ADDAA106000091AG10999AY101061AY201061GF103991031011012501001001MA1999999100361MD1999999+0071MW1011REMSYN011333   58007
0137829940999991987022512004-09667-035700FM-12+008999999V0200901N00311012001CN0500001N9+02831+02221101341ADDAA106000091AG10999AY101061AY221061GF105991051021012501001001KA1240N+02201MA1999999100321MD1999999-0011MW1031REMSYN017333   20220 59001
0118829940999991987022518004-09667-035700FM-12+008999999V0200901N00461220001CN0500001N9+02961+02051101171ADDAA106000091AG10999AY101061AY201061GF103991031021012501001001MA1999999100161MD1999999+0061MW1011REMSYN011333   58006
0137829940999991987022612004-09667-035700FM-12+008999999V0200901N00311045001CN0500001N9+02851+02091101401ADDAA106000091AG10999AY101061AY221061GF106991021031012501041001KA1240N+02241MA1999999100391MD1999999+0071MW1031REMSYN017333   20224 58007
0118829940999991987022618004-09667-035700FM-12+008999999V0200901N00311045001CN0500001N9+02901+02251101361ADDAA106000091AG10999AY101061AY221061GF106991021031012501041001MA1999999100351MD1999999+0201MW1031REMSYN011333   58020
0124829940999991987022700004-09667-035700FM-12+008999999V0200901N00101220001CN9999999N9+02601+02271101611ADDAA106000091AG10999AY101061AY201061GF102991021021008001001001MA1999999100581MD1999999+0121MW1011REMSYN017333   10/// 58012
0137829940999991987022712004-09667-035700FM-12+008999999V0200901N00461220001CN0500001N9+02821+02101101491ADDAA106000091AG10001AY121061AY221061GF105991021001017501041041KA1240N+02221MA1999999100481MD1999999+0091MW1031REMSYN017333   20222 58009
0118829940999991987022718004-09667-035700FM-12+008999999V0200901N00511045001CN0500001N9+02981+02121101331ADDAA106000091AG10999AY111061AY211061GF106991021021017501041001MA1999999100321MD1999999-0031MW1031REMSYN011333   59003
0118829940999991987022800004-09667-035700FM-12+008999999V0200901N00101220001CN9999999N9+02551+02231101361ADDAA106000091AG10999AY101061AY201061GF103991031011012501001001MA1999999100331MD1999999-0051MW1011REMSYN011333   59005
0154829940999991987022812004-09667-035700FM-12+008999999V0200901N00261012001CN0500001N9+02801+02291101381ADDAA124000791AA299001091AG10999AY191061AY261061GF105991051021012501001001KA1240N+02261MA1999999100371MD1999999-0111MW1031REMSYN023333   20226 59011 69974
0118829940999991987022818004-09667-035700FM-12+008999999V0200901N00361220001CN0500001N9+02931+02291101101ADDAA106000091AG10999AY101061AY221061GF103991031021012501001001MA1999999100101MD1999999-0211MW1031REMSYN011333   59021
0143829940999991987030112004-09667-035700FM-12+008999999V0200901N00311045001CN0200001N9+99999+99999101251ADDAA124003091AG10999AY191061AY261061GF106991021031012501041001KA1240N+02401MA1999999100241MD1999999-0131MW1031REMSYN023333   20240 59013 60034
0118829940999991987030118004-09667-035700FM-12+008999999V0200901N00461045001CN0500001N9+02921+02341101151ADDAA106000091AG10999AY101061AY221061GF106991031021012501041001MA1999999100141MD1999999-0041MW1031REMSYN011333   59004
0124829940999991987030200004-09667-035700FM-12+008999999V0200901N00101220001CN9999999N9+02601+02311101301ADDAA106000091AG10999AY101061AY221061GF103991031011012501001001MA1999999100281MD1999999-0021MW1031REMSYN017333   10/// 59002
0143829940999991987030212004-09667-035700FM-12+008999999V0201401N00311045001CN0500001N9+02821+02101101241ADDAA124001091AG10999AY191061AY261061GF106991031031012501061001KA1240N+02261MA1999999100231MD1999999-0011MW1031REMSYN023333   20226 59001 60014
0118829940999991987030218004-09667-035700FM-12+008999999V0201401N00511220001CN0500001N9+02981+02121101171ADDAA106000091AG10999AY111061AY211061GF105991021001017501041041MA1999999100161MD1999999+0021MW1021REMSYN011333   58002
0137829940999991987030312004-09667-035700FM-12+008999999V0201401N00211045001CN0500001N9+02861+01921101311ADDAA106000091AG10999AY111061AY221061GF106991021041012501041001KA1240N+02241MA1999999100301MD1999999+0071MW1031REMSYN017333   20224 58007
0118829940999991987030318004-09667-035700FM-12+008999999V0201401N00461045001CN0500001N9+02981+02011101121ADDAA106000091AG10999AY111061AY211061GF105991021021017501061001MA1999999100121MD1999999-0041MW1021REMSYN011333   59004
0118829940999991987030400004-09667-035700FM-12+008999999V0200901N00051012001CN9999999N9+02551+02211101151ADDAA106000091AG10999AY111061AY211061GF105991051021012501001001MA1999999100131MD1999999-0051MW1021REMSYN011333   59005
0137829940999991987030412004-09667-035700FM-12+008999999V0200901N00261045001CN0500001N9+02801+02291101331ADDAA106000091AG10999AY101061AY221061GF106991021031012501041001KA1240N+02301MA1999999100321MD1999999+0021MW1031REMSYN017333   20230 58002
0118829940999991987030418004-09667-035700FM-12+008999999V0203601N00261045001CN0500001N9+02971+02211101031ADDAA106000091AG10999AY101061AY221061GF106991021021012501041001MA1999999100031MD1999999-0091MW1031REMSYN011333   59009
0124829940999991987030500004-09667-035700FM-12+008999999V0200501N00151012001CN9999999N9+02501+02091101291ADDAA106000091AG10999AY101061AY221061GF105991051021012501001001MA1999999100271MD1999999+0141MW1031REMSYN017333   10/// 58014
0137829940999991987030512004-09667-035700FM-12+008999999V0200901N00211012001CN0200001N9+02871+02331101581ADDAA106000091AG10999AY101061AY221061GF105991051021012501001001KA1240N+02281MA1999999100021MD1999999-0051MW1031REMSYN017333   20228 59005
0118829940999991987030518004-09667-035700FM-12+008999999V0200501N00461045001CN0200001N9+02881+02211101111ADDAA106000091AG10999AY121061AY221061GF107991021031012501061001MA1999999100101MD1999999+0071MW1031REMSYN011333   58007
0124829940999991987030600004-09667-035700FM-12+008999999V0203601N00311220001CN9999999N9+02501+02291101291ADDAA106000091AG10999AY101061AY201061GF103991031021012501001001MA1999999100261MD1999999-0111MW1011REMSYN017333   10/// 59011
0137829940999991987030612004-09667-035700FM-12+008999999V0200901N00621045001CN0500001N9+02921+02141101161ADDAA106000091AG10999AY111061AY221061GF106991031031022501061001KA1240N+02271MA1999999100151MD1999999-0121MW1031REMSYN017333   20227 59012
0137829940999991987030618004-09667-035700FM-12+008999999V0200901N00671220001CN0500001N9+03021+02021101071ADDAA106000091AG10999AY101061AY201061GF103991999001017501041001MA1999999100071MD1999999-0031MW1011REMSYN011333   59003EQDQ01+000022SCOTLC
0124829940999991987030700004-09667-035700FM-12+008999999V0200501N00411220001CN9999999N9+02561+02161101131ADDAA106000091AG10999AY101061AY201061GF103991031011017501001001MA1999999100111MD1999999-0151MW1011REMSYN017333   10/// 59015
0137829940999991987030712004-09667-035700FM-12+008999999V0200501N00411220001CN0500001N9+02901+02121101121ADDAA106000091AG10999AY101061AY201061GF103991031001012501061001KA1240N+02301MA1999999100201MD1999999+0051MW1021REMSYN017333   20230 58005
0118829940999991987030718004-09667-035700FM-12+008999999V0201401N00511220001CN0500001N9+03081+02011101091ADDAA106000091AG10999AY101061AY211061GF105991021001017501041041MA1999999100091MD1999999+0021MW1021REMSYN011333   58002
0124829940999991987030800004-09667-035700FM-12+008999999V0200501N00261045001CN9999999N9+02481+02381101241ADDAA106000091AG10999AY111061AY211061GF105991021021017501061001MA1999999100221MD1999999+0111MW1031REMSYN017333   10/// 58011
0154829940999991987030812004-09667-035700FM-12+008999999V0200501N00411045001CN0500001N9+03861+02211101131ADDAA124000691AA299000591AG10999AY191061AY261061GF106991031031012501041001KA1240N+02241MA1999999100121MD1999999-0081MW1031REMSYN023333   20224 59008 69964
0118829940999991987030818004-09667-035700FM-12+008999999V0200901N00621220001CN0500001N9+02941+02141101061ADDAA106000091AG10999AY111061AY211061GF105991021001017501041011MA1999999100061MD1999999-0031MW1031REMSYN011333   59003
0154829940999991987030912004-09667-035700FM-12+008999999V0200501N00461220001CN0500001N9+02851+02041101101ADDAA124000691AA299000591AG10999AY191061AY261061GF106991031011022501001011KA1240N+02261MA1999999100101MD1999999-0021MW1031REMSYN023333   20226 59002 69964
0137829940999991987031012004-09667-035700FM-12+008999999V0200901N00311045001CN0500001N9+02961+02021101281ADDAA106000091AG10999AY111061AY211061GF105991021011017501041001KA1240N+02301MA1999999100281MD1999999+0181MW1031REMSYN017333   20230 58018
0118829940999991987031018004-09667-035700FM-12+008999999V0200901N00511220001CN0500001N9+03101+02061101011ADDAA106000091AG10999AY101061AY201061GF103991031011022501001001MA1999999100011MD1999999-0031MW1011REMSYN011333   59003
0137829940999991987031112004-09667-035700FM-12+008999999V0200901N00151012001CN0200001N9+02881+02321101331ADDAA106000091AG10999AY101061AY221061GF105991051021012501001001KA1240N+02301MA1999999100321MD1999999+0041MW1031REMSYN017333   20230 58004
0137829940999991987031212004-09667-035700FM-12+008999999V0200901N00261045001CN0500001N9+02851+02331101251ADDAA106000091AG10999AY101061AY221061GF106991021031012501041001KA1240N+02461MA1999999100241MD1999999-0081MW1031REMSYN017333   20246 59008
0118829940999991987031218004-09667-035700FM-12+008999999V0200901N00621045001CN0100001N9+02901+02061101331ADDAA106000091AG10001AY121061AY221061GF108991031051012501061999MA1999999100321MD1999999+0231MW1031REMSYN011333   58023
0124829940999991987031300004-09667-035700FM-12+008999999V0209991C00001220001CN9999999N9+02601+02311101201ADDAA106000091AG10999AY101061AY201061GF102991021011008001001001MA1999999100181MD1999999-0021MW1011REMSYN017333   10/// 59002
0143829940999991987031312004-09667-035700FM-12+008999999V0201401N00151045001CN0500001N9+02901+02391101191ADDAA199008091AG10999AY191061AY261061GF106991031091012501041001KA1240N+02321MA1999999100181MD1999999-0061MW1031REMSYN023333   20232 59006 6008/
0118829940999991987031318004-09667-035700FM-12+008999999V0201401N00361045001CN0500001N9+03061+02141101141ADDAA106000091AG10999AY121061AY221061GF106991021061017501061001MA1999999100141MD1999999+0051MW1031REMSYN011333   58005
0143829940999991987031412004-09667-035700FM-12+008999999V0202301N00101045001CN0500001N9+99999+99999101381ADDAA124000191AG10999AY191061AY261061GF106991031041017501061001KA1240N+02281MA1999999100371MD1999999+0191MW1031REMSYN023333   20228 58019 69914
0143829940999991987031512004-09667-035700FM-12+008999999V0200501N00311045001CN0200001N9+02861+02331101321ADDAA124003091AG10999AY191061AY261061GF107991031091012501061001KA1240N+02251MA1999999100311MD1999999-0061MW1031REMSYN023333   20225 59006 60034
0130829940999991987031600004-09667-035700FM-12+008999999V0200501N00051045001CN9999999N9+02371+02311101521ADDAA106005091AG10999AY191061AY261061GF106991031071012501021001MA1999999100491MD1999999+0111MW1031REMSYN023333   10/// 58011 60051
0143829940999991987031612004-09667-035700FM-12+008999999V0203201N00151045001CN0100001N9+02361+02311101531ADDAA124034091AG10999AY191061AY261061GF108991041071012501021999KA1240N+02181MA1999999100511MD1999999+0201MW1031REMSYN023333   20218 58020 60344
0124829940999991987031700004-09667-035700FM-12+008999999V0209991C000019999999N9999999N9+02441+02301101461ADDAA106002091AG10999AY191061AY261061GF106991031001008001061061MA1999999100431MD1999999-0061MW1031REMSYN017333   59006 60021
0143829940999991987031712004-09667-035700FM-12+008999999V0201401N00361045001CN0500001N9+02881+01891101431ADDAA124012091AG10999AY191061AY261061GF106991031061012501061001KA1240N+02201MA1999999100711MD1999999-0101MW1031REMSYN023333   20220 59010 60124
0143829940999991987031812004-09667-035700FM-12+008999999V0201401N00461007501CN0500001N9+02801+02031101181ADDAA124010091AG10999AY191061AY261061GF106991051021008001001041KA1240N+02221MA1999999100171MD1999999-0041MW1031REMSYN023333   20222 59004 60104
0096829940999991987031818004-09667-035700FM-12+008999999V0201401N00461045001CN0500001N9+02931+02241100991ADDAA106000091AG10999AY121061AY221061GF105991041091008001021001MA1999999099991MW1031REMSYN003333
0104829940999991987031900004-09667-035700FM-12+008999999V0200501N00211004201CN9999999N9+02471+02281101261ADDAA106000091AG10999AY121061AY221061GF108991071071004501021999MA1999999100231MW1031REMSYN011333   10///
0143829940999991987031912004-09667-035700FM-12+008999999V0201401N00311045001CN0100001N9+02801+02361101261ADDAA124005091AG10999AY191061AY261061GF106991031031012501041001KA1240N+02301MA1999999100251MD1999999+0081MW1031REMSYN023333   20230 58008 60054
0118829940999991987031918004-09667-035700FM-12+008999999V0201401N00511045001CN0500001N9+02951+01911101141ADDAA106000091AG10999AY121061AY221061GF106991031061017501041001MA1999999100131MD1999999+0141MW1031REMSYN011333   58014
0130829940999991987032000004-09667-035700FM-12+008999999V0200501N00101045001CN9999999N9+02401+02241101321ADDAA106006091AG10999AY101061AY261061GF106991021071012501041001MA1999999100291MD1999999+0061MW1031REMSYN023333   10/// 58006 60061
0143829940999991987032012004-09667-035700FM-12+008999999V0203601N00211220001CN0500001N9+02881+02161101311ADDAA124008091AG10999AY191061AY261061GF105991031001022501041041KA1240N+02261MA1999999100301MD1999999+0051MW1031REMSYN023333   20226 58005 60084
0118829940999991987032018004-09667-035700FM-12+008999999V0201401N00361045001CN0500001N9+03001+02081101091ADDAA106000091AG10999AY111061AY221061GF106991031031017501041001MA1999999100091MD1999999-0021MW1031REMSYN011333   59002
0143829940999991987032112004-09667-035700FM-12+008999999V0203201N00151004201CN0020001N9+02431+02391101281ADDAA124028091AG10999AY191061AY261061GF108991051071004501021999KA1240N+02361MA1999999100261MD1999999-0041MW1621REMSYN023333   20236 59004 60284
0124829940999991987032118004-09667-035700FM-12+008999999V0200901N00151004201CN0020001N9+02451+02371101051ADDAA106032091AG10999AY191061AY261061GF108991061071004501021999MA1999999100041MD1999999-0091MW1031REMSYN017333   59009 60321
0143829940999991987032212004-09667-035700FM-12+008999999V0201401N00261045001CN0500001N9+02801+02361101111ADDAA124032091AG10999AY111061AY211061GF106991041021008001061041KA1240N+02211MA1999999100091MD1999999-0171MW1031REMSYN023333   20221 59017 60324
0118829940999991987032218004-09667-035700FM-12+008999999V0201401N00621012001CN0500001N9+02771+02341100921ADDAA106000091AG10999AY121061AY221061GF106991051031012501061041MA1999999099901MD1999999-0141MW1031REMSYN011333   59014
0143829940999991987032312004-09667-035700FM-12+008999999V0200901N00361045001CN0500001N9+02901+02231101351ADDAA124006091AG10999AY191061AY261061GF106991031031017501061001KA1240N+02181MA1999999100341MD1999999+0251MW1031REMSYN023333   20218 58025 60064
0118829940999991987032318004-09667-035700FM-12+008999999V0201401N004619999999N0500001N9+03001+02111101061ADDAA106000091AG10999AY111061AY211061GF105991021001012501041011MA1999999100051MD1999999+0151MW1031REMSYN011333   58015
0124829940999991987032400004-09667-035700FM-12+008999999V0200501N00151045001CN9999999N9+02481+02301101091ADDAA106000091AG10999AY111061AY211061GF106991031021012501041001MA1999999100071MD1999999-0101MW1031REMSYN017333   10/// 59010
0137829940999991987032412004-09667-035700FM-12+008999999V0201401N00311045001CN0500001N9+02951+02191101321ADDAA106000091AG10999AY121061AY221061GF106991031061017501061001KA1240N+02261MA1999999100311MD1999999-0031MW1031REMSYN017333   20226 59003
0137829940999991987032418004-09667-035700FM-12+008999999V0200901N001519999999N0500001N9+02901+02321100931ADDAA106000091AG10001AY101061AY221061GF105991999021012501001001MA1999999099931MD1999999-0121MW1031REMSYN011333   59012EQDQ01+000042SCOTLC
0124829940999991987032500004-09667-035700FM-12+008999999V0200901N00051220001CN9999999N9+02531+02381101181ADDAA106000091AG10999AY101061AY201061GF103991031021012501001001MA1999999100161MD1999999+0091MW1011REMSYN017333   10/// 58009
0143829940999991987032512004-09667-035700FM-12+008999999V0201801N00361220001CN0500001N9+02821+02151101161ADDAA124000191AG10999AY191061AY261061GF104991021021008001061001KA1240N+02341MA1999999100151MD1999999-0161MW1031REMSYN023333   20234 59016 69914
0118829940999991987032518004-09667-035700FM-12+008999999V0201801N00311220001CN0500001N9+02051+02051100861ADDAA106000091AG10999AY101061AY201061GF102991011021012501061021MA1999999099861MD1999999-0071MW1011REMSYN011333   59007
0124829940999991987032600004-09667-035700FM-12+008999999V0201401N00051220001CN9999999N9+02501+02321101061ADDAA106000091AG10999AY101061AY201061GF102991021011004501001001MA1999999100041MD1999999-0121MW1011REMSYN017333   10/// 59012
0137829940999991987032612004-09667-035700FM-12+008999999V0203601N00101045001CN0200001N9+02651+02271101171ADDAA106000091AG10999AY101061AY221061GF106991021021012501041001KA1240N+02201MA1999999100161MD1999999+0011MW1031REMSYN017333   20220 58001
0143829940999991987032712004-09667-035700FM-12+008999999V0201401N00311045001CN0200001N9+02781+02181101221ADDAA124010091AG10999AY191061AY261061GF107991031031012501041001KA1240N+02201MA1999999100201MD1999999+0041MW1031REMSYN023333   20220 58004 60104
0118829940999991987032718004-09667-035700FM-12+008999999V0200901N00511220001CN0500001N9+02981+01951101111ADDAA106000091AG10999AY101061AY211061GF105991021001017501041041MA1999999100111MD1999999+0001MW1021REMSYN011333   58000
0124829940999991987032800004-09667-035700FM-12+008999999V0200901N00151220001CN9999999N9+02551+02381101071ADDAA106000091AG10999AY101061AY221061GF103991031021012501001001MA1999999100051MD1999999+0081MW1031REMSYN017333   10/// 58008
0143829940999991987032812004-09667-035700FM-12+008999999V0202701N00151045001CN0200001N9+02651+02351101171ADDAA124004091AG10999AY191061AY261061GF106991021031012501041001KA1240N+02381MA1999999100151MD1999999-0051MW1031REMSYN023333   20238 59005 60044
0124829940999991987032900004-09667-035700FM-12+008999999V0209991C00001220001CN9999999N9+02501+02431101161ADDAA106000091AG10999AY101061AY201061GF103991031021012501001001MA1999999100141MD1999999+0091MW1031REMSYN017333   10/// 58009
0137829940999991987032912004-09667-035700FM-12+008999999V0203601N00151045001CN0500001N9+02851+02331101081ADDAA106000091AG10999AY101061AY221061GF106991021031012501041001KA1240N+02301MA1999999100071MD1999999-0091MW1031REMSYN017333   20230 59009
0118829940999991987032918004-09667-035700FM-12+008999999V0200901N00361045001CN0500001N9+02951+02291101701ADDAA106000091AG10999AY101061AY221061GF105991021021012501041001MA1999999099701MD1999999-0191MW1031REMSYN011333   59019
0124829940999991987033000004-09667-035700FM-12+008999999V0203601N00151045001CN9999999N9+02301+02141101141ADDAA106000091AG10999AY101061AY221061GF106991031031012501041001MA1999999100111MD1999999-0031MW1031REMSYN017333   10/// 59003
0124829940999991987033100004-09667-035700FM-12+008999999V0200901N00151045001CN9999999N9+02461+02191101101ADDAA106000091AG10999AY111061AY211061GF106991021011022501061001MA1999999100071MD1999999-0041MW1021REMSYN017333   10/// 59004
0143829940999991987033112004-09667-035700FM-12+008999999V0200901N00461045001CN0200001N9+02451+02321101301ADDAA124005091AG10999AY191061AY261061GF107991031071017501021001KA1240N+02181MA1999999100281MD1999999+0071MW1611REMSYN023333   20218 58007 60054
0124829940999991987033118004-09667-035700FM-12+008999999V0200901N00151045001CN0500001N9+02501+02361101121ADDAA106000591AG10999AY191061AY261061GF106991021041017501041001MA1999999100101MD1999999+0101MW1031REMSYN017333   58010 69951
0130829940999991987040100004-09667-035700FM-12+008999999V0200501N00101045001CN9999999N9+02451+02371101271ADDAA106003091AG10999AY191061AY261061GF107991031071012501021001MA1999999100241MD1999999+0171MW1611REMSYN023333   10/// 58017 60031
0143829940999991987040112004-09667-035700FM-12+008999999V0200901N00051045001CN0010001N9+02371+02331101491ADDAA124020091AG10999AY191061AY261061GF108991021071004501021999KA1240N+02301MA1999999100461MD1999999+0181MW1611REMSYN023333   20230 58018 60204
0124829940999991987040118004-09667-035700FM-12+008999999V0201401N00211007501CN0100001N9+02571+02421101181ADDAA106005091AG10999AY191061AY261061GF108991051071008001021999MA1999999100161MD1999999+0061MW1031REMSYN017333   58006 60051
0124829940999991987040200004-09667-035700FM-12+008999999V0209991C00001220001CN9999999N9+02451+02411101231ADDAA106000091AG10999AY101061AY221061GF103991031021008001001001MA1999999100291MD1999999+0051MW1031REMSYN017333   10/// 58005
0143829940999991987040212004-09667-035700FM-12+008999999V0201401N00411045001CN0100001N9+02781+02361101341ADDAA124007091AG10999AY191061AY261061GF106991031091008001021001KA1240N+02241MA1999999100321MD1999999-0141MW1031REMSYN023333   20224 59014 60074
0118829940999991987040218004-09667-035700FM-12+008999999V0201401N00361220001CN0500001N9+03001+01751101241ADDAA106000091AG10999AY101061AY201061GF104991021001022501041011MA1999999100231MD1999999+0071MW1011REMSYN011333   58007
0162829940999991987040312004-09667-035700FM-12+008999999V0202301N00151045001CN0500001N9+02681+01941101401ADDAA124006091AG10999AY191061AY261061GF106991031091012501041001KA1240N+02201MA1999999100381MD1999999+0061MW1031REMSYN023333   20220 58006 60064EQDQ01+999990APOSP 
0135829940999991987040318004-09667-035700FM-12+008999999V0201401N00311045001CN0500001N9+03041+02121101411ADDAA106000291AA299000391AG10999AY191061AY261061GF107991031061017501041001MA1999999100411MD1999999+0181MW1031REMSYN017333   58018 69921
0141829940999991987040400004-09667-035700FM-12+008999999V0200901N00151045001CN9999999N9+02351+02181101341ADDAA106000791AA299001091AG10999AY191061AY261061GF106991031041008001041001MA1999999100311MD1999999-0011MW1031REMSYN023333   10/// 59001 69971
0154829940999991987040412004-09667-035700FM-12+008999999V0201401N00261220001CN0500001N9+02731+02301101251ADDAA124000991AA299001091AG10999AY101061AY211061GF105991041021008001001011KA1240N+02201MA1999999100231MD1999999+0151MW1031REMSYN023333   20220 58015 69994
0118829940999991987040418004-09667-035700FM-12+008999999V0200901N00461220001CN0500001N9+02891+02211101011ADDAA106000091AG10999AY111061AY201061GF103991021021012501061001MA1999999100011MD1999999-0401MW1011REMSYN011333   59040
0124829940999991987040500004-09667-035700FM-12+008999999V0209991C00001220001CN9999999N9+02471+02321101181ADDAA106000091AG10999AY101061AY201061GF101991011011004501001001MA1999999100151MD1999999-0161MW1011REMSYN017333   10/// 59016
0143829940999991987040512004-09667-035700FM-12+008999999V0200901N00261012001CN0500001N9+02831+02271101291ADDAA124000191AG10999AY191061AY261061GF107991061031012501061001KA1240N+02201MA1999999100281MD1999999+0051MW1031REMSYN023333   20220 58005 69914
0118829940999991987040518004-09667-035700FM-12+008999999V0200901N00461220001CN0500001N9+02931+02271101011ADDAA106000091AG10999AY101061AY201061GF103991021031012501061001MA1999999100001MD1999999-0011MW1011REMSYN011333   59001
0124829940999991987040600004-09667-035700FM-12+008999999V0200501N00101220001CN9999999N9+02501+02381101351ADDAA106000091AG10999AY101061AY201061GF102991021021008001001001MA1999999100321MD1999999+0171MW1011REMSYN017333   10/// 58017
0137829940999991987040612004-09667-035700FM-12+008999999V0200501N00511220001CN0500001N9+02961+02231101551ADDAA106000091AG10999AY101061AY201061GF103991031011017501001001KA1240N+02181MA1999999100541MD1999999+0261MW1021REMSYN017333   20218 58026
0118829940999991987040618004-09667-035700FM-12+008999999V0201401N00511220001CN0500001N9+03081+02241101351ADDAA106000091AG10999AY111061AY211061GF105991021011022501001041MA1999999100351MD1999999+0171MW1031REMSYN011333   58017
0118829940999991987040718004-09667-035700FM-12+008999999V0201801N00261045001CN0500001N9+02291+02291101441ADDAA106000091AG10999AY101061AY221061GF106991021031012501041001MA1999999100431MD1999999+0081MW1031REMSYN011333   58008
0103829940999991987040800004-09667-035700FM-12+008999999V0200901N00051220001CN9999999N9+02501+02361101581ADDAA106000091AG10999AY101061AY221061GF102991999999012501999999MA1999999100551MW1031REMSYN010333   10//
0143829940999991987040812004-09667-035700FM-12+008999999V0200901N00151007501CN0020001N9+02521+02451101531ADDAA124014091AG10999AY191061AY261061GF108991051071008001021999KA1240N+02341MA1999999100511MD1999999-0041MW1611REMSYN023333   20234 59004 60144
0118829940999991987040818004-09667-035700FM-12+008999999V0201401N00411045001CN0500001N9+02871+02331101201ADDAA106000091AG10999AY121061AY221061GF106991041021012501061001MA1999999100191MD1999999-0241MW1011REMSYN011333   59024
0130829940999991987040900004-09667-035700FM-12+008999999V0203601N00151007501CN9999999N9+02521+02361101401ADDAA106001091AG10999AY121061AY221061GF108991051071008001021999MA1999999100371MD1999999-0181MW1611REMSYN023333   10/// 59018 60011
0143829940999991987040912004-09667-035700FM-12+008999999V0200901N00151007501CN0100001N9+02641+02411101351ADDAA124002091AG10999AY191061AY261061GF107991051071008001021001KA1240N+02201MA1999999100331MD1999999-0181MW1601REMSYN023333   20220 59018 60024
0096829940999991987040918004-09667-035700FM-12+008999999V0201401N004619999999N0200001N9+02751+01891101271ADDAG10999GF107991999031012501091061MA1999999100261REMSYN017555   58007 69961EQDQ01+000002SCOTLC
0124829940999991987041018004-09667-035700FM-12+008999999V0200901N00261045001CN0040001N9+02701+02111101201ADDAA106012091AG10999AY191061AY261061GF108991031091012501021999MA1999999100191MD1999999-0051MW1031REMSYN017333   59005 60121
0130829940999991987041100004-09667-035700FM-12+008999999V0200901N00101045001CN9999999N9+02541+02401101211ADDAA199011091AG10999AY191061AY261061GF105991031031008001041001MA1999999100191MD1999999-0181MW1031REMSYN023333   10/// 59018 6011/
0143829940999991987041112004-09667-035700FM-12+008999999V0200901N00621045001CN0200001N9+02741+02501101481ADDAA124043091AG10999AY191061AY261061GF107991031091012501021001KA1240N+02161MA1999999100461MD1999999+0131MW1211REMSYN023333   20216 58013 60434
0118829940999991987041118004-09667-035700FM-12+008999999V0200901N00461045001CN0500001N9+03001+01941101351ADDAA106000091AG10999AY121061AY221061GF106991031061022501061001MA1999999100241MD1999999+0051MW1031REMSYN011333   58005
0143829940999991987041212004-09667-035700FM-12+008999999V0201401N00261045001CN0100001N9+02601+02141101341ADDAA124001091AG10999AY191061AY261061GF107991031071008001021001KA1240N+02301MA1999999100321MD1999999-0141MW1211REMSYN023333   20230 59014 60014
0124829940999991987041300004-09667-035700FM-12+008999999V0209991C00001220001CN9999999N9+02341+02261101581ADDAA106000091AG10999AY101061AY201061GF102991021011012501001001MA1999999100251MD1999999-0011MW1031REMSYN017333   10/// 59001
0137829940999991987041312004-09667-035700FM-12+008999999V0200901N00411045001CN0500001N9+02781+01991101221ADDAA106000091AG10999AY121061AY221061GF105991031011017501061001KA1240N+02121MA1999999100201MD1999999-0121MW1031REMSYN017333   20212 59012
0118829940999991987041318004-09667-035700FM-12+008999999V0200901N00461220001CN0500001N9+03041+01711101191ADDAA106000091AG10999AY101061AY201061GF103991031011017501001001MA1999999100481MD1999999+0201MW1011REMSYN011333   58020
0118829940999991987041400004-09667-035700FM-12+008999999V0200901N00051045001CN9999999N9+02561+02291101201ADDAA106000091AG10999AY121061AY221061GF106991031031017501041001MA1999999100181MD1999999-0071MW1031REMSYN011333   59007
0143829940999991987041412004-09667-035700FM-12+008999999V0200901N00311045001CN0040001N9+02451+02451101521ADDAA124078091AG10999AY191061AY261061GF108991041091012501021999KA1240N+02101MA1999999100501MD1999999+0301MW1031REMSYN023333   20210 58030 60784
0130829940999991987041500004-09667-035700FM-12+008999999V0200501N00051045001CN9999999N9+02401+02331101421ADDAA106001091AG10999AY191061AY261061GF105991021041012501041001MA1999999100391MD1999999+0211MW1031REMSYN023333   10/// 58021 60011
0143829940999991987041512004-09667-035700FM-12+008999999V0203201N00211045001CN0500001N9+02601+02141101381ADDAA124005091AG10999AY191061AY261061GF106991031091012501041001KA1240N+02121MA1999999100351MD1999999-0151MW1031REMSYN023333   20212 59015 60054
0118829940999991987041518004-09667-035700FM-12+008999999V0201401N00461045001CN0500001N9+02861+02281101151ADDAA106000091AG10999AY121061AY221061GF105991031021008001061001MA1999999100141MD1999999-0071MW1011REMSYN011333   59007
0124829940999991987041600004-09667-035700FM-12+008999999V0200501N00051045001CN9999999N9+02461+02271101261ADDAA106000091AG10999AY121061AY221061GF106991021041017501031001MA1999999100241MD1999999-0161MW1031REMSYN017333   10/// 59016
0143829940999991987041612004-09667-035700FM-12+008999999V0200901N00261045001CN0500001N9+02681+02061101371ADDAA124032091AG10999AY191061AY261061GF105991041021017501061001KA1240N+02161MA1999999100351MD1999999+0061MW1031REMSYN023333   20216 58006 60324
0124829940999991987041618004-09667-035700FM-12+008999999V0200901N00311045001CN0500001N9+02821+02151101251ADDAA106002091AG10999AY191061AY261061GF106991021031012501041001MA1999999100241MD1999999+0161MW1031REMSYN017333   58016 60021
0130829940999991987041700004-09667-035700FM-12+008999999V0200901N00051045001CN9999999N9+02361+02281101381ADDAA106012091AG10999AY191061AY261061GF106991031071008001081001MA1999999100381MD1999999+0121MW1031REMSYN023333   10/// 58012 60121
0143829940999991987041712004-09667-035700FM-12+008999999V0201401N00361045001CN0500001N9+02841+01881101361ADDAA124037091AG10999AY191061AY261061GF105991031061017501021001KA1240N+02161MA1999999100351MD1999999+0001MW1031REMSYN023333   20216 58000 60374
0118829940999991987041718004-09667-035700FM-12+008999999V0201401N00411045001CN0500001N9+02941+01791101271ADDAA106000091AG10999AY111061AY211061GF106991021011017501061001MA1999999100261MD1999999+0021MW1031REMSYN011333   58002
0137829940999991987041800004-09667-035700FM-12+008999999V0209991C00001220001CN9999999N9+02501+02211101291ADDAA106000091AG10999AY111061AY211061GF105991021021012501001011KA1240M+03041MA1999999100261MD1999999-0091MW1021REMSYN017333   10304 59009
0143829940999991987041812004-09667-035700FM-12+008999999V0201401N00461045001CN0500001N9+02701+01991101511ADDAA124003091AG10999AY191061AY261061GF106991031061012501061001KA1240N+02201MA1999999100491MD1999999+0141MW1031REMSYN023333   20220 58014 60034
0118829940999991987041818004-09667-035700FM-12+008999999V0201401N00461220001CN0500001N9+03061+01731101501ADDAA106000091AG10999AY101061AY211061GF103991031001017501041001MA1999999100491MD1999999+0231MW1021REMSYN011333   58023
0143829940999991987041912004-09667-035700FM-12+008999999V0200901N00261045001CN0500001N9+02801+02131101301ADDAA124004091AG10999AY191061AY261061GF106991031031012501041001KA1240N+02141MA1999999100291MD1999999-0201MW1031REMSYN023333   20214 59020 60044
0124829940999991987041918004-09667-035700FM-12+008999999V0201401N00461045001CN0200001N9+02681+01761101241ADDAA106001091AG10999AY191061AY261061GF107991031091012501061001MA1999999100231MD1999999-0261MW1031REMSYN017333   59026 60011
0118829940999991987042018004-09667-035700FM-12+008999999V0201401N00361045001CN0500001N9+02941+01821101331ADDAA106000091AG10999AY111061AY211061GF105991021031017501061001MA1999999100221MD1999999-0011MW1031REMSYN011333   59001
0137829940999991987042100004-09667-035700FM-12+008999999V0200501N00211045001CN9999999N9+02491+02361101511ADDAA106000091AG10999AY111061AY221061GF106991041071004501021001KA1240M+03081MA1999999100481MD1999999+0241MW1031REMSYN017333   10308 58024
0143829940999991987042112004-09667-035700FM-12+008999999V0201401N00461012001CN0100001N9+02731+02321101351ADDAA124001091AG10999AY191061AY261061GF108991071091012501021999KA1240N+02301MA1999999100341MD1999999+0101MW1031REMSYN023333   20230 58010 60014
0135829940999991987042118004-09667-035700FM-12+008999999V0200901N00311007501CN0200001N9+02851+02331101221ADDAA106000491AA299000591AG10999AY191061AY261061GF105991051021008001001001MA1999999100211MD1999999-0011MW1031REMSYN017333   59001 69941
0143829940999991987042212004-09667-035700FM-12+008999999V0201401N00211045001CN0100001N9+02521+02361101351ADDAA124006091AG10999AY191061AY261061GF107991031091012501021001KA1240N+02261MA1999999100331MD1999999-0011MW1211REMSYN023333   20226 59001 60064
0124829940999991987042218004-09667-035700FM-12+008999999V0200901N00361045001CN0500001N9+02841+02291101101ADDAA106011091AG10999AY191061AY261061GF105991021021008001061001MA1999999100091MD1999999-0121MW1011REMSYN017333   59012 60111
0143829940999991987042300004-09667-035700FM-12+008999999V0200901N00311045001CN9999999N9+02451+02301101381ADDAA106001091AG10999AY191061AY261061GF106991031071012501021001KA1240M+03001MA1999999100351MD1999999-0051MW1631REMSYN023333   10300 59005 60011
0143829940999991987042312004-09667-035700FM-12+008999999V0200901N00311045001CN0500001N9+02801+02341101511ADDAA124015091AG10001AY191061AY261061GF105991021021012501041001KA1240N+02401MA1999999100491MD1999999+0161MW1031REMSYN023333   20240 58016 60154
0118829940999991987042318004-09667-035700FM-12+008999999V0200901N00461220001CN0500001N9+02901+01871100981ADDAA106000091AG10001AY101061AY201061GF103991031001017501041001MA1999999099971MD1999999-0121MW1021REMSYN011333   59012
0143829940999991987042412004-09667-035700FM-12+008999999V0202301N00211045001CN0100001N9+02481+02321101121ADDAA124001091AG10999AY191061AY261061GF107991031091008001041001KA1240N+02121MA1999999100101MD1999999-0391MW1031REMSYN023333   20212 59039 60014
0137829940999991987042512004-09667-035700FM-12+008999999V0200501N00261012001CN0500001N9+02851+02351101201ADDAA106000091AG10999AY101061AY221061GF105991051021012501001001KA1240N+02151MA1999999100181MD1999999+0081MW1031REMSYN017333   20215 58008
0118829940999991987042518004-09667-035700FM-12+008999999V0200901N00261220001CN0500001N9+02901+02411100931ADDAA106000091AG10999AY101061AY201061GF103991031021012501001001MA1999999099931MD1999999-0111MW1011REMSYN011333   59011
0143829940999991987042612004-09667-035700FM-12+008999999V0200901N00261045001CN0200001N9+02781+02301101201ADDAA124002091AG10999AY191061AY261061GF106991031031012501041001KA1240N+02301MA1999999100191MD1999999+0011MW1031REMSYN023333   20230 58001 60024
0124829940999991987042618004-09667-035700FM-12+008999999V0200901N00311045001CN0100001N9+02351+02261101101ADDAA106001091AG10999AY191061AY261061GF107991031071008001021001MA1999999100081MD1999999+0151MW1631REMSYN017333   58015 60011
0162829940999991987042700004-09667-035700FM-12+008999999V0203201N00151045001CN9999999N9+02301+02201101221ADDAA106002091AG10999AY191061AY261061GF107991031071012501021001KA1240M+99999MA1999999100191MD1999999+0031MW1601REMSYN023333   10215 58003 60021EQDQ01 +02152ATMX  
0143829940999991987042712004-09667-035700FM-12+008999999V0201401N00151045001CN0100001N9+02701+02221101161ADDAA124005091AG10999AY191061AY261061GF108991031061012501041999KA1240N+02141MA1999999100151MD1999999-0041MW1031REMSYN023333   20214 59004 60054
0118829940999991987042718004-09667-035700FM-12+008999999V0201401N00311045001CN0500001N9+02981+02121101071ADDAA106000091AG10999AY111061AY211061GF105991021021012501041001MA1999999100051MD1999999-0031MW1031REMSYN011333   59003
0137829940999991987042800004-09667-035700FM-12+008999999V0200501N00051220001CN9999999N9+02521+02341101041ADDAA106000091AG10999AY101061AY211061GF104991041021017501001001KA1240M+03141MA1999999100011MD1999999-0181MW1021REMSYN017333   10314 59018
0156829940999991987042812004-09667-035700FM-12+008999999V0201401N00461220001CN0500001N9+02001+01931101421ADDAA106000091AG10999AY101061AY201061GF103991031011017501001001KA1240N+99999MA1999999100311MD1999999+0161MW1021REMSYN017333   20218 58016EQDQ01 +02182ATMN  
0118829940999991987042818004-09667-035700FM-12+008999999V0200901N00151045001CN0500001N9+02901+02371101271ADDAA106000091AG10999AY101061AY221061GF106991021031012501041001MA1999999100261MD1999999+0211MW1031REMSYN011333   58021
0137829940999991987042900004-09667-035700FM-12+008999999V0200901N00101220001CN9999999N9+02601+02461101481ADDAA106000091AG10999AY101061AY201061GF103991031011008001001001KA1240M+03051MA1999999100461MD1999999+0451MW1011REMSYN017333   10305 58045
0143829940999991987042912004-09667-035700FM-12+008999999V0201801N00311045001CN0500001N9+02901+02021101401ADDAA124000391AG10999AY191061AY261061GF105991021011012501061001KA1240N+02221MA1999999100391MD1999999+0081MW1031REMSYN023333   20222 58008 69934
0118829940999991987042918004-09667-035700FM-12+008999999V0201401N00311220001CN0500001N9+02881+02301101231ADDAA106000091AG10999AY101061AY201061GF102991011011004501061001MA1999999100221MD1999999-0041MW1011REMSYN011333   59004
0137829940999991987043000004-09667-035700FM-12+008999999V0209991C00001220001CN9999999N9+02501+02381101431ADDAA106000091AG10999AY101061AY201061GF101991011011004501001001KA1240M+03031MA1999999100411MD1999999-0051MW1011REMSYN017333   10303 59005
0137829940999991987043012004-09667-035700FM-12+008999999V0202701N00101045001CN0200001N9+02721+02121101241ADDAA106000091AG10999AY111061AY211061GF107991021061017501061001KA1240N+02241MA1999999100231MD1999999-0161MW1031REMSYN017333   20224 59016
0118829940999991987043018004-09667-035700FM-12+008999999V0201401N00311220001CN0500001N9+02961+01991101011ADDAA106000091AG10999AY101061AY211061GF104991021021017501001011MA1999999100101MD1999999-0121MW1021REMSYN011333   59012
0137829940999991987050100004-09667-035700FM-12+008999999V0200501N00051045001CN9999999N9+02501+02251101101ADDAA106000091AG10001AY111061AY211061GF106991021021017501061001KA1240M+03101MA1999999100081MD1999999-0311MW1021REMSYN017333   10310 59031
0137829940999991987050112004-09667-035700FM-12+008999999V0200501N00151045001CN0500001N9+02801+02341101151ADDAA106000091AG10999AY101061AY201061GF105991011011004501081001KA1240N+02231MA1999999100141MD1999999-0091MW1031REMSYN017333   20223 59009
0118829940999991987050118004-09667-035700FM-12+008999999V0200901N00261220001CN0500001N9+02951+02211100811ADDAA106000091AG10999AY101061AY201061GF102991021011008001001001MA1999999099811MD1999999-0291MW1011REMSYN011333   59029
0137829940999991987050212004-09667-035700FM-12+008999999V0200501N00311220001CN0500001N9+02861+01921101031ADDAA106000091AG10999AY101061AY211061GF104991041011017501001001KA1240N+02221MA1999999100021MD1999999-0121MW1011REMSYN017333   20222 59012
0118829940999991987050218004-09667-035700FM-12+008999999V0200901N00511045001CN0500001N9+03081+01921100981ADDAA106000091AG10999AY111061AY211061GF106991021021017501041001MA1999999099981MD1999999-0071MW1021REMSYN011333   59007
0137829940999991987050312004-09667-035700FM-12+008999999V0200501N00261045001CN0500001N9+02881+01891100991ADDAA106000091AG10999AY121061AY221061GF107991031031012501061001KA1240N+02261MA1999999099991MD1999999-0031MW1031REMSYN017333   20226 59003
0096829940999991987050318004-09667-035700FM-12+008999999V0201401N00361045001CN0500001N9+02041+01821101231ADDAA106000091AG10999GF105991021031017501061001MA1999999100221MD1999999-0041REMSYN011333   59004
0134829940999991987050400004-09667-035700FM-12+008999999V0200501N001019999999N9999999N9+02521+02171101061ADDAA106000091AG10999GF105991999021012501011071KA1240M+03211MA1999999100041MD1999999-0121REMSYN017333   10321 59012EQDQ01+000002SCOTLC
0137829940999991987050412004-09667-035700FM-12+008999999V0200901N00261045001CN0500001N9+02881+01971101221ADDAA106000091AG10999AY111061AY211061GF105991021011017501041001KA1240N+02261MA1999999100211MD1999999+0221MW1031REMSYN017333   20226 58022
0143829940999991987050512004-09667-035700FM-12+008999999V0200901N00461045001CN0500001N9+02751+02121101141ADDAA124004091AG10999AY191061AY261061GF106991031061012501041001KA1240N+02301MA1999999100131MD1999999-0081MW1031REMSYN023333   20230 59008 60044
0137829940999991987050612004-09667-035700FM-12+008999999V0200901N00311220001CN0500001N9+02881+02281101381ADDAA106000091AG10999AY101061AY201061GF103991031021004501001001KA1240N+02221MA1999999100371MD1999999+0241MW1031REMSYN017333   20222 58024
0118829940999991987050618004-09667-035700FM-12+008999999V0200901N00311220001CN0500001N9+02931+02041101091ADDAA106000091AG10999AY101061AY201061GF102991021011012501001001MA1999999100081MD1999999-0021MW1031REMSYN011333   59002
0137829940999991987050700004-09667-035700FM-12+008999999V0200501N00051220001CN9999999N9+02491+02341101241ADDAA106000091AG10999AY101061AY201061GF104991041021008001001001KA1240M+03001MA1999999100311MD1999999+0011MW1031REMSYN017333   10300 58001
0118829940999991987050718004-09667-035700FM-12+008999999V0201401N00411045001CN0500001N9+02951+01921101031ADDAA106000091AG10001AY111061AY221061GF106991031091012501031001MA1999999100031MD1999999-0051MW1031REMSYN011333   59005
0143829940999991987050812004-09667-035700FM-12+008999999V0200901N00151045001CN0500001N9+02781+01881101291ADDAA124008091AG10001AY191061AY261061GF106991021031017501061001KA1240N+02301MA1999999100281MD1999999-0081MW1031REMSYN023333   20230 59008 60084
0137829940999991987050900004-09667-035700FM-12+008999999V0209991C00001220001CN9999999N9+02471+01901101271ADDAA106000091AG10999AY101061AY221061GF104991041021008001001001KA1240M+03181MA1999999100241MD1999999+0111MW1031REMSYN017333   10318 58011
0137829940999991987050912004-09667-035700FM-12+008999999V0200901N00101105001CN0500001N9+02751+01891101231ADDAA106000091AG10999AY111061AY211061GF105991021001017501041051KA1240N+02251MA1999999100221MD1999999-0061MW1021REMSYN017333   20225 59006
0137829940999991987050918004-09667-035700FM-12+008999999V0201401N00311220001CN0500001N9+03081+01751101131ADDAA106000091AG10999AY101061AY201061GF104991999021017501001001MA1999999100131MD1999999+0161MW1021REMSYN011333   58016EQDQ01+000032SCOTLC
0137829940999991987051000004-09667-035700FM-12+008999999V0209991C00001220001CN9999999N9+02401+02191101271ADDAA106000091AG10999AY111061AY201061GF103991031011012501001001KA1240M+03201MA1999999100201MD1999999+0001MW1091REMSYN017333   10320 58000
0154829940999991987051012004-09667-035700FM-12+008999999V0200901N00211220001CN0500001N9+02921+01741101211ADDAA124000291AA299000391AG10999AY191061AY261061GF104991021031017501041001KA1240N+02271MA1999999100201MD1999999-0021MW1611REMSYN023333   20227 59002 69924
0118829940999991987051018004-09667-035700FM-12+008999999V0201401N00621045001CN0500001N9+02971+01901101191ADDAA106000091AG10999AY111061AY221061GF106991021041017501061001MA1999999100191MD1999999+0061MW1031REMSYN011333   58006
0143829940999991987051212004-09667-035700FM-12+008999999V0201401N00461045001CN0500001N9+02781+01881101291ADDAA124005091AG10999AY191061AY261061GF106991031091012501041001KA1240N+02221MA1999999100281MD1999999-0061MW1211REMSYN023333   20222 59006 60054
0135829940999991987051218004-09667-035700FM-12+008999999V0200901N00411220001CN0500001N9+02801+02311101271ADDAA106000291AA299000391AG10999AY191061AY261061GF104991041021008001001001MA1999999100261MD1999999+0091MW1031REMSYN017333   58009 69921
0154829940999991987051312004-09667-035700FM-12+008999999V0201401N00511220001CN0500001N9+02821+02001101511ADDAA124000291AA299000391AG10001AY101061AY201061GF102991021021008001001001KA1240N+02181MA1999999100501MD1999999+0221MW1011REMSYN023333   20218 58022 69924
0118829940999991987051318004-09667-035700FM-12+008999999V0200901N00261220001CN0500001N9+02881+02001101251ADDAA106000091AG10999AY101061AY201061GF103991031011012501001001MA1999999100241MD1999999-0021MW1011REMSYN011333   59002
0137829940999991987051400004-09667-035700FM-12+008999999V0200501N00051220001CN9999999N9+02401+02211101341ADDAA106000091AG10999AY101061AY201061GF101991011021004501001001KA1240M+02961MA1999999100311MD1999999-0201MW1011REMSYN017333   10296 59020
0137829940999991987051412004-09667-035700FM-12+008999999V0201401N00411045001CN0500001N9+02721+01951101121ADDAA106000091AG10999AY111061AY221061GF106991021031017501041001KA1240N+02241MA1999999100111MD1999999-0391MW1031REMSYN017333   20224 59039
0137829940999991987051418004-09667-035700FM-12+008999999V0201401N004619999999N0500001N9+02801+01871100991ADDAA106000091AG10999AY111061AY211061GF106991999061012501001001MA1999999099981MD1999999-0261MW1021REMSYN011333   59026EQDQ01+000022SCOTLC
0154829940999991987051500004-09667-035700FM-12+008999999V0201401N00051045001CN9999999N9+02561+02171101051ADDAA106000291AA299000391AG10999AY191061AY261061GF106991031031012501041001KA1240M+03021MA1999999100031MD1999999-0281MW1021REMSYN023333   10302 59028 69921
0124829940999991987051512004-09667-035700FM-12+008999999V0201401N002119999999N0500001N9+02881+02031101121ADDAA124000391AG10999AY191061AY261061GF106991021001012501041041MA1999999100111MD1999999+0001MW1031REMSYN017333   58000 69934
0143829940999991987051612004-09667-035700FM-12+008999999V0201801N00151045001CN0000001N9+02651+02271101001ADDAA124001091AG10999AY191061AY261061GF106991031091012501061001KA1240N+02251MA1999999099991MD1999999-0121MW1031REMSYN023333   20225 59012 60014
0135829940999991987051618004-09667-035700FM-12+008999999V0200401N00461045001CN0500001N9+02821+01661100961ADDAA106000291AA299000391AG10999AY191061AY261061GF105991031061012501061001MA1999999099951MD1999999-0011MW1031REMSYN017333   59001 69921
0143829940999991987051700004-09667-035700FM-12+008999999V0209991C00001045001CN9999999N9+02481+02301101031ADDAA106002091AG10999AY191061AY261061GF106991021031012501041001KA1240M+03001MA1999999100011MD1999999-0081MW1031REMSYN023333   10300 59008 60021
0143829940999991987051712004-09667-035700FM-12+008999999V0200901N00461045001CN0500001N9+02701+01941101051ADDAA124009091AG10999AY191061AY261061GF106991031091012501041001KA1240N+02221MA1999999100031MD1999999+0041MW1031REMSYN023333   20222 58004 60094
0124829940999991987051718004-09667-035700FM-12+008999999V0201401N00461045001CN0500001N9+02941+01851100931ADDAA106003091AG10999AY191061AY261061GF105991031061012501061001MA1999999099931MD1999999-0021MW1031REMSYN017333   59002 60031
0143829940999991987051800004-09667-035700FM-12+008999999V0209991C00001045001CN9999999N9+02401+02241101051ADDAA106002091AG10999AY191061AY261061GF106991041031012501041001KA1240M+02971MA1999999100031MD1999999+0021MW1031REMSYN023333   10297 58002 60021
0143829940999991987051812004-09667-035700FM-12+008999999V0203201N00151045001CN0100001N9+02361+02281101351ADDAA124013091AG10999AY191061AY261061GF108991041071012501021999KA1240N+02201MA1999999100331MD1999999+0301MW1611REMSYN023333   20220 58030 60134
0124829940999991987051818004-09667-035700FM-12+008999999V0203201N00051045001CN0500001N9+02601+02371101051ADDAA106002091AG10001AY191061AY261061GF108991031091012501021999MA1999999100041MD1999999+0111MW1031REMSYN017333   58011 60021
0118829940999991987051918004-09667-035700FM-12+008999999V0201401N00311012001CN0500001N9+02801+02291100971ADDAA106000091AG10999AY101061AY221061GF105991051021012501001001MA1999999099961MD1999999-0081MW1031REMSYN011333   59008
0084829940999991987052112004-09667-035700FM-12+008999999V0200501N00361220001CN0500001N9+02831+02151101251ADDAA106000091AG10999AY101061AY201061GF104991041001022501001041MA1999999100241MW1021
0118829940999991987052118004-09667-035700FM-12+008999999V0200901N00311220001CN0500001N9+03061+01841100981ADDAA106000091AG10999AY101061AY201061GF103991031001017501041001MA1999999099981MD1999999+0031MW1011REMSYN011333   58003
0137829940999991987052200004-09667-035700FM-12+008999999V0200501N00211045001CN9999999N9+02401+02091101151ADDAA106000091AG10001AY111061AY211061GF105991021011017501061001KA1240M+03241MA1999999100121MD1999999+0091MW1031REMSYN017333   10324 58009
0137829940999991987052212004-09667-035700FM-12+008999999V0200501N00411045001CN0500001N9+02751+01971101371ADDAA106000091AG10999AY111061AY211061GF106991021021017501061001KA1240N+02251MA1999999100361MD1999999+0121MW1021REMSYN017333   20225 58012
0118829940999991987052218004-09667-035700FM-12+008999999V0200901N00511220001CN0500001N9+03041+01751101011ADDAA106000091AG10999AY101061AY201061GF103991031001017501001011MA1999999100011MD1999999+0021MW1011REMSYN011333   58002
0137829940999991987052300004-09667-035700FM-12+008999999V0203601N00151220001CN9999999N9+02351+02261101241ADDAA106000091AG10001AY101061AY201061GF102991021011008001001001KA1240M+03221MA1999999100211MD1999999+0091MW1011REMSYN017333   10322 58009
0137829940999991987052312004-09667-035700FM-12+008999999V0200901N00261012001CN0500001N9+02721+02411101381ADDAA106000091AG10999AY101061AY221061GF105991051021012501001001KA1240N+02161MA1999999100361MD1999999+0001MW1031REMSYN017333   20216 58000
0118829940999991987052318004-09667-035700FM-12+008999999V0200901N00261045001CN0500001N9+02891+02301101041ADDAA106000091AG10999AY101061AY221061GF106991031031012501041001MA1999999100041MD1999999+0031MW1031REMSYN011333   58003
0118829940999991987052418004-09667-035700FM-12+008999999V0200901N00411012001CN0500001N9+02801+02001101031ADDAA106000091AG10999AY101061AY221061GF105991051021012501001001MA1999999100021MD1999999-0021MW1031REMSYN011333   59002
0084829940999991987052512004-09667-035700FM-12+008999999V0202301N00051045001CN0500001N9+02681+01941101361ADDAA106000091AG10999AY111061AY211061GF105991021031017501041001MA1999999100341MW1031
0135829940999991987052518004-09667-035700FM-12+008999999V0201401N00461220001CN0500001N9+03001+01941101141ADDAA106000491AA299000591AG10999AY191061AY261061GF103991031001017501041001MA1999999100131MD1999999+0111MW1031REMSYN017333   58011 69941
0154829940999991987052612004-09667-035700FM-12+008999999V0201801N00151220001CN0500001N9+02761+01941101371ADDAA124000491AA299000591AG10999AY121061AY221061GF106991031021012501001011KA1240N+02221MA1999999100351MD1999999+0011MW1031REMSYN023333   20222 58001 69944
0118829940999991987052618004-09667-035700FM-12+008999999V0201801N00261220001CN0500001N9+02901+02121101441ADDAA106000091AG10999AY101061AY221061GF103991031021012501001001MA1999999100431MD1999999+0301MW1031REMSYN011333   58030
0143829940999991987052800004-09667-035700FM-12+008999999V0202301N00051045001CN9999999N9+02481+02381101391ADDAA106004091AG10999AY191061AY261061GF108991041071012501021999KA1240M+02901MA1999999100361MD1999999-0271MW1211REMSYN023333   10290 59027 60041
0137829940999991987052818004-09667-035700FM-12+008999999V0202701N00261045001CN0500001N9+02781+01921101441ADDAA106999999AG10999AY191061AY261061GF108991031021008001061011MA1999999100571MD1999999-0031MW1211REMSYN011333   59003EQDQ01  00002PRCP06
0137829940999991987052912004-09667-035700FM-12+008999999V0202701N00211045001CN0500001N9+02701+02111102331ADDAA106000091AG10999AY181061AY221061GF105991031061008001021001KA1240N+02281MA1999999101321MD1999999+0061MW1311REMSYN017333   20228 58006
0106829940999991987060112004-09667-035700FM-12+008999999V0201401N00151012001CN0100001N9+99999+99999999999ADDAG10999AY191061AY261061GF108991071011012501999999KA1240N+02101MA1999999100551MW1611REMSYN011333   20210
0136829940999991987060200004-09667-035700FM-12+008999999V0209991C00001045001CN9999999N9+02381+02151101401ADDAA106000091AG10999AY111061AY211061GF106991021031017501061001KA1240M+02901MA1999999100371MW1021REMSYN011333   10290EQDQ01+999990APOSLP
0154829940999991987060212004-09667-035700FM-12+008999999V0201401N00311045001CN0500001N9+02821+02051101281ADDAA106000891AA299001091AG10999AY111061AY211061GF106991031031012501041001KA1240N+02161MA1999999100261MD1999999-0291MW1021REMSYN023333   20216 59029 69981
0118829940999991987060218004-09667-035700FM-12+008999999V0201401N00311045001CN0500001N9+02881+02161101251ADDAA106000091AG10999AY111061AY211061GF106991031011017501041001MA1999999100241MD1999999+0021MW1021REMSYN011333   58002
0137829940999991987060300004-09667-035700FM-12+008999999V0201401N00211045001CN9999999N9+02451+02041101281ADDAA106000091AG10999AY111061AY211061GF105991021021012501041001KA1240M+03001MA1999999100251MD1999999-0121MW1031REMSYN017333   10300 59012
0137829940999991987060312004-09667-035700FM-12+008999999V0201801N00311045001CN0500001N9+02651+01721101361ADDAA106000091AG10999AY111061AY211061GF106991021061017501061001KA1240N+02241MA1999999100341MD1999999+0081MW1031REMSYN017333   20224 58008
0118829940999991987060318004-09667-035700FM-12+008999999V0201801N00361220001CN0500001N9+02941+01791101191ADDAA106000091AG10999AY111061AY211061GF105991011011012501001011MA1999999100181MD1999999-0061MW1031REMSYN011333   59006
0156829940999991987060400004-09667-035700FM-12+008999999V0209991C000019999999N9999999N9+02421+02051101271ADDAA106000091AG10999AY111061AY211061GF106991999021017501001001KA1240M+03201MA1999999100141MD1999999-0101MW1021REMSYN017333   10320 59010EQDQ01+000022SCOTLC
0154829940999991987060412004-09667-035700FM-12+008999999V0202301N00361045001CN0100001N9+99999+99999101291ADDAA106000091AA224003091AG10999AY111061AY261061GF107991041031012501041011KA1240N+02101MA1999999100261MD1999999+0081MW1031REMSYN023333   20210 58008 60034
0124829940999991987060418004-09667-035700FM-12+008999999V0200901N00261045001CN0200001N9+02721+02171101251ADDAA106010091AG10999AY191061AY261061GF106991031041008001041001MA1999999100241MD1999999+0061MW1031REMSYN017333   58006 60101
0143829940999991987060500004-09667-035700FM-12+008999999V0200901N00151045001CN9999999N9+02401+02241101411ADDAA106000391AG10999AY191061AY261061GF105991021021008001041001KA1240M+02761MA1999999100381MD1999999+0241MW1031REMSYN023333   10276 58024 69931
0143829940999991987060512004-09667-035700FM-12+008999999V0200901N00151045001CN0200001N9+02701+02171101371ADDAA124010091AG10999AY191061AY261061GF106991031021008001041001KA1240N+02141MA1999999100341MD1999999+0081MW1031REMSYN023333   20214 58008 60104
0143829940999991987060600004-09667-035700FM-12+008999999V0200901N00311045001CN9999999N9+02451+02301101341ADDAA106004091AG10999AY191061AY261061GF106991031031008001041001KA1240M+02801MA1999999100311MD1999999-0071MW1031REMSYN023333   10280 59007 60041
0143829940999991987060612004-09667-035700FM-12+008999999V0200901N00311045001CN0020001N9+02381+02261101411ADDAA124017091AG10999AY191061AY261061GF108991031071004501021011KA1240N+01241MA1999999100391MD1999999+0051MW1611REMSYN023333   20124 58005 60174
0124829940999991987060618004-09667-035700FM-12+008999999V0200901N00361045001CN0020001N9+02551+02311101161ADDAA106000591AG10999AY191061AY261061GF108991031071004501021999MA1999999100141MD1999999+0111MW1611REMSYN017333   58011 69951
0143829940999991987060712004-09667-035700FM-12+008999999V0200501N00051004201CN0040001N9+02451+02151101691ADDAA124005091AG10999AY191061AY261061GF108991051071004501011999KA1240N+02211MA1999999100661MD1999999+0271MW1031REMSYN023333   20221 58027 60054
0124829940999991987060718004-09667-035700FM-12+008999999V0201401N00361220001CN0500001N9+02781+02131101441ADDAA106000191AG10999AY191061AY261061GF104991021021012501061041MA1999999100421MD1999999+0281MW1011REMSYN017333   58028 69911
0143829940999991987060800004-09667-035700FM-12+008999999V0209999999999045001CN9999999N9+02301+02181101711ADDAA106005091AG10999AY191061AY261061GF108991041071008001011999KA1240M+02871MA1999999100681MD1999999+0341MW1031REMSYN023333   10287 58034 60051
0143829940999991987060812004-09667-035700FM-12+008999999V0200901N00051045001CN0100001N9+02341+02271101481ADDAA124016091AG10999AY191061AY261061GF108991041071012501041999KA1240N+02121MA1999999100451MD1999999-0211MW1611REMSYN023333   20212 59021 60164
0124829940999991987060818004-09667-035700FM-12+008999999V0202301N00151045001CN0100001N9+02321+02161101371ADDAA106015091AG10999AY191061AY261061GF108991031071012501021999MA1999999100351MD1999999-0071MW1031REMSYN017333   59007 60151
0154829940999991987060900004-09667-035700FM-12+008999999V0209991C00001045001CN9999999N9+02281+02161101511ADDAA106000291AA299000391AG10999AY191061AY261061GF106991021071012501041001KA1240M+02601MA1999999100481MD1999999-0201MW1031REMSYN023333   10260 59020 69921
0143829940999991987060912004-09667-035700FM-12+008999999V0202301N00151220001CN0500001N9+02601+02351101651ADDAA124017091AG10999AY191061AY261061GF104991031091008001061001KA1240N+02141MA1999999100621MD1999999+0171MW1011REMSYN023333   20214 58017 60174
0124829940999991987060918004-09667-035700FM-12+008999999V0201401N00261045001CN0100001N9+02861+01921101161ADDAA106999929AG10999AY191061AY261061GF108991031091017501041999MA1999999100141MD1999999-0211MW1031REMSYN017333   59021 69901
0137829940999991987061000004-09667-035700FM-12+008999999V0203601N00051012001CN9999999N9+02461+02281101561ADDAA106000091AG10999AY121061AY221061GF107991071051012501001001KA1240M+02961MA1999999100531MD1999999+0051MW1031REMSYN017333   10296 58005
0143829940999991987061012004-09667-035700FM-12+008999999V0201801N00361220001CN0500001N9+02731+01951101551ADDAA124001091AG10999AY191061AY261061GF102991011021008001061001KA1240N+02241MA1999999100531MD1999999-0091MW1011REMSYN023333   20224 59009 60014
0118829940999991987061018004-09667-035700FM-12+008999999V0201801N00311045001CN0500001N9+02821+01551101071ADDAA106000091AG10999AY111061AY211061GF106991021011017501061001MA1999999100061MD1999999-0281MW1031REMSYN011333   59028
0143829940999991987061112004-09667-035700FM-12+008999999V0203201N00211045001CN0020001N9+02351+02221101571ADDAA124000591AG10999AY121061AY221061GF108991041071004501021999KA1240N+02021MA1999999100541MD1999999+0011MW1611REMSYN023333   20202 58001 69954
0143829940999991987061212004-09667-035700FM-12+008999999V0203601N00151045001CN0200001N9+02571+02311101681ADDAA124004091AG10999AY191061AY261061GF106991031031008001041001KA1240N+02161MA1999999100651MD1999999+0381MW1031REMSYN023333   20216 58038 60044
0124829940999991987061218004-09667-035700FM-12+008999999V0200901N00101045001CN0100001N9+02551+02381101481ADDAA106002091AG10999AY191061AY261061GF107991041071008001021001MA1999999100451MD1999999+0181MW1611REMSYN017333   58018 60021
0137829940999991987061300004-09667-035700FM-12+008999999V0201401N00151045001CN9999999N9+02521+02111101271ADDAA106000091AG10999AY111061AY211061GF106991021021017501041001KA1240M+02821MA1999999100241MD1999999-0311MW1031REMSYN017333   10282 59031
0118829940999991987061318004-09667-035700FM-12+008999999V0201401N00311220001CN0500001N9+02981+01921101301ADDAA106000091AG10999AY111061AY211061GF105991021021017501001011MA1999999100291MD1999999-0161MW1021REMSYN011333   59016
0126829940999991987061400004-09667-035700FM-12+008999999V0209991C000019999999N9999999N9+02421+02091101221ADDAG10999AY111061AY211061GF106991021001001501041041KA1240M+03081MA1999999100191MD1999999-0051MW1021REMSYN017333   10308 59005
0143829940999991987061412004-09667-035700FM-12+008999999V0201401N00461045001CN0500001N9+02751+01811101261ADDAA124004091AG10999AY191061AY261061GF106991021061012501041001KA1240N+02181MA1999999100251MD1999999+0011MW1031REMSYN023333   20218 58001 60044
0118829940999991987061418004-09667-035700FM-12+008999999V0201401N00411045001CN0500001N9+02901+01901101171ADDAA106000091AG10999AY111061AY211061GF105991021011004501061001MA1999999100161MD1999999-0131MW1031REMSYN011333   59013
0137829940999991987061500004-09667-035700FM-12+008999999V0201401N00261045001CN9999999N9+02451+02111101131ADDAA106000091AG10999AY111061AY221061GF106991021021012501061001KA1240M+03051MA1999999100101MD1999999-0091MW1021REMSYN017333   10305 59009
0135829940999991987061518004-09667-035700FM-12+008999999V0200901N00311045001CN0200001N9+02821+02121101141ADDAA106000991AA299001091AG10999AY191061AY261061GF107991031091012501061001MA1999999100131MD1999999-0031MW1031REMSYN017333   59003 69991
0143829940999991987061612004-09667-035700FM-12+008999999V0200501N00151012001CN0500001N9+02771+02321101511ADDAA124017091AG10999AY191061AY261061GF106991061031012501061001KA1240N+02111MA1999999100491MD1999999+0191MW1031REMSYN023333   20211 58019 60174
0124829940999991987061618004-09667-035700FM-12+008999999V0200901N00361045001CN0500001N9+02691+02351101311ADDAA106006091AG10999AY191061AY261061GF107991021021012501061001MA1999999100301MD1999999+0171MW1031REMSYN017333   58017 60061
0143829940999991987061712004-09667-035700FM-12+008999999V0200901N00461012001CN0200001N9+02671+02311101731ADDAA124017091AG10999AY191061AY261061GF107991061091012501071001KA1240N+02301MA1999999100711MD1999999+0221MW1031REMSYN023333   20230 58022 60174
0118829940999991987061718004-09667-035700FM-12+008999999V0200901N00461045001CN0500001N9+02901+02021101341ADDAA106000091AG10999AY111061AY221061GF106991021061017501061001MA1999999100331MD1999999+0031MW1021REMSYN011333   58003
0124829940999991987061818004-09667-035700FM-12+008999999V0200901N00151045001CN0100001N9+02631+02291101481ADDAA106011091AG10999AY191061AY261061GF106991031041008001041001MA1999999100461MD1999999+0131MW1031REMSYN017333   58013 60111
0143829940999991987061912004-09667-035700FM-12+008999999V0202701N00151220001CN0500001N9+02551+02251101781ADDAA124011091AG10999AY191061AY261061GF103991031021012501001001KA1240N+02061MA1999999100751MD1999999+0021MW1031REMSYN023333   20206 58002 60114
0118829940999991987061918004-09667-035700FM-12+008999999V0201801N00311012001CN0500001N9+02551+01951101491ADDAA106000091AG10999AY101061AY221061GF105991051021012501001001MA1999999100471MD1999999+0011MW1031REMSYN011333   58001
0143829940999991987062012004-09667-035700FM-12+008999999V0200901N00101045001CN0100001N9+02451+02301101751ADDAA124006091AG10999AY191061AY261061GF106991031041008001041001KA1240N+02291MA1999999100721MD1999999-0031MW1031REMSYN023333   20229 59003 60064
0118829940999991987062318004-09667-035700FM-12+008999999V0200901N00361015001CN0200001N9+02671+02271101541ADDAA106000091AG10999AY121061AY221061GF107991061081012501061001MA1999999100511MD1999999+0201MW1031REMSYN011333   58020
0118829940999991987062418004-09667-035700FM-12+008999999V0200901N00361045001CN0500001N9+02861+01841101571ADDAA106000091AG10999AY111061AY211061GF106991021061012501041001MA1999999100551MD1999999+0031MW1021REMSYN011333   58003
0137829940999991987062512004-09667-035700FM-12+008999999V0202301N00211012001CN0500001N9+02601+02351101171ADDAA106000091AG10999AY101061AY201061GF106991051021012501061001KA1240N+02061MA1999999100991MD1999999+0131MW1031REMSYN017333   20206 58013
0137829940999991987062612004-09667-035700FM-12+008999999V0202701N00101012001CN0500001N9+02571+02231101921ADDAA106000091AG10001AY101061AY221061GF105991051021012501001001KA1240N+02061MA1999999100881MD1999999-0061MW1031REMSYN017333   20206 59006
0143829940999991987062712004-09667-035700FM-12+008999999V0201801N00051045001CN0200001N9+02501+02051101661ADDAA124003091AG10999AY191061AY261061GF107991041091012501041001KA1240N+02151MA1999999100641MD1999999-0141MW1031REMSYN023333   20215 59014 60034
0118829940999991987062718004-09667-035700FM-12+008999999V0201401N00311045001CN0500001N9+02801+01921101471ADDAA106000091AG10999AY121061AY221061GF105991021011012501061001MA1999999100461MD1999999-0131MW1031REMSYN011333   59013
0143829940999991987062900004-09667-035700FM-12+008999999V0201401N00261045001CN9999999N9+02321+01981101591ADDAA106002091AG10999AY191061AY261061GF106991021071012501041001KA1240M+02641MA1999999100561MD1999999+0171MW1031REMSYN023333   10264 58017 60021
0143829940999991987062912004-09667-035700FM-12+008999999V0201401N00311045001CN0100001N9+02401+02211101431ADDAA124025091AG10999AY191061AY261061GF108991031071012501021999KA1240N+02081MA1999999100401MD1999999-0281MW1611REMSYN023333   20208 59028 60254
0135829940999991987062918004-09667-035700FM-12+008999999V0201401N00361045001CN0200001N9+02421+02111101401ADDAA106000291AA299000391AG10999AY191061AY261061GF107991021071012501041001MA1999999100321MD1999999-0221MW1031REMSYN017333   59022 69921
0143829940999991987063000004-09667-035700FM-12+008999999V0201401N00311045001CN9999999N9+02381+02261101441ADDAA106005091AG10999AY191061AY261061GF106991041071012501041001KA1240M+02661MA1999999100411MD1999999-0151MW1611REMSYN023333   10266 59015 60051
0143829940999991987063012004-09667-035700FM-12+008999999V0200501N00211045001CN0100001N9+02591+02211101701ADDAA124041091AG10999AY191061AY261061GF106991041071004501021001KA1240N+02061MA1999999100671MD1999999+0271MW1031REMSYN023333   20206 58027 60414
0124829940999991987063018004-09667-035700FM-12+008999999V0200901N00361220001CN0500001N9+02721+02171101551ADDAA106003091AG10999AY191061AY261061GF104991041091012501001001MA1999999100531MD1999999+0161MW1031REMSYN017333   58016 60031
0143829940999991987070112004-09667-035700FM-12+008999999V0202701N00101012001CN0500001N9+02531+02311101601ADDAA124004091AG10999AY191061AY261061GF106991061031012501061001KA1240N+02081MA1999999100571MD1999999-0101MW1031REMSYN023333   20208 59010 60044
0143829940999991987070212004-09667-035700FM-12+008999999V0200501N00511004201CN0020001N9+02421+02351101561ADDAA124021091AG10999AY191061AY261061GF108991051071004501021999KA1240N+02201MA1999999100521MD1999999-0041MW1211REMSYN023333   20220 59004 60214
0073829940999991987070218004-09667-035700FM-12+008999999V0201401N00511045001CN0200001N9+02561+02331101311ADDAG10999AY141061AY261061GF107991041071012501021999MA1999999100291MW1031
0143829940999991987070300004-09667-035700FM-12+008999999V0201401N00151045001CN9999999N9+02361+02201101331ADDAA106014091AG10999AY191061AY261061GF106991041071012501021999KA1240M+02651MA1999999100301MD1999999-0201MW1031REMSYN023333   10265 59020 60141
0143829940999991987070312004-09667-035700FM-12+008999999V0201201N00311045001CN0200001N9+02581+02121101351ADDAA124025091AG10999AY191061AY261061GF107991041061004501041001KA1240N+02101MA1999999100331MD1999999+0041MW1031REMSYN023333   20210 58004 60254
0143829940999991987070412004-09667-035700FM-12+008999999V0201401N00311045001CN0100001N9+02651+02181101631ADDAA124012091AG10999AY191061AY261061GF106991031051008001041001KA1240N+02201MA1999999100601MD1999999+0271MW1031REMSYN023333   20220 58027 60124
0124829940999991987070418004-09667-035700FM-12+008999999V0201401N00261045001CN0200001N9+02651+02031101421ADDAA106002091AG10999AY191061AY261061GF106991031031008001041001MA1999999100401MD1999999+0071MW1031REMSYN017333   58007 60021
0143829940999991987070512004-09667-035700FM-12+008999999V0201401N00261045001CN0500001N9+02621+02071101691ADDAA124002091AG10999AY121061AY221061GF105991031021012501061001KA1240N+02211MA1999999100671MD1999999+0071MW1011REMSYN023333   20221 58007 60024
0118829940999991987070518004-09667-035700FM-12+008999999V0201401N00261220001CN0100001N9+02781+02011101401ADDAA106000091AG10999AY111061AY201061GF103991021021008001061001MA1999999100381MD1999999-0021MW1011REMSYN011333   59002
0118829940999991987070618004-09667-035700FM-12+008999999V0201401N00361045001CN0500001N9+02681+02161101281ADDAA106000091AG10999AY121061AY221061GF106991021011017501041001MA1999999100261MD1999999-0121MW1031REMSYN011333   59012
0143829940999991987070712004-09667-035700FM-12+008999999V0201401N00151045001CN0200001N9+02581+02041101451ADDAA124008091AG10999AY191061AY261061GF106991041031012501041001KA1240N+02081MA1999999100441MD1999999-0091MW1211REMSYN023333   20208 59009 60084
0129829940999991987070718004-09667-035700FM-12+008999999V0201401N00361007501CN0200001N9+02601+01231101421ADDAA106002091AG10999AY161061GF107991061091008001021001MA1999999100401MD1999999+0141REMSYN017333   58014 60021EQDQ01+000392PRSWM1
0143829940999991987070800004-09667-035700FM-12+008999999V0201401N00101045001CN9999999N9+02401+02141101621ADDAA106000191AG10999AY131061AY221061GF108991041071004501021999KA1240M+02751MA1999999100591MD1999999+0201MW1211REMSYN023333   10275 58020 69911
0143829940999991987070812004-09667-035700FM-12+008999999V0201401N00211220001CN0500001N9+02741+02121101671ADDAA124002091AG10999AY101061AY201061GF104991041021008001001001KA1240N+02311MA1999999100651MD1999999+0221MW1031REMSYN023333   20231 58022 60024
0118829940999991987070818004-09667-035700FM-12+008999999V0201401N00151220001CN0500001N9+02751+02071101461ADDAA106000091AG10999AY101061AY221061GF103991031021008001001001MA1999999100441MD1999999+0041MW1031REMSYN011333   58004
0137829940999991987070900004-09667-035700FM-12+008999999V0209991C00001007501CN9999999N9+02361+02281101581ADDAA106000091AG10999AY121061AY221061GF106991051071008001021001KA1240M+02831MA1999999100551MD1999999-0041MW1031REMSYN017333   10283 59004
0124829940999991987070912004-09667-035700FM-12+008999999V0203201N00211045001CN0020001N9+99999+99999101681ADDAA124017091AG10999AY191061AY261061GF108991041071004501021999MA1999999100651MD1999999+0001MW1631REMSYN017333   58000 60174
0154829940999991987071012004-09667-035700FM-12+008999999V0200901N00101220001CN0500001N9+02661+02181101501ADDAA124000291AA299000391AG10999AY101061AY201061GF103991021021008001061001KA1240N+02061MA1999999100571MD1999999-0081MW1031REMSYN023333   20206 59008 69924
0096829940999991987071018004-09667-035700FM-12+008999999V0201901N00051045001CN0500001N9+02781+01311102231ADDAA106000091AG10999GF105991021021012501061001MA1999999100211MD1999999-0131REMSYN011333   59013
0124829940999991987071118004-09667-035700FM-12+008999999V0200901N00151045001CN0100001N9+02151+01061101411ADDAA106016091AG10999AY191061AY261061GF107991031071008001021001MA1999999100381MD1999999+0171MW1611REMSYN017333   58017 60161
0143829940999991987071312004-09667-035700FM-12+008999999V0209991C00001045001CN0200001N9+02261+02181101511ADDAA124002091AG10999AY191061AY261061GF107991031071012501021001KA1240N+02021MA1999999100471MD1999999-0231MW1031REMSYN023333   20202 59023 60024
0124829940999991987071318004-09667-035700FM-12+008999999V0201401N00311045001CN0500001N9+02821+02201101351ADDAA106002091AG10999AY191061AY261061GF106991021041012501061001MA1999999100341MD1999999+0031MW1031REMSYN017333   58003 60021
0189829940999991987071412004-09667-035700FM-12+008999999V0203201N000519999999N0500001N9+04151+99999101581ADDAA106000091AA224002091AG10999AY101061AY201061GF108991999011004501001001KA1240N+02081MA1999999100611MD1999999+0031MW1011REMSYN023333   20208 58003 60024EQDQ01+000032SCOTLCQ02+999990APOSP 
0154829940999991987071512004-09667-035700FM-12+008999999V0200501N00101045001CN0500001N9+02581+01991101391ADDAA106000091AA224000891AG10999AY191061AY261061GF105991021011000751091001KA1240N+01581MA1999999100371MD1999999-0181MW1031REMSYN023333   20158 59018 69984
0104829940999991987071518004-09667-035700FM-12+008999999V0201401N00311045001CN0500001N9+02651+02041101411ADDAA106000091AG10999AY101061AY221061GF105991021021008001041001MA1999999100391MW1031REMSYN011333   5806/
0143829940999991987071612004-09667-035700FM-12+008999999V0202301N00151045001CN0100001N9+02251+02191101471ADDAA124010091AG10999AY191061AY261061GF108991041071008001021999KA1240N+02041MA1999999100441MD1999999+0031MW1611REMSYN023333   20204 58003 60104
0124829940999991987071618004-09667-035700FM-12+008999999V0201401N00461045001CN0500001N9+02641+01981101461ADDAA106017091AG10999AY191061AY261061GF106991021051012501041001MA1999999100441MD1999999+0051MW1031REMSYN017333   58005 60171
0137829940999991987071700004-09667-035700FM-12+008999999V0201401N00151045001CN9999999N9+02381+02201101441ADDAA106000091AG10999AY111061AY221061GF106991021061012501041001KA1240M+02771MA1999999100411MD1999999-0161MW1031REMSYN017333   10277 59016
0143829940999991987071712004-09667-035700FM-12+008999999V0201401N00511220001CN0500001N9+02671+01751101451ADDAA124017091AG10999AY191061AY261061GF106991041011017501001041KA1240N+02051MA1999999100431MD1999999-0011MW1031REMSYN023333   20205 59001 60174
0118829940999991987071718004-09667-035700FM-12+008999999V0201401N00211045001CN0500001N9+02681+01971101351ADDAA106000091AG10999AY111061AY211061GF105991021021012501011001MA1999999100331MD1999999-0111MW1021REMSYN011333   59011
0143829940999991987071800004-09667-035700FM-12+008999999V0201401N00151045001CN9999999N9+02401+02171101311ADDAA106001091AG10999AY191061AY261061GF107991021031012501041001KA1240M+02741MA1999999100281MD1999999-0131MW1031REMSYN023333   10274 59013 60011
0143829940999991987071812004-09667-035700FM-12+008999999V0200501N00051045001CN0500001N9+02201+02121101321ADDAA124010091AG10999AY191061AY261061GF108991021071012501021999KA1240N+02061MA1999999100291MD1999999-0121MW1611REMSYN023333   20206 59012 60104
0135829940999991987071818004-09667-035700FM-12+008999999V0201401N00311045001CN0500001N9+02661+01651101321ADDAA106000891AA299001091AG10999AY191061AY261061GF105991021011012501061001MA1999999100301MD1999999-0031MW1031REMSYN017333   59003 69981
0137829940999991987071900004-09667-035700FM-12+008999999V0209991C00001220001CN9999999N9+02201+02051101311ADDAA106000091AG10999AY101061AY211061GF104991041001022501041001KA1240M+02781MA1999999100281MD1999999+0001MW1021REMSYN017333   10278 58000
0143829940999991987071912004-09667-035700FM-12+008999999V0202301N00051045001CN0200001N9+02261+99999101481ADDAA124011091AG10999AY191061AY261061GF107991041071012501021001KA1240N+02051MA1999999100441MD1999999+0151MW1211REMSYN023333   20205 58015 60114
0124829940999991987071918004-09667-035700FM-12+008999999V0200901N00511045001CN0500001N9+02601+01791101381ADDAA106002091AG10999AY191061AY261061GF106991021031012501041001MA1999999100361MD1999999+0061MW1031REMSYN017333   58006 60021
0137829940999991987072000004-09667-035700FM-12+008999999V0201401N00151045001CN9999999N9+02281+02161101321ADDAA106000091AG10001AY111061AY211061GF106991021041017501041001KA1240M+02711MA1999999100291MD1999999+0011MW1031REMSYN017333   10271 58001
0143829940999991987072012004-09667-035700FM-12+008999999V0201401N00211045001CN0500001N9+02521+01931101521ADDAA124020091AG10999AY191061AY261061GF106991021061012501041001KA1240N+02041MA1999999100491MD1999999+0051MW1031REMSYN023333   20204 58005 60204
0124829940999991987072018004-09667-035700FM-12+008999999V0201801N00261045001CN0500001N9+02751+01951101381ADDAA124999929AG10999AY191061AY261061GF106991021031012501041001MA1999999100261MD1999999+0001MW1031REMSYN017333   58000 69904
0143829940999991987072112004-09667-035700FM-12+008999999V0202701N00151045001CN0200001N9+02361+01851101691ADDAA124023091AG10999AY191061AY261061GF107991021051012501041001KA1240N+02041MA1999999100661MD1999999+0171MW1031REMSYN023333   20204 58017 60234
0118829940999991987072118004-09667-035700FM-12+008999999V0201801N00261045001CN0500001N9+02751+02071101321ADDAA106000091AG10999AY101061AY221061GF106991031031012501041001MA1999999100311MD1999999-0051MW1031REMSYN011333   59005
0137829940999991987072200004-09667-035700FM-12+008999999V0201801N00101220001CN9999999N9+02241+02091101521ADDAA106000091AG10999AY101061AY221061GF103991031021008001001001KA1240M+02751MA1999999100481MD1999999-0041MW1031REMSYN017333   10275 59004
0137829940999991987072212004-09667-035700FM-12+008999999V0202701N00151220001CN0500001N9+02461+01941101521ADDAA106000091AG10999AY101061AY211061GF105991021001022501041041KA1240N+02101MA1999999100491MD1999999-0171MW1021REMSYN017333   20210 59017
