0115832290999991987010100004-13017-038517FM-12+005199999V0201401N00151220001CN9999999N9+02581+02371101281ADDAA106000091AG10999GF102991021011008001001001KA1240M+03011MA1999999100691MD1999999-0081REMSYN017333   10301 59008
0115832290999991987010112004-13017-038517FM-12+005199999V0200501N00151007501CN0100001N9+02811+02341101491ADDAA106000091AG10999GF106991061021008001001001KA1240N+02481MA1999999100901MD1999999+0201REMSYN017333   20248 58020
0096832290999991987010118004-13017-038517FM-12+005199999V0200901N00101220001CN0200001N9+02901+02201101321ADDAA106000091AG10999GF102991021021008001001011MA1999999100741MD1999999+0201REMSYN011333   58020
0115832290999991987010200004-13017-038517FM-12+005199999V0200501N00151220001CN9999999N9+02571+02231101431ADDAA106000091AG10999GF103991031021008001001001KA1240M+02981MA1999999100841MD1999999+0151REMSYN017333   10298 58015
0143832290999991987010212004-13017-038517FM-12+005199999V0200901N003119999999N0040001N9+02701+02521101491ADDAA124007091AG10999AY161061AY261061GF107991999999008001999999KA1240N+02371MA1999999100891MD1999999-0011MW1501REMSYN023333   20237 59001 60074
0113832290999991987010218004-13017-038517FM-12+005199999V0200901N00311045001CN0040001N9+02821+02441101201ADDAA106000291AA299000391AG10999GF106991031041008001061001MA1999999100611MD1999999-0101REMSYN017333   59010 69921
0115832290999991987010300004-13017-038517FM-12+005199999V0201401N00101220001CN9999999N9+02601+02461101381ADDAA106000091AG10999GF103991021021008001001011KA1240M+02961MA1999999100791MD1999999-0051REMSYN017333   10296 59005
0115832290999991987010312004-13017-038517FM-12+005199999V0203601N00151045001CN0040001N9+02511+02171101491ADDAA106000091AG10999GF108991041071008001011011KA1240N+02401MA1999999100891MD1999999+0001REMSYN017333   20240 58000
0096832290999991987010318004-13017-038517FM-12+005199999V0201401N00101220001CN0048001N9+02811+02361101421ADDAA106000091AG10999GF102991021011008001001001MA1999999100831MD1999999+0221REMSYN011333   58022
0134832290999991987010400004-13017-038517FM-12+005199999V0200901N00101220001CN9999999N9+02461+02321101331ADDAA106000091AG10999GF103991999021008001001001KA1240M+03001MA1999999100731MD1999999-0061REMSYN017333   10300 59006EQDQ01+000022SCOTLC
0115832290999991987010412004-13017-038517FM-12+005199999V0201401N00211045001CN0100001N9+02721+02241101271ADDAA106000091AG10999GF106991021041008001081011KA1240N+02371MA1999999100671MD1999999-0221REMSYN017333   20237 59022
0096832290999991987010418004-13017-038517FM-12+005199999V0201401N00261220001CN9999999N9+02741+02301101041ADDAA106000091AG10999GF100991001001999999001001MA1999999100441MD1999999-0391REMSYN011333   59039
0115832290999991987010500004-13017-038517FM-12+005199999V0201401N00151220001CN9999999N9+02541+02211101331ADDAA106000091AG10999GF103991031021008001001001KA1240M+02981MA1999999100731MD1999999-0061REMSYN017333   10298 59006
0154832290999991987010512004-13017-038517FM-12+005199999V0200901N00151007501CN0100001N9+02801+02271101361ADDAA124000491AA299000591AG10999AY151061AY211061GF105991051021008001001001KA1240N+02431MA1999999100761MD1999999+0091MW1011REMSYN023333   20243 58009 69944
0135832290999991987010518004-13017-038517FM-12+005199999V0201401N00151045001CN0100001N9+02771+02191101071ADDAA106000991AA299001091AG10999AY161061AY221061GF106991011011008001031021MA1999999100481MD1999999+0041MW1021REMSYN017333   58004 69991
0115832290999991987010600004-13017-038517FM-12+005199999V0200501N00261220001CN9999999N9+02541+02311101301ADDAA106000091AG10999GF100991001001999999001001KA1240M+02931MA1999999100701MD1999999-0031REMSYN017333   10293 59003
0154832290999991987010612004-13017-038517FM-12+005199999V0200901N00151220001CN0200001N9+02801+02221101371ADDAA124000991AA299001091AG10999AY101061AY201061GF102991999999008001999999KA1240N+02441MA1999999100761MD1999999+0001MW1211REMSYN023333   20244 58000 69994
0096832290999991987010618004-13017-038517FM-12+005199999V0201401N00101220001CN0200001N9+02881+02131101151ADDAA106000091AG10999GF102991021011008001001011MA1999999100571MD1999999+0091REMSYN011333   58009
0134832290999991987010700004-13017-038517FM-12+005199999V0200901N00101220001CN9999999N9+02461+02371101351ADDAA106000091AG10999GF101991011011008001001001KA1240M+99999MA1999999100751MD1999999+0051REMSYN017333   10192 58005EQDQ01 +01922ATMX  
0115832290999991987010712004-13017-038517FM-12+005199999V0200901N00151007501CN0040001N9+02551+02351101401ADDAA106000091AG10001GF108991051071008001999999KA1240N+02421MA1999999100801MD1999999+0041REMSYN017333   20242 58004
0124832290999991987010718004-13017-038517FM-12+005199999V0201401N00101220001CN0100001N9+02711+02321101141ADDAA106003091AG10999AY161061AY221061GF107991041051008001001011MA1999999100551MD1999999-0021MW1031REMSYN017333   59002 60031
0115832290999991987010800004-13017-038517FM-12+005199999V0200501N00101220001CN9999999N9+02491+02111101351ADDAA106000091AG10999GF102991021021008001001001KA1240M+02821MA1999999100751MD1999999+0001REMSYN017333   10282 58000
0062832290999991987010818004-13017-038517FM-12+005199999V0201401N00311220001CN0200001N9+02841+02261101101ADDAA106000091AG10999GF100991001001999999001001MA1999999100501
0115832290999991987010900004-13017-038517FM-12+005199999V0201401N00151220001CN9999999N9+02551+02151101151ADDAA106000091AG10999GF100991001001999999001001KA1240M+02991MA1999999100551MD1999999-0201REMSYN017333   10299 59020
0115832290999991987010912004-13017-038517FM-12+005199999V0203201N00101220001CN0200001N9+02801+02131101211ADDAA106000091AG10999GF104991041021008001001001KA1240N+02371MA1999999100621MD1999999-0111REMSYN017333   20237 59011
0096832290999991987010918004-13017-038517FM-12+005199999V0200901N00211220001CN0200001N9+02861+02311100991ADDAA106000091AG10999GF103991031021008001001001MA1999999100401MD1999999-0101REMSYN011333   59010
0115832290999991987011000004-13017-038517FM-12+005199999V0200901N00261220001CN9999999N9+02581+02251101101ADDAA106000091AG10999GF102991021021008001001001KA1240M+03021MA1999999100511MD1999999-0041REMSYN017333   10302 59004
0115832290999991987011012004-13017-038517FM-12+005199999V0200901N00151007501CN0100001N9+02681+02201101231ADDAA106000091AG10999GF106991061061008001001001KA1240N+02401MA1999999100651MD1999999+0031REMSYN017333   20240 58003
0096832290999991987011018004-13017-038517FM-12+005199999V0200901N00151220001CN0200001N9+02901+02201101021ADDAA106000091AG10999GF102991021011008001001001MA1999999100441MD1999999+0041REMSYN011333   58004
0115832290999991987011100004-13017-038517FM-12+005199999V0200901N00101220001CN9999999N9+02561+02191101171ADDAA106000091AG10999GF100991001001999999001001KA1240M+02961MA1999999100581MD1999999+0071REMSYN017333   10296 58007
0096832290999991987011118004-13017-038517FM-12+005199999V0200901N00261220001CN9999999N9+02891+02281101081ADDAA106000091AG10999GF100991001001999999001001MA1999999100481MD1999999+0041REMSYN011333   58004
0115832290999991987011200004-13017-038517FM-12+005199999V0200901N00211220001CN9999999N9+02561+02251101131ADDAA106000091AG10999GF100991001001999999001001KA1240M+03041MA1999999100531MD1999999-0051REMSYN017333   10304 59005
0096832290999991987011218004-13017-038517FM-12+005199999V0200901N00101220001CN0200001N9+02901+02221101251ADDAA106000091AG10999GF101991011011008001001001MA1999999100671MD1999999+0191REMSYN011333   58019
0115832290999991987011300004-13017-038517FM-12+005199999V0200901N00151220001CN9999999N9+02661+02331101371ADDAA106000091AG10999GF100991001001999999001001KA1240M+03021MA1999999100791MD1999999+0261REMSYN017333   10302 58026
0115832290999991987011312004-13017-038517FM-12+005199999V0200901N00151220001CN0200001N9+02801+02341101521ADDAA106000091AG10999GF103991031021008001001001KA1240N+02361MA1999999100941MD1999999+0031REMSYN017333   20236 58003
0096832290999991987011318004-13017-038517FM-12+005199999V0201401N00151220001CN0200001N9+02921+02121101331ADDAA106000091AG10999GF101991011011008001001001MA1999999100751MD1999999+0081REMSYN011333   58008
0096832290999991987011418004-13017-038517FM-12+005199999V0201401N00151220001CN0200001N9+02921+02191101301ADDAA106000091AG10999GF101991011011008001001001MA1999999100721MD1999999-0031REMSYN011333   59003
0115832290999991987011500004-13017-038517FM-12+005199999V0200901N00211220001CN9999999N9+02511+02171101371ADDAA106000091AG10999GF100991001001999999001001KA1240M+03021MA1999999100771MD1999999-0091REMSYN017333   10302 59009
0096832290999991987011518004-13017-038517FM-12+005199999V0201401N00151220001CN0200001N9+02891+02301101111ADDAA106000091AG10999GF101991011011008001001001MA1999999100531MD1999999-0191REMSYN011333   59019
0062832290999991987011612004-13017-038517FM-12+005199999V0201401N00151220001CN0200001N9+02821+02291101261ADDAA106000091AG10999GF102991021021004501001001MA1999999100661
0096832290999991987011618004-13017-038517FM-12+005199999V0200901N00311220001CN0200001N9+02961+02281101031ADDAA106000091AG10999GF100991001001999999001001MA1999999100431MD1999999-0101REMSYN011333   59010
0115832290999991987011700004-13017-038517FM-12+005199999V0200901N00211220001CN9999999N9+02591+02371101081ADDAA106000091AG10999GF100991001001999999001001KA1240M+03051MA1999999100481MD1999999-0251REMSYN017333   10305 59025
0115832290999991987011712004-13017-038517FM-12+005199999V0203601N00101007501CN0100001N9+02701+02391101161ADDAA106000091AG10999GF105991051041008001001001KA1240N+02421MA1999999100581MD1999999-0081REMSYN017333   20242 59008
0096832290999991987011718004-13017-038517FM-12+005199999V0201401N00151220001CN0200001N9+02981+02171100851ADDAA106000091AG10999GF100991001001999999001001MA1999999100271MD1999999-0161REMSYN011333   59016
0115832290999991987011800004-13017-038517FM-12+005199999V0200901N00151220001CN9999999N9+02601+02391101011ADDAA106000091AG10999GF101991011011008001001001KA1240M+03101MA1999999100421MD1999999-0061REMSYN017333   10310 59006
0115832290999991987011812004-13017-038517FM-12+005199999V0200501N00151045001CN0100001N9+02721+02411101081ADDAA106000091AG10999GF106991041051008001011001KA1240N+02421MA1999999100491MD1999999-0091REMSYN017333   20242 59009
0096832290999991987011818004-13017-038517FM-12+005199999V0200901N00311220001CN0200001N9+03041+02361100611ADDAA106000091AG10999GF104991031001008001061021MA1999999100061MD1999999-0211REMSYN011333   59021
0134832290999991987011900004-13017-038517FM-12+005199999V0200901N00261220001CN9999999N9+02561+02291100881ADDAA106000091AG10999GF102991001001999999001011KA1240M+03121MA1999999100301MD1999999+0001REMSYN017333   10312 59000EQDQ01+000982SCOLCB
0115832290999991987011912004-13017-038517FM-12+005199999V0203201N00151007501CN0040001N9+02751+02381101181ADDAA106000091AG10999GF107991051051008001031001KA1240N+02551MA1999999100581MD1999999+0091REMSYN017333   20255 58009
0096832290999991987011918004-13017-038517FM-12+005199999V0201401N00261045001CN0100001N9+02951+02541100941ADDAA106000091AG10999GF107991031061008001031021MA1999999100341MD1999999+0281REMSYN011333   58028
0115832290999991987012012004-13017-038517FM-12+005199999V0201801N00151220001CN0200001N9+02831+02241101161ADDAA106000091AG10999GF104991031021008001001011KA1240N+02501MA1999999100571MD1999999+0011REMSYN017333   20250 58001
0096832290999991987012018004-13017-038517FM-12+005199999V0201401N00411220001CN0200001N9+03001+02321100901ADDAA106000091AG10999GF103991031001008001001011MA1999999100321MD1999999-0021REMSYN011333   59002
0115832290999991987012112004-13017-038517FM-12+005199999V0200901N00151220001CN0200001N9+02801+02221101251ADDAA106000091AG10999GF104991041021008001001001KA1240N+02501MA1999999100671MD1999999+0101REMSYN017333   20250 58010
0096832290999991987012118004-13017-038517FM-12+005199999V0200901N00151220001CN0200001N9+02981+02351100961ADDAA106000091AG10999GF102991021011008001011001MA1999999100381MD1999999+0061REMSYN011333   58006
0115832290999991987012200004-13017-038517FM-12+005199999V0201401N00261220001CN9999999N9+02571+02171101101ADDAA106000091AG10999GF100991001001999999001001KA1240M+03101MA1999999100501MD1999999-0041REMSYN017333   10310 59004
0096832290999991987012218004-13017-038517FM-12+005199999V0200901N00151220001CN0200001N9+02981+02201101011ADDAA106000091AG10999GF101991011001017501011001MA1999999100431MD1999999+0051REMSYN011333   58005
0137832290999991987012312004-13017-038517FM-12+005199999V0201801N00101007501CN0020001N9+02721+02321101321ADDAA106000091AG10999AY121061AY221061GF108991081071008001999999KA1240N+02411MA1999999100721MD1999999+0051MW1161REMSYN017333   20241 58005
0102832290999991987012318004-13017-038517FM-12+005199999V0201401N00261220001CN0200001N9+02921+02491100881ADDAA106009091AG10999GF103991021021008001001011MA1999999100291MD1999999-0141REMSYN017333   59014 60091
0115832290999991987012400004-13017-038517FM-12+005199999V0201401N00151220001CN9999999N9+02601+02421101091ADDAA106000091AG10999GF102991021001017501011001KA1240M+02601MA1999999100491MD1999999-0021REMSYN017333   10260 59002
0121832290999991987012412004-13017-038517FM-12+005199999V0200501N00211007501CN0040001N9+02851+02381101241ADDAA124009091AG10999GF106991061051008001001001KA1240N+02401MA1999999100641MD1999999-0081REMSYN023333   20240 59008 60094
0096832290999991987012418004-13017-038517FM-12+005199999V0200901N00151220001CN0200001N9+02981+02231100991ADDAA106000091AG10999GF102991021001008001011011MA1999999100411MD1999999+0121REMSYN011333   58012
0115832290999991987012500004-13017-038517FM-12+005199999V0200901N00151220001CN9999999N9+02581+02371101101ADDAA106000091AG10999GF100991001001999999001001KA1240M+03061MA1999999100501MD1999999+0011REMSYN017333   10306 58001
0115832290999991987012512004-13017-038517FM-12+005199999V0202701N00101045001CN0100001N9+02761+02341101331ADDAA106000091AG10999GF105991021021008001031001KA1240N+02421MA1999999100751MD1999999+0111REMSYN017333   20242 58011
0096832290999991987012518004-13017-038517FM-12+005199999V0200901N00311220001CN0200001N9+02951+02361101081ADDAA106000091AG10999GF100991001001999999001001MA1999999100481MD1999999+0071REMSYN011333   58007
0115832290999991987012600004-13017-038517FM-12+005199999V0200901N00151220001CN9999999N9+02581+02331101211ADDAA106000091AG10999GF100991001001999999001001KA1240M+03061MA1999999100621MD1999999+0121REMSYN017333   10306 58012
0115832290999991987012612004-13017-038517FM-12+005199999V0203601N00211007501CN0100001N9+02821+02311101281ADDAA106000091AG10999GF106991061041008001001001KA1240N+02421MA1999999100691MD1999999-0061REMSYN017333   20242 59006
0096832290999991987012618004-13017-038517FM-12+005199999V0200901N00361220001CN0200001N9+02981+02401100981ADDAA106000091AG10999GF100991001001999999001001MA1999999100391MD1999999-0091REMSYN011333   59009
0115832290999991987012700004-13017-038517FM-12+005199999V0200901N00101220001CN9999999N9+02561+02231101151ADDAA106000091AG10999GF101991011001017501011001KA1240M+03111MA1999999100561MD1999999-0061REMSYN017333   10311 59006
0134832290999991987012712004-13017-038517FM-12+005199999V0203601N001019999999N0200001N9+02791+02381101391ADDAA106000091AG10999GF105991999031008001001001KA1240N+02461MA1999999100801MD1999999+0111REMSYN017333   20246 58011EQDQ01+000032SCOTLC
0096832290999991987012718004-13017-038517FM-12+005199999V0200901N00101220001CN0200001N9+03011+02461101061ADDAA106000091AG10001GF103991021021008001011001MA1999999100481MD1999999+0091REMSYN011333   58009
0115832290999991987012800004-13017-038517FM-12+005199999V0200901N00151220001CN9999999N9+02641+02501101241ADDAA106000091AG10999GF101991011011008001001001KA1240M+03141MA1999999100661MD1999999+0101REMSYN017333   10314 58010
0115832290999991987012812004-13017-038517FM-12+005199999V0200501N00211220001CN0200001N9+02941+02291101441ADDAA106000091AG10999GF102991011021008001001011KA1240N+02421MA1999999100841MD1999999+0041REMSYN017333   20242 58004
0096832290999991987012818004-13017-038517FM-12+005199999V0201401N00151220001CN0200001N9+02981+02201101151ADDAA106000091AG10999GF102991011011008001001011MA1999999100571MD1999999+0091REMSYN011333   58009
0115832290999991987012900004-13017-038517FM-12+005199999V0201401N00101220001CN9999999N9+02621+02311101281ADDAA106000091AG10999GF101991011001017501011001KA1240M+03121MA1999999100681MD1999999+0021REMSYN017333   10312 58002
0115832290999991987012912004-13017-038517FM-12+005199999V0200901N00101220001CN0200001N9+02921+02091101421ADDAA106000091AG10999GF103991021021008001031001KA1240N+02421MA1999999100841MD1999999+0001REMSYN017333   20242 58000
0115832290999991987013000004-13017-038517FM-12+005199999V0201401N00101220001CN9999999N9+02621+02211101351ADDAA106000091AG10999GF101991011011008001001001KA1240M+03081MA1999999100761MD1999999+0081REMSYN017333   10308 58008
0154832290999991987013012004-13017-038517FM-12+005199999V0200901N00211220001CN0200001N9+02921+02191101301ADDAA124000291AA299000391AG10999AY151061AY211061GF102991021021008001001001KA1240N+02441MA1999999100711MD1999999-0131MW1011REMSYN023333   20244 59013 69924
0096832290999991987013018004-13017-038517FM-12+005199999V0200901N00151220001CN0200001N9+02981+02091101041ADDAA106000091AG10999GF101991011011008001001001MA1999999100461MD1999999-0161REMSYN011333   59016
0115832290999991987013100004-13017-038517FM-12+005199999V0200901N00101220001CN9999999N9+02581+02191101201ADDAA106000091AG10999GF101991011011008001001001KA1240M+03081MA1999999100701MD1999999-0061REMSYN017333   10308 59006
0134832290999991987013112004-13017-038517FM-12+005199999V0203601N001519999999N0200001N9+02971+02281101411ADDAA106000091AG10001GF105991999031008001001001KA1240N+02701MA1999999100821MD1999999+0111REMSYN017333   20270 58011EQDQ01+000032SCOTLC
0096832290999991987013118004-13017-038517FM-12+005199999V0203601N00151220001CN0200001N9+03021+02271101131ADDAA106000091AG10999GF104991031021008001001021MA1999999100551MD1999999+0091REMSYN011333   58009
0134832290999991987020100004-13017-038517FM-12+005199999V0200901N00151220001CN9999999N9+02681+02311101381ADDAA106000091AG10999GF103991999001017501021001KA1240M+03181MA1999999100801MD1999999-0101REMSYN017333   10318 59010EQDQ01+000022SCOTLC
0115832290999991987020112004-13017-038517FM-12+005199999V0201401N00151007501CN0100001N9+02991+02371101431ADDAA106000091AG10999GF106991061021008001001001KA1240N+02351MA1999999100831MD1999999+0011REMSYN017333   20235 58001
0096832290999991987020118004-13017-038517FM-12+005199999V0200901N00211220001CN0100001N9+03031+02461101161ADDAA106000091AG10999GF104991011021008001001011MA1999999100561MD1999999+0011REMSYN011333   58001
0115832290999991987020200004-13017-038517FM-12+005199999V0200501N00151220001CN9999999N9+02591+02371101341ADDAA106000091AG10999GF101991011011008001001001KA1240M+03121MA1999999100741MD1999999-0061REMSYN017333   10312 59006
0115832290999991987020212004-13017-038517FM-12+005199999V0201401N00151220001CN0100001N9+02901+02271101511ADDAA106000091AG10999GF104991031051008001001011KA1240N+02191MA1999999100911MD1999999+0081REMSYN017333   20219 58008
0096832290999991987020218004-13017-038517FM-12+005199999V0201401N00311220001CN0200001N9+03001+02321101221ADDAA106000091AG10999GF102991001001999999001011MA1999999100621MD1999999+0061REMSYN011333   58006
0115832290999991987020300004-13017-038517FM-12+005199999V0200501N00151220001CN9999999N9+02621+02181101381ADDAA106000091AG10001GF100991001001999999001001KA1240M+03131MA1999999100781MD1999999-0061REMSYN017333   10313 59006
0115832290999991987020312004-13017-038517FM-12+005199999V0201401N00151105001CN0200001N9+03061+02271101371ADDAA106000091AG10999GF105991041021008001001031KA1240N+02441MA1999999100791MD1999999-0221REMSYN017333   20244 59022
0096832290999991987020318004-13017-038517FM-12+005199999V0201401N00151220001CN0200001N9+03061+02221101101ADDAA106000091AG10999GF100991001001999999001001MA1999999100521MD1999999-0101REMSYN011333   59010
0115832290999991987020400004-13017-038517FM-12+005199999V0201401N00101220001CN9999999N9+02601+02251101231ADDAA106000091AG10999GF100991001001999999001001KA1240M+03121MA1999999100641MD1999999-0141REMSYN017333   10312 59014
0115832290999991987020412004-13017-038517FM-12+005199999V0201801N00151007501CN0100001N9+02781+02301101401ADDAA106000091AG10999GF105991051021008001001001KA1240N+02431MA1999999100811MD1999999+0031REMSYN017333   20243 58003
0096832290999991987020418004-13017-038517FM-12+005199999V0200901N00211220001CN0200001N9+03001+02321101061ADDAA106000091AG10999GF102991021021008001001001MA1999999100471MD1999999-0051REMSYN011333   59005
0115832290999991987020500004-13017-038517FM-12+005199999V0200901N00151220001CN9999999N9+02631+02271101221ADDAA106000091AG10999GF102991021011008001001001KA1240M+03061MA1999999100631MD1999999+0011REMSYN017333   10306 58001
0115832290999991987020512004-13017-038517FM-12+005199999V0200501N00101220001CN0200001N9+02971+02181101361ADDAA106000091AG10999GF104991021021008001001011KA1240N+02901MA1999999100771MD1999999-0041REMSYN017333   20290 59004
0096832290999991987020518004-13017-038517FM-12+005199999V0200501N00151220001CN0200001N9+03011+02291101181ADDAA106000091AG10999GF100991001001999999001001MA1999999100601MD1999999+0131REMSYN011333   58013
0115832290999991987020600004-13017-038517FM-12+005199999V0200901N00151220001CN9999999N9+02561+02191101271ADDAA106000091AG10999GF101991011011008001001001KA1240M+03181MA1999999100681MD1999999+0051REMSYN017333   10318 58005
0115832290999991987020612004-13017-038517FM-12+005199999V0201401N00151220001CN0200001N9+03041+02391101331ADDAA106000091AG10999GF103991031021008001001001KA1240N+02381MA1999999100631MD1999999-0141REMSYN017333   20238 59014
0096832290999991987020618004-13017-038517FM-12+005199999V0201401N00151220001CN0200001N9+03141+02271101051ADDAA106000091AG10999GF103991021011008001001011MA1999999100471MD1999999-0131REMSYN011333   59013
0115832290999991987020700004-13017-038517FM-12+005199999V0200501N00151220001CN9999999N9+02661+02521101131ADDAA106000091AG10999GF104991041041008001001001KA1240M+03201MA1999999100541MD1999999-0141REMSYN017333   10320 59014
0115832290999991987020712004-13017-038517FM-12+005199999V0200501N00211220001CN0100001N9+02951+02261101331ADDAA106000091AG10999GF104991041051008001001001KA1240N+02561MA1999999100731MD1999999+0101REMSYN017333   20256 58010
0096832290999991987020718004-13017-038517FM-12+005199999V0201401N00151220001CN0200001N9+03041+02411101141ADDAA106000091AG10999GF100991001001999999001001MA1999999100541MD1999999+0071REMSYN011333   58007
0115832290999991987020800004-13017-038517FM-12+005199999V0201401N00211220001CN9999999N9+02601+02171101201ADDAA106000091AG10999GF100991001001999999001001KA1240M+03181MA1999999100601MD1999999-0061REMSYN017333   10318 59006
0115832290999991987020812004-13017-038517FM-12+005199999V0201401N00151007501CN0100001N9+02861+02371101571ADDAA106000091AG10999GF105991051031008001001001KA1240N+02441MA1999999100991MD1999999+0261REMSYN017333   20244 58026
0096832290999991987020818004-13017-038517FM-12+005199999V0200901N00151220001CN0200001N9+03061+02221101301ADDAA106000091AG10999GF101991011011008001001001MA1999999100721MD1999999+0181REMSYN011333   58018
0115832290999991987020900004-13017-038517FM-12+005199999V0200901N00151220001CN9999999N9+02621+02251101281ADDAA106000091AG10999GF101991011011008001001001KA1240M+03121MA1999999100691MD1999999+0061REMSYN017333   10312 58006
0115832290999991987020912004-13017-038517FM-12+005199999V0200901N00211220001CN0200001N9+03041+02181101431ADDAA106000091AG10999GF103991031021008001001001KA1240N+02461MA1999999100831MD1999999-0161REMSYN017333   20246 59016
0134832290999991987021012004-13017-038517FM-12+005199999V0203601N001019999999N0200001N9+02751+02261101551ADDAA106000091AG10999GF106991999051008001001001KA1240N+02661MA1999999100961MD1999999+0131REMSYN017333   20266 58013EQDQ01+000032SCOTLC
0096832290999991987021018004-13017-038517FM-12+005199999V0200901N00101220001CN0200001N9+03031+02241101271ADDAA106000091AG10999GF100991001001999999001001MA1999999100681MD1999999+0141REMSYN011333   58014
0115832290999991987021100004-13017-038517FM-12+005199999V0200901N00261220001CN9999999N9+02661+02201101441ADDAA106000091AG10999GF100991001001999999001001KA1240M+03181MA1999999100841MD1999999+0191REMSYN017333   10318 58019
0115832290999991987021112004-13017-038517FM-12+005199999V0200901N00101220001CN0200001N9+02891+02301101391ADDAA106000091AG10999GF104991041021008001001001KA1240N+02531MA1999999100791MD1999999-0171REMSYN017333   20253 59017
0096832290999991987021118004-13017-038517FM-12+005199999V0201401N00151220001CN0200001N9+03001+02371101211ADDAA106000091AG10999GF104991021021008001031001MA1999999100611MD1999999-0071REMSYN011333   59007
0121832290999991987021200004-13017-038517FM-12+005199999V0201401N00151220001CN9999999N9+02601+02271101411ADDAA106006091AG10999GF103991021011008001021001KA1240M+03041MA1999999100821MD1999999-0021REMSYN023333   10304 59002 60061
0121832290999991987021312004-13017-038517FM-12+005199999V0200901N00151220001CN0200001N9+02861+02351101321ADDAA124015091AG10999GF103991031011008001001011KA1240N+02341MA1999999100741MD1999999-0081REMSYN023333   20234 59008 60154
0096832290999991987021318004-13017-038517FM-12+005199999V0201401N00151220001CN0200001N9+02941+02241101131ADDAA106000091AG10001GF103991021021008001001011MA1999999100551MD1999999+0031REMSYN011333   58003
0115832290999991987021400004-13017-038517FM-12+005199999V0201401N00101220001CN9999999N9+02601+02251101361ADDAA106000091AG10999GF104991021011008001031001KA1240M+03041MA1999999100771MD1999999+0071REMSYN017333   10304 58007
0132832290999991987021412004-13017-038517FM-12+005199999V0200901N00151220001CN0200001N9+02901+02341101361ADDAA106000091AA224000891AG10001GF102991011011008001001011KA1240N+02471MA1999999100761MD1999999+0021REMSYN023333   20247 58002 69984
0096832290999991987021418004-13017-038517FM-12+005199999V0201401N00261220001CN0200001N9+02951+02381101111ADDAA106000091AG10999GF103991011011008001001021MA1999999100521MD1999999-0031REMSYN011333   59003
0115832290999991987021500004-13017-038517FM-12+005199999V0202701N00151220001CN9999999N9+02621+02311101271ADDAA106000091AG10999GF102991021011008001011001KA1240M+02991MA1999999100681MD1999999-0091REMSYN017333   10299 59009
0162832290999991987021512004-13017-038517FM-12+005199999V0201801N000519999999N0100001N9+02551+01931101361ADDAA124001091AG10999AY161061AY221061GF107991999051008001001001KA1240N+02541MA1999999100761MD1999999+0001MW1011REMSYN023333   20254 58000 60014EQDQ01+000032SCOTLC
0096832290999991987021518004-13017-038517FM-12+005199999V0201801N00101220001CN0200001N9+02871+02371101171ADDAA106000091AG10999GF104991031021008001001081MA1999999100591MD1999999+0071REMSYN011333   58007
0154832290999991987021600004-13017-038517FM-12+005199999V0200901N00101045001CN9999999N9+02541+02491101241ADDAA106000891AA299001091AG10999AY161061AY231061GF105991021021008001031001KA1240M+02991MA1999999100641MD1999999-0041MW1021REMSYN023333   10299 59004 69981
0143832290999991987021612004-13017-038517FM-12+005199999V0200501N00101007501CN0100001N9+02741+02381101221ADDAA124005091AG10999AY161061AY221061GF107991061051008001001011KA1240N+02391MA1999999100621MD1999999-0141MW1021REMSYN023333   20239 59014 60054
0096832290999991987021618004-13017-038517FM-12+005199999V0201401N00151105001CN0100001N9+02921+02291100921ADDAA106000091AG10999GF106991031081008001001021MA1999999100331MD1999999-0261REMSYN011333   59026
0115832290999991987021700004-13017-038517FM-12+005199999V0200501N00151220001CN9999999N9+02661+02291101141ADDAA106000091AG10999GF104991041051008001001001KA1240M+03031MA1999999100541MD1999999-0101REMSYN017333   10303 59010
0115832290999991987021800004-13017-038517FM-12+005199999V0201401N00151220001CN9999999N9+02681+02281101221ADDAA106000091AG10999GF102991021011008001001011KA1240M+03061MA1999999100631MD1999999+0091REMSYN017333   10306 58009
0101832290999991987021812004-13017-038517FM-12+005199999V0203201N00151045001CN0040001N9+02941+02401101321ADDAA124002091AG10999GF107991041071008001021011KA1240N+02581MA1999999100721REMSYN017333   20258 60024
0096832290999991987021818004-13017-038517FM-12+005199999V0201401N00101045001CN0100001N9+02941+02471101171ADDAA106000091AG10999GF106991021021008001031001MA1999999100591MD1999999+0191REMSYN011333   58019
0115832290999991987021900004-13017-038517FM-12+005199999V0200901N00261220001CN9999999N9+02671+02241101281ADDAA106000091AG10999GF103991031021008001001001KA1240M+03141MA1999999100681MD1999999+0051REMSYN017333   10314 58005
0115832290999991987021912004-13017-038517FM-12+005199999V0200501N00261220001CN0200001N9+03011+02441101401ADDAA106000091AG10999GF103991031011008001001001KA1240N+02611MA1999999100811MD1999999+0091REMSYN017333   20261 58009
0115832290999991987021918004-13017-038517FM-12+005199999V0200901N00101220001CN0200001N9+03051+02361101201ADDAA106000091AG10999GF104991999021008001001001MA1999999100621MD1999999-0101REMSYN011333   59010EQDQ01+000022SCOTLC
0121832290999991987022000004-13017-038517FM-12+005199999V0200901N00101220001CN9999999N9+02601+02531101341ADDAA106000191AG10999GF103991031031008001001001KA1240M+03141MA1999999100751MD1999999+0071REMSYN023333   10314 58007 69911
0096832290999991987022018004-13017-038517FM-12+005199999V0201401N00211220001CN0200001N9+03051+02281101151ADDAA106000091AG10999GF103991031021008001001001MA1999999100561MD1999999-0061REMSYN011333   59006
0115832290999991987022100004-13017-038517FM-12+005199999V0200901N00151220001CN9999999N9+02661+02201101361ADDAA106000091AG10001GF102991021011008001001001KA1240M+03201MA1999999100771MD1999999+0021REMSYN017333   10320 58002
0143832290999991987022112004-13017-038517FM-12+005199999V0201401N00151220001CN0100001N9+02881+02461101311ADDAA124003091AG10999AY161061AY201061GF103991031021008001001001KA1240N+02351MA1999999100711MD1999999-0101MW1021REMSYN023333   20235 59010 60034
0096832290999991987022118004-13017-038517FM-12+005199999V0201401N00151105001CN0100001N9+03031+02461101061ADDAA106000091AG10999GF105991011021008001031011MA1999999100461MD1999999-0101REMSYN011333   59010
0115832290999991987022200004-13017-038517FM-12+005199999V0200901N00151007501CN9999999N9+02621+02371101331ADDAA106000091AG10999GF105991051041008001001001KA1240M+03091MA1999999100741MD1999999-0031REMSYN017333   10309 59003
0143832290999991987022212004-13017-038517FM-12+005199999V0200901N00261045001CN0040001N9+02841+02481101421ADDAA124007091AG10999AY121061AY261061GF107991021051008001061021KA1240N+02341MA1999999100821MD1999999+0111MW1011REMSYN023333   20234 58011 60074
0124832290999991987022218004-13017-038517FM-12+005199999V0200901N00151045001CN0040001N9+02671+02431101251ADDAA106003091AG10999AY161061AY201061GF107991031051008001061001MA1999999100651MD1999999+0191MW1021REMSYN017333   58019 60031
0151832290999991987022312004-13017-038517FM-12+005199999V0201401N001519999999N0200001N9+02891+02391101531ADDAA106000091AA224008091AG10999GF105991999031008001001001KA1240N+02661MA1999999100941MD1999999+0121REMSYN023333   20266 58012 60084EQDQ01+000022SCOTLC
0096832290999991987022318004-13017-038517FM-12+005199999V0200901N00151105001CN0100001N9+03031+02391101141ADDAA106000091AG10999GF105991011021008001001021MA1999999100551MD1999999-0101REMSYN011333   59010
0143832290999991987022412004-13017-038517FM-12+005199999V0200901N00311007501CN0040001N9+02721+02411101321ADDAA124007091AG10999AY161061AY261061GF108991081071008001999999KA1240N+02381MA1999999100721MD1999999-0221MW1211REMSYN023333   20238 59022 60074
0107832290999991987022418004-13017-038517FM-12+005199999V0200901N00211045001CN0100001N9+02841+02421101081ADDAG10999AY151061AY221061GF106991041041008001021001MA1999999100491MD1999999-0061MW1011REMSYN011333   59006
0154832290999991987022500004-13017-038517FM-12+005199999V0200901N00151220001CN9999999N9+02521+02271101391ADDAA106000491AA299000591AG10999AY111061AY211061GF104991041021008001001001KA1240M+02941MA1999999100791MD1999999+0071MW1211REMSYN023333   10294 58007 69941
0162832290999991987022512004-13017-038517FM-12+005199999V0201801N001019999999N0100001N9+02711+02371101421ADDAA124006091AG10999AY161061AY221061GF106991999051008001001001KA1240N+02701MA1999999100831MD1999999+0111MW1031REMSYN023333   20270 58011 60064EQDQ01+000032SCOTLC
0115832290999991987022518004-13017-038517FM-12+005199999V0201401N001519999999N0100001N9+02711+02351101151ADDAA106000091AG10999GF105991999031008001001001MA1999999100561MD1999999+0071REMSYN011333   58007EQDQ01+000032SCOTLC
0115832290999991987022600004-13017-038517FM-12+005199999V0201401N00101220001CN9999999N9+02621+01951101191ADDAA106000091AG10999GF105991031031008001001011KA1240M+03021MA1999999100601MD1999999+0191REMSYN017333   10302 58019
0115832290999991987022612004-13017-038517FM-12+005199999V0200901N00101220001CN0100001N9+02891+02251101401ADDAA106000091AG10999GF106991031021008001001011KA1240N+02441MA1999999100801MD1999999-0031REMSYN017333   20244 59003
0096832290999991987022618004-13017-038517FM-12+005199999V0200501N00151220001CN0100001N9+02991+02421101231ADDAA106000091AG10999GF105991011021008001001011MA1999999100631MD1999999+0071REMSYN011333   58007
0115832290999991987022700004-13017-038517FM-12+005199999V0200901N00261220001CN9999999N9+02681+02311101501ADDAA106000091AG10999GF101991011021012501001001KA1240M+03101MA1999999100901MD1999999+0301REMSYN017333   10310 58030
0115832290999991987022712004-13017-038517FM-12+005199999V0201401N00151220001CN0100001N9+02911+02271101551ADDAA106000091AG10999GF102991011021012501001011KA1240N+02541MA1999999100951MD1999999+0151REMSYN017333   20254 58015
0096832290999991987022718004-13017-038517FM-12+005199999V0201401N00151220001CN0200001N9+02951+02361101171ADDAA106000091AG10999GF102991011011008001001021MA1999999100581MD1999999-0051REMSYN011333   59005
0115832290999991987022800004-13017-038517FM-12+005199999V0201401N00151220001CN9999999N9+02641+02271101361ADDAA106000091AG10999GF102991021021012501001001KA1240M+03031MA1999999100761MD1999999-0141REMSYN017333   10303 59014
0115832290999991987022812004-13017-038517FM-12+005199999V0201801N00151105001CN0200001N9+02881+02281101341ADDAA106000091AG10999GF105991011011008001001021KA1240N+02481MA1999999100741MD1999999+0161REMSYN017333   20248 58016
0096832290999991987022818004-13017-038517FM-12+005199999V0201401N00211220001CN0200001N9+02961+02401101111ADDAA106000091AG10999GF104991021021008001001021MA1999999100521MD1999999-0061REMSYN011333   59006
0115832290999991987030100004-13017-038517FM-12+005199999V0201401N00151220001CN9999999N9+02691+02201101351ADDAA106000091AG10999GF103991031021008001001001KA1240M+03041MA1999999100751MD1999999-0011REMSYN017333   10304 59001
0115832290999991987030112004-13017-038517FM-12+005199999V0200901N00211220001CN0200001N9+02931+02411101191ADDAA106000091AG10999GF103991031021008001001001KA1240N+02531MA1999999100601MD1999999-0141REMSYN017333   20253 59014
0096832290999991987030118004-13017-038517FM-12+005199999V0201401N00261220001CN0200001N9+03031+02361100971ADDAA106000091AG10999GF102991011011008001001011MA1999999100381MD1999999-0141REMSYN011333   59014
0115832290999991987030200004-13017-038517FM-12+005199999V0201401N00261220001CN9999999N9+02621+02291101221ADDAA106000091AG10999GF103991021011008001031001KA1240M+03081MA1999999100631MD1999999-0121REMSYN017333   10308 59012
0132832290999991987030212004-13017-038517FM-12+005199999V0201401N00101220001CN0200001N9+02971+02331101171ADDAA124000491AA299000591AG10999GF103991031021008001001001KA1240N+02901MA1999999100591MD1999999-0011REMSYN023333   20290 59001 69944
0096832290999991987030218004-13017-038517FM-12+005199999V0201401N00151220001CN0200001N9+02981+02201101041ADDAA106000091AG10999GF101991011011008001001001MA1999999100461MD1999999+0081REMSYN011333   58008
0115832290999991987030312004-13017-038517FM-12+005199999V0200901N00101220001CN0100001N9+02851+02221101231ADDAA106000091AG10999GF105991041021008001001011KA1240N+02641MA1999999100631MD1999999+0041REMSYN017333   20264 58004
0096832290999991987030318004-13017-038517FM-12+005199999V0201401N00151105001CN0100001N9+02931+02321100601ADDAA106000091AG10999GF105991011011008001001021MA1999999100311MD1999999-0151REMSYN011333   59015
0115832290999991987030400004-13017-038517FM-12+005199999V0201401N00151220001CN9999999N9+02681+02241101221ADDAA106000091AG10999GF103991031021008001001001KA1240M+03121MA1999999100621MD1999999+0071REMSYN017333   10312 58007
0115832290999991987030412004-13017-038517FM-12+005199999V0200501N00151220001CN0100001N9+02811+02221101111ADDAA106000091AG10999GF106991041051008001001011KA1240N+02551MA1999999100511MD1999999-0121REMSYN017333   20255 59012
0096832290999991987030418004-13017-038517FM-12+005199999V0200901N00261015001CN0100001N9+02991+02251100961ADDAA106000091AG10999GF107991071001017501061001MA1999999100361MD1999999+0051REMSYN011333   58005
0115832290999991987030500004-13017-038517FM-12+005199999V0200901N00211220001CN9999999N9+02621+02271101051ADDAA106000091AG10999GF100991001001999999001001KA1240M+03111MA1999999100451MD1999999-0181REMSYN017333   10311 59018
0115832290999991987030512004-13017-038517FM-12+005199999V0203601N00101007501CN0100001N9+02761+02401101161ADDAA106000091AG10999GF105991051041008001001001KA1240N+02441MA1999999100581MD1999999+0071REMSYN017333   20244 58007
0096832290999991987030518004-13017-038517FM-12+005199999V0200901N00151220001CN0200001N9+03001+02371100991ADDAA106000091AG10999GF101991011011008001001001MA1999999100321MD1999999-0041REMSYN011333   59004
0115832290999991987030600004-13017-038517FM-12+005199999V0200501N00151220001CN9999999N9+02681+02501101001ADDAA106000091AG10999GF102991021021008001001001KA1240M+03081MA1999999100421MD1999999-0031REMSYN017333   10308 59003
0115832290999991987030612004-13017-038517FM-12+005199999V0203201N00211007501CN0100001N9+02871+02311101091ADDAA106000091AG10999GF106991061021008001001001KA1240N+02501MA1999999100501MD1999999-0081REMSYN017333   20250 59008
0096832290999991987030618004-13017-038517FM-12+005199999V0200901N00311220001CN0200001N9+03041+02431100761ADDAA106000091AG10999GF101991011011008001001001MA1999999100171MD1999999-0051REMSYN011333   59005
0115832290999991987030700004-13017-038517FM-12+005199999V0200501N00571220001CN9999999N9+02701+02281100951ADDAA106000091AG10999GF100991001001999999001001KA1240M+03101MA1999999100351MD1999999-0071REMSYN017333   10310 59007
0134832290999991987030712004-13017-038517FM-12+005199999V0203601N001019999999N0200001N9+02791+02361101141ADDAA106000091AG10999GF105991999051008001001001KA1240N+02781MA1999999100551MD1999999+0051REMSYN017333   20278 58005EQDQ01+000032SCOTLC
0096832290999991987030718004-13017-038517FM-12+005199999V0200901N00151007501CN0200001N9+03081+02291100881ADDAA106000091AG10999GF105991051041008001001001MA1999999100301MD1999999+0131REMSYN011333   58013
0115832290999991987030800004-13017-038517FM-12+005199999V0200901N00151220001CN9999999N9+02661+02501100961ADDAA106000091AG10999GF104991041041008001001001KA1240M+03181MA1999999100381MD1999999+0031REMSYN017333   10318 58003
0115832290999991987030812004-13017-038517FM-12+005199999V0200501N00151012001CN0100001N9+02791+02361101011ADDAA106000091AG10999GF107991061081008001001011KA1240N+02561MA1999999100421MD1999999-0131REMSYN017333   20256 59013
0096832290999991987030818004-13017-038517FM-12+005199999V0200501N00211105001CN0100001N9+02951+02371100711ADDAA106000091AG10999GF106991011011008001001021MA1999999100021MD1999999-0281REMSYN011333   59028
0115832290999991987030900004-13017-038517FM-12+005199999V0200501N00151220001CN9999999N9+02661+02331100811ADDAA106000091AG10999GF102991021011008001001001KA1240M+03061MA1999999100221MD1999999-0161REMSYN017333   10306 59016
0151832290999991987030912004-13017-038517FM-12+005199999V0203601N00151220001CN0200001N9+02761+02341100971ADDAA106000091AA224008091AG10999GF104991999051008001001001KA1240N+02761MA1999999100381MD1999999-0011REMSYN023333   20276 59001 60084EQDQ01+000032SCOTLC
0096832290999991987030918004-13017-038517FM-12+005199999V0200501N00101220001CN0200001N9+03011+02321100611ADDAA106000091AG10999GF105991021031008001001011MA1999999100031MD1999999+0011REMSYN011333   58001
0121832290999991987031012004-13017-038517FM-12+005199999V0200501N00151220001CN0200001N9+02821+02361101121ADDAA124003091AG10999GF103991021011008001031001KA1240N+02421MA1999999100541MD1999999+0161REMSYN023333   20242 58016 60034
0096832290999991987031018004-13017-038517FM-12+005199999V0200901N00101045001CN0200001N9+02961+02351100871ADDAA106000091AG10999GF106991041051008001011001MA1999999100871MD1999999+0261REMSYN011333   58026
0120832290999991987031100004-13017-038517FM-12+005199999V0200901N00151220001CN9999999N9+02661+02441100921ADDAA106000091AG10999GF103991999011008001001001KA1240M+03101MA1999999100341REMSYN017333   10310 580//EQDQ01+000022SCOTLC
0160832290999991987031103004-13017-038517FM-12+005199999V0200701N00211220001CN0100001N9+99999+99999999999ADDAA106000091AG10999GF102991011001999999031021MD1710161+9999EQDQ01+025303ATOT  Q02+024973ATOD  Q03+103623APOSLPQ04 -02023ATOT  Q05 -02353ATOD  Q06 103623APOSLP
0143832290999991987031112004-13017-038517FM-12+005199999V0203201N00151007501CN0100001N9+02691+02281101211ADDAA124000391AG10999AY151061AY211061GF107991051051008001021001KA1240N+02431MA1999999100621MD1999999+0081MW1021REMSYN023333   20243 58008 69934
0096832290999991987031118004-13017-038517FM-12+005199999V0200901N002619999999N0100001N9+02941+02331100801ADDAA106000091AG10999GF107991071001012501071999MA1999999100211MD1999999-0081REMSYN011333   59008
0115832290999991987031200004-13017-038517FM-12+005199999V0200501N00261045001CN9999999N9+02701+02451101081ADDAA106000091AG10999GF106991021021008001031001KA1240M+03101MA1999999100481MD1999999+0141REMSYN017333   10310 58014
0115832290999991987031212004-13017-038517FM-12+005199999V0200901N00101007501CN0040001N9+02781+02401101201ADDAA106000091AG10999GF108991081071008001999999KA1240N+02551MA1999999100611MD1999999-0011REMSYN017333   20255 59001
0096832290999991987031218004-13017-038517FM-12+005199999V0200901N00211015001CN0020001N9+02931+02341100931ADDAA106000091AG10001GF108991081001017501051999MA1999999100331MD1999999+0121REMSYN011333   58012
0121832290999991987031300004-13017-038517FM-12+005199999V0200901N00151007501CN9999999N9+02681+02351101081ADDAA106000091AG10999GF108991051051008001031999KA1240M+03121MA1999999100481MD1999999+0001REMSYN023333   10312 58000 58000
0143832290999991987031312004-13017-038517FM-12+005199999V0200501N00101007501CN0040001N9+02331+02201101201ADDAA124005091AG10999AY161061AY221061GF108991081071008001999999KA1240N+02321MA1999999100611MD1999999+0001MW1021REMSYN023333   20232 58000 60054
0135832290999991987031318004-13017-038517FM-12+005199999V0203601N00101045001CN0100001N9+02631+02251100861ADDAA106000291AA299000391AG10999AY151061AY221061GF107991031081008001031021MA1999999100271MD1999999-0061MW1021REMSYN017333   59006 69921
0115832290999991987031400004-13017-038517FM-12+005199999V0200901N00101220001CN9999999N9+02541+02211101021ADDAA106000091AG10999GF103991031051008001001001KA1240M+02701MA1999999100421MD1999999-0061REMSYN017333   10270 59006
0143832290999991987031412004-13017-038517FM-12+005199999V0202301N00151007501CN0020001N9+02721+02321101271ADDAA124007091AG10999AY101061AY211061GF105991051051008001001001KA1240N+02241MA1999999100671MD1999999+0061MW1631REMSYN023333   20224 58006 60074
0143832290999991987031512004-13017-038517FM-12+005199999V0201401N00101045001CN0100001N9+02661+02331101411ADDAA124014091AG10999AY161061AY231061GF105991021041008001021001KA1240N+02451MA1999999100821MD1999999+0151MW1011REMSYN023333   20245 58015 60144
0118832290999991987031518004-13017-038517FM-12+005199999V0201401N00151045001CN0100001N9+02861+02461101181ADDAA106000091AG10999AY131061AY221061GF106991021041008001031001MA1999999100601MD1999999+0271MW1141REMSYN011333   58027
0143832290999991987031600004-13017-038517FM-12+005199999V0201401N00151220001CN9999999N9+02561+02251101291ADDAA106002091AG10999AY161061AY231061GF103991021021008001011001KA1240M+02901MA1999999100701MD1999999+0071MW1021REMSYN023333   10290 58007 60021
0143832290999991987031612004-13017-038517FM-12+005199999V0201401N00151220001CN0100001N9+02761+02301101431ADDAA124005091AG10999AY161061AY211061GF103991031021008001001001KA1240N+02431MA1999999100831MD1999999+0011MW1031REMSYN023333   20243 58001 60054
0115832290999991987031700004-13017-038517FM-12+005199999V0200901N00151220001CN9999999N9+02581+02211101241ADDAA106000091AG10999GF103991021011008001031001KA1240M+03031MA1999999100651MD1999999-0051REMSYN017333   10303 59005
0143832290999991987031712004-13017-038517FM-12+005199999V0201801N00101220001CN0200001N9+02851+02311101261ADDAA124008091AG10999AY161061AY201061GF103991031021008001001001KA1240N+02411MA1999999100671MD1999999-0161MW1021REMSYN023333   20241 59016 60084
0073832290999991987031718004-13017-038517FM-12+005199999V0201801N00101007501CN0020001N9+02561+02441101041ADDAG10999AY161061AY221061GF108991081071008001999999MA1999999100451MW1021
0143832290999991987031800004-13017-038517FM-12+005199999V0201401N00151220001CN9999999N9+02621+02331101111ADDAA106003091AG10999AY161061AY201061GF103991031081008001001001KA1240M+02961MA1999999100521MD1999999-0131MW1021REMSYN023333   10296 59013 60031
0162832290999991987031812004-13017-038517FM-12+005199999V0202701N00101007501CN0040001N9+02591+02481101161ADDAA124013091AG10999AY161061AY221061GF108991081071008001999999KA1240N+99999MA1999999100571MD1999999-0101MW1021REMSYN023333   20294 59010 60134EQDQ01 +02942ATMN  
0124832290999991987031818004-13017-038517FM-12+005199999V0201301N00151007501CN0020001N9+02631+02351100991ADDAA106001091AG10999AY151061AY221061GF108991081071008001999999MA1999999100401MD1999999-0051MW1611REMSYN017333   59005 60011
0115832290999991987031900004-13017-038517FM-12+005199999V0201401N00151007501CN9999999N9+02581+02191101101ADDAA106000091AG10999GF105991051041008001001001KA1240M+02991MA1999999100511MD1999999-0011REMSYN017333   10299 59001
0121832290999991987031912004-13017-038517FM-12+005199999V0201401N00211105001CN0100001N9+02861+02421101291ADDAA124001091AG10999GF105991031021008001001021KA1240N+02451MA1999999100691MD1999999+0121REMSYN023333   20245 58012 60014
0096832290999991987031918004-13017-038517FM-12+005199999V0200901N00211105001CN0100001N9+02951+02381101031ADDAA106000091AG10999GF107991031021008001001021MA1999999100441MD1999999+0041REMSYN011333   58004
0115832290999991987032000004-13017-038517FM-12+005199999V0200901N00151220001CN9999999N9+02601+02191101131ADDAA106000091AG10999GF103991031021008001001001KA1240M+03021MA1999999100541MD1999999+0031REMSYN017333   10302 58003
0143832290999991987032012004-13017-038517FM-12+005199999V0203601N00101045001CN0040001N9+02541+02351101331ADDAA124010091AG10999AY161061AY261061GF106991021051008001031001KA1240N+02401MA1999999100731MD1999999-0041MW1021REMSYN023333   20240 59004 60104
0135832290999991987032018004-13017-038517FM-12+005199999V0201401N00101045001CN0040001N9+02741+02321100981ADDAA106000691AA299000591AG10999AY151061AY221061GF106991011021008001031011MA1999999100391MD1999999-0051MW1021REMSYN017333   59005 69961
0115832290999991987032100004-13017-038517FM-12+005199999V0201401N00151220001CN9999999N9+02691+02451101021ADDAA106000091AG10999GF103991031021008001001001KA1240M+02881MA1999999100431MD1999999-0111REMSYN017333   10288 59011
0134832290999991987032112004-13017-038517FM-12+005199999V0201401N00101220001CN0200001N9+02931+02431101201ADDAA106000091AG10999GF104991999031008001001001KA1240N+02501MA1999999100621MD1999999-0111REMSYN017333   20250 59011EQDQ01+000022SCOTLC
0096832290999991987032118004-13017-038517FM-12+005199999V0201401N00151220001CN0100001N9+02961+02421100791ADDAA106000091AG10999GF104991011011008001001021MA1999999100201MD1999999-0191REMSYN011333   59019
0115832290999991987032212004-13017-038517FM-12+005199999V0202701N00101045001CN0100001N9+02761+02231101021ADDAA106000091AG10999GF105991021021008001041001KA1240N+02501MA1999999100441MD1999999-0181REMSYN017333   20250 59018
0124832290999991987032218004-13017-038517FM-12+005199999V0201401N00151045001CN0100001N9+02901+02461100761ADDAA106007091AG10999AY121061AY261061GF105991021011008001031001MA1999999100181MD1999999-0021MW1011REMSYN017333   59002 60071
0121832290999991987032312004-13017-038517FM-12+005199999V0203601N00151045001CN0100001N9+02761+02421101101ADDAA124007091AG10999GF106991021051008001021001KA1240N+02501MA1999999100521MD1999999+0081REMSYN023333   20250 58008 60074
0096832290999991987032318004-13017-038517FM-12+005199999V0200901N00101220001CN0200001N9+02981+02201100721ADDAA106000091AG10999GF101991011011008001001001MA1999999100141MD1999999-0041REMSYN011333   59004
0115832290999991987032400004-13017-038517FM-12+005199999V0200901N00151220001CN9999999N9+02681+02311100891ADDAA106000091AG10999GF101991011011008001001001KA1240M+03041MA1999999100301MD1999999-0051REMSYN017333   10304 59005
0115832290999991987032412004-13017-038517FM-12+005199999V0203601N00101220001CN0200001N9+02891+02371101061ADDAA106000091AG10999GF104991031021008001011011KA1240N+02591MA1999999100481MD1999999-0041REMSYN017333   20259 59004
0096832290999991987032418004-13017-038517FM-12+005199999V0201401N00151105001CN0100001N9+02921+02391100791ADDAA106000091AG10001GF105991011011008001051021MA1999999100201MD1999999+0061REMSYN011333   58006
0115832290999991987032500004-13017-038517FM-12+005199999V0200901N00151220001CN9999999N9+02721+02281101051ADDAA106000091AG10999GF103991031021008001001001KA1240M+03041MA1999999100471MD1999999+0171REMSYN017333   10304 58017
0115832290999991987032512004-13017-038517FM-12+005199999V0201401N00151007501CN0100001N9+02901+02201101121ADDAA106000091AG10999GF106991061041008001001001KA1240N+02621MA1999999100531MD1999999+0051REMSYN017333   20262 58005
0096832290999991987032518004-13017-038517FM-12+005199999V0201401N00211220001CN0200001N9+02961+02181100741ADDAA106000091AG10999GF103991031021008001001011MA1999999100151MD1999999-0051REMSYN011333   59005
0115832290999991987032600004-13017-038517FM-12+005199999V0201401N00151220001CN9999999N9+02691+02261100961ADDAA106000091AG10999GF102991021021008001001001KA1240M+03041MA1999999100371MD1999999-0101REMSYN017333   10304 59010
0143832290999991987032612004-13017-038517FM-12+005199999V0202301N00151220001CN0100001N9+02641+02411100951ADDAA124013091AG10999AY161061AY201061GF103991031051008001001001KA1240N+02291MA1999999100361MD1999999-0171MW1021REMSYN023333   20229 59017 60134
0115832290999991987032700004-13017-038517FM-12+005199999V0201401N00211220001CN9999999N9+02711+02411100861ADDAA106000091AG10999GF104991041081008001001001KA1240M+03121MA1999999100271MD1999999-0101REMSYN017333   10312 59010
0154832290999991987032712004-13017-038517FM-12+005199999V0201801N00101007501CN0020001N9+02641+02391101021ADDAA124000491AA299000591AG10999AY151061AY221061GF108991081071008001999999KA1240N+02391MA1999999100431MD1999999+0071MW1021REMSYN023333   20239 58007 69944
0096832290999991987032718004-13017-038517FM-12+005199999V0201401N00151045001CN0020001N9+02891+02481100701ADDAA106000091AG10999GF107991031051008001031001MA1999999100101MD1999999+0081REMSYN011333   58008
0115832290999991987032800004-13017-038517FM-12+005199999V0201401N00211045001CN9999999N9+02701+02301100901ADDAA106000091AG10999GF106991031051008001031051KA1240M+02941MA1999999100301MD1999999+0031REMSYN017333   10294 58003
0121832290999991987032812004-13017-038517FM-12+005199999V0200901N00151220001CN0100001N9+02941+02261101011ADDAA124000191AG10999GF104991041021008001001001KA1240N+02481MA1999999100421MD1999999-0011REMSYN023333   20248 59001 69914
0134832290999991987032900004-13017-038517FM-12+005199999V0201401N00151220001CN9999999N9+02681+02311100951ADDAA106000091AG10999GF103991999011008001001001KA1240M+03081MA1999999100361MD1999999+0061REMSYN017333   10308 58006EQDQ01+000022SCOTLC
0115832290999991987032912004-13017-038517FM-12+005199999V0203601N001519999999N0100001N9+02751+02381101101ADDAA106000091AG10999GF106991031051008001999999KA1240N+02561MA1999999100511MD1999999+0091REMSYN017333   20256 58009
0096832290999991987032918004-13017-038517FM-12+005199999V0200901N00151220001CN0200001N9+02891+02411100691ADDAA106000091AG10999GF102991021041008001001001MA1999999100111MD1999999-0061REMSYN011333   59006
0134832290999991987033000004-13017-038517FM-12+005199999V0200901N00151220001CN9999999N9+02751+02451100711ADDAA106000091AG10999GF104991999031008001001001KA1240M+03101MA1999999100131MD1999999-0191REMSYN017333   10310 59019EQDQ01+000032SCOTLC
0143832290999991987033012004-13017-038517FM-12+005199999V0201401N00101007501CN0020001N9+02341+02241101081ADDAA124020091AG10999AY161061AY261061GF108991081071008001999999KA1240N+02321MA1999999100491MD1999999-0021MW1951REMSYN023333   20232 59002 60204
0124832290999991987033018004-13017-038517FM-12+005199999V0200501N00151007501CN0020001N9+02431+02281100781ADDAA106012091AG10001AY161061AY221061GF108991081071008001999999MA1999999100181MD1999999+0071MW1021REMSYN017333   58007 60121
0143832290999991987033100004-13017-038517FM-12+005199999V0203601N00101045001CN9999999N9+02391+02131100971ADDAA106000191AG10999AY151061AY221061GF105991011011008001051001KA1240M+02721MA1999999100371MD1999999+0241MW1021REMSYN023333   10272 58024 69911
0121832290999991987033112004-13017-038517FM-12+005199999V0200501N00151045001CN0040001N9+02631+02251101091ADDAA199013091AG10999GF108991021081008001051001KA1240N+02411MA1999999100491MD1999999+0001REMSYN023333   20241 58000 60130
0096832290999991987033118004-13017-038517FM-12+005199999V0201401N00151105001CN0100001N9+02811+02341100891ADDAA106000091AG10999GF107991041051008001001021MA1999999100301MD1999999+0121REMSYN011333   58012
0115832290999991987040100004-13017-038517FM-12+005199999V0201401N00211012001CN9999999N9+02541+02351101041ADDAA106000091AG10999GF106991061081008001001001KA1240M+02931MA1999999100551MD1999999+0181REMSYN017333   10293 58018
0143832290999991987040112004-13017-038517FM-12+005199999V0200501N00151012001CN0040001N9+02601+02311101331ADDAA124001091AG10999AY151061AY251061GF108991081081008001999999KA1240N+02381MA1999999100731MD1999999+0241MW1021REMSYN023333   20238 58024 60014
0096832290999991987040118004-13017-038517FM-12+005199999V0200901N00151007501CN0100001N9+02791+02401101041ADDAA106000091AG10999GF106991061041008001001001MA1999999100451MD1999999+0151REMSYN011333   58015
0115832290999991987040200004-13017-038517FM-12+005199999V0200901N00151220001CN9999999N9+02441+02231101171ADDAA106000091AG10999GF104991021011008001031001KA1240M+02921MA1999999100581MD1999999+0031REMSYN017333   10292 58003
0134832290999991987040212004-13017-038517FM-12+005199999V0200901N00101220001CN0200001N9+02871+02441101321ADDAA106000091AG10999GF104991999031008001001001KA1240N+02561MA1999999100731MD1999999+0001REMSYN017333   20256 58000EQDQ01+000022SCOTLC
0115832290999991987040218004-13017-038517FM-12+005199999V0200901N00101220001CN0200001N9+02911+02341101011ADDAA106000091AG10999GF103991999021008001001001MA1999999100431MD1999999-0021REMSYN011333   59002EQDQ01+000022SCOTLC
0115832290999991987040300004-13017-038517FM-12+005199999V0201401N00101220001CN9999999N9+02631+02211101321ADDAA106000091AG10999GF102991021011008001001001KA1240M+03021MA1999999100721MD1999999+0141REMSYN017333   10302 58014
0121832290999991987040312004-13017-038517FM-12+005199999V0200901N00151045001CN0100001N9+02881+02391101251ADDAA124002091AG10999GF105991031051008001031001KA1240N+02501MA1999999100651MD1999999-0081REMSYN023333   20250 59008 60024
0096832290999991987040318004-13017-038517FM-12+005199999V0200901N00151220001CN0100001N9+02901+02391101041ADDAA106000091AG10999GF104991021021008001031001MA1999999100441MD1999999-0051REMSYN011333   59005
0115832290999991987040400004-13017-038517FM-12+005199999V0200901N00311220001CN9999999N9+02671+02311101251ADDAA106000091AG10999GF104991041051008001001001KA1240M+03021MA1999999100651MD1999999-0071REMSYN017333   10302 59007
0121832290999991987040412004-13017-038517FM-12+005199999V0200901N00311220001CN0100001N9+02871+02441101021ADDAA124001091AG10999GF103991031031008001001001KA1240N+02571MA1999999100611MD1999999-0041REMSYN023333   20257 59004 60014
0096832290999991987040418004-13017-038517FM-12+005199999V0200901N00101220001CN0200001N9+02931+02361100861ADDAA106000091AG10999GF101991011011008001001001MA1999999100271MD1999999-0171REMSYN011333   59017
0115832290999991987040500004-13017-038517FM-12+005199999V0200901N00151220001CN9999999N9+02641+02181101051ADDAA106000091AG10999GF101991011011008001001001KA1240M+03041MA1999999100461MD1999999-0191REMSYN017333   10304 59019
0154832290999991987040512004-13017-038517FM-12+005199999V0200501N00151007501CN0100001N9+02841+02351101191ADDAA124000791AA299001091AG10999AY151061AY251061GF105991051041008001001001KA1240N+02391MA1999999100601MD1999999-0011MW1031REMSYN023333   20239 59001 69974
0096832290999991987040518004-13017-038517FM-12+005199999V0200901N00151045001CN0100001N9+02921+02361100961ADDAA106000091AG10999GF106991021041008001031001MA1999999100381MD1999999+0111REMSYN011333   58011
0115832290999991987040600004-13017-038517FM-12+005199999V0200901N00151220001CN9999999N9+02601+02211101231ADDAA106000091AG10999GF104991041021008001001001KA1240M+03021MA1999999100641MD1999999+0181REMSYN017333   10302 58018
0162832290999991987040612004-13017-038517FM-12+005199999V0200501N001019999999N0040001N9+02831+02361101401ADDAA124002091AG10999AY101061AY211061GF107991999071008001001001KA1240N+02761MA1999999100811MD1999999+0211MW1031REMSYN023333   20276 58021 60024EQDQ01+000042SCOTLC
0096832290999991987040618004-13017-038517FM-12+005199999V0200901N00151105001CN0100001N9+02891+02461101051ADDAA106000091AG10999GF106991031081008001001021MA1999999100461MD1999999+0081REMSYN011333   58008
0115832290999991987040700004-13017-038517FM-12+005199999V0200501N00151220001CN9999999N9+02731+02371101351ADDAA106000091AG10999GF102991021011008001001001KA1240M+03041MA1999999100751MD1999999+0111REMSYN017333   10304 58011
0115832290999991987040712004-13017-038517FM-12+005199999V0200501N00151105001CN0100001N9+02971+02511101551ADDAA106000091AG10999GF107991031021008001001021KA1240N+02501MA1999999100951MD1999999+0141REMSYN017333   20250 58014
0096832290999991987040718004-13017-038517FM-12+005199999V0201401N00151220001CN0200001N9+02981+02441101261ADDAA106000091AG10999GF104991011011008001001021MA1999999100671MD1999999+0211REMSYN011333   58021
0115832290999991987040800004-13017-038517FM-12+005199999V0201401N00101220001CN9999999N9+02661+02331101431ADDAA106000091AG10999GF101991011011008001001001KA1240M+03091MA1999999100841MD1999999+0091REMSYN017333   10309 58009
0115832290999991987040812004-13017-038517FM-12+005199999V0200901N00151220001CN0100001N9+02901+02271101451ADDAA106000091AG10999GF104991041021008001001001KA1240N+02581MA1999999100851MD1999999-0101REMSYN017333   20258 59010
0096832290999991987040818004-13017-038517FM-12+005199999V0200901N00211220001CN0200001N9+02951+02331101171ADDAA106000091AG10999GF100991001001999999001001MA1999999100571MD1999999-0101REMSYN011333   59010
0115832290999991987040900004-13017-038517FM-12+005199999V0200901N00151220001CN9999999N9+02611+02211101381ADDAA106000091AG10999GF102991021021008001001001KA1240M+03041MA1999999100781MD1999999-0271REMSYN017333   10304 59027
0115832290999991987040912004-13017-038517FM-12+005199999V0201401N00151220001CN0100001N9+02791+02301101271ADDAA106000091AG10999GF102991021021008001001001KA1240N+02471MA1999999100681MD1999999+0111REMSYN017333   20247 58011
0096832290999991987040918004-13017-038517FM-12+005199999V0201401N00151220001CN0100001N9+02911+02371101001ADDAA106000091AG10999GF103991031011008001001001MA1999999100411MD1999999-0161REMSYN011333   59016
0115832290999991987041000004-13017-038517FM-12+005199999V0201401N00151220001CN9999999N9+02621+02141101181ADDAA106000091AG10999GF101991011011008001001001KA1240M+03011MA1999999100581MD1999999-0201REMSYN017333   10301 59020
0096832290999991987041018004-13017-038517FM-12+005199999V0201401N00151220001CN0200001N9+02971+02181101001ADDAA106000091AG10999GF100991001001999999001001MA1999999100421MD1999999+0011REMSYN011333   58001
0115832290999991987041100004-13017-038517FM-12+005199999V0201401N00151220001CN9999999N9+02601+02291101131ADDAA106000091AG10999GF103991031021008001001001KA1240M+03021MA1999999100541MD1999999-0041REMSYN017333   10302 59004
0115832290999991987041112004-13017-038517FM-12+005199999V0201401N00151220001CN0100001N9+02931+02291101241ADDAA106000091AG10999GF104991021021008001031001KA1240N+02301MA1999999100651MD1999999-0011REMSYN017333   20230 59001
0096832290999991987041118004-13017-038517FM-12+005199999V0200901N00151220001CN0200001N9+02901+02221100961ADDAA106000091AG10999GF101991011011008001001001MA1999999100381MD1999999-0041REMSYN011333   59004
0115832290999991987041200004-13017-038517FM-12+005199999V0201401N00151220001CN9999999N9+02621+02181101211ADDAA106000091AG10999GF101991011011008001001001KA1240M+03061MA1999999100611MD1999999+0071REMSYN017333   10306 58007
0121832290999991987041212004-13017-038517FM-12+005199999V0200901N00151220001CN0100001N9+02891+02281101291ADDAA124001091AG10999GF104991021021008001051001KA1240N+02281MA1999999100691MD1999999+0041REMSYN023333   20228 58004 60014
0096832290999991987041218004-13017-038517FM-12+005199999V0200901N00151220001CN0200001N9+02961+02211100961ADDAA106000091AG10999GF103991031021008001001001MA1999999100381MD1999999+0001REMSYN011333   58000
0115832290999991987041300004-13017-038517FM-12+005199999V0201401N00151220001CN9999999N9+02641+02231101181ADDAA106000091AG10999GF103991011011008001031001KA1240M+03061MA1999999100581MD1999999-0031REMSYN017333   10306 59003
0143832290999991987041312004-13017-038517FM-12+005199999V0200901N00101007501CN0040001N9+02861+02311101181ADDAA124004091AG10999AY161061AY221061GF107991071051008001001001KA1240N+02311MA1999999100591MD1999999-0101MW1021REMSYN023333   20231 59010 60044
0096832290999991987041318004-13017-038517FM-12+005199999V0200901N00151220001CN0200001N9+02981+02201100991ADDAA106000091AG10999GF101991011011008001001001MA1999999100411MD1999999+0031REMSYN011333   58003
0143832290999991987041400004-13017-038517FM-12+005199999V0200501N00151220001CN9999999N9+02691+02181101171ADDAA106003091AG10999AY161061AY221061GF101991011011008001001001KA1240M+03061MA1999999100581MD1999999+0001MW1021REMSYN023333   10306 58000 60031
0143832290999991987041412004-13017-038517FM-12+005199999V0200901N00151220001CN0200001N9+02851+02191101351ADDAA124007091AG10999AY161061AY221061GF102991021021008001001001KA1240N+02301MA1999999100761MD1999999+0171MW1021REMSYN023333   20230 58017 60074
0096832290999991987041418004-13017-038517FM-12+005199999V0201401N00151220001CN0200001N9+02991+02281101151ADDAA106000091AG10999GF101991011011008001001001MA1999999100551MD1999999+0141REMSYN011333   58014
0115832290999991987041500004-13017-038517FM-12+005199999V0201401N00151220001CN9999999N9+02691+02221101321ADDAA106000091AG10999GF103991031021008001001001KA1240M+03081MA1999999100721MD1999999+0141REMSYN017333   10308 58014
0143832290999991987041512004-13017-038517FM-12+005199999V0200901N00211220001CN0100001N9+02911+02301101401ADDAA124001091AG10999AY161061AY211061GF103991031021008001001011KA1240N+01941MA1999999100901MD1999999+0141MW1011REMSYN023333   20194 58014 60014
0096832290999991987041518004-13017-038517FM-12+005199999V0201401N00211220001CN0200001N9+02891+02371101151ADDAA106000091AG10999GF104991021031008001031001MA1999999100561MD1999999+0011REMSYN011333   58001
0143832290999991987041600004-13017-038517FM-12+005199999V0200501N00151220001CN9999999N9+02691+02181101471ADDAA106001091AG10999AY161061AY221061GF101991011011008001001001KA1240M+03081MA1999999100581MD1999999+0141MW1021REMSYN023333   10308 58014 60011
0115832290999991987041612004-13017-038517FM-12+005199999V0200501N00151007501CN0100001N9+02821+02291101301ADDAA106000091AG10999GF105991051021008001001001KA1240N+02501MA1999999100701MD1999999-0201REMSYN017333   20250 59020
0104832290999991987041700004-13017-038517FM-12+005199999V0200901N00151220001CN9999999N9+02521+02361101341ADDAG10999GF103991031031008001001001KA1240M+03081MA1999999100751MD1999999-0221REMSYN017333   10308 59022
0143832290999991987041712004-13017-038517FM-12+005199999V0200901N00261220001CN0040001N9+02851+02421101451ADDAA124009091AG10999AY161061AY261061GF104991041051008001001001KA1240N+02421MA1999999100861MD1999999+0161MW1531REMSYN023333   20242 58016 60094
0113832290999991987041718004-13017-038517FM-12+005199999V0200901N00261220001CN0100001N9+02911+02321101261ADDAA106000491AA299000591AG10999GF105991041051008001001011MA1999999100671MD1999999+0231REMSYN017333   58023 69941
0115832290999991987041800004-13017-038517FM-12+005199999V0200901N00151220001CN9999999N9+02501+02381101361ADDAA106000091AG10001GF104991999999008001999999KA1240M+03041MA1999999100771MD1999999+0021REMSYN017333   10304 58002
0132832290999991987041812004-13017-038517FM-12+005199999V0201401N00101220001CN0100001N9+02821+02311101551ADDAA124000491AA299000591AG10999GF104991021021008001031001KA1240N+02501MA1999999100961MD1999999+0101REMSYN023333   20250 58010 69944
0096832290999991987041818004-13017-038517FM-12+005199999V0200901N00151220001CN0100001N9+02911+02201101291ADDAA106000091AG10999GF104991011011008001001021MA1999999100691MD1999999+0021REMSYN011333   58002
0143832290999991987041912004-13017-038517FM-12+005199999V0201801N00151007501CN0040001N9+02701+02411101451ADDAA124003091AG10999AY111061AY261061GF106991061051008001001001KA1240N+02361MA1999999100861MD1999999-0101MW1531REMSYN023333   20236 59010 60034
0137832290999991987041918004-13017-038517FM-12+005199999V0200501N00511007501CN0020001N9+02731+02261101191ADDAA106999999AG10999AY161061AY221061GF108991061071008001051999MA1999999100601MD1999999-0091MW1531REMSYN011333   59009EQDQ01  00002PRCP06
0132832290999991987042012004-13017-038517FM-12+005199999V0201801N00101220001CN0200001N9+02831+01151101481ADDAA124000291AA299000391AG10999GF104991031021008001001011KA1240N+02601MA1999999100891MD1999999+0031REMSYN023333   20260 58003 69924
0096832290999991987042018004-13017-038517FM-12+005199999V0200901N00101045001CN0200001N9+02941+02191101181ADDAA106000091AG10999GF105991021021008001011001MA1999999100601MD1999999+0001REMSYN011333   58000
0101832290999991987042100004-13017-038517FM-12+005199999V0200901N00151220001CN9999999N9+02621+02161101361ADDAA106000091AG10999GF103991021011008001021001KA1240M+03041MA1999999100771REMSYN017333   10304 580//
0115832290999991987042112004-13017-038517FM-12+005199999V0200901N00151220001CN0100001N9+02851+02171101281ADDAA106000091AG10999GF104991041021008001001001KA1240N+02351MA1999999100681MD1999999-0211REMSYN017333   20235 59021
0096832290999991987042118004-13017-038517FM-12+005199999V0201401N00151220001CN0200001N9+02911+02271101111ADDAA106000091AG10999GF102991021021008001001001MA1999999100521MD1999999-0081REMSYN011333   59008
0115832290999991987042200004-13017-038517FM-12+005199999V0200501N00151220001CN9999999N9+02711+02221101331ADDAA106000091AG10001GF103991031021008001001001KA1240M+03031MA1999999100741MD1999999-0031REMSYN017333   10303 59003
0143832290999991987042212004-13017-038517FM-12+005199999V0201401N00151007501CN0040001N9+02731+02341101371ADDAA124004091AG10999AY161061AY211061GF106991061041008001001001KA1240N+02341MA1999999100771MD1999999+0091MW1031REMSYN023333   20234 58009 60044
0096832290999991987042218004-13017-038517FM-12+005199999V0200901N00261007501CN0100001N9+02801+02311101061ADDAA106000091AG10999GF106991051071008001061001MA1999999100471MD1999999-0051REMSYN011333   59005
0115832290999991987042300004-13017-038517FM-12+005199999V0201401N00211045001CN9999999N9+02631+02351101281ADDAA106000091AG10999GF106991041051008001031001KA1240M+03001MA1999999100681MD1999999-0061REMSYN017333   10300 59006
0115832290999991987042312004-13017-038517FM-12+005199999V0201801N00101220001CN0200001N9+02891+02211101321ADDAA106000091AG10001GF102991021021008001001001KA1240N+02061MA1999999100731MD1999999-0041REMSYN017333   20206 59004
0115832290999991987042400004-13017-038517FM-12+005199999V0201401N00151220001CN9999999N9+02601+02191101161ADDAA106000091AG10999GF103991021011008001001021KA1240M+03001MA1999999100571MD1999999-0111REMSYN017333   10300 59011
0115832290999991987042412004-13017-038517FM-12+005199999V0200501N00151007501CN0100001N9+02841+02221101081ADDAA106000091AG10999GF105991051021008001001001KA1240N+02441MA1999999100491MD1999999-0241REMSYN017333   20244 59024
0096832290999991987042518004-13017-038517FM-12+005199999V0201401N00101007501CN0100001N9+02981+02351100711ADDAA106000091AG10999GF105991051051008001001001MA1999999100131MD1999999+0011REMSYN011333   58001
0137832290999991987042600004-13017-038517FM-12+005199999V0201401N00101045001CN9999999N9+02661+02461101101ADDAA106000091AG10999AY121061AY211061GF105991021041008001011001KA1240M+03041MA1999999100511MD1999999+0271MW1141REMSYN017333   10304 58027
0143832290999991987042612004-13017-038517FM-12+005199999V0202301N00151220001CN0100001N9+02671+02331101111ADDAA124023091AG10999AY161061AY201061GF101991011021008001001001KA1240N+02501MA1999999100521MD1999999+0051MW1021REMSYN023333   20250 58005 60234
0096832290999991987042618004-13017-038517FM-12+005199999V0200901N00101007501CN0100001N9+02761+02281100881ADDAA106000091AG10999GF105991051041008001001001MA1999999100301MD1999999+0171REMSYN011333   58017
0143832290999991987042700004-13017-038517FM-12+005199999V0201401N001519999999N9999999N9+02531+02381101061ADDAA106001091AG10999AY161061AY221061GF108991999999008001999999KA1240M+02801MA1999999100461MD1999999-0051MW1021REMSYN023333   10280 59005 60011
0143832290999991987042712004-13017-038517FM-12+005199999V0200501N00151045001CN0020001N9+02541+02351101181ADDAA124037091AG10999AY191061AY261061GF107991011051008001031001KA1240N+02251MA1999999100591MD1999999+0071MW1531REMSYN023333   20225 58007 60374
0107832290999991987042718004-13017-038517FM-12+005199999V0200901N00101045001CN0100001N9+02801+02421100831ADDAG10999AY131061AY231061GF107991021041004501021001MA1999999100241MD1999999-0061MW1121REMSYN011333   59006
0115832290999991987042800004-13017-038517FM-12+005199999V0200901N00101220001CN9999999N9+02601+02461101201ADDAA106000091AG10999GF103991021011008001021001KA1240M+02931MA1999999100611MD1999999+0101REMSYN017333   10293 58010
0171832290999991987042812004-13017-038517FM-12+005199999V0201801N001019999999N0040001N9+02431+02171101591ADDAA124013091AG10999AY161061AY221061GF108991041071008001999999KA1240N+02321MA1999999100991MD1999999+0401ME1100599MW1531REMSYN023333   20232 58040 60134EQDQ01+999990APOSLP
0124832290999991987042818004-13017-038517FM-12+005199999V0200901N00151045001CN0100001N9+02601+02351101271ADDAA106001091AG10999AY161061AY261061GF106991041051008001011001MA1999999100681MD1999999+0441MW1021REMSYN017333   58044 60011
0115832290999991987042900004-13017-038517FM-12+005199999V0200901N00101220001CN9999999N9+02561+02211101411ADDAA106000091AG10999GF103991021011008001031001KA1240M+02661MA1999999100811MD1999999+0201REMSYN017333   10266 58020
0143832290999991987042912004-13017-038517FM-12+005199999V0201801N004119999999N0100001N9+02511+02311101551ADDAA124005091AG10999AY161061AY211061GF107991041051008001999999KA1240N+02461MA1999999100951MD1999999-0041MW1031REMSYN023333   20246 59004 60054
0135832290999991987042918004-13017-038517FM-12+005199999V0201801N00151007501CN0100001N9+02661+02311101141ADDAA106000791AA299001091AG10999AY151061AY261061GF105991051051008001001001MA1999999100551MD1999999-0131MW1021REMSYN017333   59013 69971
0143832290999991987043000004-13017-038517FM-12+005199999V0201801N00101220001CN9999999N9+02421+02371101411ADDAA106013091AG10999AY161061AY261061GF103991021021008001011001KA1240M+02761MA1999999100811MD1999999+0001MW1021REMSYN023333   10276 58000 60131
0143832290999991987043012004-13017-038517FM-12+005199999V0201401N004119999999N0040001N9+02401+02381101291ADDAA124034091AG10999AY161061AY211061GF108991041071008001999999KA1240N+02401MA1999999100691MD1999999-0271MW1031REMSYN023333   20240 59027 60344
0124832290999991987043018004-13017-038517FM-12+005199999V0201801N00151045001CN0040001N9+02501+02401101051ADDAA106003091AG10999AY131061AY261061GF108991021071008001021999MA1999999100451MD1999999-0101MW1611REMSYN017333   59010 60031
0115832290999991987050100004-13017-038517FM-12+005199999V0201801N00151007501CN9999999N9+02521+02361101151ADDAA106000091AG10001GF107991071071008001001001KA1240M+02701MA1999999100551MD1999999+0261REMSYN017333   10270 58026
0121832290999991987050112004-13017-038517FM-12+005199999V0202301N00151045001CN0040001N9+02561+02231101131ADDAA124003091AG10999GF106991021041008001031001KA1240N+02441MA1999999100531MD1999999-0161REMSYN023333   20244 59016 60034
0096832290999991987050118004-13017-038517FM-12+005199999V0201401N00151220001CN0200001N9+02701+02281100751ADDAA106000091AG10999GF102991011011008001011001MA1999999100181MD1999999-0271REMSYN011333   59027
0115832290999991987050200004-13017-038517FM-12+005199999V0201401N00101220001CN9999999N9+02561+02351100871ADDAA106000091AG10999GF102991021021008001001001KA1240M+02761MA1999999100271MD1999999-0281REMSYN017333   10276 59028
0121832290999991987050212004-13017-038517FM-12+005199999V0202301N00151045001CN0040001N9+02671+02391101031ADDAA124000391AG10999GF107991041051008001031001KA1240N+02601MA1999999100441MD1999999-0091REMSYN023333   20260 59009 69934
0096832290999991987050218004-13017-038517FM-12+005199999V0200901N00311007501CN0020001N9+02741+02431100721ADDAA106000091AG10999GF106991061051008001001001MA1999999100131MD1999999-0051REMSYN011333   59005
0115832290999991987050300004-13017-038517FM-12+005199999V0200901N00211220001CN9999999N9+02531+02331100891ADDAA106000091AG10999GF103991021021008001031001KA1240M+02811MA1999999100301MD1999999+0031REMSYN017333   10281 58003
0115832290999991987050312004-13017-038517FM-12+005199999V0203201N00151012001CN0100001N9+02721+02411101091ADDAA106000091AG10999GF105991051081008001001001KA1240N+02481MA1999999100491MD1999999+0051REMSYN017333   20248 58005
0096832290999991987050318004-13017-038517FM-12+005199999V0201401N00151220001CN0100001N9+02911+02411100761ADDAA106000091AG10999GF101991011021008001001001MA1999999100161MD1999999+0031REMSYN011333   58003
0115832290999991987050400004-13017-038517FM-12+005199999V0200501N00151045001CN9999999N9+02631+02411100871ADDAA106000091AG10999GF105991011021008001051001KA1240M+02761MA1999999100271MD1999999-0031REMSYN017333   10276 59003
0143832290999991987050412004-13017-038517FM-12+005199999V0202301N00151004201CN0010001N9+02461+02411101261ADDAA124005091AG10999AY191061AY261061GF108991081071004501999999KA1240N+02461MA1999999100661MD1999999+0171MW1631REMSYN023333   20246 58017 60054
0134832290999991987050500004-13017-038517FM-12+005199999V0201401N002119999999N9999999N9+02871+02421101351ADDAA106000091AG10999GF107991999041008001001001KA1240M+02921MA1999999100271MD1999999+0481REMSYN017333   10292 58048EQDQ01+000042SCOTLC
0138832290999991987050512004-13017-038517FM-12+005199999V0203601N00101220001CN0100001N9+02831+02381101441ADDAA106000091AA224004091AG10999GF104991999021008001001001MA1999999100851MD1999999+0191REMSYN023333   20/// 58019 60044EQDQ01+000032SCOTLC
0096832290999991987050518004-13017-038517FM-12+005199999V0201401N00101220001CN0200001N9+02931+02411100991ADDAA106000091AG10999GF101991011011008001001001MA1999999100411MD1999999+0141REMSYN011333   58014
0115832290999991987050612004-13017-038517FM-12+005199999V0201801N00151007501CN0100001N9+02731+02391101291ADDAA106000091AG10999GF105991051051008001001001KA1240N+02681MA1999999100701MD1999999-0151REMSYN017333   20268 59015
0096832290999991987050618004-13017-038517FM-12+005199999V0200501N00151045001CN0100001N9+02791+02231101081ADDAA106000091AG10999GF107991031051008001031011MA1999999100471MD1999999+0081REMSYN011333   58008
0095832290999991987050700004-13017-038517FM-12+005199999V0201401N00151045001CN9999999N9+02511+02271101201ADDAA106000091AG10999GF106991031041008001051001KA1240M+03061MA1999999100611REMSYN011333   10306
0115832290999991987050718004-13017-038517FM-12+005199999V0200901N00211220001CN0040001N9+02871+02311100931ADDAA106000091AG10001GF101991001001999999001021MA1999999100341MD1999999-0151REMSYN011333   59015EQDQ01+000952SCOLCB
0115832290999991987050800004-13017-038517FM-12+005199999V0200901N00151220001CN9999999N9+02541+02191101181ADDAA106000091AG10999GF101991011011008001001001KA1240M+02941MA1999999100591MD1999999-0021REMSYN017333   10294 59002
0121832290999991987050812004-13017-038517FM-12+005199999V0202301N00101045001CN0100001N9+02701+02451101561ADDAA124000191AG10001GF105991021021008001031001KA1240N+02401MA1999999100781MD1999999+0171REMSYN023333   20240 58017 69914
0134832290999991987050912004-13017-038517FM-12+005199999V0203601N001019999999N0200001N9+02751+02401101451ADDAA106000091AG10999GF105991999031008001001001KA1240N+02321MA1999999100811MD1999999+0031REMSYN017333   20232 58003EQDQ01+000042SCOTLC
0096832290999991987050918004-13017-038517FM-12+005199999V0201801N00101220001CN0100001N9+02891+02371100971ADDAA106000091AG10999GF101991011011004501001001MA1999999100971MD1999999-0051REMSYN011333   59005
0115832290999991987051000004-13017-038517FM-12+005199999V0200501N00151220001CN9999999N9+02551+02331101191ADDAA106000091AG10999GF101991011011008001001001KA1240M+03041MA1999999100601MD1999999+0091REMSYN017333   10304 58009
0134832290999991987051012004-13017-038517FM-12+005199999V0201801N00101220001CN0200001N9+02831+02381101581ADDAA106000091AG10999GF104991999021008001001001KA1240N+02461MA1999999100991MD1999999+0181REMSYN017333   20246 58018EQDQ01+000022SCOTLC
0076832290999991987051018004-13017-038517FM-12+005199999V0201401N00101220001CN0200001N9+02911+02321101271ADDAA106000091AG10999GF100991001001999999001001MA1999999100681MD1810301+9999
0115832290999991987051100004-13017-038517FM-12+005199999V0201401N00101220001CN9999999N9+02581+02191101581ADDAA106000091AG10999GF103991031031008001001001KA1240M+03001MA1999999100991MD1999999+0391REMSYN017333   10300 58039
0143832290999991987051212004-13017-038517FM-12+005199999V0200901N00101007501CN0100001N9+02611+02401101531ADDAA124004091AG10999AY161061AY221061GF106991061051008001001001KA1240N+02361MA1999999100931MD1999999-0101MW1021REMSYN023333   20236 59010 60044
0102832290999991987051218004-13017-038517FM-12+005199999V0200901N00151220001CN0200001N9+02861+02371101281ADDAA106000191AG10999GF103991031021008001001001MA1999999100701MD1999999-0011REMSYN017333   59001 69911
0115832290999991987051300004-13017-038517FM-12+005199999V0200901N00101220001CN9999999N9+02581+02151101431ADDAA106000091AG10999GF103991021011008001011001KA1240M+02961MA1999999100851MD1999999+0001REMSYN017333   10296 58000
0121832290999991987051312004-13017-038517FM-12+005199999V0201801N00151007501CN0100001N9+02641+02411101401ADDAA124000191AG10001GF107991071051008001001001KA1240N+02501MA1999999100811MD1999999-0121REMSYN023333   20250 59012 69914
0096832290999991987051318004-13017-038517FM-12+005199999V0201401N00151007501CN0100001N9+02671+02331101081ADDAA106000091AG10999GF106991061051008001001001MA1999999100491MD1999999-0211REMSYN011333   59021
0121832290999991987051412004-13017-038517FM-12+005199999V0201401N00311220001CN0100001N9+02871+02321101301ADDAA124000391AG10999GF103991031041008001001001KA1240N+02701MA1999999100711MD1999999-0101REMSYN023333   20270 59010 69934
0096832290999991987051418004-13017-038517FM-12+005199999V0200901N00151220001CN0200001N9+02901+02221100961ADDAA106000091AG10999GF102991021011008001001001MA1999999100381MD1999999-0111REMSYN011333   59011
0115832290999991987051500004-13017-038517FM-12+005199999V0200901N00151220001CN9999999N9+02581+02191101291ADDAA106000091AG10999GF101991011011008001001001KA1240M+03041MA1999999100691MD1999999+0091REMSYN017333   10304 58009
0115832290999991987051512004-13017-038517FM-12+005199999V0200901N00151045001CN0100001N9+02791+02251101121ADDAA106000091AG10999GF107991041051008001051001KA1240N+02501MA1999999100531MD1999999-0181REMSYN017333   20250 59018
0096832290999991987051518004-13017-038517FM-12+005199999V0201401N00151220001CN0100001N9+02861+02311100861ADDAA106000091AG10999GF102991011011008001001021MA1999999100271MD1999999-0111REMSYN011333   59011
0115832290999991987051600004-13017-038517FM-12+005199999V0201401N00151045001CN9999999N9+02571+02131100971ADDAA106000091AG10999GF107991011021008001051001KA1240M+02961MA1999999100381MD1999999-0311REMSYN017333   10296 59031
0143832290999991987051612004-13017-038517FM-12+005199999V0201401N00151045001CN0040001N9+02731+02481101201ADDAA124005091AG10999AY161061AY221061GF106991031021008001051001KA1240N+02411MA1999999100611MD1999999+0081MW1021REMSYN023333   20241 58008 60054
0124832290999991987051618004-13017-038517FM-12+005199999V0200501N00151007501CN0040001N9+02621+02441100951ADDAA106002091AG10999AY161061AY221061GF108991081071008001999999MA1999999100361MD1999999+0091MW1021REMSYN017333   58009 60021
0134832290999991987051700004-13017-038517FM-12+005199999V0201401N000519999999N9999999N9+02611+02441101091ADDAA106000091AG10999GF107991999031008001001001KA1240M+02871MA1999999100501MD1999999+0121REMSYN017333   10287 58012EQDQ01+000042SCOTLC
0143832290999991987051712004-13017-038517FM-12+005199999V0201401N00151220001CN0100001N9+02781+02341101281ADDAA124003091AG10999AY151061AY221061GF104991041021008001001001KA1240N+02581MA1999999100691MD1999999+0171MW1021REMSYN023333   20258 58017 60034
0124832290999991987051718004-13017-038517FM-12+005199999V0200901N00101007501CN0100001N9+02711+02481101011ADDAA106011091AG10999AY161061AY221061GF105991051051008001001001MA1999999100421MD1999999+0061MW1021REMSYN017333   58006 60111
0143832290999991987051800004-13017-038517FM-12+005199999V0201401N00151045001CN9999999N9+02441+02281101221ADDAA106030091AG10999AY161061AY221061GF105991031041008001051001KA1240M+02941MA1999999100631MD1999999+0131MW1021REMSYN023333   10294 58013 60301
0143832290999991987051812004-13017-038517FM-12+005199999V0201401N00311004201CN0010001N9+02491+02271101381ADDAA124046091AG10999AY161061AY261061GF108991081071004501999999KA1240N+02481MA1999999100791MD1999999+0101MW1531REMSYN023333   20248 58010 60464
0102832290999991987051818004-13017-038517FM-12+005199999V0201801N00101007501CN0100001N9+02611+02311101141ADDAA106002091AG10999GF107991071071008001001001MA1999999100541MD1999999+0121REMSYN017333   58012 60021
0115832290999991987051900004-13017-038517FM-12+005199999V0201801N00151220001CN9999999N9+02501+02321101301ADDAA106000091AG10999GF103991021011008001021001KA1240M+02701MA1999999100701MD1999999+0071REMSYN017333   10270 58007
0096832290999991987051918004-13017-038517FM-12+005199999V0201801N00151220001CN0200001N9+02671+02241100861ADDAA106000091AG10999GF101991011021008001001001MA1999999100271MD1999999-0271REMSYN011333   59027
0115832290999991987052000004-13017-038517FM-12+005199999V0201801N00151220001CN9999999N9+02541+02251100951ADDAA106000091AG10999GF102991021011008001001001KA1240M+02781MA1999999100361MD1999999-0341REMSYN017333   10278 59034
0115832290999991987052012004-13017-038517FM-12+005199999V0200301N00101007501CN0200001N9+02571+02401101081ADDAA106000091AG10999GF106991061051008001001001KA1240N+02541MA1999999100491MD1999999-0141REMSYN017333   20254 59014
0115832290999991987052112004-13017-038517FM-12+005199999V0203601N00211007501CN0040001N9+02771+02461101051ADDAA106000091AG10999GF105991051041008001001001KA1240N+02441MA1999999100461MD1999999-0031REMSYN017333   20244 59003
0096832290999991987052118004-13017-038517FM-12+005199999V0200501N00101220001CN0100001N9+02851+02421100711ADDAA106000091AG10999GF104991041021008001001001MA1999999100121MD1999999-0031REMSYN011333   59003
0101832290999991987052200004-13017-038517FM-12+005199999V0200901N00151220001CN9999999N9+02601+02391100981ADDAA106000091AG10001GF102991021011008001001001KA1240M+02991MA1999999100381REMSYN017333   10299 580//
0115832290999991987052212004-13017-038517FM-12+005199999V0203601N00101220001CN0100001N9+02741+02401101121ADDAA106000091AG10999GF103991031021008001001001KA1240N+02471MA1999999100531MD1999999+0071REMSYN017333   20247 58007
0096832290999991987052218004-13017-038517FM-12+005199999V0202701N00101220001CN0200001N9+02981+02531100871ADDAA106000091AG10999GF104991021011008001031001MA1999999100291MD1999999+0171REMSYN011333   58017
0115832290999991987052300004-13017-038517FM-12+005199999V0200901N00101220001CN9999999N9+02621+02461101051ADDAA106000091AG10001GF101991011011008001001001KA1240M+03041MA1999999100461MD1999999+0081REMSYN017333   10304 58008
0115832290999991987052312004-13017-038517FM-12+005199999V0200501N00151007501CN0100001N9+02841+02331101241ADDAA106000091AG10999GF105991051021008001001001KA1240N+02461MA1999999100651MD1999999+0121REMSYN017333   20246 58012
0096832290999991987052318004-13017-038517FM-12+005199999V0200901N00151220001CN0200001N9+02921+02361100961ADDAA106000091AG10999GF101991011011008001001001MA1999999100371MD1999999+0081REMSYN011333   58008
0115832290999991987052400004-13017-038517FM-12+005199999V0201401N00151007501CN9999999N9+02601+02331101211ADDAA106000091AG10999GF106991061051008001001001KA1240M+03001MA1999999100621MD1999999+0161REMSYN017333   10300 58016
0143832290999991987052412004-13017-038517FM-12+005199999V0201401N00151045001CN0040001N9+02621+02461101431ADDAA124008091AG10999AY151061AY261061GF106991041051008001011001KA1240N+02301MA1999999100841MD1999999+0191MW1031REMSYN023333   20230 58019 60084
0096832290999991987052418004-13017-038517FM-12+005199999V0200901N00151007501CN0100001N9+02921+02341101081ADDAA106000091AG10999GF105991051021008001001001MA1999999100501MD1999999+0131REMSYN011333   58013
0143832290999991987052512004-13017-038517FM-12+005199999V0200901N00151220001CN0100001N9+02661+02371100871ADDAA124001091AG10999AY121061AY261061GF103991031041008001001001KA1240N+02461MA1999999100281MD1999999-0561MW1021REMSYN023333   20246 59056 60014
0096832290999991987052518004-13017-038517FM-12+005199999V0201401N00151220001CN0200001N9+02791+02341101151ADDAA106000091AG10999GF102991011011008001001021MA1999999100561MD1999999+0061REMSYN011333   58006
0115832290999991987052600004-13017-038517FM-12+005199999V0201401N00151220001CN9999999N9+02601+02101101481ADDAA106000091AG10999GF100991001001999999001001KA1240M+02841MA1999999100891MD1999999+0241REMSYN017333   10284 58024
0143832290999991987052612004-13017-038517FM-12+005199999V0203601N00151004201CN0040001N9+02381+02351101691ADDAA124008091AG10999AY161061AY231061GF108991081071004501999999KA1240N+02281MA1999999101091MD1999999+0091MW1621REMSYN023333   20228 58009 60084
0124832290999991987052618004-13017-038517FM-12+005199999V0201801N00151007501CN0040001N9+02401+02371101421ADDAA106065091AG10999AY161061AY261061GF108991081071008001999999MA1999999100821MD1999999+0061MW1601REMSYN017333   58006 60651
0143832290999991987052700004-13017-038517FM-12+005199999V0201801N00211007501CN9999999N9+02501+02381101581ADDAA106007091AG10999AY161061AY261061GF106991061061008001001001KA1240M+02601MA1999999100981MD1999999+0091MW1021REMSYN023333   10260 58009 60071
0143832290999991987052712004-13017-038517FM-12+005199999V0201801N00311007501CN0040001N9+02461+02341101741ADDAA124100091AG10999AY161061AY221061GF106991061051008001001001KA1240N+02421MA1999999101141MD1999999+0051MW1021REMSYN023333   20242 58005 61004
0124832290999991987052718004-13017-038517FM-12+005199999V0201801N00211007501CN0040001N9+02511+02211101521ADDAA106002091AG10999AY161061AY221061GF108991081071008001999999MA1999999100921MD1999999+0101MW1511REMSYN017333   58010 60021
0143832290999991987052800004-13017-038517FM-12+005199999V0200901N00211045001CN9999999N9+02451+02031101691ADDAA106002091AG10999AY161061AY221061GF106991021041008001051001KA1240M+02631MA1999999101091MD1999999+0111MW1021REMSYN023333   10263 58011 60021
0096832290999991987052818004-13017-038517FM-12+005199999V0201401N00151220001CN0200001N9+02741+01951101641ADDAA106000091AG10999GF103991031021008001001001MA1999999101051MD1999999+0131REMSYN011333   58013
0115832290999991987052900004-13017-038517FM-12+005199999V0201401N00151220001CN9999999N9+02461+01811101761ADDAA106000091AG10999GF101991011011008001001001KA1240M+02781MA1999999101161MD1999999+0071REMSYN017333   10278 58007
0115832290999991987052912004-13017-038517FM-12+005199999V0202301N00101007501CN0040001N9+02681+02331101811ADDAA106000091AG10999GF106991061051008001001001KA1240N+02451MA1999999101211MD1999999-0141REMSYN017333   20245 59014
0096832290999991987052918004-13017-038517FM-12+005199999V0201401N00101220001CN0200001N9+02701+01911101471ADDAA106000091AG10999GF101991011011008001001001MA1999999100871MD1999999-0181REMSYN011333   59018
0115832290999991987053000004-13017-038517FM-12+005199999V0200901N00151220001CN9999999N9+02341+01831101641ADDAA106000091AG10999GF100991001001999999001001KA1240M+02781MA1999999101041MD1999999-0121REMSYN017333   10278 59012
0115832290999991987053012004-13017-038517FM-12+005199999V0203601N00101220001CN0200001N9+02561+02191101611ADDAA106000091AG10999GF101991011011008001001001KA1240N+02151MA1999999101001MD1999999-0211REMSYN017333   20215 59021
0096832290999991987053018004-13017-038517FM-12+005199999V0203601N00101220001CN0200001N9+02931+01421101441ADDAA106000091AG10999GF100991001001999999001001MA1999999100851MD1999999-0021REMSYN011333   59002
0115832290999991987053100004-13017-038517FM-12+005199999V0201401N00101220001CN9999999N9+02401+01891101641ADDAA106000091AG10999GF100991001001999999001001KA1240M+02961MA1999999101041MD1999999+0001REMSYN017333   10296 58000
0143832290999991987053112004-13017-038517FM-12+005199999V0201801N00311007501CN0020001N9+02561+02131101641ADDAA124018091AG10999AY161061AY221061GF108991081071008001999999KA1240N+02381MA1999999101041MD1999999+0041MW1021REMSYN023333   20238 58004 60184
0135832290999991987053118004-13017-038517FM-12+005199999V0201801N00261007501CN0020001N9+02561+02191101401ADDAA106000491AA299000591AG10999AY151061AY221061GF108991081071008001999999MA1999999100801MD1999999-0051MW1021REMSYN017333   59005 69941
0115832290999991987060100004-13017-038517FM-12+005199999V0201401N00151220001CN9999999N9+02511+02001101501ADDAA106000091AG10999GF101991011011008001001001KA1240M+02961MA1999999100901MD1999999-0141REMSYN017333   10296 59014
0154832290999991987060112004-13017-038517FM-12+005199999V0202301N00261004201CN0020001N9+02531+02191101601ADDAA124000491AA299000591AG10999AY161061AY201061GF105991051051004501001001KA1240N+02261MA1999999101011MD1999999-0031MW1531REMSYN023333   20226 59003 69944
0143832290999991987060118004-13017-038517FM-12+005199999V0201801N00101220001CN0100001N9+02861+02241101581ADDAA106003091AG10999AY121061AY261061GF104991999021008001001001MA1999999100991MD1999999-0051MW1011REMSYN017333   59005 60031EQDQ01+000032SCOTLC
0134832290999991987060200004-13017-038517FM-12+005199999V0201801N00151220001CN9999999N9+02401+01811101581ADDAA106000091AG10999GF104991999021008001001001KA1240M+02921MA1999999100981MD1999999-0051REMSYN017333   10292 59005EQDQ01+000032SCOTLC
0121832290999991987060212004-13017-038517FM-12+005199999V0201401N00151220001CN0100001N9+02701+02081101541ADDAA124003091AG10999GF103991031021008001001001KA1240N+02521MA1999999100941MD1999999-0061REMSYN023333   20252 59006 60034
0074832290999991987060218004-13017-038517FM-12+005199999V0201401N00151220001CN0100001N9+02761+02091101341ADDAA106000091AG10999GF103991011021008001001021MA1999999100741REMSYN003333
0115832290999991987060300004-13017-038517FM-12+005199999V0201401N00211220001CN9999999N9+02441+01901101551ADDAA106000091AG10999GF103991031021008001001001KA1240M+02901MA1999999100991MD1999999-0031REMSYN017333   10290 59003
0115832290999991987060312004-13017-038517FM-12+005199999V0201401N00151105001CN0100001N9+02671+01971101541ADDAA106000091AG10999GF106991011021008001001021KA1240N+02601MA1999999100941MD1999999+0001REMSYN017333   20260 58000
0096832290999991987060318004-13017-038517FM-12+005199999V0201401N00151220001CN0200001N9+02741+01641101311ADDAA106000091AG10999GF103991031021008001001001MA1999999100731MD1999999-0011REMSYN011333   59001
0115832290999991987060400004-13017-038517FM-12+005199999V0201401N00101220001CN9999999N9+02461+02111101551ADDAA106000091AG10999GF103991021011008001021001KA1240M+02881MA1999999100951MD1999999+0001REMSYN017333   10288 58000
0115832290999991987060412004-13017-038517FM-12+005199999V0201401N00051220001CN0100001N9+02751+02121101521ADDAA106000091AG10999GF102991021001008001011011KA1240N+02421MA1999999100931MD1999999-0011REMSYN017333   20242 59001
0096832290999991987060418004-13017-038517FM-12+005199999V0201801N00211045001CN0040001N9+02631+02291101231ADDAA106000091AG10999GF107991031021008001051021MA1999999100641MD1999999-0091REMSYN011333   59009
0134832290999991987060500004-13017-038517FM-12+005199999V0201801N001519999999N9999999N9+02461+02461101401ADDAA106000091AG10999GF105991999021008001001001KA1240M+02901MA1999999100801MD1999999-0151REMSYN017333   10290 59015EQDQ01+000022SCOTLC
0143832290999991987060512004-13017-038517FM-12+005199999V0201401N00151007501CN0020001N9+02421+02321101341ADDAA124010091AG10999AY161061AY221061GF108991081071008001999999KA1240N+02391MA1999999100741MD1999999-0191MW1021REMSYN023333   20239 59019 60104
0124832290999991987060518004-13017-038517FM-12+005199999V0201801N00151007501CN0100001N9+02721+02281101241ADDAA106005091AG10999AY161061AY231061GF105991051021008001001001MA1999999100651MD1999999+0011MW1011REMSYN017333   58001 60051
0115832290999991987060600004-13017-038517FM-12+005199999V0201401N00101220001CN9999999N9+02521+02341101331ADDAA106000091AG10999GF102991021011008001001001KA1240M+02801MA1999999100731MD1999999-0071REMSYN017333   10280 59007
0143832290999991987060612004-13017-038517FM-12+005199999V0200201N00211220001CN0200001N9+02751+02211101321ADDAA124007091AG10999AY161061AY221061GF101991011021008001001001KA1240N+02431MA1999999100721MD1999999-0021MW1021REMSYN023333   20243 59002 60074
0096832290999991987060618004-13017-038517FM-12+005199999V0200901N00151220001CN0200001N9+02851+02141101101ADDAA106000091AG10999GF101991011011008001001001MA1999999100511MD1999999-0141REMSYN011333   59014
0115832290999991987060712004-13017-038517FM-12+005199999V0200901N00101220001CN0200001N9+02801+02111101631ADDAA106000091AG10999GF101991011011008001001001KA1240N+02381MA1999999101051MD1999999+0331REMSYN017333   20238 58033
0096832290999991987060718004-13017-038517FM-12+005199999V0201401N00151220001CN0100001N9+02801+02381101371ADDAA106000091AG10999GF104991011011008001001021MA1999999100771MD1999999+0261REMSYN011333   58026
0134832290999991987060800004-13017-038517FM-12+005199999V0201401N00151220001CN9999999N9+02541+02061101541ADDAA106000091AG10999GF101991011011008001001001KA1240N+99999MA1999999100941MD1999999+0231REMSYN017333   20292 58023EQDQ01 +02922ATMN  
0143832290999991987060812004-13017-038517FM-12+005199999V0201401N00151007501CN0040001N9+02491+02191101741ADDAA124000391AG10999AY151061AY201061GF107991071071008001001001KA1240N+02511MA1999999101141MD1999999+0091MW1531REMSYN023333   20251 58009 69934
0096832290999991987060818004-13017-038517FM-12+005199999V0201401N00151220001CN0200001N9+02781+01961101501ADDAA106000091AG10999GF103991021011008001031001MA1999999100911MD1999999+0141REMSYN011333   58014
0115832290999991987060900004-13017-038517FM-12+005199999V0201401N00101220001CN9999999N9+02581+02211101651ADDAA106000091AG10999GF102991021011008001001001KA1240M+02861MA1999999101061MD1999999+0121REMSYN017333   10286 58012
0121832290999991987060912004-13017-038517FM-12+005199999V0201801N00151045001CN0100001N9+02561+02111101581ADDAA124001091AG10999GF105991021031008001011001KA1240N+02301MA1999999100991MD1999999-0151REMSYN023333   20230 59015 60014
0118832290999991987060918004-13017-038517FM-12+005199999V0201801N00411045001CN0100001N9+02641+02331101421ADDAA106000091AG10999AY131061AY221061GF106991021041008001021001MA1999999100831MD1999999-0081MW1141REMSYN011333   59008
0121832290999991987061000004-13017-038517FM-12+005199999V0201801N00101007501CN9999999N9+02501+02151101511ADDAA106002091AG10999GF105991051041008001001011KA1240M+02841MA1999999100911MD1999999-0151REMSYN023333   10284 59015 60021
0124832290999991987061018004-13017-038517FM-12+005199999V0201801N00151007501CN0020001N9+02451+02301101191ADDAA106001091AG10999AY161061AY221061GF108991081071008001999999MA1999999100591MD1999999-0241MW1611REMSYN017333   59024 60011
0121832290999991987061100004-13017-038517FM-12+005199999V0201801N00101007501CN9999999N9+02321+02161101441ADDAA106002091AG10999GF106991061061008001001001KA1240M+02861MA1999999100841MD1999999-0071REMSYN023333   10286 59007 60021
0123832290999991987061112004-13017-038517FM-12+005199999V0200901N00101007501CN0020001N9+02411+02231101521ADDAA124022091AG10999AY161061AY261061GF108991081071008001999999KA1240N+02301MA1999999100931MW1531REMSYN017333   20230 60224
0143832290999991987061212004-13017-038517FM-12+005199999V0202301N00151012001CN0040001N9+02391+02291101531ADDAA124025091AG10999AY161061AY221061GF107991071081008001001001KA1240N+02321MA1999999100931MD1999999+0001MW1021REMSYN023333   20232 58000 60254
0096832290999991987061218004-13017-038517FM-12+005199999V0201801N00151105001CN0100001N9+02591+02311101391ADDAA106000091AG10999GF106991031021008001001021MA1999999100791MD1999999+0101REMSYN011333   58010
0124832290999991987061318004-13017-038517FM-12+005199999V0201401N00151220001CN0100001N9+02711+02141101331ADDAA106003091AG10999AY161061AY201061GF101991011011008001001001MA1999999100731MD1999999-0061MW1021REMSYN017333   59006 60031
0115832290999991987061400004-13017-038517FM-12+005199999V0201401N00151220001CN9999999N9+02321+02161101521ADDAA106000091AG10999GF103991021011008001031001KA1240M+02821MA1999999100921MD1999999-0091REMSYN017333   10282 59009
0124832290999991987061418004-13017-038517FM-12+005199999V0200901N00151220001CN0100001N9+02751+02191101231ADDAA106003091AG10999AY161061AY201061GF103991031021008001001001MA1999999100641MD1999999-0091MW1021REMSYN017333   59009 60031
0115832290999991987061500004-13017-038517FM-12+005199999V0201401N00151220001CN9999999N9+02531+02191101281ADDAA106000091AG10999GF102991021021008001001001KA1240M+02911MA1999999100681MD1999999-0241REMSYN017333   10291 59024
0121832290999991987061512004-13017-038517FM-12+005199999V0201401N00151220001CN0100001N9+02701+01801101431ADDAA124003091AG10999GF103991031011008001001001KA1240N+02401MA1999999100841MD1999999+0071REMSYN023333   20240 58007 60034
0124832290999991987061518004-13017-038517FM-12+005199999V0201401N00151007501CN0040001N9+02421+02231101271ADDAA106012091AG10999AY131061AY221061GF108991081071008001999999MA1999999100671MD1999999+0031MW1621REMSYN017333   58003 60121
0143832290999991987061600004-13017-038517FM-12+005199999V0201801N00151045001CN9999999N9+02301+02091101391ADDAA106008091AG10999AY161061AY261061GF107991021041004501031001KA1240M+02761MA1999999100781MD1999999+0101MW1621REMSYN023333   10276 58010 60081
0102832290999991987061618004-13017-038517FM-12+005199999V0201801N001519999999N0040001N9+02411+02231101371ADDAA106054091AG10001GF108991021071004501999999MA1999999100771MD1999999+0101REMSYN017333   58010 60541
0129832290999991987061712004-13017-038517FM-12+005199999V0200901N00151004201CN0040001N9+02421+02251101721ADDAA124067091AG10999AY161061AY261061GF107991071071004501001001KA1240N+02241MA1999999101121MW1021REMSYN023333   20224 580// 60674
0096832290999991987061718004-13017-038517FM-12+005199999V0201401N00151045001CN0100001N9+02681+02161101521ADDAA106000091AG10999GF105991021031008001011001MA1999999100931MD1999999+0161REMSYN011333   58016
0101832290999991987061800004-13017-038517FM-12+005199999V0201401N00101009001CN9999999N9+02321+02031101711ADDAA106000091AG10999GF106991061081004501001001KA1240M+02781MA1999999101111REMSYN017333   10278 580//
0096832290999991987061818004-13017-038517FM-12+005199999V0200901N00101220001CN0100001N9+02651+02231101571ADDAA106000091AG10999GF103991031011008001001011MA1999999100971MD1999999+0041REMSYN011333   58004
0121832290999991987061912004-13017-038517FM-12+005199999V0202701N00101220001CN0100001N9+02501+02211101811ADDAA124000391AG10999GF103991021011008001021001KA1240N+02301MA1999999101211MD1999999+0001REMSYN023333   20230 58000 69934
0096832290999991987061918004-13017-038517FM-12+005199999V0201401N00101220001CN0100001N9+02701+02221101461ADDAA106000091AG10999GF103991031021008001001001MA1999999100871MD1999999-0101REMSYN011333   59010
0115832290999991987062000004-13017-038517FM-12+005199999V0201401N00151220001CN9999999N9+02441+02151101601ADDAA106000091AG10999GF102991021011008001001001KA1240M+02761MA1999999101001MD1999999+0111REMSYN017333   10276 58011
0115832290999991987062012004-13017-038517FM-12+005199999V0200901N00151220001CN0200001N9+02621+02051101701ADDAA106000091AG10999GF101991011011008001001001KA1240N+02321MA1999999101111MD1999999-0101REMSYN017333   20232 59010
0096832290999991987062018004-13017-038517FM-12+005199999V0201401N00101220001CN0200001N9+02691+02261101461ADDAA106000091AG10999GF101991011021008001001001MA1999999100871MD1999999+0001REMSYN011333   58000
