0143833390999991987010100004-14050-042617FM-12+088299999V0202301N00361004201CN9999999N9+02061+02011101481ADDAA106001091AG10999AY191061AY261061GF108991061021004501021999KA1240M+02611MA1999999091711MD1999999+0111MW1401REMSYN023333   10261 58011 60011
0143833390999991987010112004-14050-042617FM-12+088299999V0201401N00361004201CN0040001N9+02201+02051101591ADDAA124001091AG10999AY161061AY261061GF106991051021004501021999KA1240N+01891MA1999999091821MD1999999+0201MW1101REMSYN023333   20189 58020 60014
0096833390999991987010118004-14050-042617FM-12+088299999V0201801N00361004201CN0200001N9+02631+01931101341ADDAA106000091AG10999GF105991051021004501001001MA1999999091631MD1999999+0201REMSYN011333   58020
0115833390999991987010200004-14050-042617FM-12+088299999V0201401N00211220001CN9999999N9+02061+01581101451ADDAA106000091AG10999GF100991001001999999001001KA1240M+02081MA1999999091751MD1999999+0041REMSYN017333   10208 58004
0137833390999991987010212004-14050-042617FM-12+088299999V0200901N00671045001CN0200001N9+02181+01901101581ADDAA106000091AG10999AY101061AY201061GF105991041021004501031001KA1240N+01921MA1999999091821MD1999999+0001MW1101REMSYN017333   20192 58000
0096833390999991987010218004-14050-042617FM-12+088299999V0200901N00361220001CN0200001N9+02731+01881101531ADDAA106000091AG10999GF104991041021004501001001MA1999999091531MD1999999-0101REMSYN011333   59010
0154833390999991987010312004-14050-042617FM-12+088299999V0200901N00571004201CN0200001N9+02321+01961101621ADDAA124000491AA299000591AG10999AY161061AY221061GF106991061021004501001001KA1240N+02001MA1999999091881MD1999999+0061MW1021REMSYN023333   20200 58006 69944
0096833390999991987010318004-14050-042617FM-12+088299999V0201401N00511220001CN0200001N9+02751+01591101271ADDAA106000091AG10999GF102991021021004501001001MA1999999091551MD1999999+0021REMSYN011333   58002
0115833390999991987010400004-14050-042617FM-12+088299999V0201401N00261220001CN9999999N9+02371+01801101371ADDAA106000091AG10999GF100991001001999999001001KA1240M+02791MA1999999091601MD1999999+0001REMSYN017333   10279 58000
0115833390999991987010412004-14050-042617FM-12+088299999V0201401N00621004201CN0200001N9+02141+01821101451ADDAA106000091AG10999GF106991061021004501001001KA1240N+01871MA1999999091711MD1999999-0171REMSYN017333   20187 59017
0096833390999991987010418004-14050-042617FM-12+088299999V0201401N00571220001CN0200001N9+02721+01791101051ADDAA106000091AG10999GF104991031021004501001011MA1999999091371MD1999999-0181REMSYN011333   59018
0115833390999991987010500004-14050-042617FM-12+088299999V0201401N00361220001CN9999999N9+02291+01751101241ADDAA106000091AG10999GF100991001001999999001001KA1240M+02771MA1999999091511MD1999999-0091REMSYN017333   10277 59009
0137833390999991987010512004-14050-042617FM-12+088299999V0201401N00411004201CN0200001N9+02161+01971101451ADDAA106000091AG10999AY101061AY201061GF106991061021004501001001KA1240N+01981MA1999999091701MD1999999-0011MW1101REMSYN017333   20198 59001
0096833390999991987010518004-14050-042617FM-12+088299999V0200901N00571220001CN0200001N9+02681+01761101171ADDAA106000091AG10999GF104991041021004501001001MA1999999091371MD1999999+0001REMSYN011333   58000
0115833390999991987010600004-14050-042617FM-12+088299999V0201401N00211220001CN9999999N9+02301+01651101361ADDAA106000091AG10999GF102991021021004501001001KA1240M+02751MA1999999091631MD1999999+0121REMSYN017333   10275 58012
0137833390999991987010612004-14050-042617FM-12+088299999V0201401N00621004201CN0040001N9+99999+99999101381ADDAA106000091AG10999AY101061AY201061GF106991061021004501001001KA1240N+01841MA1999999091681MD1999999-0021MW1101REMSYN017333   20184 59002
0096833390999991987010618004-14050-042617FM-12+088299999V0201401N00311220001CN0200001N9+02801+01351101111ADDAA106000091AG10999GF103991031021004501001001MA1999999091421MD1999999+0051REMSYN011333   58005
0115833390999991987010700004-14050-042617FM-12+088299999V0201401N00411220001CN9999999N9+02411+01311101311ADDAA106000091AG10999GF102991021021004501001001KA1240M+02841MA1999999091581MD1999999-0051REMSYN017333   10284 59005
0096833390999991987010718004-14050-042617FM-12+088299999V0200901N00311105001CN0200001N9+02741+01371101181ADDAA106000091AG10999GF105991041021004501001021MA1999999091471MD1999999+0051REMSYN011333   58005
0115833390999991987010800004-14050-042617FM-12+088299999V0201401N00211220001CN9999999N9+02301+01721101391ADDAA106000091AG10999GF102991021021004501001001KA1240M+02791MA1999999091651MD1999999+0061REMSYN017333   10279 58006
0166833390999991987010906004-14050-042617FM-12+088299999V0201101N00261220001CN0016001N9-02201-02451101471ADDAA106000091AG10999AY111061AY211061GF106991041001999999031011KA1240N-02711MA1999999090061MD1711292+9999MW1101REMSYN011333   21271EQDQ01+999990APOSP Q02+001292APC3  
0115833390999991987011000004-14050-042617FM-12+088299999V0201801N00151220001CN9999999N9+02382+01501101181ADDAA106000091AG10999GF100991001001999999001001KA1240M+02851MA1999999091471MD1999999+0011REMSYN017333   10285 58001
0115833390999991987011012004-14050-042617FM-12+088299999V0201401N00411220001CN0200001N9+02301+01871101281ADDAA106000091AG10999GF100991001001999999001001KA1240N+01661MA1999999091571MD1999999-0071REMSYN017333   20166 59007
0096833390999991987011018004-14050-042617FM-12+088299999V0201401N00211220001CN0200001N9+02941+01661101911ADDAA106000091AG10999GF102991021021004501001001MA1999999091251MD1999999-0101REMSYN011333   59010
0134833390999991987011100004-14050-042617FM-12+088299999V0201401N00361220001CN9999999N9+02471+01221101062ADDAA106000091AG10999GF102991021011004501001001KA1240M+02961MA1999999091381MD1999999-0091REMSYN017333   10296 59009EQDQ01+101063APOSLP
0137833390999991987011112004-14050-042617FM-12+088299999V0200901N00311220001CN0200001N9+02301+02001101401ADDAA106000091AG10999AY101061AY201061GF102991021021004501001001KA1240N+01701MA1999999091691MD1999999+0121MW1101REMSYN017333   20170 58012
0096833390999991987011118004-14050-042617FM-12+088299999V0201801N00261220001CN0200001N9+02941+01511101011ADDAA106000091AG10999GF104991041021004501001001MA1999999091331MD1999999+0081REMSYN011333   58008
0115833390999991987011200004-14050-042617FM-12+088299999V0201801N00151220001CN9999999N9+02481+01491101091ADDAA106000091AG10999GF102991021021004501001001KA1240M+02471MA1999999091401MD1999999+0021REMSYN017333   10247 58002
0096833390999991987011218004-14050-042617FM-12+088299999V0201401N00311220001CN0200001N9+02901+01401101131ADDAA106000091AG10999GF103991031021004501001001MA1999999091461MD1999999+0131REMSYN011333   58013
0096833390999991987011318004-14050-042617FM-12+088299999V0201401N00361220001CN0200001N9+03061+01201101261ADDAA106000091AG10999GF103991031021004501001001MA1999999091491MD1999999+0031REMSYN011333   58003
0096833390999991987011418004-14050-042617FM-12+088299999V0201401N00361004201CN0200001N9+02861+01551101181ADDAA106000091AG10999GF105991051021004501001001MA1999999091501MD1999999+0091REMSYN011333   58009
0115833390999991987011500004-14050-042617FM-12+088299999V0201401N00311220001CN9999999N9+02401+01231101251ADDAA106000091AG10999GF100991001001999999001001KA1240M+02901MA1999999091531MD1999999-0091REMSYN017333   10290 59009
0115833390999991987011512004-14050-042617FM-12+088299999V0201401N00361220001CN0200001N9+02201+01761101391ADDAA106000091AG10999GF102991021021004501001001KA1240N+01761MA1999999091661MD1999999-0161REMSYN017333   20176 59016
0115833390999991987011600004-14050-042617FM-12+088299999V0201801N00051220001CN9999999N9+02341+01331101161ADDAA106000091AG10999GF100991001001999999001001KA1240M+03041MA1999999091431MD1999999-0101REMSYN017333   10304 59010
0115833390999991987011700004-14050-042617FM-12+088299999V0201801N00101004201CN9999999N9+02691+01521100971ADDAA106000091AG10999GF106991051021004501021001KA1240M+03111MA1999999091331MD1999999-0101REMSYN017333   10311 59010
0134833390999991987011712004-14050-042617FM-12+088299999V0200501N001519999999N0200001N9+02481+02071101221ADDAA106000091AG10999GF105991999021004501001001KA1240N+01921MA1999999091471MD1999999-0221REMSYN017333   20192 59022EQDQ01+000042SCOTLC
0124833390999991987011718004-14050-042617FM-12+088299999V0202701N00361004201CN0040001N9+02361+01891100921ADDAA106010091AG10999AY191061AY261061GF106991051051004501031001MA1999999091241MD1999999-0101MW1171REMSYN017333   59010 60101
0154833390999991987011800004-14050-042617FM-12+088299999V0202701N00101220001CN9999999N9+02221+02071101091ADDAA106000891AA299001091AG10999AY161061AY261061GF102991021021004501001001KA1240M+03151MA1999999091401MD1999999+0071MW1101REMSYN023333   10315 58007 69981
0143833390999991987011812004-14050-042617FM-12+088299999V0202301N00051004201CN0040001N9+99999+99999101211ADDAA124011091AG10999AY161061AY261061GF106991051021004501001021KA1240N+01811MA1999999091491MD1999999+0021MW1101REMSYN023333   20181 58002 60114
0135833390999991987011818004-14050-042617FM-12+088299999V0202701N00261004201CN0040001N9+02601+02011100941ADDAA106000691AA299000591AG10999AY191061AY261061GF106991051021004501021001MA1999999091271MD1999999+0031MW1021REMSYN017333   58003 69961
0143833390999991987011912004-14050-042617FM-12+088299999V0200501N00151004201CN0040001N9+02201+01951101361ADDAA124036091AG10999AY161061AY261061GF108991081051004501999999KA1240N+01741MA1999999091591MD1999999+0101MW1101REMSYN023333   20174 58010 60364
0118833390999991987011918004-14050-042617FM-12+088299999V0200901N00151004201CN0200001N9+02451+02171101171ADDAA106000091AG10999AY101061AY201061GF106991051021004501021001MA1999999091441MD1999999+0171MW1101REMSYN011333   58017
0096833390999991987012118004-14050-042617FM-12+088299999V0200901N00311220001CN0200001N9+02581+01821100981ADDAA106000091AG10999GF103991031021004501001001MA1999999091271MD1999999-0021REMSYN011333   59002
0137833390999991987012212004-14050-042617FM-12+088299999V0201401N00261004201CN0200001N9+02071+01981101401ADDAA106000091AG10999AY101061AY201061GF106991051021004501021001KA1240N+01721MA1999999091641MD1999999+0061MW1101REMSYN017333   20172 58006
0115833390999991987012218004-14050-042617FM-12+088299999V0200501N00311220001CN0200001N9+02761+01831100961ADDAA106000091AG10999GF104991031021004501001041MA1999999101272MD1999999+0001REMSYN011333   58000EQDQ01+101273APOSP 
0096833390999991987012318004-14050-042617FM-12+088299999V0202301N00311220001CN0200001N9+02901+01361100931ADDAA106000091AG10999GF102991011021004501001041MA1999999091261MD1999999-0011REMSYN011333   59001
0115833390999991987012400004-14050-042617FM-12+088299999V0201401N00311220001CN9999999N9+02461+01221101031ADDAA106000091AG10999GF100991001001999999001001KA1240M+02931MA1999999091351MD1999999+0031REMSYN017333   10293 58003
0115833390999991987012412004-14050-042617FM-12+088299999V0201401N00261220001CN0200001N9+02371+01871101301ADDAA106000091AG10999GF102991011021004501021001KA1240N+01701MA1999999091601MD1999999+0011REMSYN017333   20170 58001
0096833390999991987012418004-14050-042617FM-12+088299999V0200501N00211004201CN0200001N9+02961+01611100951ADDAA106000091AG10999GF106991051021004501021001MA1999999091311MD1999999-0051REMSYN011333   59005
0115833390999991987012500004-14050-042617FM-12+088299999V0201801N00051220001CN9999999N9+02541+01601101131ADDAA106000091AG10999GF100991001001999999001001KA1240M+03011MA1999999091451MD1999999+0101REMSYN017333   10301 58010
0137833390999991987012512004-14050-042617FM-12+088299999V0203201N00101004201CN0040001N9+02281+02091101321ADDAA106000091AG10999AY101061AY201061GF106991051021004501031001KA1240N+01921MA1999999091621MD1999999+0021MW1101REMSYN017333   20192 58002
0118833390999991987012518004-14050-042617FM-12+088299999V0201801N00151220001CN0200001N9+02951+01941100941ADDAA106000091AG10999AY191061AY261061GF104991041021004501001001MA1999999091311MD1999999+0001MW1021REMSYN011333   58000
0137833390999991987012600004-14050-042617FM-12+088299999V0209991C00001220001CN9999999N9+02301+02131101171ADDAA106000091AG10999AY101061AY201061GF102991021021004501001001KA1240M+02951MA1999999091461MD1999999+0011MW1101REMSYN017333   10295 58001
0154833390999991987012612004-14050-042617FM-12+088299999V0200901N00411220001CN0200001N9+02421+02191101371ADDAA124000491AA299000591AG10999AY161061AY261061GF102991021021004501001001KA1240N+01921MA1999999091651MD1999999+0031MW1101REMSYN023333   20192 58003 69944
0096833390999991987012618004-14050-042617FM-12+088299999V0200501N00361220001CN0200001N9+03041+01661100881ADDAA106000091AG10999GF102991021021004501001001MA1999999091261MD1999999-0051REMSYN011333   59005
0115833390999991987012700004-14050-042617FM-12+088299999V0201401N00101220001CN9999999N9+02491+01271101141ADDAA106000091AG10999GF100991001001999999001001KA1240M+03071MA1999999091461MD1999999+0001REMSYN017333   10307 58000
0137833390999991987012712004-14050-042617FM-12+088299999V0200901N00211045001CN0200001N9+02421+02231101391ADDAA106000091AG10999AY101061AY201061GF105991041021004501021001KA1240N+01811MA1999999091691MD1999999+0041MW1101REMSYN017333   20181 58004
0134833390999991987012800004-14050-042617FM-12+088299999V0201801N00211220001CN9999999N9+02521+01551101261ADDAA106000091AG10999GF100991001001999999001001KA1240M+99999MA1999999091571MD1999999+0111REMSYN017333   10207 58011EQDQ01 +02072ATMX  
0096833390999991987012818004-14050-042617FM-12+088299999V0201401N00461220001CN0200001N9+03001+01411101081ADDAA106000091AG10999GF102991011021004501001021MA1999999091411MD1999999+0021REMSYN011333   58002
0115833390999991987012900004-14050-042617FM-12+088299999V0201801N00411220001CN9999999N9+02441+01271101261ADDAA106000091AG10999GF100991001001999999001001KA1240M+03031MA1999999091561MD1999999-0011REMSYN017333   10303 59001
0115833390999991987013000004-14050-042617FM-12+088299999V0202301N00051220001CN9999999N9+02401+01351101151ADDAA106000091AG10999GF100991001001999999001001KA1240M+03071MA1999999091451MD1999999-0111REMSYN017333   10307 59011
0096833390999991987013018004-14050-042617FM-12+088299999V0209999999999220001CN0200001N9+03041+01571100921ADDAA106000091AG10999GF104991031021004501021001MA1999999091281MD1999999-0171REMSYN011333   59017
0115833390999991987013100004-14050-042617FM-12+088299999V0209999999999220001CN9999999N9+02501+01561101061ADDAA106000091AG10999GF102991021021004501001001KA1240M+03051MA1999999091371MD1999999-0081REMSYN017333   10305 59008
0137833390999991987013112004-14050-042617FM-12+088299999V0200901N00511004201CN0200001N9+02141+01931101411ADDAA106000091AG10001AY101061AY201061GF106991051021004501021001KA1240N+01861MA1999999091681MD1999999+0041MW1101REMSYN017333   20186 58004
0137833390999991987020112004-14050-042617FM-12+088299999V0200501N00361004201CN0200001N9+02141+02031101451ADDAA106000091AG10999AY101061AY201061GF106991051021004501021001KA1240N+01861MA1999999091731MD1999999-0051MW1101REMSYN017333   20186 59005
0096833390999991987020118004-14050-042617FM-12+088299999V0209999999999045001CN0200001N9+02961+01711101071ADDAA106000091AG10999GF105991041021004501041001MA1999999091421MD1999999+0051REMSYN011333   58005
0137833390999991987020212004-14050-042617FM-12+088299999V0200901N00511220001CN0200001N9+02261+02051101461ADDAA106000091AG10999AY101061AY201061GF102991021021004501001001KA1240N+01931MA1999999091751MD1999999+0021MW1101REMSYN017333   20193 58002
0096833390999991987020218004-14050-042617FM-12+088299999V0209999999999220001CN0200001N9+03171+01341101041ADDAA106000091AG10999GF102991011021004501001021MA1999999091431MD1999999+0011REMSYN011333   58001
0115833390999991987020300004-14050-042617FM-12+088299999V0209999999999220001CN9999999N9+02711+01321101131ADDAA106000091AG10001GF100991001001999999001001KA1240M+03181MA1999999091461MD1999999-0041REMSYN017333   10318 59004
0137833390999991987020312004-14050-042617FM-12+088299999V0202301N00311220001CN0200001N9+02321+02051101291ADDAA106000091AG10999AY101061AY201061GF102991011021004501021001KA1240N+01861MA1999999091611MD1999999-0141MW1101REMSYN017333   20186 59014
0096833390999991987020318004-14050-042617FM-12+088299999V0209999999999220001CN0200001N9+03221+00971100891ADDAA106000091AG10999GF102991021021004501001001MA1999999091281MD1999999-0151REMSYN011333   59015
0115833390999991987020400004-14050-042617FM-12+088299999V0209999999999220001CN9999999N9+02671+01231101031ADDAA106000091AG10999GF100991001001999999001001KA1240M+03261MA1999999091381MD1999999-0081REMSYN017333   10326 59008
0096833390999991987020418004-14050-042617FM-12+088299999V0209999999999220001CN0200001N9+03221+00971101021ADDAA106000091AG10999GF102991021021004501001001MA1999999091281MD1999999+0001REMSYN011333   58000
0115833390999991987020500004-14050-042617FM-12+088299999V0201801N00311220001CN9999999N9+02601+00981101051ADDAA106000091AG10999GF100991001001999999001001KA1240M+03291MA1999999091381MD1999999+0001REMSYN017333   10329 58000
0137833390999991987020512004-14050-042617FM-12+088299999V0201801N00361220001CN0200001N9+02341+02091101271ADDAA106000091AG10999AY101061AY201061GF102991021021004501001001KA1240N+01971MA1999999091581MD1999999-0071MW1101REMSYN017333   20197 59007
0096833390999991987020518004-14050-042617FM-12+088299999V0209999999999220001CN0200001N9+03201+01551100871ADDAA106000091AG10999GF103991021021004501001041MA1999999091271MD1999999-0011REMSYN011333   59001
0115833390999991987020600004-14050-042617FM-12+088299999V0209999999999220001CN9999999N9+02601+01351101021ADDAA106000091AG10999GF100991001001999999001001KA1240M+03231MA1999999091351MD1999999-0031REMSYN017333   10323 59003
0115833390999991987020612004-14050-042617FM-12+088299999V0209999999999220001CN0200001N9+02401+01631101201ADDAA106000091AG10999GF100991001001999999001001KA1240N+01781MA1999999091531MD1999999-0051REMSYN017333   20178 59005
0115833390999991987020618004-14050-042617FM-12+088299999V0203201N00151220001CN0200001N9+03171+00991100831ADDAA106000091AG10999GF102991999011004501001001MA1999999091231MD1999999-0041REMSYN011333   59004EQDQ01+000012SCOTLC
0115833390999991987020700004-14050-042617FM-12+088299999V0200901N00411220001CN9999999N9+02301+01011100841ADDAA106000091AG10999GF100991001001999999001001KA1240M+03281MA1999999091301MD1999999-0051REMSYN017333   10328 59005
0137833390999991987020712004-14050-042617FM-12+088299999V0209999999999220001CN0200001N9+02341+01001101301ADDAA106000091AG10999AY101061AY201061GF102991021021004501001001KA1240N+01981MA1999999091611MD1999999-0081MW1101REMSYN017333   20198 59008
0096833390999991987020718004-14050-042617FM-12+088299999V0209999999999220001CN0200001N9+03261+01471100821ADDAA106000091AG10999GF103991031021004501001001MA1999999091231MD1999999+0001REMSYN011333   58000
0115833390999991987020800004-14050-042617FM-12+088299999V0209999999999220001CN9999999N9+02541+01451101041ADDAA106000091AG10999GF102991011021004501031001KA1240M+03291MA1999999091371MD1999999+0071REMSYN017333   10329 58007
0096833390999991987020818004-14050-042617FM-12+088299999V0209999999999220001CN0200001N9+03151+01411101061ADDAA106000091AG10999GF103991031021004501001001MA1999999091411MD1999999+0201REMSYN011333   58020
0115833390999991987020900004-14050-042617FM-12+088299999V0201801N00211220001CN9999999N9+02591+01191101131ADDAA106000091AG10999GF100991001001999999001001KA1240M+03211MA1999999091451MD1999999-0081REMSYN017333   10321 59008
0115833390999991987020912004-14050-042617FM-12+088299999V0209999999999220001CN0200001N9+02261+01791101491ADDAA106000091AG10999GF103991021021004501031001KA1240N+01851MA1999999091771MD1999999+0021REMSYN017333   20185 58002
0115833390999991987021000004-14050-042617FM-12+088299999V0202301N00311220001CN9999999N9+02441+01141101211ADDAA106000091AG10999GF100991001001999999001001KA1240M+03211MA1999999091501MD1999999+0051REMSYN017333   10321 58005
0115833390999991987021012004-14050-042617FM-12+088299999V0200901N00311220001CN0200001N9+02301+01851101491ADDAA106000091AG10999GF100991001001999999001001KA1240N+01761MA1999999091771MD1999999+0001REMSYN017333   20176 58000
0096833390999991987021018004-14050-042617FM-12+088299999V0201401N00261004201CN0200001N9+03081+01441100991ADDAA106000091AG10999GF105991051021004501001001MA1999999091861MD1999999+0031REMSYN011333   58003
0143833390999991987021112004-14050-042617FM-12+088299999V0201401N00511004201CN0040001N9+02001+02001101441ADDAA124024091AG10999AY191061AY261061GF108991081051004501999999KA1240N+01791MA1999999091711MD1999999-0061MW1101REMSYN023333   20179 59006 60244
0151833390999991987021118004-14050-042617FM-12+088299999V0201001N00101045001CN0200001N9-02402-02582103122ADDAA199000691AG10999GF108991081001999999011999KA1240M-02001MD1710031+9999REMSYN017333   11200 69960EQDQ01+024923ATOT  Q02+024743ATOD  Q03+103123APOSLP
0156833390999991987021312004-14050-042617FM-12+088299999V0201801N00571004201CN0200001N9+02071+01901101391ADDAA106000091AG10999AY101061AY201061GF106991999021004501001001KA1240N+01821MA1999999091641MD1999999-0061MW1101REMSYN017333   20182 59006EQDQ01+000052SCOTLC
0096833390999991987021318004-14050-042617FM-12+088299999V0209999999999105001CN0200001N9+02761+01621101081ADDAA106000091AG10001GF105991041021004501001021MA1999999091391MD1999999+0091REMSYN011333   58009
0115833390999991987021400004-14050-042617FM-12+088299999V0209991C00001045001CN9999999N9+02321+01551101231ADDAA106000091AG10999GF106991041021004501021001KA1240M+02811MA1999999091501MD1999999+0041REMSYN017333   10281 58004
0134833390999991987021412004-14050-042617FM-12+088299999V02099999999999999999N0200001N9+02151+01901101451ADDAA106000091AG10001GF105991999021004501001001KA1240N+01141MA1999999091711MD1999999+0071REMSYN017333   20114 58007EQDQ01+000042SCOTLC
0096833390999991987021418004-14050-042617FM-12+088299999V0201401N00671220001CN0200001N9+02761+01691101091ADDAA106000091AG10999GF104991031021004501001011MA1999999091421MD1999999+0031REMSYN011333   58003
0115833390999991987021512004-14050-042617FM-12+088299999V0201401N00771220001CN0200001N9+02241+01881101441ADDAA106000091AG10999GF102991021021004501001001KA1240N+01901MA1999999091731MD1999999+0021REMSYN017333   20190 58002
0096833390999991987021518004-14050-042617FM-12+088299999V0201401N00721004201CN0200001N9+02881+01671101031ADDAA106000091AG10999GF105991051021004501001001MA1999999091381MD1999999-0041REMSYN011333   59004
0115833390999991987021600004-14050-042617FM-12+088299999V0200901N00461220001CN9999999N9+02521+01651101201ADDAA106000091AG10999GF103991031021004501001001KA1240M+03001MA1999999091511MD1999999+0021REMSYN017333   10300 58002
0096833390999991987021618004-14050-042617FM-12+088299999V0201401N00461004201CN0200001N9+02941+01551101101ADDAA106000091AG10999GF106991061021004501001001MA1999999091361MD1999999-0021REMSYN011333   59002
0115833390999991987021712004-14050-042617FM-12+088299999V0200901N00571004201CN0200001N9+02121+01861101341ADDAA106000091AG10999GF108991061021004501021999KA1240N+01881MA1999999091591MD1999999-0121REMSYN017333   20188 59012
0115833390999991987021812004-14050-042617FM-12+088299999V0201401N00411007501CN0200001N9+02201+01901101421ADDAA106000091AG10999GF106991051021008001021001KA1240N+02001MA1999999091701MD1999999+0111REMSYN017333   20200 58011
0118833390999991987021818004-14050-042617FM-12+088299999V0201401N00621004201CN0200001N9+02731+01821101131ADDAA106000091AG10999AY121061AY221061GF108991061021004501021999MA1999999091441MD1999999+0131MW1171REMSYN011333   58013
0115833390999991987021912004-14050-042617FM-12+088299999V0201401N00671004201CN0200001N9+02161+01801101491ADDAA106000091AG10999GF106991061021004501001001KA1240N+01961MA1999999091761MD1999999+0061REMSYN017333   20196 58006
0096833390999991987021918004-14050-042617FM-12+088299999V0200401N00621220001CN0200001N9+02861+01681101171ADDAA106000091AG10999GF104991031021004501001091MA1999999091501MD1999999-0071REMSYN011333   59007
0115833390999991987022000004-14050-042617FM-12+088299999V0201401N00671220001CN9999999N9+02441+01661101311ADDAA106000091AG10999GF100991001001999999001001KA1240M+02951MA1999999091591MD1999999+0021REMSYN017333   10295 58002
0115833390999991987022012004-14050-042617FM-12+088299999V0201401N00821004201CN0200001N9+02181+01701101531ADDAA106000091AG10999GF106991061021004501001001KA1240N+01871MA1999999091791MD1999999+0001REMSYN017333   20187 58000
0096833390999991987022018004-14050-042617FM-12+088299999V0209999999999220001CN0200001N9+02841+01351101191ADDAA106000091AG10999GF104991041021004501001001MA1999999091511MD1999999+0011REMSYN011333   58001
0115833390999991987022100004-14050-042617FM-12+088299999V0209999999999220001CN9999999N9+02361+01711101231ADDAA106000091AG10001GF102991021021004501001001KA1240M+02931MA1999999091511MD1999999-0081REMSYN017333   10293 59008
0115833390999991987022112004-14050-042617FM-12+088299999V0201401N00821004201CN0200001N9+02181+01541101241ADDAA106000091AG10999GF106991061021004501001001KA1240N+01821MA1999999091681MD1999999-0111REMSYN017333   20182 59011
0096833390999991987022118004-14050-042617FM-12+088299999V0200901N00511004201CN0200001N9+02661+01371101181ADDAA106000091AG10999GF106991061021004501001001MA1999999091481MD1999999-0031REMSYN011333   59003
0115833390999991987022200004-14050-042617FM-12+088299999V0201401N00361220001CN9999999N9+02521+01341101261ADDAA106000091AG10999GF102991021021004501001001KA1240M+02871MA1999999091541MD1999999-0041REMSYN017333   10287 59004
0115833390999991987022212004-14050-042617FM-12+088299999V0201401N00821220001CN0200001N9+02221+01671101511ADDAA106000091AG10999GF104991041021004501001001KA1240N+01821MA1999999091781MD1999999+0101REMSYN017333   20182 58010
0096833390999991987022218004-14050-042617FM-12+088299999V0200901N00671220001CN0200001N9+02941+01361101191ADDAA106000091AG10999GF102991021021004501001001MA1999999091511MD1999999+0031REMSYN011333   58003
0137833390999991987022312004-14050-042617FM-12+088299999V0200901N00361004201CN0040001N9+02081+01761101701ADDAA106000091AG10999AY101061AY201061GF108991081051004501999999KA1240N+01921MA1999999091951MD1999999+0171MW1101REMSYN017333   20192 58017
0096833390999991987022318004-14050-042617FM-12+088299999V0201801N00101004201CN0200001N9+02761+01491101221ADDAA106000091AG10999GF106991061021004501001001MA1999999091541MD1999999+0031REMSYN011333   58003
0115833390999991987022412004-14050-042617FM-12+088299999V0200901N00571004201CN0040001N9+02221+01781101421ADDAA106000091AG10999GF106991061021004501001001KA1240N+01901MA1999999091681MD1999999-0271REMSYN017333   20190 59027
0096833390999991987022418004-14050-042617FM-12+088299999V0200901N00621220001CN0200001N9+02951+01101101041ADDAA106000091AG10999GF104991041021004501001001MA1999999091371MD1999999-0171REMSYN011333   59017
0137833390999991987022500004-14050-042617FM-12+088299999V0201401N00981220001CN9999999N9+02501+01821101331ADDAA106000091AG10999AY121061AY221061GF104991041021004501001001KA1240M+03051MA1999999091621MD1999999-0071MW1131REMSYN017333   10305 59007
0115833390999991987022512004-14050-042617FM-12+088299999V0200901N00981004201CN0200001N9+02701+01631101401ADDAA106000091AG10999GF106991061021004501001001KA1240N+01861MA1999999091861MD1999999+0001REMSYN017333   20186 58000
0096833390999991987022518004-14050-042617FM-12+088299999V0200901N00571220001CN0200001N9+02941+01051101101ADDAA106000091AG10999GF103991031021004501001001MA1999999091431MD1999999+0061REMSYN011333   58006
0150833390999991987022600004-14050-042617FM-12+088299999V0201401N00211220001CN9999999N9+02781+02341101471ADDAA106000091AG10999GF104991041021008001001001KA1240M+03061MA1999999999999MD1999999+0031REMSYN017333   10306 58003EQDQ01+101423APOSP Q02 101423APOSP 
0115833390999991987022612004-14050-042617FM-12+088299999V0200501N00671004201CN0200001N9+02321+01831101471ADDAA106000091AG10999GF106991051021004501001021KA1240N+02041MA1999999091751MD1999999+0071REMSYN017333   20204 58007
0096833390999991987022618004-14050-042617FM-12+088299999V0200901N00211220001CN0200001N9+02861+01411101201ADDAA106000091AG10999GF104991041021004501001001MA1999999091531MD1999999+0101REMSYN011333   58010
0137833390999991987022700004-14050-042617FM-12+088299999V0209999999999220001CN9999999N9+02281+01771101561ADDAA106000091AG10999AY121061AY221061GF104991041021004501001001KA1240M+02981MA1999999091821MD1999999+0271MW1131REMSYN017333   10298 58027
0115833390999991987022712004-14050-042617FM-12+088299999V0200901N00871004201CN0200001N9+02221+01691101551ADDAA106000091AG10999GF106991061021004501001001KA1240N+01881MA1999999091801MD1999999+0051REMSYN017333   20188 58005
0082833390999991987022718004-14050-042617FM-12+088299999V0200901N00671045001CN0200001N9+02881+01221101171ADDAA106000091AG10999GF105991041021004501021001MA1999999091491REMSYN011333   5004/
0115833390999991987022800004-14050-042617FM-12+088299999V0201401N00571220001CN9999999N9+02581+01461101301ADDAA106000091AG10999GF102991021021004501001001KA1240M+02971MA1999999091601MD1999999-0221REMSYN017333   10297 59022
0115833390999991987022812004-14050-042617FM-12+088299999V0209999999999004201CN0200001N9+02241+01751101481ADDAA106000091AG10999GF105991051021004501001001KA1240N+02241MA1999999091761MD1999999-0041REMSYN017333   20224 59004
0096833390999991987022818004-14050-042617FM-12+088299999V0209999999999220001CN0200001N9+02981+01351100991ADDAA106000091AG10999GF104991041021004501001001MA1999999091351MD1999999-0141REMSYN011333   59014
0115833390999991987030100004-14050-042617FM-12+088299999V0209999999999220001CN9999999N9+02241+01821101251ADDAA106000091AG10999GF100991001001999999001001KA1240M+03061MA1999999091531MD1999999-0071REMSYN017333   10306 59007
0115833390999991987030112004-14050-042617FM-12+088299999V0209999999999004201CN0200001N9+02121+01661101971ADDAA106000091AG10999GF107991061021004501001021KA1240N+01821MA1999999091601MD1999999-0161REMSYN017333   20182 59016
0115833390999991987030118004-14050-042617FM-12+088299999V0209999999999220001CN0200001N9+03001+01241101012ADDAA106000091AG10999GF103991031021004501001001MA1999999091341MD1999999-0011REMSYN011333   59001EQDQ01+101013APOSLP
0150833390999991987030200004-14050-042617FM-12+088299999V0209999999999220001CN9999999N9+02701+01991101141ADDAA106000091AG10999GF100991001001999999001001KA1240M+03011MA1999999999999MD1999999-0071REMSYN017333   10301 59007EQDQ01+095983APOSP Q02 095983APOSP 
0115833390999991987030212004-14050-042617FM-12+088299999V0209999999999004201CN0200001N9+02301+01851101401ADDAA106000091AG10999GF106991061021004501001001KA1240N+01841MA1999999091691MD1999999-0091REMSYN017333   20184 59009
0096833390999991987030218004-14050-042617FM-12+088299999V0209999999999220001CN0200001N9+02991+01231101841ADDAA106000091AG10999GF104991041021004501001001MA1999999091241MD1999999-0101REMSYN011333   59010
0115833390999991987030312004-14050-042617FM-12+088299999V0209999999999004201CN0200001N9+02351+01811101261ADDAA106000091AG10999GF105991051021004501001001KA1240N+02021MA1999999091581MD1999999-0111REMSYN017333   20202 59011
0096833390999991987030318004-14050-042617FM-12+088299999V0209999999999004201CN0200001N9+03031+01391100921ADDAA106000091AG10999GF106991051021004501001021MA1999999091191MD1999999-0051REMSYN011333   59005
0115833390999991987030400004-14050-042617FM-12+088299999V0209999999999220001CN9999999N9+02361+01831101101ADDAA106000091AG10999GF104991041021004501001001KA1240M+03071MA1999999091411MD1999999-0031REMSYN017333   10307 59003
0115833390999991987030412004-14050-042617FM-12+088299999V0209999999999045001CN0200001N9+02401+01731101231ADDAA106000091AG10999GF105991041021004501021001KA1240N+01921MA1999999091541MD1999999-0041REMSYN017333   20192 59004
0096833390999991987030418004-14050-042617FM-12+088299999V0209999999999004201CN0200001N9+03081+01121100801ADDAA106000091AG10999GF106991051021004501001041MA1999999091191MD1999999+0001REMSYN011333   58000
0115833390999991987030500004-14050-042617FM-12+088299999V0209999999999004201CN9999999N9+02321+01741101091ADDAA106000091AG10999GF105991051021004501001001KA1240M+03131MA1999999091401MD1999999-0011REMSYN017333   10313 59001
0115833390999991987030512004-14050-042617FM-12+088299999V0209999999999004201CN0200001N9+02471+01851101271ADDAA106000091AG10999GF105991051021004501001001KA1240N+01931MA1999999091571MD1999999-0041REMSYN017333   20193 59004
0096833390999991987030518004-14050-042617FM-12+088299999V0209999999999004201CN0200001N9+02751+01841100881ADDAA106000091AG10999GF106991061021004501001001MA1999999091211MD1999999+0031REMSYN011333   58003
0115833390999991987030600004-14050-042617FM-12+088299999V0209999999999004201CN9999999N9+02591+01741100951ADDAA106000091AG10999GF105991051021004501001001KA1240M+03071MA1999999091321MD1999999-0081REMSYN017333   10307 59008
0115833390999991987030612004-14050-042617FM-12+088299999V0209999999999004201CN0040001N9+02441+01971101141ADDAA106000091AG10999GF107991061021004501021001KA1240N+02001MA1999999091471MD1999999-0101REMSYN017333   20200 59010
0118833390999991987030618004-14050-042617FM-12+088299999V0209999999999004201CN0040001N9+02781+01961100751ADDAA106000091AG10999AY101061AY201061GF106991051021004501031001MA1999999091131MD1999999-0091MW1171REMSYN011333   59009
0137833390999991987030700004-14050-042617FM-12+088299999V0209999999999004201CN9999999N9+02461+01781100971ADDAA106000091AG10999AY191061AY221061GF106991061021004501001001KA1240M+02991MA1999999091311MD1999999-0011MW1021REMSYN017333   10299 59001
0143833390999991987030712004-14050-042617FM-12+088299999V0209999999999004201CN0200001N9+02381+01971101221ADDAA124001091AG10999AY161061AY221061GF108991051021004501021999KA1240N+02161MA1999999091531MD1999999+0061MW1021REMSYN023333   20216 58006 60014
0124833390999991987030718004-14050-042617FM-12+088299999V0209999999999045001CN0200001N9+02541+01911100881ADDAA106001091AG10999AY191061AY261061GF105991031021004501031001MA1999999091221MD1999999+0091MW1021REMSYN017333   58009 60011
0115833390999991987030800004-14050-042617FM-12+088299999V0209999999999004201CN9999999N9+02241+01991101061ADDAA106000091AG10999GF106991061021004501001001KA1240M+02751MA1999999091361MD1999999-0051REMSYN017333   10275 59005
0143833390999991987030812004-14050-042617FM-12+088299999V0209999999999004201CN0200001N9+02341+02011101181ADDAA124001091AG10999AY161061AY221061GF106991061021004501001001KA1240N+01921MA1999999091471MD1999999-0061MW1021REMSYN023333   20192 59006 60014
0096833390999991987030818004-14050-042617FM-12+088299999V0209999999999045001CN0200001N9+02401+02071100791ADDAA106000091AG10999GF108991041021004501021999MA1999999091111MD1999999-0111REMSYN011333   59011
0143833390999991987030900004-14050-042617FM-12+088299999V0209999999999045001CN9999999N9+02161+01931101001ADDAA106000391AG10999AY161061AY221061GF106991041021004501031001KA1240M+02571MA1999999091301MD1999999-0061MW1021REMSYN023333   10257 59006 69931
0162833390999991987030912004-14050-042617FM-12+088299999V0209999999999004201CN0040001N9+02241+02141101101ADDAA124012091AG10999AY161061AY261061GF106991051021004501031001KA1240N+99999MA1999999091381MD1999999-0091MW1101REMSYN023333   20292 59009 60124EQDQ01 +02922ATMN  
0143833390999991987031000004-14050-042617FM-12+088299999V0209999999999045001CN9999999N9+02151+02041101111ADDAA106005091AG10999AY161061AY261061GF108991041021004501021999KA1240M+02731MA1999999091391MD1999999+0091MW1601REMSYN023333   10273 58009 60051
0143833390999991987031012004-14050-042617FM-12+088299999V0209999999999004201CN0040001N9+01931+01851101321ADDAA124013091AG10999AY161061AY261061GF108991081051004501999999KA1240N+01841MA1999999091551MD1999999+0171MW1621REMSYN023333   20184 58017 60134
0124833390999991987031018004-14050-042617FM-12+088299999V0209999999999004201CN0040001N9+02241+01871101031ADDAA106010091AG10999AY161061AY261061GF107991061051004501021999MA1999999091301MD1999999+0291MW1101REMSYN017333   58029 60101
0115833390999991987031100004-14050-042617FM-12+088299999V0209999999999045001CN9999999N9+02101+02031101201ADDAA106000091AG10999GF106991041021004501031001KA1240M+02351MA1999999091441MD1999999+0051REMSYN017333   10235 58005
0143833390999991987031112004-14050-042617FM-12+088299999V0209999999999004201CN0040001N9+02221+01901101241ADDAA124014091AG10999AY161061AY261061GF108991081051004501999999KA1240N+01881MA1999999091501MD1999999-0051MW1101REMSYN023333   20188 59005 60144
0124833390999991987031118004-14050-042617FM-12+088299999V0209999999999004201CN0020001N9+02021+02021101021ADDAA106028091AG10999AY191061AY261061GF108991081051004501999999MA1999999091271MD1999999-0031MW1601REMSYN017333   59003 60281
0143833390999991987031200004-14050-042617FM-12+088299999V0209999999999004201CN9999999N9+02001+02001101381ADDAA106005091AG10999AY161061AY261061GF108991051051004501021999KA1240M+02351MA1999999091621MD1999999+0181MW1601REMSYN023333   10235 58018 60051
0143833390999991987031212004-14050-042617FM-12+088299999V0209999999999004201CN0040001N9+02051+02041101411ADDAA124036091AG10999AY161061AY261061GF108991081051004501999999KA1240N+01861MA1999999091631MD1999999+0131MW1101REMSYN023333   20186 58013 60364
0096833390999991987031218004-14050-042617FM-12+088299999V0209999999999004201CN0040001N9+02581+01741100951ADDAA106000091AG10001GF106991061021004501001001MA1999999091251MD1999999-0021REMSYN011333   59002
0154833390999991987031300004-14050-042617FM-12+088299999V0209991C00001004201CN9999999N9+02081+02011101241ADDAA124000891AA299001091AG10999AY161061AY241061GF108991051021004501021999KA1240M+02591MA1999999091481MD1999999-0141MW1021REMSYN023333   10259 59014 69984
0143833390999991987031412004-14050-042617FM-12+088299999V0209999999999045001CN0200001N9+02001+01851101421ADDAA124025091AG10999AY161061AY241061GF108991041021004501031999KA1240N+01761MA1999999091921MD1999999+0221MW1101REMSYN023333   20176 58022 60254
0115833390999991987031512004-14050-042617FM-12+088299999V0209999999999004201CN0200001N9+02141+01801101551ADDAA106000091AG10999GF106991061021004501001001KA1240N+01851MA1999999091801MD1999999+0121REMSYN017333   20185 58012
0096833390999991987031518004-14050-042617FM-12+088299999V0209999999999220001CN0200001N9+02701+01801101301ADDAA106000091AG10999GF104991041021004501001001MA1999999091591MD1999999+0201REMSYN011333   58020
0115833390999991987031600004-14050-042617FM-12+088299999V0209999999999220001CN9999999N9+02401+01601101401ADDAA106000091AG10999GF102991021021004501001001KA1240M+02731MA1999999091661MD1999999+0011REMSYN017333   10273 58001
0137833390999991987031612004-14050-042617FM-12+088299999V0209999999999004201CN0040001N9+02101+01801101551ADDAA106000091AG10999AY101061AY201061GF106991061021004501001001KA1240N+01821MA1999999091801MD1999999+0001MW1101REMSYN017333   20182 58000
0115833390999991987031700004-14050-042617FM-12+088299999V0209999999999220001CN9999999N9+02421+01491101331ADDAA106000091AG10999GF102991021021004501001001KA1240M+02721MA1999999091601MD1999999-0061REMSYN017333   10272 59006
0137833390999991987031712004-14050-042617FM-12+088299999V0209999999999004201CN0200001N9+02121+01891101371ADDAA106000091AG10999AY101061AY201061GF106991061021004501001001KA1240N+01921MA1999999091641MD1999999-0161MW1101REMSYN017333   20192 59016
0062833390999991987031718004-14050-042617FM-12+088299999V0209999999999045001CN0200001N9+02651+01751101071ADDAA106000091AG10999GF105991041021004501021001MA1999999091371
0115833390999991987031800004-14050-042617FM-12+088299999V0209999999999220001CN9999999N9+02101+01981101321ADDAA106000091AG10999GF103991031021004501001001KA1240M+02671MA1999999091561MD1999999-0041REMSYN017333   10267 59004
0137833390999991987031812004-14050-042617FM-12+088299999V0209999999999004201CN0040001N9+02061+01891101361ADDAA106000091AG10999AY101061AY201061GF106991061021004501001001KA1240N+01851MA1999999091601MD1999999-0041MW1101REMSYN017333   20185 59004
0096833390999991987031818004-14050-042617FM-12+088299999V0209999999999220001CN0200001N9+02601+01791101121ADDAA106000091AG10999GF104991041021004501001001MA1999999091411MD1999999+0041REMSYN011333   58004
0115833390999991987031900004-14050-042617FM-12+088299999V0209999999999220001CN9999999N9+02211+01911101321ADDAA106000091AG10999GF102991021021004501001001KA1240M+02661MA1999999091571MD1999999+0011REMSYN017333   10266 58001
0143833390999991987031912004-14050-042617FM-12+088299999V0209999999999004201CN0040001N9+02001+01931101381ADDAA124001091AG10999AY161061AY261061GF108991081051004501999999KA1240N+01831MA1999999091621MD1999999+0021MW1101REMSYN023333   20183 58002 60014
0115833390999991987032000004-14050-042617FM-12+088299999V0209999999999220001CN9999999N9+02161+01841101361ADDAA106000091AG10999GF102991021021004501001001KA1240M+02641MA1999999091601MD1999999+0031REMSYN017333   10264 58003
0122833390999991987032012004-14050-042617FM-12+088299999V0209999999999004201CN0200001N9+02071+01931101471ADDAA106000091AG10999AY101061AY201061GF106991061021004501001001KA1240N+01831MD1999999+0081MW1101REMSYN017333   20183 58008
0096833390999991987032018004-14050-042617FM-12+088299999V0209999999999045001CN0200001N9+02721+01621101051ADDAA106000091AG10999GF105991041021004501031001MA1999999091361MD1999999-0071REMSYN011333   59007
0115833390999991987032100004-14050-042617FM-12+088299999V0209999999999220001CN9999999N9+02241+01781101201ADDAA106000091AG10999GF102991021021004501001001KA1240M+02771MA1999999091461MD1999999-0141REMSYN017333   10277 59014
0096833390999991987032118004-14050-042617FM-12+088299999V0209999999999004201CN0200001N9+02741+01811101131ADDAA106000091AG10999GF106991061021004501001001MA1999999091211MD1999999-0151REMSYN011333   59015
0115833390999991987032212004-14050-042617FM-12+088299999V0209999999999004201CN0200001N9+02201+02081101261ADDAA106000091AG10999GF106991061021004501001001KA1240N+01861MA1999999091531MD1999999-0061REMSYN017333   20186 59006
0118833390999991987032218004-14050-042617FM-12+088299999V0209999999999004201CN0200001N9+02881+01831100691ADDAA106000091AG10999AY121061AY221061GF106991061021004501001001MA1999999091061MD1999999-0151MW1171REMSYN011333   59015
0137833390999991987032312004-14050-042617FM-12+088299999V0209999999999220001CN0200001N9+02461+02191101151ADDAA106000091AG10999AY101061AY201061GF104991041021004501001001KA1240N+01901MA1999999091471MD1999999-0061MW1101REMSYN017333   20190 59006
0096833390999991987032318004-14050-042617FM-12+088299999V0209999999999004201CN0200001N9+02951+02031100801ADDAA106000091AG10999GF105991051021004501001001MA1999999091071MD1999999+0011REMSYN011333   58001
0137833390999991987032412004-14050-042617FM-12+088299999V0209999999999004201CN0040001N9+02201+02201101201ADDAA106000091AG10999AY101061AY201061GF108991081051004501999999KA1240N+02101MA1999999091501MD1999999+0031MW1421REMSYN017333   20210 58003
0118833390999991987032418004-14050-042617FM-12+088299999V0209999999999004201CN0200001N9+02801+01901100901ADDAA106000091AG10001AY141061AY201061GF106991061021004501001001MA1999999091161MD1999999+0091MW1021REMSYN011333   58009
0137833390999991987032500004-14050-042617FM-12+088299999V0209999999999004201CN9999999N9+02341+02071101211ADDAA106000091AG10999AY121061AY221061GF106991061021004501001001KA1240M+02911MA1999999091491MD1999999+0121MW1131REMSYN017333   10291 58012
0137833390999991987032512004-14050-042617FM-12+088299999V0209999999999004201CN0200001N9+02201+01901101191ADDAA106000091AG10999AY101061AY201061GF106991061021004501001001KA1240N+01981MA1999999091471MD1999999-0031MW1101REMSYN017333   20198 59003
0096833390999991987032518004-14050-042617FM-12+088299999V0209999999999004201CN0200001N9+02821+01801100761ADDAA106000091AG10999GF105991051021004501001001MA1999999091151MD1999999-0031REMSYN011333   59003
0137833390999991987032612004-14050-042617FM-12+088299999V0209999999999004201CN0040001N9+02081+01981101121ADDAA106000091AG10999AY101061AY201061GF108991081051004501999999KA1240N+01961MA1999999091401MD1999999-0071MW1101REMSYN017333   20196 59007
0115833390999991987032700004-14050-042617FM-12+088299999V0209999999999220001CN9999999N9+02341+01911100991ADDAA106000091AG10999GF102991021021004501001001KA1240M+02831MA1999999091281MD1999999-0021REMSYN017333   10283 59002
0137833390999991987032712004-14050-042617FM-12+088299999V0209999999999220001CN0200001N9+02241+02011101111ADDAA106000091AG10999AY101061AY201061GF104991041021004501001001KA1240N+02001MA1999999091411MD1999999+0011MW1101REMSYN017333   20200 58001
0096833390999991987032718004-14050-042617FM-12+088299999V0209999999999220001CN0200001N9+02821+01801100721ADDAA106000091AG10999GF103991031021004501001001MA1999999091091MD1999999+0021REMSYN011333   58002
0115833390999991987032800004-14050-042617FM-12+088299999V0209999999999220001CN9999999N9+02381+01681101481ADDAA106000091AG10999GF102991021021004501001001KA1240M+02831MA1999999091291MD1999999+0011REMSYN017333   10283 58001
0115833390999991987032812004-14050-042617FM-12+088299999V0209999999999004201CN0200001N9+02241+01961101251ADDAA106000091AG10999GF106991061021004501001001KA1240N+02021MA1999999091541MD1999999+0131REMSYN017333   20202 58013
0115833390999991987032900004-14050-042617FM-12+088299999V0209999999999220001CN9999999N9+02421+01651100991ADDAA106000091AG10999GF102991021021004501001001KA1240M+02951MA1999999091311MD1999999+0021REMSYN017333   10295 58002
0134833390999991987032912004-14050-042617FM-12+088299999V0209999999999004201CN0200001N9+02221+01881101131ADDAA106000091AG10999GF106991061021004501001001KA1240N+01881MA1999999999999MD1999999-0111REMSYN017333   20188 59011EQDQ01 101433APOSP 
0115833390999991987032918004-14050-042617FM-12+088299999V0209999999999220001CN0200001N9+02601+01871100761ADDAA106000091AG10999GF106991041021004501001011MA1999999091102MD1999999-0051REMSYN011333   59005EQDQ01+091103APOSP 
0115833390999991987033000004-14050-042617FM-12+088299999V0209999999999220001CN9999999N9+02241+01841101011ADDAA106000091AG10999GF103991031021004501001001KA1240M+02811MA1999999091311MD1999999+0001REMSYN017333   10281 58000
0154833390999991987033012004-14050-042617FM-12+088299999V0209999999999004201CN0040001N9+02061+01851101201ADDAA124000491AA299000591AG10999AY161061AY261061GF108991081051004501999999KA1240N+01901MA1999999091451MD1999999+0021MW1101REMSYN023333   20190 58002 69944
0096833390999991987033018004-14050-042617FM-12+088299999V0209999999999004201CN0200001N9+02521+01771100751ADDAA106000091AG10001GF106991051021004501021001MA1999999091071MD1999999-0031REMSYN011333   59003
0115833390999991987033100004-14050-042617FM-12+088299999V0209999999999220001CN9999999N9+02141+01701101091ADDAA106000091AG10999GF103991031021004501001001KA1240M+02591MA1999999091391MD1999999+0081REMSYN017333   10259 58008
0137833390999991987033112004-14050-042617FM-12+088299999V0209999999999004201CN0040001N9+02181+01741101211ADDAA106000091AG10999AY101061AY201061GF106991051021004501021001KA1240N+01841MA1999999091481MD1999999+0031MW1101REMSYN017333   20184 58003
0096833390999991987033118004-14050-042617FM-12+088299999V0209999999999105001CN0200001N9+02701+01471100871ADDAA106000091AG10999GF105991041021004501001021MA1999999091191MD1999999-0121REMSYN011333   59012
0115833390999991987040100004-14050-042617FM-12+088299999V0209999999999220001CN9999999N9+02331+01671101241ADDAA106000091AG10999GF103991031021004501001001KA1240M+02751MA1999999091521MD1999999+0131REMSYN017333   10275 58013
0137833390999991987040112004-14050-042617FM-12+088299999V0209999999999004201CN0040001N9+02061+01851101361ADDAA106000091AG10999AY101061AY201061GF108991081051004501999999KA1240N+01901MA1999999091621MD1999999+0141MW1101REMSYN017333   20190 58014
0096833390999991987040118004-14050-042617FM-12+088299999V0209999999999004201CN0200001N9+02721+01621100961ADDAA106000091AG10999GF106991061021004501001001MA1999999091281MD1999999+0091REMSYN011333   58009
0115833390999991987040200004-14050-042617FM-12+088299999V0209999999999004201CN9999999N9+02221+01941101311ADDAA106000091AG10999GF106991061021004501001001KA1240M+02751MA1999999091561MD1999999+0041REMSYN017333   10275 58004
0137833390999991987040212004-14050-042617FM-12+088299999V0209999999999004201CN0040001N9+02181+01991101331ADDAA106000091AG10999AY101061AY201061GF106991061021004501001001KA1240N+01961MA1999999091591MD1999999-0031MW1101REMSYN017333   20196 59003
0096833390999991987040218004-14050-042617FM-12+088299999V0209999999999004201CN0200001N9+02751+01701100981ADDAA106000091AG10999GF106991061021004501001001MA1999999091311MD1999999+0031REMSYN011333   58003
0115833390999991987040300004-14050-042617FM-12+088299999V0209999999999004201CN9999999N9+02321+02051101331ADDAA106000091AG10999GF105991051021004501001001KA1240M+02771MA1999999091611MD1999999+0051REMSYN017333   10277 58005
0150833390999991987040312004-14050-042617FM-12+088299999V02099999999999999999N0200001N9+02351+02011101411ADDAA106000091AG10999GF106991999091004501001001KA1240N+01961MA1999999999999MD1999999+0101REMSYN017333   20196 58010EQDQ01+000012SCOTLCQ02 096693APOSP 
0115833390999991987040318004-14050-042617FM-12+088299999V0209999999999004201CN0200001N9+02651+01771100961ADDAA106000091AG10999GF107991061021004501021001MA1999999091282MD1999999-0031REMSYN011333   59003EQDQ01+091283APOSP 
0115833390999991987040400004-14050-042617FM-12+088299999V0209999999999220001CN9999999N9+02261+01961101291ADDAA106000091AG10999GF103991031021004501001001KA1240M+02791MA1999999091571MD1999999-0041REMSYN017333   10279 59004
0115833390999991987040412004-14050-042617FM-12+088299999V0209999999999105001CN0200001N9+02221+01821101341ADDAA106000091AG10999GF105991031021004501001021KA1240N+01921MA1999999091611MD1999999-0081REMSYN017333   20192 59008
0096833390999991987040418004-14050-042617FM-12+088299999V0209999999999220001CN0200001N9+02701+01781100971ADDAA106000091AG10999GF104991041021004501001001MA1999999091281MD1999999+0001REMSYN011333   58000
0115833390999991987040500004-14050-042617FM-12+088299999V0209999999999220001CN9999999N9+02381+01731101181ADDAA106000091AG10999GF102991021021004501001001KA1240M+02751MA1999999091491MD1999999-0081REMSYN017333   10275 59008
0115833390999991987040512004-14050-042617FM-12+088299999V0209999999999004201CN0200001N9+02171+01761101231ADDAA106000091AG10999GF106991051021004501031001KA1240N+01941MA1999999091511MD1999999-0101REMSYN017333   20194 59010
0096833390999991987040518004-14050-042617FM-12+088299999V0209999999999220001CN0200001N9+02841+01571100931ADDAA106000091AG10999GF105991031021004501001011MA1999999091271MD1999999-0011REMSYN011333   59001
0115833390999991987040600004-14050-042617FM-12+088299999V0209999999999220001CN9999999N9+02421+01571101271ADDAA106000091AG10999GF104991031021004501001011KA1240M+02931MA1999999091551MD1999999+0061REMSYN017333   10293 58006
0137833390999991987040612004-14050-042617FM-12+088299999V0209999999999004201CN0200001N9+02171+01821101381ADDAA106000091AG10999AY101061AY201061GF106991051021004501031001KA1240N+01851MA1999999091651MD1999999+0141MW1101REMSYN017333   20185 58014
0096833390999991987040618004-14050-042617FM-12+088299999V0209999999999220001CN0200001N9+02841+01601100961ADDAA106000091AG10999GF103991031021004501001001MA1999999091291MD1999999+0021REMSYN011333   58002
0118833390999991987040718004-14050-042617FM-12+088299999V0209999999999004201CN0200001N9+02471+02011101301ADDAA106000091AG10999AY191061AY261061GF106991051021004501021001MA1999999091581MD1999999+0291MW1021REMSYN011333   58029
0115833390999991987040800004-14050-042617FM-12+088299999V0209999999999004201CN9999999N9+02421+01791101481ADDAA106000091AG10999GF105991051021004501001001KA1240M+02831MA1999999091761MD1999999+0041REMSYN017333   10283 58004
0137833390999991987040812004-14050-042617FM-12+088299999V0209999999999004201CN0040001N9+99999+99999101531ADDAA106000091AG10999AY101061AY201061GF108991081051004501999999KA1240N+01921MA1999999091781MD1999999-0111MW1101REMSYN017333   20192 59011
0096833390999991987040818004-14050-042617FM-12+088299999V0209999999999220001CN0200001N9+03001+01291101171ADDAA106000091AG10999GF102991021021004501001001MA1999999091501MD1999999-0081REMSYN011333   59008
0115833390999991987040900004-14050-042617FM-12+088299999V0209999999999220001CN9999999N9+02431+01151101331ADDAA106000091AG10999GF100991001001999999001001KA1240M+02991MA1999999091601MD1999999-0161REMSYN017333   10299 59016
0115833390999991987040912004-14050-042617FM-12+088299999V0209999999999220001CN0200001N9+02281+01731101331ADDAA106000091AG10999GF100991001001999999001001KA1240N+01691MA1999999091621MD1999999-0161REMSYN017333   20169 59016
0096833390999991987040918004-14050-042617FM-12+088299999V0209999999999220001CN0500001N9+02991+01231100941ADDAA106000091AG10999GF100991001001999999001001MA1999999091301MD1999999-0201REMSYN011333   59020
0115833390999991987041000004-14050-042617FM-12+088299999V0209999999999220001CN9999999N9+02441+01301101211ADDAA106000091AG10999GF100991001001999999001001KA1240M+03031MA1999999091511MD1999999-0091REMSYN017333   10303 59009
0096833390999991987041018004-14050-042617FM-12+088299999V0209999999999220001CN0200001N9+02941+01191100941ADDAA106000091AG10999GF102991021011004501001001MA1999999091301MD1999999+0001REMSYN011333   58000
0115833390999991987041100004-14050-042617FM-12+088299999V0209999999999220001CN9999999N9+02421+01621101131ADDAA106000091AG10999GF100991001001999999001001KA1240M+02951MA1999999091441MD1999999-0071REMSYN017333   10295 59007
0115833390999991987041112004-14050-042617FM-12+088299999V0209999999999004201CN0200001N9+02171+01741101441ADDAA106000091AG10999GF106991061021004501001001KA1240N+01881MA1999999091711MD1999999+0071REMSYN017333   20188 58007
0096833390999991987041118004-14050-042617FM-12+088299999V0209999999999220001CN0200001N9+02721+01241100951ADDAA106000091AG10999GF199999021021004501001001MA1999999091291MD1999999-0011REMSYN011333   59001
0115833390999991987041200004-14050-042617FM-12+088299999V0209999999999220001CN9999999N9+02361+01611101111ADDAA106000091AG10999GF100991001001999999001001KA1240M+02851MA1999999091401MD1999999-0041REMSYN017333   10285 59004
0115833390999991987041212004-14050-042617FM-12+088299999V0209999999999220001CN0200001N9+02241+01641101451ADDAA106000091AG10999GF102991021021004501001001KA1240N+01871MA1999999091711MD1999999+0001REMSYN017333   20187 58000
0096833390999991987041218004-14050-042617FM-12+088299999V0209999999999220001CN0200001N9+02841+01431100981ADDAA106000091AG10999GF102991021021017501001001MA1999999091321MD1999999+0031REMSYN011333   58003
0115833390999991987041300004-14050-042617FM-12+088299999V0209999999999220001CN9999999N9+02241+01531101191ADDAA106000091AG10999GF100991001001999999001001KA1240M+02871MA1999999091471MD1999999+0071REMSYN017333   10287 58007
0134833390999991987041312004-14050-042617FM-12+088299999V0209999999999220001CN0200001N9+02221+01731101331ADDAA106000091AG10999GF102991021021004501001001KA1240N+01831MA1999999999999MD1999999-0091REMSYN017333   20183 59009EQDQ01 096013APOSP 
0115833390999991987041318004-14050-042617FM-12+088299999V0209999999999220001CN0200001N9+02781+01331100961ADDAA106000091AG10999GF103991031021004501001001MA1999999091302MD1999999-0021REMSYN011333   59002EQDQ01+091303APOSP 
0115833390999991987041400004-14050-042617FM-12+088299999V0209999999999220001CN9999999N9+02361+01611101231ADDAA106000091AG10999GF100991001001999999001001KA1240M+02781MA1999999091521MD1999999+0051REMSYN017333   10278 58005
0137833390999991987041412004-14050-042617FM-12+088299999V0209999999999004201CN0200001N9+02151+01841101481ADDAA106000091AG10999AY101061AY201061GF106991061021004501001001KA1240N+01851MA1999999091741MD1999999+0141MW1101REMSYN017333   20185 58014
0096833390999991987041418004-14050-042617FM-12+088299999V0209999999999220001CN0200001N9+02751+01341101131ADDAA106000091AG10999GF104991041021004501001001MA1999999091441MD1999999+0141REMSYN011333   58014
0115833390999991987041500004-14050-042617FM-12+088299999V0209999999999004201CN9999999N9+02251+01751101481ADDAA106000091AG10999GF106991061051004501001001KA1240M+02881MA1999999091731MD1999999+0211REMSYN017333   10288 58021
0115833390999991987041512004-14050-042617FM-12+088299999V0209999999999004201CN0200001N9+02201+01721101491ADDAA106000091AG10999GF106991061021004501001001KA1240N+01771MA1999999091741MD1999999+0001REMSYN017333   20177 58000
0135833390999991987041518004-14050-042617FM-12+088299999V0209999999999004201CN0200001N9+02621+01621101191ADDAA106000491AA299000591AG10999AY161061AY261061GF105991051021004501001001MA1999999091471MD1999999+0031MW1021REMSYN017333   58003 69941
0143833390999991987041612004-14050-042617FM-12+088299999V0209999999999004201CN0040001N9+01961+01911101491ADDAA124003091AG10999AY161061AY261061GF108991081051004501999999KA1240N+01921MA1999999091711MD1999999-0031MW1501REMSYN023333   20192 59003 60034
0124833390999991987041618004-14050-042617FM-12+088299999V0209999999999004201CN0200001N9+02661+01401101161ADDAA106002091AG10999AY161061AY261061GF106991061051004501001001MA1999999091431MD1999999-0011MW1021REMSYN017333   59001 60021
0143833390999991987041712004-14050-042617FM-12+088299999V0209999999999004201CN0040001N9+01961+01771101571ADDAA124002091AG10999AY161061AY261061GF108991081051004501999999KA1240N+01781MA1999999091791MD1999999+0081MW1501REMSYN023333   20178 58008 60024
0115833390999991987041800004-14050-042617FM-12+088299999V0209999999999220001CN9999999N9+02241+01741101561ADDAA106000091AG10999GF100991001001999999001001KA1240M+02691MA1999999091781MD1999999+0081REMSYN017333   10269 58008
0134833390999991987041812004-14050-042617FM-12+088299999V0209999999999004201CN0200001N9+02621+02251101741ADDAA106000091AG10999GF106991061021004501001001KA1240N+01831MA1999999999999MD1999999+0161REMSYN017333   20183 58016EQDQ01 096673APOSP 
0115833390999991987041818004-14050-042617FM-12+088299999V0209999999999004201CN0200001N9+02361+01851101411ADDAA106000091AG10999GF106991061021004501001001MA1999999091712MD1999999+0101REMSYN011333   58010EQDQ01+091713APOSP 
0154833390999991987041912004-14050-042617FM-12+088299999V0209999999999004201CN0200001N9+01921+01731101661ADDAA124000291AA299000391AG10999AY151061AY241061GF106991061021004501001001KA1240N+01721MA1999999091851MD1999999-0011MW1021REMSYN023333   20172 59001 69924
0096833390999991987041918004-14050-042617FM-12+088299999V0209999999999220001CN0200001N9+02661+01501101241ADDAA106000091AG10999GF104991041021004501001001MA1999999091521MD1999999-0191REMSYN011333   59019
0137833390999991987042012004-14050-042617FM-12+088299999V0209999999999004201CN0200001N9+02131+01801101551ADDAA106000091AG10999AY101061AY201061GF106991061021004501001001KA1240N+01901MA1999999091781MD1999999-0071MW1101REMSYN017333   20190 59007
0096833390999991987042018004-14050-042617FM-12+088299999V0209999999999220001CN0200001N9+02801+01311101071ADDAA106000091AG10999GF104991041021004501001001MA1999999091391MD1999999-0131REMSYN011333   59013
0115833390999991987042100004-14050-042617FM-12+088299999V0209999999999220001CN9999999N9+02341+01241101341ADDAA106000091AG10999GF100991001001999999001001KA1240M+02851MA1999999091611MD1999999-0051REMSYN017333   10285 59005
0137833390999991987042112004-14050-042617FM-12+088299999V0209999999999004201CN0200001N9+02101+01841101461ADDAA106000091AG10999AY101061AY201061GF106991061021004501001001KA1240N+01821MA1999999091711MD1999999-0071MW1011REMSYN017333   20182 59007
0096833390999991987042118004-14050-042617FM-12+088299999V0209999999999220001CN0200001N9+02841+01191101101ADDAA106000091AG10999GF102991021021004501001001MA1999999091421MD1999999+0031REMSYN011333   58003
0115833390999991987042200004-14050-042617FM-12+088299999V0209999999999220001CN9999999N9+02401+01201101261ADDAA106000091AG10001GF100991001001999999001001KA1240M+02851MA1999999091541MD1999999-0071REMSYN017333   10285 59007
0115833390999991987042212004-14050-042617FM-12+088299999V0209999999999220001CN0200001N9+02101+01701101501ADDAA106000091AG10999GF102991021021004501001001KA1240N+01781MA1999999091751MD1999999+0041REMSYN017333   20178 58004
0096833390999991987042218004-14050-042617FM-12+088299999V0209999999999220001CN0200001N9+02891+01181101041ADDAA106000091AG10999GF103991021021004501001021MA1999999091361MD1999999-0061REMSYN011333   59006
0115833390999991987042300004-14050-042617FM-12+088299999V0209999999999220001CN9999999N9+02361+01261101291ADDAA106000091AG10999GF100991001001999999001001KA1240M+02911MA1999999091561MD1999999+0021REMSYN017333   10291 58002
0137833390999991987042312004-14050-042617FM-12+088299999V0209999999999004201CN0200001N9+02101+01821101501ADDAA106000091AG10001AY101061AY201061GF106991061021004501001001KA1240N+01871MA1999999091751MD1999999+0001MW1101REMSYN017333   20187 58000
0115833390999991987042400004-14050-042617FM-12+088299999V0209999999999220001CN9999999N9+02321+01451101191ADDAA106000091AG10999GF100991001001999999001001KA1240M+02951MA1999999091461MD1999999-0101REMSYN017333   10295 59010
0115833390999991987042412004-14050-042617FM-12+088299999V0209999999999220001CN0200001N9+02281+01811101221ADDAA106000091AG10999GF102991021021004501001001KA1240N+01681MA1999999091511MD1999999-0241REMSYN017333   20168 59024
0115833390999991987042512004-14050-042617FM-12+088299999V0209999999999045001CN0200001N9+02151+01931101231ADDAA106000091AG10999GF106991041021004501031001KA1240N+01831MA1999999091511MD1999999+0001REMSYN017333   20183 58000
0124833390999991987042518004-14050-042617FM-12+088299999V0209999999999004201CN0200001N9+02641+01771100901ADDAA106003091AG10999AY161061AY221061GF106991061021004501001001MA1999999091221MD1999999+0181MW1021REMSYN017333   58018 60031
0115833390999991987042600004-14050-042617FM-12+088299999V0209999999999220001CN9999999N9+02141+01861101141ADDAA106000091AG10999GF102991021021004501001001KA1240M+02671MA1999999091411MD1999999+0151REMSYN017333   10267 58015
0143833390999991987042612004-14050-042617FM-12+088299999V0209999999999004201CN0200001N9+02001+01801101371ADDAA124003091AG10999AY161061AY221061GF108991051051004501021999KA1240N+01801MA1999999091601MD1999999+0001MW1021REMSYN023333   20180 58000 60034
0096833390999991987042618004-14050-042617FM-12+088299999V0209999999999220001CN0200001N9+02661+01711100871ADDAA106000091AG10999GF105991041021004501001011MA1999999091191MD1999999-0031REMSYN011333   59003
0137833390999991987042712004-14050-042617FM-12+088299999V0209999999999004201CN0040001N9+02061+02041101441ADDAA106000091AG10999AY101061AY201061GF108991081051004501999999KA1240N+01741MA1999999091691MD1999999+0091MW1101REMSYN017333   20174 58009
0124833390999991987042718004-14050-042617FM-12+088299999V0209999999999004201CN0040001N9+02461+01941100971ADDAA106002091AG10999AY161061AY261061GF107991061021004501031001MA1999999091271MD1999999+0081MW1021REMSYN017333   58008 60021
0115833390999991987042800004-14050-042617FM-12+088299999V0209999999999004201CN9999999N9+02201+01921101341ADDAA106000091AG10999GF106991061021004501001001KA1240M+02751MA1999999091591MD1999999+0121REMSYN017333   10275 58012
0149833390999991987042812004-14050-042617FM-12+088299999V0209999999999004201CN0040001N9+01901+01851101671ADDAA124003091AG10999AY161061AY261061GF108991081051004501999999KA1240N+01781MA1999999091861MD1999999+0171MW1421REMSYN029333   20178 58017 58017 60034
0118833390999991987042818004-14050-042617FM-12+088299999V0209999999999004201CN0040001N9+02421+01861101341ADDAA106000091AG10999AY191061AY261061GF106991051021004501021001MA1999999091591MD1999999+0321MW1021REMSYN011333   58032
0115833390999991987042900004-14050-042617FM-12+088299999V0209999999999004201CN9999999N9+02161+01881101741ADDAA106000091AG10999GF108991061021004501021999KA1240M+02481MA1999999091691MD1999999+0101REMSYN017333   10248 58010
0137833390999991987042912004-14050-042617FM-12+088299999V0209999999999004201CN0040001N9+01921+01801101631ADDAA106000091AG10999AY101061AY201061GF108991081051004501999999KA1240N+01841MA1999999091831MD1999999-0031MW1101REMSYN017333   20184 59003
0096833390999991987042918004-14050-042617FM-12+088299999V0209999999999004201CN0040001N9+02351+01521101391ADDAA106000091AG10999GF108991061021004501021999MA1999999091631MD1999999+0041REMSYN011333   58004
0134833390999991987043000004-14050-042617FM-12+088299999V0209999999999004201CN9999999N9+02791+01741101601ADDAA106000091AG10999GF108991051051004501021999KA1240M+99999MA1999999091801MD1999999+0111REMSYN017333   10244 58011EQDQ01 +02442ATMX  
0135833390999991987043018004-14050-042617FM-12+088299999V0209999999999004201CN0040001N9+01991+01901101291ADDAA106000291AA299000391AG10999AY161061AY261061GF108991051051004501021999MA1999999091161MD1999999-0171MW1501REMSYN017333   59017 69921
0154833390999991987050112004-14050-042617FM-12+088299999V0209999999999004201CN0040001N9+01961+01881101191ADDAA124000291AA299000391AG10999AY191061AY261061GF106991051021004501021001KA1240N+01741MA1999999091511MD1999999-0131MW1101REMSYN023333   20174 59013 69924
0096833390999991987050118004-14050-042617FM-12+088299999V0209999999999004201CN0200001N9+02481+01981100861ADDAA106000091AG10999GF105991051021004501001001MA1999999091151MD1999999-0311REMSYN011333   59031
0126833390999991987050200004-14050-042617FM-12+088299999V0209999999999220001CN9999999N9+02181+01881101081ADDAG10999AY121061AY221061GF102991021021004501001001KA1240M+02501MA1999999091341MD1999999-0251MW1131REMSYN017333   10250 59025
0115833390999991987050212004-14050-042617FM-12+088299999V0209999999999004201CN0200001N9+02161+01921101231ADDAA106000091AG10999GF105991051021004501001001KA1240N+01861MA1999999091491MD1999999-0021REMSYN017333   20186 59002
0135833390999991987050218004-14050-042617FM-12+088299999V0209999999999004201CN0200001N9+02901+01591100661ADDAA106000691AA299000591AG10999AY161061AY221061GF106991061021004501001001MA1999999091031MD1999999-0121MW1021REMSYN017333   59012 69961
0137833390999991987050300004-14050-042617FM-12+088299999V0209999999999220001CN9999999N9+02321+01791100981ADDAA106000091AG10999AY121061AY221061GF102991021021004501001001KA1240M+03031MA1999999091281MD1999999-0061MW1131REMSYN017333   10303 59006
0115833390999991987050312004-14050-042617FM-12+088299999V0209999999999004201CN0200001N9+02261+01941101201ADDAA106000091AG10999GF106991061021004501001001KA1240N+01861MA1999999091491MD1999999+0001REMSYN017333   20186 58000
0115833390999991987050400004-14050-042617FM-12+088299999V0209999999999220001CN9999999N9+02001+01641101161ADDAA106000091AG10999GF100991001001999999001001KA1240M+02911MA1999999091331MD1999999+0151REMSYN017333   10291 58015
0115833390999991987050412004-14050-042617FM-12+088299999V0209999999999220001CN0200001N9+02401+01821101391ADDAA106000091AG10999GF102991021011008001001001KA1240N+01701MA1999999091651MD1999999+0161REMSYN017333   20170 58016
0115833390999991987050500004-14050-042617FM-12+088299999V0209999999999220001CN9999999N9+02401+01891101311ADDAA106000091AG10999GF103991031021004501999999KA1240M+03011MA1999999091621MD1999999+0181REMSYN017333   10301 58018
0137833390999991987050512004-14050-042617FM-12+088299999V0209999999999004201CN0200001N9+02221+01491999999ADDAA106000091AG10999AY101061AY201061GF105991051021004501001001KA1240N+01761MA1999999091751MD1999999+0101MW1101REMSYN017333   20176 58010
0096833390999991987050618004-14050-042617FM-12+088299999V0209999999999220001CN0200001N9+02841+01391999999ADDAA106000091AG10999GF104991041021004501001001MA1999999091381MD1999999+0001REMSYN011333   58000
0115833390999991987050800004-14050-042617FM-12+088299999V0209999999999220001CN9999999N9+02361+01691101301ADDAA106000091AG10999GF102991021021004501001001KA1240M+02851MA1999999091551MD1999999-0061REMSYN017333   10285 59006
0115833390999991987050900004-14050-042617FM-12+088299999V0209999999999220001CN0200001N9+02401+01651101121ADDAA106000091AG10999GF103991031021004501001001KA1240M+03061MA1999999091431MD1999999-0121REMSYN017333   10306 59012
0115833390999991987050912004-14050-042617FM-12+088299999V0209999999999220001CN0200001N9+02461+01711101381ADDAA106000091AG10999GF102991021021004501001001KA1240N+01921MA1999999091681MD1999999-0071REMSYN017333   20192 59007
0115833390999991987051000004-14050-042617FM-12+088299999V0209999999999220001CN9999999N9+02501+01621101241ADDAA106000091AG10999GF104991041021004501001001KA1240M+03231MA1999999091561MD1999999+0131REMSYN017333   10323 58013
0115833390999991987051012004-14050-042617FM-12+088299999V0209999999999220001CN0200001N9+02341+01671101621ADDAA106000091AG10999GF103991031021004501001001KA1240N+01791MA1999999091891MD1999999+0211REMSYN017333   20179 58021
0096833390999991987051018004-14050-042617FM-12+088299999V0209999999999220001CN0200001N9+02801+01921101621ADDAA106000091AG10999GF104991041021004501001001MA1999999091501MD1999999+0181REMSYN011333   58018
0143833390999991987051212004-14050-042617FM-12+088299999V0209999999999004201CN0040001N9+01921+01851101781ADDAA124011091AG10999AY121061AY261061GF106991061021004501001001KA1240N+01701MA1999999091941MD1999999+0011MW1101REMSYN023333   20170 58001 60114
0096833390999991987051218004-14050-042617FM-12+088299999V0209999999999004201CN0200001N9+02391+01501999999ADDAA106000091AG10999GF105991051021004501001001MA1999999091631MD1999999+0031REMSYN011333   58003
0115833390999991987051300004-14050-042617FM-12+088299999V0209999999999220001CN9999999N9+01941+01681101861ADDAA106000091AG10999GF102991021021004501001001KA1240M+02491MA1999999091931MD1999999+0091REMSYN017333   10249 58009
0137833390999991987051312004-14050-042617FM-12+088299999V0209999999999004201CN0040001N9+01821+01671101601ADDAA106000091AG10001AY101061AY201061GF108991081051004501999999KA1240N+01641MA1999999091771MD1999999-0171MW1101REMSYN017333   20164 59017
0096833390999991987051318004-14050-042617FM-12+088299999V0209999999999004201CN0200001N9+02581+01641999999ADDAA106000091AG10999GF105991051021004501001001MA1999999091591MD1999999-0041REMSYN011333   59004
0115833390999991987051400004-14050-042617FM-12+088299999V0209999999999220001CN9999999N9+02221+01621101461ADDAA106000091AG10999GF100991001001999999001001KA1240M+02631MA1999999091661MD1999999-0271REMSYN017333   10263 59027
0137833390999991987051412004-14050-042617FM-12+088299999V0209999999999004201CN0040001N9+01961+01761101311ADDAA106000091AG10999AY101061AY201061GF106991061021004501001001KA1240N+01861MA1999999091551MD1999999-0221MW1101REMSYN017333   20186 59022
0096833390999991987051418004-14050-042617FM-12+088299999V0209999999999004201CN0200001N9+02661+01651999999ADDAA106000091AG10999GF106991061021004501001001MA1999999091281MD1999999-0311REMSYN011333   59031
0115833390999991987051500004-14050-042617FM-12+088299999V0209999999999220001CN9999999N9+02191+01721101271ADDAA106000091AG10999GF100991001001999999001001KA1240M+02691MA1999999091511MD1999999-0151REMSYN017333   10269 59015
0096833390999991987051518004-14050-042617FM-12+088299999V0209999999999220001CN0200001N9+02781+01011999999ADDAA106000091AG10999GF100991001001999999001001MA1999999091281MD1999999+0001REMSYN011333   58000
0115833390999991987051600004-14050-042617FM-12+088299999V0209999999999220001CN9999999N9+02361+01431101101ADDAA106000091AG10999GF100991001001999999001001KA1240M+02831MA1999999091391MD1999999-0121REMSYN017333   10283 59012
0115833390999991987051612004-14050-042617FM-12+088299999V0209999999999220001CN0200001N9+02181+01761101441ADDAA106000091AG10999GF102991021021004501001001KA1240N+01541MA1999999091701MD1999999+0181REMSYN017333   20154 58018
0062833390999991987051618004-14050-042617FM-12+088299999V0209999999999220001CN0200001N9+02831+01351999999ADDAA106000091AG10999GF102991021021004501001001MA1999999091291
0115833390999991987051712004-14050-042617FM-12+088299999V0209999999999004201CN0200001N9+02041+01681101541ADDAA106000091AG10999GF105991051021004501001001KA1240N+01801MA1999999091721MD1999999+0081REMSYN017333   20180 58008
0096833390999991987051718004-14050-042617FM-12+088299999V0209999999999220001CN0200001N9+02661+01371999999ADDAA106000091AG10999GF103991031021004501001001MA1999999091441MD1999999+0151REMSYN011333   58015
0137833390999991987051812004-14050-042617FM-12+088299999V0209999999999004201CN0200001N9+02001+01721101531ADDAA106000091AG10999AY101061AY201061GF106991061021004501001001KA1240N+01841MA1999999091761MD1999999-0021MW1101REMSYN017333   20184 59002
0096833390999991987051818004-14050-042617FM-12+088299999V0209999999999220001CN0200001N9+02541+01341101141ADDAA106000091AG10999GF103991031021004501001001MA1999999091391MD1999999-0051REMSYN011333   59005
0096833390999991987051918004-14050-042617FM-12+088299999V0209999999999220001CN0200001N9+02721+01591999999ADDAA106000091AG10999GF103991031021004501001001MA1999999091171MD1999999-0221REMSYN011333   59022
0115833390999991987052000004-14050-042617FM-12+088299999V0209999999999220001CN9999999N9+02181+01561101101ADDAA106000091AG10999GF100991001001999999001001KA1240M+02731MA1999999091351MD1999999-0221REMSYN017333   10273 59022
0115833390999991987052012004-14050-042617FM-12+088299999V0209999999999220001CN0200001N9+02281+02171101101ADDAA106000091AG10999GF100991001001999999001001KA1240N+01641MA1999999091371MD1999999-0291REMSYN017333   20164 59029
0115833390999991987052112004-14050-042617FM-12+088299999V0209999999999220001CN0200001N9+02481+01651101041ADDAA106000091AG10999GF102991021021004501001001KA1240N+01861MA1999999091391MD1999999+0001REMSYN017333   20186 58000
0096833390999991987052118004-14050-042617FM-12+088299999V0209999999999220001CN0200001N9+03121+01481999999ADDAA106000091AG10999GF104991041021004501001001MA1999999091051MD1999999-0011REMSYN011333   59001
0115833390999991987052212004-14050-042617FM-12+088299999V0209999999999004201CN0200001N9+02581+01641101121ADDAA106000091AG10999GF106991051021004501031001KA1240N+02131MA1999999091481MD1999999+0091REMSYN017333   20213 58009
0096833390999991987052218004-14050-042617FM-12+088299999V0209999999999004201CN0200001N9+03221+01391999999ADDAA106000091AG10999GF105991051021004501001001MA1999999091051MD1999999+0001REMSYN011333   58000
0115833390999991987052300004-14050-042617FM-12+088299999V0209999999999220001CN9999999N9+02561+01501101061ADDAA106000091AG10001GF102991021021004501001001KA1240M+03251MA1999999091421MD1999999-0061REMSYN017333   10325 59006
0134833390999991987052312004-14050-042617FM-12+088299999V0209999999999220001CN0200001N9+02441+01811101301ADDAA106000091AG10999GF102991021021004501001001KA1240N+01921MA1999999999999MD1999999+0141REMSYN017333   20192 58014EQDQ01 101623APOSP 
0115833390999991987052318004-14050-042617FM-12+088299999V0209999999999220001CN0200001N9+02921+01381999999ADDAA106000091AG10999GF103991031021004501001001MA1999999091302MD1999999+0251REMSYN011333   58025EQDQ01+091303APOSP 
0115833390999991987052400004-14050-042617FM-12+088299999V0209999999999220001CN9999999N9+02441+01511101181ADDAA106000091AG10999GF100991001001999999001001KA1240M+02961MA1999999091501MD1999999+0081REMSYN017333   10296 58008
0115833390999991987052412004-14050-042617FM-12+088299999V0209999999999220001CN0200001N9+02181+01631101551ADDAA106000091AG10999GF102991021021004501001001KA1240N+01811MA1999999091821MD1999999+0191REMSYN017333   20181 58019
0096833390999991987052418004-14050-042617FM-12+088299999V0209999999999220001CN0200001N9+02821+01441999999ADDAA106000091AG10999GF102991021021004501001001MA1999999091381MD1999999+0081REMSYN011333   58008
0096833390999991987052518004-14050-042617FM-12+088299999V0209999999999220001CN0200001N9+02801+01961999999ADDAA106000091AG10999GF104991041021004501001001MA1999999091461MD1999999+0081REMSYN011333   58008
0115833390999991987052600004-14050-042617FM-12+088299999V0209999999999220001CN9999999N9+02361+01511101511ADDAA106000091AG10999GF100991001001999999001001KA1240M+02871MA1999999091771MD1999999+0171REMSYN017333   10287 58017
0137833390999991987052612004-14050-042617FM-12+088299999V0209999999999004201CN0040001N9+02081+01801101551ADDAA106000091AG10999AY101061AY201061GF108991081051004501999999KA1240N+01961MA1999999091811MD1999999+0001MW1101REMSYN017333   20196 58000
0096833390999991987052618004-14050-042617FM-12+088299999V0209999999999004201CN0200001N9+02501+01391999999ADDAA106000091AG10999GF105991051021004501001001MA1999999091471MD1999999+0011REMSYN011333   58001
0115833390999991987052700004-14050-042617FM-12+088299999V0209999999999220001CN9999999N9+01981+01641101811ADDAA106000091AG10999GF102991021021004501001001KA1240M+02571MA1999999091991MD1999999+0221REMSYN017333   10257 58022
0096833390999991987052718004-14050-042617FM-12+088299999V0209999999999220001CN0200001N9+02561+01441999999ADDAA106000091AG10999GF102991021021004501001001MA1999999091461MD1999999-0011REMSYN011333   59001
0084833390999991987052812004-14050-042617FM-12+088299999V0209999999999004201CN0200001N9+01891+01601101861ADDAA106000091AG10999AY101061AY201061GF105991051021004501001001MA1999999091931MW1101
0096833390999991987052818004-14050-042617FM-12+088299999V0209999999999220001CN0200001N9+02691+01421999999ADDAA106000091AG10999GF102991021021004501001001MA1999999091471MD1999999-0011REMSYN011333   59001
0115833390999991987052900004-14050-042617FM-12+088299999V0209999999999220001CN9999999N9+02201+01281101591ADDAA106000091AG10999GF100991001001999999001001KA1240M+02691MA1999999091791MD1999999+0291REMSYN017333   10269 58029
0115833390999991987052912004-14050-042617FM-12+088299999V0209999999999220001CN0200001N9+02041+01521101831ADDAA106000091AG10999GF100991001001999999001001KA1240N+01441MA1999999092021MD1999999+0091REMSYN017333   20144 58009
0096833390999991987052918004-14050-042617FM-12+088299999V0209999999999220001CN0200001N9+02731+01281999999ADDAA106000091AG10999GF102991021021004501001001MA1999999091691MD1999999-0221REMSYN011333   59022
0115833390999991987053012004-14050-042617FM-12+088299999V0209999999999220001CN0200001N9+02321+01451101761ADDAA106000091AG10999GF100991001001999999001001KA1240N+01661MA1999999092001MD1999999-0021REMSYN017333   20166 59002
0096833390999991987053018004-14050-042617FM-12+088299999V0209999999999220001CN0200001N9+02981+01351999999ADDAA106000091AG10999GF105991041021004501001011MA1999999091641MD1999999-0011REMSYN011333   59001
0115833390999991987053112004-14050-042617FM-12+088299999V0209999999999004201CN0200001N9+02051+01721101801ADDAA106000091AG10999GF106991061021004501001001KA1240N+01841MA1999999092031MD1999999+0031REMSYN017333   20184 58003
0096833390999991987053118004-14050-042617FM-12+088299999V0209999999999220001CN0200001N9+02781+01411999999ADDAA106000091AG10999GF103991031021004501001001MA1999999091661MD1999999-0011REMSYN011333   59001
0134833390999991987060112004-14050-042617FM-12+088299999V0209999999999220001CN0200001N9+02201+01601101701ADDAA106000091AG10999GF100991001001999999001001KA1240N+99999MA1999999091921MD1999999-0111REMSYN017333   20254 59011EQDQ01 +02542ATMN  
0115833390999991987060212004-14050-042617FM-12+088299999V0209999999999220001CN0200001N9+01991+01521101581ADDAA106000091AG10999GF102991011021004501001021KA1240N+01921MA1999999091851MD1999999-0101REMSYN017333   20192 59010
0096833390999991987060218004-14050-042617FM-12+088299999V0209999999999220001CN0200001N9+02741+01261999999ADDAA106000091AG10999GF103991021021004501001021MA1999999091501MD1999999-0141REMSYN011333   59014
0115833390999991987060300004-14050-042617FM-12+088299999V0209999999999220001CN9999999N9+02121+01231101311ADDAA106000091AG10999GF100991001001999999001001KA1240M+02751MA1999999091751MD1999999+0031REMSYN017333   10275 58003
0137833390999991987060312004-14050-042617FM-12+088299999V0209999999999004201CN0040001N9+01821+01531101621ADDAA106000091AG10999AY101061AY201061GF108991081051004501999999KA1240N+01671MA1999999091851MD1999999+0031MW1101REMSYN017333   20167 58003
0096833390999991987060318004-14050-042617FM-12+088299999V0209999999999004201CN0200001N9+02561+01411999999ADDAA106000091AG10999GF106991051021004501021001MA1999999091501MD1999999+0001REMSYN011333   58000
0137833390999991987060412004-14050-042617FM-12+088299999V0209999999999004201CN0200001N9+99999+99999101481ADDAA106000091AG10999AY101061AY201061GF106991051021004501021001KA1240N+01561MA1999999099671MD1999999-0131MW1101REMSYN017333   20156 59013
0115833390999991987060418004-14050-042617FM-12+088299999V0209999999999004201CN0200001N9+02351+01271999999ADDAA106000091AG10999GF106991051021004501041001MA1999999091552MD1999999+0051REMSYN011333   58005EQDQ01+091553APOSP 
0115833390999991987060512004-14050-042617FM-12+088299999V0209999999999220001CN0200001N9+01981+01611101511ADDAA106000091AG10999GF102991021021004501001001KA1240N+01441MA1999999091731MD1999999+0061REMSYN017333   20144 58006
0096833390999991987060518004-14050-042617FM-12+088299999V0209999999999220001CN0200001N9+02701+01411999999ADDAA106000091AG10999GF102991021021004501001001MA1999999091471MD1999999-0081REMSYN011333   59008
0137833390999991987060612004-14050-042617FM-12+088299999V0209999999999220001CN0200001N9+02061+01721101371ADDAA106000091AG10999AY101061AY201061GF102991021021004501001001KA1240N+01581MA1999999091621MD1999999-0111MW1101REMSYN017333   20158 59011
0096833390999991987060618004-14050-042617FM-12+088299999V0209999999999220001CN0200001N9+02761+01161999999ADDAA106000091AG10999GF102991021021004501001001MA1999999091451MD1999999-0021REMSYN011333   59002
0115833390999991987060712004-14050-042617FM-12+088299999V0209999999999220001CN0200001N9+02141+01591101461ADDAA106000091AG10999GF100991001001999999001001KA1240N+01541MA1999999091711MD1999999+0091REMSYN017333   20154 58009
0096833390999991987060718004-14050-042617FM-12+088299999V0209999999999220001CN0200001N9+02741+01301999999ADDAA106000091AG10999GF102991021011004501001001MA1999999091501MD1999999+0051REMSYN011333   58005
0115833390999991987060812004-14050-042617FM-12+088299999V0209999999999220001CN0200001N9+99999+99999101501ADDAA106000091AG10999GF100991001001999999001001KA1240N+01541MA1999999091741MD1999999+0031REMSYN017333   20154 58003
0096833390999991987060818004-14050-042617FM-12+088299999V0209999999999220001CN0200001N9+02641+01581999999ADDAA106000091AG10999GF100991001001999999001001MA1999999091721MD1999999+0221REMSYN011333   58022
0115833390999991987060912004-14050-042617FM-12+088299999V0209999999999220001CN0200001N9+02061+01621101811ADDAA106000091AG10999GF102991021011008001001001KA1240N+01741MA1999999092031MD1999999+0291REMSYN017333   20174 58029
0096833390999991987060918004-14050-042617FM-12+088299999V0209999999999220001CN0200001N9+02701+01301999999ADDAA106000091AG10999GF102991021021004501001001MA1999999091591MD1999999-0121REMSYN011333   59012
0115833390999991987061018004-14050-042617FM-12+088299999V02099999999999999999N0200001N9+02381+01501999999ADDAA106000091AG10999GF105991999021004501001001MA1999999091561MD1999999-0031REMSYN011333   59003EQDQ01+000042SCOTLC
0115833390999991987061112004-14050-042617FM-12+088299999V0209999999999220001CN0200001N9+02021+01501101721ADDAA106000091AG10999GF103991031021004501001001KA1240N+01701MA1999999091911MD1999999+0021REMSYN017333   20170 58002
0115833390999991987061212004-14050-042617FM-12+088299999V0209999999999004201CN0200001N9+01951+01631101731ADDAA106000091AG10999GF108991051051004501031999KA1240N+01801MA1999999091921MD1999999+0011REMSYN017333   20180 58001
0096833390999991987061218004-14050-042617FM-12+088299999V0209999999999220001CN0500001N9+02621+01561999999ADDAA106000091AG10999GF105991031021004501001011MA1999999091711MD1999999+0101REMSYN011333   58010
0096833390999991987061318004-14050-042617FM-12+088299999V0209999999999004201CN0200001N9+02501+01671999999ADDAA106000091AG10999GF108991061051004501021999MA1999999091701MD1999999-0011REMSYN011333   59001
0096833390999991987061418004-14050-042617FM-12+088299999V0209999999999220001CN0200001N9+02701+01511999999ADDAA106000091AG10999GF103991031021004501001001MA1999999091511MD1999999-0191REMSYN011333   59019
0143833390999991987061512004-14050-042617FM-12+088299999V0209999999999004201CN0010001N9+01801+01701101701ADDAA124004091AG10999AY161061AY241061GF108991051051004501021999KA1240N+01741MA1999999091891MD1999999+0011MW1401REMSYN023333   20174 58001 60044
0115833390999991987061612004-14050-042617FM-12+088299999V0209999999999220001CN0200001N9+02101+01531101551ADDAA106000091AG10999GF102991021021004501001001KA1240N+01421MA1999999091771MD1999999-0121REMSYN017333   20142 59012
0096833390999991987061618004-14050-042617FM-12+088299999V0209999999999220001CN0200001N9+02781+01301999999ADDAA106000091AG10001GF102991021021004501001001MA1999999091571MD1999999+0041REMSYN011333   58004
0115833390999991987061712004-14050-042617FM-12+088299999V0209999999999220001CN0200001N9+02081+01541101821ADDAA106000091AG10999GF102991021021004501001001KA1240N+01761MA1999999092041MD1999999+0271REMSYN017333   20176 58027
0096833390999991987061718004-14050-042617FM-12+088299999V0209999999999220001CN0200001N9+02721+01281999999ADDAA106000091AG10999GF103991011021004501001011MA1999999091711MD1999999+0171REMSYN011333   58017
0115833390999991987061912004-14050-042617FM-12+088299999V0209999999999220001CN0200001N9+02061+01621101881ADDAA106000091AG10999GF104991041021004501001001KA1240N+01531MA1999999092071MD1999999-0051REMSYN017333   20153 59005
0096833390999991987061918004-14050-042617FM-12+088299999V0209999999999220001CN0200001N9+02801+01351999999ADDAA106000091AG10999GF102991021021004501001001MA1999999091671MD1999999-0061REMSYN011333   59006
0115833390999991987062012004-14050-042617FM-12+088299999V0209999999999220001CN0200001N9+02101+01641101771ADDAA106000091AG10999GF103991031021004501001001KA1240N+01511MA1999999091991MD1999999-0181REMSYN017333   20151 59018
0096833390999991987062018004-14050-042617FM-12+088299999V0209999999999220001CN0200001N9+02731+01281999999ADDAA106000091AG10999GF102991021021004501001001MA1999999091631MD1999999-0041REMSYN011333   59004
0115833390999991987062112004-14050-042617FM-12+088299999V0209999999999004201CN0200001N9+01941+01641101901ADDAA106000091AG10999GF106991061021004501001001KA1240N+01701MA1999999092081MD1999999-0091REMSYN017333   20170 59009
0096833390999991987062118004-14050-042617FM-12+088299999V0209999999999220001CN0200001N9+02661+01371999999ADDAA106000091AG10999GF104991041021004501001001MA1999999091661MD1999999+0031REMSYN011333   58003
0096833390999991987062218004-14050-042617FM-12+088299999V0209999999999220001CN0200001N9+02681+01421999999ADDAA106000091AG10999GF102991021021004501001001MA1999999091661MD1999999+0001REMSYN011333   58000
0115833390999991987062312004-14050-042617FM-12+088299999V0209999999999220001CN0200001N9+02081+01681101901ADDAA106000091AG10999GF102991021021004501001001KA1240N+01521MA1999999092101MD1999999+0011REMSYN017333   20152 58001
0096833390999991987062318004-14050-042617FM-12+088299999V0209999999999220001CN0200001N9+02881+01391999999ADDAA106000091AG10999GF103991031021004501001001MA1999999091641MD1999999-0021REMSYN011333   59002
0115833390999991987062412004-14050-042617FM-12+088299999V0209999999999220001CN0200001N9+02241+01621101741ADDAA106000091AG10999GF100991001001999999001001KA1240N+01641MA1999999091971MD1999999-0131REMSYN017333   20164 59013
0115833390999991987062512004-14050-042617FM-12+088299999V0209999999999004201CN0200001N9+01841+01471102081ADDAA106000091AG10999GF108991051051004501021999KA1240N+01711MA1999999092251MD1999999+0281REMSYN017333   20171 58028
0085833390999991987062518004-14050-042617FM-12+088299999V0209999999999004201CN0200001N9+02201+01271999999ADDAG10999GF108991061051004501021999MA1999999092071MD1999999+0361REMSYN011333   58036
0115833390999991987062612004-14050-042617FM-12+088299999V0209999999999004201CN0200001N9+01681+01391102221ADDAA106000091AG10999GF108991061051004501021999KA1240N+01501MA1999999092321MD1999999+0071REMSYN017333   20150 58007
0115833390999991987062712004-14050-042617FM-12+088299999V0209999999999004201CN0200001N9+01561+01061102221ADDAA106000091AG10999GF106991061021004501001001KA1240N+01191MA1999999092291MD1999999-0031REMSYN017333   20119 59003
0096833390999991987062718004-14050-042617FM-12+088299999V0209999999999220001CN0200001N9+02151+01071999999ADDAA106000091AG10999GF106991041021004501001011MA1999999092031MD1999999-0041REMSYN011333   59004
0096833390999991987062818004-14050-042617FM-12+088299999V0209999999999004201CN0200001N9+01901+01201999999ADDAA106000091AG10999GF108991081051004501999999MA1999999092041MD1999999+0011REMSYN011333   58001
0137833390999991987062912004-14050-042617FM-12+088299999V0209999999999004201CN0100001N9+01471+01421102241ADDAA106000091AG10999AY141061AY221061GF108991051051004501021999KA1240N+01341MA1999999092221MD1999999-0021MW1401REMSYN017333   20134 59002
0118833390999991987062918004-14050-042617FM-12+088299999V0209999999999004201CN0200001N9+02181+01441999999ADDAA106000091AG10999AY141061AY221061GF105991051021004501001001MA1999999091981MD1999999-0061MW1021REMSYN011333   59006
0135833390999991987063018004-14050-042617FM-12+088299999V0209999999999004201CN0010001N9+02061+01841999999ADDAA106000691AA299000591AG10999AY161061AY261061GF108991081051004501999999MA1999999091851MD1999999-0101MW1101REMSYN017333   59010 69961
0096833390999991987070118004-14050-042617FM-12+088299999V0209999999999220001CN0200001N9+02381+01421999999ADDAA106000091AG10999GF102991021021004501001001MA1999999091641MD1999999-0211REMSYN011333   59021
0115833390999991987070312004-14050-042617FM-12+088299999V0209999999999004201CN0200001N9+02841+01061101971ADDAA106000091AG10999GF108991051051004501021999KA1240N+01741MA1999999092141MD1999999+0131REMSYN017333   20174 58013
0115833390999991987070412004-14050-042617FM-12+088299999V0209999999999004201CN0200001N9+01781+01491101871ADDAA106000091AG10999GF106991061021004501001001KA1240N+01571MA1999999092031MD1999999-0111REMSYN017333   20157 59011
0096833390999991987070418004-14050-042617FM-12+088299999V0209999999999220001CN0200001N9+02521+01281999999ADDAA106000091AG10999GF102991021021004501001001MA1999999091691MD1999999-0051REMSYN011333   59005
0115833390999991987070512004-14050-042617FM-12+088299999V0209999999999220001CN0200001N9+01891+01431101801ADDAA106000091AG10999GF100991001001999999001001KA1240N+01491MA1999999091971MD1999999-0061REMSYN017333   20149 59006
0096833390999991987070518004-14050-042617FM-12+088299999V0209999999999220001CN0200001N9+02541+01081999999ADDAA106000091AG10999GF102991021021008001001001MA1999999091661MD1999999-0031REMSYN011333   59003
0115833390999991987070612004-14050-042617FM-12+088299999V0209999999999004201CN0200001N9+01841+01431101971ADDAA106000091AG10999GF105991051021004501001001KA1240N+01621MA1999999092111MD1999999+0141REMSYN017333   20162 58014
0096833390999991987070618004-14050-042617FM-12+088299999V0209999999999220001CN0200001N9+02441+01331999999ADDAA106000091AG10999GF103991031021004501001001MA1999999091801MD1999999+0141REMSYN011333   58014
0137833390999991987070712004-14050-042617FM-12+088299999V0209999999999004201CN0200001N9+99999+99999101451ADDAA106000091AG10999AY101061AY201061GF106991061021004501001001KA1240N+01591MA1999999092001MD1999999-0111MW1101REMSYN017333   20159 59011
0081833390999991987070718004-14050-042617FM-12+088299999V0209999999999220001CN0200001N9+02281+01511999999ADDAA106000091AG10001GF104991041021004501001001MD1999999-0041REMSYN011333   59004
0115833390999991987070812004-14050-042617FM-12+088299999V0209999999999004201CN0200001N9+01761+01521101931ADDAA106000091AG10999GF106991061021004501001001KA1240N+01601MA1999999092071MD1999999+0071REMSYN017333   20160 58007
0096833390999991987070818004-14050-042617FM-12+088299999V0209999999999220001CN0200001N9+02461+01521999999ADDAA106000091AG10999GF103991031021004501001001MA1999999091681MD1999999-0081REMSYN011333   59008
0137833390999991987070912004-14050-042617FM-12+088299999V0209999999999004201CN0040001N9+01821+01601101881ADDAA106000091AG10999AY101061AY201061GF108991081051004501999999KA1240N+01631MA1999999092041MD1999999-0031MW1101REMSYN017333   20163 59003
0156833390999991987071012004-14050-042617FM-12+088299999V0209999999999220001CN0200001N9+01921+01591101791ADDAA106000091AG10999AY101061AY201061GF103991999021004501001001KA1240N+01461MA1999999091951MD1999999-0091MW1101REMSYN017333   20146 59009EQDQ01+000022SCOTLC
0096833390999991987071018004-14050-042617FM-12+088299999V0209999999999220001CN0200001N9+02681+01051999999ADDAA106000091AG10999GF102991021021004501001001MA1999999091891MD1999999+0101REMSYN011333   58010
0115833390999991987071112004-14050-042617FM-12+088299999V0209999999999220001CN0200001N9+01961+01831101611ADDAA106000091AG10001GF102991021021004501001001KA1240N+01661MA1999999091861MD1999999-0121REMSYN017333   20166 59012
0096833390999991987071118004-14050-042617FM-12+088299999V0209999999999220001CN0200001N9+02561+01101999999ADDAA106000091AG10999GF104991041021004501001001MA1999999091491MD1999999-0401REMSYN011333   59040
0096833390999991987071218004-14050-042617FM-12+088299999V0209999999999220001CN0200001N9+02721+01241999999ADDAA106000091AG10999GF102991021021004501001001MA1999999091501MD1999999+0101REMSYN011333   58010
0137833390999991987071312004-14050-042617FM-12+088299999V0209999999999004201CN0200001N9+01921+01611101701ADDAA106000091AG10999AY101061AY201061GF106991061021004501001001KA1240N+01701MA1999999091911MD1999999-0041MW1101REMSYN017333   20170 59004
0096833390999991987071318004-14050-042617FM-12+088299999V0209999999999220001CN0200001N9+02741+01411999999ADDAA106000091AG10999GF102991021021004501001001MA1999999091551MD1999999+0051REMSYN011333   58005
0115833390999991987071412004-14050-042617FM-12+088299999V0209999999999220001CN0200001N9+99999+99999101661ADDAA106000091AG10999GF102991021021004501001001KA1240N+02521MA1999999091891MD1999999-0021REMSYN017333   20252 59002
0096833390999991987071418004-14050-042617FM-12+088299999V0209999999999220001CN0200001N9+02721+01241999999ADDAA106000091AG10999GF102991021021004501001001MA1999999091471MD1999999-0081REMSYN011333   59008
0115833390999991987071512004-14050-042617FM-12+088299999V0209999999999220001CN0200001N9+01951+01571101611ADDAA106000091AG10999GF103991031021004501001001KA1240N+01381MA1999999091861MD1999999-0061REMSYN017333   20138 59006
0096833390999991987071518004-14050-042617FM-12+088299999V0209999999999220001CN0200001N9+02621+01151999999ADDAA106000091AG10999GF100991001001999999001001MA1999999091491MD1999999+0021REMSYN011333   58002
0096833390999991987071618004-14050-042617FM-12+088299999V0209999999999220001CN0200001N9+02601+01281999999ADDAA106000091AG10999GF102991021021004501001001MA1999999091621MD1999999+0131REMSYN011333   58013
0137833390999991987071712004-14050-042617FM-12+088299999V0209999999999220001CN0200001N9+01901+01641101611ADDAA106000091AG10999AY101061AY201061GF102991021021004501001001KA1240N+01481MA1999999091831MD1999999+0111MW1101REMSYN017333   20148 58011
0096833390999991987071718004-14050-042617FM-12+088299999V0209999999999220001CN0200001N9+02561+01171999999ADDAA106000091AG10999GF102991021021004501001001MA1999999091511MD1999999-0111REMSYN011333   59011
0115833390999991987071812004-14050-042617FM-12+088299999V0209999999999004201CN0200001N9+01861+01431101751ADDAA106000091AG10999GF106991061021004501001001KA1240N+01581MA1999999091931MD1999999+0101REMSYN017333   20158 58010
0096833390999991987071918004-14050-042617FM-12+088299999V0209999999999220001CN0200001N9+02541+00931999999ADDAA106000091AG10999GF102991021021004501001001MA1999999091691MD1999999+0041REMSYN011333   58004
0115833390999991987072012004-14050-042617FM-12+088299999V0209999999999004201CN0200001N9+01821+01351101921ADDAA106000091AG10999GF106991061021004501001001KA1240N+01581MA1999999092071MD1999999+0051REMSYN017333   20158 58005
0137833390999991987072112004-14050-042617FM-12+088299999V0209999999999004201CN0040001N9+01761+01521101901ADDAA106000091AG10999AY101061AY201061GF108991081051004501999999KA1240N+01601MA1999999092051MD1999999-0021MW1101REMSYN017333   20160 59002
0096833390999991987072118004-14050-042617FM-12+088299999V0209999999999004201CN0200001N9+02401+01551999999ADDAA106000091AG10999GF106991061021004501001001MA1999999091681MD1999999-0031REMSYN011333   59003
0115833390999991987072212004-14050-042617FM-12+088299999V0209999999999220001CN0200001N9+02091+01601101771ADDAA106000091AG10999GF102991021021004501001001KA1240N+01411MA1999999091951MD1999999-0121REMSYN017333   20141 59012
0096833390999991987072218004-14050-042617FM-12+088299999V0209999999999220001CN0200001N9+02601+01281999999ADDAA106000091AG10999GF104991041021004501001001MA1999999091791MD1999999+0111REMSYN011333   58011
0115833390999991987072300004-14050-042617FM-12+088299999V0209999999999220001CN9999999N9+02301+01041101431ADDAA106000091AG10999GF100991001001999999001001KA1240M+02691MA1999999091681MD1999999-0091REMSYN017333   10269 59009
0115833390999991987072312004-14050-042617FM-12+088299999V0209999999999045001CN0200001N9+01881+01431101781ADDAA106000091AG10999GF105991041021004501021001KA1240N+01641MA1999999091971MD1999999+0021REMSYN017333   20164 58002
0096833390999991987072318004-14050-042617FM-12+088299999V0209999999999220001CN0200001N9+02251+01321999999ADDAA106000091AG10999GF102991021021004501001001MA1999999091701MD1999999-0091REMSYN011333   59009
0115833390999991987072412004-14050-042617FM-12+088299999V0201401N00571004201CN0040001N9+01671+01261101951ADDAA106000091AG10999GF108991061051004501021999KA1240N+01461MA1999999092081MD1999999+0111REMSYN017333   20146 58011
0096833390999991987072418004-14050-042617FM-12+088299999V0209999999999220001CN0200001N9+02281+01061999999ADDAA106000091AG10999GF103991031021004501001001MA1999999091911MD1999999+0211REMSYN011333   58021
0096833390999991987072518004-14050-042617FM-12+088299999V0200901N00311004201CN0200001N9+02381+01151101941ADDAA106000091AG10999GF106991061021004501001001MA1999999091841MD1999999-0071REMSYN011333   59007
0115833390999991987072612004-14050-042617FM-12+088299999V0201401N00411004201CN0200001N9+01821+01531101741ADDAA106000091AG10999GF106991061021004501001001KA1240N+01601MA1999999091891MD1999999-0201REMSYN017333   20160 59020
0096833390999991987072618004-14050-042617FM-12+088299999V0200901N00821004201CN0200001N9+02441+01451999999ADDAA106000091AG10999GF106991061021004501001001MA1999999091581MD1999999-0301REMSYN011333   59030
0143833390999991987072712004-14050-042617FM-12+088299999V0201401N00571004201CN0040001N9+01581+01421101821ADDAA124003091AG10999AY161061AY261061GF108991081051004501999999KA1240N+01541MA1999999091951MD1999999+0061MW1501REMSYN023333   20154 58006 60034
0118833390999991987072718004-14050-042617FM-12+088299999V0200901N00461004201CN0200001N9+02281+01461999999ADDAA106000091AG10999AY191061AY261061GF106991061021004501001001MA1999999091611MD1999999+0031MW1021REMSYN011333   58003
0115833390999991987072812004-14050-042617FM-12+088299999V0200901N00511004201CN0200001N9+01791+01411101701ADDAA106000091AG10999GF106991061021004501001001KA1240N+01571MA1999999091861MD1999999-0091REMSYN017333   20157 59009
0096833390999991987072818004-14050-042617FM-12+088299999V0201401N00311220001CN0200001N9+02201+00811101231ADDAA106000091AG10999GF102991021021004501001001MA1999999091501MD1999999-0121REMSYN011333   59012
0115833390999991987072912004-14050-042617FM-12+088299999V0201401N00361004201CN0200001N9+01861+01431101561ADDAA106000091AG10999GF106991061021004501001001KA1240N+01651MA1999999091751MD1999999-0111REMSYN017333   20165 59011
0096833390999991987072918004-14050-042617FM-12+088299999V0200201N00261220001CN0200001N9+02781+00721101151ADDAA106000091AG10999GF103991031021004501001001MA1999999091411MD1999999-0091REMSYN011333   59009
0115833390999991987073012004-14050-042617FM-12+088299999V0200901N00311220001CN0200001N9+02081+01351101451ADDAA106000091AG10999GF102991021021004501001001KA1240N+01441MA1999999091691MD1999999-0061REMSYN017333   20144 59006
0096833390999991987073018004-14050-042617FM-12+088299999V0201401N00311004201CN0200001N9+02741+00931100991ADDAA106000091AG10999GF105991051021004501001001MA1999999091281MD1999999-0131REMSYN011333   59013
0115833390999991987073112004-14050-042617FM-12+088299999V0202701N00461220001CN0200001N9+02401+00991101081ADDAA106000091AG10999GF100991001001999999001001KA1240N+01911MA1999999091391MD1999999-0301REMSYN017333   20191 59030
0096833390999991987073118004-14050-042617FM-12+088299999V0203201N00411220001CN0200001N9+02861+00881100801ADDAA106000091AG10999GF103991021021004501001021MA1999999091181MD1999999-0101REMSYN011333   59010
0143833390999991987080112004-14050-042617FM-12+088299999V0201401N00571004201CN0200001N9+01681+01041101511ADDAA124001091AG10999AY191061AY261061GF106991061021004501001001KA1240N+01561MA1999999091711MD1999999+0321MW1021REMSYN023333   20156 58032 60014
0137833390999991987080312004-14050-042617FM-12+088299999V0202401N00211004201CN0040001N9+01641+01411101721ADDAA106000091AG10999AY101061AY201061GF108991081051004501999999KA1240N+01521MA1999999091871MD1999999+0011MW1101REMSYN017333   20152 58001
0096833390999991987080318004-14050-042617FM-12+088299999V0202701N00311220001CN0200001N9+02701+00691101161ADDAA106000091AG10999GF104991041021004501001001MA1999999091441MD1999999-0131REMSYN011333   59013
0115833390999991987080400004-14050-042617FM-12+088299999V0201401N00311220001CN9999999N9+02241+01051101321ADDAA106000091AG10999GF102991021021004501001001KA1240M+02801MA1999999091541MD1999999-0191REMSYN017333   10280 59019
0115833390999991987080412004-14050-042617FM-12+088299999V0201401N00671004201CN0200001N9+01881+01471101661ADDAA106000091AG10999GF105991051021004501001001KA1240N+01661MA1999999091851MD1999999-0021REMSYN017333   20166 59002
