0115833440999991987010100004-14950-040883FM-12+0893SBQV V0200501N00211220001CN9999999N9+02141+01801101391ADDAA106000091AG10999GF100991001001999999001001KA1240M+02871MA1999999091471MD1999999+0131REMSYN017333   10287 58013
0115833440999991987010112004-14950-040883FM-12+0893SBQV V0200901N002119999999N0200001N9+02311+01831101631ADDAA106000091AG10999GF106991061001004501061001KA1240N+01821MA1999999091681MD1999999+0221REMSYN017333   20182 58022
0096833440999991987010118004-14950-040883FM-12+0893SBQV V0201401N00361004201CN0200001N9+02591+01891101361ADDAA106000091AG10999GF106991061091004501001001MA1999999091441MD1999999+0271REMSYN011333   58027
0115833440999991987010200004-14950-040883FM-12+0893SBQV V0200901N00261220001CN9999999N9+02101+01841101521ADDAA106000091AG10999GF100991001001999999001001KA1240M+02711MA1999999091571MD1999999+0111REMSYN017333   10271 58011
0115833440999991987010212004-14950-040883FM-12+0893SBQV V0200901N00311004201CN0200001N9+02451+01741101581ADDAA106000091AG10999GF106991061041004501001001KA1240N+01801MA1999999091641MD1999999-0041REMSYN017333   20180 59004
0096833440999991987010218004-14950-040883FM-12+0893SBQV V0201401N00311004201CN0200001N9+02641+02001101311ADDAA106000091AG10999GF105991051021004501001001MA1999999091391MD1999999-0051REMSYN011333   59005
0115833440999991987010300004-14950-040883FM-12+0893SBQV V0200901N00261220001CN9999999N9+02161+01971101391ADDAA106000091AG10999GF104991041021004501001001KA1240M+02751MA1999999091471MD1999999-0101REMSYN017333   10275 59010
0115833440999991987010312004-14950-040883FM-12+0893SBQV V0200901N00211004201CN0100001N9+02221+01881101641ADDAA106000091AG10999GF105991051061004501001001KA1240N+01961MA1999999091671MD1999999+0031REMSYN017333   20196 58003
0096833440999991987010318004-14950-040883FM-12+0893SBQV V0201401N00411220001CN0500001N9+02711+01651101331ADDAA106000091AG10999GF103991031011004501001001MA1999999091431MD1999999+0041REMSYN011333   58004
0115833440999991987010400004-14950-040883FM-12+0893SBQV V0200901N00151220001CN9999999N9+02141+01821101621ADDAA106000091AG10999GF102991021011004501001001KA1240M+02751MA1999999091451MD1999999-0021REMSYN017333   10275 59002
0115833440999991987010412004-14950-040883FM-12+0893SBQV V0201401N00101220001CN0200001N9+02431+01611101431ADDAA106000091AG10999GF104991041001004501041001KA1240N+01711MA1999999091511MD1999999+0161REMSYN017333   20171 58016
0096833440999991987010418004-14950-040883FM-12+0893SBQV V0201401N00361004201CN0200001N9+02551+01931101111ADDAA106000091AG10999GF105991051021004501001001MA1999999091191MD1999999-0241REMSYN011333   59024
0095833440999991987020512004-14950-040883FM-12+0893SBQV V0203601N00361220001CN0200001N9+02271+01561999999ADDAA106000091AG10999GF103991031011004501001001KA1240N+01071MA1999999091531REMSYN011333   20107
0095833440999991987020600004-14950-040883FM-12+0893SBQV V0200501N00511220001CN9999999N9+02221+01691999999ADDAA106000091AG10999GF100991001001999999001001KA1240M+03061MA1999999091281REMSYN011333   10306
0115833440999991987020612004-14950-040883FM-12+0893SBQV V0203601N00311220001CN0200001N9+02351+01491101371ADDAA106000091AG10999GF100991001001999999001001KA1240N+01511MA1999999091451MD1999999-0081REMSYN017333   20151 59008
0096833440999991987020618004-14950-040883FM-12+0893SBQV V0200501N00461004201CN0200001N9+02951+01341100991ADDAA106000091AG10999GF105991051021004501001001MA1999999091131MD1999999-0041REMSYN011333   59004
0115833440999991987020700004-14950-040883FM-12+0893SBQV V0200501N00511220001CN9999999N9+02271+01901101161ADDAA106000091AG10999GF100991001001999999001001KA1240M+03081MA1999999091261MD1999999-0021REMSYN017333   10308 59002
0115833440999991987020712004-14950-040883FM-12+0893SBQV V0203601N00411045001CN0100001N9+02351+01691101461ADDAA106000091AG10999GF105991021021012501041001KA1240N+01841MA1999999091541MD1999999+0091REMSYN017333   20184 58009
0115833440999991987020800004-14950-040883FM-12+0893SBQV V0200501N00411220001CN9999999N9+02351+01821101211ADDAA106000091AG10999GF100991001001999999001001KA1240M+03081MA1999999091311MD1999999+0051REMSYN017333   10308 58005
0115833440999991987020812004-14950-040883FM-12+0893SBQV V0200501N00411220001CN0200001N9+02391+01631101611ADDAA106000091AG10999GF103991031011004501001001KA1240N+01661MA1999999091671MD1999999+0131REMSYN017333   20166 58013
0115833440999991987020900004-14950-040883FM-12+0893SBQV V0200501N00461220001CN9999999N9+02161+01471101351ADDAA106000091AG10999GF100991001001999999001001KA1240M+03011MA1999999091431MD1999999+0121REMSYN017333   10301 58012
0115833440999991987020912004-14950-040883FM-12+0893SBQV V0203601N003119999999N0100001N9+02231+01501101581ADDAA106000091AG10999GF105991051001004501061001KA1240N+01571MA1999999091631MD1999999-0041REMSYN017333   20157 59004
0115833440999991987021000004-14950-040883FM-12+0893SBQV V0200501N00311220001CN9999999N9+02171+01721101251ADDAA106000091AG10999GF104991001001999999001011KA1240M+02961MA1999999091331MD1999999-0101REMSYN017333   10296 59010
0115833440999991987021012004-14950-040883FM-12+0893SBQV V0203601N00311220001CN0200001N9+02321+01671101511ADDAA106000091AG10999GF102991021011004501001001KA1240N+01781MA1999999091571MD1999999-0061REMSYN017333   20178 59006
0096833440999991987021018004-14950-040883FM-12+0893SBQV V0201401N00361220001CN0500001N9+02891+01591101141ADDAA106000091AG10999GF104991041021004501001001MA1999999091251MD1999999+0011REMSYN011333   58001
0115833440999991987021100004-14950-040883FM-12+0893SBQV V0200901N00361220001CN9999999N9+02191+01841101501ADDAA106000091AG10999GF100991001001999999001001KA1240M+03001MA1999999091561MD1999999+0231REMSYN017333   10300 58023
0115833440999991987021112004-14950-040883FM-12+0893SBQV V0200501N00261045001CN0100001N9+02211+01621101551ADDAA106000091AG10999GF107991031021004501061001KA1240N+01841MA1999999091601MD1999999+0031REMSYN017333   20184 58003
0107833440999991987021118004-14950-040883FM-12+0893SBQV V0201401N00511004201CN0100001N9+02311+01701101341ADDAG10999AY121061AY221061GF108991081051004501999999MA1999999091401MD1999999+0151MW1031REMSYN011333   58015
0143833440999991987021200004-14950-040883FM-12+0893SBQV V0200901N00151045001CN9999999N9+02221+01781101561ADDAA106001091AG10999AY161061AY211061GF108991031061004501021999KA1240M+02671MA1999999091581MD1999999+0021MW1021REMSYN023333   10267 58002 60011
0096833440999991987021318004-14950-040883FM-12+0893SBQV V0200901N00311004201CN0200001N9+02791+01461101111ADDAA106000091AG10001GF106991061021004501001001MA1999999091221MD1999999+0051REMSYN011333   58005
0115833440999991987021412004-14950-040883FM-12+0893SBQV V0200901N00261045001CN0100001N9+02271+01661101561ADDAA106000091AG10001GF108991041081004501021999KA1240N+01801MA1999999091591MD1999999+0071REMSYN017333   20180 58007
0096833440999991987021418004-14950-040883FM-12+0893SBQV V0201401N00361220001CN0200001N9+02751+01721101161ADDAA106000091AG10999GF104991041021004501001001MA1999999091261MD1999999+0041REMSYN011333   58004
0115833440999991987021500004-14950-040883FM-12+0893SBQV V0200901N00261220001CN9999999N9+02091+01821101351ADDAA106000091AG10999GF106991041041004501001011KA1240M+02791MA1999999091421MD1999999-0041REMSYN017333   10279 59004
0132833440999991987021512004-14950-040883FM-12+0893SBQV V0201401N00311045001CN0200001N9+02231+01711101571ADDAA124000291AA299000391AG10999GF106991021021004501061001KA1240N+01781MA1999999091601MD1999999+0011REMSYN023333   20178 58001 69924
0124833440999991987021518004-14950-040883FM-12+0893SBQV V0200901N00151004201CN0100001N9+02551+01851101261ADDAA106000191AG10999AY151061AY211061GF105991051021004501001001MA1999999091341MD1999999+0081MW1021REMSYN017333   58008 69911
0115833440999991987021600004-14950-040883FM-12+0893SBQV V0200901N00151105001CN9999999N9+02151+01811101291ADDAA106000091AG10999GF106991001001999999001021KA1240M+02751MA1999999091361MD1999999-0061REMSYN017333   10275 59006
0124833440999991987021618004-14950-040883FM-12+0893SBQV V0200901N00211004201CN0100001N9+02171+01971101151ADDAA106002091AG10999AY151061AY211061GF107991071051004501001001MA1999999091211MD1999999-0131MW1611REMSYN017333   59013 60021
0115833440999991987021700004-14950-040883FM-12+0893SBQV V0200901N00151220001CN9999999N9+02031+01851101311ADDAA106000091AG10999GF104991041011004501001001KA1240M+02761MA1999999091371MD1999999+0011REMSYN017333   10276 58001
0121833440999991987021712004-14950-040883FM-12+0893SBQV V0200501N00261004201CN0040001N9+02191+01581101421ADDAA106002091AG10999GF108991081051004501999999KA1240N+01781MA1999999091451MD1999999-0041REMSYN023333   20178 59004 60021
0121833440999991987021812004-14950-040883FM-12+0893SBQV V0200501N00311004201CN0100001N9+02231+01821101481ADDAA124000191AG10999GF108991051051004501021999KA1240N+01881MA1999999091521MD1999999+0071REMSYN023333   20188 58007 69914
0096833440999991987021818004-14950-040883FM-12+0893SBQV V0201401N00311045001CN0200001N9+02551+01881101231ADDAA106000091AG10999GF108991041071004501021999MA1999999091321MD1999999+0141REMSYN011333   58014
0115833440999991987021912004-14950-040883FM-12+0893SBQV V0200501N00411004201CN0100001N9+02191+01581101601ADDAA106000091AG10999GF108991081021004501001999KA1240N+01841MA1999999091631MD1999999+0111REMSYN017333   20184 58011
0096833440999991987021918004-14950-040883FM-12+0893SBQV V0200901N00361004201CN0200001N9+02651+01771101301ADDAA106000091AG10999GF106991061021004501001001MA1999999091391MD1999999+0071REMSYN011333   58007
0115833440999991987022012004-14950-040883FM-12+0893SBQV V0200501N00511012001CN0100001N9+02231+01711101581ADDAA106000091AG10999GF108991081001012501021999KA1240N+01761MA1999999091611MD1999999-0021REMSYN017333   20176 59002
0124833440999991987022018004-14950-040883FM-12+0893SBQV V0201401N00211004201CN0100001N9+02411+01911101361ADDAA106000391AG10999AY151061AY211061GF106991061021004501001001MA1999999091391MD1999999+0001MW1021REMSYN017333   58000 69931
0115833440999991987022100004-14950-040883FM-12+0893SBQV V0200501N00361220001CN9999999N9+02031+01721101361ADDAA106000091AG10001GF103991031011004501001001KA1240M+02741MA1999999091421MD1999999-0071REMSYN017333   10274 59007
0143833440999991987022112004-14950-040883FM-12+0893SBQV V0200501N00361004201CN0100001N9+02171+01701101551ADDAA124001091AG10999AY161061AY211061GF108991081051004501999999KA1240N+01601MA1999999091541MD1999999-0041MW1021REMSYN023333   20160 59004 60014
0096833440999991987022118004-14950-040883FM-12+0893SBQV V0200901N00361220001CN0200001N9+02571+01821101221ADDAA106000091AG10999GF104991041021004501001001MA1999999091291MD1999999-0101REMSYN011333   59010
0143833440999991987022212004-14950-040883FM-12+0893SBQV V0200901N00361004201CN0040001N9+02091+01981101651ADDAA124005091AG10999AY161061AY201061GF108991081051004501999999KA1240N+01881MA1999999091651MD1999999+0081MW1611REMSYN023333   20188 58008 60054
0124833440999991987022218004-14950-040883FM-12+0893SBQV V0200901N00461004201CN0100001N9+02501+01771101401ADDAA106000191AG10999AY151061AY211061GF107991051021004501021001MA1999999091461MD1999999+0171MW1021REMSYN017333   58017 69911
0154833440999991987022312004-14950-040883FM-12+0893SBQV V0200901N00511220001CN0100001N9+02281+01661101701ADDAA124000691AA299000591AG10999AY161061AY211061GF103991031011004501001001KA1240N+01781MA1999999091721MD1999999+0071MW1021REMSYN023333   20178 58007 69964
0143833440999991987022412004-14950-040883FM-12+0893SBQV V0200901N00311045001CN0100001N9+02251+01881101571ADDAA124000591AG10999AY151061AY221061GF106991031061004501061001KA1240N+01681MA1999999091601MD1999999-0121MW1021REMSYN023333   20168 59012 69954
0113833440999991987022418004-14950-040883FM-12+0893SBQV V0200501N00771004201CN0200001N9+02151+01991101291ADDAA106000891AA299001091AG10999GF105991051021004501001001MA1999999091321MD1999999-0041REMSYN017333   59004 69981
0115833440999991987022500004-14950-040883FM-12+0893SBQV V0200901N00261220001CN9999999N9+02011+01851101491ADDAA106000091AG10999GF100991001001999999001001KA1240M+02801MA1999999091531MD1999999-0031REMSYN017333   10280 59003
0132833440999991987022512004-14950-040883FM-12+0893SBQV V0200501N00261045001CN0100001N9+02351+01661101541ADDAA124000791AA299001091AG10999GF106991031021004501061001KA1240N+01701MA1999999091591MD1999999-0011REMSYN023333   20170 59001 69974
0096833440999991987022518004-14950-040883FM-12+0893SBQV V0200501N00461220001CN0200001N9+02841+01461101201ADDAA106000091AG10999GF104991041011004501001001MA1999999091301MD1999999-0021REMSYN011333   59002
0115833440999991987022612004-14950-040883FM-12+0893SBQV V0200501N00461004201CN0100001N9+02251+01821101641ADDAA106000091AG10999GF108991081001004501021999KA1240N+01901MA1999999091661MD1999999+0071REMSYN017333   20190 58007
0118833440999991987022618004-14950-040883FM-12+0893SBQV V0200501N00361012001CN0200001N9+02521+01841101361ADDAA106000091AG10999AY121061AY221061GF108991081001012501021999MA1999999091431MD1999999+0131MW1031REMSYN011333   58013
0143833440999991987022700004-14950-040883FM-12+0893SBQV V0200501N00361220001CN9999999N9+01961+01861101681ADDAA106013091AG10999AY161061AY221061GF103991031011004501001001KA1240M+02781MA1999999091691MD1999999+0171MW1131REMSYN023333   10278 58017 60131
0121833440999991987022712004-14950-040883FM-12+0893SBQV V0200501N00411045001CN0100001N9+02201+01781101691ADDAA124014091AG10999GF106991031061004501021001KA1240N+01861MA1999999091701MD1999999+0271REMSYN023333   20186 58027 60144
0124833440999991987022718004-14950-040883FM-12+0893SBQV V0201401N00411045001CN0200001N9+02631+01751101321ADDAA106000191AG10999AY151061AY211061GF105991031021004501031001MA1999999091401MD1999999-0031MW1021REMSYN017333   59003 69911
0115833440999991987022800004-14950-040883FM-12+0893SBQV V0200501N00361220001CN9999999N9+02061+01661101501ADDAA106000091AG10999GF100991001001999999001001KA1240M+02781MA1999999091541MD1999999-0151REMSYN017333   10278 59015
0096833440999991987022818004-14950-040883FM-12+0893SBQV V0201401N00411045001CN0200001N9+02481+02011101121ADDAA106000091AG10999GF106991031021004501061001MA1999999091211MD1999999-0191REMSYN011333   59019
0115833440999991987030112004-14950-040883FM-12+0893SBQV V0200501N00261045001CN0100001N9+02231+01641101421ADDAA106000091AG10999GF106991031021004501061001KA1240N+01701MA1999999091451MD1999999-0111REMSYN017333   20170 59011
0096833440999991987030118004-14950-040883FM-12+0893SBQV V0201401N00411105001CN0500001N9+02731+01811101071ADDAA106000091AG10999GF105991021031004501001091MA1999999091161MD1999999-0051REMSYN011333   59005
0115833440999991987030212004-14950-040883FM-12+0893SBQV V0200501N00261012001CN0200001N9+02331+01721101431ADDAA106000091AG10999GF105991051001012501011001KA1240N+01721MA1999999091471MD1999999+0021REMSYN017333   20172 58002
0096833440999991987030218004-14950-040883FM-12+0893SBQV V0201401N00361220001CN0500001N9+02831+01571100971ADDAA106000091AG10999GF103991031021004501001001MA1999999091091MD1999999-0071REMSYN011333   59007
0115833440999991987030312004-14950-040883FM-12+0893SBQV V0203601N00411220001CN0200001N9+02291+01631101391ADDAA106000091AG10999GF104991041001008001081001KA1240N+01761MA1999999091461MD1999999-0011REMSYN017333   20176 59001
0096833440999991987030318004-14950-040883FM-12+0893SBQV V0201401N00311105001CN0500001N9+02821+01551100941ADDAA106000091AG10999GF107991041001012501041091MA1999999091061MD1999999-0011REMSYN011333   59001
0115833440999991987030400004-14950-040883FM-12+0893SBQV V0200501N00261220001CN9999999N9+02141+01661101121ADDAA106000091AG10999GF100991001001999999001001KA1240M+02881MA1999999091111MD1999999-0101REMSYN017333   10288 59010
0115833440999991987030412004-14950-040883FM-12+0893SBQV V0203601N00311220001CN0200001N9+02371+01631101331ADDAA106000091AG10999GF104991041021004501001001KA1240N+01801MA1999999091411MD1999999-0051REMSYN017333   20180 59005
0096833440999991987030418004-14950-040883FM-12+0893SBQV V0200901N00361004201CN0200001N9+02851+01721100891ADDAA106000091AG10999GF105991051021004501001001MA1999999091031MD1999999-0031REMSYN011333   59003
0115833440999991987030500004-14950-040883FM-12+0893SBQV V0200501N00261220001CN9999999N9+02161+01701101121ADDAA106000091AG10999GF100991001001999999001001KA1240M+02941MA1999999091221MD1999999+0011REMSYN017333   10294 58001
0154833440999991987030900004-14950-040883FM-12+0893SBQV V0200501N00311012001CN9999999N9+02321+01891100821ADDAA106000291AA299000391AG10999AY151061AY221061GF106991061001012501061001KA1240M+02941MA1999999091021MD1999999-0141MW1021REMSYN023333   10294 59014 69921
0143833440999991987030912004-14950-040883FM-12+0893SBQV V0203201N00211004201CN0040001N9+02091+01981101111ADDAA124001091AG10999AY151061AY211061GF108991081071004501999999KA1240N+01981MA1999999091201MD1999999-0041MW1611REMSYN023333   20198 59004 60014
0115833440999991987031000004-14950-040883FM-12+0893SBQV V0203201N00211004201CN9999999N9+02331+01831101041ADDAA106000091AG10999GF106991061031004501001001KA1240M+02661MA1999999091141MD1999999+0121REMSYN017333   10266 58012
0143833440999991987031012004-14950-040883FM-12+0893SBQV V0202701N00261004201CN0040001N9+01911+01791101261ADDAA124010091AG10999AY161061AY261061GF108991081051004501999999KA1240N+01801MA1999999091321MD1999999+0121MW1611REMSYN023333   20180 58012 60104
0124833440999991987031018004-14950-040883FM-12+0893SBQV V0202701N00311004201CN0100001N9+02431+01811100931ADDAA106002091AG10999AY161061AY221061GF106991061031004501001001MA1999999091031MD1999999+0181MW1021REMSYN017333   58018 60021
0143833440999991987031112004-14950-040883FM-12+0893SBQV V0203201N00361004201CN0100001N9+02131+01911101351ADDAA124003091AG10999AY161061AY211061GF108991081051004501999999KA1240N+01871MA1999999091411MD1999999+0091MW1021REMSYN023333   20187 58009 60034
0096833440999991987031118004-14950-040883FM-12+0893SBQV V0203601N00311004201CN0200001N9+02531+01841100881ADDAA106000091AG10999GF107991071051004501001001MA1999999091011MD1999999-0021REMSYN011333   59002
0115833440999991987031212004-14950-040883FM-12+0893SBQV V0203201N00211045001CN0100001N9+02171+01841101401ADDAA106000091AG10999GF108991041051004501021999KA1240N+01931MA1999999091441MD1999999+0031REMSYN017333   20193 58003
0124833440999991987031218004-14950-040883FM-12+0893SBQV V0203601N00211004201CN0100001N9+02251+01621101101ADDAA106013091AG10001AY161061AY231061GF108991081071004501999999MA1999999091171MD1999999+0161MW1031REMSYN017333   58016 60131
0154833440999991987031300004-14950-040883FM-12+0893SBQV V0200901N00151004201CN9999999N9+02001+01871101401ADDAA106000691AA299000591AG10999AY161061AY211061GF108991081051004501999999KA1240M+02291MA1999999091431MD1999999+0091MW1021REMSYN023333   10229 58009 69961
0121833440999991987031312004-14950-040883FM-12+0893SBQV V0200501N00211004201CN0100001N9+02251+01821101381ADDAA124014091AG10999GF108991081051004501999999KA1240N+01801MA1999999098422MD1999999-0021REMSYN023333   20180 59002 60144
0121833440999991987031412004-14950-040883FM-12+0893SBQV V0200901N00211045001CN0200001N9+02171+01841101451ADDAA124033091AG10999GF106991031021004501041001KA1240N+01571MA1999999091471MD1999999+0051REMSYN023333   20157 58005 60334
0121833440999991987031512004-14950-040883FM-12+0893SBQV V0200501N00311045001CN0100001N9+02261+01751101631ADDAA124000191AG10999GF106991031021004501061001KA1240N+01491MA1999999091651MD1999999+0181REMSYN023333   20149 58018 69914
0096833440999991987031518004-14950-040883FM-12+0893SBQV V0200901N00361220001CN0200001N9+02691+01721101281ADDAA106000091AG10999GF104991041021004501001001MA1999999091371MD1999999+0171REMSYN011333   58017
0115833440999991987031600004-14950-040883FM-12+0893SBQV V0200901N00311045001CN9999999N9+02081+01911101541ADDAA106000091AG10999GF106991031061004501041001KA1240M+02801MA1999999091571MD1999999+0011REMSYN017333   10280 58001
0115833440999991987031612004-14950-040883FM-12+0893SBQV V0200901N00311220001CN0200001N9+02211+01671101691ADDAA106000091AG10999GF104991041041004501001001KA1240N+01741MA1999999091711MD1999999+0061REMSYN017333   20174 58006
0115833440999991987031700004-14950-040883FM-12+0893SBQV V0200901N00211012001CN9999999N9+02151+01971101461ADDAA106000091AG10999GF107991071001012501021001KA1240M+02771MA1999999091521MD1999999-0051REMSYN017333   10277 59005
0143833440999991987031712004-14950-040883FM-12+0893SBQV V0201401N00261004201CN0100001N9+02071+01911101551ADDAA124002091AG10999AY161061AY221061GF108991081051004501999999KA1240N+01851MA1999999091571MD1999999-0141MW1021REMSYN023333   20185 59014 60024
0073833440999991987031718004-14950-040883FM-12+0893SBQV V0201401N00461009001CN0200001N9+02321+02001101221ADDAG10999AY161061AY211061GF107991051081004501021001MA1999999091291MW1021
0143833440999991987031812004-14950-040883FM-12+0893SBQV V0200901N00461004201CN0100001N9+02041+01871101491ADDAA124003091AG10999AY151061AY211061GF108991081051004501999999KA1240N+01861MA1999999091501MD1999999-0071MW1011REMSYN023333   20186 59007 60034
0124833440999991987031818004-14950-040883FM-12+0893SBQV V0200901N00261004201CN0100001N9+02331+01911101251ADDAA106000391AG10999AY151061AY221061GF108991081051004501999999MA1999999091311MD1999999+0021MW1031REMSYN017333   58002 69931
0115833440999991987031900004-14950-040883FM-12+0893SBQV V0200901N00211009001CN9999999N9+01921+01801101381ADDAA106000091AG10999GF107991071081004501001001KA1240M+02521MA1999999091401MD1999999-0021REMSYN017333   10252 59002
0143833440999991987031912004-14950-040883FM-12+0893SBQV V0201401N00211012001CN0100001N9+02011+01871101571ADDAA124001091AG10999AY151061AY221061GF108991081001012501021999KA1240N+01781MA1999999091561MD1999999+0061MW1021REMSYN023333   20178 58006 60014
0124833440999991987031918004-14950-040883FM-12+0893SBQV V0201401N00261045001CN0200001N9+02631+01931101171ADDAA106000391AG10999AY161061AY211061GF106991041081004501041001MA1999999091261MD1999999-0051MW1011REMSYN017333   59005 69931
0115833440999991987032000004-14950-040883FM-12+0893SBQV V0200901N00211220001CN9999999N9+02091+01891101441ADDAA106000091AG10999GF100991001001999999001001KA1240M+02671MA1999999091451MD1999999+0051REMSYN017333   10267 58005
0096833440999991987032018004-14950-040883FM-12+0893SBQV V0201401N00311004201CN0200001N9+02641+01851101041ADDAA106000091AG10999GF105991051021004501001001MA1999999091141MD1999999-0121REMSYN011333   59012
0115833440999991987032112004-14950-040883FM-12+0893SBQV V0200501N00311045001CN0200001N9+02231+01901101291ADDAA106000091AG10999GF106991031021004501061001KA1240N+01981MA1999999091361MD1999999+0091REMSYN017333   20198 58009
0096833440999991987032118004-14950-040883FM-12+0893SBQV V0201401N00311004201CN0200001N9+02641+01831101041ADDAA106000091AG10999GF105991051021004501001001MA1999999091141MD1999999-0121REMSYN011333   59012
0132833440999991987032212004-14950-040883FM-12+0893SBQV V0203601N00211012001CN0040001N9+02071+01861101321ADDAA124000291AA299000391AG10999GF108991081001012501021999KA1240N+01801MA1999999091311MD1999999-0051REMSYN023333   20180 59005 69924
0096833440999991987032218004-14950-040883FM-12+0893SBQV V0200901N00101045001CN0500001N9+02851+01811100741ADDAA106000091AG10999GF105991031021004501041001MA1999999090901MD1999999-0121REMSYN011333   59012
0121833440999991987032312004-14950-040883FM-12+0893SBQV V0203201N00211220001CN0200001N9+02451+01921101191ADDAA124000191AG10999GF103991031011008001001001KA1240N+01931MA1999999091301MD1999999-0011REMSYN023333   20193 59001 69914
0115833440999991987032400004-14950-040883FM-12+0893SBQV V0200501N00211220001CN9999999N9+02271+02001101061ADDAA106000091AG10999GF102991021011004501001001KA1240M+03011MA1999999091181MD1999999+0021REMSYN017333   10301 58002
0132833440999991987032412004-14950-040883FM-12+0893SBQV V0201401N00151220001CN0200001N9+02381+01911101231ADDAA124000291AA299000391AG10999GF104991041021004501001001KA1240N+02001MA1999999091331MD1999999+0031REMSYN023333   20200 58003 69924
0096833440999991987032418004-14950-040883FM-12+0893SBQV V0201401N00311105001CN0200001N9+02631+01881100891ADDAA106000091AG10001GF107991021011004501001091MA1999999091011MD1999999+0071REMSYN011333   58007
0115833440999991987032500004-14950-040883FM-12+0893SBQV V0200901N00101220001CN9999999N9+02061+01851101211ADDAA106000091AG10999GF100991001001999999001001KA1240M+02741MA1999999091291MD1999999+0111REMSYN017333   10274 58011
0115833440999991987032512004-14950-040883FM-12+0893SBQV V0201401N00361045001CN0200001N9+02221+01821101351ADDAA106000091AG10999GF105991021011004501051001KA1240N+01831MA1999999091411MD1999999+0081REMSYN017333   20183 58008
0096833440999991987032518004-14950-040883FM-12+0893SBQV V0200901N00361220001CN0500001N9+02721+01711100831ADDAA106000091AG10999GF103991031021004501001001MA1999999090971MD1999999-0041REMSYN011333   59004
0115833440999991987032700004-14950-040883FM-12+0893SBQV V0200901N00151012001CN9999999N9+02011+01701101061ADDAA106000091AG10999GF106991061001012501061001KA1240M+02251MA1999999091101MD1999999-0061REMSYN017333   10225 59006
0121833440999991987032712004-14950-040883FM-12+0893SBQV V0200901N00311012001CN0200001N9+02301+01751101231ADDAA124005091AG10999GF105991051001012501051001KA1240N+01791MA1999999091301MD1999999+0041REMSYN023333   20179 58004 60054
0096833440999991987032718004-14950-040883FM-12+0893SBQV V0201401N00311220001CN0500001N9+02651+02001100801ADDAA106000091AG10999GF104991021011004501001011MA1999999090931MD1999999-0141REMSYN011333   59014
0115833440999991987032800004-14950-040883FM-12+0893SBQV V0200901N00261220001CN9999999N9+02031+01961101091ADDAA106000091AG10999GF100991001001999999001001KA1240M+02711MA1999999091171MD1999999+0071REMSYN017333   10271 58007
0115833440999991987032812004-14950-040883FM-12+0893SBQV V0200501N00261220001CN0200001N9+02251+01821101231ADDAA106000091AG10999GF103991031011012501001001KA1240N+01841MA1999999091301MD1999999+0001REMSYN017333   20184 58000
0115833440999991987032900004-14950-040883FM-12+0893SBQV V0200501N00361220001CN9999999N9+02131+01931101121ADDAA106000091AG10999GF103991031001012501061001KA1240M+02771MA1999999091211MD1999999+0041REMSYN017333   10277 58004
0115833440999991987032912004-14950-040883FM-12+0893SBQV V0200501N00261004201CN0200001N9+02331+01781101131ADDAA106000091AG10999GF105991051061004501001001KA1240N+01121MA1999999091231MD1999999-0071REMSYN017333   20112 59007
0124833440999991987032918004-14950-040883FM-12+0893SBQV V0200501N00511045001CN0200001N9+02491+01911100771ADDAA106011091AG10999AY161061AY221061GF106991041041004501061001MA1999999090891MD1999999-0071MW1011REMSYN017333   59007 60111
0115833440999991987033000004-14950-040883FM-12+0893SBQV V0200501N00411012001CN9999999N9+02031+01891101021ADDAA106000091AG10999GF106991061001012501061001KA1240M+02601MA1999999091121MD1999999-0091REMSYN017333   10260 59009
0121833440999991987033012004-14950-040883FM-12+0893SBQV V0200901N00261045001CN0100001N9+02231+01821101291ADDAA124011091AG10999GF107991041061004501081001KA1240N+01711MA1999999091351MD1999999+0121REMSYN023333   20171 58012 60114
0096833440999991987033018004-14950-040883FM-12+0893SBQV V0200501N00261004201CN0200001N9+02691+01781100701ADDAA106000091AG10001GF105991051021004501001001MA1999999090841MD1999999-0051REMSYN011333   59005
0115833440999991987033112004-14950-040883FM-12+0893SBQV V0200901N00151004201CN0200001N9+02301+01831101291ADDAA106000091AG10999GF107991051011004501001041KA1240N+01661MA1999999091351MD1999999+0001REMSYN017333   20166 58000
0115833440999991987040112004-14950-040883FM-12+0893SBQV V0203601N00151004201CN0100001N9+02391+01861101451ADDAA106000091AG10999GF106991051021004501041001KA1240N+01881MA1999999091491MD1999999+0141REMSYN017333   20188 58014
0124833440999991987040118004-14950-040883FM-12+0893SBQV V0201401N00261004201CN0040001N9+02261+02141101211ADDAA106003091AG10999AY161061AY221061GF108991081051004501999999MA1999999091251MD1999999+0191MW1611REMSYN017333   58019 60031
0121833440999991987040212004-14950-040883FM-12+0893SBQV V0203601N00311004201CN0200001N9+02451+01831101371ADDAA124008091AG10999GF106991061021004501001001KA1240N+01881MA1999999091441MD1999999-0011REMSYN023333   20188 59001 60084
0107833440999991987040218004-14950-040883FM-12+0893SBQV V0201401N00101004201CN0100001N9+02341+02051101141ADDAG10999AY121061AY221061GF108991081051004501999999MA1999999091211MD1999999-0041MW1171REMSYN011333   59004
0115833440999991987040312004-14950-040883FM-12+0893SBQV V0200501N00261220001CN0200001N9+02431+01811101491ADDAA106000091AG10999GF104991041021004501001001KA1240N+01891MA1999999091551MD1999999+0111REMSYN017333   20189 58011
0115833440999991987040412004-14950-040883FM-12+0893SBQV V0200501N00411012001CN0100001N9+02361+01881101371ADDAA106000091AG10999GF108991081001012501021999KA1240N+01661MA1999999091431MD1999999-0181REMSYN017333   20166 59018
0121833440999991987040512004-14950-040883FM-12+0893SBQV V0200501N00211004201CN0100001N9+02171+01841101391ADDAA124001091AG10999GF106991061051004501001001KA1240N+01841MA1999999091421MD1999999-0011REMSYN023333   20184 59001 60014
0096833440999991987040518004-14950-040883FM-12+0893SBQV V0200901N00261045001CN0200001N9+02611+01881100991ADDAA106000091AG10999GF107991031021004501031011MA1999999091091MD1999999+0021REMSYN011333   58002
0115833440999991987040600004-14950-040883FM-12+0893SBQV V0200501N00311220001CN9999999N9+01961+01791101401ADDAA106000091AG10999GF104991001001999999001011KA1240M+02641MA1999999091431MD1999999+0061REMSYN017333   10264 58006
0115833440999991987040612004-14950-040883FM-12+0893SBQV V0203601N00311004201CN0200001N9+02321+01831101581ADDAA106000091AG10999GF105991051041004501001001KA1240N+01831MA1999999091611MD1999999+0191REMSYN017333   20183 58019
0096833440999991987040618004-14950-040883FM-12+0893SBQV V0200501N004619999999N0200001N9+02741+01781101141ADDAA106000091AG10999GF106991061001004501071001MA1999999091241MD1999999+0151REMSYN011333   58015
0096833440999991987040718004-14950-040883FM-12+0893SBQV V0200501N00261004201CN0200001N9+02941+01791101251ADDAA106000091AG10999GF106991061041004501001001MA1999999091361MD1999999+0121REMSYN011333   58012
0115833440999991987040800004-14950-040883FM-12+0893SBQV V0200501N00311012001CN9999999N9+02111+01951101561ADDAA106000091AG10999GF105991051001012501061001KA1240M+02961MA1999999091631MD1999999+0051REMSYN017333   10296 58005
0115833440999991987040812004-14950-040883FM-12+0893SBQV V0200501N00311220001CN0200001N9+02621+01791101581ADDAA106000091AG10999GF104991041011004501001001KA1240N+01771MA1999999091631MD1999999-0161REMSYN017333   20177 59016
0096833440999991987040818004-14950-040883FM-12+0893SBQV V0200501N00311220001CN0500001N9+02911+01571101201ADDAA106000091AG10999GF102991021011004501001001MA1999999091311MD1999999-0051REMSYN011333   59005
0115833440999991987040900004-14950-040883FM-12+0893SBQV V0200501N00211220001CN9999999N9+02091+01661101471ADDAA106000091AG10999GF100991001001999999001001KA1240M+02961MA1999999091531MD1999999-0101REMSYN017333   10296 59010
0115833440999991987040912004-14950-040883FM-12+0893SBQV V0200501N00151220001CN0500001N9+02351+01541101421ADDAA106000091AG10999GF102991021011004501001001KA1240N+01571MA1999999091481MD1999999-0151REMSYN017333   20157 59015
0096833440999991987040918004-14950-040883FM-12+0893SBQV V0200901N00311220001CN0500001N9+02891+01571100991ADDAA106000091AG10999GF102991021011004501001001MA1999999091121MD1999999-0191REMSYN011333   59019
0115833440999991987041000004-14950-040883FM-12+0893SBQV V0200501N00311220001CN9999999N9+02091+01821101281ADDAA106000091AG10999GF100991001001999999001001KA1240M+02971MA1999999091351MD1999999-0181REMSYN017333   10297 59018
0115833440999991987041112004-14950-040883FM-12+0893SBQV V0200901N00311220001CN0200001N9+02311+01681101481ADDAA106000091AG10999GF104991041021004501001001KA1240N+01641MA1999999091541MD1999999+0091REMSYN017333   20164 58009
0096833440999991987041118004-14950-040883FM-12+0893SBQV V0200501N00361045001CN0500001N9+02601+01841101091ADDAA106000091AG10999GF105991031061004501031001MA1999999091171MD1999999+0071REMSYN011333   58007
0115833440999991987041212004-14950-040883FM-12+0893SBQV V0200501N003619999999N0200001N9+02211+01801101461ADDAA106000091AG10999GF106991061001004501051001KA1240N+01761MA1999999091491MD1999999-0051REMSYN017333   20176 59005
0096833440999991987041218004-14950-040883FM-12+0893SBQV V0200501N00411220001CN0500001N9+02811+01611101001ADDAA106000091AG10999GF103991031021004501001001MA1999999091121MD1999999-0051REMSYN011333   59005
0115833440999991987041312004-14950-040883FM-12+0893SBQV V0200501N00261012001CN0100001N9+02051+01841101491ADDAA106000091AG10999GF108991081001012501021999KA1240N+01571MA1999999091501MD1999999+0011REMSYN017333   20157 58001
0115833440999991987041400004-14950-040883FM-12+0893SBQV V0200901N00211220001CN9999999N9+01961+01831101421ADDAA106000091AG10999GF100991001001999999001001KA1240M+02731MA1999999091431MD1999999+0101REMSYN017333   10273 58010
0115833440999991987041412004-14950-040883FM-12+0893SBQV V0200501N00151220001CN0100001N9+02241+01731101591ADDAA106000091AG10999GF103991031021004501001001KA1240N+01681MA1999999091611MD1999999+0111REMSYN017333   20168 58011
0096833440999991987041418004-14950-040883FM-12+0893SBQV V0200901N00461004201CN0200001N9+02711+01741101251ADDAA106000091AG10999GF105991051021004501001001MA1999999091331MD1999999+0121REMSYN011333   58012
0115833440999991987041500004-14950-040883FM-12+0893SBQV V0200501N00261220001CN9999999N9+01941+01721101531ADDAA106000091AG10999GF100991001001999999001001KA1240M+02781MA1999999091551MD1999999+0121REMSYN017333   10278 58012
0115833440999991987041512004-14950-040883FM-12+0893SBQV V0201401N00311045001CN0100001N9+02211+01821101671ADDAA106000091AG10999GF106991031011004501081001KA1240N+01681MA1999999091671MD1999999+0061REMSYN017333   20168 58006
0096833440999991987041518004-14950-040883FM-12+0893SBQV V0200901N00261004201CN0200001N9+02431+01861101331ADDAA106000091AG10999GF105991051021004501001001MA1999999091371MD1999999+0041REMSYN011333   58004
0143833440999991987041612004-14950-040883FM-12+0893SBQV V0200901N00411004201CN0100001N9+02121+01861101581ADDAA124008091AG10999AY161061AY261061GF107991071051004501001001KA1240N+01841MA1999999091591MD1999999-0081MW1011REMSYN023333   20184 59008 60084
0135833440999991987041618004-14950-040883FM-12+0893SBQV V0201401N00621004201CN0100001N9+01911+01771101411ADDAA106000291AA299000391AG10999AY121061AY221061GF108991081051004501999999MA1999999091411MD1999999+0041MW1611REMSYN017333   58004 69921
0143833440999991987041712004-14950-040883FM-12+0893SBQV V0200901N00461045001CN0100001N9+02171+01761101711ADDAA124001091AG10999AY151061AY221061GF105991031021004501061001KA1240N+01731MA1999999091701MD1999999+0111MW1011REMSYN023333   20173 58011 60014
0096833440999991987041718004-14950-040883FM-12+0893SBQV V0201401N00411045001CN0200001N9+02431+01741101451ADDAA106000091AG10999GF107991041041004501061001MA1999999091481MD1999999+0071REMSYN011333   58007
0143833440999991987041800004-14950-040883FM-12+0893SBQV V0201401N00151012001CN9999999N9+99999+99999101671ADDAA106000191AG10999AY121061AY221061GF108991081001012501021999KA1240M+02611MA1999999091671MD1999999+0051MW1511REMSYN023333   10261 58005 69911
0143833440999991987041812004-14950-040883FM-12+0893SBQV V0200901N00311004201CN0040001N9+02011+01831101811ADDAA124002091AG10999AY161061AY211061GF108991081051004501999999KA1240N+01681MA1999999091471MD1999999+0081MW1021REMSYN023333   20168 58008 60024
0124833440999991987041818004-14950-040883FM-12+0893SBQV V0200501N00461004201CN0100001N9+02271+01731101491ADDAA106001091AG10999AY161061AY211061GF108991081051004501999999MA1999999091521MD1999999+0021MW1021REMSYN017333   58002 60011
0143833440999991987041912004-14950-040883FM-12+0893SBQV V0200901N00311004201CN0100001N9+01981+01811101681ADDAA124002091AG10999AY151061AY221061GF108991081001004501021999KA1240N+01681MA1999999091631MD1999999-0131MW1021REMSYN023333   20168 59013 60024
0124833440999991987041918004-14950-040883FM-12+0893SBQV V0200501N00311045001CN0200001N9+02531+01951101241ADDAA106000391AG10999AY151061AY221061GF105991031021004501041001MA1999999091301MD1999999-0201MW1031REMSYN017333   59020 69931
0132833440999991987042012004-14950-040883FM-12+0893SBQV V0200501N00311220001CN0200001N9+02311+01601101661ADDAA106000091AA224000391AG10999GF102991021011004501001001KA1240N+01601MA1999999091671MD1999999+0021REMSYN023333   20160 58002 69934
0115833440999991987042112004-14950-040883FM-12+0893SBQV V0200501N00211004201CN0200001N9+02181+01561101571ADDAA106000091AG10999GF105991051021004501001001KA1240N+01771MA1999999091591MD1999999-0081REMSYN017333   20177 59008
0115833440999991987042212004-14950-040883FM-12+0893SBQV V0200501N00211004201CN0200001N9+02111+01641101641ADDAA106000091AG10999GF105991051021004501001001KA1240N+01721MA1999999091641MD1999999+0051REMSYN017333   20172 58005
0096833440999991987042218004-14950-040883FM-12+0893SBQV V0201401N00411220001CN0200001N9+02631+01661101111ADDAA106000091AG10999GF103991031011004501001001MA1999999091201MD1999999-0091REMSYN011333   59009
0115833440999991987042312004-14950-040883FM-12+0893SBQV V0200901N00151220001CN0200001N9+02231+01621101511ADDAA106000091AG10001GF105991021011004501001011KA1240N+01751MA1999999091541MD1999999-0101REMSYN017333   20175 59010
0115833440999991987042412004-14950-040883FM-12+0893SBQV V0203601N00151012001CN0200001N9+02061+01741101301ADDAA106000091AG10999GF106991061001012501041001KA1240N+01821MA1999999091331MD1999999-0211REMSYN017333   20182 59021
0143833440999991987042512004-14950-040883FM-12+0893SBQV V0203201N00151045001CN0200001N9+02321+01891101151ADDAA124052091AG10999AY161061AY221061GF106991021011004501041001KA1240N+01801MA1999999091241MD1999999-0091MW1021REMSYN023333   20180 59009 60524
0096833440999991987042518004-14950-040883FM-12+0893SBQV V0202501N00211220001CN0200001N9+02571+01801100841ADDAA106000091AG10999GF104991041041004501001001MA1999999090961MD1999999+0121REMSYN011333   58012
0143833440999991987042600004-14950-040883FM-12+0893SBQV V0200501N00361004201CN9999999N9+01911+01841101181ADDAA106001091AG10999AY161061AY221061GF105991051061004501001001KA1240M+02601MA1999999091251MD1999999+0081MW1011REMSYN023333   10260 58008 60011
0121833440999991987042612004-14950-040883FM-12+0893SBQV V0200501N00311004201CN0100001N9+01961+01721101381ADDAA124003091AG10999GF108991081051004501999999KA1240N+01751MA1999999091391MD1999999+0151REMSYN023333   20175 58015 60034
0096833440999991987042618004-14950-040883FM-12+0893SBQV V0200501N00151105001CN0200001N9+02491+01771100941ADDAA106000091AG10999GF106991021021004501001021MA1999999091041MD1999999+0081REMSYN011333   58008
0115833440999991987042700004-14950-040883FM-12+0893SBQV V0200901N00151220001CN9999999N9+01921+01771101281ADDAA106000091AG10999GF100991001001999999001001KA1240M+02691MA1999999091301MD1999999+0051REMSYN017333   10269 58005
0143833440999991987042712004-14950-040883FM-12+0893SBQV V0203601N00311105001CN0200001N9+02201+01821101451ADDAA124000191AG10999AY151061AY211061GF107991021021004501001061KA1240N+01761MA1999999091471MD1999999+0081MW1011REMSYN023333   20176 58008 69914
0096833440999991987042718004-14950-040883FM-12+0893SBQV V0200901N00211105001CN0200001N9+02701+01751100971ADDAA106000091AG10999GF107991031021004501001091MA1999999091081MD1999999+0041REMSYN011333   58004
0115833440999991987042812004-14950-040883FM-12+0893SBQV V0201401N00261045001CN0200001N9+99999+99999101691ADDAA106000091AG10999GF107991041041004501041001KA1240N+01901MA1999999091701MD1999999+0231REMSYN017333   20190 58023
0096833440999991987042818004-14950-040883FM-12+0893SBQV V0200901N00211012001CN0200001N9+02391+01821101351ADDAA106000091AG10999GF105991051001012501041001MA1999999091421MD1999999+0341REMSYN011333   58034
0115833440999991987042912004-14950-040883FM-12+0893SBQV V0201401N00361012001CN0100001N9+01991+01621101791ADDAA106000091AG10999GF108991081001012501021999KA1240N+01801MA1999999091761MD1999999+0061REMSYN017333   20180 58006
0096833440999991987042918004-14950-040883FM-12+0893SBQV V0201401N00311012001CN0100001N9+02251+01731101471ADDAA106000091AG10999GF108991081001012501021999MA1999999091481MD1999999+0061REMSYN011333   58006
0143833440999991987043012004-14950-040883FM-12+0893SBQV V0201401N00261004201CN0040001N9+01821+01701101641ADDAA124000591AG10999AY151061AY221061GF108991081051004501999999KA1240N+01751MA1999999091621MD1999999-0141MW1161REMSYN023333   20175 59014 69954
0124833440999991987043018004-14950-040883FM-12+0893SBQV V0201401N00311004201CN0040001N9+01861+01721101291ADDAA106002091AG10999AY161061AY211061GF108991081051004501999999MA1999999091281MD1999999+0201MW1511REMSYN017333   58020 60021
0121833440999991987050112004-14950-040883FM-12+0893SBQV V0200901N00101004201CN0100001N9+02051+01741101261ADDAA124004091AG10999GF107991051041004501041001KA1240N+01641MA1999999091271MD1999999-0351REMSYN023333   20164 59035 60044
0123833440999991987050200004-14950-040883FM-12+0893SBQV V0209991C00001220001CN9999999N9+01921+01591101021ADDAA106000191AG10999AY151061AY211061GF100991001001999999001001KA1240M+02541MA1999999091081MW1001REMSYN017333   10254 69911
0121833440999991987050212004-14950-040883FM-12+0893SBQV V0203601N00151220001CN0200001N9+02241+01901101121ADDAA124000191AG10999GF104991041011004501001001KA1240N+01821MA1999999091191MD1999999-0081REMSYN023333   20182 59008 69914
0096833440999991987050218004-14950-040883FM-12+0893SBQV V0202301N00151045001CN0200001N9+02851+01721100641ADDAA106000091AG10999GF106991031031008001041001MA1999999090801MD1999999-0101REMSYN011333   59010
0115833440999991987050312004-14950-040883FM-12+0893SBQV V0203601N00261045001CN0200001N9+02371+01821101131ADDAA106000091AG10999GF105991021011004501051001KA1240N+01981MA1999999091231MD1999999+0041REMSYN017333   20198 58004
0121833440999991987050412004-14950-040883FM-12+0893SBQV V0203601N00261004201CN0200001N9+02411+02011101351ADDAA124005091AG10999GF105991051041004501001001KA1240N+01841MA1999999091421MD1999999+0191REMSYN023333   20184 58019 60054
0134833440999991987050500004-14950-040883FM-12+0893SBQV V0200501N00361220001CN9999999N9+02091+01951101341ADDAA106000091AG10999GF100991001001999999001001KA1240M+99999MA1999999091411MD1999999+0221REMSYN017333   10172 58022EQDQ01 +01722ATMX  
0121833440999991987050512004-14950-040883FM-12+0893SBQV V0203601N00151045001CN0200001N9+02151+01821101561ADDAA124000191AG10999GF106991041041004501031001KA1240N+01801MA1999999091581MD1999999+0161REMSYN023333   20180 58016 69914
0096833440999991987050518004-14950-040883FM-12+0893SBQV V0200901N00151045001CN0200001N9+02651+01871101071ADDAA106000091AG10999GF106991031011004501041001MA1999999091171MD1999999+0041REMSYN011333   58004
0115833440999991987050612004-14950-040883FM-12+0893SBQV V0203601N00361220001CN0200001N9+02321+01721101531ADDAA106000091AG10999GF104991041001012501031001KA1240N+01811MA1999999091581MD1999999+0001REMSYN017333   20181 58000
0096833440999991987050618004-14950-040883FM-12+0893SBQV V0200901N00311220001CN0200001N9+02671+01611101081ADDAA106000091AG10999GF104991041021004501001001MA1999999091191MD1999999+0021REMSYN011333   58002
0096833440999991987050718004-14950-040883FM-12+0893SBQV V0201401N00261045001CN0100001N9+02491+01911101081ADDAA106000091AG10001GF107991041021004501031001MA1999999091151MD1999999-0041REMSYN011333   59004
0115833440999991987050800004-14950-040883FM-12+0893SBQV V0200501N00411220001CN9999999N9+02031+01851101341ADDAA106000091AG10999GF100991001001999999001001KA1240M+02621MA1999999091381MD1999999-0051REMSYN017333   10262 59005
0115833440999991987050812004-14950-040883FM-12+0893SBQV V0203601N00151045001CN0200001N9+02991+01921101471ADDAA106000091AG10001GF105991021011004501031001KA1240N+01821MA1999999091511MD1999999+0011REMSYN017333   20182 58001
0115833440999991987050912004-14950-040883FM-12+0893SBQV V0203601N00211105001CN0200001N9+02391+01731101411ADDAA106000091AG10999GF107991001001999999001071KA1240N+01931MA1999999091481MD1999999-0031REMSYN017333   20193 59003
0096833440999991987050918004-14950-040883FM-12+0893SBQV V0203601N00101220001CN0500001N9+02831+01701100991ADDAA106000091AG10999GF106991041031004501001011MA1999999091131MD1999999+0071REMSYN011333   58007
0115833440999991987051012004-14950-040883FM-12+0893SBQV V0201401N00311045001CN0200001N9+02151+01861101741ADDAA106000091AG10999GF106991041021004501041001KA1240N+01681MA1999999091751MD1999999+0271REMSYN017333   20168 58027
0096833440999991987051018004-14950-040883FM-12+0893SBQV V0200901N00361220001CN0200001N9+02551+01881101371ADDAA106000091AG10999GF104991041021004501001001MA1999999091431MD1999999+0301REMSYN011333   58030
0143833440999991987051212004-14950-040883FM-12+0893SBQV V0201401N00311004201CN0040001N9+99999+99999101991ADDAA124007091AG10999AY161061AY261061GF108991081051004501999999KA1240N+01661MA1999999091911MD1999999+0051MW1611REMSYN023333   20166 58005 60074
0124833440999991987051218004-14950-040883FM-12+0893SBQV V0201401N00361220001CN0200001N9+02091+01821101621ADDAA106000191AG10999AY151061AY211061GF104991041021004501001001MA1999999091601MD1999999+0061MW1011REMSYN017333   58006 69911
0121833440999991987051312004-14950-040883FM-12+0893SBQV V0200501N00361012001CN0100001N9+02011+01761101761ADDAA124000191AG10001GF108991081001012501021999KA1240N+01721MA1999999091731MD1999999-0181REMSYN023333   20172 59018 69914
0115833440999991987051400004-14950-040883FM-12+0893SBQV V0200501N00151220001CN9999999N9+01941+01841101491ADDAA106000091AG10999GF104991041081004501001001KA1240M+02501MA1999999091491MD1999999-0271REMSYN017333   10250 59027
0115833440999991987051412004-14950-040883FM-12+0893SBQV V0200501N00261220001CN0200001N9+02211+01801101411ADDAA106000091AG10999GF104991021011004501031001KA1240N+01751MA1999999091441MD1999999-0291REMSYN017333   20175 59029
0121833440999991987051512004-14950-040883FM-12+0893SBQV V0200501N00211220001CN0200001N9+02231+01671101311ADDAA124000391AG10999GF102991021011004501001001KA1240N+01661MA1999999091351MD1999999-0091REMSYN023333   20166 59009 69934
0062833440999991987051618004-14950-040883FM-12+0893SBQV V0200901N00151220001CN0200001N9+02291+01881101101ADDAA106000091AG10999GF103991031021004501001001MA1999999091181
0143833440999991987051712004-14950-040883FM-12+0893SBQV V0200901N00311004201CN0100001N9+02041+01761101621ADDAA124000191AG10999AY151061AY211061GF105991051021004501001001KA1240N+01681MA1999999091621MD1999999+0151MW1021REMSYN023333   20168 58015 69914
0096833440999991987051718004-14950-040883FM-12+0893SBQV V0200901N00311220001CN0200001N9+02501+01701101251ADDAA106000091AG10999GF103991031021004501001001MA1999999091311MD1999999+0131REMSYN011333   58013
0115833440999991987051812004-14950-040883FM-12+0893SBQV V0201401N00311045001CN0200001N9+02031+01761101611ADDAA106000091AG10999GF105991031021004501061001KA1240N+01781MA1999999091621MD1999999+0001REMSYN017333   20178 58000
0096833440999991987051818004-14950-040883FM-12+0893SBQV V0201401N00411220001CN0200001N9+02411+01591101261ADDAA106000091AG10999GF104991041011004501001001MA1999999091331MD1999999+0021REMSYN011333   58002
0096833440999991987051918004-14950-040883FM-12+0893SBQV V0201401N00211220001CN0200001N9+02411+01651100981ADDAA106000091AG10999GF103991031011004501001001MA1999999091061MD1999999-0271REMSYN011333   59027
0115833440999991987052012004-14950-040883FM-12+0893SBQV V0203601N00361220001CN0200001N9+02241+99999101171ADDAA106000091AG10999GF102991021011004501001001KA1240N+01681MA1999999091231MD1999999-0131REMSYN017333   20168 59013
0104833440999991987052112004-14950-040883FM-12+0893SBQV V0203601N00311105001CN0200001N9+02501+01771101111ADDAG10999GF106991001001999999001091KA1240N+01681MA1999999091221MD1999999-0011REMSYN017333   20168 59001
0096833440999991987052118004-14950-040883FM-12+0893SBQV V0202301N00211004201CN0200001N9+03011+01621100701ADDAA106000091AG10999GF105991051021004501001001MA1999999090891MD1999999+0021REMSYN011333   58002
0134833440999991987052200004-14950-040883FM-12+0893SBQV V0203601N00051220001CN9999999N9+02311+01721101982ADDAA106000091AG10001GF100991001001999999001001KA1240M+03071MA1999999091121MD1999999+0091REMSYN017333   10307 58009EQDQ01+101983APOSLP
0115833440999991987052212004-14950-040883FM-12+0893SBQV V0203601N003119999999N0200001N9+02411+01821101181ADDAA106000091AG10999GF105991051001004501031001KA1240N+02041MA1999999091291MD1999999+0071REMSYN017333   20204 58007
0096833440999991987052218004-14950-040883FM-12+0893SBQV V0202701N00051220001CN0200001N9+03021+01621100741ADDAA106000091AG10999GF104991021011004501001011MA1999999090941MD1999999+0051REMSYN011333   58005
0126833440999991987052300004-14950-040883FM-12+0893SBQV V0200501N00311220001CN9999999N9+02331+01811101141ADDAG10001AY121061AY221061GF100991001001999999001001KA1240M+03101MA1999999091251MD1999999+0131MW1321REMSYN017333   10310 58013
0115833440999991987052312004-14950-040883FM-12+0893SBQV V0200501N00151220001CN0200001N9+02311+01871101431ADDAA106000091AG10999GF103991031011004501001001KA1240N+01861MA1999999091511MD1999999+0221REMSYN017333   20186 58022
0096833440999991987052318004-14950-040883FM-12+0893SBQV V0201401N00311220001CN0500001N9+02651+01791101081ADDAA106000091AG10999GF105991021011004501001011MA1999999091201MD1999999+0261REMSYN011333   58026
0115833440999991987052412004-14950-040883FM-12+0893SBQV V0200501N00261220001CN0200001N9+02191+01721101571ADDAA106000091AG10999GF102991021011004501001001KA1240N+01681MA1999999091601MD1999999+0091REMSYN017333   20168 58009
0115833440999991987052512004-14950-040883FM-12+0893SBQV V0200501N00211045001CN0200001N9+02381+01581101661ADDAA106000091AG10999GF106991021021004501041001KA1240N+01531MA1999999091681MD1999999+0081REMSYN017333   20153 58008
0096833440999991987052518004-14950-040883FM-12+0893SBQV V0201401N00461220001CN0200001N9+02631+01801101311ADDAA106000091AG10999GF104991041021004501001001MA1999999091391MD1999999+0161REMSYN011333   58016
0115833440999991987052612004-14950-040883FM-12+0893SBQV V0200901N00411004201CN0100001N9+01911+01701101881ADDAA106000091AG10999GF108991081051004501999999KA1240N+01751MA1999999091851MD1999999+0171REMSYN017333   20175 58017
0096833440999991987052618004-14950-040883FM-12+0893SBQV V0200901N00311004201CN0100001N9+01901+01661101711ADDAA106000091AG10999GF108991081051004501999999MA1999999091671MD1999999+0281REMSYN011333   58028
0115833440999991987052700004-14950-040883FM-12+0893SBQV V0200901N00511012001CN9999999N9+01651+01531101991ADDAA106000091AG10999GF108991081001012501021999KA1240M+02061MA1999999091911MD1999999+0281REMSYN017333   10206 58028
0115833440999991987052712004-14950-040883FM-12+0893SBQV V0200901N00261012001CN0100001N9+01601+01331102131ADDAA106000091AG10999GF108991081001012501021999KA1240N+01471MA1999999092001MD1999999+0151REMSYN017333   20147 58015
0096833440999991987052718004-14950-040883FM-12+0893SBQV V0201401N00261045001CN0200001N9+01941+01421101771ADDAA106000091AG10999GF106991031021004501061001MA1999999091701MD1999999+0031REMSYN011333   58003
0062833440999991987052812004-14950-040883FM-12+0893SBQV V0200901N00311012001CN0100001N9+01721+01391102111ADDAA106000091AG10999GF108991081001012501021999MA1999999091991
0096833440999991987052818004-14950-040883FM-12+0893SBQV V0201401N00311220001CN0200001N9+02301+01531101711ADDAA106000091AG10999GF102991021011004501001001MA1999999091671MD1999999-0031REMSYN011333   59003
0115833440999991987052900004-14950-040883FM-12+0893SBQV V0200501N00211220001CN9999999N9+01701+01371101931ADDAA106000091AG10999GF100991001001999999001001KA1240M+02441MA1999999091841MD1999999-0011REMSYN017333   10244 59001
0115833440999991987052912004-14950-040883FM-12+0893SBQV V0203601N00261220001CN0500001N9+02051+01561101931ADDAA106000091AG10999GF102991021011004501001001KA1240N+01351MA1999999091861MD1999999-0131REMSYN017333   20135 59013
0096833440999991987052918004-14950-040883FM-12+0893SBQV V0201401N00311220001CN0500001N9+02601+01681101171ADDAA106000091AG10999GF103991031011004501001001MA1999999091501MD1999999-0121REMSYN011333   59012
0115833440999991987053000004-14950-040883FM-12+0893SBQV V0203601N00211220001CN9999999N9+01961+01481101681ADDAA106000091AG10999GF100991001001999999001001KA1240M+02721MA1999999091671MD1999999-0171REMSYN017333   10272 59017
0115833440999991987053012004-14950-040883FM-12+0893SBQV V0209991C00001220001CN0200001N9+02451+01521101711ADDAA106000091AG10999GF100991001001999999001001KA1240N+01761MA1999999091741MD1999999+0121REMSYN017333   20176 58012
0115833440999991987053112004-14950-040883FM-12+0893SBQV V0201401N00211012001CN0100001N9+01731+01541101921ADDAA106000091AG10999GF108991081001012501021999KA1240N+01571MA1999999091851MD1999999+0111REMSYN017333   20157 58011
0096833440999991987053118004-14950-040883FM-12+0893SBQV V0201801N00151220001CN0200001N9+02401+99999101501ADDAA106000091AG10999GF102991021061004501001001MA1999999091511MD1999999+0041REMSYN011333   58004
0115833440999991987060112004-14950-040883FM-12+0893SBQV V0203201N00211220001CN0200001N9+02131+01591101741ADDAA106000091AG10999GF104991041021004501001001KA1240N+01421MA1999999091711MD1999999-0141REMSYN017333   20142 59014
0115833440999991987060212004-14950-040883FM-12+0893SBQV V0200501N00211220001CN0200001N9+02121+01531101681ADDAA106000091AG10999GF103991031011004501001001KA1240N+01491MA1999999091671MD1999999-0041REMSYN017333   20149 59004
0096833440999991987060218004-14950-040883FM-12+0893SBQV V0200901N00261220001CN0500001N9+02341+01491101451ADDAA106000091AG10999GF102991021011004501001001MA1999999091451MD1999999-0081REMSYN011333   59008
0134833440999991987060312004-14950-040883FM-12+0893SBQV V0200901N00211220001CN0200001N9+01881+01361101761ADDAA106000091AG10999GF102991021011999999001001KA1240N+01421MA1999999091711MD1999999+0041REMSYN017333   20142 58004EQDQ01+000992SCOLCB
0096833440999991987060318004-14950-040883FM-12+0893SBQV V0201401N00211105001CN0500001N9+02341+01361101421ADDAA106000091AG10999GF105991021011004501001091MA1999999091431MD1999999-0021REMSYN011333   59002
0115833440999991987060412004-14950-040883FM-12+0893SBQV V0200901N00361105001CN0200001N9+02021+01291101731ADDAA106000091AG10999GF106991021011004501001021KA1240N+01401MA1999999091681MD1999999-0031REMSYN017333   20140 59003
0096833440999991987060418004-14950-040883FM-12+0893SBQV V0200901N00311045001CN0200001N9+02291+01531101411ADDAA106000091AG10999GF108991031021004501021999MA1999999091411MD1999999-0021REMSYN011333   59002
0115833440999991987060500004-14950-040883FM-12+0893SBQV V0200901N00101012001CN9999999N9+01531+01521101511ADDAA106000091AG10999GF105991051001012501061001KA1240M+02481MA1999999091501MD1999999-0111REMSYN017333   10248 59011
0115833440999991987060512004-14950-040883FM-12+0893SBQV V0200901N00211220001CN0200001N9+02111+01571101591ADDAA106000091AG10999GF104991041011004501001001KA1240N+01621MA1999999091581MD1999999-0101REMSYN017333   20162 59010
0096833440999991987060518004-14950-040883FM-12+0893SBQV V0200901N00311004201CN0200001N9+02491+01531101191ADDAA106000091AG10999GF105991051021004501001001MA1999999091251MD1999999-0161REMSYN011333   59016
0096833440999991987060618004-14950-040883FM-12+0893SBQV V0203601N00311220001CN0500001N9+02551+01591101171ADDAA106000091AG10999GF104991041021004501001001MA1999999091241MD1999999-0011REMSYN011333   59001
0096833440999991987060718004-14950-040883FM-12+0893SBQV V0200901N00311220001CN0200001N9+02651+01531101451ADDAA106000091AG10999GF102991021011004501001001MA1999999091481MD1999999+0251REMSYN011333   58025
0115833440999991987060800004-14950-040883FM-12+0893SBQV V0200501N00261220001CN9999999N9+01891+01601101791ADDAA106000091AG10999GF100991001001999999001001KA1240M+02721MA1999999091781MD1999999+0331REMSYN017333   10272 58033
0115833440999991987060812004-14950-040883FM-12+0893SBQV V0200901N00151015001CN0100001N9+01861+01621102011ADDAA106000091AG10999GF108991081051017501999999KA1240N+01411MA1999999091941MD1999999+0241REMSYN017333   20141 58024
0096833440999991987060818004-14950-040883FM-12+0893SBQV V0201401N00311220001CN0200001N9+02531+01451101651ADDAA106000091AG10999GF104991041001012501061001MA1999999091661MD1999999+0181REMSYN011333   58018
0115833440999991987060912004-14950-040883FM-12+0893SBQV V0201401N00101220001CN0000001N9+02071+01581101871ADDAA106000091AG10999GF102991021011004501001001KA1240N+01661MA1999999099831MD1999999-0111REMSYN017333   20166 59011
0115833440999991987061000004-14950-040883FM-12+0893SBQV V0200901N00311105001CN9999999N9+01841+01621101731ADDAA106000091AG10999GF106991001001999999001091KA1240M+02391MA1999999091702MD1999999-0111REMSYN017333   10239 59011
0115833440999991987061012004-14950-040883FM-12+0893SBQV V0201401N00311012001CN0100001N9+01851+01531101761ADDAA106000091AG10999GF108991081001012501021999KA1240N+01661MA1999999091721MD1999999-0111REMSYN017333   20166 59011
0096833440999991987061018004-14950-040883FM-12+0893SBQV V0201401N00101004201CN0100001N9+02091+01551101461ADDAA106000091AG10999GF108991051051004501021999MA1999999091451MD1999999-0031REMSYN011333   59003
0115833440999991987061112004-14950-040883FM-12+0893SBQV V0200901N00311009001CN0100001N9+01901+01361101751ADDAA106000091AG10999GF107991051081004501021001KA1240N+01611MA1999999091721MD1999999+0001REMSYN017333   20161 58000
0115833440999991987061212004-14950-040883FM-12+0893SBQV V0200501N003619999999N0200001N9+02051+01681101841ADDAA106000091AG10999GF106991061001004501061001KA1240N+01661MA1999999091811MD1999999+0091REMSYN017333   20166 58009
0096833440999991987061218004-14950-040883FM-12+0893SBQV V0201401N00261004201CN0200001N9+02221+01801101591ADDAA106000091AG10999GF105991051021004501001001MA1999999091581MD1999999+0131REMSYN011333   58013
0096833440999991987061318004-14950-040883FM-12+0893SBQV V0200901N00461045001CN0200001N9+02411+01791101491ADDAA106000091AG10999GF107991031031004501021001MA1999999091521MD1999999-0061REMSYN011333   59006
0115833440999991987061400004-14950-040883FM-12+0893SBQV V0200901N00261220001CN9999999N9+02051+01821101591ADDAA106000091AG10999GF104991041041012501001001KA1240M+02461MA1999999091611MD1999999-0161REMSYN017333   10246 59016
0096833440999991987061418004-14950-040883FM-12+0893SBQV V0200901N00361220001CN0500001N9+02551+01501101311ADDAA106000091AG10999GF102991021021004501001001MA1999999091371MD1999999-0151REMSYN011333   59015
0143833440999991987061512004-14950-040883FM-12+0893SBQV V0200901N00511220001CN0200001N9+02071+01451101621ADDAA124000191AG10999AY151061AY211061GF103991031021008001001001KA1240N+01491MA1999999091621MD1999999-0141MW1011REMSYN023333   20149 59014 69914
0096833440999991987061518004-14950-040883FM-12+0893SBQV V0200901N00311220001CN0200001N9+02481+01431101301ADDAA106000091AG10999GF102991021011004501001001MA1999999091341MD1999999-0031REMSYN011333   59003
0115833440999991987061600004-14950-040883FM-12+0893SBQV V0200901N00051220001CN9999999N9+01741+01331101631ADDAA106000091AG10999GF100991001001999999001001KA1240M+02511MA1999999091611MD1999999+0041REMSYN017333   10251 58004
0115833440999991987061612004-14950-040883FM-12+0893SBQV V0200901N00261220001CN0200001N9+02191+01281101631ADDAA106000091AG10999GF100991001001999999001001KA1240N+01331MA1999999091621MD1999999+0001REMSYN017333   20133 58000
0096833440999991987061618004-14950-040883FM-12+0893SBQV V0201801N00211220001CN0200001N9+02331+01241101311ADDAA106000091AG10001GF104991041011004501001001MA1999999091271MD1999999+0031REMSYN011333   58003
0115833440999991987061712004-14950-040883FM-12+0893SBQV V0200901N00511220001CN0200001N9+02011+01541101621ADDAA106000091AG10999GF102991021011004501001001KA1240N+01451MA1999999091621MD1999999+0241REMSYN017333   20145 58024
0115833440999991987061800004-14950-040883FM-12+0893SBQV V0209999999999220001CN9999999N9+01921+01721101921ADDAA106000091AG10999GF103991031041004501001001KA1240M+02531MA1999999091881MD1999999+0091REMSYN017333   10253 58009
0096833440999991987061818004-14950-040883FM-12+0893SBQV V0209999999999004201CN0200001N9+02521+01521101551ADDAA106000091AG10999GF105991051091004501001001MA1999999091561MD1999999+0001REMSYN011333   58000
0115833440999991987061912004-14950-040883FM-12+0893SBQV V0209999999999220001CN0200001N9+02031+01561101911ADDAA106000091AG10999GF106991021011004501001011KA1240N+01661MA1999999091871MD1999999-0031REMSYN017333   20166 59003
0115833440999991987061918004-14950-040883FM-12+0893SBQV V0209999999999220001CN0500001N9+02671+01351101371ADDAA106000091AG10999GF103991001001999999001011MA1999999091441MD1999999-0121REMSYN011333   59012EQDQ01+000942SCOLCB
0115833440999991987062012004-14950-040883FM-12+0893SBQV V0209999999999045001CN0200001N9+02121+01531101821ADDAA106000091AG10999GF106991031041004501061001KA1240N+01571MA1999999091811MD1999999-0061REMSYN017333   20157 59006
0096833440999991987062018004-14950-040883FM-12+0893SBQV V0209999999999220001CN0200001N9+02551+01621101421ADDAA106000091AG10999GF104991041021004501001001MA1999999091461MD1999999+0021REMSYN011333   58002
0115833440999991987062100004-14950-040883FM-12+0893SBQV V0209999999999220001CN9999999N9+01851+01511101691ADDAA106000091AG10999GF100991001001999999001001KA1240M+02631MA1999999091681MD1999999-0011REMSYN017333   10263 59001
0115833440999991987062112004-14950-040883FM-12+0893SBQV V0209999999999012001CN0200001N9+02031+01581101911ADDAA106000091AG10999GF106991061001012501041001KA1240N+01781MA1999999091871MD1999999+0061REMSYN017333   20178 58006
0096833440999991987062118004-14950-040883FM-12+0893SBQV V0209999999999220001CN0200001N9+02441+01481101461ADDAA106000091AG10999GF103991031011004501001001MA1999999091491MD1999999+0031REMSYN011333   58003
0115833440999991987062212004-14950-040883FM-12+0893SBQV V0209999999999220001CN0200001N9+02031+01561101891ADDAA106000091AG10999GF102991021011004501001001KA1240N+01641MA1999999091851MD1999999-0021REMSYN017333   20164 59002
0096833440999991987062218004-14950-040883FM-12+0893SBQV V0209999999999220001CN0500001N9+02501+01561101431ADDAA106000091AG10999GF104991041021004501001001MA1999999091431MD1999999-0061REMSYN011333   59006
0115833440999991987062312004-14950-040883FM-12+0893SBQV V0209999999999220001CN0500001N9+02311+01651101841ADDAA106000091AG10999GF100991001001999999001001KA1240N+01571MA1999999091841MD1999999-0011REMSYN017333   20157 59001
0115833440999991987062412004-14950-040883FM-12+0893SBQV V0209999999999004201CN0100001N9+01911+01731101911ADDAA106000091AG10999GF108991081051004501999999KA1240N+01621MA1999999091881MD1999999+0041REMSYN017333   20162 58004
0096833440999991987062418004-14950-040883FM-12+0893SBQV V0209999999999004201CN0200001N9+02551+01471101551ADDAA106000091AG10999GF106991061061004501001001MA1999999091611MD1999999+0211REMSYN011333   58021
0101833440999991987062512004-14950-040883FM-12+0893SBQV V0209999999999004201CN0040001N9+01681+01531102251ADDAA106000091AG10999GF108991081051004501999999KA1240N+01561MA1999999092141REMSYN017333   20156 5802/
0096833440999991987062518004-14950-040883FM-12+0893SBQV V0209999999999004201CN0100001N9+01831+01511102031ADDAA106000091AG10999GF108991081051004501999999MA1999999091941MD1999999+0331REMSYN011333   58033
0115833440999991987062600004-14950-040883FM-12+0893SBQV V0209999999999045001CN9999999N9+01581+01481102211ADDAA106000091AG10999GF108991031051004501021999KA1240M+01951MA1999999092081MD1999999+0131REMSYN017333   10195 58013
0143833440999991987062612004-14950-040883FM-12+0893SBQV V0209999999999004201CN0040001N9+01561+01381102351ADDAA124000391AG10999AY151061AY221061GF108991081051004501999999KA1240N+01441MA1999999092181MD1999999+0041MW1021REMSYN023333   20144 58004 69934
0115833440999991987062712004-14950-040883FM-12+0893SBQV V0209999999999012001CN0100001N9+01501+01161102321ADDAA106000091AG10999GF108991081001012501021999KA1240N+01051MA1999999092141MD1999999-0041REMSYN017333   20105 59004
0096833440999991987062718004-14950-040883FM-12+0893SBQV V0209999999999004201CN0100001N9+01721+01311102091ADDAA106000091AG10999GF108991081051004501999999MA1999999091921MD1999999-0021REMSYN011333   59002
0062833440999991987062812004-14950-040883FM-12+0893SBQV V0209999999999012001CN0100001N9+01491+01251102271ADDAA106000091AG10999GF108991081001012501021999MA1999999092101
0115833440999991987062900004-14950-040883FM-12+0893SBQV V0209999999999220001CN9999999N9+01531+01181102081ADDAA106000091AG10999GF100991001001999999001001KA1240M+01941MA1999999091941MD1999999-0111REMSYN017333   10194 59011
0143833440999991987062912004-14950-040883FM-12+0893SBQV V0209999999999004201CN0040001N9+01561+01511102241ADDAA124001091AG10999AY151061AY221061GF108991081051004501999999KA1240N+01171MA1999999092091MD1999999-0011MW1511REMSYN023333   20117 59001 60014
0135833440999991987062918004-14950-040883FM-12+0893SBQV V0209999999999045001CN0100001N9+02091+01421101871ADDAA106000291AA299000391AG10999AY151061AY211061GF106991031021004501041001MA1999999091791MD1999999+0001MW1011REMSYN017333   58000 69921
0143833440999991987063012004-14950-040883FM-12+0893SBQV V0209999999999004201CN0040001N9+01671+01601102021ADDAA124002091AG10999AY151061AY221061GF108991081051004501999999KA1240N+01451MA1999999091911MD1999999-0181MW1021REMSYN023333   20145 59018 60024
0124833440999991987063018004-14950-040883FM-12+0893SBQV V02099999999999999999N0100001N9+01821+01651101741ADDAA106000191AG10999AY151061AY211061GF108991051999004501999999MA1999999091671MD1999999-0121MW1021REMSYN017333   59012 69911
0096833440999991987070118004-14950-040883FM-12+0893SBQV V0209999999999220001CN0200001N9+02271+01561101611ADDAA106000091AG10999GF103991031011004501001001MA1999999091591MD1999999-0081REMSYN011333   59008
0115833440999991987070212004-14950-040883FM-12+0893SBQV V0209999999999004201CN0100001N9+02771+01511101451ADDAA106000091AG10999GF108991081051004501999999KA1240N+01571MA1999999091851MD1999999+0011REMSYN017333   20157 58001
0096833440999991987070218004-14950-040883FM-12+0893SBQV V0209999999999004201CN0200001N9+02251+01501101551ADDAA106000091AG10999GF105991051021004501001001MA1999999091541MD1999999-0051REMSYN011333   59005
0126833440999991987070312004-14950-040883FM-12+0893SBQV V0209999999999004201CN0100001N9+01921+01611101971ADDAG10999AY121061AY221061GF108991081051004501999999KA1240N+01601MA1999999091901MD1999999+0051MW1161REMSYN017333   20160 58005
0096833440999991987070418004-14950-040883FM-12+0893SBQV V0209999999999004201CN0200001N9+02151+01571101601ADDAA106000091AG10999GF105991051021004501001001MA1999999091571MD1999999-0041REMSYN011333   59004
0115833440999991987070500004-14950-040883FM-12+0893SBQV V0209999999999220001CN9999999N9+01691+01351101831ADDAA106000091AG10999GF100991001001999999001001KA1240M+02261MA1999999091761MD1999999-0051REMSYN017333   10226 59005
0143833440999991987070612004-14950-040883FM-12+0893SBQV V0209999999999004201CN0040001N9+01711+01591102051ADDAA124000591AG10999AY161061AY201061GF108991081051004501999999KA1240N+01491MA1999999091941MD1999999+0161MW1511REMSYN023333   20149 58016 69954
0135833440999991987070618004-14950-040883FM-12+0893SBQV V0209999999999004201CN0100001N9+01851+01781101641ADDAA106000891AA299001091AG10999AY161061AY211061GF108991081051004501999999MA1999999091591MD1999999+0081MW1611REMSYN017333   58008 69981
0121833440999991987070712004-14950-040883FM-12+0893SBQV V0209999999999004201CN0100001N9+01821+01511101961ADDAA124001091AG10999GF108991081061004501999999KA1240N+01511MA1999999091861MD1999999-0081REMSYN023333   20151 59008 60014
0096833440999991987070718004-14950-040883FM-12+0893SBQV V0209999999999045001CN0200001N9+02371+01481101551ADDAA106000091AG10999GF106991041021008001061001MA1999999091551MD1999999-0041REMSYN011333   59004
0115833440999991987070812004-14950-040883FM-12+0893SBQV V0209999999999012001CN0100001N9+01781+01651101941ADDAA106000091AG10999GF108991081001012501021999KA1240N+01491MA1999999091851MD1999999-0011REMSYN017333   20149 59001
0096833440999991987070818004-14950-040883FM-12+0893SBQV V0209999999999004201CN0200001N9+02331+01601101511ADDAA106000091AG10999GF105991051021004501001001MA1999999091511MD1999999-0041REMSYN011333   59004
0115833440999991987070912004-14950-040883FM-12+0893SBQV V0209999999999007501CN0200001N9+02011+01581101771ADDAA106000091AG10999GF106991061021008001001001KA1240N+01541MA1999999091741MD1999999-0111REMSYN017333   20154 59011
0115833440999991987071012004-14950-040883FM-12+0893SBQV V0209999999999220001CN0500001N9+02151+01001101581ADDAA106000091AG10999GF100991001001999999001001KA1240N+01571MA1999999091591MD1999999-0161REMSYN017333   20157 59016
0096833440999991987071018004-14950-040883FM-12+0893SBQV V0209999999999220001CN0500001N9+02431+01561101271ADDAA106000091AG10999GF104991041021004501001001MA1999999091331MD1999999-0091REMSYN011333   59009
0115833440999991987071112004-14950-040883FM-12+0893SBQV V0209999999999007501CN0500001N9+01891+01641101721ADDAA106000091AG10999GF106991061061008001001001KA1240N+01851MA1999999091671MD1999999+0091REMSYN017333   20185 58009
0096833440999991987071118004-14950-040883FM-12+0893SBQV V0209999999999007501CN0200001N9+02361+02291101321ADDAA106000091AG10999GF105991051021008001001001MA1999999091351MD1999999+0021REMSYN011333   58002
0096833440999991987071218004-14950-040883FM-12+0893SBQV V0209999999999045001CN0200001N9+02451+01441101351ADDAA106000091AG10999GF105991021021008001061001MA1999999091381MD1999999+0021REMSYN011333   58002
0124833440999991987071318004-14950-040883FM-12+0893SBQV V0209999999999045001CN0200001N9+02151+01961101381ADDAA106002091AG10999AY161061AY261061GF106991031071008001081001MA1999999091391MD1999999+0011MW1021REMSYN017333   58001 60021
0121833440999991987071412004-14950-040883FM-12+0893SBQV V0209999999999220001CN0200001N9+02131+01661101651ADDAA124002091AG10999GF100991001001999999001001KA1240N+01591MA1999999091651MD1999999-0041REMSYN023333   20159 59004 60024
0096833440999991987071418004-14950-040883FM-12+0893SBQV V0209999999999220001CN0200001N9+02571+01401101311ADDAA106000091AG10999GF102991021011004501001001MA1999999091391MD1999999-0021REMSYN011333   59002
0115833440999991987071500004-14950-040883FM-12+0893SBQV V0209999999999220001CN9999999N9+01841+01511101591ADDAA106000091AG10999GF100991001001999999001001KA1240M+02641MA1999999091591MD1999999+0051REMSYN017333   10264 58005
0115833440999991987071512004-14950-040883FM-12+0893SBQV V0209999999999220001CN0200001N9+02011+01521101651ADDAA106000091AG10999GF100991001001999999001001KA1240N+01341MA1999999091631MD1999999-0021REMSYN017333   20134 59002
0086833440999991987071518004-14950-040883FM-12+0893SBQV V0209999999999220001CN0200001N9+02571+01161101371ADDAA106000091AG10999GF104991041011008001021001REMSYN011333   08004EQDQ01+015981APOSP 
0115833440999991987071612004-14950-040883FM-12+0893SBQV V0209999999999004201CN0100001N9+01961+01551101821ADDAA106000091AG10999GF108991081051004501999999KA1240N+01471MA1999999091771MD1999999+0141REMSYN017333   20147 58014
0096833440999991987071618004-14950-040883FM-12+0893SBQV V0209999999999220001CN0200001N9+02521+01141101461ADDAA106000091AG10999GF103991031011004501001001MA1999999091491MD1999999+0081REMSYN011333   58008
0115833440999991987071712004-14950-040883FM-12+0893SBQV V0209999999999007501CN0200001N9+01911+01491101791ADDAA106000091AG10999GF105991051021008001001001KA1240N+01791MA1999999091741MD1999999-0031REMSYN017333   20179 59003
0115833440999991987071718004-14950-040883FM-12+0893SBQV V02099999999999999999N0200001N9+02291+01481101421ADDAA106000091AG10999GF106991999021008001001001MA1999999091431MD1999999-0061REMSYN011333   59006EQDQ01+000042SCOTLC
0143833440999991987071812004-14950-040883FM-12+0893SBQV V0209999999999004201CN0040001N9+01741+01541101811ADDAA124001091AG10999AY151061AY211061GF108991081051004501999999KA1240N+01331MA1999999091741MD1999999+0001MW1021REMSYN023333   20133 58000 60014
0096833440999991987071818004-14950-040883FM-12+0893SBQV V0209999999999045001CN0100001N9+02271+01271101451ADDAA106000091AG10999GF107991031021004501071001MA1999999091451MD1999999+0021REMSYN011333   58002
0115833440999991987071900004-14950-040883FM-12+0893SBQV V0209999999999220001CN9999999N9+01761+01491101761ADDAA106000091AG10999GF104991041011008001001001KA1240M+02391MA1999999091641MD1999999+0151REMSYN017333   10239 58015
0115833440999991987071912004-14950-040883FM-12+0893SBQV V0209999999999220001CN0200001N9+01841+01411101901ADDAA106000091AG10999GF103991031011004501001001KA1240N+01271MA1999999091831MD1999999+0091REMSYN017333   20127 58009
0096833440999991987071918004-14950-040883FM-12+0893SBQV V0209999999999004201CN0200001N9+02401+01321101521ADDAA106000091AG10999GF105991051021004501001001MA1999999091521MD1999999+0071REMSYN011333   58007
0115833440999991987072012004-14950-040883FM-12+0893SBQV V0209999999999220001CN0200001N9+01821+01291102051ADDAA106000091AG10999GF104991041021004501001001KA1240N+01801MA1999999091951MD1999999+0121REMSYN017333   20180 58012
0115833440999991987072112004-14950-040883FM-12+0893SBQV V0200901N00311045001CN0200001N9+02041+01431101791ADDAA106000091AG10999GF106991031021008001051001KA1240N+01631MA1999999091761MD1999999-0191REMSYN017333   20163 59019
0096833440999991987072118004-14950-040883FM-12+0893SBQV V0201401N00151045001CN0100001N9+02351+01461101371ADDAA106000091AG10999GF108991041071008001021999MA1999999091401MD1999999-0251REMSYN011333   59025
0096833440999991987072218004-14950-040883FM-12+0893SBQV V0200901N00311220001CN0500001N9+02511+00951101241ADDAA106000091AG10999GF102991021011004501001001MA1999999091301MD1999999-0101REMSYN011333   59010
0115833440999991987072300004-14950-040883FM-12+0893SBQV V0201401N00151220001CN9999999N9+01751+01251101621ADDAA106000091AG10999GF100991001001999999001001KA1240M+02541MA1999999091581MD1999999+0071REMSYN017333   10254 58007
0143833440999991987072312004-14950-040883FM-12+0893SBQV V0201401N00311045001CN0040001N9+01521+01461102051ADDAA124000591AG10999AY151061AY261061GF108991041071008001021999KA1240N+01491MA1999999091941MD1999999+0301MW1511REMSYN023333   20149 58030 69954
0085833440999991987072318004-14950-040883FM-12+0893SBQV V0201401N00311045001CN0200001N9+02021+01261101651ADDAG10999GF106991041061008001061001MA1999999091621MD1999999+0321REMSYN011333   58032
0115833440999991987072412004-14950-040883FM-12+0893SBQV V0201401N00311220001CN0200001N9+01721+01271102101ADDAA106000091AG10999GF104991041041004501001001KA1240N+01351MA1999999091981MD1999999+0041REMSYN017333   20135 58004
0096833440999991987072418004-14950-040883FM-12+0893SBQV V0201401N00361007501CN0200001N9+02141+01201101731ADDAA106000091AG10999GF106991061021008001001001MA1999999091681MD1999999+0061REMSYN011333   58006
0115833440999991987072518004-14950-040883FM-12+0893SBQV V0200901N003619999999N0200001N9+02351+02091101581ADDAA106000091AG10999GF106991999021008001001001MA1999999091561MD1999999-0121REMSYN011333   59012EQDQ01+000012SCOTLC
0154833440999991987072612004-14950-040883FM-12+0893SBQV V0201401N00311045001CN0040001N9+01761+01741101771ADDAA124000291AA299000391AG10999AY151061AY261061GF108991041071008001021999KA1240N+01571MA1999999091701MD1999999-0171MW1511REMSYN023333   20157 59017 69924
0135833440999991987072618004-14950-040883FM-12+0893SBQV V0201401N00261007501CN0040001N9+02061+01701101451ADDAA106000691AA299000591AG10999AY161061AY251061GF108991061071008001021999MA1999999091441MD1999999-0121MW1511REMSYN017333   59012 69961
0143833440999991987072712004-14950-040883FM-12+0893SBQV V0201401N00311004201CN0100001N9+01751+01541101761ADDAA124001091AG10999AY151061AY211061GF108991081051004501999999KA1240N+01451MA1999999091681MD1999999-0021MW1011REMSYN023333   20145 59002 60014
0115833440999991987072812004-14950-040883FM-12+0893SBQV V0201401N00311007501CN0100001N9+01851+01451101661ADDAA106000091AG10999GF108991061071008001011999KA1240N+01491MA1999999091621MD1999999-0061REMSYN017333   20149 59006
0137833440999991987072818004-14950-040883FM-12+0893SBQV V0201401N00361007501CN0040001N9+02071+01721101281ADDAA106999999AG10999AY121061AY221061GF108991051071008001011999MA1999999091281MD1999999-0091MW1501REMSYN011333   59009EQDQ01  00002PRCP06
0115833440999991987072912004-14950-040883FM-12+0893SBQV V0203601N00361220001CN0200001N9+02091+01491101511ADDAA106000091AG10999GF102991021011008001001001KA1240N+01671MA1999999091501MD1999999-0071REMSYN017333   20167 59007
0096833440999991987072918004-14950-040883FM-12+0893SBQV V0203601N00051007501CN0200001N9+02661+01051101111ADDAA106000091AG10999GF105991051051008001001001MA1999999091191MD1999999-0091REMSYN011333   59009
0115833440999991987073012004-14950-040883FM-12+0893SBQV V0203601N00511220001CN0200001N9+01931+01511101431ADDAA106000091AG10999GF102991021021008001001001KA1240N+01491MA1999999091431MD1999999-0071REMSYN017333   20149 59007
0115833440999991987073112004-14950-040883FM-12+0893SBQV V0203601N00671220001CN0200001N9+02081+01601101001ADDAA106000091AG10999GF102991021011008001001001KA1240N+01731MA1999999091081MD1999999-0351REMSYN017333   20173 59035
0096833440999991987073118004-14950-040883FM-12+0893SBQV V0203201N00311045001CN0200001N9+02761+01391100681ADDAA106000091AG10999GF107991031021008001031091MA1999999090831MD1999999-0191REMSYN011333   59019
0143833440999991987080112004-14950-040883FM-12+0893SBQV V0201401N00311045001CN0100001N9+01441+01231101611ADDAA124005091AG10999AY161061AY221061GF108991041071008001021999KA1240N+01291MA1999999091571MD1999999+0491MW1021REMSYN023333   20129 58049 60054
0115833440999991987080200004-14950-040883FM-12+0893SBQV V0200901N00361007501CN0100001N9+01541+01311101841ADDAA106000091AG10999GF108991051071008001021999KA1240N+01291MA1999999091731MD1999999+0161REMSYN017333   20129 58016
0115833440999991987080212004-14950-040883FM-12+0893SBQV V0200901N00361007501CN0100001N9+01541+01311101841ADDAA106000091AG10999GF108991051071008001021999KA1240N+01291MA1999999091731MD1999999+0161REMSYN017333   20129 58016
0096833440999991987080218004-14950-040883FM-12+0893SBQV V0200901N00311045001CN0200001N9+01941+01461101461ADDAA106000091AG10999GF107991041071008001011001MA1999999091421MD1999999+0331REMSYN011333   58033
0115833440999991987080312004-14950-040883FM-12+0893SBQV V0200901N00311007501CN0100001N9+01561+01331101771ADDAA106000091AG10999GF108991051071008001031999KA1240N+01371MA1999999091671MD1999999-0061REMSYN017333   20137 59006
0096833440999991987080318004-14950-040883FM-12+0893SBQV V0201401N00311220001CN0200001N9+02311+01451101261ADDAA106000091AG10999GF102991021011008001001001MA1999999091271MD1999999-0151REMSYN011333   59015
0134833440999991987080412004-14950-040883FM-12+0893SBQV V0201401N00211007501CN0200001N9+01861+01431101761ADDAA106000091AG10999GF108991999021008001001001KA1240N+01451MA1999999091681MD1999999+0011REMSYN017333   20145 58001EQDQ01+000052SCOTLC
0096833440999991987080418004-14950-040883FM-12+0893SBQV V0200901N00361220001CN0200001N9+02301+01201101361ADDAA106000091AG10999GF104991041051008001001001MA1999999091361MD1999999+0091REMSYN011333   58009
0115833440999991987080512004-14950-040883FM-12+0893SBQV V0200901N00311220001CN0200001N9+01721+01271101871ADDAA106000091AG10999GF100991001001999999001001KA1240N+01241MA1999999091771MD1999999+0091REMSYN017333   20124 58009
0096833440999991987080518004-14950-040883FM-12+0893SBQV V0200901N00361220001CN0200001N9+02451+01101101391ADDAA106000091AG10999GF102991021011008001001001MA1999999091391MD1999999+0031REMSYN011333   58003
0115833440999991987080612004-14950-040883FM-12+0893SBQV V0203601N00211220001CN0200001N9+01961+01351101641ADDAA106000091AG10999GF100991001001999999001001KA1240N+01291MA1999999091611MD1999999-0161REMSYN017333   20129 59016
0096833440999991987080618004-14950-040883FM-12+0893SBQV V0203201N00151220001CN0200001N9+02761+01081101071ADDAA106000091AG10999GF103991031011008001001001MA1999999091151MD1999999-0241REMSYN011333   59024
0115833440999991987080700004-14950-040883FM-12+0893SBQV V0201401N00101220001CN9999999N9+01991+01151101391ADDAA106000091AG10999GF100991001001999999001001KA1240M+02821MA1999999091311MD1999999-0211REMSYN017333   10282 59021
0115833440999991987080712004-14950-040883FM-12+0893SBQV V0203601N00511220001CN0200001N9+02231+01451101221ADDAA106000091AG10999GF100991001001999999001001KA1240N+01791MA1999999091281MD1999999-0331REMSYN017333   20179 59033
0096833440999991987080718004-14950-040883FM-12+0893SBQV V0202301N00261045001CN0200001N9+03091+02731100831ADDAA106000091AG10999GF106991031021008001081001MA1999999090911MD1999999-0241REMSYN011333   59024
0115833440999991987080800004-14950-040883FM-12+0893SBQV V0203601N00671220001CN9999999N9+02261+01501101031ADDAA106000091AG10999GF103991001001999999001091KA1240M+03111MA1999999091141MD1999999-0171REMSYN017333   10311 59017
0115833440999991987080812004-14950-040883FM-12+0893SBQV V0202301N00571220001CN0200001N9+02431+01511101221ADDAA106000091AG10999GF100991001001999999001001KA1240N+01771MA1999999091331MD1999999-0051REMSYN017333   20177 59005
0096833440999991987080818004-14950-040883FM-12+0893SBQV V0200301N00151045001CN0200001N9+03051+01201100911ADDAA106000091AG10999GF106991021021004501041001MA1999999091051MD1999999+0141REMSYN011333   58014
0137833440999991987080912004-14950-040883FM-12+0893SBQV V0200901N00151007501CN0200001N9+01801+01651101631ADDAA106000091AG10999AY141061AY241061GF107991051061008001011001KA1240N+01431MA1999999091621MD1999999-0291MW1281REMSYN017333   20143 59029
0115833440999991987081018004-14950-040883FM-12+0893SBQV V0200901N00361220001CN0200001N9+02631+01541101241ADDAA106000091AG10999GF103991999011008001001001MA1999999091331MD1999999+0111REMSYN011333   58011EQDQ01+000022SCOTLC
0096833440999991987081118004-14950-040883FM-12+0893SBQV V0200901N00311220001CN0200001N9+02661+01621101191ADDAA106000091AG10999GF102991021011008001001001MA1999999091291MD1999999-0041REMSYN011333   59004
0096833440999991987081418004-14950-040883FM-12+0893SBQV V0200501N00311007501CN0200001N9+02621+01401101361ADDAA106000091AG10999GF105991051021008001001001MA1999999091431MD1999999-0011REMSYN011333   59001
0115833440999991987081512004-14950-040883FM-12+0893SBQV V0203601N00411220001CN0200001N9+02021+01351101801ADDAA106000091AG10999GF103991031011008001001001KA1240N+01031MA1999999091781MD1999999+0031REMSYN017333   20103 58003
0096833440999991987081518004-14950-040883FM-12+0893SBQV V0200501N00311220001CN0200001N9+02581+01161101341ADDAA106000091AG10999GF104991041011008001001001MA1999999091411MD1999999-0021REMSYN011333   59002
0115833440999991987081600004-14950-040883FM-12+0893SBQV V0200501N00511220001CN9999999N9+01861+01491101571ADDAA106000091AG10999GF100991001001999999001001KA1240M+02741MA1999999091561MD1999999-0041REMSYN017333   10274 59004
0115833440999991987081612004-14950-040883FM-12+0893SBQV V0203601N00461220001CN0200001N9+02121+01441101751ADDAA106000091AG10999GF102991021011008001001001KA1240N+01871MA1999999091741MD1999999-0041REMSYN017333   20187 59004
0096833440999991987081618004-14950-040883FM-12+0893SBQV V0200501N00211007501CN0200001N9+02581+01331101341ADDAA106000091AG10999GF106991061011008001001001MA1999999091371MD1999999-0041REMSYN011333   59004
0115833440999991987081700004-14950-040883FM-12+0893SBQV V0200501N00461220001CN9999999N9+01931+01491101511ADDAA106000091AG10999GF100991001001999999001001KA1240M+02691MA1999999091521MD1999999-0041REMSYN017333   10269 59004
0082833440999991987081718004-14950-040883FM-12+0893SBQV V0201401N00211220001CN0200001N9+02811+01291101201ADDAA106000091AG10999GF102991999999008001999999MA1999999091231REMSYN011333   5914/
0115833440999991987081812004-14950-040883FM-12+0893SBQV V0202701N00101220001CN0000001N9+02401+01291101521ADDAA106000091AG10999GF100991001001999999001001KA1240N+01551MA1999999091571MD1999999-0091REMSYN017333   20155 59009
0096833440999991987081818004-14950-040883FM-12+0893SBQV V0200901N00511105001CN0200001N9+02781+00811101241ADDAA106000091AG10999GF106991041001012501031021MA1999999091321MD1999999+0091REMSYN011333   58009
0115833440999991987081912004-14950-040883FM-12+0893SBQV V0200901N00411220001CN0200001N9+02041+01311101831ADDAA106000091AG10999GF102991021011008001001001KA1240N+01411MA1999999091841MD1999999+0251REMSYN017333   20141 58025
0096833440999991987081918004-14950-040883FM-12+0893SBQV V0200901N00311105001CN0200001N9+02461+01081101551ADDAA106000091AG10999GF107991031011008001001061MA1999999091561MD1999999+0241REMSYN011333   58024
0115833440999991987082012004-14950-040883FM-12+0893SBQV V0203601N00511220001CN0200001N9+02021+01291101811ADDAA106000091AG10001GF100991001001999999001001KA1240N+01181MA1999999091781MD1999999+0061REMSYN017333   20118 58006
0096833440999991987082018004-14950-040883FM-12+0893SBQV V0201401N00461220001CN0200001N9+02871+01601101221ADDAA106000091AG10999GF105991001001999999001011MA1999999091301MD1999999-0261REMSYN011333   59026
0115833440999991987082112004-14950-040883FM-12+0893SBQV V0203601N00261220001CN0500001N9+02141+01251101751ADDAA106000091AG10999GF104991001001999999001011KA1240N+01131MA1999999091751MD1999999-0031REMSYN017333   20113 59003
0096833440999991987082118004-14950-040883FM-12+0893SBQV V0201401N00411220001CN0500001N9+02691+01231101321ADDAA106000091AG10999GF106991031091004501001011MA1999999091361MD1999999+0061REMSYN011333   58006
0115833440999991987082212004-14950-040883FM-12+0893SBQV V0200901N00361220001CN0200001N9+02031+01381101871ADDAA106000091AG10999GF106991021011008001001011KA1240N+01371MA1999999091841MD1999999+0091REMSYN017333   20137 58009
0096833440999991987082218004-14950-040883FM-12+0893SBQV V0201401N00311105001CN0200001N9+02581+01611101471ADDAA106000091AG10999GF105991001001999999001021MA1999999091491MD1999999+0131REMSYN011333   58013
0115833440999991987082300004-14950-040883FM-12+0893SBQV V0201401N00261045001CN9999999N9+01911+01661101881ADDAA106000091AG10999GF108991041071008001021999KA1240M+02651MA1999999091851MD1999999+0211REMSYN017333   10265 58021
0137833440999991987082312004-14950-040883FM-12+0893SBQV V0200901N00361007501CN0100001N9+01621+01401102251ADDAA106000091AG10999AY121061AY221061GF108991051071008001021999KA1240N+01511MA1999999092141MD1999999+0301MW1161REMSYN017333   20151 58030
0115833440999991987082412004-14950-040883FM-12+0893SBQV V0201401N00361045001CN0100001N9+01561+01081102281ADDAA106000091AG10999GF108991041071008001021999KA1240N+01271MA1999999092141MD1999999+0001REMSYN017333   20127 58000
0115833440999991987082500004-14950-040883FM-12+0893SBQV V0200901N00261220001CN9999999N9+01481+01161102131ADDAA106000091AG10999GF103991031061008001001001KA1240M+02211MA1999999091981MD1999999-0071REMSYN017333   10221 59007
0115833440999991987082512004-14950-040883FM-12+0893SBQV V0200901N00311007501CN0100001N9+01631+01181102211ADDAA106000091AG10999GF108991051071008001021999KA1240N+01191MA1999999092061MD1999999-0081REMSYN017333   20119 59008
0062833440999991987082518004-14950-040883FM-12+0893SBQV V0201401N00511007501CN0200001N9+02091+01221101831ADDAA106000091AG10999GF106991061051008001001001MA1999999091751
0115833440999991987082600004-14950-040883FM-12+0893SBQV V0200901N00101007501CN9999999N9+01561+01331102031ADDAA106000091AG10999GF105991051021008001001001KA1240M+02141MA1999999091911MD1999999-0071REMSYN017333   10214 59007
0115833440999991987082612004-14950-040883FM-12+0893SBQV V0200901N00311045001CN0100001N9+01741+01371102031ADDAA106000091AG10999GF108991041071008001011999KA1240N+01221MA1999999091921MD1999999-0141REMSYN017333   20122 59014
0096833440999991987082618004-14950-040883FM-12+0893SBQV V0201401N00211220001CN0200001N9+02411+01121101621ADDAA106000091AG10999GF106991041011008001001011MA1999999091531MD1999999-0221REMSYN011333   59022
0115833440999991987082700004-14950-040883FM-12+0893SBQV V0200901N00211220001CN9999999N9+01671+01441101771ADDAA106000091AG10001GF100991001001999999001001KA1240M+02511MA1999999091691MD1999999-0221REMSYN017333   10251 59022
0115833440999991987082712004-14950-040883FM-12+0893SBQV V0200901N00211220001CN0200001N9+02091+01321101821ADDAA106000091AG10999GF106991001001999999001061KA1240N+01401MA1999999091781MD1999999-0141REMSYN017333   20140 59014
0095833440999991987082812004-14950-040883FM-12+0893SBQV V0200901N00411220001CN0200001N9+02031+01501101841ADDAA106000091AG10999GF103991031011008001001001KA1240N+01671MA1999999091811REMSYN011333   20167
0096833440999991987082818004-14950-040883FM-12+0893SBQV V0200901N00361220001CN0200001N9+02731+01081101421ADDAA106000091AG10999GF102991021011008001001001MA1999999091461MD1999999-0021REMSYN011333   59002
0115833440999991987082900004-14950-040883FM-12+0893SBQV V0200501N00461220001CN9999999N9+01931+01511101651ADDAA106000091AG10999GF100991001001999999001001KA1240M+02771MA1999999091651MD1999999-0011REMSYN017333   10277 59001
0115833440999991987082912004-14950-040883FM-12+0893SBQV V0200501N00361220001CN0200001N9+02071+01281101781ADDAA106000091AG10999GF103991031011008001001001KA1240N+01391MA1999999091761MD1999999-0051REMSYN017333   20139 59005
0096833440999991987082918004-14950-040883FM-12+0893SBQV V0200501N00411007501CN0200001N9+02631+01171101441ADDAA106000091AG10999GF105991051051008001001001MA1999999091461MD1999999+0001REMSYN011333   58000
0115833440999991987083000004-14950-040883FM-12+0893SBQV V0200501N00311220001CN9999999N9+01901+01201101681ADDAA106000091AG10999GF100991001001999999001001KA1240M+02711MA1999999091671MD1999999+0021REMSYN017333   10271 58002
0096833440999991987083018004-14950-040883FM-12+0893SBQV V0200901N00361220001CN0200001N9+02651+01071101441ADDAA106000091AG10999GF103991031011008001001001MA1999999091471MD1999999+0011REMSYN011333   58001
0115833440999991987083100004-14950-040883FM-12+0893SBQV V0200901N00511220001CN9999999N9+01841+01071101701ADDAA106000091AG10999GF100991001001999999001001KA1240M+02671MA1999999091671MD1999999+0001REMSYN017333   10267 58000
0096833440999991987083118004-14950-040883FM-12+0893SBQV V0200901N00311220001CN0200001N9+02761+00801101311ADDAA106000091AG10999GF104991021011008001001011MA1999999091361MD1999999-0111REMSYN011333   59011
0115833440999991987090100004-14950-040883FM-12+0893SBQV V0200901N00311220001CN9999999N9+01801+01431101621ADDAA106000091AG10999GF102991001001999999001091KA1240M+02801MA1999999091611MD1999999+0021REMSYN017333   10280 58002
0115833440999991987090112004-14950-040883FM-12+0893SBQV V0200901N00461220001CN0200001N9+02051+99999101791ADDAA106000091AG10999GF104991041021004501001001KA1240N+01421MA1999999091751MD1999999+0011REMSYN017333   20142 58001
0115833440999991987090200004-14950-040883FM-12+0893SBQV V0200901N00621045001CN9999999N9+01841+01511101661ADDAA106000091AG10999GF106991031061008001051001KA1240M+02541MA1999999091651MD1999999+0041REMSYN017333   10254 58004
0115833440999991987090212004-14950-040883FM-12+0893SBQV V0200901N00571007501CN0200001N9+02001+01351101911ADDAA106000091AG10999GF105991051011008001001001KA1240N+01471MA1999999091861MD1999999+0211REMSYN017333   20147 58021
0115833440999991987090300004-14950-040883FM-12+0893SBQV V0200901N00311220001CN9999999N9+01801+01161101641ADDAA106000091AG10999GF100991001001999999001001KA1240M+02541MA1999999091621MD1999999-0031REMSYN017333   10254 59003
0115833440999991987090312004-14950-040883FM-12+0893SBQV V0203201N00101220001CN0200001N9+02321+01131101691ADDAA106000091AG10999GF100991001001999999001001KA1240N+01491MA1999999091691MD1999999-0171REMSYN017333   20149 59017
0096833440999991987090318004-14950-040883FM-12+0893SBQV V0203601N00311220001CN0200001N9+02861+00981101101ADDAA106000091AG10999GF102991021011008001001001MA1999999091221MD1999999-0221REMSYN011333   59022
0115833440999991987090400004-14950-040883FM-12+0893SBQV V0200501N00621220001CN9999999N9+01971+01611101321ADDAA106000091AG10999GF100991001001999999001001KA1240M+02911MA1999999091381MD1999999-0241REMSYN017333   10291 59024
0115833440999991987090412004-14950-040883FM-12+0893SBQV V0203601N00461220001CN0200001N9+02111+01481101471ADDAA106000091AG10999GF100991001001999999001001KA1240N+01591MA1999999091491MD1999999-0201REMSYN017333   20159 59020
0096833440999991987090418004-14950-040883FM-12+0893SBQV V0201401N00311220001CN0200001N9+02811+01331101031ADDAA106000091AG10999GF102991021011008001001001MA1999999091141MD1999999-0061REMSYN011333   59006
0115833440999991987090500004-14950-040883FM-12+0893SBQV V0200901N00411220001CN9999999N9+01971+01641101521ADDAA106000091AG10001GF100991001001999999001001KA1240M+02881MA1999999091541MD1999999-0161REMSYN017333   10288 59016
0115833440999991987090512004-14950-040883FM-12+0893SBQV V0200901N00511220001CN0200001N9+02051+01281101721ADDAA106000091AG10999GF103991031081008001001001KA1240N+02061MA1999999091711MD1999999+0221REMSYN017333   20206 58022
0134833440999991987090600004-14950-040883FM-12+0893SBQV V0200901N00261220001CN9999999N9+02881+01491101431ADDAA106000091AG10999GF100991001001999999001001KA1240M+99999MA1999999091441MD1999999-0101REMSYN017333   10273 59010EQDQ01 +02732ATMX  
0115833440999991987090612004-14950-040883FM-12+0893SBQV V0200501N00311220001CN0200001N9+02211+01431101571ADDAA106000091AG10999GF102991001001999999001011KA1240N+01541MA1999999091581MD1999999-0131REMSYN017333   20154 59013
0096833440999991987090618004-14950-040883FM-12+0893SBQV V0200901N00151220001CN0200001N9+03071+00961100931ADDAA106000091AG10999GF102991001001999999001091MA1999999091061MD1999999-0191REMSYN011333   59019
0115833440999991987090700004-14950-040883FM-12+0893SBQV V0200501N00621220001CN9999999N9+02321+01341101161ADDAA106000091AG10999GF100991001001999999001001KA1240M+03161MA1999999091241MD1999999-0201REMSYN017333   10316 59020
0137833440999991987090712004-14950-040883FM-12+0893SBQV V0200901N00151007501CN0100001N9+01931+01611101601ADDAA106000091AG10999AY121061AY221061GF108991051071008001011041KA1240N+01271MA1999999091621MD1999999+0091MW1021REMSYN017333   20127 58009
0096833440999991987090718004-14950-040883FM-12+0893SBQV V0201401N00311105001CN0200001N9+02771+01611101131ADDAA106000091AG10999GF107991021011004501001021MA1999999091231MD1999999+0171REMSYN011333   58017
0115833440999991987090812004-14950-040883FM-12+0893SBQV V0201401N00361045001CN0200001N9+02151+01501101781ADDAA106000091AG10999GF106991031021008001061001KA1240N+01671MA1999999091781MD1999999+0161REMSYN017333   20167 58016
0135833440999991987090918004-14950-040883FM-12+0893SBQV V0201401N00211007501CN0100001N9+99999+99999101441ADDAA106000691AA299000591AG10999AY161061AY261061GF108991051071008001021011MA1999999091491MD1999999+0021MW1021REMSYN017333   58002 69961
0115833440999991987091000004-14950-040883FM-12+0893SBQV V0200901N00311007501CN9999999N9+01781+01671101641ADDAA106000091AG10999GF108991061071008001021999KA1240M+02031MA1999999091601MD1999999-0141REMSYN017333   10203 59014
0132833440999991987091012004-14950-040883FM-12+0893SBQV V0200901N00511045001CN0200001N9+01961+01641101681ADDAA124000691AA299000591AG10999GF107991041071008001011001KA1240N+01521MA1999999091651MD1999999-0101REMSYN023333   20152 59010 69964
0096833440999991987091018004-14950-040883FM-12+0893SBQV V0200901N00261007501CN0200001N9+02341+01671101321ADDAA106000091AG10999GF107991051071008001021001MA1999999091341MD1999999-0081REMSYN011333   59008
0115833440999991987091100004-14950-040883FM-12+0893SBQV V0201401N00211220001CN9999999N9+01721+01611101561ADDAA106000091AG10999GF100991001001999999001001KA1240M+02391MA1999999091541MD1999999-0061REMSYN017333   10239 59006
0115833440999991987091112004-14950-040883FM-12+0893SBQV V0203601N00361220001CN0200001N9+02271+01591101261ADDAA106000091AG10999GF104991041021004501001001KA1240N+01591MA1999999091621MD1999999-0581REMSYN017333   20159 59058
0096833440999991987091218004-14950-040883FM-12+0893SBQV V0200901N00311045001CN0200001N9+02441+01611101501ADDAA106000091AG10999GF107991041071008001011001MA1999999091531MD1999999+0321REMSYN011333   58032
0115833440999991987091300004-14950-040883FM-12+0893SBQV V0200901N00511220001CN9999999N9+01981+01701101761ADDAA106000091AG10999GF102991021011008001001001KA1240M+02581MA1999999091771MD1999999+0261REMSYN017333   10258 58026
0143833440999991987091312004-14950-040883FM-12+0893SBQV V0200901N00361007501CN0200001N9+01991+01801102061ADDAA124000391AG10999AY161061AY261061GF108991051071008001011041KA1240N+01711MA1999999092021MD1999999+0241MW1211REMSYN023333   20171 58024 69934
0096833440999991987091318004-14950-040883FM-12+0893SBQV V0200901N00571220001CN0200001N9+02531+01291101651ADDAA106000091AG10999GF103991031011008001001001MA1999999091671MD1999999+0141REMSYN011333   58014
0115833440999991987091400004-14950-040883FM-12+0893SBQV V0200901N00361220001CN9999999N9+01961+01661101911ADDAA106000091AG10999GF102991021021008001001001KA1240M+02591MA1999999091871MD1999999+0101REMSYN017333   10259 58010
0121833440999991987091412004-14950-040883FM-12+0893SBQV V0200901N00361007501CN0200001N9+02111+01441102061ADDAA124000591AG10999GF106991061021008001001001KA1240N+01571MA1999999092031MD1999999+0011REMSYN023333   20157 58001 69954
0096833440999991987091418004-14950-040883FM-12+0893SBQV V0200901N00361007501CN0200001N9+02641+01321101561ADDAA106000091AG10999GF105991051021008001001001MA1999999091611MD1999999-0061REMSYN011333   59006
0115833440999991987091500004-14950-040883FM-12+0893SBQV V0200901N00311220001CN9999999N9+01921+01531101701ADDAA106000091AG10999GF100991001001999999001001KA1240M+02641MA1999999091691MD1999999-0181REMSYN017333   10264 59018
0115833440999991987091512004-14950-040883FM-12+0893SBQV V0200901N00311007501CN0200001N9+02091+01341101791ADDAA106000091AG10999GF106991061011008001001001KA1240N+01441MA1999999091771MD1999999-0261REMSYN017333   20144 59026
0096833440999991987091518004-14950-040883FM-12+0893SBQV V0200501N00411220001CN0200001N9+02711+01281101601ADDAA106000091AG10999GF103991031011008001001001MA1999999091351MD1999999-0261REMSYN011333   59026
0115833440999991987091612004-14950-040883FM-12+0893SBQV V0200501N00411220001CN0200001N9+02341+01301101781ADDAA106000091AG10999GF100991001001999999001001KA1240N+01531MA1999999091791MD1999999+0021REMSYN017333   20153 58002
0096833440999991987091618004-14950-040883FM-12+0893SBQV V0201401N00311220001CN0200001N9+02871+01221101211ADDAA106000091AG10999GF100991001001999999001001MA1999999091321MD1999999-0031REMSYN011333   59003
0115833440999991987091700004-14950-040883FM-12+0893SBQV V0200501N00411220001CN9999999N9+02051+01451101581ADDAA106000091AG10999GF100991001001999999001001KA1240M+02951MA1999999091541MD1999999-0051REMSYN017333   10295 59005
0115833440999991987091712004-14950-040883FM-12+0893SBQV V0200901N00311220001CN0200001N9+02211+01191101641ADDAA106000091AG10999GF100991001001999999001001KA1240N+01441MA1999999091671MD1999999-0121REMSYN017333   20144 59012
0096833440999991987091718004-14950-040883FM-12+0893SBQV V0200901N00411220001CN0200001N9+02691+01301101161ADDAA106000091AG10999GF103991031011008001001001MA1999999091251MD1999999-0071REMSYN011333   59007
0115833440999991987091800004-14950-040883FM-12+0893SBQV V0200501N00411220001CN9999999N9+02021+01411101491ADDAA106000091AG10999GF100991001001999999001001KA1240M+02781MA1999999091521MD1999999-0021REMSYN017333   10278 59002
0115833440999991987091812004-14950-040883FM-12+0893SBQV V0200901N00261007501CN0200001N9+02171+01521101731ADDAA106000091AG10999GF106991061021008001001001KA1240N+01611MA1999999091451MD1999999+0071REMSYN017333   20161 58007
0096833440999991987091818004-14950-040883FM-12+0893SBQV V0200501N00361007501CN0200001N9+02591+01541101201ADDAA106000091AG10999GF107991061061008001001011MA1999999091281MD1999999+0031REMSYN011333   58003
0115833440999991987091900004-14950-040883FM-12+0893SBQV V0200501N00511220001CN9999999N9+02061+01621101431ADDAA106000091AG10999GF100991001001999999001001KA1240M+02661MA1999999091461MD1999999-0061REMSYN017333   10266 59006
0115833440999991987091912004-14950-040883FM-12+0893SBQV V0200501N00411045001CN0200001N9+02171+01631101551ADDAA106000091AG10999GF107991041071008001011001KA1240N+01621MA1999999091561MD1999999-0181REMSYN017333   20162 59018
0096833440999991987091918004-14950-040883FM-12+0893SBQV V0200501N00411007501CN0200001N9+02961+01341100951ADDAA106000091AG10999GF105991051051008001001001MA1999999091091MD1999999-0191REMSYN011333   59019
0115833440999991987092000004-14950-040883FM-12+0893SBQV V0200501N00261220001CN9999999N9+02171+01561101261ADDAA106000091AG10999GF100991001001999999001001KA1240M+03011MA1999999091331MD1999999-0131REMSYN017333   10301 59013
0115833440999991987092012004-14950-040883FM-12+0893SBQV V0200901N00311045001CN0200001N9+02241+01551101501ADDAA106000091AG10999GF107991011011008001011001KA1240N+01451MA1999999091551MD1999999-0011REMSYN017333   20145 59001
0096833440999991987092018004-14950-040883FM-12+0893SBQV V0201401N00461045001CN0200001N9+02631+01481101211ADDAA106000091AG10999GF107991041021008001011001MA1999999091311MD1999999+0221REMSYN011333   58022
0115833440999991987092100004-14950-040883FM-12+0893SBQV V0200901N00511007501CN9999999N9+02101+01741101561ADDAA106000091AG10999GF106991061071008001001001KA1240M+02761MA1999999091591MD1999999+0261REMSYN017333   10276 58026
0115833440999991987092112004-14950-040883FM-12+0893SBQV V0200901N00571007501CN0100001N9+02081+01561101711ADDAA106000091AG10999GF108991051071008001021999KA1240N+01631MA1999999091711MD1999999+0161REMSYN017333   20163 58016
