0120827980999992011010100004-07100-034867FM-15+0066SBJP V0201301N002112200019N0112651N1+02601+02101999999ADDGA1021+006001999GF102991999999999999999999MA1101081999999REMMET051METAR SBJP 010000Z 13004KT 9999 FEW020 26/21 Q1011;
0120827980999992011010101004-07100-034867FM-15+0066SBJP V0201601N002112200019N0112651N1+02601+02201999999ADDGA1021+006001999GF102991999999999999999999MA1101081999999REMMET051METAR SBJP 010100Z 16004KT 9999 FEW020 26/22 Q1011;
0120827980999992011010102004-07100-034867FM-15+0066SBJP V0201401N002112200019N0112651N1+02601+02201999999ADDGA1021+006001999GF102991999999999999999999MA1101081999999REMMET051METAR SBJP 010200Z 14004KT 9999 FEW020 26/22 Q1011;
0120827980999992011010103004-07100-034867FM-15+0066SBJP V0201301N002112200019N0112651N1+02601+02201999999ADDGA1041+006001999GF104991999999999999999999MA1101021999999REMMET051METAR SBJP 010300Z 13004KT 9999 SCT020 26/22 Q1010;
0120827980999992011010104004-07100-034867FM-15+0066SBJP V0201501N002612200019N0112651N1+02601+02201999999ADDGA1041+006001999GF104991999999999999999999MA1100911999999REMMET051METAR SBJP 010400Z 15005KT 9999 SCT020 26/22 Q1009;
0120827980999992011010105004-07100-034867FM-15+0066SBJP V0201801N001012200019N0112651N1+02601+02201999999ADDGA1041+006001999GF104991999999999999999999MA1100911999999REMMET051METAR SBJP 010500Z 18002KT 9999 SCT020 26/22 Q1009;
0120827980999992011010106004-07100-034867FM-15+0066SBJP V0201501N002612200019N0112651N1+02601+02101999999ADDGA1041+006001999GF104991999999999999999999MA1100911999999REMMET051METAR SBJP 010600Z 15005KT 9999 SCT020 26/21 Q1009;
0120827980999992011010107004-07100-034867FM-15+0066SBJP V0201401N001512200019N0112651N1+02501+02101999999ADDGA1041+006001999GF104991999999999999999999MA1100911999999REMMET051METAR SBJP 010700Z 14003KT 9999 SCT020 25/21 Q1009;
0143827980999992011010108004-07100-034867FM-15+0066SBJP V0201901N001512200019N0112651N1+02501+02101999999ADDGA1041+006001999GA2041+021001999GF104991999999999999999999MA1100911999999REMMET058METAR SBJP 010800Z 19003KT 9999 SCT020 SCT070 25/21 Q1009;
0143827980999992011010109004-07100-034867FM-15+0066SBJP V0202101N001012200019N0112651N1+02601+02201999999ADDGA1041+006001999GA2041+021001999GF104991999999999999999999MA1101021999999REMMET058METAR SBJP 010900Z 21002KT 9999 SCT020 SCT070 26/22 Q1010;
0120827980999992011010110004-07100-034867FM-15+0066SBJP V0201301N003610060019N0112651N1+02901+02201999999ADDGA1071+006001999GF107991999999999999999999MA1101021999999REMMET051METAR SBJP 011000Z 13007KT 9999 BKN020 29/22 Q1010;
0120827980999992011010111004-07100-034867FM-15+0066SBJP V0201201N005112200019N0112651N1+02901+02101999999ADDGA1041+009001999GF104991999999999999999999MA1101021999999REMMET051METAR SBJP 011100Z 12010KT 9999 SCT030 29/21 Q1010;
0120827980999992011010112004-07100-034867FM-15+0066SBJP V0201201N005712200019N0112651N1+02901+02101999999ADDGA1041+009001999GF104991999999999999999999MA1101021999999REMMET051METAR SBJP 011200Z 12011KT 9999 SCT030 29/21 Q1010;
0120827980999992011010113004-07100-034867FM-15+0066SBJP V0201101N005112200019N0112651N1+03101+02101999999ADDGA1041+009001999GF104991999999999999999999MA1101081999999REMMET051METAR SBJP 011300Z 11010KT 9999 SCT030 31/21 Q1011;
0120827980999992011010114004-07100-034867FM-15+0066SBJP V0201201N006212200019N0112651N1+03101+02101999999ADDGA1041+009001999GF104991999999999999999999MA1101021999999REMMET051METAR SBJP 011400Z 12012KT 9999 SCT030 31/21 Q1010;
0120827980999992011010115004-07100-034867FM-15+0066SBJP V0201201N007212200019N0112651N1+03101+02101999999ADDGA1041+009001999GF104991999999999999999999MA1101021999999REMMET051METAR SBJP 011500Z 12014KT 9999 SCT030 31/21 Q1010;
0120827980999992011010116004-07100-034867FM-15+0066SBJP V0201301N005112200019N0112651N1+03101+02101999999ADDGA1041+009001999GF104991999999999999999999MA1100911999999REMMET051METAR SBJP 011600Z 13010KT 9999 SCT030 31/21 Q1009;
0120827980999992011010117004-07100-034867FM-15+0066SBJP V0201401N007212200019N0112651N1+03001+02101999999ADDGA1041+009001999GF104991999999999999999999MA1100811999999REMMET051METAR SBJP 011700Z 14014KT 9999 SCT030 30/21 Q1008;
0120827980999992011010118004-07100-034867FM-15+0066SBJP V0201401N006212200019N0112651N1+03001+02201999999ADDGA1041+009001999GF104991999999999999999999MA1100811999999REMMET051METAR SBJP 011800Z 14012KT 9999 SCT030 30/22 Q1008;
0120827980999992011010119004-07100-034867FM-15+0066SBJP V0201501N008212200019N0112651N1+03001+02201999999ADDGA1041+009001999GF104991999999999999999999MA1100811999999REMMET051METAR SBJP 011900Z 15016KT 9999 SCT030 30/22 Q1008;
0120827980999992011010120004-07100-034867FM-15+0066SBJP V0201401N005112200019N0112651N1+02801+02201999999ADDGA1041+009001999GF104991999999999999999999MA1100811999999REMMET051METAR SBJP 012000Z 14010KT 9999 SCT030 28/22 Q1008;
0120827980999992011010121004-07100-034867FM-15+0066SBJP V0201401N005112200019N0112651N1+02701+02201999999ADDGA1041+009001999GF104991999999999999999999MA1100811999999REMMET051METAR SBJP 012100Z 14010KT 9999 SCT030 27/22 Q1008;
0120827980999992011010122004-07100-034867FM-15+0066SBJP V0201501N006212200019N0112651N1+02701+02201999999ADDGA1041+009001999GF104991999999999999999999MA1100911999999REMMET051METAR SBJP 012200Z 15012KT 9999 SCT030 27/22 Q1009;
0120827980999992011010123004-07100-034867FM-15+0066SBJP V0201601N004612200019N0112651N1+02601+02201999999ADDGA1041+007501999GF104991999999999999999999MA1101021999999REMMET051METAR SBJP 012300Z 16009KT 9999 SCT025 26/22 Q1010;
0120827980999992011010200004-07100-034867FM-15+0066SBJP V0201601N004610060019N0112651N1+02701+02301999999ADDGA1071+006001999GF107991999999999999999999MA1101021999999REMMET051METAR SBJP 020000Z 16009KT 9999 BKN020 27/23 Q1010;
0120827980999992011010201004-07100-034867FM-15+0066SBJP V0201601N003112200019N0112651N1+02701+02201999999ADDGA1041+006001999GF104991999999999999999999MA1101021999999REMMET051METAR SBJP 020100Z 16006KT 9999 SCT020 27/22 Q1010;
0120827980999992011010202004-07100-034867FM-15+0066SBJP V0201601N002112200019N0112651N1+02601+02201999999ADDGA1041+006001999GF104991999999999999999999MA1101021999999REMMET051METAR SBJP 020200Z 16004KT 9999 SCT020 26/22 Q1010;
0120827980999992011010203004-07100-034867FM-15+0066SBJP V0201701N002612200019N0112651N1+02601+02201999999ADDGA1041+006001999GF104991999999999999999999MA1100911999999REMMET051METAR SBJP 020300Z 17005KT 9999 SCT020 26/22 Q1009;
0120827980999992011010204004-07100-034867FM-15+0066SBJP V0201501N002112200019N0112651N1+02601+02201999999ADDGA1041+006001999GF104991999999999999999999MA1100811999999REMMET051METAR SBJP 020400Z 15004KT 9999 SCT020 26/22 Q1008;
0120827980999992011010205004-07100-034867FM-15+0066SBJP V0201701N002112200019N0112651N1+02501+02201999999ADDGA1041+006001999GF104991999999999999999999MA1100811999999REMMET051METAR SBJP 020500Z 17004KT 9999 SCT020 25/22 Q1008;
0120827980999992011010206004-07100-034867FM-15+0066SBJP V0201801N001512200019N0112651N1+02501+02201999999ADDGA1041+006001999GF104991999999999999999999MA1100811999999REMMET051METAR SBJP 020600Z 18003KT 9999 SCT020 25/22 Q1008;
0120827980999992011010207004-07100-034867FM-15+0066SBJP V0209999C000012200019N0112651N1+02401+02201999999ADDGA1021+006001999GF102991999999999999999999MA1100811999999REMMET051METAR SBJP 020700Z 00000KT 9999 FEW020 24/22 Q1008;
0120827980999992011010208004-07100-034867FM-15+0066SBJP V0202001N000512200019N0112651N1+02401+02201999999ADDGA1021+006001999GF102991999999999999999999MA1100811999999REMMET051METAR SBJP 020800Z 20001KT 9999 FEW020 24/22 Q1008;
0120827980999992011010209004-07100-034867FM-15+0066SBJP V0202101N001012200019N0112651N1+02501+02201999999ADDGA1041+006001999GF104991999999999999999999MA1100911999999REMMET051METAR SBJP 020900Z 21002KT 9999 SCT020 25/22 Q1009;
0120827980999992011010210004-07100-034867FM-15+0066SBJP V0201801N002612200019N0112651N1+02801+02201999999ADDGA1041+006001999GF104991999999999999999999MA1100911999999REMMET051METAR SBJP 021000Z 18005KT 9999 SCT020 28/22 Q1009;
0120827980999992011010211004-07100-034867FM-15+0066SBJP V0201401N004112200019N0112651N1+02901+02201999999ADDGA1041+006001999GF104991999999999999999999MA1100911999999REMMET051METAR SBJP 021100Z 14008KT 9999 SCT020 29/22 Q1009;
0120827980999992011010212004-07100-034867FM-15+0066SBJP V0201601N005112200019N0112651N1+03001+02201999999ADDGA1041+006001999GF104991999999999999999999MA1101021999999REMMET051METAR SBJP 021200Z 16010KT 9999 SCT020 30/22 Q1010;
0120827980999992011010214004-07100-034867FM-15+0066SBJP V0201301N006212200019N0112651N1+03001+02101999999ADDGA1041+009001999GF104991999999999999999999MA1100911999999REMMET051METAR SBJP 021400Z 13012KT 9999 SCT030 30/21 Q1009;
0120827980999992011010215004-07100-034867FM-15+0066SBJP V0201401N006212200019N0112651N1+03101+02101999999ADDGA1041+009001999GF104991999999999999999999MA1100911999999REMMET051METAR SBJP 021500Z 14012KT 9999 SCT030 31/21 Q1009;
0120827980999992011010216004-07100-034867FM-15+0066SBJP V0201401N005712200019N0112651N1+03101+02101999999ADDGA1041+009001999GF104991999999999999999999MA1100811999999REMMET051METAR SBJP 021600Z 14011KT 9999 SCT030 31/21 Q1008;
0120827980999992011010217004-07100-034867FM-15+0066SBJP V0201201N005712200019N0112651N1+03101+01901999999ADDGA1041+009001999GF104991999999999999999999MA1100811999999REMMET051METAR SBJP 021700Z 12011KT 9999 SCT030 31/19 Q1008;
0120827980999992011010218004-07100-034867FM-15+0066SBJP V0201401N005712200019N0112651N1+03001+02001999999ADDGA1041+009001999GF104991999999999999999999MA1100711999999REMMET051METAR SBJP 021800Z 14011KT 9999 SCT030 30/20 Q1007;
0120827980999992011010219004-07100-034867FM-15+0066SBJP V0201301N005112200019N0112651N1+02901+02101999999ADDGA1041+009001999GF104991999999999999999999MA1100711999999REMMET051METAR SBJP 021900Z 13010KT 9999 SCT030 29/21 Q1007;
0120827980999992011010220004-07100-034867FM-15+0066SBJP V0201301N004612200019N0112651N1+02801+02101999999ADDGA1041+009001999GF104991999999999999999999MA1100711999999REMMET051METAR SBJP 022000Z 13009KT 9999 SCT030 28/21 Q1007;
0120827980999992011010221004-07100-034867FM-15+0066SBJP V0201301N004112200019N0112651N1+02701+02201999999ADDGA1041+009001999GF104991999999999999999999MA1100811999999REMMET051METAR SBJP 022100Z 13008KT 9999 SCT030 27/22 Q1008;
0120827980999992011010222004-07100-034867FM-15+0066SBJP V0201401N003612200019N0112651N1+02701+02201999999ADDGA1021+006001999GF102991999999999999999999MA1100811999999REMMET051METAR SBJP 022200Z 14007KT 9999 FEW020 27/22 Q1008;
0120827980999992011010223004-07100-034867FM-15+0066SBJP V0201501N002112200019N0112651N1+02701+02101999999ADDGA1021+006001999GF102991999999999999999999MA1100911999999REMMET051METAR SBJP 022300Z 15004KT 9999 FEW020 27/21 Q1009;
0120827980999992011010300004-07100-034867FM-15+0066SBJP V0201501N001512200019N0112651N1+02601+02201999999ADDGA1021+006001999GF102991999999999999999999MA1101021999999REMMET051METAR SBJP 030000Z 15003KT 9999 FEW020 26/22 Q1010;
0120827980999992011010301004-07100-034867FM-15+0066SBJP V0201901N001012200019N0112651N1+02601+02201999999ADDGA1021+006001999GF102991999999999999999999MA1101021999999REMMET051METAR SBJP 030100Z 19002KT 9999 FEW020 26/22 Q1010;
0120827980999992011010302004-07100-034867FM-15+0066SBJP V0201901N000512200019N0112651N1+02601+02201999999ADDGA1021+006001999GF102991999999999999999999MA1101021999999REMMET051METAR SBJP 030200Z 19001KT 9999 FEW020 26/22 Q1010;
0120827980999992011010303004-07100-034867FM-15+0066SBJP V0201601N001012200019N0112651N1+02501+02201999999ADDGA1021+006001999GF102991999999999999999999MA1100911999999REMMET051METAR SBJP 030300Z 16002KT 9999 FEW020 25/22 Q1009;
0120827980999992011010304004-07100-034867FM-15+0066SBJP V0201801N001012200019N0112651N1+02401+02201999999ADDGA1021+006001999GF102991999999999999999999MA1100911999999REMMET051METAR SBJP 030400Z 18002KT 9999 FEW020 24/22 Q1009;
0120827980999992011010305004-07100-034867FM-15+0066SBJP V0209999C000012200019N0112651N1+02501+02201999999ADDGA1021+006001999GF102991999999999999999999MA1100911999999REMMET051METAR SBJP 030500Z 00000KT 9999 FEW020 25/22 Q1009;
0120827980999992011010306004-07100-034867FM-15+0066SBJP V0209999C000012200019N0112651N1+02401+02201999999ADDGA1021+006001999GF102991999999999999999999MA1100811999999REMMET051METAR SBJP 030600Z 00000KT 9999 FEW020 24/22 Q1008;
0120827980999992011010307004-07100-034867FM-15+0066SBJP V0209999C000012200019N0112651N1+02401+02101999999ADDGA1021+006001999GF102991999999999999999999MA1100811999999REMMET051METAR SBJP 030700Z 00000KT 9999 FEW020 24/21 Q1008;
0120827980999992011010308004-07100-034867FM-15+0066SBJP V0209999C000012200019N0112651N1+02401+02101999999ADDGA1021+006001999GF102991999999999999999999MA1100911999999REMMET051METAR SBJP 030800Z 00000KT 9999 FEW020 24/21 Q1009;
0120827980999992011010309004-07100-034867FM-15+0066SBJP V0202501N002112200019N0112651N1+02401+02201999999ADDGA1021+006001999GF102991999999999999999999MA1101021999999REMMET051METAR SBJP 030900Z 25004KT 9999 FEW020 24/22 Q1010;
0120827980999992011010310004-07100-034867FM-15+0066SBJP V0202001N000512200019N0112651N1+02701+02201999999ADDGA1021+006001999GF102991999999999999999999MA1101021999999REMMET051METAR SBJP 031000Z 20001KT 9999 FEW020 27/22 Q1010;
0120827980999992011010311004-07100-034867FM-15+0066SBJP V0201401N002610090019N0112651N1+03001+02201999999ADDGA1071+009001999GF107991999999999999999999MA1101081999999REMMET051METAR SBJP 031100Z 14005KT 9999 BKN030 30/22 Q1011;
0120827980999992011010312004-07100-034867FM-15+0066SBJP V0201301N005110090019N0112651N1+03001+02201999999ADDGA1071+009001999GF107991999999999999999999MA1101081999999REMMET051METAR SBJP 031200Z 13010KT 9999 BKN030 30/22 Q1011;
0120827980999992011010313004-07100-034867FM-15+0066SBJP V0201301N004110090019N0112651N1+03101+02101999999ADDGA1071+009001999GF107991999999999999999999MA1101021999999REMMET051METAR SBJP 031300Z 13008KT 9999 BKN030 31/21 Q1010;
0120827980999992011010314004-07100-034867FM-15+0066SBJP V0201201N005110090019N0112651N1+03001+02101999999ADDGA1071+009001999GF107991999999999999999999MA1101021999999REMMET051METAR SBJP 031400Z 12010KT 9999 BKN030 30/21 Q1010;
0120827980999992011010315004-07100-034867FM-15+0066SBJP V0201101N005710090019N0112651N1+03101+02101999999ADDGA1071+009001999GF107991999999999999999999MA1101021999999REMMET051METAR SBJP 031500Z 11011KT 9999 BKN030 31/21 Q1010;
0120827980999992011010316004-07100-034867FM-15+0066SBJP V0201501N005110090019N0112651N1+03201+02001999999ADDGA1071+009001999GF107991999999999999999999MA1100911999999REMMET051METAR SBJP 031600Z 15010KT 9999 BKN030 32/20 Q1009;
0120827980999992011010317004-07100-034867FM-15+0066SBJP V0201501N004110090019N0112651N1+03101+02001999999ADDGA1071+009001999GF107991999999999999999999MA1100911999999REMMET051METAR SBJP 031700Z 15008KT 9999 BKN030 31/20 Q1009;
0120827980999992011010318004-07100-034867FM-15+0066SBJP V0201501N004612200019N0112651N1+03001+02001999999ADDGA1041+009001999GF104991999999999999999999MA1100811999999REMMET051METAR SBJP 031800Z 15009KT 9999 SCT030 30/20 Q1008;
0120827980999992011010319004-07100-034867FM-15+0066SBJP V0201501N005110090019N0112651N1+03001+02101999999ADDGA1071+009001999GF107991999999999999999999MA1100811999999REMMET051METAR SBJP 031900Z 15010KT 9999 BKN030 30/21 Q1008;
0120827980999992011010320004-07100-034867FM-15+0066SBJP V0201301N004612200019N0112651N1+02901+02101999999ADDGA1021+007501999GF102991999999999999999999MA1100911999999REMMET051METAR SBJP 032000Z 13009KT 9999 FEW025 29/21 Q1009;
0120827980999992011010321004-07100-034867FM-15+0066SBJP V0201501N004112200019N0112651N1+02701+02201999999ADDGA1021+007501999GF102991999999999999999999MA1100911999999REMMET051METAR SBJP 032100Z 15008KT 9999 FEW025 27/22 Q1009;
0120827980999992011010322004-07100-034867FM-15+0066SBJP V0201401N003112200019N0112651N1+02701+02201999999ADDGA1041+006001999GF104991999999999999999999MA1100911999999REMMET051METAR SBJP 032200Z 14006KT 9999 SCT020 27/22 Q1009;
0120827980999992011010323004-07100-034867FM-15+0066SBJP V0201601N002612200019N0112651N1+02601+02201999999ADDGA1041+006001999GF104991999999999999999999MA1101021999999REMMET051METAR SBJP 032300Z 16005KT 9999 SCT020 26/22 Q1010;
0120827980999992011010400004-07100-034867FM-15+0066SBJP V0201401N001012200019N0112651N1+02501+02201999999ADDGA1041+006001999GF104991999999999999999999MA1101021999999REMMET051METAR SBJP 040000Z 14002KT 9999 SCT020 25/22 Q1010;
0120827980999992011010401004-07100-034867FM-15+0066SBJP V0201901N001512200019N0112651N1+02601+02201999999ADDGA1041+006001999GF104991999999999999999999MA1101021999999REMMET051METAR SBJP 040100Z 19003KT 9999 SCT020 26/22 Q1010;
0120827980999992011010402004-07100-034867FM-15+0066SBJP V0202201N001012200019N0112651N1+02601+02201999999ADDGA1041+006001999GF104991999999999999999999MA1101021999999REMMET051METAR SBJP 040200Z 22002KT 9999 SCT020 26/22 Q1010;
0120827980999992011010403004-07100-034867FM-15+0066SBJP V0202201N001012200019N0112651N1+02501+02201999999ADDGA1041+006001999GF104991999999999999999999MA1100911999999REMMET051METAR SBJP 040300Z 22002KT 9999 SCT020 25/22 Q1009;
0120827980999992011010404004-07100-034867FM-15+0066SBJP V0202201N001012200019N0112651N1+02501+02301999999ADDGA1041+006001999GF104991999999999999999999MA1100911999999REMMET051METAR SBJP 040400Z 22002KT 9999 SCT020 25/23 Q1009;
0120827980999992011010405004-07100-034867FM-15+0066SBJP V0202101N001512200019N0112651N1+02501+02301999999ADDGA1041+006001999GF104991999999999999999999MA1100811999999REMMET051METAR SBJP 040500Z 21003KT 9999 SCT020 25/23 Q1008;
0120827980999992011010406004-07100-034867FM-15+0066SBJP V0202201N001512200019N0112651N1+02501+02301999999ADDGA1041+006001999GF104991999999999999999999MA1100811999999REMMET051METAR SBJP 040600Z 22003KT 9999 SCT020 25/23 Q1008;
0188827980999992011010407004-07100-034867FM-15+0066SBJP V0202301N001012200019N0080001N1+02501+02301999999ADDGA1041+006001999GA2041+021001999GF104991999999999999999999MA1999999999999MW1611REMMET062METAR SBJP 040700Z 23002KT 8000 -RA SCT020 SCT070 25/23 Q1019;EQDQ01+101903APOA  Q02 101903APOA  
0153827980999992011010408004-07100-034867FM-15+0066SBJP V0202501N001010045019N0050001N1+02401+02301999999ADDGA1071+004501999GA2081+021001999GF108991999999999999999999MA1100911999999MW1611REMMET062METAR SBJP 040800Z 25002KT 5000 -RA BKN015 OVC070 24/23 Q1009;
0143827980999992011010409004-07100-034867FM-15+0066SBJP V0201601N002610210019N0112651N1+02501+02401999999ADDGA1041+004501999GA2081+021001999GF108991999999999999999999MA1101021999999REMMET058METAR SBJP 040900Z 16005KT 9999 SCT015 OVC070 25/24 Q1010;
0153827980999992011010410004-07100-034867FM-15+0066SBJP V0201801N003110030019N0050001N1+02501+02401999999ADDGA1071+003001999GA2081+021001999GF108991999999999999999999MA1101021999999MW1611REMMET062METAR SBJP 041000Z 18006KT 5000 -RA BKN010 OVC070 25/24 Q1010;
0166827980999992011010411004-07100-034867FM-15+0066SBJP V0202001N003610045019N0112651N1+02701+02401999999ADDGA1041+003001999GA2071+004501999GA3071+021001999GF107991999999999999999999MA1101081999999REMMET065METAR SBJP 041100Z 20007KT 9999 SCT010 BKN015 BKN070 27/24 Q1011;
0147827980999992011010411184-07100-034867FM-16+0066SBJP V0201601N003110030019N0025001N1+02601+02401999999ADDGA1071+003001999GA2081+021001999GF108991999999999999999999MW1611REMMET071SPECI SBJP 041118Z 16006KT 120V200 2500 -RA BKN010 OVC070 26/24 Q101 1;
0176827980999992011010411404-07100-034867FM-16+0066SBJP V0201701N004610045019N0060001N1+02501+02301999999ADDGA1041+003001999GA2071+004501999GA3081+021001999GF108991999999999999999999MA1101081999999MW1611REMMET069SPECI SBJP 041140Z 17009KT 6000 -RA SCT010 BKN015 OVC070 25/23 Q1011;
0143827980999992011010412004-07100-034867FM-15+0066SBJP V0201801N003110051019N0112651N1+02601+02401999999ADDGA1071+005101999GA2081+021001999GF108991999999999999999999MA1101081999999REMMET058METAR SBJP 041200Z 18006KT 9999 BKN017 OVC070 26/24 Q1011;
0147827980999992011010412344-07100-034867FM-16+0066SBJP V0201501N003110036019N0045001N1+02601+02401999999ADDGA1071+003601999GA2081+021001999GF108991999999999999999999MW1611REMMET071SPECI SBJP 041234Z 15006KT 120V180 4500 -RA BKN012 OVC070 26/24 Q101 1;
0151827980999992011010413004-07100-034867FM-15+0066SBJP V0201401N003610036019N0112651N1+02701+02501999999ADDGA1071+003601999GA2071+006001999GF107991999999999999999999MA1101081999999REMMET066METAR SBJP 041300Z 14007KT 090V190 9999 BKN012 BKN020 27/25 Q1011;
0153827980999992011010414004-07100-034867FM-15+0066SBJP V0201401N005710045019N0040001N1+02601+02301999999ADDGA1071+004501999GA2071+006001999GF107991999999999999999999MA1101081999999MW1611REMMET062METAR SBJP 041400Z 14011KT 4000 -RA BKN015 BKN020 26/23 Q1011;
0120827980999992011010415004-07100-034867FM-15+0066SBJP V0201301N006210075019N0112651N1+02901+02401999999ADDGA1071+007501999GF107991999999999999999999MA1101021999999REMMET051METAR SBJP 041500Z 13012KT 9999 BKN025 29/24 Q1010;
0120827980999992011010416004-07100-034867FM-15+0066SBJP V0201401N006710075019N0112651N1+02901+02401999999ADDGA1071+007501999GF107991999999999999999999MA1101021999999REMMET051METAR SBJP 041600Z 14013KT 9999 BKN025 29/24 Q1010;
0120827980999992011010417004-07100-034867FM-15+0066SBJP V0201501N006710075019N0112651N1+02901+02301999999ADDGA1071+007501999GF107991999999999999999999MA1100911999999REMMET051METAR SBJP 041700Z 15013KT 9999 BKN025 29/23 Q1009;
0120827980999992011010418004-07100-034867FM-15+0066SBJP V0201601N007210075019N0112651N1+03001+02301999999ADDGA1071+007501999GF107991999999999999999999MA1100911999999REMMET051METAR SBJP 041800Z 16014KT 9999 BKN025 30/23 Q1009;
0143827980999992011010419004-07100-034867FM-15+0066SBJP V0201401N006710210019N0112651N1+02901+02301999999ADDGA1041+007501999GA2071+021001999GF107991999999999999999999MA1100911999999REMMET058METAR SBJP 041900Z 14013KT 9999 SCT025 BKN070 29/23 Q1009;
0143827980999992011010420004-07100-034867FM-15+0066SBJP V0201301N005710060019N0112651N1+02801+02201999999ADDGA1071+006001999GA2071+021001999GF107991999999999999999999MA1100911999999REMMET058METAR SBJP 042000Z 13011KT 9999 BKN020 BKN070 28/22 Q1009;
0143827980999992011010421004-07100-034867FM-15+0066SBJP V0201401N004110060019N0112651N1+02801+02201999999ADDGA1071+006001999GA2071+021001999GF107991999999999999999999MA1101021999999REMMET058METAR SBJP 042100Z 14008KT 9999 BKN020 BKN070 28/22 Q1010;
0143827980999992011010422004-07100-034867FM-15+0066SBJP V0201301N004110210019N0112651N1+02701+02201999999ADDGA1041+006001999GA2081+021001999GF108991999999999999999999MA1101081999999REMMET058METAR SBJP 042200Z 13008KT 9999 SCT020 OVC070 27/22 Q1011;
0143827980999992011010423004-07100-034867FM-15+0066SBJP V0201301N004110210019N0112651N1+02701+02201999999ADDGA1041+006001999GA2081+021001999GF108991999999999999999999MA1101081999999REMMET058METAR SBJP 042300Z 13008KT 9999 SCT020 OVC070 27/22 Q1011;
0120827980999992011010500004-07100-034867FM-15+0066SBJP V0201201N003112200019N0112651N1+02701+02301999999ADDGA1041+006001999GF104991999999999999999999MA1101081999999REMMET051METAR SBJP 050000Z 12006KT 9999 SCT020 27/23 Q1011;
0120827980999992011010501004-07100-034867FM-15+0066SBJP V0201201N003112200019N0112651N1+02601+02201999999ADDGA1041+006001999GF104991999999999999999999MA1101191999999REMMET051METAR SBJP 050100Z 12006KT 9999 SCT020 26/22 Q1012;
0120827980999992011010502004-07100-034867FM-15+0066SBJP V0201101N002612200019N0112651N1+02701+02301999999ADDGA1041+006001999GF104991999999999999999999MA1101081999999REMMET051METAR SBJP 050200Z 11005KT 9999 SCT020 27/23 Q1011;
0120827980999992011010503004-07100-034867FM-15+0066SBJP V0201301N002612200019N0112651N1+02601+02301999999ADDGA1041+006001999GF104991999999999999999999MA1101081999999REMMET051METAR SBJP 050300Z 13005KT 9999 SCT020 26/23 Q1011;
0120827980999992011010504004-07100-034867FM-15+0066SBJP V0201701N001512200019N0112651N1+02601+02301999999ADDGA1041+006001999GF104991999999999999999999MA1101021999999REMMET051METAR SBJP 050400Z 17003KT 9999 SCT020 26/23 Q1010;
0120827980999992011010505004-07100-034867FM-15+0066SBJP V0201601N002612200019N0112651N1+02501+02201999999ADDGA1021+006001999GF102991999999999999999999MA1101021999999REMMET051METAR SBJP 050500Z 16005KT 9999 FEW020 25/22 Q1010;
0120827980999992011010506004-07100-034867FM-15+0066SBJP V0201901N001512200019N0112651N1+02501+02201999999ADDGA1021+006001999GF102991999999999999999999MA1101021999999REMMET051METAR SBJP 050600Z 19003KT 9999 FEW020 25/22 Q1010;
0120827980999992011010507004-07100-034867FM-15+0066SBJP V0201901N001012200019N0112651N1+02401+02201999999ADDGA1021+006001999GF102991999999999999999999MA1101021999999REMMET051METAR SBJP 050700Z 19002KT 9999 FEW020 24/22 Q1010;
0120827980999992011010508004-07100-034867FM-15+0066SBJP V0202001N002112200019N0112651N1+02401+02101999999ADDGA1021+006001999GF102991999999999999999999MA1101081999999REMMET051METAR SBJP 050800Z 20004KT 9999 FEW020 24/21 Q1011;
0120827980999992011010509004-07100-034867FM-15+0066SBJP V0202301N000512200019N0112651N1+02401+02201999999ADDGA1021+006001999GF102991999999999999999999MA1101081999999REMMET051METAR SBJP 050900Z 23001KT 9999 FEW020 24/22 Q1011;
0120827980999992011010510004-07100-034867FM-15+0066SBJP V0201601N002112200019N0112651N1+02601+02301999999ADDGA1041+006001999GF104991999999999999999999MA1101191999999REMMET051METAR SBJP 051000Z 16004KT 9999 SCT020 26/23 Q1012;
0120827980999992011010511004-07100-034867FM-15+0066SBJP V0201501N005112200019N0112651N1+02901+02201999999ADDGA1041+007501999GF104991999999999999999999MA1101191999999REMMET051METAR SBJP 051100Z 15010KT 9999 SCT025 29/22 Q1012;
0120827980999992011010512004-07100-034867FM-15+0066SBJP V0201501N004612200019N0112651N1+02901+02101999999ADDGA1041+007501999GF104991999999999999999999MA1101191999999REMMET051METAR SBJP 051200Z 15009KT 9999 SCT025 29/21 Q1012;
0120827980999992011010513004-07100-034867FM-15+0066SBJP V0201501N006212200019N0112651N1+03001+02101999999ADDGA1041+009001999GF104991999999999999999999MA1101191999999REMMET051METAR SBJP 051300Z 15012KT 9999 SCT030 30/21 Q1012;
0120827980999992011010514004-07100-034867FM-15+0066SBJP V0201201N004612200019N0112651N1+03101+02001999999ADDGA1041+009001999GF104991999999999999999999MA1101191999999REMMET051METAR SBJP 051400Z 12009KT 9999 SCT030 31/20 Q1012;
0120827980999992011010515004-07100-034867FM-15+0066SBJP V0201301N006212200019N0112651N1+03001+02001999999ADDGA1041+009001999GF104991999999999999999999MA1101191999999REMMET051METAR SBJP 051500Z 13012KT 9999 SCT030 30/20 Q1012;
0120827980999992011010516004-07100-034867FM-15+0066SBJP V0201301N005112200019N0112651N1+03101+02101999999ADDGA1041+009001999GF104991999999999999999999MA1101081999999REMMET051METAR SBJP 051600Z 13010KT 9999 SCT030 31/21 Q1011;
0120827980999992011010517004-07100-034867FM-15+0066SBJP V0201401N004612200019N0112651N1+03101+02101999999ADDGA1041+009001999GF104991999999999999999999MA1101021999999REMMET051METAR SBJP 051700Z 14009KT 9999 SCT030 31/21 Q1010;
0120827980999992011010518004-07100-034867FM-15+0066SBJP V0201401N005112200019N0112651N1+03101+02101999999ADDGA1041+009001999GF104991999999999999999999MA1101021999999REMMET051METAR SBJP 051800Z 14010KT 9999 SCT030 31/21 Q1010;
0120827980999992011010519004-07100-034867FM-15+0066SBJP V0201301N006212200019N0112651N1+03001+02101999999ADDGA1041+009001999GF104991999999999999999999MA1101021999999REMMET051METAR SBJP 051900Z 13012KT 9999 SCT030 30/21 Q1010;
0120827980999992011010520004-07100-034867FM-15+0066SBJP V0201301N006212200019N0112651N1+02901+02101999999ADDGA1041+009001999GF104991999999999999999999MA1101021999999REMMET051METAR SBJP 052000Z 13012KT 9999 SCT030 29/21 Q1010;
0120827980999992011010521004-07100-034867FM-15+0066SBJP V0201501N005112200019N0112651N1+02701+02101999999ADDGA1021+006001999GF102991999999999999999999MA1101081999999REMMET051METAR SBJP 052100Z 15010KT 9999 FEW020 27/21 Q1011;
0120827980999992011010522004-07100-034867FM-15+0066SBJP V0201701N004112200019N0112651N1+02701+02301999999ADDGA1021+006001999GF102991999999999999999999MA1101081999999REMMET051METAR SBJP 052200Z 17008KT 9999 FEW020 27/23 Q1011;
0120827980999992011010523004-07100-034867FM-15+0066SBJP V0201701N006212200019N0112651N1+02701+02301999999ADDGA1021+006001999GF102991999999999999999999MA1101081999999REMMET051METAR SBJP 052300Z 17012KT 9999 FEW020 27/23 Q1011;
0120827980999992011010600004-07100-034867FM-15+0066SBJP V0201901N003112200019N0112651N1+02601+02301999999ADDGA1021+006001999GF102991999999999999999999MA1101081999999REMMET051METAR SBJP 060000Z 19006KT 9999 FEW020 26/23 Q1011;
0120827980999992011010601004-07100-034867FM-15+0066SBJP V0202001N003112200019N0112651N1+02601+02301999999ADDGA1041+006001999GF104991999999999999999999MA1101081999999REMMET051METAR SBJP 060100Z 20006KT 9999 SCT020 26/23 Q1011;
0146827980999992011010603004-07100-034867FM-15+0066SBJP V0201801N00311004501CN0045001N1+02401+02301999999ADDGA1071+004501999GA2041+021001999MA1101081999999MW1611REMMET062METAR SBJP 060300Z 18006KT 4500 -RA BKN015 SCT070 24/23 Q1011;EQDQ01+000042SCOTCV
0176827980999992011010604004-07100-034867FM-15+0066SBJP V0202201N002610045019N0060001N1+02401+02301999999ADDGA1041+003601999GA2071+004501999GA3071+021001999GF107991999999999999999999MA1101021999999MW1611REMMET069METAR SBJP 060400Z 22005KT 6000 -RA SCT012 BKN015 BKN070 24/23 Q1010;
0176827980999992011010605004-07100-034867FM-15+0066SBJP V0203001N002110042019N0060001N1+02401+02301999999ADDGA1041+000901999GA2071+004201999GA3071+021001999GF107991999999999999999999MA1100911999999MW1611REMMET069METAR SBJP 060500Z 30004KT 6000 -RA SCT003 BKN014 BKN070 24/23 Q1009;
0178827980999992011010606004-07100-034867FM-15+0066SBJP V0202101N00211003001CN0020001N1+02401+02301999999ADDGA1041+001501999GA2071+003001999GA3021+007501091MA1100911999999MW1811MW2951REMMET072METAR SBJP 060600Z 21004KT 2000 TSRA SCT005 BKN010 FEW025CB 24/23 Q1009;EQDQ01+000022SCOTCV
0172827980999992011010606404-07100-034867FM-16+0066SBJP V0201901N00211003001CN0112651N1+02401+02301999999ADDGA1021+001501999GA2041+003001999GA3071+006001999GF107991999999999999999999MA1100911999999REMMET071SPECI SBJP 060640Z 19004KT 9999 FEW005 SCT010 BKN020 24/23 Q1009 RET S;
0176827980999992011010607004-07100-034867FM-15+0066SBJP V0201701N00151003001CN0050001N1+02401+02301999999ADDGA1021+001501999GA2041+003001999GA3071+006001999GF107991999999999999999999MA1101021999999MW1611REMMET069METAR SBJP 060700Z 17003KT 5000 -RA FEW005 SCT010 BKN020 24/23 Q1010;
0166827980999992011010608004-07100-034867FM-15+0066SBJP V0201701N004110060019N0112651N1+02401+02301999999ADDGA1041+003001999GA2071+006001999GA3071+021001999GF107991999999999999999999MA1101021999999REMMET065METAR SBJP 060800Z 17008KT 9999 SCT010 BKN020 BKN070 24/23 Q1010;
0166827980999992011010609004-07100-034867FM-15+0066SBJP V0201901N004110060019N0112651N1+02401+02301999999ADDGA1041+003001999GA2071+006001999GA3071+021001999GF107991999999999999999999MA1101021999999REMMET065METAR SBJP 060900Z 19008KT 9999 SCT010 BKN020 BKN070 24/23 Q1010;
0143827980999992011010610004-07100-034867FM-15+0066SBJP V0201801N003110210019N0112651N1+02601+02401999999ADDGA1041+006001999GA2081+021001999GF108991999999999999999999MA1101021999999REMMET058METAR SBJP 061000Z 18006KT 9999 SCT020 OVC070 26/24 Q1010;
0143827980999992011010611004-07100-034867FM-15+0066SBJP V0201501N003110060019N0112651N1+02701+02401999999ADDGA1071+006001999GA2081+021001999GF108991999999999999999999MA1101081999999REMMET058METAR SBJP 061100Z 15006KT 9999 BKN020 OVC070 27/24 Q1011;
0166827980999992011010612004-07100-034867FM-15+0066SBJP V0201801N006210060019N0112651N1+02701+02301999999ADDGA1041+003001999GA2071+006001999GA3081+021001999GF108991999999999999999999MA1101081999999REMMET065METAR SBJP 061200Z 18012KT 9999 SCT010 BKN020 OVC070 27/23 Q1011;
0176827980999992011010612364-07100-034867FM-16+0066SBJP V0201201N004610030019N0030001N1+02601+02301999999ADDGA1071+003001999GA2071+006001999GA3081+021001999GF108991999999999999999999MA1101081999999MW1611REMMET069SPECI SBJP 061236Z 12009KT 3000 -RA BKN010 BKN020 OVC070 26/23 Q1011;
0166827980999992011010613004-07100-034867FM-15+0066SBJP V0201401N006710060019N0112651N1+02601+02401999999ADDGA1041+003001999GA2071+006001999GA3081+021001999GF108991999999999999999999MA1101081999999REMMET065METAR SBJP 061300Z 14013KT 9999 SCT010 BKN020 OVC070 26/24 Q1011;
0176827980999992011010614004-07100-034867FM-15+0066SBJP V0201201N005710060019N0060001N1+02801+02401999999ADDGA1041+003001999GA2071+006001999GA3071+021001999GF107991999999999999999999MA1101081999999MW1611REMMET069METAR SBJP 061400Z 12011KT 6000 -RA SCT010 BKN020 BKN070 28/24 Q1011;
0143827980999992011010615004-07100-034867FM-15+0066SBJP V0201301N007210210019N0112651N1+02801+02401999999ADDGA1041+006001999GA2071+021001999GF107991999999999999999999MA1101021999999REMMET058METAR SBJP 061500Z 13014KT 9999 SCT020 BKN070 28/24 Q1010;
0143827980999992011010616004-07100-034867FM-15+0066SBJP V0201601N006210210019N0112651N1+02901+02201999999ADDGA1041+006001999GA2071+021001999GF107991999999999999999999MA1101021999999REMMET058METAR SBJP 061600Z 16012KT 9999 SCT020 BKN070 29/22 Q1010;
0143827980999992011010617004-07100-034867FM-15+0066SBJP V0201701N005110060019N0112651N1+02901+02301999999ADDGA1071+006001999GA2071+021001999GF107991999999999999999999MA1100911999999REMMET058METAR SBJP 061700Z 17010KT 9999 BKN020 BKN070 29/23 Q1009;
0143827980999992011010618004-07100-034867FM-15+0066SBJP V0201601N006210060019N0112651N1+02801+02301999999ADDGA1071+006001999GA2071+021001999GF107991999999999999999999MA1100911999999REMMET058METAR SBJP 061800Z 16012KT 9999 BKN020 BKN070 28/23 Q1009;
0143827980999992011010619004-07100-034867FM-15+0066SBJP V0201801N007210210019N0112651N1+02801+02101999999ADDGA1041+006001999GA2071+021001999GF107991999999999999999999MA1100911999999REMMET058METAR SBJP 061900Z 18014KT 9999 SCT020 BKN070 28/21 Q1009;
0143827980999992011010620004-07100-034867FM-15+0066SBJP V0201801N006210210019N0112651N1+02701+02201999999ADDGA1041+006001999GA2071+021001999GF107991999999999999999999MA1101021999999REMMET058METAR SBJP 062000Z 18012KT 9999 SCT020 BKN070 27/22 Q1010;
0143827980999992011010621004-07100-034867FM-15+0066SBJP V0201701N004110210019N0112651N1+02601+02301999999ADDGA1041+006001999GA2071+021001999GF107991999999999999999999MA1101021999999REMMET058METAR SBJP 062100Z 17008KT 9999 SCT020 BKN070 26/23 Q1010;
0143827980999992011010622004-07100-034867FM-15+0066SBJP V0201701N004112200019N0112651N1+02601+02301999999ADDGA1041+006001999GA2041+021001999GF104991999999999999999999MA1101081999999REMMET058METAR SBJP 062200Z 17008KT 9999 SCT020 SCT070 26/23 Q1011;
0120827980999992011010623004-07100-034867FM-15+0066SBJP V0201801N003112200019N0112651N1+02501+02301999999ADDGA1041+006001999GF104991999999999999999999MA1101081999999REMMET051METAR SBJP 062300Z 18006KT 9999 SCT020 25/23 Q1011;
0120827980999992011010700004-07100-034867FM-15+0066SBJP V0201701N002112200019N0112651N1+02501+02201999999ADDGA1041+006001999GF104991999999999999999999MA1101081999999REMMET051METAR SBJP 070000Z 17004KT 9999 SCT020 25/22 Q1011;
0120827980999992011010701004-07100-034867FM-15+0066SBJP V0201801N002112200019N0112651N1+02501+02201999999ADDGA1041+006001999GF104991999999999999999999MA1101081999999REMMET051METAR SBJP 070100Z 18004KT 9999 SCT020 25/22 Q1011;
0120827980999992011010702004-07100-034867FM-15+0066SBJP V0202101N001512200019N0112651N1+02401+02201999999ADDGA1041+006001999GF104991999999999999999999MA1101081999999REMMET051METAR SBJP 070200Z 21003KT 9999 SCT020 24/22 Q1011;
0120827980999992011010703004-07100-034867FM-15+0066SBJP V0202301N001510060019N0112651N1+02401+02301999999ADDGA1071+006001999GF107991999999999999999999MA1101021999999REMMET051METAR SBJP 070300Z 23003KT 9999 BKN020 24/23 Q1010;
0120827980999992011010704004-07100-034867FM-15+0066SBJP V0201901N001010060019N0112651N1+02401+02301999999ADDGA1071+006001999GF107991999999999999999999MA1100911999999REMMET051METAR SBJP 070400Z 19002KT 9999 BKN020 24/23 Q1009;
0120827980999992011010705004-07100-034867FM-15+0066SBJP V0202201N002112200019N0112651N1+02401+02201999999ADDGA1041+006001999GF104991999999999999999999MA1100911999999REMMET051METAR SBJP 070500Z 22004KT 9999 SCT020 24/22 Q1009;
0120827980999992011010706004-07100-034867FM-15+0066SBJP V0202101N002612200019N0112651N1+02401+02201999999ADDGA1041+006001999GF104991999999999999999999MA1100811999999REMMET051METAR SBJP 070600Z 21005KT 9999 SCT020 24/22 Q1008;
0120827980999992011010707004-07100-034867FM-15+0066SBJP V0202001N003112200019N0112651N1+02401+02201999999ADDGA1041+006001999GF104991999999999999999999MA1100911999999REMMET051METAR SBJP 070700Z 20006KT 9999 SCT020 24/22 Q1009;
0120827980999992011010708004-07100-034867FM-15+0066SBJP V0202001N003112200019N0112651N1+02401+02201999999ADDGA1021+006001999GF102991999999999999999999MA1100911999999REMMET051METAR SBJP 070800Z 20006KT 9999 FEW020 24/22 Q1009;
0120827980999992011010709004-07100-034867FM-15+0066SBJP V0202101N001512200019N0112651N1+02401+02201999999ADDGA1021+006001999GF102991999999999999999999MA1101021999999REMMET051METAR SBJP 070900Z 21003KT 9999 FEW020 24/22 Q1010;
0120827980999992011010710004-07100-034867FM-15+0066SBJP V0202001N004112200019N0112651N1+02601+02301999999ADDGA1021+006001999GF102991999999999999999999MA1101081999999REMMET051METAR SBJP 071000Z 20008KT 9999 FEW020 26/23 Q1011;
0120827980999992011010711004-07100-034867FM-15+0066SBJP V0201801N006212200019N0112651N1+02901+02201999999ADDGA1021+006001999GF102991999999999999999999MA1101081999999REMMET051METAR SBJP 071100Z 18012KT 9999 FEW020 29/22 Q1011;
0120827980999992011010712004-07100-034867FM-15+0066SBJP V0201501N007212200019N0112651N1+03001+02101999999ADDGA1041+009001999GF104991999999999999999999MA1101081999999REMMET051METAR SBJP 071200Z 15014KT 9999 SCT030 30/21 Q1011;
0120827980999992011010713004-07100-034867FM-15+0066SBJP V0201701N008212200019N0112651N1+03001+02201999999ADDGA1041+009001999GF104991999999999999999999MA1101191999999REMMET051METAR SBJP 071300Z 17016KT 9999 SCT030 30/22 Q1012;
0120827980999992011010714004-07100-034867FM-15+0066SBJP V0201601N007712200019N0112651N1+03001+02201999999ADDGA1041+009001999GF104991999999999999999999MA1101081999999REMMET051METAR SBJP 071400Z 16015KT 9999 SCT030 30/22 Q1011;
0120827980999992011010715004-07100-034867FM-15+0066SBJP V0201701N007212200019N0112651N1+03101+02001999999ADDGA1041+009001999GF104991999999999999999999MA1101081999999REMMET051METAR SBJP 071500Z 17014KT 9999 SCT030 31/20 Q1011;
0120827980999992011010716004-07100-034867FM-15+0066SBJP V0201601N007712200019N0112651N1+03101+01901999999ADDGA1041+009001999GF104991999999999999999999MA1101021999999REMMET051METAR SBJP 071600Z 16015KT 9999 SCT030 31/19 Q1010;
0120827980999992011010717004-07100-034867FM-15+0066SBJP V0201401N007210090019N0112651N1+03001+02101999999ADDGA1071+009001999GF107991999999999999999999MA1101021999999REMMET051METAR SBJP 071700Z 14014KT 9999 BKN030 30/21 Q1010;
0120827980999992011010718004-07100-034867FM-15+0066SBJP V0201601N007712200019N0112651N1+03001+02101999999ADDGA1041+009001999GF104991999999999999999999MA1100911999999REMMET051METAR SBJP 071800Z 16015KT 9999 SCT030 30/21 Q1009;
0120827980999992011010719004-07100-034867FM-15+0066SBJP V0201701N007712200019N0112651N1+02901+02101999999ADDGA1021+009001999GF102991999999999999999999MA1100911999999REMMET051METAR SBJP 071900Z 17015KT 9999 FEW030 29/21 Q1009;
0120827980999992011010720004-07100-034867FM-15+0066SBJP V0201601N005712200019N0112651N1+02801+02101999999ADDGA1021+009001999GF102991999999999999999999MA1101021999999REMMET051METAR SBJP 072000Z 16011KT 9999 FEW030 28/21 Q1010;
0120827980999992011010721004-07100-034867FM-15+0066SBJP V0201501N005112200019N0112651N1+02701+02101999999ADDGA1021+009001999GF102991999999999999999999MA1101021999999REMMET051METAR SBJP 072100Z 15010KT 9999 FEW030 27/21 Q1010;
0120827980999992011010722004-07100-034867FM-15+0066SBJP V0201701N003612200019N0112651N1+02601+02101999999ADDGA1021+006001999GF102991999999999999999999MA1101021999999REMMET051METAR SBJP 072200Z 17007KT 9999 FEW020 26/21 Q1010;
0120827980999992011010723004-07100-034867FM-15+0066SBJP V0201601N002612200019N0112651N1+02501+02201999999ADDGA1021+006001999GF102991999999999999999999MA1101081999999REMMET051METAR SBJP 072300Z 16005KT 9999 FEW020 25/22 Q1011;
0120827980999992011010800004-07100-034867FM-15+0066SBJP V0201801N002112200019N0112651N1+02501+02201999999ADDGA1021+006001999GF102991999999999999999999MA1101081999999REMMET051METAR SBJP 080000Z 18004KT 9999 FEW020 25/22 Q1011;
0120827980999992011010801004-07100-034867FM-15+0066SBJP V0202201N001012200019N0112651N1+02501+02201999999ADDGA1021+006001999GF102991999999999999999999MA1101081999999REMMET051METAR SBJP 080100Z 22002KT 9999 FEW020 25/22 Q1011;
0120827980999992011010802004-07100-034867FM-15+0066SBJP V0202201N001512200019N0112651N1+02501+02201999999ADDGA1021+006001999GF102991999999999999999999MA1101081999999REMMET051METAR SBJP 080200Z 22003KT 9999 FEW020 25/22 Q1011;
0120827980999992011010803004-07100-034867FM-15+0066SBJP V0202201N001512200019N0112651N1+02401+02201999999ADDGA1021+006001999GF102991999999999999999999MA1101021999999REMMET051METAR SBJP 080300Z 22003KT 9999 FEW020 24/22 Q1010;
0120827980999992011010804004-07100-034867FM-15+0066SBJP V0202001N001012200019N0112651N1+02401+02201999999ADDGA1021+006001999GF102991999999999999999999MA1100911999999REMMET051METAR SBJP 080400Z 20002KT 9999 FEW020 24/22 Q1009;
0155827980999992011010805004-07100-034867FM-15+0066SBJP V0202301N002112200019N0112651N1+02401+02201999999ADDGA1021+006001999GF102991999999999999999999MA1999999999999REMMET051METAR SBJP 080500Z 23004KT 9999 FEW020 24/22 Q1016;EQDQ01+101593APOA  Q02 101603APOA  
0120827980999992011010806004-07100-034867FM-15+0066SBJP V0202201N001512200019N0112651N1+02401+02201999999ADDGA1021+006001999GF102991999999999999999999MA1101021999999REMMET051METAR SBJP 080600Z 22003KT 9999 FEW020 24/22 Q1010;
0120827980999992011010807004-07100-034867FM-15+0066SBJP V0202401N003112200019N0112651N1+02301+02101999999ADDGA1021+006001999GF102991999999999999999999MA1100911999999REMMET051METAR SBJP 080700Z 24006KT 9999 FEW020 23/21 Q1009;
0120827980999992011010808004-07100-034867FM-15+0066SBJP V0202401N002112200019N0112651N1+02301+02101999999ADDGA1021+006001999GF102991999999999999999999MA1100911999999REMMET051METAR SBJP 080800Z 24004KT 9999 FEW020 23/21 Q1009;
0120827980999992011010809004-07100-034867FM-15+0066SBJP V0202501N001012200019N0112651N1+02301+02201999999ADDGA1021+006001999GF102991999999999999999999MA1101021999999REMMET051METAR SBJP 080900Z 25002KT 9999 FEW020 23/22 Q1010;
0120827980999992011010810004-07100-034867FM-15+0066SBJP V0202201N001512200019N0112651N1+02501+02301999999ADDGA1041+009001999GF104991999999999999999999MA1101081999999REMMET051METAR SBJP 081000Z 22003KT 9999 SCT030 25/23 Q1011;
0120827980999992011010811004-07100-034867FM-15+0066SBJP V0201701N004112200019N0112651N1+02801+02201999999ADDGA1041+009001999GF104991999999999999999999MA1101081999999REMMET051METAR SBJP 081100Z 17008KT 9999 SCT030 28/22 Q1011;
0120827980999992011010812004-07100-034867FM-15+0066SBJP V0201501N006210090019N0112651N1+03001+02201999999ADDGA1071+009001999GF107991999999999999999999MA1101081999999REMMET051METAR SBJP 081200Z 15012KT 9999 BKN030 30/22 Q1011;
0120827980999992011010813004-07100-034867FM-15+0066SBJP V0201401N006210090019N0112651N1+03001+02101999999ADDGA1071+009001999GF107991999999999999999999MA1101081999999REMMET051METAR SBJP 081300Z 14012KT 9999 BKN030 30/21 Q1011;
0120827980999992011010814004-07100-034867FM-15+0066SBJP V0201401N006210090019N0112651N1+03101+02201999999ADDGA1071+009001999GF107991999999999999999999MA1101081999999REMMET051METAR SBJP 081400Z 14012KT 9999 BKN030 31/22 Q1011;
0120827980999992011010815004-07100-034867FM-15+0066SBJP V0201501N006210090019N0112651N1+03001+02201999999ADDGA1071+009001999GF107991999999999999999999MA1101021999999REMMET051METAR SBJP 081500Z 15012KT 9999 BKN030 30/22 Q1010;
0128827980999992011010816004-07100-034867FM-15+0066SBJP V0201301N006212200019N0112651N1+03101+02101999999ADDGA1041+009001999GF104991999999999999999999MA1100911999999REMMET059METAR SBJP 081600Z 13012KT 100V160 9999 SCT030 31/21 Q1009;
0120827980999992011010817004-07100-034867FM-15+0066SBJP V0201601N005712200019N0112651N1+03101+02001999999ADDGA1021+009001999GF102991999999999999999999MA1100911999999REMMET051METAR SBJP 081700Z 16011KT 9999 FEW030 31/20 Q1009;
0120827980999992011010818004-07100-034867FM-15+0066SBJP V0201701N006212200019N0112651N1+03001+02101999999ADDGA1021+009001999GF102991999999999999999999MA1100911999999REMMET051METAR SBJP 081800Z 17012KT 9999 FEW030 30/21 Q1009;
0072827980999992011010819004-07100-034867FM-15+0066SBJP V0201501N007219999999Y0099001N1+03001+02101999999ADDMA1100911999999REMMET045METAR SBJP 081900Z 15014KT CAVOK 30/21 Q1009;
0120827980999992011010820004-07100-034867FM-15+0066SBJP V0201501N006712200019N0112651N1+02801+02101999999ADDGA1021+007501999GF102991999999999999999999MA1101021999999REMMET051METAR SBJP 082000Z 15013KT 9999 FEW025 28/21 Q1010;
0120827980999992011010821004-07100-034867FM-15+0066SBJP V0201601N005112200019N0112651N1+02701+02101999999ADDGA1021+006001999GF102991999999999999999999MA1101021999999REMMET051METAR SBJP 082100Z 16010KT 9999 FEW020 27/21 Q1010;
0120827980999992011010822004-07100-034867FM-15+0066SBJP V0201701N003112200019N0112651N1+02601+02101999999ADDGA1041+006001999GF104991999999999999999999MA1101081999999REMMET051METAR SBJP 082200Z 17006KT 9999 SCT020 26/21 Q1011;
0120827980999992011010823004-07100-034867FM-15+0066SBJP V0201701N002612200019N0112651N1+02501+02201999999ADDGA1041+006001999GF104991999999999999999999MA1101081999999REMMET051METAR SBJP 082300Z 17005KT 9999 SCT020 25/22 Q1011;
0120827980999992011010900004-07100-034867FM-15+0066SBJP V0201601N002612200019N0112651N1+02501+02201999999ADDGA1041+006001999GF104991999999999999999999MA1101081999999REMMET051METAR SBJP 090000Z 16005KT 9999 SCT020 25/22 Q1011;
0120827980999992011010901004-07100-034867FM-15+0066SBJP V0201701N002112200019N0112651N1+02501+02201999999ADDGA1041+006001999GF104991999999999999999999MA1101081999999REMMET051METAR SBJP 090100Z 17004KT 9999 SCT020 25/22 Q1011;
0120827980999992011010902004-07100-034867FM-15+0066SBJP V0201901N001012200019N0112651N1+02501+02201999999ADDGA1041+006001999GF104991999999999999999999MA1101081999999REMMET051METAR SBJP 090200Z 19002KT 9999 SCT020 25/22 Q1011;
0120827980999992011010903004-07100-034867FM-15+0066SBJP V0202401N001512200019N0112651N1+02501+02201999999ADDGA1041+006001999GF104991999999999999999999MA1101021999999REMMET051METAR SBJP 090300Z 24003KT 9999 SCT020 25/22 Q1010;
0120827980999992011010904004-07100-034867FM-15+0066SBJP V0209999C000012200019N0112651N1+02401+02201999999ADDGA1041+006001999GF104991999999999999999999MA1101021999999REMMET051METAR SBJP 090400Z 00000KT 9999 SCT020 24/22 Q1010;
0120827980999992011010905004-07100-034867FM-15+0066SBJP V0202701N001012200019N0112651N1+02401+02201999999ADDGA1041+006001999GF104991999999999999999999MA1100911999999REMMET051METAR SBJP 090500Z 27002KT 9999 SCT020 24/22 Q1009;
0120827980999992011010906004-07100-034867FM-15+0066SBJP V0202401N001512200019N0112651N1+02401+02201999999ADDGA1041+006001999GF104991999999999999999999MA1100911999999REMMET051METAR SBJP 090600Z 24003KT 9999 SCT020 24/22 Q1009;
0120827980999992011010907004-07100-034867FM-15+0066SBJP V0202401N001512200019N0112651N1+02401+02201999999ADDGA1041+006001999GF104991999999999999999999MA1100911999999REMMET051METAR SBJP 090700Z 24003KT 9999 SCT020 24/22 Q1009;
0120827980999992011010908004-07100-034867FM-15+0066SBJP V0202501N001012200019N0112651N1+02401+02201999999ADDGA1041+006001999GF104991999999999999999999MA1100911999999REMMET051METAR SBJP 090800Z 25002KT 9999 SCT020 24/22 Q1009;
0120827980999992011010909004-07100-034867FM-15+0066SBJP V0202501N001512200019N0112651N1+02401+02201999999ADDGA1021+006001999GF102991999999999999999999MA1101021999999REMMET051METAR SBJP 090900Z 25003KT 9999 FEW020 24/22 Q1010;
0120827980999992011010910004-07100-034867FM-15+0066SBJP V0202201N002112200019N0112651N1+02601+02301999999ADDGA1021+007501999GF102991999999999999999999MA1101021999999REMMET051METAR SBJP 091000Z 22004KT 9999 FEW025 26/23 Q1010;
0120827980999992011010911004-07100-034867FM-15+0066SBJP V0201901N003112200019N0112651N1+02801+02301999999ADDGA1041+007501999GF104991999999999999999999MA1101081999999REMMET051METAR SBJP 091100Z 19006KT 9999 SCT025 28/23 Q1011;
0120827980999992011010912004-07100-034867FM-15+0066SBJP V0201501N003610075019N0112651N1+02801+02301999999ADDGA1071+007501999GF107991999999999999999999MA1101081999999REMMET051METAR SBJP 091200Z 15007KT 9999 BKN025 28/23 Q1011;
0120827980999992011010913004-07100-034867FM-15+0066SBJP V0201701N005710075019N0112651N1+03001+02201999999ADDGA1071+007501999GF107991999999999999999999MA1101081999999REMMET051METAR SBJP 091300Z 17011KT 9999 BKN025 30/22 Q1011;
0120827980999992011010914004-07100-034867FM-15+0066SBJP V0201501N006210075019N0112651N1+03101+02201999999ADDGA1071+007501999GF107991999999999999999999MA1101081999999REMMET051METAR SBJP 091400Z 15012KT 9999 BKN025 31/22 Q1011;
0120827980999992011010915004-07100-034867FM-15+0066SBJP V0201501N005110090019N0112651N1+03001+02101999999ADDGA1071+009001999GF107991999999999999999999MA1101021999999REMMET051METAR SBJP 091500Z 15010KT 9999 BKN030 30/21 Q1010;
0120827980999992011010916004-07100-034867FM-15+0066SBJP V0201601N007212200019N0112651N1+03001+02101999999ADDGA1041+009001999GF104991999999999999999999MA1100911999999REMMET051METAR SBJP 091600Z 16014KT 9999 SCT030 30/21 Q1009;
0143827980999992011010917004-07100-034867FM-15+0066SBJP V0201601N005112200019N0112651N1+03001+02101999999ADDGA1041+009001999GA2041+021001999GF104991999999999999999999MA1100911999999REMMET058METAR SBJP 091700Z 16010KT 9999 SCT030 SCT070 30/21 Q1009;
0143827980999992011010918004-07100-034867FM-15+0066SBJP V0201301N005712200019N0112651N1+02901+02101999999ADDGA1041+009001999GA2041+021001999GF104991999999999999999999MA1100811999999REMMET058METAR SBJP 091800Z 13011KT 9999 SCT030 SCT070 29/21 Q1008;
0143827980999992011010919004-07100-034867FM-15+0066SBJP V0201301N005710210019N0112651N1+02901+02201999999ADDGA1041+009001999GA2071+021001999GF107991999999999999999999MA1100911999999REMMET058METAR SBJP 091900Z 13011KT 9999 SCT030 BKN070 29/22 Q1009;
0143827980999992011010920004-07100-034867FM-15+0066SBJP V0201401N004612200019N0112651N1+02801+02201999999ADDGA1041+009001999GA2041+021001999GF104991999999999999999999MA1100911999999REMMET058METAR SBJP 092000Z 14009KT 9999 SCT030 SCT070 28/22 Q1009;
0120827980999992011010921004-07100-034867FM-15+0066SBJP V0201401N005112200019N0112651N1+02701+02201999999ADDGA1041+007501999GF104991999999999999999999MA1100911999999REMMET051METAR SBJP 092100Z 14010KT 9999 SCT025 27/22 Q1009;
0120827980999992011010922004-07100-034867FM-15+0066SBJP V0201101N003612200019N0112651N1+02701+02201999999ADDGA1041+006001999GF104991999999999999999999MA1101021999999REMMET051METAR SBJP 092200Z 11007KT 9999 SCT020 27/22 Q1010;
0120827980999992011010923004-07100-034867FM-15+0066SBJP V0201101N004112200019N0112651N1+02701+02201999999ADDGA1041+006001999GF104991999999999999999999MA1101081999999REMMET051METAR SBJP 092300Z 11008KT 9999 SCT020 27/22 Q1011;
0120827980999992011011000004-07100-034867FM-15+0066SBJP V0201101N003612200019N0112651N1+02701+02201999999ADDGA1041+006001999GF104991999999999999999999MA1101081999999REMMET051METAR SBJP 100000Z 11007KT 9999 SCT020 27/22 Q1011;
0120827980999992011011001004-07100-034867FM-15+0066SBJP V0201001N003112200019N0112651N1+02701+02201999999ADDGA1041+006001999GF104991999999999999999999MA1101081999999REMMET051METAR SBJP 100100Z 10006KT 9999 SCT020 27/22 Q1011;
0120827980999992011011002004-07100-034867FM-15+0066SBJP V0201001N002612200019N0112651N1+02701+02201999999ADDGA1041+006001999GF104991999999999999999999MA1101081999999REMMET051METAR SBJP 100200Z 10005KT 9999 SCT020 27/22 Q1011;
0143827980999992011011003004-07100-034867FM-15+0066SBJP V0201001N002110210019N0112651N1+02701+02201999999ADDGA1021+006001999GA2071+021001999GF107991999999999999999999MA1101021999999REMMET058METAR SBJP 100300Z 10004KT 9999 FEW020 BKN070 27/22 Q1010;
0120827980999992011011004004-07100-034867FM-15+0066SBJP V0201201N002112200019N0112651N1+02701+02201999999ADDGA1021+006001999GF102991999999999999999999MA1101021999999REMMET051METAR SBJP 100400Z 12004KT 9999 FEW020 27/22 Q1010;
0143827980999992011011005004-07100-034867FM-15+0066SBJP V0201301N002612200019N0112651N1+02601+02201999999ADDGA1021+006001999GA2041+021001999GF104991999999999999999999MA1100911999999REMMET058METAR SBJP 100500Z 13005KT 9999 FEW020 SCT070 26/22 Q1009;
0130827980999992011011006004-07100-034867FM-15+0066SBJP V0201101N003610048019N0112651N1+02701+02301999999ADDGA1071+004801999GF107991999999999999999999MA1100911999999MW1611REMMET055METAR SBJP 100600Z 11007KT 9999 -RA BKN016 27/23 Q1009;
0143827980999992011011007004-07100-034867FM-15+0066SBJP V0200801N001012200019N0112651N1+02501+02301999999ADDGA1021+006001999GA2041+021001999GF104991999999999999999999MA1100911999999REMMET058METAR SBJP 100700Z 08002KT 9999 FEW020 SCT070 25/23 Q1009;
0143827980999992011011008004-07100-034867FM-15+0066SBJP V0201201N001512200019N0112651N1+02601+02301999999ADDGA1021+006001999GA2041+021001999GF104991999999999999999999MA1101021999999REMMET058METAR SBJP 100800Z 12003KT 9999 FEW020 SCT070 26/23 Q1010;
0143827980999992011011009004-07100-034867FM-15+0066SBJP V0209999C000012200019N0112651N1+02501+02301999999ADDGA1021+006001999GA2041+021001999GF104991999999999999999999MA1101021999999REMMET058METAR SBJP 100900Z 00000KT 9999 FEW020 SCT070 25/23 Q1010;
0143827980999992011011010004-07100-034867FM-15+0066SBJP V0203501N001512200019N0112651N1+02701+02401999999ADDGA1021+006001999GA2041+021001999GF104991999999999999999999MA1101081999999REMMET058METAR SBJP 101000Z 35003KT 9999 FEW020 SCT070 27/24 Q1011;
0143827980999992011011011004-07100-034867FM-15+0066SBJP V0200201N001012200019N0112651N1+02801+02301999999ADDGA1041+006001999GA2041+027001999GF104991999999999999999999MA1101191999999REMMET058METAR SBJP 101100Z 02002KT 9999 SCT020 SCT090 28/23 Q1012;
0143827980999992011011012004-07100-034867FM-15+0066SBJP V0200701N002112200019N0112651N1+02901+02201999999ADDGA1041+006001999GA2041+027001999GF104991999999999999999999MA1101081999999REMMET058METAR SBJP 101200Z 07004KT 9999 SCT020 SCT090 29/22 Q1011;
0169827980999992011011013004-07100-034867FM-15+0066SBJP V0200801N003612200019N0112651N1+03001+02201999999ADDGA1041+007501999GA2021+009001021GA3041+027001999GF104991999999999999999999MA1101191999999REMMET068METAR SBJP 101300Z 08007KT 9999 SCT025 FEW030TCU SCT090 30/22 Q1012;
0143827980999992011011014004-07100-034867FM-15+0066SBJP V0201001N005112200019N0112651N1+03001+02201999999ADDGA1041+007501999GA2041+027001999GF104991999999999999999999MA1101081999999REMMET058METAR SBJP 101400Z 10010KT 9999 SCT025 SCT090 30/22 Q1011;
0143827980999992011011015004-07100-034867FM-15+0066SBJP V0200701N005112200019N0112651N1+03101+02101999999ADDGA1041+009001999GA2041+027001999GF104991999999999999999999MA1101021999999REMMET058METAR SBJP 101500Z 07010KT 9999 SCT030 SCT090 31/21 Q1010;
0169827980999992011011016004-07100-034867FM-15+0066SBJP V0200801N005710075019N0112651N1+03001+02201999999ADDGA1071+007501999GA2021+009001021GA3071+021001999GF107991999999999999999999MA1101021999999REMMET068METAR SBJP 101600Z 08011KT 9999 BKN025 FEW030TCU BKN070 30/22 Q1010;
0169827980999992011011017004-07100-034867FM-15+0066SBJP V0200701N004610075019N0112651N1+02901+02201999999ADDGA1071+007501999GA2021+009001021GA3071+021001999GF107991999999999999999999MA1100911999999REMMET068METAR SBJP 101700Z 07009KT 9999 BKN025 FEW030TCU BKN070 29/22 Q1009;
0169827980999992011011018004-07100-034867FM-15+0066SBJP V0200301N005110060019N0112651N1+02801+02201999999ADDGA1071+006001999GA2021+009001021GA3071+021001999GF107991999999999999999999MA1100911999999REMMET068METAR SBJP 101800Z 03010KT 9999 BKN020 FEW030TCU BKN070 28/22 Q1009;
0169827980999992011011019004-07100-034867FM-15+0066SBJP V0200401N004610060019N0112651N1+02901+02201999999ADDGA1071+006001999GA2021+009001021GA3071+021001999GF107991999999999999999999MA1100911999999REMMET068METAR SBJP 101900Z 04009KT 9999 BKN020 FEW030TCU BKN070 29/22 Q1009;
0169827980999992011011020004-07100-034867FM-15+0066SBJP V0200301N00361009001CN0112651N1+02801+02201999999ADDGA1041+006001999GA2021+009001021GA3071+021001999GF107991999999999999999999MA1101021999999REMMET068METAR SBJP 102000Z 03007KT 9999 SCT020 FEW030TCU BKN070 28/22 Q1010;
0143827980999992011011021004-07100-034867FM-15+0066SBJP V0200301N002110210019N0112651N1+02701+02201999999ADDGA1041+006001999GA2071+021001999GF107991999999999999999999MA1101021999999REMMET058METAR SBJP 102100Z 03004KT 9999 SCT020 BKN070 27/22 Q1010;
0143827980999992011011022004-07100-034867FM-15+0066SBJP V0200701N001010210019N0112651N1+02601+02201999999ADDGA1041+006001999GA2071+021001999GF107991999999999999999999MA1101021999999REMMET058METAR SBJP 102200Z 07002KT 9999 SCT020 BKN070 26/22 Q1010;
0143827980999992011011023004-07100-034867FM-15+0066SBJP V0200401N001510210019N0112651N1+02601+02301999999ADDGA1021+006001999GA2071+021001999GF107991999999999999999999MA1101081999999REMMET058METAR SBJP 102300Z 04003KT 9999 FEW020 BKN070 26/23 Q1011;
0120827980999992011011100004-07100-034867FM-15+0066SBJP V0200501N001012200019N0112651N1+02601+02301999999ADDGA1041+006001999GF104991999999999999999999MA1101081999999REMMET051METAR SBJP 110000Z 05002KT 9999 SCT020 26/23 Q1011;
0120827980999992011011101004-07100-034867FM-15+0066SBJP V0209999C000012200019N0112651N1+02601+02301999999ADDGA1041+006001999GF104991999999999999999999MA1101081999999REMMET051METAR SBJP 110100Z 00000KT 9999 SCT020 26/23 Q1011;
0120827980999992011011102004-07100-034867FM-15+0066SBJP V0203501N001012200019N0112651N1+02501+02201999999ADDGA1041+006001999GF104991999999999999999999MA1101081999999REMMET051METAR SBJP 110200Z 35002KT 9999 SCT020 25/22 Q1011;
0143827980999992011011103004-07100-034867FM-15+0066SBJP V0202801N001012200019N0112651N1+02501+02301999999ADDGA1041+006001999GA2041+021001999GF104991999999999999999999MA1101021999999REMMET058METAR SBJP 110300Z 28002KT 9999 SCT020 SCT070 25/23 Q1010;
0143827980999992011011104004-07100-034867FM-15+0066SBJP V0201901N001510060019N0112651N1+02501+02301999999ADDGA1041+004501999GA2071+006001999GF107991999999999999999999MA1101021999999REMMET058METAR SBJP 110400Z 19003KT 9999 SCT015 BKN020 25/23 Q1010;
0143827980999992011011105004-07100-034867FM-15+0066SBJP V0202601N001510060019N0112651N1+02501+02301999999ADDGA1041+004501999GA2071+006001999GF107991999999999999999999MA1101021999999REMMET058METAR SBJP 110500Z 26003KT 9999 SCT015 BKN020 25/23 Q1010;
0120827980999992011011106004-07100-034867FM-15+0066SBJP V0202501N001512200019N0112651N1+02401+02301999999ADDGA1041+006001999GF104991999999999999999999MA1101021999999REMMET051METAR SBJP 110600Z 25003KT 9999 SCT020 24/23 Q1010;
0120827980999992011011107004-07100-034867FM-15+0066SBJP V0202701N001012200019N0112651N1+02501+02301999999ADDGA1041+006001999GF104991999999999999999999MA1101021999999REMMET051METAR SBJP 110700Z 27002KT 9999 SCT020 25/23 Q1010;
0120827980999992011011108004-07100-034867FM-15+0066SBJP V0202701N001012200019N0112651N1+02401+02301999999ADDGA1041+006001999GF104991999999999999999999MA1101021999999REMMET051METAR SBJP 110800Z 27002KT 9999 SCT020 24/23 Q1010;
0120827980999992011011109004-07100-034867FM-15+0066SBJP V0202901N001010060019N0112651N1+02401+02301999999ADDGA1071+006001999GF107991999999999999999999MA1101081999999REMMET051METAR SBJP 110900Z 29002KT 9999 BKN020 24/23 Q1011;
0169827980999992011011110004-07100-034867FM-15+0066SBJP V0202401N00101009001CN0112651N1+02601+02401999999ADDGA1041+007501999GA2021+009001021GA3071+021001999GF107991999999999999999999MA1101191999999REMMET068METAR SBJP 111000Z 24002KT 9999 SCT025 FEW030TCU BKN070 26/24 Q1012;
0143827980999992011011111004-07100-034867FM-15+0066SBJP V0201801N001010210019N0112651N1+02801+02401999999ADDGA1041+007501999GA2071+021001999GF107991999999999999999999MA1101191999999REMMET058METAR SBJP 111100Z 18002KT 9999 SCT025 BKN070 28/24 Q1012;
0169827980999992011011112004-07100-034867FM-15+0066SBJP V0200701N001010075019N0112651N1+02901+02301999999ADDGA1071+007501999GA2021+009001021GA3071+021001999GF107991999999999999999999MA1101291999999REMMET068METAR SBJP 111200Z 07002KT 9999 BKN025 FEW030TCU BKN070 29/23 Q1013;
0169827980999992011011113004-07100-034867FM-15+0066SBJP V0201001N003110075019N0112651N1+03001+02301999999ADDGA1071+007501999GA2021+009001021GA3071+021001999GF107991999999999999999999MA1101191999999REMMET068METAR SBJP 111300Z 10006KT 9999 BKN025 FEW030TCU BKN070 30/23 Q1012;
0120827980999992011011114004-07100-034867FM-15+0066SBJP V0200901N003610090019N0112651N1+03101+02201999999ADDGA1071+009001999GF107991999999999999999999MA1101191999999REMMET051METAR SBJP 111400Z 09007KT 9999 BKN030 31/22 Q1012;
0120827980999992011011115004-07100-034867FM-15+0066SBJP V0200901N004110090019N0112651N1+03101+02301999999ADDGA1071+009001999GF107991999999999999999999MA1101191999999REMMET051METAR SBJP 111500Z 09008KT 9999 BKN030 31/23 Q1012;
0120827980999992011011116004-07100-034867FM-15+0066SBJP V0201201N004610090019N0112651N1+03101+02201999999ADDGA1071+009001999GF107991999999999999999999MA1101081999999REMMET051METAR SBJP 111600Z 12009KT 9999 BKN030 31/22 Q1011;
0120827980999992011011117004-07100-034867FM-15+0066SBJP V0201201N005110090019N0112651N1+03001+02301999999ADDGA1071+009001999GF107991999999999999999999MA1101081999999REMMET051METAR SBJP 111700Z 12010KT 9999 BKN030 30/23 Q1011;
0120827980999992011011118004-07100-034867FM-15+0066SBJP V0201101N005112200019N0112651N1+03101+02301999999ADDGA1041+009001999GF104991999999999999999999MA1101021999999REMMET051METAR SBJP 111800Z 11010KT 9999 SCT030 31/23 Q1010;
0120827980999992011011119004-07100-034867FM-15+0066SBJP V0201201N005112200019N0112651N1+03001+02301999999ADDGA1041+007501999GF104991999999999999999999MA1101021999999REMMET051METAR SBJP 111900Z 12010KT 9999 SCT025 30/23 Q1010;
0120827980999992011011120004-07100-034867FM-15+0066SBJP V0201301N004612200019N0112651N1+02901+02301999999ADDGA1041+007501999GF104991999999999999999999MA1101081999999REMMET051METAR SBJP 112000Z 13009KT 9999 SCT025 29/23 Q1011;
0130827980999992011011121004-07100-034867FM-15+0066SBJP V0201101N00361005101CN0050001N1+02701+02301999999ADDGA1071+005101999GA2021+006001021MA1101081999999MW1611REMMET065METAR SBJP 112100Z 11007KT 5000 -RA BKN017 FEW020TCU 27/23 Q1011;
0117827980999992011011122004-07100-034867FM-15+0066SBJP V0201201N00461006001CN0112651N1+02601+02301999999ADDGA1071+006001999GA2041+021001999MA1101191999999REMMET058METAR SBJP 112200Z 12009KT 9999 BKN020 SCT070 26/23 Q1012;
0120827980999992011011123004-07100-034867FM-15+0066SBJP V0201101N001512200019N0112651N1+02601+02401999999ADDGA1041+006001999GF104991999999999999999999MA1101191999999REMMET051METAR SBJP 112300Z 11003KT 9999 SCT020 26/24 Q1012;
0120827980999992011011200004-07100-034867FM-15+0066SBJP V0201901N001512200019N0112651N1+02601+02401999999ADDGA1041+006001999GF104991999999999999999999MA1101191999999REMMET051METAR SBJP 120000Z 19003KT 9999 SCT020 26/24 Q1012;
0120827980999992011011201004-07100-034867FM-15+0066SBJP V0201201N002112200019N0112651N1+02601+02501999999ADDGA1041+006001999GF104991999999999999999999MA1101191999999REMMET051METAR SBJP 120100Z 12004KT 9999 SCT020 26/25 Q1012;
0120827980999992011011202004-07100-034867FM-15+0066SBJP V0201301N001512200019N0112651N1+02701+02501999999ADDGA1041+006001999GF104991999999999999999999MA1101081999999REMMET051METAR SBJP 120200Z 13003KT 9999 SCT020 27/25 Q1011;
0120827980999992011011203004-07100-034867FM-15+0066SBJP V0201201N001512200019N0112651N1+02601+02401999999ADDGA1041+006001999GF104991999999999999999999MA1101081999999REMMET051METAR SBJP 120300Z 12003KT 9999 SCT020 26/24 Q1011;
0120827980999992011011204004-07100-034867FM-15+0066SBJP V0200601N001010054019N0112651N1+02601+02401999999ADDGA1071+005401999GF107991999999999999999999MA1101081999999REMMET051METAR SBJP 120400Z 06002KT 9999 BKN018 26/24 Q1011;
0143827980999992011011205004-07100-034867FM-15+0066SBJP V0200701N001010054019N0112651N1+02601+02401999999ADDGA1071+005401999GA2071+021001999GF107991999999999999999999MA1101081999999REMMET058METAR SBJP 120500Z 07002KT 9999 BKN018 BKN070 26/24 Q1011;
0143827980999992011011206004-07100-034867FM-15+0066SBJP V0200901N001510054019N0112651N1+02601+02401999999ADDGA1071+005401999GA2071+021001999GF107991999999999999999999MA1101021999999REMMET058METAR SBJP 120600Z 09003KT 9999 BKN018 BKN070 26/24 Q1010;
0143827980999992011011207004-07100-034867FM-15+0066SBJP V0201001N002110054019N0112651N1+02601+02401999999ADDGA1071+005401999GA2071+021001999GF107991999999999999999999MA1101081999999REMMET058METAR SBJP 120700Z 10004KT 9999 BKN018 BKN070 26/24 Q1011;
0143827980999992011011208004-07100-034867FM-15+0066SBJP V0201101N002610054019N0112651N1+02601+02401999999ADDGA1071+005401999GA2071+021001999GF107991999999999999999999MA1101191999999REMMET058METAR SBJP 120800Z 11005KT 9999 BKN018 BKN070 26/24 Q1012;
0143827980999992011011209004-07100-034867FM-15+0066SBJP V0201101N002110051019N0112651N1+02601+02401999999ADDGA1071+005101999GA2071+021001999GF107991999999999999999999MA1101191999999REMMET058METAR SBJP 120900Z 11004KT 9999 BKN017 BKN070 26/24 Q1012;
0120827980999992011011210004-07100-034867FM-15+0066SBJP V0201201N003110051019N0112651N1+02801+02401999999ADDGA1071+005101999GF107991999999999999999999MA1101291999999REMMET051METAR SBJP 121000Z 12006KT 9999 BKN017 28/24 Q1013;
0120827980999992011011211004-07100-034867FM-15+0066SBJP V0201101N003610060019N0112651N1+02901+02401999999ADDGA1071+006001999GF107991999999999999999999MA1101291999999REMMET051METAR SBJP 121100Z 11007KT 9999 BKN020 29/24 Q1013;
0120827980999992011011212004-07100-034867FM-15+0066SBJP V0201201N004610075019N0112651N1+02901+02401999999ADDGA1071+007501999GF107991999999999999999999MA1101291999999REMMET051METAR SBJP 121200Z 12009KT 9999 BKN025 29/24 Q1013;
0120827980999992011011213004-07100-034867FM-15+0066SBJP V0201101N004110060019N0112651N1+03001+02501999999ADDGA1071+006001999GF107991999999999999999999MA1101291999999REMMET051METAR SBJP 121300Z 11008KT 9999 BKN020 30/25 Q1013;
0120827980999992011011214004-07100-034867FM-15+0066SBJP V0201101N005110060019N0112651N1+03001+02301999999ADDGA1071+006001999GF107991999999999999999999MA1101191999999REMMET051METAR SBJP 121400Z 11010KT 9999 BKN020 30/23 Q1012;
0120827980999992011011215004-07100-034867FM-15+0066SBJP V0201101N005110075019N0112651N1+03001+02301999999ADDGA1071+007501999GF107991999999999999999999MA1101191999999REMMET051METAR SBJP 121500Z 11010KT 9999 BKN025 30/23 Q1012;
0120827980999992011011216004-07100-034867FM-15+0066SBJP V0201101N004610075019N0112651N1+03001+02401999999ADDGA1071+007501999GF107991999999999999999999MA1101081999999REMMET051METAR SBJP 121600Z 11009KT 9999 BKN025 30/24 Q1011;
0120827980999992011011217004-07100-034867FM-15+0066SBJP V0201201N005110075019N0112651N1+03101+02301999999ADDGA1071+007501999GF107991999999999999999999MA1101081999999REMMET051METAR SBJP 121700Z 12010KT 9999 BKN025 31/23 Q1011;
0120827980999992011011218004-07100-034867FM-15+0066SBJP V0201101N005110075019N0112651N1+03001+02201999999ADDGA1071+007501999GF107991999999999999999999MA1101081999999REMMET051METAR SBJP 121800Z 11010KT 9999 BKN025 30/22 Q1011;
0120827980999992011011219004-07100-034867FM-15+0066SBJP V0201201N004610075019N0112651N1+02901+02301999999ADDGA1071+007501999GF107991999999999999999999MA1101021999999REMMET051METAR SBJP 121900Z 12009KT 9999 BKN025 29/23 Q1010;
0146827980999992011011220004-07100-034867FM-15+0066SBJP V0201201N00361007501CN0050001N1+02801+02401999999ADDGA1071+007501999GA2041+021001999MA1101081999999MW1611REMMET062METAR SBJP 122000Z 12007KT 5000 -RA BKN025 SCT070 28/24 Q1011;EQDQ01+000042SCOTCV
0120827980999992011011221004-07100-034867FM-15+0066SBJP V0201201N003110060019N0112651N1+02701+02401999999ADDGA1071+006001999GF107991999999999999999999MA1101081999999REMMET051METAR SBJP 122100Z 12006KT 9999 BKN020 27/24 Q1011;
0152827980999992011011221464-07100-034867FM-16+0066SBJP V0201201N004110045019N0035001N1+02701+02401999999ADDGA1041+003001999GA2071+004501999GF107991999999999999999999MA1101191999999MW1631REMMET061SPECI SBJP 122146Z 12008KT 3500 RA SCT010 BKN015 27/24 Q1012;
0125827980999992011011222004-07100-034867FM-15+0066SBJP V0201501N003110045019N0112651N1+02701+02501999999ADDGA1071+004501999GF107991999999999999999999MA1101191999999REMMET056METAR SBJP 122200Z 15006KT 9999 BKN015 27/25 Q1012 RERA;
0120827980999992011011223004-07100-034867FM-15+0066SBJP V0201401N004112200019N0112651N1+02701+02401999999ADDGA1041+005401999GF104991999999999999999999MA1101191999999REMMET051METAR SBJP 122300Z 14008KT 9999 SCT018 27/24 Q1012;
0120827980999992011011300004-07100-034867FM-15+0066SBJP V0201401N004112200019N0112651N1+02701+02401999999ADDGA1041+005401999GF104991999999999999999999MA1101291999999REMMET051METAR SBJP 130000Z 14008KT 9999 SCT018 27/24 Q1013;
0120827980999992011011301004-07100-034867FM-15+0066SBJP V0201301N002112200019N0112651N1+02701+02401999999ADDGA1041+005401999GF104991999999999999999999MA1101291999999REMMET051METAR SBJP 130100Z 13004KT 9999 SCT018 27/24 Q1013;
0120827980999992011011302004-07100-034867FM-15+0066SBJP V0201301N002112200019N0112651N1+02601+02401999999ADDGA1041+005401999GF104991999999999999999999MA1101191999999REMMET051METAR SBJP 130200Z 13004KT 9999 SCT018 26/24 Q1012;
0120827980999992011011303004-07100-034867FM-15+0066SBJP V0201301N002112200019N0112651N1+02601+02401999999ADDGA1041+006001999GF104991999999999999999999MA1101191999999REMMET051METAR SBJP 130300Z 13004KT 9999 SCT020 26/24 Q1012;
0120827980999992011011304004-07100-034867FM-15+0066SBJP V0201201N001010051019N0112651N1+02601+02401999999ADDGA1071+005101999GF107991999999999999999999MA1101081999999REMMET051METAR SBJP 130400Z 12002KT 9999 BKN017 26/24 Q1011;
0120827980999992011011305004-07100-034867FM-15+0066SBJP V0201201N002610051019N0112651N1+02601+02301999999ADDGA1071+005101999GF107991999999999999999999MA1101021999999REMMET051METAR SBJP 130500Z 12005KT 9999 BKN017 26/23 Q1010;
0130827980999992011011306004-07100-034867FM-15+0066SBJP V0201501N001510048019N0080001N1+02601+02401999999ADDGA1071+004801999GF107991999999999999999999MA1101021999999MW1611REMMET055METAR SBJP 130600Z 15003KT 8000 -RA BKN016 26/24 Q1010;
0153827980999992011011307004-07100-034867FM-15+0066SBJP V0201401N001510051019N0040001N1+02601+02301999999ADDGA1071+005101999GA2071+021001999GF107991999999999999999999MA1101021999999MW1611REMMET062METAR SBJP 130700Z 14003KT 4000 -RA BKN017 BKN070 26/23 Q1010;
0125827980999992011011308004-07100-034867FM-15+0066SBJP V0201701N001510051019N0112651N1+02501+02301999999ADDGA1071+005101999GF107991999999999999999999MA1101081999999REMMET056METAR SBJP 130800Z 17003KT 9999 BKN017 25/23 Q1011 RERA;
0120827980999992011011309004-07100-034867FM-15+0066SBJP V0201801N002110051019N0112651N1+02501+02401999999ADDGA1071+005101999GF107991999999999999999999MA1101191999999REMMET051METAR SBJP 130900Z 18004KT 9999 BKN017 25/24 Q1012;
0143827980999992011011310004-07100-034867FM-15+0066SBJP V0201301N002610051019N0060001N1+02701+02401999999ADDGA1041+004501999GA2071+005101999GF107991999999999999999999MA1101191999999REMMET058METAR SBJP 131000Z 13005KT 6000 SCT015 BKN017 27/24 Q1012;
0120827980999992011011311004-07100-034867FM-15+0066SBJP V0201301N004610060019N0112651N1+02801+02301999999ADDGA1071+006001999GF107991999999999999999999MA1101191999999REMMET051METAR SBJP 131100Z 13009KT 9999 BKN020 28/23 Q1012;
0143827980999992011011312004-07100-034867FM-15+0066SBJP V0201301N005110060019N0112651N1+02901+02301999999ADDGA1041+004501999GA2071+006001999GF107991999999999999999999MA1101291999999REMMET058METAR SBJP 131200Z 13010KT 9999 SCT015 BKN020 29/23 Q1013;
0143827980999992011011313004-07100-034867FM-15+0066SBJP V0201301N005710060019N0112651N1+02901+02301999999ADDGA1041+004501999GA2071+006001999GF107991999999999999999999MA1101291999999REMMET058METAR SBJP 131300Z 13011KT 9999 SCT015 BKN020 29/23 Q1013;
0120827980999992011011314004-07100-034867FM-15+0066SBJP V0201301N006210075019N0112651N1+03001+02201999999ADDGA1071+007501999GF107991999999999999999999MA1101191999999REMMET051METAR SBJP 131400Z 13012KT 9999 BKN025 30/22 Q1012;
0120827980999992011011315004-07100-034867FM-15+0066SBJP V0201401N006210090019N0112651N1+03001+02101999999ADDGA1071+009001999GF107991999999999999999999MA1101191999999REMMET051METAR SBJP 131500Z 14012KT 9999 BKN030 30/21 Q1012;
0120827980999992011011316004-07100-034867FM-15+0066SBJP V0201401N006210090019N0112651N1+03001+02201999999ADDGA1071+009001999GF107991999999999999999999MA1101081999999REMMET051METAR SBJP 131600Z 14012KT 9999 BKN030 30/22 Q1011;
0120827980999992011011317004-07100-034867FM-15+0066SBJP V0201401N006210090019N0112651N1+03001+02201999999ADDGA1071+009001999GF107991999999999999999999MA1101021999999REMMET051METAR SBJP 131700Z 14012KT 9999 BKN030 30/22 Q1010;
0120827980999992011011318004-07100-034867FM-15+0066SBJP V0201601N005710090019N0112651N1+03001+02101999999ADDGA1071+009001999GF107991999999999999999999MA1101021999999REMMET051METAR SBJP 131800Z 16011KT 9999 BKN030 30/21 Q1010;
0120827980999992011011319004-07100-034867FM-15+0066SBJP V0201401N005710075019N0112651N1+02901+02201999999ADDGA1071+007501999GF107991999999999999999999MA1101021999999REMMET051METAR SBJP 131900Z 14011KT 9999 BKN025 29/22 Q1010;
0120827980999992011011320004-07100-034867FM-15+0066SBJP V0201301N003610075019N0112651N1+02801+02201999999ADDGA1071+007501999GF107991999999999999999999MA1101081999999REMMET051METAR SBJP 132000Z 13007KT 9999 BKN025 28/22 Q1011;
0120827980999992011011321004-07100-034867FM-15+0066SBJP V0201601N004112200019N0112651N1+02701+02101999999ADDGA1021+006001999GF102991999999999999999999MA1101081999999REMMET051METAR SBJP 132100Z 16008KT 9999 FEW020 27/21 Q1011;
0120827980999992011011322004-07100-034867FM-15+0066SBJP V0201401N003112200019N0112651N1+02601+02201999999ADDGA1041+006001999GF104991999999999999999999MA1101081999999REMMET051METAR SBJP 132200Z 14006KT 9999 SCT020 26/22 Q1011;
0120827980999992011011323004-07100-034867FM-15+0066SBJP V0201301N002112200019N0112651N1+02501+02101999999ADDGA1041+006001999GF104991999999999999999999MA1101081999999REMMET051METAR SBJP 132300Z 13004KT 9999 SCT020 25/21 Q1011;
0120827980999992011011400004-07100-034867FM-15+0066SBJP V0201401N001512200019N0112651N1+02501+02101999999ADDGA1041+006001999GF104991999999999999999999MA1101191999999REMMET051METAR SBJP 140000Z 14003KT 9999 SCT020 25/21 Q1012;
0120827980999992011011401004-07100-034867FM-15+0066SBJP V0201601N002112200019N0112651N1+02501+02201999999ADDGA1041+006001999GF104991999999999999999999MA1101081999999REMMET051METAR SBJP 140100Z 16004KT 9999 SCT020 25/22 Q1011;
0120827980999992011011402004-07100-034867FM-15+0066SBJP V0201801N001512200019N0112651N1+02501+02201999999ADDGA1041+006001999GF104991999999999999999999MA1101081999999REMMET051METAR SBJP 140200Z 18003KT 9999 SCT020 25/22 Q1011;
0143827980999992011011403004-07100-034867FM-15+0066SBJP V0201201N001012200019N0112651N1+02501+02201999999ADDGA1041+006001999GA2041+021001999GF104991999999999999999999MA1101081999999REMMET058METAR SBJP 140300Z 12002KT 9999 SCT020 SCT070 25/22 Q1011;
0143827980999992011011404004-07100-034867FM-15+0066SBJP V0202401N001012200019N0112651N1+02401+02201999999ADDGA1041+006001999GA2041+021001999GF104991999999999999999999MA1101021999999REMMET058METAR SBJP 140400Z 24002KT 9999 SCT020 SCT070 24/22 Q1010;
0120827980999992011011405004-07100-034867FM-15+0066SBJP V0202501N001012200019N0112651N1+02401+02201999999ADDGA1041+006001999GF104991999999999999999999MA1101021999999REMMET051METAR SBJP 140500Z 25002KT 9999 SCT020 24/22 Q1010;
0120827980999992011011406004-07100-034867FM-15+0066SBJP V0202501N001012200019N0112651N1+02401+02201999999ADDGA1041+006001999GF104991999999999999999999MA1101021999999REMMET051METAR SBJP 140600Z 25002KT 9999 SCT020 24/22 Q1010;
0120827980999992011011407004-07100-034867FM-15+0066SBJP V0202401N001012200019N0112651N1+02401+02201999999ADDGA1041+006001999GF104991999999999999999999MA1101021999999REMMET051METAR SBJP 140700Z 24002KT 9999 SCT020 24/22 Q1010;
0120827980999992011011408004-07100-034867FM-15+0066SBJP V0202301N002112200019N0112651N1+02401+02201999999ADDGA1041+006001999GF104991999999999999999999MA1101021999999REMMET051METAR SBJP 140800Z 23004KT 9999 SCT020 24/22 Q1010;
0120827980999992011011409004-07100-034867FM-15+0066SBJP V0202201N002112200019N0112651N1+02401+02301999999ADDGA1041+006001999GF104991999999999999999999MA1101081999999REMMET051METAR SBJP 140900Z 22004KT 9999 SCT020 24/23 Q1011;
0120827980999992011011410004-07100-034867FM-15+0066SBJP V0201901N002112200019N0112651N1+02601+02201999999ADDGA1021+007501999GF102991999999999999999999MA1101081999999REMMET051METAR SBJP 141000Z 19004KT 9999 FEW025 26/22 Q1011;
0128827980999992011011411004-07100-034867FM-15+0066SBJP V0201501N003110075019N0112651N1+02801+02201999999ADDGA1071+007501999GF107991999999999999999999MA1101081999999REMMET059METAR SBJP 141100Z 15006KT 110V190 9999 BKN025 28/22 Q1011;
0120827980999992011011412004-07100-034867FM-15+0066SBJP V0201501N004110075019N0112651N1+02901+02101999999ADDGA1071+007501999GF107991999999999999999999MA1101081999999REMMET051METAR SBJP 141200Z 15008KT 9999 BKN025 29/21 Q1011;
0120827980999992011011413004-07100-034867FM-15+0066SBJP V0201501N005710075019N0112651N1+03001+02001999999ADDGA1071+007501999GF107991999999999999999999MA1101081999999REMMET051METAR SBJP 141300Z 15011KT 9999 BKN025 30/20 Q1011;
0151827980999992011011414004-07100-034867FM-15+0066SBJP V0201601N004110090019N0112651N1+03001+02101999999ADDGA1071+009001999GA2071+027001999GF107991999999999999999999MA1101081999999REMMET066METAR SBJP 141400Z 16008KT 120V200 9999 BKN030 BKN090 30/21 Q1011;
0143827980999992011011415004-07100-034867FM-15+0066SBJP V0201801N008710090019N0112651N1+02801+02201999999ADDGA1071+009001999GA2071+021001999GF107991999999999999999999MA1101021999999REMMET058METAR SBJP 141500Z 18017KT 9999 BKN030 BKN070 28/22 Q1010;
0143827980999992011011416004-07100-034867FM-15+0066SBJP V0201701N006210210019N0112651N1+02901+01901999999ADDGA1041+009001999GA2071+021001999GF107991999999999999999999MA1100911999999REMMET058METAR SBJP 141600Z 17012KT 9999 SCT030 BKN070 29/19 Q1009;
0143827980999992011011417004-07100-034867FM-15+0066SBJP V0201701N006210210019N0112651N1+03001+02101999999ADDGA1041+009001999GA2071+021001999GF107991999999999999999999MA1100811999999REMMET058METAR SBJP 141700Z 17012KT 9999 SCT030 BKN070 30/21 Q1008;
0143827980999992011011418004-07100-034867FM-15+0066SBJP V0201401N005710210019N0112651N1+02901+02101999999ADDGA1041+007501999GA2071+021001999GF107991999999999999999999MA1100811999999REMMET058METAR SBJP 141800Z 14011KT 9999 SCT025 BKN070 29/21 Q1008;
0143827980999992011011419004-07100-034867FM-15+0066SBJP V0201601N006210210019N0112651N1+02801+02201999999ADDGA1041+007501999GA2071+021001999GF107991999999999999999999MA1100811999999REMMET058METAR SBJP 141900Z 16012KT 9999 SCT025 BKN070 28/22 Q1008;
0143827980999992011011420004-07100-034867FM-15+0066SBJP V0201601N005112200019N0112651N1+02701+02201999999ADDGA1021+007501999GA2041+021001999GF104991999999999999999999MA1100911999999REMMET058METAR SBJP 142000Z 16010KT 9999 FEW025 SCT070 27/22 Q1009;
0143827980999992011011421004-07100-034867FM-15+0066SBJP V0201301N003612200019N0112651N1+02601+02201999999ADDGA1021+007501999GA2041+021001999GF104991999999999999999999MA1100911999999REMMET058METAR SBJP 142100Z 13007KT 9999 FEW025 SCT070 26/22 Q1009;
0143827980999992011011422004-07100-034867FM-15+0066SBJP V0201301N003112200019N0112651N1+02601+02201999999ADDGA1021+007501999GA2041+021001999GF104991999999999999999999MA1101021999999REMMET058METAR SBJP 142200Z 13006KT 9999 FEW025 SCT070 26/22 Q1010;
0143827980999992011011423004-07100-034867FM-15+0066SBJP V0201401N003112200019N0112651N1+02701+02201999999ADDGA1021+007501999GA2041+021001999GF104991999999999999999999MA1101021999999REMMET058METAR SBJP 142300Z 14006KT 9999 FEW025 SCT070 27/22 Q1010;
0143827980999992011011500004-07100-034867FM-15+0066SBJP V0201501N002112200019N0112651N1+02601+02201999999ADDGA1021+006001999GA2041+027001999GF104991999999999999999999MA1101021999999REMMET058METAR SBJP 150000Z 15004KT 9999 FEW020 SCT090 26/22 Q1010;
0143827980999992011011501004-07100-034867FM-15+0066SBJP V0201601N004112200019N0112651N1+02601+02201999999ADDGA1021+006001999GA2041+027001999GF104991999999999999999999MA1101021999999REMMET058METAR SBJP 150100Z 16008KT 9999 FEW020 SCT090 26/22 Q1010;
0143827980999992011011502004-07100-034867FM-15+0066SBJP V0201701N003112200019N0112651N1+02501+02101999999ADDGA1021+006001999GA2041+027001999GF104991999999999999999999MA1101021999999REMMET058METAR SBJP 150200Z 17006KT 9999 FEW020 SCT090 25/21 Q1010;
0143827980999992011011503004-07100-034867FM-15+0066SBJP V0201601N002612200019N0112651N1+02401+02101999999ADDGA1021+006001999GA2041+027001999GF104991999999999999999999MA1100911999999REMMET058METAR SBJP 150300Z 16005KT 9999 FEW020 SCT090 24/21 Q1009;
0143827980999992011011504004-07100-034867FM-15+0066SBJP V0201501N002110210019N0112651N1+02501+02101999999ADDGA1041+006001999GA2071+021001999GF107991999999999999999999MA1100911999999REMMET058METAR SBJP 150400Z 15004KT 9999 SCT020 BKN070 25/21 Q1009;
0143827980999992011011505004-07100-034867FM-15+0066SBJP V0202301N002110210019N0112651N1+02401+02101999999ADDGA1021+006001999GA2071+021001999GF107991999999999999999999MA1100811999999REMMET058METAR SBJP 150500Z 23004KT 9999 FEW020 BKN070 24/21 Q1008;
0143827980999992011011506004-07100-034867FM-15+0066SBJP V0202301N002110210019N0112651N1+02401+02101999999ADDGA1021+006001999GA2071+021001999GF107991999999999999999999MA1100811999999REMMET058METAR SBJP 150600Z 23004KT 9999 FEW020 BKN070 24/21 Q1008;
0143827980999992011011507004-07100-034867FM-15+0066SBJP V0202201N001512200019N0112651N1+02401+02201999999ADDGA1021+006001999GA2041+021001999GF104991999999999999999999MA1100911999999REMMET058METAR SBJP 150700Z 22003KT 9999 FEW020 SCT070 24/22 Q1009;
0120827980999992011011508004-07100-034867FM-15+0066SBJP V0202001N002110060019N0112651N1+02401+02201999999ADDGA1071+006001999GF107991999999999999999999MA1100911999999REMMET051METAR SBJP 150800Z 20004KT 9999 BKN020 24/22 Q1009;
0143827980999992011011509004-07100-034867FM-15+0066SBJP V0202201N003112200019N0112651N1+02401+02201999999ADDGA1021+006001999GA2041+024001999GF104991999999999999999999MA1101021999999REMMET058METAR SBJP 150900Z 22006KT 9999 FEW020 SCT080 24/22 Q1010;
0120827980999992011011510004-07100-034867FM-15+0066SBJP V0202101N004112200019N0112651N1+02601+02201999999ADDGA1021+006001999GF102991999999999999999999MA1101021999999REMMET051METAR SBJP 151000Z 21008KT 9999 FEW020 26/22 Q1010;
0120827980999992011011511004-07100-034867FM-15+0066SBJP V0201801N003612200019N0112651N1+02801+02201999999ADDGA1041+006001999GF104991999999999999999999MA1101081999999REMMET051METAR SBJP 151100Z 18007KT 9999 SCT020 28/22 Q1011;
0120827980999992011011512004-07100-034867FM-15+0066SBJP V0201801N004112200019N0112651N1+02901+02201999999ADDGA1041+007501999GF104991999999999999999999MA1101081999999REMMET051METAR SBJP 151200Z 18008KT 9999 SCT025 29/22 Q1011;
0120827980999992011011513004-07100-034867FM-15+0066SBJP V0201301N004112200019N0112651N1+03001+02101999999ADDGA1041+007501999GF104991999999999999999999MA1101081999999REMMET051METAR SBJP 151300Z 13008KT 9999 SCT025 30/21 Q1011;
0120827980999992011011514004-07100-034867FM-15+0066SBJP V0201101N004612200019N0112651N1+03001+02101999999ADDGA1041+009001999GF104991999999999999999999MA1101021999999REMMET051METAR SBJP 151400Z 11009KT 9999 SCT030 30/21 Q1010;
0120827980999992011011515004-07100-034867FM-15+0066SBJP V0201501N003612200019N0112651N1+03101+02001999999ADDGA1041+009001999GF104991999999999999999999MA1101021999999REMMET051METAR SBJP 151500Z 15007KT 9999 SCT030 31/20 Q1010;
0120827980999992011011516004-07100-034867FM-15+0066SBJP V0201201N004612200019N0112651N1+03001+02101999999ADDGA1041+009001999GF104991999999999999999999MA1100911999999REMMET051METAR SBJP 151600Z 12009KT 9999 SCT030 30/21 Q1009;
0120827980999992011011517004-07100-034867FM-15+0066SBJP V0201101N005112200019N0112651N1+03001+02101999999ADDGA1041+009001999GF104991999999999999999999MA1100811999999REMMET051METAR SBJP 151700Z 11010KT 9999 SCT030 30/21 Q1008;
0120827980999992011011518004-07100-034867FM-15+0066SBJP V0201101N005712200019N0112651N1+03001+02101999999ADDGA1041+009001999GF104991999999999999999999MA1100711999999REMMET051METAR SBJP 151800Z 11011KT 9999 SCT030 30/21 Q1007;
0120827980999992011011519004-07100-034867FM-15+0066SBJP V0201101N005112200019N0112651N1+02901+02101999999ADDGA1021+009001999GF102991999999999999999999MA1100811999999REMMET051METAR SBJP 151900Z 11010KT 9999 FEW030 29/21 Q1008;
0120827980999992011011520004-07100-034867FM-15+0066SBJP V0201101N004612200019N0112651N1+02901+02101999999ADDGA1021+006001999GF102991999999999999999999MA1100811999999REMMET051METAR SBJP 152000Z 11009KT 9999 FEW020 29/21 Q1008;
0120827980999992011011521004-07100-034867FM-15+0066SBJP V0201201N004112200019N0112651N1+02701+02201999999ADDGA1021+006001999GF102991999999999999999999MA1100911999999REMMET051METAR SBJP 152100Z 12008KT 9999 FEW020 27/22 Q1009;
0120827980999992011011522004-07100-034867FM-15+0066SBJP V0201401N003612200019N0112651N1+02701+02201999999ADDGA1021+006001999GF102991999999999999999999MA1100911999999REMMET051METAR SBJP 152200Z 14007KT 9999 FEW020 27/22 Q1009;
0072827980999992011011523004-07100-034867FM-15+0066SBJP V0201201N002619999999Y0099001N1+02701+02201999999ADDMA1101021999999REMMET045METAR SBJP 152300Z 12005KT CAVOK 27/22 Q1010;
0120827980999992011011600004-07100-034867FM-15+0066SBJP V0201301N001512200019N0112651N1+02601+02201999999ADDGA1021+006001999GF102991999999999999999999MA1101021999999REMMET051METAR SBJP 160000Z 13003KT 9999 FEW020 26/22 Q1010;
0120827980999992011011601004-07100-034867FM-15+0066SBJP V0201301N001512200019N0112651N1+02501+02201999999ADDGA1021+006001999GF102991999999999999999999MA1101021999999REMMET051METAR SBJP 160100Z 13003KT 9999 FEW020 25/22 Q1010;
0120827980999992011011602004-07100-034867FM-15+0066SBJP V0201801N001512200019N0112651N1+02501+02201999999ADDGA1041+006001999GF104991999999999999999999MA1100911999999REMMET051METAR SBJP 160200Z 18003KT 9999 SCT020 25/22 Q1009;
0143827980999992011011603004-07100-034867FM-15+0066SBJP V0209999C000012200019N0112651N1+02501+02201999999ADDGA1041+006001999GA2041+021001999GF104991999999999999999999MA1100911999999REMMET058METAR SBJP 160300Z 00000KT 9999 SCT020 SCT070 25/22 Q1009;
0120827980999992011011604004-07100-034867FM-15+0066SBJP V0209999C000012200019N0112651N1+02501+02201999999ADDGA1041+006001999GF104991999999999999999999MA1100811999999REMMET051METAR SBJP 160400Z 00000KT 9999 SCT020 25/22 Q1008;
0120827980999992011011605004-07100-034867FM-15+0066SBJP V0202801N001012200019N0112651N1+02401+02201999999ADDGA1041+006001999GF104991999999999999999999MA1100811999999REMMET051METAR SBJP 160500Z 28002KT 9999 SCT020 24/22 Q1008;
0120827980999992011011606004-07100-034867FM-15+0066SBJP V0209999C000012200019N0112651N1+02401+02201999999ADDGA1041+006001999GF104991999999999999999999MA1100911999999REMMET051METAR SBJP 160600Z 00000KT 9999 SCT020 24/22 Q1009;
0120827980999992011011607004-07100-034867FM-15+0066SBJP V0202601N001512200019N0112651N1+02401+02201999999ADDGA1041+006001999GF104991999999999999999999MA1100911999999REMMET051METAR SBJP 160700Z 26003KT 9999 SCT020 24/22 Q1009;
0120827980999992011011608004-07100-034867FM-15+0066SBJP V0202501N001512200019N0112651N1+02401+02201999999ADDGA1041+006001999GF104991999999999999999999MA1101021999999REMMET051METAR SBJP 160800Z 25003KT 9999 SCT020 24/22 Q1010;
0120827980999992011011609004-07100-034867FM-15+0066SBJP V0202401N002112200019N0112651N1+02401+02201999999ADDGA1041+006001999GF104991999999999999999999MA1101081999999REMMET051METAR SBJP 160900Z 24004KT 9999 SCT020 24/22 Q1011;
0120827980999992011011610004-07100-034867FM-15+0066SBJP V0202201N001512200019N0112651N1+02501+02301999999ADDGA1041+009001999GF104991999999999999999999MA1101081999999REMMET051METAR SBJP 161000Z 22003KT 9999 SCT030 25/23 Q1011;
0120827980999992011011611004-07100-034867FM-15+0066SBJP V0200801N002112200019N0112651N1+02801+02301999999ADDGA1041+007501999GF104991999999999999999999MA1101191999999REMMET051METAR SBJP 161100Z 08004KT 9999 SCT025 28/23 Q1012;
0120827980999992011011612004-07100-034867FM-15+0066SBJP V0201001N003612200019N0112651N1+02901+02101999999ADDGA1041+009001999GF104991999999999999999999MA1101191999999REMMET051METAR SBJP 161200Z 10007KT 9999 SCT030 29/21 Q1012;
0120827980999992011011613004-07100-034867FM-15+0066SBJP V0200901N005112200019N0112651N1+03001+02101999999ADDGA1041+009001999GF104991999999999999999999MA1101081999999REMMET051METAR SBJP 161300Z 09010KT 9999 SCT030 30/21 Q1011;
0120827980999992011011614004-07100-034867FM-15+0066SBJP V0201101N005110090019N0112651N1+03101+02101999999ADDGA1071+009001999GF107991999999999999999999MA1101081999999REMMET051METAR SBJP 161400Z 11010KT 9999 BKN030 31/21 Q1011;
0120827980999992011011615004-07100-034867FM-15+0066SBJP V0201101N004610090019N0112651N1+03101+02101999999ADDGA1071+009001999GF107991999999999999999999MA1101021999999REMMET051METAR SBJP 161500Z 11009KT 9999 BKN030 31/21 Q1010;
0120827980999992011011616004-07100-034867FM-15+0066SBJP V0201401N005710090019N0112651N1+03101+02101999999ADDGA1071+009001999GF107991999999999999999999MA1100911999999REMMET051METAR SBJP 161600Z 14011KT 9999 BKN030 31/21 Q1009;
0120827980999992011011617004-07100-034867FM-15+0066SBJP V0201401N005110090019N0112651N1+03001+02101999999ADDGA1071+009001999GF107991999999999999999999MA1100911999999REMMET051METAR SBJP 161700Z 14010KT 9999 BKN030 30/21 Q1009;
0120827980999992011011618004-07100-034867FM-15+0066SBJP V0201401N005712200019N0112651N1+03001+02101999999ADDGA1041+009001999GF104991999999999999999999MA1100811999999REMMET051METAR SBJP 161800Z 14011KT 9999 SCT030 30/21 Q1008;
0120827980999992011011619004-07100-034867FM-15+0066SBJP V0201301N005712200019N0112651N1+03001+02201999999ADDGA1041+009001999GF104991999999999999999999MA1100911999999REMMET051METAR SBJP 161900Z 13011KT 9999 SCT030 30/22 Q1009;
0120827980999992011011620004-07100-034867FM-15+0066SBJP V0201401N005712200019N0112651N1+02901+02201999999ADDGA1021+009001999GF102991999999999999999999MA1101021999999REMMET051METAR SBJP 162000Z 14011KT 9999 FEW030 29/22 Q1010;
0072827980999992011011621004-07100-034867FM-15+0066SBJP V0201401N004619999999Y0099001N1+02801+02201999999ADDMA1101021999999REMMET045METAR SBJP 162100Z 14009KT CAVOK 28/22 Q1010;
0072827980999992011011622004-07100-034867FM-15+0066SBJP V0201401N003619999999Y0099001N1+02701+02201999999ADDMA1101021999999REMMET045METAR SBJP 162200Z 14007KT CAVOK 27/22 Q1010;
0072827980999992011011623004-07100-034867FM-15+0066SBJP V0201301N003619999999Y0099001N1+02701+02301999999ADDMA1101081999999REMMET045METAR SBJP 162300Z 13007KT CAVOK 27/23 Q1011;
0072827980999992011011700004-07100-034867FM-15+0066SBJP V0201301N001519999999Y0099001N1+02701+02301999999ADDMA1101191999999REMMET045METAR SBJP 170000Z 13003KT CAVOK 27/23 Q1012;
0120827980999992011011701004-07100-034867FM-15+0066SBJP V0201201N001512200019N0112651N1+02701+02301999999ADDGA1041+005401999GF104991999999999999999999MA1101191999999REMMET051METAR SBJP 170100Z 12003KT 9999 SCT018 27/23 Q1012;
0120827980999992011011702004-07100-034867FM-15+0066SBJP V0201301N001512200019N0112651N1+02601+02201999999ADDGA1041+005401999GF104991999999999999999999MA1101081999999REMMET051METAR SBJP 170200Z 13003KT 9999 SCT018 26/22 Q1011;
0120827980999992011011703004-07100-034867FM-15+0066SBJP V0201701N002612200019N0112651N1+02601+02301999999ADDGA1041+006001999GF104991999999999999999999MA1101081999999REMMET051METAR SBJP 170300Z 17005KT 9999 SCT020 26/23 Q1011;
0120827980999992011011704004-07100-034867FM-15+0066SBJP V0201801N001512200019N0112651N1+02501+02201999999ADDGA1021+006001999GF102991999999999999999999MA1101021999999REMMET051METAR SBJP 170400Z 18003KT 9999 FEW020 25/22 Q1010;
0120827980999992011011705004-07100-034867FM-15+0066SBJP V0201601N001512200019N0112651N1+02501+02301999999ADDGA1021+006001999GF102991999999999999999999MA1100911999999REMMET051METAR SBJP 170500Z 16003KT 9999 FEW020 25/23 Q1009;
0120827980999992011011706004-07100-034867FM-15+0066SBJP V0202001N001512200019N0112651N1+02501+02201999999ADDGA1021+006001999GF102991999999999999999999MA1101021999999REMMET051METAR SBJP 170600Z 20003KT 9999 FEW020 25/22 Q1010;
0120827980999992011011707004-07100-034867FM-15+0066SBJP V0202201N001012200019N0112651N1+02401+02201999999ADDGA1021+006001999GF102991999999999999999999MA1101021999999REMMET051METAR SBJP 170700Z 22002KT 9999 FEW020 24/22 Q1010;
0143827980999992011011708004-07100-034867FM-15+0066SBJP V0202101N002110210019N0112651N1+02401+02201999999ADDGA1041+006001999GA2071+021001999GF107991999999999999999999MA1101021999999REMMET058METAR SBJP 170800Z 21004KT 9999 SCT020 BKN070 24/22 Q1010;
0143827980999992011011709004-07100-034867FM-15+0066SBJP V0202201N002610210019N0112651N1+02401+02201999999ADDGA1041+006001999GA2071+021001999GF107991999999999999999999MA1101081999999REMMET058METAR SBJP 170900Z 22005KT 9999 SCT020 BKN070 24/22 Q1011;
0120827980999992011011710004-07100-034867FM-15+0066SBJP V0202201N002610060019N0112651N1+02501+02301999999ADDGA1071+006001999GF107991999999999999999999MA1101191999999REMMET051METAR SBJP 171000Z 22005KT 9999 BKN020 25/23 Q1012;
0120827980999992011011711004-07100-034867FM-15+0066SBJP V0202101N002112200019N0112651N1+02801+02401999999ADDGA1041+007501999GF104991999999999999999999MA1101291999999REMMET051METAR SBJP 171100Z 21004KT 9999 SCT025 28/24 Q1013;
0120827980999992011011712004-07100-034867FM-15+0066SBJP V0201501N004110090019N0112651N1+02901+02201999999ADDGA1071+009001999GF107991999999999999999999MA1101191999999REMMET051METAR SBJP 171200Z 15008KT 9999 BKN030 29/22 Q1012;
0120827980999992011011713004-07100-034867FM-15+0066SBJP V0201501N005710090019N0112651N1+03001+02201999999ADDGA1071+009001999GF107991999999999999999999MA1101191999999REMMET051METAR SBJP 171300Z 15011KT 9999 BKN030 30/22 Q1012;
0120827980999992011011714004-07100-034867FM-15+0066SBJP V0201401N005710090019N0112651N1+03001+02101999999ADDGA1071+009001999GF107991999999999999999999MA1101191999999REMMET051METAR SBJP 171400Z 14011KT 9999 BKN030 30/21 Q1012;
0120827980999992011011715004-07100-034867FM-15+0066SBJP V0201401N005110090019N0112651N1+03101+02101999999ADDGA1071+009001999GF107991999999999999999999MA1101191999999REMMET051METAR SBJP 171500Z 14010KT 9999 BKN030 31/21 Q1012;
0120827980999992011011716004-07100-034867FM-15+0066SBJP V0201401N005712200019N0112651N1+03001+02201999999ADDGA1041+009001999GF104991999999999999999999MA1101081999999REMMET051METAR SBJP 171600Z 14011KT 9999 SCT030 30/22 Q1011;
0120827980999992011011717004-07100-034867FM-15+0066SBJP V0201301N006212200019N0112651N1+03001+02201999999ADDGA1041+009001999GF104991999999999999999999MA1101021999999REMMET051METAR SBJP 171700Z 13012KT 9999 SCT030 30/22 Q1010;
0120827980999992011011718004-07100-034867FM-15+0066SBJP V0201201N006210090019N0112651N1+03001+02201999999ADDGA1071+009001999GF107991999999999999999999MA1101021999999REMMET051METAR SBJP 171800Z 12012KT 9999 BKN030 30/22 Q1010;
0120827980999992011011719004-07100-034867FM-15+0066SBJP V0201501N006710090019N0112651N1+03001+02201999999ADDGA1071+009001999GF107991999999999999999999MA1101021999999REMMET051METAR SBJP 171900Z 15013KT 9999 BKN030 30/22 Q1010;
0120827980999992011011720004-07100-034867FM-15+0066SBJP V0201401N004612200019N0112651N1+02901+02301999999ADDGA1041+009001999GF104991999999999999999999MA1101021999999REMMET051METAR SBJP 172000Z 14009KT 9999 SCT030 29/23 Q1010;
0120827980999992011011721004-07100-034867FM-15+0066SBJP V0201501N006212200019N0112651N1+02801+02201999999ADDGA1041+007501999GF104991999999999999999999MA1101021999999REMMET051METAR SBJP 172100Z 15012KT 9999 SCT025 28/22 Q1010;
0120827980999992011011722004-07100-034867FM-15+0066SBJP V0201601N004112200019N0112651N1+02701+02201999999ADDGA1041+007501999GF104991999999999999999999MA1101081999999REMMET051METAR SBJP 172200Z 16008KT 9999 SCT025 27/22 Q1011;
0120827980999992011011723004-07100-034867FM-15+0066SBJP V0201601N003612200019N0112651N1+02601+02201999999ADDGA1041+006001999GF104991999999999999999999MA1101191999999REMMET051METAR SBJP 172300Z 16007KT 9999 SCT020 26/22 Q1012;
0120827980999992011011800004-07100-034867FM-15+0066SBJP V0201701N001512200019N0112651N1+02601+02201999999ADDGA1021+006001999GF102991999999999999999999MA1101191999999REMMET051METAR SBJP 180000Z 17003KT 9999 FEW020 26/22 Q1012;
0120827980999992011011801004-07100-034867FM-15+0066SBJP V0201801N001512200019N0112651N1+02501+02201999999ADDGA1041+006001999GF104991999999999999999999MA1101191999999REMMET051METAR SBJP 180100Z 18003KT 9999 SCT020 25/22 Q1012;
0120827980999992011011802004-07100-034867FM-15+0066SBJP V0201901N002112200019N0112651N1+02501+02201999999ADDGA1021+006001999GF102991999999999999999999MA1101081999999REMMET051METAR SBJP 180200Z 19004KT 9999 FEW020 25/22 Q1011;
0143827980999992011011803004-07100-034867FM-15+0066SBJP V0202201N002112200019N0112651N1+02501+02201999999ADDGA1021+006001999GA2041+021001999GF104991999999999999999999MA1101021999999REMMET058METAR SBJP 180300Z 22004KT 9999 FEW020 SCT070 25/22 Q1010;
0120827980999992011011804004-07100-034867FM-15+0066SBJP V0201901N002612200019N0112651N1+02401+02201999999ADDGA1021+006001999GF102991999999999999999999MA1101021999999REMMET051METAR SBJP 180400Z 19005KT 9999 FEW020 24/22 Q1010;
0072827980999992011011805004-07100-034867FM-15+0066SBJP V0202101N002119999999Y0099001N1+02401+02201999999ADDMA1100911999999REMMET045METAR SBJP 180500Z 21004KT CAVOK 24/22 Q1009;
0120827980999992011011806004-07100-034867FM-15+0066SBJP V0202101N002112200019N0112651N1+02401+02101999999ADDGA1021+006001999GF102991999999999999999999MA1100911999999REMMET051METAR SBJP 180600Z 21004KT 9999 FEW020 24/21 Q1009;
0120827980999992011011807004-07100-034867FM-15+0066SBJP V0202201N002612200019N0112651N1+02301+02101999999ADDGA1021+006001999GF102991999999999999999999MA1100911999999REMMET051METAR SBJP 180700Z 22005KT 9999 FEW020 23/21 Q1009;
0120827980999992011011808004-07100-034867FM-15+0066SBJP V0202101N001512200019N0112651N1+02301+02101999999ADDGA1041+006001999GF104991999999999999999999MA1101021999999REMMET051METAR SBJP 180800Z 21003KT 9999 SCT020 23/21 Q1010;
0120827980999992011011809004-07100-034867FM-15+0066SBJP V0202401N002612200019N0112651N1+02401+02201999999ADDGA1041+006001999GF104991999999999999999999MA1101021999999REMMET051METAR SBJP 180900Z 24005KT 9999 SCT020 24/22 Q1010;
0120827980999992011011810004-07100-034867FM-15+0066SBJP V0202101N002612200019N0112651N1+02601+02201999999ADDGA1041+006001999GF104991999999999999999999MA1101081999999REMMET051METAR SBJP 181000Z 21005KT 9999 SCT020 26/22 Q1011;
0120827980999992011011811004-07100-034867FM-15+0066SBJP V0202101N002612200019N0112651N1+02901+02201999999ADDGA1041+006001999GF104991999999999999999999MA1101191999999REMMET051METAR SBJP 181100Z 21005KT 9999 SCT020 29/22 Q1012;
0120827980999992011011812004-07100-034867FM-15+0066SBJP V0201201N003610075019N0112651N1+03001+02201999999ADDGA1071+007501999GF107991999999999999999999MA1101191999999REMMET051METAR SBJP 181200Z 12007KT 9999 BKN025 30/22 Q1012;
0120827980999992011011813004-07100-034867FM-15+0066SBJP V0201401N003110090019N0112651N1+03001+02201999999ADDGA1071+009001999GF107991999999999999999999MA1101081999999REMMET051METAR SBJP 181300Z 14006KT 9999 BKN030 30/22 Q1011;
0120827980999992011011814004-07100-034867FM-15+0066SBJP V0201501N004610090019N0112651N1+03001+02101999999ADDGA1071+009001999GF107991999999999999999999MA1101081999999REMMET051METAR SBJP 181400Z 15009KT 9999 BKN030 30/21 Q1011;
0120827980999992011011815004-07100-034867FM-15+0066SBJP V0201201N004610090019N0112651N1+03101+02101999999ADDGA1071+009001999GF107991999999999999999999MA1101021999999REMMET051METAR SBJP 181500Z 12009KT 9999 BKN030 31/21 Q1010;
0120827980999992011011816004-07100-034867FM-15+0066SBJP V0201501N005710090019N0112651N1+03101+02101999999ADDGA1071+009001999GF107991999999999999999999MA1101021999999REMMET051METAR SBJP 181600Z 15011KT 9999 BKN030 31/21 Q1010;
