0170821980999991985012106004-01683-045367FM-12+000899999V0203201N00261006301CN0500001N9-02001-02261102261ADDAA199999929AG10999AY101061GA1071+006309059GF107991071051008001001001KA1240M-01931MA1999999101631MD1210161+9999MW1021REMSYN023333   11193 6990/ 87621EQDQ01+999990APOSP 
0135821980999991985030912004-01683-045367FM-12+000899999V0200501N00261045001CN0100001N9+02801+02481100741ADDAA124009091AG10999AY161061GF105991031021008001061001KA1240N+02391MA1999999100221MD1999999-0031MW1021REMSYN023333   20239 59003 60094
0116821980999991985030918004-01683-045367FM-12+000899999V0200501N00411045001CN0040001N9+02541+02421100541ADDAA106011091AG10999AY161061GF108991031051008001021999MA1999999100031MD1999999+0151MW1021REMSYN017333   58015 60111
0135821980999991985031000004-01683-045367FM-12+000899999V0202701N01231999999CN0040001N9+02401+02381100801ADDAA106003091AG10999AY161061GF106991061001012501061001KA1240M+02941MA1999999100281MD1999999+0011MW1011REMSYN023333   10294 58001 60031
0135821980999991985031012004-01683-045367FM-12+000899999V0202701N00051105001CN0100001N9+02621+02521100971ADDAA124015091AG10999AY161061GF105991021021008001041041KA1240N+02221MA1999999100451MD1999999+0231MW1021REMSYN023333   20222 58023 60154
0127821980999991985031018004-01683-045367FM-12+000899999V0200501N00461045001CN0200001N9+02841+02381100641ADDAA106000291AA299000391AG10999AY151061GF108991041051012501061999MA1999999100131MD1999999+0101MW1021REMSYN017333   58010 69921
0135821980999991985031112004-01683-045367FM-12+000899999V0200501N00311220001CN0100001N9+02801+02481100901ADDAA124000391AG10999AY161061GF104991011021008001031011KA1240N+02351MA1999999100381MD1999999-0071MW1031REMSYN023333   20235 59007 69934
0116821980999991985031118004-01683-045367FM-12+000899999V0200501N00511012001CN0100001N9+02981+02371100541ADDAA106001091AG10999AY161061GF105991051021012501001001MA1999999100031MD1999999-0101MW1021REMSYN017333   59010 60011
0135821980999991985031212004-01683-045367FM-12+000899999V0200501N00151007501CN0100001N9+02371+02331100921ADDAA124011091AG10999AY161061GF107991071051008001001001KA1240N+02251MA1999999100401MD1999999+0021MW1021REMSYN023333   20225 58002 60114
0116821980999991985031218004-01683-045367FM-12+000899999V0200501N00361045001CN0100001N9+02601+02351100561ADDAA106002091AG10999AY161061GF108991041051012501041021MA1999999100051MD1999999+0021MW1021REMSYN017333   58002 60021
0135821980999991985031300004-01683-045367FM-12+000899999V0203601N00211220001CN0040001N9+02401+02331100711ADDAA106003091AG10999AY161061GF103991031001008001061001KA1240M+02821MA1999999100201MD1999999-0091MW1011REMSYN023333   10282 59009 60031
0135821980999991985031312004-01683-045367FM-12+000899999V0209991C00001045001CN0100001N9+02461+02431100851ADDAA124007091AG10999AY161061GF106991021021008001061011KA1240N+02241MA1999999100331MD1999999-0071MW1031REMSYN023333   20224 59007 60074
0116821980999991985031318004-01683-045367FM-12+000899999V0200501N00211045001CN0100001N9+02481+02411100581ADDAA106005091AG10999AY161061GF108991041051012501041999MA1999999100071MD1999999+0021MW1021REMSYN017333   58002 60051
0135821980999991985031400004-01683-045367FM-12+000899999V0200501N00051045001CN0100001N9+02391+02311100801ADDAA106000191AG10999AY151061GF106991041021012501061001KA1240M+02761MA1999999100291MD1999999+0091MW1021REMSYN023333   10276 58009 69911
0135821980999991985031412004-01683-045367FM-12+000899999V0202301N00101012001CN0040001N9+02661+02461100941ADDAA124007091AG10999AY161061GF108991061071012501021999KA1240N+02291MA1999999100421MD1999999+0091MW1921REMSYN023333   20229 58009 60074
0116821980999991985031418004-01683-045367FM-12+000899999V0200901N00311220001CN0100001N9+02411+02301100631ADDAA124016091AG10999AY161061GF104991041071012501011999MA1999999100121MD1999999+0051MW1021REMSYN017333   58005 60164
0116821980999991985031518004-01683-045367FM-12+000899999V0200501N00511045001CN0100001N9+02641+02331100711ADDAA106000191AG10999AY151061GF106991021081012501031021MA1999999100201MD1999999+0081MW1021REMSYN017333   58008 69911
0135821980999991985031600004-01683-045367FM-12+000899999V0200901N00261045001CN0040001N9+02441+02351100881ADDAA106001091AG10999AY161061GF106991031051012501061001KA1240M+02751MA1999999100471MD1999999+0161MW1021REMSYN023333   10275 58016 60011
0135821980999991985031612004-01683-045367FM-12+000899999V0202301N00211220001CN0100001N9+02501+02451101011ADDAA124001091AG10999AY101061GF104991011021008001041041KA1240N+02261MA1999999100491MD1999999-0061MW1021REMSYN023333   20226 59006 60014
0116821980999991985031618004-01683-045367FM-12+000899999V0200501N00361012001CN0100001N9+02821+02271100741ADDAA106009091AG10999AY161061GF108991051021012501031999MA1999999100231MD1999999+0031MW1021REMSYN017333   58003 60091
0129821980999991985031700004-01683-045367FM-12+000899999V0200501N00151045001CN0040001N9+02511+02401100961ADDAA106000091AG10999AY101061GF106991031021012501041001KA1240M+02891MA1999999100451MD1999999-0021MW1021REMSYN017333   10289 59002
0135821980999991985031712004-01683-045367FM-12+000899999V0209991C00001007501CN0100001N9+02501+02391101071ADDAA124013091AG10999AY161061GF107991051071008001021001KA1240N+02371MA1999999100551MD1999999+0061MW1031REMSYN023333   20237 58006 60134
0135821980999991985031812004-01683-045367FM-12+000899999V0209991C00001012001CN0040001N9+02421+02391101071ADDAA124052091AG10999AY161061GF108991081001012501021999KA1240N+02311MA1999999100551MD1410001+0001MW1911REMSYN023333   20231 58000 60524
0116821980999991985031818004-01683-045367FM-12+000899999V0200501N00311045001CN0100001N9+02561+02401100801ADDAA106008091AG10999AY161061GF108991041051012501021999MA1999999100291MD1999999+0071MW1521REMSYN017333   58007 60081
0124821980999991985031910004-01683-045367FM-12+000899999V0202701N00151220001CN0040001N9+02521+02421101031ADDAG10999AY161999GF103991031001012501061001KA1240M+02791MA1999999100511MD1999999+0161MW1011REMSYN023333   10279 58016 60/81
0135821980999991985031912004-01683-045367FM-12+000899999V0209991C00001007501CN0100001N9+02451+02311101041ADDAA124015091AG10999AY101061GF107991051031008001011001KA1240N+02261MA1999999100521MD1999999-0031MW1021REMSYN023333   20226 59003 60154
0110821980999991985031918004-01683-045367FM-12+000899999V0203601N00261045001CN0100001N9+02741+02401100701ADDAA106000091AG10999AY101061GF108991031021012501061021MA1999999100191MD1999999+0101MW1021REMSYN011333   58010
0129821980999991985032000004-01683-045367FM-12+000899999V0203601N00151045001CN0040001N9+02421+02331100911ADDAA106000091AG10999AY101061GF108991041021012501031999KA1240M+02791MA1999999100401MD1999999+0111MW1021REMSYN017333   10279 58011
0129821980999991985032012004-01683-045367FM-12+000899999V0201401N00311105001CN0100001N9+02641+02371100901ADDAA106000091AG10999AY101061GF105991021021008001031011KA1240N+02281MA1999999100381MD1999999-0141MW1021REMSYN017333   20228 59014
0110821980999991985032018004-01683-045367FM-12+000899999V0200901N00361012001CN0100001N9+02701+02371100601ADDAA106000091AG10999AY101061GF108991061021012501061999MA1999999100091MD1999999-0101MW1021REMSYN011333   59010
0129821980999991985032112004-01683-045367FM-12+000899999V0200901N00261220001CN0100001N9+02751+02421100841ADDAA106000091AG10999AY101061GF103991011011012501041041KA1240N+02361MA1999999100321MD1999999-0061MW1021REMSYN017333   20236 59006
0116821980999991985032118004-01683-045367FM-12+000899999V0200501N00361045001CN0100001N9+02721+02431100521ADDAA106000191AG10999AY151061GF106991041021012501061001MA1999999100011MD1999999-0051MW1021REMSYN017333   59005 69911
0129821980999991985032200004-01683-045367FM-12+000899999V0200501N00211220001CN0040001N9+02561+02361100721ADDAA106000091AG10999AY101061GF103991031001012501061001KA1240M+03011MA1999999100211MD1999999-0101MW1021REMSYN017333   10301 59010
0135821980999991985032212004-01683-045367FM-12+000899999V0200901N00361105001CN0100001N9+02621+02331100921ADDAA124000191AG10999AY101061GF106991021011012501041041KA1240N+02461MA1999999100401MD1999999+0081MW1021REMSYN023333   20246 58008 69914
0129821980999991985032700004-01683-045367FM-12+000899999V0200501N00311220001CN0040001N9+02561+02351101041ADDAA106000091AG10999AY101061GF103991031001012501031001KA1240M+02991MA1999999100531MD1999999+0031MW1021REMSYN017333   10299 58003
0135821980999991985032712004-01683-045367FM-12+000899999V0200501N00361220001CN0100001N9+02731+02451101201ADDAA118001091AG10999AY161061GF104991021011008001041011KA1240N+02351MA1999999100681MD1999999+0091MW1521REMSYN023333   20235 58009 60013
0110821980999991985032718004-01683-045367FM-12+000899999V0200501N00571220001CN0100001N9+02901+02341100881ADDAA106000091AG10999AY101061GF105991031021012501001011MA1999999100371MD1999999+0091MW1021REMSYN011333   58009
0129821980999991985032800004-01683-045367FM-12+000899999V0200501N00311220001CN0040001N9+02651+02351101131ADDAA106000091AG10999AY101061GF103991031001012501061001KA1240M+03021MA1999999100621MD1999999+0091MW1021REMSYN017333   10302 58009
0135821980999991985032812004-01683-045367FM-12+000899999V0200501N00311012001CN0040001N9+02421+02391101181ADDAA124014091AG10999AY161061GF108991061071012501021999KA1240N+02341MA1999999100661MD1999999-0021MW1581REMSYN023333   20234 59002 60144
0116821980999991985032818004-01683-045367FM-12+000899999V0200501N00361045001CN0100001N9+02571+02461100841ADDAA106005091AG10999AY161061GF108991041021012501031999MA1999999100331MD1999999-0041MW1021REMSYN017333   59004 60051
0135821980999991985032912004-01683-045367FM-12+000899999V0201401N00151012001CN0040001N9+02441+02371101141ADDAA124014091AG10999AY161061GF107991051071012501011001KA1240N+02361MA1999999100621MD1999999-0041MW1031REMSYN023333   20236 59004 60144
0116821980999991985032918004-01683-045367FM-12+000899999V0200501N00101045001CN0100001N9+02701+02371100831ADDAA106019091AG10999AY161061GF108991041021012501031999MA1999999100221MD1999999-0111MW1021REMSYN017333   59011 60191
0135821980999991985033000004-01683-045367FM-12+000899999V0203601N00151045001CN0040001N9+02491+02251100951ADDAA106005091AG10999AY161061GF106991031051012501021001KA1240M+02731MA1999999100341MD1999999-0061MW1021REMSYN023333   10273 59006 60051
0135821980999991985033012004-01683-045367FM-12+000899999V0200501N00311045001CN0100001N9+02751+02341101051ADDAA124024091AG10999AY161061GF105991021021012501031001KA1240N+02321MA1999999100531MD1999999-0091MW1021REMSYN023333   20232 59009 60244
0126821980999991985033018004-01683-045367FM-12+000899999V0200501N003619999999N0100001N9+02821+02331100731ADDAA106000091AG10999AY101061GA1091+999999999GF109991041021012501061001MA1999999100221MD1410001+0001MW1021REMSYN011333   58000
0146821980999991985033112004-01683-045367FM-12+000899999V0209991C00001045001CN0100001N9+02521+02381100971ADDAA124000291AA299000391AG10999AY101061GF106991041021012501061001KA1240N+02251MA1999999100451MD1999999-0081MW1021REMSYN023333   20225 59008 69924
0116821980999991985033118004-01683-045367FM-12+000899999V0200501N00571045001CN0100001N9+02491+02411100711ADDAA106006091AG10999AY161061GF108991041051012501041001MA1999999100201MD1999999-0021MW1021REMSYN017333   59002 60061
0135821980999991985040112004-01683-045367FM-12+000899999V0202301N00151045001CN0100001N9+02431+02331101091ADDAA124039091AG10999AY161061GF106991041021012501041001KA1240N+02241MA1999999100571MD1999999+0121MW1021REMSYN023333   20224 58012 60394
0116821980999991985040118004-01683-045367FM-12+000899999V0200501N00311045001CN0100001N9+02741+02401100671ADDAA106005091AG10999AY161061GF106991031021012501061021MA1999999100161MD1999999-0041MW1021REMSYN017333   59004 60051
0116821980999991985040218004-01683-045367FM-12+000899999V0203201N00211045001CN0100001N9+02641+02271100781ADDAA106003091AG10999AY161061GF108991021021012501041021MA1999999100271MD1999999+0111MW1021REMSYN017333   58011 60031
0135821980999991985040312004-01683-045367FM-12+000899999V0200901N00211105001CN0100001N9+99999+99999101221ADDAA124018091AG10999AY161061GF105991021021012501031041KA1240N+02171MA1999999100701MD1999999+0061MW1011REMSYN023333   20217 58006 60184
0116821980999991985040318004-01683-045367FM-12+000899999V0200501N00511105001CN0100001N9+02821+02311100901ADDAA106002091AG10999AY161061GF105991021021012501031011MA1999999100391MD1999999+0121MW1011REMSYN017333   58012 60021
0110821980999991985040418004-01683-045367FM-12+000899999V0200501N00571045001CN0100001N9+02881+02251100831ADDAA106000091AG10999AY101061GF106991031021012501061021MA1999999100321MD1999999-0071MW1021REMSYN011333   59007
0148821980999991985040500004-01683-045367FM-12+000899999V0200501N00211220001CN0040001N9+02441+02251101051ADDAA106000091AG10999AY101061GF100991001001999999001001KA1240M+99999MA1999999100541MD1999999-0011MW1021REMSYN017333   10207 59001EQDQ01 +02072ATMX  
0129821980999991985040512004-01683-045367FM-12+000899999V0200501N00361012001CN0100001N9+02681+02141101011ADDAA106000091AG10999AY101061GF105991051021012501001001KA1240N+02241MA1999999100491MD1999999-0111MW1021REMSYN017333   20224 59011
0135821980999991985041100004-01683-045367FM-12+000899999V0202701N00151012001CN0020001N9+02291+02271100951ADDAA106009091AG10999AY161061GF108991081051012501999999KA1240M+02611MA1999999100431MD1999999+0081MW1021REMSYN023333   10261 58008 60091
0135821980999991985041112004-01683-045367FM-12+000899999V0200901N00151045001CN0100001N9+02321+02271101281ADDAA124192091AG10999AY161061GF108991041051012501021999KA1240N+02141MA1999999100771MD1999999+0291MW1621REMSYN023333   20214 58029 61924
0127821980999991985041118004-01683-045367FM-12+000899999V0200501N00361045001CN0100001N9+02691+02281100921ADDAA106000291AA299000391AG10999AY151061GF108991041051012501041999MA1999999100411MD1999999+0111MW1021REMSYN017333   58011 69921
0146821980999991985041212004-01683-045367FM-12+000899999V0200501N00411012001CN0100001N9+02821+02361101251ADDAA124000891AA299001091AG10999AY101061GF105991051021012501001001KA1240N+02261MA1999999100741MD1999999-0031MW1021REMSYN023333   20226 59003 69984
0110821980999991985041218004-01683-045367FM-12+000899999V0200501N00411220001CN0100001N9+02881+02251100991ADDAA106000091AG10999AY101061GF103991031021012501001001MA1999999100481MD1999999+0071MW1021REMSYN011333   58007
0135821980999991985041312004-01683-045367FM-12+000899999V0200501N00151045001CN0040001N9+02301+02251101361ADDAA124009091AG10999AY161061GF107991041071012501021001KA1240N+02231MA1999999100841MD1999999+0101MW1581REMSYN023333   20223 58010 60094
0135821980999991985041412004-01683-045367FM-12+000899999V0201401N00101045001CN0100001N9+02681+02431101201ADDAA124006091AG10999AY101061GF105991021021012501031001KA1240N+02231MA1999999100681MD1999999-0161MW1021REMSYN023333   20223 59016 60064
0116821980999991985041418004-01683-045367FM-12+000899999V0200501N00151045001CN0100001N9+02581+02421100781ADDAA106003091AG10999AY161061GF108991031021012501061021MA1999999100271MD1999999-0201MW1021REMSYN017333   59020 60031
0110821980999991985041518004-01683-045367FM-12+000899999V0200501N00261045001CN0100001N9+02651+02331100841ADDAA106000091AG10999AY101061GF106991031021012501061001MA1999999100331MD1999999+0061MW1021REMSYN011333   58006
0129821980999991985041600004-01683-045367FM-12+000899999V0200501N001519999999N0040001N9+02531+02311101051ADDAA106000091AG10999AY101061GF105991051001012501061001KA1240M+02731MA1999999100531MD1999999+0031MW1021REMSYN017333   10273 58003
0135821980999991985041612004-01683-045367FM-12+000899999V0200501N00461012001CN0100001N9+02651+02371101151ADDAA124004091AG10999AY161061GF107991051011012501031001KA1240N+02281MA1999999100631MD1410001+0001MW1031REMSYN023333   20228 58000 60044
0110821980999991985041618004-01683-045367FM-12+000899999V0200501N00461045001CN0100001N9+02721+02241100851ADDAA106000091AG10999AY101061GF106991031021012501061011MA1999999100341MD1999999-0011MW1021REMSYN011333   59001
0146821980999991985041700004-01683-045367FM-12+000899999V0203601N00151220001CN0040001N9+02461+02281101051ADDAA106000691AA299000591AG10999AY151061GF104991041001012501061001KA1240M+02911MA1999999100541MD1999999-0011MW1021REMSYN023333   10291 59001 69961
0139821980999991985041712004-01683-045367FM-12+000899999V0200501N00411045001CN0100001N9+02721+02261101201ADDAA124000691AA299000591AG10999AY101061GF106991041021012501061001IA1019MA1999999100681MD1999999+0051MW1021REMSYN023333   30232 58005 69964
0116821980999991985041718004-01683-045367FM-12+000899999V0200501N00361105001CN0100001N9+02851+02171100831ADDAA106000191AG10999AY151061GF105991021021012501031011MA1999999100321MD1999999-0021MW1021REMSYN017333   59002 69911
0129821980999991985041800004-01683-045367FM-12+000899999V0203601N00101220001CN0040001N9+02551+02271101101ADDAA106000091AG10999AY101061GF103991031001012501061001KA1240M+02891MA1999999100581MD1999999+0041MW1021REMSYN017333   10289 58004
0135821980999991985041812004-01683-045367FM-12+000899999V0200501N00311045001CN0100001N9+02791+02381100111ADDAA124017091AG10999AY161061GF106991041021012501061001KA1240N+02261MA1999999100671MD1999999-0011MW1031REMSYN023333   20226 59001 60174
0116821980999991985041818004-01683-045367FM-12+000899999V0200501N00361045001CN0040001N9+02521+02421100841ADDAA106002091AG10999AY161061GF108991041051012501021999MA1999999100331MD1999999+0011MW1501REMSYN017333   58001 60021
0135821980999991985041912004-01683-045367FM-12+000899999V0202701N00151015001CN0040001N9+02411+02391101171ADDAA124080091AG10999AY161061GF108991081001017501021999KA1240N+02301MA1999999100651MD1999999-0021MW1111REMSYN023333   20230 59002 60804
0116821980999991985041918004-01683-045367FM-12+000899999V0200901N00101045001CN0100001N9+02641+02351100711ADDAA106053091AG10999AY161061GF108991041021012501041999MA1999999100201MD1999999-0131MW1021REMSYN017333   59013 60531
0135821980999991985042004004-01683-045367FM-12+000899999V0202701N001019999999N0040001N9+02321+02271100951ADDAA106000391AG10999AY161999GF105991051001012501061001KA1240M+02691MA1999999100431MD1999999-0071MW1011REMSYN023333   10269 59007 69931
0135821980999991985042012004-01683-045367FM-12+000899999V0202701N00101045001CN0100001N9+02411+02391100991ADDAA124059091AG10999AY161061GF106991041071012501011001KA1240N+02271MA1999999100471MD1999999-0181MW1031REMSYN023333   20227 59018 60594
0116821980999991985042018004-01683-045367FM-12+000899999V0200501N00261045001CN0100001N9+02551+02381100631ADDAA106003091AG10999AY161061GF106991041051012501031001MA1999999100111MD1999999-0091MW1521REMSYN017333   59009 60031
0135821980999991985042112004-01683-045367FM-12+000899999V0200501N00151045001CN0100001N9+02591+02441100841ADDAA124012091AG10999AY161061GF106991041071012501011001KA1240N+02201MA1999999100321MD1999999-0151MW1081REMSYN023333   20220 59015 60124
0110821980999991985042118004-01683-045367FM-12+000899999V0200501N00311045001CN0100001N9+02511+02341100561ADDAA106000091AG10999AY101061GF108991041071012501021999MA1999999100051MD1999999-0061MW1021REMSYN011333   59006
0135821980999991985043000004-01683-045367FM-12+000899999V0200901N001519999999N0040001N9+02491+02361100871ADDAA106014091AG10999AY161061GF106991061001012501061001KA1240M+03001MA1999999100351MD1999999-0091MW1031REMSYN023333   10300 59009 60141
0154821980999991985043012004-01683-045367FM-12+000899999V0201401N00151045001CN0100001N9+02521+02481101021ADDAA124015091AG10999AY161061GF106991021021012501061001KA1240M+99999MA1999999100541MD1999999+0031MW1021REMSYN023333   10222 58003 60154EQDQ01 +02222ATMX  
0110821980999991985043018004-01683-045367FM-12+000899999V0203201N00461045001CN0100001N9+02541+02401100711ADDAA106000091AG10999AY101061GF108991041021012501061021MA1999999100301MD1999999+0061MW1021REMSYN011333   58006
0129821980999991985050100004-01683-045367FM-12+000899999V0203201N00051220001CN0040001N9+02341+02281100931ADDAA106000091AG10999AY101061GF100991001001999999001001KA1240M+03051MA1999999100421MD1999999+0071MW1021REMSYN017333   10305 58007
0129821980999991985050112004-01683-045367FM-12+000899999V0209991C00001105001CN0040001N9+02631+02481101031ADDAA106000091AG10999AY101061GF106991021021012501041041KA1240N+02151MA1999999100511MD1999999-0031MW1021REMSYN017333   20215 59003
0116821980999991985050118004-01683-045367FM-12+000899999V0201801N00211045001CN0100001N9+02501+02381100781ADDAA106007091AG10999AY161061GF106991041071012501021001MA1999999101261MD1999999+0061MW1911REMSYN017333   58006 60071
0135821980999991985050200004-01683-045367FM-12+000899999V0209991C00001045001CN0040001N9+02421+02371101021ADDAA106006091AG10999AY161061GF105991021011012501031001KA1240M+02801MA1999999100501MD1999999+0121MW1011REMSYN023333   10280 58012 60061
0135821980999991985050212004-01683-045367FM-12+000899999V0209991C00001105001CN0100001N9+02731+02501101151ADDAA124013091AG10999AY101061GF105991021021012501041041KA1240N+02241MA1999999100631MD1999999+0121MW1021REMSYN023333   20224 58012 60134
0110821980999991985050218004-01683-045367FM-12+000899999V0200501N00311105001CN0100001N9+02821+02461100751ADDAA106000091AG10999AY101061GF105991021021012501041041MA1999999100231MD1999999-0031MW1021REMSYN011333   59003
0129821980999991985050312004-01683-045367FM-12+000899999V0200901N00101105001CN0100001N9+02721+02481101171ADDAA106000091AG10999AY101061GF105991021021012501031011KA1240N+02261MA1999999100651MD1999999+0021MW1021REMSYN017333   20226 58002
0129821980999991985050400004-01683-045367FM-12+000899999V0209991C00001105001CN0040001N9+02481+02391101011ADDAA106000091AG10999AY101061GF105991021021012501031041KA1240M+02871MA1999999100531MD1999999-0071MW1021REMSYN017333   10287 59007
0135821980999991985050412004-01683-045367FM-12+000899999V0200901N00151045001CN0100001N9+02651+02141101171ADDAA124013091AG10999AY161061GF106991021021012501061011KA1240N+02261MA1999999100651MD1410001+0001MW1031REMSYN023333   20226 58000 60134
0116821980999991985050418004-01683-045367FM-12+000899999V0200501N00361007501CN0100001N9+02681+02411100761ADDAA106012091AG10999AY161061GF108991051051008001061999MA1999999100251MD1999999+0031MW1021REMSYN017333   58003 60121
0135821980999991985050600004-01683-045367FM-12+000899999V0200501N00151220001CN0100001N9+02711+02481101091ADDAA124037091AG10999AY101061GF104991021021012501001011KA1240N+02181MA1999999100571MD1999999-0011MW1021REMSYN023333   20218 59001 60374
0135821980999991985050612004-01683-045367FM-12+000899999V0200501N00151220001CN0100001N9+02711+02481101091ADDAA124037091AG10999AY101061GF104991021021012501001011KA1240N+02181MA1999999100571MD1999999-0011MW1021REMSYN023333   20218 59001 60374
0116821980999991985050618004-01683-045367FM-12+000899999V0200501N00051045001CN0100001N9+02401+02331100771ADDAA106022091AG10999AY161061GF108991031021012501041999MA1999999100261MD1999999-0051MW1021REMSYN017333   59005 60221
0135821980999991985050712004-01683-045367FM-12+000899999V0200901N00151220001CN0100001N9+02691+02481101061ADDAA124022091AG10999AY101061GF104991021021012501041011KA1240N+02181MA1999999100541MD1999999-0031MW1021REMSYN023333   20218 59003 60224
0116821980999991985050718004-01683-045367FM-12+000899999V0200901N00261045001CN0100001N9+02721+02321100751ADDAA106025091AG10999AY161061GF108991031021012501041001MA1999999100241MD1999999-0021MW1021REMSYN017333   59002 60251
0135821980999991985050812004-01683-045367FM-12+000899999V0201801N00051220001CN0100001N9+99999+99999101111ADDAA124029091AG10999AY161061GF104991021021012501061001KA1240N+02281MA1999999100591MD1999999+0051MW1021REMSYN023333   20228 58005 60294
0116821980999991985050818004-01683-045367FM-12+000899999V0200901N00261045001CN0100001N9+02481+02381100751ADDAA106016091AG10999AY161061GF108991031021012501041021MA1999999100241MD1410001+0001MW1021REMSYN017333   58000 60161
0129821980999991985050900004-01683-045367FM-12+000899999V0200501N00101220001CN0040001N9+02441+02351101011ADDAA106000091AG10999AY101061GF103991031001012501061001KA1240M+02911MA1999999100491MD1999999-0011MW1021REMSYN017333   10291 59001
0135821980999991985051012004-01683-045367FM-12+000899999V0209991C00001045001CN0100001N9+02601+02481100951ADDAA124022091AG10999AY101061GF105991021021012501031001KA1240N+02261MA1999999100431MD1999999-0091MW1021REMSYN023333   20226 59009 60224
0116821980999991985051018004-01683-045367FM-12+000899999V0209991C00001045001CN0100001N9+02521+02431100621ADDAA106015091AG10999AY161061GF108991021051012501041021MA1999999100111MD1999999+0081MW1081REMSYN017333   58008 60151
0110821980999991985051118004-01683-045367FM-12+000899999V0209991C00001045001CN0100001N9+02791+02381100671ADDAA106000091AG10999AY101061GF106991031021012501031021MA1999999100161MD1999999+0051MW1021REMSYN011333   58005
0129821980999991985051212004-01683-045367FM-12+000899999V0209991C00001105001CN0100001N9+02671+02461101021ADDAA106000091AG10999AY101061GF105991021021012501041011KA1240N+02151MA1999999100501MD1410001+0001MW1021REMSYN017333   20215 58000
0129821980999991985051218004-01683-045367FM-12+000899999V0209991C00001012001CN0100001N9+02621+02331100072ADDAA106000091AG10999AY101061GF108991061031012501041021MA1999999100191MD1999999+0031MW1021REMSYN011333   58003EQDQ01+100073APOSLP
0148821980999991985051312004-01683-045367FM-12+000899999V0209991C00001045001CN0100001N9+02561+02401101251ADDAA124001091AG10999AY161061GF106991021021012501061011KA1240N+02201MA1999999100711MD1999999+0211REMSYN023333   20220 58021 60014EQDQ01+000222PRSWM1
0116821980999991985051318004-01683-045367FM-12+000899999V0201401N00051045001CN0100001N9+02981+02231100791ADDAA106002091AG10999AY161061GF105991031021012501061011MA1999999100281MD1999999+0091MW1021REMSYN017333   58009 60021
0148821980999991985051400004-01683-045367FM-12+000899999V0209991C00001012001CN0040001N9+02531+02381101131ADDAA106000091AG10999AY111061GF105991051021012501001001KA1240M+03011MA1999999101612MD1999999+0101MW1131REMSYN017333   10301 58010EQDQ01+101613APOSP 
0135821980999991985051412004-01683-045367FM-12+000899999V0209991C00001045001CN0100001N9+02641+02421101271ADDAA124002091AG10999AY101061GF106991041021012501031001KA1240N+02261MA1999999100761MD1999999+0041MW1021REMSYN023333   20226 58004 60024
0127821980999991985051418004-01683-045367FM-12+000899999V0201401N00101012001CN0100001N9+02731+02221100891ADDAA106000291AA299000091AG10999AY151061GF106991061021012501001001MA1999999100381MD1410001+0001MW1021REMSYN017333   58000 69921
0135821980999991985051512004-01683-045367FM-12+000899999V0209991C00001045001CN0100001N9+02561+99999101221ADDAA124003091AG10999AY161061GF107991041021012501061001KA1240N+02231MA1999999100701MD1999999-0051MW1031REMSYN023333   20223 59005 60034
0135821980999991985051514004-01683-045367FM-12+000899999V0209991C00001045001CN0100001N9+02561+02241101221ADDAA124003091AG10999AY161021GF107991041021012501061001KA1240N+02231MA1999999100701MD1999999-0051MW1031REMSYN023333   20223 59005 60034
0110821980999991985051518004-01683-045367FM-12+000899999V0200501N00051045001CN0100001N9+02771+02401100811ADDAA106000091AG10999AY101061GF105991031021012501061001MA1999999100301MD1999999-0081MW1021REMSYN011333   59008
0135821980999991985051612004-01683-045367FM-12+000899999V0200901N00051105001CN0100001N9+02631+02421101091ADDAA124004091AG10999AY161061GF106991021021012501061041KA1240N+02321MA1999999100571MD1999999-0131MW1031REMSYN023333   20232 59013 60044
0116821980999991985051618004-01683-045367FM-12+000899999V0209991C00001045001CN0100001N9+02501+02401100751ADDAA106020091AG10999AY161061GF108991041021012501041999MA1999999100241MD1999999-0061MW1021REMSYN017333   59006 60201
0129821980999991985051700004-01683-045367FM-12+000899999V0200501N00051220001CN0040001N9+02491+02381100941ADDAA106000091AG10999AY101061GF100991001001999999001001KA1240M+02801MA1999999100431MD1999999-0131MW1021REMSYN017333   10280 59013
0127821980999991985051718004-01683-045367FM-12+000899999V0200501N00101045001CN0100001N9+02721+02391100701ADDAA106000691AA299000591AG10999AY151061GF106991021021012501041021MA1999999100191MD1999999-0051MW1021REMSYN017333   59005 69961
0127821980999991985051818004-01683-045367FM-12+000899999V0209991C00001045001CN0100001N9+02741+02321100831ADDAA106000291AA299000391AG10999AY151061GF106991041021012501031001MA1999999100321MD1999999+0131MW1021REMSYN017333   58013 69921
0146821980999991985051900004-01683-045367FM-12+000899999V0209991C00001220001CN0040001N9+02401+02281101111ADDAA106000891AA299001091AG10999AY151061GF102991021001012501061001KA1240M+02831MA1999999100661MD1999999+0211MW1011REMSYN023333   10283 58021 69981
0135821980999991985051912004-01683-045367FM-12+000899999V0209991C00001105001CN0100001N9+02531+02401101111ADDAA124001091AG10999AY151061GF105991021011012501031011KA1240N+02191MA1999999100591MD1999999-0041MW1031REMSYN023333   20219 59004 60014
0116821980999991985051918004-01683-045367FM-12+000899999V0201401N00571012001CN0020001N9+02451+02341100821ADDAA106004091AG10999AY161061GF108991081001012501021999MA1999999100511MD1999999-0011MW1521REMSYN017333   59001 60041
0118821980999991985052012004-01683-045367FM-12+000899999V0209991C00001012001CN0040001N9+02421+02231101141ADDAG10001AY161061GF107991051071012501021001KA1240N+02181MA1999999100621MD1999999+0091MW1581REMSYN017333   20218 58009
0116821980999991985052018004-01683-045367FM-12+000899999V0209991C00001045001CN0100001N9+02541+02401100801ADDAA106006091AG10999AY161061GF108991041051012501041999MA1999999100291MD1999999-0021MW1021REMSYN017333   59002 60061
0135821980999991985052112004-01683-045367FM-12+000899999V0209991C00001045001CN0100001N9+02521+02421101161ADDAA124006091AG10999AY121061GF106991041021012501061001KA1240N+02251MA1999999100641MD1999999+0021MW1031REMSYN023333   20225 58002 60064
0116821980999991985052118004-01683-045367FM-12+000899999V0209991C00001045001CN0100001N9+02551+02381100841ADDAA106037091AG10999AY161061GF106991031021012501041001MA1999999100331MD1999999+0041MW1021REMSYN017333   58004 60371
0129821980999991985052200004-01683-045367FM-12+000899999V0209991C00001220001CN0040001N9+02441+02341101111ADDAA106000091AG10999AY101061GF100991001001999999001001KA1240M+02711MA1999999100591MD1410001+0001MW1021REMSYN017333   10271 58000
0135821980999991985052212004-01683-045367FM-12+000899999V0209991C00001045001CN0100001N9+02571+02491101221ADDAA124037091AG10999AY101061GF105991031021012501061001KA1240N+02161MA1999999100701MD1999999+0061MW1021REMSYN023333   20216 58006 60374
0116821980999991985052218004-01683-045367FM-12+000899999V0201401N00051012001CN0100001N9+02341+02261100901ADDAA106023091AG10999AY161061GF108991051051012501021999MA1999999100391MD1999999+0061MW1021REMSYN017333   58006 60231
0135821980999991985052300004-01683-045367FM-12+000899999V0209991C00001045001CN0040001N9+02291+02231100171ADDAA106002091AG10999AY161061GF106991031051008001061001KA1240M+02831MA1999999100551MD1999999-0041MW1021REMSYN023333   10283 59004 60021
0135821980999991985052312004-01683-045367FM-12+000899999V0209991C00001220001CN0100001N9+02561+02401101111ADDAA124025091AG10999AY101061GF104991021021012501041011KA1240N+02211MA1999999100591MD1999999-0111MW1021REMSYN023333   20221 59011 60254
0116821980999991985052318004-01683-045367FM-12+000899999V0201401N00051012001CN0100001N9+99999+99999100901ADDAA106007091AG10999AY161061GF108991051051012501021999MA1999999100391MD1999999-0011MW1031REMSYN017333   59001 60071
0116821980999991985052418004-01683-045367FM-12+000899999V0209991C00001012001CN0100001N9+02561+02351100921ADDAA106015091AG10999AY161061GF108991051051012501041999MA1999999100411MD1999999+0031MW1021REMSYN017333   58003 60151
0129821980999991985052500004-01683-045367FM-12+000899999V0209991C00001220001CN0040001N9+02421+02331101111ADDAA106000091AG10999AY101061GF104991021021012501031001KA1240M+02751MA1999999100601MD1999999+0071MW1021REMSYN017333   10275 58007
0135821980999991985052512004-01683-045367FM-12+000899999V0200501N00051105001CN0100001N9+02661+02391101191ADDAA124015091AG10999AY101061GF105991021021012501041041KA1240N+02311MA1999999100671MD1999999+0021MW1021REMSYN023333   20231 58002 60154
0127821980999991985052518004-01683-045367FM-12+000899999V0200901N00051045001CN0100001N9+02751+02321100881ADDAA106000991AA299001091AG10999AY161061GF108991031021012501041021MA1999999100371MD1999999-0041MW1021REMSYN017333   59004 69991
0148821980999991985052600004-01683-045367FM-12+000899999V0209991C00001220001CN0100001N9+02531+02341101151ADDAA106000091AG10999AY101061GF103991999001012501061001KA1240M+03011MA1999999100641MD1999999+0041MW1021REMSYN017333   10301 58004EQDQ01+000022SCOTLC
0146821980999991985052612004-01683-045367FM-12+000899999V0209991C00001012001CN0100001N9+02741+02471101121ADDAA124000991AA299001091AG10001AY101061GF106991061021012501001001KA1240N+02251MA1999999100611MD1999999-0061MW1021REMSYN023333   20225 59006 69994
0116821980999991985052618004-01683-045367FM-12+000899999V0200901N00311045001CN0100001N9+02821+02381100841ADDAA106016091AG10999AY161061GF105991031021012501061001MA1999999100331MD1999999-0041MW1021REMSYN017333   59004 60161
0135821980999991985052712004-01683-045367FM-12+000899999V0209991C00001012001CN0100001N9+99999+99999101181ADDAA124019091AG10999AY161061GF107991051021012501061001KA1240N+02221MA1999999100661MD1999999+0051MW1031REMSYN023333   20222 58005 60194
0116821980999991985052718004-01683-045367FM-12+000899999V0200901N00101045001CN0100001N9+02921+02361100881ADDAA106000191AG10999AY151061GF106991041021012501061011MA1999999100271MD1999999-0061MW1021REMSYN017333   59006 69911
0148821980999991985052800004-01683-045367FM-12+000899999V0209991C000019999999N0040001N9+02561+02441101041ADDAA106000091AG10999AY101061GF105991051001012501031001KA1240M+99999MA1999999100521MD1999999+0051MW1021REMSYN017333   10205 58005EQDQ01 +02052ATMX  
0118821980999991985052812004-01683-045367FM-12+000899999V0209991C00001045001CN0100001N9+02511+02431101041ADDAG10999AY161061GF107991041021012501061001KA1240N+02311MA1999999100521MD1999999-0141MW1031REMSYN017333   20231 59014
0116821980999991985052818004-01683-045367FM-12+000899999V0209991C00001045001CN0100001N9+02781+02461100731ADDAA106023091AG10999AY161061GF106991031021012501041021MA1999999100401MD1999999-0051MW1021REMSYN017333   59005 60231
0135821980999991985052912004-01683-045367FM-12+000899999V0200501N00051045001CN0100001N9+02491+02401101041ADDAA124024091AG10999AY101061GF106991041021012501011011KA1240N+02301MA1999999100521MD1410001+0001MW1031REMSYN023333   20230 58000 60244
0110821980999991985052918004-01683-045367FM-12+000899999V0209991C00001045001CN0100001N9+02841+02351100711ADDAA106000091AG10999AY101061GF106991021021012501041011MA1999999100201MD1999999-0021MW1021REMSYN011333   59002
0135821980999991985053012004-01683-045367FM-12+000899999V0209991C00001220001CN0100001N9+02541+02361101151ADDAA124008091AG10999AY161061GF104991021021012501041011KA1240N+02261MA1999999100631MD1999999+0111MW1011REMSYN023333   20226 58011 60084
0135821980999991985053018004-01683-045367FM-12+000899999V0200501N00051105001CN0100001N9+02771+02401100791ADDAA106003091AG10999AY161061GF105991021021012501011041MA1999999095272MD1999999+0071MW1021REMSYN017333   58007 60031EQDQ01+095273APOSP 
0135821980999991985060100004-01683-045367FM-12+000899999V0209991C00001999999CN0040001N9+02531+02361100961ADDAA106002091AG10999AY161061GF105991051001012501031001KA1240M+03031MA1999999100441MD1999999+0081MW1021REMSYN023333   10303 58008 60021
0135821980999991985060112004-01683-045367FM-12+000899999V0209991C00001220001CN0100001N9+02721+02481101011ADDAA124009091AG10999AY161061GF103991011021012501041011KA1240N+02301MA1999999100491MD1999999-0131MW1011REMSYN023333   20230 59013 60094
0110821980999991985060118004-01683-045367FM-12+000899999V0200901N00411220001CN0100001N9+03051+02251100701ADDAA106000091AG10999AY101061GF103991011021012501031011MA1999999100191MD1999999-0141MW1021REMSYN011333   59014
0129821980999991985060212004-01683-045367FM-12+000899999V0209991C00001045001CN0100001N9+02711+02481100931ADDAA106000091AG10999AY101061GF106991041021012501031001KA1240N+02371MA1999999100411MD1999999-0081MW1021REMSYN017333   20237 59008
0110821980999991985060218004-01683-045367FM-12+000899999V0200901N00211045001CN0100001N9+02881+02521100611ADDAA106000091AG10999AY101061GF106991041021012501041001MA1999999100111MD1999999-0091MW1021REMSYN011333   59009
0116821980999991985060318004-01683-045367FM-12+000899999V0209991C000019999999N0100001N9+02451+99999100811ADDAA106034091AG10999AY161061GF108991081001012501041999MA1999999100301MD1999999+0201MW1021REMSYN017333   58020 60341
0135821980999991985060412004-01683-045367FM-12+000899999V0209991C00001105001CN0100001N9+02641+02421101071ADDAA124034091AG10999AY101061GF106991021021012501031061KA1240N+02291MA1999999100551MD1410001+0001MW1021REMSYN023333   20229 58000 60344
0129821980999991985060500004-01683-045367FM-12+000899999V0209991C000019999999N0040001N9+02541+02271101121ADDAA106000091AG10999AY101061GF105991051001012501031001KA1240M+03061MA1999999100611MD1999999+0151MW1021REMSYN017333   10306 58015
0129821980999991985060512004-01683-045367FM-12+000899999V0209991C00001045001CN0100001N9+02621+02461101251ADDAA106000091AG10999AY101061GF106991041021012501061001KA1240N+02321MA1999999100731MD1999999+0181MW1021REMSYN017333   20232 58018
0116821980999991985060518004-01683-045367FM-12+000899999V0209991C00001045001CN0100001N9+02621+02411100931ADDAA106012091AG10999AY161061GF108991041051012501041999MA1999999100421MD1999999+0091MW1021REMSYN017333   58009 60121
0135821980999991985060612004-01683-045367FM-12+000899999V0209991C00001045001CN0100001N9+02451+02371101291ADDAA124035091AG10999AY161061GF106991041021012501061001KA1240N+02201MA1999999100771MD1999999+0041MW1011REMSYN023333   20220 58004 60354
0135821980999991985060712004-01683-045367FM-12+000899999V0209991C00001105001CN0100001N9+02681+02461101391ADDAA124000391AG10999AY161061GF105991021021012501031011KA1240N+02201MA1999999100871MD1999999+0101MW1011REMSYN023333   20220 58010 69934
0135821980999991985060718004-01683-045367FM-12+000899999V0200901N00151220001CN0100001N9+02981+02301101061ADDAA106004091AG10999AY161061GF104991031021012501001011MA1999999100551MD1999999+0031MW1021REMSYN017333   58003 60041EQDQ01+999990APOSLP
0121821980999991985060812004-01683-045367FM-12+000899999V0200501N00211220001CN0100001N9+02841+02461101241ADDAA124004091AG10999GF104991041021012501001001KA1240N+02301MA1999999100721MD1999999-0151REMSYN023333   20230 59015 60044
0096821980999991985060818004-01683-045367FM-12+000899999V0200501N00311045001CN0200001N9+99999+99999101001ADDAA106000091AG10999GF106991041021012501061021MA1999999100491MD1999999-0061REMSYN011333   59006
0115821980999991985060912004-01683-045367FM-12+000899999V0209991C00001105001CN0100001N9+02731+02411101391ADDAA106000091AG10999GF105991021021012501041011KA1240N+02231MA1999999100871MD1999999+0151REMSYN017333   20223 58015
0096821980999991985060918004-01683-045367FM-12+000899999V0200901N00051220001CN0100001N9+03031+02291101101ADDAA106000091AG10999GF104991999999012501999999MA1999999101191MD1999999+0101REMSYN011333   58010
0116821980999991985061018004-01683-045367FM-12+000899999V0200501N00571045001CN0100001N9+02431+02171101181ADDAA106002091AG10999AY161061GF105991031021012501061001MA1999999100671MD1999999+0081MW1021REMSYN017333   58008 60021
0121821980999991985061112004-01683-045367FM-12+000899999V0209991C00001220001CN0100001N9+02751+02461101531ADDAA124001091AG10999GF103991021021012501001011KA1240N+02171MA1999999101011MD1999999-0011REMSYN023333   20217 59001 60014
0096821980999991985061118004-01683-045367FM-12+000899999V0200501N00211220001CN0100001N9+02751+02341101141ADDAA106000091AG10999GF104991031021012501061001MA1999999100631MD1999999-0041REMSYN011333   59004
0101821980999991985061200004-01683-045367FM-12+000899999V0200301N00511220001CN0400001N9+00352-00322102422ADDAG10999GF101991011051008001001001MD1710081+9999EQDQ01+027673ATOT  Q02+027003ATOD  Q03+102423APOSLP
0135821980999991985061212004-01683-045367FM-12+000899999V0209991C00001105001CN0100001N9+02301+02221101511ADDAA124008091AG10999AY161061GF105991021021012501041041KA1240N+02091MA1999999100991MD1999999-0021MW1031REMSYN023333   20209 59002 60084
0135821980999991985061312004-01683-045367FM-12+000899999V0209991C00001045001CN0100001N9+02451+02341101491ADDAA124006091AG10999AY161061GF105991021021012501061001KA1240N+02141MA1999999100971MD1999999-0021MW1031REMSYN023333   20214 59002 60064
0127821980999991985061318004-01683-045367FM-12+000899999V0201401N00261045001CN0100001N9+02571+02331101141ADDAA106000491AA299000591AG10999AY151061GF106991041021012501031001MA1999999100631MD1999999-0021MW1021REMSYN017333   59002 69941
0135821980999991985061412004-01683-045367FM-12+000899999V0201401N00151045001CN0100001N9+02311+02241101341ADDAA124005091AG10999AY161061GF106991041021012501041001KA1240N+02171MA1999999100821MD1999999-0151MW1021REMSYN023333   20217 59015 60054
0116821980999991985061418004-01683-045367FM-12+000899999V0201401N00211045001CN0100001N9+02601+02311101121ADDAA106001091AG10999AY161061GF106991031021012501061011MA1999999100611MD1999999-0021MW1021REMSYN017333   59002 60011
0116821980999991985061518004-01683-045367FM-12+000899999V0201401N00151220001CN0100001N9+02971+02261101031ADDAA106002091AG10999AY161061GF104991041021012501001001MA1999999100521MD1999999-0091MW1031REMSYN017333   59009 60021
0115821980999991985061600004-01683-045367FM-12+000899999V0200501N00151220001CN0040001N9+02511+02361101251ADDAA106000091AG10999GF100991001001999999001001KA1240M+03011MA1999999100741MD1999999-0081REMSYN017333   10301 59008
0121821980999991985061612004-01683-045367FM-12+000899999V0200901N00151012001CN0100001N9+02761+02361101261ADDAA124002091AG10999GF105991051021012501001001KA1240N+02231MA1999999100741MD1999999-0081REMSYN023333   20223 59008 60024
0127821980999991985061618004-01683-045367FM-12+000899999V0200501N00151045001CN0100001N9+02651+02351100921ADDAA106000691AA299000591AG10999AY161061GF108991031021012501061021MA1999999100401MD1999999-0031MW1021REMSYN017333   59003 69961
0146821980999991985061700004-01683-045367FM-12+000899999V0209991C00001045001CN0040001N9+02531+02401101241ADDAA106000691AA299000591AG10999AY161061GF105991021021012501061001KA1240M+02951MA1999999100721MD1999999-0021MW1131REMSYN023333   10295 59002 69961
0140821980999991985061712004-01683-045367FM-12+000899999V0200901N00151220001CN0100001N9+02751+02481101291ADDAA124001091AG10999GF104991999021012501001001KA1240N+02301MA1999999100771MD1999999+0031REMSYN023333   20230 58003 60014EQDQ01+000022SCOTLC
0116821980999991985061718004-01683-045367FM-12+000899999V0201401N00101012001CN0100001N9+02471+02341101081ADDAA106015091AG10999AY161061GF108991051051012501041999MA1999999100571MD1999999+0081MW1521REMSYN017333   58008 60151
0127821980999991985061818004-01683-045367FM-12+000899999V0201401N00411045001CN0100001N9+02821+02331101061ADDAA106000291AA299000391AG10999AY151061GF106991031021012501061011MA1999999100551MD1999999-0021MW1021REMSYN017333   59002 69921
0115821980999991985061900004-01683-045367FM-12+000899999V0200501N00051220001CN0040001N9+02421+02351101251ADDAA106000091AG10999GF100991001001999999001001KA1240M+02951MA1999999100731MD1999999-0051REMSYN017333   10295 59005
0132821980999991985061912004-01683-045367FM-12+000899999V0200901N00361105001CN0100001N9+02771+02361101421ADDAA124000291AA299000391AG10999GF105991021021012501041011KA1240N+02201MA1999999100901MD1999999-0121REMSYN023333   20220 59012 69924
0096821980999991985061918004-01683-045367FM-12+000899999V0200501N00461012001CN0100001N9+02961+02331101011ADDAA106000091AG10999GF105991051021012501001001MA1999999100501MD1999999-0051REMSYN011333   59005
0115821980999991985062100004-01683-045367FM-12+000899999V0200901N00261220001CN0040001N9+02481+02301101201ADDAA106000091AG10999GF102991021011012501001001KA1240M+02911MA1999999100681MD1999999-0021REMSYN017333   10291 59002
0121821980999991985062112004-01683-045367FM-12+000899999V0201401N00151045001CN0100001N9+02501+02291101321ADDAA124013091AG10999GF106991021021012501041011KA1240N+02171MA1999999100801MD1999999-0011REMSYN023333   20217 59001 60134
0096821980999991985062118004-01683-045367FM-12+000899999V0201401N00461045001CN0100001N9+02961+02051101031ADDAA106000091AG10999GF105991031021012501061001MA1999999100521MD1999999+0011REMSYN011333   58001
0116821980999991985062218004-01683-045367FM-12+000899999V0200901N00311045001CN0040001N9+02441+02341101061ADDAA106004091AG10999AY161061GF108991031051012501031999MA1999999100551MD1999999+0031MW1521REMSYN017333   58003 60041
0135821980999991985062312004-01683-045367FM-12+000899999V0201401N00361012001CN0100001N9+02651+02461101311ADDAA124006091AG10999AY161061GF105991051021012501001001KA1240N+02271MA1999999100791MD1999999+0061MW1021REMSYN023333   20227 58006 60064
0096821980999991985062318004-01683-045367FM-12+000899999V0201401N00411220001CN0100001N9+02921+02131101021ADDAA106000091AG10999GF103991031021012501001001MA1999999100501MD1999999-0051REMSYN011333   59005
0115821980999991985062400004-01683-045367FM-12+000899999V0200901N00311220001CN0040001N9+02441+02231101221ADDAA106000091AG10999GF100991001001999999001001KA1240M+02931MA1999999100701MD1999999-0061REMSYN017333   10293 59006
0115821980999991985062412004-01683-045367FM-12+000899999V0201401N00151220001CN0100001N9+02641+02421101171ADDAA106000091AG10999GF103991021011012501001011KA1240N+02121MA1999999100651MD1999999+0141REMSYN017333   20212 58014
0096821980999991985062418004-01683-045367FM-12+000899999V0200401N00311220001CN0100001N9+03131+02281100881ADDAA106000091AG10999GF104991041021012501001001MA1999999100371MD1999999-0131REMSYN011333   59013
0135821980999991985062512004-01683-045367FM-12+000899999V0201401N00261045001CN0100001N9+02531+02331101221ADDAA124003091AG10999AY161061GF106991041021012501031001KA1240N+02191MA1999999100701MD1999999+0051MW1031REMSYN023333   20219 58005 60034
0096821980999991985062518004-01683-045367FM-12+000899999V0201401N00411220001CN0100001N9+02931+02141100921ADDAA106000091AG10999GF104991021021012501031001MA1999999100411MD1999999+0041REMSYN011333   58004
0115821980999991985062612004-01683-045367FM-12+000899999V0201401N00211220001CN0100001N9+02801+02421101301ADDAA106000091AG10999GF103991011011012501041041KA1240N+02201MA1999999100781MD1999999+0081REMSYN017333   20220 58008
0096821980999991985062618004-01683-045367FM-12+000899999V0200501N00411105001CN0200001N9+02951+02261101001ADDAA106000091AG10999GF105991021021012501061021MA1999999100491MD1999999+0081REMSYN011333   58008
0115821980999991985062700004-01683-045367FM-12+000899999V0200901N00261220001CN0040001N9+02521+02231101251ADDAA106000091AG10999GF103991031001999999061001KA1240M+03041MA1999999100741MD1999999+0191REMSYN017333   10304 58019
0115821980999991985062712004-01683-045367FM-12+000899999V0200901N00101012001CN0100001N9+02541+02351101341ADDAA106000091AG10999GF108991051021012501061999KA1240N+02261MA1999999100841MD1999999+0051REMSYN017333   20226 58005
0116821980999991985062718004-01683-045367FM-12+000899999V0201401N00051045001CN0100001N9+02711+02281101121ADDAA106010091AG10999AY161061GF108991031021012501031999MA1999999100611MD1999999+0121MW1021REMSYN017333   58012 60101
0121821980999991985062812004-01683-045367FM-12+000899999V0201401N000519999999N0100001N9+02651+02411101211ADDAA124010091AG10999GF106991061001012501031001KA1240N+02211MA1999999100701MD1999999+0131REMSYN023333   20221 58013 60104
0096821980999991985062818004-01683-045367FM-12+000899999V0201401N00151045001CN0100001N9+02861+02351100891ADDAA106000091AG10999GF106991031021012501061001MA1999999100381MD1999999-0231REMSYN011333   59023
0115821980999991985062912004-01683-045367FM-12+000899999V0201401N00211220001CN0100001N9+02771+02401101171ADDAA106000091AG10999GF105991041021012501001011KA1240N+02201MA1999999100611MD1999999-0041REMSYN017333   20220 59004
0096821980999991985062918004-01683-045367FM-12+000899999V0201401N00151045001CN0100001N9+03001+02321100851ADDAA106000091AG10999GF106991041021012501061011MA1999999100341MD1999999-0041REMSYN011333   59004
0134821980999991985063000004-01683-045367FM-12+000899999V0200901N00151220001CN0040001N9+03531+02441101081ADDAA106000091AG10999GF100991001001999999001001KA1240M+99999MA1999999100571MD1999999-0051REMSYN017333   10307 59005EQDQ01 +03072ATMX  
0115821980999991985063012004-01683-045367FM-12+000899999V0200901N00361012001CN0100001N9+02821+02481101261ADDAA106000091AG10999GF105991051021012501001001KA1240N+02381MA1999999100741MD1999999+0081REMSYN017333   20238 58008
0116821980999991985063018004-01683-045367FM-12+000899999V0200901N00211045001CN0100001N9+02751+02281101001ADDAA106005091AG10999AY161061GF106991041021012501061001MA1999999100491MD1999999-0151MW1021REMSYN017333   59015 60051
0115821980999991985070100004-01683-045367FM-12+000899999V0200901N00261220001CN0200001N9+02521+02291101251ADDAA106000091AG10999GF102991021001012501031001KA1240M+03031MA1999999100731MD1999999+0141REMSYN017333   10303 58014
0135821980999991985070112004-01683-045367FM-12+000899999V0200901N00151220001CN0100001N9+02601+02371101411ADDAA124007091AG10999AY161061GF103991031011012501001001KA1240N+02331MA1999999100891MD1999999+0151MW1021REMSYN023333   20233 58015 60074
0096821980999991985070118004-01683-045367FM-12+000899999V0200901N00411220001CN0100001N9+03011+02021101161ADDAA106000091AG10999GF103991011011012501041041MA1999999100641MD1999999+0151REMSYN011333   58015
0115821980999991985070212004-01683-045367FM-12+000899999V0200901N00151220001CN0100001N9+02821+02501101501ADDAA106000091AG10999GF105991031021012501001011KA1240N+02311MA1999999100981MD1999999+0091REMSYN017333   20231 58009
0116821980999991985070218004-01683-045367FM-12+000899999V0201401N00211105001CN0100001N9+02781+02521101241ADDAA106002091AG10999AY161061GF105991021021012501061011MA1999999100721MD1999999+0081MW1021REMSYN017333   58008 60021
0115821980999991985070300004-01683-045367FM-12+000899999V0200901N00261220001CN0040001N9+02531+02251101421ADDAA106000091AG10999GF101991011001012501041001KA1240M+03001MA1999999100901MD1999999+0031REMSYN017333   10300 58003
0135821980999991985070312004-01683-045367FM-12+000899999V0200901N00151105001CN0100001N9+02691+02411101481ADDAA124030091AG10999AY161061GF105991021021012501041041KA1240N+02101MA1999999100961MD1999999-0021MW1031REMSYN023333   20210 59002 60304
0116821980999991985070318004-01683-045367FM-12+000899999V0200901N00721105001CN0100001N9+02431+02341101261ADDAA106007091AG10999AY161061GF106991021021012501041041MA1999999100751MD1999999+0031MW1021REMSYN017333   58003 60071
0115821980999991985070400004-01683-045367FM-12+000899999V0200501N00311220001CN0040001N9+02521+02311101351ADDAA106000091AG10999GF101991011011012501001001KA1240M+02901MA1999999100831MD1999999-0071REMSYN017333   10290 59007
0121821980999991985070412004-01683-045367FM-12+000899999V0200501N00411220001CN0100001N9+02741+02401101381ADDAA124007091AG10999GF103991031021012501001001KA1240N+02301MA1999999100861MD1999999-0101REMSYN023333   20230 59010 60074
0096821980999991985070418004-01683-045367FM-12+000899999V0200901N00411220001CN0200001N9+03111+02371101101ADDAA106000091AG10999GF103991031021012501001001MA1999999100581MD1999999-0171REMSYN011333   59017
0115821980999991985070500004-01683-045367FM-12+000899999V0200501N00311220001CN0040001N9+02501+02381101291ADDAA106000091AG10999GF103991021011012501001011KA1240M+03011MA1999999100871MD1999999-0051REMSYN017333   10301 59005
0115821980999991985070512004-01683-045367FM-12+000899999V0200501N00051220001CN0100001N9+02691+02411101371ADDAA106000091AG10999GF104991021021012501031001KA1240N+02141MA1999999100851MD1999999-0011REMSYN017333   20214 59001
0116821980999991985070518004-01683-045367FM-12+000899999V0201801N00051045001CN0100001N9+02571+02371101101ADDAA106015091AG10999AY161061GF105991031021012501061001MA1999999100581MD1410001+0001MW1021REMSYN017333   58000 60151
0096821980999991985070818004-01683-045367FM-12+000899999V0200501N00361220001CN0100001N9+02991+02441100981ADDAA106000091AG10999GF103991021011012501001011MA1999999100461MD1999999-0041REMSYN011333   59004
0115821980999991985070912004-01683-045367FM-12+000899999V0200501N00311220001CN0100001N9+02771+02361101241ADDAA106000091AG10999GF103991031011012501001001KA1240N+02341MA1999999100721MD1999999+0041REMSYN017333   20234 58004
0116821980999991985070918004-01683-045367FM-12+000899999V0201401N00211045001CN0040001N9+02401+02371100971ADDAA106008091AG10999AY161061GF106991041071012501061001MA1999999100451MD1999999-0011MW1031REMSYN017333   59001 60081
0096821980999991985071018004-01683-045367FM-12+000899999V0200501N00511045001CN0100001N9+02431+02271101041ADDAA106000091AG10999GF105991021021012501061001MA1999999100521MD1999999+0071REMSYN011333   58007
0135821980999991985071100004-01683-045367FM-12+000899999V0200901N00311220001CN0040001N9+02301+02111101171ADDAA106002091AG10999AY161061GF102991021021012501001001KA1240M+03031MA1999999100661MD1999999-0011MW1011REMSYN023333   10303 59001 60021
0135821980999991985071112004-01683-045367FM-12+000899999V0200901N00311220001CN0040001N9+02301+02111101171ADDAA106002091AG10999AY161061GF102991021021012501001001KA1240M+03031MA1999999100661MD1999999-0011MW1011REMSYN023333   10303 59001 60021
0116821980999991985071118004-01683-045367FM-12+000899999V0200901N00211105001CN0100001N9+02571+02381100891ADDAA106001091AG10999AY161061GF105991021021012501041041MA1999999100371MD1999999-0151MW1031REMSYN017333   59015 60011
0135821980999991985071200004-01683-045367FM-12+000899999V0200901N00261220001CN0040001N9+02401+02371101191ADDAA106013091AG10999AY161061GF102991021011012501001001KA1240M+02951MA1999999100671MD1999999+0011MW1011REMSYN023333   10295 58001 60131
0135821980999991985071212004-01683-045367FM-12+000899999V0200901N00411012001CN0100001N9+02281+02141101421ADDAA124015091AG10999AY161061GF107991051071012501021001KA1240N+02201MA1999999100901MD1999999+0191MW1031REMSYN023333   20220 58019 60154
0116821980999991985071218004-01683-045367FM-12+000899999V0200901N00511012001CN0100001N9+02781+02341101061ADDAA106001091AG10999AY161061GF106991051021012501031001MA1999999100541MD1999999+0171MW1021REMSYN017333   58017 60011
0129821980999991985071300004-01683-045367FM-12+000899999V0200901N00151220001CN0040001N9+02401+02311101321ADDAA106000091AG10999AY101061GF102991021011999999001001KA1240M+02831MA1999999100801MD1999999+0131MW1131REMSYN017333   10283 58013
0121821980999991985071312004-01683-045367FM-12+000899999V0201401N00311220001CN0100001N9+02581+02251101431ADDAA124001091AG10999GF103991021021012501041041KA1240N+02201MA1999999100911MD1999999+0011REMSYN023333   20220 58001 60014
0096821980999991985071418004-01683-045367FM-12+000899999V0201401N00211220001CN0100001N9+02771+02301101031ADDAA106000091AG10999GF103991011021012501041041MA1999999100511MD1999999-0131REMSYN011333   59013
0135821980999991985071512004-01683-045367FM-12+000899999V0209991C00001105001CN0100001N9+02481+02391101191ADDAA124001091AG10999AY161061GF105991021021012501041011KA1240N+02191MA1999999100671MD1999999-0171MW1031REMSYN023333   20219 59017 60014
0121821980999991985071612004-01683-045367FM-12+000899999V0201401N00101220001CN0100001N9+02471+02291101291ADDAA124000191AG10999GF107991041021012501001011KA1240N+02191MA1999999100771MD1999999+0101REMSYN023333   20219 58010 69914
0096821980999991985071618004-01683-045367FM-12+000899999V0201401N00211045001CN0100001N9+02681+02281101001ADDAA106000091AG10999GF106991031021012501041041MA1999999100481MD1999999+0101REMSYN011333   58010
0132821980999991985071712004-01683-045367FM-12+000899999V0201401N00151045001CN0100001N9+02411+02261101251ADDAA124000491AA299000591AG10999GF105991031021012501041001KA1240N+02191MA1999999100751MD1999999-0021REMSYN023333   20219 59002 69944
0096821980999991985071718004-01683-045367FM-12+000899999V0201401N00311045001CN0100001N9+02861+02231101011ADDAA106000091AG10999GF106991041021012501041001MA1999999100491MD1999999-0011REMSYN011333   59001
0115821980999991985071812004-01683-045367FM-12+000899999V0201401N00361220001CN0100001N9+02621+02161101271ADDAA106000091AG10999GF103991011021012501041011KA1240N+02281MA1999999100751MD1410001+0001REMSYN017333   20228 58000
0096821980999991985071818004-01683-045367FM-12+000899999V0201501N00411220001CN0100001N9+02961+02111101051ADDAA106000091AG10999GF103991011021012501041011MA1999999100531MD1999999+0041REMSYN011333   58004
0115821980999991985071900004-01683-045367FM-12+000899999V0200901N00151220001CN0040001N9+02521+02361101191ADDAA106000091AG10999GF100991001001999999001001KA1240M+02991MA1999999100671MD1999999-0031REMSYN017333   10299 59003
0118821980999991985071912004-01683-045367FM-12+000899999V0201401N00311105001CN0100001N9+02421+02191101311ADDAG10999AY161061GF105991021021012501011011KA1240N+02191MA1999999100791MD1999999+0041MW1031REMSYN017333   20219 58004
0096821980999991985071918004-01683-045367FM-12+000899999V0201401N00261045001CN0100001N9+02771+02271101061ADDAA106000091AG10999GF106991041021012501061001MA1999999100541MD1999999+0011REMSYN011333   58001
0121821980999991985072012004-01683-045367FM-12+000899999V0201401N00311012001CN0100001N9+02361+01991101291ADDAA124002091AG10999GF106991061021012501021001KA1240N+02171MA1999999100771MD1999999-0021REMSYN023333   20217 59002 60024
0096821980999991985072018004-01683-045367FM-12+000899999V0201801N00361220001CN0100001N9+02851+01981101001ADDAA106000091AG10999GF102991021001012501041011MA1999999100481MD1999999-0061REMSYN011333   59006
0115821980999991985072112004-01683-045367FM-12+000899999V0201801N00261220001CN0100001N9+02601+02081101101ADDAA106000091AG10999GF102991021001012501001041KA1240N+02151MA1999999100581MD1999999-0191REMSYN017333   20215 59019
0096821980999991985072118004-01683-045367FM-12+000899999V0201801N00311220001CN0200001N9+02981+02011100911ADDAA106000091AG10999GF103991011011012501001041MA1999999100391MD1999999-0091REMSYN011333   59009
0115821980999991985072212004-01683-045367FM-12+000899999V0200901N00211045001CN0100001N9+02741+02341101161ADDAA106000091AG10999GF106991021021012501011011KA1240N+02161MA1999999100641MD1999999+0061REMSYN017333   20216 58006
0093821980999991985072218004-01683-045367FM-12+000899999V0200901N001519999999N0100001N9+02541+02331101001ADDAG10999GA1021+033009029GF106991999999012501999999MA1999999100481REMSYN017333   70262 82261
0121821980999991985072312004-01683-045367FM-12+000899999V0200901N00411220001CN0100001N9+02821+02401101131ADDAA124000591AG10999GF104991041021012501001001KA1240N+02291MA1999999100611MD1999999-0031REMSYN023333   20229 59003 69954
0116821980999991985072318004-01683-045367FM-12+000899999V0200901N00411105001CN0100001N9+02991+02241100841ADDAA106000591AG10999AY161061GF105991021041012501041011MA1999999100321MD1999999-0161MW1021REMSYN017333   59016 69951
0121821980999991985072412004-01683-045367FM-12+000899999V0200901N00151220001CN0100001N9+02701+02431101101ADDAA124000591AG10999GF103991031021012501001001KA1240N+02241MA1999999100581MD1999999-0031REMSYN023333   20224 59003 69954
0116821980999991985072418004-01683-045367FM-12+000899999V0200901N00101105001CN0100001N9+02411+02331100961ADDAA106010091AG10999AY161061GF106991021021012501041041MA1999999100401MD1999999+0081MW1031REMSYN017333   58008 60101
0135821980999991985072500004-01683-045367FM-12+000899999V0209991C00001220001CN0040001N9+02231+02191101131ADDAA106001091AG10999AY161061GF104991021021012501061041KA1240M+02961MA1999999100611MD1999999+0061MW1131REMSYN023333   10296 58006 60011
0135821980999991985072512004-01683-045367FM-12+000899999V0201401N00261012001CN0100001N9+02261+02191101261ADDAA124017091AG10999AY181061GF107991051071012501061001KA1240N+02061MA1999999100741MD1999999+0161MW1031REMSYN023333   20206 58016 60174
0096821980999991985072518004-01683-045367FM-12+000899999V0201401N00151105001CN0100001N9+02831+02311100911ADDAA106000091AG10999GF105991021021012501041061MA1999999100391MD1999999-0011REMSYN011333   59001
0115821980999991985072612004-01683-045367FM-12+000899999V0209991C00001220001CN0100001N9+02751+02281101111ADDAA106000091AG10999GF103991031021012501001001KA1240N+02211MA1999999100591MD1999999-0011REMSYN017333   20221 59001
0115821980999991985072700004-01683-045367FM-12+000899999V0200901N00211220001CN0040001N9+02511+02311101061ADDAA106000091AG10999GF103991031001012501031001KA1240M+03011MA1999999100551MD1999999-0031REMSYN017333   10301 59003
0115821980999991985072712004-01683-045367FM-12+000899999V0209991C00001045001CN0100001N9+02461+02361101181ADDAA106000091AG10999GF107991041051012501071001KA1240N+02261MA1999999100661MD1999999+0071REMSYN017333   20226 58007
0116821980999991985072718004-01683-045367FM-12+000899999V0200501N00151045001CN0100001N9+02861+02461100921ADDAA106000391AG10999AY161061GF106991021021012501041011MA1999999100401MD1999999+0061MW1021REMSYN017333   58006 69931
0135821980999991985072812004-01683-045367FM-12+000899999V0201401N001519999999N0100001N9+02391+02281101281ADDAA124024091AG10999AY161061GF105991021001012501031011KA1240N+02161MA1999999100841MD1999999+0101MW1031REMSYN023333   20216 58010 60244
0116821980999991985072818004-01683-045367FM-12+000899999V0201401N00311045001CN0100001N9+02451+02321101091ADDAA106003091AG10999AY161061GF106991041071012501061001MA1999999100571MD1999999+0171MW1031REMSYN017333   58017 60031
0104821980999991985072912004-01683-045367FM-12+000899999V0200901N00361220001CN0100001N9+02521+02271101351ADDAG10999AY161061GF103991021021012501001011MA1999999100831MW1011WA1904049REMSYN0212224/ 58007 60044 333
0116821980999991985072918004-01683-045367FM-12+000899999V0200901N00461045001CN0200001N9+02721+02261101071ADDAA106003091AG10999AY161061GF106991021021012501011011MA1999999100551MD1999999-0021MW1031REMSYN017333   59002 60031
0121821980999991985073012004-01683-045367FM-12+000899999V0200901N003619999999N0100001N9+02711+02371101311ADDAA124003091AG10999GF106991999999012501999999KA1240N+02301MA1999999100791MD1999999-0041REMSYN023333   20230 59004 60034
0115821980999991985073112004-01683-045367FM-12+000899999V0200901N00461220001CN0100001N9+02741+02301101231ADDAA106000091AG10999GF103991031021012501001001KA1240N+02341MA1999999100711MD1999999-0081REMSYN017333   20234 59008
0096821980999991985073118004-01683-045367FM-12+000899999V0200901N00461220001CN0100001N9+02951+02081100971ADDAA106000091AG10999GF103991031021012501001001MA1999999100461MD1410001+0001REMSYN011333   58000
0102821980999991985080100004-01683-045367FM-12+000899999V0200901N00151220001CN0040001N9+02471+02291101131ADDAA106000091AG10999GF100991001001999999001001MA1999999100611MD1999999-0041REMSYN017333   1/303 59004
0115821980999991985080112004-01683-045367FM-12+000899999V0201401N00211220001CN0100001N9+02681+02391101211ADDAA106000091AG10999GF102991021011012501001001KA1240N+02391MA1999999100691MD1999999-0021REMSYN017333   20239 59002
0096821980999991985080118004-01683-045367FM-12+000899999V0201401N00411012001CN0100001N9+03001+02171100911ADDAA106000091AG10999GF105991051021012501001001MA1999999100401MD1999999-0061REMSYN011333   59006
0115821980999991985080200004-01683-045367FM-12+000899999V0200901N00261220001CN0040001N9+02521+02361101141ADDAA106000091AG10999GF100991001001999999001001KA1240M+03071MA1999999100631MD1999999+0021REMSYN017333   10307 58002
0115821980999991985080212004-01683-045367FM-12+000899999V0200901N00311220001CN0100001N9+02741+02401101281ADDAA106000091AG10999GF102991021011012501001001KA1240N+02271MA1999999100871MD1999999+0071REMSYN017333   20227 58007
0096821980999991985080218004-01683-045367FM-12+000899999V0201401N00461045001CN0100001N9+02841+02011101071ADDAA106000091AG10999GF106991041021012501061001MA1999999100561MD1999999+0161REMSYN011333   58016
0115821980999991985080312004-01683-045367FM-12+000899999V0201401N00261220001CN0100001N9+02601+02191101301ADDAA106000091AG10999GF102991021021012501001001KA1240N+02011MA1999999100781MD1999999+0021REMSYN017333   20201 58002
0115821980999991985080410004-01683-045367FM-12+004499999V0201801N00051220001CN0040001N9+02511+02231101191ADDAA106000091AG10999GF102991021011012501001001KA1240M+02991MA1999999100611MD1999999-0071REMSYN017333   10299 59007
0115821980999991985080412004-01683-045367FM-12+000899999V0201401N00151220001CN0100001N9+02661+02351101231ADDAA106000091AG10999GF103991021001012501031011KA1240N+02201MA1999999100711MD1999999-0071REMSYN017333   20220 59007
0116821980999991985080418004-01683-045367FM-12+000899999V0200901N00051012001CN0100001N9+02591+02401101061ADDAA106001091AG10999AY161061GF107991051071012501061001MA1999999100541MD1999999+0011MW1421REMSYN017333   58001 60011
0135821980999991985080500004-01683-045367FM-12+000899999V0200901N00151220001CN0040001N9+02481+02361101181ADDAA106009091AG10999AY161061GF102991021011012501001001KA1240M+03031MA1999999100661MD1999999-0021MW1011REMSYN023333   10303 59002 60091
0135821980999991985080512004-01683-045367FM-12+000899999V0200901N00151220001CN0040001N9+02481+02361101181ADDAA106009091AG10999AY161061GF102991021011012501001001KA1240M+03031MA1999999100661MD1999999-0021MW1011REMSYN023333   10303 59002 60091
0099821980999991985080518004-01683-045367FM-12+000899999V0201401N00261105001CN0100001N9+02551+02381100981ADDAG10999AY161061GF106991021021012501061041MA1999999100461MD1999999-0081MW1031REMSYN011333   59008
0115821980999991985080600004-01683-045367FM-12+000899999V0200901N00151220001CN0040001N9+02481+02361101161ADDAA106000091AG10999GF100991001001999999001001KA1240M+02891MA1999999100641MD1999999-0021REMSYN017333   10289 59002
0121821980999991985080612004-01683-045367FM-12+000899999V0200901N00461012001CN0100001N9+02751+02361101201ADDAA124009091AG10999GF105991051021012501001001KA1240N+02331MA1999999100681MD1999999+0011REMSYN023333   20233 58001 60094
0096821980999991985080618004-01683-045367FM-12+000899999V0200901N00361220001CN0100001N9+02901+02321100901ADDAA106000091AG10999GF103991011021012501041011MA1999999100381MD1999999-0081REMSYN011333   59008
0115821980999991985080712004-01683-045367FM-12+000899999V0200901N00511045001CN0100001N9+02751+02361101101ADDAA106000091AG10999GF106991041021012501061001KA1240N+02321MA1999999100581MD1999999-0101REMSYN017333   20232 59010
0116821980999991985080718004-01683-045367FM-12+000899999V0200901N00411105001CN0100001N9+02831+02291100801ADDAA106001091AG10999AY161061GF105991021021012501041041MA1999999100341MD1999999-0141MW1021REMSYN017333   59014 60011
0115821980999991985080800004-01683-045367FM-12+000899999V0201801N00101220001CN0040001N9+02481+02331101001ADDAA106000091AG10999GF100991001001999999001001KA1240M+02871MA1999999100491MD1999999-0071REMSYN017333   10287 59007
0115821980999991985080900004-01683-045367FM-12+000899999V0200901N00211220001CN0040001N9+02521+02361101041ADDAA106000091AG10999GF100991001001999999001001KA1240M+02971MA1999999100531MD1999999+0041REMSYN017333   10297 58004
0121821980999991985080912004-01683-045367FM-12+000899999V0200901N00361220001CN0100001N9+02801+02381101171ADDAA124004091AG10999GF103991031021012501001001KA1240N+02291MA1999999100651MD1999999+0111REMSYN023333   20229 58011 60044
0116821980999991985080918004-01683-045367FM-12+000899999V0200901N00151045001CN0100001N9+02701+02261100931ADDAA106004091AG10999AY161061GF106991031021012501061001MA1999999100421MD1999999+0151MW1021REMSYN017333   58015 60041
0121821980999991985081012004-01683-045367FM-12+000899999V0200401N00411012001CN0100001N9+02841+02481101191ADDAA124004091AG10999GF105991051021012501001001KA1240N+02341MA1999999100671MD1999999+0021REMSYN023333   20234 58002 60044
0127821980999991985081018004-01683-045367FM-12+000899999V0200901N00151012001CN0100001N9+02631+02371100911ADDAA106002091AA299000091AG10999AY161061GF108991051051012501061999MA1999999100401MD1999999-0021MW1021REMSYN017333   59002 60021
0084821980999991985081512004-01683-045367FM-12+000899999V0200201N00051220001CN0350001N9-00021-00081101721ADDAG10999GF105991021001999999031011MA1999999101151MD1210061+9999EQDQ01+999990APOSP 
0115821980999991985082112004-01683-045367FM-12+000899999V0200901N00211012001CN0100001N9+02791+02361101221ADDAA106000091AG10999GF105991051021012501001001KA1240N+02381MA1999999100701MD1999999+0051REMSYN017333   20238 58005
0116821980999991985082118004-01683-045367FM-12+000899999V0200801N00261012001CN0100001N9+02301+02201100891ADDAA106018091AG10999AY161061GF108991051051012501021999MA1999999100381MD1999999-0091MW1521REMSYN017333   59009 60181
0116821980999991985082218004-01683-045367FM-12+000899999V0200501N00461012001CN0100001N9+02821+02331100911ADDAA199001091AG10999AY161061GF106991061021012501001001MA1999999100401MD1999999+0021MW1021REMSYN017333   58002 60010
0121821980999991985082312004-01683-045367FM-12+000899999V0200901N00411220001CN0100001N9+02811+02361101211ADDAA124001091AG10999GF103991031021012501001001KA1240N+02241MA1999999100691MD1999999-0031REMSYN023333   20224 59003 60014
0096821980999991985082318004-01683-045367FM-12+000899999V0200501N00411045001CN0100001N9+02951+02311101021ADDAA106000091AG10999GF105991041021012501061001MA1999999100511MD1999999+0111REMSYN011333   58011
0115821980999991985082700004-01683-045367FM-12+000899999V0200901N00261220001CN0040001N9+02531+02341101141ADDAA106000091AG10999GF100991001001999999001001KA1240M+03021MA1999999100611MD1999999+0041REMSYN017333   10302 58004
0115821980999991985082712004-01683-045367FM-12+000899999V0200901N00461012001CN0100001N9+02751+02321101321ADDAA106000091AG10999GF105991051021012501001001KA1240N+02341MA1999999100801MD1999999+0081REMSYN017333   20234 58008
0116821980999991985082718004-01683-045367FM-12+000899999V0200901N00461105001CN0100001N9+02921+02241100991ADDAA106004091AG10999AY161061GF105991021021012501051021MA1999999100481MD1999999+0031MW1011REMSYN017333   58003 60041
0115821980999991985082800004-01683-045367FM-12+000899999V0200501N00311220001CN0040001N9+02491+02311101181ADDAA106000091AG10999GF102991011011012501001011KA1240M+03031MA1999999100661MD1999999+0031REMSYN017333   10303 58003
0121821980999991985082812004-01683-045367FM-12+000899999V0200901N00361012001CN0100001N9+02831+02351101121ADDAA124004091AG10999GF105991051021012501001001KA1240N+02301MA1999999100601MD1999999-0011REMSYN023333   20230 59001 60044
0096821980999991985082818004-01683-045367FM-12+000899999V0200901N00571220001CN0100001N9+02921+02241100861ADDAA106000091AG10999GF106991041021012501001011MA1999999100351MD1999999-0131REMSYN011333   59013
0115821980999991985082900004-01683-045367FM-12+000899999V0200501N00211045001CN0040001N9+02521+02361101121ADDAA106000091AG10999GF106991041021012501061001KA1240M+03041MA1999999100601MD1999999-0061REMSYN017333   10304 59006
0115821980999991985082912004-01683-045367FM-12+000899999V0200901N00411012001CN0100001N9+02771+02271101261ADDAA106000091AG10999GF105991051021012501001001KA1240N+02371MA1999999100741MD1999999+0051REMSYN017333   20237 58005
0096821980999991985082918004-01683-045367FM-12+000899999V0200901N00571012001CN0100001N9+02981+02281101031ADDAA106000091AG10999GF105991051021012501001001MA1999999100521MD1999999+0171REMSYN011333   58017
0115821980999991985083012004-01683-045367FM-12+000899999V0200901N00461220001CN0100001N9+02781+02251101331ADDAA106000091AG10999GF103991031021012501001001KA1240N+02371MA1999999100811MD1999999+0071REMSYN017333   20237 58007
0096821980999991985083018004-01683-045367FM-12+000899999V0200901N00571012001CN0100001N9+02921+02121101041ADDAA106000091AG10999GF105991051021012501001001MA1999999100531MD1999999+0011REMSYN011333   58001
0115821980999991985083112004-01683-045367FM-12+000899999V0200901N00311220001CN0100001N9+02801+02271101341ADDAA106000091AG10999GF103991031021012501001001KA1240N+02291MA1999999100821MD1999999+0011REMSYN017333   20229 58001
0096821980999991985083118004-01683-045367FM-12+000899999V0200901N00051220001CN0100001N9+02951+02211100991ADDAA106000091AG10999GF104991041021012501001001MA1999999100481MD1999999-0041REMSYN011333   59004
0115821980999991985090112004-01683-045367FM-12+000899999V0200901N00311220001CN0100001N9+02731+02301101341ADDAA106000091AG10999GF104991041021012501001001KA1240N+02361MA1999999100821MD1410001+0001REMSYN017333   20236 58000
0096821980999991985090118004-01683-045367FM-12+000899999V0201401N00211045001CN0100001N9+02871+02461101001ADDAA106000091AG10999GF105991031021012501061001MA1999999100481MD1999999-0011REMSYN011333   59001
0134821980999991985090212004-01683-045367FM-12+000899999V0200901N00261220001CN0100001N9+02781+02341101171ADDAA106000091AG10999GF104991999021012501001001KA1240N+02361MA1999999100651MD1999999-0171REMSYN017333   20236 59017EQDQ01+000032SCOTLC
0135821980999991985090218004-01683-045367FM-12+000899999V0200501N00411045001CN0200001N9+02641+02391100861ADDAA106007091AG10999AY161061GF105991031021012501061001MA1999999100351MD1999999-0231MW1031REMSYN017333   59023 60071EQDQ01+999990APOSP 
0134821980999991985090300004-01683-045367FM-12+000899999V0200501N04992220001CN0040001N9+02561+02351101061ADDAA106000091AG10999GF101991011011012501001001KA1240M+03101MA1999999100541MD1999999-0171REMSYN017333   10310 59017EQDQ01+004993WOSPD 
0140821980999991985090312004-01683-045367FM-12+000899999V0200901N00511220001CN0100001N9+02821+02381101181ADDAA124007091AG10999GF102991021021012501001001KA1240N+02441MA1999999999999MD1999999-0011REMSYN023333   20244 59001 60074EQDQ01 090663APOSP 
0115821980999991985090318004-01683-045367FM-12+000899999V0200901N00511012001CN0100001N9+03001+02291100851ADDAA106000091AG10999GF105991051021012501001001MA1999999100342MD1410001+0001REMSYN011333   58000EQDQ01+100343APOSP 
0135821980999991985090400004-01683-045367FM-12+000899999V0200901N00311220001CN0040001N9+02541+02441101021ADDAA106002091AG10999AY161061GF100991001001999999001001KA1240M+03081MA1999999100511MD1999999-0031MW1021REMSYN023333   10308 59003 60021
0132821980999991985090412004-01683-045367FM-12+000899999V0200901N00361220001CN0100001N9+02821+02291101241ADDAA106000091AA224002091AG10999GF103991031021012501001001KA1240N+02321MA1999999100721MD1999999+0061REMSYN023333   20232 58006 60024
0096821980999991985090418004-01683-045367FM-12+000899999V0200901N00511012001CN0100001N9+02881+02161100931ADDAA106000091AG10999GF105991051021012501001001MA1999999100421MD1999999+0081REMSYN011333   58008
0115821980999991985090512004-01683-045367FM-12+000899999V0200901N00511220001CN0100001N9+02831+00231101171ADDAA106000091AG10999GF103991999999012501999999KA1240N+02341MA1999999100651MD1999999-0071REMSYN017333   20234 59007
0146821980999991985090518004-01683-045367FM-12+000899999V0200901N005119999999N0100001N9+02821+02362100771ADDAA106000891AA299001091AG10999AY151061GF105991999051012501001001MA1999999100261MD1999999-0161MW1021REMSYN017333   59016 69981EQDQ01+000022SCOTLC
0115821980999991985090600004-01683-045367FM-12+000899999V0200901N00261220001CN0040001N9+02501+02311100981ADDAA106000091AG10999GF100991001001999999001001KA1240M+03111MA1999999100471MD1999999-0101REMSYN017333   10311 59010
0132821980999991985090612004-01683-045367FM-12+000899999V0200501N00311220001CN0100001N9+02831+02421101111ADDAA124000891AA299001091AG10999GF103991031021012501001001KA1240N+02381MA1999999100591MD1999999-0061REMSYN023333   20238 59006 69984
0096821980999991985090618004-01683-045367FM-12+000899999V0200501N00311012001CN0100001N9+02931+02341100701ADDAA106000091AG10999GF106991061021012501001001MA1999999100141MD1999999-0071REMSYN011333   59007
0096821980999991985090718004-01683-045367FM-12+000899999V0200901N00361012001CN0200001N9+03041+02281100771ADDAA106000091AG10999GF105991051021012501001001MA1999999100261MD1999999+0071REMSYN011333   58007
0096821980999991985090818004-01683-045367FM-12+000899999V0200901N00461220001CN0100001N9+03001+02221100731ADDAA106000091AG10999GF104991041021012501001001MA1999999100221MD1999999-0041REMSYN011333   59004
0115821980999991985090912004-01683-045367FM-12+000899999V0200901N00511012001CN0100001N9+02831+02351101001ADDAA106000091AG10999GF105991051021012501001001KA1240N+02421MA1999999100451MD1999999-0061REMSYN017333   20242 59006
0096821980999991985090918004-01683-045367FM-12+000899999V0200901N00621045001CN0100001N9+03051+02281100711ADDAA106000091AG10999GF105991041021012501061001MA1999999100201MD1999999-0021REMSYN011333   59002
0115821980999991985091000004-01683-045367FM-12+000899999V0201901N00261220001CN0040001N9+02541+02461100971ADDAA106000091AG10999GF100991001001999999001001KA1240M+03091MA1999999100961MD1999999+0071REMSYN017333   10309 58007
0115821980999991985091200004-01683-045367FM-12+000899999V0200901N00411220001CN0040001N9+02521+02251101001ADDAA106000091AG10999GF100991001001999999001001KA1240M+03061MA1999999100491MD1999999+0091REMSYN017333   10306 58009
0121821980999991985091212004-01683-045367FM-12+000899999V0200901N00461220001CN0100001N9+02821+02381101091ADDAA124002091AG10999GF103991031021012501001001KA1240N+02371MA1999999100571MD1999999-0071REMSYN023333   20237 59007 60024
0096821980999991985091318004-01683-045367FM-12+000899999V0200901N00411045001CN0200001N9+99999+99999100851ADDAA106000091AG10999GF106991041021012501061001MA1999999100331MD1999999-0031REMSYN011333   59003
0115821980999991985091400004-01683-045367FM-12+000899999V0200901N00261220001CN0040001N9+02511+02271101021ADDAA106000091AG10999GF100991001001999999001001KA1240M+03031MA1999999100511MD1999999-0051REMSYN017333   10303 59005
0115821980999991985091412004-01683-045367FM-12+000899999V0200901N00571220001CN0100001N9+02831+02141101091ADDAA106000091AG10999GF103991031011012501001001KA1240N+02381MA1999999100571MD1999999-0021REMSYN017333   20238 59002
0096821980999991985091418004-01683-045367FM-12+000899999V0200901N00671012001CN0100001N9+02991+02061100841ADDAA106000091AG10999GF105991051041012501001001MA1999999100331MD1410001+0001REMSYN011333   58000
0115821980999991985091500004-01683-045367FM-12+000899999V0200501N00311220001CN0040001N9+02511+02251100961ADDAA106000091AG10999GF100991001001999999001001KA1240M+02991MA1999999100451MD1999999-0061REMSYN017333   10299 59006
0115821980999991985091512004-01683-045367FM-12+000899999V0200901N00361220001CN0100001N9+02801+02271101071ADDAA106000091AG10999GF102991021011012501001001KA1240N+02371MA1999999100551MD1999999-0021REMSYN017333   20237 59002
0116821980999991985091518004-01683-045367FM-12+000899999V0200901N00621220001CN0100001N9+03001+02171100771ADDAA106000191AG10999AY151061GF104991041021012501001001MA1999999100261MD1999999-0071MW1021REMSYN017333   59007 69911
0115821980999991985091600004-01683-045367FM-12+000899999V0200401N00211220001CN0040001N9+02501+02211101011ADDAA106000091AG10999GF100991001001999999001001KA1240M+03041MA1999999100501MD1999999+0051REMSYN017333   10304 58005
0121821980999991985091612004-01683-045367FM-12+000899999V0200901N00621220001CN0100001N9+02761+02251101131ADDAA124000191AG10999GF104991041021012501001001KA1240N+02331MA1999999100611MD1999999+0061REMSYN023333   20233 58006 69914
0096821980999991985091618004-01683-045367FM-12+000899999V0200901N00511220001CN0100001N9+03051+02141100791ADDAA106000091AG10999GF100991001001999999001001MA1999999100281MD1999999+0021REMSYN011333   58002
0115821980999991985091712004-01683-045367FM-12+000899999V0200901N00461220001CN0100001N9+02841+02331101251ADDAA106000091AG10999GF103991031021012501001001KA1240N+02331MA1999999100731MD1999999+0121REMSYN017333   20233 58012
0115821980999991985091900004-01683-045367FM-12+000899999V0200901N00261220001CN0040001N9+02521+02251101121ADDAA106000091AG10999GF100991001001999999001001KA1240M+03051MA1999999100651MD1410001+0001REMSYN017333   10305 58000
0115821980999991985091912004-01683-045367FM-12+000899999V0200901N00311220001CN0100001N9+02841+02241101121ADDAA106000091AG10999GF102991021021012501001001KA1240N+02301MA1999999100611MD1999999-0171REMSYN017333   20230 59017
0096821980999991985091918004-01683-045367FM-12+000899999V0200901N00311220001CN0100001N9+03021+02181100841ADDAA106000091AG10999GF104991041021012501001001MA1999999100331MD1999999-0231REMSYN011333   59023
0115821980999991985092000004-01683-045367FM-12+004499999V0200501N00311220001CN0100001N9+02741+02401101071ADDAA106000091AG10999GF104991021031999999001061KA1240M+03241MA1999999100891MD1999999-0111REMSYN017333   10324 59011
0115821980999991985092012004-01683-045367FM-12+004499999V0200901N00311220001CN0100001N9+02821+02291101071ADDAA106000091AG10999GF102991021011012501001001KA1240N+02361MA1999999100551MD1999999-0061REMSYN017333   20236 59006
0115821980999991985092100004-01683-045367FM-12+004499999V0200501N00261220001CN0040001N9+02481+02321101001ADDAA106000091AG10999GF100991001001999999001001KA1240M+03061MA1999999100491MD1999999-0071REMSYN017333   10306 59007
0115821980999991985092112004-01683-045367FM-12+004499999V0200501N00411220001CN0100001N9+02821+02381101051ADDAA106000091AG10999GF102991021021012501001001KA1240N+02361MA1999999100531MD1999999-0021REMSYN017333   20236 59002
0096821980999991985092118004-01683-045367FM-12+004499999V0200501N00461012001CN0100001N9+02901+02271100771ADDAA106000091AG10999GF106991061021012501001001MA1999999100261MD1999999-0111REMSYN011333   59011
0115821980999991985092212004-01683-045367FM-12+004499999V0200901N00411045001CN0100001N9+02821+02401101071ADDAA106000091AG10999GF105991031021012501061001KA1240N+02491MA1999999100551MD1999999-0021REMSYN017333   20249 59002
0096821980999991985092218004-01683-045367FM-12+004499999V0200501N00461012001CN0100001N9+02921+02241100801ADDAA106000091AG10999GF106991061021012501001001MA1999999100291MD1999999+0031REMSYN011333   58003
0115821980999991985092300004-01683-045367FM-12+004499999V0200501N00461220001CN0040001N9+02551+02331100931ADDAA106000091AG10999GF103991021001012501031011KA1240M+03031MA1999999100421MD1999999-0071REMSYN017333   10303 59007
0115821980999991985092312004-01683-045367FM-12+004499999V0200901N00101220001CN0100001N9+02721+02281101171ADDAA106000091AG10999GF103991031021012501001001KA1240N+02401MA1999999100651MD1999999+0101REMSYN017333   20240 58010
0115821980999991985092400004-01683-045367FM-12+004499999V0200501N00361220001CN0040001N9+02461+02151100101ADDAA106000091AG10999GF100991001001999999001001KA1240M+03001MA1999999100591MD1999999+0171REMSYN017333   10300 58017
0115821980999991985092412004-01683-045367FM-12+004499999V0200901N00261220001CN0100001N9+02841+02141101191ADDAA106000091AG10999GF103991031021012501001001KA1240N+02271MA1999999100671MD1999999+0021REMSYN017333   20227 58002
0096821980999991985092418004-01683-045367FM-12+004499999V0200501N00101220001CN0100001N9+03021+01991100911ADDAA106000091AG10999GF106991031021012501001011MA1999999100401MD1999999+0041REMSYN011333   58004
0115821980999991985092500004-01683-045367FM-12+004499999V0200501N002619999999N0040001N9+02481+02271101051ADDAA106000091AG10999GF105991999999999999999999KA1240M+03121MA1999999100541MD1999999-0041REMSYN017333   10312 59004
0115821980999991985092512004-01683-045367FM-12+004499999V0200501N00311220001CN0100001N9+02871+02301101201ADDAA106000091AG10999GF104991041021012501001001KA1240N+02311MA1999999100681MD1999999+0011REMSYN017333   20231 58001
0096821980999991985092518004-01683-045367FM-12+004499999V0200901N00571015001CN0100001N9+02961+02261100851ADDAA106000091AG10999GF106991061021017501001001MA1999999100341MD1999999-0061REMSYN011333   59006
0115821980999991985092600004-01683-045367FM-12+004499999V0200501N00361220001CN0040001N9+02561+02231101001ADDAA106000091AG10999GF100991001001999999001001KA1240M+03171MA1999999100491MD1999999-0051REMSYN017333   10317 59005
0115821980999991985092612004-01683-045367FM-12+004499999V0200501N00411220001CN0100001N9+02851+02311101091ADDAA106000091AG10999GF103991031021012501001001KA1240N+02381MA1999999100571MD1999999-0111REMSYN017333   20238 59011
0096821980999991985092618004-01683-045367FM-12+004499999V0200901N00461220001CN0100001N9+03081+02071100771ADDAA106000091AG10999GF103991031021012501001001MA1999999100261MD1999999-0081REMSYN011333   59008
0115821980999991985092700004-01683-045367FM-12+004499999V0200501N00101220001CN0040001N9+02511+02311100891ADDAA106000091AG10999GF102991011021012501001011KA1240M+03151MA1999999100381MD1999999-0111REMSYN017333   10315 59011
0115821980999991985092712004-01683-045367FM-12+004499999V0200901N00511220001CN0100001N9+02851+02371101091ADDAA106000091AG10999GF104991041011012501001001KA1240N+02391MA1999999100571MD1410001+0001REMSYN017333   20239 58000
0096821980999991985092718004-01683-045367FM-12+004499999V0200901N00621012001CN0100001N9+02971+02281100771ADDAA106000091AG10999GF105991051021012501001001MA1999999100261MD1410001+0001REMSYN011333   58000
0076821980999991985092800004-01683-045367FM-12+004499999V0200501N00211220001CN0040001N9+02521+02291100961ADDAA106000091AG10999GF100991001001999999001001MA1999999100401MD1810071+9999
0115821980999991985092812004-01683-045367FM-12+004499999V0200501N00261012001CN0100001N9+02821+02381101141ADDAA106000091AG10999GF105991051021012501001001KA1240N+02361MA1999999100621MD1999999+0051REMSYN017333   20236 58005
0115821980999991985092900004-01683-045367FM-12+004499999V0200901N00311220001CN0040001N9+02541+02351101001ADDAA106000091AG10999GF100991001001999999001001KA1240M+03291MA1999999100491MD1999999+0041REMSYN017333   10329 58004
0115821980999991985092912004-01683-045367FM-12+004499999V0200901N00311220001CN0100001N9+02801+02361101171ADDAA106000091AG10999GF105991021021012501031091KA1240N+02371MA1999999100651MD1999999+0031REMSYN017333   20237 58003
0096821980999991985092918004-01683-045367FM-12+004499999V0200601N00571220001CN0100001N9+03021+02211100761ADDAA106000091AG10999GF103991031021012501001001MA1999999100251MD1999999-0131REMSYN011333   59013
0115821980999991985093000004-01683-045367FM-12+004499999V0200501N00361220001CN0040001N9+02541+02211100981ADDAA106000091AG10999GF100991001001999999001001KA1240M+03111MA1999999100471MD1999999-0021REMSYN017333   10311 59002
0134821980999991985093012004-01683-045367FM-12+004499999V0200501N00411220001CN0100001N9+02901+02261100981ADDAA106000091AG10001GF103991031021012501001001KA1240N+02051MA1999999100471MD1999999-0181REMSYN017333   20205 59018EQDQ01+999990APOSLP
0096821980999991985093018004-01683-045367FM-12+004499999V0200901N00411012001CN0100001N9+03041+02361100721ADDAA106000091AG10999GF105991051021012501001001MA1999999100851MD1999999-0051REMSYN011333   59005
0115821980999991985100112004-01683-045367FM-12+004499999V0200501N00311220001CN0100001N9+02781+02321101031ADDAA106000091AG10999GF105991031021012501001011KA1240N+02371MA1999999100511MD1999999+0041REMSYN017333   20237 58004
0096821980999991985100118004-01683-045367FM-12+004499999V0200501N00511220001CN0100001N9+02961+02211100791ADDAA106000091AG10999GF104991041021012501001001MA1999999100281MD1999999+0081REMSYN011333   58008
0115821980999991985100200004-01683-045367FM-12+004499999V0200901N00261220001CN0040001N9+02501+02191101051ADDAA106000091AG10999GF100991001001999999001001KA1240M+03141MA1999999100541MD1999999+0211REMSYN017333   10314 58021
0115821980999991985100212004-01683-045367FM-12+004499999V0200901N00311220001CN0100001N9+02831+02381101171ADDAA106000091AG10999GF103991031021012501001001KA1240N+02341MA1999999100651MD1999999+0141REMSYN017333   20234 58014
0096821980999991985100218004-01683-045367FM-12+004499999V0200901N00571220001CN0100001N9+03041+02201100921ADDAA106000091AG10999GF103991031021012501001001MA1999999100411MD1999999+0131REMSYN011333   58013
0134821980999991985100300004-01683-045367FM-12+004499999V0200501N00311220001CN0040001N9+02531+02351101101ADDAA106000091AG10999GF103991011011012501001011KA1240M+03131MA1999999100581MD1999999+0041REMSYN017333   10313 58004EQDQ01+999990APOSP 
0115821980999991985100312004-01683-045367FM-12+004499999V0200501N00411012001CN0100001N9+02861+02331101251ADDAA106000091AG10999GF105991051021012501001001KA1240N+02441MA1999999100731MD1999999+0081REMSYN017333   20244 58008
0096821980999991985100318004-01683-045367FM-12+004499999V0200901N00511012001CN0100001N9+03061+02191100931ADDAA106000091AG10999GF105991051021012501001001MA1999999100421MD1999999+0011REMSYN011333   58001
0115821980999991985100400004-01683-045367FM-12+004499999V0200901N00311220001CN0040001N9+02511+02321101051ADDAA106000091AG10999GF100991001001999999001001KA1240M+03151MA1999999100541MD1999999+0041REMSYN017333   10315 58004
0115821980999991985100412004-01683-045367FM-12+004499999V0200901N00671220001CN0100001N9+02881+02131101211ADDAA106000091AG10999GF103991031021012501001001KA1240N+02311MA1999999100691MD1999999-0041REMSYN017333   20231 59004
0096821980999991985100418004-01683-045367FM-12+004499999V0200901N00461220001CN0100001N9+02951+02111100941ADDAA106000091AG10999GF104991041021012501001001MA1999999100431MD1999999+0011REMSYN011333   58001
0115821980999991985100512004-01683-045367FM-12+004499999V0200501N00211220001CN0100001N9+02911+02191101081ADDAA106000091AG10999GF103991031021012501001001KA1240N+02321MA1999999100571MD1999999-0121REMSYN017333   20232 59012
0096821980999991985100518004-01683-045367FM-12+004499999V0200901N00261220001CN0100001N9+02981+02201100761ADDAA106000091AG10999GF104991041021012501001001MA1999999100251MD1999999-0181REMSYN011333   59018
0115821980999991985100612004-01683-045367FM-12+004499999V0200501N00311105001CN0100001N9+02861+02231101081ADDAA106000091AG10999GF105991021021012501031011KA1240N+02351MA1999999100571MD1410001+0001REMSYN017333   20235 58000
0115821980999991985100712004-01683-045367FM-12+004499999V0200501N00511220001CN0100001N9+02821+02151101011ADDAA106000091AG10999GF104991041021012501001001KA1240N+02501MA1999999100491MD1999999+0131REMSYN017333   20250 58013
0096821980999991985100718004-01683-045367FM-12+004499999V0200501N00571012001CN0100001N9+02951+02261101011ADDAA106000091AG10999GF105991051021012501001001MA1999999100501MD1999999+0211REMSYN011333   58021
0115821980999991985100812004-01683-045367FM-12+004499999V0200501N00621220001CN0100001N9+02851+02141101311ADDAA106000091AG10999GF104991041021012501001001KA1240N+02331MA1999999100791MD1999999+0071REMSYN017333   20233 58007
0096821980999991985100818004-01683-045367FM-12+004499999V0200501N00461220001CN0100001N9+02121+01951101091ADDAA106000091AG10999GF103991031021012501001001MA1999999100581MD1999999+0081REMSYN011333   58008
0115821980999991985100900004-01683-045367FM-12+004499999V0200501N00361220001CN0040001N9+02521+02361101171ADDAA106000091AG10999GF100991001001999999001001KA1240M+03171MA1999999100661MD1999999+0011REMSYN017333   10317 58001
0115821980999991985100912004-01683-045367FM-12+004499999V0200501N00411012001CN0100001N9+02841+02141101281ADDAA106000091AG10999GF105991051021012501001001KA1240N+02341MA1999999100751MD1999999-0031REMSYN017333   20234 59003
0096821980999991985100918004-01683-045367FM-12+004499999V0200501N00411012001CN0100001N9+02961+02311100861ADDAA106000091AG10999GF105991051021012501001001MA1999999100351MD1999999-0231REMSYN011333   59023
0115821980999991985101000004-01683-045367FM-12+004499999V0200501N00311220001CN0040001N9+02531+02231101051ADDAA106000091AG10999GF100991001001999999001001KA1240M+03151MA1999999100541MD1999999-0121REMSYN017333   10315 59012
0115821980999991985101012004-01683-045367FM-12+004499999V0200501N00511220001CN0100001N9+02921+02271101241ADDAA106000091AG10999GF106991041021012501001011KA1240N+02441MA1999999100731MD1999999-0031REMSYN017333   20244 59003
0096821980999991985101018004-01683-045367FM-12+004499999V0200501N00571012001CN0100001N9+03021+02211100851ADDAA106000091AG10999GF105991051021012501001001MA1999999100241MD1999999-0011REMSYN011333   59001
0115821980999991985101118004-01683-045367FM-12+004499999V0200501N005719999999N0200001N9+02851+02171101061ADDAA106000091AG10999GF106991999021012501001001MA1999999100551MD1999999+0211REMSYN011333   58021EQDQ01+000042SCOTLC
0096821980999991985101418004-01683-045367FM-12+004499999V0200501N00461012001CN0100001N9+03091+02211100721ADDAA106000091AG10999GF105991051021012501001001MA1999999100211MD1999999-0141REMSYN011333   59014
0115821980999991985101500004-01683-045367FM-12+004499999V0200501N00411220001CN0040001N9+02551+02271100901ADDAA106000091AG10999GF100991001001999999001001KA1240M+03181MA1999999100391MD1999999-0171REMSYN017333   10318 59017
0134821980999991985101512004-01683-045367FM-12+004499999V0200901N00511220001CN0100001N9+02861+02191100951ADDAA106000091AG10999GF104991999021012501001001KA1240N+02361MA1999999100441MD1999999-0101REMSYN017333   20236 59010EQDQ01+000032SCOTLC
0096821980999991985101518004-01683-045367FM-12+004499999V0200901N00621045001CN0100001N9+03001+02171100641ADDAA106000091AG10999GF105991031021012501061001MA1999999100131MD1999999-0081REMSYN011333   59008
0115821980999991985101600004-01683-045367FM-12+004499999V0200501N00511220001CN0040001N9+02601+02191100831ADDAA106000091AG10999GF100991001001999999001001KA1240M+03151MA1999999100321MD1999999-0071REMSYN017333   10315 59007
0115821980999991985101612004-01683-045367FM-12+004499999V0200501N00311220001CN0100001N9+02881+02321101011ADDAA106000091AG10999GF104991021021012501001011KA1240N+02421MA1999999100501MD1999999+0061REMSYN017333   20242 58006
0096821980999991985101618004-01683-045367FM-12+004499999V0200501N00511220001CN0100001N9+03041+02361100681ADDAA106000091AG10999GF104991021021012501041001MA1999999100671MD1999999+0041REMSYN011333   58004
0115821980999991985101700004-01683-045367FM-12+004499999V0200901N00261220001CN0040001N9+02591+02271100861ADDAA106000091AG10999GF100991001001999999001001KA1240M+03181MA1999999100351MD1999999+0031REMSYN017333   10318 58003
0115821980999991985101712004-01683-045367FM-12+004499999V0200901N00311105001CN0100001N9+02821+02361101231ADDAA106000091AG10999GF105991021021012501061011KA1240N+02341MA1999999100721MD1999999-0051REMSYN017333   20234 59005
0115821980999991985101718004-01683-045367FM-12+004499999V0200501N004119999999N0100001N9+02961+02381100691ADDAA106000091AG10999GF106991999021012501001001MA1999999100981MD1999999+0011REMSYN011333   58001EQDQ01+000042SCOTLC
0115821980999991985101800004-01683-045367FM-12+004499999V0200501N00361220001CN0040001N9+02551+02351100851ADDAA106000091AG10999GF100991001001999999001001KA1240M+03061MA1999999100341MD1999999-0011REMSYN017333   10306 59001
0148821980999991985101812004-01683-045367FM-12+004499999V0203401N00211220001CN0500001N9+99999+99999999999ADDAG10001GF103991001001999999001011MA1999999999999MD1210051+9999EQDQ01+999990APOSP Q02 -01673ATOT  Q03 -02093ATOD  Q04 102643APOSP Q05 103253APOSLP
0163821980999991985101818004-01683-045367FM-12+004499999V0200901N00671012001CN0100001N9+02982+02202100682ADDAA106000091AG10999GF105991051021012501001001MA1999999100172MD1999999-0011REMSYN011333   59001EQDQ01+030303ATOT  Q02+029523ATOD  Q03+100173APOSP Q04+100683APOSLP
0096821980999991985101918004-01683-045367FM-12+004499999V0200901N00571045001CN0100001N9+02961+01991100611ADDAA106000091AG10999GF105991031021012501061001MA1999999100101MD1999999-0071REMSYN011333   59007
0115821980999991985102012004-01683-045367FM-12+004499999V0200901N00511220001CN0100001N9+02891+02221100871ADDAA106000091AG10999GF103991031021012501001001KA1240N+02341MA1999999100351MD1999999-0111REMSYN017333   20234 59011
0096821980999991985102018004-01683-045367FM-12+004499999V0200901N00411220001CN0100001N9+02981+02201100551ADDAA106000091AG10999GF103991031021012501001001MA1999999100041MD1999999-0061REMSYN011333   59006
0115821980999991985102112004-01683-045367FM-12+004499999V0200901N00411012001CN0100001N9+02881+02301100871ADDAA106000091AG10999GF105991051021012501001001KA1240N+02301MA1999999100351MD1410001+0001REMSYN017333   20230 58000
0096821980999991985102118004-01683-045367FM-12+004499999V0200901N00411220001CN0100001N9+03021+02181100521ADDAA106000091AG10999GF104991031021012501061001MA1999999100011MD1999999-0031REMSYN011333   59003
0115821980999991985102212004-01683-045367FM-12+004499999V0200901N00511220001CN0100001N9+02951+02261100991ADDAA106000091AG10999GF103991031021012501001001KA1240N+02351MA1999999100481MD1999999+0131REMSYN017333   20235 58013
0115821980999991985102300004-01683-045367FM-12+004499999V0200901N00261220001CN0040001N9+02501+01171100891ADDAA106000091AG10999GF100991001001999999001001KA1240M+03231MA1999999100381MD1999999+0161REMSYN017333   10323 58016
0096821980999991985102318004-01683-045367FM-12+004499999V0200901N00571012001CN0100001N9+03101+02231100691ADDAA106000091AG10999GF105991051021012501001001MA1999999100181MD1999999-0021REMSYN011333   59002
0115821980999991985102400004-01683-045367FM-12+004499999V0200901N00211220001CN0040001N9+02521+02251100791ADDAA106000091AG10001GF100991001001999999001001KA1240M+03251MA1999999100381MD1999999-0101REMSYN017333   10325 59010
0115821980999991985102412004-01683-045367FM-12+004499999V0200901N00721220001CN0100001N9+02901+02271100851ADDAA106000091AG10999GF104991021021012501001011KA1240N+02401MA1999999100341MD1999999-0181REMSYN017333   20240 59018
0115821980999991985102500004-01683-045367FM-12+004499999V0200501N002619999999N0040001N9+02541+02311100741ADDAA106000091AG10999GF105991031001012501041011KA1240M+03171MA1999999100231MD1999999-0051REMSYN017333   10317 59005
0115821980999991985102512004-01683-045367FM-12+004499999V0200501N00361220001CN0100001N9+02911+02341100881ADDAA106000091AG10999GF103991031021012501001001KA1240N+02391MA1999999100371MD1999999+0031REMSYN017333   20239 58003
0096821980999991985102518004-01683-045367FM-12+004499999V0201501N00571012001CN0100001N9+03031+02311100451ADDAA106000091AG10999GF105991051021012501001001MA1999999099941MD1999999-0191REMSYN011333   59019
0096821980999991985102618004-01683-045367FM-12+004499999V0200901N00461220001CN0100001N9+03091+02131100591ADDAA106000091AG10999GF102991021021012501001001MA1999999100081MD1999999+0151REMSYN011333   58015
0115821980999991985102712004-01683-045367FM-12+004499999V0200501N00261220001CN0100001N9+02981+02341101081ADDAA106000091AG10999GF103991031021012501001001KA1240N+02421MA1999999100571MD1999999+0181REMSYN017333   20242 58018
0096821980999991985102718004-01683-045367FM-12+004499999V0200501N00361012001CN0100001N9+02921+02291100731ADDAA106000091AG10999GF105991051021012501001001MA1999999100121MD1999999+0041REMSYN011333   58004
0115821980999991985102812004-01683-045367FM-12+004499999V0200901N00411220001CN0100001N9+02871+02361100871ADDAA106000091AG10999GF103991031021012501001001KA1240N+02391MA1999999100351MD1999999-0221REMSYN017333   20239 59022
0096821980999991985102818004-01683-045367FM-12+004499999V0200501N00311045001CN0100001N9+03091+02071100521ADDAA106000091AG10999GF106991031021012501021001MA1999999100011MD1999999-0111REMSYN011333   59011
0115821980999991985102900004-01683-045367FM-12+004499999V0200501N00361220001CN0040001N9+02561+02331100671ADDAA106000091AG10999GF104991021001012501041041KA1240M+03091MA1999999100161MD1999999-0231REMSYN017333   10309 59023
0115821980999991985102912004-01683-045367FM-12+004499999V0200901N00151220001CN0100001N9+02861+02371100851ADDAA106000091AG10999GF103991021021012501001011KA1240N+02391MA1999999100341MD1999999-0011REMSYN017333   20239 59001
0115821980999991985103012004-01683-045367FM-12+004499999V0200501N00261045001CN0100001N9+02781+02381100901ADDAA106000091AG10999GF106991041021012501031001KA1240N+02491MA1999999100381MD1999999+0041REMSYN017333   20249 58004
0096821980999991985103018004-01683-045367FM-12+004499999V0200501N00461012001CN0100001N9+02871+02231100521ADDAA106000091AG10999GF108991051021012501061999MA1999999100011MD1999999+0091REMSYN011333   58009
0115821980999991985103112004-01683-045367FM-12+004499999V0200501N00311220001CN0100001N9+02931+02361100941ADDAA106000091AG10999GF103991031021012501001001KA1240N+02441MA1999999100431MD1999999+0051REMSYN017333   20244 58005
0118821980999991985103118004-01683-045367FM-12+004499999V0201801N00311045001CN0100001N9+02601+02441100611ADDAA106000091AG10999AY121061AY291061GF106991041071012501021001MA1999999100101MD1999999+0091MW1161REMSYN011333   58009
0121821980999991985110112004-01683-045367FM-12+004499999V0200901N00311012001CN0100001N9+02841+02391100931ADDAA124002091AG10999GF106991061021012501001001KA1240N+02391MA1999999100421MD1999999-0011REMSYN023333   20239 59001 60024
0096821980999991985110118004-01683-045367FM-12+004499999V0200501N00461012001CN0100001N9+02991+02281100581ADDAA106000091AG10999GF106991061021012501001001MA1999999100071MD1999999-0031REMSYN011333   59003
0115821980999991985110212004-01683-045367FM-12+004499999V0200501N00311045001CN0100001N9+02871+02391100941ADDAA106000091AG10999GF106991041021012501061001KA1240N+02421MA1999999100421MD1410001+0001REMSYN017333   20242 58000
0115821980999991985110300004-01683-045367FM-12+004499999V0200501N00311220001CN0040001N9+02561+02361100851ADDAA106000091AG10999GF100991001001999999001001KA1240M+03151MA1999999100341MD1999999+0081REMSYN017333   10315 58008
0115821980999991985110312004-01683-045367FM-12+004499999V0200501N00361045001CN0100001N9+02831+02271101101ADDAA106000091AG10999GF106991041021012501061001KA1240N+02421MA1999999100581MD1999999+0161REMSYN017333   20242 58016
0047821980999991985111100004-01683-045367FM-12+004499999V0200501N00261220001CN0040001N9+02541+02271999999ADDAA106000091AG10999GF100991001001999999001001
0115821980999991985111112004-01683-045367FM-12+004499999V0200901N00461012001CN0100001N9+02821+02241101001ADDAA106000091AG10999GF106991061021012501001001KA1240N+02371MA1999999100491MD1999999-0141REMSYN017333   20237 59014
