0129822800999991985010100004-02533-044283FM-12+005199999V0200501N00211220001CN0100001N9+02531+02321101041ADDAA106000091AG10999AY101061GF104991041051004501001001KA1240M+02991MA1999999100461MD1999999+0101MW1021REMSYN017333   10299 58010
0146822800999991985010112004-02533-044283FM-12+005199999V0200501N00211004201CN0100001N9+99999+99999101191ADDAA106000091AA224002091AG10999AY161061GF106991051021004501031001KA1240N+02341MA1999999100611MD1999999+0011MW1021REMSYN023333   20234 58001 60024
0110822800999991985010118004-02533-044283FM-12+005199999V0203601N00461045001CN0100001N9+02921+02241100901ADDAA106000091AG10999AY101061GF106991031041017501061011MA1999999100331MD1999999+0021MW1021REMSYN011333   58002
0135822800999991985010212004-02533-044283FM-12+005199999V0203601N00211220001CN0100001N9+02841+02351101071ADDAA124005091AG10999AY161061GF104991041051004501001001KA1240N+02271MA1999999100491MD1999999-0121MW1611REMSYN023333   20227 59012 60054
0110822800999991985010218004-02533-044283FM-12+005199999V0203601N00411220001CN0100001N9+02911+02341100891ADDAA106000091AG10999AY101061GF104991021011008001031021MA1999999100221MD1999999-0111MW1021REMSYN011333   59011
0129822800999991985010300004-02533-044283FM-12+005199999V0203601N00151045001CN0100001N9+02581+02371101001ADDAA106000091AG10999AY101061GF106991031051004501031001KA1240M+03011MA1999999100421MD1999999-0071MW1021REMSYN017333   10301 59007
0129822800999991985010312004-02533-044283FM-12+005199999V0202301N00101045001CN0100001N9+02781+02361101081ADDAA106000091AG10999AY101061GF108991041021004501011001KA1240N+02411MA1999999100501MD1999999+0011MW1021REMSYN017333   20241 58001
0110822800999991985010318004-02533-044283FM-12+005199999V0200501N00411045001CN0100001N9+02881+02371100801ADDAA106000091AG10999AY101061GF106991041021004501011001MA1999999100231MD1999999+0011MW1021REMSYN011333   58001
0146822800999991985010400004-02533-044283FM-12+005199999V0209991C00001004201CN0020001N9+02501+02361101021ADDAA106000291AA299000391AG10999AY121061GF108991061071004501021999KA1240M+03031MA1999999100481MD1999999+0011MW1601REMSYN023333   10303 58001 69921
0135822800999991985010412004-02533-044283FM-12+005199999V0209991C00001004201CN0100001N9+02481+02321101011ADDAA124005091AG10999AY161061GF108991071061004501011999KA1240N+02311MA1999999100531MD1999999+0031MW1021REMSYN023333   20231 58003 60054
0110822800999991985010418004-02533-044283FM-12+005199999V0200501N00411004201CN0100001N9+02901+02201100821ADDAA106000091AG10999AY101061GF106991061051004501011001MA1999999100251MD1999999+0021MW1021REMSYN011333   58002
0129822800999991985010500004-02533-044283FM-12+005199999V0209991C00001045001CN0100001N9+02541+02291100961ADDAA106000091AG10999AY101061GF106991021021004501031001KA1240M+02961MA1999999100381MD1999999-0051MW1021REMSYN017333   10296 59005
0129822800999991985010512004-02533-044283FM-12+005199999V0200501N00361045001CN0100001N9+03081+02461101111ADDAA106000091AG10999AY101061GF106991041021004501031001KA1240N+02441MA1999999100541MD1999999+0011MW1021REMSYN017333   20244 58001
0110822800999991985010518004-02533-044283FM-12+005199999V0203601N00101105001CN0100001N9+02981+02471100751ADDAA106000091AG10999AY101061GF105991021011004501061041MA1999999100221MD1999999-0031MW1021REMSYN011333   59003
0129822800999991985010600004-02533-044283FM-12+005199999V0200501N00211220001CN0100001N9+02571+02311101031ADDAA106000091AG10999AY101061GF105991021011008001001011KA1240M+03131MA1999999100451MD1999999+0071MW1021REMSYN017333   10313 58007
0129822800999991985010612004-02533-044283FM-12+005199999V0200501N00411004201CN0100001N9+02911+02411101091ADDAA106000091AG10999AY101061GF105991051051004501001001KA1240N+02501MA1999999100511MD1999999-0031MW1021REMSYN017333   20250 59003
0110822800999991985010618004-02533-044283FM-12+005199999V0200501N00151105001CN0100001N9+02801+02411100851ADDAA106000091AG10999AY101061GF106991031051008001001021MA1999999100281MD1999999+0061MW1021REMSYN011333   58006
0135822800999991985010712004-02533-044283FM-12+005199999V0200901N00151004201CN0100001N9+02661+02431101051ADDAA124001091AG10999AY161061GF108991051061004501021999KA1240N+02471MA1999999100471MD1999999-0041MW1011REMSYN023333   20247 59004 60014
0110822800999991985010718004-02533-044283FM-12+005199999V0200501N00311004201CN0100001N9+02861+02371100731ADDAA106000091AG10999AY101061GF107991061051004501021999MA1999999100151MD1999999-0131MW1021REMSYN011333   59013
0116822800999991985010818004-02533-044283FM-12+005199999V0200501N00311004201CN0020001N9+02701+02431100641ADDAA106009091AG10999AY161061GF108991051051004501021999MA1999999100061MD1999999-0091MW1601REMSYN017333   59009 60091
0146822800999991985010900004-02533-044283FM-12+005199999V0200501N00101045001CN0100001N9+02521+02281100881ADDAA106000291AA299000391AG10999AY161061GF105991021011004501021001KA1240M+02861MA1999999100301MD1999999-0021MW1021REMSYN023333   10286 59002 69921
0118822800999991985011212004-02533-044283FM-12+005199999V0202801N00101045001CN0100001N9+02651+02461101001ADDAG10999AY141061GF106991021021004501031011KA1240N+02311MA1999999100421MD1999999-0011MW1031REMSYN017333   20231 59001
0129822800999991985011312004-02533-044283FM-12+005199999V0200501N00151004201CN0100001N9+02741+02471101061ADDAA106000091AG10999AY101061GF107991051061004501031001KA1240N+02361MA1999999100481MD1999999+0061MW1021REMSYN017333   20236 58006
0102822800999991985011418004-02533-044283FM-12+005199999V0200501N00261045001CN0100001N9+02891+02481100741ADDAA106001091AG10999GF106991041061008001021001MA1999999100161MD1999999-0161REMSYN017333   59016 60011
0104822800999991985011500004-02533-044283FM-12+005199999V0200501N00211045001CN0100001N9+02611+02401101131ADDAG10999GF106991031051008001031021KA1240M+03021MA1999999100451MD1999999+0121REMSYN017333   10302 58012
0135822800999991985011512004-02533-044283FM-12+005199999V0200501N00261105001CN0100001N9+02771+02401101101ADDAA124002091AG10999AY101061GF106991041021004501001021KA1240N+02441MA1999999100521MD1999999+0071MW1021REMSYN023333   20244 58007 60024
0110822800999991985011518004-02533-044283FM-12+005199999V0203601N00411045001CN0100001N9+02901+02431100821ADDAA106000091AG10999AY101061GF107991031061004501031011MA1999999100241MD1410001+0001MW1021REMSYN011333   58000
0116822800999991985011618004-02533-044283FM-12+005199999V0200501N00261045001CN0100001N9+02741+02381100821ADDAA106003091AG10999AY161061GF107991041081004501061021MA1999999100241MD1410001+0001MW1151REMSYN017333   58000 60031
0135822800999991985011712004-02533-044283FM-12+005199999V0200501N00311045001CN0100001N9+02761+99999101011ADDAA124013091AG10999AY161061GF106991041081008001061001KA1240N+02301MA1999999100451MD1999999-0141MW1021REMSYN023333   20230 59014 60134
0110822800999991985011718004-02533-044283FM-12+005199999V0200501N00311009001CN0100001N9+02721+02391100721ADDAA106000091AG10999AY101061GF108991051081004501021999MA1999999100141MD1999999-0101MW1021REMSYN011333   59010
0135822800999991985011800004-02533-044283FM-12+005199999V0200501N00101004201CN0040001N9+02481+02391100861ADDAA106002091AG10999AY161061GF108991061061004501999999KA1240M+03001MA1999999100281MD1999999-0141MW1911REMSYN023333   10300 59014 60021
0135822800999991985011812004-02533-044283FM-12+005199999V0200501N00151045001CN0040001N9+02251+02191101271ADDAA124144091AG10999AY161061GF108991041071004501091999KA1240N+02241MA1999999100681MD1999999+0021MW1611REMSYN023333   20224 58002 61444
0154822800999991985011912004-02533-044283FM-12+005199999V0200501N00151004201CN0100001N9+02591+02331101231ADDAA124026091AG10999AY161061GF108991061071004501021999KA1240N+02191MA1999999100641MD1999999-0041MW1151REMSYN023333   20219 59004 60264EQDQ01+999990APOSLP
0118822800999991985011915004-02533-044283FM-12+005199999V0201001N00511004201CN0150001N9+02861+02441101261ADDAG10999AY161031GF107991051021004501021001MA1999999100681MD1999999-0021MW1151REMSYN011333   59002EQDQ01+999990APOSP 
0116822800999991985011918004-02533-044283FM-12+005199999V0200501N00461009001CN0100001N9+02571+02331100981ADDAA106005091AG10999AY161061GF107991051081004501021999MA1999999100401MD1999999+0031MW1021REMSYN017333   58003 60051
0135822800999991985012012004-02533-044283FM-12+005199999V0200901N00261004201CN0100001N9+02501+02341101261ADDAA124025091AG10999AY161061GF108991051071004501061999KA1240N+02241MA1999999100681MD1999999+0041MW1021REMSYN023333   20224 58004 60254
0135822800999991985012112004-02533-044283FM-12+005199999V0201801N00151220001CN0100001N9+02571+02461101091ADDAA124003091AG10999AY161061GF104991041021004501021001KA1240N+02261MA1999999100511MD1999999-0111MW1031REMSYN023333   20226 59011 60034
0129822800999991985012212004-02533-044283FM-12+005199999V0200501N00211004201CN0100001N9+02741+02341101061ADDAA106000091AG10999AY101061GF105991051021004501001001KA1240N+02351MA1999999100481MD1999999-0031MW1021REMSYN017333   20235 59003
0129822800999991985012218004-02533-044283FM-12+005199999V0200501N00311045001CN0100001N9+02851+02331100981ADDAA106000091AG10999AY101061GF108991031021004501031999MA1999999059872MD1999999-0061MW1021REMSYN011333   59006EQDQ01+059873APOSP 
0135822800999991985012312004-02533-044283FM-12+005199999V0200901N00311004201CN0100001N9+02701+02371101061ADDAA124004091AG10999AY161061GF106991061021004501001001KA1240N+02301MA1999999100481MD1410001+0001MW1031REMSYN023333   20230 58000 60044
0141822800999991985012412004-02533-044283FM-12+005199999V0209991C00001004201CN0020001N9+02361+02311101341ADDAA124038091AG10999AY161061GF108991081071004501999999KA1240N+02291MA1999999100761MD1999999+0291MW1601REMSYN029333   20229 58029 58028 60384
0116822800999991985012418004-02533-044283FM-12+005199999V0203601N00311045001CN0100001N9+02601+02291101021ADDAA106004091AG10999AY161061GF106991041021004501011001MA1999999100441MD1999999+0161MW1011REMSYN017333   58016 60041
0148822800999991985012500004-02533-044283FM-12+005199999V0203601N00151220001CN0100001N9+02461+02321101271ADDAA106000091AG10999AY101061GF103991031011008001001001KA1240M+99999MA1999999100691MD1999999+0101MW1021REMSYN017333   10240 58010EQDQ01 +02402ATMX  
0135822800999991985012512004-02533-044283FM-12+005199999V0200501N00151004201CN0100001N9+02501+02341101401ADDAA106032091AG10999AY161061GF106991061021004501001001KA1240N+02211MA1999999100821MD1999999+0061MW1011REMSYN023333   20221 58006 60321
0110822800999991985012518004-02533-044283FM-12+005199999V0203601N00311004201CN0100001N9+02801+02251101081ADDAA106000091AG10999AY101061GF105991051021004501001001MA1999999100501MD1999999+0061MW1021REMSYN011333   58006
0129822800999991985012600004-02533-044283FM-12+005199999V0200901N00101220001CN0100001N9+02401+02221101121ADDAA106000091AG10999AY101061GF104991999999004501999999KA1240M+02961MA1999999100521MD1999999+0121MW1021REMSYN017333   10296 58012
0110822800999991985012618004-02533-044283FM-12+005199999V0200501N00361220001CN0100001N9+99999+99999100731ADDAA106000091AG10999AY101061GF104991031021004501011001MA1999999100161MD1999999-0341MW1021REMSYN011333   59034
0118822800999991985012700004-02533-044283FM-12+005199999V0200501N00211220001CN0100001N9+02441+02271100931ADDAG10999AY101061GF102991021011008001001001KA1240M+03061MA1999999100331MD1999999-0241MW1021REMSYN017333   10306 59024
0110822800999991985012718004-02533-044283FM-12+005199999V0200501N00311004201CN0100001N9+02741+02341100641ADDAA106000091AG10999AY101061GF108991051061004501021999MA1999999100061MD1999999-0101MW1021REMSYN011333   59010
0135822800999991985012800004-02533-044283FM-12+005199999V0209991C00001045001CN0020001N9+02401+02261100951ADDAA106096091AG10999AY161061GF105991041071004501011001KA1240M+02901MA1999999100341MD1999999+0041MW1601REMSYN023333   10290 58004 60961
0135822800999991985012812004-02533-044283FM-12+005199999V0209991C00001004201CN0040001N9+99999+99999101141ADDAA124060091AG10999AY161061GF108991051061004501999999KA1240N+02151MA1999999100561MD1999999+0291MW1601REMSYN023333   20215 58029 60604
0116822800999991985012818004-02533-044283FM-12+005199999V0203201N00261004201CN0100001N9+02601+02291100871ADDAA106008091AG10999AY161061GF108991051061004501021999MA1999999100291MD1999999+0231MW1011REMSYN017333   58023 60081
0146822800999991985012900004-02533-044283FM-12+005199999V0209991C00001045001CN0100001N9+02381+02281101101ADDAA106000291AA299000391AG10999AY161061GF106991041051004501011001KA1240M+02661MA1999999100431MD1999999+0061MW1021REMSYN023333   10266 58006 69921
0110822800999991985012918004-02533-044283FM-12+005199999V0203601N00211045001CN0100001N9+02671+02371100841ADDAA106000091AG10999AY121061GF108991041081008001021999MA1999999100261MD1999999-0031MW1161REMSYN011333   59003
0135822800999991985013012004-02533-044283FM-12+005199999V0209991C00001004201CN0100001N9+02661+02371101211ADDAA124001091AG10999AY161061GF108991061061004501011999KA1240N+02211MA1999999100631MD1999999+0071MW1011REMSYN023333   20221 58007 60014
0102822800999991985013018004-02533-044283FM-12+005199999V0200301N00151004201CN0100001N9+02641+02251100971ADDAA106003091AG10999GF108991081061004501999999MA1999999100391MD1999999+0131REMSYN017333   58013 60031
0135822800999991985013100004-02533-044283FM-12+005199999V0209991C00001004201CN0100001N9+02331+02261101161ADDAA106012091AG10999AY161061GF108991081071004501999999KA1240M+02901MA1999999100581MD1999999+0031MW1651REMSYN023333   10290 58003 60121
0115822800999991985013112004-02533-044283FM-12+005199999V0209991C00001004201CN0100001N9+99999+99999101211ADDAA124016091AG10999AY161061GF108991081021004501999999KA1240N+02211MA1999999100631REMSYN023333   20221 580/0 60164
0135822800999991985013118004-02533-044283FM-12+005199999V0203601N00311045001CN0100001N9+02641+02351100901ADDAA106011091AG10999AY161061GF107991041021004501011001MA1999999100321MD1999999-0071MW1031REMSYN017333   59007 60111EQDQ01+999990APOSP 
0129822800999991985020100004-02533-044283FM-12+005199999V0200501N00151045001CN0100001N9+02381+02291101051ADDAA106000091AG10999AY101061GF106991031021004501011001KA1240M+02661MA1999999100471MD1999999-0121MW1021REMSYN017333   10266 59012
0135822800999991985020112004-02533-044283FM-12+005199999V0209999999999012001CN0100001N9+02471+02251100181ADDAA124011091AG10999AY101061GF107991061081008001061001KA1240N+02281MA1999999100601MD1999999-0031MW1021REMSYN023333   20228 59003 60114
0110822800999991985020118004-02533-044283FM-12+005199999V0200501N00211045001CN0100001N9+02741+02261100891ADDAA106000091AG10999AY101061GF106991041051008001061001MA1999999100311MD1999999-0011MW1021REMSYN011333   59001
0148822800999991985020200004-02533-044283FM-12+005199999V0209991C00001004201CN0100001N9+02311+02261101051ADDAA106000091AG10001AY101061GF108991999021004501061999KA1240M+02801MA1999999100511MD1410001+0001MW1021REMSYN017333   10280 58000EQDQ01+000082SCOTLC
0146822800999991985020212004-02533-044283FM-12+005199999V0202701N00261045001CN0100001N9+02621+02521101201ADDAA124000691AA299000591AG10999AY161061GF107991041081004501031001KA1240N+02231MA1999999100621MD1999999+0021MW1011REMSYN023333   20223 58002 69964
0116822800999991985020218004-02533-044283FM-12+005199999V0203601N00361007501CN0100001N9+02681+02241100961ADDAA106006091AG10999AY161061GF108991051021008001091999MA1999999100361MD1999999+0071MW1021REMSYN017333   58007 60061
0135822800999991985020312004-02533-044283FM-12+005199999V0209991C00001004201CN0100001N9+02301+02251101371ADDAA124085091AG10999AY161061GF108991081061004501999999KA1240N+02111MA1999999100791MD1999999+0171MW1211REMSYN023333   20211 58017 60854
0129822800999991985020400004-02533-044283FM-12+005199999V0200901N00151220001CN0100001N9+02301+02181101301ADDAA106000091AG10999AY101061GF103991011011008001011001KA1240M+02541MA1999999100721MD1999999+0111MW1021REMSYN017333   10254 58011
0146822800999991985020412004-02533-044283FM-12+005199999V0200901N00151004201CN0100001N9+02581+02331101331ADDAA124000491AA299000591AG10999AY101061GF105991051021004501001001KA1240N+02381MA1999999100751MD1999999-0041MW1021REMSYN023333   20238 59004 69944
0110822800999991985020418004-02533-044283FM-12+005199999V0203601N00151004201CN0100001N9+02621+02251101021ADDAA106000091AG10999AY101061GF108991051061004501021999MA1999999100441MD1999999-0091MW1021REMSYN011333   59009
0129822800999991985020500004-02533-044283FM-12+005199999V0209991C00001045001CN0100001N9+02401+02261101321ADDAA106000091AG10999AY101061GF106991021021004501011001KA1240M+02901MA1999999100741MD1999999+0021MW1021REMSYN017333   10290 58002
0129822800999991985020512004-02533-044283FM-12+005199999V0203601N00211004201CN0100001N9+02601+02331101371ADDAA106000091AG10999AY101061GF107991061041004501061001KA1240N+02211MA1999999100791MD1999999+0041MW1021REMSYN017333   20221 58004
0116822800999991985020518004-02533-044283FM-12+005199999V0203601N00211105001CN0100001N9+02731+02411101061ADDAA106018091AG10999AY161061GF105991031021008001001021MA1999999100481MD1999999+0041MW1031REMSYN017333   58004 60181
0114822800999991985020600004-02533-044283FM-12+005199999V0209991C00001045001CN0100001N9+02351+02261101291ADDAA106000091AG10999AY101061GF106991041021008001061001MA1102811100701MW1021REMSYN010333   1028EQDQ01+999990APOSP 
0135822800999991985020612004-02533-044283FM-12+005199999V0203601N00211220001CN0100001N9+02681+02281101361ADDAA124041091AG10999AY161061GF104991011011008001051011KA1240N+02221MA1999999100781MD1999999-0011MW1011REMSYN023333   20222 59001 60414
0110822800999991985020618004-02533-044283FM-12+005199999V0203601N00361045001CN0100001N9+02801+02361101021ADDAA106000091AG10999AY101061GF106991021011008001031001MA1999999100501MD1999999+0021MW1021REMSYN011333   58002
0148822800999991985020700004-02533-044283FM-12+005199999V0209991C000019999999N0100001N9+02481+02321101281ADDAA106000091AG10999AY101061GF106991031011999999011001KA1240M+02901MA1999999100701MD1999999+0011MW1021REMSYN017333   10290 58001EQDQ01+000992SCOLCB
0135822800999991985020712004-02533-044283FM-12+005199999V0201801N00151004201CN0100001N9+02541+02441101381ADDAA124029091AG10999AY161061GF108991051061004501021999KA1240N+02191MA1999999100801MD1999999+0021MW1011REMSYN023333   20219 58002 60294
0116822800999991985020718004-02533-044283FM-12+005199999V0200501N00361004201CN0040001N9+02521+02431101111ADDAA106001091AG10999AY161061GF108991081071004501999999MA1999999100531MD1999999+0011MW1601REMSYN017333   58001 60011
0146822800999991985020800004-02533-044283FM-12+005199999V0200901N00101045001CN0100001N9+02721+02371101271ADDAA106000491AA299000591AG10999AY161061GF105991031021004501021999KA1240M+02901MA1999999100691MD1999999-0011MW1011REMSYN023333   10290 59001 69941
0135822800999991985020812004-02533-044283FM-12+005199999V0200501N00311045001CN0100001N9+02701+02351101151ADDAA124001091AG10999AY101061GF105991041021004501011001KA1240N+02171MA1999999100571MD1999999-0231MW1021REMSYN023333   20217 59023 60014
0110822800999991985020818004-02533-044283FM-12+005199999V0203601N00511045001CN0100001N9+02881+02031100911ADDAA106000091AG10999AY101061GF105991031021004501011001MA1999999100331MD1999999-0201MW1021REMSYN011333   59020
0148822800999991985020900004-02533-044283FM-12+005199999V0200501N00151220001CN0100001N9+02461+02341101611ADDAA106000091AG10999AY101061GF102991021011004501001001KA1240M+03001MA1999999101021MD1999999-0251MW1021REMSYN017333   10300 59025EQDQ01+999990APOSLP
0129822800999991985020912004-02533-044283FM-12+005199999V0200501N00311007501CN0100001N9+02811+02321101071ADDAA106000091AG10999AY101061GF106991061021008001001001KA1240N+02351MA1999999100491MD1999999-0081MW1021REMSYN017333   20235 59008
0116822800999991985020918004-02533-044283FM-12+005199999V0203601N00361045001CN0100001N9+02881+02351100751ADDAA106000391AG10999AY161061GF106991041021008001061001MA1999999100181MD1999999-0151MW1021REMSYN017333   59015 69931
0135822800999991985021012004-02533-044283FM-12+005199999V0203601N00151045001CN0100001N9+02541+02211101311ADDAA124133091AG10999AY161061GF105991021011008001031001KA1240N+02121MA1999999100631MD1999999+0141MW1021REMSYN023333   20212 58014 61334
0110822800999991985021018004-02533-044283FM-12+005199999V0203601N00411220001CN0100001N9+02791+02051100921ADDAA106000091AG10999AY101061GF102991011011008001031001MA1999999100341MD1999999+0161MW1021REMSYN011333   58016
0129822800999991985021100004-02533-044283FM-12+005199999V0203601N00261004201CN0100001N9+02621+02291101061ADDAA106000091AG10999AY101061GF106991051021004501031001KA1240M+02821MA1999999100481MD1999999-0141MW1021REMSYN017333   10282 59014
0135822800999991985021112004-02533-044283FM-12+005199999V0209991C00001004201CN0100001N9+02341+02221101211ADDAA124047091AG10999AY161061GF106991061051004501001001KA1240N+02011MA1999999100631MD1410001+0001MW1031REMSYN023333   20201 58000 60474
0110822800999991985021118004-02533-044283FM-12+005199999V0203601N00311045001CN0100001N9+02761+02231101031ADDAA106000091AG10999AY101061GF106991041021004501011001MA1999999100451MD1999999-0111MW1021REMSYN011333   59011
0129822800999991985021200004-02533-044283FM-12+005199999V0209991C00001220001CN0100001N9+02361+02261101211ADDAA106000091AG10999AY101061GF103991031011008001001001KA1240M+02821MA1999999100631MD1999999+0151MW1021REMSYN017333   10282 58015
0135822800999991985021212004-02533-044283FM-12+005199999V0200501N00151045001CN0100001N9+02621+02291101231ADDAA124000391AG10999AY161061GF106991041021004501011001KA1240N+02191MA1999999100651MD1999999+0021MW1011REMSYN023333   20219 58002 69934
0151822800999991985021218004-02533-044283FM-12+005199999V0200501N00511004201CN0100001N9+02501+02361101021ADDAA106002091AG10999AY121061GF108991051061004501021999MA1999999100431MD1999999-0011MW1121REMSYN017333   59001 60021EQDQ01+090443APOSP Q02+999990APOSP 
0129822800999991985021300004-02533-044283FM-12+005199999V0200901N00151220001CN0100001N9+02401+02301101151ADDAA106000091AG10999AY101061GF102991021011012501001001KA1240M+02941MA1999999100571MD1999999-0061MW1021REMSYN017333   10294 59006
0135822800999991985021312004-02533-044283FM-12+005199999V0200901N00151004201CN0100001N9+02421+02411101241ADDAA124019091AG10999AY161061GF107991061071004501021999KA1240N+02201MA1999999100661MD1999999+0011MW1211REMSYN023333   20220 58001 60194
0110822800999991985021318004-02533-044283FM-12+005199999V0203601N00101045001CN0100001N9+02781+02341100891ADDAA106000091AG10999AY101061GF107991041061004501061001MA1999999100311MD1999999-0131MW1021REMSYN011333   59013
0129822800999991985021400004-02533-044283FM-12+005199999V0200501N00101045001CN0100001N9+02561+02291101111ADDAA106000091AG10999AY101061GF106991041061004501021001KA1240M+02901MA1999999100331MD1999999-0041MW1021REMSYN017333   10290 59004
0135822800999991985021412004-02533-044283FM-12+005199999V0200501N00101004201CN0100001N9+02631+02441101231ADDAA124009091AG10999AY161061GF108991051061004501011999KA1240N+02301MA1999999100651MD1999999-0011MW1021REMSYN023333   20230 59001 60094
0116822800999991985021418004-02533-044283FM-12+005199999V0200501N00361045001CN0040001N9+02361+02311100931ADDAA106028091AG10999AY161061GF108991041051008001021999MA1999999100551MD1999999+0041MW1031REMSYN017333   58004 60281
0135822800999991985021500004-02533-044283FM-12+005199999V0209991C00001999999CN0100001N9+02351+02271101021ADDAA106001091AG10999AY161061GF108991031011999999011999KA1240M+02871MA1999999100571MD1999999-0021MW1021REMSYN023333   10287 59002 60011
0135822800999991985021512004-02533-044283FM-12+005199999V0200901N00151004201CN0100001N9+02651+02271101151ADDAA124029091AG10999AY101061GF105991051021004501001001KA1240N+02271MA1999999100571MD1999999-0081MW1021REMSYN023333   20227 59008 60294
0116822800999991985021518004-02533-044283FM-12+005199999V0203601N00311004201CN0100001N9+02741+02321100871ADDAA106002091AG10999AY161061GF108991081051004501999999MA1999999100291MD1999999-0061MW1031REMSYN017333   59006 60021
0135822800999991985021600004-02533-044283FM-12+005199999V0200501N00151004201CN0100001N9+02341+02261101071ADDAA106008091AG10999AY161061GF105991051021004501001001KA1240M+02831MA1999999100491MD1999999-0021MW1011REMSYN023333   10283 59002 60081
0135822800999991985021612004-02533-044283FM-12+005199999V0209991C00001004201CN0650001N9+02561+02291101181ADDAA124014091AG10999AY161061GF108991051061004501021999KA1240N+02191MA1999999100601MD1999999+0031MW1011REMSYN023333   20219 58003 60144
0116822800999991985021618004-02533-044283FM-12+005199999V0200501N00261004201CN0100001N9+02451+02371101021ADDAA106017091AG10999AY161061GF108991051061004501021999MA1999999100441MD1999999-0071MW1601REMSYN017333   59007 60171
0129822800999991985021700004-02533-044283FM-12+005199999V0200501N00151220001CN0100001N9+02321+02241101101ADDAA106000091AG10999AY101061GF103991031051004501031001KA1240M+02531MA1999999100521MD1999999+0031MW1021REMSYN017333   10253 58003
0135822800999991985021712004-02533-044283FM-12+005199999V0201401N00151105001CN0100001N9+02701+02521101171ADDAA124023091AG10999AY161061GF106991041021004501001021KA1240N+02231MA1999999100591MD1999999-0011MW1021REMSYN023333   20223 59001 60234
0135822800999991985021812004-02533-044283FM-12+005199999V0201401N00151004201CN0100001N9+02341+02181101191ADDAA124121091AG10999AY161061GF108991051061004501021999KA1240N+02211MA1999999100611MD1999999+0021MW1011REMSYN023333   20221 58002 61214
0110822800999991985021818004-02533-044283FM-12+005199999V0209991C00001004201CN0100001N9+02801+02151100971ADDAA106000091AG10999AY101061GF108991061051004501011999MA1999999100321MD1999999+0041MW1021REMSYN011333   58004
0129822800999991985021900004-02533-044283FM-12+005199999V0200501N00151220001CN0100001N9+02541+02251101051ADDAA106000091AG10999AY101061GF102991021011012501001001KA1240M+02801MA1999999100471MD1999999-0041MW1021REMSYN017333   10280 59004
0135822800999991985021912004-02533-044283FM-12+005199999V0200901N00261004201CN0100001N9+02601+02401101151ADDAA124004091AG10999AY161061GF107991051021004501011001KA1240N+02241MA1999999100571MD1999999-0041MW1031REMSYN023333   20224 59004 60044
0116822800999991985021918004-02533-044283FM-12+005199999V0203601N00261045001CN0100001N9+02701+02351100801ADDAA106002091AG10999AY161061GF107991041051004501011001MA1999999100221MD1999999-0101MW1011REMSYN017333   59010 60021
0135822800999991985022000004-02533-044283FM-12+005199999V0200501N00101045001CN0100001N9+02341+02291101041ADDAA106003091AG10999AY161061GF106991041051004501021001KA1240M+02941MA1999999100461MD1999999-0011MW1111REMSYN023333   10294 59001 60031
0135822800999991985022012004-02533-044283FM-12+005199999V0200501N00101004201CN0020001N9+02541+02401101141ADDAA124005091AG10999AY161061GF108991081071004501999999KA1240N+02291MA1999999100561MD1999999+0001MW1601REMSYN023333   20229 59000 60054
0096822800999991985022018004-02533-044283FM-12+005199999V0200501N00311007501CN0100001N9+02501+02281100761ADDAA199002091AG10999AY161061GF108991051061008001021999MA1999999100181MW1011REMSYN011333   6002/
0135822800999991985022112004-02533-044283FM-12+005199999V0209991C00001004201CN0040001N9+02391+02371101161ADDAA124029091AG10999AY161061GF108991061061004501021999KA1240N+02291MA1999999100581MD1999999+0021MW1601REMSYN023333   20229 58002 60294
0116822800999991985022118004-02533-044283FM-12+005199999V0200501N00311004201CN0100001N9+02461+02391100961ADDAA106011091AG10999AY161061GF108991061071004501021999MA1999999100351MD1999999-0171MW1211REMSYN017333   59017 60111
0165822800999991985022200004-02533-044283FM-12+005199999V0200501N00211004201CN0100001N9+02411+02331101001ADDAA106002091AA299000091AG10999AY161061GF107991999061004501001001KA1240M+02881MA1999999100981MD1999999+0001MW1021REMSYN023333   10288 59000 60021EQDQ01+000062SCOTLC
0135822800999991985022212004-02533-044283FM-12+005199999V0200901N00151004201CN0100001N9+02501+02411101031ADDAA124019091AG10999AY161061GF108991061051004501021999KA1240N+02241MA1999999100451MD1999999-0071MW1011REMSYN023333   20224 59007 60194
0110822800999991985022218004-02533-044283FM-12+005199999V0200501N00311004201CN0100001N9+02801+02381100621ADDAA106000091AG10999AY101061GF108991051021004501031999MA1999999100041MD1999999-0311MW1021REMSYN011333   59031
0135822800999991985022300004-02533-044283FM-12+005199999V0200901N00151004201CN0020001N9+02381+02351101001ADDAA106014091AG10999AY161061GF108991081071004501999999KA1240M+02961MA1999999100421MD1410001+0001MW1601REMSYN023333   10296 58000 60141
0135822800999991985022312004-02533-044283FM-12+005199999V0209991C00001004201CN0100001N9+02391+02351100941ADDAA124018091AG10999AY161061GF108991081061004501999999KA1240N+02271MA1999999100361MD1999999-0111MW1031REMSYN023333   20227 59011 60184
0135822800999991985022400004-02533-044283FM-12+005199999V0209991C00001004201CN0020001N9+02371+02291100891ADDAA106009091AG10999AY161061GF108991081071004501999999KA1240M+03881MA1999999100311MD1999999-0111MW1611REMSYN023333   10388 59011 60091
0135822800999991985022412004-02533-044283FM-12+005199999V0209991C00001045001CN0100001N9+02481+02291101061ADDAA106020091AG10999AY161061GF106991041051004501021001KA1240N+02181MA1999999100481MD1999999+0121MW1021REMSYN023333   20218 58012 60201
0110822800999991985022418004-02533-044283FM-12+005199999V0203601N00311045001CN0100001N9+02701+02281100691ADDAA106000091AG10999AY101061GF107991031021004501021999MA1999999100111MD1999999+0081MW1021REMSYN011333   58008
0129822800999991985022500004-02533-044283FM-12+005199999V0209991C00001220001CN0100001N9+02401+02301100961ADDAA106000091AG10999AY101061GF103991031011008001001001KA1240M+02881MA1999999100381MD1999999-0071MW1021REMSYN017333   10288 59007
0135822800999991985022512004-02533-044283FM-12+005199999V0209991C00001009001CN0100001N9+02541+02291101151ADDAA124005091AG10999AY161061GF108991061081004501061001KA1240N+02281MA1999999100571MD1999999+0091MW1021REMSYN023333   20228 58009 60054
0110822800999991985022518004-02533-044283FM-12+005199999V0201401N00051007501CN0200001N9+02831+02171100901ADDAA106000091AG10999AY101061GF106991051021008001061001MA1999999100321MD1999999+0211MW1021REMSYN011333   58021
0129822800999991985022600004-02533-044283FM-12+005199999V0200501N00261012001CN0100001N9+02461+02341101151ADDAA106000091AG10999AY101061GF106991051081008001061001KA1240M+02901MA1999999100571MD1999999+0191MW1021REMSYN017333   10290 58019
0135822800999991985022612004-02533-044283FM-12+005199999V0200901N00151045001CN0100001N9+02361+02311101261ADDAA124007091AG10999AY161061GF108991041051008001021999KA1240N+02291MA1999999100671MD1999999+0101MW1601REMSYN023333   20229 58010 60074
0110822800999991985022618004-02533-044283FM-12+005199999V0200501N00151007501CN0100001N9+02701+02351100901ADDAA106000091AG10999AY101061GF108991061051008001011999MA1999999100321MD1410001+0001MW1021REMSYN011333   58000
0135822800999991985022712004-02533-044283FM-12+005199999V0200501N00211004201CN0020001N9+02601+02461101111ADDAA124010091AG10999AY161061GF108991081071004501999999KA1240N+02291MA1999999100531MD1999999-0141MW1601REMSYN023333   20229 59014 60104
0116822800999991985022718004-02533-044283FM-12+005199999V0209991C00001004201CN0100001N9+02551+02381100921ADDAA106001091AG10999AY161061GF108991081061004501999999MA1999999100341MD1999999+0021MW1011REMSYN017333   58002 60011
0135822800999991985022800004-02533-044283FM-12+005199999V0203601N001519999999N0100001N9+02481+02381101061ADDAA106002091AG10999AY191061GF105991999999008001999999KA1240M+02851MA1999999100481MD1999999-0021MW1011REMSYN023333   10285 59002 60021
0135822800999991985022812004-02533-044283FM-12+005199999V0200501N00211004201CN0100001N9+02571+02551101201ADDAA124009091AG10999AY161061GF106991061021004501001001KA1240N+02251MA1999999099621MD1999999+0091MW1031REMSYN023333   20225 58009 60094
0110822800999991985022818004-02533-044283FM-12+005199999V0203601N00101045001CN0100001N9+02761+02441100871ADDAA106000091AG10999AY101061GF106991041021004501011001MA1999999100291MD1999999+0051MW1021REMSYN011333   58005
0129822800999991985030100004-02533-044283FM-12+005199999V0200501N00101045001CN0100001N9+02401+02261101071ADDAA106000091AG10999AY101061GF105991021041012501041001KA1240M+02961MA1999999100491MD1999999+0081MW1021REMSYN017333   10296 58008
0129822800999991985030112004-02533-044283FM-12+005199999V0200501N00151045001CN0100001N9+02801+02381101111ADDAA106000091AG10999AY101061GF106991041021004501011001KA1240N+02291MA1999999100531MD1999999-0091MW1021REMSYN017333   20229 59009
0110822800999991985030118004-02533-044283FM-12+005199999V0203601N00511045001CN0100001N9+02801+02361100841ADDAA106000091AG10999AY101061GF106991041061004501021001MA1999999100261MD1999999-0031MW1021REMSYN011333   59003
0135822800999991985030200004-02533-044283FM-12+005199999V0209991C00001045001CN0100001N9+02481+02451101051ADDAA106002091AG10999AY161061GF106991041061004501061001KA1240M+03011MA1999999100471MD1999999-0021MW1011REMSYN023333   10301 59002 60021
0135822800999991985030212004-02533-044283FM-12+005199999V0200901N00261045001CN0040001N9+02381+02331101161ADDAA124023091AG10999AY161061GF108991031051004501021999KA1240N+02301MA1999999100581MD1999999+0051MW1601REMSYN023333   20230 58005 60234
0135822800999991985030218004-02533-044283FM-12+005199999V0203601N00261045001CN0100001N9+02421+02371100871ADDAA106005091AG10999AY161061GF108991041051008001021999MA1999999100281MD1999999+0031MW1601REMSYN017333   58003 60051EQDQ01+999990APOSP 
0135822800999991985030300004-02533-044283FM-12+005199999V0201401N00151004201CN0020001N9+02361+02311101011ADDAA106005091AG10999AY161061GF108991081071004501999999KA1240M+02861MA1999999100431MD1999999-0041MW1601REMSYN023333   10286 59004 60051
0135822800999991985030312004-02533-044283FM-12+005199999V0200901N00261045001CN0100001N9+02631+02371101081ADDAA124011091AG10999AY161061GF106991031051004501021001KA1240N+02211MA1999999100501MD1999999-0081MW1021REMSYN023333   20221 59008 60114
0110822800999991985030318004-02533-044283FM-12+005199999V0200501N00311220001CN0100001N9+02711+02321100731ADDAA106000091AG10999AY101061GF106991041051008001001011MA1999999100151MD1999999-0141MW1021REMSYN011333   59014
0129822800999991985030400004-02533-044283FM-12+005199999V0200501N00151045001CN0100001N9+02441+02341100871ADDAA106000091AG10999AY101061GF105991041051008001021001KA1240M+02981MA1999999100291MD1999999-0131MW1021REMSYN017333   10298 59013
0135822800999991985030412004-02533-044283FM-12+005199999V0200901N00151004201CN0100001N9+02481+02391101011ADDAA124009091AG10999AY161061GF108991081061004501999999KA1240N+02351MA1999999100431MD1999999-0071MW1011REMSYN023333   20235 59007 60094
0110822800999991985030418004-02533-044283FM-12+005199999V0200501N00311015001CN0100001N9+02921+02291100601ADDAA106000091AG10999AY101061GF106991061021017501001001MA1999999100031MD1999999-0191MW1021REMSYN011333   59019
0146822800999991985030515004-02533-044283FM-12+005199999V0200901N00261004201CN0100001N9+02551+02401100881ADDAA124000491AA299000591AG10999AY101031GF107991051011004501011001KA1240N+02321MA1999999100301MD1999999-0131MW1601REMSYN023333   20232 59013 69944
0116822800999991985030518004-02533-044283FM-12+005199999V0200901N00411004201CN0100001N9+02831+02401100601ADDAA106001091AG10999AY121061GF108991081061004501999999MA1999999099931MD1999999-0101MW1611REMSYN017333   59010 60011
0148822800999991985030600004-02533-044283FM-12+005199999V0200901N00151045001CN0100001N9+02501+02341100511ADDAA106000091AG10999AY101061GF106991041021004501021001KA1240M+02981MA1999999100752MD1999999-0091MW1021REMSYN017333   10298 59009EQDQ01+100753APOSP 
0135822800999991985030612004-02533-044283FM-12+005199999V0200901N00151004201CN0100001N9+02601+02441100871ADDAA124013091AG10999AY161061GF108991081061004501999999KA1240N+02291MA1999999100291MD1999999-0011MW1211REMSYN023333   20229 59001 60134
0116822800999991985030618004-02533-044283FM-12+005199999V0200501N00311045001CN0100001N9+02601+02391100571ADDAA106004091AG10999AY161061GF107991041061004501061021MA1999999099991MD1999999+0031MW1211REMSYN017333   58003 60041
0129822800999991985030700004-02533-044283FM-12+005199999V0200901N001519999999N0100001N9+02531+02361100411ADDAA106000091AG10999AY101061GF107991041001008001001031KA1240M+03081MA1999999100031MD1999999-0061MW1021REMSYN017333   10308 59006
0135822800999991985030712004-02533-044283FM-12+005199999V0200901N00211045001CN0100001N9+02441+02341100881ADDAA124025091AG10999AY161061GF107991041081008001061001KA1240N+02291MA1999999100301MD1999999+0011MW1911REMSYN023333   20229 58001 60254
0116822800999991985030718004-02533-044283FM-12+005199999V0209991C00001045001CN0100001N9+02401+02371100681ADDAA106032091AG10999AY161061GF108991041081008001021999MA1999999100101MD1999999+0111MW1011REMSYN017333   58011 60321
0129822800999991985030800004-02533-044283FM-12+005199999V0209991C00001045001CN0100001N9+02461+02391100831ADDAA106000091AG10999AY101061GF108991041071008001021999KA1240M+02541MA1999999100451MD1999999+0121MW1021REMSYN017333   10254 58012
0135822800999991985030812004-02533-044283FM-12+005199999V0200901N00151004201CN0100001N9+02821+02381100851ADDAA124033091AG10999AY161061GF105991051011004501999999KA1240N+02371MA1999999100271MD1999999-0031MW1021REMSYN023333   20237 59003 60334
0110822800999991985030818004-02533-044283FM-12+005199999V0203601N00311004201CN0100001N9+02841+02481100521ADDAA106000091AG10999AY101061GF106991061051004501001001MA1999999099951MD1999999-0151MW1021REMSYN011333   59015
0164822800999991985030900004-02533-044283FM-12+005199999V0200501N00151220001CN0100001N9+02571+02421100761ADDAA106000091AG10999AY101061GF103991031011004501001001KA1240M+03081MA1999999999999MD1999999-0071MW1021REMSYN017333   10308 59007EQDQ01+096183APOSP Q02 096183APOSP 
0135822800999991985030912004-02533-044283FM-12+005199999V0200501N00411004201CN0020001N9+02461+02261101001ADDAA124002091AG10999AY121061GF108991081071004501999999KA1240N+02291MA1999999100421MD1999999-0151MW1601REMSYN023333   20229 59015 60024
0116822800999991985030918004-02533-044283FM-12+005199999V0200501N00151015001CN0040001N9+02661+02501100691ADDAA106002091AG10999AY161061GF108991081061017501999999MA1999999100161MD1999999+0361MW1211REMSYN017333   58036 60021
0135822800999991985031000004-02533-044283FM-12+005199999V0209991C00001999999CN0100001N9+02461+02411100881ADDAA106004091AG10999AY161061GF106991061001004501001001KA1240M+02921MA1999999100301MD1999999+0121MW1061REMSYN023333   10292 58012 60041
0135822800999991985031012004-02533-044283FM-12+005199999V0200501N00151004201CN0100001N9+02771+02321101081ADDAA124010091AG10999AY161061GF107991061021004501011001KA1240N+02271MA1999999100501MD1999999+0081MW1031REMSYN023333   20227 58008 60104
0110822800999991985031018004-02533-044283FM-12+005199999V0203601N00151045001CN0040001N9+02751+02341100711ADDAA106000091AG10999AY101061GF106991041021004501011001MA1999999100211MD1999999+0101MW1021REMSYN011333   58010
0135822800999991985031100004-02533-044283FM-12+005199999V0200501N001019999999N0100001N9+02761+02471100951ADDAA106003091AG10999AY161061GF105991999999004501999999KA1240M+02941MA1999999100341MD1999999+0101MW1011REMSYN023333   10294 58010 60031
0135822800999991985031112004-02533-044283FM-12+005199999V0200501N00151045001CN0100001N9+02551+02381101061ADDAA124005091AG10999AY161061GF106991041021004501011001KA1240N+02331MA1999999100481MD1999999-0021MW1021REMSYN023333   20233 59002 60054
0096822800999991985031118004-02533-044283FM-12+005199999V0203601N00311220001CN0100001N9+02931+02451100641ADDAA106000091AG10999GF104991021021004501031001MA1999999100071MD1999999-0171REMSYN011333   59017
0129822800999991985031200004-02533-044283FM-12+005199999V0200501N00151004201CN0100001N9+02581+02371100881ADDAA106000091AG10999AY101061GF105991051051004501001001KA1240M+03001MA1999999100301MD1999999-0071MW1021REMSYN017333   10300 59007
0135822800999991985031212004-02533-044283FM-12+005199999V0200501N00261045001CN0100001N9+02501+02401101021ADDAA124007091AG10999AY161061GF108991031061008001011999KA1240N+02281MA1999999100441MD1999999-0041MW1021REMSYN023333   20228 59004 60074
0076822800999991985031218004-02533-044283FM-12+005199999V0203601N00361045001CN0100001N9+02791+02461100651ADDAA106000091AG10001AY101061GF108991041081008001031999MA1999999100071MW1021
0129822800999991985031300004-02533-044283FM-12+005199999V0200501N00211220001CN0100001N9+02561+02421100781ADDAA106000091AG10999AY101061GF103991031021004501001001KA1240M+02921MA1999999100201MD1999999-0101MW1021REMSYN017333   10292 59010
0135822800999991985031312004-02533-044283FM-12+005199999V0203601N00151220001CN0100001N9+02791+02401100781ADDAA124002091AG10999AY161061GF104991011011004501031011KA1240N+02331MA1999999100401MD1999999-0041MW1021REMSYN023333   20233 59004 60024
0127822800999991985031318004-02533-044283FM-12+005199999V0203601N00101004201CN0100001N9+02571+02381100761ADDAA106000291AA299000391AG10999AY161061GF108991061051004501021999MA1999999100181MD1999999+0111MW1601REMSYN017333   58011 69921
0135822800999991985031400004-02533-044283FM-12+005199999V0200501N00211004201CN0100001N9+02501+02431100911ADDAA106004091AG10999AY161061GF108991061051004501021999KA1240M+02931MA1999999100331MD1999999+0131MW1031REMSYN023333   10293 58013 60041
0135822800999991985031412004-02533-044283FM-12+005199999V0203601N00151004201CN0100001N9+02721+02471101031ADDAA124013091AG10999AY161061GF108991051051004501011999KA1240N+02291MA1999999100451MD1999999+0051MW1031REMSYN023333   20229 58005 60134
0116822800999991985031418004-02533-044283FM-12+005199999V0200501N00211004201CN0040001N9+02531+02381100781ADDAA106006091AG10999AY161061GF108991081071004501999999MA1999999100201MD1999999+0021MW1601REMSYN017333   58002 60061
0116822800999991985031518004-02533-044283FM-12+005199999V0200501N00361004201CN0100001N9+02521+02421100901ADDAA106002091AG10999AY161061GF108991051061004501011999MA1999999100321MD1999999+0121MW1211REMSYN017333   58012 60021
0135822800999991985031600004-02533-044283FM-12+005199999V0200501N00311004201CN0020001N9+02241+02191101241ADDAA106011091AG10999AY161061GF108991081071004501999999KA1240M+02881MA1999999100261MD1999999+0241MW1601REMSYN023333   10288 58024 60111
0135822800999991985031612004-02533-044283FM-12+005199999V0200901N00151004201CN0040001N9+02301+02271101291ADDAA124035091AG10999AY161061GF108991081071004501999999KA1240N+02191MA1999999100611MD1999999+0081MW1601REMSYN023333   20219 58008 60354
0135822800999991985031712004-02533-044283FM-12+005199999V0200901N00151004201CN0100001N9+02411+02391101181ADDAA124100091AG10999AY161061GF108991061051004501021999KA1240N+02231MA1999999100601MD1999999-0011MW1611REMSYN023333   20223 59001 61004
0110822800999991985031718004-02533-044283FM-12+005199999V0203601N00261045001CN0100001N9+02661+02391100791ADDAA106000091AG10999AY101061GF106991031011004501031001MA1999999100211MD1999999-0091MW1021REMSYN011333   59009
0129822800999991985031812004-02533-044283FM-12+005199999V0203601N00261045001CN0100001N9+02721+02391101131ADDAA106000091AG10999AY101061GF105991031051004501031001KA1240N+02331MA1999999100551MD1999999-0051MW1021REMSYN017333   20233 59005
0116822800999991985031818004-02533-044283FM-12+005199999V0203601N00261007501CN0100001N9+02511+02471100921ADDAA106022091AG10999AY161061GF108991061051008001021999MA1999999100341MD1999999+0131MW1611REMSYN017333   58013 60221
0135822800999991985031910004-02533-044283FM-12+005199999V0209991C00001004201CN0100001N9+02381+02351101111ADDAA106008091AG10999AY161999GF108991051051004501021999KA1240M+02881MA1999999100531MD1999999+0091MW1611REMSYN023333   10288 58009 60081
0135822800999991985031912004-02533-044283FM-12+005199999V0209991C00001004201CN0020001N9+02441+02411101191ADDAA124045091AG10999AY161061GF108991081071004501999999KA1240N+02291MA1999999100611MD1999999+0061MW1601REMSYN023333   20229 58006 60454
0116822800999991985031918004-02533-044283FM-12+005199999V0203601N00311045001CN0100001N9+02701+02351100901ADDAA106001091AG10999AY161061GF108991041051004501011999MA1999999100321MD1999999-0021MW1011REMSYN017333   59002 60011
0129822800999991985032000004-02533-044283FM-12+005199999V0200501N00101220001CN0100001N9+02421+02321101021ADDAA106000091AG10999AY101061GF103991031011012501001001KA1240M+02801MA1999999100941MD1999999-0081MW1021REMSYN017333   10280 59008
0135822800999991985032012004-02533-044283FM-12+005199999V0200901N00151004201CN0100001N9+02711+02321101061ADDAA124001091AG10999AY101061GF106991061021004501001001KA1240N+02311MA1999999100481MD1999999-0131MW1021REMSYN023333   20231 59013 60014
0110822800999991985032018004-02533-044283FM-12+005199999V0202301N00311220001CN0100001N9+02961+02331100691ADDAA106000091AG10999AY101061GF103991031021004501001001MA1999999100121MD1999999-0201MW1021REMSYN011333   59020
0127822800999991985032118004-02533-044283FM-12+005199999V0200501N00261045001CN0100001N9+02701+02521100611ADDAA112000991AA299001091AG10999AY161061GF107991041051004501021001MA1999999100041MD1999999-0081MW1611REMSYN017333   59008 69992
0135822800999991985032212004-02533-044283FM-12+005199999V0200501N00211045001CN0200001N9+02481+02411101001ADDAA124006091AG10999AY161061GF107991031081008001061021KA1240N+02401MA1999999100921MD1999999-0021MW1911REMSYN023333   20240 59002 60064
0135822800999991985032312004-02533-044283FM-12+005199999V0209991C00001045001CN0100001N9+02331+02321101321ADDAA124100091AG10999AY161061GF108991041051017501021999KA1240N+02311MA1999999100731MD1999999+0211MW1211REMSYN023333   20231 58021 61004
0116822800999991985032318004-02533-044283FM-12+005199999V0203601N00151004201CN0040001N9+02521+02421101081ADDAA106018091AG10001AY161061GF108991051051004501061999MA1999999100431MD1999999+0351MW1611REMSYN017333   58035 60181
0135822800999991985032412004-02533-044283FM-12+005199999V0209991C00001004201CN0020001N9+02401+99999101321ADDAA124049091AG10999AY161061GF108991081071004501999999KA1240N+02251MA1999999100741MD1999999+0011MW1601REMSYN023333   20225 58001 60494
0110822800999991985032418004-02533-044283FM-12+005199999V0203201N00151004201CN0100001N9+02881+02321100931ADDAA106000091AG10999AY101061GF106991051021004501011001MA1999999100361MD1999999-0141MW1021REMSYN011333   59014
0146822800999991985032500004-02533-044283FM-12+005199999V0209991C00001045001CN0100001N9+02461+02371101151ADDAA106000691AA299000591AG10999AY161061GF106991041021004501011001KA1240M+02961MA1999999100571MD1999999-0071MW1041REMSYN023333   10296 59007 69961
0135822800999991985032512004-02533-044283FM-12+005199999V0200501N00101045001CN0100001N9+02541+02321101171ADDAA124001091AG10999AY161061GF108991041061004501011999KA1240N+02341MA1999999100591MD1999999-0151MW1031REMSYN023333   20234 59015 60014
0116822800999991985032518004-02533-044283FM-12+005199999V0200501N00311045001CN0100001N9+02681+02451100971ADDAA106001091AG10999AY161061GF106991041051004501011001MA1999999100391MD1999999+0031MW1011REMSYN017333   58003 60011
0129822800999991985032600004-02533-044283FM-12+005199999V0200501N00261045001CN0100001N9+02501+02361101181ADDAA106000091AG10999AY101061GF108991041061004501021999KA1240M+02921MA1999999100201MD1999999-0141MW1021REMSYN017333   10292 59014
0135822800999991985032612004-02533-044283FM-12+005199999V0203601N00151004201CN0100001N9+02721+02431101231ADDAA124022091AG10999AY161061GF107991051051004501001011KA1240N+02331MA1999999100651MD1999999+0061MW1021REMSYN023333   20233 58006 60224
0110822800999991985032618004-02533-044283FM-12+005199999V0203601N00511045001CN0100001N9+02791+02421100951ADDAA106000091AG10999AY101061GF106991041061008001021011MA1999999100371MD1999999-0021MW1021REMSYN011333   59002
0148822800999991985032700004-02533-044283FM-12+005199999V0203601N00151220001CN0100001N9+02481+02301101211ADDAA106000091AG10999AY101061GF103991999011004501001001KA1240M+02911MA1999999100631MD1999999+0031MW1021REMSYN017333   10291 58003EQDQ01+000022SCOTLC
0135822800999991985032712004-02533-044283FM-12+005199999V0209991C00001045001CN0040001N9+02381+02351101391ADDAA124039091AG10999AY161061GF108991041051004501021999KA1240N+02341MA1999999100801MD1999999+0151MW1921REMSYN023333   20234 58015 60394
0116822800999991985032718004-02533-044283FM-12+005199999V0200501N00211045001CN0100001N9+02531+02381101081ADDAA106013091AG10999AY191061GF108991031081004501021999MA1999999100501MD1999999+0131MW1021REMSYN017333   58013 60131
0135822800999991985032800004-02533-044283FM-12+005199999V0209991C00001004201CN0100001N9+02381+02351101281ADDAA106003091AG10999AY161061GF108991061051004501021001KA1240M+03151MA1999999100691MD1999999+0061MW1031REMSYN023333   10315 58006 60031
0140822800999991985032812004-02533-044283FM-12+005199999V0200901N001019999999N0100001N9+02581+02491101291ADDAA124151091AG10999GF108991999999004501999999KA1240N+02281MA1999999100701MD1999999-0101REMSYN023333   20228 59010 61514EQDQ01+999990APOSLP
0116822800999991985032818004-02533-044283FM-12+005199999V0200901N00101004201CN0100001N9+02561+02491101051ADDAA106001091AG10999AY161061GF108991061051004501021999MA1999999100471MD1999999-0031MW1611REMSYN017333   59003 60011
0146822800999991985032900004-02533-044283FM-12+005199999V0200501N00101045001CN0100001N9+02441+02411101201ADDAA106000691AA299000591AG10999AY161061GF108991041051008001011999KA1240M+02711MA1999999100621MD1999999-0071MW1021REMSYN023333   10271 59007 69961
0135822800999991985032912004-02533-044283FM-12+005199999V0200501N00311004201CN0020001N9+02301+02271101301ADDAA124015091AG10999AY161061GF108991081071004501999999KA1240N+02291MA1999999100721MD1999999+0021MW1601REMSYN023333   20229 58002 60154
0127822800999991985032918004-02533-044283FM-12+005199999V0200501N00151004201CN0100001N9+02621+02351100911ADDAA106000491AA299000591AG10999AY161061GF108991081061004501999999MA1999999100331MD1999999-0141MW1011REMSYN017333   59014 69941
0135822800999991985033012004-02533-044283FM-12+005199999V0200501N00151004201CN0020001N9+02241+02211101281ADDAA124051091AG10999AY161061GF108991081051004501999999KA1240N+02191MA1999999100701MD1999999-0021MW1611REMSYN023333   20219 59002 60514
0116822800999991985033018004-02533-044283FM-12+005199999V0200501N00051004201CN0100001N9+02301+02271100961ADDAA106022091AG10999AY161061GF108991081061004501999999MA1999999100381MD1999999+0051MW1211REMSYN017333   58005 60221
0129822800999991985033100004-02533-044283FM-12+005199999V0209991C00001004201CN0100001N9+02361+02331101031ADDAA106000091AG10999AY101061GF108991051051004501021999KA1240M+02651MA1999999100451MD1999999-0031MW1021REMSYN017333   10265 59003
0110822800999991985033118004-02533-044283FM-12+005199999V0203601N00311045001CN0100001N9+02841+02401100911ADDAA106000091AG10999AY101061GF106991041021008001061001MA1999999100341MD1999999-0041MW1021REMSYN011333   59004
0129822800999991985040100004-02533-044283FM-12+005199999V0200501N00101045001CN0100001N9+02421+02371100961ADDAA106000091AG10999AY101061GF106991041021008001021001KA1240M+02871MA1999999100381MD1999999-0071MW1021REMSYN017333   10287 59007
0135822800999991985040112004-02533-044283FM-12+005199999V0209991C00001012001CN0100001N9+02391+02351101271ADDAA124041091AG10999AY161061GF108991051081008001061999KA1240N+02311MA1999999100681MD1999999+0131MW1171REMSYN023333   20231 58013 60414
0110822800999991985040118004-02533-044283FM-12+005199999V0203601N00311045001CN0100001N9+02841+02401100781ADDAA106000091AG10999AY101061GF106991041081008001061001MA1999999100211MD1999999-0131MW1021REMSYN011333   59013
0122822800999991985040200004-02533-044283FM-12+005199999V0200901N001019999999N0040001N9+02461+02411101131ADDAA106007091AG10999AY181061GF108991041071999999021999MA1999999100551MD1999999+0171MW1951REMSYN023333   102/9 58017 60071
0135822800999991985040212004-02533-044283FM-12+005199999V0201801N00101004201CN0100001N9+02541+02381101271ADDAA124020091AG10999AY191061GF108991051071004501011999KA1240N+02191MA1999999100691MD1410001+0001MW1021REMSYN023333   20219 58000 60204
0116822800999991985040218004-02533-044283FM-12+005199999V0203601N00261004201CN0100001N9+02721+02391100931ADDAA106005091AG10999AY161061GF108991051071004501061021MA1999999100351MD1999999+0141MW1021REMSYN017333   58014 60051
0135822800999991985040300004-02533-044283FM-12+005199999V0209991C00001045001CN0100001N9+02421+02391101241ADDAA106013091AG10999AY161061GF108991041051008001021999KA1240M+02811MA1999999100661MD1999999+0111MW1021REMSYN023333   10281 58011 60131
0135822800999991985040312004-02533-044283FM-12+005199999V0200901N00151004201CN0020001N9+02301+02271101411ADDAA124038091AG10999AY161061GF108991081071004501999999KA1240N+02191MA1999999100831MD1999999+0141MW1601REMSYN023333   20219 58014 60384
0127822800999991985040318004-02533-044283FM-12+005199999V0200501N00311045001CN0100001N9+02501+02281101051ADDAA106000291AA299000391AG10999AY161061GF106991041051004501011001MA1999999100471MD1999999+0121MW1011REMSYN017333   58012 69921
0148822800999991985040400004-02533-044283FM-12+005199999V0200501N00211220001CN0100001N9+02441+02281101221ADDAA106000091AG10999AY101061GF102991021021008001001001KA1240M+02831MA1999999100631MD1999999-0021MW1021REMSYN017333   10283 59002EQDQ01+999990APOSP 
0146822800999991985040412004-02533-044283FM-12+005199999V0200901N00151220001CN0100001N9+02701+02451101311ADDAA124000291AA299000391AG10999AY101061GF104991041021008001001001KA1240N+02171MA1999999100731MD1999999-0101MW1021REMSYN023333   20217 59010 69924
0110822800999991985040418004-02533-044283FM-12+005199999V0200501N00511220001CN0100001N9+02901+02201100971ADDAA106000091AG10999AY101061GF103991031021004501001001MA1999999100391MD1999999-0081MW1021REMSYN011333   59008
0110822800999991985040500004-02533-044283FM-12+005199999V0200501N00151220001CN0100001N9+02481+02231101131ADDAA106000091AG10999AY101061GF103991011011008001011001MA1999999100551MD1999999+0091MW1021REMSYN011333   58009
0134822800999991985040512004-02533-044283FM-12+005199999V0200501N00311045001CN0100001N9+02711+02351101061ADDAA106000091AG10999AY121061GF106991041061004501061001KA1240M+99999MA1999999100481MW1161REMSYN017333   10229 59/25EQDQ01 +02292ATMX  
0116822800999991985040518004-02533-044283FM-12+005199999V0203601N00361045001CN0100001N9+02781+02321100851ADDAA106016091AG10999AY161061GF106991041061004501061021MA1999999100271MD1999999-0121MW1151REMSYN017333   59012 60161
0135822800999991985040600004-02533-044283FM-12+005199999V0200501N00051004201CN0020001N9+02301+02251101111ADDAA106006091AG10999AY161061GF108991081071004501999999KA1240M+02811MA1999999100531MD1999999-0021MW1611REMSYN023333   10281 59002 60061
0135822800999991985040612004-02533-044283FM-12+005199999V0201601N00151045001CN0100001N9+02981+02631101151ADDAA124051091AG10999AY161061GF107991021011008001031021KA1240N+02241MA1999999100571MD1999999-0011MW1011REMSYN023333   20224 59001 60514
0116822800999991985040618004-02533-044283FM-12+005199999V0203601N00261045001CN0100001N9+02661+02371100831ADDAA106002091AG10999AY161061GF108991031081008001021999MA1999999100251MD1999999-0021MW1161REMSYN017333   59002 60021
0135822800999991985040712004-02533-044283FM-12+005199999V0203601N00261004201CN0100001N9+02651+02251101331ADDAA124013091AG10999AY121061GF108991051061004501021999KA1240N+02361MA1999999100751MD1999999+0181MW1031REMSYN023333   20236 58018 60134
0110822800999991985040718004-02533-044283FM-12+005199999V0203201N00411004201CN0100001N9+02821+02241101061ADDAA106000091AG10999AY101061GF106991061021004501001001MA1999999100481MD1999999+0231MW1021REMSYN011333   58023
0129822800999991985040812004-02533-044283FM-12+005199999V0203601N00311004201CN0100001N9+02801+02331101311ADDAA106000091AG10999AY101061GF107991051021004501011001KA1240N+02271MA1999999100731MD1999999-0021MW1021REMSYN017333   20227 59002
0110822800999991985040818004-02533-044283FM-12+005199999V0203601N00261004201CN0100001N9+02861+02231101001ADDAA106000091AG10999AY101061GF105991051021004501001001MA1999999100431MD1999999-0051MW1021REMSYN011333   59005
0135822800999991985040912004-02533-044283FM-12+005199999V0200501N00151045001CN0100001N9+02641+02311101171ADDAA124027091AG10999AY161061GF107991041051004501011999KA1240N+02291MA1999999100591MD1999999-0141MW1011REMSYN023333   20229 59014 60274
0127822800999991985040918004-02533-044283FM-12+005199999V0203601N00411004201CN0100001N9+02801+02251100841ADDAA106000491AA299000591AG10999AY161061GF108991061051004501011999MA1999999100261MD1999999-0131MW1021REMSYN017333   59013 69941
0135822800999991985041000004-02533-044283FM-12+005199999V0200501N00151004201CN0020001N9+02401+02351101051ADDAA106078091AG10999AY161061GF108991081071004501999999KA1240M+02881MA1999999100471MD1999999-0081MW1601REMSYN023333   10288 59008 60781
0135822800999991985041012004-02533-044283FM-12+005199999V0200501N00151045001CN0040001N9+02341+02291101181ADDAA124161091AG10999AY161061GF108991041071004501021999KA1240N+02301MA1999999100601MD1999999+0011MW1951REMSYN023333   20230 58001 61614
0116822800999991985041018004-02533-044283FM-12+005199999V0200401N00151045001CN0100001N9+02431+02391100881ADDAA106031091AG10999AY161061GF108991041061004501021999MA1999999100311MD1999999+0051MW1211REMSYN017333   58005 60311
0135822800999991985041100004-02533-044283FM-12+005199999V0209991C00001004201CN0040001N9+02381+02351101041ADDAA106011091AG10999AY161061GF108991061071004501021999KA1240M+02541MA1999999100481MD1999999-0011MW1601REMSYN023333   10254 59001 60111
0135822800999991985041112004-02533-044283FM-12+005199999V0200901N00211045001CN0040001N9+02271+02231101531ADDAA124111091AG10999AY191061GF108991041051004501021999KA1240N+02231MA1999999100941MD1999999+0341MW1621REMSYN023333   20223 58034 61114
0102822800999991985041118004-02533-044283FM-12+005199999V0200901N00151045001CN0100001N9+02561+02191101101ADDAA106015091AG10999AY161061GF108991041051008001021999MA1999999100521MW1021REMSYN017333   580/1 60151
0135822800999991985041200004-02533-044283FM-12+005199999V0201401N00151045001CN0100001N9+02401+02331101611ADDAA106000191AG10999AY121061GF106991031061004501031011KA1240M+02591MA1999999100751MD1999999+0291MW1911REMSYN023333   10259 58029 69911
0121822800999991985041212004-02533-044283FM-12+005199999V0200901N00151004201CN0100001N9+02671+02451101461ADDAA124018091AG10999AY161061GF106991061051004501001001KA1240N+02151MA1999999100871MW1031REMSYN023333   20215 59/07 60184
0116822800999991985041218004-02533-044283FM-12+005199999V0203601N00311004201CN0100001N9+02841+02311101161ADDAA106001091AG10999AY161061GF105991051021004501001001MA1999999100581MD1999999+0061MW1011REMSYN017333   58006 60011
0129822800999991985041300004-02533-044283FM-12+005199999V0200501N00151220001CN0100001N9+02541+02311101291ADDAA106000091AG10999AY101061GF102991021011004501001001KA1240M+02901MA1999999100711MD1999999-0041MW1021REMSYN017333   10290 59004
0135822800999991985041312004-02533-044283FM-12+005199999V0200501N00261004201CN0100001N9+02581+02421101411ADDAA124005091AG10999AY161061GF108991051041004501011999KA1240N+02291MA1999999100831MD1999999-0041MW1031REMSYN023333   20229 59004 60054
0110822800999991985041318004-02533-044283FM-12+005199999V0200501N00311004201CN0100001N9+02641+02311101151ADDAA106000091AG10999AY101061GF108991061051004501021999MA1999999100571MD1999999-0011MW1021REMSYN011333   59001
0146822800999991985041400004-02533-044283FM-12+005199999V0209991C00001220001CN0100001N9+02431+02391101211ADDAA106000491AA299000591AG10999AY161061GF102991021011008001001001KA1240M+02841MA1999999100631MD1999999-0081MW1011REMSYN023333   10284 59008 69941
0146822800999991985041412004-02533-044283FM-12+005199999V0209991C00001045001CN0100001N9+02441+02351101371ADDAA124000491AA299000591AG10999AY101061GF106991041021004501011001KA1240N+02291MA1999999100791MD1999999-0041MW1021REMSYN023333   20229 59004 69944
0116822800999991985041418004-02533-044283FM-12+005199999V0203601N00261220001CN0100001N9+02741+02381100891ADDAA106000191AG10999AY161061GF104991021021004501011001MA1999999100311MD1999999-0261MW1011REMSYN017333   59026 69911
0129822800999991985041500004-02533-044283FM-12+005199999V0209991C00001220001CN0100001N9+02461+02391101151ADDAA106000091AG10999AY101061GF103991031021004501001001KA1240M+02941MA1999999100571MD1999999-0061MW1021REMSYN017333   10294 59006
0135822800999991985041512004-02533-044283FM-12+005199999V0200501N00211045001CN0100001N9+99999+99999101291ADDAA124001091AG10999AY161061GF106991041061008001061001KA1240N+02311MA1999999100711MD1999999-0081MW1021REMSYN023333   20231 59008 60014
0129822800999991985041600004-02533-044283FM-12+005199999V0209991C00001004201CN0100001N9+02421+02371101191ADDAA106000091AG10999AY101061GF108991061061004501999999KA1240M+02821MA1999999100611MD1999999+0041MW1021REMSYN017333   10282 58004
0135822800999991985041612004-02533-044283FM-12+005199999V0200501N00211045001CN9999999N9+02271+02211101411ADDAA124077091AG10999AY161061GF108991041051004501021999KA1240N+02261MA1999999100821MD1999999+0111MW1611REMSYN023333   20226 58011 60774
0116822800999991985041618004-02533-044283FM-12+005199999V0203601N00311045001CN0100001N9+02761+02301101001ADDAA106011091AG10999AY161061GF107991031011008001031011MA1999999100421MD1999999+0061MW1021REMSYN017333   58006 60111
0129822800999991985041700004-02533-044283FM-12+005199999V0200501N00151220001CN0100001N9+02441+02151101311ADDAA106000091AG10999AY101061GF102991021011008001001001KA1240M+02881MA1999999100731MD1999999+0121MW1021REMSYN017333   10288 58012
0135822800999991985041712004-02533-044283FM-12+005199999V0200501N00261045001CN0100001N9+02701+02281101281ADDAA124011091AG10999AY101061GF108991041051008001021999KA1240N+02241MA1999999100701MD1999999-0121MW1021REMSYN023333   20224 59012 60114
0127822800999991985041718004-02533-044283FM-12+005199999V0203601N00151007501CN0100001N9+02711+02301100981ADDAA106000291AA299000391AG10999AY161061GF108991051051008001021999MA1999999100401MD1999999-0021MW1031REMSYN017333   59002 69921
0135822800999991985041812004-02533-044283FM-12+005199999V0200501N00151004201CN0100001N9+02441+02341101361ADDAA124003091AG10999AY161061GF108991061051004501021999KA1240N+02391MA1999999100781MD1999999+0081MW1011REMSYN023333   20239 58008 60034
0135822800999991985041900004-02533-044283FM-12+005199999V0209991C00001045001CN0100001N9+99999+99999101261ADDAA106000191AG10999AY161061GF106991011011008001031011KA1240M+02061MA1999999100671MD1999999+0091MW1011REMSYN023333   10206 58009 69911
0154822800999991985041901004-02533-044283FM-12+005199999V0202201N00101004201CN0090001N9-00031-00091101521ADDAA106000091AG10999AY121011GF108991081061004501999999KA1240N-00151MA1999999100881MD1710071+9999MW1101REMSYN023333   21015 559// 91105EQDQ01+999990APOSP 
0135822800999991985041912004-02533-044283FM-12+005199999V0209991C00001004201CN0100001N9+02441+02391101201ADDAA124023091AG10999AY161061GF108991081061004501999999KA1240N+02191MA1999999100621MD1999999-0161MW1031REMSYN023333   20219 59016 60234
0116822800999991985041918004-02533-044283FM-12+005199999V0203601N00261004201CN0100001N9+02801+02381100861ADDAA106001091AG10999AY161061GF105991051021004501001001MA1999999100261MD1999999-0151MW1011REMSYN017333   59015 60011
0135822800999991985042004004-02533-044283FM-12+005199999V0209991C00001004201CN0100001N9+02461+02431101001ADDAA106001091AG10999AY161999GF106991061021004501001001KA1240M+02881MA1999999100421MD1999999-0251MW1021REMSYN023333   10288 59025 60011
0146822800999991985042012004-02533-044283FM-12+005199999V0209991C00001045001CN0100001N9+02611+02441101141ADDAA106000091AA224004091AG10999AY161061GF107991041061004501061001KA1240N+02311MA1999999100561MD1999999-0061MW1021REMSYN023333   20231 59006 60044
0116822800999991985042018004-02533-044283FM-12+005199999V0200901N00101045001CN0100001N9+02331+02291100871ADDAA106022091AG10999AY161061GF108991041051004501021999MA1999999100291MD1999999+0031MW1611REMSYN017333   58003 60221
0135822800999991985042112004-02533-044283FM-12+005199999V0209991C00001004201CN0100001N9+02521+02421101041ADDAA124050091AG10999AY161061GF108991051071004501031999KA1240N+02211MA1999999100451MD1999999-0101MW1021REMSYN023333   20221 59010 60504
0110822800999991985042118004-02533-044283FM-12+005199999V0203601N00311045001CN0100001N9+02901+02391100731ADDAA106000091AG10999AY101061GF106991021021008001031021MA1999999100051MD1999999-0041MW1021REMSYN011333   59004
0129822800999991985042200004-02533-044283FM-12+005199999V0209991C00001220001CN0100001N9+02401+02401101001ADDAA106000091AG10999AY101061GF103991031051004501001001KA1240M+02951MA1999999100421MD1999999-0111MW1021REMSYN017333   10295 59011
0129822800999991985042212004-02533-044283FM-12+005199999V0200501N00261045001CN0100001N9+02781+02441101111ADDAA106000091AG10999AY101061GF106991041051004501031011KA1240N+02271MA1999999100531MD1999999+0071MW1021REMSYN017333   20227 58007
0135822800999991985042300004-02533-044283FM-12+005199999V0200901N00101004201CN0040001N9+02341+02311101101ADDAA106058091AG10999AY161061GF108991061051004501021001KA1240M+03401MA1999999100521MD1999999+0101MW1611REMSYN023333   10340 58010 60581
0135822800999991985042312004-02533-044283FM-12+005199999V0209991C00001220001CN0100001N9+02741+02401101071ADDAA124070091AG10999AY161061GF103991021021004501011001KA1240N+02291MA1999999100491MD1999999+0041MW1011REMSYN023333   20229 58004 60704
0116822800999991985042318004-02533-044283FM-12+005199999V0200501N00151004201CN0100001N9+02661+02391100911ADDAA106002091AG10999AY161061GF108991061061004501021999MA1999999100331MD1999999+0161MW1021REMSYN017333   58016 60021
0129822800999991985042400004-02533-044283FM-12+005199999V0209991C00001220001CN0100001N9+02501+02361101011ADDAA106000091AG10999AY101061GF103991031011008001001001KA1240M+03001MA1999999100431MD1999999-0091MW1021REMSYN017333   10300 59009
0135822800999991985042412004-02533-044283FM-12+005199999V0201401N00101004201CN0100001N9+02681+02451101021ADDAA124003091AG10999AY161061GF107991051021004501011001KA1240N+02201MA1999999100441MD1999999-0051MW1031REMSYN023333   20220 59005 60034
0110822800999991985042418004-02533-044283FM-12+005199999V0200501N00311045001CN0100001N9+02881+02371100741ADDAA106000091AG10999AY101061GF106991041021004501011001MA1999999100161MD1999999-0171MW1021REMSYN011333   59017
0129822800999991985042500004-02533-044283FM-12+005199999V0200901N00261220001CN0100001N9+02501+02341100881ADDAA106000091AG10999AY101061GF104991021011004501031001KA1240M+02991MA1999999100301MD1999999-0131MW1021REMSYN017333   10299 59013
0129822800999991985042512004-02533-044283FM-12+005199999V0200501N00211007501CN0100001N9+02801+02481100891ADDAA106000091AG10999AY101061GF106991061021008001001001KA1240N+02211MA1999999100311MD1999999-0131MW1021REMSYN017333   20221 59013
0110822800999991985042518004-02533-044283FM-12+005199999V0200501N00211045001CN0100001N9+02741+02501100561ADDAA106000091AG10999AY101061GF106991041061004501021001MA1999999099981MD1999999-0281MW1021REMSYN011333   59028
0129822800999991985042600004-02533-044283FM-12+005199999V0200901N00211045001CN0100001N9+02481+02411100791ADDAA106000091AG10999AY101061GF105991031061004501061001KA1240M+03041MA1999999100211MD1999999-0011MW1021REMSYN017333   10304 59001
0135822800999991985042612004-02533-044283FM-12+005199999V0200901N00151045001CN0100001N9+02611+02441100961ADDAA124005091AG10999AY161061GF106991031021004501031021KA1240N+02341MA1999999100381MD1999999+0071MW1011REMSYN023333   20234 58007 60054
0129822800999991985042700004-02533-044283FM-12+005199999V0203601N00151004201CN0100001N9+02541+02441100811ADDAA106000091AG10999AY101061GF108991051071004501011999KA1240M+03011MA1999999100231MD1999999+0021MW1021REMSYN017333   10301 58002
0135822800999991985042712004-02533-044283FM-12+005199999V0200901N00101045001CN0040001N9+02481+02391101131ADDAA124008091AG10999AY161061GF108991041081004501021999KA1240N+02411MA1999999100551MD1999999+0171MW1951REMSYN023333   20241 58017 60084
0116822800999991985042718004-02533-044283FM-12+005199999V0209991C00001045001CN0040001N9+02441+02421100831ADDAA106018091AG10999AY161061GF108991041051004501021999MA1999999100251MD1999999+0281MW1601REMSYN017333   58028 60181
0135822800999991985042812004-02533-044283FM-12+005199999V0209991C00001004201CN0100001N9+02541+02491101191ADDAA124083091AG10999AY161061GF108991081061004501999999KA1240N+02191MA1999999100611MD1999999-0061MW1011REMSYN023333   20219 59006 60834
0116822800999991985042818004-02533-044283FM-12+005199999V0203601N00151004201CN0100001N9+02541+02351100971ADDAA106020091AG10999AY161061GF108991081061004501999999MA1999999100391MD1999999+0141MW1211REMSYN017333   58014 60201
0129822800999991985042900004-02533-044283FM-12+005199999V0209991C00001045001CN0100001N9+02401+02351101041ADDAA106000091AG10999AY101061GF106991031051004501011001KA1240M+02731MA1999999100461MD1999999-0091MW1021REMSYN017333   10273 59009
0135822800999991985042912004-02533-044283FM-12+005199999V0200501N00151004201CN0100001N9+02601+02371101161ADDAA124021091AG10999AY161061GF107991071021004501001001KA1240N+02321MA1999999100581MD1999999-0031MW1031REMSYN023333   20232 59003 60214
0110822800999991985042918004-02533-044283FM-12+005199999V0203601N00311045001CN0100001N9+02781+02251100851ADDAA106000091AG10999AY101061GF105991031021004501011001MA1999999100271MD1999999-0121MW1021REMSYN011333   59012
0129822800999991985043000004-02533-044283FM-12+005199999V0209991C00001220001CN0100001N9+02461+02301100891ADDAA106000091AG10999AY101061GF104991041021004501001001KA1240M+03061MA1999999100311MD1999999-0151MW1021REMSYN017333   10306 59015
0135822800999991985043012004-02533-044283FM-12+005199999V0200901N00261105001CN0100001N9+02771+02401101161ADDAA124003091AG10999AY161061GF105991021011004501031011KA1240N+02271MA1999999100581MD1410001+0001MW1011REMSYN023333   20227 58000 60034
0110822800999991985043018004-02533-044283FM-12+005199999V0209991C00001012001CN0100001N9+02921+02361100791ADDAA106000091AG10999AY101061GF105991051081008001001001MA1999999100221MD1999999-0031MW1021REMSYN011333   59003
0135822800999991985050112004-02533-044283FM-12+005199999V0200501N00101220001CN0100001N9+02561+02401101211ADDAA124014091AG10999AY161061GF103991031021008001041021KA1240N+02331MA1999999100631MD1999999+0051MW1011REMSYN023333   20233 58005 60144
0110822800999991985050118004-02533-044283FM-12+005199999V0203601N00311045001CN0100001N9+02861+02441100851ADDAA106000091AG10999AY101061GF106991031021008001061021MA1999999100271MD1999999+0041MW1021REMSYN011333   58004
0145822800999991985050200004-02533-044283FM-12+005199999V0200501N001519999999N0100001N9+02501+02381101161ADDAA106000091AA299590092AG10999AY101061GF107991999081008001011021KA1240M+02891MA1999999100581MW1021REMSYN017333   10289 65900EQDQ01+000082SCOTLC
0135822800999991985050212004-02533-044283FM-12+005199999V0201401N00151004201CN0100001N9+02601+02331101371ADDAA124000391AG10999AY161061GF107991051021004501011001KA1240N+02271MA1999999100791MD1999999+0161MW1011REMSYN023333   20227 58016 69934
0110822800999991985050218004-02533-044283FM-12+005199999V0203601N00311004201CN0100001N9+02741+02341100881ADDAA106000091AG10999AY101061GF108991051061004501011999MA1999999100301MD1999999+0031MW1021REMSYN011333   58003
0154822800999991985050300004-02533-044283FM-12+005199999V0209991C00001012001CN0100001N9+02411+02381101271ADDAA106011091AG10999AY161061GF108991999081008001011001KA1240M+02821MA1999999100691MD1999999+0111MW1021REMSYN023333   10282 58011 60111EQDQ01+000082SCOTLC
0135822800999991985050312004-02533-044283FM-12+005199999V0200501N00311004201CN0100001N9+02701+02391101301ADDAA124011091AG10999AY101061GF106991061021004501001001KA1240N+02271MA1999999100721MD1999999-0071MW1021REMSYN023333   20227 59007 60114
0127822800999991985050318004-02533-044283FM-12+005199999V0203601N00311004201CN0040001N9+02621+02461100941ADDAA106000491AA299000591AG10999AY161061GF108991081071004501999999MA1999999100361MD1999999+0061MW1601REMSYN017333   58006 69941
0135822800999991985050400004-02533-044283FM-12+005199999V0209991C00001004201CN0040001N9+02501+02361101191ADDAA106001091AG10999AY121061GF108991081071004501999999KA1240M+02931MA1999999100611MD1999999-0081MW1601REMSYN023333   10293 59008 60011
0135822800999991985050412004-02533-044283FM-12+005199999V0200501N00261004201CN0100001N9+02651+02351101291ADDAA124002091AG10999AY161061GF105991051021004501001001KA1240N+02271MA1999999100711MD1999999-0011MW1011REMSYN023333   20227 59001 60024
0085822800999991985050418004-02533-044283FM-12+005199999V0203601N00211045001CN0100001N9+02861+02371100911ADDAG10999GF106991041021004501011001MA1999999100331MD1999999-0031REMSYN011333   59003
0164822800999991985050500004-02533-044283FM-12+005199999V0203601N00151045001CN0100001N9+02461+02371101211ADDAA106000091AG10999AY101061GF106991021011008001051001KA1240M+03061MA1999999100621MD1999999+0021MW1021REMSYN017333   10306 58002EQDQ01+030061APOSP Q02+999990APOSP 
0129822800999991985050512004-02533-044283FM-12+005199999V0200501N00211045001CN0100001N9+02781+02481101251ADDAA106000091AG10999AY101061GF106991041061008001061001KA1240N+02301MA1999999100671MD1999999-0041MW1021REMSYN017333   20230 59004
0116822800999991985050518004-02533-044283FM-12+005199999V0203601N00211012001CN0100001N9+02711+02391101011ADDAA106006091AG10999AY161061GF107991051081008001061001MA1999999100431MD1999999+0101MW1171REMSYN017333   58010 60061
0135822800999991985050600004-02533-044283FM-12+005199999V0209991C00001004201CN0100001N9+02391+02351101211ADDAA106002091AG10999AY161061GF106991061061004501021999KA1240M+02851MA1999999100631MD1410001+0001MW1031REMSYN023333   10285 58000 60021
0135822800999991985050612004-02533-044283FM-12+005199999V0201401N00151045001CN0100001N9+02501+02471101181ADDAA124011091AG10999AY161061GF106991041031004501011001KA1240N+02271MA1999999100601MD1999999-0071MW1211REMSYN023333   20227 59007 60114
0116822800999991985050618004-02533-044283FM-12+005199999V0203601N00311045001CN0100001N9+02721+02411100911ADDAA106019091AG10999AY161061GF106991041021004501011001MA1999999100331MD1999999-0101MW1011REMSYN017333   59010 60191
0129822800999991985050700004-02533-044283FM-12+005199999V0209991C00001045001CN0100001N9+02441+02351101171ADDAA106000091AG10999AY101061GF105991031021008001061001KA1240M+02871MA1999999100491MD1999999-0041MW1021REMSYN017333   10287 59004
0121822800999991985050712004-02533-044283FM-12+005199999V0200501N00151045001CN0100001N9+02441+02411101181ADDAA124015091AG10999GF107991041021004501011001KA1240N+02311MA1999999100601MD1410001+0001REMSYN023333   20231 58000 60154
0116822800999991985050718004-02533-044283FM-12+005199999V0200501N00211004201CN0100001N9+02541+02451100911ADDAA106005091AG10999AY161061GF108991051061004501021999MA1999999100331MD1410001+0001MW1211REMSYN017333   58000 60051
0154822800999991985050800004-02533-044283FM-12+005199999V0200901N00151004201CN0020001N9+02361+02311101021ADDAA106009091AG10999AY161061GF108991081071004501999999KA1240M+02901MA1999999101212MD1999999+0041MW1601REMSYN023333   10290 58004 60091EQDQ01+101213APOSP 
0135822800999991985050812004-02533-044283FM-12+005199999V0201401N00151045001CN0100001N9+02651+02421101271ADDAA124027091AG10999AY161061GF106991041021004501011001KA1240N+02251MA1999999100691MD1999999+0091MW1011REMSYN023333   20225 58009 60274
0127822800999991985050818004-02533-044283FM-12+005199999V0200501N00211004201CN0100001N9+02861+02311100821ADDAA106000491AA299000591AG10999AY161061GF106991061021004501001001MA1999999100241MD1999999+0091MW1011REMSYN017333   58009 69941
0148822800999991985050900004-02533-044283FM-12+005199999V0200501N00101220001CN0100001N9+02441+02351101131ADDAA106999999AG10999AY121061GF104991999999004501999999KA1240M+02951MA1999999100551MD1999999-0081MW1821REMSYN017333   10295 59008EQDQ01  00002PRCP06
0129822800999991985051000004-02533-044283FM-12+005199999V0209991C00001045001CN0100001N9+02461+02391101101ADDAA106000091AG10999AY101061GF108991041061004501021999KA1240M+02881MA1999999100521MD1999999-0031MW1021REMSYN017333   10288 59003
0135822800999991985051012004-02533-044283FM-12+005199999V0209991C00001045001CN0100001N9+02701+02461101101ADDAA124025091AG10999AY161061GF106991031061008001061001KA1240N+02341MA1999999100521MD1999999-0071MW1021REMSYN023333   20234 59007 60254
0099822800999991985051018004-02533-044283FM-12+005199999V0203601N00211045001CN0100001N9+02661+02461100761ADDAG10999AY121061GF108991041061008001021999MA1999999100181MD1999999-0071MW1151REMSYN011333   59007
0135822800999991985051100004-02533-044283FM-12+005199999V0201401N00151045001CN0040001N9+02401+02311101021ADDAA106025091AG10999AY161061GF108991041051004501021999KA1240M+02891MA1999999100441MD1999999-0081MW1621REMSYN023333   10289 59008 60251
0135822800999991985051112004-02533-044283FM-12+005199999V0203601N00151045001CN0100001N9+02541+02381101091ADDAA124076091AG10999AY161061GF107991021011008001031011KA1240N+02201MA1999999100511MD1999999-0051MW1021REMSYN023333   20220 59005 60764
0110822800999991985051118004-02533-044283FM-12+005199999V0201601N00211220001CN0100001N9+02921+02391100731ADDAA106000091AG10999AY101061GF103991011011008001031021MA1999999100161MD1999999-0021MW1021REMSYN011333   59002
0129822800999991985051200004-02533-044283FM-12+005199999V0209991C00001045001CN0100001N9+02421+02331101041ADDAA106000091AG10999AY101061GF108991031011017501031001KA1240M+02441MA1999999100461MD1999999+0031MW1021REMSYN017333   10244 58003
0135822800999991985051212004-02533-044283FM-12+005199999V0209991C00001004201CN0100001N9+02411+02281101181ADDAA124013091AG10999AY161061GF108991061071004501999999KA1240N+02311MA1999999100601MD1999999+0091MW1211REMSYN023333   20231 58009 60134
0116822800999991985051218004-02533-044283FM-12+005199999V0209991C00001004201CN0100001N9+02541+02321100851ADDAA106001091AG10999AY161061GF108991081061004501999999MA1999999100271MD1999999+0111MW1211REMSYN017333   58011 60011
0129822800999991985051300004-02533-044283FM-12+005199999V0209991C00001004201CN0100001N9+02401+02351101161ADDAA106000091AG10001AY101061GF105991051021004501001001KA1240M+02801MA1999999100581MD1999999+0121MW1021REMSYN017333   10280 58012
0135822800999991985051312004-02533-044283FM-12+005199999V0201401N00151004201CN0100001N9+02381+02331101351ADDAA124016091AG10999AY161061GF107991051021004501011999KA1240N+02271MA1999999100771MD1999999+0171MW1021REMSYN023333   20227 58017 60164
0110822800999991985051318004-02533-044283FM-12+005199999V0201401N00151045001CN0100001N9+02901+02201100961ADDAA106000091AG10999AY101061GF106991041021004501011001MA1999999100381MD1999999+0111MW1021REMSYN011333   58011
0118822800999991985051400004-02533-044283FM-12+005199999V0200501N00151220001CN0100001N9+02521+02381101291ADDAG10999AY121061GF103991031061008001061011KA1240M+02961MA1999999100711MD1999999+0131MW1131REMSYN017333   10296 58013
0135822800999991985051412004-02533-044283FM-12+005199999V0201401N00211004201CN0100001N9+02361+02281101491ADDAA124011091AG10999AY161061GF108991051061004501021999KA1240N+02271MA1999999100911MD1999999+0141MW1011REMSYN023333   20227 58014 60114
0116822800999991985051418004-02533-044283FM-12+005199999V0209991C00001045001CN0100001N9+02441+02341101071ADDAA106002091AG10999AY161061GF108991041061004501021999MA1999999100491MD1999999+0111MW1021REMSYN017333   58011 60021
0129822800999991985051500004-02533-044283FM-12+005199999V0209991C00001004201CN0100001N9+02361+02241101311ADDAA106000091AG10999AY101061GF108991081061004501999999KA1240M+02701MA1999999100731MD1999999+0021MW1021REMSYN017333   10270 58002
0135822800999991985051512004-02533-044283FM-12+005199999V0200501N00211045001CN0100001N9+02621+02441101341ADDAA124002091AG10999AY161061GF106991041081008001061001KA1240N+02241MA1999999100761MD1999999-0151MW1021REMSYN023333   20224 59015 60024
0135822800999991985051514004-02533-044283FM-12+005199999V0200501N00211045001CN0100001N9+02621+02441101341ADDAA124002091AG10999AY161021GF106991041081008001061001KA1240N+02241MA1999999100761MD1999999-0151MW1021REMSYN023333   20224 59015 60024
0110822800999991985051518004-02533-044283FM-12+005199999V0203601N00211012001CN0100001N9+02881+02371100951ADDAA106000091AG10999AY101061GF105991051081008001001001MA1999999100381MD1999999-0111MW1021REMSYN011333   59011
0129822800999991985051600004-02533-044283FM-12+005199999V0209991C00001007501CN0100001N9+02451+02371101271ADDAA106000091AG10999AY101061GF106991061021008001001001KA1240M+02961MA1999999100691MD1999999-0041MW1021REMSYN017333   10296 59004
0135822800999991985051612004-02533-044283FM-12+005199999V0200901N00211045001CN0100001N9+02741+02451101291ADDAA124009091AG10999AY161061GF105991031021008001031001KA1240N+02241MA1999999100611MD1999999-0081MW1031REMSYN023333   20224 59008 60094
0116822800999991985051618004-02533-044283FM-12+005199999V0200501N00101045001CN0100001N9+02581+02441100921ADDAA106002091AG10999AY121061GF107991041081004501061011MA1999999100341MD1999999-0041MW1951REMSYN017333   59004 60021
0129822800999991985051700004-02533-044283FM-12+005199999V0200901N00101045001CN0100001N9+02461+02361101121ADDAA106000091AG10999AY101061GF106991031041004501061011KA1240M+03031MA1999999100541MD1999999-0151MW1021REMSYN017333   10303 59015
0116822800999991985051718004-02533-044283FM-12+005199999V0203601N00211045001CN0100001N9+02531+02431100971ADDAA106002091AG10999AY161061GF106991031081004501021001MA1999999100391MD1999999-0051MW1021REMSYN017333   59005 60021
0129822800999991985051800004-02533-044283FM-12+005199999V0209991C00001004201CN0100001N9+02441+02391101101ADDAA106000091AG10999AY101061GF108991061071004501021999KA1240M+02961MA1999999100521MD1999999-0021MW1021REMSYN017333   10296 59002
0135822800999991985051812004-02533-044283FM-12+005199999V0209991C00001004201CN0100001N9+02481+02251101211ADDAA124040091AG10999AY161061GF108991061051004501011999KA1240N+02261MA1999999100631MD1999999+0071MW1021REMSYN023333   20226 58007 60404
0110822800999991985051818004-02533-044283FM-12+005199999V0203601N00311045001CN0100001N9+02741+02261100981ADDAA106000091AG10999AY101061GF106991041051004501011001MA1999999100401MD1999999+0011MW1021REMSYN011333   58001
0154822800999991985051900004-02533-044283FM-12+005199999V0201401N00151004201CN0100001N9+02321+02251101862ADDAA106007091AG10999AY161061GF108991081061004501999999KA1240M+02841MA1999999100681MD1999999+0161MW1211REMSYN023333   10284 58016 60071EQDQ01+101863APOSLP
0135822800999991985051912004-02533-044283FM-12+005199999V0201401N00151045001CN0100001N9+02601+02331101191ADDAA124007091AG10999AY101061GF106991041051004501031001KA1240N+02171MA1999999100611MD1999999-0021MW1021REMSYN023333   20217 59002 60074
0110822800999991985051918004-02533-044283FM-12+005199999V0203601N00211220001CN0100001N9+02921+02341100901ADDAA106000091AG10999AY101061GF103991031021004501001001MA1999999100331MD1999999-0071MW1021REMSYN011333   59007
0135822800999991985052000004-02533-044283FM-12+005199999V0209991C00001004201CN0020001N9+02301+02231101251ADDAA106003091AG10999AY161061GF108991081071004501999999KA1240M+03021MA1999999100671MD1999999-0011MW1601REMSYN023333   10302 59001 60031
0135822800999991985052012004-02533-044283FM-12+005199999V0201401N00261004201CN0100001N9+02601+02401101261ADDAA124029091AG10999AY161061GF108991061051004501061999KA1240N+02251MA1999999100681MD1999999+0071MW1031REMSYN023333   20225 58007 60294
0110822800999991985052018004-02533-044283FM-12+005199999V0203601N00261045001CN0100001N9+02701+02301100841ADDAA106000091AG10999AY101061GF107991011011004501071001MA1999999100261MD1999999-0071MW1021REMSYN011333   59007
0135822800999991985052112004-02533-044283FM-12+005199999V0200901N00101045001CN0100001N9+02501+02411101311ADDAA124003091AG10999AY161061GF108991021011004501021999KA1240N+02291MA1999999100731MD1999999+0051MW1611REMSYN023333   20229 58005 60034
0116822800999991985052118004-02533-044283FM-12+005199999V0203601N00311045001CN0100001N9+02861+02521100981ADDAA106002091AG10999AY161061GF106991031021004501061011MA1999999100401MD1999999+0141MW1021REMSYN017333   58014 60021
0129822800999991985052200004-02533-044283FM-12+005199999V0200901N00101220001CN0100001N9+02421+02321101201ADDAA106000091AG10999AY101061GF102991021011004501001001KA1240M+02881MA1999999100621MD1999999+0061MW1021REMSYN017333   10288 58006
0132822800999991985052212004-02533-044283FM-12+005199999V0209991C00001004201CN0100001N9+02661+02411101311ADDAA106000091AA224002091AG10999GF107991051051004501021001KA1240N+02311MA1999999100431MD1410001+0001REMSYN023333   20231 58000 60024
0116822800999991985052218004-02533-044283FM-12+005199999V0209991C00001045001CN0100001N9+02471+02411101001ADDAA106019091AG10999AY161061GF108991021011004501021999MA1999999100421MD1999999+0021MW1611REMSYN017333   58002 60191
0146822800999991985052300004-02533-044283FM-12+005199999V0209991C00001004201CN0100001N9+02391+02241101161ADDAA106000691AA299000591AG10999AY161061GF108991061051004501999999KA1240M+02781MA1999999100581MD1999999-0041MW1611REMSYN023333   10278 59004 69961
0135822800999991985052312004-02533-044283FM-12+005199999V0200901N00101220001CN0100001N9+02571+02281101271ADDAA124022091AG10999AY161061GF103991021011004501011001KA1240N+02151MA1999999100691MD1999999-0041MW1011REMSYN023333   20215 59004 60224
0110822800999991985052318004-02533-044283FM-12+005199999V0200501N00211045001CN0100001N9+02861+02371101081ADDAA106000091AG10999AY101061GF106991041051004501011001MA1999999100511MD1999999+0091MW1021REMSYN011333   58009
0135822800999991985052400004-02533-044283FM-12+005199999V0200501N00101220001CN0100001N9+02251+02191101211ADDAA106001091AG10999AY161061GF103991021011008001001011KA1240M+02941MA1999999100631MD1999999-0051MW1011REMSYN023333   10294 59005 60011
0135822800999991985052412004-02533-044283FM-12+005199999V0209991C00001004201CN0100001N9+02341+02291101361ADDAA124009091AG10999AY161061GF108991081071004501999999KA1240N+02321MA1999999100781MD1999999+0011MW1611REMSYN023333   20232 58001 60094
0127822800999991985052418004-02533-044283FM-12+005199999V0203601N00311045001CN0100001N9+02801+02251101031ADDAA106000291AA299000391AG10999AY161061GF106991041021004501011001MA1999999100451MD1999999-0061MW1011REMSYN017333   59006 69921
0129822800999991985052500004-02533-044283FM-12+005199999V0209991C00001045001CN0100001N9+02421+02351101311ADDAA106000091AG10999AY101061GF107991041021008001061001KA1240M+02861MA1999999100731MD1999999+0101MW1021REMSYN017333   10286 58010
0132822800999991985052512004-02533-044283FM-12+005199999V0200901N00151045001CN0100001N9+02671+02431101321ADDAA124000291AA299000391AG10999GF106991041061004501061001KA1240N+02301MA1999999100741MD1999999-0041REMSYN023333   20230 59004 69924
0110822800999991985052518004-02533-044283FM-12+005199999V0201401N00101004201CN0100001N9+02791+02381101051ADDAA106000091AG10999AY101061GF107991071061004501001001MA1999999100471MD1999999+0021MW1021REMSYN011333   58002
0129822800999991985052600004-02533-044283FM-12+005199999V0200901N00101220001CN0100001N9+02461+02281101231ADDAA106000091AG10999AY101061GF102991021011008001001001KA1240M+02981MA1999999100651MD1999999-0081MW1021REMSYN017333   10298 59008
0118822800999991985052612004-02533-044283FM-12+005199999V0200901N00151045001CN0100001N9+02741+02481101331ADDAG10999AY101061GF106991021031004501031001KA1240N+02291MA1999999100751MD1999999+0011MW1021REMSYN017333   20229 58001
0110822800999991985052618004-02533-044283FM-12+005199999V0203601N00361045001CN0100001N9+02901+02371100981ADDAA106000091AG10999AY101061GF106991031011008001061001MA1999999100401MD1999999-0071MW1021REMSYN011333   59007
0146822800999991985052700004-02533-044283FM-12+005199999V0200901N00151105001CN0100001N9+02501+02401101201ADDAA106000491AA299000591AG10999AY161061GF105991011011008001031011KA1240M+03101MA1999999100621MD1999999-0031MW1011REMSYN023333   10310 59003 69941
0132822800999991985052712004-02533-044283FM-12+005199999V0200901N00211220001CN0100001N9+02811+02311101321ADDAA124000491AA299000591AG10999GF103991021041012501041999KA1240N+02311MA1999999100741MD1999999-0011REMSYN023333   20231 59001 69944
0110822800999991985052718004-02533-044283FM-12+005199999V0203601N00311007501CN0100001N9+03031+02441100931ADDAA106000091AG10999AY101061GF105991051021008001001001MA1999999100351MD1999999-0051MW1021REMSYN011333   59005
0135822800999991985052800004-02533-044283FM-12+005199999V0201401N00101045001CN0100001N9+02461+02371101181ADDAA106013091AG10999AY191061GF105991021041004501061001KA1240M+03141MA1999999100601MD1999999-0021MW1021REMSYN023333   10314 59002 60131
0135822800999991985052812004-02533-044283FM-12+005199999V0201401N00151045001CN0100001N9+02661+02391101171ADDAA124015091AG10999AY161061GF106991031021004501011001KA1240N+02371MA1999999100591MD1999999-0151MW1011REMSYN023333   20237 59015 60154
0110822800999991985052818004-02533-044283FM-12+005199999V0200901N00311045001CN0100001N9+03041+02281100891ADDAA106000091AG10999AY101061GF105991041021004501011001MA1999999100271MD1999999+0081MW1021REMSYN011333   58008
0135822800999991985052900004-02533-044283FM-12+005199999V0209991C00001045001CN0100001N9+02461+02391101141ADDAA106004091AG10999AY161061GF106991041021004501011001KA1240M+03101MA1999999100561MD1999999-0041MW1021REMSYN023333   10310 59004 60041
0135822800999991985052912004-02533-044283FM-12+005199999V0200901N00261220001CN0100001N9+02781+02381101171ADDAA124004091AG10999AY161061GF102991021011004501001001KA1240N+02341MA1999999100591MD1410001+0001MW1011REMSYN023333   20234 58000 60044
0110822800999991985052918004-02533-044283FM-12+005199999V0200501N00311045001CN0100001N9+02861+02311100891ADDAA106000091AG10999AY101061GF106991041021004501011001MA1999999100321MD1999999+0051MW1021REMSYN011333   58005
0154822800999991985053012004-02533-044283FM-12+005199999V0202001N04782220001CN0200001N9+02701+02411101301ADDAA124018091AG10999AY161061GF103991021011008001031011KA1240N+02281MA1999999100721MD1999999+0131MW1021REMSYN023333   20228 58013 60184EQDQ01+004783WOSPD 
0110822800999991985053018004-02533-044283FM-12+005199999V0200501N00211007501CN0100001N9+03001+02371100901ADDAA106000091AG10999AY101061GF106991061021008001001001MA1999999100331MD1999999-0011MW1021REMSYN011333   59001
0135822800999991985053100004-02533-044283FM-12+005199999V0209991C00001045001CN0100001N9+02461+02371101171ADDAA106005091AG10999AY161061GF107991041081004501061001KA1240M+03181MA1999999100591MD1999999+0031MW1021REMSYN023333   10318 58003 60051
0110822800999991985053118004-02533-044283FM-12+005199999V0201401N00151105001CN0100001N9+03041+02281100941ADDAA106000091AG10999AY101061GF105991021021004501061041MA1999999100371MD1999999+0041MW1021REMSYN011333   58004
0129822800999991985060100004-02533-044283FM-12+005199999V0200901N00101045001CN0100001N9+02571+02401101191ADDAA106000091AG10999AY101061GF106991021011008001031001KA1240M+03141MA1999999100611MD1999999+0021MW1021REMSYN017333   10314 58002
0135822800999991985060112004-02533-044283FM-12+005199999V0200901N00261220001CN0100001N9+02811+02221101181ADDAA124002091AG10999AY161061GF102991011021017501041001KA1240N+02281MA1999999100601MD1999999-0101MW1011REMSYN023333   20228 59010 60024
0110822800999991985060118004-02533-044283FM-12+005199999V0200901N00151045001CN0100001N9+03041+02061100891ADDAA106000091AG10999AY101061GF106991041021008001061001MA1999999100311MD1999999-0011MW1021REMSYN011333   59001
0129822800999991985060212004-02533-044283FM-12+005199999V0201401N00151045001CN0100001N9+02681+02111101031ADDAA106000091AG10999AY101061GF106991041021004501011001KA1240N+02211MA1999999100481MD1999999-0121MW1021REMSYN017333   20221 59012
0110822800999991985060218004-02533-044283FM-12+005199999V0200501N00151004201CN0100001N9+02961+02101100821ADDAA106000091AG10999AY101061GF106991051021004501011001MA1999999100241MD1999999-0071MW1021REMSYN011333   59007
0135822800999991985060300004-02533-044283FM-12+005199999V0200901N00101045001CN0100001N9+02301+02221101001ADDAA106012091AG10999AY161061GF106991041021004501011001KA1240M+03101MA1999999100421MD1999999-0111MW1011REMSYN023333   10310 59011 60121
0135822800999991985060312004-02533-044283FM-12+005199999V0209991C00001004201CN0100001N9+02531+02421101061ADDAA124020091AG10999AY161061GF108991061061004501021001KA1240N+02231MA1999999100481MD1410001+0001MW1211REMSYN023333   20223 58000 60204
0116822800999991985060318004-02533-044283FM-12+005199999V0203601N00151004201CN0100001N9+02651+02391100841ADDAA106005091AG10999AY161061GF108991061061004501021001MA1999999100261MD1999999+0021MW1021REMSYN017333   58002 60051
0129822800999991985060400004-02533-044283FM-12+005199999V0209991C00001045001CN0100001N9+02491+02381101151ADDAA106000091AG10999AY101061GF107991041081004501061001KA1240M+02721MA1999999100571MD1999999+0051MW1021REMSYN017333   10272 58005
0135822800999991985060412004-02533-044283FM-12+005199999V0200501N00101220001CN0100001N9+02681+02281101201ADDAA124005091AG10999AY161061GF104991011011008001031011KA1240N+02201MA1999999100621MD1999999+0141MW1021REMSYN023333   20220 58014 60054
0110822800999991985060418004-02533-044283FM-12+005199999V0202601N00311220001CN0100001N9+02901+02431100971ADDAA106000091AG10999AY101061GF104991011021008001031011MA1999999100401MD1999999+0141MW1021REMSYN011333   58014
0129822800999991985060500004-02533-044283FM-12+005199999V0200501N00151105001CN0100001N9+02451+02281101281ADDAA106000091AG10999AY101061GF105991011011008001031011KA1240M+03001MA1999999100701MD1999999+0131MW1021REMSYN017333   10300 58013
0135822800999991985060512004-02533-044283FM-12+005199999V0201401N00151045001CN0100001N9+02681+02411101351ADDAA124006091AG10999AY161061GF105991031021004501011001KA1240N+02291MA1999999100771MD1999999+0151MW1011REMSYN023333   20229 58015 60064
0110822800999991985060518004-02533-044283FM-12+005199999V0200501N00511004201CN0100001N9+02841+02381101031ADDAA106000091AG10999AY101061GF106991061031004501001001MA1999999100451MD1999999+0061MW1021REMSYN011333   58006
0135822800999991985060612004-02533-044283FM-12+005199999V0209991C00001004201CN0100001N9+02621+02311101361ADDAA124009091AG10999AY161061GF106991061021004501001001KA1240N+02321MA1999999100811MD1999999+0041MW1021REMSYN023333   20232 58004 60094
0127822800999991985060618004-02533-044283FM-12+005199999V0200501N00151004201CN0100001N9+02761+02281101141ADDAA106000291AA299000391AG10999AY161061GF106991061051004501001001MA1999999100561MD1999999+0101MW1011REMSYN017333   58010 69921
0129822800999991985060700004-02533-044283FM-12+005199999V0200901N00151220001CN0100001N9+02421+02311101211ADDAA106000091AG10999AY101061GF102991021011008001001001KA1240M+02841MA1999999100631MD1999999+0011MW1021REMSYN017333   10284 58001
0132822800999991985060712004-02533-044283FM-12+005199999V0200901N00211105001CN0100001N9+02821+02441101541ADDAA106000091AA224000291AG10999GF106991041021004501001021KA1240N+02351MA1999999100961MD1999999+0151REMSYN023333   20235 58015 69924
0096822800999991985060718004-02533-044283FM-12+005199999V0200501N00261220001CN0100001N9+02901+02531101261ADDAA106000091AG10999GF106991041021008001001011MA1999999100681MD1999999+0121REMSYN011333   58012
0115822800999991985060800004-02533-044283FM-12+005199999V0200501N00151220001CN0100001N9+02421+02321101301ADDAA106000091AG10999GF100991001001999999001001KA1240M+03061MA1999999100721MD1999999+0091REMSYN017333   10306 58009
0115822800999991985060812004-02533-044283FM-12+005199999V0200501N00261220001CN0100001N9+02821+02381101421ADDAA106000091AG10999GF104991031011008001001011KA1240N+02341MA1999999100841MD1999999-0121REMSYN017333   20234 59012
0096822800999991985060818004-02533-044283FM-12+005199999V0203601N00311045001CN0100001N9+02881+02461101161ADDAA106000091AG10999GF106991031021004501061011MA1999999100591MD1999999-0091REMSYN011333   59009
0115822800999991985060900004-02533-044283FM-12+005199999V0200901N00101220001CN0100001N9+02461+02321101341ADDAA106000091AG10999GF103991031011008001001001KA1240M+02991MA1999999100761MD1999999+0041REMSYN017333   10299 58004
0101822800999991985060912004-02533-044283FM-12+005199999V0200901N00411220001CN0100001N9+02761+02341101531ADDAA106000091AG10999GF104991041011008001001001KA1240N+02291MA1999999100951REMSYN017333   20229 5801/
0096822800999991985060918004-02533-044283FM-12+005199999V0200501N00311220001CN0100001N9+02981+02171101251ADDAA106000091AG10999GF104991041021004501001001MA1999999100681MD1999999+0091REMSYN011333   58009
0116822800999991985061018004-02533-044283FM-12+005199999V0209991C00001220001CN0100001N9+02581+02171101391ADDAA106014091AG10999AY161061GF104991041021004501001001MA1999999100811MD1999999+0131MW1211REMSYN017333   58013 60141
0146822800999991985061100004-02533-044283FM-12+005199999V0200901N00151220001CN0100001N9+02401+02381101591ADDAA106002091AA299000091AG10999AY161061GF101991011011008001999999KA1240M+02981MA1999999101011MD1999999+0051MW1011REMSYN023333   10298 58005 60021
0146822800999991985061112004-02533-044283FM-12+005199999V0203601N00211004201CN0100001N9+02781+02401101681ADDAA106000091AA224017091AG10999AY161061GF106991061021004501001001KA1240N+02241MA1999999101101MD1999999+0031MW1031REMSYN023333   20224 58003 60174
0116822800999991985061118004-02533-044283FM-12+005199999V0203601N00211105001CN0100001N9+02831+02381101601ADDAA106005091AG10999AY161061GF105991031021008001001021MA1999999101021MD1999999+0061MW1211REMSYN017333   58006 60051
0115822800999991985061200004-02533-044283FM-12+005199999V0209991C00001220001CN0100001N9+02471+02361101571ADDAA106000091AG10999GF103991021021008001001021KA1240M+02941MA1999999100991MD1999999-0021REMSYN017333   10294 59002
0135822800999991985061212004-02533-044283FM-12+005199999V0201401N00261045001CN0100001N9+02421+02131101661ADDAA124005091AG10999AY161061GF106991031051008001031001KA1240N+02141MA1999999101971MD1999999-0031MW1021REMSYN023333   20214 59003 60054
0115822800999991985061218004-02533-044283FM-12+005199999V0201401N00101220001CN0100001N9+02941+02191101231ADDAA106000091AG10999GF103991021011008001031001MA1999999100652MD1999999-0101REMSYN011333   59010EQDQ01+100653APOSP 
0135822800999991985061300004-02533-044283FM-12+005199999V0209991C00001045001CN0100001N9+02401+02371101511ADDAA106018091AG10999AY191061GF106991041061004501061001KA1240M+02961MA1999999100931MD1999999-0061MW1951REMSYN023333   10296 59006 60181
0135822800999991985061312004-02533-044283FM-12+005199999V0201801N00151004201CN0040001N9+02341+02291101691ADDAA124058091AG10999AY161061GF108991061071004501021999KA1240N+02221MA1999999101111MD1999999+0041MW1621REMSYN023333   20222 58004 60584
0116822800999991985061318004-02533-044283FM-12+005199999V0203601N00101004201CN0040001N9+02291+02251101381ADDAA106037091AG10999AY161061GF108991061071004501021999MA1999999100801MD1999999+0151MW1611REMSYN017333   58015 60371
0135822800999991985061400004-02533-044283FM-12+005199999V0209991C00001220001CN0100001N9+02241+02211101521ADDAA106002091AG10999AY161061GF103991021011008001031001KA1240M+02411MA1999999100951MD1999999+0021MW1011REMSYN023333   10241 58002 60021
0135822800999991985061412004-02533-044283FM-12+005199999V0200501N00311045001CN0100001N9+02501+02251101601ADDAA124040091AG10999AY161061GF106991041021004501011001KA1240N+02171MA1999999101021MD1999999-0091MW1011REMSYN023333   20217 59009 60404
0096822800999991985061418004-02533-044283FM-12+005199999V0200501N00311045001CN0100001N9+02721+02241101221ADDAA106000091AG10999GF106991041021004501011001MA1999999100641MD1999999-0161REMSYN011333   59016
0135822800999991985061500004-02533-044283FM-12+005199999V0209991C00001009001CN0100001N9+02321+02271101491ADDAA106003091AG10999AY161061GF105991051081004501001001KA1240M+02941MA1999999100911MD1999999-0041MW1011REMSYN023333   10294 59004 60031
0132822800999991985061512004-02533-044283FM-12+005199999V0200901N00101220001CN0100001N9+02741+02391101551ADDAA106000091AA224004091AG10999GF103991021011008001061001KA1240N+02121MA1999999100871MD1999999-0051REMSYN023333   20212 59005 60044
0096822800999991985061518004-02533-044283FM-12+005199999V0203601N00101220001CN0100001N9+02881+02441101201ADDAA106000091AG10999GF104991041021008001001001MA1999999100621MD1999999-0021REMSYN011333   59002
0115822800999991985061600004-02533-044283FM-12+005199999V0200901N00101009001CN0100001N9+02471+02301101651ADDAA106000091AG10999GF105991051081004501001001KA1240M+03041MA1999999100871MD1999999-0041REMSYN017333   10304 59004
0115822800999991985061612004-02533-044283FM-12+005199999V0200901N00211004201CN0100001N9+02801+02361101411ADDAA106000091AG10999GF105991051021004501001001KA1240N+02261MA1999999100831MD1999999-0141REMSYN017333   20226 59014
0096822800999991985061618004-02533-044283FM-12+005199999V0203601N00311220001CN0100001N9+02851+02421101111ADDAA106000091AG10999GF104991031021004501031001MA1999999100531MD1999999-0091REMSYN011333   59009
0135822800999991985061700004-02533-044283FM-12+005199999V0200501N00311220001CN0100001N9+02561+02401101441ADDAA106002091AG10999AY121061GF102991011021004501061001KA1240M+03081MA1999999100481MD1999999-0061MW1911REMSYN023333   10308 59006 60021
0135822800999991985061712004-02533-044283FM-12+005199999V0200901N00101045001CN0100001N9+02801+02481101441ADDAA124002091AG10999AY161061GF105991031051004501031001KA1240N+02281MA1999999100861MD1999999+0031MW1011REMSYN023333   20228 58003 60024
0127822800999991985061718004-02533-044283FM-12+005199999V0200601N00151045001CN0100001N9+02511+02361101081ADDAA106000491AA299000591AG10999AY121061GF107991041051004501021001MA1999999100501MD1999999-0031MW1031REMSYN017333   59003 69941
