0129825780999991985010112004-05083-042800FM-12+006999999V0201401N00311007501CN0040001N9+02721+02321101271ADDAA106000091AG10999AY101061GF106991061021008001001001KA1240N+02331MA1999999100251MD1999999-0041MW1021REMSYN017333   20233 59004
0110825780999991985010118004-05083-042800FM-12+006999999V0200901N00151220001CN0040001N9+03241+02101100771ADDAA106000091AG10999AY101061GF103991021021008001011001MA1999999099771MD1999999+0031MW1021REMSYN011333   58003
0165825780999991985010200004-05083-042800FM-12+006999999V0202701N00051007501CN9999999N9+02431+02251101081ADDAA106004091AA299999999AG10999AY161061GF108991051051008001021999KA1240M+03321MA1999999100061MD1999999-0071MW1211REMSYN023333   10332 59007 60041EQDQ01  00002PRCP99
0135825780999991985010212004-05083-042800FM-12+006999999V0200501N00101012001CN0040001N9+02631+02411101201ADDAA124011091AG10999AY161061GF107991071081008001001001KA1240N+02181MA1999999100181MD1999999-0071MW1021REMSYN023333   20218 59007 60114
0110825780999991985010218004-05083-042800FM-12+006999999V0203601N00211220001CN0040001N9+03281+02261100701ADDAA106000091AG10999AY101061GF102991021021008001001001MA1999999099701MD1999999-0071MW1021REMSYN011333   59007
0129825780999991985010312004-05083-042800FM-12+006999999V0203201N00101007501CN0040001N9+02571+02361101211ADDAA106000091AG10999AY101061GF108991081051008001999999KA1240N+02321MA1999999100191MD1999999+0011MW1021REMSYN017333   20232 58001
0110825780999991985010418004-05083-042800FM-12+006999999V0202701N00211045001CN0040001N9+02981+02121100861ADDAA106000091AG10999AY101061GF106991031051008001031001MA1999999099851MD1999999+0031MW1021REMSYN011333   58003
0110825780999991985010518004-05083-042800FM-12+006999999V0202301N00151220001CN0040001N9+03161+02421100831ADDAA106000091AG10999AY101061GF104991031021008001031001MA1999999099821MD1999999-0031MW1021REMSYN011333   59003
0140825780999991985010612004-05083-042800FM-12+006999999V0201401N00101220001CN0040001N9+02761+02481101261ADDAA124013091AG10999GF103991031021008001001001KA1240N+02121MA1999999100251MD1012662-0051REMSYN023333   20212 59005 60134EQDQ01+002662APC3  
0135825780999991985010712004-05083-042800FM-12+006999999V0202301N00151045001CN0040001N9+02461+02361101171ADDAA124020091AG10999AY161061GF108991031051008001011999KA1240N+02231MA1999999100141MD1999999-0111MW1021REMSYN023333   20223 59011 60204
0110825780999991985010718004-05083-042800FM-12+006999999V0202301N00151220001CN0040001N9+03241+02361100621ADDAA106000091AG10999AY101061GF104991031031008001001011MA1999999099621MD1999999-0131MW1021REMSYN011333   59013
0110825780999991985010818004-05083-042800FM-12+006999999V0203601N00151220001CN0040001N9+03281+02231102551ADDAA106000091AG10999AY101061GF104991031031008001001011MA1999999099551MD1999999-0071MW1021REMSYN011333   59007
0154825780999991985010900004-05083-042800FM-12+006999999V0203201N00101012001CN9999999N9+02541+02381101032ADDAA106002091AG10999AY161061GF108991081081008001999999KA1240M+03331MA1999999100011MD1999999+0101MW1031REMSYN023333   10333 58010 60021EQDQ01+101033APOSLP
0146825780999991985011012004-05083-042800FM-12+006999999V0201801N00101007501CN0040001N9+02681+02391101261ADDAA124000491AA299000591AG10999AY101061GF108991061051008001031999KA1240N+02411MA1999999100241MD1999999+0021MW1021REMSYN023333   20241 58002 69944
0116825780999991985011018004-05083-042800FM-12+006999999V0203201N00151105001CN0040001N9+02911+02541100751ADDAA106009091AG10999AY161061GF106991031021008001001021MA1999999099751MD1999999+0071MW1011REMSYN017333   58007 60091
0135825780999991985011112004-05083-042800FM-12+006999999V0201401N00151007501CN0040001N9+02431+02331101261ADDAA124056091AG10999AY161061GF108991081051008001999999KA1240N+02101MA1999999100231MD1999999-0011MW1021REMSYN023333   20210 59001 60564
0110825780999991985011118004-05083-042800FM-12+006999999V0200301N00151220001CN0040001N9+03021+02361100691ADDAA106000091AG10999AY101061GF103991031021008001031021MA1999999099681MD1999999-0071MW1021REMSYN011333   59007
0135825780999991985011212004-05083-042800FM-12+006999999V0201401N00101007501CN0040001N9+02351+02261101191ADDAA124005091AG10999AY161061GF108991081051008001999999KA1240N+02161MA1999999100161MD1999999-0071MW1021REMSYN023333   20216 59007 60054
0228825780999991985011312004-05083-042800FM-12+006999999V0209991C00001002101CN0060001N9+99999+99999094131ADDAA106999929AG10999AJ199999999999999AY141061GF108991081061002501999999KA1240M-00941KA2240N-02221MA1999999087511MD1010031+9999MW1041REMSYN035333   11094 21222 4/008 70003 90550EQDQ01 -02393ATOT  Q02 -02893ATOD  Q03  00082SNDP  
0177825780999991985011318004-05083-042800FM-12+006999999V0201401N00101007501CN0040001N9+03182+02252100782ADDAA106000091AG10999AY101061GF106991051031008001001021MA1999999099762MD1410001+0001MW1021REMSYN011333   58000EQDQ01+030503ATOT  Q02+029573ATOD  Q03+099763APOSP Q04+100783APOSLP
0148825780999991985011412004-05083-042800FM-12+006999999V0200901N002119999999N0040001N9+02651+02411101291ADDAA106000091AG10001AY101061GF106991999081008001001001KA1240N+02281MA1999999100171MD1999999-0041MW1021REMSYN017333   20228 59004EQDQ01+000022SCOTLC
0146825780999991985011418004-05083-042800FM-12+006999999V0202301N001519999999N0040001N9+03241+02421100781ADDAA106000691AA299000591AG10999AY161061GF107991999021008001001001MA1999999099781MD1999999+0021MW1011REMSYN017333   58002 69961EQDQ01+000022SCOTLC
0146825780999991985011512004-05083-042800FM-12+006999999V0203601N00101220001CN0040001N9+02761+02401101211ADDAA124000691AA299000591AG10999AY101061GF103991021021008001031001KA1240N+02261MA1999999100191MD1999999+0021MW1021REMSYN023333   20226 58002 69964
0110825780999991985011518004-05083-042800FM-12+006999999V0200501N00151045001CN0040001N9+03241+02191100811ADDAA106000091AG10999AY101061GF107991021021008001031081MA1999999099811MD1999999+0031MW1021REMSYN011333   58003
0135825780999991985011612004-05083-042800FM-12+006999999V0203601N00051220001CN0040001N9+02331+02251101281ADDAA124045091AG10999AY161061GF102991999999008001999999KA1240N+02211MA1999999100251MD1999999+0061MW1021REMSYN023333   20221 58006 60454
0110825780999991985011618004-05083-042800FM-12+006999999V0203201N00101045001CN0040001N9+02921+02341100841ADDAA106000091AG10999AY101061GF107991021021008001011001MA1999999099831MD1999999+0021MW1021REMSYN011333   58002
0129825780999991985011700004-05083-042800FM-12+006999999V0203601N00151105001CN9999999N9+02571+02441101031ADDAA106000091AG10999AY101061GF106991021021008001001071KA1240M+02981MA1999999100011MD1999999+0011MW1021REMSYN017333   10298 58001
0110825780999991985011718004-05083-042800FM-12+006999999V0200901N003119999999N0040001N9+03051+02361100631ADDAA106000091AG10999AY101061GF106991021001008001031081MA1999999099631MD1999999-0201MW1021REMSYN011333   59020
0135825780999991985011812004-05083-042800FM-12+006999999V0201401N00151007501CN0002001N9+02181+02131101361ADDAA124054091AG10999AY161061GF108991081051008001999999KA1240N+02121MA1999999100331MD1999999-0261MW1611REMSYN023333   20212 59026 60544
0116825780999991985011818004-05083-042800FM-12+006999999V0202701N00101007501CN0040001N9+02561+02331100961ADDAA106011091AG10001AY161061GF108991081051008001999999MA1999999099931MD1999999+0301MW1021REMSYN017333   58030 60111
0129825780999991985011900004-05083-042800FM-12+006999999V0200501N00411004201CN9999999N9+02451+02341101041ADDAA106000091AG10999AY101061GF108991081071004501999999KA1240M+02641MA1999999100211MD1999999+0161MW1021REMSYN017333   10264 58016
0135825780999991985011912004-05083-042800FM-12+006999999V0203201N00101007501CN0040001N9+02521+02311101271ADDAA124011091AG10999AY101061GF108991081051008001999999KA1240N+02101MA1999999100341MD1999999-0091MW1021REMSYN023333   20210 59009 60114
0127825780999991985011918004-05083-042800FM-12+006999999V0203601N00311012001CN0040001N9+02881+02411100891ADDAA106000691AA299000591AG10999AY101061GF106991051081008001041001MA1999999099881MD1999999-0051MW1551REMSYN017333   59005 69961
0143825780999991985012012004-05083-042800FM-12+006999999V0209999999999012001CN0040001N9+02591+02251999999ADDAG10999AY161061GF107991051081008001061001KA1240N+02301MA1999999080361MD1999999+0121MW1021REMSYN023333   20230 58012 5014/EQDQ01+999990APOSLP
0100825780999991985012018004-05083-042800FM-12+006999999V0202301N00211045001CN0040001N9+02811+02401100942ADDAG10999AY161061GF107991021031008001071041MA1999999099932MW1021EQDQ01+099933APOSP Q02+100943APOSLP
0157825780999991985012112004-05083-042800FM-12+006999999V0201801N00051012001CN0040001N9+02471+02251101241ADDAA124021091AG10999AY161061GA1021+150009079GF106991061081008001001001KA1240N+02201MA1999999100211MD1999999-0151MW1011REMSYN029333   20220 59015 60214 82784
0076825780999991985012118004-05083-042800FM-12+006999999V0202401N00101007501CN0040001N9+03081+02321100851ADDAA106000091AG10001AY101061GF106991061021008001001001MA1999999099851MW1021
0135825780999991985012212004-05083-042800FM-12+006999999V0200501N00151007501CN0040001N9+02651+02421101191ADDAA124002091AG10999AY161061GF106991061021008001001001KA1240N+02281MA1999999100171MD1999999-0041MW1021REMSYN023333   20228 59004 60024
0110825780999991985012218004-05083-042800FM-12+006999999V0200501N00151105001CN0040001N9+03191+02331100681ADDAA106000091AG10999AY101061GF106991031021008001001021MA1999999099681MD1999999-0171MW1021REMSYN011333   59017
0135825780999991985012312004-05083-042800FM-12+006999999V0201401N00101007501CN0040001N9+02751+02301101191ADDAA124009091AG10999AY151061GF108991051051008001011999KA1240N+02191MA1999999101161MD1999999-0011MW1021REMSYN023333   20219 59001 60094
0129825780999991985012318004-05083-042800FM-12+006999999V0202701N00211220001CN0040001N9+03051+01411100751ADDAA106000091AG10999AY101061GF102991011021008001001021MA1999999099742MD1999999+0071MW1021REMSYN011333   58007EQDQ01+099743APOSP 
0135825780999991985012412004-05083-042800FM-12+006999999V0202701N00261007501CN0040001N9+02381+02281101411ADDAA124050091AG10999AY161061GF108991081051008001999999KA1240N+02181MA1999999100381MD1999999+0221MW1021REMSYN023333   20218 58022 60504
0110825780999991985012418004-05083-042800FM-12+006999999V0203201N00101045001CN0040001N9+02821+02391101081ADDAA106000091AG10999AY101061GF108991041081008001011999MA1999999100071MD1999999+0321MW1021REMSYN011333   58032
0135825780999991985012512004-05083-042800FM-12+006999999V0203601N00101007501CN0040001N9+02451+02271101541ADDAA124005091AG10999AY161061GF108991081051008001999999KA1240N+02101MA1999999100511MD1999999+0131MW1021REMSYN023333   20210 58013 60054
0116825780999991985012518004-05083-042800FM-12+006999999V0200401N00101045001CN0040001N9+02821+02331101091ADDAA106003091AG10999AY161061GF105991041031008001031001MA1999999100011MD1999999-0061MW1001REMSYN017333   59006 60031
0110825780999991985012618004-05083-042800FM-12+006999999V0203601N00101220001CN0040001N9+03181+02161100721ADDAA106000091AG10999AY101061GF104991031021008001001011MA1999999099721MD1999999-0291MW1021REMSYN011333   59029
0121825780999991985012712004-05083-042800FM-12+006999999V0209999999999007501CN0040001N9+02571+02361101041ADDAA124002091AG10999AY161061GF107991051051008001031001KA1240N+02161MA1999999100021MW1021REMSYN023333   20216 5902/ 60024
0110825780999991985012718004-05083-042800FM-12+006999999V0203601N00151105001CN9999999N9+99999+99999100651ADDAA106000091AG10999AY101061GF107991041081008001001081MA1999999099651MD1999999-0071MW1021REMSYN011333   59007
0154825780999991985012812004-05083-042800FM-12+006999999V0200901N00311007501CN0040001N9+02441+02281101241ADDAA124045091AG10999AY161061GF108991081051008001999999KA1240N+02181MA1999999100221MD1999999+0201MW1021REMSYN023333   20218 58020 60454EQDQ01+999990APOSLP
0146825780999991985012818004-05083-042800FM-12+006999999V0203601N00361045001CN0040001N9+02961+02071100801ADDAA106000991AA299001091AG10999AY101061GF107991031031008001021031MA1999999096792MD1999999+0141MW1211REMSYN017333   58014 69991EQDQ01+096793APOSP 
0110825780999991985012912004-05083-042800FM-12+006999999V0203601N00151045001CN0040001N9+02951+02331100861ADDAA106000091AG10999AY101061GF106991031021008001031021MA1999999099861MD1999999+0071MW1021REMSYN011333   58007
0148825780999991985013012004-05083-042800FM-12+006999999V0201801N00261012001CN0200001N9+02431+02321101371ADDAA106000091AG10999AY101061GF108991999081008001051999KA1240N+02301MA1999999100341MD1999999+0111MW1021REMSYN017333   20230 58011EQDQ01+000082SCOTLC
0116825780999991985013018004-05083-042800FM-12+006999999V0201401N00211105001CN0040001N9+02751+02281100841ADDAA106009091AG10999AY161061GF106991021021008001071031MA1999999099881MD1999999+0021MW1031REMSYN017333   58002 60091
0135825780999991985013112004-05083-042800FM-12+006999999V0203201N00151007501CN0040001N9+99999+99999101351ADDAA124009091AG10999AY101061GF108991081051008001999999KA1240N+02111MA1999999100321MD1999999-0021MW1021REMSYN023333   20211 59002 60094
0110825780999991985013118004-05083-042800FM-12+006999999V0203601N00101045001CN0040001N9+03061+02171100811ADDAA106000091AG10999AY101061GF106991031021008001011021MA1999999099811MD1999999-0071MW1021REMSYN011333   59007
0133825780999991985020112004-05083-042800FM-12+006999999V0201401N00101007501CN0040001N9+02501+02231101301ADDAA106000091AA224148091AG10999AY161061GF107991051051008001031001MA1999999100271MD1999999-0061MW1011REMSYN023333   2016/ 59006 61484
0110825780999991985020118004-05083-042800FM-12+006999999V0201401N00101045001CN0040001N9+02931+02291100931ADDAA106000091AG10999AY101061GF106991041021008001031001MA1999999099921MD1999999+0111MW1021REMSYN011333   58011
0135825780999991985020212004-05083-042800FM-12+006999999V0203201N00261007501CN0040001N9+02571+02341101351ADDAA124004091AG10999AY161061GF108991081051008001999999KA1240N+02261MA1999999100321MD1999999+0071MW1021REMSYN023333   20226 58007 60044
0116825780999991985020218004-05083-042800FM-12+006999999V0200501N00151045001CN0040001N9+02731+02321100901ADDAA106000591AG10999AY161061GF108991041031008001011999MA1999999099891MD1999999-0031MW1021REMSYN017333   59003 69951
0135825780999991985020312004-05083-042800FM-12+006999999V0202701N00101007501CN0040001N9+02471+02341101441ADDAA124021091AG10999AY161061GF108991081051008001999999KA1240N+02141MA1999999100411MD1999999+0091MW1021REMSYN023333   20214 58009 60214
0116825780999991985020318004-05083-042800FM-12+006999999V0203201N00311007501CN0040001N9+02451+02321101201ADDAA106005091AG10999AY161061GF108991081051008001999999MA1999999100181MD1999999+0291MW1021REMSYN017333   58029 60051
0135825780999991985020412004-05083-042800FM-12+006999999V0203201N00101220001CN0040001N9+02481+02191101451ADDAA124005091AG10999AY101061GF105991021011008001001011KA1240N+02081MA1999999100421MD1999999+0011MW1021REMSYN023333   20208 58001 60054
0116825780999991985020418004-05083-042800FM-12+006999999V0200501N00151045001CN0040001N9+02691+02461101071ADDAA106000191AG10999AY101061GF107991031081008001011081MA1999999100051MD1999999-0131MW1201REMSYN017333   59013 69911
0135825780999991985020512004-05083-042800FM-12+006999999V0203201N00101045001CN0040001N9+02521+02311100461ADDAA124018091AG10999AY101061GF106991031081008001031001KA1240N+02161MA1999999100431MD1999999+0011MW1021REMSYN023333   20216 58001 60184
0110825780999991985020518004-05083-042800FM-12+006999999V0202701N00101105001CN0040001N9+03031+02391101031ADDAA106000091AG10999AY101061GF106991041081008001001021MA1999999100021MD1999999+0031MW1021REMSYN011333   58003
0135825780999991985020612004-05083-042800FM-12+006999999V0203201N00151007501CN0040001N9+02551+02361101491ADDAA124002091AG10999AY101061GF107991071051008001001001KA1240N+02211MA1999999100461MD1999999+0031MW1021REMSYN023333   20221 58003 60024
0135825780999991985020712004-05083-042800FM-12+006999999V0200901N00151007501CN0040001N9+02461+02251101531ADDAA124026091AG10999AY161061GF107991071051008001001001KA1240N+02101MA1999999100501MD1999999+0091MW1021REMSYN023333   20210 58009 60264
0129825780999991985020718004-05083-042800FM-12+006999999V0201401N00151007501CN0040001N9+03031+02311101061ADDAA106000091AG10999AY101061GF106991999021008001001001MA1999999100061MD1999999+0041MW1021REMSYN011333   58004EQDQ01+000052SCOTLC
0110825780999991985020818004-05083-042800FM-12+006999999V0201401N00151220001CN0040001N9+03081+02401100971ADDAA106000091AG10999AY101061GF102991021031008001001001MA1999999099971MD1999999-0091MW1021REMSYN011333   59009
0135825780999991985020912004-05083-042800FM-12+006999999V0203601N00051007501CN0040001N9+02651+02441101231ADDAA124018091AG10999AY161061GF106991061051008001001001KA1240N+02211MA1999999100201MD1999999-0131MW1031REMSYN023333   20221 59013 60184
0110825780999991985020918004-05083-042800FM-12+006999999V0201401N00051220001CN0040001N9+03151+02321100731ADDAA106000091AG10999AY101061GF104991021021008001041031MA1999999099731MD1999999-0241MW1021REMSYN011333   59024
0146825780999991985021012004-05083-042800FM-12+006999999V0203201N00101007501CN0040001N9+02461+02271101411ADDAA124000791AA299001091AG10999AY161061GF107991071051008001001001KA1240N+02181MA1999999100381MD1999999+0181MW1031REMSYN023333   20218 58018 69974
0129825780999991985021112004-05083-042800FM-12+006999999V0200501N00151007501CN0040001N9+02401+02281101411ADDAA106000091AG10999AY101061GF108991081051008001999999KA1240N+02221MA1999999100381MD1410001+0001MW1021REMSYN017333   20222 58000
0116825780999991985021118004-05083-042800FM-12+006999999V0203201N00261045001CN0040001N9+02731+02301100981ADDAA106004091AG10999AY161061GF107991041081008001021001MA1999999099971MD1999999+0031MW1031REMSYN017333   58003 60041
0135825780999991985021212004-05083-042800FM-12+006999999V0203601N00101045001CN0040001N9+99999+99999101431ADDAA124026091AG10999AY151061GF106991041081008001031001KA1240N+02141MA1999999100401MD1999999+0021MW1021REMSYN023333   20214 58002 60264
0110825780999991985021218004-05083-042800FM-12+006999999V0203201N00261007501CN0040001N9+03041+02261100951ADDAA106000091AG10999AY101061GF105991051061008001001001MA1999999099951MD1999999-0021MW1021REMSYN011333   59002
0135825780999991985021312004-05083-042800FM-12+006999999V0203601N00211045001CN0040001N9+02611+02311101351ADDAA124018091AG10999AY151061GF106991031051008001031031KA1240N+02201MA1999999100321MD1999999-0081MW1021REMSYN023333   20220 59008 60184
0099825780999991985021318004-05083-042800FM-12+006999999V0202301N00211045001CN0040001N9+02461+02351100971ADDAG10999AY161061GF108991031051008001021999MA1999999099961MD1999999-0011MW1531REMSYN011333   59001
0135825780999991985021412004-05083-042800FM-12+006999999V0203601N00101007501CN0040001N9+02481+02341101381ADDAA124023091AG10999AY101061GF108991061051008001011999KA1240N+02301MA1999999100361MD1999999+0041MW1021REMSYN023333   20230 58004 60234
0110825780999991985021418004-05083-042800FM-12+006999999V0200501N00361012001CN0040001N9+02891+02391100831ADDAA106000091AG10999AY101061GF106991061081008001001001MA1999999099831MD1999999-0131MW1021REMSYN011333   59013
0135825780999991985021512004-05083-042800FM-12+006999999V0201401N00101045001CN0040001N9+02571+02311101351ADDAA124006091AG10999AY151061GF106991041021008001031011KA1240N+02171MA1999999100321MD1999999-0041MW1021REMSYN023333   20217 59004 60064
0135825780999991985021612004-05083-042800FM-12+006999999V0201401N00101045001CN0040001N9+02471+02281101321ADDAA124024091AG10999AY161061GF107991041051008001031001KA1240N+02111MA1999999100291MD1999999-0031MW1011REMSYN023333   20211 59003 60244
0110825780999991985021618004-05083-042800FM-12+006999999V0202701N00211220001CN0040001N9+02991+02401100881ADDAA106000091AG10999AY101061GF103991031031008001001001MA1999999099871MD1999999+0081MW1021REMSYN011333   58008
0135825780999991985021712004-05083-042800FM-12+006999999V0201401N00261045001CN0040001N9+02491+02291101391ADDAA124007091AG10999AY161061GF106991031051008001031021KA1240N+02201MA1999999098361MD1999999+0071MW1031REMSYN023333   20220 58007 60074
0129825780999991985021718004-05083-042800FM-12+006999999V0201801N00211007501CN0040001N9+03101+02311100861ADDAA106000091AG10999AY101061GF106991061021008001021001MA1999999099832MD1999999-0011MW1021REMSYN011333   59001EQDQ01+099833APOSP 
0135825780999991985021812004-05083-042800FM-12+006999999V0203201N00211045001CN0040001N9+02501+02321101231ADDAA124003091AG10999AY161061GF106991011051008001031001KA1240N+02231MA1999999100201MD1999999-0161MW1021REMSYN023333   20223 59016 60034
0110825780999991985021818004-05083-042800FM-12+006999999V0201401N00101045001CN0040001N9+02931+02291100871ADDAA106000091AG10999AY101061GF107991031031008001011031MA1999999099861MD1410001+0001MW1021REMSYN011333   58000
0146825780999991985021918004-05083-042800FM-12+006999999V0202701N00101007501CN0040001N9+02691+02451100811ADDAA106020091AA299999999AG10999AY161061GF106991051031008001031001MA1999999099801MD1999999-0061MW1211REMSYN017333   59006 60201EQDQ01  00002PRCP99
0135825780999991985022012004-05083-042800FM-12+006999999V0201401N00151007501CN0040001N9+02441+02351101291ADDAA124025091AG10999AY161061GF108991081051008001999999KA1240N+02221MA1999999100261MD1999999-0021MW1021REMSYN023333   20222 59002 60254
0116825780999991985022018004-05083-042800FM-12+006999999V0203601N00101045001CN0040001N9+02661+02541100811ADDAA106005091AG10999AY161061GF107991031031008001021001MA1999999099801MD1410001+0001MW1211REMSYN017333   58000 60051
0135825780999991985022112004-05083-042800FM-12+006999999V0202701N00151007501CN0040001N9+02611+02391101221ADDAA124005091AG10999AY101061GF106991061021008001001001KA1240N+02261MA1999999100191MD1999999-0071MW1021REMSYN023333   20226 59007 60054
0127825780999991985022118004-05083-042800FM-12+006999999V0202301N00151045001CN0040001N9+99999+99999100681ADDAA106000691AA299000591AG10999AY161061GF106991041021008001011021MA1999999099681MD1999999-0121MW1021REMSYN017333   59012 69961
0135825780999991985022212004-05083-042800FM-12+006999999V0203201N00101007501CN0040001N9+02531+02291101191ADDAA124006091AG10999AY151061GF107991051051008001031001KA1240N+02241MA1999999100161MD1999999-0031MW1021REMSYN023333   20224 59003 60064
0116825780999991985022218004-05083-042800FM-12+006999999V0201801N00211045001CN0040001N9+02831+02461100681ADDAA106007091AG10999AY161061GF106991041081008001071021MA1999999099671MD1999999-0011MW1021REMSYN017333   59001 60071
0135825780999991985022312004-05083-042800FM-12+006999999V0200901N00151045001CN0040001N9+99999+99999101001ADDAA124045091AG10999AY161061GF107991011051008001071001KA1240N+02261MA1999999099981MD1999999-0181MW1021REMSYN023333   20226 59018 60454
0135825780999991985022412004-05083-042800FM-12+006999999V0203201N00051007501CN0040001N9+02571+02361101191ADDAA124025091AG10999AY161061GF107991061051008001031001KA1240N+02301MA1999999100161MD1999999+0181MW1021REMSYN023333   20230 58018 60254
0110825780999991985022418004-05083-042800FM-12+006999999V0200901N00101045001CN0040001N9+02991+02251100701ADDAA106000091AG10999AY101061GF107991021021008001011041MA1999999099701MD1999999+0121MW1021REMSYN011333   58012
0135825780999991985022512004-05083-042800FM-12+006999999V0202301N00051007501CN0040001N9+02461+02301101271ADDAA124061091AG10999AY161061GF108991081051008001999999KA1240N+02221MA1999999100241MD1999999+0081MW1021REMSYN023333   20222 58008 60614
0110825780999991985022518004-05083-042800FM-12+006999999V0201801N00051220001CN0040001N9+02991+02281100901ADDAA106000091AG10999AY101061GF103991031021008001001081MA1999999099971MD1999999+0201MW1021REMSYN011333   58020
0154825780999991985022612004-05083-042800FM-12+006999999V0203201N00101012001CN0040001N9+02581+02371102171ADDAA124008091AG10999AY161061GF106991061081008001001001KA1240N+02261MA1999999101141MD1999999+0101MW1011REMSYN023333   20226 58010 60084EQDQ01+999990APOSLP
0129825780999991985022712004-05083-042800FM-12+006999999V0203601N00361007501CN0040001N9+02581+02371101281ADDAA106000091AG10999AY101061GF108991081051008001999999KA1240N+02301MA1999999100261MD1999999-0081MW1021REMSYN017333   20230 59008
0129825780999991985022718004-05083-042800FM-12+006999999V0200901N001519999999N0040001N9+03171+02351100901ADDAA106000091AG10999AY101061GF107991999021008001001001MA1999999099901MD1999999-0031MW1021REMSYN011333   59003EQDQ01+000022SCOTLC
0129825780999991985022812004-05083-042800FM-12+006999999V0203601N00151012001CN0040001N9+02691+02431101411ADDAA106000091AG10999AY101061GF106991061081008001001001KA1240N+02341MA1999999100391MD1999999+0131MW1021REMSYN017333   20234 58013
0110825780999991985022818004-05083-042800FM-12+006999999V0202701N00051045001CN0040001N9+03131+02191100871ADDAA106000091AG10999AY101061GF106991021021008001011001MA1999999099871MD1999999-0031MW1021REMSYN011333   59003
0129825780999991985030112004-05083-042800FM-12+006999999V0200901N00151012001CN0040001N9+02641+02331101261ADDAA106000091AG10999AY101061GF106991061081008001001001KA1240N+02241MA1999999100251MD1999999-0141MW1021REMSYN017333   20224 59014
0157825780999991985030212004-05083-042800FM-12+006999999V0200501N00151007501CN0040001N9+02701+02301101191ADDAA124010091AG10999AY101061GA1021+135009049GF106991061021008001001001KA1240N+02341MA1999999100171MD1999999-0081MW1021REMSYN029333   20234 59008 60104 82583
0135825780999991985030312004-05083-042800FM-12+006999999V0201401N00151045001CN0040001N9+02621+02331101241ADDAA124023091AG10999AY151061GF106991041021008001031001KA1240N+02241MA1999999100211MD1999999+0041MW1021REMSYN023333   20224 58004 60234
0116825780999991985030318004-05083-042800FM-12+006999999V0201401N00051045001CN0040001N9+02641+02481100781ADDAA106004091AG10999AY161061GF107991041081008001011001MA1999999099771MD1999999+0041MW1021REMSYN017333   58004 60041
0135825780999991985030412004-05083-042800FM-12+006999999V0201401N00101007501CN0040001N9+02651+02391101211ADDAA124031091AG10999AY151061GF106991051021008001031001KA1240N+02261MA1999999100091MD1999999-0121MW1011REMSYN023333   20226 59012 60314
0135825780999991985030512004-05083-042800FM-12+006999999V0201401N00211007501CN0040001N9+02701+02371101031ADDAA124001091AG10999AY161061GF105991051021008001001001KA1240N+02201MA1999999100011MD1999999-0081MW1021REMSYN023333   20220 59008 60014
0110825780999991985030518004-05083-042800FM-12+006999999V0200901N00211007501CN0040001N9+03181+02391100521ADDAA106000091AG10999AY101061GF106991061031008001001001MA1999999099511MD1999999-0051MW1021REMSYN011333   59005
0127825780999991985030618004-05083-042800FM-12+006999999V0200901N00101007501CN0040001N9+02831+02501100511ADDAA106000991AA299001091AG10999AY101061GF105991051031008001001001MA1999999099501MD1999999-0021MW1201REMSYN017333   59002 69991
0146825780999991985030712004-05083-042800FM-12+006999999V0200901N00211012001CN0040001N9+02701+02301100991ADDAA124000991AA299001091AG10999AY101061GF106991061081008001001001KA1240N+02161MA1999999099971MD1999999-0011MW1021REMSYN023333   20216 59001 69994
0129825780999991985030812004-05083-042800FM-12+006999999V0200501N00511220001CN0040001N9+02701+02451101001ADDAA106000091AG10999AY101061GF105991041021008001001041KA1240N+02221MA1999999099481MD1999999+0011MW1021REMSYN017333   20222 58001
0110825780999991985030818004-05083-042800FM-12+006999999V0200501N00101220001CN0040001N9+03241+02391100511ADDAA106000091AG10999AY101061GF104991041021008001001001MA1999999099511MD1999999-0131MW1021REMSYN011333   59013
0110825780999991985030918004-05083-042800FM-12+006999999V0200901N00101220001CN0040001N9+03211+02381100631ADDAA106000091AG10999AY101061GF106991041021008001001041MA1999999099631MD1999999+0121MW1021REMSYN011333   58012
0110825780999991985031118004-05083-042800FM-12+006999999V0200901N00211012001CN0040001N9+03071+02301100741ADDAA106000091AG10999AY101061GF105991051081008001001001MA1999999099731MD1999999-0171MW1021REMSYN011333   59017
0135825780999991985031212004-05083-042800FM-12+006999999V0200501N00101220001CN0040001N9+02751+02381101121ADDAA124000591AG10999AY151061GF103991021021008001031001KA1240N+02381MA1999999100101MD1999999-0091MW1021REMSYN023333   20238 59009 69954
0129825780999991985031218004-05083-042800FM-12+006999999V0200501N00151999999CN0040001N9+03261+02381100601ADDAA106000091AG10999AY101061GF105991999021008001001001MA1999999099561MD1999999-0101MW1021REMSYN011333   59010EQDQ01+000032SCOTLC
0135825780999991985031312004-05083-042800FM-12+006999999V0203601N00211012001CN0040001N9+02701+02391101121ADDAA124000391AG10999AY151061GF107991071081008001001001KA1240N+02291MA1999999100101MD1410001+0001MW1031REMSYN023333   20229 58000 69934
0129825780999991985031412004-05083-042800FM-12+006999999V0203201N00101220001CN0040001N9+02811+02271101211ADDAA106000091AG10999AY101061GF103991021021008001001041KA1240N+02221MA1999999100191MD1999999+0091MW1021REMSYN017333   20222 58009
0110825780999991985031418004-05083-042800FM-12+006999999V0201801N00151220001CN0040001N9+03191+02221100661ADDAA106000091AG10999AY101061GF105991041021008001001041MA1999999099661MD1999999-0021MW1021REMSYN011333   59002
0135825780999991985031512004-05083-042800FM-12+006999999V0200901N00151220001CN0040001N9+02701+02281101251ADDAA124003091AG10999AY161061GF103991011021008001031041KA1240N+02221MA1999999100231MD1999999+0041MW1021REMSYN023333   20222 58004 60034
0110825780999991985031518004-05083-042800FM-12+006999999V0200901N00151220001CN0040001N9+03141+02241100801ADDAA106000091AG10999AY101061GF106991021021008001001041MA1999999099801MD1999999+0141MW1021REMSYN011333   58014
0135825780999991985031612004-05083-042800FM-12+006999999V0200901N00151012001CN0040001N9+99999+99999101251ADDAA124024091AG10999AY161061GF106991051081008001001011KA1240N+02261MA1999999100251MD1410001+0001MW1021REMSYN023333   20226 58000 60244
0110825780999991985031618004-05083-042800FM-12+006999999V0200901N00151220001CN0040001N9+03221+02291100791ADDAA106000091AG10999AY101061GF106991041021008001001011MA1999999099791MD1999999-0011MW1021REMSYN011333   59001
0110825780999991985031718004-05083-042800FM-12+006999999V0200501N00151012001CN0040001N9+03071+02381100771ADDAA106000091AG10999AY101061GF106991051081008001031001MA1999999099771MD1999999-0021MW1021REMSYN011333   59002
0129825780999991985031812004-05083-042800FM-12+006999999V0200501N00151220001CN0002001N9+02781+02401101221ADDAA106000091AG10999AY101061GF106991041021008001001041KA1240N+02301MA1999999100201MD1999999-0081MW1021REMSYN017333   20230 59008
0129825780999991985031813004-05083-042800FM-12+006999999V0200501N00151220001CN0040001N9+02781+02401101221ADDAA106000091AG10999AY101011GF106991041021008001001041KA1240N+02301MA1999999100201MD1999999-0081MW1021REMSYN017333   20230 59008
0116825780999991985031818004-05083-042800FM-12+006999999V0200901N00151220001CN0040001N9+03121+02411100851ADDAA106001091AG10999AY161061GF107991031021008001001041MA1999999099821MD1999999+0051MW1021REMSYN017333   58005 60011
0135825780999991985031912004-05083-042800FM-12+006999999V0200501N00211007501CN0040001N9+02411+02351101361ADDAA124004091AG10999AY161061GF108991081051008001999999KA1240N+02301MA1999999100331MD1999999+0131MW1021REMSYN023333   20230 58013 60044
0110825780999991985031918004-05083-042800FM-12+006999999V0201801N00101012001CN0040001N9+02731+02321100841ADDAA106000091AG10999AY101061GF107991061081008001001071MA1999999099831MD1999999+0011MW1021REMSYN011333   58001
0135825780999991985032012004-05083-042800FM-12+006999999V0201801N00101045001CN0040001N9+02521+02271101031ADDAA124024091AG10999AY151061GF107991021051008001071081KA1240N+02281MA1999999100011MD1999999-0221MW1021REMSYN023333   20228 59022 60244
0110825780999991985032018004-05083-042800FM-12+006999999V0200801N00261045001CN0040001N9+03041+02121100741ADDAA106000091AG10999AY101061GF106991031021008001031001MA1999999100741MD1999999-0091MW1021REMSYN011333   59009
0129825780999991985032112004-05083-042800FM-12+006999999V0201401N00151045001CN0040001N9+02611+02331101201ADDAA106000091AG10999AY101061GF106991041081008001031001KA1240N+02281MA1999999100181MD1999999+0171MW1021REMSYN017333   20228 58017
0135825780999991985032212004-05083-042800FM-12+006999999V0200501N00051007501CN0040001N9+02631+02391101201ADDAA124002091AG10999AY101061GF106991061021008001001001KA1240N+02271MA1999999100181MD1410001+0001MW1021REMSYN023333   20227 58000 60024
0116825780999991985032218004-05083-042800FM-12+006999999V0203201N00151220001CN0040001N9+02861+99999100731ADDAA106006091AG10999AY161061GF106991021031008001001041MA1999999099731MD1999999+0051MW1201REMSYN017333   58005 60061
0135825780999991985032312004-05083-042800FM-12+006999999V0201801N00151007501CN0040001N9+02561+02441101371ADDAA124022091AG10999AY161061GF108991081051008001999999KA1240N+02241MA1999999100341MD1999999+0161MW1021REMSYN023333   20224 58016 60224
0065825780999991985032318004-05083-042800FM-12+006999999V0203601N00151045001CN0040001N9+02641+02501100881ADDAG10999AY161061GF107991041081008001011041MA1999999099871MW1201
0135825780999991985032412004-05083-042800FM-12+006999999V0203201N00151012001CN0040001N9+02431+02251101451ADDAA124027091AG10999AY161061GF107991051081008001001011KA1240N+02231MA1999999100441MD1999999+0101MW1011REMSYN023333   20223 58010 60274
0110825780999991985032418004-05083-042800FM-12+006999999V0201401N00151045001CN0040001N9+03051+02201100951ADDAA106000091AG10999AY101061GF106991031031008001031021MA1999999099951MD1999999+0081MW1021REMSYN011333   58008
0135825780999991985032512004-05083-042800FM-12+006999999V0201401N00151045001CN0040001N9+02491+02171101291ADDAA124021091AG10999AY161061GF107991041051008001031001KA1240N+02201MA1999999100261MD1999999-0181MW1021REMSYN023333   20220 59018 60214
0110825780999991985032518004-05083-042800FM-12+006999999V0202301N00101045001CN0040001N9+02981+02391100991ADDAA106000091AG10999AY101061GF107991031021008001031001MA1999999099991MD1999999+0041MW1021REMSYN011333   58004
0129825780999991985032612004-05083-042800FM-12+006999999V0203601N00151007501CN0040001N9+02711+02411101361ADDAA106000091AG10999AY101061GF106991051021008001031001KA1240N+02281MA1999999100341MD1999999+0081MW1021REMSYN017333   20228 58008
0110825780999991985032618004-05083-042800FM-12+006999999V0200501N00151045001CN0040001N9+02791+02461100981ADDAA106000091AG10999AY101061GF107991041051008001011001MA1999999099971MD1999999-0021MW1021REMSYN011333   59002
0146825780999991985032712004-05083-042800FM-12+006999999V0202301N00151007501CN0040001N9+02411+02261101551ADDAA124000291AA299000391AG10999AY151061GF108991081051008001999999KA1240N+02261MA1999999100521MD1999999+0181MW1021REMSYN023333   20226 58018 69924
0116825780999991985032718004-05083-042800FM-12+006999999V0200501N00151007501CN0040001N9+02631+02441101141ADDAA106004091AG10999AY161061GF108991061051008001071001MA1999999100121MD1999999+0151MW1021REMSYN017333   58015 60041
0135825780999991985032812004-05083-042800FM-12+006999999V0200901N00051045001CN0040001N9+02611+02391101421ADDAA124004091AG10999AY101061GF107991031051008001031001KA1240N+02321MA1999999100401MD1999999-0121MW1021REMSYN023333   20232 59012 60044
0116825780999991985032818004-05083-042800FM-12+006999999V0203201N00151045001CN0040001N9+02641+02481100901ADDAA106018091AG10999AY101061GF106991041031008001011031MA1999999099891MD1999999-0231MW1201REMSYN017333   59023 60181
0135825780999991985032912004-05083-042800FM-12+006999999V0201801N00051007501CN0040001N9+02461+02341101291ADDAA124064091AG10999AY161061GF108991081051008001999999KA1240N+02161MA1999999100261MD1999999-0141MW1021REMSYN023333   20216 59014 60644
0110825780999991985032918004-05083-042800FM-12+006999999V0200501N00151045001CN0040001N9+03171+02301100851ADDAA106000091AG10999AY101061GF107991031081008001071041MA1999999099851MD1999999-0041MW1021REMSYN011333   59004
0194825780999991985112312004-05083-042800FM-12+006999999V0209999999999220001CN0350001N9+99999+99999102561ADDAA106000091AG10999AJ199999999999999GF100991001001999999001001KA1240M-00501KA2240N-01831MA1999999086591REMSYN029333   11050 21183 4/015 700/9EQDQ01+000082APCTENQ02+000002APC3  Q03  00152SNDP  
