0064825830999991985010200004-05183-040683FM-12+027899999V0203201N00101220001CN0500001N9-03041-03341100151ADDAG10999AY101061GF100991001001999999001001MD1810051+9999MW1021
