0129825860999991985040100004-05200-039300FM-12+019999999V0200501N00151220001CN9999999N9+02641+02231100981ADDAA106000091AG10999AY111061GF104991041031008001001001KA1240M+03111MA1999999098611MD1999999-0071MW1131REMSYN017333   10311 59007
0135825860999991985040112004-05200-039300FM-12+019999999V0201401N00151007501CN0200001N9+02551+02331101151ADDAA124027091AG10999AY191061GF107991051021008001001021KA1240N+02281MA1999999098771MD1999999+0071MW1031REMSYN023333   20228 58007 60274
0110825860999991985040118004-05200-039300FM-12+019999999V0203101N00051007501CN0040001N9+02931+02221100651ADDAA106000091AG10999AY121061GF108991051031008001061021MA1999999098291MD1999999-0031MW1151REMSYN011333   59003
0135825860999991985040212004-05200-039300FM-12+019999999V0201401N00101045001CN0040001N9+02581+02351101191ADDAA124024091AG10001AY161061GF107991041021008001061091KA1240N+02191MA1999999098791MD1999999+0021MW1151REMSYN023333   20219 58002 60244
0110825860999991985040218004-05200-039300FM-12+019999999V0203601N00361007501CN0040001N9+02821+02381100781ADDAA106000091AG10999AY121061GF108991051091008001021999MA1999999098401MD1999999+0111MW1171REMSYN011333   58011
0135825860999991985040300004-05200-039300FM-12+019999999V0200501N00101045001CN9999999N9+02321+02251101181ADDAA106008091AG10001AY191061GF108991031071008001011999KA1240M+02981MA1999999098781MD1999999+0131MW1031REMSYN023333   10298 58013 60081
0135825860999991985040312004-05200-039300FM-12+019999999V0201401N00101007501CN0200001N9+02281+02231101481ADDAA124018091AG10001AY161061GF108991051071008001021999KA1240N+02111MA1999999099071MD1999999+0281MW1201REMSYN023333   20211 58028 60184
0116825860999991985040318004-05200-039300FM-12+019999999V0200501N00051045001CN0040001N9+02381+02291101091ADDAA106015091AG10999AY161061GF108991021031008001021999MA1999999098691MD1999999+0291MW1511REMSYN017333   58029 60151
0135825860999991985040412004-05200-039300FM-12+019999999V0203201N00101007501CN0200001N9+02351+02221101291ADDAA124015091AG10999AY101061GF108991071051008001031999KA1240N+02181MA1999999098891MD1999999-0181MW1021REMSYN023333   20218 59018 60154
0110825860999991985040418004-05200-039300FM-12+019999999V0202301N00151220001CN0200001N9+03031+01861100741ADDAA106000091AG10999AY101061GF104991031021008001001021MA1999999098381MD1999999-0311MW1021REMSYN011333   59031
0146825860999991985040500004-05200-039300FM-12+019999999V0203601N00101007501CN9999999N9+02471+02251101071ADDAA106000491AA299000591AG10999AY161061GF108991081031008001999999KA1240M+03121MA1999999098671MD1999999-0131MW1131REMSYN023333   10312 59013 69941
0135825860999991985040512004-05200-039300FM-12+019999999V0203601N00151007501CN0200001N9+02341+02271101171ADDAA124019091AG10999AY191061GF108991051071008001071999KA1240N+02081MA1999999098771MD1999999-0121MW1021REMSYN023333   20208 59012 60194
0116825860999991985040518004-05200-039300FM-12+019999999V0201401N00051045001CN0040001N9+02411+02191100791ADDAA106002091AG10001AY161061GF108991041071008001021999MA1999999098391MD1999999+0011MW1511REMSYN017333   58001 60021
0129825860999991985040600004-05200-039300FM-12+019999999V0203601N00051045001CN9999999N9+02301+02251101021ADDAA106000091AG10001AY121061GF106991021031008001031001KA1240M+02501MA1999999098621MD1999999-0051MW1131REMSYN017333   10250 59005
0135825860999991985040612004-05200-039300FM-12+019999999V0203201N00211045001CN0040001N9+02451+02111101101ADDAA124002091AG10001AY121061GF107991021041008001031001KA1240N+02141MA1999999098701MD1999999-0071MW1101REMSYN023333   20214 59007 60024
0129825860999991985040712004-05200-039300FM-12+019999999V0202701N00151012001CN0040001N9+02681+02331101241ADDAA106000091AG10999AY121061GF106991061081008001001001KA1240N+02291MA1999999098861MD1999999+0161MW1101REMSYN017333   20229 58016
0116825860999991985040718004-05200-039300FM-12+019999999V0203201N00101007501CN0040001N9+02441+02391101061ADDAA106008091AG10999AY191061GF108991061091008001021999MA1999999098661MD1999999+0381MW1211REMSYN017333   58038 60081
0135825860999991985040812004-05200-039300FM-12+019999999V0202301N00101007501CN0040001N9+02541+02251101301ADDAA124009091AG10001AY151061GF108991061071008001021999KA1240N+02231MA1999999098901MD1999999+0041MW1101REMSYN023333   20223 58004 60094
0127825860999991985040818004-05200-039300FM-12+019999999V0202701N00211012001CN0200001N9+03061+02221100791ADDAA106000491AA299000591AG10999AY161061GF106991061081008001001001MA1999999098431MD1999999-0231MW1151REMSYN017333   59023 69941
0129825860999991985040900004-05200-039300FM-12+019999999V0203601N00361007501CN9999999N9+02421+02371101051ADDAA106000091AG10001AY121061GF105991051031008001001001KA1240M+03141MA1999999098661MD1999999-0171MW1131REMSYN017333   10314 59017
0146825860999991985040912004-05200-039300FM-12+019999999V0201801N00461007501CN0040001N9+02331+02271101201ADDAA124000691AA299000591AG10999AY151061GF108991071051008001021999KA1240N+02271MA1999999098801MD1999999-0101MW1511REMSYN023333   20227 59010 69964
0127825860999991985040918004-05200-039300FM-12+019999999V0202301N00211045001CN0200001N9+02771+02281100641ADDAA106000691AA299000591AG10999AY161061GF108991041041008001071031MA1999999098271MD1999999+0161MW1031REMSYN017333   58016 69961
0129825860999991985041000004-05200-039300FM-12+019999999V0203601N00311045001CN9999999N9+02411+02351100931ADDAA106000091AG10001AY121061GF106991041031008001061001KA1240M+02821MA1999999098531MD1999999-0131MW1131REMSYN017333   10282 59013
0146825860999991985041012004-05200-039300FM-12+019999999V0203201N00101105001CN0200001N9+02611+02211101041ADDAA124000691AA299000591AG10001AY101061GF105991031041008001001091KA1240N+02211MA1999999098651MD1999999-0151MW1021REMSYN023333   20221 59015 69964
0116825860999991985041018004-05200-039300FM-12+019999999V0203201N00151045001CN0100001N9+02871+02231100671ADDAA106006091AG10999AY161061GF107991041031008001061031MA1999999098251MD1999999-0021MW1151REMSYN017333   59002 60061
0135825860999991985041100004-05200-039300FM-12+019999999V0203601N00211007501CN9999999N9+02361+02271101041ADDAA106005091AG10999AY161061GF108991051071008001021999KA1240M+02961MA1999999098641MD1999999+0111MW1201REMSYN023333   10296 58011 60051
0135825860999991985041112004-05200-039300FM-12+019999999V0200501N00101007501CN0200001N9+02741+02271101321ADDAA124011091AG10001AY101061GF108991051051008001001041KA1240N+02221MA1999999098921MD1999999+0271MW1021REMSYN023333   20222 58027 60114
0116825860999991985041118004-05200-039300FM-12+019999999V0203601N00101045001CN0040001N9+02341+02291101061ADDAA106006091AG10999AY161061GF108991041071008001021999MA1999999098661MD1999999+0411MW1511REMSYN017333   58041 60061
0146825860999991985041200004-05200-039300FM-12+019999999V0203601N00051045001CN9999999N9+02341+02291101261ADDAA106000291AA299000391AG10001AY151061GF108991031071008001021999KA1240M+02761MA1999999098861MD1999999+0221MW1021REMSYN023333   10276 58022 69921
0135825860999991985041212004-05200-039300FM-12+019999999V0202301N00101045001CN0200001N9+02521+02311101391ADDAA124007091AG10999AY101061GF107991031021008001031031KA1240N+02221MA1999999098991MD1999999+0071MW1021REMSYN023333   20222 58007 60074
0076825860999991985041218004-05200-039300FM-12+019999999V0202701N00151220001CN0040001N9+03101+02091100881ADDAA106000091AG10001AY121061GF104991031021008001001031MA1999999098521MW1151
0135825860999991985041300004-05200-039300FM-12+019999999V0203601N00261220001CN9999999N9+02471+02371101281ADDAA106999929AG10999AY151061GF104991041031008001001001KA1240M+03171MA1999999098891MD1999999+0031MW1131REMSYN023333   10317 58003 69901
0135825860999991985041312004-05200-039300FM-12+019999999V0202301N00101007501CN0040001N9+02281+02231101421ADDAA124008091AG10999AY161061GF108991061071008001021999KA1240N+02201MA1999999099011MD1999999+0021MW1101REMSYN023333   20220 58002 60084
0110825860999991985041318004-05200-039300FM-12+019999999V0200501N00151220001CN0040001N9+03001+02171100831ADDAA106000091AG10999AY141061GF104991041021008001001001MA1999999098471MD1999999-0051MW1051REMSYN011333   59005
0129825860999991985041400004-05200-039300FM-12+019999999V0203601N00101007501CN9999999N9+02541+02401101121ADDAA106000091AG10999AY141061GF105991051031008001001001KA1240M+03041MA1999999098721MD1999999-0171MW1131REMSYN017333   10304 59017
0162825860999991985041412004-05200-039300FM-12+019999999V0202301N00261012001CN0200001N9+02581+02191101221ADDAA124000791AA299001091AG10999AY161061GA1091+999999999GF109991051081008001041001KA1240N+02311MA1999999098841MD1999999-0171MW1031REMSYN023333   20231 59017 69974
0110825860999991985041418004-05200-039300FM-12+019999999V0201801N00261220001CN0200001N9+03061+02081100681ADDAA106000091AG10999AY101061GF104991041021008001001001MA1999999098321MD1999999-0151MW1021REMSYN011333   59015
0129825860999991985041500004-05200-039300FM-12+019999999V0200501N00211007501CN9999999N9+02551+02351101081ADDAA106000091AG10999AY191061GF108991081031008001999999KA1240M+03101MA1999999098701MD1999999-0021MW1131REMSYN017333   10310 59002
0135825860999991985041512004-05200-039300FM-12+019999999V0200901N00051007501CN0040001N9+02501+02311101321ADDAA124058091AG10999AY191061GF108991061071008001021999KA1240N+02201MA1999999098931MD1999999+0091MW1101REMSYN023333   20220 58009 60584
0110825860999991985041518004-05200-039300FM-12+019999999V0201401N00051220001CN0200001N9+03241+02151100781ADDAA106000091AG10999AY101061GF104991041021008001001001MA1999999098421MD1999999+0101MW1021REMSYN011333   58010
0135825860999991985041600004-05200-039300FM-12+019999999V0201801N00151007501CN9999999N9+02401+02351101111ADDAA106021091AG10999AY191061GF108991081031008001999999KA1240M+03091MA1999999098711MD1999999+0011MW1131REMSYN023333   10309 58001 60211
0135825860999991985041612004-05200-039300FM-12+019999999V0209991C00001012001CN0040001N9+02481+02211101241ADDAA124020091AG10999AY151061GF107991071081008001001001KA1240N+02291MA1999999098841MD1999999-0091MW1101REMSYN023333   20229 59009 60204
0116825860999991985041618004-05200-039300FM-12+019999999V0200901N00211007501CN0005001N9+02441+02391100981ADDAA106029091AG10001AY161061GF108991061091008001021999MA1999999098581MD1999999+0161MW1951REMSYN017333   58016 60291
0135825860999991985041712004-05200-039300FM-12+019999999V0201801N00211007501CN0040001N9+02381+02331101361ADDAA124061091AG10001AY151061GF108991061071008001021999KA1240N+02211MA1999999098951MD1999999+0181MW1161REMSYN023333   20221 58018 60614
0110825860999991985041718004-05200-039300FM-12+019999999V0201801N00101045001CN0200001N9+02751+02211100861ADDAA106000091AG10999AY101061GF108991041031008001021999MA1999999098481MD1999999-0101MW1021REMSYN011333   59010
0129825860999991985041800004-05200-039300FM-12+019999999V0202701N00051105001CN9999999N9+02501+02381101221ADDAA106000091AG10999AY121061GF106991041031008001001031KA1240M+02821MA1999999098821MD1999999-0011MW1131REMSYN017333   10282 59001
0129825860999991985041812004-05200-039300FM-12+019999999V0200901N00051220001CN0200001N9+02621+02211101231ADDAA106000091AG10999AY101061GF106991031041008001001041KA1240N+02211MA1999999098551MD1999999-0101MW1021REMSYN017333   20221 59010
0127825860999991985041818004-05200-039300FM-12+019999999V0201401N00101045001CN0200001N9+03001+02051100811ADDAA106000291AA299000391AG10999AY151061GF106991031021008001061011MA1999999098451MD1999999-0031MW1031REMSYN017333   59003 69921
0129825860999991985041900004-05200-039300FM-12+019999999V0209991C00001105001CN9999999N9+02621+02411101101ADDAA106000091AG10001AY121061GF105991041031008001001031KA1240M+03051MA1999999098731MD1999999-0091MW1131REMSYN017333   10305 59009
0146825860999991985041912004-05200-039300FM-12+019999999V0200501N00151007501CN0200001N9+02721+02191101131ADDAA124000291AA299000391AG10001AY101061GF106991051041008001001041KA1240N+02271MA1999999098751MD1999999-0101MW1021REMSYN023333   20227 59010 69924
0127825860999991985041918004-05200-039300FM-12+019999999V0200501N00101045001CN0040001N9+02811+02311100701ADDAA106002091AA299000091AG10999AY161061GF105991031031008001061031MA1999999098341MD1999999-0111MW1151REMSYN017333   59011 60021
0135825860999991985042012004-05200-039300FM-12+019999999V0201401N00151007501CN0200001N9+02581+02331101031ADDAA124002091AG10001AY101061GF108991081051008001999999KA1240N+02581MA1999999098651MD1999999-0101MW1021REMSYN023333   20258 59010 60024
0116825860999991985042018004-05200-039300FM-12+019999999V0200501N00311007501CN0040001N9+02391+02281100721ADDAA106007091AG10999AY151061GF108991051091008001021999MA1999999098331MD1999999-0011MW1211REMSYN017333   59001 60071
0146825860999991985042100004-05200-039300FM-12+019999999V0203601N00411007501CN9999999N9+02411+02351100181ADDAA106000291AA299000391AG10999AY191061GF108991051031008001021999KA1240M+03041MA1999999098591MD1999999-0041MW1131REMSYN023333   10304 59004 69921
0135825860999991985042112004-05200-039300FM-12+019999999V0201401N00211012001CN0040001N9+02701+02311100921ADDAA124020091AG10999AY161061GF106991061081008001001001KA1240N+02061MA1999999098531MD1999999-0121MW1101REMSYN023333   20206 59012 60204
0110825860999991985042118004-05200-039300FM-12+019999999V0200901N00211220001CN0200001N9+02881+02181100591ADDAA106000091AG10999AY101061GF108991041021008001001011MA1999999098211MD1999999-0121MW1021REMSYN011333   59012
0129825860999991985042200004-05200-039300FM-12+019999999V0200501N00361007501CN9999999N9+02521+02361100961ADDAA106000091AG10999AY121061GF106991061031008001001001KA1240M+02931MA1999999098561MD1999999-0031MW1131REMSYN017333   10293 59003
0129825860999991985042212004-05200-039300FM-12+019999999V0200501N00151012001CN0200001N9+02621+02311101101ADDAA106000091AG10999AY101061GF105991051081008001001001KA1240N+02291MA1999999098721MD1999999+0191MW1021REMSYN017333   20229 58019
0116825860999991985042218004-05200-039300FM-12+019999999V0203601N00051007501CN0200001N9+02401+02351100851ADDAA106011091AG10001AY161061GF107991061071008001021001MA1999999098451MD1999999+0241MW1211REMSYN017333   58024 60111
0135825860999991985042300004-05200-039300FM-12+019999999V0203601N00101007501CN9999999N9+99999+99999101131ADDAA106999929AG10999AY121061GF108991061071008001021999KA1240M+02951MA1999999098741MD1999999+0181MW1141REMSYN023333   10295 58018 69901
0135825860999991985042312004-05200-039300FM-12+019999999V0201401N00101007501CN0200001N9+02511+02211101121ADDAA124011091AG10001AY101061GF106991051041008001001091KA1240N+02201MA1999999098721MD1410001+0001MW1021REMSYN023333   20220 58000 60114
0116825860999991985042318004-05200-039300FM-12+019999999V0201401N00311220001CN0040001N9+02971+02181100751ADDAA106999929AG10999AY151061GF104991031021008001001011MA1999999098391MD1999999-0061MW1151REMSYN017333   59006 69901
0135825860999991985042400004-05200-039300FM-12+019999999V0203601N00101220001CN9999999N9+02401+02361101041ADDAA106003091AG10999AY191061GF103991031031008001001001KA1240M+03021MA1999999098641MD1999999-0101MW1291REMSYN023333   10302 59010 60031
0135825860999991985042412004-05200-039300FM-12+019999999V0201401N00261012001CN0200001N9+02581+02371101031ADDAA124003091AG10999AY101061GF108991061081008001001041KA1240N+02331MA1999999098641MD1999999-0081MW1021REMSYN023333   20233 59008 60034
0127825860999991985042418004-05200-039300FM-12+019999999V0201401N00411045001CN0200001N9+03021+02211100581ADDAA106000491AA299000591AG10999AY161061GF107991041021008001041061MA1999999098221MD1999999-0171MW1031REMSYN017333   59017 69941
0135825860999991985042512004-05200-039300FM-12+019999999V0202301N00051004201CN0040001N9+02421+02371100921ADDAA124034091AG10999AY191061GF108991061071004501021999KA1240N+02241MA1999999098531MD1999999-0111MW1201REMSYN023333   20224 59011 60344
0110825860999991985042518004-05200-039300FM-12+019999999V0200501N00311045001CN0040001N9+02821+02241100521ADDAA106000091AG10001AY121061GF108991041031008001071031MA1999999098151MD1999999-0171MW1151REMSYN011333   59017
0129825860999991985042612004-05200-039300FM-12+019999999V0201801N00151007501CN0200001N9+02611+02271100641ADDAA106000091AG10001AY101061GF108991081051008001999999KA1240N+02281MA1999999098551MD1999999+0021MW1021REMSYN017333   20228 58002
0127825860999991985042618004-05200-039300FM-12+019999999V0200501N00311045001CN0040001N9+02891+02321100491ADDAA106000291AA299000391AG10999AY151061GF108991041031008001071031MA1999999098131MD1999999-0021MW1151REMSYN017333   59002 69921
0129825860999991985042700004-05200-039300FM-12+019999999V0200901N00051045001CN9999999N9+02511+02341100811ADDAA106000091AG10999AY121061GF107991041031008001041031KA1240M+03001MA1999999098431MD1999999+0041MW1131REMSYN017333   10300 58004
0146825860999991985042712004-05200-039300FM-12+019999999V0201801N00311007501CN0040001N9+02461+02361101011ADDAA124000491AA299000591AG10999AY151061GF108991061071008001021999KA1240N+02231MA1999999098621MD1999999+0071MW1161REMSYN023333   20223 58007 69944
0110825860999991985042718004-05200-039300FM-12+019999999V0200901N00101012001CN0040001N9+02981+02171100611ADDAA106000091AG10001AY121061GF106991061081008001001001MA1999999098251MD1999999+0121MW1151REMSYN011333   58012
0135825860999991985042800004-05200-039300FM-12+019999999V0209991C00001007501CN9999999N9+02361+02281101001ADDAA106012091AG10001AY161061GF108991061071008001021999KA1240M+03001MA1999999098601MD1999999+0171MW1211REMSYN023333   10300 58017 60121
0135825860999991985042812004-05200-039300FM-12+019999999V0201401N00101007501CN0040001N9+02421+02321101101ADDAA124023091AG10999AY151061GF108991061071008001021999KA1240N+02291MA1999999098701MD1999999+0081MW1101REMSYN023333   20229 58008 60234
0116825860999991985042818004-05200-039300FM-12+019999999V0201801N00151007501CN0040001N9+02781+02231100771ADDAA106006091AG10999AY161061GF107991061071008001021001MA1999999098391MD1999999+0141MW1151REMSYN017333   58014 60061
0135825860999991985042900004-05200-039300FM-12+019999999V0202401N00101007501CN9999999N9+02301+02251101201ADDAA106013091AG10999AY161061GF108991061071008001021999KA1240M+02821MA1999999098801MD1999999+0201MW1211REMSYN023333   10282 58020 60131
0135825860999991985042912004-05200-039300FM-12+019999999V0202701N00051007501CN0200001N9+02391+02281101051ADDAA124041091AG10999AY191061GF108991051061008001071999KA1240N+02091MA1999999098651MD1999999-0051MW1021REMSYN023333   20209 59005 60414
0110825860999991985042918004-05200-039300FM-12+019999999V0203601N00101007501CN0040001N9+02941+02141100651ADDAA106000091AG10999AY121061GF108991051031008001001021MA1999999098291MD1999999-0101MW1151REMSYN011333   59010
0135825860999991985043000004-05200-039300FM-12+019999999V0202701N00101004201CN0100001N9+02261+02211101171ADDAA106057091AG10999AY161061GF108991051031004501021999KA1240M+02961MA1999999098771MD1999999-0031MW1611REMSYN023333   10296 59003 60571
0135825860999991985043012004-05200-039300FM-12+019999999V0200901N00051004201CN0200001N9+02261+02191101061ADDAA124060091AG10001AY161061GF108991051061004501021999KA1240N+02141MA1999999098661MD1999999+0011MW1021REMSYN023333   20214 58001 60604
0127825860999991985043018004-05200-039300FM-12+019999999V0202701N00101045001CN0200001N9+02921+02221100651ADDAA106000291AA299000391AG10999AY151061GF108991031021008001041021MA1999999098281MD1999999-0011MW1031REMSYN017333   59001 69921
0146825860999991985050112004-05200-039300FM-12+019999999V0203201N00261007501CN0200001N9+02511+02211101191ADDAA106000291AA299000391AG10999AY101061GF108991051041008001071999KA1240N+02241MA1999999098801MD1999999+0141MW1021REMSYN023333   20224 58014 69921
0116825860999991985050118004-05200-039300FM-12+019999999V0201401N00101045001CN0200001N9+02721+02241100791ADDAA106999929AG10999AY151061GF108991031031008001071999MA1999999098411MD1999999+0131MW1021REMSYN017333   58013 69901
0129825860999991985050200004-05200-039300FM-12+019999999V0201401N00101007501CN9999999N9+02431+02371101121ADDAA106000091AG10999AY101061GF108991081051008001999999KA1240M+02771MA1999999098721MD1999999+0111MW1021REMSYN017333   10277 58011
0146825860999991985050212004-05200-039300FM-12+019999999V0200901N00151045001CN0200001N9+02561+02271101271ADDAA124000791AA299001091AG10999AY161061GF108991041081008001081041KA1240N+02231MA1999999098871MD1999999+0071MW1031REMSYN023333   20223 58007 69974
0110825860999991985050218004-05200-039300FM-12+019999999V0200501N00361045001CN0200001N9+02581+02291100971ADDAA106000091AG10999AY101061GF108991031031008001061071MA1999999098571MD1999999+0161MW1021REMSYN011333   58016
0129825860999991985050300004-05200-039300FM-12+019999999V0200901N00051045001CN9999999N9+02331+02251101261ADDAA106000091AG10999AY121061GF108991031031008001041041KA1240M+02681MA1999999098861MD1999999+0141MW1131REMSYN017333   10268 58014
0135825860999991985050312004-05200-039300FM-12+019999999V0201801N00051007501CN0200001N9+02331+02271101311ADDAA124999929AG10999AY151061GF107991071051008001001001KA1240N+02111MA1999999098911MD1999999+0041MW1011REMSYN023333   20211 58004 69904
0110825860999991985050318004-05200-039300FM-12+019999999V0201401N00151220001CN0200001N9+02961+01991100861ADDAA106000091AG10999AY101061GF104991031021008001061001MA1999999098481MD1999999-0091MW1021REMSYN011333   59009
0129825860999991985050400004-05200-039300FM-12+019999999V0201401N00051220001CN9999999N9+02461+02341101171ADDAA106000091AG10999AY111061GF103991021031008001041001KA1240M+03021MA1999999098771MD1999999-0091MW1131REMSYN017333   10302 59009
0129825860999991985050412004-05200-039300FM-12+019999999V0201401N00151012001CN0200001N9+02521+02271101291ADDAA106000091AG10999AY101061GF106991061081008001001001KA1240N+02171MA1999999098901MD1999999-0011MW1021REMSYN017333   20217 59001
0129825860999991985050500004-05200-039300FM-12+019999999V0203201N00051007501CN9999999N9+02481+02341101141ADDAA106000091AG10999AY101061GF107991051071008001021001KA1240M+02921MA1999999098761MD1999999-0011MW1021REMSYN017333   10292 59001
0135825860999991985050512004-05200-039300FM-12+019999999V0200901N00311012001CN0040001N9+02601+02271101291ADDAA124004091AG10999AY121061GF106991061081008001001001KA1240N+02231MA1999999098911MD1999999+0011MW1101REMSYN023333   20223 58001 60044
0110825860999991985050518004-05200-039300FM-12+019999999V0201401N00411045001CN0200001N9+03061+01931100861ADDAA106000091AG10999AY101061GF106991041021008001041011MA1999999098501MD1999999-0021MW1021REMSYN011333   59002
0129825860999991985050600004-05200-039300FM-12+019999999V0200501N00101045001CN9999999N9+02501+02361101121ADDAA106000091AG10999AY121061GF105991031031008001041011KA1240M+03071MA1999999098741MD1999999-0021MW1131REMSYN017333   10307 59002
0135825860999991985050612004-05200-039300FM-12+019999999V0200901N00261012001CN0040001N9+02701+02261101261ADDAA124001091AG10999AY161061GF106991061081008001001001KA1240N+02201MA1999999098881MD1999999-0021MW1021REMSYN023333   20220 59002 60014
0110825860999991985050618004-05200-039300FM-12+019999999V0201401N00311220001CN0200001N9+03001+02051100821ADDAA106000091AG10999AY101061GF103991021011008001041021MA1999999098461MD1999999-0041MW1021REMSYN011333   59004
0135825860999991985050712004-05200-039300FM-12+019999999V0201801N00211007501CN0200001N9+02451+02281101251ADDAA124001091AG10999AY161061GF107991071051008001001021KA1240N+02201MA1999999098851MD1999999-0031MW1021REMSYN023333   20220 59003 60014
0116825860999991985050718004-05200-039300FM-12+019999999V0200501N00151220001CN0040001N9+02761+02461100881ADDAA106002091AG10999AY161061GF106991041031008001001041MA1999999098501MD1999999+0041MW1151REMSYN017333   58004 60021
0135825860999991985050800004-05200-039300FM-12+019999999V0209991C00001105001CN9999999N9+02441+02321101171ADDAA106000591AG10999AY161061GF105991021031008001001031KA1240M+02841MA1999999098771MD1999999+0011MW1131REMSYN023333   10284 58001 69951
0135825860999991985050812004-05200-039300FM-12+019999999V0201401N00151007501CN0200001N9+02491+02271101251ADDAA124004091AG10999AY191061GF108991051041008001001041KA1240N+02211MA1999999098851MD1410001+0001MW1201REMSYN023333   20221 58000 60044
0116825860999991985050818004-05200-039300FM-12+019999999V0200901N00261220001CN0040001N9+02931+02221100781ADDAA106001091AG10999AY161061GF106991041031008001001011MA1999999098411MD1999999-0091MW1151REMSYN017333   59009 60011
0135825860999991985050900004-05200-039300FM-12+019999999V0209991C00001220001CN9999999N9+02451+02391101041ADDAA106003091AG10999AY191061GF104991031031008001001031KA1240M+02991MA1999999098641MD1999999-0131MW1131REMSYN023333   10299 59013 60031
0110825860999991985050918004-05200-039300FM-12+019999999V0201401N00311220001CN0040001N9+03081+02371100721ADDAA106000091AG10999AY121061GF106991041031008001001041MA1999999098361MD1999999-0051MW1151REMSYN011333   59005
0135825860999991985051012004-05200-039300FM-12+019999999V0200901N00311007501CN0200001N9+02571+02311101061ADDAA124016091AG10999AY191061GF108991071051008001001041KA1240N+02181MA1999999098661MD1999999-0091MW1031REMSYN023333   20218 59009 60164
0101825860999991985051018004-05200-039300FM-12+019999999V0201401N002619999999N0200001N9+02761+02251100701ADDAG10999AY151061GA1031+042009029GF108991999999008001999999MA1999999098331MW1201REMSYN011333   83264
0146825860999991985051112004-05200-039300FM-12+019999999V0200901N00261007501CN0200001N9+02551+02171101091ADDAA124000291AA299000391AG10999AY101061GF107991051041008001001041KA1240N+02261MA1999999098701MD1999999+0041MW1021REMSYN023333   20226 58004 69924
0110825860999991985051118004-05200-039300FM-12+019999999V0201801N00261045001CN0200001N9+02831+02101100651ADDAA106000091AG10999AY101061GF108991031021008001011999MA1999999098291MD1999999-0041MW1021REMSYN011333   59004
0129825860999991985051200004-05200-039300FM-12+019999999V0203601N00051007501CN9999999N9+02541+02361100981ADDAA106000091AG10999AY101061GF108991081051008001999999KA1240M+02891MA1999999098601MD1999999+0031MW1021REMSYN017333   10289 58003
0110825860999991985051218004-05200-039300FM-12+019999999V0201801N00211012001CN0200001N9+02861+02141100731ADDAA106000091AG10999AY101061GF107991051081008001011001MA1999999098351MD1999999+0061MW1021REMSYN011333   58006
0135825860999991985051300004-05200-039300FM-12+019999999V0200501N00311007501CN9999999N9+02741+02351101181ADDAA106999929AG10001AY151061GF107991051031008001021001KA1240M+02881MA1999999098781MD1999999+0181MW1131REMSYN023333   10288 58018 69901
0146825860999991985051312004-05200-039300FM-12+019999999V0200501N00101007501CN0040001N9+02401+02231101441ADDAA124000691AA299000591AG10999AY161061GF108991061071008001021999KA1240N+02211MA1999999099031MD1999999+0251MW1101REMSYN023333   20221 58025 69964
0110825860999991985051318004-05200-039300FM-12+019999999V0201801N00151045001CN0200001N9+02721+02051101031ADDAA106000091AG10999AY101061GF106991041021008001071001MA1999999098641MD1999999+0291MW1021REMSYN011333   58029
0129825860999991985051400004-05200-039300FM-12+019999999V0200901N00051007501CN9999999N9+02501+02361101321ADDAA106000091AG10999AY101061GF108991061071008001021999KA1240M+02751MA1999999098921MD1999999+0141MW1021REMSYN017333   10275 58014
0129825860999991985051412004-05200-039300FM-12+019999999V0200901N00311045001CN0200001N9+02531+02211101361ADDAA106000091AG10999AY101061GF107991031041008001071041KA1240N+02331MA1999999098961MD1999999-0071MW1021REMSYN017333   20233 59007
0116825860999991985051418004-05200-039300FM-12+019999999V0202701N00101220001CN0040001N9+02631+02271101031ADDAA106001091AG10999AY151061GF104991041021008001061041MA1999999098641MD1410001+0001MW1211REMSYN017333   58000 60011
0146825860999991985051500004-05200-039300FM-12+019999999V0209991C00001045001CN9999999N9+02521+02431101221ADDAA106000791AA299001091AG10999AY121061GF108991041031008001021999KA1240M+02931MA1999999098841MD1999999-0081MW1211REMSYN023333   10293 59008 69971
0135825860999991985051512004-05200-039300FM-12+019999999V0201401N00261045001CN0200001N9+02581+02191101281ADDAA124002091AG10999AY151061GF107991031081008001031041KA1240N+02251MA1999999098901MD1999999-0061MW1031REMSYN023333   20225 59006 60024
0110825860999991985051518004-05200-039300FM-12+019999999V0200901N00151220001CN0200001N9+02941+02001100911ADDAA106000091AG10999AY101061GF104991031021008001001011MA1999999098541MD1999999-0101MW1021REMSYN011333   59010
0129825860999991985051600004-05200-039300FM-12+019999999V0202301N00051220001CN9999999N9+02501+02271101191ADDAA106000091AG10999AY101061GF102991021031008001001001KA1240M+02991MA1999999098811MD1999999-0031MW1021REMSYN017333   10299 59003
0129825860999991985051612004-05200-039300FM-12+019999999V0202301N00101007501CN0040001N9+02441+02271101261ADDAA106000091AG10999AY121061GF108991081051008001999999KA1240N+02131MA1999999098861MD1999999-0041MW1151REMSYN017333   20213 59004
0116825860999991985051618004-05200-039300FM-12+019999999V0201401N00101045001CN0200001N9+02681+02221100931ADDAA106003091AG10999AY161061GF108991041021008001061041MA1999999098541MD1410001+0001MW1201REMSYN017333   58000 60031
0146825860999991985051700004-05200-039300FM-12+019999999V0209991C00001220001CN9999999N9+02511+02341101091ADDAA106000991AA299001091AG10999AY151061GF103991031041008001001001KA1240M+02761MA1999999098701MD1999999-0111MW1011REMSYN023333   10276 59011 69991
0135825860999991985051712004-05200-039300FM-12+019999999V0201401N00311220001CN0200001N9+02581+02121101191ADDAA124003091AG10999AY101061GF104991041041008001001001KA1240N+02211MA1999999098811MD1999999-0051MW1021REMSYN023333   20221 59005 60034
0110825860999991985051718004-05200-039300FM-12+019999999V0201801N00261045001CN0200001N9+02831+02001100861ADDAA106000091AG10999AY101061GF105991041041008001061001MA1999999098481MD1999999-0061MW1021REMSYN011333   59006
0129825860999991985051800004-05200-039300FM-12+019999999V0209991C00001220001CN9999999N9+02421+02231101031ADDAA106000091AG10999AY101061GF100991001001999999001001KA1240M+02891MA1999999098641MD1999999-0061MW1021REMSYN017333   10289 59006
0129825860999991985051812004-05200-039300FM-12+019999999V0201401N00151012001CN0200001N9+02501+02171101281ADDAA106000091AG10999AY101061GF106991061081008001001001KA1240N+02211MA1999999098881MD1999999+0071MW1021REMSYN017333   20221 58007
0110825860999991985051818004-05200-039300FM-12+019999999V0201801N00211012001CN0200001N9+02941+01851100891ADDAA106000091AG10999AY101061GF106991061081008001001001MA1999999098521MD1999999+0041MW1021REMSYN011333   58004
0129825860999991985051900004-05200-039300FM-12+019999999V0209991C00001012001CN9999999N9+02621+02321101151ADDAA106000091AG10999AY101061GF106991061081008001001001KA1240M+02981MA1999999098771MD1999999+0131MW1021REMSYN017333   10298 58013
0129825860999991985051912004-05200-039300FM-12+019999999V0201401N00311007501CN0040001N9+02481+02271101261ADDAA106000091AG10001AY121061GF108991061071008001021999KA1240N+02311MA1999999098881MD1410001+0001MW1151REMSYN017333   20231 58000
0110825860999991985051918004-05200-039300FM-12+019999999V0201401N00211007501CN0040001N9+02801+02081100941ADDAA106000091AG10999AY121061GF107991061071008001021001MA1999999098561MD1999999+0041MW1151REMSYN011333   58004
0129825860999991985052000004-05200-039300FM-12+019999999V0203201N00051012001CN9999999N9+02401+02301101211ADDAA106000091AG10999AY101061GF106991061081008001001001KA1240M+02871MA1999999098811MD1999999+0041MW1021REMSYN017333   10287 58004
0129825860999991985052012004-05200-039300FM-12+019999999V0201801N00151007501CN0200001N9+02441+02271101201ADDAA106000091AG10999AY101061GF108991061051008001001041KA1240N+02191MA1999999098801MD1999999-0081MW1021REMSYN017333   20219 59008
0127825860999991985052018004-05200-039300FM-12+019999999V0201401N00311045001CN0200001N9+02811+02111100911ADDAA106000291AA299000391AG10999AY151061GF108991041041008001061021MA1999999098531MD1999999-0031MW1031REMSYN017333   59003 69921
0135825860999991985052100004-05200-039300FM-12+019999999V0209991C00001220001CN9999999N9+02441+02281101161ADDAA106000591AG10999AY161061GF104991041041008001001001KA1240M+02821MA1999999098761MD1999999-0051MW1011REMSYN023333   10282 59005 69951
0135825860999991985052112004-05200-039300FM-12+019999999V0201401N00151007501CN0200001N9+02521+02311101281ADDAA124006091AG10999AY161061GF107991071041008001001001KA1240N+02251MA1999999098891MD1999999+0091MW1011REMSYN023333   20225 58009 60064
0110825860999991985052118004-05200-039300FM-12+019999999V0201401N00311045001CN0040001N9+02961+02071100891ADDAA106000091AG10999AY121061GF106991031021008001061041MA1999999098531MD1410001+0001MW1151REMSYN011333   58000
0129825860999991985052200004-05200-039300FM-12+019999999V0209991C00001220001CN9999999N9+02481+02301101221ADDAA106000091AG10999AY121061GF105991041031008001001041KA1240M+02991MA1999999098831MD1999999+0071MW1131REMSYN017333   10299 58007
0110825860999991985052218004-05200-039300FM-12+019999999V0201401N00151105001CN0200001N9+02981+02171100901ADDAA106000091AG10999AY101061GF108991041031008001001031MA1999999098541MD1999999+0011MW1021REMSYN011333   58001
0135825860999991985052312004-05200-039300FM-12+019999999V0200901N00211007501CN0200001N9+02591+02291101321ADDAA124011091AG10999AY161061GF106991051041008001001041KA1240N+02171MA1999999098921MD1999999-0051MW1031REMSYN023333   20217 59005 60114
0110825860999991985052318004-05200-039300FM-12+019999999V0200901N00261007501CN0200001N9+02951+02111101011ADDAA106000091AG10999AY101061GF106991051021008001001011MA1999999098641MD1999999+0101MW1021REMSYN011333   58010
0129825860999991985052400004-05200-039300FM-12+019999999V0209991C00001007501CN9999999N9+02511+01321101161ADDAA106000091AG10999AY121061GF105991051031008001001001KA1240M+02991MA1999999098781MD1999999-0071MW1131REMSYN017333   10299 59007
0135825860999991985052412004-05200-039300FM-12+019999999V0200901N00311007501CN0200001N9+02521+02311101291ADDAA124000391AG10999AY161061GF107991051041008001001041KA1240N+02231MA1999999098901MD1999999-0021MW1201REMSYN023333   20223 59002 69934
0110825860999991985052418004-05200-039300FM-12+019999999V0201801N00261105001CN0200001N9+02881+02101100991ADDAA106000091AG10999AY101061GF107991041021008001001021MA1999999098621MD1999999+0021MW1021REMSYN011333   58002
0129825860999991985052500004-05200-039300FM-12+019999999V0202301N00051045001CN9999999N9+02461+02171101291ADDAA106000091AG10999AY101061GF106991031081008001061041KA1240M+02801MA1999999098901MD1999999+0121MW1021REMSYN017333   10280 58012
0129825860999991985052512004-05200-039300FM-12+019999999V0200901N00151045001CN0200001N9+02461+01941101401ADDAA106000091AG10999AY101061GF107991021011008001071001KA1240N+01991MA1999999099001MD1999999+0101MW1021REMSYN017333   20199 58010
0110825860999991985052518004-05200-039300FM-12+019999999V0201401N00311045001CN0200001N9+02941+01791101131ADDAA106000091AG10999AY101061GF106991031021008001011001MA1999999098741MD1999999+0121MW1021REMSYN011333   58012
0129825860999991985052600004-05200-039300FM-12+019999999V0209991C00001045001CN9999999N9+02461+02251101351ADDAA106000091AG10999AY101061GF105991031021008001011001KA1240M+02991MA1999999098921MD1999999+0021MW1021REMSYN017333   10299 58002
0129825860999991985052612004-05200-039300FM-12+019999999V0201401N00261220001CN0200001N9+02601+02031101431ADDAA106000091AG10999AY101061GF104991041021008001001001KA1240N+02151MA1999999099041MD1999999+0041MW1021REMSYN017333   20215 58004
0110825860999991985052618004-05200-039300FM-12+019999999V0200901N00311045001CN0200001N9+02941+01851101051ADDAA106000091AG10999AY101061GF106991041021008001061001MA1999999098671MD1999999-0071MW1021REMSYN011333   59007
0129825860999991985052712004-05200-039300FM-12+019999999V0200901N00361012001CN0200001N9+02681+02201101381ADDAA106000091AG10999AY101061GF106991061081008001001001KA1240N+02271MA1999999099001MD1999999-0041MW1021REMSYN017333   20227 59004
0112825860999991985052718004-05200-039300FM-12+019999999V0201401N00361012001CN0200001N9+02941+02041101031ADDAA106000091AG10999AY101061GA1021+012509049GF106991061081008001001001MA1999999098661MW1021REMSYN011333   82596
0135825860999991985052812004-05200-039300FM-12+019999999V0201401N00311220001CN0040001N9+02601+02101101271ADDAA124003091AG10999AY161061GF104991021011008001031011KA1240N+02241MA1999999098891MD1999999-0111MW1051REMSYN023333   20224 59011 60034
0129825860999991985052912004-05200-039300FM-12+019999999V0201401N00261007501CN0200001N9+02461+02151101271ADDAA106000091AG10999AY101061GF107991071041008001001001KA1240N+02141MA1999999098871MD1999999-0021MW1021REMSYN017333   20214 59002
0110825860999991985052918004-05200-039300FM-12+019999999V0201401N00361045001CN0200001N9+02941+01821100941ADDAA106000091AG10999AY101061GF108991031021008001061041MA1999999098561MD1999999-0031MW1021REMSYN011333   59003
0129825860999991985053012004-05200-039300FM-12+019999999V02099999999999999999N0200001N9+02621+02161101311ADDAA106000091AG10999AY101061GF199999021011008001001041KA1240N+02311MA1999999098931MD1999999+0061MW1021REMSYN017333   20231 58006
0110825860999991985053018004-05200-039300FM-12+019999999V0201401N00311105001CN0200001N9+02921+02011100901ADDAA106000091AG10999AY101061GF108991041021008001001021MA1999999098581MD1999999+0021MW1021REMSYN011333   58002
0129825860999991985053100004-05200-039300FM-12+019999999V0200501N00051045001CN9999999N9+02381+02091101251ADDAA106000091AG10999AY101061GF107991041041008001061041KA1240M+02971MA1999999098861MD1999999+0031MW1021REMSYN017333   10297 58003
0129825860999991985053112004-05200-039300FM-12+019999999V0201801N00461220001CN0200001N9+02571+02131101381ADDAA106000091AG10999AY101061GF106991041081008001001011KA1240N+02181MA1999999098981MD1999999+0051MW1021REMSYN017333   20218 58005
0110825860999991985053118004-05200-039300FM-12+019999999V0201401N00411220001CN0500001N9+02921+01861101021ADDAA106000091AG10999AY101061GF103991031021008001001001MA1999999098641MD1999999+0061MW1021REMSYN011333   58006
0129825860999991985060112004-05200-039300FM-12+019999999V0201401N00361220001CN0200001N9+02601+01921101321ADDAA106000091AG10999AY101061GF106991021011008001001011KA1240N+02191MA1999999098931MD1999999-0051MW1021REMSYN017333   20219 59005
0110825860999991985060118004-05200-039300FM-12+019999999V0201401N00411045001CN0200001N9+02841+99999100941ADDAA106000091AG10999AY101061GF106991041021008001031011MA1999999098571MD1999999-0071MW1021REMSYN011333   59007
0129825860999991985060212004-05200-039300FM-12+019999999V0201401N00151220001CN0200001N9+02471+02071101161ADDAA106000091AG10999AY101061GF103991031011008001001001KA1240N+02211MA1999999098761MD1999999-0171MW1021REMSYN017333   20221 59017
0110825860999991985060218004-05200-039300FM-12+019999999V0200901N00411045001CN0200001N9+02941+01971100791ADDAA106000091AG10999AY101061GF106991021021008001061001MA1999999098421MD1999999-0151MW1021REMSYN011333   59015
0129825860999991985060300004-05200-039300FM-12+019999999V0203601N00051007501CN9999999N9+02591+02311101071ADDAA106000091AG10999AY101061GF108991081051008001999999KA1240M+03021MA1999999098691MD1999999-0081MW1021REMSYN017333   10302 59008
0135825860999991985060312004-05200-039300FM-12+019999999V0201401N00051012001CN0200001N9+02491+02321101171ADDAA124002091AG10999AY161061GF107991051081008001031001KA1240N+02291MA1999999098791MD1999999+0031MW1011REMSYN023333   20229 58003 60024
0116825860999991985060318004-05200-039300FM-12+019999999V0200901N00311045001CN0200001N9+02891+02211100791ADDAA106000391AG10999AY151061GF107991041031008001031001MA1999999098421MD1410001+0001MW1031REMSYN017333   58000 69931
0135825860999991985060400004-05200-039300FM-12+019999999V0203601N00101007501CN9999999N9+02421+02391101141ADDAA106001091AG10999AY161061GF107991051041008001061001KA1240M+02951MA1999999098741MD1999999+0051MW1211REMSYN023333   10295 58005 60011
0135825860999991985060412004-05200-039300FM-12+019999999V0201801N00151007501CN0200001N9+02481+02361101231ADDAA124003091AG10999AY191061GF107991051041008001041001KA1240N+02111MA1999999098831MD1999999+0041MW1021REMSYN023333   20211 58004 60034
0110825860999991985060418004-05200-039300FM-12+019999999V0200901N00151220001CN0200001N9+03021+02071100851ADDAA106000091AG10999AY101061GF104991031021008001031001MA1999999098481MD1999999+0061MW1021REMSYN011333   58006
0129825860999991985060500004-05200-039300FM-12+019999999V0200901N00101105001CN9999999N9+02461+02341101241ADDAA106000091AG10999AY101061GF108991041041004501001071KA1240M+03081MA1999999098841MD1999999+0101MW1021REMSYN017333   10308 58010
0129825860999991985060512004-05200-039300FM-12+019999999V0203601N00151012001CN0200001N9+02561+02251101301ADDAA106000091AG10999AY101061GF108991061081008001001041KA1240N+02281MA1999999098911MD1999999+0081MW1021REMSYN017333   20228 58008
0116825860999991985060518004-05200-039300FM-12+019999999V0200501N00361007501CN0200001N9+02761+02281101051ADDAA106999929AG10999AY151061GF108991051071008001011999MA1999999098671MD1999999+0191MW1151REMSYN017333   58019 69901
0129825860999991985060612004-05200-039300FM-12+019999999V0202301N00151007501CN0200001N9+02481+02251101421ADDAA106000091AG10999AY101061GF108991081051008001999999KA1240N+02121MA1999999099021MD1999999+0111MW1021REMSYN017333   20212 58011
0110825860999991985060618004-05200-039300FM-12+019999999V0200901N00361007501CN0200001N9+02891+02051101091ADDAA106000091AG10999AY101061GF108991061031008001001041MA1999999098711MD1999999+0041MW1021REMSYN011333   58004
0129825860999991985060700004-05200-039300FM-12+019999999V0203601N00151220001CN9999999N9+02421+02231101341ADDAA106000091AG10999AY101061GF100991001001999999001001KA1240M+03021MA1999999098941MD1999999-0031MW1021REMSYN017333   10302 59003
0115825860999991985060712004-05200-039300FM-12+019999999V0200901N00261007501CN0200001N9+02671+02221101561ADDAA106000091AG10999GF106991061041008001001001KA1240N+02091MA1999999099161MD1999999+0141REMSYN017333   20209 58014
0096825860999991985060718004-05200-039300FM-12+019999999V0200901N00261220001CN0200001N9+03091+01921101171ADDAA106000091AG10999GF103991031021008001001001MA1999999098791MD1999999+0081REMSYN011333   58008
0115825860999991985060800004-05200-039300FM-12+019999999V0200501N00101220001CN9999999N9+02511+02291101281ADDAA106000091AG10999GF101991011011008001001001KA1240M+03131MA1999999098901MD1999999-0041REMSYN017333   10313 59004
0115825860999991985060812004-05200-039300FM-12+019999999V0200901N00311007501CN0200001N9+02781+02171101461ADDAA106000091AG10999GF107991071051008001001001KA1240N+02231MA1999999099071MD1999999-0091REMSYN017333   20223 59009
0096825860999991985060818004-05200-039300FM-12+019999999V0201401N00261220001CN0200001N9+03051+01991101101ADDAA106000091AG10999GF104991031011008001001011MA1999999098731MD1999999-0061REMSYN011333   59006
0115825860999991985060900004-05200-039300FM-12+019999999V0203601N00261220001CN9999999N9+02491+02191101301ADDAA106000091AG10999GF100991001001999999001001KA1240M+03061MA1999999098921MD1999999+0021REMSYN017333   10306 58002
0115825860999991985060912004-05200-039300FM-12+019999999V0200501N00151012001CN0200001N9+02571+02191101581ADDAA106000091AG10999GF106991051081008001001041KA1240N+02161MA1999999099181MD1999999+0111REMSYN017333   20216 58011
0096825860999991985060918004-05200-039300FM-12+019999999V0200901N00211105001CN0200001N9+02941+01791101271ADDAA106000091AG10999GF108991031041008001001031MA1999999098891MD1999999+0161REMSYN011333   58016
0115825860999991985061000004-05200-039300FM-12+019999999V0202701N00051007501CN9999999N9+02511+02211101511ADDAA106000091AG10999GF108991081051008001999999KA1240M+03001MA1999999099121MD1999999+0201REMSYN017333   10300 58020
0115825860999991985061012004-05200-039300FM-12+019999999V0200901N00261012001CN0200001N9+02721+02101101661ADDAA106000091AG10999GF106991051081008001001011KA1240N+02161MA1999999099271MD1999999+0091REMSYN017333   20216 58009
0127825860999991985061018004-05200-039300FM-12+019999999V0200901N00151220001CN0200001N9+02991+02091101271ADDAA106000291AA299000391AG10999AY121061GF106991041021008001001041MA1999999098891MD1410001+0001MW1211REMSYN017333   58000 69921
0135825860999991985061100004-05200-039300FM-12+019999999V0200901N00051220001CN9999999N9+02371+02281101581ADDAA106008091AG10999AY161061GF104991041031008001001001KA1240M+03111MA1999999099181MD1999999+0061MW1131REMSYN023333   10311 58006 60081
0121825860999991985061112004-05200-039300FM-12+019999999V0200901N00051007501CN0200001N9+02491+02271101711ADDAA124008091AG10999GF107991071051008001001001KA1240N+02181MA1999999099301MD1999999+0031REMSYN023333   20218 58003 60084
0096825860999991985061118004-05200-039300FM-12+019999999V0201401N00311220001CN0200001N9+03001+01881101221ADDAA106000091AG10999GF102991021021008001001001MA1999999098841MD1999999-0051REMSYN011333   59005
0116825860999991985061218004-05200-039300FM-12+019999999V0201401N00411007501CN0200001N9+02761+02301101271ADDAA106000191AG10999AY121061GF106991051021008001041001MA1999999098871MD1999999+0031MW1201REMSYN017333   58003 69911
0146825860999991985061300004-05200-039300FM-12+019999999V0201401N00101007501CN9999999N9+02521+02311101501ADDAA106000691AA299000591AG10999AY161061GF106991061031008001001001KA1240M+02891MA1999999099091MD1999999-0071MW1131REMSYN023333   10289 59007 69961
0135825860999991985061312004-05200-039300FM-12+019999999V0201801N00261045001CN0200001N9+02341+02011101671ADDAA124003091AG10999AY161061GF106991031021008001061011KA1240N+02121MA1999999099271MD1999999+0031MW1011REMSYN023333   20212 58003 60034
0110825860999991985061318004-05200-039300FM-12+019999999V0201801N00311045001CN0040001N9+02861+02061101191ADDAA106000091AG10999AY121061GF106991041031008001061011MA1999999098811MD1999999-0061MW1151REMSYN011333   59006
0096825860999991985061418004-05200-039300FM-12+019999999V0201801N00151220001CN0200001N9+02831+01831101251ADDAA106000091AG10999GF104991031021008001061001MA1999999098861MD1999999+0051REMSYN011333   58005
0115825860999991985061500004-05200-039300FM-12+019999999V0203601N00051007501CN9999999N9+02451+02151101461ADDAA106000091AG10999GF106991061041008001001001KA1240M+02841MA1999999099051MD1999999-0031REMSYN017333   10284 59003
0115825860999991985061512004-05200-039300FM-12+019999999V0201801N00211007501CN0200001N9+02501+02151101511ADDAA106000091AG10999GF106991061021008001001001KA1240N+02151MA1999999099111MD1999999-0131REMSYN017333   20215 59013
0096825860999991985061518004-05200-039300FM-12+019999999V0201801N00211220001CN0200001N9+02861+02031101191ADDAA106000091AG10999GF104991041021008001001001MA1999999098811MD1999999-0051REMSYN011333   59005
0096825860999991985061618004-05200-039300FM-12+019999999V0201801N00261045001CN0200001N9+02841+02041101141ADDAA106000091AG10999GF106991041021008001061001MA1999999098761MD1999999-0051REMSYN011333   59005
0132825860999991985061712004-05200-039300FM-12+019999999V0200901N00151007501CN0200001N9+02451+02051101541ADDAA124000291AA299000391AG10999GF108991061051008001061999KA1240N+02241MA1999999099131MD1999999+0081REMSYN023333   20224 58008 69924
0096825860999991985061718004-05200-039300FM-12+019999999V0200901N00151045001CN0200001N9+02801+02081101181ADDAA106000091AG10999GF107991041021008001091001MA1999999098801MD1999999+0041REMSYN011333   58004
0135825860999991985061812004-05200-039300FM-12+019999999V0200901N00211007501CN0200001N9+02421+02231101671ADDAA124024091AG10999AY191061GF108991081051008001999999KA1240N+02031MA1999999099261MD1999999+0131MW1031REMSYN023333   20203 58013 60244
0116825860999991985061818004-05200-039300FM-12+019999999V0201401N00151045001CN0040001N9+02731+02191101271ADDAA106999929AG10999AY151061GF108991041031008001091031MA1999999098871MD1999999+0071MW1161REMSYN017333   58007 69901
0129825860999991985061900004-05200-039300FM-12+019999999V0201801N00211007501CN9999999N9+02361+02291101511ADDAA106000091AG10999AY121061GF108991061091008001001031KA1240M+02751MA1999999099101MD1999999+0071MW1131REMSYN017333   10275 58007
0132825860999991985061912004-05200-039300FM-12+019999999V0202301N00151007501CN0200001N9+02461+02251101631ADDAA124000891AA299001091AG10999GF108991081051008001999999KA1240N+02161MA1999999099221MD1999999-0041REMSYN023333   20216 59004 69984
0116825860999991985061918004-05200-039300FM-12+019999999V0201401N00361045001CN0200001N9+02771+02021101281ADDAA106000591AG10999AY161061GF106991031021008001061041MA1999999098901MD1999999+0031MW1011REMSYN017333   58003 69951
0121825860999991985062012004-05200-039300FM-12+019999999V0201401N00051007501CN0200001N9+02451+01951101581ADDAA124000591AG10999GF105991051041008001001001KA1240N+01991MA1999999099171MD1999999-0051REMSYN023333   20199 59005 69954
0096825860999991985062018004-05200-039300FM-12+019999999V0201401N00411220001CN0200001N9+02811+01561101231ADDAA106000091AG10999GF103991031011008001001001MA1999999098831MD1999999-0071REMSYN011333   59007
0115825860999991985062100004-05200-039300FM-12+019999999V0209991C00001220001CN9999999N9+02261+02011101421ADDAA106000091AG10999GF100991001001999999001001KA1240M+02841MA1999999099011MD1410001+0001REMSYN017333   10284 58000
0115825860999991985062112004-05200-039300FM-12+019999999V0201801N00211021001CN0200001N9+02341+01831101601ADDAA106000091AG10999GF107991071001022501071001KA1240N+01921MA1999999099181MD1999999+0011REMSYN017333   20192 58001
0096825860999991985062118004-05200-039300FM-12+019999999V0200901N00311045001CN0200001N9+02821+01941101241ADDAA106000091AG10999GF106991041021008001031001MA1999999098841MD1999999+0011REMSYN011333   58001
0146825860999991985062212004-05200-039300FM-12+019999999V0201401N00211007501CN0040001N9+02351+02171101591ADDAA124000891AA299001091AG10999AY161061GF108991081071008001999999KA1240N+02171MA1999999099171MD1999999-0011MW1511REMSYN023333   20217 59001 69984
0116825860999991985062218004-05200-039300FM-12+019999999V0201401N00211007501CN0200001N9+02631+02071102261ADDAA106006091AG10999AY161061GF107991051021008001061041MA1999999098861MD1999999+0021MW1031REMSYN017333   58002 60061
0121825860999991985062312004-05200-039300FM-12+019999999V0201401N00261007501CN0200001N9+02361+02151101601ADDAA124008091AG10999GF105991051041008001001001KA1240N+02051MA1999999099181MD1999999+0011REMSYN023333   20205 58001 60084
0096825860999991985062318004-05200-039300FM-12+019999999V0201401N00151220001CN0200001N9+02891+01831101121ADDAA106000091AG10999GF103991031021008001001001MA1999999098741MD1999999-0121REMSYN011333   59012
0115825860999991985062412004-05200-039300FM-12+019999999V0201801N00461220001CN0200001N9+02371+01871101481ADDAA106000091AG10999GF102991011011008001001011KA1240N+02001MA1999999099081MD1999999-0101REMSYN017333   20200 59010
0096825860999991985062418004-05200-039300FM-12+019999999V0201401N00511220001CN0200001N9+02851+01501101201ADDAA106000091AG10999GF103991031011008001001001MA1999999098821MD1999999+0081REMSYN011333   58008
0115825860999991985062512004-05200-039300FM-12+019999999V0201801N00261220001CN0200001N9+02401+01891101481ADDAA106000091AG10999GF102991011011008001001011KA1240N+01841MA1999999099071MD1999999-0011REMSYN017333   20184 59001
0096825860999991985062518004-05200-039300FM-12+019999999V0201401N00311220001CN0200001N9+02891+01531101131ADDAA106000091AG10999GF105991031021008001001011MA1999999098761MD1999999-0061REMSYN011333   59006
0115825860999991985062612004-05200-039300FM-12+019999999V0201801N00361220001CN0200001N9+02401+01931101521ADDAA106000091AG10999GF105991041041008001001011KA1240N+02031MA1999999099111MD1999999+0041REMSYN017333   20203 58004
0096825860999991985062618004-05200-039300FM-12+019999999V0201801N00411220001CN0200001N9+02791+02641101231ADDAA106000091AG10999GF104991031021008001001011MA1999999098831MD1999999+0071REMSYN011333   58007
0115825860999991985062700004-05200-039300FM-12+019999999V0200501N00051220001CN9999999N9+02241+01981101491ADDAA106000091AG10999GF100991001001999999001001KA1240M+02811MA1999999099081MD1999999+0151REMSYN017333   10281 58015
0115825860999991985062712004-05200-039300FM-12+019999999V0201801N00151220001CN0200001N9+02311+01901101671ADDAA106000091AG10999GF102991011011008001041001KA1240N+01901MA1999999099251MD1999999+0141REMSYN017333   20190 58014
0096825860999991985062718004-05200-039300FM-12+019999999V0201801N00211105001CN0200001N9+02801+01781101331ADDAA106000091AG10999GF105991021021008001031011MA1999999098931MD1999999+0101REMSYN011333   58010
0115825860999991985062800004-05200-039300FM-12+019999999V0200901N00051220001CN9999999N9+02311+02071101481ADDAA106000091AG10999GF100991001001999999001001KA1240M+02851MA1999999099071MD1999999-0011REMSYN017333   10285 59001
0115825860999991985062812004-05200-039300FM-12+019999999V0201801N00311220001CN0200001N9+02321+01831101511ADDAA106000091AG10999GF101991011011008001001001KA1240N+01901MA1999999099181MD1999999-0151REMSYN017333   20190 59015
0096825860999991985062818004-05200-039300FM-12+019999999V0201801N00311220001CN0200001N9+02801+01751101101ADDAA106000091AG10999GF104991031011008001001011MA1999999098701MD1999999-0231REMSYN011333   59023
0115825860999991985062900004-05200-039300FM-12+019999999V0209991C00001007501CN9999999N9+02291+02091101331ADDAA106000091AG10999GF105991051011008001001001KA1240M+02831MA1999999098921MD1999999-0151REMSYN017333   10283 59015
0115825860999991985062912004-05200-039300FM-12+019999999V0201801N00211045001CN0200001N9+02281+01941101491ADDAA106000091AG10999GF106991021011008001051001KA1240N+01881MA1999999099081MD1999999-0021REMSYN017333   20188 59002
0096825860999991985062918004-05200-039300FM-12+019999999V0200901N00101220001CN0200001N9+02691+01931101091ADDAA106000091AG10999GF103991021011008001031001MA1999999098691MD1999999-0011REMSYN011333   59001
0146825860999991985063012004-05200-039300FM-12+019999999V0200901N00411007501CN0040001N9+02361+02221101561ADDAA124000291AA299000391AG10999AY151061GF108991061071008001021999KA1240N+02171MA1999999099151MD1999999+0071MW1161REMSYN023333   20217 58007 69924
0116825860999991985063018004-05200-039300FM-12+019999999V0209991C00001007501CN0040001N9+02491+02361101241ADDAA106011091AG10999AY161061GF108991051031008001041999MA1999999098841MD1999999+0151MW1211REMSYN017333   58015 60111
0135825860999991985070100004-05200-039300FM-12+019999999V0202701N00051007501CN9999999N9+02221+02121101571ADDAA106001091AG10999AY161061GF108991081051008001999999KA1240M+02711MA1999999099151MD1999999+0251MW1201REMSYN023333   10271 58025 60011
0121825860999991985070112004-05200-039300FM-12+019999999V0201401N00101220001CN0200001N9+02721+02051101701ADDAA124012091AG10999GF102991021011008001001001KA1240N+02021MA1999999099281MD1999999+0071REMSYN023333   20202 58007 60124
0096825860999991985070118004-05200-039300FM-12+019999999V0201401N00311007501CN0200001N9+02901+01871101331ADDAA106000091AG10999GF106991061041008001001001MA1999999098941MD1999999+0101REMSYN011333   58010
0115825860999991985070212004-05200-039300FM-12+019999999V0201401N00361220001CN0200001N9+02561+01991101701ADDAA106000091AG10999GF103991011011008001041001KA1240N+02161MA1999999099291MD1999999+0011REMSYN017333   20216 58001
0127825860999991985070218004-05200-039300FM-12+019999999V0201401N00411220001CN0200001N9+02901+01841101381ADDAG10999AY151061GF104991031021008001001011MA1999999099001MD1999999+0061ME1100389MW1031REMSYN011333   58006EQDQ01+999990APOSLP
0115825860999991985070300004-05200-039300FM-12+019999999V0209991C00001220001CN9999999N9+02361+02131101591ADDAA106000091AG10999GF102991011011008001041001KA1240M+02961MA1999999099191MD1999999+0051REMSYN017333   10296 58005
0115825860999991985070312004-05200-039300FM-12+019999999V0201401N00211220001CN0200001N9+02581+01921101691ADDAA106000091AG10999GF101991011011008001001001KA1240N+02121MA1999999099281MD1999999-0011REMSYN017333   20212 59001
0096825860999991985070318004-05200-039300FM-12+019999999V0201401N00311220001CN0200001N9+02981+01731101321ADDAA106000091AG10999GF104991041021008001001001MA1999999098941MD1999999-0061REMSYN011333   59006
0115825860999991985070400004-05200-039300FM-12+019999999V0209991C00001021001CN9999999N9+02351+02151101451ADDAA106000091AG10999GF107991071001022501051001KA1240M+03001MA1999999099051MD1999999-0141REMSYN017333   10300 59014
0115825860999991985070412004-05200-039300FM-12+019999999V0201401N00151007501CN0200001N9+02511+02091101581ADDAA106000091AG10999GF106991061041008001001001KA1240N+02101MA1999999099181MD1999999-0101REMSYN017333   20210 59010
0116825860999991985070418004-05200-039300FM-12+019999999V0201401N00311220001CN0040001N9+02901+01991101211ADDAA106009091AG10999AY151061GF104991041021008001001001MA1999999098831MD1999999-0111MW1151REMSYN017333   59011 60091
0135825860999991985070512004-05200-039300FM-12+019999999V0201801N00261220001CN0200001N9+02401+01971101581ADDAA124001091AG10999AY161061GF102991021011008001001001KA1240N+02131MA1999999099171MD1999999-0011MW1031REMSYN023333   20213 59001 60014
0096825860999991985070518004-05200-039300FM-12+019999999V0201801N00411220001CN0200001N9+02811+01691101201ADDAA106000091AG10999GF103991021011008001061001MA1999999098811MD1999999-0021REMSYN011333   59002
0115825860999991985070600004-05200-039300FM-12+019999999V0203601N00051220001CN9999999N9+02321+01961101421ADDAA106000091AG10999GF104991021041008001041001KA1240M+02821MA1999999099011MD1999999-0021REMSYN017333   10282 59002
0115825860999991985070612004-05200-039300FM-12+019999999V0202301N00101007501CN0200001N9+02471+02131101481ADDAA106000091AG10999GF107991051041008001041001KA1240N+02121MA1999999099071MD1999999-0101REMSYN017333   20212 59010
0110825860999991985070618004-05200-039300FM-12+019999999V0201801N00261007501CN0040001N9+02901+01901101131ADDAA106000091AG10999AY121061GF108991061031008001041999MA1999999098751MD1999999-0061MW1151REMSYN011333   59006
0121825860999991985070712004-05200-039300FM-12+019999999V0200901N00411007501CN0200001N9+02441+02131101481ADDAA124002091AG10999AY161061GF106991061041008001001001KA1240N+02161MA1999999099081MW1021REMSYN023333   20216 5/800 60024
0116825860999991985070718004-05200-039300FM-12+019999999V0200901N00051220001CN0040001N9+02871+02061101071ADDAA106000191AG10999AY151061GF106991041021008001001011MA1999999098691MD1999999-0061MW1031REMSYN017333   59006 69911
0135825860999991985070800004-05200-039300FM-12+019999999V0200501N00051007501CN9999999N9+02271+02191101321ADDAA106018091AG10999AY191061GF105991051041008001001001KA1240M+02941MA1999999098921MD1410001+0001MW1021REMSYN023333   10294 58000 60181
0140825860999991985070812004-05200-039300FM-12+019999999V0200901N00151007501CN0200001N9+02361+02191101441ADDAA124018091AG10999GF108991061051008001031999KA1240N+99999MA1999999099031MD1999999-0051REMSYN023333   20299 59005 60184EQDQ01 +02992ATMN  
0096825860999991985070818004-05200-039300FM-12+019999999V0201401N00311220001CN0200001N9+02871+02011101041ADDAA106000091AG10999GF105991041031008001001011MA1999999098651MD1999999-0041REMSYN011333   59004
0135825860999991985070900004-05200-039300FM-12+019999999V0200501N00101220001CN9999999N9+02321+02151101331ADDAA106015091AG10999AY161061GF100991001001999999001001KA1240M+02881MA1999999098931MD1999999+0011MW1011REMSYN023333   10288 58001 60151
0135825860999991985070912004-05200-039300FM-12+019999999V0200901N00261007501CN0200001N9+02531+02111101441ADDAA106017091AG10999AY161061GF106991061051008001001001KA1240N+02161MA1999999099041MD1999999+0011MW1031REMSYN023333   20216 58001 60171
0096825860999991985070918004-05200-039300FM-12+019999999V0200801N00211220001CN0200001N9+02921+01831101071ADDAA106000091AG10001GF104991041021008001001001MA1999999098691MD1999999+0041REMSYN011333   58004
0115825860999991985071000004-05200-039300FM-12+019999999V0203601N00101220001CN9999999N9+02461+02111101281ADDAA106000091AG10999GF100991001001999999001001KA1240M+02951MA1999999098891MD1999999-0041REMSYN017333   10295 59004
0115825860999991985071012004-05200-039300FM-12+019999999V0200901N00151007501CN0200001N9+02421+02091101541ADDAA106000091AG10999GF108991081051008001999999KA1240N+02131MA1999999099141MD1999999+0101REMSYN017333   20213 58010
0135825860999991985071112004-05200-039300FM-12+019999999V0201401N00211045001CN0200001N9+02421+02071101481ADDAA124008091AG10999AY161061GF106991041041008001041001KA1240N+02161MA1999999099081MD1999999-0061MW1031REMSYN023333   20216 59006 60084
0096825860999991985071118004-05200-039300FM-12+019999999V0200901N00311045001CN0200001N9+02841+01931101071ADDAA106000091AG10999GF106991041021008001031001MA1999999098681MD1999999-0041REMSYN011333   59004
0129825860999991985071200004-05200-039300FM-12+019999999V0202301N00261007501CN9999999N9+02411+02191101371ADDAA106000091AG10999AY121061GF108991051031008001001041KA1240M+02901MA1999999098961MD1999999+0031MW1131REMSYN017333   10290 58003
0146825860999991985071212004-05200-039300FM-12+019999999V0201801N00261012001CN0200001N9+02341+02221101601ADDAA124000891AA299001091AG10999AY161061GF107991071081008001001001KA1240N+02131MA1999999099191MD1999999+0111MW1021REMSYN023333   20213 58011 69984
0116825860999991985071218004-05200-039300FM-12+019999999V0202301N00311007501CN0040001N9+02641+02161101281ADDAA106004091AG10999AY161061GF107991061041008001021001MA1999999098881MD1999999+0201MW1151REMSYN017333   58020 60041
0135825860999991985071300004-05200-039300FM-12+019999999V0200501N00211007501CN0100001N9+02161+02081101641ADDAA106016091AG10999AY191061GF108991061071008001021999KA1240M+02761MA1999999099221MD1999999+0261MW1611REMSYN023333   10276 58026 60161
0135825860999991985071312004-05200-039300FM-12+019999999V0201401N00411220001CN0200001N9+02361+01991101711ADDAA124026091AG10999AY161061GF104991041021008001001001KA1240N+02101MA1999999099291MD1999999+0101MW1031REMSYN023333   20210 58010 60264
0096825860999991985071318004-05200-039300FM-12+019999999V0201401N00151220001CN0200001N9+02721+01791101381ADDAA106000091AG10999GF104991041021008001001001MA1999999098971MD1999999+0091REMSYN011333   58009
0135825860999991985071412004-05200-039300FM-12+019999999V0201801N00211012001CN0200001N9+02301+02011101641ADDAA124002091AG10999AY161061GF107991071081008001001001KA1240N+02081MA1999999099221MD1999999-0071MW1021REMSYN023333   20208 59007 60024
0096825860999991985071418004-05200-039300FM-12+019999999V0201801N00101012001CN0200001N9+02781+01851101201ADDAA106000091AG10999GF107991071081008001001001MA1999999098811MD1999999-0161REMSYN011333   59016
0115825860999991985071500004-05200-039300FM-12+019999999V0202701N00051220001CN9999999N9+02301+02161101361ADDAA106000091AG10999GF102991021011008001001001KA1240M+02821MA1999999098951MD1999999-0141REMSYN017333   10282 59014
0115825860999991985071512004-05200-039300FM-12+019999999V0201401N00311220001CN0200001N9+02361+01891101691ADDAA106000091AG10999GF104991041021008001001001KA1240N+02081MA1999999099031MD1999999-0191REMSYN017333   20208 59019
0096825860999991985071518004-05200-039300FM-12+019999999V0201701N00311012001CN0200001N9+02741+01891101081ADDAA106000091AG10999GF106991061081008001001001MA1999999098681MD1999999-0131REMSYN011333   59013
0135825860999991985071600004-05200-039300FM-12+019999999V0201801N00051007501CN0100001N9+02141+02091101391ADDAA106013091AG10999AY191061GF108991061071008001021999KA1240M+02801MA1999999098971MD1999999+0021MW1611REMSYN023333   10280 58002 60131
0135825860999991985071612004-05200-039300FM-12+019999999V0201801N00261220001CN0200001N9+02341+02071101471ADDAA124019091AG10999AY161061GF104991041021008001001001KA1240N+02081MA1999999099051MD1999999-0171MW1031REMSYN023333   20208 59017 60194
0096825860999991985071618004-05200-039300FM-12+019999999V0201801N00151012001CN0200001N9+02761+01721101141ADDAA106000091AG10999GF106991061081008001001001MA1999999098741MD1999999-0071REMSYN011333   59007
0115825860999991985071700004-05200-039300FM-12+019999999V0200301N00051012001CN9999999N9+02341+02201101331ADDAA106000091AG10001GF105991051081008001001001KA1240M+02801MA1999999098391MD1999999-0021REMSYN017333   10280 59002
0115825860999991985071712004-05200-039300FM-12+019999999V0201801N00571012001CN0200001N9+02321+01811101531ADDAA106000091AG10999GF105991051081008001001001KA1240N+01981MA1999999099121MD1999999+0071REMSYN017333   20198 58007
0096825860999991985071718004-05200-039300FM-12+019999999V0201801N00511045001CN0200001N9+02761+01621101251ADDAA106000091AG10999GF106991031021008001011001MA1999999098851MD1999999+0111REMSYN011333   58011
0115825860999991985071812004-05200-039300FM-12+019999999V0201801N00261045001CN0200001N9+02401+01861101591ADDAA106000091AG10999GF106991031041008001041001KA1240N+01961MA1999999099171MD1999999+0051REMSYN017333   20196 58005
0096825860999991985071818004-05200-039300FM-12+019999999V0201801N00361012001CN0200001N9+02841+01731101321ADDAA106000091AG10999GF106991061081008001001001MA1999999098931MD1999999+0071REMSYN011333   58007
0135825860999991985071912004-05200-039300FM-12+019999999V0201801N00411012001CN0200001N9+02361+01991101621ADDAA124007091AG10999AY161061GF106991061081008001001001KA1240N+02081MA1999999099201MD1999999+0031MW1031REMSYN023333   20208 58003 60074
0096825860999991985071918004-05200-039300FM-12+019999999V0201801N00621012001CN0200001N9+02681+01491101361ADDAA106000091AG10999GF106991061081008001001001MA1999999098951MD1999999+0021REMSYN011333   58002
0134825860999991985072000004-05200-039300FM-12+019999999V0202301N00311012001CN9999999N9+02321+01791101461ADDAA106000091AG10999GF106991061081008001001001KA1240N+99999MA1999999099051MD1999999-0021REMSYN017333   20273 59002EQDQ01 +02732ATMN  
0115825860999991985072012004-05200-039300FM-12+019999999V0201801N00511220001CN0200001N9+02261+01621101541ADDAA106000091AG10999GF102991021011008001001001KA1240N+01901MA1999999099131MD1999999-0071REMSYN017333   20190 59007
0096825860999991985072018004-05200-039300FM-12+019999999V0201801N00411220001CN0200001N9+02701+01471101181ADDAA106000091AG10999GF101991011011008001001001MA1999999098781MD1999999-0171REMSYN011333   59017
0134825860999991985072112004-05200-039300FM-12+019999999V0201801N002619999999N0200001N9+02221+01801101471ADDAA106000091AG10999GF107991999051008001001001KA1240N+01911MA1999999099051MD1999999-0081REMSYN017333   20191 59008EQDQ01+000082SCOTLC
0096825860999991985072118004-05200-039300FM-12+019999999V0201801N00311007501CN0200001N9+02741+01781101171ADDAA106000091AG10999GF108991081051008001999999MA1999999098771MD1999999-0011REMSYN011333   59001
0135825860999991985072200004-05200-039300FM-12+019999999V0200501N00151007501CN9999999N9+02361+02221101391ADDAA106999929AG10999AY151061GF108991061071008001021999KA1240M+02771MA1999999098981MD1999999+0091MW1141REMSYN023333   10277 58009 69901
0135825860999991985072212004-05200-039300FM-12+019999999V0201401N00261012001CN0200001N9+02321+02001101441ADDAA106004091AG10999AY161061GF107991071081008001001001KA1240N+02041MA1999999099031MD1999999-0021MW1021REMSYN023333   20204 59002 60041
0115825860999991985072218004-05200-039300FM-12+019999999V0201401N00211012001CN0200001N9+02841+01731101121ADDAA106000091AG10999GF107991999081008001001001MA1999999098721MD1999999-0051REMSYN011333   59005EQDQ01+000062SCOTLC
0115825860999991985072312004-05200-039300FM-12+019999999V0201401N00151007501CN0200001N9+02381+02031101501ADDAA106000091AG10999GF108991081051008001999999KA1240N+02171MA1999999098991MD1999999-0041REMSYN017333   20217 59004
0096825860999991985072318004-05200-039300FM-12+019999999V0201401N00361220001CN0200001N9+02801+01921101101ADDAA106000091AG10999GF104991041021008001001001MA1999999098711MD1999999-0011REMSYN011333   59001
0154825860999991985072412004-05200-039300FM-12+019999999V0202301N002619999999N0200001N9+02281+02011101461ADDAA124002091AG10999AY161061GF107991999071008001021001KA1240N+02081MA1999999099051MD1999999+0061MW1211REMSYN023333   20208 58006 60024EQDQ01+000082SCOTLC
0115825860999991985072500004-05200-039300FM-12+019999999V0209991C00001007501CN9999999N9+02521+01931101271ADDAA106000091AG10999GF107991051071008001021001KA1240M+02951MA1999999098871MD1999999+0021REMSYN017333   10295 58002
0129825860999991985072512004-05200-039300FM-12+019999999V0201801N00571220001CN0040001N9+02261+01621101571ADDAA106000091AG10999AY141061GF102991011011008001041001KA1240N+01951MA1999999099161MD1999999+0111MW1051REMSYN017333   20195 58011
0129825860999991985072518004-05200-039300FM-12+019999999V0201801N00461220001CN0040001N9+02781+01611101151ADDAA106000091AG10999AY141061GF102991021011008001001001MA1999999098771MD1999999+0061MW1051REMSYN011333   58006EQDQ01+999990APOSLP
0129825860999991985072612004-05200-039300FM-12+019999999V0201801N00411220001CN0040001N9+02201+01581101561ADDAA106000091AG10999AY141061GF104991021011008001041001KA1240N+01861MA1999999099541MD1999999-0021MW1051REMSYN017333   20186 59002
0076825860999991985072618004-05200-039300FM-12+019999999V0201801N00411007501CN0040001N9+02721+01561101211ADDAA106000091AG10001AY141061GF106991061051008001001001MA1999999098811MW1051
0129825860999991985072700004-05200-039300FM-12+019999999V0209991C00001012001CN9999999N9+02341+02001101381ADDAA106000091AG10999AY141061GF106991061081008001001001KA1240M+02791MA1999999098961MD1999999+0031MW1021REMSYN017333   10279 58003
0115825860999991985072712004-05200-039300FM-12+019999999V0201801N003119999999N0200001N9+02251+01571101541ADDAA106000091AG10999GF106991061001008001051001KA1240N+01851MA1999999099131MD1999999-0011REMSYN017333   20185 59001
0096825860999991985072718004-05200-039300FM-12+019999999V0201801N00211220001CN0200001N9+02871+01481101111ADDAA106000091AG10999GF102991021011008001001001MA1999999098731MD1999999-0081REMSYN011333   59008
0115825860999991985072812004-05200-039300FM-12+019999999V0201801N00211021001CN0200001N9+02341+01871101621ADDAA106000091AG10999GF108991081001022501071999KA1240N+02011MA1999999099201MD1999999+0071REMSYN017333   20201 58007
0096825860999991985072818004-05200-039300FM-12+019999999V0201401N00311012001CN0200001N9+02791+01821101221ADDAA106000091AG10999GF108991061081008001071999MA1999999098821MD1999999+0091REMSYN011333   58009
0135825860999991985072900004-05200-039300FM-12+019999999V0201401N00151045001CN9999999N9+02171+02041101611ADDAA106002091AG10999AY161061GF106991041081008001031011KA1240M+02811MA1999999099191MD1999999+0271MW1011REMSYN023333   10281 58027 60021
0135825860999991985072912004-05200-039300FM-12+019999999V0201401N00361012001CN0200001N9+02411+01991101651ADDAA124002091AG10999AY151061GF108991051081008001051051KA1240N+02011MA1999999099231MD1999999+0031MW1031REMSYN023333   20201 58003 60024
0096825860999991985072918004-05200-039300FM-12+019999999V0201401N00511220001CN0200001N9+02951+01621101241ADDAA106000091AG10999GF102991021011008001001001MA1999999098851MD1999999+0031REMSYN011333   58003
0129825860999991985073012004-05200-039300FM-12+019999999V0200901N00511007501CN0040001N9+02521+01891101631ADDAA106000091AG10999AY141061GF105991051021008001001001KA1240N+02011MA1999999099231MD1410001+0001MW1051REMSYN017333   20201 58000
0110825860999991985073018004-05200-039300FM-12+019999999V0200901N00411220001CN0040001N9+02891+01731101221ADDAA106000091AG10999AY141061GF104991041021008001001001MA1999999098831MD1999999-0021MW1051REMSYN011333   59002
0129825860999991985073112004-05200-039300FM-12+019999999V0201701N00311012001CN0040001N9+02461+01921101611ADDAA106000091AG10999AY141061GF106991061081008001001001KA1240N+02151MA1999999099201MD1999999-0031MW1051REMSYN017333   20215 59003
0110825860999991985073118004-05200-039300FM-12+019999999V0201401N00361220001CN0040001N9+02891+01701101201ADDAA106000091AG10999AY141061GF104991041041008001001001MA1999999098821MD1999999-0011MW1051REMSYN011333   59001
0148825860999991985080100004-05200-039300FM-12+019999999V0200901N002619999999N9999999N9+02341+02071101461ADDAA106000091AG10999AY141061GF107991999081008001001001KA1240M+02971MA1999999099051MD1999999+0071MW1031REMSYN017333   10297 58007EQDQ01+000032SCOTLC
0110825860999991985080118004-05200-039300FM-12+019999999V0201401N00511045001CN0040001N9+02851+01461101321ADDAA106000091AG10999AY141061GF106991041041008001061001MA1999999098921MD1999999+0101MW1051REMSYN011333   58010
0129825860999991985080200004-05200-039300FM-12+019999999V0201801N00211220001CN9999999N9+02261+01861101521ADDAA106000091AG10999AY141061GF102991021001022501041001KA1240M+02851MA1999999099111MD1999999+0061MW1011REMSYN017333   10285 58006
0129825860999991985080212004-05200-039300FM-12+019999999V0201801N00361220001CN0040001N9+02341+01691101661ADDAA106000091AG10999AY141061GF101991011011012501001001KA1240N+01831MA1999999099241MD1999999+0031MW1051REMSYN017333   20183 58003
0110825860999991985080218004-05200-039300FM-12+019999999V0201401N00411220001CN0040001N9+02871+01441101251ADDAA106000091AG10999AY141061GF103991031011008001001001MA1999999098861MD1999999-0061MW1051REMSYN011333   59006
0129825860999991985080300004-05200-039300FM-12+019999999V0200501N00101220001CN9999999N9+02181+01921101431ADDAA106000091AG10999AY141061GF102991021011008001001001KA1240M+02891MA1999999099011MD1999999-0101MW1031REMSYN017333   10289 59010
0129825860999991985080312004-05200-039300FM-12+019999999V0201401N00211220001CN0040001N9+02421+01771101571ADDAA106000091AG10999AY141061GF102991021011008001001001KA1240N+01821MA1999999099151MD1999999-0091MW1051REMSYN017333   20182 59009
0110825860999991985080318004-05200-039300FM-12+019999999V0201401N00411220001CN0040001N9+02961+01461101161ADDAA106000091AG10999AY141061GF103991021011008001001011MA1999999098781MD1999999-0081MW1051REMSYN011333   59008
0110825860999991985080418004-05200-039300FM-12+019999999V0201401N00261220001CN0040001N9+02901+01621101171ADDAA106000091AG10999AY141061GF102991021011008001001001MA1999999098781MD1410001+0001MW1051REMSYN011333   58000
0129825860999991985080500004-05200-039300FM-12+019999999V0209991C00001220001CN9999999N9+02381+02091101341ADDAA106000091AG10999AY141061GF102991021011008001001001KA1240M+02971MA1999999098941MD1999999+0011MW1021REMSYN017333   10297 58001
0129825860999991985080512004-05200-039300FM-12+019999999V0201401N00261007501CN0040001N9+02421+02071101591ADDAA106000091AG10999AY121061GF106991061041008001001001KA1240N+02091MA1999999099181MD1999999-0021MW1101REMSYN017333   20209 59002
0110825860999991985080518004-05200-039300FM-12+019999999V0200901N00411220001CN0040001N9+03001+01571101211ADDAA106000091AG10999AY141061GF103991031041008001001001MA1999999098831MD1999999+0051MW1051REMSYN011333   58005
0129825860999991985080600004-05200-039300FM-12+019999999V0200501N00051220001CN9999999N9+02381+02011101411ADDAA106000091AG10999AY141061GF100991001001999999001001KA1240M+03051MA1999999099001MD1999999+0061MW1011REMSYN017333   10305 58006
0146825860999991985080612004-05200-039300FM-12+019999999V0200901N00211007501CN0040001N9+02341+02221101571ADDAA124000291AA299000391AG10999AY121061GF108991081051008001999999KA1240N+02141MA1999999099151MD1999999-0031MW1201REMSYN023333   20214 59003 69924
0110825860999991985080618004-05200-039300FM-12+019999999V0201401N00511045001CN0040001N9+02771+02071101161ADDAA106000091AG10999AY121061GF107991041031008001061031MA1999999098771MD1999999-0061MW1151REMSYN011333   59006
0146825860999991985080712004-05200-039300FM-12+019999999V0201401N00311007501CN0040001N9+02431+02071101421ADDAA124000891AA299001091AG10999AY121061GF107991071041008001001001KA1240N+02131MA1999999099011MD1999999-0141MW1101REMSYN023333   20213 59014 69984
0116825860999991985080718004-05200-039300FM-12+019999999V0201401N00311045001CN0040001N9+02741+02051101041ADDAA106002091AG10999AY161061GF108991041041008001071999MA1999999098651MD1999999-0121MW1151REMSYN017333   59012 60021
0146825860999991985080800004-05200-039300FM-12+019999999V0200501N00261007501CN9999999N9+02301+02181101241ADDAA106000691AA299000591AG10999AY121061GF108991081051008001999999KA1240M+02821MA1999999098841MD1999999-0141MW1211REMSYN023333   10282 59014 69961
0135825860999991985080812004-05200-039300FM-12+019999999V0201401N00311220001CN0040001N9+02491+01941101381ADDAA124009091AG10999AY161061GF102991021011008001001001KA1240N+02011MA1999999098971MD1999999-0041MW1051REMSYN023333   20201 59004 60094
0110825860999991985080818004-05200-039300FM-12+019999999V0201401N00311220001CN0040001N9+02961+01661101971ADDAA106000091AG10999AY141061GF103991031011008001001001MA1999999098601MD1999999-0051MW1051REMSYN011333   59005
0129825860999991985080900004-05200-039300FM-12+019999999V0209991C00001220001CN9999999N9+02421+02051101221ADDAA106000091AG10999AY141061GF100991001001999999001001KA1240M+03011MA1999999098821MD1999999-0021MW1011REMSYN017333   10301 59002
0129825860999991985080912004-05200-039300FM-12+019999999V0200901N00261007501CN0040001N9+02581+02121101521ADDAA106000091AG10999AY141061GF106991061041008001001001KA1240N+02171MA1999999099121MD1999999+0151MW1051REMSYN017333   20217 58015
0110825860999991985080918004-05200-039300FM-12+019999999V0201401N00411220001CN0040001N9+03001+01811101061ADDAA106000091AG10999AY141061GF104991041021008001001001MA1999999098691MD1999999+0091MW1051REMSYN011333   58009
0135825860999991985081012004-05200-039300FM-12+019999999V0201801N00361012001CN0040001N9+02301+01981101591ADDAA124005091AG10999AY161061GF105991051081008001001001KA1240N+02151MA1999999099171MD1999999+0051MW1101REMSYN023333   20215 58005 60054
0110825860999991985081018004-05200-039300FM-12+019999999V0201401N00361220001CN0040001N9+02921+01461101091ADDAA106000091AG10999AY141061GF102991021011008001001001MA1999999098721MD1999999+0031MW1051REMSYN011333   58003
0129825860999991985081112004-05200-039300FM-12+019999999V0201401N00051220001CN0040001N9+02461+02031101581ADDAA106000091AG10999AY141061GF103991031011008001001001KA1240N+02021MA1999999099171MD1410001+0001MW1051REMSYN017333   20202 58000
0110825860999991985081118004-05200-039300FM-12+019999999V0201401N00311220001CN0040001N9+03041+01411101061ADDAA106000091AG10999AY141061GF103991031011008001001001MA1999999098691MD1999999-0031MW1051REMSYN011333   59003
0129825860999991985081212004-05200-039300FM-12+019999999V0201401N00261220001CN0040001N9+02541+01851101501ADDAA106000091AG10999AY141061GF103991031011008001001001KA1240N+02141MA1999999099111MD1999999-0061MW1051REMSYN017333   20214 59006
0110825860999991985081218004-05200-039300FM-12+019999999V0201401N00361220001CN0040001N9+03121+01601100931ADDAA106000091AG10999AY141061GF102991021011008001001001MA1999999098571MD1999999-0121MW1051REMSYN011333   59012
0129825860999991985081300004-05200-039300FM-12+019999999V0200501N00151220001CN9999999N9+02501+02071101171ADDAA106000091AG10999AY141061GF102991021011008001001001KA1240M+03161MA1999999098781MD1999999-0121MW1021REMSYN017333   10316 59012
0129825860999991985081312004-05200-039300FM-12+019999999V0200901N00311220001CN0040001N9+02541+01931101481ADDAA106000091AG10999AY141061GF104991041011008001001001KA1240N+02131MA1999999099081MD1999999-0031MW1051REMSYN017333   20213 59003
0110825860999991985081318004-05200-039300FM-12+019999999V0200901N00361220001CN0040001N9+03091+00821101041ADDAA106000091AG10999AY141061GF103991031011008001001001MA1999999098671MD1999999+0101MW1051REMSYN011333   58010
0129825860999991985081400004-05200-039300FM-12+019999999V0200501N00361220001CN9999999N9+02521+02191101281ADDAA106000091AG10999AY141061GF100991001001999999001001KA1240M+03131MA1999999098301MD1999999+0121MW1021REMSYN017333   10313 58012
0129825860999991985081412004-05200-039300FM-12+019999999V0200901N00511007501CN0040001N9+02541+02021101511ADDAA106000091AG10999AY141061GF108991081051008001999999KA1240N+02201MA1999999099121MD1999999+0041MW1051REMSYN017333   20220 58004
0110825860999991985081418004-05200-039300FM-12+019999999V0200901N00361220001CN0040001N9+03101+01731100991ADDAA106000091AG10999AY141061GF102991021011008001001001MA1999999098631MD1999999-0041MW1051REMSYN011333   59004
0099825860999991985081421004-05200-039300FM-12+019999999V0203201N00151220001CN0040001N9+02871+01921101081ADDAG10999AY141031GF101991011011008001001001MA1999999098701MD1999999-0051MW1051REMSYN011333   59005
0129825860999991985081500004-05200-039300FM-12+019999999V0200901N00211220001CN9999999N9+02541+02021101201ADDAA106000091AG10999AY141061GF100991001001999999001001KA1240M+03141MA1999999098821MD1999999-0081MW1011REMSYN017333   10314 59008
0129825860999991985081512004-05200-039300FM-12+019999999V0201801N00571220001CN0040001N9+02481+01681101471ADDAA106000091AG10999AY141061GF101991011011008001001001KA1240N+02021MA1999999099071MD1999999-0051MW1051REMSYN017333   20202 59005
0129825860999991985081612004-05200-039300FM-12+019999999V0201401N00311220001CN0040001N9+02351+01801101411ADDAA106000091AG10999AY141061GF104991041011008001001001KA1240N+02111MA1999999094021MD1999999-0051MW1051REMSYN017333   20211 59005
0129825860999991985081618004-05200-039300FM-12+019999999V0201401N00511007501CN0040001N9+03121+01521101901ADDAA106000091AG10999AY141061GF107991051041008001001011MA1999999098542MD1999999+0021MW1051REMSYN011333   58002EQDQ01+098543APOSP 
0115825860999991985081712004-05200-039300FM-12+019999999V0201401N00571007501CN0040001N9+02521+01711101411ADDAA106000091AG10999GF106991061041008001001001KA1240N+02201MA1999999099011MD1999999-0011REMSYN017333   20220 59001
0096825860999991985081718004-05200-039300FM-12+019999999V0200901N00511220001CN0200001N9+03111+01421101991ADDAA106000091AG10999GF103991031011008001001001MA1999999098631MD1999999+0091REMSYN011333   58009
0129825860999991985081812004-05200-039300FM-12+019999999V0201401N00361220001CN0040001N9+02621+01641101401ADDAA106000091AG10999AY141061GF103991011011008001041011KA1240N+02021MA1999999099011MD1410001+0001MW1051REMSYN017333   20202 58000
0110825860999991985081818004-05200-039300FM-12+019999999V0200901N00361045001CN0040001N9+03141+01361101041ADDAA106000091AG10999AY141061GF107991021011008001041011MA1999999098671MD1999999+0041MW1051REMSYN011333   58004
0129825860999991985081900004-05200-039300FM-12+019999999V0200501N00621220001CN9999999N9+02461+02171101311ADDAA106000091AG10999AY141061GF102991021011008001001001KA1240M+03181MA1999999098931MD1999999+0111MW1011REMSYN017333   10318 58011
0110825860999991985081912004-05200-039300FM-12+019999999V0200901N00461220001CN0040001N9+02561+01671101551ADDAA106000091AG10999AY141061GF102991011011008001001011MA1999999099151MD1999999+0141MW1051REMSYN011333   58014
0110825860999991985081918004-05200-039300FM-12+019999999V0200901N00411220001CN0040001N9+03121+01711101101ADDAA106000091AG10999AY141061GF102991021011008001001001MA1999999098731MD1999999+0061MW1051REMSYN011333   58006
0129825860999991985082000004-05200-039300FM-12+019999999V0203601N00211220001CN9999999N9+02491+01981101351ADDAA106000091AG10999AY141061GF100991001001999999001001KA1240M+03161MA1999999098961MD1999999+0031MW1021REMSYN017333   10316 58003
0135825860999991985082012004-05200-039300FM-12+019999999V0201401N00151007501CN0040001N9+02451+02131101491ADDAA124999929AG10999AY151061GF108991081051008001999999KA1240N+02121MA1999999099091MD1999999-0061MW1151REMSYN023333   20212 59006 69904
0110825860999991985082018004-05200-039300FM-12+019999999V0201401N00211045001CN0040001N9+02971+01871101101ADDAA106000091AG10999AY121061GF107991041031008001061001MA1999999098731MD1410001+0001MW1151REMSYN011333   58000
0134825860999991985082100004-05200-039300FM-12+019999999V0200501N00051012001CN9999999N9+02621+02121101301ADDAA106000091AG10999GF107991999081008001001001KA1240M+03021MA1999999098921MD1999999-0041REMSYN017333   10302 59004EQDQ01+000052SCOTLC
0115825860999991985082112004-05200-039300FM-12+019999999V0201801N00411220001CN0200001N9+02541+01621101481ADDAA106000091AG10999GF101991011011008001001001KA1240N+02131MA1999999099101MD1999999+0011REMSYN017333   20213 58001
0096825860999991985082118004-05200-039300FM-12+019999999V0201801N00511220001CN0200001N9+03241+01101100961ADDAA106000091AG10999GF100991001001999999001001MA1999999098601MD1999999-0131REMSYN011333   59013
0115825860999991985082212004-05200-039300FM-12+019999999V0200901N00361012001CN0200001N9+02591+01871101511ADDAA106000091AG10999GF106991061081008001001001KA1240N+02181MA1999999099121MD1999999+0021REMSYN017333   20218 58002
0096825860999991985082218004-05200-039300FM-12+019999999V0200901N00311220001CN0200001N9+03181+01691100951ADDAA106000091AG10999GF104991041041008001001001MA1999999098591MD1999999-0011REMSYN011333   59001
0115825860999991985082300004-05200-039300FM-12+019999999V0200501N00621220001CN9999999N9+02521+02131101131ADDAA106000091AG10999GF100991001001999999001001KA1240M+03201MA1999999098751MD1999999-0071REMSYN017333   10320 59007
0135825860999991985082312004-05200-039300FM-12+019999999V0201401N00211007501CN0200001N9+02461+02251101451ADDAA124999929AG10999AY121061GF106991061041008001001001KA1240N+02171MA1999999099051MD1999999-0071MW1201REMSYN023333   20217 59007 69904
0096825860999991985082318004-05200-039300FM-12+019999999V0200901N00261220001CN0200001N9+03251+01631100971ADDAA106000091AG10999GF103991031021008001001001MA1999999098611MD1999999+0021REMSYN011333   58002
0115825860999991985082412004-05200-039300FM-12+019999999V0200901N00511012001CN0200001N9+02661+02001101461ADDAA106000091AG10999GF106991061081008001001001KA1240N+02291MA1999999099081MD1999999+0031REMSYN017333   20229 58003
0096825860999991985082418004-05200-039300FM-12+019999999V0200901N00411220001CN0200001N9+03181+01731101071ADDAA106000091AG10999GF103991031011008001001001MA1999999098711MD1999999+0101REMSYN011333   58010
0115825860999991985082500004-05200-039300FM-12+019999999V0200501N00671220001CN9999999N9+02501+02211101381ADDAA106000091AG10999GF102991021011008001001001KA1240M+03241MA1999999099001MD1999999+0091REMSYN017333   10324 58009
0129825860999991985082512004-05200-039300FM-12+019999999V0201401N00311012001CN0040001N9+02521+02091101591ADDAA106000091AG10999AY141061GF107991071081008001001001KA1240N+02231MA1999999099191MD1999999+0111MW1051REMSYN017333   20223 58011
0110825860999991985082518004-05200-039300FM-12+019999999V0200501N00411012001CN0040001N9+03141+01691101081ADDAA106000091AG10999AY141061GF107991071081008001041011MA1999999098721MD1999999+0011MW1051REMSYN011333   58001
0129825860999991985082612004-05200-039300FM-12+019999999V0201401N00411012001CN0040001N9+02581+01921101561ADDAA106000091AG10999AY141061GF106991061081008001001001KA1240N+02231MA1999999099961MD1999999-0031MW1051REMSYN017333   20223 59003
0129825860999991985082618004-05200-039300FM-12+019999999V0201401N00511220001CN0040001N9+03201+01511101071ADDAA106000091AG10999AY141061GF104991031011008001001011MA1999999098712MD1999999-0011MW1051REMSYN011333   59001EQDQ01+098713APOSP 
0129825860999991985082700004-05200-039300FM-12+019999999V0200501N00361220001CN9999999N9+02521+01211101381ADDAA106000091AG10999AY141061GF102991021011008001001001KA1240M+03241MA1999999098991MD1410001+0001MW1011REMSYN017333   10324 58000
0129825860999991985082712004-05200-039300FM-12+019999999V0201401N00361012001CN0040001N9+02621+01911101601ADDAA106000091AG10999AY141061GF106991061081008001001001KA1240N+02101MA1999999099201MD1999999+0041MW1051REMSYN017333   20210 58004
0110825860999991985082718004-05200-039300FM-12+019999999V0201401N00311220001CN0200001N9+03161+01511101061ADDAA106000091AG10001AY141061GF104991041041008001001001MA1999999098701MD1999999-0011MW1031REMSYN011333   59001
0115825860999991985082812004-05200-039300FM-12+019999999V0200901N00311220001CN0200001N9+02701+01721101511ADDAA106000091AG10999GF100991001001999999001001KA1240N+02101MA1999999099131MD1999999-0071REMSYN017333   20210 59007
0096825860999991985082818004-05200-039300FM-12+019999999V0200901N00461220001CN0200001N9+03271+01331100981ADDAA106000091AG10999GF103991031011008001001001MA1999999098621MD1999999-0081REMSYN011333   59008
0115825860999991985082912004-05200-039300FM-12+019999999V0200901N00411012001CN0200001N9+02591+01901101581ADDAA106000091AG10999GF105991051081008001001001KA1240N+02171MA1999999099181MD1999999+0051REMSYN017333   20217 58005
0096825860999991985082918004-05200-039300FM-12+019999999V0200901N00211220001CN0200001N9+03221+01611101121ADDAA106000091AG10999GF105991041011008001001011MA1999999098751MD1999999+0131REMSYN011333   58013
0115825860999991985083012004-05200-039300FM-12+019999999V0200901N00411007501CN0200001N9+02661+01871101561ADDAA106000091AG10999GF106991061041008001001001KA1240N+02301MA1999999099171MD1999999-0011REMSYN017333   20230 59001
0096825860999991985083018004-05200-039300FM-12+019999999V0201401N00411220001CN0200001N9+03261+01471101061ADDAA106000091AG10999GF105991041041008001001011MA1999999098701MD1999999-0051REMSYN011333   59005
0115825860999991985083112004-05200-039300FM-12+019999999V0201401N00261007501CN0200001N9+02651+02031101551ADDAA106000091AG10999GF106991051041008001061001KA1240N+02361MA1999999099161MD1999999-0011REMSYN017333   20236 59001
0096825860999991985083118004-05200-039300FM-12+019999999V0200901N00361220001CN0200001N9+03281+01491101081ADDAA106000091AG10999GF103991031011008001001001MA1999999098721MD1999999+0021REMSYN011333   58002
0115825860999991985090112004-05200-039300FM-12+019999999V0201401N00461220001CN0200001N9+02661+01951101561ADDAA106000091AG10999GF103991031011008001001001KA1240N+02151MA1999999099181MD1999999+0021REMSYN017333   20215 58002
0096825860999991985090118004-05200-039300FM-12+019999999V0200901N00311220001CN0200001N9+03341+01241101031ADDAA106000091AG10999GF102991021011008001001001MA1999999098671MD1999999-0051REMSYN011333   59005
0115825860999991985090212004-05200-039300FM-12+019999999V0201401N00361220001CN0200001N9+02601+01871101431ADDAA106000091AG10999GF104991041011008001001001KA1240N+02121MA1999999099051MD1999999-0131REMSYN017333   20212 59013
0096825860999991985090218004-05200-039300FM-12+019999999V0201801N00361220001CN0200001N9+03411+01241100811ADDAA106000091AG10999GF101991011011008001001001MA1999999098461MD1999999-0211REMSYN011333   59021
0115825860999991985090300004-05200-039300FM-12+019999999V0201801N00051220001CN9999999N9+02651+01091101081ADDAA106000091AG10999GF100991001001999999001001KA1240M+03451MA1999999098711MD1999999-0111REMSYN017333   10345 59011
0134825860999991985090312004-05200-039300FM-12+019999999V0201801N00571007501CN0200001N9+02651+01771101551ADDAA106000091AG10999GF105991051021008001001001KA1240N+02091MA1999999099151MD1999999+0121REMSYN017333   20209 58012EQDQ01+999990APOSP 
0110825860999991985090318004-05200-039300FM-12+019999999V0201801N00511220001CN0040001N9+03291+00831101011ADDAA106000091AG10999AY101061GF100991001001999999001001MA1999999098651MD1999999+0191MW1041REMSYN011333   58019
0115825860999991985090400004-05200-039300FM-12+019999999V0200501N00411220001CN9999999N9+02571+01801101221ADDAA106000091AG10999GF100991001001999999001001KA1240M+03291MA1999999098841MD1999999+0131REMSYN017333   10329 58013
0115825860999991985090412004-05200-039300FM-12+019999999V0201401N00511007501CN0200001N9+02651+01661101561ADDAA106000091AG10999GF106991061041008001001001KA1240N+02091MA1999999099171MD1410001+0001REMSYN017333   20209 58000
0096825860999991985090418004-05200-039300FM-12+019999999V0209999999999220001CN0200001N9+03201+01421101081ADDAA106000091AG10999GF104991041041008001061001MA1999999098721MD1999999+0071REMSYN011333   58007
0115825860999991985090600004-05200-039300FM-12+019999999V0200501N00461220001CN9999999N9+02671+01951101081ADDAA106000091AG10999GF100991001001999999001001KA1240M+03381MA1999999098711MD1999999-0161REMSYN017333   10338 59016
0115825860999991985090612004-05200-039300FM-12+019999999V0200901N00211012001CN0200001N9+02651+01951101321ADDAA106000091AG10999GF107991071081008001001001KA1240N+02271MA1999999098941MD1999999-0061REMSYN017333   20227 59006
0096825860999991985090618004-05200-039300FM-12+019999999V0201801N00151007501CN0200001N9+03241+01631100771ADDAA106000091AG10999GF105991051021008001001001MA1999999098421MD1999999-0021REMSYN011333   59002
0134825860999991985090712004-05200-039300FM-12+019999999V0201401N00411220001CN0200001N9+02641+01751101371ADDAA106000091AG10999GF103991999011008001001001KA1240N+02281MA1999999098991MD1999999+0051REMSYN017333   20228 58005EQDQ01+000022SCOTLC
0096825860999991985090718004-05200-039300FM-12+019999999V0201801N00261220001CN0200001N9+03221+01611100971ADDAA106000091AG10999GF104991041021008001001001MA1999999098521MD1999999+0101REMSYN011333   58010
0115825860999991985090812004-05200-039300FM-12+019999999V0201401N00361220001CN0200001N9+02741+01671101411ADDAA106000091AG10999GF103991031011008001001001KA1240N+02371MA1999999099031MD1999999+0041REMSYN017333   20237 58004
0096825860999991985090818004-05200-039300FM-12+019999999V0200901N00261220001CN0200001N9+03381+01271100821ADDAA106000091AG10999GF103991031011008001001001MA1999999098481MD1999999-0041REMSYN011333   59004
0102825860999991985090912004-05200-039300FM-12+019999999V0201401N00361220001CN0200001N9+02761+01801101271ADDAA106000091AG10999GF104991021011008001001011MA1999999098901MD1999999-0131REMSYN017333   20/21 59013
0096825860999991985090918004-05200-039300FM-12+019999999V0201401N00361220001CN0200001N9+03381+01431100801ADDAA106000091AG10999GF105991041021008001001011MA1999999098451MD1999999-0031REMSYN011333   59003
0115825860999991985091000004-05200-039300FM-12+019999999V0200501N00511220001CN9999999N9+02601+02191101201ADDAA106000091AG10999GF100991001001999999001001KA1240M+03421MA1999999098741MD1999999+0081REMSYN017333   10342 58008
0115825860999991985091012004-05200-039300FM-12+019999999V0201401N00511012001CN0200001N9+02751+02021101361ADDAA106000091AG10999GF107991051081008001001041KA1240N+02321MA1999999098991MD1999999+0091REMSYN017333   20232 58009
0096825860999991985091018004-05200-039300FM-12+019999999V0200901N00361007501CN0200001N9+03311+01591100761ADDAA106000091AG10999GF106991051021008001001011MA1999999098421MD1999999-0031REMSYN011333   59003
0115825860999991985091112004-05200-039300FM-12+019999999V0201401N00511007501CN0200001N9+02681+01991101341ADDAA106000091AG10999GF107991071051008001001001KA1240N+02251MA1999999098961MD1999999-0031REMSYN017333   20225 59003
0096825860999991985091118004-05200-039300FM-12+019999999V0200901N00361007501CN0200001N9+03331+01701100831ADDAA106000091AG10999GF106991051021008001001011MA1999999098481MD1999999+0061REMSYN011333   58006
0115825860999991985091200004-05200-039300FM-12+019999999V0200901N00671220001CN9999999N9+02601+02231101181ADDAA106000091AG10999GF100991001001999999001001KA1240M+03351MA1999999098801MD1999999+0061REMSYN017333   10335 58006
0115825860999991985091212004-05200-039300FM-12+019999999V0201401N00571007501CN0200001N9+02721+01931101371ADDAA106000091AG10999GF106991061041008001001001KA1240N+02301MA1999999098991MD1999999+0031REMSYN017333   20230 58003
0096825860999991985091218004-05200-039300FM-12+019999999V0201401N00461007501CN0200001N9+03211+01711100861ADDAA106000091AG10999GF106991051021008001001011MA1999999098511MD1999999+0031REMSYN011333   58003
0115825860999991985091300004-05200-039300FM-12+019999999V0200501N00571220001CN9999999N9+02601+02171101161ADDAA106000091AG10999GF100991001001999999001001KA1240M+03331MA1999999098781MD1999999-0021REMSYN017333   10333 59002
0096825860999991985091318004-05200-039300FM-12+019999999V0201401N00571007501CN0200001N9+03211+01461100961ADDAA106000091AG10999GF105991051041008001001001MA1999999098601MD1999999+0091REMSYN011333   58009
0115825860999991985091400004-05200-039300FM-12+019999999V0200501N00461220001CN9999999N9+02591+02061101171ADDAA106000091AG10999GF100991001001999999001001KA1240M+03261MA1999999098791MD1999999+0011REMSYN017333   10326 58001
0115825860999991985091412004-05200-039300FM-12+019999999V0201401N00621220001CN0200001N9+02701+01601101431ADDAA106000091AG10999GF102991011011008001001011KA1240N+02021MA1999999099061MD1999999+0031REMSYN017333   20202 58003
0115825860999991985091418004-05200-039300FM-12+019999999V0200901N00411220001CN0200001N9+03361+01561100871ADDAA106000091AG10999GF103991031011008001001001MA1999999098541MD1999999-0081REMSYN011333   59008EQDQ01+999990APOSP 
0115825860999991985091512004-05200-039300FM-12+019999999V0201401N00461012001CN0200001N9+02601+02031101361ADDAA106000091AG10999GF106991061081008001001001KA1240N+02211MA1999999098981MD1999999-0081REMSYN017333   20221 59008
0096825860999991985091518004-05200-039300FM-12+019999999V0200901N00511220001CN0200001N9+03321+01481100811ADDAA106000091AG10999GF103991031011008001001001MA1999999098461MD1999999-0061REMSYN011333   59006
0096825860999991985091618004-05200-039300FM-12+019999999V0201401N00621220001CN0200001N9+03361+01261100841ADDAA106000091AG10999GF102991021011008001001001MA1999999098491MD1999999+0031REMSYN011333   58003
0115825860999991985091712004-05200-039300FM-12+019999999V0201401N00511220001CN0200001N9+02751+01571101491ADDAA106000091AG10999GF102991021011008001001001KA1240N+02111MA1999999099121MD1999999+0071REMSYN017333   20211 58007
0096825860999991985091718004-05200-039300FM-12+019999999V0201801N00571220001CN0200001N9+03371+01091100951ADDAA106000091AG10999GF102991021011008001001001MA1999999098591MD1999999+0101REMSYN011333   58010
0115825860999991985091800004-05200-039300FM-12+019999999V0200501N00571220001CN9999999N9+02661+01951101211ADDAA106000091AG10999GF100991001001999999001001KA1240M+03381MA1999999098841MD1999999+0081REMSYN017333   10338 58008
0115825860999991985091812004-05200-039300FM-12+019999999V0201401N00411220001CN0200001N9+02771+01591101551ADDAA106000091AG10999GF102991021011008001001001KA1240N+02121MA1999999099171MD1999999+0051REMSYN017333   20212 58005
0096825860999991985091818004-05200-039300FM-12+019999999V0201401N00311220001CN0200001N9+03261+01281101001ADDAA106000091AG10999GF103991031011008001001001MA1999999098641MD1999999+0051REMSYN011333   58005
0134825860999991985091900004-05200-039300FM-12+019999999V0200501N00511220001CN9999999N9+02631+01861101291ADDAA106000091AG10999GF100991001001999999001001KA1240M+99999MA1999999098921MD1999999+0081REMSYN017333   10138 58008EQDQ01 +01382ATMX  
0115825860999991985091912004-05200-039300FM-12+019999999V0201501N00361007501CN0200001N9+02621+02011101371ADDAA106000091AG10999GF107991071041008001001001KA1240N+02151MA1999999098991MD1999999-0181REMSYN017333   20215 59018
0096825860999991985091918004-05200-039300FM-12+019999999V0200901N00261220001CN0200001N9+03391+01571100821ADDAA106000091AG10999GF104991041021008001001001MA1999999098471MD1999999-0171REMSYN011333   59017
0115825860999991985092012004-05200-039300FM-12+019999999V0201401N00311012001CN0200001N9+02631+02011101321ADDAA106000091AG10999GF107991071081008001001001KA1240N+02301MA1999999098941MD1999999-0051REMSYN017333   20230 59005
0096825860999991985092018004-05200-039300FM-12+019999999V0202301N00211220001CN0200001N9+03371+01651100721ADDAA106000091AG10999GF103991031021008001001001MA1999999098381MD1999999-0091REMSYN011333   59009
0115825860999991985092100004-05200-039300FM-12+019999999V0200901N00571220001CN9999999N9+02661+02291101021ADDAA106000091AG10999GF101991011011008001001001KA1240M+03401MA1999999098651MD1999999-0071REMSYN017333   10340 59007
0115825860999991985092112004-05200-039300FM-12+019999999V0200901N00361007501CN0200001N9+02521+02131101261ADDAA106000091AG10999GF108991081051008001999999KA1240N+02311MA1999999098881MD1999999-0061REMSYN017333   20231 59006
0096825860999991985092118004-05200-039300FM-12+019999999V0200501N00151220001CN0200001N9+03391+01661100701ADDAA106000091AG10999GF104991041021008001001001MA1999999098361MD1999999-0021REMSYN011333   59002
0146825860999991985092212004-05200-039300FM-12+019999999V0200901N00621012001CN0200001N9+02641+02001101261ADDAA124000491AA299000591AG10999AY161061GF106991061081008001001001KA1240N+02181MA1999999098881MD1410001+0001MW1021REMSYN023333   20218 58000 69944
0096825860999991985092218004-05200-039300FM-12+019999999V0200901N00511220001CN0200001N9+03361+01771100761ADDAA106000091AG10999GF104991041021008001001001MA1999999098421MD1999999+0061REMSYN011333   58006
0115825860999991985092300004-05200-039300FM-12+019999999V0200501N00411220001CN9999999N9+02521+02091101131ADDAA106000091AG10999GF100991001001999999001001KA1240M+03441MA1999999098751MD1999999+0141REMSYN017333   10344 58014
0115825860999991985092312004-05200-039300FM-12+019999999V0200901N00721012001CN0200001N9+02601+01841101521ADDAA106000091AG10999GF106991061081008001001001KA1240N+02291MA1999999099131MD1999999+0251REMSYN017333   20229 58025
0096825860999991985092318004-05200-039300FM-12+019999999V0200901N00571220001CN0200001N9+03261+01421100981ADDAA106000091AG10999GF104991041021008001001001MA1999999098621MD1999999+0201REMSYN011333   58020
0115825860999991985092400004-05200-039300FM-12+019999999V0200501N00671220001CN9999999N9+02601+01841101251ADDAA106000091AG10999GF100991001001999999001001KA1240M+03301MA1999999098871MD1999999+0121REMSYN017333   10330 58012
0115825860999991985092412004-05200-039300FM-12+019999999V0200901N00461012001CN0200001N9+02661+01951101381ADDAA106000091AG10999GF106991061081008001001001KA1240N+02201MA1999999099001MD1999999-0131REMSYN017333   20220 59013
0096825860999991985092418004-05200-039300FM-12+019999999V0201401N00461220001CN0200001N9+03301+01461100961ADDAA106000091AG10999GF104991041021008001001001MA1999999098601MD1999999-0021REMSYN011333   59002
0115825860999991985092500004-05200-039300FM-12+019999999V0200501N00721220001CN9999999N9+02601+02031101211ADDAA106000091AG10999GF102991021011008001001001KA1240M+03401MA1999999098831MD1999999-0041REMSYN017333   10340 59004
0115825860999991985092512004-05200-039300FM-12+019999999V0201401N00411220001CN0200001N9+02761+01771101331ADDAA106000091AG10999GF103991031011008001001001KA1240N+02161MA1999999098961MD1999999-0041REMSYN017333   20216 59004
