0129826780999991985010100004-06767-043017FM-12+011099999V0201801N00101220001CN9999999N9+02461+02211101151ADDAA106000091AG10999AY101061GF102991001001999999001011KA1240M+02921MA1999999099561MD1999999+0241MW1021REMSYN017333   10292 58024
0129826780999991985010112004-06767-043017FM-12+011099999V0200501N00051045001CN0200001N9+02551+02271101391ADDAA106000091AG10999AY101061GF108991031021008001031999KA1240N+02151MA1999999099801MD1999999-0071MW1021REMSYN017333   20215 59007
0110826780999991985010118004-06767-043017FM-12+011099999V0201401N00151045001CN0200001N9+03131+02141100901ADDAA106000091AG10999AY101061GF106991041041008001031021MA1999999099331MD1999999-0101MW1021REMSYN011333   59010
0129826780999991985010200004-06767-043017FM-12+011099999V0209991C00001220001CN9999999N9+02681+02261101021ADDAA106000091AG10999AY101061GF104991001001999999001021KA1240M+03241MA1999999099441MD1999999-0121MW1021REMSYN017333   10324 59012
0110826780999991985010218004-06767-043017FM-12+011099999V0200501N00261045001CN0200001N9+03161+02171100781ADDAA106000091AG10999AY101061GF108991041021008001061021MA1999999099211MD1999999-0121MW1021REMSYN011333   59012
0129826780999991985010300004-06767-043017FM-12+011099999V0209991C00001220001CN9999999N9+02521+02381100991ADDAA106000091AG10999AY101061GF100991001001999999001001KA1240M+03281MA1999999099411MD1999999-0031MW1021REMSYN017333   10328 59003
0135826780999991985010312004-06767-043017FM-12+011099999V0202301N00101007501CN0200001N9+02351+02221101301ADDAA124022091AG10999AY161061GF108991051061008001011999KA1240N+02071MA1999999099711MD1999999+0061MW1031REMSYN023333   20207 58006 60224
0116826780999991985010318004-06767-043017FM-12+011099999V0202301N00151045001CN0040001N9+02621+02371100951ADDAA106005091AG10999AY121061GF108991041051008001021999MA1999999099361MD1999999+0151MW1631REMSYN017333   58015 60051
0129826780999991985010400004-06767-043017FM-12+011099999V0200901N00101045001CN9999999N9+02461+02251101151ADDAA106000091AG10999AY101061GF108991041051008001071999KA1240M+02971MA1999999099561MD1999999+0151MW1021REMSYN017333   10297 58015
0135826780999991985010412004-06767-043017FM-12+011099999V0200501N00101007501CN0200001N9+02621+02231101361ADDAA124005091AG10999AY161061GF108991061051008001041999KA1240N+02281MA1999999099721MD1999999+0011MW1021REMSYN023333   20228 58001 60054
0110826780999991985010418004-06767-043017FM-12+011099999V0200501N00151220001CN0200001N9+03061+02191100901ADDAA106000091AG10999AY101061GF102991011011008001001011MA1999999099331MD1999999-0031MW1021REMSYN011333   59003
0129826780999991985010500004-06767-043017FM-12+011099999V0201801N00051220001CN9999999N9+02641+02391101041ADDAA106000091AG10999AY101061GF102991011041008001031011KA1240M+03191MA1999999099461MD1999999-0101MW1021REMSYN017333   10319 59010
0135826780999991985010512004-06767-043017FM-12+011099999V0200901N00151045001CN0200001N9+02761+01801101371ADDAA124003091AG10999AY161061GF108991041021008001031011KA1240N+02121MA1999999099791MD1999999+0071MW1021REMSYN023333   20212 58007 60034
0110826780999991985010518004-06767-043017FM-12+011099999V0203201N00211045001CN0200001N9+03071+02221100921ADDAA106000091AG10999AY101061GF107991041021008001031011MA1999999099351MD1999999+0021MW1021REMSYN011333   58002
0129826780999991985010600004-06767-043017FM-12+011099999V0202301N00101105001CN9999999N9+02601+02311101071ADDAA106000091AG10999AY101061GF106991041001017501011021KA1240M+03131MA1999999099501MD1999999+0041MW1021REMSYN017333   10313 58004
0129826780999991985010612004-06767-043017FM-12+011099999V0203201N00101007501CN0200001N9+02681+02311101331ADDAA106000091AG10999AY101061GF107991061041008001001021KA1240N+02161MA1999999099751MD1999999-0041MW1021REMSYN017333   20216 59004
0110826780999991985010618004-06767-043017FM-12+011099999V0202301N00211045001CN0200001N9+03061+02401100911ADDAA106000091AG10999AY101061GF107991011011008001071031MA1999999099341MD1999999-0011MW1021REMSYN011333   59001
0129826780999991985010700004-06767-043017FM-12+011099999V0202701N00101220001CN9999999N9+02611+02461100971ADDAA106000091AG10999AY101061GF104991021001017501031021KA1240M+03221MA1999999099401MD1999999-0101MW1021REMSYN017333   10322 59010
0105826780999991985010712004-06767-043017FM-12+011099999V0202301N00151045001CN0200001N9+02411+02171101261ADDAG10999AY161061GF108991011011008001071041MA1999999099061MD1999999-0071MW1031REMSYN017333   2017/ 59007
0110826780999991985010718004-06767-043017FM-12+011099999V0203201N00101105001CN0200001N9+03081+02371100841ADDAA106000091AG10999AY101061GF106991031021008001001021MA1999999099261MD1999999-0081MW1021REMSYN011333   59008
0129826780999991985010800004-06767-043017FM-12+011099999V0203201N00051045001CN9999999N9+02701+02561100851ADDAA106000091AG10999AY121061GF107991031051008001031021KA1240M+03221MA1999999099271MD1999999-0131MW1131REMSYN017333   10322 59013
0135826780999991985010812004-06767-043017FM-12+011099999V0200501N00051007501CN0200001N9+02411+02251101251ADDAA124006091AG10999AY161061GF108991071051008001021999KA1240N+02181MA1999999099661MD1410001+0001MW1021REMSYN023333   20218 58000 60064
0110826780999991985010818004-06767-043017FM-12+011099999V0200501N00211105001CN0200001N9+03101+02361100691ADDAA106000091AG10999AY101061GF107991021011008001001021MA1999999099131MD1999999-0131MW1021REMSYN011333   59013
0129826780999991985010900004-06767-043017FM-12+011099999V0202301N00151045001CN9999999N9+02501+02091100961ADDAA106000091AG10999AY101061GF107991031051008001011011KA1240M+03241MA1999999099371MD1999999+0101MW1021REMSYN017333   10324 58010
0135826780999991985010912004-06767-043017FM-12+011099999V0209991C00001105001CN0200001N9+02481+02291101361ADDAA124003091AG10999AY161061GF108991031011008001001021KA1240N+02111MA1999999099771MD1999999+0111MW1021REMSYN023333   20211 58011 60034
0110826780999991985010918004-06767-043017FM-12+011099999V0200901N00051105001CN0200001N9+03031+02291100861ADDAA106000091AG10999AY101061GF107991041021008001001021MA1999999099281MD1999999+0151MW1021REMSYN011333   58015
0129826780999991985011000004-06767-043017FM-12+011099999V0200501N00101045001CN0200001N9+02641+02371101051ADDAA106000091AG10999AY121061GF106991031051008001031021KA1240M+03191MA1999999099471MD1999999+0101MW1131REMSYN017333   10319 58010
0135826780999991985011012004-06767-043017FM-12+011099999V0202701N00151045001CN0200001N9+02521+02311101341ADDAA124002091AG10999AY161061GF108991021011008001031011KA1240N+02181MA1999999099761MD1999999-0011MW1021REMSYN023333   20218 59001 60024
0110826780999991985011018004-06767-043017FM-12+011099999V0200501N00101045001CN0200001N9+03041+02261100881ADDAA106000091AG10999AY101061GF107991021011008001031021MA1999999099301MD1999999+0021MW1021REMSYN011333   58002
0135826780999991985011100004-06767-043017FM-12+011099999V0202701N00101007501CN9999999N9+02401+02311101181ADDAA106001091AG10999AY161061GF108991051071008001021999KA1240M+03111MA1999999099591MD1999999+0121MW1511REMSYN023333   10311 58012 60011
0126826780999991985011112004-06767-043017FM-12+011099999V0209991C00001012001CN0200001N9+02481+02271101281ADDAA124010091AG10999GF108991061081008001031999KA1240N+99999MA1999999099691REMSYN023333   20263 5900/ 60104EQDQ01 +02632ATMN  
0129826780999991985011118004-06767-043017FM-12+011099999V0202701N00151045001CN0200001N9+02921+02291100781ADDAA106000091AG10999AY101061GF107991021021008001031021MA1999999099221MD1999999-0081MW1021REMSYN011333   59008EQDQ01+999990APOSLP
0164826780999991985011200004-06767-043017FM-12+011099999V0209991C000019999999N9999999N9+02451+02301101001ADDAA106000091AG10999AY101061GF108991081051999999999999KA1240M+03101MA1999999099411MD1999999-0181MW1021REMSYN017333   10310 59018EQDQ01+000992SCOLCBQ02+999990APOSP 
0129826780999991985011300004-06767-043017FM-12+011099999V0202301N00101045001CN9999999N9+02401+02301101121ADDAA106000091AG10999AY101061GF106991041051012501011001KA1240M+02751MA1999999099521MD1999999+0111MW1021REMSYN017333   10275 58011
0135826780999991985011312004-06767-043017FM-12+011099999V0203201N00051045001CN0200001N9+02541+02351101281ADDAA124000191AG10999AY101061GF105991041021008001061001KA1240N+02191MA1999999099691MD1999999-0021MW1021REMSYN023333   20219 59002 69914
0110826780999991985011318004-06767-043017FM-12+011099999V0200901N00151220001CN0200001N9+03341+02081100791ADDAA106000091AG10999AY101061GF104991031021008001001011MA1999999099211MD1999999+0181MW1021REMSYN011333   58018
0129826780999991985011400004-06767-043017FM-12+011099999V0200501N00311045001CN0200001N9+02681+02221101051ADDAA106000091AG10999AY101061GF106991031011008001031011KA1240M+03181MA1999999099481MD1999999-0041MW1021REMSYN017333   10318 59004
0135826780999991985011412004-06767-043017FM-12+011099999V0203201N00151220001CN0200001N9+02671+02271101251ADDAA124001091AG10001AY161061GF104991031011008001031001KA1240N+02181MA1999999099671MD1999999-0021MW1001REMSYN023333   20218 59002 60014
0110826780999991985011418004-06767-043017FM-12+011099999V0200501N00151105001CN0200001N9+03191+02251100851ADDAA106000091AG10999AY101061GF105991021011008001001021MA1999999099281MD1999999+0071MW1021REMSYN011333   58007
0154826780999991985011500004-06767-043017FM-12+011099999V0201401N00051007501CN9999999N9+02531+02231101031ADDAA106000191AG10999AY101061GF106991061041008001001001KA1240M+99999MA1999999099451MD1999999-0031MW1601REMSYN023333   10233 59003 69911EQDQ01 +02332ATMX  
0135826780999991985011512004-06767-043017FM-12+011099999V0200501N00101007501CN0200001N9+99999+99999101281ADDAA124000191AG10999AY101061GF107991051021008001061001KA1240N+01901MA1999999099701MD1999999+0031MW1021REMSYN023333   20190 58003 69914
0110826780999991985011518004-06767-043017FM-12+011099999V0200901N00051045001CN0200001N9+02881+02391100961ADDAA106000091AG10999AY101061GF107991021021008001031021MA1999999099741MD1999999+0091MW1021REMSYN011333   58009
0129826780999991985011600004-06767-043017FM-12+011099999V0200901N00151105001CN9999999N9+02561+02191101101ADDAA106000091AG10999AY101061GF105991001001999999001021KA1240M+03111MA1999999099521MD1999999+0071MW1021REMSYN017333   10311 58007
0118826780999991985011612004-06767-043017FM-12+011099999V0202701N00101220001CN0200001N9+02511+02341101331ADDAG10999AY101061GF103991021011008001031001KA1240N+02291MA1999999099741MD1999999+0041MW1021REMSYN017333   20229 58004
0110826780999991985011618004-06767-043017FM-12+011099999V0201401N00211045001CN0200001N9+02921+02291100881ADDAA106000091AG10999AY101061GF108991041021008001011011MA1999999099311MD1999999-0071MW1021REMSYN011333   59007
0129826780999991985011700004-06767-043017FM-12+011099999V0203201N00051220001CN9999999N9+02501+02291101091ADDAA106000091AG10999AY101061GF103991031051008001001001KA1240M+03061MA1999999099501MD1999999-0021MW1021REMSYN017333   10306 59002
0110826780999991985011718004-06767-043017FM-12+011099999V0201401N00151045001CN0200001N9+02521+02291100831ADDAA106000091AG10999AY101061GF108991021011008001061001MA1999999099251MD1999999-0051MW1021REMSYN011333   59005
0129826780999991985011800004-06767-043017FM-12+011099999V0209991C00001007501CN9999999N9+02361+02261101081ADDAA106000091AG10999AY101061GF108991051051008001021999KA1240M+02791MA1999999099491MD1999999-0011MW1021REMSYN017333   10279 59001
0135826780999991985011812004-06767-043017FM-12+011099999V0203201N00101007501CN0040001N9+02321+02251101361ADDAA124033091AG10999AY121061GF108991081071008001999999KA1240N+02261MA1999999099761MD1999999+0201MW1611REMSYN023333   20226 58020 60334
0110826780999991985011818004-06767-043017FM-12+011099999V0203601N00101045001CN0200001N9+02861+02331100941ADDAA106000091AG10001AY101061GF108991041081008001061999MA1999999099361MD1999999+0111MW1021REMSYN011333   58011
0129826780999991985011900004-06767-043017FM-12+011099999V0209991C00001045001CN9999999N9+02531+02341101221ADDAA106000091AG10999AY101061GF108991041021008001031021KA1240M+02911MA1999999099631MD1999999+0141MW1021REMSYN017333   10291 58014
0146826780999991985011912004-06767-043017FM-12+011099999V0200501N00261007501CN0200001N9+02521+02261101421ADDAA124000791AA299001091AG10999AY101061GF108991051051008001021999KA1240N+02361MA1999999099831MD1999999+0071MW1021REMSYN023333   20236 58007 69974
0110826780999991985011918004-06767-043017FM-12+011099999V0200501N00101045001CN0200001N9+03021+02211100911ADDAA106000091AG10999AY101061GF107991041031008001041011MA1999999099341MD1999999-0021MW1021REMSYN011333   59002
0129826780999991985012000004-06767-043017FM-12+011099999V0200901N00101007501CN9999999N9+02681+02351101211ADDAA106000091AG10999AY101061GF107991051051008001061001KA1240M+03081MA1999999099631MD1410001+0001MW1021REMSYN017333   10308 58000
0110826780999991985012018004-06767-043017FM-12+011099999V0202301N00051045001CN0200001N9+02881+02351101091ADDAA106000091AG10999AY101061GF108991041051008001031021MA1999999099501MD1999999+0161MW1021REMSYN011333   58016
0129826780999991985012100004-06767-043017FM-12+011099999V0209991C00001220001CN9999999N9+02561+02421101191ADDAA106000091AG10999AY101061GF100991001001999999001001KA1240M+02981MA1999999099611MD1999999-0021MW1021REMSYN017333   10298 59002
0135826780999991985012112004-06767-043017FM-12+011099999V0203201N00211007501CN0200001N9+02501+02311101361ADDAA124012091AG10999AY161061GF108991071051008001001021KA1240N+02231MA1999999099771MD1999999-0071MW1021REMSYN023333   20223 59007 60124
0110826780999991985012118004-06767-043017FM-12+011099999V0200501N00101220001CN0200001N9+03131+02191100911ADDAA106000091AG10999AY101061GF106991041021008001001011MA1999999099341MD1999999-0161MW1021REMSYN011333   59016
0129826780999991985012200004-06767-043017FM-12+011099999V0200501N00101045001CN9999999N9+02651+02411101021ADDAA106000091AG10999AY101061GF106991011011008001031021KA1240M+03181MA1999999099441MD1999999-0171MW1021REMSYN017333   10318 59017
0135826780999991985012212004-06767-043017FM-12+011099999V0202701N00101007501CN0200001N9+02521+02271101281ADDAA124007091AG10999AY121061GF107991061051008001061001KA1240N+02211MA1999999099701MD1999999-0071MW1021REMSYN023333   20221 59007 60074
0116826780999991985012218004-06767-043017FM-12+011099999V0201801N00211045001CN0200001N9+02641+02371100881ADDAA106005091AG10999AY121061GF107991041081008001071021MA1999999099291MD1999999-0051MW1021REMSYN017333   59005 60051
0129826780999991985012300004-06767-043017FM-12+011099999V0202701N00051045001CN9999999N9+02551+02471101131ADDAA106000091AG10999AY101061GF106991041051008001011001KA1240M+02911MA1999999099541MD1999999+0101MW1021REMSYN017333   10291 58010
0121826780999991985012312004-06767-043017FM-12+011099999V0209991C00001045001CN0200001N9+02521+02291101281ADDAA124023091AG10999AY161061GF108991041021008001031011KA1240N+02111MA1999999099691MW1021REMSYN023333   20211 5900/ 60234
0110826780999991985012318004-06767-043017FM-12+011099999V0201801N00051007501CN0200001N9+03121+02221100751ADDAA106000091AG10999AY101061GF108991061021008001001031MA1999999099211MD1999999-0081MW1021REMSYN011333   59008
0135826780999991985012400004-06767-043017FM-12+011099999V0203601N00151045001CN9999999N9+02321+02271101221ADDAA106036091AG10999AY161061GF108991041021008001031999KA1240M+03181MA1999999099621MD1999999+0081MW1031REMSYN023333   10318 58008 60361
0135826780999991985012412004-06767-043017FM-12+011099999V0202701N00151007501CN0100001N9+02291+02231101471ADDAA124093091AG10999AY161061GF108991061071008001021999KA1240N+02131MA1999999099861MD1999999+0171MW1061REMSYN023333   20213 58017 60934
0110826780999991985012418004-06767-043017FM-12+011099999V0201801N00051045001CN0200001N9+02681+02411101141ADDAA106000091AG10999AY101061GF108991041021008001031999MA1999999099571MD1999999+0361MW1021REMSYN011333   58036
0129826780999991985012500004-06767-043017FM-12+011099999V0209991C00001045001CN9999999N9+02401+02371101411ADDAA106000091AG10999AY101061GF108991031011008001011999KA1240M+02741MA1999999099811MD1999999+0191MW1021REMSYN017333   10274 58019
0135826780999991985012512004-06767-043017FM-12+011099999V0209991C00001007501CN0200001N9+02421+02251101601ADDAA124009091AG10999AY161061GF108991071051008001031999KA1240N+02011MA1999999099981MD1999999+0121MW1031REMSYN023333   20201 58012 60094
0110826780999991985012518004-06767-043017FM-12+011099999V0203601N00151220001CN0200001N9+02951+02211101081ADDAA106000091AG10999AY101061GF104991021021008001031011MA1999999099491MD1999999-0081MW1021REMSYN011333   59008
0129826780999991985012600004-06767-043017FM-12+011099999V0202701N00101220001CN9999999N9+02561+02401101231ADDAA106000091AG10999AY101061GF104991021001008001031011KA1240M+03051MA1999999099641MD1999999-0171MW1021REMSYN017333   10305 59017
0129826780999991985012612004-06767-043017FM-12+011099999V0200501N00101007501CN0200001N9+02521+02311101331ADDAA106000091AG10999AY101061GF108991061051008001021999KA1240N+02321MA1999999099741MD1999999-0241MW1021REMSYN017333   20232 59024
0110826780999991985012618004-06767-043017FM-12+011099999V0203201N00051045001CN0200001N9+02831+02331100881ADDAA106000091AG10999AY101061GF108991021041008001021999MA1999999099301MD1999999-0191MW1021REMSYN011333   59019
0129826780999991985012700004-06767-043017FM-12+011099999V0201801N00101045001CN9999999N9+02521+02331101061ADDAA106000091AG10999AY101061GF107991031051008001031011KA1240M+02891MA1999999099471MD1999999-0171MW1021REMSYN017333   10289 59017
0135826780999991985012712004-06767-043017FM-12+011099999V0202301N00051007501CN0200001N9+02391+02281101031ADDAA124005091AG10999AY111061GF108991051061008001021999KA1240N+02201MA1999999099541MD1999999-0201MW1061REMSYN023333   20220 59020 60054
0116826780999991985012718004-06767-043017FM-12+011099999V0202701N00211045001CN0200001N9+02531+99999100871ADDAA106008091AG10999AY101061GF108991021051008001011999MA1999999099281MD1999999-0021MW1021REMSYN017333   59002 60081
0129826780999991985012800004-06767-043017FM-12+011099999V0209991C00001045001CN9999999N9+02481+02231101021ADDAA106000091AG10999AY101061GF108991041051000751031011KA1240M+02851MA1999999099441MD1999999-0031MW1021REMSYN017333   10285 59003
0154826780999991985012812004-06767-043017FM-12+011099999V0209991C00001007501CN0200001N9+02411+02241101291ADDAA124011091AG10999AY101061GF108991061061008001021999KA1240N+02121MA1999999099691MD1999999+0181MW1001REMSYN023333   20212 58018 60114EQDQ01+999990APOSLP
0110826780999991985012818004-06767-043017FM-12+011099999V0201401N00101045001CN0200001N9+03001+02321100741ADDAA106000091AG10999AY101061GF108991041021008001031011MA1999999099191MD1999999-0351MW1021REMSYN011333   59035
0154826780999991985012912004-06767-043017FM-12+011099999V0200501N00051045001CN0200001N9+02441+02211101321ADDAA124001091AG10999AY161061GF108991041051008001071999KA1240N+99999MA1999999099721MD1999999+0031MW1021REMSYN023333   20286 58003 60014EQDQ01 +02862ATMN  
0135826780999991985013000004-06767-043017FM-12+011099999V0209991C00001007501CN9999999N9+02401+02351101211ADDAA106000191AG10999AY161061GF108991081051008001999999KA1240M+03101MA1999999099621MD1999999-0011MW1021REMSYN023333   10310 59001 69911
0135826780999991985013012004-06767-043017FM-12+011099999V0203201N00101045001CN0200001N9+02521+02311101361ADDAA124026091AG10999AY161061GF108991041071008001031011KA1240N+02261MA1999999099771MD1999999+0051MW1021REMSYN023333   20226 58005 60264
0116826780999991985013018004-06767-043017FM-12+011099999V0201801N00151045001CN0200001N9+02511+02321100881ADDAA106003091AG10999AY161061GF107991041041008001021011MA1999999099301MD1999999+0031MW1601REMSYN017333   58003 60031
0129826780999991985013100004-06767-043017FM-12+011099999V0203201N00101105001CN9999999N9+02441+02341101281ADDAA106000091AG10999AY101061GF105991011041008001031011KA1240M+02441MA1999999099691MD1999999+0071MW1021REMSYN017333   10244 58007
0135826780999991985013112004-06767-043017FM-12+011099999V0200901N00101004201CN0200001N9+02481+02301101351ADDAA124003091AG10999AY101061GF108991081071004501999999KA1240N+02211MA1999999099751MD1999999-0021MW1021REMSYN023333   20221 59002 60034
0110826780999991985013118004-06767-043017FM-12+011099999V0203601N00151105001CN0200001N9+03081+02401100831ADDAA106000091AG10999AY101061GF106991041021008001001021MA1999999099271MD1999999-0031MW1021REMSYN011333   59003
0135826780999991985020100004-06767-043017FM-12+011099999V0203601N00151004201CN9999999N9+02201+02151101351ADDAA106019091AG10999AY191061GF108991081071004501999999KA1240M+03201MA1999999099751MD1999999-0061MW1811REMSYN023333   10320 59006 60191
0135826780999991985020112004-06767-043017FM-12+011099999V0202301N00101045001CN0200001N9+02401+02171101301ADDAA118022091AG10999AY161061GF108991031011008001031999KA1240N+02141MA1999999099791MD1999999+0081MW1021REMSYN023333   20214 58008 60223
0110826780999991985020118004-06767-043017FM-12+011099999V0201401N00101007501CN0200001N9+03021+02181101001ADDAA106000091AG10999AY101061GF106991051021008001031021MA1999999099421MD1999999+0151MW1021REMSYN011333   58015
0135826780999991985020200004-06767-043017FM-12+011099999V0200501N00621007501CN9999999N9+02341+02221101251ADDAA106008091AG10001AY121061GF108991081071008001999999KA1240M+03161MA1999999099651MD1999999-0011MW1021REMSYN023333   10316 59001 60081
0135826780999991985020212004-06767-043017FM-12+011099999V0203201N00051012001CN0200001N9+02531+02171101401ADDAA124012091AG10999AY161061GF108991081081008001999999KA1240N+02311MA1999999099811MD1999999+0021MW1021REMSYN023333   20231 58002 60124
0116826780999991985020218004-06767-043017FM-12+011099999V0200501N00211105001CN0200001N9+02821+02401100971ADDAA106002091AG10999AY161061GF107991031021008001001021MA1999999099391MD1999999+0031MW1031REMSYN017333   58003 60021
0135826780999991985020312004-06767-043017FM-12+011099999V0203601N00211045001CN0200001N9+02561+02171101431ADDAA124002091AG10999AY101061GF107991041021008001031011KA1240N+02371MA1999999099841MD1999999+0031MW1021REMSYN023333   20237 58003 60024
0116826780999991985020318004-06767-043017FM-12+011099999V0200501N00101045001CN0200001N9+02481+02291101121ADDAA106005091AG10999AY121061GF108991041031008001061021MA1999999099541MD1999999+0151MW1211REMSYN017333   58015 60051
0146826780999991985020400004-06767-043017FM-12+011099999V0202301N00101007501CN9999999N9+02121+02041101501ADDAA106000891AA299001091AG10999AY161061GF108991051071008001021999KA1240M+02941MA1999999099901MD1999999+0321MW1021REMSYN023333   10294 58032 69981
0135826780999991985020412004-06767-043017FM-12+011099999V0201801N00051045001CN0200001N9+02421+02071101531ADDAA124041091AG10999AY101061GF107991031051008001031011KA1240N+02091MA1999999099961MD1999999+0161MW1021REMSYN023333   20209 58016 60414
0110826780999991985020418004-06767-043017FM-12+011099999V0201401N00151105001CN0200001N9+02981+02151101141ADDAA106000091AG10999AY101061GF105991031021008001001021MA1999999099551MD1999999+0011MW1021REMSYN011333   58001
0129826780999991985020500004-06767-043017FM-12+011099999V0200901N00051999999CN9999999N9+02551+02361101281ADDAA106000091AG10999AY101061GF107991011001008001031021KA1240M+03091MA1999999099691MD1999999-0211MW1021REMSYN017333   10309 59021
0165826780999991985020512004-06767-043017FM-12+011099999V0200501N00051007501CN0200001N9+02521+02271101511ADDAA124000291AA299000391AG10999AY161061GF108991999051008001051999KA1240N+02221MA1999999099921MD1999999-0041MW1021REMSYN023333   20222 59004 69924EQDQ01+000082SCOTLC
0110826780999991985020518004-06767-043017FM-12+011099999V0200501N00261007501CN0200001N9+02741+02341101131ADDAA106000091AG10999AY101061GF108991071051008001011999MA1999999099551MD1410001+0001MW1021REMSYN011333   58000
0129826780999991985020600004-06767-043017FM-12+011099999V0209991C00001045001CN9999999N9+02321+02291101341ADDAA106000091AG10999AY101061GF106991021041008001031011KA1240M+03081MA1999999099751MD1999999+0061MW1021REMSYN017333   10308 58006
0135826780999991985020612004-06767-043017FM-12+011099999V0203601N00151007501CN0200001N9+02511+02231101521ADDAA124001091AG10999AY101061GF108991081051008001999999KA1240N+02151MA1999999099921MD1410001+0001MW1021REMSYN023333   20215 58000 60014
0110826780999991985020618004-06767-043017FM-12+011099999V0201401N00211007501CN0200001N9+02551+02171101241ADDAA106000091AG10999AY101061GF108991061071008001021999MA1999999099651MD1999999+0101MW1021REMSYN011333   58010
0129826780999991985020700004-06767-043017FM-12+011099999V0200501N00101045001CN9999999N9+02411+02351101311ADDAA106000091AG10999AY101061GF108991021011008001021999KA1240M+03031MA1999999099721MD1999999-0031MW1021REMSYN017333   10303 59003
0121826780999991985020712004-06767-043017FM-12+011099999V0200501N00261045001CN0200001N9+02511+02231101531ADDAA124019091AG10999GF108991021051008001031999KA1240N+02341MA1999999099931MD1999999+0021REMSYN023333   20234 58002 60194
0110826780999991985020718004-06767-043017FM-12+011099999V0200501N00051045001CN0200001N9+02881+02181101241ADDAA106000091AG10999AY101061GF107991041051008001061011MA1999999099651MD1410001+0001MW1021REMSYN011333   58000
0148826780999991985020800004-06767-043017FM-12+011099999V0200501N000519999999N9999999N9+02301+02281101601ADDAA106000091AG10999AY101061GF108991031051999999999999KA1240M+03031MA1999999099771MD1999999+0051MW1021REMSYN017333   10303 58005EQDQ01+000992SCOLCB
0135826780999991985020812004-06767-043017FM-12+011099999V0200501N00211007501CN0200001N9+02381+02221101451ADDAA124016091AG10999AY161061GF108991081051008001999999KA1240N+02171MA1999999099851MD1999999-0091MW1021REMSYN023333   20217 59009 60164
0110826780999991985020818004-06767-043017FM-12+011099999V0202301N00101045001CN0200001N9+03061+02261101011ADDAA106000091AG10999AY101061GF106991041021008001031011MA1999999099461MD1999999-0191MW1021REMSYN011333   59019
0148826780999991985020900004-06767-043017FM-12+011099999V0200901N00151220001CN9999999N9+02361+02281101231ADDAA106000091AG10999AY101061GF104991041051999999999999KA1240M+03181MA1999999099611MD1999999-0161MW1021REMSYN017333   10318 59016EQDQ01+000992SCOLCB
0135826780999991985020912004-06767-043017FM-12+011099999V0200501N00101007501CN0200001N9+02461+02321101341ADDAA124004091AG10999AY161061GF108991081051008001999999KA1240N+02181MA1999999099741MD1999999-0111MW1021REMSYN023333   20218 59011 60044
0110826780999991985020918004-06767-043017FM-12+011099999V0200901N00151220001CN0200001N9+03141+02211100861ADDAA106000091AG10999AY101061GF105991041021008001001011MA1999999099291MD1999999-0171MW1021REMSYN011333   59017
0129826780999991985021000004-06767-043017FM-12+011099999V0209991C00001220001CN9999999N9+02541+02321101281ADDAA106000091AG10999AY101061GF100991001001999999001001KA1240M+03361MA1999999099491MD1999999-0121MW1021REMSYN017333   10336 59012
0129826780999991985021012004-06767-043017FM-12+011099999V0200501N00101045001CN0200001N9+02621+02251101411ADDAA106000091AG10999AY101061GF108991021011008001031011KA1240N+02211MA1999999099821MD1999999+0091MW1021REMSYN017333   20221 58009
0110826780999991985021018004-06767-043017FM-12+011099999V0201801N00151045001CN0200001N9+02961+02181101011ADDAA106000091AG10999AY101061GF107991031011008001011021MA1999999099441MD1999999+0151MW1021REMSYN011333   58015
0129826780999991985021100004-06767-043017FM-12+011099999V0209991C00001220001CN9999999N9+02441+02271101161ADDAA106000091AG10999AY101061GF100991001001999999001001KA1240M+03031MA1999999099571MD1999999+0091MW1021REMSYN017333   10303 58009
0129826780999991985021112004-06767-043017FM-12+011099999V0203601N00101007501CN0200001N9+02531+02291101411ADDAA106000091AG10999AY101061GF108991051051008001021999KA1240N+02241MA1999999099821MD1999999-0011MW1021REMSYN017333   20224 59001
0110826780999991985021118004-06767-043017FM-12+011099999V0202701N00101045001CN0200001N9+03081+02441100911ADDAA106000091AG10999AY101061GF106991031021008001061011MA1999999099371MD1999999-0071MW1021REMSYN011333   59007
0146826780999991985021200004-06767-043017FM-12+011099999V0200501N00151012001CN9999999N9+02301+02161101601ADDAA106000291AA299000391AG10999AY161061GF108991081071012501999999KA1240M+03141MA1999999099751MD1999999+0181MW1021REMSYN023333   10314 58018 69921
0146826780999991985021212004-06767-043017FM-12+011099999V0200901N00151007501CN0200001N9+02401+02171101501ADDAA124000291AA299000391AG10999AY101061GF108991081051008001999999KA1240N+02161MA1999999099901MD1999999+0081MW1021REMSYN023333   20216 58008 69924
0110826780999991985021218004-06767-043017FM-12+011099999V0203601N00051007501CN0200001N9+02971+02181101051ADDAA106000091AG10999AY101061GF107991051021008001061001MA1999999099471MD1999999+0101MW1021REMSYN011333   58010
0129826780999991985021300004-06767-043017FM-12+011099999V0200501N00051007501CN9999999N9+02431+02331101321ADDAA106000091AG10999AY101061GF106991051051008001001011KA1240M+03041MA1999999099721MD1999999-0031MW1021REMSYN017333   10304 59003
0135826780999991985021312004-06767-043017FM-12+011099999V0203201N00151007501CN0200001N9+02481+02271101471ADDAA124002091AG10999AY121061GF108991081051008001999999KA1240N+02261MA1999999099871MD1999999-0031MW1021REMSYN023333   20226 59003 60024
0127826780999991985021318004-06767-043017FM-12+011099999V0203601N00051007501CN0200001N9+02461+02251101131ADDAA106000291AA299000391AG10999AY121061GF108991051051008001071999MA1999999099541MD1999999+0071MW1021REMSYN017333   58007 69921
0129826780999991985021400004-06767-043017FM-12+011099999V0209991C00001045001CN9999999N9+02321+02241101281ADDAA106000091AG10999AY101061GF105991041041008001011001KA1240M+02601MA1999999099681MD1999999-0041MW1021REMSYN017333   10260 59004
0146826780999991985021412004-06767-043017FM-12+011099999V0203201N00051007501CN0200001N9+02541+02271101391ADDAA124000791AA299001091AG10001AY101061GF108991081051008001999999KA1240N+02501MA1999999099801MD1999999-0071MW1021REMSYN023333   20250 59007 69974
0110826780999991985021418004-06767-043017FM-12+011099999V0203601N00101012001CN0200001N9+99999+99999100981ADDAA106000091AG10999AY101061GF107991051081008001021071MA1999999099401MD1999999-0141MW1021REMSYN011333   59014
0129826780999991985021500004-06767-043017FM-12+011099999V0200501N00051007501CN9999999N9+02571+02361101161ADDAA106000091AG10999AY101061GF108991061041008001011999KA1240M+02941MA1999999099581MD1999999-0101MW1021REMSYN017333   10294 59010
0135826780999991985021512004-06767-043017FM-12+011099999V0200501N00211045001CN0200001N9+02461+02211100371ADDAA106028091AG10999AY161061GF108991041051008001021999KA1240N+02341MA1999999099781MD1999999-0021MW1021REMSYN023333   20234 59002 60281
0110826780999991985021518004-06767-043017FM-12+011099999V0200901N00151045001CN0200001N9+03001+02371100861ADDAA106000091AG10999AY101061GF108991041021008001031011MA1999999099311MD1999999-0091MW1021REMSYN011333   59009
0135826780999991985021612004-06767-043017FM-12+011099999V0203201N00101007501CN0200001N9+02221+02171101361ADDAA124066091AG10999AY161061GF108991081071008001999999KA1240N+02181MA1999999099751MD1999999-0031MW1211REMSYN023333   20218 59003 60664
0110826780999991985021618004-06767-043017FM-12+011099999V0202301N00051045001CN0200001N9+02971+02261101031ADDAA106000091AG10999AY101061GF107991031021008001031021MA1999999099451MD1999999+0141MW1021REMSYN011333   58014
0115826780999991985021700004-06767-043017FM-12+011099999V0200901N00051045001CN9999999N9+02441+02301101241ADDAA106000091AG10999AY101061GF106991031021008001031011KA1240M+03021MA1999999099651MW1021REMSYN017333   10302 58///
0135826780999991985021712004-06767-043017FM-12+011099999V0200501N00101007501CN0100001N9+02141+02091101571ADDAA124042091AG10999AY121061GF108991071071008001021999KA1240N+02121MA1999999099961MD1999999+0211MW1611REMSYN023333   20212 58021 60424
0110826780999991985021718004-06767-043017FM-12+011099999V0200501N00101045001CN0200001N9+02501+02191101141ADDAA106000091AG10999AY101061GF108991041071008001071011MA1999999099541MD1999999+0091MW1021REMSYN011333   58009
0129826780999991985021800004-06767-043017FM-12+011099999V0200501N00101045001CN9999999N9+99999+99999101311ADDAA106000091AG10999AY101061GF106991041041008001011001KA1240M+02671MA1999999099701MD1999999+0051MW1021REMSYN017333   10267 58005
0135826780999991985021812004-06767-043017FM-12+011099999V0200901N00211007501CN0200001N9+02401+02111101431ADDAA124028091AG10999AY161061GF108991081051008001999999KA1240N+02181MA1999999099831MD1999999-0131MW1021REMSYN023333   20218 59013 60284
0110826780999991985021818004-06767-043017FM-12+011099999V0201401N00151045001CN0200001N9+02961+02211101011ADDAA106000091AG10999AY101061GF107991041021008001031021MA1999999099431MD1999999-0111MW1021REMSYN011333   59011
0129826780999991985021900004-06767-043017FM-12+011099999V0200901N00051220001CN9999999N9+02911+02321101181ADDAA106000091AG10999AY101061GF100991001001999999001001KA1240M+03031MA1999999099591MD1999999-0111MW1021REMSYN017333   10303 59011
0165826780999991985021912004-06767-043017FM-12+011099999V0201401N04162012001CN0200001N9+02531+02341101381ADDAA124000791AA299001091AG10999AY161061GF107991051081008001031011KA1240N+02251MA1999999099791MD1999999-0041MW1031REMSYN023333   20225 59004 69974EQDQ01+004163WOSPD 
0110826780999991985021918004-06767-043017FM-12+011099999V0201401N00051045001CN0200001N9+02821+02241100921ADDAA106000091AG10999AY101061GF107991031081008001031021MA1999999099531MD1999999+0041MW1021REMSYN011333   58004
0129826780999991985022000004-06767-043017FM-12+011099999V0200501N00101007501CN9999999N9+02551+02341101191ADDAA106000091AG10999AY101061GF108991051051008001999999KA1240M+03051MA1999999099601MD1999999-0101MW1021REMSYN017333   10305 59010
0135826780999991985022012004-06767-043017FM-12+011099999V0201401N00051007501CN0200001N9+02391+02291101351ADDAA124016091AG10999AY161061GF108991051071008001021999KA1240N+02271MA1999999099751MD1999999-0041MW1601REMSYN023333   20227 59004 60164
0110826780999991985022018004-06767-043017FM-12+011099999V0201401N00051007501CN0200001N9+02721+02341100931ADDAA106000091AG10999AY151061GF108991051051008001021999MA1999999099351MD1410001+0001MW1031REMSYN011333   58000
0129826780999991985022100004-06767-043017FM-12+011099999V0200501N00051045001CN9999999N9+02501+02401101091ADDAA106000091AG10999AY101061GF106991011021008001031021KA1240M+02901MA1999999099501MD1999999-0101MW1021REMSYN017333   10290 59010
0135826780999991985022112004-06767-043017FM-12+011099999V0200501N00051007501CN0100001N9+02481+02341101331ADDAA106001091AG10999AY161061GF108991061051008001001999KA1240N+02331MA1999999099741MD1999999-0011MW1021REMSYN023333   20233 59001 60011
0110826780999991985022118004-06767-043017FM-12+011099999V0200801N00151045001CN0200001N9+02961+02331100821ADDAA106000091AG10999AY101061GF108991041031008001011031MA1999999099251MD1999999-0101MW1021REMSYN011333   59010
0129826780999991985022200004-06767-043017FM-12+011099999V0200901N00151007501CN9999999N9+02541+02451101051ADDAA106000091AG10999AY101061GF105991051051008001001001KA1240M+03081MA1999999099461MD1999999-0041MW1021REMSYN017333   10308 59004
0135826780999991985022212004-06767-043017FM-12+011099999V0200501N00151007501CN0200001N9+02551+02291101241ADDAA124002091AG10999AY161061GF108991081051008001999999KA1240N+02441MA1999999099651MD1999999-0091MW1021REMSYN023333   20244 59009 60024
0110826780999991985022218004-06767-043017FM-12+011099999V0200501N00211012001CN0200001N9+02781+02361100761ADDAA106000091AG10999AY101061GF108991061081008001011999MA1999999099191MD1999999-0061MW1021REMSYN011333   59006
0129826780999991985022300004-06767-043017FM-12+011099999V0202301N00101220001CN9999999N9+02491+02361100961ADDAA106000091AG10999AY101061GF105991041041008001001011KA1240M+02941MA1999999099391MD1999999-0071MW1021REMSYN017333   10294 59007
0135826780999991985022312004-06767-043017FM-12+011099999V0200501N00051045001CN0200001N9+02541+02251101031ADDAA124001091AG10999AY161061GF106991031011008001031011KA1240N+02221MA1999999099451MD1999999-0201MW1071REMSYN023333   20222 59020 60014
0129826780999991985022400004-06767-043017FM-12+011099999V0209991C00001045001CN9999999N9+02671+02301100941ADDAA106000091AG10999AY101061GF108991041051017501031999KA1240M+03101MA1999999099361MD1999999-0031MW1021REMSYN017333   10310 59003
0118826780999991985022412004-06767-043017FM-12+011099999V0202701N00051007501CN0200001N9+02451+02191101251ADDAG10999AY161061GF108991061051008001001021KA1240N+02251MA1999999099661MD1999999+0211MW1031REMSYN017333   20225 58021
0110826780999991985022418004-06767-043017FM-12+011099999V0200501N00101105001CN0200001N9+02951+02261100771ADDAA106000091AG10999AY101061GF108991041031008001001021MA1999999099211MD1999999+0141MW1021REMSYN011333   58014
0135826780999991985022512004-06767-043017FM-12+011099999V0200501N00151045001CN0200001N9+02501+02211101401ADDAA124016091AG10999AY121061GF108991011011008001031011KA1240N+02181MA1999999099811MD1999999+0151MW1021REMSYN023333   20218 58015 60164
0110826780999991985022518004-06767-043017FM-12+011099999V0200501N00101220001CN0200001N9+03121+02111100951ADDAA106000091AG10999AY101061GF102991011011008001001011MA1999999099351MD1999999+0141MW1021REMSYN011333   58014
0146826780999991985022600004-06767-043017FM-12+011099999V0203201N00051007501CN9999999N9+02501+02341101201ADDAA106000891AA299001091AG10001AY161061GF107991061051008001061001KA1240M+03231MA1999999099611MD1999999+0341MW1031REMSYN023333   10323 58034 69981
0146826780999991985022609004-06767-043017FM-12+011099999V0201101N00051220001CN0040001N9+99999+99999999999ADDAG10999AY111031GF105991001001999999001011MA1999999101511MD1210051+9999MW1101EQDQ01+999990APOSP Q02 -01043ATOT  Q03 -01323ATOD  Q04 103353APOSLP
0213826780999991985022612004-06767-043017FM-12+011099999V0203301N00101004201CN0200001N9+02522+02312101392ADDAA124000891AA299001091AG10999AY101061GF108991081071004501999999KA1240N+02361MA1999999099802MD1999999-0011MW1021REMSYN023333   20236 59001 69984EQDQ01+029843ATOT  Q02+029633ATOD  Q03+099803APOSP Q04+101393APOSLP
0110826780999991985022618004-06767-043017FM-12+011099999V0203601N00101045001CN0200001N9+99999+99999101061ADDAA106000091AG10999AY101061GF108991021011008001011021MA1999999099491MD1999999+0141MW1021REMSYN011333   58014
0129826780999991985022700004-06767-043017FM-12+011099999V0200901N00051220001CN9999999N9+02551+02421101121ADDAA106000091AG10999AY101061GF106991001001999999001011KA1240M+03141MA1999999099541MD1999999-0071MW1021REMSYN017333   10314 59007
0148826780999991985022712004-06767-043017FM-12+011099999V0203601N00051045001CN0200001N9+02761+02381101221ADDAA106000091AG10999AY101061GF106991021011008001031011KA1240N+99999MA1999999099651MD1999999-0151MW1021REMSYN017333   20321 59015EQDQ01 +03212ATMN  
0110826780999991985022718004-06767-043017FM-12+011099999V0200501N00151045001CN0200001N9+02721+02351100951ADDAA106000091AG10999AY101061GF108991041021008001031999MA1999999099321MD1999999-0111MW1021REMSYN011333   59011
0129826780999991985022800004-06767-043017FM-12+011099999V0209991C00001220001CN9999999N9+02541+02351101061ADDAA106000091AG10999AY101061GF104991041051017501999999KA1240M+02941MA1999999099481MD1999999-0061MW1021REMSYN017333   10294 59006
0135826780999991985022812004-06767-043017FM-12+011099999V0203601N00151007501CN0200001N9+02641+02371101441ADDAA130002091AG10999AY101061GF108991071051008001021999KA1240N+02361MA1999999099851MD1999999+0201MW1021REMSYN023333   20236 58020 60025
0110826780999991985022818004-06767-043017FM-12+011099999V0202301N00211045001CN0200001N9+02911+02431101011ADDAA106000091AG10999AY191061GF107991011021008001031021MA1999999099441MD1999999+0061MW1031REMSYN011333   58006
0129826780999991985030100004-06767-043017FM-12+011099999V0209991C00001105001CN9999999N9+02561+02421101181ADDAA106000091AG10999AY101061GF108991011001017501031021KA1240M+02991MA1999999099601MD1999999+0121MW1021REMSYN017333   10299 58012
0129826780999991985030112004-06767-043017FM-12+011099999V0201401N00671220001CN0200001N9+02721+02281101371ADDAA106000091AG10999AY101061GF103991031011008001001001KA1240N+02211MA1999999099791MD1999999-0061MW1021REMSYN017333   20221 59006
0110826780999991985030118004-06767-043017FM-12+011099999V0201401N00311220001CN0200001N9+03161+02341100921ADDAA106000091AG10999AY101061GF102991011011008001001011MA1999999099351MD1999999-0061MW1021REMSYN011333   59006
0129826780999991985030200004-06767-043017FM-12+011099999V0200901N00051045001CN9999999N9+02581+02271101131ADDAA106000091AG10999AY101061GF108991031041008001061011KA1240M+03321MA1999999099551MD1999999-0051MW1021REMSYN017333   10332 59005
0104826780999991985030212004-06767-043017FM-12+011099999V0200501N00151007501CN0200001N9+02551+02291101271ADDAG10999GF108991061051008001001011KA1240N+02321MA1999999099681MD1999999-0111REMSYN017333   20232 59011
0110826780999991985030218004-06767-043017FM-12+011099999V0200501N00101045001CN0200001N9+02991+02591100841ADDAA106000091AG10999AY101061GF106991031031008001021021MA1999999099271MD1999999-0081MW1021REMSYN011333   59008
0129826780999991985030300004-06767-043017FM-12+011099999V0202301N00151015001CN9999999N9+02521+02251101111ADDAA106000091AG10999AY101061GF108991061001017501011011KA1240M+03151MA1999999099531MD1999999-0021MW1021REMSYN017333   10315 59002
0135826780999991985030312004-06767-043017FM-12+011099999V0201801N00101007501CN0200001N9+02441+02281101401ADDAA124003091AG10999AY161061GF108991071051008001011999KA1240N+02221MA1999999099811MD1999999+0131MW1031REMSYN023333   20222 58013 60034
0110826780999991985030318004-06767-043017FM-12+011099999V0203201N00151045001CN0200001N9+03051+02311100751ADDAA106000091AG10999AY101061GF106991021041008001031021MA1999999099181MD1999999-0091MW1021REMSYN011333   59009
0135826780999991985030400004-06767-043017FM-12+011099999V0200901N00151012001CN9999999N9+02461+02411101091ADDAA106000591AG10999AY161061GF108991081051012501999999KA1240M+03121MA1999999099501MD1999999-0031MW1031REMSYN023333   10312 59003 69951
0135826780999991985030412004-06767-043017FM-12+011099999V0200901N00211105001CN0200001N9+02591+02291101171ADDAA124025091AG10999AY101061GF105991011011008001031011KA1240N+02381MA1999999099591MD1999999-0221MW1621REMSYN023333   20238 59022 60254
0131826780999991985030418004-06767-043017FM-12+011099999V0201401N00151007501CN0200001N9+03091+02191100701ADDAA106000091AG10999GF106991051041008001001021MA1999999099151MD1999999-0051REMSYN011333   59005EQDQ01+102913APOSP Q02+999990APOSP 
0129826780999991985030500004-06767-043017FM-12+011099999V0209991C00001045001CN9999999N9+02591+02491100961ADDAA106000091AG10999AY101061GF108991021051008001031999KA1240M+03171MA1999999099641MD1999999-0121MW1021REMSYN017333   10317 59012
0135826780999991985030512004-06767-043017FM-12+011099999V0200901N00361045001CN0200001N9+02781+02231101071ADDAA124002091AG10999AY101061GF105991031011008001041001KA1240N+02281MA1999999099511MD1999999-0081MW1021REMSYN023333   20228 59008 60024
0110826780999991985030518004-06767-043017FM-12+011099999V0200901N00361007501CN0200001N9+03161+02291100591ADDAA106000091AG10999AY101061GF106991051021008001031001MA1999999099031MD1999999-0101MW1021REMSYN011333   59010
0129826780999991985030600004-06767-043017FM-12+011099999V0209991C00001045001CN0200001N9+02621+02341100851ADDAA106000091AG10999AY101061GF108991031021008001031999KA1240M+03211MA1999999099271MD1999999-0111MW1021REMSYN017333   10321 59011
0146826780999991985030612004-06767-043017FM-12+011099999V0200901N00151045001CN0200001N9+02761+02281101041ADDAA124000491AA299000591AG10999AY101061GF107991021011008001031011KA1240N+02341MA1999999099471MD1999999-0041MW1021REMSYN023333   20234 59004 69944
0116826780999991985030618004-06767-043017FM-12+011099999V0200901N00211045001CN0200001N9+02651+02421100611ADDAA106002091AG10999AY191061GF107991031081008001021011MA1999999099041MD1999999+0011MW1031REMSYN017333   58001 60021
0129826780999991985030700004-06767-043017FM-12+011099999V0200501N00151007501CN9999999N9+02571+02351100831ADDAA106000091AG10999AY121061GF108991081051008001999999KA1240M+03241MA1999999099261MD1999999-0011MW1131REMSYN017333   10324 59001
0135826780999991985030712004-06767-043017FM-12+011099999V0200901N00211007501CN0200001N9+02701+02281101111ADDAA124006091AG10001AY161061GF107991061021008001001011KA1240N+02311MA1999999099531MD1999999+0061MW1021REMSYN023333   20231 58006 60064
0110826780999991985030718004-06767-043017FM-12+011099999V0200901N00311007501CN0200001N9+03081+02321100711ADDAA106000091AG10999AY101061GF108991051031008001061011MA1999999099151MD1999999+0111MW1021REMSYN011333   58011
0129826780999991985030800004-06767-043017FM-12+011099999V0209991C00001105001CN9999999N9+02621+02481100871ADDAA106000091AG10999AY101061GF107991021001017501031061KA1240M+03181MA1999999099301MD1999999+0041MW1021REMSYN017333   10318 58004
0165826780999991985030812004-06767-043017FM-12+011099999V0201401N00151045001CN0200001N9+02661+02411101061ADDAA124000791AA299001091AG10999AY121061GF108991031011008001031011KA1240M+99999MA1999999099481MD1999999-0051MW1031REMSYN023333   10234 59005 69974EQDQ01 +02342ATMX  
0110826780999991985030818004-06767-043017FM-12+011099999V0200501N002619999999N0200001N9+03101+02491100611ADDAA106000091AG10999AY101061GF106991041031008001001999MA1999999099071MD1999999-0081MW1021REMSYN011333   59008
0129826780999991985030900004-06767-043017FM-12+011099999V0200901N00151220001CN9999999N9+02621+02461100791ADDAA106000091AG10999AY101061GF100991001001999999001001KA1240M+03281MA1999999099221MD1999999-0081MW1021REMSYN017333   10328 59008
0129826780999991985030912004-06767-043017FM-12+011099999V0200501N00211045001CN0200001N9+02851+02351101081ADDAA106000091AG10999AY101061GF106991011011008001031011KA1240N+02361MA1999999099511MD1999999+0031MW1021REMSYN017333   20236 58003
0116826780999991985030918004-06767-043017FM-12+011099999V0209991C00001045001CN0200001N9+02631+02251100761ADDAA106001091AG10999AY101061GF108991041051008001031011MA1999999099181MD1999999+0111MW1611REMSYN017333   58011 60011
0129826780999991985031000004-06767-043017FM-12+011099999V0200901N00051220001CN9999999N9+02611+02401100831ADDAA106000091AG10999AY101061GF105991001001999999001081KA1240M+03251MA1999999099361MD1999999+0041MW1021REMSYN017333   10325 58004
0135826780999991985031012004-06767-043017FM-12+011099999V0200501N00151007501CN0200001N9+02611+02301101291ADDAA124001091AG10999AY101061GF108991061051008001031999KA1240N+02381MA1999999099711MD1999999+0201MW1021REMSYN023333   20238 58020 60014
0110826780999991985031018004-06767-043017FM-12+011099999V0203601N00151045001CN0200001N9+03121+02331100811ADDAA106000091AG10999AY101061GF106991021021008001031011MA1999999099251MD1999999+0071MW1021REMSYN011333   58007
0129826780999991985031100004-06767-043017FM-12+011099999V0200501N00101220001CN9999999N9+02661+02481100981ADDAA106000091AG10999AY101061GF106991031001017501011011KA1240M+03221MA1999999099411MD1999999+0151MW1021REMSYN017333   10322 58015
0129826780999991985031112004-06767-043017FM-12+011099999V0203601N00151007501CN0200001N9+02701+02301101241ADDAA106000091AG10999AY101061GF108991071051008001011999KA1240N+02421MA1999999099661MD1999999-0051MW1021REMSYN017333   20242 59005
0110826780999991985031118004-06767-043017FM-12+011099999V0200501N00151220001CN0200001N9+03241+02251100781ADDAA106000091AG10999AY101061GF103991021021008001061011MA1999999099221MD1999999-0031MW1021REMSYN011333   59003
0129826780999991985031200004-06767-043017FM-12+011099999V0209991C00001220001CN9999999N9+02701+02481100971ADDAA106000091AG10999AY101061GF100991001001999999001001KA1240M+03341MA1999999099401MD1999999-0011MW1021REMSYN017333   10334 59001
0129826780999991985031212004-06767-043017FM-12+011099999V0203601N00211220001CN0200001N9+02741+02301101181ADDAA106000091AG10999AY101061GF106991021011008001001011KA1240N+02321MA1999999099611MD1999999-0051MW1021REMSYN017333   20232 59005
0110826780999991985031218004-06767-043017FM-12+011099999V0203601N00051220001CN0200001N9+03251+02301100961ADDAA106000091AG10999AY101061GF105991041021008001001011MA1999999099131MD1999999-0091MW1021REMSYN011333   59009
0129826780999991985031300004-06767-043017FM-12+011099999V0200901N00051220001CN9999999N9+02531+02401100901ADDAA106000091AG10999AY101061GF100991001001999999001001KA1240M+03401MA1999999099331MD1999999-0071MW1021REMSYN017333   10340 59007
0135826780999991985031312004-06767-043017FM-12+011099999V0209991C00001007501CN0200001N9+02541+02331101161ADDAA124021091AG10999AY161061GF108991081051008001999999KA1240N+02321MA1999999099581MD1999999-0031MW1021REMSYN023333   20232 59003 60214
0129826780999991985031318004-06767-043017FM-12+011099999V0203601N00101045001CN0200001N9+03241+02031100282ADDAA106000091AG10999AY101061GF106991041011008001031011MA1999999099151MD1999999+0021MW1021REMSYN011333   58002EQDQ01+100283APOSLP
0129826780999991985031400004-06767-043017FM-12+011099999V0200901N00151220001CN9999999N9+02361+02131101061ADDAA106000091AG10999AY101061GF100991001001999999001001KA1240M+03301MA1999999099461MD1999999+0131MW1021REMSYN017333   10330 58013
0146826780999991985031412004-06767-043017FM-12+011099999V0209991C00001045001CN0200001N9+02731+02241101261ADDAA124000291AA299000391AG10999AY161061GF107991011011008001031001KA1240N+02311MA1999999099931MD1999999+0091MW1001REMSYN023333   20231 58009 69924
0110826780999991985031418004-06767-043017FM-12+011099999V0202301N00101045001CN0200001N9+03211+02271100711ADDAA106000091AG10999AY101061GF108991021011008001031021MA1999999099161MD1999999+0011MW1021REMSYN011333   58001
0129826780999991985031500004-06767-043017FM-12+011099999V0200501N00151220001CN9999999N9+02541+02351101011ADDAA106000091AG10999AY101061GF104991041051008001999999KA1240M+03281MA1999999099431MD1999999-0031MW1021REMSYN017333   10328 59003
0135826780999991985031512004-06767-043017FM-12+011099999V0200501N00151045001CN0200001N9+02521+02271101311ADDAA124009091AG10999AY161061GF108991031021008001031011KA1240N+02301MA1999999099721MD1999999+0051MW1021REMSYN023333   20230 58005 60094
0110826780999991985031518004-06767-043017FM-12+011099999V0200501N00151007501CN0200001N9+03131+02411100851ADDAA106000091AG10999AY101061GF108991051021008001001011MA1999999099281MD1999999+0121MW1021REMSYN011333   58012
0129826780999991985031600004-06767-043017FM-12+011099999V0200901N00051220001CN9999999N9+02601+02501101091ADDAA106000091AG10999AY101061GF103991031001017501011001KA1240M+03161MA1999999099511MD1999999+0081MW1021REMSYN017333   10316 58008
0135826780999991985031612004-06767-043017FM-12+011099999V0201401N00261007501CN0200001N9+02601+02351101331ADDAA124014091AG10999AY161061GF108991081051008001999999KA1240N+02351MA1999999099751MD1999999+0031MW1021REMSYN023333   20235 58003 60144
0076826780999991985031618004-06767-043017FM-12+011099999V0201801N00211220001CN0200001N9+03041+02301100931ADDAA106000091AG10999AY101061GF104991041021008001001011MA1999999099351MW1021
0129826780999991985031700004-06767-043017FM-12+011099999V0200901N00101220001CN9999999N9+02561+02441101141ADDAA106000091AG10999AY101061GF103991031011008001001001KA1240M+03291MA1999999099561MD1999999+0051MW1021REMSYN017333   10329 58005
0135826780999991985031712004-06767-043017FM-12+011099999V0200501N00101045001CN0200001N9+02601+02271101351ADDAA124013091AG10999AY161061GF105991031011008001061001KA1240N+02231MA1999999099791MD1999999+0021MW1021REMSYN023333   20223 58002 60134
0110826780999991985031718004-06767-043017FM-12+011099999V0202701N00101220001CN0200001N9+03211+02341100811ADDAA106000091AG10999AY101061GF102991021011008001001001MA1999999099251MD1999999-0201MW1021REMSYN011333   59020
0135826780999991985031800004-06767-043017FM-12+011099999V0201401N00101007501CN9999999N9+02451+02361101101ADDAA106020091AG10999AY161061GF107991051051008001061001KA1240M+03341MA1999999099511MD1999999-0051MW1211REMSYN023333   10334 59005 60201
0118826780999991985031812004-06767-043017FM-12+011099999V0203601N00151045001CN0200001N9+02661+02311101311ADDAG10999AY161061GF106991041011008001031011KA1240N+02391MA1999999099731MD1999999-0041MW1021REMSYN017333   20239 59004
0110826780999991985031818004-06767-043017FM-12+011099999V0200501N00461045001CN0200001N9+99999+99999100891ADDAA106000091AG10999AY101061GF108991041021008001031011MA1999999099351MD1999999+0101MW1021REMSYN011333   58010
0135826780999991985031912004-06767-043017FM-12+011099999V0203201N00151012001CN0200001N9+02491+02291101361ADDAA124013091AG10999AY161061GF108991051061012501021999KA1240N+02141MA1999999099771MD1999999+0041MW1001REMSYN023333   20214 58004 60134
0102826780999991985031918004-06767-043017FM-12+011099999V0209991C00001007501CN0200001N9+02831+02401100901ADDAA106004091AG10999GF108991051051008001021999MA1999999099321MD1999999-0031REMSYN017333   59003 60041
0135826780999991985032000004-06767-043017FM-12+011099999V0201401N00101007501CN9999999N9+02441+02321101151ADDAA106010091AG10999AY161061GF105991051051008001001001KA1240M+03121MA1999999099591MD1999999+0091MW1001REMSYN023333   10312 58009 60101
0135826780999991985032012004-06767-043017FM-12+011099999V0200501N00101007501CN0200001N9+02441+02231101201ADDAA124039091AG10999AY161061GF108991051051008001011011KA1240N+02191MA1999999099611MD1999999-0161MW1021REMSYN023333   20219 59016 60394
0110826780999991985032018004-06767-043017FM-12+011099999V0201401N00101045001CN0200001N9+03141+02301100811ADDAA106000091AG10999AY101061GF107991021021008001031021MA1999999099241MD1999999-0081MW1021REMSYN011333   59008
0129826780999991985032100004-06767-043017FM-12+011099999V0209991C00001220001CN9999999N9+02621+02371101061ADDAA106000091AG10999AY101061GF100991001001999999001001KA1240M+03161MA1999999099481MD1999999-0111MW1021REMSYN017333   10316 59011
0135826780999991985032112004-06767-043017FM-12+011099999V0201401N00211012001CN0200001N9+02581+02271101271ADDAA124000191AG10999AY121061GF108991061081008001031999KA1240N+02321MA1999999099691MD1999999+0081MW1031REMSYN023333   20232 58008 69914
0110826780999991985032118004-06767-043017FM-12+011099999V0200901N00261007501CN0200001N9+03131+02331100741ADDAA106000091AG10999AY101061GF106991051021008001001011MA1999999099181MD1999999-0061MW1021REMSYN011333   59006
0129826780999991985032200004-06767-043017FM-12+011099999V0201401N00151007501CN9999999N9+02631+02271100981ADDAA106000091AG10999AY121061GF108991081051008001999999KA1240M+03191MA1999999099401MD1999999-0081MW1131REMSYN017333   10319 59008
0129826780999991985032212004-06767-043017FM-12+011099999V0203601N00151045001CN0200001N9+02651+02351101281ADDAA106000091AG10999AY101061GF108991041051008001021001KA1240N+02271MA1999999099701MD1999999+0011MW1021REMSYN017333   20227 58001
0116826780999991985032218004-06767-043017FM-12+011099999V0200501N00051045001CN0200001N9+03561+02291100961ADDAA106013091AG10999AY161061GF108991031071008001021999MA1999999099371MD1999999+0191MW1021REMSYN017333   58019 60131
0129826780999991985032300004-06767-043017FM-12+011099999V0202701N00051045001CN9999999N9+02401+02331101191ADDAA106000091AG10999AY101061GF105991031041008001011001KA1240M+02901MA1999999099601MD1999999+0201MW1021REMSYN017333   10290 58020
0135826780999991985032312004-06767-043017FM-12+011099999V0209991C00001007501CN0100001N9+99999+99999101521ADDAA199053091AG10001AY161061GF108991081051008001999999KA1240N+02021MA1999999099911MD1999999+0211MW1021REMSYN023333   20202 58021 60530
0110826780999991985032318004-06767-043017FM-12+011099999V0202701N00101007501CN0200001N9+02801+02441100981ADDAA106000091AG10999AY101061GF108991051011008001031011MA1999999099411MD1999999+0041MW1021REMSYN011333   58004
0135826780999991985032400004-06767-043017FM-12+011099999V0203601N00151007501CN9999999N9+02281+02201101501ADDAA106017091AG10999AY161061GF108991081051008001999999KA1240M+02841MA1999999099891MD1999999+0791MW1021REMSYN023333   10284 58079 60171
0135826780999991985032412004-06767-043017FM-12+011099999V0202301N00051007501CN0200001N9+02271+02141101581ADDAA124064091AG10999AY161061GF108991051071008001021999KA1240N+02171MA1999999099971MD1999999+0061MW1611REMSYN023333   20217 58006 60644
0110826780999991985032418004-06767-043017FM-12+011099999V0202301N00051045001CN0200001N9+02621+02161101141ADDAA106000091AG10999AY101061GF108991041061008001031999MA1999999099551MD1999999+0141MW1021REMSYN011333   58014
0145826780999991985032500004-06767-043017FM-12+011099999V0200901N001019999999N9999999N9+02491+02381101271ADDAA106000091AG10999AY101061GA1091+999999999GF109991021011008001031001KA1240M+02781MA1999999099641MD1999999-0121MW1021REMSYN017333   10278 59012
0135826780999991985032512004-06767-043017FM-12+011099999V0201401N00151007501CN0200001N9+02261+02181101441ADDAA124008091AG10999AY161061GF108991051071008001021999KA1240N+02191MA1999999099851MD1999999-0121MW1601REMSYN023333   20219 59012 60084
0110826780999991985032518004-06767-043017FM-12+011099999V0201401N00151045001CN0200001N9+03061+02271101061ADDAA106000091AG10999AY101061GF106991041021008001031021MA1999999099431MD1999999-0121MW1021REMSYN011333   59012
0129826780999991985032600004-06767-043017FM-12+011099999V0209991C00001220001CN9999999N9+02571+02401101171ADDAA106000091AG10999AY101061GF100991001001999999001001KA1240M+03131MA1999999099581MD1999999-0091MW1021REMSYN017333   10313 59009
0129826780999991985032612004-06767-043017FM-12+011099999V0203601N00151007501CN0200001N9+02621+02311101421ADDAA106000091AG10999AY101061GF108991081051008001999999KA1240N+02301MA1999999099841MD1999999-0011MW1021REMSYN017333   20230 59001
0110826780999991985032618004-06767-043017FM-12+011099999V0200501N00051105001CN0200001N9+03191+02251100971ADDAA106000091AG10999AY101061GF106991041021008001001021MA1999999099401MD1999999-0031MW1021REMSYN011333   59003
0129826780999991985032700004-06767-043017FM-12+011099999V0203201N00051045001CN9999999N9+02581+02441101301ADDAA106000091AG10999AY121061GF106991031051008001011011KA1240M+02581MA1999999099721MD1999999+0141MW1131REMSYN017333   10258 58014
0135826780999991985032712004-06767-043017FM-12+011099999V0200501N00211007501CN0200001N9+02521+02341101501ADDAA124000191AG10999AY161061GF108991071051008001021999KA1240N+02431MA1999999099911MD1999999+0071MW1021REMSYN023333   20243 58007 69914
0129826780999991985032718004-06767-043017FM-12+011099999V0200501N00211045001CN0200001N9+03131+02181101081ADDAA106000091AG10999AY101061GF108991041021008001031021MA1999999099521MD1999999-0121MW1021REMSYN011333   59012EQDQ01+999990APOSLP
0129826780999991985032800004-06767-043017FM-12+011099999V0209999999999045001CN9999999N9+02531+02331101401ADDAA106000091AG10999AY101061GF106991041051008001011001KA1240M+03101MA1999999099811MD1999999+0091MW1021REMSYN017333   10310 58009
0154826780999991985032812004-06767-043017FM-12+011099999V0201401N00151007501CN0200001N9+02281+02161101591ADDAA124014091AG10999AY161061GF108991081051008001999999KA1240M+99999MA1999999099991MD1999999+0081MW1021REMSYN023333   10211 58008 60144EQDQ01 +02112ATMX  
0129826780999991985032818004-06767-043017FM-12+011099999V0202701N00151045001CN0200001N9+03021+02311101001ADDAA106000091AG10999AY101061GF106991041011008001031011MA1999999099441MD1999999-0091MW1021REMSYN011333   59009EQDQ01+999990APOSP 
0129826780999991985032900004-06767-043017FM-12+011099999V0209991C00001045001CN9999999N9+02581+02461101241ADDAA106000091AG10999AY101061GF105991021021008001031999KA1240M+03111MA1999999099651MD1999999-0161MW1021REMSYN017333   10311 59016
0135826780999991985032912004-06767-043017FM-12+011099999V0200501N00101045001CN0200001N9+02531+02231101361ADDAA124062091AG10999AY161061GF108991031011008001031999KA1240N+02031MA1999999099771MD1999999-0221MW1001REMSYN023333   20203 59022 60624
0110826780999991985032918004-06767-043017FM-12+011099999V0203201N00101007501CN0200001N9+02971+02401100991ADDAA106000091AG10999AY101061GF108991051051008001031999MA1999999099411MD1999999-0021MW1021REMSYN011333   59002
0129826780999991985033000004-06767-043017FM-12+011099999V0209991C00001045001CN9999999N9+02581+02441101221ADDAA106000091AG10999AY101061GF108991031051008001031999KA1240M+03041MA1999999099641MD1999999-0011MW1021REMSYN017333   10304 59001
0129826780999991985033012004-06767-043017FM-12+011099999V0200901N00151045001CN0200001N9+02651+02311101401ADDAA106000091AG10999AY101061GF108991041081008001031021KA1240N+02361MA1999999099821MD1999999+0051MW1021REMSYN017333   20236 58005
0116826780999991985033018004-06767-043017FM-12+011099999V0202301N00101004201CN0100001N9+02301+02221101091ADDAA106005091AG10001AY161061GF108991081071004501999999MA1999999099491MD1999999+0081MW1601REMSYN017333   58008 60051
0146826780999991985033100004-06767-043017FM-12+011099999V0201401N00211007501CN9999999N9+02321+02271101321ADDAA106000291AA299000391AG10999AY161061GF108991061071008001021999KA1240M+02981MA1999999099731MD1999999+0091MW1601REMSYN023333   10298 58009 69921
0135826780999991985033112004-06767-043017FM-12+011099999V0200501N00151045001CN0200001N9+02561+02271101251ADDAA124010091AG10999AY161061GF108991031041008001031999KA1240N+02231MA1999999099661MD1999999-0161MW1031REMSYN023333   20223 59016 60104
0137826780999991985033118004-06767-043017FM-12+011099999V0202701N00151045001CN0200001N9+02891+02461100931ADDAA106001091AG10999GF108991021051008001031021MA1999999099361MD1999999-0131REMSYN017333   59013 60011EQDQ01+100043APOSLPQ02+999990APOSLP
0146826780999991985040100004-06767-043017FM-12+011099999V0209991C00001007501CN9999999N9+02561+02471101201ADDAA106000691AA299000591AG10999AY161061GF108991051051008001999999KA1240M+02991MA1999999099621MD1999999-0111MW1021REMSYN023333   10299 59011 69961
0135826780999991985040112004-06767-043017FM-12+011099999V0201401N00151007501CN0200001N9+02621+02371101351ADDAA124002091AG10999AY161061GF108991051051008001999999KA1240N+02401MA1999999099761MD1999999-0061MW1031REMSYN023333   20240 59006 60024
0110826780999991985040118004-06767-043017FM-12+011099999V0201401N00151045001CN0200001N9+02931+02321100881ADDAA106000091AG10999AY101061GF107991031031008001041011MA1999999099311MD1999999-0051MW1021REMSYN011333   59005
0135826780999991985040212004-06767-043017FM-12+011099999V0201401N00101007501CN0200001N9+02491+02321101431ADDAA124023091AG10999AY161061GF108991051061008001021999KA1240N+02311MA1999999099841MD1999999+0081MW1021REMSYN023333   20231 58008 60234
0146826780999991985040300004-06767-043017FM-12+011099999V0202301N00051007501CN9999999N9+02411+02351101421ADDAA106000791AA299001091AG10001AY161061GF108991051051008001021999KA1240M+03001MA1999999099831MD1999999+0241MW1611REMSYN023333   10300 58024 69971
0135826780999991985040312004-06767-043017FM-12+011099999V0200501N00151045001CN0200001N9+02511+02271101571ADDAA124025091AG10999AY101061GF108991021021008001031011KA1240N+02151MA1999999099971MD1999999+0131MW1021REMSYN023333   20215 58013 60254
0110826780999991985040318004-06767-043017FM-12+011099999V0200501N00261007501CN0200001N9+03071+02301101041ADDAA106000091AG10999AY101061GF107991051021008001001021MA1999999099461MD1999999+0061MW1021REMSYN011333   58006
0135826780999991985040400004-06767-043017FM-12+011099999V0209991C00001007501CN9999999N9+02231+02151101481ADDAA106001091AG10999AY161061GF108991051071008001021999KA1240M+03101MA1999999099881MD1999999+0051MW1601REMSYN023333   10310 58005 60011
0135826780999991985040412004-06767-043017FM-12+011099999V0201401N00151007501CN0200001N9+02441+02231101581ADDAA118002091AG10999AY161061GF108991061051008001031999KA1240N+02161MA1999999099981MD1999999+0011MW1021REMSYN023333   20216 58001 60023
0110826780999991985040418004-06767-043017FM-12+011099999V0201401N00151045001CN0200001N9+03051+02261101041ADDAA106000091AG10999AY101061GF106991041021008001031011MA1999999099461MD1410001+0001MW1021REMSYN011333   58000
0129826780999991985040500004-06767-043017FM-12+011099999V0202301N00051012001CN9999999N9+02561+02351101331ADDAA106000091AG10999AY101061GF108991051081008001031021KA1240M+03201MA1999999099731MD1999999-0151MW1021REMSYN017333   10320 59015
0129826780999991985040512004-06767-043017FM-12+011099999V0201401N00101045001CN0200001N9+02561+02271101301ADDAA106000091AG10999AY101061GF108991041081008001031001KA1240N+02151MA1999999099711MD1999999-0271MW1021REMSYN017333   20215 59027
0110826780999991985040518004-06767-043017FM-12+011099999V0200501N00211045001CN0200001N9+03011+02371100861ADDAA106000091AG10999AY101061GF106991041021008001041021MA1999999099281MD1999999-0181MW1021REMSYN011333   59018
0129826780999991985040600004-06767-043017FM-12+011099999V0200501N00151220001CN9999999N9+02431+02301101151ADDAA106000091AG10999AY101061GF105991021001017501031011KA1240M+03061MA1999999099561MD1999999-0171MW1021REMSYN017333   10306 59017
0146826780999991985040612004-06767-043017FM-12+011099999V0203201N00151007501CN0200001N9+02491+02321101271ADDAA124000291AA299000391AG10999AY151061GF108991061061008001021999KA1240N+02181MA1999999099681MD1999999-0031MW1511REMSYN023333   20218 59003 69924
0110826780999991985040618004-06767-043017FM-12+011099999V0201401N00261007501CN0200001N9+02631+02311100921ADDAA106000091AG10999AY101061GF108991051051008001041999MA1999999099331MD1999999+0051MW1021REMSYN011333   58005
0135826780999991985040712004-06767-043017FM-12+011099999V0202701N00101007501CN0200001N9+02491+02191101491ADDAA124028091AG10999AY161061GF108991051021008001001011KA1240N+02211MA1999999099891MD1999999+0211MW1021REMSYN023333   20221 58021 60284
0116826780999991985040718004-06767-043017FM-12+011099999V0203601N00101007501CN0200001N9+03041+02261100971ADDAA106003091AG10999AY161061GF108991051021008001001021MA1999999099401MD1999999+0071MW1021REMSYN017333   58007 60031
0135826780999991985040812004-06767-043017FM-12+011099999V0200501N00151045001CN0200001N9+02641+02311101461ADDAA124003091AG10999AY101061GF108991041051008001031999KA1240N+02001MA1999999099871MD1999999-0021MW1021REMSYN023333   20200 59002 60034
0116826780999991985040818004-06767-043017FM-12+011099999V0203301N00151007501CN0200001N9+02551+02311101101ADDAA106002091AG10999AY161061GF108991061051008001011999MA1999999099511MD1999999+0111MW1021REMSYN017333   58011 60021
0129826780999991985040900004-06767-043017FM-12+011099999V0200501N00051007501CN9999999N9+02451+02371101321ADDAA106000091AG10999AY121061GF108991061051008001011999KA1240M+02851MA1999999099731MD1999999-0091MW1131REMSYN017333   10285 59009
0135826780999991985040912004-06767-043017FM-12+011099999V0201801N00051007501CN0200001N9+02501+02211101371ADDAA124003091AG10999AY101061GF108991061051008001021999KA1240N+02241MA1999999099781MD1999999-0091MW1021REMSYN023333   20224 59009 60034
0110826780999991985040918004-06767-043017FM-12+011099999V0200901N00151220001CN0200001N9+03001+02171100841ADDAA106000091AG10999AY101061GF104991021011008001031011MA1999999099271MD1999999-0241MW1021REMSYN011333   59024
0129826780999991985041000004-06767-043017FM-12+011099999V0200501N001519999999N9999999N9+02581+02381101091ADDAA106000091AG10999AY101061GF105991051001008001061001KA1240M+03081MA1999999099511MD1999999-0221MW1021REMSYN017333   10308 59022
0135826780999991985041012004-06767-043017FM-12+011099999V0200501N00101007501CN0200001N9+02381+02281101281ADDAA124017091AG10999AY161061GF108991081071008001999999KA1240N+02201MA1999999099691MD1999999-0091MW1021REMSYN023333   20220 59009 60174
0127826780999991985041018004-06767-043017FM-12+011099999V0201401N00101045001CN0200001N9+02891+02231100841ADDAA106000991AA299001091AG10999AY161061GF105991031021008001031021MA1999999099271MD1410001+0001MW1031REMSYN017333   58000 69991
0129826780999991985041100004-06767-043017FM-12+011099999V0200501N00101007501CN9999999N9+02431+02301101371ADDAA106000091AG10999AY101061GF108991081041008001999999KA1240M+03051MA1999999099671MD1999999+0161MW1021REMSYN017333   10305 58016
0104826780999991985041112004-06767-043017FM-12+011099999V0202701N00051007501CN0200001N9+02501+02251101581ADDAG10999GF108991051051008001021999KA1240N+02261MA1999999099981MD1999999+0291REMSYN017333   20226 58029
0135826780999991985041212004-06767-043017FM-12+011099999V0202301N00051045001CN0200001N9+02531+02231101651ADDAA124002091AG10999AY101061GF108991041081008001031011KA1240N+02311MA1999999100051MD1999999+0071MW1021REMSYN023333   20231 58007 60024
0096826780999991985041218004-06767-043017FM-12+011099999V0202301N00311007501CN0500001N9+02681+02391101241ADDAA106000091AG10999AY121061GF108991061051008001021999MA1999999099651MW1171REMSYN011333   58///
0148826780999991985041300004-06767-043017FM-12+011099999V0202701N00051007501CN9999999N9+02451+02371101551ADDAA106999999AG10999AY121061GF108991081071008001999999KA1240M+03121MA1999999099961MD1999999+0061MW1501REMSYN017333   10312 58006EQDQ01  00002PRCP06
0106826780999991985041312004-06767-043017FM-12+011099999V0200501N001019999999N0200001N9+02421+02331999999ADDAA124020091AG10999GF108991999999008001999999KA1240N+02341MD1410001+0001REMSYN023333   20234 58000 60204
0110826780999991985041318004-06767-043017FM-12+011099999V0202701N00261045001CN0200001N9+02861+02381101061ADDAA106000091AG10999AY101061GF107991031021008001071021MA1999999099481MD1999999-0171MW1021REMSYN011333   59017
0135826780999991985041400004-06767-043017FM-12+011099999V0202701N00151007501CN9999999N9+02281+02201101431ADDAA106023091AG10999AY121061GF108991081071008001999999KA1240M+03041MA1999999098831MD1999999-0131MW1611REMSYN023333   10304 59013 60231
0135826780999991985041412004-06767-043017FM-12+011099999V0200501N00051007501CN0200001N9+02391+02221101521ADDAA124029091AG10999AY161061GF108991061041008001031999KA1240N+02141MA1999999099921MD1999999-0131MW1001REMSYN023333   20214 59013 60294
0129826780999991985041418004-06767-043017FM-12+011099999V0203201N00101045001CN0200001N9+02931+02121101011ADDAA106000091AG10999AY101061GF108991031041008001031021MA1999999099441MD1999999-0051MW1021REMSYN011333   59005EQDQ01+999990APOSP 
0110826780999991985041518004-06767-043017FM-12+011099999V0201401N00311105001CN0200001N9+03041+02231100911ADDAA106000091AG10999AY101061GF106991031021008001001091MA1999999099341MD1999999-0091MW1021REMSYN011333   59009
0129826780999991985041600004-06767-043017FM-12+011099999V0200901N00151220001CN9999999N9+02521+02341101201ADDAA106000091AG10999AY101061GF100991001001999999001001KA1240M+03181MA1999999099621MD1999999+0111MW1021REMSYN017333   10318 58011
0135826780999991985041612004-06767-043017FM-12+011099999V0200501N00101007501CN0200001N9+02681+02311101381ADDAA124000591AG10999AY101061GF107991071021008001001001KA1240N+02191MA1999999099801MD1999999-0071MW1021REMSYN023333   20219 59007 69954
0110826780999991985041618004-06767-043017FM-12+011099999V0201401N00311220001CN0200001N9+02901+02321101071ADDAA106000091AG10999AY101061GF104991041021008001061021MA1999999099431MD1999999+0091MW1021REMSYN011333   58009
0129826780999991985041700004-06767-043017FM-12+011099999V0200901N00151045001CN9999999N9+02501+02311101421ADDAA106000091AG10999AY101061GF106991021051008001031021KA1240M+03121MA1999999099841MD1999999+0221MW1021REMSYN017333   10312 58022
0146826780999991985041712004-06767-043017FM-12+011099999V0200501N00211007501CN0200001N9+02551+02291101511ADDAA124000291AA299000391AG10999AY161061GF108991061051008001021999KA1240N+02331MA1999999099921MD1999999+0121MW1021REMSYN023333   20233 58012 69924
0129826780999991985041800004-06767-043017FM-12+011099999V0209991C00001220001CN9999999N9+02481+02431101361ADDAA106000091AG10999AY101061GF100991001001999999001001KA1240M+03151MA1999999099771MD1999999-0071MW1021REMSYN017333   10315 59007
0146826780999991985041812004-06767-043017FM-12+011099999V0209991C00001007501CN0200001N9+02481+02341101551ADDAA124000991AA299001091AG10999AY101061GF108991071051008001031999KA1240N+02261MA1999999099961MD1999999+0041MW1021REMSYN023333   20226 58004 69994
0110826780999991985041818004-06767-043017FM-12+011099999V0201401N00151045001CN0200001N9+03181+02191100991ADDAA106000091AG10999AY101061GF106991031011008001031021MA1999999099421MD1999999-0031MW1021REMSYN011333   59003
0129826780999991985041900004-06767-043017FM-12+011099999V0201401N00101220001CN9999999N9+02551+02401101271ADDAA106000091AG10999AY101061GF103991031001012501031021KA1240M+03221MA1999999099681MD1999999-0091MW1021REMSYN017333   10322 59009
0129826780999991985041912004-06767-043017FM-12+011099999V0200901N00051220001CN0200001N9+02761+02321101361ADDAA106000091AG10999AY101061GF106991041021008001001011KA1240N+02311MA1999999099781MD1999999-0181MW1021REMSYN017333   20231 59018
0110826780999991985041918004-06767-043017FM-12+011099999V0200901N00051045001CN0200001N9+03191+02191100851ADDAA106000091AG10999AY101061GF106991041021008001031011MA1999999099291MD1999999-0131MW1021REMSYN011333   59013
0129826780999991985042012004-06767-043017FM-12+011099999V0203601N00151007501CN0200001N9+02641+02391100241ADDAA106000091AG10999AY101061GF107991071051008001031999KA1240N+02431MA1999999099661MD1999999-0121MW1021REMSYN017333   20243 59012
0110826780999991985042018004-06767-043017FM-12+011099999V0200901N00151045001CN0200001N9+02931+02361100801ADDAA106000091AG10999AY101061GF108991041031008001031021MA1999999099231MD1999999-0061MW1021REMSYN011333   59006
0129826780999991985042112004-06767-043017FM-12+011099999V0203601N00151045001CN0200001N9+02621+02251101101ADDAA106000091AG10999AY101061GF108991021011008001011011KA1240N+02281MA1999999099521MD1999999-0141MW1021REMSYN017333   20228 59014
0110826780999991985042118004-06767-043017FM-12+011099999V0202301N00211220001CN0200001N9+03101+02201100791ADDAA106000091AG10999AY101061GF108991031011008001001011MA1999999099231MD1410001+0001MW1021REMSYN011333   58000
0129826780999991985042200004-06767-043017FM-12+011099999V0201401N00101220001CN9999999N9+02541+02351101131ADDAA106000091AG10999AY101061GF100991001001999999001001KA1240M+03141MA1999999099551MD1410001+0001MW1021REMSYN017333   10314 58000
0129826780999991985042212004-06767-043017FM-12+011099999V0200501N00101045001CN0200001N9+02481+02341101341ADDAA106000091AG10999AY101061GF108991041021008001031011KA1240N+02251MA1999999099751MD1999999+0231MW1021REMSYN017333   20225 58023
0110826780999991985042218004-06767-043017FM-12+011099999V0201401N00211045001CN0200001N9+02941+02191100921ADDAA106000091AG10999AY101061GF108991021021008001031021MA1999999099351MD1999999+0121MW1021REMSYN011333   58012
0129826780999991985042300004-06767-043017FM-12+011099999V0209991C00001045001CN9999999N9+02601+02441101161ADDAA106000091AG10999AY101061GF106991021021008001031999KA1240M+03001MA1999999099581MD1999999+0031MW1021REMSYN017333   10300 58003
0129826780999991985042312004-06767-043017FM-12+011099999V0201401N00261045001CN0200001N9+02811+02221101271ADDAA106000091AG10999AY101061GF108991021011008001031081KA1240N+02341MA1999999099691MD1999999-0061MW1021REMSYN017333   20234 59006
0110826780999991985042318004-06767-043017FM-12+011099999V0201401N00151045001CN0200001N9+03011+02291101011ADDAA106000091AG10999AY101061GF108991031041008001031021MA1999999099441MD1999999+0091MW1021REMSYN011333   58009
0148826780999991985042400004-06767-043017FM-12+011099999V0201401N001019999999N9999999N9+02641+02391101181ADDAA106000091AG10999AY191061GF108991999031008001001001KA1240M+03021MA1999999099611MD1999999-0101MW1291REMSYN017333   10302 59010EQDQ01+000032SCOTLC
0129826780999991985042412004-06767-043017FM-12+011099999V0201401N00411105001CN0200001N9+02781+02231101201ADDAA106000091AG10999AY101061GF108991041011008001001021KA1240N+02311MA1999999099631MD1999999-0061MW1021REMSYN017333   20231 59006
0110826780999991985042418004-06767-043017FM-12+011099999V0201401N00311045001CN0200001N9+03071+02251100801ADDAA106000091AG10999AY101061GF108991041021008001011021MA1999999099241MD1999999-0201MW1021REMSYN011333   59020
0129826780999991985042500004-06767-043017FM-12+011099999V0201801N00051220001CN9999999N9+02521+01361101021ADDAA106000091AG10999AY101061GF108991041001017501011011KA1240M+03201MA1999999099451MD1999999-0161MW1021REMSYN017333   10320 59016
0076826780999991985042512004-06767-043017FM-12+011099999V0201401N00361045001CN0200001N9+02731+02241101061ADDAA106000091AG10999AY101061GF108991041051008001031999MA1999999099481MW1021
0116826780999991985042518004-06767-043017FM-12+011099999V0203201N00361007501CN0040001N9+02701+02411100721ADDAA106005091AG10999AY121061GF108991081071008001999999MA1999999099151MD1999999-0091MW1631REMSYN017333   59009 60051
0129826780999991985042600004-06767-043017FM-12+011099999V0209991C00001045001CN9999999N9+02521+02421100951ADDAA106000091AG10999AY101061GF108991041051008001021999KA1240M+03111MA1999999099371MD1999999-0081MW1021REMSYN017333   10311 59008
0135826780999991985042612004-06767-043017FM-12+011099999V0201401N00311007501CN0200001N9+02641+02251101181ADDAA124006091AG10999AY101061GF108991071051008001031999KA1240N+02331MA1999999099601MD1999999+0121MW1021REMSYN023333   20233 58012 60064
0110826780999991985042618004-06767-043017FM-12+011099999V0200901N00261220001CN0200001N9+03081+02351100701ADDAA106000091AG10999AY101061GF107991031011008001001011MA1999999099141MD1999999-0011MW1021REMSYN011333   59001
0129826780999991985042700004-06767-043017FM-12+011099999V0209991C00001220001CN9999999N9+02521+02361101001ADDAA106000091AG10999AY101061GF102991011011008001001011KA1240M+03121MA1999999099421MD1999999+0051MW1021REMSYN017333   10312 58005
0129826780999991985042712004-06767-043017FM-12+011099999V0201401N00151045001CN0200001N9+02761+02231101231ADDAA106000091AG10999AY101061GF106991031011008001031011KA1240N+02321MA1999999099651MD1999999+0051MW1021REMSYN017333   20232 58005
0132826780999991985042718004-06767-043017FM-12+011099999V0201401N00211220001CN0200001N9+03131+02331101731ADDAA106000091AG10999AY101061GA1021+999999079GF108991041021008001001011MA1999999099171MD1999999+0031MW1021REMSYN017333   58003 8277/
0129826780999991985042800004-06767-043017FM-12+011099999V0200501N00101220001CN9999999N9+02551+02441101091ADDAA106000091AG10999AY101061GF108991041021008001001011KA1240M+03191MA1999999099511MD1999999+0091MW1021REMSYN017333   10319 58009
0110826780999991985042818004-06767-043017FM-12+011099999V0202701N00151007501CN0200001N9+02701+02391100961ADDAA106000091AG10999AY101061GF108991051051008001021999MA1999999099381MD1999999+0211MW1021REMSYN011333   58021
0135826780999991985042900004-06767-043017FM-12+011099999V0200501N00151007501CN9999999N9+02391+02331101311ADDAA106006091AG10999AY161061GF108991051071008001021999KA1240M+02881MA1999999099711MD1999999+0021MW1611REMSYN023333   10288 58002 60061
0135826780999991985042912004-06767-043017FM-12+011099999V0209991C00001007501CN0200001N9+02401+02171101351ADDAA124052091AG10999AY161061GF108991061061008001021999KA1240N+02231MA1999999099751MD1999999-0061MW1021REMSYN023333   20223 59006 60524
0110826780999991985042918004-06767-043017FM-12+011099999V0201801N00101045001CN0200001N9+02851+02121100851ADDAA106000091AG10999AY101061GF108991031021008001031011MA1999999099271MD1999999-0111MW1021REMSYN011333   59011
0129826780999991985043000004-06767-043017FM-12+011099999V0200901N00051045001CN0200001N9+02521+02421101191ADDAA106000091AG10999AY101061GF106991041021008001031011KA1240M+02941MA1999999099601MD1999999-0111MW1021REMSYN017333   10294 59011
0135826780999991985043012004-06767-043017FM-12+011099999V0201401N00211007501CN0200001N9+02681+02351101281ADDAA124035091AG10999AY161061GF107991051021008001031011KA1240N+02281MA1999999099701MD1999999-0051MW1031REMSYN023333   20228 59005 60354
0110826780999991985043018004-06767-043017FM-12+011099999V0202301N00101220001CN0200001N9+03131+02141100841ADDAA106000091AG10999AY101061GF104991031021008001031011MA1999999099271MD1410001+0001MW1021REMSYN011333   58000
0129826780999991985050100004-06767-043017FM-12+011099999V0209991C00001045001CN9999999N9+02571+02401101101ADDAA106000091AG10999AY101061GF108991011011008001031041KA1240M+03271MA1999999099521MD1999999-0081MW1021REMSYN017333   10327 59008
0135826780999991985050112004-06767-043017FM-12+011099999V0201401N00151007501CN0200001N9+02401+02311101431ADDAA106043091AG10999AY121061GF108991071051008001021999KA1240N+02211MA1999999099841MD1999999+0141MW1031REMSYN023333   20221 58014 60431
0076826780999991985050118004-06767-043017FM-12+011099999V0200501N00151045001CN0200001N9+02761+02341100991ADDAA106000091AG10999AY101061GF108991041051008001071021MA1999999099411MW1021
0129826780999991985050200004-06767-043017FM-12+011099999V0200901N00101045001CN9999999N9+02461+02371101301ADDAA106000091AG10999AY101061GF106991011011008001031001KA1240M+02941MA1999999099711MD1999999+0191MW1021REMSYN017333   10294 58019
0129826780999991985050212004-06767-043017FM-12+011099999V0209991C00001007501CN0200001N9+02641+02371101481ADDAA106000091AG10999AY101061GF108991051021008001031011KA1240N+02121MA1999999099891MD1999999+0051MW1021REMSYN017333   20212 58005
0127826780999991985050218004-06767-043017FM-12+011099999V0202301N00151045001CN0200001N9+02801+02431100971ADDAA106000291AA299000391AG10999AY101061GF108991031021008001031999MA1999999099391MD1999999+0021MW1171REMSYN017333   58002 69921
0135826780999991985050300004-06767-043017FM-12+011099999V0209991C00001007501CN9999999N9+02321+02291101331ADDAA106003091AG10999AY121061GF108991081051008001999999KA1240M+03111MA1999999099741MD1999999+0031MW1021REMSYN023333   10311 58003 60031
0154826780999991985050312004-06767-043017FM-12+011099999V0209999999999007501CN0200001N9+02491+02271101511ADDAA124039091AG10001AY161061GF108991051051008001021999KA1240N+02291MA1999999099911MD1999999+0021MW1021REMSYN023333   20229 58002 60394EQDQ01+999990APOSP 
0110826780999991985050318004-06767-043017FM-12+011099999V0203601N00101220001CN0200001N9+02961+02311101001ADDAA106000091AG10999AY101061GF104991021021008001031011MA1999999099431MD1999999+0041MW1021REMSYN011333   58004
0135826780999991985050400004-06767-043017FM-12+011099999V0209991C00001007501CN9999999N9+02441+02371101391ADDAA106002091AG10999AY161061GF108991081051008001999999KA1240M+03061MA1999999099791MD1999999+0051MW1021REMSYN023333   10306 58005 60021
0135826780999991985050412004-06767-043017FM-12+011099999V0203601N00151045001CN0200001N9+02561+02291101461ADDAA124019091AG10999AY101061GF106991031021008001061011KA1240N+02311MA1999999099871MD1999999-0041MW1021REMSYN023333   20231 59004 60194
0099826780999991985050415004-06767-043017FM-12+011099999V0201401N00151045001CN0200001N9+02981+02371101311ADDAG10999AY101031GF108991021021008001031011MA1999999099731MD1999999-0081MW1021REMSYN011333   59008
0110826780999991985050418004-06767-043017FM-12+011099999V0201401N00211220001CN0200001N9+03101+02201100971ADDAA106000091AG10999AY101061GF108991041021008001001011MA1999999099401MD1999999-0031MW1021REMSYN011333   59003
0129826780999991985050500004-06767-043017FM-12+011099999V0200901N00101220001CN9999999N9+02531+02401101291ADDAA106000091AG10999AY101061GF107991011021008001001011KA1240M+03141MA1999999099701MD1999999-0091MW1021REMSYN017333   10314 59009
0135826780999991985050512004-06767-043017FM-12+011099999V0203601N00101007501CN0200001N9+02581+02381101501ADDAA124000391AG10999AY121061GF107991061021008001031011KA1240N+02331MA1999999099911MD1999999+0041MW1021REMSYN023333   20233 58004 69934
0110826780999991985050518004-06767-043017FM-12+011099999V0201401N00311105001CN0200001N9+03051+02411100981ADDAA106000091AG10999AY101061GF105991041021008001001021MA1999999099411MD1999999+0011MW1021REMSYN011333   58001
0129826780999991985050600004-06767-043017FM-12+011099999V0201401N00101220001CN9999999N9+02501+02361101261ADDAA106000091AG10999AY101061GF103991011001017501031021KA1240M+03121MA1999999099671MD1999999-0031MW1021REMSYN017333   10312 59003
0135826780999991985050612004-06767-043017FM-12+011099999V0201801N00051007501CN0200001N9+02601+02351101461ADDAA124001091AG10999AY121061GF108991061051008001061011KA1240N+02241MA1999999099871MD1999999-0041MW1211REMSYN023333   20224 59004 60014
0110826780999991985050618004-06767-043017FM-12+011099999V0201401N00311007501CN0200001N9+03001+02341101031ADDAA106000091AG10999AY101061GF106991051031008001061011MA1999999099461MD1999999+0051MW1021REMSYN011333   58005
0129826780999991985050700004-06767-043017FM-12+011099999V0209991C00001007501CN9999999N9+02431+02391101361ADDAA106000091AG10999AY101061GF108991061051008001061999KA1240M+03131MA1999999099771MD1999999+0101MW1021REMSYN017333   10313 58010
0121826780999991985050712004-06767-043017FM-12+011099999V0201401N00311045001CN0200001N9+02501+02071101531ADDAA124007091AG10999GF108991041021008001031011KA1240N+02311MA1999999099931MD1999999+0031REMSYN023333   20231 58003 60074
0110826780999991985050718004-06767-043017FM-12+011099999V0201401N00311045001CN0200001N9+02901+02101101131ADDAA106000091AG10999AY101061GF108991031011008001031011MA1999999099551MD1999999+0091MW1021REMSYN011333   58009
0129826780999991985050800004-06767-043017FM-12+011099999V0209991C00001220001CN9999999N9+02441+02211101321ADDAA106000091AG10999AY101061GF103991031051012501999999KA1240M+02961MA1999999099731MD1999999-0041MW1021REMSYN017333   10296 59004
0129826780999991985050812004-06767-043017FM-12+011099999V0201401N00361045001CN0200001N9+02671+02221101471ADDAA106000091AG10999AY101061GF108991021011008001031021KA1240N+02281MA1999999099881MD1999999-0051MW1021REMSYN017333   20228 59005
0110826780999991985050818004-06767-043017FM-12+011099999V0201401N00151105001CN0200001N9+03071+02271100981ADDAA106000091AG10999AY101061GF108991041021008001001021MA1999999099411MD1999999-0141MW1021REMSYN011333   59014
0129826780999991985050900004-06767-043017FM-12+011099999V0200901N00101007501CN9999999N9+02531+02451101231ADDAA106000091AG10999AY101061GF108991081051008001999999KA1240M+03131MA1999999099651MD1999999-0081MW1021REMSYN017333   10313 59008
0135826780999991985050912004-06767-043017FM-12+011099999V0200901N00211007501CN0200001N9+02651+02291101351ADDAA124000391AG10999AY161061GF108991061051008001001011KA1240N+02411MA1999999099771MD1999999-0221MW1021REMSYN023333   20241 59022 69934
0110826780999991985050918004-06767-043017FM-12+011099999V0203201N00101045001CN0200001N9+03081+02371100901ADDAA106000091AG10999AY101061GF108991041081008001031021MA1999999099321MD1999999-0081MW1021REMSYN011333   59008
0135826780999991985051012004-06767-043017FM-12+011099999V0200501N00051007501CN0200001N9+02481+02451101281ADDAA124007091AG10999AY141061GF108991061051008001021999KA1240N+02331MA1999999099691MD1999999+0081MW1031REMSYN023333   20233 58008 60074
0110826780999991985051018004-06767-043017FM-12+011099999V0200901N00151105001CN0200001N9+03081+02291100811ADDAA106000091AG10999AY101061GF107991021011008001001021MA1999999099241MD1999999-0081MW1021REMSYN011333   59008
0129826780999991985051112004-06767-043017FM-12+011099999V0200501N00101007501CN0200001N9+02541+02331101321ADDAA106000091AG10999AY101061GF108991051051008001031021KA1240N+02281MA1999999099731MD1999999+0041MW1021REMSYN017333   20228 58004
0110826780999991985051118004-06767-043017FM-12+011099999V0200501N00151045001CN0200001N9+02861+02261100941ADDAA106000091AG10999AY101061GF108991011011008001011021MA1999999099361MD1999999+0121MW1021REMSYN011333   58012
0129826780999991985051200004-06767-043017FM-12+011099999V0200501N00051220001CN9999999N9+02401+02301101181ADDAA106000091AG10999AY101061GF103991031041008001001001KA1240M+02901MA1999999099591MD1999999+0051MW1021REMSYN017333   10290 58005
0129826780999991985051212004-06767-043017FM-12+011099999V0201401N00051105001CN0200001N9+02581+02361101341ADDAA106000091AG10999AY101061GF105991021021008001031011KA1240N+02321MA1999999099751MD1999999+0021MW1021REMSYN017333   20232 58002
0116826780999991985051218004-06767-043017FM-12+011099999V0200901N00051105001CN0200001N9+02881+02001100891ADDAA106001091AG10999AY161061GF105991021011008001031011MA1999999099311MD1999999-0031MW1021REMSYN017333   59003 60011
0129826780999991985051300004-06767-043017FM-12+011099999V0209991C00001220001CN9999999N9+02481+02151101231ADDAA106000091AG10001AY101061GF100991001001999999001001KA1240M+03161MA1999999099641MD1999999+0051MW1021REMSYN017333   10316 58005
0135826780999991985051312004-06767-043017FM-12+011099999V0203601N00051007501CN0200001N9+02401+02231101621ADDAA124001091AG10999AY161061GF108991051061008001021999KA1240N+02401MA1999999100021MD1999999+0271MW1031REMSYN023333   20240 58027 60014
0110826780999991985051318004-06767-043017FM-12+011099999V0200901N00051105001CN0200001N9+03031+02241101141ADDAA106000091AG10999AY101061GF105991021011008001031011MA1999999099591MD1999999+0281MW1021REMSYN011333   58028
0129826780999991985051400004-06767-043017FM-12+011099999V0209991C00001220001CN9999999N9+02451+02341101421ADDAA106000091AG10999AY101061GF102991001001999999001021KA1240M+03141MA1999999099831MD1999999+0191MW1021REMSYN017333   10314 58019
0129826780999991985051412004-06767-043017FM-12+011099999V0200501N00101045001CN0200001N9+02671+02331101621ADDAA106000091AG10999AY101061GF106991031021008001031011KA1240N+02311MA1999999100031MD1999999+0011MW1021REMSYN017333   20231 58001
0110826780999991985051418004-06767-043017FM-12+011099999V0201401N00311220001CN0200001N9+03141+02101101121ADDAA106000091AG10999AY101061GF104991031011008001001011MA1999999099551MD1999999-0041MW1021REMSYN011333   59004
0146826780999991985051500004-06767-043017FM-12+011099999V0201401N00101220001CN9999999N9+02541+02251101361ADDAA106000791AA299000091AG10999AY101061GF104991001001999999001011KA1240M+03171MA1999999099781MD1999999-0081MW1021REMSYN023333   10317 59008 69971
0129826780999991985051512004-06767-043017FM-12+011099999V0201401N00151220001CN0200001N9+02761+02341101511ADDAA106000091AG10999AY101061GF104991011011008001031011KA1240N+02391MA1999999099931MD1999999-0101MW1021REMSYN017333   20239 59010
0110826780999991985051518004-06767-043017FM-12+011099999V0201401N00311007501CN0200001N9+03181+02191101041ADDAA106000091AG10999AY101061GF106991051021008001001011MA1999999099471MD1999999-0081MW1021REMSYN011333   59008
0129826780999991985051600004-06767-043017FM-12+011099999V0200501N00151105001CN9999999N9+02531+02311101381ADDAA106000091AG10999AY101061GF108991031051008001001021KA1240M+03221MA1999999099801MD1999999+0021MW1021REMSYN017333   10322 58002
0116826780999991985051612004-06767-043017FM-12+011099999V0201401N00461220001CN0200001N9+02701+02031101421ADDAA106000091AG10999AY101061GF102991011011008001001011MA1999999099841MD1999999-0091MW1021REMSYN017333   20/18 59009
0110826780999991985051618004-06767-043017FM-12+011099999V0201401N00361220001CN0200001N9+03001+02001101101ADDAA106000091AG10999AY101061GF103991031011008001001001MA1999999099521MD1999999+0051MW1021REMSYN011333   58005
0129826780999991985051712004-06767-043017FM-12+011099999V0201401N00361220001CN0200001N9+02541+02041101471ADDAA106000091AG10999AY101061GF104991031051012501001061KA1240N+02011MA1999999099871MD1999999+0031MW1021REMSYN017333   20201 58003
0109826780999991985051718004-06767-043017FM-12+011099999V0201401N003619999999N0200001N9+02921+01921101071ADDAA106000091AG10999AY101061GF105991999999008001999999MA1999999099501MD1810021+9999MW1021EQDQ01+999990APOSLP
0129826780999991985051800004-06767-043017FM-12+011099999V0209991C00001220001CN9999999N9+02341+02151101241ADDAA106000091AG10999AY101061GF100991001001999999001001KA1240M+03041MA1999999099651MD1999999-0101MW1021REMSYN017333   10304 59010
0129826780999991985051812004-06767-043017FM-12+011099999V0201401N00411220001CN0200001N9+02601+01961101501ADDAA106000091AG10999AY101061GF105991021011008001001011KA1240N+02091MA1999999099901MD1999999+0031MW1021REMSYN017333   20209 58003
0129826780999991985051912004-06767-043017FM-12+011099999V0201401N00261220001CN0200001N9+02741+02121101441ADDAA106000091AG10999AY101061GF106991011011008001001011KA1240N+02141MA1999999099851MD1999999-0051MW1021REMSYN017333   20214 59005
0096826780999991985051918004-06767-043017FM-12+011099999V0201401N00361220001CN0200001N9+03051+02031101051ADDAA106000091AG10999AY101061GF106991041011008001001011MA1999999099481MW1021REMSYN011333   58///
0115826780999991985052000004-06767-043017FM-12+011099999V0201401N00051220001CN9999999N9+02471+02211101321ADDAA106000091AG10999AY101061GF100991001001999999001001KA1240M+03131MA1999999099741MW1021REMSYN017333   10313 58///
0129826780999991985052012004-06767-043017FM-12+011099999V0201401N00261220001CN0200001N9+02621+02071101421ADDAA106000091AG10999AY101061GF106991021011008001001041KA1240N+02161MA1999999099831MD1999999-0021MW1021REMSYN017333   20216 59002
0110826780999991985052018004-06767-043017FM-12+011099999V0201401N00311105001CN0200001N9+03081+02161101081ADDAA106000091AG10999AY101061GF107991031021008001001021MA1999999099511MD1999999+0031MW1021REMSYN011333   58003
0129826780999991985052100004-06767-043017FM-12+011099999V0209991C00001220001CN9999999N9+02381+02131101301ADDAA106000091AG10999AY101061GF100991001001999999001001KA1240M+03101MA1999999099711MD1999999-0031MW1021REMSYN017333   10310 59003
0129826780999991985052112004-06767-043017FM-12+011099999V0200901N00101220001CN0200001N9+02661+02141101521ADDAA106000091AG10999AY101061GF101991011011008001001001KA1240N+01971MA1999999099931MD1999999+0101MW1021REMSYN017333   20197 58010
0110826780999991985052118004-06767-043017FM-12+011099999V0201401N00261220001CN0200001N9+03161+02021101091ADDAA106000091AG10999AY101061GF102991021011008001001001MA1999999099511MD1410001+0001MW1021REMSYN011333   58000
0129826780999991985052200004-06767-043017FM-12+012399999V0200901N00101045001CN9999999N9+02621+02351101411ADDAA106000091AG10999AY101061GF106991041051008001061001KA1240M+03261MA1999999099831MD1999999+0121MW1021REMSYN017333   10326 58012
0135826780999991985052212004-06767-043017FM-12+012399999V0203201N00101045001CN0200001N9+02681+02311101581ADDAA124003091AG10999AY161061GF108991031011008001031011KA1240N+02441MA1999999099991MD1999999+0061MW1021REMSYN023333   20244 58006 60034
0110826780999991985052218004-06767-043017FM-12+012399999V0202301N00051045001CN0200001N9+03101+02361101051ADDAA106000091AG10999AY101061GF106991021011008001031011MA1999999099481MD1999999-0031MW1021REMSYN011333   59003
0121826780999991985052300004-06767-043017FM-12+012399999V0200501N00051012001CN9999999N9+02401+02301101331ADDAA106002091AG10999GF108991061051012501999999KA1240M+03181MA1999999099741MD1999999-0091REMSYN023333   10318 59009 60021
0135826780999991985052312004-06767-043017FM-12+012399999V0203201N00051007501CN0200001N9+02641+02371101451ADDAA124002091AG10999AY101061GF105991051021008001001001KA1240N+02281MA1999999099861MD1999999-0131MW1021REMSYN023333   20228 59013 60024
0110826780999991985052318004-06767-043017FM-12+012399999V0201401N00311220001CN0200001N9+03231+02171101071ADDAA106000091AG10999AY101061GF106991031011008001001011MA1999999099501MD1999999+0021MW1021REMSYN011333   58002
0129826780999991985052400004-06767-043017FM-12+012399999V0201401N002119999999N9999999N9+02691+02181101341ADDAA106000091AG10999AY101061GF106991031001012501031021KA1240M+03251MA1999999099761MD1999999+0021MW1021REMSYN017333   10325 58002
0129826780999991985052412004-06767-043017FM-12+012399999V0201401N00411105001CN0200001N9+02681+02111101471ADDAA106000091AG10999AY101061GF106991021011008001001021KA1240N+02141MA1999999099891MD1999999+0031MW1021REMSYN017333   20214 58003
0110826780999991985052418004-06767-043017FM-12+012399999V0201401N00361220001CN0200001N9+03041+02091101181ADDAA106000091AG10999AY101061GF105991041021008001001011MA1999999099601MD1999999+0101MW1021REMSYN011333   58010
0129826780999991985052500004-06767-043017FM-12+012399999V0201801N00101220001CN9999999N9+02421+02191101481ADDAA106000091AG10999AY101061GF102991021001017501041001KA1240M+03111MA1999999099891MD1999999+0131MW1021REMSYN017333   10311 58013
0129826780999991985052512004-06767-043017FM-12+012399999V0201401N00261045001CN0200001N9+02511+02111101621ADDAA106000091AG10999AY101061GF108991021011008001031021KA1240N+02171MA1999999100021MD1999999+0131MW1021REMSYN017333   20217 58013
0110826780999991985052518004-06767-043017FM-12+012399999V0201401N00151105001CN0200001N9+02981+02231101291ADDAA106000091AG10999AY101061GF105991031021008001001021MA1999999099711MD1999999-0111MW1021REMSYN011333   59011
0129826780999991985052600004-06767-043017FM-12+012399999V0201801N00101220001CN9999999N9+02361+02091101461ADDAA106000091AG10999AY101061GF103991001001999999001081KA1240M+03061MA1999999099861MD1999999-0031MW1021REMSYN017333   10306 59003
0129826780999991985052612004-06767-043017FM-12+012399999V0201401N00411220001CN0200001N9+02641+02091101681ADDAA106000091AG10999AY101061GF104991041011008001001001KA1240N+02041MA1999999100081MD1999999+0061MW1021REMSYN017333   20204 58006
0129826780999991985052618004-06767-043017FM-12+012399999V0201801N00261220001CN0200001N9+03111+02001101261ADDAA106000091AG10999AY101061GF103991999011008001001001MA1999999099681MD1999999-0031MW1021REMSYN011333   59003EQDQ01+000022SCOTLC
0116826780999991985052712004-06767-043017FM-12+012399999V0201401N00511220001CN0200001N9+02671+02091101601ADDAA106000091AG10999AY101061GF101991011011008001001001MA1999999100011MD1999999-0071MW1021REMSYN017333   20/19 59007
0110826780999991985052718004-06767-043017FM-12+012399999V0201401N00261220001CN0200001N9+03121+02021101171ADDAA106000091AG10999AY101061GF104991041021008001001001MA1999999099591MD1999999-0091MW1021REMSYN011333   59009
0129826780999991985052812004-06767-043017FM-12+012399999V0201401N00571220001CN0200001N9+02671+02141101471ADDAA106000091AG10999AY101061GF108991021011008001001041KA1240N+01971MA1999999099881MD1999999-0131MW1021REMSYN017333   20197 59013
0129826780999991985052912004-06767-043017FM-12+012399999V0201401N00361220001CN0500001N9+02591+01921101481ADDAA106000091AG10999AY101061GF102991001001999999001011MA1999999099881MD1410001+0001MW1021REMSYN011333   58000EQDQ01+000952SCOLCB
0110826780999991985052918004-06767-043017FM-12+012399999V0201401N00361220001CN0200001N9+03241+02041101111ADDAA106000091AG10999AY101061GF104991021011008001001021MA1999999099531MD1999999-0011MW1021REMSYN011333   59001
0090826780999991985053009004-06767-043017FM-12+012399999V0209991C00001220001CN0200001N9+01621+01441101631ADDAA106000091AG10999AY101031GF100991001001999999001001MA1999999095271MD1810051+9999MW1101
0180826780999991985053012004-06767-043017FM-12+012399999V0201401N00511220001CN0200001N9+02691+02111101591ADDAA106000091AG10999AY101061GF104991031011008001001011KA1240N+02041MA1999999100002MD1999999+0121MW1021REMSYN017333   20204 58012EQDQ01+030001APOSP Q02+999990APOSP Q03+100003APOSP 
0110826780999991985053018004-06767-043017FM-12+012399999V0201401N00311220001CN0200001N9+03141+02131101161ADDAA106000091AG10999AY101061GF105991041021008001001011MA1999999099581MD1999999+0051MW1021REMSYN011333   58005
0123826780999991985053100004-06767-043017FM-12+012399999V0209991C00001999999CN9999999N9+02401+02171101371ADDAG10999GF106991001001999999001031KA1240M+03221MA1999999099781MD1999999-0081REMSYN017333   10322 59008EQDQ01+000922SCOLCB
0129826780999991985053112004-06767-043017FM-12+012399999V0201401N00621220001CN0200001N9+02691+01991101611ADDAA106000091AG10999AY101061GF102991011001008001011021KA1240N+02271MA1999999100021MD1999999+0021MW1021REMSYN017333   20227 58002
0110826780999991985053118004-06767-043017FM-12+012399999V0201401N00511007501CN0200001N9+03031+01921101221ADDAA106000091AG10999AY101061GF106991051021008001001011MA1999999099651MD1999999+0071MW1021REMSYN011333   58007
0129826780999991985060112004-06767-043017FM-12+012399999V0201401N00511220001CN0200001N9+02621+01961101531ADDAA106000091AG10999AY101061GF104991021011008001031011KA1240N+01941MA1999999099931MD1999999-0031MW1021REMSYN017333   20194 59003
0110826780999991985060118004-06767-043017FM-12+012399999V0201401N00511007501CN0200001N9+03021+01991101171ADDAA106000091AG10999AY101061GF105991051021008001001001MA1999999099591MD1999999-0061MW1021REMSYN011333   59006
0129826780999991985060212004-06767-043017FM-12+012399999V0201401N00511220001CN0200001N9+02671+01971101371ADDAA106000091AG10999AY101061GF102991021011008001001001KA1240N+02191MA1999999099781MD1999999-0151MW1021REMSYN017333   20219 59015
0110826780999991985060218004-06767-043017FM-12+012399999V0201401N00261220001CN0200001N9+03071+01901101011ADDAA106000091AG10999AY101061GF104991041011008001001001MA1999999099441MD1999999-0151MW1021REMSYN011333   59015
0129826780999991985060312004-06767-043017FM-12+012399999V0201401N00511220001CN0200001N9+02681+01921101371ADDAA106000091AG10999AY101061GF102991011001017501031011KA1240N+02041MA1999999099781MD1410001+0001MW1021REMSYN017333   20204 58000
0110826780999991985060318004-06767-043017FM-12+012399999V0201401N00261007501CN0200001N9+03111+02031100981ADDAA106000091AG10999AY101061GF107991051021008001031011MA1999999099411MD1999999-0031MW1021REMSYN011333   59003
0116826780999991985060400004-06767-043017FM-12+012399999V0200901N00261007501CN9999999N9+02571+02271101251ADDAA106000091AG10999AY101061GF108991061021008001031999MA1999999099671MD1410001+0001MW1021REMSYN017333   1032/ 58000
0129826780999991985060412004-06767-043017FM-12+012399999V0201401N00151045001CN0200001N9+02801+02131101391ADDAA106000091AG10999AY101061GF105991011011008001031001KA1240N+02311MA1999999099811MD1999999+0031MW1021REMSYN017333   20231 58003
0110826780999991985060418004-06767-043017FM-12+012399999V0203201N00151105001CN0200001N9+03311+02091100941ADDAA106000091AG10999AY101061GF107991031021008001001021MA1999999099381MD1999999-0031MW1021REMSYN011333   59003
0129826780999991985060500004-06767-043017FM-12+012399999V0200501N00211015001CN9999999N9+02591+02291101321ADDAA106000091AG10999AY101061GF108991061001017501031021KA1240M+03371MA1999999099741MD1999999+0071MW1021REMSYN017333   10337 58007
