0129827650999991985010100004-07333-047467FM-12+018599999V0209991C00001015001CN0200001N9+02721+02481101141ADDAA106000091AG10999AY101061GF108991081001017501021999KA1240M+03241MA1999999098761MD1999999+0061MW1021REMSYN017333   10324 58006
0135827650999991985010112004-07333-047467FM-12+018599999V0203601N00101007501CN0200001N9+02501+02201101481ADDAA124017091AG10999AY161061GF108991081051008001999999KA1240N+01981MA1999999099081MD1999999+0081MW1021REMSYN023333   20198 58008 60174
0102827650999991985010118004-07333-047467FM-12+018599999V0203201N00361045001CN0200001N9+03141+02381101051ADDAA106000091AG10999GF106991031051008001021001MA1999999098671MD1999999+0101MW1151REMSYN011333   58010
0135827650999991985010200004-07333-047467FM-12+018599999V0202301N00101007501CN0100001N9+02681+02281101121ADDAA106007091AG10999AY161061GF108991081001008001021999KA1240M+03181MA1999999098751MD1999999-0011MW1021REMSYN023333   10318 59001 60071
0135827650999991985010212004-07333-047467FM-12+018599999V0200501N00051015001CN0040001N9+02251+02221101471ADDAA124070091AG10999AY191061GF108991081001017501021999KA1240N+02171MA1999999099051MD1999999-0031MW1631REMSYN023333   20217 59003 60704
0137827650999991985010218004-07333-047467FM-12+018599999V0203201N002119999999N0200001N9+02501+02291101111ADDAA106016091AG10999GF107991999071004501011001MA1999999085702MD1999999+0031REMSYN017333   58003 60161EQDQ01+000082SCOTLCQ02+085703APOSP 
0135827650999991985010312004-07333-047467FM-12+018599999V0203601N00101012001CN0200001N9+02471+02231101441ADDAA124018091AG10999AY161061GF106991061081008001001001KA1240N+02151MA1999999099021MD1999999-0031MW1021REMSYN023333   20215 59003 60184
0116827650999991985010318004-07333-047467FM-12+018599999V0203601N00211045001CN0200001N9+02301+02161101151ADDAA106001091AG10999AY191061GF108991011071017501021999MA1999999098731MD1999999+0031MW1511REMSYN017333   58003 60011
0135827650999991985010412004-07333-047467FM-12+018599999V0203601N00361012001CN0200001N9+02541+02131101411ADDAA124004091AG10999AY101061GF107991071081008001001001KA1240N+02211MA1999999098991MD1999999-0031MW1021REMSYN023333   20221 59003 60044
0110827650999991985010418004-07333-047467FM-12+018599999V0203601N00211220001CN0200001N9+03161+02171100911ADDAA106000091AG10999AY101061GF103991021011008001031001MA1999999098541MD1999999-0191MW1021REMSYN011333   59019
0146827650999991985010500004-07333-047467FM-12+018599999V0209991C00001007501CN0200001N9+02521+02341101201ADDAA106000691AA299000591AG10999AY161061GF108991081071008001999999KA1240M+03311MA1999999098801MD1999999-0081MW1031REMSYN023333   10331 59008 69961
0154827650999991985010512004-07333-047467FM-12+018599999V0203201N00101007501CN0200001N9+02441+02361101421ADDAA124005091AG10999AY161061GF108991999051008001091999KA1240N+02251MA1999999099011MD1999999+0021MW1021REMSYN023333   20225 58002 60054EQDQ01+000082SCOTLC
0116827650999991985010518004-07333-047467FM-12+018599999V0203601N00151007501CN0200001N9+02581+02171101221ADDAA106006091AG10999AY161061GF108991051051008001021999MA1999999098821MD1999999+0181MW1021REMSYN017333   58018 60061
0129827650999991985010600004-07333-047467FM-12+018599999V0209991C00001015001CN0200001N9+02461+02361101451ADDAA106000091AG10999AY101061GF108991081051017501999999KA1240M+02641MA1999999099041MD1999999+0241MW1021REMSYN017333   10264 58024
0135827650999991985010612004-07333-047467FM-12+018599999V0201801N00151007501CN0200001N9+02461+02371101601ADDAA124006091AG10999AY101061GF108991081051008001999999KA1240N+02111MA1999999099181MD1999999+0171MW1021REMSYN023333   20211 58017 60064
0110827650999991985010618004-07333-047467FM-12+018599999V0201801N00101045001CN0200001N9+02761+02341101171ADDAA106000091AG10999AY101061GF106991021011008001061001MA1999999098781MD1999999-0041MW1021REMSYN011333   59004
0135827650999991985010712004-07333-047467FM-12+018599999V0203601N00051012001CN0100001N9+02341+02201101431ADDAA124000191AG10999AY121061GF108991081081008001999999KA1240N+02141MA1999999099011MD1999999-0171MW1601REMSYN023333   20214 59017 69914
0116827650999991985010718004-07333-047467FM-12+018599999V0201401N00151007501CN0200001N9+02401+02211101121ADDAA106013091AG10999AY161061GF108991061051008001021999MA1999999098701MD1999999-0081MW1021REMSYN017333   59008 60131
0129827650999991985010800004-07333-047467FM-12+018599999V0209991C00001220001CN0200001N9+02261+02181101111ADDAA106000091AG10999AY101061GF103991031001017501031001KA1240M+02701MA1999999098701MD1999999-0131MW1021REMSYN017333   10270 59013
0110827650999991985010818004-07333-047467FM-12+018599999V0203601N00151007501CN0200001N9+02981+02281100821ADDAA106000091AG10999AY101061GF106991061021008001001001MA1999999098441MD1999999-0261MW1021REMSYN011333   59026
0129827650999991985010900004-07333-047467FM-12+018599999V0209991C00001007501CN0200001N9+02661+02251101101ADDAA106000091AG10999AY101061GF108991081051008001999999KA1240M+03121MA1999999098701MD1410001+0001MW1131REMSYN017333   10312 58000
0110827650999991985010918004-07333-047467FM-12+018599999V0202701N00261007501CN0200001N9+02951+02081100981ADDAA106000091AG10999AY101061GF106991061021008001001001MA1999999098601MD1999999+0161MW1021REMSYN011333   58016
0129827650999991985011000004-07333-047467FM-12+018599999V0201401N00051012001CN0200001N9+02491+02231101341ADDAA106000091AG10999AY101061GF108991081081008001999999KA1240M+03061MA1999999098931MD1999999+0231MW1021REMSYN017333   10306 58023
0135827650999991985011018004-07333-047467FM-12+018599999V0203601N00151007501CN0100001N9+02441+02211101551ADDAA124003091AG10999AY161061GF108991061051008001031999KA1240N+02211MA1999999099141MD1999999+0101MW1021REMSYN023333   20221 58010 60034
0146827650999991985011100004-07333-047467FM-12+018599999V0209991C00001007501CN0200001N9+02461+02331999999ADDAA106000691AA299000591AG10999AY161061GF108991081051008001999999KA1240M+03181MA1999999098951MD1999999+0011MW1911REMSYN023333   10318 58001 69961
0135827650999991985011118004-07333-047467FM-12+018599999V0202701N001519999999N0200001N9+02901+02321100861ADDAA106000591AG10999AY101061GF108991999011008001001001MA1999999098461MD1999999-0241MW1021REMSYN017333   59024 69951EQDQ01+000042SCOTLC
0129827650999991985011312004-07333-047467FM-12+018599999V0200901N000519999999N0200001N9+02721+02341101291ADDAA106000091AG10999AY101061GF106991031001008001031051KA1240N+02251MA1999999098901MD1999999-0091MW1021REMSYN017333   20225 59009
0110827650999991985011318004-07333-047467FM-12+018599999V0200901N00411012001CN0100001N9+02561+02291101071ADDAA106000091AG10999AY101061GF108991061081008001021999MA1999999098671MD1999999+0011MW1021REMSYN011333   58001
0135827650999991985011400004-07333-047467FM-12+018599999V0201801N00151045001CN0100001N9+02461+02371101231ADDAA106002091AG10999AY161061GF108991031051008001011999KA1240M+03171MA1999999098841MD1999999+0081MW1021REMSYN023333   10317 58008 60021
0154827650999991985011412004-07333-047467FM-12+018599999V0200501N001519999999N0200001N9+02591+02331101361ADDAA124002091AG10001AY101061GF105991051011999999001001KA1240N+02221MA1999999098951MD1999999+0051MW1021REMSYN023333   20222 58005 60024EQDQ01+000992SCOLCB
0127827650999991985011418004-07333-047467FM-12+018599999V0200901N00151012001CN0200001N9+02651+02391101031ADDAA106000491AA299000591AG10999AY161061GF107991071081008001001001MA1999999098621MD1999999-0051MW1031REMSYN017333   59005 69941
0129827650999991985011500004-07333-047467FM-12+018599999V0201201N00311012001CN0200001N9+02441+02321101261ADDAA106000091AG10999AY121061GF106991061041012501041999KA1240M+02951MA1999999098861MD1999999+0011MW1131REMSYN017333   10295 58001
0110827650999991985011518004-07333-047467FM-12+018599999V0201401N00151012001CN0200001N9+02921+02411101111ADDAA106000091AG10999AY101061GF108991081081008001999999MA1999999098721MD1999999+0101MW1021REMSYN011333   58010
0154827650999991985011712004-07333-047467FM-12+018599999V0203601N00151012001CN0100001N9+02371+02131101331ADDAA124027091AG10999AY161061GF108991999081008001021999KA1240N+02151MA1999999098911MD1999999-0191MW1611REMSYN023333   20215 59019 60274EQDQ01+000082SCOTLC
0116827650999991985011718004-07333-047467FM-12+018599999V0202701N003119999999N9999999N9+02581+02331100911ADDAA106000191AG10999AY101061GF108991081081999999999999MA1999999098771MD1999999-0131MW1021REMSYN017333   59013 69911
0129827650999991985011800004-07333-047467FM-12+018599999V0201801N00101015001CN0200001N9+02401+02231101251ADDAA106000091AG10999AY101061GF108991081001017501021999KA1240M+02901MA1999999098841MD1999999-0021MW1021REMSYN017333   10290 59002
0135827650999991985011812004-07333-047467FM-12+018599999V0203601N00311002101CN0040001N9+02381+02281101521ADDAA148000991AG10999AY151061GF108991081051002501999999KA1240N+02231MA1999999099101MD1999999+0191MW1511REMSYN023333   20223 58019 69999
0116827650999991985011818004-07333-047467FM-12+018599999V0200501N00151012001CN0200001N9+99999+99999101041ADDAA106000591AG10999AY151061GF107991061081008001041999MA1999999098641MD1999999+0141MW1021REMSYN017333   58014 69951
0129827650999991985011900004-07333-047467FM-12+018599999V0203601N00101007501CN0200001N9+02551+02271101251ADDAA106000091AG10999AY101061GF108991081051008001999999KA1240M+02791MA1999999098851MD1410001+0001MW1021REMSYN017333   10279 58000
0110827650999991985011918004-07333-047467FM-12+018599999V0203201N00261045001CN0200001N9+03061+02171101111ADDAA106000091AG10999AY101061GF106991031021008001011001MA1999999098731MD1999999+0091MW1021REMSYN011333   58009
0129827650999991985012000004-07333-047467FM-12+018599999V0201401N00101220001CN0200001N9+02581+02291101361ADDAA106000091AG10999AY101061GF102991021011008001001001KA1240M+02931MA1999999098961MD1999999+0071MW1021REMSYN017333   10293 58007
0154827650999991985012012004-07333-047467FM-12+018599999V0203601N00151012001CN0100001N9+02411+02301101541ADDAA124001091AG10999AY161061GF108991999081008001021999KA1240N+02321MA1999999099131MD1999999-0051MW1511REMSYN023333   20232 59005 60014EQDQ01+000082SCOTLC
0110827650999991985012018004-07333-047467FM-12+018599999V0200501N00151012001CN0200001N9+02751+02281101181ADDAA106000091AG10999AY101061GF108991051081008001011999MA1999999098781MD1999999+0051MW1021REMSYN011333   58005
0129827650999991985012112004-07333-047467FM-12+018599999V0200501N003119999999N0200001N9+02441+02301101571ADDAA106000091AG10999AY101061GF107991061081999999041001KA1240N+02301MA1999999099151MD1999999+0021MW1021REMSYN017333   20230 58002
0129827650999991985012200004-07333-047467FM-12+018599999V0202301N00151220001CN0200001N9+02581+02481101101ADDAA106000091AG10999AY111061GF101991011031008001001001KA1240M+03141MA1999999098301MD1999999-0251MW1131REMSYN017333   10314 59025
0154827650999991985012212004-07333-047467FM-12+018599999V0201401N04222007501CN0100001N9+02301+02271101471ADDAA124048091AG10999AY161061GF108991081051008001999999KA1240N+02001MA1999999099051MD1999999-0101MW1021REMSYN023333   20200 59010 60484EQDQ01+004223WOSPD 
0116827650999991985012218004-07333-047467FM-12+018599999V0203201N00101045001CN0200001N9+02801+02441101081ADDAA106000191AG10999AY151061GF106991041051008001021001MA1999999098681MD1999999+0031MW1021REMSYN017333   58003 69911
0121827650999991985012300004-07333-047467FM-12+018599999V0202301N00151007501CN0200001N9+02541+02291101211ADDAA106000091AG10999GF108991081051008001999999KA1240M+02881MA1999999098801MD1999999+0101MW1131REMSYN017333   10288 58010
0135827650999991985012312004-07333-047467FM-12+018599999V0200501N00151007501CN0040001N9+02221+02191101551ADDAA124038091AG10999AY161061GF108991081051008001999999KA1240N+02101MA1999999099101MD1999999+0051MW1611REMSYN023333   20210 58005 60384
0116827650999991985012318004-07333-047467FM-12+018599999V0202701N00211012001CN0200001N9+02711+02221101131ADDAA106002091AG10999AY101061GF106991061081008001001001MA1999999098721MD1999999+0041MW1021REMSYN017333   58004 60021
0129827650999991985012400004-07333-047467FM-12+018599999V0203601N00051012001CN0200001N9+02441+02341101401ADDAA106000091AG10999AY101061GF108991081001012501021999KA1240M+02751MA1999999098971MD1999999+0171MW1021REMSYN017333   10275 58017
0135827650999991985012412004-07333-047467FM-12+018599999V0203201N00311002101CN0040001N9+02251+02211101671ADDAA124007091AG10001AY161061GF108991081051002501999999KA1240N+02001MA1999999099241MD1999999+0141MW1511REMSYN023333   20200 58014 60074
0116827650999991985012418004-07333-047467FM-12+018599999V0202701N00311012001CN0200001N9+02701+02281101361ADDAA106002091AG10999AY151061GF108991081081008001999999MA1999999098961MD1999999+0241MW1021REMSYN017333   58024 60021
0131827650999991985012500004-07333-047467FM-12+018599999V0200501N00051007501CN0200001N9+99999+99999101431ADDAA106000291AA299000391AG10999AY151061GF108991081051008001999999KA1240M+02851MD1999999+0031MW1021REMSYN023333   10285 58003 69921
0135827650999991985012512004-07333-047467FM-12+018599999V0200501N00101105001CN0200001N9+02501+02311101721ADDAA124002091AG10999AY101061GF106991021051008001031041KA1240N+02171MA1999999099291MD1999999+0051MW1021REMSYN023333   20217 58005 60024
0108827650999991985012518004-07333-047467FM-12+018599999V0201801N00101045001CN0200001N9+02761+02321101161ADDAA106001091AG10999GF106991041021008001021001MA1999999098741MD1999999-0201MW1021REMSYN017333   59020 60011
0135827650999991985012612004-07333-047467FM-12+018599999V0209999999999009001CN0200001N9+02381+02281101341ADDAA124013091AG10999AY101061GF108991061081004501021999KA1240N+02221MA1999999098921MD1999999-0371MW1021REMSYN023333   20222 59037 60134
0110827650999991985012618004-07333-047467FM-12+018599999V0203201N00261012001CN0200001N9+03051+02261100911ADDAA106000091AG10999AY101061GF105991051081008001001001MA1999999098531MD1999999-0211MW1021REMSYN011333   59021
0121827650999991985012700004-07333-047467FM-12+018599999V0209991C00001007501CN0200001N9+02321+02221101221ADDAA106006091AG10999GF105991051021008001001001KA1240M+03081MA1999999098891MD1999999-0161REMSYN023333   10308 59016 60061
0116827650999991985012718004-07333-047467FM-12+018599999V0203201N00151004201CN0040001N9+02341+02221101171ADDAA106019091AG10999AY161061GF108991081051004501999999MA1999999098751MD1999999+0221MW1911REMSYN017333   58022 60191
0129827650999991985012800004-07333-047467FM-12+018599999V0209991C00001045001CN0100001N9+02341+02291101151ADDAA106000091AG10999AY101061GF108991021051017501021999KA1240M+02401MA1999999098731MD1999999-0071MW1021REMSYN017333   10240 59007
0135827650999991985012812004-07333-047467FM-12+018599999V0203201N00151045001CN0100001N9+02441+02251101411ADDAA124019091AG10999AY101061GF106991031051008001031001KA1240N+02031MA1999999098991MD1999999-0021MW1021REMSYN023333   20203 59002 60194
0110827650999991985012818004-07333-047467FM-12+018599999V0202701N00151105001CN0200001N9+02981+02281999999ADDAA106000091AG10999AY101061GF106991021021008001011041MA1999999098511MD1999999-0241MW1021REMSYN011333   59024
0129827650999991985012900004-07333-047467FM-12+018599999V0203201N00261007501CN0200001N9+02501+02341101181ADDAA106000091AG10999AY101061GF108991081051008001999999KA1240M+03121MA1999999098771MD1999999+0041MW1021REMSYN017333   10312 58004
0135827650999991985012912004-07333-047467FM-12+018599999V0200501N00051002101CN0100001N9+02291+02231101501ADDAA124025091AG10999AY161061GF108991081061002501999999KA1240N+02201MA1999999099061MD1999999+0071MW1611REMSYN023333   20220 58007 60254
0142827650999991985013000004-07333-047467FM-12+018599999V0201801N00101004201CN0100001N9+02281+02131101121ADDAA106000091AG10999AY101061GF108991081071004501999999KA1240M+02651MA1999999098551MD1999999+0121REMSYN017333   10265 58012EQDQ01+000262PRSWM1
0135827650999991985013012004-07333-047467FM-12+018599999V0203601N00051009001CN0200001N9+02301+02131101521ADDAA124002091AG10999AY151061GF107991061081004501041999KA1240N+02061MA1999999099081MD1999999+0021MW1021REMSYN023333   20206 58002 60024
0110827650999991985013018004-07333-047467FM-12+018599999V0203201N00211045001CN0200001N9+02861+02291101091ADDAA106000091AG10999AY101061GF106991021021008001041021MA1999999098691MD1999999-0111MW1021REMSYN011333   59011
0121827650999991985013100004-07333-047467FM-12+018599999V0203201N00151220001CN0200001N9+02561+02381101291ADDAA106000091AG10999GF104991021031008001041001KA1240M+03031MA1999999098881MD1999999-0051MW1311REMSYN017333   10303 59005
0135827650999991985013112004-07333-047467FM-12+018599999V0209999999999004201CN0040001N9+99999+99999101611ADDAA124016091AG10999AY161061GF108991081051004501999999KA1240N+01931MA1999999099181MD1999999+0101MW1911REMSYN023333   20193 58010 60164
0129827650999991985020100004-07333-047467FM-12+018599999V0202701N00151045001CN0200001N9+02301+02161101331ADDAA106000091AG10999AY101061GF108991021011008001011999KA1240M+02661MA1999999098891MD1999999+0011MW1021REMSYN017333   10266 58001
0135827650999991985020112004-07333-047467FM-12+018599999V0209991C00001004201CN0040001N9+02091+02051101661ADDAA124030091AG10999AY161061GF108991081051004501999999KA1240N+01881MA1999999099221MD1999999+0041MW1611REMSYN023333   20188 58004 60304
0116827650999991985020118004-07333-047467FM-12+018599999V0202301N00151007501CN0200001N9+02771+01911101211ADDAA106007091AG10999AY161061GF108991081001008001021999MA1999999098831MD1999999+0041MW1021REMSYN017333   58004 60071
0129827650999991985020200004-07333-047467FM-12+018599999V0202501N00051220001CN0200001N9+02221+02211101371ADDAA106000091AG10001AY101061GF102991011011008001001011KA1240M+02501MA1999999098931MD1999999+0041MW1021REMSYN017333   10250 58004
0135827650999991985020212004-07333-047467FM-12+018599999V0203601N00051012001CN0200001N9+99999+99999101611ADDAA124007091AG10999AY101061GF108991081081008001999999KA1240N+01951MA1999999099171MD1999999-0051MW1021REMSYN023333   20195 59005 60074
0110827650999991985020218004-07333-047467FM-12+018599999V0203601N00151007501CN0200001N9+03151+01971101031ADDAA106000091AG10999AY101061GF106991061021008001001001MA1999999098651MD1999999-0181MW1021REMSYN011333   59018
0146827650999991985020300004-07333-047467FM-12+018599999V0202201N00101012001CN0200001N9+02321+02051101351ADDAA106000591AA299000091AG10999AY151061GF108991081081008001999999KA1240M+02861MA1999999098861MD1999999+0201MW1131REMSYN023333   10286 58020 69951
0135827650999991985020312004-07333-047467FM-12+018599999V0200501N00211012001CN0200001N9+02381+02211101591ADDAA124001091AG10999AY151061GF108991081081008001999999KA1240N+02141MA1999999099161MD1999999-0011MW1001REMSYN023333   20214 59001 60014
0110827650999991985020318004-07333-047467FM-12+018599999V0202701N00311045001CN0200001N9+02921+01861101301ADDAA106000091AG10999AY101061GF106991031021008001041041MA1999999098901MD1999999+0251MW1021REMSYN011333   58025
0148827650999991985020400004-07333-047467FM-12+018599999V0200501N00101007501CN0200001N9+02301+02161101511ADDAA106013091AG10999AY191061GF108991081071008001999999KA1240M+02921MA1999999099081MD1999999+0081REMSYN023333   10292 58008 60131EQDQ01+000262PRSWM1
0135827650999991985020412004-07333-047467FM-12+018599999V0201401N00101004201CN0200001N9+02381+02211101771ADDAA124048091AG10999AY161061GF107991061021004501031001KA1240N+01971MA1999999099341MD1999999+0181MW1021REMSYN023333   20197 58018 60484
0110827650999991985020418004-07333-047467FM-12+018599999V0200501N00211012001CN0200001N9+02651+02181101331ADDAA106000091AG10999AY101061GF107991061081008001041001MA1999999098911MD1999999+0011MW1021REMSYN011333   58001
0110827650999991985020500004-07333-047467FM-12+018599999V0202301N00051045001CN0500001N9+02441+02271101481ADDAG10999GF105991021031000751031001KA1240M+03021MA1999999099061MD1999999-0021MW1131REMSYN017333   10302 59002
0146827650999991985020512004-07333-047467FM-12+018599999V0202701N00211045001CN0200001N9+02601+02271101621ADDAA124000291AA299000391AG10999AY101061GF106991021011008001021011KA1240N+02201MA1999999099211MD1999999-0131MW1021REMSYN023333   20220 59013 69924
0102827650999991985020518004-07333-047467FM-12+018599999V0202201N00211045001CN0020001N9+02961+02221101211ADDAA106000091AG10999GF107991041081008001021001MA1999999098821MD1999999+0091MW1171REMSYN011333   58009
0135827650999991985020600004-07333-047467FM-12+018599999V0200901N00151007501CN0200001N9+02261+02231101461ADDAA106002091AG10999AY161061GF108991051051008001011999KA1240M+03081MA1999999099051MD1999999-0011MW1021REMSYN023333   10308 59001 60021
0135827650999991985020612004-07333-047467FM-12+018599999V0203601N00151220001CN0200001N9+02501+02291101691ADDAA124002091AG10999AY101061GF104991031081008001051001KA1240N+02151MA1999999099261MD1999999+0051MW1021REMSYN023333   20215 58005 60024
0110827650999991985020618004-07333-047467FM-12+018599999V0200501N00211007501CN0040001N9+02741+02401101221ADDAA106000091AG10999AY111061GF106991051061008001041001MA1999999098811MD1999999-0011MW1151REMSYN011333   59001
0129827650999991985020700004-07333-047467FM-12+018599999V0203201N00101045001CN0200001N9+02531+02341101361ADDAA106000091AG10999AY111061GF106991041031008001021001KA1240M+03091MA1999999098951MD1999999-0101MW1131REMSYN017333   10309 59010
0135827650999991985020712004-07333-047467FM-12+018599999V0203201N00211012001CN0200001N9+02251+02011101741ADDAA124038091AG10999AY191061GF108991061081008001041011KA1240N+01971MA1999999099311MD1999999+0051MW1001REMSYN023333   20197 58005 60384
0110827650999991985020718004-07333-047467FM-12+018599999V0202301N00151007501CN0200001N9+03131+02141101271ADDAA106000091AG10999AY101061GF105991051021008001001001MA1999999098871MD1999999+0061MW1021REMSYN011333   58006
0129827650999991985020800004-07333-047467FM-12+018599999V0200501N00151220001CN0200001N9+02661+02391101271ADDAA106000091AG10999AY111061GF104991041051008001001001KA1240M+03211MA1999999098861MD1999999-0091MW1131REMSYN017333   10321 59009
0129827650999991985020812004-07333-047467FM-12+018599999V0203601N00151220001CN0200001N9+02601+02031101481ADDAA106000091AG10999AY101061GF103991031011008001001001KA1240N+02171MA1999999099081MD1999999-0231MW1021REMSYN017333   20217 59023
0102827650999991985020818004-07333-047467FM-12+018599999V0200901N00311012001CN0200001N9+02701+02131101231ADDAA106000091AG10999GF107991061081008001011001MA1999999098831MD1999999-0041MW1151REMSYN011333   59004
0154827650999991985020900004-07333-047467FM-12+018599999V0200501N00151007501CN0200001N9+02541+02301101241ADDAA106001091AG10999AY161061GF106991061051008001001001KA1240M+03231MA1999999099842MD1999999-0021MW1131REMSYN023333   10323 59002 60011EQDQ01+099843APOSP 
0135827650999991985020912004-07333-047467FM-12+018599999V0202301N00151007501CN0200001N9+02641+02271101441ADDAA124001091AG10999AY101061GF106991051021008001031001KA1240N+02231MA1999999099041MD1999999-0041MW1021REMSYN023333   20223 59004 60014
0110827650999991985020918004-07333-047467FM-12+018599999V0201401N00151220001CN0200001N9+03171+02251100921ADDAA106000091AG10999AY101061GF103991021021008001041011MA1999999098551MD1999999-0281MW1021REMSYN011333   59028
0129827650999991985021000004-07333-047467FM-12+018599999V0202101N00101007501CN0200001N9+02411+02171101231ADDAA106000091AG10999AY101061GF105991051051008001001001KA1240M+03241MA1999999098831MD1999999-0011MW1021REMSYN017333   10324 59001
0135827650999991985021012004-07333-047467FM-12+018599999V0201801N00101045001CN0200001N9+02401+02211101491ADDAA124031091AG10999AY191061GF106991041021008001021041KA1240N+01971MA1999999099071MD1999999+0031MW1021REMSYN023333   20197 58003 60314
0083827650999991985021015004-07333-047467FM-12+018599999V0203301N00511220001CN0150001N9+02941+02341999999ADDAG10999AY101031GF103991999999008001999999MD1210141+9999MW1021EQDQ01+101443APOSP 
0116827650999991985021018004-07333-047467FM-12+018599999V0202301N00151007501CN0200001N9+02161+02091101331ADDAA106024091AG10999AY191061GF108991081051008001999999MA1999999098901MD1999999+0351MW1171REMSYN017333   58035 60241
0129827650999991985021100004-07333-047467FM-12+018599999V0209991C00001220001CN0200001N9+02221+02171101321ADDAA106000091AG10999AY101061GF102991021051004501001001KA1240M+02901MA1999999098891MD1999999+0061MW1021REMSYN017333   10290 58006
0121827650999991985021112004-07333-047467FM-12+018599999V0202301N00151007501CN0200001N9+02271+02211101601ADDAA124024091AG10999GF108991081051008001999999KA1240N+02001MA1999999099161MD1999999+0091REMSYN023333   20200 58009 60244
0110827650999991985021118004-07333-047467FM-12+018599999V0200901N00151007501CN0200001N9+02681+02351101191ADDAA106000091AG10999AY101061GF105991051031008001001001MA1999999098771MD1999999-0131MW1021REMSYN011333   59013
0129827650999991985021200004-07333-047467FM-12+018599999V0201801N00051015001CN0200001N9+02321+02201101381ADDAA106000091AG10999AY101061GF108991081001017501021999KA1240M+02901MA1999999098951MD1999999+0061MW1021REMSYN017333   10290 58006
0135827650999991985021212004-07333-047467FM-12+018599999V0203601N00101105001CN0200001N9+02441+02091101521ADDAA124000591AG10999AY151061GF106991011011008001031041KA1240N+02111MA1999999099101MD1999999-0061MW1021REMSYN023333   20211 59006 69954
0110827650999991985021218004-07333-047467FM-12+018599999V0203201N00211007501CN0200001N9+02981+01861101131ADDAA106000091AG10999AY101061GF106991061021008001001001MA1999999098741MD1999999-0031MW1021REMSYN011333   59003
0129827650999991985021300004-07333-047467FM-12+018599999V0201401N00051007501CN0200001N9+02461+02171101451ADDAA106004091AG10999AY161061GF105991051051008001001001KA1240M+03101MA1999999099041MD1999999+0091REMSYN023333   10310 58009 60041
0135827650999991985021312004-07333-047467FM-12+018599999V0203601N00101012001CN0200001N9+02501+02071101531ADDAA124004091AG10999AY101061GF108991081081008001999999KA1240N+02191MA1999999099121MD1999999+0021MW1021REMSYN023333   20219 58002 60044
0110827650999991985021318004-07333-047467FM-12+018599999V0203201N00211012001CN0200001N9+02821+02221101091ADDAA106000091AG10999AY101061GF108991081081008001999999MA1999999098701MD1999999+0041MW1021REMSYN011333   58004
0154827650999991985021400004-07333-047467FM-12+018599999V0200901N00051007501CN0200001N9+02501+02431101421ADDAA106002091AG10999AY161061GF108991999051008001001001KA1240M+03021MA1999999099011MD1999999-0031MW1131REMSYN023333   10302 59003 60021EQDQ01+000052SCOTLC
0135827650999991985021412004-07333-047467FM-12+018599999V0203201N00051002101CN0200001N9+02441+02171101571ADDAA124002091AG10999AY101061GF108991061051002501041999KA1240N+02271MA1999999099151MD1999999+0031MW1021REMSYN023333   20227 58003 60024
0127827650999991985021418004-07333-047467FM-12+018599999V0202301N00151012001CN0200001N9+02961+02211101081ADDAA106000491AA299000591AG10999AY161061GF106991051081008001031021MA1999999098701MD1410001+0001MW1021REMSYN017333   58000 69941
0129827650999991985021500004-07333-047467FM-12+018599999V0203201N00211220001CN0200001N9+02501+02341101221ADDAA106000091AG10999AY101061GF103991031051008001001001KA1240M+03031MA1999999098811MD1999999-0201MW1021REMSYN017333   10303 59020
0118827650999991985021512004-07333-047467FM-12+018599999V0203601N00101007501CN0100001N9+02401+02331101491ADDAG10999AY101061GF108991081051008001999999KA1240N+02231MA1999999099071MD1999999-0081MW1021REMSYN017333   20223 59008
0116827650999991985021518004-07333-047467FM-12+018599999V0209991C00001004201CN0040001N9+02361+02291101161ADDAA106033091AG10999AY161061GF108991081051004501999999MA1999999098741MD1999999+0041MW1911REMSYN017333   58004 60331
0135827650999991985021600004-07333-047467FM-12+018599999V0200901N00151004201CN0040001N9+02341+02311101331ADDAA106001091AG10999AY161061GF108991081051004501999999KA1240M+02501MA1999999098911MD1999999+0101MW1611REMSYN023333   10250 58010 60011
0135827650999991985021612004-07333-047467FM-12+018599999V0200501N00101001201CN0020001N9+02301+02231101521ADDAA124046091AG10999AY161061GF108991081061001501999999KA1240N+02161MA1999999099091MD1999999+0021MW1631REMSYN023333   20216 58002 60464
0116827650999991985021618004-07333-047467FM-12+018599999V0200901N00261006001CN0020001N9+02841+02381101061ADDAA106004091AG10999AY161061GF107991071081002501001001MA1999999098771MD1999999+0031MW1621REMSYN017333   58003 60041
0135827650999991985021712004-07333-047467FM-12+018599999V0203201N00051012001CN0200001N9+02401+02111101621ADDAA124019091AG10999AY161061GF107991071081008001001001KA1240N+02191MA1999999099191MD1999999+0191MW1001REMSYN023333   20219 58019 60194
0110827650999991985021718004-07333-047467FM-12+018599999V0203201N00151012001CN0200001N9+03001+01911101151ADDAA106000091AG10999AY121061GF108991081081008001999999MA1999999098761MD1999999-0011MW1151REMSYN011333   59001
0135827650999991985021800004-07333-047467FM-12+018599999V0201801N00101007501CN0200001N9+02401+02261101301ADDAA106014091AG10999AY121061GF108991081051008001999999KA1240M+03041MA1999999098971MD1999999-0011MW1191REMSYN023333   10304 59001 60141
0135827650999991985021812004-07333-047467FM-12+018599999V0203601N00101007501CN0200001N9+02401+02261101561ADDAA124014091AG10999AY151061GF107991061021008001031001KA1240N+02211MA1999999099141MD1999999-0051MW1021REMSYN023333   20221 59005 60144
0116827650999991985021818004-07333-047467FM-12+018599999V0201801N00151045001CN0200001N9+02321+02151101321ADDAA106000591AG10999AY151061GF108991041051008001021999MA1999999098901MD1999999+0141MW1511REMSYN017333   58014 69951
0129827650999991985021900004-07333-047467FM-12+018599999V0202301N00051007501CN0200001N9+02281+02201101331ADDAA106000191AG10999AY151061GF108991081051008001999999KA1240M+02821MA1999999098911MD1999999-0061REMSYN023333   10282 59006 69911
0135827650999991985021912004-07333-047467FM-12+018599999V0209991C00001004201CN0100001N9+02301+02221101641ADDAA124001091AG10999AY101061GF108991081051004501999999KA1240N+02111MA1999999099211MD1999999+0071MW1021REMSYN023333   20211 58007 60014
0116827650999991985021918004-07333-047467FM-12+018599999V0202701N00151007501CN0100001N9+02421+02281101171ADDAA106004091AG10999AY161061GF108991051051008001021999MA1999999098751MD1999999-0151MW1021REMSYN017333   59015 60041
0135827650999991985022012004-07333-047467FM-12+018599999V0200901N00101007501CN0020001N9+02341+02221101441ADDAA124004091AG10999AY151061GF108991071051008001021999KA1240N+02201MA1999999099021MD1999999-0191MW1021REMSYN023333   20220 59019 60044
0127827650999991985022018004-07333-047467FM-12+018599999V0202701N00151220001CN0200001N9+02901+02151100981ADDAA106000291AA299000391AG10999AY161061GF103991011031008001021001MA1999999098601MD1999999-0151MW1171REMSYN017333   59015 69921
0127827650999991985022100004-07333-047467FM-12+018599999V0209991C00001007501CN0100001N9+02241+02191101421ADDAA106006091AG10999GF108991081051008001999999KA1240M+02961MA1999999098991MD1999999+0131MW1021REMSYN023333   10296 58013 60061
0135827650999991985022112004-07333-047467FM-12+018599999V0202301N00101009001CN0200001N9+02421+02251101461ADDAA124007091AG10999AY101061GF107991071081004501001001KA1240N+02111MA1999999099041MD1999999+0021MW1021REMSYN023333   20211 58002 60074
0116827650999991985022118004-07333-047467FM-12+018599999V0203201N00101045001CN0100001N9+02461+02301101051ADDAA106008091AG10999AY161061GF108991031031008001021999MA1999999098631MD1999999+0031MW1151REMSYN017333   58003 60081
0129827650999991985022200004-07333-047467FM-12+018599999V0203601N00051220001CN0200001N9+02451+02391101131ADDAA106000091AG10999AY101061GF102991999999999999999999KA1240M+02911MA1999999098721MD1999999-0271MW1021REMSYN017333   10291 59027
0122827650999991985022212004-07333-047467FM-12+018599999V0203601N00261007501CN0200001N9+02521+02231101311ADDAA124008091AG10999AY101061GF107991051021008001001011MA1999999098901MD1999999-0141MW1021REMSYN023333   2023/ 59014 60084
0119827650999991985022218004-07333-047467FM-12+018599999V0203201N00311012001CN0200001N9+02821+02241100891ADDAA106000491AA299000591AG10999GF108991081081008001999999MA1999999098491MD1999999-0151MW1611REMSYN017333   59015 69941
0135827650999991985022300004-07333-047467FM-12+018599999V0200501N00101007501CN0200001N9+02501+02361101021ADDAA106002091AG10999AY161061GF106991061051008001001001KA1240M+02961MA1999999098621MD1999999-0101MW1131REMSYN023333   10296 59010 60021
0121827650999991985022312004-07333-047467FM-12+018599999V0203601N00361012001CN0200001N9+02501+02211101231ADDAA124005091AG10999AY161061GF108991081081008001999999KA1240N+02251MA1999999098831MW1001REMSYN023333   20225 59990 60054
0135827650999991985022400004-07333-047467FM-12+018599999V0200901N00151007501CN0200001N9+02301+02161101131ADDAA106001091AG10999AY161061GF108991081051008001999999KA1240M+02821MA1999999098721MD1999999+0101MW1001REMSYN023333   10282 58010 60011
0135827650999991985022412004-07333-047467FM-12+018599999V0203201N00151009001CN0200001N9+02461+02211101451ADDAA124007091AG10999AY141061GF107991061081004501041999KA1240N+02151MA1999999099031MD1999999+0201MW1001REMSYN023333   20215 58020 60074
0135827650999991985022500004-07333-047467FM-12+018599999V0200201N00261220001CN0200001N9+02251+02191101291ADDAA106002091AG10999AY161061GF101991011051008001001001KA1240M+02881MA1999999098871MD1999999+0151MW1001REMSYN023333   10288 58015 60021
0135827650999991985022512004-07333-047467FM-12+018599999V0203601N00101007501CN0200001N9+02421+02131101461ADDAA124010091AG10999AY101061GF108991051051008001031999KA1240N+02101MA1999999099031MD1410001+0001MW1021REMSYN023333   20210 58000 60104
0110827650999991985022518004-07333-047467FM-12+018599999V0202701N00151045001CN0200001N9+03001+02291101061ADDAA106000091AG10999AY101061GF107991031021008001021031MA1999999098671MD1410001+0001MW1021REMSYN011333   58000
0154827650999991985022600004-07333-047467FM-12+018599999V0201801N000519999999N0200001N9+02381+02251101141ADDAA112027091AG10999AY191061GF106991999001008001021001KA1240M+03081MA1999999098921MD1999999+0051MW1021REMSYN023333   10308 58005 60272EQDQ01+000032SCOTLC
0135827650999991985022612004-07333-047467FM-12+018599999V0202701N00151220001CN0200001N9+02541+02231101451ADDAA124027091AG10999AY101061GF104991031011008001001011KA1240N+02141MA1999999099031MD1410001+0001MW1021REMSYN023333   20214 58000 60274
0110827650999991985022618004-07333-047467FM-12+018599999V0203201N00311007501CN0200001N9+03111+02261101021ADDAA106000091AG10999AY101061GF106991061031008001001001MA1999999098641MD1999999-0031MW1021REMSYN011333   59003
0154827650999991985022700004-07333-047467FM-12+018599999V0209991C00001012001CN0200001N9+02391+02361101261ADDAA106027091AG10999AY101061GF108991999081008001001091KA1240M+03191MA1999999098851MD1999999-0071MW1021REMSYN023333   10319 59007 60271EQDQ01+000082SCOTLC
0135827650999991985022712004-07333-047467FM-12+018599999V0203201N00051012001CN0100001N9+02481+02391101481ADDAA124027091AG10999AY101061GF108991081081008001999999KA1240N+02221MA1999999099061MD1999999+0031MW1021REMSYN023333   20222 58003 60274
0108827650999991985022718004-07333-047467FM-12+018599999V0200501N00361012001CN0100001N9+02361+02281101221ADDAA106013091AG10999GF108991081081008001999999MA1999999098801MD1999999+0161MW1611REMSYN017333   58016 60131
0135827650999991985022800004-07333-047467FM-12+018599999V0202701N00151012001CN0100001N9+02381+02281101271ADDAA106002091AG10999AY191061GF108991081081008001999999KA1240M+02921MA1999999098861MD1999999+0011MW1131REMSYN023333   10292 58001 60021
0135827650999991985022812004-07333-047467FM-12+018599999V0200901N00151007501CN0200001N9+02401+02301101561ADDAA124015091AG10999AY101061GF108991081051008001999999KA1240N+02211MA1999999099141MD1999999+0081MW1021REMSYN023333   20221 58008 60154
0110827650999991985022818004-07333-047467FM-12+018599999V0200501N00101220001CN0200001N9+03001+02001101131ADDAA106000091AG10999AY101061GF106991041021012501001041MA1999999098761MD1999999-0041MW1021REMSYN011333   59004
0129827650999991985030100004-07333-047467FM-12+018599999V0200801N00311220001CN0200001N9+02501+02321101221ADDAA106000091AG10999AY101061GF106991011011008001001061KA1240M+03061MA1999999098821MD1999999+0041MW1021REMSYN017333   10306 58004
0129827650999991985030112004-07333-047467FM-12+018599999V0201401N00151045001CN0200001N9+02601+02441101371ADDAA106000091AG10999AY101061GF107991021081008001041071KA1240N+02291MA1999999098981MD1999999-0161MW1021REMSYN017333   20229 59016
0110827650999991985030118004-07333-047467FM-12+018599999V0203201N00151045001CN0200001N9+02741+02211101061ADDAA106000091AG10999AY101061GF106991041081008001041001MA1999999098661MD1999999-0101MW1021REMSYN011333   59010
0129827650999991985030200004-07333-047467FM-12+018599999V0200901N00051220001CN0200001N9+02481+02321101171ADDAA106000091AG10999AY101061GF103991021001008001041011KA1240M+03131MA1999999098771MD1999999-0051MW1021REMSYN017333   10313 59005
0129827650999991985030212004-07333-047467FM-12+018599999V0200901N00101045001CN0200001N9+02681+02391101401ADDAA106000091AG10999AY101061GF107991021011008001021051KA1240N+02231MA1999999099001MD1999999+0021MW1021REMSYN017333   20223 58002
0110827650999991985030218004-07333-047467FM-12+018599999V0201401N00101045001CN0200001N9+03161+02121100931ADDAA106000091AG10999AY101061GF106991031021008001011001MA1999999098561MD1999999-0101MW1021REMSYN011333   59010
0135827650999991985030300004-07333-047467FM-12+018599999V0203601N00051045001CN0200001N9+02311+02291101221ADDAA106006091AG10999AY191061GF108991021011008001011999KA1240M+03201MA1999999098821MD1999999+0081MW1021REMSYN023333   10320 58008 60061
0135827650999991985030312004-07333-047467FM-12+018599999V0200501N00261012001CN0200001N9+02501+02271101391ADDAA124008091AG10999AY101061GF107991071081008001001001KA1240N+02241MA1999999098971MD1999999-0031MW1021REMSYN023333   20224 59003 60084
0116827650999991985030318004-07333-047467FM-12+018599999V0200901N00151007501CN0040001N9+02681+02521100981ADDAA112001091AG10999AY191061GF106991061031008001001001MA1999999098501MD1999999-0061MW1151REMSYN017333   59006 60012
0129827650999991985030400004-07333-047467FM-12+018599999V0200901N00151007501CN0200001N9+02541+02401101071ADDAA106000091AG10999AY101061GF107991071031008001001001KA1240M+03071MA1999999098671MD1999999-0151MW1021REMSYN017333   10307 59015
0154827650999991985030412004-07333-047467FM-12+018599999V0200501N00151045001CN0200001N9+02661+02091101271ADDAA124001091AG10999AY101061GF105991031021008001031001KA1240M+99999MA1999999098871MD1999999-0101MW1021REMSYN023333   10231 59010 60014EQDQ01 +02312ATMX  
0116827650999991985030418004-07333-047467FM-12+018599999V0203201N00151045001CN0200001N9+02701+02351100841ADDAA106006091AG10999AY161061GF106991031021008001031011MA1999999098441MD1999999-0061MW1151REMSYN017333   59006 60061
0129827650999991985030500004-07333-047467FM-12+018599999V0203601N00101220001CN0200001N9+02561+02311101231ADDAA106000091AG10999AY101061GF104991041021008001001001KA1240M+03021MA1999999098621MD1999999-0051MW1021REMSYN017333   10302 59005
0135827650999991985030512004-07333-047467FM-12+018599999V0200501N00211105001CN0200001N9+02451+02231101201ADDAA124009091AG10999AY161061GF106991011011008001041041KA1240N+02191MA1999999099801MD1999999-0071MW1021REMSYN023333   20219 59007 60094
0135827650999991985030518004-07333-047467FM-12+018599999V0203201N00051045001CN0200001N9+02441+02301100781ADDAA106005091AG10999AY151061GF106991011051008001041001MA1999999098362MD1999999-0081MW1611REMSYN017333   59008 60051EQDQ01+098363APOSP 
0116827650999991985030718004-07333-047467FM-12+018599999V0201701N00151045001CN0100001N9+02501+02341100891ADDAA106009091AG10999AY191061GF108991041071008001021999MA1999999098491MD1999999+0221MW1021REMSYN017333   58022 60091
0135827650999991985030812004-07333-047467FM-12+018599999V0202301N00101012001CN0200001N9+02491+02361101231ADDAA124015091AG10999AY161061GF107991071081008001001001KA1240N+02091MA1999999098831MD1999999-0011MW1031REMSYN023333   20209 59001 60154
0110827650999991985030818004-07333-047467FM-12+018599999V0200901N00511004201CN0600001N9+03171+02421100741ADDAA106000091AG10999AY191061GF107991071071004501001001MA1999999098381MD1999999-0111MW1151REMSYN011333   59011
0135827650999991985030900004-07333-047467FM-12+018599999V0203601N00101012001CN0200001N9+02591+02311100891ADDAA106000191AG10999AY121061GF108991081081008001999999KA1240M+03211MA1999999098491MD1999999-0151MW1131REMSYN023333   10321 59015 69911
0135827650999991985030912004-07333-047467FM-12+018599999V0202301N00151012001CN0200001N9+02551+02191101281ADDAA124000191AG10999AY101061GF108991081081008001999999KA1240N+02311MA1999999098881MD1999999+0051MW1021REMSYN023333   20231 58005 69914
0110827650999991985030918004-07333-047467FM-12+018599999V0202701N00261105001CN0200001N9+03101+02121100851ADDAA106000091AG10999AY101061GF107991041021008001001031MA1999999099451MD1999999+0071MW1021REMSYN011333   58007
0135827650999991985031012004-07333-047467FM-12+018599999V0203601N00151012001CN0200001N9+02501+02211101451ADDAA124006091AG10999AY101061GF108991081081008001999999KA1240N+02291MA1999999099041MD1999999+0161MW1021REMSYN023333   20229 58016 60064
0129827650999991985031018004-07333-047467FM-12+018599999V0203201N001519999999N0200001N9+03001+01881100931ADDAA106000091AG10999AY101061GF107991999021008001001001MA1999999098551MD1999999+0101MW1021REMSYN011333   58010EQDQ01+000042SCOTLC
0129827650999991985031100004-07333-047467FM-12+018599999V0202401N00151220001CN0200001N9+02651+02291101131ADDAA106000091AG10999AY101061GF102991021031008001001001KA1240M+03201MA1999999098561MD1999999+0211MW1021REMSYN017333   10320 58021
0129827650999991985031112004-07333-047467FM-12+018599999V0203201N00261007501CN0200001N9+02561+02311101341ADDAA106000091AG10999AY101061GF105991051021008001001001KA1240N+02271MA1999999098941MD1999999-0101MW1021REMSYN017333   20227 59010
0110827650999991985031118004-07333-047467FM-12+018599999V0200501N00051220001CN0200001N9+03181+02191100851ADDAA106000091AG10999AY101061GF103991021021008001041021MA1999999098491MD1999999-0061MW1021REMSYN011333   59006
0135827650999991985031212004-07333-047467FM-12+018599999V0209991C00001045001CN0200001N9+02681+02411101311ADDAA124005091AG10999AY101061GF106991041051008001021001KA1240N+02351MA1999999098911MD1999999-0031MW1021REMSYN023333   20235 59003 60054
0110827650999991985031218004-07333-047467FM-12+018599999V0203601N00151045001CN0200001N9+02961+02401100881ADDAA106000091AG10999AY101061GF108991031071008001011999MA1999999098501MD1999999+0011MW1021REMSYN011333   58001
0121827650999991985031300004-07333-047467FM-12+018599999V0201401N00101045001CN0200001N9+02641+02501101051ADDAA106000091AG10999GF108991041051008001011999KA1240M+03051MA1999999098781MD1999999-0021MW1131REMSYN017333   10305 59002
0135827650999991985031312004-07333-047467FM-12+018599999V0202701N00151004201CN0040001N9+02311+02281101291ADDAA124054091AG10999AY161061GF108991081051004501999999KA1240N+02291MA1999999098881MD1999999-0031MW1611REMSYN023333   20229 59003 60544
0116827650999991985031318004-07333-047467FM-12+018599999V0200901N002619999999N0200001N9+02511+02251101061ADDAA106006091AG10999AY101061GF108991081001012501011999MA1999999098651MD1999999+0151MW1021REMSYN017333   58015 60061
0129827650999991985031400004-07333-047467FM-12+018599999V0200901N00151012001CN0200001N9+02311+02251101231ADDAA106000091AG10999AY101061GF108991081001012501021999KA1240M+02591MA1999999098811MD1999999+0131MW1021REMSYN017333   10259 58013
0135827650999991985031412004-07333-047467FM-12+018599999V0200501N00101012001CN0200001N9+02431+02251101421ADDAA124005091AG10999AY101061GF108991081081008001999999KA1240N+02211MA1999999099001MD1999999+0121MW1021REMSYN023333   20221 58012 60054
0110827650999991985031418004-07333-047467FM-12+018599999V0203201N00101045001CN0200001N9+03081+02131100951ADDAA106000091AG10999AY101061GF105991031021008001031001MA1999999098571MD1999999-0081MW1021REMSYN011333   59008
0148827650999991985031500004-07333-047467FM-12+018599999V0200901N00101007501CN0200001N9+02501+02291101101ADDAA106000091AG10999AY101061GF108991081051008001999999KA1240M+03221MA1999999098701MD1999999-0111MW1021REMSYN017333   10322 59011EQDQ01+999990APOSLP
0132827650999991985031512004-07333-047467FM-12+018599999V0203601N00261012001CN0200001N9+02701+02301101421ADDAA124000291AA299000391AG10999GF108991081081008001999999KA1240N+02391MA1999999099021MD1999999+0021REMSYN023333   20239 58002 69924
0135827650999991985031600004-07333-047467FM-12+018599999V0202701N00151220001CN0200001N9+02501+02361101071ADDAA106000591AG10999AY191061GF104991041051008001001001KA1240M+03181MA1999999098781MD1999999+0071MW1131REMSYN023333   10318 58007 69951
0135827650999991985031612004-07333-047467FM-12+018599999V0200501N00261045001CN0200001N9+02521+02231101491ADDAA124000591AG10999AY101061GF106991021021008001041081KA1240N+02331MA1999999099081MD1999999+0061MW1021REMSYN023333   20233 58006 69954
0110827650999991985031618004-07333-047467FM-12+018599999V0202701N00211220001CN0200001N9+03081+02351101051ADDAA106000091AG10999AY101061GF103991031031008001001001MA1999999098671MD1999999+0161MW1171REMSYN011333   58016
0146827650999991985031712004-07333-047467FM-12+018599999V0203601N00361045001CN0200001N9+02601+02231101571ADDAA124000291AA299000391AG10999AY101061GF106991041051008001021001KA1240N+02231MA1999999099171MD1999999+0091MW1021REMSYN023333   20223 58009 69924
0110827650999991985031718004-07333-047467FM-12+018599999V0202301N00361045001CN0200001N9+02781+02461101001ADDAA106000091AG10999AY101061GF107991021021008001011041MA1999999098621MD1999999-0051MW1021REMSYN011333   59005
0129827650999991985031800004-07333-047467FM-12+018599999V0203601N00101220001CN0200001N9+02461+02361101201ADDAA106000091AG10999AY101061GF104991041051008001001001KA1240M+02961MA1999999098811MD1999999-0051MW1021REMSYN017333   10296 59005
0129827650999991985031812004-07333-047467FM-12+018599999V0202301N00151004201CN0200001N9+02521+02361101471ADDAA106000091AG10999AY101061GF108991081051004501999999KA1240N+02321MA1999999099061MD1999999-0111MW1021REMSYN017333   20232 59011
0129827650999991985031900004-07333-047467FM-12+018599999V0202301N00101012001CN0200001N9+02501+02411101331ADDAA106000091AG10999AY121061GF107991071081008001001001KA1240M+02891MA1999999098921MD1999999+0111MW1131REMSYN017333   10289 58011
0135827650999991985031912004-07333-047467FM-12+018599999V0202701N00151045001CN0200001N9+02501+02211101471ADDAA124023091AG10999AY161061GF106991041051008001021001KA1240N+02251MA1999999099061MD1410001+0001MW1021REMSYN023333   20225 58000 60234
0110827650999991985031918004-07333-047467FM-12+018599999V0203201N00211045001CN0200001N9+03121+02051101001ADDAA106000091AG10999AY101061GF106991041021008001031001MA1999999098631MD1999999-0091MW1021REMSYN011333   59009
0129827650999991985032000004-07333-047467FM-12+018599999V0203201N00051220001CN0200001N9+02621+02371101201ADDAA106000091AG10999AY101061GF104991041021008001001001KA1240M+03221MA1999999098801MD1999999-0121MW1131REMSYN017333   10322 59012
0135827650999991985032012004-07333-047467FM-12+018599999V0200901N00101007501CN0100001N9+02321+02181101451ADDAA124006091AG10999AY161061GF108991081001008001021999KA1240N+02231MA1999999099041MD1999999-0021MW1611REMSYN023333   20223 59002 60064
0127827650999991985032018004-07333-047467FM-12+018599999V0202701N00101220001CN0200001N9+02961+02101100981ADDAA106000791AA299001091AG10999AY151061GF104991041021008001031011MA1999999098611MD1999999-0021MW1021REMSYN017333   59002 69971
0129827650999991985032100004-07333-047467FM-12+018599999V0202301N00151045001CN0200001N9+02601+02391101281ADDAA106000091AG10999AY101061GF106991041051008001031001KA1240M+02981MA1999999098811MD1999999+0011MW1021REMSYN017333   10298 58001
0146827650999991985032112004-07333-047467FM-12+018599999V0200901N00261012001CN0200001N9+02521+02131101311ADDAA124000791AA299001091AG10999AY101061GF107991051081008001041001KA1240N+02291MA1999999098911MD1999999-0091MW1021REMSYN023333   20229 59009 69974
0110827650999991985032118004-07333-047467FM-12+018599999V0201401N00311045001CN0200001N9+03271+02241100771ADDAA106000091AG10999AY101061GF108991021021008001041001MA1999999098411MD1999999-0201MW1021REMSYN011333   59020
0076827650999991985032212004-07333-047467FM-12+018599999V0203601N00211007501CN0200001N9+02661+02371101341ADDAA106000091AG10001AY101061GF108991061051008001031999MA1999999098951MW1021
0135827650999991985032312004-07333-047467FM-12+018599999V0200901N00261002101CN0040001N9+02311+02181101811ADDAA124056091AG10999AY161061GF108991081071002501999999KA1240N+02191MA1999999099381MD1999999+0431MW1611REMSYN023333   20219 58043 60564
0135827650999991985032318004-07333-047467FM-12+018599999V0202301N00151012001CN0100001N9+02521+02211101301ADDAA106010091AG10001AY161061GF108991999081008001021999MA1999999098881MD1999999+0261MW1601REMSYN017333   58026 60101EQDQ01+000082SCOTLC
0135827650999991985040212004-07333-047467FM-12+018599999V0202701N00051004201CN0200001N9+02321+02221101641ADDAA124051091AG10999AY161061GF108991051051004501021999KA1240N+02201MA1999999099211MD1999999+0141MW1021REMSYN023333   20220 58014 60514
0110827650999991985040218004-07333-047467FM-12+018599999V0201801N00151045001CN0200001N9+02741+02341101181ADDAA106000091AG10999AY101061GF108991041081008001021999MA1999999098781MD1999999+0181MW1021REMSYN011333   58018
0076827650999991985040318004-07333-047467FM-12+018599999V0203601N00261045001CN0200001N9+02861+01921101301ADDAA106000091AG10001AY101061GF105991031021008001041021MA1999999098901MW1021
0110827650999991985040518004-07333-047467FM-12+018599999V0202301N00261220001CN0200001N9+03191+02271100951ADDAA106000091AG10999AY101061GF102991021021008001001011MA1999999099581MD1999999-0281MW1021REMSYN011333   59028
0135827650999991985041312004-07333-047467FM-12+018599999V0201801N00051007501CN0200001N9+02401+02231101741ADDAA124001091AG10999AY161061GF108991061051008001021999KA1240N+02231MA1999999099321MD1999999-0071MW1021REMSYN023333   20223 59007 60014
0110827650999991985041318004-07333-047467FM-12+018599999V0201801N00151105001CN0200001N9+03041+02201101171ADDAA106000091AG10999AY101061GF106991021011008001021041MA1999999098791MD1999999-0181MW1021REMSYN011333   59018
0135827650999991985041400004-07333-047467FM-12+018599999V0209991C00001007501CN0200001N9+02341+02261101541ADDAA106019091AG10999AY191061GF108991081051008001999999KA1240M+03141MA1999999099111MD1999999-0011MW1021REMSYN023333   10314 59001 60191
0135827650999991985041412004-07333-047467FM-12+018599999V0201801N00101002101CN0020001N9+02341+02291101651ADDAA124026091AG10999AY161061GF108991081051002501999999KA1240N+02251MA1999999099221MD1999999-0101MW1611REMSYN023333   20225 59010 60264
0116827650999991985041418004-07333-047467FM-12+018599999V0202701N00151012001CN0200001N9+02611+02291101161ADDAA106003091AG10999AY161061GF107991061081008001041001MA1999999098761MD1999999-0031MW1021REMSYN017333   59003 60031
0129827650999991985041500004-07333-047467FM-12+018599999V0209991C00001012001CN0200001N9+02521+02331101421ADDAA106000091AG10999AY101061GF108991081081008001999999KA1240M+02721MA1999999099001MD1999999-0111MW1021REMSYN017333   10272 59011
0135827650999991985041512004-07333-047467FM-12+018599999V0201401N00261012001CN0200001N9+02481+02381101631ADDAA124004091AG10999AY121061GF108991081081008001999999KA1240N+02251MA1999999099211MD1999999-0011MW1211REMSYN023333   20225 59001 60044
0129827650999991985041600004-07333-047467FM-12+018599999V0209991C00001220001CN0100001N9+02361+02281101471ADDAA106000091AG10999AY101061GF104991041051008001001001KA1240M+02621MA1999999099051MD1999999+0051MW1021REMSYN017333   10262 58005
0135827650999991985041612004-07333-047467FM-12+018599999V0209999999999004201CN0040001N9+02361+02261101651ADDAA124006091AG10999AY101061GF108991071051004501021999KA1240N+02191MA1999999099221MD1999999+0011MW1021REMSYN023333   20219 58001 60064
0116827650999991985041618004-07333-047467FM-12+018599999V0203201N00151045001CN0200001N9+02701+02371101181ADDAA106005091AG10999AY161061GF107991041081008001031001MA1999999098781MD1999999-0101MW1021REMSYN017333   59010 60051
0148827650999991985041700004-07333-047467FM-12+018599999V0203601N00051220001CN0200001N9+02781+02481101501ADDAA106000091AG10999AY101061GF102991021021008001001001KA1240M+99999MA1999999099081MD1999999+0031MW1021REMSYN017333   10272 58003EQDQ01 +02722ATMX  
0135827650999991985041712004-07333-047467FM-12+018599999V0200501N00211220001CN0200001N9+02511+02251101601ADDAA124005091AG10999AY101061GF102991011021008001031001KA1240N+02191MA1999999099191MD1999999-0031MW1021REMSYN023333   20219 59003 60054
0110827650999991985041718004-07333-047467FM-12+018599999V0202301N00151012001CN0200001N9+02841+02401101211ADDAA106000091AG10999AY101061GF107991061081008001041999MA1999999098821MD1999999+0041MW1021REMSYN011333   58004
0129827650999991985041800004-07333-047467FM-12+018599999V0200501N00051220001CN0200001N9+02381+02281101441ADDAA106000091AG10999AY101061GF100991001001999999001001KA1240M+02921MA1999999099031MD1999999-0051MW1021REMSYN017333   10292 59005
0146827650999991985041812004-07333-047467FM-12+018599999V0203201N00051006001CN0200001N9+02451+02321101611ADDAA124000491AA299000591AG10999AY101061GF107991071081002501001001KA1240N+02141MA1999999099191MD1999999+0071MW1021REMSYN023333   20214 58007 69944
0110827650999991985041818004-07333-047467FM-12+018599999V0203201N00261007501CN0200001N9+03161+02201101121ADDAA106000091AG10999AY101061GF105991051021008001001001MA1999999098751MD1999999-0071MW1021REMSYN011333   59007
0129827650999991985041900004-07333-047467FM-12+018599999V0203201N00051220001CN0200001N9+99999+99999101361ADDAA106000091AG10999AY101061GF100991001001999999001001KA1240M+03221MA1999999098951MD1999999-0031MW1021REMSYN017333   10322 59003
0129827650999991985041912004-07333-047467FM-12+018599999V0202701N00151045001CN9999999N9+02591+02331101481ADDAA106000091AG10999AY101061GF105991041021008001031001KA1240N+02271MA1999999099081MD1999999-0111MW1021REMSYN017333   20227 59011
0110827650999991985041918004-07333-047467FM-12+018599999V0200501N00151220001CN0200001N9+02981+02421101011ADDAA106000091AG10999AY101061GF104991031081008001041001MA1999999098631MD1999999-0121MW1021REMSYN011333   59012
0129827650999991985042004004-07333-047467FM-12+018599999V0202701N00051220001CN0200001N9+02441+02341101241ADDAA106000091AG10999AY191999GF100991001001999999001001KA1240M+03181MA1999999098841MD1999999-0111MW1021REMSYN017333   10318 59011
0135827650999991985042012004-07333-047467FM-12+018599999V0202701N00101007501CN0100001N9+02401+02351101401ADDAA124024091AG10999AY161061GF108991051061008001021999KA1240N+02211MA1999999098981MD1999999-0101MW1611REMSYN023333   20221 59010 60244
0116827650999991985042018004-07333-047467FM-12+018599999V0203601N00511007501CN0100001N9+02381+02281101021ADDAA106007091AG10999AY191061GF108991081051008001999999MA1999999098611MD1999999-0021MW1611REMSYN017333   59002 60071
0154827650999991985042100004-07333-047467FM-12+018599999V0209991C00001220001CN0100001N9+02401+02371101201ADDAA106000391AG10999AY161061GF103991031051008001001001KA1240M+03101MA1999999099792MD1999999-0051MW1021REMSYN023333   10310 59005 69931EQDQ01+099793APOSP 
0135827650999991985042112004-07333-047467FM-12+018599999V0200901N00361045001CN0200001N9+02401+02371101441ADDAA124018091AG10999AY161061GF108991041051008001021999KA1240N+02211MA1999999099021MD1999999+0041MW1511REMSYN023333   20221 58004 60184
0151827650999991985042212004-07333-047467FM-12+018599999V0203201N00101045001CN0200001N9+02421+02281101451ADDAA124000891AA299001091AG10999AY101061GF107991031021008001031001KA1240N+02071MA1999999099021MW1021REMSYN023333   20207 5/000 69984EQDQ01+999990APOSLP
0135827650999991985042312004-07333-047467FM-12+018599999V0200501N00051004201CN0200001N9+02351+02281101571ADDAA124025091AG10999AY161061GF108991081051004501999999KA1240N+02201MA1999999099151MD1999999+0131MW1511REMSYN023333   20220 58013 60254
0107827650999991985042318004-07333-047467FM-12+018599999V0200501N00151045001CN0200001N9+02921+02431101161ADDAA106000091AA299580092AG10001AY101061GF106991021021008001031001MA1999999099771MW1021REMSYN011333   65800
0148827650999991985042400004-07333-047467FM-12+018599999V0209991C00001220001CN0200001N9+02541+02451101231ADDAA106000091AG10999AY101061GF102991021051008001001001KA1240M+03061MA1999999098822MD1999999-0091MW1021REMSYN017333   10306 59009EQDQ01+098823APOSP 
0135827650999991985042412004-07333-047467FM-12+018599999V0203201N00051004201CN0200001N9+02341+02291101381ADDAA124039091AG10999AY191061GF108991061051004501041999KA1240N+02191MA1999999098971MD1999999-0181MW1021REMSYN023333   20219 59018 60394
0110827650999991985042418004-07333-047467FM-12+018599999V0202401N00211045001CN0200001N9+03181+02361100881ADDAA106000091AG10999AY101061GF106991031021008001041011MA1999999098511MD1999999-0261MW1021REMSYN011333   59026
0129827650999991985042512004-07333-047467FM-12+018599999V0203201N00051220001CN0200001N9+02701+02281101191ADDAA106000091AG10999AY101061GF102991021011008001001001KA1240N+02251MA1999999098801MD1999999-0171MW1021REMSYN017333   20225 59017
0110827650999991985042618004-07333-047467FM-12+018599999V0201401N00261220001CN0200001N9+03161+02261101771ADDAA106000091AG10999AY101061GF103991021021008001041011MA1999999098411MD1999999+0061MW1021REMSYN011333   58006
0146827650999991985042712004-07333-047467FM-12+018599999V0202301N00051045001CN0200001N9+02621+02331101421ADDAA124000291AA299000391AG10999AY151061GF107991021021008001031001KA1240N+02301MA1999999099021MD1999999+0171MW1021REMSYN023333   20230 58017 69924
0110827650999991985042718004-07333-047467FM-12+018599999V0203201N00151045001CN0200001N9+03081+02491100921ADDAA106000091AG10999AY101061GF107991031021008001031071MA1999999098551MD1999999+0141MW1021REMSYN011333   58014
0135827650999991985042812004-07333-047467FM-12+018599999V0203201N00151007501CN0100001N9+02461+02231101511ADDAA124040091AG10999AY191061GF108991061051008001021999KA1240N+02141MA1999999099091MD1999999+0071MW1021REMSYN023333   20214 58007 60404
0110827650999991985042818004-07333-047467FM-12+018599999V0200501N00211007501CN0100001N9+02421+02391101251ADDAA106004091AG10999AY161061GF108991081051008001999999MA1999999098831MD1999999+0281REMSYN017333   58028 60041
0135827650999991985042912004-07333-047467FM-12+018599999V0209991C00001045001CN0200001N9+02441+02301101491ADDAA199004091AG10999AY101061GF106991041051008001031001KA1240N+02151MA1999999099071MD1999999-0021MW1021REMSYN023333   20215 59002 6004/
0110827650999991985042918004-07333-047467FM-12+018599999V0202701N00151045001CN0200001N9+03041+02261100941ADDAA106000091AG10999AY101061GF106991031021008001031021MA1999999098561MD1999999-0271MW1021REMSYN011333   59027
0129827650999991985043000004-07333-047467FM-12+018599999V0200501N002119999999N0200001N9+02481+02321101221ADDAA106000091AG10999AY121061GF108991081999008001999999KA1240M+03111MA1999999098811MD1999999-0121MW1131REMSYN017333   10311 59012
0135827650999991985043012004-07333-047467FM-12+018599999V0202301N00051045001CN0200001N9+02661+02311101491ADDAA124000391AG10999AY101061GF106991041021008001031001KA1240N+02291MA1999999099081MD1999999+0011MW1021REMSYN023333   20229 58001 69934
0129827650999991985043018004-07333-047467FM-12+018599999V0202301N000519999999N0200001N9+03101+02341100941ADDAA106000091AG10999AY101061GF106991031021999999041071MA1999999098571MD1999999+0011MW1021REMSYN011333   58001EQDQ01+000992SCOLCB
0107827650999991985050100004-07333-047467FM-12+018599999V0203201N00151007501CN0200001N9+02661+02571101251ADDAA106000091AG10999GF107991051021008001011001KA1240M+03151MA1999999098861MW1131REMSYN017333   10315 580/5
0135827650999991985050112004-07333-047467FM-12+018599999V0203201N00151004201CN0100001N9+02441+02391101541ADDAA124003091AG10999AY161061GF108991081051004501999999KA1240N+02331MA1999999099131MD1999999+0161MW1511REMSYN023333   20233 58016 60034
0116827650999991985050118004-07333-047467FM-12+018599999V0202301N00151007501CN0200001N9+02481+02271101211ADDAA106034091AG10999AY161061GF108991051051008001021999MA1999999098801MD1999999+0231MW1021REMSYN017333   58023 60341
0129827650999991985050200004-07333-047467FM-12+018599999V0201401N00151045001CN0200001N9+02341+02291101531ADDAA106000091AG10999AY101061GF107991021021008001031001KA1240M+02621MA1999999099111MD1999999+0251MW1021REMSYN017333   10262 58025
0135827650999991985050212004-07333-047467FM-12+018599999V0202301N00101007501CN0200001N9+02651+02331101081ADDAA124024091AG10999AY101061GF107991071031008001001001KA1240N+02211MA1999999099201MD1999999+0071MW1021REMSYN023333   20221 58007 60244
0110827650999991985050218004-07333-047467FM-12+018599999V0201401N00101045001CN0200001N9+03001+02251101111ADDAA106000091AG10999AY101061GF106991041021008001031011MA1999999098731MD1999999-0071MW1021REMSYN011333   59007
0135827650999991985050312004-07333-047467FM-12+018599999V0200501N00311007501CN0200001N9+02681+02281101601ADDAA124001091AG10999AY151061GF106991051021008001031001KA1240N+02281MA1999999099201MD1410001+0001MW1021REMSYN023333   20228 58000 60014
0110827650999991985050318004-07333-047467FM-12+018599999V0201401N00151045001CN0200001N9+02881+02391101101ADDAA106000091AG10999AY101061GF106991041021008001041021MA1999999098711MD1999999-0021MW1021REMSYN011333   59002
0135827650999991985050412004-07333-047467FM-12+018599999V0201401N00151045001CN0200001N9+02681+02371101601ADDAA124001091AG10999AY151061GF106991041021008001031001KA1240N+02201MA1999999099201MD1410001+0001MW1021REMSYN023333   20220 58000 60014
0116827650999991985050418004-07333-047467FM-12+018599999V0203201N00151045001CN0200001N9+02701+02481101131ADDAA106017091AG10999AY161061GF106991031031008001041021MA1999999098731MD1999999+0021MW1951REMSYN017333   58002 60171
0129827650999991985050500004-07333-047467FM-12+018599999V0203201N00051045001CN0200001N9+02511+02421101471ADDAA106000091AG10999AY101061GF108991021021008001041999KA1240M+03021MA1999999099071MD1410001+0001MW1021REMSYN017333   10302 58000
0135827650999991985050512004-07333-047467FM-12+018599999V0202301N00151012001CN0200001N9+02601+02511101681ADDAA124020091AG10999AY161061GF108991081081008001999999KA1240N+02311MA1999999099241MD1999999+0041MW1021REMSYN023333   20231 58004 60204
0102827650999991985050518004-07333-047467FM-12+018599999V0201801N00101045001CN0200001N9+02941+02431101111ADDAA106000091AG10999GF106991031081008001021041MA1999999098731MD1410001+0001MW1171REMSYN011333   58000
0135827650999991985050600004-07333-047467FM-12+018599999V0209991C00001220001CN0200001N9+02321+02251101391ADDAA106002091AG10999AY161061GF100991001001999999001001KA1240M+03101MA1999999098981MD1999999-0091MW1021REMSYN023333   10310 59009 60021
0135827650999991985050612004-07333-047467FM-12+018599999V0200501N00211007501CN0200001N9+02601+02351101571ADDAA124003091AG10999AY161061GF106991051021008001041001KA1240N+02261MA1999999099151MD1999999-0091MW1021REMSYN023333   20226 59009 60034
0091827650999991985050618004-07333-047467FM-12+018599999V0202701N00151045001CN0200001N9+03001+02371101131ADDAG10999GF106991041031008001041071MA1999999098751MD1999999+0021MW1951REMSYN011333   58002
0140827650999991985050700004-07333-047467FM-12+018599999V0200501N00051045001CN0200001N9+02501+02501101401ADDAA106000791AA299001091AG10999AY191061GF106991041051008001031001KA1240M+03081MA1999999099001MD1999999+0021REMSYN023333   10308 58002 69971
0146827650999991985050712004-07333-047467FM-12+018599999V0200301N01181220001CN0200001N9+02641+02251101521ADDAA124000791AA299001091AG10999AY101061GF101991011021008001001011KA1240N+02191MA1999999099111MD1999999-0041MW1021REMSYN023333   20219 59004 69974
0110827650999991985050718004-07333-047467FM-12+018599999V0200901N00211220001CN0200001N9+03081+02211101161ADDAA106000091AG10999AY101061GF103991031021008001001001MA1999999098771MD1999999+0021MW1021REMSYN011333   58002
0129827650999991985050800004-07333-047467FM-12+018599999V0200501N00151220001CN0200001N9+99999+99999101401ADDAA106000091AG10999AY101061GF102991021021008001001001KA1240M+03081MA1999999099001MD1410001+0001MW1021REMSYN017333   10308 58000
0129827650999991985050812004-07333-047467FM-12+018599999V0200501N00151220001CN0200001N9+02701+02241101581ADDAA106000091AG10999AY101061GF104991011001999999041081KA1240N+02201MA1999999099281MD1999999+0071MW1021REMSYN017333   20220 58007
0110827650999991985050818004-07333-047467FM-12+018599999V0200501N00261007501CN0200001N9+03111+02281101121ADDAA106000091AG10999AY101061GF106991051021008001041011MA1999999098741MD1999999-0031MW1021REMSYN011333   59003
0118827650999991985050900004-07333-047467FM-12+018599999V0200901N00101220001CN0200001N9+02581+02311101211ADDAG10999AY101061GF100991001001999999001001KA1240M+03121MA1999999098821MD1999999-0181MW1021REMSYN017333   10312 59018
0110827650999991985050918004-07333-047467FM-12+018599999V0200901N00361045001CN0200001N9+03161+02451100991ADDAA106000091AG10999AY101061GF106991021021008001021051MA1999999098631MD1999999-0111MW1021REMSYN011333   59011
0165827650999991985051012004-07333-047467FM-12+018599999V0200501N001019999999N0200001N9+02521+02361101091ADDAA124000291AA299000391AG10999AY101061GF106991999051008001001001KA1240N+02301MA1999999098981MD1999999-0081MW1021REMSYN023333   20230 59008 69924EQDQ01+000022SCOTLC
0110827650999991985051018004-07333-047467FM-12+018599999V0202301N00211045001CN0200001N9+03201+02301100891ADDAA106000091AG10999AY101061GF107991041021022501031011MA1999999098531MD1999999-0101MW1021REMSYN011333   59010
0135827650999991985051100004-07333-047467FM-12+018599999V0203201N00151007501CN0200001N9+02521+02411101241ADDAA106002091AG10999AY161061GF108991081071008001001001KA1240M+03241MA1999999098841MD1999999-0141MW1021REMSYN023333   10324 59014 60021
0135827650999991985051112004-07333-047467FM-12+018599999V0203601N00051007501CN0200001N9+02241+02221101471ADDAA124020091AG10999AY161061GF108991081051008001999999KA1240N+02131MA1999999099051MD1999999+0071MW1021REMSYN023333   20213 58007 60204
0110827650999991985051118004-07333-047467FM-12+018599999V0203201N00361045001CN0200001N9+02781+02361101101ADDAA106000091AG10999AY101061GF107991031081008001041071MA1999999098711MD1999999+0181MW1021REMSYN011333   58018
0146827650999991985051200004-07333-047467FM-12+018599999V0201801N00101007501CN0200001N9+02361+02281101361ADDAA106001091AA299000091AG10999AY101061GF108991081051008001999999KA1240M+02801MA1999999098931MD1999999+0091MW1021REMSYN023333   10280 58009 60011
0135827650999991985051212004-07333-047467FM-12+018599999V0201401N00051012001CN0200001N9+02411+02281101461ADDAA124001091AG10999AY101061GF107991071081008001001001KA1240N+02241MA1999999099041MD1999999-0011MW1021REMSYN023333   20224 59001 60014
0129827650999991985051218004-07333-047467FM-12+018599999V0201801N00101220001CN0200001N9+03201+02061101031ADDAA106000091AG10999AY101061GF102991021021008001001001MA1999999058642MD1999999-0071MW1021REMSYN011333   59007EQDQ01+058643APOSP 
0146827650999991985051312004-07333-047467FM-12+018599999V0202301N00051007501CN0200001N9+02521+02331101651ADDAA124000491AA299000591AG10999AY151061GF106991051021008001031001KA1240N+02291MA1999999099921MD1999999+0211MW1021REMSYN023333   20229 58021 69944
0129827650999991985051318004-07333-047467FM-12+018599999V0200501N00151045001CN0200001N9+02661+02221101231ADDAA106000091AG10999AY101061GF106991021021008001031051MA1999999098952MD1999999+0211MW1021REMSYN011333   58021EQDQ01+098953APOSP 
0129827650999991985051400004-07333-047467FM-12+018599999V0209991C00001220001CN0200001N9+99999+99999101461ADDAA106000091AG10999AY101061GF100991001001999999001001KA1240M+03081MA1999999099051MD1999999+0181MW1021REMSYN017333   10308 58018
0129827650999991985051412004-07333-047467FM-12+018599999V0200901N00051045001CN0200001N9+02401+02231101771ADDAA106000091AG10999AY101061GF106991031021008001031001KA1240N+02121MA1999999099351MD1999999+0101MW1021REMSYN017333   20212 58010
0127827650999991985051418004-07333-047467FM-12+018599999V0200501N00151045001CN0200001N9+02381+02171101391ADDAA106000491AA299000591AG10999AY151061GF107991021021008001021001MA1999999098971MD1999999+0121MW1511REMSYN017333   58012 69941
0140827650999991985051500004-07333-047467FM-12+018599999V0202701N00101220001CN0200001N9+02401+02351101521ADDAA106000291AA299000391AG10999AY151061GF102991021021008001001001KA1240M+02981MA1999999099101MD1999999+0051REMSYN023333   10298 58005 69921
0146827650999991985051512004-07333-047467FM-12+018599999V0200501N00051220001CN0200001N9+02621+02351101651ADDAA124000691AA299000591AG10999AY101061GF101991011021008001031001KA1240N+02071MA1999999099241MD1999999-0111MW1021REMSYN023333   20207 59011 69964
0146827650999991985051514004-07333-047467FM-12+018599999V0200501N00051220001CN0200001N9+02621+02351101661ADDAA124000691AA299000591AG10999AY101021GF101991011021008001031001KA1240N+02071MA1999999099241MD1999999-0111MW1021REMSYN023333   20207 59011 69964
0135827650999991985051612004-07333-047467FM-12+018599999V0200501N00101220001CN0100001N9+02641+02271101411ADDAA118000291AG10999AY101061GF101991011011012501051001KA1240N+02221MA1999999099021MD1999999-0221MW1021REMSYN023333   20222 59022 69923
0110827650999991985051618004-07333-047467FM-12+018599999V0200901N00361220001CN0200001N9+03201+01891101041ADDAA106000091AG10999AY101061GF102991021021008001001001MA1999999098671MD1999999-0131MW1021REMSYN011333   59013
0129827650999991985051700004-07333-047467FM-12+018599999V0200901N00151220001CN0200001N9+02481+02231101371ADDAA106000091AG10999AY101061GF100991001001999999001001KA1240M+03181MA1999999098971MD1999999-0011MW1021REMSYN017333   10318 59001
0110827650999991985051718004-07333-047467FM-12+018599999V0200901N00311045001CN0200001N9+03081+02071101171ADDAA106000091AG10999AY101061GF106991021021008001041001MA1999999098781MD1999999+0111MW1021REMSYN011333   58011
0129827650999991985051800004-07333-047467FM-12+018599999V0200901N00151220001CN0200001N9+02421+02291101321ADDAA106000091AG10999AY101061GF100991001001999999001001KA1240M+03101MA1999999098971MD1999999-0061MW1021REMSYN017333   10310 59006
0129827650999991985051812004-07333-047467FM-12+018599999V0201401N00101220001CN0200001N9+02581+02101101561ADDAA106000091AG10999AY101061GF101991001001999999011999KA1240N+01951MA1999999099151MD1999999+0011MW1021REMSYN017333   20195 58001
0110827650999991985051818004-07333-047467FM-12+018599999V0201401N00261220001CN0200001N9+03061+02141101191ADDAA106000091AG10999AY101061GF104991031021008001001011MA1999999098801MD1999999+0021MW1021REMSYN011333   58002
0096827650999991985051900004-07333-047467FM-12+018599999V0200901N00101007501CN0200001N9+02481+02231101501ADDAA106000091AG10999AY101061GF105991051021008001001001MA1999999099091MW1021REMSYN011333   70310
0129827650999991985051912004-07333-047467FM-12+018599999V0200901N001019999999N0200001N9+02601+02191101581ADDAA106000091AG10999AY101061GF106991021001008001031011KA1240N+01991MA1999999099171MD1999999+0021MW1021REMSYN017333   20199 58002
0129827650999991985051918004-07333-047467FM-12+018599999V0201401N00151220001CN0200001N9+03101+01971101191ADDAA106000091AG10999AY101061GF102991011011999999001071MA1999999098791MD1999999-0011MW1021REMSYN011333   59001EQDQ01+000992SCOLCB
0129827650999991985052012004-07333-047467FM-12+018599999V0202301N00101007501CN0200001N9+02501+02171101531ADDAA106000091AG10999AY101061GF107991051021008001041001KA1240N+02061MA1999999099111MD1999999-0061MW1021REMSYN017333   20206 59006
0110827650999991985052018004-07333-047467FM-12+018599999V0200901N00151220001CN0200001N9+03001+02241101101ADDAA106000091AG10999AY101061GF103991021021008001001011MA1999999098711MD1999999-0081MW1021REMSYN011333   59008
0129827650999991985052112004-07333-047467FM-12+018599999V0200501N00151220001CN0200001N9+02731+02211101601ADDAA106000091AG10999AY101061GF101991001001999999001011KA1240N+02221MA1999999099201MD1999999+0091MW1021REMSYN017333   20222 58009
0110827650999991985052118004-07333-047467FM-12+018599999V0201401N00261220001CN0200001N9+03181+02161101161ADDAA106000091AG10999AY101061GF102991021021008001001001MA1999999098791MD1999999+0081MW1021REMSYN011333   58008
0129827650999991985052200004-07333-047467FM-12+018599999V0209991C00001220001CN0200001N9+02621+02461101401ADDAA106000091AG10999AY101061GF100991001001999999001001KA1240M+03241MA1999999099011MD1999999+0051MW1021REMSYN017333   10324 58005
0129827650999991985052212004-07333-047467FM-12+018599999V0201401N00101220001CN0200001N9+02581+02121101751ADDAA106000091AG10999AY101061GF101991011001999999041001KA1240N+02141MA1999999099341MD1999999+0141MW1021REMSYN017333   20214 58014
0110827650999991985052218004-07333-047467FM-12+018599999V0201401N00101045001CN0200001N9+03181+02311101211ADDAA106000091AG10999AY101061GF106991021021008001041001MA1999999098831MD1999999+0041MW1021REMSYN011333   58004
0129827650999991985052300004-07333-047467FM-12+018599999V0203601N00101220001CN0200001N9+02511+02211101311ADDAA106000091AG10999AY101061GF100991001001999999001001KA1240M+03181MA1999999098911MD1999999-0101MW1021REMSYN017333   10318 59010
0129827650999991985052312004-07333-047467FM-12+018599999V0200901N00101220001CN0200001N9+02601+02271101511ADDAA106000091AG10999AY101061GF105991021021004501001041KA1240N+02051MA1999999099101MD1999999-0241MW1021REMSYN017333   20205 59024
0110827650999991985052318004-07333-047467FM-12+018599999V0203601N00151012001CN0200001N9+03041+02281101201ADDAA106000091AG10999AY101061GF106991051081008001001041MA1999999098801MD1999999-0031MW1021REMSYN011333   59003
0129827650999991985052412004-07333-047467FM-12+018599999V0201501N00051220001CN0200001N9+02651+02251101601ADDAA106000091AG10999AY101061GF102991011021008001041001KA1240N+02251MA1999999099201MD1999999+0101MW1021REMSYN017333   20225 58010
0129827650999991985052500004-07333-047467FM-12+018599999V0200901N00101220001CN0200001N9+02501+02211101441ADDAA106000091AG10999AY101061GF101991011001999999041001KA1240M+03121MA1999999099041MD1999999-0021MW1021REMSYN017333   10312 59002
0129827650999991985052512004-07333-047467FM-12+018599999V0201401N00261220001CN0200001N9+02641+02181101671ADDAA106000091AG10999AY101061GF101991011001999999021001KA1240N+02561MA1999999099261MD1999999+0061MW1021REMSYN017333   20256 58006
0110827650999991985052518004-07333-047467FM-12+018599999V0200901N00261220001CN0200001N9+03191+02091101301ADDAA106000091AG10999AY101061GF102991021021008001001001MA1999999098921MD1999999+0041MW1021REMSYN011333   58004
0129827650999991985052612004-07333-047467FM-12+018599999V0200901N00151220001CN0200001N9+02541+02041101711ADDAA106000091AG10999AY101061GF100991001001999999001001KA1240N+01911MA1999999099291MD1999999+0031MW1021REMSYN017333   20191 58003
0110827650999991985052618004-07333-047467FM-12+018599999V0201401N00311220001CN0200001N9+03201+01961101311ADDAA106000091AG10999AY101061GF104991041021008001001001MA1999999098921MD1410001+0001MW1021REMSYN011333   58000
0129827650999991985052700004-07333-047467FM-12+018599999V0200501N00101220001CN0200001N9+02501+02291101481ADDAA106000091AG10999AY101061GF100991001001999999001001KA1240M+03181MA1999999099061MD1999999-0031MW1021REMSYN017333   10318 59003
0129827650999991985052712004-07333-047467FM-12+018599999V0200901N00261220001CN0200001N9+02721+02051101671ADDAA106000091AG10999AY101061GF100991001001999999001001KA1240N+02041MA1999999099261MD1999999+0031MW1021REMSYN017333   20204 58003
0129827650999991985052718004-07333-047467FM-12+018599999V0201401N00311220001CN0200001N9+03191+02181101251ADDAA106000091AG10999AY101061GF104991999021008001001001MA1999999098871MD1999999-0051MW1021REMSYN011333   59005EQDQ01+000032SCOTLC
0129827650999991985052800004-07333-047467FM-12+018599999V0200901N00151220001CN0200001N9+02521+02171101391ADDAA106000091AG10999AY101061GF100991001001999999001001KA1240M+03211MA1999999098991MD1999999-0071MW1021REMSYN017333   10321 59007
0129827650999991985052812004-07333-047467FM-12+018599999V0200901N00151220001CN0200001N9+02561+02111101491ADDAA106000091AG10999AY101061GF100991001001999999001001KA1240N+02011MA1999999099081MD1999999-0181MW1021REMSYN017333   20201 59018
0110827650999991985052818004-07333-047467FM-12+018599999V0200901N00361220001CN0200001N9+03261+02151101141ADDAA106000091AG10999AY101061GF102991021021008001001011MA1999999098771MD1999999-0101MW1021REMSYN011333   59010
0129827650999991985052918004-07333-047467FM-12+018599999V0200301N003119999999N0200001N9+03221+01841101161ADDAA106000091AG10999AY101061GF105991999001999999041001MA1999999098781MD1999999+0011MW1021REMSYN011333   58001EQDQ01+000012SCOTLC
0129827650999991985053012004-07333-047467FM-12+018599999V0201401N00151220001CN0200001N9+02521+02071101651ADDAA106000091AG10999AY101061GF100991001001999999001001KA1240N+01911MA1999999099231MD1999999+0101MW1021REMSYN017333   20191 58010
0110827650999991985053018004-07333-047467FM-12+018599999V0200901N00311220001CN0200001N9+03401+02291101171ADDAA106000091AG10999AY101061GF101991011011008001001001MA1999999098801MD1999999+0021MW1021REMSYN011333   58002
0129827650999991985053100004-07333-047467FM-12+018599999V0200901N00151220001CN0200001N9+02481+02191101461ADDAA106000091AG10999AY101061GF104991001001999999001041KA1240M+03381MA1999999099051MD1999999+0031MW1021REMSYN017333   10338 58003
0129827650999991985053112004-07333-047467FM-12+018599999V0200901N00311220001CN0200001N9+02641+02271101671ADDAA106000091AG10999AY101061GF101991011001999999041001KA1240N+01911MA1999999099261MD1999999+0031MW1021REMSYN017333   20191 58003
0110827650999991985053118004-07333-047467FM-12+018599999V0200901N00411220001CN0200001N9+03251+02101101241ADDAA106000091AG10999AY101061GF102991021021008001001001MA1999999098861MD1999999+0061MW1021REMSYN011333   58006
0110827650999991985060118004-07333-047467FM-12+018599999V0201401N00311220001CN0200001N9+03271+02171101221ADDAA106000091AG10999AY101061GF104991041021008001001001MA1999999098841MD1999999-0021MW1021REMSYN011333   59002
0129827650999991985060212004-07333-047467FM-12+018599999V0201401N00101220001CN0200001N9+02601+02031101511ADDAA106000091AG10999AY101061GF101991011011008001001001KA1240N+01911MA1999999099101MD1999999-0121MW1021REMSYN017333   20191 59012
0110827650999991985060218004-07333-047467FM-12+018599999V0200901N00151220001CN0200001N9+03201+02151101101ADDAA106000091AG10999AY101061GF103991031021008001001001MA1999999098721MD1999999-0121MW1021REMSYN011333   59012
0148827650999991985060300004-07333-047467FM-12+018599999V0200501N001019999999N0200001N9+02521+02151101301ADDAA106000091AG10999AY101061GF105991999001012501031001KA1240M+03241MA1999999098901MD1999999-0061MW1021REMSYN017333   10324 59006EQDQ01+000022SCOTLC
0129827650999991985060312004-07333-047467FM-12+018599999V0201401N00151220001CN0200001N9+02491+02031101461ADDAA106000091AG10999AY101061GF101991011001999999041001KA1240N+01891MA1999999099041MD1999999-0051MW1021REMSYN017333   20189 59005
0110827650999991985060318004-07333-047467FM-12+018599999V0201401N00261045001CN0200001N9+03241+01961101111ADDAA106000091AG10999AY101061GF105991041021008001041001MA1999999098731MD1999999+0011MW1021REMSYN011333   58001
0129827650999991985060400004-07333-047467FM-12+018599999V0203201N00051015001CN0200001N9+02681+02311101361ADDAA106000091AG10999AY101061GF105991051001017501031001KA1240M+03221MA1999999098961MD1999999+0061MW1021REMSYN017333   10322 58006
0129827650999991985060412004-07333-047467FM-12+018599999V0201801N00101220001CN0200001N9+02681+02161101551ADDAA106000091AG10999AY101061GF104991011001017501041011KA1240N+02101MA1999999099161MD1999999+0111MW1021REMSYN017333   20210 58011
0110827650999991985060418004-07333-047467FM-12+018599999V0202301N00151045001CN0200001N9+03261+02051101101ADDAA106000091AG10999AY101061GF106991011021008001041071MA1999999098731MD1410001+0001MW1021REMSYN011333   58000
0129827650999991985060500004-07333-047467FM-12+018599999V0200501N00051012001CN0200001N9+02541+02191101381ADDAA106000091AG10999AY101061GF108991081081008001999999KA1240M+03351MA1999999098981MD1999999+0021MW1021REMSYN017333   10335 58002
0129827650999991985060512004-07333-047467FM-12+018599999V0201401N00051007501CN0200001N9+02421+02171101751ADDAA106000091AG10999AY101061GF108991061051008001041999KA1240N+02261MA1999999099331MD1999999+0171MW1021REMSYN017333   20226 58017
0116827650999991985060518004-07333-047467FM-12+018599999V0203201N00151045001CN0100001N9+02841+02291101351ADDAA106006091AG10999AY161061GF107991041021008001021999MA1999999098961MD1999999+0701MW1021REMSYN017333   58070 60061
0135827650999991985060612004-07333-047467FM-12+018599999V0202701N00151045001CN0200001N9+02721+02281101691ADDAA124006091AG10001AY101061GF106991021011008001041011KA1240N+02251MA1999999099281MD1999999-0051MW1021REMSYN023333   20225 59005 60064
0110827650999991985060618004-07333-047467FM-12+018599999V0201401N00101007501CN0200001N9+02401+02171101711ADDAA106000091AG10999AY101061GF108991081071008001999999MA1999999099131MD1999999+0141MW1021REMSYN011333   58014
0146827650999991985060700004-07333-047467FM-12+018599999V0209991C00001007501CN0200001N9+02241+02191101681ADDAA106000791AA299001091AG10999AY161061GF108991081051008001999999KA1240M+02961MA1999999099261MD1999999+0131MW1021REMSYN023333   10296 58013 69971
0146827650999991985060712004-07333-047467FM-12+018599999V0201801N00151007501CN0200001N9+02351+02281101891ADDAA124000791AA299001091AG10999AY141061GF107991051021008001031001KA1240N+02131MA1999999099451MD1999999+0171MW1021REMSYN023333   20213 58017 69974
0115827650999991985061200004-07333-047467FM-12+018599999V0201801N00151220001CN0200001N9+02601+02191101891ADDAA106000091AG10999GF104991021051008001031001KA1240M+03101MA1999999099461MD1999999+0071REMSYN017333   10310 58007
0115827650999991985061212004-07333-047467FM-12+018599999V0201401N00151007501CN0200001N9+02381+02111101991ADDAA106000091AG10999GF107991061021008001031001KA1240N+02101MA1999999099671MD1999999-0141REMSYN017333   20210 59014
0096827650999991985061218004-07333-047467FM-12+018599999V0200501N00051012001CN0200001N9+02851+02261101621ADDAA106000091AG10999GF107991061081008001041999MA1999999099221MD1999999-0061REMSYN011333   59006
0095827650999991985061300004-07333-047467FM-12+018599999V0202301N00151007501CN0200001N9+02501+99999101821ADDAA106000091AG10999GF106991061051008001001001KA1240M+02941MA1999999099401REMSYN011333   10294
0134827650999991985061312004-07333-047467FM-12+018599999V0201401N00051220001CN0200001N9+02571+02041101951ADDAA106000091AG10999GF101991001001999999001041KA1240N+02081MA1999999099531MD1999999-0041REMSYN017333   20208 59004EQDQ01+000012SCOTLC
0096827650999991985061318004-07333-047467FM-12+018599999V0200901N00361007501CN0200001N9+03101+01581101531ADDAA106000091AG10999GF107991051021008001041041MA1999999099141MD1999999-0081REMSYN011333   59008
0115827650999991985061400004-07333-047467FM-12+018599999V0200901N00151220001CN0200001N9+02501+02001101731ADDAA106000091AG10999GF100991001001999999001001KA1240M+03201MA1999999099321MD1999999+0081REMSYN017333   10320 58008
0115827650999991985061412004-07333-047467FM-12+018599999V0200901N00101220001CN0200001N9+02551+02041101881ADDAA106000091AG10999GF101991011001999999041011KA1240N+01531MA1999999099461MD1999999-0071REMSYN017333   20153 59007
0115827650999991985061512004-07333-047467FM-12+018599999V0200501N00051220001CN0200001N9+02651+02071101861ADDAA106000091AG10999GF101991011001999999041001KA1240N+02051MA1999999099441MD1999999-0021REMSYN017333   20205 59002
0096827650999991985061518004-07333-047467FM-12+018599999V0200901N00261220001CN0200001N9+03241+01931101471ADDAA106000091AG10999GF102991021021008001001001MA1999999099091MD1410001+0001REMSYN011333   58000
0115827650999991985061612004-07333-047467FM-12+018599999V0200501N00101220001CN0200001N9+02601+02011101731ADDAA106000091AG10999GF100991001001999999001001KA1240N+01941MA1999999099321MD1999999-0121REMSYN017333   20194 59012
0096827650999991985061618004-07333-047467FM-12+018599999V0201401N00261220001CN0200001N9+03201+02031101381ADDAA106000091AG10999GF104991041011008001001001MA1999999098981MD1999999-0111REMSYN011333   59011
0115827650999991985061700004-07333-047467FM-12+018599999V0200901N00101220001CN0200001N9+02491+02031101631ADDAA106000091AG10999GF100991001001999999001001KA1240M+03241MA1999999099251MD1410001+0001REMSYN017333   10324 58000
0115827650999991985061712004-07333-047467FM-12+018599999V0202301N00101220001CN0200001N9+02541+02041101811ADDAA106000091AG10999GF101991011001999999041001KA1240N+01961MA1999999099091MD1999999+0071REMSYN017333   20196 58007
0096827650999991985061718004-07333-047467FM-12+018599999V0201401N00311045001CN0200001N9+03201+02031101411ADDAA106000091AG10999GF106991041021008001041021MA1999999099031MD1999999+0051REMSYN011333   58005
0115827650999991985061800004-07333-047467FM-12+018599999V0209991C00001220001CN0200001N9+02681+02331101671ADDAA106000091AG10999GF102991021021008001001001KA1240M+03321MA1999999099261MD1999999+0041REMSYN017333   10332 58004
0115827650999991985061812004-07333-047467FM-12+018599999V0201401N000519999999N0100001N9+02521+02311101871ADDAA106000091AG10999GF108991081001004501071999KA1240N+02261MA1999999099461MD1999999+0071REMSYN017333   20226 58007
0115827650999991985061900004-07333-047467FM-12+018599999V0209991C00001007501CN0200001N9+02561+02351101681ADDAA106000091AG10999GF105991051001008001021001KA1240M+03281MA1999999099271MD1999999+0011REMSYN017333   10328 58001
0115827650999991985061912004-07333-047467FM-12+018599999V0200901N00101045001CN0200001N9+02631+02211101871ADDAA106000091AG10999GF106991061001999999041001KA1240N+02281MA1999999099461MD1410001+0001REMSYN017333   20228 58000
0096827650999991985061918004-07333-047467FM-12+018599999V0200901N00461045001CN0200001N9+03031+02041101451ADDAA106000091AG10999GF106991041081008001041021MA1999999099061MD1999999+0051REMSYN011333   58005
0115827650999991985062000004-07333-047467FM-12+018599999V0200901N00051012001CN0200001N9+02601+02191101621ADDAA106000091AG10999GF106991061081008001001001KA1240M+03241MA1999999099281MD1999999+0011REMSYN017333   10324 58001
0134827650999991985062012004-07333-047467FM-12+018599999V0200901N00411220001CN0200001N9+02551+01981101861ADDAA106000091AG10999GF104991999001008001041001KA1240N+02091MA1999999099441MD1999999-0021REMSYN017333   20209 59002EQDQ01+000012SCOTLC
0096827650999991985062018004-07333-047467FM-12+018599999V0200901N00311220001CN0200001N9+03121+02021101481ADDAA106000091AG10999GF104991041011008001001001MA1999999099081MD1999999+0021REMSYN011333   58002
0115827650999991985062100004-07333-047467FM-12+018599999V0200901N00151220001CN0200001N9+02521+02091101761ADDAA106000091AG10999GF100991001001999999001001KA1240M+03131MA1999999099351MD1999999+0071REMSYN017333   10313 58007
0115827650999991985062112004-07333-047467FM-12+018599999V0200901N00411220001CN0200001N9+02621+01911101801ADDAA106000091AG10999GF104991041001017501031001KA1240N+02111MA1999999099491MD1999999+0051REMSYN017333   20211 58005
0096827650999991985062118004-07333-047467FM-12+018599999V0200901N00311045001CN0200001N9+02861+02011101671ADDAA106000091AG10999GF106991021021008001031001MA1999999099261MD1999999+0181REMSYN011333   58018
0096827650999991985062218004-07333-047467FM-12+018599999V0200901N00261220001CN0200001N9+03261+02181101511ADDAA106000091AG10999GF103991011011008001031001MA1999999099121MD1999999-0141REMSYN011333   59014
0115827650999991985062300004-07333-047467FM-12+018599999V0200901N00151220001CN0200001N9+02501+02051101691ADDAA106000091AG10999GF100991001001999999001001KA1240M+03281MA1999999099271MD1999999-0111REMSYN017333   10328 59011
0115827650999991985062312004-07333-047467FM-12+018599999V0200901N00511220001CN0200001N9+02821+02071101771ADDAA106000091AG10999GF100991001001999999001001KA1240N+02011MA1999999099371MD1999999-0061REMSYN017333   20201 59006
0096827650999991985062318004-07333-047467FM-12+018599999V0200101N00211220001CN0200001N9+03361+01511101381ADDAA106000091AG10999GF102991021011008001001001MA1999999099011MD1999999-0111REMSYN011333   59011
0115827650999991985062400004-07333-047467FM-12+018599999V0200901N00151220001CN0200001N9+02601+02031101611ADDAA106000091AG10999GF102991021011008001001001KA1240M+03321MA1999999099221MD1999999-0051REMSYN017333   10332 59005
0115827650999991985062412004-07333-047467FM-12+018599999V0200901N00411220001CN0200001N9+02661+01951101701ADDAA106000091AG10999GF100991001001999999001001KA1240N+01971MA1999999099301MD1999999+0071REMSYN017333   20197 58007
0096827650999991985062418004-07333-047467FM-12+018599999V0201401N00361220001CN0200001N9+03241+01861101311ADDAA106000091AG10999GF100991001001999999001001MA1999999098931MD1999999-0081REMSYN011333   59008
0115827650999991985062512004-07333-047467FM-12+018599999V0200901N00311220001CN0200001N9+02641+01851101761ADDAA106000091AG10999GF102991001001999999001011KA1240N+01801MA1999999099351MD1999999+0051REMSYN017333   20180 58005
0096827650999991985062518004-07333-047467FM-12+018599999V0200901N00361105001CN0200001N9+03131+01801101401ADDAA106000091AG10999GF106991021021008001001071MA1999999099001MD1999999+0071REMSYN011333   58007
0115827650999991985062612004-07333-047467FM-12+018599999V0200901N00311220001CN0200001N9+02561+01931101831ADDAA106000091AG10999GF102991021001999999041011KA1240N+01771MA1999999099411MD1999999+0061REMSYN017333   20177 58006
0096827650999991985062618004-07333-047467FM-12+018599999V0200901N00411220001CN0200001N9+03161+01891101481ADDAA106000091AG10999GF102991011011008001001011MA1999999099081MD1999999+0081REMSYN011333   58008
0115827650999991985062700004-07333-047467FM-12+018599999V0200901N00151220001CN0200001N9+02241+01831101501ADDAA106000091AG10999GF103991999999999999999999KA1240M+03181MA1999999099281MD1999999+0051REMSYN017333   10318 58005
0115827650999991985062712004-07333-047467FM-12+018599999V0200901N00151220001CN0200001N9+02421+01771101881ADDAA106000091AG10999GF100991001001999999001001KA1240N+01711MA1999999099451MD1999999+0041REMSYN017333   20171 58004
0096827650999991985062718004-07333-047467FM-12+018599999V0201401N00311220001CN0200001N9+03221+01481101541ADDAA106000091AG10999GF102991021021008001001001MA1999999099251MD1999999+0071REMSYN011333   58007
0134827650999991985062800004-07333-047467FM-12+018599999V0200901N00051220001CN0200001N9+02501+02071101771ADDAA106000091AG10999GF100991001001999999001001KA1240M+03261MA1999999100332MD1999999+0051REMSYN017333   10326 58005EQDQ01+100333APOSP 
0115827650999991985062812004-07333-047467FM-12+018599999V0203201N00051220001CN0200001N9+02441+01831101731ADDAA106000091AG10999GF100991001001999999001001KA1240N+01671MA1999999099321MD1999999-0131REMSYN017333   20167 59013
0096827650999991985062818004-07333-047467FM-12+018599999V0200901N00151220001CN0200001N9+03241+01411101341ADDAA106000091AG10999GF102991021021008001001001MA1999999098951MD1999999-0201REMSYN011333   59020
0115827650999991985062900004-07333-047467FM-12+018599999V0200901N00051220001CN0200001N9+02401+01901101551ADDAA106000091AG10999GF100991001001999999001001KA1240M+03261MA1999999099131MD1999999-0201REMSYN017333   10326 59020
0115827650999991985062912004-07333-047467FM-12+018599999V0201401N00101220001CN0200001N9+02461+01881101701ADDAA106000091AG10999GF102991001001999999001011KA1240N+01751MA1999999099281MD1999999-0041REMSYN017333   20175 59004
0096827650999991985062918004-07333-047467FM-12+018599999V0201401N00311220001CN0200001N9+03231+01881101271ADDAA106000091AG10999GF101991011011008001001011MA1999999098831MD1999999-0121REMSYN011333   59012
0115827650999991985063012004-07333-047467FM-12+018599999V0200501N00101220001CN0200001N9+02581+01941101751ADDAA106000091AG10999GF100991001001999999001001KA1240N+01831MA1999999099341MD1999999+0061REMSYN017333   20183 58006
0115827650999991985070100004-07333-047467FM-12+018599999V0200501N00101220001CN0200001N9+02401+99999101541ADDAA106000091AG10999GF100991001001999999001001KA1240M+03331MA1999999099221MD1999999+0171REMSYN017333   10333 58017
0115827650999991985070112004-07333-047467FM-12+018599999V0201401N00211045001CN0200001N9+02491+01921101981ADDAA106000091AG10999GF106991061001999999031001KA1240N+01871MA1999999099561MD1999999+0311REMSYN017333   20187 58031
0096827650999991985070118004-07333-047467FM-12+018599999V0200901N00361007501CN0200001N9+03061+02111101581ADDAA106000091AG10999GF106991051021008001001011MA1999999099181MD1999999+0211REMSYN011333   58021
0115827650999991985070212004-07333-047467FM-12+018599999V0209991C00001220001CN0200001N9+02451+01991101821ADDAA106000091AG10999GF101991001001999999091999KA1240M+03141MA1999999099401MD1999999+0181REMSYN017333   10314 58018
0062827650999991985070218004-07333-047467FM-12+018599999V0200901N00261007501CN0200001N9+03321+01971101651ADDAA106000091AG10999GF106991061021008001001001MA1999999099261
0115827650999991985070300004-07333-047467FM-12+018599999V0200901N00151045001CN0200001N9+02711+01961101761ADDAA106000091AG10999GF107991071001999999031001KA1240M+03361MA1999999099361MD1999999+0161REMSYN017333   10336 58016
0115827650999991985070312004-07333-047467FM-12+018599999V0200901N00151220001CN0200001N9+02621+02011101891ADDAA106000091AG10999GF100991001001999999001001KA1240N+02011MA1999999099881MD1999999-0191REMSYN017333   20201 59019
0115827650999991985070318004-07333-047467FM-12+018599999V0200501N00361220001CN0200001N9+03361+02001101441ADDAA106000091AG10999GF102991021021008001001001MA1999999099062MD1999999-0201REMSYN011333   59020EQDQ01+099063APOSP 
0115827650999991985070400004-07333-047467FM-12+018599999V0200501N00151220001CN0200001N9+02531+01981101651ADDAA106000091AG10999GF103991031021008001001001KA1240M+03381MA1999999099241MD1999999-0121REMSYN017333   10338 59012
0134827650999991985070412004-07333-047467FM-12+018599999V0200501N00151220001CN0200001N9+02691+02021101781ADDAA106000091AG10999GF102991001001999999001011KA1240N+02021MA1999999099371MD1999999-0111REMSYN017333   20202 59011EQDQ01+000022SCOTLC
0115827650999991985070500004-07333-047467FM-12+018599999V0200501N00151220001CN0200001N9+02351+02131101661ADDAA106000091AG10999GF101991011011008001001001KA1240M+03401MA1999999099251MD1999999+0011REMSYN017333   10340 58001
0115827650999991985070512004-07333-047467FM-12+018599999V0200901N00151220001CN0200001N9+02681+02091101891ADDAA106000091AG10999GF100991001001999999001001KA1240N+02051MA1999999099471MD1999999+0101REMSYN017333   20205 58010
0096827650999991985070518004-07333-047467FM-12+018599999V0200901N00261220001CN0200001N9+03761+01911101401ADDAA106000091AG10999GF103991031021008001001001MA1999999099021MD1999999-0061REMSYN011333   59006
0115827650999991985070612004-07333-047467FM-12+018599999V0201401N00151220001CN0200001N9+02541+01911101851ADDAA106000091AG10999GF100991001001999999001001KA1240N+01871MA1999999099431MD1999999-0041REMSYN017333   20187 59004
0115827650999991985070712004-07333-047467FM-12+018599999V0203201N00051220001CN0200001N9+02461+01991101711ADDAA106000091AG10999GF102991001001999999001011KA1240N+01791MA1999999099301MD1999999-0131REMSYN017333   20179 59013
0096827650999991985070718004-07333-047467FM-12+018599999V0200901N00311007501CN0200001N9+03341+01491101311ADDAA106000091AG10999GF105991051051008001001001MA1999999098931MD1999999-0161REMSYN011333   59016
0135827650999991985070812004-07333-047467FM-12+018599999V0201401N00051007501CN0200001N9+02501+02211101631ADDAA124008091AG10999AY191061GF105991051021008001001001KA1240N+02191MA1999999099221MD1999999-0081MW1021REMSYN023333   20219 59008 60084
0127827650999991985070818004-07333-047467FM-12+018599999V0202301N00151012001CN0200001N9+02701+02371101221ADDAA106000691AA299000591AG10999AY151061GF106991061081008001041001MA1999999098821MD1999999-0111MW1021REMSYN017333   59011 69961
0151827650999991985070912004-07333-047467FM-12+018599999V0200501N00411220001CN0200001N9+02661+02181101741ADDAA124000691AA299000591AG10999GF103991999001008001031001KA1240N+02031MA1999999099331MD1999999-0111REMSYN023333   20203 59011 69964EQDQ01+000012SCOTLC
0096827650999991985070918004-07333-047467FM-12+018599999V0201401N00311220001CN0200001N9+03261+02021101261ADDAA106000091AG10999GF104991041021008001001001MA1999999098881MD1999999+0061REMSYN011333   58006
0104827650999991985071012004-07333-047467FM-12+018599999V0200901N00151220001CN0200001N9+02721+02121101851ADDAG10001GF102991021021008001001001KA1240N+02021MA1999999099441MD1999999+0111REMSYN017333   20202 58011
0096827650999991985071018004-07333-047467FM-12+018599999V0201401N00361220001CN0200001N9+03291+02141101371ADDAA106000091AG10999GF104991031021008001041001MA1999999098981MD1999999+0101REMSYN011333   58010
0115827650999991985071100004-07333-047467FM-12+018599999V0200501N00101220001CN0200001N9+02621+02051101471ADDAA106000091AG10999GF100991001001999999001001KA1240M+03351MA1999999099071MD1999999-0071REMSYN017333   10335 59007
0115827650999991985071112004-07333-047467FM-12+018599999V0200501N00101220001CN0200001N9+02621+02051101471ADDAA106000091AG10999GF100991001001999999001001KA1240M+03351MA1999999099071MD1999999-0071REMSYN017333   10335 59007
0115827650999991985071200004-07333-047467FM-12+018599999V0200901N00101220001CN0200001N9+02651+01801101431ADDAA106000091AG10999GF100991001001999999001001KA1240M+03401MA1999999099041MD1999999-0031REMSYN017333   10340 59003
0115827650999991985071212004-07333-047467FM-12+018599999V0200901N00461220001CN0200001N9+02741+02001101811ADDAA106000091AG10999GF101991011001999999031011KA1240N+02211MA1999999099411MD1999999+0111REMSYN017333   20221 58011
0096827650999991985071218004-07333-047467FM-12+018599999V0200901N00411220001CN0100001N9+02251+01741101411ADDAA106000091AG10999GF101991011011004501001001MA1999999099031MD1999999+0181REMSYN011333   58018
0115827650999991985071312004-07333-047467FM-12+018599999V0200901N00411220001CN0200001N9+02561+01731102011ADDAA106000091AG10999GF102991011001999999031011KA1240N+02071MA1999999099591MD1999999+0181REMSYN017333   20207 58018
0115827650999991985071412004-07333-047467FM-12+018599999V0200901N00361220001CN0200001N9+02581+01801101961ADDAA106000091AG10999GF101991001001999999001011KA1240N+02021MA1999999099551MD1999999-0041REMSYN017333   20202 59004
0096827650999991985071418004-07333-047467FM-12+018599999V0200901N00361007501CN0200001N9+03121+01821101511ADDAA106000091AG10999GF106991061021008001001001MA1999999099121MD1999999-0101REMSYN011333   59010
0115827650999991985071512004-07333-047467FM-12+018599999V0200901N00461220001CN0200001N9+02521+01721101821ADDAA106000091AG10999GF100991001001999999001001KA1240N+01891MA1999999099411MD1999999-0141REMSYN017333   20189 59014
0115827650999991985071600004-07333-047467FM-12+018599999V0200901N00101220001CN9999999N9+02581+01821101661ADDAA106000091AG10999GF102991021001999999031001KA1240M+03221MA1999999099251MD1999999-0071REMSYN017333   10322 59007
0115827650999991985071612004-07333-047467FM-12+018599999V0200901N00101045001CN0200001N9+02641+01801101811ADDAA106000091AG10999GF106991061001999999031001KA1240N+02261MA1999999099401MD1999999-0011REMSYN017333   20226 59001
0096827650999991985071618004-07333-047467FM-12+018599999V0200901N00311007501CN0200001N9+03021+01831101411ADDAA106000091AG10999GF107991071021008001001001MA1999999099031MD1999999+0071REMSYN011333   58007
0115827650999991985071712004-07333-047467FM-12+018599999V0200501N00511045001CN0200001N9+02641+01661101851ADDAA106000091AG10999GF106991061001999999031001KA1240N+01851MA1999999099441MD1999999+0041REMSYN017333   20185 58004
0115827650999991985071812004-07333-047467FM-12+018599999V0200901N00511220001CN0200001N9+02571+01691101861ADDAA106000091AG10999GF101991001001999999001011KA1240N+01691MA1999999099451MD1999999+0011REMSYN017333   20169 58001
0096827650999991985071818004-07333-047467FM-12+018599999V0200901N00511007501CN0200001N9+03181+01831101511ADDAA106000091AG10999GF106991061021008001001001MA1999999099111MD1999999+0031REMSYN011333   58003
0115827650999991985071900004-07333-047467FM-12+018599999V0200501N00151220001CN0200001N9+02501+01771101751ADDAA106000091AG10999GF100991001001999999001001KA1240M+03221MA1999999099341MD1999999+0121REMSYN017333   10322 58012
0096827650999991985071918004-07333-047467FM-12+018599999V0200901N00461220001CN0200001N9+03161+01711101521ADDAA106000091AG10999GF103991031021008001001001MA1999999099131MD1999999+0021REMSYN011333   58002
0096827650999991985072018004-07333-047467FM-12+018599999V0200901N00211220001CN0200001N9+03101+01421101531ADDAA106000091AG10999GF100991001001999999001001MA1999999099141MD1999999+0011REMSYN011333   58001
0115827650999991985072112004-07333-047467FM-12+018599999V0200901N00571220001CN0200001N9+02501+01591101731ADDAA106000091AG10999GF100991001001999999001001KA1240N+01681MA1999999099311MD1999999-0221REMSYN017333   20168 59022
0096827650999991985072118004-07333-047467FM-12+018599999V0200901N00151220001CN0200001N9+03201+01461101331ADDAA106000091AG10999GF101991011011008001001001MA1999999098951MD1999999-0191REMSYN011333   59019
0115827650999991985072212004-07333-047467FM-12+018599999V0200901N00511220001CN0200001N9+02581+01741101721ADDAA106000091AG10999GF100991001001999999001001KA1240N+01711MA1999999099311MD1410001+0001REMSYN017333   20171 58000
0062827650999991985072218004-07333-047467FM-12+018599999V0200501N00211220001CN0200001N9+03221+01521101331ADDAA106000091AG10001GF103991031021008001001001MA1999999098941
0115827650999991985072312004-07333-047467FM-12+018599999V0201401N00151220001CN0200001N9+02601+01871101671ADDAA106000091AG10999GF103991001001999999001011KA1240N+01971MA1999999099261MD1999999-0051REMSYN017333   20197 59005
