0129827840999991985010100004-07317-039300FM-12+040999999V0201801N00211007501CN9999999N9+02371+01821101031ADDAA106000091AG10999AY101061GF108991081071008001999999KA1240M+03271MA1999999096371MD1999999+0181MW1021REMSYN017333   10327 58018
0129827840999991985010112004-07317-039300FM-12+040999999V0200501N00101007501CN0200001N9+02501+02051101301ADDAA106000091AG10999AY101061GF108991081051008001999999KA1240N+02271MA1999999096631MD1999999+0041MW1021REMSYN017333   20227 58004
0110827840999991985010118004-07317-039300FM-12+040999999V0200501N00211220001CN0200001N9+03221+01731100721ADDAA106000091AG10999AY101061GF104991041021008001001001MA1999999096111MD1999999+0011MW1021REMSYN011333   58001
0129827840999991985010200004-07317-039300FM-12+040999999V0203201N00051220001CN9999999N9+02601+02141101001ADDAA106000091AG10999AY101061GF101991011081008001001001KA1240M+03341MA1999999096351MD1999999-0021MW1021REMSYN017333   10334 59002
0110827840999991985010218004-07317-039300FM-12+040999999V0203601N00211220001CN0200001N9+03111+01801100701ADDAA106000091AG10999AY101061GF103991021021008001061001MA1999999096091MD1999999-0021MW1021REMSYN011333   59002
0129827840999991985010300004-07317-039300FM-12+040999999V0202701N00051220001CN9999999N9+02661+01971100861ADDAA106000091AG10999AY101061GF100991001001999999001001KA1240M+03181MA1999999096231MD1999999-0121MW1021REMSYN017333   10318 59012
0129827840999991985010312004-07317-039300FM-12+040999999V0203601N00261012001CN0200001N9+02631+01881101181ADDAA106000091AG10999AY101061GF106991051081008001061001KA1240N+02341MA1999999096541MD1999999+0011MW1021REMSYN017333   20234 58001
0110827840999991985010318004-07317-039300FM-12+040999999V0203201N00211220001CN0200001N9+03241+01751100691ADDAA106000091AG10999AY101061GF102991021021008001001001MA1999999096081MD1999999-0011MW1021REMSYN011333   59001
0129827840999991985010400004-07317-039300FM-12+040999999V0209991C00001012001CN9999999N9+02691+01941100861ADDAA106000091AG10999AY101061GF105991051081008001001001KA1240M+03291MA1999999096231MD1410001+0001MW1021REMSYN017333   10329 58000
0135827840999991985010412004-07317-039300FM-12+040999999V0201401N00051007501CN0200001N9+02261+02091101231ADDAA124026091AG10999AY161061GF108991081051008001999999KA1240N+02191MA1999999096571MD1999999+0031MW1211REMSYN023333   20219 58003 60264
0129827840999991985010500004-07317-039300FM-12+040999999V0200901N00051045001CN9999999N9+02401+02211101061ADDAA106000091AG10999AY181061GF106991031081008001071001KA1240M+03161MA1999999096391MD1999999+0161MW1021REMSYN017333   10316 58016
0154827840999991985010512004-07317-039300FM-12+040999999V0200501N00211012001CN0200001N9+02641+02051101301ADDAA124007091AG10999AY161061GF108991999081008001001001KA1240N+02311MA1999999094641MD1999999+0071MW1021REMSYN023333   20231 58007 60074EQDQ01+000062SCOTLC
0129827840999991985010518004-07317-039300FM-12+040999999V0200501N00151012001CN0200001N9+03191+01611100811ADDAA106000091AG10999AY101061GF106991051081008001061001MA1999999096202MD1999999+0071MW1021REMSYN011333   58007EQDQ01+096203APOSP 
0129827840999991985010600004-07317-039300FM-12+040999999V0201401N00151012001CN9999999N9+02801+01721101051ADDAA106000091AG10999AY101061GF108991081081008001999999KA1240M+03291MA1999999096421MD1999999+0031MW1021REMSYN017333   10329 58003
0121827840999991985010612004-07317-039300FM-12+040999999V0200501N00151012001CN0200001N9+02761+01991101421ADDAA124000191AG10999GF107991071081008001001001KA1240N+02461MA1999999096611MD1999999-0031REMSYN023333   20246 59003 69914
0110827840999991985010618004-07317-039300FM-12+040999999V0203601N00151015001CN0200001N9+03351+01811100701ADDAA106000091AG10999AY101061GF106991061081012501001001MA1999999096111MD1999999-0091MW1021REMSYN011333   59009
0129827840999991985010700004-07317-039300FM-12+040999999V0203201N00051007501CN9999999N9+02581+01991101121ADDAA106000091AG10999AY101061GF108991081071008001999999KA1240M+03491MA1999999096491MD1999999+0071MW1021REMSYN017333   10349 58007
0129827840999991985010712004-07317-039300FM-12+040999999V0209991C00001012001CN0200001N9+02701+02131101151ADDAA106000091AG10999AY101061GF108991081081008001999999KA1240N+02391MA1999999096501MD1999999-0111MW1021REMSYN017333   20239 59011
0110827840999991985010718004-07317-039300FM-12+040999999V0201401N00211220001CN0200001N9+03281+01861100621ADDAA106000091AG10999AY101061GF104991041021008001001001MA1999999096021MD1999999-0091MW1021REMSYN011333   59009
0164827840999991985010800004-07317-039300FM-12+040999999V0201401N00151045001CN9999999N9+02821+01801101552ADDAA106000091AG10999AY101061GF108991031081008001021999KA1240M+03331MA1999999096902MD1999999-0341MW1021REMSYN017333   10333 59034EQDQ01+096903APOSP Q02+101553APOSLP
0154827840999991985010812004-07317-039300FM-12+040999999V0200901N00261007501CN0100001N9+02621+02501101111ADDAA124004091AG10999AY161061GF108991081051008001001001KA1240N+02121MA1999999999999MD1999999-0061MW1201REMSYN023333   20212 59006 60044EQDQ01 101023APOSP 
0129827840999991985010900004-07317-039300FM-12+040999999V0201801N00051012001CN9999999N9+02741+02051100411ADDAA106000091AG10999AY101061GF108991081081008001999999KA1240M+03291MA1999999096281MD1999999+0131MW1021REMSYN017333   10329 58013
0135827840999991985010912004-07317-039300FM-12+040999999V0200501N00051009001CN0200001N9+02601+02141101231ADDAA124001091AG10999AY161061GF108991081081004501999999KA1240N+02381MA1999999096581MD1999999+0171MW1021REMSYN023333   20238 58017 60014
0110827840999991985010918004-07317-039300FM-12+040999999V0203601N00151045001CN0200001N9+03201+01961100701ADDAA106000091AG10999AY101061GF107991041021008001021001MA1999999096101MD1999999+0071MW1021REMSYN011333   58007
0129827840999991985011000004-07317-039300FM-12+040999999V0203601N00151007501CN9999999N9+02541+02041101041ADDAA106000091AG10999AY131061GF108991081071008001999999KA1240M+03331MA1999999096391MD1999999+0111MW1131REMSYN017333   10333 58011
0129827840999991985011012004-07317-039300FM-12+040999999V0200501N00211012001CN0200001N9+02671+02111101221ADDAA106000091AG10999AY101061GF108991081081008001999999KA1240N+02391MA1999999096571MD1999999-0011MW1021REMSYN017333   20239 59001
0110827840999991985011018004-07317-039300FM-12+040999999V0200501N00151220001CN0200001N9+03261+01931100681ADDAA106000091AG10999AY101061GF103991021081012501021001MA1999999096081MD1999999-0021MW1021REMSYN011333   59002
0129827840999991985011100004-07317-039300FM-12+040999999V0202701N00151220001CN9999999N9+02561+02081101121ADDAA106000091AG10999AY101061GF100991001001999999001001KA1240M+03281MA1999999096381MD1999999-0011MW1021REMSYN017333   10328 59001
0121827840999991985011112004-07317-039300FM-12+040999999V0203601N00101007501CN0200001N9+02481+02271101281ADDAA124008091AG10999AY161061GF108991081071008001999999KA1240N+02211MA1999999096521MW1021REMSYN023333   20221 5900/ 60084
0110827840999991985011118004-07317-039300FM-12+040999999V0203201N00051012001CN0200001N9+03071+02021100601ADDAA106000091AG10999AY101061GF108991061081008001021999MA1999999095991MD1999999-0091MW1021REMSYN011333   59009
0135827840999991985011200004-07317-039300FM-12+040999999V0202701N00151220001CN9999999N9+02341+02161100881ADDAA106015091AG10999AY161061GF103991031071008001001001KA1240M+03181MA1999999096221MD1999999-0161MW1011REMSYN023333   10318 59016 60151
0135827840999991985011212004-07317-039300FM-12+040999999V0202301N001519999999N0200001N9+02261+02051101201ADDAA124026091AG10999AY161061GF108991081999008001999999KA1240N+02111MA1999999096521MD1410001+0001MW1201REMSYN023333   20211 58000 60264
0129827840999991985011300004-07317-039300FM-12+040999999V0209991C00001220001CN9999999N9+02461+02271100901ADDAA106000091AG10999AY101061GF100991001001999999001001KA1240M+03031MA1999999096291MD1999999+0071MW1081REMSYN017333   10303 58007
0135827840999991985011312004-07317-039300FM-12+040999999V0200501N00311012001CN0200001N9+02631+02201101191ADDAA124009091AG10999AY161061GF108991081081008001999999KA1240N+02221MA1999999096541MD1999999+0021MW1021REMSYN023333   20222 58002 60094
0110827840999991985011318004-07317-039300FM-12+040999999V0200901N00101220001CN0200001N9+03061+01291100781ADDAA106000091AG10999AY101061GF103991021021012501021001MA1999999096161MD1999999+0091MW1021REMSYN011333   58009
0129827840999991985011400004-07317-039300FM-12+040999999V0209991C00001220001CN9999999N9+02501+02231101011ADDAA106000091AG10999AY101061GF100991001001999999001001KA1240M+03091MA1999999096361MD1999999+0071MW1081REMSYN017333   10309 58007
0135827840999991985011412004-07317-039300FM-12+040999999V0201801N00151012001CN0200001N9+02381+02191101221ADDAA124008091AG10001AY161061GF107991071081008001001001KA1240N+02251MA1999999096551MD1999999+0011MW1201REMSYN023333   20225 58001 60084
0110827840999991985011418004-07317-039300FM-12+040999999V0200501N00211220001CN0200001N9+03101+02001100791ADDAA106000091AG10999AY101061GF104991021021008001071001MA1999999096171MD1999999+0011MW1021REMSYN011333   58001
0135827840999991985011512004-07317-039300FM-12+040999999V0200501N00151007501CN0200001N9+02511+02111101231ADDAA124022091AG10999AY161061GF108991081091008001999999KA1240N+02051MA1999999096571MD1999999+0021MW1031REMSYN023333   20205 58002 60224
0110827840999991985011518004-07317-039300FM-12+040999999V0200501N00051045001CN0200001N9+03041+01911100821ADDAA106000091AG10999AY101061GF106991031021008001071001MA1999999096191MD1999999+0021MW1021REMSYN011333   58002
0129827840999991985011600004-07317-039300FM-12+040999999V0209991C00001220001CN9999999N9+02421+02191101021ADDAA106000091AG10999AY181061GF100991001001999999001001KA1240M+03091MA1999999096361MD1999999+0081MW1001REMSYN017333   10309 58008
0137827840999991985011612004-07317-039300FM-12+040999999V0200501N00101012001CN0200001N9+02561+02081101231ADDAG10999AY101061GF108991999081008001999061KA1240N+02301MA1999999096571MD1410001+0001MW1021REMSYN017333   20230 58000EQDQ01+000082SCOTLC
0110827840999991985011618004-07317-039300FM-12+040999999V0203201N00151045001CN0200001N9+03081+02101100721ADDAA106000091AG10999AY101061GF106991041081008001071001MA1999999096111MD1999999-0081MW1021REMSYN011333   59008
0129827840999991985011700004-07317-039300FM-12+040999999V0200901N00151045001CN9999999N9+02621+02161100951ADDAA106000091AG10999AY101061GF108991031071008001021999KA1240M+03111MA1999999096311MD1999999-0051MW1021REMSYN017333   10311 59005
0110827840999991985011718004-07317-039300FM-12+040999999V0200901N00051007501CN0200001N9+02891+01991100711ADDAA106000091AG10999AY101061GF108991081041008001999999MA1999999096081MD1999999-0031MW1021REMSYN011333   59003
0129827840999991985011800004-07317-039300FM-12+040999999V0201401N00051045001CN9999999N9+02471+02231100841ADDAA106000091AG10999AY101061GF108991011071008001021999KA1240M+02951MA1999999096181MD1999999-0131MW1021REMSYN017333   10295 59013
0121827840999991985011812004-07317-039300FM-12+040999999V0202301N00051004201CN0010001N9+02301+02221101151ADDAA124012091AG10999GF108991081071004501999999KA1240N+02221MA1999999096481MD1999999-0011REMSYN023333   20222 59001 60124
0116827840999991985011818004-07317-039300FM-12+040999999V0203201N00101012001CN0200001N9+02641+02291100751ADDAA106005091AG10001AY161061GF108991061081008001021999MA1999999096111MD1999999+0031MW1211REMSYN017333   58003 60051
0135827840999991985011900004-07317-039300FM-12+040999999V0202301N00101045001CN0100001N9+02191+02151101231ADDAA106019091AG10999AY131061GF108991021051008001021999KA1240M+02731MA1999999096541MD1999999+0361MW1971REMSYN023333   10273 58036 60191
0135827840999991985011912004-07317-039300FM-12+040999999V0200501N00051012001CN0200001N9+02361+02171101281ADDAA124065091AG10999AY161061GF108991051081008001071999KA1240N+02111MA1999999096601MD1999999+0121MW1021REMSYN023333   20211 58012 60654
0110827840999991985011918004-07317-039300FM-12+040999999V0200501N00211012001CN0200001N9+02931+02041100851ADDAA106000091AG10999AY101061GF108991061081008001071999MA1999999096211MD1999999+0101MW1021REMSYN011333   58010
0129827840999991985012000004-07317-039300FM-12+040999999V0209991C00001007501CN9999999N9+02581+02251101121ADDAA106000091AG10999AY101061GF108991081071008001999999KA1240M+03011MA1999999096461MD1999999-0081MW1021REMSYN017333   10301 59008
0137827840999991985012012004-07317-039300FM-12+040999999V0203601N00151012001CN0200001N9+02501+02111101341ADDAG10999AY161061GF108991081081008001999999KA1240N+02171MA1999999096661MD1999999+0061MW1021REMSYN017333   20217 58006EQDQ01+999990APOSLP
0110827840999991985012018004-07317-039300FM-12+040999999V0201801N00051045001CN0200001N9+03021+01861100901ADDAA106000091AG10999AY101061GF106991031091012501021001MA1999999096261MD1999999+0051MW1021REMSYN011333   58005
0135827840999991985012100004-07317-039300FM-12+040999999V0203601N00051045001CN9999999N9+02311+02031101421ADDAA106000191AG10999AY161061GF108991041051004501021999KA1240M+03091MA1999999096741MD1999999+0321MW1021REMSYN023333   10309 58032 69911
0146827840999991985012112004-07317-039300FM-12+040999999V0201801N00101220001CN0200001N9+02521+01981101241ADDAA124000791AA299001091AG10001AY161061GF104991011021008001011001KA1240N+02001MA1999999096571MD1999999-0091MW1031REMSYN023333   20200 59009 69974
0110827840999991985012118004-07317-039300FM-12+040999999V0201401N00101220001CN0200001N9+03141+99999100801ADDAA106000091AG10999AY101061GF103991021021008001011001MA1999999096171MD1999999-0091MW1021REMSYN011333   59009
0129827840999991985012200004-07317-039300FM-12+040999999V0201801N00051220001CN9999999N9+02701+02171100931ADDAA106000091AG10999AY101061GF100991001001999999001001KA1240M+03171MA1999999096281MD1999999-0461MW1021REMSYN017333   10317 59046
0129827840999991985012212004-07317-039300FM-12+040999999V0200501N00051012001CN0200001N9+02481+02071101161ADDAA106000091AG10999AY101061GF106991051081008001061001KA1240N+02191MA1999999096501MD1999999-0071MW1021REMSYN017333   20219 59007
0110827840999991985012218004-07317-039300FM-12+040999999V0200901N00311045001CN0200001N9+03021+01891100701ADDAA106000091AG10999AY101061GF105991041081012501021001MA1999999096081MD1999999+0091MW1021REMSYN011333   58009
0135827840999991985012312004-07317-039300FM-12+040999999V0201801N00101007501CN0200001N9+02351+02071101191ADDAA124005091AG10999AY161061GF108991081051008001999999KA1240N+02101MA1999999096541MD1999999+0031MW1021REMSYN023333   20210 58003 60054
0129827840999991985012400004-07317-039300FM-12+040999999V0201801N00101220001CN9999999N9+02401+02211101021ADDAA106000091AG10999AY181061GF100991001001999999001001KA1240M+02991MA1999999096361MD1999999-0091MW1001REMSYN017333   10299 59009
0135827840999991985012412004-07317-039300FM-12+040999999V0202301N00101004201CN0100001N9+02331+02201101311ADDAA124032091AG10999AY161061GF108991081071004501999999KA1240N+02231MA1999999096631MD1999999+0101MW1211REMSYN023333   20223 58010 60324
0129827840999991985012500004-07317-039300FM-12+040999999V0201401N00051220001CN9999999N9+02281+02011101231ADDAA106000091AG10999AY181061GF100991001001999999001001KA1240M+02731MA1999999096551MD1999999+0191MW1001REMSYN017333   10273 58019
0146827840999991985012512004-07317-039300FM-12+040999999V0203601N00151012001CN0200001N9+02441+02091101421ADDAA124000291AA299000391AG10999AY161061GF108991051081008001071001KA1240N+02181MA1999999096741MD1999999+0111MW1021REMSYN023333   20218 58011 69924
0110827840999991985012518004-07317-039300FM-12+040999999V0202701N00101012001CN0200001N9+02831+02071100951ADDAA106000091AG10999AY101061GF108991081081008001999999MA1999999096311MD1999999-0111MW1021REMSYN011333   59011
0135827840999991985012612004-07317-039300FM-12+040999999V0203601N00151007501CN0200001N9+02401+02091101271ADDAA124000391AG10999AY161061GF108991081051008001999999KA1240N+02161MA1999999096591MD1999999-0151MW1021REMSYN023333   20216 59015 69934
0116827840999991985012618004-07317-039300FM-12+040999999V0202701N00211009001CN0040001N9+02441+02251100891ADDAA106002091AG10999AY161061GF108991081081004501999999MA1999999096231MD1999999-0081MW1201REMSYN017333   59008 60021
0135827840999991985012700004-07317-039300FM-12+040999999V0202701N000519999999N9999999N9+02231+02191101001ADDAA106033091AG10999AY161061GF108991021051008001999999KA1240M+02761MA1999999096331MD1999999-0211MW1021REMSYN023333   10276 59021 60331
0135827840999991985012712004-07317-039300FM-12+040999999V0203601N002619999999N0040001N9+02301+02181101081ADDAA124035091AG10999AY161061GF108991999999008001999999KA1240N+02191MA1999999096401MD1999999-0191MW1501REMSYN023333   20219 59019 60354
0129827840999991985012800004-07317-039300FM-12+040999999V0202701N00101045001CN9999999N9+02341+02171100931ADDAA106000091AG10999AY181061GF108991021051008001021999KA1240M+02711MA1999999096961MD1999999-0071MW1021REMSYN017333   10271 59007
0135827840999991985012812004-07317-039300FM-12+040999999V0202301N00051007501CN0200001N9+02301+02071101141ADDAA124002091AG10999AY161061GF108991081051008001999999KA1240N+02171MA1999999096471MD1410001+0001MW1021REMSYN023333   20217 58000 60024
0127827840999991985012818004-07317-039300FM-12+040999999V0200901N00151012001CN0200001N9+02691+02131100741ADDAA106000691AA299000591AG10999AY161061GF107991061081008001071001MA1999999096101MD1999999+0021MW1021REMSYN017333   58002 69961
0135827840999991985012912004-07317-039300FM-12+040999999V0202701N00151004201CN0200001N9+02141+01991101301ADDAA124014091AG10999AY161061GF108991081071004501999999KA1240N+02051MA1999999096611MD1999999+0141MW1021REMSYN023333   20205 58014 60144
0129827840999991985013000004-07317-039300FM-12+040999999V0202301N00151220001CN9999999N9+02381+02241101091ADDAA106000091AG10999AY181061GF100991001001999999001001KA1240M+02921MA1999999096411MD1999999+0091MW1001REMSYN017333   10292 58009
0129827840999991985013012004-07317-039300FM-12+040999999V0200901N00151045001CN0200001N9+02561+02021101371ADDAA106000091AG10999AY101061GF105991041081008001061001KA1240N+02071MA1999999096601MD1999999-0011MW1021REMSYN017333   20207 59001
0110827840999991985013018004-07317-039300FM-12+040999999V0200501N00211007501CN0200001N9+02901+02071100831ADDAA106000091AG10999AY101061GF106991061021008001001001MA1999999096191MD1999999+0031MW1021REMSYN011333   58003
0135827840999991985013100004-07317-039300FM-12+040999999V0201801N00051220001CN9999999N9+02251+02191101121ADDAA106001091AG10999AY161061GF101991011081008001001001KA1240M+02951MA1999999096451MD1999999+0041MW1011REMSYN023333   10295 58004 60011
0135827840999991985013112004-07317-039300FM-12+040999999V0200901N00101004201CN0020001N9+02241+02141101311ADDAA124005091AG10999AY161061GF108991081071004501999999KA1240N+02181MA1999999096621MD1999999+0021MW1201REMSYN023333   20218 58002 60054
0116827840999991985013118004-07317-039300FM-12+040999999V0200501N00211012001CN0200001N9+02621+02161100891ADDAA118001091AG10999AY161061GF108991081081008001999999MA1999999096241MD1999999+0051MW1021REMSYN017333   58005 60013
0129827840999991985020100004-07317-039300FM-12+040999999V0200901N00051007501CN9999999N9+02231+02171101191ADDAA106000091AG10999AY181061GF108991081061008001999999KA1240M+02691MA1999999096501MD1999999+0051MW1021REMSYN017333   10269 58005
0135827840999991985020112004-07317-039300FM-12+040999999V0200901N00151004201CN0020001N9+02141+02091101381ADDAA124007091AG10999AY161061GF108991081071004501999999KA1240N+02141MA1999999096681MD1999999+0061MW1521REMSYN023333   20214 58006 60074
0127827840999991985020118004-07317-039300FM-12+040999999V0202301N00151012001CN0200001N9+02721+02081100991ADDAA106000791AA299001091AG10999AY161061GF108991071081008001071999MA1999999096341MD1999999+0101MW1021REMSYN017333   58010 69971
0129827840999991985020200004-07317-039300FM-12+040999999V0201401N00051220001CN9999999N9+02241+02141101091ADDAA106000091AG10001AY181061GF100991001001999999001001KA1240M+02821MA1999999096401MD1410001+0001MW1001REMSYN017333   10282 58000
0146827840999991985020212004-07317-039300FM-12+040999999V0203201N00361002101CN0040001N9+02281+02091101421ADDAA124000791AA299001091AG10999AY101061GF108991081071002501999999KA1240N+02021MA1999999096731MD1999999+0051MW1021REMSYN023333   20202 58005 69974
0116827840999991985020218004-07317-039300FM-12+040999999V0203201N00101045001CN0200001N9+02861+02211100911ADDAA106005091AG10999AY161061GF106991021081008001071001MA1999999096261MD1999999-0081MW1021REMSYN017333   59008 60051
0129827840999991985020300004-07317-039300FM-12+040999999V0202301N00151007501CN9999999N9+02321+02201101281ADDAA106000091AG10999AY181061GF108991081041008001999999KA1240M+02911MA1999999096601MD1999999+0201MW1021REMSYN017333   10291 58020
0135827840999991985020312004-07317-039300FM-12+040999999V0202701N00151007501CN0040001N9+02361+02131101361ADDAA124010091AG10999AY161061GF108991081051008001999999KA1240N+02211MA1999999096681MD1999999-0051MW1021REMSYN023333   20221 59005 60104
0129827840999991985020400004-07317-039300FM-12+040999999V0202301N00051220001CN9999999N9+02341+02151101251ADDAA106000091AG10999AY181061GF100991001001999999001001KA1240M+02941MA1999999096581MD1999999-0021MW1001REMSYN017333   10294 59002
0135827840999991985020412004-07317-039300FM-12+040999999V0209991C00001004201CN0010001N9+02301+02131101491ADDAA124009091AG10999AY161061GF108991081071004501999999KA1240N+02041MA1999999096801MD1999999+0121MW1161REMSYN023333   20204 58012 60094
0116827840999991985020418004-07317-039300FM-12+040999999V0200501N00051007501CN0200001N9+02881+02031100981ADDAA106001091AG10999AY161061GF106991051021008001061001MA1999999096341MD1999999-0011MW1031REMSYN017333   59001 60011
0129827840999991985020500004-07317-039300FM-12+040999999V0203601N00101007501CN9999999N9+02341+02171101261ADDAA106000091AG10999AY181061GF108991081061008001999999KA1240M+02991MA1999999096581MD1410001+0001MW1021REMSYN017333   10299 58000
0135827840999991985020512004-07317-039300FM-12+040999999V0200501N00101009001CN0200001N9+02481+01981101411ADDAA124008091AG10999AY161061GF107991071081004501001001KA1240N+02071MA1999999096731MD1999999-0071MW1031REMSYN023333   20207 59007 60084
0110827840999991985020518004-07317-039300FM-12+040999999V0200501N00151220001CN0200001N9+02931+02051101031ADDAA106000091AG10999AY101061GF102991021021012501001001MA1999999096381MD1999999+0041MW1021REMSYN011333   58004
0129827840999991985020600004-07317-039300FM-12+040999999V0201801N00151045001CN9999999N9+02421+02171101261ADDAA106000091AG10999AY181061GF108991021051008001021999KA1240M+02981MA1999999096591MD1999999+0011MW1021REMSYN017333   10298 58001
0135827840999991985020612004-07317-039300FM-12+040999999V0200501N00101007501CN0200001N9+02411+02031101431ADDAA124002091AG10999AY161061GF108991081051008001999999KA1240N+02041MA1999999096751MD1999999+0021MW1021REMSYN023333   20204 58002 60024
0110827840999991985020618004-07317-039300FM-12+040999999V0200501N00311007501CN0200001N9+02971+01961101021ADDAA106000091AG10999AY101061GF106991061021008001001001MA1999999096371MD1999999-0011MW1021REMSYN011333   59001
0129827840999991985020712004-07317-039300FM-12+040999999V0200501N00051007501CN0200001N9+02421+02071101491ADDAA106000091AG10999AY101061GF108991081051008001999999KA1240N+02221MA1999999096811MD1999999+0061MW1021REMSYN017333   20222 58006
0110827840999991985020718004-07317-039300FM-12+040999999V0200901N00261220001CN0200001N9+02981+01791101111ADDAA106000091AG10999AY101061GF103991031081008001001001MA1999999096461MD1999999+0091MW1021REMSYN011333   58009
0129827840999991985020800004-07317-039300FM-12+040999999V0201401N00051220001CN9999999N9+02261+02211101321ADDAA106000091AG10999AY181061GF100991001001999999001001KA1240M+03031MA1999999096641MD1999999+0141MW1001REMSYN017333   10303 58014
0129827840999991985020812004-07317-039300FM-12+040999999V0200901N00261012001CN0200001N9+02481+02091101361ADDAA106000091AG10999AY101061GF107991071081008001001001KA1240N+02061MA1999999096681MD1999999-0131MW1021REMSYN017333   20206 59013
0110827840999991985020818004-07317-039300FM-12+040999999V0200901N00311220001CN0200001N9+03081+01951100891ADDAA106000091AG10999AY101061GF104991041021008001001001MA1999999096261MD1999999-0201MW1021REMSYN011333   59020
0129827840999991985020900004-07317-039300FM-12+040999999V0209991C00001220001CN9999999N9+02241+02101101091ADDAA106000091AG10999AY101061GF100991001001999999001001KA1240M+03131MA1999999096421MD1999999-0221MW1021REMSYN017333   10313 59022
0129827840999991985020912004-07317-039300FM-12+040999999V0203601N00101007501CN0200001N9+02641+02091101171ADDAA106000091AG10999AY101061GF105991051021008001001001KA1240N+02061MA1999999096511MD1999999-0171MW1021REMSYN017333   20206 59017
0110827840999991985020918004-07317-039300FM-12+040999999V0200901N00311007501CN0200001N9+03081+01881100781ADDAA106000091AG10999AY101061GF105991051021008001001001MA1999999096151MD1999999-0111MW1021REMSYN011333   59011
0129827840999991985021000004-07317-039300FM-12+040999999V0201801N00051220001CN9999999N9+02401+01971101041ADDAA106000091AG10999AY101061GF100991001001999999001001KA1240M+03111MA1999999096381MD1999999-0401MW1021REMSYN017333   10311 59040
0129827840999991985021012004-07317-039300FM-12+040999999V0200501N00101012001CN0200001N9+02461+02011101291ADDAA106000091AG10999AY101061GF108991081081008001999999KA1240N+02271MA1999999096621MD1999999+0111MW1021REMSYN017333   20227 58011
0110827840999991985021018004-07317-039300FM-12+040999999V0201401N00261012001CN0200001N9+03021+01861100801ADDAA106000091AG10999AY101061GF106991051091012501021001MA1999999096181MD1999999+0131MW1021REMSYN011333   58013
0129827840999991985021100004-07317-039300FM-12+040999999V0202701N00051220001CN9999999N9+02351+01971101071ADDAA106000091AG10999AY101061GF100991001001999999001001KA1240M+03111MA1999999096411MD1999999+0031MW1021REMSYN017333   10311 58003
0135827840999991985021112004-07317-039300FM-12+040999999V0201801N00051007501CN0200001N9+02321+02001101401ADDAA124033091AG10999AY161061GF108991061051008001021999KA1240N+01971MA1999999096731MD1999999+0111MW1021REMSYN023333   20197 58011 60334
0116827840999991985021118004-07317-039300FM-12+040999999V0203601N00051012001CN0200001N9+02611+02031101031ADDAA106008091AG10999AY161061GF107991051081008001071001MA1999999096361MD1999999+0181MW1021REMSYN017333   58018 60081
0129827840999991985021200004-07317-039300FM-12+040999999V0200801N00101012001CN9999999N9+02391+02231101301ADDAA106000091AG10999AY101061GF108991081081008001999999KA1240M+02711MA1999999096621MD1999999+0211MW1021REMSYN017333   10271 58021
0121827840999991985021212004-07317-039300FM-12+040999999V0202501N00211012001CN0100001N9+02411+02051101391ADDAA124008091AG10999GF108991081081008001999999KA1240N+02121MA1999999096711MD1999999-0021REMSYN023333   20212 59002 60084
0110827840999991985021218004-07317-039300FM-12+040999999V0201801N00051045001CN0020001N9+02881+02031100951ADDAA106000091AG10999AY131061GF107991041081004501091001MA1999999096311MD1999999-0051MW1161REMSYN011333   59005
0135827840999991985021300004-07317-039300FM-12+040999999V0201801N00051220001CN9999999N9+02351+02261101211ADDAA106002091AG10999AY181061GF100991001001999999001001KA1240M+02931MA1999999096541MD1999999-0081MW1001REMSYN023333   10293 59008 60021
0135827840999991985021312004-07317-039300FM-12+040999999V0203601N00051007501CN0100001N9+02401+02111101281ADDAA124028091AG10999AY161061GF108991081051008001999999KA1240N+02091MA1999999096611MD1999999-0101MW1021REMSYN023333   20209 59010 60284
0110827840999991985021318004-07317-039300FM-12+040999999V0203601N00101045001CN0200001N9+02661+02041100941ADDAA106000091AG10999AY101061GF106991031081008001071001MA1999999096281MD1999999-0031MW1021REMSYN011333   59003
0129827840999991985021400004-07317-039300FM-12+040999999V0201801N00051220001CN9999999N9+02381+02141101201ADDAA106000091AG10999AY181061GF100991001001999999001001KA1240M+02791MA1999999096501MD1999999-0041MW1001REMSYN017333   10279 59004
0135827840999991985021412004-07317-039300FM-12+040999999V0200501N00101012001CN0200001N9+02441+02051101341ADDAA124031091AG10999AY161061GF108991081081008001999999KA1240N+02121MA1999999096661MD1999999+0051MW1021REMSYN023333   20212 58005 60314
0129827840999991985021418004-07317-039300FM-12+040999999V0203201N00151012001CN0200001N9+02721+02171100881ADDAA106000091AG10001AY101061GF107991071081008001001001MA1999999096271MD1999999-0051MW1021REMSYN011333   59005EQDQ01+999990APOSP 
0129827840999991985021500004-07317-039300FM-12+040999999V0202701N00051007501CN9999999N9+02371+02091101151ADDAA106000091AG10999AY181061GF108991081071008001999999KA1240M+02951MA1999999096481MD1999999-0021MW1021REMSYN017333   10295 59002
0135827840999991985021512004-07317-039300FM-12+040999999V0200901N00211045001CN0040001N9+02281+02011101261ADDAA124126091AG10999AY161061GF108991041071008001071999KA1240N+01941MA1999999096581MD1999999-0091MW1021REMSYN023333   20194 59009 61264
0110827840999991985021518004-07317-039300FM-12+040999999V0200901N00211012001CN0100001N9+02661+02161100931ADDAA106000091AG10999AY131061GF108991071081008001021999MA1999999096261MD1999999+0011MW1151REMSYN011333   58001
0129827840999991985021612004-07317-039300FM-12+040999999V0203601N00051007501CN0200001N9+02441+02071101311ADDAA106000091AG10999AY101061GF108991081051008001999999KA1240N+02071MA1999999096631MD1999999+0061MW1021REMSYN017333   20207 58006
0110827840999991985021618004-07317-039300FM-12+040999999V0203601N00101045001CN0200001N9+02811+01901100841ADDAA106000091AG10999AY101061GF106991041021008001071001MA1999999096191MD1999999-0071MW1021REMSYN011333   59007
0129827840999991985021700004-07317-039300FM-12+040999999V0201801N00051220001CN9999999N9+02341+02111101251ADDAA106000091AG10999AY181061GF102991021081008001001001KA1240M+02981MA1999999096581MD1410001+0001MW1011REMSYN017333   10298 58000
0135827840999991985021712004-07317-039300FM-12+040999999V0200501N00151007501CN0200001N9+02441+01951101391ADDAA124008091AG10999AY161061GF108991081061008001999999KA1240N+02081MA1999999096711MD1999999+0081MW1021REMSYN023333   20208 58008 60084
0110827840999991985021718004-07317-039300FM-12+040999999V0203201N00151220001CN0200001N9+02961+01901100881ADDAA106000091AG10999AY101061GF102991021081008001001001MA1999999096241MD1999999+0051MW1021REMSYN011333   58005
0135827840999991985021800004-07317-039300FM-12+040999999V0201401N00571004201CN0040001N9+02111+01971101431ADDAA106018091AG10999AY161061GF108991051051004501021999KA1240M+03001MA1999999096741MD1999999+0161MW1951REMSYN023333   10300 58016 60181
0135827840999991985021812004-07317-039300FM-12+040999999V0200501N00051220001CN0200001N9+02501+01941101261ADDAA124036091AG10999AY161061GF102991021001008001071001KA1240N+01951MA1999999096581MD1999999-0131MW1011REMSYN023333   20195 59013 60364
0110827840999991985021818004-07317-039300FM-12+040999999V0200501N00261012001CN0200001N9+02821+02021100911ADDAA106000091AG10999AY101061GF108991081081008001999999MA1999999096251MD1999999+0011MW1021REMSYN011333   58001
0135827840999991985021900004-07317-039300FM-12+040999999V0209991C00001007501CN9999999N9+02231+02161101181ADDAA106007091AG10999AY161061GF107991071071008001001001KA1240M+02971MA1999999096511MD1999999-0191MW1021REMSYN023333   10297 59019 60071
0135827840999991985021912004-07317-039300FM-12+040999999V0201401N00211045001CN0200001N9+02621+02051101191ADDAA124008091AG10999AY161061GF105991031081008001051001KA1240N+02121MA1999999096531MD1999999-0051MW1021REMSYN023333   20212 59005 60084
0096827840999991985021918004-07317-039300FM-12+040999999V0200901N00151012001CN0200001N9+02961+01991100791ADDAA106000091AG10999GF108991071081008001071999MA1999999096151MD1999999-0101REMSYN011333   59010
0135827840999991985022012004-07317-039300FM-12+040999999V0201401N00151012001CN0200001N9+02601+02011101241ADDAA124013091AG10999AY161061GF107991051081008001051001KA1240N+02081MA1999999096571MD1999999+0041MW1021REMSYN023333   20208 58004 60134
0110827840999991985022018004-07317-039300FM-12+040999999V0201401N00311045001CN0200001N9+02761+02041100841ADDAA106000091AG10999AY101061GF107991041081008001021001MA1999999096191MD1999999+0041MW1021REMSYN011333   58004
0148827840999991985022100004-07317-039300FM-12+040999999V0209991C00001220001CN9999999N9+03441+02151101091ADDAA106000091AG10999AY181061GF100991001001999999001001KA1240M+99999MA1999999096441MD1999999-0051MW1001REMSYN017333   10291 59005EQDQ01 +02912ATMX  
0135827840999991985022112004-07317-039300FM-12+040999999V0200501N00151045001CN0200001N9+02541+02191101181ADDAA124020091AG10999AY161061GF106991041021008001011001KA1240N+02101MA1999999096521MD1999999-0051MW1021REMSYN023333   20210 59005 60204
0129827840999991985022200004-07317-039300FM-12+040999999V0200501N00261007501CN9999999N9+02481+02171101161ADDAA106000091AG10999AY101061GF108991081071008001999999KA1240M+03931MA1999999096501MD1999999+0061MW1021REMSYN017333   10393 58006
0135827840999991985022212004-07317-039300FM-12+040999999V0203601N00051007501CN0200001N9+02411+02091101111ADDAA124011091AG10999AY161061GF108991081051008001999999KA1240N+02171MA1999999096451MD1999999-0071MW1021REMSYN023333   20217 59007 60114
0110827840999991985022218004-07317-039300FM-12+040999999V0200501N00211045001CN0200001N9+02761+01971100661ADDAA106000091AG10999AY101061GF107991041021008001021001MA1999999096031MD1999999-0211MW1021REMSYN011333   59021
0129827840999991985022300004-07317-039300FM-12+040999999V0200901N00051012001CN9999999N9+02311+02071101061ADDAA106000091AG10999AY101061GF108991081081008001999999KA1240M+02811MA1999999096391MD1999999-0011MW1021REMSYN017333   10281 59001
0129827840999991985022312004-07317-039300FM-12+040999999V0200901N00101012001CN0200001N9+02501+02071101031ADDAA106000091AG10999AY101061GF106991061081008001001001KA1240N+02201MA1999999096371MD1999999-0081MW1021REMSYN017333   20220 59008
0129827840999991985022412004-07317-039300FM-12+040999999V0203601N00101012001CN0200001N9+02581+02151101091ADDAA106000091AG10999AY101061GF108991081081008001999999KA1240N+02181MA1999999096431MD1999999+0061MW1021REMSYN017333   20218 58006
0110827840999991985022418004-07317-039300FM-12+040999999V0200901N00311045001CN0200001N9+03011+01731100651ADDAA106000091AG10999AY101061GF108991041081008001021999MA1999999096031MD1999999+0071MW1021REMSYN011333   58007
0129827840999991985022500004-07317-039300FM-12+040999999V0209991C00001220001CN9999999N9+02311+02101101051ADDAA106000091AG10999AY181061GF100991001001999999001001KA1240M+03081MA1999999096391MD1999999+0151MW1001REMSYN017333   10308 58015
0154827840999991985022512004-07317-039300FM-12+040999999V0200901N001019999999N0200001N9+02641+02051101221ADDAA124000191AG10999AY161061GF107991999081008001001001KA1240N+02201MA1999999096561MD1999999+0131MW1021REMSYN023333   20220 58013 69914EQDQ01+000022SCOTLC
0110827840999991985022518004-07317-039300FM-12+040999999V0200501N00261012001CN0200001N9+02981+02091100891ADDAA106000091AG10999AY101061GF106991061081008001001001MA1999999096261MD1999999+0231MW1021REMSYN011333   58023
0129827840999991985022600004-07317-039300FM-12+040999999V0209991C00001220001CN9999999N9+02271+02131101081ADDAA106000091AG10001AY181061GF100991001001999999001001KA1240M+02991MA1999999096421MD1999999+0031MW1001REMSYN017333   10299 58003
0129827840999991985022612004-07317-039300FM-12+040999999V0200501N00101012001CN0200001N9+02601+02091101281ADDAA106000091AG10999AY181061GF106991061081008001001001KA1240N+02061MA1999999096611MD1999999+0051MW1021REMSYN017333   20206 58005
0110827840999991985022618004-07317-039300FM-12+040999999V0200501N00311220001CN0200001N9+03121+01821100891ADDAA106000091AG10999AY101061GF104991031081008001011001MA1999999096261MD1410001+0001MW1021REMSYN011333   58000
0129827840999991985022700004-07317-039300FM-12+040999999V0202301N00051220001CN9999999N9+02221+01861101181ADDAA106000091AG10999AY101061GF101991011061008001001001KA1240M+03051MA1999999096511MD1999999-0091MW1021REMSYN017333   10305 59009
0129827840999991985022712004-07317-039300FM-12+040999999V0200501N00051220001CN0200001N9+02671+02021101261ADDAA106000091AG10999AY101061GF102991021021008001001001KA1240N+01961MA1999999096591MD1999999-0021MW1021REMSYN017333   20196 59002
0110827840999991985022718004-07317-039300FM-12+040999999V0201401N00211045001CN0200001N9+03121+01891100851ADDAA106000091AG10999AY101061GF106991041021008001011001MA1999999096211MD1999999-0051MW1021REMSYN011333   59005
0129827840999991985022800004-07317-039300FM-12+040999999V0202301N00101220001CN9999999N9+02331+01981101031ADDAA106000091AG10999AY101061GF100991001001999999001001KA1240M+03191MA1999999096381MD1999999-0131MW1021REMSYN017333   10319 59013
0135827840999991985022812004-07317-039300FM-12+040999999V0201401N00361004201CN0010001N9+02301+02231101321ADDAA124018091AG10999AY161061GF108991081071004501999999KA1240N+02141MA1999999096641MD1999999+0051MW1921REMSYN023333   20214 58005 60184
0116827840999991985022818004-07317-039300FM-12+040999999V0200501N00311009001CN0200001N9+02631+02251100931ADDAA106000191AG10999AY161061GF108991081081004501999999MA1999999096281MD1999999+0071MW1171REMSYN017333   58007 69911
0146827840999991985030100004-07317-039300FM-12+040999999V0202301N00051015001CN9999999N9+02301+02231101211ADDAA106000291AA299000391AG10999AY181061GF108991081001017501021999KA1240M+02901MA1999999096531MD1999999+0151MW1021REMSYN023333   10290 58015 69921
0135827840999991985030112004-07317-039300FM-12+040999999V0200501N00101045001CN0200001N9+02401+02051101341ADDAA124001091AG10999AY161061GF105991031021008001071001KA1240N+02151MA1999999096661MD1999999+0021MW1011REMSYN023333   20215 58002 60014
0110827840999991985030118004-07317-039300FM-12+040999999V0200901N00261012001CN0200001N9+02901+02151100871ADDAA106000091AG10999AY101061GF106991061081008001001001MA1999999096231MD1999999-0051MW1021REMSYN011333   59005
0129827840999991985030200004-07317-039300FM-12+040999999V0201801N00051220001CN9999999N9+02371+02261101201ADDAA106000091AG10999AY181061GF100991001001999999001001KA1240M+03041MA1999999096531MD1410001+0001MW1001REMSYN017333   10304 58000
0135827840999991985030212004-07317-039300FM-12+040999999V0200501N00211012001CN0200001N9+02521+02131101251ADDAA124000191AG10999AY161061GF108991081081008001999999KA1240N+02171MA1999999096581MD1999999-0081MW1021REMSYN023333   20217 59008 69914
0110827840999991985030218004-07317-039300FM-12+040999999V0200501N00311045001CN0200001N9+02831+02051100841ADDAA106000091AG10999AY101061GF108991041081008001011999MA1999999096201MD1999999-0031MW1021REMSYN011333   59003
0129827840999991985030300004-07317-039300FM-12+040999999V0201801N00051220001CN9999999N9+02361+02221101101ADDAA106000091AG10999AY181061GF103991031081008001001001KA1240M+02961MA1999999096441MD1999999+0091MW1131REMSYN017333   10296 58009
0135827840999991985030312004-07317-039300FM-12+040999999V0200901N00261012001CN0200001N9+02561+02151101241ADDAA124011091AG10999AY161061GF107991071081008001001001KA1240N+02101MA1999999096571MD1999999-0011MW1021REMSYN023333   20210 59001 60114
0110827840999991985030318004-07317-039300FM-12+040999999V0203601N00151012001CN0200001N9+02561+02031100841ADDAA106000091AG10999AY101061GF108991081081008001999999MA1999999096181MD1999999-0021MW1021REMSYN011333   59002
0135827840999991985030400004-07317-039300FM-12+040999999V0200901N00311015001CN0040001N9+02121+02051101241ADDAA106006091AG10999AY131061GF108991081001017501021999KA1240M+02911MA1999999096551MD1999999+0111MW1971REMSYN023333   10291 58011 60061
0135827840999991985030412004-07317-039300FM-12+040999999V0200901N00211012001CN0200001N9+02541+02151101151ADDAA124029091AG10999AY161061GF106991061081008001001001KA1240N+02061MA1999999096481MD1999999-0091MW1011REMSYN023333   20206 59009 60294
0110827840999991985030418004-07317-039300FM-12+040999999V0200501N00051220001CN0200001N9+02931+02041100661ADDAA106000091AG10999AY101061GF104991041021008001001001MA1999999096031MD1999999-0151MW1021REMSYN011333   59015
0135827840999991985030500004-07317-039300FM-12+040999999V0202301N00101007501CN0100001N9+02201+02061101061ADDAA106029091AG10999AY161061GF108991061051008001021999KA1240M+02981MA1999999096391MD1999999-0161MW1511REMSYN023333   10298 59016 60291
0135827840999991985030512004-07317-039300FM-12+040999999V0200901N00311007501CN0200001N9+02651+02031101061ADDAA124029091AG10999AY101061GF105991051021008001001001KA1240N+02101MA1999999096401MD1999999-0081MW1021REMSYN023333   20210 59008 60294
0110827840999991985030518004-07317-039300FM-12+040999999V0200501N00261015001CN0200001N9+02841+02171100571ADDAA106000091AG10999AY101061GF106991061081012501091001MA1999999095941MD1999999-0091MW1021REMSYN011333   59009
0129827840999991985030600004-07317-039300FM-12+040999999V0209991C00001007501CN9999999N9+02371+02241100861ADDAA106000091AG10999AY181061GF106991061071008001001001KA1240M+03041MA1999999096221MD1999999-0171MW1031REMSYN017333   10304 59017
0135827840999991985030612004-07317-039300FM-12+040999999V0200901N00261012001CN0200001N9+02541+02111101021ADDAA124009091AG10999AY161061GF108991081081008001999999KA1240N+02141MA1999999096361MD1999999-0041MW1021REMSYN023333   20214 59004 60094
0116827840999991985030618004-07317-039300FM-12+040999999V0201801N00211009001CN0200001N9+02431+02261100591ADDAA106002091AG10999AY161061GF108991081081004501999999MA1999999095941MD1410001+0001MW1211REMSYN017333   58000 60021
0135827840999991985030700004-07317-039300FM-12+040999999V0200901N00051007501CN9999999N9+02361+02281100901ADDAA106001091AG10999AY181061GF108991051051008001021999KA1240M+02971MA1999999096251MD1999999+0031MW1021REMSYN023333   10297 58003 60011
0110827840999991985030718004-07317-039300FM-12+040999999V0200901N00261045001CN0200001N9+03041+01881100631ADDAA106000091AG10999AY101061GF106991031081012501011001MA1999999096011MD1999999+0071MW1021REMSYN011333   58007
0135827840999991985030812004-07317-039300FM-12+040999999V0200501N00101012001CN0200001N9+02571+02151101011ADDAA124021091AG10999AY161061GF106991061081008001001001KA1240N+02061MA1999999096361MD1410001+0001MW1031REMSYN023333   20206 58000 60214
0110827840999991985030818004-07317-039300FM-12+040999999V0200901N00311012001CN0200001N9+02981+02151100601ADDAA106000091AG10999AY101061GF107991071081008001001001MA1999999095981MD1999999-0031MW1021REMSYN011333   59003
0148827840999991985030900004-07317-039300FM-12+040999999V0201401N00051220001CN9999999N9+02361+02221100111ADDAA106000091AG10999AY181061GF100991001001999999001001KA1240M+99999MA1999999096161MD1999999-0071MW1001REMSYN017333   10209 59007EQDQ01 +02092ATMX  
0129827840999991985030912004-07317-039300FM-12+040999999V0200501N00211004201CN0040001N9+02381+02191101111ADDAA106000091AG10999AY101061GF108991081071004501999999KA1240N+02061MA1999999096441MD1999999+0081MW1021REMSYN017333   20206 58008
0110827840999991985030918004-07317-039300FM-12+040999999V0203601N00211007501CN0200001N9+02931+02141100691ADDAA106000091AG10999AY101061GF105991051021008001001001MA1999999096061MD1999999+0081MW1021REMSYN011333   58008
0129827840999991985031000004-07317-039300FM-12+040999999V0209991C00001220001CN9999999N9+02371+02241100911ADDAA106000091AG10999AY181061GF100991001001999999001001KA1240M+02971MA1999999096251MD1999999+0111MW1001REMSYN017333   10297 58011
0129827840999991985031012004-07317-039300FM-12+040999999V0202301N00101012001CN0200001N9+02571+02111101241ADDAA106000091AG10999AY101061GF108991081081008001999999KA1240N+02071MA1999999096571MD1999999+0131MW1021REMSYN017333   20207 58013
0110827840999991985031018004-07317-039300FM-12+040999999V0203601N00151012001CN0200001N9+03011+01891100771ADDAA106000091AG10999AY101061GF106991061021012501001001MA1999999096141MD1999999+0081MW1021REMSYN011333   58008
0129827840999991985031100004-07317-039300FM-12+040999999V0202701N00051220001CN9999999N9+02301+02111101001ADDAA106000091AG10999AY181061GF100991001001999999001001KA1240M+03051MA1999999096331MD1999999+0081MW1001REMSYN017333   10305 58008
0129827840999991985031112004-07317-039300FM-12+040999999V0200901N00151012001CN0200001N9+02621+02101101171ADDAA106000091AG10999AY101061GF107991071081008001001001KA1240N+02101MA1999999096551MD1999999-0061MW1021REMSYN017333   20210 59006
0110827840999991985031118004-07317-039300FM-12+040999999V0203601N00211012001CN0200001N9+03141+02131100701ADDAA106000091AG10999AY101061GF107991071081008001001001MA1999999096081MD1999999-0061MW1021REMSYN011333   59006
0129827840999991985031200004-07317-039300FM-12+040999999V0201801N00101220001CN9999999N9+02461+02251101011ADDAA106000091AG10999AY101061GF101991011071008001001001KA1240M+03161MA1999999096361MD1999999+0031MW1021REMSYN017333   10316 58003
0129827840999991985031212004-07317-039300FM-12+040999999V0200501N00311012001CN0200001N9+02621+02141101101ADDAA106000091AG10999AY101061GF107991061081008001011001KA1240N+02431MA1999999096451MD1999999-0061MW1021REMSYN017333   20243 59006
0110827840999991985031218004-07317-039300FM-12+040999999V0200501N00211220001CN0200001N9+03101+02091100631ADDAA106000091AG10999AY101061GF103991031021008001001001MA1999999096021MD1999999-0061MW1021REMSYN011333   59006
0129827840999991985031300004-07317-039300FM-12+040999999V0209991C00001220001CN9999999N9+02291+02131100761ADDAA106000091AG10999AY101061GF100991001001999999001001KA1240M+03121MA1999999096211MD1999999-0151MW1021REMSYN017333   10312 59015
0135827840999991985031312004-07317-039300FM-12+040999999V0200501N00101012001CN0040001N9+02511+02131101171ADDAA124000191AG10999AY161061GF108991081081008001999999KA1240N+02171MA1999999096501MD1999999+0051MW1021REMSYN023333   20217 58005 69914
0110827840999991985031318004-07317-039300FM-12+040999999V0201401N00361012001CN0200001N9+02751+02101100771ADDAA106000091AG10999AY101061GF107991071081008001001001MA1999999096141MD1999999+0121MW1021REMSYN011333   58012
0135827840999991985031412004-07317-039300FM-12+040999999V0200501N00151012001CN0200001N9+02601+02141101071ADDAA124004091AG10999AY101061GF107991071081008001001001KA1240N+02201MA1999999096421MD1999999-0081MW1021REMSYN023333   20220 59008 60044
0110827840999991985031418004-07317-039300FM-12+040999999V0200501N00361012001CN0200001N9+02951+02261100671ADDAA106000091AG10999AY101061GF107991071081008001001001MA1999999096051MD1999999-0091MW1021REMSYN011333   59009
0129827840999991985031500004-07317-039300FM-12+040999999V0200501N00051012001CN9999999N9+02361+02151101121ADDAA106000091AG10999AY101061GF108991081081008001999999KA1240M+03131MA1999999096461MD1999999+0141MW1021REMSYN017333   10313 58014
0135827840999991985031512004-07317-039300FM-12+040999999V0200501N00151012001CN0200001N9+02591+02101101201ADDAA124002091AG10999AY161061GF108991051081008001011999KA1240N+02161MA1999999096541MD1999999+0121MW1021REMSYN023333   20216 58012 60024
0110827840999991985031518004-07317-039300FM-12+040999999V0203601N00151045001CN0200001N9+02921+02051100841ADDAA106000091AG10999AY101061GF108991041081008001021999MA1999999096201MD1999999+0151MW1021REMSYN011333   58015
0129827840999991985031600004-07317-039300FM-12+040999999V0209991C00001220001CN9999999N9+02341+02201101101ADDAA106000091AG10999AY181061GF100991001001999999001001KA1240M+03001MA1999999096441MD1999999-0021MW1001REMSYN017333   10300 59002
0135827840999991985031612004-07317-039300FM-12+040999999V0200901N00261220001CN0200001N9+02731+02101101251ADDAA124001091AG10999AY161061GF101991011021008001001001KA1240N+02251MA1999999096601MD1999999+0061MW1011REMSYN023333   20225 58006 60014
0129827840999991985031700004-07317-039300FM-12+040999999V0201401N00151220001CN9999999N9+02261+01981101371ADDAA106000091AG10999AY101061GF101991011071008001001001KA1240M+03061MA1999999096651MD1999999+0211MW1021REMSYN017333   10306 58021
0135827840999991985031712004-07317-039300FM-12+040999999V0200901N00311220001CN0200001N9+02781+01931101211ADDAA124000391AG10999AY101061GF102991021061012501001001KA1240N+02041MA1999999096551MD1999999-0051MW1021REMSYN023333   20204 59005 69934
0110827840999991985031718004-07317-039300FM-12+040999999V0200501N00211012001CN0200001N9+03081+02011100781ADDAA106000091AG10999AY101061GF106991061021012501001001MA1999999096161MD1999999-0151MW1021REMSYN011333   59015
0129827840999991985031800004-07317-039300FM-12+040999999V0202301N00101220001CN9999999N9+02361+02151101161ADDAA106000091AG10999AY101061GF100991001001999999001001KA1240M+03131MA1999999096511MD1999999-0141MW1021REMSYN017333   10313 59014
0135827840999991985031812004-07317-039300FM-12+040999999V0200501N00151012001CN0040001N9+02541+02251101271ADDAA124000591AG10999AY161061GF107991071081008001001001KA1240N+02251MA1999999096601MD1999999+0051MW1021REMSYN023333   20225 58005 69954
0135827840999991985031813004-07317-039300FM-12+040999999V0200501N00151012001CN0040001N9+02541+02251101271ADDAA124000591AG10999AY161011GF107991071081008001001001KA1240N+02251MA1999999096601MD1999999+0051MW1021REMSYN023333   20225 58005 69954
0110827840999991985031818004-07317-039300FM-12+040999999V0203601N00151045001CN0200001N9+03141+02131100771ADDAA106000091AG10999AY101061GF106991041021008001011001MA1999999096151MD1999999-0011MW1021REMSYN011333   59001
0129827840999991985031900004-07317-039300FM-12+040999999V0200901N00101220001CN9999999N9+02471+02271101071ADDAA106000091AG10999AY101061GF100991001001999999001001KA1240M+03131MA1999999096421MD1999999-0081MW1021REMSYN017333   10313 59008
0135827840999991985031912004-07317-039300FM-12+040999999V0203601N00101007501CN0040001N9+02491+02211101231ADDAA124001091AG10999AY161061GF108991081071008001999999KA1240N+02201MA1999999096571MD1999999-0031MW1021REMSYN023333   20220 59003 60014
0116827840999991985031918004-07317-039300FM-12+040999999V0202701N00101045001CN0200001N9+02461+02171100921ADDAA106001091AG10999AY161061GF108991041071008001021999MA1999999096261MD1999999+0111MW1021REMSYN017333   58011 60011
0135827840999991985032012004-07317-039300FM-12+040999999V0200901N00051220001CN0200001N9+02611+01941101161ADDAA124016091AG10999AY161061GF103991011011008001041001KA1240N+02011MA1999999096481MD1999999-0091MW1011REMSYN023333   20201 59009 60164
0110827840999991985032018004-07317-039300FM-12+040999999V0203201N00051012001CN0200001N9+02861+02311100751ADDAA106000091AG10999AY101061GF106991061081008001001001MA1999999096111MD1999999-0151MW1021REMSYN011333   59015
0129827840999991985032100004-07317-039300FM-12+040999999V0201801N00051220001CN9999999N9+02381+02241101071ADDAA106000091AG10999AY181061GF100991001001999999001001KA1240M+02981MA1999999096421MD1999999-0231MW1001REMSYN017333   10298 59023
0154827840999991985032112004-07317-039300FM-12+040999999V0200501N00051007501CN0200001N9+02441+02171101201ADDAA124004091AG10999AY161061GF108991999051008001051071KA1240N+02091MA1999999096531MD1999999+0051MW1021REMSYN023333   20209 58005 60044EQDQ01+000082SCOTLC
0110827840999991985032118004-07317-039300FM-12+040999999V0200501N00361007501CN0200001N9+02681+02241100771ADDAA106000091AG10999AY101061GF108991071071008001071999MA1999999096121MD1999999+0011MW1021REMSYN011333   58001
0129827840999991985032200004-07317-039300FM-12+040999999V0202701N00051220001CN9999999N9+02331+02271101001ADDAA106000091AG10999AY181061GF100991001001999999001001KA1240M+02921MA1999999096341MD1999999-0081MW1001REMSYN017333   10292 59008
0129827840999991985032212004-07317-039300FM-12+040999999V0200901N00211012001CN0200001N9+02601+02171101221ADDAA106000091AG10999AY101061GF107991071081008001001001KA1240N+02241MA1999999096551MD1999999+0021MW1021REMSYN017333   20224 58002
0116827840999991985032218004-07317-039300FM-12+040999999V0200901N00261012001CN0010001N9+02931+02241100811ADDAA106011091AG10999AY161061GF108991081081008001999999MA1999999096181MD1999999+0061MW1161REMSYN017333   58006 60111
0135827840999991985032300004-07317-039300FM-12+040999999V0201801N00151015001CN0100001N9+02161+02011101241ADDAA106004091AG10999AY161061GF108991081001017501021999KA1240M+02941MA1999999096571MD1999999+0231MW1611REMSYN023333   10294 58023 60041
0135827840999991985032312004-07317-039300FM-12+040999999V0200901N00211012001CN0200001N9+02681+02221101271ADDAA124016091AG10999AY161061GF108991081081008001999999KA1240N+02141MA1999999096601MD1999999+0051MW1021REMSYN023333   20214 58005 60164
0116827840999991985032318004-07317-039300FM-12+040999999V0200901N00051004201CN0040001N9+02441+02211101001ADDAA106000191AG10999AY161061GF108991081071004501999999MA1999999096331MD1999999+0151MW1171REMSYN017333   58015 69911
0135827840999991985032400004-07317-039300FM-12+040999999V0200901N00101045001CN9999999N9+02331+99999101301ADDAA106006091AG10999AY161061GF108991031051008001021999KA1240M+03021MA1999999096641MD1999999+0071MW1021REMSYN023333   10302 58007 60061
0135827840999991985032412004-07317-039300FM-12+040999999V0200901N00151012001CN0200001N9+02641+02071101291ADDAA124010091AG10999AY161061GF108991051081008001071999KA1240N+02201MA1999999096631MD1999999+0031MW1021REMSYN023333   20220 58003 60104
0110827840999991985032418004-07317-039300FM-12+040999999V0202701N00151012001CN0200001N9+02821+02221100851ADDAA106000091AG10999AY101061GF108991061081008001071999MA1999999096211MD1999999-0121MW1021REMSYN011333   59012
0129827840999991985032500004-07317-039300FM-12+040999999V0202701N00051007501CN9999999N9+02361+02111101211ADDAA106000091AG10999AY101061GF108991061071008001021999KA1240M+02931MA1999999096551MD1999999-0091MW1021REMSYN017333   10293 59009
0135827840999991985032512004-07317-039300FM-12+040999999V0200501N00051007501CN0200001N9+02471+02051101361ADDAA124036091AG10999AY161061GF108991081051008001999999KA1240N+02061MA1999999096681MD1999999+0051MW1021REMSYN023333   20206 58005 60364
0127827840999991985032518004-07317-039300FM-12+040999999V0203601N00151004201CN0020001N9+02481+02231101061ADDAA106000291AA299000391AG10999AY161061GF108991081071004501999999MA1999999096381MD1999999+0171MW1161REMSYN017333   58017 69921
0135827840999991985032600004-07317-039300FM-12+040999999V0201401N00151220001CN9999999N9+02321+02291101241ADDAA106008091AG10999AY161061GF100991001001999999001001KA1240M+02851MA1999999096571MD1999999+0061MW1001REMSYN023333   10285 58006 60081
0110827840999991985032618004-07317-039300FM-12+040999999V0200501N00261012001CN0040001N9+03011+02191100901ADDAA106000091AG10999AY121061GF106991061081008001001001MA1999999096261MD1999999-0121MW1151REMSYN011333   59012
0135827840999991985032700004-07317-039300FM-12+040999999V0202701N00101004201CN9999999N9+02381+02291101291ADDAA106006091AG10999AY161061GF108991081091004501999999KA1240M+03111MA1999999096621MD1999999+0051MW1131REMSYN023333   10311 58005 60061
0135827840999991985032712004-07317-039300FM-12+040999999V0203201N00101007501CN0200001N9+02481+02271101421ADDAA124006091AG10999AY101061GF108991081071008001999999KA1240N+02291MA1999999096781MD1999999+0081MW1021REMSYN023333   20229 58008 60064
0110827840999991985032718004-07317-039300FM-12+040999999V0200901N00211012001CN0200001N9+02921+02191100941ADDAA106000091AG10999AY101061GF108991081081008001999999MA1999999096311MD1999999+0051MW1021REMSYN011333   58005
0129827840999991985032800004-07317-039300FM-12+040999999V0202701N00101007501CN9999999N9+02461+02321101321ADDAA106000091AG10999AY101061GF108991081071008001999999KA1240M+02991MA1999999096651MD1999999+0031MW1021REMSYN017333   10299 58003
0135827840999991985032812004-07317-039300FM-12+040999999V0203601N00101007501CN0200001N9+02341+02131101381ADDAA124024091AG10999AY161061GF108991081051008001999999KA1240N+02071MA1999999096701MD1999999-0081MW1021REMSYN023333   20207 59008 60244
0110827840999991985032818004-07317-039300FM-12+040999999V0200901N00101012001CN0200001N9+02711+02081101031ADDAA106000091AG10999AY101061GF108991081081008001999999MA1999999096371MD1999999+0061MW1021REMSYN011333   58006
0129827840999991985032900004-07317-039300FM-12+040999999V0209991C00001007501CN9999999N9+02381+02241101291ADDAA106000091AG10999AY181061GF108991081071008001999999KA1240M+02771MA1999999096611MD1999999-0041MW1021REMSYN017333   10277 59004
0135827840999991985032912004-07317-039300FM-12+040999999V0201401N00051007501CN0200001N9+02471+02131101281ADDAA124000191AG10999AY161061GF108991081051008001999999KA1240N+02221MA1999999096611MD1999999-0091MW1021REMSYN023333   20222 59009 69914
0110827840999991985032918004-07317-039300FM-12+040999999V0200501N00101007501CN0200001N9+02791+02181100861ADDAA106000091AG10999AY101061GF108991081071008001999999MA1999999096221MD1999999-0151MW1021REMSYN011333   59015
0129827840999991985033000004-07317-039300FM-12+040999999V0202701N00101007501CN9999999N9+99999+99999101181ADDAA106000091AG10999AY181061GF108991081071008001999999KA1240M+02851MA1999999096511MD1999999-0101MW1021REMSYN017333   10285 59010
0146827840999991985033012004-07317-039300FM-12+040999999V0202301N00051004201CN0040001N9+02501+02211101341ADDAA124000791AA299001091AG10999AY161061GF108991081071004501999999KA1240N+02261MA1999999096671MD1999999+0071MW1021REMSYN023333   20226 58007 69974
0116827840999991985033018004-07317-039300FM-12+040999999V0203201N00051007501CN0040001N9+02381+02211100861ADDAA106014091AG10001AY161061GF108991081071008001999999MA1999999096201MD1999999-0021MW1021REMSYN017333   59002 60141
0129827840999991985033100004-07317-039300FM-12+040999999V0203201N00051045001CN9999999N9+02261+02231101201ADDAA106000091AG10999AY101061GF108991021051004501021999KA1240M+02511MA1999999096531MD1999999+0021MW1021REMSYN017333   10251 58002
0135827840999991985033112004-07317-039300FM-12+040999999V0203601N00101009001CN0040001N9+02401+02111101271ADDAA124023091AG10999AY161061GF108991051081004501021999KA1240N+02051MA1999999096591MD1999999-0081MW1021REMSYN023333   20205 59008 60234
0165827840999991985040100004-07317-039300FM-12+040999999V0200501N00051012001CN0100001N9+03291+02031101211ADDAA106000291AA299000391AG10999AY161061GF108991081081008001999999KA1240M+99999MA1999999096541MD1999999+0011MW1511REMSYN023333   10304 58001 69921EQDQ01 +03042ATMX  
0135827840999991985040112004-07317-039300FM-12+040999999V0201401N00361007501CN0200001N9+02621+02071101231ADDAA124000591AG10999AY161061GF108991081051008001999999KA1240N+02171MA1999999096561MD1999999-0031MW1021REMSYN023333   20217 59003 69954
0110827840999991985040118004-07317-039300FM-12+040999999V0200501N00211012001CN0200001N9+02941+02161100751ADDAA106000091AG10999AY101061GF106991051081008001021001MA1999999096121MD1999999-0061MW1021REMSYN011333   59006
0135827840999991985040212004-07317-039300FM-12+040999999V0200901N00101007501CN0200001N9+02521+02271101321ADDAA124003091AG10999AY161061GF108991081071008001999999KA1240N+02231MA1999999096651MD1999999+0091MW1021REMSYN023333   20223 58009 60034
0116827840999991985040218004-07317-039300FM-12+040999999V0201401N00311004201CN0020001N9+02541+02311100961ADDAA106001091AG10999AY161061GF108991081071004501999999MA1999999096301MD1999999+0181MW1631REMSYN017333   58018 60011
0135827840999991985040300004-07317-039300FM-12+040999999V0202601N00461004201CN0100001N9+02281+02141101331ADDAA106010091AG10001AY161061GF108991081071004501999999KA1240M+02801MA1999999096651MD1999999+0091MW1131REMSYN023333   10280 58009 60101
0135827840999991985040312004-07317-039300FM-12+040999999V0203201N00101009001CN0040001N9+02221+01891101601ADDAA124027091AG10999AY161061GF108991071081004501999999KA1240N+02061MA1999999096901MD1999999+0251MW1021REMSYN023333   20206 58025 60274
0110827840999991985040318004-07317-039300FM-12+040999999V0203601N00151045001CN0200001N9+02721+02081101081ADDAA106000091AG10999AY101061GF106991041081008001031001MA1999999096421MD1999999+0121MW1021REMSYN011333   58012
0129827840999991985040400004-07317-039300FM-12+040999999V0201801N00101007501CN9999999N9+02201+02131101401ADDAA106000091AG10001AY181061GF106991061061008001001001KA1240M+02771MA1999999096701MD1999999+0021MW1021REMSYN017333   10277 58002
0135827840999991985040412004-07317-039300FM-12+040999999V0203601N00151012001CN0200001N9+02421+02211101411ADDAA124001091AG10999AY161061GF106991051081008001031001KA1240N+01981MA1999999096721MD1999999-0181MW1021REMSYN023333   20198 59018 60014
0110827840999991985040418004-07317-039300FM-12+040999999V0201801N00211012001CN0200001N9+02611+02141100951ADDAA106000091AG10999AY101061GF108991081081008001999999MA1999999096281MD1999999-0141MW1021REMSYN011333   59014
0129827840999991985040500004-07317-039300FM-12+040999999V0201801N00101007501CN9999999N9+99999+99999101171ADDAA106000091AG10999AY101061GF108991081071008001999999KA1240M+02711MA1999999096521MD1999999-0181MW1021REMSYN017333   10271 59018
0135827840999991985040512004-07317-039300FM-12+040999999V0200501N00151045001CN0200001N9+02481+02111101211ADDAA124010091AG10999AY161061GF106991031021004501071001KA1240N+02071MA1999999096541MD1999999-0181MW1021REMSYN023333   20207 59018 60104
0127827840999991985040518004-07317-039300FM-12+040999999V0200501N00261012001CN0200001N9+02901+02121100721ADDAA106000291AA299000391AG10999AY161061GF107991061081008001011001MA1999999096091MD1999999-0191MW1021REMSYN017333   59019 69921
0135827840999991985040600004-07317-039300FM-12+040999999V0201401N00101004201CN0040001N9+02211+02171101141ADDAA106008091AG10999AY161061GF108991051051004501021999KA1240M+02931MA1999999096471MD1999999-0051MW1631REMSYN023333   10293 59005 60081
0135827840999991985040612004-07317-039300FM-12+040999999V0203201N00051012001CN0200001N9+02421+02111101211ADDAA124009091AG10999AY161061GF108991081081008001999999KA1240N+02051MA1999999096531MD1999999-0011MW1021REMSYN023333   20205 59001 60094
0110827840999991985040618004-07317-039300FM-12+040999999V0200901N00151009001CN0040001N9+02741+02211100791ADDAA106000091AG10999AY121061GF107991071081004501001001MA1999999096141MD1999999+0051MW1151REMSYN011333   58005
0135827840999991985040712004-07317-039300FM-12+040999999V0202301N00101004201CN0100001N9+02371+02311101351ADDAA124014091AG10999AY101061GF108991071051004501071999KA1240N+02071MA1999999096671MD1999999+0141MW1021REMSYN023333   20207 58014 60144
0116827840999991985040718004-07317-039300FM-12+040999999V0202301N00261004201CN0010001N9+02211+02121101051ADDAA106039091AG10999AY161061GF108991081071004501999999MA1999999096361MD1999999+0221MW1951REMSYN017333   58022 60391
0135827840999991985040812004-07317-039300FM-12+040999999V0200501N00051009001CN0200001N9+02381+02151101361ADDAA124049091AG10999AY161061GF108991081081004501999999KA1240N+02101MA1999999096671MD1410001+0001MW1021REMSYN023333   20210 58000 60494
0110827840999991985040818004-07317-039300FM-12+040999999V0202301N00211012001CN0200001N9+02801+02081100891ADDAA106000091AG10999AY101061GF108991081081008001999999MA1999999096241MD1999999-0121MW1021REMSYN011333   59012
0129827840999991985040900004-07317-039300FM-12+040999999V0201801N00101007501CN9999999N9+02381+02191101201ADDAA106000091AG10999AY101061GF108991081071008001999999KA1240M+02931MA1999999096531MD1999999-0111MW1021REMSYN017333   10293 59011
0135827840999991985040912004-07317-039300FM-12+040999999V0201801N00101007501CN0200001N9+02281+02161101281ADDAA124003091AG10999AY161061GF108991081061008001999999KA1240N+02091MA1999999096601MD1999999-0071MW1021REMSYN023333   20209 59007 60034
0110827840999991985040918004-07317-039300FM-12+040999999V0201801N00151012001CN0040001N9+02691+02351100751ADDAA106000091AG10999AY131061GF108991081081008001999999MA1999999096101MD1999999-0141MW1161REMSYN011333   59014
0135827840999991985041012004-07317-039300FM-12+040999999V0203601N00101007501CN0200001N9+02401+02111101151ADDAA124044091AG10999AY161061GF108991081051008001999999KA1240N+02021MA1999999096471MD1999999-0131MW1021REMSYN023333   20202 59013 60444
0110827840999991985041018004-07317-039300FM-12+040999999V0203601N00151012001CN0200001N9+02891+02281100751ADDAA106000091AG10999AY101061GF107991071081008001001001MA1999999096111MD1999999+0011MW1021REMSYN011333   58001
0135827840999991985041100004-07317-039300FM-12+040999999V0202301N00101007501CN9999999N9+02361+02261101131ADDAA106001091AG10999AY131061GF108991081071008001999999KA1240M+02891MA1999999096461MD1999999+0091MW1211REMSYN023333   10289 58009 60011
0135827840999991985041112004-07317-039300FM-12+040999999V0203601N00151012001CN0200001N9+02341+01931101471ADDAA124084091AG10999AY161061GF108991081081008001999999KA1240N+01991MA1999999096781MD1999999+0311MW1021REMSYN023333   20199 58031 60844
0110827840999991985041118004-07317-039300FM-12+040999999V0200901N00211012001CN0200001N9+02731+02101101011ADDAA106000091AG10999AY101061GF106991061081008001001001MA1999999096351MD1999999+0241MW1021REMSYN011333   58024
0116827840999991985041218004-07317-039300FM-12+040999999V0201801N00151007501CN0200001N9+02721+02151101091ADDAA106002091AG10999AY161061GF108991061071008001071999MA1999999096431MD1999999+0081MW1021REMSYN017333   58008 60021
0129827840999991985041300004-07317-039300FM-12+040999999V0200501N00051007501CN9999999N9+02431+02341101441ADDAA106000091AG10999AY181061GF108991081051008001999999KA1240M+02801MA1999999096761MD1999999-0031MW1021REMSYN017333   10280 59003
0110827840999991985041318004-07317-039300FM-12+040999999V0203601N00051012001CN0200001N9+02781+02161100951ADDAA106000091AG10999AY101061GF107991061081008001071001MA1999999096301MD1999999-0131MW1021REMSYN011333   59013
0135827840999991985041412004-07317-039300FM-12+040999999V0202701N00151012001CN0200001N9+02691+02121101381ADDAA124029091AG10999AY161061GF108991081081008001999999KA1240N+02101MA1999999096701MD1999999-0121MW1021REMSYN023333   20210 59012 60294
0116827840999991985041418004-07317-039300FM-12+040999999V0203201N00211007501CN0200001N9+02541+02231100931ADDAA106005091AG10999AY161061GF108991081071008001999999MA1999999096261MD1999999+0041MW1021REMSYN017333   58004 60051
0146827840999991985041500004-07317-039300FM-12+040999999V0203201N00151220001CN9999999N9+02331+02151101261ADDAA106000491AA299000591AG10999AY161061GF100991001001999999001001KA1240M+02941MA1999999096601MD1999999-0091MW1001REMSYN023333   10294 59009 69941
0135827840999991985041512004-07317-039300FM-12+040999999V0203601N00101220001CN0200001N9+02621+02071101301ADDAA124006091AG10999AY101061GF104991031021008001031001KA1240N+02101MA1999999096641MD1999999-0061MW1021REMSYN023333   20210 59006 60064
0116827840999991985041518004-07317-039300FM-12+040999999V0203201N00211012001CN0200001N9+02761+02251100881ADDAA106000191AG10999AY161061GF107991071081008001081001MA1999999096231MD1999999-0031MW1021REMSYN017333   59003 69911
0129827840999991985041600004-07317-039300FM-12+040999999V0209991C00001012001CN9999999N9+02411+02321101181ADDAA106000091AG10999AY101061GF106991061081008001001001KA1240M+02931MA1999999096521MD1999999+0021MW1021REMSYN017333   10293 58002
0135827840999991985041612004-07317-039300FM-12+040999999V0203601N00151012001CN0040001N9+02451+02171101341ADDAA124003091AG10999AY161061GF108991081081008001999999KA1240N+02071MA1999999096671MD1999999+0031MW1021REMSYN023333   20207 58003 60034
0110827840999991985041618004-07317-039300FM-12+040999999V0200901N00101012001CN0200001N9+02721+02141100961ADDAA106000091AG10999AY101061GF107991071081008001001001MA1999999096301MD1999999+0071MW1021REMSYN011333   58007
0110827840999991985041718004-07317-039300FM-12+040999999V0201401N00211012001CN0200001N9+02921+02121100971ADDAA106000091AG10999AY101061GF106991061081008001001001MA1999999096331MD1999999+0031MW1021REMSYN011333   58003
0129827840999991985041812004-07317-039300FM-12+040999999V0200901N00151220001CN0200001N9+02621+01881101361ADDAA106000091AG10999AY101061GF102991011011008001021001KA1240N+02041MA1999999096691MD1999999-0061MW1021REMSYN017333   20204 59006
0110827840999991985041818004-07317-039300FM-12+040999999V0201801N00261012001CN0200001N9+02921+01951100951ADDAA106000091AG10999AY101061GF107991071081008001001001MA1999999096301MD1999999-0031MW1021REMSYN011333   59003
0129827840999991985041912004-07317-039300FM-12+040999999V0200501N00151220001CN0200001N9+02601+02011101291ADDAA106000091AG10999AY181061GF103991011021008001011001KA1240N+01841MA1999999096621MD1999999-0071MW1011REMSYN017333   20184 59007
0110827840999991985041918004-07317-039300FM-12+040999999V0200501N00211045001CN0200001N9+02981+02091100801ADDAA106000091AG10999AY101061GF105991041021008001011001MA1999999096161MD1999999-0141MW1021REMSYN011333   59014
0129827840999991985042012004-07317-039300FM-12+040999999V0200501N00211220001CN0200001N9+02661+02071101101ADDAA106000091AG10999AY181061GF102991011021008001011001KA1240N+02001MA1999999096451MD1999999-0171MW1011REMSYN017333   20200 59017
0129827840999991985042100004-07317-039300FM-12+040999999V0202301N00101012001CN9999999N9+02321+02091101071ADDAA106000091AG10999AY101061GF108991081081008001999999KA1240M+02981MA1999999096421MD1999999-0071MW1021REMSYN017333   10298 59007
0129827840999991985042112004-07317-039300FM-12+040999999V0200901N00151220001CN0200001N9+02741+01971100921ADDAA106000091AG10999AY101061GF102991011021008001021001KA1240N+02031MA1999999096281MD1999999-0171MW1021REMSYN017333   20203 59017
0110827840999991985042118004-07317-039300FM-12+040999999V0200901N00411045001CN0200001N9+02841+02821100691ADDAA106000091AG10999AY101061GF107991041071008001021001MA1999999096021MD1999999-0071MW1021REMSYN011333   59007
0129827840999991985042200004-07317-039300FM-12+040999999V0209999999999012001CN9999999N9+02391+02131101051ADDAA106000091AG10999AY101061GF108991081081008001999999KA1240M+03011MA1999999096401MD1999999-0021MW1021REMSYN017333   10301 59002
0129827840999991985042212004-07317-039300FM-12+040999999V0201401N00151220001CN0200001N9+02641+02001101211ADDAA106000091AG10999AY101061GF104991031021008001021001KA1240N+02021MA1999999096551MD1999999+0271MW1021REMSYN017333   20202 58027
0129827840999991985042218004-07317-039300FM-12+040999999V0201801N00311220001CN0200001N9+02861+01901100851ADDAA106000091AG10999AY101061GF103991999021008001001001MA1999999096231MD1999999+0211MW1021REMSYN011333   58021EQDQ01+000022SCOTLC
0129827840999991985042300004-07317-039300FM-12+040999999V0202701N00051220001CN9999999N9+02201+02031101211ADDAA106000091AG10999AY181061GF100991001001999999001001KA1240M+02891MA1999999096541MD1999999+0141MW1001REMSYN017333   10289 58014
0129827840999991985042312004-07317-039300FM-12+040999999V0200501N00151045001CN0200001N9+02671+02091101281ADDAA106000091AG10999AY101061GF107991031081008001011001KA1240N+02081MA1999999096611MD1999999+0061MW1021REMSYN017333   20208 58006
0110827840999991985042318004-07317-039300FM-12+040999999V0200501N00151045001CN0200001N9+02801+02111100941ADDAA106000091AG10999AY101061GF107991041081008001071001MA1999999096291MD1999999+0061MW1021REMSYN011333   58006
0129827840999991985042400004-07317-039300FM-12+040999999V0201801N00211007501CN9999999N9+02421+02111101181ADDAA106000091AG10999AY101061GF108991081071008001999999KA1240M+02901MA1999999096531MD1999999-0011MW1021REMSYN017333   10290 59001
0129827840999991985042412004-07317-039300FM-12+040999999V0201401N00211012001CN0200001N9+02571+02081101181ADDAA106000091AG10999AY101061GF108991081081008001999999KA1240N+02171MA1999999096521MD1999999-0091MW1021REMSYN017333   20217 59009
0110827840999991985042418004-07317-039300FM-12+040999999V0201801N00311007501CN0200001N9+02991+02151100681ADDAA106000091AG10999AY101061GF106991051021008001011001MA1999999096061MD1999999-0231MW1021REMSYN011333   59023
0135827840999991985042512004-07317-039300FM-12+040999999V0201401N00261045001CN0200001N9+02681+02061100991ADDAA124001091AG10999AY101061GF105991041081008001071001KA1240N+02261MA1999999096361MD1999999-0181MW1021REMSYN023333   20226 59018 60014
0116827840999991985042518004-07317-039300FM-12+040999999V0201401N00211012001CN0200001N9+02901+02121100591ADDAA106000191AG10999AY161061GF106991061081008001001001MA1999999095971MD1999999-0091MW1021REMSYN017333   59009 69911
0135827840999991985042600004-07317-039300FM-12+040999999V0201801N00261015001CN0200001N9+02271+02201100921ADDAA106008091AG10999AY131061GF108991081001017501021999KA1240M+02951MA1999999096271MD1999999-0111MW1631REMSYN023333   10295 59011 60081
0135827840999991985042612004-07317-039300FM-12+040999999V0201401N00151012001CN0200001N9+02501+02131101121ADDAA124025091AG10999AY161061GF108991081081008001999999KA1240N+02121MA1999999096451MD1999999+0111MW1021REMSYN023333   20212 58011 60254
0104827840999991985042618004-07317-039300FM-12+040999999V0201801N00261007501CN0200001N9+02841+02171100611ADDAG10999GF107991071061008001001001MA1999999096001MD1999999+0031REMSYN011333   58003EQDQ01+999990APOSLP
0129827840999991985042700004-07317-039300FM-12+040999999V0201401N00051220001CN9999999N9+02381+02211100941ADDAA106000091AG10999AY101061GF102991021081008001001001KA1240M+02991MA1999999096291MD1999999+0021MW1021REMSYN017333   10299 58002
0129827840999991985042712004-07317-039300FM-12+040999999V0202301N00101012001CN0200001N9+02601+02121101071ADDAA106000091AG10999AY101061GF108991081081008001999999KA1240N+02091MA1999999096421MD1999999-0031MW1021REMSYN017333   20209 59003
0110827840999991985042718004-07317-039300FM-12+040999999V0200501N00211012001CN0200001N9+02901+02171100681ADDAA106000091AG10999AY101061GF106991051081008001071001MA1999999096051MD1999999+0061MW1021REMSYN011333   58006
0135827840999991985042800004-07317-039300FM-12+040999999V0202301N00101015001CN0040001N9+02251+02161101051ADDAA106023091AG10999AY161061GF108991081001017501021999KA1240M+02961MA1999999096391MD1999999+0101MW1631REMSYN023333   10296 58010 60231
0135827840999991985042812004-07317-039300FM-12+040999999V0202701N00101007501CN0200001N9+02431+02271101241ADDAA124048091AG10999AY161061GF108991081071008001999999KA1240N+02151MA1999999096561MD1999999+0141MW1211REMSYN023333   20215 58014 60484
0110827840999991985042818004-07317-039300FM-12+040999999V0200501N00211012001CN0200001N9+02911+02191100761ADDAA106000091AG10999AY101061GF108991071081008001071999MA1999999096131MD1999999+0081MW1021REMSYN011333   58008
0135827840999991985042900004-07317-039300FM-12+040999999V0203601N00051007501CN9999999N9+02261+02181101251ADDAA106002091AG10999AY161061GF108991081051008001999999KA1240M+02941MA1999999096571MD1999999+0181MW1021REMSYN023333   10294 58018 60021
0135827840999991985042912004-07317-039300FM-12+040999999V0201401N00051012001CN0200001N9+02631+02141101201ADDAA124002091AG10999AY101061GF108991051081008001011999KA1240N+02291MA1999999096541MD1999999-0011MW1021REMSYN023333   20229 59001 60024
0116827840999991985042918004-07317-039300FM-12+040999999V0202701N00261004201CN0020001N9+02361+02191100781ADDAA106003091AG10999AY161061GF108991081071004501999999MA1999999096121MD1999999-0011MW1971REMSYN017333   59001 60031
0135827840999991985043000004-07317-039300FM-12+040999999V0201401N00101007501CN0200001N9+02201+02151101201ADDAA106021091AG10999AY161061GF108991081051008001999999KA1240M+02831MA1999999096531MD1999999-0041MW1021REMSYN023333   10283 59004 60211
0135827840999991985043012004-07317-039300FM-12+040999999V0200901N00101015001CN0200001N9+02541+02041101271ADDAA124052091AG10999AY161061GF106991061001017501071001KA1240N+02021MA1999999096591MD1999999+0051MW1021REMSYN023333   20202 58005 60524
0116827840999991985043018004-07317-039300FM-12+040999999V0203601N00101045001CN0200001N9+02361+02191100821ADDAA106009091AG10999AY161061GF108991031071008001031999MA1999999096151MD1999999-0031MW1211REMSYN017333   59003 60091
0116827840999991985050118004-07317-039300FM-12+040999999V0202301N00151004201CN0040001N9+02381+99999101031ADDAA106010091AG10999AY161061GF108991081071004501999999MA1999999096351MD1999999+0021MW1151REMSYN017333   58002 60101
0129827840999991985050200004-07317-039300FM-12+040999999V0202301N00101012001CN9999999N9+02251+02191101251ADDAA106000091AG10999AY181061GF108991081081008001999999KA1240M+02651MA1999999096571MD1999999+0141MW1021REMSYN017333   10265 58014
0135827840999991985050212004-07317-039300FM-12+040999999V0203201N00051012001CN0200001N9+02471+02191101411ADDAA124010091AG10999AY101061GF107991071081008001001001KA1240N+02021MA1999999096731MD1999999+0081MW1021REMSYN023333   20202 58008 60104
0146827840999991985050312004-07317-039300FM-12+040999999V0209991C00001012001CN0200001N9+02521+02171101411ADDAA124000891AA299001091AG10999AY161061GF108991081081008001999999KA1240N+02131MA1999999096731MD1410001+0001MW1021REMSYN023333   20213 58000 69984
0110827840999991985050318004-07317-039300FM-12+040999999V0200501N00211012001CN0200001N9+02881+02161100941ADDAA106000091AG10999AY101061GF105991051081008001001001MA1999999096301MD1999999-0111MW1021REMSYN011333   59011
0129827840999991985050400004-07317-039300FM-12+040999999V0209991C00001220001CN9999999N9+02181+02101101311ADDAA106000091AG10999AY181061GF100991001001999999001001KA1240M+02891MA1999999096631MD1999999-0071MW1001REMSYN017333   10289 59007
0165827840999991985050412004-07317-039300FM-12+040999999V0200501N00151012001CN0200001N9+02521+02131999999ADDAA124000691AA299000591AG10999AY161061GF108991081081008001999999KA1240N+02111MA1999999096731MD1410001+0001MW1021REMSYN023333   20211 58000 69964EQDQ01 105413APOSLP
0135827840999991985050418004-07317-039300FM-12+040999999V0202701N00151012001CN0200001N9+02681+02201100982ADDAA106008091AG10999AY161061GF107991061081008001061001MA1999999096331MD1999999+0031MW1021REMSYN017333   58003 60081EQDQ01+100983APOSLP
0129827840999991985050500004-07317-039300FM-12+040999999V0202301N00051220001CN9999999N9+02171+02111101291ADDAA106000091AG10999AY101061GF100991001001999999001001KA1240M+02821MA1999999096611MD1999999-0021MW1021REMSYN017333   10282 59002
0135827840999991985050512004-07317-039300FM-12+040999999V0200501N00151012001CN0200001N9+02461+02171101441ADDAA124008091AG10999AY101061GF108991081081008001999999KA1240N+02001MA1999999096751MD1999999+0021MW1021REMSYN023333   20200 58002 60084
0110827840999991985050518004-07317-039300FM-12+040999999V0201801N00461007501CN0200001N9+02501+02131101011ADDAA106000091AG10999AY101061GF108991081071008001999999MA1999999096341MD1999999+0011MW1021REMSYN011333   58001
0146827840999991985050600004-07317-039300FM-12+040999999V0201801N00101012001CN9999999N9+02341+02151101281ADDAA106000291AA299000391AG10999AY161061GF108991081081008001999999KA1240M+02911MA1999999096611MD1410001+0001MW1021REMSYN023333   10291 58000 69921
0135827840999991985050612004-07317-039300FM-12+040999999V0201801N00261012001CN0200001N9+02541+02041101351ADDAA124002091AG10999AY161061GF107991051081008001061001KA1240N+02181MA1999999096381MD1999999-0071MW1021REMSYN023333   20218 59007 60024
0110827840999991985050618004-07317-039300FM-12+040999999V0201401N00311220001CN0200001N9+99999+99999100961ADDAA106000091AG10999AY101061GF102991021021008001001001MA1999999096321MD1999999-0021MW1021REMSYN011333   59002
0129827840999991985050712004-07317-039300FM-12+040999999V0201401N00311012001CN0200001N9+02451+01921101401ADDAA106000091AG10999AY101061GF107991071081008001001001KA1240N+02141MA1999999096721MD1999999+0041MW1021REMSYN017333   20214 58004
0110827840999991985050718004-07317-039300FM-12+040999999V0201401N00311009001CN0020001N9+02711+02011101051ADDAA106000091AG10999AY121061GF108991081081004501999999MA1999999096401MD1999999+0081MW1161REMSYN011333   58008
0135827840999991985050812004-07317-039300FM-12+040999999V0200901N00261220001CN0200001N9+02661+02071101351ADDAA124001091AG10999AY101061GF103991021021008001061001KA1240N+02181MA1999999096681MD1999999-0041MW1021REMSYN023333   20218 59004 60014
0110827840999991985050818004-07317-039300FM-12+040999999V0200501N00211012001CN0200001N9+02721+02151100931ADDAA106000091AG10999AY101061GF106991061081008001001001MA1999999096281MD1999999-0121MW1021REMSYN011333   59012
0135827840999991985050912004-07317-039300FM-12+040999999V0200901N00101009001CN0200001N9+02461+02211101311ADDAA124941092AG10999AY161061GF108991081081004501999999KA1240N+02161MA1999999096631MD1999999-0051MW1021REMSYN023333   20216 59005 69414
0110827840999991985050918004-07317-039300FM-12+040999999V0200901N00261012001CN0200001N9+02941+02881100841ADDAA106000091AG10999AY101061GF105991051081008001001001MA1999999096201MD1999999-0081MW1021REMSYN011333   59008
0129827840999991985051012004-07317-039300FM-12+040999999V0200901N00311012001CN0200001N9+02641+01981101181ADDAA106000091AG10999AY101061GF106991051081008001011001KA1240N+02131MA1999999096521MD1999999-0111MW1021REMSYN017333   20213 59011
0110827840999991985051018004-07317-039300FM-12+040999999V0200901N00311007501CN0200001N9+02791+02111100841ADDAA106000091AG10999AY101061GF108991081051008001999999MA1999999096201MD1410001+0001MW1021REMSYN011333   58000
0129827840999991985051112004-07317-039300FM-12+040999999V0201401N00101012001CN0200001N9+02531+02131101201ADDAA106000091AG10999AY101061GF108991081081008001999999KA1240N+02041MA1999999096531MD1999999+0011MW1021REMSYN017333   20204 58001
0110827840999991985051118004-07317-039300FM-12+040999999V0200501N00151045001CN0200001N9+02761+02071100821ADDAA106000091AG10999AY101061GF108991021081008001011999MA1999999096161MD1999999-0041MW1021REMSYN011333   59004
0129827840999991985051200004-07317-039300FM-12+040999999V0202301N00051220001CN9999999N9+02161+02081101161ADDAA106000091AG10999AY181061GF100991001001999999001001KA1240M+02871MA1999999096491MD1999999+0081MW1001REMSYN017333   10287 58008
0129827840999991985051212004-07317-039300FM-12+040999999V0200901N00101045001CN0200001N9+02561+01931101261ADDAA106000091AG10999AY101061GF108991011081008001011999KA1240N+01871MA1999999096581MD1999999+0051MW1021REMSYN017333   20187 58005
0110827840999991985051218004-07317-039300FM-12+040999999V0200901N00151045001CN0200001N9+02861+01951100861ADDAA106000091AG10999AY101061GF106991041021008001011001MA1999999096211MD1999999+0051MW1021REMSYN011333   58005
0135827840999991985051312004-07317-039300FM-12+040999999V0200901N00211012001CN0200001N9+02461+02091101541ADDAA124002091AG10999AY161061GF108991081081008001999999KA1240N+02031MA1999999096851MD1999999+0271MW1021REMSYN023333   20203 58027 60024
0110827840999991985051318004-07317-039300FM-12+040999999V0200901N00311009001CN0040001N9+02621+02371101151ADDAA106000091AG10999AY121061GF106991061081004501001001MA1999999096481MD1999999+0271MW1161REMSYN011333   58027
0135827840999991985051412004-07317-039300FM-12+040999999V0201401N00101012001CN0200001N9+02521+02171101541ADDAA124008091AG10999AY161061GF107991051081008001031001KA1240N+02081MA1999999096851MD1410001+0001MW1011REMSYN023333   20208 58000 60084
0110827840999991985051418004-07317-039300FM-12+040999999V0201401N00211045001CN0200001N9+02881+02101101081ADDAA106000091AG10999AY101061GF106991041021008001071001MA1999999096431MD1999999-0051MW1021REMSYN011333   59005
0076827840999991985051512004-07317-039300FM-12+040999999V0200901N00211045001CN0200001N9+02671+02001101441ADDAA106000091AG10999AY101061GF105991031021008001071001MA1999999096771MW1021
0110827840999991985051518004-07317-039300FM-12+040999999V0201801N00311220001CN0200001N9+02881+01731101051ADDAA106000091AG10999AY101061GF102991021021008001001001MA1999999096401MD1999999-0031MW1021REMSYN011333   59003
0129827840999991985051600004-07317-039300FM-12+040999999V0209991C00001220001CN9999999N9+02101+01961101391ADDAA106000091AG10999AY101061GF101991011041008001001001KA1240M+02951MA1999999096711MD1999999+0011MW1021REMSYN017333   10295 58001
0129827840999991985051612004-07317-039300FM-12+040999999V0201401N00411220001CN0200001N9+02481+01851101411ADDAA106000091AG10999AY101061GF102991021021008001001001KA1240N+01901MA1999999096721MD1999999-0051MW1021REMSYN017333   20190 59005
0110827840999991985051618004-07317-039300FM-12+040999999V0201401N00261220001CN0200001N9+02851+01821101051ADDAA106000091AG10999AY101061GF103991031021008001001001MA1999999096401MD1410001+0001MW1021REMSYN011333   58000
0129827840999991985051700004-07317-039300FM-12+040999999V0201801N00101220001CN9999999N9+02021+01891101311ADDAA106000091AG10999AY101061GF102991021061008001001001KA1240M+02881MA1999999096621MD1999999-0091MW1021REMSYN017333   10288 59009
0129827840999991985051712004-07317-039300FM-12+040999999V0201401N00461220001CN0200001N9+02521+01771101371ADDAA106000091AG10999AY101061GF103991031021008001001001KA1240N+01981MA1999999096681MD1999999-0041MW1021REMSYN017333   20198 59004
0112827840999991985051718004-07317-039300FM-12+040999999V0201401N00311220001CN0200001N9+02801+01781101001ADDAA106000091AG10999AY101061GA1021+000159099GF103991031021008001001001MA1999999096351MW1021REMSYN011333   82900
0129827840999991985051800004-07317-039300FM-12+040999999V0201801N00151220001CN9999999N9+02171+01801101241ADDAA106000091AG10999AY101061GF100991001001999999001001KA1240M+02901MA1999999096561MD1999999-0061MW1021REMSYN017333   10290 59006
0115827840999991985051812004-07317-039300FM-12+040999999V0201401N00151220001CN0200001N9+02561+01781101381ADDAA106000091AG10999AY101061GF102991011011008001011001KA1240N+01881MA1999999096701MW1021REMSYN017333   20188 8002/
0110827840999991985051818004-07317-039300FM-12+040999999V0201401N00101012001CN0200001N9+02801+01901100991ADDAA106000091AG10999AY101061GF107991071081008001001001MA1999999096341MD1999999-0011MW1021REMSYN011333   59001
0129827840999991985051900004-07317-039300FM-12+040999999V0202301N00101007501CN9999999N9+02441+02131101321ADDAA106000091AG10999AY101061GF108991081051008001999999KA1240M+02871MA1999999096651MD1999999+0091MW1021REMSYN017333   10287 58009
0129827840999991985051912004-07317-039300FM-12+040999999V0201401N00311220001CN0200001N9+02571+01931101381ADDAA106000091AG10999AY101061GF102991021021008001001001KA1240N+02101MA1999999096711MD1999999+0011MW1021REMSYN017333   20210 58001
0110827840999991985051918004-07317-039300FM-12+040999999V0201401N00311012001CN0200001N9+02901+02021101001ADDAA106000091AG10999AY101061GF106991051081008001011001MA1999999096351MD1999999+0011MW1021REMSYN011333   58001
0129827840999991985052012004-07317-039300FM-12+040999999V0201401N00211045001CN0200001N9+02481+01921101391ADDAA106000091AG10999AY101061GF106991021021008001011001KA1240N+01751MA1999999096701MD1999999-0011MW1021REMSYN017333   20175 59001
0110827840999991985052018004-07317-039300FM-12+040999999V0200901N00261045001CN0200001N9+02801+02001101081ADDAA106000091AG10999AY101061GF106991041021008001011001MA1999999096411MD1999999+0061MW1021REMSYN011333   58006
0129827840999991985052100004-07317-039300FM-12+040999999V0209991C00001220001CN9999999N9+02211+02031101321ADDAA106000091AG10999AY101061GF104991041051008001001001KA1240M+02841MA1999999096651MD1999999-0021MW1021REMSYN017333   10284 59002
0129827840999991985052112004-07317-039300FM-12+040999999V0201401N00101012001CN0200001N9+02441+02131101441ADDAA106000091AG10999AY101061GF107991061081008001031001KA1240N+01981MA1999999096751MD1999999+0051MW1021REMSYN017333   20198 58005
0110827840999991985052118004-07317-039300FM-12+040999999V0200501N00101012001CN0200001N9+02961+02131100971ADDAA106000091AG10999AY101061GF106991061081008001001001MA1999999096331MD1999999-0081MW1021REMSYN011333   59008
0129827840999991985052200004-07317-039300FM-12+040999999V0202301N00051007501CN9999999N9+02281+02141101451ADDAA106000091AG10999AY101061GF106991061051008001001001KA1240M+03011MA1999999096731MD1999999+0111MW1021REMSYN017333   10301 58011
0135827840999991985052212004-07317-039300FM-12+040999999V0200501N00101045001CN0200001N9+02581+02171101511ADDAA124005091AG10999AY161061GF106991041081008001071001KA1240N+02151MA1999999096831MD1999999+0081MW1021REMSYN023333   20215 58008 60054
0110827840999991985052218004-07317-039300FM-12+040999999V0203201N00311009001CN0100001N9+02371+02091101161ADDAA106000091AG10999AY131061GF108991081081004501999999MA1999999096491MD1999999+0161MW1161REMSYN011333   58016
0135827840999991985052300004-07317-039300FM-12+040999999V0202701N00151220001CN9999999N9+02181+02131101371ADDAA106002091AG10999AY161061GF102991021061008001001001KA1240M+02911MA1999999096691MD1999999-0071MW1011REMSYN023333   10291 59007 60021
0135827840999991985052312004-07317-039300FM-12+040999999V0202701N00151220001CN9999999N9+02181+02131101371ADDAA106002091AG10999AY161061GF102991021061008001001001KA1240M+02911MA1999999096691MD1999999-0071MW1011REMSYN023333   10291 59007 60021
0129827840999991985052412004-07317-039300FM-12+040999999V0201401N00261045001CN0200001N9+02471+01851101501ADDAA106000091AG10999AY101061GF107991021021008001011001KA1240N+02091MA1999999096811MD1999999+0081MW1021REMSYN017333   20209 58008
0110827840999991985052418004-07317-039300FM-12+040999999V0201401N00311045001CN0200001N9+02771+01831101171ADDAA106000091AG10999AY101061GF107991041021008001011001MA1999999096511MD1999999-0031MW1021REMSYN011333   59003
0129827840999991985052512004-07317-039300FM-12+040999999V0200901N00261045001CN0200001N9+02561+01881101501ADDAA106000091AG10999AY101061GF107991011021008001011001KA1240N+01721MA1999999096811MD1999999-0011MW1021REMSYN017333   20172 59001
0110827840999991985052518004-07317-039300FM-12+040999999V0200901N00261045001CN0200001N9+02721+01851101251ADDAA106000091AG10999AY101061GF108991011011008001011999MA1999999096571MD1999999+0061MW1021REMSYN011333   58006
0129827840999991985052600004-07317-039300FM-12+040999999V0202701N00101015001CN9999999N9+02041+01871101491ADDAA106000091AG10999AY101061GF108991081001017501011999KA1240M+02811MA1999999096801MD1999999+0031MW1021REMSYN017333   10281 58003
0129827840999991985052612004-07317-039300FM-12+040999999V0201401N00211045001CN0200001N9+02641+01851101531ADDAA106000091AG10999AY101061GF105991011011008001011001KA1240N+01861MA1999999096841MD1999999+0031MW1021REMSYN017333   20186 58003
0110827840999991985052618004-07317-039300FM-12+040999999V0200901N00261045001CN0200001N9+02751+01841101201ADDAA106000091AG10999AY101061GF106991011011008001011001MA1999999096541MD1999999-0031MW1021REMSYN011333   59003
0129827840999991985052712004-07317-039300FM-12+040999999V0201801N00311220001CN0200001N9+02481+01901101591ADDAA106000091AG10999AY101061GF102991021021008001001001KA1240N+01691MA1999999096891MD1999999+0051MW1021REMSYN017333   20169 58005
0129827840999991985052812004-07317-039300FM-12+040999999V0201401N00261220001CN0200001N9+02441+01761101511ADDAA106000091AG10999AY101061GF103991031021008001001001KA1240N+01831MA1999999096811MD1999999-0071MW1021REMSYN017333   20183 59007
0129827840999991985052912004-07317-039300FM-12+040999999V0201801N00311220001CN0200001N9+02521+01891101451ADDAA106000091AG10999AY101061GF102991021021008001001001KA1240N+01721MA1999999096751MD1999999-0061MW1021REMSYN017333   20172 59006
0110827840999991985052918004-07317-039300FM-12+040999999V0201401N00261220001CN0200001N9+02901+01551101061ADDAA106000091AG10999AY101061GF102991011011008001011001MA1999999096401MD1999999-0101MW1021REMSYN011333   59010
0129827840999991985053012004-07317-039300FM-12+040999999V0201401N00211007501CN0200001N9+02581+01991101551ADDAA106000091AG10999AY101061GF105991051021008001001001KA1240N+01951MA1999999096861MD1999999+0111MW1021REMSYN017333   20195 58011
0110827840999991985053018004-07317-039300FM-12+040999999V0201401N00311220001CN0200001N9+02881+01911101091ADDAA106000091AG10999AY101061GF103991021021008001011001MA1999999096431MD1999999+0031MW1021REMSYN011333   58003
0129827840999991985053100004-07317-039300FM-12+040999999V0201401N00051012001CN9999999N9+02361+01971101451ADDAA106000091AG10999AY101061GF108991081081008001999999KA1240M+02951MA1999999096771MD1999999+0011MW1021REMSYN017333   10295 58001
0148827840999991985053112004-07317-039300FM-12+040999999V0201401N00311220001CN0200001N9+02501+01771101561ADDAA106000091AG10999AY101061GF102991021021008001001001KA1240N+02101MA1999999999999MD1999999+0021MW1021REMSYN017333   20210 58002EQDQ01 098883APOSP 
0129827840999991985053118004-07317-039300FM-12+040999999V0201401N00411220001CN0200001N9+02811+01901101201ADDAA106000091AG10999AY101061GF103991031021008001001001MA1999999096542MD1999999+0111MW1021REMSYN011333   58011EQDQ01+096543APOSP 
0076827840999991985060112004-07317-039300FM-12+040999999V0201401N004619999999N0200001N9+02461+01781101511ADDAA106000091AG10999AY101061GF105991999999008001999999MA1999999096831MW1021
0110827840999991985060118004-07317-039300FM-12+040999999V0201401N00151007501CN0200001N9+02741+01971101101ADDAA106000091AG10999AY101061GF108991051041008001011001MA1999999096441MD1999999-0101MW1021REMSYN011333   59010
0129827840999991985060212004-07317-039300FM-12+040999999V0200901N00461220001CN0200001N9+02501+01721101351ADDAA106000091AG10999AY101061GF101991011011012501001001KA1240N+01871MA1999999096671MD1999999-0161MW1021REMSYN017333   20187 59016
0129827840999991985060312004-07317-039300FM-12+040999999V0201801N00261220001CN0200001N9+02561+01971101331ADDAA106000091AG10999AY101061GF102991011021008001051001KA1240N+01901MA1999999096661MD1999999-0011MW1021REMSYN017333   20190 59001
0110827840999991985060318004-07317-039300FM-12+040999999V0200501N00151012001CN0200001N9+02901+02021100931ADDAA106000091AG10999AY101061GF106991061081008001001001MA1999999096291MD1999999-0061MW1021REMSYN011333   59006
0129827840999991985060400004-07317-039300FM-12+040999999V0201801N00051012001CN0200001N9+02411+02151101201ADDAA106000091AG10999AY101061GF106991061081008001001001KA1240M+02931MA1999999096541MD1999999-0011MW1021REMSYN017333   10293 59001
0146827840999991985060412004-07317-039300FM-12+040999999V0200901N00051220001CN0200001N9+02401+02111101341ADDAA124000291AA299000391AG10999AY161061GF103991031081008001001001KA1240N+02031MA1999999096661MD1410001+0001MW1011REMSYN023333   20203 58000 69924
0110827840999991985060418004-07317-039300FM-12+040999999V0201401N00211012001CN0200001N9+02911+02121100941ADDAA106000091AG10999AY101061GF106991061081008001001001MA1999999096291MD1410001+0001MW1021REMSYN011333   58000
0135827840999991985060500004-07317-039300FM-12+040999999V0201401N00051220001CN9999999N9+02221+02121101311ADDAA106009091AG10999AY161061GF103991021081008001071001KA1240M+02971MA1999999096661MD1999999+0121MW1011REMSYN023333   10297 58012 60091
0135827840999991985060512004-07317-039300FM-12+040999999V0200901N00051012001CN0040001N9+02261+02031101511ADDAA124020091AG10999AY161061GF108991051081008001031999KA1240N+02031MA1999999096811MD1999999+0151MW1021REMSYN023333   20203 58015 60204
0110827840999991985060518004-07317-039300FM-12+040999999V0200501N00151045001CN0200001N9+02881+02081101071ADDAA106000091AG10999AY101061GF106991041021008001071001MA1999999096421MD1999999+0131MW1021REMSYN011333   58013
0129827840999991985060600004-07317-039300FM-12+040999999V0209991C00001012001CN9999999N9+02261+02141101431ADDAA106000091AG10999AY181061GF106991061081008001001001KA1240M+03001MA1999999096741MD1999999+0081MW1021REMSYN017333   10300 58008
0129827840999991985060612004-07317-039300FM-12+040999999V0209991C00001012001CN9999999N9+02261+02141101431ADDAA106000091AG10999AY181061GF106991061081008001001001KA1240M+03001MA1999999096741MD1999999+0081MW1021REMSYN017333   10300 58008
0110827840999991985060618004-07317-039300FM-12+040999999V0200901N00051220001CN0200001N9+02761+02091101251ADDAA106000091AG10999AY101061GF104991031081008001041001MA1999999096581MD1999999+0161MW1021REMSYN011333   58016
0129827840999991985060700004-07317-039300FM-12+040999999V0209991C00001220001CN9999999N9+02131+02071101491ADDAA106000091AG10999AY181061GF100991001001999999001001KA1240M+02861MA1999999096781MD1999999+0041MW1001REMSYN017333   10286 58004
0135827840999991985060712004-07317-039300FM-12+040999999V0200901N00051007501CN0040001N9+02181+02011101731ADDAA124003091AG10999AY161061GF108991071071008001031999KA1240N+01941MA1999999097011MD1999999+0061MW1021REMSYN023333   20194 58006 60034
0115827840999991985060718004-07317-039300FM-12+040999999V0203601N00051015001CN0200001N9+02771+02131101311ADDAA106000091AG10999GF106991061081012501001001MA1999999096671MD1999999+0061REMSYN011333   58006EQDQ01+999990APOSP 
0129827840999991985060812004-07317-039300FM-12+040999999V0203201N00051007501CN0005001N9+02221+02141101641ADDAA106000091AG10999AY151061GF108991081051008001999999KA1240N+01831MA1999999096921MD1999999-0091MW1421REMSYN017333   20183 59009
0110827840999991985060818004-07317-039300FM-12+040999999V0200501N00211012001CN0200001N9+02881+02101101231ADDAA106000091AG10999AY151061GF107991071081008001001001MA1999999096561MD1999999-0081MW1031REMSYN011333   59008
0121827840999991985060912004-07317-039300FM-12+040999999V0200901N00051012001CN0200001N9+02481+02091101731ADDAA124000191AG10999GF108991071081008001031999KA1240N+01861MA1999999097031MD1999999+0111REMSYN023333   20186 58011 69914
0096827840999991985060918004-07317-039300FM-12+040999999V0203601N00211015001CN0200001N9+02941+02081101341ADDAA106000091AG10999GF107991071081012501001001MA1999999096661MD1999999+0101REMSYN011333   58010
0148827840999991985061000004-07317-039300FM-12+040999999V0201401N00051220001CN9999999N9+03191+02121101661ADDAA106000091AG10999AY181061GF100991001001999999001001KA1240M+99999MA1999999096961MD1999999+0171MW1001REMSYN017333   10296 58017EQDQ01 +02962ATMX  
0129827840999991985061012004-07317-039300FM-12+040999999V0201401N00051220001CN0200001N9+02461+02091101831ADDAA106000091AG10999AY141061GF103991031021008001001001KA1240N+01851MA1999999097131MD1999999+0101MW1101REMSYN017333   20185 58010
0096827840999991985061018004-07317-039300FM-12+040999999V0203601N00211045001CN0200001N9+02961+01961101361ADDAA106000091AG10999GF106991041031008001071001MA1999999096691MD1999999+0031REMSYN011333   58003
0129827840999991985061100004-07317-039300FM-12+040999999V0209991C00001220001CN9999999N9+02161+02081101711ADDAA106000091AG10999AY181061GF100991001001999999001001KA1240M+03011MA1999999097011MD1999999+0051MW1001REMSYN017333   10301 58005
0135827840999991985061112004-07317-039300FM-12+040999999V0201801N00051012001CN0040001N9+02321+02111101851ADDAA124020091AG10999AY161061GF108991071081008001031999KA1240N+01901MA1999999097141MD1999999+0011MW1021REMSYN023333   20190 58001 60204
0096827840999991985061118004-07317-039300FM-12+040999999V0201401N00101220001CN0200001N9+02861+02141101341ADDAA106000091AG10999GF104991041021012501001001MA1999999096671MD1999999-0021REMSYN011333   59002
0096827840999991985061218004-07317-039300FM-12+040999999V0201401N00361045001CN0200001N9+02541+01951101471ADDAA106000091AG10999GF107991041081008001071001MA1999999096791MD1999999+0121REMSYN011333   58012
0115827840999991985061300004-07317-039300FM-12+040999999V0200901N00261012001CN9999999N9+02281+01901101711ADDAA106000091AG10999GF108991081081008001999999KA1240M+02711MA1999999097021MD1410001+0001REMSYN017333   10271 58000
0115827840999991985061312004-07317-039300FM-12+040999999V0201401N00361012001CN0200001N9+02391+01771101811ADDAA106000091AG10999GF108991081081008001999999KA1240N+02121MA1999999097111MD1999999+0061REMSYN017333   20212 58006
0096827840999991985061318004-07317-039300FM-12+040999999V0201801N00151007501CN0200001N9+02431+01811101481ADDAA106000091AG10999GF108991081071008001999999MA1999999096791MD1410001+0001REMSYN011333   58000
0096827840999991985061418004-07317-039300FM-12+040999999V0201401N00311220001CN0200001N9+02671+01851101421ADDAA106000091AG10999GF104991041021008001001001MA1999999096741MD1999999-0051REMSYN011333   59005
0115827840999991985061512004-07317-039300FM-12+040999999V0201401N00211220001CN0200001N9+02521+01891101681ADDAA106000091AG10999GF103991031021008001001001KA1240N+02041MA1999999096981MD1999999-0061REMSYN017333   20204 59006
0096827840999991985061518004-07317-039300FM-12+040999999V0200901N00261012001CN0200001N9+02711+01801101361ADDAA106000091AG10999GF107991071081008001001001MA1999999096701MD1999999-0041REMSYN011333   59004
0115827840999991985061612004-07317-039300FM-12+040999999V0201401N00211220001CN0200001N9+02531+99999101571ADDAA106000091AG10999GF101991011081008001001001KA1240N+02081MA1999999096881MD1999999-0101REMSYN017333   20208 59010
0096827840999991985061618004-07317-039300FM-12+040999999V0201801N00311012001CN0200001N9+02721+01951101291ADDAA106000091AG10999GF107991071081008001001001MA1999999096621MD1999999-0081REMSYN011333   59008
0121827840999991985061812004-07317-039300FM-12+040999999V0201801N00051007501CN0200001N9+02381+01931101811ADDAA124002091AG10999GF108991081051008001999999KA1240N+02021MA1999999097101MD1999999+0101REMSYN023333   20202 58010 60024
0127827840999991985061818004-07317-039300FM-12+040999999V0201401N00311012001CN0200001N9+02641+02001101391ADDAA106000491AA299000591AG10999AY161061GF108991081081008001999999MA1999999096721MD1999999+0061MW1021REMSYN017333   58006 69941
0121827840999991985061900004-07317-039300FM-12+040999999V0209991C00001007501CN9999999N9+02151+02101101681ADDAA106000391AG10999GF108991081021008001999999KA1240M+02761MA1999999096981MD1999999-0011REMSYN023333   10276 59001 69931
0132827840999991985061912004-07317-039300FM-12+040999999V0201401N00411220001CN0200001N9+02471+01821101781ADDAA124000791AA299001091AG10999GF104991031021008001061001KA1240N+02061MA1999999097081MD1999999-0021REMSYN023333   20206 59002 69974
0096827840999991985061918004-07317-039300FM-12+040999999V0201401N00361045001CN0200001N9+02801+01781101461ADDAA106000091AG10999GF106991041021008001071001MA1999999096781MD1999999+0061REMSYN011333   58006
0115827840999991985062012004-07317-039300FM-12+040999999V0201401N00461007501CN0200001N9+02321+01811101731ADDAA106000091AG10999GF108991081051008001999999KA1240N+02041MA1999999097031MD1999999-0051REMSYN017333   20204 59005
0096827840999991985062018004-07317-039300FM-12+040999999V0200901N00361007501CN0200001N9+02721+01901101341ADDAA106000091AG10999GF105991051021008001001001MA1999999096671MD1999999-0111REMSYN011333   59011
