0154829750999991985100112004-09067-044367FM-12+033299999V0201401N00311012001CN0200001N9+02281+00981101091ADDAA124009091AG10999AY161061GF108991999081008001081081KA1240N+02181MA1999999097251MD1999999-0061MW1091REMSYN023333   20218 59006 60094EQDQ01+000082SCOTLC
0135829750999991985100118004-09067-044367FM-12+033299999V0200901N00461012001CN0040001N9+02011+01811101231ADDAA106036091AG10999AY161061GF108991999081008001081081MA1999999097311MD1999999+0461MW1091REMSYN017333   58046 60361EQDQ01+000082SCOTLC
0135829750999991985100200004-09067-044367FM-12+033299999V0200901N00151012001CN9999999N9+02031+01851101131ADDAA106004091AG10999AY161061GF108991081081008001999999KA1240M+02931MA1999999097221MD1999999+0331MW1071REMSYN023333   10293 58033 60041
0129829750999991985100212004-09067-044367FM-12+033299999V0200501N00101045001CN0200001N9+02391+01801101521ADDAA106000091AG10999AY191061GF107991031041008001021001KA1240N+02001MA1999999097601MD1999999+0351MW1061REMSYN017333   20200 58035
0096829750999991985100218004-09067-044367FM-12+033299999V0201801N00151045001CN0100001N9+03091+01951101041ADDAA106000091AG10999GF105991031011008001031001MA1999999097191MD1999999-0131REMSYN011333   59013
0096829750999991985100318004-09067-044367FM-12+033299999V0200901N00311045001CN0200001N9+03111+02061100961ADDAA106000091AG10999GF107991031031008001041001MA1999999097141MD1999999-0051REMSYN011333   59005
0135829750999991985100412004-09067-044367FM-12+033299999V0201801N00151220001CN0040001N9+02391+02091101441ADDAA124002091AG10001AY161061GF103991021031008001061051KA1240N+02181MA1999999097581MD1999999+0031MW1071REMSYN023333   20218 58003 60024
0096829750999991985100418004-09067-044367FM-12+033299999V0201801N00151045001CN0200001N9+03091+01981100961ADDAA106000091AG10999GF106991031041008001071051MA1999999097151MD1999999+0011REMSYN011333   58001
0143829750999991985100512004-09067-044367FM-12+033299999V0203201N00101045001CN0500001N9+02331+02071101361ADDAA124002091AG10999AY161061AY221061GF107991041031008001021001KA1240N+02181MA1999999097501MD1999999-0081MW1071REMSYN023333   20218 59008 60024
0096829750999991985100518004-09067-044367FM-12+033299999V0200901N00101045001CN0200001N9+02951+02001100941ADDAA106000091AG10001GF106991031021008001021001MA1999999097101MD1999999-0051REMSYN011333   59005
0096829750999991985100618004-09067-044367FM-12+033299999V0201801N00311045001CN0040001N9+03111+01191100851ADDAA106000091AG10999GF107991031021008001041001MA1999999097021MD1999999+0081REMSYN011333   58008
0115829750999991985100700004-09067-044367FM-12+033299999V0203601N00151045001CN9999999N9+02541+02251100931ADDAA106000091AG10999GF108991041061008001081071KA1240M+03281MA1999999097091MD1999999-0161REMSYN017333   10328 59016
0115829750999991985100712004-09067-044367FM-12+033299999V0203601N00101045001CN0040001N9+02471+02091999999ADDAA106000091AG10001GF108991031061008001071051KA1240N+02291MA1999999097501MD1999999+0101REMSYN017333   20229 58010
0096829750999991985100718004-09067-044367FM-12+033299999V0203601N00411045001CN0100001N9+02801+02001101101ADDAA106000091AG10999GF106991041031008001061001MA1999999097261MD1999999+0241REMSYN011333   58024
0096829750999991985100818004-09067-044367FM-12+033299999V0203201N00311045001CN0100001N9+03241+02091100881ADDAA106000091AG10999GF107991041051008001061001MA1999999097061MD1999999-0201REMSYN011333   59020
0115829750999991985100900004-09067-044367FM-12+033299999V0201801N00261045001CN9999999N9+02411+01771101191ADDAA106000091AG10999GF108991041061008001071021KA1240M+03401MA1999999097341MD1999999+0131REMSYN017333   10340 58013
0096829750999991985100918004-09067-044367FM-12+033299999V0201801N001519999999N0100001N9+03401+01541100811ADDAA106000091AG10999GF105991041001008001061051MA1999999097001MD1999999-0061REMSYN011333   59006
0134829750999991985101000004-09067-044367FM-12+033299999V0200501N00151045001CN9999999N9+02811+01781101021ADDAA106000091AG10999GF105991041031008001061051KA1240M+99999MA1999999097211MD1999999-0131REMSYN017333   10256 59013EQDQ01 +02562ATMX  
0115829750999991985101012004-09067-044367FM-12+033299999V0201801N00151220001CN0200001N9+02731+01951101381ADDAA106000091AG10999GF103991021021008001031001KA1240N+02281MA1999999097551MD1999999+0101REMSYN017333   20228 58010
0096829750999991985101018004-09067-044367FM-12+033299999V0201801N00151045001CN0500001N9+03291+02001100891ADDAA106000091AG10999GF105991031021008001011001MA1999999097001MD1999999+0091REMSYN011333   58009
0115829750999991985101112004-09067-044367FM-12+033299999V0209999999999220001CN0100001N9+02651+01881101481ADDAA106000091AG10999GF103991031001008001061051KA1240N+02311MA1999999097651MD1999999+0101REMSYN017333   20231 58010
0096829750999991985101118004-09067-044367FM-12+033299999V0200901N00151007501CN0200001N9+03471+01781100881ADDAA106000091AG10999GF106991051041008001001061MA1999999097101MD1999999+0011REMSYN011333   58001
0115829750999991985101412004-09067-044367FM-12+033299999V0200901N00311220001CN0200001N9+02891+01641101231ADDAA106000091AG10999GF104991021001008001041061KA1240N+02241MA1999999097201MD1999999-0131REMSYN017333   20224 59013
0151829750999991985110411004-09067-044367FM-12+033299999V0200501N00361012001CN0100001N9+02391+01861101311ADDAA124000391AG10999AY151999AY251999GA1021+999999099GF108991081081008001999999KA1240N+01991MA1999999091141MW1021REMSYN029333   20199 50006 69934 8293/
0129829750999991985110412004-09067-044367FM-12+033299999V0200501N00361012001CN0100001N9+02391+01861101311ADDAA124000391AG10999AY151061AY251061GF108991081081008001999999KA1240N+01991MA1999999091141MW1021REMSYN023333   20199 50006 69934
0112829750999991985111800004-09067-044367FM-12+033299999V0201301N00101220001CN0500001N9-00971-01741102091ADDAA106000091AG10999GF100991001001999999001001KA1240N-01001MD1710041+9999REMSYN029333   21100 555   57003 7000/
