0129831820999991985010112004-11300-041867FM-12+074799999V0200501N00101045001CN0100001N9+02601+01791101251ADDAA106000091AG10999AY101061GF108991011031008001051021KA1240N+02021MA1999999092951MD1999999+0041MW1021REMSYN017333   20202 58004
0135831820999991985010212004-11300-041867FM-12+074799999V0200901N00211045001CN0040001N9+02361+01971101121ADDAA124023091AG10999AY161061GF108991021031008001051081KA1240N+02101MA1999999092821MD1999999-0131MW1611REMSYN023333   20210 59013 60234
0135831820999991985010312004-11300-041867FM-12+074799999V0203601N00101007501CN0100001N9+02341+02011101151ADDAA124003091AG10999AY161061GF108991071051008001031081KA1240N+02041MA1999999092821MD1410001+0001MW1021REMSYN023333   20204 58000 60034
0135831820999991985010512004-11300-041867FM-12+074799999V0200901N00511007501CN0100001N9+02381+01951999999ADDAA124006091AG10999AY161061GF108991071051008001041999KA1240N+01941MA1999999093011MD1999999+0141MW1021REMSYN023333   20194 58014 60064
0129831820999991985010812004-11300-041867FM-12+074799999V0200501N00261045001CN0100001N9+02681+01971101051ADDAA106000091AG10999AY101061GF108991011021008001031011KA1240N+02061MA1999999092781MD1999999-0191MW1021REMSYN017333   20206 59019
0120831820999991985011012004-11300-041867FM-12+074799999V0200901N00101004201CN0020001N9+02341+02301101321ADDAA124013091AG10999AY121061GF108991081071004501999999KA1240N+01881MD1410001+0001MW1161REMSYN023333   20188 58000 60134
0135831820999991985011112004-11300-041867FM-12+074799999V0201801N00211004201CN0040001N9+02281+02031101261ADDAA124007091AG10999AY161061GF108991071071004501021999KA1240N+01981MA1999999092911MD1999999-0061MW1021REMSYN023333   20198 59006 60074
0129831820999991985011612004-11300-041867FM-12+074799999V0200901N00361007501CN0040001N9+02441+01991101291ADDAA106000091AG10999AY101061GF108991071051008001001011KA1240N+02001MA1999999092961MD1999999-0041MW1021REMSYN017333   20200 59004
0129831820999991985011712004-11300-041867FM-12+074799999V0200901N00311220001CN0040001N9+02411+01891101051ADDAA106000091AG10999AY101061GF103991011051012501011999KA1240N+02071MA1999999092751MD1999999-0211MW1021REMSYN017333   20207 59021
0065831820999991985012112004-11300-041867FM-12+074799999V0200501N001519999999N0010001N9+02261+99999101451ADDAG10999AY161061GF199999999999004501999999MA1999999093071MW1161
0135831820999991985012212004-11300-041867FM-12+074799999V0200901N00361045001CN0020001N9+02381+01991101191ADDAA124002091AG10999AY101061GF108991021051008001051011KA1240N+02061MA1999999092861MD1999999-0211MW1021REMSYN023333   20206 59021 60024
0135831820999991985012512004-11300-041867FM-12+074799999V0202701N00151045001CN0100001N9+02171+02011101481ADDAA124013091AG10999AY161061GF108991021071004501011081KA1240N+01931MA1999999093081MD1999999+0081MW1021REMSYN023333   20193 58008 60134
0135831820999991985012812004-11300-041867FM-12+074799999V0203201N00361007501CN0100001N9+02261+02031101141ADDAA124000191AG10999AY161061GF108991061051008001041041KA1240N+02051MA1999999092801MD1999999+0091MW1021REMSYN023333   20205 58009 69914
0135831820999991985013012004-11300-041867FM-12+074799999V0201401N00101004201CN0100001N9+02341+02011101291ADDAA124006091AG10999AY101061GF108991051071004501071001KA1240N+01961MA1999999092941MD1999999+0031MW1021REMSYN023333   20196 58003 60064
0129831820999991985020412004-11300-041867FM-12+074799999V0201401N00411220001CN0040001N9+02291+01881101561ADDAA106000091AG10999AY101061GF101991011011008001001001KA1240N+01721MA1999999093181MD1999999+0061MW1021REMSYN017333   20172 58006
0110831820999991985020618004-11300-041867FM-12+074799999V0201401N00211220001CN0100001N9+02871+01871101111ADDAA106000091AG10999AY101061GF102991021021008001001001MA1999999092831MD1999999-0011MW1021REMSYN011333   59001
0129831820999991985020712004-11300-041867FM-12+074799999V0201401N00411220001CN0100001N9+02381+01871101531ADDAA106000091AG10999AY101061GF102991011011012501001011KA1240N+01801MA1999999093171MD1999999+0011MW1021REMSYN017333   20180 58001
0129831820999991985020812004-11300-041867FM-12+074799999V0201401N00511220001CN0040001N9+02351+01761101451ADDAA106000091AG10999AY101061GF102991011001017501051021KA1240N+01821MA1999999093101MD1999999-0071MW1021REMSYN017333   20182 59007
0129831820999991985021012004-11300-041867FM-12+074799999V0201401N00721220001CN0100001N9+02341+01761101381ADDAA106000091AG10999AY101061GF101991011001017501041001KA1240N+01801MA1999999093041MD1999999+0051MW1021REMSYN017333   20180 58005
0129831820999991985021212004-11300-041867FM-12+074799999V0201401N00411045001CN0100001N9+02411+01821101441ADDAA106000091AG10999AY101061GF106991041021008001041011KA1240N+01941MA1999999093101MD1999999+0041MW1021REMSYN017333   20194 58004
0110831820999991985021218004-11300-041867FM-12+074799999V0201401N00311007501CN0020001N9+02771+01891101051ADDAA106000091AG10999AY121061GF107991051031008001001021MA1999999092751MD1999999+0031MW1161REMSYN011333   58003
0135831820999991985021312004-11300-041867FM-12+074799999V0201401N00511220001CN0040001N9+02311+01831101431ADDAA124004091AG10999AY101061GF106991031051008001001011KA1240N+01681MA1999999093071MD1999999-0031MW1021REMSYN023333   20168 59003 60044
0099831820999991985021403004-11300-041867FM-12+074799999V0202701N00151220001CN0500001N9+99999+99999100451ADDAG10999AY101031GF107991001001999999001011MD1810151+9999MW1021EQDQ01 -00793ATOT  Q02 -01793ATOD  
0110831820999991985021418004-11300-041867FM-12+074799999V0201801N00261007501CN0100001N9+02941+01911100941ADDAA106000091AG10999AY101061GF106991051021008001051001MA1999999092651MD1999999-0041MW1021REMSYN011333   59004
0129831820999991985021512004-11300-041867FM-12+074799999V0200901N00361220001CN0100001N9+02401+01821101391ADDAA106000091AG10999AY101061GF102991021021008001001001KA1240N+01801MA1999999093061MD1999999-0041MW1021REMSYN017333   20180 59004
0148831820999991985021712004-11300-041867FM-12+074799999V0200901N00511004201CN0200001N9+02041+01821101451ADDAA106000091AG10999AY101061GF108991051051004501021999KA1240M+99999MA1999999091681MD1999999+0061MW1021REMSYN017333   10184 58006EQDQ01 +01842ATMX  
0110831820999991985021818004-11300-041867FM-12+074799999V0209999999999045001CN0100001N9+02711+99999999999ADDAA106000091AG10999AY101061GF108991021021008001051011MA1999999092781MD1999999+0181MW1021REMSYN011333   58018
0115831820999991985021912004-11300-041867FM-12+074799999V0200901N00461007501CN0010001N9+99999+99999101421ADDAA106000091AG10999AY111061GF108991081051008001999999KA1240N+01841MA1999999093051MW1101REMSYN017333   20184 95005
0129831820999991985021918004-11300-041867FM-12+074799999V0201401N00511220001CN0040001N9+02641+01901101101ADDAA106000091AG10999AY111061GF103991021021008001051001MA1999999091772MD1999999-0011MW1151REMSYN011333   59001EQDQ01+091773APOSP 
0129831820999991985022012004-11300-041867FM-12+074799999V0209999999999007501CN0100001N9+99999+99999999999ADDAA106000091AG10999AY101061GF106991051021008001001011KA1240N+01671MA1999999093051MD1410001+0001MW1021REMSYN017333   20167 58000
0129831820999991985022212004-11300-041867FM-12+074799999V0200901N00261045001CN0020001N9+02361+02111101161ADDAA106000091AG10999AY101061GF106991041021008001041011KA1240N+01741MA1999999092831MD1999999-0201MW1101REMSYN017333   20174 59020
0110831820999991985022218004-11300-041867FM-12+074799999V0201801N00101220001CN0100001N9+02891+01831100651ADDAA106000091AG10999AY101061GF102991011021008001001021MA1999999092371MD1999999-0221MW1021REMSYN011333   59022
0129831820999991985022312004-11300-041867FM-12+074799999V0203601N00361007501CN0100001N9+02511+02051100991ADDAA106000091AG10999AY101061GF106991061031008001001001KA1240N+01741MA1999999092701MD1999999-0131MW1021REMSYN017333   20174 59013
0135831820999991985022412004-11300-041867FM-12+074799999V0201801N00311007501CN0040001N9+02321+02131101171ADDAA124008091AG10999AY161061GF108991081051008001999999KA1240N+02101MA1999999092841MD1999999+0141MW1021REMSYN023333   20210 58014 60084
0135831820999991985022512004-11300-041867FM-12+074799999V0200901N00211045001CN0040001N9+02441+02091101231ADDAA124008091AG10999AY161061GF108991021081012501051011KA1240N+01961MA1999999092911MD1999999+0071MW1021REMSYN023333   20196 58007 60084
0135831820999991985022612004-11300-041867FM-12+074799999V0201401N00311220001CN0010001N9+02321+01981101401ADDAA124005091AG10999AY121061GF108991021021008001001041KA1240N+01901MA1999999092031MD1999999+0111MW1101REMSYN023333   20190 58011 60054
0129831820999991985030112004-11300-041867FM-12+074799999V0201401N00671220001CN0040001N9+02281+01861101461ADDAA106000091AG10999AY101061GF108991031021008001001011KA1240N+01781MA1999999093101MD1999999-0021MW1021REMSYN017333   20178 59002
0129831820999991985030412004-11300-041867FM-12+074799999V0201401N00621220001CN0040001N9+02301+01721101231ADDAA106000091AG10999AY101061GF104991011021008001061001KA1240N+01921MA1999999092891MD1999999-0131MW1021REMSYN017333   20192 59013
0129831820999991985030612004-11300-041867FM-12+074799999V0201401N00621220001CN0100001N9+02331+01741101131ADDAA106000091AG10999AY101061GF102991011011012501001011KA1240N+01761MA1999999092801MD1999999-0041MW1021REMSYN017333   20176 59004
0129831820999991985030712004-11300-041867FM-12+074799999V0201401N00461220001CN0100001N9+02381+01911101201ADDAA106000091AG10999AY101061GF108991011011008001001011KA1240N+01721MA1999999092861MD1999999+0061MW1021REMSYN017333   20172 58006
0129831820999991985030812004-11300-041867FM-12+074799999V0201401N00411220001CN0500001N9+02401+01961101191ADDAA106000091AG10999AY101061GF107991021011012501001011KA1240N+01721MA1999999092861MD1410001+0001MW1021REMSYN017333   20172 58000
0129831820999991985030912004-11300-041867FM-12+074799999V0200901N00411220001CN0100001N9+02551+01881101131ADDAA106000091AG10999AY101061GF104991041021008001001001KA1240N+01721MA1999999092831MD1999999-0031MW1021REMSYN017333   20172 59003
0129831820999991985031012004-11300-041867FM-12+074799999V0200501N00051220001CN0040001N9+02511+01941101251ADDAA106000091AG10999AY101061GF102991011011012501001011KA1240N+01721MA1999999092931MD1999999+0101MW1021REMSYN017333   20172 58010
0110831820999991985031018004-11300-041867FM-12+074799999V0200901N00211220001CN0100001N9+03131+01641100741ADDAA106000091AG10999AY101061GF102991021021008001001041MA1999999092481MD1999999+0011MW1021REMSYN011333   58001
0129831820999991985031112004-11300-041867FM-12+074799999V0200501N00261007501CN0040001N9+02661+02021101131ADDAA106000091AG10999AY101061GF107991061031008001001011KA1240N+01921MA1999999092851MD1999999-0081MW1021REMSYN017333   20192 59008
0129831820999991985031212004-11300-041867FM-12+074799999V0200901N00151045001CN0100001N9+02531+02001101121ADDAA106000091AG10999AY101061GF108991011021008001041011KA1240N+02061MA1999999092831MD1999999-0021MW1021REMSYN017333   20206 59002
0129831820999991985031312004-11300-041867FM-12+074799999V0201401N00151045001CN0040001N9+02341+02001101141ADDAA106000091AG10999AY101061GF108991021021012501021999KA1240N+01981MA1999999092831MD1410001+0001MW1021REMSYN017333   20198 58000
0135831820999991985031412004-11300-041867FM-12+074799999V0201401N00361007501CN0010001N9+02321+02021101361ADDAA124021091AG10999AY161061GF108991081051008001999999KA1240N+01821MA1999999092991MD1999999+0161MW1101REMSYN023333   20182 58016 60214
0129831820999991985031512004-11300-041867FM-12+074799999V0201401N00311007501CN0040001N9+02261+01901101341ADDAA106000091AG10999AY101061GF108991081051008001999999KA1240N+01801MA1999999092981MD1999999-0011MW1021REMSYN017333   20180 59001
0129831820999991985031612004-11300-041867FM-12+074799999V0201401N00261220001CN0010001N9+02471+01971101411ADDAA106000091AG10999AY121061GF108991011011012501001011KA1240N+01841MA1999999093071MD1999999+0091MW1051REMSYN017333   20184 58009
0129831820999991985031712004-11300-041867FM-12+074799999V0201401N00411220001CN0100001N9+02311+01901101391ADDAA106000091AG10999AY101061GF108991041051008001001041KA1240N+01781MA1999999093041MD1999999-0031MW1021REMSYN017333   20178 59003
0129831820999991985031812004-11300-041867FM-12+074799999V0200901N00361045001CN0040001N9+02501+01961101251ADDAA106000091AG10999AY101061GF108991011051008001061011KA1240N+01841MA1999999092941MD1999999-0101MW1021REMSYN017333   20184 59010
0129831820999991985031912004-11300-041867FM-12+074799999V0201401N00311220001CN0040001N9+02561+02081101121ADDAA106000091AG10999AY101061GF102991021021008001001001KA1240N+01921MA1999999092901MD1999999-0041MW1021REMSYN017333   20192 59004
0135831820999991985032012004-11300-041867FM-12+074799999V0202301N00211004201CN0040001N9+02241+02011101331ADDAA124009091AG10999AY161061GF108991081071004501999999KA1240N+01911MA1999999092971MD1999999+0071MW1021REMSYN023333   20191 58007 60094
0135831820999991985032112004-11300-041867FM-12+074799999V0200901N00211220001CN0100001N9+02381+01971101331ADDAA124011091AG10999AY101061GF103991011051008001051001KA1240N+01741MA1999999092971MD1410001+0001MW1021REMSYN023333   20174 58000 60114
0110831820999991985032218004-11300-041867FM-12+074799999V0200901N00311045001CN0100001N9+02791+02011100981ADDAA106000091AG10999AY121061GF106991031021008001051001MA1999999092691MD1999999+0081MW1151REMSYN011333   58008
0116831820999991985032418004-11300-041867FM-12+074799999V0201401N00361007501CN0100001N9+02601+02121101051ADDAA106000591AG10999AY121061GF106991061031008001001001MA1999999092731MD1999999-0071MW1611REMSYN017333   59007 69951
0135831820999991985032512004-11300-041867FM-12+074799999V0201401N00461220001CN0100001N9+02381+01801101521ADDAA124000591AG10999AY101061GF103991011011012501041011KA1240N+01801MA1999999093151MD1999999-0021MW1021REMSYN023333   20180 59002 69954
0110831820999991985032518004-11300-041867FM-12+074799999V0201401N00411220001CN0100001N9+03011+01711101031ADDAA106000091AG10999AY101061GF103991021021008001051001MA1999999092751MD1999999+0021MW1021REMSYN011333   58002
0136831820999991985032612004-11300-041867FM-12+074799999V0203201N00101220001CN0040001N9+03501+99999999999ADDAA106000091AG10999AY101061GA1021+060009009GF102991001001999999001011KA1240M+03601MD1999999-0181MW1061REMSYN023333   10360 59018 82070
0129831820999991985032712004-11300-041867FM-12+074799999V0200901N00211220001CN0100001N9+02641+01931101381ADDAA106000091AG10999AY101061GF108991001001999999001011KA1240N+01841MA1999999093071MD1999999-0031MW1021REMSYN017333   20184 59003
0110831820999991985032718004-11300-041867FM-12+074799999V0203201N00261220001CN0040001N9+03091+01821100761ADDAA106000091AG10999AY101061GF102991011021008001001011MA1999999092701MD1999999-0041MW1021REMSYN011333   59004
0116831820999991985032812004-11300-041867FM-12+074799999V0201401N00101045001CN0040001N9+02571+01931101491ADDAA106000091AG10999AY101061GF108991011011012501051011MA1999999093151MD1999999+0081MW1021REMSYN017333   12019 58008
0135831820999991985032912004-11300-041867FM-12+074799999V0200901N00151007501CN0100001N9+02441+02071101331ADDAA124014091AG10999AY161061GF108991061051008001031011KA1240N+02061MA1999999093021MD1999999-0131MW1021REMSYN023333   20206 59013 60144
0135831820999991985033112004-11300-041867FM-12+074799999V0201401N00261045001CN0040001N9+02251+02001101271ADDAA124034091AG10999AY191061GF108991011071004501021999KA1240N+01901MA1999999092951MD1999999-0111MW1021REMSYN023333   20190 59011 60344
0146831820999991985040112004-11300-041867FM-12+074799999V0201401N00721007501CN0100001N9+02411+01911101371ADDAA124000291AA299000391AG10999AY161061GF107991071051008001001001KA1240N+01981MA1999999093041MD1999999+0111MW1031REMSYN023333   20198 58011 69924
0129831820999991985040212004-11300-041867FM-12+074799999V0201401N00621220001CN0100001N9+02381+01801101461ADDAA106000091AG10999AY101061GF105991021011008001001011KA1240N+01841MA1999999093111MD1999999+0071MW1021REMSYN017333   20184 58007
0110831820999991985040218004-11300-041867FM-12+074799999V0200901N00361220001CN0100001N9+02851+01601100991ADDAA106000091AG10999AY101061GF108991021021008001001011MA1999999092701MD1999999+0031MW1021REMSYN011333   58003
0129831820999991985040412004-11300-041867FM-12+074799999V0201401N00311105001CN0100001N9+02311+01901101451ADDAA106000091AG10999AY101061GF108991011011012501001081KA1240N+01761MA1999999093071MD1999999-0221MW1021REMSYN017333   20176 59022
0129831820999991985040712004-11300-041867FM-12+074799999V0201401N00411007501CN0100001N9+02171+01801101481ADDAA106000091AG10999AY101061GF108991081051008001999999KA1240N+01741MA1999999093091MD1999999+0141MW1021REMSYN017333   20174 58014
0110831820999991985040718004-11300-041867FM-12+074799999V0201401N00211220001CN0100001N9+02761+01891101031ADDAA106000091AG10999AY101061GF102991011021008001001011MA1999999092721MD1999999+0101MW1021REMSYN011333   58010
0129831820999991985040912004-11300-041867FM-12+074799999V0201401N00511007501CN0100001N9+02261+01921101341ADDAA106000091AG10999AY101061GF108991061051008001051011KA1240N+01981MA1999999092991MD1999999-0091MW1021REMSYN017333   20198 59009
0135831820999991985041012004-11300-041867FM-12+074799999V0201401N00411004201CN0100001N9+02261+01961101291ADDAA124008091AG10999AY161061GF108991081071004501999999KA1240N+01931MA1999999092941MD1999999-0051MW1021REMSYN023333   20193 59005 60084
0129831820999991985041218004-11300-041867FM-12+074799999V0201401N001519999999N0100001N9+02821+01941101111ADDAA106000091AG10999AY121061GF108991999021008001001001MA1999999092811MD1999999+0011MW1151REMSYN011333   58001EQDQ01+000032SCOTLC
0135831820999991985041412004-11300-041867FM-12+074799999V0200901N00511045001CN0100001N9+02311+01851101581ADDAA124016091AG10999AY101061GF106991041021008001051001KA1240N+01801MA1999999093201MD1999999-0031MW1021REMSYN023333   20180 59003 60164
0110831820999991985041818004-11300-041867FM-12+074799999V0200901N00211045001CN0100001N9+02901+01721101001ADDAA106000091AG10999AY101061GF108991021021008001051011MA1999999092701MD1999999-0081MW1021REMSYN011333   59008
0129831820999991985041912004-11300-041867FM-12+074799999V0201401N00311220001CN0010001N9+02361+01871101431ADDAA106000091AG10999AY111061GF102991011011012501001011KA1240N+01751MA1999999093071MD1999999-0081MW1051REMSYN017333   20175 59008
0110831820999991985042018004-11300-041867FM-12+074799999V0201801N00311220001CN0100001N9+02841+01701100891ADDAA106000091AG10999AY101061GF108991021001017501051011MA1999999092611MD1999999-0021MW1021REMSYN011333   59002
0129831820999991985042112004-11300-041867FM-12+074799999V0201401N00571007501CN0100001N9+02231+01711101181ADDAA106000091AG10999AY101061GF107991071021008001001001KA1240N+01721MA1999999092841MD1999999-0121MW1021REMSYN017333   20172 59012
0110831820999991985042118004-11300-041867FM-12+074799999V0201401N00361007501CN0200001N9+02651+01691100561ADDAA106000091AG10999AY101061GF106991051021008001051011MA1999999092561MD1999999-0051MW1021REMSYN011333   59005
0110831820999991985042218004-11300-041867FM-12+074799999V0201801N00411220001CN0100001N9+02611+01761101111ADDAA106000091AG10999AY101061GF107991041021008001001011MA1999999092771MD1999999+0211MW1021REMSYN011333   58021
0129831820999991985042312004-11300-041867FM-12+074799999V0201401N00621007501CN0100001N9+02231+01781101491ADDAA106000091AG10999AY101061GF107991071051008001001001KA1240N+01771MA1999999093121MD1999999+0141MW1021REMSYN017333   20177 58014
0110831820999991985042518004-11300-041867FM-12+074799999V0201401N00571045001CN0200001N9+02401+01831100921ADDAA106000091AG10999AY101061GF107991041051008001051011MA1999999092601MD1999999-0091MW1021REMSYN011333   59009
0129831820999991985042612004-11300-041867FM-12+074799999V0201401N00671007501CN0100001N9+02261+01691101271ADDAA106000091AG10999AY101061GF108991061051008001001011KA1240N+01771MA1999999092911MD1999999+0091MW1021REMSYN017333   20177 58009
0110831820999991985042618004-11300-041867FM-12+074799999V0200901N00461007501CN0200001N9+02741+01761100881ADDAA106000091AG10999AY101061GF107991061051008001051001MA1999999092581MD1999999-0021MW1021REMSYN011333   59002
0129831820999991985042712004-11300-041867FM-12+074799999V0201401N00671045001CN0200001N9+02371+01731101321ADDAA106000091AG10999AY101061GF106991021021008001041011KA1240N+01881MA1999999092981MD1999999+0071MW1021REMSYN017333   20188 58007
0110831820999991985042718004-11300-041867FM-12+074799999V0201401N00511007501CN0200001N9+02811+01781100931ADDAA106000091AG10999AY101061GF107991051021008001051001MA1999999092641MD1999999+0061MW1021REMSYN011333   58006
0129831820999991985042812004-11300-041867FM-12+074799999V0201401N00571045001CN0100001N9+02521+01931101271ADDAA106000091AG10999AY101061GF106991011021008001051011KA1240N+01931MA1999999092941MD1999999-0041MW1021REMSYN017333   20193 59004
0146831820999991985042912004-11300-041867FM-12+074799999V0201401N00361007501CN0040001N9+02301+02011101321ADDAA124000691AA299000591AG10999AY161061GF108991061051008001051999KA1240N+01911MA1999999092971MD1999999+0031MW1021REMSYN023333   20191 58003 69964
0135831820999991985043012004-11300-041867FM-12+074799999V0209999999999004201CN0010001N9+02241+02071101441ADDAA124008091AG10999AY161061GF108991081071004501999999KA1240N+02001MA1999999093071MD1999999+0101MW1101REMSYN023333   20200 58010 60084
0129831820999991985050112004-11300-041867FM-12+074799999V0200501N00311220001CN0100001N9+02441+01951101301ADDAA106000091AG10999AY101061GF104991021021008001051001KA1240N+01901MA1999999092971MD1999999-0101MW1021REMSYN017333   20190 59010
0110831820999991985050118004-11300-041867FM-12+074799999V0201801N00311004201CN0040001N9+02411+01991100941ADDAA106000091AG10999AY101061GF107991051071004501061021MA1999999092621MD1999999+0051MW1021REMSYN011333   58005
0129831820999991985050212004-11300-041867FM-12+074799999V0200901N00311007501CN0040001N9+02441+01901101531ADDAA106000091AG10999AY101061GF107991061051008001051001KA1240N+01851MA1999999093181MD1999999+0111MW1021REMSYN017333   20185 58011
0127831820999991985050318004-11300-041867FM-12+074799999V0201801N00261045001CN0100001N9+02581+01891101101ADDAA106000291AA299000391AG10999AY121061GF108991031021008001071011MA1999999092771MD1999999+0101MW1601REMSYN017333   58010 69921
0116831820999991985050412004-11300-041867FM-12+074799999V0201401N00311007501CN0100001N9+02371+01851101551ADDAA106000091AG10999AY101061GF106991061021008001001001MA1999999093191MD1999999+0041MW1021REMSYN017333   20/// 58004
0146831820999991985050612004-11300-041867FM-12+074799999V0201401N00511007501CN0200001N9+02401+01841101551ADDAA124000491AA299000591AG10999AY101061GF107991061051008001041001KA1240N+01841MA1999999093191MD1999999+0021MW1021REMSYN023333   20184 58002 69944
0110831820999991985050618004-11300-041867FM-12+074799999V0201801N00571007501CN0100001N9+02591+01821101261ADDAA106000091AG10999AY101061GF108991061051008001051011MA1999999092921MD1999999+0171MW1021REMSYN011333   58017
0110831820999991985050818004-11300-041867FM-12+074799999V0201401N00311007501CN0100001N9+02661+01851101111ADDAA106000091AG10999AY101061GF107991071051008001001001MA1999999092791MD1999999-0151MW1021REMSYN011333   59015
0110831820999991985050918004-11300-041867FM-12+074799999V0201801N00261007501CN0200001N9+02841+01701101041ADDAA106000091AG10999AY101061GF107991061051008001051001MA1999999092751MD1999999-0041MW1021REMSYN011333   59004
0129831820999991985051112004-11300-041867FM-12+074799999V0200901N00261007501CN0100001N9+02391+01891101251ADDAA106000091AG10999AY101061GF108991061051008001021999KA1240N+01831MA1999999092921MD1999999-0061MW1021REMSYN017333   20183 59006
0110831820999991985051218004-11300-041867FM-12+074799999V0201401N00461105001CN0100001N9+02821+01771100971ADDAA106000091AG10999AY101061GF108991011021008001001081MA1999999092681MD1999999+0151MW1021REMSYN011333   58015
0129831820999991985051412004-11300-041867FM-12+074799999V0201401N00411220001CN0100001N9+02401+01801101681ADDAA106000091AG10999AY101061GF102991011011012501001011KA1240N+01401MA1999999093301MD1999999+0061MW1021REMSYN017333   20140 58006
0129831820999991985051512004-11300-041867FM-12+074799999V0201401N00361220001CN0020001N9+02311+01611101661ADDAA106000091AG10999AY101061GF100991001001999999001001KA1240N+01501MA1999999093271MD1999999-0031MW1051REMSYN017333   20150 59003
0110831820999991985051518004-11300-041867FM-12+074799999V0201401N00571220001CN0040001N9+02771+01531999999ADDAA106000091AG10999AY101061GF104991999999008001999999MA1999999092931MD1999999+0071MW1021REMSYN011333   58007
0129831820999991985051612004-11300-041867FM-12+074799999V0201401N00571220001CN0100001N9+02291+01661101561ADDAA106000091AG10999AY101061GF107991041021008001001041KA1240N+01561MA1999999093171MD1999999-0101MW1021REMSYN017333   20156 59010
0110831820999991985051618004-11300-041867FM-12+074799999V0201401N00511220001CN0100001N9+02781+01441101131ADDAA106000091AG10999AY101061GF106991021021008001001041MA1999999092821MD1999999-0111MW1021REMSYN011333   59011
0127831820999991985051818004-11300-041867FM-12+074799999V0201401N00511220001CN0100001N9+02581+01821101221ADDAA106000291AA299000391AG10999AY161061GF103991031051008001001001MA1999999092871MD1999999-0011MW1141REMSYN017333   59001 69921
0146831820999991985051912004-11300-041867FM-12+074799999V0201401N00571007501CN0200001N9+02271+01751101541ADDAA124000291AA299000391AG10999AY101061GF108991081051008001999999KA1240N+01781MA1999999093201MD1999999+0051MW1021REMSYN023333   20178 58005 69924
0129831820999991985052012004-11300-041867FM-12+074799999V0201401N00621007501CN0200001N9+02271+01731101551ADDAA106000091AG10999AY101061GF106991061051008001001001KA1240N+01671MA1999999093171MD1999999-0031MW1021REMSYN017333   20167 59003
0110831820999991985052018004-11300-041867FM-12+074799999V0200901N00261045001CN0200001N9+02701+01661101191ADDAA106000091AG10999AY101061GF106991041021008001051001MA1999999092851MD1999999-0021MW1021REMSYN011333   59002
0129831820999991985052112004-11300-041867FM-12+074799999V0201401N00311220001CN0200001N9+02361+01641101611ADDAA106000091AG10999AY101061GF100991001001999999001001KA1240N+01541MA1999999093211MD1999999+0041MW1021REMSYN017333   20154 58004
0129831820999991985052118004-11300-041867FM-12+074799999V0203601N00101220001CN0200001N9+03011+01411100012ADDAA106000091AG10999AY101061GF102991021021008001001001MA1999999092801MD1999999-0051MW1021REMSYN011333   59005EQDQ01+100013APOSLP
0129831820999991985052212004-11300-041867FM-12+074799999V0201401N00211220001CN0200001N9+02541+01771101561ADDAA106000091AG10999AY101061GF100991001001999999001001KA1240N+01801MA1999999093221MD1999999+0011MW1021REMSYN017333   20180 58001
0110831820999991985052218004-11300-041867FM-12+074799999V0202301N00151220001CN0200001N9+03241+01311101041ADDAA106000091AG10999AY101061GF101991011021008001001001MA1999999092781MD1999999-0021MW1021REMSYN011333   59002
0129831820999991985052312004-11300-041867FM-12+074799999V0201401N00311220001CN0200001N9+02271+01791101521ADDAA106000091AG10999AY101061GF108991001001999999001041KA1240N+01711MA1999999093161MD1999999-0061MW1021REMSYN017333   20171 59006
0110831820999991985052318004-11300-041867FM-12+074799999V0201401N00511220001CN0100001N9+02861+01621101251ADDAA106000091AG10999AY101061GF108991011021008001001041MA1999999092931MD1999999+0151MW1021REMSYN011333   58015
0129831820999991985052412004-11300-041867FM-12+074799999V0201401N00771220001CN0200001N9+02341+01721101591ADDAA106000091AG10999AY101061GF108991031051008001001041KA1240N+01821MA1999999093201MD1999999-0041MW1021REMSYN017333   20182 59004
0110831820999991985052418004-11300-041867FM-12+074799999V0201401N00571105001CN0100001N9+02801+01431101301ADDAA106000091AG10999AY101061GF108991021021008001001081MA1999999092971MD1999999+0041MW1021REMSYN011333   58004
0129831820999991985052512004-11300-041867FM-12+074799999V0201401N00511007501CN0040001N9+02201+01761101701ADDAA106000091AG10999AY101061GF108991071051008001001011KA1240N+01861MA1999999093301MD1999999+0101MW1021REMSYN017333   20186 58010
0129831820999991985052612004-11300-041867FM-12+074799999V0201401N00821220001CN0200001N9+02391+01631101661ADDAA106000091AG10999AY101061GF103991011011012501041001KA1240N+01781MA1999999093301MD1410001+0001MW1021REMSYN017333   20178 58000
0110831820999991985052618004-11300-041867FM-12+074799999V0201401N00461007501CN0200001N9+02621+01641101361ADDAA106000091AG10999AY101061GF108991081051008001999999MA1999999093031MD1999999-0041MW1021REMSYN011333   59004
0110831820999991985052812004-11300-041867FM-12+074799999V0201801N00671007501CN0200001N9+02181+99999101651ADDAA106000091AG10999AY101061GF106991061051008001001001MA1999999093251MD1999999-0041MW1021REMSYN011333   59004
0076831820999991985052818004-11300-041867FM-12+074799999V0200901N00411220001CN0100001N9+02841+01461101221ADDAA106000091AG10999AY101061GF102991021011012501001001MA1999999092911MW1021
0129831820999991985052912004-11300-041867FM-12+074799999V0201401N00621105001CN0200001N9+02291+01541101621ADDAA106000091AG10999AY101061GF108991001001999999001021KA1240N+01541MA1999999093221MD1999999-0031MW1021REMSYN017333   20154 59003
0129831820999991985053112004-11300-041867FM-12+074799999V0201401N00721007501CN0200001N9+02261+01641101831ADDAA106000091AG10001AY101061GF107991071051008001001001KA1240N+01721MA1999999093421MD1999999+0071MW1021REMSYN017333   20172 58007
0135831820999991985060112004-11300-041867FM-12+074799999V0201401N00771007501CN0200001N9+02331+01531101681ADDAA124000191AG10999AY101061GF105991051051008001001001KA1240N+01661MA1999999093281MD1999999-0141MW1021REMSYN023333   20166 59014 69914
0110831820999991985060118004-11300-041867FM-12+074799999V0201401N00511007501CN0200001N9+02671+01531101271ADDAA106000091AG10999AY101061GF106991061021008001001001MA1999999092931MD1999999-0131MW1021REMSYN011333   59013
0129831820999991985060312004-11300-041867FM-12+074799999V0200901N00411220001CN0100001N9+02411+01701101501ADDAA106000091AG10999AY101061GF101991001001999999001011KA1240N+01601MA1999999093131MD1410001+0001MW1021REMSYN017333   20160 58000
0129831820999991985060412004-11300-041867FM-12+074799999V0200501N00101220001CN0200001N9+02461+01681101371ADDAA106000091AG10999AY101061GF108991001001999999001011KA1240N+01561MA1999999093041MD1999999-0091MW1021REMSYN017333   20156 59009
0135831820999991985060912004-11300-041867FM-12+074799999V0203601N00101004201CN0040001N9+01971+01841999999ADDAA124031091AG10999AY161061GF108991081071004501999999KA1240N+01881MA1999999093431MD1999999+0201MW1151REMSYN023333   20188 58020 60314
0096831820999991985061018004-11300-041867FM-12+074799999V0200901N00261045001CN0200001N9+02681+01971101421ADDAA106000091AG10999GF108991021021008001021999MA1999999093071MD1999999-0071REMSYN011333   59007
0110831820999991985061118004-11300-041867FM-12+074799999V0201401N00571004201CN0100001N9+02261+01881101711ADDAA106000091AG10999AY121061GF108991081071004501999999MA1999999093311MD1999999+0241MW1151REMSYN011333   58024
0115831820999991985061312004-11300-041867FM-12+074799999V0201801N00511220001CN0100001N9+02011+01371102081ADDAA106000091AG10999GF101991011011012501001001KA1240N+01401MA1999999093611MD1999999+0021REMSYN017333   20140 58002
0096831820999991985061418004-11300-041867FM-12+074799999V0201401N00311007501CN0200001N9+02441+01531101591ADDAA106000091AG10999GF106991061051008001001001MA1999999093181MD1999999+0021REMSYN011333   58002
0115831820999991985061512004-11300-041867FM-12+074799999V0201801N00411220001CN0200001N9+02061+01581101941ADDAA106000091AG10999GF101991001001999999001011KA1240N+01381MA1999999093491MD1999999-0011REMSYN017333   20138 59001
0096831820999991985061518004-11300-041867FM-12+074799999V0201801N00211220001CN0100001N9+02681+01321101491ADDAA106000091AG10999GF101991011011012501001001MA1999999093121MD1999999-0071REMSYN011333   59007
0096831820999991985061519004-11300-041867FM-12+074799999V0201801N00211220001CN0100001N9+02681+01321101491ADDAA106000091AG10999GF101991011011012501001001MA1999999093121MD1999999-0071REMSYN011333   59007
0096831820999991985061618004-11300-041867FM-12+074799999V0201801N00151220001CN0200001N9+02781+01331101411ADDAA106000091AG10999GF101991011011012501001001MA1999999093041MD1999999-0071REMSYN011333   59007
0076831820999991985061712004-11300-041867FM-12+074799999V0201401N00211220001CN0200001N9+02081+01511101871ADDAA106000091AG10001GF100991001001999999001001MA1999999093441MD1810021+9999
0115831820999991985061812004-11300-041867FM-12+074799999V0201401N00261007501CN0200001N9+02101+01681102001ADDAA106000091AG10999GF107991071051008001001001KA1240N+01481MA1999999093561MD1999999+0121REMSYN017333   20148 58012
0115831820999991985061912004-11300-041867FM-12+074799999V0201401N00931105001CN0200001N9+02021+01241102051ADDAA106000091AG10999GF108991011001017501031081KA1240N+01581MA1999999093591MD1999999+0031REMSYN017333   20158 58003
0096831820999991985062318004-11300-041867FM-12+074799999V0201401N00461220001CN0100001N9+02701+01261101511ADDAA106000091AG10999GF100991001001999999001001MA1999999093141MD1999999+0081REMSYN011333   58008
0115831820999991985062412004-11300-041867FM-12+074799999V0200901N00571220001CN0200001N9+02161+01431101861ADDAA106000091AG10999GF102991011011008001001011KA1240N+01441MA1999999093411MD1999999-0111REMSYN017333   20144 59011
0096831820999991985062418004-11300-041867FM-12+074799999V0201401N00511007501CN0200001N9+02431+01471101521ADDAA106000091AG10999GF108991061051008001051999MA1999999093131MD1999999-0011REMSYN011333   59001
0154831820999991985062712004-11300-041867FM-12+074799999V0201401N00461220001CN0200001N9+01941+01381108011ADDAA124000191AG10999AY161061GF100991001001999999001001KA1240N+99999MA1999999093541MD1999999+0061MW1001REMSYN023333   20202 58006 69914EQDQ01 +02022ATMN  
0115831820999991985062812004-11300-041867FM-12+074799999V0201401N00411220001CN0100001N9+02051+01471101841ADDAA106000091AG10999GF101991011011012501001001KA1240N+01201MA1999999093401MD1999999-0141REMSYN017333   20120 59014
0115831820999991985062818004-11300-041867FM-12+074799999V0201401N00361220001CN0200001N9+02541+01291101371ADDAA106000091AG10999GF104991041021008001001001MA1999999091962MD1999999-0231REMSYN011333   59023EQDQ01+091963APOSP 
0050831820999991985070203004-11300-041867FM-12+074799999V0202901N00051007501CN0500001N9+02741+01381100071ADDAG10999GF106991051091008001001021MD1710261+9999
0115831820999991985070412004-11300-041867FM-12+074799999V0201401N00411007501CN0040001N9+02181+01651101921ADDAA106000091AG10999GF105991051021008001001001KA1240N+01581MA1999999093511MD1999999+0001REMSYN017333   20158 59000
0115831820999991985070512004-11300-041867FM-12+074799999V0201401N00621220001CN0200001N9+02001+01371101971ADDAA106000091AG10999GF102991021011012501001001KA1240N+01481MA1999999093541MD1999999+0031REMSYN017333   20148 58003
0115831820999991985070612004-11300-041867FM-12+074799999V0201401N00411220001CN0100001N9+02191+01561101881ADDAA106000091AG10999GF101991011011012501001001KA1240N+01441MA1999999093441MD1999999-0101REMSYN017333   20144 59010
0096831820999991985070618004-11300-041867FM-12+074799999V0201401N00311007501CN0100001N9+02771+01601101481ADDAA106000091AG10999GF105991051021008001001001MA1999999093101MD1999999-0051REMSYN011333   59005
0115831820999991985070712004-11300-041867FM-12+074799999V0201401N00461220001CN0100001N9+02271+01541101711ADDAA106000091AG10999GF102991021011012501001001KA1240N+01561MA1999999093311MD1999999-0131REMSYN017333   20156 59013
0096831820999991985070718004-11300-041867FM-12+074799999V0200901N00361045001CN0100001N9+02751+01541101351ADDAA106000091AG10999GF107991021021008001051001MA1999999092991MD1999999-0111REMSYN011333   59011
0115831820999991985070812004-11300-041867FM-12+074799999V0200901N00411007501CN0040001N9+02291+01371101711ADDAA106000091AG10999GF106991061051008001001001KA1240N+01681MA1999999093321MD1999999+0011REMSYN017333   20168 58001
0119831820999991985071012004-11300-041867FM-12+074799999V0201401N00621220001CN0200001N9+02231+01511101861ADDAA106000091AG10999GF104991041021008001001001KA1240N+01661MD1999999+0061REMSYN017333   20166 58006EQDQ01+043461APOSP 
0069831820999991985071018004-11300-041867FM-12+074799999V0200401N00051105001CN0500001N9+01101+00991100322ADDAG10999GF108991001001999999001071MD1710011+9999EQDQ01+100323APOSLP
0132831820999991985071512004-11300-041867FM-12+074799999V0201401N00721007501CN0200001N9+01891+01361101871ADDAA124000491AA299000591AG10999GF108991081051008001999999KA1240N+01581MA1999999093421MD1999999-0191REMSYN023333   20158 59019 69944
0094831820999991985071600004-11300-041867FM-12+074799999V0209991C00001045001CN0500001N9+01451+99999101001ADDAA106000091AG10999GF108991081001999999021999KA1240N+01181MD1110011+9999REMSYN011333   20118
0115831820999991985071612004-11300-041867FM-12+074799999V0201401N00771007501CN0200001N9+02011+01541101871ADDAA106000091AG10999GF105991051051008001001001KA1240N+01561MA1999999093411MD1999999-0011REMSYN017333   20156 59001
0115831820999991985071712004-11300-041867FM-12+074799999V0201801N00821220001CN0200001N9+01971+01261101921ADDAA106000091AG10999GF101991011011012501001001KA1240N+01341MA1999999093451MD1999999+0041REMSYN017333   20134 58004
0096831820999991985071718004-11300-041867FM-12+074799999V0201401N00721007501CN0200001N9+02291+01331101741ADDAA106000091AG10999GF108991081051008001999999MA1999999093291MD1999999+0081REMSYN011333   58008
0115831820999991985071912004-11300-041867FM-12+074799999V0201801N00821045001CN0040001N9+01811+01061102241ADDAA106000091AG10999GF108991011011012501011001KA1240N+01541MA1999999093731MD1999999+0161REMSYN017333   20154 58016
0115831820999991985072012004-11300-041867FM-12+074799999V0201401N00671007501CN0200001N9+01841+01331102061ADDAA106000091AG10999GF107991071051008001001001KA1240N+01341MA1999999093571MD1999999-0161REMSYN017333   20134 59016
0096831820999991985072018004-11300-041867FM-12+074799999V0201401N00671007501CN0200001N9+99999+99999101631ADDAA106000091AG10999GF107991051021008001001011MA1999999093221MD1999999-0241REMSYN011333   59024
0115831820999991985072112004-11300-041867FM-12+074799999V0201401N00771007501CN0200001N9+01891+01361101831ADDAA106000091AG10999GF107991071051008001001001KA1240N+01541MA1999999093371MD1999999-0201REMSYN017333   20154 59020
0096831820999991985072118004-11300-041867FM-12+074799999V0201801N00511007501CN0200001N9+02201+01491101621ADDAA106000091AG10999GF108991081051008001999999MA1999999093191MD1999999-0031REMSYN011333   59003
0115831820999991985072212004-11300-041867FM-12+074799999V0201401N00621220001CN0100001N9+01891+01281101861ADDAA106000091AG10999GF101991011011012501001001KA1240N+01341MA1999999093401MD1999999+0031REMSYN017333   20134 58003
0096831820999991985072218004-11300-041867FM-12+074799999V0201401N00411007501CN0200001N9+02511+01451101461ADDAA106000091AG10999GF107991071051008001001001MA1999999093061MD1999999-0131REMSYN011333   59013
0115831820999991985072412004-11300-041867FM-12+074799999V0201401N00721007501CN0200001N9+02091+01471101831ADDAA106000091AG10999GF107991051021008001001011KA1240N+01501MA1999999093401MD1999999+0011REMSYN017333   20150 58001
0115831820999991985072512004-11300-041867FM-12+074799999V0201801N00821220001CN0100001N9+01821+01081999999ADDAA106000091AG10999GF106991001001999999001011KA1240N+01321MA1999999093471MD1999999+0061REMSYN017333   20132 58006
0096831820999991985072818004-11300-041867FM-12+074799999V0201401N00571220001CN0200001N9+02531+01311101641ADDAA106000091AG10999GF106991031021008001001011MA1999999093221MD1999999+0101REMSYN011333   58010
0115831820999991985073012004-11300-041867FM-12+074799999V0200901N00461220001CN0100001N9+02231+01511101961ADDAA106000091AG10999GF102991021021008001001001KA1240N+01501MA1999999093521MD1999999-0061REMSYN017333   20150 59006
0121831820999991985080212004-11300-041867FM-12+074799999V0201401N00571007501CN0200001N9+02011+01321102071ADDAA124000591AG10999GF106991061021008001001001KA1240N+01321MA1999999093601MD1410001+0001REMSYN023333   20132 58000 69954
0096831820999991985080218004-11300-041867FM-12+074799999V0201801N00571045001CN0200001N9+02281+01411101671ADDAA106000091AG10999GF107991031051008001051001MA1999999093291MD1999999-0051REMSYN011333   59005
0121831820999991985080312004-11300-041867FM-12+074799999V0201401N00771045001CN0200001N9+01941+01361102061ADDAA124000391AG10999GF105991031051008001041011KA1240N+01371MA1999999093581MD1999999-0021REMSYN023333   20137 59002 69934
0096831820999991985080418004-11300-041867FM-12+074799999V0201401N00671007501CN0100001N9+02391+01391101641ADDAA106000091AG10999GF107991071021008001001001MA1999999093231MD1999999-0011REMSYN011333   59001
0096831820999991985080618004-11300-041867FM-12+074799999V0201401N00621220001CN0200001N9+02611+01351101551ADDAA106000091AG10999GF104991041021008001001001MA1999999093171MD1999999-0031REMSYN011333   59003
0115831820999991985080812004-11300-041867FM-12+074799999V0201401N00671007501CN0200001N9+02111+01531101681ADDAA106000091AG10999GF107991071051008001001001KA1240N+01541MA1999999093261MD1999999-0091REMSYN017333   20154 59009
0096831820999991985080818004-11300-041867FM-12+074799999V0201401N00621220001CN0200001N9+02661+01491101391ADDAA106000091AG10999GF104991031021008001051001MA1999999092961MD1999999-0051REMSYN011333   59005
0134831820999991985080912004-11300-041867FM-12+074799999V0201401N006219999999N0040001N9+02071+01471101911ADDAA106000091AG10999GF107991999051008001001001KA1240N+01641MA1999999093471MD1999999+0211REMSYN017333   20164 58021EQDQ01+000032SCOTLC
0096831820999991985080918004-11300-041867FM-12+074799999V0201401N00511007501CN0100001N9+02711+01301101401ADDAA106000091AG10999GF107991051021008001001011MA1999999093081MD1999999+0121REMSYN011333   58012
0115831820999991985081012004-11300-041867FM-12+074799999V0201401N00411220001CN0200001N9+02211+01411101931ADDAA106000091AG10999GF103991021011012501001011KA1240N+01481MA1999999093501MD1999999+0031REMSYN017333   20148 58003
0096831820999991985081018004-11300-041867FM-12+074799999V0201401N00361220001CN0200001N9+02751+01141101401ADDAA106000091AG10999GF102991011011012501001011MA1999999093041MD1999999-0041REMSYN011333   59004
0096831820999991985081118004-11300-041867FM-12+074799999V0201801N00211220001CN0040001N9+02821+01201101321ADDAA106000091AG10999GF102991011011012501001011MA1999999092961MD1999999-0081REMSYN011333   59008
0115831820999991985081212004-11300-041867FM-12+074799999V0200901N00361007501CN0040001N9+02151+01611101611ADDAA106000091AG10999GF105991051021008001001001KA1240N+01301MA1999999093211MD1999999-0301REMSYN017333   20130 59030
0096831820999991985081218004-11300-041867FM-12+074799999V0201401N00151220001CN0040001N9+02931+01261101121ADDAA106000091AG10999GF102991021011012501001011MA1999999092791MD1999999-0171REMSYN011333   59017
0096831820999991985081318004-11300-041867FM-12+074799999V0201801N00311220001CN0040001N9+03061+01341101071ADDAA106000091AG10999GF102991021021008001001001MA1999999092761MD1999999-0031REMSYN011333   59003
0096831820999991985081518004-11300-041867FM-12+074799999V0201401N00621220001CN0040001N9+02581+01331101441ADDAA106000091AG10999GF101991011011012501001001MA1999999093061MD1999999+0051REMSYN011333   58005
0115831820999991985081612004-11300-041867FM-12+074799999V0201401N00821007501CN0200001N9+02151+01461101821ADDAA106000091AG10999GF106991061051008001001001KA1240N-00581MA1999999093391MD1999999-0111REMSYN017333   21058 59011
0096831820999991985081618004-11300-041867FM-12+074799999V0201401N00621220001CN0200001N9+02521+01521101471ADDAA106000091AG10999GF103991021021008001051001MA1999999093081MD1999999+0021REMSYN011333   58002
0115831820999991985081712004-11300-041867FM-12+074799999V0201401N00671220001CN0200001N9+02181+01421101801ADDAA106000091AG10999GF102991021021008001001001KA1240N+01561MA1999999093321MD1999999-0011REMSYN017333   20156 59001
0096831820999991985081718004-11300-041867FM-12+074799999V0201401N00511007501CN0100001N9+02531+01341101441ADDAA106000091AG10999GF106991051021008001061001MA1999999093071MD1999999-0011REMSYN011333   59001
0096831820999991985081918004-11300-041867FM-12+074799999V0201401N00671220001CN0200001N9+02501+01721101581ADDAA106000091AG10999GF103991031021008001001001MA1999999093201MD1999999+0181REMSYN011333   58018
0132831820999991985082012004-11300-041867FM-12+074799999V0201401N00571007501CN0100001N9+02041+01451101921ADDAA124000491AA299000591AG10999GF107991071051008001001001KA1240N+01721MA1999999093471MD1999999+0271REMSYN023333   20172 58027 69944
0115831820999991985082312004-11300-041867FM-12+074799999V0203601N00051220001CN0040001N9+02421+01221101401ADDAA106000091AG10999GF108991001001999999001011KA1240N+01301MA1999999093041MD1999999-0221REMSYN017333   20130 59022
0115831820999991985082412004-11300-041867FM-12+074799999V0201401N00511045001CN0040001N9+02301+01561101181ADDAA106000091AG10999GF107991031021008001051011KA1240N+01721MA1999999092851MD1999999-0191REMSYN017333   20172 59019
0096831820999991985082418004-11300-041867FM-12+074799999V0200901N00461045001CN0040001N9+02831+01411101301ADDAA106000091AG10999GF107991041021008001051011MA1999999092961MD1999999+0271REMSYN011333   58027
0115831820999991985082512004-11300-041867FM-12+074799999V0200901N00621220001CN0040001N9+02451+01561101791ADDAA106000091AG10999GF106991041021008001001011KA1240N+01741MA1999999093141MD1999999+0561REMSYN017333   20174 58056
0110831820999991985082518004-11300-041867FM-12+074799999V0201401N00571220001CN0010001N9+02831+01411101351ADDAA106000091AG10999AY111061GF101991011021008001001001MA1999999093031MD1999999+0071MW1041REMSYN011333   58007
0110831820999991985082618004-11300-041867FM-12+074799999V0200901N00511220001CN0005001N9+03021+00481101271ADDAA106000091AG10999AY101061GF100991001001999999001001MA1999999092941MD1999999-0091MW1041REMSYN011333   59009
0115831820999991985082812004-11300-041867FM-12+074799999V0200901N00361220001CN0040001N9+02321+01531101701ADDAA106000091AG10999GF104991041021008001001001KA1240N+01451MA1999999093321MD1999999-0131REMSYN017333   20145 59013
0096831820999991985082918004-11300-041867FM-12+074799999V0200901N00461220001CN0100001N9+02911+01111101421ADDAA106000091AG10999GF101991011011012501001001MA1999999093071MD1999999+0241REMSYN011333   58024
0096831820999991985083018004-11300-041867FM-12+074799999V0200901N00211220001CN0040001N9+02941+01101101351ADDAA106000091AG10999GF102991011021008001001011MA1999999096011MD1999999-0061REMSYN011333   59006
0129831820999991985083112004-11300-041867FM-12+074799999V0201401N00461220001CN0010001N9+02331+01451101741ADDAA106000091AG10999AY101061GF102991001001999999001011KA1240N+01501MA1999999093351MD1999999-0201MW1051REMSYN017333   20150 59020
0096831820999991985083118004-11300-041867FM-12+074799999V0202301N00211220001CN0040001N9+03101+02751101281ADDAA106000091AG10999GF102991011011012501001011MA1999999092961MD1999999-0051REMSYN011333   59005
0115831820999991985090412004-11300-041867FM-12+074799999V0201401N00871220001CN0100001N9+02171+01301101881ADDAA106000091AG10999GF106991021021008001001041KA1240N+01661MA1999999093471MD1999999+0011REMSYN017333   20166 58001
0096831820999991985090418004-11300-041867FM-12+074799999V0200901N00571220001CN0040001N9+02821+00901101461ADDAA106000091AG10999GF108991001001999999001011MA1999999093111MD1999999+0041REMSYN011333   58004
0115831820999991985090712004-11300-041867FM-12+074799999V0201401N00721220001CN0020001N9+02171+01381101751ADDAA106000091AG10999GF102991021021008001001001KA1240N+01461MA1999999093331MD1999999-0031REMSYN017333   20146 59003
0115831820999991985090812004-11300-041867FM-12+074799999V0201401N00671007501CN0040001N9+02131+01391101741ADDAA106000091AG10999GF107991071051008001001001KA1240N+01461MA1999999093341MD1999999+0011REMSYN017333   20146 58001
0096831820999991985090818004-11300-041867FM-12+074799999V0200901N00571220001CN0040001N9+02631+01191101321ADDAA106000091AG10999GF103991031021008001001001MA1999999092951MD1999999+0111REMSYN011333   58011
0115831820999991985090912004-11300-041867FM-12+074799999V0201401N00511007501CN0100001N9+02071+01401101721ADDAA106000091AG10999GF108991081051008001999999KA1240N+01681MA1999999093311MD1999999-0031REMSYN017333   20168 59003
0085831820999991985090918004-11300-041867FM-12+074799999V0201801N00411220001CN0090001N9+02861+01121101191ADDAG10001GF102991021021001501001001MA1999999092861MD1999999-0091REMSYN011333   59009
0096831820999991985091018004-11300-041867FM-12+074799999V0201801N00511007501CN0100001N9+02911+01161101101ADDAA106000091AG10999GF105991051021008001001001MA1999999092791MD1999999-0071REMSYN011333   59007
0115831820999991985091312004-11300-041867FM-12+074799999V0201401N00511220001CN0200001N9+02121+01411101791ADDAA106000091AG10999GF103991031021008001001001KA1240N+01681MA1999999093371MD1999999+0011REMSYN017333   20168 58001
0096831820999991985091318004-11300-041867FM-12+074799999V0200901N00511220001CN0100001N9+02831+01331101331ADDAA106000091AG10999GF102991021021008001001001MA1999999092991MD1999999+0071REMSYN011333   58007
0115831820999991985091412004-11300-041867FM-12+074799999V0200901N00411007501CN0200001N9+02171+01471101731ADDAA106000091AG10999GF108991071051008001001011KA1240N+01781MA1999999093331MD1999999-0041REMSYN017333   20178 59004
0129831820999991985091712004-11300-041867FM-12+074799999V0201401N00671045001CN0010001N9+02311+01321101921ADDAA106000091AG10999AY101061GF105991041051008001051001KA1240N+01621MA1999999093531MD1999999+0131MW1051REMSYN017333   20162 58013
0110831820999991985091918004-11300-041867FM-12+074799999V0201401N00151220001CN0010001N9+03001+01151101091ADDAA106000091AG10999AY101061GF102991021011012501001001MA1999999092781MD1999999-0201MW1041REMSYN011333   59020
0129831820999991985092012004-11300-041867FM-12+074799999V0201401N00511220001CN0010001N9+02311+01291101571ADDAA106000091AG10999AY101061GF100991001001999999001001KA1240N+01581MA1999999093211MD1999999-0091MW1051REMSYN017333   20158 59009
0110831820999991985092018004-11300-041867FM-12+074799999V0200501N00211220001CN0010001N9+03071+00951100971ADDAA106000091AG10999AY101061GF102991011011012501001011MA1999999092681MD1999999-0101MW1041REMSYN011333   59010
0129831820999991985092112004-11300-041867FM-12+074799999V0201801N00151220001CN0010001N9+02661+01331101221ADDAA106000091AG10999AY101061GF100991001001999999001001KA1240N+01581MA1999999092931MD1999999-0281MW1051REMSYN017333   20158 59028
0110831820999991985092118004-11300-041867FM-12+074799999V0202701N00361220001CN0005001N9+03441+00751100641ADDAA106000091AG10999AY101061GF101991011021008001001001MA1999999092421MD1999999-0261MW1051REMSYN011333   59026
0096831820999991985092418004-11300-041867FM-12+074799999V0200901N00361045001CN0040001N9+03141+01221101081ADDAA106000091AG10999GF105991031021008001041011MA1999999092791MD1999999+0011REMSYN011333   58001
0115831820999991985092512004-11300-041867FM-12+074799999V0201401N00411220001CN0100001N9+02451+01641101531ADDAA106000091AG10999GF108991021021008001001011KA1240N+01821MA1999999093201MD1999999-0101REMSYN017333   20182 59010
0096831820999991985092518004-11300-041867FM-12+074799999V0200901N00311045001CN0040001N9+03101+01191100971ADDAA106000091AG10999GF106991041021008001051001MA1999999092711MD1999999-0081REMSYN011333   59008
0096831820999991985092618004-11300-041867FM-12+074799999V0203601N00101045001CN0040001N9+03121+01351100941ADDAA106000091AG10999GF105991031021008001041011MA1999999092671MD1999999-0041REMSYN011333   59004
0110831820999991985092818004-11300-041867FM-12+074799999V0200501N00311045001CN0010001N9+02971+01381100951ADDAA106000091AG10999AY121061GF107991011021008001051011MA1999999092681MD1999999+0021MW1041REMSYN011333   58002
0129831820999991985092912004-11300-041867FM-12+074799999V0200501N00101015001CN0010001N9+02461+01521101361ADDAA106000091AG10999AY121061GF106991051001017501051011KA1240N+01991MA1999999093051MD1999999-0121MW1041REMSYN017333   20199 59012
0096831820999991985093018004-11300-041867FM-12+074799999V0203601N00361045001CN0040001N9+03111+01461100721ADDAA106000091AG10999GF105991021021008001041001MA1999999092471MD1999999-0111REMSYN011333   59011
0050831820999991985100206004-11300-041867FM-12+074799999V0203401N00211007501CN0500001N9+01021+00191099541ADDAG10999GF107991061091008001011001MD1210311+9999
0135831820999991985100312004-11300-041867FM-12+074799999V0201801N00311007501CN0010001N9+02321+01981101661ADDAA124038091AG10999AY161061GF108991071051008001051999KA1240N+01821MA1999999093261MD1999999+0131MW1101REMSYN023333   20182 58013 60384
0143831820999991985100512004-11300-041867FM-12+074799999V0201401N00311007501CN0010001N9+02331+01911101491ADDAA124019091AG10999AY121061AY221061GF108991071051008001001011KA1240N+01921MA1999999093111MD1999999-0091MW1051REMSYN023333   20192 59009 60194
0096831820999991985100618004-11300-041867FM-12+074799999V0201401N00411220001CN0040001N9+02811+01281100981ADDAA106000091AG10999GF108991001001999999001011MA1999999092681MD1999999-0161REMSYN011333   59016
0096831820999991985100818004-11300-041867FM-12+074799999V0203201N00311220001CN0040001N9+03141+01501101091ADDAA106000091AG10999GF108991021021008001001011MA1999999092811MD1999999+0071REMSYN011333   58007
0115831820999991985100912004-11300-041867FM-12+074799999V0203601N00151220001CN0040001N9+02821+01581101471ADDAA106000091AG10999GF100991001001999999001001KA1240N+01911MA1999999093181MD1999999-0031REMSYN017333   20191 59003
0115831820999991985101012004-11300-041867FM-12+074799999V0201401N00621007501CN0100001N9+02421+01721101641ADDAA106000091AG10999GF106991061021008001001001KA1240N+01981MA1999999093291MD1999999+0111REMSYN017333   20198 58011
0096831820999991985101018004-11300-041867FM-12+074799999V0200901N00511007501CN0100001N9+02831+01651101231ADDAA106000091AG10999GF107991071021008001001001MA1999999092931MD1999999+0251REMSYN011333   58025
0115831820999991985101212004-11300-041867FM-12+074799999V0201401N00571007501CN0100001N9+02271+01661101901ADDAA106000091AG10999GF107991071021008001001001KA1240N+01921MA1999999093511MD1999999+0101REMSYN017333   20192 58010
0096831820999991985101218004-11300-041867FM-12+074799999V0200901N00261220001CN0100001N9+02891+01531101371ADDAA106000091AG10999GF108991021021008001001011MA1999999093051MD1999999-0011REMSYN011333   59001
0096831820999991985101318004-11300-041867FM-12+074799999V0200901N00461220001CN0100001N9+02901+01401101131ADDAA106000091AG10999GF107991041021008001001011MA1999999092841MD1999999-0211REMSYN011333   59021
0115831820999991985101412004-11300-041867FM-12+074799999V0201401N00411220001CN0100001N9+02411+01651999999ADDAA106000091AG10999GF103991011011012501001021KA1240N+01811MA1999999093031MD1999999-0291REMSYN017333   20181 59029
0121831820999991985101512004-11300-041867FM-12+074799999V0201801N00361045001CN0040001N9+02301+01831101321ADDAA124012091AG10999GF108991021071004501021999KA1240N+01941MA1999999092971MD1999999-0061REMSYN023333   20194 59006 60124
0096831820999991985101518004-11300-041867FM-12+074799999V0202301N00261045001CN0040001N9+02601+01911100931ADDAA106000091AG10999GF108991021031008001021999MA1999999092631MD1999999+0021REMSYN011333   58002
0050831820999991985101618004-11300-041867FM-12+074799999V02099999999999999999N0002001N9+00311-00641099871ADDAG10999GF199999999999022501999999MD1110041+9999
0137831820999991985101812004-11300-041867FM-12+074799999V0201401N00461007501CN0010001N9+02271+01731101491ADDAA106000091AG10999AY121061AY211061GF108991071051008001001011KA1240N+01741MA1999999093131MD1999999+0121MW1051REMSYN017333   20174 58012
0096831820999991985101818004-11300-041867FM-12+074799999V0200901N00311045001CN0040001N9+02801+01501101071ADDAA106000091AG10999GF106991031021008001051091MA1999999092761MD1999999+0021REMSYN011333   58002
0115831820999991985101912004-11300-041867FM-12+074799999V0200901N00771007501CN0040001N9+02411+01651101411ADDAA106000091AG10999GF106991061051008001001001KA1240N+01751MA1999999093051MD1999999-0081REMSYN017333   20175 59008
0096831820999991985101918004-11300-041867FM-12+074799999V0200901N00361007501CN0200001N9+02871+01681100931ADDAA106000091AG10999GF107991051031008001051001MA1999999092641MD1999999-0121REMSYN011333   59012
0115831820999991985102012004-11300-041867FM-12+074799999V0200901N00571220001CN0100001N9+02431+01651101241ADDAA106000091AG10999GF102991021021008001001001KA1240N+01801MA1999999092911MD1999999-0141REMSYN017333   20180 59014
0096831820999991985102018004-11300-041867FM-12+074799999V0200901N00361007501CN0200001N9+02851+01631100811ADDAA106000091AG10999GF106991051021008001051001MA1999999092531MD1999999-0111REMSYN011333   59011
0143831820999991985102312004-11300-041867FM-12+074799999V0202701N00051045001CN0100001N9+02071+02011101151ADDAA124020091AG10999AY161061AY261061GF108991031071004501021999KA1240N+01841MA1999999093101MD1999999+0191MW1211REMSYN023333   20184 58019 60204
0076831820999991985102318004-11300-041867FM-12+074799999V0203601N003119999999N0100001N9+02681+01891100971ADDAA106000091AG10999GF108991999999008001999999MA1999999092671MD1810201+9999
0096831820999991985102618004-11300-041867FM-12+074799999V0200501N00311045001CN0100001N9+02361+01911999999ADDAA106000091AG10999GF108991041071008001021999MA1999999092661MD1999999+0271REMSYN011333   58027
0115831820999991985102712004-11300-041867FM-12+074799999V0200901N00461007501CN0040001N9+02271+01861101421ADDAA106000091AG10999GF108991081051008001999999KA1240N+02041MA1999999093051MD1999999+0071REMSYN017333   20204 58007
0143831820999991985102812004-11300-041867FM-12+074799999V0201401N00411007501CN0020001N9+02221+01761101351ADDAA124000191AG10999AY161061AY221061GF108991081051008001999999KA1240N+01981MA1999999092991MD1999999-0061MW1021REMSYN023333   20198 59006 69914
0096831820999991985102818004-11300-041867FM-12+074799999V0200901N00211007501CN0100001N9+02551+01651100951ADDAA106000091AG10999GF108991061051008001021999MA1999999092651MD1999999+0011REMSYN011333   58001
0096831820999991985103018004-11300-041867FM-12+074799999V0200901N00211220001CN0040001N9+02921+01341100781ADDAA106000091AG10999GF102991021021008001001001MA1999999092501MD1999999+0041REMSYN011333   58004
0156831820999991985110112004-11300-041867FM-12+074799999V0201401N00461220001CN0020001N9+02551+01681101201ADDAA106000091AG10999AY101061AY201061GF101991001001999999001011KA1240N+01601MA1999999092901MD1999999-0051MW1051REMSYN017333   20160 59005EQDQ01+000952SCOLCB
0096831820999991985110218004-11300-041867FM-12+074799999V0201801N00211220001CN0040001N9+03081+01441100731ADDAA106000091AG10999GF104991031021008001001011MA1999999092471MD1999999-0041REMSYN011333   59004
0115831820999991985110312004-11300-041867FM-12+074799999V0200501N00151220001CN0040001N9+02611+01711101241ADDAA106000091AG10999GF108991011001017501041011KA1240N+01781MA1999999092951MD1999999+0041REMSYN017333   20178 58004
0096831820999991985110318004-11300-041867FM-12+074799999V0203601N00101045001CN0040001N9+03151+01581100761ADDAA106000091AG10999GF106991021021008001051011MA1999999092501MD1999999+0031REMSYN011333   58003
0096831820999991985110418004-11300-041867FM-12+074799999V0202701N00411045001CN0040001N9+02951+01791100811ADDAA106000091AG10999GF108991011031008001041021MA1999999092551MD1999999+0051REMSYN011333   58005
0080831820999991985110612004-11300-041867FM-12+074799999V0209991C00001220001CN0500001N9+00141+99999999999ADDAA106000091AG10999GF100991001001999999001001KA1240M+00701REMSYN011333   10070
0143831820999991985110618004-11300-041867FM-12+074799999V0209999999999015001CN0100001N9+02302+01791101241ADDAA106003091AG10999AY161061AY221061GF108991081001017501021999MA1999999092891MD1999999+0241MW1021REMSYN017333   58024 60031EQDQ01+029623ATOT  
0096831820999991985110818004-11300-041867FM-12+074799999V0200901N00461220001CN0100001N9+02711+01781101171ADDAA106000091AG10999GF104991011031008001051011MA1999999092851MD1999999-0031REMSYN011333   59003
0115831820999991985110912004-11300-041867FM-12+074799999V0201401N00621007501CN0200001N9+02321+01701101611ADDAA106000091AG10999GF107991071051008001999001KA1240N+01931MA1999999093221MD1999999-0011REMSYN017333   20193 59001
0115831820999991985110918004-11300-041867FM-12+074799999V0201401N00621007501CN0100001N9+02401+01701101311ADDAA106000091AG10999GF108991999061008001021999MA1999999092951MD1999999+0101REMSYN011333   58010EQDQ01+000082SCOTLC
0096831820999991985111018004-11300-041867FM-12+074799999V0200901N00821045001CN0200001N9+02571+01471101341ADDAA106000091AG10999GF108991011021008001021011MA1999999092981MD1999999+0031REMSYN011333   58003
0096831820999991985111118004-11300-041867FM-12+074799999V0200901N00771220001CN0200001N9+02721+01241101201ADDAA106000091AG10999GF107991031021008001001041MA1999999092861MD1999999-0121REMSYN011333   59012
0096831820999991985111218004-11300-041867FM-12+074799999V0200901N00771220001CN0100001N9+02921+01221101161ADDAA106000091AG10999GF106991041021008001001011MA1999999092841MD1999999-0021REMSYN011333   59002
0118831820999991985111418004-11300-041867FM-12+074799999V0201401N00871004201CN0100001N9+02421+01821101261ADDAA106000091AG10999AY121061AY221061GF108991061071004501021999MA1999999092901MD1999999+0041MW1151REMSYN011333   58004
0104831820999991985111612004-11300-041867FM-12+074799999V0201401N00511220001CN0100001N9+02451+01611101521ADDAG10999GF108991011011012501001011KA1240N+01921MA1999999093171MD1999999+0031REMSYN017333   20192 58003
0115831820999991985111700004-11300-041867FM-12+074799999V0201401N00571220001CN0200001N9+02571+01851101521ADDAA106000091AG10999GF102991011011012501061001KA1240N+01751MA1999999093181MD1999999+0011REMSYN017333   20175 58001
0115831820999991985111712004-11300-041867FM-12+074799999V0201401N00571220001CN0200001N9+02571+01851101521ADDAA106000091AG10999GF102991011011012501061001KA1240N+01751MA1999999093181MD1999999+0011REMSYN017333   20175 58001
0096831820999991985111718004-11300-041867FM-12+074799999V0201401N00151045001CN0200001N9+03021+01511101081ADDAA106000091AG10999GF107991041031008001051001MA1999999092791MD1999999-0051REMSYN011333   59005
0118831820999991985111818004-11300-041867FM-12+074799999V0200901N00361007501CN0100001N9+02921+01711101061ADDAA106000091AG10999AY121061AY221061GF107991051021008001001011MA1999999092771MD1999999-0021MW1151REMSYN011333   59002
0115831820999991985111912004-11300-041867FM-12+074799999V0201401N00511007501CN0200001N9+02561+01781101431ADDAA106000091AG10999GF108991051021008001001011KA1240N+01901MA1999999093111MD1999999-0021REMSYN017333   20190 59002
0096831820999991985111918004-11300-041867FM-12+074799999V0200901N00411045001CN0100001N9+02991+01441100911ADDAA106000091AG10999GF108991021021008001031021MA1999999092641MD1999999-0131REMSYN011333   59013
0115831820999991985112212004-11300-041867FM-12+074799999V0200901N00671007501CN0100001N9+02481+01681102371ADDAA106000091AG10999GF107991071021008001001001KA1240N+01961MA1999999093051MD1999999-0051REMSYN017333   20196 59005
0096831820999991985112418004-11300-041867FM-12+074799999V0200501N00051007501CN0100001N9+03101+01501100621ADDAA106000091AG10999GF106991061021008001001001MA1999999092381MD1999999-0201REMSYN011333   59020
0115831820999991985112512004-11300-041867FM-12+074799999V0201401N00261007501CN0100001N9+02561+01901101461ADDAA106000091AG10999GF108991061021008001051011KA1240N+01911MA1999999092921MD1999999+0011REMSYN017333   20191 58001
0143831820999991985112812004-11300-041867FM-12+074799999V0200501N00101004201CN0100001N9+02271+02051101221ADDAA124007091AG10999AY161061AY261061GF108991061071004501021999KA1240N+01981MA1999999092881MD1999999+0041MW1021REMSYN023333   20198 58004 60074
0118831820999991985112818004-11300-041867FM-12+074799999V0200901N00361045001CN0100001N9+02651+02031100821ADDAA106000091AG10999AY121061AY221061GF107991041031008001021011MA1999999092531MD1999999+0161MW1151REMSYN011333   58016
0143831820999991985120312004-11300-041867FM-12+074799999V0201401N00101045001CN0100001N9+02251+02051101361ADDAA124007091AG10999AY161061AY261061GF108991011071004501021999KA1240N+01981MA1999999092991MD1999999+0131MW1021REMSYN023333   20198 58013 60074
0143831820999991985120612004-11300-041867FM-12+074799999V0203201N00261004201CN0010001N9+02091+01911101171ADDAA124010091AG10999AY161061AY221061GF108991081071004501999999KA1240N+01881MA1999999092801MD1999999+0141MW1101REMSYN023333   20188 58014 60104
0124831820999991985120618004-11300-041867FM-12+074799999V0203601N00571045001CN0040001N9+02441+02011100771ADDAA106000391AG10999AY161061AY221061GF107991011031008001051011MA1999999092451MD1999999+0161MW1031REMSYN017333   58016 69931
0121831820999991985120712004-11300-041867FM-12+074799999V0203601N00151220001CN0040001N9+02431+01951101121ADDAA124000391AG10999GF108991021031008001001011KA1240N+01961MA1999999092801MD1410001+0001REMSYN023333   20196 58000 69934
0124831820999991985120718004-11300-041867FM-12+074799999V0203601N00671045001CN0040001N9+02501+02071100801ADDAA106002091AG10999AY161061AY221061GF108991011031008001011011MA1999999092501MD1999999+0051MW1151REMSYN017333   58005 60021
0143831820999991985120812004-11300-041867FM-12+074799999V0203601N00101045001CN0040001N9+02311+01961101291ADDAA124007091AG10999AY161061AY221061GF106991031021008001051001KA1240N+01921MA1999999092931MD1999999+0131MW1031REMSYN023333   20192 58013 60074
0143831820999991985121012004-11300-041867FM-12+074799999V0200901N00411007501CN0100001N9+02281+01881101361ADDAA124020091AG10999AY161061AY221061GF107991071051008001001001KA1240N+01861MA1999999092981MD1999999-0051MW1031REMSYN023333   20186 59005 60204
0082831820999991985121018004-11300-041867FM-12+074799999V0203601N00261007501CN0100001N9+02811+01781100851ADDAA106000091AG10999GF107991051031008001001021MA1999999092561REMSYN011333   58/02
0096831820999991985121118004-11300-041867FM-12+074799999V0200901N00411007501CN0100001N9+02631+01861101031ADDAA106000091AG10999GF107991061031008001001011MA1999999092711MD1999999+0151REMSYN011333   58015
0161831820999991985121200004-11300-041867FM-12+074799999V0202901N00311220001CN0500001N9+99999+99999101431ADDAA106000091AG10999GF102991021051008001001001KA1240N-01831MD1310031+9999REMSYN011333   21183EQDQ01+025533ATOT  Q02+024843ATOD  Q03 -01793ATOT  Q04 -02483ATOD  
0096831820999991985121218004-11300-041867FM-12+074799999V0201401N00361007501CN0100001N9+02721+01851101091ADDAA106000091AG10999GF106991051021008001051001MA1999999092771MD1999999+0061REMSYN011333   58006
0137831820999991985121412004-11300-041867FM-12+074799999V0201401N00411220001CN0010001N9+02221+01731101441ADDAA106000091AG10999AY111061AY211061GF108991011011012501001011KA1240N+01661MA1999999093071MD1999999-0031MW1051REMSYN017333   20166 59003
0115831820999991985121612004-11300-041867FM-12+074799999V0209999999999105001CN0040001N9+02521+01841101401ADDAA106000091AG10999GF108991001001999999001021KA1240N+01661MA1999999093061MD1999999+0031REMSYN017333   20166 58003
0083831820999991985121721004-11300-041867FM-12+074799999V0202901N00261220001CN0500001N9-00841-02121101051ADDAG10999GF100991001001999999001001KA1240N-00891MD1210051+9999REMSYN011333   21089
0115831820999991985122112004-11300-041867FM-12+074799999V0200901N00361220001CN0200001N9+02431+01791101411ADDAA106000091AG10999GF100991001001999999001001KA1240N+01741MA1999999093051MD1999999-0091REMSYN017333   20174 59009
0096831820999991985122118004-11300-041867FM-12+074799999V0203601N00261045001CN0100001N9+02761+01751100971ADDAA106000091AG10999GF108991041021008001061051MA1999999092651MD1999999-0101REMSYN011333   59010
0096831820999991985122218004-11300-041867FM-12+074799999V0202701N00261007501CN0100001N9+02691+01761100921ADDAA106000091AG10999GF107991051031008001001021MA1999999092621MD1999999-0031REMSYN011333   59003
0121831820999991985122312004-11300-041867FM-12+074799999V0200501N00311004201CN0500001N9+02171+01861101361ADDAA124002091AG10999GF108991081071004501999999KA1240N+02001MA1999999092991MD1999999+0061REMSYN023333   20200 58006 60024
0124831820999991985122318004-11300-041867FM-12+074799999V0201401N00211045001CN0100001N9+02561+99999100921ADDAA106002091AG10999AY161061AY221061GF108991031021008001031021MA1999999092611MD1410001+0001MW1021REMSYN017333   58000 60021
0096831820999991985122418004-11300-041867FM-12+074799999V0200501N00511045001CN0100001N9+02481+01961101041ADDAA106000091AG10999GF108991031021008001061021MA1999999092721MD1999999+0101REMSYN011333   58010
0143831820999991985122612004-11300-041867FM-12+074799999V0200901N00261045001CN0100001N9+02181+01991101301ADDAA124005091AG10999AY161061AY261061GF108991011071004501021999KA1240N+01921MA1999999092941MD1999999-0161MW1021REMSYN023333   20192 59016 60054
0118831820999991985122718004-11300-041867FM-12+074799999V0202701N00411004201CN0010001N9+02071+02011101071ADDAA106000091AG10999AY121061AY221061GF108991081071004501999999MA1999999092701MD1999999-0051MW1101REMSYN011333   59005
0121831820999991985123012004-11300-041867FM-12+074799999V0200901N00571007501CN0100001N9+02261+01861101511ADDAA124003091AG10999GF107991071051008001001001KA1240N+01851MA1999999093131MD1999999+0021REMSYN023333   20185 58002 60034
0096831820999991985123118004-11300-041867FM-12+074799999V0201401N00311007501CN0040001N9+02671+01901101241ADDAA106000091AG10999GF108991051021008001001011MA1999999092941MD1999999+0111REMSYN011333   58011
