0146832360999991985010100004-12150-045000FM-12+0440SBRR V0202701N00101007501CN9999999N9+02321+02181100911ADDAA106000491AA299000591AG10999AY151061GF108991061051008001061999KA1240M+03471MA1999999096001MD1999999+0131MW1131REMSYN023333   10347 58013 69941
0146832360999991985010112004-12150-045000FM-12+0440SBRR V0202301N00671045001CN0500001N9+02681+02041101101ADDAA124000491AA299000591AG10999AY101061GF105991011011008001031001KA1240N+01991MA1999999096171MD1999999+0111MW1021REMSYN023333   20199 58011 69944
0110832360999991985010118004-12150-045000FM-12+0440SBRR V0203601N00511007501CN0100001N9+02951+01851100601ADDAA106000091AG10999AY101061GF107991051071008001021001MA1999999095701MD1999999+0061MW1151REMSYN011333   58006
0135832360999991985010200004-12150-045000FM-12+0440SBRR V0202701N00101045001CN9999999N9+02301+02181100921ADDAA106000191AG10999AY151061GF108991041051008001021999KA1240M+03481MA1999999096001MD1410001+0001MW1021REMSYN023333   10348 58000 69911
0146832360999991985010212004-12150-045000FM-12+0440SBRR V0202701N00151220001CN0500001N9+02681+02061100931ADDAA124000291AA299000391AG10999AY151061GF103991031001022501061001KA1240N+02131MA1999999096011MD1999999-0161MW1021REMSYN023333   20213 59016 69924
0069832360999991985010215004-12150-045000FM-12+0440SBRR V0200901N00361220001CN0150001N9+03041+02741999999ADDAG10999AY101031GF104991041011008001001001MW1021EQDQ01+101343APOSP 
0116832360999991985010218004-12150-045000FM-12+0440SBRR V0201801N00261045001CN0100001N9+03231+01961100361ADDAA106000591AG10999AY161061GF106991041051008001041021MA1999999095491MD1999999-0211MW1151REMSYN017333   59021 69951
0135832360999991985010300004-12150-045000FM-12+0440SBRR V0201801N00101004201CN9999999N9+02191+02061100971ADDAA106023091AG10999AY161061GF108991071061004501999999KA1240M+03411MA1999999096041MD1999999+0041MW1621REMSYN023333   10341 58004 60231
0135832360999991985010312004-12150-045000FM-12+0440SBRR V0202701N00051021001CN0100001N9+02191+02091101031ADDAA124050091AG10999AY161061GF108991081001022501021999KA1240N+02051MA1999999096071MD1999999+0061MW1461REMSYN023333   20205 58006 60504
0110832360999991985010318004-12150-045000FM-12+0440SBRR V0203201N00101045001CN0200001N9+02981+01951100541ADDAA106000091AG10999AY101061GF106991011011008001051021MA1999999095641MD1999999+0151MW1021REMSYN011333   58015
0129832360999991985010400004-12150-045000FM-12+0440SBRR V0200901N00511007501CN9999999N9+02421+02111100911ADDAA106000091AG10999AY101061GF108991081051008001999999KA1240M+03021MA1999999095111MD1999999+0071MW1021REMSYN017333   10302 58007
0135832360999991985010412004-12150-045000FM-12+0440SBRR V0209991C00001009001CN0020001N9+02201+02101101081ADDAA124009091AG10999AY161061GF108991061081004501999999KA1240N+01971MA1999999096131MD1999999+0061MW1101REMSYN023333   20197 58006 60094
0116832360999991985010418004-12150-045000FM-12+0440SBRR V0203201N00151007501CN0100001N9+02411+02231100771ADDAA106001091AG10999AY161061GF108991051051008001021999MA1999999095831MD1999999+0191MW1161REMSYN017333   58019 60011
0129832360999991985010500004-12150-045000FM-12+0440SBRR V0200501N00211007501CN9999999N9+02251+02071101031ADDAA106000091AG10999AY101061GF108991071071008001021999KA1240M+02791MA1999999096071MD1999999+0101MW1021REMSYN017333   10279 58010
0135832360999991985010512004-12150-045000FM-12+0440SBRR V0203601N00051004201CN0100001N9+02361+02111101231ADDAA124001091AG10999AY151061GF108991081051004501999999KA1240N+02111MA1999999096281MD1999999+0151MW1021REMSYN023333   20211 58015 60014
0116832360999991985010518004-12150-045000FM-12+0440SBRR V0200501N003619999999N0100001N9+02791+02181100831ADDAA106002091AG10999AY161061GF107991999999008001999999MA1999999095911MD1999999+0081MW1151REMSYN017333   58008 60021
0135832360999991985010612004-12150-045000FM-12+0440SBRR V0202701N00051007501CN0100001N9+02331+02151101401ADDAA124008091AG10999AY151061GF108991061071008001021999KA1240N+01951MA1999999096411MD1999999+0131MW1101REMSYN023333   20195 58013 60084
0110832360999991985010618004-12150-045000FM-12+0440SBRR V0209991C00001012001CN0100001N9+02981+02351100921ADDAA106000091AG10999AY121061GF108991071081008001021999MA1999999096001MD1999999+0091MW1151REMSYN011333   58009
0135832360999991985010700004-12150-045000FM-12+0440SBRR V0202701N00101045001CN9999999N9+02311+02221101051ADDAA106002091AG10999AY161061GF105991031051008001061041KA1240M+03001MA1999999096101MD1999999-0201MW1131REMSYN023333   10300 59020 60021
0135832360999991985010712004-12150-045000FM-12+0440SBRR V0202701N00101220001CN0500001N9+02501+02111101061ADDAA124002091AG10999AY101061GF104991031001022501041011KA1240N+02081MA1999999096121MD1999999-0291MW1021REMSYN023333   20208 59029 60024
0110832360999991985010718004-12150-045000FM-12+0440SBRR V0200501N00571220001CN0500001N9+03191+02101100551ADDAA106000091AG10999AY101061GF104991021011008001001021MA1999999095671MD1999999-0031MW1021REMSYN011333   59003
0129832360999991985010800004-12150-045000FM-12+0440SBRR V0201801N00101021001CN9999999N9+02481+02321100671ADDAA106000091AG10999AY101061GF105991051001022501071001KA1240M+03211MA1999999095761MD1999999-0341MW1021REMSYN017333   10321 59034
0129832360999991985010812004-12150-045000FM-12+0440SBRR V0202301N00151007501CN0200001N9+02571+02231100931ADDAA106000091AG10999AY101061GF107991051021008001061041KA1240N+02241MA1999999096011MD1999999-0111MW1021REMSYN017333   20224 59011
0127832360999991985010818004-12150-045000FM-12+0440SBRR V0203201N00311007501CN0100001N9+02491+02151100561ADDAA106001091AA299000091AG10999AY161061GF108991061061008001021999MA1999999095641MD1999999+0021MW1171REMSYN017333   58002 60011
0135832360999991985010900004-12150-045000FM-12+0440SBRR V0201801N00101007501CN9999999N9+02131+02051100931ADDAA106003091AG10999AY161061GF108991061071008001031999KA1240M+03061MA1999999095961MD1999999+0231MW1031REMSYN023333   10306 58023 60031
0135832360999991985010912004-12150-045000FM-12+0440SBRR V0203601N00101045001CN0100001N9+02381+02191101051ADDAA124003091AG10001AY141061GF106991041051008001071001KA1240N+02011MA1999999096101MD1999999+0091MW1421REMSYN023333   20201 58009 60034
0110832360999991985010918004-12150-045000FM-12+0440SBRR V0200501N00211045001CN0200001N9+02701+02081100631ADDAA106000091AG10999AY101061GF106991031031008001041021MA1999999095711MD1999999+0031MW1021REMSYN011333   58003
0135832360999991985011012004-12150-045000FM-12+0440SBRR V0209991C00001007501CN0100001N9+02461+02171101131ADDAA124013091AG10999AY121061GF107991051071008001041021KA1240N+02121MA1999999096181MD1999999+0081MW1021REMSYN023333   20212 58008 60134
0110832360999991985011018004-12150-045000FM-12+0440SBRR V0203601N00361012001CN0100001N9+02741+02341100651ADDAA106000091AG10999AY121061GF108991061081008001021999MA1999999095741MD1999999+0031MW1171REMSYN011333   58003
0135832360999991985011100004-12150-045000FM-12+0440SBRR V0209991C00001009001CN9999999N9+02271+02191101041ADDAA106001091AG10999AY161061GF108991051081004501999999KA1240M+02941MA1999999096101MD1999999-0121MW1031REMSYN023333   10294 59012 60011
0135832360999991985011112004-12150-045000FM-12+0440SBRR V0209991C00001045001CN0100001N9+02471+02171101061ADDAA124006091AG10999AY161061GF108991041051008001021999KA1240N+02151MA1999999096121MD1999999-0061MW1021REMSYN023333   20215 59006 60064
0116832360999991985011118004-12150-045000FM-12+0440SBRR V0209999999999045001CN0040001N9+02421+02251100751ADDAA106003091AG10999AY161061GF108991031051004501021999MA1999999095801MD1999999+0061MW1501REMSYN017333   58006 60031
0135832360999991985011200004-12150-045000FM-12+0440SBRR V0200901N00261007501CN9999999N9+02191+02081100921ADDAA106001091AG10999AY161061GF108991081051008001999999KA1240M+02641MA1999999095981MD1999999-0121MW1461REMSYN023333   10264 59012 60011
0135832360999991985011212004-12150-045000FM-12+0440SBRR V0209991C00001007501CN9999999N9+02381+02131101011ADDAA124006091AG10999AY151061GF108991061071008001041999KA1240N+02081MA1999999096061MD1999999-0061MW1031REMSYN023333   20208 59006 60064
0116832360999991985011218004-12150-045000FM-12+0440SBRR V0202701N00261012001CN0100001N9+02461+02131100751ADDAA106000391AG10999AY151061GF108991071081008001021999MA1999999095821MD1999999+0021MW1151REMSYN017333   58002 69931
0135832360999991985011300004-12150-045000FM-12+0440SBRR V0200501N00261009001CN9999999N9+02171+02041101011ADDAA106000191AG10999AY151061GF108991061081004501999999KA1240M+02741MA1999999096061MD1999999+0081MW1031REMSYN023333   10274 58008 69911
0146832360999991985011312004-12150-045000FM-12+0440SBRR V0209991C00001045001CN0100001N9+02371+02131101171ADDAA124000491AA299000591AG10999AY101061GF107991041051008001071001KA1240N+02051MA1999999096211MD1999999+0151MW1021REMSYN023333   20205 58015 69944
0129832360999991985011412004-12150-045000FM-12+0440SBRR V0201801N00101007501CN0100001N9+02461+02231101151ADDAA106000091AG10001AY101061GF106991051041008001061021KA1240N+02091MA1999999096201MD1999999-0011MW1021REMSYN017333   20209 59001
0110832360999991985011418004-12150-045000FM-12+0440SBRR V0200201N00151007501CN0100001N9+03121+02281100651ADDAA106000091AG10999AY121061GF107991061061008001041021MA1999999095761MD1999999-0071MW1151REMSYN011333   59007
0129832360999991985011500004-12150-045000FM-12+0440SBRR V0202301N00101007501CN9999999N9+02371+02151101021ADDAA106000091AG10999AY101061GF105991051021008001021001KA1240M+03141MA1999999096081MD1999999+0051MW1021REMSYN017333   10314 58005
0129832360999991985011512004-12150-045000FM-12+0440SBRR V0209991C00001045001CN0200001N9+02341+02151101131ADDAA106000091AG10999AY101061GF108991011011008001071999KA1240N+02031MA1999999096181MD1999999-0021MW1021REMSYN017333   20203 59002
0129832360999991985011514004-12150-045000FM-12+0440SBRR V0209991C00001045001CN0200001N9+02341+02151101131ADDAA106000091AG10999AY101021GF108991011011008001071999KA1240N+02031MA1999999096181MD1999999-0021MW1021REMSYN017333   20203 59002
0110832360999991985011518004-12150-045000FM-12+0440SBRR V0200501N00261045001CN0200001N9+02951+02031100751ADDAA106000091AG10999AY101061GF108991021011008001071999MA1999999095871MD1999999+0111MW1021REMSYN011333   58011
0129832360999991985011600004-12150-045000FM-12+0440SBRR V0202301N00051021001CN9999999N9+02421+02281100871ADDAA106000091AG10999AY101061GF106991061001022501021001KA1240M+03051MA1999999095941MD1999999-0141MW1021REMSYN017333   10305 59014
0146832360999991985011612004-12150-045000FM-12+0440SBRR V0202301N00101007501CN0200001N9+02501+02071101111ADDAA124000491AA299000591AG10999AY161061GF106991051041008001021021KA1240N+02171MA1999999096171MD1999999-0011MW1021REMSYN023333   20217 59001 69944
0127832360999991985011618004-12150-045000FM-12+0440SBRR V0201801N00151007501CN0100001N9+02321+02181100751ADDAA106000691AA299000591AG10999AY151061GF108991061071008001041999MA1999999095821MD1999999-0051MW1901REMSYN017333   59005 69961
0146832360999991985011700004-12150-045000FM-12+0440SBRR V0209991C00001007501CN9999999N9+02241+02171100971ADDAA106000691AA299000591AG10999AY161061GF108991061071008001999999KA1240M+03051MA1999999096031MD1999999+0121MW1031REMSYN023333   10305 58012 69961
0124832360999991985011712004-12150-045000FM-12+0440SBRR V0200501N00101045001CN0100001N9+02461+02171100931ADDAG10999AY141061GF107991031081008001051001KA1240N+02131MA1999999095991MD1999999-0181MW1021REMSYN023333   20213 59018 600/4
0108832360999991985011718004-12150-045000FM-12+0440SBRR V0200501N00151045001CN0100001N9+02801+02201100521ADDAA106002091AG10999GF107991041031008001041001MA1999999095621MD1999999-0201MW1151REMSYN017333   59020 60021
0135832360999991985011800004-12150-045000FM-12+0440SBRR V0200501N00261045001CN9999999N9+02201+02171100981ADDAA106012091AG10999AY161061GF108991041071004501021999KA1240M+02901MA1999999096041MD1999999+0011MW1501REMSYN023333   10290 58001 60121
0135832360999991985011900004-12150-045000FM-12+0440SBRR V0200501N00261009001CN9999999N9+02301+02251100971ADDAA106011091AG10999AY161061GF108991081081004501999999KA1240M+02721MA1999999095901MD1999999-0071MW1501REMSYN023333   10272 59007 60111
0135832360999991985011912004-12150-045000FM-12+0440SBRR V0200501N00211045001CN0040001N9+02321+02201101141ADDAA124066091AG10999AY161061GF107991041051004501021001KA1240N+02171MA1999999096191MD1999999+0091MW1401REMSYN023333   20217 58009 60664
0116832360999991985011918004-12150-045000FM-12+0440SBRR V0203201N00101009001CN0100001N9+02491+02211100741ADDAA106003091AG10999AY161061GF107991051081004501021001MA1999999095811MD1999999+0151MW1021REMSYN017333   58015 60031
0116832360999991985012018004-12150-045000FM-12+0440SBRR V0200501N00311007501CN0100001N9+02621+02351100801ADDAA106001091AG10999AY161061GF107991051071008001031021MA1999999095871MD1999999+0061MW1031REMSYN017333   58006 60011
0135832360999991985012112004-12150-045000FM-12+0440SBRR V0209991C00001045001CN0100001N9+02291+02091101241ADDAA124019091AG10999AY161061GF107991021011008001021001KA1240N+02071MA1999999096271MD1999999+0061MW1401REMSYN023333   20207 58006 60194
0116832360999991985012118004-12150-045000FM-12+0440SBRR V0202701N00051045001CN0200001N9+02741+02101999999ADDAA106000191AG10001AY161061GF107991031011008001021001MA1999999095831MD1999999-0041MW1031REMSYN017333   59004 69911
0135832360999991985012200004-12150-045000FM-12+0440SBRR V0209991C00001004201CN9999999N9+02211+02151100991ADDAA106021091AG10999AY161061GF108991051051004501021999KA1240M+02871MA1999999096041MD1999999-0121MW1401REMSYN023333   10287 59012 60211
0135832360999991985012212004-12150-045000FM-12+0440SBRR V0202301N00051004201CN0040001N9+02271+02191101071ADDAA124021091AG10999AY121061GF108991061071004501999999KA1240N+02111MA1999999096121MD1999999-0151MW1151REMSYN023333   20211 59015 60214
0116832360999991985012218004-12150-045000FM-12+0440SBRR V0201801N00101007501CN0040001N9+02361+02291100711ADDAA106010091AG10999AY161061GF108991071071008001021999MA1999999095771MD1999999-0061MW1021REMSYN017333   59006 60101
0151832360999991985012300004-12150-045000FM-12+0440SBRR V0200501N002119999999N9999999N9+02201+02071101131ADDAA106031091AG10999AY161061GA1091+999999999GF109991091999004501999999KA1240M+02691MA1999999096161MD1999999+0121MW1611REMSYN023333   10269 58012 60311
0135832360999991985012312004-12150-045000FM-12+0440SBRR V0200501N00051004201CN0100001N9+02341+02071101141ADDAA124048091AG10999AY161061GF108991051051004501071999KA1240N+02031MA1999999096171MD1999999+0051MW1021REMSYN023333   20203 58005 60484
0110832360999991985012318004-12150-045000FM-12+0440SBRR V0200501N00311105001CN0200001N9+02901+02121100591ADDAA106000091AG10999AY101061GF106991031021008001001051MA1999999095681MD1999999-0091MW1021REMSYN011333   59009
0129832360999991985012400004-12150-045000FM-12+0440SBRR V0200501N00361004201CN9999999N9+02381+02071100991ADDAA106000091AG10999AY101061GF108991081071004501999999KA1240M+03031MA1999999096051MD1999999-0111MW1131REMSYN017333   10303 59011
0135832360999991985012412004-12150-045000FM-12+0440SBRR V0203201N00101007501CN0100001N9+02471+02131101081ADDAA124031091AG10001AY161061GF107991071051008001041001KA1240N+02051MA1999999096141MD1999999-0031MW1031REMSYN023333   20205 59003 60314
0127832360999991985012418004-12150-045000FM-12+0440SBRR V0200501N00261007501CN0100001N9+02891+02131100631ADDAA106000491AA299000591AG10999AY151061GF108991061061008001051999MA1999999095721MD1999999+0041MW1021REMSYN017333   58004 69941
0151832360999991985012500004-12150-045000FM-12+0440SBRR V0200501N001019999999N9999999N9+02181+02111101131ADDAA106021091AG10999AY161061GA1091+999999999GF109991091999004501999999KA1240M+02991MA1999999096181MD1999999+0131MW1611REMSYN023333   10299 58013 60211
0135832360999991985012512004-12150-045000FM-12+0440SBRR V0200901N00151021001CN0040001N9+02241+02161101291ADDAA124032091AG10999AY161061GF108991081001022501021999KA1240N+02031MA1999999096321MD1999999+0181MW1461REMSYN023333   20203 58018 60324
0116832360999991985012518004-12150-045000FM-12+0440SBRR V0201801N00101045001CN0100001N9+02391+02241100841ADDAA106007091AG10999AY161061GF108991031021008001021999MA1999999095901MD1999999+0181MW1021REMSYN017333   58018 60071
0135832360999991985012600004-12150-045000FM-12+0440SBRR V0200901N00151021001CN9999999N9+02311+02231101061ADDAA106006091AG10999AY161061GF108991081001022501021999KA1240M+02821MA1999999096101MD1999999-0081MW1461REMSYN023333   10282 59008 60061
0116832360999991985012618004-12150-045000FM-12+0440SBRR V0203201N00511045001CN0100001N9+02501+02071100611ADDAA106003091AG10999AY161061GF107991041051008001021001MA1999999095691MD1999999-0211MW1511REMSYN017333   59021 60031
0154832360999991985012700004-12150-045000FM-12+0440SBRR V0202701N00151004201CN9999999N9+02321+02131100761ADDAA106005091AG10999AY161061GF108991081051004501999999KA1240M+02901MA1999999098532MD1999999-0271MW1021REMSYN023333   10290 59027 60051EQDQ01+098533APOSP 
0116832360999991985012718004-12150-045000FM-12+0440SBRR V0200901N00101004201CN0020001N9+02251+02141100511ADDAA106014091AG10999AY161061GF108991081071004501999999MA1999999095581MD1999999-0111MW1521REMSYN017333   59011 60141
0135832360999991985012800004-12150-045000FM-12+0440SBRR V0200501N00211004201CN9999999N9+99999+99999100811ADDAA124002091AG10999AY161061GF108991081051004501999999KA1240M+02721MA1999999095961MD1999999+0031MW1611REMSYN023333   10272 58003 60024
0135832360999991985012812004-12150-045000FM-12+0440SBRR V0203601N00211045001CN0040001N9+02361+02131100991ADDAA124054091AG10999AY161061GF108991021071004501041999KA1240N+02031MA1999999095991MD1999999+0091MW1031REMSYN023333   20203 58009 60544
0116832360999991985012818004-12150-045000FM-12+0440SBRR V0202301N00101004201CN0040001N9+02351+02241100251ADDAA106002091AG10999AY161061GF107991061051004501041021MA1999999095651MD1999999+0071MW1151REMSYN017333   58007 60021
0135832360999991985012900004-12150-045000FM-12+0440SBRR V0200501N00151007501CN9999999N9+02221+02141100851ADDAA106004091AG10999AY161061GF108991061051008001031999KA1240M+02811MA1999999095911MD1999999+0051MW1021REMSYN023333   10281 58005 60041
0135832360999991985012912004-12150-045000FM-12+0440SBRR V0200501N00261007501CN0100001N9+02361+02191101071ADDAA124010091AG10999AY161061GF108991081051008001999999KA1240N+01971MA1999999096121MD1999999+0131MW1461REMSYN023333   20197 58013 60104
0127832360999991985012918004-12150-045000FM-12+0440SBRR V0200501N00411045001CN0100001N9+02421+02131100841ADDAA106000791AA299001091AG10999AY161061GF108991041071008001021999MA1999999095901MD1999999+0251MW1601REMSYN017333   58025 69971
0135832360999991985013000004-12150-045000FM-12+0440SBRR V0209991C00001021001CN9999999N9+02161+02081101051ADDAA106004091AG10999AY161061GF108991081001022501021999KA1240M+02851MA1999999096101MD1999999+0191MW1601REMSYN023333   10285 58019 60041
0154832360999991985013012004-12150-045000FM-12+0440SBRR V0200501N001519999999N0100001N9+02451+02191101171ADDAA124005091AG10999AY101061GF107991071071999999041021KA1240N+02031MA1999999096221MD1999999+0101MW1021REMSYN023333   20203 58010 60054EQDQ01+000992SCOLCB
0110832360999991985013018004-12150-045000FM-12+0440SBRR V0202301N00211045001CN0100001N9+03021+02211100681ADDAA106000091AG10999AY101061GF105991041041008001051021MA1999999095771MD1999999-0131MW1021REMSYN011333   59013
0129832360999991985013100004-12150-045000FM-12+0440SBRR V0209991C00001045001CN9999999N9+02441+02191100921ADDAA106000091AG10999AY101061GF105991031031008001021011KA1240M+03101MA1999999095991MD1999999-0111MW1021REMSYN017333   10310 59011
0129832360999991985013112004-12150-045000FM-12+0440SBRR V0203601N00101004201CN0100001N9+02361+02191101111ADDAA106000091AG10999AY101061GF108991051051004501021999KA1240N+02031MA1999999096171MD1999999-0051MW1151REMSYN017333   20203 59005
0148832360999991985020100004-12150-045000FM-12+0440SBRR V0203201N00101220001CN9999999N9+02331+02031100911ADDAA106000091AG10999AY101061GF104991001001999999001051KA1240M+02891MA1999999095971MD1999999-0081MW1021REMSYN017333   10289 59008EQDQ01+000032SCOTLC
0146832360999991985020112004-12150-045000FM-12+0440SBRR V0202301N00151007501CN0100001N9+02331+02131101201ADDAA124000491AA299000591AG10999AY101061GF108991061041008001051011KA1240N+01991MA1999999096251MD1999999+0081MW1021REMSYN023333   20199 58008 69944
0110832360999991985020118004-12150-045000FM-12+0440SBRR V0200901N00101220001CN0200001N9+03021+02181100791ADDAA106000091AG10999AY101061GF104991031021008001031001MA1999999095871MD1999999+0051MW1021REMSYN011333   58005
0129832360999991985020200004-12150-045000FM-12+0440SBRR V0203201N00151220001CN9999999N9+02321+02161100951ADDAA106000091AG10001AY121061GF103991031061008001021001KA1240M+03111MA1999999096011MD1999999+0041MW1131REMSYN017333   10311 58004
0129832360999991985020212004-12150-045000FM-12+0440SBRR V0209991C00001220001CN0500001N9+02401+02051101211ADDAA106000091AG10999AY101061GF103991031011008001001001KA1240N+01901MA1999999096261MD1999999+0011MW1021REMSYN017333   20190 58001
0110832360999991985020218004-12150-045000FM-12+0440SBRR V0202701N00211105001CN0200001N9+03071+02171100751ADDAA106000091AG10999AY101061GF105991041091008001001031MA1999999095841MD1999999-0031MW1171REMSYN011333   59003
0129832360999991985020300004-12150-045000FM-12+0440SBRR V0209991C00001220001CN9999999N9+02161+02111100971ADDAA106000091AG10999AY101061GF100991001001999999001001KA1240M+03191MA1999999096031MD1999999+0031MW1021REMSYN017333   10319 58003
0129832360999991985020312004-12150-045000FM-12+0440SBRR V0200901N00151220001CN0200001N9+02581+02211101261ADDAA106000091AG10999AY101061GF103991021021008001001011KA1240N+01931MA1999999096311MD1999999+0051MW1021REMSYN017333   20193 58005
0110832360999991985020318004-12150-045000FM-12+0440SBRR V0200901N00411007501CN0100001N9+02851+02421101011ADDAA106000091AG10999AY121061GF107991061051008001041001MA1999999096071MD1999999+0251MW1151REMSYN011333   58025
0129832360999991985020400004-12150-045000FM-12+0440SBRR V0202301N00101220001CN9999999N9+02231+02141101041ADDAA106000091AG10999AY101061GF102991011021008001001011KA1240M+03131MA1999999096101MD1999999+0071MW1021REMSYN017333   10313 58007
0129832360999991985020412004-12150-045000FM-12+0440SBRR V0201801N00101220001CN0200001N9+02521+02191101341ADDAA106000091AG10999AY101061GF104991041021008001001001KA1240N+01901MA1999999096391MD1999999+0081MW1021REMSYN017333   20190 58008
0110832360999991985020418004-12150-045000FM-12+0440SBRR V0200501N00101220001CN0100001N9+03111+01901100991ADDAA106000091AG10999AY101061GF104991041021008001001001MA1999999096061MD1999999-0011MW1021REMSYN011333   59001
0129832360999991985020500004-12150-045000FM-12+0440SBRR V0202701N00101220001CN9999999N9+02441+02111101041ADDAA106000091AG10999AY101061GF103991031031008001001001KA1240M+03281MA1999999096111MD1999999+0011MW1021REMSYN017333   10328 58001
0129832360999991985020512004-12150-045000FM-12+0440SBRR V0209991C00001220001CN0500001N9+02491+02051101261ADDAA106000091AG10999AY101061GF102991011011012501001021KA1240N+01861MA1999999096321MD1999999-0071MW1021REMSYN017333   20186 59007
0110832360999991985020518004-12150-045000FM-12+0440SBRR V0200501N00101220001CN0200001N9+03301+02271100851ADDAA106000091AG10999AY121061GF104991041051008001041001MA1999999095951MD1999999-0111MW1171REMSYN011333   59011
0135832360999991985020612004-12150-045000FM-12+0440SBRR V0201801N00101220001CN0500001N9+02581+02251101281ADDAA124001091AG10999AY101061GF101991011011008001001001KA1240N+01931MA1999999096331MD1999999+0011MW1021REMSYN023333   20193 58001 60014
0110832360999991985020618004-12150-045000FM-12+0440SBRR V0200501N00151220001CN0500001N9+03171+02121100901ADDAA106000091AG10999AY101061GF104991031011008001001021MA1999999095991MD1999999+0041MW1021REMSYN011333   58004
0129832360999991985020700004-12150-045000FM-12+0440SBRR V0202701N00101220001CN9999999N9+02391+02191100971ADDAA106000091AG10999AY101061GF103991021031008001061001KA1240M+03251MA1999999096051MD1999999-0051MW1131REMSYN017333   10325 59005
0129832360999991985020712004-12150-045000FM-12+0440SBRR V0203201N00101220001CN0500001N9+02561+02131101311ADDAA106000091AG10999AY101061GF102991011011012501001021KA1240N+01691MA1999999096381MD1999999+0051MW1021REMSYN017333   20169 58005
0110832360999991985020718004-12150-045000FM-12+0440SBRR V0200501N00311045001CN0200001N9+03181+02191100951ADDAA106000091AG10999AY101061GF105991031041008001021011MA1999999096041MD1999999+0051MW1021REMSYN011333   58005
0129832360999991985020800004-12150-045000FM-12+0440SBRR V0201401N00101220001CN9999999N9+02331+02181100941ADDAA106000091AG10999AY101061GF102991001001999999001021KA1240M+03221MA1999999096011MD1999999-0041MW1021REMSYN017333   10322 59004
0135832360999991985020812004-12150-045000FM-12+0440SBRR V0200501N00101220001CN0200001N9+02641+02231101271ADDAA124003091AG10999AY161061GF104991031021008001001011KA1240N+02061MA1999999096331MD1999999-0041MW1021REMSYN023333   20206 59004 60034
0110832360999991985020818004-12150-045000FM-12+0440SBRR V0203601N00211220001CN0200001N9+02361+02101100891ADDAA106000091AG10999AY101061GF105991031011008001001041MA1999999095981MD1999999-0061MW1021REMSYN011333   59006
0129832360999991985020900004-12150-045000FM-12+0440SBRR V0200801N00261220001CN9999999N9+02321+02051100921ADDAA106000091AG10999AY101061GF102991021001008001061001KA1240M+03141MA1999999096001MD1999999-0011MW1021REMSYN017333   10314 59001
0129832360999991985020912004-12150-045000FM-12+0440SBRR V0201801N00101220001CN0500001N9+99999+99999101131ADDAA106000091AG10999AY101061GF102991001001999999001031KA1240N+01841MA1999999096191MD1999999-0141MW1021REMSYN017333   20184 59014
0110832360999991985020918004-12150-045000FM-12+0440SBRR V0202701N00101105001CN0200001N9+03251+02101100651ADDAA106000091AG10999AY101061GF105991031031008001001021MA1999999095751MD1999999-0231MW1021REMSYN011333   59023
0129832360999991985021000004-12150-045000FM-12+0440SBRR V0202301N00101220001CN9999999N9+02431+01841100921ADDAA106000091AG10999AY121061GF102991021051008001001001KA1240M+03271MA1999999095991MD1999999-0011MW1131REMSYN017333   10327 59001
0146832360999991985021012004-12150-045000FM-12+0440SBRR V0200501N00311220001CN0500001N9+02641+02091101181ADDAA124000491AA299000591AG10999AY161061GF102991011011008001001081KA1240N+01951MA1999999096251MD1999999+0061MW1021REMSYN023333   20195 58006 69944
0110832360999991985021018004-12150-045000FM-12+0440SBRR V0203601N00311220001CN0500001N9+03041+02071100761ADDAA106000091AG10999AY101061GF103991031011008001001001MA1999999095851MD1999999+0101MW1021REMSYN011333   58010
0146832360999991985021100004-12150-045000FM-12+0440SBRR V0201401N00101220001CN9999999N9+02301+02161100911ADDAA106000291AA299000391AG10999AY161061GF102991021031008001001001KA1240M+03211MA1999999095981MD1999999-0011MW1131REMSYN023333   10321 59001 69921
0146832360999991985021112004-12150-045000FM-12+0440SBRR V0200501N00101220001CN0200001N9+02621+02101101191ADDAA124000291AA299000391AG10999AY101061GF103991031021008001031001KA1240N+02141MA1999999096251MD1410001+0001MW1021REMSYN023333   20214 58000 69924
0110832360999991985021118004-12150-045000FM-12+0440SBRR V0201401N00411045001CN0100001N9+02621+02161100961ADDAA106000091AG10999AY121061GF106991041061008001021001MA1999999096031MD1999999+0181MW1171REMSYN011333   58018
0135832360999991985021200004-12150-045000FM-12+0440SBRR V0202301N00101220001CN9999999N9+02201+02151100981ADDAA106014091AG10999AY161061GF104991041051008001021001KA1240M+03161MA1999999096051MD1999999+0071MW1131REMSYN023333   10316 58007 60141
0135832360999991985021212004-12150-045000FM-12+0440SBRR V0203601N00101045001CN0100001N9+02241+02031101371ADDAA124031091AG10999AY161061GF107991011011008001021011KA1240N+01971MA1999999096391MD1999999+0141MW1021REMSYN023333   20197 58014 60314
0129832360999991985021300004-12150-045000FM-12+0440SBRR V0201801N00101220001CN9999999N9+99999+99999101061ADDAA106000091AG10999AY101061GF103991031031008001001001KA1240M+03191MA1999999096111MD1999999+0061MW1131REMSYN017333   10319 58006
0129832360999991985021312004-12150-045000FM-12+0440SBRR V0200501N00151007501CN0200001N9+02601+02231101271ADDAA106000091AG10999AY101061GF106991051041008001031021KA1240N+01851MA1999999096331MD1999999-0061MW1021REMSYN017333   20185 59006
0110832360999991985021318004-12150-045000FM-12+0440SBRR V0200501N00311220001CN0200001N9+03031+02291100811ADDAA106000091AG10999AY101061GF104991031031008001001021MA1999999095901MD1999999+0201MW1021REMSYN011333   58020
0129832360999991985021400004-12150-045000FM-12+0440SBRR V0209991C00001220001CN9999999N9+02231+01881101021ADDAA106000091AG10999AY101061GF104991041021008001041001KA1240M+03071MA1999999096081MD1999999-0031MW1021REMSYN017333   10307 59003
0129832360999991985021412004-12150-045000FM-12+0440SBRR V0200501N00151220001CN0200001N9+02611+01841101251ADDAA106000091AG10999AY101061GF104991011011008001041011KA1240N+02001MA1999999096291MD1999999-0041MW1021REMSYN017333   20200 59004
0127832360999991985021418004-12150-045000FM-12+0440SBRR V0200501N00211220001CN0200001N9+02791+02091100801ADDAA106000291AA299000391AG10999AY151061GF104991041041008001001001MA1999999095881MD1999999-0021MW1021REMSYN017333   59002 69921
0148832360999991985021500004-12150-045000FM-12+0440SBRR V0201801N03142220001CN9999999N9+02341+02181100831ADDAA106000091AG10999AY101061GF100991001001999999001001KA1240M+03051MA1999999095911MD1999999-0871MW1021REMSYN017333   10305 59087EQDQ01+003143WOSPD 
0154832360999991985021512004-12150-045000FM-12+0440SBRR V0200901N00211105001CN0200001N9+02531+02071101141ADDAA124000391AG10999AY151061GF105991031021008001001021KA1240N+01891MA1999999096211MD1999999-0081MW1021REMSYN023333   20189 59008 69934EQDQ01+999990APOSLP
0110832360999991985021518004-12150-045000FM-12+0440SBRR V0200501N00261220001CN0200001N9+03031+02341100711ADDAA106000091AG10999AY101061GF104991041031008001021001MA1999999095801MD1999999-0081MW1021REMSYN011333   59008
0129832360999991985021600004-12150-045000FM-12+0440SBRR V0202301N00051007501CN9999999N9+02421+02051100981ADDAA106000091AG10999AY121061GF105991051051008001041001KA1240M+03061MA1999999096051MD1999999+0141MW1131REMSYN017333   10306 58014
0129832360999991985021612004-12150-045000FM-12+0440SBRR V0200501N00311004201CN0100001N9+02221+02051101301ADDAA106000091AG10999AY101061GF107991071051004501001001KA1240N+02001MA1999999096431MD1999999+0131MW1021REMSYN017333   20200 58013
0129832360999991985021700004-12150-045000FM-12+0440SBRR V0202201N00151220001CN9999999N9+02261+01991101181ADDAA106000091AG10999AY111061GF103991031031008001001001KA1240M+02931MA1999999096211MD1999999+0161MW1021REMSYN017333   10293 58016
0135832360999991985021712004-12150-045000FM-12+0440SBRR V0203201N00101045001CN0200001N9+02381+02091101271ADDAA124009091AG10999AY161061GF106991041021008001041021KA1240N+02031MA1999999096321MD1999999-0021MW1021REMSYN023333   20203 59002 60094
0110832360999991985021718004-12150-045000FM-12+0440SBRR V0200501N00211007501CN0100001N9+02891+02211100831ADDAA106000091AG10999AY121061GF107991051031008001031001MA1999999095911MD1999999-0051MW1151REMSYN011333   59005
0095832360999991985021800004-12150-045000FM-12+0440SBRR V0202301N001019999999N9999999N9+02351+02291101051ADDAA106000091AG10001AY121061GF105991999051008001001001MA1999999096111MW1131EQDQ01+000032SCOTLC
0135832360999991985021812004-12150-045000FM-12+0440SBRR V0200501N00151007501CN0200001N9+02341+02051101321ADDAA124000591AG10999AY151061GF107991051041008001091011KA1240N+01921MA1999999096361MD1999999+0041MW1021REMSYN023333   20192 58004 69954
0116832360999991985021818004-12150-045000FM-12+0440SBRR V0201801N00101220001CN0200001N9+02681+02331100931ADDAA106006091AG10999AY161061GF104991031031008001001011MA1999999096001MD1999999+0091MW1021REMSYN017333   58009 60061
0129832360999991985021900004-12150-045000FM-12+0440SBRR V0203601N00101220001CN9999999N9+02471+02281101021ADDAA106000091AG10999AY121061GF104991041051008001021001KA1240M+02931MA1999999096081MD1999999-0031MW1131REMSYN017333   10293 59003
0135832360999991985021912004-12150-045000FM-12+0440SBRR V0203201N00101220001CN0200001N9+02471+02131101231ADDAA124006091AG10999AY101061GF104991031021008001061021KA1240N+01951MA1999999096291MD1999999-0071MW1021REMSYN023333   20195 59007 60064
0110832360999991985021918004-12150-045000FM-12+0440SBRR V0203601N00261045001CN0200001N9+02981+02151100871ADDAA106000091AG10999AY101061GF105991041051008001041011MA1999999095951MD1999999-0051MW1021REMSYN011333   59005
0129832360999991985022000004-12150-045000FM-12+0440SBRR V0201801N00101220001CN9999999N9+02301+02201100981ADDAA106000091AG10999AY101061GF102991021021012501001001KA1240M+03021MA1999999096051MD1999999-0031MW1021REMSYN017333   10302 59003
0129832360999991985022012004-12150-045000FM-12+0440SBRR V0201801N00101220001CN0200001N9+02421+02031101221ADDAA106000091AG10999AY101061GF104991031011008001081001KA1240N+01901MA1999999096311MD1999999+0021MW1021REMSYN017333   20190 58002
0110832360999991985022018004-12150-045000FM-12+0440SBRR V0200901N00261012001CN0200001N9+03051+02151100811ADDAA106000091AG10999AY101061GF106991061081008001001001MA1999999095901MD1999999-0051MW1021REMSYN011333   59005
0129832360999991985022100004-12150-045000FM-12+0440SBRR V0200901N00101220001CN9999999N9+02441+02211100861ADDAA106000091AG10999AY101061GF102991021001022501061001KA1240M+03131MA1999999095931MD1999999-0131MW1021REMSYN017333   10313 59013
0129832360999991985022112004-12150-045000FM-12+0440SBRR V0203201N00101220001CN0500001N9+02501+02001101171ADDAA106000091AG10999AY101061GF104991021001022501061051KA1240N+01891MA1999999096231MD1999999-0081MW1021REMSYN017333   20189 59008
0110832360999991985022118004-12150-045000FM-12+0440SBRR V0202701N00051220001CN0500001N9+03161+01991100671ADDAA106000091AG10999AY101061GF104991041011008001001001MA1999999095771MD1999999-0131MW1021REMSYN011333   59013
0129832360999991985022200004-12150-045000FM-12+0440SBRR V0200901N00101220001CN9999999N9+02521+02151100661ADDAA106000091AG10999AY101061GF102991021001022501061001KA1240M+03301MA1999999095751MD1999999-0181MW1021REMSYN017333   10330 59018
0129832360999991985022212004-12150-045000FM-12+0440SBRR V0200901N00411220001CN0500001N9+02641+02161100951ADDAA106000091AG10999AY101061GF103991021011008001041001KA1240N+01961MA1999999096041MD1999999-0191MW1021REMSYN017333   20196 59019
0110832360999991985022218004-12150-045000FM-12+0440SBRR V0200501N00311105001CN0200001N9+03121+02051100461ADDAA106000091AG10999AY101061GF105991031011008001001051MA1999999095571MD1999999-0201MW1021REMSYN011333   59020
0129832360999991985022300004-12150-045000FM-12+0440SBRR V0200901N00211220001CN9999999N9+02581+02061100691ADDAA106000091AG10999AY101061GF102991021031008001001001KA1240M+03151MA1999999095791MD1999999+0041MW1131REMSYN017333   10315 58004
0129832360999991985022312004-12150-045000FM-12+0440SBRR V0200501N00261007501CN0100001N9+02401+02231100871ADDAA106000091AG10999AY101061GF108991071071008001041999KA1240N+02061MA1999999095951MD1999999-0091MW1021REMSYN017333   20206 59009
0116832360999991985022318004-12150-045000FM-12+0440SBRR V0202201N00311007501CN0100001N9+02361+02131100571ADDAA106018091AG10999AY161061GF107991051061008001041021MA1999999095631MD1999999+0061MW1161REMSYN017333   58006 60181
0146832360999991985022400004-12150-045000FM-12+0440SBRR V0209991C00001007501CN9999999N9+02311+02221100711ADDAA106000291AA299000391AG10999AY161061GF106991061051008001021001KA1240M+02901MA1999999095781MD1999999-0021MW1131REMSYN023333   10290 59002 69921
0135832360999991985022412004-12150-045000FM-12+0440SBRR V0200501N00211045001CN0100001N9+02401+02111101011ADDAA124018091AG10999AY151061GF107991041081008001051041KA1240N+02121MA1999999096071MD1999999+0121MW1021REMSYN023333   20212 58012 60184
0129832360999991985022500004-12150-045000FM-12+0440SBRR V0201401N00051007501CN9999999N9+02301+02251100901ADDAA106000091AG10999AY101061GF108991081051008001999999KA1240M+02811MA1999999095961MD1999999+0181MW1021REMSYN017333   10281 58018
0135832360999991985022512004-12150-045000FM-12+0440SBRR V0200501N00261007501CN0040001N9+02331+02201101161ADDAA124011091AG10999AY121061GF108991061051008001041999KA1240N+02101MA1999999096211MD1999999+0141MW1151REMSYN023333   20210 58014 60114
0127832360999991985022518004-12150-045000FM-12+0440SBRR V0200901N00311007501CN0100001N9+02801+02221100781ADDAA106000691AA299000591AG10999AY161061GF107991051041008001031041MA1999999095861MD1999999+0131MW1031REMSYN017333   58013 69961
0129832360999991985022600004-12150-045000FM-12+0440SBRR V0201801N00051007501CN9999999N9+02351+02241100991ADDAA106000091AG10999AY121061GF108991061051008001021999KA1240M+02891MA1999999096051MD1999999+0091MW1131REMSYN017333   10289 58009
0146832360999991985022612004-12150-045000FM-12+0440SBRR V0209991C00001007501CN0100001N9+02441+02091101211ADDAA124000691AA299000591AG10999AY101061GF107991051051008001041001KA1240N+02171MA1999999096261MD1999999+0051MW1021REMSYN023333   20217 58005 69964
0127832360999991985022618004-12150-045000FM-12+0440SBRR V0200501N00361004201CN0040001N9+02621+02251100931ADDAA106000691AA299000591AG10999AY151061GF108991051071004501021999MA1999999096001MD1999999+0141MW1951REMSYN017333   58014 69961
0129832360999991985022700004-12150-045000FM-12+0440SBRR V0202701N00051007501CN9999999N9+02201+02131101071ADDAA106000091AG10999AY101061GF106991061021008001061001KA1240M+02891MA1999999096121MD1999999+0071MW1021REMSYN017333   10289 58007
0146832360999991985022712004-12150-045000FM-12+0440SBRR V0202301N00151045001CN0200001N9+02431+02231101191ADDAA124000691AA299000591AG10999AY101061GF105991031021008001041021KA1240N+02011MA1999999096231MD1999999-0031MW1021REMSYN023333   20201 59003 69964
0110832360999991985022718004-12150-045000FM-12+0440SBRR V0200501N00101045001CN0200001N9+03221+02261100651ADDAA106000091AG10999AY121061GF105991041051008001021031MA1999999095781MD1999999-0221MW1171REMSYN011333   59022
0135832360999991985022800004-12150-045000FM-12+0440SBRR V0209991C00001007501CN9999999N9+02251+02191100901ADDAA106008091AG10999AY161061GF106991051051008001071021KA1240M+03251MA1999999095961MD1999999-0161MW1131REMSYN023333   10325 59016 60081
0135832360999991985022812004-12150-045000FM-12+0440SBRR V0202701N00051105001CN0200001N9+02331+01961101231ADDAA124008091AG10999AY101061GF106991031021008001001051KA1240N+01911MA1999999096271MD1999999+0041MW1021REMSYN023333   20191 58004 60084
0129832360999991985030112004-12150-045000FM-12+0440SBRR V0201801N00101007501CN0200001N9+02561+02291101201ADDAA106000091AG10999AY101061GF106991051021008001041021KA1240N+02021MA1999999096261MD1999999-0021MW1021REMSYN017333   20202 59002
0110832360999991985030118004-12150-045000FM-12+0440SBRR V0200501N00311045001CN0200001N9+03081+02241100791ADDAA106000091AG10999AY101061GF105991041041008001021011MA1999999095881MD1999999+0021MW1021REMSYN011333   58002
0129832360999991985030200004-12150-045000FM-12+0440SBRR V0201401N001019999999N9999999N9+02281+02141100921ADDAA106000091AG10999AY101061GF107991021001008001041021KA1240M+03151MA1999999095991MD1999999-0061MW1021REMSYN017333   10315 59006
0129832360999991985030212004-12150-045000FM-12+0440SBRR V0201801N00051220001CN0500001N9+02491+01871101171ADDAA106000091AG10999AY101061GF104991011011008001041081KA1240N+01881MA1999999096231MD1999999-0031MW1021REMSYN017333   20188 59003
0110832360999991985030218004-12150-045000FM-12+0440SBRR V0200501N00261220001CN0500001N9+03061+02111100881ADDAA106000091AG10999AY101061GF103991021011008001031011MA1999999095961MD1999999+0081MW1021REMSYN011333   58008
0129832360999991985030300004-12150-045000FM-12+0440SBRR V0201801N00101220001CN9999999N9+02211+02061100941ADDAA106000091AG10999AY101061GF100991001001999999001001KA1240M+03111MA1999999096001MD1999999+0011MW1021REMSYN017333   10311 58001
0129832360999991985030312004-12150-045000FM-12+0440SBRR V0200501N00211007501CN0200001N9+02441+02151101131ADDAA106000091AG10999AY101061GF106991051021008001041021KA1240N+01941MA1999999096181MD1999999-0051MW1021REMSYN017333   20194 59005
0116832360999991985030318004-12150-045000FM-12+0440SBRR V0203601N00101045001CN0200001N9+02891+02231100691ADDAA106001091AG10999AY161061GF106991041041008001021011MA1999999095771MD1999999-0191MW1021REMSYN017333   59019 60011
0148832360999991985030400004-12150-045000FM-12+0440SBRR V0202301N00101012001CN9999999N9+02321+02221100871ADDAA106000091AG10999AY101061GF108991999081008001061999KA1240M+03081MA1999999095941MD1999999-0061MW1021REMSYN017333   10308 59006EQDQ01+000082SCOTLC
0135832360999991985030412004-12150-045000FM-12+0440SBRR V0200501N00261007501CN0100001N9+02441+02091101051ADDAA124001091AG10999AY101061GF107991061051008001001011KA1240N+02051MA1999999096111MD1999999-0071MW1021REMSYN023333   20205 59007 60014
0129832360999991985030500004-12150-045000FM-12+0440SBRR V0200901N00671045001CN9999999N9+02631+02051100771ADDAA106000091AG10999AY101061GF106991041081008001011001KA1240M+03151MA1999999095861MD1999999-0081MW1021REMSYN017333   10315 59008
0135832360999991985030512004-12150-045000FM-12+0440SBRR V0200501N00261220001CN0200001N9+02621+02141100941ADDAA124000391AG10999AY151061GF104991011011008001041041KA1240N+02071MA1999999096031MD1999999-0081MW1021REMSYN023333   20207 59008 69934
0083832360999991985030515004-12150-045000FM-12+0440SBRR V0200901N00511007501CN0150001N9+02841+02441999999ADDAG10999AY101031GF106991061011008001001001MD1210101+9999MW1021EQDQ01+101343APOSP 
0110832360999991985030518004-12150-045000FM-12+0440SBRR V0200501N00361045001CN0200001N9+03101+02311100421ADDAA106000091AG10999AY101061GF105991031041008001021021MA1999999095541MD1999999-0151MW1021REMSYN011333   59015
0129832360999991985030600004-12150-045000FM-12+0440SBRR V0202301N00051007501CN9999999N9+02331+02221100711ADDAA106000091AG10999AY101061GF108991061021008001061999KA1240M+03141MA1999999095791MD1999999-0071MW1021REMSYN017333   10314 59007
0146832360999991985030612004-12150-045000FM-12+0440SBRR V0200501N00311220001CN0200001N9+02621+02141100961ADDAA124000291AA299000391AG10999AY151061GF105991041021008001001011KA1240N+02161MA1999999096031MD1410001+0001MW1021REMSYN023333   20216 58000 69924
0110832360999991985030618004-12150-045000FM-12+0440SBRR V0203601N00311220001CN0200001N9+03191+02101100451ADDAA106000091AG10999AY101061GF105991041021008001001041MA1999999095571MD1999999+0031MW1021REMSYN011333   58003
0110832360999991985030619004-12150-045000FM-12+0440SBRR V0203601N00311220001CN0200001N9+03191+02101100451ADDAA106000091AG10999AY101011GF105991041021008001001041MA1999999095571MD1999999+0031MW1021REMSYN011333   58003
0129832360999991985030700004-12150-045000FM-12+0440SBRR V0200901N00101021001CN9999999N9+02441+02301100641ADDAA106000091AG10999AY101061GF107991071001022501071001KA1240M+03241MA1999999095741MD1999999-0051MW1021REMSYN017333   10324 59005
0129832360999991985030712004-12150-045000FM-12+0440SBRR V0200501N00261220001CN0200001N9+02671+02181100961ADDAA106000091AG10999AY101061GF104991031021008001001021KA1240N+02051MA1999999096041MD1999999+0011MW1021REMSYN017333   20205 58001
0110832360999991985030718004-12150-045000FM-12+0440SBRR V0200501N00211220001CN0200001N9+03171+02141100561ADDAA106000091AG10999AY101061GF105991031011008001001041MA1999999095671MD1999999+0101MW1021REMSYN011333   58010
0129832360999991985030800004-12150-045000FM-12+0440SBRR V0200501N00101021001CN9999999N9+02451+02131100671ADDAA106000091AG10999AY101061GF107991061001022501071021KA1240M+03191MA1999999095761MD1999999+0021MW1021REMSYN017333   10319 58002
0129832360999991985030812004-12150-045000FM-12+0440SBRR V0200901N00361045001CN0200001N9+02481+02151100991ADDAA106000091AG10999AY101061GF106991011011008001081081KA1240N+01931MA1999999096061MD1999999+0021MW1021REMSYN017333   20193 58002
0110832360999991985030818004-12150-045000FM-12+0440SBRR V0200501N00411220001CN0200001N9+03331+01821100471ADDAA106000091AG10999AY101061GF104991031021008001001041MA1999999095691MD1999999-0081MW1021REMSYN011333   59008
0129832360999991985030900004-12150-045000FM-12+0440SBRR V0201401N00261220001CN9999999N9+02541+02091100571ADDAA106000091AG10999AY101061GF104991001001999999001051KA1240M+03351MA1999999095661MD1999999-0101MW1021REMSYN017333   10335 59010
0129832360999991985030912004-12150-045000FM-12+0440SBRR V0202301N00101220001CN0200001N9+02561+02151100911ADDAA106000091AG10999AY101061GF104991031021008001001021KA1240N+01901MA1999999095991MD1999999-0071MW1021REMSYN017333   20190 59007
0110832360999991985030918004-12150-045000FM-12+0440SBRR V0203601N00261220001CN0500001N9+03281+02261100421ADDAA106000091AG10999AY101061GF102991011021008001001011MA1999999095541MD1999999-0051MW1021REMSYN011333   59005
0129832360999991985031000004-12150-045000FM-12+0440SBRR V0201801N00101045001CN9999999N9+02411+02231100651ADDAA106000091AG10999AY121061GF105991031051008001071021KA1240M+03311MA1999999095741MD1999999+0081MW1131REMSYN017333   10331 58008
0129832360999991985031012004-12150-045000FM-12+0440SBRR V0201801N00101220001CN0500001N9+02571+02251100901ADDAA106000091AG10999AY101061GF104991021021012501001031KA1240N+01981MA1999999096071MD1999999+0081MW1021REMSYN017333   20198 58008
0110832360999991985031018004-12150-045000FM-12+0440SBRR V0200501N00571007501CN0200001N9+02951+02331100491ADDAA106000091AG10999AY101061GF107991061041008001061021MA1999999095681MD1999999+0321MW1021REMSYN011333   58032
0129832360999991985031100004-12150-045000FM-12+0440SBRR V0203201N00101105001CN9999999N9+02341+02131100781ADDAA106000091AG10999AY121061GF105991041051008001001021KA1240M+03141MA1999999095861MD1999999+0121MW1131REMSYN017333   10314 58012
0129832360999991985031112004-12150-045000FM-12+0440SBRR V0203201N00101220001CN0500001N9+02601+02231101001ADDAA106000091AG10999AY101061GF103991021021008001031011KA1240N+02041MA1999999096071MD1410001+0001MW1021REMSYN017333   20204 58000
0110832360999991985031118004-12150-045000FM-12+0440SBRR V0200501N00311007501CN0200001N9+03311+02151100471ADDAA106000091AG10999AY101061GF106991051041008001051021MA1999999095591MD1999999-0091MW1021REMSYN011333   59009
0129832360999991985031200004-12150-045000FM-12+0440SBRR V0202301N00101220001CN9999999N9+02821+02231100811ADDAA106000091AG10999AY121061GF103991031051008001021001KA1240M+03341MA1999999095901MD1999999+0041MW1131REMSYN017333   10334 58004
0129832360999991985031212004-12150-045000FM-12+0440SBRR V0202701N00101045001CN0200001N9+02701+02081100961ADDAA106000091AG10999AY101061GF106991041081008001041041KA1240N+02091MA1999999096051MD1999999-0021MW1021REMSYN017333   20209 59002
0110832360999991985031218004-12150-045000FM-12+0440SBRR V0200501N00361045001CN0100001N9+02741+02141100511ADDAA106000091AG10999AY101061GF108991021011008001021001MA1999999095601MD1999999+0011MW1021REMSYN011333   58001
0129832360999991985031300004-12150-045000FM-12+0440SBRR V0202701N00101015001CN9999999N9+02361+02171100781ADDAA106000091AG10999AY101061GF105991051001017501021001KA1240M+03011MA1999999095871MD1999999-0031MW1021REMSYN017333   10301 59003
0129832360999991985031312004-12150-045000FM-12+0440SBRR V0209991C00001007501CN0200001N9+02351+02071101031ADDAA106000091AG10999AY101061GF106991051071008001051041KA1240N+01921MA1999999096091MD1999999+0041MW1021REMSYN017333   20192 58004
0127832360999991985031318004-12150-045000FM-12+0440SBRR V0200501N00671007501CN0100001N9+02511+02111100761ADDAA106000291AA299000391AG10999AY151061GF107991051061008001041021MA1999999095821MD1999999+0221MW1151REMSYN017333   58022 69921
0135832360999991985031400004-12150-045000FM-12+0440SBRR V0200901N00101007501CN9999999N9+02191+02101100991ADDAA106002091AG10999AY161061GF108991061071008001999999KA1240M+03221MA1999999096041MD1999999+0171MW1031REMSYN023333   10322 58017 60021
0135832360999991985031412004-12150-045000FM-12+0440SBRR V0202701N00151045001CN0200001N9+02491+02131101171ADDAA124002091AG10999AY101061GF106991031011008001061041KA1240N+02011MA1999999096221MD1999999+0131MW1021REMSYN023333   20201 58013 60024
0129832360999991985031500004-12150-045000FM-12+0440SBRR V0200901N00051220001CN9999999N9+02361+02171100821ADDAA106000091AG10999AY101061GF102991001001999999001081KA1240M+03211MA1999999095891MD1999999-0151MW1021REMSYN017333   10321 59015
0129832360999991985031512004-12150-045000FM-12+0440SBRR V0201401N00101045001CN0200001N9+02501+02111101111ADDAA106000091AG10999AY101061GF105991031021008001051021KA1240N+01921MA1999999096171MD1999999-0051MW1021REMSYN017333   20192 59005
0110832360999991985031518004-12150-045000FM-12+0440SBRR V0200501N00261220001CN0500001N9+03151+02211100631ADDAA106000091AG10999AY101061GF103991021021008001001011MA1999999095731MD1999999+0031MW1021REMSYN011333   58003
0129832360999991985031600004-12150-045000FM-12+0440SBRR V0200901N00361007501CN9999999N9+02711+02131100841ADDAA106000091AG10999AY121061GF106991061051008001061001KA1240M+03201MA1999999095931MD1999999+0041MW1131REMSYN017333   10320 58004
0129832360999991985031612004-12150-045000FM-12+0440SBRR V0201401N00101045001CN0200001N9+02681+02181101211ADDAA106000091AG10999AY101061GF106991031021008001081041KA1240N+02281MA1999999096301MD1999999+0131MW1021REMSYN017333   20228 58013
0110832360999991985031618004-12150-045000FM-12+0440SBRR V0200501N00411045001CN0100001N9+02121+01991100781ADDAA106000091AG10999AY101061GF107991031021008001021041MA1999999095891MD1999999+0161MW1021REMSYN011333   58016
0129832360999991985031700004-12150-045000FM-12+0440SBRR V0201401N00101220001CN9999999N9+02411+02241101021ADDAA106000091AG10999AY121061GF103991031051008001001001KA1240M+03191MA1999999096101MD1999999+0171MW1131REMSYN017333   10319 58017
0135832360999991985031712004-12150-045000FM-12+0440SBRR V0209991C00001007501CN0100001N9+02351+02181101241ADDAA124002091AG10999AY161061GF108991061071008001041999KA1240N+02181MA1999999096291MD1999999-0011MW1101REMSYN023333   20218 59001 60024
0110832360999991985031718004-12150-045000FM-12+0440SBRR V0200501N00151007501CN0100001N9+03031+02241100631ADDAA106000091AG10999AY101061GF107991071041008001061021MA1999999095741MD1999999-0151MW1021REMSYN011333   59015
0129832360999991985031800004-12150-045000FM-12+0440SBRR V0209991C00001220001CN9999999N9+02461+02301100891ADDAA106000091AG10999AY121061GF103991031051008001001001KA1240M+03091MA1999999095961MD1999999-0141MW1131REMSYN017333   10309 59014
0135832360999991985031812004-12150-045000FM-12+0440SBRR V0200501N00411007501CN0040001N9+02061+02011101281ADDAA124012091AG10999AY191061GF108991081071008001999999KA1240N+02031MA1999999096321MD1999999+0031MW1971REMSYN023333   20203 58003 60124
0116832360999991985031818004-12150-045000FM-12+0440SBRR V0200901N00101045001CN0100001N9+02531+02131100911ADDAA106010091AG10999AY191061GF107991031011008001021001MA1999999095981MD1999999+0241MW1021REMSYN017333   58024 60101
0129832360999991985031900004-12150-045000FM-12+0440SBRR V0209991C00001021001CN9999999N9+02301+02161101101ADDAA106000091AG10999AY101061GF108991081001022501021001KA1240M+02591MA1999999096141MD1999999+0181MW1021REMSYN017333   10259 58018
0135832360999991985031912004-12150-045000FM-12+0440SBRR V0209991C00001007501CN0100001N9+02241+02101101141ADDAA124010091AG10999AY101061GF108991061071008001041999KA1240N+02051MA1999999096181MD1999999-0141MW1021REMSYN023333   20205 59014 60104
0110832360999991985031918004-12150-045000FM-12+0440SBRR V0200901N00101220001CN0200001N9+02991+02171100591ADDAA106000091AG10999AY101061GF104991021021008001031011MA1999999095691MD1999999-0291MW1021REMSYN011333   59029
0151832360999991985032000004-12150-045000FM-12+0440SBRR V0200501N002619999999N9999999N9+02161+02111101161ADDAA106067091AG10001AY161061GA1091+999999999GF109991091999004501999999KA1240M+03061MA1999999096201MD1999999+0081MW1631REMSYN023333   10306 58008 60671
0135832360999991985032012004-12150-045000FM-12+0440SBRR V0209991C00001045001CN0100001N9+02301+02131101171ADDAA124084091AG10999AY161061GF107991031041008001061001KA1240N+02021MA1999999096211MD1999999+0031MW1021REMSYN023333   20202 58003 60844
0110832360999991985032018004-12150-045000FM-12+0440SBRR V0200501N00361045001CN0200001N9+02861+02161100701ADDAA106000091AG10999AY101061GF106991041021008001071011MA1999999095781MD1999999+0091MW1021REMSYN011333   58009
0135832360999991985032100004-12150-045000FM-12+0440SBRR V0202301N00101021001CN9999999N9+02221+02171101051ADDAA106030091AG10999AY161061GF108991081001022501021999KA1240M+02921MA1999999096101MD1999999-0101MW1511REMSYN023333   10292 59010 60301
0135832360999991985032112004-12150-045000FM-12+0440SBRR V0201801N00151220001CN0200001N9+02461+02151101111ADDAA124031091AG10999AY101061GF103991031021008001061001KA1240N+02081MA1999999096161MD1999999-0051MW1021REMSYN023333   20208 59005 60314
0110832360999991985032118004-12150-045000FM-12+0440SBRR V0200501N00411220001CN0200001N9+03021+02261100671ADDAA106000091AG10999AY101061GF104991041041008001051001MA1999999095771MD1999999-0011MW1021REMSYN011333   59001
0129832360999991985032200004-12150-045000FM-12+0440SBRR V0201801N00101220001CN9999999N9+02361+02261100851ADDAA106000091AG10999AY101061GF102991021021008001001001KA1240M+03061MA1999999095921MD1999999-0181MW1021REMSYN017333   10306 59018
0129832360999991985032212004-12150-045000FM-12+0440SBRR V0202701N00101220001CN0500001N9+02521+02091101141ADDAA106000091AG10999AY101061GF103991021011008001001081KA1240N+02051MA1999999096201MD1999999+0041MW1021REMSYN017333   20205 58004
0116832360999991985032218004-12150-045000FM-12+0440SBRR V0200901N00461004201CN0200001N9+02801+02181100921ADDAA106098091AG10999AY161061GF107991071071004501001001MA1999999095921MD1999999+0221MW1951REMSYN017333   58022 60981
0170832360999991985032300004-12150-045000FM-12+0440SBRR V0209991C00001220001CN9999999N9+02301+02221101121ADDAA106000191AG10999AY151061GF104991021071008001021001KA1240M+03051MA1999999999999MD1999999+0261MW1131REMSYN023333   10305 58026 69911EQDQ01+099613APOSP Q02 099613APOSP 
0135832360999991985032312004-12150-045000FM-12+0440SBRR V0201801N00151045001CN0100001N9+02461+02111101371ADDAA124001091AG10999AY101061GF108991031051008001071999KA1240N+02041MA1999999096421MD1999999+0221MW1021REMSYN023333   20204 58022 60014
0110832360999991985032318004-12150-045000FM-12+0440SBRR V0200501N00151007501CN0100001N9+02911+02301101061ADDAA106000091AG10999AY121061GF107991061051008001041011MA1999999096081MD1999999+0091MW1151REMSYN011333   58009
0129832360999991985032400004-12150-045000FM-12+0440SBRR V0202301N00101220001CN9999999N9+02381+02241101221ADDAA106000091AG10999AY101061GF102991021021008001001001KA1240M+02951MA1999999096271MD1999999+0091MW1021REMSYN017333   10295 58009
0129832360999991985032412004-12150-045000FM-12+0440SBRR V0201801N00101045001CN0200001N9+02461+02071101381ADDAA106000091AG10999AY101061GF105991041021008001071021KA1240N+01951MA1999999096431MD1999999+0011MW1021REMSYN017333   20195 58001
0110832360999991985032418004-12150-045000FM-12+0440SBRR V0200501N00151220001CN0200001N9+03031+02181100901ADDAA106000091AG10999AY101061GF104991031021008001041011MA1999999095981MD1999999-0101MW1021REMSYN011333   59010
0129832360999991985032500004-12150-045000FM-12+0440SBRR V0202301N00101007501CN9999999N9+02531+02451101061ADDAA106000091AG10999AY101061GF105991051041008001021001KA1240M+03111MA1999999096131MD1999999-0141MW1021REMSYN017333   10311 59014
0129832360999991985032512004-12150-045000FM-12+0440SBRR V0202301N00051007501CN0100001N9+02401+02171101301ADDAA106000091AG10999AY101061GF106991051071008001021011KA1240N+01971MA1999999096351MD1999999-0081MW1021REMSYN017333   20197 59008
0110832360999991985032518004-12150-045000FM-12+0440SBRR V0200501N00311007501CN0100001N9+02871+02331100901ADDAA106000091AG10999AY101061GF106991051041008001031021MA1999999095981MD1410001+0001MW1021REMSYN011333   58000
0129832360999991985032600004-12150-045000FM-12+0440SBRR V0201801N00101220001CN9999999N9+02301+02181101011ADDAA106000091AG10999AY121061GF102991021051008001001001KA1240M+02931MA1999999096071MD1999999-0061MW1131REMSYN017333   10293 59006
0129832360999991985032612004-12150-045000FM-12+0440SBRR V0202301N00101220001CN0500001N9+02601+02141101221ADDAA106000091AG10999AY101061GF102991011011008001041001KA1240N+02071MA1999999096281MD1999999-0071MW1021REMSYN017333   20207 59007
0110832360999991985032618004-12150-045000FM-12+0440SBRR V0200901N00211220001CN0500001N9+03211+02061100711ADDAA106000091AG10999AY101061GF105991031011008001001081MA1999999096011MD1999999+0031MW1021REMSYN011333   58003
0129832360999991985032700004-12150-045000FM-12+0440SBRR V0201801N00101012001CN9999999N9+02501+02341101021ADDAA106000091AG10999AY101061GF105991051081008001001001KA1240M+03231MA1999999096081MD1999999+0011MW1021REMSYN017333   10323 58001
0129832360999991985032712004-12150-045000FM-12+0440SBRR V0201801N00101105001CN0500001N9+02581+02171101261ADDAA106000091AG10999AY101061GF105991021021008001001031KA1240N+01961MA1999999096331MD1999999+0051MW1021REMSYN017333   20196 58005
0110832360999991985032718004-12150-045000FM-12+0440SBRR V0200501N00211220001CN0500001N9+03231+02011100851ADDAA106000091AG10999AY101061GF103991021021008001001021MA1999999095951MD1999999-0061MW1021REMSYN011333   59006
0129832360999991985032800004-12150-045000FM-12+0440SBRR V0201301N00101220001CN9999999N9+02371+02191100991ADDAA106000091AG10999AY121061GF102991021051008001001001KA1240M+03251MA1999999096061MD1999999-0021MW1131REMSYN017333   10325 59002
0129832360999991985032812004-12150-045000FM-12+0440SBRR V0202301N00051220001CN0500001N9+02551+02171100951ADDAA106000091AG10999AY101061GF103991011011008001041011KA1240N+02031MA1999999096311MD1999999-0021MW1021REMSYN017333   20203 59002
0116832360999991985032818004-12150-045000FM-12+0440SBRR V0200901N00671045001CN0200001N9+02571+02191100901ADDAA106000591AG10999AY191061GF106991031091008001081041MA1999999095961MD1999999+0011MW1021REMSYN017333   58001 69951
0129832360999991985032900004-12150-045000FM-12+0440SBRR V0201401N00101220001CN9999999N9+02261+02181101001ADDAA106000091AG10999AY101061GF103991031001022501011001KA1240M+03221MA1999999096061MD1410001+0001MW1021REMSYN017333   10322 58000
0135832360999991985032912004-12150-045000FM-12+0440SBRR V0200501N00361007501CN0040001N9+02181+02101101301ADDAA124000591AG10999AY101061GF108991061071008001041999KA1240N+02041MA1999999096331MD1999999+0021MW1021REMSYN023333   20204 58002 69954
0127832360999991985032918004-12150-045000FM-12+0440SBRR V0201401N00261007501CN0040001N9+02491+02271100901ADDAA106000291AA299000391AG10999AY121061GF108991071061008001021999MA1999999095911MD1999999-0011MW1501REMSYN017333   59001 69921
0146832360999991985033000004-12150-045000FM-12+0440SBRR V0202701N00261220001CN9999999N9+02231+02171101131ADDAA106000291AA299000391AG10999AY191061GF104991031021008001061021KA1240M+02821MA1999999096161MD1999999+0101MW1021REMSYN023333   10282 58010 69921
0146832360999991985033012004-12150-045000FM-12+0440SBRR V0202701N00051007501CN0100001N9+02311+02251101211ADDAA124000491AA299000591AG10999AY141061GF107991051051008001041011KA1240N+02021MA1999999096251MD1999999-0081MW1421REMSYN023333   20202 59008 69944
0110832360999991985033018004-12150-045000FM-12+0440SBRR V0203601N00151220001CN0200001N9+03111+01971100591ADDAA106000091AG10999AY101061GF105991021011008001001041MA1999999095701MD1999999-0251MW1021REMSYN011333   59025
0129832360999991985033100004-12150-045000FM-12+0440SBRR V0200901N00411220001CN9999999N9+02571+02291100771ADDAA106000091AG10999AY101061GF104991021031008001061001KA1240M+03151MA1999999095851MD1999999-0311MW1131REMSYN017333   10315 59031
0146832360999991985033112004-12150-045000FM-12+0440SBRR V0200501N00261007501CN0100001N9+02381+02151101181ADDAA124000291AA299000391AG10999AY191061GF107991061071008001041021KA1240N+02021MA1999999096241MD1999999-0011MW1031REMSYN023333   20202 59001 69924
0110832360999991985033118004-12150-045000FM-12+0440SBRR V0200501N00261220001CN0200001N9+03051+02311100751ADDAA106000091AG10999AY101061GF104991031021008001001021MA1999999095841MD1999999+0141MW1021REMSYN011333   58014
0129832360999991985040100004-12150-045000FM-12+0440SBRR V0209991C00001007501CN9999999N9+02331+02071101131ADDAA106000091AG10999AY121061GF106991051051008001061011KA1240M+03071MA1999999096181MD1999999+0331MW1131REMSYN017333   10307 58033
0129832360999991985040112004-12150-045000FM-12+0440SBRR V0203201N00151021001CN0100001N9+02541+02091101271ADDAA106000091AG10999AY101061GF107991071001022501071001KA1240N+02071MA1999999096331MD1999999+0091MW1021REMSYN017333   20207 58009
0110832360999991985040118004-12150-045000FM-12+0440SBRR V0200501N00211045001CN0100001N9+02811+02111100841ADDAA106000091AG10999AY101061GF107991031031008001021001MA1999999095921MD1999999+0111MW1021REMSYN011333   58011
0129832360999991985040200004-12150-045000FM-12+0440SBRR V0202301N00051045001CN9999999N9+02341+02271101051ADDAA106000091AG10999AY101061GF105991021021008001061001KA1240M+02921MA1999999096121MD1999999-0061MW1021REMSYN017333   10292 59006
0135832360999991985040212004-12150-045000FM-12+0440SBRR V0200901N00151045001CN0200001N9+02681+02221101291ADDAA124000391AG10999AY191061GF105991041021008001041011KA1240N+02161MA1999999096351MD1999999+0021MW1021REMSYN023333   20216 58002 69934
0127832360999991985040218004-12150-045000FM-12+0440SBRR V0203601N00151007501CN0200001N9+02841+02331100781ADDAA106000691AA299000591AG10999AY161061GF107991061051008001061021MA1999999095871MD1999999-0051MW1151REMSYN017333   59005 69961
0129832360999991985040300004-12150-045000FM-12+0440SBRR V0201801N00571007501CN9999999N9+02371+02291101171ADDAA106000091AG10999AY121061GF108991071051008001071999KA1240M+03001MA1999999096241MD1999999+0121MW1131REMSYN017333   10300 58012
0076832360999991985040301004-12150-045000FM-12+0440SBRR V0201801N00571007501CN9999999N9+02371+02291101171ADDAA106000091AG10999AY121011GF108991071051008001071999MA1999999096241MW1131
0146832360999991985040312004-12150-045000FM-12+0440SBRR V0202301N00101105001CN0200001N9+02541+02041101361ADDAA124000691AA299000591AG10999AY101061GF106991021011008001001071KA1240N+02091MA1999999096411MD1999999+0061MW1021REMSYN023333   20209 58006 69964
0110832360999991985040318004-12150-045000FM-12+0440SBRR V0203601N00461105001CN0200001N9+03021+01921100951ADDAA106000091AG10999AY101061GF106991031021008001001071MA1999999096051MD1999999+0201MW1021REMSYN011333   58020
0129832360999991985040400004-12150-045000FM-12+0440SBRR V0209991C00001021001CN9999999N9+02301+02161101221ADDAA106000091AG10999AY101061GF107991071021022501001001KA1240M+03051MA1999999096271MD1999999+0031MW1021REMSYN017333   10305 58003
0129832360999991985040412004-12150-045000FM-12+0440SBRR V0200501N00101105001CN0200001N9+02481+02151101361ADDAA106000091AG10999AY101061GF105991031021008001001071KA1240N+01901MA1999999096411MD1410001+0001MW1021REMSYN017333   20190 58000
0110832360999991985040418004-12150-045000FM-12+0440SBRR V0200501N00311007501CN0200001N9+02981+01921100861ADDAA106000091AG10999AY101061GF108991071021008001071999MA1999999095941MD1999999-0111MW1021REMSYN011333   59011
0129832360999991985040500004-12150-045000FM-12+0440SBRR V0201801N00101007501CN9999999N9+02181+02061101181ADDAA106000091AG10999AY101061GF108991061021008001061999KA1240M+03051MA1999999096231MD1999999-0041MW1021REMSYN017333   10305 59004
0129832360999991985040512004-12150-045000FM-12+0440SBRR V0202701N00101045001CN0100001N9+02321+02091101161ADDAA106000091AG10999AY101061GF108991011011008001021999KA1240N+01881MA1999999096201MD1999999-0211MW1021REMSYN017333   20188 59021
0110832360999991985040518004-12150-045000FM-12+0440SBRR V0203601N00151220001CN0200001N9+03111+01871100631ADDAA106000091AG10999AY101061GF105991031031008001001041MA1999999095731MD1999999-0211MW1021REMSYN011333   59021
0129832360999991985040600004-12150-045000FM-12+0440SBRR V0202701N00051045001CN9999999N9+02241+02121100931ADDAA106000091AG10999AY101061GF106991021041008001051001KA1240M+03211MA1999999095991MD1999999-0241MW1021REMSYN017333   10321 59024
0129832360999991985040612004-12150-045000FM-12+0440SBRR V0202701N00101220001CN0500001N9+02441+02171101071ADDAA106000091AG10999AY101061GF104991031021008001041011KA1240N+01911MA1999999096131MD1999999-0071MW1021REMSYN017333   20191 59007
0110832360999991985040618004-12150-045000FM-12+0440SBRR V0203601N00101220001CN0500001N9+03111+02201101141ADDAA106000091AG10999AY101061GF102991021021008001001001MA1999999095741MD1999999+0011MW1021REMSYN011333   58001
0129832360999991985040712004-12150-045000FM-12+0440SBRR V0202301N00101220001CN0500001N9+02421+01971101281ADDAA106000091AG10999AY101061GF102991021021012501001001KA1240N+01831MA1999999096331MD1999999+0201MW1021REMSYN017333   20183 58020
0110832360999991985040718004-12150-045000FM-12+0440SBRR V0200901N00311220001CN0500001N9+03101+02201100801ADDAA106000091AG10999AY101061GF103991031031008001041001MA1999999095881MD1999999+0141MW1021REMSYN011333   58014
0129832360999991985040812004-12150-045000FM-12+0440SBRR V0202701N00101220001CN0200001N9+02521+02021101281ADDAA106000091AG10999AY101061GF104991011011008001041081KA1240N+01901MA1999999096331MD1410001+0001MW1021REMSYN017333   20190 58000
0110832360999991985040818004-12150-045000FM-12+0440SBRR V0201401N00261105001CN0200001N9+03041+01971100771ADDAA106000091AG10999AY101061GF105991031021008001001051MA1999999095851MD1999999-0031MW1021REMSYN011333   59003
0135832360999991985040900004-12150-045000FM-12+0440SBRR V0202701N00101045001CN9999999N9+02251+02171101161ADDAA106003091AG10999AY191061GF107991041071008001021001KA1240M+03151MA1999999096221MD1999999-0011MW1131REMSYN023333   10315 59001 60031
0135832360999991985040912004-12150-045000FM-12+0440SBRR V0203201N00101007501CN0100001N9+02341+02071101181ADDAA124004091AG10999AY161061GF107991071051008001001001KA1240N+02031MA1999999096231MD1999999-0101MW1021REMSYN023333   20203 59010 60044
0135832360999991985041000004-12150-045000FM-12+0440SBRR V0202301N00101220001CN9999999N9+02271+02181100901ADDAA106004091AG10999AY191061GF103991031031008001001001KA1240M+03051MA1999999095961MD1999999-0261MW1131REMSYN023333   10305 59026 60041
0135832360999991985041012004-12150-045000FM-12+0440SBRR V0202301N00101007501CN0100001N9+02311+02161101141ADDAA124023091AG10999AY161061GF108991071071008001041999KA1240N+01991MA1999999096191MD1999999-0041MW1021REMSYN023333   20199 59004 60234
0116832360999991985041018004-12150-045000FM-12+0440SBRR V0201801N00101007501CN0100001N9+02551+02351100751ADDAA106000191AG10999AY151061GF108991061051008001021999MA1999999095821MD1999999+0091MW1171REMSYN017333   58009 69911
0135832360999991985041100004-12150-045000FM-12+0440SBRR V0202301N00051007501CN9999999N9+02121+02071101061ADDAA106041091AG10999AY161061GF106991061051008001041001KA1240M+02741MA1999999096101MD1999999+0141MW1131REMSYN023333   10274 58014 60411
0135832360999991985041112004-12150-045000FM-12+0440SBRR V0201801N00051220001CN0200001N9+02421+02191101341ADDAA124041091AG10999AY101061GF106991041021008001001061KA1240N+01991MA1999999096371MD1999999+0181MW1021REMSYN023333   20199 58018 60414
0116832360999991985041118004-12150-045000FM-12+0440SBRR V0201401N00101105001CN0200001N9+02621+02251100891ADDAA106000591AG10999AY161061GF105991031021008001001021MA1999999095951MD1999999+0131MW1021REMSYN017333   58013 69951
0135832360999991985041200004-12150-045000FM-12+0440SBRR V0200501N00211007501CN0040001N9+02331+02271101521ADDAA124003091AG10999AY161061GF108991061061008001021999KA1240N+02141MA1999999096561MD1999999+0191MW1161REMSYN023333   20214 58019 60034
0135832360999991985041212004-12150-045000FM-12+0440SBRR V0200501N00211007501CN0040001N9+02331+02271101521ADDAA124003091AG10999AY161061GF108991061061008001021999KA1240N+02141MA1999999096561MD1999999+0191MW1161REMSYN023333   20214 58019 60034
0116832360999991985041218004-12150-045000FM-12+0440SBRR V0200501N00151045001CN0200001N9+02841+02241101031ADDAA106005091AG10999AY161061GF105991031021008001041021MA1999999096101MD1999999+0151MW1021REMSYN017333   58015 60051
0129832360999991985041300004-12150-045000FM-12+0440SBRR V0201801N00101220001CN9999999N9+02301+02221101351ADDAA106000091AG10999AY121061GF103991031051008001001001KA1240M+02941MA1999999096391MD1999999+0221MW1131REMSYN017333   10294 58022
0135832360999991985041312004-12150-045000FM-12+0440SBRR V0200901N00151007501CN0100001N9+02441+02191101501ADDAA124005091AG10999AY161061GF107991071051008001001001KA1240N+02021MA1999999096541MD1999999-0021MW1021REMSYN023333   20202 59002 60054
0116832360999991985041318004-12150-045000FM-12+0440SBRR V0202701N00211220001CN0200001N9+02901+02301100891ADDAA106003091AG10999AY161061GF104991041031008001001001MA1999999095971MD1999999-0131MW1021REMSYN017333   59013 60031
0129832360999991985041400004-12150-045000FM-12+0440SBRR V0200901N00571220001CN9999999N9+02461+02171101251ADDAA106000091AG10999AY101061GF103991031031008001001001KA1240M+03071MA1999999096311MD1999999-0081MW1131REMSYN017333   10307 59008
0135832360999991985041412004-12150-045000FM-12+0440SBRR V0200501N00151045001CN0200001N9+02491+02191101371ADDAA124003091AG10999AY101061GF106991041041008001051021KA1240N+02001MA1999999096431MD1999999-0111MW1021REMSYN023333   20200 59011 60034
0110832360999991985041418004-12150-045000FM-12+0440SBRR V0200501N00151045001CN0200001N9+02871+02211100831ADDAA106000091AG10999AY121061GF106991041051008001031011MA1999999095921MD1999999-0051MW1141REMSYN011333   59005
0129832360999991985041500004-12150-045000FM-12+0440SBRR V0201801N00101220001CN9999999N9+02291+02091101081ADDAA106000091AG10999AY101061GF102991021021008001001001KA1240M+02931MA1999999096141MD1999999-0171MW1021REMSYN017333   10293 59017
0129832360999991985041512004-12150-045000FM-12+0440SBRR V0200901N00101012001CN0200001N9+02531+99999101281ADDAA106000091AG10999AY101061GF106991061081008001001001KA1240N+02531MA1999999096331MD1999999-0101MW1021REMSYN017333   20253 59010
0110832360999991985041518004-12150-045000FM-12+0440SBRR V0201401N00311105001CN0200001N9+02721+02081100871ADDAA106000091AG10999AY101061GF105991041091008001001031MA1999999095941MD1999999+0021MW1021REMSYN011333   58002
0129832360999991985041600004-12150-045000FM-12+0440SBRR V0201801N00101220001CN9999999N9+02221+02141101011ADDAA106000091AG10999AY101061GF100991001001999999001001KA1240M+03031MA1999999096071MD1999999-0071MW1021REMSYN017333   10303 59007
0129832360999991985041612004-12150-045000FM-12+0440SBRR V0202301N00101220001CN0500001N9+02461+02131101301ADDAA106000091AG10999AY101061GF103991021021008001001021KA1240N+01941MA1999999096351MD1999999+0021MW1021REMSYN017333   20194 58002
0110832360999991985041618004-12150-045000FM-12+0440SBRR V0200501N00211220001CN0500001N9+02991+01951100861ADDAA106000091AG10999AY101061GF102991021021008001001031MA1999999095941MD1410001+0001MW1021REMSYN011333   58000
0129832360999991985041700004-12150-045000FM-12+0440SBRR V0201401N00101220001CN9999999N9+02241+02101101101ADDAA106000091AG10999AY101061GF100991001001999999001001KA1240M+03031MA1999999096151MD1999999+0081MW1021REMSYN017333   10303 58008
0129832360999991985041712004-12150-045000FM-12+0440SBRR V0201801N00051220001CN0500001N9+02391+02011101361ADDAA106000091AG10999AY101061GF104991021011008001061001KA1240N+01821MA1999999096401MD1999999+0051MW1021REMSYN017333   20182 58005
0110832360999991985041718004-12150-045000FM-12+0440SBRR V0203601N00101220001CN0500001N9+03101+02031100931ADDAA106000091AG10999AY101061GF104991021021008001001071MA1999999096011MD1999999+0071MW1021REMSYN011333   58007
0135832360999991985041800004-12150-045000FM-12+0440SBRR V0202701N00101220001CN9999999N9+02191+02111101171ADDAA106009091AG10999AY191061GF102991021011008001001001KA1240M+03171MA1999999096211MD1999999+0061MW1021REMSYN023333   10317 58006 60091
0135832360999991985041812004-12150-045000FM-12+0440SBRR V0202301N00101220001CN0200001N9+02441+02171101351ADDAA124009091AG10999AY101061GF104991021021008001001021KA1240N+01951MA1999999096391MD1999999-0011MW1021REMSYN023333   20195 59001 60094
0135832360999991985041912004-12150-045000FM-12+0440SBRR V0203601N00151220001CN0500001N9+02481+02441101211ADDAA124001091AG10999AY101061GF102991011011008001041001KA1240N+01921MA1999999096261MD1999999-0131MW1021REMSYN023333   20192 59013 60014
0110832360999991985041918004-12150-045000FM-12+0440SBRR V0203601N00101105001CN0500001N9+03161+01891100701ADDAA106000091AG10999AY101061GF105991021021012501041021MA1999999095801MD1999999-0081MW1021REMSYN011333   59008
0140832360999991985042000004-12150-045000FM-12+0440SBRR V0209991C00001220001CN9999999N9+02371+02241100941ADDAA106000091AG10999GF102991011031008001021011KA1240M+02351MA1999999096011MD1999999-0141MW1131REMSYN017333   10235 59014EQDQ01+000072PSTWM1
0129832360999991985042012004-12150-045000FM-12+0440SBRR V0202701N00151220001CN0500001N9+02501+02171101061ADDAA106000091AG10999AY101061GF103991021021008001001021KA1240N+01921MA1999999096131MD1999999-0131MW1021REMSYN017333   20192 59013
0110832360999991985042018004-12150-045000FM-12+0440SBRR V0200901N00211105001CN0200001N9+03041+02031100711ADDAA106000091AG10999AY101061GF105991041041008001001021MA1999999095801MD1410001+0001MW1021REMSYN011333   58000
0129832360999991985042100004-12150-045000FM-12+0440SBRR V0201801N00151220001CN9999999N9+02331+02141100951ADDAA106000091AG10999AY121061GF103991031051008001021001KA1240M+03221MA1999999096021MD1999999+0011MW1131REMSYN017333   10322 58001
0129832360999991985042112004-12150-045000FM-12+0440SBRR V0201801N00411220001CN0500001N9+02421+01841101081ADDAA106000091AG10999AY101061GF102991011011008001001011KA1240M+02981MA1999999096141MD1999999+0011MW1021REMSYN017333   10298 58001
0129832360999991985042118004-12150-045000FM-12+0440SBRR V0202701N00101220001CN0500001N9+03101+01941100651ADDAA106000091AG10999AY101061GF104991999011008001001001MA1999999095751MD1999999-0051MW1021REMSYN011333   59005EQDQ01+000032SCOTLC
0129832360999991985042200004-12150-045000FM-12+0440SBRR V0201801N00151220001CN9999999N9+02381+01821101011ADDAA106000091AG10999AY101061GF103991031041008001001001KA1240M+03171MA1999999096071MD1999999+0051MW1021REMSYN017333   10317 58005
0129832360999991985042212004-12150-045000FM-12+0440SBRR V0201401N00211220001CN0500001N9+02361+01871101281ADDAA106000091AG10999AY101061GF103991021021008001051001KA1240N+01811MA1999999096331MD1999999+0191MW1021REMSYN017333   20181 58019
0110832360999991985042218004-12150-045000FM-12+0440SBRR V0201401N00101045001CN0200001N9+02961+01871100851ADDAA106000091AG10999AY101061GF105991031031008001061011MA1999999095891MD1999999+0141MW1021REMSYN011333   58014
0129832360999991985042300004-12150-045000FM-12+0440SBRR V0202301N00051220001CN9999999N9+02201+02061101031ADDAA106000091AG10999AY101061GF103991031001022501051001KA1240M+03061MA1999999096081MD1999999+0011MW1021REMSYN017333   10306 58001
0129832360999991985042312004-12150-045000FM-12+0440SBRR V0201801N00151021001CN0200001N9+02421+01911101401ADDAA106000091AG10999AY101061GF106991061001022501051001KA1240N+02061MA1999999096441MD1999999+0111MW1021REMSYN017333   20206 58011
0110832360999991985042318004-12150-045000FM-12+0440SBRR V0201401N00211045001CN0100001N9+02911+01901100991ADDAA106000091AG10999AY101061GF107991021021008001051001MA1999999096071MD1999999+0181MW1021REMSYN011333   58018
0129832360999991985042400004-12150-045000FM-12+0440SBRR V0201801N00101220001CN9999999N9+02241+01961101151ADDAA106000091AG10999AY101061GF100991001001999999001001KA1240M+03011MA1999999096201MD1999999+0121MW1021REMSYN017333   10301 58012
0129832360999991985042412004-12150-045000FM-12+0440SBRR V0201401N00211105001CN0200001N9+02501+02031101211ADDAA106000091AG10999AY101061GF105991041021008001001021KA1240N+02021MA1999999096261MD1999999-0181MW1021REMSYN017333   20202 59018
0110832360999991985042418004-12150-045000FM-12+0440SBRR V0200501N00261007501CN0200001N9+02911+02221100811ADDAA106000091AG10999AY101061GF106991051041008001021011MA1999999095901MD1999999-0171MW1021REMSYN011333   59017
0129832360999991985042500004-12150-045000FM-12+0440SBRR V0209991C00001220001CN9999999N9+02371+02171100901ADDAA106000091AG10999AY101061GF104991031021008001031001KA1240M+03011MA1999999095971MD1999999-0231MW1021REMSYN017333   10301 59023
0129832360999991985042512004-12150-045000FM-12+0440SBRR V0201401N00151220001CN0500001N9+02431+01771101061ADDAA106000091AG10999AY101061GF104991001001999999001081KA1240N+01011MA1999999096121MD1999999-0141MW1021REMSYN017333   20101 59014
0110832360999991985042518004-12150-045000FM-12+0440SBRR V0200901N00151220001CN0500001N9+03001+01841100551ADDAA106000091AG10999AY101061GF104991041021008001001001MA1999999095661MD1999999-0181MW1021REMSYN011333   59018
0135832360999991985042612004-12150-045000FM-12+0440SBRR V0201801N00311045001CN0200001N9+02301+01851101151ADDAA124000191AG10999AY101061GF105991041041008001061021KA1240N+02021MA1999999096211MD1999999+0091MW1021REMSYN023333   20202 58009 69914
0110832360999991985042618004-12150-045000FM-12+0440SBRR V0201401N00211045001CN0200001N9+03031+01861100611ADDAA106000091AG10999AY101061GF105991031021008001041031MA1999999095721MD1999999+0061MW1021REMSYN011333   58006
0129832360999991985042700004-12150-045000FM-12+0440SBRR V0202301N00101220001CN9999999N9+02181+02031100861ADDAA106000091AG10999AY101061GF102991021021008001001001KA1240M+03031MA1999999095921MD1999999+0051MW1021REMSYN017333   10303 58005
0129832360999991985042712004-12150-045000FM-12+0440SBRR V0202301N00101220001CN0500001N9+02451+01901101241ADDAA106000091AG10999AY101061GF102991001001999999001021KA1240N+01901MA1999999096291MD1999999+0081MW1021REMSYN017333   20190 58008
0110832360999991985042718004-12150-045000FM-12+0440SBRR V0201401N00261220001CN0500001N9+03161+02051100751ADDAA106000091AG10999AY101061GF103991021021008001001031MA1999999095841MD1999999+0121MW1021REMSYN011333   58012
0129832360999991985042800004-12150-045000FM-12+0440SBRR V0201801N00151220001CN9999999N9+02181+01951100901ADDAA106000091AG10999AY101061GF102991001001999999001021KA1240M+03211MA1999999095961MD1999999+0041MW1021REMSYN017333   10321 58004
0129832360999991985042812004-12150-045000FM-12+0440SBRR V0202701N00101220001CN0500001N9+02391+01871101121ADDAA106000091AG10999AY101061GF103991001001999999001021KA1240N+01711MA1999999096181MD1999999-0111MW1021REMSYN017333   20171 59011
0110832360999991985042818004-12150-045000FM-12+0440SBRR V0203601N00101045001CN0200001N9+03211+01931100741ADDAA106000091AG10999AY121061GF105991041051008001031011MA1999999095831MD1999999-0011MW1151REMSYN011333   59001
0129832360999991985042900004-12150-045000FM-12+0440SBRR V0201801N00101220001CN9999999N9+02271+02141100951ADDAA106000091AG10999AY101061GF102991001001999999001021KA1240M+03261MA1999999096011MD1999999+0051MW1021REMSYN017333   10326 58005
0129832360999991985042912004-12150-045000FM-12+0440SBRR V0201801N00101045001CN0200001N9+02441+02091101161ADDAA106000091AG10999AY101061GF105991031021008001031011KA1240N+01931MA1999999096211MD1999999+0031MW1021REMSYN017333   20193 58003
0129832360999991985043000004-12150-045000FM-12+0440SBRR V0201801N00101021001CN9999999N9+02381+02131100901ADDAA106000091AG10999AY101061GF106991061001022501071001KA1240M+03191MA1999999095971MD1999999-0041MW1021REMSYN017333   10319 59004
0129832360999991985043012004-12150-045000FM-12+0440SBRR V0200501N00151220001CN0200001N9+02561+02171101231ADDAA106000091AG10999AY101061GF104991031021008001001011KA1240N+02071MA1999999096291MD1999999+0081MW1021REMSYN017333   20207 58008
0110832360999991985043018004-12150-045000FM-12+0440SBRR V0200301N00101220001CN0200001N9+02821+02101100661ADDAA106000091AG10999AY101061GF105991031021008001001041MA1999999095771MD1999999+0031MW1021REMSYN011333   58003
0129832360999991985050100004-12150-045000FM-12+0440SBRR V0201801N00101220001CN9999999N9+02331+02181100931ADDAA106000091AG10999AY101061GF102991011011008001001011KA1240M+03191MA1999999096001MD1999999+0031MW1021REMSYN017333   10319 58003
0129832360999991985050112004-12150-045000FM-12+0440SBRR V0200501N00361220001CN0200001N9+02521+02191101221ADDAA106000091AG10999AY101061GF106991041051008001001041KA1240N+02011MA1999999096271MD1999999-0021MW1021REMSYN017333   20201 59002
0110832360999991985050118004-12150-045000FM-12+0440SBRR V0203201N00151220001CN0200001N9+03121+02111100681ADDAA106000091AG10999AY101061GF103991021021008001001021MA1999999095781MD1999999+0011MW1021REMSYN011333   58001
0129832360999991985050200004-12150-045000FM-12+0440SBRR V0201801N00101045001CN9999999N9+02421+02151101001ADDAA106000091AG10999AY191061GF107991031071008001071001KA1240M+03231MA1999999096071MD1999999+0071MW1131REMSYN017333   10323 58007
0129832360999991985050212004-12150-045000FM-12+0440SBRR V0200501N00311007501CN0100001N9+02271+02121101391ADDAA106000091AG10999AY121061GF108991061071008001999999KA1240N+01991MA1999999096431MD1999999+0161MW1101REMSYN017333   20199 58016
0110832360999991985050218004-12150-045000FM-12+0440SBRR V0203601N00151007501CN0200001N9+02871+02231100841ADDAA106000091AG10999AY101061GF106991051041008001021041MA1999999095921MD1999999+0141MW1021REMSYN011333   58014
0129832360999991985050312004-12150-045000FM-12+0440SBRR V0200501N00151105001CN0200001N9+02501+02111101341ADDAA106000091AG10999AY101061GF105991031021008001001051KA1240N+02051MA1999999096391MD1999999-0041MW1021REMSYN017333   20205 59004
0135832360999991985050400004-12150-045000FM-12+0440SBRR V0201801N00101220001CN9999999N9+02181+02111101201ADDAA106001091AG10999AY161061GF104991011001022501061041KA1240M+03051MA1999999096251MD1999999+0111MW1021REMSYN023333   10305 58011 60011
0135832360999991985050412004-12150-045000FM-12+0440SBRR V0202301N00101045001CN0200001N9+02361+02151101361ADDAA124001091AG10999AY151061GF105991031021008001041021KA1240N+01981MA1999999096391MD1410001+0001MW1021REMSYN023333   20198 58000 60014
0110832360999991985050418004-12150-045000FM-12+0440SBRR V0203601N00151220001CN0200001N9+03121+02051100841ADDAA106000091AG10999AY101061GF104991031031008001001021MA1999999095931MD1999999-0081MW1021REMSYN011333   59008
0135832360999991985050500004-12150-045000FM-12+0440SBRR V0201801N00101220001CN9999999N9+02251+02121101161ADDAA106007091AG10999AY161061GF103991031051008001021001KA1240M+03191MA1999999096211MD1999999-0041MW1131REMSYN023333   10319 59004 60071
0129832360999991985050600004-12150-045000FM-12+0440SBRR V0203601N00101045001CN9999999N9+02401+02211101111ADDAA106000091AG10999AY101061GF106991041081008001061001KA1240M+03171MA1999999096181MD1999999-0031MW1021REMSYN017333   10317 59003
0129832360999991985050612004-12150-045000FM-12+0440SBRR V0201801N00151220001CN0500001N9+02461+01971101381ADDAA106000091AG10999AY101061GF103991021021012501041011KA1240N+01831MA1999999096431MD1999999+0021MW1021REMSYN017333   20183 58002
0110832360999991985050618004-12150-045000FM-12+0440SBRR V0200901N00211007501CN0200001N9+02921+01981101001ADDAA106000091AG10999AY101061GF106991051041008001071021MA1999999096071MD1999999+0081MW1021REMSYN011333   58008
0129832360999991985050700004-12150-045000FM-12+0440SBRR V0201801N00101220001CN9999999N9+02141+01971101171ADDAA106000091AG10999AY101061GF103991001001999999001021KA1240M+03071MA1999999096221MD1999999+0041MW1021REMSYN017333   10307 58004
0148832360999991985050712004-12150-045000FM-12+0440SBRR V0201801N00311220001CN9999999N9+02341+01691101531ADDAA106000091AG10999AY101061GF104991021061999999001041KA1240N+02001MA1999999096551MD1999999+0121MW1021REMSYN017333   20200 58012EQDQ01+000992SCOLCB
0110832360999991985050718004-12150-045000FM-12+0440SBRR V0201401N00311220001CN0500001N9+03051+01751101021ADDAA106000091AG10999AY101061GF104991041011008001001001MA1999999096011MD1999999+0031MW1021REMSYN011333   58003
0129832360999991985050800004-12150-045000FM-12+0440SBRR V0201801N00101045001CN9999999N9+02231+02071101221ADDAA106000091AG10999AY101061GF105991031011008001031001KA1240M+03111MA1999999096261MD1999999+0041MW1021REMSYN017333   10311 58004
0110832360999991985050818004-12150-045000FM-12+0440SBRR V0201401N00101220001CN0200001N9+03141+02001100871ADDAA106000091AG10999AY101061GF105991031031008001001041MA1999999095951MD1999999-0151MW1021REMSYN011333   59015
0129832360999991985050900004-12150-045000FM-12+0440SBRR V0201401N00101220001CN9999999N9+02191+02061101091ADDAA106000091AG10999AY101061GF102991001001999999001031KA1240M+03211MA1999999096141MD1999999-0121MW1021REMSYN017333   10321 59012
0129832360999991985050912004-12150-045000FM-12+0440SBRR V0202701N00151220001CN0500001N9+02401+02031101261ADDAA106000091AG10999AY101061GF104991021011008001081001KA1240N+01821MA1999999096301MD1999999-0141MW1021REMSYN017333   20182 59014
0110832360999991985050918004-12150-045000FM-12+0440SBRR V0202701N00151045001CN0200001N9+03101+01901100961ADDAA106000091AG10999AY101061GF106991011011008001031001MA1999999095981MD1999999+0051MW1021REMSYN011333   58005
0129832360999991985051012004-12150-045000FM-12+0440SBRR V0202301N00151220001CN0500001N9+02471+01921101091ADDAA106000091AG10999AY101061GF101991999999999999999999KA1240N+01881MA1999999096151MD1999999-0151MW1021REMSYN017333   20188 59015
0110832360999991985051018004-12150-045000FM-12+0440SBRR V0201401N00151220001CN0500001N9+03261+01951100601ADDAA106000091AG10999AY101061GF103991031021008001001001MA1999999095711MD1999999-0271MW1021REMSYN011333   59027
0129832360999991985051100004-12150-045000FM-12+0440SBRR V0209991C00001220001CN9999999N9+02301+02111100861ADDAA106000091AG10999AY101061GF102991021021008001001001KA1240M+03381MA1999999095931MD1999999-0141MW1021REMSYN017333   10338 59014
0129832360999991985051112004-12150-045000FM-12+0440SBRR V0203201N00101007501CN0100001N9+02391+02111101051ADDAA106000091AG10999AY101061GF107991061031008001071041KA1240N+01911MA1999999096111MD1999999-0041MW1021REMSYN017333   20191 59004
0110832360999991985051118004-12150-045000FM-12+0440SBRR V0200501N00261007501CN0200001N9+02951+02261100681ADDAA106000091AG10999AY101061GF106991051041008001061041MA1999999095761MD1999999+0051MW1021REMSYN011333   58005
0129832360999991985051200004-12150-045000FM-12+0440SBRR V0200501N00101220001CN9999999N9+02401+02151100961ADDAA106000091AG10999AY101061GF103991001001999999001021KA1240M+03021MA1999999096031MD1999999+0101MW1021REMSYN017333   10302 58010
0110832360999991985051218004-12150-045000FM-12+0440SBRR V0200501N00511007501CN0200001N9+02901+02151100761ADDAA106000091AG10999AY101061GF106991051031008001051041MA1999999095841MD1999999+0081MW1021REMSYN011333   58008
0129832360999991985051300004-12150-045000FM-12+0440SBRR V0202301N00101045001CN9999999N9+02221+02121101191ADDAA106000091AG10999AY121061GF105991031051008001031021KA1240M+02991MA1999999096141MD1999999+0111MW1131REMSYN017333   10299 58011
0129832360999991985051312004-12150-045000FM-12+0440SBRR V0202701N00151045001CN0200001N9+02441+02271101441ADDAA106000091AG10999AY101061GF106991021011008001031091KA1240N+01881MA1999999096481MD1999999+0241MW1021REMSYN017333   20188 58024
0110832360999991985051318004-12150-045000FM-12+0440SBRR V0200501N00311220001CN0500001N9+03041+01851101011ADDAA106000091AG10001AY101061GF104991041021008001001001MA1999999096091MD1999999+0251MW1021REMSYN011333   58025
0129832360999991985051400004-12150-045000FM-12+0440SBRR V0202301N00101220001CN9999999N9+02161+01991101291ADDAA106000091AG10999AY101061GF102991021041008001001001KA1240M+03081MA1999999096331MD1999999+0191MW1021REMSYN017333   10308 58019
0129832360999991985051412004-12150-045000FM-12+0440SBRR V0203601N00101220001CN0500001N9+02401+01991101481ADDAA106000091AG10999AY101061GF102991001001999999001081KA1240N+01831MA1999999096511MD1999999+0031MW1021REMSYN017333   20183 58003
0110832360999991985051418004-12150-045000FM-12+0440SBRR V0203201N00101220001CN0500001N9+03161+01831101001ADDAA106000091AG10999AY101061GF104991021011008001001011MA1999999096081MD1999999-0011MW1021REMSYN011333   59001
0129832360999991985051500004-12150-045000FM-12+0440SBRR V0201801N00101220001CN9999999N9+02191+02011101231ADDAA106000091AG10999AY101061GF102991001001999999001011KA1240M+03191MA1999999096271MD1999999-0061MW1021REMSYN017333   10319 59006
0129832360999991985051512004-12150-045000FM-12+0440SBRR V0203601N00051220001CN0500001N9+02421+01951101411ADDAA106000091AG10999AY101061GF103991021001022501031011KA1240N+01771MA1999999096451MD1999999-0061MW1021REMSYN017333   20177 59006
0110832360999991985051518004-12150-045000FM-12+0440SBRR V0200501N00411220001CN0500001N9+02981+01921101001ADDAA106000091AG10999AY101061GF105991031021008001001041MA1999999096071MD1999999-0011MW1021REMSYN011333   59001
0129832360999991985051600004-12150-045000FM-12+0440SBRR V0201801N00101220001CN9999999N9+02171+02071101201ADDAA106000091AG10999AY101061GF100991001001999999001001KA1240M+03231MA1999999096251MD1999999-0021MW1021REMSYN017333   10323 59002
0129832360999991985051612004-12150-045000FM-12+0440SBRR V0201801N00101220001CN0500001N9+02391+02011101351ADDAA106000091AG10999AY101061GF102991001001999999001021KA1240N+01761MA1999999096391MD1999999-0061MW1021REMSYN017333   20176 59006
0129832360999991985051618004-12150-045000FM-12+0440SBRR V0201401N00311045001CN0500001N9+03101+01941100881ADDAA106000091AG10999AY101061GF105991041021008001051001MA1999999095462MD1999999-0111MW1021REMSYN011333   59011EQDQ01+095463APOSP 
0129832360999991985051700004-12150-045000FM-12+0440SBRR V0200501N00361220001CN9999999N9+02421+01931101161ADDAA106000091AG10999AY101061GF102991001001999999001011KA1240M+03171MA1999999096221MD1999999-0031MW1021REMSYN017333   10317 59003
0129832360999991985051712004-12150-045000FM-12+0440SBRR V0201801N00101220001CN0500001N9+02381+01821101401ADDAA106000091AG10999AY101061GF101991011011008001001001KA1240N+01761MA1999999096451MD1999999+0061MW1021REMSYN017333   20176 58006
0129832360999991985051800004-12150-045000FM-12+0440SBRR V0202701N00101220001CN9999999N9+02081+01681101281ADDAA106000091AG10999AY101061GF103991031001022501061001KA1240M+03101MA1999999096321MD1999999+0101MW1021REMSYN017333   10310 58010
0129832360999991985051812004-12150-045000FM-12+0440SBRR V0201401N00151045001CN0200001N9+02461+01811101451ADDAA106000091AG10999AY101061GF105991031021008001051031KA1240N+01961MA1999999096471MD1999999+0021MW1021REMSYN017333   20196 58002
0090832360999991985051818004-12150-045000FM-12+0440SBRR V0200901N004119999999N0200001N9+02871+01811999999ADDAA106000091AG10999AY101061GF106991999999008001999999MA1999999096101MD1810041+9999MW1021
0129832360999991985051900004-12150-045000FM-12+0440SBRR V0201801N00101220001CN9999999N9+02021+01831101301ADDAA106000091AG10999AY101061GF100991001001999999001001KA1240M+03021MA1999999096341MD1999999+0021MW1021REMSYN017333   10302 58002
0129832360999991985051912004-12150-045000FM-12+0440SBRR V0202301N00101045001CN0100001N9+02351+01891101441ADDAA106000091AG10999AY101061GF106991041041008001041001KA1240N+01841MA1999999096461MD1999999-0011MW1021REMSYN017333   20184 59001
0116832360999991985051918004-12150-045000FM-12+0440SBRR V0203601N00151012001CN0200001N9+02781+02041100971ADDAA106000391AG10999AY161061GF106991061081008001001001MA1999999096051MD1999999-0051MW1151REMSYN017333   59005 69931
0135832360999991985052000004-12150-045000FM-12+0440SBRR V0201801N00101220001CN9999999N9+02111+02031101251ADDAA106004091AG10999AY161061GF100991001001999999001001KA1240M+03011MA1999999096231MD1999999-0051MW1021REMSYN023333   10301 59005 60041
0135832360999991985052012004-12150-045000FM-12+0440SBRR V0201401N00101220001CN0200001N9+02491+02071101351ADDAA124008091AG10999AY161061GF104991031021008001041021KA1240N+01961MA1999999096391MD1999999-0071MW1031REMSYN023333   20196 59007 60084
0110832360999991985052018004-12150-045000FM-12+0440SBRR V0200501N00261045001CN0200001N9+02911+02121100901ADDAA106000091AG10999AY101061GF105991041031008001051011MA1999999095971MD1999999-0081MW1021REMSYN011333   59008
0129832360999991985052112004-12150-045000FM-12+0440SBRR V0200501N00311220001CN0500001N9+02481+01921101391ADDAA106000091AG10999AY101061GF101991001001999999001011KA1240N+01761MA1999999096431MD1999999+0041MW1021REMSYN017333   20176 58004
0110832360999991985052118004-12150-045000FM-12+0440SBRR V0203601N00261220001CN0500001N9+03061+02171101031ADDAA106000091AG10999AY101061GF102991021011008001001001MA1999999096101MD1999999-0051MW1021REMSYN011333   59005
0129832360999991985052200004-12150-045000FM-12+0440SBRR V0202601N00151220001CN9999999N9+99999+99999101241ADDAA106000091AG10999AY101061GF100991001001999999001001KA1240M+03131MA1999999096281MD1999999+0161MW1021REMSYN017333   10313 58016
0129832360999991985052212004-12150-045000FM-12+0440SBRR V0203201N00101220001CN0500001N9+02281+01901101501ADDAA106000091AG10999AY101061GF103991001001999999001031KA1240N+01651MA1999999096521MD1999999+0091MW1021REMSYN017333   20165 58009
0110832360999991985052218004-12150-045000FM-12+0440SBRR V0200901N00151220001CN0500001N9+03231+01841100921ADDAA106000091AG10999AY101061GF102991021021012501001001MA1999999096001MD1999999-0101MW1021REMSYN011333   59010
0129832360999991985052300004-12150-045000FM-12+0440SBRR V0203601N00151220001CN9999999N9+02121+02021101121ADDAA106000091AG10999AY101061GF100991001001999999001001KA1240M+03361MA1999999096151MD1999999-0131MW1021REMSYN017333   10336 59013
0129832360999991985052312004-12150-045000FM-12+0440SBRR V0202301N00151220001CN0500001N9+02361+01931101121ADDAA106000091AG10999AY101061GF102991001001999999001081KA1240N+01701MA1999999096391MD1999999-0131MW1021REMSYN017333   20170 59013
0129832360999991985052400004-12150-045000FM-12+0440SBRR V0202301N00151220001CN9999999N9+02151+01901101181ADDAA106000091AG10999AY101061GF102991021041008001001001KA1240M+03351MA1999999096221MD1999999+0071MW1021REMSYN017333   10335 58007
0129832360999991985052412004-12150-045000FM-12+0440SBRR V0201801N00211105001CN0500001N9+02461+01881101471ADDAA106000091AG10999AY101061GF105991021001022501041021KA1240N+01671MA1999999096501MD1999999+0111MW1021REMSYN017333   20167 58011
0110832360999991985052418004-12150-045000FM-12+0440SBRR V0201401N00311045001CN0200001N9+03131+01991101061ADDAA106000091AG10999AY101061GF105991041021008001051021MA1999999096131MD1999999+0241MW1021REMSYN011333   58024
0129832360999991985052500004-12150-045000FM-12+0440SBRR V0201801N00101007501CN9999999N9+02211+01921101281ADDAA106000091AG10999AY101061GF105991051031008001061001KA1240M+03181MA1999999096331MD1999999+0111MW1021REMSYN017333   10318 58011
0110832360999991985052518004-12150-045000FM-12+0440SBRR V0200501N00511012001CN0100001N9+03121+01831101111ADDAA106000091AG10999AY101061GF106991061081008001001001MA1999999096191MD1999999+0061MW1021REMSYN011333   58006
0146832360999991985052600004-12150-045000FM-12+0440SBRR V0202301N00051220001CN9999999N9+02101+01931101381ADDAA106000191AG10999GF100991001001999999001001KA1240M+03131MA1999999096411MD1999999+0081MW1021REMSYN023333   10313 58008 69911EQDQ01+000072PSTWM1
0135832360999991985052612004-12150-045000FM-12+0440SBRR V0202301N00101220001CN0500001N9+02311+01811101591ADDAA124000191AG10999AY101061GF102991011001022501031021KA1240N+01571MA1999999096601MD1999999+0021MW1021REMSYN023333   20157 58002 69914
0110832360999991985052618004-12150-045000FM-12+0440SBRR V0200901N00261007501CN0200001N9+02991+01861101111ADDAA106000091AG10999AY101061GF105991051031008001051001MA1999999096171MD1999999-0021MW1021REMSYN011333   59002
0129832360999991985052700004-12150-045000FM-12+0440SBRR V0201801N00101220001CN9999999N9+02131+01881101371ADDAA106000091AG10999AY101061GF102991001001999999001031KA1240M+03141MA1999999096391MD1999999-0021MW1021REMSYN017333   10314 59002
0129832360999991985052712004-12150-045000FM-12+0440SBRR V0201801N00151220001CN0500001N9+02391+01631101491ADDAA106000091AG10999AY101061GF102991011001022501041011KA1240N+01641MA1999999096541MD1999999-0061MW1021REMSYN017333   20164 59006
0110832360999991985052718004-12150-045000FM-12+0440SBRR V0201401N00211012001CN0200001N9+03151+01731101021ADDAA106000091AG10999AY101061GF105991051081008001001001MA1999999096101MD1999999-0071MW1021REMSYN011333   59007
0129832360999991985052800004-12150-045000FM-12+0440SBRR V0200501N00311220001CN9999999N9+02431+01931101241ADDAA106000091AG10999AY101061GF104991041011008001001001KA1240M+03211MA1999999096291MD1999999-0101MW1021REMSYN017333   10321 59010
0129832360999991985052812004-12150-045000FM-12+0440SBRR V0201401N00101220001CN0500001N9+02411+01951101401ADDAA106000091AG10999AY101061GF103991001001999999001041KA1240N+01741MA1999999096451MD1999999-0091MW1021REMSYN017333   20174 59009
0110832360999991985052818004-12150-045000FM-12+0440SBRR V0200501N00151105001CN0200001N9+03131+01711100931ADDAA106000091AG10999AY101061GF106991041021008001001031MA1999999096011MD1999999-0201MW1021REMSYN011333   59020
0129832360999991985052900004-12150-045000FM-12+0440SBRR V0201801N00051220001CN9999999N9+02191+01941101231ADDAA106000091AG10999AY101061GF102991021021012501001001KA1240M+03201MA1999999096271MD1999999-0011MW1021REMSYN017333   10320 59001
0129832360999991985052912004-12150-045000FM-12+0440SBRR V0201801N00051220001CN0500001N9+02261+01881101461ADDAA106000091AG10999AY101061GF103991001001999999001041KA1240N+01651MA1999999096481MD1999999+0031MW1021REMSYN017333   20165 58003
0110832360999991985052918004-12150-045000FM-12+0440SBRR V0202701N00151220001CN0500001N9+03241+01711100941ADDAA106000091AG10999AY101061GF103991011011008001041011MA1999999096021MD1999999+0011MW1021REMSYN011333   58001
0129832360999991985053000004-12150-045000FM-12+0440SBRR V0201801N00051220001CN9999999N9+01971+01791101251ADDAA106000091AG10001AY101061GF100991001001999999001001KA1240M+03271MA1999999096271MD1410001+0001MW1021REMSYN017333   10327 58000
0129832360999991985053012004-12150-045000FM-12+0440SBRR V0201801N00101220001CN0500001N9+02181+01781101561ADDAA106000091AG10999AY101061GF101991011011012501001001KA1240N+01541MA1999999096551MD1999999+0071MW1021REMSYN017333   20154 58007
0110832360999991985053018004-12150-045000FM-12+0440SBRR V0200901N00261007501CN0200001N9+03121+01791101201ADDAA106000091AG10999AY101061GF105991051021008001001001MA1999999096081MD1999999+0061MW1021REMSYN011333   58006
0129832360999991985053100004-12150-045000FM-12+0440SBRR V0201401N00101220001CN9999999N9+02101+01781101281ADDAA106000091AG10999AY101061GF103991021001022501041011KA1240M+03201MA1999999096301MD1999999+0031MW1021REMSYN017333   10320 58003
0129832360999991985053112004-12150-045000FM-12+0440SBRR V0201401N00151220001CN9999999N9+02341+01641101651ADDAA106000091AG10001AY101061GF103991001001999999001041KA1240N+01701MA1999999096661MD1999999+0111MW1021REMSYN017333   20170 58011
0129832360999991985053118004-12150-045000FM-12+0440SBRR V0201401N00211220001CN0500001N9+03061+01551101161ADDAA106000091AG10999AY101061GF104991999011008001001001MA1999999096231MD1999999+0151MW1021REMSYN011333   58015EQDQ01+000032SCOTLC
0129832360999991985060112004-12150-045000FM-12+0440SBRR V0201801N00211220001CN0500001N9+02341+01621101591ADDAA106000091AG10999AY101061GF100991001001999999001001KA1240N+01751MA1999999096601MD1999999-0061MW1021REMSYN017333   20175 59006
0129832360999991985060118004-12150-045000FM-12+0440SBRR V0201401N00311220001CN0500001N9+03051+01321100981ADDAA106000091AG10999AY101061GF101991011011008001001001MA1999999096141MD1999999-0091MW1021REMSYN011333   59009EQDQ01+999990APOSLP
0129832360999991985060200004-12150-045000FM-12+0440SBRR V0202701N00151220001CN9999999N9+02121+01681101231ADDAA106000091AG10999AY101061GF101991011001022501041001KA1240M+03111MA1999999096271MD1999999-0101MW1021REMSYN017333   10311 59010
0129832360999991985060211004-12150-045000FM-12+0440SBRR V0202301N00101220001CN0500001N9+02421+01621101421ADDAA106000091AG10999AY101999GF101991011011008001001001KA1240N+01711MA1999999096451MD1999999-0151MW1021REMSYN017333   20171 59015
0129832360999991985060212004-12150-045000FM-12+0440SBRR V0202301N00101220001CN0500001N9+02421+01621101421ADDAA106000091AG10999AY101061GF101991011999008001011001KA1240N+01711MA1999999096451MD1999999-0151MW1021REMSYN017333   20171 59015
0110832360999991985060218004-12150-045000FM-12+0440SBRR V0201801N00151220001CN0200001N9+03021+01591100881ADDAA106000091AG10999AY101061GF104991041011008001001001MA1999999095961MD1999999-0181MW1021REMSYN011333   59018
0164832360999991985060300004-12150-045000FM-12+0440SBRR V0201801N00051220001CN9999999N9+02051+01821101141ADDAA106000091AG10999AY101061GF102991021011008001001001KA1240M+03191MA1999999999999MD1999999-0091MW1021REMSYN017333   10319 59009EQDQ01+100733APOSP Q02 100733APOSP 
0076832360999991985060312004-12150-045000FM-12+0440SBRR V0201801N00101220001CN0500001N9+02241+01801101331ADDAA106000091AG10999AY101061GF103991001001999999001081MA1999999096351MW1021
0110832360999991985060318004-12150-045000FM-12+0440SBRR V0201401N00151105001CN0200001N9+03211+01551100861ADDAA106000091AG10999AY101061GF105991041021008001001091MA1999999095941MD1999999-0021MW1021REMSYN011333   59002
0129832360999991985060400004-12150-045000FM-12+0440SBRR V0201801N00101220001CN9999999N9+02121+01781101081ADDAA106000091AG10999AY101061GF104991011011008001001081KA1240M+03241MA1999999096121MD1999999-0061MW1021REMSYN017333   10324 59006
0129832360999991985060412004-12150-045000FM-12+0440SBRR V0201801N00051220001CN0500001N9+02341+01761101301ADDAA106000091AG10999AY101061GF104991011001022501061081KA1240N+02161MA1999999096341MD1999999-0011MW1021REMSYN017333   20216 59001
