0146832880999991985010100004-13267-043417FM-12+0440SBLP V0200901N00051007501CN9999999N9+02341+02171101091ADDAA106000691AA299000591AG10999AY101061GF108991061041008001021011KA1240M+03741MA1999999096011MD1999999+0091MW1151REMSYN023333   10374 58009 69961
0135832880999991985010112004-13267-043417FM-12+0440SBLP V0203601N00051007501CN0100001N9+02471+02031101411ADDAA124001091AG10999AY101061GF107991061011008001021001KA1240N+02161MA1999999096281MD1999999-0221MW1001REMSYN023333   20216 59022 60014
0110832880999991985010118004-13267-043417FM-12+0440SBLP V0203201N00211220001CN0200001N9+03281+01891100801ADDAA106000091AG10999AY101061GF104991021021008001001041MA1999999095741MD1999999+0141MW1021REMSYN011333   58014
0129832880999991985010200004-13267-043417FM-12+0440SBLP V0200901N00101045001CN9999999N9+02661+02001101081ADDAA106000091AG10999AY101061GF106991031021008001071001KA1240M+03381MA1999999095981MD1999999-0031MW1021REMSYN017333   10338 59003
0129832880999991985010212004-13267-043417FM-12+0440SBLP V0203201N00151220001CN0200001N9+02741+02141101121ADDAA106000091AG10999AY101061GF103991011001022501031021KA1240N+02201MA1999999096041MD1999999-0241MW1021REMSYN017333   20220 59024
0116832880999991985010218004-13267-043417FM-12+0440SBLP V0202301N00311045001CN0200001N9+03341+02091100581ADDAA106000391AG10999AY161061GF106991031021008001071001MA1999999095531MD1999999-0211MW1151REMSYN017333   59021 69931
0135832880999991985010312004-13267-043417FM-12+0440SBLP V0203601N00311045001CN0100001N9+02381+02091101071ADDAA124011091AG10999AY111061GF108991041031008001021001KA1240N+02171MA1999999096011MD1999999-0031MW1021REMSYN023333   20217 59003 60114
0110832880999991985010318004-13267-043417FM-12+0440SBLP V0203601N00151045001CN0200001N9+02901+02041100771ADDAA106000091AG10999AY101061GF106991031021008001011001MA1999999095711MD1999999+0181MW1021REMSYN011333   58018
0124832880999991985010400004-13267-043417FM-12+0440SBLP V0203601N00211045001CN9999999N9+02361+02191101081ADDAG10999AY161061GF108991041051008001021999KA1240M+03001MA1999999095951MD1999999-0021MW1131REMSYN023333   10300 59002 60/31
0135832880999991985010412004-13267-043417FM-12+0440SBLP V0203601N00101012001CN0040001N9+02321+02051101261ADDAA124017091AG10999AY161061GF108991051081008001021999KA1240N+02111MA1999999096141MD1999999+0131MW1031REMSYN023333   20211 58013 60174
0135832880999991985010600004-13267-043417FM-12+0440SBLP V0201801N00101045001CN9999999N9+02131+02091101551ADDAA106011091AG10999AY191061GF108991041071008001021999KA1240M+02941MA1999999096381MD1999999+0141MW1631REMSYN023333   10294 58014 60111
0135832880999991985010612004-13267-043417FM-12+0440SBLP V0201801N00211045001CN0200001N9+02441+02091101621ADDAA124021091AG10999AY161061GF106991031051008001011001KA1240N+02101MA1999999096461MD1999999+0111MW1021REMSYN023333   20210 58011 60214
0110832880999991985010618004-13267-043417FM-12+0440SBLP V0202301N00261045001CN0200001N9+02941+02051101201ADDAA106000091AG10999AY101061GF107991031011008001011001MA1999999096081MD1999999+0101MW1021REMSYN011333   58010
0129832880999991985010712004-13267-043417FM-12+0440SBLP V0201801N00101220001CN0200001N9+02581+02151101231ADDAA106000091AG10999AY101061GF100991001001999999001001KA1240N+02101MA1999999096171MD1999999+0291MW1021REMSYN017333   20210 58029
0110832880999991985010718004-13267-043417FM-12+0440SBLP V0201801N00261045001CN0200001N9+03301+02751100741ADDAA106000091AG10999AY101061GF105991031021008001011001MA1999999095681MD1999999+0401MW1021REMSYN011333   58040
0129832880999991985010800004-13267-043417FM-12+0440SBLP V0201801N00101045001CN9999999N9+02501+02131100981ADDAA106000091AG10999AY101061GF106991021081008001011001KA1240M+03341MA1999999095891MD1999999-0421MW1021REMSYN017333   10334 59042
0110832880999991985010818004-13267-043417FM-12+0440SBLP V0201801N00151045001CN0200001N9+02781+02251100721ADDAA106000091AG10999AY101061GF108991021051008001011999MA1999999095651MD1999999-0031MW1021REMSYN011333   59003
0135832880999991985010912004-13267-043417FM-12+0440SBLP V0203601N00211007501CN0100001N9+02401+02171101701ADDAA124008091AG10001AY161061GF107991051011008001021001KA1240N+02081MA1999999096081MD1999999+0071MW1021REMSYN023333   20208 58007 60084
0129832880999991985010918004-13267-043417FM-12+0440SBLP V0203201N00101220001CN0200001N9+03011+02171100872ADDAA106000091AG10999AY101061GF104991021021008001001041MA1999999095781MD1999999+0131MW1021REMSYN011333   58013EQDQ01+100873APOSLP
0135832880999991985011000004-13267-043417FM-12+0440SBLP V0201801N00051045001CN9999999N9+02291+02201101251ADDAA106033091AG10999AY161061GF108991041071008001021999KA1240M+03111MA1999999096131MD1999999+0061MW1601REMSYN023333   10311 58006 60331
0135832880999991985011100004-13267-043417FM-12+0440SBLP V0201801N00151045001CN9999999N9+02201+02051101151ADDAA106005091AG10999AY161061GF108991041021008001061999KA1240M+03001MA1999999096091MD1999999-0041MW1021REMSYN023333   10300 59004 60051
0135832880999991985011112004-13267-043417FM-12+0440SBLP V0201801N00101045001CN0200001N9+02381+02091102241ADDAA124011091AG10999AY151061GF106991041011008001051001KA1240N+02151MA1999999096101MD1999999-0041MW1031REMSYN023333   20215 59004 60114
0129832880999991985011118004-13267-043417FM-12+0440SBLP V0203601N00151220001CN0200001N9+02841+02241100912ADDAA106000091AG10999AY101061GF104991021051008001021001MA1999999095931MD1999999+0011MW1021REMSYN011333   58001EQDQ01+100913APOSLP
0135832880999991985011212004-13267-043417FM-12+0440SBLP V0203601N00101007501CN0200001N9+02341+02111101241ADDAA124001091AG10999AY161061GF108991051051008001021999KA1240N+02081MA1999999096111MD1999999-0071MW1021REMSYN023333   20208 59007 60014
0110832880999991985011218004-13267-043417FM-12+0440SBLP V0203601N00101045001CN0200001N9+02821+02071100891ADDAA106000091AG10999AY101061GF107991031021008001031081MA1999999095791MD1999999-0041MW1021REMSYN011333   59004
0129832880999991985011300004-13267-043417FM-12+0440SBLP V0202701N00051007501CN9999999N9+02261+02051101291ADDAA106000091AG10999AY101061GF108991061051008001021999KA1240M+02861MA1999999096161MD1999999+0041MW1021REMSYN017333   10286 58004
0129832880999991985011400004-13267-043417FM-12+0440SBLP V0209991C00001045001CN9999999N9+02401+02211101211ADDAA106000091AG10999AY101061GF105991021081008001011001KA1240M+02741MA1999999096081MD1999999+0071MW1021REMSYN017333   10274 58007
0135832880999991985011412004-13267-043417FM-12+0440SBLP V0201801N00101045001CN0200001N9+02441+02211101381ADDAA124002091AG10001AY161061GF106991021021008001031021KA1240N+02091MA1999999096261MD1999999-0031MW1031REMSYN023333   20209 59003 60024
0110832880999991985011418004-13267-043417FM-12+0440SBLP V0201401N00211105001CN0200001N9+03121+02191100951ADDAA106000091AG10999AY101061GF106991031021008001001021MA1999999095811MD1999999-0061MW1021REMSYN011333   59006
0135832880999991985011512004-13267-043417FM-12+0440SBLP V0200901N00211007501CN0200001N9+02401+01821101351ADDAA124037091AG10999AY111061GF106991061051008001001001KA1240N+01951MA1999999096271MD1999999+0011MW1021REMSYN023333   20195 58001 60374
0135832880999991985011514004-13267-043417FM-12+0440SBLP V0200901N00211007501CN0200001N9+02401+01821101351ADDAA124037091AG10999AY111021GF106991061051008001001001KA1240N+01951MA1999999096271MD1999999+0011MW1021REMSYN023333   20195 58001 60374
0129832880999991985011612004-13267-043417FM-12+0440SBLP V0201801N00151045001CN0200001N9+02241+02111101331ADDAA106000091AG10999AY101061GF108991041081008001011999KA1240N+02171MA1999999096211MD1999999-0061MW1021REMSYN017333   20217 59006
0110832880999991985011618004-13267-043417FM-12+0440SBLP V0203601N00151220001CN0200001N9+03101+99999100831ADDAA106000091AG10999AY101061GF105991031021008001001011MA1999999095761MD1999999-0091MW1021REMSYN011333   59009
0135832880999991985011700004-13267-043417FM-12+0440SBLP V0200901N00051007501CN9999999N9+02171+01111101181ADDAA106008091AG10999AY101061GF108991061051008001021999KA1240M+03181MA1999999096051MD1999999+0061MW1021REMSYN023333   10318 58006 60081
0135832880999991985011712004-13267-043417FM-12+0440SBLP V0203601N00051007501CN0100001N9+02441+02151999999ADDAA124026091AG10999AY101061GF107991061051008001031001KA1240N+02231MA1999999095951MD1999999-0261MW1031REMSYN023333   20223 59026 60264
0099832880999991985011718004-13267-043417FM-12+0440SBLP V0203601N00151220001CN0200001N9+02801+02201101071ADDAG10999AY101061GF104991031021008001031001MA1999999095961MD1999999-0121MW1021REMSYN011333   59012
0135832880999991985011800004-13267-043417FM-12+0440SBLP V0203601N00211045001CN9999999N9+02221+02141101161ADDAA106018091AG10999AY121061GF108991041071008001051999KA1240M+03041MA1999999096001MD1999999-0011MW1621REMSYN023333   10304 59001 60181
0135832880999991985011812004-13267-043417FM-12+0440SBLP V0203601N00211045001CN0200001N9+99999+99999101211ADDAA124041091AG10999AY161061GF108991031051008001021999KA1240N+02121MA1999999096081MD1999999+0131MW1021REMSYN023333   20212 58013 60414
0116832880999991985011818004-13267-043417FM-12+0440SBLP V0200501N00211045001CN0200001N9+02781+02251100861ADDAA106003091AG10001AY121061GF108991041051008001021999MA1999999095761MD1999999+0021MW1621REMSYN017333   58002 60031
0148832880999991985011900004-13267-043417FM-12+0440SBLP V0201801N00261999999CN9999999N9+02401+02211101081ADDAA106000091AG10999AY101061GF108991041021999999061001KA1240M+02901MA1999999096001MD1999999-0041MW1021REMSYN017333   10290 59004EQDQ01+000992SCOLCB
0135832880999991985011912004-13267-043417FM-12+0440SBLP V0203601N00211045001CN0100001N9+02261+02231101371ADDAA124013091AG10999AY161061GF108991041031008001021001KA1240N+02011MA1999999096281MD1999999+0201MW1021REMSYN023333   20201 58020 60134
0110832880999991985011918004-13267-043417FM-12+0440SBLP V0200901N00311045001CN0200001N9+02601+02391100921ADDAA106000091AG10999AY101061GF107991031051008001021001MA1999999095841MD1999999+0081MW1021REMSYN011333   58008
0135832880999991985012000004-13267-043417FM-12+0440SBLP V0203601N00211045001CN9999999N9+02441+02351101181ADDAA106006091AG10999AY161061GF106991031051008001021001KA1240M+02921MA1999999096061MD1999999+0061MW1131REMSYN023333   10292 58006 60061
0110832880999991985012018004-13267-043417FM-12+0440SBLP V0200501N00211045001CN0200001N9+02781+02301101011ADDAA106000091AG10999AY101061GF106991021051008001021011MA1999999095911MD1999999+0071MW1021REMSYN011333   58007
0129832880999991985012100004-13267-043417FM-12+0440SBLP V0203601N00101007501CN9999999N9+02291+02131101381ADDAA106000091AG10999AY101061GF108991061051008001021999KA1240M+02971MA1999999096251MD1999999+0191MW1021REMSYN017333   10297 58019
0135832880999991985012112004-13267-043417FM-12+0440SBLP V0201401N00151045001CN0100001N9+02241+02071101581ADDAA124004091AG10999AY161061GF107991041051008001021001KA1240N+02191MA1999999096431MD1999999+0191MW1031REMSYN023333   20219 58019 60044
0110832880999991985012118004-13267-043417FM-12+0440SBLP V0200901N00151220001CN0200001N9+02771+02141101111ADDAA106000091AG10001AY101061GF104991021021008001031041MA1999999096011MD1999999+0101MW1021REMSYN011333   58010
0148832880999991985012200004-13267-043417FM-12+0440SBLP V0203201N00151045001CN9999999N9+02301+02161101201ADDAA106999999AG10999AY121061GF108991041061008001021999KA1240M+02841MA1999999096071MD1999999-0181MW1501REMSYN017333   10284 59018EQDQ01  00002PRCP06
0129832880999991985012212004-13267-043417FM-12+0440SBLP V0202301N00151045001CN0200001N9+02341+02171101231ADDAA106000091AG10999AY151061GF108991041051008001021999KA1240N+02171MA1999999096101MD1999999-0331MW1021REMSYN017333   20217 59033
0069832880999991985012215004-13267-043417FM-12+0440SBLP V0200901N00311045001CN0150001N9+02741+02441999999ADDAG10999AY101031GF108991031011008001031999MW1021EQDQ01+101043APOSP 
0116832880999991985012218004-13267-043417FM-12+0440SBLP V0200501N00211007501CN0200001N9+02211+02101101111ADDAA106030091AG10999AY161061GF108991051061008001021999MA1999999095791MD1999999-0041MW1201REMSYN017333   59004 60301
0148832880999991985012300004-13267-043417FM-12+0440SBLP V0200901N00211045001CN9999999N9+02201+02061101171ADDAA106999999AG10999AY151061GF108991041031008001061999KA1240M+02481MA1999999096091MD1999999+0021MW1501REMSYN017333   10248 58002EQDQ01  00002PRCP06
0135832880999991985012312004-13267-043417FM-12+0440SBLP V0202701N00151045001CN0100001N9+02281+02011101371ADDAA124031091AG10999AY151061GF108991041021008001061001KA1240N+02101MA1999999096251MD1999999+0091MW1021REMSYN023333   20210 58009 60314
0110832880999991985012318004-13267-043417FM-12+0440SBLP V0203201N00261220001CN0200001N9+02901+02301100901ADDAA106000091AG10999AY101061GF104991021041008001011001MA1999999095981MD1999999-0151MW1021REMSYN011333   59015
0135832880999991985012400004-13267-043417FM-12+0440SBLP V0203601N00151012001CN9999999N9+02261+02141101121ADDAA106001091AG10999AY101061GF105991051081008001001001KA1240M+02941MA1999999095991MD1999999-0101MW1021REMSYN023333   10294 59010 60011
0135832880999991985012412004-13267-043417FM-12+0440SBLP V0203601N00151045001CN0200001N9+02481+02111101261ADDAA124005091AG10999AY161061GF106991031081008001031001KA1240N+02191MA1999999096141MD1999999-0111MW1031REMSYN023333   20219 59011 60054
0110832880999991985012418004-13267-043417FM-12+0440SBLP V0203201N00211045001CN0200001N9+02941+02291100931ADDAA106000091AG10999AY101061GF106991041051008001011001MA1999999095841MD1999999+0031MW1021REMSYN011333   58003
0146832880999991985012500004-13267-043417FM-12+0440SBLP V0203601N00151007501CN9999999N9+02311+01941101181ADDAA106000291AA299000391AG10999AY161061GF108991061051008001021999KA1240M+02971MA1999999096061MD1999999+0061MW1031REMSYN023333   10297 58006 69921
0135832880999991985012512004-13267-043417FM-12+0440SBLP V0201801N00211045001CN0100001N9+02321+02131101581ADDAA124002091AG10999AY161061GF108991041051008001021999KA1240N+02211MA1999999096431MD1999999+0291MW1031REMSYN023333   20221 58029 60024
0116832880999991985012518004-13267-043417FM-12+0440SBLP V0200901N00211045001CN0100001N9+02381+02131101091ADDAA106002091AG10999AY161061GF107991041081008001021001MA1999999095971MD1999999+0121MW1031REMSYN017333   58012 60021
0135832880999991985012600004-13267-043417FM-12+0440SBLP V0200501N00151045001CN9999999N9+02281+02111101191ADDAA106005091AG10999AY191061GF108991041051008001021999KA1240M+02571MA1999999096061MD1410001+0001MW1021REMSYN023333   10257 58000 60051
0135832880999991985012612004-13267-043417FM-12+0440SBLP V0203201N00361007501CN0200001N9+02461+02301101191ADDAA124028091AG10999AY161061GF108991051061008001021999KA1240N+02181MA1999999096071MD1999999-0361MW1201REMSYN023333   20218 59036 60284
0116832880999991985012618004-13267-043417FM-12+0440SBLP V0203601N00261045001CN0200001N9+02441+02271100831ADDAA106004091AG10999AY161061GF106991041051008001021001MA1999999095721MD1999999-0251MW1201REMSYN017333   59025 60041
0148832880999991985012700004-13267-043417FM-12+0440SBLP V0203601N001519999999N9999999N9+02481+02231100771ADDAA106000091AG10999AY101061GF106991041051999999021001KA1240M+02901MA1999999095711MD1999999+0281MW1021REMSYN017333   10290 58028EQDQ01+000992SCOLCB
0135832880999991985012800004-13267-043417FM-12+0440SBLP V0203601N00211045001CN9999999N9+02281+02201100931ADDAA106013091AG10999AY161061GF108991021051008001021999KA1240M+02781MA1999999095811MD1999999+0101MW1031REMSYN023333   10278 58010 60131
0135832880999991985012812004-13267-043417FM-12+0440SBLP V0203601N00151045001CN0200001N9+02321+02131101141ADDAA124017091AG10999AY161061GF107991031081008001021001KA1240N+02151MA1999999096021MD1999999+0111MW1031REMSYN023333   20215 58011 60174
0110832880999991985012818004-13267-043417FM-12+0440SBLP V0203601N00211012001CN0200001N9+02801+02151100731ADDAA106000091AG10999AY101061GF105991051081008001001001MA1999999095631MD1999999-0441MW1021REMSYN011333   59044
0135832880999991985012912004-13267-043417FM-12+0440SBLP V0200501N00101007501CN0100001N9+02241+02161101401ADDAA124035091AG10999AY161061GF108991061051008001021999KA1240N+02141MA1999999096251MD1999999+0231MW1151REMSYN023333   20214 58023 60354
0116832880999991985012918004-13267-043417FM-12+0440SBLP V0203601N00151007501CN0100001N9+02311+01941101021ADDAA106001091AG10999AY191061GF108991061051008001021999MA1999999095901MD1999999+0271MW1031REMSYN017333   58027 60011
0135832880999991985013000004-13267-043417FM-12+0440SBLP V0203601N00101045001CN9999999N9+02221+02171101231ADDAA106004091AG10999AY161061GF108991031051008001021999KA1240M+02801MA1999999096091MD1999999+0241MW1031REMSYN023333   10280 58024 60041
0135832880999991985013012004-13267-043417FM-12+0440SBLP V0203201N00211045001CN0200001N9+02471+02191101351ADDAA124006091AG10999AY101061GF106991031081008001061001KA1240N+02181MA1999999096221MD1999999-0031MW1021REMSYN023333   20218 59003 60064
0110832880999991985013018004-13267-043417FM-12+0440SBLP V0202701N00101220001CN0200001N9+03071+02211100861ADDAA106000091AG10999AY101061GF104991021011008001001011MA1999999095781MD1999999-0121MW1021REMSYN011333   59012
0148832880999991985013100004-13267-043417FM-12+0440SBLP V0202701N00151220001CN9999999N9+02681+02411101011ADDAA106000091AG10999AY101061GF104991041011999999001001KA1240M+03161MA1999999095951MD1999999-0041MW1021REMSYN017333   10316 59004EQDQ01+000992SCOLCB
0135832880999991985013112004-13267-043417FM-12+0440SBLP V0200901N00211045001CN0100001N9+02301+02111101241ADDAA124028091AG10999AY161061GF106991031041008001051001KA1240N+01991MA1999999096191MD1999999-0031MW1031REMSYN023333   20199 59003 60284
0110832880999991985013118004-13267-043417FM-12+0440SBLP V0203201N00151220001CN0200001N9+03001+02491100871ADDAA106000091AG10999AY101061GF102991021011008001001001MA1999999095811MD1999999+0031MW1021REMSYN011333   58003
0148832880999991985020100004-13267-043417FM-12+0440SBLP V0200901N001519999999N9999999N9+02461+02271101011ADDAA106000091AG10999AY111061GF105991999051008001001001KA1240M+03141MA1999999095901MD1999999-0051MW1131REMSYN017333   10314 59005EQDQ01+000032SCOTLC
0135832880999991985020112004-13267-043417FM-12+0440SBLP V0203601N00101220001CN0200001N9+02541+02151101381ADDAA124005091AG10999AY161061GF104991041021008001001001KA1240N+02151MA1999999096271MD1999999+0081MW1011REMSYN023333   20215 58008 60054
0110832880999991985020118004-13267-043417FM-12+0440SBLP V0203601N00101220001CN0200001N9+03101+02091101001ADDAA106000091AG10999AY101061GF103991031021008001001001MA1999999095921MD1999999+0111MW1021REMSYN011333   58011
0129832880999991985020200004-13267-043417FM-12+0440SBLP V0203601N00051220001CN9999999N9+02591+02211100991ADDAA106000091AG10001AY101061GF102991021021008001001001KA1240M+03271MA1999999095991MD1999999+0161MW1021REMSYN017333   10327 58016
0129832880999991985020212004-13267-043417FM-12+0440SBLP V0203601N00151220001CN0200001N9+02521+02171101341ADDAA106000091AG10999AY101061GF101991011021008001001001KA1240N+02051MA1999999096231MD1999999+0041MW1021REMSYN017333   20205 58004
0129832880999991985020300004-13267-043417FM-12+0440SBLP V0200501N00261045001CN9999999N9+02661+02221101071ADDAA106000091AG10999AY101061GF105991031081008001071001KA1240M+03261MA1999999095981MD1999999-0011MW1021REMSYN017333   10326 59001
0129832880999991985020312004-13267-043417FM-12+0440SBLP V0200501N00211220001CN0200001N9+02741+02171101391ADDAA106000091AG10999AY101061GF102991021011008001001001KA1240N+02101MA1999999096301MD1999999+0071MW1021REMSYN017333   20210 58007
0110832880999991985020318004-13267-043417FM-12+0440SBLP V0202301N00261220001CN9999999N9+03171+01921101051ADDAA106000091AG10999AY101061GF102991021011008001001001MA1999999095981MD1999999+0011MW1021REMSYN011333   58001
0129832880999991985020400004-13267-043417FM-12+0440SBLP V0201401N00101220001CN9999999N9+02401+01771101221ADDAA106000091AG10999AY101061GF100991001001999999001001KA1240M+03261MA1999999096121MD1999999+0141MW1021REMSYN017333   10326 58014
0129832880999991985020412004-13267-043417FM-12+0440SBLP V0203201N00211220001CN0200001N9+02531+01911101601ADDAA106000091AG10999AY101061GF100991001001999999001001KA1240N+01941MA1999999096471MD1999999+0171MW1021REMSYN017333   20194 58017
0148832880999991985020500004-13267-043417FM-12+0440SBLP V0202701N00211220001CN9999999N9+02601+02231101271ADDAA106000091AG10999AY101061GF103991021011999999051999KA1240M+02601MA1999999096211MD1999999+0091MW1021REMSYN017333   10260 58009EQDQ01+000992SCOLCB
0129832880999991985020512004-13267-043417FM-12+0440SBLP V0200501N00151220001CN0200001N9+02701+02241101411ADDAA106000091AG10999AY101061GF100991001001999999001001KA1240N+02011MA1999999096351MD1999999-0121MW1021REMSYN017333   20201 59012
0110832880999991985020518004-13267-043417FM-12+0440SBLP V0201801N00211220001CN0200001N9+03241+02391101151ADDAA106000091AG10999AY101061GF103991021021008001061001MA1999999096071MD1999999-0091MW1021REMSYN011333   59009
0129832880999991985020600004-13267-043417FM-12+0440SBLP V0200901N00101220001CN9999999N9+02621+02121101201ADDAA106000091AG10999AY101061GF103991011081008001031001KA1240M+03301MA1999999096111MD1999999-0101MW1021REMSYN017333   10330 59010
0129832880999991985020612004-13267-043417FM-12+0440SBLP V0203601N00101220001CN0200001N9+02691+02051101471ADDAA106000091AG10999AY101061GF100991001001999999001001KA1240N+02111MA1999999096371MD1999999+0021MW1021REMSYN017333   20211 58002
0110832880999991985020618004-13267-043417FM-12+0440SBLP V0202301N00211220001CN0200001N9+03261+02021101241ADDAA106000091AG10999AY101061GF102991021021008001001001MA1999999096151MD1999999+0081MW1021REMSYN011333   58008
0129832880999991985020700004-13267-043417FM-12+0440SBLP V0200901N00151220001CN9999999N9+02641+01171101831ADDAA106000091AG10999AY101061GF100991001001999999001001KA1240M+03281MA1999999096081MD1999999-0031MW1021REMSYN017333   10328 59003
0148832880999991985020712004-13267-043417FM-12+0440SBLP V0200901N00051220001CN0200001N9+02821+02051101581ADDAA106000091AG10999AY101061GF100991001001999999001001KA1240N+02041MA1999999096481MD1999999+0111MW1021REMSYN017333   20204 58011EQDQ01+000022SCOHCG
0110832880999991985020718004-13267-043417FM-12+0440SBLP V0202301N00151220001CN0200001N9+03241+02131101231ADDAA106000091AG10999AY101061GF104991041021008001001001MA1999999096141MD1999999-0011MW1021REMSYN011333   59001
0129832880999991985020800004-13267-043417FM-12+0440SBLP V0201401N00151220001CN9999999N9+02761+02191101141ADDAA106000091AG10999AY101061GF100991001001999999001001KA1240M+03361MA1999999096071MD1999999-0011MW1021REMSYN017333   10336 59001
0129832880999991985020812004-13267-043417FM-12+0440SBLP V0203601N00101220001CN0200001N9+02641+02231101461ADDAA106000091AG10999AY101061GF102991001001999999001021KA1240N+02101MA1999999096351MD1999999-0121MW1021REMSYN017333   20210 59012
0110832880999991985020818004-13267-043417FM-12+0440SBLP V0202301N00211220001CN0200001N9+03141+02161101111ADDAA106000091AG10999AY101061GF104991021021008001001041MA1999999096021MD1999999-0121MW1021REMSYN011333   59012
0129832880999991985020900004-13267-043417FM-12+0440SBLP V0200901N00151220001CN9999999N9+02621+02141101111ADDAA106000091AG10999AY101061GF100991001001999999001001KA1240M+03261MA1999999096031MD1999999-0041MW1021REMSYN017333   10326 59004
0110832880999991985020918004-13267-043417FM-12+0440SBLP V0202301N00211220001CN0200001N9+03141+02031101041ADDAA106000091AG10999AY101061GF105991031021008001001041MA1999999095951MD1999999-0071MW1021REMSYN011333   59007
0129832880999991985021012004-13267-043417FM-12+0440SBLP V0201401N00151220001CN0200001N9+02681+02111101411ADDAA106000091AG10999AY101061GF100991001001999999001001KA1240N+02111MA1999999096331MD1999999+0051MW1021REMSYN017333   20211 58005
0118832880999991985021015004-13267-043417FM-12+0440SBLP V0200501N00101220001CN0200001N9+03041+02281101271ADDAG10999AY101031GF101991001001999999001021MA1999999096191MD1999999+0011MW1021REMSYN011333   58001EQDQ01+000952SCOLCB
0110832880999991985021018004-13267-043417FM-12+0440SBLP V0202701N00261220001CN0200001N9+03141+02321101041ADDAA106000091AG10999AY101061GF102991021041008001001001MA1999999095961MD1999999+0011MW1021REMSYN011333   58001
0164832880999991985021100004-13267-043417FM-12+0440SBLP V0201401N00511220001CN9999999N9+02341+01471101161ADDAA106000091AG10999AY101061GF100991001001999999001001KA1240M+02721MA1999999999999MD1999999-0061MW1021REMSYN017333   10272 59006EQDQ01+091453APOSP Q02 091453APOSP 
0129832880999991985021112004-13267-043417FM-12+0440SBLP V0201401N00151220001CN0200001N9+02701+02081101381ADDAA106000091AG10999AY101061GF101991011011008001001001KA1240N+02151MA1999999096281MD1999999-0051MW1021REMSYN017333   20215 59005
0110832880999991985021118004-13267-043417FM-12+0440SBLP V0202701N00211220001CN0200001N9+03141+02041101031ADDAA106000091AG10999AY101061GF104991041021008001001001MA1999999095961MD1410001+0001MW1021REMSYN011333   58000
0129832880999991985021212004-13267-043417FM-12+0440SBLP V0200901N00101105001CN0200001N9+02701+01941101591ADDAA106000091AG10999AY101061GF105991041011008001001021KA1240N+02171MA1999999096481MD1999999+0201MW1021REMSYN017333   20217 58020
0110832880999991985021218004-13267-043417FM-12+0440SBLP V0202701N00211220001CN0200001N9+03101+02001101191ADDAA106000091AG10999AY101061GF103991021021008001001041MA1999999097101MD1999999+0141MW1021REMSYN011333   58014
0129832880999991985021312004-13267-043417FM-12+0440SBLP V0200501N00261220001CN0200001N9+02661+01951101391ADDAA106000091AG10999AY101061GF101991001001999999001021KA1240N+02181MA1999999096291MD1999999-0191MW1021REMSYN017333   20218 59019
0110832880999991985021318004-13267-043417FM-12+0440SBLP V0202301N00211220001CN0200001N9+03141+02041101101ADDAA106000091AG10999AY101061GF103991031011008001001001MA1999999096021MD1999999-0081MW1021REMSYN011333   59008
0129832880999991985021412004-13267-043417FM-12+0440SBLP V0201401N00101220001CN0200001N9+02681+02041101421ADDAA106000091AG10999AY101061GF100991001001999999001001KA1240N+02001MA1999999096311MD1999999+0021MW1021REMSYN017333   20200 58002
0110832880999991985021418004-13267-043417FM-12+0440SBLP V0202301N00151220001CN0200001N9+03201+01821101121ADDAA106000091AG10999AY101061GF103991031021008001001001MA1999999096031MD1999999+0011MW1021REMSYN011333   58001
0129832880999991985021500004-13267-043417FM-12+0440SBLP V0200901N00101220001CN9999999N9+02481+99999101101ADDAA106000091AG10999AY101061GF100991001001999999001001KA1240M+03241MA1999999096021MD1999999-0151MW1021REMSYN017333   10324 59015
0129832880999991985021512004-13267-043417FM-12+0440SBLP V0201801N00151220001CN0200001N9+02641+01951101331ADDAA106000091AG10999AY101061GF100991001001999999001001KA1240N+02001MA1999999096271MD1999999-0041MW1021REMSYN017333   20200 59004
0110832880999991985021518004-13267-043417FM-12+0440SBLP V0203601N00151220001CN0200001N9+03141+02131100981ADDAA106000091AG10999AY101061GF103991031011008001001001MA1999999095901MD1999999-0131MW1021REMSYN011333   59013
0129832880999991985021600004-13267-043417FM-12+0440SBLP V0201801N00101220001CN9999999N9+02501+02001101151ADDAA106000091AG10999AY101061GF102991021051008001001001KA1240M+03241MA1999999096061MD1999999+0041MW1131REMSYN017333   10324 58004
0129832880999991985021612004-13267-043417FM-12+0440SBLP V0201401N00151220001CN0200001N9+02601+02081101371ADDAA106000091AG10999AY101061GF102991021011008001001001KA1240N+02061MA1999999096271MD1410001+0001MW1021REMSYN017333   20206 58000
0110832880999991985021818004-13267-043417FM-12+0440SBLP V0202301N00151220001CN0200001N9+03021+02101101131ADDAA106000091AG10999AY101061GF104991041011008001001001MA1999999096041MD1999999+0011MW1021REMSYN011333   58001
0129832880999991985021912004-13267-043417FM-12+0440SBLP V0201401N00261220001CN0200001N9+02601+01891101461ADDAA106000091AG10999AY101061GF103991031041008001081001KA1240N+02141MA1999999096341MD1999999-0061MW1021REMSYN017333   20214 59006
0110832880999991985021918004-13267-043417FM-12+0440SBLP V0201801N00461012001CN0200001N9+02901+01991101171ADDAA106000091AG10999AY101061GF105991051081008001001001MA1999999096061MD1999999+0021MW1021REMSYN011333   58002
0129832880999991985022000004-13267-043417FM-12+0440SBLP V0201401N00101220001CN9999999N9+02461+02231101161ADDAA106000091AG10999AY101061GF102991021011008001001001KA1240M+03051MA1999999096061MD1999999-0031MW1021REMSYN017333   10305 59003
0129832880999991985022012004-13267-043417FM-12+0440SBLP V0202301N00151220001CN0200001N9+02571+02011101441ADDAA106000091AG10999AY101061GF100991001001999999001001KA1240N+01911MA1999999096321MD1999999-0021MW1021REMSYN017333   20191 59002
0110832880999991985022018004-13267-043417FM-12+0440SBLP V0202301N00151220001CN0200001N9+03091+02031101061ADDAA106000091AG10999AY101061GF103991031011008001001001MA1999999095961MD1999999-0101MW1021REMSYN011333   59010
0129832880999991985022112004-13267-043417FM-12+0440SBLP V0203601N00151220001CN0200001N9+02721+02051101341ADDAA106000091AG10999AY101061GF102991011011008001001011KA1240N+02111MA1999999096251MD1999999-0071MW1021REMSYN017333   20211 59007
0110832880999991985022118004-13267-043417FM-12+0440SBLP V0202301N00211220001CN0200001N9+03281+02101100901ADDAA106000091AG10999AY101061GF104991041021008001001001MA1999999095831MD1999999-0131MW1021REMSYN011333   59013
0129832880999991985022212004-13267-043417FM-12+0440SBLP V0203601N00151220001CN0200001N9+02661+01951101171ADDAA106000091AG10999AY101061GF100991001001999999001001KA1240N+02011MA1999999096051MD1999999+0241MW1021REMSYN017333   20201 58024
0110832880999991985022218004-13267-043417FM-12+0440SBLP V0202701N00101220001CN0200001N9+03361+01771100761ADDAA106000091AG10999AY101061GF103991031021008001001001MA1999999095701MD1999999-0131MW1021REMSYN011333   59013
0129832880999991985022312004-13267-043417FM-12+0440SBLP V0203601N00311220001CN0200001N9+02621+02431101031ADDAA106000091AG10999AY101061GF103991031011008001001001KA1240N+02101MA1999999095971MD1999999-0041MW1021REMSYN017333   20210 59004
0110832880999991985022318004-13267-043417FM-12+0440SBLP V0201801N00151220001CN0200001N9+03201+02511100651ADDAA106000091AG10999AY101061GF103991021021008001041001MA1999999095571MD1999999-0131MW1021REMSYN011333   59013
0129832880999991985022412004-13267-043417FM-12+0440SBLP V0203201N00151045001CN0200001N9+02361+02131101181ADDAA106000091AG10999AY101061GF108991041041008001021999KA1240N+02231MA1999999096071MD1999999+0101MW1021REMSYN017333   20223 58010
0110832880999991985022418004-13267-043417FM-12+0440SBLP V0203201N00461007501CN0200001N9+03001+02171100841ADDAA106000091AG10999AY101061GF108991051051008001021001MA1999999095751MD1999999+0181MW1021REMSYN011333   58018
0146832880999991985022500004-13267-043417FM-12+0440SBLP V0203601N00101045001CN9999999N9+02601+02211101141ADDAA106010091AA299000091AG10999AY121061GF108991041021008001011001KA1240M+03041MA1999999096061MD1999999+0241MW1021REMSYN023333   10304 58024 60101
0135832880999991985022512004-13267-043417FM-12+0440SBLP V0202701N00151045001CN0100001N9+02161+02111999999ADDAA124011091AG10999AY151061GF108991041051008001021001KA1240N+02151MA1999999096191MD1999999+0121MW1021REMSYN023333   20215 58012 60114
0110832880999991985022518004-13267-043417FM-12+0440SBLP V0201401N00261045001CN0200001N9+02741+02261101021ADDAA106000091AG10999AY101061GF106991031021008001041001MA1999999095941MD1999999+0191MW1021REMSYN011333   58019
0076832880999991985022600004-13267-043417FM-12+0440SBLP V0209991C00001045001CN9999999N9+02381+02191101271ADDAA106000091AG10999AY121061GF108991031051008001021999MA1999999096141MW1131
0135832880999991985022612004-13267-043417FM-12+0440SBLP V0200901N00151045001CN0200001N9+02461+02211101391ADDAA124006091AG10999AY161061GF107991041081008001021001KA1240N+02151MA1999999096271MD1999999+0081MW1031REMSYN023333   20215 58008 60064
0110832880999991985022618004-13267-043417FM-12+0440SBLP V0203601N00151045001CN0200001N9+03041+02231101021ADDAA106000091AG10999AY101061GF105991021021008001011051MA1999999095941MD1410001+0001MW1021REMSYN011333   58000
0135832880999991985022712004-13267-043417FM-12+0440SBLP V0201801N00101220001CN0200001N9+02541+02211101361ADDAA124002091AG10999AY161061GF102991021011008001001001KA1240N+02181MA1999999096241MD1999999-0031MW1031REMSYN023333   20218 59003 60024
0110832880999991985022718004-13267-043417FM-12+0440SBLP V0202901N00051220001CN0200001N9+03241+01961100951ADDAA106000091AG10999AY101061GF103991031021008001001001MA1999999095871MD1999999-0071MW1021REMSYN011333   59007
0129832880999991985030100004-13267-043417FM-12+0440SBLP V0209991C00001012001CN9999999N9+02541+02171101131ADDAA106000091AG10999AY101061GF106991061081008001001001KA1240M+03091MA1999999096051MD1999999+0141MW1021REMSYN017333   10309 58014
0129832880999991985030112004-13267-043417FM-12+0440SBLP V0202301N00101105001CN0200001N9+02621+01981101431ADDAA106000091AG10999AY101061GF106991001001999999001071KA1240N+02121MA1999999096321MD1999999+0121MW1021REMSYN017333   20212 58012
0129832880999991985030212004-13267-043417FM-12+0440SBLP V0201801N00101220001CN0200001N9+02601+02061101221ADDAA106000091AG10999AY101061GF100991001001999999001001KA1240N+01991MA1999999096161MD1999999-0161MW1021REMSYN017333   20199 59016
0129832880999991985030218004-13267-043417FM-12+0440SBLP V0203601N002119999999N0200001N9+03141+02301101021ADDAA106000091AG10999AY101061GF106991041021999999051001MA1999999095961MD1999999+0031MW1021REMSYN011333   58003EQDQ01+000992SCOLCB
0110832880999991985030318004-13267-043417FM-12+0440SBLP V0201401N00211007501CN0200001N9+03141+02001100941ADDAA106000091AG10999AY101061GF105991051051008001001001MA1999999095871MD1999999-0091MW1021REMSYN011333   59009
0129832880999991985030412004-13267-043417FM-12+0440SBLP V0201401N00051220001CN0200001N9+02661+01901101231ADDAA106000091AG10999AY101061GF103991021011008001001041KA1240N+01971MA1999999096131MD1999999-0111MW1021REMSYN017333   20197 59011
0129832880999991985030500004-13267-043417FM-12+0440SBLP V0201401N00211220001CN9999999N9+02561+01931100991ADDAA106000091AG10999AY101061GF101991011011008001001001KA1240M+03261MA1999999095911MD1999999+0111MW1021REMSYN017333   10326 58011
0129832880999991985030512004-13267-043417FM-12+0440SBLP V0201401N00151220001CN0200001N9+02641+02091101091ADDAA106000091AG10999AY101061GF103991001001999999001041KA1240N+02061MA1999999096001MD1999999-0131MW1021REMSYN017333   20206 59013
0110832880999991985030518004-13267-043417FM-12+0440SBLP V0200501N00101045001CN0200001N9+03161+02171100721ADDAA106000091AG10999AY101061GF106991031021008001061001MA1999999095651MD1999999-0081MW1021REMSYN011333   59008
0129832880999991985030600004-13267-043417FM-12+0440SBLP V0201401N00051220001CN9999999N9+02541+02111100881ADDAA106000091AG10999AY101061GF100991001001999999001001KA1240M+03231MA1999999095801MD1999999-0111MW1021REMSYN017333   10323 59011
0129832880999991985030612004-13267-043417FM-12+0440SBLP V0201401N00151220001CN0200001N9+02761+01991101111ADDAA106000091AG10999AY101061GF102991001001999999001041KA1240N+02301MA1999999096031MD1999999+0031MW1021REMSYN017333   20230 58003
0110832880999991985030618004-13267-043417FM-12+0440SBLP V0201801N00211105001CN0200001N9+03181+02121100691ADDAA106000091AG10999AY101061GF106991031021008001001051MA1999999095641MD1999999-0011MW1021REMSYN011333   59001
0129832880999991985030700004-13267-043417FM-12+0440SBLP V0201801N00151220001CN9999999N9+02641+02031100781ADDAA106000091AG10999AY101061GF100991001001999999001001KA1240M+03301MA1999999095701MD1999999-0101MW1021REMSYN017333   10330 59010
0129832880999991985030712004-13267-043417FM-12+0440SBLP V0203601N00101220001CN0200001N9+02701+01991101201ADDAA106000091AG10999AY101061GF100991001001999999001001KA1240N+02011MA1999999096121MD1999999+0091MW1021REMSYN017333   20201 58009
0110832880999991985030718004-13267-043417FM-12+0440SBLP V0202301N00151220001CN0200001N9+03341+02141100841ADDAA106000091AG10999AY101061GF103991031011008001001001MA1999999095761MD1999999-0061MW1021REMSYN011333   59006
0110832880999991985030818004-13267-043417FM-12+0440SBLP V0202701N00101012001CN0200001N9+03241+01931100711ADDAA106000091AG10999AY101061GF105991051081008001001001MA1999999095651MD1999999-0091MW1021REMSYN011333   59009
0110832880999991985030918004-13267-043417FM-12+0440SBLP V0201801N00151220001CN0200001N9+03201+01751100751ADDAA106000091AG10999AY101061GF101991011021008001001001MA1999999095691MD1999999+0041MW1021REMSYN011333   58004
0129832880999991985031000004-13267-043417FM-12+0440SBLP V0200501N00101220001CN9999999N9+02661+02181100751ADDAA106000091AG10999AY101061GF103991011001022501031021KA1240M+03351MA1999999095691MD1999999+0011MW1021REMSYN017333   10335 58001
0129832880999991985031012004-13267-043417FM-12+0440SBLP V0201801N00151045001CN0200001N9+02601+02231101171ADDAA106000091AG10999AY101061GF106991031011008001031001KA1240N+02321MA1999999096081MD1999999+0081MW1021REMSYN017333   20232 58008
0110832880999991985031018004-13267-043417FM-12+0440SBLP V0203201N00311045001CN0200001N9+03121+02251100761ADDAA106000091AG10999AY101061GF106991031011008001061001MA1999999095711MD1999999+0021MW1021REMSYN011333   58002
0129832880999991985031100004-13267-043417FM-12+0440SBLP V0203201N00151220001CN9999999N9+02781+02281100931ADDAA106000091AG10999AY101061GF100991001001999999001001KA1240M+03241MA1999999095861MD1999999+0171MW1021REMSYN017333   10324 58017
0145832880999991985031112004-13267-043417FM-12+0440SBLP V0203601N001019999999N0200001N9+02461+02351101221ADDAA106000091AG10999AY101061GA1091+999999999GF109991091999999999999999KA1240N+02221MA1999999096131MD1999999+0051MW1021REMSYN017333   20222 58005
0110832880999991985031118004-13267-043417FM-12+0440SBLP V0201801N00311220001CN0200001N9+03281+02431100851ADDAA106000091AG10999AY101061GF104991021021008001051001MA1999999095791MD1999999+0081MW1021REMSYN011333   58008
0129832880999991985031200004-13267-043417FM-12+0440SBLP V0202301N00211220001CN9999999N9+02661+02201100971ADDAA106000091AG10999AY101061GF100991001001999999001001KA1240M+03381MA1999999095881MD1999999+0021MW1021REMSYN017333   10338 58002
0076832880999991985031212004-13267-043417FM-12+0440SBLP V0203601N00101045001CN0200001N9+02501+02211101221ADDAA106000091AG10999AY101061GF106991031021008001061001MA1999999096141MW1021
0110832880999991985031218004-13267-043417FM-12+0440SBLP V0201801N00151045001CN0200001N9+02681+02161100731ADDAA106000091AG10999AY101061GF106991031041008001021001MA1999999095651MD1999999-0041MW1021REMSYN011333   59004
0129832880999991985031300004-13267-043417FM-12+0440SBLP V0200901N00101220001CN9999999N9+02361+02131101101ADDAA106000091AG10999AY101061GF103991031001008001021001KA1240M+03041MA1999999095991MD1999999+0111MW1021REMSYN017333   10304 58011
0135832880999991985031312004-13267-043417FM-12+0440SBLP V0202701N00051999999CN0200001N9+02201+02081101241ADDAA124015091AG10999AY161061GF108991041081008001999999KA1240N+01971MA1999999096111MD1999999-0031MW1031REMSYN023333   20197 59003 60154
0129832880999991985031400004-13267-043417FM-12+0440SBLP V0201801N00101007501CN9999999N9+02171+02021100911ADDAA106000091AG10999AY101061GF108991061041008001021999KA1240M+03141MA1999999095841MD1999999-0151MW1021REMSYN017333   10314 59015
0121832880999991985031412004-13267-043417FM-12+0440SBLP V0201801N00051220001CN0100001N9+02361+02131101421ADDAA124015091AG10999GF104991031051008001001021KA1240N+02081MA1999999096271MD1999999+0161REMSYN023333   20208 58016 60154
0129832880999991985031500004-13267-043417FM-12+0440SBLP V0201401N00151045001CN9999999N9+02501+02211101001ADDAA106000091AG10999AY101061GF107991031051008001021001KA1240M+03091MA1999999095901MD1999999+0061MW1021REMSYN017333   10309 58006
0129832880999991985031512004-13267-043417FM-12+0440SBLP V0203601N00101220001CN0200001N9+02621+02141101301ADDAA106000091AG10999AY101061GF104991011001008001031021KA1240N+02131MA1999999096191MD1999999-0081MW1021REMSYN017333   20213 59008
0110832880999991985031518004-13267-043417FM-12+0440SBLP V0203601N00151220001CN0200001N9+03041+01911100961ADDAA106000091AG10999AY101061GF102991021021008001001021MA1999999095871MD1999999+0091MW1021REMSYN011333   58009
0129832880999991985031612004-13267-043417FM-12+0440SBLP V0203601N00211220001CN0200001N9+02621+02231101421ADDAA106000091AG10999AY101061GF103991001001999999001041KA1240N+02041MA1999999096311MD1999999+0141MW1021REMSYN017333   20204 58014
0110832880999991985031618004-13267-043417FM-12+0440SBLP V0202701N00101105001CN0200001N9+03251+02131100951ADDAA106000091AG10999AY101061GF105991021011008001001051MA1999999095881MD1999999+0101MW1021REMSYN011333   58010
0129832880999991985031700004-13267-043417FM-12+0440SBLP V0209991C00001220001CN9999999N9+02781+01931101211ADDAA106000091AG10999AY101061GF103991001001999999001041KA1240M+03281MA1999999096241MD1999999+0191MW1021REMSYN017333   10328 58019
0148832880999991985031712004-13267-043417FM-12+0440SBLP V0209991C00001220001CN0200001N9+02701+02221101401ADDAA106000091AG10999AY101061GF102991999021008001001001KA1240N+02161MA1999999096321MD1999999+0011MW1021REMSYN017333   20216 58001EQDQ01+000002SCOTLC
0110832880999991985031718004-13267-043417FM-12+0440SBLP V0203601N00151220001CN0200001N9+03201+02381100821ADDAA106000091AG10999AY101061GF104991021021008001061001MA1999999095761MD1999999-0121MW1021REMSYN011333   59012
0135832880999991985031812004-13267-043417FM-12+0440SBLP V0201801N00101045001CN0040001N9+99999+99999101451ADDAA124006091AG10999AY161061GF108991021051008001021999KA1240N+02951MA1999999096331MD1999999+0011MW1031REMSYN023333   20295 58001 60064
0110832880999991985031818004-13267-043417FM-12+0440SBLP V0201801N00051045001CN0200001N9+02721+02191101121ADDAA106000091AG10999AY101061GF108991041081008001011999MA1999999096011MD1999999+0251MW1021REMSYN011333   58025
0129832880999991985031900004-13267-043417FM-12+0440SBLP V0202301N00101220001CN9999999N9+02401+02261101251ADDAA106000091AG10999AY101061GF103991031081008001001001KA1240M+02741MA1999999096131MD1999999+0131MW1021REMSYN017333   10274 58013
0129832880999991985031912004-13267-043417FM-12+0440SBLP V0202701N00101007501CN0100001N9+02291+02131101281ADDAA106000091AG10999AY101061GF107991061051008001021001KA1240N+02181MA1999999096151MD1999999-0181MW1021REMSYN017333   20218 59018
0135832880999991985032012004-13267-043417FM-12+0440SBLP V0200501N00101012001CN0200001N9+02441+02251101331ADDAA124002091AG10999AY161061GF105991051081008001001001KA1240N+02101MA1999999096201MD1999999+0051MW1021REMSYN023333   20210 58005 60024
0110832880999991985032018004-13267-043417FM-12+0440SBLP V0200901N00211045001CN0200001N9+02661+02371100971ADDAA106000091AG10999AY101061GF107991031081008001011001MA1999999095861MD1999999+0171MW1021REMSYN011333   58017
0129832880999991985032200004-13267-043417FM-12+0440SBLP V0201801N00101220001CN9999999N9+02501+02311100881ADDAA106000091AG10999AY101061GF100991001001999999001001KA1240M+03101MA1999999095821MD1999999-0411MW1021REMSYN017333   10310 59041
0129832880999991985032212004-13267-043417FM-12+0440SBLP V0203601N00311220001CN0200001N9+02521+02131101341ADDAA106000091AG10999AY101061GF100991001001999999001001KA1240N+02111MA1999999096261MD1999999-0011MW1021REMSYN017333   20211 59001
0110832880999991985032218004-13267-043417FM-12+0440SBLP V0201801N00261045001CN0200001N9+99999+99999101091ADDAA106000091AG10999AY101061GF106991031021008001061001MA1999999096071MD1999999+0181MW1021REMSYN011333   58018
0135832880999991985032300004-13267-043417FM-12+0440SBLP V0203601N00051045001CN9999999N9+02241+02161101441ADDAA106022091AG10999AY161061GF108991041051008001021999KA1240M+03061MA1999999096311MD1999999+0491MW1131REMSYN023333   10306 58049 60221
0135832880999991985032312004-13267-043417FM-12+0440SBLP V0201801N00151045001CN0200001N9+02321+02051101611ADDAA124024091AG10999AY161061GF107991041011008001031021KA1240N+02081MA1999999096461MD1999999+0201MW1031REMSYN023333   20208 58020 60244
0110832880999991985032318004-13267-043417FM-12+0440SBLP V0201801N00151007501CN0200001N9+03021+02021101311ADDAA106000091AG10999AY101061GF105991051021008001001001MA1999999096201MD1999999+0191MW1021REMSYN011333   58019
0129832880999991985032400004-13267-043417FM-12+0440SBLP V0201401N00151220001CN9999999N9+02361+01951101441ADDAA106000091AG10999AY101061GF100991001001999999001001KA1240M+03021MA1999999096311MD1410001+0001MW1021REMSYN017333   10302 58000
0129832880999991985032500004-13267-043417FM-12+0440SBLP V0201401N00151220001CN9999999N9+02521+02151101221ADDAA106000091AG10999AY101061GF102991021011008001001001KA1240M+03161MA1999999096121MD1999999-0191MW1021REMSYN017333   10316 59019
0148832880999991985032512004-13267-043417FM-12+0440SBLP V0202701N00151220001CN0200001N9+02601+02141101491ADDAA106000091AG10999AY101061GF104991999011008001001001KA1240N+02191MA1999999096431MD1410001+0001MW1021REMSYN017333   20219 58000EQDQ01+000032SCOTLC
0110832880999991985032518004-13267-043417FM-12+0440SBLP V0201401N00151220001CN0200001N9+03121+02171101061ADDAA106000091AG10999AY101061GF103991031011008001001001MA1999999095981MD1999999-0081MW1021REMSYN011333   59008
0129832880999991985032600004-13267-043417FM-12+0440SBLP V0209991C00001220001CN9999999N9+02521+02091101131ADDAA106000091AG10999AY101061GF100991001001999999001001KA1240M+03161MA1999999096041MD1999999-0091MW1021REMSYN017333   10316 59009
0129832880999991985032612004-13267-043417FM-12+0440SBLP V0209991C00001220001CN0200001N9+02571+02131101481ADDAA106000091AG10999AY101061GF100991001001999999001001KA1240N+02051MA1999999096351MD1999999-0081MW1021REMSYN017333   20205 59008
0110832880999991985032618004-13267-043417FM-12+0440SBLP V0203201N00101220001CN0200001N9+03141+01971101041ADDAA106000091AG10999AY101061GF102991021011008001001001MA1999999095961MD1999999-0021MW1021REMSYN011333   59002
0129832880999991985032700004-13267-043417FM-12+0440SBLP V0209991C00001220001CN9999999N9+02641+02421101171ADDAA106000091AG10999AY101061GF100991001001999999001001KA1240M+03351MA1999999096091MD1999999+0051MW1021REMSYN017333   10335 58005
0076832880999991985032712004-13267-043417FM-12+0440SBLP V0209991C00001220001CN0200001N9+02681+02181101381ADDAA106000091AG10001AY101061GF100991001001999999001001MA1999999096321MW1021
0129832880999991985032718004-13267-043417FM-12+0440SBLP V0202701N00151220001CN0200001N9+03281+02371101041ADDAA106000091AG10999AY101061GF103991999021008001001001MA1999999095981MD1999999+0021MW1021REMSYN011333   58002EQDQ01+000022SCOTLC
0129832880999991985032800004-13267-043417FM-12+0440SBLP V0209991C00001220001CN9999999N9+02621+02291101181ADDAA106000091AG10999AY101061GF101991011011008001001001KA1240M+03321MA1999999096091MD1410001+0001MW1021REMSYN017333   10332 58000
0129832880999991985032812004-13267-043417FM-12+0440SBLP V0203201N00051220001CN0200001N9+99999+99999101461ADDAA106000091AG10999AY101061GF104991021011008001001051KA1240N+02031MA1999999096351MD1999999-0031MW1021REMSYN017333   20203 59003
0110832880999991985032818004-13267-043417FM-12+0440SBLP V0201601N00151012001CN0200001N9+03141+02321101001ADDAA106000091AG10999AY121061GF106991051081008001001041MA1999999095921MD1999999-0061MW1171REMSYN011333   59006
0129832880999991985032900004-13267-043417FM-12+0440SBLP V0202301N000519999999N9999999N9+02331+02161101171ADDAA106000091AG10999AY101061GF108991999999008001999999KA1240M+03241MA1999999096061MD1999999-0031MW1021REMSYN017333   10324 59003
0129832880999991985032912004-13267-043417FM-12+0440SBLP V0201801N00151007501CN0100001N9+02321+02131101571ADDAA106000091AG10999AY101061GF108991061041008001021001KA1240N+02201MA1999999096411MD1999999+0061MW1021REMSYN017333   20220 58006
0110832880999991985032918004-13267-043417FM-12+0440SBLP V0203201N00101045001CN0200001N9+02631+02141101111ADDAA106000091AG10999AY101061GF105991031051008001091021MA1999999096091MD1999999+0071MW1021REMSYN011333   58007
0129832880999991985033000004-13267-043417FM-12+0440SBLP V0200901N00101220001CN9999999N9+02281+02161101201ADDAA106000091AG10999AY101061GF102991021011008001001001KA1240M+02691MA1999999096071MD1999999+0011MW1021REMSYN017333   10269 58001
0135832880999991985033012004-13267-043417FM-12+0440SBLP V0202701N00151045001CN0200001N9+02281+02161101381ADDAA124003091AG10999AY151061GF106991031081008001031001KA1240N+02051MA1999999096231MD1999999-0181MW1021REMSYN023333   20205 59018 60034
0110832880999991985033018004-13267-043417FM-12+0440SBLP V0203201N00151045001CN0200001N9+02941+02211100921ADDAA106000091AG10999AY101061GF107991031021008001011001MA1999999095831MD1999999-0261MW1021REMSYN011333   59026
0129832880999991985033100004-13267-043417FM-12+0440SBLP V0200501N00151220001CN9999999N9+02461+02401101141ADDAA106000091AG10999AY101061GF106991001001999999001081KA1240M+03001MA1999999096021MD1999999-0051MW1021REMSYN017333   10300 59005
0129832880999991985033112004-13267-043417FM-12+0440SBLP V0203201N00151220001CN0200001N9+02571+02151101361ADDAA106000091AG10999AY101061GF101991011061008001001001KA1240N+02051MA1999999096251MD1999999+0021MW1021REMSYN017333   20205 58002
0110832880999991985033118004-13267-043417FM-12+0440SBLP V0203201N00151220001CN0200001N9+03051+02231100991ADDAA106000091AG10999AY101061GF105991031021008001001081MA1999999095911MD1999999+0081MW1021REMSYN011333   58008
0164832880999991985040100004-13267-043417FM-12+0440SBLP V0201801N001519999999N9999999N9+02401+01791101301ADDAA106000091AG10999AY101061GA1091+999999999GF109991061061999999011001KA1240M+03081MA1999999096221MD1999999+0201MW1021REMSYN017333   10308 58020EQDQ01+000992SCOLCB
0110832880999991985040118004-13267-043417FM-12+0440SBLP V0200901N00311012001CN0200001N9+02981+02251100961ADDAA106000091AG10999AY101061GF107991051081008001001081MA1999999095871MD1999999-0041MW1021REMSYN011333   59004
0135832880999991985040212004-13267-043417FM-12+0440SBLP V0202701N00151220001CN0200001N9+02501+02091101531ADDAA124004091AG10999AY101061GF104991021021008001031001KA1240N+02161MA1999999086411MD1999999+0071MW1021REMSYN023333   20216 58007 60044
0135832880999991985040218004-13267-043417FM-12+0440SBLP V0202701N00051007501CN0200001N9+02621+02231101131ADDAA106011091AG10999AY161061GF106991061051008001001001MA1999999096022MD1999999+0151MW1031REMSYN017333   58015 60111EQDQ01+096023APOSP 
0129832880999991985040300004-13267-043417FM-12+0440SBLP V0201801N00151012001CN9999999N9+02521+02231101411ADDAA106000091AG10999AY101061GF107991051081008001021001KA1240M+02961MA1999999096291MD1999999+0141MW1021REMSYN017333   10296 58014
0129832880999991985040301004-13267-043417FM-12+0440SBLP V0201801N00151012001CN9999999N9+02521+02231101411ADDAA106000091AG10999AY101011GF107991051081008001021001KA1240M+02961MA1999999096291MD1999999+0141MW1021REMSYN017333   10296 58014
0154832880999991985040312004-13267-043417FM-12+0440SBLP V0201801N00151220001CN0200001N9+02401+02091101641ADDAA124011091AG10999AY161061GF103991999001008001021001KA1240N+01951MA1999999096581MD1999999+0011MW1031REMSYN023333   20195 58001 60114EQDQ01+000022SCOTLC
0110832880999991985040318004-13267-043417FM-12+0440SBLP V0203201N00151220001CN0200001N9+03041+02061101331ADDAA106000091AG10999AY101061GF105991031021008001001011MA1999999096231MD1999999+0211MW1021REMSYN011333   58021
0129832880999991985040400004-13267-043417FM-12+0440SBLP V0201401N00101045001CN9999999N9+02501+02191101311ADDAA106000091AG10999AY101061GF107991031081008001071001KA1240M+03071MA1999999096191MD1999999-0101MW1021REMSYN017333   10307 59010
0129832880999991985040412004-13267-043417FM-12+0440SBLP V0202701N00151220001CN0200001N9+02501+02171101441ADDAA106000091AG10999AY101061GF103991031001008001021001KA1240N+02041MA1999999096361MD1999999-0221MW1021REMSYN017333   20204 59022
0110832880999991985040418004-13267-043417FM-12+0440SBLP V0203201N00151220001CN0200001N9+03011+02161101111ADDAA106000091AG10999AY101061GF106991031011008001001041MA1999999096011MD1999999-0221MW1021REMSYN011333   59022
0129832880999991985040500004-13267-043417FM-12+0440SBLP V0200901N00051105001CN9999999N9+02431+02151101301ADDAA106000091AG10999AY101061GF107991001001999999001051KA1240M+03061MA1999999096181MD1999999-0011MW1021REMSYN017333   10306 59001
0148832880999991985040512004-13267-043417FM-12+0440SBLP V0201801N00101007501CN0200001N9+02381+02091101241ADDAA106000091AG10999AY101061GF106991999001008001021001KA1240N+02031MA1999999096161MD1999999-0201MW1021REMSYN017333   20203 59020EQDQ01+000052SCOTLC
0110832880999991985040518004-13267-043417FM-12+0440SBLP V0201401N00151105001CN0200001N9+02951+02211100941ADDAA106000091AG10999AY101061GF106991011021008001001081MA1999999095851MD1999999-0161MW1021REMSYN011333   59016
0129832880999991985040600004-13267-043417FM-12+0440SBLP V0209991C00001220001CN9999999N9+02401+02311101181ADDAA106000091AG10999AY101061GF100991001001999999001001KA1240M+03001MA1999999096121MD1999999-0061MW1021REMSYN017333   10300 59006
0129832880999991985040612004-13267-043417FM-12+0440SBLP V0201801N00151220001CN9999999N9+02421+02051101351ADDAA106000091AG10999AY101061GF100991001001999999001001KA1240N+01941MA1999999096231MD1999999+0071MW1021REMSYN017333   20194 58007
0110832880999991985040718004-13267-043417FM-12+0440SBLP V0201801N00361220001CN0200001N9+03081+02071101081ADDAA106000091AG10999AY101061GF104991041081008001001001MA1999999095991MD1999999+0171MW1021REMSYN011333   58017
0129832880999991985040812004-13267-043417FM-12+0440SBLP V0201801N00051220001CN0200001N9+02521+02021101461ADDAA106000091AG10999AY101061GF102991021011008001031041KA1240N+02031MA1999999096331MD1999999-0051MW1021REMSYN017333   20203 59005
0110832880999991985040818004-13267-043417FM-12+0440SBLP V0200901N00151045001CN0200001N9+02961+02211101201ADDAA106000091AG10999AY101061GF107991041081008001021001MA1999999096111MD1999999+0121MW1021REMSYN011333   58012
0129832880999991985040900004-13267-043417FM-12+0440SBLP V0201401N00051220001CN9999999N9+02521+02271101291ADDAA106000091AG10999AY101061GF102991021011008001001001KA1240M+03051MA1999999096181MD1999999-0111MW1021REMSYN017333   10305 59011
0129832880999991985040912004-13267-043417FM-12+0440SBLP V0201801N00101220001CN0200001N9+02501+02171101311ADDAA106000091AG10999AY101061GF104991021041008001021001KA1240N+01991MA1999999096251MD1999999-0081MW1021REMSYN017333   20199 59008
0110832880999991985040918004-13267-043417FM-12+0440SBLP V0202301N00151220001CN0200001N9+03081+02131100891ADDAA106000091AG10999AY101061GF103991031021008001001001MA1999999095811MD1999999-0301MW1021REMSYN011333   59030
0146832880999991985041012004-13267-043417FM-12+0440SBLP V0201801N00151045001CN0200001N9+02481+02091101241ADDAA106000091AA224000691AG10999AY101061GF106991041041008001021001KA1240N+02191MA1999999096141MD1999999-0111MW1021REMSYN023333   20219 59011 69964
0114832880999991985041018004-13267-043417FM-12+0440SBLP V0200501N00151012001CN0200001N9+03061+02401100911ADDAA106000091AG10999AY101061GF107991051081008001001081MD1999999+0021MW1021REMSYN011333   58002EQDQ01+098583APOSP 
0164832880999991985041100004-13267-043417FM-12+0440SBLP V0203601N00101220001CN9999999N9+02481+02291103382ADDAA106000091AG10999AY101061GF103991021051999999021999KA1240M+03101MA1999999096341MD1999999+0151MW1021REMSYN017333   10310 58015EQDQ01+000992SCOLCBQ02+103383APOSLP
0129832880999991985041112004-13267-043417FM-12+0440SBLP V0203201N00151012001CN0200001N9+02521+02271101481ADDAA106000091AG10999AY101061GF106991061081008001001001KA1240N+02151MA1999999096361MD1999999+0221MW1021REMSYN017333   20215 58022
0110832880999991985041118004-13267-043417FM-12+0440SBLP V0201401N00101220001CN0200001N9+03101+02291101051ADDAA106000091AG10999AY101061GF104991041021008001001001MA1999999095991MD1999999+0101MW1021REMSYN011333   58010
0129832880999991985041200004-13267-043417FM-12+0440SBLP V0200901N00151220001CN9999999N9+02581+02171101291ADDAA106000091AG10999AY111061GF103991031081008001001001KA1240M+03221MA1999999096181MD1999999+0041MW1131REMSYN017333   10322 58004
0129832880999991985041212004-13267-043417FM-12+0440SBLP V0203601N00051012001CN9999999N9+02461+02211101731ADDAA106000091AG10999AY101061GF106991061081008001001001KA1240N+02111MA1999999096601MD1999999+0241MW1021REMSYN017333   20211 58024
0129832880999991985041300004-13267-043417FM-12+0440SBLP V0203601N00051045001CN9999999N9+02641+02091101521ADDAA106000091AG10001AY101061GF105991041081008001021001KA1240M+03171MA1999999096401MD1999999+0221MW1151REMSYN017333   10317 58022
0146832880999991985041312004-13267-043417FM-12+0440SBLP V0201801N00261220001CN0200001N9+02561+01991101731ADDAA124000691AA299000591AG10999AY101061GF103991011011008001001041KA1240N+02091MA1999999096611MD1999999+0011MW1021REMSYN023333   20209 58001 69964
0110832880999991985041318004-13267-043417FM-12+0440SBLP V0200901N00151220001CN0200001N9+03021+02071101231ADDAA106000091AG10999AY101061GF103991011021008001001041MA1999999096131MD1999999-0021MW1021REMSYN011333   59002
0135832880999991985041400004-13267-043417FM-12+0440SBLP V0203601N00101220001CN9999999N9+02361+02261101431ADDAA106013091AG10999AY161061GF103991031011008001001001KA1240M+03081MA1999999096311MD1999999-0091MW1021REMSYN023333   10308 59009 60131
0135832880999991985041412004-13267-043417FM-12+0440SBLP V0201401N00151220001CN0200001N9+02481+02051101621ADDAA124013091AG10999AY101061GF101991011011008001001001KA1240N+01971MA1999999096481MD1999999-0131MW1021REMSYN023333   20197 59013 60134
0110832880999991985041418004-13267-043417FM-12+0440SBLP V0201801N00101220001CN0200001N9+03061+02191101051ADDAA106000091AG10999AY101061GF104991041021008001001001MA1999999095961MD1999999-0171MW1021REMSYN011333   59017
0129832880999991985041500004-13267-043417FM-12+0440SBLP V0200501N00101220001CN9999999N9+02321+02091101261ADDAA106000091AG10999AY101061GF100991001001999999001001KA1240M+03121MA1999999096141MD1999999-0171MW1021REMSYN017333   10312 59017
0129832880999991985041512004-13267-043417FM-12+0440SBLP V0200501N00151220001CN0200001N9+02541+01881101501ADDAA106000091AG10999AY101061GF100991001001999999001001KA1240N+01981MA1999999096371MD1999999-0111MW1021REMSYN017333   20198 59011
0110832880999991985041518004-13267-043417FM-12+0440SBLP V0203201N00151220001CN0200001N9+03161+01891101061ADDAA106000091AG10999AY101061GF103991031021008001001001MA1999999095961MD1410001+0001MW1021REMSYN011333   58000
0129832880999991985041612004-13267-043417FM-12+0440SBLP V0203601N00101220001CN0200001N9+02581+02171101361ADDAA106000091AG10999AY101061GF100991001001999999001001KA1240N+02041MA1999999096301MD1999999-0071MW1021REMSYN017333   20204 59007
0110832880999991985041618004-13267-043417FM-12+0440SBLP V0202301N00211220001CN0200001N9+03181+02281101051ADDAA106000091AG10999AY101061GF104991031021008001061001MA1999999095991MD1999999+0031MW1021REMSYN011333   58003
0129832880999991985041712004-13267-043417FM-12+0440SBLP V0201801N00051220001CN0200001N9+02641+02001101511ADDAA106000091AG10999AY101061GF100991001001999999001001KA1240N+02011MA1999999096401MD1999999+0101MW1021REMSYN017333   20201 58010
0129832880999991985041718004-13267-043417FM-12+0440SBLP V0202701N03602220001CN0200001N9+03181+02011101101ADDAA106000091AG10001AY101061GF105991031021008001001011MA1999999096011MD1999999+0021MW1021REMSYN011333   58002EQDQ01+003603WOSPD 
0110832880999991985041818004-13267-043417FM-12+0440SBLP V0202701N00101220001CN0200001N9+03161+01461100811ADDAA106000091AG10999AY101061GF104991021021008001001041MA1999999095741MD1999999-0271MW1021REMSYN011333   59027
0129832880999991985041912004-13267-043417FM-12+0440SBLP V0200501N00101220001CN0200001N9+02581+01991101401ADDAA106000091AG10999AY101061GF102991001001999999001021KA1240N+01871MA1999999096281MD1999999-0131MW1021REMSYN017333   20187 59013
0110832880999991985041918004-13267-043417FM-12+0440SBLP V0202701N00151105001CN0200001N9+03161+01181100941ADDAA106000091AG10999AY101061GF105991041021008001001021MA1999999096861MD1999999-0121MW1021REMSYN011333   59012
0148832880999991985042000004-13267-043417FM-12+0440SBLP V0209991C00001220001CN9999999N9+02521+02021101131ADDAA106000091AG10999AY101061GF100991001001999999001001KA1240M+03221MA1999999096042MD1999999-0031MW1021REMSYN017333   10322 59003EQDQ01+096043APOSP 
0129832880999991985042012004-13267-043417FM-12+0440SBLP V0201401N00151220001CN0200001N9+02601+01871101351ADDAA106000091AG10999AY101061GF100991001001999999001001KA1240N+01921MA1999999096241MD1999999-0041MW1021REMSYN017333   20192 59004
0110832880999991985042018004-13267-043417FM-12+0440SBLP V0201401N00151220001CN0200001N9+03101+01971100961ADDAA106000091AG10999AY101061GF104991041021008001001001MA1999999095881MD1999999+0061MW1021REMSYN011333   58006
0129832880999991985042100004-13267-043417FM-12+0440SBLP V0203601N00151220001CN9999999N9+02401+01651101201ADDAA106000091AG10999AY101061GF100991001001999999001001KA1240M+03201MA1999999096141MD1999999+0101MW1021REMSYN017333   10320 58010
0129832880999991985042112004-13267-043417FM-12+0440SBLP V0201401N00311220001CN0200001N9+02451+01821101301ADDAA106000091AG10999AY101061GF102991021061008001001001KA1240N+01941MA1999999096181MD1999999-0061MW1021REMSYN017333   20194 59006
0110832880999991985042118004-13267-043417FM-12+0440SBLP V0201801N00151220001CN0200001N9+02901+01991101191ADDAA106000091AG10999AY101061GF104991031011008001041001MA1999999095911MD1999999+0031MW1021REMSYN011333   58003
0129832880999991985042200004-13267-043417FM-12+0440SBLP V0201801N00101220001CN9999999N9+02201+01761101131ADDAA106000091AG10999AY101061GF100991001001999999001001KA1240M+02901MA1999999096041MD1999999-0101MW1021REMSYN017333   10290 59010
0129832880999991985042212004-13267-043417FM-12+0440SBLP V0201801N00151220001CN0200001N9+02341+01761101481ADDAA106000091AG10999AY101061GF101991011011008001001001KA1240N+01931MA1999999096351MD1999999+0171MW1021REMSYN017333   20193 58017
0129832880999991985042218004-13267-043417FM-12+0440SBLP V0200901N002119999999N0200001N9+03041+01851101121ADDAA106000091AG10999AY101061GF105991999051008001001001MA1999999096001MD1999999+0091MW1021REMSYN011333   58009EQDQ01+000022SCOTLC
0129832880999991985042300004-13267-043417FM-12+0440SBLP V0201401N00051220001CN9999999N9+02321+01671101241ADDAA106000091AG10999AY101061GF100991001001999999001001KA1240M+03121MA1999999096121MD1999999+0081MW1021REMSYN017333   10312 58008
0129832880999991985042312004-13267-043417FM-12+0440SBLP V0201801N00151007501CN0100001N9+02341+01761101671ADDAA106000091AG10999AY101061GF107991061011008001021001KA1240N+01861MA1999999096531MD1999999+0181MW1021REMSYN017333   20186 58018
0099832880999991985042318004-13267-043417FM-12+0440SBLP V0201801N00151045001CN0100001N9+02781+01761101531ADDAG10999AY101061GF105991041081008001021001MA1999999096401MD1999999+0161MW1021REMSYN011333   58016
0129832880999991985042400004-13267-043417FM-12+0440SBLP V0201801N00101220001CN9999999N9+02321+01941101361ADDAA106000091AG10999AY101061GF101991011011008001001001KA1240M+02941MA1999999096231MD1999999+0111MW1021REMSYN017333   10294 58011
0110832880999991985042418004-13267-043417FM-12+0440SBLP V0200901N00261220001CN0200001N9+03161+01891101011ADDAA106000091AG10999AY101061GF102991021011008001001001MA1999999095931MD1999999-0301MW1021REMSYN011333   59030
0129832880999991985042512004-13267-043417FM-12+0440SBLP V0201401N00311220001CN0200001N9+02481+01981101291ADDAA106000091AG10999AY101061GF100991001001999999001001KA1240N+01931MA1999999096171MD1999999-0151MW1021REMSYN017333   20193 59015
0110832880999991985042518004-13267-043417FM-12+0440SBLP V0201401N00261220001CN0200001N9+03161+01821100831ADDAA106000091AG10999AY101061GF104991041031008001001001MA1999999095751MD1999999-0181MW1021REMSYN011333   59018
0129832880999991985042612004-13267-043417FM-12+0440SBLP V0201401N00311220001CN0200001N9+02441+01601101411ADDAA106000091AG10999AY101061GF102991001001999999001081KA1240N+01931MA1999999096281MD1999999+0111MW1021REMSYN017333   20193 58011
0110832880999991985042618004-13267-043417FM-12+0440SBLP V0201801N00151220001CN0200001N9+03181+02011100841ADDAA106000091AG10999AY101061GF100991001001999999001001MA1999999095781MD1999999+0031MW1021REMSYN011333   58003
0129832880999991985042700004-13267-043417FM-12+0440SBLP V0200901N00151220001CN9999999N9+02461+01781101061ADDAA106000091AG10999AY101061GF102991021001008001031001KA1240M+03201MA1999999095961MD1999999-0031MW1021REMSYN017333   10320 59003
0129832880999991985042712004-13267-043417FM-12+0440SBLP V0201801N00151220001CN0200001N9+02481+01801101461ADDAA106000091AG10999AY101061GF100991001001999999001001KA1240N+02481MA1999999096341MD1999999+0061MW1021REMSYN017333   20248 58006
0110832880999991985042718004-13267-043417FM-12+0440SBLP V0202701N00211220001CN0200001N9+03221+01771100921ADDAA106000091AG10999AY101061GF101991011011008001001001MA1999999095841MD1999999+0061MW1021REMSYN011333   58006
0148832880999991985042800004-13267-043417FM-12+0440SBLP V0201401N00151220001CN0200001N9+02571+01901101371ADDAA106000091AG10999AY101061GF103991001001999999001041KA1240N+01901MA1999999096251MD1999999-0091MW1021REMSYN017333   20190 59009EQDQ01+000952SCOLCB
0148832880999991985042812004-13267-043417FM-12+0440SBLP V0201401N00151220001CN0200001N9+02571+01901101371ADDAA106000091AG10999AY101061GF103991001001999999001041KA1240N+01901MA1999999096251MD1999999-0091MW1021REMSYN017333   20190 59009EQDQ01+000952SCOLCB
0110832880999991985042818004-13267-043417FM-12+0440SBLP V0202301N00151220001CN0200001N9+03221+01771100931ADDAA106000091AG10999AY101061GF103991031021008001001001MA1999999095851MD1999999+0011MW1021REMSYN011333   58001
0135832880999991985042900004-13267-043417FM-12+0440SBLP V0201401N00151220001CN9999999N9+02421+01951101141ADDAA106000391AG10999AY161061GF101991011011008001001001KA1240M+03271MA1999999096301MD1999999+0181MW1021REMSYN023333   10327 58018 69931
0135832880999991985042912004-13267-043417FM-12+0440SBLP V0201401N00101220001CN0200001N9+02581+02061101311ADDAA124000391AG10999AY101061GF103991011001022501031011KA1240N+01961MA1999999096201MD1999999-0051MW1021REMSYN023333   20196 59005 69934
0129832880999991985043012004-13267-043417FM-12+0440SBLP V0200901N00151045001CN0200001N9+02601+02101101041ADDAA106000091AG10999AY101061GF106991041011008001041001KA1240N+02241MA1999999095981MD1999999-0221MW1021REMSYN017333   20224 59022
0110832880999991985043018004-13267-043417FM-12+0440SBLP V0203201N00151220001CN0200001N9+03241+01781100851ADDAA106000091AG10999AY101061GF101991011011008001001001MA1999999095791MD1999999-0051MW1021REMSYN011333   59005
0129832880999991985050112004-13267-043417FM-12+0440SBLP V0203601N00151220001CN0200001N9+02581+02191101341ADDAA106000091AG10999AY101061GF104991021021008001051001KA1240N+02301MA1999999096241MD1410001+0001MW1021REMSYN017333   20230 58000
0129832880999991985050212004-13267-043417FM-12+0440SBLP V0200501N00151220001CN0200001N9+02621+02031101481ADDAA106000091AG10999AY101061GF104991021021008001031041KA1240N+02351MA1999999096371MD1999999+0131MW1021REMSYN017333   20235 58013
0116832880999991985050218004-13267-043417FM-12+0440SBLP V0202701N00151045001CN0200001N9+02581+02121101101ADDAA106005091AG10999AY161061GF106991021031008001021001MA1999999095981MD1999999+0281MW1031REMSYN017333   58028 60051
0154832880999991985050312004-13267-043417FM-12+0440SBLP V0201801N00101007501CN0100001N9+02441+01951101591ADDAA124055091AG10999AY101061GF107991999051008001001001KA1240N+02271MA1999999096451MD1999999+0081MW1151REMSYN023333   20227 58008 60554EQDQ01+000062SCOTLC
0110832880999991985050318004-13267-043417FM-12+0440SBLP V0202701N00101220001CN0200001N9+02101+01371101091ADDAA106000091AG10999AY101061GF103991011021008001001041MA1999999095981MD1410001+0001MW1021REMSYN011333   58000
0148832880999991985050412004-13267-043417FM-12+0440SBLP V0201801N00151220001CN0200001N9+02541+02151101441ADDAA106000091AG10999AY101061GF103991001001999999001021KA1240N+02041MA1999999096381MD1999999-0071MW1021REMSYN017333   20204 59007EQDQ01+000952SCOLCB
0110832880999991985050418004-13267-043417FM-12+0440SBLP V0201401N00211045001CN0200001N9+03021+02211101071ADDAA106000091AG10999AY101061GF106991031021008001061001MA1999999095991MD1999999+0011MW1021REMSYN011333   58001
0110832880999991985050518004-13267-043417FM-12+0440SBLP V0201401N00211007501CN0200001N9+03181+01801101051ADDAA106000091AG10999AY101061GF105991051021008001001001MA1999999095971MD1999999-0021MW1021REMSYN011333   59002
0129832880999991985050612004-13267-043417FM-12+0440SBLP V0201801N00151220001CN0200001N9+02421+01881101681ADDAA106000091AG10999AY101061GF102991021011008001001001KA1240N+02091MA1999999096541MD1999999+0091MW1021REMSYN017333   20209 58009
0110832880999991985050618004-13267-043417FM-12+0440SBLP V0201401N00151007501CN0200001N9+02961+01811101281ADDAA106000091AG10999AY101061GF105991051021008001001001MA1999999096161MD1999999+0191MW1021REMSYN011333   58019
0129832880999991985050712004-13267-043417FM-12+0440SBLP V0201801N00151220001CN0200001N9+02321+01601101831ADDAA106000091AG10999AY101061GF103991001001999999001021KA1240N+02001MA1999999096661MD1999999+0121MW1021REMSYN017333   20200 58012
0110832880999991985050718004-13267-043417FM-12+0440SBLP V0202301N00151220001CN0200001N9+03121+01681101181ADDAA106000091AG10999AY101061GF102991021011008001001001MA1999999096091MD1999999-0071MW1021REMSYN011333   59007
0110832880999991985050818004-13267-043417FM-12+0440SBLP V0203201N00211220001CN0200001N9+03141+01971101061ADDAA106000091AG10999AY101061GF102991021011008001001001MA1999999095961MD1999999-0131MW1021REMSYN011333   59013
0129832880999991985050900004-13267-043417FM-12+0440SBLP V0209991C00001220001CN9999999N9+02581+01991101171ADDAA106000091AG10999AY101061GF100991001001999999001001KA1240M+03201MA1999999096111MD1999999-0131MW1021REMSYN017333   10320 59013
0129832880999991985050912004-13267-043417FM-12+0440SBLP V0202301N00101220001CN0200001N9+02471+01941101431ADDAA106000091AG10999AY101061GF100991001001999999001001KA1240N+01881MA1999999096321MD1999999-0151MW1021REMSYN017333   20188 59015
0110832880999991985050918004-13267-043417FM-12+0440SBLP V0202701N00151045001CN0200001N9+03281+02291100991ADDAA106000091AG10999AY101061GF106991031021008001051001MA1999999095931MD1999999-0031MW1021REMSYN011333   59003
0129832880999991985051012004-13267-043417FM-12+0440SBLP V0209991C00001220001CN9999999N9+02641+01831101181ADDAA106000091AG10999AY101061GF100991001001999999001001KA1240N+01911MA1999999096091MD1999999+0231MW1021REMSYN017333   20191 58023
0129832880999991985051018004-13267-043417FM-12+0440SBLP V0202301N02061220001CN0200001N9+03301+01591100821ADDAA106000091AG10999AY101061GF103991999011008001001001MA1999999095751MD1999999-0131MW1021REMSYN011333   59013EQDQ01+000012SCOTLC
0148832880999991985051100004-13267-043417FM-12+0440SBLP V0202301N00051220001CN9999999N9+02641+01831100921ADDAA106000091AG10999AY101061GF100991001001999999001001KA1240M+03321MA1999999096952MD1999999-0231MW1021REMSYN017333   10332 59023EQDQ01+096953APOSP 
0129832880999991985051112004-13267-043417FM-12+0440SBLP V0203601N00261220001CN0200001N9+02521+02191101201ADDAA106000091AG10999AY101061GF106991001001999999001061KA1240N+01791MA1999999096111MD1999999+0021MW1021REMSYN017333   20179 58002
0110832880999991985051118004-13267-043417FM-12+0440SBLP V0203601N00151105001CN0200001N9+03221+01981100791ADDAA106000091AG10999AY101061GF108991031021008001001061MA1999999095721MD1999999-0031MW1021REMSYN011333   59003
0110832880999991985051218004-13267-043417FM-12+0440SBLP V0203201N00211007501CN0100001N9+02891+02021101151ADDAA106000091AG10999AY101061GF107991051021008001021001MA1999999096031MD1999999+0311MW1021REMSYN011333   58031
0129832880999991985051300004-13267-043417FM-12+0440SBLP V0200901N00101220001CN9999999N9+02401+02111101201ADDAA106000091AG10999AY101061GF100991001001999999001001KA1240M+02921MA1999999096091MD1999999+0071MW1021REMSYN017333   10292 58007
0129832880999991985051312004-13267-043417FM-12+0440SBLP V0201801N00051220001CN0200001N9+02541+02111101561ADDAA106000091AG10999AY101061GF104991021011008001031001KA1240N+01951MA1999999096431MD1999999+0181MW1021REMSYN017333   20195 58018
0110832880999991985051318004-13267-043417FM-12+0440SBLP V0203201N00151220001CN0200001N9+03201+02031101141ADDAA106000091AG10001AY101061GF104991031011008001001021MA1999999096051MD1999999+0021MW1021REMSYN011333   58002
0129832880999991985051400004-13267-043417FM-12+0440SBLP V0202701N00051220001CN9999999N9+02581+02061101371ADDAA106000091AG10999AY101061GF100991001001999999001001KA1240M+03201MA1999999096311MD1999999+0121MW1021REMSYN017333   10320 58012
0146832880999991985051412004-13267-043417FM-12+0440SBLP V0200501N00211220001CN0200001N9+02621+02101101611ADDAA124000291AA299000391AG10999AY161061GF102991021001008001031001KA1240N+01981MA1999999096491MD1999999+0061MW1021REMSYN023333   20198 58006 69924
0110832880999991985051418004-13267-043417FM-12+0440SBLP V0201001N00151220001CN0200001N9+99999+99999101131ADDAA106000091AG10999AY101061GF104991031021008001061001MA1999999096071MD1999999+0021MW1021REMSYN011333   58002
0129832880999991985051500004-13267-043417FM-12+0440SBLP V0209991C00001220001CN9999999N9+02561+01951101331ADDAA106000091AG10999AY101061GF102991021001022501071001KA1240M+03261MA1999999096231MD1999999-0081MW1021REMSYN017333   10326 59008
0129832880999991985051512004-13267-043417FM-12+0440SBLP V0209991C00001220001CN0200001N9+02781+01821101481ADDAA106000091AG10999AY101061GF100991001001999999001001KA1240N+01891MA1999999096381MD1999999-0111MW1021REMSYN017333   20189 59011
0110832880999991985051518004-13267-043417FM-12+0440SBLP V0202301N00261220001CN0200001N9+03291+01621101151ADDAA106000091AG10999AY101061GF102991021021008001001001MA1999999096061MD1999999-0011MW1021REMSYN011333   59001
0129832880999991985051600004-13267-043417FM-12+0440SBLP V0201401N00311220001CN9999999N9+02441+01691101331ADDAA106000091AG10999AY101061GF100991001001999999001001KA1240M+03321MA1999999096231MD1410001+0001MW1021REMSYN017333   10332 58000
0129832880999991985051612004-13267-043417FM-12+0440SBLP V0200901N00211220001CN0200001N9+02641+01881101561ADDAA106000091AG10999AY101061GF103991001001999999001011KA1240N+01891MA1999999096441MD1999999+0061MW1021REMSYN017333   20189 58006
0110832880999991985051618004-13267-043417FM-12+0440SBLP V0200901N00211220001CN0200001N9+03301+01801101061ADDAA106000091AG10999AY101061GF104991041021008001001001MA1999999095981MD1999999-0081MW1021REMSYN011333   59008
0129832880999991985051700004-13267-043417FM-12+0440SBLP V0200901N00151220001CN9999999N9+02441+01481101321ADDAA106000091AG10999AY101061GF100991001001999999001001KA1240M+03201MA1999999096211MD1999999-0021MW1021REMSYN017333   10320 59002
0129832880999991985051712004-13267-043417FM-12+0440SBLP V0201201N00211220001CN0200001N9+02441+01901101601ADDAA106000091AG10999AY101061GF100991001001999999001001KA1240N+01891MA1999999096541MD1999999-0101MW1021REMSYN017333   20189 59010
0110832880999991985051718004-13267-043417FM-12+0440SBLP V0201401N00151220001CN0200001N9+03111+01241101181ADDAA106000091AG10999AY101061GF103991021011008001001021MA1999999096071MD1999999+0091MW1021REMSYN011333   58009
0129832880999991985051812004-13267-043417FM-12+0440SBLP V0201401N00311220001CN0200001N9+02441+01741101661ADDAA106000091AG10999AY101061GF104991041011008001001001KA1240N+01941MA1999999096531MD1999999-0011MW1021REMSYN017333   20194 59001
0076832880999991985051818004-13267-043417FM-12+0440SBLP V0200901N00311220001CN0200001N9+03121+01891101111ADDAA106000091AG10999AY101061GF104991041011008001001001MA1999999096031MW1021
0129832880999991985051900004-13267-043417FM-12+0440SBLP V0201401N00311220001CN9999999N9+02601+01961101401ADDAA106000091AG10999AY101061GF104991041001008001041001KA1240M+03181MA1999999096341MD1999999+0041MW1021REMSYN017333   10318 58004
0129832880999991985051912004-13267-043417FM-12+0440SBLP V0201401N00311220001CN0200001N9+02381+01841101601ADDAA106000091AG10999AY101061GF102991021001022501031001KA1240N+02061MA1999999096471MD1999999-0061MW1021REMSYN017333   20206 59006
0110832880999991985051918004-13267-043417FM-12+0440SBLP V0201401N00211007501CN0200001N9+03001+02241101171ADDAA106000091AG10999AY101061GF106991061021008001061001MA1999999096111MD1999999+0081MW1021REMSYN011333   58008
0129832880999991985052000004-13267-043417FM-12+0440SBLP V0201401N00211220001CN9999999N9+02471+01921101381ADDAA106000091AG10999AY101061GF102991021001022501071001KA1240M+03061MA1999999096311MD1999999-0031MW1021REMSYN017333   10306 59003
0129832880999991985052012004-13267-043417FM-12+0440SBLP V0201401N00151220001CN0200001N9+02641+01721101601ADDAA106000091AG10999AY101061GF100991001001999999001001KA1240N+02101MA1999999096481MD1999999+0011MW1021REMSYN017333   20210 58001
0110832880999991985052018004-13267-043417FM-12+0440SBLP V0201801N00211220001CN0200001N9+03081+01641101071ADDAA106000091AG10999AY101061GF103991031011008001001001MA1999999095991MD1999999-0121MW1021REMSYN011333   59012
0129832880999991985052112004-13267-043417FM-12+0440SBLP V0202301N00211220001CN0200001N9+02361+01641101591ADDAA106000091AG10999AY101061GF100991001001999999001001KA1240N+01791MA1999999096461MD1999999-0021MW1021REMSYN017333   20179 59002
0110832880999991985052118004-13267-043417FM-12+0440SBLP V0203201N00261220001CN0200001N9+03141+01691101141ADDAA106000091AG10999AY101061GF101991011011008001001001MA1999999096031MD1999999+0041MW1021REMSYN011333   58004
0129832880999991985052200004-13267-043417FM-12+0440SBLP V0202701N00051220001CN9999999N9+02241+01671101341ADDAA106000091AG10999AY101061GF100991001001999999001001KA1240M+03141MA1999999096211MD1999999+0021MW1021REMSYN017333   10314 58002
0129832880999991985052212004-13267-043417FM-12+0440SBLP V0202701N00051220001CN0200001N9+02441+01661101611ADDAA106000091AG10999AY101061GF102991001001999999001041KA1240N+01781MA1999999096471MD1999999+0011MW1021REMSYN017333   20178 58001
0110832880999991985052218004-13267-043417FM-12+0440SBLP V0202701N00051220001CN0200001N9+03311+00991101171ADDAA106000091AG10999AY101061GF102991021011008001001001MA1999999096071MD1999999+0041MW1021REMSYN011333   58004
0129832880999991985052300004-13267-043417FM-12+0440SBLP V0202301N00101220001CN9999999N9+02571+01901101191ADDAA106000091AG10999AY101061GF100991001001999999001001KA1240M+03341MA1999999096081MD1999999-0131MW1021REMSYN017333   10334 59013
0129832880999991985052312004-13267-043417FM-12+0440SBLP V0202301N00151220001CN0200001N9+02501+01771101531ADDAA106000091AG10999AY101061GF101991001001999999001011KA1240N+01801MA1999999096411MD1999999-0061MW1021REMSYN017333   20180 59006
0110832880999991985052318004-13267-043417FM-12+0440SBLP V0201801N00151007501CN0200001N9+03171+01551101271ADDAA106000091AG10999AY101061GF105991051011008001001001MA1999999096161MD1999999+0091MW1021REMSYN011333   58009
0129832880999991985052400004-13267-043417FM-12+0440SBLP V0201801N00101220001CN9999999N9+02541+01391101321ADDAA106000091AG10999AY101061GF100991001001999999001001KA1240M+03201MA1999999096241MD1999999+0161MW1021REMSYN017333   10320 58016
0129832880999991985052412004-13267-043417FM-12+0440SBLP V0201801N00151220001CN0200001N9+02461+01781101681ADDAA106000091AG10999AY101061GF104991001001999999001021KA1240N+01931MA1999999096551MD1999999+0151MW1021REMSYN017333   20193 58015
0110832880999991985052418004-13267-043417FM-12+0440SBLP V0201801N00311045001CN0200001N9+03081+01711101301ADDAA106000091AG10999AY101061GF106991031011008001031001MA1999999096241MD1999999+0181MW1021REMSYN011333   58018
0110832880999991985052518004-13267-043417FM-12+0440SBLP V0201401N00311007501CN0200001N9+02861+01781101441ADDAA106000091AG10999AY101061GF107991071021008001001001MA1999999096311MD1999999+0071MW1021REMSYN011333   58007
0129832880999991985052612004-13267-043417FM-12+0440SBLP V0201801N00151220001CN0200001N9+02321+01701101701ADDAA106000091AG10999AY101061GF101991011011008001001001KA1240N+01791MA1999999096691MD1999999+0061MW1021REMSYN017333   20179 58006
0110832880999991985052618004-13267-043417FM-12+0440SBLP V0202701N00311220001CN0200001N9+03141+01661101341ADDAA106000091AG10999AY101061GF103991031011008001001001MA1999999096221MD1999999-0091MW1021REMSYN011333   59009
0129832880999991985052700004-13267-043417FM-12+0440SBLP V0201801N00051220001CN9999999N9+02441+01401101571ADDAA106000091AG10999AY101061GF102991021001008001031001KA1240M+03141MA1999999096421MD1999999+0231MW1021REMSYN017333   10314 58023
0129832880999991985052712004-13267-043417FM-12+0440SBLP V0202301N00151220001CN0200001N9+02411+01881101601ADDAA106000091AG10999AY101061GF102991001001999999001041KA1240N+01891MA1999999096461MD1999999-0231MW1021REMSYN017333   20189 59023
0110832880999991985052718004-13267-043417FM-12+0440SBLP V0202301N00101007501CN0200001N9+03061+01771101301ADDAA106000091AG10999AY101061GF107991051021008001021001MA1999999096191MD1999999-0031MW1021REMSYN011333   59003
0129832880999991985052812004-13267-043417FM-12+0440SBLP V0202301N00051220001CN0200001N9+02521+01771101611ADDAA106000091AG10999AY101061GF101991001001999999001041KA1240N+01911MA1999999096491MD1999999+0031MW1021REMSYN017333   20191 58003
0110832880999991985052818004-13267-043417FM-12+0440SBLP V0202701N00101220001CN0200001N9+03261+01801101091ADDAA106000091AG10999AY101061GF103991031011008001001001MA1999999096011MD1999999-0181MW1021REMSYN011333   59018
0129832880999991985052900004-13267-043417FM-12+0440SBLP V0201401N00101220001CN9999999N9+02601+01891101371ADDAA106000091AG10999AY101061GF100991001001999999001001KA1240M+03341MA1999999096311MD1999999+0061MW1021REMSYN017333   10334 58006
0129832880999991985052912004-13267-043417FM-12+0440SBLP V0200901N00151220001CN0200001N9+02521+01931101541ADDAA106000091AG10999AY101061GF100991001001999999001001KA1240N+01811MA1999999096481MD1999999-0011MW1021REMSYN017333   20181 59001
0110832880999991985052918004-13267-043417FM-12+0440SBLP V0201801N00261220001CN0200001N9+03201+02271101151ADDAA106000091AG10999AY101061GF103991031011008001001001MA1999999096091MD1999999+0081MW1021REMSYN011333   58008
0129832880999991985053012004-13267-043417FM-12+0440SBLP V0200901N00261220001CN0200001N9+02721+02191101681ADDAA106000091AG10999AY101061GF100991001001999999001001KA1240N+01931MA1999999096561MD1999999+0081MW1021REMSYN017333   20193 58008
0110832880999991985053018004-13267-043417FM-12+0440SBLP V0201801N00261220001CN0200001N9+03131+01601101251ADDAA106000091AG10999AY101061GF103991031021008001001001MA1999999096141MD1999999+0051MW1021REMSYN011333   58005
0129832880999991985053100004-13267-043417FM-12+0440SBLP V0201801N00151220001CN9999999N9+02441+01641101531ADDAA106000091AG10999AY101061GF103991011011008001031001KA1240M+03221MA1999999096421MD1999999+0121MW1021REMSYN017333   10322 58012
0129832880999991985053112004-13267-043417FM-12+0440SBLP V0201801N00211220001CN0200001N9+02381+01681101881ADDAA106000091AG10001AY101061GF102991001001999999001011KA1240N+01831MA1999999096731MD1999999+0171MW1021REMSYN017333   20183 58017
0110832880999991985053118004-13267-043417FM-12+0440SBLP V0200901N00261220001CN0200001N9+03121+01641101441ADDAA106000091AG10999AY101061GF104991041011008001001001MA1999999096411MD1999999+0171MW1021REMSYN011333   58017
0129832880999991985060112004-13267-043417FM-12+0440SBLP V0201801N00151220001CN0200001N9+02321+01581101831ADDAA106000091AG10999AY101061GF100991001001999999001001KA1240N+01741MA1999999096671MD1999999-0061MW1021REMSYN017333   20174 59006
0110832880999991985060118004-13267-043417FM-12+0440SBLP V0201401N00151220001CN0200001N9+02991+01511101371ADDAA106000091AG10999AY101061GF104991041011008001001001MA1999999096191MD1999999-0121MW1021REMSYN011333   59012
0129832880999991985060200004-13267-043417FM-12+0440SBLP V0201401N00051220001CN9999999N9+02241+01431101391ADDAA106000091AG10999AY101061GF102991021001017501031001KA1240M+03021MA1999999096251MD1999999+0191MW1021REMSYN017333   10302 58019
0129832880999991985060211004-13267-043417FM-12+0440SBLP V0202301N00211220001CN0200001N9+02341+01851101601ADDAA106000091AG10999AY101999GF100991001001999999001001KA1240N+01831MA1999999096451MD1999999-0221MW1021REMSYN017333   20183 59022
0129832880999991985060212004-13267-043417FM-12+0440SBLP V0202301N00211220001CN0200001N9+02341+01851101601ADDAA106000091AG10999AY101061GF100991001001999999001001KA1240N+01831MA1999999096451MD1999999-0221MW1021REMSYN017333   20183 59022
0110832880999991985060218004-13267-043417FM-12+0440SBLP V0202301N00311220001CN0200001N9+03021+01661101151ADDAA106000091AG10999AY101061GF104991041021008001001001MA1999999096041MD1999999-0151MW1021REMSYN011333   59015
0076832880999991985060312004-13267-043417FM-12+0440SBLP V0209991C00001220001CN0200001N9+02561+01801101511ADDAA106000091AG10999AY101061GF100991001001999999001001MA1999999096391MW1021
0110832880999991985060318004-13267-043417FM-12+0440SBLP V0202301N00211220001CN0200001N9+03161+01511101081ADDAA106000091AG10999AY101061GF104991041021008001001001MA1999999095981MD1999999-0061MW1021REMSYN011333   59006
0129832880999991985060412004-13267-043417FM-12+0440SBLP V0203601N00151045001CN0200001N9+02481+01701101451ADDAA106000091AG10999AY101061GF105991031021008001031001KA1240N+01911MA1999999096331MD1999999-0061MW1021REMSYN017333   20191 59006
0110832880999991985060418004-13267-043417FM-12+0440SBLP V0209991C00001220001CN0200001N9+03081+01681101021ADDAA106000091AG10999AY101061GF105991041021008001001081MA1999999095921MD1999999-0061MW1021REMSYN011333   59006
0129832880999991985060512004-13267-043417FM-12+0440SBLP V0203201N00051105001CN0200001N9+02441+01791101421ADDAA106000091AG10999AY101061GF107991041011008001001021KA1240N+01951MA1999999096301MD1999999-0031MW1021REMSYN017333   20195 59003
0110832880999991985060518004-13267-043417FM-12+0440SBLP V0202301N00101220001CN0200001N9+03201+01551101051ADDAA106000091AG10999AY101061GF103991021011008001001041MA1999999095971MD1999999+0021MW1021REMSYN011333   58002
0129832880999991985060612004-13267-043417FM-12+0440SBLP V0202301N00261220001CN0200001N9+02401+01771101511ADDAA106000091AG10999AY101061GF103991011011008001031001KA1240N+01901MA1999999096391MD1999999+0091MW1021REMSYN017333   20190 58009
0110832880999991985060618004-13267-043417FM-12+0440SBLP V0202301N00211105001CN0200001N9+03141+01871101201ADDAA106000091AG10999AY101061GF105991031021008001001021MA1999999096111MD1999999+0141MW1021REMSYN011333   58014
0129832880999991985060700004-13267-043417FM-12+0440SBLP V0203601N00151220001CN9999999N9+02441+01661101461ADDAA106000091AG10999AY101061GF100991001001999999001001KA1240M+03141MA1999999096331MD1999999+0241MW1021REMSYN017333   10314 58024
0115832880999991985060712004-13267-043417FM-12+0440SBLP V0202301N00151105001CN0200001N9+02311+01351101751ADDAA106000091AG10999GF106991021011008001001081KA1240N+01871MA1999999096621MD1999999+0231REMSYN017333   20187 58023
0096832880999991985060718004-13267-043417FM-12+0440SBLP V0202301N00101045001CN0200001N9+02981+01351101401ADDAA106000091AG10999GF106991011011008001071081MA1999999096271MD1999999+0161REMSYN011333   58016
0115832880999991985060800004-13267-043417FM-12+0440SBLP V0201801N00151220001CN9999999N9+02421+01571101461ADDAA106000091AG10999GF100991001001999999001001KA1240M+03041MA1999999096331MD1410001+0001REMSYN017333   10304 58000
0115832880999991985060812004-13267-043417FM-12+0440SBLP V0201801N00211045001CN0200001N9+02221+01551101681ADDAA106000091AG10999GF106991021011008001071001KA1240N+01841MA1999999096531MD1999999-0091REMSYN017333   20184 59009
0096832880999991985060818004-13267-043417FM-12+0440SBLP V0202301N00311045001CN0200001N9+02881+01501101331ADDAA106000091AG10999GF105991031021008001031021MA1999999096211MD1999999-0061REMSYN011333   59006
0115832880999991985060912004-13267-043417FM-12+0440SBLP V0201801N00261015001CN0100001N9+02101+00991101721ADDAA106000091AG10999GF107991071001017501021001KA1240N+01861MA1999999096591MD1999999+0061REMSYN017333   20186 58006
0096832880999991985060918004-13267-043417FM-12+0440SBLP V0202301N00051220001CN0200001N9+02921+01131101611ADDAA106000091AG10999GF103991021011008001031001MA1999999096481MD1999999+0271REMSYN011333   58027
0134832880999991985061012004-13267-043417FM-12+0440SBLP V0201801N00361220001CN0200001N9+01881+01041102121ADDAA106000091AG10999GF101991001001999999001011KA1240N+01551MA1999999096821MD1999999+0331REMSYN017333   20155 58033EQDQ01+000012SCOTLC
0096832880999991985061018004-13267-043417FM-12+0440SBLP V0202301N00211220001CN0200001N9+02721+01241101621ADDAA106000091AG10999GF104991021001012501031041MA1999999096461MD1999999-0031REMSYN011333   59003
0115832880999991985061100004-13267-043417FM-12+0440SBLP V0201801N00211220001CN9999999N9+02181+01121101911ADDAA106000091AG10999GF100991001001999999001001KA1240M+02821MA1999999096721MD1999999+0131REMSYN017333   10282 58013
0115832880999991985061112004-13267-043417FM-12+0440SBLP V0202301N00261021001CN0200001N9+01921+00941102131ADDAA106000091AG10999GF106991061001022501071001KA1240N+01591MA1999999096931MD1999999+0011REMSYN017333   20159 58001
0096832880999991985061118004-13267-043417FM-12+0440SBLP V0202301N00151021001CN0200001N9+02751+01481101711ADDAA106000091AG10999GF106991061001022501071001MA1999999096541MD1999999+0081REMSYN011333   58008
0115832880999991985061200004-13267-043417FM-12+0440SBLP V0200901N00261220001CN9999999N9+02141+01571101931ADDAA106000091AG10999GF100991001001999999001001KA1240M+02801MA1999999096731MD1999999+0011REMSYN017333   10280 58001
0115832880999991985061212004-13267-043417FM-12+0440SBLP V0201801N00211021001CN0200001N9+02041+01411102081ADDAA106000091AG10999GF105991051001022501051001KA1240N+01711MA1999999096881MD1999999-0051REMSYN017333   20171 59005
0096832880999991985061218004-13267-043417FM-12+0440SBLP V0202301N00311045001CN0200001N9+02721+01591101651ADDAA106000091AG10999GF108991021011008001071999MA1999999096491MD1999999-0051REMSYN011333   59005
0115832880999991985061300004-13267-043417FM-12+0440SBLP V0201801N00151220001CN0200001N9+02101+01371102001ADDAA106000091AG10999GF100991001001999999001001KA1240N+01541MA1999999096811MD1999999-0071REMSYN017333   20154 59007
0115832880999991985061312004-13267-043417FM-12+0440SBLP V0201801N00151220001CN0200001N9+02101+01371102001ADDAA106000091AG10999GF100991001001999999001001KA1240N+01541MA1999999096811MD1999999-0071REMSYN017333   20154 59007
0115832880999991985061318004-13267-043417FM-12+0440SBLP V0202301N00261220001CN0200001N9+02921+00881101551ADDAA106000091AG10999GF100991001001999999001001MA1999999096411MD1999999-0081REMSYN011333   59008EQDQ01+000022SCOHCG
0115832880999991985061412004-13267-043417FM-12+0440SBLP V0201401N00261220001CN0200001N9+02061+01491102011ADDAA106000091AG10999GF101991001001999999001021KA1240N+01481MA1999999096821MD1999999+0021REMSYN017333   20148 58002
0096832880999991985061418004-13267-043417FM-12+0440SBLP V0201401N00311220001CN0200001N9+02921+01341101551ADDAA106000091AG10999GF101991001001999999001021MA1999999096391MD1999999-0021REMSYN011333   59002
0115832880999991985061512004-13267-043417FM-12+0440SBLP V0202301N00101220001CN0200001N9+02051+01301102031ADDAA106000091AG10999GF100991001001999999001001KA1240N+01511MA1999999096831MD1999999+0011REMSYN017333   20151 58001
0096832880999991985061518004-13267-043417FM-12+0440SBLP V0202301N00311220001CN0200001N9+02921+01131101521ADDAA106000091AG10999GF100991001001999999001001MA1999999096361MD1999999-0031REMSYN011333   59003
0096832880999991985061519004-13267-043417FM-12+0440SBLP V0202301N00311220001CN0200001N9+02921+01131101521ADDAA106000091AG10999GF100991001001999999001001MA1999999096361MD1999999-0031REMSYN011333   59003
0062832880999991985061612004-13267-043417FM-12+0440SBLP V0201801N00101220001CN0200001N9+01901+01341101941ADDAA106000091AG10999GF100991001001999999001001MA1999999096731
0096832880999991985061618004-13267-043417FM-12+0440SBLP V0202301N00261220001CN0200001N9+02931+01391101501ADDAA106000091AG10999GF100991001001999999001001MA1999999096351MD1999999-0011REMSYN011333   59001
0115832880999991985061700004-13267-043417FM-12+0440SBLP V0201801N00051220001CN9999999N9+02181+01151101731ADDAA106000091AG10999GF100991001001999999001001KA1240M+03031MA1999999096551MD1999999+0011REMSYN017333   10303 58001
0134832880999991985061712004-13267-043417FM-12+0440SBLP V0201401N00311220001CN0200001N9+01801+01351101891ADDAA106000091AG10999GF100991001001999999001001KA1240N+01121MA1999999999999MD1999999+0031REMSYN017333   20112 58003EQDQ01 092043APOSP 
0115832880999991985061718004-13267-043417FM-12+0440SBLP V0202301N00151220001CN0200001N9+03081+01121101521ADDAA106000091AG10999GF100991001001999999001001MA1999999096402MD1999999+0051REMSYN011333   58005EQDQ01+096403APOSP 
0115832880999991985061812004-13267-043417FM-12+0440SBLP V0202301N00151220001CN0200001N9+02221+01331101961ADDAA106000091AG10999GF102991001001999999001021KA1240N+01571MA1999999096791MD1999999+0051REMSYN017333   20157 58005
0096832880999991985061818004-13267-043417FM-12+0440SBLP V0202301N00211220001CN0200001N9+03161+01601101511ADDAA106000091AG10999GF102991021011008001001001MA1999999096361MD1999999-0041REMSYN011333   59004
0115832880999991985061912004-13267-043417FM-12+0440SBLP V0201801N00211105001CN0200001N9+02181+01261102161ADDAA106000091AG10999GF107991001001999999001081KA1240N+01611MA1999999096981MD1999999+0191REMSYN017333   20161 58019
0096832880999991985061918004-13267-043417FM-12+0440SBLP V0201401N00261105001CN0200001N9+02781+01261101791ADDAA106000091AG10999GF108991001001999999001081MA1999999096621MD1999999+0261REMSYN011333   58026
0134832880999991985062012004-13267-043417FM-12+0440SBLP V0201801N002619999999N0200001N9+02121+01441102131ADDAA106000091AG10999GF105991001001999999001061KA1240N+01701MA1999999096931MD1999999-0051REMSYN017333   20170 59005EQDQ01+000942SCOLCB
0096832880999991985062018004-13267-043417FM-12+0440SBLP V0201801N00311220001CN0200001N9+02741+01181101731ADDAA106000091AG10999GF106991001001999999001081MA1999999096561MD1999999-0061REMSYN011333   59006
0115832880999991985062100004-13267-043417FM-12+0440SBLP V0201401N00151220001CN9999999N9+02151+01451101941ADDAA106000091AG10999GF102991001001999999001061KA1240M+02811MA1999999096761MD1999999-0061REMSYN017333   10281 59006
0115832880999991985062112004-13267-043417FM-12+0440SBLP V0202301N00261220001CN0200001N9+02071+01561102091ADDAA106000091AG10999GF100991001001999999001001KA1240N+01581MA1999999096891MD1999999-0041REMSYN017333   20158 59004
0096832880999991985062118004-13267-043417FM-12+0440SBLP V0201401N00101045001CN0200001N9+02861+01781101671ADDAA106000091AG10999GF106991031011008001031001MA1999999096511MD1999999-0051REMSYN011333   59005
0115832880999991985062212004-13267-043417FM-12+0440SBLP V0201401N00101220001CN0200001N9+02381+01841101931ADDAA106000091AG10999GF101991011011008001001001KA1240N+01821MA1999999096961MD1999999-0131REMSYN017333   20182 59013
0132832880999991985062300004-13267-043417FM-12+0440SBLP V0201801N00151220001CN9999999N9+02321+01531101791ADDAA106000091AA299591092AG10999GF100991001001999999001001KA1240M+03041MA1999999096641MD1999999-0101REMSYN023333   10304 59010 65910
0115832880999991985062312004-13267-043417FM-12+0440SBLP V0201801N00101220001CN0200001N9+02251+01801101991ADDAA106000091AG10999GF100991001001999999001001KA1240N+01811MA1999999096821MD1999999+0061REMSYN017333   20181 58006
0096832880999991985062318004-13267-043417FM-12+0440SBLP V0201401N00261007501CN0200001N9+03061+01661101401ADDAA106000091AG10999GF105991051021008001001001MA1999999096271MD1999999-0111REMSYN011333   59011
0115832880999991985062400004-13267-043417FM-12+0440SBLP V0201801N00151220001CN9999999N9+02361+01611101671ADDAA106000091AG10999GF100991001001999999001001KA1240M+03121MA1999999096521MD1999999-0121REMSYN017333   10312 59012
0115832880999991985062412004-13267-043417FM-12+0440SBLP V0201801N00151045001CN0200001N9+02141+01841101911ADDAA106000091AG10999GF106991011011008001051021KA1240N+01831MA1999999096741MD1999999-0081REMSYN017333   20183 59008
0096832880999991985062418004-13267-043417FM-12+0440SBLP V0201401N00211007501CN0200001N9+02861+01621101441ADDAA106000091AG10999GF106991061041008001001001MA1999999096311MD1999999+0041REMSYN011333   58004
0134832880999991985062512004-13267-043417FM-12+0440SBLP V0201801N001519999999N0200001N9+02161+01301101861ADDAA106000091AG10999GF105991001001999999001041KA1240N+01751MA1999999096691MD1999999-0051REMSYN017333   20175 59005EQDQ01+000952SCOLCB
0096832880999991985062518004-13267-043417FM-12+0440SBLP V0202301N00211220001CN0200001N9+03021+01301101491ADDAA106000091AG10999GF103991031011008001001001MA1999999096371MD1999999+0061REMSYN011333   58006
0115832880999991985062600004-13267-043417FM-12+0440SBLP V0201401N00151220001CN9999999N9+02211+01171101731ADDAA106000091AG10999GF100991001001999999001001KA1240M+03031MA1999999096561MD1999999+0031REMSYN017333   10303 58003
0115832880999991985062612004-13267-043417FM-12+0440SBLP V0201801N00051220001CN0200001N9+02111+01371101981ADDAA106000091AG10999GF100991001001999999001001KA1240N+01581MA1999999096801MD1999999+0111REMSYN017333   20158 58011
0096832880999991985062618004-13267-043417FM-12+0440SBLP V0203301N00261220001CN0200001N9+02911+01221101561ADDAA106000091AG10999GF102991021011008001001001MA1999999096421MD1999999+0051REMSYN011333   58005
0115832880999991985062700004-13267-043417FM-12+0440SBLP V0202301N00151220001CN9999999N9+02121+01291101731ADDAA106000091AG10999GF100991001001999999001001KA1240M+02961MA1999999096551MD1999999-0011REMSYN017333   10296 59001
0115832880999991985062712004-13267-043417FM-12+0440SBLP V0209991C00001220001CN0200001N9+02041+01341102031ADDAA106000091AG10999GF100991001001999999001001KA1240N+01551MA1999999096841MD1999999+0041REMSYN017333   20155 58004
0115832880999991985062800004-13267-043417FM-12+0440SBLP V0201801N00211220001CN9999999N9+02321+01311101721ADDAA106000091AG10999GF102991021001012501031001KA1240M+02941MA1999999096561MD1999999+0011REMSYN017333   10294 58001
0115832880999991985062812004-13267-043417FM-12+0440SBLP V0201801N00151220001CN0200001N9+02191+01401101801ADDAA106000091AG10999GF100991001001999999001001KA1240N+01591MA1999999096641MD1999999-0201REMSYN017333   20159 59020
0096832880999991985062818004-13267-043417FM-12+0440SBLP V0202301N00211220001CN0200001N9+02901+01321101361ADDAA106000091AG10999GF103991031011008001001001MA1999999096221MD1999999-0201REMSYN011333   59020
0115832880999991985062912004-13267-043417FM-12+0440SBLP V0203601N00051220001CN0200001N9+02221+01221101661ADDAA106000091AG10999GF102991021011008001001001KA1240N+01551MA1999999096501MD1999999+0051REMSYN017333   20155 58005
0096832880999991985062918004-13267-043417FM-12+0440SBLP V0202301N00151220001CN0200001N9+02981+00771101221ADDAA106000091AG10999GF104991041011008001001001MA1999999096111MD1999999+0111REMSYN011333   58011
0115832880999991985063012004-13267-043417FM-12+0440SBLP V0200501N00101220001CN0200001N9+02321+01501101821ADDAA106000091AG10999GF104991001001999999001021KA1240N+01601MA1999999096661MD1999999+0161REMSYN017333   20160 58016
0096832880999991985063018004-13267-043417FM-12+0440SBLP V0202301N00151045001CN0200001N9+03021+01511101401ADDAA106000091AG10999GF106991021011008001031021MA1999999096271MD1999999+0161REMSYN011333   58016
0134832880999991985070100004-13267-043417FM-12+0440SBLP V0201401N001519999999N9999999N9+02301+01381101511ADDAA106000091AG10999GF106991041011999999031001KA1240M+03081MA1999999096451MD1999999+0141REMSYN017333   10308 58014EQDQ01+000992SCOLCB
0115832880999991985070112004-13267-043417FM-12+0440SBLP V0200501N00101220001CN0200001N9+02401+01731101941ADDAA106000091AG10999GF100991001001999999001001KA1240N+01711MA1999999096481MD1999999-0181REMSYN017333   20171 59018
0115832880999991985070118004-13267-043417FM-12+0440SBLP V0202301N00211220001CN0200001N9+03081+01951101501ADDAA106000091AG10999GF104991999021008001001001MA1999999096441MD1999999+0171REMSYN011333   58017EQDQ01+000032SCOTLC
0115832880999991985070212004-13267-043417FM-12+0440SBLP V0202301N00101021001CN0200001N9+02061+01521102241ADDAA106000091AG10999GF108991081001022501051999KA1240N+01721MA1999999097051MD1999999+0211REMSYN017333   20172 58021
0096832880999991985070218004-13267-043417FM-12+0440SBLP V0202301N00151220001CN0200001N9+03121+01351101621ADDAA106000091AG10999GF103991031011008001001001MA1999999096491MD1999999+0051REMSYN011333   58005
0115832880999991985070300004-13267-043417FM-12+0440SBLP V0201801N00151220001CN9999999N9+02421+01511101811ADDAA106000091AG10999GF100991001001999999001001KA1240M+03121MA1999999096651MD1999999-0031REMSYN017333   10312 59003
0115832880999991985070312004-13267-043417FM-12+0440SBLP V0201801N00101220001CN0200001N9+02241+01551102011ADDAA106000091AG10999GF100991001001999999001001KA1240N+01771MA1999999096841MD1999999-0211REMSYN017333   20177 59021
0096832880999991985070318004-13267-043417FM-12+0440SBLP V0201801N00311220001CN0200001N9+03261+01471101461ADDAA106000091AG10999GF104991041021008001001001MA1999999096351MD1999999-0141REMSYN011333   59014
0115832880999991985070400004-13267-043417FM-12+0440SBLP V0201801N00151220001CN9999999N9+02581+01821101631ADDAA106000091AG10999GF100991001001999999001001KA1240M+03281MA1999999096491MD1999999-0161REMSYN017333   10328 59016
0115832880999991985070412004-13267-043417FM-12+0440SBLP V0201401N00151220001CN0200001N9+02581+01661101901ADDAA106000091AG10999GF100991001001999999001001KA1240N+01821MA1999999096771MD1999999-0071REMSYN017333   20182 59007
0110832880999991985070418004-13267-043417FM-12+0440SBLP V0202301N00151012001CN0200001N9+02791+01751101451ADDAA106000091AG10999AY101061GF107991071081008001001001MA1999999096321MD1999999-0031MW1161REMSYN011333   59003
