0112833980999991985021106004-15667-038933FM-12+000599999V0209991C00001045001CN0140001N9+02411+02321101001ADDAA106000291AA299000391AG10999AY161061GF106991041021008001031001MD1999999+0031MW1151REMSYN017333   58003 69921
0135833980999991985021712004-15667-038933FM-12+000599999V0202301N00101045001CN0100001N9+02521+02381101351ADDAA124010091AG10999AY161061GF107991041051008001041001KA1240N+02091MA1999999101301MD1999999+0041MW1011REMSYN023333   20209 58004 60104
0129833980999991985021900004-15667-038933FM-12+000599999V0209991C00001004201CN0001001N9+02531+02381100861ADDAA106000091AG10999AY111061GF107991071051004501999999KA1240M+03261MA1999999096881MD1999999-0111MW1031REMSYN017333   10326 59011
0120833980999991985030412004-15667-038933FM-12+000599999V0201601N003119999999N0120001N9+02441+02391101101ADDAA124018091AG10999AY161061GF108991999999004501999999KA1240N+02381MD1999999-0121MW1611REMSYN023333   20238 59012 60184
0075833980999991985030718004-15667-038933FM-12+000599999V0200501N00461220001CN0100001N9-00941-01241094081ADDAA106000091AG10999AY101061GF100991001001999999001001MD1310121+9999MW1021
0070833980999991985060821004-15667-038933FM-12+000599999V0200901N00311220001CN0200001N9+02761+02361101301ADDAG10999GF102991021011008001001001MD1999999-0061REMSYN011333   59006
0117833980999991985061512004-15667-038933FM-12+000599999V0201601N00311220001CN0200001N9+02721+02301101541ADDAA124000291AA299000391AG10999GF102991021011008001001001KA1240N+02261MD1999999-0131REMSYN023333   20226 59013 69924
0106833980999991985062412004-15667-038933FM-12+000599999V0201701N00721220001CN0200001N9+02591+02201101531ADDAA124009091AG10999GF100991001001999999001001KA1240N+02271MD1999999-0071REMSYN023333   20227 59007 60094
0070833980999991985062721004-15667-038933FM-12+000599999V0201001N00261220001CN0200001N9+02801+02311101401ADDAG10999GF102991001001999999001011MD1999999+0061REMSYN011333   58006
0120833980999991985063012004-15667-038933FM-12+000599999V0202001N00311045001CN0080001N9+02521+02361101561ADDAA124012091AG10001AY161061GF108991041021004501021999KA1240N+02341MD1999999+0081MW1611REMSYN023333   20234 58008 60124
0127833980999991985071318004-15667-038933FM-12+000599999V0209999999999004201CN0020001N9+02401+01771102141ADDAA106003091AA299000091AG10999AY161061GF199999061051004501021999MA1999999102121MD1999999+0131MW1161REMSYN017333   58013 60031
0115833980999991985071400004-15667-038933FM-12+000599999V0201801N00211021001CN9999999N9+02001+01811102271ADDAA106000091AG10999GF106991061001022501011001KA1240M+02481MA1999999102211MD1999999+0031REMSYN017333   10248 58003
