0143825640999992008010100004-05533-047500FM-15+0131SBIZ V0200301N005112200019N0112651N1+02501+02301999999ADDGA1041+006001999GA2041+090001999GF104991999999999999999999MA1101081999999REMMET058METAR SBIZ 010000Z 03010KT 9999 SCT020 SCT300 25/23 Q1011;
0120825640999992008010101004-05533-047500FM-15+0131SBIZ V0200301N005112200019N0112651N1+02501+02301999999ADDGA1041+006001999GF104991999999999999999999MA1101081999999REMMET051METAR SBIZ 010100Z 03010KT 9999 SCT020 25/23 Q1011;
0120825640999992008010102004-05533-047500FM-15+0131SBIZ V0203601N001512200019N0112651N1+02501+02301999999ADDGA1041+006001999GF104991999999999999999999MA1101081999999REMMET051METAR SBIZ 010200Z 36003KT 9999 SCT020 25/23 Q1011;
0129825640999992008010108004-05533-047500FM-15+0131SBIZ V0201001N001510045019N0050001N1+02401+02301999999ADDGA1071+004501999GF107991999999999999999999MA1101021999999MW1101REMMET054METAR SBIZ 010800Z 10003KT 5000 BR BKN015 24/23 Q1010;
0120825640999992008010109004-05533-047500FM-15+0131SBIZ V0209999C000010045019N0080001N1+02401+02201999999ADDGA1071+004501999GF107991999999999999999999MA1101081999999REMMET051METAR SBIZ 010900Z 00000KT 8000 BKN015 24/22 Q1011;
0143825640999992008010110004-05533-047500FM-15+0131SBIZ V0202001N001010210019N0090001N1+02401+02301999999ADDGA1041+009001999GA2081+021001999GF108991999999999999999999MA1101081999999REMMET058METAR SBIZ 011000Z 20002KT 9000 SCT030 OVC070 24/23 Q1011;
0143825640999992008010111004-05533-047500FM-15+0131SBIZ V0201601N001510210019N0090001N1+02501+02301999999ADDGA1041+009001999GA2081+021001999GF108991999999999999999999MA1101191999999REMMET058METAR SBIZ 011100Z 16003KT 9000 SCT030 OVC070 25/23 Q1012;
0166825640999992008010112004-05533-047500FM-15+0131SBIZ V0201501N002610060019N0112651N1+02501+02301999999ADDGA1041+001501999GA2071+006001999GA3081+021001999GF108991999999999999999999MA1101291999999REMMET065METAR SBIZ 011200Z 15005KT 9999 SCT005 BKN020 OVC070 25/23 Q1013;
0166825640999992008010113004-05533-047500FM-15+0131SBIZ V0201301N001010060019N0112651N1+02601+02301999999ADDGA1041+001501999GA2071+006001999GA3081+021001999GF108991999999999999999999MA1101291999999REMMET065METAR SBIZ 011300Z 13002KT 9999 SCT005 BKN020 OVC070 26/23 Q1013;
0166825640999992008010114004-05533-047500FM-15+0131SBIZ V0201201N001510060019N0112651N1+02701+02301999999ADDGA1041+001501999GA2071+006001999GA3081+021001999GF108991999999999999999999MA1101191999999REMMET065METAR SBIZ 011400Z 12003KT 9999 SCT005 BKN020 OVC070 27/23 Q1012;
0166825640999992008010115004-05533-047500FM-15+0131SBIZ V0209999C000010060019N0112651N1+02801+02301999999ADDGA1021+004501999GA2071+006001999GA3081+021001999GF108991999999999999999999MA1101191999999REMMET065METAR SBIZ 011500Z 00000KT 9999 FEW015 BKN020 OVC070 28/23 Q1012;
0166825640999992008010116004-05533-047500FM-15+0131SBIZ V0209999C000010060019N0112651N1+02901+02301999999ADDGA1021+004501999GA2071+006001999GA3081+021001999GF108991999999999999999999MA1101081999999REMMET065METAR SBIZ 011600Z 00000KT 9999 FEW015 BKN020 OVC070 29/23 Q1011;
0166825640999992008010117004-05533-047500FM-15+0131SBIZ V0202401N004110060019N0112651N1+02901+02401999999ADDGA1021+004501999GA2071+006001999GA3071+021001999GF107991999999999999999999MA1101021999999REMMET065METAR SBIZ 011700Z 24008KT 9999 FEW015 BKN020 BKN070 29/24 Q1010;
0166825640999992008010118004-05533-047500FM-15+0131SBIZ V0202401N00511021001CN0112651N1+02901+02301999999ADDGA1041+006001999GA2041+021001999GA3071+090001999GF107991999999999999999999MA1100911999999REMMET065METAR SBIZ 011800Z 24010KT 9999 SCT020 SCT070 BKN300 29/23 Q1009;
0143825640999992008010119004-05533-047500FM-15+0131SBIZ V0202201N002610900019N0112651N1+03001+02301999999ADDGA1041+006001999GA2071+090001999GF107991999999999999999999MA1100911999999REMMET058METAR SBIZ 011900Z 22005KT 9999 SCT020 BKN300 30/23 Q1009;
0143825640999992008010120004-05533-047500FM-15+0131SBIZ V0202101N002610900019N0112651N1+02901+02301999999ADDGA1041+006001999GA2071+090001999GF107991999999999999999999MA1100811999999REMMET058METAR SBIZ 012000Z 21005KT 9999 SCT020 BKN300 29/23 Q1008;
0143825640999992008010121004-05533-047500FM-15+0131SBIZ V0202301N001510300019N0112651N1+02801+02401999999ADDGA1021+004501999GA2071+030001999GF107991999999999999999999MA1100911999999REMMET058METAR SBIZ 012100Z 23003KT 9999 FEW015 BKN100 28/24 Q1009;
0143825640999992008010122004-05533-047500FM-15+0131SBIZ V0209999C000012200019N0112651N1+02601+02401999999ADDGA1021+004501999GA2041+030001999GF104991999999999999999999MA1101021999999REMMET058METAR SBIZ 012200Z 00000KT 9999 FEW015 SCT100 26/24 Q1010;
0120825640999992008010123004-05533-047500FM-15+0131SBIZ V0209999C000012200019N0112651N1+02601+02401999999ADDGA1021+004501999GF102991999999999999999999MA1101081999999REMMET051METAR SBIZ 012300Z 00000KT 9999 FEW015 26/24 Q1011;
0143825640999992008010200004-05533-047500FM-15+0131SBIZ V0209999C000012200019N0112651N1+02501+02401999999ADDGA1021+004501999GA2041+030001999GF104991999999999999999999MA1101081999999REMMET058METAR SBIZ 020000Z 00000KT 9999 FEW015 SCT100 25/24 Q1011;
0072825640999992008010201004-05533-047500FM-15+0131SBIZ V0209999C00001220001CN0099001N1+02501+02401999999ADDMA1101191999999REMMET045METAR SBIZ 020100Z 00000KT CAVOK 25/24 Q1012;
0143825640999992008010202004-05533-047500FM-15+0131SBIZ V0203601N007712200019N0112651N1+02501+02301999999ADDGA1021+002101999GA2041+004501999GF104991999999999999999999MA1101191999999REMMET058METAR SBIZ 020200Z 36015KT 9999 FEW007 SCT015 25/23 Q1012;
0129825640999992008010208004-05533-047500FM-15+0131SBIZ V0203301N002612200019N0050001N1+02201+02101999999ADDGA1041+006001999GF104991999999999999999999MA1101081999999MW1101REMMET054METAR SBIZ 020800Z 33005KT 5000 BR SCT020 22/21 Q1011;
0120825640999992008010209004-05533-047500FM-15+0131SBIZ V0201301N002110090019N0112651N1+02201+02101999999ADDGA1071+009001999GF107991999999999999999999MA1101191999999REMMET051METAR SBIZ 020900Z 13004KT 9999 BKN030 22/21 Q1012;
0143825640999992008010210004-05533-047500FM-15+0131SBIZ V0203301N001510210019N0112651N1+02201+02101999999ADDGA1041+009001999GA2071+021001999GF107991999999999999999999MA1101191999999REMMET058METAR SBIZ 021000Z 33003KT 9999 SCT030 BKN070 22/21 Q1012;
0143825640999992008010211004-05533-047500FM-15+0131SBIZ V0203301N002110210019N0112651N1+02401+02201999999ADDGA1041+009001999GA2071+021001999GF107991999999999999999999MA1101191999999REMMET058METAR SBIZ 021100Z 33004KT 9999 SCT030 BKN070 24/22 Q1012;
0143825640999992008010212004-05533-047500FM-15+0131SBIZ V0203601N003610300019N0112651N1+02501+02201999999ADDGA1041+003001999GA2071+030001999GF107991999999999999999999MA1101291999999REMMET058METAR SBIZ 021200Z 36007KT 9999 SCT010 BKN100 25/22 Q1013;
0143825640999992008010213004-05533-047500FM-15+0131SBIZ V0200901N002610060019N0112651N1+02801+02301999999ADDGA1071+006001999GA2071+021001999GF107991999999999999999999MA1101291999999REMMET058METAR SBIZ 021300Z 09005KT 9999 BKN020 BKN070 28/23 Q1013;
0143825640999992008010214004-05533-047500FM-15+0131SBIZ V0200301N005112200019N0112651N1+02801+02201999999ADDGA1041+006001999GA2041+021001999GF104991999999999999999999MA1101291999999REMMET058METAR SBIZ 021400Z 03010KT 9999 SCT020 SCT070 28/22 Q1013;
0143825640999992008010215004-05533-047500FM-15+0131SBIZ V0200901N004110060019N0112651N1+02901+02301999999ADDGA1041+004501999GA2071+006001999GF107991999999999999999999MA1101191999999REMMET058METAR SBIZ 021500Z 09008KT 9999 SCT015 BKN020 29/23 Q1012;
0143825640999992008010216004-05533-047500FM-15+0131SBIZ V0203601N005110060019N0112651N1+03001+02301999999ADDGA1041+004501999GA2071+006001999GF107991999999999999999999MA1101081999999REMMET058METAR SBIZ 021600Z 36010KT 9999 SCT015 BKN020 30/23 Q1011;
0166825640999992008010217004-05533-047500FM-15+0131SBIZ V0203301N00311009001CN0112651N1+02901+02201999999ADDGA1021+006001999GA2041+009001999GA3071+030001999GF107991999999999999999999MA1101021999999REMMET065METAR SBIZ 021700Z 33006KT 9999 FEW020 SCT030 BKN100 29/22 Q1010;
0162825640999992008010218004-05533-047500FM-15+0131SBIZ V0201101N002112200019N0112651N1+03201+02101999999ADDGA1021+004501999GA2041+006001999GA3021+007501021MA1100911999999REMMET068METAR SBIZ 021800Z 11004KT 9999 FEW015 SCT020 FEW025TCU 32/21 Q1009;EQDQ01+000022SCOTCV
0200825640999992008010219004-05533-047500FM-15+0131SBIZ V0200301N009310060019N0112651N1+03001+02201999999ADDGA1041+004501999GA2071+006001999GA3021+007501091GA4071+030001999GF107991999999999999999999MA1100911999999MW1171REMMET077METAR SBIZ 021900Z 03018KT 9999 TS SCT015 BKN020 FEW025CB BKN100 30/22 Q1009;
0171825640999992008010220004-05533-047500FM-15+0131SBIZ V0200401N00621006001CN0112651N1+02701+02401999999ADDGA1021+004501999GA2041+006001999GA3071+021001999GF107991999999999999999999MA1100911999999REMMET070METAR SBIZ 022000Z 04012KT 9999 FEW015 SCT020 BKN070 27/24 Q1009 RETS;
0209825640999992008010221004-05533-047500FM-15+0131SBIZ V0201301N007710036019N0080001N1+02701+02401999999ADDGA1071+003601999GA2071+006001999GA3021+007501091GA4081+021001999GF108991999999999999999999MA1101081999999MW1801MW2951REMMET080METAR SBIZ 022100Z 13015KT 8000 -TSRA BKN012 BKN020 FEW025CB OVC070 27/24 Q1011;
0191825640999992008010222004-05533-047500FM-15+0131SBIZ V0200301N00151007501CN0050001N1+02401+02301999999ADDGA1041+001801999GA2021+007501091GA3081+021001999GF108991999999999999999999MA1101081999999MW1801MW2951REMMET078METAR SBIZ 022200Z 03003KT 5000 -TSRA SCT006 FEW025CB OVC070 24/23 Q1011 RERA;
0158825640999992008010223004-05533-047500FM-15+0131SBIZ V0209999C000010210019N0112651N1+02401+02301999999ADDGA1041+004501999GA2071+021001999GF107991999999999999999999MA1101191999999MW1611REMMET067METAR SBIZ 022300Z 00000KT 9999 -RA SCT015 BKN070 24/23 Q1012 RETS;
0143825640999992008010300004-05533-047500FM-15+0131SBIZ V0201501N001010210019N0112651N1+02401+02301999999ADDGA1021+004501999GA2071+021001999GF107991999999999999999999MA1101081999999REMMET058METAR SBIZ 030000Z 15002KT 9999 FEW015 BKN070 24/23 Q1011;
0143825640999992008010301004-05533-047500FM-15+0131SBIZ V0201201N002110210019N0112651N1+02301+02301999999ADDGA1021+004501999GA2071+021001999GF107991999999999999999999MA1101191999999REMMET058METAR SBIZ 030100Z 12004KT 9999 FEW015 BKN070 23/23 Q1012;
0143825640999992008010302004-05533-047500FM-15+0131SBIZ V0209999C000010210019N0112651N1+02401+02301999999ADDGA1021+004501999GA2071+021001999GF107991999999999999999999MA1101291999999REMMET058METAR SBIZ 030200Z 00000KT 9999 FEW015 BKN070 24/23 Q1013;
0129825640999992008010308004-05533-047500FM-15+0131SBIZ V0201201N001012200019N0050001N1+02201+02101999999ADDGA1041+002401999GF104991999999999999999999MA1101081999999MW1101REMMET054METAR SBIZ 030800Z 12002KT 5000 BR SCT008 22/21 Q1011;
0152825640999992008010309004-05533-047500FM-15+0131SBIZ V0209999C000010021019N0009001N1+02201+02201999999ADDGA1021+001801999GA2071+002101999GF107991999999999999999999MA1101191999999MW1441REMMET061METAR SBIZ 030900Z 00000KT 0900 FG FEW006 BKN007 22/22 Q1012;
0152825640999992008010310004-05533-047500FM-15+0131SBIZ V0209999C000010021019N0030001N1+02301+02201999999ADDGA1021+001501999GA2071+002101999GF107991999999999999999999MA1101291999999MW1101REMMET061METAR SBIZ 031000Z 00000KT 3000 BR FEW005 BKN007 23/22 Q1013;
0143825640999992008010311004-05533-047500FM-15+0131SBIZ V0201801N002610060019N0112651N1+02401+02301999999ADDGA1041+003001999GA2071+006001999GF107991999999999999999999MA1101391999999REMMET058METAR SBIZ 031100Z 18005KT 9999 SCT010 BKN020 24/23 Q1014;
0120825640999992008010312004-05533-047500FM-15+0131SBIZ V0200901N004612200019N0112651N1+02601+02301999999ADDGA1041+006001999GF104991999999999999999999MA1101391999999REMMET051METAR SBIZ 031200Z 09009KT 9999 SCT020 26/23 Q1014;
0120825640999992008010313004-05533-047500FM-15+0131SBIZ V0200901N004112200019N0112651N1+02901+02401999999ADDGA1041+006001999GF104991999999999999999999MA1101391999999REMMET051METAR SBIZ 031300Z 09008KT 9999 SCT020 29/24 Q1014;
0120825640999992008010314004-05533-047500FM-15+0131SBIZ V0200901N005112200019N0112651N1+03101+02301999999ADDGA1041+006001999GF104991999999999999999999MA1101391999999REMMET051METAR SBIZ 031400Z 09010KT 9999 SCT020 31/23 Q1014;
0120825640999992008010315004-05533-047500FM-15+0131SBIZ V0200201N005112200019N0112651N1+03201+02201999999ADDGA1041+006001999GF104991999999999999999999MA1101291999999REMMET051METAR SBIZ 031500Z 02010KT 9999 SCT020 32/22 Q1013;
0120825640999992008010316004-05533-047500FM-15+0131SBIZ V0201001N006212200019N0112651N1+03201+02301999999ADDGA1041+006001999GF104991999999999999999999MA1101191999999REMMET051METAR SBIZ 031600Z 10012KT 9999 SCT020 32/23 Q1012;
0132825640999992008010317004-05533-047500FM-15+0131SBIZ V0200801N005112200019N0112651N1+03301+02201999999ADDGA1041+006001999GF104991999999999999999999MA1101191999999MW1801REMMET057METAR SBIZ 031700Z 08010KT 9999 -SHRA SCT020 33/22 Q1012;
0143825640999992008010318004-05533-047500FM-15+0131SBIZ V0200901N005110900019N0112651N1+03301+02201999999ADDGA1041+006001999GA2071+090001999GF107991999999999999999999MA1101081999999REMMET058METAR SBIZ 031800Z 09010KT 9999 SCT020 BKN300 33/22 Q1011;
0143825640999992008010319004-05533-047500FM-15+0131SBIZ V0201801N001012200019N0112651N1+03301+02101999999ADDGA1041+006001999GA2041+090001999GF104991999999999999999999MA1100911999999REMMET058METAR SBIZ 031900Z 18002KT 9999 SCT020 SCT300 33/21 Q1009;
0143825640999992008010320004-05533-047500FM-15+0131SBIZ V0202101N004110900019N0112651N1+03201+02201999999ADDGA1041+006001999GA2071+090001999GF107991999999999999999999MA1100911999999REMMET058METAR SBIZ 032000Z 21008KT 9999 SCT020 BKN300 32/22 Q1009;
0143825640999992008010321004-05533-047500FM-15+0131SBIZ V0209999C000012200019N0112651N1+03201+02201999999ADDGA1021+006001999GA2041+090001999GF104991999999999999999999MA1100911999999REMMET058METAR SBIZ 032100Z 00000KT 9999 FEW020 SCT300 32/22 Q1009;
0143825640999992008010322004-05533-047500FM-15+0131SBIZ V0209999C000012200019N0112651N1+02901+02401999999ADDGA1021+006001999GA2041+009001999GF104991999999999999999999MA1101021999999REMMET058METAR SBIZ 032200Z 00000KT 9999 FEW020 SCT030 29/24 Q1010;
0072825640999992008010323004-05533-047500FM-15+0131SBIZ V0209999C00001220001CN0099001N1+02701+02401999999ADDMA1101081999999REMMET045METAR SBIZ 032300Z 00000KT CAVOK 27/24 Q1011;
0072825640999992008010400004-05533-047500FM-15+0131SBIZ V0209999C00001220001CN0099001N1+02601+02501999999ADDMA1101191999999REMMET045METAR SBIZ 040000Z 00000KT CAVOK 26/25 Q1012;
0120825640999992008010401004-05533-047500FM-15+0131SBIZ V0201501N001512200019N0112651N1+02601+02501999999ADDGA1041+006001999GF104991999999999999999999MA1101191999999REMMET051METAR SBIZ 040100Z 15003KT 9999 SCT020 26/25 Q1012;
0125825640999992008010402004-05533-047500FM-15+0131SBIZ V0200901N001512200019N0112651N1+02501+02201999999ADDGA1041+006001999GF104991999999999999999999MA1101291999999REMMET056METAR SBIZ 040200Z 09003KT 9999 SCT020 25/22 Q1013 RETS;
0120825640999992008010403004-05533-047500FM-15+0131SBIZ V0209999C000012200019N0112651N1+02501+02201999999ADDGA1041+006001999GF104991999999999999999999MA1101291999999REMMET051METAR SBIZ 040300Z 00000KT 9999 SCT020 25/22 Q1013;
0072825640999992008010404004-05533-047500FM-15+0131SBIZ V0209999C00001220001CN0099001N1+02501+02301999999ADDMA1101191999999REMMET045METAR SBIZ 040400Z 00000KT CAVOK 25/23 Q1012;
0072825640999992008010405004-05533-047500FM-15+0131SBIZ V0200901N00411220001CN0099001N1+02401+02301999999ADDMA1101191999999REMMET045METAR SBIZ 040500Z 09008KT CAVOK 24/23 Q1012;
0143825640999992008010408004-05533-047500FM-15+0131SBIZ V0209999C000010300019N0080001N1+02401+02301999999ADDGA1021+004501999GA2071+030001999GF107991999999999999999999MA1101191999999REMMET058METAR SBIZ 040800Z 00000KT 8000 FEW015 BKN100 24/23 Q1012;
0143825640999992008010409004-05533-047500FM-15+0131SBIZ V0209999C000010300019N0112651N1+02301+02301999999ADDGA1021+004501999GA2071+030001999GF107991999999999999999999MA1101291999999REMMET058METAR SBIZ 040900Z 00000KT 9999 FEW015 BKN100 23/23 Q1013;
0143825640999992008010410004-05533-047500FM-15+0131SBIZ V0209999C000010300019N0112651N1+02401+02301999999ADDGA1021+009001999GA2071+030001999GF107991999999999999999999MA1101391999999REMMET058METAR SBIZ 041000Z 00000KT 9999 FEW030 BKN100 24/23 Q1014;
0143825640999992008010411004-05533-047500FM-15+0131SBIZ V0200901N002110300019N0112651N1+02601+02301999999ADDGA1021+006001999GA2071+030001999GF107991999999999999999999MA1101491999999REMMET058METAR SBIZ 041100Z 09004KT 9999 FEW020 BKN100 26/23 Q1015;
0143825640999992008010412004-05533-047500FM-15+0131SBIZ V0200601N010310300019N0112651N1+02901+02301999999ADDGA1041+006001999GA2071+030001999GF107991999999999999999999MA1101491999999REMMET058METAR SBIZ 041200Z 06020KT 9999 SCT020 BKN100 29/23 Q1015;
0120825640999992008010413004-05533-047500FM-15+0131SBIZ V0201101N004112200019N0112651N1+03001+02301999999ADDGA1021+006001999GF102991999999999999999999MA1101491999999REMMET051METAR SBIZ 041300Z 11008KT 9999 FEW020 30/23 Q1015;
0120825640999992008010414004-05533-047500FM-15+0131SBIZ V0201801N005112200019N0112651N1+03101+02301999999ADDGA1021+006001999GF102991999999999999999999MA1101391999999REMMET051METAR SBIZ 041400Z 18010KT 9999 FEW020 31/23 Q1014;
0120825640999992008010415004-05533-047500FM-15+0131SBIZ V0201301N002612200019N0112651N1+03301+02401999999ADDGA1041+006001999GF104991999999999999999999MA1101291999999REMMET051METAR SBIZ 041500Z 13005KT 9999 SCT020 33/24 Q1013;
0136825640999992008010416004-05533-047500FM-15+0131SBIZ V0201801N00361220001CN0112651N1+03201+02401999999ADDGA1071+006001999GA2041+090001999MA1101191999999REMMET058METAR SBIZ 041600Z 18007KT 9999 BKN020 SCT300 32/24 Q1012;EQDQ01+000042SCOTCV
0143825640999992008010417004-05533-047500FM-15+0131SBIZ V0201801N004110900019N0112651N1+03201+02401999999ADDGA1041+006001999GA2071+090001999GF107991999999999999999999MA1101081999999REMMET058METAR SBIZ 041700Z 18008KT 9999 SCT020 BKN300 32/24 Q1011;
0143825640999992008010418004-05533-047500FM-15+0131SBIZ V0202101N003612200019N0112651N1+03401+02301999999ADDGA1041+006001999GA2041+090001999GF104991999999999999999999MA1101021999999REMMET058METAR SBIZ 041800Z 21007KT 9999 SCT020 SCT300 34/23 Q1010;
0143825640999992008010419004-05533-047500FM-15+0131SBIZ V0202401N002612200019N0112651N1+03201+02401999999ADDGA1041+004501999GA2041+006001999GF104991999999999999999999MA1100911999999REMMET058METAR SBIZ 041900Z 24005KT 9999 SCT015 SCT020 32/24 Q1009;
0143825640999992008010420004-05533-047500FM-15+0131SBIZ V0203101N002612200019N0112651N1+03101+02401999999ADDGA1041+004501999GA2041+006001999GF104991999999999999999999MA1100911999999REMMET058METAR SBIZ 042000Z 31005KT 9999 SCT015 SCT020 31/24 Q1009;
0155825640999992008010420304-05533-047500FM-15+0131SBIZ V0201101N007719999999N9999999N1+02901+02601999999ADDKA1999M+99999MA1101101999999OC101541REMMET088METAR SBIZ 042030Z SPECI 11015G30KT 7000 1000NE TSRA BKN008 SCT025CB BKN100 29/26 Q1011;EQDQ01 -00152ATMX  
0182825640999992008010422004-05533-047500FM-15+0131SBIZ V0201001N00361007501CN0090001N1+02501+02401999999ADDGA1041+003001999GA2021+007501091GA3071+030001999GF107991999999999999999999MA1101081999999MW1171REMMET075METAR SBIZ 042200Z 10007KT 9000 TS SCT010 FEW025CB BKN100 25/24 Q1011 RERA;
0177825640999992008010423004-05533-047500FM-15+0131SBIZ V0201501N00151007501CN0090001N1+02501+02401999999ADDGA1041+006001999GA2021+007501091GA3071+030001999GF107991999999999999999999MA1101191999999MW1171REMMET070METAR SBIZ 042300Z 15003KT 9000 TS SCT020 FEW025CB BKN100 25/24 Q1012;
0177825640999992008010500004-05533-047500FM-15+0131SBIZ V0201201N002610060019N0090001N1+02501+02401999999ADDGA1071+006001999GA2021+007501091GA3071+030001999GF107991999999999999999999MA1101291999999MW1171REMMET070METAR SBIZ 050000Z 12005KT 9000 TS BKN020 FEW025CB BKN100 25/24 Q1013;
0148825640999992008010502004-05533-047500FM-15+0131SBIZ V0200401N003112200019N0090001N1+02601+02401999999ADDGA1041+006001999GA2041+030001999GF104991999999999999999999MA1101291999999REMMET063METAR SBIZ 050200Z 04006KT 9000 SCT020 SCT100 26/24 Q1013 RETS;
0120825640999992008010503004-05533-047500FM-15+0131SBIZ V0200401N002612200019N0090001N1+02501+02401999999ADDGA1041+006001999GF104991999999999999999999MA1101291999999REMMET051METAR SBIZ 050300Z 04005KT 9000 SCT020 25/24 Q1013;
0120825640999992008010508004-05533-047500FM-15+0131SBIZ V0203401N001512200019N0070001N1+02401+02201999999ADDGF100991999999999999999999MA1101191999999REMMET048METAR SBIZ 050800Z 34003KT 7000 SKC 24/22 Q1012;EQDQ01    003SCCGA1
0120825640999992008010509004-05533-047500FM-15+0131SBIZ V0203301N003110090019N0112651N1+02401+02201999999ADDGA1071+009001999GF107991999999999999999999MA1101191999999REMMET051METAR SBIZ 050900Z 33006KT 9999 BKN030 24/22 Q1012;
0143825640999992008010510004-05533-047500FM-15+0131SBIZ V0209999C000010900019N0112651N1+02401+02201999999ADDGA1041+009001999GA2071+090001999GF107991999999999999999999MA1101391999999REMMET058METAR SBIZ 051000Z 00000KT 9999 SCT030 BKN300 24/22 Q1014;
0143825640999992008010511004-05533-047500FM-15+0131SBIZ V0209999C000010900019N0112651N1+02501+02201999999ADDGA1041+009001999GA2071+090001999GF107991999999999999999999MA1101391999999REMMET058METAR SBIZ 051100Z 00000KT 9999 SCT030 BKN300 25/22 Q1014;
0166825640999992008010512004-05533-047500FM-15+0131SBIZ V0203601N00211006001CN0112651N1+02601+02201999999ADDGA1021+004501999GA2041+006001999GA3071+090001999GF107991999999999999999999MA1101491999999REMMET065METAR SBIZ 051200Z 36004KT 9999 FEW015 SCT020 BKN300 26/22 Q1015;
0143825640999992008010513004-05533-047500FM-15+0131SBIZ V0209999C000010060019N0112651N1+02701+02301999999ADDGA1041+004501999GA2071+006001999GF107991999999999999999999MA1101491999999REMMET058METAR SBIZ 051300Z 00000KT 9999 SCT015 BKN020 27/23 Q1015;
0143825640999992008010514004-05533-047500FM-15+0131SBIZ V0200701N002610300019N0112651N1+02901+02401999999ADDGA1041+006001999GA2071+030001999GF107991999999999999999999MA1101491999999REMMET058METAR SBIZ 051400Z 07005KT 9999 SCT020 BKN100 29/24 Q1015;
0143825640999992008010515004-05533-047500FM-15+0131SBIZ V0200501N002110060019N0112651N1+03201+02501999999ADDGA1071+006001999GA2071+090001999GF107991999999999999999999MA1101391999999REMMET058METAR SBIZ 051500Z 05004KT 9999 BKN020 BKN300 32/25 Q1014;
0143825640999992008010516004-05533-047500FM-15+0131SBIZ V0201001N001512200019N0112651N1+03301+02301999999ADDGA1041+006001999GA2041+090001999GF104991999999999999999999MA1101191999999REMMET058METAR SBIZ 051600Z 10003KT 9999 SCT020 SCT300 33/23 Q1012;
0120825640999992008010517004-05533-047500FM-15+0131SBIZ V0201501N002610060019N0112651N1+03301+02401999999ADDGA1071+006001999GF107991999999999999999999MA1101081999999REMMET051METAR SBIZ 051700Z 15005KT 9999 BKN020 33/24 Q1011;
0165825640999992008010518004-05533-047500FM-15+0131SBIZ V0201301N00261220001CN0112651N1+03301+02401999999ADDGA1071+006001999GA2021+007501091MA1101021999999MW1161MW2171REMMET075METAR SBIZ 051800Z 13005KT 9999 6000SE TS VCSH BKN020 FEW025CB 33/24 Q1010;EQDQ01+000022SCOTCV
0162825640999992008010519004-05533-047500FM-15+0131SBIZ V0202001N00151220001CN0112651N1+02601+02401999999ADDGA1071+006001999GA2041+007501091MA1100911999999MW1801MW2951REMMET072METAR SBIZ 051900Z 20003KT 9999 5000N -TSRA BKN020 SCT025CB 26/24 Q1009;EQDQ01+000042SCOTCV
0163825640999992008010520004-05533-047500FM-15+0131SBIZ V0203601N00361220001CN0112651N1+02701+02401999999ADDGA1071+006001999GA2021+007501091MA1101021999999MW1801MW2951REMMET073METAR SBIZ 052000Z 36007KT 9999 5000NW -TSRA BKN020 FEW025CB 27/24 Q1010;EQDQ01+000022SCOTCV
0148825640999992008010521004-05533-047500FM-15+0131SBIZ V0203301N004610210019N0112651N1+02601+02501999999ADDGA1021+006001999GA2071+021001999GF107991999999999999999999MA1101021999999REMMET063METAR SBIZ 052100Z 33009KT 9999 FEW020 BKN070 26/25 Q1010 RETS;
0072825640999992008010522004-05533-047500FM-15+0131SBIZ V0202701N00101220001CN0099001N1+02601+02501999999ADDMA1101021999999REMMET045METAR SBIZ 052200Z 27002KT CAVOK 26/25 Q1010;
0154825640999992008010600004-05533-047500FM-15+0131SBIZ V0203601N004610900019N0112651N1+02601+02401999999ADDGA1021+007501091GA2071+090001999GF107991999999999999999999MA1101191999999MW1171REMMET063METAR SBIZ 060000Z 36009KT 9999 TS FEW025CB BKN300 26/24 Q1012;
0077825640999992008010601004-05533-047500FM-15+0131SBIZ V0203301N00411220001CN0099001N1+02501+02401999999ADDMA1101191999999REMMET050METAR SBIZ 060100Z 33008KT CAVOK 25/24 Q1012 RETS;
0120825640999992008010602004-05533-047500FM-15+0131SBIZ V0203601N005112200019N0112651N1+02501+02401999999ADDGA1021+003001999GF102991999999999999999999MA1101291999999REMMET051METAR SBIZ 060200Z 36010KT 9999 FEW010 25/24 Q1013;
0120825640999992008010603004-05533-047500FM-15+0131SBIZ V0203301N005112200019N0112651N1+02401+02301999999ADDGA1021+003001999GF102991999999999999999999MA1101191999999REMMET051METAR SBIZ 060300Z 33010KT 9999 FEW010 24/23 Q1012;
0120825640999992008010608004-05533-047500FM-15+0131SBIZ V0201001N006210045019N0070001N1+02301+02301999999ADDGA1071+004501999GF107991999999999999999999MA1101081999999REMMET051METAR SBIZ 060800Z 10012KT 7000 BKN015 23/23 Q1011;
0120825640999992008010609004-05533-047500FM-15+0131SBIZ V0200701N004110060019N0080001N1+02301+02301999999ADDGA1071+006001999GF107991999999999999999999MA1101191999999REMMET051METAR SBIZ 060900Z 07008KT 8000 BKN020 23/23 Q1012;
0120825640999992008010610004-05533-047500FM-15+0131SBIZ V0209999C000010060019N0112651N1+02401+02301999999ADDGA1071+006001999GF107991999999999999999999MA1101291999999REMMET051METAR SBIZ 061000Z 00000KT 9999 BKN020 24/23 Q1013;
0143825640999992008010611004-05533-047500FM-15+0131SBIZ V0201301N004110900019N0112651N1+02501+02401999999ADDGA1041+006001999GA2071+090001999GF107991999999999999999999MA1101291999999REMMET058METAR SBIZ 061100Z 13008KT 9999 SCT020 BKN300 25/24 Q1013;
0143825640999992008010612004-05533-047500FM-15+0131SBIZ V0200501N004610900019N0112651N1+02701+02401999999ADDGA1021+003001999GA2071+090001999GF107991999999999999999999MA1101291999999REMMET058METAR SBIZ 061200Z 05009KT 9999 FEW010 BKN300 27/24 Q1013;
0120825640999992008010613004-05533-047500FM-15+0131SBIZ V0203601N002610045019N0112651N1+02901+02401999999ADDGA1071+004501999GF107991999999999999999999MA1101391999999REMMET051METAR SBIZ 061300Z 36005KT 9999 BKN015 29/24 Q1014;
0120825640999992008010614004-05533-047500FM-15+0131SBIZ V0200301N005110060019N0112651N1+03001+02301999999ADDGA1071+006001999GF107991999999999999999999MA1101291999999REMMET051METAR SBIZ 061400Z 03010KT 9999 BKN020 30/23 Q1013;
0120825640999992008010615004-05533-047500FM-15+0131SBIZ V0200901N005110060019N0112651N1+03201+02301999999ADDGA1071+006001999GF107991999999999999999999MA1101291999999REMMET051METAR SBIZ 061500Z 09010KT 9999 BKN020 32/23 Q1013;
0120825640999992008010616004-05533-047500FM-15+0131SBIZ V0200301N005110060019N0112651N1+03301+02301999999ADDGA1071+006001999GF107991999999999999999999MA1101191999999REMMET051METAR SBIZ 061600Z 03010KT 9999 BKN020 33/23 Q1012;
0120825640999992008010617004-05533-047500FM-15+0131SBIZ V0203301N005112200019N0112651N1+03301+02401999999ADDGA1041+006001999GF104991999999999999999999MA1101081999999REMMET051METAR SBIZ 061700Z 33010KT 9999 SCT020 33/24 Q1011;
0120825640999992008010618004-05533-047500FM-15+0131SBIZ V0201501N002612200019N0112651N1+03301+02401999999ADDGA1041+006001999GF104991999999999999999999MA1100911999999REMMET051METAR SBIZ 061800Z 15005KT 9999 SCT020 33/24 Q1009;
0120825640999992008010619004-05533-047500FM-15+0131SBIZ V0202701N001012200019N0112651N1+03301+02401999999ADDGA1041+006001999GF104991999999999999999999MA1100811999999REMMET051METAR SBIZ 061900Z 27002KT 9999 SCT020 33/24 Q1008;
0120825640999992008010620004-05533-047500FM-15+0131SBIZ V0200901N001012200019N0112651N1+03301+02301999999ADDGA1041+006001999GF104991999999999999999999MA1100811999999REMMET051METAR SBIZ 062000Z 09002KT 9999 SCT020 33/23 Q1008;
0120825640999992008010621004-05533-047500FM-15+0131SBIZ V0201301N005112200019N0112651N1+03201+02301999999ADDGA1021+004501999GF102991999999999999999999MA1100811999999REMMET051METAR SBIZ 062100Z 13010KT 9999 FEW015 32/23 Q1008;
0120825640999992008010622004-05533-047500FM-15+0131SBIZ V0203201N002112200019N0112651N1+03001+02401999999ADDGA1021+006001999GF102991999999999999999999MA1100911999999REMMET051METAR SBIZ 062200Z 32004KT 9999 FEW020 30/24 Q1009;
0120825640999992008010623004-05533-047500FM-15+0131SBIZ V0203301N004112200019N0112651N1+02901+02401999999ADDGA1021+009001999GF102991999999999999999999MA1101021999999REMMET051METAR SBIZ 062300Z 33008KT 9999 FEW030 29/24 Q1010;
0120825640999992008010700004-05533-047500FM-15+0131SBIZ V0200401N002112200019N0112651N1+02801+02501999999ADDGA1041+009001999GF104991999999999999999999MA1101021999999REMMET051METAR SBIZ 070000Z 04004KT 9999 SCT030 28/25 Q1010;
0120825640999992008010701004-05533-047500FM-15+0131SBIZ V0209999C000012200019N0112651N1+02701+02501999999ADDGA1041+009001999GF104991999999999999999999MA1101081999999REMMET051METAR SBIZ 070100Z 00000KT 9999 SCT030 27/25 Q1011;
0120825640999992008010702004-05533-047500FM-15+0131SBIZ V0209999C000012200019N0112651N1+02701+02401999999ADDGA1041+009001999GF104991999999999999999999MA1101081999999REMMET051METAR SBIZ 070200Z 00000KT 9999 SCT030 27/24 Q1011;
0120825640999992008010708004-05533-047500FM-15+0131SBIZ V0200501N003110060019N0070001N1+02501+02201999999ADDGA1071+006001999GF107991999999999999999999MA1101081999999REMMET051METAR SBIZ 070800Z 05006KT 7000 BKN020 25/22 Q1011;
0120825640999992008010709004-05533-047500FM-15+0131SBIZ V0203601N002610060019N0112651N1+02501+02301999999ADDGA1071+006001999GF107991999999999999999999MA1101081999999REMMET051METAR SBIZ 070900Z 36005KT 9999 BKN020 25/23 Q1011;
0120825640999992008010710004-05533-047500FM-15+0131SBIZ V0200701N003610060019N0112651N1+02501+02401999999ADDGA1081+006001999GF108991999999999999999999MA1101191999999REMMET051METAR SBIZ 071000Z 07007KT 9999 OVC020 25/24 Q1012;
0120825640999992008010711004-05533-047500FM-15+0131SBIZ V0200101N004110060019N0112651N1+02701+02301999999ADDGA1071+006001999GF107991999999999999999999MA1101191999999REMMET051METAR SBIZ 071100Z 01008KT 9999 BKN020 27/23 Q1012;
0120825640999992008010712004-05533-047500FM-15+0131SBIZ V0200601N004110060019N0112651N1+02901+02301999999ADDGA1071+006001999GF107991999999999999999999MA1101291999999REMMET051METAR SBIZ 071200Z 06008KT 9999 BKN020 29/23 Q1013;
0120825640999992008010713004-05533-047500FM-15+0131SBIZ V0201001N002612200019N0112651N1+02901+02301999999ADDGA1041+006001999GF104991999999999999999999MA1101291999999REMMET051METAR SBIZ 071300Z 10005KT 9999 SCT020 29/23 Q1013;
0120825640999992008010714004-05533-047500FM-15+0131SBIZ V0200901N005112200019N0112651N1+03101+02401999999ADDGA1041+006001999GF104991999999999999999999MA1101291999999REMMET051METAR SBIZ 071400Z 09010KT 9999 SCT020 31/24 Q1013;
0120825640999992008010715004-05533-047500FM-15+0131SBIZ V0200901N005110060019N0112651N1+03201+02201999999ADDGA1071+006001999GF107991999999999999999999MA1101191999999REMMET051METAR SBIZ 071500Z 09010KT 9999 BKN020 32/22 Q1012;
0120825640999992008010716004-05533-047500FM-15+0131SBIZ V0200901N001010060019N0112651N1+03201+02301999999ADDGA1071+006001999GF107991999999999999999999MA1101081999999REMMET051METAR SBIZ 071600Z 09002KT 9999 BKN020 32/23 Q1011;
0120825640999992008010717004-05533-047500FM-15+0131SBIZ V0202901N002112200019N0112651N1+03301+02301999999ADDGA1041+006001999GF104991999999999999999999MA1101021999999REMMET051METAR SBIZ 071700Z 29004KT 9999 SCT020 33/23 Q1010;
0143825640999992008010718004-05533-047500FM-15+0131SBIZ V0200601N004110090019N0112651N1+03301+02301999999ADDGA1041+006001999GA2071+009001999GF107991999999999999999999MA1100911999999REMMET058METAR SBIZ 071800Z 06008KT 9999 SCT020 BKN030 33/23 Q1009;
0120825640999992008010719004-05533-047500FM-15+0131SBIZ V0203301N005112200019N0112651N1+03201+02301999999ADDGA1021+006001999GF102991999999999999999999MA1100811999999REMMET051METAR SBIZ 071900Z 33010KT 9999 FEW020 32/23 Q1008;
0120825640999992008010720004-05533-047500FM-15+0131SBIZ V0200301N002112200019N0112651N1+03201+02201999999ADDGA1021+006001999GF102991999999999999999999MA1100711999999REMMET051METAR SBIZ 072000Z 03004KT 9999 FEW020 32/22 Q1007;
0143825640999992008010721004-05533-047500FM-15+0131SBIZ V0203101N001512200019N0112651N1+03101+02301999999ADDGA1041+009001999GA2041+090001999GF104991999999999999999999MA1100711999999REMMET058METAR SBIZ 072100Z 31003KT 9999 SCT030 SCT300 31/23 Q1007;
0143825640999992008010722004-05533-047500FM-15+0131SBIZ V0201201N002112200019N0112651N1+02801+02401999999ADDGA1041+009001999GA2041+090001999GF104991999999999999999999MA1100811999999REMMET058METAR SBIZ 072200Z 12004KT 9999 SCT030 SCT300 28/24 Q1008;
0120825640999992008010723004-05533-047500FM-15+0131SBIZ V0201101N002112200019N0112651N1+02701+02401999999ADDGA1021+009001999GF102991999999999999999999MA1100911999999REMMET051METAR SBIZ 072300Z 11004KT 9999 FEW030 27/24 Q1009;
0072825640999992008010800004-05533-047500FM-15+0131SBIZ V0209999C00001220001CN0099001N1+02701+02401999999ADDMA1101021999999REMMET045METAR SBIZ 080000Z 00000KT CAVOK 27/24 Q1010;
0072825640999992008010801004-05533-047500FM-15+0131SBIZ V0209999C00001220001CN0099001N1+02601+02401999999ADDMA1101081999999REMMET045METAR SBIZ 080100Z 00000KT CAVOK 26/24 Q1011;
0120825640999992008010802004-05533-047500FM-15+0131SBIZ V0209999C000012200019N0112651N1+02601+02401999999ADDGA1021+006001999GF102991999999999999999999MA1101021999999REMMET051METAR SBIZ 080200Z 00000KT 9999 FEW020 26/24 Q1010;
0120825640999992008010803004-05533-047500FM-15+0131SBIZ V0203401N001012200019N0112651N1+02701+02401999999ADDGA1041+004501999GF104991999999999999999999MA1101021999999REMMET051METAR SBIZ 080300Z 34002KT 9999 SCT015 27/24 Q1010;
0120825640999992008010804004-05533-047500FM-15+0131SBIZ V0209999C000012200019N0112651N1+02701+02401999999ADDGA1041+004501999GF104991999999999999999999MA1101021999999REMMET051METAR SBIZ 080400Z 00000KT 9999 SCT015 27/24 Q1010;
0214825640999992008010808004-05533-047500FM-15+0131SBIZ V0201501N001010060019N0050001N1+02301+02101999999ADDGA1041+003601999GA2071+006001999GA3041+007501091GA4081+021001999GF108991999999999999999999MA1101021999999MW1801MW2951REMMET085METAR SBIZ 080800Z 15002KT 5000 -TSRA SCT012 BKN020 SCT025CB OVC070 23/21 Q1010 RERA;
0171825640999992008010809004-05533-047500FM-15+0131SBIZ V0209999C000010060019N0080001N1+02301+02201999999ADDGA1021+003601999GA2071+006001999GA3071+021001999GF107991999999999999999999MA1101081999999REMMET070METAR SBIZ 080900Z 00000KT 8000 FEW012 BKN020 BKN070 23/22 Q1011 RETS;
0143825640999992008010810004-05533-047500FM-15+0131SBIZ V0201501N001010060019N0112651N1+02301+02201999999ADDGA1021+003601999GA2081+006001999GF108991999999999999999999MA1101081999999REMMET058METAR SBIZ 081000Z 15002KT 9999 FEW012 OVC020 23/22 Q1011;
0143825640999992008010811004-05533-047500FM-15+0131SBIZ V0209999C000010060019N0112651N1+02401+02201999999ADDGA1041+003601999GA2081+006001999GF108991999999999999999999MA1101191999999REMMET058METAR SBIZ 081100Z 00000KT 9999 SCT012 OVC020 24/22 Q1012;
0143825640999992008010812004-05533-047500FM-15+0131SBIZ V0202501N001010060019N0112651N1+02501+02301999999ADDGA1041+004501999GA2081+006001999GF108991999999999999999999MA1101191999999REMMET058METAR SBIZ 081200Z 25002KT 9999 SCT015 OVC020 25/23 Q1012;
0166825640999992008010813004-05533-047500FM-15+0131SBIZ V0203001N005110060019N0112651N1+02601+02301999999ADDGA1021+004501999GA2071+006001999GA3081+021001999GF108991999999999999999999MA1101291999999REMMET065METAR SBIZ 081300Z 30010KT 9999 FEW015 BKN020 OVC070 26/23 Q1013;
0143825640999992008010814004-05533-047500FM-15+0131SBIZ V0203001N005112200019N0112651N1+02801+02401999999ADDGA1041+006001999GA2041+021001999GF104991999999999999999999MA1101191999999REMMET058METAR SBIZ 081400Z 30010KT 9999 SCT020 SCT070 28/24 Q1012;
0120825640999992008010815004-05533-047500FM-15+0131SBIZ V0203601N005110060019N0112651N1+02801+02401999999ADDGA1071+006001999GF107991999999999999999999MA1101191999999REMMET051METAR SBIZ 081500Z 36010KT 9999 BKN020 28/24 Q1012;
0153825640999992008010816004-05533-047500FM-15+0131SBIZ V0203601N005110060019N0080001N1+02901+02401999999ADDGA1041+004501999GA2071+006001999GF107991999999999999999999MA1101081999999MW1611REMMET062METAR SBIZ 081600Z 36010KT 8000 -RA SCT015 BKN020 29/24 Q1011;
0143825640999992008010817004-05533-047500FM-15+0131SBIZ V0201301N004110300019N0112651N1+02801+02501999999ADDGA1041+006001999GA2071+030001999GF107991999999999999999999MA1100911999999REMMET058METAR SBIZ 081700Z 13008KT 9999 SCT020 BKN100 28/25 Q1009;
0166825640999992008010818004-05533-047500FM-15+0131SBIZ V0200301N00411006001CN0112651N1+02901+02401999999ADDGA1021+004501999GA2041+006001999GA3071+090001999GF107991999999999999999999MA1100811999999REMMET065METAR SBIZ 081800Z 03008KT 9999 FEW015 SCT020 BKN300 29/24 Q1008;
0166825640999992008010819004-05533-047500FM-15+0131SBIZ V0203001N00211006001CN0112651N1+03001+02401999999ADDGA1021+004501999GA2041+006001999GA3071+090001999GF107991999999999999999999MA1100811999999REMMET065METAR SBIZ 081900Z 30004KT 9999 FEW015 SCT020 BKN300 30/24 Q1008;
0143825640999992008010820004-05533-047500FM-15+0131SBIZ V0201801N005110900019N0112651N1+03001+02401999999ADDGA1041+006001999GA2071+090001999GF107991999999999999999999MA1100711999999REMMET058METAR SBIZ 082000Z 18010KT 9999 SCT020 BKN300 30/24 Q1007;
0166825640999992008010821004-05533-047500FM-15+0131SBIZ V0201301N00211009001CN0112651N1+02701+02501999999ADDGA1021+006001999GA2041+009001999GA3071+090001999GF107991999999999999999999MA1100811999999REMMET065METAR SBIZ 082100Z 13004KT 9999 FEW020 SCT030 BKN300 27/25 Q1008;
0143825640999992008010822004-05533-047500FM-15+0131SBIZ V0201301N002612200019N0112651N1+02601+02501999999ADDGA1041+009001999GA2041+090001999GF104991999999999999999999MA1100811999999REMMET058METAR SBIZ 082200Z 13005KT 9999 SCT030 SCT300 26/25 Q1008;
0072825640999992008010823004-05533-047500FM-15+0131SBIZ V0200901N00311220001CN0099001N1+02601+02501999999ADDMA1100911999999REMMET045METAR SBIZ 082300Z 09006KT CAVOK 26/25 Q1009;
0072825640999992008010900004-05533-047500FM-15+0131SBIZ V0200901N00411220001CN0099001N1+02501+02401999999ADDMA1100911999999REMMET045METAR SBIZ 090000Z 09008KT CAVOK 25/24 Q1009;
0072825640999992008010901004-05533-047500FM-15+0131SBIZ V0209999C00001220001CN0099001N1+02501+02401999999ADDMA1101021999999REMMET045METAR SBIZ 090100Z 00000KT CAVOK 25/24 Q1010;
0072825640999992008010902004-05533-047500FM-15+0131SBIZ V0209999C00001220001CN0099001N1+02501+02401999999ADDMA1101021999999REMMET045METAR SBIZ 090200Z 00000KT CAVOK 25/24 Q1010;
0120825640999992008010903004-05533-047500FM-15+0131SBIZ V0209999C000012200019N0112651N1+02501+02401999999ADDGA1041+006001999GF104991999999999999999999MA1101021999999REMMET051METAR SBIZ 090300Z 00000KT 9999 SCT020 25/24 Q1010;
0072825640999992008010904004-05533-047500FM-15+0131SBIZ V0203301N00411220001CN0099001N1+02501+02401999999ADDMA1101021999999REMMET045METAR SBIZ 090400Z 33008KT CAVOK 25/24 Q1010;
0143825640999992008010908004-05533-047500FM-15+0131SBIZ V0209999C000012200019N0112651N1+02401+02301999999ADDGA1021+002101999GA2041+009001999GF104991999999999999999999MA1100811999999REMMET058METAR SBIZ 090800Z 00000KT 9999 FEW007 SCT030 24/23 Q1008;
0143825640999992008010909004-05533-047500FM-15+0131SBIZ V0209999C000010090019N0112651N1+02401+02301999999ADDGA1021+004501999GA2071+009001999GF107991999999999999999999MA1100911999999REMMET058METAR SBIZ 090900Z 00000KT 9999 FEW015 BKN030 24/23 Q1009;
0143825640999992008010910004-05533-047500FM-15+0131SBIZ V0209999C000012200019N0112651N1+02401+02301999999ADDGA1041+004501999GA2041+006001999GF104991999999999999999999MA1101021999999REMMET058METAR SBIZ 091000Z 00000KT 9999 SCT015 SCT020 24/23 Q1010;
0143825640999992008010911004-05533-047500FM-15+0131SBIZ V0209999C000010120019N0112651N1+02501+02401999999ADDGA1021+006001999GA2071+012001999GF107991999999999999999999MA1101021999999REMMET058METAR SBIZ 091100Z 00000KT 9999 FEW020 BKN040 25/24 Q1010;
0143825640999992008010912004-05533-047500FM-15+0131SBIZ V0200701N004110120019N0112651N1+02701+02301999999ADDGA1041+006001999GA2071+012001999GF107991999999999999999999MA1101081999999REMMET058METAR SBIZ 091200Z 07008KT 9999 SCT020 BKN040 27/23 Q1011;
0120825640999992008010913004-05533-047500FM-15+0131SBIZ V0200801N004112200019N0112651N1+02901+02301999999ADDGA1041+006001999GF104991999999999999999999MA1101081999999REMMET051METAR SBIZ 091300Z 08008KT 9999 SCT020 29/23 Q1011;
0143825640999992008010914004-05533-047500FM-15+0131SBIZ V0201201N005110120019N0112651N1+02901+02301999999ADDGA1041+006001999GA2071+012001999GF107991999999999999999999MA1101021999999REMMET058METAR SBIZ 091400Z 12010KT 9999 SCT020 BKN040 29/23 Q1010;
0143825640999992008010915004-05533-047500FM-15+0131SBIZ V0201201N002610090019N0112651N1+03001+02401999999ADDGA1041+006001999GA2071+009001999GF107991999999999999999999MA1101021999999REMMET058METAR SBIZ 091500Z 12005KT 9999 SCT020 BKN030 30/24 Q1010;
0143825640999992008010916004-05533-047500FM-15+0131SBIZ V0200101N003612200019N0112651N1+03201+02401999999ADDGA1041+006001999GA2041+009001999GF104991999999999999999999MA1100811999999REMMET058METAR SBIZ 091600Z 01007KT 9999 SCT020 SCT030 32/24 Q1008;
0166825640999992008010917004-05533-047500FM-15+0131SBIZ V0201501N00261009001CN0112651N1+03201+02301999999ADDGA1041+006001999GA2041+009001999GA3071+090001999GF107991999999999999999999MA1100711999999REMMET065METAR SBIZ 091700Z 15005KT 9999 SCT020 SCT030 BKN300 32/23 Q1007;
0177825640999992008010918004-05533-047500FM-15+0131SBIZ V0201901N00361007501CN0112651N1+02901+02401999999ADDGA1041+006001999GA2021+007501091GA3071+090001999GF107991999999999999999999MA1100611999999MW1171REMMET070METAR SBIZ 091800Z 19007KT 9999 TS SCT020 FEW025CB BKN300 29/24 Q1006;
0216825640999992008010919004-05533-047500FM-15+0131SBIZ V0200601N002610060019N0112651N1+02601+02201999999ADDGA1041+003001999GA2071+006001999GA3021+007501091GA4081+090001999GF108991999999999999999999MA1100611999999MW1801MW2951REMMET087METAR SBIZ 091900Z 06005KT 9999 3500NE -TSRA SCT010 BKN020 FEW025CB OVC300 26/22 Q1006;
0216825640999992008010920004-05533-047500FM-15+0131SBIZ V0200401N00261006001CN0112651N1+02601+02401999999ADDGA1021+004501999GA2041+006001999GA3021+007501091GA4081+090001999GF108991999999999999999999MA1100611999999MW1801MW2951REMMET087METAR SBIZ 092000Z 04005KT 9999 8000NW -TSRA FEW015 SCT020 FEW025CB OVC300 26/24 Q1006;
0177825640999992008010921004-05533-047500FM-15+0131SBIZ V0209999C000010090019N0112651N1+02601+02401999999ADDGA1021+007501091GA2071+009001999GA3071+030001999GF107991999999999999999999MA1100611999999MW1171REMMET070METAR SBIZ 092100Z 00000KT 9999 TS FEW025CB BKN030 BKN100 26/24 Q1006;
0148825640999992008010922004-05533-047500FM-15+0131SBIZ V0202001N001010090019N0112651N1+02601+02401999999ADDGA1071+009001999GA2071+030001999GF107991999999999999999999MA1100711999999REMMET063METAR SBIZ 092200Z 20002KT 9999 BKN030 BKN100 26/24 Q1007 RETS;
0177825640999992008011000004-05533-047500FM-15+0131SBIZ V0203101N003612200019N0112651N1+02501+02401999999ADDGA1041+006001999GA2021+007501091GA3041+030001999GF104991999999999999999999MA1100811999999MW1171REMMET070METAR SBIZ 100000Z 31007KT 9999 TS SCT020 FEW025CB SCT100 25/24 Q1008;
0147825640999992008011001004-05533-047500FM-15+0131SBIZ V0203301N001512200019N0112651N1+02501+02401999999ADDGA1041+006001999GA2021+007501091MA1100911999999MW1171REMMET063METAR SBIZ 100100Z 33003KT 9999 TS SCT020 FEW025CB 25/24 Q1009;EQDQ01+000022SCOTCV
0147825640999992008011002004-05533-047500FM-15+0131SBIZ V0201101N00361220001CN0080001N1+02501+02401999999ADDGA1071+006001999GA2021+007501091MA1101021999999MW1171REMMET063METAR SBIZ 100200Z 11007KT 8000 TS BKN020 FEW025CB 25/24 Q1010;EQDQ01+000022SCOTCV
0176825640999992008011008004-05533-047500FM-15+0131SBIZ V0203301N005110009019N0060001N1+02201+02101999999ADDGA1071+000901999GA2071+002101999GA3081+021001999GF108991999999999999999999MA1100911999999MW1611REMMET069METAR SBIZ 100800Z 33010KT 6000 -RA BKN003 BKN007 OVC070 22/21 Q1009;
0176825640999992008011009004-05533-047500FM-15+0131SBIZ V0202501N001010021019N0080001N1+02201+02101999999ADDGA1041+000901999GA2071+002101999GA3081+021001999GF108991999999999999999999MA1101021999999MW1611REMMET069METAR SBIZ 100900Z 25002KT 8000 -RA SCT003 BKN007 OVC070 22/21 Q1010;
0153825640999992008011010004-05533-047500FM-15+0131SBIZ V0209999C000010018019N0080001N1+02201+02101999999ADDGA1071+001801999GA2081+021001999GF108991999999999999999999MA1101021999999MW1611REMMET062METAR SBIZ 101000Z 00000KT 8000 -RA BKN006 OVC070 22/21 Q1010;
0153825640999992008011011004-05533-047500FM-15+0131SBIZ V0201001N003110210019N0112651N1+02201+02101999999ADDGA1041+001801999GA2081+021001999GF108991999999999999999999MA1101021999999MW1611REMMET062METAR SBIZ 101100Z 10006KT 9999 -RA SCT006 OVC070 22/21 Q1010;
0176825640999992008011012004-05533-047500FM-15+0131SBIZ V0209999C00001009001CN0112651N1+02201+02101999999ADDGA1021+000901999GA2041+009001999GA3081+021001999GF108991999999999999999999MA1101081999999MW1611REMMET069METAR SBIZ 101200Z 00000KT 9999 -RA FEW003 SCT030 OVC070 22/21 Q1011;
0153825640999992008011013004-05533-047500FM-15+0131SBIZ V0209999C000010210019N0112651N1+02301+02201999999ADDGA1041+000901999GA2081+021001999GF108991999999999999999999MA1101081999999MW1611REMMET062METAR SBIZ 101300Z 00000KT 9999 -RA SCT003 OVC070 23/22 Q1011;
0143825640999992008011014004-05533-047500FM-15+0131SBIZ V0201301N002610210019N0112651N1+02401+02201999999ADDGA1041+002401999GA2081+021001999GF108991999999999999999999MA1101021999999REMMET058METAR SBIZ 101400Z 13005KT 9999 SCT008 OVC070 24/22 Q1010;
0166825640999992008011015004-05533-047500FM-15+0131SBIZ V0201001N002610045019N0112651N1+02601+02301999999ADDGA1021+001501999GA2071+004501999GA3081+021001999GF108991999999999999999999MA1101021999999REMMET065METAR SBIZ 101500Z 10005KT 9999 FEW005 BKN015 OVC070 26/23 Q1010;
0166825640999992008011016004-05533-047500FM-15+0131SBIZ V0201501N002610120019N0112651N1+02601+02301999999ADDGA1021+001501999GA2071+012001999GA3081+021001999GF108991999999999999999999MA1101021999999REMMET065METAR SBIZ 101600Z 15005KT 9999 FEW005 BKN040 OVC070 26/23 Q1010;
0166825640999992008011017004-05533-047500FM-15+0131SBIZ V0201301N001510120019N0112651N1+02701+02301999999ADDGA1041+001501999GA2071+012001999GA3081+021001999GF108991999999999999999999MA1101021999999REMMET065METAR SBIZ 101700Z 13003KT 9999 SCT005 BKN040 OVC070 27/23 Q1010;
0166825640999992008011018004-05533-047500FM-15+0131SBIZ V0201301N001510120019N0112651N1+02801+02401999999ADDGA1021+002101999GA2071+012001999GA3071+030001999GF107991999999999999999999MA1100911999999REMMET065METAR SBIZ 101800Z 13003KT 9999 FEW007 BKN040 BKN100 28/24 Q1009;
0166825640999992008011019004-05533-047500FM-15+0131SBIZ V0201201N00311009001CN0112651N1+02901+02301999999ADDGA1021+002101999GA2041+009001999GA3071+090001999GF107991999999999999999999MA1100811999999REMMET065METAR SBIZ 101900Z 12006KT 9999 FEW007 SCT030 BKN300 29/23 Q1008;
0166825640999992008011020004-05533-047500FM-15+0131SBIZ V0201201N00101009001CN0112651N1+03001+02301999999ADDGA1021+002101999GA2041+009001999GA3071+090001999GF107991999999999999999999MA1100711999999REMMET065METAR SBIZ 102000Z 12002KT 9999 FEW007 SCT030 BKN300 30/23 Q1007;
0143825640999992008011021004-05533-047500FM-15+0131SBIZ V0209999C000010300019N0112651N1+02901+02301999999ADDGA1021+006001999GA2071+030001999GF107991999999999999999999MA1100711999999REMMET058METAR SBIZ 102100Z 00000KT 9999 FEW020 BKN100 29/23 Q1007;
0072825640999992008011022004-05533-047500FM-15+0131SBIZ V0209999C00001220001CN0099001N1+02701+02301999999ADDMA1100811999999REMMET045METAR SBIZ 102200Z 00000KT CAVOK 27/23 Q1008;
0072825640999992008011023004-05533-047500FM-15+0131SBIZ V0201301N00411220001CN0099001N1+02601+02401999999ADDMA1100811999999REMMET045METAR SBIZ 102300Z 13008KT CAVOK 26/24 Q1008;
0072825640999992008011100004-05533-047500FM-15+0131SBIZ V0201201N00261220001CN0099001N1+02501+02401999999ADDMA1100911999999REMMET045METAR SBIZ 110000Z 12005KT CAVOK 25/24 Q1009;
0072825640999992008011101004-05533-047500FM-15+0131SBIZ V0209999C00001220001CN0099001N1+02501+02401999999ADDMA1101021999999REMMET045METAR SBIZ 110100Z 00000KT CAVOK 25/24 Q1010;
0072825640999992008011102004-05533-047500FM-15+0131SBIZ V0209999C00001220001CN0099001N1+02501+02401999999ADDMA1101021999999REMMET045METAR SBIZ 110200Z 00000KT CAVOK 25/24 Q1010;
0091825640999992008011107154-05533-047500FM-16+0131SBIZ V0201501N001012200019N9999999N1+02401+02401999999ADDMA1100901999999REMMET064METAR SBIZ 110715Z SPECI 15002KT 7000 FEW002 BKN030 24/24 Q1009;
0143825640999992008011108004-05533-047500FM-15+0131SBIZ V0201501N001010060019N0070001N1+02401+02401999999ADDGA1021+000901999GA2071+006001999GF107991999999999999999999MA1100911999999REMMET058METAR SBIZ 110800Z 15002KT 7000 FEW003 BKN020 24/24 Q1009;
0143825640999992008011109004-05533-047500FM-15+0131SBIZ V0209999C000010090019N0070001N1+02401+02401999999ADDGA1021+000901999GA2071+009001999GF107991999999999999999999MA1101021999999REMMET058METAR SBIZ 110900Z 00000KT 7000 FEW003 BKN030 24/24 Q1010;
0143825640999992008011110004-05533-047500FM-15+0131SBIZ V0203601N001510090019N0090001N1+02501+02401999999ADDGA1021+000901999GA2071+009001999GF107991999999999999999999MA1101081999999REMMET058METAR SBIZ 111000Z 36003KT 9000 FEW003 BKN030 25/24 Q1011;
0143825640999992008011111004-05533-047500FM-15+0131SBIZ V0200301N001510090019N0112651N1+02601+02401999999ADDGA1021+000901999GA2081+009001999GF108991999999999999999999MA1101081999999REMMET058METAR SBIZ 111100Z 03003KT 9999 FEW003 OVC030 26/24 Q1011;
0143825640999992008011112004-05533-047500FM-15+0131SBIZ V0203301N001510090019N0112651N1+02801+02401999999ADDGA1041+002101999GA2071+009001999GF107991999999999999999999MA1101191999999REMMET058METAR SBIZ 111200Z 33003KT 9999 SCT007 BKN030 28/24 Q1012;
0143825640999992008011113004-05533-047500FM-15+0131SBIZ V0200101N001510045019N0112651N1+03001+02401999999ADDGA1071+004501999GA2071+090001999GF107991999999999999999999MA1101191999999REMMET058METAR SBIZ 111300Z 01003KT 9999 BKN015 BKN300 30/24 Q1012;
0120825640999992008011114004-05533-047500FM-15+0131SBIZ V0200701N004610045019N0112651N1+03101+02401999999ADDGA1071+004501999GF107991999999999999999999MA1101081999999REMMET051METAR SBIZ 111400Z 07009KT 9999 BKN015 31/24 Q1011;
0120825640999992008011115004-05533-047500FM-15+0131SBIZ V0200301N005110060019N0112651N1+03301+02301999999ADDGA1071+006001999GF107991999999999999999999MA1101081999999REMMET051METAR SBIZ 111500Z 03010KT 9999 BKN020 33/23 Q1011;
0120825640999992008011116004-05533-047500FM-15+0131SBIZ V0203601N003112200019N0112651N1+03301+02301999999ADDGA1041+006001999GF104991999999999999999999MA1101021999999REMMET051METAR SBIZ 111600Z 36006KT 9999 SCT020 33/23 Q1010;
0143825640999992008011117004-05533-047500FM-15+0131SBIZ V0201801N001012200019N0112651N1+03101+02301999999ADDGA1041+006001999GA2041+090001999GF104991999999999999999999MA1100911999999REMMET058METAR SBIZ 111700Z 18002KT 9999 SCT020 SCT300 31/23 Q1009;
0143825640999992008011118004-05533-047500FM-15+0131SBIZ V0201501N005110900019N0112651N1+03301+02301999999ADDGA1041+006001999GA2071+090001999GF107991999999999999999999MA1100811999999REMMET058METAR SBIZ 111800Z 15010KT 9999 SCT020 BKN300 33/23 Q1008;
0154825640999992008011119004-05533-047500FM-15+0131SBIZ V0202101N005110900019N0112651N1+03001+02401999999ADDGA1021+007501091GA2071+090001999GF107991999999999999999999MA1100711999999MW1171REMMET063METAR SBIZ 111900Z 21010KT 9999 TS FEW025CB BKN300 30/24 Q1007;
0154825640999992008011120004-05533-047500FM-15+0131SBIZ V0202101N005110900019N0112651N1+02901+02401999999ADDGA1021+007501091GA2071+090001999GF107991999999999999999999MA1100711999999MW1171REMMET063METAR SBIZ 112000Z 21010KT 9999 TS FEW025CB BKN300 29/24 Q1007;
0177825640999992008011121004-05533-047500FM-15+0131SBIZ V0202101N005110900019N0112651N1+02701+02401999999ADDGA1021+006001999GA2021+007501091GA3081+090001999GF108991999999999999999999MA1100811999999MW1171REMMET070METAR SBIZ 112100Z 21010KT 9999 TS FEW020 FEW025CB OVC300 27/24 Q1008;
0171825640999992008011122004-05533-047500FM-15+0131SBIZ V0201501N00101009001CN0112651N1+02601+02401999999ADDGA1021+004501999GA2041+009001999GA3081+090001999GF108991999999999999999999MA1100811999999REMMET070METAR SBIZ 112200Z 15002KT 9999 FEW015 SCT030 OVC300 26/24 Q1008 RETS;
0143825640999992008011123004-05533-047500FM-15+0131SBIZ V0202701N002110900019N0112651N1+02601+02401999999ADDGA1021+009001999GA2081+090001999GF108991999999999999999999MA1100911999999REMMET058METAR SBIZ 112300Z 27004KT 9999 FEW030 OVC300 26/24 Q1009;
0143825640999992008011200004-05533-047500FM-15+0131SBIZ V0209999C000010900019N0112651N1+02601+02301999999ADDGA1021+009001999GA2071+090001999GF107991999999999999999999MA1101021999999REMMET058METAR SBIZ 120000Z 00000KT 9999 FEW030 BKN300 26/23 Q1010;
0143825640999992008011201004-05533-047500FM-15+0131SBIZ V0209999C000012200019N0112651N1+02501+02401999999ADDGA1021+012001999GA2041+090001999GF104991999999999999999999MA1101081999999REMMET058METAR SBIZ 120100Z 00000KT 9999 FEW040 SCT300 25/24 Q1011;
0120825640999992008011202004-05533-047500FM-15+0131SBIZ V0209999C000012200019N0112651N1+02501+02401999999ADDGA1021+012001999GF102991999999999999999999MA1101021999999REMMET051METAR SBIZ 120200Z 00000KT 9999 FEW040 25/24 Q1010;
0129825640999992008011208004-05533-047500FM-15+0131SBIZ V0209999C000012200019N0050001N1+02301+02301999999ADDGA1021+000901999GF102991999999999999999999MA1100911999999MW1101REMMET054METAR SBIZ 120800Z 00000KT 5000 BR FEW003 23/23 Q1009;
0120825640999992008011209004-05533-047500FM-15+0131SBIZ V0201501N001012200019N0080001N1+02301+02301999999ADDGA1041+006001999GF104991999999999999999999MA1101021999999REMMET051METAR SBIZ 120900Z 15002KT 8000 SCT020 23/23 Q1010;
0120825640999992008011210004-05533-047500FM-15+0131SBIZ V0201201N001512200019N0112651N1+02401+02301999999ADDGA1041+006001999GF104991999999999999999999MA1101021999999REMMET051METAR SBIZ 121000Z 12003KT 9999 SCT020 24/23 Q1010;
0072825640999992008011211004-05533-047500FM-15+0131SBIZ V0203601N00151220001CN0099001N1+02601+02301999999ADDMA1101081999999REMMET045METAR SBIZ 121100Z 36003KT CAVOK 26/23 Q1011;
0120825640999992008011212004-05533-047500FM-15+0131SBIZ V0200701N006212200019N0112651N1+02801+02301999999ADDGA1041+006001999GF104991999999999999999999MA1101191999999REMMET051METAR SBIZ 121200Z 07012KT 9999 SCT020 28/23 Q1012;
0120825640999992008011213004-05533-047500FM-15+0131SBIZ V0201201N005110060019N0112651N1+02901+02301999999ADDGA1071+006001999GF107991999999999999999999MA1101191999999REMMET051METAR SBIZ 121300Z 12010KT 9999 BKN020 29/23 Q1012;
0120825640999992008011214004-05533-047500FM-15+0131SBIZ V0200901N005712200019N0112651N1+03101+02301999999ADDGA1041+006001999GF104991999999999999999999MA1101081999999REMMET051METAR SBIZ 121400Z 09011KT 9999 SCT020 31/23 Q1011;
0120825640999992008011215004-05533-047500FM-15+0131SBIZ V0200901N006212200019N0112651N1+03201+02301999999ADDGA1041+006001999GF104991999999999999999999MA1101081999999REMMET051METAR SBIZ 121500Z 09012KT 9999 SCT020 32/23 Q1011;
0120825640999992008011216004-05533-047500FM-15+0131SBIZ V0201501N002110060019N0112651N1+03301+02301999999ADDGA1071+006001999GF107991999999999999999999MA1101021999999REMMET051METAR SBIZ 121600Z 15004KT 9999 BKN020 33/23 Q1010;
0120825640999992008011217004-05533-047500FM-15+0131SBIZ V0202101N004112200019N0112651N1+03301+02301999999ADDGA1041+006001999GF104991999999999999999999MA1100911999999REMMET051METAR SBIZ 121700Z 21008KT 9999 SCT020 33/23 Q1009;
0120825640999992008011218004-05533-047500FM-15+0131SBIZ V0200601N003112200019N0112651N1+03401+02201999999ADDGA1041+006001999GF104991999999999999999999MA1100811999999REMMET051METAR SBIZ 121800Z 06006KT 9999 SCT020 34/22 Q1008;
0120825640999992008011219004-05533-047500FM-15+0131SBIZ V0201501N001012200019N0112651N1+03401+02201999999ADDGA1021+006001999GF102991999999999999999999MA1100711999999REMMET051METAR SBIZ 121900Z 15002KT 9999 FEW020 34/22 Q1007;
0120825640999992008011220004-05533-047500FM-15+0131SBIZ V0201501N001012200019N0112651N1+03301+02301999999ADDGA1021+006001999GF102991999999999999999999MA1100611999999REMMET051METAR SBIZ 122000Z 15002KT 9999 FEW020 33/23 Q1006;
0072825640999992008011221004-05533-047500FM-15+0131SBIZ V0209999C00001220001CN0099001N1+03201+02301999999ADDMA1100611999999REMMET045METAR SBIZ 122100Z 00000KT CAVOK 32/23 Q1006;
0072825640999992008011222004-05533-047500FM-15+0131SBIZ V0209999C00001220001CN0099001N1+03001+02401999999ADDMA1100611999999REMMET045METAR SBIZ 122200Z 00000KT CAVOK 30/24 Q1006;
0072825640999992008011223004-05533-047500FM-15+0131SBIZ V0209999C00001220001CN0099001N1+02801+02501999999ADDMA1100711999999REMMET045METAR SBIZ 122300Z 00000KT CAVOK 28/25 Q1007;
0120825640999992008011300004-05533-047500FM-15+0131SBIZ V0209999C000012200019N0112651N1+02701+02501999999ADDGA1041+006001999GF104991999999999999999999MA1100811999999REMMET051METAR SBIZ 130000Z 00000KT 9999 SCT020 27/25 Q1008;
0120825640999992008011301004-05533-047500FM-15+0131SBIZ V0200901N001512200019N0112651N1+02601+02501999999ADDGA1041+006001999GF104991999999999999999999MA1100811999999REMMET051METAR SBIZ 130100Z 09003KT 9999 SCT020 26/25 Q1008;
0120825640999992008011302004-05533-047500FM-15+0131SBIZ V0209999C000012200019N0112651N1+02601+02501999999ADDGA1041+006001999GF104991999999999999999999MA1100911999999REMMET051METAR SBIZ 130200Z 00000KT 9999 SCT020 26/25 Q1009;
0120825640999992008011303004-05533-047500FM-15+0131SBIZ V0209999C000012200019N0112651N1+02601+02501999999ADDGA1041+006001999GF104991999999999999999999MA1100811999999REMMET051METAR SBIZ 130300Z 00000KT 9999 SCT020 26/25 Q1008;
0072825640999992008011308004-05533-047500FM-15+0131SBIZ V0201201N00101220001CN0099001N1+02501+02401999999ADDMA1100811999999REMMET045METAR SBIZ 130800Z 12002KT CAVOK 25/24 Q1008;
0072825640999992008011309004-05533-047500FM-15+0131SBIZ V0209999C00001220001CN0099001N1+02401+02301999999ADDMA1100811999999REMMET045METAR SBIZ 130900Z 00000KT CAVOK 24/23 Q1008;
0072825640999992008011310004-05533-047500FM-15+0131SBIZ V0200901N00511220001CN0099001N1+02501+02301999999ADDMA1100911999999REMMET045METAR SBIZ 131000Z 09010KT CAVOK 25/23 Q1009;
0120825640999992008011311004-05533-047500FM-15+0131SBIZ V0200901N005112200019N0112651N1+02701+02301999999ADDGA1041+005401999GF104991999999999999999999MA1101021999999REMMET051METAR SBIZ 131100Z 09010KT 9999 SCT018 27/23 Q1010;
0120825640999992008011312004-05533-047500FM-15+0131SBIZ V0200901N005110054019N0112651N1+02801+02301999999ADDGA1071+005401999GF107991999999999999999999MA1101021999999REMMET051METAR SBIZ 131200Z 09010KT 9999 BKN018 28/23 Q1010;
0143825640999992008011313004-05533-047500FM-15+0131SBIZ V0200601N005110060019N0112651N1+03001+02401999999ADDGA1021+005401999GA2071+006001999GF107991999999999999999999MA1101021999999REMMET058METAR SBIZ 131300Z 06010KT 9999 FEW018 BKN020 30/24 Q1010;
0143825640999992008011314004-05533-047500FM-15+0131SBIZ V0201201N005110060019N0112651N1+03001+02401999999ADDGA1041+004501999GA2071+006001999GF107991999999999999999999MA1101081999999REMMET058METAR SBIZ 131400Z 12010KT 9999 SCT015 BKN020 30/24 Q1011;
0120825640999992008011315004-05533-047500FM-15+0131SBIZ V0201201N004110060019N0112651N1+03101+02301999999ADDGA1071+006001999GF107991999999999999999999MA1101021999999REMMET051METAR SBIZ 131500Z 12008KT 9999 BKN020 31/23 Q1010;
0120825640999992008011316004-05533-047500FM-15+0131SBIZ V0201201N004110060019N0112651N1+03401+02401999999ADDGA1071+006001999GF107991999999999999999999MA1100911999999REMMET051METAR SBIZ 131600Z 12008KT 9999 BKN020 34/24 Q1009;
0120825640999992008011317004-05533-047500FM-15+0131SBIZ V0203601N004112200019N0112651N1+03401+02301999999ADDGA1041+006001999GF104991999999999999999999MA1100811999999REMMET051METAR SBIZ 131700Z 36008KT 9999 SCT020 34/23 Q1008;
0120825640999992008011318004-05533-047500FM-15+0131SBIZ V0202401N003112200019N0112651N1+03401+02301999999ADDGA1041+006001999GF104991999999999999999999MA1100611999999REMMET051METAR SBIZ 131800Z 24006KT 9999 SCT020 34/23 Q1006;
0170825640999992008011319004-05533-047500FM-15+0131SBIZ V0202701N002112200019N0112651N1+03301+02401999999ADDGA1021+004501999GA2041+006001999GA3021+007501091MA1100611999999MW1171REMMET070METAR SBIZ 131900Z 27004KT 9999 TS FEW015 SCT020 FEW025CB 33/24 Q1006;EQDQ01+000022SCOTCV
0200825640999992008011320004-05533-047500FM-15+0131SBIZ V0201201N00211006001CN0112651N1+03101+02401999999ADDGA1021+004501999GA2041+006001999GA3021+007501091GA4071+090001999GF107991999999999999999999MA1100611999999MW1171REMMET077METAR SBIZ 132000Z 12004KT 9999 TS FEW015 SCT020 FEW025CB BKN300 31/24 Q1006;
0174825640999992008011321004-05533-047500FM-15+0131SBIZ V0201501N002610900019N0112651N1+03101+02401999999ADDGA1021+006001999GA2021+007501021GA3071+090001999GF107991999999999999999999MA1100611999999REMMET073METAR SBIZ 132100Z 15005KT 9999 FEW020 FEW025TCU BKN300 31/24 Q1006 RETS;
0072825640999992008011322004-05533-047500FM-15+0131SBIZ V0201201N00261220001CN0099001N1+02901+02401999999ADDMA1100611999999REMMET045METAR SBIZ 132200Z 12005KT CAVOK 29/24 Q1006;
0072825640999992008011323004-05533-047500FM-15+0131SBIZ V0201301N00211220001CN0099001N1+02801+02501999999ADDMA1100711999999REMMET045METAR SBIZ 132300Z 13004KT CAVOK 28/25 Q1007;
0072825640999992008011400004-05533-047500FM-15+0131SBIZ V0209999C00001220001CN0099001N1+02701+02501999999ADDMA1100811999999REMMET045METAR SBIZ 140000Z 00000KT CAVOK 27/25 Q1008;
0072825640999992008011401004-05533-047500FM-15+0131SBIZ V0201501N00211220001CN0099001N1+02601+02401999999ADDMA1100811999999REMMET045METAR SBIZ 140100Z 15004KT CAVOK 26/24 Q1008;
0072825640999992008011402004-05533-047500FM-15+0131SBIZ V0200701N00261220001CN0099001N1+02601+02401999999ADDMA1100911999999REMMET045METAR SBIZ 140200Z 07005KT CAVOK 26/24 Q1009;
0072825640999992008011403004-05533-047500FM-15+0131SBIZ V0209999C00001220001CN0099001N1+02601+02401999999ADDMA1100811999999REMMET045METAR SBIZ 140300Z 00000KT CAVOK 26/24 Q1008;
0120825640999992008011408004-05533-047500FM-15+0131SBIZ V0209999C000012200019N0112651N1+02501+02301999999ADDGA1021+012001999GF102991999999999999999999MA1100911999999REMMET051METAR SBIZ 140800Z 00000KT 9999 FEW040 25/23 Q1009;
0120825640999992008011409004-05533-047500FM-15+0131SBIZ V0209999C000012200019N0112651N1+02501+02301999999ADDGA1021+009001999GF102991999999999999999999MA1100911999999REMMET051METAR SBIZ 140900Z 00000KT 9999 FEW030 25/23 Q1009;
0120825640999992008011410004-05533-047500FM-15+0131SBIZ V0209999C000012200019N0112651N1+02501+02301999999ADDGA1021+009001999GF102991999999999999999999MA1101021999999REMMET051METAR SBIZ 141000Z 00000KT 9999 FEW030 25/23 Q1010;
0143825640999992008011411004-05533-047500FM-15+0131SBIZ V0201101N004112200019N0112651N1+02601+02401999999ADDGA1041+004501999GA2041+006001999GF104991999999999999999999MA1101021999999REMMET058METAR SBIZ 141100Z 11008KT 9999 SCT015 SCT020 26/24 Q1010;
0143825640999992008011412004-05533-047500FM-15+0131SBIZ V0200401N005112200019N0112651N1+02801+02301999999ADDGA1041+004501999GA2041+006001999GF104991999999999999999999MA1101081999999REMMET058METAR SBIZ 141200Z 04010KT 9999 SCT015 SCT020 28/23 Q1011;
0143825640999992008011413004-05533-047500FM-15+0131SBIZ V0200501N005110060019N0112651N1+02901+02301999999ADDGA1041+004501999GA2071+006001999GF107991999999999999999999MA1101081999999REMMET058METAR SBIZ 141300Z 05010KT 9999 SCT015 BKN020 29/23 Q1011;
0143825640999992008011414004-05533-047500FM-15+0131SBIZ V0203601N005110060019N0112651N1+03001+02301999999ADDGA1041+004501999GA2071+006001999GF107991999999999999999999MA1101081999999REMMET058METAR SBIZ 141400Z 36010KT 9999 SCT015 BKN020 30/23 Q1011;
0143825640999992008011415004-05533-047500FM-15+0131SBIZ V0203401N005112200019N0112651N1+03201+02301999999ADDGA1021+004501999GA2041+006001999GF104991999999999999999999MA1101021999999REMMET058METAR SBIZ 141500Z 34010KT 9999 FEW015 SCT020 32/23 Q1010;
0136825640999992008011416004-05533-047500FM-15+0131SBIZ V0200901N00101220001CN0112651N1+03301+02301999999ADDGA1071+006001999GA2041+090001999MA1100911999999REMMET058METAR SBIZ 141600Z 09002KT 9999 BKN020 SCT300 33/23 Q1009;EQDQ01+000042SCOTCV
0143825640999992008011417004-05533-047500FM-15+0131SBIZ V0203301N005110900019N0112651N1+03201+02501999999ADDGA1041+006001999GA2071+090001999GF107991999999999999999999MA1100811999999REMMET058METAR SBIZ 141700Z 33010KT 9999 SCT020 BKN300 32/25 Q1008;
0217825640999992008011418004-05533-047500FM-15+0131SBIZ V0202801N002610060019N0112651N1+03201+02401999999ADDGA1041+004501999GA2071+006001999GA3021+007501091GA4071+090001999GF107991999999999999999999MA1100711999999MW1161MW2171REMMET088METAR SBIZ 141800Z 28005KT 9999 6000N TS VCSH SCT015 BKN020 FEW025CB BKN300 32/24 Q1007;
0171825640999992008011419004-05533-047500FM-15+0131SBIZ V0200401N00261009001CN0112651N1+03301+02401999999ADDGA1041+006001999GA2041+009001999GA3071+090001999GF107991999999999999999999MA1100611999999REMMET070METAR SBIZ 141900Z 04005KT 9999 SCT020 SCT030 BKN300 33/24 Q1006 RETS;
0195825640999992008011420004-05533-047500FM-15+0131SBIZ V0201201N002612200019N0112651N1+03301+02401999999ADDGA1041+006001999GA2021+007501091GA3041+090001999GF104991999999999999999999MA1100611999999MW1161MW2171REMMET082METAR SBIZ 142000Z 12005KT 9999 5000NE TS VCSH SCT020 FEW025CB SCT300 33/24 Q1006;
0217825640999992008011421004-05533-047500FM-15+0131SBIZ V0201001N002610090019N0112651N1+02801+02301999999ADDGA1021+006001999GA2021+007501091GA3071+009001999GA4071+090001999GF107991999999999999999999MA1100611999999MW1161MW2171REMMET088METAR SBIZ 142100Z 10005KT 9999 9000S TS VCSH FEW020 FEW025CB BKN030 BKN300 28/23 Q1006;
0194825640999992008011422004-05533-047500FM-15+0131SBIZ V0201201N001510090019N0112651N1+02701+02401999999ADDGA1041+007501091GA2071+009001999GA3071+090001999GF107991999999999999999999MA1100711999999MW1161MW2171REMMET081METAR SBIZ 142200Z 12003KT 9999 5000N TS VCSH SCT025CB BKN030 BKN300 27/24 Q1007;
0194825640999992008011423004-05533-047500FM-15+0131SBIZ V0201301N001010090019N0112651N1+02601+02401999999ADDGA1021+007501091GA2071+009001999GA3071+090001999GF107991999999999999999999MA1100811999999MW1161MW2171REMMET081METAR SBIZ 142300Z 13002KT 9999 9000N TS VCSH FEW025CB BKN030 BKN300 26/24 Q1008;
0168825640999992008011500004-05533-047500FM-15+0131SBIZ V0203301N004110090019N0112651N1+02601+02401999999ADDGA1021+007501091GA2071+009001999GA3071+090001999GF107991999999999999999999MA1100811999999REMMET067METAR SBIZ 150000Z 33008KT 9999 FEW025CB BKN030 BKN300 26/24 Q1008;
0177825640999992008011501004-05533-047500FM-15+0131SBIZ V0202801N001010090019N0112651N1+02601+02401999999ADDGA1021+007501091GA2071+009001999GA3071+090001999GF107991999999999999999999MA1100911999999MW1171REMMET070METAR SBIZ 150100Z 28002KT 9999 TS FEW025CB BKN030 BKN300 26/24 Q1009;
0148825640999992008011502004-05533-047500FM-15+0131SBIZ V0203601N001010090019N0112651N1+02501+02401999999ADDGA1071+009001999GA2071+090001999GF107991999999999999999999MA1100911999999REMMET063METAR SBIZ 150200Z 36002KT 9999 BKN030 BKN300 25/24 Q1009 RETS;
0120825640999992008011508004-05533-047500FM-15+0131SBIZ V0203601N002612200019N0112651N1+02401+02101999999ADDGA1041+004501999GF104991999999999999999999MA1100811999999REMMET051METAR SBIZ 150800Z 36005KT 9999 SCT015 24/21 Q1008;
0143825640999992008011509004-05533-047500FM-15+0131SBIZ V0203601N003112200019N0112651N1+02301+02101999999ADDGA1041+012001999GA2041+090001999GF104991999999999999999999MA1100811999999REMMET058METAR SBIZ 150900Z 36006KT 9999 SCT040 SCT300 23/21 Q1008;
0143825640999992008011510004-05533-047500FM-15+0131SBIZ V0201001N001510900019N0112651N1+02301+02101999999ADDGA1041+012001999GA2071+090001999GF107991999999999999999999MA1100911999999REMMET058METAR SBIZ 151000Z 10003KT 9999 SCT040 BKN300 23/21 Q1009;
0166825640999992008011511004-05533-047500FM-15+0131SBIZ V0201301N00311012001CN0112651N1+02401+02201999999ADDGA1021+004501999GA2041+012001999GA3071+090001999GF107991999999999999999999MA1101081999999REMMET065METAR SBIZ 151100Z 13006KT 9999 FEW015 SCT040 BKN300 24/22 Q1011;
0166825640999992008011512004-05533-047500FM-15+0131SBIZ V0200901N00621012001CN0112651N1+02601+02201999999ADDGA1021+006001999GA2041+012001999GA3071+090001999GF107991999999999999999999MA1101081999999REMMET065METAR SBIZ 151200Z 09012KT 9999 FEW020 SCT040 BKN300 26/22 Q1011;
0120825640999992008011514004-05533-047500FM-15+0131SBIZ V0200901N006210060019N0112651N1+03001+02401999999ADDGA1071+006001999GF107991999999999999999999MA1101021999999REMMET051METAR SBIZ 151400Z 09012KT 9999 BKN020 30/24 Q1010;
0120825640999992008011515004-05533-047500FM-15+0131SBIZ V0200901N005110060019N0112651N1+02901+02401999999ADDGA1071+006001999GF107991999999999999999999MA1101021999999REMMET051METAR SBIZ 151500Z 09010KT 9999 BKN020 29/24 Q1010;
0143825640999992008011516004-05533-047500FM-15+0131SBIZ V0200501N005110900019N0112651N1+03201+02301999999ADDGA1041+006001999GA2071+090001999GF107991999999999999999999MA1100911999999REMMET058METAR SBIZ 151600Z 05010KT 9999 SCT020 BKN300 32/23 Q1009;
0143825640999992008011517004-05533-047500FM-15+0131SBIZ V0200301N005112200019N0112651N1+03301+02301999999ADDGA1041+006001999GA2041+090001999GF104991999999999999999999MA1100811999999REMMET058METAR SBIZ 151700Z 03010KT 9999 SCT020 SCT300 33/23 Q1008;
0120825640999992008011518004-05533-047500FM-15+0131SBIZ V0200201N006212200019N0112651N1+03201+02301999999ADDGA1041+006001999GF104991999999999999999999MA1100611999999REMMET051METAR SBIZ 151800Z 02012KT 9999 SCT020 32/23 Q1006;
0120825640999992008011519004-05533-047500FM-15+0131SBIZ V0200701N002112200019N0112651N1+03101+02501999999ADDGA1041+006001999GF104991999999999999999999MA1100511999999REMMET051METAR SBIZ 151900Z 07004KT 9999 SCT020 31/25 Q1005;
0139825640999992008011520004-05533-047500FM-15+0131SBIZ V0200301N005112200019N0112651N1+03001+02301999999ADDGA1041+006001999GA2021+007501021MA1100611999999REMMET061METAR SBIZ 152000Z 03010KT 9999 SCT020 FEW025TCU 30/23 Q1006;EQDQ01+000022SCOTCV
0194825640999992008011521004-05533-047500FM-15+0131SBIZ V0201501N001010060019N0112651N1+02401+02201999999ADDGA1071+006001999GA2021+007501091GA3071+030001999GF107991999999999999999999MA1100811999999MW1161MW2171REMMET081METAR SBIZ 152100Z 15002KT 9999 4500W TS VCSH BKN020 FEW025CB BKN100 24/22 Q1008;
0177825640999992008011523004-05533-047500FM-15+0131SBIZ V0201701N002610060019N0112651N1+02401+02301999999ADDGA1071+006001999GA2021+007501091GA3071+030001999GF107991999999999999999999MA1100911999999MW1171REMMET070METAR SBIZ 152300Z 17005KT 9999 TS BKN020 FEW025CB BKN100 24/23 Q1009;
0177825640999992008011600004-05533-047500FM-15+0131SBIZ V0209999C000010075019N0112651N1+02401+02201999999ADDGA1071+007501999GA2021+009001091GA3071+030001999GF107991999999999999999999MA1101021999999MW1171REMMET070METAR SBIZ 160000Z 00000KT 9999 TS BKN025 FEW030CB BKN100 24/22 Q1010;
0153825640999992008011602004-05533-047500FM-15+0131SBIZ V0201801N001010120019N0080001N1+02401+02301999999ADDGA1071+012001999GA2081+036001999GF108991999999999999999999MA1101081999999MW1611REMMET062METAR SBIZ 160200Z 18002KT 8000 -RA BKN040 OVC120 24/23 Q1011;
0176825640999992008011603004-05533-047500FM-15+0131SBIZ V0201501N001010030019N0070001N1+02401+02301999999ADDGA1041+001501999GA2071+003001999GA3081+036001999GF108991999999999999999999MA1101081999999MW1611REMMET069METAR SBIZ 160300Z 15002KT 7000 -RA SCT005 BKN010 OVC120 24/23 Q1011;
0176825640999992008011604004-05533-047500FM-15+0131SBIZ V0201501N002610030019N0070001N1+02401+02301999999ADDGA1041+001501999GA2071+003001999GA3081+036001999GF108991999999999999999999MA1101081999999MW1611REMMET069METAR SBIZ 160400Z 15005KT 7000 -RA SCT005 BKN010 OVC120 24/23 Q1011;
0152825640999992008011608004-05533-047500FM-15+0131SBIZ V0209999C000012200019N0050001N1+02201+02101999999ADDGA1041+004501999GA2041+021001999GF104991999999999999999999MA1100811999999MW1101REMMET061METAR SBIZ 160800Z 00000KT 5000 BR SCT015 SCT070 22/21 Q1008;
0143825640999992008011609004-05533-047500FM-15+0131SBIZ V0209999C000011200019N0112651N1+02201+02101999999ADDGA1041+004501999GA2071+120001999GF107991999999999999999999MA1100811999999REMMET058METAR SBIZ 160900Z 00000KT 9999 SCT015 BKN400 22/21 Q1008;
0136825640999992008011610004-05533-047500FM-15+0131SBIZ V0200701N00361220001CN0112651N1+02201+02101999999ADDGA1071+004501999GA2041+006001999MA1100811999999REMMET058METAR SBIZ 161000Z 07007KT 9999 BKN015 SCT020 22/21 Q1008;EQDQ01+000042SCOTCV
0166825640999992008011611004-05533-047500FM-15+0131SBIZ V0201001N003610300019N0112651N1+02301+02201999999ADDGA1021+006001999GA2041+006001999GA3071+030001999GF107991999999999999999999MA1101021999999REMMET065METAR SBIZ 161100Z 10007KT 9999 FEW020 SCT020 BKN100 23/22 Q1010;
0143825640999992008011612004-05533-047500FM-15+0131SBIZ V0209999C000010300019N0112651N1+02501+02201999999ADDGA1041+006001999GA2071+030001999GF107991999999999999999999MA1101081999999REMMET058METAR SBIZ 161200Z 00000KT 9999 SCT020 BKN100 25/22 Q1011;
0143825640999992008011613004-05533-047500FM-15+0131SBIZ V0201201N004110300019N0112651N1+02801+02201999999ADDGA1021+006001999GA2071+030001999GF107991999999999999999999MA1101081999999REMMET058METAR SBIZ 161300Z 12008KT 9999 FEW020 BKN100 28/22 Q1011;
0143825640999992008011614004-05533-047500FM-15+0131SBIZ V0201201N001010300019N0112651N1+03001+02201999999ADDGA1021+006001999GA2071+030001999GF107991999999999999999999MA1101021999999REMMET058METAR SBIZ 161400Z 12002KT 9999 FEW020 BKN100 30/22 Q1010;
0143825640999992008011615004-05533-047500FM-15+0131SBIZ V0203601N004110900019N0112651N1+03001+02301999999ADDGA1021+003001999GA2071+090001999GF107991999999999999999999MA1100911999999REMMET058METAR SBIZ 161500Z 36008KT 9999 FEW010 BKN300 30/23 Q1009;
0143825640999992008011616004-05533-047500FM-15+0131SBIZ V0201101N004110900019N0112651N1+03101+02201999999ADDGA1021+003001999GA2071+090001999GF107991999999999999999999MA1100911999999REMMET058METAR SBIZ 161600Z 11008KT 9999 FEW010 BKN300 31/22 Q1009;
0143825640999992008011617004-05533-047500FM-15+0131SBIZ V0202901N002610045019N0112651N1+03301+02301999999ADDGA1071+004501999GA2071+090001999GF107991999999999999999999MA1100811999999REMMET058METAR SBIZ 161700Z 29005KT 9999 BKN015 BKN300 33/23 Q1008;
0194825640999992008011618004-05533-047500FM-15+0131SBIZ V0200501N003610060019N0112651N1+03301+02301999999ADDGA1071+006001999GA2021+007501091GA3071+090001999GF107991999999999999999999MA1100711999999MW1161MW2171REMMET081METAR SBIZ 161800Z 05007KT 9999 9000E TS VCSH BKN020 FEW025CB BKN300 33/23 Q1007;
0195825640999992008011619004-05533-047500FM-15+0131SBIZ V0201201N003610060019N0112651N1+03301+02401999999ADDGA1071+006001999GA2021+007501091GA3071+090001999GF107991999999999999999999MA1100611999999MW1161MW2171REMMET082METAR SBIZ 161900Z 12007KT 9999 9000SE TS VCSH BKN020 FEW025CB BKN300 33/24 Q1006;
0194825640999992008011620004-05533-047500FM-15+0131SBIZ V0202001N005110060019N0112651N1+02801+02201999999ADDGA1071+006001999GA2041+007501091GA3071+090001999GF107991999999999999999999MA1100711999999MW1161MW2171REMMET081METAR SBIZ 162000Z 20010KT 9999 5000W TS VCSH BKN020 SCT025CB BKN300 28/22 Q1007;
0200825640999992008011621004-05533-047500FM-15+0131SBIZ V0202901N00211006001CN0112651N1+02801+02201999999ADDGA1041+004501999GA2041+006001999GA3021+007501091GA4071+090001999GF107991999999999999999999MA1100811999999MW1171REMMET077METAR SBIZ 162100Z 29004KT 9999 TS SCT015 SCT020 FEW025CB BKN300 28/22 Q1008;
0171825640999992008011622004-05533-047500FM-15+0131SBIZ V0200301N00411009001CN0112651N1+02601+02101999999ADDGA1021+004501999GA2041+009001999GA3071+090001999GF107991999999999999999999MA1100811999999REMMET070METAR SBIZ 162200Z 03008KT 9999 FEW015 SCT030 BKN300 26/21 Q1008 RETS;
0143825640999992008011623004-05533-047500FM-15+0131SBIZ V0200901N001012200019N0112651N1+02501+02101999999ADDGA1041+009001999GA2041+090001999GF104991999999999999999999MA1100911999999REMMET058METAR SBIZ 162300Z 09002KT 9999 SCT030 SCT300 25/21 Q1009;
0120825640999992008011700004-05533-047500FM-15+0131SBIZ V0209999C000012200019N0112651N1+02401+02201999999ADDGA1021+009001999GF102991999999999999999999MA1101021999999REMMET051METAR SBIZ 170000Z 00000KT 9999 FEW030 24/22 Q1010;
0120825640999992008011701004-05533-047500FM-15+0131SBIZ V0209999C000012200019N0112651N1+02401+02201999999ADDGA1041+009001999GF104991999999999999999999MA1101021999999REMMET051METAR SBIZ 170100Z 00000KT 9999 SCT030 24/22 Q1010;
0072825640999992008011702004-05533-047500FM-15+0131SBIZ V0209999C00001220001CN0099001N1+02401+02301999999ADDMA1101081999999REMMET045METAR SBIZ 170200Z 00000KT CAVOK 24/23 Q1011;
0143825640999992008011703004-05533-047500FM-15+0131SBIZ V0209999C000012200019N0112651N1+02401+02201999999ADDGA1021+004501999GA2041+009001999GF104991999999999999999999MA1101081999999REMMET058METAR SBIZ 170300Z 00000KT 9999 FEW015 SCT030 24/22 Q1011;
0072825640999992008011704004-05533-047500FM-15+0131SBIZ V0209999C00001220001CN0099001N1+02301+02201999999ADDMA1101021999999REMMET045METAR SBIZ 170400Z 00000KT CAVOK 23/22 Q1010;
0120825640999992008011708004-05533-047500FM-15+0131SBIZ V0200201N004110045019N0070001N1+02401+02201999999ADDGA1071+004501999GF107991999999999999999999MA1101021999999REMMET051METAR SBIZ 170800Z 02008KT 7000 BKN015 24/22 Q1010;
0130825640999992008011709004-05533-047500FM-15+0131SBIZ V0202501N001510045019N0070001N1+02401+02201999999ADDGA1081+004501999GF108991999999999999999999MA1101081999999MW1611REMMET055METAR SBIZ 170900Z 25003KT 7000 -RA OVC015 24/22 Q1011;
0130825640999992008011710004-05533-047500FM-15+0131SBIZ V0201201N005110024019N0070001N1+02301+02301999999ADDGA1071+002401999GF107991999999999999999999MA1101191999999MW1611REMMET055METAR SBIZ 171000Z 12010KT 7000 -RA BKN008 23/23 Q1012;
0153825640999992008011711004-05533-047500FM-15+0131SBIZ V0201201N003610045019N0050001N1+02201+02101999999ADDGA1041+002101999GA2081+004501999GF108991999999999999999999MA1101291999999MW1611REMMET062METAR SBIZ 171100Z 12007KT 5000 -RA SCT007 OVC015 22/21 Q1013;
0148825640999992008011712004-05533-047500FM-15+0131SBIZ V0202501N001010060019N0080001N1+02201+02201999999ADDGA1021+000901999GA2081+006001999GF108991999999999999999999MA1101291999999REMMET063METAR SBIZ 171200Z 25002KT 8000 FEW003 OVC020 22/22 Q1013 RERA;
0143825640999992008011713004-05533-047500FM-15+0131SBIZ V0209999C000010210019N0112651N1+02301+02201999999ADDGA1041+003901999GA2071+021001999GF107991999999999999999999MA1101291999999REMMET058METAR SBIZ 171300Z 00000KT 9999 SCT013 BKN070 23/22 Q1013;
0143825640999992008011714004-05533-047500FM-15+0131SBIZ V0201201N001510210019N0112651N1+02501+02201999999ADDGA1041+004501999GA2071+021001999GF107991999999999999999999MA1101291999999REMMET058METAR SBIZ 171400Z 12003KT 9999 SCT015 BKN070 25/22 Q1013;
0143825640999992008011715004-05533-047500FM-15+0131SBIZ V0201501N004110060019N0112651N1+02701+02301999999ADDGA1071+006001999GA2071+030001999GF107991999999999999999999MA1101191999999REMMET058METAR SBIZ 171500Z 15008KT 9999 BKN020 BKN100 27/23 Q1012;
0143825640999992008011716004-05533-047500FM-15+0131SBIZ V0201501N004110300019N0112651N1+02801+02201999999ADDGA1041+006001999GA2071+030001999GF107991999999999999999999MA1101081999999REMMET058METAR SBIZ 171600Z 15008KT 9999 SCT020 BKN100 28/22 Q1011;
0166825640999992008011718004-05533-047500FM-15+0131SBIZ V0201801N00101030001CN0112651N1+03001+02201999999ADDGA1021+006001999GA2041+030001999GA3071+090001999GF107991999999999999999999MA1100911999999REMMET065METAR SBIZ 171800Z 18002KT 9999 FEW020 SCT100 BKN300 30/22 Q1009;
0143825640999992008011719004-05533-047500FM-15+0131SBIZ V0209999C000010900019N0112651N1+03001+02201999999ADDGA1021+006001999GA2071+090001999GF107991999999999999999999MA1100811999999REMMET058METAR SBIZ 171900Z 00000KT 9999 FEW020 BKN300 30/22 Q1008;
0143825640999992008011720004-05533-047500FM-15+0131SBIZ V0201101N005110900019N0112651N1+03001+02301999999ADDGA1021+006001999GA2071+090001999GF107991999999999999999999MA1100811999999REMMET058METAR SBIZ 172000Z 11010KT 9999 FEW020 BKN300 30/23 Q1008;
0143825640999992008011721004-05533-047500FM-15+0131SBIZ V0200901N003110900019N0112651N1+02801+02401999999ADDGA1021+009001999GA2071+090001999GF107991999999999999999999MA1100811999999REMMET058METAR SBIZ 172100Z 09006KT 9999 FEW030 BKN300 28/24 Q1008;
0143825640999992008011722004-05533-047500FM-15+0131SBIZ V0203301N002112200019N0112651N1+02701+02301999999ADDGA1021+009001999GA2041+090001999GF104991999999999999999999MA1100811999999REMMET058METAR SBIZ 172200Z 33004KT 9999 FEW030 SCT300 27/23 Q1008;
0072825640999992008011723004-05533-047500FM-15+0131SBIZ V0203601N00311220001CN0099001N1+02601+02301999999ADDMA1100911999999REMMET045METAR SBIZ 172300Z 36006KT CAVOK 26/23 Q1009;
0143825640999992008011800004-05533-047500FM-15+0131SBIZ V0203601N005112200019N0112651N1+02601+02301999999ADDGA1021+006001999GA2041+030001999GF104991999999999999999999MA1101081999999REMMET058METAR SBIZ 180000Z 36010KT 9999 FEW020 SCT100 26/23 Q1011;
0120825640999992008011801004-05533-047500FM-15+0131SBIZ V0203301N001510060019N0112651N1+02501+02301999999ADDGA1071+006001999GF107991999999999999999999MA1101191999999REMMET051METAR SBIZ 180100Z 33003KT 9999 BKN020 25/23 Q1012;
0143825640999992008011802004-05533-047500FM-15+0131SBIZ V0203401N002110300019N0112651N1+02501+02301999999ADDGA1041+006001999GA2071+030001999GF107991999999999999999999MA1101191999999REMMET058METAR SBIZ 180200Z 34004KT 9999 SCT020 BKN100 25/23 Q1012;
0143825640999992008011803004-05533-047500FM-15+0131SBIZ V0200301N004112200019N0112651N1+02501+02301999999ADDGA1041+006001999GA2041+030001999GF104991999999999999999999MA1101191999999REMMET058METAR SBIZ 180300Z 03008KT 9999 SCT020 SCT100 25/23 Q1012;
0120825640999992008011808004-05533-047500FM-15+0131SBIZ V0209999C000012200019N0112651N1+02401+02301999999ADDGA1041+006001999GF104991999999999999999999MA1101081999999REMMET051METAR SBIZ 180800Z 00000KT 9999 SCT020 24/23 Q1011;
0120825640999992008011809004-05533-047500FM-15+0131SBIZ V0200601N005110060019N0112651N1+02401+02201999999ADDGA1071+006001999GF107991999999999999999999MA1101191999999REMMET051METAR SBIZ 180900Z 06010KT 9999 BKN020 24/22 Q1012;
0120825640999992008011810004-05533-047500FM-15+0131SBIZ V0200601N002610060019N0112651N1+02401+02201999999ADDGA1081+006001999GF108991999999999999999999MA1101291999999REMMET051METAR SBIZ 181000Z 06005KT 9999 OVC020 24/22 Q1013;
0143825640999992008011811004-05533-047500FM-15+0131SBIZ V0200601N003110060019N0112651N1+02501+02201999999ADDGA1071+006001999GA2081+021001999GF108991999999999999999999MA1101291999999REMMET058METAR SBIZ 181100Z 06006KT 9999 BKN020 OVC070 25/22 Q1013;
0143825640999992008011812004-05533-047500FM-15+0131SBIZ V0200901N005110210019N0112651N1+02501+02201999999ADDGA1041+006001999GA2081+021001999GF108991999999999999999999MA1101391999999REMMET058METAR SBIZ 181200Z 09010KT 9999 SCT020 OVC070 25/22 Q1014;
0143825640999992008011813004-05533-047500FM-15+0131SBIZ V0200901N005110210019N0112651N1+02401+02301999999ADDGA1041+006001999GA2081+021001999GF108991999999999999999999MA1101491999999REMMET058METAR SBIZ 181300Z 09010KT 9999 SCT020 OVC070 24/23 Q1015;
0143825640999992008011814004-05533-047500FM-15+0131SBIZ V0201201N005110210019N0112651N1+02501+02301999999ADDGA1021+006001999GA2081+021001999GF108991999999999999999999MA1101491999999REMMET058METAR SBIZ 181400Z 12010KT 9999 FEW020 OVC070 25/23 Q1015;
0176825640999992008011815004-05533-047500FM-15+0131SBIZ V0201201N00101009001CN0112651N1+02601+02201999999ADDGA1021+002701999GA2041+009001999GA3081+021001999GF108991999999999999999999MA1101391999999MW1611REMMET069METAR SBIZ 181500Z 12002KT 9999 -RA FEW009 SCT030 OVC070 26/22 Q1014;
0166825640999992008011816004-05533-047500FM-15+0131SBIZ V0201501N00511009001CN0112651N1+02801+02301999999ADDGA1021+002701999GA2041+009001999GA3071+021001999GF107991999999999999999999MA1101291999999REMMET065METAR SBIZ 181600Z 15010KT 9999 FEW009 SCT030 BKN070 28/23 Q1013;
0166825640999992008011817004-05533-047500FM-15+0131SBIZ V0201501N00511006001CN0112651N1+02801+02301999999ADDGA1021+004501999GA2041+006001999GA3071+021001999GF107991999999999999999999MA1101191999999REMMET065METAR SBIZ 181700Z 15010KT 9999 FEW015 SCT020 BKN070 28/23 Q1012;
0166825640999992008011818004-05533-047500FM-15+0131SBIZ V0201101N00511006001CN0112651N1+02901+02201999999ADDGA1021+004501999GA2041+006001999GA3071+021001999GF107991999999999999999999MA1101081999999REMMET065METAR SBIZ 181800Z 11010KT 9999 FEW015 SCT020 BKN070 29/22 Q1011;
0166825640999992008011819004-05533-047500FM-15+0131SBIZ V0201201N00571006001CN0112651N1+02901+02201999999ADDGA1021+002401999GA2041+006001999GA3071+021001999GF107991999999999999999999MA1101021999999REMMET065METAR SBIZ 181900Z 12011KT 9999 FEW008 SCT020 BKN070 29/22 Q1010;
0143825640999992008011820004-05533-047500FM-15+0131SBIZ V0201501N002110210019N0112651N1+02801+02201999999ADDGA1041+006001999GA2071+021001999GF107991999999999999999999MA1101021999999REMMET058METAR SBIZ 182000Z 15004KT 9999 SCT020 BKN070 28/22 Q1010;
0143825640999992008011822004-05533-047500FM-15+0131SBIZ V0202101N001510045019N0112651N1+02601+02201999999ADDGA1071+004501999GA2081+120001999GF108991999999999999999999MA1101081999999REMMET058METAR SBIZ 182200Z 21003KT 9999 BKN015 OVC400 26/22 Q1011;
0143825640999992008011823004-05533-047500FM-15+0131SBIZ V0201801N001512200019N0112651N1+02601+02201999999ADDGA1041+004501999GA2041+120001999GF104991999999999999999999MA1101191999999REMMET058METAR SBIZ 182300Z 18003KT 9999 SCT015 SCT400 26/22 Q1012;
0143825640999992008011900004-05533-047500FM-15+0131SBIZ V0201501N001010045019N0112651N1+02501+02301999999ADDGA1071+004501999GA2071+006001999GF107991999999999999999999MA1101191999999REMMET058METAR SBIZ 190000Z 15002KT 9999 BKN015 BKN020 25/23 Q1012;
0143825640999992008011901004-05533-047500FM-15+0131SBIZ V0209999C000010045019N0112651N1+02501+02201999999ADDGA1071+004501999GA2071+006001999GF107991999999999999999999MA1101291999999REMMET058METAR SBIZ 190100Z 00000KT 9999 BKN015 BKN020 25/22 Q1013;
0120825640999992008011902004-05533-047500FM-15+0131SBIZ V0203301N003112200019N0112651N1+02501+02201999999ADDGA1021+004501999GF102991999999999999999999MA1101291999999REMMET051METAR SBIZ 190200Z 33006KT 9999 FEW015 25/22 Q1013;
0152825640999992008011903004-05533-047500FM-15+0131SBIZ V0200601N010310015019N0010001N1+02401+02401999999ADDGA1071+001501999GA2071+006001999GF107991999999999999999999MA1101291999999MW1631REMMET061METAR SBIZ 190300Z 06020KT 1000 RA BKN005 BKN020 24/24 Q1013;
0143825640999992008011908004-05533-047500FM-15+0131SBIZ V0209999C000012200019N0060001N1+02201+02101999999ADDGA1041+001201999GA2041+004501999GF104991999999999999999999MA1101081999999REMMET058METAR SBIZ 190800Z 00000KT 6000 SCT004 SCT015 22/21 Q1011;
0143825640999992008011909004-05533-047500FM-15+0131SBIZ V0209999C000010090019N0112651N1+02201+02101999999ADDGA1021+002101999GA2071+009001999GF107991999999999999999999MA1101191999999REMMET058METAR SBIZ 190900Z 00000KT 9999 FEW007 BKN030 22/21 Q1012;
0143825640999992008011910004-05533-047500FM-15+0131SBIZ V0209999C000010120019N0112651N1+02201+02201999999ADDGA1021+002101999GA2071+012001999GF107991999999999999999999MA1101291999999REMMET058METAR SBIZ 191000Z 00000KT 9999 FEW007 BKN040 22/22 Q1013;
0143825640999992008011911004-05533-047500FM-15+0131SBIZ V0209999C000010300019N0112651N1+02401+02101999999ADDGA1041+003001999GA2071+030001999GF107991999999999999999999MA1101291999999REMMET058METAR SBIZ 191100Z 00000KT 9999 SCT010 BKN100 24/21 Q1013;
0143825640999992008011912004-05533-047500FM-15+0131SBIZ V0200601N005110045019N0112651N1+02501+02201999999ADDGA1071+004501999GA2071+030001999GF107991999999999999999999MA1101291999999REMMET058METAR SBIZ 191200Z 06010KT 9999 BKN015 BKN100 25/22 Q1013;
0143825640999992008011913004-05533-047500FM-15+0131SBIZ V0209999C000010045019N0112651N1+02501+02301999999ADDGA1071+004501999GA2071+006001999GF107991999999999999999999MA1101291999999REMMET058METAR SBIZ 191300Z 00000KT 9999 BKN015 BKN020 25/23 Q1013;
0143825640999992008011914004-05533-047500FM-15+0131SBIZ V0203301N003610060019N0112651N1+02701+02301999999ADDGA1041+004501999GA2071+006001999GF107991999999999999999999MA1101291999999REMMET058METAR SBIZ 191400Z 33007KT 9999 SCT015 BKN020 27/23 Q1013;
0120825640999992008011915004-05533-047500FM-15+0131SBIZ V0200901N004110060019N0112651N1+03001+02301999999ADDGA1071+006001999GF107991999999999999999999MA1101191999999REMMET051METAR SBIZ 191500Z 09008KT 9999 BKN020 30/23 Q1012;
0143825640999992008011916004-05533-047500FM-15+0131SBIZ V0202801N003110060019N0112651N1+03101+02401999999ADDGA1021+004501999GA2071+006001999GF107991999999999999999999MA1101081999999REMMET058METAR SBIZ 191600Z 28006KT 9999 FEW015 BKN020 31/24 Q1011;
0143825640999992008011917004-05533-047500FM-15+0131SBIZ V0203301N005110060019N0112651N1+03201+02201999999ADDGA1041+004501999GA2071+006001999GF107991999999999999999999MA1101021999999REMMET058METAR SBIZ 191700Z 33010KT 9999 SCT015 BKN020 32/22 Q1010;
0143825640999992008011918004-05533-047500FM-15+0131SBIZ V0200401N006210060019N0112651N1+03301+02301999999ADDGA1021+004501999GA2071+006001999GF107991999999999999999999MA1100911999999REMMET058METAR SBIZ 191800Z 04012KT 9999 FEW015 BKN020 33/23 Q1009;
0120825640999992008011919004-05533-047500FM-15+0131SBIZ V0203201N002612200019N0112651N1+03201+02401999999ADDGA1041+006001999GF104991999999999999999999MA1100811999999REMMET051METAR SBIZ 191900Z 32005KT 9999 SCT020 32/24 Q1008;
0120825640999992008011920004-05533-047500FM-15+0131SBIZ V0201801N001012200019N0112651N1+03201+02301999999ADDGA1041+006001999GF104991999999999999999999MA1100811999999REMMET051METAR SBIZ 192000Z 18002KT 9999 SCT020 32/23 Q1008;
0143825640999992008011921004-05533-047500FM-15+0131SBIZ V0201001N00981220001CN0112651N1+03001+02401999999ADDGA1071+006001999GA2021+007501091MA1100911999999MW1811MW2951REMMET072METAR SBIZ 192100Z 10019KT 9999 4000NE TSRA BKN020 FEW025CB 30/24 Q1009;
0145825640999992008011922004-05533-047500FM-15+0131SBIZ V0200701N00361220001CN0112651N1+02501+02201999999ADDGA1071+006001999GA2021+007501091MA1100911999999MW1161MW2171REMMET074METAR SBIZ 192200Z 07007KT 9999 7000E TS VCSH BKN020 FEW025CB 25/22 Q1009;
0128825640999992008011923004-05533-047500FM-15+0131SBIZ V0201301N00211220001CN0112651N1+02401+02301999999ADDGA1071+006001999GA2021+007501091MA1101021999999MW1171REMMET063METAR SBIZ 192300Z 13004KT 9999 TS BKN020 FEW025CB 24/23 Q1010;
0147825640999992008012000004-05533-047500FM-15+0131SBIZ V0200701N00261220001CN0112651N1+02401+02201999999ADDGA1071+006001999GA2021+007501091MA1101081999999MW1171REMMET063METAR SBIZ 200000Z 07005KT 9999 TS BKN020 FEW025CB 24/22 Q1011;EQDQ01+000022SCOTCV
0147825640999992008012001004-05533-047500FM-15+0131SBIZ V0201401N00311220001CN0090001N1+02301+02101999999ADDGA1071+006001999GA2021+007501091MA1101081999999MW1171REMMET063METAR SBIZ 200100Z 14006KT 9000 TS BKN020 FEW025CB 23/21 Q1011;EQDQ01+000022SCOTCV
0154825640999992008012002004-05533-047500FM-15+0131SBIZ V0203301N001510090019N0090001N1+02301+02101999999ADDGA1021+007501091GA2071+009001999GF107991999999999999999999MA1101081999999MW1171REMMET063METAR SBIZ 200200Z 33003KT 9000 TS FEW025CB BKN030 23/21 Q1011;
0120825640999992008012008004-05533-047500FM-15+0131SBIZ V0209999C000012200019N0080001N1+02301+02201999999ADDGA1041+004501999GF104991999999999999999999MA1101081999999REMMET051METAR SBIZ 200800Z 00000KT 8000 SCT015 23/22 Q1011;
0143825640999992008012009004-05533-047500FM-15+0131SBIZ V0209999C000010045019N0080001N1+02301+02201999999ADDGA1071+004501999GA2071+120001999GF107991999999999999999999MA1101081999999REMMET058METAR SBIZ 200900Z 00000KT 8000 BKN015 BKN400 23/22 Q1011;
0166825640999992008012010004-05533-047500FM-15+0131SBIZ V0209999C000010045019N0112651N1+02401+02301999999ADDGA1071+004501999GA2041+006001999GA3071+030001999GF107991999999999999999999MA1101081999999REMMET065METAR SBIZ 201000Z 00000KT 9999 BKN015 SCT020 BKN100 24/23 Q1011;
0166825640999992008012011004-05533-047500FM-15+0131SBIZ V0201501N00261006001CN0112651N1+02501+02301999999ADDGA1041+004501999GA2041+006001999GA3071+030001999GF107991999999999999999999MA1101191999999REMMET065METAR SBIZ 201100Z 15005KT 9999 SCT015 SCT020 BKN100 25/23 Q1012;
0143825640999992008012012004-05533-047500FM-15+0131SBIZ V0200701N002610060019N0112651N1+02701+02301999999ADDGA1041+004501999GA2071+006001999GF107991999999999999999999MA1101291999999REMMET058METAR SBIZ 201200Z 07005KT 9999 SCT015 BKN020 27/23 Q1013;
0143825640999992008012013004-05533-047500FM-15+0131SBIZ V0200601N003110060019N0112651N1+02601+02401999999ADDGA1041+004501999GA2071+006001999GF107991999999999999999999MA1101291999999REMMET058METAR SBIZ 201300Z 06006KT 9999 SCT015 BKN020 26/24 Q1013;
0143825640999992008012014004-05533-047500FM-15+0131SBIZ V0200901N005110060019N0112651N1+03001+02301999999ADDGA1021+004501999GA2071+006001999GF107991999999999999999999MA1101291999999REMMET058METAR SBIZ 201400Z 09010KT 9999 FEW015 BKN020 30/23 Q1013;
0120825640999992008012015004-05533-047500FM-15+0131SBIZ V0201001N002110045019N0112651N1+03001+02401999999ADDGA1081+004501999GF108991999999999999999999MA1101291999999REMMET051METAR SBIZ 201500Z 10004KT 9999 OVC015 30/24 Q1013;
0135825640999992008012016004-05533-047500FM-15+0131SBIZ V0200501N005110045019N0112651N1+03001+02501999999ADDGA1071+004501999GF107991999999999999999999MA1101081999999MW1631REMMET060METAR SBIZ 201600Z 05010KT 9999 5000N RA BKN015 30/25 Q1011;
0138825640999992008012017004-05533-047500FM-15+0131SBIZ V0203301N00261220001CN0112651N1+03101+02401999999ADDGA1071+004501999GA2021+007501021MA1101021999999MW1161REMMET073METAR SBIZ 201700Z 33005KT 9999 7000NW VCSH BKN015 FEW025TCU 31/24 Q1010;
0194825640999992008012018004-05533-047500FM-15+0131SBIZ V0203301N001510060019N0112651N1+03101+02301999999ADDGA1071+006001999GA2021+007501091GA3081+030001999GF108991999999999999999999MA1100911999999MW1161MW2171REMMET081METAR SBIZ 201800Z 33003KT 9999 7000E TS VCSH BKN020 FEW025CB OVC100 31/23 Q1009;
0185825640999992008012019004-05533-047500FM-15+0131SBIZ V0203601N006210060019N0050001N1+02601+02501999999ADDGA1071+006001999GA2021+007501091GA3081+030001999GF108991999999999999999999MA1100811999999MW1811MW2951REMMET072METAR SBIZ 201900Z 36012KT 5000 TSRA BKN020 FEW025CB OVC100 26/25 Q1008;
0182825640999992008012020004-05533-047500FM-15+0131SBIZ V0201101N00311007501CN0112651N1+02601+02501999999ADDGA1041+004501999GA2021+007501091GA3081+030001999GF108991999999999999999999MA1100911999999MW1171REMMET075METAR SBIZ 202000Z 11006KT 9999 TS SCT015 FEW025CB OVC100 26/25 Q1009 RERA;
0148825640999992008012021004-05533-047500FM-15+0131SBIZ V0200901N001010240019N0112651N1+02601+02501999999ADDGA1041+006001999GA2081+024001999GF108991999999999999999999MA1100911999999REMMET063METAR SBIZ 202100Z 09002KT 9999 SCT020 OVC080 26/25 Q1009 RETS;
0143825640999992008012022004-05533-047500FM-15+0131SBIZ V0209999C000010240019N0112651N1+02601+02401999999ADDGA1041+006001999GA2071+024001999GF107991999999999999999999MA1101021999999REMMET058METAR SBIZ 202200Z 00000KT 9999 SCT020 BKN080 26/24 Q1010;
0143825640999992008012023004-05533-047500FM-15+0131SBIZ V0209999C000012200019N0112651N1+02501+02401999999ADDGA1021+006001999GA2041+024001999GF104991999999999999999999MA1101081999999REMMET058METAR SBIZ 202300Z 00000KT 9999 FEW020 SCT080 25/24 Q1011;
0120825640999992008012100004-05533-047500FM-15+0131SBIZ V0209999C000012200019N0112651N1+02601+02401999999ADDGA1041+006001999GF104991999999999999999999MA1101081999999REMMET051METAR SBIZ 210000Z 00000KT 9999 SCT020 26/24 Q1011;
0143825640999992008012101004-05533-047500FM-15+0131SBIZ V0209999C000012200019N0112651N1+02601+02501999999ADDGA1021+006001999GA2041+030001999GF104991999999999999999999MA1101191999999REMMET058METAR SBIZ 210100Z 00000KT 9999 FEW020 SCT100 26/25 Q1012;
0143825640999992008012102004-05533-047500FM-15+0131SBIZ V0200601N005112200019N0112651N1+02501+02301999999ADDGA1021+009001999GA2041+030001999GF104991999999999999999999MA1101291999999REMMET058METAR SBIZ 210200Z 06010KT 9999 FEW030 SCT100 25/23 Q1013;
0072825640999992008012103004-05533-047500FM-15+0131SBIZ V0200901N00261220001CN0099001N1+02401+02201999999ADDMA1101291999999REMMET045METAR SBIZ 210300Z 09005KT CAVOK 24/22 Q1013;
0143825640999992008012104004-05533-047500FM-15+0131SBIZ V0209999C000012200019N0112651N1+02301+02201999999ADDGA1041+006001999GA2041+030001999GF104991999999999999999999MA1101291999999REMMET058METAR SBIZ 210400Z 00000KT 9999 SCT020 SCT100 23/22 Q1013;
0120825640999992008012108004-05533-047500FM-15+0131SBIZ V0209999C000012200019N0080001N1+02201+02101999999ADDGA1041+004501999GF104991999999999999999999MA1101081999999REMMET051METAR SBIZ 210800Z 00000KT 8000 SCT015 22/21 Q1011;
0143825640999992008012109004-05533-047500FM-15+0131SBIZ V0209999C000010045019N0112651N1+02201+02201999999ADDGA1071+004501999GA2071+030001999GF107991999999999999999999MA1101191999999REMMET058METAR SBIZ 210900Z 00000KT 9999 BKN015 BKN100 22/22 Q1012;
0166825640999992008012110004-05533-047500FM-15+0131SBIZ V0200901N003610060019N0112651N1+02301+02201999999ADDGA1021+004501999GA2071+006001999GA3071+120001999GF107991999999999999999999MA1101191999999REMMET065METAR SBIZ 211000Z 09007KT 9999 FEW015 BKN020 BKN400 23/22 Q1012;
0143825640999992008012111004-05533-047500FM-15+0131SBIZ V0200501N003610300019N0112651N1+02301+02201999999ADDGA1021+006001999GA2071+030001999GF107991999999999999999999MA1101291999999REMMET058METAR SBIZ 211100Z 05007KT 9999 FEW020 BKN100 23/22 Q1013;
0143825640999992008012112004-05533-047500FM-15+0131SBIZ V0200301N002110060019N0112651N1+02401+02201999999ADDGA1041+004501999GA2071+006001999GF107991999999999999999999MA1101291999999REMMET058METAR SBIZ 211200Z 03004KT 9999 SCT015 BKN020 24/22 Q1013;
0143825640999992008012113004-05533-047500FM-15+0131SBIZ V0203001N003110045019N0112651N1+02801+02401999999ADDGA1071+004501999GA2071+006001999GF107991999999999999999999MA1101291999999REMMET058METAR SBIZ 211300Z 30006KT 9999 BKN015 BKN020 28/24 Q1013;
0143825640999992008012114004-05533-047500FM-15+0131SBIZ V0209999C000010060019N0112651N1+02901+02401999999ADDGA1021+004501999GA2071+006001999GF107991999999999999999999MA1101191999999REMMET058METAR SBIZ 211400Z 00000KT 9999 FEW015 BKN020 29/24 Q1012;
0143825640999992008012115004-05533-047500FM-15+0131SBIZ V0209999C000011200019N0112651N1+03101+02301999999ADDGA1041+006001999GA2071+120001999GF107991999999999999999999MA1101191999999REMMET058METAR SBIZ 211500Z 00000KT 9999 SCT020 BKN400 31/23 Q1012;
0143825640999992008012116004-05533-047500FM-15+0131SBIZ V0200401N003611200019N0112651N1+03101+02401999999ADDGA1041+006001999GA2071+120001999GF107991999999999999999999MA1101081999999REMMET058METAR SBIZ 211600Z 04007KT 9999 SCT020 BKN400 31/24 Q1011;
0166825640999992008012117004-05533-047500FM-15+0131SBIZ V0202101N00261006001CN0112651N1+03301+02401999999ADDGA1021+004501999GA2041+006001999GA3081+120001999GF108991999999999999999999MA1101021999999REMMET065METAR SBIZ 211700Z 21005KT 9999 FEW015 SCT020 OVC400 33/24 Q1010;
0166825640999992008012118004-05533-047500FM-15+0131SBIZ V0201801N00311006001CN0112651N1+03201+02501999999ADDGA1021+004501999GA2041+006001999GA3081+120001999GF108991999999999999999999MA1100911999999REMMET065METAR SBIZ 211800Z 18006KT 9999 FEW015 SCT020 OVC400 32/25 Q1009;
0200825640999992008012119004-05533-047500FM-15+0131SBIZ V0200701N00511006001CN0112651N1+03201+02301999999ADDGA1021+004501999GA2041+006001999GA3021+007501091GA4071+021001999GF107991999999999999999999MA1100811999999MW1171REMMET077METAR SBIZ 211900Z 07010KT 9999 TS FEW015 SCT020 FEW025CB BKN070 32/23 Q1008;
0171825640999992008012120004-05533-047500FM-15+0131SBIZ V0201001N00151006001CN0112651N1+03201+02301999999ADDGA1021+004501999GA2041+006001999GA3081+120001999GF108991999999999999999999MA1100811999999REMMET070METAR SBIZ 212000Z 10003KT 9999 FEW015 SCT020 OVC400 32/23 Q1008 RETS;
0209825640999992008012121004-05533-047500FM-15+0131SBIZ V0201101N00621006001CN0112651N1+02601+02101999999ADDGA1021+003001999GA2041+006001999GA3021+007501091GA4071+090001999GF107991999999999999999999MA1100911999999MW1801MW2951REMMET080METAR SBIZ 212100Z 11012KT 9999 -TSRA FEW010 SCT020 FEW025CB BKN300 26/21 Q1009;
