0166826780999992008092812004-06767-043017FM-12+012799999V0200901N001512200019N0040001N1+03181+01771101511ADDGA1001+999999999GF100991001001999999001001KA1240N+02701MA1999999099961MD1999999-0011REMSYN070AAXX  28124 82678 32996 00903 10318 20177 39996 40151 333 20270 59001;
0137826780999992008092818004-06767-043017FM-12+012799999V0201401N001512200019N0040001N1+03781+01711100961ADDGF106991041021008001001011MA1999999099431MD1999999+0071REMSYN070AAXX  28184 82678 32596 61403 10378 20171 39943 40096 84201 333 58007;
