0166827840999992008092812004-07317-039300FM-12+040999999V0201801N003112200019N0200001N1+02761+01591101411ADDGA1001+999999999GF100991001001999999001001KA1240N+01951MA1999999096921MD1999999+0071REMSYN070AAXX  28124 82784 32598 01806 10276 20159 39692 40141 333 20195 58007;
0147827840999992008092818004-07317-039300FM-12+040999999V0201801N001512200019N0200001N1+03431+01881100811ADDGA1001+999999999GF100991001001999999001001MA1999999096351MD1999999+0131REMSYN064AAXX  28184 82784 32598 01803 10343 20188 39635 40081 333 58013;
