0120827980999992008010100004-07100-034867FM-15+0066SBJP V0201701N002112200019N0112651N1+02501+02101999999ADDGA1021+006001999GF102991999999999999999999MA1101191999999REMMET051METAR SBJP 010000Z 17004KT 9999 FEW020 25/21 Q1012;
0120827980999992008010101004-07100-034867FM-15+0066SBJP V0202101N001012200019N0112651N1+02401+02101999999ADDGA1021+006001999GF102991999999999999999999MA1101191999999REMMET051METAR SBJP 010100Z 21002KT 9999 FEW020 24/21 Q1012;
0120827980999992008010102004-07100-034867FM-15+0066SBJP V0209999C000012200019N0112651N1+02401+02101999999ADDGA1041+006001999GF104991999999999999999999MA1101081999999REMMET051METAR SBJP 010200Z 00000KT 9999 SCT020 24/21 Q1011;
0120827980999992008010103004-07100-034867FM-15+0066SBJP V0202301N001012200019N0112651N1+02401+02101999999ADDGA1041+006001999GF104991999999999999999999MA1101081999999REMMET051METAR SBJP 010300Z 23002KT 9999 SCT020 24/21 Q1011;
0120827980999992008010104004-07100-034867FM-15+0066SBJP V0202501N001512200019N0112651N1+02301+02101999999ADDGA1041+006001999GF104991999999999999999999MA1101021999999REMMET051METAR SBJP 010400Z 25003KT 9999 SCT020 23/21 Q1010;
0120827980999992008010105004-07100-034867FM-15+0066SBJP V0202501N001512200019N0112651N1+02201+02001999999ADDGA1041+006001999GF104991999999999999999999MA1101021999999REMMET051METAR SBJP 010500Z 25003KT 9999 SCT020 22/20 Q1010;
0120827980999992008010106004-07100-034867FM-15+0066SBJP V0202401N001512200019N0112651N1+02201+02001999999ADDGA1041+006001999GF104991999999999999999999MA1101021999999REMMET051METAR SBJP 010600Z 24003KT 9999 SCT020 22/20 Q1010;
0120827980999992008010107004-07100-034867FM-15+0066SBJP V0202601N001512200019N0112651N1+02201+02001999999ADDGA1021+006001999GF102991999999999999999999MA1101021999999REMMET051METAR SBJP 010700Z 26003KT 9999 FEW020 22/20 Q1010;
0120827980999992008010108004-07100-034867FM-15+0066SBJP V0209999C000012200019N0112651N1+02201+02001999999ADDGA1021+006001999GF102991999999999999999999MA1101081999999REMMET051METAR SBJP 010800Z 00000KT 9999 FEW020 22/20 Q1011;
0120827980999992008010109004-07100-034867FM-15+0066SBJP V0202301N001512200019N0112651N1+02201+02101999999ADDGA1021+006001999GF102991999999999999999999MA1101191999999REMMET051METAR SBJP 010900Z 23003KT 9999 FEW020 22/21 Q1012;
0072827980999992008010110004-07100-034867FM-15+0066SBJP V0201901N00151220001CN0099001N1+02601+02201999999ADDMA1101191999999REMMET045METAR SBJP 011000Z 19003KT CAVOK 26/22 Q1012;
0120827980999992008010111004-07100-034867FM-15+0066SBJP V0201201N003112200019N0112651N1+02901+02001999999ADDGA1021+009001999GF102991999999999999999999MA1101191999999REMMET051METAR SBJP 011100Z 12006KT 9999 FEW030 29/20 Q1012;
0120827980999992008010112004-07100-034867FM-15+0066SBJP V0201201N003612200019N0112651N1+03001+01901999999ADDGA1041+009001999GF104991999999999999999999MA1101291999999REMMET051METAR SBJP 011200Z 12007KT 9999 SCT030 30/19 Q1013;
0120827980999992008010113004-07100-034867FM-15+0066SBJP V0201601N003612200019N0112651N1+02901+01901999999ADDGA1041+009001999GF104991999999999999999999MA1101291999999REMMET051METAR SBJP 011300Z 16007KT 9999 SCT030 29/19 Q1013;
0120827980999992008010114004-07100-034867FM-15+0066SBJP V0201401N004612200019N0112651N1+03101+01901999999ADDGA1041+009001999GF104991999999999999999999MA1101291999999REMMET051METAR SBJP 011400Z 14009KT 9999 SCT030 31/19 Q1013;
0120827980999992008010115004-07100-034867FM-15+0066SBJP V0201401N004612200019N0112651N1+03101+01901999999ADDGA1041+009001999GF104991999999999999999999MA1101191999999REMMET051METAR SBJP 011500Z 14009KT 9999 SCT030 31/19 Q1012;
0120827980999992008010116004-07100-034867FM-15+0066SBJP V0201501N005112200019N0112651N1+03101+02001999999ADDGA1041+009001999GF104991999999999999999999MA1101191999999REMMET051METAR SBJP 011600Z 15010KT 9999 SCT030 31/20 Q1012;
0120827980999992008010117004-07100-034867FM-15+0066SBJP V0201601N003612200019N0112651N1+03001+02001999999ADDGA1041+009001999GF104991999999999999999999MA1101081999999REMMET051METAR SBJP 011700Z 16007KT 9999 SCT030 30/20 Q1011;
0120827980999992008010118004-07100-034867FM-15+0066SBJP V0201501N004112200019N0112651N1+03001+01901999999ADDGA1021+009001999GF102991999999999999999999MA1101081999999REMMET051METAR SBJP 011800Z 15008KT 9999 FEW030 30/19 Q1011;
0120827980999992008010119004-07100-034867FM-15+0066SBJP V0201501N003112200019N0112651N1+03001+01901999999ADDGA1021+009001999GF102991999999999999999999MA1101081999999REMMET051METAR SBJP 011900Z 15006KT 9999 FEW030 30/19 Q1011;
0120827980999992008010120004-07100-034867FM-15+0066SBJP V0201501N004112200019N0112651N1+02901+02001999999ADDGA1021+009001999GF102991999999999999999999MA1101081999999REMMET051METAR SBJP 012000Z 15008KT 9999 FEW030 29/20 Q1011;
0072827980999992008010121004-07100-034867FM-15+0066SBJP V0201801N00261220001CN0099001N1+02701+02101999999ADDMA1101191999999REMMET045METAR SBJP 012100Z 18005KT CAVOK 27/21 Q1012;
0072827980999992008010122004-07100-034867FM-15+0066SBJP V0201701N00211220001CN0099001N1+02501+02101999999ADDMA1101191999999REMMET045METAR SBJP 012200Z 17004KT CAVOK 25/21 Q1012;
0072827980999992008010123004-07100-034867FM-15+0066SBJP V0201901N00211220001CN0099001N1+02501+02101999999ADDMA1101291999999REMMET045METAR SBJP 012300Z 19004KT CAVOK 25/21 Q1013;
0072827980999992008010200004-07100-034867FM-15+0066SBJP V0201801N00211220001CN0099001N1+02401+02101999999ADDMA1101291999999REMMET045METAR SBJP 020000Z 18004KT CAVOK 24/21 Q1013;
0072827980999992008010201004-07100-034867FM-15+0066SBJP V0202001N00151220001CN0099001N1+02401+02101999999ADDMA1101291999999REMMET045METAR SBJP 020100Z 20003KT CAVOK 24/21 Q1013;
0120827980999992008010202004-07100-034867FM-15+0066SBJP V0202001N001012200019N0112651N1+02401+02101999999ADDGA1021+006001999GF102991999999999999999999MA1101291999999REMMET051METAR SBJP 020200Z 20002KT 9999 FEW020 24/21 Q1013;
0120827980999992008010203004-07100-034867FM-15+0066SBJP V0202201N001512200019N0112651N1+02301+02101999999ADDGA1021+006001999GF102991999999999999999999MA1101191999999REMMET051METAR SBJP 020300Z 22003KT 9999 FEW020 23/21 Q1012;
0120827980999992008010204004-07100-034867FM-15+0066SBJP V0202101N001512200019N0112651N1+02301+02101999999ADDGA1021+006001999GF102991999999999999999999MA1101191999999REMMET051METAR SBJP 020400Z 21003KT 9999 FEW020 23/21 Q1012;
0120827980999992008010205004-07100-034867FM-15+0066SBJP V0202001N001512200019N0112651N1+02301+02101999999ADDGA1021+006001999GF102991999999999999999999MA1101081999999REMMET051METAR SBJP 020500Z 20003KT 9999 FEW020 23/21 Q1011;
0072827980999992008010206004-07100-034867FM-15+0066SBJP V0202001N00151220001CN0099001N1+02301+02101999999ADDMA1101081999999REMMET045METAR SBJP 020600Z 20003KT CAVOK 23/21 Q1011;
0072827980999992008010207004-07100-034867FM-15+0066SBJP V0202101N00101220001CN0099001N1+02201+02101999999ADDMA1101081999999REMMET045METAR SBJP 020700Z 21002KT CAVOK 22/21 Q1011;
0120827980999992008010208004-07100-034867FM-15+0066SBJP V0202201N001012200019N0112651N1+02201+02001999999ADDGA1021+006001999GF102991999999999999999999MA1101191999999REMMET051METAR SBJP 020800Z 22002KT 9999 FEW020 22/20 Q1012;
0120827980999992008010209004-07100-034867FM-15+0066SBJP V0202201N001512200019N0112651N1+02201+02101999999ADDGA1021+006001999GF102991999999999999999999MA1101191999999REMMET051METAR SBJP 020900Z 22003KT 9999 FEW020 22/21 Q1012;
0120827980999992008010210004-07100-034867FM-15+0066SBJP V0202501N002112200019N0112651N1+02501+02201999999ADDGA1021+006001999GF102991999999999999999999MA1101291999999REMMET051METAR SBJP 021000Z 25004KT 9999 FEW020 25/22 Q1013;
0120827980999992008010211004-07100-034867FM-15+0066SBJP V0201601N002612200019N0112651N1+02801+02201999999ADDGA1041+007501999GF104991999999999999999999MA1101291999999REMMET051METAR SBJP 021100Z 16005KT 9999 SCT025 28/22 Q1013;
0120827980999992008010212004-07100-034867FM-15+0066SBJP V0201501N003612200019N0112651N1+03001+02101999999ADDGA1041+009001999GF104991999999999999999999MA1101291999999REMMET051METAR SBJP 021200Z 15007KT 9999 SCT030 30/21 Q1013;
0120827980999992008010213004-07100-034867FM-15+0066SBJP V0201601N003112200019N0112651N1+03101+02001999999ADDGA1041+009001999GF104991999999999999999999MA1101291999999REMMET051METAR SBJP 021300Z 16006KT 9999 SCT030 31/20 Q1013;
0120827980999992008010214004-07100-034867FM-15+0066SBJP V0201401N004112200019N0112651N1+03101+02001999999ADDGA1041+009001999GF104991999999999999999999MA1101291999999REMMET051METAR SBJP 021400Z 14008KT 9999 SCT030 31/20 Q1013;
0120827980999992008010215004-07100-034867FM-15+0066SBJP V0201301N004112200019N0112651N1+03101+02101999999ADDGA1041+009001999GF104991999999999999999999MA1101191999999REMMET051METAR SBJP 021500Z 13008KT 9999 SCT030 31/21 Q1012;
0120827980999992008010216004-07100-034867FM-15+0066SBJP V0201401N004112200019N0112651N1+03001+02101999999ADDGA1041+009001999GF104991999999999999999999MA1101081999999REMMET051METAR SBJP 021600Z 14008KT 9999 SCT030 30/21 Q1011;
0120827980999992008010217004-07100-034867FM-15+0066SBJP V0201601N005112200019N0112651N1+03101+02101999999ADDGA1041+009001999GF104991999999999999999999MA1101081999999REMMET051METAR SBJP 021700Z 16010KT 9999 SCT030 31/21 Q1011;
0120827980999992008010218004-07100-034867FM-15+0066SBJP V0201601N005112200019N0112651N1+03001+02101999999ADDGA1041+009001999GF104991999999999999999999MA1101081999999REMMET051METAR SBJP 021800Z 16010KT 9999 SCT030 30/21 Q1011;
0120827980999992008010219004-07100-034867FM-15+0066SBJP V0201401N005112200019N0112651N1+02901+02001999999ADDGA1041+009001999GF104991999999999999999999MA1101081999999REMMET051METAR SBJP 021900Z 14010KT 9999 SCT030 29/20 Q1011;
0120827980999992008010220004-07100-034867FM-15+0066SBJP V0201601N004612200019N0112651N1+02801+02201999999ADDGA1021+009001999GF102991999999999999999999MA1101081999999REMMET051METAR SBJP 022000Z 16009KT 9999 FEW030 28/22 Q1011;
0120827980999992008010221004-07100-034867FM-15+0066SBJP V0201601N004112200019N0112651N1+02701+02201999999ADDGA1021+006001999GF102991999999999999999999MA1101191999999REMMET051METAR SBJP 022100Z 16008KT 9999 FEW020 27/22 Q1012;
0120827980999992008010222004-07100-034867FM-15+0066SBJP V0201501N003112200019N0112651N1+02601+02201999999ADDGA1021+006001999GF102991999999999999999999MA1101291999999REMMET051METAR SBJP 022200Z 15006KT 9999 FEW020 26/22 Q1013;
0120827980999992008010223004-07100-034867FM-15+0066SBJP V0201601N003112200019N0112651N1+02601+02201999999ADDGA1021+006001999GF102991999999999999999999MA1101291999999REMMET051METAR SBJP 022300Z 16006KT 9999 FEW020 26/22 Q1013;
0120827980999992008010300004-07100-034867FM-15+0066SBJP V0201601N003112200019N0112651N1+02601+02201999999ADDGA1021+006001999GF102991999999999999999999MA1101391999999REMMET051METAR SBJP 030000Z 16006KT 9999 FEW020 26/22 Q1014;
0120827980999992008010301004-07100-034867FM-15+0066SBJP V0202001N002112200019N0112651N1+02501+02201999999ADDGA1021+006001999GF102991999999999999999999MA1101391999999REMMET051METAR SBJP 030100Z 20004KT 9999 FEW020 25/22 Q1014;
0120827980999992008010302004-07100-034867FM-15+0066SBJP V0202001N002112200019N0112651N1+02401+02201999999ADDGA1021+006001999GF102991999999999999999999MA1101391999999REMMET051METAR SBJP 030200Z 20004KT 9999 FEW020 24/22 Q1014;
0120827980999992008010303004-07100-034867FM-15+0066SBJP V0201901N001012200019N0112651N1+02401+02201999999ADDGA1021+006001999GF102991999999999999999999MA1101291999999REMMET051METAR SBJP 030300Z 19002KT 9999 FEW020 24/22 Q1013;
0120827980999992008010304004-07100-034867FM-15+0066SBJP V0202201N001012200019N0112651N1+02401+02201999999ADDGA1021+005401999GF102991999999999999999999MA1101291999999REMMET051METAR SBJP 030400Z 22002KT 9999 FEW018 24/22 Q1013;
0120827980999992008010305004-07100-034867FM-15+0066SBJP V0202301N001512200019N0112651N1+02301+02101999999ADDGA1041+005401999GF104991999999999999999999MA1101191999999REMMET051METAR SBJP 030500Z 23003KT 9999 SCT018 23/21 Q1012;
0120827980999992008010306004-07100-034867FM-15+0066SBJP V0202201N001512200019N0112651N1+02301+02101999999ADDGA1021+005401999GF102991999999999999999999MA1101191999999REMMET051METAR SBJP 030600Z 22003KT 9999 FEW018 23/21 Q1012;
0120827980999992008010307004-07100-034867FM-15+0066SBJP V0202401N002112200019N0112651N1+02301+02101999999ADDGA1041+005401999GF104991999999999999999999MA1101191999999REMMET051METAR SBJP 030700Z 24004KT 9999 SCT018 23/21 Q1012;
0120827980999992008010308004-07100-034867FM-15+0066SBJP V0202401N001512200019N0112651N1+02301+02101999999ADDGA1041+005401999GF104991999999999999999999MA1101291999999REMMET051METAR SBJP 030800Z 24003KT 9999 SCT018 23/21 Q1013;
0120827980999992008010309004-07100-034867FM-15+0066SBJP V0202301N002612200019N0112651N1+02301+02201999999ADDGA1021+006001999GF102991999999999999999999MA1101291999999REMMET051METAR SBJP 030900Z 23005KT 9999 FEW020 23/22 Q1013;
0120827980999992008010310004-07100-034867FM-15+0066SBJP V0202101N002112200019N0112651N1+02501+02201999999ADDGA1041+007501999GF104991999999999999999999MA1101391999999REMMET051METAR SBJP 031000Z 21004KT 9999 SCT025 25/22 Q1014;
0120827980999992008010311004-07100-034867FM-15+0066SBJP V0202001N002612200019N0112651N1+02701+02201999999ADDGA1041+007501999GF104991999999999999999999MA1101491999999REMMET051METAR SBJP 031100Z 20005KT 9999 SCT025 27/22 Q1015;
0120827980999992008010312004-07100-034867FM-15+0066SBJP V0201701N005710075019N0112651N1+03001+02101999999ADDGA1071+007501999GF107991999999999999999999MA1101391999999REMMET051METAR SBJP 031200Z 17011KT 9999 BKN025 30/21 Q1014;
0120827980999992008010313004-07100-034867FM-15+0066SBJP V0201701N005710075019N0112651N1+03001+02101999999ADDGA1071+007501999GF107991999999999999999999MA1101391999999REMMET051METAR SBJP 031300Z 17011KT 9999 BKN025 30/21 Q1014;
0120827980999992008010314004-07100-034867FM-15+0066SBJP V0201601N005710075019N0112651N1+03101+02101999999ADDGA1071+007501999GF107991999999999999999999MA1101391999999REMMET051METAR SBJP 031400Z 16011KT 9999 BKN025 31/21 Q1014;
0120827980999992008010315004-07100-034867FM-15+0066SBJP V0201701N004612200019N0112651N1+03101+02101999999ADDGA1041+009001999GF104991999999999999999999MA1101391999999REMMET051METAR SBJP 031500Z 17009KT 9999 SCT030 31/21 Q1014;
0120827980999992008010316004-07100-034867FM-15+0066SBJP V0201701N005112200019N0112651N1+03201+02101999999ADDGA1041+009001999GF104991999999999999999999MA1101291999999REMMET051METAR SBJP 031600Z 17010KT 9999 SCT030 32/21 Q1013;
0120827980999992008010317004-07100-034867FM-15+0066SBJP V0201801N006212200019N0112651N1+03101+02101999999ADDGA1041+009001999GF104991999999999999999999MA1101191999999REMMET051METAR SBJP 031700Z 18012KT 9999 SCT030 31/21 Q1012;
0120827980999992008010318004-07100-034867FM-15+0066SBJP V0201401N005112200019N0112651N1+03001+02201999999ADDGA1041+009001999GF104991999999999999999999MA1101191999999REMMET051METAR SBJP 031800Z 14010KT 9999 SCT030 30/22 Q1012;
0120827980999992008010319004-07100-034867FM-15+0066SBJP V0201801N006212200019N0112651N1+02901+02201999999ADDGA1041+009001999GF104991999999999999999999MA1101291999999REMMET051METAR SBJP 031900Z 18012KT 9999 SCT030 29/22 Q1013;
0120827980999992008010320004-07100-034867FM-15+0066SBJP V0201801N004112200019N0112651N1+02801+02301999999ADDGA1041+009001999GF104991999999999999999999MA1101291999999REMMET051METAR SBJP 032000Z 18008KT 9999 SCT030 28/23 Q1013;
0120827980999992008010321004-07100-034867FM-15+0066SBJP V0201701N003112200019N0112651N1+02701+02201999999ADDGA1041+009001999GF104991999999999999999999MA1101391999999REMMET051METAR SBJP 032100Z 17006KT 9999 SCT030 27/22 Q1014;
0120827980999992008010322004-07100-034867FM-15+0066SBJP V0201401N003110051019N0112651N1+02701+02301999999ADDGA1071+005101999GF107991999999999999999999MA1101391999999REMMET051METAR SBJP 032200Z 14006KT 9999 BKN017 27/23 Q1014;
0120827980999992008010323004-07100-034867FM-15+0066SBJP V0201501N002612200019N0112651N1+02601+02301999999ADDGA1021+005101999GF102991999999999999999999MA1101491999999REMMET051METAR SBJP 032300Z 15005KT 9999 FEW017 26/23 Q1015;
0120827980999992008010400004-07100-034867FM-15+0066SBJP V0201701N002112200019N0112651N1+02601+02301999999ADDGA1021+004501999GF102991999999999999999999MA1101491999999REMMET051METAR SBJP 040000Z 17004KT 9999 FEW015 26/23 Q1015;
0120827980999992008010401004-07100-034867FM-15+0066SBJP V0201401N003612200019N0112651N1+02601+02301999999ADDGA1041+005101999GF104991999999999999999999MA1101491999999REMMET051METAR SBJP 040100Z 14007KT 9999 SCT017 26/23 Q1015;
0120827980999992008010402004-07100-034867FM-15+0066SBJP V0201301N004112200019N0112651N1+02601+02301999999ADDGA1041+006001999GF104991999999999999999999MA1101491999999REMMET051METAR SBJP 040200Z 13008KT 9999 SCT020 26/23 Q1015;
0072827980999992008010403004-07100-034867FM-15+0066SBJP V0201301N00311220001CN0099001N1+02601+02301999999ADDMA1101391999999REMMET045METAR SBJP 040300Z 13006KT CAVOK 26/23 Q1014;
0120827980999992008010404004-07100-034867FM-15+0066SBJP V0201601N003112200019N0112651N1+02601+02301999999ADDGA1021+006001999GF102991999999999999999999MA1101391999999REMMET051METAR SBJP 040400Z 16006KT 9999 FEW020 26/23 Q1014;
0120827980999992008010405004-07100-034867FM-15+0066SBJP V0201601N002612200019N0112651N1+02501+02301999999ADDGA1041+006001999GF104991999999999999999999MA1101291999999REMMET051METAR SBJP 040500Z 16005KT 9999 SCT020 25/23 Q1013;
0120827980999992008010406004-07100-034867FM-15+0066SBJP V0201901N001512200019N0112651N1+02501+02301999999ADDGA1041+006001999GF104991999999999999999999MA1101291999999REMMET051METAR SBJP 040600Z 19003KT 9999 SCT020 25/23 Q1013;
0120827980999992008010407004-07100-034867FM-15+0066SBJP V0201801N001512200019N0112651N1+02501+02301999999ADDGA1041+006001999GF104991999999999999999999MA1101291999999REMMET051METAR SBJP 040700Z 18003KT 9999 SCT020 25/23 Q1013;
0120827980999992008010408004-07100-034867FM-15+0066SBJP V0201901N001512200019N0112651N1+02501+02301999999ADDGA1041+006001999GF104991999999999999999999MA1101391999999REMMET051METAR SBJP 040800Z 19003KT 9999 SCT020 25/23 Q1014;
0153827980999992008010409004-07100-034867FM-15+0066SBJP V0201901N001012200019N0050001N1+02501+02401999999ADDGA1041+004501999GA2041+021001999GF104991999999999999999999MA1101391999999MW1611REMMET062METAR SBJP 040900Z 19002KT 5000 -RA SCT015 SCT070 25/24 Q1014;
0143827980999992008010410004-07100-034867FM-15+0066SBJP V0201701N003112200019N0112651N1+02601+02301999999ADDGA1041+005401999GA2041+021001999GF104991999999999999999999MA1101491999999REMMET058METAR SBJP 041000Z 17006KT 9999 SCT018 SCT070 26/23 Q1015;
0143827980999992008010411004-07100-034867FM-15+0066SBJP V0201501N005112200019N0112651N1+02801+02301999999ADDGA1041+005401999GA2041+021001999GF104991999999999999999999MA1101591999999REMMET058METAR SBJP 041100Z 15010KT 9999 SCT018 SCT070 28/23 Q1016;
0143827980999992008010412004-07100-034867FM-15+0066SBJP V0201601N005112200019N0112651N1+02901+02301999999ADDGA1041+006001999GA2041+027001999GF104991999999999999999999MA1101591999999REMMET058METAR SBJP 041200Z 16010KT 9999 SCT020 SCT090 29/23 Q1016;
0120827980999992008010413004-07100-034867FM-15+0066SBJP V0201501N005112200019N0112651N1+02901+02301999999ADDGA1041+006001999GF104991999999999999999999MA1101491999999REMMET051METAR SBJP 041300Z 15010KT 9999 SCT020 29/23 Q1015;
0120827980999992008010414004-07100-034867FM-15+0066SBJP V0201501N006710060019N0112651N1+03001+02201999999ADDGA1071+006001999GF107991999999999999999999MA1101491999999REMMET051METAR SBJP 041400Z 15013KT 9999 BKN020 30/22 Q1015;
0120827980999992008010415004-07100-034867FM-15+0066SBJP V0201501N006710060019N0112651N1+03001+02101999999ADDGA1071+006001999GF107991999999999999999999MA1101491999999REMMET051METAR SBJP 041500Z 15013KT 9999 BKN020 30/21 Q1015;
0120827980999992008010416004-07100-034867FM-15+0066SBJP V0201201N005110090019N0112651N1+03001+02101999999ADDGA1071+009001999GF107991999999999999999999MA1101391999999REMMET051METAR SBJP 041600Z 12010KT 9999 BKN030 30/21 Q1014;
0120827980999992008010417004-07100-034867FM-15+0066SBJP V0201201N005110090019N0112651N1+03001+02001999999ADDGA1071+009001999GF107991999999999999999999MA1101391999999REMMET051METAR SBJP 041700Z 12010KT 9999 BKN030 30/20 Q1014;
0120827980999992008010418004-07100-034867FM-15+0066SBJP V0201201N005112200019N0112651N1+03001+02101999999ADDGA1041+009001999GF104991999999999999999999MA1101391999999REMMET051METAR SBJP 041800Z 12010KT 9999 SCT030 30/21 Q1014;
0120827980999992008010419004-07100-034867FM-15+0066SBJP V0201301N005712200019N0112651N1+03001+02101999999ADDGA1041+009001999GF104991999999999999999999MA1101391999999REMMET051METAR SBJP 041900Z 13011KT 9999 SCT030 30/21 Q1014;
0120827980999992008010420004-07100-034867FM-15+0066SBJP V0201201N004612200019N0112651N1+02801+02101999999ADDGA1041+007501999GF104991999999999999999999MA1101391999999REMMET051METAR SBJP 042000Z 12009KT 9999 SCT025 28/21 Q1014;
0120827980999992008010421004-07100-034867FM-15+0066SBJP V0201401N004112200019N0112651N1+02701+02101999999ADDGA1021+006001999GF102991999999999999999999MA1101391999999REMMET051METAR SBJP 042100Z 14008KT 9999 FEW020 27/21 Q1014;
0120827980999992008010422004-07100-034867FM-15+0066SBJP V0201501N002612200019N0112651N1+02601+02201999999ADDGA1021+006001999GF102991999999999999999999MA1101491999999REMMET051METAR SBJP 042200Z 15005KT 9999 FEW020 26/22 Q1015;
0120827980999992008010423004-07100-034867FM-15+0066SBJP V0201501N001512200019N0112651N1+02601+02201999999ADDGA1021+006001999GF102991999999999999999999MA1101591999999REMMET051METAR SBJP 042300Z 15003KT 9999 FEW020 26/22 Q1016;
0072827980999992008010500004-07100-034867FM-15+0066SBJP V0201601N00151220001CN0099001N1+02501+02201999999ADDMA1101591999999REMMET045METAR SBJP 050000Z 16003KT CAVOK 25/22 Q1016;
0120827980999992008010501004-07100-034867FM-15+0066SBJP V0201801N001512200019N0112651N1+02501+02201999999ADDGA1021+006001999GF102991999999999999999999MA1101591999999REMMET051METAR SBJP 050100Z 18003KT 9999 FEW020 25/22 Q1016;
0120827980999992008010502004-07100-034867FM-15+0066SBJP V0201701N001512200019N0112651N1+02401+02201999999ADDGA1021+006001999GF102991999999999999999999MA1101591999999REMMET051METAR SBJP 050200Z 17003KT 9999 FEW020 24/22 Q1016;
0143827980999992008010503004-07100-034867FM-15+0066SBJP V0201801N001512200019N0112651N1+02401+02201999999ADDGA1021+006001999GA2041+021001999GF104991999999999999999999MA1101491999999REMMET058METAR SBJP 050300Z 18003KT 9999 FEW020 SCT070 24/22 Q1015;
0143827980999992008010504004-07100-034867FM-15+0066SBJP V0202201N001012200019N0112651N1+02401+02201999999ADDGA1021+006001999GA2041+021001999GF104991999999999999999999MA1101391999999REMMET058METAR SBJP 050400Z 22002KT 9999 FEW020 SCT070 24/22 Q1014;
0120827980999992008010505004-07100-034867FM-15+0066SBJP V0202301N001012200019N0112651N1+02401+02101999999ADDGA1021+006001999GF102991999999999999999999MA1101391999999REMMET051METAR SBJP 050500Z 23002KT 9999 FEW020 24/21 Q1014;
0120827980999992008010506004-07100-034867FM-15+0066SBJP V0202301N001012200019N0112651N1+02401+02101999999ADDGA1021+006001999GF102991999999999999999999MA1101391999999REMMET051METAR SBJP 050600Z 23002KT 9999 FEW020 24/21 Q1014;
0120827980999992008010507004-07100-034867FM-15+0066SBJP V0202101N002112200019N0112651N1+02301+02201999999ADDGA1021+006001999GF102991999999999999999999MA1101591999999REMMET051METAR SBJP 050700Z 21004KT 9999 FEW020 23/22 Q1016;
0120827980999992008010508004-07100-034867FM-15+0066SBJP V0202201N001012200019N0112651N1+02301+02201999999ADDGA1041+006001999GF104991999999999999999999MA1101391999999REMMET051METAR SBJP 050800Z 22002KT 9999 SCT020 23/22 Q1014;
0120827980999992008010509004-07100-034867FM-15+0066SBJP V0202001N001012200019N0112651N1+02401+02201999999ADDGA1041+006001999GF104991999999999999999999MA1101391999999REMMET051METAR SBJP 050900Z 20002KT 9999 SCT020 24/22 Q1014;
0120827980999992008010510004-07100-034867FM-15+0066SBJP V0201601N001510060019N0112651N1+02601+02301999999ADDGA1071+006001999GF107991999999999999999999MA1101491999999REMMET051METAR SBJP 051000Z 16003KT 9999 BKN020 26/23 Q1015;
0120827980999992008010511004-07100-034867FM-15+0066SBJP V0201101N004112200019N0112651N1+02801+02101999999ADDGA1041+006001999GF104991999999999999999999MA1101491999999REMMET051METAR SBJP 051100Z 11008KT 9999 SCT020 28/21 Q1015;
0120827980999992008010512004-07100-034867FM-15+0066SBJP V0201301N004112200019N0112651N1+03001+02001999999ADDGA1041+009001999GF104991999999999999999999MA1101491999999REMMET051METAR SBJP 051200Z 13008KT 9999 SCT030 30/20 Q1015;
0120827980999992008010513004-07100-034867FM-15+0066SBJP V0201201N004112200019N0112651N1+03001+02001999999ADDGA1041+009001999GF104991999999999999999999MA1101491999999REMMET051METAR SBJP 051300Z 12008KT 9999 SCT030 30/20 Q1015;
0120827980999992008010514004-07100-034867FM-15+0066SBJP V0201201N004112200019N0112651N1+03101+01801999999ADDGA1041+009001999GF104991999999999999999999MA1101491999999REMMET051METAR SBJP 051400Z 12008KT 9999 SCT030 31/18 Q1015;
0120827980999992008010515004-07100-034867FM-15+0066SBJP V0201201N004612200019N0112651N1+03101+02001999999ADDGA1041+009001999GF104991999999999999999999MA1101391999999REMMET051METAR SBJP 051500Z 12009KT 9999 SCT030 31/20 Q1014;
0120827980999992008010516004-07100-034867FM-15+0066SBJP V0201301N004612200019N0112651N1+03101+02001999999ADDGA1041+009001999GF104991999999999999999999MA1101291999999REMMET051METAR SBJP 051600Z 13009KT 9999 SCT030 31/20 Q1013;
0120827980999992008010517004-07100-034867FM-15+0066SBJP V0201301N005112200019N0112651N1+03001+02101999999ADDGA1041+009001999GF104991999999999999999999MA1101291999999REMMET051METAR SBJP 051700Z 13010KT 9999 SCT030 30/21 Q1013;
0120827980999992008010518004-07100-034867FM-15+0066SBJP V0201201N004612200019N0112651N1+03001+02101999999ADDGA1041+009001999GF104991999999999999999999MA1101191999999REMMET051METAR SBJP 051800Z 12009KT 9999 SCT030 30/21 Q1012;
0120827980999992008010519004-07100-034867FM-15+0066SBJP V0201401N005112200019N0112651N1+02901+02101999999ADDGA1041+009001999GF104991999999999999999999MA1101191999999REMMET051METAR SBJP 051900Z 14010KT 9999 SCT030 29/21 Q1012;
0120827980999992008010520004-07100-034867FM-15+0066SBJP V0201501N004612200019N0112651N1+02801+02201999999ADDGA1041+009001999GF104991999999999999999999MA1101291999999REMMET051METAR SBJP 052000Z 15009KT 9999 SCT030 28/22 Q1013;
0120827980999992008010521004-07100-034867FM-15+0066SBJP V0201401N004112200019N0112651N1+02701+02301999999ADDGA1041+009001999GF104991999999999999999999MA1101391999999REMMET051METAR SBJP 052100Z 14008KT 9999 SCT030 27/23 Q1014;
0120827980999992008010522004-07100-034867FM-15+0066SBJP V0201601N003612200019N0112651N1+02601+02201999999ADDGA1041+007501999GF104991999999999999999999MA1101391999999REMMET051METAR SBJP 052200Z 16007KT 9999 SCT025 26/22 Q1014;
0120827980999992008010523004-07100-034867FM-15+0066SBJP V0201601N003612200019N0112651N1+02601+02101999999ADDGA1041+007501999GF104991999999999999999999MA1101491999999REMMET051METAR SBJP 052300Z 16007KT 9999 SCT025 26/21 Q1015;
0120827980999992008010600004-07100-034867FM-15+0066SBJP V0201601N002612200019N0112651N1+02601+02101999999ADDGA1041+007501999GF104991999999999999999999MA1101491999999REMMET051METAR SBJP 060000Z 16005KT 9999 SCT025 26/21 Q1015;
0120827980999992008010601004-07100-034867FM-15+0066SBJP V0201901N002112200019N0112651N1+02501+02201999999ADDGA1041+007501999GF104991999999999999999999MA1101391999999REMMET051METAR SBJP 060100Z 19004KT 9999 SCT025 25/22 Q1014;
0120827980999992008010602004-07100-034867FM-15+0066SBJP V0201801N001512200019N0112651N1+02601+02201999999ADDGA1041+006001999GF104991999999999999999999MA1101391999999REMMET051METAR SBJP 060200Z 18003KT 9999 SCT020 26/22 Q1014;
0120827980999992008010603004-07100-034867FM-15+0066SBJP V0201801N002112200019N0112651N1+02501+02201999999ADDGA1041+006001999GF104991999999999999999999MA1101391999999REMMET051METAR SBJP 060300Z 18004KT 9999 SCT020 25/22 Q1014;
0120827980999992008010604004-07100-034867FM-15+0066SBJP V0201601N001512200019N0112651N1+02401+02101999999ADDGA1041+006001999GF104991999999999999999999MA1101291999999REMMET051METAR SBJP 060400Z 16003KT 9999 SCT020 24/21 Q1013;
0120827980999992008010605004-07100-034867FM-15+0066SBJP V0201701N001512200019N0112651N1+02401+02101999999ADDGA1041+006001999GF104991999999999999999999MA1101191999999REMMET051METAR SBJP 060500Z 17003KT 9999 SCT020 24/21 Q1012;
0072827980999992008010606004-07100-034867FM-15+0066SBJP V0201901N00151220001CN0099001N1+02301+02101999999ADDMA1101191999999REMMET045METAR SBJP 060600Z 19003KT CAVOK 23/21 Q1012;
0072827980999992008010607004-07100-034867FM-15+0066SBJP V0202001N00151220001CN0099001N1+02301+02101999999ADDMA1101191999999REMMET045METAR SBJP 060700Z 20003KT CAVOK 23/21 Q1012;
0072827980999992008010608004-07100-034867FM-15+0066SBJP V0202101N00151220001CN0099001N1+02201+02101999999ADDMA1101191999999REMMET045METAR SBJP 060800Z 21003KT CAVOK 22/21 Q1012;
0072827980999992008010609004-07100-034867FM-15+0066SBJP V0202101N00151220001CN0099001N1+02301+02101999999ADDMA1101291999999REMMET045METAR SBJP 060900Z 21003KT CAVOK 23/21 Q1013;
0120827980999992008010610004-07100-034867FM-15+0066SBJP V0202001N003112200019N0112651N1+02601+02201999999ADDGA1021+007501999GF102991999999999999999999MA1101291999999REMMET051METAR SBJP 061000Z 20006KT 9999 FEW025 26/22 Q1013;
0120827980999992008010611004-07100-034867FM-15+0066SBJP V0201701N004112200019N0112651N1+02801+02101999999ADDGA1021+007501999GF102991999999999999999999MA1101391999999REMMET051METAR SBJP 061100Z 17008KT 9999 FEW025 28/21 Q1014;
0120827980999992008010612004-07100-034867FM-15+0066SBJP V0201501N004610090019N0112651N1+02901+02101999999ADDGA1071+009001999GF107991999999999999999999MA1101391999999REMMET051METAR SBJP 061200Z 15009KT 9999 BKN030 29/21 Q1014;
0120827980999992008010613004-07100-034867FM-15+0066SBJP V0201601N005110090019N0112651N1+03001+02101999999ADDGA1071+009001999GF107991999999999999999999MA1101291999999REMMET051METAR SBJP 061300Z 16010KT 9999 BKN030 30/21 Q1013;
0120827980999992008010614004-07100-034867FM-15+0066SBJP V0201501N004612200019N0112651N1+03101+02101999999ADDGA1041+009001999GF104991999999999999999999MA1101291999999REMMET051METAR SBJP 061400Z 15009KT 9999 SCT030 31/21 Q1013;
0120827980999992008010615004-07100-034867FM-15+0066SBJP V0201401N004612200019N0112651N1+03001+02101999999ADDGA1041+009001999GF104991999999999999999999MA1101291999999REMMET051METAR SBJP 061500Z 14009KT 9999 SCT030 30/21 Q1013;
0120827980999992008010616004-07100-034867FM-15+0066SBJP V0201601N005112200019N0112651N1+03101+02001999999ADDGA1041+009001999GF104991999999999999999999MA1101191999999REMMET051METAR SBJP 061600Z 16010KT 9999 SCT030 31/20 Q1012;
0120827980999992008010617004-07100-034867FM-15+0066SBJP V0201701N004612200019N0112651N1+03101+02001999999ADDGA1041+009001999GF104991999999999999999999MA1101081999999REMMET051METAR SBJP 061700Z 17009KT 9999 SCT030 31/20 Q1011;
0120827980999992008010618004-07100-034867FM-15+0066SBJP V0201501N003612200019N0112651N1+03001+02101999999ADDGA1041+009001999GF104991999999999999999999MA1101081999999REMMET051METAR SBJP 061800Z 15007KT 9999 SCT030 30/21 Q1011;
0120827980999992008010619004-07100-034867FM-15+0066SBJP V0201401N003112200019N0112651N1+02901+02101999999ADDGA1041+009001999GF104991999999999999999999MA1101081999999REMMET051METAR SBJP 061900Z 14006KT 9999 SCT030 29/21 Q1011;
0120827980999992008010620004-07100-034867FM-15+0066SBJP V0201601N003612200019N0112651N1+02801+02101999999ADDGA1021+009001999GF102991999999999999999999MA1101081999999REMMET051METAR SBJP 062000Z 16007KT 9999 FEW030 28/21 Q1011;
0120827980999992008010621004-07100-034867FM-15+0066SBJP V0201601N003612200019N0112651N1+02701+02201999999ADDGA1021+009001999GF102991999999999999999999MA1101191999999REMMET051METAR SBJP 062100Z 16007KT 9999 FEW030 27/22 Q1012;
0072827980999992008010622004-07100-034867FM-15+0066SBJP V0201801N00211220001CN0099001N1+02601+02201999999ADDMA1101291999999REMMET045METAR SBJP 062200Z 18004KT CAVOK 26/22 Q1013;
0072827980999992008010623004-07100-034867FM-15+0066SBJP V0201901N00151220001CN0099001N1+02601+02201999999ADDMA1101291999999REMMET045METAR SBJP 062300Z 19003KT CAVOK 26/22 Q1013;
0072827980999992008010700004-07100-034867FM-15+0066SBJP V0201801N00151220001CN0099001N1+02501+02201999999ADDMA1101291999999REMMET045METAR SBJP 070000Z 18003KT CAVOK 25/22 Q1013;
0072827980999992008010701004-07100-034867FM-15+0066SBJP V0201801N00101220001CN0099001N1+02501+02201999999ADDMA1101291999999REMMET045METAR SBJP 070100Z 18002KT CAVOK 25/22 Q1013;
0072827980999992008010702004-07100-034867FM-15+0066SBJP V0202001N00211220001CN0099001N1+02501+02201999999ADDMA1101291999999REMMET045METAR SBJP 070200Z 20004KT CAVOK 25/22 Q1013;
0072827980999992008010703004-07100-034867FM-15+0066SBJP V0202201N00101220001CN0099001N1+02401+02201999999ADDMA1101191999999REMMET045METAR SBJP 070300Z 22002KT CAVOK 24/22 Q1012;
0120827980999992008010704004-07100-034867FM-15+0066SBJP V0202201N001012200019N0112651N1+02401+02201999999ADDGA1021+006001999GF102991999999999999999999MA1101191999999REMMET051METAR SBJP 070400Z 22002KT 9999 FEW020 24/22 Q1012;
0120827980999992008010705004-07100-034867FM-15+0066SBJP V0202101N001512200019N0112651N1+02401+02201999999ADDGA1021+006001999GF102991999999999999999999MA1101081999999REMMET051METAR SBJP 070500Z 21003KT 9999 FEW020 24/22 Q1011;
0120827980999992008010706004-07100-034867FM-15+0066SBJP V0202001N001012200019N0112651N1+02401+02201999999ADDGA1021+006001999GF102991999999999999999999MA1101081999999REMMET051METAR SBJP 070600Z 20002KT 9999 FEW020 24/22 Q1011;
0120827980999992008010707004-07100-034867FM-15+0066SBJP V0202201N002112200019N0112651N1+02301+02201999999ADDGA1021+006001999GF102991999999999999999999MA1101081999999REMMET051METAR SBJP 070700Z 22004KT 9999 FEW020 23/22 Q1011;
0120827980999992008010708004-07100-034867FM-15+0066SBJP V0202201N001512200019N0112651N1+02301+02201999999ADDGA1041+009001999GF104991999999999999999999MA1101081999999REMMET051METAR SBJP 070800Z 22003KT 9999 SCT030 23/22 Q1011;
0143827980999992008010709004-07100-034867FM-15+0066SBJP V0202301N001512200019N0112651N1+02401+02201999999ADDGA1021+009001999GA2041+021001999GF104991999999999999999999MA1101191999999REMMET058METAR SBJP 070900Z 23003KT 9999 FEW030 SCT070 24/22 Q1012;
0143827980999992008010710004-07100-034867FM-15+0066SBJP V0202201N001510900019N0112651N1+02501+02301999999ADDGA1021+006001999GA2071+090001999GF107991999999999999999999MA1101291999999REMMET058METAR SBJP 071000Z 22003KT 9999 FEW020 BKN300 25/23 Q1013;
0143827980999992008010711004-07100-034867FM-15+0066SBJP V0202001N001010900019N0112651N1+02701+02301999999ADDGA1041+006001999GA2071+090001999GF107991999999999999999999MA1101291999999REMMET058METAR SBJP 071100Z 20002KT 9999 SCT020 BKN300 27/23 Q1013;
0120827980999992008010712004-07100-034867FM-15+0066SBJP V0201501N002110060019N0112651N1+02901+02301999999ADDGA1071+006001999GF107991999999999999999999MA1101291999999REMMET051METAR SBJP 071200Z 15004KT 9999 BKN020 29/23 Q1013;
0120827980999992008010713004-07100-034867FM-15+0066SBJP V0201301N003610075019N0112651N1+03101+02301999999ADDGA1071+007501999GF107991999999999999999999MA1101291999999REMMET051METAR SBJP 071300Z 13007KT 9999 BKN025 31/23 Q1013;
0120827980999992008010714004-07100-034867FM-15+0066SBJP V0201201N002610090019N0112651N1+03101+02301999999ADDGA1071+009001999GF107991999999999999999999MA1101191999999REMMET051METAR SBJP 071400Z 12005KT 9999 BKN030 31/23 Q1012;
0120827980999992008010715004-07100-034867FM-15+0066SBJP V0201401N004110090019N0112651N1+03201+02201999999ADDGA1071+009001999GF107991999999999999999999MA1101191999999REMMET051METAR SBJP 071500Z 14008KT 9999 BKN030 32/22 Q1012;
0120827980999992008010716004-07100-034867FM-15+0066SBJP V0201301N003610090019N0112651N1+03001+02201999999ADDGA1071+009001999GF107991999999999999999999MA1101081999999REMMET051METAR SBJP 071600Z 13007KT 9999 BKN030 30/22 Q1011;
0120827980999992008010717004-07100-034867FM-15+0066SBJP V0201001N003110090019N0112651N1+03001+02301999999ADDGA1071+009001999GF107991999999999999999999MA1101081999999REMMET051METAR SBJP 071700Z 10006KT 9999 BKN030 30/23 Q1011;
0120827980999992008010718004-07100-034867FM-15+0066SBJP V0201401N003612200019N0112651N1+03001+02301999999ADDGA1041+009001999GF104991999999999999999999MA1101021999999REMMET051METAR SBJP 071800Z 14007KT 9999 SCT030 30/23 Q1010;
0120827980999992008010719004-07100-034867FM-15+0066SBJP V0201301N003612200019N0112651N1+02901+02301999999ADDGA1041+009001999GF104991999999999999999999MA1101021999999REMMET051METAR SBJP 071900Z 13007KT 9999 SCT030 29/23 Q1010;
0120827980999992008010720004-07100-034867FM-15+0066SBJP V0201101N003112200019N0112651N1+02801+02301999999ADDGA1041+009001999GF104991999999999999999999MA1101021999999REMMET051METAR SBJP 072000Z 11006KT 9999 SCT030 28/23 Q1010;
0120827980999992008010721004-07100-034867FM-15+0066SBJP V0201101N002112200019N0112651N1+02701+02301999999ADDGA1021+009001999GF102991999999999999999999MA1101081999999REMMET051METAR SBJP 072100Z 11004KT 9999 FEW030 27/23 Q1011;
0120827980999992008010722004-07100-034867FM-15+0066SBJP V0201201N002112200019N0112651N1+02701+02401999999ADDGA1021+009001999GF102991999999999999999999MA1101191999999REMMET051METAR SBJP 072200Z 12004KT 9999 FEW030 27/24 Q1012;
0120827980999992008010723004-07100-034867FM-15+0066SBJP V0201301N003112200019N0112651N1+02701+02401999999ADDGA1021+009001999GF102991999999999999999999MA1101191999999REMMET051METAR SBJP 072300Z 13006KT 9999 FEW030 27/24 Q1012;
0120827980999992008010800004-07100-034867FM-15+0066SBJP V0201301N002112200019N0112651N1+02701+02301999999ADDGA1021+009001999GF102991999999999999999999MA1101291999999REMMET051METAR SBJP 080000Z 13004KT 9999 FEW030 27/23 Q1013;
0120827980999992008010801004-07100-034867FM-15+0066SBJP V0201201N002112200019N0112651N1+02701+02401999999ADDGA1021+009001999GF102991999999999999999999MA1101191999999REMMET051METAR SBJP 080100Z 12004KT 9999 FEW030 27/24 Q1012;
0120827980999992008010802004-07100-034867FM-15+0066SBJP V0201201N002112200019N0112651N1+02701+02401999999ADDGA1021+009001999GF102991999999999999999999MA1101191999999REMMET051METAR SBJP 080200Z 12004KT 9999 FEW030 27/24 Q1012;
0120827980999992008010803004-07100-034867FM-15+0066SBJP V0201301N002112200019N0112651N1+02701+02401999999ADDGA1021+009001999GF102991999999999999999999MA1101081999999REMMET051METAR SBJP 080300Z 13004KT 9999 FEW030 27/24 Q1011;
0120827980999992008010804004-07100-034867FM-15+0066SBJP V0201301N001012200019N0112651N1+02601+02301999999ADDGA1041+005401999GF104991999999999999999999MA1101081999999REMMET051METAR SBJP 080400Z 13002KT 9999 SCT018 26/23 Q1011;
0120827980999992008010805004-07100-034867FM-15+0066SBJP V0201301N001012200019N0112651N1+02601+02301999999ADDGA1041+005401999GF104991999999999999999999MA1101081999999REMMET051METAR SBJP 080500Z 13002KT 9999 SCT018 26/23 Q1011;
0120827980999992008010806004-07100-034867FM-15+0066SBJP V0209999C000012200019N0112651N1+02501+02301999999ADDGA1041+005401999GF104991999999999999999999MA1101021999999REMMET051METAR SBJP 080600Z 00000KT 9999 SCT018 25/23 Q1010;
0120827980999992008010807004-07100-034867FM-15+0066SBJP V0209999C000012200019N0112651N1+02501+02301999999ADDGA1041+005401999GF104991999999999999999999MA1101021999999REMMET051METAR SBJP 080700Z 00000KT 9999 SCT018 25/23 Q1010;
0120827980999992008010808004-07100-034867FM-15+0066SBJP V0209999C000012200019N0112651N1+02401+02301999999ADDGA1041+005401999GF104991999999999999999999MA1101081999999REMMET051METAR SBJP 080800Z 00000KT 9999 SCT018 24/23 Q1011;
0120827980999992008010809004-07100-034867FM-15+0066SBJP V0209999C000012200019N0112651N1+02501+02301999999ADDGA1041+005401999GF104991999999999999999999MA1101081999999REMMET051METAR SBJP 080900Z 00000KT 9999 SCT018 25/23 Q1011;
0120827980999992008010810004-07100-034867FM-15+0066SBJP V0201401N001512200019N0112651N1+02801+02401999999ADDGA1041+005401999GF104991999999999999999999MA1101191999999REMMET051METAR SBJP 081000Z 14003KT 9999 SCT018 28/24 Q1012;
0120827980999992008010811004-07100-034867FM-15+0066SBJP V0201401N003612200019N0112651N1+02901+02301999999ADDGA1041+007501999GF104991999999999999999999MA1101191999999REMMET051METAR SBJP 081100Z 14007KT 9999 SCT025 29/23 Q1012;
0120827980999992008010812004-07100-034867FM-15+0066SBJP V0201201N004112200019N0112651N1+02901+02301999999ADDGA1041+007501999GF104991999999999999999999MA1101191999999REMMET051METAR SBJP 081200Z 12008KT 9999 SCT025 29/23 Q1012;
0120827980999992008010813004-07100-034867FM-15+0066SBJP V0201301N003610075019N0112651N1+03001+02201999999ADDGA1071+007501999GF107991999999999999999999MA1101191999999REMMET051METAR SBJP 081300Z 13007KT 9999 BKN025 30/22 Q1012;
0120827980999992008010814004-07100-034867FM-15+0066SBJP V0201101N004110075019N0112651N1+03101+02201999999ADDGA1071+007501999GF107991999999999999999999MA1101191999999REMMET051METAR SBJP 081400Z 11008KT 9999 BKN025 31/22 Q1012;
0120827980999992008010815004-07100-034867FM-15+0066SBJP V0201401N004612200019N0112651N1+03101+02101999999ADDGA1041+009001999GF104991999999999999999999MA1101081999999REMMET051METAR SBJP 081500Z 14009KT 9999 SCT030 31/21 Q1011;
0120827980999992008010816004-07100-034867FM-15+0066SBJP V0201001N005112200019N0112651N1+03101+02101999999ADDGA1041+009001999GF104991999999999999999999MA1101081999999REMMET051METAR SBJP 081600Z 10010KT 9999 SCT030 31/21 Q1011;
0120827980999992008010817004-07100-034867FM-15+0066SBJP V0201001N004112200019N0112651N1+03001+02201999999ADDGA1041+009001999GF104991999999999999999999MA1101021999999REMMET051METAR SBJP 081700Z 10008KT 9999 SCT030 30/22 Q1010;
0120827980999992008010818004-07100-034867FM-15+0066SBJP V0201101N004112200019N0112651N1+03001+02301999999ADDGA1041+009001999GF104991999999999999999999MA1101021999999REMMET051METAR SBJP 081800Z 11008KT 9999 SCT030 30/23 Q1010;
0120827980999992008010819004-07100-034867FM-15+0066SBJP V0201201N004112200019N0112651N1+02901+02101999999ADDGA1041+009001999GF104991999999999999999999MA1101021999999REMMET051METAR SBJP 081900Z 12008KT 9999 SCT030 29/21 Q1010;
0120827980999992008010820004-07100-034867FM-15+0066SBJP V0201101N004112200019N0112651N1+02901+02201999999ADDGA1041+009001999GF104991999999999999999999MA1101021999999REMMET051METAR SBJP 082000Z 11008KT 9999 SCT030 29/22 Q1010;
0120827980999992008010821004-07100-034867FM-15+0066SBJP V0201201N002112200019N0112651N1+02801+02201999999ADDGA1041+009001999GF104991999999999999999999MA1101081999999REMMET051METAR SBJP 082100Z 12004KT 9999 SCT030 28/22 Q1011;
0120827980999992008010822004-07100-034867FM-15+0066SBJP V0201201N002112200019N0112651N1+02701+02201999999ADDGA1021+006001999GF102991999999999999999999MA1101081999999REMMET051METAR SBJP 082200Z 12004KT 9999 FEW020 27/22 Q1011;
0072827980999992008010823004-07100-034867FM-15+0066SBJP V0201201N00211220001CN0099001N1+02701+02201999999ADDMA1101191999999REMMET045METAR SBJP 082300Z 12004KT CAVOK 27/22 Q1012;
0072827980999992008010900004-07100-034867FM-15+0066SBJP V0201201N00211220001CN0099001N1+02601+02201999999ADDMA1101191999999REMMET045METAR SBJP 090000Z 12004KT CAVOK 26/22 Q1012;
0072827980999992008010901004-07100-034867FM-15+0066SBJP V0201201N00211220001CN0099001N1+02701+02201999999ADDMA1101191999999REMMET045METAR SBJP 090100Z 12004KT CAVOK 27/22 Q1012;
0072827980999992008010902004-07100-034867FM-15+0066SBJP V0201201N00101220001CN0099001N1+02501+02201999999ADDMA1101191999999REMMET045METAR SBJP 090200Z 12002KT CAVOK 25/22 Q1012;
0120827980999992008010903004-07100-034867FM-15+0066SBJP V0209999C000012200019N0112651N1+02501+02201999999ADDGA1021+006001999GF102991999999999999999999MA1101081999999REMMET051METAR SBJP 090300Z 00000KT 9999 FEW020 25/22 Q1011;
0120827980999992008010904004-07100-034867FM-15+0066SBJP V0202401N001512200019N0112651N1+02401+02201999999ADDGA1041+006001999GF104991999999999999999999MA1101081999999REMMET051METAR SBJP 090400Z 24003KT 9999 SCT020 24/22 Q1011;
0120827980999992008010905004-07100-034867FM-15+0066SBJP V0201901N001012200019N0112651N1+02401+02201999999ADDGA1041+006001999GF104991999999999999999999MA1101081999999REMMET051METAR SBJP 090500Z 19002KT 9999 SCT020 24/22 Q1011;
0120827980999992008010906004-07100-034867FM-15+0066SBJP V0201901N001012200019N0112651N1+02401+02201999999ADDGA1021+006001999GF102991999999999999999999MA1101021999999REMMET051METAR SBJP 090600Z 19002KT 9999 FEW020 24/22 Q1010;
0120827980999992008010907004-07100-034867FM-15+0066SBJP V0209999C000012200019N0112651N1+02301+02101999999ADDGA1021+006001999GF102991999999999999999999MA1101021999999REMMET051METAR SBJP 090700Z 00000KT 9999 FEW020 23/21 Q1010;
0120827980999992008010908004-07100-034867FM-15+0066SBJP V0202201N001512200019N0112651N1+02201+02101999999ADDGA1021+006001999GF102991999999999999999999MA1101081999999REMMET051METAR SBJP 090800Z 22003KT 9999 FEW020 22/21 Q1011;
0120827980999992008010909004-07100-034867FM-15+0066SBJP V0202401N001512200019N0112651N1+02301+02101999999ADDGA1021+006001999GF102991999999999999999999MA1101081999999REMMET051METAR SBJP 090900Z 24003KT 9999 FEW020 23/21 Q1011;
0120827980999992008010910004-07100-034867FM-15+0066SBJP V0201701N001012200019N0112651N1+02601+02201999999ADDGA1021+006001999GF102991999999999999999999MA1101081999999REMMET051METAR SBJP 091000Z 17002KT 9999 FEW020 26/22 Q1011;
0120827980999992008010911004-07100-034867FM-15+0066SBJP V0201301N003112200019N0112651N1+02801+02101999999ADDGA1021+006001999GF102991999999999999999999MA1101191999999REMMET051METAR SBJP 091100Z 13006KT 9999 FEW020 28/21 Q1012;
0120827980999992008010912004-07100-034867FM-15+0066SBJP V0201401N002112200019N0112651N1+03001+02001999999ADDGA1041+006001999GF104991999999999999999999MA1101191999999REMMET051METAR SBJP 091200Z 14004KT 9999 SCT020 30/20 Q1012;
0120827980999992008010913004-07100-034867FM-15+0066SBJP V0201101N004112200019N0112651N1+03001+01901999999ADDGA1041+006001999GF104991999999999999999999MA1101081999999REMMET051METAR SBJP 091300Z 11008KT 9999 SCT020 30/19 Q1011;
0120827980999992008010914004-07100-034867FM-15+0066SBJP V0201301N004112200019N0112651N1+03101+01901999999ADDGA1041+006001999GF104991999999999999999999MA1101081999999REMMET051METAR SBJP 091400Z 13008KT 9999 SCT020 31/19 Q1011;
0120827980999992008010915004-07100-034867FM-15+0066SBJP V0201701N005112200019N0112651N1+03101+01901999999ADDGA1041+006001999GF104991999999999999999999MA1101081999999REMMET051METAR SBJP 091500Z 17010KT 9999 SCT020 31/19 Q1011;
0120827980999992008010916004-07100-034867FM-15+0066SBJP V0201301N004610090019N0112651N1+03101+02001999999ADDGA1071+009001999GF107991999999999999999999MA1101021999999REMMET051METAR SBJP 091600Z 13009KT 9999 BKN030 31/20 Q1010;
0120827980999992008010917004-07100-034867FM-15+0066SBJP V0201201N004112200019N0112651N1+03101+02101999999ADDGA1041+009001999GF104991999999999999999999MA1100911999999REMMET051METAR SBJP 091700Z 12008KT 9999 SCT030 31/21 Q1009;
0120827980999992008010918004-07100-034867FM-15+0066SBJP V0201201N004110090019N0112651N1+03001+02101999999ADDGA1071+009001999GF107991999999999999999999MA1100811999999REMMET051METAR SBJP 091800Z 12008KT 9999 BKN030 30/21 Q1008;
0120827980999992008010919004-07100-034867FM-15+0066SBJP V0201201N004612200019N0112651N1+02901+02101999999ADDGA1041+009001999GF104991999999999999999999MA1100911999999REMMET051METAR SBJP 091900Z 12009KT 9999 SCT030 29/21 Q1009;
0120827980999992008010920004-07100-034867FM-15+0066SBJP V0201201N004112200019N0112651N1+02801+02101999999ADDGA1041+007501999GF104991999999999999999999MA1100911999999REMMET051METAR SBJP 092000Z 12008KT 9999 SCT025 28/21 Q1009;
0120827980999992008010921004-07100-034867FM-15+0066SBJP V0201301N003612200019N0112651N1+02701+02101999999ADDGA1021+006001999GF102991999999999999999999MA1100911999999REMMET051METAR SBJP 092100Z 13007KT 9999 FEW020 27/21 Q1009;
0120827980999992008010922004-07100-034867FM-15+0066SBJP V0201301N002612200019N0112651N1+02701+02101999999ADDGA1021+006001999GF102991999999999999999999MA1100911999999REMMET051METAR SBJP 092200Z 13005KT 9999 FEW020 27/21 Q1009;
0120827980999992008010923004-07100-034867FM-15+0066SBJP V0201301N002612200019N0112651N1+02601+02101999999ADDGA1021+006001999GF102991999999999999999999MA1101021999999REMMET051METAR SBJP 092300Z 13005KT 9999 FEW020 26/21 Q1010;
0120827980999992008011000004-07100-034867FM-15+0066SBJP V0201301N002112200019N0112651N1+02601+02101999999ADDGA1021+006001999GF102991999999999999999999MA1101021999999REMMET051METAR SBJP 100000Z 13004KT 9999 FEW020 26/21 Q1010;
0120827980999992008011001004-07100-034867FM-15+0066SBJP V0201301N001512200019N0112651N1+02501+02101999999ADDGA1021+006001999GF102991999999999999999999MA1101021999999REMMET051METAR SBJP 100100Z 13003KT 9999 FEW020 25/21 Q1010;
0120827980999992008011002004-07100-034867FM-15+0066SBJP V0201601N001512200019N0112651N1+02501+02101999999ADDGA1021+006001999GF102991999999999999999999MA1101021999999REMMET051METAR SBJP 100200Z 16003KT 9999 FEW020 25/21 Q1010;
0120827980999992008011003004-07100-034867FM-15+0066SBJP V0201701N002112200019N0112651N1+02401+02101999999ADDGA1021+006001999GF102991999999999999999999MA1101021999999REMMET051METAR SBJP 100300Z 17004KT 9999 FEW020 24/21 Q1010;
0120827980999992008011004004-07100-034867FM-15+0066SBJP V0201801N002112200019N0112651N1+02401+02101999999ADDGA1021+006001999GF102991999999999999999999MA1100911999999REMMET051METAR SBJP 100400Z 18004KT 9999 FEW020 24/21 Q1009;
0139827980999992008011005004-07100-034867FM-15+0066SBJP V0202001N001012200019N0112651N1+02401+02201999999ADDGA1021+006001999GF102991999999999999999999MA1999999999999REMMET051METAR SBJP 100500Z 20002KT 9999 FEW020 24/22 Q1016;EQDQ01 101593APOA  
0120827980999992008011006004-07100-034867FM-15+0066SBJP V0202401N001012200019N0112651N1+02301+02101999999ADDGA1021+006001999GF102991999999999999999999MA1100911999999REMMET051METAR SBJP 100600Z 24002KT 9999 FEW020 23/21 Q1009;
0120827980999992008011007004-07100-034867FM-15+0066SBJP V0202201N001012200019N0112651N1+02301+02101999999ADDGA1021+006001999GF102991999999999999999999MA1100911999999REMMET051METAR SBJP 100700Z 22002KT 9999 FEW020 23/21 Q1009;
0155827980999992008011008004-07100-034867FM-15+0066SBJP V0202201N001012200019N0112651N1+02301+02101999999ADDGA1021+006001999GF102991999999999999999999MA1999999999999REMMET051METAR SBJP 100800Z 22002KT 9999 FEW020 23/21 Q1015;EQDQ01+101493APOA  Q02 101503APOA  
0120827980999992008011009004-07100-034867FM-15+0066SBJP V0202301N002112200019N0112651N1+02301+02101999999ADDGA1041+006001999GF104991999999999999999999MA1101021999999REMMET051METAR SBJP 100900Z 23004KT 9999 SCT020 23/21 Q1010;
0120827980999992008011010004-07100-034867FM-15+0066SBJP V0202001N001510060019N0112651N1+02501+02201999999ADDGA1071+006001999GF107991999999999999999999MA1101081999999REMMET051METAR SBJP 101000Z 20003KT 9999 BKN020 25/22 Q1011;
0120827980999992008011011004-07100-034867FM-15+0066SBJP V0201101N003610060019N0112651N1+02901+02101999999ADDGA1071+006001999GF107991999999999999999999MA1101081999999REMMET051METAR SBJP 101100Z 11007KT 9999 BKN020 29/21 Q1011;
0120827980999992008011012004-07100-034867FM-15+0066SBJP V0201401N005110090019N0112651N1+02901+02101999999ADDGA1071+009001999GF107991999999999999999999MA1101081999999REMMET051METAR SBJP 101200Z 14010KT 9999 BKN030 29/21 Q1011;
0120827980999992008011013004-07100-034867FM-15+0066SBJP V0201101N004112200019N0112651N1+03001+02101999999ADDGA1041+009001999GF104991999999999999999999MA1101081999999REMMET051METAR SBJP 101300Z 11008KT 9999 SCT030 30/21 Q1011;
0120827980999992008011014004-07100-034867FM-15+0066SBJP V0201101N004610090019N0112651N1+03101+02101999999ADDGA1071+009001999GF107991999999999999999999MA1101021999999REMMET051METAR SBJP 101400Z 11009KT 9999 BKN030 31/21 Q1010;
0120827980999992008011015004-07100-034867FM-15+0066SBJP V0201201N004610090019N0112651N1+03001+02101999999ADDGA1071+009001999GF107991999999999999999999MA1101021999999REMMET051METAR SBJP 101500Z 12009KT 9999 BKN030 30/21 Q1010;
0120827980999992008011016004-07100-034867FM-15+0066SBJP V0201401N004112200019N0112651N1+03101+02101999999ADDGA1041+006001999GF104991999999999999999999MA1100911999999REMMET051METAR SBJP 101600Z 14008KT 9999 SCT020 31/21 Q1009;
0120827980999992008011017004-07100-034867FM-15+0066SBJP V0201201N004112200019N0112651N1+03001+02101999999ADDGA1041+009001999GF104991999999999999999999MA1100811999999REMMET051METAR SBJP 101700Z 12008KT 9999 SCT030 30/21 Q1008;
0120827980999992008011018004-07100-034867FM-15+0066SBJP V0201301N004612200019N0112651N1+03101+02201999999ADDGA1041+009001999GF104991999999999999999999MA1100811999999REMMET051METAR SBJP 101800Z 13009KT 9999 SCT030 31/22 Q1008;
0120827980999992008011019004-07100-034867FM-15+0066SBJP V0201301N004612200019N0112651N1+03001+02201999999ADDGA1041+009001999GF104991999999999999999999MA1100811999999REMMET051METAR SBJP 101900Z 13009KT 9999 SCT030 30/22 Q1008;
0120827980999992008011020004-07100-034867FM-15+0066SBJP V0201301N003612200019N0112651N1+02801+02201999999ADDGA1041+009001999GF104991999999999999999999MA1100811999999REMMET051METAR SBJP 102000Z 13007KT 9999 SCT030 28/22 Q1008;
0120827980999992008011021004-07100-034867FM-15+0066SBJP V0201101N002612200019N0112651N1+02701+02201999999ADDGA1041+006001999GF104991999999999999999999MA1100911999999REMMET051METAR SBJP 102100Z 11005KT 9999 SCT020 27/22 Q1009;
0120827980999992008011022004-07100-034867FM-15+0066SBJP V0201401N002112200019N0112651N1+02701+02201999999ADDGA1041+006001999GF104991999999999999999999MA1101021999999REMMET051METAR SBJP 102200Z 14004KT 9999 SCT020 27/22 Q1010;
0120827980999992008011023004-07100-034867FM-15+0066SBJP V0201401N002612200019N0112651N1+02701+02301999999ADDGA1041+006001999GF104991999999999999999999MA1101021999999REMMET051METAR SBJP 102300Z 14005KT 9999 SCT020 27/23 Q1010;
0120827980999992008011100004-07100-034867FM-15+0066SBJP V0201301N001512200019N0112651N1+02701+02201999999ADDGA1041+006001999GF104991999999999999999999MA1101081999999REMMET051METAR SBJP 110000Z 13003KT 9999 SCT020 27/22 Q1011;
0120827980999992008011101004-07100-034867FM-15+0066SBJP V0201401N002612200019N0112651N1+02701+02201999999ADDGA1041+006001999GF104991999999999999999999MA1101081999999REMMET051METAR SBJP 110100Z 14005KT 9999 SCT020 27/22 Q1011;
0120827980999992008011102004-07100-034867FM-15+0066SBJP V0201501N002112200019N0112651N1+02701+02201999999ADDGA1041+006001999GF104991999999999999999999MA1101081999999REMMET051METAR SBJP 110200Z 15004KT 9999 SCT020 27/22 Q1011;
0120827980999992008011103004-07100-034867FM-15+0066SBJP V0201301N002112200019N0112651N1+02601+02201999999ADDGA1041+006001999GF104991999999999999999999MA1101081999999REMMET051METAR SBJP 110300Z 13004KT 9999 SCT020 26/22 Q1011;
0120827980999992008011104004-07100-034867FM-15+0066SBJP V0201101N001512200019N0112651N1+02601+02201999999ADDGA1041+006001999GF104991999999999999999999MA1101021999999REMMET051METAR SBJP 110400Z 11003KT 9999 SCT020 26/22 Q1010;
0120827980999992008011105004-07100-034867FM-15+0066SBJP V0201201N002612200019N0112651N1+02601+02201999999ADDGA1041+006001999GF104991999999999999999999MA1101021999999REMMET051METAR SBJP 110500Z 12005KT 9999 SCT020 26/22 Q1010;
0072827980999992008011106004-07100-034867FM-15+0066SBJP V0201301N00151220001CN0099001N1+02501+02201999999ADDMA1101021999999REMMET045METAR SBJP 110600Z 13003KT CAVOK 25/22 Q1010;
0072827980999992008011107004-07100-034867FM-15+0066SBJP V0201101N00101220001CN0099001N1+02501+02201999999ADDMA1101021999999REMMET045METAR SBJP 110700Z 11002KT CAVOK 25/22 Q1010;
0120827980999992008011108004-07100-034867FM-15+0066SBJP V0201801N001012200019N0112651N1+02401+02201999999ADDGA1021+006001999GF102991999999999999999999MA1101021999999REMMET051METAR SBJP 110800Z 18002KT 9999 FEW020 24/22 Q1010;
0120827980999992008011109004-07100-034867FM-15+0066SBJP V0209999C000010060019N0112651N1+02501+02201999999ADDGA1071+006001999GF107991999999999999999999MA1101081999999REMMET051METAR SBJP 110900Z 00000KT 9999 BKN020 25/22 Q1011;
0139827980999992008011110004-07100-034867FM-15+0066SBJP V0201101N003612200019N0112651N1+02801+02201999999ADDGA1041+009001999GA2021+010501021MA1101081999999REMMET061METAR SBJP 111000Z 11007KT 9999 SCT030 FEW035TCU 28/22 Q1011;EQDQ01+000022SCOTCV
0139827980999992008011111004-07100-034867FM-15+0066SBJP V0201101N003612200019N0112651N1+02801+02201999999ADDGA1041+009001999GA2021+010501021MA1101081999999REMMET061METAR SBJP 111100Z 11007KT 9999 SCT030 FEW035TCU 28/22 Q1011;EQDQ01+000022SCOTCV
0143827980999992008011112004-07100-034867FM-15+0066SBJP V0201201N004110210019N0112651N1+02901+02101999999ADDGA1041+009001999GA2071+021001999GF107991999999999999999999MA1101191999999REMMET058METAR SBJP 111200Z 12008KT 9999 SCT030 BKN070 29/21 Q1012;
0143827980999992008011113004-07100-034867FM-15+0066SBJP V0201301N002610210019N0112651N1+02901+02201999999ADDGA1041+009001999GA2071+021001999GF107991999999999999999999MA1101191999999REMMET058METAR SBJP 111300Z 13005KT 9999 SCT030 BKN070 29/22 Q1012;
0143827980999992008011114004-07100-034867FM-15+0066SBJP V0201101N004110090019N0112651N1+02901+02101999999ADDGA1071+009001999GA2071+021001999GF107991999999999999999999MA1101191999999REMMET058METAR SBJP 111400Z 11008KT 9999 BKN030 BKN070 29/21 Q1012;
0143827980999992008011115004-07100-034867FM-15+0066SBJP V0201101N003610090019N0112651N1+02901+02101999999ADDGA1071+009001999GA2071+021001999GF107991999999999999999999MA1101081999999REMMET058METAR SBJP 111500Z 11007KT 9999 BKN030 BKN070 29/21 Q1011;
0143827980999992008011116004-07100-034867FM-15+0066SBJP V0201301N003610210019N0112651N1+03001+02101999999ADDGA1041+009001999GA2071+021001999GF107991999999999999999999MA1101081999999REMMET058METAR SBJP 111600Z 13007KT 9999 SCT030 BKN070 30/21 Q1011;
0143827980999992008011117004-07100-034867FM-15+0066SBJP V0201401N003610210019N0112651N1+03101+02101999999ADDGA1041+009001999GA2071+021001999GF107991999999999999999999MA1101021999999REMMET058METAR SBJP 111700Z 14007KT 9999 SCT030 BKN070 31/21 Q1010;
0143827980999992008011118004-07100-034867FM-15+0066SBJP V0201201N004110210019N0112651N1+03001+02101999999ADDGA1041+009001999GA2071+021001999GF107991999999999999999999MA1101021999999REMMET058METAR SBJP 111800Z 12008KT 9999 SCT030 BKN070 30/21 Q1010;
0120827980999992008011119004-07100-034867FM-15+0066SBJP V0201401N004112200019N0112651N1+03001+02101999999ADDGA1041+009001999GF104991999999999999999999MA1101021999999REMMET051METAR SBJP 111900Z 14008KT 9999 SCT030 30/21 Q1010;
0120827980999992008011120004-07100-034867FM-15+0066SBJP V0201301N002612200019N0112651N1+02901+02101999999ADDGA1041+009001999GF104991999999999999999999MA1101021999999REMMET051METAR SBJP 112000Z 13005KT 9999 SCT030 29/21 Q1010;
0120827980999992008011121004-07100-034867FM-15+0066SBJP V0201301N002612200019N0112651N1+02801+02201999999ADDGA1041+007501999GF104991999999999999999999MA1101081999999REMMET051METAR SBJP 112100Z 13005KT 9999 SCT025 28/22 Q1011;
0120827980999992008011122004-07100-034867FM-15+0066SBJP V0201201N002612200019N0112651N1+02701+02201999999ADDGA1041+007501999GF104991999999999999999999MA1101191999999REMMET051METAR SBJP 112200Z 12005KT 9999 SCT025 27/22 Q1012;
0120827980999992008011123004-07100-034867FM-15+0066SBJP V0201201N002612200019N0112651N1+02701+02201999999ADDGA1021+007501999GF102991999999999999999999MA1101191999999REMMET051METAR SBJP 112300Z 12005KT 9999 FEW025 27/22 Q1012;
0120827980999992008011200004-07100-034867FM-15+0066SBJP V0201101N003112200019N0112651N1+02701+02201999999ADDGA1021+007501999GF102991999999999999999999MA1101291999999REMMET051METAR SBJP 120000Z 11006KT 9999 FEW025 27/22 Q1013;
0120827980999992008011201004-07100-034867FM-15+0066SBJP V0201201N002612200019N0112651N1+02701+02201999999ADDGA1021+006001999GF102991999999999999999999MA1101291999999REMMET051METAR SBJP 120100Z 12005KT 9999 FEW020 27/22 Q1013;
0120827980999992008011202004-07100-034867FM-15+0066SBJP V0201401N002112200019N0112651N1+02701+02201999999ADDGA1021+006001999GF102991999999999999999999MA1101191999999REMMET051METAR SBJP 120200Z 14004KT 9999 FEW020 27/22 Q1012;
0120827980999992008011203004-07100-034867FM-15+0066SBJP V0201401N001512200019N0112651N1+02601+02301999999ADDGA1021+006001999GF102991999999999999999999MA1101191999999REMMET051METAR SBJP 120300Z 14003KT 9999 FEW020 26/23 Q1012;
0143827980999992008011204004-07100-034867FM-15+0066SBJP V0201101N001512200019N0112651N1+02601+02301999999ADDGA1021+006001999GA2041+021001999GF104991999999999999999999MA1101081999999REMMET058METAR SBJP 120400Z 11003KT 9999 FEW020 SCT070 26/23 Q1011;
0143827980999992008011205004-07100-034867FM-15+0066SBJP V0201001N001510210019N0112651N1+02601+02201999999ADDGA1041+006001999GA2071+021001999GF107991999999999999999999MA1101081999999REMMET058METAR SBJP 120500Z 10003KT 9999 SCT020 BKN070 26/22 Q1011;
0143827980999992008011206004-07100-034867FM-15+0066SBJP V0201201N001010210019N0112651N1+02601+02201999999ADDGA1041+006001999GA2071+021001999GF107991999999999999999999MA1101081999999REMMET058METAR SBJP 120600Z 12002KT 9999 SCT020 BKN070 26/22 Q1011;
0072827980999992008011207004-07100-034867FM-15+0066SBJP V0201301N00101220001CN0099001N1+02601+02201999999ADDMA1101081999999REMMET045METAR SBJP 120700Z 13002KT CAVOK 26/22 Q1011;
0072827980999992008011208004-07100-034867FM-15+0066SBJP V0203301N00101220001CN0099001N1+02501+02201999999ADDMA1101081999999REMMET045METAR SBJP 120800Z 33002KT CAVOK 25/22 Q1011;
0120827980999992008011209004-07100-034867FM-15+0066SBJP V0202401N001012200019N0112651N1+02501+02301999999ADDGA1041+006001999GF104991999999999999999999MA1101191999999REMMET051METAR SBJP 120900Z 24002KT 9999 SCT020 25/23 Q1012;
0120827980999992008011210004-07100-034867FM-15+0066SBJP V0202401N001512200019N0112651N1+02701+02301999999ADDGA1041+006001999GF104991999999999999999999MA1101191999999REMMET051METAR SBJP 121000Z 24003KT 9999 SCT020 27/23 Q1012;
0143827980999992008011211004-07100-034867FM-15+0066SBJP V0201801N001012200019N0112651N1+02801+02301999999ADDGA1041+007501999GA2041+021001999GF104991999999999999999999MA1101291999999REMMET058METAR SBJP 121100Z 18002KT 9999 SCT025 SCT070 28/23 Q1013;
0143827980999992008011212004-07100-034867FM-15+0066SBJP V0202101N002612200019N0112651N1+02901+02201999999ADDGA1041+007501999GA2041+021001999GF104991999999999999999999MA1101291999999REMMET058METAR SBJP 121200Z 21005KT 9999 SCT025 SCT070 29/22 Q1013;
0143827980999992008011213004-07100-034867FM-15+0066SBJP V0201401N001512200019N0112651N1+03001+02101999999ADDGA1041+007501999GA2041+021001999GF104991999999999999999999MA1101191999999REMMET058METAR SBJP 121300Z 14003KT 9999 SCT025 SCT070 30/21 Q1012;
0143827980999992008011214004-07100-034867FM-15+0066SBJP V0201301N003112200019N0112651N1+03001+02101999999ADDGA1041+009001999GA2041+021001999GF104991999999999999999999MA1101191999999REMMET058METAR SBJP 121400Z 13006KT 9999 SCT030 SCT070 30/21 Q1012;
0143827980999992008011215004-07100-034867FM-15+0066SBJP V0201601N004112200019N0112651N1+03101+02101999999ADDGA1041+009001999GA2041+021001999GF104991999999999999999999MA1101191999999REMMET058METAR SBJP 121500Z 16008KT 9999 SCT030 SCT070 31/21 Q1012;
0143827980999992008011216004-07100-034867FM-15+0066SBJP V0201501N003612200019N0112651N1+03201+02001999999ADDGA1041+009001999GA2041+021001999GF104991999999999999999999MA1101081999999REMMET058METAR SBJP 121600Z 15007KT 9999 SCT030 SCT070 32/20 Q1011;
0120827980999992008011217004-07100-034867FM-15+0066SBJP V0201401N004112200019N0112651N1+03101+02101999999ADDGA1041+009001999GF104991999999999999999999MA1101021999999REMMET051METAR SBJP 121700Z 14008KT 9999 SCT030 31/21 Q1010;
0120827980999992008011218004-07100-034867FM-15+0066SBJP V0201301N003612200019N0112651N1+03101+02101999999ADDGA1021+009001999GF102991999999999999999999MA1101021999999REMMET051METAR SBJP 121800Z 13007KT 9999 FEW030 31/21 Q1010;
0120827980999992008011219004-07100-034867FM-15+0066SBJP V0201401N003612200019N0112651N1+03001+02101999999ADDGA1021+009001999GF102991999999999999999999MA1101021999999REMMET051METAR SBJP 121900Z 14007KT 9999 FEW030 30/21 Q1010;
0120827980999992008011220004-07100-034867FM-15+0066SBJP V0201501N005112200019N0112651N1+02901+02101999999ADDGA1021+009001999GF102991999999999999999999MA1101021999999REMMET051METAR SBJP 122000Z 15010KT 9999 FEW030 29/21 Q1010;
0120827980999992008011221004-07100-034867FM-15+0066SBJP V0201401N005112200019N0112651N1+02701+02101999999ADDGA1041+007501999GF104991999999999999999999MA1101021999999REMMET051METAR SBJP 122100Z 14010KT 9999 SCT025 27/21 Q1010;
0120827980999992008011222004-07100-034867FM-15+0066SBJP V0201401N005112200019N0112651N1+02701+02201999999ADDGA1041+007501999GF104991999999999999999999MA1101081999999REMMET051METAR SBJP 122200Z 14010KT 9999 SCT025 27/22 Q1011;
0120827980999992008011223004-07100-034867FM-15+0066SBJP V0201601N003112200019N0112651N1+02701+02301999999ADDGA1041+007501999GF104991999999999999999999MA1101191999999REMMET051METAR SBJP 122300Z 16006KT 9999 SCT025 27/23 Q1012;
0120827980999992008011300004-07100-034867FM-15+0066SBJP V0201601N003112200019N0112651N1+02701+02301999999ADDGA1041+006001999GF104991999999999999999999MA1101191999999REMMET051METAR SBJP 130000Z 16006KT 9999 SCT020 27/23 Q1012;
0120827980999992008011301004-07100-034867FM-15+0066SBJP V0201601N003112200019N0112651N1+02601+02201999999ADDGA1041+006001999GF104991999999999999999999MA1101191999999REMMET051METAR SBJP 130100Z 16006KT 9999 SCT020 26/22 Q1012;
0120827980999992008011302004-07100-034867FM-15+0066SBJP V0201401N003112200019N0112651N1+02601+02301999999ADDGA1041+006001999GF104991999999999999999999MA1101191999999REMMET051METAR SBJP 130200Z 14006KT 9999 SCT020 26/23 Q1012;
0120827980999992008011303004-07100-034867FM-15+0066SBJP V0201501N001012200019N0112651N1+02601+02301999999ADDGA1041+006001999GF104991999999999999999999MA1101081999999REMMET051METAR SBJP 130300Z 15002KT 9999 SCT020 26/23 Q1011;
0120827980999992008011304004-07100-034867FM-15+0066SBJP V0201501N001510054019N0112651N1+02501+02301999999ADDGA1071+005401999GF107991999999999999999999MA1101081999999REMMET051METAR SBJP 130400Z 15003KT 9999 BKN018 25/23 Q1011;
0120827980999992008011305004-07100-034867FM-15+0066SBJP V0201601N002110054019N0112651N1+02501+02301999999ADDGA1071+005401999GF107991999999999999999999MA1101021999999REMMET051METAR SBJP 130500Z 16004KT 9999 BKN018 25/23 Q1010;
0120827980999992008011306004-07100-034867FM-15+0066SBJP V0201901N002110054019N0112651N1+02501+02301999999ADDGA1071+005401999GF107991999999999999999999MA1101021999999REMMET051METAR SBJP 130600Z 19004KT 9999 BKN018 25/23 Q1010;
0120827980999992008011307004-07100-034867FM-15+0066SBJP V0201501N002112200019N0112651N1+02501+02301999999ADDGA1041+005401999GF104991999999999999999999MA1101021999999REMMET051METAR SBJP 130700Z 15004KT 9999 SCT018 25/23 Q1010;
0120827980999992008011308004-07100-034867FM-15+0066SBJP V0209999C000012200019N0112651N1+02401+02301999999ADDGA1041+005401999GF104991999999999999999999MA1101021999999REMMET051METAR SBJP 130800Z 00000KT 9999 SCT018 24/23 Q1010;
0120827980999992008011309004-07100-034867FM-15+0066SBJP V0201501N001010060019N0112651N1+02501+02301999999ADDGA1071+006001999GF107991999999999999999999MA1101081999999REMMET051METAR SBJP 130900Z 15002KT 9999 BKN020 25/23 Q1011;
0120827980999992008011310004-07100-034867FM-15+0066SBJP V0201501N002110060019N0112651N1+02601+02401999999ADDGA1071+006001999GF107991999999999999999999MA1101081999999REMMET051METAR SBJP 131000Z 15004KT 9999 BKN020 26/24 Q1011;
0120827980999992008011311004-07100-034867FM-15+0066SBJP V0201401N003110054019N0112651N1+02701+02401999999ADDGA1071+005401999GF107991999999999999999999MA1101191999999REMMET051METAR SBJP 131100Z 14006KT 9999 BKN018 27/24 Q1012;
0120827980999992008011312004-07100-034867FM-15+0066SBJP V0201301N003110054019N0112651N1+02801+02301999999ADDGA1071+005401999GF107991999999999999999999MA1101191999999REMMET051METAR SBJP 131200Z 13006KT 9999 BKN018 28/23 Q1012;
0146827980999992008011313004-07100-034867FM-15+0066SBJP V0201501N00311220001CN0080001N1+02501+02301999999ADDGA1071+005401999GA2041+024001999MA1101191999999MW1611REMMET062METAR SBJP 131300Z 15006KT 8000 -RA BKN018 SCT080 25/23 Q1012;EQDQ01+000042SCOTCV
0153827980999992008011314004-07100-034867FM-15+0066SBJP V0201701N004610054019N0040001N1+02501+02401999999ADDGA1041+003901999GA2071+005401999GF107991999999999999999999MA1101191999999MW1611REMMET062METAR SBJP 131400Z 17009KT 4000 -RA SCT013 BKN018 25/24 Q1012;
0153827980999992008011315004-07100-034867FM-15+0066SBJP V0201501N003610054019N0112651N1+02501+02301999999ADDGA1041+003901999GA2071+005401999GF107991999999999999999999MA1101081999999MW1611REMMET062METAR SBJP 131500Z 15007KT 9999 -RA SCT013 BKN018 25/23 Q1011;
0136827980999992008011316004-07100-034867FM-15+0066SBJP V0201401N00211220001CN0112651N1+02701+02501999999ADDGA1071+005401999GA2041+021001999MA1101021999999REMMET058METAR SBJP 131600Z 14004KT 9999 BKN018 SCT070 27/25 Q1010;EQDQ01+000042SCOTCV
0120827980999992008011317004-07100-034867FM-15+0066SBJP V0201301N004110054019N0112651N1+02801+02301999999ADDGA1071+005401999GF107991999999999999999999MA1101021999999REMMET051METAR SBJP 131700Z 13008KT 9999 BKN018 28/23 Q1010;
0120827980999992008011318004-07100-034867FM-15+0066SBJP V0201401N004110054019N0112651N1+02701+02201999999ADDGA1071+005401999GF107991999999999999999999MA1101021999999REMMET051METAR SBJP 131800Z 14008KT 9999 BKN018 27/22 Q1010;
0120827980999992008011319004-07100-034867FM-15+0066SBJP V0201501N003110054019N0112651N1+02701+02301999999ADDGA1071+005401999GF107991999999999999999999MA1101021999999REMMET051METAR SBJP 131900Z 15006KT 9999 BKN018 27/23 Q1010;
0153827980999992008011320004-07100-034867FM-15+0066SBJP V0201601N004110054019N0050001N1+02401+02301999999ADDGA1041+002401999GA2071+005401999GF107991999999999999999999MA1101021999999MW1611REMMET062METAR SBJP 132000Z 16008KT 5000 -RA SCT008 BKN018 24/23 Q1010;
0153827980999992008011321004-07100-034867FM-15+0066SBJP V0201201N003110054019N0060001N1+02401+02201999999ADDGA1041+003601999GA2071+005401999GF107991999999999999999999MA1101021999999MW1611REMMET062METAR SBJP 132100Z 12006KT 6000 -RA SCT012 BKN018 24/22 Q1010;
0143827980999992008011322004-07100-034867FM-15+0066SBJP V0201401N002110210019N0112651N1+02401+02301999999ADDGA1021+003601999GA2071+021001999GF107991999999999999999999MA1101081999999REMMET058METAR SBJP 132200Z 14004KT 9999 FEW012 BKN070 24/23 Q1011;
0143827980999992008011323004-07100-034867FM-15+0066SBJP V0201501N001510210019N0112651N1+02501+02301999999ADDGA1021+004501999GA2071+021001999GF107991999999999999999999MA1101081999999REMMET058METAR SBJP 132300Z 15003KT 9999 FEW015 BKN070 25/23 Q1011;
0143827980999992008011400004-07100-034867FM-15+0066SBJP V0201201N002610210019N0112651N1+02601+02301999999ADDGA1021+006001999GA2071+021001999GF107991999999999999999999MA1101191999999REMMET058METAR SBJP 140000Z 12005KT 9999 FEW020 BKN070 26/23 Q1012;
0120827980999992008011401004-07100-034867FM-15+0066SBJP V0201701N002110060019N0112651N1+02501+02301999999ADDGA1071+006001999GF107991999999999999999999MA1101191999999REMMET051METAR SBJP 140100Z 17004KT 9999 BKN020 25/23 Q1012;
0120827980999992008011402004-07100-034867FM-15+0066SBJP V0201201N001510060019N0060001N1+02601+02301999999ADDGA1071+006001999GF107991999999999999999999MA1101081999999REMMET051METAR SBJP 140200Z 12003KT 6000 BKN020 26/23 Q1011;
0120827980999992008011403004-07100-034867FM-15+0066SBJP V0201201N002110060019N0112651N1+02501+02301999999ADDGA1071+006001999GF107991999999999999999999MA1101081999999REMMET051METAR SBJP 140300Z 12004KT 9999 BKN020 25/23 Q1011;
0120827980999992008011404004-07100-034867FM-15+0066SBJP V0201301N002112200019N0112651N1+02501+02201999999ADDGA1041+006001999GF104991999999999999999999MA1101021999999REMMET051METAR SBJP 140400Z 13004KT 9999 SCT020 25/22 Q1010;
0143827980999992008011405004-07100-034867FM-15+0066SBJP V0201301N002112200019N0112651N1+02501+02201999999ADDGA1021+006001999GA2041+021001999GF104991999999999999999999MA1101021999999REMMET058METAR SBJP 140500Z 13004KT 9999 FEW020 SCT070 25/22 Q1010;
0143827980999992008011406004-07100-034867FM-15+0066SBJP V0201401N001512200019N0112651N1+02501+02201999999ADDGA1021+006001999GA2041+021001999GF104991999999999999999999MA1101021999999REMMET058METAR SBJP 140600Z 14003KT 9999 FEW020 SCT070 25/22 Q1010;
0143827980999992008011407004-07100-034867FM-15+0066SBJP V0202501N001012200019N0112651N1+02401+02201999999ADDGA1041+006001999GA2041+021001999GF104991999999999999999999MA1101021999999REMMET058METAR SBJP 140700Z 25002KT 9999 SCT020 SCT070 24/22 Q1010;
0143827980999992008011408004-07100-034867FM-15+0066SBJP V0202401N001012200019N0112651N1+02401+02201999999ADDGA1021+006001999GA2041+021001999GF104991999999999999999999MA1101021999999REMMET058METAR SBJP 140800Z 24002KT 9999 FEW020 SCT070 24/22 Q1010;
0136827980999992008011409004-07100-034867FM-15+0066SBJP V0202301N00211220001CN0112651N1+02401+02301999999ADDGA1071+006001999GA2041+021001999MA1101081999999REMMET058METAR SBJP 140900Z 23004KT 9999 BKN020 SCT070 24/23 Q1011;EQDQ01+000042SCOTCV
0153827980999992008011410004-07100-034867FM-15+0066SBJP V0202401N002110054019N0050001N1+02401+02301999999ADDGA1041+003001999GA2071+005401999GF107991999999999999999999MA1101191999999MW1611REMMET062METAR SBJP 141000Z 24004KT 5000 -RA SCT010 BKN018 24/23 Q1012;
0136827980999992008011411004-07100-034867FM-15+0066SBJP V0201601N00211220001CN0112651N1+02501+02301999999ADDGA1071+005401999GA2041+021001999MA1101191999999REMMET058METAR SBJP 141100Z 16004KT 9999 BKN018 SCT070 25/23 Q1012;EQDQ01+000042SCOTCV
0153827980999992008011412004-07100-034867FM-15+0066SBJP V0201201N002110048019N0040001N1+02501+02301999999ADDGA1071+004801999GA2071+021001999GF107991999999999999999999MA1101191999999MW1611REMMET062METAR SBJP 141200Z 12004KT 4000 -RA BKN016 BKN070 25/23 Q1012;
0143827980999992008011413004-07100-034867FM-15+0066SBJP V0202201N002110048019N0112651N1+02401+02301999999ADDGA1071+004801999GA2081+021001999GF108991999999999999999999MA1101191999999REMMET058METAR SBJP 141300Z 22004KT 9999 BKN016 OVC070 24/23 Q1012;
0153827980999992008011414004-07100-034867FM-15+0066SBJP V0202501N002110048019N0040001N1+02501+02401999999ADDGA1071+004801999GA2081+021001999GF108991999999999999999999MA1101191999999MW1611REMMET062METAR SBJP 141400Z 25004KT 4000 -RA BKN016 OVC070 25/24 Q1012;
0176827980999992008011415004-07100-034867FM-15+0066SBJP V0202701N002110048019N0050001N1+02501+02401999999ADDGA1021+003001999GA2071+004801999GA3081+021001999GF108991999999999999999999MA1101081999999MW1611REMMET069METAR SBJP 141500Z 27004KT 5000 -RA FEW010 BKN016 OVC070 25/24 Q1011;
0143827980999992008011416004-07100-034867FM-15+0066SBJP V0201201N002610210019N0050001N1+02501+02301999999ADDGA1041+003601999GA2071+021001999GF107991999999999999999999MA1101081999999REMMET058METAR SBJP 141600Z 12005KT 5000 SCT012 BKN070 25/23 Q1011;
0143827980999992008011417004-07100-034867FM-15+0066SBJP V0200901N001010051019N0112651N1+02601+02401999999ADDGA1071+005101999GA2071+021001999GF107991999999999999999999MA1101021999999REMMET058METAR SBJP 141700Z 09002KT 9999 BKN017 BKN070 26/24 Q1010;
0143827980999992008011418004-07100-034867FM-15+0066SBJP V0201301N005110045019N0112651N1+02401+02001999999ADDGA1071+004501999GA2071+021001999GF107991999999999999999999MA1101021999999REMMET058METAR SBJP 141800Z 13010KT 9999 BKN015 BKN070 24/20 Q1010;
0143827980999992008011419004-07100-034867FM-15+0066SBJP V0201101N001510210019N0112651N1+02601+02301999999ADDGA1041+006001999GA2071+021001999GF107991999999999999999999MA1101021999999REMMET058METAR SBJP 141900Z 11003KT 9999 SCT020 BKN070 26/23 Q1010;
0143827980999992008011420004-07100-034867FM-15+0066SBJP V0201201N002110210019N0112651N1+02701+02201999999ADDGA1041+006001999GA2071+021001999GF107991999999999999999999MA1101021999999REMMET058METAR SBJP 142000Z 12004KT 9999 SCT020 BKN070 27/22 Q1010;
0143827980999992008011421004-07100-034867FM-15+0066SBJP V0201101N001510060019N0112651N1+02601+02201999999ADDGA1071+006001999GA2071+021001999GF107991999999999999999999MA1101021999999REMMET058METAR SBJP 142100Z 11003KT 9999 BKN020 BKN070 26/22 Q1010;
0143827980999992008011422004-07100-034867FM-15+0066SBJP V0201501N001510060019N0112651N1+02601+02301999999ADDGA1071+006001999GA2071+021001999GF107991999999999999999999MA1101081999999REMMET058METAR SBJP 142200Z 15003KT 9999 BKN020 BKN070 26/23 Q1011;
0143827980999992008011423004-07100-034867FM-15+0066SBJP V0202201N001010060019N0112651N1+02601+02301999999ADDGA1071+006001999GA2071+021001999GF107991999999999999999999MA1101081999999REMMET058METAR SBJP 142300Z 22002KT 9999 BKN020 BKN070 26/23 Q1011;
0143827980999992008011500004-07100-034867FM-15+0066SBJP V0201801N001010060019N0112651N1+02501+02201999999ADDGA1071+006001999GA2071+021001999GF107991999999999999999999MA1101191999999REMMET058METAR SBJP 150000Z 18002KT 9999 BKN020 BKN070 25/22 Q1012;
0143827980999992008011501004-07100-034867FM-15+0066SBJP V0201801N001010210019N0112651N1+02501+02301999999ADDGA1041+006001999GA2071+021001999GF107991999999999999999999MA1101081999999REMMET058METAR SBJP 150100Z 18002KT 9999 SCT020 BKN070 25/23 Q1011;
0143827980999992008011502004-07100-034867FM-15+0066SBJP V0201801N001010210019N0112651N1+02501+02301999999ADDGA1041+006001999GA2071+021001999GF107991999999999999999999MA1101081999999REMMET058METAR SBJP 150200Z 18002KT 9999 SCT020 BKN070 25/23 Q1011;
0143827980999992008011503004-07100-034867FM-15+0066SBJP V0202301N000510210019N0112651N1+02501+02301999999ADDGA1041+006001999GA2071+021001999GF107991999999999999999999MA1101021999999REMMET058METAR SBJP 150300Z 23001KT 9999 SCT020 BKN070 25/23 Q1010;
0143827980999992008011504004-07100-034867FM-15+0066SBJP V0202501N001010210019N0112651N1+02401+02201999999ADDGA1041+006001999GA2071+021001999GF107991999999999999999999MA1101021999999REMMET058METAR SBJP 150400Z 25002KT 9999 SCT020 BKN070 24/22 Q1010;
0143827980999992008011505004-07100-034867FM-15+0066SBJP V0209999C000010210019N0112651N1+02401+02301999999ADDGA1041+006001999GA2071+021001999GF107991999999999999999999MA1101021999999REMMET058METAR SBJP 150500Z 00000KT 9999 SCT020 BKN070 24/23 Q1010;
0143827980999992008011506004-07100-034867FM-15+0066SBJP V0209999C000010210019N0112651N1+02401+02201999999ADDGA1041+006001999GA2071+021001999GF107991999999999999999999MA1101021999999REMMET058METAR SBJP 150600Z 00000KT 9999 SCT020 BKN070 24/22 Q1010;
0143827980999992008011507004-07100-034867FM-15+0066SBJP V0209999C000010210019N0112651N1+02401+02201999999ADDGA1041+006001999GA2071+021001999GF107991999999999999999999MA1101021999999REMMET058METAR SBJP 150700Z 00000KT 9999 SCT020 BKN070 24/22 Q1010;
0143827980999992008011508004-07100-034867FM-15+0066SBJP V0209999C000012200019N0112651N1+02301+02201999999ADDGA1041+006001999GA2041+021001999GF104991999999999999999999MA1101021999999REMMET058METAR SBJP 150800Z 00000KT 9999 SCT020 SCT070 23/22 Q1010;
0143827980999992008011509004-07100-034867FM-15+0066SBJP V0209999C000012200019N0112651N1+02401+02301999999ADDGA1041+006001999GA2041+030001999GF104991999999999999999999MA1101081999999REMMET058METAR SBJP 150900Z 00000KT 9999 SCT020 SCT100 24/23 Q1011;
0143827980999992008011510004-07100-034867FM-15+0066SBJP V0202201N001512200019N0112651N1+02501+02301999999ADDGA1041+006001999GA2041+090001999GF104991999999999999999999MA1101081999999REMMET058METAR SBJP 151000Z 22003KT 9999 SCT020 SCT300 25/23 Q1011;
0155827980999992008011511004-07100-034867FM-15+0066SBJP V0201101N001512200019N0112651N1+02801+02301999999ADDGA1041+006001999GF104991999999999999999999MA1999999999999REMMET051METAR SBJP 151100Z 11003KT 9999 SCT020 28/23 Q1020;EQDQ01+102003APOA  Q02 102003APOA  
0120827980999992008011512004-07100-034867FM-15+0066SBJP V0201001N003112200019N0112651N1+02901+02201999999ADDGA1041+006001999GF104991999999999999999999MA1101191999999REMMET051METAR SBJP 151200Z 10006KT 9999 SCT020 29/22 Q1012;
0120827980999992008011513004-07100-034867FM-15+0066SBJP V0200801N002612200019N0112651N1+02901+02201999999ADDGA1041+009001999GF104991999999999999999999MA1101191999999REMMET051METAR SBJP 151300Z 08005KT 9999 SCT030 29/22 Q1012;
0120827980999992008011514004-07100-034867FM-15+0066SBJP V0200901N003110090019N0112651N1+03001+02201999999ADDGA1071+009001999GF107991999999999999999999MA1101081999999REMMET051METAR SBJP 151400Z 09006KT 9999 BKN030 30/22 Q1011;
0120827980999992008011515004-07100-034867FM-15+0066SBJP V0201001N003110090019N0112651N1+03001+02201999999ADDGA1071+009001999GF107991999999999999999999MA1101081999999REMMET051METAR SBJP 151500Z 10006KT 9999 BKN030 30/22 Q1011;
0120827980999992008011516004-07100-034867FM-15+0066SBJP V0201201N003112200019N0112651N1+03001+02101999999ADDGA1041+009001999GF104991999999999999999999MA1101021999999REMMET051METAR SBJP 151600Z 12006KT 9999 SCT030 30/21 Q1010;
0120827980999992008011517004-07100-034867FM-15+0066SBJP V0200901N003612200019N0112651N1+02901+02301999999ADDGA1041+009001999GF104991999999999999999999MA1100911999999REMMET051METAR SBJP 151700Z 09007KT 9999 SCT030 29/23 Q1009;
0120827980999992008011518004-07100-034867FM-15+0066SBJP V0201101N003112200019N0112651N1+02901+02201999999ADDGA1041+009001999GF104991999999999999999999MA1100911999999REMMET051METAR SBJP 151800Z 11006KT 9999 SCT030 29/22 Q1009;
0120827980999992008011519004-07100-034867FM-15+0066SBJP V0201101N002612200019N0112651N1+02901+02301999999ADDGA1041+009001999GF104991999999999999999999MA1100911999999REMMET051METAR SBJP 151900Z 11005KT 9999 SCT030 29/23 Q1009;
0143827980999992008011520004-07100-034867FM-15+0066SBJP V0201001N002110900019N0112651N1+02801+02201999999ADDGA1041+009001999GA2071+090001999GF107991999999999999999999MA1100911999999REMMET058METAR SBJP 152000Z 10004KT 9999 SCT030 BKN300 28/22 Q1009;
0072827980999992008011521004-07100-034867FM-15+0066SBJP V0201201N00211220001CN0099001N1+02701+02201999999ADDMA1101021999999REMMET045METAR SBJP 152100Z 12004KT CAVOK 27/22 Q1010;
0072827980999992008011522004-07100-034867FM-15+0066SBJP V0201401N00151220001CN0099001N1+02601+02201999999ADDMA1101021999999REMMET045METAR SBJP 152200Z 14003KT CAVOK 26/22 Q1010;
0120827980999992008011523004-07100-034867FM-15+0066SBJP V0201401N002112200019N0112651N1+02601+02201999999ADDGA1021+006001999GF102991999999999999999999MA1101081999999REMMET051METAR SBJP 152300Z 14004KT 9999 FEW020 26/22 Q1011;
0120827980999992008011600004-07100-034867FM-15+0066SBJP V0201401N001512200019N0112651N1+02601+02201999999ADDGA1021+006001999GF102991999999999999999999MA1101191999999REMMET051METAR SBJP 160000Z 14003KT 9999 FEW020 26/22 Q1012;
0120827980999992008011602004-07100-034867FM-15+0066SBJP V0202401N001512200019N0112651N1+02501+02201999999ADDGA1021+006001999GF102991999999999999999999MA1101081999999REMMET051METAR SBJP 160200Z 24003KT 9999 FEW020 25/22 Q1011;
0120827980999992008011603004-07100-034867FM-15+0066SBJP V0202301N001512200019N0112651N1+02401+02201999999ADDGA1021+006001999GF102991999999999999999999MA1101081999999REMMET051METAR SBJP 160300Z 23003KT 9999 FEW020 24/22 Q1011;
0120827980999992008011604004-07100-034867FM-15+0066SBJP V0202101N001512200019N0112651N1+02401+02201999999ADDGA1021+006001999GF102991999999999999999999MA1101021999999REMMET051METAR SBJP 160400Z 21003KT 9999 FEW020 24/22 Q1010;
0072827980999992008011605004-07100-034867FM-15+0066SBJP V0202201N00101220001CN0099001N1+02401+02201999999ADDMA1101021999999REMMET045METAR SBJP 160500Z 22002KT CAVOK 24/22 Q1010;
0072827980999992008011606004-07100-034867FM-15+0066SBJP V0209999C00001220001CN0099001N1+02401+02201999999ADDMA1100911999999REMMET045METAR SBJP 160600Z 00000KT CAVOK 24/22 Q1009;
0120827980999992008011607004-07100-034867FM-15+0066SBJP V0202001N001012200019N0112651N1+02301+02201999999ADDGA1041+006001999GF104991999999999999999999MA1100911999999REMMET051METAR SBJP 160700Z 20002KT 9999 SCT020 23/22 Q1009;
0143827980999992008011608004-07100-034867FM-15+0066SBJP V0209999C000012200019N0112651N1+02401+02201999999ADDGA1021+006001999GA2041+021001999GF104991999999999999999999MA1101021999999REMMET058METAR SBJP 160800Z 00000KT 9999 FEW020 SCT070 24/22 Q1010;
0143827980999992008011609004-07100-034867FM-15+0066SBJP V0202001N001510210019N0112651N1+02401+02201999999ADDGA1041+006001999GA2071+021001999GF107991999999999999999999MA1101021999999REMMET058METAR SBJP 160900Z 20003KT 9999 SCT020 BKN070 24/22 Q1010;
0176827980999992008011610004-07100-034867FM-15+0066SBJP V0201601N002610060019N0045001N1+02501+02301999999ADDGA1041+003601999GA2071+006001999GA3071+021001999GF107991999999999999999999MA1101081999999MW1611REMMET069METAR SBJP 161000Z 16005KT 4500 -RA SCT012 BKN020 BKN070 25/23 Q1011;
0143827980999992008011611004-07100-034867FM-15+0066SBJP V0201801N001510060019N0112651N1+02601+02401999999ADDGA1071+006001999GA2071+021001999GF107991999999999999999999MA1101191999999REMMET058METAR SBJP 161100Z 18003KT 9999 BKN020 BKN070 26/24 Q1012;
0143827980999992008011612004-07100-034867FM-15+0066SBJP V0201201N004610210019N0112651N1+02801+02401999999ADDGA1041+006001999GA2071+021001999GF107991999999999999999999MA1101191999999REMMET058METAR SBJP 161200Z 12009KT 9999 SCT020 BKN070 28/24 Q1012;
0143827980999992008011613004-07100-034867FM-15+0066SBJP V0201101N004112200019N0112651N1+03001+02301999999ADDGA1041+009001999GA2041+021001999GF104991999999999999999999MA1101081999999REMMET058METAR SBJP 161300Z 11008KT 9999 SCT030 SCT070 30/23 Q1011;
0143827980999992008011614004-07100-034867FM-15+0066SBJP V0201201N004112200019N0112651N1+03001+02301999999ADDGA1041+009001999GA2041+021001999GF104991999999999999999999MA1101081999999REMMET058METAR SBJP 161400Z 12008KT 9999 SCT030 SCT070 30/23 Q1011;
0143827980999992008011615004-07100-034867FM-15+0066SBJP V0201201N005110210019N0112651N1+03001+02301999999ADDGA1041+009001999GA2071+021001999GF107991999999999999999999MA1101081999999REMMET058METAR SBJP 161500Z 12010KT 9999 SCT030 BKN070 30/23 Q1011;
0143827980999992008011616004-07100-034867FM-15+0066SBJP V0201401N004610210019N0112651N1+02901+02301999999ADDGA1041+007501999GA2071+021001999GF107991999999999999999999MA1101021999999REMMET058METAR SBJP 161600Z 14009KT 9999 SCT025 BKN070 29/23 Q1010;
0120827980999992008011617004-07100-034867FM-15+0066SBJP V0201401N003610060019N0112651N1+02801+02301999999ADDGA1071+006001999GF107991999999999999999999MA1100911999999REMMET051METAR SBJP 161700Z 14007KT 9999 BKN020 28/23 Q1009;
0130827980999992008011618004-07100-034867FM-15+0066SBJP V0201501N004110054019N0050001N1+02601+02301999999ADDGA1071+005401999GF107991999999999999999999MA1100911999999MW1611REMMET055METAR SBJP 161800Z 15008KT 5000 -RA BKN018 26/23 Q1009;
0120827980999992008011619004-07100-034867FM-15+0066SBJP V0201301N001510054019N0112651N1+02601+02301999999ADDGA1071+005401999GF107991999999999999999999MA1100911999999REMMET051METAR SBJP 161900Z 13003KT 9999 BKN018 26/23 Q1009;
0120827980999992008011620004-07100-034867FM-15+0066SBJP V0201201N002110054019N0112651N1+02701+02401999999ADDGA1071+005401999GF107991999999999999999999MA1101021999999REMMET051METAR SBJP 162000Z 12004KT 9999 BKN018 27/24 Q1010;
0120827980999992008011621004-07100-034867FM-15+0066SBJP V0201101N001010054019N0112651N1+02501+02301999999ADDGA1071+005401999GF107991999999999999999999MA1101021999999REMMET051METAR SBJP 162100Z 11002KT 9999 BKN018 25/23 Q1010;
0120827980999992008011622004-07100-034867FM-15+0066SBJP V0202101N001012200019N0112651N1+02501+02301999999ADDGA1041+005401999GF104991999999999999999999MA1101081999999REMMET051METAR SBJP 162200Z 21002KT 9999 SCT018 25/23 Q1011;
0152827980999992008011623004-07100-034867FM-15+0066SBJP V0201201N002110051019N0040001N1+02501+02401999999ADDGA1041+002401999GA2071+005101999GF107991999999999999999999MA1101191999999MW1631REMMET061METAR SBJP 162300Z 12004KT 4000 RA SCT008 BKN017 25/24 Q1012;
0153827980999992008011700004-07100-034867FM-15+0066SBJP V0201701N001510051019N0112651N1+02501+02401999999ADDGA1041+002401999GA2071+005101999GF107991999999999999999999MA1101191999999MW1611REMMET062METAR SBJP 170000Z 17003KT 9999 -RA SCT008 BKN017 25/24 Q1012;
0143827980999992008011701004-07100-034867FM-15+0066SBJP V0201401N002110051019N0112651N1+02601+02401999999ADDGA1041+002401999GA2071+005101999GF107991999999999999999999MA1101191999999REMMET058METAR SBJP 170100Z 14004KT 9999 SCT008 BKN017 26/24 Q1012;
0143827980999992008011702004-07100-034867FM-15+0066SBJP V0201601N001512200019N0112651N1+02501+02401999999ADDGA1021+003001999GA2041+005401999GF104991999999999999999999MA1101081999999REMMET058METAR SBJP 170200Z 16003KT 9999 FEW010 SCT018 25/24 Q1011;
0143827980999992008011703004-07100-034867FM-15+0066SBJP V0201601N001012200019N0112651N1+02501+02401999999ADDGA1021+003001999GA2041+005401999GF104991999999999999999999MA1101081999999REMMET058METAR SBJP 170300Z 16002KT 9999 FEW010 SCT018 25/24 Q1011;
0120827980999992008011704004-07100-034867FM-15+0066SBJP V0201301N002112200019N0112651N1+02601+02301999999ADDGA1021+006001999GF102991999999999999999999MA1101021999999REMMET051METAR SBJP 170400Z 13004KT 9999 FEW020 26/23 Q1010;
0120827980999992008011705004-07100-034867FM-15+0066SBJP V0201401N001012200019N0112651N1+02501+02301999999ADDGA1041+006001999GF104991999999999999999999MA1101021999999REMMET051METAR SBJP 170500Z 14002KT 9999 SCT020 25/23 Q1010;
0143827980999992008011706004-07100-034867FM-15+0066SBJP V0201501N001012200019N0112651N1+02501+02401999999ADDGA1041+004201999GA2041+009001999GF104991999999999999999999MA1101021999999REMMET058METAR SBJP 170600Z 15002KT 9999 SCT014 SCT030 25/24 Q1010;
0120827980999992008011707004-07100-034867FM-15+0066SBJP V0201701N001012200019N0112651N1+02501+02401999999ADDGA1041+004201999GF104991999999999999999999MA1101021999999REMMET051METAR SBJP 170700Z 17002KT 9999 SCT014 25/24 Q1010;
0153827980999992008011708004-07100-034867FM-15+0066SBJP V0201101N002610090019N0112651N1+02501+02401999999ADDGA1041+004201999GA2071+009001999GF107991999999999999999999MA1101081999999MW1611REMMET062METAR SBJP 170800Z 11005KT 9999 -RA SCT014 BKN030 25/24 Q1011;
0139827980999992008011709004-07100-034867FM-15+0066SBJP V0201101N002612200019N0112651N1+02601+02401999999ADDGA1041+006001999GA2021+009001021MA1101081999999REMMET061METAR SBJP 170900Z 11005KT 9999 SCT020 FEW030TCU 26/24 Q1011;EQDQ01+000022SCOTCV
0120827980999992008011710004-07100-034867FM-15+0066SBJP V0201501N003110060019N0112651N1+02601+02401999999ADDGA1071+006001999GF107991999999999999999999MA1101191999999REMMET051METAR SBJP 171000Z 15006KT 9999 BKN020 26/24 Q1012;
0120827980999992008011711004-07100-034867FM-15+0066SBJP V0201501N004110060019N0112651N1+02701+02301999999ADDGA1071+006001999GF107991999999999999999999MA1101191999999REMMET051METAR SBJP 171100Z 15008KT 9999 BKN020 27/23 Q1012;
0120827980999992008011712004-07100-034867FM-15+0066SBJP V0201401N004612200019N0112651N1+02901+02301999999ADDGA1041+007501999GF104991999999999999999999MA1101191999999REMMET051METAR SBJP 171200Z 14009KT 9999 SCT025 29/23 Q1012;
0120827980999992008011713004-07100-034867FM-15+0066SBJP V0201301N004610075019N0112651N1+02901+02301999999ADDGA1071+007501999GF107991999999999999999999MA1101191999999REMMET051METAR SBJP 171300Z 13009KT 9999 BKN025 29/23 Q1012;
0120827980999992008011714004-07100-034867FM-15+0066SBJP V0201401N004610090019N0112651N1+03001+02301999999ADDGA1071+009001999GF107991999999999999999999MA1101191999999REMMET051METAR SBJP 171400Z 14009KT 9999 BKN030 30/23 Q1012;
0120827980999992008011715004-07100-034867FM-15+0066SBJP V0201201N004610090019N0112651N1+03001+02401999999ADDGA1071+009001999GF107991999999999999999999MA1101081999999REMMET051METAR SBJP 171500Z 12009KT 9999 BKN030 30/24 Q1011;
0143827980999992008011716004-07100-034867FM-15+0066SBJP V0201701N004610075019N0112651N1+02901+02401999999ADDGA1071+007501999GA2071+090001999GF107991999999999999999999MA1101081999999REMMET058METAR SBJP 171600Z 17009KT 9999 BKN025 BKN300 29/24 Q1011;
0166827980999992008011717004-07100-034867FM-15+0066SBJP V0201401N004610075019N0112651N1+02901+02301999999ADDGA1041+004501999GA2071+007501999GA3071+090001999GF107991999999999999999999MA1101021999999REMMET065METAR SBJP 171700Z 14009KT 9999 SCT015 BKN025 BKN300 29/23 Q1010;
0166827980999992008011718004-07100-034867FM-15+0066SBJP V0201401N004110075019N0112651N1+02901+02401999999ADDGA1041+004501999GA2071+007501999GA3071+090001999GF107991999999999999999999MA1101021999999REMMET065METAR SBJP 171800Z 14008KT 9999 SCT015 BKN025 BKN300 29/24 Q1010;
0143827980999992008011719004-07100-034867FM-15+0066SBJP V0201601N004610075019N0112651N1+02801+02301999999ADDGA1071+007501999GA2071+090001999GF107991999999999999999999MA1101021999999REMMET058METAR SBJP 171900Z 16009KT 9999 BKN025 BKN300 28/23 Q1010;
0143827980999992008011720004-07100-034867FM-15+0066SBJP V0201601N003610900019N0112651N1+02701+02401999999ADDGA1041+006001999GA2071+090001999GF107991999999999999999999MA1101021999999REMMET058METAR SBJP 172000Z 16007KT 9999 SCT020 BKN300 27/24 Q1010;
0143827980999992008011721004-07100-034867FM-15+0066SBJP V0201601N003610900019N0112651N1+02701+02301999999ADDGA1041+006001999GA2071+090001999GF107991999999999999999999MA1101021999999REMMET058METAR SBJP 172100Z 16007KT 9999 SCT020 BKN300 27/23 Q1010;
0143827980999992008011722004-07100-034867FM-15+0066SBJP V0201701N002110900019N0112651N1+02601+02401999999ADDGA1041+006001999GA2071+090001999GF107991999999999999999999MA1101081999999REMMET058METAR SBJP 172200Z 17004KT 9999 SCT020 BKN300 26/24 Q1011;
0143827980999992008011723004-07100-034867FM-15+0066SBJP V0201601N002112200019N0112651N1+02601+02401999999ADDGA1041+006001999GA2041+090001999GF104991999999999999999999MA1101191999999REMMET058METAR SBJP 172300Z 16004KT 9999 SCT020 SCT300 26/24 Q1012;
0120827980999992008011800004-07100-034867FM-15+0066SBJP V0201501N002112200019N0112651N1+02501+02301999999ADDGA1041+006001999GF104991999999999999999999MA1101191999999REMMET051METAR SBJP 180000Z 15004KT 9999 SCT020 25/23 Q1012;
0120827980999992008011801004-07100-034867FM-15+0066SBJP V0202001N001012200019N0112651N1+02601+02401999999ADDGA1041+006001999GF104991999999999999999999MA1101291999999REMMET051METAR SBJP 180100Z 20002KT 9999 SCT020 26/24 Q1013;
0120827980999992008011802004-07100-034867FM-15+0066SBJP V0201501N002112200019N0112651N1+02501+02301999999ADDGA1041+006001999GF104991999999999999999999MA1101191999999REMMET051METAR SBJP 180200Z 15004KT 9999 SCT020 25/23 Q1012;
0130827980999992008011803004-07100-034867FM-15+0066SBJP V0201201N002110045019N0050001N1+02501+02301999999ADDGA1071+004501999GF107991999999999999999999MA1101191999999MW1611REMMET055METAR SBJP 180300Z 12004KT 5000 -RA BKN015 25/23 Q1012;
0120827980999992008011806004-07100-034867FM-15+0066SBJP V0209999C000012200019N0112651N1+02401+02301999999ADDGA1041+006001999GF104991999999999999999999MA1101081999999REMMET051METAR SBJP 180600Z 00000KT 9999 SCT020 24/23 Q1011;
0120827980999992008011807004-07100-034867FM-15+0066SBJP V0209999C000012200019N0112651N1+02401+02301999999ADDGA1021+006001999GF102991999999999999999999MA1101081999999REMMET051METAR SBJP 180700Z 00000KT 9999 FEW020 24/23 Q1011;
0120827980999992008011808004-07100-034867FM-15+0066SBJP V0209999C000012200019N0112651N1+02401+02301999999ADDGA1041+006001999GF104991999999999999999999MA1101081999999REMMET051METAR SBJP 180800Z 00000KT 9999 SCT020 24/23 Q1011;
0120827980999992008011809004-07100-034867FM-15+0066SBJP V0202401N001512200019N0112651N1+02401+02301999999ADDGA1041+006001999GF104991999999999999999999MA1101191999999REMMET051METAR SBJP 180900Z 24003KT 9999 SCT020 24/23 Q1012;
0153827980999992008011810004-07100-034867FM-15+0066SBJP V0201701N003612200019N0080001N1+02501+02401999999ADDGA1041+006001999GA2041+024001999GF104991999999999999999999MA1101291999999MW1611REMMET062METAR SBJP 181000Z 17007KT 8000 -RA SCT020 SCT080 25/24 Q1013;
0136827980999992008011811004-07100-034867FM-15+0066SBJP V0201701N00311220001CN0112651N1+02701+02501999999ADDGA1071+006001999GA2041+024001999MA1101391999999REMMET058METAR SBJP 181100Z 17006KT 9999 BKN020 SCT080 27/25 Q1014;EQDQ01+000042SCOTCV
0136827980999992008011812004-07100-034867FM-15+0066SBJP V0201501N00461220001CN0112651N1+02901+02401999999ADDGA1071+007501999GA2041+024001999MA1101391999999REMMET058METAR SBJP 181200Z 15009KT 9999 BKN025 SCT080 29/24 Q1014;EQDQ01+000042SCOTCV
0143827980999992008011813004-07100-034867FM-15+0066SBJP V0201501N005112200019N0112651N1+02901+02301999999ADDGA1041+007501999GA2041+024001999GF104991999999999999999999MA1101291999999REMMET058METAR SBJP 181300Z 15010KT 9999 SCT025 SCT080 29/23 Q1013;
0136827980999992008011814004-07100-034867FM-15+0066SBJP V0201501N00511220001CN0112651N1+03001+02301999999ADDGA1071+007501999GA2041+024001999MA1101291999999REMMET058METAR SBJP 181400Z 15010KT 9999 BKN025 SCT080 30/23 Q1013;EQDQ01+000042SCOTCV
0120827980999992008011815004-07100-034867FM-15+0066SBJP V0201401N005110075019N0112651N1+03001+02401999999ADDGA1071+007501999GF107991999999999999999999MA1101291999999REMMET051METAR SBJP 181500Z 14010KT 9999 BKN025 30/24 Q1013;
0120827980999992008011816004-07100-034867FM-15+0066SBJP V0201501N006210075019N0112651N1+03001+02201999999ADDGA1071+007501999GF107991999999999999999999MA1101191999999REMMET051METAR SBJP 181600Z 15012KT 9999 BKN025 30/22 Q1012;
0120827980999992008011817004-07100-034867FM-15+0066SBJP V0201701N004110075019N0112651N1+03001+02201999999ADDGA1071+007501999GF107991999999999999999999MA1101081999999REMMET051METAR SBJP 181700Z 17008KT 9999 BKN025 30/22 Q1011;
0120827980999992008011818004-07100-034867FM-15+0066SBJP V0201501N004110075019N0112651N1+02901+02201999999ADDGA1071+007501999GF107991999999999999999999MA1101081999999REMMET051METAR SBJP 181800Z 15008KT 9999 BKN025 29/22 Q1011;
0120827980999992008011819004-07100-034867FM-15+0066SBJP V0201501N004110075019N0112651N1+02901+02201999999ADDGA1071+007501999GF107991999999999999999999MA1101081999999REMMET051METAR SBJP 181900Z 15008KT 9999 BKN025 29/22 Q1011;
0143827980999992008011820004-07100-034867FM-15+0066SBJP V0201701N004112200019N0112651N1+02801+02201999999ADDGA1041+007501999GA2041+090001999GF104991999999999999999999MA1101081999999REMMET058METAR SBJP 182000Z 17008KT 9999 SCT025 SCT300 28/22 Q1011;
0143827980999992008011821004-07100-034867FM-15+0066SBJP V0201601N003110900019N0112651N1+02701+02201999999ADDGA1041+007501999GA2071+090001999GF107991999999999999999999MA1101191999999REMMET058METAR SBJP 182100Z 16006KT 9999 SCT025 BKN300 27/22 Q1012;
0143827980999992008011822004-07100-034867FM-15+0066SBJP V0201401N002110900019N0112651N1+02601+02201999999ADDGA1041+006001999GA2071+090001999GF107991999999999999999999MA1101191999999REMMET058METAR SBJP 182200Z 14004KT 9999 SCT020 BKN300 26/22 Q1012;
0143827980999992008011823004-07100-034867FM-15+0066SBJP V0201501N001510900019N0112651N1+02501+02201999999ADDGA1021+006001999GA2071+090001999GF107991999999999999999999MA1101291999999REMMET058METAR SBJP 182300Z 15003KT 9999 FEW020 BKN300 25/22 Q1013;
0072827980999992008011900004-07100-034867FM-15+0066SBJP V0201401N00101220001CN0099001N1+02501+02201999999ADDMA1101291999999REMMET045METAR SBJP 190000Z 14002KT CAVOK 25/22 Q1013;
0072827980999992008011901004-07100-034867FM-15+0066SBJP V0201401N00151220001CN0099001N1+02501+02201999999ADDMA1101291999999REMMET045METAR SBJP 190100Z 14003KT CAVOK 25/22 Q1013;
0072827980999992008011902004-07100-034867FM-15+0066SBJP V0201701N00101220001CN0099001N1+02501+02201999999ADDMA1101291999999REMMET045METAR SBJP 190200Z 17002KT CAVOK 25/22 Q1013;
0072827980999992008011903004-07100-034867FM-15+0066SBJP V0201801N00151220001CN0099001N1+02401+02201999999ADDMA1101191999999REMMET045METAR SBJP 190300Z 18003KT CAVOK 24/22 Q1012;
0072827980999992008011904004-07100-034867FM-15+0066SBJP V0202001N00101220001CN0099001N1+02401+02201999999ADDMA1101081999999REMMET045METAR SBJP 190400Z 20002KT CAVOK 24/22 Q1011;
0072827980999992008011905004-07100-034867FM-15+0066SBJP V0202201N00151220001CN0099001N1+02301+02201999999ADDMA1101081999999REMMET045METAR SBJP 190500Z 22003KT CAVOK 23/22 Q1011;
0120827980999992008011906004-07100-034867FM-15+0066SBJP V0202301N001012200019N0112651N1+02301+02201999999ADDGA1021+006001999GF102991999999999999999999MA1101021999999REMMET051METAR SBJP 190600Z 23002KT 9999 FEW020 23/22 Q1010;
0120827980999992008011907004-07100-034867FM-15+0066SBJP V0202001N001012200019N0112651N1+02301+02201999999ADDGA1041+006001999GF104991999999999999999999MA1101021999999REMMET051METAR SBJP 190700Z 20002KT 9999 SCT020 23/22 Q1010;
0120827980999992008011908004-07100-034867FM-15+0066SBJP V0202201N001012200019N0112651N1+02301+02201999999ADDGA1021+006001999GF102991999999999999999999MA1101081999999REMMET051METAR SBJP 190800Z 22002KT 9999 FEW020 23/22 Q1011;
