0175832420999992008092812004-12567-041383FM-12+043999999V0201801N000510042019N0100001N1+02231+01731101651ADDGF108991081071004501999999KA1240N+99999MA1999999096681MD1999999-0051REMSYN076AAXX  28124 83242 32497 81801 10223 20173 39668 40165 887// 333 20234 59005;EQDQ01 +02342ATMN  
0137832420999992008092818004-12567-041383FM-12+043999999V0201801N001012200019N0100001N1+03041+01751100961ADDGF103991021071004501051001MA1999999096081MD1999999-0211REMSYN070AAXX  28184 83242 32497 31802 10304 20175 39608 40096 82750 333 59021;
