0168834980999992008010100004-17733-039250FM-12+000399999V0200501N001512200019N0020001N1+02481+02111101221ADDGF102991021011008001001001KA1240M+02991MA1999999101171MD1999999-0041REMSYN088AAXX  01004 83498 32595 20503 10248 20211 30117 40122 82100 333 10299 29074 55/// 59004;
0156834980999992008010112004-17733-039250FM-12+000399999V0200501N004110075019N0020001N1+02781+02061101391ADDGF105991051021008001001001KA1240N+02021MA1999999101341MD1999999-0041REMSYN076AAXX  01124 83498 32595 50508 10278 20206 30134 40139 85200 333 20202 59004;
0137834980999992008010118004-17733-039250FM-12+000399999V0200501N004612200019N0020001N1+02861+02061101351ADDGF103991031011008001001001MA1999999101301MD1999999+0071REMSYN070AAXX  01184 83498 32595 30509 10286 20206 30130 40135 83100 333 58007;
0168834980999992008010200004-17733-039250FM-12+000399999V0200901N000512200019N0020001N1+02441+02071101401ADDGF101991011011008001001001KA1240M+02971MA1999999101351MD1999999+0181REMSYN088AAXX  02004 83498 32595 10901 10244 20207 30135 40140 81100 333 10297 29072 55/// 58018;
0156834980999992008010212004-17733-039250FM-12+000399999V0203601N002610075019N0020001N1+02601+02121101501ADDGF105991051021008001001001KA1240N+01971MA1999999101451MD1999999+0111REMSYN076AAXX  02124 83498 32595 53605 10260 20212 30145 40150 85200 333 20197 58011;
0137834980999992008010218004-17733-039250FM-12+000399999V0200501N003612200019N0020001N1+02881+02211101391ADDGF103991021011008001001011MA1999999101341MD1999999+0041REMSYN070AAXX  02184 83498 32595 30507 10288 20221 30134 40139 82101 333 58004;
0187834980999992008010300004-17733-039250FM-12+000399999V0200501N001012200019N0020001N1+02501+02131101541ADDGF102991021011008001001001KA1240M+99999MA1999999101491MD1999999+0141REMSYN088AAXX  03004 83498 32595 20502 10250 20213 30149 40154 82100 333 10217 29076 55/// 58014;EQDQ01 +02172ATMX  
0156834980999992008010312004-17733-039250FM-12+000399999V0200901N003610075019N0020001N1+02701+02221101731ADDGF105991051021008001001001KA1240N+02131MA1999999101681MD1999999+0231REMSYN076AAXX  03124 83498 32595 50907 10270 20222 30168 40173 85200 333 20213 58023;
0137834980999992008010318004-17733-039250FM-12+000399999V0200901N003612200019N0020001N1+02881+02211101591ADDGF103991031011008001001001MA1999999101541MD1999999+0201REMSYN070AAXX  03184 83498 32595 30907 10288 20221 30154 40159 83100 333 58020;
0178834980999992008010400004-17733-039250FM-12+000399999V0209999C000012200019N0020001N1+02461+02131101641ADDGA1001+999999999GF100991001001999999001001KA1240M+02951MA1999999101591MD1999999+0101REMSYN082AAXX  04004 83498 32995 00000 10246 20213 30159 40164 333 10295 29076 55/// 58010;
0137834980999992008010418004-17733-039250FM-12+000399999V0200901N003112200019N0020001N1+02941+01881101581ADDGF102991021011008001001001MA1999999101531MD1999999-0011REMSYN070AAXX  04184 83498 32595 20906 10294 20188 30153 40158 82100 333 59001;
0178834980999992008010500004-17733-039250FM-12+000399999V0200501N000512200019N0020001N1+02481+02111101561ADDGA1001+999999999GF100991001001999999001001KA1240M+02951MA1999999101511MD1999999-0081REMSYN082AAXX  05004 83498 32995 00501 10248 20211 30151 40156 333 10295 29069 55/// 59008;
0156834980999992008010512004-17733-039250FM-12+000399999V0203601N004111050019N0020001N1+02801+02271101641ADDGF106991031021008001001021KA1240N+02041MA1999999101591MD1999999-0141REMSYN076AAXX  05124 83498 32595 63608 10280 20227 30159 40164 83202 333 20204 59014;
0156834980999992008010612004-17733-039250FM-12+000399999V0203601N005111050019N0020001N1+02801+02311101231ADDGF108991031051008001001021KA1240N+02171MA1999999101181MD1999999-0411REMSYN076AAXX  06124 83498 32595 83610 10280 20231 30118 40123 83502 333 20217 59041;
0137834980999992008010618004-17733-039250FM-12+000399999V0203601N005711050019N0020001N1+02941+02261100951ADDGF105991021011008001001021MA1999999100901MD1999999-0431REMSYN070AAXX  06184 83498 32595 53611 10294 20226 30090 40095 82102 333 59043;
0156834980999992008010712004-17733-039250FM-12+000399999V0203201N003110450019N0020001N1+02701+02281101231ADDGF108991041051008001011999KA1240N+02311MA1999999101181MD1999999+0001REMSYN076AAXX  07124 83498 32595 83206 10270 20228 30118 40123 8451/ 333 20231 58000;
0137834980999992008010718004-17733-039250FM-12+000399999V0203601N003610450019N0020001N1+02901+02271101101ADDGF106991031051008001031001MA1999999101051MD1999999+0151REMSYN070AAXX  07184 83498 32595 63607 10290 20227 30105 40110 83530 333 58015;
0168834980999992008010800004-17733-039250FM-12+000399999V0203201N002110450019N0020001N1+02601+02231101311ADDGF108991041051008001011999KA1240M+03051MA1999999101261MD1999999+0281REMSYN088AAXX  08004 83498 32595 83204 10260 20223 30126 40131 8451/ 333 10305 29077 55/// 58028;
0156834980999992008010812004-17733-039250FM-12+000399999V0203601N003610450019N0020001N1+02661+02331101161ADDGF107991021021008001041021KA1240N+02081MA1999999101111MD1999999-0071REMSYN076AAXX  08124 83498 32595 73607 10266 20233 30111 40116 82242 333 20208 59007;
0137834980999992008010818004-17733-039250FM-12+000399999V0203601N004110450019N0020001N1+02941+02241100951ADDGF105991021011008001041001MA1999999100901MD1999999-0151REMSYN070AAXX  08184 83498 32595 53608 10294 20224 30090 40095 82140 333 59015;
0168834980999992008010900004-17733-039250FM-12+000399999V0203601N003110450019N0020001N1+02601+02271101071ADDGF106991031011008001041001KA1240M+02991MA1999999101021MD1999999-0241REMSYN088AAXX  09004 83498 32595 63606 10260 20227 30102 40107 83140 333 10299 29078 55/// 59024;
0156834980999992008010912004-17733-039250FM-12+000399999V0203601N005110450019N0020001N1+02681+02351101041ADDGF108991041051008001011999KA1240N+02381MA1999999100991MD1999999-0121REMSYN076AAXX  09124 83498 32595 83610 10268 20235 30099 40104 8451/ 333 20238 59012;
0137834980999992008010918004-17733-039250FM-12+000399999V0203601N005710450019N0020001N1+02881+02201100901ADDGF106991031051008001011999MA1999999100851MD1999999-0051REMSYN070AAXX  09184 83498 32595 63611 10288 20220 30085 40090 8351/ 333 59005;
0213834980999992008011000004-17733-039250FM-12+000399999V0200901N000510075019N0020001N1+02601+02271101161ADDAA106014091AY191061AY261061GF108991061071008001021999KA1240M+02941MA1999999101111MD1999999+0091MW1211REMSYN100AAXX  10004 83498 21595 80901 10260 20227 30111 40116 72196 8672/ 333 10294 29079 55/// 58009 60141;
0201834980999992008011012004-17733-039250FM-12+000399999V0203601N004112200019N0020001N1+02701+02331101171ADDAA124047091AY161061AY261061GF106991041021008001001011KA1240N+02061MA1999999101121MD1999999+0131MW1211REMSYN088AAXX  10124 83498 21595 63608 10270 20233 30112 40117 72166 84201 333 20206 58013 60474;
0178834980999992008011100004-17733-039250FM-12+000399999V0200501N001512200019N0020001N1+02441+02111101271ADDGA1001+999999999GF100991001001999999001001KA1240M+02931MA1999999101221MD1999999+0111REMSYN082AAXX  11004 83498 32995 00503 10244 20211 30122 40127 333 10293 29079 55/// 58011;
0156834980999992008011112004-17733-039250FM-12+000399999V0203601N002610450019N0020001N1+02671+02291101301ADDGF105991031051008001041001KA1240N+02091MA1999999101251MD1999999+0131REMSYN076AAXX  11124 83498 32595 53605 10267 20229 30125 40130 83540 333 20209 58013;
0137834980999992008011118004-17733-039250FM-12+000399999V0203601N001512200019N0020001N1+02891+02231101151ADDGF104991021011008001041001MA1999999101101MD1999999+0091REMSYN070AAXX  11184 83498 32595 43603 10289 20223 30110 40115 82140 333 58009;
0178834980999992008011200004-17733-039250FM-12+000399999V0203601N001512200019N0020001N1+02461+02211101291ADDGA1001+999999999GF100991001001999999001001KA1240M+03001MA1999999101241MD1999999+0021REMSYN082AAXX  12004 83498 32995 03603 10246 20221 30124 40129 333 10300 29080 55/// 58002;
0156834980999992008011212004-17733-039250FM-12+000399999V0203601N002612200019N0020001N1+02791+02061101441ADDGF104991041021008001001001KA1240N+02091MA1999999101391MD1999999+0141REMSYN076AAXX  12124 83498 32595 43605 10279 20206 30139 40144 84200 333 20209 58014;
0137834980999992008011218004-17733-039250FM-12+000399999V0200501N002612200019N0020001N1+02911+02121101191ADDGF102991021011008001001001MA1999999101141MD1999999+0041REMSYN070AAXX  12184 83498 32595 20505 10291 20212 30114 40119 82100 333 58004;
0201834980999992008011312004-17733-039250FM-12+000399999V0203601N001512200019N0020001N1+02851+02011101431ADDAA124000891AY121061AY211061GF103991031021008001001001KA1240N+02081MA1999999101381MD1999999-0011MW1031REMSYN088AAXX  13124 83498 21595 33603 10285 20201 30138 40143 70321 83200 333 20208 59001 69984;
0137834980999992008011318004-17733-039250FM-12+000399999V0200501N002612200019N0020001N1+02881+02081101271ADDGF102991021011008001001001MA1999999101221MD1999999+0081REMSYN070AAXX  13184 83498 32595 20505 10288 20208 30122 40127 82100 333 58008;
0137834980999992008011518004-17733-039250FM-12+000399999V0200501N002612200019N0020001N1+02831+02121101171ADDGF105991031011008001001041MA1999999101121MD1999999-0141REMSYN070AAXX  15184 83498 32595 50505 10283 20212 30112 40117 83104 333 59014;
0201834980999992008011612004-17733-039250FM-12+000399999V0203601N001510450019N0020001N1+02801+02131101351ADDAA124009991AY121061AY211061GF105991021011008001031001KA1240N+02091MA1999999101301MD1999999-0331MW1031REMSYN088AAXX  16124 83498 21595 53603 10280 20213 30130 40135 70321 82130 333 20209 59033 60104;
0137834980999992008011618004-17733-039250FM-12+000399999V0200501N002610450019N0020001N1+02851+02191101091ADDGF105991011011008001031001MA1999999101041MD1999999-0081REMSYN070AAXX  16184 83498 32595 50505 10285 20219 30104 40109 81130 333 59008;
0187834980999992008011700004-17733-039250FM-12+000399999V0200501N000512200019N0020001N1+02471+02251101281ADDGF103991001001999999001011KA1240M+02941MA1999999101231MD1999999-0061REMSYN088AAXX  17004 83498 32595 30501 10247 20225 30123 40128 80001 333 10294 29078 55/// 59006;EQDQ01+008002SCOLCB
0192834980999992008011712004-17733-039250FM-12+000399999V0203601N003110450019N0020001N1+02751+02381101341ADDAA124003091GF107991041051008001041001KA1240N+99999MA1999999101291MD1999999-0011REMSYN082AAXX  17124 83498 22595 73606 10275 20238 30129 40134 84540 333 20334 59001 60034;EQDQ01 +03342ATMN  
0137834980999992008011718004-17733-039250FM-12+000399999V0203601N002610450019N0020001N1+02871+02311101091ADDGF106991021011008001031001MA1999999101041MD1999999+0001REMSYN070AAXX  17184 83498 32595 63605 10287 20231 30104 40109 82130 333 58000;
0168834980999992008011800004-17733-039250FM-12+000399999V0209999C000012200019N0020001N1+02461+02251101301ADDGF104991011011008001031001KA1240M+02931MA1999999101251MD1999999+0021REMSYN088AAXX  18004 83498 32595 40000 10246 20225 30125 40130 81130 333 10293 29083 55/// 58002;
0156834980999992008011812004-17733-039250FM-12+000399999V0203601N003110450019N0020001N1+02851+02501101401ADDGF105991031051008001041001KA1240N+02051MA1999999101351MD1999999+0061REMSYN076AAXX  18124 83498 32595 53606 10285 20250 30135 40140 83540 333 20205 58006;
0137834980999992008011818004-17733-039250FM-12+000399999V0203601N005112200019N0020001N1+02911+02371101111ADDGF103991011011008001041001MA1999999101061MD1999999+0021REMSYN070AAXX  18184 83498 32595 33610 10291 20237 30106 40111 81140 333 58002;
0168834980999992008011900004-17733-039250FM-12+000399999V0203601N003112200019N0020001N1+02571+02331101231ADDGF103991031021008001001001KA1240M+03061MA1999999101181MD1999999-0071REMSYN088AAXX  19004 83498 32595 33606 10257 20233 30118 40123 83200 333 10306 29082 55/// 59007;
0156834980999992008011912004-17733-039250FM-12+000399999V0203601N002610450019N0020001N1+02841+02301101321ADDGF105991031021008001031001KA1240N+02261MA1999999101271MD1999999-0081REMSYN076AAXX  19124 83498 32595 53605 10284 20230 30127 40132 83230 333 20226 59008;
0137834980999992008011918004-17733-039250FM-12+000399999V0203601N005112200019N0020001N1+02861+02431100901ADDGF103991031011008001001001MA1999999100851MD1999999-0211REMSYN070AAXX  19184 83498 32595 33610 10286 20243 30085 40090 83100 333 59021;
0156834980999992008012018004-17733-039250FM-12+000399999V0203601N005112200019N0020001N1+02971+02331100761ADDGF103991001001999999001021MA1999999100711MD1999999-0141REMSYN070AAXX  20184 83498 32595 33610 10297 20233 30071 40076 80002 333 59014;EQDQ01+008002SCOLCB
0156834980999992008012112004-17733-039250FM-12+000399999V0203601N004110450019N0020001N1+02961+02421101051ADDGF105991021021008001041001KA1240N+02281MA1999999101001MD1999999-0061REMSYN076AAXX  21124 83498 32595 53608 10296 20242 30100 40105 82240 333 20228 59006;
0137834980999992008012118004-17733-039250FM-12+000399999V0203601N004112200019N0020001N1+02941+02471100851ADDGF103991011011008001001011MA1999999100801MD1999999+0091REMSYN070AAXX  21184 83498 32595 33608 10294 20247 30080 40085 81101 333 58009;
0168834980999992008012200004-17733-039250FM-12+000399999V0200501N000510450019N0020001N1+02591+02401101181ADDGF107991031061008001011001KA1240M+03121MA1999999101131MD1999999+0341REMSYN088AAXX  22004 83498 32595 70501 10259 20240 30113 40118 83610 333 10312 29082 55/// 58034;
0201834980999992008012212004-17733-039250FM-12+000399999V0203601N003110450019N0020001N1+02501+02381101371ADDAA124002091AY161061AY261061GF108991031071008001021999KA1240N+02311MA1999999101321MD1999999+0321MW1211REMSYN088AAXX  22124 83498 21595 83606 10250 20238 30132 40137 72166 8372/ 333 20231 58032 60024;
0182834980999992008012218004-17733-039250FM-12+000399999V0201801N001510450019N0020001N1+02631+02391101161ADDAA106000591AY121061AY211061GF108991031071008001021999MA1999999101111MD1999999+0311MW1031REMSYN082AAXX  22184 83498 21595 81803 10263 20239 30111 40116 70321 8372/ 333 58031 69941;
0168834980999992008012300004-17733-039250FM-12+000399999V0201801N001510450019N0020001N1+02511+02341101321ADDGF108991041051008001021999KA1240M+02741MA1999999101271MD1999999+0141REMSYN088AAXX  23004 83498 32595 81803 10251 20234 30127 40132 8452/ 333 10274 29091 55/// 58014;
0201834980999992008012312004-17733-039250FM-12+000399999V0201801N002610450019N0020001N1+02551+02351101371ADDAA124001091AY121061AY211061GF108991031071008001021999KA1240N+02331MA1999999101321MD1999999+0001MW1031REMSYN088AAXX  23124 83498 21595 81805 10255 20235 30132 40137 70321 8372/ 333 20233 58000 60014;
0168834980999992008012400004-17733-039250FM-12+000399999V0201801N001510450019N0020001N1+02441+02321101411ADDGF108991041051008001021999KA1240M+02711MA1999999101361MD1999999+0091REMSYN088AAXX  24004 83498 32595 81803 10244 20232 30136 40141 8452/ 333 10271 29091 55/// 58009;
0201834980999992008012412004-17733-039250FM-12+000399999V0202701N000510450019N0020001N1+02381+02331101451ADDAA124021191AY161061AY261061GF108991041071008001021999KA1240N+02271MA1999999101401MD1999999+0081MW1631REMSYN088AAXX  24124 83498 21595 82701 10238 20233 30140 40145 76366 8472/ 333 20227 58008 60214;
0182834980999992008012418004-17733-039250FM-12+000399999V0201401N001510075019N0020001N1+02511+02321101271ADDAA106014091AY161061AY261061GF108991051051008001021999MA1999999101221MD1999999+0081MW1211REMSYN082AAXX  24184 83498 21595 81403 10251 20232 30122 40127 72166 8552/ 333 58008 60141;
0213834980999992008012500004-17733-039250FM-12+000399999V0209999C000010075019N0020001N1+02401+02351101341ADDAA106007991AY161061AY261061GF108991051061008001021999KA1240M+02831MA1999999101291MD1999999-0071MW1211REMSYN100AAXX  25004 83498 21595 80000 10240 20235 30129 40134 72166 8562/ 333 10283 29095 55/// 59007 60081;
0201834980999992008012512004-17733-039250FM-12+000399999V0202301N001010075019N0020001N1+02591+02271101351ADDAA124025991AY121061AY211061GF108991051051008001021999KA1240N+02201MA1999999101301MD1999999-0101MW1031REMSYN088AAXX  25124 83498 21595 82302 10259 20227 30130 40135 70321 8552/ 333 20220 59010 60264;
0137834980999992008012518004-17733-039250FM-12+000399999V0201401N001510450019N0020001N1+02761+02321101181ADDGF107991041051008001041001MA1999999101131MD1999999-0091REMSYN070AAXX  25184 83498 32595 71403 10276 20232 30113 40118 84540 333 59009;
0168834980999992008012600004-17733-039250FM-12+000399999V0200901N001012200019N0020001N1+02511+02321101311ADDGF104991021051008001041001KA1240M+02791MA1999999101261MD1999999-0031REMSYN088AAXX  26004 83498 32595 40902 10251 20232 30126 40131 82540 333 10279 29085 55/// 59003;
0156834980999992008012612004-17733-039250FM-12+000399999V0201801N001010450019N0020001N1+02631+02411101311ADDGF107991041051008001041001KA1240N+02391MA1999999101261MD1999999-0041REMSYN076AAXX  26124 83498 32595 71802 10263 20241 30126 40131 84540 333 20239 59004;
0137834980999992008012618004-17733-039250FM-12+000399999V0201401N001510450019N0020001N1+02731+02341101091ADDGF107991041051008001051001MA1999999101041MD1999999-0091REMSYN070AAXX  26184 83498 32595 71403 10273 20234 30104 40109 84550 333 59009;
0201834980999992008012712004-17733-039250FM-12+000399999V0201801N001510450019N0020001N1+02361+02281101371ADDAA124002091AY161061AY261061GF108991041071008001021999KA1240N+02151MA1999999101321MD1999999+0061MW1611REMSYN088AAXX  27124 83498 21595 81803 10236 20228 30132 40137 76166 8472/ 333 20215 58006 60024;
0182834980999992008012718004-17733-039250FM-12+000399999V0201401N001510075019N0020001N1+02611+02311101271ADDAA106002091AY161061AY261061GF108991051051008001021999MA1999999101221MD1999999+0181MW1211REMSYN082AAXX  27184 83498 21595 81403 10261 20231 30122 40127 72166 8552/ 333 58018 60021;
0173834980999992008012812004-17733-039250FM-12+000399999V0201801N001510450019N0020001N1+02591+02331101351ADDAA124002091GF107991041051008001041001KA1240N+02221MA1999999101301MD1999999-0021REMSYN082AAXX  28124 83498 22595 71803 10259 20233 30130 40135 84540 333 20222 59002 60024;
0201834980999992008012912004-17733-039250FM-12+000399999V0201801N001010075019N0020001N1+02631+02371101181ADDAA124000891AY121061AY211061GF107991051051008001051001KA1240N+02191MA1999999101131MD1999999-0191MW1031REMSYN088AAXX  29124 83498 21595 71802 10263 20237 30113 40118 70321 85550 333 20219 59019 69984;
0178834980999992008013000004-17733-039250FM-12+000399999V0200501N001012200019N0020001N1+02511+02271100941ADDGA1001+999999999GF100991001001999999001001KA1240M+02921MA1999999100891MD1999999-0321REMSYN082AAXX  30004 83498 32995 00502 10251 20227 30089 40094 333 10292 29084 55/// 59032;
0173834980999992008013012004-17733-039250FM-12+000399999V0203601N002610450019N0020001N1+02631+02231100841ADDAA124002091GF106991041051008001031001KA1240N+02221MA1999999100791MD1999999-0341REMSYN082AAXX  30124 83498 22595 63605 10263 20223 30079 40084 84530 333 20222 59034 60024;
0137834980999992008013018004-17733-039250FM-12+000399999V0200501N004110075019N0020001N1+02731+02101100581ADDGF108991051051008001021999MA1999999100531MD1999999-0291REMSYN070AAXX  30184 83498 32595 80508 10273 20210 30053 40058 8552/ 333 59029;
0168834980999992008013100004-17733-039250FM-12+000399999V0200501N001512200019N0020001N1+02681+02291100631ADDGF103991031051008001001001KA1240M+02951MA1999999100581MD1999999-0311REMSYN088AAXX  31004 83498 32595 30503 10268 20229 30058 40063 83500 333 10295 29075 55/// 59031;
0220834980999992008013112004-17733-039250FM-12+000399999V0203601N004110450019N0020001N1+02651+02251100681ADDAA124000091AY121061AY211061GF107991021011008001011001KA1240N+02331MA1999999100001MD1999999-0161MW1031REMSYN088AAXX  31124 83498 21595 73608 10265 20225 30000 40068 70321 82110 333 20233 59016 69924;EQDQ01  00002PRCP24
0137834980999992008013118004-17733-039250FM-12+000399999V0203601N005110450019N0020001N1+02811+02291100451ADDGF107991031051008001081001MA1999999100401MD1999999-0131REMSYN070AAXX  31184 83498 32595 73610 10281 20229 30040 40045 83580 333 59013;
0168834980999992008020100004-17733-039250FM-12+000399999V0203601N003110450019N0020001N1+02571+02351100571ADDGF107991041051008001011001KA1240M+02881MA1999999100521MD1999999-0061REMSYN088AAXX  01004 83498 32595 73606 10257 20235 30052 40057 84510 333 10288 29082 55000 59006;
0201834980999992008020112004-17733-039250FM-12+000399999V0203601N001510450019N0020001N1+02531+02441100741ADDAA124016091AY161061AY261061GF107991041051008001011001KA1240N+02311MA1999999100691MD1999999+0061MW1211REMSYN088AAXX  01124 83498 21595 73603 10253 20244 30069 40074 72166 84510 333 20231 58006 60164;
0156834980999992008020412004-17733-039250FM-12+000399999V0203601N005712200019N0020001N1+02901+02341101211ADDGF102991021011008001001001KA1240N+02421MA1999999101161MD1999999+0011REMSYN076AAXX  04124 83498 32595 23611 10290 20234 30116 40121 82100 333 20242 58001;
0156834980999992008020512004-17733-039250FM-12+000399999V0203601N002112200019N0020001N1+02851+02421101461ADDGF106991031021008001001011KA1240N+02351MA1999999101411MD1999999+0251REMSYN076AAXX  05124 83498 32595 63604 10285 20242 30141 40146 83201 333 20235 58025;
0137834980999992008020518004-17733-039250FM-12+000399999V0203601N003112200019N0020001N1+02991+02281101191ADDGF102991011011008001001011MA1999999101141MD1999999+0311REMSYN070AAXX  05184 83498 32595 23606 10299 20228 30114 40119 81101 333 58031;
0156834980999992008020612004-17733-039250FM-12+000399999V0200901N000512200019N0020001N1+02751+02321101561ADDGF104991041021008001001001KA1240N+02181MA1999999101511MD1999999+0101REMSYN076AAXX  06124 83498 32595 40901 10275 20232 30151 40156 84200 333 20218 58010;
0137834980999992008020618004-17733-039250FM-12+000399999V0200901N003612200019N0020001N1+02911+02391101311ADDGF104991041011008001001001MA1999999101261MD1999999+0121REMSYN070AAXX  06184 83498 32595 40907 10291 20239 30126 40131 84100 333 58012;
0156834980999992008020712004-17733-039250FM-12+000399999V0203601N002610075019N0020001N1+02831+02271101661ADDGF105991051021008001001001KA1240N+02171MA1999999101611MD1999999+0101REMSYN076AAXX  07124 83498 32595 53605 10283 20227 30161 40166 85200 333 20217 58010;
0178834980999992008020800004-17733-039250FM-12+000399999V0200501N001012200019N0020001N1+02321+02031101501ADDGA1001+999999999GF100991001001999999001001KA1240M+03081MA1999999101451MD1999999-0041REMSYN082AAXX  08004 83498 32995 00502 10232 20203 30145 40150 333 10308 29075 55091 59004;
0156834980999992008020812004-17733-039250FM-12+000399999V0203601N001512200019N0020001N1+02711+02171101551ADDGF103991031011008001001001KA1240N+01921MA1999999101501MD1999999-0111REMSYN076AAXX  08124 83498 32595 33603 10271 20217 30150 40155 83100 333 20192 59011;
0137834980999992008020818004-17733-039250FM-12+000399999V0200501N003112200019N0020001N1+02961+02211101171ADDGF102991011011008001001011MA1999999101121MD1999999+0271REMSYN070AAXX  08184 83498 32595 20506 10296 20221 30112 40117 81101 333 58027;
0178834980999992008020900004-17733-039250FM-12+000399999V0200501N001012200019N0020001N1+02441+02031101331ADDGA1001+999999999GF100991001001999999001001KA1240M+03091MA1999999101281MD1999999-0171REMSYN082AAXX  09004 83498 32995 00502 10244 20203 30128 40133 333 10309 29076 55093 59017;
0156834980999992008020912004-17733-039250FM-12+000399999V0203601N002110075019N0020001N1+02911+02321101331ADDGF105991051021008001001001KA1240N+02081MA1999999101281MD1999999-0221REMSYN076AAXX  09124 83498 32595 53604 10291 20232 30128 40133 85200 333 20208 59022;
0137834980999992008020918004-17733-039250FM-12+000399999V0200501N003612200019N0020001N1+03011+02321101071ADDGF102991011011008001001011MA1999999101021MD1999999-0101REMSYN070AAXX  09184 83498 32595 20507 10301 20232 30102 40107 81101 333 59010;
0156834980999992008021012004-17733-039250FM-12+000399999V0203601N003112200019N0020001N1+02871+02091101311ADDGF104991041021008001001001KA1240N+02191MA1999999101261MD1999999-0021REMSYN076AAXX  10124 83498 32595 43606 10287 20209 30126 40131 84200 333 20219 59002;
0137834980999992008021018004-17733-039250FM-12+000399999V0203601N003112200019N0020001N1+03001+02111101131ADDGF103991011011008001001011MA1999999101081MD1999999+0061REMSYN070AAXX  10184 83498 32595 33606 10300 20211 30108 40113 81101 333 58006;
0156834980999992008021112004-17733-039250FM-12+000399999V0200501N002112200019N0020001N1+02841+02261101361ADDGF105991031021008001001011KA1240N+02181MA1999999101311MD1999999+0051REMSYN076AAXX  11124 83498 32595 50504 10284 20226 30131 40136 83201 333 20218 58005;
0137834980999992008021118004-17733-039250FM-12+000399999V0200501N002611050019N0020001N1+03001+02291101181ADDGF106991041021008001001021MA1999999101131MD1999999+0051REMSYN070AAXX  11184 83498 32595 60505 10300 20229 30113 40118 84202 333 58005;
0168834980999992008021200004-17733-039250FM-12+000399999V0209999C000012200019N0020001N1+02481+02131101231ADDGF102991011011999999001011KA1240M+03071MA1999999101181MD1999999-0011REMSYN088AAXX  12004 83498 32995 20000 10248 20213 30118 40123 81101 333 10307 29078 55068 59001;
0156834980999992008021212004-17733-039250FM-12+000399999V0203601N001510075019N0020001N1+02731+02281101411ADDGF107991051051008001011001KA1240N+02151MA1999999101361MD1999999+0051REMSYN076AAXX  12124 83498 32595 73603 10273 20228 30136 40141 85510 333 20215 58005;
0137834980999992008021218004-17733-039250FM-12+000399999V0200501N003612200019N0020001N1+02981+02281101181ADDGF104991011011008001001021MA1999999101131MD1999999+0001REMSYN070AAXX  12184 83498 32595 40507 10298 20228 30113 40118 81102 333 58000;
0178834980999992008021300004-17733-039250FM-12+000399999V0209999C000012200019N0020001N1+02491+02271101251ADDGA1001+999999999GF100991001001999999001001KA1240M+03151MA1999999101201MD1999999+0021REMSYN082AAXX  13004 83498 32995 00000 10249 20227 30120 40125 333 10315 29080 55066 58002;
0137834980999992008021318004-17733-039250FM-12+000399999V0200901N004111050019N0020001N1+03041+02331101201ADDGF105991021011008001001021MA1999999101251MD1999999+0121REMSYN070AAXX  13184 83498 32595 50908 10304 20233 30125 40120 82102 333 58012;
0168834980999992008021400004-17733-039250FM-12+000399999V0200501N001012200019N0020001N1+02521+02151101321ADDGF103991031011008001001001KA1240M+03151MA1999999101271MD1999999+0071REMSYN088AAXX  14004 83498 32595 30502 10252 20215 30127 40132 83100 333 10315 29075 55083 58007;
0156834980999992008021412004-17733-039250FM-12+000399999V0200901N002612200019N0020001N1+02831+02221101451ADDGF104991041021008001001001KA1240N+02121MA1999999101401MD1999999+0041REMSYN076AAXX  14124 83498 32595 40905 10283 20222 30140 40145 84200 333 20212 58004;
0137834980999992008021418004-17733-039250FM-12+000399999V0200901N002611050019N0020001N1+02941+02191101231ADDGF105991031021008001001021MA1999999101181MD1999999-0071REMSYN070AAXX  14184 83498 32595 50905 10294 20219 30118 40123 83202 333 59007;
0168834980999992008021500004-17733-039250FM-12+000399999V0200901N001012200019N0020001N1+02571+02211101341ADDGF101991011011008001001001KA1240M+03121MA1999999101291MD1999999+0021REMSYN088AAXX  15004 83498 32595 10902 10257 20221 30129 40134 81100 333 10312 29074 55084 58002;
0137834980999992008021518004-17733-039250FM-12+000399999V0201401N004110450019N0020001N1+02901+02271101191ADDGF107991031051008001031001MA1999999101141MD1999999-0041REMSYN070AAXX  15184 83498 32595 71408 10290 20227 30114 40119 83530 333 59004;
0168834980999992008021600004-17733-039250FM-12+000399999V0201401N001012200019N0020001N1+02581+02211101351ADDGF102991021011008001001001KA1240M+03071MA1999999101301MD1999999+0011REMSYN088AAXX  16004 83498 32595 21402 10258 20221 30130 40135 82100 333 10307 29077 55035 58001;
0201834980999992008021612004-17733-039250FM-12+000399999V0200901N003112200019N0020001N1+02821+02201101361ADDAA124004191AY121061AY211061GF104991041021008001001001KA1240N+02201MA1999999101311MD1999999+0001MW1031REMSYN088AAXX  16124 83498 21595 40906 10282 20220 30131 40136 70321 84200 333 20220 58000 60044;
0137834980999992008021618004-17733-039250FM-12+000399999V0200901N003112200019N0020001N1+02911+02371101161ADDGF103991031011008001001001MA1999999101111MD1999999-0031REMSYN070AAXX  16184 83498 32595 30906 10291 20237 30111 40116 83100 333 59003;
0213834980999992008021700004-17733-039250FM-12+000399999V0200901N001012200019N0020001N1+02481+02361101351ADDAA106001091AY121061AY211061GF104991041051008001001001KA1240M+03051MA1999999101301MD1999999+0001MW1031REMSYN100AAXX  17004 83498 21595 40902 10248 20236 30130 40135 70321 84500 333 10305 29082 55085 58000 60011;
0201834980999992008021712004-17733-039250FM-12+000399999V0201801N001512200019N0020001N1+02641+02311101451ADDAA124004191AY161061AY261061GF104991021021008001031001KA1240N+02161MA1999999101401MD1999999+0091MW1211REMSYN088AAXX  17124 83498 21595 41803 10264 20231 30140 40145 72166 82230 333 20216 58009 60044;
0137834980999992008021718004-17733-039250FM-12+000399999V0200901N003112200019N0020001N1+02921+02291101321ADDGF104991031011008001001011MA1999999101271MD1999999+0161REMSYN070AAXX  17184 83498 32595 40906 10292 20229 30127 40132 83101 333 58016;
0168834980999992008021800004-17733-039250FM-12+000399999V0200501N001012200019N0020001N1+02561+02191101451ADDGF101991011011008001001001KA1240M+03081MA1999999101401MD1999999+0101REMSYN088AAXX  18004 83498 32595 10502 10256 20219 30140 40145 81100 333 10308 29078 55044 58010;
0156834980999992008021812004-17733-039250FM-12+000399999V0200501N003110075019N0020001N1+02891+02371101511ADDGF105991051021008001001001KA1240N+02151MA1999999101461MD1999999+0061REMSYN076AAXX  18124 83498 32595 50506 10289 20237 30146 40151 85200 333 20215 58006;
0137834980999992008021818004-17733-039250FM-12+000399999V0200501N003112200019N0020001N1+03051+02281101311ADDGF103991011011008001001021MA1999999101261MD1999999-0011REMSYN070AAXX  18184 83498 32595 30506 10305 20228 30126 40131 81102 333 59001;
0178834980999992008021900004-17733-039250FM-12+000399999V0209999C000012200019N0020001N1+02511+02211101421ADDGA1001+999999999GF100991001001999999001001KA1240M+03111MA1999999101371MD1999999-0031REMSYN082AAXX  19004 83498 32995 00000 10251 20221 30137 40142 333 10311 29076 55085 59003;
0156834980999992008021912004-17733-039250FM-12+000399999V0200501N002610450019N0020001N1+02901+02411101471ADDGF105991031021008001031001KA1240N+02121MA1999999101421MD1999999-0041REMSYN076AAXX  19124 83498 32595 50505 10290 20241 30142 40147 83230 333 20212 59004;
0137834980999992008021918004-17733-039250FM-12+000399999V0200501N002611050019N0020001N1+02961+02421101291ADDGF106991021011008001001021MA1999999101241MD1999999-0021REMSYN070AAXX  19184 83498 32595 60505 10296 20242 30124 40129 82102 333 59002;
0168834980999992008022000004-17733-039250FM-12+000399999V0200501N000511050019N0020001N1+02541+02171101411ADDGF106991021011008001001021KA1240M+03111MA1999999101261MD1999999-0011REMSYN088AAXX  20004 83498 32595 60501 10254 20217 30126 40141 82102 333 10311 29077 55049 59001;
0156834980999992008022012004-17733-039250FM-12+000399999V0203601N001010450019N0020001N1+02931+02341101311ADDGF106991021021008001021001KA1240N+02141MA1999999101261MD1999999-0161REMSYN076AAXX  20124 83498 32595 63602 10293 20234 30126 40131 82220 333 20214 59016;
0156834980999992008022018004-17733-039250FM-12+000399999V0200501N003112200019N0020001N1+03011+02241101011ADDGF103991001001999999001021MA1999999100961MD1999999-0281REMSYN070AAXX  20184 83498 32595 30506 10301 20224 30096 40101 80002 333 59028;EQDQ01+008002SCOLCB
0187834980999992008022100004-17733-039250FM-12+000399999V0209999C000012200019N0020001N1+02511+02231101141ADDGF103991001001999999001021KA1240M+03111MA1999999101091MD1999999-0271REMSYN088AAXX  21004 83498 32595 30000 10251 20223 30109 40114 80002 333 10311 29076 55049 59027;EQDQ01+008002SCOLCB
0201834980999992008022212004-17733-039250FM-12+000399999V0203601N003110450019N0020001N1+02851+02421101401ADDAA124000591AY121061AY211061GF106991021011008001021001KA1240N+02261MA1999999101351MD1999999+0171MW1031REMSYN088AAXX  22124 83498 21595 63606 10285 20242 30135 40140 70321 82120 333 20226 58017 69964;
0137834980999992008022218004-17733-039250FM-12+000399999V0200501N005711050019N0020001N1+02971+02351101061ADDGF106991011011008001001021MA1999999101011MD1999999+0041REMSYN070AAXX  22184 83498 32595 60511 10297 20235 30101 40106 81102 333 58004;
0187834980999992008022300004-17733-039250FM-12+000399999V0203601N002612200019N0020001N1+02611+02421101261ADDGF103991001001999999001021KA1240M+03171MA1999999101211MD1999999-0041REMSYN088AAXX  23004 83498 32595 33605 10261 20242 30121 40126 80002 333 10317 29082 55034 59004;EQDQ01+008002SCOLCB
0156834980999992008022312004-17733-039250FM-12+000399999V0203201N003610450019N0020001N1+02861+02441101401ADDGF106991031011008001031001KA1240N+02231MA1999999101251MD1999999+0001REMSYN076AAXX  23124 83498 32595 63207 10286 20244 30125 40140 83130 333 20223 58000;
0137834980999992008022318004-17733-039250FM-12+000399999V0203601N004112200019N0020001N1+03061+02431101101ADDGF102991021011008001001001MA1999999101051MD1999999+0041REMSYN070AAXX  23184 83498 32595 23608 10306 20243 30105 40110 82100 333 58004;
0168834980999992008022400004-17733-039250FM-12+000399999V0203601N004110450019N0020001N1+02581+02251101131ADDGF107991041051008001031001KA1240M+03231MA1999999101081MD1999999-0131REMSYN088AAXX  24004 83498 32595 73608 10258 20225 30108 40113 84530 333 10323 29078 55064 59013;
0156834980999992008022412004-17733-039250FM-12+000399999V0203601N004112200019N0020001N1+02911+02341101191ADDGF104991011011008001001021KA1240N+02331MA1999999101141MD1999999-0211REMSYN076AAXX  24124 83498 32595 43608 10291 20234 30114 40119 81102 333 20233 59021;
0213834980999992008022500004-17733-039250FM-12+000399999V0201801N003610450019N0020001N1+02361+02291101251ADDAA106003091AY191061AY261061GF108991031071008001021999KA1240M+03381MA1999999101201MD1999999+0121MW1611REMSYN100AAXX  25004 83498 21595 81807 10236 20229 30120 40125 76196 8372/ 333 10338 29083 55077 58012 60031;
0201834980999992008022512004-17733-039250FM-12+000399999V0202701N001510450019N0020001N1+02541+02211101151ADDAA124018091AY161061AY261061GF107991031011008001041001KA1240N+02101MA1999999101101MD1999999-0041MW1211REMSYN088AAXX  25124 83498 21595 72703 10254 20221 30110 40115 72166 83140 333 20210 59004 60184;
0182834980999992008022518004-17733-039250FM-12+000399999V0200901N002110450019N0020001N1+02561+02231100851ADDAA106013091AY191061AY291061GF107991031061008001011001MA1999999100801MD1999999+0111MW1921REMSYN082AAXX  25184 83498 21595 70904 10256 20223 30080 40085 79299 83610 333 58011 60131;
0201834980999992008022612004-17733-039250FM-12+000399999V0202701N001510450019N0020001N1+02341+02271100921ADDAA124027991AY161061AY261061GF108991031071008001021999KA1240N+02181MA1999999100871MD1999999-0231MW1611REMSYN088AAXX  26124 83498 21595 82703 10234 20227 30087 40092 76166 8372/ 333 20218 59023 60284;
0180834980999992008022700004-17733-039250FM-12+000399999V0209999C000010075019N0020001N1+02531+02401100901ADDGF108991051051008001021999KA1240M+02991MA1999999100851MD1999999-0031MW1131REMSYN094AAXX  27004 83498 31595 80000 10253 20240 30085 40090 713// 8552/ 333 10299 29090 55015 59003;
0201834980999992008022712004-17733-039250FM-12+000399999V0201801N004110450019N0020001N1+02641+02311100911ADDAA124000891AY161061AY221061GF108991041061008001011999KA1240N+02221MA1999999100861MD1999999-0011MW1211REMSYN088AAXX  27124 83498 21595 81808 10264 20231 30086 40091 72162 8461/ 333 20222 59001 69984;
0213834980999992008022800004-17733-039250FM-12+000399999V0201801N005110075019N0020001N1+02631+02331101001ADDAA106009991AY161061AY261061GF108991051051008001021999KA1240M+02951MA1999999100951MD1999999+0101MW1211REMSYN100AAXX  28004 83498 21595 81810 10263 20233 30095 40100 72166 8552/ 333 10295 29081 55022 58010 60101;
0201834980999992008022812004-17733-039250FM-12+000399999V0201801N004110450019N0020001N1+02611+02391100911ADDAA124011991AY121061AY211061GF107991041051008001051001KA1240N+02201MA1999999100861MD1999999+0001MW1031REMSYN088AAXX  28124 83498 21595 71808 10261 20239 30086 40091 70321 84550 333 20220 58000 60124;
0137834980999992008022818004-17733-039250FM-12+000399999V0201801N005712200019N0020001N1+02751+02341100831ADDGF104991041021008001001001MA1999999100781MD1999999+0101REMSYN070AAXX  28184 83498 32595 41811 10275 20234 30078 40083 84200 333 58010;
0213834980999992008022900004-17733-039250FM-12+000399999V0201801N004610075019N0020001N1+02481+02341101031ADDAA106001091AY161061AY261061GF108991051051008001021999KA1240M+02871MA1999999100981MD1999999+0031MW1601REMSYN100AAXX  29004 83498 21595 81809 10248 20234 30098 40103 76066 8552/ 333 10287 29088 55046 58003 60011;
0173834980999992008022912004-17733-039250FM-12+000399999V0201801N001510450019N0020001N1+02621+02251101051ADDAA124001091GF108991041061008001021999KA1240N+02171MA1999999101001MD1999999+0141REMSYN082AAXX  29124 83498 22595 81803 10262 20225 30100 40105 8462/ 333 20217 58014 60014;
0182834980999992008022918004-17733-039250FM-12+000399999V0201401N003110450019N0020001N1+02781+02251100811ADDAA106000891AY161061AY221061GF108991031061008001011999MA1999999100761MD1999999-0021MW1211REMSYN082AAXX  29184 83498 21595 81406 10278 20225 30076 40081 72162 8361/ 333 59002 69981;
0168834980999992008030100004-17733-039250FM-12+000399999V0200901N001512200019N0020001N1+02621+02211100941ADDGF103991031021008001001001KA1240M+03071MA1999999100891MD1999999-0091REMSYN088AAXX  01004 83498 32595 30903 10262 20221 30089 40094 83200 333 10307 29077 55009 59009;
0201834980999992008030112004-17733-039250FM-12+000399999V0203601N001510450019N0020001N1+02821+02461100861ADDAA124002091AY121061AY211061GF105991021011008001031001KA1240N+02331MA1999999100811MD1999999-0191MW1031REMSYN088AAXX  01124 83498 21595 53603 10282 20246 30081 40086 70321 82130 333 20233 59019 60024;
0149834980999992008030118004-17733-039250FM-12+000399999V0203201N001010075019N0020001N1+02701+02411100571ADDGF108991051051008001021999MA1999999100521MD1999999-0241MW1171REMSYN076AAXX  01184 83498 31595 83202 10270 20241 30052 40057 717// 8552/ 333 59024;
0168834980999992008030200004-17733-039250FM-12+000399999V0202701N001010075019N0020001N1+02571+02351100901ADDGF108991051051008001021999KA1240M+03111MA1999999100851MD1999999-0041REMSYN088AAXX  02004 83498 32595 82702 10257 20235 30085 40090 8552/ 333 10311 29085 55007 59004;
0201834980999992008030212004-17733-039250FM-12+000399999V0203601N004110450019N0020001N1+02581+02251100961ADDAA124020191AY161061AY221061GF108991041061008001021999KA1240N+02171MA1999999100911MD1999999+0101MW1211REMSYN088AAXX  02124 83498 21595 83608 10258 20225 30091 40096 72162 8462/ 333 20217 58010 60204;
0137834980999992008030218004-17733-039250FM-12+000399999V0203601N004612200019N0020001N1+03081+02471100601ADDGF102991021011008001001001MA1999999100551MD1999999+0031REMSYN070AAXX  02184 83498 32595 23609 10308 20247 30055 40060 82100 333 58003;
0168834980999992008030300004-17733-039250FM-12+000399999V0203601N004110450019N0020001N1+02681+02261100861ADDGF108991041061008001011999KA1240M+03071MA1999999100811MD1999999-0041REMSYN088AAXX  03004 83498 32595 83608 10268 20226 30081 40086 8461/ 333 10307 29077 55035 59004;
0156834980999992008030312004-17733-039250FM-12+000399999V0203601N001510450019N0020001N1+02791+02421100971ADDGF107991021011008001031001KA1240N+02381MA1999999100921MD1999999+0011REMSYN076AAXX  03124 83498 32595 73603 10279 20242 30092 40097 82130 333 20238 58001;
0182834980999992008030318004-17733-039250FM-12+000399999V0203201N002610075019N0020001N1+02351+02271100921ADDAA106046091AY191061AY261061GF108991051071008001021999MA1999999100871MD1999999+0321MW1651REMSYN082AAXX  03184 83498 21595 83205 10235 20227 30087 40092 76596 8572/ 333 58032 60461;
0213834980999992008030400004-17733-039250FM-12+000399999V0203201N001510075019N0020001N1+02391+02261100951ADDAA106003091AY161061AY261061GF108991051051008001021999KA1240M+03381MA1999999100901MD1999999+0091MW1211REMSYN100AAXX  04004 83498 21595 83203 10239 20226 30090 40095 72166 8552/ 333 10338 29091 55007 58009 60031;
0201834980999992008030412004-17733-039250FM-12+000399999V0203201N001510450019N0020001N1+02681+02351101011ADDAA124049091AY161061AY261061GF108991041061008001021999KA1240N+02201MA1999999100961MD1999999+0041MW1211REMSYN088AAXX  04124 83498 21595 83203 10268 20235 30096 40101 72166 8462/ 333 20220 58004 60494;
0137834980999992008030418004-17733-039250FM-12+000399999V0203601N003610450019N0020001N1+03141+02531100631ADDGF106991021011008001031011MA1999999100581MD1999999-0291REMSYN070AAXX  04184 83498 32595 63607 10314 20253 30058 40063 82131 333 59029;
0168834980999992008030500004-17733-039250FM-12+000399999V0202701N001010450019N0020001N1+02681+02311100861ADDGF107991031051008001011001KA1240M+03341MA1999999100811MD1999999-0091REMSYN088AAXX  05004 83498 32595 72702 10268 20231 30081 40086 83510 333 10334 29078 55020 59009;
0156834980999992008030512004-17733-039250FM-12+000399999V0202701N000512200019N0020001N1+02951+02361100901ADDGF104991021041008001001011KA1240N+02331MA1999999100851MD1999999-0111REMSYN076AAXX  05124 83498 32595 42701 10295 20236 30085 40090 82401 333 20233 59011;
0137834980999992008030518004-17733-039250FM-12+000399999V0203601N003110450019N0020001N1+02971+02381100531ADDGF105991031031008001031001MA1999999100481MD1999999-0101REMSYN070AAXX  05184 83498 32595 53606 10297 20238 30048 40053 83330 333 59010;
0178834980999992008030600004-17733-039250FM-12+000399999V0200901N001012200019N0020001N1+02631+02501100861ADDGA1001+999999999GF100991001001999999001001KA1240M+03311MA1999999100811MD1999999+0001REMSYN082AAXX  06004 83498 32995 00902 10263 20250 30081 40086 333 10331 29081 55072 58000;
0156834980999992008030612004-17733-039250FM-12+000399999V0203601N004112200019N0020001N1+02881+02391100951ADDGF103991011011008001001011KA1240N+02381MA1999999100901MD1999999+0051REMSYN076AAXX  06124 83498 32595 33608 10288 20239 30090 40095 81101 333 20238 58005;
0137834980999992008030618004-17733-039250FM-12+000399999V0203601N004612200019N0020001N1+03081+02441100671ADDGF102991021011008001001001MA1999999100621MD1999999+0141REMSYN070AAXX  06184 83498 32595 23609 10308 20244 30062 40067 82100 333 58014;
0168834980999992008030700004-17733-039250FM-12+000399999V0200901N001012200019N0020001N1+02641+02311100911ADDGF101991011011008001001001KA1240M+03211MA1999999100861MD1999999+0051REMSYN088AAXX  07004 83498 32595 10902 10264 20231 30086 40091 81100 333 10321 29077 55066 58005;
0156834980999992008030712004-17733-039250FM-12+000399999V0203601N001512200019N0020001N1+02901+02431101181ADDGF105991041021008001001011KA1240N+02431MA1999999101131MD1999999+0231REMSYN076AAXX  07124 83498 32595 53603 10290 20243 30113 40118 84201 333 20243 58023;
0137834980999992008030718004-17733-039250FM-12+000399999V0200501N003110450019N0020001N1+03041+02431100961ADDGF105991011011008001041001MA1999999100911MD1999999+0291REMSYN070AAXX  07184 83498 32595 50506 10304 20243 30091 40096 81140 333 58029;
0178834980999992008030800004-17733-039250FM-12+000399999V0201401N001012200019N0020001N1+02611+02441101231ADDGA1001+999999999GF100991001001999999001001KA1240M+03131MA1999999101181MD1999999+0321REMSYN082AAXX  08004 83498 32995 01402 10261 20244 30118 40123 333 10313 29082 55052 58032;
0156834980999992008030812004-17733-039250FM-12+000399999V0202701N000510450019N0020001N1+02721+02391101441ADDGF106991031011008001031001KA1240N+02331MA1999999101391MD1999999+0261REMSYN076AAXX  08124 83498 32595 62701 10272 20239 30139 40144 83130 333 20233 58026;
0182834980999992008030818004-17733-039250FM-12+000399999V0200901N003610450019N0020001N1+02881+02461101221ADDAA106001091AY161061AY221061GF108991041061008001011999MA1999999101171MD1999999+0261MW1211REMSYN082AAXX  08184 83498 21595 80907 10288 20246 30117 40122 72162 8461/ 333 58026 60011;
0168834980999992008030900004-17733-039250FM-12+000399999V0200901N000512200019N0020001N1+02561+02231101311ADDGF104991041051008001001001KA1240M+02981MA1999999101261MD1999999+0081REMSYN088AAXX  09004 83498 32595 40901 10256 20223 30126 40131 84500 333 10298 29081 55013 58008;
0173834980999992008030912004-17733-039250FM-12+000399999V0209999C000010450019N0020001N1+02531+02311101461ADDAA124001091GF106991041051008001021001KA1240N+02281MA1999999101411MD1999999+0021REMSYN082AAXX  09124 83498 22595 60000 10253 20231 30141 40146 84520 333 20228 58002 60014;
0149834980999992008030918004-17733-039250FM-12+000399999V0209999C000010075019N0020001N1+02791+02381101181ADDGF107991051051008001021001MA1999999101131MD1999999-0041MW1171REMSYN076AAXX  09184 83498 31595 70000 10279 20238 30113 40118 717// 85520 333 59004;
0178834980999992008031000004-17733-039250FM-12+000399999V0209999C000012200019N0020001N1+02591+02351101301ADDGA1001+999999999GF100991001001999999001001KA1240M+03061MA1999999101251MD1999999-0011REMSYN082AAXX  10004 83498 32995 00000 10259 20235 30125 40130 333 10306 29085 55031 59001;
0201834980999992008031012004-17733-039250FM-12+000399999V0200901N002610075019N0020001N1+02341+02171101391ADDAA124050091AY191061AY261061GF108991081071008001999999KA1240N+02161MA1999999101341MD1999999-0071MW1641REMSYN088AAXX  10124 83498 21595 80905 10234 20217 30134 40139 76496 887// 333 20216 59007 60504;
0178834980999992008031200004-17733-039250FM-12+000399999V0200901N001012200019N0020001N1+02531+02361101231ADDGA1001+999999999GF100991001001999999001001KA1240M+03021MA1999999101181MD1999999-0051REMSYN082AAXX  12004 83498 32995 00902 10253 20236 30118 40123 333 10302 29083 55094 59005;
0156834980999992008031212004-17733-039250FM-12+000399999V0203601N003610075019N0020001N1+02781+02401101341ADDGF105991051021008001001001KA1240N+02181MA1999999101291MD1999999+0021REMSYN076AAXX  12124 83498 32595 53607 10278 20240 30129 40134 85200 333 20218 58002;
0137834980999992008031218004-17733-039250FM-12+000399999V0203601N004112200019N0020001N1+02981+02401101121ADDGF103991031011008001001001MA1999999101071MD1999999+0081REMSYN070AAXX  12184 83498 32595 33608 10298 20240 30107 40112 83100 333 58008;
0178834980999992008031300004-17733-039250FM-12+000399999V0209999C000012200019N0020001N1+02581+02231101301ADDGA1001+999999999GF100991001001999999001001KA1240M+03121MA1999999101251MD1999999+0071REMSYN082AAXX  13004 83498 32995 00000 10258 20223 30125 40130 333 10312 29078 55108 58007;
0156834980999992008031312004-17733-039250FM-12+000399999V0203201N001512200019N0020001N1+02731+02521101311ADDGF105991041021008001001011KA1240N+02331MA1999999101261MD1999999-0031REMSYN076AAXX  13124 83498 32595 53203 10273 20252 30126 40131 84201 333 20233 59003;
0137834980999992008031318004-17733-039250FM-12+000399999V0203601N003612200019N0020001N1+03071+02301100821ADDGF103991011011008001001011MA1999999100771MD1999999-0301REMSYN070AAXX  13184 83498 32595 33607 10307 20230 30077 40082 81101 333 59030;
0178834980999992008031400004-17733-039250FM-12+000399999V0203601N001512200019N0020001N1+02611+02371101011ADDGA1001+999999999GF100991001001999999001001KA1240M+03211MA1999999100961MD1999999-0291REMSYN082AAXX  14004 83498 32995 03603 10261 20237 30096 40101 333 10321 29081 55100 59029;
0156834980999992008031412004-17733-039250FM-12+000399999V0203601N003612200019N0020001N1+02911+02341100981ADDGF103991031011008001001001KA1240N+02311MA1999999100931MD1999999-0331REMSYN076AAXX  14124 83498 32595 33607 10291 20234 30093 40098 83100 333 20231 59033;
0137834980999992008031418004-17733-039250FM-12+000399999V0203601N004612200019N0020001N1+03031+02411100691ADDGF101991011011008001001001MA1999999100641MD1999999-0131REMSYN070AAXX  14184 83498 32595 13609 10303 20241 30064 40069 81100 333 59013;
0178834980999992008031500004-17733-039250FM-12+000399999V0203601N000512200019N0020001N1+02631+02441101001ADDGA1001+999999999GF100991001001999999001001KA1240M+03221MA1999999100951MD1999999-0011REMSYN082AAXX  15004 83498 32995 03601 10263 20244 30095 40100 333 10322 29080 55106 59001;
0201834980999992008031512004-17733-039250FM-12+000399999V0203601N002612200019N0020001N1+02901+02411101251ADDAA124000021AY161061AY211061GF104991041021008001001001KA1240N+02331MA1999999101201MD1999999+0291MW1211REMSYN088AAXX  15124 83498 21595 43605 10290 20241 30120 40125 72161 84200 333 20233 58029 69924;
0156834980999992008031518004-17733-039250FM-12+000399999V0200901N002112200019N0020001N1+03041+02411101091ADDGF103991999011008001001001MA1999999101041MD1999999+0401REMSYN070AAXX  15184 83498 32595 30904 10304 20241 30104 40109 82100 333 58040;EQDQ01+000022SCOTLC
0168834980999992008031600004-17733-039250FM-12+000399999V0200901N001512200019N0020001N1+02641+02271101321ADDGF101991011011008001001001KA1240M+03231MA1999999101271MD1999999+0321REMSYN088AAXX  16004 83498 32595 10903 10264 20227 30127 40132 81100 333 10323 29076 55096 58032;
0201834980999992008031612004-17733-039250FM-12+000399999V0200501N001510450019N0020001N1+02701+02351101501ADDAA124001091AY161061AY221061GF108991041061008001011999KA1240N+02321MA1999999101451MD1999999+0251MW1211REMSYN088AAXX  16124 83498 21595 80503 10270 20235 30145 40150 72162 8461/ 333 20232 58025 60014;
0137834980999992008031618004-17733-039250FM-12+000399999V0200901N003110450019N0020001N1+03081+02401101251ADDGF105991031011008001051001MA1999999101201MD1999999+0161REMSYN070AAXX  16184 83498 32595 50906 10308 20240 30120 40125 83150 333 58016;
0168834980999992008031700004-17733-039250FM-12+000399999V0200901N001512200019N0020001N1+02651+02441101571ADDGF102991021011008001001001KA1240M+03031MA1999999101521MD1999999+0251REMSYN088AAXX  17004 83498 32595 20903 10265 20244 30152 40157 82100 333 10303 29082 55062 58025;
0156834980999992008031712004-17733-039250FM-12+000399999V0200501N001512200019N0020001N1+02941+02331101511ADDGF103991031011008001001001KA1240N+02431MA1999999101461MD1999999+0011REMSYN076AAXX  17124 83498 32595 30503 10294 20233 30146 40151 83100 333 20243 58001;
0137834980999992008031718004-17733-039250FM-12+000399999V0200901N003112200019N0020001N1+02951+02361101261ADDGF103991021011008001041001MA1999999101211MD1999999+0011REMSYN070AAXX  17184 83498 32595 30906 10295 20236 30121 40126 82140 333 58001;
0168834980999992008031800004-17733-039250FM-12+000399999V0200901N001512200019N0020001N1+02651+02331101421ADDGF102991021011008001001001KA1240M+03061MA1999999101371MD1999999-0151REMSYN088AAXX  18004 83498 32595 20903 10265 20233 30137 40142 82100 333 10306 29077 55102 59015;
0201834980999992008031812004-17733-039250FM-12+000399999V0200901N001510450019N0020001N1+02881+02321101551ADDAA124003091AY161061AY221061GF106991021011008001031011KA1240N+02381MA1999999101501MD1999999+0041MW1211REMSYN088AAXX  18124 83498 21595 60903 10288 20232 30150 40155 72162 82131 333 20238 58004 60034;
0137834980999992008031818004-17733-039250FM-12+000399999V0200901N003612200019N0020001N1+03101+02341101351ADDGF103991021011008001001011MA1999999101301MD1999999+0091REMSYN070AAXX  18184 83498 32595 30907 10310 20234 30130 40135 82101 333 58009;
0168834980999992008031900004-17733-039250FM-12+000399999V0200901N001512200019N0020001N1+02541+02171101411ADDGF103991031021008001001001KA1240M+03141MA1999999101361MD1999999-0011REMSYN088AAXX  19004 83498 32595 30903 10254 20217 30136 40141 83200 333 10314 29074 55064 59001;
0201834980999992008031912004-17733-039250FM-12+000399999V0201401N000510450019N0020001N1+02731+02261101471ADDAA124002091AY121061AY211061GF107991041051008001011001KA1240N+02341MA1999999101421MD1999999-0081MW1031REMSYN088AAXX  19124 83498 21595 71401 10273 20226 30142 40147 70321 84510 333 20234 59008 60024;
0182834980999992008031918004-17733-039250FM-12+000399999V0200901N002610450019N0020001N1+02931+02361101281ADDAA106002091AY121061AY211061GF106991021011008001051001MA1999999101231MD1999999-0071MW1031REMSYN082AAXX  19184 83498 21595 60905 10293 20236 30123 40128 70321 82150 333 59007 60021;
0168834980999992008032000004-17733-039250FM-12+000399999V0201401N001512200019N0020001N1+02691+02311101511ADDGF103991031011008001001001KA1240M+03011MA1999999101461MD1999999+0101REMSYN088AAXX  20004 83498 32595 31403 10269 20231 30146 40151 83100 333 10301 29077 55029 58010;
0173834980999992008032012004-17733-039250FM-12+000399999V0200901N001510075019N0020001N1+02841+02351101531ADDAA124002091GF105991051021008001001001KA1240N+02231MA1999999101481MD1999999+0061REMSYN082AAXX  20124 83498 22595 50903 10284 20235 30148 40153 85200 333 20223 58006 60024;
0137834980999992008032018004-17733-039250FM-12+000399999V0200901N003112200019N0020001N1+02981+02351101281ADDGF104991021011008001001011MA1999999101231MD1999999+0001REMSYN070AAXX  20184 83498 32595 40906 10298 20235 30123 40128 82101 333 58000;
0168834980999992008032100004-17733-039250FM-12+000399999V0200901N001012200019N0020001N1+02621+02211101451ADDGF103991031021008001001001KA1240M+03011MA1999999101401MD1999999-0061REMSYN088AAXX  21004 83498 32595 30902 10262 20221 30140 40145 83200 333 10301 29075 55100 59006;
0201834980999992008032112004-17733-039250FM-12+000399999V0200901N003112200019N0020001N1+02851+02331101471ADDAA124001091AY121061AY211061GF102991021011008001001001KA1240N+02251MA1999999101421MD1999999-0061MW1031REMSYN088AAXX  21124 83498 21595 20906 10285 20233 30142 40147 70321 82100 333 20225 59006 60014;
0137834980999992008032118004-17733-039250FM-12+000399999V0200901N002612200019N0020001N1+02911+02271101271ADDGF103991031011008001001001MA1999999101151MD1999999-0081REMSYN070AAXX  21184 83498 32595 30905 10291 20227 30115 40127 83100 333 59008;
0168834980999992008032200004-17733-039250FM-12+000399999V0200901N001512200019N0020001N1+02611+02291101401ADDGF102991021011008001001001KA1240M+03021MA1999999101351MD1999999-0051REMSYN088AAXX  22004 83498 32595 20903 10261 20229 30135 40140 82100 333 10302 29077 55086 59005;
0156834980999992008032212004-17733-039250FM-12+000399999V0201401N001512200019N0020001N1+02761+02341101451ADDGF104991041021008001001001KA1240N+02141MA1999999101401MD1999999-0021REMSYN076AAXX  22124 83498 32595 41403 10276 20234 30140 40145 84200 333 20214 59002;
0137834980999992008032218004-17733-039250FM-12+000399999V0200901N003112200019N0020001N1+02901+02321101251ADDGF103991031011008001001001MA1999999101201MD1999999+0051REMSYN070AAXX  22184 83498 32595 30906 10290 20232 30120 40125 83100 333 58005;
0168834980999992008032300004-17733-039250FM-12+000399999V0200901N001012200019N0020001N1+02621+02251101331ADDGF102991021011008001001001KA1240M+03041MA1999999101281MD1999999-0071REMSYN088AAXX  23004 83498 32595 20902 10262 20225 30128 40133 82100 333 10304 29077 55107 59007;
0156834980999992008032312004-17733-039250FM-12+000399999V0202701N000510450019N0020001N1+02571+02431101371ADDGF107991041051008001011001KA1240N+02191MA1999999101321MD1999999-0081REMSYN076AAXX  23124 83498 32595 72701 10257 20243 30132 40137 84510 333 20219 59008;
0137834980999992008032318004-17733-039250FM-12+000399999V0200501N003112200019N0020001N1+03011+02241101021ADDGF101991011011008001001001MA1999999100971MD1999999-0231REMSYN070AAXX  23184 83498 32595 10506 10301 20224 30097 40102 81100 333 59023;
0156834980999992008032412004-17733-039250FM-12+000399999V0200501N001510450019N0020001N1+02681+02401101361ADDGF106991021011008001041011KA1240N+02091MA1999999101311MD1999999-0011REMSYN076AAXX  24124 83498 32595 60503 10268 20240 30131 40136 82141 333 20209 59001;
0137834980999992008032418004-17733-039250FM-12+000399999V0200501N003111050019N0020001N1+03041+02231101081ADDGF105991031011008001001021MA1999999101031MD1999999+0061REMSYN070AAXX  24184 83498 32595 50506 10304 20223 30103 40108 83102 333 58006;
0168834980999992008032500004-17733-039250FM-12+000399999V0200501N000510450019N0020001N1+02461+02111101371ADDGF106991021011008001051001KA1240M+03191MA1999999101321MD1999999+0121REMSYN088AAXX  25004 83498 32595 60501 10246 20211 30132 40137 82150 333 10319 29075 55071 58012;
0156834980999992008032512004-17733-039250FM-12+000399999V0202301N001011050019N0020001N1+02711+02371101321ADDGF106991041021008001001021KA1240N+02151MA1999999101271MD1999999-0041REMSYN076AAXX  25124 83498 32595 62302 10271 20237 30127 40132 84202 333 20215 59004;
0137834980999992008032518004-17733-039250FM-12+000399999V0200901N003111050019N0020001N1+03051+02261101121ADDGF106991011011008001001021MA1999999101071MD1999999+0041REMSYN070AAXX  25184 83498 32595 60906 10305 20226 30107 40112 81102 333 58004;
0156834980999992008032612004-17733-039250FM-12+000399999V0202301N001010450019N0020001N1+02641+02311101401ADDGF106991041051008001031001KA1240N+02231MA1999999101351MD1999999+0081REMSYN076AAXX  26124 83498 32595 62302 10264 20231 30135 40140 84530 333 20223 58008;
0137834980999992008032618004-17733-039250FM-12+000399999V0200901N002610450019N0020001N1+02981+02301101231ADDGF105991021011008001031001MA1999999101181MD1999999+0111REMSYN070AAXX  26184 83498 32595 50905 10298 20230 30118 40123 82130 333 58011;
0213834980999992008032700004-17733-039250FM-12+000399999V0209999C000012200019N0020001N1+02481+02151101211ADDAA106002091AY191061AY211061GF103991031051008001001001KA1240M+03031MA1999999101161MD1999999-0151MW1211REMSYN100AAXX  27004 83498 21595 30000 10248 20215 30116 40121 72191 83500 333 10303 29078 55000 59015 60021;
0201834980999992008032712004-17733-039250FM-12+000399999V0201801N001510450019N0020001N1+02511+02401101191ADDAA124006191AY161061AY261061GF108991041051008001021999KA1240N+02291MA1999999101141MD1999999-0211MW1211REMSYN088AAXX  27124 83498 21595 81803 10251 20240 30114 40119 72166 8452/ 333 20229 59021 60064;
0137834980999992008032718004-17733-039250FM-12+000399999V0200901N003110450019N0020001N1+02801+02311100831ADDGF105991021021008001041001MA1999999100781MD1999999-0401REMSYN070AAXX  27184 83498 32595 50906 10280 20231 30078 40083 82240 333 59040;
0178834980999992008032800004-17733-039250FM-12+000399999V0209999C000012200019N0020001N1+02361+02221101021ADDGA1001+999999999GF100991001001999999001001KA1240M+02951MA1999999100971MD1999999-0191REMSYN082AAXX  28004 83498 32995 00000 10236 20222 30097 40102 333 10295 29088 55034 59019;
0156834980999992008032812004-17733-039250FM-12+000399999V0202701N003112200019N0020001N1+02781+02361101111ADDGF103991021011008001001011KA1240N+02151MA1999999101061MD1999999-0081REMSYN076AAXX  28124 83498 32595 32706 10278 20236 30106 40111 82101 333 20215 59008;
0137834980999992008032818004-17733-039250FM-12+000399999V0203601N003612200019N0020001N1+02861+02371100831ADDGF102991011011008001031001MA1999999100781MD1999999+0001REMSYN070AAXX  28184 83498 32595 23607 10286 20237 30078 40083 81130 333 58000;
0173834980999992008032912004-17733-039250FM-12+000399999V0203601N001510450019N0020001N1+02771+02321101051ADDAA124000591GF107991041051008001051001KA1240N+02381MA1999999101001MD1999999-0061REMSYN082AAXX  29124 83498 22595 73603 10277 20232 30100 40105 84550 333 20238 59006 69944;
0137834980999992008032918004-17733-039250FM-12+000399999V0203601N003610450019N0020001N1+03031+02311100701ADDGF106991021011008001041001MA1999999100651MD1999999-0131REMSYN070AAXX  29184 83498 32595 63607 10303 20231 30065 40070 82140 333 59013;
0180834980999992008033000004-17733-039250FM-12+000399999V0209999C000012200019N0020001N1+02611+02401100941ADDGF102991021041008001001001KA1240M+03191MA1999999100891MD1999999-0021MW1131REMSYN094AAXX  30004 83498 31595 20000 10261 20240 30089 40094 713// 82400 333 10319 29080 55073 59002;
0201834980999992008033012004-17733-039250FM-12+000399999V0202301N003610450019N0020001N1+02441+02111101231ADDAA124032091AY161061AY221061GF108991041061008001011999KA1240N+02061MA1999999101181MD1999999+0181MW1211REMSYN088AAXX  30124 83498 21595 82307 10244 20211 30118 40123 72162 8461/ 333 20206 58018 60324;
0182834980999992008033018004-17733-039250FM-12+000399999V0201801N004110450019N0020001N1+02761+02301100931ADDAA106002091AY161061AY261061GF108991031061008001021999MA1999999100881MD1999999+0231MW1211REMSYN082AAXX  30184 83498 21595 81808 10276 20230 30088 40093 72166 8362/ 333 58023 60021;
0168834980999992008033100004-17733-039250FM-12+000399999V0201801N003110075019N0020001N1+02661+02221101231ADDGF105991051051008001001001KA1240M+02831MA1999999101181MD1999999+0291REMSYN088AAXX  31004 83498 32595 51806 10266 20222 30118 40123 85500 333 10283 29078 55006 58029;
0201834980999992008033112004-17733-039250FM-12+000399999V0201801N001510450019N0020001N1+02521+02331101241ADDAA124020191AY121061AY211061GF107991041051008001011001KA1240N+02281MA1999999101191MD1999999+0011MW1031REMSYN088AAXX  31124 83498 21595 71803 10252 20233 30119 40124 70321 84510 333 20228 58001 60204;
0182834980999992008033118004-17733-039250FM-12+000399999V0201801N003112200019N0020001N1+02731+01891100951ADDAA106000591AY121061AY211061GF103991031021008001001001MA1999999100901MD1999999+0021MW1011REMSYN082AAXX  31184 83498 21595 31806 10273 20189 30090 40095 70121 83200 333 58002 69941;
0178834980999992008040100004-17733-039250FM-12+000399999V0201801N003110012019N0020001N1+02471+02251101191ADDGA1091+999999999GF109991091999999999999999KA1240M+02891MA1999999101141MD1999999-0041REMSYN082AAXX  01004 83498 32/95 91806 10247 20225 30114 40119 333 10289 29085 55043 59004;
0173834980999992008040112004-17733-039250FM-12+000399999V0201401N003612200019N0020001N1+02661+02091101261ADDAA124000591GF104991021011008001031001KA1240N+02071MA1999999101211MD1999999+0021REMSYN082AAXX  01124 83498 22595 41407 10266 20209 30121 40126 82130 333 20207 58002 69944;
0137834980999992008040118004-17733-039250FM-12+000399999V0201401N004112200019N0020001N1+02781+02231101051ADDGF102991021011008001001001MA1999999101001MD1999999+0101REMSYN070AAXX  01184 83498 32595 21408 10278 20223 30100 40105 82100 333 58010;
0168834980999992008040200004-17733-039250FM-12+000399999V0201401N002112200019N0020001N1+02561+02151101201ADDGF102991021011008001001001KA1240M+02891MA1999999101151MD1999999+0011REMSYN088AAXX  02004 83498 32595 21404 10256 20215 30115 40120 82100 333 10289 29075 55098 58001;
0156834980999992008040212004-17733-039250FM-12+000399999V0201801N001010450019N0020001N1+02691+02311101201ADDGF105991041021008001041001KA1240N+02041MA1999999101151MD1999999-0061REMSYN076AAXX  02124 83498 32595 51802 10269 20231 30115 40120 84240 333 20204 59006;
0137834980999992008040218004-17733-039250FM-12+000399999V0200901N001510450019N0020001N1+02811+02131100911ADDGF106991041021008001041001MA1999999100861MD1999999-0141REMSYN070AAXX  02184 83498 32595 60903 10281 20213 30086 40091 84240 333 59014;
0178834980999992008040300004-17733-039250FM-12+000399999V0200901N000512200019N0020001N1+02461+02191101061ADDGA1001+999999999GF100991001001999999001001KA1240M+02951MA1999999101011MD1999999-0141REMSYN082AAXX  03004 83498 32995 00901 10246 20219 30101 40106 333 10295 29079 55084 59014;
0156834980999992008040312004-17733-039250FM-12+000399999V0202301N001012200019N0020001N1+02621+02291101141ADDGF102991021011008001001011KA1240N+01991MA1999999101091MD1999999-0061REMSYN076AAXX  03124 83498 32595 22302 10262 20229 30109 40114 82101 333 20199 59006;
0137834980999992008040318004-17733-039250FM-12+000399999V0200901N002612200019N0020001N1+02841+02261100911ADDGF104991031011008001001011MA1999999100861MD1999999+0001REMSYN070AAXX  03184 83498 32595 40905 10284 20226 30086 40091 83101 333 58000;
0178834980999992008040400004-17733-039250FM-12+000399999V0209999C000012200019N0020001N1+02421+02071100951ADDGA1001+999999999GF100991001001999999001001KA1240M+03021MA1999999100901MD1999999-0111REMSYN082AAXX  04004 83498 32995 00000 10242 20207 30090 40095 333 10302 29079 55087 59011;
0156834980999992008040412004-17733-039250FM-12+000399999V0203601N002612200019N0020001N1+02851+02441101241ADDGF104991031011008001001011KA1240N+02141MA1999999101191MD1999999+0101REMSYN076AAXX  04124 83498 32595 43605 10285 20244 30119 40124 83101 333 20214 58010;
0137834980999992008040418004-17733-039250FM-12+000399999V0203601N003612200019N0020001N1+03051+02411100711ADDGF103991021011008001001011MA1999999100661MD1999999-0201REMSYN070AAXX  04184 83498 32595 33607 10305 20241 30066 40071 82101 333 59020;
0178834980999992008040500004-17733-039250FM-12+000399999V0200501N000512200019N0020001N1+02571+02401100971ADDGA1001+999999999GF100991001001999999001001KA1240M+03151MA1999999100921MD1999999+0021REMSYN082AAXX  05004 83498 32995 00501 10257 20240 30092 40097 333 10315 29083 55093 58002;
0156834980999992008040512004-17733-039250FM-12+000399999V0203201N002110450019N0020001N1+02861+02521101091ADDGF106991041051008001031001KA1240N+02321MA1999999101041MD1999999+0051REMSYN076AAXX  05124 83498 32595 63204 10286 20252 30104 40109 84530 333 20232 58005;
0137834980999992008040518004-17733-039250FM-12+000399999V0203601N003110450019N0020001N1+03061+02501100801ADDGF105991021011008001041001MA1999999100751MD1999999+0091REMSYN070AAXX  05184 83498 32595 53606 10306 20250 30075 40080 82140 333 58009;
0168834980999992008040600004-17733-039250FM-12+000399999V0200501N001510450019N0020001N1+02641+02311101111ADDGF106991031051008001011001KA1240M+03171MA1999999101061MD1999999+0141REMSYN088AAXX  06004 83498 32595 60503 10264 20231 30106 40111 83510 333 10317 29080 55079 58014;
0178834980999992008040700004-17733-039250FM-12+000399999V0209999C000012200019N0020001N1+02511+02321101131ADDGA1001+999999999GF100991001001999999001001KA1240M+03051MA1999999101081MD1999999+0021REMSYN082AAXX  07004 83498 32995 00000 10251 20232 30108 40113 333 10305 29086 55020 58002;
0201834980999992008040712004-17733-039250FM-12+000399999V0202301N001512200019N0020001N1+02721+02341101291ADDAA124000391AY161061AY221061GF104991031011008001001011KA1240N+02221MA1999999101241MD1999999+0051MW1211REMSYN088AAXX  07124 83498 21595 42303 10272 20234 30124 40129 72162 83101 333 20222 58005 69934;
0137834980999992008040718004-17733-039250FM-12+000399999V0200501N002610450019N0020001N1+02781+02361101051ADDGF105991021011008001031001MA1999999101001MD1999999+0081REMSYN070AAXX  07184 83498 32595 50505 10278 20236 30100 40105 82130 333 58008;
0168834980999992008040800004-17733-039250FM-12+000399999V0200901N000512200019N0020001N1+02521+02151101171ADDGF102991021011008001001001KA1240M+03161MA1999999101121MD1999999+0041REMSYN088AAXX  08004 83498 32595 20901 10252 20215 30112 40117 82100 333 10316 29080 55071 58004;
0156834980999992008040812004-17733-039250FM-12+000399999V0200501N001512200019N0020001N1+02851+02421101441ADDGF104991041021008001001001KA1240N+02281MA1999999101391MD1999999+0151REMSYN076AAXX  08124 83498 32595 40503 10285 20242 30139 40144 84200 333 20228 58015;
0137834980999992008040818004-17733-039250FM-12+000399999V0203601N004112200019N0020001N1+03051+02431101131ADDGF102991021011008001001001MA1999999101081MD1999999+0081REMSYN070AAXX  08184 83498 32595 23608 10305 20243 30108 40113 82100 333 58008;
0178834980999992008040900004-17733-039250FM-12+000399999V0200501N001012200019N0020001N1+02531+02361101371ADDGA1001+999999999GF100991001001999999001001KA1240M+03171MA1999999101321MD1999999+0201REMSYN082AAXX  09004 83498 32995 00502 10253 20236 30132 40137 333 10317 29083 55099 58020;
0156834980999992008040912004-17733-039250FM-12+000399999V0203601N001010450019N0020001N1+02781+02401101401ADDGF106991041021008001031001KA1240N+02181MA1999999101351MD1999999-0041REMSYN076AAXX  09124 83498 32595 63602 10278 20240 30135 40140 84230 333 20218 59004;
0137834980999992008040918004-17733-039250FM-12+000399999V0200501N002612200019N0020001N1+03041+02411101031ADDGF104991021011008001031001MA1999999100981MD1999999-0101REMSYN070AAXX  09184 83498 32595 40505 10304 20241 30098 40103 82130 333 59010;
0178834980999992008041000004-17733-039250FM-12+000399999V0209999C000012200019N0020001N1+02521+02151101351ADDGA1001+999999999GF100991001001999999001001KA1240M+03151MA1999999101301MD1999999-0021REMSYN082AAXX  10004 83498 32995 00000 10252 20215 30130 40135 333 10315 29077 55085 59002;
0156834980999992008041012004-17733-039250FM-12+000399999V0209999C000010450019N0020001N1+02781+02421101241ADDGF106991041021008001041001KA1240N+02221MA1999999101191MD1999999-0161REMSYN076AAXX  10124 83498 32595 60000 10278 20242 30119 40124 84240 333 20222 59016;
0137834980999992008041018004-17733-039250FM-12+000399999V0200901N003112200019N0020001N1+02951+02431100941ADDGF102991021011008001001001MA1999999100891MD1999999-0141REMSYN070AAXX  10184 83498 32595 20906 10295 20243 30089 40094 82100 333 59014;
0178834980999992008041100004-17733-039250FM-12+000399999V0209999C000012200019N0020001N1+02441+02301100991ADDGA1001+999999999GF100991001001999999001001KA1240M+03051MA1999999100941MD1999999-0361REMSYN082AAXX  11004 83498 32995 00000 10244 20230 30094 40099 333 10305 29085 55101 59036;
0156834980999992008041112004-17733-039250FM-12+000399999V0202701N003612200019N0020001N1+02741+02361101031ADDGF106991041021008001001011KA1240N+02161MA1999999100981MD1999999+0041REMSYN076AAXX  11124 83498 32595 62707 10274 20236 30098 40103 84201 333 20216 58004;
0137834980999992008041118004-17733-039250FM-12+000399999V0203601N004110450019N0020001N1+03001+02371100991ADDGF105991021011008001031001MA1999999100941MD1999999+0101REMSYN070AAXX  11184 83498 32595 53608 10300 20237 30094 40099 82130 333 58010;
0168834980999992008041200004-17733-039250FM-12+000399999V0209999C000012200019N0020001N1+02541+02171100851ADDGF103991021011008001001011KA1240M+03191MA1999999100801MD1999999-0141REMSYN088AAXX  12004 83498 32595 30000 10254 20217 30080 40085 82101 333 10319 29077 55068 59014;
0156834980999992008041212004-17733-039250FM-12+000399999V0203601N003112200019N0020001N1+02901+02341100921ADDGF104991011011008001001021KA1240N+02351MA1999999100871MD1999999-0111REMSYN076AAXX  12124 83498 32595 43606 10290 20234 30087 40092 81102 333 20235 59011;
0137834980999992008041218004-17733-039250FM-12+000399999V0200501N003612200019N0020001N1+03111+02411100611ADDGF101991011011008001001001MA1999999100561MD1999999-0381REMSYN070AAXX  12184 83498 32595 10507 10311 20241 30056 40061 81100 333 59038;
0178834980999992008041300004-17733-039250FM-12+000399999V0209999C000012200019N0020001N1+02571+02421100871ADDGA1001+999999999GF100991001001999999001001KA1240M+03251MA1999999100821MD1999999+0021REMSYN082AAXX  13004 83498 32995 00000 10257 20242 30082 40087 333 10325 29080 55095 58002;
0156834980999992008041312004-17733-039250FM-12+000399999V0203601N003612200019N0020001N1+02821+02441101091ADDGF104991041021008001001001KA1240N+02201MA1999999101041MD1999999+0171REMSYN076AAXX  13124 83498 32595 43607 10282 20244 30104 40109 84200 333 20220 58017;
0156834980999992008041318004-17733-039250FM-12+000399999V0200501N004112200019N0020001N1+03101+02411100801ADDGF103991999011008001001001MA1999999100751MD1999999+0191REMSYN070AAXX  13184 83498 32595 30508 10310 20241 30075 40080 82100 333 58019;EQDQ01+000022SCOTLC
0168834980999992008041400004-17733-039250FM-12+000399999V0200501N001512200019N0020001N1+02541+02171100991ADDGF101991011011008001001001KA1240M+03171MA1999999100941MD1999999+0121REMSYN088AAXX  14004 83498 32595 10503 10254 20217 30094 40099 81100 333 10317 29077 55100 58012;
0156834980999992008041412004-17733-039250FM-12+000399999V0203601N002612200019N0020001N1+02951+02431101121ADDGF104991021011008001001011KA1240N+02201MA1999999101071MD1999999+0031REMSYN076AAXX  14124 83498 32595 43605 10295 20243 30107 40112 82101 333 20220 58003;
0137834980999992008041418004-17733-039250FM-12+000399999V0200501N003612200019N0020001N1+03061+02431100701ADDGF103991011011008001001011MA1999999100651MD1999999-0101REMSYN070AAXX  14184 83498 32595 30507 10306 20243 30065 40070 81101 333 59010;
0187834980999992008041500004-17733-039250FM-12+000399999V0200501N001512200019N0020001N1+02611+02441100941ADDGF102991001001999999001011KA1240M+03201MA1999999100891MD1999999-0051REMSYN088AAXX  15004 83498 32595 20503 10261 20244 30089 40094 80001 333 10320 29081 55088 59005;EQDQ01+008002SCOLCB
0156834980999992008041512004-17733-039250FM-12+000399999V0203601N003110450019N0020001N1+02801+02421101161ADDGF108991041021008001031011KA1240N+02301MA1999999101111MD1999999+0041REMSYN076AAXX  15124 83498 32595 83606 10280 20242 30111 40116 84231 333 20230 58004;
0137834980999992008041518004-17733-039250FM-12+000399999V0200501N004110450019N0020001N1+03081+02401100791ADDGF105991021011008001031001MA1999999100741MD1999999+0091REMSYN070AAXX  15184 83498 32595 50508 10308 20240 30074 40079 82130 333 58009;
0168834980999992008041600004-17733-039250FM-12+000399999V0200901N001512200019N0020001N1+02621+02251101191ADDGF103991031011008001001001KA1240M+03251MA1999999101141MD1999999+0251REMSYN088AAXX  16004 83498 32595 30903 10262 20225 30114 40119 83100 333 10325 29077 55017 58025;
0156834980999992008041612004-17733-039250FM-12+000399999V0201801N000510450019N0020001N1+02781+02401101501ADDGF106991041061008001011001KA1240N+02261MA1999999101451MD1999999+0341REMSYN076AAXX  16124 83498 32595 61801 10278 20240 30145 40150 84610 333 20226 58034;
0182834980999992008041618004-17733-039250FM-12+000399999V0200901N002612200019N0020001N1+02981+02371101121ADDAA106000891AY161061AY211061GF104991031011008001031001MA1999999101071MD1999999+0331MW1211REMSYN082AAXX  16184 83498 21595 40905 10298 20237 30107 40112 72161 83130 333 58033 69971;
0173834980999992008041712004-17733-039250FM-12+000399999V0209999C000010450019N0020001N1+02631+02411101641ADDAA124000891GF106991041051008001041001KA1240N+02141MA1999999101591MD1999999+0141REMSYN082AAXX  17124 83498 22595 60000 10263 20241 30159 40164 84540 333 20214 58014 69974;
0137834980999992008041718004-17733-039250FM-12+000399999V0200901N002612200019N0020001N1+03011+02321101311ADDGF101991011011008001001001MA1999999101261MD1999999+0191REMSYN070AAXX  17184 83498 32595 10905 10301 20232 30126 40131 81100 333 58019;
0178834980999992008041800004-17733-039250FM-12+000399999V0209999C000012200019N0020001N1+02501+02341101491ADDGA1001+999999999GF100991001001999999001001KA1240M+03251MA1999999101441MD1999999-0071REMSYN082AAXX  18004 83498 32995 00000 10250 20234 30144 40149 333 10325 29084 55087 59007;
0156834980999992008041812004-17733-039250FM-12+000399999V0202301N000512200019N0020001N1+02851+02401101451ADDGF104991031021008001001011KA1240N+02151MA1999999101401MD1999999-0191REMSYN076AAXX  18124 83498 32595 42301 10285 20240 30140 40145 83201 333 20215 59019;
0137834980999992008041818004-17733-039250FM-12+000399999V0200901N003112200019N0020001N1+03031+02391101091ADDGF101991011011008001001001MA1999999101041MD1999999-0221REMSYN070AAXX  18184 83498 32595 10906 10303 20239 30104 40109 81100 333 59022;
0178834980999992008041900004-17733-039250FM-12+000399999V0209999C000012200019N0020001N1+02421+02281101281ADDGA1001+999999999GF100991001001999999001001KA1240M+03111MA1999999101231MD1999999-0211REMSYN082AAXX  19004 83498 32995 00000 10242 20228 30123 40128 333 10311 29080 55091 59021;
0201834980999992008041912004-17733-039250FM-12+000399999V0201801N003610450019N0020001N1+02561+02271101451ADDAA124003091AY161061AY221061GF106991041051008001011001KA1240N+02201MA1999999101401MD1999999+0001MW1211REMSYN088AAXX  19124 83498 21595 61807 10256 20227 30140 40145 72162 84510 333 20220 58000 60034;
0182834980999992008041918004-17733-039250FM-12+000399999V0201801N004610450019N0020001N1+02841+02291101151ADDAA106000891AY161061AY261061GF105991031011008001031001MA1999999101101MD1999999+0061MW1211REMSYN082AAXX  19184 83498 21595 51809 10284 20229 30110 40115 72166 83130 333 58006 69981;
0137834980999992008042018004-17733-039250FM-12+000399999V0200501N003112200019N0020001N1+02971+02231101131ADDGF101991011011008001001001MA1999999101081MD1999999-0021REMSYN070AAXX  20184 83498 32595 10506 10297 20223 30108 40113 81100 333 59002;
0178834980999992008042100004-17733-039250FM-12+000399999V0209999C000012200019N0020001N1+02301+02131101381ADDGA1001+999999999GF100991001001999999001001KA1240M+03091MA1999999101331MD1999999+0021REMSYN082AAXX  21004 83498 32995 00000 10230 20213 30133 40138 333 10309 29080 55083 58002;
0156834980999992008042112004-17733-039250FM-12+000399999V0203201N001510450019N0020001N1+02641+02311101511ADDGF106991031011008001031001KA1240N+02071MA1999999101461MD1999999+0131REMSYN076AAXX  21124 83498 32595 63203 10264 20231 30146 40151 83130 333 20207 58013;
0137834980999992008042118004-17733-039250FM-12+000399999V0200501N004110450019N0020001N1+02901+02301101291ADDGF105991021011008001031001MA1999999101241MD1999999+0161REMSYN070AAXX  21184 83498 32595 50508 10290 20230 30124 40129 82130 333 58016;
0178834980999992008042200004-17733-039250FM-12+000399999V0209999C000012200019N0020001N1+02341+02001101401ADDGA1001+999999999GF100991001001999999001001KA1240M+03161MA1999999101351MD1999999+0021REMSYN082AAXX  22004 83498 32995 00000 10234 20200 30135 40140 333 10316 29078 55084 58002;
0156834980999992008042212004-17733-039250FM-12+000399999V0201801N001012200019N0020001N1+02811+02291101331ADDGF104991031021008001001011KA1240N+02201MA1999999101281MD1999999-0161REMSYN076AAXX  22124 83498 32595 41802 10281 20229 30128 40133 83201 333 20220 59016;
0137834980999992008042218004-17733-039250FM-12+000399999V0200501N002612200019N0020001N1+03011+02221101061ADDGF103991021011008001001011MA1999999101011MD1999999-0231REMSYN070AAXX  22184 83498 32595 30505 10301 20222 30101 40106 82101 333 59023;
0168834980999992008042300004-17733-039250FM-12+000399999V0209999C000012200019N0020001N1+02531+02251101211ADDGF102991011011008001001011KA1240M+03131MA1999999101161MD1999999-0191REMSYN088AAXX  23004 83498 32595 20000 10253 20225 30116 40121 81101 333 10313 29077 55094 59019;
0156834980999992008042312004-17733-039250FM-12+000399999V0203201N000512200019N0020001N1+02781+02301101281ADDGF104991021011008001001011KA1240N+02021MA1999999101231MD1999999-0051REMSYN076AAXX  23124 83498 32595 43201 10278 20230 30123 40128 82101 333 20202 59005;
0137834980999992008042318004-17733-039250FM-12+000399999V0200501N002612200019N0020001N1+03001+02241101061ADDGF103991031011008001031001MA1999999101011MD1999999+0001REMSYN070AAXX  23184 83498 32595 30505 10300 20224 30101 40106 83130 333 58000;
0168834980999992008042400004-17733-039250FM-12+000399999V0209999C000012200019N0020001N1+02511+02381100961ADDGF102991021001008001031001KA1240M+03231MA1999999100911MD1999999-0251REMSYN088AAXX  24004 83498 32595 20000 10251 20238 30091 40096 82030 333 10323 29081 55085 59025;
0156834980999992008042412004-17733-039250FM-12+000399999V0202301N000512200019N0020001N1+02811+02401101081ADDGF103991011011008001041001KA1240N+02141MA1999999101031MD1999999-0201REMSYN076AAXX  24124 83498 32595 32301 10281 20240 30103 40108 81140 333 20214 59020;
0137834980999992008042418004-17733-039250FM-12+000399999V0200501N002610450019N0020001N1+02811+02421100731ADDGF107991041051008001041001MA1999999100681MD1999999-0331REMSYN070AAXX  24184 83498 32595 70505 10281 20242 30068 40073 84540 333 59033;
0168834980999992008042500004-17733-039250FM-12+000399999V0200501N000510075019N0020001N1+02651+02311100951ADDGF108991051051008001021999KA1240M+03071MA1999999100901MD1999999-0011REMSYN088AAXX  25004 83498 32595 80501 10265 20231 30090 40095 8552/ 333 10307 29086 55046 59001;
0201834980999992008042512004-17733-039250FM-12+000399999V0203601N004110450019N0020001N1+02941+02381101061ADDAA124003091AY161061AY221061GF106991021011008001031011KA1240N+02341MA1999999101011MD1999999-0021MW1211REMSYN088AAXX  25124 83498 21595 63608 10294 20238 30101 40106 72162 82131 333 20234 59002 60034;
0137834980999992008042518004-17733-039250FM-12+000399999V0203601N004612200019N0020001N1+02981+02441100731ADDGF105991031011008001001011MA1999999100681MD1999999+0001REMSYN070AAXX  25184 83498 32595 53609 10298 20244 30068 40073 83101 333 58000;
0168834980999992008042600004-17733-039250FM-12+000399999V0200501N001512200019N0020001N1+02621+02251100931ADDGF101991011011008001001001KA1240M+03251MA1999999100881MD1999999-0021REMSYN088AAXX  26004 83498 32595 10503 10262 20225 30088 40093 81100 333 10325 29076 55078 59002;
0156834980999992008042612004-17733-039250FM-12+000399999V0203601N003612200019N0020001N1+02911+02391101001ADDGF103991031021008001001001KA1240N+02311MA1999999100951MD1999999-0061REMSYN076AAXX  26124 83498 32595 33607 10291 20239 30095 40100 83200 333 20231 59006;
0137834980999992008042618004-17733-039250FM-12+000399999V0200501N003112200019N0020001N1+02991+02371100741ADDGF101991011011008001001001MA1999999100691MD1999999+0011REMSYN070AAXX  26184 83498 32595 10506 10299 20237 30069 40074 81100 333 58001;
0178834980999992008042700004-17733-039250FM-12+000399999V0200501N001012200019N0020001N1+02591+02331100991ADDGA1001+999999999GF100991001001999999001001KA1240M+03181MA1999999100941MD1999999+0061REMSYN082AAXX  27004 83498 32995 00502 10259 20233 30094 40099 333 10318 29079 55096 58006;
0156834980999992008042712004-17733-039250FM-12+000399999V0203601N004110450019N0020001N1+02921+02431101241ADDGF106991041021008001041001KA1240N+02241MA1999999101191MD1999999+0241REMSYN076AAXX  27124 83498 32595 63608 10292 20243 30119 40124 84240 333 20224 58024;
0137834980999992008042718004-17733-039250FM-12+000399999V0200501N004610450019N0020001N1+03021+02461100941ADDGF105991031011008001041001MA1999999100891MD1999999+0201REMSYN070AAXX  27184 83498 32595 50509 10302 20246 30089 40094 83140 333 58020;
0168834980999992008042800004-17733-039250FM-12+000399999V0200501N002110450019N0020001N1+02621+02181101071ADDGF106991021021008001041001KA1240M+03171MA1999999101021MD1999999+0081REMSYN088AAXX  28004 83498 32595 60504 10262 20218 30102 40107 82240 333 10317 29075 55080 58008;
0156834980999992008042812004-17733-039250FM-12+000399999V0203601N003112200019N0020001N1+02941+02451101221ADDGF103991031011008001001001KA1240N+02221MA1999999101171MD1999999-0021REMSYN076AAXX  28124 83498 32595 33606 10294 20245 30117 40122 83100 333 20222 59002;
0137834980999992008042818004-17733-039250FM-12+000399999V0203601N003112200019N0020001N1+03031+02411100891ADDGF102991021011008001001001MA1999999100841MD1999999-0051REMSYN070AAXX  28184 83498 32595 23606 10303 20241 30084 40089 82100 333 59005;
0178834980999992008042900004-17733-039250FM-12+000399999V0203601N002112200019N0020001N1+02631+02331101141ADDGA1001+999999999GF100991001001999999001001KA1240M+03241MA1999999101091MD1999999+0071REMSYN082AAXX  29004 83498 32995 03604 10263 20233 30109 40114 333 10324 29078 55097 58007;
0156834980999992008042912004-17733-039250FM-12+000399999V0203601N004110450019N0020001N1+02781+02361101251ADDGF106991041021008001041001KA1240N+02101MA1999999101201MD1999999+0031REMSYN076AAXX  29124 83498 32595 63608 10278 20236 30120 40125 84240 333 20210 58003;
0137834980999992008042918004-17733-039250FM-12+000399999V0200501N004612200019N0020001N1+03061+02381100881ADDGF104991021011008001031001MA1999999100831MD1999999-0011REMSYN070AAXX  29184 83498 32595 40509 10306 20238 30083 40088 82130 333 59001;
0178834980999992008043000004-17733-039250FM-12+000399999V0209999C000012200019N0020001N1+02461+02091101061ADDGA1001+999999999GF100991001001999999001001KA1240M+03141MA1999999101011MD1999999+0081REMSYN082AAXX  30004 83498 32995 00000 10246 20209 30101 40106 333 10314 29076 55093 58008;
0156834980999992008043012004-17733-039250FM-12+000399999V0203601N002111050019N0020001N1+02831+02361101211ADDGF106991031021008001001021KA1240N+02071MA1999999101161MD1999999-0041REMSYN076AAXX  30124 83498 32595 63604 10283 20236 30116 40121 83202 333 20207 59004;
0137834980999992008043018004-17733-039250FM-12+000399999V0200501N002612200019N0020001N1+03051+02331100781ADDGF101991011011008001001001MA1999999100731MD1999999-0101REMSYN070AAXX  30184 83498 32595 10505 10305 20233 30073 40078 81100 333 59010;
0178834980999992008050100004-17733-039250FM-12+000399999V0200901N000512200019N0020001N1+02551+02381101151ADDGA1001+999999999GF100991001001999999001001KA1240M+03171MA1999999101101MD1999999+0091REMSYN082AAXX  01004 83498 32995 00901 10255 20238 30110 40115 333 10317 29081 55083 58009;
0201834980999992008050112004-17733-039250FM-12+000399999V0201801N002610450019N0020001N1+02441+02111101461ADDAA124007191AY161061AY221061GF108991041071008001021999KA1240N+02191MA1999999101411MD1999999+0251MW1211REMSYN088AAXX  01124 83498 21595 81805 10244 20211 30141 40146 72162 8472/ 333 20219 58025 60074;
0137834980999992008050118004-17733-039250FM-12+000399999V0201401N004610075019N0020001N1+02381+02011101341ADDGF108991051061008001021999MA1999999101291MD1999999+0561REMSYN070AAXX  01184 83498 32595 81409 10238 20201 30129 40134 8562/ 333 58056;
0213834980999992008050200004-17733-039250FM-12+000399999V0201801N005110075019N0020001N1+02501+02131101521ADDAA106001091AY161061AY261061GF108991051071008001021999KA1240M+02631MA1999999101471MD1999999+0371MW1211REMSYN100AAXX  02004 83498 21595 81810 10250 20213 30147 40152 72166 8572/ 333 10263 29080 55000 58037 60011;
0201834980999992008050212004-17733-039250FM-12+000399999V0201801N001510450019N0020001N1+02281+01961101471ADDAA124004191AY161061AY261061GF108991031071008001021999KA1240N+02041MA1999999101421MD1999999+0011MW1621REMSYN088AAXX  02124 83498 21595 81803 10228 20196 30142 40147 76266 8372/ 333 20204 58001 60044;
0182834980999992008050218004-17733-039250FM-12+000399999V0201401N003610450019N0020001N1+02501+02071101241ADDAA106002091AY161061AY261061GF106991031061008001011001MA1999999101191MD1999999+0101MW1211REMSYN082AAXX  02184 83498 21595 61407 10250 20207 30119 40124 72166 83610 333 58010 60021;
0213834980999992008050300004-17733-039250FM-12+000399999V0201801N003110075019N0020001N1+02321+01961101411ADDAA106004191AY161061AY261061GF108991051071008001011999KA1240M+02611MA1999999101361MD1999999-0111MW1621REMSYN100AAXX  03004 83498 21595 81806 10232 20196 30136 40141 76266 8571/ 333 10261 29081 55017 59011 60041;
0173834980999992008050312004-17733-039250FM-12+000399999V0202301N001012200019N0020001N1+02611+02311101371ADDAA124005191GF101991011011008001001001KA1240N+02071MA1999999101321MD1999999-0101REMSYN082AAXX  03124 83498 22595 12302 10261 20231 30132 40137 81100 333 20207 59010 60054;
0137834980999992008050318004-17733-039250FM-12+000399999V0200901N003112200019N0020001N1+02791+02361100921ADDGF101991011011008001001001MA1999999100871MD1999999-0321REMSYN070AAXX  03184 83498 32595 10906 10279 20236 30087 40092 81100 333 59032;
0178834980999992008050400004-17733-039250FM-12+000399999V0209999C000012200019N0020001N1+02391+02221101221ADDGA1001+999999999GF100991001001999999001001KA1240M+02891MA1999999101171MD1999999-0191REMSYN082AAXX  04004 83498 32995 00000 10239 20222 30117 40122 333 10289 29086 55088 59019;
0156834980999992008050412004-17733-039250FM-12+000399999V0203201N002112200019N0020001N1+02891+02331101381ADDGF102991021011008001001001KA1240N+02091MA1999999101331MD1999999+0011REMSYN076AAXX  04124 83498 32595 23204 10289 20233 30133 40138 82100 333 20209 58001;
0137834980999992008050418004-17733-039250FM-12+000399999V0200501N002612200019N0020001N1+03031+02341101101ADDGF101991011011008001001001MA1999999101051MD1999999+0181REMSYN070AAXX  04184 83498 32595 10505 10303 20234 30105 40110 81100 333 58018;
0156834980999992008050512004-17733-039250FM-12+000399999V0202701N001512200019N0020001N1+02721+02281101431ADDGF103991031011008001001001KA1240N+02151MA1999999101381MD1999999+0051REMSYN076AAXX  05124 83498 32595 32703 10272 20228 30138 40143 83100 333 20215 58005;
0137834980999992008050518004-17733-039250FM-12+000399999V0203601N003110450019N0020001N1+02981+02281101081ADDGF105991021011008001031001MA1999999101031MD1999999+0021REMSYN070AAXX  05184 83498 32595 53606 10298 20228 30103 40108 82130 333 58002;
0178834980999992008050600004-17733-039250FM-12+000399999V0209999C000012200019N0020001N1+02461+02031101101ADDGA1001+999999999GF100991001001999999001001KA1240M+03151MA1999999101051MD1999999-0241REMSYN082AAXX  06004 83498 32995 00000 10246 20203 30105 40110 333 10315 29073 55089 59024;
0156834980999992008050612004-17733-039250FM-12+000399999V0203601N003112200019N0020001N1+02901+02321101021ADDGF102991011011008001001011KA1240N+02221MA1999999100971MD1999999-0411REMSYN076AAXX  06124 83498 32595 23606 10290 20232 30097 40102 81101 333 20222 59041;
0137834980999992008050618004-17733-039250FM-12+000399999V0200501N001512200019N0020001N1+03171+02421100681ADDGF102991021011008001001001MA1999999100631MD1999999-0401REMSYN070AAXX  06184 83498 32595 20503 10317 20242 30063 40068 82100 333 59040;
0213834980999992008050700004-17733-039250FM-12+000399999V0201801N004610075019N0020001N1+02651+02331101081ADDAA106000591AY121061AY211061GF108991051051008001021999KA1240M+03451MA1999999101031MD1999999-0021MW1031REMSYN100AAXX  07004 83498 21595 81809 10265 20233 30103 40108 70321 8552/ 333 10345 29076 55080 59002 69951;
0201834980999992008050712004-17733-039250FM-12+000399999V0200901N001510450019N0020001N1+02701+02131101431ADDAA124002091AY161061AY261061GF107991041051008001011001KA1240N+02301MA1999999101381MD1999999-0411MW1211REMSYN088AAXX  07124 83498 21595 70903 10270 20213 30138 40143 72166 84510 333 20230 59041 60024;
0137834980999992008050718004-17733-039250FM-12+000399999V0201401N003610450019N0020001N1+03161+02341101101ADDGF105991031051008001031001MA1999999101051MD1999999+0421REMSYN070AAXX  07184 83498 32595 51407 10316 20234 30105 40110 83530 333 58042;
0168834980999992008050800004-17733-039250FM-12+000399999V0200901N001512200019N0020001N1+02541+02041101271ADDGF104991041021008001001001KA1240M+03191MA1999999101221MD1999999+0191REMSYN088AAXX  08004 83498 32595 40903 10254 20204 30122 40127 84200 333 10319 29070 55013 58019;
0156834980999992008050812004-17733-039250FM-12+000399999V0201801N005110450019N0020001N1+02611+02141101471ADDGF105991041051008001041001KA1240N+02021MA1999999101421MD1999999+0041REMSYN076AAXX  08124 83498 32595 51810 10261 20214 30142 40147 84540 333 20202 58004;
0137834980999992008050818004-17733-039250FM-12+000399999V0201401N003112200019N0020001N1+02601+02141101161ADDGF102991021011008001001001MA1999999101111MD1999999+0061REMSYN070AAXX  08184 83498 32595 21406 10260 20214 30111 40116 82100 333 58006;
0178834980999992008050900004-17733-039250FM-12+000399999V0201401N001512200019N0020001N1+02441+01921101291ADDGA1001+999999999GF100991001001999999001001KA1240M+02711MA1999999101241MD1999999+0021REMSYN082AAXX  09004 83498 32995 01403 10244 20192 30124 40129 333 10271 29076 55046 58002;
0137834980999992008050918004-17733-039250FM-12+000399999V0201401N002612200019N0020001N1+02561+02151101081ADDGF102991021011008001001001MA1999999101031MD1999999-0081REMSYN070AAXX  09184 83498 32595 21405 10256 20215 30103 40108 82100 333 59008;
0192834980999992008051012004-17733-039250FM-12+000399999V0202301N003110450019N0020001N1+02201+02081101541ADDAA124000091GF108991031071008001021999KA1240N+01981MA1999999101491MD1999999+0131REMSYN082AAXX  10124 83498 22595 82306 10220 20208 30149 40154 8372/ 333 20198 58013 69924;EQDQ01  00002PRCP24
0137834980999992008051018004-17733-039250FM-12+000399999V0201801N004610450019N0020001N1+02551+02091101481ADDGF105991031021008001041001MA1999999101431MD1999999+0401REMSYN070AAXX  10184 83498 32595 51809 10255 20209 30143 40148 83240 333 58040;
0168834980999992008051100004-17733-039250FM-12+000399999V0201801N003112200019N0020001N1+02461+02051101701ADDGF103991031011008001001001KA1240M+02701MA1999999101651MD1999999+0321REMSYN088AAXX  11004 83498 32595 31806 10246 20205 30165 40170 83100 333 10270 29081 55028 58032;
0156834980999992008051112004-17733-039250FM-12+000399999V0201801N003612200019N0020001N1+02281+01921101841ADDGF104991021011008001041001KA1240N+01841MA1999999101791MD1999999+0301REMSYN076AAXX  11124 83498 32595 41807 10228 20192 30179 40184 82140 333 20184 58030;
0137834980999992008051118004-17733-039250FM-12+000399999V0201801N004110450019N0020001N1+02561+02151101681ADDGF105991021011008001031001MA1999999101631MD1999999+0201REMSYN070AAXX  11184 83498 32595 51808 10256 20215 30163 40168 82130 333 58020;
0168834980999992008051200004-17733-039250FM-12+000399999V0201801N004610450019N0020001N1+02401+01891101811ADDGF106991031051008001011001KA1240M+02651MA1999999101761MD1999999+0111REMSYN088AAXX  12004 83498 32595 61809 10240 20189 30176 40181 83510 333 10265 29076 55043 58011;
0201834980999992008051212004-17733-039250FM-12+000399999V0201801N001510450019N0020001N1+02261+01901101971ADDAA124001091AY161061AY261061GF107991031071008001011001KA1240N+02021MA1999999101921MD1999999+0131MW1211REMSYN088AAXX  12124 83498 21595 71803 10226 20190 30192 40197 72166 83710 333 20202 58013 69994;
0182834980999992008051218004-17733-039250FM-12+000399999V0201401N003112200019N0020001N1+02561+01901101761ADDAA106000021AY121061AY211061GF103991021021008001041001MA1999999101711MD1999999+0081MW1031REMSYN082AAXX  12184 83498 21595 31406 10256 20190 30171 40176 70321 82240 333 58008 69921;
0168834980999992008051300004-17733-039250FM-12+000399999V0201401N003112200019N0020001N1+02421+01721101931ADDGF103991031031008001001001KA1240M+02591MA1999999101881MD1999999+0121REMSYN088AAXX  13004 83498 32595 31406 10242 20172 30188 40193 83300 333 10259 29070 55037 58012;
0201834980999992008051312004-17733-039250FM-12+000399999V0201801N002110450019N0020001N1+02001+01641102001ADDAA124000591AY161061AY221061GF108991031071008001021999KA1240N+01591MA1999999101951MD1999999+0031MW1611REMSYN088AAXX  13124 83498 21595 81804 10200 20164 30195 40200 76162 8372/ 333 20159 58003 69954;
0182834980999992008051318004-17733-039250FM-12+000399999V0201401N003110450019N0020001N1+02261+01901101751ADDAA106003091AY161061AY261061GF108991031061008001011999MA1999999101701MD1999999-0011MW1621REMSYN082AAXX  13184 83498 21595 81406 10226 20190 30170 40175 76266 8361/ 333 59001 60031;
0213834980999992008051400004-17733-039250FM-12+000399999V0201401N000510450019N0020001N1+02061+01701102091ADDAA106025991AY161061AY261061GF108991041071008001021999KA1240M+02611MA1999999102041MD1999999+0161MW1631REMSYN100AAXX  14004 83498 21595 81401 10206 20170 30204 40209 76366 8472/ 333 10261 29080 55019 58016 60261;
0201834980999992008051412004-17733-039250FM-12+000399999V0202301N001010450019N0020001N1+02121+02071101891ADDAA124034091AY161061AY261061GF108991031071008001021999KA1240N+01921MA1999999101841MD1999999-0111MW1611REMSYN088AAXX  14124 83498 21595 82302 10212 20207 30184 40189 76166 8372/ 333 20192 59011 60344;
0182834980999992008051418004-17733-039250FM-12+000399999V0209999C000010450019N0020001N1+02201+02121101591ADDAA106004191AY161061AY261061GF108991031071008001021999MA1999999101541MD1999999-0161MW1211REMSYN082AAXX  14184 83498 21595 80000 10220 20212 30154 40159 72166 8372/ 333 59016 60041;
0213834980999992008051500004-17733-039250FM-12+000399999V0209999C000010075019N0020001N1+02141+02091101791ADDAA106003091AY161061AY261061GF108991051051008001021999KA1240M+02311MA1999999101741MD1999999-0301MW1211REMSYN100AAXX  15004 83498 21595 80000 10214 20209 30174 40179 72166 8552/ 333 10231 29097 55000 59030 60031;
0173834980999992008051512004-17733-039250FM-12+000399999V0202301N001510450019N0020001N1+02241+01921101871ADDAA124007191GF108991041051008001011999KA1240N+01981MA1999999101821MD1999999-0021REMSYN082AAXX  15124 83498 22595 82303 10224 20192 30182 40187 8451/ 333 20198 59002 60074;
0137834980999992008051518004-17733-039250FM-12+000399999V0201801N002610450019N0020001N1+02401+02111101651ADDGF108991031051008001011999MA1999999101601MD1999999+0061REMSYN070AAXX  15184 83498 32595 81805 10240 20211 30160 40165 8351/ 333 58006;
0178834980999992008051600004-17733-039250FM-12+000399999V0209999C000012200019N0020001N1+02261+01941101681ADDGA1001+999999999GF100991001001999999001001KA1240M+02741MA1999999101631MD1999999-0111REMSYN082AAXX  16004 83498 32995 00000 10226 20194 30163 40168 333 10274 29082 55036 59011;
0156834980999992008051612004-17733-039250FM-12+000399999V0202301N000511050019N0020001N1+02421+02251101761ADDGF105991011011008001001021KA1240N+01921MA1999999101711MD1999999-0111REMSYN076AAXX  16124 83498 32595 52301 10242 20225 30171 40176 81102 333 20192 59011;
0137834980999992008051618004-17733-039250FM-12+000399999V0201401N002611050019N0020001N1+02691+02221101421ADDGF105991021011008001001021MA1999999101371MD1999999-0231REMSYN070AAXX  16184 83498 32595 51405 10269 20222 30137 40142 82102 333 59023;
0187834980999992008051700004-17733-039250FM-12+000399999V0200901N001019999999N0020001N1+02421+02171101701ADDGF105991001001999999001021KA1240M+02801MA1999999101651MD1999999+0021REMSYN088AAXX  17004 83498 32595 50902 10242 20217 30165 40170 80002 333 10280 29089 55061 58002;EQDQ01+008002SCOLCB
0156834980999992008051712004-17733-039250FM-12+000399999V0202301N001510450019N0020001N1+02341+02011101951ADDGF106991021011008001021011KA1240N+01901MA1999999101901MD1999999+0191REMSYN076AAXX  17124 83498 32595 62303 10234 20201 30190 40195 82121 333 20190 58019;
0137834980999992008051718004-17733-039250FM-12+000399999V0201401N002610450019N0020001N1+02721+02151101621ADDGF105991021011008001031001MA1999999101571MD1999999+0201REMSYN070AAXX  17184 83498 32595 51405 10272 20215 30157 40162 82130 333 58020;
0168834980999992008051800004-17733-039250FM-12+000399999V0201401N000512200019N0020001N1+02401+01971101871ADDGF103991021011008001001011KA1240M+02751MA1999999101821MD1999999+0171REMSYN088AAXX  18004 83498 32595 31401 10240 20197 30182 40187 82101 333 10275 29077 55035 58017;
0201834980999992008051812004-17733-039250FM-12+000399999V0202301N001510075019N0020001N1+02461+02231101901ADDAA124002091AY121061AY211061GF107991051051008001011001KA1240N+02051MA1999999101851MD1999999-0051MW1031REMSYN088AAXX  18124 83498 21595 72303 10246 20223 30185 40190 70321 85510 333 20205 59005 60024;
0137834980999992008051818004-17733-039250FM-12+000399999V0201401N003110450019N0020001N1+02571+02131101601ADDGF107991021051008001041021MA1999999101551MD1999999-0021REMSYN070AAXX  18184 83498 32595 71406 10257 20213 30155 40160 82542 333 59002;
0168834980999992008051900004-17733-039250FM-12+000399999V0209999C000012200019N0020001N1+02181+02101101711ADDGF101991011031008001001001KA1240M+02711MA1999999101661MD1999999-0161REMSYN088AAXX  19004 83498 32595 10000 10218 20210 30166 40171 81300 333 10271 29089 55028 59016;
0201834980999992008051912004-17733-039250FM-12+000399999V0202301N001510450019N0020001N1+02221+01901101811ADDAA124003091AY161061AY221061GF106991031051008001031001KA1240N+01901MA1999999101761MD1999999-0091MW1211REMSYN088AAXX  19124 83498 21595 62303 10222 20190 30176 40181 72162 83530 333 20190 59009 60034;
0137834980999992008051918004-17733-039250FM-12+000399999V0201401N003110450019N0020001N1+02561+02151101741ADDGF105991041051008001011001MA1999999101691MD1999999-0141REMSYN070AAXX  19184 83498 32595 51406 10256 20215 30169 40174 84510 333 59014;
0168834980999992008052000004-17733-039250FM-12+000399999V0200901N001012200019N0020001N1+02321+01961101601ADDGF102991011011008001001011KA1240M+02761MA1999999101551MD1999999-0111REMSYN088AAXX  20004 83498 32595 20902 10232 20196 30155 40160 81101 333 10276 29080 55059 59011;
0137834980999992008052018004-17733-039250FM-12+000399999V0201801N002612200019N0020001N1+02611+02031101391ADDGF102991021011008001001001MA1999999101341MD1999999-0351REMSYN070AAXX  20184 83498 32595 21805 10261 20203 30134 40139 82100 333 59035;
0178834980999992008052100004-17733-039250FM-12+000399999V0209999C000012200019N0020001N1+02101+02021101561ADDGA1001+999999999GF100991001001999999001001KA1240M+02731MA1999999101511MD1999999-0041REMSYN082AAXX  21004 83498 32995 00000 10210 20202 30151 40156 333 10273 29086 55086 59004;
0168834980999992008052200004-17733-039250FM-12+000399999V0201401N001012200019N0020001N1+02301+01941101461ADDGF101991011011008001001001KA1240M+02771MA1999999101411MD1999999-0101REMSYN088AAXX  22004 83498 32595 11402 10230 20194 30141 40146 81100 333 10277 29080 55073 59010;
0137834980999992008052218004-17733-039250FM-12+000399999V0201401N002112200019N0020001N1+02651+02161101311ADDGF102991011011008001001011MA1999999101261MD1999999-0181REMSYN070AAXX  22184 83498 32595 21404 10265 20216 30126 40131 81101 333 59018;
0178834980999992008052300004-17733-039250FM-12+000399999V0209999C000012200019N0020001N1+02161+02041101461ADDGA1001+999999999GF100991001001999999001001KA1240M+02731MA1999999101411MD1999999+0001REMSYN082AAXX  23004 83498 32995 00000 10216 20204 30141 40146 333 10273 29095 55052 58000;
0156834980999992008052312004-17733-039250FM-12+000399999V0202301N001010450019N0020001N1+02261+01941101601ADDGF108991041051008001011999KA1240N+01801MA1999999101551MD1999999+0051REMSYN076AAXX  23124 83498 32595 82302 10226 20194 30155 40160 8451/ 333 20180 58005;
0137834980999992008052318004-17733-039250FM-12+000399999V0201401N002110450019N0020001N1+02681+02201101401ADDGF105991021011008001031001MA1999999101351MD1999999+0091REMSYN070AAXX  23184 83498 32595 51404 10268 20220 30135 40140 82130 333 58009;
0168834980999992008052400004-17733-039250FM-12+000399999V0200901N000512200019N0020001N1+02081+01761101401ADDGF101991011011008001001001KA1240M+02791MA1999999101351MD1999999-0061REMSYN088AAXX  24004 83498 32595 10901 10208 20176 30135 40140 81100 333 10279 29080 55039 59006;
