0173821980999992001010212004-01710-045400FM-12+004499999V0201401N001510450019N0100001N1+02761+02401101281ADDAA124003091GF107991041021017501061011KA1240N+02451MA1999999100761MD1999999+0021REMSYN082AAXX  02124 82198 22797 71403 10276 20240 30076 40128 84261 333 20245 58002 60034;
0167821980999992001010218004-01710-045400FM-12+004499999V0200501N004612200019N0100001N1+03071+02321100981ADDAA199000091GF105991031021017501001011MA1999999100471MD1999999-0031REMSYN070AAXX  02184 82198 32797 50509 10307 20232 30047 40098 83201 333 59003;EQDQ01  00002PRCP99
0198821980999992001010300004-01710-045400FM-12+004499999V0200501N003110450019N0020001N1+02661+02391101271ADDAA199000091GF108991041021017501061001KA1240M+03171MA1999999100751MD1999999+0051REMSYN088AAXX  03004 82198 32795 80506 10266 20239 30075 40127 84260 333 10317 29080 55030 58005;EQDQ01  00002PRCP99
0167821980999992001010318004-01710-045400FM-12+004499999V0200501N005110450019N0100001N1+02961+02331100951ADDAA199000091GF105991031021017501031011MA1999999100431MD1999999-0041REMSYN070AAXX  03184 82198 32797 50510 10296 20233 30043 40095 83231 333 59004;EQDQ01  00002PRCP99
0198821980999992001010400004-01710-045400FM-12+004499999V0200501N002612200019N0020001N1+02651+02391101161ADDAA199000091GF104991021021017501031011KA1240M+03141MA1999999100641MD1999999-0111REMSYN088AAXX  04004 82198 32795 40505 10265 20239 30064 40116 82231 333 10314 29082 55018 59011;EQDQ01  00002PRCP99
0198821980999992001010500004-01710-045400FM-12+004499999V0200901N001510450019N0020001N1+02531+02361101221ADDAA199000091GF108991031021017501031001KA1240M+03091MA1999999100701MD1999999+0061REMSYN088AAXX  05004 82198 32795 80903 10253 20236 30070 40122 83230 333 10309 29084 55018 58006;EQDQ01  00002PRCP99
0173821980999992001010512004-01710-045400FM-12+004499999V0200901N002610450019N0100001N1+02791+02521101331ADDAA124050091GF105991031021017501061001KA1240N+02121MA1999999100811MD1999999+0051REMSYN082AAXX  05124 82198 22797 50905 10279 20252 30081 40133 83260 333 20212 58005 60504;
0167821980999992001010518004-01710-045400FM-12+004499999V0200501N004610450019N0100001N1+02981+02301101001ADDAA199000091GF108991041021017501011011MA1999999100481MD1999999-0041REMSYN070AAXX  05184 82198 32797 80509 10298 20230 30048 40100 84211 333 59004;EQDQ01  00002PRCP99
0198821980999992001010600004-01710-045400FM-12+004499999V0200501N003110450019N0020001N1+02611+02351101141ADDAA199000091GF108991031011017501011001KA1240M+03151MA1999999100631MD1999999-0071REMSYN088AAXX  06004 82198 32795 80506 10261 20235 30063 40114 83110 333 10315 29081 55036 59007;EQDQ01  00002PRCP99
0186821980999992001010612004-01710-045400FM-12+004499999V0200501N001510450019N0100001N1+02861+02331101231ADDAA199000091GF107991031021017501031011KA1240N+02301MA1999999100721MD1999999-0091REMSYN076AAXX  06124 82198 32797 70503 10286 20233 30072 40123 83231 333 20230 59009;EQDQ01  00002PRCP99
0167821980999992001010618004-01710-045400FM-12+004499999V0200501N004610450019N0100001N1+02931+02301100941ADDAA199000091GF108991031021017501011001MA1999999100421MD1999999-0061REMSYN070AAXX  06184 82198 32797 80509 10293 20230 30042 40094 83210 333 59006;EQDQ01  00002PRCP99
0186821980999992001010712004-01710-045400FM-12+004499999V0200501N005110150019N0100001N1+02801+02381101151ADDAA199000091GF107991071021017501001001KA1240N+02491MA1999999100641MD1999999-0081REMSYN076AAXX  07124 82198 32797 70510 10280 20238 30064 40115 87200 333 20249 59008;EQDQ01  00002PRCP99
0193821980999992001010800004-01710-045400FM-12+004499999V0200501N001510450019N0020001N1+02461+02411101151ADDAA106002091AY161061AY221061GF106991041021017501031001KA1240M+02991MA1999999100631MW1011REMSYN094AAXX  08004 82198 21795 60503 10246 20241 30063 40115 70162 84230 333 10299 29092 55030 60021;
0201821980999992001010812004-01710-045400FM-12+004499999V0200501N004610450019N0100001N1+02761+02281101101ADDAA124011991AY161061AY221061GF108991041021017501061001KA1240N+02331MA1999999100591MD1999999-0051MW1021REMSYN088AAXX  08124 82198 21797 80509 10276 20228 30059 40110 70262 84260 333 20233 59005 60124;
0182821980999992001010818004-01710-045400FM-12+004499999V0200501N006710450019N0100001N1+02641+02181100811ADDAA106000591AY151061AY221061GF108991041091017501041001MA1999999100301MD1999999-0161MW1021REMSYN082AAXX  08184 82198 21797 80513 10264 20218 30030 40081 70252 84940 333 59016 69961;
0173821980999992001010912004-01710-045400FM-12+004499999V0200501N005110150019N0100001N1+02751+02251101181ADDAA124004191GF107991051021017501031001KA1240N+02411MA1999999100671MD1999999+0081REMSYN082AAXX  09124 82198 22797 70510 10275 20225 30067 40118 85230 333 20241 58008 60044;
0198821980999992001011000004-01710-045400FM-12+004499999V0200501N003110150019N0020001N1+02551+02131101051ADDAA199000091GF108991051091017501041001KA1240M+02921MA1999999100541MD1999999+0011REMSYN088AAXX  10004 82198 32795 80506 10255 20213 30054 40105 85940 333 10292 29075 55038 58001;EQDQ01  00002PRCP99
0173821980999992001011012004-01710-045400FM-12+004499999V0200501N004110150019N0100001N1+02831+02251101161ADDAA124002091GF108991051021017501041001KA1240N+02401MA1999999100651MD1999999-0021REMSYN082AAXX  10124 82198 22797 80508 10283 20225 30065 40116 85240 333 20240 59002 60024;
0182821980999992001011018004-01710-045400FM-12+004499999V0200501N004610450019N0100001N1+02751+02341100921ADDAA106003091AY161061AY221061GF108991041031017501041001MA1999999100411MD1999999-0011MW1021REMSYN082AAXX  10184 82198 21797 80509 10275 20234 30041 40092 70262 84340 333 59001 60031;
0198821980999992001011100004-01710-045400FM-12+004499999V0200501N002610450019N0020001N1+02611+02251101151ADDAA199000091GF108991031011017501041001KA1240M+03021MA1999999100641MD1999999+0101REMSYN088AAXX  11004 82198 32795 80505 10261 20225 30064 40115 83140 333 10302 29078 55039 58010;EQDQ01  00002PRCP99
0173821980999992001011112004-01710-045400FM-12+004499999V0200901N003110450019N0100001N1+02821+02331101231ADDAA124003091GF107991041021017501061001KA1240N+02331MA1999999100721MD1999999+0071REMSYN082AAXX  11124 82198 22797 70906 10282 20233 30072 40123 84260 333 20233 58007 60034;
0167821980999992001011218004-01710-045400FM-12+004499999V0200501N003610180019N0100001N1+02781+02321100931ADDAA199000091GF108991051081017501041001MA1999999100421MD1999999-0061REMSYN070AAXX  12184 82198 32797 80507 10278 20232 30042 40093 85840 333 59006;EQDQ01  00002PRCP99
0198821980999992001011300004-01710-045400FM-12+004499999V0200501N003110450019N0020001N1+02531+02171101091ADDAA199000091GF107991031051017501061001KA1240M+03041MA1999999100581MD1999999-0061REMSYN088AAXX  13004 82198 32795 70506 10253 20217 30058 40109 83560 333 10304 29080 55008 59006;EQDQ01  00002PRCP99
0201821980999992001011312004-01710-045400FM-12+004499999V0201401N003110150019N0100001N1+02311+02071101311ADDAA124003091AY161061AY221061GF108991081051017501001001KA1240N+02231MA1999999100791MD1999999+0071MW1021REMSYN088AAXX  13124 82198 21797 81406 10231 20207 30079 40131 70262 88500 333 20223 58007 60034;
0182821980999992001011318004-01710-045400FM-12+004499999V0200901N001510150019N0100001N1+02971+02351100941ADDAA106000891AY151061AY221061GF107991051021017501061001MA1999999100431MD1999999+0011MW1021REMSYN082AAXX  13184 82198 21797 70903 10297 20235 30043 40094 70252 85260 333 58001 69981;
0213821980999992001011400004-01710-045400FM-12+004499999V0200501N003610450019N0020001N1+02531+02211101131ADDAA106000191AY151061AY221061GF106991031011017501041001KA1240M+03061MA1999999100621MD1999999+0041MW1011REMSYN100AAXX  14004 82198 21795 60507 10253 20221 30062 40113 70152 83140 333 10306 29080 55037 58004 69921;
0201821980999992001011412004-01710-045400FM-12+004499999V0201401N002610450019N0100001N1+02361+02051101281ADDAA124007991AY161061AY221061GF108991031051017501061001KA1240N+02291MA1999999100771MD1999999-0021MW1021REMSYN088AAXX  14124 82198 21797 81405 10236 20205 30077 40128 70262 83560 333 20229 59002 60084;
0182821980999992001011418004-01710-045400FM-12+004499999V0200501N003610450019N0100001N1+02831+02331100941ADDAA106000191AY151061AY221061GF108991041021017501061001MA1999999100431MD1999999+0001MW1021REMSYN082AAXX  14184 82198 21797 80507 10283 20233 30043 40094 70252 84260 333 58000 69921;
0198821980999992001011500004-01710-045400FM-12+004499999V0200501N003112200019N0020001N1+02571+02211101041ADDAA199000091GF103991031001017501061001KA1240M+02931MA1999999100531MD1999999-0091REMSYN088AAXX  15004 82198 32795 30506 10257 20221 30053 40104 83060 333 10293 29080 55022 59009;EQDQ01  00002PRCP99
0182821980999992001011518004-01710-045400FM-12+004499999V0200501N002610450019N0100001N1+02631+02371101011ADDAA106003091AY161061AY221061GF108991041051017501011001MA1999999100491MD1999999+0061MW1021REMSYN082AAXX  15184 82198 21797 80505 10263 20237 30049 40101 70262 84510 333 58006 60031;
0198821980999992001011600004-01710-045400FM-12+004499999V0200501N001510150019N0020001N1+02431+02331101181ADDAA199000091GF106991061021017501001001KA1240M+02731MA1999999100661MD1999999+0131REMSYN088AAXX  16004 82198 32795 60503 10243 20233 30066 40118 86200 333 10273 29089 55001 58013;EQDQ01  00002PRCP99
0173821980999992001011612004-01710-045400FM-12+004499999V0200501N003610450019N0100001N1+02691+02331101221ADDAA124003091GF108991031021017501011011KA1240N+02341MA1999999100701MD1999999-0051REMSYN082AAXX  16124 82198 22797 80507 10269 20233 30070 40122 83211 333 20234 59005 60034;
0182821980999992001011618004-01710-045400FM-12+004499999V0200501N005711050019N0100001N1+02881+02461100901ADDAA106002091AY161061AY221061GF105991021021017501011011MA1999999100381MD1999999-0111MW1011REMSYN082AAXX  16184 82198 21797 50511 10288 20246 30038 40090 70162 82211 333 59011 60021;
0198821980999992001011700004-01710-045400FM-12+004499999V0200501N002612200019N0020001N1+02561+02361101121ADDAA199000091GF102991021011017501001001KA1240M+02961MA1999999100601MD1999999-0061REMSYN088AAXX  17004 82198 32795 20505 10256 20236 30060 40112 82100 333 10296 29085 55020 59006;EQDQ01  00002PRCP99
0173821980999992001011712004-01710-045400FM-12+004499999V0200501N002612200019N0020001N1+02561+02361101121ADDAA124002091GF102991021011017501011001KA1240N+02381MA1999999100601MD1999999-0051REMSYN082AAXX  17124 82198 22795 20505 10256 20236 30060 40112 82110 333 20238 59005 60024;
0167821980999992001011718004-01710-045400FM-12+004499999V0200501N005110450019N0100001N1+03011+02171100941ADDAA199000091GF106991031021017501011011MA1999999100421MD1999999+0041REMSYN070AAXX  17184 82198 32797 60510 10301 20217 30042 40094 83211 333 58004;EQDQ01  00002PRCP99
0198821980999992001011800004-01710-045400FM-12+004499999V0200501N002612200019N0020001N1+02671+02171101171ADDAA199000091GF103991031021017501001001KA1240M+03091MA1999999100651MD1999999+0051REMSYN088AAXX  18004 82198 32795 30505 10267 20217 30065 40117 83200 333 10309 29075 55064 58005;EQDQ01  00002PRCP99
0186821980999992001011812004-01710-045400FM-12+004499999V0200901N003612200019N0100001N1+02851+02341101181ADDAA199000091GF105991031021017501001041KA1240N+02411MA1999999100671MD1999999+0021REMSYN076AAXX  18124 82198 32797 50907 10285 20234 30067 40118 83204 333 20241 58002;EQDQ01  00002PRCP99
0167821980999992001011818004-01710-045400FM-12+004499999V0200501N006210450019N0100001N1+03041+02471100991ADDAA199000091GF105991031021017501011041MA1999999100471MD1999999+0051REMSYN070AAXX  18184 82198 32797 50512 10304 20247 30047 40099 83214 333 58005;EQDQ01  00002PRCP99
0208821980999992001011900004-01710-045400FM-12+004499999V0200501N002612200019N0020001N1+02621+02351101181ADDAA199000091GA1001+999999999GF100991001001999999001001KA1240M+03131MA1999999100661MD1999999+0011REMSYN082AAXX  19004 82198 32995 00505 10262 20235 30066 40118 333 10313 29078 55092 58001;EQDQ01  00002PRCP99
0186821980999992001011912004-01710-045400FM-12+004499999V0200501N004112200019N0100001N1+02831+02221101351ADDAA199000091GF105991031021017501001011KA1240N+02431MA1999999100841MD1999999+0171REMSYN076AAXX  19124 82198 32797 50508 10283 20222 30084 40135 83201 333 20243 58017;EQDQ01  00002PRCP99
0167821980999992001011918004-01710-045400FM-12+004499999V0200501N005710150019N0100001N1+02941+02431101131ADDAA199000091GF105991051021017501001001MA1999999100611MD1999999+0141REMSYN070AAXX  19184 82198 32797 50511 10294 20243 30061 40113 85200 333 58014;EQDQ01  00002PRCP99
0198821980999992001012000004-01710-045400FM-12+004499999V0200501N003612200019N0020001N1+02621+02411101281ADDAA199000091GF104991041021017501001001KA1240M+03061MA1999999100761MD1999999+0101REMSYN088AAXX  20004 82198 32795 40507 10262 20241 30076 40128 84200 333 10306 29080 55099 58010;EQDQ01  00002PRCP99
0182821980999992001012018004-01710-045400FM-12+004499999V0201401N003110150019N0100001N1+02381+01371101231ADDAA106047091AY161061AY221061GF108991061071017501021001MA1999999100711MD1999999+0101MW1131REMSYN082AAXX  20184 82198 21797 81406 10238 20137 30071 40123 71362 86720 333 58010 60471;
0213821980999992001012100004-01710-045400FM-12+004499999V0203601N002110150019N0020001N1+02371+02351101351ADDAA106021191AY161061AY221061GF108991061021017501061001KA1240M+02901MA1999999100851MD1999999+0071MW1021REMSYN100AAXX  21004 82198 21795 83604 10237 20235 30085 40135 70262 86260 333 10290 29093 55028 58007 60211;
0182821980999992001012118004-01710-045400FM-12+004499999V0200501N004610150019N0100001N1+03001+02321101081ADDAA106000191AY151061AY221061GF106991051021017501041041MA1999999100561MD1999999-0151MW1021REMSYN082AAXX  21184 82198 21797 60509 10300 20232 30056 40108 70252 85244 333 59015 69911;
0201821980999992001012212004-01710-045400FM-12+004499999V0200501N001510150019N0100001N1+02691+02261101361ADDAA124010991AY161061AY221061GF106991061021017501001001KA1240N+02261MA1999999100851MD1999999-0031MW1031REMSYN088AAXX  22124 82198 21797 60503 10269 20226 30085 40136 70362 86200 333 20226 59003 60114;
0167821980999992001012218004-01710-045400FM-12+004499999V0200501N006711050019N0100001N1+02811+02351101051ADDAA199000091GF106991041021017501001021MA1999999100541MD1999999-0021REMSYN070AAXX  22184 82198 32797 60513 10281 20235 30054 40105 84202 333 59002;EQDQ01  00002PRCP99
0198821980999992001012300004-01710-045400FM-12+004499999V0200501N002612200019N0020001N1+02581+02191101251ADDAA199000091GF103991031001017501061001KA1240M+03091MA1999999100741MD1999999-0101REMSYN088AAXX  23004 82198 32795 30505 10258 20219 30074 40125 83060 333 10309 29078 55074 59010;EQDQ01  00002PRCP99
0186821980999992001012312004-01710-045400FM-12+004499999V0200501N002610150019N0100001N1+02811+02381101321ADDAA199000091GF106991061021017501001001KA1240N+02411MA1999999100811MD1999999-0041REMSYN076AAXX  23124 82198 32797 60505 10281 20238 30081 40132 86200 333 20241 59004;EQDQ01  00002PRCP99
0167821980999992001012318004-01710-045400FM-12+004499999V0200501N006710450019N0100001N1+02781+02381101031ADDAA199000091GF108991041021017501041001MA1999999100521MD1999999-0021REMSYN070AAXX  23184 82198 32797 80513 10278 20238 30052 40103 84240 333 59002;EQDQ01  00002PRCP99
0213821980999992001012400004-01710-045400FM-12+004499999V0209999C000010450019N0020001N1+02451+02151101261ADDAA106006191AY161061AY221061GF106991031021017501041001KA1240M+03031MA1999999100751MD1999999+0011MW1011REMSYN100AAXX  24004 82198 21795 60000 10245 20215 30075 40126 70162 83240 333 10303 29081 55049 58001 60061;
0173821980999992001012412004-01710-045400FM-12+004499999V0201401N001012200019N0100001N1+02581+02371101401ADDAA124006191GF104991021011017501061001KA1240N+02231MA1999999100891MD1999999+0081REMSYN082AAXX  24124 82198 22797 41402 10258 20237 30089 40140 82160 333 20223 58008 60064;
0182821980999992001012418004-01710-045400FM-12+004499999V0200501N007210150019N0100001N1+02441+02111101091ADDAA106069191AY161061AY291061GF108991051051017501021001MA1999999100581MD1999999+0061MW1031REMSYN082AAXX  24184 82198 21797 80514 10244 20211 30058 40109 70369 85520 333 58006 60691;
0213821980999992001012500004-01710-045400FM-12+004499999V0200501N001510450019N0020001N1+02471+02291101291ADDAA106003091AY161061AY221061GF106991031021017501041001KA1240M+03001MA1999999100781MD1999999+0031MW1011REMSYN100AAXX  25004 82198 21795 60503 10247 20229 30078 40129 70162 83240 333 10300 29087 55041 58003 60031;
0173821980999992001012512004-01710-045400FM-12+004499999V0200901N000510450019N0100001N1+02541+02401101391ADDAA124071191GF108991041021017501041001KA1240N+02251MA1999999100881MD1999999-0011REMSYN082AAXX  25124 82198 22797 80901 10254 20240 30088 40139 84240 333 20225 59001 60714;
0182821980999992001012518004-01710-045400FM-12+004499999V0200501N005110450019N0100001N1+02871+02391101041ADDAA106003091AY151061AY221061GF106991041021017501061001MA1999999100531MD1999999-0051MW1021REMSYN082AAXX  25184 82198 21797 60510 10287 20239 30053 40104 70252 84260 333 59005 60031;
0198821980999992001012600004-01710-045400FM-12+004499999V0200501N002612200019N0020001N1+02591+02351101271ADDAA199000091GF103991031001017501061001KA1240M+03061MA1999999100761MD1999999-0021REMSYN088AAXX  26004 82198 32795 30505 10259 20235 30076 40127 83060 333 10306 29085 55057 59002;EQDQ01  00002PRCP99
0173821980999992001012612004-01710-045400FM-12+004499999V0200501N003112200019N0100001N1+02811+02381101311ADDAA124003091GF105991041021017501001011KA1240N+02431MA1999999100801MD1999999-0081REMSYN082AAXX  26124 82198 22797 50506 10281 20238 30080 40131 84201 333 20243 59008 60034;
0182821980999992001012618004-01710-045400FM-12+004499999V0200501N006710450019N0100001N1+02691+02461100981ADDAA106004191AY161061AY221061GF107991041021017501061001MA1999999100471MD1999999-0061MW1031REMSYN082AAXX  26184 82198 21797 70513 10269 20246 30047 40098 70362 84260 333 59006 60041;
0213821980999992001012700004-01710-045400FM-12+004499999V0200501N003612200019N0020001N1+02361+02191101191ADDAA106007991AY161061AY251061GF104991041001017501061001KA1240M+02941MA1999999100681MD1999999-0081MW1011REMSYN100AAXX  27004 82198 21795 40507 10236 20219 30068 40119 70165 84060 333 10294 29086 55060 59008 60081;
0173821980999992001012712004-01710-045400FM-12+004499999V0200501N004612200019N0100001N1+02791+02341101271ADDAA124011991GF104991041021017501001001KA1240N+02321MA1999999100761MD1999999-0041REMSYN082AAXX  27124 82198 22797 40509 10279 20234 30076 40127 84200 333 20232 59004 60124;
0182821980999992001012718004-01710-045400FM-12+004499999V0200501N005110450019N0100001N1+02791+02361101031ADDAA106003091AY161061AY221061GF105991041021017501061001MA1999999100521MD1999999+0051MW1031REMSYN082AAXX  27184 82198 21797 50510 10279 20236 30052 40103 70362 84260 333 58005 60031;
0198821980999992001012800004-01710-045400FM-12+004499999V0200501N003612200019N0020001N1+02631+02271101161ADDAA199000091GF102991021001017501061001KA1240M+03051MA1999999100651MD1999999-0031REMSYN088AAXX  28004 82198 32795 20507 10263 20227 30065 40116 82060 333 10305 29079 55073 59003;EQDQ01  00002PRCP99
0201821980999992001012812004-01710-045400FM-12+004499999V0200501N004610450019N0100001N1+02851+02391101231ADDAA124003091AY151061AY221061GF108991041021017501021001KA1240N+02351MA1999999100721MD1999999-0041MW1031REMSYN088AAXX  28124 82198 21797 80509 10285 20239 30072 40123 70352 84220 333 20235 59004 60034;
0167821980999992001012818004-01710-045400FM-12+004499999V0200501N007210450019N0100001N1+02771+02271101021ADDAA199000091GF108991041021017501061001MA1999999100511MD1999999-0011REMSYN070AAXX  28184 82198 32797 80514 10277 20227 30051 40102 84260 333 59001;EQDQ01  00002PRCP99
0198821980999992001012900004-01710-045400FM-12+004499999V0200501N002612200019N0020001N1+02601+02231101141ADDAA199000091GF103991031001017501061001KA1240M+02971MA1999999100631MD1999999-0021REMSYN088AAXX  29004 82198 32795 30505 10260 20223 30063 40114 83060 333 10297 29078 55056 59002;EQDQ01  00002PRCP99
0186821980999992001012912004-01710-045400FM-12+004499999V0200501N004612200019N0100001N1+02811+02291101171ADDAA199000091GF105991041021017501001011KA1240N+02331MA1999999100661MD1999999-0061REMSYN076AAXX  29124 82198 32797 50509 10281 20229 30066 40117 84201 333 20233 59006;EQDQ01  00002PRCP99
0167821980999992001012918004-01710-045400FM-12+004499999V0200501N005712200019N0100001N1+02921+02361100831ADDAA199000091GF105991041021017501001011MA1999999100321MD1999999-0191REMSYN070AAXX  29184 82198 32797 50511 10292 20236 30032 40083 84201 333 59019;EQDQ01  00002PRCP99
0168821980999992001013000004-01710-045400FM-12+004499999V0200501N002612200019N0020001N1+02581+02191101001ADDGF103991031001017501061001KA1240M+03051MA1999999100491MD1999999-0141REMSYN088AAXX  30004 82198 22795 30505 10258 20219 30049 40100 83060 333 10305 29076 55091 59014;
0186821980999992001013012004-01710-045400FM-12+004499999V0200501N004110450019N0100001N1+02801+02341101091ADDAA199000091GF106991031021008001061011KA1240N+02461MA1999999100581MD1999999-0081REMSYN076AAXX  30124 82198 32597 60508 10280 20234 30058 40109 83261 333 20246 59008;EQDQ01  00002PRCP99
0182821980999992001013018004-01710-045400FM-12+004499999V0200501N007710150019N0100001N1+02371+02141100771ADDAA106005191AY161061AY251061GF108991051051017501021001MA1999999100261MD1999999-0061MW1021REMSYN082AAXX  30184 82198 21797 80515 10237 20214 30026 40077 70265 85520 333 59006 60051;
0213821980999992001013100004-01710-045400FM-12+004499999V0203601N000510450019N0020001N1+02261+02101100991ADDAA106017091AY161061AY251061GF108991031051017501021001KA1240M+02931MA1999999100481MD1999999-0011MW1521REMSYN100AAXX  31004 82198 21795 83601 10226 20210 30048 40099 75265 83520 333 10293 29082 55025 59001 60171;
0201821980999992001013112004-01710-045400FM-12+004499999V0209999C000010450019N0100001N1+02311+02141101171ADDAA124034091AY161061AY251061GF108991041051017501041001KA1240N+02151MA1999999100661MD1999999+0081MW1021REMSYN088AAXX  31124 82198 21797 80000 10231 20214 30066 40117 70265 84540 333 20215 58008 60344;
0167821980999992001013118004-01710-045400FM-12+004499999V0200501N003110450019N0100001N1+02661+02291100941ADDAA199000091GF108991031021017501061001MA1999999100431MD1999999+0171REMSYN070AAXX  31184 82198 32797 80506 10266 20229 30043 40094 83260 333 58017;EQDQ01  00002PRCP99
0198821980999992001020100004-01710-045400FM-12+004499999V0203601N000510450019N0020001N1+02431+02171101091ADDAA199000091GF106991031021017501061001KA1240M+02831MA1999999100581MD1999999+0101REMSYN088AAXX  01004 82198 32795 63601 10243 20217 30058 40109 83260 333 10283 29086 55014 58010;EQDQ01  00002PRCP99
0186821980999992001020112004-01710-045400FM-12+004499999V0200901N000510450019N0100001N1+02471+02341101111ADDAA199000091GF106991031021017501061001KA1240N+02161MA1999999100601MD1999999-0061REMSYN076AAXX  01124 82198 32797 60901 10247 20234 30060 40111 83260 333 20216 59006;EQDQ01  00002PRCP99
0182821980999992001020118004-01710-045400FM-12+004499999V0203601N003610150019N0100001N1+02661+02311100791ADDAA106004191AY161061AY221061GF108991051051017501041001MA1999999100281MD1999999-0151MW1021REMSYN082AAXX  01184 82198 21797 83607 10266 20231 30028 40079 70262 85540 333 59015 60041;
0213821980999992001020200004-01710-045400FM-12+004499999V0203601N002110450019N0020001N1+02281+02131101091ADDAA106027991AY161061AY251061GF108991041051017501021001KA1240M+02961MA1999999100581MD1999999+0001MW1521REMSYN100AAXX  02004 82198 21795 83604 10228 20213 30058 40109 75265 84520 333 10296 29089 55021 58000 60281;
0182821980999992001020218004-01710-045400FM-12+004499999V0200901N005110150019N0100001N1+02581+02311100911ADDAA106002091AY161061AY251061GF108991051051017501021001MA1999999100401MD1999999+0121MW1541REMSYN082AAXX  02184 82198 21797 80910 10258 20231 30040 40091 75465 85520 333 58012 60021;
0182821980999992001020318004-01710-045400FM-12+004499999V0200501N004610450019N0100001N1+02741+02341100941ADDAA106010991AY161061AY221061GF108991041051017501041001MA1999999100431MD1999999+0031MW1021REMSYN082AAXX  03184 82198 21797 80509 10274 20234 30043 40094 70262 84540 333 58003 60111;
0213821980999992001020400004-01710-045400FM-12+004499999V0200501N001510450019N0020001N1+02471+02301101051ADDAA106003091AY161061AY221061GF108991021011017501041001KA1240M+02851MA1999999100541MD1999999-0021MW1021REMSYN100AAXX  04004 82198 21795 80503 10247 20230 30054 40105 70262 82140 333 10285 29086 55014 59002 60031;
0173821980999992001020412004-01710-045400FM-12+004499999V0200501N001510450019N0100001N1+02611+02211101251ADDAA124014091GF108991031011017501061011KA1240N+02251MA1999999100741MD1999999+0111REMSYN082AAXX  04124 82198 22797 80503 10261 20221 30074 40125 83161 333 20225 58011 60144;
0198821980999992001020500004-01710-045400FM-12+004499999V0200501N002610180019N0020001N1+02581+02381101111ADDAA199000091GF108991051081017501041001KA1240M+02961MA1999999100601MD1999999+0061REMSYN088AAXX  05004 82198 32795 80505 10258 20238 30060 40111 85840 333 10296 29083 55027 58006;EQDQ01  00002PRCP99
0186821980999992001020512004-01710-045400FM-12+004499999V0200501N001011050019N0100001N1+02651+02121101301ADDAA199000091GF105991021021017501011041KA1240N+02281MA1999999100781MD1999999+0041REMSYN076AAXX  05124 82198 32797 50502 10265 20212 30078 40130 82214 333 20228 58004;EQDQ01  00002PRCP99
0167821980999992001020518004-01710-045400FM-12+004499999V0203601N007711050019N0100001N1+02981+02551100981ADDAA199000091GF105991021021017501041041MA1999999100461MD1999999-0021REMSYN070AAXX  05184 82198 32797 53615 10298 20255 30046 40098 82244 333 59002;EQDQ01  00002PRCP99
0198821980999992001020600004-01710-045400FM-12+004499999V0200501N003612200019N0020001N1+02591+02401101161ADDAA199000091GF104991031021017501041011KA1240M+03061MA1999999100641MD1999999+0041REMSYN088AAXX  06004 82198 32795 40507 10259 20240 30064 40116 83241 333 10306 29083 55079 58004;EQDQ01  00002PRCP99
0186821980999992001020612004-01710-045400FM-12+004499999V0200501N004612200019N0100001N1+02821+02401101281ADDAA199000091GF104991031021017501001011KA1240N+02431MA1999999100771MD1999999-0011REMSYN076AAXX  06124 82198 32797 40509 10282 20240 30077 40128 83201 333 20243 59001;EQDQ01  00002PRCP99
0182821980999992001020618004-01710-045400FM-12+004499999V0200501N008010450019N0100001N1+02781+02401100991ADDAA106002091AY161061AY251061GF107991041021017501061001MA1999999100471MD1999999+0011MW1031REMSYN082AAXX  06180 82198 21797 70508 10278 20240 30047 40099 70365 84260 333 58001 60021;
0198821980999992001020700004-01710-045400FM-12+004499999V0200501N002112200019N0020001N1+02611+02351101121ADDAA199000091GF103991021011017501001031KA1240M+02951MA1999999100601MD1999999-0061REMSYN088AAXX  07004 82198 32795 30504 10261 20235 30060 40112 82103 333 10295 29082 55031 59006;EQDQ01  00002PRCP99
0167821980999992001020718004-01710-045400FM-12+004499999V0203601N006210450019N0100001N1+02911+02341100991ADDAA199000091GF106991031021017501011091MA1999999100471MD1999999+0001REMSYN070AAXX  07184 82198 32797 63612 10291 20234 30047 40099 83219 333 58000;EQDQ01  00002PRCP99
0198821980999992001020800004-01710-045400FM-12+004499999V0200501N003112200019N0020001N1+02631+02331101081ADDAA199000091GF105991021021017501001041KA1240M+03021MA1999999100561MD1999999-0041REMSYN088AAXX  08004 82198 32795 50506 10263 20233 30056 40108 82204 333 10302 29080 55078 59004;EQDQ01  00002PRCP99
0186821980999992001020812004-01710-045400FM-12+004499999V0200501N003612200019N0100001N1+02871+02381101161ADDAA199000091GF106991041021017501001011KA1240N+02451MA1999999100641MD1999999-0051REMSYN076AAXX  08124 82198 32797 60507 10287 20238 30064 40116 84201 333 20245 59005;EQDQ01  00002PRCP99
0182821980999992001020818004-01710-045400FM-12+004499999V0200501N005112200019N0100001N1+02821+02421100921ADDAA106001091AY161061AY221061GF105991031021017501001011MA1999999100401MD1999999-0071MW1011REMSYN082AAXX  08184 82198 21797 50510 10282 20242 30040 40092 70162 83201 333 59007 60011;
0198821980999992001020900004-01710-045400FM-12+004499999V0200501N003110450019N0020001N1+02621+02411101011ADDAA199000091GF105991031021017501011011KA1240M+03061MA1999999100501MD1999999-0061REMSYN088AAXX  09004 82198 32795 50506 10262 20241 30050 40101 83211 333 10306 29083 55066 59006;EQDQ01  00002PRCP99
0173821980999992001020912004-01710-045400FM-12+004499999V0200501N003612200019N0100001N1+02851+02401101031ADDAA124001091GF103991031021017501001001KA1240N+02471MA1999999100521MD1999999-0121REMSYN082AAXX  09124 82198 22797 30507 10285 20240 30052 40103 83200 333 20247 59012 60014;
0182821980999992001020918004-01710-045400FM-12+004499999V0200901N002610150019N0100001N1+02991+02241100831ADDAA106011991AY161061AY221061GF108991061071017501021001MA1999999100311MD1999999-0091MW1021REMSYN082AAXX  09184 82198 21797 80905 10299 20224 30031 40083 70262 86720 333 59009 60121;
0213821980999992001021000004-01710-045400FM-12+004499999V0200901N003111050019N0020001N1+02541+02311100981ADDAA106000591AY161061AY221061GF105991021021017501031041KA1240M+03051MA1999999100471MD1999999-0031MW1011REMSYN100AAXX  10004 82198 21795 50906 10254 20231 30047 40098 70162 82234 333 10305 29083 55046 59003 69961;
0201821980999992001021012004-01710-045400FM-12+004499999V0200501N002610450019N0100001N1+02541+02401101021ADDAA124018091AY161061AY221061GF106991041021017501041041KA1240N+02221MA1999999100501MD1999999-0021MW1021REMSYN088AAXX  10124 82198 21797 60505 10254 20240 30050 40102 70262 84244 333 20222 59002 60184;
0195821980999992001021018004-01710-045400FM-12+004499999V0200501N005710150019N0100001N1+02821+02401100801ADDAA199000091AY111061AY221061GF108991051071017501061001MA1999999100281MD1999999-0031MW1171REMSYN076AAXX  10184 82198 31797 80511 10282 20240 30028 40080 71712 85760 333 59003;EQDQ01  00002PRCP99
0213821980999992001021100004-01710-045400FM-12+004499999V0200501N002110450019N0020001N1+02441+02411101001ADDAA106011991AY161061AY221061GF106991031071017501061001KA1240M+03051MA1999999100481MD1999999-0011MW1131REMSYN100AAXX  11004 82198 21795 60504 10244 20241 30048 40100 71362 83760 333 10305 29092 55039 59001 60121;
0201821980999992001021112004-01710-045400FM-12+004499999V0209999C000010150019N0100001N1+02441+02391101261ADDAA124033091AY161061AY251061GF108991051071017501061001KA1240N+02161MA1999999100741MD1999999+0141MW1171REMSYN088AAXX  11124 82198 21797 80000 10244 20239 30074 40126 71765 85760 333 20216 58014 60334;
0167821980999992001021118004-01710-045400FM-12+004499999V0203601N003610450019N0100001N1+02991+02421100891ADDAA199000091GF107991041021017501011041MA1999999100371MD1999999+0091REMSYN070AAXX  11184 82198 32797 73607 10299 20242 30037 40089 84214 333 58009;EQDQ01  00002PRCP99
0213821980999992001021200004-01710-045400FM-12+004499999V0200501N003612200019N0020001N1+02541+02361101101ADDAA106009991AY161061AY221061GF104991031021017501061001KA1240M+03051MA1999999100581MD1999999+0101MW1011REMSYN100AAXX  12004 82198 21795 40507 10254 20236 30058 40110 70162 83260 333 10305 29087 55024 58010 60101;
0173821980999992001021212004-01710-045400FM-12+004499999V0200501N006711050019N0100001N1+02631+02271101191ADDAA124009991GF105991021021017501031011KA1240N+02461MA1999999100671MD1999999-0071REMSYN082AAXX  12124 82198 22797 50513 10263 20227 30067 40119 82231 333 20246 59007 60104;
0198821980999992001021300004-01710-045400FM-12+004499999V0200901N002112200019N0020001N1+02541+02381101191ADDAA199000091GF103991031021017501001001KA1240M+02951MA1999999100671MD1999999+0091REMSYN088AAXX  13004 82198 32795 30904 10254 20238 30067 40119 83200 333 10295 29086 55030 58009;EQDQ01  00002PRCP99
0201821980999992001021312004-01710-045400FM-12+004499999V0200501N015411050019N0100001N1+02831+02441101221ADDAA124005191AY161061AY251061GF105991021021017501061061KA1240N+02281MA1999999100701MD1999999+0031MW1031REMSYN088AAXX  13124 82198 21797 50530 10283 20244 30070 40122 70365 82266 333 20228 58003 60054;
0167821980999992001021318004-01710-045400FM-12+004499999V0203601N007212200019N0100001N1+02971+02371100881ADDAA199000091GF104991021021017501041041MA1999999100361MD1999999-0151REMSYN070AAXX  13184 82198 32797 43614 10297 20237 30036 40088 82244 333 59015;EQDQ01  00002PRCP99
0198821980999992001021400004-01710-045400FM-12+004499999V0200501N002612200019N0020001N1+02541+02351101001ADDAA199000091GF102991021011017501001001KA1240M+03021MA1999999100491MD1999999-0181REMSYN088AAXX  14004 82198 31795 20505 10254 20235 30049 40100 82100 333 10302 29082 55093 59018;EQDQ01  00002PRCP99
0201821980999992001021412004-01710-045400FM-12+004499999V0209999C000010150019N0100001N1+02331+02251101221ADDAA124023191AY161061AY251061GF108991051071017501061001KA1240N+02191MA1999999100701MD1999999+0001MW1201REMSYN088AAXX  14124 82198 21797 80000 10233 20225 30070 40122 72065 85760 333 20219 58000 60234;
0182821980999992001021418004-01710-045400FM-12+004499999V0201801N001510450019N0100001N1+02521+02331100991ADDAA106004191AY161061AY221061GF108991041051017501041041MA1999999100471MD1999999+0101MW1021REMSYN082AAXX  14184 82198 21797 81803 10252 20233 30047 40099 70262 84544 333 58010 60041;
0179821980999992001021500004-01710-045400FM-12+004499999V0200501N001512200019N0020001N1+02401+02301100961ADDAA199000021GF103991031021017501001001KA1240M+02621MA1999999100441MD1999999-0051REMSYN088AAXX  15004 82198 32795 30503 10240 20230 30044 40096 83200 333 10262 29094 55000 59005;
0201821980999992001021512004-01710-045400FM-12+004499999V0202701N002610450019N0100001N1+02491+02371101221ADDAA124005191AY161061AY251061GF106991041021017501031011KA1240N+02241MA1999999100701MD1999999+0001MW1031REMSYN088AAXX  15124 82198 21797 62705 10249 20237 30070 40122 70365 84231 333 20224 58000 60054;
0167821980999992001021518004-01710-045400FM-12+004499999V0200501N005712200019N0100001N1+02971+02371100871ADDAA199000091GF103991031021017501001001MA1999999100351MD1999999-0121REMSYN070AAXX  15184 82198 32797 30511 10297 20237 30035 40087 83200 333 59012;EQDQ01  00002PRCP99
0198821980999992001021600004-01710-045400FM-12+004499999V0200501N003612200019N0020001N1+02611+02401101051ADDAA199000091GF102991021021017501001001KA1240M+03021MA1999999100531MD1999999+0111REMSYN088AAXX  16004 82198 32795 20507 10261 20240 30053 40105 82200 333 10302 29086 55071 58011;EQDQ01  00002PRCP99
0186821980999992001021612004-01710-045400FM-12+004499999V0200501N003612200019N0100001N1+02871+02291101231ADDAA199000091GF104991021021017501011011KA1240N+02431MA1999999100721MD1999999+0021REMSYN076AAXX  16124 82198 32797 40507 10287 20229 30072 40123 82211 333 20243 58002;EQDQ01  00002PRCP99
0167821980999992001021618004-01710-045400FM-12+004499999V0200501N005112200019N0100001N1+02991+02421100981ADDAA199000091GF104991021021017501011061MA1999999100461MD1999999+0111REMSYN070AAXX  16184 82198 32797 40510 10299 20242 30046 40098 82216 333 58011;EQDQ01  00002PRCP99
0198821980999992001021700004-01710-045400FM-12+004499999V0200501N002612200019N0020001N1+02661+02411101201ADDAA199000091GF103991031021017501001001KA1240M+03111MA1999999100681MD1999999+0151REMSYN088AAXX  17004 82198 32795 30505 10266 20241 30068 40120 83200 333 10311 29079 55091 58015;EQDQ01  00002PRCP99
0186821980999992001021712004-01710-045400FM-12+004499999V0200501N004611050019N0100001N1+02831+02131101301ADDAA199000091GF105991021021017501031011KA1240N+02441MA1999999100791MD1999999+0071REMSYN076AAXX  17124 82198 32797 50509 10283 20213 30079 40130 82231 333 20244 58007;EQDQ01  00002PRCP99
0167821980999992001021718004-01710-045400FM-12+004499999V0200501N004611050019N0100001N1+02931+02251101051ADDAA199000091GF106991021021017501011041MA1999999100531MD1999999+0071REMSYN070AAXX  17184 82198 32797 60509 10293 20225 30053 40105 82214 333 58007;EQDQ01  00002PRCP99
0226821980999992001021800004-01710-045400FM-12+004499999V0200501N002612200019N0020001N1+02651+02401101231ADDAA199000091AY121061AY211061GF102991021011017501001001KA1240M+03151MA1999999100711MD1999999+0031MW1131REMSYN094AAXX  18004 82198 31795 20505 10265 20240 30071 40123 71321 82100 333 10315 29079 55072 58003;EQDQ01  00002PRCP99
0186821980999992001021812004-01710-045400FM-12+004499999V0203201N000510450019N0100001N1+02651+02461101411ADDAA199000091GF106991031021017501061011KA1240N+02411MA1999999100891MD1999999+0101REMSYN076AAXX  18124 82198 32797 63201 10265 20246 30089 40141 83261 333 20241 58010;EQDQ01  00002PRCP99
0182821980999992001021818004-01710-045400FM-12+004499999V0200501N002610450019N0100001N1+02341+02271101191ADDAA106045091AY161061AY221061GF108991041071017501021001MA1999999100671MD1999999+0141MW1581REMSYN082AAXX  18184 82198 21797 80505 10234 20227 30067 40119 75862 84720 333 58014 60451;
0193821980999992001021900004-01710-045400FM-12+004499999V0202701N001010150019N0020001N1+02331+02271101301ADDAA106002091AY161061AY221061GF106991061021017501001001KA1240M+03091MA1999999100781MW1011REMSYN094AAXX  19004 82198 21795 62702 10233 20227 30078 40130 70162 86200 333 10309 29096 55012 60021;
0173821980999992001021912004-01710-045400FM-12+004499999V0201401N001010450019N0100001N1+02531+02271101351ADDAA124047091GF106991031011017501031001KA1240N+02201MA1999999100841MD1999999-0051REMSYN082AAXX  19124 82198 22797 61402 10253 20227 30084 40135 83130 333 20220 59005 60474;
0182821980999992001021918004-01710-045400FM-12+004499999V0200501N005110150019N0100001N1+02801+02421101121ADDAA106001091AY161061AY221061GF108991051051017501021001MA1999999100611MD1999999+0061MW1521REMSYN082AAXX  19184 82198 21797 80510 10280 20242 30061 40112 75262 85520 333 58006 60011;
0213821980999992001022000004-01710-045400FM-12+004499999V0209999C000012200019N0020001N1+02461+02261101241ADDAA106007191AY161061AY221061GF104991041001017501061001KA1240M+03111MA1999999100731MD1999999-0051MW1011REMSYN100AAXX  20004 82198 21795 40000 10246 20226 30073 40124 70162 84060 333 10311 29086 55032 59005 60071;
0173821980999992001022012004-01710-045400FM-12+004499999V0200901N001010450019N0100001N1+02701+02481101271ADDAA124007991GF106991031021017501061001KA1240N+02321MA1999999100761MD1999999-0081REMSYN082AAXX  20124 82198 22797 60902 10270 20248 30076 40127 83260 333 20232 59008 60084;
0167821980999992001022018004-01710-045400FM-12+004499999V0200501N004110450019N0100001N1+02791+02341100911ADDAA199000091GF108991041011017501021001MA1999999100401MD1999999-0211REMSYN070AAXX  20184 82198 32797 80508 10279 20234 30040 40091 84120 333 59021;EQDQ01  00002PRCP99
0182821980999992001022118004-01710-045400FM-12+004499999V0201401N001510150019N0100001N1+02501+02341100901ADDAA106018091AY161061AY251061GF108991051051017501021001MA1999999100391MD1999999-0011MW1531REMSYN082AAXX  21184 82198 21797 81403 10250 20234 30039 40090 75365 85520 333 59001 60181;
0213821980999992001022200004-01710-045400FM-12+004499999V0200901N000510450019N0020001N1+02481+02361101051ADDAA106002091AY151061AY221061GF108991041091017501041001KA1240M+03091MA1999999100531MD1999999-0051MW1021REMSYN100AAXX  22004 82198 21795 80901 10248 20236 30053 40105 70252 84940 333 10309 29091 55017 59005 60021;
0201821980999992001022212004-01710-045400FM-12+004499999V0201401N002110150019N0100001N1+02491+02291101121ADDAA124027991AY161061AY221061GF107991051011017501031001KA1240N+02331MA1999999100611MD1999999-0061MW1021REMSYN088AAXX  22124 82198 21797 71404 10249 20229 30061 40112 70262 85130 333 20233 59006 60284;
0182821980999992001022218004-01710-045400FM-12+004499999V0200501N004610450019N0100001N1+02681+02431100831ADDAA106003091AY161061AY221061GF108991041031017501041001MA1999999100321MD1999999-0071MW1021REMSYN082AAXX  22184 82198 21797 80509 10268 20243 30032 40083 70262 84340 333 59007 60031;
0213821980999992001022300004-01710-045400FM-12+004499999V0201401N001010450019N0020001N1+02341+02261101041ADDAA106013091AY161061AY251061GF108991031051017501021001KA1240M+02931MA1999999100521MD1999999-0011MW1021REMSYN100AAXX  23004 82198 21795 81402 10234 20226 30052 40104 70265 83520 333 10293 29092 55014 59001 60131;
0201821980999992001022312004-01710-045400FM-12+004499999V0201401N002610450019N0100001N1+02461+02281101121ADDAA124039991AY161061AY251061GF108991031051017501011001KA1240N+02201MA1999999100601MD1999999-0011MW1021REMSYN088AAXX  23124 82198 21797 81405 10246 20228 30060 40112 70265 83510 333 20220 59001 60404;
0167821980999992001022318004-01710-045400FM-12+004499999V0200501N000510450019N0100001N1+02821+02401100841ADDAA199000091GF108991041051017501041001MA1999999100331MD1999999+0011REMSYN070AAXX  23184 82198 32797 80501 10282 20240 30033 40084 84540 333 58001;EQDQ01  00002PRCP99
0213821980999992001022400004-01710-045400FM-12+004499999V0209999C000010450019N0020001N1+02531+02421101151ADDAA106003091AY161061AY221061GF108991031011017501011001KA1240M+02851MA1999999100641MD1999999+0121MW1021REMSYN100AAXX  24004 82198 21795 80000 10253 20242 30064 40115 70262 83110 333 10285 29089 55000 58012 60031;
0201821980999992001022412004-01710-045400FM-12+004499999V0200501N000510150019N0100001N1+02411+02231101151ADDAA124014091AY161061AY251061GF108991051051017501011001KA1240N+02251MA1999999100641MD1999999+0041MW1021REMSYN088AAXX  24124 82198 21797 80501 10241 20223 30064 40115 70265 85510 333 20225 58004 60144;
0167821980999992001022418004-01710-045400FM-12+004499999V0200501N002610150019N0100001N1+03031+02611100801ADDAA199000091GF105991051021017501001001MA1999999100291MD1999999-0041REMSYN070AAXX  24184 82198 32797 50505 10303 20261 30029 40080 85200 333 59004;EQDQ01  00002PRCP99
0213821980999992001022500004-01710-045400FM-12+004499999V0200501N002110450019N0020001N1+02591+02481101041ADDAA106001091AY161061AY221061GF108991041051017501041001KA1240M+03101MA1999999100531MD1999999-0111MW1021REMSYN100AAXX  25004 82198 21795 80504 10259 20248 30053 40104 70262 84540 333 10310 29089 55039 59011 60011;
0201821980999992001022612004-01710-045400FM-12+004499999V0209999C000010450019N0020001N1+02241+02171101311ADDAA124032091AY161061AY221061GF108991041071017501021001KA1240N+02201MA1999999100791MD1999999+0151MW1211REMSYN088AAXX  26124 82198 21795 80000 10224 20217 30079 40131 72162 84720 333 20220 58015 60324;
0182821980999992001022618004-01710-045400FM-12+004499999V0201401N001010450019N0100001N1+02441+02321101061ADDAA106010991AY161061AY221061GF108991041071017501011001MA1999999100541MD1999999+0311MW1021REMSYN082AAXX  26184 82198 21797 81402 10244 20232 30054 40106 70262 84710 333 58031 60111;
0232821980999992001022700004-01710-045400FM-12+004499999V0200901N001510150019N0020001N1+02471+02191100971ADDAA106000591AY161061AY221061GF106991999001017501061001KA1240M+02791MA1999999100451MD1999999+0031MW1011REMSYN100AAXX  27004 82198 21795 60903 10247 20219 30045 40097 70162 85060 333 10279 29091 55000 58003 69941;EQDQ01+000052SCOTLC
0173821980999992001022712004-01710-045400FM-12+004499999V0201801N001010450019N0100001N1+02481+02411101141ADDAA106010991GF106991031021017501041091KA1240N+02191MA1999999100621MD1999999-0171REMSYN082AAXX  27124 82198 22797 61802 10248 20241 30062 40114 83249 333 20219 59017 60111;
0167821980999992001022718004-01710-045400FM-12+004499999V0200501N004610450019N0100001N1+02881+02351100891ADDAA199000091GF107991031021017501041091MA1999999100371MD1999999-0171REMSYN070AAXX  27184 82198 32797 70509 10288 20235 30037 40089 83249 333 59017;EQDQ01  00002PRCP99
0213821980999992001022800004-01710-045400FM-12+004499999V0200501N002010450019N0020001N1+02501+02411101101ADDAA106003091AY161061AY221061GF106991031021017501061001KA1240M+03041MA1999999100581MD1999999+0131MW1011REMSYN100AAXX  28000 82198 21795 60502 10250 20241 30058 40110 70162 83260 333 10304 29090 55062 58013 60031;
0201821980999992001022812004-01710-045400FM-12+004499999V0202301N001012200019N0100001N1+02471+02351101221ADDAA124009991AY161061AY221061GF107991041021017501001011KA1240N+02351MA1999999100701MD1999999+0081MW1031REMSYN088AAXX  28124 82198 21797 72302 10247 20235 30070 40122 70362 84201 333 20235 58008 60104;
0182821980999992001022818004-01710-045400FM-12+004499999V0200501N005111050019N0100001N1+02991+02341100911ADDAA106000191AY151061AY221061GF105991021021017501041011MA1999999100391MD1999999+0021MW1011REMSYN082AAXX  28184 82198 21797 50510 10299 20234 30039 40091 70152 82241 333 58002 69911;
0198821980999992001030100004-01710-045400FM-12+004499999V0200501N003612200019N0020001N1+02561+02361101021ADDAA199000091GF103991011021017501041011KA1240M+03091MA1999999100501MD1999999-0081REMSYN088AAXX  01004 82198 32795 30507 10256 20236 30050 40102 81241 333 10309 29086 55053 59008;EQDQ01  00002PRCP99
0173821980999992001030112004-01710-045400FM-12+004499999V0200501N001512200019N0100001N1+02801+02501101161ADDAA124000191GF105991031021017501001011KA1240N+02311MA1999999100641MD1999999-0061REMSYN082AAXX  01124 82198 22797 50503 10280 20250 30064 40116 83201 333 20231 59006 69914;
0182821980999992001030118004-01710-045400FM-12+004499999V0200501N001010450019N0100001N1+02461+02391100971ADDAA106017091AY161061AY221061GF108991041071017501061001MA1999999100451MD1999999+0061MW1171REMSYN082AAXX  01184 82198 21797 80502 10246 20239 30045 40097 71762 84760 333 58006 60171;
0220821980999992001030200004-01710-045400FM-12+004499999V0202301N001510450019N0020001N1+02431+02331101091ADDAA199000091AY121061AY221061GF106991031021017501041041KA1240M+03001MA1999999100571MD1999999+0071MW1131REMSYN088AAXX  02004 82198 31795 62303 10243 20233 30057 40109 71322 83244 333 10300 29093 58007;EQDQ01  00002PRCP99
0173821980999992001030212004-01710-045400FM-12+004499999V0200901N001012200019N0100001N1+02641+02551101201ADDAA124017091GF104991021021017501011011KA1240N+02271MA1999999100681MD1999999+0041REMSYN082AAXX  02124 82198 22797 40902 10264 20255 30068 40120 82211 333 20227 58004 60174;
0182821980999992001030218004-01710-045400FM-12+004499999V0200901N004610450019N0100001N1+02971+02491101001ADDAA106002091AY161061AY251061GF106991031021017501041041MA1999999100481MD1999999+0031MW1031REMSYN082AAXX  02184 82198 21797 60909 10297 20249 30048 40100 70365 83244 333 58003 60021;
0198821980999992001030300004-01710-045400FM-12+004499999V0200901N002611050019N0020001N1+02521+02401101191ADDAA199000091GF105991021021017501031011KA1240M+03041MA1999999100671MD1999999+0101REMSYN088AAXX  03004 82198 32795 50905 10252 20240 30067 40119 82231 333 10304 29088 55045 58010;EQDQ01  00002PRCP99
0201821980999992001030312004-01710-045400FM-12+004499999V0201401N003110450019N0100001N1+02561+02401101401ADDAA124010991AY161061AY221061GF108991041071017501061011KA1240N+02381MA1999999100881MD1999999+0201MW1031REMSYN088AAXX  03124 82198 21797 81406 10256 20240 30088 40140 70362 84761 333 20238 58020 60114;
0182821980999992001030318004-01710-045400FM-12+004499999V0200901N005110450019N0100001N1+03051+02421101071ADDAA106000191AY151061AY221061GF106991031071017501041011MA1999999100551MD1999999+0071MW1151REMSYN082AAXX  03184 82198 21797 60910 10305 20242 30055 40107 71552 83741 333 58007 69911;
0173821980999992001030412004-01710-045400FM-12+004499999V0200501N002611050019N0100001N1+02891+02441101291ADDAA124002091GF105991021021017501011041KA1240N+02451MA1999999100771MD1999999-0111REMSYN082AAXX  04124 82198 22797 50505 10289 20244 30077 40129 82214 333 20245 59011 60024;
0167821980999992001030418004-01710-045400FM-12+004499999V0200501N005710450019N0100001N1+02951+02491101001ADDAA199000091GF106991041021017501061001MA1999999100481MD1999999-0071REMSYN070AAXX  04184 82198 32797 60511 10295 20249 30048 40100 84260 333 59007;EQDQ01  00002PRCP99
0198821980999992001030500004-01710-045400FM-12+004499999V0200501N004610450019N0020001N1+02661+02461101161ADDAA199000091GF106991031021017501031011KA1240M+03081MA1999999100541MD1999999-0041REMSYN088AAXX  05004 82198 32795 60509 10266 20246 30054 40116 83231 333 10308 29083 55089 59004;EQDQ01  00002PRCP99
0186821980999992001030512004-01710-045400FM-12+004499999V0200501N003610150019N0100001N1+02811+02581101271ADDAA199000091GF107991061021017501061001KA1240N+02421MA1999999100761MD1999999-0011REMSYN076AAXX  05124 82198 32797 70507 10281 20258 30076 40127 86260 333 20242 59001;EQDQ01  00002PRCP99
0182821980999992001030518004-01710-045400FM-12+004499999V0200501N006210150019N0100001N1+02741+02381100961ADDAA106000891AY151061AY221061GF106991051021017501061001MA1999999100451MD1999999-0031MW1021REMSYN082AAXX  05184 82198 21797 60512 10274 20238 30045 40096 70252 85260 333 59003 69971;
0198821980999992001030600004-01710-045400FM-12+004499999V0200501N003610450019N0020001N1+02671+02501101151ADDAA199000091GF106991041021017501061001KA1240M+03131MA1999999100641MD1999999+0001REMSYN088AAXX  06004 82198 32795 60507 10267 20250 30064 40115 84260 333 10313 29087 55086 58000;EQDQ01  00002PRCP99
0173821980999992001030612004-01710-045400FM-12+004499999V0200901N002610450019N0100001N1+02941+02471101341ADDAA124000891GF105991031021017501061001KA1240N+02491MA1999999100831MD1999999+0071REMSYN082AAXX  06124 82198 22797 50905 10294 20247 30083 40134 83260 333 20249 58007 69974;
0182821980999992001030618004-01710-045400FM-12+004499999V0200501N001510450019N0100001N1+02931+02561101021ADDAA106004191AY161061AY221061GF107991031021017501061011MA1999999100511MD1999999+0061MW1031REMSYN082AAXX  06184 82198 21797 70503 10293 20256 30051 40102 70362 83261 333 58006 60041;
0198821980999992001030700004-01710-045400FM-12+004499999V0200501N002610450019N0020001N1+02661+02481101191ADDAA199000091GF105991031021017501061001KA1240M+03251MA1999999100681MD1999999+0041REMSYN088AAXX  07004 82198 32795 50505 10266 20248 30068 40119 83260 333 10325 29084 55073 58004;EQDQ01  00002PRCP99
0173821980999992001030712004-01710-045400FM-12+004499999V0200901N004112200019N0100001N1+02921+02561101381ADDAA124004191GF105991031021017501001011KA1240N+02361MA1999999100871MD1999999+0041REMSYN082AAXX  07124 82198 22797 50908 10292 20256 30087 40138 83201 333 20236 58004 60044;
0182821980999992001030718004-01710-045400FM-12+004499999V0209999C000010450019N0100001N1+02461+02371101181ADDAA106004191AY161061AY221061GF108991041091017501041001MA1999999100671MD1999999+0161MW1031REMSYN082AAXX  07184 82198 21797 80000 10246 20237 30067 40118 70362 84940 333 58016 60041;
0198821980999992001030800004-01710-045400FM-12+004499999V0200901N002610450019N0020001N1+02591+02491101381ADDAA199000091GF107991031021017501041001KA1240M+03131MA1999999100871MD1999999+0191REMSYN088AAXX  08004 82198 32795 70905 10259 20249 30087 40138 83240 333 10313 29092 55037 58019;EQDQ01  00002PRCP99
0173821980999992001030812004-01710-045400FM-12+004499999V0200501N002610450019N0100001N1+02701+02541101341ADDAA124004191GF107991031021017501031001KA1240N+02331MA1999999100831MD1999999-0041REMSYN082AAXX  08124 82198 22797 70505 10270 20254 30083 40134 83230 333 20233 59004 60044;
0167821980999992001030818004-01710-045400FM-12+004499999V0200501N006210450019N0100001N1+02811+02381101131ADDAA199000091GF107991041021017501061001MA1999999100621MD1999999-0051REMSYN070AAXX  08184 82198 32797 70512 10281 20238 30062 40113 84260 333 59005;EQDQ01  00002PRCP99
0198821980999992001030900004-01710-045400FM-12+004499999V0200501N003610450019N0020001N1+02671+02501101181ADDAA199000091GF108991031011017501061001KA1240M+03131MA1999999100671MD1999999-0201REMSYN088AAXX  09004 82198 32795 80507 10267 20250 30067 40118 83160 333 10313 29089 55024 59020;EQDQ01  00002PRCP99
0201821980999992001030912004-01710-045400FM-12+004499999V0200501N003610450019N0100001N1+02771+02581101241ADDAA124002091AY161061AY251061GF106991031021017501061001KA1240N+02381MA1999999100731MD1999999-0101MW1011REMSYN088AAXX  09124 82198 21797 60507 10277 20258 30073 40124 70165 83260 333 20238 59010 60024;
0167821980999992001030918004-01710-045400FM-12+004499999V0200501N005110450019N0100001N1+02901+02431100951ADDAA199000091GF107991031021017501061001MA1999999100441MD1999999-0181REMSYN070AAXX  09184 82198 32797 70510 10290 20243 30044 40095 83260 333 59018;EQDQ01  00002PRCP99
0198821980999992001031000004-01710-045400FM-12+004499999V0203201N001510450019N0020001N1+02581+02441101131ADDAA199000091GF106991031021017501041001KA1240M+03161MA1999999100621MD1999999-0051REMSYN088AAXX  10004 82198 32795 63203 10258 20244 30062 40113 83240 333 10316 29089 55039 59005;EQDQ01  00002PRCP99
0201821980999992001031012004-01710-045400FM-12+004499999V0200501N000510150019N0100001N1+02291+02181101271ADDAA124015091AY161061AY251061GF108991051051017501021001KA1240N+02261MA1999999100761MD1999999+0031MW1521REMSYN088AAXX  10124 82198 21797 80501 10229 20218 30076 40127 75265 85520 333 20226 58003 60154;
0182821980999992001031018004-01710-045400FM-12+004499999V0203601N001010450019N0100001N1+02661+02461100961ADDAA106003091AY161061AY251061GF108991041021017501041001MA1999999100451MD1999999+0011MW1021REMSYN082AAXX  10184 82198 21797 83602 10266 20246 30045 40096 70265 84240 333 58001 60031;
0179821980999992001031100004-01710-045400FM-12+004499999V0203601N002112200019N0020001N1+02461+02371101121ADDAA199000021GF103991021011017501061001KA1240M+02871MA1999999100601MD1999999-0021REMSYN088AAXX  11004 82198 32795 33604 10246 20237 30060 40112 82160 333 10287 29090 55009 59002;
0201821980999992001031112004-01710-045400FM-12+004499999V0200501N001510450019N0100001N1+02421+02251101271ADDAA124018091AY161061AY221061GF108991041021017501061001KA1240N+02231MA1999999100761MD1999999+0001MW1031REMSYN088AAXX  11124 82198 21797 80503 10242 20225 30076 40127 70362 84260 333 20223 58000 60184;
0182821980999992001031118004-01710-045400FM-12+004499999V0200501N005110150019N0100001N1+02701+02481100991ADDAA106000191AY151061AY221061GF108991051021017501061001MA1999999100481MD1999999+0031MW1021REMSYN082AAXX  11184 82198 21797 80510 10270 20248 30048 40099 70252 85260 333 58003 69921;
0213821980999992001031200004-01710-045400FM-12+004499999V0203601N001512200019N0020001N1+02491+02361101221ADDAA106000191AY151061AY221061GF104991021011017501061001KA1240M+02851MA1999999100701MD1999999+0101MW1011REMSYN100AAXX  12004 82198 21795 43603 10249 20236 30070 40122 70152 82160 333 10285 29091 55008 58010 69921;
0201821980999992001031212004-01710-045400FM-12+004499999V0202301N002110450019N0100001N1+02461+02321101341ADDAA124021191AY161061AY251061GF107991041051017501061011KA1240N+02251MA1999999100821MD1999999+0061MW1031REMSYN088AAXX  12124 82198 21797 72304 10246 20232 30082 40134 70365 84561 333 20225 58006 60214;
0182821980999992001031218004-01710-045400FM-12+004499999V0200501N004110150019N0100001N1+02571+02401101131ADDAA106006191AY161061AY251061GF108991051071017501011001MA1999999100611MD1999999+0131MW1021REMSYN082AAXX  12184 82198 21797 80508 10257 20240 30061 40113 70265 85710 333 58013 60061;
0213821980999992001031300004-01710-045400FM-12+004499999V0209999C000010150019N0020001N1+02351+02251101261ADDAA106003091AY161061AY251061GF108991051071017501061001KA1240M+02831MA1999999100741MD1999999+0041MW1021REMSYN100AAXX  13004 82198 21795 80000 10235 20225 30074 40126 70265 85760 333 10283 29094 55001 58004 60031;
0182821980999992001031318004-01710-045400FM-12+004499999V0201401N005110450019N0100001N1+02841+02171101091ADDAA106000391AY151061AY221061GF108991041051017501041011MA1999999100571MD1999999-0041MW1021REMSYN082AAXX  13184 82198 21797 81410 10284 20217 30057 40109 70252 84541 333 59004 69931;
0230821980999992001031400004-01710-045400FM-12+004499999V0203001N047329999999N0020001N1+02421+02151101201ADDAA199000091GF105991999021017501001001KA1240M+02911MA1999999100681MD1999999-0061REMSYN088AAXX  14004 82198 32795 53092 10242 20215 30068 40120 83200 333 10291 29084 55017 59006;EQDQ01+004733WOSPD Q02+000032SCOTLCQ03  00002PRCP99
0173821980999992001031412004-01710-045400FM-12+004499999V0201401N000510450019N0100001N1+02571+02461101211ADDAA124000391GF106991031021017501031091KA1240N+02271MA1999999100691MD1999999+0241REMSYN082AAXX  14124 82198 22797 61401 10257 20246 30069 40121 83239 333 20227 58024 69934;
0167821980999992001031418004-01710-045400FM-12+004499999V0200501N002610450019N0100001N1+02911+02501100971ADDAA199000091GF108991041071017501061011MA1999999100451MD1999999-0121REMSYN070AAXX  14184 82198 32797 80505 10291 20250 30045 40097 84761 333 59012;EQDQ01  00002PRCP99
0213821980999992001031500004-01710-045400FM-12+004499999V0203201N001510450019N0020001N1+02471+02301101111ADDAA106000191AY151061AY221061GF106991041021017501061001KA1240M+03081MA1999999100591MD1999999-0091MW1201REMSYN100AAXX  15004 82198 21795 63203 10247 20230 30059 40111 72052 84260 333 10308 29090 55011 59009 69911;
0201821980999992001031512004-01710-045400FM-12+004499999V0201401N002110150019N0100001N1+02601+02421101201ADDAA124000591AY151061AY221061GF108991061071017501061001KA1240N+02351MA1999999100681MD1999999-0011MW1031REMSYN088AAXX  15124 82198 21797 81404 10260 20242 30068 40120 70352 86760 333 20235 59001 69944;
0182821980999992001031518004-01710-045400FM-12+004499999V0200501N003610450019N0100001N1+02321+02111100961ADDAA106009991AY161061AY221061GF108991041071017501021001MA1999999100441MD1999999-0011MW1151REMSYN082AAXX  15184 82198 21797 80507 10232 20211 30044 40096 71562 84720 333 59001 60101;
0213821980999992001031600004-01710-045400FM-12+004499999V0209999C000010150019N0020001N1+02401+02371101131ADDAA106008991AY161061AY221061GF105991051021017501001001KA1240M+03011MA1999999100611MD1999999+0021MW1011REMSYN100AAXX  16004 82198 21795 50000 10240 20237 30061 40113 70162 85200 333 10301 29094 55015 58002 60091;
0195821980999992001031618004-01710-045400FM-12+004499999V0200501N005710450019N0100001N1+02921+02341101071ADDAA199000091AY121061AY221061GF106991031051017501041041MA1999999100551MD1999999+0111MW1171REMSYN076AAXX  16184 82198 31797 60511 10292 20234 30055 40107 71722 83544 333 58011;EQDQ01  00002PRCP99
0213821980999992001031700004-01710-045400FM-12+004499999V0200501N001512200019N0020001N1+02461+02371101201ADDAA106008991AY161061AY221061GF103991031021017501001001KA1240M+03031MA1999999100681MD1999999+0071MW1011REMSYN100AAXX  17004 82198 21795 30503 10246 20237 30068 40120 70162 83200 333 10303 29088 55046 58007 60091;
0173821980999992001031712004-01710-045400FM-12+004499999V0200501N000511050019N0100001N1+02711+02541101251ADDAA124008991GF105991021021017501011041KA1240N+02281MA1999999100731MD1999999-0091REMSYN082AAXX  17124 82198 22797 50501 10271 20254 30073 40125 82214 333 20228 59009 60094;
0182821980999992001031718004-01710-045400FM-12+004499999V0200501N005710450019N0100001N1+02841+02401100971ADDAA106004191AY161061AY221061GF106991031021017501011041MA1999999100451MD1999999-0101MW1031REMSYN082AAXX  17184 82198 21797 60511 10284 20240 30045 40097 70362 83214 333 59010 60041;
0201821980999992001031812004-01710-045400FM-12+004499999V0202301N001010450019N0100001N1+02591+02501101191ADDAA124007991AY161061AY211061GF106991031021017501011001KA1240N+02271MA1999999100671MD1999999-0061MW1031REMSYN088AAXX  18124 82198 21797 62302 10259 20250 30067 40119 70361 83210 333 20227 59006 60084;
0167821980999992001031818004-01710-045400FM-12+004499999V0200501N007712200019N0100001N1+03011+02291100801ADDAA199000091GF105991031021017501001011MA1999999100281MD1999999-0171REMSYN070AAXX  18184 82198 32797 50515 10301 20229 30028 40080 83201 333 59017;EQDQ01  00002PRCP99
0198821980999992001031900004-01710-045400FM-12+004499999V0200501N002112200019N0020001N1+02611+02371101051ADDAA199000091GF102991021011017501001001KA1240M+03131MA1999999100531MD1999999-0141REMSYN088AAXX  19004 82198 32795 20504 10261 20237 30053 40105 82100 333 10313 29084 55090 59014;EQDQ01  00002PRCP99
0186821980999992001031912004-01710-045400FM-12+004499999V0200501N003610450019N0100001N1+02891+02641101131ADDAA199000091GF105991031021017501061001KA1240N+02291MA1999999100621MD1999999-0051REMSYN076AAXX  19124 82198 32797 50507 10289 20264 30062 40113 83260 333 20229 59005;EQDQ01  00002PRCP99
0167821980999992001031918004-01710-045400FM-12+004499999V0200501N006212200019N0100001N1+03031+02441100791ADDAA199000091GF104991041021017501001001MA1999999100281MD1999999+0001REMSYN070AAXX  19184 82198 32797 40512 10303 20244 30028 40079 84200 333 58000;EQDQ01  00002PRCP99
0198821980999992001032000004-01710-045400FM-12+004499999V0200501N002612200019N0020001N1+02621+02331101071ADDAA199000091GF103991031001017501061001KA1240M+03171MA1999999100551MD1999999+0021REMSYN088AAXX  20004 82198 32795 30505 10262 20233 30055 40107 83060 333 10317 29084 55089 58002;EQDQ01  00002PRCP99
0186821980999992001032012004-01710-045400FM-12+004499999V0200901N002610150019N0100001N1+02951+02561101271ADDAA199000091GF106991051021017501001011KA1240N+02441MA1999999100761MD1999999+0141REMSYN076AAXX  20124 82198 32797 60905 10295 20256 30076 40127 85201 333 20244 58014;EQDQ01  00002PRCP99
0182821980999992001032018004-01710-045400FM-12+004499999V0200501N005110450019N0100001N1+02981+02471101031ADDAA106002091AY161061AY221061GF106991041021017501061001MA1999999100521MD1999999+0241MW1021REMSYN082AAXX  20184 82198 21797 60510 10298 20247 30052 40103 70262 84260 333 58024 60021;
0198821980999992001032100004-01710-045400FM-12+004499999V0200501N002612200019N0020001N1+02521+02401101191ADDAA199000091GF103991031001017501061001KA1240M+03181MA1999999100681MD1999999+0131REMSYN088AAXX  21004 82198 32795 30505 10252 20240 30068 40119 83060 333 10318 29083 55054 58013;EQDQ01  00002PRCP99
0173821980999992001032112004-01710-045400FM-12+004499999V0200501N003612200019N0100001N1+02971+02511101221ADDAA124002091GF105991041021017501001011KA1240N+02381MA1999999100711MD1999999-0051REMSYN082AAXX  21124 82198 22797 50507 10297 20251 30071 40122 84201 333 20238 59005 60024;
0198821980999992001032200004-01710-045400FM-12+004499999V0200501N003112200019N0020001N1+02661+02481101051ADDAA199000091GF103991031001017501061001KA1240M+03211MA1999999100541MD1999999-0141REMSYN088AAXX  22004 82198 32795 30506 10266 20248 30054 40105 83060 333 10321 29081 55076 59014;EQDQ01  00002PRCP99
0186821980999992001032212004-01710-045400FM-12+004499999V0200501N003610150019N0100001N1+02941+02521101091ADDAA199000091GF106991051021017501001011KA1240N+02481MA1999999100581MD1999999-0131REMSYN076AAXX  22124 82198 32797 60507 10294 20252 30058 40109 85201 333 20248 59013;EQDQ01  00002PRCP99
0167821980999992001032218004-01710-045400FM-12+004499999V0200501N004110450019N0100001N1+02811+02421100681ADDAA199000091GF108991041021017501041001MA1999999100171MD1999999-0211REMSYN070AAXX  22184 82198 32797 80508 10281 20242 30017 40068 84240 333 59021;EQDQ01  00002PRCP99
0198821980999992001032300004-01710-045400FM-12+004499999V0200501N003610150019N0020001N1+02631+02461100951ADDAA199000091GF108991051021017501041001KA1240M+03261MA1999999100441MD1999999-0101REMSYN088AAXX  23004 82198 32795 80507 10263 20246 30044 40095 85240 333 10326 29085 55060 59010;EQDQ01  00002PRCP99
0182821980999992001032318004-01710-045400FM-12+004499999V0200501N002110450019N0100001N1+02651+02311100831ADDAA106000191AY151061AY221061GF108991031011017501041001MA1999999100321MD1999999+0151MW1021REMSYN082AAXX  23184 82198 21797 80504 10265 20231 30032 40083 70252 83140 333 58015 69921;
0213821980999992001032400004-01710-045400FM-12+004499999V0200501N002110450019N0020001N1+02491+02411100971ADDAA106004191AY161061AY221061GF106991031051017501041001KA1240M+02791MA1999999100451MD1999999+0011MW1011REMSYN100AAXX  24004 82198 21795 60504 10249 20241 30045 40097 70162 83540 333 10279 29091 55001 58001 60041;
0201821980999992001032412004-01710-045400FM-12+004499999V0200501N002610150019N0100001N1+02371+02331101221ADDAA124013091AY161061AY251061GF108991051051017501021001KA1240N+02231MA1999999100701MD1999999+0151MW1021REMSYN088AAXX  24124 82198 21797 80505 10237 20233 30070 40122 70265 85520 333 20223 58015 60134;
0198821980999992001032500004-01710-045400FM-12+004499999V0200501N002110450019N0020001N1+02521+02431101131ADDAA199000091GF105991021051017501041001KA1240M+02741MA1999999100631MD1999999+0171REMSYN088AAXX  25004 82198 32795 50504 10252 20243 30063 40113 82540 333 10274 29094 55000 58017;EQDQ01  00002PRCP99
0173821980999992001032512004-01710-045400FM-12+004499999V0200901N003110150019N0100001N1+02791+02561101181ADDAA124000591GF107991061021017501001011KA1240N+02321MA1999999100671MD1999999-0031REMSYN082AAXX  25124 82198 22797 70906 10279 20256 30067 40118 86201 333 20232 59003 69944;
0198821980999992001032600004-01710-045400FM-12+004499999V0200501N003112200019N0020001N1+02631+02411101141ADDAA199000091GF103991031001017501061001KA1240M+03211MA1999999100631MD1999999+0011REMSYN088AAXX  26004 82198 32795 30506 10263 20241 30063 40114 83060 333 10321 29084 55072 58001;EQDQ01  00002PRCP99
0186821980999992001032612004-01710-045400FM-12+004499999V0200501N003612200019N0100001N1+02961+02601101121ADDAA199000091GF103991011021017501031011KA1240N+02411MA1999999100651MD1999999-0021REMSYN076AAXX  26124 82198 32797 30507 10296 20260 30065 40112 81231 333 20241 59002;EQDQ01  00002PRCP99
0167821980999992001032618004-01710-045400FM-12+004499999V0203201N001510450019N0100001N1+02701+02391101251ADDAA199000091GF108991041051017501061001MA1999999100731MD1999999+0031REMSYN070AAXX  26184 82198 32797 83203 10270 20239 30073 40125 84560 333 58003;EQDQ01  00002PRCP99
0182821980999992001032718004-01710-045400FM-12+004499999V0201401N001010450019N0100001N1+02861+02621100861ADDAA106001091AY151061AY221061GF108991041051017501061001MA1999999100351MD1999999-0111MW1021REMSYN082AAXX  27184 82198 21797 81402 10286 20262 30035 40086 70252 84560 333 59011 60011;
0198821980999992001032800004-01710-045400FM-12+004499999V0200501N002112200019N0020001N1+02641+02461101051ADDAA199000091GF102991021021017501001001KA1240M+03141MA1999999100531MD1999999-0071REMSYN088AAXX  28004 82198 32795 20504 10264 20246 30053 40105 82200 333 10314 29086 55020 59007;EQDQ01  00002PRCP99
0173821980999992001032812004-01710-045400FM-12+004499999V0200501N001510450019N0100001N1+02791+02581101171ADDAA124001091GF105991031021017501041011KA1240N+02341MA1999999100651MD1999999-0031REMSYN082AAXX  28124 82198 22797 50503 10279 20258 30065 40117 83241 333 20234 59003 60014;
0198821980999992001032900004-01710-045400FM-12+004499999V0200501N003112200019N0020001N1+02621+02421101081ADDAA199000091GF103991031021017501001001KA1240M+03111MA1999999100561MD1999999+0031REMSYN088AAXX  29004 82198 32795 30506 10262 20242 30056 40108 83200 333 10311 29085 55081 58003;EQDQ01  00002PRCP99
0201821980999992001032912004-01710-045400FM-12+004499999V0203201N001510450019N0100001N1+02611+02551101301ADDAA124001091AY161061AY221061GF107991041071017501061001KA1240N+02431MA1999999100781MD1999999+0131MW1031REMSYN088AAXX  29124 82198 21797 73203 10261 20255 30078 40130 70362 84760 333 20243 58013 69994;
0182821980999992001032918004-01710-045400FM-12+004499999V0203601N000510150019N0100001N1+02451+02371101061ADDAA106020191AY161061AY221061GF108991051071017501021001MA1999999100541MD1999999+0201MW1021REMSYN082AAXX  29184 82198 21797 83601 10245 20237 30054 40106 70262 85720 333 58020 60201;
0201821980999992001033012004-01710-045400FM-12+004499999V0202701N002110450019N0100001N1+02421+02371101411ADDAA124088991AY161061AY221061GF107991041051017501031011KA1240N+02231MA1999999100891MD1999999+0111MW1021REMSYN088AAXX  30124 82198 21797 72704 10242 20237 30089 40141 70262 84531 333 20223 58011 60894;
0182821980999992001033018004-01710-045400FM-12+004499999V0200501N002110450019N0100001N1+02321+02251101181ADDAA106039191AY161061AY291061GF108991041071017501061001MA1999999100661MD1999999+0121MW1201REMSYN082AAXX  30184 82198 21797 80504 10232 20225 30066 40118 72069 84760 333 58012 60391;
0213821980999992001033100004-01710-045400FM-12+004499999V0202301N001510450019N0020001N1+02311+02251101151ADDAA106000591AY161061AY221061GF106991041021017501011001KA1240M+02841MA1999999100631MD1999999-0161MW1011REMSYN100AAXX  31004 82198 21795 62303 10231 20225 30063 40115 70162 84210 333 10284 29096 55001 59016 69941;
0182821980999992001033118004-01710-045400FM-12+004499999V0203601N004610450019N0100001N1+02891+02291100871ADDAA106004191AY161061AY221061GF107991041021017501061001MA1999999100351MD1999999-0011MW1021REMSYN082AAXX  31184 82198 21797 73609 10289 20229 30035 40087 70262 84260 333 59001 60041;
0198821980999992001040100004-01710-045400FM-12+004499999V0200501N001010450019N0020001N1+02581+02481101131ADDAA199000091GF105991031021017501061001KA1240M+02951MA1999999100611MD1999999-0021REMSYN088AAXX  01004 82198 32795 50502 10258 20248 30061 40113 83260 333 10295 29089 55038 59002;EQDQ01  00002PRCP99
0182821980999992001040118004-01710-045400FM-12+004499999V0200501N007210450019N0100001N1+03001+02241100941ADDAA106000891AY161061AY221061GF106991031031017501041041MA1999999100421MD1999999+0071MW1021REMSYN082AAXX  01184 82198 21797 60514 10300 20224 30042 40094 70262 83344 333 58007 69971;
0198821980999992001040200004-01710-045400FM-12+004499999V0200501N002110150019N0020001N1+02671+02391101141ADDAA199000091GF106991061021017501001001KA1240M+03171MA1999999100621MD1999999+0011REMSYN088AAXX  02004 82198 32795 60504 10267 20239 30062 40114 86200 333 10317 29084 55075 58001;EQDQ01  00002PRCP99
0201821980999992001040212004-01710-045400FM-12+004499999V0200901N001510450019N0100001N1+02381+02211101391ADDAA124015091AY161061AY221061GF108991041051017501041001KA1240N+02251MA1999999100881MD1999999+0131MW1021REMSYN088AAXX  02124 82198 21797 80903 10238 20221 30088 40139 70262 84540 333 20225 58013 60154;
0182821980999992001040218004-01710-045400FM-12+004499999V0200501N001010150019N0100001N1+02431+02351101151ADDAA106009991AY161061AY221061GF108991051051017501021001MA1999999100641MD1999999+0221MW1021REMSYN082AAXX  02184 82198 21797 80502 10243 20235 30064 40115 70262 85520 333 58022 60101;
0198821980999992001040300004-01710-045400FM-12+004499999V0202301N001010450019N0020001N1+02341+02311101291ADDAA199000091GF108991041011017501031001KA1240M+02791MA1999999100781MD1999999+0161REMSYN088AAXX  03004 82198 32795 82302 10234 20231 30078 40129 84130 333 10279 29096 55012 58016;EQDQ01  00002PRCP99
0182821980999992001040318004-01710-045400FM-12+004499999V0209999C000010450019N0100001N1+03021+02441100961ADDAA106001091AY161061AY221061GF107991041021017501061001MA1999999100451MD1999999-0191MW1021REMSYN082AAXX  03184 82198 21797 70000 10302 20244 30045 40096 70262 84260 333 59019 60011;
0213821980999992001040400004-01710-045400FM-12+004499999V0203601N001010450019N0020001N1+02441+02341101261ADDAA124022191AY161061AY221061GF108991041051017501041001KA1240M+03101MA1999999100741MD1999999-0041MW1021REMSYN100AAXX  04004 82198 21795 83602 10244 20234 30074 40126 70262 84540 333 10310 29087 55054 59004 60224;
0201821980999992001040412004-01710-045400FM-12+004499999V0200901N001010450019N0100001N1+02621+02421101251ADDAA124025991AY161061AY221061GF106991031011017501061001KA1240N+02241MA1999999100741MD1999999-0071MW1011REMSYN088AAXX  04124 82198 21797 60902 10262 20242 30074 40125 70162 83160 333 20224 59007 60264;
0167821980999992001040418004-01710-045400FM-12+004499999V0200501N006710450019N0100001N1+02801+02311100871ADDAA199000091GF106991031021017501061001MA1999999100361MD1999999-0091REMSYN070AAXX  04184 82198 32797 60513 10280 20231 30036 40087 83260 333 59009;EQDQ01  00002PRCP99
0198821980999992001040500004-01710-045400FM-12+004499999V0203601N001510150019N0020001N1+02481+02301101091ADDAA199000091GF108991051021017501061001KA1240M+03151MA1999999100581MD1999999-0161REMSYN088AAXX  05004 82198 32795 83603 10248 20230 30058 40109 85260 333 10315 29086 55053 59016;EQDQ01  00002PRCP99
0186821980999992001040512004-01710-045400FM-12+004499999V0201401N002110450019N0100001N1+02511+02271101281ADDAA199000091GF107991041021017501061001KA1240N+02301MA1999999100761MD1999999+0021REMSYN076AAXX  05124 82198 32797 71404 10251 20227 30076 40128 84260 333 20230 58002;EQDQ01  00002PRCP99
0198821980999992001040600004-01710-045400FM-12+004499999V0209999C000010450019N0020001N1+02491+02361101201ADDAA199000091GF105991021011017501061001KA1240M+02911MA1999999100691MD1999999+0111REMSYN088AAXX  06004 82198 32795 50000 10249 20236 30069 40120 82160 333 10291 29088 55025 58011;EQDQ01  00002PRCP99
0173821980999992001040612004-01710-045400FM-12+004499999V0200501N003610150019N0100001N1+02851+02621101361ADDAA124000591GF108991051021017501061001KA1240N+02291MA1999999100851MD1999999+0091REMSYN082AAXX  06124 82198 22797 80507 10285 20262 30085 40136 85260 333 20229 58009 69954;
0182821980999992001040618004-01710-045400FM-12+004499999V0203601N001510450019N0100001N1+02491+02381101071ADDAA106005191AY161061AY221061GF108991041021017501041001MA1999999100561MD1999999+0141MW1021REMSYN082AAXX  06184 82198 21797 83603 10249 20238 30056 40107 70262 84240 333 58014 60051;
0198821980999992001040700004-01710-045400FM-12+004499999V0201401N001510450019N0020001N1+02461+02391101321ADDAA199000091GF105991011011017501061001KA1240M+02931MA1999999100801MD1999999+0111REMSYN088AAXX  07004 82198 32795 51403 10246 20239 30080 40132 81160 333 10293 29094 55018 58011;EQDQ01  00002PRCP99
0173821980999992001040712004-01710-045400FM-12+004499999V0200501N002610450019N0100001N1+02841+02521101351ADDAA124005191GF105991031021017501061001KA1240N+02231MA1999999100841MD1999999-0011REMSYN082AAXX  07124 82198 22797 50505 10284 20252 30084 40135 83260 333 20223 59001 60054;
0213821980999992001040800004-01710-045400FM-12+004499999V0209999C000010450019N0020001N1+02381+02311101241ADDAA106068191AY161061AY221061GF106991021021017501041001KA1240M+03141MA1999999100721MD1999999-0081MW1011REMSYN100AAXX  08004 82198 21795 60000 10238 20231 30072 40124 70162 82240 333 10314 29091 55049 59008 60681;
0173821980999992001040812004-01710-045400FM-12+004499999V0200901N001510450019N0100001N1+02541+02351101191ADDAA124111091GF108991041021017501061001KA1240N+02271MA1999999100671MD1999999-0171REMSYN082AAXX  08124 82198 22797 80903 10254 20235 30067 40119 84260 333 20227 59017 61114;
0182821980999992001040818004-01710-045400FM-12+004499999V0201401N003610150019N0100001N1+02741+02361100831ADDAA106001091AY161061AY221061GF108991051051017501021001MA1999999100321MD1999999-0221MW1021REMSYN082AAXX  08184 82198 21797 81407 10274 20236 30032 40083 70262 85520 333 59022 60011;
0213821980999992001040900004-01710-045400FM-12+004499999V0200901N001510450019N0020001N1+02441+02351101091ADDAA106009991AY161061AY221061GF107991031021017501041001KA1240M+03071MA1999999100581MD1999999-0141MW1011REMSYN100AAXX  09004 82198 21795 70903 10244 20235 30058 40109 70162 83240 333 10307 29090 55017 59014 60101;
0201821980999992001040912004-01710-045400FM-12+004499999V0200501N000510450019N0100001N1+02601+02351101131ADDAA124024991AY161061AY221061GF108991041051017501011001KA1240N+02311MA1999999100611MD1999999-0061MW1021REMSYN088AAXX  09124 82198 21797 80501 10260 20235 30061 40113 70262 84510 333 20231 59006 60254;
0213821980999992001041000004-01710-045400FM-12+004499999V0203201N002110150019N0020001N1+02431+02351101161ADDAA106017091AY161061AY221061GF108991051071017501021001KA1240M+03051MA1999999100651MD1999999+0071MW1211REMSYN100AAXX  10004 82198 21795 83204 10243 20235 30065 40116 72162 85720 333 10305 29088 55010 58007 60171;
0201821980999992001041012004-01710-045400FM-12+004499999V0203201N001010150019N0100001N1+02401+02331101271ADDAA124055991AY161061AY221061GF108991051051017501011001KA1240N+02251MA1999999100751MD1999999+0141MW1021REMSYN088AAXX  10124 82198 21797 83202 10240 20233 30075 40127 70262 85510 333 20225 58014 60564;
0167821980999992001041018004-01710-045400FM-12+004499999V0203201N002110450019N0100001N1+02961+02421100981ADDAA199000091GF106991031021017501041041MA1999999100461MD1999999+0161REMSYN070AAXX  10184 82198 32797 63204 10296 20242 30046 40098 83244 333 58016;EQDQ01  00002PRCP99
0198821980999992001041100004-01710-045400FM-12+004499999V0203201N001512200019N0020001N1+02591+02311101201ADDAA199000091GF103991031021017501001001KA1240M+03021MA1999999100681MD1999999+0031REMSYN088AAXX  11004 82198 32795 33203 10259 20231 30068 40120 83200 333 10302 29084 55012 58003;EQDQ01  00002PRCP99
0201821980999992001041112004-01710-045400FM-12+004499999V0202301N002110450019N0100001N1+02401+02371101441ADDAA124007191AY161061AY221061GF108991041071017501021001KA1240N+02321MA1999999100921MD1999999+0171MW1581REMSYN088AAXX  11124 82198 21797 82304 10240 20237 30092 40144 75862 84720 333 20232 58017 60074;
0182821980999992001041118004-01710-045400FM-12+004499999V0202301N001510150019N0100001N1+02601+02421101121ADDAA106004191AY161061AY221061GF108991051071017501061001MA1999999100601MD1999999+0141MW1581REMSYN082AAXX  11184 82198 21797 82303 10260 20242 30060 40112 75862 85760 333 58014 60041;
0173821980999992001041212004-01710-045400FM-12+004499999V0203601N001012200019N0100001N1+02641+02421101291ADDAA124004191GF103991011011017501041041KA1240N+02281MA1999999100771MD1999999-0151REMSYN082AAXX  12124 82198 22797 33602 10264 20242 30077 40129 81144 333 20228 59015 60044;
0195821980999992001041218004-01710-045400FM-12+004499999V0200501N004610450019N0100001N1+03041+02501100931ADDAA199000091AY111061AY221061GF106991031021017501041011MA1999999100411MD1999999-0191MW1291REMSYN076AAXX  12184 82198 31797 60509 10304 20250 30041 40093 72912 83241 333 59019;EQDQ01  00002PRCP99
0226821980999992001041300004-01710-045400FM-12+004499999V0200501N002612200019N0020001N1+02561+02361101111ADDAA199000091AY121061AY211061GF103991031021017501001001KA1240M+03231MA1999999100601MD1999999-0091MW1131REMSYN094AAXX  13004 82198 31795 30505 10256 20236 30060 40111 71321 83200 333 10323 29084 55070 59009;EQDQ01  00002PRCP99
0186821980999992001041312004-01710-045400FM-12+004499999V0202301N000510150019N0100001N1+02681+02501101171ADDAA199000091GF106991061021017501001001KA1240N+02311MA1999999100651MD1999999-0121REMSYN076AAXX  13124 82198 32797 62301 10268 20250 30065 40117 86200 333 20231 59012;EQDQ01  00002PRCP99
0167821980999992001041318004-01710-045400FM-12+004499999V0200501N006210450019N0100001N1+03091+02271100801ADDAA199000091GF106991031021017501061011MA1999999100281MD1999999-0131REMSYN070AAXX  13184 82198 32797 60512 10309 20227 30028 40080 83261 333 59013;EQDQ01  00002PRCP99
0201821980999992001041412004-01710-045400FM-12+004499999V0202701N001010450019N0100001N1+02281+02181101221ADDAA124093091AY161061AY221061GF108991041071017501021001KA1240N+02191MA1999999100701MD1999999+0051MW1201REMSYN088AAXX  14124 82198 21797 82702 10228 20218 30070 40122 72062 84720 333 20219 58005 60934;
0182821980999992001041418004-01710-045400FM-12+004499999V0203201N003110450019N0100001N1+02881+02291100921ADDAA106000591AY161061AY251061GF107991031021017501011041MA1999999100401MD1999999+0121MW1021REMSYN082AAXX  14184 82198 21797 73206 10288 20229 30040 40092 70265 83214 333 58012 69941;
0179821980999992001041500004-01710-045400FM-12+004499999V0203201N000510450019N0020001N1+02471+02311101221ADDAA199000021GF106991041071017501061001KA1240M+02981MA1999999100701MD1999999+0171REMSYN088AAXX  15004 82198 32795 63201 10247 20231 30070 40122 84760 333 10298 29090 55009 58017;
0182821980999992001041618004-01710-045400FM-12+004499999V0200501N001510450019N0100001N1+02531+02421101181ADDAA106039191AY161061AY221061GF108991031051017501021001MA1999999100671MD1999999+0141MW1521REMSYN082AAXX  16184 82198 21797 80503 10253 20242 30067 40118 75262 83520 333 58014 60391;
0201821980999992001041712004-01710-045400FM-12+004499999V0201401N001510450019N0100001N1+02751+02421101441ADDAA124039191AY151061AY221061GF106991031021017501061001KA1240N+02301MA1999999100921MD1999999+0011MW1031REMSYN088AAXX  17124 82198 21797 61403 10275 20242 30092 40144 70352 83260 333 20230 58001 60394;
0182821980999992001041718004-01710-045400FM-12+004499999V0200501N005710150019N0100001N1+02821+02421101061ADDAA106003091AY161061AY221061GF108991051021017501061001MA1999999100551MD1999999-0121MW1031REMSYN082AAXX  17184 82198 21797 80511 10282 20242 30055 40106 70362 85260 333 59012 60031;
0213821980999992001041800004-01710-045400FM-12+004499999V0202701N001012200019N0020001N1+02441+02301101241ADDAA106001091AY161061AY221061GF104991021011017501061001KA1240M+02971MA1999999100721MD1999999-0081MW1011REMSYN100AAXX  18004 82198 21795 42702 10244 20230 30072 40124 70162 82160 333 10297 29086 55038 59008 60011;
0201821980999992001041812004-01710-045400FM-12+004499999V0203201N001510180019N0100001N1+02421+02231101291ADDAA124016091AY161061AY221061GF108991051081017501041001KA1240N+02221MA1999999100781MD1999999-0141MW1031REMSYN088AAXX  18124 82198 21797 83203 10242 20223 30078 40129 70362 85840 333 20222 59014 60164;
0182821980999992001041818004-01710-045400FM-12+004499999V0203201N003610150019N0100001N1+02621+02391100941ADDAA106002091AY161061AY221061GF108991051051017501041001MA1999999100431MD1999999-0121MW1021REMSYN082AAXX  18184 82198 21797 83207 10262 20239 30043 40094 70262 85540 333 59012 60021;
0198821980999992001041900004-01710-045400FM-12+004499999V0203601N003110450019N0020001N1+02411+02301101231ADDAA199000091GF106991031051017501041001KA1240M+02701MA1999999100721MD1999999+0001REMSYN088AAXX  19004 82198 32795 63606 10241 20230 30072 40123 83540 333 10270 29091 55000 58000;EQDQ01  00002PRCP99
0173821980999992001041912004-01710-045400FM-12+004499999V0202701N001010450019N0100001N1+02571+02441101331ADDAA124002091GF106991031021017501031001KA1240N+02291MA1999999100821MD1999999+0041REMSYN082AAXX  19124 82198 22797 62702 10257 20244 30082 40133 83230 333 20229 58004 60024;
0182821980999992001041918004-01710-045400FM-12+004499999V0200501N005110450019N0100001N1+02841+02441100961ADDAA106009991AY161061AY221061GF108991041021017501061001MA1999999100451MD1999999+0021MW1031REMSYN082AAXX  19184 82198 21797 80510 10284 20244 30045 40096 70362 84260 333 58002 60101;
0213821980999992001042000004-01710-045400FM-12+004499999V0203201N001010150019N0020001N1+02421+02261101171ADDAA106000391AY161061AY221061GF108991051051017501021001KA1240M+02931MA1999999100661MD1999999-0061MW1031REMSYN100AAXX  20004 82198 21795 83202 10242 20226 30066 40117 70362 85520 333 10293 29088 55022 59006 69931;
0201821980999992001042012004-01710-045400FM-12+004499999V0202701N001510150019N0100001N1+02421+02351101391ADDAA124053191AY161061AY221061GF108991061051017501021001KA1240N+02301MA1999999100881MD1999999+0061MW1021REMSYN088AAXX  20124 82198 21797 82703 10242 20235 30088 40139 70262 86520 333 20230 58006 60534;
0167821980999992001042018004-01710-045400FM-12+004499999V0203601N002110150019N0100001N1+02761+02401101061ADDAA199000091GF108991051021017501061001MA1999999100551MD1999999+0101REMSYN070AAXX  20184 82198 32797 83604 10276 20240 30055 40106 85260 333 58010;EQDQ01  00002PRCP99
0198821980999992001042100004-01710-045400FM-12+004499999V0202701N001510450019N0020001N1+02461+02361101291ADDAA199000091GF108991041051017501041001KA1240M+02781MA1999999100781MD1999999+0121REMSYN088AAXX  21004 82198 32795 82703 10246 20236 30078 40129 84540 333 10278 29091 55000 58012;EQDQ01  00002PRCP99
0201821980999992001042112004-01710-045400FM-12+004499999V0201401N000510150019N0100001N1+02521+02381101441ADDAA124009991AY161061AY221061GF108991051021017501061001KA1240N+02271MA1999999100931MD1999999+0051MW1021REMSYN088AAXX  21124 82198 21797 81401 10252 20238 30093 40144 70262 85260 333 20227 58005 60104;
0167821980999992001042118004-01710-045400FM-12+004499999V0200501N003110450019N0100001N1+02861+02441100991ADDAA199000091GF107991041021017501061011MA1999999100481MD1999999-0071REMSYN070AAXX  21184 82198 32797 70506 10286 20244 30048 40099 84261 333 59007;EQDQ01  00002PRCP99
0198821980999992001042200004-01710-045400FM-12+004499999V0200501N002610450019N0020001N1+02521+02341101271ADDAA199000091GF108991031051017501041001KA1240M+03171MA1999999100761MD1999999-0021REMSYN088AAXX  22004 82198 32795 80505 10252 20234 30076 40127 83540 333 10317 29086 55038 59002;EQDQ01  00002PRCP99
0201821980999992001042212004-01710-045400FM-12+004499999V0200501N001510450019N0100001N1+02541+02381101281ADDAA106009991AY161061AY221061GF108991041021017501041001KA1240N+02311MA1999999100761MD1999999-0171MW1021REMSYN088AAXX  22124 82198 21797 80503 10254 20238 30076 40128 70262 84240 333 20231 59017 60101;
0167821980999992001042218004-01710-045400FM-12+004499999V0200901N003110150019N0100001N1+02791+02381100851ADDAA199000091GF108991051021017501061001MA1999999100341MD1999999-0141REMSYN070AAXX  22184 82198 32797 80906 10279 20238 30034 40085 85260 333 59014;EQDQ01  00002PRCP99
0198821980999992001042300004-01710-045400FM-12+004499999V0201401N001512200019N0020001N1+02521+02331101071ADDAA199000091GF103991031021017501001001KA1240M+02871MA1999999100561MD1999999-0201REMSYN088AAXX  23004 82198 32795 31403 10252 20233 30056 40107 83200 333 10287 29087 55014 59020;EQDQ01  00002PRCP99
0186821980999992001042312004-01710-045400FM-12+004499999V0201401N001510150019N0100001N1+02831+02481101191ADDAA199000091GF106991061021017501001001KA1240N+02351MA1999999100671MD1999999-0091REMSYN076AAXX  23124 82198 32797 61403 10283 20248 30067 40119 86200 333 20235 59009;EQDQ01  00002PRCP99
0182821980999992001042318004-01710-045400FM-12+004499999V0200501N003110450019N0100001N1+02861+02541100851ADDAA106009991AY161061AY221061GF106991041021017501061001MA1999999100331MD1999999-0011MW1211REMSYN082AAXX  23184 82198 21797 60506 10286 20254 30033 40085 72162 84260 333 59001 60101;
0179821980999992001042400004-01710-045400FM-12+004499999V0200901N001512200019N0020001N1+02541+02401101031ADDAA199000021GF103991021021017501061001KA1240M+03051MA1999999100511MD1999999-0051REMSYN088AAXX  24004 82198 32795 30903 10254 20240 30051 40103 82260 333 10305 29088 55062 59005;
0173821980999992001042412004-01710-045400FM-12+004499999V0200501N001010450019N0100001N1+02691+02421101211ADDAA124009991GF106991031021017501011011KA1240N+02391MA1999999100691MD1999999+0021REMSYN082AAXX  24124 82198 22797 60502 10269 20242 30069 40121 83211 333 20239 58002 60104;
0182821980999992001042418004-01710-045400FM-12+004499999V0200501N001510150019N0100001N1+02471+02351101021ADDAA106023991AY161061AY221061GF108991051051017501011001MA1999999100501MD1999999+0171MW1031REMSYN082AAXX  24184 82198 21797 80503 10247 20235 30050 40102 70362 85510 333 58017 60241;
0226821980999992001042500004-01710-045400FM-12+004499999V0203601N001510450019N0020001N1+02491+02351101291ADDAA199000091AY121061AY291061GF106991031021017501061001KA1240M+03201MA1999999100771MD1999999+0261MW1291REMSYN094AAXX  25004 82198 31795 63603 10249 20235 30077 40129 72929 83260 333 10320 29095 55021 58026;EQDQ01  00002PRCP99
0201821980999992001042512004-01710-045400FM-12+004499999V0201801N002610450019N0100001N1+02491+02091101441ADDAA124049091AY161061AY221061GF108991041051017501011001KA1240N+02181MA1999999100921MD1999999+0231MW1031REMSYN088AAXX  25124 82198 21797 81805 10249 20209 30092 40144 70362 84510 333 20218 58023 60494;
0167821980999992001042518004-01710-045400FM-12+004499999V0200901N002610450019N0100001N1+03081+02321999999ADDAA199000091GF106991041021017501041011MA1999999100591MD1999999+0091REMSYN070AAXX  25184 82198 32797 60905 10308 20232 30059 40/// 84241 333 58009;EQDQ01  00002PRCP99
0213821980999992001042600004-01710-045400FM-12+004499999V0200901N003110150019N0020001N1+02561+02421101351ADDAA106004191AY161061AY221061GF105991051021017501001001KA1240M+03151MA1999999100831MD1999999+0061MW1011REMSYN100AAXX  26004 82198 21795 50906 10256 20242 30083 40135 70162 85200 333 10315 29095 55046 58006 60041;
0173821980999992001042612004-01710-045400FM-12+004499999V0201401N000512200019N0100001N1+02921+02541101311ADDAA124004191GF105991031021017501001011KA1240N+02261MA1999999100791MD1999999-0131REMSYN082AAXX  26124 82198 22797 51401 10292 20254 30079 40131 83201 333 20226 59013 60044;
0182821980999992001042618004-01710-045400FM-12+004499999V0201401N002610450019N0100001N1+02521+02401101041ADDAA106024991AY161061AY291061GF107991041021017501011041MA1999999100121MD1999999-0071MW1031REMSYN082AAXX  26184 82198 21797 71405 10252 20240 30012 40104 70369 84214 333 59007 60251;
0226821980999992001042700004-01710-045400FM-12+004499999V0200501N002112200019N0020001N1+02541+02401101221ADDAA199000091AY121061AY211061GF102991021021017501001001KA1240M+03251MA1999999100701MD1999999-0131MW1031REMSYN094AAXX  27004 82198 31795 20504 10254 20240 30070 40122 70321 82200 333 10325 29089 55049 59013;EQDQ01  00002PRCP99
0201821980999992001042712004-01710-045400FM-12+004499999V0200501N002110150019N0100001N1+02471+02331101331ADDAA124024991AY151061AY221061GF108991061051017501011001KA1240N+02371MA1999999100811MD1999999+0021MW1031REMSYN088AAXX  27124 82198 21797 80504 10247 20233 30081 40133 70352 86510 333 20237 58002 60254;
0182821980999992001042718004-01710-045400FM-12+004499999V0200501N003112200019N0100001N1+02911+02341101011ADDAA106000591AY161061AY221061GF104991021021017501041091MA1999999100491MD1999999-0031MW1011REMSYN082AAXX  27184 82198 21797 40506 10291 20234 30049 40101 70162 82249 333 59003 69951;
0213821980999992001042800004-01710-045400FM-12+004499999V0200501N002110450019N0020001N1+02421+02351101261ADDAA106002091AY161061AY221061GF106991041021017501061001KA1240M+03021MA1999999100741MD1999999+0041MW1201REMSYN100AAXX  28004 82198 21795 60504 10242 20235 30074 40126 72062 84260 333 10302 29090 55036 58004 60021;
0201821980999992001042812004-01710-045400FM-12+004499999V0200901N002110450019N0100001N1+02811+02521101331ADDAA124007991AY161061AY221061GF106991031021017501041041KA1240N+02361MA1999999100811MD1999999+0001MW1021REMSYN088AAXX  28124 82198 21797 60904 10281 20252 30081 40133 70262 83244 333 20236 58000 60084;
0167821980999992001042818004-01710-045400FM-12+004499999V0200501N004610450019N0100001N1+02981+02401100991ADDAA199000091GF106991031021017501041041MA1999999100471MD1999999-0021REMSYN070AAXX  28184 82198 32797 60509 10298 20240 30047 40099 83244 333 59002;EQDQ01  00002PRCP99
0230821980999992001042900004-01710-045400FM-12+004499999V0200901N002112200019N0020001N1+02611+02421101221ADDAA199000091GF103991021001017501031011KA1240M+03051MA1999999999999MD1999999-0031REMSYN088AAXX  29004 82198 32795 30904 10261 20242 30701 40122 82031 333 10305 29084 55082 59003;EQDQ01+097013APOSP Q02  00002PRCP99Q03 097013APOSP 
0186821980999992001042912004-01710-045400FM-12+004499999V0201401N001510450019N0100001N1+02761+02521101281ADDAA199000091GF106991031011017501041061KA1240N+02391MA1999999100761MD1999999+0051REMSYN076AAXX  29124 82198 32797 61403 10276 20252 30076 40128 83146 333 20239 58005;EQDQ01  00002PRCP99
0167821980999992001042918004-01710-045400FM-12+004499999V0200501N003110450019N0100001N1+02951+02551100961ADDAA199000091GF106991031021017501041041MA1999999100441MD1999999-0031REMSYN070AAXX  29184 82198 32797 60506 10295 20255 30044 40096 83244 333 59003;EQDQ01  00002PRCP99
0198821980999992001043000004-01710-045400FM-12+004499999V0200501N002112200019N0020001N1+02611+02441101221ADDAA199000091GF103991021011017501031001KA1240M+03251MA1999999100701MD1999999-0011REMSYN088AAXX  30004 82198 32795 30504 10261 20244 30070 40122 82130 333 10325 29086 55069 59001;EQDQ01  00002PRCP99
0186821980999992001043012004-01710-045400FM-12+004499999V0200901N002110450019N0100001N1+02711+02541101191ADDAA199000091GF105991031021017501061001KA1240N+02311MA1999999100681MD1999999-0181REMSYN076AAXX  30124 82198 32797 50904 10271 20254 30068 40119 83260 333 20231 59018;EQDQ01  00002PRCP99
0167821980999992001043018004-01710-045400FM-12+004499999V0200501N004110450019N0100001N1+03041+02551100821ADDAA199000091GF106991041021017501061001MA1999999100311MD1999999-0131REMSYN070AAXX  30184 82198 32797 60508 10304 20255 30031 40082 84260 333 59013;EQDQ01  00002PRCP99
0198821980999992001050100004-01710-045400FM-12+004499999V0200501N003110450019N0020001N1+02591+02381101131ADDAA199000091GF107991031021017501061001KA1240M+03191MA1999999100621MD1999999-0081REMSYN088AAXX  01004 82198 32795 70506 10259 20238 30062 40113 83260 333 10319 29085 55073 59008;EQDQ01  00002PRCP99
0201821980999992001050112004-01710-045400FM-12+004499999V0200501N001510150019N0100001N1+02411+02231101291ADDAA124046091AY161061AY221061GF108991051051017501021001KA1240N+02321MA1999999100771MD1999999+0091MW1021REMSYN088AAXX  01124 82198 21797 80503 10241 20223 30077 40129 70262 85520 333 20232 58009 60464;
0182821980999992001050118004-01710-045400FM-12+004499999V0200501N002110450019N0100001N1+02801+02501100891ADDAA106002091AY161061AY221061GF108991041021017501061001MA1999999100381MD1999999+0071MW1021REMSYN082AAXX  01184 82198 21797 80504 10280 20250 30038 40089 70262 84260 333 58007 60021;
0198821980999992001050200004-01710-045400FM-12+004499999V0200501N003610450019N0020001N1+02591+02421101171ADDAA199000091GF108991031021017501061001KA1240M+02851MA1999999100651MD1999999+0031REMSYN088AAXX  02004 82198 32795 80507 10259 20242 30065 40117 83260 333 10285 29089 55000 58003;EQDQ01  00002PRCP99
0173821980999992001050212004-01710-045400FM-12+004499999V0200901N004610150019N0100001N1+02901+02561101261ADDAA124002091GF106991061021017501001001KA1240N+02361MA1999999100751MD1999999-0021REMSYN082AAXX  02124 82198 22797 60909 10290 20256 30075 40126 86200 333 20236 59002 60024;
0167821980999992001050218004-01710-045400FM-12+004499999V0200501N005110150019N0100001N1+03181+02441100971ADDAA199000091GF106991051021017501001011MA1999999100461MD1999999+0081REMSYN070AAXX  02184 82198 32797 60510 10318 20244 30046 40097 85201 333 58008;EQDQ01  00002PRCP99
0213821980999992001050500004-01710-045400FM-12+004499999V0201401N000510150019N0020001N1+02391+02281101161ADDAA106047091AY161061AY221061GF106991061021017501001001KA1240M+02951MA1999999100641MD1999999-0041MW1021REMSYN100AAXX  05004 82198 21795 61401 10239 20228 30064 40116 70262 86200 333 10295 29092 55021 59004 60471;
0173821980999992001050512004-01710-045400FM-12+004499999V0202301N001010450019N0100001N1+02521+02381101131ADDAA124059991GF106991021021017501031001KA1240N+02281MA1999999100621MD1999999-0061REMSYN082AAXX  05124 82198 22797 62302 10252 20238 30062 40113 82230 333 20228 59006 60604;
0167821980999992001050518004-01710-045400FM-12+004499999V0200501N006210450019N0100001N1+02951+02561100741ADDAA199000091GF106991031021017501061001MA1999999100231MD1999999-0151REMSYN070AAXX  05184 82198 32797 60512 10295 20256 30023 40074 83260 333 59015;EQDQ01  00002PRCP99
0173821980999992001050612004-01710-045400FM-12+004499999V0200501N004110450019N0100001N1+02871+02461101221ADDAA124000591GF107991041021017501061011KA1240N+02421MA1999999100701MD1999999+0081REMSYN082AAXX  06124 82198 22797 70508 10287 20246 30070 40122 84261 333 20242 58008 69964;
0182821980999992001050618004-01710-045400FM-12+004499999V0200501N004110450019N0100001N1+02831+02501100881ADDAA106005191AY161061AY221061GF106991041021017501061001MA1999999100371MD1999999+0141MW1021REMSYN082AAXX  06184 82198 21797 60508 10283 20250 30037 40088 70262 84260 333 58014 60051;
0198821980999992001050700004-01710-045400FM-12+004499999V0200501N002612200019N0020001N1+02611+02461101191ADDAA199000091GF105991021001017501061011KA1240M+03041MA1999999100681MD1999999+0101REMSYN088AAXX  07004 82198 32795 50505 10261 20246 30068 40119 82061 333 10304 29086 55052 58010;EQDQ01  00002PRCP99
0201821980999992001050712004-01710-045400FM-12+004499999V0201401N003610450019N0100001N1+02751+02581101241ADDAA124017091AY161061AY221061GF107991041021017501031011KA1240N+02371MA1999999100721MD1999999+0021MW1031REMSYN088AAXX  07124 82198 21797 71407 10275 20258 30072 40124 70362 84231 333 20237 58002 60174;
0167821980999992001050718004-01710-045400FM-12+004499999V0200501N002110450019N0100001N1+03011+02391100911ADDAA199000091GF106991031021017501011011MA1999999100391MD1999999+0021REMSYN070AAXX  07184 82198 32797 60504 10301 20239 30039 40091 83211 333 58002;EQDQ01  00002PRCP99
0198821980999992001050800004-01710-045400FM-12+004499999V0200501N003110450019N0020001N1+02631+02401101081ADDAA199000091GF107991041021017501011001KA1240M+03161MA1999999100571MD1999999-0111REMSYN088AAXX  08004 82198 32795 70506 10263 20240 30057 40108 84210 333 10316 29084 55062 59011;EQDQ01  00002PRCP99
0186821980999992001050812004-01710-045400FM-12+004499999V0200501N004110150019N0100001N1+02941+02521101191ADDAA199000091GF106991061021017501001001KA1240N+02501MA1999999100671MD1999999-0051REMSYN076AAXX  08124 82198 32797 60508 10294 20252 30067 40119 86200 333 20250 59005;EQDQ01  00002PRCP99
0167821980999992001050818004-01710-045400FM-12+004499999V0200501N005112200019N0100001N1+03121+02431100901ADDAA199000091GF104991031021017501001041MA1999999100381MD1999999-0011REMSYN070AAXX  08184 82198 32797 40510 10312 20243 30038 40090 83204 333 59001;EQDQ01  00002PRCP99
0198821980999992001050900004-01710-045400FM-12+004499999V0200901N002610450019N0020001N1+02641+02411101081ADDAA199000091GF106991031021017501011011KA1240M+03201MA1999999100561MD1999999-0011REMSYN088AAXX  09004 82198 32795 60905 10264 20241 30056 40108 83211 333 10320 29080 55088 59001;EQDQ01  00002PRCP99
0186821980999992001050912004-01710-045400FM-12+004499999V0200901N004012200019N0100001N1+02961+02471101101ADDAA199000091GF103991031021017501001001KA1240N+02461MA1999999100591MD1999999-0081REMSYN076AAXX  09120 82198 32797 30904 10296 20247 30059 40110 83200 333 20246 59008;EQDQ01  00002PRCP99
0167821980999992001050918004-01710-045400FM-12+004499999V0200501N004612200019N0100001N1+03111+02421100821ADDAA199000091GF103991031021017501001001MA1999999100301MD1999999-0081REMSYN070AAXX  09184 82198 32797 30509 10311 20242 30030 40082 83200 333 59008;EQDQ01  00002PRCP99
0198821980999992001051000004-01710-045400FM-12+004499999V0200501N003112200019N0020001N1+02661+02441101001ADDAA199000091GF102991021021017501001011KA1240M+03211MA1999999100481MD1999999-0081REMSYN088AAXX  10004 82198 32795 20506 10266 20244 30048 40100 82201 333 10321 29080 55094 59008;EQDQ01  00002PRCP99
0186821980999992001051012004-01710-045400FM-12+004499999V0200501N004612200019N0100001N1+02881+02391101111ADDAA199000091GF105991031021017501001011KA1240N+02531MA1999999100601MD1999999+0011REMSYN076AAXX  10124 82198 32797 50509 10288 20239 30060 40111 83201 333 20253 58001;EQDQ01  00002PRCP99
0182821980999992001051018004-01710-045400FM-12+004499999V0200501N003612200019N0100001N1+02961+02461100861ADDAA106004191AY161061AY221061GF106991031021017501001011MA1999999100341MD1999999-0041MW1031REMSYN082AAXX  10184 82198 21797 60507 10296 20246 30034 40086 70362 83201 333 59004 60041;
0185821980999992001051100004-01710-045400FM-12+004499999V0200501N002610150019N0020001N1+02641+02411101071ADDAA106001091GF105991051021017501001001KA1240M+03281MA1999999100561MD1999999+0081REMSYN094AAXX  11004 82198 21795 50505 10264 20241 30056 40107 85200 333 10328 29081 55061 58008 60011;
0173821980999992001051112004-01710-045400FM-12+004499999V0200501N003110150019N0100001N1+02941+02451101251ADDAA124005191GF106991061021017501001001KA1240N+02461MA1999999100731MD1999999+0131REMSYN082AAXX  11124 82198 22797 60506 10294 20245 30073 40125 86200 333 20246 58013 60054;
0167821980999992001051118004-01710-045400FM-12+004499999V0200501N003110450019N0100001N1+02941+02401100991ADDAA199000091GF107991041021017501061001MA1999999100471MD1999999+0131REMSYN070AAXX  11184 82198 32797 70506 10294 20240 30047 40099 84260 333 58013;EQDQ01  00002PRCP99
0225821980999992001051200004-01710-045400FM-12+004499999V0200501N002612200019N0020001N1+02611+02401101201ADDAA199000091AY121061AY211061GF103991031021017501001001KA1240M+03191MA1999999100691MD1999999+0131MW1131REMSYN093AAXX  12004 82198 31795 30505 10261 20240 30069 40120 71321 83200 333 10319 29082 5506658013;EQDQ01  00002PRCP99
0202821980999992001051212004-01710-045400FM-12+004499999V0200901N002611050019N0100001N1+02911+02501101311ADDAA199000091GF105991021021017501041011KA1240N+02341MA1999999999999MD1999999+0071REMSYN076AAXX  12124 82198 32797 50905 10291 20250 3080/ 40131 82241 333 20234 58007;EQDQ01  00002PRCP99Q02 098003APOSP 
0183821980999992001051218004-01710-045400FM-12+004499999V0200501N005710450019N0100001N1+03121+02361101031ADDAA199000091GF105991041021017501041011MA1999999100522MD1999999+0051REMSYN070AAXX  12184 82198 32797 50511 10312 20236 30052 40103 84241 333 58005;EQDQ01+100523APOSP Q02  00002PRCP99
0198821980999992001051300004-01710-045400FM-12+004499999V0201401N002612200019N0020001N1+02641+02461101331ADDAA199000091GF103991031021017501001001KA1240M+03221MA1999999100821MD1999999+0131REMSYN088AAXX  13004 82198 32795 31405 10264 20246 30082 40133 83200 333 10322 29080 55085 58013;EQDQ01  00002PRCP99
0186821980999992001051312004-01710-045400FM-12+004499999V0200901N004110150019N0100001N1+02941+02521101351ADDAA199000091GF105991051021017501001001KA1240N+02491MA1999999100841MD1999999+0041REMSYN076AAXX  13124 82198 32797 50908 10294 20252 30084 40135 85200 333 20249 58004;EQDQ01  00002PRCP99
0167821980999992001051318004-01710-045400FM-12+004499999V0200501N004112200019N0100001N1+03171+02461101161ADDAA199000091GF103991031021017501001001MA1999999100551MD1999999+0031REMSYN070AAXX  13184 82198 32797 30508 10317 20246 30055 40116 83200 333 58003;EQDQ01  00002PRCP99
0186821980999992001051412004-01710-045400FM-12+004499999V0200901N004610150019N0100001N1+02981+02681101251ADDAA199000091GF107991071021017501001001KA1240N+02491MA1999999100741MD1999999-0101REMSYN076AAXX  14124 82198 32797 70909 10298 20268 30074 40125 87200 333 20249 59010;EQDQ01  00002PRCP99
