0198822800999992001010100004-02530-044280FM-12+005199999V02099999999992200019N0100001N1+02621+02391101131ADDAA199000091GF103991011021004501031001KA1240M+03251MA1999999100551MD1999999+0111REMSYN088AAXX  01004 82280 32497 3//// 10262 20239 30055 40113 81230 333 10325 29084 55093 58011;EQDQ01  00002PRCP99
0186822800999992001010112004-02530-044280FM-12+005199999V02099999999990450019N0100001N1+02791+02481101221ADDAA199000091GF108991041021004501011999KA1240N+02401MA1999999100641MD1999999+0001REMSYN076AAXX  01124 82280 32497 8//// 10279 20248 30064 40122 8421/ 333 20240 58000;EQDQ01  00002PRCP99
0167822800999992001010118004-02530-044280FM-12+005199999V02099999999990450019N0100001N1+03021+02481100971ADDAA199000091GF106991031051004501051001MA1999999100391MD1999999+0001REMSYN070AAXX  01184 82280 32497 6//// 10302 20248 30039 40097 83550 333 58000;EQDQ01  00002PRCP99
0198822800999992001010200004-02530-044280FM-12+005199999V02099999999990450019N0100001N1+02601+02511101191ADDAA199000091GF108991021061004501071999KA1240M+03101MA1999999100611MD1999999+0061REMSYN088AAXX  02004 82280 32497 8//// 10260 20251 30061 40119 8267/ 333 10310 29086 55014 58006;EQDQ01  00002PRCP99
0186822800999992001010212004-02530-044280FM-12+005199999V02099999999990450019N0100001N1+02691+02391101151ADDAA199000091GF107991041051004501031999KA1240N+02491MA1999999100571MD1999999-0071REMSYN076AAXX  02124 82280 32497 7//// 10269 20239 30057 40115 8453/ 333 20249 59007;EQDQ01  00002PRCP99
0167822800999992001010218004-02530-044280FM-12+005199999V02099999999992200019N0100001N1+02931+02541100931ADDAA199000091GF104991031051004501021001MA1999999100311MD1999999+0041REMSYN070AAXX  02184 82280 32497 4//// 10293 20254 30031 40093 83520 333 58004;EQDQ01  00002PRCP99
0198822800999992001010300004-02530-044280FM-12+005199999V02099999999992200019N0100001N1+02621+02481101171ADDAA199000091GF104991011021004501031001KA1240M+03161MA1999999100591MD1999999-0021REMSYN088AAXX  03004 82280 32497 4//// 10262 20248 30059 40117 81230 333 10316 29084 55049 59002;EQDQ01  00002PRCP99
0167822800999992001010318004-02530-044280FM-12+005199999V02099999999990042019N0100001N1+02821+02541100951ADDAA199000091GF108991051051004501021999MA1999999100371MD1999999+0021REMSYN070AAXX  03184 82280 32497 8//// 10282 20254 30037 40095 8552/ 333 58002;EQDQ01  00002PRCP99
0201822800999992001010412004-02530-044280FM-12+005199999V02099999999990450019N0040001N1+02281+02191101331ADDAA124065091AY191061AY261061GF108991041071004501021999KA1240N+02211MA1999999100741MD1999999+0101MW1031REMSYN088AAXX  04124 82280 21496 8//// 10228 20219 30074 40133 70396 8472/ 333 20221 58010 60654;
0182822800999992001010418004-02530-044280FM-12+005199999V02099999999990450019N0100001N1+02721+02451100961ADDAA106003091AY161061AY221061GF108991031051008001071999MA1999999100381MD1999999+0011MW1021REMSYN082AAXX  04184 82280 21597 8//// 10272 20245 30038 40096 70262 8357/ 333 58001 60031;
0198822800999992001010500004-02530-044280FM-12+005199999V02099999999990075019N0100001N1+02521+02451101181ADDAA199000091GF108991081051008001999999KA1240M+02761MA1999999100601MD1999999+0061REMSYN088AAXX  05004 82280 32597 8//// 10252 20245 30060 40118 885// 333 10276 29088 55001 58006;EQDQ01  00002PRCP99
0173822800999992001010512004-02530-044280FM-12+005199999V02099999999990042019N0100001N1+02841+02521101231ADDAA124003091GF106991051021004501031001KA1240N+02321MA1999999100651MD1999999-0091REMSYN082AAXX  05124 82280 22497 6//// 10284 20252 30065 40123 85230 333 20232 59009 60034;
0167822800999992001010518004-02530-044280FM-12+005199999V02099999999990450019N0100001N1+02961+02601100911ADDAA199000091GF107991041021004501051001MA1999999100331MD1999999-0051REMSYN070AAXX  05184 82280 32497 7//// 10296 20260 30033 40091 84250 333 59005;EQDQ01  00002PRCP99
0198822800999992001010600004-02530-044280FM-12+005199999V02099999999990450019N0100001N1+02581+02251100981ADDAA199000091GF107991041051004501021001KA1240M+03121MA1999999100401MD1999999-0201REMSYN088AAXX  06004 82280 32497 7//// 10258 20225 30040 40098 84520 333 10312 29085 55058 59020;EQDQ01  00002PRCP99
0186822800999992001010612004-02530-044280FM-12+005199999V02099999999990450019N0100001N1+02881+02411101151ADDAA199000091GF107991041021004501031021KA1240N+02291MA1999999100571MD1999999-0081REMSYN076AAXX  06124 82280 32497 7//// 10288 20241 30057 40115 84232 333 20229 59008;EQDQ01  00002PRCP99
0167822800999992001010618004-02530-044280FM-12+005199999V02099999999990450019N0100001N1+03001+02511100861ADDAA199000091GF106991041021004501031001MA1999999100281MD1999999-0051REMSYN070AAXX  06184 82280 32497 6//// 10300 20251 30028 40086 84230 333 59005;EQDQ01  00002PRCP99
0198822800999992001010700004-02530-044280FM-12+005199999V02099999999992200019N0100001N1+02601+02501100981ADDAA199000091GF103991011011008001001021KA1240M+03101MA1999999100401MD1999999+0001REMSYN088AAXX  07004 82280 32597 3//// 10260 20250 30040 40098 81102 333 10310 29084 55077 58000;EQDQ01  00002PRCP99
0201822800999992001010712004-02530-044280FM-12+005199999V02099999999990042019N0040001N1+02501+02451101141ADDAA124035191AY161061AY221061GF108991061071004501021999KA1240N+02391MA1999999100561MD1999999-0011MW1601REMSYN088AAXX  07124 82280 21496 8//// 10250 20245 30056 40114 76062 8672/ 333 20239 59001 60354;
0182822800999992001010718004-02530-044280FM-12+005199999V02099999999990042019N0100001N1+02551+02491100921ADDAA106019191AY161061AY221061GF108991051061004501021999MA1999999100341MD1999999+0061MW1021REMSYN082AAXX  07184 82280 21497 8//// 10255 20249 30034 40092 70262 8562/ 333 58006 60191;
0213822800999992001010800004-02530-044280FM-12+005199999V02099999999990042019N0100001N1+02381+02261101121ADDAA106004191AY161061AY221061GF108991061061004501021999KA1240M+02691MA1999999100541MD1999999+0101MW1161REMSYN100AAXX  08004 82280 21497 8//// 10238 20226 30054 40112 71662 8662/ 333 10269 29094 55000 58010 60041;
0201822800999992001010812004-02530-044280FM-12+005199999V02099999999990450019N0100001N1+02841+02501101051ADDAA124024991AY161061AY221061GF106991041021004501031001KA1240N+02251MA1999999100471MD1999999-0091MW1011REMSYN088AAXX  08124 82280 21497 6//// 10284 20250 30047 40105 70162 84230 333 20225 59009 60254;
0167822800999992001010818004-02530-044280FM-12+005199999V02099999999990042019N0100001N1+02901+02501100781ADDAA199000091GF106991051021004501011001MA1999999100201MD1999999-0141REMSYN070AAXX  08184 82280 32497 6//// 10290 20250 30020 40078 85210 333 59014;EQDQ01  00002PRCP99
0186822800999992001010912004-02530-044280FM-12+005199999V02099999999990042019N0100001N1+02701+02411101111ADDAA199000091GF108991051061004501051999KA1240N+02391MA1999999100531MD1999999+0061REMSYN076AAXX  09124 82280 32497 8//// 10270 20241 30053 40111 8565/ 333 20239 58006;EQDQ01  00002PRCP99
0182822800999992001010918004-02530-044280FM-12+005199999V02099999999990042019N0100001N1+02621+02501100951ADDAA106006191AY161061AY221061GF108991051051004501031999MA1999999100371MD1999999+0171MW1021REMSYN082AAXX  09184 82280 21497 8//// 10262 20250 30037 40095 70262 8553/ 333 58017 60061;
0213822800999992001011000004-02530-044280FM-12+005199999V02099999999990450019N0100001N1+02501+02451100581ADDAA106000891AY161061AY221061GF108991041021004501021001KA1240M+02921MA1999999100401MD1999999-0041MW1021REMSYN100AAXX  10004 82280 21497 8//// 10250 20245 30040 40058 70262 84220 333 10292 29092 55021 59004 69981;
0201822800999992001011012004-02530-044280FM-12+005199999V02099999999990042019N0100001N1+02691+02431101101ADDAA124013091AY161061AY221061GF108991061061004501051999KA1240N+02361MA1999999100521MD1999999-0011MW1011REMSYN088AAXX  10124 82280 21497 8//// 10269 20243 30052 40110 70162 8665/ 333 20236 59001 60134;
0182822800999992001011018004-02530-044280FM-12+005199999V02099999999990042019N0100001N1+02801+02481100981ADDAA106000191AY161061AY221061GF108991061061004501051999MA1999999100321MD1999999-0051MW1021REMSYN082AAXX  10184 82280 21497 8//// 10280 20248 30032 40098 70262 8665/ 333 59005 69911;
0213822800999992001011100004-02530-044280FM-12+005199999V02099999999990042019N0020001N1+02301+02221101171ADDAA106014091AY161061AY221061GF108991081071004501999999KA1240M+02971MA1999999100591MD1999999+0191MW1951REMSYN100AAXX  11004 82280 21495 8//// 10230 20222 30059 40117 79562 887// 333 10297 29089 55011 58019 60141;
0201822800999992001011112004-02530-044280FM-12+005199999V02099999999990042019N0100001N1+02701+02451101221ADDAA124016091AY161061AY221061GF108991061051004501031999KA1240N+02221MA1999999100641MD1999999+0121MW1011REMSYN088AAXX  11124 82280 21497 8//// 10270 20245 30064 40122 70162 8653/ 333 20222 58012 60164;
0167822800999992001011118004-02530-044280FM-12+005199999V02099999999990042019N0100001N1+02741+02381101061ADDAA199000091GF108991071051004501031999MA1999999100481MD1999999+0161REMSYN070AAXX  11184 82280 32497 8//// 10274 20238 30048 40106 8753/ 333 58016;EQDQ01  00002PRCP99
0213822800999992001011200004-02530-044280FM-12+005199999V02099999999990042019N0020001N1+02241+02211101151ADDAA106016091AY161061AY221061GF108991061071004501031999KA1240M+02961MA1999999100571MD1999999-0021MW1951REMSYN100AAXX  12004 82280 21495 8//// 10224 20221 30057 40115 79562 8673/ 333 10296 29090 55025 59002 60161;
0201822800999992001011212004-02530-044280FM-12+005199999V02099999999990042019N0100001N1+02401+02351101201ADDAA124023991AY161061AY221061GF108991071061004501021999KA1240N+02141MA1999999100611MD1999999-0031MW1021REMSYN088AAXX  12124 82280 21497 8//// 10240 20235 30061 40120 70262 8762/ 333 20214 59003 60244;
0167822800999992001011218004-02530-044280FM-12+005199999V02099999999990042019N0100001N1+02761+02441100911ADDAA199000091GF108991061021004501051999MA1999999100331MD1999999-0151REMSYN070AAXX  12184 82280 32497 8//// 10276 20244 30033 40091 8625/ 333 59015;EQDQ01  00002PRCP99
0213822800999992001011300004-02530-044280FM-12+005199999V02099999999990042019N0100001N1+02381+02281101071ADDAA106000191AY121061AY221061GF108991061051004501031999KA1240M+02971MA1999999100491MD1999999-0081MW1211REMSYN100AAXX  13004 82280 21497 8//// 10238 20228 30049 40107 72122 8653/ 333 10297 29092 55026 59008 69921;
0201822800999992001011312004-02530-044280FM-12+005199999V02099999999990450019N0100001N1+02421+02281101291ADDAA124002091AY161061AY221061GF106991031021004501031041KA1240N+02101MA1999999100701MD1999999+0091MW1011REMSYN088AAXX  13124 82280 21497 6//// 10242 20228 30070 40129 70162 83234 333 20210 58009 60024;
0167822800999992001011318004-02530-044280FM-12+005199999V02099999999990450019N0100001N1+02861+02501100941ADDAA199000091GF106991031051004501031051MA1999999100361MD1999999+0031REMSYN070AAXX  13184 82280 32497 6//// 10286 20250 30036 40094 83535 333 58003;EQDQ01  00002PRCP99
0213822800999992001011400004-02530-044280FM-12+005199999V02099999999992200019N0100001N1+02421+02351101141ADDAA106000191AY191061AY261061GF102991021001012501031001KA1240M+03201MA1999999100561MD1999999+0071MW1011REMSYN100AAXX  14004 82280 21697 2//// 10242 20235 30056 40114 70196 82030 333 10320 29063 55091 58007 69921;
0173822800999992001011412004-02530-044280FM-12+005199999V02099999999990450019N0100001N1+02761+02361101141ADDAA124000191GF107991011011008001051021KA1240N+02301MA1999999100561MD1999999-0141REMSYN082AAXX  14124 82280 22597 7//// 10276 20236 30056 40114 81152 333 20230 59014 69924;
0182822800999992001011418004-02530-044280FM-12+005199999V02099999999990042019N0100001N1+02661+02461100901ADDAA106002091AY161061AY221061GF108991051051004501021999MA1999999100321MD1999999-0041MW1021REMSYN082AAXX  14184 82280 21497 8//// 10266 20246 30032 40090 70262 8552/ 333 59004 60021;
0198822800999992001011500004-02530-044280FM-12+005199999V02099999999992200019N0100001N1+02501+02451101041ADDAA199000091GF102991021011008001001001KA1240M+03051MA1999999100461MD1999999-0101REMSYN088AAXX  15004 82280 32597 2//// 10250 20245 30046 40104 82100 333 10305 29090 55050 59010;EQDQ01  00002PRCP99
0201822800999992001011512004-02530-044280FM-12+005199999V02099999999990042019N0100001N1+02791+02481101121ADDAA124002091AY161061AY221061GF108991061051004501031999KA1240N+02401MA1999999100541MD1999999-0021MW1011REMSYN088AAXX  15124 82280 21497 8//// 10279 20248 30054 40112 70162 8653/ 333 20240 59002 60024;
0195822800999992001011518004-02530-044280FM-12+005199999V02099999999990042019N0100001N1+02801+02461100881ADDAA199000091AY121061AY221061GF108991071061004501051999MA1999999100301MD1999999-0021MW1171REMSYN076AAXX  15184 82280 31497 8//// 10280 20246 30030 40088 71722 8765/ 333 59002;EQDQ01  00002PRCP99
0213822800999992001011600004-02530-044280FM-12+005199999V02099999999990042019N0100001N1+02421+02391101111ADDAA106023191AY191061AY261061GF108991051061004501051999KA1240M+02881MA1999999100531MD1999999+0071MW1211REMSYN100AAXX  16004 82280 21497 8//// 10242 20239 30053 40111 72196 8565/ 333 10288 29091 55020 58007 60231;
0173822800999992001011612004-02530-044280FM-12+005199999V02099999999990450019N0100001N1+02711+02411101171ADDAA124023191GF106991041021004501031011KA1240N+02291MA1999999100591MD1999999+0051REMSYN082AAXX  16124 82280 22497 6//// 10271 20241 30059 40117 84231 333 20229 58005 60234;
0195822800999992001011618004-02530-044280FM-12+005199999V02099999999990450019N0100001N1+02781+02621100871ADDAA199000091AY121061AY211061GF106991031091004501021081MA1999999100291MD1999999-0011MW1161REMSYN076AAXX  16184 82280 31497 6//// 10278 20262 30029 40087 71621 83928 333 59001;EQDQ01  00002PRCP99
0198822800999992001011700004-02530-044280FM-12+005199999V02099999999992200019N0100001N1+02521+02451101081ADDAA199000091GF102991011021004501001011KA1240M+03081MA1999999100501MD1999999-0031REMSYN088AAXX  17004 82280 32497 2//// 10252 20245 30050 40108 81201 333 10308 29092 55063 59003;EQDQ01  00002PRCP99
0186822800999992001011712004-02530-044280FM-12+005199999V02099999999990042019N0100001N1+02721+02451101101ADDAA199000091GF108991051021004501051999KA1240N+02291MA1999999100521MD1999999-0071REMSYN076AAXX  17124 82280 32497 8//// 10272 20245 30052 40110 8525/ 333 20229 59007;EQDQ01  00002PRCP99
0167822800999992001011718004-02530-044280FM-12+005199999V02099999999990042019N0100001N1+03061+02541100891ADDAA199000091GF105991051021004501001001MA1999999100311MD1999999+0021REMSYN070AAXX  17184 82280 32497 5//// 10306 20254 30031 40089 85200 333 58002;EQDQ01  00002PRCP99
0208822800999992001011800004-02530-044280FM-12+005199999V02099999999992200019N0100001N1+02581+02441101111ADDAA199000091GA1001+999999999GF100991001001999999001001KA1240M+03161MA1999999100531MD1999999+0031REMSYN082AAXX  18004 82280 32997 0//// 10258 20244 30053 40111 333 10316 29085 55059 58003;EQDQ01  00002PRCP99
0186822800999992001011812004-02530-044280FM-12+005199999V02099999999990042019N0100001N1+02751+02461101131ADDAA199000091GF108991061021004501051999KA1240N+02271MA1999999100551MD1999999+0031REMSYN076AAXX  18124 82280 32497 8//// 10275 20246 30055 40113 8625/ 333 20227 58003;EQDQ01  00002PRCP99
0167822800999992001011818004-02530-044280FM-12+005199999V02099999999990450019N0100001N1+02981+02491100871ADDAA199000091GF106991031021004501031021MA1999999100291MD1999999-0021REMSYN070AAXX  18184 82280 32497 6//// 10298 20249 30029 40087 83232 333 59002;EQDQ01  00002PRCP99
0198822800999992001011900004-02530-044280FM-12+005199999V02099999999992200019N0100001N1+02601+02421101171ADDAA199000091GF101991011011008001001001KA1240M+03061MA1999999100591MD1999999+0061REMSYN088AAXX  19004 82280 32597 1//// 10260 20242 30059 40117 81100 333 10306 29084 55048 58006;EQDQ01  00002PRCP99
0186822800999992001011912004-02530-044280FM-12+005199999V02099999999990450019N0100001N1+02801+02461101311ADDAA199000091GF106991031021004501031011KA1240N+02301MA1999999100731MD1999999+0181REMSYN076AAXX  19124 82280 32497 6//// 10280 20246 30073 40131 83231 333 20230 58018;EQDQ01  00002PRCP99
0167822800999992001011918004-02530-044280FM-12+005199999V02099999999992200019N0100001N1+02961+02491101051ADDAA199000091GF102991021021004501001001MA1999999100471MD1999999+0181REMSYN070AAXX  19184 82280 32497 2//// 10296 20249 30047 40105 82200 333 58018;EQDQ01  00002PRCP99
0198822800999992001012000004-02530-044280FM-12+005199999V02099999999992200019N0100001N1+02581+02441101201ADDAA199000091GF102991021021004501001001KA1240M+03061MA1999999100621MD1999999+0031REMSYN088AAXX  20004 82280 32497 2//// 10258 20244 30062 40120 82200 333 10306 29086 55101 58003;EQDQ01  00002PRCP99
0201822800999992001012012004-02530-044280FM-12+005199999V02099999999990042019N0100001N1+02821+02521101351ADDAA124002091AY161061AY221061GF106991051021004501051001KA1240N+02391MA1999999100771MD1999999+0041MW1011REMSYN088AAXX  20124 82280 21497 6//// 10282 20252 30077 40135 70162 85250 333 20239 58004 60024;
0181822800999992001012018004-02530-044280FM-12+005199999V02099999999990042019N0100001N1+02441+02351101141ADDAA106007191AY161061AY221061GF108991061061004501021999MA1999999100561MD1999999+0091MW1011REMSYN081AAXX  20184 82280 21497 8//// 10244 20235 30056 40114 701628662/ 333 58009 60071;
0198822800999992001012100004-02530-044280FM-12+005199999V02099999999990042019N0100001N1+02421+02391101251ADDAA199000091GF105991051021004501001001KA1240M+02961MA1999999100671MD1999999-0051REMSYN088AAXX  21004 82280 32497 5//// 10242 20239 30067 40125 85200 333 10296 29093 55023 59005;EQDQ01  00002PRCP99
0201822800999992001012112004-02530-044280FM-12+005199999V02099999999990042019N0100001N1+02621+02441101371ADDAA124018091AY161061AY221061GF108991051061004501021999KA1240N+02301MA1999999100781MD1999999+0011MW1021REMSYN088AAXX  21124 82280 21497 8//// 10262 20244 30078 40137 70262 8562/ 333 20230 58001 60184;
0182822800999992001012118004-02530-044280FM-12+005199999V02099999999991050019N0100001N1+02901+02481101051ADDAA106010991AY161061AY221061GF107991041021004501001021MA1999999100471MD1999999-0091MW1011REMSYN082AAXX  21184 82280 21497 7//// 10290 20248 30047 40105 70162 84202 333 59009 60111;
0213822800999992001012200004-02530-044280FM-12+005199999V02099999999992200019N0100001N1+02521+02341101191ADDAA106000391AY161061AY221061GF104991041021004501001001KA1240M+02921MA1999999100611MD1999999-0061MW1021REMSYN100AAXX  22004 82280 21497 4//// 10252 20234 30061 40119 70262 84200 333 10292 29090 55062 59006 69931;
0201822800999992001012212004-02530-044280FM-12+005199999V02099999999990450019N0100001N1+02681+02481101351ADDAA124011991AY161061AY211061GF106991041021004501031011KA1240N+02181MA1999999100771MD1999999-0011MW1031REMSYN088AAXX  22124 82280 21497 6//// 10268 20248 30077 40135 70361 84231 333 20218 59001 60124;
0195822800999992001012218004-02530-044280FM-12+005199999V02099999999990450019N0100001N1+02761+02501101061ADDAA199000091AY121061AY211061GF107991031051008001021041MA1999999100481MD1999999+0011MW1161REMSYN076AAXX  22184 82280 31597 7//// 10276 20250 30048 40106 71621 83524 333 58001;EQDQ01  00002PRCP99
0198822800999992001012300004-02530-044280FM-12+005199999V02099999999990450019N0100001N1+02541+02451101221ADDAA199000091GF108991031021004501011999KA1240M+03001MA1999999100641MD1999999+0031REMSYN088AAXX  23004 82280 32497 8//// 10254 20245 30064 40122 8321/ 333 10300 29091 55043 58003;EQDQ01  00002PRCP99
0186822800999992001012312004-02530-044280FM-12+005199999V02099999999990042019N0100001N1+02701+02411101271ADDAA199000091GF107991061021004501051999KA1240N+02291MA1999999100691MD1999999-0081REMSYN076AAXX  23124 82280 32497 7//// 10270 20241 30069 40127 8625/ 333 20229 59008;EQDQ01  00002PRCP99
0182822800999992001012318004-02530-044280FM-12+005199999V02099999999990042019N0100001N1+02501+02361101061ADDAA106000891AY161061AY221061GF108991071061004501021999MA1999999100481MD1999999+0001MW1011REMSYN082AAXX  23184 82280 21497 8//// 10250 20236 30048 40106 70162 8762/ 333 58000 69981;
0213822800999992001012400004-02530-044280FM-12+005199999V02099999999990450019N0100001N1+02421+02351101191ADDAA106002091AY161061AY221061GF105991021021004501021001KA1240M+02901MA1999999100611MD1999999-0031MW1021REMSYN100AAXX  24004 82280 21497 5//// 10242 20235 30061 40119 70262 82220 333 10290 29092 55028 59003 60021;
0201822800999992001012412004-02530-044280FM-12+005199999V02099999999990450019N0040001N1+02581+02511101351ADDAA124009991AY121061AY211061GF106991031051004501021001KA1240N+02281MA1999999100761MD1999999+0071MW1251REMSYN088AAXX  24124 82280 21496 6//// 10258 20251 30076 40135 72521 83520 333 20228 58007 60104;
0182822800999992001012418004-02530-044280FM-12+005199999V02099999999990450019N0100001N1+02661+02541101111ADDAA106003091AY191061AY261061GF107991041051008001061011MA1999999100531MD1999999+0051MW1031REMSYN082AAXX  24184 82280 21597 7//// 10266 20254 30053 40111 70396 84561 333 58005 60031;
0179822800999992001012500004-02530-044280FM-12+005199999V02099999999990450019N0100001N1+02481+02451101211ADDAA199000021GF108991021021004501081999KA1240M+02861MA1999999100631MD1999999+0021REMSYN088AAXX  25004 82280 32497 8//// 10248 20245 30063 40121 8228/ 333 10286 29096 55019 58002;
0201822800999992001012512004-02530-044280FM-12+005199999V02099999999992200019N0100001N1+02741+02431101011ADDAA124004191AY161061AY211061GF105991031021004501001011KA1240N+02291MA1999999100731MD1999999-0031MW1021REMSYN088AAXX  25124 82280 21497 5//// 10274 20243 30073 40101 70261 83201 333 20229 59003 60044;
0167822800999992001012518004-02530-044280FM-12+005199999V02099999999991050019N0100001N1+02941+02491101031ADDAA199000091GF106991021021004501031031MA1999999100451MD1999999-0081REMSYN070AAXX  25184 82280 32497 6//// 10294 20249 30045 40103 82233 333 59008;EQDQ01  00002PRCP99
0198822800999992001012600004-02530-044280FM-12+005199999V02099999999992200019N0100001N1+02481+02431101221ADDAA199000091GF102991021021004501001001KA1240M+03081MA1999999100641MD1999999+0011REMSYN088AAXX  26004 82280 32497 2//// 10248 20243 30064 40122 82200 333 10308 29088 55088 58001;EQDQ01  00002PRCP99
0201822800999992001012612004-02530-044280FM-12+005199999V02099999999990450019N0100001N1+02681+02441101281ADDAA124000191AY161061AY211061GF108991041051004501021999KA1240N+02341MA1999999100701MD1999999-0031MW1161REMSYN088AAXX  26124 82280 21497 8//// 10268 20244 30070 40128 71661 8452/ 333 20234 59003 69914;
0195822800999992001012618004-02530-044280FM-12+005199999V02099999999990450019N0100001N1+02641+02501101011ADDAA106001091AY161061AY221061GF106991031091004501021051MA1999999100431MD1999999-0021REMSYN082AAXX  26184 82280 21497 6//// 10264 20250 30043 40101 76862 83925 333 59002 60011;EQDQ01+000682PRSWM1
0198822800999992001012700004-02530-044280FM-12+005199999V02099999999992200019N0100001N1+02501+02431101131ADDAA199000091GF104991021021004501031011KA1240M+03021MA1999999100551MD1999999-0091REMSYN088AAXX  27004 82280 32497 4//// 10250 20243 30055 40113 82231 333 10302 29093 55043 59009;EQDQ01  00002PRCP99
0201822800999992001012712004-02530-044280FM-12+005199999V02099999999990042019N0100001N1+02681+02481101231ADDAA124000191AY161061AY221061GF107991051051004501021001KA1240N+02341MA1999999100651MD1999999-0051MW1201REMSYN088AAXX  27124 82280 21497 7//// 10268 20248 30065 40123 72062 85520 333 20234 59005 69924;
0148822800999992001012718004-02530-044280FM-12+005199999V02099999999991050019N0100001N1+03001+02491100991ADDAA199000021GF105991041021004501001021MA1999999100411MD1999999-0021REMSYN070AAXX  27184 82280 32497 5//// 10300 20249 30041 40099 84202 333 59002;
0179822800999992001012800004-02530-044280FM-12+005199999V02099999999992200019N0100001N1+02561+02461101151ADDAA199000021GF103991031021004501001001KA1240M+03021MA1999999100571MD1999999+0021REMSYN088AAXX  28004 82280 32497 3//// 10256 20246 30057 40115 83200 333 10302 29087 55066 58002;
0186822800999992001012812004-02530-044280FM-12+005199999V02099999999992200019N0100001N1+02841+02461101221ADDAA199000091GF106991041021004501001011KA1240N+02431MA1999999100641MD1999999-0011REMSYN076AAXX  28124 82280 32497 6//// 10284 20246 30064 40122 84201 333 20243 59001;EQDQ01  00002PRCP99
0167822800999992001012818004-02530-044280FM-12+005199999V02099999999990450019N0100001N1+02961+02601100941ADDAA199000091GF106991041021004501061041MA1999999100361MD1999999-0051REMSYN070AAXX  28184 82280 32497 6//// 10296 20260 30036 40094 84264 333 59005;EQDQ01  00002PRCP99
0198822800999992001012900004-02530-044280FM-12+005199999V02099999999992200019N0100001N1+02501+02451101111ADDAA199000091GF102991011011008001001021KA1240M+03061MA1999999100531MD1999999-0041REMSYN088AAXX  29004 82280 32597 2//// 10250 20245 30053 40111 81102 333 10306 29088 55077 59004;EQDQ01  00002PRCP99
0201822800999992001012912004-02530-044280FM-12+005199999V02099999999990450019N0100001N1+02661+02431101081ADDAA124000591AY161061AY221061GF108991041021004501011021KA1240N+02291MA1999999100501MD1999999-0131MW1011REMSYN088AAXX  29124 82280 21497 8//// 10266 20243 30050 40108 70162 84212 333 20229 59013 69944;
0167822800999992001012918004-02530-044280FM-12+005199999V02099999999990450019N0100001N1+02941+02471100781ADDAA199000091GF108991041021004501051021MA1999999100201MD1999999-0161REMSYN070AAXX  29184 82280 32497 8//// 10294 20247 30020 40078 84252 333 59016;EQDQ01  00002PRCP99
0199822800999992001013000004-02530-044280FM-12+005199999V02099999999992200019N0100001N1+02421+02391101141ADDAA106002091AY161061AY221061GF102991021011008001001001KA1240M+02941MA1999999100561MW1021REMSYN100AAXX  30004 82280 21597 2//// 10242 20239 30056 40114 70262 82100 333 10294 29088 55056 5003/ 60021;
0201822800999992001013012004-02530-044280FM-12+005199999V02099999999990450019N0100001N1+02661+02411101071ADDAA124022191AY161061AY221061GF106991041021004501031001KA1240N+02311MA1999999100491MD1999999-0011MW1011REMSYN088AAXX  30124 82280 21497 6//// 10266 20241 30049 40107 70162 84230 333 20231 59001 60224;
0198822800999992001013100004-02530-044280FM-12+005199999V02099999999992200019N0100001N1+02481+02381100921ADDAA199000091GF103991031021004501021001KA1240M+02741MA1999999100341MD1999999-0121REMSYN088AAXX  31004 82280 32497 3//// 10248 20238 30034 40092 83220 333 10274 29091 55007 59012;EQDQ01  00002PRCP99
0201822800999992001013112004-02530-044280FM-12+005199999V02099999999990450019N0040001N1+02361+02311101141ADDAA124045091AY161061AY291061GF108991041051004501021999KA1240N+02261MA1999999100561MD1999999+0071MW1611REMSYN088AAXX  31124 82280 21496 8//// 10236 20231 30056 40114 76169 8452/ 333 20226 58007 60454;
0182822800999992001013118004-02530-044280FM-12+005199999V02099999999990450019N0100001N1+02741+02501100931ADDAA106023991AY161061AY221061GF107991031021004501051031MA1999999100351MD1999999+0161MW1021REMSYN082AAXX  31184 82280 21497 7//// 10274 20250 30035 40093 70262 83253 333 58016 60241;
0213822800999992001020100004-02530-044280FM-12+005199999V02099999999990450019N0100001N1+02281+02231101091ADDAA106013091AY161061AY281061GF108991021021004501051999KA1240M+02781MA1999999100501MD1999999+0161MW1021REMSYN100AAXX  01004 82280 21497 8//// 10228 20223 30050 40109 70268 8225/ 333 10278 29094 55010 58016 60131;
0173822800999992001020112004-02530-044280FM-12+005199999V02099999999991050019N0100001N1+02661+02411101041ADDAA124034091GF105991031021004501001021KA1240N+02211MA1999999100461MD1999999-0101REMSYN082AAXX  01124 82280 22497 5//// 10266 20241 30046 40104 83202 333 20221 59010 60344;
0213822800999992001020200004-02530-044280FM-12+005199999V02099999999990042019N0040001N1+02361+02261100941ADDAA106054191AY191061AY261061GF108991081071004501999999KA1240M+02801MA1999999100361MD1999999-0141MW1511REMSYN100AAXX  02004 82280 21496 8//// 10236 20226 30036 40094 75196 887// 333 10280 29092 55030 59014 60541;
0182822800999992001020218004-02530-044280FM-12+005199999V02099999999990042019N0040001N1+02591+02501100881ADDAA106011991AY161061AY221061GF108991081071004501999999MA1999999100301MD1999999+0141MW1601REMSYN082AAXX  02184 82280 21496 8//// 10259 20250 30030 40088 76062 887// 333 58014 60121;
0201822800999992001020312004-02530-044280FM-12+005199999V02099999999990450019N0100001N1+02721+02521101121ADDAA124017091AY161061AY211061GF107991041051004501021999KA1240N+02201MA1999999100541MD1999999+0001MW1161REMSYN088AAXX  03124 82280 21497 7//// 10272 20252 30054 40112 71661 8452/ 333 20220 58000 60174;
0182822800999992001020318004-02530-044280FM-12+005199999V02099999999990450019N0100001N1+02781+02521100851ADDAA106006191AY161061AY221061GF108991041021004501071999MA1999999100271MD1999999-0031MW1021REMSYN082AAXX  03184 82280 21497 8//// 10278 20252 30027 40085 70262 8427/ 333 59003 60061;
0198822800999992001020400004-02530-044280FM-12+005199999V02099999999990450019N0100001N1+02461+02411101011ADDAA199000091GF106991021021004501031021KA1240M+02901MA1999999100431MD1999999-0051REMSYN088AAXX  04004 82280 32497 6//// 10246 20241 30043 40101 82232 333 10290 29092 55028 59005;EQDQ01  00002PRCP99
0201822800999992001020412004-02530-044280FM-12+005199999V02099999999990042019N0100001N1+02781+02461101211ADDAA124006191AY121061AY221061GF108991051061004501031021KA1240N+02221MA1999999100631MD1999999+0091MW1161REMSYN088AAXX  04124 82280 22497 8//// 10278 20246 30063 40121 71622 85632 333 20222 58009 60064;
0182822800999992001020418004-02530-044280FM-12+005199999V02099999999991050019N0100001N1+02961+02471100871ADDAA106000591AY161061AY221061GF107991041021004501001021MA1999999100291MD1999999+0021MW1011REMSYN082AAXX  04184 82280 21497 7//// 10296 20247 30029 40087 70162 84202 333 58002 69941;
0198822800999992001020500004-02530-044280FM-12+005199999V02099999999992200019N0100001N1+02501+02471101021ADDAA199000091GF103991021021004501001021KA1240M+03041MA1999999100441MD1999999+0011REMSYN088AAXX  05004 82280 32497 3//// 10250 20247 30044 40102 82202 333 10304 29087 55088 58001;EQDQ01  00002PRCP99
0173822800999992001020512004-02530-044280FM-12+005199999V02099999999990450019N0100001N1+02801+02421101161ADDAA124000591GF107991041021004501031021KA1240N+02231MA1999999100581MD1999999-0051REMSYN082AAXX  05124 82280 22497 7//// 10280 20242 30058 40116 84232 333 20223 59005 69944;
0167822800999992001020518004-02530-044280FM-12+005199999V02099999999990450019N0100001N1+02981+02511100901ADDAA199000091GF105991041021004501021001MA1999999100321MD1999999+0011REMSYN070AAXX  05184 82280 32497 5//// 10298 20251 30032 40090 84220 333 58001;EQDQ01  00002PRCP99
0198822800999992001020600004-02530-044280FM-12+005199999V02099999999992200019N0100001N1+02541+02451101071ADDAA199000091GF102991011011008001001021KA1240M+03051MA1999999100491MD1999999+0051REMSYN088AAXX  06004 82280 32597 2//// 10254 20245 30049 40107 81102 333 10305 29086 55085 58005;EQDQ01  00002PRCP99
0201822800999992001020612004-02530-044280FM-12+005199999V02099999999990450019N0040001N1+02541+02451101291ADDAA124004191AY121061AY211061GF107991031051004501021011KA1240N+02271MA1999999100701MD1999999+0121MW1801REMSYN088AAXX  06124 82280 21496 7//// 10254 20245 30070 40129 78021 83521 333 20227 58012 60044;
0170822800999992001020618004-02530-044280FM-12+005199999V02099999999999999999N0100001N1+02941+02521100931ADDAA199000021AY111061AY201061GF106991999999004501999999MA1999999100351MD1999999+0031MW1171REMSYN070AAXX  06184 82280 31497 6//// 10294 20252 30035 40093 71710 333 58003;
0179822800999992001020700004-02530-044280FM-12+005199999V02099999999991050019N0100001N1+02551+02491101071ADDAA199000021GF108991021021004501001071KA1240M+02981MA1999999100491MD1999999+0001REMSYN088AAXX  07004 82280 32497 8//// 10255 20249 30049 40107 82207 333 10298 29091 55056 58000;
0186822800999992001020712004-02530-044280FM-12+005199999V02099999999990450019N0100001N1+02701+02391101201ADDAA199000091GF106991031021004501051001KA1240N+02391MA1999999100621MD1999999-0081REMSYN076AAXX  07124 82280 32497 6//// 10270 20239 30062 40120 83250 333 20239 59008;EQDQ01  00002PRCP99
0167822800999992001020718004-02530-044280FM-12+005199999V02099999999992200019N0100001N1+02961+02531101911ADDAA199000091GF103991031021004501001001MA1999999100331MD1999999-0021REMSYN070AAXX  07184 82280 32497 3//// 10296 20253 30033 40191 83200 333 59002;EQDQ01  00002PRCP99
0214822800999992001020800004-02530-044280FM-12+005199999V02099999999992200019N0100001N1+02501+02411101012ADDAA199000091GF103991031021999999001001KA1240M+03031MA1999999100431MD1999999-0061REMSYN088AAXX  08004 82280 32997 3//// 10250 20241 30043 40101 83200 333 10303 29087 55084 59006;EQDQ01+101013APOSLPQ02  00002PRCP99
0186822800999992001020812004-02530-044280FM-12+005199999V02099999999990042019N0100001N1+02801+02481101151ADDAA199000091GF106991051021004501051001KA1240N+02311MA1999999100571MD1999999-0051REMSYN076AAXX  08124 82280 32497 6//// 10280 20248 30057 40115 85250 333 20231 59005;EQDQ01  00002PRCP99
0167822800999992001020818004-02530-044280FM-12+005199999V02099999999990450019N0100001N1+03001+02531100801ADDAA199000091GF105991031051004501021001MA1999999100221MD1999999-0111REMSYN070AAXX  08184 82280 32497 5//// 10300 20253 30022 40080 83520 333 59011;EQDQ01  00002PRCP99
0198822800999992001020900004-02530-044280FM-12+005199999V02099999999992200019N0100001N1+02601+02501100841ADDAA199000091GF104991041021004501001001KA1240M+03021MA1999999100261MD1999999-0171REMSYN088AAXX  09004 82280 32497 4//// 10260 20250 30026 40084 84200 333 10302 29086 55096 59017;EQDQ01  00002PRCP99
0201822800999992001020912004-02530-044280FM-12+005199999V02099999999990450019N0100001N1+02811+02541101041ADDAA124000191AY161061AY221061GF106991031021004501061021KA1240N+02361MA1999999100461MD1999999-0111MW1021REMSYN088AAXX  09124 82280 21497 6//// 10281 20254 30046 40104 70262 83262 333 20236 59011 69924;
0182822800999992001020918004-02530-044280FM-12+005199999V02099999999990450019N0040001N1+02401+02311100761ADDAA106007191AY191061AY261061GF108991041091004501021999MA1999999100171MD1999999-0051MW1911REMSYN082AAXX  09184 82280 21496 8//// 10240 20231 30017 40076 79196 8492/ 333 59005 60071;
0213822800999992001021000004-02530-044280FM-12+005199999V02099999999990450019N0040001N1+02441+02391100961ADDAA106000591AY161061AY221061GF108991041051004501071999KA1240M+02921MA1999999100381MD1999999+0121MW1911REMSYN100AAXX  10004 82280 21496 8//// 10244 20239 30038 40096 79162 8457/ 333 10292 29094 55034 58012 69961;
0201822800999992001021012004-02530-044280FM-12+005199999V02099999999990042019N0100001N1+02681+02481100971ADDAA124019191AY161061AY221061GF108991051061004501051999KA1240N+02251MA1999999100391MD1999999-0071MW1011REMSYN088AAXX  10124 82280 21497 8//// 10268 20248 30039 40097 70162 8565/ 333 20225 59007 60194;
0199822800999992001021100004-02530-044280FM-12+005199999V02099999999990042019N0040001N1+02421+02391100981ADDAA106023191AY161061AY221061GF108991081071004501999999KA1240M+02941MA1999999100401MW1911REMSYN100AAXX  11004 82280 21496 8//// 10242 20239 30040 40098 79162 887// 333 10294 29090 55036 5802/ 60231;
0201822800999992001021112004-02530-044280FM-12+005199999V02099999999990450019N0100001N1+02691+02431101161ADDAA124036191AY161061AY221061GF108991041051004501031999KA1240N+02291MA1999999100581MD1999999+0191MW1011REMSYN088AAXX  11124 82280 21497 8//// 10269 20243 30058 40116 70162 8453/ 333 20229 58019 60364;
0167822800999992001021118004-02530-044280FM-12+005199999V02099999999990042019N0100001N1+02941+02541100921ADDAA199000091GF108991051051004501031999MA1999999100341MD1999999+0191REMSYN070AAXX  11184 82280 32497 8//// 10294 20254 30034 40092 8553/ 333 58019;EQDQ01  00002PRCP99
0213822800999992001021200004-02530-044280FM-12+005199999V02099999999990450019N0100001N1+02441+02421101081ADDAA106004191AY161061AY221061GF105991031051004501021001KA1240M+03001MA1999999100501MD1999999+0101MW1211REMSYN100AAXX  12004 82280 21497 5//// 10244 20242 30050 40108 72162 83520 333 10300 29090 55047 58010 60041;
0201822800999992001021212004-02530-044280FM-12+005199999V02099999999990450019N0040001N1+02501+02451101141ADDAA124018091AY161061AY221061GF106991031051004501021011KA1240N+02341MA1999999100561MD1999999-0021MW1921REMSYN088AAXX  12124 82280 21496 6//// 10250 20245 30056 40114 79262 83521 333 20234 59002 60184;
0182822800999992001021218004-02530-044280FM-12+005199999V02099999999990450019N0100001N1+02861+02541100951ADDAA106000191AY161061AY211061GF107991041021004501061021MA1999999100371MD1999999+0031MW1021REMSYN082AAXX  12184 82280 21497 7//// 10286 20254 30037 40095 70261 84262 333 58003 69921;
0213822800999992001021300004-02530-044280FM-12+005199999V02099999999990450019N0040001N1+02481+02431101191ADDAA106002091AY121061AY211061GF108991041051004501021999KA1240M+02951MA1999999100611MD1999999+0111MW1611REMSYN100AAXX  13004 82280 21496 8//// 10248 20243 30061 40119 76121 8452/ 333 10295 29093 55018 58011 60021;
0201822800999992001021312004-02530-044280FM-12+005199999V02099999999990450019N0100001N1+02781+02481101081ADDAA124010991AY161061AY221061GF107991041021004501031021KA1240N+02311MA1999999100501MD1999999-0061MW1011REMSYN088AAXX  13124 82280 21497 7//// 10278 20248 30050 40108 70162 84232 333 20231 59006 60114;
0167822800999992001021318004-02530-044280FM-12+005199999V02099999999990042019N0200001N1+02901+02501100791ADDAA199000091GF106991051021004501051001MA1999999100211MD1999999-0161REMSYN070AAXX  13184 82280 32498 6//// 10290 20250 30021 40079 85250 333 59016;EQDQ01  00002PRCP99
0179822800999992001021400004-02530-044280FM-12+005199999V02099999999999999999N0100001N1+02581+02341100981ADDGF108991999999004501999999KA1240M+02961MA1999999100401MD1999999-0211REMSYN099AAXX  14004 82280 21497 8//// 10258 20234 30040 40098 2122 8575/ 333 10296 29086 55073 59021 69931;
0201822800999992001021412004-02530-044280FM-12+005199999V02099999999990042019N0040001N1+02341+02271101201ADDAA124009991AY161061AY221061GF108991061071004501021999KA1240N+02291MA1999999100611MD1999999+0111MW1611REMSYN088AAXX  14124 82280 21496 8//// 10234 20227 30061 40120 76162 8672/ 333 20229 58011 60104;
0182822800999992001021418004-02530-044280FM-12+005199999V02099999999990042019N0100001N1+02641+02441100861ADDAA106007991AY161061AY221061GF108991061051004501021999MA1999999100281MD1999999+0071MW1021REMSYN082AAXX  14184 82280 21497 8//// 10264 20244 30028 40086 70262 8652/ 333 58007 60081;
0179822800999992001021500004-02530-044280FM-12+005199999V02099999999992200019N0100001N1+02421+02351100901ADDAA199000021GF104991041021004501001001KA1240M+02661MA1999999100321MD1999999-0081REMSYN088AAXX  15004 82280 32497 4//// 10242 20235 30032 40090 84200 333 10266 29094 55000 59008;
0201822800999992001021512004-02530-044280FM-12+005199999V02099999999992200019N0100001N1+02821+02481101161ADDAA124008991AY161061AY211061GF104991031021004501051001KA1240N+02281MA1999999100581MD1999999-0031MW1021REMSYN088AAXX  15124 82280 21497 4//// 10282 20248 30058 40116 70261 83250 333 20228 59003 60094;
0167822800999992001021518004-02530-044280FM-12+005199999V02099999999992200019N0100001N1+02971+02511100841ADDAA199000091GF103991021021004501031001MA1999999100261MD1999999-0021REMSYN070AAXX  15184 82280 32497 3//// 10297 20251 30026 40084 82230 333 59002;EQDQ01  00002PRCP99
0198822800999992001021600004-02530-044280FM-12+005199999V02099999999990450019N0100001N1+02621+02501100991ADDAA199000091GF108991021021004501071999KA1240M+03001MA1999999100411MD1999999+0091REMSYN088AAXX  16004 82280 32497 8//// 10262 20250 30041 40099 8227/ 333 10300 29084 55099 58009;EQDQ01  00002PRCP99
0186822800999992001021612004-02530-044280FM-12+005199999V02099999999990042019N0100001N1+02761+02481101151ADDAA199000091GF106991051021004501031001KA1240N+02331MA1999999100571MD1999999-0011REMSYN076AAXX  16124 82280 32497 6//// 10276 20248 30057 40115 85230 333 20233 59001;EQDQ01  00002PRCP99
0167822800999992001021618004-02530-044280FM-12+005199999V02099999999992200019N0100001N1+02961+02531100911ADDAA199000091GF104991041021004501001001MA1999999100331MD1999999+0071REMSYN070AAXX  16184 82280 32497 4//// 10296 20253 30033 40091 84200 333 58007;EQDQ01  00002PRCP99
0198822800999992001021700004-02530-044280FM-12+005199999V02099999999992200019N0100001N1+02521+02451101051ADDAA199000091GF104991041021004501001001KA1240M+03021MA1999999100471MD1999999+0061REMSYN088AAXX  17004 82280 32497 4//// 10252 20245 30047 40105 84200 333 10302 29089 55087 58006;EQDQ01  00002PRCP99
0181822800999992001021712004-02530-044280FM-12+005199999V02099999999990450019N0100001N1+02761+02501101281ADDAA124003091AY121061AY261061GF108991041051004501031021KA1240N+02451MA1999999100701MW1011REMSYN082AAXX  17124 82280 21497 8//// 10276 20250 30070 40128 70126 84532 333 20245 60034;
0167822800999992001021718004-02530-044280FM-12+005199999V02099999999990450019N0100001N1+02961+02511100971ADDAA199000091GF105991041021004501011001MA1999999100391MD1999999+0061REMSYN070AAXX  17184 82280 32497 5//// 10296 20251 30039 40097 84210 333 58006;EQDQ01  00002PRCP99
0198822800999992001021800004-02530-044280FM-12+005199999V02099999999992200019N0100001N1+02541+02451101101ADDAA199000091GF102991021001008001031001KA1240M+03001MA1999999100521MD1999999+0051REMSYN088AAXX  18004 82280 32597 2//// 10254 20245 30052 40110 82030 333 10300 29088 55090 58005;EQDQ01  00002PRCP99
0201822800999992001021812004-02530-044280FM-12+005199999V02099999999990450019N0040001N1+02321+02251101501ADDAA124019191AY161061AY221061GF108991041051004501021999KA1240N+02261MA1999999100911MD1999999+0211MW1631REMSYN088AAXX  18124 82280 21496 8//// 10232 20225 30091 40150 76362 8452/ 333 20226 58021 60194;
0182822800999992001021818004-02530-044280FM-12+005199999V02099999999990450019N0100001N1+02681+02461101171ADDAA106011991AY161061AY221061GF108991041051004501051999MA1999999100591MD1999999+0201MW1021REMSYN082AAXX  18184 82280 21497 8//// 10268 20246 30059 40117 70262 8455/ 333 58020 60121;
0179822800999992001021900004-02530-044280FM-12+005199999V02099999999990450019N0100001N1+02461+02411101241ADDAA199000021GF108991031061004501071999KA1240M+02721MA1999999100651MD1999999+0131REMSYN088AAXX  19004 82280 32497 8//// 10246 20241 30065 40124 8367/ 333 10272 29097 55000 58013;
0173822800999992001021912004-02530-044280FM-12+005199999V02099999999990042019N0100001N1+02511+02361101291ADDAA124011991GF108991061051004501031999KA1240N+02271MA1999999100701MD1999999-0211REMSYN082AAXX  19124 82280 22497 8//// 10251 20236 30070 40129 8653/ 333 20227 59021 60124;
0167822800999992001021918004-02530-044280FM-12+005199999V02099999999990450019N0100001N1+02941+02561101081ADDAA199000091GF106991041021004501051001MA1999999100501MD1999999-0091REMSYN070AAXX  19184 82280 32497 6//// 10294 20256 30050 40108 84250 333 59009;EQDQ01  00002PRCP99
0198822800999992001022000004-02530-044280FM-12+005199999V02099999999992200019N0100001N1+02541+02491101111ADDAA199000091GF104991041021004501001001KA1240M+03001MA1999999100531MD1999999-0121REMSYN088AAXX  20004 82280 32497 4//// 10254 20249 30053 40111 84200 333 10300 29091 55041 59012;EQDQ01  00002PRCP99
0201822800999992001022012004-02530-044280FM-12+005199999V02099999999990042019N0100001N1+02561+02421101251ADDAA124015091AY161061AY221061GF108991051061004501051999KA1240N+02311MA1999999100661MD1999999-0041MW1011REMSYN088AAXX  20124 82280 21497 8//// 10256 20242 30066 40125 70162 8565/ 333 20231 59004 60154;
0182822800999992001022018004-02530-044280FM-12+005199999V02099999999990042019N0100001N1+02621+02521100821ADDAA106007191AY101061AY221061GF108991051051004501021999MA1999999100241MD1999999-0261MW1211REMSYN082AAXX  20184 82280 21497 8//// 10262 20252 30024 40082 72102 8552/ 333 59026 60071;
0179822800999992001022100004-02530-044280FM-12+005199999V02099999999990042019N0100001N1+02501+02471101021ADDAA199000021GF105991051021004501001001KA1240M+02871MA1999999100441MD1999999-0091REMSYN088AAXX  21004 82280 32497 5//// 10250 20247 30044 40102 85200 333 10287 29095 55004 59009;
0173822800999992001022112004-02530-044280FM-12+005199999V02099999999990450019N0100001N1+02541+02311101121ADDAA124007191GF107991021011008001071999KA1240N+02281MA1999999100541MD1999999-0121REMSYN082AAXX  21124 82280 22597 7//// 10254 20231 30054 40112 8217/ 333 20228 59012 60074;
0182822800999992001022118004-02530-044280FM-12+005199999V02099999999990450019N0040001N1+02801+02561100821ADDAA106000191AY121061AY211061GF107991041051004501021999MA1999999100241MD1999999+0001MW1911REMSYN082AAXX  21184 82280 21496 7//// 10280 20256 30024 40082 79121 8452/ 333 58000 69911;
0213822800999992001022200004-02530-044280FM-12+005199999V02099999999990450019N0040001N1+02461+02411101021ADDAA106042991AY191061AY261061GF108991041051004501021999KA1240M+03001MA1999999100441MD1999999+0001MW1611REMSYN100AAXX  22004 82280 21496 8//// 10246 20241 30044 40102 76196 8452/ 333 10300 29092 55039 58000 60431;
0201822800999992001022212004-02530-044280FM-12+005199999V02099999999990042019N0100001N1+02521+02451101291ADDAA124062091AY161061AY221061GF106991051061004501051001KA1240N+02301MA1999999100501MD1999999-0041MW1021REMSYN088AAXX  22124 82280 21497 6//// 10252 20245 30050 40129 70262 85650 333 20230 59004 60624;
0182822800999992001022218004-02530-044280FM-12+005199999V02099999999990042019N0100001N1+02581+02371100851ADDAA106000191AY161061AY221061GF108991051051004501021999MA1999999100271MD1999999+0031MW1021REMSYN082AAXX  22184 82280 21497 8//// 10258 20237 30027 40085 70262 8552/ 333 58003 69921;
0213822800999992001022300004-02530-044280FM-12+005199999V02099999999990042019N0100001N1+02481+02381100971ADDAA106000191AY161061AY221061GF105991051021004501001001KA1240M+02881MA1999999100391MD1999999-0051MW1021REMSYN100AAXX  23004 82280 21497 5//// 10248 20238 30039 40097 70262 85200 333 10288 29093 55006 59005 69921;
0201822800999992001022312004-02530-044280FM-12+005199999V02099999999990042019N0100001N1+02561+02471101001ADDAA124000591AY161061AY221061GF108991061061004501051999KA1240N+02371MA1999999100421MD1999999-0081MW1011REMSYN088AAXX  23124 82280 21497 8//// 10256 20247 30042 40100 70162 8665/ 333 20237 59008 69954;
0167822800999992001022318004-02530-044280FM-12+005199999V02099999999990042019N0100001N1+02841+02601100791ADDAA199000091GF108991071061004501021999MA1999999100211MD1999999-0061REMSYN070AAXX  23184 82280 32497 8//// 10284 20260 30021 40079 8762/ 333 59006;EQDQ01  00002PRCP99
0213822800999992001022400004-02530-044280FM-12+005199999V02099999999990042019N0100001N1+02461+02411101051ADDAA106006191AY191061AY261061GF108991061061004501021999KA1240M+02861MA1999999100471MD1999999+0081MW1021REMSYN100AAXX  24004 82280 21497 8//// 10246 20241 30047 40105 70296 8662/ 333 10286 29094 55000 58008 60061;
0201822800999992001022412004-02530-044280FM-12+005199999V02099999999990450019N0040001N1+02321+02291101111ADDAA124007991AY161061AY221061GF108991041051004501021999KA1240N+02271MA1999999100501MD1999999+0111MW1611REMSYN088AAXX  24124 82280 21496 8//// 10232 20229 30050 40111 76162 8452/ 333 20227 58011 60084;
0182822800999992001022418004-02530-044280FM-12+005199999V02099999999991050019N0100001N1+02971+02551100761ADDAA106001091AY161061AY211061GF105991011021004501051041MA1999999100181MD1999999+0031MW1011REMSYN082AAXX  24184 82280 21497 5//// 10297 20255 30018 40076 70161 81254 333 58003 60011;
0213822800999992001022500004-02530-044280FM-12+005199999V02099999999990042019N0040001N1+02381+02281101081ADDAA106003091AY161061AY221061GF108991081051004501999999KA1240M+03001MA1999999100491MD1999999+0021MW1601REMSYN100AAXX  25004 82280 21496 8//// 10238 20228 30049 40108 76062 885// 333 10300 29091 55022 58002 60031;
0201822800999992001022512004-02530-044280FM-12+005199999V02099999999990042019N0100001N1+02601+02461100991ADDAA124009991AY161061AY221061GF108991061051004501031999KA1240N+02201MA1999999100401MD1999999-0131MW1021REMSYN088AAXX  25124 82280 21497 8//// 10260 20246 30040 40099 70262 8653/ 333 20220 59013 60104;
0198822800999992001022600004-02530-044280FM-12+005199999V02099999999990450019N0100001N1+02501+02431100901ADDAA199000091GF105991041021004501011001KA1240M+03021MA1999999100321MD1999999-0171REMSYN088AAXX  26004 82280 32497 5//// 10250 20243 30032 40090 84210 333 10302 29090 55036 59017;EQDQ01  00002PRCP99
0201822800999992001022612004-02530-044280FM-12+005199999V02099999999990042019N0100001N1+02221+02151101111ADDAA124055991AY161061AY221061GF108991071061004501021999KA1240N+02101MA1999999100521MD1999999+0121MW1211REMSYN088AAXX  26124 82280 21497 8//// 10222 20215 30052 40111 72162 8762/ 333 20210 58012 60564;
0148822800999992001022618004-02530-044280FM-12+005199999V02099999999990042019N0100001N1+02481+02251100971ADDAA199000021GF108991061061004501021999MA1999999100391MD1999999+0261REMSYN070AAXX  26184 82280 32497 8//// 10248 20225 30039 40097 8662/ 333 58026;
0213822800999992001022700004-02530-044280FM-12+005199999V02099999999990042019N0100001N1+02321+02251100941ADDAA106000391AY161061AY221061GF108991051061004501021999KA1240M+02531MA1999999100361MD1999999+0041MW1021REMSYN100AAXX  27004 82280 21497 8//// 10232 20225 30036 40094 70262 8562/ 333 10253 29093 55000 58004 69931;
0201822800999992001022712004-02530-044280FM-12+005199999V02099999999990450019N0040001N1+02461+02371101091ADDAA124001091AY121061AY221061GF108991041051004501021999KA1240N+02181MA1999999100511MD1999999-0011MW1011REMSYN088AAXX  27124 82280 21496 8//// 10246 20237 30051 40109 70122 8452/ 333 20218 59001 60014;
0182822800999992001022718004-02530-044280FM-12+005199999V02099999999990450019N0100001N1+02901+02561100851ADDAA106003091AY161061AY221061GF106991041051004501021001MA1999999100271MD1999999-0121MW1161REMSYN082AAXX  27184 82280 21497 6//// 10290 20256 30027 40085 71662 84520 333 59012 60031;
0213822800999992001022800004-02530-044280FM-12+005199999V02099999999990450019N0100001N1+02511+02451101071ADDAA106000891AY161061AY221061GF108991021021004501051999KA1240M+02941MA1999999100491MD1999999+0131MW1021REMSYN100AAXX  28004 82280 21497 8//// 10251 20245 30049 40107 70262 8225/ 333 10294 29092 55017 58013 69971;
0173822800999992001022812004-02530-044280FM-12+005199999V02099999999990042019N0200001N1+02561+02441101161ADDAA124004191GF108991051061004501051999KA1240N+02271MA1999999100581MD1999999+0071REMSYN082AAXX  28124 82280 22498 8//// 10256 20244 30058 40116 8565/ 333 20227 58007 60044;
0167822800999992001022818004-02530-044280FM-12+005199999V02099999999990450019N0100001N1+02861+02421100891ADDAA199000091GF106991041021004501011001MA1999999100311MD1999999+0041REMSYN070AAXX  28184 82280 32497 6//// 10286 20242 30031 40089 84210 333 58004;EQDQ01  00002PRCP99
0213822800999992001030100004-02530-044280FM-12+005199999V02099999999992200019N0100001N1+02441+02351100991ADDAA106003091AY161061AY221061GF102991021021004501001001KA1240M+03041MA1999999100411MD1999999-0081MW1011REMSYN100AAXX  01004 82280 21497 2//// 10244 20235 30041 40099 70162 82200 333 10304 29090 55037 59008 60031;
0201822800999992001030112004-02530-044280FM-12+005199999V02099999999990450019N0100001N1+02621+02441101101ADDAA124009991AY161061AY221061GF106991041051004501031999KA1240N+02291MA1999999100521MD1999999-0061MW1011REMSYN088AAXX  01124 82280 21497 6//// 10262 20244 30052 40110 70162 8453/ 333 20229 59006 60104;
0182822800999992001030118004-02530-044280FM-12+005199999V02099999999990042019N0040001N1+02861+02541100831ADDAA106000191AY121061AY221061GF108991061071004501051999MA1999999100251MD1999999-0061MW1601REMSYN082AAXX  01184 82280 21496 8//// 10286 20254 30025 40083 76022 8675/ 333 59006 69921;
0213822800999992001030200004-02530-044280FM-12+005199999V02099999999992200019N0100001N1+02501+02431101031ADDAA106000591AY161061AY221061GF102991021001004501011001KA1240M+03021MA1999999100451MD1999999+0041MW1011REMSYN100AAXX  02004 82280 21497 2//// 10250 20243 30045 40103 70162 82010 333 10302 29091 55035 58004 69941;
0201822800999992001030212004-02530-044280FM-12+005199999V02099999999990450019N0040001N1+02561+02511101221ADDAA124008991AY161061AY221061GF108991041051004501021999KA1240N+02391MA1999999100641MD1999999+0121MW1911REMSYN088AAXX  02124 82280 21496 8//// 10256 20251 30064 40122 79162 8452/ 333 20239 58012 60094;
0182822800999992001030218004-02530-044280FM-12+005199999V02099999999990450019N0100001N1+02961+02491100971ADDAA106000191AY161061AY211061GF107991021021004501061041MA1999999100391MD1999999+0141MW1021REMSYN082AAXX  02184 82280 21497 7//// 10296 20249 30039 40097 70261 82264 333 58014 69921;
0179822800999992001030300004-02530-044280FM-12+005199999V02099999999990450019N0100001N1+02501+02451101161ADDAA199000021GF108991011011008001051071KA1240M+03001MA1999999100581MD1999999+0131REMSYN088AAXX  03004 82280 32597 8//// 10250 20245 30058 40116 81157 333 10300 29092 55031 58013;
0173822800999992001030312004-02530-044280FM-12+005199999V02099999999990042019N0100001N1+02781+02481101261ADDAA124000191GF107991061051004501011999KA1240N+02301MA1999999100681MD1999999+0041REMSYN082AAXX  03124 82280 22497 7//// 10278 20248 30068 40126 8651/ 333 20230 58004 69924;
0167822800999992001030318004-02530-044280FM-12+005199999V02099999999990450019N0100001N1+02961+02451101011ADDAA199000091GF106991031021004501051001MA1999999100431MD1999999+0041REMSYN070AAXX  03184 82280 32497 6//// 10296 20245 30043 40101 83250 333 58004;EQDQ01  00002PRCP99
0208822800999992001030400004-02530-044280FM-12+005199999V02099999999992200019N0100001N1+02521+02381101151ADDAA199000091GA1001+999999999GF100991001001999999001001KA1240M+03161MA1999999100571MD1999999-0011REMSYN082AAXX  04004 82280 32997 0//// 10252 20238 30057 40115 333 10316 29086 55070 59001;EQDQ01  00002PRCP99
0186822800999992001030412004-02530-044280FM-12+005199999V02099999999990042019N0100001N1+02781+02481101211ADDAA199000091GF106991061021004501001001KA1240N+02381MA1999999100631MD1999999-0051REMSYN076AAXX  04124 82280 32497 6//// 10278 20248 30063 40121 86200 333 20238 59005;EQDQ01  00002PRCP99
0167822800999992001030418004-02530-044280FM-12+005199999V02099999999990042019N0100001N1+02961+02511100951ADDAA199000091GF107991051021004501011001MA1999999100371MD1999999-0061REMSYN070AAXX  04184 82280 32497 7//// 10296 20251 30037 40095 85210 333 59006;EQDQ01  00002PRCP99
0198822800999992001030500004-02530-044280FM-12+005199999V02099999999990450019N0100001N1+02641+02371101091ADDAA199000091GF106991031021004501031001KA1240M+03161MA1999999100511MD1999999-0061REMSYN088AAXX  05004 82280 32497 6//// 10264 20237 30051 40109 83230 333 10316 29083 55088 59006;EQDQ01  00002PRCP99
0186822800999992001030512004-02530-044280FM-12+005199999V02099999999990042019N0100001N1+02821+02561101241ADDAA199000091GF107991051021004501031011KA1240N+02421MA1999999100661MD1999999+0031REMSYN076AAXX  05124 82280 31497 7//// 10282 20256 30066 40124 85231 333 20242 58003;EQDQ01  00002PRCP99
0182822800999992001030518004-02530-044280FM-12+005199999V02099999999990450019N0040001N1+02721+02481100921ADDAA106000891AY121061AY211061GF106991031051004501021031MA1999999100341MD1999999-0031MW1911REMSYN082AAXX  05184 82280 21496 6//// 10272 20248 30034 40092 79121 83523 333 59003 69971;
0179822800999992001030600004-02530-044280FM-12+005199999V02099999999992200019N0100001N1+02591+02571101081ADDAA199000021GF102991011021008001001011KA1240M+03071MA1999999100501MD1999999-0011REMSYN088AAXX  06004 82280 32597 2//// 10259 20257 30050 40108 81201 333 10307 29094 55044 59001;
0173822800999992001030612004-02530-044280FM-12+005199999V02099999999992200019N0100001N1+02861+02461101231ADDAA124000891GF105991041021004501001011KA1240N+02471MA1999999100651MD1999999-0011REMSYN082AAXX  06124 82280 22497 5//// 10286 20246 30065 40123 84201 333 20247 59001 69974;
0167822800999992001030618004-02530-044280FM-12+005199999V02099999999990042019N0100001N1+03061+02591100981ADDAA199000091GF107991051021004501011001MA1999999100401MD1999999+0061REMSYN070AAXX  06184 82280 32497 7//// 10306 20259 30040 40098 85210 333 58006;EQDQ01  00002PRCP99
0198822800999992001030700004-02530-044280FM-12+005199999V02099999999992200019N0100001N1+02621+02351101161ADDAA199000091GF103991011021004501011001KA1240M+03121MA1999999100581MD1999999+0081REMSYN088AAXX  07004 82280 32497 3//// 10262 20235 30058 40116 81210 333 10312 29081 55081 58008;EQDQ01  00002PRCP99
0186822800999992001030712004-02530-044280FM-12+005199999V02099999999990450019N0100001N1+02861+02531101331ADDAA199000091GF106991041021004501031001KA1240N+02391MA1999999100751MD1999999+0101REMSYN076AAXX  07124 82280 32497 6//// 10286 20253 30075 40133 84230 333 20239 58010;EQDQ01  00002PRCP99
0167822800999992001030718004-02530-044280FM-12+005199999V02099999999990450019N0100001N1+03061+02351101021ADDAA199000091GF108991041061004501051021MA1999999100441MD1999999+0041REMSYN070AAXX  07184 82280 32497 8//// 10306 20235 30044 40102 84652 333 58004;EQDQ01  00002PRCP99
0198822800999992001030800004-02530-044280FM-12+005199999V02099999999990450019N0100001N1+02621+02441101281ADDAA199000091GF106991041051004501021001KA1240M+03121MA1999999100701MD1999999+0151REMSYN088AAXX  08004 82280 32497 6//// 10262 20244 30070 40128 84520 333 10312 29082 55062 58015;EQDQ01  00002PRCP99
0186822800999992001030812004-02530-044280FM-12+005199999V02099999999990450019N0100001N1+02741+02481101321ADDAA199000091GF107991031021004501051011KA1240N+02321MA1999999100741MD1999999-0011REMSYN076AAXX  08124 82280 32497 7//// 10274 20248 30074 40132 83251 333 20232 59001;EQDQ01  00002PRCP99
0167822800999992001030818004-02530-044280FM-12+005199999V02099999999990450019N0100001N1+03101+02691101071ADDAA199000091GF106991031021004501021061MA1999999100491MD1999999+0051REMSYN070AAXX  08184 82280 32497 6//// 10310 20269 30049 40107 83226 333 58005;EQDQ01  00002PRCP99
0198822800999992001030900004-02530-044280FM-12+005199999V02099999999991050019N0100001N1+02621+02551101181ADDAA199000091GF108991011021004501001071KA1240M+03031MA1999999100601MD1999999-0101REMSYN088AAXX  09004 82280 32497 8//// 10262 20255 30060 40118 81207 333 10303 29089 55059 59010;EQDQ01  00002PRCP99
0201822800999992001030912004-02530-044280FM-12+005199999V02099999999990450019N0100001N1+02861+02501101191ADDAA124001091AY161061AY221061GF106991041021004501051001KA1240N+02401MA1999999100611MD1999999-0131MW1011REMSYN088AAXX  09124 82280 21497 6//// 10286 20250 30061 40119 70162 84250 333 20240 59013 60014;
0183822800999992001030918004-02530-044280FM-12+005199999V02099999999990450019N0100001N1+02861+02371999999ADDAA199000091GF108991041051004501021021MA1999999100281MD1999999-0191REMSYN070AAXX  09184 82280 32497 8//// 10286 20237 30028 40008 84522 333 59019;EQDQ01+100083APOSLPQ02  00002PRCP99
0213822800999992001031000004-02530-044280FM-12+005199999V02099999999990450019N0040001N1+02521+02281101101ADDAA106005191AY161061AY221061GF107991041071004501051999KA1240M+03011MA1999999100521MD1999999-0081MW1601REMSYN100AAXX  10004 82280 21496 7//// 10252 20228 30052 40110 76062 8475/ 333 10301 29085 55063 59008 60051;
0201822800999992001031012004-02530-044280FM-12+005199999V02099999999990042019N0100001N1+02661+02411101101ADDAA124042991AY161061AY221061GF108991061051004501031999KA1240N+02291MA1999999100521MD1999999-0091MW1011REMSYN088AAXX  10124 82280 21497 8//// 10266 20241 30052 40110 70162 8653/ 333 20229 59009 60434;
0167822800999992001031018004-02530-044280FM-12+005199999V02099999999990450019N0100001N1+02861+02391100871ADDAA199000091GF106991041051004501021001MA1999999100291MD1999999+0011REMSYN070AAXX  10184 82280 32497 6//// 10286 20239 30029 40087 84520 333 58001;EQDQ01  00002PRCP99
0198822800999992001031100004-02530-044280FM-12+005199999V02099999999990450019N0100001N1+02601+02391101071ADDAA199000091GF107991041021004501011001KA1240M+02951MA1999999100491MD1999999-0031REMSYN088AAXX  11004 82280 32497 7//// 10260 20239 30049 40107 84210 333 10295 29084 55044 59003;EQDQ01  00002PRCP99
0201822800999992001031112004-02530-044280FM-12+005199999V02099999999990450019N0040001N1+02461+02371101251ADDAA124032091AY161061AY221061GF108991041051004501021999KA1240N+02301MA1999999100661MD1999999+0141MW1611REMSYN088AAXX  11124 82280 21496 8//// 10246 20237 30066 40125 76162 8452/ 333 20230 58014 60324;
0148822800999992001031118004-02530-044280FM-12+005199999V02099999999990450019N0100001N1+02801+02521100911ADDAA199000021GF107991041051004501061999MA1999999100331MD1999999+0041REMSYN070AAXX  11184 82280 32497 7//// 10280 20252 30033 40091 8456/ 333 58004;
0213822800999992001031200004-02530-044280FM-12+005199999V02099999999990450019N0100001N1+02381+02331101181ADDAA106026991AY161061AY221061GF108991021021004501031999KA1240M+03011MA1999999100601MD1999999+0111MW1021REMSYN100AAXX  12004 82280 21497 8//// 10238 20233 30060 40118 70262 8223/ 333 10301 29094 55006 58011 60271;
0201822800999992001031212004-02530-044280FM-12+005199999V02099999999990042019N0040001N1+02401+02281101331ADDAA124104991AY161061AY221061GF108991061071004501021999KA1240N+02221MA1999999100741MD1999999+0081MW1601REMSYN088AAXX  12124 82280 21496 8//// 10240 20228 30074 40133 76062 8672/ 333 20222 58008 61054;
0182822800999992001031218004-02530-044280FM-12+005199999V02099999999990042019N0100001N1+02601+02401101051ADDAA106001091AY161061AY221061GF108991061061004501011999MA1999999100471MD1999999+0141MW1011REMSYN082AAXX  12184 82280 21497 8//// 10260 20240 30047 40105 70162 8661/ 333 58014 60011;
0179822800999992001031300004-02530-044280FM-12+005199999V02099999999990042019N0100001N1+02421+02281101281ADDAA199000021GF108991051061004501051999KA1240M+02721MA1999999100681MD1999999+0081REMSYN088AAXX  13004 82280 32497 8//// 10242 20228 30068 40128 8565/ 333 10272 29091 55000 58008;
0201822800999992001031312004-02530-044280FM-12+005199999V02099999999990042019N0100001N1+02321+02251101391ADDAA124036191AY161061AY221061GF108991051061004501021999KA1240N+02171MA1999999100801MD1999999+0061MW1011REMSYN088AAXX  13124 82280 21497 8//// 10232 20225 30080 40139 70162 8562/ 333 20217 58006 60364;
0167822800999992001031318004-02530-044280FM-12+005199999V02099999999990450019N0100001N1+02921+02431100991ADDAA199000091GF108991041021004501051021MA1999999100411MD1999999-0061REMSYN070AAXX  13184 82280 32497 8//// 10292 20243 30041 40099 84252 333 59006;EQDQ01  00002PRCP99
0198822800999992001031400004-02530-044280FM-12+005199999V02099999999990042019N0100001N1+02321+02131101161ADDAA199000091GF105991051051004501001001KA1240M+02941MA1999999100581MD1999999-0101REMSYN088AAXX  14004 82280 32497 5//// 10232 20213 30058 40116 85500 333 10294 29086 55019 59010;EQDQ01  00002PRCP99
0186822800999992001031412004-02530-044280FM-12+005199999V02099999999990450019N0100001N1+02541+02361101151ADDAA199000091GF108991041051008001031999KA1240N+02281MA1999999100571MD1999999-0231REMSYN076AAXX  14124 82280 32597 8//// 10254 20236 30057 40115 8453/ 333 20228 59023;EQDQ01  00002PRCP99
0167822800999992001031418004-02530-044280FM-12+005199999V02099999999990075019N0100001N1+02861+02581100931ADDAA199000091GF108991051051008001061999MA1999999100351MD1999999-0061REMSYN070AAXX  14184 82280 32597 8//// 10286 20258 30035 40093 8556/ 333 59006;EQDQ01  00002PRCP99
0198822800999992001031500004-02530-044280FM-12+005199999V02099999999990450019N0100001N1+02461+02411101071ADDAA199000091GF106991021021004501051011KA1240M+03041MA1999999100491MD1999999-0091REMSYN088AAXX  15004 82280 32497 6//// 10246 20241 30049 40107 82251 333 10304 29092 55013 59009;EQDQ01  00002PRCP99
0186822800999992001031512004-02530-044280FM-12+005199999V02099999999990042019N0100001N1+02701+02301101151ADDAA199000091GF107991051021004501031999KA1240N+02261MA1999999100571MD1999999+0001REMSYN076AAXX  15124 82280 32497 7//// 10270 20230 30057 40115 8523/ 333 20226 58000;EQDQ01  00002PRCP99
0182822800999992001031518004-02530-044280FM-12+005199999V02099999999990450019N0100001N1+02681+02481100851ADDAA106007991AY161061AY221061GF107991041061004501051021MA1999999100271MD1999999-0081MW1011REMSYN082AAXX  15184 82280 21497 7//// 10268 20248 30027 40085 70162 84652 333 59008 60081;
0198822800999992001031600004-02530-044280FM-12+005199999V02099999999992200019N0100001N1+02421+02281101061ADDAA199000091GF104991031021004501011001KA1240M+02971MA1999999100481MD1999999-0011REMSYN088AAXX  16004 82280 32497 4//// 10242 20228 30048 40106 83210 333 10297 29088 55031 59001;EQDQ01  00002PRCP99
0173822800999992001031612004-02530-044280FM-12+005199999V02099999999990042019N0100001N1+02621+02441101251ADDAA124007991GF108991051061004501051999KA1240N+02301MA1999999100671MD1999999+0101REMSYN082AAXX  16124 82280 22497 8//// 10262 20244 30067 40125 8565/ 333 20230 58010 60084;
0167822800999992001031618004-02530-044280FM-12+005199999V02099999999990042019N0100001N1+02981+02441100991ADDAA199000091GF107991051051004501021001MA1999999100411MD1999999+0141REMSYN070AAXX  16184 82280 32497 7//// 10298 20244 30041 40099 85520 333 58014;EQDQ01  00002PRCP99
0213822800999992001031700004-02530-044280FM-12+005199999V02099999999992200019N0100001N1+02521+02341101151ADDAA106003091AY161061AY221061GF104991031021004501031001KA1240M+03071MA1999999100571MD1999999+0091MW1021REMSYN100AAXX  17004 82280 21497 4//// 10252 20234 30057 40115 70262 83230 333 10307 29086 55050 58009 60031;
0201822800999992001031712004-02530-044280FM-12+005199999V02099999999990450019N0100001N1+02761+02561101191ADDAA124001091AY161061AY211061GF106991041021004501031041KA1240N+02301MA1999999100611MD1999999-0061MW1021REMSYN088AAXX  17124 82280 21497 6//// 10276 20256 30061 40119 70261 84234 333 20230 59006 60014;
0195822800999992001031718004-02530-044280FM-12+005199999V02099999999990450019N0100001N1+02861+02581100891ADDAA199000091AY121061AY211061GF106991031051004501011041MA1999999100311MD1999999-0101MW1171REMSYN076AAXX  17184 82280 31497 6//// 10286 20258 30031 40089 71721 83514 333 59010;EQDQ01  00002PRCP99
0198822800999992001031800004-02530-044280FM-12+005199999V02099999999992200019N0100001N1+02521+02431101101ADDAA199000091GF102991021021004501001001KA1240M+03101MA1999999100521MD1999999-0051REMSYN088AAXX  18004 82280 32497 2//// 10252 20243 30052 40110 82200 333 10310 29086 55061 59005;EQDQ01  00002PRCP99
0201822800999992001031812004-02530-044280FM-12+005199999V02099999999990042019N0100001N1+02701+02451101071ADDAA124002091AY161061AY221061GF107991051061004501021999KA1240N+02271MA1999999100491MD1999999-0121MW1161REMSYN088AAXX  18124 82280 21497 7//// 10270 20245 30049 40107 71662 8562/ 333 20227 59012 60024;
0182822800999992001031818004-02530-044280FM-12+005199999V02099999999990450019N0100001N1+02961+02381100701ADDAA106000191AY161061AY221061GF106991041021004501011001MA1999999100121MD1999999-0191MW1171REMSYN082AAXX  18184 82280 21497 6//// 10296 20238 30012 40070 71762 84210 333 59019 69921;
0213822800999992001031900004-02530-044280FM-12+005199999V02099999999990450019N0100001N1+02501+02261100971ADDAA106006191AY161061AY221061GF105991021011004501021001KA1240M+03041MA1999999100391MD1999999-0131MW1021REMSYN100AAXX  19004 82280 21497 5//// 10250 20226 30039 40097 70262 82120 333 10304 29085 55058 59013 60061;
0173822800999992001031912004-02530-044280FM-12+005199999V02099999999990042019N0100001N1+02801+02461101121ADDAA124006191GF108991051051004501021021KA1240N+02271MA1999999100541MD1999999+0051REMSYN082AAXX  19124 82280 22497 8//// 10280 20246 30054 40112 85522 333 20227 58005 60064;
0167822800999992001031918004-02530-044280FM-12+005199999V02099999999991050019N0100001N1+02991+02511100721ADDAA199000091GF106991041021004501001021MA1999999100141MD1999999+0021REMSYN070AAXX  19184 82280 32497 6//// 10299 20251 30014 40072 84202 333 58002;EQDQ01  00002PRCP99
0198822800999992001032000004-02530-044280FM-12+005199999V02099999999992200019N0100001N1+02581+02331100991ADDAA199000091GF102991021011008001001001KA1240M+03061MA1999999100411MD1999999+0021REMSYN088AAXX  20004 82280 32597 2//// 10258 20233 30041 40099 82100 333 10306 29082 55074 58002;EQDQ01  00002PRCP99
0201822800999992001032012004-02530-044280FM-12+005199999V02099999999991050019N0100001N1+02921+02581101271ADDAA124000591AY161061AY211061GF107991041021004501001071KA1240N+02351MA1999999100691MD1999999+0151MW1021REMSYN088AAXX  20124 82280 21497 7//// 10292 20258 30069 40127 70261 84207 333 20235 58015 69944;
0167822800999992001032018004-02530-044280FM-12+005199999V02099999999990450019N0100001N1+03021+02531100991ADDAA199000091GF106991031021004501061041MA1999999100411MD1999999+0271REMSYN070AAXX  20184 82280 32497 6//// 10302 20253 30041 40099 83264 333 58027;EQDQ01  00002PRCP99
0198822800999992001032100004-02530-044280FM-12+005199999V02099999999990450019N0100001N1+02521+02451101171ADDAA199000091GF108991021021004501011999KA1240M+03101MA1999999100591MD1999999+0181REMSYN088AAXX  21004 82280 32497 8//// 10252 20245 30059 40117 8221/ 333 10310 29087 55056 58018;EQDQ01  00002PRCP99
0186822800999992001032112004-02530-044280FM-12+005199999V02099999999990042019N0100001N1+02891+02461101211ADDAA199000091GF105991051021004501001001KA1240N+02281MA1999999100631MD1999999-0061REMSYN076AAXX  21124 82280 32497 5//// 10289 20246 30063 40121 85200 333 20228 59006;EQDQ01  00002PRCP99
0167822800999992001032118004-02530-044280FM-12+005199999V02099999999990042019N0100001N1+02801+02621100931ADDAA199000091GF108991051061004501021999MA1999999100351MD1999999-0061REMSYN070AAXX  21184 82280 32497 8//// 10280 20262 30035 40093 8562/ 333 59006;EQDQ01  00002PRCP99
0213822800999992001032200004-02530-044280FM-12+005199999V02099999999992200019N0100001N1+02501+02381101021ADDAA106007191AY161061AY211061GF102991021021004501001001KA1240M+03161MA1999999100441MD1999999-0151MW1011REMSYN100AAXX  22004 82280 21497 2//// 10250 20238 30044 40102 70161 82200 333 10316 29083 55059 59015 60071;
0173822800999992001032212004-02530-044280FM-12+005199999V02099999999990450019N0100001N1+02841+02461101061ADDAA124007991GF108991041021004501031021KA1240N+02391MA1999999100481MD1999999-0151REMSYN082AAXX  22124 82280 22497 8//// 10284 20246 30048 40106 84232 333 20239 59015 60084;
0167822800999992001032218004-02530-044280FM-12+005199999V02099999999990042019N0100001N1+03061+02591100591ADDAA199000091GF106991051021004501051001MA1999999100021MD1999999-0331REMSYN070AAXX  22184 82280 32497 6//// 10306 20259 30002 40059 85250 333 59033;EQDQ01  00002PRCP99
0198822800999992001032300004-02530-044280FM-12+005199999V02099999999990450019N0100001N1+02661+02331100891ADDAA199000091GF107991041021004501051001KA1240M+03181MA1999999100311MD1999999-0131REMSYN088AAXX  23004 82280 32497 7//// 10266 20233 30031 40089 84250 333 10318 29080 55071 59013;EQDQ01  00002PRCP99
0186822800999992001032312004-02530-044280FM-12+005199999V02099999999990450019N0100001N1+02921+02581100941ADDAA199000091GF105991031021004501041061KA1240N+02371MA1999999100361MD1999999-0121REMSYN076AAXX  23124 82280 32497 5//// 10292 20258 30036 40094 83246 333 20237 59012;EQDQ01  00002PRCP99
0182822800999992001032318004-02530-044280FM-12+005199999V02099999999990450019N0040001N1+02701+02611100731ADDAA106000591AY191061AY211061GF108991041051004501021999MA1999999100151MD1999999+0131MW1911REMSYN082AAXX  23184 82280 21496 8//// 10270 20261 30015 40073 79191 8452/ 333 58013 69941;
0213822800999992001032400004-02530-044280FM-12+005199999V02099999999990450019N0040001N1+02461+02411100981ADDAA106007991AY191061AY261061GF108991041051004501021999KA1240M+03101MA1999999100401MD1999999+0091MW1531REMSYN100AAXX  24004 82280 21496 8//// 10246 20241 30040 40098 75396 8452/ 333 10310 29094 55046 58009 60081;
0201822800999992001032412004-02530-044280FM-12+005199999V02099999999990042019N0040001N1+02361+02281101131ADDAA124009991AY161061AY221061GF108991061071004501021999KA1240N+02291MA1999999100541MD1999999+0181MW1601REMSYN088AAXX  24124 82280 21496 8//// 10236 20228 30054 40113 76062 8672/ 333 20229 58018 60104;
0182822800999992001032418004-02530-044280FM-12+005199999V02099999999990042019N0100001N1+02721+02411100921ADDAA106001091AY161061AY221061GF108991061051004501011999MA1999999100341MD1999999+0191MW1011REMSYN082AAXX  24184 82280 21497 8//// 10272 20241 30034 40092 70162 8651/ 333 58019 60011;
0179822800999992001032500004-02530-044280FM-12+005199999V02099999999990450019N0100001N1+02501+02321101101ADDAA199000021GF106991031021004501051001KA1240M+02781MA1999999100521MD1999999+0121REMSYN088AAXX  25004 82280 32497 6//// 10250 20232 30052 40110 83250 333 10278 29089 55005 58012;
0173822800999992001032512004-02530-044280FM-12+005199999V02099999999990450019N0100001N1+02721+02451101161ADDAA124001091GF106991021021004501031021KA1240N+02311MA1999999100581MD1999999+0041REMSYN082AAXX  25124 82280 22497 6//// 10272 20245 30058 40116 82232 333 20231 58004 60014;
0182822800999992001032518004-02530-044280FM-12+005199999V02099999999990042019N0100001N1+03141+02481100931ADDAA106000591AY161061AY221061GF105991051021004501001001MA1999999100351MD1999999+0011MW1021REMSYN082AAXX  25184 82280 21497 5//// 10314 20248 30035 40093 70262 85200 333 58001 69961;
0198822800999992001032600004-02530-044280FM-12+005199999V02099999999992200019N0100001N1+02561+02511101051ADDAA199000091GF103991021021004501011001KA1240M+03171MA1999999100471MD1999999-0051REMSYN088AAXX  26004 82280 32497 3//// 10256 20251 30047 40105 82210 333 10317 29086 55071 59005;EQDQ01  00002PRCP99
0173822800999992001032612004-02530-044280FM-12+005199999V02099999999990450019N0100001N1+02801+02541101181ADDAA124000591GF106991031021004501041061KA1240N+02341MA1999999100601MD1999999+0021REMSYN082AAXX  26124 82280 22497 6//// 10280 20254 30060 40118 83246 333 20234 58002 69964;
0167822800999992001032618004-02530-044280FM-12+005199999V02099999999990450019N0100001N1+02961+02601100851ADDAA199000091GF107991041051004501031041MA1999999100271MD1999999-0081REMSYN070AAXX  26184 82280 32497 7//// 10296 20260 30027 40085 84534 333 59008;EQDQ01  00002PRCP99
0182822800999992001032718004-02530-044280FM-12+005199999V02099999999990042019N0100001N1+02841+02601100761ADDAA106002091AY121061AY221061GF108991061061004501051999MA1999999100181MD1999999-0031MW1211REMSYN082AAXX  27184 82280 21497 8//// 10284 20260 30018 40076 72122 8665/ 333 59003 60021;
0213822800999992001032800004-02530-044280FM-12+005199999V02099999999990450019N0100001N1+02481+02341100981ADDAA106010991AY191061AY261061GF107991031021004501021001KA1240M+03181MA1999999100401MD1999999-0131MW1021REMSYN100AAXX  28004 82280 21497 7//// 10248 20234 30040 40098 70296 83220 333 10318 29090 55041 59013 60111;
0201822800999992001032812004-02530-044280FM-12+005199999V02099999999990042019N0100001N1+02781+02481101141ADDAA124017091AY161061AY221061GF106991051021004501001021KA1240N+02301MA1999999100561MD1999999-0021MW1011REMSYN088AAXX  28124 82280 21497 6//// 10278 20248 30056 40114 70162 85202 333 20230 59002 60174;
0167822800999992001032818004-02530-044280FM-12+005199999V02099999999990042019N0100001N1+02991+02571100771ADDAA199000091GF106991051021004501031001MA1999999100191MD1999999+0011REMSYN070AAXX  28184 82280 32497 6//// 10299 20257 30019 40077 85230 333 58001;EQDQ01  00002PRCP99
0213822800999992001032900004-02530-044280FM-12+005199999V02099999999990042019N0100001N1+02521+02361101051ADDAA106001091AY161061AY221061GF105991051021004501001001KA1240M+03001MA1999999100471MD1999999+0071MW1021REMSYN100AAXX  29004 82280 21497 5//// 10252 20236 30047 40105 70262 85200 333 10300 29082 55076 58007 60011;
0201822800999992001032912004-02530-044280FM-12+005199999V02099999999990450019N0040001N1+02521+02451101261ADDAA124022191AY161061AY221061GF108991041051004501021999KA1240N+02451MA1999999100671MD1999999+0111MW1631REMSYN088AAXX  29124 82280 21496 8//// 10252 20245 30067 40126 76362 8452/ 333 20245 58011 60224;
0182822800999992001032918004-02530-044280FM-12+005199999V02099999999990450019N0040001N1+02561+02511101131ADDAA106027991AY191061AY261061GF108991041051004501021999MA1999999100551MD1999999+0361MW1951REMSYN082AAXX  29184 82280 21496 8//// 10256 20251 30055 40113 79596 8452/ 333 58036 60281;
0213822800999992001033000004-02530-044280FM-12+005199999V02099999999990042019N0040001N1+02321+02291101261ADDAA106009991AY161061AY261061GF108991081071004501999999KA1240M+02621MA1999999100671MD1999999+0201MW1611REMSYN100AAXX  30004 82280 21496 8//// 10232 20229 30067 40126 76166 887// 333 10262 29097 55000 58020 60101;
0201822800999992001033012004-02530-044280FM-12+005199999V02099999999990042019N0100001N1+02321+02291101351ADDAA124039191AY161061AY221061GF108991071061004501021999KA1240N+02261MA1999999100761MD1999999+0091MW1211REMSYN088AAXX  30124 82280 21497 8//// 10232 20229 30076 40135 72162 8762/ 333 20226 58009 60394;
0182822800999992001033018004-02530-044280FM-12+005199999V02099999999990042019N0100001N1+02441+02271101181ADDAA106010991AY161061AY221061GF108991071061004501021999MA1999999100601MD1999999+0051MW1021REMSYN082AAXX  30184 82280 21497 8//// 10244 20227 30060 40118 70262 8762/ 333 58005 60111;
0179822800999992001033100004-02530-044280FM-12+005199999V02099999999990042019N0100001N1+02341+02181101211ADDAA199000021GF108991051051004501021999KA1240M+02601MA1999999100661MD1999999-0011REMSYN088AAXX  31004 82280 32497 8//// 10234 20218 30066 40121 8552/ 333 10260 29092 55000 59001;
0173822800999992001033112004-02530-044280FM-12+005199999V02099999999990042019N0100001N1+02761+02501101121ADDAA124010991GF107991051021004501031999KA1240N+02241MA1999999100541MD1999999-0221REMSYN082AAXX  31124 82280 22497 7//// 10276 20250 30054 40112 8523/ 333 20224 59022 60114;
0167822800999992001033118004-02530-044280FM-12+005199999V02099999999991050019N0100001N1+02861+02501100801ADDAA199000091GF106991041021004501001021MA1999999100221MD1999999-0381REMSYN070AAXX  31184 82280 32497 6//// 10286 20250 30022 40080 84202 333 59038;EQDQ01  00002PRCP99
0213822800999992001040100004-02530-044280FM-12+005199999V02099999999990450019N0100001N1+02501+02361101091ADDAA106000591AY161061AY221061GF106991031021004501011001KA1240M+03051MA1999999100511MD1999999-0151MW1021REMSYN100AAXX  01004 82280 21497 6//// 10250 20236 30051 40109 70262 83210 333 10305 29087 55069 59015 69961;
0201822800999992001040112004-02530-044280FM-12+005199999V02099999999990042019N0100001N1+02561+02511101221ADDAA124007991AY161061AY221061GF108991051051004501031999KA1240N+02331MA1999999100641MD1999999+0101MW1021REMSYN088AAXX  01124 82280 21497 8//// 10256 20251 30064 40122 70262 8553/ 333 20233 58010 60084;
0182822800999992001040118004-02530-044280FM-12+005199999V02099999999990450019N0100001N1+02921+02621100891ADDAA106000591AY161061AY211061GF107991041021004501051999MA1999999100311MD1999999+0091MW1011REMSYN082AAXX  01184 82280 21497 7//// 10292 20262 30031 40089 70161 8425/ 333 58009 69941;
0198822800999992001040200004-02530-044280FM-12+005199999V02099999999991050019N0100001N1+02541+02471101101ADDAA199000091GF105991021021004501051011KA1240M+03021MA1999999100521MD1999999+0011REMSYN088AAXX  02004 82280 32497 5//// 10254 20247 30052 40110 82251 333 10302 29094 55012 58001;EQDQ01  00002PRCP99
0201822800999992001040212004-02530-044280FM-12+005199999V02099999999990042019N0100001N1+02501+02361101391ADDAA124006191AY161061AY221061GF108991051061004501021999KA1240N+02311MA1999999100801MD1999999+0161MW1161REMSYN088AAXX  02124 82280 21497 8//// 10250 20236 30080 40139 71662 8562/ 333 20231 58016 60064;
0182822800999992001040218004-02530-044280FM-12+005199999V02099999999990450019N0100001N1+02841+02461101021ADDAA106000191AY151061AY221061GF106991041021004501031001MA1999999100441MD1999999+0131MW1021REMSYN082AAXX  02184 82280 21497 6//// 10284 20246 30044 40102 70252 84230 333 58013 69911;
0198822800999992001040300004-02530-044280FM-12+005199999V02099999999990450019N0100001N1+02461+02321101221ADDAA199000091GF106991041021004501021001KA1240M+02921MA1999999100641MD1999999+0121REMSYN088AAXX  03004 82280 32497 6//// 10246 20232 30064 40122 84220 333 10292 29089 55020 58012;EQDQ01  00002PRCP99
0201822800999992001040312004-02530-044280FM-12+005199999V02099999999990042019N0040001N1+02241+02171101331ADDAA124023991AY161061AY221061GF108991071071004501011999KA1240N+02191MA1999999100741MD1999999-0061MW1631REMSYN088AAXX  03124 82280 21496 8//// 10224 20217 30074 40133 76362 8771/ 333 20219 59006 60244;
0182822800999992001040318004-02530-044280FM-12+005199999V02099999999990042019N0100001N1+02721+02411100901ADDAA106004191AY161061AY221061GF108991051021004501051999MA1999999100321MD1999999-0121MW1011REMSYN082AAXX  03184 82280 21497 8//// 10272 20241 30032 40090 70162 8525/ 333 59012 60041;
0185822800999992001040400004-02530-044280FM-12+005199999V02099999999990042019N0100001N1+02481+02341101211ADDAA106002091GF108991051071004501051999KA1240M+02781MA1999999100631MD1999999-0011REMSYN094AAXX  04004 82280 21497 8//// 10248 20234 30063 40121 8575/ 333 10278 29090 55011 59001 60021;
0201822800999992001040412004-02530-044280FM-12+005199999V02099999999991050019N0100001N1+02541+02451101201ADDAA124042991AY161061AY211061GF105991021091004501041011KA1240N+02321MA1999999100621MD1999999-0121MW1021REMSYN088AAXX  04124 82280 21497 5//// 10254 20245 30062 40120 70261 82941 333 20232 59012 60434;
0195822800999992001040418004-02530-044280FM-12+005199999V02099999999990450019N0100001N1+02961+02641100831ADDAA199000091AY111061AY201061GF106991041051004501041011MA1999999100251MD1999999-0071MW1171REMSYN076AAXX  04184 82280 31497 6//// 10296 20264 30025 40083 71710 84541 333 59007;EQDQ01  00002PRCP99
0213822800999992001040500004-02530-044280FM-12+005199999V02099999999990450019N0100001N1+02401+02351101101ADDAA106007191AY191061AY261061GF106991031021004501031011KA1240M+02981MA1999999100521MD1999999-0111MW1011REMSYN100AAXX  05004 82280 21497 6//// 10240 20235 30052 40110 70196 83231 333 10298 29093 55047 59011 60071;
0201822800999992001040512004-02530-044280FM-12+005199999V02099999999990042019N0100001N1+02491+02411101201ADDAA124055991AY161061AY221061GF108991051061004501051999KA1240N+02291MA1999999100621MD1999999+0001MW1011REMSYN088AAXX  05124 82280 21497 8//// 10249 20241 30062 40120 70162 8565/ 333 20229 58000 60564;
0167822800999992001040518004-02530-044280FM-12+005199999V02099999999990450019N0100001N1+03001+02551100821ADDAA199000091GF107991041051004501031021MA1999999100241MD1999999-0011REMSYN070AAXX  05184 82280 32497 7//// 10300 20255 30024 40082 84532 333 59001;EQDQ01  00002PRCP99
0213822800999992001040600004-02530-044280FM-12+005199999V02099999999990450019N0100001N1+02381+02221101151ADDAA106007991AY191061AY261061GF105991021051004501011001KA1240M+03021MA1999999100571MD1999999-0051MW1011REMSYN100AAXX  06004 82280 21497 5//// 10238 20222 30057 40115 70196 82510 333 10302 29088 55044 59005 60081;
0173822800999992001040612004-02530-044280FM-12+005199999V02099999999990042019N0100001N1+02601+02461101271ADDAA124007991GF108991061051004501011999KA1240N+02321MA1999999100681MD1999999+0061REMSYN082AAXX  06124 82280 22497 8//// 10260 20246 30068 40127 8651/ 333 20232 58006 60084;
0167822800999992001040618004-02530-044280FM-12+005199999V02099999999990450019N0100001N1+02881+02541100941ADDAA199000091GF107991041051004501011001MA1999999100361MD1999999+0121REMSYN070AAXX  06184 82280 32497 7//// 10288 20254 30036 40094 84510 333 58012;EQDQ01  00002PRCP99
0213822800999992001040700004-02530-044280FM-12+005199999V02099999999990450019N0100001N1+02461+02321101261ADDAA106003091AY161061AY221061GF105991021021004501051001KA1240M+02961MA1999999100681MD1999999+0111MW1011REMSYN100AAXX  07004 82280 21497 5//// 10246 20232 30068 40126 70162 82250 333 10296 29088 55017 58011 60031;
0201822800999992001040712004-02530-044280FM-12+005199999V02099999999991050019N0100001N1+02741+02581101281ADDAA124003091AY161061AY211061GF105991021021004501061011KA1240N+02271MA1999999100701MD1999999+0021MW1021REMSYN088AAXX  07124 82280 21497 5//// 10274 20258 30070 40128 70261 82261 333 20227 58002 60034;
0182822800999992001040718004-02530-044280FM-12+005199999V02099999999990450019N0100001N1+02641+02481100941ADDAA106005191AY161061AY221061GF107991041051008001051021MA1999999100361MD1999999+0001MW1021REMSYN082AAXX  07184 82280 21597 7//// 10264 20248 30036 40094 70262 84552 333 58000 60051;
0201822800999992001040812004-02530-044280FM-12+005199999V02099999999990042019N0100001N1+02691+02501101161ADDAA124014091AY161061AY221061GF108991051061004501051999KA1240N+02221MA1999999100581MD1999999-0121MW1011REMSYN088AAXX  08124 82280 21497 8//// 10269 20250 30058 40116 70162 8565/ 333 20222 59012 60144;
0182822800999992001040818004-02530-044280FM-12+005199999V02099999999990042019N0100001N1+02581+02341100801ADDAA106055191AY161061AY221061GF108991051051004501021999MA1999999100221MD1999999-0141MW1171REMSYN082AAXX  08184 82280 21497 8//// 10258 20234 30022 40080 71762 8552/ 333 59014 60551;
0213822800999992001040900004-02530-044280FM-12+005199999V02099999999990042019N0100001N1+02421+02281101071ADDAA106006191AY191061AY261061GF108991051061004501051999KA1240M+02851MA1999999100491MD1999999-0111MW1021REMSYN100AAXX  09004 82280 21497 8//// 10242 20228 30049 40107 70296 8565/ 333 10285 29090 55011 59011 60061;
0201822800999992001040912004-02530-044280FM-12+005199999V02099999999990042019N0100001N1+02561+02441101041ADDAA124066091AY161061AY221061GF108991061061004501021999KA1240N+02321MA1999999100461MD1999999-0121MW1211REMSYN088AAXX  09124 82280 21497 8//// 10256 20244 30046 40104 72162 8662/ 333 20232 59012 60664;
0148822800999992001040918004-02530-044280FM-12+005199999V02099999999990450019N0100001N1+02761+02481100701ADDAA199000021GF107991021021004501051021MA1999999100121MD1999999-0101REMSYN070AAXX  09184 82280 32497 7//// 10276 20248 30012 40070 82252 333 59010;
0213822800999992001041000004-02530-044280FM-12+005199999V02099999999990042019N0100001N1+02381+02221101091ADDAA106018091AY161061AY221061GF108991061061004501051999KA1240M+02951MA1999999100511MD1999999+0021MW1501REMSYN100AAXX  10004 82280 21497 8//// 10238 20222 30051 40109 75062 8665/ 333 10295 29090 55025 58002 60181;
0201822800999992001041012004-02530-044280FM-12+005199999V02099999999990042019N0100001N1+02461+02361101241ADDAA124029091AY161061AY261061GF108991081051004501999999KA1240N+02291MA1999999100651MD1999999+0191MW1511REMSYN088AAXX  10124 82280 21497 8//// 10246 20236 30065 40124 75166 885// 333 20229 58019 60294;
0182822800999992001041018004-02530-044280FM-12+005199999V02099999999990450019N0040001N1+02561+02471101021ADDAA106004191AY161061AY211061GF108991041051004501021999MA1999999100431MD1999999+0311MW1631REMSYN082AAXX  10184 82280 21496 8//// 10256 20247 30043 40102 76361 8452/ 333 58031 60041;
0213822800999992001041100004-02530-044280FM-12+005199999V02099999999990450019N0100001N1+02381+02331101111ADDAA106007191AY161061AY221061GF106991021061004501051021KA1240M+02901MA1999999100531MD1999999+0021MW1021REMSYN100AAXX  11004 82280 21497 6//// 10238 20233 30053 40111 70262 82652 333 10290 29096 55010 58002 60071;
0201822800999992001041112004-02530-044280FM-12+005199999V02099999999990042019N0100001N1+02401+02351101391ADDAA124016091AY161061AY221061GF108991061071004501021999KA1240N+02291MA1999999100801MD1999999+0151MW1501REMSYN088AAXX  11124 82280 21497 8//// 10240 20235 30080 40139 75062 8672/ 333 20229 58015 60164;
0182822800999992001041118004-02530-044280FM-12+005199999V02099999999990450019N0100001N1+02701+02431101061ADDAA106007991AY161061AY221061GF108991031021004501051021MA1999999100481MD1999999+0051MW1021REMSYN082AAXX  11184 82280 21497 8//// 10270 20243 30048 40106 70262 83252 333 58005 60081;
0179822800999992001041200004-02530-044280FM-12+005199999V02099999999990450019N0100001N1+02481+02431101101ADDAA199000021GF107991031021004501051001KA1240M+02711MA1999999100521MD1999999-0011REMSYN088AAXX  12004 82280 32497 7//// 10248 20243 30052 40110 83250 333 10271 29093 55007 59001;
0173822800999992001041212004-02530-044280FM-12+005199999V02099999999990450019N0100001N1+02861+02521101161ADDAA124007991GF107991041021004501031021KA1240N+02321MA1999999100581MD1999999-0221REMSYN082AAXX  12124 82280 22497 7//// 10286 20252 30058 40116 84232 333 20232 59022 60084;
0167822800999992001041218004-02530-044280FM-12+005199999V02099999999992200019N0100001N1+02981+02551100901ADDAA199000091GF104991031021004501031001MA1999999100321MD1999999-0161REMSYN070AAXX  12184 82280 32497 4//// 10298 20255 30032 40090 83230 333 59016;EQDQ01  00002PRCP99
0198822800999992001041300004-02530-044280FM-12+005199999V02099999999992200019N0100001N1+02581+02511101111ADDAA199000091GF104991011011008001051001KA1240M+03061MA1999999100531MD1999999+0011REMSYN088AAXX  13004 82280 32597 4//// 10258 20251 30053 40111 81150 333 10306 29088 55087 58001;EQDQ01  00002PRCP99
0186822800999992001041312004-02530-044280FM-12+005199999V02099999999990042019N0100001N1+02881+02481101051ADDAA199000091GF105991051021004501001001KA1240N+02331MA1999999100471MD1999999-0111REMSYN076AAXX  13124 82280 32497 5//// 10288 20248 30047 40105 85200 333 20233 59011;EQDQ01  00002PRCP99
0167822800999992001041318004-02530-044280FM-12+005199999V02099999999990042019N0100001N1+02901+02541100741ADDAA199000091GF108991061051004501021001MA1999999100161MD1999999-0161REMSYN070AAXX  13184 82280 32497 8//// 10290 20254 30016 40074 86520 333 59016;EQDQ01  00002PRCP99
0213822800999992001041400004-02530-044280FM-12+005199999V02099999999992200019N0100001N1+02501+02341100921ADDAA106006191AY161061AY221061GF104991041021004501001001KA1240M+03091MA1999999100341MD1999999-0191MW1021REMSYN100AAXX  14004 82280 21497 4//// 10250 20234 30034 40092 70262 84200 333 10309 29085 55081 59019 60061;
0201822800999992001041412004-02530-044280FM-12+005199999V02099999999990042019N0100001N1+02601+02421101141ADDAA124052191AY161061AY221061GF108991051061004501051999KA1240N+02291MA1999999100561MD1999999+0091MW1011REMSYN088AAXX  14124 82280 21497 8//// 10260 20242 30056 40114 70162 8565/ 333 20229 58009 60524;
0167822800999992001041418004-02530-044280FM-12+005199999V02099999999990450019N0100001N1+02881+02501100821ADDAA199000091GF107991041021004501011001MA1999999100241MD1999999+0081REMSYN070AAXX  14184 82280 32497 7//// 10288 20250 30024 40082 84210 333 58008;EQDQ01  00002PRCP99
0213822800999992001041500004-02530-044280FM-12+005199999V02099999999990042019N0100001N1+02521+02451101161ADDAA106000191AY161061AY221061GF108991061071004501021999KA1240M+02901MA1999999100581MD1999999+0241MW1501REMSYN100AAXX  15004 82280 21497 8//// 10252 20245 30058 40116 75062 8672/ 333 10290 29090 55033 58024 69921;
0201822800999992001041512004-02530-044280FM-12+005199999V02099999999990450019N0100001N1+02541+02441101291ADDAA124000391AY151061AY221061GF107991041061004501021021KA1240N+02331MA1999999100701MD1999999+0141MW1011REMSYN088AAXX  15124 82280 21497 7//// 10254 20244 30070 40129 70152 84622 333 20233 58014 69934;
0182822800999992001041618004-02530-044280FM-12+005199999V02099999999990042019N0100001N1+02591+02441101121ADDAA106020191AY161061AY221061GF108991051061004501021021MA1999999100541MD1999999+0151MW1011REMSYN082AAXX  16184 82280 21497 8//// 10259 20244 30054 40112 70162 85622 333 58015 60201;
0201822800999992001041712004-02530-044280FM-12+005199999V02099999999991050019N0100001N1+02771+02421101371ADDAA124032091AY161061AY221061GF106991031021004501001021KA1240N+02281MA1999999100781MD1999999-0041MW1011REMSYN088AAXX  17124 82280 21497 6//// 10277 20242 30078 40137 70162 83202 333 20228 59004 60324;
0167822800999992001041718004-02530-044280FM-12+005199999V02099999999990450019N0100001N1+02801+02541101031ADDAA199000091GF108991041021004501051021MA1999999100451MD1999999-0091REMSYN070AAXX  17184 82280 32497 8//// 10280 20254 30045 40103 84252 333 59009;EQDQ01  00002PRCP99
0213822800999992001041800004-02530-044280FM-12+005199999V02099999999992200019N0100001N1+02461+02281101291ADDAA106000591AY161061AY221061GF103991031001012501031001KA1240M+03031MA1999999100611MD1999999-0151MW1011REMSYN100AAXX  18004 82280 21697 3//// 10246 20228 30061 40129 70162 83030 333 10303 29087 55063 59015 69941;
0201822800999992001041812004-02530-044280FM-12+005199999V02099999999990042019N0100001N1+02751+02541101201ADDAA124000591AY161061AY221061GF107991051021004501051999KA1240N+02311MA1999999100621MD1999999-0161MW1011REMSYN088AAXX  18124 82280 21497 7//// 10275 20254 30062 40120 70162 8525/ 333 20231 59016 69954;
0167822800999992001041818004-02530-044280FM-12+005199999V02099999999990042019N0100001N1+02761+02441100881ADDAA199000091GF108991051061004501051999MA1999999100301MD1999999-0151REMSYN070AAXX  18184 82280 32497 8//// 10276 20244 30030 40088 8565/ 333 59015;EQDQ01  00002PRCP99
0213822800999992001041900004-02530-044280FM-12+005199999V02099999999990042019N0020001N1+02461+02411101081ADDAA106029091AY161061AY221061GF108991081071004501999999KA1240M+02961MA1999999100501MD1999999-0111MW1651REMSYN100AAXX  19004 82280 21495 8//// 10246 20241 30050 40108 76562 887// 333 10296 29091 55028 59011 60291;
0201822800999992001041912004-02530-044280FM-12+005199999V02099999999990450019N0040001N1+02321+02291101301ADDAA124085191AY161061AY261061GF108991041051004501021999KA1240N+02251MA1999999100721MD1999999+0101MW1631REMSYN088AAXX  19124 82280 21496 8//// 10232 20229 30072 40130 76366 8452/ 333 20225 58010 60854;
0182822800999992001041918004-02530-044280FM-12+005199999V02099999999990450019N0100001N1+02781+02481100931ADDAA106000591AY161061AY221061GF108991031051004501071999MA1999999100351MD1999999+0051MW1021REMSYN082AAXX  19184 82280 21497 8//// 10278 20248 30035 40093 70262 8357/ 333 58005 69941;
0179822800999992001042000004-02530-044280FM-12+005199999V02099999999990450019N0100001N1+02461+02411101151ADDAA199000021GF108991031021004501031999KA1240M+02811MA1999999100571MD1999999+0071REMSYN088AAXX  20004 82280 32497 8//// 10246 20241 30057 40115 8323/ 333 10281 29094 55000 58007;
0173822800999992001042012004-02530-044280FM-12+005199999V02099999999990042019N0100001N1+02691+02521101321ADDAA124000591GF108991061021004501051999KA1240N+02271MA1999999100741MD1999999+0021REMSYN082AAXX  20124 82280 22497 8//// 10269 20252 30074 40132 8625/ 333 20227 58002 69944;
0182822800999992001042018004-02530-044280FM-12+005199999V02099999999990042019N0100001N1+02601+02501101001ADDAA106021191AY161061AY221061GF108991051061004501051999MA1999999100421MD1999999+0071MW1011REMSYN082AAXX  20184 82280 21497 8//// 10260 20250 30042 40100 70162 8565/ 333 58007 60211;
0198822800999992001042100004-02530-044280FM-12+005199999V02099999999990450019N0100001N1+02481+02381101241ADDAA199000091GF106991041021004501031001KA1240M+02701MA1999999100651MD1999999+0081REMSYN088AAXX  21004 82280 32497 6//// 10248 20238 30065 40124 84230 333 10270 29093 55012 58008;EQDQ01  00002PRCP99
0201822800999992001042112004-02530-044280FM-12+005199999V02099999999990450019N0100001N1+02531+02401101391ADDAA124032091AY161061AY221061GF107991041061004501031021KA1240N+02271MA1999999100801MD1999999+0061MW1011REMSYN088AAXX  21124 82280 21497 7//// 10253 20240 30080 40139 70162 84632 333 20227 58006 60324;
0167822800999992001042118004-02530-044280FM-12+005199999V02099999999990042019N0100001N1+02881+02541101031ADDAA199000091GF107991051051004501021001MA1999999100451MD1999999+0031REMSYN070AAXX  21184 82280 32497 7//// 10288 20254 30045 40103 85520 333 58003;EQDQ01  00002PRCP99
0198822800999992001042200004-02530-044280FM-12+005199999V02099999999990450019N0100001N1+02461+02411101211ADDAA199000091GF107991031021004501051001KA1240M+02921MA1999999100631MD1999999-0021REMSYN088AAXX  22004 82280 32497 7//// 10246 20241 30063 40121 83250 333 10292 29092 55008 59002;EQDQ01  00002PRCP99
0202822800999992001042212004-02530-044280FM-12+005199999V02099999999990042019N0100001N1+02641+02481999999ADDAA199000091GF107991051021004501061999KA1240N+02321MA1999999100621MD1999999-0181REMSYN076AAXX  22124 82280 32497 7//// 10264 20248 30062 40620 8526/ 333 20232 59018;EQDQ01  00002PRCP99Q02 106203APOSLP
0201822800999992001042218004-02530-044280FM-12+005199999V02099999999990450019N0100001N1+02761+02561100792ADDAA106000591AY161061AY221061GF107991041051004501021011MA1999999100211MD1999999-0241MW1021REMSYN082AAXX  22184 82280 21497 7//// 10276 20256 30021 40079 70262 84521 333 59024 69941;EQDQ01+100793APOSLP
0198822800999992001042300004-02530-044280FM-12+005199999V02099999999992200019N0100001N1+02461+02431101001ADDAA199000091GF104991011021004501031011KA1240M+02941MA1999999100421MD1999999-0211REMSYN088AAXX  23004 82280 32497 4//// 10246 20243 30042 40100 81231 333 10294 29094 55023 59021;EQDQ01  00002PRCP99
0173822800999992001042312004-02530-044280FM-12+005199999V02099999999990042019N0100001N1+02821+02521101121ADDAA124000591GF106991051021004501031001KA1240N+02321MA1999999100541MD1999999-0081REMSYN082AAXX  23124 82280 22497 6//// 10282 20252 30054 40112 85230 333 20232 59008 69944;
0167822800999992001042318004-02530-044280FM-12+005199999V02099999999990042019N0100001N1+03121+02691100721ADDAA199000091GF106991051021004501051001MA1999999100141MD1999999-0071REMSYN070AAXX  23184 82280 32497 6//// 10312 20269 30014 40072 85250 333 59007;EQDQ01  00002PRCP99
0198822800999992001042400004-02530-044280FM-12+005199999V02099999999990450019N0100001N1+02541+02401100961ADDAA199000091GF105991021021004501051001KA1240M+03241MA1999999100381MD1999999-0041REMSYN088AAXX  24004 82280 32497 5//// 10254 20240 30038 40096 82250 333 10324 29086 55075 59004;EQDQ01  00002PRCP99
0186822800999992001042412004-02530-044280FM-12+005199999V02099999999990450019N0100001N1+02971+02641101111ADDAA199000091GF106991031021004501031021KA1240N+02311MA1999999100531MD1999999-0011REMSYN076AAXX  24124 82280 32497 6//// 10297 20264 30053 40111 83232 333 20231 59001;EQDQ01  00002PRCP99
0167822800999992001042418004-02530-044280FM-12+005199999V02099999999990042019N0100001N1+02961+02601100871ADDAA199000091GF108991061051004501021999MA1999999100291MD1999999+0151REMSYN070AAXX  24184 82280 32497 8//// 10296 20260 30029 40087 8652/ 333 58015;EQDQ01  00002PRCP99
0213822800999992001042500004-02530-044280FM-12+005199999V02099999999990042019N0100001N1+02581+02441101181ADDAA106005191AY191061AY261061GF106991061021004501001001KA1240M+03151MA1999999100601MD1999999+0221MW1131REMSYN100AAXX  25004 82280 21497 6//// 10258 20244 30060 40118 71396 86200 333 10315 29086 55040 58022 60051;
0167822800999992001042512004-02530-044280FM-12+005199999V02099999999999999999N0040001N1+02461+02371101471ADDGF108991999999004501999999KA1240N+02211MA1999999100881MD1999999+0351REMSYN087AAXX  25124 82280 21496 8//// 10246 20237 30088 40147 7919 8455/ 333 20221 58035 60314;
0182822800999992001042518004-02530-044280FM-12+005199999V02099999999990450019N0100001N1+02941+02641101051ADDAA106000191AY121061AY211061GF106991031021004501051011MA1999999100471MD1999999+0181MW1911REMSYN082AAXX  25184 82280 21497 6//// 10294 20264 30047 40105 79121 83251 333 58018 69921;
0213822800999992001042600004-02530-044280FM-12+005199999V02099999999990450019N0040001N1+02421+02331101141ADDAA106020191AY191061AY261061GF108991041051004501021999KA1240M+03051MA1999999100751MD1999999+0151MW1631REMSYN100AAXX  26004 82280 21496 8//// 10242 20233 30075 40114 76396 8452/ 333 10305 29092 55034 58015 60201;
0201822800999992001042612004-02530-044280FM-12+005199999V02099999999990042019N0100001N1+02741+02541101271ADDAA124021191AY161061AY221061GF107991061021004501031001KA1240N+02201MA1999999100681MD1999999-0201MW1011REMSYN088AAXX  26124 82280 21497 7//// 10274 20254 30068 40127 70162 86230 333 20220 59020 60214;
0167822800999992001042618004-02530-044280FM-12+005199999V02099999999990450019N0100001N1+03101+02541100991ADDAA199000091GF106991041021004501051001MA1999999100411MD1999999-0061REMSYN070AAXX  26184 82280 32497 6//// 10310 20254 30041 40099 84250 333 59006;EQDQ01  00002PRCP99
0198822800999992001042700004-02530-044280FM-12+005199999V02099999999992200019N0100001N1+02541+02361101171ADDAA199000091GF102991021011008001001001KA1240M+03131MA1999999100591MD1999999-0161REMSYN088AAXX  27004 82280 32597 2//// 10254 20236 30059 40117 82100 333 10313 29085 55061 59016;EQDQ01  00002PRCP99
0201822800999992001042712004-02530-044280FM-12+005199999V02099999999990042019N0100001N1+02641+02501101271ADDAA124001091AY161061AY221061GF108991061051004501021999KA1240N+02301MA1999999100681MD1999999+0001MW1011REMSYN088AAXX  27124 82280 21497 8//// 10264 20250 30068 40127 70162 8652/ 333 20230 58000 60014;
0182822800999992001042718004-02530-044280FM-12+005199999V02099999999990042019N0100001N1+02701+02521100941ADDAA106009991AY161061AY221061GF108991071061004501011999MA1999999100361MD1999999-0051MW1021REMSYN082AAXX  27184 82280 21497 8//// 10270 20252 30036 40094 70262 8761/ 333 59005 60101;
0198822800999992001042800004-02530-044280FM-12+005199999V02099999999992200019N0100001N1+02641+02321101181ADDAA199000091GF103991031001004501051001KA1240M+03021MA1999999100601MD1999999+0011REMSYN088AAXX  28004 82280 32497 3//// 10264 20232 30060 40118 83050 333 10302 29091 55019 58001;EQDQ01  00002PRCP99
0201822800999992001042812004-02530-044280FM-12+005199999V02099999999990450019N0100001N1+02761+02501101301ADDAA124013091AY161061AY211061GF106991031021004501031011KA1240N+02301MA1999999100721MD1999999+0041MW1021REMSYN088AAXX  28124 82280 21497 6//// 10276 20250 30072 40130 70261 83231 333 20230 58004 60134;
0167822800999992001042818004-02530-044280FM-12+005199999V02099999999990450019N0100001N1+03001+02571101011ADDAA199000091GF106991041021004501031041MA1999999100431MD1999999+0071REMSYN070AAXX  28184 82280 32497 6//// 10300 20257 30043 40101 84234 333 58007;EQDQ01  00002PRCP99
