0208823970999992001110800004-03720-038550FM-12+001999999V0200501N001512200019N0020001N1+02601+02101101471ADDAA199000091GA1001+999999999GF100991001001999999001001KA1240M+02971MA1999999101161MD1999999+0131REMSYN082AAXX  08004 82397 32995 00503 10260 20210 30116 40147 333 10297 29075 55046 58013;EQDQ01  00002PRCP99
0173823970999992001110812004-03720-038550FM-12+001999999V0200901N003610120019N0200001N1+02901+02171101631ADDAA124000391GF107991051081008001031001KA1240N+02551MA1999999101321MD1999999+0141REMSYN082AAXX  08124 82397 22598 70907 10290 20217 30132 40163 85830 333 20255 58014 69934;
