0322825640999992001010100004-05520-047440SY-MT+0131SBIZ V0201401N003110210019N0100001N1+02371+02091999999ADDAA106001091AY161061AY221061GA1021+004509999GA2081+021009999GF199999011091004501001001KA1240M+03541MA1101191999999MW1011REMSYN082AAXX  01004 82564 21497 61406 10237 20209 70162 81900 333 10354 29068 55031 69991;MET052SBIZ 010000Z 00000KT 9999 SCT015 OVC070 23/22 Q1012;EQDQ01+000062SCOTCVQ02+000000PRSWM2Q03    003PRSWM1
0181825640999992001010108004-05520-047440FM-15+0131SBIZ V0201501N003110210019N0050001N1+02201+02201999999ADDGA1021+002409999GA2071+021009999GF107991999999999999999999MA1101081999999MW1101REMMET055SBIZ 010800Z 15006KT 5000 BR FEW008 BKN070 22/22 Q1011;EQDQ01+000003PRSWM1Q02    003PRSWM1
0162825640999992001010109004-05520-047440FM-15+0131SBIZ V0209999C000010045019N0060001N1+02201+02201999999ADDGA1071+004509999GA2081+021009999GF108991999999999999999999MA1101081999999MW1001REMMET052SBIZ 010900Z 00000KT 6000 BKN015 OVC070 22/22 Q1011;EQDQ01+000000PRSWM2
0182825640999992001010111004-05520-047440FM-15+0131SBIZ V0202401N002110030019N0050001N1+02301+02301999999ADDGA1071+003009999GA2081+021009999GF108991999999999999999999MA1101291999999MW1611REMMET056SBIZ 011100Z 24004KT 5000 -RA BKN010 OVC070 23/23 Q1013;EQDQ01+000003PRSWM1Q02    003PRSWM1
0304825640999992001010112004-05520-047440SY-MT+0131SBIZ V0209999C000010030019N0040001N1+02341+02261999999ADDAA124010991AY161061AY221061GA1071+003009999GA2081+021009999GF108991999091004501001001KA1240N+02151MA1101291999999MW1611MW2651REMSYN070AAXX  01124 82564 21496 80000 10234 20226 76562 81900 333 20215 60114;MET056SBIZ 011200Z 24004KT 4000 -RA BKN010 OVC070 23/23 Q1013;EQDQ01+000012SCOTLCQ02    003PRSWM1
0205825640999992001010114004-05520-047440FM-15+0131SBIZ V0202401N003110210019N0080001N1+02401+02401999999ADDGA1021+003009999GA2021+006009999GA3081+021009999GF108991999999999999999999MA1101391999999MW1611REMMET063SBIZ 011400Z 24006KT 8000 -RA SCT010 SCT020 OVC070 24/24 Q1014;EQDQ01+000003PRSWM1Q02    003PRSWM1
0205825640999992001010115004-05520-047440FM-15+0131SBIZ V0202401N004110060019N0080001N1+02501+02401999999ADDGA1021+003009999GA2071+006009999GA3081+021009999GF108991999999999999999999MA1101391999999MW1611REMMET063SBIZ 011500Z 24008KT 8000 -RA SCT010 BKN020 OVC070 25/24 Q1014;EQDQ01+000003PRSWM1Q02    003PRSWM1
0185825640999992001010116004-05520-047440FM-15+0131SBIZ V0202401N001510060019N0112651N1+02501+02401999999ADDGA1021+003009999GA2071+006009999GA3071+021009999GF107991999999999999999999MA1101291999999MW1001REMMET059SBIZ 011600Z 24003KT 9999 SCT010 BKN020 BKN070 25/24 Q1013;EQDQ01+000000PRSWM2
0185825640999992001010117004-05520-047440FM-15+0131SBIZ V0202101N001010030019N0112651N1+02701+02401999999ADDGA1071+003009999GA2071+006009999GA3081+021009999GF108991999999999999999999MA1101081999999MW1001REMMET059SBIZ 011700Z 21002KT 9999 BKN010 BKN020 OVC070 27/24 Q1011;EQDQ01+000000PRSWM2
0314825640999992001010118004-05520-047440SY-MT+0131SBIZ V0209999C000010060019N0040001N1+02711+02391999999ADDAA106010991AY161061AY221061GA1021+003009999GA2071+006009999GA3081+021009999GF108991999071004501001001MA1101021999999MW1031REMSYN064AAXX  01184 82564 21496 80000 10271 20239 70362 81700 333 60111;MET059SBIZ 011800Z 00000KT 9999 SCT010 BKN020 OVC070 27/23 Q1010;EQDQ01+000012SCOTLCQ02+000000PRSWM2Q03    003PRSWM1
0185825640999992001010119004-05520-047440FM-15+0131SBIZ V0201801N001010210019N0112651N1+02901+02301999999ADDGA1021+003009999GA2021+006009999GA3071+021009999GF107991999999999999999999MA1101021999999MW1001REMMET059SBIZ 011900Z 18002KT 9999 FEW010 SCT020 BKN070 29/23 Q1010;EQDQ01+000000PRSWM2
0162825640999992001010120004-05520-047440FM-15+0131SBIZ V0201801N004110210019N0112651N1+02801+02401999999ADDGA1021+003009999GA2071+021009999GF107991999999999999999999MA1100911999999MW1001REMMET052SBIZ 012000Z 18008KT 9999 FEW010 BKN070 28/24 Q1009;EQDQ01+000000PRSWM2
0210825640999992001010122004-05520-047440FM-15+0131SBIZ V0201501N00101006901CN0112651N1+02601+02401999999ADDGA1021+003009999GA2021+006009999GA3021+006909099GA4071+021009999GF107991999999999999999999MA1101021999999MW1001REMMET068SBIZ 012200Z 15002KT 9999 SCT010 SCT020 FEW023CB BKN070 26/24 Q1010;EQDQ01+000000PRSWM2
0151825640999992001010200004-05520-047440FM-12+0131SBIZ V0209999C000019999999N0040001N1+02611+02421999999ADDAA199000021GF105991999091004501001001KA1240M+02831REMSYN070AAXX  02004 82564 32496 50000 10261 20242 81900 333 10283 29089 55000;EQDQ01+000012SCOTLC
0185825640999992001010209004-05520-047440FM-15+0131SBIZ V0200401N003110045019N0060001N1+02301+02301999999ADDGA1021+002409999GA2071+004509999GA3081+021009999GF108991999999999999999999MA1101191999999MW1001REMMET059SBIZ 020900Z 04006KT 6000 FEW008 BKN015 OVC070 23/23 Q1012;EQDQ01+000000PRSWM2
0162825640999992001010210004-05520-047440FM-15+0131SBIZ V0203601N003110045019N0080001N1+02301+02301999999ADDGA1071+004509999GA2081+021009999GF108991999999999999999999MA1101191999999MW1001REMMET052SBIZ 021000Z 36006KT 8000 BKN015 OVC070 23/23 Q1012;EQDQ01+000000PRSWM2
0295825640999992001010212004-05520-047440SY-MT+0131SBIZ V0209999C000010060019N0040001N1+02541+02331999999ADDAA106010991GA1021+003009999GA2071+006009999GA3081+021009999GF108991999071004501001001KA1240N+02181MA1101391999999MW1001REMSYN064AAXX  02124 82564 22496 80000 10254 20233 81700 333 20218 60111;MET059SBIZ 021200Z 21004KT 9999 SCT010 BKN020 OVC070 25/24 Q1014;EQDQ01+000012SCOTLCQ02+000000PRSWM2
0231825640999992001010214004-05520-047440FM-15+0131SBIZ V0200301N006210030019N0060001N1+02601+02301999999ADDGA1071+003009999GA2071+006009999GA3021+006909099GA4081+021009999GF108991999999999999999999MA1101391999999MW1161REMMET073SBIZ 021400Z 03012KT 6000 VCSH BKN010 BKN020 FEW023CB OVC070 26/23 Q1014;EQDQ01+000003PRSWM1Q02    003PRSWM1
0185825640999992001010214354-05520-047440FM-15+0131SBIZ V0203301N007710060019N0112651N1+02601+02301999999ADDGA1021+003009999GA2071+006009999GA3071+021009999GF107991999999999999999999MA1101291999999MW1001REMMET059SBIZ 021435Z 33015KT 9999 SCT010 BKN020 BKN070 26/23 Q1013;EQDQ01+000000PRSWM2
0210825640999992001010217004-05520-047440FM-15+0131SBIZ V0203001N00311007501CN0112651N1+03001+02401999999ADDGA1021+003009999GA2021+006009999GA3021+007509099GA4071+030009999GF107991999999999999999999MA1101081999999MW1001REMMET068SBIZ 021700Z 30006KT 9999 FEW010 SCT020 FEW025CB BKN100 30/24 Q1011;EQDQ01+000000PRSWM2
0240825640999992001010218004-05520-047440SY-MT+0131SBIZ V0202301N001010450019N0100001N1+03021+02341999999ADDAA106000391AY151061AY221061GF108991021051008001061001MW1031REMSYN064AAXX  02184 82564 21597 82302 10302 20234 70352 82560 333 69931;MET064SBIZ 021800Z SBIZ 36002KT 9999 FEW010 SCT020 BKN070 31/23 Q1010;EQDQ01+000000PRSWM2Q02    003PRSWM1
0237825640999992001010219004-05520-047440FM-15+0131SBIZ V0201001N01031007501CN0030001N1+02901+02401999999ADDGA1021+003009999GA2021+006009999GA3021+007509099GA4071+021009999GF107991999999999999999999MA1101021999999MW1811MW2951REMMET073SBIZ 021900Z 10020KT 3000 TSRA SCT010 SCT020 FEW025CB BKN070 29/24 Q1010;EQDQ01+000003PRSWM1Q02    003PRSWM1
0167825640999992001010221004-05520-047440FM-15+0131SBIZ V0209999C000010210019N0112651N1+02301+02201999999ADDGA1021+003009999GA2081+021009999GF108991999999999999999999MA1101021999999MW1001REMMET057SBIZ 022100Z 00000KT 9999 FEW010 OVC070 23/22 Q1010 RETS;EQDQ01+000000PRSWM2
0166825640999992001010300004-05520-047440FM-12+0131SBIZ V0209999C000010450019N0100001N1+02311+02181999999ADDAA106004191AY161061AY221061GF105991011091004501051001KA1240M+03081MW1131REMSYN082AAXX  03004 82564 21497 50000 10231 20218 71362 81950 333 10308 29083 55014 60041;
0162825640999992001010309004-05520-047440FM-15+0131SBIZ V0209999C000010300019N0080001N1+02201+02201999999ADDGA1021+004509999GA2071+030009999GF107991999999999999999999MA1101191999999MW1001REMMET052SBIZ 030900Z 00000KT 8000 SCT015 BKN100 22/22 Q1012;EQDQ01+000000PRSWM2
0162825640999992001010310004-05520-047440FM-15+0131SBIZ V0209999C000012200019N0112651N1+02201+02201999999ADDGA1021+004509999GA2021+030009999GF104991999999999999999999MA1101191999999MW1001REMMET052SBIZ 031000Z 00000KT 9999 SCT015 SCT100 22/22 Q1012;EQDQ01+000000PRSWM2
0139825640999992001010311004-05520-047440FM-15+0131SBIZ V0201301N002110045019N0112651N1+02401+02201999999ADDGA1071+004509999GF107991999999999999999999MA1101291999999MW1001REMMET045SBIZ 031100Z 13004KT 9999 BKN015 24/22 Q1013;EQDQ01+000000PRSWM2
0281825640999992001010312004-05520-047440SY-MT+0131SBIZ V0201401N003110045019N0040001N1+02431+02191999999ADDAA124005191GA1071+004509999GA2021+007509099GA3071+021009999GF108991011071004501001001KA1240N+02081MA1101491999999MW1001REMSYN064AAXX  03124 82564 22496 81406 10243 20219 81700 333 20208 60054;MET061SBIZ 031200Z 15012KT 9999 BKN015 FEW025CB BKN070 24/23 Q1015;EQDQ01+000000PRSWM2
0162825640999992001010313004-05520-047440FM-15+0131SBIZ V0201001N002110210019N0112651N1+02501+02201999999ADDGA1021+004509999GA2071+021009999GF107991999999999999999999MA1101491999999MW1001REMMET052SBIZ 031300Z 10004KT 9999 SCT015 BKN070 25/22 Q1015;EQDQ01+000000PRSWM2
0162825640999992001010314004-05520-047440FM-15+0131SBIZ V0201801N004110300019N0112651N1+02901+02201999999ADDGA1021+006009999GA2071+030009999GF107991999999999999999999MA1101391999999MW1001REMMET052SBIZ 031400Z 18008KT 9999 FEW020 BKN100 29/22 Q1014;EQDQ01+000000PRSWM2
0162825640999992001010315004-05520-047440FM-15+0131SBIZ V0201501N005110300019N0112651N1+02901+02201999999ADDGA1021+006009999GA2071+030009999GF107991999999999999999999MA1101291999999MW1001REMMET052SBIZ 031500Z 15010KT 9999 FEW020 BKN100 29/22 Q1013;EQDQ01+000000PRSWM2
0162825640999992001010317004-05520-047440FM-15+0131SBIZ V0201801N002110300019N0112651N1+03101+02201999999ADDGA1021+006009999GA2071+030009999GF107991999999999999999999MA1101081999999MW1001REMMET052SBIZ 031700Z 18004KT 9999 FEW020 BKN100 31/22 Q1011;EQDQ01+000000PRSWM2
0263825640999992001010318004-05520-047440SY-MT+0131SBIZ V0201401N001510300019N0200001N1+03071+02211999999ADDAA199000091GA1021+006009999GA2071+030009999GF107991999001008001061021MA1101021999999MW1001REMSYN052AAXX  03184 82564 32598 71403 10307 20221 80062 333;MET052SBIZ 031800Z 14006KT 9999 FEW020 BKN100 31/22 Q1010;EQDQ01+000000PRSWM2Q02+000002SCOTLCQ03  00002PRCP99
0139825640999992001010319004-05520-047440FM-15+0131SBIZ V0201301N005112200019N0112651N1+03201+02201999999ADDGA1021+006009999GF102991999999999999999999MA1100911999999MW1001REMMET045SBIZ 031900Z 13010KT 9999 FEW020 32/22 Q1009;EQDQ01+000000PRSWM2
0139825640999992001010320004-05520-047440FM-15+0131SBIZ V0201801N004112200019N0112651N1+03201+02201999999ADDGA1021+006009999GF102991999999999999999999MA1100911999999MW1001REMMET045SBIZ 032000Z 18008KT 9999 FEW020 32/22 Q1009;EQDQ01+000000PRSWM2
0139825640999992001010321004-05520-047440FM-15+0131SBIZ V0201301N004112200019N0112651N1+03101+02201999999ADDGA1021+006009999GF102991999999999999999999MA1100811999999MW1001REMMET045SBIZ 032100Z 13008KT 9999 FEW020 31/22 Q1008;EQDQ01+000000PRSWM2
0139825640999992001010322004-05520-047440FM-15+0131SBIZ V0201401N002112200019N0112651N1+02801+02101999999ADDGA1021+006009999GF102991999999999999999999MA1100911999999MW1001REMMET045SBIZ 032200Z 14004KT 9999 FEW020 28/21 Q1009;EQDQ01+000000PRSWM2
0091825640999992001010323004-05520-047440FM-15+0131SBIZ V0201101N00411220001CN0099001N1+02501+02401999999ADDMA1101021999999MW1001REMMET039SBIZ 032300Z 11008KT CAVOK 25/24 Q1010;EQDQ01+000000PRSWM2
0162825640999992001010411004-05520-047440FM-15+0131SBIZ V0209999C000012200019N0112651N1+02501+02301999999ADDGA1021+004509999GA2021+120009999GF104991999999999999999999MA1101291999999MW1001REMMET052SBIZ 041100Z 00000KT 9999 SCT015 SCT400 25/23 Q1013;EQDQ01+000000PRSWM2
0139825640999992001010412004-05520-047440FM-12+0131SBIZ V0203201N000510450019N0100001N1+02731+02301999999ADDAA199000091GF106991011021008001061001KA1999N+02081REMSYN058AAXX  04124 82564 32597 63201 10273 20230 81260 333 20208;EQDQ01  00002PRCP99
0139825640999992001010413004-05520-047440FM-15+0131SBIZ V0203601N004610060019N0112651N1+02901+02201999999ADDGA1071+006009999GF107991999999999999999999MA1101291999999MW1001REMMET045SBIZ 041300Z 36009KT 9999 BKN020 29/22 Q1013;EQDQ01+000000PRSWM2
0139825640999992001010414004-05520-047440FM-15+0131SBIZ V0200301N004610060019N0112651N1+03001+02201999999ADDGA1071+006009999GF107991999999999999999999MA1101191999999MW1001REMMET045SBIZ 041400Z 03009KT 9999 BKN020 30/22 Q1012;EQDQ01+000000PRSWM2
0139825640999992001010415004-05520-047440FM-15+0131SBIZ V0201801N004112200019N0112651N1+03201+02201999999ADDGA1021+006009999GF104991999999999999999999MA1101081999999MW1001REMMET045SBIZ 041500Z 18008KT 9999 SCT020 32/22 Q1011;EQDQ01+000000PRSWM2
0139825640999992001010416004-05520-047440FM-15+0131SBIZ V0201601N003112200019N0112651N1+03401+02201999999ADDGA1021+006009999GF104991999999999999999999MA1101081999999MW1001REMMET045SBIZ 041600Z 16006KT 9999 SCT020 34/22 Q1011;EQDQ01+000000PRSWM2
0139825640999992001010417004-05520-047440FM-15+0131SBIZ V0202201N005110060019N0112651N1+03401+02201999999ADDGA1071+006009999GF107991999999999999999999MA1101021999999MW1001REMMET045SBIZ 041700Z 22010KT 9999 BKN020 34/22 Q1010;EQDQ01+000000PRSWM2
0285825640999992001010418004-05520-047440SY-MT+0131SBIZ V0201401N002610060019N0100001N1+03381+02191999999ADDAA199000091AY121061AY211061GA1071+006009999GA2071+120009999GF108991021071004501061001MA1100811999999MW1161REMSYN058AAXX  04184 82564 31497 81405 10338 20219 71621 82760 333;MET052SBIZ 041800Z 12005KT 9999 BKN020 BKN400 35/22 Q1008;EQDQ01+000000PRSWM2Q02  00002PRCP99Q03    003PRSWM1
0187825640999992001010419004-05520-047440FM-15+0131SBIZ V0202401N005110060019N0112651N1+03001+02301999999ADDGA1071+006009999GA2021+007509099GA3071+120009999GF107991999999999999999999MA1100911999999MW1001REMMET061SBIZ 041900Z 24010KT 9999 BKN020 FEW025CB BKN400 30/23 Q1009;EQDQ01+000000PRSWM2
0162825640999992001010420004-05520-047440FM-15+0131SBIZ V0203301N002611200019N0112651N1+02901+02301999999ADDGA1021+006009999GA2071+120009999GF107991999999999999999999MA1100811999999MW1001REMMET052SBIZ 042000Z 33005KT 9999 SCT020 BKN400 29/23 Q1008;EQDQ01+000000PRSWM2
0162825640999992001010421004-05520-047440FM-15+0131SBIZ V0203301N003111200019N0112651N1+02801+02201999999ADDGA1021+006009999GA2071+120009999GF107991999999999999999999MA1100911999999MW1001REMMET052SBIZ 042100Z 33006KT 9999 SCT020 BKN400 28/22 Q1009;EQDQ01+000000PRSWM2
0151825640999992001010500004-05520-047440FM-12+0131SBIZ V0209999C000011050019N0100001N1+02551+02131999999ADDAA199000091GF105991011091008001051061KA1240M+03431REMSYN070AAXX  05004 82564 32597 50000 10255 20213 81956 333 10343 29068 55069;EQDQ01  00002PRCP99
0158825640999992001010509004-05520-047440FM-15+0131SBIZ V0209999C000012200019N0050001N1+02201+02201999999ADDGA1021+006009999GF104991999999999999999999MA1101191999999MW1101REMMET048SBIZ 050900Z 00000KT 5000 BR SCT020 22/22 Q1012;EQDQ01+000003PRSWM1Q02    003PRSWM1
0162825640999992001010510004-05520-047440FM-15+0131SBIZ V0209999C000010060019N0080001N1+02201+02201999999ADDGA1021+004509999GA2071+006009999GF107991999999999999999999MA1101291999999MW1001REMMET052SBIZ 051000Z 00000KT 8000 FEW015 BKN020 22/22 Q1013;EQDQ01+000000PRSWM2
0162825640999992001010511004-05520-047440FM-15+0131SBIZ V0201801N002610060019N0112651N1+02401+02301999999ADDGA1071+006009999GA2071+120009999GF107991999999999999999999MA1101391999999MW1001REMMET052SBIZ 051100Z 18005KT 9999 BKN020 BKN400 24/23 Q1014;EQDQ01+000000PRSWM2
0139825640999992001010512004-05520-047440FM-12+0131SBIZ V0201401N002111050019N0100001N1+02651+02311999999ADDAA199000091GF108991011051004501001071KA1999N+02161REMSYN058AAXX  05124 82564 32497 81404 10265 20231 81507 333 20216;EQDQ01  00002PRCP99
0162825640999992001010513004-05520-047440FM-15+0131SBIZ V0201501N006211200019N0112651N1+03001+02201999999ADDGA1021+006009999GA2071+120009999GF107991999999999999999999MA1101391999999MW1001REMMET052SBIZ 051300Z 15012KT 9999 SCT020 BKN400 30/22 Q1014;EQDQ01+000000PRSWM2
0162825640999992001010514004-05520-047440FM-15+0131SBIZ V0201401N005111200019N0112651N1+03101+02201999999ADDGA1021+006009999GA2071+120009999GF107991999999999999999999MA1101291999999MW1001REMMET052SBIZ 051400Z 14010KT 9999 SCT020 BKN400 31/22 Q1013;EQDQ01+000000PRSWM2
0162825640999992001010515004-05520-047440FM-15+0131SBIZ V0201501N007710300019N0112651N1+03301+02201999999ADDGA1021+006009999GA2071+030009999GF107991999999999999999999MA1101191999999MW1001REMMET052SBIZ 051500Z 15015KT 9999 SCT020 BKN100 33/22 Q1012;EQDQ01+000000PRSWM2
0139825640999992001010516004-05520-047440FM-15+0131SBIZ V0200901N005110060019N0112651N1+03301+02201999999ADDGA1071+006009999GF107991999999999999999999MA1101081999999MW1001REMMET045SBIZ 051600Z 09010KT 9999 BKN020 33/22 Q1011;EQDQ01+000000PRSWM2
0165825640999992001010517004-05520-047440FM-15+0131SBIZ V0202101N002112200019N0112651N1+03401+02201999999ADDGA1021+006009999GA2021+006909029GF102991999999999999999999MA1101021999999MW1001REMMET055SBIZ 051700Z 21004KT 9999 SCT020 FEW023TCU 34/22 Q1010;EQDQ01+000000PRSWM2
0272825640999992001010518004-05520-047440SY-MT+0131SBIZ V0202301N00101006001CN0100001N1+03031+02361999999ADDAA106000591AY151061AY221061GA1071+006009999GA2021+007509099GF108991021041004501051061MA1100911999999MW1151MW2161REMSYN064AAXX  05184 82564 21497 82302 10303 20236 71552 82456 333 69941;MET059SBIZ 051800Z 21006KT 8000 VCSH BKN020 FEW025CB 30/23 Q1009;EQDQ01    003PRSWM1
0206825640999992001010519004-05520-047440FM-15+0131SBIZ V0202401N006210060019N0112651N1+02901+02301999999ADDGA1071+006009999GA2021+007509099GA3071+120009999GF107991999999999999999999MA1100911999999MW1171REMMET064SBIZ 051900Z 24012KT 9999 TS BKN020 FEW025CB BKN400 29/23 Q1009;EQDQ01+000003PRSWM1Q02    003PRSWM1
0162825640999992001010521004-05520-047440FM-15+0131SBIZ V0202401N004111200019N0112651N1+02701+02301999999ADDGA1021+004509999GA2071+120009999GF107991999999999999999999MA1100911999999MW1001REMMET052SBIZ 052100Z 24008KT 9999 SCT015 BKN400 27/23 Q1009;EQDQ01+000000PRSWM2
0162825640999992001010522004-05520-047440FM-15+0131SBIZ V0209999C000011200019N0112651N1+02701+02401999999ADDGA1021+004509999GA2081+120009999GF108991999999999999999999MA1100911999999MW1001REMMET052SBIZ 052200Z 00000KT 9999 SCT015 OVC400 27/24 Q1009;EQDQ01+000000PRSWM2
0195825640999992001010600004-05520-047440FM-12+0131SBIZ V0200501N002119999999N0040001N1+02691+02411999999ADDAA199000091AY121061AY211061GF107991999091004501001001KA1240M+03361MW1131REMSYN076AAXX  06004 82564 31496 70504 10269 20241 71321 81900 333 10336 29077 55037;EQDQ01+000012SCOTLCQ02  00002PRCP99
0162825640999992001010609004-05520-047440FM-15+0131SBIZ V0203301N002110030019N0112651N1+02201+02201999999ADDGA1071+003009999GA2071+021009999GF107991999999999999999999MA1101081999999MW1001REMMET052SBIZ 060900Z 33004KT 9999 BKN010 BKN070 22/22 Q1011;EQDQ01+000000PRSWM2
0162825640999992001010611004-05520-047440FM-15+0131SBIZ V0200601N002111200019N0112651N1+02401+02201999999ADDGA1021+003009999GA2071+120009999GF107991999999999999999999MA1101191999999MW1001REMMET052SBIZ 061100Z 06004KT 9999 SCT010 BKN400 24/22 Q1012;EQDQ01+000000PRSWM2
0154825640999992001010612004-05520-047440FM-12+0131SBIZ V0209999C000010450019N0100001N1+02541+02361999999ADDAA124006191AY161061AY221061GF108991021051004501071001KA1240N+02121MW1011REMSYN070AAXX  06124 82564 21497 80000 10254 20236 70162 82570 333 20212 60064;
0135825640999992001010618004-05520-047440FM-12+0131SBIZ V0201801N001010450019N0100001N1+02881+02481999999ADDAA106005191AY161061AY291061GF107991031061004501071001MW1131REMSYN064AAXX  06184 82564 21497 71802 10288 20248 71369 83670 333 60051;
0206825640999992001010619004-05520-047440FM-15+0131SBIZ V0200301N002110210019N0112651N1+02701+02401999999ADDGA1021+004509999GA2021+007509099GA3071+021009999GF107991999999999999999999MA1100811999999MW1171REMMET064SBIZ 061900Z 03004KT 9999 TS SCT015 FEW025CB BKN070 27/24 Q1008;EQDQ01+000003PRSWM1Q02    003PRSWM1
0162825640999992001010621004-05520-047440FM-15+0131SBIZ V0209999C000010210019N0112651N1+02701+02401999999ADDGA1021+006009999GA2071+021009999GF107991999999999999999999MA1100811999999MW1001REMMET052SBIZ 062100Z 00000KT 9999 SCT020 BKN070 27/24 Q1008;EQDQ01+000000PRSWM2
0162825640999992001010622004-05520-047440FM-15+0131SBIZ V0209999C000012200019N0112651N1+02601+02401999999ADDGA1021+004509999GA2021+021009999GF104991999999999999999999MA1100911999999MW1001REMMET052SBIZ 062200Z 00000KT 9999 FEW015 SCT070 26/24 Q1009;EQDQ01+000000PRSWM2
0162825640999992001010623004-05520-047440FM-15+0131SBIZ V0200801N001010300019N0112651N1+02601+02401999999ADDGA1021+004509999GA2071+030009999GF107991999999999999999999MA1101021999999MW1001REMMET052SBIZ 062300Z 08002KT 9999 FEW015 BKN100 26/24 Q1010;EQDQ01+000000PRSWM2
0294825640999992001010700004-05520-047440SY-MT+0131SBIZ V0209999C000010300019N0100001N1+02631+02501999999ADDAA199000091GA1021+004509999GA2071+030009999GF108991999051004501001001KA1240M+03101MA1101021999999MW1001REMSYN070AAXX  07004 82564 32497 80000 10263 20250 81500 333 10310 29087 55016;MET052SBIZ 070000Z 00000KT 9999 FEW015 BKN100 25/24 Q1010;EQDQ01+000000PRSWM2Q02+000012SCOTLCQ03  00002PRCP99
0162825640999992001010701004-05520-047440FM-15+0131SBIZ V0209999C000010300019N0112651N1+02501+02401999999ADDGA1021+004509999GA2071+030009999GF107991999999999999999999MA1101081999999MW1001REMMET052SBIZ 070100Z 00000KT 9999 FEW015 BKN100 25/24 Q1011;EQDQ01+000000PRSWM2
0181825640999992001010709004-05520-047440FM-15+0131SBIZ V0209999C000012200019N0050001N1+02201+02201999999ADDGA1021+004509999GA2021+006009999GF104991999999999999999999MA1100911999999MW1101REMMET055SBIZ 070900Z 00000KT 5000 BR SCT015 SCT020 22/22 Q1009;EQDQ01+000003PRSWM1Q02    003PRSWM1
0148825640999992001010710004-05520-047440FM-15+0131SBIZ V0201001N003112200019N0050001N1+99999+99999999999ADDGA1021+000159999GF102991999999999999999999MW1001MW2101REMMET063SBIZ 071000Z 10006KT 5000 BR FEW0008 SCT015 BKN020 24/22 Q1010;EQDQ01+000003PRSWM1
0162825640999992001010711004-05520-047440FM-15+0131SBIZ V0200901N002110060019N0080001N1+02401+02301999999ADDGA1021+004509999GA2071+006009999GF107991999999999999999999MA1101081999999MW1001REMMET052SBIZ 071100Z 09004KT 8000 SCT015 BKN020 24/23 Q1011;EQDQ01+000000PRSWM2
0126825640999992001010712004-05520-047440FM-12+0131SBIZ V0200501N001510450019N0100001N1+02711+02351999999ADDAA124005191GF107991031061004501071001KA1240N+02241REMSYN064AAXX  07124 82564 22497 70503 10271 20235 83670 333 20224 60054;
0162825640999992001010713004-05520-047440FM-15+0131SBIZ V0203601N005112200019N0112651N1+02901+02201999999ADDGA1021+004509999GA2021+006009999GF104991999999999999999999MA1101191999999MW1001REMMET052SBIZ 071300Z 36010KT 9999 SCT015 SCT020 29/22 Q1012;EQDQ01+000000PRSWM2
0139825640999992001010716004-05520-047440FM-15+0131SBIZ V0200401N002112200019N0112651N1+03301+02301999999ADDGA1021+006009999GF104991999999999999999999MA1101021999999MW1001REMMET045SBIZ 071600Z 04004KT 9999 SCT020 33/23 Q1010;EQDQ01+000000PRSWM2
0139825640999992001010717004-05520-047440FM-15+0131SBIZ V0200101N002610060019N0112651N1+03401+02401999999ADDGA1071+006009999GF107991999999999999999999MA1100911999999MW1001REMMET045SBIZ 071700Z 01005KT 9999 BKN020 34/24 Q1009;EQDQ01+000000PRSWM2
0120825640999992001010718004-05520-047440FM-12+0131SBIZ V0201401N001011050019N0200001N1+03371+02091999999ADDAA199000091GF106991031011008001001021REMSYN052AAXX  07184 82564 32598 61402 10337 20209 83102 333;EQDQ01  00002PRCP99
0162825640999992001010719004-05520-047440FM-15+0131SBIZ V0200401N003112200019N0112651N1+03401+02201999999ADDGA1021+006009999GA2021+120009999GF104991999999999999999999MA1100611999999MW1001REMMET052SBIZ 071900Z 04006KT 9999 SCT020 SCT400 34/22 Q1006;EQDQ01+000000PRSWM2
0187825640999992001010720004-05520-047440FM-15+0131SBIZ V0201001N004112200019N0112651N1+03301+02201999999ADDGA1021+004509999GA2021+006009999GA3021+007509099GF102991999999999999999999MA1100611999999MW1001REMMET061SBIZ 072000Z 10008KT 9999 FEW015 SCT020 FEW025CB 33/22 Q1006;EQDQ01+000000PRSWM2
0187825640999992001010721004-05520-047440FM-15+0131SBIZ V0200901N006212200019N0112651N1+03301+02201999999ADDGA1021+004509999GA2021+006009999GA3021+007509099GF102991999999999999999999MA1100711999999MW1001REMMET061SBIZ 072100Z 09012KT 9999 FEW015 SCT020 FEW025CB 33/22 Q1007;EQDQ01+000000PRSWM2
0162825640999992001010722004-05520-047440FM-15+0131SBIZ V0201201N004112200019N0112651N1+02601+02201999999ADDGA1021+006009999GA2021+120009999GF104991999999999999999999MA1100711999999MW1001REMMET052SBIZ 072200Z 12008KT 9999 SCT020 SCT400 26/22 Q1007;EQDQ01+000000PRSWM2
0179825640999992001010800004-05520-047440FM-12+0131SBIZ V0200901N001510450019N0100001N1+02671+02021999999ADDAA199000091AY111061AY221061GF107991031091008001071001KA1240M+03491MW1131REMSYN076AAXX  08004 82564 31597 70903 10267 20202 71312 83970 333 10349 29064 55071;EQDQ01  00002PRCP99
0162825640999992001010809004-05520-047440FM-15+0131SBIZ V0209999C000012200019N0080001N1+02301+02301999999ADDGA1021+004509999GA2021+030009999GF104991999999999999999999MA1101021999999MW1001REMMET052SBIZ 080900Z 00000KT 8000 FEW015 SCT100 23/23 Q1010;EQDQ01+000000PRSWM2
0162825640999992001010810004-05520-047440FM-15+0131SBIZ V0202401N001012200019N0112651N1+02301+02301999999ADDGA1021+004509999GA2021+030009999GF104991999999999999999999MA1101021999999MW1001REMMET052SBIZ 081000Z 24002KT 9999 SCT015 SCT100 23/23 Q1010;EQDQ01+000000PRSWM2
0162825640999992001010811004-05520-047440FM-15+0131SBIZ V0200401N004112200019N0112651N1+02701+02201999999ADDGA1021+004509999GA2021+030009999GF104991999999999999999999MA1101081999999MW1001REMMET052SBIZ 081100Z 04008KT 9999 SCT015 SCT100 27/22 Q1011;EQDQ01+000000PRSWM2
0139825640999992001010812004-05520-047440FM-12+0131SBIZ V0201401N001011050019N0100001N1+02731+02261999999ADDAA199000091GF107991021061008001001061KA1999N+02201REMSYN058AAXX  08124 82564 32597 71402 10273 20226 82606 333 20220;EQDQ01  00002PRCP99
0139825640999992001010813004-05520-047440FM-15+0131SBIZ V0200601N004112200019N0112651N1+02901+02301999999ADDGA1021+006009999GF104991999999999999999999MA1101081999999MW1001REMMET045SBIZ 081300Z 06008KT 9999 SCT020 29/23 Q1011;EQDQ01+000000PRSWM2
0120825640999992001010818004-05520-047440FM-12+0131SBIZ V0200501N001010450019N0200001N1+03361+02331999999ADDAA199000091GF107991021071008001091001REMSYN052AAXX  08184 82564 32598 70502 10336 20233 82790 333;EQDQ01  00002PRCP99
0139825640999992001010822004-05520-047440FM-15+0131SBIZ V0200601N005112200019N0112651N1+02801+02301999999ADDGA1021+006009999GF102991999999999999999999MA1100711999999MW1001REMMET045SBIZ 082200Z 06010KT 9999 FEW020 28/23 Q1007;EQDQ01+000000PRSWM2
0185825640999992001010909004-05520-047440FM-15+0131SBIZ V0209999C000010210019N0080001N1+02301+02201999999ADDGA1021+006009999GA2071+021009999GA3081+120009999GF108991999999999999999999MA1101021999999MW1001REMMET059SBIZ 090900Z 00000KT 8000 FEW020 BKN070 OVC400 23/22 Q1010;EQDQ01+000000PRSWM2
0185825640999992001010910004-05520-047440FM-15+0131SBIZ V0209999C000010210019N0112651N1+02401+02301999999ADDGA1021+006009999GA2071+021009999GA3081+120009999GF108991999999999999999999MA1101021999999MW1001REMMET059SBIZ 091000Z 00000KT 9999 FEW020 BKN070 OVC400 24/23 Q1010;EQDQ01+000000PRSWM2
0162825640999992001010911004-05520-047440FM-15+0131SBIZ V0201501N001510060019N0112651N1+02401+02301999999ADDGA1071+006009999GA2081+120009999GF108991999999999999999999MA1101191999999MW1001REMMET052SBIZ 091100Z 15003KT 9999 BKN020 OVC400 24/23 Q1012;EQDQ01+000000PRSWM2
0333825640999992001010912004-05520-047440SY-MT+0131SBIZ V0209999C000010060019N0040001N1+02581+02331999999ADDAA124006191AY161061AY221061GA1021+004509999GA2071+006009999GA3081+120009999GF108991999071008001001001KA1240N+02181MA1101191999999MW1031REMSYN070AAXX  09124 82564 21596 80000 10258 20233 70362 81700 333 20218 60064;MET059SBIZ 091200Z 00000KT 9999 FEW015 BKN020 OVC400 26/23 Q1012;EQDQ01+000000PRSWM2Q02+000012SCOTLCQ03    003PRSWM1
0185825640999992001010914004-05520-047440FM-15+0131SBIZ V0200401N005110300019N0112651N1+03001+02301999999ADDGA1021+006009999GA2071+030009999GA3071+120009999GF107991999999999999999999MA1101191999999MW1001REMMET059SBIZ 091400Z 04010KT 9999 SCT020 BKN100 BKN400 30/23 Q1012;EQDQ01+000000PRSWM2
0185825640999992001010915004-05520-047440FM-15+0131SBIZ V0200301N005111200019N0112651N1+03101+02301999999ADDGA1021+006009999GA2021+030009999GA3071+120009999GF107991999999999999999999MA1101081999999MW1001REMMET059SBIZ 091500Z 03010KT 9999 SCT020 SCT100 BKN400 31/23 Q1011;EQDQ01+000000PRSWM2
0162825640999992001010916004-05520-047440FM-15+0131SBIZ V0203301N002111200019N0112651N1+03201+02301999999ADDGA1021+006009999GA2071+120009999GF107991999999999999999999MA1101021999999MW1001REMMET052SBIZ 091600Z 33004KT 9999 SCT020 BKN400 32/23 Q1010;EQDQ01+000000PRSWM2
0274825640999992001010918004-05520-047440SY-MT+0131SBIZ V0202301N002111200019N0100001N1+03091+02411999999ADDAY121061AY211061GA1021+006009999GA2071+120009999GF108991999041008001001001MA1100811999999MW1031REMSYN058AAXX  09184 82564 21597 82304 10309 20241 70321 82400 333;MET052SBIZ 091800Z 18006KT 9999 SCT020 BKN400 32/23 Q1008;EQDQ01+000022SCOTLCQ02+000000PRSWM2Q03    003PRSWM1
0195825640999992001011000004-05520-047440FM-12+0131SBIZ V0209999C000019999999N0040001N1+02561+02171999999ADDAA199000091AY191061AY221061GF108991999091004501001001KA1240M+03201MW1131REMSYN076AAXX  10004 82564 31496 80000 10256 20217 71392 81900 333 10320 29077 55024;EQDQ01+000012SCOTLCQ02  00002PRCP99
0162825640999992001011009004-05520-047440FM-15+0131SBIZ V0209999C000010210019N0112651N1+02301+02201999999ADDGA1021+004509999GA2081+021009999GF108991999999999999999999MA1101021999999MW1001REMMET052SBIZ 100900Z 00000KT 9999 SCT015 OVC070 23/22 Q1010;EQDQ01+000000PRSWM2
0162825640999992001011011004-05520-047440FM-15+0131SBIZ V0203301N002110045019N0112651N1+02401+02301999999ADDGA1071+004509999GA2081+021009999GF108991999999999999999999MA1101191999999MW1001REMMET052SBIZ 101100Z 33004KT 9999 BKN015 OVC070 24/23 Q1012;EQDQ01+000000PRSWM2
0183825640999992001011012004-05520-047440FM-12+0131SBIZ V0203601N001019999999N0100001N1+02481+02301999999ADDAA199000091AY111061AY221061GF108991999071008001001001KA1999N+02181MW1031REMSYN064AAXX  10124 82564 31597 83602 10248 20230 70312 82700 333 20218;EQDQ01+000022SCOTLCQ02  00002PRCP99
0298825640999992001011018004-05520-047440SY-MT+0131SBIZ V0203201N00051021001CN0100001N1+02861+02311999999ADDAA106000191AY151061AY221061GA1021+006009999GA2071+021009999GA3071+120009999GF108991031071008001071061MA1100911999999MW1031REMSYN064AAXX  10184 82564 21597 83201 10286 20231 70352 83776 333 69911;MET059SBIZ 101800Z 27008KT 9999 SCT020 BKN070 BKN400 29/23 Q1009;EQDQ01+000000PRSWM2Q02    003PRSWM1
0185825640999992001011019004-05520-047440FM-15+0131SBIZ V0203301N004110210019N0112651N1+02801+02401999999ADDGA1021+004509999GA2071+021009999GA3071+120009999GF107991999999999999999999MA1100911999999MW1001REMMET059SBIZ 101900Z 33008KT 9999 SCT015 BKN070 BKN400 28/24 Q1009;EQDQ01+000000PRSWM2
0185825640999992001011021004-05520-047440FM-15+0131SBIZ V0203601N003110300019N0112651N1+02801+02301999999ADDGA1021+004509999GA2071+030009999GA3071+120009999GF107991999999999999999999MA1100911999999MW1001REMMET059SBIZ 102100Z 36006KT 9999 FEW015 BKN100 BKN400 28/23 Q1009;EQDQ01+000000PRSWM2
0162825640999992001011022004-05520-047440FM-15+0131SBIZ V0203601N002111200019N0112651N1+02601+02301999999ADDGA1021+004509999GA2081+120009999GF108991999999999999999999MA1101021999999MW1001REMMET052SBIZ 102200Z 36004KT 9999 FEW015 OVC400 26/23 Q1010;EQDQ01+000000PRSWM2
0195825640999992001011100004-05520-047440FM-12+0131SBIZ V0209999C000019999999N0100001N1+02621+02371999999ADDAA199000091AY111061AY221061GF106991999091008001001001KA1240M+02981MW1131REMSYN076AAXX  11004 82564 31597 60000 10262 20237 71312 81900 333 10298 29083 55001;EQDQ01+000012SCOTLCQ02  00002PRCP99
0162825640999992001011109004-05520-047440FM-15+0131SBIZ V0209999C000011200019N0112651N1+02201+02201999999ADDGA1021+004509999GA2071+120009999GF107991999999999999999999MA1101081999999MW1001REMMET052SBIZ 110900Z 00000KT 9999 SCT015 BKN400 22/22 Q1011;EQDQ01+000000PRSWM2
0162825640999992001011110004-05520-047440FM-15+0131SBIZ V0209999C000010045019N0112651N1+02201+02201999999ADDGA1071+004509999GA2071+120009999GF107991999999999999999999MA1101081999999MW1001REMMET052SBIZ 111000Z 00000KT 9999 BKN015 BKN400 22/22 Q1011;EQDQ01+000000PRSWM2
0185825640999992001011111004-05520-047440FM-15+0131SBIZ V0200101N002110300019N0112651N1+02301+02301999999ADDGA1021+004509999GA2021+006009999GA3071+030009999GF107991999999999999999999MA1101291999999MW1001REMMET059SBIZ 111100Z 01004KT 9999 SCT015 SCT020 BKN100 23/23 Q1013;EQDQ01+000000PRSWM2
0154825640999992001011112004-05520-047440FM-12+0131SBIZ V0201401N000510450019N0100001N1+02451+02281999999ADDAA124000591AY151061AY221061GF108991021061008001071001KA1240N+02111MW1031REMSYN070AAXX  11124 82564 21597 81401 10245 20228 70352 82670 333 20211 69944;
0162825640999992001011116004-05520-047440FM-15+0131SBIZ V0201201N005110060019N0112651N1+03201+02201999999ADDGA1071+006009999GA2071+030009999GF107991999999999999999999MA1101191999999MW1001REMMET052SBIZ 111600Z 12010KT 9999 BKN020 BKN100 32/22 Q1012;EQDQ01+000000PRSWM2
0148825640999992001011118004-05520-047440FM-12+0131SBIZ V0203201N001010450019N0100001N1+03071+02241999999ADDAA199000091AY111061AY221061GF107991031051008001041001MW1031REMSYN058AAXX  11184 82564 31597 73202 10307 20224 70312 83540 333;EQDQ01  00002PRCP99
0167825640999992001011200004-05520-047440FM-12+0131SBIZ V0201401N001019999999N0100001N1+02421+02031999999ADDAA199000091GF105991999091008001001001KA1240M+03261REMSYN070AAXX  12004 82564 32597 51402 10242 20203 81900 333 10326 29077 55035;EQDQ01+000012SCOTLCQ02  00002PRCP99
0162825640999992001011209004-05520-047440FM-15+0131SBIZ V0209999C000010300019N0112651N1+02201+02201999999ADDGA1021+004509999GA2071+030009999GF107991999999999999999999MA1101081999999MW1001REMMET052SBIZ 120900Z 00000KT 9999 FEW015 BKN100 22/22 Q1011;EQDQ01+000000PRSWM2
0266825640999992001011212004-05520-047440SY-MT+0131SBIZ V0203201N00101030001CN0200001N1+02611+02251999999ADDAA199000091GA1021+004509999GA2071+030009999GF107991021041012501091001KA1999N+02131MA1101191999999MW1001REMSYN058AAXX  12124 82564 32698 73202 10261 20225 82490 333 20213;MET052SBIZ 121200Z 00000KT 9999 FEW015 BKN100 26/22 Q1012;EQDQ01+000000PRSWM2Q02  00002PRCP99
0148825640999992001011218004-05520-047440FM-12+0131SBIZ V0201801N001510450019N0100001N1+02971+02401999999ADDAA199000091AY111061AY221061GF108991011071008001071001MW1161REMSYN058AAXX  12184 82564 31597 81803 10297 20240 71612 81770 333;EQDQ01  00002PRCP99
0237825640999992001011220004-05520-047440FM-15+0131SBIZ V0203301N00151007501CN0080001N1+02401+02101999999ADDGA1021+004509999GA2021+006009999GA3021+007509099GA4081+024009999GF108991999999999999999999MA1100911999999MW1811MW2951REMMET073SBIZ 122000Z 33003KT 8000 TSRA FEW015 SCT020 FEW025CB OVC080 24/21 Q1009;EQDQ01+000003PRSWM1Q02    003PRSWM1
0212825640999992001011221004-05520-047440FM-15+0131SBIZ V0203301N001510240019N0080001N1+02301+02201999999ADDGA1021+006009999GA2021+007509099GA3081+024009999GF108991999999999999999999MA1100911999999MW1611REMMET070SBIZ 122100Z 33003KT 8000 -RA SCT020 FEW025CB OVC080 23/22 Q1009 RETS;EQDQ01+000003PRSWM1Q02    003PRSWM1
0182825640999992001011222004-05520-047440FM-15+0131SBIZ V0203001N001510240019N0070001N1+02301+02201999999ADDGA1021+006009999GA2081+024009999GF108991999999999999999999MA1101021999999MW1611REMMET056SBIZ 122200Z 30003KT 7000 -RA SCT020 OVC080 23/22 Q1010;EQDQ01+000003PRSWM1Q02    003PRSWM1
0166825640999992001011300004-05520-047440FM-12+0131SBIZ V0203601N001010450019N0100001N1+02291+02161999999ADDAA106003091AY161061AY291061GF105991031061008001071001KA1240M+02981MW1011REMSYN082AAXX  13004 82564 21597 53602 10229 20216 70169 83670 333 10298 29081 55010 60031;
0182825640999992001011309004-05520-047440FM-15+0131SBIZ V0200901N001010210019N0080001N1+02201+02201999999ADDGA1021+004509999GA2081+021009999GF108991999999999999999999MA1101291999999MW1611REMMET056SBIZ 130900Z 09002KT 8000 -RA SCT015 OVC070 22/22 Q1013;EQDQ01+000003PRSWM1Q02    003PRSWM1
0182825640999992001011310004-05520-047440FM-15+0131SBIZ V0201201N002110045019N0080001N1+02101+02101999999ADDGA1071+004509999GA2081+021009999GF108991999999999999999999MA1101291999999MW1611REMMET056SBIZ 131000Z 12004KT 8000 -RA BKN015 OVC070 21/21 Q1013;EQDQ01+000003PRSWM1Q02    003PRSWM1
0182825640999992001011311004-05520-047440FM-15+0131SBIZ V0201501N004110045019N0080001N1+02101+02101999999ADDGA1071+004509999GA2081+021009999GF108991999999999999999999MA1101391999999MW1611REMMET056SBIZ 131100Z 15008KT 8000 -RA BKN015 OVC070 21/21 Q1014;EQDQ01+000003PRSWM1Q02    003PRSWM1
0294825640999992001011312004-05520-047440SY-MT+0131SBIZ V0200501N00151021001CN0100001N1+02231+02121999999ADDAA124023191AY161061AY221061GA1021+004509999GA2081+021009999GF108991031071008001021031KA1240N+01931MA1101391999999MW1031REMSYN070AAXX  13124 82564 21597 80503 10223 20212 70362 83723 333 20193 60234;MET052SBIZ 131200Z 10008KT 9999 SCT015 OVC070 22/21 Q1014;EQDQ01+000000PRSWM2Q02    003PRSWM1
0185825640999992001011313004-05520-047440FM-15+0131SBIZ V0201201N005110210019N0112651N1+02301+02201999999ADDGA1021+004509999GA2021+006009999GA3071+021009999GF107991999999999999999999MA1101391999999MW1001REMMET059SBIZ 131300Z 12010KT 9999 FEW015 SCT020 BKN070 23/22 Q1014;EQDQ01+000000PRSWM2
0162825640999992001011314004-05520-047440FM-15+0131SBIZ V0201001N006210300019N0112651N1+02601+02101999999ADDGA1021+006009999GA2071+030009999GF107991999999999999999999MA1101291999999MW1001REMMET052SBIZ 131400Z 10012KT 9999 SCT020 BKN100 26/21 Q1013;EQDQ01+000000PRSWM2
0162825640999992001011315004-05520-047440FM-15+0131SBIZ V0201101N005112200019N0112651N1+02801+02101999999ADDGA1021+006009999GA2021+030009999GF104991999999999999999999MA1101191999999MW1001REMMET052SBIZ 131500Z 11010KT 9999 SCT020 SCT100 28/21 Q1012;EQDQ01+000000PRSWM2
0162825640999992001011316004-05520-047440FM-15+0131SBIZ V0200701N003112200019N0112651N1+02901+02201999999ADDGA1021+006009999GA2021+030009999GF104991999999999999999999MA1101081999999MW1001REMMET052SBIZ 131600Z 07006KT 9999 FEW020 SCT100 29/22 Q1011;EQDQ01+000000PRSWM2
0162825640999992001011317004-05520-047440FM-15+0131SBIZ V0201501N005112200019N0112651N1+03101+02101999999ADDGA1021+006009999GA2021+030009999GF104991999999999999999999MA1101021999999MW1001REMMET052SBIZ 131700Z 15010KT 9999 SCT020 SCT100 31/21 Q1010;EQDQ01+000000PRSWM2
0101825640999992001011318004-05520-047440FM-12+0131SBIZ V0201401N001510450019N0100001N1+03051+02081999999ADDAA199000021GF107991021041008001081061REMSYN052AAXX  13184 82564 32597 71403 10305 20208 82486 333;
0162825640999992001011319004-05520-047440FM-15+0131SBIZ V0201201N005110300019N0112651N1+03001+02101999999ADDGA1021+006009999GA2071+030009999GF107991999999999999999999MA1100911999999MW1001REMMET052SBIZ 131900Z 12010KT 9999 SCT020 BKN100 30/21 Q1009;EQDQ01+000000PRSWM2
0162825640999992001011320004-05520-047440FM-15+0131SBIZ V0200901N005110300019N0112651N1+02901+02101999999ADDGA1021+006009999GA2071+030009999GF107991999999999999999999MA1100911999999MW1001REMMET052SBIZ 132000Z 09010KT 9999 FEW020 BKN100 29/21 Q1009;EQDQ01+000000PRSWM2
0162825640999992001011321004-05520-047440FM-15+0131SBIZ V0201201N005110300019N0112651N1+02801+02001999999ADDGA1021+006009999GA2071+030009999GF107991999999999999999999MA1101021999999MW1001REMMET052SBIZ 132100Z 12010KT 9999 FEW020 BKN100 28/20 Q1010;EQDQ01+000000PRSWM2
0162825640999992001011322004-05520-047440FM-15+0131SBIZ V0201201N004110300019N0112651N1+02801+02001999999ADDGA1021+006009999GA2071+030009999GF107991999999999999999999MA1101021999999MW1001REMMET052SBIZ 132200Z 12008KT 9999 FEW020 BKN100 28/20 Q1010;EQDQ01+000000PRSWM2
0161825640999992001011400004-05520-047440FM-12+0131SBIZ V0200901N001012200019N0100001N1+02501+02171999999ADDAA199000091GA1001+999999999GF100991001001999999001001KA1240M+03081REMSYN064AAXX  14004 82564 32997 00902 10250 20217 333 10308 29077 55050;EQDQ01  00002PRCP99
0162825640999992001011409004-05520-047440FM-15+0131SBIZ V0209999C000010300019N0112651N1+02101+02101999999ADDGA1021+006009999GA2071+030009999GF107991999999999999999999MA1101081999999MW1001REMMET052SBIZ 140900Z 00000KT 9999 SCT020 BKN100 21/21 Q1011;EQDQ01+000000PRSWM2
0162825640999992001011410004-05520-047440FM-15+0131SBIZ V0209999C000010300019N0112651N1+02101+02101999999ADDGA1021+006009999GA2071+030009999GF107991999999999999999999MA1101191999999MW1001REMMET052SBIZ 141000Z 00000KT 9999 FEW020 BKN100 21/21 Q1012;EQDQ01+000000PRSWM2
0162825640999992001011411004-05520-047440FM-15+0131SBIZ V0209999C000010300019N0112651N1+02301+02201999999ADDGA1021+006009999GA2071+030009999GF107991999999999999999999MA1101291999999MW1001REMMET052SBIZ 141100Z 00000KT 9999 FEW020 BKN100 23/22 Q1013;EQDQ01+000000PRSWM2
0282825640999992001011412004-05520-047440SY-MT+0131SBIZ V0201801N00151030001CN0100001N1+02531+02231999999ADDAA199000091GA1021+006009999GA2071+030009999GF199999031041008001091001KA1999N+01971MA1101291999999MW1001REMSYN058AAXX  14124 82564 32597 51803 10253 20223 83490 333 20197;MET052SBIZ 141200Z 21005KT 9999 FEW020 BKN100 27/22 Q1013;EQDQ01+000052SCOTCVQ02+000000PRSWM2Q03  00002PRCP99
0162825640999992001011413004-05520-047440FM-15+0131SBIZ V0209999C000010300019N0112651N1+02801+02201999999ADDGA1021+006009999GA2071+030009999GF107991999999999999999999MA1101291999999MW1001REMMET052SBIZ 141300Z 00000KT 9999 FEW020 BKN100 28/22 Q1013;EQDQ01+000000PRSWM2
0139825640999992001011415004-05520-047440FM-15+0131SBIZ V0200901N002110060019N0112651N1+03001+02201999999ADDGA1071+006009999GF107991999999999999999999MA1101191999999MW1001REMMET045SBIZ 141500Z 09004KT 9999 BKN020 30/22 Q1012;EQDQ01+000000PRSWM2
0139825640999992001011416004-05520-047440FM-15+0131SBIZ V0201501N007210060019N0112651N1+03201+02201999999ADDGA1071+006009999GF107991999999999999999999MA1101081999999MW1001REMMET045SBIZ 141600Z 15014KT 9999 BKN020 32/22 Q1011;EQDQ01+000000PRSWM2
0162825640999992001011417004-05520-047440FM-15+0131SBIZ V0201201N006210300019N0112651N1+03201+02201999999ADDGA1021+006009999GA2071+030009999GF107991999999999999999999MA1101021999999MW1001REMMET052SBIZ 141700Z 12012KT 9999 SCT020 BKN100 32/22 Q1010;EQDQ01+000000PRSWM2
0240825640999992001011418004-05520-047440SY-MT+0131SBIZ V0201401N00151006001CN0200001N1+03231+02141999999ADDAA199000091GA1071+006009999GF199999031021012501061051MA1100911999999MW1001REMSYN052AAXX  14184 82564 32698 61403 10323 20214 83265 333;MET045SBIZ 141800Z 12010KT 9999 BKN020 33/22 Q1009;EQDQ01+000062SCOTCVQ02+000000PRSWM2Q03  00002PRCP99
0139825640999992001011419004-05520-047440FM-15+0131SBIZ V0201201N005110060019N0112651N1+03201+02101999999ADDGA1071+006009999GF107991999999999999999999MA1100911999999MW1001REMMET045SBIZ 141900Z 12010KT 9999 BKN020 32/21 Q1009;EQDQ01+000000PRSWM2
0139825640999992001011420004-05520-047440FM-15+0131SBIZ V0201501N005112200019N0112651N1+03301+02101999999ADDGA1021+006009999GF102991999999999999999999MA1100811999999MW1001REMMET045SBIZ 142000Z 15010KT 9999 FEW020 33/21 Q1008;EQDQ01+000000PRSWM2
0139825640999992001011421004-05520-047440FM-15+0131SBIZ V0201201N005112200019N0112651N1+03101+02201999999ADDGA1021+006009999GF104991999999999999999999MA1100811999999MW1001REMMET045SBIZ 142100Z 12010KT 9999 SCT020 31/22 Q1008;EQDQ01+000000PRSWM2
0139825640999992001011422004-05520-047440FM-15+0131SBIZ V0200301N002112200019N0112651N1+02901+02201999999ADDGA1021+004509999GF104991999999999999999999MA1100911999999MW1001REMMET045SBIZ 142200Z 03004KT 9999 SCT015 29/22 Q1009;EQDQ01+000000PRSWM2
0167825640999992001011500004-05520-047440FM-12+0131SBIZ V0200901N001012200019N0100001N1+02771+02321999999ADDAA199000091GF101991001001999999001081KA1240M+03321REMSYN070AAXX  15004 82564 32697 10902 10277 20232 80008 333 10332 29071 55077;EQDQ01+012502SCOLCBQ02  00002PRCP99
0162825640999992001011509004-05520-047440FM-15+0131SBIZ V0209999C000010300019N0112651N1+02201+02201999999ADDGA1021+006009999GA2071+030009999GF107991999999999999999999MA1101081999999MW1001REMMET052SBIZ 150900Z 00000KT 9999 FEW020 BKN100 22/22 Q1011;EQDQ01+000000PRSWM2
0162825640999992001011510004-05520-047440FM-15+0131SBIZ V0209999C000012200019N0112651N1+02201+02201999999ADDGA1021+006009999GA2021+030009999GF104991999999999999999999MA1101081999999MW1001REMMET052SBIZ 151000Z 00000KT 9999 FEW020 SCT100 22/22 Q1011;EQDQ01+000000PRSWM2
0162825640999992001011511004-05520-047440FM-15+0131SBIZ V0209999C000012200019N0112651N1+02601+02301999999ADDGA1021+006009999GA2021+030009999GF104991999999999999999999MA1101191999999MW1001REMMET052SBIZ 151100Z 00000KT 9999 FEW020 SCT100 26/23 Q1012;EQDQ01+000000PRSWM2
0221825640999992001011512004-05520-047440SY-MT+0131SBIZ V0200501N000511050019N0200001N1+02801+02311999999ADDAA199000091GF106991011011012501081061KA1999N+02191MA1101191999999MW1001REMSYN058AAXX  15124 82564 32698 60501 10280 20231 81186 333 20219;MET039SBIZ 151200Z 15005KT CAVOK 28/23 Q1012;EQDQ01+000000PRSWM2Q02  00002PRCP99
0185825640999992001011513004-05520-047440FM-15+0131SBIZ V0200301N001510300019N0112651N1+03001+02201999999ADDGA1021+006009999GA2071+030009999GA3071+120009999GF107991999999999999999999MA1101191999999MW1001REMMET059SBIZ 151300Z 03003KT 9999 FEW020 BKN100 BKN400 30/22 Q1012;EQDQ01+000000PRSWM2
0162825640999992001011514004-05520-047440FM-15+0131SBIZ V0201501N003111200019N0112651N1+03201+02201999999ADDGA1021+006009999GA2071+120009999GF107991999999999999999999MA1101191999999MW1001REMMET052SBIZ 151400Z 15006KT 9999 SCT020 BKN400 32/22 Q1012;EQDQ01+000000PRSWM2
0162825640999992001011515004-05520-047440FM-15+0131SBIZ V0201201N005111200019N0112651N1+03301+02201999999ADDGA1021+006009999GA2071+120009999GF107991999999999999999999MA1101081999999MW1001REMMET052SBIZ 151500Z 12010KT 9999 SCT020 BKN400 33/22 Q1011;EQDQ01+000000PRSWM2
0162825640999992001011516004-05520-047440FM-15+0131SBIZ V0201501N005110060019N0112651N1+03301+02201999999ADDGA1071+006009999GA2071+120009999GF107991999999999999999999MA1101081999999MW1001REMMET052SBIZ 151600Z 15010KT 9999 BKN020 BKN400 33/22 Q1011;EQDQ01+000000PRSWM2
0162825640999992001011517004-05520-047440FM-15+0131SBIZ V0201501N007211200019N0112651N1+03401+02201999999ADDGA1021+006009999GA2071+120009999GF107991999999999999999999MA1101021999999MW1001REMMET052SBIZ 151700Z 15014KT 9999 SCT020 BKN400 34/22 Q1010;EQDQ01+000000PRSWM2
0247825640999992001011518004-05520-047440SY-MT+0131SBIZ V0201401N00211120001CN0200001N1+03391+02041999999ADDAA199000091GA1021+006009999GA2071+120009999GF107991011011012501061021MA1100911999999MW1001REMSYN052AAXX  15184 82564 32698 71404 10339 20204 81162 333;MET052SBIZ 151800Z 19008KT 9999 FEW020 BKN400 35/21 Q1009;EQDQ01+000000PRSWM2Q02  00002PRCP99
0162825640999992001011519004-05520-047440FM-15+0131SBIZ V0201501N005111200019N0112651N1+03401+02101999999ADDGA1021+006009999GA2071+120009999GF107991999999999999999999MA1100711999999MW1001REMMET052SBIZ 151900Z 15010KT 9999 FEW020 BKN400 34/21 Q1007;EQDQ01+000000PRSWM2
0091825640999992001011521004-05520-047440FM-15+0131SBIZ V0200901N00211220001CN0099001N1+03101+02101999999ADDMA1100811999999MW1001REMMET039SBIZ 152100Z 09004KT CAVOK 31/21 Q1008;EQDQ01+000000PRSWM2
0162825640999992001011522004-05520-047440FM-15+0131SBIZ V0201201N002111200019N0112651N1+02901+02201999999ADDGA1021+006009999GA2081+120009999GF108991999999999999999999MA1100811999999MW1001REMMET052SBIZ 152200Z 12004KT 9999 FEW020 OVC400 29/22 Q1008;EQDQ01+000000PRSWM2
0195825640999992001011600004-05520-047440FM-12+0131SBIZ V0202301N001519999999N0100001N1+02681+02061999999ADDAA199000091AY191061AY221061GF105991999091008001001001KA1240M+03451MW1131REMSYN076AAXX  16004 82564 31597 52303 10268 20206 71392 81900 333 10345 29063 55067;EQDQ01+000012SCOTLCQ02  00002PRCP99
0162825640999992001011609004-05520-047440FM-15+0131SBIZ V0203601N002111200019N0112651N1+02301+02101999999ADDGA1021+004509999GA2081+120009999GF108991999999999999999999MA1101081999999MW1001REMMET052SBIZ 160900Z 36004KT 9999 SCT015 OVC400 23/21 Q1011;EQDQ01+000000PRSWM2
0185825640999992001011610004-05520-047440FM-15+0131SBIZ V0203601N002111200019N0112651N1+02301+02101999999ADDGA1021+004509999GA2021+030009999GA3071+120009999GF107991999999999999999999MA1101081999999MW1001REMMET059SBIZ 161000Z 36004KT 9999 SCT015 SCT100 BKN400 23/21 Q1011;EQDQ01+000000PRSWM2
0185825640999992001011611004-05520-047440FM-15+0131SBIZ V0200301N002111200019N0112651N1+02501+02201999999ADDGA1021+006009999GA2021+030009999GA3071+120009999GF107991999999999999999999MA1101191999999MW1001REMMET059SBIZ 161100Z 03004KT 9999 FEW020 SCT100 BKN400 25/22 Q1012;EQDQ01+000000PRSWM2
0266825640999992001011612004-05520-047440SY-MT+0131SBIZ V0200501N00211120001CN0100001N1+02671+02161999999ADDAA199000091GA1021+006009999GA2071+120009999GF108991011061008001071001KA1999N+02141MA1101191999999MW1001REMSYN058AAXX  16124 82564 32597 80504 10267 20216 81670 333 20214;MET052SBIZ 161200Z 12010KT 9999 SCT020 BKN400 27/21 Q1012;EQDQ01+000000PRSWM2Q02  00002PRCP99
0162825640999992001011614004-05520-047440FM-15+0131SBIZ V0200801N005110060019N0112651N1+03001+02201999999ADDGA1021+004509999GA2071+006009999GF107991999999999999999999MA1101191999999MW1001REMMET052SBIZ 161400Z 08010KT 9999 SCT015 BKN020 30/22 Q1012;EQDQ01+000000PRSWM2
0185825640999992001011615004-05520-047440FM-15+0131SBIZ V0200901N005110060019N0112651N1+03001+02201999999ADDGA1021+004509999GA2071+006009999GA3071+120009999GF107991999999999999999999MA1101191999999MW1001REMMET059SBIZ 161500Z 09010KT 9999 SCT015 BKN020 BKN400 30/22 Q1012;EQDQ01+000000PRSWM2
0162825640999992001011617004-05520-047440FM-15+0131SBIZ V0201201N005111200019N0112651N1+03301+02301999999ADDGA1021+006009999GA2071+120009999GF107991999999999999999999MA1101021999999MW1001REMMET052SBIZ 161700Z 12010KT 9999 SCT020 BKN400 33/23 Q1010;EQDQ01+000000PRSWM2
0120825640999992001011618004-05520-047440FM-12+0131SBIZ V0201401N001510450019N0200001N1+03271+02261999999ADDAA199000091GF107991021041012501061061REMSYN052AAXX  16184 82564 32698 71403 10327 20226 82466 333;EQDQ01  00002PRCP99
0162825640999992001011619004-05520-047440FM-15+0131SBIZ V0201501N002111200019N0112651N1+03401+02201999999ADDGA1021+006009999GA2071+120009999GF107991999999999999999999MA1100811999999MW1001REMMET052SBIZ 161900Z 15004KT 9999 FEW020 BKN400 34/22 Q1008;EQDQ01+000000PRSWM2
0162825640999992001011620004-05520-047440FM-15+0131SBIZ V0201801N003111200019N0112651N1+03201+02201999999ADDGA1021+006009999GA2071+120009999GF107991999999999999999999MA1100711999999MW1001REMMET052SBIZ 162000Z 18006KT 9999 SCT020 BKN400 32/22 Q1007;EQDQ01+000000PRSWM2
0185825640999992001011622004-05520-047440FM-15+0131SBIZ V0201501N005110240019N0112651N1+02701+02401999999ADDGA1021+004509999GA2071+024009999GA3081+120009999GF108991999999999999999999MA1100811999999MW1001REMMET059SBIZ 162200Z 15010KT 9999 SCT015 BKN080 OVC400 27/24 Q1008;EQDQ01+000000PRSWM2
0185825640999992001011700004-05520-047440FM-12+0131SBIZ V0200901N001512200019N0100001N1+02611+02271999999ADDAA106001091AY161061AY221061GF103991999091008001001001KA1240M+03321MW1031REMSYN082AAXX  17004 82564 21597 30903 10261 20227 70362 81900 333 10332 29070 55051 60011;EQDQ01+000012SCOTLC
0162825640999992001011709004-05520-047440FM-15+0131SBIZ V0200901N002111200019N0060001N1+02201+02201999999ADDGA1021+030009999GA2071+120009999GF107991999999999999999999MA1101021999999MW1001REMMET052SBIZ 170900Z 09004KT 6000 SCT100 BKN400 22/22 Q1010;EQDQ01+000000PRSWM2
0162825640999992001011710004-05520-047440FM-15+0131SBIZ V0200901N003111200019N0080001N1+02301+02201999999ADDGA1021+030009999GA2071+120009999GF107991999999999999999999MA1101081999999MW1001REMMET052SBIZ 171000Z 09006KT 8000 SCT100 BKN400 23/22 Q1011;EQDQ01+000000PRSWM2
0162825640999992001011711004-05520-047440FM-15+0131SBIZ V0200901N004111200019N0112651N1+02501+02301999999ADDGA1021+004509999GA2071+120009999GF107991999999999999999999MA1101191999999MW1001REMMET052SBIZ 171100Z 09008KT 9999 FEW015 BKN400 25/23 Q1012;EQDQ01+000000PRSWM2
0256825640999992001011712004-05520-047440SY-MT+0131SBIZ V0201401N00151004501CN0200001N1+02651+02291999999ADDAA124001091GA1071+004509999GA2071+120009999GF108991021051008001071071KA1240N+02191MA1101191999999MW1001REMSYN064AAXX  17124 82564 22598 81403 10265 20229 82577 333 20219 60014;MET052SBIZ 171200Z 12006KT 9999 BKN015 BKN400 26/23 Q1012;EQDQ01+000000PRSWM2
0162825640999992001011713004-05520-047440FM-15+0131SBIZ V0201201N006211200019N0112651N1+02901+02301999999ADDGA1021+004509999GA2071+120009999GF107991999999999999999999MA1101191999999MW1001REMMET052SBIZ 171300Z 12012KT 9999 FEW015 BKN400 29/23 Q1012;EQDQ01+000000PRSWM2
0185825640999992001011714004-05520-047440FM-15+0131SBIZ V0200401N005111200019N0112651N1+03001+02201999999ADDGA1021+006009999GA2021+030009999GA3071+120009999GF107991999999999999999999MA1101191999999MW1001REMMET059SBIZ 171400Z 04010KT 9999 FEW020 SCT100 BKN400 30/22 Q1012;EQDQ01+000000PRSWM2
0185825640999992001011715004-05520-047440FM-15+0131SBIZ V0200901N005111200019N0112651N1+03201+02301999999ADDGA1021+006009999GA2021+030009999GA3071+120009999GF107991999999999999999999MA1101081999999MW1001REMMET059SBIZ 171500Z 09010KT 9999 SCT020 SCT100 BKN400 32/23 Q1011;EQDQ01+000000PRSWM2
0162825640999992001011716004-05520-047440FM-15+0131SBIZ V0200401N005110060019N0112651N1+03201+02301999999ADDGA1071+006009999GA2081+120009999GF108991999999999999999999MA1101081999999MW1001REMMET052SBIZ 171600Z 04010KT 9999 BKN020 OVC400 32/23 Q1011;EQDQ01+000000PRSWM2
0247825640999992001011718004-05520-047440SY-MT+0131SBIZ V0202701N00101120001CN0200001N1+02911+02371999999ADDAA199000091GA1021+006009999GA2071+120009999GF108991021051008001091071MA1100911999999MW1001REMSYN052AAXX  17184 82564 32598 82702 10291 20237 82597 333;MET052SBIZ 171800Z 00000KT 9999 SCT020 BKN400 30/23 Q1009;EQDQ01+000000PRSWM2Q02  00002PRCP99
0162825640999992001011719004-05520-047440FM-15+0131SBIZ V0203001N001011200019N0112651N1+03001+02301999999ADDGA1021+006009999GA2071+120009999GF107991999999999999999999MA1100811999999MW1001REMMET052SBIZ 171900Z 30002KT 9999 SCT020 BKN400 30/23 Q1008;EQDQ01+000000PRSWM2
0192825640999992001011722004-05520-047440FM-15+0131SBIZ V0201801N002111200019N0112651N1+02701+02101999999ADDGA1021+006009999GA2021+007509099GA3071+120009999GF107991999999999999999999MA1100911999999MW1001REMMET066SBIZ 172200Z 18004KT 9999 FEW020 FEW025CB BKN400 27/21 Q1009 RETS;EQDQ01+000000PRSWM2
0161825640999992001011800004-05520-047440FM-12+0131SBIZ V0209999C000012200019N0200001N1+02571+02251999999ADDAA199000091GA1001+999999999GF100991001001999999001001KA1240M+03221REMSYN064AAXX  18004 82564 32998 00000 10257 20225 333 10322 29078 55025;EQDQ01  00002PRCP99
0181825640999992001011809004-05520-047440FM-15+0131SBIZ V0209999C000012200019N0050001N1+02301+02301999999ADDGA1021+004509999GA2021+030009999GF104991999999999999999999MA1101021999999MW1101REMMET055SBIZ 180900Z 00000KT 5000 BR FEW015 SCT100 23/23 Q1010;EQDQ01+000003PRSWM1Q02    003PRSWM1
0158825640999992001011810004-05520-047440FM-15+0131SBIZ V0209999C000012200019N0050001N1+02301+02301999999ADDGA1021+004509999GF104991999999999999999999MA1101081999999MW1101REMMET048SBIZ 181000Z 00000KT 5000 BR SCT015 23/23 Q1011;EQDQ01+000003PRSWM1Q02    003PRSWM1
0139825640999992001011811004-05520-047440FM-15+0131SBIZ V0201201N002112200019N0050001N1+02401+02301999999ADDGF100991999999999999999999MA1101081999999MW1101REMMET045SBIZ 181100Z 12004KT 5000 BR SKC 24/23 Q1011;EQDQ01+000003PRSWM1Q02    003PRSWM1
0243825640999992001011812004-05520-047440SY-MT+0131SBIZ V0203601N001010450019N0200001N1+02771+02271999999ADDAA199000091GA1021+006009999GF106991021041012501061001KA1999N+02111MA1101191999999MW1001REMSYN058AAXX  18124 82564 32698 63602 10277 20227 82460 333 20211;MET045SBIZ 181200Z 03008KT 9999 FEW020 28/22 Q1012;EQDQ01+000000PRSWM2Q02  00002PRCP99
0139825640999992001011813004-05520-047440FM-15+0131SBIZ V0200201N004112200019N0112651N1+03001+02201999999ADDGA1021+006009999GF104991999999999999999999MA1101191999999MW1001REMMET045SBIZ 181300Z 02008KT 9999 SCT020 30/22 Q1012;EQDQ01+000000PRSWM2
0139825640999992001011814004-05520-047440FM-15+0131SBIZ V0209999C000010060019N0112651N1+03201+02201999999ADDGA1071+006009999GF107991999999999999999999MA1101191999999MW1001REMMET045SBIZ 181400Z 00000KT 9999 BKN020 32/22 Q1012;EQDQ01+000000PRSWM2
0139825640999992001011816004-05520-047440FM-15+0131SBIZ V0202101N004110060019N0112651N1+03001+02301999999ADDGA1071+006009999GF107991999999999999999999MA1101081999999MW1001REMMET045SBIZ 181600Z 21008KT 9999 BKN020 30/23 Q1011;EQDQ01+000000PRSWM2
0154825640999992001011817004-05520-047440FM-15+0131SBIZ V0202401N00151220001CN0112651N1+03101+02301999999ADDGA1071+006009999GA2021+007509099MA1101021999999MW1001REMMET054SBIZ 181700Z 24003KT 9999 BKN020 FEW025CB 31/23 Q1010;EQDQ01+000022SCOTCVQ02+000000PRSWM2
0252825640999992001011818004-05520-047440SY-MT+0131SBIZ V0202301N00101006001CN0100001N1+03061+02271999999ADDAA106000891AY151061AY221061GA1071+006009999GF107991031061008001071001MA1100911999999MW1161REMSYN064AAXX  18184 82564 21597 72302 10306 20227 71652 83670 333 69981;MET045SBIZ 181800Z 26005KT 9999 BKN020 31/23 Q1009;EQDQ01+000000PRSWM2Q02    003PRSWM1
0206825640999992001011819004-05520-047440FM-15+0131SBIZ V0203601N002611200019N0112651N1+02901+02401999999ADDGA1021+006009999GA2021+007509099GA3071+120009999GF107991999999999999999999MA1100811999999MW1171REMMET064SBIZ 181900Z 36005KT 9999 TS SCT020 FEW025CB BKN400 29/24 Q1008;EQDQ01+000003PRSWM1Q02    003PRSWM1
0192825640999992001011820004-05520-047440FM-15+0131SBIZ V0202401N005111200019N0112651N1+02801+02401999999ADDGA1021+006009999GA2021+007509099GA3071+120009999GF107991999999999999999999MA1100811999999MW1001REMMET066SBIZ 182000Z 24010KT 9999 SCT020 FEW025CB BKN400 28/24 Q1008 RETS;EQDQ01+000000PRSWM2
0162825640999992001011821004-05520-047440FM-15+0131SBIZ V0209999C000011200019N0112651N1+02701+02401999999ADDGA1021+006009999GA2071+120009999GF107991999999999999999999MA1100811999999MW1001REMMET052SBIZ 182100Z 00000KT 9999 SCT020 BKN400 27/24 Q1008;EQDQ01+000000PRSWM2
0185825640999992001011822004-05520-047440FM-15+0131SBIZ V0209999C000011200019N0112651N1+02701+02401999999ADDGA1021+004509999GA2021+006009999GA3081+120009999GF108991999999999999999999MA1100911999999MW1001REMMET059SBIZ 182200Z 00000KT 9999 FEW015 SCT020 OVC400 27/24 Q1009;EQDQ01+000000PRSWM2
0162825640999992001011823004-05520-047440FM-15+0131SBIZ V0209999C000011200019N0112651N1+02601+02401999999ADDGA1021+006009999GA2081+120009999GF108991999999999999999999MA1101021999999MW1001REMMET052SBIZ 182300Z 00000KT 9999 FEW020 OVC400 26/24 Q1010;EQDQ01+000000PRSWM2
0176825640999992001011900004-05520-047440FM-12+0131SBIZ V0209999C000012200019N0100001N1+02611+02441999999ADDAA106002091AY161061AY291061GA1001+999999999GF100991001001999999001001KA1240M+03151MW1001REMSYN076AAXX  19004 82564 21997 00000 10261 20244 70069 333 10315 29076 55053 60021;
0162825640999992001011909004-05520-047440FM-15+0131SBIZ V0209999C000011200019N0060001N1+02201+02201999999ADDGA1021+003009999GA2071+120009999GF107991999999999999999999MA1101191999999MW1001REMMET052SBIZ 190900Z 00000KT 6000 FEW010 BKN400 22/22 Q1012;EQDQ01+000000PRSWM2
0162825640999992001011910004-05520-047440FM-15+0131SBIZ V0209999C000011200019N0080001N1+02301+02301999999ADDGA1021+004509999GA2071+120009999GF107991999999999999999999MA1101191999999MW1001REMMET052SBIZ 191000Z 00000KT 8000 FEW015 BKN400 23/23 Q1012;EQDQ01+000000PRSWM2
0145825640999992001011912004-05520-047440FM-12+0131SBIZ V0200501N002119999999N0040001N1+02631+02311999999ADDAA124003091GF108991999071008001001001KA1240N+02171REMSYN064AAXX  19124 82564 22596 80504 10263 20231 81700 333 20217 60034;EQDQ01+000012SCOTLC
0162825640999992001011913004-05520-047440FM-15+0131SBIZ V0200301N004110060019N0112651N1+02801+02301999999ADDGA1071+006009999GA2071+120009999GF107991999999999999999999MA1101391999999MW1001REMMET052SBIZ 191300Z 03008KT 9999 BKN020 BKN400 28/23 Q1014;EQDQ01+000000PRSWM2
0162825640999992001011914004-05520-047440FM-15+0131SBIZ V0200301N004111200019N0112651N1+03101+02301999999ADDGA1021+006009999GA2071+120009999GF107991999999999999999999MA1101291999999MW1001REMMET052SBIZ 191400Z 03008KT 9999 SCT020 BKN400 31/23 Q1013;EQDQ01+000000PRSWM2
0162825640999992001011915004-05520-047440FM-15+0131SBIZ V0200301N005111200019N0112651N1+03201+02201999999ADDGA1021+006009999GA2071+120009999GF107991999999999999999999MA1101291999999MW1001REMMET052SBIZ 191500Z 03010KT 9999 SCT020 BKN400 32/22 Q1013;EQDQ01+000000PRSWM2
0162825640999992001011916004-05520-047440FM-15+0131SBIZ V0202401N002110060019N0112651N1+03301+02401999999ADDGA1071+006009999GA2071+120009999GF107991999999999999999999MA1101191999999MW1001REMMET052SBIZ 191600Z 24004KT 9999 BKN020 BKN400 33/24 Q1012;EQDQ01+000000PRSWM2
0292825640999992001011918004-05520-047440SY-MT+0131SBIZ V0200501N00211006001CN0100001N1+03101+02341999999ADDAA106000191AY151061AY221061GA1021+004509999GA2071+006009999GA3071+120009999GF108991021071004501071001MA1101021999999MW1501MW2611REMSYN064AAXX  19184 82564 21497 80504 10310 20234 75052 82770 333 69911;MET063SBIZ 191800Z 03008KT 9999 -RA SCT015 BKN020 BKN400 31/23 Q1010;EQDQ01    003PRSWM1
0185825640999992001011919004-05520-047440FM-15+0131SBIZ V0203301N003110210019N0112651N1+02901+02301999999ADDGA1021+004509999GA2021+006009999GA3071+021009999GF107991999999999999999999MA1100911999999MW1001REMMET059SBIZ 191900Z 33006KT 9999 FEW015 SCT020 BKN070 29/23 Q1009;EQDQ01+000000PRSWM2
0185825640999992001011920004-05520-047440FM-15+0131SBIZ V0209999C000010210019N0112651N1+02901+02301999999ADDGA1021+004509999GA2021+006009999GA3071+021009999GF107991999999999999999999MA1100911999999MW1001REMMET059SBIZ 192000Z 00000KT 9999 SCT015 SCT020 BKN070 29/23 Q1009;EQDQ01+000000PRSWM2
0162825640999992001011922004-05520-047440FM-15+0131SBIZ V0209999C000010210019N0080001N1+02601+02401999999ADDGA1021+004509999GA2071+021009999GF107991999999999999999999MA1101021999999MW1001REMMET052SBIZ 192200Z 00000KT 8000 FEW015 BKN070 26/24 Q1010;EQDQ01+000000PRSWM2
0139825640999992001011923004-05520-047440FM-15+0131SBIZ V0209999C000010210019N0070001N1+02501+02401999999ADDGA1071+021009999GF107991999999999999999999MA1101081999999MW1001REMMET045SBIZ 192300Z 00000KT 7000 BKN070 25/24 Q1011;EQDQ01+000000PRSWM2
0185825640999992001012000004-05520-047440FM-12+0131SBIZ V0209999C000012200019N0100001N1+02521+02311999999ADDAA106000391AY151061AY291061GF102991999091008001001001KA1240M+03321MW1131REMSYN082AAXX  20004 82564 21597 20000 10252 20231 71359 81900 333 10332 29078 55034 69931;EQDQ01+000012SCOTLC
0091825640999992001012009004-05520-047440FM-15+0131SBIZ V0209999C00001220001CN0099001N1+02201+02201999999ADDMA1101191999999MW1001REMMET039SBIZ 200900Z 00000KT CAVOK 22/22 Q1012;EQDQ01+000000PRSWM2
0162825640999992001012010004-05520-047440FM-15+0131SBIZ V0209999C000011200019N0080001N1+02201+02201999999ADDGA1021+030009999GA2071+120009999GF107991999999999999999999MA1101291999999MW1001REMMET052SBIZ 201000Z 00000KT 8000 FEW100 BKN400 22/22 Q1013;EQDQ01+000000PRSWM2
0091825640999992001012011004-05520-047440FM-15+0131SBIZ V0209999C00001220001CN0099001N1+02501+02301999999ADDMA1101391999999MW1001REMMET039SBIZ 201100Z 00000KT CAVOK 25/23 Q1014;EQDQ01+000000PRSWM2
0256825640999992001012012004-05520-047440SY-MT+0131SBIZ V0203601N00101006001CN0100001N1+02621+02271999999ADDAA124000591GA1021+004509999GA2071+006009999GF108991021051008001021021KA1240N+02091MA1101491999999MW1001REMSYN064AAXX  20124 82564 22597 83602 10262 20227 82522 333 20209 69954;MET052SBIZ 201200Z 00000KT 9999 SCT015 BKN020 26/23 Q1015;EQDQ01+000000PRSWM2
0162825640999992001012013004-05520-047440FM-15+0131SBIZ V0209999C000010060019N0112651N1+02801+02301999999ADDGA1021+004509999GA2071+006009999GF107991999999999999999999MA1101491999999MW1001REMMET052SBIZ 201300Z 00000KT 9999 FEW015 BKN020 28/23 Q1015;EQDQ01+000000PRSWM2
0162825640999992001012014004-05520-047440FM-15+0131SBIZ V0200101N004110060019N0112651N1+03001+02201999999ADDGA1021+004509999GA2071+006009999GF107991999999999999999999MA1101491999999MW1001REMMET052SBIZ 201400Z 01008KT 9999 SCT015 BKN020 30/22 Q1015;EQDQ01+000000PRSWM2
0090825640999992001012016004-05520-047440FM-15+0131SBIZ V02099999999992200019N0112651N1+03201+02401999999ADDMA1101291999999MW1001REMMET038SBIZ 201600Z 9999 BKN020 32/24 Q1013 ;EQDQ01+000000PRSWM2
0224825640999992001012018004-05520-047440SY-MT+0131SBIZ V0202301N002112200019N0200001N1+03301+02211999999ADDAA199000091GA1021+006009999GF106991031041012501061021MA1101021999999MW1001REMSYN052AAXX  20184 82564 32698 62304 10330 20221 83462 333;MET045SBIZ 201800Z 21006KT 9999 SCT020 34/22 Q1010;EQDQ01+000000PRSWM2Q02  00002PRCP99
0114825640999992001012018454-05520-047440FM-16+0131SBIZ V0203401N003112200019N0080001N1+99999+99999999999ADDMW1001REMMET077SBIZ 201845Z 34006KT 80000 TS VCSH BKN020 FEW025CB BKN080 BKN400 32/22 Q1009;EQDQ01+000000PRSWM2
0240825640999992001012019004-05520-047440FM-15+0131SBIZ V0200301N005110060019N0070001N1+03101+02301999999ADDGA1071+006009999GA2021+007509099GA3071+024009999GA4071+120009999GF107991999999999999999999MA1100911999999MW1161MW2171REMMET076SBIZ 201900Z 03010KT 7000 TS VCSH BKN020 FEW025CB BKN080 BKN400 31/23 Q1009;EQDQ01+000003PRSWM1Q02    003PRSWM1
0215825640999992001012021004-05520-047440FM-15+0131SBIZ V0201501N002610045019N0080001N1+02401+02301999999ADDGA1071+004509999GA2021+007509099GA3081+024009999GF108991999999999999999999MA1101021999999MW1801MW2951REMMET067SBIZ 202100Z 15005KT 8000 -TSRA BKN015 FEW025CB OVC080 24/23 Q1010;EQDQ01+000003PRSWM1Q02    003PRSWM1
0206825640999992001012022004-05520-047440FM-15+0131SBIZ V0200901N005110240019N0112651N1+02401+02301999999ADDGA1021+004509999GA2021+007509099GA3081+024009999GF108991999999999999999999MA1101081999999MW1171REMMET064SBIZ 202200Z 09010KT 9999 TS SCT015 FEW025CB OVC080 24/23 Q1011;EQDQ01+000003PRSWM1Q02    003PRSWM1
0185825640999992001012100004-05520-047440FM-12+0131SBIZ V0200501N000519999999N0100001N1+02561+02361999999ADDAA106001091AY161061AY221061GF106991999091008001001001KA1240M+03341MW1031REMSYN082AAXX  21004 82564 21597 60501 10256 20236 70362 81900 333 10334 29074 55040 60011;EQDQ01+000012SCOTLC
0162825640999992001012109004-05520-047440FM-15+0131SBIZ V0202401N001010045019N0112651N1+02401+02301999999ADDGA1071+004509999GA2071+006009999GF107991999999999999999999MA1101291999999MW1001REMMET052SBIZ 210900Z 24002KT 9999 BKN015 BKN020 24/23 Q1013;EQDQ01+000000PRSWM2
0185825640999992001012110004-05520-047440FM-15+0131SBIZ V0209999C000010045019N0112651N1+02401+02301999999ADDGA1071+004509999GA2071+006009999GA3081+120009999GF108991999999999999999999MA1101291999999MW1001REMMET059SBIZ 211000Z 00000KT 9999 BKN015 BKN020 OVC400 24/23 Q1013;EQDQ01+000000PRSWM2
0185825640999992001012111004-05520-047440FM-15+0131SBIZ V0200201N003110045019N0112651N1+02401+02301999999ADDGA1071+004509999GA2071+006009999GA3081+120009999GF108991999999999999999999MA1101391999999MW1001REMMET059SBIZ 211100Z 02006KT 9999 BKN015 BKN020 OVC400 24/23 Q1014;EQDQ01+000000PRSWM2
0185825640999992001012113004-05520-047440FM-15+0131SBIZ V0209999C000010060019N0112651N1+02601+02201999999ADDGA1021+004509999GA2071+006009999GA3081+120009999GF108991999999999999999999MA1101391999999MW1001REMMET059SBIZ 211300Z 00000KT 9999 SCT015 BKN020 OVC400 26/22 Q1014;EQDQ01+000000PRSWM2
0185825640999992001012114004-05520-047440FM-15+0131SBIZ V0200401N003111200019N0112651N1+02801+02201999999ADDGA1021+004509999GA2021+006009999GA3071+120009999GF107991999999999999999999MA1101391999999MW1001REMMET059SBIZ 211400Z 04006KT 9999 FEW015 SCT020 BKN400 28/22 Q1014;EQDQ01+000000PRSWM2
0185825640999992001012115004-05520-047440FM-15+0131SBIZ V0203601N003110060019N0112651N1+03001+02301999999ADDGA1021+004509999GA2071+006009999GA3071+120009999GF107991999999999999999999MA1101391999999MW1001REMMET059SBIZ 211500Z 36006KT 9999 SCT015 BKN020 BKN400 30/23 Q1014;EQDQ01+000000PRSWM2
0162825640999992001012117004-05520-047440FM-15+0131SBIZ V0200601N005110060019N0112651N1+03001+02201999999ADDGA1071+006009999GA2071+120009999GF107991999999999999999999MA1101191999999MW1001REMMET052SBIZ 211700Z 06010KT 9999 BKN020 BKN400 30/22 Q1012;EQDQ01+000000PRSWM2
0120825640999992001012118004-05520-047440FM-12+0131SBIZ V0203201N003110450019N0200001N1+03131+02331999999ADDAA199000091GF108991021041012501091071REMSYN052AAXX  21184 82564 32698 83206 10313 20233 82497 333;EQDQ01  00002PRCP99
0162825640999992001012119004-05520-047440FM-15+0131SBIZ V0209999C000011200019N0112651N1+03101+02201999999ADDGA1021+006009999GA2071+120009999GF107991999999999999999999MA1100911999999MW1001REMMET052SBIZ 211900Z 00000KT 9999 SCT020 BKN400 31/22 Q1009;EQDQ01+000000PRSWM2
0208825640999992001012120004-05520-047440FM-15+0131SBIZ V0203601N005110045019N0070001N1+02901+02201999999ADDGA1071+004509999GA2021+007509099GA3081+120009999GF108991999999999999999999MA1100911999999MW1161REMMET066SBIZ 212000Z 36010KT 7000 VCSH BKN015 FEW025CB OVC400 29/22 Q1009;EQDQ01+000003PRSWM1Q02    003PRSWM1
0215825640999992001012122004-05520-047440FM-15+0131SBIZ V0209999C000010210019N0080001N1+02501+02301999999ADDGA1021+004509999GA2021+007509099GA3071+021009999GA4071+120009999GF107991999999999999999999MA1101081999999MW1001REMMET073SBIZ 212200Z 00000KT 8000 SCT015 FEW025CB BKN070 BKN400 25/23 Q1011 RETS;EQDQ01+000000PRSWM2
0185825640999992001012200004-05520-047440FM-12+0131SBIZ V0209999C000012200019N0100001N1+02451+02361999999ADDAA106002091AY161061AY221061GF103991999091008001001001KA1240M+03141MW1131REMSYN082AAXX  22004 82564 21597 30000 10245 20236 71362 81900 333 10314 29081 55016 60021;EQDQ01+000012SCOTLC
0185825640999992001012209004-05520-047440FM-15+0131SBIZ V0209999C000010300019N0112651N1+02201+02201999999ADDGA1021+004509999GA2071+030009999GA3071+120009999GF107991999999999999999999MA1101291999999MW1001REMMET059SBIZ 220900Z 00000KT 9999 SCT015 BKN100 BKN400 22/22 Q1013;EQDQ01+000000PRSWM2
0091825640999992001012210004-05520-047440FM-15+0131SBIZ V0200601N00211220001CN0099001N1+02301+02201999999ADDMA1101291999999MW1001REMMET039SBIZ 221000Z 06004KT CAVOK 23/22 Q1013;EQDQ01+000000PRSWM2
0249825640999992001012212004-05520-047440SY-MT+0131SBIZ V0200501N001510045019N0100001N1+02571+02271999999ADDAA124002091GA1071+004509999GF108991999061008001001001KA1240N+02201MA1101491999999MW1001REMSYN064AAXX  22124 82564 22597 80503 10257 20227 81600 333 20220 60024;MET045SBIZ 221200Z 03010KT 9999 BKN015 26/22 Q1015;EQDQ01+000012SCOTLCQ02+000000PRSWM2
0162825640999992001012214004-05520-047440FM-15+0131SBIZ V0200601N006210060019N0112651N1+02901+02201999999ADDGA1021+004509999GA2071+006009999GF107991999999999999999999MA1101391999999MW1001REMMET052SBIZ 221400Z 06012KT 9999 FEW015 BKN020 29/22 Q1014;EQDQ01+000000PRSWM2
0123825640999992001012215004-05520-047440FM-15+0131SBIZ V0200301N005112200019N0112651N1+03101+02201999999ADDGA1021+006009999GF104991999999999999999999MW1001REMMET044SBIZ 221500Z 03010KT 9999 SCT020 31/22 Q113;EQDQ01+000000PRSWM2
0139825640999992001012216004-05520-047440FM-15+0131SBIZ V0200201N004110060019N0112651N1+03201+02201999999ADDGA1071+006009999GF107991999999999999999999MA1101191999999MW1001REMMET045SBIZ 221600Z 02008KT 9999 BKN020 32/22 Q1012;EQDQ01+000000PRSWM2
0139825640999992001012217004-05520-047440FM-15+0131SBIZ V0200301N002110060019N0112651N1+03101+02201999999ADDGA1071+006009999GF107991999999999999999999MA1101081999999MW1001REMMET045SBIZ 221700Z 03004KT 9999 BKN020 31/22 Q1011;EQDQ01+000000PRSWM2
0224825640999992001012218004-05520-047440SY-MT+0131SBIZ V0202701N000510450019N0200001N1+03291+02301999999ADDAA199000091GA1021+006009999GF105991021021012501061001MA1100911999999MW1001REMSYN052AAXX  22184 82564 32698 52701 10329 20230 82260 333;MET045SBIZ 221800Z 36010KT 9999 SCT020 35/21 Q1009;EQDQ01+000000PRSWM2Q02  00002PRCP99
0139825640999992001012219004-05520-047440FM-15+0131SBIZ V0201201N004112200019N0112651N1+03501+02101999999ADDGA1021+006009999GF104991999999999999999999MA1100811999999MW1001REMMET045SBIZ 221900Z 12008KT 9999 SCT020 35/21 Q1008;EQDQ01+000000PRSWM2
0215825640999992001012220004-05520-047440FM-15+0131SBIZ V0200601N005110240019N0080001N1+02901+02301999999ADDGA1021+004509999GA2021+007509099GA3071+024009999GF107991999999999999999999MA1100811999999MW1801MW2951REMMET067SBIZ 222000Z 06010KT 8000 -TSRA SCT015 FEW025CB BKN080 29/23 Q1008;EQDQ01+000003PRSWM1Q02    003PRSWM1
0206825640999992001012221004-05520-047440FM-15+0131SBIZ V0200401N003110240019N0112651N1+02601+02301999999ADDGA1021+004509999GA2021+007509099GA3071+024009999GF107991999999999999999999MA1100911999999MW1171REMMET064SBIZ 222100Z 04006KT 9999 TS SCT015 FEW025CB BKN080 26/23 Q1009;EQDQ01+000003PRSWM1Q02    003PRSWM1
0167825640999992001012222004-05520-047440FM-15+0131SBIZ V0209999C000010240019N0112651N1+02501+02401999999ADDGA1021+004509999GA2071+024009999GF107991999999999999999999MA1100911999999MW1001REMMET057SBIZ 222200Z 00000KT 9999 SCT015 BKN080 25/24 Q1009 RETS;EQDQ01+000000PRSWM2
0185825640999992001012300004-05520-047440FM-12+0131SBIZ V0200901N001012200019N0100001N1+02581+02331999999ADDAA106000891AY161061AY291061GF103991999091004501001001KA1240M+03361MW1131REMSYN082AAXX  23004 82564 21497 30902 10258 20233 71369 81900 333 10336 29075 55062 69981;EQDQ01+000012SCOTLC
0158825640999992001012309004-05520-047440FM-15+0131SBIZ V0209999C000012200019N0050001N1+02201+02201999999ADDGA1021+003009999GF104991999999999999999999MA1101191999999MW1101REMMET048SBIZ 230900Z 00000KT 5000 BR SCT010 22/22 Q1012;EQDQ01+000003PRSWM1Q02    003PRSWM1
0162825640999992001012311004-05520-047440FM-15+0131SBIZ V0209999C000010060019N0080001N1+02401+02201999999ADDGA1021+004509999GA2071+006009999GF107991999999999999999999MA1101391999999MW1001REMMET052SBIZ 231100Z 00000KT 8000 SCT015 BKN020 24/22 Q1014;EQDQ01+000000PRSWM2
0272825640999992001012312004-05520-047440SY-MT+0131SBIZ V0201401N000510060019N0040001N1+02531+02341999999ADDAA124000891GA1021+004509999GA2071+006009999GF108991999071008001001001KA1240N+02171MA1101391999999MW1001REMSYN064AAXX  23124 82564 22596 81401 10253 20234 81700 333 20217 69984;MET052SBIZ 231200Z 14002KT 9999 SCT015 BKN020 26/23 Q1014;EQDQ01+000012SCOTLCQ02+000000PRSWM2
0162825640999992001012313004-05520-047440FM-15+0131SBIZ V0200601N002110060019N0112651N1+02701+02301999999ADDGA1021+004509999GA2071+006009999GF107991999999999999999999MA1101491999999MW1001REMMET052SBIZ 231300Z 06004KT 9999 SCT015 BKN020 27/23 Q1015;EQDQ01+000000PRSWM2
0162825640999992001012314004-05520-047440FM-15+0131SBIZ V0200301N004110060019N0112651N1+02901+02301999999ADDGA1021+004509999GA2071+006009999GF107991999999999999999999MA1101391999999MW1001REMMET052SBIZ 231400Z 03008KT 9999 FEW015 BKN020 29/23 Q1014;EQDQ01+000000PRSWM2
0139825640999992001012315004-05520-047440FM-15+0131SBIZ V0200601N004110060019N0112651N1+03101+02301999999ADDGA1071+006009999GF107991999999999999999999MA1101391999999MW1001REMMET045SBIZ 231500Z 06008KT 9999 BKN020 31/23 Q1014;EQDQ01+000000PRSWM2
0165825640999992001012316004-05520-047440FM-15+0131SBIZ V0200901N002112200019N0112651N1+03101+02201999999ADDGA1021+006009999GA2021+007509029GF102991999999999999999999MA1101291999999MW1001REMMET055SBIZ 231600Z 09004KT 9999 SCT020 FEW025TCU 31/22 Q1013;EQDQ01+000000PRSWM2
0275825640999992001012318004-05520-047440SY-MT+0131SBIZ V0200501N001010450019N0200001N1+02721+02391999999ADDAA106010991AY161061AY291061GA1021+006009999GA2021+007509099GF106991031091008001041001MA1101021999999MW1151MW2171REMSYN064AAXX  23184 82564 21598 60502 10272 20239 71569 83940 333 60111;MET062SBIZ 231800Z 03006KT 9999 TS SCT020 FEW025CB 27/23 Q1010 RERA;EQDQ01    003PRSWM1
0144825640999992001012319004-05520-047440FM-15+0131SBIZ V0202701N001512200019N0112651N1+03101+02201999999ADDGA1021+006009999GF104991999999999999999999MA1100911999999MW1001REMMET050SBIZ 231900Z 27003KT 9999 SCT020 31/22 Q1009 RETS;EQDQ01+000000PRSWM2
0139825640999992001012320004-05520-047440FM-15+0131SBIZ V0209999C000012200019N0112651N1+03001+02301999999ADDGA1021+006009999GF104991999999999999999999MA1100911999999MW1001REMMET045SBIZ 232000Z 00000KT 9999 SCT020 30/23 Q1009;EQDQ01+000000PRSWM2
0162825640999992001012321004-05520-047440FM-15+0131SBIZ V0209999C000011200019N0112651N1+02901+02301999999ADDGA1021+006009999GA2071+120009999GF107991999999999999999999MA1100911999999MW1001REMMET052SBIZ 232100Z 00000KT 9999 FEW020 BKN400 29/23 Q1009;EQDQ01+000000PRSWM2
0162825640999992001012322004-05520-047440FM-15+0131SBIZ V0209999C000011200019N0112651N1+02801+02301999999ADDGA1021+006009999GA2071+120009999GF107991999999999999999999MA1101021999999MW1001REMMET052SBIZ 232200Z 00000KT 9999 FEW020 BKN400 28/23 Q1010;EQDQ01+000000PRSWM2
0195825640999992001012400004-05520-047440FM-12+0131SBIZ V0209999C000012200019N0100001N1+02661+02411999999ADDAA199000091AY191061AY221061GF104991999091008001001001KA1240M+03161MW1131REMSYN076AAXX  24004 82564 31597 40000 10266 20241 71392 81900 333 10316 29086 55050;EQDQ01+000012SCOTLCQ02  00002PRCP99
0162825640999992001012409004-05520-047440FM-15+0131SBIZ V0209999C000010060019N0080001N1+02201+02201999999ADDGA1021+004509999GA2071+006009999GF107991999999999999999999MA1101291999999MW1001REMMET052SBIZ 240900Z 00000KT 8000 FEW015 BKN020 22/22 Q1013;EQDQ01+000000PRSWM2
0139825640999992001012410004-05520-047440FM-15+0131SBIZ V0209999C000010060019N0112651N1+02301+02201999999ADDGA1071+006009999GF107991999999999999999999MA1101291999999MW1001REMMET045SBIZ 241000Z 00000KT 9999 BKN020 23/22 Q1013;EQDQ01+000000PRSWM2
0139825640999992001012411004-05520-047440FM-15+0131SBIZ V0203001N002610060019N0112651N1+02401+02201999999ADDGA1071+006009999GF107991999999999999999999MA1101391999999MW1001REMMET045SBIZ 241100Z 30005KT 9999 BKN020 24/22 Q1014;EQDQ01+000000PRSWM2
0154825640999992001012412004-05520-047440FM-12+0131SBIZ V0203601N001010450019N0100001N1+02531+02291999999ADDAA124015091AY161061AY221061GF106991021051008001051001KA1240N+02101MW1011REMSYN070AAXX  24124 82564 21597 63602 10253 20229 70162 82550 333 20210 60154;
0139825640999992001012413004-05520-047440FM-15+0131SBIZ V0200701N001512200019N0112651N1+03001+02301999999ADDGA1021+006009999GF104991999999999999999999MA1101491999999MW1001REMMET045SBIZ 241300Z 07003KT 9999 SCT020 30/23 Q1015;EQDQ01+000000PRSWM2
0139825640999992001012415004-05520-047440FM-15+0131SBIZ V0202701N001510060019N0112651N1+03101+02201999999ADDGA1071+006009999GF107991999999999999999999MA1101391999999MW1001REMMET045SBIZ 241500Z 27003KT 9999 BKN020 31/22 Q1014;EQDQ01+000000PRSWM2
0139825640999992001012416004-05520-047440FM-15+0131SBIZ V0203001N003110060019N0112651N1+03201+02301999999ADDGA1071+006009999GF107991999999999999999999MA1101291999999MW1001REMMET045SBIZ 241600Z 30006KT 9999 BKN020 32/23 Q1013;EQDQ01+000000PRSWM2
0182825640999992001012417004-05520-047440FM-15+0131SBIZ V0200401N005110045019N0080001N1+02701+02401999999ADDGA1071+004509999GA2071+006009999GF107991999999999999999999MA1101191999999MW1611REMMET056SBIZ 241700Z 04010KT 8000 -RA BKN015 BKN020 27/24 Q1012;EQDQ01+000003PRSWM1Q02    003PRSWM1
0275825640999992001012418004-05520-047440SY-MT+0131SBIZ V0200501N00051120001CN0200001N1+02971+02471999999ADDAA106001091AY161061AY291061GA1021+006009999GA2071+120009999GF107991031021012501091021MA1101081999999MW1031REMSYN064AAXX  24184 82564 21698 70501 10297 20247 70369 83292 333 60011;MET052SBIZ 241800Z 00000KT 9999 SCT020 BKN400 30/23 Q1011;EQDQ01+000000PRSWM2Q02    003PRSWM1
0206825640999992001012419004-05520-047440FM-15+0131SBIZ V0201601N002111200019N0112651N1+03301+02401999999ADDGA1021+006009999GA2021+007509099GA3071+120009999GF107991999999999999999999MA1101021999999MW1171REMMET064SBIZ 241900Z 16004KT 9999 TS SCT020 FEW025CB BKN400 33/24 Q1010;EQDQ01+000003PRSWM1Q02    003PRSWM1
0167825640999992001012420004-05520-047440FM-15+0131SBIZ V0201201N002111200019N0112651N1+03101+02501999999ADDGA1021+006009999GA2071+120009999GF107991999999999999999999MA1100911999999MW1001REMMET057SBIZ 242000Z 12004KT 9999 FEW020 BKN400 31/25 Q1009 RETS;EQDQ01+000000PRSWM2
0162825640999992001012421004-05520-047440FM-15+0131SBIZ V0209999C000011200019N0112651N1+03001+02401999999ADDGA1021+006009999GA2071+120009999GF107991999999999999999999MA1100911999999MW1001REMMET052SBIZ 242100Z 00000KT 9999 FEW020 BKN400 30/24 Q1009;EQDQ01+000000PRSWM2
0162825640999992001012422004-05520-047440FM-15+0131SBIZ V0202101N003111200019N0112651N1+02701+02301999999ADDGA1021+006009999GA2071+120009999GF107991999999999999999999MA1101021999999MW1001REMMET052SBIZ 242200Z 21006KT 9999 FEW020 BKN400 27/23 Q1010;EQDQ01+000000PRSWM2
0179825640999992001012500004-05520-047440FM-12+0131SBIZ V0201801N001512200019N0100001N1+02511+02291999999ADDAA199000021AY121061AY211061GF102991999091008001001001KA1240M+03191MW1131REMSYN076AAXX  25004 82564 31597 21803 10251 20229 71321 81900 333 10319 29083 55050;EQDQ01+000012SCOTLC
0181825640999992001012509004-05520-047440FM-15+0131SBIZ V0209999C000010030019N0050001N1+02301+02301999999ADDGA1071+003009999GA2071+006009999GF107991999999999999999999MA1101191999999MW1101REMMET055SBIZ 250900Z 00000KT 5000 BR BKN010 BKN020 23/23 Q1012;EQDQ01+000003PRSWM1Q02    003PRSWM1
0162825640999992001012510004-05520-047440FM-15+0131SBIZ V0209999C000010060019N0080001N1+02401+02301999999ADDGA1021+003009999GA2071+006009999GF107991999999999999999999MA1101291999999MW1001REMMET052SBIZ 251000Z 00000KT 8000 SCT010 BKN020 24/23 Q1013;EQDQ01+000000PRSWM2
0162825640999992001012511004-05520-047440FM-15+0131SBIZ V0209999C000010060019N0112651N1+02501+02301999999ADDGA1021+004509999GA2071+006009999GF107991999999999999999999MA1101391999999MW1001REMMET052SBIZ 251100Z 00000KT 9999 FEW015 BKN020 25/23 Q1014;EQDQ01+000000PRSWM2
0145825640999992001012512004-05520-047440FM-12+0131SBIZ V0203601N001519999999N0040001N1+02521+02331999999ADDAA124001091GF108991999061008001001001KA1240N+02181REMSYN064AAXX  25124 82564 22596 83603 10252 20233 81600 333 20218 60014;EQDQ01+000012SCOTLC
0162825640999992001012513004-05520-047440FM-15+0131SBIZ V0209999C000010240019N0112651N1+02801+02301999999ADDGA1021+006009999GA2071+024009999GF107991999999999999999999MA1101491999999MW1001REMMET052SBIZ 251300Z 00000KT 9999 SCT020 BKN080 28/23 Q1015;EQDQ01+000000PRSWM2
0139825640999992001012514004-05520-047440FM-15+0131SBIZ V0203001N003110060019N0112651N1+02901+02301999999ADDGA1071+006009999GF107991999999999999999999MA1101391999999MW1001REMMET045SBIZ 251400Z 30006KT 9999 BKN020 29/23 Q1014;EQDQ01+000000PRSWM2
0139825640999992001012515004-05520-047440FM-15+0131SBIZ V0203001N005110060019N0112651N1+03101+02201999999ADDGA1071+006009999GF107991999999999999999999MA1101291999999MW1001REMMET045SBIZ 251500Z 30010KT 9999 BKN020 31/22 Q1013;EQDQ01+000000PRSWM2
0165825640999992001012517004-05520-047440FM-15+0131SBIZ V0203001N002112200019N0112651N1+03201+02301999999ADDGA1021+006009999GA2021+006909029GF102991999999999999999999MA1101081999999MW1001REMMET055SBIZ 251700Z 30004KT 9999 SCT020 FEW023TCU 32/23 Q1011;EQDQ01+000000PRSWM2
0253825640999992001012518004-05520-047440SY-MT+0131SBIZ V0203201N001512200019N0200001N1+02811+02251999999ADDAA106000191AY151061AY221061GA1021+000609999GF106991031021008001071011MA1101021999999MW1021REMSYN064AAXX  25184 82564 21598 63203 10281 20225 70252 83271 333 69911;MET046SBIZ 251800Z 27010KT 9999 SCT0020 30/23 Q1010;EQDQ01+000000PRSWM2Q02    003PRSWM1
0162825640999992001012520004-05520-047440FM-15+0131SBIZ V0202401N005111200019N0112651N1+03201+02301999999ADDGA1021+006009999GA2071+120009999GF107991999999999999999999MA1100911999999MW1001REMMET052SBIZ 252000Z 24010KT 9999 FEW020 BKN400 32/23 Q1009;EQDQ01+000000PRSWM2
0213825640999992001012522004-05520-047440FM-15+0131SBIZ V0201201N007710045019N0040001N1+02601+02401999999ADDGA1071+004509999GA2021+006909099GA3071+021009999GF107991999999999999999999MA1101021999999MW1811MW2951REMMET065SBIZ 252200Z 12015KT 4000TSRA BKN015 SCT023CB BKN070 26/24 Q1010;EQDQ01+000003PRSWM1Q02    003PRSWM1
0185825640999992001012600004-05520-047440FM-12+0131SBIZ V0200901N002112200019N0100001N1+02331+02241999999ADDAA106027991AY161061AY291061GF103991999091008001001001KA1240M+03211MW1131REMSYN082AAXX  26004 82564 21597 30904 10233 20224 71369 81900 333 10321 29085 55057 60281;EQDQ01+000012SCOTLC
0166825640999992001012609004-05520-047440FM-15+0131SBIZ V0209999C000012200019N0030001N1+02201+02201999999ADDGA1021+120009999GF104991999999999999999999MA1101191999999MW1101REMMET056SBIZ 260900Z 00000KT 3000NE 6000W BR SCT400 22/22 Q1012;EQDQ01+000003PRSWM1Q02    003PRSWM1
0139825640999992001012610004-05520-047440FM-15+0131SBIZ V0209999C000012200019N0060001N1+02201+02201999999ADDGA1021+004509999GF104991999999999999999999MA1101291999999MW1001REMMET045SBIZ 261000Z 00000KT 6000 SCT015 22/22 Q1013;EQDQ01+000000PRSWM2
0139825640999992001012611004-05520-047440FM-15+0131SBIZ V0209999C000010045019N0112651N1+02301+02301999999ADDGA1071+004509999GF107991999999999999999999MA1101391999999MW1001REMMET045SBIZ 261100Z 00000KT 9999 BKN015 23/23 Q1014;EQDQ01+000000PRSWM2
0256825640999992001012612004-05520-047440SY-MT+0131SBIZ V0200501N001510450019N0100001N1+02681+02331999999ADDAA124027991GA1021+004509999GA2021+006009999GF106991021041008001091001KA1240N+02061MA1101391999999MW1001REMSYN064AAXX  26124 82564 22597 60503 10268 20233 82490 333 20206 60284;MET052SBIZ 261200Z 03010KT 9999 FEW015 SCT020 27/23 Q1014;EQDQ01+000000PRSWM2
0139825640999992001012614004-05520-047440FM-15+0131SBIZ V0200301N005110060019N0112651N1+03001+02201999999ADDGA1071+006009999GF107991999999999999999999MA1101291999999MW1001REMMET045SBIZ 261400Z 03010KT 9999 BKN020 30/22 Q1013;EQDQ01+000000PRSWM2
0162825640999992001012615004-05520-047440FM-15+0131SBIZ V0200201N002110060019N0112651N1+03101+02101999999ADDGA1021+004509999GA2071+006009999GF107991999999999999999999MA1101291999999MW1001REMMET052SBIZ 261500Z 02004KT 9999 FEW015 BKN020 31/21 Q1013;EQDQ01+000000PRSWM2
0139825640999992001012616004-05520-047440FM-15+0131SBIZ V0200601N005112200019N0112651N1+03301+02201999999ADDGA1021+006009999GF104991999999999999999999MA1101191999999MW1001REMMET045SBIZ 261600Z 06010KT 9999 SCT020 33/22 Q1012;EQDQ01+000000PRSWM2
0139825640999992001012617004-05520-047440FM-15+0131SBIZ V0200701N003112200019N0112651N1+03301+02201999999ADDGA1021+006009999GF104991999999999999999999MA1101081999999MW1001REMMET045SBIZ 261700Z 07006KT 9999 SCT020 33/22 Q1011;EQDQ01+000000PRSWM2
0224825640999992001012618004-05520-047440SY-MT+0131SBIZ V0201401N001510450019N0200001N1+03291+02301999999ADDAA199000091GA1021+006009999GF105991021021008001061001MA1100911999999MW1001REMSYN052AAXX  26184 82564 32598 51403 10329 20230 82260 333;MET045SBIZ 261800Z 06010KT 9999 SCT020 34/22 Q1009;EQDQ01+000000PRSWM2Q02  00002PRCP99
0139825640999992001012619004-05520-047440FM-15+0131SBIZ V0201501N002112200019N0112651N1+03401+02201999999ADDGA1021+006009999GF102991999999999999999999MA1100811999999MW1001REMMET045SBIZ 261900Z 15004KT 9999 FEW020 34/22 Q1008;EQDQ01+000000PRSWM2
0139825640999992001012620004-05520-047440FM-15+0131SBIZ V0201501N002112200019N0112651N1+03401+02201999999ADDGA1021+006009999GF102991999999999999999999MA1100811999999MW1001REMMET045SBIZ 262000Z 15004KT 9999 FEW020 34/22 Q1008;EQDQ01+000000PRSWM2
0139825640999992001012621004-05520-047440FM-15+0131SBIZ V0201501N003112200019N0112651N1+03301+02201999999ADDGA1021+006009999GF102991999999999999999999MA1100811999999MW1001REMMET045SBIZ 262100Z 15006KT 9999 FEW020 33/22 Q1008;EQDQ01+000000PRSWM2
0139825640999992001012622004-05520-047440FM-15+0131SBIZ V0201001N002112200019N0112651N1+03001+02201999999ADDGA1021+006009999GF102991999999999999999999MA1100911999999MW1001REMMET045SBIZ 262200Z 10004KT 9999 FEW020 30/22 Q1009;EQDQ01+000000PRSWM2
0179825640999992001012700004-05520-047440FM-12+0131SBIZ V0200901N001512200019N0100001N1+02811+02381999999ADDAA199000091AY121061AY211061GF102991021061008001001001KA1240M+03351MW1131REMSYN076AAXX  27004 82564 31597 20903 10281 20238 71321 82600 333 10335 29072 55086;EQDQ01  00002PRCP99
0091825640999992001012709004-05520-047440FM-15+0131SBIZ V0209999C00001220001CN0099001N1+02301+02201999999ADDMA1101081999999MW1001REMMET039SBIZ 270900Z 00000KT CAVOK 23/22 Q1011;EQDQ01+000000PRSWM2
0139825640999992001012711004-05520-047440FM-15+0131SBIZ V0209999C000010045019N0112651N1+02501+02201999999ADDGA1071+004509999GF107991999999999999999999MA1101291999999MW1001REMMET045SBIZ 271100Z 00000KT 9999 BKN015 25/22 Q1013;EQDQ01+000000PRSWM2
0243825640999992001012712004-05520-047440SY-MT+0131SBIZ V0200501N001510450019N0200001N1+02651+02291999999ADDAA199000091GA1021+004509999GF107991021041008001091061KA1999N+02181MA1101291999999MW1001REMSYN058AAXX  27124 82564 32598 70503 10265 20229 82496 333 20218;MET045SBIZ 271200Z 06006KT 9999 SCT015 28/23 Q1013;EQDQ01+000000PRSWM2Q02  00002PRCP99
0162825640999992001012713004-05520-047440FM-15+0131SBIZ V0200601N003111200019N0112651N1+03001+02301999999ADDGA1021+006009999GA2071+120009999GF107991999999999999999999MA1101291999999MW1001REMMET052SBIZ 271300Z 06006KT 9999 SCT020 BKN400 30/23 Q1013;EQDQ01+000000PRSWM2
0162825640999992001012714004-05520-047440FM-15+0131SBIZ V0203601N005111200019N0112651N1+03101+02301999999ADDGA1021+006009999GA2071+120009999GF107991999999999999999999MA1101291999999MW1001REMMET052SBIZ 271400Z 36010KT 9999 SCT020 BKN400 31/23 Q1013;EQDQ01+000000PRSWM2
0162825640999992001012715004-05520-047440FM-15+0131SBIZ V0200301N005110060019N0112651N1+03101+02201999999ADDGA1071+006009999GA2071+120009999GF107991999999999999999999MA1101291999999MW1001REMMET052SBIZ 271500Z 03010KT 9999 BKN020 BKN400 31/22 Q1013;EQDQ01+000000PRSWM2
0185825640999992001012716004-05520-047440FM-15+0131SBIZ V0201801N003110060019N0112651N1+03201+02301999999ADDGA1021+004509999GA2071+006009999GA3071+120009999GF107991999999999999999999MA1101191999999MW1001REMMET059SBIZ 271600Z 18006KT 9999 FEW015 BKN020 BKN400 32/23 Q1012;EQDQ01+000000PRSWM2
0162825640999992001012717004-05520-047440FM-15+0131SBIZ V0200301N005110060019N0112651N1+03301+02301999999ADDGA1071+006009999GA2071+120009999GF107991999999999999999999MA1101081999999MW1001REMMET052SBIZ 271700Z 03010KT 9999 BKN020 BKN400 33/23 Q1011;EQDQ01+000000PRSWM2
0148825640999992001012718004-05520-047440FM-12+0131SBIZ V0203601N002110450019N0100001N1+03051+02351999999ADDAA199000091AY121061AY211061GF107991031061008001021061MW1141REMSYN058AAXX  27184 82564 31597 73604 10305 20235 71421 83626 333;EQDQ01  00002PRCP99
0206825640999992001012719004-05520-047440FM-15+0131SBIZ V0200301N005111200019N0112651N1+03401+02201999999ADDGA1021+006009999GA2021+007509099GA3071+120009999GF107991999999999999999999MA1100911999999MW1171REMMET064SBIZ 271900Z 03010KT 9999 TS SCT020 FEW025CB BKN400 34/22 Q1009;EQDQ01+000003PRSWM1Q02    003PRSWM1
0229825640999992001012721004-05520-047440FM-15+0131SBIZ V0200601N00621007501CN0112651N1+03001+02301999999ADDGA1021+004509999GA2021+006009999GA3021+007509099GA4071+024009999GF107991999999999999999999MA1100911999999MW1171REMMET071SBIZ 272100Z 06012KT 9999 TS FEW015 SCT020 FEW025CB BKN080 30/23 Q1009;EQDQ01+000003PRSWM1Q02    003PRSWM1
0167825640999992001012722004-05520-047440FM-15+0131SBIZ V0209999C000010240019N0112651N1+02701+02301999999ADDGA1021+006009999GA2071+024009999GF107991999999999999999999MA1100911999999MW1001REMMET057SBIZ 272200Z 00000KT 9999 SCT020 BKN080 27/23 Q1009 RETS;EQDQ01+000000PRSWM2
0179825640999992001012800004-05520-047440FM-12+0131SBIZ V0200901N001512200019N0100001N1+02691+02351999999ADDAA199000091AY121061AY211061GF103991021061008001021001KA1240M+03291MW1131REMSYN076AAXX  28004 82564 31597 30903 10269 20235 71321 82620 333 10329 29076 55080;EQDQ01  00002PRCP99
0139825640999992001012809004-05520-047440FM-15+0131SBIZ V0209999C000012200019N0112651N1+02301+02201999999ADDGA1021+004509999GF104991999999999999999999MA1101081999999MW1001REMMET045SBIZ 280900Z 00000KT 9999 SCT015 23/22 Q1011;EQDQ01+000000PRSWM2
0139825640999992001012810004-05520-047440FM-15+0131SBIZ V0200401N001012200019N0112651N1+02301+02201999999ADDGA1021+004509999GF104991999999999999999999MA1101081999999MW1001REMMET045SBIZ 281000Z 04002KT 9999 SCT015 23/22 Q1011;EQDQ01+000000PRSWM2
0139825640999992001012812004-05520-047440FM-12+0131SBIZ V0200501N001510450019N0100001N1+02651+02291999999ADDAA199000091GF107991031061008001091001KA1999N+02221REMSYN058AAXX  28124 82564 32597 70503 10265 20229 83690 333 20222;EQDQ01  00002PRCP99
0162825640999992001012813004-05520-047440FM-15+0131SBIZ V0200301N005110060019N0112651N1+02901+02301999999ADDGA1021+004509999GA2071+006009999GF107991999999999999999999MA1101291999999MW1001REMMET052SBIZ 281300Z 03010KT 9999 SCT015 BKN020 29/23 Q1013;EQDQ01+000000PRSWM2
0162825640999992001012814004-05520-047440FM-15+0131SBIZ V0200401N006210045019N0112651N1+02901+02301999999ADDGA1071+004509999GA2071+006009999GF107991999999999999999999MA1101291999999MW1001REMMET052SBIZ 281400Z 04012KT 9999 BKN015 BKN020 29/23 Q1013;EQDQ01+000000PRSWM2
0182825640999992001012815004-05520-047440FM-15+0131SBIZ V0200601N002110045019N0080001N1+02701+02301999999ADDGA1071+004509999GA2071+006009999GF107991999999999999999999MA1101291999999MW1611REMMET056SBIZ 281500Z 06004KT 8000 -RA BKN015 BKN020 27/23 Q1013;EQDQ01+000003PRSWM1Q02    003PRSWM1
0162825640999992001012816004-05520-047440FM-15+0131SBIZ V0203301N003110060019N0112651N1+03101+02301999999ADDGA1021+004509999GA2071+006009999GF107991999999999999999999MA1101081999999MW1001REMMET052SBIZ 281600Z 33006KT 9999 FEW015 BKN020 31/23 Q1011;EQDQ01+000000PRSWM2
0139825640999992001012817004-05520-047440FM-15+0131SBIZ V0203301N005110060019N0112651N1+02801+02401999999ADDGA1071+006009999GF107991999999999999999999MA1101021999999MW1001REMMET045SBIZ 281700Z 33010KT 9999 BKN020 28/24 Q1010;EQDQ01+000000PRSWM2
0252825640999992001012818004-05520-047440SY-MT+0131SBIZ V0203601N001510450019N0100001N1+03091+02461999999ADDAA106007991AY161061AY221061GA1021+006009999GF106991031041008001091081MA1100911999999MW1031REMSYN064AAXX  28184 82564 21597 63603 10309 20246 70362 83498 333 60081;MET045SBIZ 281800Z 33006KT 9999 SCT020 32/24 Q1009;EQDQ01+000000PRSWM2Q02    003PRSWM1
0204825640999992001012819004-05520-047440FM-15+0131SBIZ V0200701N00771220001CN0030001N1+02701+02301999999ADDGA1021+004509999GA2071+006009999GA3021+007509099MA1100911999999MW1811MW2951REMMET066SBIZ 281900Z 07015KT 3000 TSRA SCT015 BKN020 FEW025CB 27/23 Q1009;EQDQ01+000022SCOTCVQ02+000003PRSWM1Q03    003PRSWM1
0169825640999992001012820004-05520-047440FM-15+0131SBIZ V0209999C000010210019N0112651N1+02501+02301999999ADDGA1021+006009999GA2071+021009999GF107991999999999999999999MA1100811999999MW1001REMMET059SBIZ 282000Z 00000KT 9999 SCT020 BKN070 25/23 Q1008 RETSRA;EQDQ01+000000PRSWM2
0185825640999992001012821004-05520-047440FM-15+0131SBIZ V0209999C000011200019N0112651N1+02501+02301999999ADDGA1021+006009999GA2021+021009999GA3071+120009999GF107991999999999999999999MA1100911999999MW1001REMMET059SBIZ 282100Z 00000KT 9999 FEW020 SCT070 BKN400 25/23 Q1009;EQDQ01+000000PRSWM2
0162825640999992001012822004-05520-047440FM-15+0131SBIZ V0209999C000011200019N0112651N1+02401+02301999999ADDGA1021+006009999GA2071+120009999GF107991999999999999999999MA1100911999999MW1001REMMET052SBIZ 282200Z 00000KT 9999 SCT020 BKN400 24/23 Q1009;EQDQ01+000000PRSWM2
0166825640999992001012900004-05520-047440FM-12+0131SBIZ V0201401N001010450019N0100001N1+02471+02341999999ADDAA106007991AY161061AY221061GF106991021061008001021001KA1240M+03251MW1131REMSYN082AAXX  29004 82564 21597 61402 10247 20234 71362 82620 333 10325 29080 55036 60081;
0162825640999992001012909004-05520-047440FM-15+0131SBIZ V0209999C000010045019N0080001N1+02201+02201999999ADDGA1071+004509999GA2071+006009999GF107991999999999999999999MA1101081999999MW1001REMMET052SBIZ 290900Z 00000KT 8000 BKN015 BKN020 22/22 Q1011;EQDQ01+000000PRSWM2
0126825640999992001012912004-05520-047440FM-12+0131SBIZ V0200501N000510450019N0100001N1+02551+02311999999ADDAA124016091GF106991021061008001071001KA1240N+02101REMSYN064AAXX  29124 82564 22597 60501 10255 20231 82670 333 20210 60164;
0185825640999992001012913004-05520-047440FM-15+0131SBIZ V0200601N004110300019N0112651N1+02701+02201999999ADDGA1021+004509999GA2021+006009999GA3071+030009999GF107991999999999999999999MA1101291999999MW1001REMMET059SBIZ 291300Z 06008KT 9999 FEW015 SCT020 BKN100 27/22 Q1013;EQDQ01+000000PRSWM2
0162825640999992001012914004-05520-047440FM-15+0131SBIZ V0200601N003110300019N0112651N1+02901+02201999999ADDGA1021+006009999GA2071+030009999GF107991999999999999999999MA1101191999999MW1001REMMET052SBIZ 291400Z 06006KT 9999 SCT020 BKN100 29/22 Q1012;EQDQ01+000000PRSWM2
0185825640999992001012915004-05520-047440FM-15+0131SBIZ V0200601N001511200019N0112651N1+03001+02201999999ADDGA1021+006009999GA2021+030009999GA3071+120009999GF107991999999999999999999MA1101191999999MW1001REMMET059SBIZ 291500Z 06003KT 9999 SCT020 SCT100 BKN400 30/22 Q1012;EQDQ01+000000PRSWM2
0162825640999992001012917004-05520-047440FM-15+0131SBIZ V0200301N003110060019N0112651N1+03001+02301999999ADDGA1021+004509999GA2071+006009999GF107991999999999999999999MA1100911999999MW1001REMMET052SBIZ 291700Z 03006KT 9999 FEW015 BKN020 30/23 Q1009;EQDQ01+000000PRSWM2
0224825640999992001012918004-05520-047440SY-MT+0131SBIZ V0200501N001012200019N0100001N1+03091+02311999999ADDAA199000091GA1021+006009999GF106991031041008001061061MA1100811999999MW1001REMSYN052AAXX  29184 82564 32597 60502 10309 20231 83466 333;MET045SBIZ 291800Z 03008KT 9999 SCT020 31/24 Q1008;EQDQ01+000000PRSWM2Q02  00002PRCP99
0162825640999992001012920004-05520-047440FM-15+0131SBIZ V0200501N003111200019N0112651N1+03101+02301999999ADDGA1021+006009999GA2071+120009999GF107991999999999999999999MA1100611999999MW1001REMMET052SBIZ 292000Z 05006KT 9999 FEW020 BKN400 31/23 Q1006;EQDQ01+000000PRSWM2
0162825640999992001012921004-05520-047440FM-15+0131SBIZ V0209999C000012200019N0112651N1+03001+02301999999ADDGA1021+006009999GA2021+120009999GF104991999999999999999999MA1100711999999MW1001REMMET052SBIZ 292100Z 00000KT 9999 FEW020 SCT400 30/23 Q1007;EQDQ01+000000PRSWM2
0091825640999992001012922004-05520-047440FM-15+0131SBIZ V0209999C00001220001CN0099001N1+02901+02301999999ADDMA1100711999999MW1001REMMET039SBIZ 292200Z 00000KT CAVOK 29/23 Q1007;EQDQ01+000000PRSWM2
0179825640999992001013000004-05520-047440FM-12+0131SBIZ V0203601N000510450019N0100001N1+02771+02441999999ADDAA199000091AY121061AY211061GF105991021061008001071001KA1240M+03151MW1131REMSYN076AAXX  30004 82564 31597 53601 10277 20244 71321 82670 333 10315 29077 55052;EQDQ01  00002PRCP99
0162825640999992001013009004-05520-047440FM-15+0131SBIZ V0209999C000010060019N0080001N1+02401+02301999999ADDGA1021+004509999GA2071+006009999GF107991999999999999999999MA1101021999999MW1001REMMET052SBIZ 300900Z 00000KT 8000 FEW015 BKN020 24/23 Q1010;EQDQ01+000000PRSWM2
0162825640999992001013010004-05520-047440FM-15+0131SBIZ V0200601N003110060019N0112651N1+02401+02301999999ADDGA1021+004509999GA2071+006009999GF107991999999999999999999MA1101021999999MW1001REMMET052SBIZ 301000Z 06006KT 9999 SCT015 BKN020 24/23 Q1010;EQDQ01+000000PRSWM2
0139825640999992001013011004-05520-047440FM-15+0131SBIZ V0203601N003112200019N0112651N1+02501+02301999999ADDGA1021+006009999GF104991999999999999999999MA1101081999999MW1001REMMET045SBIZ 301100Z 36006KT 9999 SCT020 25/23 Q1011;EQDQ01+000000PRSWM2
0294825640999992001013012004-05520-047440SY-MT+0131SBIZ V0203601N00151006001CN0100001N1+02631+02331999999ADDAA124008991AY161061AY221061GA1021+004509999GA2071+006009999GF108991031071004501071001KA1240N+02211MA1101081999999MW1031REMSYN070AAXX  30124 82564 21497 83603 10263 20233 70362 83770 333 20221 60094;MET052SBIZ 301200Z 03010KT 9999 FEW015 BKN020 28/23 Q1011;EQDQ01+000000PRSWM2Q02    003PRSWM1
0162825640999992001013013004-05520-047440FM-15+0131SBIZ V0200301N005110060019N0112651N1+02901+02301999999ADDGA1021+004509999GA2071+006009999GF107991999999999999999999MA1101191999999MW1001REMMET052SBIZ 301300Z 03010KT 9999 FEW015 BKN020 29/23 Q1012;EQDQ01+000000PRSWM2
0162825640999992001013014004-05520-047440FM-15+0131SBIZ V0200301N005110060019N0112651N1+02901+02201999999ADDGA1021+004509999GA2071+006009999GF107991999999999999999999MA1101081999999MW1001REMMET052SBIZ 301400Z 03010KT 9999 SCT015 BKN020 29/22 Q1011;EQDQ01+000000PRSWM2
0182825640999992001013015454-05520-047440FM-15+0131SBIZ V0203601N00311220001CN0030001N1+02701+02401999999ADDGA1071+006009999GA2021+006909099MA1100911999999MW1811MW2951REMMET060SBIZ 301545Z 36006KT 3000W TSRA BKN020 FEW023CB 27/24 Q1009;EQDQ01+000022SCOTCVQ02+000003PRSWM1Q03    003PRSWM1
