0198825710999992001010100004-05500-045260FM-12+017499999V0202301N001012200019N0100001N1+02781+02481101101ADDAA199000091GF103991031001017501031001KA1240M+03281MA1999999099141MD1999999+0011REMSYN088AAXX  01004 82571 32797 32302 10278 20248 39914 40110 83030 333 10328 29078 55037 58001;EQDQ01  00002PRCP99
0193825710999992001010112004-05500-045260FM-12+017499999V0201401N001010075019N0100001N1+02241+02121101451ADDAA124007991AY161061GF108991081051008001999999KA1240N+01991MA1999999099461MD1999999+0011MW1021REMSYN088AAXX  01124 82571 21597 81402 10224 20212 39946 40145 7026/ 885// 333 20199 58001 60084;
0167825710999992001010118004-05500-045260FM-12+017499999V0202301N001010450019N0100001N1+02931+02331101111ADDAA199000091GF106991031021008001031011MA1999999099141MD1999999+0031REMSYN070AAXX  01184 82571 32597 62302 10293 20233 39914 40111 83231 333 58003;EQDQ01  00002PRCP99
0198825710999992001010200004-05500-045260FM-12+017499999V0201401N001010075019N0100001N1+02541+02311101241ADDAA199000091GF105991051051008001001001KA1240M+03111MA1999999099251MD1999999+0111REMSYN088AAXX  02004 82571 32597 51402 10254 20231 39925 40124 85500 333 10311 29084 55028 58011;EQDQ01  00002PRCP99
0186825710999992001010212004-05500-045260FM-12+017499999V0201401N003110450019N0100001N1+02521+02231101511ADDAA199000091GF106991031051008001031011KA1240N+02181MA1999999099531MD1999999+0071REMSYN076AAXX  02124 82571 32597 61406 10252 20223 39953 40151 83531 333 20218 58007;EQDQ01  00002PRCP99
0174825710999992001010218004-05500-045260FM-12+017499999V0200501N001010450019N0100001N1+03071+02291101041ADDAA106000191AY161061GF106991021021008001031011MA1999999099081MD1999999-0061MW1011REMSYN082AAXX  02184 82571 21597 60502 10307 20229 39908 40104 7016/ 82231 333 59006 69921;
0198825710999992001010300004-05500-045260FM-12+017499999V0203201N001012200019N0100001N1+02641+02271101261ADDAA199000091GF102991021001017501031001KA1240M+03171MA1999999099291MD1999999+0011REMSYN088AAXX  03004 82571 32797 23202 10264 20227 39929 40126 82030 333 10317 29077 55069 58001;EQDQ01  00002PRCP99
0167825710999992001010318004-05500-045260FM-12+017499999V0200501N001011050019N0100001N1+03051+02051101131ADDAA199000091GF105991021021008001031011MA1999999099171MD1999999+0091REMSYN070AAXX  03184 82571 32597 50502 10305 20205 39917 40113 82231 333 58009;EQDQ01  00002PRCP99
0186825710999992001010412004-05500-045260FM-12+017499999V0202301N001012200019N0100001N1+02581+02231101441ADDAA199000091GF103991011011004501031011KA1240N+02041MA1999999099461MD1999999+0001REMSYN076AAXX  04124 82571 32497 32302 10258 20223 39946 40144 81131 333 20204 58000;EQDQ01  00002PRCP99
0167825710999992001010418004-05500-045260FM-12+017499999V0201401N001010450019N0100001N1+03131+02101101041ADDAA199000091GF106991021021008001011011MA1999999099081MD1999999-0091REMSYN070AAXX  04184 82571 32597 61402 10313 20210 39908 40104 82211 333 59009;EQDQ01  00002PRCP99
0198825710999992001010500004-05500-045260FM-12+017499999V0200501N002112200019N0100001N1+02631+02311101271ADDAA199000091GF103991031001017501031001KA1240M+03191MA1999999099301MD1999999+0071REMSYN088AAXX  05004 82571 32797 30504 10263 20231 39930 40127 83030 333 10319 29075 55093 58007;EQDQ01  00002PRCP99
0193825710999992001010512004-05500-045260FM-12+017499999V0202301N001010042019N0100001N1+02361+02291101501ADDAA124009991AY161061GF107991051051004501031001KA1240N+02051MA1999999099511MD1999999+0051MW1021REMSYN088AAXX  05124 82571 21497 72302 10236 20229 39951 40150 7026/ 85530 333 20205 58005 60104;
0167825710999992001010518004-05500-045260FM-12+017499999V0203201N001010450019N0100001N1+03001+02291101101ADDAA199000091GF107991031021008001011011MA1999999099141MD1999999+0061REMSYN070AAXX  05184 82571 32597 73202 10300 20229 39914 40110 83211 333 58006;EQDQ01  00002PRCP99
0210825710999992001010600004-05500-045260FM-12+017499999V0201801N001010150019N0100001N1+02581+02351101251ADDAA199000091GF106991061001017501071001KA1240M+03151MA1999999099261MD1999999-0041MW1131REMSYN094AAXX  06004 82571 31797 61802 10258 20235 39926 40125 713// 86070 333 10315 29084 55032 59004;EQDQ01  00002PRCP99
0186825710999992001010612004-05500-045260FM-12+017499999V0200501N001010450019N0100001N1+02551+02381101491ADDAA199000091GF107991041021004501051001KA1240N+02231MA1999999099511MD1999999+0001REMSYN076AAXX  06124 82571 32497 70502 10255 20238 39951 40149 84250 333 20223 58000;EQDQ01  00002PRCP99
0167825710999992001010618004-05500-045260FM-12+017499999V0201401N002112200019N0100001N1+03071+02271100981ADDAA199000091GF104991031081008001001011MA1999999099031MD1999999-0111REMSYN070AAXX  06184 82571 32597 41404 10307 20227 39903 40098 83801 333 59011;EQDQ01  00002PRCP99
0198825710999992001010700004-05500-045260FM-12+017499999V0200501N002112200019N0100001N1+02611+02351101201ADDAA199000091GF104991041001017501031001KA1240M+03141MA1999999099231MD1999999-0031REMSYN088AAXX  07004 82571 32797 40504 10261 20235 39923 40120 84030 333 10314 29080 55040 59003;EQDQ01  00002PRCP99
0185825710999992001010712004-05500-045260FM-12+017499999V0200501N001010042019N0100001N1+02461+02391101321ADDAA124001091GF107991071051004501001001KA1240N+02251MA1999999099341MD1999999-0171MW1611REMSYN088AAXX  07124 82571 21497 70502 10246 20239 39934 40132 761// 87500 333 20225 59017 60014;
0182825710999992001010718004-05500-045260FM-12+017499999V0201401N002110450019N0100001N1+02771+02381100921ADDAA106002091AY191061AY261061GF105991031021008001041001MA1999999098961MD1999999-0071MW1171REMSYN082AAXX  07184 82571 21597 51404 10277 20238 39896 40092 71796 83240 333 59007 60021;
0179825710999992001010800004-05500-045260FM-12+017499999V0200501N003110042019N0100001N1+02421+02251101271ADDAA199000021GF106991061051004501001001KA1240M+03091MA1999999099281MD1999999+0051REMSYN088AAXX  08004 82571 32497 60506 10242 20225 39928 40127 86500 333 10309 29089 55046 58005;
0173825710999992001010812004-05500-045260FM-12+017499999V0203201N001012200019N0100001N1+02601+02271101241ADDAA124002091GF103991021011004501031001KA1240N+02181MA1999999099261MD1999999-0081REMSYN082AAXX  08124 82571 22497 33202 10260 20227 39926 40124 82130 333 20218 59008 60024;
0174825710999992001010818004-05500-045260FM-12+017499999V0200501N001010075019N0100001N1+03061+02381100801ADDAA106001091AY161061GF105991051021008001001001MA1999999098851MD1999999-0111MW1011REMSYN082AAXX  08184 82571 21597 50502 10306 20238 39885 40080 7016/ 85200 333 59011 69991;
0173825710999992001010912004-05500-045260FM-12+017499999V0203201N001010042019N0100001N1+02451+02361101351ADDAA124001091GF108991081051004501999999KA1240N+02101MA1999999099671MD1999999+0111REMSYN082AAXX  09124 82571 22497 83202 10245 20236 39967 40135 885// 333 20210 58011 69994;
0179825710999992001010918004-05500-045260FM-12+017499999V0200901N003110450019N0100001N1+03041+02281100931ADDAA199000091GF107991041051008001011001MA1999999098971MD1999999+0121MW1171REMSYN076AAXX  09184 82571 31597 70906 10304 20228 39897 40093 717// 84510 333 58012;EQDQ01  00002PRCP99
0198825710999992001011000004-05500-045260FM-12+017499999V0200501N002110450019N0100001N1+02581+02371101131ADDAA199000091GF106991021011004501071001KA1240M+03091MA1999999099151MD1999999+0031REMSYN088AAXX  10004 82571 32497 60504 10258 20237 39915 40113 82170 333 10309 29084 55032 58003;EQDQ01  00002PRCP99
0186825710999992001011012004-05500-045260FM-12+017499999V0202301N001010042019N0100001N1+02541+02361101341ADDAA199000091GF107991061051004501011001KA1240N+02181MA1999999099361MD1999999-0011REMSYN076AAXX  10124 82571 32497 72302 10254 20236 39936 40134 86510 333 20218 59001;EQDQ01  00002PRCP99
0167825710999992001011018004-05500-045260FM-12+017499999V0203601N001010450019N0100001N1+02901+02321101001ADDAA199000091GF107991031021008001071001MA1999999099041MD1999999+0071REMSYN070AAXX  10184 82571 32597 73602 10290 20232 39904 40100 83270 333 58007;EQDQ01  00002PRCP99
0198825710999992001011100004-05500-045260FM-12+017499999V0202301N003110150019N0100001N1+02581+02441101291ADDAA199000091GF106991061001017501071001KA1240M+02951MA1999999099311MD1999999+0161REMSYN088AAXX  11004 82571 32797 62306 10258 20244 39931 40129 86070 333 10295 29086 55000 58016;EQDQ01  00002PRCP99
0193825710999992001011112004-05500-045260FM-12+017499999V0202701N001010090019N0100001N1+02281+02161101431ADDAA124007991AY161061GF107991071081004501001001KA1240N+02021MA1999999099441MD1999999+0081MW1011REMSYN088AAXX  11124 82571 21497 72702 10228 20216 39944 40143 7016/ 87800 333 20202 58008 60084;
0167825710999992001011118004-05500-045260FM-12+017499999V0200501N001010120019N0100001N1+02651+02311101141ADDAA199000091GF107991071081008001001001MA1999999099161MD1999999+0121REMSYN070AAXX  11184 82571 32597 70502 10265 20231 39916 40114 87800 333 58012;EQDQ01  00002PRCP99
0205825710999992001011200004-05500-045260FM-12+017499999V0201801N001010450019N0100001N1+02461+02361101271ADDAA106000191AY161061GF106991021021004501041001KA1240M+02841MA1999999099281MD1999999-0031MW1021REMSYN100AAXX  12004 82571 21497 61802 10246 20236 39928 40127 7026/ 82240 333 10284 29090 55011 59003 69911;
0173825710999992001011212004-05500-045260FM-12+017499999V0203601N001010042019N0100001N1+02401+02301101401ADDAA124000191GF108991081051004501999999KA1240N+02141MA1999999099411MD1999999-0031REMSYN082AAXX  12124 82571 22497 83602 10240 20230 39941 40140 885// 333 20214 59003 69914;
0167825710999992001011218004-05500-045260FM-12+017499999V0202301N001010450019N0100001N1+02981+02231101001ADDAA199000091GF107991041021008001011001MA1999999099041MD1999999-0121REMSYN070AAXX  12184 82571 32597 72302 10298 20223 39904 40100 84210 333 59012;EQDQ01  00002PRCP99
0213825710999992001011300004-05500-045260FM-12+017499999V0200501N001010450019N0040001N1+02211+02171101381ADDAA106021191AY191061AY261061GF108991031071004501021999KA1240M+03071MA1999999099381MD1999999+0101MW1911REMSYN100AAXX  13004 82571 21496 80502 10221 20217 39938 40138 79196 8372/ 333 10307 29088 55043 58010 60211;
0193825710999992001011312004-05500-045260FM-12+017499999V0201401N001010090019N0100001N1+02281+02071101541ADDAA124034091AY161061GF107991071081004501001001KA1240N+01961MA1999999099531MD1999999+0121MW1021REMSYN088AAXX  13124 82571 21497 71402 10228 20207 39953 40154 7026/ 87800 333 20196 58012 60344;
0167825710999992001011318004-05500-045260FM-12+017499999V0200501N001010120019N0100001N1+02741+02211101131ADDAA199000091GF107991051081008001011001MA1999999099151MD1999999+0111REMSYN070AAXX  13184 82571 32597 70502 10274 20221 39915 40113 85810 333 58011;EQDQ01  00002PRCP99
0198825710999992001011400004-05500-045260FM-12+017499999V0200901N001012200019N0100001N1+02361+02131101291ADDAA199000091GF101991011001017501041001KA1240M+02801MA1999999099291MD1999999-0081REMSYN088AAXX  14004 82571 32797 10902 10236 20213 39929 40129 81040 333 10280 29084 55005 59008;EQDQ01  00002PRCP99
0186825710999992001011412004-05500-045260FM-12+017499999V0202301N001010450019N0100001N1+02321+02221101431ADDAA199000091GF107991041051004501051001KA1240N+01941MA1999999099431MD1999999-0101REMSYN076AAXX  14124 82571 32497 72302 10232 20222 39943 40143 84550 333 20194 59010;EQDQ01  00002PRCP99
0167825710999992001011418004-05500-045260FM-12+017499999V0203601N001012200019N0100001N1+03091+02291101011ADDAA199000091GF105991041021008001001011MA1999999099051MD1999999-0101REMSYN070AAXX  14184 82571 32597 53602 10309 20229 39905 40101 84201 333 59010;EQDQ01  00002PRCP99
0205825710999992001011500004-05500-045260FM-12+017499999V0201401N001010042019N0100001N1+02591+02371101181ADDAA106007991AY161061GF108991081051004501999999KA1240M+03171MA1999999099201MD1999999-0091MW1021REMSYN100AAXX  15004 82571 21497 81402 10259 20237 39920 40118 7026/ 885// 333 10317 29082 55056 59009 60081;
0173825710999992001011512004-05500-045260FM-12+017499999V0202301N001012200019N0100001N1+02551+02311101361ADDAA124007991GF103991031001004501031001KA1240N+02121MA1999999099381MD1999999-0051REMSYN082AAXX  15124 82571 22497 32302 10255 20231 39938 40136 83030 333 20212 59005 60084;
0167825710999992001011518004-05500-045260FM-12+017499999V0200901N002112200019N0100001N1+03151+02171100951ADDAA199000091GF105991041021008001001011MA1999999099001MD1999999-0051REMSYN070AAXX  15184 82571 32597 50904 10315 20217 39900 40095 84201 333 59005;EQDQ01  00002PRCP99
0210825710999992001011600004-05500-045260FM-12+017499999V0200501N001012200019N0100001N1+02701+02261101171ADDAA199000091GF102991021001017501041001KA1240M+03201MA1999999099201MD1999999+0001MW1131REMSYN094AAXX  16004 82571 31797 20502 10270 20226 39920 40117 713// 82040 333 10320 29074 55095 58000;EQDQ01  00002PRCP99
0186825710999992001011612004-05500-045260FM-12+017499999V0201401N001010042019N0100001N1+02381+02171101381ADDAA199000091GF108991081051004501999999KA1240N+02061MA1999999099401MD1999999+0021REMSYN076AAXX  16124 82571 32497 81402 10238 20217 39940 40138 885// 333 20206 58002;EQDQ01  00002PRCP99
0167825710999992001011618004-05500-045260FM-12+017499999V0201401N002110450019N0100001N1+03041+02231101011ADDAA199000091GF105991041021008001011001MA1999999099051MD1999999+0051REMSYN070AAXX  16184 82571 32597 51404 10304 20223 39905 40101 84210 333 58005;EQDQ01  00002PRCP99
0210825710999992001011700004-05500-045260FM-12+017499999V0201401N001012200019N0100001N1+02601+02311101171ADDAA199000091GF101991011001017501041001KA1240M+03131MA1999999099191MD1999999-0011MW1131REMSYN094AAXX  17004 82571 31797 11402 10260 20231 39919 40117 713// 81040 333 10313 29080 55041 59001;EQDQ01  00002PRCP99
0193825710999992001011712004-05500-045260FM-12+017499999V0202301N001010042019N0100001N1+02391+02231101321ADDAA124002091AY161061GF106991051051004501011001KA1240N+02001MA1999999099341MD1999999-0061MW1011REMSYN088AAXX  17124 82571 21497 62302 10239 20223 39934 40132 7016/ 85510 333 20200 59006 60024;
0167825710999992001011718004-05500-045260FM-12+017499999V0201401N002110450019N0100001N1+03071+02271100991ADDAA199000091GF105991031021008001011011MA1999999099041MD1999999-0011REMSYN070AAXX  17184 82571 32597 51404 10307 20227 39904 40099 83211 333 59001;EQDQ01  00002PRCP99
0210825710999992001011800004-05500-045260FM-12+017499999V0200501N001012200019N0100001N1+02621+02311101231ADDAA199000091GF102991021001017501041001KA1240M+03151MA1999999099251MD1999999+0061MW1131REMSYN094AAXX  18004 82571 31797 20502 10262 20231 39925 40123 713// 82040 333 10315 29080 55057 58006;EQDQ01  00002PRCP99
0206825710999992001011812004-05500-045260FM-12+017499999V0202301N001010042019N0100001N1+02401+02311101381ADDAA199000091AY141061GF108991081051004501999999KA1240N+02081MA1999999099401MD1999999+0061MW1021REMSYN082AAXX  18124 82571 31497 82302 10240 20231 39940 40138 7024/ 885// 333 20208 58006;EQDQ01  00002PRCP99
0167825710999992001011818004-05500-045260FM-12+017499999V0201401N002110450019N0100001N1+02991+02241101061ADDAA199000091GF107991031021008001071001MA1999999099101MD1999999+0061REMSYN070AAXX  18184 82571 32597 71404 10299 20224 39910 40106 83270 333 58006;EQDQ01  00002PRCP99
0198825710999992001011900004-05500-045260FM-12+017499999V0202701N001012200019N0100001N1+02661+02391101281ADDAA199000091GF102991021001017501071001KA1240M+03071MA1999999099301MD1999999+0051REMSYN088AAXX  19004 82571 32797 22702 10266 20239 39930 40128 82070 333 10307 29082 55018 58005;EQDQ01  00002PRCP99
0186825710999992001011912004-05500-045260FM-12+017499999V0200501N001010450019N0100001N1+02601+02391101441ADDAA199000091GF105991041021004501011001KA1240N+02061MA1999999099471MD1999999+0071REMSYN076AAXX  19124 82571 32497 50502 10260 20239 39947 40144 84210 333 20206 58007;EQDQ01  00002PRCP99
0167825710999992001011918004-05500-045260FM-12+017499999V0200901N001012200019N0100001N1+03091+02231101131ADDAA199000091GF104991021021008001011011MA1999999099171MD1999999+0071REMSYN070AAXX  19184 82571 32597 40902 10309 20223 39917 40113 82211 333 58007;EQDQ01  00002PRCP99
0228825710999992001012000004-05500-045260FM-12+017499999V0202301N002112200019N0100001N1+02561+02291101321ADDAA199000091AY191061GA1001+999999999GF100991001001999999001001KA1240M+03241MA1999999099351MD1999999+0051MW1021REMSYN088AAXX  20004 82571 31997 02304 10256 20229 39935 40132 7029/ 333 10324 29080 55089 58005;EQDQ01  00002PRCP99
0186825710999992001012012004-05500-045260FM-12+017499999V0202301N001010042019N0100001N1+02411+02311101641ADDAA199000091GF108991081051004501999999KA1240N+02081MA1999999099651MD1999999+0181REMSYN076AAXX  20124 82571 32497 82302 10241 20231 39965 40164 885// 333 20208 58018;EQDQ01  00002PRCP99
0174825710999992001012018004-05500-045260FM-12+017499999V0202701N001010450019N0100001N1+03151+02321101111ADDAA106000191AY161061GF106991041051004501071001MA1999999099151MD1999999-0021MW1021REMSYN082AAXX  20184 82571 21497 62702 10315 20232 39915 40111 7026/ 84570 333 59002 69911;
0218825710999992001012100004-05500-045260FM-12+017499999V0202701N001012200019N0100001N1+02341+02181101371ADDAA199000091AY191061GF102991021001017501041001KA1240M+03211MA1999999099381MD1999999+0031MW1021REMSYN094AAXX  21004 82571 31797 22702 10234 20218 39938 40137 7029/ 82040 333 10321 29084 55045 58003;EQDQ01  00002PRCP99
0173825710999992001012112004-05500-045260FM-12+017499999V0201401N001010042019N0100001N1+02441+02251101531ADDAA124000191GF108991081051004501999999KA1240N+02111MA1999999099541MD1999999-0111REMSYN082AAXX  21124 82571 22497 81402 10244 20225 39954 40153 885// 333 20211 59011 69914;
0179825710999992001012118004-05500-045260FM-12+017499999V0202301N003110450019N0100001N1+02741+02361101231ADDAA199000091GF107991041091004501071001MA1999999099251MD1999999+0101MW1171REMSYN076AAXX  21184 82571 31497 72306 10274 20236 39925 40123 717// 84970 333 58010;EQDQ01  00002PRCP99
0193825710999992001012200004-05500-045260FM-12+017499999V0203201N001010120019N0100001N1+02341+02241101391ADDAA106014091AY191061AY261061GF106991061081008001001001KA1240M+03041MA1999999099401MW1131REMSYN094AAXX  22004 82571 21597 63202 10234 20224 39940 40139 71396 86800 333 10304 29089 55019 60141;
0167825710999992001012218004-05500-045260FM-12+017499999V0200901N001010450019N0100001N1+02931+02331101111ADDAA199000091GF106991021021008001041011MA1999999099141MD1999999-0111REMSYN070AAXX  22184 82571 32597 60902 10293 20233 39914 40111 82241 333 59011;EQDQ01  00002PRCP99
0208825710999992001012300004-05500-045260FM-12+017499999V0209999C000012200019N0100001N1+02671+02391101331ADDAA199000091GA1001+999999999GF100991001001999999001001KA1240M+03031MA1999999099351MD1999999-0051REMSYN082AAXX  23004 82571 32997 00000 10267 20239 39935 40133 333 10303 29083 55075 59005;EQDQ01  00002PRCP99
0186825710999992001012312004-05500-045260FM-12+017499999V0200901N002110042019N0100001N1+02461+02301101571ADDAA199000091GF107991071051004501001001KA1240N+02131MA1999999099591MD1999999+0011REMSYN076AAXX  23124 82571 32497 70904 10246 20230 39959 40157 87500 333 20213 58001;EQDQ01  00002PRCP99
0167825710999992001012318004-05500-045260FM-12+017499999V0200501N003112200019N0100001N1+03061+02331101081ADDAA199000091GF104991031021008001011001MA1999999099121MD1999999-0021REMSYN070AAXX  23184 82571 32597 40506 10306 20233 39912 40108 83210 333 59002;EQDQ01  00002PRCP99
0208825710999992001012400004-05500-045260FM-12+017499999V0202301N001012200019N0100001N1+02671+02241101301ADDAA199000091GA1001+999999999GF100991001001999999001001KA1240M+03171MA1999999099321MD1999999-0031REMSYN082AAXX  24004 82571 32997 02302 10267 20224 39932 40130 333 10317 29078 55071 59003;EQDQ01  00002PRCP99
0186825710999992001012412004-05500-045260FM-12+017499999V0202301N001010042019N0100001N1+02361+02241101611ADDAA199000091GF108991081051004501999999KA1240N+02091MA1999999099621MD1999999+0031REMSYN076AAXX  24124 82571 32497 82302 10236 20224 39962 40161 885// 333 20209 58003;EQDQ01  00002PRCP99
0167825710999992001012418004-05500-045260FM-12+017499999V0202301N001010450019N0100001N1+02841+02421101241ADDAA199000091GF107991041051008001071011MA1999999099271MD1999999+0151REMSYN070AAXX  24184 82571 32597 72302 10284 20242 39927 40124 84571 333 58015;EQDQ01  00002PRCP99
0210825710999992001012500004-05500-045260FM-12+017499999V0202301N001012200019N0100001N1+02611+02421101401ADDAA199000091GF101991011031004501001001KA1240M+02931MA1999999099421MD1999999+0101MW1131REMSYN094AAXX  25004 82571 31497 12302 10261 20242 39942 40140 713// 81300 333 10293 29087 55011 58010;EQDQ01  00002PRCP99
0186825710999992001012512004-05500-045260FM-12+017499999V0201401N001010450019N0100001N1+02481+02341101521ADDAA199000091GF107991021021004501051001KA1240N+02131MA1999999099541MD1999999-0081REMSYN076AAXX  25124 82571 32497 71402 10248 20234 39954 40152 82250 333 20213 59008;EQDQ01  00002PRCP99
0167825710999992001012518004-05500-045260FM-12+017499999V0203601N004112200019N0100001N1+03041+02201101081ADDAA199000091GF103991021021008001001011MA1999999099121MD1999999-0151REMSYN070AAXX  25184 82571 32597 33608 10304 20220 39912 40108 82201 333 59015;EQDQ01  00002PRCP99
0186825710999992001012612004-05500-045260FM-12+017499999V0200501N003110042019N0100001N1+02631+02371101471ADDAA199000091GF106991061021004501001001KA1240N+02121MA1999999099491MD1999999-0051REMSYN076AAXX  26124 82571 32497 60506 10263 20237 39949 40147 86200 333 20212 59005;EQDQ01  00002PRCP99
0167825710999992001012618004-05500-045260FM-12+017499999V0200501N001012200019N0100001N1+03091+02361101051ADDAA199000091GF104991041021008001001001MA1999999099091MD1999999+0031REMSYN070AAXX  26184 82571 32597 40502 10309 20236 39909 40105 84200 333 58003;EQDQ01  00002PRCP99
0218825710999992001012700004-05500-045260FM-12+017499999V0203601N001012200019N0100001N1+02561+02291101251ADDAA199000091AY191061GF102991021001017501041001KA1240M+03181MA1999999099281MD1999999-0091MW1131REMSYN094AAXX  27004 82571 31797 23602 10256 20229 39928 40125 7139/ 82040 333 10318 29080 55081 59009;EQDQ01  00002PRCP99
0186825710999992001012712004-05500-045260FM-12+017499999V0200501N002110042019N0100001N1+02471+02341101421ADDAA199000091GF108991081051004501999999KA1240N+02121MA1999999099441MD1999999-0051REMSYN076AAXX  27124 82571 32497 80504 10247 20234 39944 40142 885// 333 20212 59005;EQDQ01  00002PRCP99
0167825710999992001012718004-05500-045260FM-12+017499999V0203201N001012200019N0100001N1+03111+02331101051ADDAA199000091GF104991041021008001001001MA1999999099091MD1999999+0001REMSYN070AAXX  27184 82571 32597 43202 10311 20233 39909 40105 84200 333 58000;EQDQ01  00002PRCP99
0205825710999992001012800004-05500-045260FM-12+017499999V0200501N001012200019N0100001N1+02581+02351101261ADDAA106000191AY161061GF102991021011004501001001KA1240M+03191MA1999999099181MD1999999+0001MW1021REMSYN100AAXX  28004 82571 21497 20502 10258 20235 39918 40126 7026/ 82100 333 10319 29082 55063 58000 69911;
0173825710999992001012812004-05500-045260FM-12+017499999V0200501N003110042019N0100001N1+02571+02371101411ADDAA124000191GF107991071021004501001001KA1240N+02181MA1999999099441MD1999999+0001REMSYN082AAXX  28124 82571 22497 70506 10257 20237 39944 40141 87200 333 20218 58000 69914;
0174825710999992001012818004-05500-045260FM-12+017499999V0200901N003112200019N0100001N1+03011+02341101011ADDAA106001091AY161061GF104991031021008001011001MA1999999099051MD1999999-0041MW1011REMSYN082AAXX  28184 82571 21597 40906 10301 20234 39905 40101 7016/ 83210 333 59004 60011;
0205825710999992001012900004-05500-045260FM-12+017499999V0200901N001012200019N0100001N1+02621+02411101221ADDAA106002091AY161061GF103991031001017501051001KA1240M+03131MA1999999099251MD1999999-0031MW1021REMSYN100AAXX  29004 82571 21797 30902 10262 20241 39925 40122 7026/ 83050 333 10313 29083 55077 59003 60021;
0173825710999992001012912004-05500-045260FM-12+017499999V0202301N001010042019N0100001N1+02431+02371101391ADDAA124003091GF108991081051004501999999KA1240N+02161MA1999999099411MD1999999-0031REMSYN082AAXX  29124 82571 22497 82302 10243 20237 39941 40139 885// 333 20216 59003 60034;
0167825710999992001012918004-05500-045260FM-12+017499999V0202301N001012200019N0100001N1+03041+02311100871ADDAA199000091GF104991031021008001011001MA1999999098921MD1999999-0131REMSYN070AAXX  29184 82571 32597 42302 10304 20231 39892 40087 83210 333 59013;EQDQ01  00002PRCP99
0218825710999992001013000004-05500-045260FM-12+017499999V0202301N001012200019N0100001N1+02341+02181101101ADDAA199000091AY191061GF102991021001017501041001KA1240M+03141MA1999999099111MD1999999-0141MW1011REMSYN094AAXX  30004 82571 31797 22302 10234 20218 39911 40110 7019/ 82040 333 10314 29086 55057 59014;EQDQ01  00002PRCP99
0186825710999992001013012004-05500-045260FM-12+017499999V0202701N001010042019N0100001N1+02391+02281101281ADDAA199000091GF108991081051004501999999KA1240N+02041MA1999999099291MD1999999-0121REMSYN076AAXX  30124 82571 32497 82702 10239 20228 39929 40128 885// 333 20204 59012;EQDQ01  00002PRCP99
0218825710999992001013100004-05500-045260FM-12+017499999V0203201N002110075019N0100001N1+02481+02361101111ADDAA199000091AY191061GF106991061021008001001001KA1240M+03101MA1999999099131MD1999999+0021MW1021REMSYN094AAXX  31004 82571 31597 63204 10248 20236 39913 40111 7029/ 86200 333 10310 29086 55014 58002;EQDQ01  00002PRCP99
0201825710999992001013112004-05500-045260FM-12+017499999V0202301N001010450019N0100001N1+02221+02191101401ADDAA124026991AY191061AY261061GF108991031071004501021999KA1240N+02051MA1999999099401MD1999999+0111MW1911REMSYN088AAXX  31124 82571 21497 82302 10222 20219 39940 40140 79196 8372/ 333 20205 58011 60274;
0148825710999992001013118004-05500-045260FM-12+017499999V0202701N001010450019N0100001N1+02861+02331100991ADDAA199000021GF106991031021008001011011MA1999999099021MD1999999+0191REMSYN070AAXX  31184 82571 32597 62702 10286 20233 39902 40099 83211 333 58019;
0213825710999992001020100004-05500-045260FM-12+017499999V0202301N001010042019N0100001N1+02221+02141101311ADDAA106002091AY191061AY261061GF107991051051004501011001KA1240M+02971MA1999999099301MD1999999+0171MW1911REMSYN100AAXX  01004 82571 21497 72302 10222 20214 39930 40131 79196 85510 333 10297 29090 55018 58017 60021;
0173825710999992001020112004-05500-045260FM-12+017499999V0202301N002110450019N0100001N1+02321+02181101271ADDAA124002091GF105991041021004501031001KA1240N+02001MA1999999099271MD1999999-0131REMSYN082AAXX  01124 82571 22497 52304 10232 20218 39927 40127 84230 333 20200 59013 60024;
0174825710999992001020118004-05500-045260FM-12+017499999V0202701N001010450019N0100001N1+02731+02301100851ADDAA106001091AY161061GF105991031021008001071001MA1999999098881MD1999999-0141MW1021REMSYN082AAXX  01184 82571 21597 52702 10273 20230 39888 40085 7026/ 83270 333 59014 60011;
0210825710999992001020200004-05500-045260FM-12+017499999V0203201N001010450019N0100001N1+02501+02401101131ADDAA199000091GF105991031021008001071001KA1240M+02841MA1999999099141MD1999999-0161MW1131REMSYN094AAXX  02004 82571 31597 53202 10250 20240 39914 40113 713// 83270 333 10284 29089 55033 59016;EQDQ01  00002PRCP99
0174825710999992001020218004-05500-045260FM-12+017499999V0202301N001010450019N0100001N1+02881+02301100861ADDAA106000191AY161061GF106991041021008001011001MA1999999098901MD1999999+0021MW1021REMSYN082AAXX  02184 82571 21597 62302 10288 20230 39890 40086 7026/ 84210 333 58002 69921;
0192825710999992001020312004-05500-045260FM-12+017499999V0200501N001010075019N0100001N1+02441+02251101341ADDAA124018091GF108991999051008001001001KA1240N+01981MA1999999099351MD1999999+0021REMSYN082AAXX  03124 82571 22597 80502 10244 20225 39935 40134 86500 333 20198 58002 60184;EQDQ01+000062SCOTLC
0167825710999992001020318004-05500-045260FM-12+017499999V0200501N001012200019N0100001N1+02991+02271100921ADDAA199000091GF104991041021008001001001MA1999999098951MD1999999+0051REMSYN070AAXX  03184 82571 32597 40502 10299 20227 39895 40092 84200 333 58005;EQDQ01  00002PRCP99
0198825710999992001020400004-05500-045260FM-12+017499999V0203201N003110075019N0100001N1+02541+02311101121ADDAA199000091GF105991051041008001001001KA1240M+03111MA1999999099141MD1999999-0051REMSYN088AAXX  04004 82571 32597 53206 10254 20231 39914 40112 85400 333 10311 29082 55072 59005;EQDQ01  00002PRCP99
0186825710999992001020412004-05500-045260FM-12+017499999V0203601N003110450019N0100001N1+02521+02311101381ADDAA199000091GF106991041051008001031001KA1240N+02081MA1999999099401MD1999999+0051REMSYN076AAXX  04124 82571 32597 63606 10252 20231 39940 40138 84530 333 20208 58005;EQDQ01  00002PRCP99
0174825710999992001020418004-05500-045260FM-12+017499999V0200501N003110450019N0100001N1+02921+02451101021ADDAA106000591AY161061GF106991031051008001031011MA1999999099051MD1999999+0101MW1031REMSYN082AAXX  04184 82571 21597 60506 10292 20245 39905 40102 7036/ 83531 333 58010 69961;
0213825710999992001020500004-05500-045260FM-12+017499999V0202301N000510042019N0100001N1+02381+02241101291ADDAA106003091AY191061AY261061GF108991081051004501999999KA1240M+02991MA1999999099301MD1999999+0161MW1021REMSYN100AAXX  05004 82571 21497 82301 10238 20224 39930 40129 70296 885// 333 10299 29087 55050 58016 60031;
0179825710999992001020512004-05500-045260FM-12+017499999V0200901N001010450019N0100001N1+02421+02351101441ADDAA124004191AY161061GF105991041021004501011001KA1240N+02061MA1999999099451MW1011REMSYN088AAXX  05124 82571 21497 50902 10242 20235 39945 40144 7016/ 84210 333 20206 50805 60044;
0167825710999992001020518004-05500-045260FM-12+017499999V0201801N002112200019N0100001N1+03061+02351101001ADDAA199000091GF104991031021008001011001MA1999999099041MD1999999-0011REMSYN070AAXX  05184 82571 32597 41804 10306 20235 39904 40100 83210 333 59001;EQDQ01  00002PRCP99
0210825710999992001020600004-05500-045260FM-12+017499999V0201801N003110450019N0100001N1+02721+02451101341ADDAA199000091GF105991031031004501011001KA1240M+03171MA1999999099361MD1999999+0061MW1171REMSYN094AAXX  06004 82571 31497 51806 10272 20245 39936 40134 717// 83310 333 10317 29083 55077 58006;EQDQ01  00002PRCP99
0201825710999992001020612004-05500-045260FM-12+017499999V0202301N001010042019N0100001N1+02351+02261101491ADDAA124004191AY191061AY261061GF107991071051004501001001KA1240N+01981MA1999999099511MD1999999+0061MW1011REMSYN088AAXX  06124 82571 21497 72302 10235 20226 39951 40149 70196 87500 333 20198 58006 60044;
0167825710999992001020618004-05500-045260FM-12+017499999V0200501N001012200019N0100001N1+03101+02291100991ADDAA199000091GF104991031021008001001011MA1999999099031MD1999999-0011REMSYN070AAXX  06184 82571 32597 40502 10310 20229 39903 40099 83201 333 59001;EQDQ01  00002PRCP99
0210825710999992001020700004-05500-045260FM-12+017499999V0202701N001012200019N0100001N1+02621+02461101151ADDAA199000091GF102991021001017501041001KA1240M+03181MA1999999099171MD1999999-0191MW1131REMSYN094AAXX  07004 82571 31797 22702 10262 20246 39917 40115 713// 82040 333 10318 29084 55071 59019;EQDQ01  00002PRCP99
0186825710999992001020712004-05500-045260FM-12+017499999V0203201N001010042019N0100001N1+02481+02361101371ADDAA199000091GF108991081051004501999999KA1240N+02141MA1999999099391MD1999999-0121REMSYN076AAXX  07124 82571 32497 83202 10248 20236 39939 40137 885// 333 20214 59012;EQDQ01  00002PRCP99
0167825710999992001020718004-05500-045260FM-12+017499999V0203601N002112200019N0100001N1+03101+02311100981ADDAA199000091GF104991031021008001001011MA1999999099031MD1999999+0001REMSYN070AAXX  07184 82571 32597 43604 10310 20231 39903 40098 83201 333 58000;EQDQ01  00002PRCP99
0198825710999992001020800004-05500-045260FM-12+017499999V0203201N001012200019N0100001N1+02711+02451101091ADDAA199000091GF101991011001017501031001KA1240M+03161MA1999999099121MD1999999-0051REMSYN088AAXX  08004 82571 32797 13202 10271 20245 39912 40109 81030 333 10316 29082 55080 59005;EQDQ01  00002PRCP99
0180825710999992001020812004-05500-045260FM-12+017499999V0200501N002110042019N0100001N1+99999+99999101321ADDAA199000091GF106991061021004501001001KA1240N+02181MA1999999099351MD1999999-0041REMSYN070AAXX  08124 82571 32497 60504 20237 39935 40132 86200 333 20218 59004;EQDQ01  00002PRCP99
0167825710999992001020818004-05500-045260FM-12+017499999V0200501N001012200019N0100001N1+03181+02251100911ADDAA199000091GF103991031021008001001001MA1999999098961MD1999999-0071REMSYN070AAXX  08184 82571 32597 30502 10318 20225 39896 40091 83200 333 59007;EQDQ01  00002PRCP99
0193825710999992001020912004-05500-045260FM-12+017499999V0202301N001010450019N0100001N1+02321+02241101221ADDAA124002091AY161061GF106991031021004501031001KA1240N+02061MA1999999099241MD1999999-0111MW1011REMSYN088AAXX  09124 82571 21497 62302 10232 20224 39924 40122 7016/ 83230 333 20206 59011 60024;
0167825710999992001020918004-05500-045260FM-12+017499999V0201801N002110450019N0100001N1+03041+02331100731ADDAA199000091GF105991031051008001011001MA1999999098781MD1999999-0181REMSYN070AAXX  09184 82571 32597 51804 10304 20233 39878 40073 83510 333 59018;EQDQ01  00002PRCP99
0210825710999992001021000004-05500-045260FM-12+017499999V0200501N004110042019N0100001N1+02391+02151101131ADDAA199000091GF107991071051004501001001KA1240M+03111MA1999999099141MD1999999+0111MW1131REMSYN094AAXX  10004 82571 31497 70508 10239 20215 39914 40113 713// 87500 333 10311 29083 55043 58011;EQDQ01  00002PRCP99
0186825710999992001021012004-05500-045260FM-12+017499999V0201401N001010042019N0100001N1+02481+02191101251ADDAA199000091GF107991071021004501001001KA1240N+02031MA1999999099261MD1999999+0021REMSYN076AAXX  10124 82571 32497 71402 10248 20219 39926 40125 87200 333 20203 58002;EQDQ01  00002PRCP99
0198825710999992001021100004-05500-045260FM-12+017499999V0202301N001012200019N0100001N1+02681+02431101071ADDAA199000091GF103991031001017501041001KA1240M+03081MA1999999099101MD1999999-0041REMSYN088AAXX  11004 82571 32797 32302 10268 20243 39910 40107 83040 333 10308 29081 55068 59004;EQDQ01  00002PRCP99
0186825710999992001021112004-05500-045260FM-12+017499999V0202301N001010450019N0100001N1+02381+02281101361ADDAA199000091GF106991031021004501031001KA1240N+02061MA1999999099381MD1999999+0121REMSYN076AAXX  11124 82571 32497 62302 10238 20228 39938 40136 83230 333 20206 58012;EQDQ01  00002PRCP99
0167825710999992001021118004-05500-045260FM-12+017499999V0200901N002112200019N0100001N1+03011+02291100941ADDAA199000091GF103991021021008001011001MA1999999098981MD1999999+0101REMSYN070AAXX  11184 82571 32597 30904 10301 20229 39898 40094 82210 333 58010;EQDQ01  00002PRCP99
0218825710999992001021200004-05500-045260FM-12+017499999V0202701N001012200019N0100001N1+02521+02341101191ADDAA199000091AY191061GF103991021021004501041001KA1240M+03121MA1999999099211MD1999999+0111MW1131REMSYN094AAXX  12004 82571 31497 32702 10252 20234 39921 40119 7139/ 82240 333 10312 29085 55046 58011;EQDQ01  00002PRCP99
0186825710999992001021212004-05500-045260FM-12+017499999V0200501N001010042019N0100001N1+02531+02401101301ADDAA199000091GF107991071021004501001001KA1240N+02121MA1999999099321MD1999999-0061REMSYN076AAXX  12124 82571 32497 70502 10253 20240 39932 40130 87200 333 20212 59006;EQDQ01  00002PRCP99
0167825710999992001021218004-05500-045260FM-12+017499999V0201401N001012200019N0100001N1+03121+02411100981ADDAA199000091GF104991031021004501001011MA1999999099031MD1999999+0051REMSYN070AAXX  12184 82571 32497 41402 10312 20241 39903 40098 83201 333 58005;EQDQ01  00002PRCP99
0213825710999992001021300004-05500-045260FM-12+017499999V0203601N004112200019N0100001N1+02521+02231101251ADDAA106000191AY191061AY261061GF103991031021004501001001KA1240M+03171MA1999999099271MD1999999+0061MW1131REMSYN100AAXX  13004 82571 21497 33608 10252 20223 39927 40125 71396 83200 333 10317 29082 55066 58006 69911;
0173825710999992001021312004-05500-045260FM-12+017499999V0200501N003110450019N0100001N1+02481+02191101251ADDAA124000191GF106991021051008001031011KA1240N+02121MA1999999099271MD1999999-0051REMSYN082AAXX  13124 82571 22597 60506 10248 20219 39927 40125 82531 333 20212 59005 69914;
0167825710999992001021318004-05500-045260FM-12+017499999V0201401N001011050019N0100001N1+03031+02231100931ADDAA199000091GF105991021021008001031011MA1999999098971MD1999999-0061REMSYN070AAXX  13184 82571 32597 51402 10303 20223 39897 40093 82231 333 59006;EQDQ01  00002PRCP99
0208825710999992001021400004-05500-045260FM-12+017499999V0201801N001012200019N0100001N1+02661+02371101111ADDAA199000091GA1001+999999999GF100991001001999999001001KA1240M+03141MA1999999099141MD1999999-0131REMSYN082AAXX  14004 82571 32997 01802 10266 20237 39914 40111 333 10314 29078 55065 59013;EQDQ01  00002PRCP99
0193825710999992001021412004-05500-045260FM-12+017499999V0202301N001010075019N0100001N1+02271+02231101331ADDAA124023191AY161061GF108991081051008001999999KA1240N+02051MA1999999099341MD1999999+0071MW1021REMSYN088AAXX  14124 82571 21597 82302 10227 20223 39934 40133 7026/ 885// 333 20205 58007 60234;
0193825710999992001021418004-05500-045260FM-12+017499999V0203601N001010075019N0100001N1+02711+02221101021ADDAA106000191AY161061GF108991999051008001001001MA1999999099041MD1999999+0071MW1011REMSYN082AAXX  14184 82571 21597 83602 10271 20222 39904 40102 7016/ 86500 333 58007 69911;EQDQ01+000062SCOTLC
0220825710999992001021500004-05500-045260FM-12+017499999V0203201N001012200019N0100001N1+02501+02291101121ADDAA199000091GA1001+999999999GF100991001001999999001001KA1240M+02791MA1999999099131MD1999999+0011MW1131REMSYN088AAXX  15004 82571 31997 03202 10250 20229 39913 40112 713// 333 10279 29087 55016 58001;EQDQ01  00002PRCP99
0173825710999992001021512004-05500-045260FM-12+017499999V0200501N001011050019N0100001N1+02561+02381101301ADDAA124000191GF105991021021008001031011KA1240N+02061MA1999999099321MD1999999-0021REMSYN082AAXX  15124 82571 22597 50502 10256 20238 39932 40130 82231 333 20206 59002 69914;
0167825710999992001021518004-05500-045260FM-12+017499999V0201801N003111050019N0100001N1+03001+02291100861ADDAA199000091GF105991021031008001031011MA1999999098901MD1999999-0141REMSYN070AAXX  15184 82571 32597 51806 10300 20229 39890 40086 82331 333 59014;EQDQ01  00002PRCP99
0208825710999992001021600004-05500-045260FM-12+017499999V0209999C000012200019N0100001N1+02561+02291101051ADDAA199000091GA1001+999999999GF100991001001999999001001KA1240M+03131MA1999999099081MD1999999-0051REMSYN082AAXX  16004 82571 32997 00000 10256 20229 39908 40105 333 10313 29082 55068 59005;EQDQ01  00002PRCP99
0186825710999992001021612004-05500-045260FM-12+017499999V0203201N001010450019N0100001N1+02501+02381101301ADDAA199000091GF106991041051008001031001KA1240N+02151MA1999999099331MD1999999+0011REMSYN076AAXX  16124 82571 32597 63202 10250 20238 39933 40130 84530 333 20215 58001;EQDQ01  00002PRCP99
0167825710999992001021618004-05500-045260FM-12+017499999V0201401N001010075019N0100001N1+02841+02241101011ADDAA199000091GF108991081051008001999999MA1999999099041MD1999999+0141REMSYN070AAXX  16184 82571 32597 81402 10284 20224 39904 40101 885// 333 58014;EQDQ01  00002PRCP99
0210825710999992001021700004-05500-045260FM-12+017499999V0201801N001010042019N0100001N1+02321+02181101191ADDAA199000091GF108991081051004501999999KA1240M+03041MA1999999099201MD1999999+0121MW1131REMSYN094AAXX  17004 82571 31497 81802 10232 20218 39920 40119 713// 885// 333 10304 29087 55020 58012;EQDQ01  00002PRCP99
0186825710999992001021712004-05500-045260FM-12+017499999V0202301N001010075019N0100001N1+02371+02281101441ADDAA199000091GF108991081051008001999999KA1240N+02111MA1999999099441MD1999999+0111REMSYN076AAXX  17124 82571 32597 82302 10237 20228 39944 40144 885// 333 20211 58011;EQDQ01  00002PRCP99
0167825710999992001021718004-05500-045260FM-12+017499999V0203601N001010450019N0100001N1+03111+02361101041ADDAA199000091GF105991031021008001031001MA1999999099081MD1999999+0041REMSYN070AAXX  17184 82571 32597 53602 10311 20236 39908 40104 83230 333 58004;EQDQ01  00002PRCP99
0213825710999992001021800004-05500-045260FM-12+017499999V0202301N001010042019N0100001N1+02451+02281101381ADDAA106002091AY191061AY261061GF108991081051004501999999KA1240M+03171MA1999999099391MD1999999+0191MW1131REMSYN100AAXX  18004 82571 21497 82302 10245 20228 39939 40138 71396 885// 333 10317 29084 55050 58019 60021;
0193825710999992001021812004-05500-045260FM-12+017499999V0200501N001010450019N0100001N1+02491+02321101541ADDAA124003091AY161061GF106991041051008001031001KA1240N+02151MA1999999099551MD1999999+0111MW1021REMSYN088AAXX  18124 82571 21597 60502 10249 20232 39955 40154 7026/ 84530 333 20215 58011 60034;
0167825710999992001021818004-05500-045260FM-12+017499999V0200501N001010450019N0100001N1+02901+02171101221ADDAA199000091GF106991041051008001031001MA1999999099251MD1999999+0171REMSYN070AAXX  18184 82571 32597 60502 10290 20217 39925 40122 84530 333 58017;EQDQ01  00002PRCP99
0208825710999992001021900004-05500-045260FM-12+017499999V0200501N001012200019N0100001N1+02541+02361101371ADDAA199000091GA1001+999999999GF100991001001999999001001KA1240M+02991MA1999999099391MD1999999+0001REMSYN082AAXX  19004 82571 32997 00502 10254 20236 39939 40137 333 10299 29084 55041 58000;EQDQ01  00002PRCP99
0201825710999992001021912004-05500-045260FM-12+017499999V0201801N001010042019N0100001N1+02341+02261101511ADDAA124014091AY191061AY261061GF107991071051004501001001KA1240N+02061MA1999999099521MD1999999-0031MW1601REMSYN088AAXX  19124 82571 21497 71802 10234 20226 39952 40151 76096 87500 333 20206 59003 60144;
0148825710999992001021918004-05500-045260FM-12+017499999V0201401N001010075019N0100001N1+02861+02261101281ADDAA199000021GF107991061021008001051001MA1999999099311MD1999999+0061REMSYN070AAXX  19184 82571 32597 71402 10286 20226 39931 40128 86250 333 58006;
0179825710999992001022000004-05500-045260FM-12+017499999V0202701N001012200019N0100001N1+02541+02381101381ADDAA199000021GF101991011021004501001001KA1240M+02921MA1999999099391MD1999999+0001REMSYN088AAXX  20004 82571 32497 12702 10254 20238 39939 40138 81200 333 10292 29087 55003 58000;
0193825710999992001022012004-05500-045260FM-12+017499999V0202701N001010042019N0100001N1+02411+02301101501ADDAA124002091AY161061GF108991081051004501999999KA1240N+02151MA1999999099511MD1999999-0011MW1021REMSYN088AAXX  20124 82571 21497 82702 10241 20230 39951 40150 7026/ 885// 333 20215 59001 60024;
0167825710999992001022018004-05500-045260FM-12+017499999V0201401N001010450019N0100001N1+02961+02231101031ADDAA199000091GF105991031021008001031001MA1999999099071MD1999999-0241REMSYN070AAXX  20184 82571 32597 51402 10296 20223 39907 40103 83230 333 59024;EQDQ01  00002PRCP99
0198825710999992001022100004-05500-045260FM-12+017499999V0201401N004112200019N0100001N1+02461+02171101361ADDAA199000091GF104991041021004501001001KA1240M+03041MA1999999099371MD1999999-0021REMSYN088AAXX  21004 82571 32497 41408 10246 20217 39937 40136 84200 333 10304 29082 55025 59002;EQDQ01  00002PRCP99
0186825710999992001022112004-05500-045260FM-12+017499999V0201401N001010042019N0100001N1+02381+02241101301ADDAA199000091GF108991081051004501999999KA1240N+02051MA1999999099311MD1999999-0201REMSYN076AAXX  21124 82571 32497 81402 10238 20224 39931 40130 885// 333 20205 59020;EQDQ01  00002PRCP99
0174825710999992001022118004-05500-045260FM-12+017499999V0203601N002110450019N0100001N1+02781+02341101001ADDAA106000591AY161061GF106991031021008001071001MA1999999099031MD1999999-0041MW1021REMSYN082AAXX  21184 82571 21597 63604 10278 20234 39903 40100 7026/ 83270 333 59004 69941;
0198825710999992001022200004-05500-045260FM-12+017499999V0201801N001012200019N0100001N1+02541+02351101151ADDAA199000091GF103991031021008001001001KA1240M+02921MA1999999099171MD1999999-0201REMSYN088AAXX  22004 82571 32597 31802 10254 20235 39917 40115 83200 333 10292 29087 55022 59020;EQDQ01  00002PRCP99
0193825710999992001022212004-05500-045260FM-12+017499999V0202301N001012200019N0100001N1+02401+02231101281ADDAA124006191AY161061GF104991031021004501031001KA1240N+02031MA1999999099291MD1999999-0021MW1011REMSYN088AAXX  22124 82571 21497 42302 10240 20223 39929 40128 7016/ 83230 333 20203 59002 60064;
0174825710999992001022218004-05500-045260FM-12+017499999V0201401N002112200019N0100001N1+02941+02381100891ADDAA106000191AY161061GF104991031021008001001011MA1999999098931MD1999999-0101MW1031REMSYN082AAXX  22184 82571 21597 41404 10294 20238 39893 40089 7036/ 83201 333 59010 69911;
0198825710999992001022300004-05500-045260FM-12+017499999V0200901N001012200019N0100001N1+02621+02421101051ADDAA199000091GF102991021001017501011001KA1240M+03051MA1999999099071MD1999999-0101REMSYN088AAXX  23004 82571 32797 20902 10262 20242 39907 40105 82010 333 10305 29085 55077 59010;EQDQ01  00002PRCP99
0193825710999992001022312004-05500-045260FM-12+017499999V0202301N001010075019N0100001N1+02151+02091101341ADDAA124016091AY161061GF108991081051008001999999KA1240N+01921MA1999999099351MD1999999+0061MW1021REMSYN088AAXX  23124 82571 21597 82302 10215 20209 39935 40134 7026/ 885// 333 20192 58006 60164;
0167825710999992001022318004-05500-045260FM-12+017499999V0200501N001010450019N0100001N1+02801+02381101051ADDAA199000091GF106991031051008001031011MA1999999099091MD1999999+0161REMSYN070AAXX  23184 82571 32597 60502 10280 20238 39909 40105 83531 333 58016;EQDQ01  00002PRCP99
0208825710999992001022400004-05500-045260FM-12+017499999V0200501N001012200019N0100001N1+02521+02421101181ADDAA199000091GA1001+999999999GF100991001001999999001001KA1240M+02891MA1999999099191MD1999999+0021REMSYN082AAXX  24004 82571 32997 00502 10252 20242 39919 40118 333 10289 29090 55021 58002;EQDQ01  00002PRCP99
0193825710999992001022412004-05500-045260FM-12+017499999V0203201N001010450019N0100001N1+02321+02091101311ADDAA124003091AY161061GF106991021051008001031011KA1240N+01951MA1999999099321MD1999999-0031MW1011REMSYN088AAXX  24124 82571 21597 63202 10232 20209 39932 40131 7016/ 82531 333 20195 59003 60034;
0167825710999992001022418004-05500-045260FM-12+017499999V0200501N001010450019N0100001N1+03041+02451100911ADDAA199000091GF106991031021008001031001MA1999999098951MD1999999-0141REMSYN070AAXX  24184 82571 32597 60502 10304 20245 39895 40091 83230 333 59014;EQDQ01  00002PRCP99
0213825710999992001022500004-05500-045260FM-12+017499999V0203201N000510042019N0100001N1+02311+02151101111ADDAA106002091AY191061AY261061GF108991081051004501999999KA1240M+03151MA1999999099121MD1999999-0071MW1131REMSYN100AAXX  25004 82571 21497 83201 10231 20215 39912 40111 71396 885// 333 10315 29084 55049 59007 60021;
0193825710999992001022512004-05500-045260FM-12+017499999V0202701N001012200019N0100001N1+02481+02231101271ADDAA124003091AY161061GF106991031001017501031011KA1240N+02001MA1999999099281MD1999999-0041MW1011REMSYN088AAXX  25124 82571 21797 62702 10248 20223 39928 40127 7016/ 83031 333 20200 59004 60034;
0210825710999992001022600004-05500-045260FM-12+017499999V0202301N001010075019N0100001N1+02461+02361100881ADDAA199000091GF108991081051008001999999KA1240M+03041MA1999999098901MD1999999-0221MW1131REMSYN094AAXX  26004 82571 31597 82302 10246 20236 39890 40088 713// 885// 333 10304 29085 55066 59022;EQDQ01  00002PRCP99
0173825710999992001022612004-05500-045260FM-12+017499999V0202701N001010075019N0100001N1+02421+02231101261ADDAA124000191GF108991081051008001999999KA1240N+02011MA1999999099271MD1999999-0011REMSYN082AAXX  26124 82571 22597 82702 10242 20223 39927 40126 885// 333 20201 59001 69914;
0174825710999992001022618004-05500-045260FM-12+017499999V0203201N001010450019N0100001N1+02861+02351100901ADDAA106000191AY161061GF106991031051008001031011MA1999999098941MD1999999+0111MW1031REMSYN082AAXX  26184 82571 21597 63202 10286 20235 39894 40090 7036/ 83531 333 58011 69911;
0205825710999992001022700004-05500-045260FM-12+017499999V0202301N001010042019N0100001N1+02451+02211101151ADDAA106001091AY161061GF108991081051004501999999KA1240M+02891MA1999999099171MD1999999+0271MW1021REMSYN100AAXX  27004 82571 21497 82302 10245 20221 39917 40115 7026/ 885// 333 10289 29084 55003 58027 60011;
0193825710999992001022712004-05500-045260FM-12+017499999V0201801N001010075019N0100001N1+02361+02221101331ADDAA124002091AY161061GF108991081051008001999999KA1240N+01981MA1999999099341MD1999999+0071MW1031REMSYN088AAXX  27124 82571 21597 81802 10236 20222 39934 40133 7036/ 885// 333 20198 58007 60024;
0167825710999992001022718004-05500-045260FM-12+017499999V0202301N001012200019N0100001N1+02921+02341100961ADDAA199000091GF104991021021008001031001MA1999999098991MD1999999-0051REMSYN070AAXX  27184 82571 32597 42302 10292 20234 39899 40096 82230 333 59005;EQDQ01  00002PRCP99
0210825710999992001022800004-05500-045260FM-12+017499999V0200501N001010150019N0100001N1+02651+02351101171ADDAA199000091GF105991051001017501031001KA1240M+03071MA1999999099191MD1999999+0021MW1131REMSYN094AAXX  28004 82571 31797 50502 10265 20235 39919 40117 713// 85030 333 10307 29082 55042 58002;EQDQ01  00002PRCP99
0167825710999992001022812004-05500-045260FM-12+017499999V0202301N001019999999N0100001N1+02321+02251101381ADDAA124003091AY161061KA1240N+02111MA1999999099401MD1999999+0061MW1021REMSYN088AAXX  28124 82571 21597 /2302 10232 20225 39940 40138 7026/ 885// 333 20211 58006 60034;
0167825710999992001022818004-05500-045260FM-12+017499999V0202301N001012200019N0100001N1+03041+02431100941ADDAA199000091GF105991041021008001001011MA1999999098981MD1999999-0011REMSYN070AAXX  28184 82571 32597 52302 10304 20243 39898 40094 84201 333 59001;EQDQ01  00002PRCP99
0213825710999992001030100004-05500-045260FM-12+017499999V0201401N001010042019N0100001N1+02411+02371101151ADDAA106019191AY191061AY261061GF108991081051004501999999KA1240M+03171MA1999999099161MD1999999-0031MW1611REMSYN100AAXX  01004 82571 21497 81402 10241 20237 39916 40115 76196 885// 333 10317 29090 55036 59003 60191;
0193825710999992001030112004-05500-045260FM-12+017499999V0201401N001010075019N0100001N1+02311+02241101401ADDAA124050091AY161061GF108991081051008001999999KA1240N+02061MA1999999099401MD1999999+0001MW1021REMSYN088AAXX  01124 82571 21597 81402 10231 20224 39940 40140 7026/ 885// 333 20206 58000 60504;
0167825710999992001030118004-05500-045260FM-12+017499999V0203601N001010450019N0100001N1+02921+02361101031ADDAA199000091GF106991021021008001031011MA1999999099061MD1999999+0081REMSYN070AAXX  01184 82571 32597 63602 10292 20236 39906 40103 82231 333 58008;EQDQ01  00002PRCP99
0213825710999992001030200004-05500-045260FM-12+017499999V0200501N001010075019N0100001N1+02581+02441101151ADDAA106000191AY101061AY261061GF106991061061008001001001KA1240M+03181MA1999999099271MD1999999+0011MW1131REMSYN100AAXX  02004 82571 21597 60502 10258 20244 39927 40115 71306 86600 333 10318 29088 55031 58001 69921;
0173825710999992001030212004-05500-045260FM-12+017499999V0202301N001010075019N0100001N1+02431+02391101431ADDAA124000191GF108991081051008001999999KA1240N+02131MA1999999099451MD1999999+0051REMSYN082AAXX  02124 82571 22597 82302 10243 20239 39945 40143 885// 333 20213 58005 69924;
0174825710999992001030218004-05500-045260FM-12+017499999V0203601N001010075019N0100001N1+02661+02411101131ADDAA106000191AY161061GF108991081051008001999999MA1999999099151MD1999999+0091MW1021REMSYN082AAXX  02184 82571 21597 83602 10266 20241 39915 40113 7026/ 885// 333 58009 69911;
0198825710999992001030300004-05500-045260FM-12+017499999V0201801N001010075019N0100001N1+02361+02331101291ADDAA199000091GF108991081071008001999999KA1240M+02881MA1999999099301MD1999999+0131REMSYN088AAXX  03004 82571 32597 81802 10236 20233 39930 40129 887// 333 10288 29094 5505/ 58013;EQDQ01  00002PRCP99
0201825710999992001030312004-05500-045260FM-12+017499999V0202301N001010075019N0100001N1+02341+02291101531ADDAA124013091AY191061AY261061GF108991081051008001999999KA1240N+02111MA1999999099531MD1999999+0081MW1601REMSYN088AAXX  03124 82571 21597 82302 10234 20229 39953 40153 76096 885// 333 20211 58008 60134;
0148825710999992001030318004-05500-045260FM-12+017499999V0202301N001012200019N0100001N1+02841+02461101181ADDAA199000021GF106991041051008001001011MA1999999099201MD1999999+0051REMSYN070AAXX  03184 82571 32597 62302 10284 20246 39920 40118 84501 333 58005;
0236825710999992001030400004-05500-045260FM-12+017499999V0203201N001012200019N0100001N1+02591+02551101291ADDAA106002091AY161061AY211061GA1001+999999999GF100991001001999999001001KA1240M+03161MA1999999099301MD1999999+0001REMSYN094AAXX  04004 82571 21597 03202 10259 20255 39930 40129 76361 333 10316 29093 55024 58000 60021;EQDQ01+000632PRSWM1
0193825710999992001030412004-05500-045260FM-12+017499999V0203201N001012200019N0100001N1+02561+02491101391ADDAA124002091AY141061GF106991041021008001001011KA1240N+02141MA1999999099411MD1999999-0121MW1011REMSYN088AAXX  04124 82571 21597 63202 10256 20249 39941 40139 7014/ 84201 333 20214 59012 60024;
0167825710999992001030418004-05500-045260FM-12+017499999V0201801N001012200019N0100001N1+03191+02481101011ADDAA199000091GF103991031021008001001001MA1999999099061MD1999999-0141REMSYN070AAXX  04184 82571 32597 31802 10319 20248 39906 40101 83200 333 59014;EQDQ01  00002PRCP99
0210825710999992001030500004-05500-045260FM-12+017499999V0202301N001012200019N0100001N1+02571+02291101281ADDAA199000091GF102991021001017501031001KA1240M+03271MA1999999099301MD1999999+0001MW1131REMSYN094AAXX  05004 82571 31797 22302 10257 20229 39930 40128 713// 82030 333 10327 29082 55073 58000;EQDQ01  00002PRCP99
0186825710999992001030512004-05500-045260FM-12+017499999V0200501N001012200019N0100001N1+02531+02441101391ADDAA199000091GF103991031021004501001001KA1240N+02061MA1999999099411MD1999999+0001REMSYN076AAXX  05124 82571 32497 30502 10253 20244 39941 40139 83200 333 20206 58000;EQDQ01  00002PRCP99
0182825710999992001030518004-05500-045260FM-12+017499999V0201401N002110450019N0100001N1+02951+02511100971ADDAA106007191AY191061AY261061GF105991031051004501041001MA1999999099011MD1999999-0051MW1171REMSYN082AAXX  05184 82571 21497 51404 10295 20251 39901 40097 71796 83540 333 59005 60071;
0218825710999992001030600004-05500-045260FM-12+017499999V0201801N001012200019N0100001N1+02391+02311101181ADDAA199000091AY191061GF102991021001017501041001KA1240M+03051MA1999999099201MD1999999-0101MW1131REMSYN094AAXX  06004 82571 31797 21802 10239 20231 39920 40118 7139/ 82040 333 10305 29090 55053 59010;EQDQ01  00002PRCP99
0173825710999992001030612004-05500-045260FM-12+017499999V0202301N001010450019N0100001N1+02391+02351101501ADDAA124007191GF106991031021004501011001KA1240N+02021MA1999999099511MD1999999+0101REMSYN082AAXX  06124 82571 22497 62302 10239 20235 39951 40150 83210 333 20202 58010 60074;
0167825710999992001030618004-05500-045260FM-12+017499999V0200901N002111050019N0100001N1+03071+02371101091ADDAA199000091GF105991021021008001041011MA1999999099131MD1999999+0121REMSYN070AAXX  06184 82571 32597 50904 10307 20237 39913 40109 82241 333 58012;EQDQ01  00002PRCP99
0198825710999992001030700004-05500-045260FM-12+017499999V0209999C000012200019N0100001N1+02711+02481101271ADDAA199000091GF102991011011008001011001KA1240M+03171MA1999999099291MD1999999+0091REMSYN088AAXX  07004 82571 32597 20000 10271 20248 39929 40127 81110 333 10317 29084 55063 58009;EQDQ01  00002PRCP99
0206825710999992001030712004-05500-045260FM-12+017499999V0202301N001010450019N0100001N1+02481+02411101541ADDAA199000091AY141061GF107991041021004501051001KA1240N+02141MA1999999099561MD1999999+0051MW1021REMSYN082AAXX  07124 82571 31497 72302 10248 20241 39956 40154 7024/ 84250 333 20214 58005;EQDQ01  00002PRCP99
0152825710999992001030718004-05500-045260FM-12+017499999V0202301N001010450019N0100001N1+02691+02391101201ADDAA106001091GF106991041051004501041001MA1999999099221MW1951REMSYN082AAXX  07184 82571 21497 62302 10269 20239 39922 40120 795// 84540 333 5809/ 60011;
0173825710999992001030812004-05500-045260FM-12+017499999V0200501N002110042019N0100001N1+02491+02311101531ADDAA124001091GF106991051021004501031001KA1240N+02111MA1999999099541MD1999999-0021REMSYN082AAXX  08124 82571 22497 60504 10249 20231 39954 40153 85230 333 20211 59002 60014;
0167825710999992001030818004-05500-045260FM-12+017499999V0200501N002112200019N0100001N1+03121+02331101161ADDAA199000091GF103991021021008001011001MA1999999099201MD1999999-0021REMSYN070AAXX  08184 82571 32597 30504 10312 20233 39920 40116 82210 333 59002;EQDQ01  00002PRCP99
0198825710999992001030900004-05500-045260FM-12+017499999V0200501N001012200019N0100001N1+02451+02231101281ADDAA199000091GF102991021001017501031001KA1240M+03221MA1999999099291MD1999999-0181REMSYN088AAXX  09004 82571 32797 20502 10245 20223 39929 40128 82030 333 10322 29082 55068 59018;EQDQ01  00002PRCP99
0186825710999992001030912004-05500-045260FM-12+017499999V0203601N002110042019N0100001N1+02631+02441101391ADDAA199000091GF106991061021004501001001KA1240N+02111MA1999999099411MD1999999-0131REMSYN076AAXX  09124 82571 32497 63604 10263 20244 39941 40139 86200 333 20211 59013;EQDQ01  00002PRCP99
0210825710999992001031000004-05500-045260FM-12+017499999V0200501N005110450019N0100001N1+02481+02301101231ADDAA199000091GF106991021011004501041001KA1240M+03161MA1999999099251MD1999999-0041MW1131REMSYN094AAXX  10004 82571 31497 60510 10248 20230 39925 40123 713// 82140 333 10316 29084 55082 59004;EQDQ01  00002PRCP99
0186825710999992001031012004-05500-045260FM-12+017499999V0200501N001010042019N0100001N1+02591+02331101301ADDAA199000091GF106991051021004501011001KA1240N+02141MA1999999099321MD1999999-0091REMSYN076AAXX  10124 82571 32497 60502 10259 20233 39932 40130 85210 333 20214 59009;EQDQ01  00002PRCP99
0167825710999992001031018004-05500-045260FM-12+017499999V0200501N002110450019N0100001N1+02991+02371100901ADDAA199000091GF105991031021008001011011MA1999999098941MD1999999+0001REMSYN070AAXX  10184 82571 32597 50504 10299 20237 39894 40090 83211 333 58000;EQDQ01  00002PRCP99
0198825710999992001031100004-05500-045260FM-12+017499999V0200501N001010150019N0100001N1+02581+02381101211ADDAA199000091GF105991051001017501071001KA1240M+03121MA1999999099241MD1999999-0011REMSYN088AAXX  11004 82571 32797 50502 10258 20238 39924 40121 85070 333 10312 29083 55082 59001;EQDQ01  00002PRCP99
0186825710999992001031112004-05500-045260FM-12+017499999V0202701N002110450019N0100001N1+02561+02351101381ADDAA199000091GF106991031021004501051001KA1240N+02201MA1999999099401MD1999999+0081REMSYN076AAXX  11124 82571 32497 62704 10256 20235 39940 40138 83250 333 20220 58008;EQDQ01  00002PRCP99
0167825710999992001031118004-05500-045260FM-12+017499999V0203201N002110450019N0100001N1+02861+02351100931ADDAA199000091GF105991031021008001041001MA1999999098971MD1999999+0031REMSYN070AAXX  11184 82571 32597 53204 10286 20235 39897 40093 83240 333 58003;EQDQ01  00002PRCP99
0210825710999992001031200004-05500-045260FM-12+017499999V0202701N001010042019N0100001N1+02561+02361101301ADDAA199000091GF106991061051004501001001KA1240M+02991MA1999999099321MD1999999+0081MW1131REMSYN094AAXX  12004 82571 31497 62702 10256 20236 39932 40130 713// 86500 333 10299 29085 55016 58008;EQDQ01  00002PRCP99
0193825710999992001031212004-05500-045260FM-12+017499999V0202301N001010042019N0100001N1+02311+02291101561ADDAA124013091AY161061GF108991081051004501999999KA1240N+02111MA1999999099571MD1999999+0171MW1611REMSYN088AAXX  12124 82571 21497 82302 10231 20229 39957 40156 7616/ 885// 333 20211 58017 60134;
0174825710999992001031218004-05500-045260FM-12+017499999V0202701N001010450019N0100001N1+02731+02431101191ADDAA106000891AY161061GF106991041031008001031001MA1999999099211MD1999999+0241MW1011REMSYN082AAXX  12184 82571 21597 62702 10273 20243 39921 40119 7016/ 84330 333 58024 69981;
0179825710999992001031300004-05500-045260FM-12+017499999V0202301N001010075019N0100001N1+02441+02301101401ADDAA199000021GF108991081051008001999999KA1240M+03091MA1999999099401MD1999999+0081REMSYN088AAXX  13004 82571 32597 82302 10244 20230 39940 40140 885// 333 10309 29091 55016 58008;
0193825710999992001031312004-05500-045260FM-12+017499999V0200501N001010075019N0100001N1+02341+02261101591ADDAA124011991AY161061GF108991081051008001999999KA1240N+02101MA1999999099591MD1999999+0021MW1611REMSYN088AAXX  13124 82571 21597 80502 10234 20226 39959 40159 7616/ 885// 333 20210 58002 60124;
0174825710999992001031318004-05500-045260FM-12+017499999V0200501N003111050019N0100001N1+02971+02281101091ADDAA106000191AY161061GF105991021021008001031011MA1999999099131MD1999999-0081MW1011REMSYN082AAXX  13184 82571 21597 50506 10297 20228 39913 40109 7016/ 82231 333 59008 69911;
0179825710999992001031400004-05500-045260FM-12+017499999V0200501N001010075019N0200001N1+02661+02401101291ADDAA199000021GF108991081051008001999999KA1240M+03021MA1999999099311MD1999999-0091REMSYN088AAXX  14004 82571 32598 80502 10266 20240 39931 40129 885// 333 10302 29083 55041 59009;
0193825710999992001031412004-05500-045260FM-12+017499999V0202301N003110075019N0100001N1+02221+02151101511ADDAA124087991AY161061GF108991081051008001999999KA1240N+02091MA1999999099521MD1999999-0071MW1631REMSYN088AAXX  14124 82571 21597 82306 10222 20215 39952 40151 7636/ 885// 333 20209 59007 60884;
0182825710999992001031418004-05500-045260FM-12+017499999V0200501N001010075019N0100001N1+02391+02301101271ADDAA106023191AY161061AY261061GF108991081051008001999999MA1999999099281MD1999999+0151MW1611REMSYN082AAXX  14184 82571 21597 80502 10239 20230 39928 40127 76166 885// 333 58015 60231;
0205825710999992001031500004-05500-045260FM-12+017499999V0201801N001010042019N0100001N1+02231+02191101221ADDAA106000191AY161061GF108991081051004501999999KA1240M+02691MA1999999099221MD1999999-0091MW1021REMSYN100AAXX  15004 82571 21497 81802 10223 20219 39922 40122 7026/ 885// 333 10269 29096 55000 59009 69911;
0193825710999992001031512004-05500-045260FM-12+017499999V0201401N001010075019N0100001N1+02381+02261101441ADDAA124023191AY161061GF108991081051008001999999KA1240N+02021MA1999999099441MD1999999-0081MW1021REMSYN088AAXX  15124 82571 21597 81402 10238 20226 39944 40144 7026/ 885// 333 20202 59008 60234;
0167825710999992001031518004-05500-045260FM-12+017499999V0201401N001012200019N0100001N1+03011+02181100881ADDAA199000091GF105991041031008001001011MA1999999098911MD1999999-0371REMSYN070AAXX  15184 82571 32597 51402 10301 20218 39891 40088 84301 333 59037;EQDQ01  00002PRCP99
0192825710999992001031600004-05500-045260FM-12+017499999V0202301N001012200019N0100001N1+02461+02341101211ADDAA199000091GA1001+999999999GF100991001001999999001001MA1999999099221MW1131REMSYN087AAXX  16004 82571 31997 02302 10246 20234 39922 40121 713// 33 10307 29085 55048 58000;EQDQ01  00002PRCP99
0193825710999992001031612004-05500-045260FM-12+017499999V0201401N001010450019N0100001N1+02491+02341101481ADDAA124008991AY161061GF106991031021008001031001KA1240N+02051MA1999999099491MD1999999+0051MW1021REMSYN088AAXX  16124 82571 21597 61402 10249 20234 39949 40148 7026/ 83230 333 20205 58005 60094;
0167825710999992001031618004-05500-045260FM-12+017499999V0203601N001010450019N0100001N1+03051+02331101011ADDAA199000091GF105991031021008001031001MA1999999099051MD1999999+0141REMSYN070AAXX  16184 82571 32597 53602 10305 20233 39905 40101 83230 333 58014;EQDQ01  00002PRCP99
0213825710999992001031700004-05500-045260FM-12+017499999V0202301N001010042019N0100001N1+02381+02351101371ADDAA106006191AY191061AY261061GF108991081051004501999999KA1240M+03111MA1999999099381MD1999999+0161MW1131REMSYN100AAXX  17004 82571 21497 82302 10238 20235 39938 40137 71396 885// 333 10311 29088 55061 58016 60061;
0193825710999992001031712004-05500-045260FM-12+017499999V0202301N001010450019N0100001N1+02431+02341101421ADDAA124007991AY161061GF106991031051008001031011KA1240N+02141MA1999999099431MD1999999-0061MW1021REMSYN088AAXX  17124 82571 21597 62302 10243 20234 39943 40142 7026/ 83531 333 20214 59006 60084;
0167825710999992001031718004-05500-045260FM-12+017499999V0200501N001010450019N0100001N1+02991+02371100981ADDAA199000091GF106991031031008001031011MA1999999099021MD1999999-0031REMSYN070AAXX  17184 82571 32597 60502 10299 20237 39902 40098 83331 333 59003;EQDQ01  00002PRCP99
0220825710999992001031800004-05500-045260FM-12+017499999V0203601N001012200019N0100001N1+02551+02421101221ADDAA199000091GA1001+999999999GF100991001001999999001001KA1240M+03051MA1999999099241MD1999999-0141MW1131REMSYN088AAXX  18004 82571 31997 03602 10255 20242 39924 40122 713// 333 10305 29087 55021 59014;EQDQ01  00002PRCP99
0193825710999992001031812004-05500-045260FM-12+017499999V0203201N001010450019N0100001N1+02441+02411101271ADDAA124000191AY141061GF106991031051008001031011KA1240N+02061MA1999999099291MD1999999-0141MW1021REMSYN088AAXX  18124 82571 21597 63202 10244 20241 39929 40127 7024/ 83531 333 20206 59014 69914;
0167825710999992001031818004-05500-045260FM-12+017499999V0201401N001010450019N0100001N1+03081+02161100831ADDAA199000091GF106991021031008001041011MA1999999098871MD1999999-0151REMSYN070AAXX  18184 82571 32597 61402 10308 20216 39887 40083 82341 333 59015;EQDQ01  00002PRCP99
0208825710999992001031900004-05500-045260FM-12+017499999V0203601N001012200019N0100001N1+02541+02381101101ADDAA199000091GA1001+999999999GF100991001001999999001001KA1240M+03161MA1999999099141MD1999999+0121REMSYN082AAXX  19004 82571 32997 03602 10254 20238 39914 40110 333 10316 29084 55047 58012;EQDQ01  00002PRCP99
0186825710999992001031912004-05500-045260FM-12+017499999V0203601N001010450019N0100001N1+02481+02361101311ADDAA199000091GF106991041021004501011001KA1240N+02061MA1999999099331MD1999999+0041REMSYN076AAXX  19124 82571 32497 63602 10248 20236 39933 40131 84210 333 20206 58004;EQDQ01  00002PRCP99
0167825710999992001031918004-05500-045260FM-12+017499999V0200901N002112200019N0100001N1+03081+02321100831ADDAA199000091GF104991021021008001011001MA1999999098871MD1999999+0001REMSYN070AAXX  19184 82571 32597 40904 10308 20232 39887 40083 82210 333 58000;EQDQ01  00002PRCP99
0210825710999992001032000004-05500-045260FM-12+017499999V0209999C000012200019N0100001N1+02701+02461101051ADDAA199000091GF102991021001017501041001KA1240M+03141MA1999999099081MD1999999-0041MW1131REMSYN094AAXX  20004 82571 31797 20000 10270 20246 39908 40105 713// 82040 333 10314 29083 55063 59004;EQDQ01  00002PRCP99
0186825710999992001032012004-05500-045260FM-12+017499999V0200501N001010450019N0100001N1+02461+02271101511ADDAA199000091GF106991031021004501031001KA1240N+02151MA1999999099531MD1999999+0201REMSYN076AAXX  20124 82571 32497 60502 10246 20227 39953 40151 83230 333 20215 58020;EQDQ01  00002PRCP99
0167825710999992001032018004-05500-045260FM-12+017499999V0200901N001012200019N0100001N1+03071+02421101071ADDAA199000091GF104991031021008001011001MA1999999099121MD1999999+0251REMSYN070AAXX  20184 82571 32597 40902 10307 20242 39912 40107 83210 333 58025;EQDQ01  00002PRCP99
0208825710999992001032100004-05500-045260FM-12+017499999V0202301N001012200019N0100001N1+02641+02351101291ADDAA199000091GA1001+999999999GF100991001001999999001001KA1240M+03171MA1999999099311MD1999999+0231REMSYN082AAXX  21004 82571 32997 02302 10264 20235 39931 40129 333 10317 29081 55042 58023;EQDQ01  00002PRCP99
0186825710999992001032112004-05500-045260FM-12+017499999V0203601N002110450019N0100001N1+02651+02411101421ADDAA199000091GF105991031021004501011001KA1240N+02091MA1999999099451MD1999999-0081REMSYN076AAXX  21124 82571 32497 53604 10265 20241 39945 40142 83210 333 20209 59008;EQDQ01  00002PRCP99
0167825710999992001032118004-05500-045260FM-12+017499999V0200901N003112200019N0100001N1+03161+02321100981ADDAA199000091GF103991021021008001011001MA1999999099031MD1999999-0091REMSYN070AAXX  21184 82571 32597 30906 10316 20232 39903 40098 82210 333 59009;EQDQ01  00002PRCP99
0205825710999992001032200004-05500-045260FM-12+017499999V0200901N001012200019N0100001N1+02741+02471101131ADDAA124000191AY161061GF101991011031004501001001KA1240M+03241MA1999999099171MD1999999-0141MW1131REMSYN100AAXX  22004 82571 21497 10902 10274 20247 39917 40113 7136/ 81300 333 10324 29079 55088 59014 69914;
0193825710999992001032212004-05500-045260FM-12+017499999V0201801N001010042019N0100001N1+02351+02281101351ADDAA100064091AY161061GF107991051051004501041001KA1240N+02161MA1999999099371MD1999999-0081MW1601REMSYN088AAXX  22124 82571 21497 71802 10235 20228 39937 40135 7606/ 85540 333 20216 59008 6064/;
0174825710999992001032218004-05500-045260FM-12+017499999V0201401N002110450019N0100001N1+03021+02341100821ADDAA106000191AY161061GF106991021021004501011011MA1999999098871MD1999999-0161MW1021REMSYN082AAXX  22184 82571 21497 61404 10302 20234 39887 40082 7026/ 82211 333 59016 69911;
0191825710999992001032300004-05500-045260FM-12+017499999V0200901N001012200019N0100001N1+02561+02421101051ADDAA199000021GF101991011001017501041001KA1240M+03071MA1999999099071MD1999999-0101MW1131REMSYN094AAXX  23004 82571 31797 10902 10256 20242 39907 40105 713// 81040 333 10307 29086 55026 59010;
0173825710999992001032312004-05500-045260FM-12+017499999V0202701N001010042019N0100001N1+02461+02341101111ADDAA124000191GF107991061021004501041001KA1240N+02111MA1999999099131MD1999999-0241REMSYN082AAXX  23124 82571 22497 72702 10246 20234 39913 40111 86240 333 20211 59024 69914;
0182825710999992001032318004-05500-045260FM-12+017499999V0202301N001010042019N0100001N1+02381+02311100821ADDAA106030091AY191061AY261061GF108991081051004501999999MA1999999098841MD1999999-0031MW1951REMSYN082AAXX  23184 82571 21497 82302 10238 20231 39884 40082 79596 885// 333 59003 60301;
0179825710999992001032400004-05500-045260FM-12+017499999V0200501N001010042019N0100001N1+02441+02391101161ADDAA199000021GF108991081051004501999999KA1240M+03091MA1999999099181MD1999999+0111REMSYN088AAXX  24004 82571 32497 80502 10244 20239 39918 40116 885// 333 10309 29096 55028 58011;
0193825710999992001032412004-05500-045260FM-12+017499999V0203201N001012200019N0100001N1+02281+02211101261ADDAA124030091AY161061GF103991021021004501031001KA1240N+01991MA1999999099271MD1999999+0141MW1011REMSYN088AAXX  24124 82571 21497 33202 10228 20221 39927 40126 7016/ 82230 333 20199 58014 60304;
0167825710999992001032418004-05500-045260FM-12+017499999V0200901N001010450019N0100001N1+03001+02491100941ADDAA199000091GF105991021021008001031001MA1999999098971MD1999999+0131REMSYN070AAXX  24184 82571 32597 50902 10300 20249 39897 40094 82230 333 58013;EQDQ01  00002PRCP99
0210825710999992001032500004-05500-045260FM-12+017499999V0200501N001012200019N0100001N1+02651+02461101211ADDAA199000091GF103991021021008001041001KA1240M+03091MA1999999099231MD1999999-0051MW1131REMSYN094AAXX  25004 82571 31597 30502 10265 20246 39923 40121 713// 82240 333 10309 29087 55043 59005;EQDQ01  00002PRCP99
0193825710999992001032512004-05500-045260FM-12+017499999V0202301N001010042019N0100001N1+02291+02201101441ADDAA124003091AY161061GF107991071051004501001001KA1240N+02051MA1999999099451MD1999999+0181MW1011REMSYN088AAXX  25124 82571 21497 72302 10229 20220 39945 40144 7016/ 87500 333 20205 58018 60034;
0167825710999992001032518004-05500-045260FM-12+017499999V0201401N002112200019N0100001N1+03041+02451101031ADDAA199000091GF103991021021008001041001MA1999999099071MD1999999+0101REMSYN070AAXX  25184 82571 32597 31404 10304 20245 39907 40103 82240 333 58010;EQDQ01  00002PRCP99
0208825710999992001032600004-05500-045260FM-12+017499999V0201801N001012200019N0100001N1+02621+02461101251ADDAA199000091GA1001+999999999GF100991001001999999001001KA1240M+03141MA1999999099261MD1999999+0031REMSYN082AAXX  26004 82571 32997 01802 10262 20246 39926 40125 333 10314 29087 55051 58003;EQDQ01  00002PRCP99
0186825710999992001032612004-05500-045260FM-12+017499999V0201401N001010450019N0100001N1+02481+02231101371ADDAA199000091GF106991031081004501041001KA1240N+02171MA1999999099391MD1999999-0061REMSYN076AAXX  26124 82571 32497 61402 10248 20223 39939 40137 83840 333 20217 59006;EQDQ01  00002PRCP99
0167825710999992001032618004-05500-045260FM-12+017499999V0202301N002110042019N0100001N1+03201+02461100881ADDAA199000091GF105991051051004501001001MA1999999098931MD1999999-0141REMSYN070AAXX  26184 82571 32497 52304 10320 20246 39893 40088 85500 333 59014;EQDQ01  00002PRCP99
0167825710999992001032718004-05500-045260FM-12+017499999V0200901N001010450019N0100001N1+03151+02451100841ADDAA199000091GF105991031021008001031001MA1999999098891MD1999999-0041REMSYN070AAXX  27184 82571 32597 50902 10315 20245 39889 40084 83230 333 59004;EQDQ01  00002PRCP99
0213825710999992001032800004-05500-045260FM-12+017499999V0200501N001010075019N0100001N1+02431+02251101151ADDAA106005191AY191061AY261061GF108991081051008001999999KA1240M+03221MA1999999099171MD1999999-0051MW1021REMSYN100AAXX  28004 82571 21597 80502 10243 20225 39917 40115 70296 885// 333 10322 29083 55082 59005 60051;
0173825710999992001032812004-05500-045260FM-12+017499999V0202301N001010450019N0100001N1+02611+02441101311ADDAA124005191GF108991041021008001031011KA1240N+02181MA1999999099331MD1999999-0091REMSYN082AAXX  28124 82571 22597 82302 10261 20244 39933 40131 84231 333 20218 59009 60054;
0213825710999992001032900004-05500-045260FM-12+017499999V0202301N001010042019N0100001N1+02301+02251101291ADDAA106008991AY191061AY261061GF108991081051004501999999KA1240M+02981MA1999999099301MD1999999+0131MW1611REMSYN100AAXX  29004 82571 21497 82302 10230 20225 39930 40129 76196 885// 333 10298 29092 55025 58013 60091;
0193825710999992001032912004-05500-045260FM-12+017499999V0202301N001010075019N0100001N1+02371+02311101501ADDAA124017091AY161061GF108991081051008001999999KA1240N+02081MA1999999099501MD1999999+0171MW1021REMSYN088AAXX  29124 82571 21597 82302 10237 20231 39950 40150 7026/ 885// 333 20208 58017 60174;
0167825710999992001032918004-05500-045260FM-12+017499999V0202701N003110075019N0100001N1+03011+02531101041ADDAA199000091GF108991081051008001999999MA1999999099081MD1999999+0081REMSYN070AAXX  29184 82571 32597 82706 10301 20253 39908 40104 885// 333 58008;EQDQ01  00002PRCP99
0197825710999992001033000004-05500-045260FM-12+017499999V0200501N001010042019N0100001N1+02321+02181101411ADDAA106000591GF108991081051004501999999KA1240M+03151MA1999999099411MD1999999+0111MW1951REMSYN100AAXX  30004 82571 21497 80502 10232 20218 39941 40141 795// 885// 333 10315 29089 55018 58011 69941;
0193825710999992001033012004-05500-045260FM-12+017499999V0202301N001010450019N0100001N1+02481+02341101481ADDAA124015091AY161061GF106991031051008001031001KA1240N+02081MA1999999099491MD1999999-0011MW1011REMSYN088AAXX  30124 82571 21597 62302 10248 20234 39949 40148 7016/ 83530 333 20208 59001 60154;
0167825710999992001033018004-05500-045260FM-12+017499999V0200501N003110450019N0100001N1+03041+02411101071ADDAA199000091GF106991041031008001031001MA1999999099111MD1999999+0031REMSYN070AAXX  30184 82571 32597 60506 10304 20241 39911 40107 84330 333 58003;EQDQ01  00002PRCP99
0213825710999992001033100004-05500-045260FM-12+017499999V0202701N001010042019N0100001N1+02351+02311101351ADDAA106004191AY191061AY261061GF108991081051004501999999KA1240M+03091MA1999999099361MD1999999-0051MW1611REMSYN100AAXX  31004 82571 21497 82702 10235 20231 39936 40135 76196 885// 333 10309 29089 55062 59005 60041;
0193825710999992001033112004-05500-045260FM-12+017499999V0201401N001010075019N0100001N1+02441+02301101321ADDAA124005191AY161061GF108991081051008001999999KA1240N+02081MA1999999099331MD1999999-0161MW1021REMSYN088AAXX  31124 82571 21597 81402 10244 20230 39933 40132 7026/ 885// 333 20208 59016 60054;
0167825710999992001033118004-05500-045260FM-12+017499999V0200901N001012200019N0100001N1+03051+02381100891ADDAA199000091GF103991021021008001001011MA1999999098931MD1999999-0181REMSYN070AAXX  31184 82571 32597 30902 10305 20238 39893 40089 82201 333 59018;EQDQ01  00002PRCP99
0198825710999992001040100004-05500-045260FM-12+017499999V0200501N003112200019N0100001N1+02601+02421101151ADDAA199000091GF102991021021008001001001KA1240M+03171MA1999999099171MD1999999-0191REMSYN088AAXX  01004 82571 32597 20506 10260 20242 39917 40115 82200 333 10317 29085 55053 59019;EQDQ01  00002PRCP99
0167825710999992001040118004-05500-045260FM-12+017499999V0200501N001012200019N0100001N1+03011+02411100981ADDAA199000091GF103991021031008001001011MA1999999099021MD1999999+0091REMSYN070AAXX  01184 82571 32597 30502 10301 20241 39902 40098 82301 333 58009;EQDQ01  00002PRCP99
0208825710999992001040200004-05500-045260FM-12+017499999V0209999C000012200019N0100001N1+02541+02421101181ADDAA199000091GA1001+999999999GF100991001001999999001001KA1240M+03111MA1999999099201MD1999999+0031REMSYN082AAXX  02004 82571 32597 00000 10254 20242 39920 40118 333 10311 29084 55086 58003;EQDQ01  00002PRCP99
0193825710999992001040212004-05500-045260FM-12+017499999V0203601N002110042019N0100001N1+02351+02241101541ADDAA124002091AY161061GF107991061051004501041001KA1240N+02051MA1999999099551MD1999999+0151MW1021REMSYN088AAXX  02124 82571 21497 73604 10235 20224 39955 40154 7026/ 86540 333 20205 58015 60024;
0167825710999992001040218004-05500-045260FM-12+017499999V0200501N002110450019N0100001N1+03051+02191101101ADDAA199000091GF105991031021008001011011MA1999999099141MD1999999+0121REMSYN070AAXX  02184 82571 32597 50504 10305 20219 39914 40110 83211 333 58012;EQDQ01  00002PRCP99
0210825710999992001040300004-05500-045260FM-12+017499999V0201401N001010450019N0100001N1+02601+02391101351ADDAA199000091GF106991021021004501031001KA1240M+03171MA1999999099371MD1999999+0171MW1131REMSYN094AAXX  03004 82571 31497 61402 10260 20239 39937 40135 713// 82230 333 10317 29082 55054 58017;EQDQ01  00002PRCP99
0193825710999992001040312004-05500-045260FM-12+017499999V0201401N002110450019N0100001N1+02441+02321101471ADDAA124014091AY161061GF106991041021004501041011KA1240N+02141MA1999999099481MD1999999-0071MW1011REMSYN088AAXX  03124 82571 21497 61404 10244 20232 39948 40147 7016/ 84241 333 20214 59007 60144;
0167825710999992001040318004-05500-045260FM-12+017499999V0201401N001010120019N0100001N1+03161+02371100951ADDAA199000091GF105991051081008001001001MA1999999099001MD1999999-0141REMSYN070AAXX  03184 82571 32597 51402 10316 20237 39900 40095 85800 333 59014;EQDQ01  00002PRCP99
0213825710999992001040400004-05500-045260FM-12+017499999V0202301N002110450019N0100001N1+02501+02361101331ADDAA106004191AY191061AY261061GF105991021021004501041001KA1240M+03231MA1999999099341MD1999999-0031MW1131REMSYN100AAXX  04004 82571 21497 52304 10250 20236 39934 40133 71396 82240 333 10323 29085 55050 59003 60041;
0193825710999992001040412004-05500-045260FM-12+017499999V0203201N001010042019N0100001N1+02381+02261101391ADDAA124004191AY161061GF107991071051004501001001KA1240N+02081MA1999999099401MD1999999-0081MW1011REMSYN088AAXX  04124 82571 21497 73202 10238 20226 39940 40139 7016/ 87500 333 20208 59008 60044;
0174825710999992001040418004-05500-045260FM-12+017499999V0200501N001010450019N0100001N1+02821+02501100941ADDAA106001091AY161061GF105991031021008001041001MA1999999098971MD1999999-0031MW1601REMSYN082AAXX  04184 82571 21597 50502 10282 20250 39897 40094 7606/ 83240 333 59003 60011;
0191825710999992001040500004-05500-045260FM-12+017499999V0209999C000012200019N0100001N1+02551+02461101151ADDAA199000021GF103991031001017501041001KA1240M+02971MA1999999099171MD1999999-0171MW1131REMSYN094AAXX  05004 82571 31797 30000 10255 20246 39917 40115 713// 83040 333 10297 29091 55020 59017;
0173825710999992001040512004-05500-045260FM-12+017499999V0201401N001010042019N0100001N1+02501+02381101421ADDAA124001091GF107991071051004501001001KA1240N+02111MA1999999099441MD1999999+0041REMSYN082AAXX  05124 82571 22497 71402 10250 20238 39944 40142 87500 333 20211 58004 60014;
0167825710999992001040518004-05500-045260FM-12+017499999V0201401N002112200019N0100001N1+03121+02361100911ADDAA199000091GF104991031021008001011001MA1999999098961MD1999999-0011REMSYN070AAXX  05184 82571 32597 41404 10312 20236 39896 40091 83210 333 59001;EQDQ01  00002PRCP99
0198825710999992001040600004-05500-045260FM-12+017499999V0200501N001012200019N0100001N1+02621+02481101291ADDAA199000091GF101991011001017501011001KA1240M+03171MA1999999099311MD1999999+0141REMSYN088AAXX  06004 82571 32797 10502 10262 20248 39931 40129 81010 333 10317 29085 55048 58014;EQDQ01  00002PRCP99
0186825710999992001040612004-05500-045260FM-12+017499999V0200901N002110042019N0100001N1+02511+02421101541ADDAA199000091GF107991071051004501001001KA1240N+02121MA1999999099561MD1999999+0121REMSYN076AAXX  06124 82571 32497 70904 10251 20242 39956 40154 87500 333 20212 58012;EQDQ01  00002PRCP99
0167825710999992001040618004-05500-045260FM-12+017499999V0201401N002112200019N0100001N1+03171+02331101011ADDAA199000091GF103991021021008001001011MA1999999099061MD1999999+0101REMSYN070AAXX  06184 82571 32597 31404 10317 20233 39906 40101 82201 333 58010;EQDQ01  00002PRCP99
0198825710999992001040700004-05500-045260FM-12+017499999V0200901N001012200019N0100001N1+02651+02391101351ADDAA199000091GF103991011021008001011001KA1240M+03231MA1999999099381MD1999999+0071REMSYN088AAXX  07004 82571 32597 30902 10265 20239 39938 40135 81210 333 10323 29081 55087 58007;EQDQ01  00002PRCP99
0186825710999992001040712004-05500-045260FM-12+017499999V0200501N001010042019N0100001N1+02471+02341101471ADDAA199000091GF107991071051004501001001KA1240N+02111MA1999999099491MD1999999-0071REMSYN076AAXX  07124 82571 32497 70502 10247 20234 39949 40147 87500 333 20211 59007;EQDQ01  00002PRCP99
0198825710999992001040800004-05500-045260FM-12+017499999V0201401N001012200019N0100001N1+02661+02461101251ADDAA199000091GF104991041001017501041001KA1240M+03161MA1999999099271MD1999999-0111REMSYN088AAXX  08004 82571 32797 41402 10266 20246 39927 40125 84040 333 10316 29084 55048 59011;EQDQ01  00002PRCP99
0186825710999992001040812004-05500-045260FM-12+017499999V0201801N001010042019N0100001N1+02411+02371101421ADDAA199000091GF108991081051004501999999KA1240N+02141MA1999999099441MD1999999-0051REMSYN076AAXX  08124 82571 32497 81802 10241 20237 39944 40142 885// 333 20214 59005;EQDQ01  00002PRCP99
0167825710999992001040818004-05500-045260FM-12+017499999V0201401N002112200019N0100001N1+03181+02311100871ADDAA199000091GF104991011021008001031011MA1999999098921MD1999999-0101REMSYN070AAXX  08184 82571 32597 41404 10318 20231 39892 40087 81231 333 59010;EQDQ01  00002PRCP99
0198825710999992001040900004-05500-045260FM-12+017499999V0209999C000012200019N0100001N1+02681+02331101151ADDAA199000091GF103991031001017501031001KA1240M+03241MA1999999099171MD1999999-0101REMSYN088AAXX  09004 82571 32797 30000 10268 20233 39917 40115 83030 333 10324 29080 55077 59010;EQDQ01  00002PRCP99
0193825710999992001040912004-05500-045260FM-12+017499999V0202301N001010075019N0100001N1+02381+02361101241ADDAA124000191AY161061GF108991081051008001999999KA1240N+02081MA1999999099261MD1999999-0181MW1021REMSYN088AAXX  09124 82571 21597 82302 10238 20236 39926 40124 7026/ 885// 333 20208 59018 69914;
0167825710999992001040918004-05500-045260FM-12+017499999V0200501N001010450019N0100001N1+03101+02201100781ADDAA199000091GF106991021031008001031011MA1999999098831MD1999999-0091REMSYN070AAXX  09184 82571 32597 60502 10310 20220 39883 40078 82331 333 59009;EQDQ01  00002PRCP99
0210825710999992001041000004-05500-045260FM-12+017499999V0200501N003110075019N0100001N1+02581+02291101121ADDAA199000091GF108991081071008001999999KA1240M+03221MA1999999099141MD1999999-0031MW1131REMSYN094AAXX  10004 82571 31597 80506 10258 20229 39914 40112 713// 887// 333 10322 29082 55061 59003;EQDQ01  00002PRCP99
0186825710999992001041012004-05500-045260FM-12+017499999V0203601N001010075019N0100001N1+02481+02271101381ADDAA199000091GF108991081051008001999999KA1240N+02221MA1999999099401MD1999999+0141REMSYN076AAXX  10124 82571 32597 83602 10248 20227 39940 40138 885// 333 20222 58014;EQDQ01  00002PRCP99
0167825710999992001041018004-05500-045260FM-12+017499999V0203201N001010450019N0100001N1+03031+02331100971ADDAA199000091GF105991031021008001031001MA1999999099011MD1999999+0181REMSYN070AAXX  10184 82571 32597 53202 10303 20233 39901 40097 83230 333 58018;EQDQ01  00002PRCP99
0210825710999992001041100004-05500-045260FM-12+017499999V0209999C000010075019N0100001N1+02511+02381101261ADDAA199000091GF108991081051008001999999KA1240M+03111MA1999999099281MD1999999+0141MW1131REMSYN094AAXX  11004 82571 31597 80000 10251 20238 39928 40126 713// 885// 333 10311 29084 55038 58014;EQDQ01  00002PRCP99
0193825710999992001041112004-05500-045260FM-12+017499999V0200501N001010450019N0100001N1+02521+02271101521ADDAA124000191AY161061GF106991031051008001031011KA1240N+02151MA1999999099531MD1999999+0121MW1021REMSYN088AAXX  11124 82571 21597 60502 10252 20227 39953 40152 7026/ 83531 333 20215 58012 69914;
0167825710999992001041118004-05500-045260FM-12+017499999V0200501N001012200019N0100001N1+03021+02311101091ADDAA199000091GF104991041021008001001001MA1999999099131MD1999999+0131REMSYN070AAXX  11184 82571 32597 40502 10302 20231 39913 40109 84200 333 58013;EQDQ01  00002PRCP99
0208825710999992001041200004-05500-045260FM-12+017499999V0209999C000012200019N0100001N1+02531+02421101331ADDAA199000091GA1001+999999999GF100991001001999999001001KA1240M+03081MA1999999099351MD1999999+0071REMSYN082AAXX  12004 82571 32997 00000 10253 20242 39935 40133 333 10308 29084 55059 58007;EQDQ01  00002PRCP99
0186825710999992001041212004-05500-045260FM-12+017499999V0203201N001010120019N0100001N1+02501+02381101381ADDAA199000091GF107991071081008001001001KA1240N+02161MA1999999099401MD1999999-0131REMSYN076AAXX  12124 82571 32597 73202 10250 20238 39940 40138 87800 333 20216 59013;EQDQ01  00002PRCP99
0167825710999992001041218004-05500-045260FM-12+017499999V0200501N003110450019N0100001N1+03201+02411100961ADDAA199000091GF106991031021008001031001MA1999999099011MD1999999-0121REMSYN070AAXX  12184 82571 32597 60506 10320 20241 39901 40096 83230 333 59012;EQDQ01  00002PRCP99
0223825710999992001041300004-05500-045260FM-12+017499999V0202301N001012200019N0100001N1+02401+02261101191ADDAA106002091AY191061AY231061GA1001+999999999GF100991001001999999001001KA1240M+03271MA1999999099211MD1999999-0141MW1131REMSYN094AAXX  13004 82571 21997 02302 10240 20226 39921 40119 71393 333 10327 29058 55068 59014 60021;
0193825710999992001041312004-05500-045260FM-12+017499999V0202701N001010450019N0100001N1+02541+02361101301ADDAA124002091AY161061GF106991031051008001031011KA1240N+02161MA1999999099311MD1999999-0091MW1011REMSYN088AAXX  13124 82571 21597 62702 10254 20236 39931 40130 7016/ 83531 333 20216 59009 60024;
0167825710999992001041318004-05500-045260FM-12+017499999V0203201N001012200019N0100001N1+03141+02351100791ADDAA199000091GF105991031021008001001011MA1999999098831MD1999999-0181REMSYN070AAXX  13184 82571 32597 53202 10314 20235 39883 40079 83201 333 59018;EQDQ01  00002PRCP99
0208825710999992001041400004-05500-045260FM-12+017499999V0200501N001012200019N0100001N1+02541+02381101101ADDAA199000091GA1001+999999999GF100991001001999999001001KA1240M+03281MA1999999099131MD1999999-0081REMSYN082AAXX  14004 82571 32997 00502 10254 20238 39913 40110 333 10328 29084 55061 59008;EQDQ01  00002PRCP99
0186825710999992001041412004-05500-045260FM-12+017499999V0200501N001010075019N0100001N1+02491+02341101271ADDAA199000091GF108991081051008001999999KA1240N+02131MA1999999099291MD1999999-0021REMSYN076AAXX  14124 82571 32597 80502 10249 20234 39929 40127 885// 333 20213 59002;EQDQ01  00002PRCP99
0167825710999992001041418004-05500-045260FM-12+017499999V0203201N001010450019N0100001N1+03101+02361100791ADDAA199000091GF106991021021008001031011MA1999999098841MD1999999+0011REMSYN070AAXX  14184 82571 32597 63202 10310 20236 39884 40079 82231 333 58001;EQDQ01  00002PRCP99
0218825710999992001041500004-05500-045260FM-12+017499999V0200501N003110075019N0100001N1+02471+02341101271ADDAA199000091AY191061GF108991081051008001999999KA1240M+03201MA1999999099291MD1999999+0161MW1131REMSYN094AAXX  15004 82571 31597 80506 10247 20234 39929 40127 7139/ 885// 333 10320 29085 55039 58016;EQDQ01  00002PRCP99
0193825710999992001041512004-05500-045260FM-12+017499999V0202301N001010450019N0100001N1+02471+02301101491ADDAA124000191AY161061GF106991041051008001031001KA1240N+02061MA1999999099501MD1999999+0211MW1011REMSYN088AAXX  15124 82571 21597 62302 10247 20230 39950 40149 7016/ 84530 333 20206 58021 69914;
0167825710999992001041618004-05500-045260FM-12+017499999V0203601N002112200019N0100001N1+03121+02461101101ADDAA199000091GF105991041021008001001011MA1999999099141MD1999999+0061REMSYN070AAXX  16184 82571 32597 53604 10312 20246 39914 40110 84201 333 58006;EQDQ01  00002PRCP99
0193825710999992001041712004-05500-045260FM-12+017499999V0201401N001012200019N0100001N1+02661+02371101491ADDAA124011991AY161061GF104991031021004501011001KA1240N+02161MA1999999099501MD1999999-0081MW1011REMSYN088AAXX  17124 82571 21497 41402 10266 20237 39950 40149 7016/ 83210 333 20216 59008 60124;
0167825710999992001041718004-05500-045260FM-12+017499999V0203601N001010450019N0100001N1+02901+02501101051ADDAA199000091GF106991041021008001041001MA1999999099091MD1999999-0051REMSYN070AAXX  17184 82571 32597 63602 10290 20250 39909 40105 84240 333 59005;EQDQ01  00002PRCP99
0205825710999992001041800004-05500-045260FM-12+017499999V0202301N001012200019N0100001N1+02481+02411101411ADDAA106006191AY161061GF104991021021004501041001KA1240M+03081MA1999999099431MD1999999-0141MW1131REMSYN100AAXX  18004 82571 21497 42302 10248 20241 39943 40141 7136/ 82240 333 10308 29089 55060 59014 60061;
0193825710999992001041812004-05500-045260FM-12+017499999V0202701N001010042019N0100001N1+02451+02371101411ADDAA124006191AY161061GF108991081051004501999999KA1240N+02151MA1999999099421MD1999999-0081MW1021REMSYN088AAXX  18124 82571 21497 82702 10245 20237 39942 40141 7026/ 885// 333 20215 59008 60064;
0174825710999992001041818004-05500-045260FM-12+017499999V0201401N001012200019N0100001N1+03181+02441100831ADDAA106000391AY161061GF105991041021008001001011MA1999999098881MD1999999-0211MW1011REMSYN082AAXX  18184 82571 21597 51402 10318 20244 39888 40083 7016/ 84201 333 59021 69931;
0213825710999992001041900004-05500-045260FM-12+017499999V0200501N002110450019N0040001N1+02341+02311101391ADDAA106024991AY191061AY261061GF108991031071004501021999KA1240M+03271MA1999999099401MD1999999-0031MW1911REMSYN100AAXX  19004 82571 21496 80504 10234 20231 39940 40139 79196 8372/ 333 10327 29089 55030 59003 60251;
0193825710999992001041912004-05500-045260FM-12+017499999V0202301N001010042019N0100001N1+02431+02341101471ADDAA124030091AY161061GF108991081051004501999999KA1240N+02141MA1999999099481MD1999999+0061MW1021REMSYN088AAXX  19124 82571 21497 82302 10243 20234 39948 40147 7026/ 885// 333 20214 58006 60304;
0167825710999992001041918004-05500-045260FM-12+017499999V0203201N001010450019N0100001N1+03061+02381100911ADDAA199000091GF105991041021008001031001MA1999999098951MD1999999+0071REMSYN070AAXX  19184 82571 32597 53202 10306 20238 39895 40091 84230 333 58007;EQDQ01  00002PRCP99
0205825710999992001042000004-05500-045260FM-12+017499999V0200501N004112200019N0100001N1+02481+02381101311ADDAA106000391AY161061GF102991021001017501041001KA1240M+03171MA1999999099321MD1999999-0081MW1011REMSYN100AAXX  20004 82571 21797 20508 10248 20238 39932 40131 7016/ 82040 333 10317 29087 55048 59008 69931;
0173825710999992001042012004-05500-045260FM-12+017499999V0202701N001010042019N0100001N1+02461+02271101561ADDAA124000391GF108991081051004501999999KA1240N+02121MA1999999099571MD1999999+0091REMSYN082AAXX  20124 82571 22497 82702 10246 20227 39957 40156 885// 333 20212 58009 69934;
0167825710999992001042018004-05500-045260FM-12+017499999V0203601N001010450019N0100001N1+02841+02351101051ADDAA199000091GF106991021021008001011011MA1999999099081MD1999999+0131REMSYN070AAXX  20184 82571 32597 63602 10284 20235 39908 40105 82211 333 58013;EQDQ01  00002PRCP99
0210825710999992001042100004-05500-045260FM-12+017499999V0200501N003112200019N0100001N1+02521+02421101371ADDAA199000091GF103991021021004501041001KA1240M+03021MA1999999099391MD1999999+0071MW1131REMSYN094AAXX  21004 82571 31497 30506 10252 20242 39939 40137 713// 82240 333 10302 29088 55024 58007;EQDQ01  00002PRCP99
0186825710999992001042112004-05500-045260FM-12+017499999V0201801N001010042019N0100001N1+02541+02311101581ADDAA199000091GF107991071051004501001001KA1240N+02141MA1999999099601MD1999999+0031REMSYN076AAXX  21124 82571 32497 71802 10254 20231 39960 40158 87500 333 20214 58003;EQDQ01  00002PRCP99
0166825710999992001042118004-05500-045260FM-12+017499999V0201801N002110450019N0100001N1+02731+02431101051ADDAA106000191GF105991031021004501071001MA1999999099081MD1999999+0001MW1611REMSYN082AAXX  21184 82571 21497 51804 10273 20243 39908 40105 761// 83270 333 58000 69921;
0197825710999992001042200004-05500-045260FM-12+017499999V0201401N001012200019N0100001N1+02481+02301101371ADDAA106000191GF102991021021004501001001KA1240M+03041MA1999999099391MD1999999+0001MW1611REMSYN100AAXX  22004 82571 21497 21402 10248 20230 39939 40137 761// 82200 333 10304 29088 55031 58000 69911;
0193825710999992001042212004-05500-045260FM-12+017499999V0202701N001010042019N0100001N1+02441+02281101451ADDAA124022191AY161061GF106991051021004501001011KA1240N+02021MA1999999099461MD1999999-0141MW1011REMSYN088AAXX  22124 82571 21497 62702 10244 20228 39946 40145 7016/ 85201 333 20202 59014 60224;
0167825710999992001042218004-05500-045260FM-12+017499999V0200901N002110450019N0100001N1+02961+02261100891ADDAA199000091GF105991031021008001011001MA1999999098921MD1999999-0161REMSYN070AAXX  22184 82571 32597 50904 10296 20226 39892 40089 83210 333 59016;EQDQ01  00002PRCP99
0208825710999992001042300004-05500-045260FM-12+017499999V0209999C000012200019N0100001N1+02521+02341101171ADDAA199000091GA1001+999999999GF100991001001999999001001KA1240M+03071MA1999999099191MD1999999-0201REMSYN082AAXX  23004 82571 32997 00000 10252 20234 39919 40117 333 10307 29084 55092 59020;EQDQ01  00002PRCP99
0193825710999992001042312004-05500-045260FM-12+017499999V0202301N001012200019N0100001N1+02361+02311101391ADDAA124000191AY141061GF104991021021008001031001KA1240N+01991MA1999999099401MD1999999-0061MW1021REMSYN088AAXX  23124 82571 21597 42302 10236 20231 39940 40139 7024/ 82230 333 20199 59006 69914;
0167825710999992001042318004-05500-045260FM-12+017499999V0200501N003112200019N0100001N1+03171+02331100961ADDAA199000091GF102991021021008001001001MA1999999099011MD1999999+0091REMSYN070AAXX  23184 82571 32597 20506 10317 20233 39901 40096 82200 333 58009;EQDQ01  00002PRCP99
0208825710999992001042400004-05500-045260FM-12+017499999V0209999C000012200019N0100001N1+02601+02421101101ADDAA199000091GA1001+999999999GF100991001001999999001001KA1240M+03221MA1999999099121MD1999999-0071REMSYN082AAXX  24004 82571 32997 00000 10260 20242 39912 40110 333 10322 29084 55084 59007;EQDQ01  00002PRCP99
0186825710999992001042412004-05500-045260FM-12+017499999V0202301N001012200019N0100001N1+02751+02351101421ADDAA199000091GF103991021001017501031011KA1240N+02011MA1999999099451MD1999999+0051REMSYN076AAXX  24124 82571 32797 32302 10275 20235 39945 40142 82031 333 20201 58005;EQDQ01  00002PRCP99
0167825710999992001042418004-05500-045260FM-12+017499999V0201401N003112200019N0100001N1+03151+02231101051ADDAA199000091GF103991021021008001001011MA1999999099091MD1999999+0081REMSYN070AAXX  24184 82571 32597 31406 10315 20223 39909 40105 82201 333 58008;EQDQ01  00002PRCP99
0208825710999992001042500004-05500-045260FM-12+017499999V0202301N001012200019N0100001N1+02561+02331101311ADDAA199000091GA1001+999999999GF100991001001999999001001KA1240M+03231MA1999999099331MD1999999+0211REMSYN082AAXX  25004 82571 32997 02302 10256 20233 39933 40131 333 10323 29080 55105 58021;EQDQ01  00002PRCP99
0186825710999992001042512004-05500-045260FM-12+017499999V0202301N001010075019N0100001N1+02481+02341101671ADDAA199000091GF108991081051008001999999KA1240N+02021MA1999999099681MD1999999+0231REMSYN076AAXX  25124 82571 32597 82302 10248 20234 39968 40167 885// 333 20202 58023;EQDQ01  00002PRCP99
0167825710999992001042518004-05500-045260FM-12+017499999V0200501N003110450019N0100001N1+02941+02331101271ADDAA199000091GF106991041051008001031001MA1999999099301MD1999999+0211REMSYN070AAXX  25184 82571 32597 60506 10294 20233 39930 40127 84530 333 58021;EQDQ01  00002PRCP99
0208825710999992001042600004-05500-045260FM-12+017499999V0202301N001012200019N0100001N1+02441+02431101431ADDAA199000091GA1001+999999999GF100991001001999999001001KA1240M+03121MA1999999099441MD1999999+0111REMSYN082AAXX  26004 82571 32997 02302 10244 20243 39944 40143 333 10312 29088 55029 58011;EQDQ01  00002PRCP99
0193825710999992001042612004-05500-045260FM-12+017499999V0203201N001012200019N0100001N1+02521+02331101451ADDAA124000191AY141061GF102991001001999999001011KA1240N+02001MA1999999099461MD1999999-0221MW1011REMSYN088AAXX  26124 82571 21997 23202 10252 20233 39946 40145 7014/ 80001 333 20200 59022 69914;
0167825710999992001042618004-05500-045260FM-12+017499999V0201401N001012200019N0100001N1+03191+02211101091ADDAA199000091GF103991021021008001001011MA1999999099131MD1999999-0171REMSYN070AAXX  26184 82571 32597 31402 10319 20221 39913 40109 82201 333 59017;EQDQ01  00002PRCP99
0208825710999992001042700004-05500-045260FM-12+017499999V0202301N001012200019N0100001N1+02631+02441101301ADDAA199000091GA1001+999999999GF100991001001999999001001KA1240M+03261MA1999999099321MD1999999-0121REMSYN082AAXX  27004 82571 32997 02302 10263 20244 39932 40130 333 10326 29081 55072 59012;EQDQ01  00002PRCP99
0186825710999992001042712004-05500-045260FM-12+017499999V0203201N001010075019N0100001N1+02521+02361101361ADDAA199000091GF108991081051008001999999KA1240N+02001MA1999999099391MD1999999-0071REMSYN076AAXX  27124 82571 32597 83202 10252 20236 39939 40136 885// 333 20200 59007;EQDQ01  00002PRCP99
0167825710999992001042718004-05500-045260FM-12+017499999V0200501N003112200019N0100001N1+03181+02281101011ADDAA199000091GF103991021021008001001011MA1999999099051MD1999999-0081REMSYN070AAXX  27184 82571 32597 30506 10318 20228 39905 40101 82201 333 59008;EQDQ01  00002PRCP99
0193825710999992001042812004-05500-045260FM-12+017499999V0201401N001010075019N0100001N1+02481+02391101561ADDAA124006191AY161061GF108991081051008001999999KA1240N+02181MA1999999099581MD1999999+0191MW1021REMSYN088AAXX  28124 82571 21597 81402 10248 20239 39958 40156 7026/ 885// 333 20218 58019 60064;
0182825710999992001042818004-05500-045260FM-12+017499999V0200901N001010075019N0100001N1+02451+02371101211ADDAA106007991AY191061AY261061GF108991081051008001999999MA1999999099221MD1999999+0171MW1951REMSYN082AAXX  28184 82571 21597 80902 10245 20237 39922 40121 79596 885// 333 58017 60081;
0197825710999992001042900004-05500-045260FM-12+017499999V0201401N001010042019N0100001N1+02351+02281101421ADDAA106001091GF108991081051004501999999KA1240M+02951MA1999999099431MD1999999+0121MW1601REMSYN100AAXX  29004 82571 21497 81402 10235 20228 39943 40142 760// 885// 333 10295 29095 55026 58012 60011;
0193825710999992001042912004-05500-045260FM-12+017499999V0202301N001010450019N0100001N1+02461+02411101461ADDAA124009991AY161061GF106991041051008001031001KA1240N+02101MA1999999099471MD1999999-0111MW1021REMSYN088AAXX  29124 82571 21597 62302 10246 20241 39947 40146 7026/ 84530 333 20210 59011 60104;
0167825710999992001042918004-05500-045260FM-12+017499999V0200901N001012200019N0100001N1+03081+02271101081ADDAA199000091GF104991021021008001031001MA1999999099121MD1999999-0101REMSYN070AAXX  29184 82571 32597 40902 10308 20227 39912 40108 82230 333 59010;EQDQ01  00002PRCP99
0208825710999992001043000004-05500-045260FM-12+017499999V0209999C000012200019N0100001N1+02531+02401101301ADDAA199000091GA1001+999999999GF100991001001999999001001KA1240M+03171MA1999999099311MD1999999-0121REMSYN082AAXX  30004 82571 32997 00000 10253 20240 39931 40130 333 10317 29086 55084 59012;EQDQ01  00002PRCP99
0206825710999992001043012004-05500-045260FM-12+017499999V0200501N001010042019N0100001N1+02541+02381101381ADDAA199000091AY141061GF107991071051004501001001KA1240N+02161MA1999999099401MD1999999-0071MW1011REMSYN082AAXX  30124 82571 31497 70502 10254 20238 39940 40138 7014/ 87500 333 20216 59007;EQDQ01  00002PRCP99
0167825710999992001043018004-05500-045260FM-12+017499999V0201401N003112200019N0100001N1+03041+02411100921ADDAA199000091GF104991021021008001011011MA1999999098961MD1999999-0161REMSYN070AAXX  30184 82571 32597 41406 10304 20241 39896 40092 82211 333 59016;EQDQ01  00002PRCP99
0198825710999992001050100004-05500-045260FM-12+017499999V0209999C000012200019N0100001N1+02641+02411101141ADDAA199000091GF103991031001017501031001KA1240M+03151MA1999999099171MD1999999-0141REMSYN088AAXX  01004 82571 32797 30000 10264 20241 39917 40114 83030 333 10315 29084 55055 59014;EQDQ01  00002PRCP99
0206825710999992001050112004-05500-045260FM-12+017499999V0203201N001010042019N0100001N1+02461+02371101351ADDAA199000091AY141061GF108991081051004501999999KA1240N+02151MA1999999099371MD1999999-0031MW1021REMSYN082AAXX  01124 82571 31497 83202 10246 20237 39937 40135 7024/ 885// 333 20215 59003;EQDQ01  00002PRCP99
0167825710999992001050118004-05500-045260FM-12+017499999V0201401N001012200019N0100001N1+02991+02441100951ADDAA199000091GF104991011011008001031011MA1999999098991MD1999999+0031REMSYN070AAXX  01184 82571 32597 41402 10299 20244 39899 40095 81131 333 58003;EQDQ01  00002PRCP99
0213825710999992001050200004-05500-045260FM-12+017499999V0201801N001012200019N0100001N1+02441+02351101231ADDAA106021191AY191061AY261061GF102991021001017501031001KA1240M+03131MA1999999099251MD1999999+0081MW1021REMSYN100AAXX  02004 82571 21797 21802 10244 20235 39925 40123 70296 82030 333 10313 29089 55038 58008 60211;
