0186825860999992001010100004-05190-039300FM-12+021199999V0200501N001519999999N0010001N1+02821+02171100881ADDAA199000091GF105991999999008001999999KA1240M+03581MA1999999098531MD1999999-0021REMSYN076AAXX  01004 82586 32594 50503 10282 20217 39853 40088 8//// 333 10358 59002;EQDQ01  00002PRCP99
0186825860999992001010112004-05190-039300FM-12+021199999V0200901N003112200019N0200001N1+02861+02161101021ADDAA199000091GF104991041011008001001001KA1240N+02441MA1999999098661MD1999999-0031REMSYN076AAXX  01124 82586 32598 40906 10286 20216 39866 40102 84100 333 20244 59003;EQDQ01  00002PRCP99
0167825860999992001010118004-05190-039300FM-12+021199999V0201401N001512200019N0200001N1+03561+01821100761ADDAA199000091GF103991031011008001001001MA1999999098431MD1999999+0001REMSYN070AAXX  01184 82586 32598 31403 10356 20182 39843 40076 83100 333 58000;EQDQ01  00002PRCP99
0186825860999992001010200004-05190-039300FM-12+021199999V0200501N005112200019N0010001N1+02781+02361100931ADDAA199000091GF104991041001008001051001KA1240M+03571MA1999999098571MD1999999+0041REMSYN076AAXX  02004 82586 32594 40510 10278 20236 39857 40093 84050 333 10357 58004;EQDQ01  00002PRCP99
0186825860999992001010212004-05190-039300FM-12+021199999V0200501N003112200019N0200001N1+02801+02331101091ADDAA199000091GF104991041021008001001001KA1240N+02451MA1999999098731MD1999999+0071REMSYN076AAXX  02124 82586 32598 40506 10280 20233 39873 40109 84200 333 20245 58007;EQDQ01  00002PRCP99
0167825860999992001010218004-05190-039300FM-12+021199999V0200901N001512200019N0200001N1+03501+01941100791ADDAA199000091GF104991041021008001001001MA1999999098451MD1999999+0021REMSYN070AAXX  02184 82586 32598 40903 10350 20194 39845 40079 84200 333 58002;EQDQ01  00002PRCP99
0202825860999992001010300004-05190-039300FM-12+021199999V02099999999999999999N0010001N1+02801+02271100921ADDAA199000091GF105991999021008001001001KA1240M+03541MA1999999098561MD1999999-0011REMSYN076AAXX  03004 82586 32594 505// 10280 20227 39856 40092 86200 333 10354 59001;EQDQ01+000062SCOTLCQ02  00002PRCP99
0186825860999992001010312004-05190-039300FM-12+021199999V0201401N004612200019N0200001N1+02881+02251101091ADDAA199000091GF104991041011008001001001KA1240N+02431MA1999999098731MD1999999+0001REMSYN076AAXX  03124 82586 32598 41409 10288 20225 39873 40109 84100 333 20243 58000;EQDQ01  00002PRCP99
0167825860999992001010318004-05190-039300FM-12+021199999V02099999999990075019N0200001N1+03521+01741100771ADDAA199000091GF105991051021008001001001MA1999999098431MD1999999-0021REMSYN070AAXX  03184 82586 32598 509// 10352 20174 39843 40077 85200 333 59002;EQDQ01  00002PRCP99
0186825860999992001010400004-05190-039300FM-12+021199999V0200501N003610075019N0010001N1+02851+02121100941ADDAA199000091GF106991061051008001001001KA1240M+03561MA1999999098581MD1999999+0021REMSYN076AAXX  04004 82586 32594 60507 10285 20212 39858 40094 86500 333 10356 58002;EQDQ01  00002PRCP99
0202825860999992001010412004-05190-039300FM-12+021199999V0200901N002119999999N0200001N1+02841+02221101091ADDAA199000091GF106991999021008001001001KA1240N+02481MA1999999098721MD1999999+0001REMSYN076AAXX  04124 82586 32598 60904 10284 20222 39872 40109 84200 333 20248 58000;EQDQ01+000042SCOTLCQ02  00002PRCP99
0184825860999992001010418004-05190-039300FM-12+021199999V0201401N002119999999N0200001N1+03181+02041100831ADDAA199000091GF108991999021008001001001MD1999999+0051REMSYN070AAXX  04184 82586 32598 81404 10318 20204 39448 40083 84200 333 58005;EQDQ01+000042SCOTLCQ02+094483APOSP Q03  00002PRCP99
0186825860999992001010500004-05190-039300FM-12+021199999V0200501N005110120019N0010001N1+02751+02321101001ADDAA199000091GF108991081051012501999999KA1240M+03221MA1999999098641MD1999999+0061REMSYN076AAXX  05004 82586 32694 80510 10275 20232 39864 40100 885// 333 10322 58006;EQDQ01  00002PRCP99
0186825860999992001010512004-05190-039300FM-12+021199999V0200901N003110450019N0200001N1+02881+02321101101ADDAA199000091GF105991031021008001051001KA1240N+02321MA1999999098741MD1999999+0011REMSYN076AAXX  05124 82586 32598 50906 10288 20232 39874 40110 83250 333 20232 58001;EQDQ01  00002PRCP99
0168825860999992001010518004-05190-039300FM-12+021199999V0200901N002112200019N0200001N1+03501+01771100771ADDAA199000091GF104991041011008001001001MD1999999-0051REMSYN070AAXX  05184 82586 32598 40904 10350 20177 39243 40077 84100 333 59005;EQDQ01+092433APOSP Q02  00002PRCP99
0186825860999992001010600004-05190-039300FM-12+021199999V0200501N005119999999N0010001N1+02821+02201100891ADDAA199000091GF105991051001012501051001KA1240M+03601MA1999999098541MD1999999-0101REMSYN076AAXX  06004 82586 32694 50510 10282 20220 39854 40089 85050 333 10360 59010;EQDQ01  00002PRCP99
0186825860999992001010612004-05190-039300FM-12+021199999V0200501N002110075019N0200001N1+02901+02351101061ADDAA199000091GF105991051021008001001001KA1240N+02401MA1999999098701MD1999999-0041REMSYN076AAXX  06124 82586 32598 50504 10290 20235 39870 40106 85200 333 20240 59004;EQDQ01  00002PRCP99
0183825860999992001010618004-05190-039300FM-12+021199999V0201801N001519999999N0200001N1+03531+01701100711ADDAA199000091GF106991999021008001001001MA1999999098371MD1999999-0061REMSYN070AAXX  06184 82586 32598 61803 10353 20170 39837 40071 83200 333 59006;EQDQ01+000032SCOTLCQ02  00002PRCP99
0180825860999992001010700004-05190-039300FM-12+021199999V0200501N003112200019N0010001N1+02841+02291100831ADDAA199000091GF103991999999999999999999KA1240M+03621MA1999999098481MD1999999-0061REMSYN070AAXX  07004 82586 32994 30506 10284 20229 39848 40083 333 10362 59006;EQDQ01  00002PRCP99
0201825860999992001010712004-05190-039300FM-12+021199999V0200501N004110075019N0200001N1+02721+02301101111ADDAA124000391AY151061AY251061GF108991081071008001999999KA1240N+02501MA1999999098751MD1999999+0051MW1031REMSYN088AAXX  07124 82586 21598 80508 10272 20230 39875 40111 70355 887// 333 20250 58005 69934;
0167825860999992001010718004-05190-039300FM-12+021199999V0201401N002110450019N0200001N1+03161+02171100771ADDAA199000091GF108991041021008001021999MA1999999098421MD1999999+0061REMSYN070AAXX  07184 82586 32598 81404 10316 20217 39842 40077 8422/ 333 58006;EQDQ01  00002PRCP99
0186825860999992001010800004-05190-039300FM-12+021199999V0200501N002110120019N0010001N1+02761+02121100861ADDAA199000091GF106991061001012501021001KA1240M+03181MA1999999098501MD1999999+0021REMSYN076AAXX  08004 82586 32694 60504 10276 20212 39850 40086 86020 333 10318 58002;EQDQ01  00002PRCP99
0186825860999992001010812004-05190-039300FM-12+021199999V0200501N001512200019N0200001N1+02781+02341100981ADDAA199000091GF106991041041008001001011KA1240N+02361MA1999999098621MD1999999-0131REMSYN076AAXX  08124 82586 32598 60503 10278 20234 39862 40098 84401 333 20236 59013;EQDQ01  00002PRCP99
0167825860999992001010818004-05190-039300FM-12+021199999V0200501N002110075019N0200001N1+03521+01961100641ADDAA199000091GF106991061021008001001001MA1999999098311MD1999999-0121REMSYN070AAXX  08184 82586 32598 60504 10352 20196 39831 40064 86200 333 59012;EQDQ01  00002PRCP99
0186825860999992001010912004-05190-039300FM-12+021199999V0200501N003612200019N0200001N1+02861+02231101051ADDAA199000091GF106991041041008001001011KA1240N+02361MA1999999098691MD1999999+0071REMSYN076AAXX  09124 82586 32598 60507 10286 20223 39869 40105 84401 333 20236 58007;EQDQ01  00002PRCP99
0167825860999992001010918004-05190-039300FM-12+021199999V0201401N001510075019N0200001N1+03401+01891100731ADDAA199000091GF105991051021008001001001MA1999999098391MD1999999+0081REMSYN070AAXX  09184 82586 32598 51403 10340 20189 39839 40073 85200 333 58008;EQDQ01  00002PRCP99
0186825860999992001011000004-05190-039300FM-12+021199999V0200501N005112200019N0010001N1+02861+02161100831ADDAA199000091GF102991011021008001001011KA1240M+03441MA1999999098481MD1999999-0041REMSYN076AAXX  10004 82586 32594 20510 10286 20216 39848 40083 81201 333 10344 59004;EQDQ01  00002PRCP99
0186825860999992001011012004-05190-039300FM-12+021199999V0200501N003110075019N0200001N1+02761+02341101011ADDAA199000091GF108991081071008001999999KA1240N+02491MA1999999098651MD1999999-0041REMSYN076AAXX  10124 82586 32598 80506 10276 20234 39865 40101 887// 333 20249 59004;EQDQ01  00002PRCP99
0167825860999992001011018004-05190-039300FM-12+021199999V0201401N002112200019N0200001N1+03471+01821100711ADDAA199000091GF106991031021008001001041MA1999999098371MD1999999-0021REMSYN070AAXX  10184 82586 32598 61404 10347 20182 39837 40071 83204 333 59002;EQDQ01  00002PRCP99
0186825860999992001011100004-05190-039300FM-12+021199999V02099999999990075019N0010001N1+02721+02391100941ADDAA199000091GF108991081071008001999999KA1240M+03501MA1999999098581MD1999999+0101REMSYN076AAXX  11004 82586 32594 805// 10272 20239 39858 40094 887// 333 10350 58010;EQDQ01  00002PRCP99
0202825860999992001011112004-05190-039300FM-12+021199999V0200901N003110075019N0200001N1+02701+02131101081ADDAA199000091GF108991081071008001999999KA1240N+99999MA1999999098721MD1999999+0071REMSYN076AAXX  11124 82586 32598 80906 10270 20213 39872 40108 887// 333 20278 58007;EQDQ01  00002PRCP99Q02 +02782ATMN  
0167825860999992001011118004-05190-039300FM-12+021199999V0200901N001519999999N0200001N1+03121+01891100891ADDAA199000091GF107991041001008001051041MA1999999098541MD1999999+0171REMSYN070AAXX  11184 82586 32598 70903 10312 20189 39854 40089 84054 333 58017;EQDQ01  00002PRCP99
0202825860999992001011200004-05190-039300FM-12+021199999V0203601N005119999999N0010001N1+02741+02221100961ADDAA199000091GF108991999021012501001001KA1240M+03161MA1999999098601MD1999999+0021REMSYN076AAXX  12004 82586 32694 83610 10274 20222 39860 40096 84200 333 10316 58002;EQDQ01+000042SCOTLCQ02  00002PRCP99
0186825860999992001011212004-05190-039300FM-12+021199999V0200501N005710075019N0200001N1+02761+02391101041ADDAA199000091GF108991081071008001999999KA1240N+02461MA1999999098861MD1999999-0041REMSYN076AAXX  12124 82586 32598 80511 10276 20239 39886 40104 887// 333 20246 59004;EQDQ01  00002PRCP99
0182825860999992001011218004-05190-039300FM-12+021199999V0200501N003610075019N0200001N1+02781+02501100851ADDAA106002091AY161061AY221061GF107991071071008001001001MA1999999098491MD1999999-0031MW1031REMSYN082AAXX  12184 82586 21598 70507 10278 20250 39849 40085 70362 87700 333 59003 60021;
0220825860999992001011300004-05190-039300FM-12+021199999V02099999999990075019N0010001N1+02281+02141101091ADDAA106000591AY161061AY221061GF108991999051008001071999KA1240M+02981MA1999999098691MD1999999+0091MW1031REMSYN088AAXX  13004 82586 21594 814// 10228 20214 39869 40109 70362 8857/ 333 10298 58009 69961;EQDQ01+000082SCOTLC
0201825860999992001011312004-05190-039300FM-12+021199999V0201401N001510075019N0200001N1+02541+02401101151ADDAA124003091AY151061AY221061GF108991081071008001999999KA1240N+02201MA1999999098751MD1999999+0071MW1031REMSYN088AAXX  13124 82586 21598 81403 10254 20240 39875 40115 70352 887// 333 20220 58007 60034;
0167825860999992001011318004-05190-039300FM-12+021199999V0200901N002610450019N0200001N1+03181+02041100861ADDAA199000091GF107991041041008001051001MA1999999098501MD1999999+0011REMSYN070AAXX  13184 82586 32598 70905 10318 20204 39850 40086 84450 333 58001;EQDQ01  00002PRCP99
0201825860999992001011400004-05190-039300FM-12+021199999V0202701N001510075019N0010001N1+02261+02181101191ADDAA106027991AY161061AY261061GF108991081071008001999999KA1240M+03221MA1999999098791MD1999999+0101MW1511REMSYN088AAXX  14004 82586 21594 82703 10226 20218 39879 40119 75166 887// 333 10322 58010 60281;
0220825860999992001011412004-05190-039300FM-12+021199999V0200501N001010075019N0200001N1+02341+02271101171ADDAA124030091AY161061AY251061GF108991999041008001001001KA1240N+02201MA1999999098761MD1999999+0011MW1031REMSYN088AAXX  14124 82586 21598 80502 10234 20227 39876 40117 70365 86400 333 20220 58001 60304;EQDQ01+000062SCOTLC
0183825860999992001011418004-05190-039300FM-12+021199999V0200901N005119999999N0200001N1+03001+01911100911ADDAA199000091GF106991999021008001001001MA1999999098551MD1999999+0051REMSYN070AAXX  14184 82586 32598 60910 10300 20191 39855 40091 83200 333 58005;EQDQ01+000032SCOTLCQ02  00002PRCP99
0186825860999992001011500004-05190-039300FM-12+021199999V0200501N001510075019N0010001N1+02661+02441100971ADDAA199000091GF106991061021008001001001KA1240M+03081MA1999999098581MD1999999-0211REMSYN076AAXX  15004 82586 32594 60503 10266 20244 39858 40097 86200 333 10308 59021;EQDQ01  00002PRCP99
0186825860999992001011512004-05190-039300FM-12+021199999V02099999999992200019N0200001N1+02761+02041101081ADDAA199000091GF102991011011008001001021KA1240N+02341MA1999999098721MD1999999-0041REMSYN076AAXX  15124 82586 32598 209// 10276 20204 39872 40108 81102 333 20234 59004;EQDQ01  00002PRCP99
0167825860999992001011518004-05190-039300FM-12+021199999V0201401N004611050019N0200001N1+03281+01741100831ADDAA199000091GF105991031021008001001021MA1999999098481MD1999999-0071REMSYN070AAXX  15184 82586 32598 51409 10328 20174 39848 40083 83202 333 59007;EQDQ01  00002PRCP99
0186825860999992001011600004-05190-039300FM-12+021199999V0200501N005112200019N0010001N1+02661+02271100981ADDAA199000091GF103991031021008001001001KA1240M+03301MA1999999098621MD1999999+0041REMSYN076AAXX  16004 82586 32594 30510 10266 20227 39862 40098 83200 333 10330 58004;EQDQ01  00002PRCP99
0186825860999992001011612004-05190-039300FM-12+021199999V0200901N003610075019N0200001N1+02781+02251101071ADDAA199000091GF106991061041008001001001KA1240N+02381MA1999999098711MD1999999-0011REMSYN076AAXX  16124 82586 32598 60907 10278 20225 39871 40107 86400 333 20238 59001;EQDQ01  00002PRCP99
0167825860999992001011618004-05190-039300FM-12+021199999V02099999999990075019N0200001N1+03361+01891100821ADDAA199000091GF106991061021008001001001MA1999999098481MD1999999+0001REMSYN070AAXX  16184 82586 32598 609// 10336 20189 39848 40082 86200 333 58000;EQDQ01  00002PRCP99
0186825860999992001011700004-05190-039300FM-12+021199999V0200501N003112200019N0010001N1+02821+02121100951ADDAA199000091GF103991031021008001001001KA1240M+03391MA1999999098591MD1999999-0041REMSYN076AAXX  17004 82586 32594 30506 10282 20212 39859 40095 83200 333 10339 59004;EQDQ01  00002PRCP99
0186825860999992001011712004-05190-039300FM-12+021199999V0200901N003612200019N0200001N1+02881+01731100991ADDAA199000091GF102991011011008001001021KA1240N+02301MA1999999098631MD1999999-0081REMSYN076AAXX  17124 82586 32598 20907 10288 20173 39863 40099 81102 333 20230 59008;EQDQ01  00002PRCP99
0167825860999992001011718004-05190-039300FM-12+021199999V0201401N002110075019N0200001N1+03441+01631100761ADDAA199000091GF106991061021008001001001MA1999999098421MD1999999-0061REMSYN070AAXX  17184 82586 32598 61404 10344 20163 39842 40076 86200 333 59006;EQDQ01  00002PRCP99
0196825860999992001011800004-05190-039300FM-12+021199999V0200501N004112200019N0010001N1+02821+02151100911ADDAA199000091GA1001+999999999GF100991001001999999001001KA1240M+03391MA1999999098551MD1999999-0041REMSYN070AAXX  18004 82586 32994 00508 10282 20215 39855 40091 333 10339 59004;EQDQ01  00002PRCP99
0186825860999992001011812004-05190-039300FM-12+021199999V0200901N004612200019N0200001N1+02821+01941101081ADDAA199000091GF106991021011008001001041KA1240N+02401MA1999999098721MD1999999+0091REMSYN076AAXX  18124 82586 32598 60909 10282 20194 39872 40108 82104 333 20240 58009;EQDQ01  00002PRCP99
0167825860999992001011818004-05190-039300FM-12+021199999V0200901N003110075019N0200001N1+03431+01701100791ADDAA199000091GF106991061021008001001001MA1999999098451MD1999999+0031REMSYN070AAXX  18184 82586 32598 60906 10343 20170 39845 40079 86200 333 58003;EQDQ01  00002PRCP99
0196825860999992001011900004-05190-039300FM-12+021199999V02099999999992200019N0010001N1+02821+02221100981ADDAA199000091GA1001+999999999GF100991001001999999001001KA1240M+03491MA1999999098621MD1999999+0071REMSYN070AAXX  19004 82586 32994 005// 10282 20222 39862 40098 333 10349 58007;EQDQ01  00002PRCP99
0186825860999992001011912004-05190-039300FM-12+021199999V0200901N003612200019N0200001N1+02841+02071101191ADDAA199000091GF104991041011008001001001KA1240N+02341MA1999999098831MD1999999+0131REMSYN076AAXX  19124 82586 32598 40907 10284 20207 39883 40119 84100 333 20234 58013;EQDQ01  00002PRCP99
0167825860999992001011918004-05190-039300FM-12+021199999V0200901N003110075019N0200001N1+03431+01651100811ADDAA199000091GF106991061021008001001001MA1999999098471MD1999999+0021REMSYN070AAXX  19184 82586 32598 60906 10343 20165 39847 40081 86200 333 58002;EQDQ01  00002PRCP99
0196825860999992001012000004-05190-039300FM-12+021199999V0200501N005112200019N0010001N1+02861+02191101031ADDAA199000091GA1001+999999999GF100991001001999999001001KA1240M+03521MA1999999098671MD1999999+0051REMSYN070AAXX  20004 82586 32994 00510 10286 20219 39867 40103 333 10352 58005;EQDQ01  00002PRCP99
0186825860999992001012012004-05190-039300FM-12+021199999V0200901N003112200019N0200001N1+02861+02231101191ADDAA199000091GF104991021021008001061011KA1240N+02351MA1999999098831MD1999999+0001REMSYN076AAXX  20124 82586 32598 40906 10286 20223 39883 40119 82261 333 20235 58000;EQDQ01  00002PRCP99
0167825860999992001012018004-05190-039300FM-12+021199999V0200901N003110075019N0200001N1+03561+01681100851ADDAA199000091GF105991051021008001001001MA1999999098511MD1999999+0041REMSYN070AAXX  20184 82586 32598 50906 10356 20168 39851 40085 85200 333 58004;EQDQ01  00002PRCP99
0196825860999992001012100004-05190-039300FM-12+021199999V0200501N005112200019N0010001N1+02821+02171101011ADDAA199000091GA1001+999999999GF100991001001999999001001KA1240M+03581MA1999999098651MD1999999-0021REMSYN070AAXX  21004 82586 32994 00510 10282 20217 39865 40101 333 10358 59002;EQDQ01  00002PRCP99
0186825860999992001012112004-05190-039300FM-12+021199999V0200501N003110450019N0200001N1+02801+02271101151ADDAA199000091GF108991031021008001021999KA1240N+02351MA1999999098791MD1999999-0041REMSYN076AAXX  21124 82586 32598 80506 10280 20227 39879 40115 8322/ 333 20235 59004;EQDQ01  00002PRCP99
0167825860999992001012118004-05190-039300FM-12+021199999V02099999999990450019N0200001N1+03241+01961100831ADDAA199000091GF108991041021008001021999MA1999999098481MD1999999-0031REMSYN070AAXX  21184 82586 32598 805// 10324 20196 39848 40083 8422/ 333 59003;EQDQ01  00002PRCP99
0196825860999992001012200004-05190-039300FM-12+021199999V02099999999992200019N0010001N1+02761+02281101051ADDAA199000091GA1001+999999999GF100991001001999999001001KA1240M+03221MA1999999098691MD1999999+0041REMSYN070AAXX  22004 82586 32994 005// 10276 20228 39869 40105 333 10322 58004;EQDQ01  00002PRCP99
0186825860999992001012212004-05190-039300FM-12+021199999V0200501N004610075019N0200001N1+02701+02371101171ADDAA199000091GF107991071041008001001001KA1240N+02421MA1999999098811MD1999999+0021REMSYN076AAXX  22124 82586 32598 70509 10270 20237 39881 40117 87400 333 20242 58002;EQDQ01  00002PRCP99
0167825860999992001012218004-05190-039300FM-12+021199999V0200501N005110450019N0200001N1+03441+01841100821ADDAA199000091GF107991031021008001021001MA1999999098481MD1999999+0001REMSYN070AAXX  22184 82586 32598 70510 10344 20184 39848 40082 83220 333 58000;EQDQ01  00002PRCP99
0196825860999992001012300004-05190-039300FM-12+021199999V0200501N000512200019N0010001N1+02761+02341100951ADDAA199000091GA1001+999999999GF100991001001999999001001KA1240M+03521MA1999999098591MD1999999-0101REMSYN070AAXX  23004 82586 32994 00501 10276 20234 39859 40095 333 10352 59010;EQDQ01  00002PRCP99
0186825860999992001012312004-05190-039300FM-12+021199999V0200901N003110075019N0200001N1+02801+02201101061ADDAA199000091GF106991061041008001001001KA1240N+02401MA1999999098701MD1999999-0111REMSYN076AAXX  23124 82586 32598 60906 10280 20220 39870 40106 86400 333 20240 59011;EQDQ01  00002PRCP99
0167825860999992001012318004-05190-039300FM-12+021199999V0200901N003112200019N0200001N1+03491+01521100741ADDAA199000091GF104991041021008001001001MA1999999098401MD1999999-0081REMSYN070AAXX  23184 82586 32598 40906 10349 20152 39840 40074 84200 333 59008;EQDQ01  00002PRCP99
0196825860999992001012400004-05190-039300FM-12+021199999V0200501N005112200019N0010001N1+02851+02071100911ADDAA199000091GA1001+999999999GF100991001001999999001001KA1240M+03561MA1999999098551MD1999999-0041REMSYN070AAXX  24004 82586 32994 00510 10285 20207 39855 40091 333 10356 59004;EQDQ01  00002PRCP99
0186825860999992001012412004-05190-039300FM-12+021199999V0200901N004110075019N0200001N1+02801+02131101151ADDAA199000091GF106991061041008001001001KA1240N+02481MA1999999098791MD1999999+0091REMSYN076AAXX  24124 82586 32598 60908 10280 20213 39879 40115 86400 333 20248 58009;EQDQ01  00002PRCP99
0167825860999992001012418004-05190-039300FM-12+021199999V0200501N001510075019N0200001N1+03501+01721100811ADDAA199000091GF105991051021008001001001MA1999999098471MD1999999+0071REMSYN070AAXX  24184 82586 32598 50503 10350 20172 39847 40081 85200 333 58007;EQDQ01  00002PRCP99
0196825860999992001012500004-05190-039300FM-12+021199999V0200501N004112200019N0010001N1+02701+02261101011ADDAA199000091GA1001+999999999GF100991001001999999001001KA1240M+03571MA1999999098651MD1999999+0101REMSYN070AAXX  25004 82586 32994 00508 10270 20226 39865 40101 333 10357 58010;EQDQ01  00002PRCP99
0186825860999992001012512004-05190-039300FM-12+021199999V0200901N003610075019N0200001N1+02741+02321101081ADDAA199000091GF106991061041008001001001KA1240N+02401MA1999999098721MD1999999-0071REMSYN076AAXX  25124 82586 32598 60907 10274 20232 39872 40108 86400 333 20240 59007;EQDQ01  00002PRCP99
0167825860999992001012518004-05190-039300FM-12+021199999V0201401N001510075019N0200001N1+03461+01901100761ADDAA199000091GF105991051041008001001001MA1999999098471MD1999999-0051REMSYN070AAXX  25184 82586 32598 51403 10346 20190 39847 40076 85400 333 59005;EQDQ01  00002PRCP99
0196825860999992001012600004-05190-039300FM-12+021199999V0200501N005112200019N0010001N1+02741+01971101001ADDAA199000091GA1001+999999999GF100991001001999999001001KA1240M+03501MA1999999098641MD1999999-0011REMSYN070AAXX  26004 82586 32994 00510 10274 20197 39864 40100 333 10350 59001;EQDQ01  00002PRCP99
0186825860999992001012612004-05190-039300FM-12+021199999V0200501N003110075019N0200001N1+02781+02091101111ADDAA199000091GF105991051021008001001001KA1240N+02381MA1999999098751MD1999999+0031REMSYN076AAXX  26124 82586 32598 50506 10278 20209 39875 40111 85200 333 20238 58003;EQDQ01  00002PRCP99
0167825860999992001012618004-05190-039300FM-12+021199999V0200901N004112200019N0200001N1+03491+01661100771ADDAA199000091GF104991041021008001001001MA1999999098431MD1999999+0011REMSYN070AAXX  26184 82586 32598 40908 10349 20166 39843 40077 84200 333 58001;EQDQ01  00002PRCP99
0196825860999992001012700004-05190-039300FM-12+021199999V0200501N003112200019N0010001N1+02841+02041100891ADDAA199000091GA1001+999999999GF100991001001999999001001KA1240M+03531MA1999999098541MD1999999-0101REMSYN070AAXX  27004 82586 32994 00506 10284 20204 39854 40089 333 10353 59010;EQDQ01  00002PRCP99
0186825860999992001012712004-05190-039300FM-12+021199999V0200901N003110075019N0200001N1+02781+02231101091ADDAA199000091GF106991061021008001001001KA1240N+02441MA1999999098731MD1999999-0021REMSYN076AAXX  27124 82586 32598 60906 10278 20223 39873 40109 86200 333 20244 59002;EQDQ01  00002PRCP99
0167825860999992001012718004-05190-039300FM-12+021199999V0201401N002112200019N0200001N1+03421+01911100821ADDAA199000091GF104991041021008001001001MA1999999098481MD1999999+0051REMSYN070AAXX  27184 82586 32598 41404 10342 20191 39848 40082 84200 333 58005;EQDQ01  00002PRCP99
0196825860999992001012800004-05190-039300FM-12+021199999V0200501N003112200019N0010001N1+02751+02121100951ADDAA199000091GA1001+999999999GF100991001001999999001001KA1240M+03501MA1999999098591MD1999999+0051REMSYN070AAXX  28004 82586 32994 00506 10275 20212 39859 40095 333 10350 58005;EQDQ01  00002PRCP99
0186825860999992001012812004-05190-039300FM-12+021199999V0200901N002110075019N0200001N1+02781+02341101031ADDAA199000091GF106991061021008001001001KA1240N+02361MA1999999098671MD1999999-0011REMSYN076AAXX  28124 82586 32598 60904 10278 20234 39867 40103 86200 333 20236 59001;EQDQ01  00002PRCP99
0167825860999992001012818004-05190-039300FM-12+021199999V02099999999992200019N0200001N1+03441+01761100781ADDAA199000091GF104991041021008001001001MA1999999098441MD1999999-0041REMSYN070AAXX  28184 82586 32598 414// 10344 20176 39844 40078 84200 333 59004;EQDQ01  00002PRCP99
0196825860999992001012900004-05190-039300FM-12+021199999V0200501N005112200019N0010001N1+02781+02061100871ADDAA199000091GA1001+999999999GF100991001001999999001001KA1240M+03501MA1999999098251MD1999999-0071REMSYN070AAXX  29004 82586 32994 00510 10278 20206 39825 40087 333 10350 59007;EQDQ01  00002PRCP99
0186825860999992001012912004-05190-039300FM-12+021199999V0200901N005710075019N0200001N1+02761+02231101031ADDAA199000091GF106991061041008001001001KA1240N+02421MA1999999098671MD1999999+0001REMSYN076AAXX  29124 82586 32598 60911 10276 20223 39867 40103 86400 333 20242 58000;EQDQ01  00002PRCP99
0167825860999992001012918004-05190-039300FM-12+021199999V0200901N001510075019N0200001N1+03391+01621100871ADDAA199000091GF106991061041008001001001MA1999999098531MD1999999+0091REMSYN070AAXX  29184 82586 32598 60903 10339 20162 39853 40087 86400 333 58009;EQDQ01  00002PRCP99
0196825860999992001013000004-05190-039300FM-12+021199999V0200501N005112200019N0010001N1+02841+01961100731ADDAA199000091GA1001+999999999GF100991001001999999001001KA1240M+03491MA1999999098381MD1999999-0141REMSYN070AAXX  30004 82586 32994 00510 10284 20196 39838 40073 333 10349 59014;EQDQ01  00002PRCP99
0202825860999992001013012004-05190-039300FM-12+021199999V0200501N001512200019N0200001N1+02821+02271100921ADDAA199000091GF102991999021008001001011KA1240N+02321MA1999999098561MD1999999-0111REMSYN076AAXX  30124 82586 32598 20503 10282 20227 39856 40092 84201 333 20232 59011;EQDQ01+000042SCOTLCQ02  00002PRCP99
0167825860999992001013018004-05190-039300FM-12+021199999V0200501N002110075019N0200001N1+03391+01791100591ADDAA199000091GF106991061021008001001001MA1999999098521MD1999999-0321REMSYN070AAXX  30184 82586 32598 60504 10339 20179 39852 40059 86200 333 59032;EQDQ01  00002PRCP99
0196825860999992001013100004-05190-039300FM-12+021199999V0200501N003612200019N0010001N1+02801+02081100681ADDAA199000091GA1001+999999999GF100991001001999999001001KA1240M+03361MA1999999098331MD1999999-0061REMSYN070AAXX  31004 82586 32994 00507 10280 20208 39833 40068 333 10336 59006;EQDQ01  00002PRCP99
0201825860999992001013112004-05190-039300FM-12+021199999V0200501N002110450019N0200001N1+02481+02391100941ADDAA124006191AY161061AY251061GF108991041021008001021999KA1240N+02261MA1999999098581MD1999999+0021MW1031REMSYN088AAXX  31124 82586 21598 80504 10248 20239 39858 40094 70365 8422/ 333 20226 58002 60064;
0167825860999992001013118004-05190-039300FM-12+021199999V02099999999992200019N0200001N1+03051+02061100721ADDAA199000091GF106991031021008001001041MA1999999098631MD1999999+0111REMSYN070AAXX  31184 82586 32598 614// 10305 20206 39863 40072 83204 333 58011;EQDQ01  00002PRCP99
0196825860999992001020100004-05190-039300FM-12+021199999V0203601N001512200019N0010001N1+02661+02391100851ADDAA199000091GA1001+999999999GF100991001001999999001001KA1240M+03111MA1999999098471MD1999999+0141REMSYN070AAXX  01004 82586 32994 03603 10266 20239 39847 40085 333 10311 58014;EQDQ01  00002PRCP99
0186825860999992001020112004-05190-039300FM-12+021199999V0200501N001510075019N0200001N1+02621+02411100981ADDAA199000091GF106991061041008001001001KA1240N+02341MA1999999098521MD1999999-0061REMSYN076AAXX  01124 82586 32598 60503 10262 20241 39852 40098 86400 333 20234 59006;EQDQ01  00002PRCP99
0167825860999992001020118004-05190-039300FM-12+021199999V0200501N002610075019N0200001N1+03331+01781100591ADDAA199000091GF106991061021008001001001MA1999999098251MD1999999-0111REMSYN070AAXX  01184 82586 32598 60505 10333 20178 39825 40059 86200 333 59011;EQDQ01  00002PRCP99
0196825860999992001020200004-05190-039300FM-12+021199999V0200501N003112200019N0010001N1+02741+02321100741ADDAA199000091GA1001+999999999GF100991001001999999001001KA1240M+03381MA1999999098381MD1999999-0091REMSYN070AAXX  02004 82586 32994 00506 10274 20232 39838 40074 333 10338 59009;EQDQ01  00002PRCP99
0186825860999992001020212004-05190-039300FM-12+021199999V0200901N001012200019N0200001N1+02721+02281100931ADDAA199000091GF106991041041008001001011KA1240N+02241MA1999999098571MD1999999+0051REMSYN076AAXX  02124 82586 32598 60902 10272 20228 39857 40093 84401 333 20224 58005;EQDQ01  00002PRCP99
0182825860999992001020218004-05190-039300FM-12+021199999V0201801N000510075019N0200001N1+02801+02621100631ADDAA106004191AY161061AY221061GF106991061041008001001001MA1999999098261MD1999999+0011MW1211REMSYN082AAXX  02184 82586 21598 61801 10280 20262 39826 40063 72162 86400 333 58001 60041;
0201825860999992001020300004-05190-039300FM-12+021199999V0203601N001510075019N0010001N1+02481+02341100791ADDAA106007191AY161061AY221061GF106991061021008001001001KA1240M+03351MA1999999098421MD1999999-0041MW1031REMSYN088AAXX  03004 82586 21594 63603 10248 20234 39842 40079 70362 86200 333 10335 59004 60071;
0173825860999992001020312004-05190-039300FM-12+021199999V0200501N003610075019N0200001N1+02781+02461100901ADDAA124009991GF106991061041008001001001KA1240N+02281MA1999999098541MD1999999-0031REMSYN082AAXX  03124 82586 22598 60507 10278 20246 39854 40090 86400 333 20228 59003 60104;
0167825860999992001020318004-05190-039300FM-12+021199999V0200901N004112200019N0200001N1+03321+01971100611ADDAA199000091GF106991031021008001001041MA1999999098271MD1999999+0011REMSYN070AAXX  03184 82586 32598 60908 10332 20197 39827 40061 83204 333 58001;EQDQ01  00002PRCP99
0214825860999992001020400004-05190-039300FM-12+021199999V02099999999992200019N0010001N1+02721+02451100811ADDAA199000091AY121061AY221061GF104991041031008001001001KA1240M+03441MA1999999098451MD1999999+0031MW1131REMSYN082AAXX  04004 82586 31594 405// 10272 20245 39845 40081 71322 84300 333 10344 58003;EQDQ01  00002PRCP99
0202825860999992001020412004-05190-039300FM-12+021199999V0201401N001519999999N0200001N1+02361+02011101061ADDAA199000091GF106991999021008001001001KA1240N+02251MA1999999098681MD1999999+0141REMSYN076AAXX  04124 82586 32598 61403 10236 20201 39868 40106 84200 333 20225 58014;EQDQ01+000042SCOTLCQ02  00002PRCP99
0201825860999992001020418004-05190-039300FM-12+021199999V0201801N000519999999N0200001N1+03221+01571100831ADDAA106000391AY151061AY221061GF106991999021008001001001MA1999999098481MD1999999+0211MW1031REMSYN082AAXX  04184 82586 21598 61801 10322 20157 39848 40083 70352 83200 333 58021 69931;EQDQ01+000032SCOTLC
0202825860999992001020500004-05190-039300FM-12+021199999V0200501N003119999999N0010001N1+02701+02001100941ADDAA199000091GF105991999021008001001001KA1240M+03301MA1999999098581MD1999999+0131REMSYN076AAXX  05004 82586 32594 50506 10270 20200 39858 40094 83200 333 10330 58013;EQDQ01+000032SCOTLCQ02  00002PRCP99
0173825860999992001020512004-05190-039300FM-12+021199999V0200501N003110075019N0200001N1+02741+01761101041ADDAA124000391GF106991061041008001001001KA1240N+02321MA1999999098681MD1999999+0001REMSYN082AAXX  05124 82586 22598 60506 10274 20176 39868 40104 86400 333 20232 58000 69934;
0167825860999992001020518004-05190-039300FM-12+021199999V0200901N003112200019N0200001N1+03361+01141100731ADDAA199000091GF105991021011008001001041MA1999999098391MD1999999-0091REMSYN070AAXX  05184 82586 32598 50906 10336 20114 39839 40073 82104 333 59009;EQDQ01  00002PRCP99
0196825860999992001020600004-05190-039300FM-12+021199999V0200501N005112200019N0010001N1+02801+01301100851ADDAA199000091GA1001+999999999GF100991001001999999001001KA1240M+03421MA1999999098491MD1999999-0091REMSYN070AAXX  06004 82586 32994 00510 10280 20130 39849 40085 333 10342 59009;EQDQ01  00002PRCP99
0186825860999992001020612004-05190-039300FM-12+021199999V0200501N001510075019N0200001N1+02871+01721101051ADDAA199000091GF107991071041008001001001KA1240N+02321MA1999999098691MD1999999+0011REMSYN076AAXX  06124 82586 32598 70503 10287 20172 39869 40105 87400 333 20232 58001;EQDQ01  00002PRCP99
0167825860999992001020618004-05190-039300FM-12+021199999V0200901N001510075019N0200001N1+03421+01311100731ADDAA199000091GF105991051021008001001001MA1999999098391MD1999999+0001REMSYN070AAXX  06184 82586 32598 50903 10342 20131 39839 40073 85200 333 58000;EQDQ01  00002PRCP99
0196825860999992001020700004-05190-039300FM-12+021199999V0200501N003112200019N0010001N1+02801+01841100951ADDAA199000091GA1001+999999999GF100991001001999999001001KA1240M+03521MA1999999098591MD1999999+0101REMSYN070AAXX  07004 82586 32994 00506 10280 20184 39859 40095 333 10352 58010;EQDQ01  00002PRCP99
0167825860999992001020718004-05190-039300FM-12+021199999V0200501N003112200019N0200001N1+03501+00871100691ADDAA199000091GF103991031011008001001001MA1999999098351MD1999999-0041REMSYN070AAXX  07184 82586 32598 30506 10350 20087 39835 40069 83100 333 59004;EQDQ01  00002PRCP99
0196825860999992001020800004-05190-039300FM-12+021199999V0200501N003612200019N0010001N1+02881+01221101001ADDAA199000091GA1001+999999999GF100991001001999999001001KA1240M+03561MA1999999098641MD1999999+0051REMSYN070AAXX  08004 82586 32994 00507 10288 20122 39864 40100 333 10356 58005;EQDQ01  00002PRCP99
0186825860999992001020812004-05190-039300FM-12+021199999V0200901N003612200019N0200001N1+02881+01671100981ADDAA199000091GF104991041021008001001001KA1240N+02381MA1999999098631MD1999999-0041REMSYN076AAXX  08124 82586 32598 40907 10288 20167 39863 40098 84200 333 20238 59004;EQDQ01  00002PRCP99
0167825860999992001020818004-05190-039300FM-12+021199999V0201401N002110075019N0200001N1+03491+01251100611ADDAA199000091GF105991051021008001001001MA1999999098271MD1999999-0081REMSYN070AAXX  08184 82586 32598 51404 10349 20125 39827 40061 85200 333 59008;EQDQ01  00002PRCP99
0186825860999992001020900004-05190-039300FM-12+021199999V0200501N005110075019N0010001N1+02731+01931100791ADDAA199000091GF106991061021008001001001KA1240M+03551MA1999999098441MD1999999-0201REMSYN076AAXX  09004 82586 32594 60510 10273 20193 39844 40079 86200 333 10355 59020;EQDQ01  00002PRCP99
0201825860999992001020912004-05190-039300FM-12+021199999V0200901N003610120019N0200001N1+02761+01991100881ADDAA124000191AY151061AY221061GF108991081081008001999999KA1240N+02461MA1999999098521MD1999999-0111MW1031REMSYN088AAXX  09124 82586 21598 80907 10276 20199 39852 40088 70352 888// 333 20246 59011 69924;
0167825860999992001020918004-05190-039300FM-12+021199999V0201401N003611050019N0200001N1+03441+01631100581ADDAA199000091GF106991031021008001001021MA1999999098241MD1999999-0031REMSYN070AAXX  09184 82586 32598 61407 10344 20163 39824 40058 83202 333 59003;EQDQ01  00002PRCP99
0201825860999992001021000004-05190-039300FM-12+021199999V0200501N003110075019N0010001N1+02661+02331100841ADDAA199000091AY121061AY221061GF108991081091008001999999MA1999999098481MD1999999+0041MW1131REMSYN082AAXX  10004 82586 31594 80506 10266 20233 39848 40084 71322 889// 333 10/// 58004;EQDQ01  00002PRCP99
0201825860999992001021012004-05190-039300FM-12+021199999V0200901N002612200019N0200001N1+02841+02191100891ADDAA124000191AY151061AY221061GF104991041021008001001021KA1240N+02401MA1999999098531MD1999999+0011MW1031REMSYN088AAXX  10124 82586 21598 40905 10284 20219 39853 40089 70352 84202 333 20240 58001 69924;
0167825860999992001021018004-05190-039300FM-12+021199999V0200901N001510075019N0200001N1+03361+01931100581ADDAA199000091GF105991051021008001001001MA1999999098241MD1999999+0001REMSYN070AAXX  10184 82586 32598 50903 10336 20193 39824 40058 85200 333 58000;EQDQ01  00002PRCP99
0183825860999992001021100004-05190-039300FM-12+021199999V0200501N003112200019N0010001N1+02801+02001100801ADDAA199000091GA1001+999999999GF100991001001999999001001MA1999999098451MD1999999-0031REMSYN070AAXX  11004 82586 32994 00506 10280 20200 39845 40080 333 10/// 59003;EQDQ01  00002PRCP99
0186825860999992001021112004-05190-039300FM-12+021199999V02099999999990075019N0200001N1+02721+02051101061ADDAA199000091GF107991071051008001001001KA1240N+02341MA1999999098701MD1999999+0171REMSYN076AAXX  11124 82586 32598 705// 10272 20205 39870 40106 87500 333 20234 58017;EQDQ01  00002PRCP99
0167825860999992001021118004-05190-039300FM-12+021199999V02099999999992200019N0200001N1+03421+01911100721ADDAA199000091GF104991041011008001001001MA1999999098381MD1999999+0141REMSYN070AAXX  11184 82586 32598 409// 10342 20191 39838 40072 84100 333 58014;EQDQ01  00002PRCP99
0183825860999992001021200004-05190-039300FM-12+021199999V0200501N003112200019N0010001N1+02761+02191100891ADDAA199000091GA1001+999999999GF100991001001999999001001MA1999999098531MD1999999+0081REMSYN070AAXX  12004 82586 32994 00506 10276 20219 39853 40089 333 10/// 58008;EQDQ01  00002PRCP99
0186825860999992001021212004-05190-039300FM-12+021199999V0200901N003110075019N0200001N1+02721+02451101001ADDAA199000091GF106991061041008001001001KA1240N+02361MA1999999098641MD1999999-0061REMSYN076AAXX  12124 82586 32598 60906 10272 20245 39864 40100 86400 333 20236 59006;EQDQ01  00002PRCP99
0174825860999992001021218004-05190-039300FM-12+021199999V0202701N000510075019N0200001N1+03031+02391100721ADDAA199000091AY121061AY221061GF107991071071008001001001MD1999999-0021MW1151REMSYN070AAXX  12184 82586 31598 72701 10303 20239 40072 71522 87700 333 59002;EQDQ01  00002PRCP99
0188825860999992001021300004-05190-039300FM-12+021199999V0209999C000010075019N0010001N1+02481+02181100961ADDAA106004191AY161061AY221061GF106991061021008001001001MA1999999098591MD1999999+0061MW1031REMSYN088AAXX  13004 82586 21594 60000 10248 20218 39859 40096 70362 86200 333 10/// 58006 60041;
0173825860999992001021312004-05190-039300FM-12+021199999V0201401N002610075019N0200001N1+02761+01891100951ADDAA124004191GF106991061041008001001001KA1240N+02361MA1999999098581MD1999999-0061REMSYN082AAXX  13124 82586 22598 61405 10276 20189 39858 40095 86400 333 20236 59006 60044;
0167825860999992001021318004-05190-039300FM-12+021199999V02099999999990075019N0200001N1+03351+01451100551ADDAA199000091GF105991051021008001001001MA1999999098211MD1999999-0151REMSYN070AAXX  13184 82586 32598 514// 10335 20145 39821 40055 85200 333 59015;EQDQ01  00002PRCP99
0160825860999992001021400004-05190-039300FM-12+021199999V02099999999990075019N0010001N1+02631+02211100901ADDAA106006191GF106991061031008001001001MA1999999098441MD1999999-0151REMSYN082AAXX  14004 82586 21594 605// 10263 20221 39844 40090 86300 333 10/// 59015 60061;
0173825860999992001021412004-05190-039300FM-12+021199999V0200501N003612200019N0200001N1+02741+02001100941ADDAA124006191GF104991041021008001001001KA1240N+02441MA1999999098581MD1999999+0001REMSYN082AAXX  14124 82586 22598 40507 10274 20200 39858 40094 84200 333 20244 58000 60064;
0167825860999992001021418004-05190-039300FM-12+021199999V0200501N003112200019N0200001N1+03461+00981100581ADDAA199000091GF104991021011008001001041MA1999999098241MD1999999+0031REMSYN070AAXX  14184 82586 32598 40506 10346 20098 39824 40058 82104 333 58003;EQDQ01  00002PRCP99
0183825860999992001021500004-05190-039300FM-12+021199999V0200501N003112200019N0010001N1+02861+01651100721ADDAA199000091GA1001+999999999GF100991001001999999001001MA1999999098371MD1999999-0071REMSYN070AAXX  15004 82586 32994 00506 10286 20165 39837 40072 333 10/// 59007;EQDQ01  00002PRCP99
0186825860999992001021512004-05190-039300FM-12+021199999V0200501N003612200019N0200001N1+02741+01611100951ADDAA199000091GF104991041051008001001001KA1240N+02331MA1999999098591MD1999999+0011REMSYN076AAXX  15124 82586 32598 40507 10274 20161 39859 40095 84500 333 20233 58001;EQDQ01  00002PRCP99
0167825860999992001021518004-05190-039300FM-12+021199999V0201801N001510075019N0200001N1+03381+01381100661ADDAA199000091GF106991061021008001001001MA1999999098321MD1999999+0081REMSYN070AAXX  15184 82586 32598 61803 10338 20138 39832 40066 86200 333 58008;EQDQ01  00002PRCP99
0183825860999992001021600004-05190-039300FM-12+021199999V0200901N003112200019N0010001N1+02881+01801100781ADDAA199000091GA1001+999999999GF100991001001999999001001MA1999999098431MD1999999+0061REMSYN070AAXX  16004 82586 32994 00906 10288 20180 39843 40078 333 10/// 58006;EQDQ01  00002PRCP99
0186825860999992001021612004-05190-039300FM-12+021199999V0200901N003110075019N0200001N1+02901+01691101011ADDAA199000091GF106991061021008001001001KA1240N+02321MA1999999098661MD1999999+0031REMSYN076AAXX  16124 82586 32598 60906 10290 20169 39866 40101 86200 333 20232 58003;EQDQ01  00002PRCP99
0167825860999992001021618004-05190-039300FM-12+021199999V0201401N003112200019N0200001N1+03471+01341100711ADDAA199000091GF104991041011008001001001MA1999999098371MD1999999+0051REMSYN070AAXX  16184 82586 32598 41406 10347 20134 39837 40071 84100 333 58005;EQDQ01  00002PRCP99
0196825860999992001021700004-05190-039300FM-12+021199999V0200901N003112200019N0010001N1+02871+01581100851ADDAA199000091GA1001+999999999GF100991001001999999001001KA1240M+03601MA1999999098511MD1999999+0081REMSYN070AAXX  17004 82586 32994 00906 10287 20158 39851 40085 333 10360 58008;EQDQ01  00002PRCP99
0202825860999992001021712004-05190-039300FM-12+021199999V0200901N002619999999N0200001N1+02901+01721101041ADDAA199000091GF106991999011008001001001KA1240N+02381MA1999999098691MD1999999+0031REMSYN076AAXX  17124 82586 32598 60905 10290 20172 39869 40104 82100 333 20238 58003;EQDQ01+000022SCOTLCQ02  00002PRCP99
0167825860999992001021718004-05190-039300FM-12+021199999V0200901N002110075019N0200001N1+03501+01141100751ADDAA199000091GF106991061021008001001001MA1999999098411MD1999999+0041REMSYN070AAXX  17184 82586 32598 60904 10350 20114 39841 40075 86200 333 58004;EQDQ01  00002PRCP99
0196825860999992001021800004-05190-039300FM-12+021199999V0200501N004112200019N0010001N1+02831+01681100881ADDAA199000091GA1001+999999999GF100991001001999999001001KA1240M+03681MA1999999098531MD1999999+0021REMSYN070AAXX  18004 82586 32994 00508 10283 20168 39853 40088 333 10368 58002;EQDQ01  00002PRCP99
0186825860999992001021812004-05190-039300FM-12+021199999V0200901N002110075019N0200001N1+02741+01951101211ADDAA199000091GF107991071071008001001001KA1240N+02521MA1999999098851MD1999999+0161REMSYN076AAXX  18124 82586 32598 70904 10274 20195 39885 40121 87700 333 20252 58016;EQDQ01  00002PRCP99
0167825860999992001021818004-05190-039300FM-12+021199999V0200901N002610075019N0200001N1+03421+01311100861ADDAA199000091GF106991061051008001001001MA1999999098521MD1999999+0111REMSYN070AAXX  18184 82586 32598 60905 10342 20131 39852 40086 86500 333 58011;EQDQ01  00002PRCP99
0196825860999992001021900004-05190-039300FM-12+021199999V0200901N003112200019N0010001N1+02951+01721101011ADDAA199000091GA1001+999999999GF100991001001999999001001KA1240M+03541MA1999999098651MD1999999-0121REMSYN070AAXX  19004 82586 32994 00906 10295 20172 39865 40101 333 10354 59012;EQDQ01  00002PRCP99
0186825860999992001021912004-05190-039300FM-12+021199999V0200501N001510075019N0200001N1+02781+01921101071ADDAA199000091GF106991061071008001001001KA1240N+02481MA1999999098721MD1999999-0131REMSYN076AAXX  19124 82586 32598 60503 10278 20192 39872 40107 86700 333 20248 59013;EQDQ01  00002PRCP99
0167825860999992001021918004-05190-039300FM-12+021199999V0200501N003110075019N0200001N1+03421+01411100821ADDAA199000091GF106991061041008001001001MA1999999098481MD1999999-0041REMSYN070AAXX  19184 82586 32598 60506 10342 20141 39848 40082 86400 333 59004;EQDQ01  00002PRCP99
0186825860999992001022012004-05190-039300FM-12+021199999V0200901N004110075019N0200001N1+02961+01961101001ADDAA199000091GF106991061041008001001001KA1240N+02481MA1999999098651MD1999999-0071REMSYN076AAXX  20124 82586 32598 60908 10296 20196 39865 40100 86400 333 20248 59007;EQDQ01  00002PRCP99
0167825860999992001022018004-05190-039300FM-12+021199999V0201401N004112200019N0200001N1+03521+01391100661ADDAA199000091GF106991031021008001001041MA1999999098331MD1999999-0151REMSYN070AAXX  20184 82586 32598 61408 10352 20139 39833 40066 83204 333 59015;EQDQ01  00002PRCP99
0186825860999992001022100004-05190-039300FM-12+021199999V0200901N003112200019N0010001N1+02851+01761100831ADDAA199000091GF104991041021008001001001KA1240M+03601MA1999999098491MD1999999-0091REMSYN076AAXX  21004 82586 32594 40906 10285 20176 39849 40083 84200 333 10360 59009;EQDQ01  00002PRCP99
0186825860999992001022112004-05190-039300FM-12+021199999V0200901N004610450019N0200001N1+02881+01891100941ADDAA199000091GF108991041021008001021999KA1240N+02521MA1999999098591MD1999999-0061REMSYN076AAXX  21124 82586 32598 80909 10288 20189 39859 40094 8422/ 333 20252 59006;EQDQ01  00002PRCP99
0183825860999992001022118004-05190-039300FM-12+021199999V0201801N002619999999N0200001N1+03321+01611100671ADDAA199000091GF106991999021008001001001MA1999999098331MD1999999+0001REMSYN070AAXX  21184 82586 32598 61805 10332 20161 39833 40067 82200 333 58000;EQDQ01+000022SCOTLCQ02  00002PRCP99
0196825860999992001022200004-05190-039300FM-12+021199999V0200501N004112200019N0010001N1+02821+01911100771ADDAA199000091GA1001+999999999GF100991001001999999001001KA1240M+03461MA1999999098421MD1999999-0071REMSYN070AAXX  22004 82586 32994 00508 10282 20191 39842 40077 333 10346 59007;EQDQ01  00002PRCP99
0186825860999992001022212004-05190-039300FM-12+021199999V0201401N003610450019N0200001N1+02801+01901100961ADDAA199000091GF108991041021008001021999KA1240N+02501MA1999999098601MD1999999+0011REMSYN076AAXX  22124 82586 32598 81407 10280 20190 39860 40096 8422/ 333 20250 58001;EQDQ01  00002PRCP99
0183825860999992001022218004-05190-039300FM-12+021199999V0201401N002119999999N0200001N1+03391+01481100651ADDAA199000091GF106991999021008001001001MA1999999098311MD1999999-0021REMSYN070AAXX  22184 82586 32598 61404 10339 20148 39831 40065 83200 333 59002;EQDQ01+000032SCOTLCQ02  00002PRCP99
0196825860999992001022300004-05190-039300FM-12+021199999V0201401N004612200019N0010001N1+02891+01941100831ADDAA199000091GA1001+999999999GF100991001001999999001001KA1240M+03521MA1999999098481MD1999999+0061REMSYN070AAXX  23004 82586 32994 01409 10289 20194 39848 40083 333 10352 58006;EQDQ01  00002PRCP99
0186825860999992001022312004-05190-039300FM-12+021199999V0200901N001510450019N0200001N1+02841+01961100931ADDAA199000091GF108991041041008001011999KA1240N+02461MA1999999098581MD1999999-0021REMSYN076AAXX  23124 82586 32598 80903 10284 20196 39858 40093 8441/ 333 20246 59002;EQDQ01  00002PRCP99
0167825860999992001022318004-05190-039300FM-12+021199999V0200901N001510075019N0200001N1+03331+01481100681ADDAA199000091GF106991061041008001001001MA1999999098341MD1999999+0031REMSYN070AAXX  23184 82586 32598 60903 10333 20148 39834 40068 86400 333 58003;EQDQ01  00002PRCP99
0186825860999992001022400004-05190-039300FM-12+021199999V02099999999992200019N0010001N1+02721+01791100831ADDAA199000091GF104991041041008001001001KA1240M+03421MA1999999098481MD1999999+0001REMSYN076AAXX  24004 82586 32594 405// 10272 20179 39848 40083 84400 333 10342 58000;EQDQ01  00002PRCP99
0202825860999992001022412004-05190-039300FM-12+021199999V0200901N002619999999N0200001N1+02961+01931100941ADDAA199000091GF105991999011008001001001KA1240N+02401MA1999999098581MD1999999+0001REMSYN076AAXX  24124 82586 32598 50905 10296 20193 39858 40094 82100 333 20240 58000;EQDQ01+000022SCOTLCQ02  00002PRCP99
0202825860999992001022500004-05190-039300FM-12+021199999V0203601N001519999999N0010001N1+03021+01761100761ADDAA199000091GF105991999011008001001001KA1240M+03641MA1999999098421MD1999999-0061REMSYN076AAXX  25004 82586 32594 53603 10302 20176 39842 40076 82100 333 10364 59006;EQDQ01+000022SCOTLCQ02  00002PRCP99
0186825860999992001022512004-05190-039300FM-12+021199999V0200501N003610075019N0200001N1+02881+02031100841ADDAA199000091GF106991061051008001001001KA1240N+02521MA1999999098501MD1999999-0081REMSYN076AAXX  25124 82586 32598 60507 10288 20203 39850 40084 86500 333 20252 59008;EQDQ01  00002PRCP99
0167825860999992001022518004-05190-039300FM-12+021199999V0200501N003112200019N0200001N1+03561+01641100511ADDAA199000091GF104991041021008001001001MA1999999098191MD1999999-0041REMSYN070AAXX  25184 82586 32598 40506 10356 20164 39819 40051 84200 333 59004;EQDQ01  00002PRCP99
0230825860999992001022600004-05190-039300FM-12+021199999V0203601N003619999999N0010001N1+02821+01971100711ADDAA199000091AY121061AY221061GF106991999001008001001001KA1240M+03691MA1999999098371MD1999999-0051MW1131REMSYN082AAXX  26004 82586 31594 63607 10282 20197 39837 40071 71322 83000 333 10369 59005;EQDQ01+000032SCOTLCQ02  00002PRCP99
0186825860999992001022612004-05190-039300FM-12+021199999V0200501N005110075019N0200001N1+02881+01891100861ADDAA199000091GF106991061021008001001001KA1240N+02561MA1999999098511MD1999999+0011REMSYN076AAXX  26124 82586 32598 60510 10288 20189 39851 40086 86200 333 20256 58001;EQDQ01  00002PRCP99
0167825860999992001022618004-05190-039300FM-12+021199999V0201401N001510075019N0200001N1+03421+01561100621ADDAA199000091GF106991061041008001001001MA1999999098281MD1999999+0091REMSYN070AAXX  26184 82586 32598 61403 10342 20156 39828 40062 86400 333 58009;EQDQ01  00002PRCP99
0214825860999992001022700004-05190-039300FM-12+021199999V0200901N003110075019N0010001N1+02761+02041100831ADDAA199000091AY121061AY221061GF106991061031008001001001KA1240M+03541MA1999999098471MD1999999+0101MW1131REMSYN082AAXX  27004 82586 31594 60906 10276 20204 39847 40083 71322 86300 333 10354 58010;EQDQ01  00002PRCP99
0186825860999992001022712004-05190-039300FM-12+021199999V0203601N001510075019N0200001N1+02741+01841100891ADDAA199000091GF105991051021008001001001KA1240N+02401MA1999999098531MD1999999+0021REMSYN076AAXX  27124 82586 32598 53603 10274 20184 39853 40089 85200 333 20240 58002;EQDQ01  00002PRCP99
0167825860999992001022718004-05190-039300FM-12+021199999V02099999999990075019N0200001N1+03361+01461100621ADDAA199000091GF106991061041008001001001MA1999999098221MD1999999+0001REMSYN070AAXX  27184 82586 32598 614// 10336 20146 39822 40062 86400 333 58000;EQDQ01  00002PRCP99
0186825860999992001022800004-05190-039300FM-12+021199999V02099999999992200019N0200001N1+02961+01871100831ADDAA199000091GF104991041021008001001001KA1240M+03651MA1999999098481MD1999999+0011REMSYN076AAXX  28004 82586 32598 405// 10296 20187 39848 40083 84200 333 10365 58001;EQDQ01  00002PRCP99
0186825860999992001022812004-05190-039300FM-12+021199999V0200501N002610075019N0200001N1+02821+02051101001ADDAA199000091GF106991061041008001001001KA1240N+02421MA1999999098651MD1999999-0121REMSYN076AAXX  28124 82586 32598 60505 10282 20205 39865 40100 86400 333 20242 59012;EQDQ01  00002PRCP99
0182825860999992001022818004-05190-039300FM-12+021199999V0202701N002112200019N0200001N1+02941+02241100751ADDAA106005191AY151061AY221061GF104991041041008001001001MA1999999098391MD1999999+0111MW1031REMSYN082AAXX  28184 82586 21598 42704 10294 20224 39839 40075 70352 84400 333 58011 60051;
0226825860999992001030100004-05190-039300FM-12+021199999V0202701N000510075019N0010001N1+02601+02271100921ADDAA199000091AY121061AY221061GF106991061021008001001001KA1240M+03461MA1999999098561MD1999999+0051MW1131REMSYN094AAXX  01004 82586 31594 62701 10260 20227 39856 40092 71322 86200 333 10346 29070 55035 58005;EQDQ01  00002PRCP99
0201825860999992001030112004-05190-039300FM-12+021199999V0201401N002110075019N0200001N1+02681+02181100961ADDAA124007191AY161061AY221061GF107991071041008001001001KA1240N+02281MA1999999098601MD1999999-0051MW1021REMSYN088AAXX  01124 82586 21598 71404 10268 20218 39860 40096 70262 87400 333 20228 59005 60074;
0167825860999992001030118004-05190-039300FM-12+021199999V0201801N003112200019N0200001N1+03141+01841100731ADDAA199000091GF106991031021008001001041MA1999999098371MD1999999-0021REMSYN070AAXX  01184 82586 32598 61806 10314 20184 39837 40073 83204 333 59002;EQDQ01  00002PRCP99
0213825860999992001030200004-05190-039300FM-12+021199999V0202301N001510075019N0010001N1+02421+02261100971ADDAA106015091AY161061AY221061GF108991081091008001999999KA1240M+03291MA1999999098591MD1999999+0031MW1131REMSYN100AAXX  02004 82586 21594 82303 10242 20226 39859 40097 71362 889// 333 10329 29075 55061 58003 60151;
0173825860999992001030212004-05190-039300FM-12+021199999V0201801N003112200019N0200001N1+02621+02281101111ADDAA124015091GF106991031021008001001041KA1240N+02301MA1999999098721MD1999999+0121REMSYN082AAXX  02124 82586 22598 61806 10262 20228 39872 40111 83204 333 20230 58012 60154;
0167825860999992001030218004-05190-039300FM-12+021199999V0203601N005110075019N0200001N1+03341+01491100811ADDAA199000091GF106991061041008001001001MA1999999098471MD1999999+0101REMSYN070AAXX  02184 82586 32598 63610 10334 20149 39847 40081 86400 333 58010;EQDQ01  00002PRCP99
0226825860999992001030300004-05190-039300FM-12+021199999V0201401N005110075019N0010001N1+02761+02161101101ADDAA199000091AY121061AY221061GF107991071031008001001001KA1240M+03441MA1999999098741MD1999999+0151MW1131REMSYN094AAXX  03004 82586 31594 71410 10276 20216 39874 40110 71322 87300 333 10344 29063 55074 58015;EQDQ01  00002PRCP99
0202825860999992001030312004-05190-039300FM-12+021199999V0200901N005719999999N0200001N1+02881+01911101131ADDAA199000091GF105991999011008001001001KA1240N+02261MA1999999097771MD1999999+0051REMSYN076AAXX  03124 82586 32598 50911 10288 20191 39777 40113 82100 333 20226 58005;EQDQ01+000022SCOTLCQ02  00002PRCP99
0167825860999992001030318004-05190-039300FM-12+021199999V0200901N003112200019N0200001N1+03321+01481100931ADDAA199000091GF104991041021008001001001MA1999999098581MD1999999+0111REMSYN070AAXX  03184 82586 32598 40906 10332 20148 39858 40093 84200 333 58011;EQDQ01  00002PRCP99
0213825860999992001030400004-05190-039300FM-12+021199999V0200501N000512200019N0010001N1+02781+02131101021ADDAA106000591AY151061AY221061GF104991041021008001001001KA1240M+03501MA1999999098661MD1999999-0081MW1031REMSYN100AAXX  04004 82586 21594 40501 10278 20213 39866 40102 70352 84200 333 10350 29054 55096 59008 69941;
0173825860999992001030412004-05190-039300FM-12+021199999V0201401N002110075019N0200001N1+02821+01971101191ADDAA124000591GF105991051021008001001001KA1240N+02481MA1999999098831MD1999999+0061REMSYN082AAXX  04124 82586 22598 51404 10282 20197 39883 40119 85200 333 20248 58006 69944;
0167825860999992001030418004-05190-039300FM-12+021199999V0201801N003612200019N0200001N1+03461+01451100791ADDAA199000091GF104991041021008001001001MA1999999098451MD1999999-0131REMSYN070AAXX  04184 82586 32598 41807 10346 20145 39845 40079 84200 333 59013;EQDQ01  00002PRCP99
0198825860999992001030500004-05190-039300FM-12+021199999V0200501N005112200019N0010001N1+02911+01961100951ADDAA199000091GF102991021021008001001001KA1240M+03561MA1999999098571MD1999999-0071REMSYN088AAXX  05004 82586 32594 20510 10291 20196 39857 40095 82200 333 10356 29051 55100 59007;EQDQ01  00002PRCP99
0186825860999992001030512004-05190-039300FM-12+021199999V0200901N003112200019N0200001N1+02961+01871101101ADDAA199000091GF102991021011008001001001KA1240N+02501MA1999999098751MD1999999-0081REMSYN076AAXX  05124 82586 32598 20906 10296 20187 39875 40110 82100 333 20250 59008;EQDQ01  00002PRCP99
0167825860999992001030518004-05190-039300FM-12+021199999V0200501N001512200019N0200001N1+03541+01171100781ADDAA199000091GF104991021011008001001041MA1999999098441MD1999999-0011REMSYN070AAXX  05184 82586 32598 40503 10354 20117 39844 40078 82104 333 59001;EQDQ01  00002PRCP99
0208825860999992001030600004-05190-039300FM-12+021199999V0200501N005112200019N0010001N1+02861+01781100931ADDAA199000091GA1001+999999999GF100991001001999999001001KA1240M+03601MA1999999098611MD1999999+0021REMSYN082AAXX  06004 82586 32994 00510 10286 20178 39861 40093 333 10360 29045 55098 58002;EQDQ01  00002PRCP99
0186825860999992001030612004-05190-039300FM-12+021199999V0200901N005710075019N0200001N1+02921+01891101131ADDAA199000091GF106991061021008001001001KA1240N+02501MA1999999098781MD1999999+0031REMSYN076AAXX  06124 82586 32598 60911 10292 20189 39878 40113 86200 333 20250 58003;EQDQ01  00002PRCP99
0167825860999992001030618004-05190-039300FM-12+021199999V02099999999990075019N0200001N1+03581+01141100801ADDAA199000091GF106991061021008001001001MA1999999098461MD1999999+0021REMSYN070AAXX  06184 82586 32598 614// 10358 20114 39846 40080 86200 333 58002;EQDQ01  00002PRCP99
0208825860999992001030700004-05190-039300FM-12+021199999V0200901N002112200019N0010001N1+02921+01831100951ADDAA199000091GA1001+999999999GF100991001001999999001001KA1240M+03601MA1999999098601MD1999999-0011REMSYN082AAXX  07004 82586 32994 00904 10292 20183 39860 40095 333 10360 29045 55097 59001;EQDQ01  00002PRCP99
0186825860999992001030712004-05190-039300FM-12+021199999V0200901N004112200019N0200001N1+02881+01801101251ADDAA199000091GF106991031011008001001011KA1240N+02421MA1999999098901MD1999999-0121REMSYN076AAXX  07124 82586 32598 60908 10288 20180 39890 40125 83101 333 20242 59012;EQDQ01  00002PRCP99
0167825860999992001030718004-05190-039300FM-12+021199999V0201401N002110075019N0200001N1+03481+01191100931ADDAA199000091GF106991061021008001001001MA1999999098591MD1999999+0131REMSYN070AAXX  07184 82586 32598 61404 10348 20119 39859 40093 86200 333 58013;EQDQ01  00002PRCP99
0198825860999992001030800004-05190-039300FM-12+021199999V0203601N003119999999N0010001N1+02921+01601101071ADDAA199000091GF105991021001008001051041KA1240M+03561MA1999999098721MD1999999+0121REMSYN088AAXX  08004 82586 32594 53606 10292 20160 39872 40107 82054 333 10356 29042 55089 58012;EQDQ01  00002PRCP99
0186825860999992001030812004-05190-039300FM-12+021199999V0200901N003110075019N0200001N1+02941+01971101171ADDAA199000091GF106991061021008001001001KA1240N+02321MA1999999098821MD1999999-0081REMSYN076AAXX  08124 82586 32598 60906 10294 20197 39882 40117 86200 333 20232 59008;EQDQ01  00002PRCP99
0167825860999992001030818004-05190-039300FM-12+021199999V0201801N001510075019N0200001N1+03521+01391100781ADDAA199000091GF106991061041008001001001MA1999999098441MD1999999-0151REMSYN070AAXX  08184 82586 32598 61803 10352 20139 39844 40078 86400 333 59015;EQDQ01  00002PRCP99
0213825860999992001030900004-05190-039300FM-12+021199999V0203601N003110075019N0010001N1+02391+02351101041ADDAA106030091AY191061AY261061GF108991081051008001999999KA1240M+03501MA1999999098681MD1999999-0041MW1621REMSYN100AAXX  09004 82586 21594 83606 10239 20235 39868 40104 76296 885// 333 10350 29070 55070 59004 60301;
0201825860999992001030912004-05190-039300FM-12+021199999V0201401N001510075019N0200001N1+02341+02201101201ADDAA124068191AY161061AY261061GF108991081071008001999999KA1240N+02161MA1999999098801MD1999999-0021MW1511REMSYN088AAXX  09124 82586 21598 81403 10234 20220 39880 40120 75166 887// 333 20216 59002 60684;
0148825860999992001030918004-05190-039300FM-12+021199999V02099999999990075019N0200001N1+02951+02041100891ADDAA199000021GF106991061041008001001001MA1999999098531MD1999999+0111REMSYN070AAXX  09184 82586 32598 605// 10295 20204 39853 40089 86400 333 58011;
0207825860999992001031000004-05190-039300FM-12+021199999V0200501N003110075019N0010001N1+02661+02221101091ADDAA199000021AY121061AY221061GF108991081091008001999999KA1240M+03031MA1999999098701MD1999999+0021MW1131REMSYN094AAXX  10004 82586 31594 80506 10266 20222 39870 40109 71322 889// 333 10303 29076 55025 58002;
0186825860999992001031012004-05190-039300FM-12+021199999V0200501N002110075019N0200001N1+02641+02121101041ADDAA199000091GF106991061021008001001001KA1240N+02301MA1999999098681MD1999999-0121REMSYN076AAXX  10124 82586 32598 60504 10264 20212 39868 40104 86200 333 20230 59012;EQDQ01  00002PRCP99
0167825860999992001031018004-05190-039300FM-12+021199999V0203601N002110075019N0200001N1+03041+02191100841ADDAA199000091GF106991061021008001001001MA1999999098481MD1999999-0051REMSYN070AAXX  10184 82586 32598 63604 10304 20219 39848 40084 86200 333 59005;EQDQ01  00002PRCP99
0178825860999992001031100004-05190-039300FM-12+021199999V0203601N000519999999N0010001N1+02501+02211101041ADDAA199000091GF105991051001008001051001KA1240M+03281MA1999999098661REMSYN082AAXX  11004 82586 32594 53601 10250 20221 39866 40104 85050 333 10328 29076 55071;EQDQ01  00002PRCP99
0186825860999992001031112004-05190-039300FM-12+021199999V0203601N003110075019N0200001N1+02681+02201101061ADDAA199000091GF108991081071008001999999KA1240N+02301MA1999999098691MD1999999+0011REMSYN076AAXX  11124 82586 32598 83606 10268 20220 39869 40106 887// 333 20230 58001;EQDQ01  00002PRCP99
0182825860999992001031118004-05190-039300FM-12+021199999V0200501N003110075019N0200001N1+02571+02401100851ADDAA106000191AY151061AY221061GF108991081071008001999999MA1999999098461MD1999999-0021MW1031REMSYN082AAXX  11184 82586 21598 80506 10257 20240 39846 40085 70352 887// 333 59002 69921;
0213825860999992001031200004-05190-039300FM-12+021199999V0203601N003110075019N0010001N1+02521+02271101021ADDAA106003091AY151061AY221061GF106991061031008001001001KA1240M+03301MA1999999098651MD1999999-0011MW1131REMSYN100AAXX  12004 82586 21594 63606 10252 20227 39865 40102 71352 86300 333 10330 29085 55029 59001 60031;
0201825860999992001031212004-05190-039300FM-12+021199999V0200901N001510075019N0200001N1+02521+02311101131ADDAA124007991AY161061AY251061GF108991081071008001999999KA1240N+02141MA1999999098741MD1999999+0051MW1031REMSYN088AAXX  12124 82586 21598 80903 10252 20231 39874 40113 70365 887// 333 20214 58005 60084;
0182825860999992001031218004-05190-039300FM-12+021199999V0200501N004110075019N0200001N1+02541+02331100991ADDAA106000191AY151061AY221061GF108991081071008001999999MA1999999098591MD1999999+0131MW1031REMSYN082AAXX  12184 82586 21598 80508 10254 20233 39859 40099 70352 887// 333 58013 69921;
0232825860999992001031300004-05190-039300FM-12+021199999V02099999999990075019N0010001N1+02441+02361101191ADDAA106001091AY121061AY221061GF108991081071008001999999KA1240M+99999MA1999999098801MD1999999+0151MW1611REMSYN100AAXX  13004 82586 21594 805// 10244 20236 39880 40119 76122 887// 333 10238 29090 55025 58015 60011;EQDQ01 +02382ATMX  
0173825860999992001031312004-05190-039300FM-12+021199999V0200901N001510075019N0200001N1+02501+02251101171ADDAA124002091GF106991061051008001001001KA1240N+02281MA1999999098801MD1999999+0061REMSYN082AAXX  13124 82586 22598 60903 10250 20225 39880 40117 86500 333 20228 58006 60024;
0167825860999992001031318004-05190-039300FM-12+021199999V0200901N002110075019N0200001N1+03061+01831100861ADDAA199000091GF106991061051008001001001MA1999999098491MD1999999-0101REMSYN070AAXX  13184 82586 32598 60904 10306 20183 39849 40086 86500 333 59010;EQDQ01  00002PRCP99
0198825860999992001031400004-05190-039300FM-12+021199999V0200501N001510075019N0010001N1+02661+02181101001ADDAA199000091GF107991071041008001001001KA1240M+03201MA1999999098631MD1999999-0171REMSYN088AAXX  14004 82586 32594 70503 10266 20218 39863 40100 87400 333 10320 29071 55068 59017;EQDQ01  00002PRCP99
0201825860999992001031412004-05190-039300FM-12+021199999V0201801N002610075019N0200001N1+02421+02351101021ADDAA124005191AY161061AY251061GF108991081071008001999999KA1240N+02321MA1999999098631MD1999999-0171MW1031REMSYN088AAXX  14124 82586 21598 81805 10242 20235 39863 40102 70365 887// 333 20232 59017 60054;
0182825860999992001031418004-05190-039300FM-12+021199999V0202701N000510075019N0200001N1+02761+02211100831ADDAA106005191AY161061AY251061GF106991061051008001001001MA1999999098451MD1999999-0041MW1031REMSYN082AAXX  14184 82586 21598 62701 10276 20221 39845 40083 70365 86500 333 59004 60051;
0232825860999992001031500004-05190-039300FM-12+021199999V0200901N000519999999N0200001N1+02201+02171101011ADDAA106005191AY191061AY261061GF108991999011008001001001KA1240M+02931MA1999999098611MD1999999-0021MW1131REMSYN100AAXX  15004 82586 21598 80901 10220 20217 39861 40101 71396 82100 333 10293 29091 55012 59002 60051;EQDQ01+000022SCOTLC
0201825860999992001031512004-05190-039300FM-12+021199999V0200901N001512200019N0200001N1+02511+02201101131ADDAA124009991AY151061AY221061GF106991031021008001001041KA1240N+02161MA1999999098731MD1999999+0101MW1021REMSYN088AAXX  15124 82586 21598 60903 10251 20220 39873 40113 70252 83204 333 20216 58010 60104;
0167825860999992001031518004-05190-039300FM-12+021199999V0201401N002611050019N0200001N1+02971+02021100861ADDAA199000091GF106991021021008001051041MA1999999098491MD1999999+0041REMSYN070AAXX  15184 82586 32598 61405 10297 20202 39849 40086 82254 333 58004;EQDQ01  00002PRCP99
0198825860999992001031600004-05190-039300FM-12+021199999V02099999999992200019N0010001N1+02491+02231101071ADDAA199000091GF104991041021008001001001KA1240M+03081MA1999999098681MD1999999+0071REMSYN088AAXX  16004 82586 32594 405// 10249 20223 39868 40107 84200 333 10308 29078 55044 58007;EQDQ01  00002PRCP99
0201825860999992001031612004-05190-039300FM-12+021199999V0200501N003110075019N0200001N1+02701+02431101161ADDAA124003091AY161061AY221061GF106991061041008001001001KA1240N+02241MA1999999098731MD1999999+0051MW1031REMSYN088AAXX  16124 82586 21598 60506 10270 20243 39873 40116 70362 86400 333 20224 58005 60034;
0167825860999992001031618004-05190-039300FM-12+021199999V0200901N003110075019N0200001N1+03281+01841100871ADDAA199000091GF106991061041008001001001MA1999999098521MD1999999+0031REMSYN070AAXX  16184 82586 32598 60906 10328 20184 39852 40087 86400 333 58003;EQDQ01  00002PRCP99
0198825860999992001031700004-05190-039300FM-12+021199999V02099999999992200019N0010001N1+02661+02221100991ADDAA199000091GF102991021021008001001001KA1240M+03261MA1999999098631MD1999999-0051REMSYN088AAXX  17004 82586 32594 236// 10266 20222 39863 40099 82200 333 10326 29071 55088 59005;EQDQ01  00002PRCP99
0186825860999992001031712004-05190-039300FM-12+021199999V0203601N001510075019N0200001N1+02731+02171101041ADDAA199000091GF106991061021008001001001KA1240N+02271MA1999999098691MD1999999-0101REMSYN076AAXX  17124 82586 32598 63603 10273 20217 39869 40104 86200 333 20227 59010;EQDQ01  00002PRCP99
0183825860999992001031718004-05190-039300FM-12+021199999V0201401N002119999999N0200001N1+03231+01771100821ADDAA199000091GF105991999021008001001001MA1999999098471MD1999999-0051REMSYN070AAXX  17184 82586 32598 51404 10323 20177 39847 40082 83200 333 59005;EQDQ01+000032SCOTLCQ02  00002PRCP99
0208825860999992001031800004-05190-039300FM-12+021199999V0203201N001512200019N0010001N1+02771+02321100941ADDAA199000091GA1001+999999999GF100991001001999999001001KA1240M+03321MA1999999098581MD1999999-0051REMSYN082AAXX  18004 82586 32994 03203 10277 20232 39858 40094 333 10332 29067 55010 59005;EQDQ01  00002PRCP99
0202825860999992001031812004-05190-039300FM-12+021199999V0200501N003610075019N0200001N1+02721+02121101001ADDAA199000091GF106991999021008001001001KA1240N+02241MA1999999098641MD1999999-0081REMSYN076AAXX  18124 82586 32598 60507 10272 20212 39864 40100 85200 333 20224 59008;EQDQ01+000052SCOTLCQ02  00002PRCP99
0167825860999992001031818004-05190-039300FM-12+021199999V0200901N002612200019N0200001N1+03251+01711100731ADDAA199000091GF104991041011008001001001MA1999999098681MD1999999-0091REMSYN070AAXX  18184 82586 32598 40905 10325 20171 39868 40073 84100 333 59009;EQDQ01  00002PRCP99
0226825860999992001031900004-05190-039300FM-12+021199999V02099999999990075019N0010001N1+02721+02301100871ADDAA199000091AY121061AY221061GF105991051031008001001001KA1240M+03361MA1999999098511MD1999999-0071MW1131REMSYN094AAXX  19004 82586 31594 536// 10272 20230 39851 40087 71322 85300 333 10336 29063 55092 59007;EQDQ01  00002PRCP99
0186825860999992001031912004-05190-039300FM-12+021199999V0200901N002110075019N0200001N1+02681+02181101021ADDAA199000091GF107991071041008001001001KA1240N+02341MA1999999098661MD1999999+0021REMSYN076AAXX  19124 82586 32598 70904 10268 20218 39866 40102 87400 333 20234 58002;EQDQ01  00002PRCP99
0182825860999992001031918004-05190-039300FM-12+021199999V0200501N001510075019N0200001N1+02961+02401100781ADDAA106002091AY161061AY221061GF106991061041008001001001MA1999999098421MD1999999+0041MW1031REMSYN082AAXX  19184 82586 21598 60503 10296 20240 39842 40078 70362 86400 333 58004 60021;
0213825860999992001032000004-05190-039300FM-12+021199999V02099999999990075019N0010001N1+02651+02311100961ADDAA106002091AY161061AY221061GF105991051041008001001001KA1240M+03071MA1999999098601MD1999999+0091MW1031REMSYN100AAXX  20004 82586 21594 505// 10265 20231 39860 40096 70362 85400 333 10307 29078 55029 58009 60021;
0173825860999992001032012004-05190-039300FM-12+021199999V0200901N002110075019N0200001N1+02781+02231101141ADDAA124004191GF106991061041008001001001KA1240N+02321MA1999999098781MD1999999+0121REMSYN082AAXX  20124 82586 22598 60904 10278 20223 39878 40114 86400 333 20232 58012 60044;
0167825860999992001032018004-05190-039300FM-12+021199999V02099999999992200019N0200001N1+03141+01541100911ADDAA199000091GF106991031021008001001041MA1999999098551MD1999999+0131REMSYN070AAXX  20184 82586 32598 605// 10314 20154 39855 40091 83204 333 58013;EQDQ01  00002PRCP99
0198825860999992001032100004-05190-039300FM-12+021199999V0201801N001510075019N0010001N1+02721+02171101071ADDAA199000091GF106991061021008001001001KA1240M+03291MA1999999098711MD1999999+0111REMSYN088AAXX  21004 82586 32594 61803 10272 20217 39871 40107 86200 333 10329 29066 55080 58011;EQDQ01  00002PRCP99
0186825860999992001032112004-05190-039300FM-12+021199999V0201401N003610075019N0200001N1+02861+02141101121ADDAA199000091GF106991061041008001001001KA1240N+02341MA1999999098761MD1999999-0021REMSYN076AAXX  21124 82586 32598 61407 10286 20214 39876 40112 86400 333 20234 59002;EQDQ01  00002PRCP99
0167825860999992001032118004-05190-039300FM-12+021199999V0201801N002610075019N0200001N1+03241+01931100841ADDAA199000091GF106991061041008001001001MA1999999098491MD1999999-0061REMSYN070AAXX  21184 82586 32598 61805 10324 20193 39849 40084 86400 333 59006;EQDQ01  00002PRCP99
0208825860999992001032200004-05190-039300FM-12+021199999V0200501N001512200019N0010001N1+02721+02301100981ADDAA199000091GA1001+999999999GF100991001001999999001001KA1240M+03331MA1999999098621MD1999999-0091REMSYN082AAXX  22004 82586 32994 00503 10272 20230 39862 40098 333 10333 29067 55089 59009;EQDQ01  00002PRCP99
0201825860999992001032212004-05190-039300FM-12+021199999V0201801N001510075019N0200001N1+02421+02211100991ADDAA124002091AY161061AY251061GF106991061041008001001001KA1240N+02161MA1999999098621MD1999999-0141MW1031REMSYN088AAXX  22124 82586 21598 61803 10242 20221 39862 40099 70365 86400 333 20216 59014 60024;
0167825860999992001032218004-05190-039300FM-12+021199999V0201401N004612200019N0200001N1+03091+02011100781ADDAA199000091GF106991031021008001001041MA1999999098421MD1999999-0071REMSYN070AAXX  22184 82586 32598 61409 10309 20201 39842 40078 83204 333 59007;EQDQ01  00002PRCP99
0208825860999992001032300004-05190-039300FM-12+021199999V0200501N002612200019N0010001N1+02621+02071100871ADDAA199000091GA1001+999999999GF100991001001999999001001KA1240M+03171MA1999999098491MD1999999-0131REMSYN082AAXX  23004 82586 32994 00505 10262 20207 39849 40087 333 10317 29071 55061 59013;EQDQ01  00002PRCP99
0186825860999992001032312004-05190-039300FM-12+021199999V0200901N003610075019N0200001N1+02621+02181100961ADDAA199000091GF106991061041008001001001KA1240N+02421MA1999999098591MD1999999-0031REMSYN076AAXX  23124 82586 32598 60907 10262 20218 39859 40096 86400 333 20242 59003;EQDQ01  00002PRCP99
0167825860999992001032318004-05190-039300FM-12+021199999V0201801N002612200019N0200001N1+03201+01891100661ADDAA199000091GF105991021021008001001041MA1999999098311MD1999999-0111REMSYN070AAXX  23184 82586 32598 51805 10320 20189 39831 40066 82204 333 59011;EQDQ01  00002PRCP99
0198825860999992001032400004-05190-039300FM-12+021199999V0209999C000010075019N0010001N1+02661+02221100821ADDAA199000091GF105991051021008001001001KA1240M+03321MA1999999098461MD1999999-0031REMSYN088AAXX  24004 82586 32594 50000 10266 20222 39846 40082 85200 333 10332 29069 55053 59003;EQDQ01  00002PRCP99
0186825860999992001032412004-05190-039300FM-12+021199999V0200901N003112200019N0200001N1+02861+02091100951ADDAA199000091GF104991041021008001001001KA1240N+02301MA1999999098591MD1999999+0001REMSYN076AAXX  24124 82586 32598 40906 10286 20209 39859 40095 84200 333 20230 58000;EQDQ01  00002PRCP99
0167825860999992001032418004-05190-039300FM-12+021199999V0200501N005110075019N0200001N1+03221+01931100761ADDAA199000091GF106991061021008001001001MA1999999098421MD1999999+0111REMSYN070AAXX  24184 82586 32598 60510 10322 20193 39842 40076 86200 333 58011;EQDQ01  00002PRCP99
0208825860999992001032500004-05190-039300FM-12+021199999V0200501N004112200019N0010001N1+02771+02191100951ADDAA199000091GA1001+999999999GF100991001001999999001001KA1240M+03401MA1999999098591MD1999999+0131REMSYN082AAXX  25004 82586 32994 00508 10277 20219 39859 40095 333 10340 29063 55101 58013;EQDQ01  00002PRCP99
0186825860999992001032512004-05190-039300FM-12+021199999V0200901N004110075019N0200001N1+02981+02251101061ADDAA199000091GF106991061041008001001001KA1240N+02421MA1999999098711MD1999999+0121REMSYN076AAXX  25124 82586 32598 60908 10298 20225 39871 40106 86400 333 20242 58012;EQDQ01  00002PRCP99
0182825860999992001032518004-05190-039300FM-12+021199999V0201801N001510075019N0200001N1+03061+02451100851ADDAA106001091AY161061AY221061GF106991061041008001001001MA1999999098501MD1999999+0081MW1031REMSYN082AAXX  25184 82586 21598 61803 10306 20245 39850 40085 70362 86400 333 58008 60011;
0213825860999992001032600004-05190-039300FM-12+021199999V02099999999990075019N0010001N1+02561+02491100961ADDAA106006191AY161061AY221061GF106991061031008001001001KA1240M+03421MA1999999098601MD1999999+0011MW1131REMSYN100AAXX  26004 82586 21594 605// 10256 20249 39860 40096 71362 86300 333 10342 29082 55083 58001 60061;
0201825860999992001032612004-05190-039300FM-12+021199999V0200501N003112200019N0200001N1+02781+02231101041ADDAA124007991AY151061AY221061GF106991041021008001001011KA1240N+02281MA1999999098681MD1999999-0031MW1031REMSYN088AAXX  26124 82586 21598 60506 10278 20223 39868 40104 70352 84201 333 20228 59003 60084;
0167825860999992001032618004-05190-039300FM-12+021199999V0200901N004112200019N0200001N1+03241+01491100841ADDAA199000091GF106991031021008001001041MA1999999098491MD1999999-0011REMSYN070AAXX  26184 82586 32598 60908 10324 20149 39849 40084 83204 333 59001;EQDQ01  00002PRCP99
0186825860999992001032712004-05190-039300FM-12+021199999V0200501N003612200019N0200001N1+02861+02141101031ADDAA199000091GF106991041021008001001011KA1240N+02321MA1999999098671MD1999999-0011REMSYN076AAXX  27124 82586 32598 60507 10286 20214 39867 40103 84201 333 20232 59001;EQDQ01  00002PRCP99
0167825860999992001032718004-05190-039300FM-12+021199999V0201401N000512200019N0100001N1+03181+02311100781ADDAA199000091GF104991031011012501041001MA1999999098971MD1999999-0081REMSYN070AAXX  27184 82586 32697 41401 10318 20231 39897 40078 83140 333 59008;EQDQ01  00002PRCP99
0208825860999992001032800004-05190-039300FM-12+021199999V0200501N002112200019N0010001N1+02691+02061100891ADDAA199000091GA1001+999999999GF100991001001999999001001KA1240M+03421MA1999999098541MD1999999-0051REMSYN082AAXX  28004 82586 32994 00504 10269 20206 39854 40089 333 10342 29060 55098 59005;EQDQ01  00002PRCP99
0202825860999992001032812004-05190-039300FM-12+021199999V0200501N003610075019N0200001N1+02261+02261100991ADDAA199000091GF107991071041008001001001KA1240N+99999MA1999999098631MD1999999-0041REMSYN076AAXX  28124 82586 32598 70507 10226 20226 39863 40099 87400 333 20238 59004;EQDQ01  00002PRCP99Q02 +02382ATMN  
0167825860999992001032818004-05190-039300FM-12+021199999V0201801N002610075019N0200001N1+03321+01971100661ADDAA199000091GF106991061041008001001001MA1999999098321MD1999999+0021REMSYN070AAXX  28184 82586 32598 61805 10332 20197 39832 40066 86400 333 58002;EQDQ01  00002PRCP99
0213825860999992001032900004-05190-039300FM-12+021199999V0200501N003110075019N0010001N1+02601+02391100911ADDAA106030091AY191061AY261061GF106991061041008001001001KA1240M+03501MA1999999098551MD1999999+0011MW1131REMSYN100AAXX  29004 82586 21594 60506 10260 20239 39855 40091 71396 86400 333 10350 29073 55066 58001 60301;
0173825860999992001032912004-05190-039300FM-12+021199999V0200901N003612200019N0200001N1+02761+02231101091ADDAA124025991GF106991041041008001001011KA1240N+02341MA1999999098731MD1999999+0101REMSYN082AAXX  29124 82586 22598 60907 10276 20223 39873 40109 84401 333 20234 58010 60264;
0167825860999992001032918004-05190-039300FM-12+021199999V02099999999990075019N0200001N1+03111+02341100831ADDAA199000091GF106991061041008001001001MA1999999098471MD1999999+0151REMSYN070AAXX  29184 82586 32598 605// 10311 20234 39847 40083 86400 333 58015;EQDQ01  00002PRCP99
0213825860999992001033000004-05190-039300FM-12+021199999V02099999999990075019N0010001N1+02321+02281101051ADDAA106011991AY191061AY261061GF108991081051008001999999KA1240M+03321MA1999999098671MD1999999+0121MW1611REMSYN100AAXX  30004 82586 21594 836// 10232 20228 39867 40105 76196 885// 333 10332 29082 55073 58012 60121;
0201825860999992001033012004-05190-039300FM-12+021199999V0200901N001510075019N0200001N1+02441+02301101121ADDAA124015091AY161061AY251061GF106991061041008001001001KA1240N+02221MA1999999098721MD1999999-0011MW1031REMSYN088AAXX  30124 82586 21598 60903 10244 20230 39872 40112 70365 86400 333 20222 59001 60154;
0167825860999992001033018004-05190-039300FM-12+021199999V0200901N000510450019N0200001N1+03061+02051100911ADDAA199000091GF106991031021008001021001MA1999999098551MD1999999+0081REMSYN070AAXX  30184 82586 32598 60901 10306 20205 39855 40091 83220 333 58008;EQDQ01  00002PRCP99
0198825860999992001033100004-05190-039300FM-12+021199999V0201801N001010075019N0010001N1+02621+02461101051ADDAA199000091GF106991061041008001001001KA1240M+03121MA1999999098661MD1999999-0011REMSYN088AAXX  31004 82586 32594 61802 10262 20246 39866 40105 86400 333 10312 29083 55059 59001;EQDQ01  00002PRCP99
0218825860999992001033112004-05190-039300FM-12+021199999V0201801N000510075019N0200001N1+02501+02211101011ADDAA199000091GF107991999021008001001001KA1240N+02281MA1999999999999MD1999999-0091REMSYN076AAXX  31124 82586 32598 71801 10250 20221 39663 40101 86200 333 20228 59009;EQDQ01+000062SCOTLCQ02  00002PRCP99Q03 096633APOSP 
0199825860999992001033118004-05190-039300FM-12+021199999V0201801N001019999999N0200001N1+02921+02121100851ADDAA199000091GF105991999021008001001001MA1999999098492MD1999999-0061REMSYN070AAXX  31184 82586 32598 51802 10292 20212 39849 40085 82200 333 59006;EQDQ01+000022SCOTLCQ02+098493APOSP Q03  00002PRCP99
0214825860999992001040100004-05190-039300FM-12+021199999V02099999999999999999N0010001N1+02581+02131100941ADDAA199000091GF106991999011012501001001KA1240M+03081MA1999999098591MD1999999-0081REMSYN088AAXX  01004 82586 32694 636// 10258 20213 39859 40094 82100 333 10308 29075 55018 59008;EQDQ01+000022SCOTLCQ02  00002PRCP99
0201825860999992001040112004-05190-039300FM-12+021199999V0201801N003110075019N0200001N1+02521+02091101121ADDAA124000591AY151061AY221061GF106991061051008001001001KA1240N+02291MA1999999098741MD1999999+0111MW1031REMSYN088AAXX  01124 82586 21598 61806 10252 20209 39874 40112 70352 86500 333 20229 58011 69944;
0195825860999992001040118004-05190-039300FM-12+021199999V0201401N003110075019N0200001N1+03141+01971100841ADDAA199000091AY121061AY221061GF106991061071008001001001MA1999999098481MD1999999-0011MW1151REMSYN076AAXX  01184 82586 31598 61406 10314 20197 39848 40084 71522 86700 333 59001;EQDQ01  00002PRCP99
0198825860999992001040200004-05190-039300FM-12+021199999V0200501N003110075019N0010001N1+02581+02151101041ADDAA199000091GF108991081041008001999999KA1240M+03261MA1999999098661MD1999999+0071REMSYN088AAXX  02004 82586 32594 80506 10258 20215 39866 40104 884// 333 10326 29070 55076 58007;EQDQ01  00002PRCP99
0186825860999992001040212004-05190-039300FM-12+021199999V0200501N001510075019N0200001N1+02601+02251101091ADDAA199000091GF108991081071008001999999KA1240N+02241MA1999999098721MD1999999-0021REMSYN076AAXX  02124 82586 32598 80503 10260 20225 39872 40109 887// 333 20224 59002;EQDQ01  00002PRCP99
0167825860999992001040218004-05190-039300FM-12+021199999V0201401N002610075019N0200001N1+03171+02201100891ADDAA199000091GF106991061021008001001001MA1999999098531MD1999999+0051REMSYN070AAXX  02184 82586 32598 61405 10317 20220 39853 40089 86200 333 58005;EQDQ01  00002PRCP99
0213825860999992001040300004-05190-039300FM-12+021199999V0209999C000010075019N0010001N1+02471+02391101091ADDAA106006191AY191061AY261061GF108991081091008001999999KA1240M+03261MA1999999098701MD1999999+0041MW1131REMSYN100AAXX  03004 82586 21594 80000 10247 20239 39870 40109 71396 889// 333 10326 29083 55058 58004 60061;
0201825860999992001040312004-05190-039300FM-12+021199999V0200901N002610075019N0200001N1+02561+02351101111ADDAA124023191AY161061AY251061GF106991061041008001001001KA1240N+02281MA1999999098721MD1999999+0001MW1031REMSYN088AAXX  03124 82586 21598 60905 10256 20235 39872 40111 70365 86400 333 20228 58000 60234;
0182825860999992001040318004-05190-039300FM-12+021199999V0200901N001510075019N0200001N1+02381+02291100921ADDAA106003091AY161061AY221061GF108991081071008001999999MA1999999098521MD1999999-0031MW1201REMSYN082AAXX  03184 82586 21598 80903 10238 20229 39852 40092 72062 887// 333 59003 60031;
0213825860999992001040400004-05190-039300FM-12+021199999V0209999C000010075019N0010001N1+02341+02291101071ADDAA106005191AY161061AY251061GF108991081051008001999999KA1240M+03151MA1999999098671MD1999999-0051MW1031REMSYN100AAXX  04004 82586 21594 80000 10234 20229 39867 40107 70365 885// 333 10315 29092 55043 59005 60051;
0173825860999992001040412004-05190-039300FM-12+021199999V0200901N003110075019N0200001N1+02641+02371101021ADDAA124007191GF108991081071008001999999KA1240N+02261MA1999999098631MD1999999-0091REMSYN082AAXX  04124 82586 22598 80906 10264 20237 39863 40102 887// 333 20226 59009 60074;
0167825860999992001040418004-05190-039300FM-12+021199999V0201401N003110075019N0200001N1+03041+02291100731ADDAA199000091GF105991051011008001001001MA1999999098731MD1999999-0151REMSYN070AAXX  04184 82586 32598 51406 10304 20229 39873 40073 85100 333 59015;EQDQ01  00002PRCP99
0213825860999992001040500004-05190-039300FM-12+021199999V02099999999990075019N0010001N1+02421+02391100981ADDAA106007191AY161061AY221061GF106991061041008001001001KA1240M+03111MA1999999098601MD1999999-0071MW1211REMSYN100AAXX  05004 82586 21594 636// 10242 20239 39860 40098 72162 86400 333 10311 29084 55068 59007 60071;
0173825860999992001040512004-05190-039300FM-12+021199999V0200901N002610075019N0200001N1+02681+02241101051ADDAA124006191GF106991061041008001001001KA1240N+02321MA1999999098681MD1999999+0051REMSYN082AAXX  05124 82586 22598 60905 10268 20224 39868 40105 86400 333 20232 58005 60064;
0167825860999992001040518004-05190-039300FM-12+021199999V0201401N003112200019N0200001N1+03081+02011100841ADDAA199000091GF104991041021008001001001MA1999999098481MD1999999+0111REMSYN070AAXX  05184 82586 32598 41406 10308 20201 39848 40084 84200 333 58011;EQDQ01  00002PRCP99
0208825860999992001040600004-05190-039300FM-12+021199999V0209999C000012200019N0020001N1+02661+02241100991ADDAA199000091GA1001+999999999GF100991001001999999001001KA1240M+03111MA1999999098671MD1999999+0031REMSYN082AAXX  06004 82586 32595 00000 10266 20224 39867 40099 333 10311 29072 55076 58003;EQDQ01  00002PRCP99
0186825860999992001040612004-05190-039300FM-12+021199999V0200901N003612200019N0200001N1+02761+02161101091ADDAA199000091GF106991041021008001001011KA1240N+02201MA1999999098731MD1999999+0051REMSYN076AAXX  06124 82586 32598 60907 10276 20216 39873 40109 84201 333 20220 58005;EQDQ01  00002PRCP99
0167825860999992001040618004-05190-039300FM-12+021199999V02099999999992200019N0200001N1+03161+01991100901ADDAA199000091GF106991031021008001001041MA1999999098541MD1999999+0061REMSYN070AAXX  06184 82586 32598 614// 10316 20199 39854 40090 83204 333 58006;EQDQ01  00002PRCP99
0192825860999992001040700004-05190-039300FM-12+021199999V02099999999999999999N0010001N1+02641+02291101091ADDAA199000091GF106991999999999999999999KA1240M+03201MA1999999098691MD1999999+0061REMSYN082AAXX  07004 82586 32994 636// 10264 20229 39869 40109 333 10320 29071 55103 58006;EQDQ01  00002PRCP99
0186825860999992001040712004-05190-039300FM-12+021199999V0200901N003610075019N0200001N1+02721+02281101151ADDAA199000091GF108991081071008001999999KA1240N+02281MA1999999098781MD1999999+0051REMSYN076AAXX  07124 82586 32598 80907 10272 20228 39878 40115 887// 333 20228 58005;EQDQ01  00002PRCP99
0167825860999992001040718004-05190-039300FM-12+021199999V0200901N003612200019N0200001N1+03061+02051100851ADDAA199000091GF106991031021008001001041MA1999999098491MD1999999-0051REMSYN070AAXX  07184 82586 32598 60907 10306 20205 39849 40085 83204 333 59005;EQDQ01  00002PRCP99
0198825860999992001040800004-05190-039300FM-12+021199999V0200501N000512200019N0010001N1+02661+02241100951ADDAA199000091GF106991041021008001001041KA1240M+03221MA1999999098591MD1999999-0101REMSYN088AAXX  08004 82586 32594 60501 10266 20224 39859 40095 84204 333 10322 29072 55024 59010;EQDQ01  00002PRCP99
0202825860999992001040812004-05190-039300FM-12+021199999V0201401N003119999999N0200001N1+02731+02151100951ADDAA199000091GF106991999021008001001001KA1240N+02301MA1999999098591MD1999999-0191REMSYN076AAXX  08124 82586 32598 61406 10273 20215 39859 40095 83200 333 20230 59019;EQDQ01+000032SCOTLCQ02  00002PRCP99
0183825860999992001040818004-05190-039300FM-12+021199999V0201801N001519999999N0200001N1+03061+02081100811ADDAA199000091GF105991999021008001001001MA1999999098451MD1999999-0041REMSYN070AAXX  08184 82586 32598 51803 10306 20208 39845 40081 83200 333 59004;EQDQ01+000032SCOTLCQ02  00002PRCP99
0214825860999992001040900004-05190-039300FM-12+021199999V0203601N001019999999N0010001N1+02721+02131100891ADDAA199000091GF106991001001999999001041KA1240M+03221MA1999999098531MD1999999-0061REMSYN088AAXX  09004 82586 32594 63602 10272 20213 39853 40089 80004 333 10322 29067 55068 59006;EQDQ01+008002SCOLCBQ02  00002PRCP99
0186825860999992001040912004-05190-039300FM-12+021199999V0200901N003111050019N0200001N1+02741+02101100941ADDAA199000091GF106991031021008001001021KA1240N+02401MA1999999098581MD1999999-0011REMSYN076AAXX  09124 82586 32598 60906 10274 20210 39858 40094 83202 333 20240 59001;EQDQ01  00002PRCP99
0167825860999992001040918004-05190-039300FM-12+021199999V0201401N003110075019N0200001N1+03061+01831100711ADDAA199000091GF108991081051008001999999MA1999999098371MD1999999-0081REMSYN070AAXX  09184 82586 32598 81406 10306 20183 39837 40071 885// 333 59008;EQDQ01  00002PRCP99
0214825860999992001041000004-05190-039300FM-12+021199999V0200501N001019999999N0010001N1+02721+02171100831ADDAA199000091GF107991999021008001001001KA1240M+03201MA1999999098471MD1999999-0061REMSYN088AAXX  10004 82586 32594 70502 10272 20217 39847 40083 84200 333 10320 29065 55049 59006;EQDQ01+000042SCOTLCQ02  00002PRCP99
0202825860999992001041012004-05190-039300FM-12+021199999V0200901N002119999999N0200001N1+02801+02181100931ADDAA199000091GF106991999071008001001001KA1240N+02381MA1999999098571MD1999999-0011REMSYN076AAXX  10124 82586 32598 60904 10280 20218 39857 40093 87700 333 20238 59001;EQDQ01+000072SCOTLCQ02  00002PRCP99
0167825860999992001041018004-05190-039300FM-12+021199999V0201801N004010075019N0200001N1+03021+02311100731ADDAA199000091GF108991081071008001999999MA1999999098371MD1999999+0001REMSYN070AAXX  10181 82586 32598 81804 10302 20231 39837 40073 887// 333 58000;EQDQ01  00002PRCP99
0198825860999992001041100004-05190-039300FM-12+021199999V02099999999990075019N0010001N1+02501+02471100921ADDAA199000091GF108991081071008001999999KA1240M+03201MA1999999098561MD1999999+0091REMSYN088AAXX  11004 82586 32594 836// 10250 20247 39856 40092 887// 333 10320 29083 55059 58009;EQDQ01  00002PRCP99
0201825860999992001041112004-05190-039300FM-12+021199999V0203601N001010075019N0200001N1+02301+02161101171ADDAA124032091AY161061AY251061GF108991081071008001999999KA1240N+02161MA1999999098771MD1999999+0201MW1511REMSYN088AAXX  11124 82586 21598 83602 10230 20216 39877 40117 75165 887// 333 20216 58020 60324;
0134825860999992001041118004-05190-039300FM-12+021199999V0201401N001510075019N0200001N1+02801+02221100951ADDAA199000021GF107991071041008001041001MA1999999098571REMSYN070AAXX  11184 82586 32598 71403 10280 20222 39857 40095 87440 333 05802;
0179825860999992001041200004-05190-039300FM-12+021199999V0203601N002110075019N0010001N1+02541+02401101081ADDAA199000021GF106991061021008001001001KA1240M+03541MA1999999098691MD1999999+0151REMSYN088AAXX  12004 82586 32594 63604 10254 20240 39869 40108 86200 333 10354 29087 55000 58015;
0186825860999992001041212004-05190-039300FM-12+021199999V0201401N001510075019N0200001N1+02641+02291101011ADDAA199000091GF107991071041008001001001KA1240N+02281MA1999999098641MD1999999-0131REMSYN076AAXX  12124 82586 32598 71403 10264 20229 39864 40101 87400 333 20228 59013;EQDQ01  00002PRCP99
0167825860999992001041218004-05190-039300FM-12+021199999V0200901N002110075019N0200001N1+03101+02121100851ADDAA199000091GF106991061021008001001001MA1999999098491MD1999999-0061REMSYN070AAXX  12184 82586 32598 60904 10310 20212 39849 40085 86200 333 59006;EQDQ01  00002PRCP99
0226825860999992001041300004-05190-039300FM-12+021199999V0203601N001510075019N0010001N1+02631+02291100931ADDAA199000091AY121061AY221061GF106991061021008001001001KA1240M+03221MA1999999098571MD1999999-0121MW1131REMSYN094AAXX  13004 82586 31594 63603 10263 20229 39857 40093 71322 86200 333 10322 29075 55056 59012;EQDQ01  00002PRCP99
0186825860999992001041312004-05190-039300FM-12+021199999V0201801N001510450019N0200001N1+02601+02231101011ADDAA199000091GF107991041041008001021001KA1240N+02301MA1999999098641MD1999999+0001REMSYN076AAXX  13124 82586 32598 71803 10260 20223 39864 40101 84420 333 20230 58000;EQDQ01  00002PRCP99
0167825860999992001041318004-05190-039300FM-12+021199999V0200901N003111050019N0200001N1+02901+01941100781ADDAA199000091GF106991031021008001001051MA1999999098421MD1999999-0071REMSYN070AAXX  13184 82586 32598 60906 10290 20194 39842 40078 83205 333 59007;EQDQ01  00002PRCP99
0198825860999992001041400004-05190-039300FM-12+021199999V0209999C000010075019N0010001N1+02591+02311100941ADDAA199000091GF106991061041008001001001KA1240M+03061MA1999999098571MD1999999+0001REMSYN088AAXX  14004 82586 32594 60000 10259 20231 39857 40094 86400 333 10306 29082 55047 58000;EQDQ01  00002PRCP99
0186825860999992001041412004-05190-039300FM-12+021199999V0200501N002110075019N0200001N1+02621+02231100991ADDAA199000091GF107991071041008001001001KA1240N+02281MA1999999098621MD1999999-0021REMSYN076AAXX  14124 82586 32598 70504 10262 20223 39862 40099 87400 333 20228 59002;EQDQ01  00002PRCP99
0167825860999992001041418004-05190-039300FM-12+021199999V02099999999990075019N0200001N1+02541+02471100801ADDAA199000091GF107991071071008001001001MA1999999098421MD1999999+0001REMSYN070AAXX  14184 82586 32598 718// 10254 20247 39842 40080 87700 333 58000;EQDQ01  00002PRCP99
0213825860999992001041500004-05190-039300FM-12+021199999V0203601N002110075019N0010001N1+02361+02331101021ADDAA106004191AY161061AY251061GF108991081071008001999999KA1240M+03181MA1999999098631MD1999999-0061MW1211REMSYN100AAXX  15004 82586 21594 83604 10236 20233 39863 40102 72165 887// 333 10318 29093 55035 59006 60041;
0201825860999992001041512004-05190-039300FM-12+021199999V0200501N001010075019N0200001N1+02461+02071101241ADDAA124005191AY151061AY221061GF107991071071008001001001KA1240N+02201MA1999999098841MD1999999+0221MW1031REMSYN088AAXX  15124 82586 21598 70502 10246 20207 39884 40124 70352 87700 333 20220 58022 60054;
0183825860999992001041518004-05190-039300FM-12+021199999V0203601N001519999999N0200001N1+02711+02261100961ADDAA199000091GF108991999021008001001001MA1999999098581MD1999999+0161REMSYN070AAXX  15184 82586 32598 83603 10271 20226 39858 40096 84200 333 58016;EQDQ01+000042SCOTLCQ02  00002PRCP99
0226825860999992001041600004-05190-039300FM-12+021199999V0201801N001510075019N0010001N1+02331+02181101191ADDAA199000091AY121061AY221061GF106991061021008001001001KA1240M+02821MA1999999098761MD1999999+0161MW1131REMSYN094AAXX  16004 82586 31594 61803 10233 20218 39876 40119 71322 86200 333 10282 29085 55010 58016;EQDQ01  00002PRCP99
0186825860999992001041612004-05190-039300FM-12+021199999V0200901N002610075019N0200001N1+02521+02271101281ADDAA199000091GF108991081071008001999999KA1240N+02201MA1999999098881MD1999999+0041REMSYN076AAXX  16124 82586 32598 80905 10252 20227 39888 40128 887// 333 20220 58004;EQDQ01  00002PRCP99
0145825860999992001041618004-05190-039300FM-12+021199999V0200501N004110075019N0200001N1+02891+02181101031ADDAY151061AY221061GF106991061041008001001001MA1999999098661MW1031REMSYN070AAXX  16184 82586 21598 60508 10289 20218 39866 40103 70352 86400 333;
0173825860999992001041712004-05190-039300FM-12+021199999V0200901N004110075019N0200001N1+02641+02141101131ADDAA124000191GF106991061041008001001001KA1240N+02261MA1999999098751MD1999999-0131REMSYN082AAXX  17124 82586 22598 60908 10264 20214 39875 40113 86400 333 20226 59013 69924;
0167825860999992001041718004-05190-039300FM-12+021199999V0200501N003110075019N0200001N1+03031+02101100891ADDAA199000091GF106991061041008001001001MA1999999098531MD1999999-0131REMSYN070AAXX  17184 82586 32598 60506 10303 20210 39853 40089 86400 333 59013;EQDQ01  00002PRCP99
0214825860999992001041800004-05190-039300FM-12+021199999V0201401N001019999999N0010001N1+02461+02391101011ADDAA199000091GF106991999021008001001001KA1240M+03111MA1999999098631MD1999999-0031REMSYN088AAXX  18004 82586 32594 61402 10246 20239 39863 40101 83200 333 10311 29081 55061 59003;EQDQ01+000032SCOTLCQ02  00002PRCP99
0186825860999992001041812004-05190-039300FM-12+021199999V0200501N004610075019N0200001N1+02701+02281101011ADDAA199000091GF108991081071008001999999KA1240N+02201MA1999999098641MD1999999-0111REMSYN076AAXX  18124 82586 32598 80509 10270 20228 39864 40101 887// 333 20220 59011;EQDQ01  00002PRCP99
0182825860999992001041818004-05190-039300FM-12+021199999V0201801N001510075019N0200001N1+02801+02601100761ADDAA106001091AY161061AY221061GF108991081071008001999999MA1999999098381MD1999999-0151MW1511REMSYN082AAXX  18184 82586 21598 81803 10280 20260 39838 40076 75162 887// 333 59015 60011;
0232825860999992001041900004-05190-039300FM-12+021199999V0209999C000019999999N0100001N1+02321+02291101001ADDAA106025991AY191061AY261061GF108991999011008001001001KA1240M+03091MA1999999098611MD1999999-0021MW1131REMSYN100AAXX  19004 82586 21597 80000 10232 20229 39861 40100 71396 82100 333 10309 29091 55061 59002 60261;EQDQ01+000022SCOTLC
0201825860999992001041912004-05190-039300FM-12+021199999V0200501N001510075019N0200001N1+02561+02331101071ADDAA124029091AY161061AY221061GF108991081071008001999999KA1240N+02281MA1999999098671MD1999999+0031MW1031REMSYN088AAXX  19124 82586 21598 80503 10256 20233 39867 40107 70362 887// 333 20228 58003 60294;
0182825860999992001041918004-05190-039300FM-12+021199999V0201401N001510075019N0200001N1+02511+02241100851ADDAA106006191AY161061AY221061GF108991081071008001999999MA1999999098461MD1999999+0091MW1611REMSYN082AAXX  19184 82586 21598 81403 10251 20224 39846 40085 76162 887// 333 58009 60061;
0198825860999992001042000004-05190-039300FM-12+021199999V0209999C000019999999N0010001N1+02471+02391100991ADDAA199000021GF106991999021008001001001KA1240M+02831MA1999999098601MD1999999-0011REMSYN088AAXX  20004 82586 32594 60000 10247 20239 39860 40099 84200 333 10283 29093 55000 59001;EQDQ01+000042SCOTLC
0201825860999992001042012004-05190-039300FM-12+021199999V0200501N003110075019N0200001N1+02781+02231101111ADDAA124007991AY161061AY251061GF106991061041008001001001KA1240N+02241MA1999999098741MD1999999+0071MW1031REMSYN088AAXX  20124 82586 21598 60506 10278 20223 39874 40111 70365 86400 333 20224 58007 60084;
0167825860999992001042018004-05190-039300FM-12+021199999V0200901N002610075019N0200001N1+02941+02211100831ADDAA199000091GF106991061041008001001001MA1999999098471MD1999999+0011REMSYN070AAXX  20184 82586 32598 60905 10294 20221 39847 40083 86400 333 58001;EQDQ01  00002PRCP99
0213825860999992001042100004-05190-039300FM-12+021199999V0209999C000010075019N0010001N1+02461+02371101041ADDAA106002091AY161061AY221061GF106991061041008001001001KA1240M+03091MA1999999098671MD1999999+0071MW1031REMSYN100AAXX  21004 82586 21594 60000 10246 20237 39867 40104 70362 86400 333 10309 29082 55083 58007 60021;
0201825860999992001042112004-05190-039300FM-12+021199999V0200501N003110075019N0200001N1+02681+02351101171ADDAA124003091AY161061AY221061GF106991061021008001001001KA1240N+02341MA1999999098791MD1999999+0041MW1031REMSYN088AAXX  21124 82586 21598 60506 10268 20235 39879 40117 70362 86200 333 20234 58004 60034;
0183825860999992001042118004-05190-039300FM-12+021199999V02099999999999999999N0200001N1+03011+02001100911ADDAA199000091GF106991999021008001001001MA1999999098551MD1999999+0081REMSYN070AAXX  21184 82586 32598 605// 10301 20200 39855 40091 83200 333 58008;EQDQ01+000032SCOTLCQ02  00002PRCP99
0213825860999992001042200004-05190-039300FM-12+021199999V0203601N001510075019N0010001N1+02431+02281101121ADDAA106000191AY151061AY221061GF105991051041008001001001KA1240M+03161MA1999999098741MD1999999+0071MW1031REMSYN100AAXX  22004 82586 21594 53603 10243 20228 39874 40112 70352 85400 333 10316 29080 55049 58007 69921;
0173825860999992001042212004-05190-039300FM-12+021199999V0200501N004610075019N0200001N1+02641+01981101111ADDAA124000191GF106991061041008001001001KA1240N+02221MA1999999098731MD1999999-0061REMSYN082AAXX  22124 82586 22598 60509 10264 20198 39873 40111 86400 333 20222 59006 69924;
0167825860999992001042218004-05190-039300FM-12+021199999V0200501N004112200019N0200001N1+03041+01761100791ADDAA199000091GF104991041021008001001001MA1999999098431MD1999999-0111REMSYN070AAXX  22184 82586 32598 40508 10304 20176 39843 40079 84200 333 59011;EQDQ01  00002PRCP99
0208825860999992001042300004-05190-039300FM-12+021199999V0203601N002612200019N0010001N1+02631+02271100881ADDAA199000091GA1001+999999999GF100991001001999999001001KA1240M+03201MA1999999098511MD1999999-0231REMSYN082AAXX  23004 82586 32994 03605 10263 20227 39851 40088 333 10320 29072 55104 59023;EQDQ01  00002PRCP99
0186825860999992001042312004-05190-039300FM-12+021199999V0200901N003112200019N0200001N1+02701+01801101011ADDAA199000091GF102991021011008001001001KA1240N+02221MA1999999098641MD1999999-0091REMSYN076AAXX  23124 82586 32598 20906 10270 20180 39864 40101 82100 333 20222 59009;EQDQ01  00002PRCP99
0167825860999992001042318004-05190-039300FM-12+021199999V0201401N003112200019N0200001N1+03081+01821100811ADDAA199000091GF104991041011008001001001MA1999999098451MD1999999+0021REMSYN070AAXX  23184 82586 32598 41406 10308 20182 39845 40081 84100 333 58002;EQDQ01  00002PRCP99
0208825860999992001042400004-05190-039300FM-12+021199999V0203601N001012200019N0010001N1+02581+02251100931ADDAA199000091GA1001+999999999GF100991001001999999001001KA1240M+03181MA1999999098571MD1999999+0061REMSYN082AAXX  24004 82586 32994 03602 10258 20225 39857 40093 333 10318 29067 55108 58006;EQDQ01  00002PRCP99
0186825860999992001042412004-05190-039300FM-12+021199999V0200901N004612200019N0200001N1+02701+02171101071ADDAA199000091GF104991041021008001001041KA1240N+02321MA1999999098701MD1999999+0061REMSYN076AAXX  24124 82586 32598 40909 10270 20217 39870 40107 84204 333 20232 58006;EQDQ01  00002PRCP99
0167825860999992001042418004-05190-039300FM-12+021199999V02099999999992200019N0200001N1+03091+02011100901ADDAA199000091GF106991021021008001001041MA1999999098541MD1999999+0091REMSYN070AAXX  24184 82586 32598 605// 10309 20201 39854 40090 82204 333 58009;EQDQ01  00002PRCP99
0208825860999992001042500004-05190-039300FM-12+021199999V0209999C000012200019N0010001N1+02641+02291101071ADDAA199000091GA1001+999999999GF100991001001999999001001KA1240M+03201MA1999999098701MD1999999+0131REMSYN082AAXX  25004 82586 32994 00000 10264 20229 39870 40107 333 10320 29072 55095 58013;EQDQ01  00002PRCP99
0186825860999992001042512004-05190-039300FM-12+021199999V0200901N002610075019N0200001N1+02721+02081101221ADDAA199000091GF107991071041008001001001KA1240N+02241MA1999999098851MD1999999+0151REMSYN076AAXX  25124 82586 32598 70905 10272 20208 39885 40122 87400 333 20224 58015;EQDQ01  00002PRCP99
0167825860999992001042518004-05190-039300FM-12+021199999V0200501N003110450019N0200001N1+02921+01891101071ADDAA199000091GF107991041011008001021001MA1999999098701MD1999999+0161REMSYN070AAXX  25184 82586 32598 70506 10292 20189 39870 40107 84120 333 58016;EQDQ01  00002PRCP99
0214825860999992001042600004-05190-039300FM-12+021199999V0209999C000019999999N0010001N1+02601+02331101101ADDAA199000091GF106991999011008001001001KA1240M+03111MA1999999098421MD1999999+0031REMSYN088AAXX  26004 82586 32594 60000 10260 20233 39842 40110 82100 333 10311 29073 55017 58003;EQDQ01+000022SCOTLCQ02  00002PRCP99
0186825860999992001042612004-05190-039300FM-12+021199999V0201401N004110075019N0200001N1+02741+02211101161ADDAA199000091GF106991061021008001001001KA1240N+02281MA1999999098791MD1999999-0061REMSYN076AAXX  26124 82586 32598 61408 10274 20221 39879 40116 86200 333 20228 59006;EQDQ01  00002PRCP99
