0186827840999992001010100004-07310-039300FM-12+040999999V0209999C000010450019N0020001N1+02681+01991101171ADDAA199000091GF106991041061008001071001KA1240M+03291MA1999999096541MD1999999-0021REMSYN076AAXX  01004 82784 32595 60000 10268 20199 39654 40117 84670 333 10329 59002;EQDQ01  00002PRCP99
0186827840999992001010112004-07310-039300FM-12+040999999V0203601N001512200019N0200001N1+02841+01881101361ADDAA199000091GF103991011011008001001011KA1240N+02341MA1999999096721MD1999999-0041REMSYN076AAXX  01124 82784 32598 33603 10284 20188 39672 40136 81101 333 20234 59004;EQDQ01  00002PRCP99
0167827840999992001010118004-07310-039300FM-12+040999999V0200501N002611050019N0200001N1+03461+01401100901ADDAA199000091GF105991021021008001061021MA1999999096301MD1999999-0081REMSYN070AAXX  01184 82784 32598 50505 10346 20140 39630 40090 82262 333 59008;EQDQ01  00002PRCP99
0196827840999992001010200004-07310-039300FM-12+040999999V0202301N000512200019N0020001N1+02541+01361101201ADDAA199000091GA1001+999999999GF100991001001999999001001KA1240M+03521MA1999999096561MD1999999+0021REMSYN070AAXX  02004 82784 32995 02301 10254 20136 39656 40120 333 10352 58002;EQDQ01  00002PRCP99
0186827840999992001010212004-07310-039300FM-12+040999999V0200501N001510075019N0200001N1+02751+02021101471ADDAA199000091GF106991061021008001001001KA1240N+02221MA1999999096811MD1999999+0091REMSYN076AAXX  02124 82784 32598 60503 10275 20202 39681 40147 86200 333 20222 58009;EQDQ01  00002PRCP99
0167827840999992001010218004-07310-039300FM-12+040999999V0200901N002610120019N0200001N1+02301+01681100921ADDAA199000091GF107991071021012501001001MA1999999096311MD1999999+0011REMSYN070AAXX  02184 82784 32698 70905 10230 20168 39631 40092 87200 333 58001;EQDQ01  00002PRCP99
0186827840999992001010300004-07310-039300FM-12+040999999V0201401N001010075019N0020001N1+02721+01591101241ADDAA199000091GF106991061021008001001001KA1240M+03471MA1999999096601MD1999999+0041REMSYN076AAXX  03004 82784 32595 61402 10272 20159 39660 40124 86200 333 10347 58004;EQDQ01  00002PRCP99
0186827840999992001010312004-07310-039300FM-12+040999999V0203201N001512200019N0200001N1+02701+01961101461ADDAA199000091GF104991041021008001001001KA1240N+02301MA1999999096811MD1999999+0001REMSYN076AAXX  03124 82784 32598 43203 10270 20196 39681 40146 84200 333 20230 58000;EQDQ01  00002PRCP99
0167827840999992001010318004-07310-039300FM-12+040999999V0200901N003110120019N0200001N1+03131+01791101071ADDAA199000091GF107991071081008001001001MA1999999096441MD1999999+0131REMSYN070AAXX  03184 82784 32598 70906 10313 20179 39644 40107 87800 333 58013;EQDQ01  00002PRCP99
0186827840999992001010400004-07310-039300FM-12+040999999V0200501N001510150019N0020001N1+02561+01671101221ADDAA199000091GF106991061001017501011001KA1240M+03231MA1999999096571MD1999999-0031REMSYN076AAXX  04004 82784 32795 60503 10256 20167 39657 40122 86010 333 10323 59003;EQDQ01  00002PRCP99
0186827840999992001010412004-07310-039300FM-12+040999999V0200901N002612200019N0200001N1+02821+01891101411ADDAA199000091GF104991021021008001061001KA1240N+02261MA1999999096761MD1999999-0051REMSYN076AAXX  04124 82784 32598 40905 10282 20189 39676 40141 82260 333 20226 59005;EQDQ01  00002PRCP99
0183827840999992001010418004-07310-039300FM-12+040999999V0200501N002619999999N0200001N1+02901+01841101111ADDAA199000091GF108991999021008001001001MA1999999096761MD1999999+0021REMSYN070AAXX  04184 82784 32598 80505 10290 20184 39676 40111 83200 333 58002;EQDQ01+000032SCOTLCQ02  00002PRCP99
0186827840999992001010500004-07310-039300FM-12+040999999V0201401N000510075019N0020001N1+02621+01961101371ADDAA199000091GF108991081051008001999999KA1240M+03091MA1999999096721MD1999999+0151REMSYN076AAXX  05004 82784 32595 81401 10262 20196 39672 40137 885// 333 10309 58015;EQDQ01  00002PRCP99
0186827840999992001010512004-07310-039300FM-12+040999999V0200501N002610450019N0200001N1+02641+01771101531ADDAA199000091GF107991011011008001061041KA1240N+02291MA1999999096861MD1999999+0101REMSYN076AAXX  05124 82784 32598 70505 10264 20177 39686 40153 81164 333 20229 58010;EQDQ01  00002PRCP99
0167827840999992001010518004-07310-039300FM-12+040999999V0200501N002610450019N0200001N1+03161+01671101041ADDAA199000091GF106991011011008001031021MA1999999096421MD1999999-0041REMSYN070AAXX  05184 82784 32598 60505 10316 20167 39642 40104 81132 333 59004;EQDQ01  00002PRCP99
0186827840999992001010600004-07310-039300FM-12+040999999V0201801N000512200019N0020001N1+02541+01601101201ADDAA199000091GF101991011011008001001001KA1240M+03271MA1999999096551MD1999999-0171REMSYN076AAXX  06004 82784 32595 11801 10254 20160 39655 40120 81100 333 10327 59017;EQDQ01  00002PRCP99
0220827840999992001010612004-07310-039300FM-12+040999999V0200501N001519999999N0200001N1+02671+02091101441ADDAA124007991AY161061AY211061GF106991999021008001001001KA1240N+02161MA1999999096781MD1999999-0081MW1021REMSYN088AAXX  06124 82784 21598 60503 10267 20209 39678 40144 70261 84200 333 20216 59008 60084;EQDQ01+000042SCOTLC
0183827840999992001010618004-07310-039300FM-12+040999999V0203601N001519999999N0200001N1+03221+01771100961ADDAA199000091GF106991999011008001001001MA1999999096341MD1999999-0081REMSYN070AAXX  06184 82784 32598 63603 10322 20177 39634 40096 82100 333 59008;EQDQ01+000022SCOTLCQ02  00002PRCP99
0173827840999992001010712004-07310-039300FM-12+040999999V0200901N003110120019N0200001N1+02741+01921101321ADDAA124008991GF108991071081008001001021KA1240N+02361MA1999999096671MD1999999-0111REMSYN082AAXX  07124 82784 22598 80906 10274 20192 39667 40132 87802 333 20236 59011 60094;
0167827840999992001010718004-07310-039300FM-12+040999999V0200901N002110120019N0200001N1+03231+01571100901ADDAA199000091GF108991071021012501001061MA1999999096271MD1999999-0071REMSYN070AAXX  07184 82784 32698 80904 10323 20157 39627 40090 87206 333 59007;EQDQ01  00002PRCP99
0196827840999992001010800004-07310-039300FM-12+040999999V0201401N000512200019N0020001N1+02441+01951101071ADDAA199000091GF101991999999008001999999KA1240M+03201MA1999999098422MD1999999-0061REMSYN070AAXX  08004 82784 32595 11401 10244 20195 39842 40107 333 10320 59006;EQDQ01+098423APOSP Q02  00002PRCP99
0201827840999992001010812004-07310-039300FM-12+040999999V0200501N001511050019N0200001N1+02561+02021101361ADDAA124011991AY161061AY221061GF105991021021008001031021KA1240N+02071MA1999999096701MD1999999+0031MW1021REMSYN088AAXX  08124 82784 21598 50503 10256 20202 39670 40136 70262 82232 333 20207 58003 60124;
0167827840999992001010818004-07310-039300FM-12+040999999V0200501N002112200019N0200001N1+03241+01711100831ADDAA199000091GF102991021021008001001001MA1999999096221MD1999999-0051REMSYN070AAXX  08184 82784 32598 20504 10324 20171 39622 40083 82200 333 59005;EQDQ01  00002PRCP99
0186827840999992001010912004-07310-039300FM-12+040999999V0203601N001512200019N0200001N1+02721+01821101391ADDAA199000091GF103991011021008001001011KA1240N+02141MA1999999096741MD1999999+0041REMSYN076AAXX  09124 82784 32598 33603 10272 20182 39674 40139 81201 333 20214 58004;EQDQ01  00002PRCP99
0167827840999992001010918004-07310-039300FM-12+040999999V0200501N002110450019N0200001N1+03171+01671100911ADDAA199000091GF107991011021008001021001MA1999999096291MD1999999+0071REMSYN070AAXX  09184 82784 32598 70504 10317 20167 39629 40091 81220 333 58007;EQDQ01  00002PRCP99
0186827840999992001011000004-07310-039300FM-12+040999999V0201801N001512200019N0020001N1+02531+01891101101ADDAA199000091GF103991031001017501011001KA1240M+03201MA1999999096461MD1999999+0031REMSYN076AAXX  10004 82784 32795 31803 10253 20189 39646 40110 83010 333 10320 58003;EQDQ01  00002PRCP99
0186827840999992001011012004-07310-039300FM-12+040999999V0200901N002110450019N0200001N1+02691+01941101411ADDAA199000091GF106991021021008001061011KA1240N+02321MA1999999096751MD1999999+0011REMSYN076AAXX  10124 82784 32598 60904 10269 20194 39675 40141 82261 333 20232 58001;EQDQ01  00002PRCP99
0167827840999992001011018004-07310-039300FM-12+040999999V0200901N001510450019N0200001N1+03231+01691100911ADDAA199000091GF107991041021008001021001MA1999999096291MD1999999+0001REMSYN070AAXX  10184 82784 32598 70903 10323 20169 39629 40091 84220 333 58000;EQDQ01  00002PRCP99
0186827840999992001011112004-07310-039300FM-12+040999999V0200901N002111050019N0200001N1+02791+01731101481ADDAA199000091GF107991011011008001001021KA1240N+02281MA1999999096831MD1999999+0081REMSYN076AAXX  11124 82784 32598 70904 10279 20173 39683 40148 81102 333 20228 58008;EQDQ01  00002PRCP99
0167827840999992001011118004-07310-039300FM-12+040999999V0200901N002111050019N0200001N1+03121+01521101081ADDAA199000091GF107991011011008001001021MA1999999096451MD1999999+0161REMSYN070AAXX  11184 82784 32598 70904 10312 20152 39645 40108 81102 333 58016;EQDQ01  00002PRCP99
0186827840999992001011200004-07310-039300FM-12+040999999V0200901N003110075019N0020001N1+02761+01661101301ADDAA199000091GF108991081071008001999999KA1240M+03211MA1999999096661MD1999999+0141REMSYN076AAXX  12004 82784 32595 80906 10276 20166 39666 40130 887// 333 10321 58014;EQDQ01  00002PRCP99
0186827840999992001011212004-07310-039300FM-12+040999999V0200501N002110120019N0200001N1+02601+01921101451ADDAA199000091GF108991081081008001999999KA1240N+02401MA1999999096801MD1999999-0031REMSYN076AAXX  12124 82784 32598 80504 10260 20192 39680 40145 888// 333 20240 59003;EQDQ01  00002PRCP99
0182827840999992001011218004-07310-039300FM-12+040999999V0200501N001010075019N0200001N1+02061+01981101261ADDAA106043991AY191061AY261061GF108991061071008001021999MA1999999096571MD1999999+0121MW1211REMSYN082AAXX  12184 82784 21598 80502 10206 20198 39657 40126 72196 8672/ 333 58012 60441;
0201827840999992001011300004-07310-039300FM-12+040999999V0202701N001010075019N0020001N1+02141+02061101491ADDAA106094091AY151061AY221061GF108991081051008001999999KA1240M+02901MA1999999096801MD1999999+0141MW1021REMSYN088AAXX  13004 82784 21595 82702 10214 20206 39680 40149 70252 885// 333 10290 58014 60941;
0173827840999992001011312004-07310-039300FM-12+040999999V0200901N001510450019N0200001N1+02581+02011101511ADDAA124045091GF107991021021008001071001KA1240N+01941MA1999999096821MD1999999+0021REMSYN082AAXX  13124 82784 22598 70903 10258 20201 39682 40151 82270 333 20194 58002 60454;
0167827840999992001011318004-07310-039300FM-12+040999999V0200901N002110120019N0200001N1+02981+01981101091ADDAA199000091GF108991081081008001999999MA1999999096451MD1999999-0121REMSYN070AAXX  13184 82784 32598 80904 10298 20198 39645 40109 888// 333 59012;EQDQ01  00002PRCP99
0186827840999992001011400004-07310-039300FM-12+040999999V0201401N002110120019N0020001N1+02571+01781101351ADDAA199000091GF108991081081008001999999KA1240M+03021MA1999999096691MD1999999-0111REMSYN076AAXX  14004 82784 32595 81404 10257 20178 39669 40135 888// 333 10302 59011;EQDQ01  00002PRCP99
0220827840999992001011412004-07310-039300FM-12+040999999V0200901N002610075019N0200001N1+02601+01871101481ADDAA124000191AY151061AY221061GF108991999021008001001001KA1240N+02241MA1999999096821MD1999999+0001MW1021REMSYN088AAXX  14124 82784 21598 80905 10260 20187 39682 40148 70252 87200 333 20224 58000 69924;EQDQ01+000072SCOTLC
0183827840999992001011418004-07310-039300FM-12+040999999V0200901N004119999999N0200001N1+03101+01701101071ADDAA199000091GF108991999021012501001001MA1999999096441MD1999999-0011REMSYN070AAXX  14184 82784 32698 80908 10310 20170 39644 40107 83200 333 59001;EQDQ01+000032SCOTLCQ02  00002PRCP99
0196827840999992001011500004-07310-039300FM-12+040999999V0200901N002112200019N0020001N1+02641+01751101221ADDAA199000091GA1001+999999999GF100991001001999999001001KA1240M+03151MA1999999096571MD1999999-0121REMSYN070AAXX  15004 82784 32995 00904 10264 20175 39657 40122 333 10315 59012;EQDQ01  00002PRCP99
0186827840999992001011512004-07310-039300FM-12+040999999V0200901N004612200019N0200001N1+02731+01741101411ADDAA199000091GF102991011021008001011001KA1240N+02031MA1999999096761MD1999999-0061REMSYN076AAXX  15124 82784 32598 20909 10273 20174 39676 40141 81210 333 20203 59006;EQDQ01  00002PRCP99
0167827840999992001011518004-07310-039300FM-12+040999999V0200901N003110075019N0200001N1+03141+01621101051ADDAA199000091GF105991051021008001001001MA1999999096421MD1999999-0021REMSYN070AAXX  15184 82784 32598 50906 10314 20162 39642 40105 85200 333 59002;EQDQ01  00002PRCP99
0186827840999992001011612004-07310-039300FM-12+040999999V0200901N002110450019N0200001N1+02691+01641101421ADDAA199000091GF106991011011008001061011KA1240N+02271MA1999999096761MD1999999+0001REMSYN076AAXX  16124 82784 32598 60904 10269 20164 39676 40142 81161 333 20227 58000;EQDQ01  00002PRCP99
0167827840999992001011618004-07310-039300FM-12+040999999V0200501N002610150019N0200001N1+03151+01501100991ADDAA199000091GF108991061081012501011999MA1999999096371MD1999999-0051REMSYN070AAXX  16184 82784 32698 80505 10315 20150 39637 40099 8681/ 333 59005;EQDQ01  00002PRCP99
0186827840999992001011700004-07310-039300FM-12+040999999V0209999C000010075019N0020001N1+02701+01831101191ADDAA199000091GF106991061021008001001001KA1240M+03251MA1999999096551MD1999999-0041REMSYN076AAXX  17004 82784 32595 60000 10270 20183 39655 40119 86200 333 10325 59004;EQDQ01  00002PRCP99
0180827840999992001011712004-07310-039300FM-12+040999999V0201401N004112200019N0200001N1+02811+01531101351ADDAA199000091GF101991999999999999999999KA1240N+02261MA1999999096711MD1999999-0051REMSYN070AAXX  17124 82784 32998 11408 10281 20153 39671 40135 333 20226 59005;EQDQ01  00002PRCP99
0167827840999992001011718004-07310-039300FM-12+040999999V0201401N003110450019N0200001N1+03191+01491100951ADDAA199000091GF106991041021008001011001MA1999999096331MD1999999-0041REMSYN070AAXX  17184 82784 32598 61406 10319 20149 39633 40095 84210 333 59004;EQDQ01  00002PRCP99
0196827840999992001011800004-07310-039300FM-12+040999999V0201401N000512200019N0020001N1+02561+01321101251ADDAA199000091GA1001+999999999GF100991001001999999001001KA1240M+03311MA1999999096611MD1999999+0061REMSYN070AAXX  18004 82784 32995 01401 10256 20132 39661 40125 333 10331 58006;EQDQ01  00002PRCP99
0186827840999992001011812004-07310-039300FM-12+040999999V0200901N002110150019N0200001N1+02671+01561101431ADDAA199000091GF108991071001017501011041KA1240N+02061MA1999999096771MD1999999+0061REMSYN076AAXX  18124 82784 32798 80904 10267 20156 39677 40143 87014 333 20206 58006;EQDQ01  00002PRCP99
0167827840999992001011818004-07310-039300FM-12+040999999V0200501N003110450019N0200001N1+03101+01581101011ADDAA199000091GF108991041061012501011061MA1999999096381MD1999999+0051REMSYN070AAXX  18184 82784 32698 80506 10310 20158 39638 40101 84616 333 58005;EQDQ01  00002PRCP99
0196827840999992001011900004-07310-039300FM-12+040999999V0202301N001012200019N0020001N1+02461+01581101281ADDAA199000091GA1001+999999999GF100991001001999999001001KA1240M+03291MA1999999096631MD1999999+0021REMSYN070AAXX  19004 82784 32995 02302 10246 20158 39663 40128 333 10329 58002;EQDQ01  00002PRCP99
0186827840999992001011912004-07310-039300FM-12+040999999V0200901N003112200019N0200001N1+02701+01661101591ADDAA199000091GF101991011081008001001001KA1240N+02341MA1999999096921MD1999999+0151REMSYN076AAXX  19124 82784 32598 10906 10270 20166 39692 40159 81800 333 20234 58015;EQDQ01  00002PRCP99
0167827840999992001011918004-07310-039300FM-12+040999999V0200501N002110075019N0200001N1+03281+01581101091ADDAA199000091GF106991061021008001001001MA1999999096461MD1999999+0081REMSYN070AAXX  19184 82784 32598 60504 10328 20158 39646 40109 86200 333 58008;EQDQ01  00002PRCP99
0186827840999992001012000004-07310-039300FM-12+040999999V0203201N000512200019N0020001N1+02591+01771101291ADDAA199000091GF101991011021008001001001KA1240M+03371MA1999999096641MD1999999+0011REMSYN076AAXX  20004 82784 32595 13201 10259 20177 39664 40129 81200 333 10337 58001;EQDQ01  00002PRCP99
0201827840999992001012012004-07310-039300FM-12+040999999V0200501N001512200019N0200001N1+02771+01831101621ADDAA124003091AY161061AY201061GF102991011021008001061001KA1240N+02361MA1999999096981MD1999999+0061MW1011REMSYN088AAXX  20124 82784 21598 20503 10277 20183 39698 40162 70160 81260 333 20236 58006 60034;
0167827840999992001012018004-07310-039300FM-12+040999999V0200501N002110450019N0200001N1+03261+01601101071ADDAA199000091GF106991021021008001011001MA1999999096451MD1999999-0011REMSYN070AAXX  20184 82784 32598 60504 10326 20160 39645 40107 82210 333 59001;EQDQ01  00002PRCP99
0202827840999992001012100004-07310-039300FM-12+040999999V0201401N001012200019N0020001N1+02551+01831101301ADDAA199000091GF101991999011008001001001KA1240M+03391MA1999999096651MD1999999+0011REMSYN076AAXX  21004 82784 32595 11402 10255 20183 39665 40130 82100 333 10339 58001;EQDQ01+000022SCOTLCQ02  00002PRCP99
0186827840999992001012112004-07310-039300FM-12+040999999V0200501N002110450019N0200001N1+02681+01971101481ADDAA199000091GF108991031021008001011999KA1240N+02261MA1999999096821MD1999999-0161REMSYN076AAXX  21124 82784 32598 80504 10268 20197 39682 40148 8321/ 333 20226 59016;EQDQ01  00002PRCP99
0167827840999992001012118004-07310-039300FM-12+040999999V0203601N002110150019N0200001N1+03221+01651101001ADDAA199000091GF108991081001017501021999MA1999999096381MD1999999-0071REMSYN070AAXX  21184 82784 32798 83604 10322 20165 39638 40100 8802/ 333 59007;EQDQ01  00002PRCP99
0196827840999992001012200004-07310-039300FM-12+040999999V0209999C000012200019N0020001N1+02541+01711101271ADDAA199000091GA1001+999999999GF100991001001999999001001KA1240M+03271MA1999999096621MD1999999-0031REMSYN070AAXX  22004 82784 32995 00000 10254 20171 39662 40127 333 10327 59003;EQDQ01  00002PRCP99
0201827840999992001012212004-07310-039300FM-12+040999999V0200501N003110120019N0040001N1+02521+02191101601ADDAA124003091AY191061AY261061GF108991081081008001999999KA1240N+02261MA1999999096921MD1999999+0101MW1021REMSYN088AAXX  22124 82784 21596 80506 10252 20219 39692 40160 70296 888// 333 20226 58010 60034;
0167827840999992001012218004-07310-039300FM-12+040999999V0203601N002112200019N0200001N1+03201+01671101061ADDAA199000091GF102991011021008001001081MA1999999096441MD1999999+0061REMSYN070AAXX  22184 82784 32598 23604 10320 20167 39644 40106 81208 333 58006;EQDQ01  00002PRCP99
0196827840999992001012300004-07310-039300FM-12+040999999V0209999C000012200019N0020001N1+02501+01821101271ADDAA199000091GA1001+999999999GF100991001001999999001001KA1240M+03291MA1999999096611MD1999999-0091REMSYN070AAXX  23004 82784 32995 00000 10250 20182 39661 40127 333 10329 59009;EQDQ01  00002PRCP99
0186827840999992001012312004-07310-039300FM-12+040999999V0200501N002112200019N0200001N1+02781+02041101501ADDAA199000091GF103991031021008001001001KA1240N+02221MA1999999096841MD1999999-0081REMSYN076AAXX  23124 82784 32598 30504 10278 20204 39684 40150 83200 333 20222 59008;EQDQ01  00002PRCP99
0167827840999992001012318004-07310-039300FM-12+040999999V0201401N002112200019N0200001N1+03501+01681100961ADDAA199000091GF102991021021008001001001MA1999999096351MD1999999-0091REMSYN070AAXX  23184 82784 32598 21404 10350 20168 39635 40096 82200 333 59009;EQDQ01  00002PRCP99
0186827840999992001012400004-07310-039300FM-12+040999999V0200501N000512200019N0020001N1+02581+01611101201ADDAA199000091GF101991011021008001001001KA1240M+03531MA1999999096561MD1999999-0051REMSYN076AAXX  24004 82784 32595 10501 10258 20161 39656 40120 81200 333 10353 59005;EQDQ01  00002PRCP99
0186827840999992001012412004-07310-039300FM-12+040999999V0200501N002112200019N0200001N1+02751+01841101561ADDAA199000091GF102991021021008001001001KA1240N+02331MA1999999096901MD1999999+0061REMSYN076AAXX  24124 82784 32598 20504 10275 20184 39690 40156 82200 333 20233 58006;EQDQ01  00002PRCP99
0167827840999992001012418004-07310-039300FM-12+040999999V0201401N003112200019N0200001N1+03481+01661101031ADDAA199000091GF104991031021008001011001MA1999999096431MD1999999+0081REMSYN070AAXX  24184 82784 32598 41406 10348 20166 39643 40103 83210 333 58008;EQDQ01  00002PRCP99
0186827840999992001012500004-07310-039300FM-12+040999999V0201401N001010120019N0020001N1+02741+01511101231ADDAA199000091GF108991081081008001999999KA1240M+03531MA1999999096591MD1999999+0031REMSYN076AAXX  25004 82784 32595 81402 10274 20151 39659 40123 888// 333 10353 58003;EQDQ01  00002PRCP99
0186827840999992001012512004-07310-039300FM-12+040999999V0203601N001510075019N0200001N1+02501+02031101571ADDAA199000091GF106991061021008001001001KA1240N+02401MA1999999096901MD1999999+0001REMSYN076AAXX  25124 82784 32598 63603 10250 20203 39690 40157 86200 333 20240 58000;EQDQ01  00002PRCP99
0167827840999992001012518004-07310-039300FM-12+040999999V0200501N001512200019N0200001N1+03341+01831101001ADDAA199000091GF104991031021008001011001MA1999999096391MD1999999-0041REMSYN070AAXX  25184 82784 32598 40503 10334 20183 39639 40100 83210 333 59004;EQDQ01  00002PRCP99
0196827840999992001012600004-07310-039300FM-12+040999999V0201801N000512200019N0020001N1+02571+01801101281ADDAA199000091GA1001+999999999GF100991001001999999001001KA1240M+03471MA1999999095621MD1999999+0031REMSYN070AAXX  26004 82784 32995 01801 10257 20180 39562 40128 333 10347 58003;EQDQ01  00002PRCP99
0186827840999992001012612004-07310-039300FM-12+040999999V0200501N001010075019N0200001N1+02671+02021101551ADDAA199000091GF107991071021008001001001KA1240N+02351MA1999999096881MD1999999-0021REMSYN076AAXX  26124 82784 32598 70502 10267 20202 39688 40155 87200 333 20235 59002;EQDQ01  00002PRCP99
0167827840999992001012618004-07310-039300FM-12+040999999V0203601N001010120019N0200001N1+03311+01761100981ADDAA199000091GF107991071021012501001001MA1999999096371MD1999999-0021REMSYN070AAXX  26184 82784 32698 73602 10331 20176 39637 40098 87200 333 59002;EQDQ01  00002PRCP99
0202827840999992001012700004-07310-039300FM-12+040999999V0201801N001012200019N0020001N1+02741+01951101171ADDAA199000091GF101991999011008001001001KA1240M+03391MA1999999096531MD1999999-0091REMSYN076AAXX  27004 82784 32595 11802 10274 20195 39653 40117 82100 333 10339 59009;EQDQ01+000022SCOTLCQ02  00002PRCP99
0186827840999992001012712004-07310-039300FM-12+040999999V0200501N002110120019N0200001N1+02661+02021101461ADDAA199000091GF106991061081008001001001KA1240N+02401MA1999999096811MD1999999-0071REMSYN076AAXX  27124 82784 32598 60504 10266 20202 39681 40146 86800 333 20240 59007;EQDQ01  00002PRCP99
0167827840999992001012718004-07310-039300FM-12+040999999V0200501N001510075019N0200001N1+03321+01971100991ADDAA199000091GF105991051021008001001001MA1999999096371MD1999999+0001REMSYN070AAXX  27184 82784 32598 50503 10332 20197 39637 40099 85200 333 58000;EQDQ01  00002PRCP99
0186827840999992001012800004-07310-039300FM-12+040999999V0202301N000510120019N0020001N1+02701+01911101241ADDAA199000091GF108991081081008001999999KA1240M+03401MA1999999096601MD1999999+0071REMSYN076AAXX  28004 82784 32595 82301 10270 20191 39660 40124 888// 333 10340 58007;EQDQ01  00002PRCP99
0201827840999992001012812004-07310-039300FM-12+040999999V0203601N001510075019N0200001N1+02461+02111101451ADDAA124005191AY161061AY221061GF108991081051008001999999KA1240N+02241MA1999999096791MD1999999-0021MW1021REMSYN088AAXX  28124 82784 21598 83603 10246 20211 39679 40145 70262 885// 333 20224 59002 60054;
0177827840999992001012818004-07310-039300FM-12+040999999V0203601N001012200019N0200001N1+03101+01901100901ADDAA199000091GA1001+999999999GF100991001001999999001001MA1999999096271MD1999999-0101REMSYN064AAXX  28184 82784 32698 03602 10310 20190 39627 40090 333 59010;EQDQ01  00002PRCP99
0186827840999992001012900004-07310-039300FM-12+040999999V0201401N001010120019N0020001N1+02461+02031101191ADDAA199000091GF108991081081008001999999KA1240M+03251MA1999999096531MD1999999-0071REMSYN076AAXX  29004 82784 32595 81402 10246 20203 39653 40119 888// 333 10325 59007;EQDQ01  00002PRCP99
0201827840999992001012912004-07310-039300FM-12+040999999V0203201N002110075019N0200001N1+02641+02161101371ADDAA124002091AY161061AY221061GF106991061021008001001001KA1240N+02261MA1999999096711MD1999999-0081MW1021REMSYN088AAXX  29124 82784 21598 63204 10264 20216 39671 40137 70262 86200 333 20226 59008 60024;
0167827840999992001012918004-07310-039300FM-12+040999999V0200901N002612200019N0200001N1+03241+01931100831ADDAA199000091GF104991031021008001011001MA1999999096221MD1999999-0051REMSYN070AAXX  29184 82784 32598 40905 10324 20193 39622 40083 83210 333 59005;EQDQ01  00002PRCP99
0186827840999992001013000004-07310-039300FM-12+040999999V0202301N000510120019N0020001N1+02461+01901100951ADDAA199000091GF108991081081008001999999KA1240M+03331MA1999999096311MD1999999-0221REMSYN076AAXX  30004 82784 32595 82301 10246 20190 39631 40095 888// 333 10333 59022;EQDQ01  00002PRCP99
0201827840999992001013012004-07310-039300FM-12+040999999V0200501N002112200019N0200001N1+02581+02011101361ADDAA124002091AY161061AY211061GF104991041021008001001001KA1240N+02221MA1999999096691MD1999999-0021MW1021REMSYN088AAXX  30124 82784 21598 40504 10258 20201 39669 40136 70261 84200 333 20222 59002 60024;
0167827840999992001013018004-07310-039300FM-12+040999999V0203601N002112200019N0200001N1+03211+01741100771ADDAA199000091GF102991021021008001001001MA1999999096151MD1999999-0071REMSYN070AAXX  30184 82784 32598 23604 10321 20174 39615 40077 82200 333 59007;EQDQ01  00002PRCP99
0201827840999992001013100004-07310-039300FM-12+040999999V0201401N004610042019N0002001N1+02301+02051100961ADDAA106005191AY121061AY221061GF108991081051004501999999KA1240M+03291MA1999999096341MD1999999+0031MW1631REMSYN088AAXX  31004 82784 21492 81409 10230 20205 39634 40096 76322 885// 333 10329 58003 60051;
0201827840999992001013112004-07310-039300FM-12+040999999V0200501N002110120019N0040001N1+02441+02091101341ADDAA124017091AY191061AY261061GF108991081081008001999999KA1240N+02151MA1999999096661MD1999999-0031MW1021REMSYN088AAXX  31124 82784 21596 80504 10244 20209 39666 40134 70296 888// 333 20215 59003 60174;
0167827840999992001013118004-07310-039300FM-12+040999999V0203601N001511050019N0200001N1+03021+01921100911ADDAA199000091GF106991021021008001001021MA1999999096271MD1999999+0121REMSYN070AAXX  31184 82784 32598 63603 10302 20192 39627 40091 82202 333 58012;EQDQ01  00002PRCP99
0186827840999992001020100004-07310-039300FM-12+040999999V0202301N001012200019N0020001N1+02461+02071101091ADDAA199000091GF101991011001017501011001KA1240M+03171MA1999999096431MD1999999+0081REMSYN076AAXX  01004 82784 32795 12302 10246 20207 39643 40109 81010 333 10317 58008;EQDQ01  00002PRCP99
0186827840999992001020112004-07310-039300FM-12+040999999V0203201N001510075019N0200001N1+02521+02051101281ADDAA199000091GF107991061021008001031001KA1240N+02271MA1999999096621MD1999999-0041REMSYN076AAXX  01124 82784 32598 73203 10252 20205 39662 40128 86230 333 20227 59004;EQDQ01  00002PRCP99
0167827840999992001020118004-07310-039300FM-12+040999999V0200501N001512200019N0200001N1+03141+01871100701ADDAA199000091GF103991021021012501021001MA1999999096081MD1999999-0191REMSYN070AAXX  01184 82784 32698 30503 10314 20187 39608 40070 82220 333 59019;EQDQ01  00002PRCP99
0186827840999992001020200004-07310-039300FM-12+040999999V0202701N000512200019N0020001N1+02561+02211100931ADDAA199000091GF104991041081008001001001KA1240M+03231MA1999999096291MD1999999-0141REMSYN076AAXX  02004 82784 32595 42701 10256 20221 39629 40093 84800 333 10323 59014;EQDQ01  00002PRCP99
0186827840999992001020212004-07310-039300FM-12+040999999V0202701N001010120019N0200001N1+02541+02131101311ADDAA199000091GF108991081081008001999999KA1240N+02361MA1999999096691MD1999999+0071REMSYN076AAXX  02124 82784 32598 82702 10254 20213 39669 40131 888// 333 20236 58007;EQDQ01  00002PRCP99
0167827840999992001020218004-07310-039300FM-12+040999999V0200901N001010120019N0200001N1+02981+02061100831ADDAA199000091GF106991061081008001001001MA1999999096211MD1999999+0131REMSYN070AAXX  02184 82784 32598 60902 10298 20206 39621 40083 86800 333 58013;EQDQ01  00002PRCP99
0186827840999992001020300004-07310-039300FM-12+040999999V0202701N001012200019N0020001N1+02441+02191101041ADDAA199000091GF102991021011008001001001KA1240M+03171MA1999999096381MD1999999+0091REMSYN076AAXX  03004 82784 32595 22702 10244 20219 39638 40104 82100 333 10317 58009;EQDQ01  00002PRCP99
0201827840999992001020312004-07310-039300FM-12+040999999V0200501N000510075019N0040001N1+02181+02111101411ADDAA124074991AY191061AY261061GF108991081071008001999999KA1240N+02141MA1999999096721MD1999999+0031MW1951REMSYN088AAXX  03124 82784 21596 80501 10218 20211 39672 40141 79596 887// 333 20214 58003 60754;
0148827840999992001020318004-07310-039300FM-12+040999999V0202301N001010450019N0200001N1+02751+02121101021ADDAA199000021GF107991011021008001021001MA1999999096361MD1999999+0151REMSYN070AAXX  03184 82784 32598 72302 10275 20212 39636 40102 81220 333 58015;
0167827840999992001020400004-07310-039300FM-12+040999999V0203201N001510150019N0020001N1+02301+01981101071ADDAA199000021GF108991081001017501021999KA1240M+02951MA1999999096391MD1999999+0011REMSYN076AAXX  04004 82784 32795 83203 10230 20198 39639 40107 8802/ 333 10295 58001;
0220827840999992001020412004-07310-039300FM-12+040999999V0202701N001010075019N0200001N1+02181+02031101511ADDAA124026991AY191061AY261061GF108991999021008001001001KA1240N+01951MA1999999096811MD1999999+0091MW1021REMSYN088AAXX  04124 82784 21598 82702 10218 20203 39681 40151 70296 87200 333 20195 58009 60274;EQDQ01+000072SCOTLC
0182827840999992001020418004-07310-039300FM-12+040999999V0203601N000510120019N0200001N1+02801+02171101171ADDAA106002091AY121061AY221061GF107991071021012501001001MA1999999096541MD1999999+0121MW1211REMSYN082AAXX  04184 82784 21698 73601 10280 20217 39654 40117 72122 87200 333 58012 60021;
0167827840999992001020500004-07310-039300FM-12+040999999V0200901N000510075019N0020001N1+02361+02281101281ADDAA199000021GF106991061021008001001001KA1240M+02891MA1999999096571MD1999999+0121REMSYN076AAXX  05004 82784 32595 60901 10236 20228 39657 40128 86200 333 10289 58012;
0201827840999992001020512004-07310-039300FM-12+040999999V0209999C000010075019N0040001N1+02361+02091101491ADDAA124055991AY191061AY261061GF108991081061008001999999KA1240N+02041MA1999999096801MD1999999-0011MW1021REMSYN088AAXX  05124 82784 21596 80000 10236 20209 39680 40149 70296 886// 333 20204 59001 60564;
0167827840999992001020518004-07310-039300FM-12+040999999V0200901N000510450019N0200001N1+02971+01991101061ADDAA199000091GF105991021021008001011001MA1999999096411MD1999999-0091REMSYN070AAXX  05184 82784 32598 50901 10297 20199 39641 40106 82210 333 59009;EQDQ01  00002PRCP99
0196827840999992001020600004-07310-039300FM-12+040999999V0209999C000012200019N0020001N1+02361+02211101371ADDAA199000091GA1001+999999999GF100991001001999999001001KA1240M+03091MA1999999096691MD1999999+0121REMSYN070AAXX  06004 82784 32995 00000 10236 20221 39669 40137 333 10309 58012;EQDQ01  00002PRCP99
0186827840999992001020612004-07310-039300FM-12+040999999V0203601N000510120019N0200001N1+02541+02061101491ADDAA199000091GF108991081081008001999999KA1240N+02181MA1999999096811MD1999999+0011REMSYN076AAXX  06124 82784 32598 83601 10254 20206 39681 40149 888// 333 20218 58001;EQDQ01  00002PRCP99
0167827840999992001020618004-07310-039300FM-12+040999999V0203601N002112200019N0200001N1+03051+02061101051ADDAA199000091GF102991021021008001001001MA1999999096411MD1999999+0001REMSYN070AAXX  06184 82784 32598 23604 10305 20206 39641 40105 82200 333 58000;EQDQ01  00002PRCP99
0202827840999992001020700004-07310-039300FM-12+040999999V0202301N001019999999N0020001N1+02461+02211101141ADDAA199000091GF107991999011008001001001KA1240M+03191MA1999999096481MD1999999-0211REMSYN076AAXX  07004 82784 32595 72302 10246 20221 39648 40114 82100 333 10319 59021;EQDQ01+000022SCOTLCQ02  00002PRCP99
0167827840999992001020718004-07310-039300FM-12+040999999V0203601N001512200019N0200001N1+03061+01901100961ADDAA199000091GF101991011011012501001001MA1999999096341MD1999999-0071REMSYN070AAXX  07184 82784 32698 13603 10306 20190 39634 40096 81100 333 59007;EQDQ01  00002PRCP99
0196827840999992001020800004-07310-039300FM-12+040999999V0201801N001512200019N0020001N1+02421+01991101141ADDAA199000091GA1001+999999999GF100991001001999999001001KA1240M+03211MA1999999096481MD1999999+0001REMSYN070AAXX  08004 82784 32995 01803 10242 20199 39648 40114 333 10321 58000;EQDQ01  00002PRCP99
0186827840999992001020812004-07310-039300FM-12+040999999V0202701N001510450019N0200001N1+02501+01891101411ADDAA199000091GF108991011011008001031999KA1240N+02081MA1999999096741MD1999999-0041REMSYN076AAXX  08124 82784 32598 82703 10250 20189 39674 40141 8113/ 333 20208 59004;EQDQ01  00002PRCP99
0167827840999992001020818004-07310-039300FM-12+040999999V0200501N001512200019N0200001N1+03141+02071100891ADDAA199000091GF102991021021008001001001MA1999999096261MD1999999-0081REMSYN070AAXX  08184 82784 32598 20503 10314 20207 39626 40089 82200 333 59008;EQDQ01  00002PRCP99
0196827840999992001020900004-07310-039300FM-12+040999999V0202701N001012200019N0020001N1+02541+02131100991ADDAA199000091GA1001+999999999GF100991001001999999001001KA1240M+03211MA1999999096341MD1999999-0141REMSYN070AAXX  09004 82784 32995 02702 10254 20213 39634 40099 333 10321 59014;EQDQ01  00002PRCP99
0201827840999992001020912004-07310-039300FM-12+040999999V0203601N001010120019N0005001N1+02481+02291101281ADDAA124019191AY161061AY241061GF108991081081008001999999KA1240N+02221MA1999999096621MD1999999-0121MW1441REMSYN088AAXX  09124 82784 21593 83602 10248 20229 39662 40128 74464 888// 333 20222 59012 60194;
0195827840999992001020918004-07310-039300FM-12+040999999V0200901N002612200019N0200001N1+03081+01881100801ADDAA199000091AY141061AY211061GF104991011011008001011001MA1999999096181MD1999999-0081MW1021REMSYN076AAXX  09184 82784 31598 40905 10308 20188 39618 40080 70241 81110 333 59008;EQDQ01  00002PRCP99
0186827840999992001021000004-07310-039300FM-12+040999999V0202301N000510150019N0020001N1+02321+01941101021ADDAA199000091GF106991061001017501011001KA1240M+03111MA1999999096361MD1999999+0031REMSYN076AAXX  10004 82784 32795 62301 10232 20194 39636 40102 86010 333 10311 58003;EQDQ01  00002PRCP99
0186827840999992001021012004-07310-039300FM-12+040999999V0203601N001010450019N0200001N1+02581+02191101251ADDAA199000091GF106991011021008001031001KA1240N+02141MA1999999096581MD1999999-0041REMSYN076AAXX  10124 82784 32598 63602 10258 20219 39658 40125 81230 333 20214 59004;EQDQ01  00002PRCP99
0167827840999992001021018004-07310-039300FM-12+040999999V0200901N002612200019N0200001N1+03151+01801100821ADDAA199000091GF103991011011008001011001MA1999999096201MD1999999+0021REMSYN070AAXX  10184 82784 32598 30905 10315 20180 39620 40082 81110 333 58002;EQDQ01  00002PRCP99
0202827840999992001021100004-07310-039300FM-12+040999999V0209999C000012200019N0020001N1+02441+02071101001ADDAA199000091GF101991999011017501001001KA1240M+03191MA1999999096351MD1999999-0011REMSYN076AAXX  11004 82784 32795 10000 10244 20207 39635 40100 82100 333 10319 59001;EQDQ01+000022SCOTLCQ02  00002PRCP99
0167827840999992001021118004-07310-039300FM-12+040999999V0203601N002112200019N0200001N1+03101+02061100921ADDAA199000091GF102991021021012501001001MA1999999096291MD1999999+0091REMSYN070AAXX  11184 82784 32698 23604 10310 20206 39629 40092 82200 333 58009;EQDQ01  00002PRCP99
0228827840999992001021200004-07310-039300FM-12+040999999V0202301N000512200019N0020001N1+02461+02171101111ADDAA199000091GA1001+999999999GF100991001001999999001001KA1240M+03141MA1999999999999MD1999999+0111REMSYN070AAXX  12004 82784 32995 02301 10246 20217 36946 40111 333 10314 58011;EQDQ01+069463APOSP Q02  00002PRCP99Q03 069463APOSP 
0201827840999992001021212004-07310-039300FM-12+040999999V0200501N001010120019N0040001N1+02441+02111101471ADDAA124006191AY161061AY251061GF107991071081008001001001KA1240N+02201MA1999999096791MD1999999+0061MW1021REMSYN088AAXX  12124 82784 21596 70502 10244 20211 39679 40147 70265 87800 333 20220 58006 60064;
0167827840999992001021218004-07310-039300FM-12+040999999V0200501N002110450019N0200001N1+02941+02111101051ADDAA199000091GF106991031021008001071001MA1999999096411MD1999999+0121REMSYN070AAXX  12184 82784 32598 60504 10294 20211 39641 40105 83270 333 58012;EQDQ01  00002PRCP99
0186827840999992001021300004-07310-039300FM-12+040999999V0201801N001012200019N0020001N1+02481+02341101191ADDAA199000091GF101991011021008001001001KA1240M+03091MA1999999096531MD1999999+0051REMSYN076AAXX  13004 82784 32595 11802 10248 20234 39653 40119 81200 333 10309 58005;EQDQ01  00002PRCP99
0201827840999992001021312004-07310-039300FM-12+040999999V0200501N000510075019N0020001N1+03221+02241101401ADDAA124007991AY191061AY261061GF108991081071008001999999KA1240N+02271MA1999999096721MD1999999-0071MW1211REMSYN088AAXX  13124 82784 21595 80501 10322 20224 39672 40140 72196 887// 333 20227 59007 60084;
0148827840999992001021318004-07310-039300FM-12+040999999V0200901N002112200019N0200001N1+02951+02051100911ADDAA199000021GF104991021021012501071001MA1999999096281MD1999999-0131REMSYN070AAXX  13184 82784 32698 40904 10295 20205 39628 40091 82270 333 59013;
0167827840999992001021400004-07310-039300FM-12+040999999V0201401N002112200019N0020001N1+02501+02071101051ADDAA199000021GF102991021021008001001001KA1240M+03021MA1999999096391MD1999999-0141REMSYN076AAXX  14004 82784 32595 21404 10250 20207 39639 40105 82200 333 10302 59014;
0201827840999992001021412004-07310-039300FM-12+040999999V0203601N000510075019N0040001N1+02331+02201101311ADDAA124001091AY191061AY251061GF108991081071008001999999KA1240N+02281MA1999999096641MD1999999-0081MW1021REMSYN088AAXX  14124 82784 21596 83601 10233 20220 39664 40131 70295 887// 333 20228 59008 60014;
0167827840999992001021418004-07310-039300FM-12+040999999V0202701N001010450019N0200001N1+02831+02051100901ADDAA199000091GF107991011021008001071001MA1999999096261MD1999999-0021REMSYN070AAXX  14184 82784 32598 72702 10283 20205 39626 40090 81270 333 59002;EQDQ01  00002PRCP99
0214827840999992001021500004-07310-039300FM-12+040999999V0202301N001012200019N0020001N1+02301+02111101061ADDAA199000091AY101061AY201061GF101991011021017501001001KA1240M+02901MA1999999096381MD1999999-0011MW1131REMSYN082AAXX  15004 82784 31795 12302 10230 20211 39638 40106 71300 81200 333 10290 59001;EQDQ01  00002PRCP99
0186827840999992001021512004-07310-039300FM-12+040999999V0201401N001012200019N0200001N1+02701+02011101381ADDAA199000091GF102991021021008001001001KA1240N+02151MA1999999096711MD1999999+0071REMSYN076AAXX  15124 82784 32598 21402 10270 20201 39671 40138 82200 333 20215 58007;EQDQ01  00002PRCP99
0168827840999992001021518004-07310-039300FM-12+040999999V0203601N002112200019N0200001N1+03181+01841100871ADDAA199000091GF102991021081012501001001MD1999999+0021REMSYN070AAXX  15184 82784 32698 23604 10318 20184 39424 40087 82800 333 58002;EQDQ01+094243APOSP Q02  00002PRCP99
0186827840999992001021600004-07310-039300FM-12+040999999V0202301N002110075019N0020001N1+02471+02041101051ADDAA199000091GF108991081061008001999999KA1240M+03251MA1999999096411MD1999999+0031REMSYN076AAXX  16004 82784 32595 82304 10247 20204 39641 40105 886// 333 10325 58003;EQDQ01  00002PRCP99
0186827840999992001021612004-07310-039300FM-12+040999999V0203601N000510075019N0200001N1+02521+02091101471ADDAA199000091GF108991081061008001999999KA1240N+02201MA1999999096801MD1999999+0091REMSYN076AAXX  16124 82784 32598 83601 10252 20209 39680 40147 886// 333 20220 58009;EQDQ01  00002PRCP99
0167827840999992001021618004-07310-039300FM-12+040999999V0200501N002112200019N0200001N1+03061+02081101021ADDAA199000091GF102991011021008001011001MA1999999096381MD1999999+0141REMSYN070AAXX  16184 82784 32598 20504 10306 20208 39638 40102 81210 333 58014;EQDQ01  00002PRCP99
0186827840999992001021700004-07310-039300FM-12+040999999V0200501N001010075019N0020001N1+02571+02111101171ADDAA199000091GF108991081071008001999999KA1240M+03151MA1999999096521MD1999999+0111REMSYN076AAXX  17004 82784 32595 80502 10257 20211 39652 40117 887// 333 10315 58011;EQDQ01  00002PRCP99
0186827840999992001021712004-07310-039300FM-12+040999999V0200501N001510075019N0200001N1+02641+02051101471ADDAA199000091GF108991081051008001999999KA1240N+02251MA1999999096811MD1999999+0011REMSYN076AAXX  17124 82784 32598 80503 10264 20205 39681 40147 885// 333 20225 58001;EQDQ01  00002PRCP99
0183827840999992001021718004-07310-039300FM-12+040999999V0200901N002112200019N0200001N1+03271+01801101031ADDAA199000091GF102991999021008001001001MA1999999096411MD1999999+0031REMSYN070AAXX  17184 82784 32598 20904 10327 20180 39641 40103 81200 333 58003;EQDQ01+000012SCOTLCQ02  00002PRCP99
0196827840999992001021800004-07310-039300FM-12+040999999V0202301N000512200019N0020001N1+02431+01881101301ADDAA199000091GA1001+999999999GF100991001001999999001001KA1240M+03311MA1999999096641MD1999999+0121REMSYN070AAXX  18004 82784 32995 02301 10243 20188 39664 40130 333 10331 58012;EQDQ01  00002PRCP99
0186827840999992001021812004-07310-039300FM-12+040999999V0200901N001510450019N0200001N1+02621+02051101631ADDAA199000091GF108991041081008001051999KA1240N+02341MA1999999096951MD1999999+0141REMSYN076AAXX  18124 82784 32598 80903 10262 20205 39695 40163 8485/ 333 20234 58014;EQDQ01  00002PRCP99
0167827840999992001021818004-07310-039300FM-12+040999999V0200901N001510450019N0200001N1+03001+01811101161ADDAA199000091GF108991021071012501021999MA1999999096521MD1999999+0111REMSYN070AAXX  18184 82784 32698 80903 10300 20181 39652 40116 8272/ 333 58011;EQDQ01  00002PRCP99
0186827840999992001021900004-07310-039300FM-12+040999999V0209999C000010075019N0020001N1+02481+02171101351ADDAA199000091GF108991081061008001999999KA1240M+03151MA1999999096691MD1999999+0051REMSYN076AAXX  19004 82784 32595 80000 10248 20217 39669 40135 886// 333 10315 58005;EQDQ01  00002PRCP99
0186827840999992001021912004-07310-039300FM-12+040999999V0200501N001010120019N0200001N1+02601+02101101561ADDAA199000091GF107991061081008001031001KA1240N+02281MA1999999096891MD1999999-0061REMSYN076AAXX  19124 82784 32598 70502 10260 20210 39689 40156 86830 333 20228 59006;EQDQ01  00002PRCP99
0167827840999992001021918004-07310-039300FM-12+040999999V0203601N003110120019N0200001N1+02931+02191101141ADDAA199000091GF108991081081008001999999MA1999999096501MD1999999-0021REMSYN070AAXX  19184 82784 32598 83606 10293 20219 39650 40114 888// 333 59002;EQDQ01  00002PRCP99
0186827840999992001022012004-07310-039300FM-12+040999999V0203601N001010120019N0200001N1+02671+02041101481ADDAA199000091GF108991081081008001999999KA1240N+02261MA1999999096821MD1999999-0071REMSYN076AAXX  20124 82784 32598 83602 10267 20204 39682 40148 888// 333 20226 59007;EQDQ01  00002PRCP99
0167827840999992001022018004-07310-039300FM-12+040999999V0203601N002110120019N0200001N1+03081+02011101021ADDAA199000091GF106991051081008001031001MA1999999096391MD1999999-0111REMSYN070AAXX  20184 82784 32598 63604 10308 20201 39639 40102 85830 333 59011;EQDQ01  00002PRCP99
0196827840999992001022100004-07310-039300FM-12+040999999V0201401N000512200019N0020001N1+02461+02151101131ADDAA199000091GA1001+999999999GF100991001001999999001001KA1240M+03151MA1999999096481MD1999999-0181REMSYN070AAXX  21004 82784 32995 01401 10246 20215 39648 40113 333 10315 59018;EQDQ01  00002PRCP99
0201827840999992001022112004-07310-039300FM-12+040999999V0200501N001010075019N0040001N1+02581+02081101391ADDAA124000191AY151061AY211061GF108991081071008001999999KA1240N+02361MA1999999096721MD1999999-0101MW1021REMSYN088AAXX  21124 82784 21596 80502 10258 20208 39672 40139 70251 887// 333 20236 59010 69924;
0167827840999992001022118004-07310-039300FM-12+040999999V0200901N001510450019N0200001N1+03011+02001100941ADDAA199000091GF107991011021008001021001MA1999999096311MD1999999-0081REMSYN070AAXX  21184 82784 32598 70903 10301 20200 39631 40094 81220 333 59008;EQDQ01  00002PRCP99
0196827840999992001022200004-07310-039300FM-12+040999999V0203201N000512200019N0020001N1+02441+02191101051ADDAA199000091GA1001+999999999GF100991001001999999001001KA1240M+03081MA1999999096401MD1999999-0081REMSYN070AAXX  22004 82784 32995 03201 10244 20219 39640 40105 333 10308 59008;EQDQ01  00002PRCP99
0186827840999992001022212004-07310-039300FM-12+040999999V0200901N002610450019N0200001N1+02761+01911101371ADDAA199000091GF106991021021008001011001KA1240N+02281MA1999999096711MD1999999-0011REMSYN076AAXX  22124 82784 32598 60905 10276 20191 39671 40137 82210 333 20228 59001;EQDQ01  00002PRCP99
0167827840999992001022218004-07310-039300FM-12+040999999V0200901N002111050019N0200001N1+03271+01761100911ADDAA199000091GF105991021021008001001021MA1999999096291MD1999999-0021REMSYN070AAXX  22184 82784 32598 50904 10327 20176 39629 40091 82202 333 59002;EQDQ01  00002PRCP99
0202827840999992001022300004-07310-039300FM-12+040999999V0209999C000019999999N0020001N1+02601+02101101041ADDAA199000091GF107991999021008001001001KA1240M+03311MA1999999096411MD1999999+0011REMSYN076AAXX  23004 82784 32595 70000 10260 20210 39641 40104 84200 333 10331 58001;EQDQ01+000042SCOTLCQ02  00002PRCP99
0186827840999992001022312004-07310-039300FM-12+040999999V0200901N001510450019N0200001N1+02661+02001101371ADDAA199000091GF108991011021008001021999KA1240N+02381MA1999999096721MD1999999+0011REMSYN076AAXX  23124 82784 32598 80903 10266 20200 39672 40137 8122/ 333 20238 58001;EQDQ01  00002PRCP99
0167827840999992001022318004-07310-039300FM-12+040999999V0200901N001510450019N0200001N1+03121+01821100961ADDAA199000091GF108991021021012501021999MA1999999096341MD1999999+0051REMSYN070AAXX  23184 82784 32698 80903 10312 20182 39634 40096 8222/ 333 58005;EQDQ01  00002PRCP99
0196827840999992001022400004-07310-039300FM-12+040999999V0200901N001512200019N0020001N1+02601+01601101141ADDAA199000091GA1001+999999999GF100991001001999999001001KA1240M+03201MA1999999096501MD1999999+0091REMSYN070AAXX  24004 82784 32995 00903 10260 20160 39650 40114 333 10320 58009;EQDQ01  00002PRCP99
0186827840999992001022412004-07310-039300FM-12+040999999V0201401N003611050019N0200001N1+02711+01751101301ADDAA199000091GF105991011011008001031021KA1240N+02221MA1999999096651MD1999999-0071REMSYN076AAXX  24124 82784 32598 51407 10271 20175 39665 40130 81132 333 20222 59007;EQDQ01  00002PRCP99
0167827840999992001022418004-07310-039300FM-12+040999999V0201401N002110450019N0200001N1+03071+01771100901ADDAA199000091GF108991011011008001011001MA1999999096271MD1999999-0071REMSYN070AAXX  24184 82784 32598 81404 10307 20177 39627 40090 81110 333 59007;EQDQ01  00002PRCP99
0196827840999992001022500004-07310-039300FM-12+040999999V0202701N000512200019N0020001N1+02351+01891101061ADDAA199000091GA1001+999999999GF100991001001999999001001KA1240M+03171MA1999999096411MD1999999-0091REMSYN070AAXX  25004 82784 32595 02701 10235 20189 39641 40106 333 10317 59009;EQDQ01  00002PRCP99
0186827840999992001022512004-07310-039300FM-12+040999999V0200901N001510450019N0200001N1+02741+02001101181ADDAA199000091GF108991031021008001071091KA1240N+02161MA1999999096531MD1999999-0121REMSYN076AAXX  25124 82784 32598 80903 10274 20200 39653 40118 83279 333 20216 59012;EQDQ01  00002PRCP99
0167827840999992001022518004-07310-039300FM-12+040999999V0200901N002112200019N0200001N1+03301+01981100681ADDAA199000091GF103991011021012501021091MA1999999096971MD1999999-0201REMSYN070AAXX  25184 82784 32698 30904 10330 20198 39697 40068 81229 333 59020;EQDQ01  00002PRCP99
0196827840999992001022600004-07310-039300FM-12+040999999V0201401N001012200019N0020001N1+02741+01811100871ADDAA199000091GA1001+999999999GF100991001001999999001001KA1240M+03371MA1999999096251MD1999999-0161REMSYN070AAXX  26004 82784 32995 01402 10274 20181 39625 40087 333 10337 59016;EQDQ01  00002PRCP99
0186827840999992001022612004-07310-039300FM-12+040999999V0200501N002111050019N0200001N1+02661+02091101191ADDAA199000091GF108991021021008001001071KA1240N+02321MA1999999096551MD1999999+0011REMSYN076AAXX  26124 82784 32598 80504 10266 20209 39655 40119 82207 333 20232 58001;EQDQ01  00002PRCP99
0167827840999992001022618004-07310-039300FM-12+040999999V0203601N002110450019N0200001N1+02941+01881100811ADDAA199000091GF107991011021008001021001MA1999999096191MD1999999+0121REMSYN070AAXX  26184 82784 32598 73604 10294 20188 39619 40081 81220 333 58012;EQDQ01  00002PRCP99
0196827840999992001022700004-07310-039300FM-12+040999999V0202701N000512200019N0200001N1+02481+02171100991ADDAA199000091GA1001+999999999GF100991001001999999001001KA1240M+03031MA1999999096351MD1999999+0101REMSYN070AAXX  27004 82784 32998 02701 10248 20217 39635 40099 333 10303 58010;EQDQ01  00002PRCP99
0201827840999992001022712004-07310-039300FM-12+040999999V0209999C000010075019N0040001N1+02391+02191101341ADDAA124000591AY151061AY211061GF108991081071008001999999KA1240N+02301MA1999999096671MD1999999+0121MW1021REMSYN088AAXX  27124 82784 21596 80000 10239 20219 39667 40134 70251 887// 333 20230 58012 69954;
0182827840999992001022718004-07310-039300FM-12+040999999V0200501N002110450019N0200001N1+03001+02081100951ADDAA106001091AY161061AY221061GF108991031021012501071091MA1999999096321MD1999999+0131MW1021REMSYN082AAXX  27184 82784 21698 80504 10300 20208 39632 40095 70262 83279 333 58013 60011;
0196827840999992001022800004-07310-039300FM-12+040999999V0209999C000512200019N0020001N1+02401+02171101131ADDAA199000091GA1001+999999999GF100991001001999999001001KA1240M+03091MA1999999096461MD1999999+0101REMSYN070AAXX  28004 82784 32995 00001 10240 20217 39646 40113 333 10309 58010;EQDQ01  00002PRCP99
0173827840999992001022812004-07310-039300FM-12+040999999V0201401N001510075019N0200001N1+02461+02191101401ADDAA124001091GF108991081071008001999999KA1240N+02261MA1999999096731MD1999999+0061REMSYN082AAXX  28124 82784 22598 81403 10246 20219 39673 40140 887// 333 20226 58006 60014;
0195827840999992001022818004-07310-039300FM-12+040999999V0203201N003110450019N0200001N1+02831+02241100931ADDAA199000091AY121061AY221061GF108991041081008001021999MA1999999096291MD1999999+0031MW1171REMSYN076AAXX  28184 82784 31598 83206 10283 20224 39629 40093 71722 8482/ 333 58003;EQDQ01  00002PRCP99
0213827840999992001030100004-07310-039300FM-12+040999999V0203201N001010075019N0020001N1+02411+02231101291ADDAA106001091AY161061AY221061GF108991081051008001999999KA1240M+03031MA1999999096621MD1999999-0041MW1021REMSYN100AAXX  01004 82784 21595 83202 10241 20223 39662 40129 70262 885// 333 10303 29084 55030 59004 60011;
0201827840999992001030112004-07310-039300FM-12+040999999V0200901N001010450019N0200001N1+02441+02191101321ADDAA124002091AY161061AY221061GF108991011021008001071999KA1240N+02181MA1999999096651MD1999999+0031MW1021REMSYN088AAXX  01124 82784 21598 80902 10244 20219 39665 40132 70262 8127/ 333 20218 58003 60024;
0167827840999992001030118004-07310-039300FM-12+040999999V0200501N001510450019N0200001N1+03101+02121100901ADDAA199000091GF108991041081012501071091MA1999999096271MD1999999-0021REMSYN070AAXX  01184 82784 32698 80503 10310 20212 39627 40090 84879 333 59002;EQDQ01  00002PRCP99
0213827840999992001030200004-07310-039300FM-12+040999999V0202301N004110042019N0005001N1+02181+02111101221ADDAA106018091AY191061AY261061GF108991081071004501999999KA1240M+03211MA1999999096541MD1999999-0081MW1951REMSYN100AAXX  02004 82784 21493 82308 10218 20211 39654 40122 79596 887// 333 10321 29084 55027 59008 60181;
0201827840999992001030212004-07310-039300FM-12+040999999V0201401N002110450019N0200001N1+02581+02061101431ADDAA124048091AY191061AY261061GF106991011011008001021001KA1240N+02101MA1999999096751MD1999999+0101MW1011REMSYN088AAXX  02124 82784 21598 61404 10258 20206 39675 40143 70196 81120 333 20210 58010 60484;
0167827840999992001030218004-07310-039300FM-12+040999999V0200901N001012200019N0200001N1+03101+02061101071ADDAA199000091GF104991021021008001071001MA1999999096431MD1999999+0161REMSYN070AAXX  02184 82784 32598 40902 10310 20206 39643 40107 82270 333 58016;EQDQ01  00002PRCP99
0213827840999992001030300004-07310-039300FM-12+040999999V0203601N001010075019N0020001N1+02261+02141101451ADDAA106019191AY191061AY261061GF108991081051008001999999KA1240M+03191MA1999999096771MD1999999+0231MW1021REMSYN100AAXX  03004 82784 21595 83602 10226 20214 39677 40145 70296 885// 333 10319 29078 55069 58023 60191;
0173827840999992001030312004-07310-039300FM-12+040999999V0200901N002112200019N0200001N1+02701+02011101581ADDAA124019191GF101991011021008001001001KA1240N+02101MA1999999096901MD1999999+0151REMSYN082AAXX  03124 82784 22598 10904 10270 20201 39690 40158 81200 333 20210 58015 60194;
0167827840999992001030318004-07310-039300FM-12+040999999V0203601N001512200019N0200001N1+03041+02001101251ADDAA199000091GF102991021021008001001001MA1999999096601MD1999999+0171REMSYN070AAXX  03184 82784 32598 23603 10304 20200 39660 40125 82200 333 58017;EQDQ01  00002PRCP99
0208827840999992001030400004-07310-039300FM-12+040999999V0201801N000512200019N0020001N1+02371+02151101301ADDAA199000091GA1001+999999999GF100991001001999999001001KA1240M+03131MA1999999096641MD1999999-0131REMSYN082AAXX  04004 82784 32995 01801 10237 20215 39664 40130 333 10313 29074 55106 59013;EQDQ01  00002PRCP99
0186827840999992001030412004-07310-039300FM-12+040999999V0200501N002112200019N0020001N1+02721+01931101561ADDAA199000091GF101991011011008001001001KA1240N+02191MA1999999096891MD1999999-0011REMSYN076AAXX  04124 82784 32595 10504 10272 20193 39689 40156 81100 333 20219 59001;EQDQ01  00002PRCP99
0167827840999992001030418004-07310-039300FM-12+040999999V0200501N003112200019N0200001N1+03161+01861101101ADDAA199000091GF101991011011012501001001MA1999999096461MD1999999-0141REMSYN070AAXX  04184 82784 32698 10506 10316 20186 39646 40110 81100 333 59014;EQDQ01  00002PRCP99
0198827840999992001030500004-07310-039300FM-12+040999999V0202301N000510450019N0020001N1+02501+02131101241ADDAA199000091GF107991031081008001051001KA1240M+03211MA1999999096591MD1999999-0051REMSYN088AAXX  05004 82784 32595 72301 10250 20213 39659 40124 83850 333 10321 29067 55110 59005;EQDQ01  00002PRCP99
0186827840999992001030512004-07310-039300FM-12+040999999V0203201N001510075019N0200001N1+02761+02191101461ADDAA199000091GF107991071021008001001001KA1240N+02241MA1999999096801MD1999999-0091REMSYN076AAXX  05124 82784 32598 73203 10276 20219 39680 40146 87200 333 20224 59009;EQDQ01  00002PRCP99
0167827840999992001030518004-07310-039300FM-12+040999999V0200501N002112200019N0200001N1+03141+02071101021ADDAA199000091GF102991011021008001011001MA1999999096391MD1999999-0071REMSYN070AAXX  05184 82784 32598 20504 10314 20207 39639 40102 81210 333 59007;EQDQ01  00002PRCP99
0198827840999992001030600004-07310-039300FM-12+040999999V0202301N000512200019N0020001N1+02511+02251101211ADDAA199000091GF102991021021008001001001KA1240M+03311MA1999999096561MD1999999-0031REMSYN088AAXX  06004 82784 32595 22301 10251 20225 39656 40121 82200 333 10331 29074 55093 59003;EQDQ01  00002PRCP99
0186827840999992001030612004-07310-039300FM-12+040999999V0200901N002112200019N0200001N1+02711+02011101571ADDAA199000091GF104991011011008001001011KA1240N+02201MA1999999096901MD1999999+0101REMSYN076AAXX  06124 82784 32598 40904 10271 20201 39690 40157 81101 333 20220 58010;EQDQ01  00002PRCP99
0167827840999992001030618004-07310-039300FM-12+040999999V0203601N001511050019N0200001N1+03081+01921101271ADDAA199000091GF106991011011008001071041MA1999999096531MD1999999+0141REMSYN070AAXX  06184 82784 32598 63603 10308 20192 39653 40127 81174 333 58014;EQDQ01  00002PRCP99
0198827840999992001030700004-07310-039300FM-12+040999999V0201801N000510075019N0020001N1+02371+02091101271ADDAA199000091GF108991081051008001999999KA1240M+03151MA1999999096611MD1999999+0051REMSYN088AAXX  07004 82784 32595 81801 10237 20209 39661 40127 885// 333 10315 29074 55088 58005;EQDQ01  00002PRCP99
0186827840999992001030712004-07310-039300FM-12+040999999V0200901N002612200019N0200001N1+02761+01751101711ADDAA199000091GF103991011021008001071001KA1240N+02051MA1999999097031MD1999999+0131REMSYN076AAXX  07124 82784 32598 30905 10276 20175 39703 40171 81270 333 20205 58013;EQDQ01  00002PRCP99
0167827840999992001030718004-07310-039300FM-12+040999999V0200501N002612200019N0200001N1+03161+01861101271ADDAA199000091GF103991011011008001001021MA1999999096601MD1999999+0071REMSYN070AAXX  07184 82784 32598 30505 10316 20186 39660 40127 81102 333 58007;EQDQ01  00002PRCP99
0198827840999992001030800004-07310-039300FM-12+040999999V0200501N000510120019N0020001N1+02361+02071101431ADDAA199000091GF108991081081008001999999KA1240M+03201MA1999999096761MD1999999+0151REMSYN088AAXX  08004 82784 32595 80501 10236 20207 39676 40143 888// 333 10320 29067 55096 58015;EQDQ01  00002PRCP99
0186827840999992001030812004-07310-039300FM-12+040999999V0200901N001510450019N0200001N1+02801+01981101551ADDAA199000091GF106991011011008001011001KA1240N+02221MA1999999096881MD1999999-0151REMSYN076AAXX  08124 82784 32598 60903 10280 20198 39688 40155 81110 333 20222 59015;EQDQ01  00002PRCP99
0167827840999992001030818004-07310-039300FM-12+040999999V0203601N001510450019N0200001N1+03051+02031101141ADDAA199000091GF106991011021008001071001MA1999999096501MD1999999-0101REMSYN070AAXX  08184 82784 32598 63603 10305 20203 39650 40114 81270 333 59010;EQDQ01  00002PRCP99
0214827840999992001030900004-07310-039300FM-12+040999999V0209999C000019999999N0020001N1+02521+02271101261ADDAA199000091GF108991999011008001001001KA1240M+03171MA1999999096611MD1999999-0151REMSYN088AAXX  09004 82784 32595 80000 10252 20227 39661 40126 82100 333 10317 29072 55079 59015;EQDQ01+000022SCOTLCQ02  00002PRCP99
0201827840999992001030912004-07310-039300FM-12+040999999V0200901N000510450019N0200001N1+02421+01991101591ADDAA124022191AY191061AY261061GF105991021081008001071001KA1240N+02021MA1999999096821MD1999999-0041MW1021REMSYN088AAXX  09124 82784 21598 50901 10242 20199 39682 40159 70296 82870 333 20202 59004 60224;
0167827840999992001030918004-07310-039300FM-12+040999999V0200501N001510120019N0200001N1+02951+02111100961ADDAA199000091GF107991051051012501031001MA1999999096331MD1999999-0171REMSYN070AAXX  09184 82784 32698 70503 10295 20211 39633 40096 85530 333 59017;EQDQ01  00002PRCP99
0198827840999992001031000004-07310-039300FM-12+040999999V0200901N000510120019N0020001N1+02441+02271101281ADDAA199000091GF106991061081008001001001KA1240M+03061MA1999999096611MD1999999+0001REMSYN088AAXX  10004 82784 32595 60901 10244 20227 39661 40128 86800 333 10306 29080 55077 58000;EQDQ01  00002PRCP99
0201827840999992001031012004-07310-039300FM-12+040999999V0200501N001510075019N0200001N1+02561+02131101381ADDAA124009991AY161061AY221061GF106991061021008001001001KA1240N+02181MA1999999096711MD1999999-0131MW1011REMSYN088AAXX  10124 82784 21598 60503 10256 20213 39671 40138 70162 86200 333 20218 59013 60104;
0183827840999992001031018004-07310-039300FM-12+040999999V0200501N001019999999N0200001N1+03021+02161100911ADDAA199000091GF106991999021008001001001MA1999999096271MD1999999-0061REMSYN070AAXX  10184 82784 32598 60502 10302 20216 39627 40091 84200 333 59006;EQDQ01+000042SCOTLCQ02  00002PRCP99
0178827840999992001031100004-07310-039300FM-12+040999999V0209999C000010075019N0020001N1+02471+02361101191ADDAA199000091GF108991081051008001999999KA1240M+03071MA1999999096531REMSYN082AAXX  11004 82784 32595 80000 10247 20236 39653 40119 885// 333 10307 29081 55072;EQDQ01  00002PRCP99
0201827840999992001031112004-07310-039300FM-12+040999999V0201401N000510075019N0040001N1+02491+02151101441ADDAA124015091AY191061AY261061GF108991061071008001021999KA1240N+02161MA1999999096771MD1999999+0061MW1021REMSYN088AAXX  11124 82784 21596 81401 10249 20215 39677 40144 70296 8672/ 333 20216 58006 60154;
0167827840999992001031118004-07310-039300FM-12+040999999V0203601N001010450019N0200001N1+02861+02211100941ADDAA199000091GF108991011081012501021999MA1999999096301MD1999999+0031REMSYN070AAXX  11184 82784 32698 83602 10286 20221 39630 40094 8182/ 333 58003;EQDQ01  00002PRCP99
0198827840999992001031200004-07310-039300FM-12+040999999V0209999C000012200019N0020001N1+02371+02141101271ADDAA199000091GF101991011071008001001001KA1240M+02911MA1999999096601MD1999999+0071REMSYN088AAXX  12004 82784 32595 10000 10237 20214 39660 40127 81700 333 10291 29084 55017 58007;EQDQ01  00002PRCP99
0201827840999992001031212004-07310-039300FM-12+040999999V0202301N000510075019N0040001N1+02391+02191101511ADDAA124002091AY161061AY211061GF108991081071008001999999KA1240N+02261MA1999999096831MD1999999+0061MW1021REMSYN088AAXX  12124 82784 21596 82301 10239 20219 39683 40151 70261 887// 333 20226 58006 60024;
0213827840999992001031300004-07310-039300FM-12+040999999V0203201N001510075019N0005001N1+02121+02051101331ADDAA106023191AY191061AY261061GF108991081051008001999999KA1240M+03011MA1999999096831MD1999999+0231MW1951REMSYN100AAXX  13004 82784 21593 83203 10212 20205 39683 40133 79596 885// 333 10301 29089 55029 58023 60231;
0201827840999992001031312004-07310-039300FM-12+040999999V0201801N000510075019N0010001N1+02431+02031101521ADDAA124025991AY191061AY261061GF108991081061008001999999KA1240N+02141MA1999999096831MD1999999+0001MW1421REMSYN088AAXX  13124 82784 21594 81801 10243 20203 39683 40152 74296 886// 333 20214 58000 60264;
0167827840999992001031318004-07310-039300FM-12+040999999V0200501N001510450019N0200001N1+02801+02031101031ADDAA199000091GF106991021021012501071091MA1999999096381MD1999999-0031REMSYN070AAXX  13184 82784 32698 60503 10280 20203 39638 40103 82279 333 59003;EQDQ01  00002PRCP99
0213827840999992001031400004-07310-039300FM-12+040999999V0201401N004610042019N0010001N1+02021+01921101471ADDAA106004191AY121061AY221061GF108991081071004501999999KA1240M+03021MA1999999096771MD1999999-0061MW1951REMSYN100AAXX  14004 82784 21494 81409 10202 20192 39677 40147 79522 887// 333 10302 29082 55044 59006 60041;
0201827840999992001031412004-07310-039300FM-12+040999999V0203601N000510075019N0200001N1+02281+02071101431ADDAA124016091AY191061AY261061GF108991081071008001999999KA1240N+02001MA1999999096721MD1999999-0111MW1021REMSYN088AAXX  14124 82784 21598 83601 10228 20207 39672 40143 70296 887// 333 20200 59011 60164;
0182827840999992001031418004-07310-039300FM-12+040999999V0203601N001010450019N0200001N1+02691+02221101011ADDAA106002091AY161061AY221061GF108991041081008001031041MA1999999096341MD1999999-0041MW1021REMSYN082AAXX  14184 82784 21598 83602 10269 20222 39634 40101 70262 84834 333 59004 60021;
0198827840999992001031500004-07310-039300FM-12+040999999V0200501N000510120019N0020001N1+02321+02121101261ADDAA199000091GF107991071081008001001001KA1240M+02831MA1999999096581MD1999999-0191REMSYN088AAXX  15004 82784 32595 70501 10232 20212 39658 40126 87800 333 10283 29088 55016 59019;EQDQ01  00002PRCP99
0201827840999992001031512004-07310-039300FM-12+040999999V0200501N000510075019N0100001N1+02321+02091101491ADDAA124034091AY161061AY221061GF108991081061008001999999KA1240N+02041MA1999999096801MD1999999+0081MW1021REMSYN088AAXX  15124 82784 21597 80501 10232 20209 39680 40149 70262 886// 333 20204 58008 60344;
0167827840999992001031518004-07310-039300FM-12+040999999V0200501N002610450019N0200001N1+02851+02051101051ADDAA199000091GF108991041081012501021999MA1999999096391MD1999999+0051REMSYN070AAXX  15184 82784 32698 80505 10285 20205 39639 40105 8482/ 333 58005;EQDQ01  00002PRCP99
0213827840999992001031600004-07310-039300FM-12+040999999V0203201N001010120019N0020001N1+02201+02131101321ADDAA106005191AY161061AY221061GF107991071081008001001001KA1240M+02891MA1999999096631MD1999999+0051MW1021REMSYN100AAXX  16004 82784 21595 73202 10220 20213 39663 40132 70262 87800 333 10289 29086 55046 58005 60051;
0173827840999992001031612004-07310-039300FM-12+040999999V0200901N001510450019N0200001N1+02511+02151101541ADDAA124005191GF106991041081008001031001KA1240N+02181MA1999999096851MD1999999+0051REMSYN082AAXX  16124 82784 22598 60903 10251 20215 39685 40154 84830 333 20218 58005 60054;
0167827840999992001031618004-07310-039300FM-12+040999999V0200501N002112200019N0200001N1+03031+01921101121ADDAA199000091GF102991011021008001001011MA1999999096471MD1999999+0081REMSYN070AAXX  16184 82784 32598 20504 10303 20192 39647 40112 81201 333 58008;EQDQ01  00002PRCP99
0198827840999992001031700004-07310-039300FM-12+040999999V0209999C000012200019N0020001N1+02301+02111101411ADDAA199000091GF102991021011008001001001KA1240M+03071MA1999999096731MD1999999+0101REMSYN088AAXX  17004 82784 32595 20000 10230 20211 39673 40141 82100 333 10307 29078 55082 58010;EQDQ01  00002PRCP99
0186827840999992001031712004-07310-039300FM-12+040999999V0203601N000510075019N0200001N1+02561+02151101471ADDAA199000091GF107991071021008001001001KA1240N+02121MA1999999096791MD1999999-0061REMSYN076AAXX  17124 82784 32598 73601 10256 20215 39679 40147 87200 333 20212 59006;EQDQ01  00002PRCP99
0167827840999992001031718004-07310-039300FM-12+040999999V0203601N001512200019N0200001N1+03061+01991101041ADDAA199000091GF102991021021008001001001MA1999999096401MD1999999-0071REMSYN070AAXX  17184 82784 32598 23603 10306 20199 39640 40104 82200 333 59007;EQDQ01  00002PRCP99
0208827840999992001031800004-07310-039300FM-12+040999999V0203201N000512200019N0020001N1+02381+02211101281ADDAA199000091GA1001+999999999GF100991001001999999001001KA1240M+03171MA1999999096611MD1999999-0121REMSYN082AAXX  18004 82784 32995 03201 10238 20221 39661 40128 333 10317 29078 55093 59012;EQDQ01  00002PRCP99
0186827840999992001031812004-07310-039300FM-12+040999999V0203601N001010120019N0200001N1+02561+02011101351ADDAA199000091GF108991081081008001999999KA1240N+02131MA1999999096681MD1999999-0111REMSYN076AAXX  18124 82784 32598 83602 10256 20201 39668 40135 888// 333 20213 59011;EQDQ01  00002PRCP99
0167827840999992001031818004-07310-039300FM-12+040999999V0200901N001010450019N0200001N1+02961+02151100871ADDAA199000091GF108991031081012501021061MA1999999096231MD1999999-0171REMSYN070AAXX  18184 82784 32698 80902 10296 20215 39623 40087 83826 333 59017;EQDQ01  00002PRCP99
0226827840999992001031900004-07310-039300FM-12+040999999V0202301N001010120019N0020001N1+02421+02251101241ADDAA199000091AY121061AY221061GF107991071081008001001001KA1240M+03121MA1999999096581MD1999999-0131MW1171REMSYN094AAXX  19004 82784 31595 72302 10242 20225 39658 40124 71722 87800 333 10312 29079 55060 59013;EQDQ01  00002PRCP99
0201827840999992001031912004-07310-039300FM-12+040999999V0202701N001010450019N0200001N1+02441+02071101391ADDAA124045091AY191061AY261061GF105991011011008001031001KA1240N+01961MA1999999096721MD1999999+0041MW1011REMSYN088AAXX  19124 82784 21598 52702 10244 20207 39672 40139 70196 81130 333 20196 58004 60454;
0167827840999992001031918004-07310-039300FM-12+040999999V0203601N001510450019N0200001N1+02821+02101100951ADDAA199000091GF106991021021008001071001MA1999999096301MD1999999+0071REMSYN070AAXX  19184 82784 32598 63603 10282 20210 39630 40095 82270 333 58007;EQDQ01  00002PRCP99
0208827840999992001032000004-07310-039300FM-12+040999999V0209999C000012200019N0020001N1+02321+02221101231ADDAA199000091GA1001+999999999GF100991001001999999001001KA1240M+02911MA1999999096561MD1999999-0021REMSYN082AAXX  20004 82784 32995 00000 10232 20222 39656 40123 333 10291 29083 55050 59002;EQDQ01  00002PRCP99
0201827840999992001032012004-07310-039300FM-12+040999999V0201401N001510120019N0040001N1+02371+02201101601ADDAA124002091AY121061AY221061GF107991071081008001001001KA1240N+02151MA1999999096911MD1999999+0191MW1211REMSYN088AAXX  20124 82784 21596 71403 10237 20220 39691 40160 72122 87800 333 20215 58019 60024;
0148827840999992001032018004-07310-039300FM-12+040999999V0200501N002111050019N0200001N1+02951+02191101181ADDAA199000021GF107991021021008001001021MA1999999096531MD1999999+0231REMSYN070AAXX  20184 82784 32598 70504 10295 20219 39653 40118 82202 333 58023;
0189827840999992001032100004-07310-039300FM-12+040999999V0202301N001012200019N0020001N1+02341+02241101381ADDAA199000021GA1001+999999999GF100991001001999999001001KA1240M+03001MA1999999096701MD1999999+0141REMSYN082AAXX  21004 82784 32995 02302 10234 20224 39670 40138 333 10300 29086 55054 58014;
0202827840999992001032112004-07310-039300FM-12+040999999V0200501N001510075019N0200001N1+02661+02181101501ADDAA199000091GF108991999021008001001001KA1240N+02171MA1999999096831MD1999999-0081REMSYN076AAXX  21124 82784 32598 80503 10266 20218 39683 40150 87200 333 20217 59008;EQDQ01+000072SCOTLCQ02  00002PRCP99
0167827840999992001032118004-07310-039300FM-12+040999999V0201401N001510450019N0200001N1+03121+02021101031ADDAA199000091GF106991041021008001071001MA1999999096391MD1999999+0141REMSYN070AAXX  21184 82784 32598 61403 10312 20202 39639 40103 84270 333 58014;EQDQ01  00002PRCP99
0173827840999992001032212004-07310-039300FM-12+040999999V0201401N002110120019N0200001N1+02541+02021101321ADDAA124000591GF108991081081008001999999KA1240N+02371MA1999999096661MD1999999-0171REMSYN082AAXX  22124 82784 22598 81404 10254 20202 39666 40132 888// 333 20237 59017 69964;
0167827840999992001032218004-07310-039300FM-12+040999999V0201401N003610450019N0200001N1+02901+02041100921ADDAA199000091GF105991041021008001061001MA1999999096291MD1999999-0101REMSYN070AAXX  22184 82784 32598 51407 10290 20204 39629 40092 84260 333 59010;EQDQ01  00002PRCP99
0198827840999992001032300004-07310-039300FM-12+040999999V0201401N000512200019N0020001N1+02361+02241101071ADDAA199000091GF102991021011008001001001KA1240M+03031MA1999999096411MD1999999-0201REMSYN088AAXX  23004 82784 32595 21401 10236 20224 39641 40107 82100 333 10303 29080 55083 59020;EQDQ01  00002PRCP99
0186827840999992001032312004-07310-039300FM-12+040999999V0200501N002110075019N0200001N1+02751+02101101281ADDAA199000091GF106991051021008001061001KA1240N+02161MA1999999096621MD1999999-0041REMSYN076AAXX  23124 82784 32598 60504 10275 20210 39662 40128 85260 333 20216 59004;EQDQ01  00002PRCP99
0167827840999992001032318004-07310-039300FM-12+040999999V0200901N003110450019N0200001N1+02981+01921100851ADDAA199000091GF108991031021012501021061MA1999999096211MD1999999-0081REMSYN070AAXX  23184 82784 32698 80906 10298 20192 39621 40085 83226 333 59008;EQDQ01  00002PRCP99
0208827840999992001032400004-07310-039300FM-12+040999999V0202301N000512200019N0020001N1+02281+01981101161ADDAA199000091GA1001+999999999GF100991001001999999001001KA1240M+03041MA1999999096501MD1999999+0091REMSYN082AAXX  24004 82784 32995 02301 10228 20198 39650 40116 333 10304 29072 55082 58009;EQDQ01  00002PRCP99
0186827840999992001032412004-07310-039300FM-12+040999999V0200501N001510075019N0200001N1+02711+02061101291ADDAA199000091GF106991061021008001001001KA1240N+02041MA1999999096631MD1999999+0011REMSYN076AAXX  24124 82784 32598 60503 10271 20206 39663 40129 86200 333 20204 58001;EQDQ01  00002PRCP99
0167827840999992001032418004-07310-039300FM-12+040999999V0200901N002612200019N0200001N1+03141+01971100981ADDAA199000091GF101991011021008001001001MA1999999096341MD1999999+0131REMSYN070AAXX  24184 82784 32598 10905 10314 20197 39634 40098 81200 333 58013;EQDQ01  00002PRCP99
0208827840999992001032500004-07310-039300FM-12+040999999V0201801N000512200019N0020001N1+02281+02031101271ADDAA199000091GA1001+999999999GF100991001001999999001001KA1240M+03161MA1999999096611MD1999999+0111REMSYN082AAXX  25004 82784 32995 01801 10228 20203 39661 40127 333 10316 29072 55000 58011;EQDQ01  00002PRCP99
0201827840999992001032512004-07310-039300FM-12+040999999V0209999C000010120019N0040001N1+02321+02241101511ADDAA124001091AY121061AY221061GF108991081081008001999999KA1240N+02101MA1999999096821MD1999999+0191MW1611REMSYN088AAXX  25124 82784 21596 80000 10232 20224 39682 40151 76122 888// 333 20210 58019 60014;
0148827840999992001032518004-07310-039300FM-12+040999999V0203601N001510150019N0200001N1+02901+01701101091ADDAA199000021GF108991061081012501021999MA1999999096441MD1999999+0101REMSYN070AAXX  25184 82784 32698 83603 10290 20170 39644 40109 8682/ 333 58010;
0189827840999992001032600004-07310-039300FM-12+040999999V0209999C000012200019N0020001N1+02401+02301101331ADDAA199000021GA1001+999999999GF100991001001999999001001KA1240M+03051MA1999999096651MD1999999+0041REMSYN082AAXX  26004 82784 32995 00000 10240 20230 39665 40133 333 10305 29087 55000 58004;
0201827840999992001032612004-07310-039300FM-12+040999999V0200501N001510075019N0200001N1+02541+02231101491ADDAA124003091AY161061AY211061GF108991061021008001011999KA1240N+02261MA1999999096811MD1999999-0011MW1021REMSYN088AAXX  26124 82784 21598 80503 10254 20223 39681 40149 70261 8621/ 333 20226 59001 60034;
0167827840999992001032618004-07310-039300FM-12+040999999V0200501N003112200019N0200001N1+03061+01961101011ADDAA199000091GF102991021021008001001001MA1999999096381MD1999999-0061REMSYN070AAXX  26184 82784 32598 20506 10306 20196 39638 40101 82200 333 59006;EQDQ01  00002PRCP99
0167827840999992001032718004-07310-039300FM-12+040999999V0203601N001510150019N0200001N1+02811+02221100961ADDAA199000091GF108991051081012501021999MA1999999096321MD1999999-0061REMSYN070AAXX  27184 82784 32698 83603 10281 20222 39632 40096 8582/ 333 59006;EQDQ01  00002PRCP99
0186827840999992001032812004-07310-039300FM-12+040999999V0200501N001510075019N0200001N1+02621+02271101381ADDAA199000091GF107991071021008001001001KA1240N+02171MA1999999096711MD1999999-0071REMSYN076AAXX  28124 82784 32598 70503 10262 20227 39671 40138 87200 333 20217 59007;EQDQ01  00002PRCP99
0167827840999992001032818004-07310-039300FM-12+040999999V0200901N001512200019N0200001N1+03161+02171100851ADDAA199000091GF103991021021008001061001MA1999999096231MD1999999-0091REMSYN070AAXX  28184 82784 32598 30903 10316 20217 39623 40085 82260 333 59009;EQDQ01  00002PRCP99
0208827840999992001032900004-07310-039300FM-12+040999999V0209999C000012200019N0020001N1+02421+02281101141ADDAA199000091GA1001+999999999GF100991001001999999001001KA1240M+03221MA1999999096481MD1999999-0041REMSYN082AAXX  29004 82784 32995 00000 10242 20228 39648 40114 333 10322 29080 55000 59004;EQDQ01  00002PRCP99
0201827840999992001032912004-07310-039300FM-12+040999999V0200501N000510120019N0040001N1+02571+02221101491ADDAA124009991AY191061AY261061GF108991081081008001999999KA1240N+02261MA1999999096821MD1999999+0111MW1021REMSYN088AAXX  29124 82784 21596 80501 10257 20222 39682 40149 70296 888// 333 20226 58011 60104;
0167827840999992001032918004-07310-039300FM-12+040999999V0201401N002112200019N0200001N1+03081+02071101011ADDAA199000091GF102991011021012501021001MA1999999096381MD1999999+0151REMSYN070AAXX  29184 82784 32698 21404 10308 20207 39638 40101 81220 333 58015;EQDQ01  00002PRCP99
0198827840999992001033000004-07310-039300FM-12+040999999V0200901N004110075019N0020001N1+02441+02031101481ADDAA199000091GF108991081051008001999999KA1240M+03151MA1999999096811MD1999999+0331REMSYN088AAXX  30004 82784 32595 80908 10244 20203 39681 40148 885// 333 10315 29073 55000 58033;EQDQ01  00002PRCP99
0201827840999992001033012004-07310-039300FM-12+040999999V0200501N002110450019N0200001N1+02541+02151101491ADDAA124007191AY191061AY261061GF107991011021008001061081KA1240N+01961MA1999999096821MD1999999+0001MW1021REMSYN088AAXX  30124 82784 21598 70504 10254 20215 39682 40149 70296 81268 333 20196 58000 60074;
0167827840999992001033018004-07310-039300FM-12+040999999V0200901N003110450019N0200001N1+03021+02331101071ADDAA199000091GF106991021021008001011001MA1999999096421MD1999999+0041REMSYN070AAXX  30184 82784 32598 60906 10302 20233 39642 40107 82210 333 58004;EQDQ01  00002PRCP99
0213827840999992001033100004-07310-039300FM-12+040999999V0200901N005110042019N0005001N1+02021+01921101611ADDAA106011991AY121061AY221061GF108991081071004501999999KA1240M+03091MA1999999096911MD1999999+0101MW1651REMSYN100AAXX  31004 82784 21493 80910 10202 20192 39691 40161 76522 887// 333 10309 29082 55000 58010 60121;
0220827840999992001033112004-07310-039300FM-12+040999999V0200501N001519999999N0200001N1+02531+02151101421ADDAA124017091AY151061AY221061GF106991999021008001001001KA1240N+01951MA1999999096731MD1999999-0091MW1011REMSYN088AAXX  31124 82784 21598 60503 10253 20215 39673 40142 70152 84200 333 20195 59009 60174;EQDQ01+000042SCOTLC
0182827840999992001033118004-07310-039300FM-12+040999999V0200901N001012200019N0200001N1+02951+02081100971ADDAA106000591AY151061AY211061GF103991031021008001001001MA1999999096321MD1999999-0101MW1021REMSYN082AAXX  31184 82784 21598 30902 10295 20208 39632 40097 70251 83200 333 59010 69941;
0208827840999992001040100004-07310-039300FM-12+040999999V0201801N000512200019N0200001N1+02301+02111101291ADDAA199000091GA1001+999999999GF100991001001999999001001KA1240M+03031MA1999999096621MD1999999-0251REMSYN082AAXX  01004 82784 32998 01801 10230 20211 39662 40129 333 10303 29080 55000 59025;EQDQ01  00002PRCP99
0201827840999992001040112004-07310-039300FM-12+040999999V0202301N001010120019N0200001N1+02361+02071101531ADDAA124000891AY151061AY211061GF108991081081008001999999KA1240N+02001MA1999999096841MD1999999+0111MW1021REMSYN088AAXX  01124 82784 21598 82302 10236 20207 39684 40153 70251 888// 333 20200 58011 69974;
0167827840999992001040118004-07310-039300FM-12+040999999V0200501N001512200019N0200001N1+02981+02121101061ADDAA199000091GF102991021021012501001001MA1999999096411MD1999999+0091REMSYN070AAXX  01184 82784 32698 20503 10298 20212 39641 40106 82200 333 58009;EQDQ01  00002PRCP99
0198827840999992001040200004-07310-039300FM-12+040999999V0202301N000510120019N0020001N1+02461+02231101371ADDAA199000091GF108991081081008001999999KA1240M+03071MA1999999096691MD1999999+0071REMSYN088AAXX  02004 82784 32595 82301 10246 20223 39669 40137 888// 333 10307 29080 55071 58007;EQDQ01  00002PRCP99
0186827840999992001040212004-07310-039300FM-12+040999999V0200501N001510075019N0200001N1+02591+02151101551ADDAA199000091GF106991061021008001001001KA1240N+02171MA1999999096871MD1999999+0031REMSYN076AAXX  02124 82784 32598 60503 10259 20215 39687 40155 86200 333 20217 58003;EQDQ01  00002PRCP99
0167827840999992001040218004-07310-039300FM-12+040999999V0200901N002610075019N0200001N1+03081+02191101051ADDAA199000091GF106991051021008001021001MA1999999096411MD1999999+0001REMSYN070AAXX  02184 82784 32598 60905 10308 20219 39641 40105 85220 333 58000;EQDQ01  00002PRCP99
0198827840999992001040300004-07310-039300FM-12+040999999V0201401N001012200019N0020001N1+02441+02341101391ADDAA199000091GF104991041061008001001001KA1240M+03111MA1999999096721MD1999999+0031REMSYN088AAXX  03004 82784 32595 41402 10244 20234 39672 40139 84600 333 10311 29081 55085 58003;EQDQ01  00002PRCP99
0201827840999992001040312004-07310-039300FM-12+040999999V0200901N001510450019N0200001N1+02631+02231101471ADDAA124036191AY191061AY261061GF106991021021008001031081KA1240N+02181MA1999999096801MD1999999-0071MW1021REMSYN088AAXX  03124 82784 21598 60903 10263 20223 39680 40147 70296 82238 333 20218 59007 60364;
0167827840999992001040318004-07310-039300FM-12+040999999V0200901N001510450019N0200001N1+03021+02161101021ADDAA199000091GF106991011021008001061001MA1999999096381MD1999999-0031REMSYN070AAXX  03184 82784 32598 60903 10302 20216 39638 40102 81260 333 59003;EQDQ01  00002PRCP99
0198827840999992001040400004-07310-039300FM-12+040999999V0201801N002110075019N0020001N1+02241+02071101341ADDAA199000091GF108991081051008001999999KA1240M+03051MA1999999096671MD1999999-0051REMSYN088AAXX  04004 82784 32595 81804 10224 20207 39667 40134 885// 333 10305 29080 55083 59005;EQDQ01  00002PRCP99
0186827840999992001040412004-07310-039300FM-12+040999999V0200501N001512200019N0200001N1+02561+02151101421ADDAA199000091GF106991021021008001001041KA1240N+02101MA1999999096741MD1999999-0061REMSYN076AAXX  04124 82784 32598 60503 10256 20215 39674 40142 82204 333 20210 59006;EQDQ01  00002PRCP99
0167827840999992001040418004-07310-039300FM-12+040999999V0200501N001010450019N0200001N1+02921+02041100981ADDAA199000091GF107991021021008001031081MA1999999096331MD1999999-0051REMSYN070AAXX  04184 82784 32598 70502 10292 20204 39633 40098 82238 333 59005;EQDQ01  00002PRCP99
0198827840999992001040500004-07310-039300FM-12+040999999V0201401N001510120019N0020001N1+02481+02091101321ADDAA199000091GF107991071081008001001001KA1240M+03051MA1999999096651MD1999999-0021REMSYN088AAXX  05004 82784 32595 71403 10248 20209 39665 40132 87800 333 10305 29074 55060 59002;EQDQ01  00002PRCP99
0186827840999992001040512004-07310-039300FM-12+040999999V0200901N003112200019N0200001N1+02631+01791101451ADDAA199000091GF101991011021008001001001KA1240N+02071MA1999999096781MD1999999+0041REMSYN076AAXX  05124 82784 32598 10906 10263 20179 39678 40145 81200 333 20207 58004;EQDQ01  00002PRCP99
0167827840999992001040518004-07310-039300FM-12+040999999V0200501N002612200019N0200001N1+03071+01771101041ADDAA199000091GF102991021021008001001001MA1999999096401MD1999999+0071REMSYN070AAXX  05184 82784 32598 20505 10307 20177 39640 40104 82200 333 58007;EQDQ01  00002PRCP99
0198827840999992001040600004-07310-039300FM-12+040999999V0201401N001512200019N0020001N1+02501+01941101341ADDAA199000091GF103991031021008001001001KA1240M+03111MA1999999096681MD1999999+0031REMSYN088AAXX  06004 82784 32595 31403 10250 20194 39668 40134 83200 333 10311 29063 55011 58003;EQDQ01  00002PRCP99
0186827840999992001040612004-07310-039300FM-12+040999999V0201401N003612200019N0200001N1+02711+01991101561ADDAA199000091GF104991031021008001071001KA1240N+02311MA1999999096891MD1999999+0111REMSYN076AAXX  06124 82784 32598 41407 10271 20199 39689 40156 83270 333 20231 58011;EQDQ01  00002PRCP99
0167827840999992001040618004-07310-039300FM-12+040999999V0200901N002610450019N0200001N1+02961+01991101151ADDAA199000091GF108991031021012501011999MA1999999096511MD1999999+0111REMSYN070AAXX  06184 82784 32698 80905 10296 20199 39651 40115 8321/ 333 58011;EQDQ01  00002PRCP99
0198827840999992001040700004-07310-039300FM-12+040999999V0202301N000510075019N0020001N1+02421+02191101421ADDAA199000091GF108991051061008001071999KA1240M+03071MA1999999096751MD1999999+0071REMSYN088AAXX  07004 82784 32595 82301 10242 20219 39675 40142 8567/ 333 10307 29074 55107 58007;EQDQ01  00002PRCP99
0186827840999992001040712004-07310-039300FM-12+040999999V0201401N003112200019N0200001N1+02701+02011101581ADDAA199000091GF102991021021008001001001KA1240N+02141MA1999999096911MD1999999+0021REMSYN076AAXX  07124 82784 32598 21406 10270 20201 39691 40158 82200 333 20214 58002;EQDQ01  00002PRCP99
0167827840999992001040718004-07310-039300FM-12+040999999V0201401N002110450019N0200001N1+03061+01961101551ADDAA199000091GF108991031021012501011051MA1999999096491MD1999999-0021REMSYN070AAXX  07184 82784 32698 81404 10306 20196 39649 40155 83215 333 59002;EQDQ01  00002PRCP99
0198827840999992001040800004-07310-039300FM-12+040999999V0209999C000010450019N0020001N1+02361+02011101361ADDAA199000091GF108991021021008001011061KA1240M+03101MA1999999096701MD1999999-0051REMSYN088AAXX  08004 82784 32595 80000 10236 20201 39670 40136 82216 333 10310 29070 55102 59005;EQDQ01  00002PRCP99
0196827840999992001040812004-07310-039300FM-12+040999999V0201801N002612200019N0200001N1+02621+01641101421ADDAA199000091GA1001+999999999GF100991001001999999001001KA1240N+01931MA1999999096751MD1999999-0151REMSYN070AAXX  08124 82784 32998 01805 10262 20164 39675 40142 333 20193 59015;EQDQ01  00002PRCP99
0183827840999992001040818004-07310-039300FM-12+040999999V0200901N002612200019N0200001N1+03601+01761100871ADDAA199000091GF101991999011012501001001MA1999999096241MD1999999-0251REMSYN070AAXX  08184 82784 32698 10905 10360 20176 39624 40087 82100 333 59025;EQDQ01+000022SCOTLCQ02  00002PRCP99
0198827840999992001040900004-07310-039300FM-12+040999999V0200901N000512200019N0020001N1+02301+02031101231ADDAA199000091GF102991021001017501031001KA1240M+03131MA1999999096561MD1999999-0141REMSYN088AAXX  09004 82784 32795 20901 10230 20203 39656 40123 82030 333 10313 29068 55108 59014;EQDQ01  00002PRCP99
0186827840999992001040912004-07310-039300FM-12+040999999V0200901N002112200019N0200001N1+02721+01931101301ADDAA199000091GF102991011011008001061001KA1240N+02121MA1999999096641MD1999999-0111REMSYN076AAXX  09124 82784 32598 20904 10272 20193 39664 40130 81160 333 20212 59011;EQDQ01  00002PRCP99
0167827840999992001040918004-07310-039300FM-12+040999999V0201401N001510450019N0200001N1+02991+01981100851ADDAA199000091GF107991031021008001031001MA1999999096221MD1999999-0021REMSYN070AAXX  09184 82784 32598 71403 10299 20198 39622 40085 83230 333 59002;EQDQ01  00002PRCP99
0198827840999992001041000004-07310-039300FM-12+040999999V0201801N000510075019N0020001N1+02381+02031101141ADDAA199000091GF108991081051008001999999KA1240M+03051MA1999999096491MD1999999-0051REMSYN088AAXX  10004 82784 32595 81801 10238 20203 39649 40114 885// 333 10305 29070 55065 59005;EQDQ01  00002PRCP99
0202827840999992001041012004-07310-039300FM-12+040999999V0200501N001512200019N0200001N1+02801+01751101281ADDAA199000091GF102991999001017501061001KA1240N+02001MA1999999096611MD1999999-0031REMSYN076AAXX  10124 82784 32798 20503 10280 20175 39661 40128 81060 333 20200 59003;EQDQ01+000012SCOTLCQ02  00002PRCP99
0167827840999992001041018004-07310-039300FM-12+040999999V0201801N007010450019N0200001N1+03271+02021100841ADDAA199000091GF107991041021012501071001MA1999999096221MD1999999+0001REMSYN070AAXX  10181 82784 32698 71807 10327 20202 39622 40084 84270 333 58000;EQDQ01  00002PRCP99
0208827840999992001041100004-07310-039300FM-12+040999999V0209999C000012200019N0020001N1+02281+01921101171ADDAA199000091GA1001+999999999GF100991001001999999001001KA1240M+03331MA1999999096521MD1999999+0031REMSYN082AAXX  11004 82784 32995 00000 10228 20192 39652 40117 333 10333 29065 55098 58003;EQDQ01  00002PRCP99
0186827840999992001041112004-07310-039300FM-12+040999999V0203601N001010450019N0200001N1+02651+01931101571ADDAA199000091GF108991011011008001011999KA1240N+02061MA1999999096891MD1999999+0281REMSYN076AAXX  11124 82784 32598 83602 10265 20193 39689 40157 8111/ 333 20206 58028;EQDQ01  00002PRCP99
0167827840999992001041118004-07310-039300FM-12+040999999V0203601N000511050019N0200001N1+02971+02071101141ADDAA199000091GF106991021021008001071041MA1999999096501MD1999999+0281REMSYN070AAXX  11184 82784 32598 63601 10297 20207 39650 40114 82274 333 58028;EQDQ01  00002PRCP99
0214827840999992001041200004-07310-039300FM-12+040999999V0200901N001012200019N0020001N1+02161+02091101351ADDAA199000091GF101991999021008001001001KA1240M+03051MA1999999096681MD1999999+0161REMSYN088AAXX  12004 82784 32595 10902 10216 20209 39668 40135 86200 333 10305 29075 55081 58016;EQDQ01+000062SCOTLCQ02  00002PRCP99
0186827840999992001041212004-07310-039300FM-12+040999999V0200501N002112200019N0200001N1+02791+02091101481ADDAA199000091GF103991021021008001061001KA1240N+02051MA1999999096801MD1999999-0091REMSYN076AAXX  12124 82784 32598 30504 10279 20209 39680 40148 82260 333 20205 59009;EQDQ01  00002PRCP99
0167827840999992001041218004-07310-039300FM-12+040999999V0200501N002112200019N0200001N1+03121+02051100941ADDAA199000091GF103991021021012501011001MA1999999096301MD1999999-0201REMSYN070AAXX  12184 82784 32698 30504 10312 20205 39630 40094 82210 333 59020;EQDQ01  00002PRCP99
0208827840999992001041300004-07310-039300FM-12+040999999V0202301N000512200019N0020001N1+02441+02071101241ADDAA199000091GA1001+999999999GF100991001001999999001001KA1240M+03241MA1999999096591MD1999999-0091REMSYN082AAXX  13004 82784 32995 02301 10244 20207 39659 40124 333 10324 29070 55108 59009;EQDQ01  00002PRCP99
0186827840999992001041312004-07310-039300FM-12+040999999V0200501N001512200019N0200001N1+02721+02001101331ADDAA199000091GF102991011021008001061001KA1240N+02081MA1999999096671MD1999999-0131REMSYN076AAXX  13124 82784 32598 20503 10272 20200 39667 40133 81260 333 20208 59013;EQDQ01  00002PRCP99
0167827840999992001041318004-07310-039300FM-12+040999999V0203601N002111050019N0200001N1+03131+02021100791ADDAA199000091GF105991011011008001031041MA1999999096161MD1999999-0141REMSYN070AAXX  13184 82784 32598 53604 10313 20202 39616 40079 81134 333 59014;EQDQ01  00002PRCP99
0198827840999992001041400004-07310-039300FM-12+040999999V0203601N001010075019N0020001N1+02421+02051101211ADDAA199000091GF108991081061008001999999KA1240M+03191MA1999999096551MD1999999-0041REMSYN088AAXX  14004 82784 32595 83602 10242 20205 39655 40121 886// 333 10319 29069 55082 59004;EQDQ01  00002PRCP99
0201827840999992001041412004-07310-039300FM-12+040999999V0200901N001510450019N0200001N1+02581+01901101341ADDAA124000191AY151061AY221061GF105991011011008001061001KA1240N+02151MA1999999096671MD1999999+0001MW1021REMSYN088AAXX  14124 82784 21598 50903 10258 20190 39667 40134 70252 81160 333 20215 58000 69914;
0167827840999992001041418004-07310-039300FM-12+040999999V0200501N002612200019N0200001N1+03001+01941100861ADDAA199000091GF104991021021008001051001MA1999999096231MD1999999+0071REMSYN070AAXX  14184 82784 32598 40505 10300 20194 39623 40086 82250 333 58007;EQDQ01  00002PRCP99
0208827840999992001041500004-07310-039300FM-12+040999999V0209999C000012200019N0020001N1+02481+02171101231ADDAA199000091GA1001+999999999GF100991001001999999001001KA1240M+03101MA1999999096571MD1999999+0021REMSYN082AAXX  15004 82784 32995 00000 10248 20217 39657 40123 333 10310 29071 55087 58002;EQDQ01  00002PRCP99
0220827840999992001041512004-07310-039300FM-12+040999999V0203601N000519999999N0020001N1+02281+02161101631ADDAA124000891AY151061AY221061GF108991999021008001001001KA1240N+02251MA1999999096941MD1999999+0271MW1511REMSYN088AAXX  15124 82784 21595 83601 10228 20216 39694 40163 75152 84200 333 20225 58027 69984;EQDQ01+000042SCOTLC
0201827840999992001041518004-07310-039300FM-12+040999999V0203201N002610075019N0200001N1+02641+02181101231ADDAA106000191AY151061AY221061GF108991999021008001001001MA1999999096591MD1999999+0331MW1021REMSYN082AAXX  15184 82784 21598 83205 10264 20218 39659 40123 70252 86200 333 58033 69911;EQDQ01+000062SCOTLC
0179827840999992001041600004-07310-039300FM-12+040999999V0202701N000510075019N0020001N1+02351+02261101491ADDAA199000021GF108991081051008001999999KA1240M+02791MA1999999096801MD1999999+0231REMSYN088AAXX  16004 82784 32595 82701 10235 20226 39680 40149 885// 333 10279 29090 55006 58023;
0173827840999992001041612004-07310-039300FM-12+040999999V0200501N001010075019N0040001N1+02581+02191101711ADDAA124000191GF107991051021008001031001KA1240N+02221MA1999999097021MD1999999+0081REMSYN082AAXX  16124 82784 22596 70502 10258 20219 39702 40171 85230 333 20222 58008 69914;
0167827840999992001041618004-07310-039300FM-12+040999999V0200501N001512200019N0200001N1+02901+02121101251ADDAA199000091GF104991021021008001071001MA1999999096591MD1999999+0031REMSYN070AAXX  16184 82784 32598 40503 10290 20212 39659 40125 82270 333 58003;EQDQ01  00002PRCP99
0198827840999992001041700004-07310-039300FM-12+040999999V0203601N001010120019N0020001N1+02401+02211101571ADDAA199000091GF106991061081008001001001KA1240M+02971MA1999999096891MD1999999+0091REMSYN088AAXX  17004 82784 32595 63602 10240 20221 39689 40157 86800 333 10297 29080 55069 58009;EQDQ01  00002PRCP99
0201827840999992001041712004-07310-039300FM-12+040999999V0200501N001010075019N0040001N1+02601+02211101631ADDAA124003091AY161061AY251061GF108991081071008001999999KA1240N+02301MA1999999096951MD1999999-0071MW1021REMSYN088AAXX  17124 82784 21596 80502 10260 20221 39695 40163 70265 887// 333 20230 59007 60034;
0182827840999992001041718004-07310-039300FM-12+040999999V0202301N001510120019N0200001N1+02501+02271101221ADDAA106000591AY121061AY221061GF107991071081008001001001MA1999999096551MD1999999-0041MW1201REMSYN082AAXX  17184 82784 21598 72303 10250 20227 39655 40122 72022 87800 333 59004 69941;
0189827840999992001041800004-07310-039300FM-12+040999999V0202301N001012200019N0020001N1+02301+02231101411ADDAA199000021GA1001+999999999GF100991001001999999001001KA1240M+02871MA1999999096671MD1999999+0151REMSYN082AAXX  18004 82784 32995 02302 10230 20223 39667 40141 333 10287 29090 55020 58015;
0201827840999992001041812004-07310-039300FM-12+040999999V0200901N001010450019N0200001N1+02671+01971101381ADDAA124001091AY151061AY211061GF105991011011008001031001KA1240N+02191MA1999999096711MD1999999-0241MW1011REMSYN088AAXX  18124 82784 21598 50902 10267 20197 39671 40138 70151 81130 333 20219 59024 60014;
0167827840999992001041818004-07310-039300FM-12+040999999V0201401N002610120019N0200001N1+02951+01971100941ADDAA199000091GF107991071081008001001001MA1999999096301MD1999999-0251REMSYN070AAXX  18184 82784 32598 71405 10295 20197 39630 40094 87800 333 59025;EQDQ01  00002PRCP99
0208827840999992001041900004-07310-039300FM-12+040999999V0202301N001012200019N0020001N1+02331+02161101281ADDAA199000091GA1001+999999999GF100991001001999999001001KA1240M+03031MA1999999096621MD1999999-0121REMSYN082AAXX  19004 82784 32995 02302 10233 20216 39662 40128 333 10303 29076 55054 59012;EQDQ01  00002PRCP99
0186827840999992001041912004-07310-039300FM-12+040999999V0200501N002610450019N0200001N1+02741+01971101421ADDAA199000091GF106991011021008001071001KA1240N+01951MA1999999096751MD1999999+0041REMSYN076AAXX  19124 82784 32598 60505 10274 20197 39675 40142 81270 333 20195 58004;EQDQ01  00002PRCP99
0167827840999992001041918004-07310-039300FM-12+040999999V0200901N002110450019N0200001N1+03141+01841100911ADDAA199000091GF106991021021008001071011MA1999999096271MD1999999-0031REMSYN070AAXX  19184 82784 32598 60904 10314 20184 39627 40091 82271 333 59003;EQDQ01  00002PRCP99
0208827840999992001042000004-07310-039300FM-12+040999999V0209999C000012200019N0020001N1+02361+01991101291ADDAA199000091GA1001+999999999GF100991001001999999001001KA1240M+03231MA1999999096631MD1999999+0011REMSYN082AAXX  20004 82784 32995 00000 10236 20199 39663 40129 333 10323 29068 55095 58001;EQDQ01  00002PRCP99
0186827840999992001042012004-07310-039300FM-12+040999999V0200501N001510450019N0040001N1+02561+02211101571ADDAA199000091GF106991041021008001031001KA1240N+02081MA1999999096891MD1999999+0141REMSYN076AAXX  20124 82784 32596 60503 10256 20221 39689 40157 84230 333 20208 58014;EQDQ01  00002PRCP99
0167827840999992001042018004-07310-039300FM-12+040999999V0200501N001510450019N0200001N1+02691+02061101101ADDAA199000091GF106991011021008001061021MA1999999096441MD1999999+0171REMSYN070AAXX  20184 82784 32598 60503 10269 20206 39644 40110 81262 333 58017;EQDQ01  00002PRCP99
0208827840999992001042100004-07310-039300FM-12+040999999V0201401N000512200019N0020001N1+02281+02161101381ADDAA199000091GA1001+999999999GF100991001001999999001001KA1240M+03091MA1999999096701MD1999999+0041REMSYN082AAXX  21004 82784 32995 01401 10228 20216 39670 40138 333 10309 29084 55068 58004;EQDQ01  00002PRCP99
0220827840999992001042112004-07310-039300FM-12+040999999V0200501N002110075019N0200001N1+02651+02051101601ADDAA124001091AY191061AY251061GF107991999041008001001001KA1240N+02221MA1999999096921MD1999999+0031MW1011REMSYN088AAXX  21124 82784 21598 70504 10265 20205 39692 40160 70195 85400 333 20222 58003 69994;EQDQ01+000052SCOTLC
0183827840999992001042118004-07310-039300FM-12+040999999V0200501N002619999999N0200001N1+02901+02071101151ADDAA199000091GF105991999021008001001001MA1999999096501MD1999999+0061REMSYN070AAXX  21184 82784 32598 50505 10290 20207 39650 40115 83200 333 58006;EQDQ01+000032SCOTLCQ02  00002PRCP99
0208827840999992001042200004-07310-039300FM-12+040999999V0202301N001012200019N0020001N1+02301+02141101401ADDAA199000091GA1001+999999999GF100991001001999999001001KA1240M+03031MA1999999096731MD1999999+0031REMSYN082AAXX  22004 82784 32995 02302 10230 20214 39673 40140 333 10303 29078 55067 58003;EQDQ01  00002PRCP99
0186827840999992001042212004-07310-039300FM-12+040999999V0200901N002110120019N0200001N1+02581+02121101481ADDAA199000091GF108991081081008001999999KA1240N+02121MA1999999096801MD1999999-0121REMSYN076AAXX  22124 82784 32598 80904 10258 20212 39680 40148 888// 333 20212 59012;EQDQ01  00002PRCP99
0167827840999992001042218004-07310-039300FM-12+040999999V0200901N001012200019N0200001N1+03021+01991100951ADDAA199000091GF102991021021012501001001MA1999999096321MD1999999-0181REMSYN070AAXX  22184 82784 32698 20902 10302 20199 39632 40095 82200 333 59018;EQDQ01  00002PRCP99
0198827840999992001042300004-07310-039300FM-12+040999999V0209999C000010075019N0020001N1+02281+02071101241ADDAA199000091GF106991061021008001001001KA1240M+03091MA1999999096571MD1999999-0161REMSYN088AAXX  23004 82784 32595 60000 10228 20207 39657 40124 86200 333 10309 29076 55098 59016;EQDQ01  00002PRCP99
0186827840999992001042312004-07310-039300FM-12+040999999V0200901N003112200019N0200001N1+02671+01901101451ADDAA199000091GF102991021021008001001001KA1240N+02121MA1999999096781MD1999999-0021REMSYN076AAXX  23124 82784 32598 20906 10267 20190 39678 40145 82200 333 20212 59002;EQDQ01  00002PRCP99
0167827840999992001042318004-07310-039300FM-12+040999999V0200901N003112200019N0200001N1+03161+01671100971ADDAA199000091GF101991011011008001001001MA1999999096341MD1999999+0021REMSYN070AAXX  23184 82784 32598 10906 10316 20167 39634 40097 81100 333 58002;EQDQ01  00002PRCP99
0208827840999992001042400004-07310-039300FM-12+040999999V0201401N000512200019N0020001N1+02261+01731101301ADDAA199000091GA1001+999999999GF100991001001999999001001KA1240M+03211MA1999999096631MD1999999+0061REMSYN082AAXX  24004 82784 32995 01401 10226 20173 39663 40130 333 10321 29062 55111 58006;EQDQ01  00002PRCP99
0186827840999992001042412004-07310-039300FM-12+040999999V0200901N002110075019N0200001N1+02641+01951101491ADDAA199000091GF105991051021008001001001KA1240N+02101MA1999999096811MD1999999+0001REMSYN076AAXX  24124 82784 32598 50904 10264 20195 39681 40149 85200 333 20210 58000;EQDQ01  00002PRCP99
0167827840999992001042418004-07310-039300FM-12+040999999V0200901N003610450019N0200001N1+03031+01921101081ADDAA199000091GF105991021021008001071001MA1999999096441MD1999999+0101REMSYN070AAXX  24184 82784 32598 50907 10303 20192 39644 40108 82270 333 58010;EQDQ01  00002PRCP99
0198827840999992001042500004-07310-039300FM-12+040999999V0201401N001010450019N0020001N1+02181+02011101381ADDAA199000091GF106991031041008001061001KA1240M+03131MA1999999096701MD1999999+0071REMSYN088AAXX  25004 82784 32595 61402 10218 20201 39670 40138 83460 333 10313 29074 55088 58007;EQDQ01  00002PRCP99
0186827840999992001042512004-07310-039300FM-12+040999999V0201401N003112200019N0200001N1+02691+01921101671ADDAA199000091GF103991011021008001071001KA1240N+02121MA1999999096981MD1999999+0171REMSYN076AAXX  25124 82784 32598 31406 10269 20192 39698 40167 81270 333 20212 58017;EQDQ01  00002PRCP99
0167827840999992001042518004-07310-039300FM-12+040999999V0200501N001512200019N0200001N1+03001+01911101281ADDAA199000091GF103991011021008001061021MA1999999096631MD1999999+0191REMSYN070AAXX  25184 82784 32598 30503 10300 20191 39663 40128 81262 333 58019;EQDQ01  00002PRCP99
0214827840999992001042600004-07310-039300FM-12+040999999V0209999C000019999999N0020001N1+02291+02051101481ADDAA199000091GF107991999011017501001001KA1240M+03081MA1999999096811MD1999999+0111REMSYN088AAXX  26004 82784 32795 70000 10229 20205 39681 40148 82100 333 10308 29072 55079 58011;EQDQ01+000022SCOTLCQ02  00002PRCP99
0167827840999992001042618004-07310-039300FM-12+040999999V0200901N003110450019N0200001N1+03131+01791101071ADDAA199000091GF108991031021012501011999MA1999999096431MD1999999-0201REMSYN070AAXX  26184 82784 32698 80906 10313 20179 39643 40107 8321/ 333 59020;EQDQ01  00002PRCP99
0198827840999992001042700004-07310-039300FM-12+040999999V0200501N001010075019N0020001N1+02421+02051101381ADDAA199000091GF106991061021008001001001KA1240M+03211MA1999999096721MD1999999-0091REMSYN088AAXX  27004 82784 32595 60502 10242 20205 39672 40138 86200 333 10321 29065 55093 59009;EQDQ01  00002PRCP99
0202827840999992001042712004-07310-039300FM-12+040999999V0201401N002110075019N0200001N1+02661+02001101551ADDAA199000091GF106991051021008001031001KA1240N+02241MA1999999999999MD1999999+0001REMSYN076AAXX  27124 82784 32598 61404 10266 20200 39188 40155 85230 333 20224 58000;EQDQ01  00002PRCP99Q02 091883APOSP 
0183827840999992001042718004-07310-039300FM-12+040999999V0201401N001010120019N0200001N1+03021+02131101041ADDAA199000091GF107991071081008001001001MA1999999096412MD1999999-0021REMSYN070AAXX  27184 82784 32598 71402 10302 20213 39641 40104 87800 333 59002;EQDQ01+096413APOSP Q02  00002PRCP99
0213827840999992001042800004-07310-039300FM-12+040999999V0201401N001510120019N0020001N1+02461+02131101421ADDAA106002091AY161061AY221061GF108991081081008001999999KA1240M+03131MA1999999096751MD1999999+0031MW1021REMSYN100AAXX  28004 82784 21595 81403 10246 20213 39675 40142 70262 888// 333 10313 29072 55068 58003 60021;
0201827840999992001042812004-07310-039300FM-12+040999999V0201801N000510450019N0200001N1+02601+01941101631ADDAA124004191AY161061AY221061GF107991021081008001061001KA1240N+02301MA1999999096951MD1999999+0071MW1021REMSYN088AAXX  28124 82784 21598 71801 10260 20194 39695 40163 70262 82860 333 20230 58007 60044;
0167827840999992001042818004-07310-039300FM-12+040999999V0200901N001010450019N0200001N1+03021+01961101181ADDAA199000091GF106991021021008001031021MA1999999096541MD1999999+0131REMSYN070AAXX  28184 82784 32598 60902 10302 20196 39654 40118 82232 333 58013;EQDQ01  00002PRCP99
0208827840999992001042900004-07310-039300FM-12+040999999V0200901N000512200019N0020001N1+02301+02031101471ADDAA199000091GA1001+999999999GF100991001001999999001001KA1240M+03091MA1999999096791MD1999999+0041REMSYN082AAXX  29004 82784 32995 00901 10230 20203 39679 40147 333 10309 29072 55064 58004;EQDQ01  00002PRCP99
