0275827980999992001010100004-07100-034860SY-MT+0007SBJP V0200501N002610075019N0040001N1+02701+02261101461ADDAA199000091GA1021+006009999GF106991061051008001001001KA1240M+03001MA1101291101251MD1999999-0101MW1001REMSYN076AAXX  01004 82798 32596 60505 10270 20226 30125 40146 86500 333 10300 59010;MET045SBJP 010000Z 00000KT 9999 FEW020 24/22 Q1013;EQDQ01+000000PRSWM2Q02  00002PRCP99
0139827980999992001010101004-07100-034860FM-15+0007SBJP V0201401N001012200019N0112651N1+02401+02301999999ADDGA1021+006009999GF102991999999999999999999MA1101291999999MW1001REMMET045SBJP 010100Z 14002KT 9999 FEW020 24/23 Q1013;EQDQ01+000000PRSWM2
0139827980999992001010102004-07100-034860FM-15+0007SBJP V0201601N001512200019N0112651N1+02301+02201999999ADDGA1021+006009999GF102991999999999999999999MA1101291999999MW1001REMMET045SBJP 010200Z 16003KT 9999 FEW020 23/22 Q1013;EQDQ01+000000PRSWM2
0139827980999992001010103004-07100-034860FM-15+0007SBJP V0201801N001012200019N0112651N1+02301+02201999999ADDGA1021+006009999GF102991999999999999999999MA1101191999999MW1001REMMET045SBJP 010300Z 18002KT 9999 FEW020 23/22 Q1012;EQDQ01+000000PRSWM2
0139827980999992001010104004-07100-034860FM-15+0007SBJP V0202201N002112200019N0112651N1+02301+02201999999ADDGA1021+006009999GF102991999999999999999999MA1101191999999MW1001REMMET045SBJP 010400Z 22004KT 9999 FEW020 23/22 Q1012;EQDQ01+000000PRSWM2
0139827980999992001010105004-07100-034860FM-15+0007SBJP V0209999C000012200019N0112651N1+02201+02201999999ADDGA1021+006009999GF102991999999999999999999MA1101081999999MW1001REMMET045SBJP 010500Z 00000KT 9999 FEW020 22/22 Q1011;EQDQ01+000000PRSWM2
0139827980999992001010107004-07100-034860FM-15+0007SBJP V0209999C000012200019N0112651N1+02201+02201999999ADDGA1021+006009999GF102991999999999999999999MA1101081999999MW1001REMMET045SBJP 010700Z 00000KT 9999 FEW020 22/22 Q1011;EQDQ01+000000PRSWM2
0139827980999992001010108004-07100-034860FM-15+0007SBJP V0202101N002112200019N0112651N1+02201+02201999999ADDGA1021+006009999GF102991999999999999999999MA1101191999999MW1001REMMET045SBJP 010800Z 21004KT 9999 FEW020 22/22 Q1012;EQDQ01+000000PRSWM2
0139827980999992001010109004-07100-034860FM-15+0007SBJP V0209999C000012200019N0112651N1+02201+02201999999ADDGA1021+006009999GF102991999999999999999999MA1101191999999MW1001REMMET045SBJP 010900Z 00000KT 9999 FEW020 22/22 Q1012;EQDQ01+000000PRSWM2
0139827980999992001010110004-07100-034860FM-15+0007SBJP V0201801N002112200019N0112651N1+02401+02301999999ADDGA1021+006009999GF104991999999999999999999MA1101291999999MW1001REMMET045SBJP 011000Z 18004KT 9999 SCT020 24/23 Q1013;EQDQ01+000000PRSWM2
0139827980999992001010111004-07100-034860FM-15+0007SBJP V0201501N002612200019N0112651N1+02601+02301999999ADDGA1021+006009999GF104991999999999999999999MA1101291999999MW1001REMMET045SBJP 011100Z 15005KT 9999 SCT020 26/23 Q1013;EQDQ01+000000PRSWM2
0275827980999992001010112004-07100-034860SY-MT+0007SBJP V0200501N003610075019N0200001N1+02901+02321101521ADDAA199000091GA1021+006009999GF105991051041008001001001KA1240N+02301MA1101291101311MD1999999-0041MW1001REMSYN076AAXX  01124 82798 32598 50507 10290 20232 30131 40152 85400 333 20230 59004;MET045SBJP 011200Z 12008KT 9999 SCT020 28/22 Q1013;EQDQ01+000000PRSWM2Q02  00002PRCP99
0139827980999992001010113004-07100-034860FM-15+0007SBJP V0201201N005112200019N0112651N1+02901+02201999999ADDGA1021+006009999GF104991999999999999999999MA1101291999999MW1001REMMET045SBJP 011300Z 12010KT 9999 SCT020 29/22 Q1013;EQDQ01+000000PRSWM2
0139827980999992001010114004-07100-034860FM-15+0007SBJP V0201401N005110060019N0112651N1+02901+02301999999ADDGA1071+006009999GF107991999999999999999999MA1101191999999MW1001REMMET045SBJP 011400Z 14010KT 9999 BKN020 29/23 Q1012;EQDQ01+000000PRSWM2
0139827980999992001010115004-07100-034860FM-15+0007SBJP V0201101N005710060019N0112651N1+02901+02201999999ADDGA1071+006009999GF107991999999999999999999MA1101081999999MW1001REMMET045SBJP 011500Z 11011KT 9999 BKN020 29/22 Q1011;EQDQ01+000000PRSWM2
0139827980999992001010116004-07100-034860FM-15+0007SBJP V0201201N006210060019N0112651N1+02901+02201999999ADDGA1071+006009999GF107991999999999999999999MA1101081999999MW1001REMMET045SBJP 011600Z 12012KT 9999 BKN020 29/22 Q1011;EQDQ01+000000PRSWM2
0139827980999992001010117004-07100-034860FM-15+0007SBJP V0201201N005110060019N0112651N1+02901+02201999999ADDGA1071+006009999GF107991999999999999999999MA1101081999999MW1001REMMET045SBJP 011700Z 12010KT 9999 BKN020 29/22 Q1011;EQDQ01+000000PRSWM2
0256827980999992001010118004-07100-034860SY-MT+0007SBJP V0200901N004612200019N0200001N1+02881+02251101321ADDAA199000091GA1021+006009999GF104991041041008001001001MA1101021101111MD1999999-0101MW1001REMSYN070AAXX  01184 82798 32598 40909 10288 20225 30111 40132 84400 333 59010;MET045SBJP 011800Z 12011KT 9999 SCT020 29/22 Q1010;EQDQ01+000000PRSWM2Q02  00002PRCP99
0139827980999992001010119004-07100-034860FM-15+0007SBJP V0201201N006212200019N0112651N1+02801+02201999999ADDGA1021+006009999GF104991999999999999999999MA1101021999999MW1001REMMET045SBJP 011900Z 12012KT 9999 SCT020 28/22 Q1010;EQDQ01+000000PRSWM2
0139827980999992001010120004-07100-034860FM-15+0007SBJP V0201201N005112200019N0112651N1+02701+02201999999ADDGA1021+006009999GF102991999999999999999999MA1101081999999MW1001REMMET045SBJP 012000Z 12010KT 9999 FEW020 27/22 Q1011;EQDQ01+000000PRSWM2
0139827980999992001010121004-07100-034860FM-15+0007SBJP V0201301N005112200019N0112651N1+02601+02101999999ADDGA1021+006009999GF102991999999999999999999MA1101191999999MW1001REMMET045SBJP 012100Z 13010KT 9999 FEW020 26/21 Q1012;EQDQ01+000000PRSWM2
0139827980999992001010122004-07100-034860FM-15+0007SBJP V0201401N003112200019N0112651N1+02501+02201999999ADDGA1021+006009999GF102991999999999999999999MA1101291999999MW1001REMMET045SBJP 012200Z 14006KT 9999 FEW020 25/22 Q1013;EQDQ01+000000PRSWM2
0139827980999992001010123004-07100-034860FM-15+0007SBJP V0201301N002612200019N0112651N1+02501+02201999999ADDGA1021+006009999GF104991999999999999999999MA1101291999999MW1001REMMET045SBJP 012300Z 13005KT 9999 SCT020 25/22 Q1013;EQDQ01+000000PRSWM2
0275827980999992001010200004-07100-034860SY-MT+0007SBJP V0200901N003110075019N0040001N1+02681+02241101491ADDAA199000091GA1021+006009999GF105991051041008001001001KA1240M+03001MA1101291101281MD1999999+0031MW1001REMSYN076AAXX  02004 82798 32596 50906 10268 20224 30128 40149 85400 333 10300 58003;MET045SBJP 020000Z 16003KT 9999 SCT020 25/22 Q1013;EQDQ01+000000PRSWM2Q02  00002PRCP99
0139827980999992001010201004-07100-034860FM-15+0007SBJP V0201701N001012200019N0112651N1+02401+02201999999ADDGA1021+006009999GF104991999999999999999999MA1101291999999MW1001REMMET045SBJP 020100Z 17002KT 9999 SCT020 24/22 Q1013;EQDQ01+000000PRSWM2
0139827980999992001010202004-07100-034860FM-15+0007SBJP V0201601N001012200019N0112651N1+02401+02201999999ADDGA1021+006009999GF104991999999999999999999MA1101291999999MW1001REMMET045SBJP 020200Z 16002KT 9999 SCT020 24/22 Q1013;EQDQ01+000000PRSWM2
0139827980999992001010203004-07100-034860FM-15+0007SBJP V0202201N001512200019N0112651N1+02301+02201999999ADDGA1021+006009999GF104991999999999999999999MA1101191999999MW1001REMMET045SBJP 020300Z 22003KT 9999 SCT020 23/22 Q1012;EQDQ01+000000PRSWM2
0139827980999992001010204004-07100-034860FM-15+0007SBJP V0209999C000012200019N0112651N1+02301+02201999999ADDGA1021+006009999GF102991999999999999999999MA1101191999999MW1001REMMET045SBJP 020400Z 00000KT 9999 FEW020 23/22 Q1012;EQDQ01+000000PRSWM2
0139827980999992001010205004-07100-034860FM-15+0007SBJP V0202001N001512200019N0112651N1+02201+02201999999ADDGA1021+006009999GF102991999999999999999999MA1101191999999MW1001REMMET045SBJP 020500Z 20003KT 9999 FEW020 22/22 Q1012;EQDQ01+000000PRSWM2
0139827980999992001010206004-07100-034860FM-15+0007SBJP V0209999C000012200019N0112651N1+02201+02201999999ADDGA1021+006009999GF102991999999999999999999MA1101191999999MW1001REMMET045SBJP 020600Z 00000KT 9999 FEW020 22/22 Q1012;EQDQ01+000000PRSWM2
0139827980999992001010207004-07100-034860FM-15+0007SBJP V0209999C000012200019N0112651N1+02201+02101999999ADDGA1021+006009999GF102991999999999999999999MA1101191999999MW1001REMMET045SBJP 020700Z 00000KT 9999 FEW020 22/21 Q1012;EQDQ01+000000PRSWM2
0139827980999992001010208004-07100-034860FM-15+0007SBJP V0209999C000012200019N0112651N1+02101+02101999999ADDGA1021+006009999GF102991999999999999999999MA1101191999999MW1001REMMET045SBJP 020800Z 00000KT 9999 FEW020 21/21 Q1012;EQDQ01+000000PRSWM2
0139827980999992001010209004-07100-034860FM-15+0007SBJP V0209999C000012200019N0112651N1+02101+02101999999ADDGA1021+006009999GF102991999999999999999999MA1101191999999MW1001REMMET045SBJP 020900Z 00000KT 9999 FEW020 21/21 Q1012;EQDQ01+000000PRSWM2
0139827980999992001010210004-07100-034860FM-15+0007SBJP V0202201N001512200019N0112651N1+02501+02201999999ADDGA1021+006009999GF102991999999999999999999MA1101291999999MW1001REMMET045SBJP 021000Z 22003KT 9999 FEW020 25/22 Q1013;EQDQ01+000000PRSWM2
0139827980999992001010211004-07100-034860FM-15+0007SBJP V0201401N003612200019N0112651N1+02701+02201999999ADDGA1021+006009999GF102991999999999999999999MA1101391999999MW1001REMMET045SBJP 021100Z 14007KT 9999 FEW020 27/22 Q1014;EQDQ01+000000PRSWM2
0291827980999992001010212004-07100-034860SY-MT+0007SBJP V0201401N00311006001CN0200001N1+02901+02201101601ADDAA199000091GA1071+006009999GF199999051021008001001001KA1240N+02601MA1101391101391MD1999999+0081MW1001REMSYN076AAXX  02124 82798 32598 51406 10290 20220 30139 40160 85200 333 20260 58008;MET045SBJP 021200Z 10009KT 9999 BKN020 29/22 Q1014;EQDQ01+000052SCOTCVQ02+000000PRSWM2Q03  00002PRCP99
0092827980999992001010213004-07100-034860FM-15+0007SBJP V0201201N003612200019N0112651N1+02901+02101999999ADDMA1101391999999MW1001REMMET040SBJP 021300Z 12007KT BKN020 29/21 Q1014;EQDQ01+000000PRSWM2
0139827980999992001010214004-07100-034860FM-15+0007SBJP V0201001N005110060019N0112651N1+03001+02001999999ADDGA1071+006009999GF107991999999999999999999MA1101291999999MW1001REMMET045SBJP 021400Z 10010KT 9999 BKN020 30/20 Q1013;EQDQ01+000000PRSWM2
0139827980999992001010215004-07100-034860FM-15+0007SBJP V0201001N003610060019N0112651N1+03001+02001999999ADDGA1071+006009999GF107991999999999999999999MA1101291999999MW1001REMMET045SBJP 021500Z 10007KT 9999 BKN020 30/20 Q1013;EQDQ01+000000PRSWM2
0139827980999992001010216004-07100-034860FM-15+0007SBJP V0201001N004612200019N0112651N1+03001+02201999999ADDGA1021+006009999GF104991999999999999999999MA1101191999999MW1001REMMET045SBJP 021600Z 10009KT 9999 SCT020 30/22 Q1012;EQDQ01+000000PRSWM2
0139827980999992001010217004-07100-034860FM-15+0007SBJP V0201101N004612200019N0112651N1+02901+02101999999ADDGA1021+006009999GF104991999999999999999999MA1101081999999MW1001REMMET045SBJP 021700Z 11009KT 9999 SCT020 29/21 Q1011;EQDQ01+000000PRSWM2
0256827980999992001010218004-07100-034860SY-MT+0007SBJP V0201401N003112200019N0200001N1+02901+02321101391ADDAA199000091GA1021+006009999GF105991051021008001001001MA1101081101181MD1999999+0071MW1001REMSYN070AAXX  02184 82798 32598 51406 10290 20232 30118 40139 85200 333 58007;MET045SBJP 021800Z 12012KT 9999 SCT020 29/21 Q1011;EQDQ01+000000PRSWM2Q02  00002PRCP99
0139827980999992001010221004-07100-034860FM-15+0007SBJP V0201401N003612200019N0112651N1+02601+02301999999ADDGA1021+006009999GF102991999999999999999999MA1101191999999MW1001REMMET045SBJP 022100Z 14007KT 9999 FEW020 26/23 Q1012;EQDQ01+000000PRSWM2
0139827980999992001010222004-07100-034860FM-15+0007SBJP V0201501N002612200019N0112651N1+02501+02201999999ADDGA1021+006009999GF102991999999999999999999MA1101191999999MW1001REMMET045SBJP 022200Z 15005KT 9999 FEW020 25/22 Q1012;EQDQ01+000000PRSWM2
0139827980999992001010223004-07100-034860FM-15+0007SBJP V0201601N001512200019N0112651N1+02401+02301999999ADDGA1021+006009999GF104991999999999999999999MA1101291999999MW1001REMMET045SBJP 022300Z 16003KT 9999 SCT020 24/23 Q1013;EQDQ01+000000PRSWM2
0275827980999992001010300004-07100-034860SY-MT+0007SBJP V0201401N003110075019N0040001N1+02701+02341101521ADDAA199000091GA1021+006009999GF105991051021008001001001KA1240M+03001MA1101291101311MD1999999+0031MW1001REMSYN076AAXX  03004 82798 32596 51406 10270 20234 30131 40152 85200 333 10300 58003;MET045SBJP 030000Z 15002KT 9999 FEW020 24/23 Q1013;EQDQ01+000000PRSWM2Q02  00002PRCP99
0139827980999992001010301004-07100-034860FM-15+0007SBJP V0201301N001012200019N0112651N1+02401+02201999999ADDGA1021+006009999GF104991999999999999999999MA1101291999999MW1001REMMET045SBJP 030100Z 13002KT 9999 SCT020 24/22 Q1013;EQDQ01+000000PRSWM2
0139827980999992001010302004-07100-034860FM-15+0007SBJP V0209999C000012200019N0112651N1+02401+02201999999ADDGA1021+006009999GF102991999999999999999999MA1101291999999MW1001REMMET045SBJP 030200Z 00000KT 9999 FEW020 24/22 Q1013;EQDQ01+000000PRSWM2
0139827980999992001010303004-07100-034860FM-15+0007SBJP V0201401N001512200019N0112651N1+02401+02201999999ADDGA1021+004809999GF104991999999999999999999MA1101191999999MW1001REMMET045SBJP 030300Z 14003KT 9999 SCT016 24/22 Q1012;EQDQ01+000000PRSWM2
0139827980999992001010304004-07100-034860FM-15+0007SBJP V0209999C000012200019N0112651N1+02301+02201999999ADDGA1021+006009999GF102991999999999999999999MA1101191999999MW1001REMMET045SBJP 030400Z 00000KT 9999 FEW020 23/22 Q1012;EQDQ01+000000PRSWM2
0139827980999992001010305004-07100-034860FM-15+0007SBJP V0209999C000012200019N0112651N1+02301+02201999999ADDGA1021+006009999GF102991999999999999999999MA1101081999999MW1001REMMET045SBJP 030500Z 00000KT 9999 FEW020 23/22 Q1011;EQDQ01+000000PRSWM2
0139827980999992001010306004-07100-034860FM-15+0007SBJP V0202001N002112200019N0112651N1+02301+02201999999ADDGA1021+006009999GF102991999999999999999999MA1101081999999MW1001REMMET045SBJP 030600Z 20004KT 9999 FEW020 23/22 Q1011;EQDQ01+000000PRSWM2
0139827980999992001010307004-07100-034860FM-15+0007SBJP V0209999C000012200019N0112651N1+02301+02201999999ADDGA1021+006009999GF102991999999999999999999MA1101081999999MW1001REMMET045SBJP 030700Z 00000KT 9999 FEW020 23/22 Q1011;EQDQ01+000000PRSWM2
0139827980999992001010308004-07100-034860FM-15+0007SBJP V0209999C000012200019N0112651N1+02201+02101999999ADDGA1021+006009999GF102991999999999999999999MA1101191999999MW1001REMMET045SBJP 030800Z 00000KT 9999 FEW020 22/21 Q1012;EQDQ01+000000PRSWM2
0162827980999992001010309004-07100-034860FM-15+0007SBJP V0209999C000010300019N0112651N1+02201+02201999999ADDGA1021+006009999GA2071+030009999GF107991999999999999999999MA1101191999999MW1001REMMET052SBJP 030900Z 00000KT 9999 FEW020 BKN100 22/22 Q1012;EQDQ01+000000PRSWM2
0162827980999992001010310004-07100-034860FM-15+0007SBJP V0202001N001510300019N0112651N1+02401+02301999999ADDGA1021+006009999GA2071+030009999GF107991999999999999999999MA1101291999999MW1001REMMET052SBJP 031000Z 20003KT 9999 SCT020 BKN100 24/23 Q1013;EQDQ01+000000PRSWM2
0185827980999992001010311004-07100-034860FM-15+0007SBJP V0201801N001510900019N0112651N1+02601+02301999999ADDGA1021+006009999GA2021+030009999GA3071+090009999GF107991999999999999999999MA1101291999999MW1001REMMET059SBJP 031100Z 18003KT 9999 FEW020 SCT100 BKN300 26/23 Q1013;EQDQ01+000000PRSWM2
0321827980999992001010312004-07100-034860SY-MT+0007SBJP V0200501N00211090001CN0200001N1+02741+02281101581ADDAA199000091GA1021+006009999GA2021+030009999GA3071+090009999GF107991071071008001001001KA1240N+02321MA1101391101371MD1999999-0021MW1001REMSYN076AAXX  03124 82798 32598 70504 10274 20228 30137 40158 87700 333 20232 59002;MET059SBJP 031200Z 14003KT 9999 SCT020 SCT100 BKN300 26/23 Q1014;EQDQ01+000000PRSWM2Q02  00002PRCP99
0162827980999992001010313004-07100-034860FM-15+0007SBJP V0201501N002110060019N0112651N1+02701+02301999999ADDGA1071+006009999GA2071+090009999GF107991999999999999999999MA1101391999999MW1001REMMET052SBJP 031300Z 15004KT 9999 BKN020 BKN300 27/23 Q1014;EQDQ01+000000PRSWM2
0162827980999992001010314004-07100-034860FM-15+0007SBJP V0201201N004110060019N0112651N1+02801+02301999999ADDGA1071+006009999GA2071+090009999GF107991999999999999999999MA1101291999999MW1001REMMET052SBJP 031400Z 12008KT 9999 BKN020 BKN300 28/23 Q1013;EQDQ01+000000PRSWM2
0185827980999992001010315004-07100-034860FM-15+0007SBJP V0201201N003610900019N0112651N1+02901+02201999999ADDGA1021+006009999GA2021+030009999GA3071+090009999GF107991999999999999999999MA1101191999999MW1001REMMET059SBJP 031500Z 12007KT 9999 SCT020 SCT100 BKN300 29/22 Q1012;EQDQ01+000000PRSWM2
0162827980999992001010316004-07100-034860FM-15+0007SBJP V0201301N004610900019N0112651N1+02901+02201999999ADDGA1021+006009999GA2071+090009999GF107991999999999999999999MA1101191999999MW1001REMMET052SBJP 031600Z 13009KT 9999 SCT020 BKN300 29/22 Q1012;EQDQ01+000000PRSWM2
0162827980999992001010317004-07100-034860FM-15+0007SBJP V0201301N004110900019N0112651N1+02901+02201999999ADDGA1021+006009999GA2071+090009999GF107991999999999999999999MA1101081999999MW1001REMMET052SBJP 031700Z 13008KT 9999 SCT020 BKN300 29/22 Q1011;EQDQ01+000000PRSWM2
0295827980999992001010318004-07100-034860SY-MT+0007SBJP V0200901N00311090001CN0200001N1+02901+02251101401ADDAA199000091GA1021+006009999GA2071+090009999GF199999061051008001001001MA1101081101191MD1999999+0011MW1001REMSYN070AAXX  03184 82798 32598 60906 10290 20225 30119 40140 86500 333 58001;MET052SBJP 031800Z 12007KT 9999 FEW020 BKN300 29/21 Q1011;EQDQ01+000062SCOTCVQ02+000000PRSWM2Q03  00002PRCP99
0162827980999992001010319004-07100-034860FM-15+0007SBJP V0201401N004110900019N0112651N1+02801+02201999999ADDGA1021+006009999GA2071+090009999GF107991999999999999999999MA1101081999999MW1001REMMET052SBJP 031900Z 14008KT 9999 FEW020 BKN300 28/22 Q1011;EQDQ01+000000PRSWM2
0162827980999992001010320004-07100-034860FM-15+0007SBJP V0201401N004610900019N0112651N1+02701+02301999999ADDGA1021+006009999GA2071+090009999GF107991999999999999999999MA1101081999999MW1001REMMET052SBJP 032000Z 14009KT 9999 FEW020 BKN300 27/23 Q1011;EQDQ01+000000PRSWM2
0162827980999992001010321004-07100-034860FM-15+0007SBJP V0201501N002610900019N0112651N1+02601+02301999999ADDGA1021+006009999GA2071+090009999GF107991999999999999999999MA1101081999999MW1001REMMET052SBJP 032100Z 15005KT 9999 FEW020 BKN300 26/23 Q1011;EQDQ01+000000PRSWM2
0162827980999992001010322004-07100-034860FM-15+0007SBJP V0201701N001010900019N0112651N1+02501+02301999999ADDGA1021+006009999GA2071+090009999GF107991999999999999999999MA1101191999999MW1001REMMET052SBJP 032200Z 17002KT 9999 FEW020 BKN300 25/23 Q1012;EQDQ01+000000PRSWM2
0162827980999992001010323004-07100-034860FM-15+0007SBJP V0201701N001510900019N0112651N1+02501+02301999999ADDGA1021+006009999GA2071+090009999GF107991999999999999999999MA1101191999999MW1001REMMET052SBJP 032300Z 17003KT 9999 FEW020 BKN300 25/23 Q1012;EQDQ01+000000PRSWM2
0314827980999992001010400004-07100-034860SY-MT+0007SBJP V0200901N00211090001CN0040001N1+02721+02321101501ADDAA199000091GA1021+006009999GA2071+090009999GF199999061051008001001001KA1240M+02961MA1101291101291MD1999999-0021MW1001REMSYN076AAXX  04004 82798 32596 60904 10272 20232 30129 40150 86500 333 10296 59002;MET052SBJP 040000Z 18004KT 9999 FEW020 BKN300 24/23 Q1013;EQDQ01+000062SCOTCVQ02+000000PRSWM2Q03  00002PRCP99
0139827980999992001010401004-07100-034860FM-15+0007SBJP V0209999C000012200019N0112651N1+02401+02301999999ADDGA1021+006009999GF104991999999999999999999MA1101291999999MW1001REMMET045SBJP 040100Z 00000KT 9999 SCT020 24/23 Q1013;EQDQ01+000000PRSWM2
0139827980999992001010402004-07100-034860FM-15+0007SBJP V0209999C000012200019N0112651N1+02401+02301999999ADDGA1021+006009999GF104991999999999999999999MA1101291999999MW1001REMMET045SBJP 040200Z 00000KT 9999 SCT020 24/23 Q1013;EQDQ01+000000PRSWM2
0162827980999992001010411004-07100-034860FM-15+0007SBJP V0201001N004610060019N0112651N1+02701+02301999999ADDGA1071+006009999GA2071+090009999GF107991999999999999999999MA1101291999999MW1001REMMET052SBJP 041100Z 10009KT 9999 BKN020 BKN300 27/23 Q1013;EQDQ01+000000PRSWM2
0298827980999992001010412004-07100-034860SY-MT+0007SBJP V0200901N00311006001CN0200001N1+02871+02321101601ADDAA199000091GA1071+006009999GA2071+090009999GF107991071091008001001001KA1240N+02581MA1101391101391MD1999999+0021MW1001REMSYN076AAXX  04124 82798 32598 70906 10287 20232 30139 40160 87900 333 20258 58002;MET052SBJP 041200Z 10005KT 9999 BKN020 BKN300 28/23 Q1014;EQDQ01+000000PRSWM2Q02  00002PRCP99
0162827980999992001010413004-07100-034860FM-15+0007SBJP V0201101N005110900019N0112651N1+02901+02201999999ADDGA1021+006009999GA2071+090009999GF107991999999999999999999MA1101291999999MW1001REMMET052SBJP 041300Z 11010KT 9999 SCT020 BKN300 29/22 Q1013;EQDQ01+000000PRSWM2
0162827980999992001010414004-07100-034860FM-15+0007SBJP V0201101N005110060019N0112651N1+02801+02201999999ADDGA1071+006009999GA2071+090009999GF107991999999999999999999MA1101291999999MW1001REMMET052SBJP 041400Z 11010KT 9999 BKN020 BKN300 28/22 Q1013;EQDQ01+000000PRSWM2
0162827980999992001010415004-07100-034860FM-15+0007SBJP V0201201N004610060019N0112651N1+02801+02301999999ADDGA1071+006009999GA2071+090009999GF107991999999999999999999MA1101191999999MW1001REMMET052SBJP 041500Z 12009KT 9999 BKN020 BKN300 28/23 Q1012;EQDQ01+000000PRSWM2
0162827980999992001010416004-07100-034860FM-15+0007SBJP V0201301N006210060019N0112651N1+02801+02301999999ADDGA1071+006009999GA2071+090009999GF107991999999999999999999MA1101191999999MW1001REMMET052SBJP 041600Z 13012KT 9999 BKN020 BKN300 28/23 Q1012;EQDQ01+000000PRSWM2
0162827980999992001010417004-07100-034860FM-15+0007SBJP V0201201N005110060019N0112651N1+02801+02301999999ADDGA1071+006009999GA2071+090009999GF107991999999999999999999MA1101081999999MW1001REMMET052SBJP 041700Z 12010KT 9999 BKN020 BKN300 28/23 Q1011;EQDQ01+000000PRSWM2
0279827980999992001010418004-07100-034860SY-MT+0007SBJP V0200901N00311006001CN0200001N1+02741+02321101281ADDAA199000091GA1071+006009999GA2071+090009999GF108991081051008001999999MA1101081101071MD1999999-0121MW1001REMSYN070AAXX  04184 82798 32598 80906 10274 20232 30107 40128 885// 333 59012;MET052SBJP 041800Z 13010KT 9999 BKN020 BKN300 27/23 Q1011;EQDQ01+000000PRSWM2Q02  00002PRCP99
0162827980999992001010420004-07100-034860FM-15+0007SBJP V0201201N004110900019N0112651N1+02701+02201999999ADDGA1021+006009999GA2071+090009999GF107991999999999999999999MA1101191999999MW1001REMMET052SBJP 042000Z 12008KT 9999 FEW020 BKN300 27/22 Q1012;EQDQ01+000000PRSWM2
0162827980999992001010421004-07100-034860FM-15+0007SBJP V0201401N005110900019N0112651N1+02601+02201999999ADDGA1021+006009999GA2071+090009999GF107991999999999999999999MA1101191999999MW1001REMMET052SBJP 042100Z 14010KT 9999 FEW020 BKN300 26/22 Q1012;EQDQ01+000000PRSWM2
0162827980999992001010422004-07100-034860FM-15+0007SBJP V0201301N003610900019N0112651N1+02601+02201999999ADDGA1021+006009999GA2071+090009999GF107991999999999999999999MA1101291999999MW1001REMMET052SBJP 042200Z 13007KT 9999 FEW020 BKN300 26/22 Q1013;EQDQ01+000000PRSWM2
0162827980999992001010423004-07100-034860FM-15+0007SBJP V0201101N003110900019N0112651N1+02501+02201999999ADDGA1021+006009999GA2071+090009999GF107991999999999999999999MA1101191999999MW1001REMMET052SBJP 042300Z 11006KT 9999 FEW020 BKN300 25/22 Q1012;EQDQ01+000000PRSWM2
0314827980999992001010500004-07100-034860SY-MT+0007SBJP V0200901N00311090001CN0040001N1+02681+02221101581ADDAA199000091GA1021+006009999GA2071+090009999GF199999061021008001001001KA1240M+02981MA1101391101371MD1999999+0011MW1001REMSYN076AAXX  05004 82798 32596 60906 10268 20222 30137 40158 86200 333 10298 58001;MET052SBJP 050000Z 13007KT 9999 FEW020 BKN300 26/33 Q1014;EQDQ01+000062SCOTCVQ02+000000PRSWM2Q03  00002PRCP99
0162827980999992001010501004-07100-034860FM-15+0007SBJP V0201201N003110900019N0112651N1+02601+02201999999ADDGA1021+006009999GA2071+090009999GF107991999999999999999999MA1101391999999MW1001REMMET052SBJP 050100Z 12006KT 9999 FEW020 BKN300 26/22 Q1014;EQDQ01+000000PRSWM2
0156827980999992001010502004-07100-034860FM-15+0007SBJP V0201301N003610900019N0112651N1+99999+99999999999ADDGA1021+004509999GA2071+090009999GF107991999999999999999999MA1101391999999MW1001REMMET046SBJP 050200Z 13007KT 9999 SCT015 BKN300 Q1014;EQDQ01+000000PRSWM2
0162827980999992001010503004-07100-034860FM-15+0007SBJP V0209999C000010900019N0112651N1+02501+02201999999ADDGA1021+004509999GA2071+090009999GF107991999999999999999999MA1101291999999MW1001REMMET052SBJP 050300Z 00000KT 9999 SCT015 BKN300 25/22 Q1013;EQDQ01+000000PRSWM2
0162827980999992001010504004-07100-034860FM-15+0007SBJP V0209999C000010900019N0112651N1+02501+02301999999ADDGA1021+004809999GA2071+090009999GF107991999999999999999999MA1101291999999MW1001REMMET052SBJP 050400Z 00000KT 9999 SCT016 BKN300 25/23 Q1013;EQDQ01+000000PRSWM2
0162827980999992001010505004-07100-034860FM-15+0007SBJP V0202201N001510900019N0112651N1+02501+02301999999ADDGA1021+004809999GA2071+090009999GF107991999999999999999999MA1101191999999MW1001REMMET052SBJP 050500Z 22003KT 9999 SCT016 BKN300 25/23 Q1012;EQDQ01+000000PRSWM2
0162827980999992001010506004-07100-034860FM-15+0007SBJP V0201801N001010900019N0112651N1+02501+02301999999ADDGA1021+004809999GA2071+090009999GF107991999999999999999999MA1101191999999MW1001REMMET052SBJP 050600Z 18002KT 9999 SCT016 BKN300 25/23 Q1012;EQDQ01+000000PRSWM2
0162827980999992001010507004-07100-034860FM-15+0007SBJP V0209999C000010045019N0112651N1+02401+02301999999ADDGA1071+004509999GA2071+090009999GF107991999999999999999999MA1101191999999MW1001REMMET052SBJP 050700Z 00000KT 9999 BKN015 BKN300 24/23 Q1012;EQDQ01+000000PRSWM2
0181827980999992001010508004-07100-034860FM-15+0007SBJP V0201401N003610045019N0020001N1+02401+02301999999ADDGA1071+004509999GA2071+090009999GF107991999999999999999999MA1101191999999MW1631REMMET055SBJP 050800Z 14007KT 2000 RA BKN015 BKN300 24/23 Q1012;EQDQ01+000003PRSWM1Q02    003PRSWM1
0162827980999992001010509004-07100-034860FM-15+0007SBJP V0201801N001512200019N0112651N1+02401+02301999999ADDGA1021+004809999GA2021+090009999GF104991999999999999999999MA1101291999999MW1001REMMET052SBJP 050900Z 18003KT 9999 SCT016 SCT300 24/23 Q1013;EQDQ01+000000PRSWM2
0162827980999992001010510004-07100-034860FM-15+0007SBJP V0201501N003112200019N0112651N1+02501+02401999999ADDGA1021+006009999GA2021+090009999GF104991999999999999999999MA1101291999999MW1001REMMET052SBJP 051000Z 15006KT 9999 SCT020 SCT300 25/24 Q1013;EQDQ01+000000PRSWM2
0139827980999992001010511004-07100-034860FM-15+0007SBJP V0201401N003110060019N0112651N1+02601+02401999999ADDGA1071+006009999GF107991999999999999999999MA1101391999999MW1001REMMET045SBJP 051100Z 14006KT 9999 BKN020 26/24 Q1014;EQDQ01+000000PRSWM2
0139827980999992001010513004-07100-034860FM-15+0007SBJP V0201201N004110060019N0112651N1+02901+02401999999ADDGA1071+006009999GF107991999999999999999999MA1101291999999MW1001REMMET045SBJP 051300Z 12008KT 9999 BKN020 29/24 Q1013;EQDQ01+000000PRSWM2
0139827980999992001010514004-07100-034860FM-15+0007SBJP V0201201N004110060019N0112651N1+02901+02401999999ADDGA1071+006009999GF107991999999999999999999MA1101291999999MW1001REMMET045SBJP 051400Z 12008KT 9999 BKN020 29/24 Q1013;EQDQ01+000000PRSWM2
0139827980999992001010515004-07100-034860FM-15+0007SBJP V0201301N006210060019N0112651N1+03001+02401999999ADDGA1071+006009999GF107991999999999999999999MA1101191999999MW1001REMMET045SBJP 051500Z 13012KT 9999 BKN020 30/24 Q1012;EQDQ01+000000PRSWM2
0139827980999992001010516004-07100-034860FM-15+0007SBJP V0201201N007210060019N0112651N1+03001+02301999999ADDGA1071+006009999GF107991999999999999999999MA1101081999999MW1001REMMET045SBJP 051600Z 12014KT 9999 BKN020 30/23 Q1011;EQDQ01+000000PRSWM2
0139827980999992001010517004-07100-034860FM-15+0007SBJP V0201401N006210060019N0112651N1+03001+02301999999ADDGA1071+006009999GF107991999999999999999999MA1101081999999MW1001REMMET045SBJP 051700Z 14012KT 9999 BKN020 30/23 Q1011;EQDQ01+000000PRSWM2
0256827980999992001010518004-07100-034860SY-MT+0007SBJP V0200501N00411006001CN0200001N1+02941+02361101361ADDAA199000021GA1071+006009999GF199999051041008001001001MA1101081101151MD1999999-0071MW1001REMSYN070AAXX  05184 82798 32598 50508 10294 20236 30115 40136 85400 333 59007;MET045SBJP 051800Z 10008KT 9999 BKN020 29/23 Q1011;EQDQ01+000052SCOTCVQ02+000000PRSWM2
0140827980999992001010519004-07100-034860FM-15+0007SBJP V0201201N006210060019N0112651N1+02901+02401999999ADDGA1071+006009999GF107991999999999999999999MW1001REMMET045SBJP 051900Z 12012KT 9999 BKN020 29/24 Q1015;EQDQ01+101493APOA  Q02+000000PRSWM2
0139827980999992001010520004-07100-034860FM-15+0007SBJP V0201201N005712200019N0112651N1+02701+02301999999ADDGA1021+006009999GF104991999999999999999999MA1101081999999MW1001REMMET045SBJP 052000Z 12011KT 9999 SCT020 27/23 Q1011;EQDQ01+000000PRSWM2
0139827980999992001010521004-07100-034860FM-15+0007SBJP V0201201N004112200019N0112651N1+02601+02301999999ADDGA1021+006009999GF104991999999999999999999MA1101081999999MW1001REMMET045SBJP 052100Z 12008KT 9999 SCT020 26/23 Q1011;EQDQ01+000000PRSWM2
0139827980999992001010522004-07100-034860FM-15+0007SBJP V0201201N003112200019N0112651N1+02601+02301999999ADDGA1021+006009999GF102991999999999999999999MA1101191999999MW1001REMMET045SBJP 052200Z 12006KT 9999 FEW020 26/23 Q1012;EQDQ01+000000PRSWM2
0139827980999992001010523004-07100-034860FM-15+0007SBJP V0201201N002612200019N0112651N1+02601+02301999999ADDGA1021+006009999GF102991999999999999999999MA1101291999999MW1001REMMET045SBJP 052300Z 12005KT 9999 FEW020 26/23 Q1013;EQDQ01+000000PRSWM2
0275827980999992001010600004-07100-034860SY-MT+0007SBJP V0200901N003112200019N0040001N1+02721+02341101571ADDAA199000091GA1021+006009999GF105991051041008001001001KA1240M+03021MA1101291101361MD1999999-0011MW1001REMSYN076AAXX  06004 82798 32596 50906 10272 20234 30136 40157 85400 333 10302 59001;MET045SBJP 060000Z 12003KT 9999 FEW020 25/23 Q1013;EQDQ01+000000PRSWM2Q02  00002PRCP99
0139827980999992001010601004-07100-034860FM-15+0007SBJP V0201201N002112200019N0112651N1+02501+02301999999ADDGA1021+006009999GF102991999999999999999999MA1101291999999MW1001REMMET045SBJP 060100Z 12004KT 9999 FEW020 25/23 Q1013;EQDQ01+000000PRSWM2
0139827980999992001010602004-07100-034860FM-15+0007SBJP V0201201N002112200019N0112651N1+02501+02301999999ADDGA1021+006009999GF102991999999999999999999MA1101291999999MW1001REMMET045SBJP 060200Z 12004KT 9999 FEW020 25/23 Q1013;EQDQ01+000000PRSWM2
0139827980999992001010603004-07100-034860FM-15+0007SBJP V0201401N002112200019N0112651N1+02401+02301999999ADDGA1021+006009999GF104991999999999999999999MA1101191999999MW1001REMMET045SBJP 060300Z 14004KT 9999 SCT020 24/23 Q1012;EQDQ01+000000PRSWM2
0139827980999992001010604004-07100-034860FM-15+0007SBJP V0201401N002112200019N0112651N1+02501+02301999999ADDGA1021+006009999GF104991999999999999999999MA1101191999999MW1001REMMET045SBJP 060400Z 14004KT 9999 SCT020 25/23 Q1012;EQDQ01+000000PRSWM2
0139827980999992001010605004-07100-034860FM-15+0007SBJP V0201401N002612200019N0112651N1+02501+02401999999ADDGA1021+006009999GF104991999999999999999999MA1101081999999MW1001REMMET045SBJP 060500Z 14005KT 9999 SCT020 25/24 Q1011;EQDQ01+000000PRSWM2
0139827980999992001010606004-07100-034860FM-15+0007SBJP V0201301N002612200019N0112651N1+02401+02401999999ADDGA1021+006009999GF104991999999999999999999MA1101081999999MW1001REMMET045SBJP 060600Z 13005KT 9999 SCT020 24/24 Q1011;EQDQ01+000000PRSWM2
0139827980999992001010607004-07100-034860FM-15+0007SBJP V0209999C000012200019N0112651N1+02401+02301999999ADDGA1021+006009999GF104991999999999999999999MA1101081999999MW1001REMMET045SBJP 060700Z 00000KT 9999 SCT020 24/23 Q1011;EQDQ01+000000PRSWM2
0139827980999992001010608004-07100-034860FM-15+0007SBJP V0201801N002112200019N0112651N1+02301+02301999999ADDGA1021+006009999GF104991999999999999999999MA1101081999999MW1001REMMET045SBJP 060800Z 18004KT 9999 SCT020 23/23 Q1011;EQDQ01+000000PRSWM2
0139827980999992001010609004-07100-034860FM-15+0007SBJP V0201701N002112200019N0112651N1+02301+02301999999ADDGA1021+006009999GF104991999999999999999999MA1101081999999MW1001REMMET045SBJP 060900Z 17004KT 9999 SCT020 23/23 Q1011;EQDQ01+000000PRSWM2
0139827980999992001010610004-07100-034860FM-15+0007SBJP V0201601N001512200019N0112651N1+02401+02301999999ADDGA1021+006009999GF104991999999999999999999MA1101191999999MW1001REMMET045SBJP 061000Z 16003KT 9999 SCT020 24/23 Q1012;EQDQ01+000000PRSWM2
0139827980999992001010611004-07100-034860FM-15+0007SBJP V0201201N006212200019N0112651N1+02801+02301999999ADDGA1021+006009999GF104991999999999999999999MA1101191999999MW1001REMMET045SBJP 061100Z 12012KT 9999 SCT020 28/23 Q1012;EQDQ01+000000PRSWM2
0291827980999992001010612004-07100-034860SY-MT+0007SBJP V0200501N00311006001CN0200001N1+02961+02331101501ADDAA199000091GA1071+006009999GF199999061091008001001001KA1240N+02601MA1101291101291MD1999999-0081MW1001REMSYN076AAXX  06124 82798 32598 60506 10296 20233 30129 40150 86900 333 20260 59008;MET045SBJP 061200Z 13011KT 9999 BKN020 28/23 Q1013;EQDQ01+000062SCOTCVQ02+000000PRSWM2Q03  00002PRCP99
0167827980999992001010618004-07100-034860FM-12+0007SBJP V0200901N003610075019N0200001N1+02901+02341101231ADDAA199000091GF106991061021008001001001MA1999999101021MD1999999-0121REMSYN070AAXX  06184 82798 32598 60907 10290 20234 30102 40123 86200 333 59012;EQDQ01  00002PRCP99
0139827980999992001010620004-07100-034860FM-15+0007SBJP V0201201N007212200019N0112651N1+02701+02301999999ADDGA1021+006009999GF102991999999999999999999MA1101081999999MW1001REMMET045SBJP 062000Z 12014KT 9999 FEW020 27/23 Q1011;EQDQ01+000000PRSWM2
0139827980999992001010621004-07100-034860FM-15+0007SBJP V0201201N005112200019N0112651N1+02601+02301999999ADDGA1021+006009999GF102991999999999999999999MA1101081999999MW1001REMMET045SBJP 062100Z 12010KT 9999 FEW020 26/23 Q1011;EQDQ01+000000PRSWM2
0139827980999992001010622004-07100-034860FM-15+0007SBJP V0201201N005112200019N0112651N1+02601+02301999999ADDGA1021+006009999GF102991999999999999999999MA1101191999999MW1001REMMET045SBJP 062200Z 12010KT 9999 FEW020 26/23 Q1012;EQDQ01+000000PRSWM2
0138827980999992001010623004-07100-034860FM-15+0007SBJP V0201201N005112200019N0112651N1+02601+02301999999ADDGA1021+000609999GF102991999999999999999999MA1101191999999MW1001REMMET044SBJP 062300Z 12010KT 9999 FEW02 26/23 Q1012;EQDQ01+000000PRSWM2
0186827980999992001010700004-07100-034860FM-12+0007SBJP V0200901N003110075019N0040001N1+02741+02281101571ADDAA199000091GF106991061091008001001001KA1240M+03041MA1999999101331MD1999999+0001REMSYN076AAXX  07004 82798 32596 60906 10274 20228 30133 40157 86900 333 10304 58000;EQDQ01  00002PRCP99
0139827980999992001010701004-07100-034860FM-15+0007SBJP V0201301N003612200019N0112651N1+02501+02201999999ADDGA1021+006009999GF102991999999999999999999MA1101291999999MW1001REMMET045SBJP 070100Z 13007KT 9999 FEW020 25/22 Q1013;EQDQ01+000000PRSWM2
0139827980999992001010702004-07100-034860FM-15+0007SBJP V0201101N003612200019N0112651N1+02501+02201999999ADDGA1021+006009999GF102991999999999999999999MA1101291999999MW1001REMMET045SBJP 070200Z 11007KT 9999 FEW020 25/22 Q1013;EQDQ01+000000PRSWM2
0139827980999992001010703004-07100-034860FM-15+0007SBJP V0201301N002612200019N0112651N1+02501+02201999999ADDGA1021+006009999GF102991999999999999999999MA1101191999999MW1001REMMET045SBJP 070300Z 13005KT 9999 FEW020 25/22 Q1012;EQDQ01+000000PRSWM2
0139827980999992001010704004-07100-034860FM-15+0007SBJP V0201601N002612200019N0112651N1+02401+02301999999ADDGA1021+006009999GF102991999999999999999999MA1101081999999MW1001REMMET045SBJP 070400Z 16005KT 9999 FEW020 24/23 Q1011;EQDQ01+000000PRSWM2
0139827980999992001010705004-07100-034860FM-15+0007SBJP V0209999C000012200019N0112651N1+02301+02201999999ADDGA1021+006009999GF102991999999999999999999MA1101081999999MW1001REMMET045SBJP 070500Z 00000KT 9999 FEW020 23/22 Q1011;EQDQ01+000000PRSWM2
0139827980999992001010706004-07100-034860FM-15+0007SBJP V0209999C000012200019N0112651N1+02301+02201999999ADDGA1021+006009999GF102991999999999999999999MA1101081999999MW1001REMMET045SBJP 070600Z 00000KT 9999 FEW020 23/22 Q1011;EQDQ01+000000PRSWM2
0139827980999992001010707004-07100-034860FM-15+0007SBJP V0209999C000012200019N0112651N1+02301+02301999999ADDGA1021+006009999GF102991999999999999999999MA1101191999999MW1001REMMET045SBJP 070700Z 00000KT 9999 FEW020 23/23 Q1012;EQDQ01+000000PRSWM2
0139827980999992001010708004-07100-034860FM-15+0007SBJP V0209999C000012200019N0112651N1+02201+02201999999ADDGA1021+004509999GF104991999999999999999999MA1101081999999MW1001REMMET045SBJP 070800Z 00000KT 9999 SCT015 22/22 Q1011;EQDQ01+000000PRSWM2
0139827980999992001010709004-07100-034860FM-15+0007SBJP V0209999C000012200019N0112651N1+02201+02101999999ADDGA1021+004509999GF104991999999999999999999MA1101081999999MW1001REMMET045SBJP 070900Z 00000KT 9999 SCT015 22/21 Q1011;EQDQ01+000000PRSWM2
0162827980999992001010710004-07100-034860FM-15+0007SBJP V0201401N002112200019N0112651N1+02601+02301999999ADDGA1021+006009999GA2021+090009999GF104991999999999999999999MA1101191999999MW1001REMMET052SBJP 071000Z 14004KT 9999 FEW020 SCT300 26/23 Q1012;EQDQ01+000000PRSWM2
0162827980999992001010711004-07100-034860FM-15+0007SBJP V0201101N004112200019N0112651N1+02801+02301999999ADDGA1021+006009999GA2021+090009999GF104991999999999999999999MA1101191999999MW1001REMMET052SBJP 071100Z 11008KT 9999 SCT020 SCT300 28/23 Q1012;EQDQ01+000000PRSWM2
0298827980999992001010712004-07100-034860SY-MT+0007SBJP V0200901N00211006001CN0200001N1+02841+02261101481ADDAA199000091GA1071+006009999GA2021+090009999GF107991071091008001001001KA1240N+02621MA1101191101271MD1999999-0021MW1001REMSYN076AAXX  07124 82798 32598 70904 10284 20226 30127 40148 87900 333 20262 59002;MET052SBJP 071200Z 14010KT 9999 BKN020 SCT300 28/21 Q1012;EQDQ01+000000PRSWM2Q02  00002PRCP99
0152827980999992001010713004-07100-034860FM-15+0007SBJP V0201001N00411220001CN0112651N1+02801+02201999999ADDGA1071+006009999GA2021+090009999MA1101291999999MW1001REMMET052SBJP 071300Z 10008KT 9999 BKN020 SCT300 28/22 Q1013;EQDQ01+000042SCOTCVQ02+000000PRSWM2
0152827980999992001010714004-07100-034860FM-15+0007SBJP V0201401N00461220001CN0112651N1+02901+02201999999ADDGA1071+006009999GA2021+090009999MA1101191999999MW1001REMMET052SBJP 071400Z 14009KT 9999 BKN020 SCT300 29/22 Q1012;EQDQ01+000042SCOTCVQ02+000000PRSWM2
0162827980999992001010716004-07100-034860FM-15+0007SBJP V0201101N006210060019N0112651N1+02901+02201999999ADDGA1071+006009999GA2071+090009999GF107991999999999999999999MA1101081999999MW1001REMMET052SBJP 071600Z 11012KY 9999 BKN020 BKN300 29/22 Q1011;EQDQ01+000000PRSWM2
0162827980999992001010717004-07100-034860FM-15+0007SBJP V0201101N006210060019N0112651N1+02901+02201999999ADDGA1071+006009999GA2071+090009999GF107991999999999999999999MA1101081999999MW1001REMMET052SBJP 071700Z 11012KT 9999 BKN020 BKN300 29/22 Q1011;EQDQ01+000000PRSWM2
0295827980999992001010718004-07100-034860SY-MT+0007SBJP V0201401N00411006001CN0200001N1+02581+02301101251ADDAA199000091GA1071+006009999GA2021+090009999GF199999051021008001001001MA1101021101041MD1999999+0021MW1001REMSYN070AAXX  07184 82798 32598 51408 10258 20230 30104 40125 85200 333 58002;MET052SBJP 071800Z 13012KT 9999 BKN020 SCT300 29/22 Q1010;EQDQ01+000052SCOTCVQ02+000000PRSWM2Q03  00002PRCP99
0162827980999992001010719004-07100-034860FM-15+0007SBJP V0201101N006712200019N0112651N1+02801+02101999999ADDGA1021+006009999GA2021+090009999GF104991999999999999999999MA1101021999999MW1001REMMET052SBJP 071900Z 11013KT 9999 SCT020 SCT300 28/21 Q1010;EQDQ01+000000PRSWM2
0162827980999992001010720004-07100-034860FM-15+0007SBJP V0201201N006212200019N0112651N1+02701+02101999999ADDGA1021+006009999GA2021+090009999GF104991999999999999999999MA1101021999999MW1001REMMET052SBJP 072000Z 12012KT 9999 FEW020 SCT300 27/21 Q1010;EQDQ01+000000PRSWM2
0162827980999992001010721004-07100-034860FM-15+0007SBJP V0201201N004612200019N0112651N1+02601+02101999999ADDGA1021+006009999GA2021+090009999GF104991999999999999999999MA1101021999999MW1001REMMET052SBJP 072100Z 12009KT 9999 FEW020 SCT300 26/21 Q1010;EQDQ01+000000PRSWM2
0139827980999992001010722004-07100-034860FM-15+0007SBJP V0201501N003612200019N0112651N1+02501+02201999999ADDGA1021+006009999GF102991999999999999999999MA1101081999999MW1001REMMET045SBJP 072200Z 15007KT 9999 FEW020 25/22 Q1011;EQDQ01+000000PRSWM2
0162827980999992001010723004-07100-034860FM-15+0007SBJP V0201501N002112200019N0112651N1+02401+02201999999ADDGA1021+006009999GA2021+090009999GF104991999999999999999999MA1101191999999MW1001REMMET052SBJP 072300Z 15004KT 9999 FEW020 SCT300 24/22 Q1012;EQDQ01+000000PRSWM2
0298827980999992001010800004-07100-034860SY-MT+0007SBJP V0201401N003110075019N0040001N1+02701+02171101481ADDAA199000091GA1021+005109999GA2021+090009999GF106991061091008001001001KA1240M+03061MA1101191101271MD1999999-0091MW1001REMSYN076AAXX  08004 82798 32596 61406 10270 20217 30127 40148 86900 333 10306 59009;MET052SBJP 080000Z 15003KT 9999 FEW017 SCT300 24/22 Q1012;EQDQ01+000000PRSWM2Q02  00002PRCP99
0139827980999992001010801004-07100-034860FM-15+0007SBJP V0201401N001512200019N0112651N1+02401+02201999999ADDGA1021+006009999GF104991999999999999999999MA1101291999999MW1001REMMET045SBJP 080100Z 14003KT 9999 SCT020 24/22 Q1013;EQDQ01+000000PRSWM2
0139827980999992001010802004-07100-034860FM-15+0007SBJP V0201601N001512200019N0112651N1+02401+02201999999ADDGA1021+006009999GF104991999999999999999999MA1101191999999MW1001REMMET045SBJP 080200Z 16003KT 9999 SCT020 24/22 Q1012;EQDQ01+000000PRSWM2
0162827980999992001010803004-07100-034860FM-15+0007SBJP V0209999C000012200019N0112651N1+02301+02201999999ADDGA1021+006009999GA2021+030009999GF104991999999999999999999MA1101191999999MW1001REMMET052SBJP 080300Z 00000KT 9999 SCT020 SCT100 23/22 Q1012;EQDQ01+000000PRSWM2
0139827980999992001010804004-07100-034860FM-15+0007SBJP V0209999C000012200019N0112651N1+02201+02101999999ADDGA1021+006009999GF102991999999999999999999MA1101081999999MW1001REMMET045SBJP 080400Z 00000KT 9999 FEW020 22/21 Q1011;EQDQ01+000000PRSWM2
0139827980999992001010805004-07100-034860FM-15+0007SBJP V0209999C000012200019N0112651N1+02201+02101999999ADDGA1021+006009999GF102991999999999999999999MA1101081999999MW1001REMMET045SBJP 080500Z 00000KT 9999 FEW020 22/21 Q1011;EQDQ01+000000PRSWM2
0139827980999992001010806004-07100-034860FM-15+0007SBJP V0209999C000012200019N0112651N1+02201+02101999999ADDGA1021+006009999GF102991999999999999999999MA1101081999999MW1001REMMET045SBJP 080600Z 00000KT 9999 FEW020 22/21 Q1011;EQDQ01+000000PRSWM2
0139827980999992001010807004-07100-034860FM-15+0007SBJP V0209999C000012200019N0112651N1+02101+02101999999ADDGA1021+006009999GF102991999999999999999999MA1101081999999MW1001REMMET045SBJP 080700Z 00000KT 9999 FEW020 21/21 Q1011;EQDQ01+000000PRSWM2
0139827980999992001010808004-07100-034860FM-15+0007SBJP V0209999C000012200019N0112651N1+02101+02101999999ADDGA1021+006009999GF102991999999999999999999MA1101081999999MW1001REMMET045SBJP 080800Z 00000KT 9999 FEW020 21/21 Q1011;EQDQ01+000000PRSWM2
0162827980999992001010809004-07100-034860FM-15+0007SBJP V0209999C000012200019N0112651N1+02101+02101999999ADDGA1021+006009999GA2021+090009999GF104991999999999999999999MA1101191999999MW1001REMMET052SBJP 080900Z 00000KT 9999 FEW020 SCT300 21/21 Q1012;EQDQ01+000000PRSWM2
0162827980999992001010810004-07100-034860FM-15+0007SBJP V0201901N002112200019N0112651N1+02401+02201999999ADDGA1021+006009999GA2021+090009999GF104991999999999999999999MA1101191999999MW1001REMMET052SBJP 081000Z 19004KT 9999 FEW020 SCT300 24/22 Q1012;EQDQ01+000000PRSWM2
0162827980999992001010811004-07100-034860FM-15+0007SBJP V0201501N004612200019N0112651N1+02601+02101999999ADDGA1021+006009999GA2021+090009999GF104991999999999999999999MA1101191999999MW1001REMMET052SBJP 081100Z 15009KT 9999 SCT020 SCT300 26/21 Q1012;EQDQ01+000000PRSWM2
0202827980999992001010812004-07100-034860FM-12+0007SBJP V0200901N004112200019N0200001N1+02921+02121101491ADDAA199000091GF104991999041008001001001KA1240N+02541MA1999999101281MD1999999+0011REMSYN076AAXX  08124 82798 32598 40908 10292 20212 30128 40149 85400 333 20254 58001;EQDQ01+000052SCOTLCQ02  00002PRCP99
0123827980999992001010813004-07100-034860FM-15+0007SBJP V0201401N007210060019N0112651N1+02901+02101999999ADDGA1071+006009999GF107991999999999999999999MW1001REMMET044SBJP 081300Z 14014KT 9999 BKN020 29/21 1012;EQDQ01+000000PRSWM2
0167827980999992001010818004-07100-034860FM-12+0007SBJP V0200901N004112200019N0200001N1+02881+02211101221ADDAA199000091GF102991021021008001001001MA1999999101011MD1999999-0031REMSYN070AAXX  08184 82798 32598 20908 10288 20221 30101 40122 82200 333 59003;EQDQ01  00002PRCP99
0091827980999992001010822004-07100-034860FM-15+0007SBJP V0201501N00211220001CN0099001N1+02401+02201999999ADDMA1101081999999MW1001REMMET039SBJP 082200Z 15004KT CAVOK 24/22 Q1011;EQDQ01+000000PRSWM2
0091827980999992001010823004-07100-034860FM-15+0007SBJP V0201401N00211220001CN0099001N1+02401+02101999999ADDMA1101191999999MW1001REMMET039SBJP 082300Z 14004KT CAVOK 24/21 Q1012;EQDQ01+000000PRSWM2
0091827980999992001010901004-07100-034860FM-15+0007SBJP V0201601N00211220001CN0099001N1+02301+02101999999ADDMA1101191999999MW1001REMMET039SBJP 090100Z 16004KT CAVOK 23/21 Q1012;EQDQ01+000000PRSWM2
0091827980999992001010902004-07100-034860FM-15+0007SBJP V0201601N00151220001CN0099001N1+02201+02101999999ADDMA1101191999999MW1001REMMET039SBJP 090200Z 16003KT CAVOK 22/21 Q1012;EQDQ01+000000PRSWM2
0091827980999992001010903004-07100-034860FM-15+0007SBJP V0209999C00001220001CN0099001N1+02201+02101999999ADDMA1101081999999MW1001REMMET039SBJP 090300Z 00000KT CAVOK 22/21 Q1011;EQDQ01+000000PRSWM2
0091827980999992001010904004-07100-034860FM-15+0007SBJP V0202001N00151220001CN0099001N1+02201+02101999999ADDMA1101021999999MW1001REMMET039SBJP 090400Z 20003KT CAVOK 22/21 Q1010;EQDQ01+000000PRSWM2
0091827980999992001010906004-07100-034860FM-15+0007SBJP V0201801N00101220001CN0099001N1+02201+02101999999ADDMA1101021999999MW1001REMMET039SBJP 090600Z 18002KT CAVOK 22/21 Q1010;EQDQ01+000000PRSWM2
0139827980999992001010907004-07100-034860FM-15+0007SBJP V0202201N002112200019N0112651N1+02201+02201999999ADDGA1021+006009999GF102991999999999999999999MA1101021999999MW1001REMMET045SBJP 090700Z 22004KT 9999 FEW020 22/22 Q1010;EQDQ01+000000PRSWM2
0139827980999992001010908004-07100-034860FM-15+0007SBJP V0202201N002112200019N0112651N1+02201+02201999999ADDGA1021+006009999GF102991999999999999999999MA1101021999999MW1001REMMET045SBJP 090800Z 22004KT 9999 FEW020 22/22 Q1010;EQDQ01+000000PRSWM2
0139827980999992001010909004-07100-034860FM-15+0007SBJP V0202201N002112200019N0112651N1+02201+02101999999ADDGA1021+006009999GF102991999999999999999999MA1101081999999MW1001REMMET045SBJP 090900Z 22004KT 9999 FEW020 22/21 Q1011;EQDQ01+000000PRSWM2
0139827980999992001010910004-07100-034860FM-15+0007SBJP V0201801N002112200019N0112651N1+02401+02301999999ADDGA1021+006009999GF104991999999999999999999MA1101191999999MW1001REMMET045SBJP 091000Z 18004KT 9999 SCT020 24/23 Q1012;EQDQ01+000000PRSWM2
0139827980999992001010911004-07100-034860FM-15+0007SBJP V0201501N004110060019N0112651N1+02601+02401999999ADDGA1071+006009999GF107991999999999999999999MA1101291999999MW1001REMMET045SBJP 091100Z 15008KT 9999 BKN020 26/24 Q1013;EQDQ01+000000PRSWM2
0291827980999992001010912004-07100-034860SY-MT+0007SBJP V0200901N00311006001CN0200001N1+02961+02421101581ADDAA199000091GA1071+006009999GF199999051021008001001001KA1240N+02601MA1101291101371MD1999999+0091MW1001REMSYN076AAXX  09124 82798 32598 50906 10296 20242 30137 40158 85200 333 20260 58009;MET045SBJP 091200Z 14011KT 9999 BKN020 29/22 Q1013;EQDQ01+000052SCOTCVQ02+000000PRSWM2Q03  00002PRCP99
0139827980999992001010913004-07100-034860FM-15+0007SBJP V0201401N005110060019N0112651N1+02901+02301999999ADDGA1071+006009999GF107991999999999999999999MA1101291999999MW1001REMMET045SBJP 091300Z 14010KT 9999 BKN020 29/23 Q1013;EQDQ01+000000PRSWM2
0139827980999992001010914004-07100-034860FM-15+0007SBJP V0201401N005110060019N0112651N1+03001+02301999999ADDGA1071+006009999GF107991999999999999999999MA1101191999999MW1001REMMET045SBJP 091400Z 14010KT 9999 BKN020 30/23 Q1012;EQDQ01+000000PRSWM2
0139827980999992001010915004-07100-034860FM-15+0007SBJP V0201301N005710060019N0112651N1+03001+02301999999ADDGA1071+006009999GF107991999999999999999999MA1101191999999MW1001REMMET045SBJP 091500Z 13011KT 9999 BKN020 30/23 Q1012;EQDQ01+000000PRSWM2
0139827980999992001010916004-07100-034860FM-15+0007SBJP V0201301N006210060019N0112651N1+03001+02301999999ADDGA1071+006009999GF107991999999999999999999MA1101081999999MW1001REMMET045SBJP 091600Z 13012KT 9999 BKN020 30/23 Q1011;EQDQ01+000000PRSWM2
0139827980999992001010917004-07100-034860FM-15+0007SBJP V0201401N007212200019N0112651N1+03001+02201999999ADDGA1021+006009999GF104991999999999999999999MA1101021999999MW1001REMMET045SBJP 091700Z 14014KT 9999 SCT020 30/22 Q1010;EQDQ01+000000PRSWM2
0167827980999992001010918004-07100-034860FM-12+0007SBJP V0201401N003610075019N0200001N1+02921+02361101261ADDAA199000091GF105991051021008001001001MA1999999101051MD1999999+0041REMSYN070AAXX  09184 82798 32598 51407 10292 20236 30105 40126 85200 333 58004;EQDQ01  00002PRCP99
0201827980999992001011000004-07100-034860FM-12+0007SBJP V0201401N001510075019N0040001N1+02701+02371101361ADDAA106000191AY161061AY221061GF107991071091008001001001KA1240M+03061MA1999999101151MD1999999-0061MW1021REMSYN088AAXX  10004 82798 21596 71403 10270 20237 30115 40136 70262 87900 333 10306 59006 69921;
0090827980999992001011002004-07100-034860FM-15+0007SBJP V02099999999992200019N0040001N1+99999+99999999999ADDMW1001REMMET053SBJP 100200Z 1000 4KT 9999 BKN015 BKN300 24/24 Q1012;EQDQ01+000000PRSWM2
0185827980999992001011003004-07100-034860FM-15+0007SBJP V0201301N002610900019N0112651N1+02401+02401999999ADDGA1021+004509999GA2021+030009999GA3071+090009999GF107991999999999999999999MA1101081999999MW1001REMMET059SBJP 100300Z 13005KT 9999 FEW015 SCT100 BKN300 24/24 Q1011;EQDQ01+000000PRSWM2
0139827980999992001011005004-07100-034860FM-15+0007SBJP V0201401N002612200019N0112651N1+02401+02301999999ADDGA1021+006009999GF104991999999999999999999MA1101081999999MW1001REMMET045SBJP 100500Z 14005KT 9999 SCT020 24/23 Q1011;EQDQ01+000000PRSWM2
0139827980999992001011006004-07100-034860FM-15+0007SBJP V0201501N001512200019N0112651N1+02301+02201999999ADDGA1021+006009999GF102991999999999999999999MA1101021999999MW1001REMMET045SBJP 100600Z 15003KT 9999 FEW020 23/22 Q1010;EQDQ01+000000PRSWM2
0162827980999992001011008004-07100-034860FM-15+0007SBJP V0201501N002112200019N0112651N1+02301+02201999999ADDGA1021+006009999GA2021+090009999GF104991999999999999999999MA1101021999999MW1001REMMET052SBJP 100800Z 15004KT 9999 FEW020 SCT300 23/22 Q1010;EQDQ01+000000PRSWM2
0162827980999992001011009004-07100-034860FM-15+0007SBJP V0201401N002110900019N0112651N1+02401+02301999999ADDGA1021+006009999GA2071+090009999GF107991999999999999999999MA1101081999999MW1001REMMET052SBJP 100900Z 14004KT 9999 FEW020 BKN300 24/23 Q1011;EQDQ01+000000PRSWM2
0162827980999992001011011004-07100-034860FM-15+0007SBJP V0201301N006212200019N0112651N1+02801+02201999999ADDGA1021+006009999GA2021+090009999GF104991999999999999999999MA1101191999999MW1001REMMET052SBJP 101100Z 13012KT 9999 FEW020 SCT300 28/22 Q1012;EQDQ01+000000PRSWM2
0319827980999992001011012004-07100-034860SY-MT+0007SBJP V0200901N00411006001CN0200001N1+02901+02221101501ADDAA124000191AY161061AY221061GA1071+006009999GF199999051041008001001001KA1240N+02421MA1101291101291MD1999999-0081MW1021REMSYN088AAXX  10124 82798 21598 50908 10290 20222 30129 40150 70262 85400 333 20242 59008 69924;MET045SBJP 101200Z 15012KT 9999 BKN020 28/21 Q1013;EQDQ01+000052SCOTCVQ02+000000PRSWM2Q03    003PRSWM1
0324827980999992001011018004-07100-034860SY-MT+0007SBJP V0200901N00411006001CN0200001N1+02881+02181101341ADDAA106000191AY161061AY221061GA1071+006009999GA2071+090009999GF199999061041008001001001MA1101081101131MD1999999+0081MW1021REMSYN082AAXX  10184 82798 21598 60908 10288 20218 30113 40134 70262 86400 333 58008 69911;MET053SBJP 101800Z 14013KT 9999 BKN020 BKN3000 28/22 Q1011;EQDQ01+000062SCOTCVQ02+000000PRSWM2Q03    003PRSWM1
0162827980999992001011019004-07100-034860FM-15+0007SBJP V0201301N005710900019N0112651N1+02801+02201999999ADDGA1021+006009999GA2071+090009999GF107991999999999999999999MA1101081999999MW1001REMMET052SBJP 101900Z 13011KT 9999 FEW020 BKN300 28/22 Q1011;EQDQ01+000000PRSWM2
0162827980999992001011020004-07100-034860FM-15+0007SBJP V0201401N005710900019N0112651N1+02701+02101999999ADDGA1021+006009999GA2071+090009999GF107991999999999999999999MA1101081999999MW1001REMMET052SBJP 102000Z 14011KT 9999 FEW020 BKN300 27/21 Q1011;EQDQ01+000000PRSWM2
0185827980999992001011021004-07100-034860FM-15+0007SBJP V0201501N003610300019N0112651N1+02601+02201999999ADDGA1021+006009999GA2071+030009999GA3071+090009999GF107991999999999999999999MA1101081999999MW1001REMMET059SBJP 102100Z 15007KT 9999 FEW020 BKN100 BKN300 26/22 Q1011;EQDQ01+000000PRSWM2
0162827980999992001011022004-07100-034860FM-15+0007SBJP V0201601N002110900019N0112651N1+02501+02201999999ADDGA1021+006009999GA2071+090009999GF107991999999999999999999MA1101081999999MW1001REMMET052SBJP 102200Z 16004KT 9999 FEW020 BKN300 25/22 Q1011;EQDQ01+000000PRSWM2
0162827980999992001011023004-07100-034860FM-15+0007SBJP V0201801N001010900019N0112651N1+02401+02201999999ADDGA1021+006009999GA2071+090009999GF107991999999999999999999MA1101191999999MW1001REMMET052SBJP 102300Z 18002KT 9999 FEW020 BKN300 24/22 Q1012;EQDQ01+000000PRSWM2
0314827980999992001011100004-07100-034860SY-MT+0007SBJP V0200901N00311090001CN0040001N1+02721+02241101461ADDAA199000091GA1021+006009999GA2071+090009999GF199999061051008001001001KA1240M+03101MA1101191101251MD1999999+0101MW1001REMSYN076AAXX  11004 82798 32596 60906 10272 20224 30125 40146 86500 333 10310 58010;MET052SBJP 110000Z 16003KT 9999 FEW020 BKN300 24/22 Q1012;EQDQ01+000062SCOTCVQ02+000000PRSWM2Q03  00002PRCP99
0162827980999992001011101004-07100-034860FM-15+0007SBJP V0201601N001010900019N0112651N1+02401+02201999999ADDGA1021+006009999GA2071+090009999GF107991999999999999999999MA1101291999999MW1001REMMET052SBJP 110100Z 16002KT 9999 FEW020 BKN300 24/22 Q1013;EQDQ01+000000PRSWM2
0162827980999992001011102004-07100-034860FM-15+0007SBJP V0209999C000010900019N0112651N1+02401+02201999999ADDGA1021+006009999GA2071+090009999GF107991999999999999999999MA1101291999999MW1001REMMET052SBJP 110200Z 00000KT 9999 FEW020 BKN300 24/22 Q1013;EQDQ01+000000PRSWM2
0162827980999992001011103004-07100-034860FM-15+0007SBJP V0209999C000010900019N0112651N1+02401+02201999999ADDGA1021+004509999GA2071+090009999GF107991999999999999999999MA1101191999999MW1001REMMET052SBJP 110300Z 00000KT 9999 SCT015 BKN300 24/22 Q1012;EQDQ01+000000PRSWM2
0182827980999992001011104004-07100-034860FM-15+0007SBJP V0202201N002110045019N0060001N1+02401+02301999999ADDGA1071+004509999GA2081+027009999GF108991999999999999999999MA1101191999999MW1611REMMET056SBJP 110400Z 22004KT 6000 -RA BKN015 OVC090 24/23 Q1012;EQDQ01+000003PRSWM1Q02    003PRSWM1
0162827980999992001011105004-07100-034860FM-15+0007SBJP V0202001N003110045019N0112651N1+02301+02201999999ADDGA1071+004509999GA2081+027009999GF108991999999999999999999MA1101191999999MW1001REMMET052SBJP 110500Z 20006KT 9999 BKN015 OVC090 23/22 Q1012;EQDQ01+000000PRSWM2
0162827980999992001011106004-07100-034860FM-15+0007SBJP V0202001N001010045019N0112651N1+02301+02301999999ADDGA1071+004509999GA2081+027009999GF108991999999999999999999MA1101081999999MW1001REMMET052SBJP 110600Z 20002KT 9999 BKN015 OVC090 23/23 Q1011;EQDQ01+000000PRSWM2
0162827980999992001011107004-07100-034860FM-15+0007SBJP V0202001N002110270019N0112651N1+02301+02301999999ADDGA1021+004509999GA2081+027009999GF108991999999999999999999MA1101081999999MW1001REMMET052SBJP 110700Z 20004KT 9999 SCT015 OVC090 23/23 Q1011;EQDQ01+000000PRSWM2
0162827980999992001011108004-07100-034860FM-15+0007SBJP V0201401N003110270019N0112651N1+02301+02301999999ADDGA1021+004509999GA2081+027009999GF108991999999999999999999MA1101191999999MW1001REMMET052SBJP 110800Z 14006KT 9999 SCT015 OVC090 23/23 Q1012;EQDQ01+000000PRSWM2
0162827980999992001011109004-07100-034860FM-15+0007SBJP V0201601N002110270019N0112651N1+02401+02301999999ADDGA1021+005409999GA2081+027009999GF108991999999999999999999MA1101191999999MW1001REMMET052SBJP 110900Z 16004KT 9999 SCT018 OVC090 24/23 Q1012;EQDQ01+000000PRSWM2
0162827980999992001011110004-07100-034860FM-15+0007SBJP V0201801N002110270019N0112651N1+02401+02301999999ADDGA1021+004509999GA2071+027009999GF107991999999999999999999MA1101291999999MW1001REMMET052SBJP 111000Z 18004KT 9999 SCT015 BKN090 24/23 Q1013;EQDQ01+000000PRSWM2
0162827980999992001011111004-07100-034860FM-15+0007SBJP V0201901N002110045019N0112651N1+02401+02401999999ADDGA1071+004509999GA2071+024009999GF107991999999999999999999MA1101291999999MW1001REMMET052SBJP 111100Z 19004KT 9999 BKN015 BKN080 24/24 Q1013;EQDQ01+000000PRSWM2
0201827980999992001011112004-07100-034860FM-12+0007SBJP V0201401N002110075019N0200001N1+02781+02321101511ADDAA124002091AY161061AY221061GF108991081091008001999999KA1240N+02401MA1999999101301MD1999999+0011MW1031REMSYN088AAXX  11124 82798 21598 81404 10278 20232 30130 40151 70362 889// 333 20240 58001 60024;
0169827980999992001011116004-07100-034860FM-15+0007SBJP V0201201N002610045019N0112651N1+02501+02401999999ADDGA1071+004509999GA2071+024009999GF107991999999999999999999MA1101191999999MW1001REMMET059SBJP 111600Z 12005KT 9999 BKN015 BKN080 25/24 Q1012 RESHRA;EQDQ01+000000PRSWM2
0162827980999992001011117004-07100-034860FM-15+0007SBJP V0201101N004110240019N0112651N1+02601+02401999999ADDGA1021+005109999GA2071+024009999GF107991999999999999999999MA1101191999999MW1001REMMET052SBJP 111700Z 11008KT 9999 SCT017 BKN080 26/24 Q1012;EQDQ01+000000PRSWM2
0182827980999992001011118004-07100-034860FM-12+0007SBJP V0201401N003110075019N0200001N1+02781+02441101321ADDAA106000591AY161061AY221061GF108991081091008001999999MA1999999101111MD1999999-0021MW1021REMSYN082AAXX  11184 82798 21598 81406 10278 20244 30111 40132 70262 889// 333 59002 69941;
0201827980999992001011200004-07100-034860FM-12+0007SBJP V0201401N002610075019N0040001N1+02561+02351101561ADDAA106001091AY161061AY221061GF108991081051008001999999KA1240M+03061MA1999999101351MD1999999+0101MW1021REMSYN088AAXX  12004 82798 21596 81405 10256 20235 30135 40156 70262 885// 333 10306 58010 60011;
0169827980999992001011201004-07100-034860FM-15+0007SBJP V0201101N003110045019N0112651N1+02401+02301999999ADDGA1071+004509999GA2071+027009999GF107991999999999999999999MA1101291999999MW1001REMMET059SBJP 120100Z 11006KT 9999 BKN015 BKN090 24/23 Q1013 RESHRA;EQDQ01+000000PRSWM2
0162827980999992001011202004-07100-034860FM-15+0007SBJP V0201451N002610045019N0112651N1+02301+02301999999ADDGA1071+004509999GA2071+027009999GF107991999999999999999999MA1101291999999MW1001REMMET052SBJP 120200Z 14505KT 9999 BKN015 BKN090 23/23 Q1013;EQDQ01+000000PRSWM2
0162827980999992001011203004-07100-034860FM-15+0007SBJP V0200701N001510045019N0112651N1+02401+02401999999ADDGA1071+004509999GA2071+027009999GF107991999999999999999999MA1101191999999MW1001REMMET052SBJP 120300Z 07003KT 9999 BKN015 BKN090 24/24 Q1012;EQDQ01+000000PRSWM2
0162827980999992001011204004-07100-034860FM-15+0007SBJP V0201101N002610045019N0112651N1+02401+02401999999ADDGA1071+004509999GA2071+024009999GF107991999999999999999999MA1101081999999MW1001REMMET052SBJP 120400Z 11005KT 9999 BKN015 BKN080 24/24 Q1011;EQDQ01+000000PRSWM2
0163827980999992001011205004-07100-034860FM-15+0007SBJP V0201101N003610240019N0112651N1+02401+02401999999ADDGA1021+006009999GA2071+024009999GF107991999999999999999999MW1001REMMET052SBJP 120500Z 11007KT 9999 SCT020 BKN080 24/24 Q1015;EQDQ01+101493APOA  Q02+000000PRSWM2
0161827980999992001011206004-07100-034860FM-15+0007SBJP V02099999999990300019N0112651N1+02301+02201999999ADDGA1021+006009999GA2071+030009999GF107991999999999999999999MA1101081999999MW1001REMMET051SBJP 120600Z 13004T 9999 SCT020 BKN100 23/22 Q1011;EQDQ01+000000PRSWM2
0162827980999992001011207004-07100-034860FM-15+0007SBJP V0201801N001510240019N0112651N1+02401+02301999999ADDGA1021+004509999GA2071+024009999GF107991999999999999999999MA1101081999999MW1001REMMET052SBJP 120700Z 18003KT 9999 SCT015 BKN080 24/23 Q1011;EQDQ01+000000PRSWM2
0162827980999992001011209004-07100-034860FM-15+0007SBJP V0201201N002610045019N0112651N1+02401+02401999999ADDGA1071+004509999GA2071+024009999GF107991999999999999999999MA1101191999999MW1001REMMET052SBJP 120900Z 12005KT 9999 BKN015 BKN080 24/24 Q1012;EQDQ01+000000PRSWM2
0162827980999992001011210004-07100-034860FM-15+0007SBJP V0201601N002110300019N0112651N1+02501+02401999999ADDGA1021+005109999GA2071+030009999GF107991999999999999999999MA1101191999999MW1001REMMET052SBJP 121000Z 16004KT 9999 SCT017 BKN100 25/24 Q1012;EQDQ01+000000PRSWM2
0326827980999992001011212004-07100-034860SY-MT+0007SBJP V0200501N003110051019N0200001N1+02861+02391101531ADDAA124010991AY161061AY221061GA1071+005109999GA2071+090009999GF107991071071008001001001KA1240N+02481MA1101291101321MD1999999+0021MW1021REMSYN088AAXX  12124 82798 21598 70506 10286 20239 30132 40153 70262 87700 333 20248 58002 60114;MET052SBJP 121200Z 11007KT 9999 BKN017 BKN300 27/24 Q1013;EQDQ01+000000PRSWM2Q02    003PRSWM1
0162827980999992001011213004-07100-034860FM-15+0007SBJP V0201001N005110051019N0112651N1+02701+02401999999ADDGA1071+005109999GA2071+090009999GF107991999999999999999999MA1101291999999MW1001REMMET052SBJP 121300Z 10010KT 9999 BKN017 BKN300 27/24 Q1013;EQDQ01+000000PRSWM2
0167827980999992001011218004-07100-034860FM-12+0007SBJP V0200501N003110075019N0200001N1+02801+02291101341ADDAA199000091GF107991071071008001001001MA1999999101131MD1999999+0021REMSYN070AAXX  12184 82798 32598 70506 10280 20229 30113 40134 87700 333 58002;EQDQ01  00002PRCP99
0185827980999992001011220004-07100-034860FM-15+0007SBJP V0201101N004110300019N0112651N1+02601+02301999999ADDGA1021+005109999GA2071+030009999GA3081+090009999GF108991999999999999999999MA1101081999999MW1001REMMET059SBJP 122000Z 11008KT 9999 SCT017 BKN100 OVC300 26/23 Q1011;EQDQ01+000000PRSWM2
0185827980999992001011221004-07100-034860FM-15+0007SBJP V0201201N002610900019N0112651N1+02601+02301999999ADDGA1021+005109999GA2021+030009999GA3081+090009999GF108991999999999999999999MA1101081999999MW1001REMMET059SBJP 122100Z 12005KT 9999 FEW017 SCT100 OVC300 26/23 Q1011;EQDQ01+000000PRSWM2
0162827980999992001011222004-07100-034860FM-15+0007SBJP V0201401N002610048019N0112651N1+02501+02401999999ADDGA1071+004809999GA2071+030009999GF107991999999999999999999MA1101191999999MW1001REMMET052SBJP 122200Z 14005KT 9999 BKN016 BKN100 25/24 Q1012;EQDQ01+000000PRSWM2
0162827980999992001011223004-07100-034860FM-15+0007SBJP V0201201N002610300019N0112651N1+02501+02401999999ADDGA1021+004809999GA2071+030009999GF107991999999999999999999MA1101191999999MW1001REMMET052SBJP 122300Z 12005KT 9999 SCT016 BKN100 25/24 Q1012;EQDQ01+000000PRSWM2
0314827980999992001011300004-07100-034860SY-MT+0007SBJP V0200501N00311030001CN0040001N1+02701+02331101481ADDAA199000091GA1021+004809999GA2071+030009999GF199999061021008001001001KA1240M+02981MA1101291101271MD1999999-0081MW1001REMSYN076AAXX  13004 82798 32596 60506 10270 20233 30127 40148 86200 333 10298 59008;MET052SBJP 130000Z 12006KT 9999 SCT016 BKN100 25/23 Q1013;EQDQ01+000062SCOTCVQ02+000000PRSWM2Q03  00002PRCP99
0185827980999992001011301004-07100-034860FM-15+0007SBJP V0201301N002610900019N0112651N1+02501+02301999999ADDGA1021+005109999GA2021+030009999GA3071+090009999GF107991999999999999999999MA1101291999999MW1001REMMET059SBJP 130100Z 13005KT 9999 SCT017 SCT100 BKN300 25/23 Q1013;EQDQ01+000000PRSWM2
0162827980999992001011302004-07100-034860FM-15+0007SBJP V0201201N002112200019N0112651N1+02501+02301999999ADDGA1021+005109999GA2021+030009999GF104991999999999999999999MA1101191999999MW1001REMMET052SBJP 130200Z 12004KT 9999 SCT017 SCT100 25/23 Q1012;EQDQ01+000000PRSWM2
0185827980999992001011303004-07100-034860FM-15+0007SBJP V0201901N001010900019N0112651N1+02401+02301999999ADDGA1021+005109999GA2021+030009999GA3071+090009999GF107991999999999999999999MA1101191999999MW1001REMMET059SBJP 130300Z 19002KT 9999 SCT017 SCT100 BKN300 24/23 Q1012;EQDQ01+000000PRSWM2
0182827980999992001011304004-07100-034860FM-15+0007SBJP V0201701N003112200019N0080001N1+02401+02301999999ADDGA1021+005109999GA2021+027009999GF104991999999999999999999MA1101081999999MW1611REMMET056SBJP 130400Z 17006KT 8000 -RA SCT017 SCT090 24/23 Q1011;EQDQ01+000003PRSWM1Q02    003PRSWM1
0152827980999992001011305004-07100-034860FM-15+0007SBJP V0202001N00151220001CN0112651N1+02401+02301999999ADDGA1071+005109999GA2021+027009999MA1101081999999MW1001REMMET052SBJP 130500Z 20003KT 9999 BKN017 SCT090 24/23 Q1011;EQDQ01+000042SCOTCVQ02+000000PRSWM2
0152827980999992001011306004-07100-034860FM-15+0007SBJP V0202001N00151220001CN0112651N1+02401+02301999999ADDGA1071+005109999GA2021+027009999MA1101081999999MW1001REMMET052SBJP 130600Z 20003KT 9999 BKN017 SCT090 24/23 Q1011;EQDQ01+000042SCOTCVQ02+000000PRSWM2
0139827980999992001011307004-07100-034860FM-15+0007SBJP V0201901N002110051019N0112651N1+02301+02301999999ADDGA1071+005109999GF107991999999999999999999MA1101081999999MW1001REMMET045SBJP 130700Z 19004KT 9999 BKN017 23/23 Q1011;EQDQ01+000000PRSWM2
0139827980999992001011308004-07100-034860FM-15+0007SBJP V0209999C000010051019N0112651N1+02301+02301999999ADDGA1071+005109999GF107991999999999999999999MA1101081999999MW1001REMMET045SBJP 130800Z 00000KT 9999 BKN017 23/23 Q1011;EQDQ01+000000PRSWM2
0172827980999992001011309004-07100-034860FM-15+0007SBJP V0201501N00311220001CN0112651N1+02301+02301999999ADDGA1071+005109999GA2021+030009999MA1101191999999MW1611REMMET056SBJP 130900Z 15006KT 9999 -RA BKN017 SCT100 23/23 Q1012;EQDQ01+000042SCOTCVQ02+000003PRSWM1Q03    003PRSWM1
0152827980999992001011310004-07100-034860FM-15+0007SBJP V0201401N00261220001CN0112651N1+02501+02501999999ADDGA1071+005109999GA2021+030009999MA1101291999999MW1001REMMET052SBJP 131000Z 14005KT 9999 BKN017 SCT100 25/25 Q1013;EQDQ01+000042SCOTCVQ02+000000PRSWM2
0152827980999992001011311004-07100-034860FM-15+0007SBJP V0201701N00261220001CN0112651N1+02501+02401999999ADDGA1071+005109999GA2021+030009999MA1101291999999MW1001REMMET052SBJP 131100Z 17005KT 9999 BKN017 SCT100 25/24 Q1013;EQDQ01+000042SCOTCVQ02+000000PRSWM2
0304827980999992001011312004-07100-034860SY-MT+0007SBJP V0201401N00511000601CN0200001N1+02801+02381101521ADDAA124005191AY161061AY221061GA1071+000609999GF107991071091008001001001KA1240N+02481MA1101291101311MD1999999-0011MW1021REMSYN088AAXX  13124 82798 21598 71410 10280 20238 30131 40152 70262 87900 333 20248 59001 60054;MET046SBJP 131200Z 15013KT 9999 BKN0020 27/23 Q1013;EQDQ01+000000PRSWM2Q02    003PRSWM1
0139827980999992001011313004-07100-034860FM-15+0007SBJP V0201201N006210060019N0112651N1+02801+02201999999ADDGA1071+006009999GF107991999999999999999999MA1101291999999MW1001REMMET045SBJP 131300Z 12012KT 9999 BKN020 28/22 Q1013;EQDQ01+000000PRSWM2
0139827980999992001011314004-07100-034860FM-15+0007SBJP V0201401N007710060019N0112651N1+02901+02301999999ADDGA1071+006009999GF107991999999999999999999MA1101291999999MW1001REMMET045SBJP 131400Z 14015KT 9999 BKN020 29/23 Q1013;EQDQ01+000000PRSWM2
0139827980999992001011315004-07100-034860FM-15+0007SBJP V0201201N008710060019N0112651N1+02901+02301999999ADDGA1071+006009999GF107991999999999999999999MA1101291999999MW1001REMMET045SBJP 131500Z 12017KT 9999 BKN020 29/23 Q1013;EQDQ01+000000PRSWM2
0139827980999992001011316004-07100-034860FM-15+0007SBJP V0201401N008212200019N0112651N1+02901+02201999999ADDGA1021+006009999GF104991999999999999999999MA1101191999999MW1001REMMET045SBJP 131600Z 14016KT 9999 SCT020 29/22 Q1012;EQDQ01+000000PRSWM2
0139827980999992001011317004-07100-034860FM-15+0007SBJP V0201401N008712200019N0112651N1+02901+02201999999ADDGA1021+006009999GF104991999999999999999999MA1101081999999MW1001REMMET045SBJP 131700Z 14017KT 9999 SCT020 29/22 Q1011;EQDQ01+000000PRSWM2
0279827980999992001011318004-07100-034860SY-MT+0007SBJP V0201401N00511006001CN0200001N1+02921+02501101351ADDAA199000021GA1071+006009999GA2021+090009999GF199999061091008001001001MA1101081101141MD1999999+0011MW1001REMSYN070AAXX  13184 82798 32598 61410 10292 20250 30114 40135 86900 333 58001;MET052SBJP 131800Z 15016KT 9999 BKN020 SCT300 29/22 Q1011;EQDQ01+000062SCOTCVQ02+000000PRSWM2
0162827980999992001011319004-07100-034860FM-15+0007SBJP V0201401N009310900019N0112651N1+02801+02201999999ADDGA1021+006009999GA2071+090009999GF107991999999999999999999MA1101081999999MW1001REMMET052SBJP 131900Z 14018KT 9999 SCT020 BKN300 28/22 Q1011;EQDQ01+000000PRSWM2
0162827980999992001011320004-07100-034860FM-15+0007SBJP V0201501N008210900019N0112651N1+02801+02201999999ADDGA1021+006009999GA2071+090009999GF107991999999999999999999MA1101081999999MW1001REMMET052SBJP 132000Z 15016KT 9999 SCT020 BKN300 28/22 Q1011;EQDQ01+000000PRSWM2
0162827980999992001011321004-07100-034860FM-15+0007SBJP V0201501N005712200019N0112651N1+02601+02201999999ADDGA1021+006009999GA2021+090009999GF104991999999999999999999MA1101191999999MW1001REMMET052SBJP 132100Z 15011KT 9999 FEW020 SCT300 26/22 Q1012;EQDQ01+000000PRSWM2
0162827980999992001011322004-07100-034860FM-15+0007SBJP V0201501N003112200019N0112651N1+02501+02201999999ADDGA1021+006009999GA2021+090009999GF104991999999999999999999MA1101291999999MW1001REMMET052SBJP 132200Z 15006KT 9999 FEW020 SCT300 25/22 Q1013;EQDQ01+000000PRSWM2
0139827980999992001011323004-07100-034860FM-15+0007SBJP V0201501N002112200019N0112651N1+02401+02201999999ADDGA1021+006009999GF102991999999999999999999MA1101291999999MW1001REMMET045SBJP 132300Z 15004KT 9999 FEW020 24/22 Q1013;EQDQ01+000000PRSWM2
0275827980999992001011400004-07100-034860SY-MT+0007SBJP V0201401N002110075019N0040001N1+02701+02281101511ADDAA199000091GA1021+006009999GF106991061091008001001001KA1240M+03001MA1101391101301MD1999999+0031MW1001REMSYN076AAXX  14004 82798 32596 61404 10270 20228 30130 40151 86900 333 10300 58003;MET045SBJP 140000Z 17004KT 9999 FEW020 24/22 Q1014;EQDQ01+000000PRSWM2Q02  00002PRCP99
0139827980999992001011401004-07100-034860FM-15+0007SBJP V0201801N002112200019N0112651N1+02401+02201999999ADDGA1021+006009999GF104991999999999999999999MA1101391999999MW1001REMMET045SBJP 140100Z 18004KT 9999 SCT020 24/22 Q1014;EQDQ01+000000PRSWM2
0139827980999992001011402004-07100-034860FM-15+0007SBJP V0202001N002112200019N0112651N1+02401+02301999999ADDGA1021+006009999GF104991999999999999999999MA1101391999999MW1001REMMET045SBJP 140200Z 20004KT 9999 SCT020 24/23 Q1014;EQDQ01+000000PRSWM2
0139827980999992001011403004-07100-034860FM-15+0007SBJP V0202201N002112200019N0112651N1+02301+02201999999ADDGA1021+006009999GF104991999999999999999999MA1101291999999MW1001REMMET045SBJP 140300Z 22004KT 9999 SCT020 23/22 Q1013;EQDQ01+000000PRSWM2
0139827980999992001011404004-07100-034860FM-15+0007SBJP V0202101N002612200019N0112651N1+02301+02201999999ADDGA1021+005109999GF104991999999999999999999MA1101191999999MW1001REMMET045SBJP 140400Z 21005KT 9999 SCT017 23/22 Q1012;EQDQ01+000000PRSWM2
0139827980999992001011406004-07100-034860FM-15+0007SBJP V0201901N001512200019N0112651N1+02201+02201999999ADDGA1021+005109999GF104991999999999999999999MA1101081999999MW1001REMMET045SBJP 140600Z 19003KT 9999 SCT017 22/22 Q1011;EQDQ01+000000PRSWM2
0084827980999992001011407004-07100-034860FM-15+0007SBJP V02099999999992200019N0030001N1+99999+99999999999ADDMW1001REMMET047SBJP 140700Z 1190003KT 9999 SCT017 22/22 Q1011;EQDQ01+000000PRSWM2
0139827980999992001011408004-07100-034860FM-15+0007SBJP V0201901N002112200019N0112651N1+02201+02201999999ADDGA1021+005109999GF104991999999999999999999MA1101081999999MW1001REMMET045SBJP 140800Z 19004KT 9999 SCT017 22/22 Q1011;EQDQ01+000000PRSWM2
0183827980999992001011409004-07100-034860FM-15+0007SBJP V0202101N002110051019N0080001N1+02301+02201999999ADDGA1021+004509999GA2071+005109999GF107991999999999999999999MA1101291999999MW1161REMMET057SBJP 140900Z 21004KT 8000 VCSH SCT015 BKN017 23/22 Q1013;EQDQ01+000003PRSWM1Q02    003PRSWM1
0152827980999992001011410004-07100-034860FM-15+0007SBJP V0201801N00261220001CN0112651N1+02401+02301999999ADDGA1071+006009999GA2021+090009999MA1101291999999MW1001REMMET052SBJP 141000Z 18005KT 9999 BKN020 SCT300 24/23 Q1013;EQDQ01+000042SCOTCVQ02+000000PRSWM2
0139827980999992001011411004-07100-034860FM-15+0007SBJP V0201401N004610060019N0112651N1+02601+02401999999ADDGA1071+006009999GF107991999999999999999999MA1101291999999MW1001REMMET045SBJP 141100Z 14009KT 9999 BKN020 26/24 Q1013;EQDQ01+000000PRSWM2
0314827980999992001011412004-07100-034860SY-MT+0007SBJP V0200901N00361006001CN0040001N1+02861+02281101531ADDAA199000091GA1071+006009999GA2021+090009999GF199999061071008001001001KA1240N+02421MA1101291101321MD1999999+0011MW1001REMSYN076AAXX  14124 82798 32596 60907 10286 20228 30132 40153 86700 333 20242 58001;MET052SBJP 141200Z 14012KT 9999 BKN020 SCT300 27/23 Q1013;EQDQ01+000062SCOTCVQ02+000000PRSWM2Q03  00002PRCP99
0162827980999992001011413004-07100-034860FM-15+0007SBJP V0201301N007210060019N0112651N1+02901+02301999999ADDGA1071+006009999GA2071+090009999GF107991999999999999999999MA1101291999999MW1001REMMET052SBJP 141300Z 13014KT 9999 BKN020 BKN300 29/23 Q1013;EQDQ01+000000PRSWM2
0162827980999992001011414004-07100-034860FM-15+0007SBJP V0201301N007210060019N0112651N1+02901+02201999999ADDGA1071+006009999GA2071+090009999GF107991999999999999999999MA1101291999999MW1001REMMET052SBJP 141400Z 13014KT 9999 BKN020 BKN300 29/22 Q1013;EQDQ01+000000PRSWM2
0162827980999992001011415004-07100-034860FM-15+0007SBJP V0201301N007210060019N0112651N1+02901+02201999999ADDGA1071+006009999GA2071+090009999GF107991999999999999999999MA1101291999999MW1001REMMET052SBJP 141500Z 13014KT 9999 BKN020 BKN300 29/22 Q1013;EQDQ01+000000PRSWM2
0162827980999992001011416004-07100-034860FM-15+0007SBJP V0201401N007710060019N0112651N1+02901+02201999999ADDGA1071+006009999GA2071+090009999GF107991999999999999999999MA1101191999999MW1001REMMET052SBJP 141600Z 14015KT 9999 BKN020 BKN300 29/22 Q1012;EQDQ01+000000PRSWM2
0162827980999992001011417004-07100-034860FM-15+0007SBJP V0201501N008210060019N0112651N1+02901+02301999999ADDGA1071+006009999GA2071+090009999GF107991999999999999999999MA1101081999999MW1001REMMET052SBJP 141700Z 15016KT 9999 BKN020 BKN300 29/23 Q1011;EQDQ01+000000PRSWM2
0295827980999992001011418004-07100-034860SY-MT+0007SBJP V0200901N00511006001CN0200001N1+02901+02271101391ADDAA199000091GA1071+006009999GA2071+090009999GF199999061071008001001001MA1101081101181MD1999999+0041MW1001REMSYN070AAXX  14184 82798 32598 60910 10290 20227 30118 40139 86700 333 58004;MET052SBJP 141800Z 13014KT 9999 BKN020 BKN300 29/23 Q1011;EQDQ01+000062SCOTCVQ02+000000PRSWM2Q03  00002PRCP99
0162827980999992001011419004-07100-034860FM-15+0007SBJP V0201501N008210900019N0112651N1+02801+02301999999ADDGA1021+006009999GA2071+090009999GF107991999999999999999999MA1101081999999MW1001REMMET052SBJP 141900Z 15016KT 9999 SCT020 BKN300 28/23 Q1011;EQDQ01+000000PRSWM2
0162827980999992001011420004-07100-034860FM-15+0007SBJP V0201401N007210900019N0112651N1+02601+02301999999ADDGA1021+006009999GA2071+090009999GF107991999999999999999999MA1101081999999MW1001REMMET052SBJP 142000Z 14014KT 9999 SCT020 BKN300 26/23 Q1011;EQDQ01+000000PRSWM2
0162827980999992001011421004-07100-034860FM-15+0007SBJP V0201401N005110900019N0112651N1+02601+02301999999ADDGA1021+006009999GA2071+090009999GF107991999999999999999999MA1101191999999MW1001REMMET052SBJP 142100Z 14010KT 9999 SCT020 BKN300 26/23 Q1012;EQDQ01+000000PRSWM2
0139827980999992001011422004-07100-034860FM-15+0007SBJP V0201501N003612200019N0112651N1+02501+02201999999ADDGA1021+006009999GF104991999999999999999999MA1101191999999MW1001REMMET045SBJP 142200Z 15007KT 9999 SCT020 25/22 Q1012;EQDQ01+000000PRSWM2
0139827980999992001011423004-07100-034860FM-15+0007SBJP V0201501N003612200019N0112651N1+02501+02201999999ADDGA1021+006009999GF104991999999999999999999MA1101291999999MW1001REMMET045SBJP 142300Z 15007KT 9999 SCT020 25/22 Q1013;EQDQ01+000000PRSWM2
0275827980999992001011500004-07100-034860SY-MT+0007SBJP V0200501N003610075019N0040001N1+02701+02241101501ADDAA199000091GA1021+006009999GF106991061071008001001001KA1240M+03001MA1101291101291MD1999999-0011MW1001REMSYN076AAXX  15004 82798 32596 60507 10270 20224 30129 40150 86700 333 10300 59001;MET045SBJP 150000Z 18003KT 9999 SCT020 24/22 Q1013;EQDQ01+000000PRSWM2Q02  00002PRCP99
0139827980999992001011501004-07100-034860FM-15+0007SBJP V0201501N002112200019N0112651N1+02401+02201999999ADDGA1021+006009999GF104991999999999999999999MA1101291999999MW1001REMMET045SBJP 150100Z 15004KT 9999 SCT020 24/22 Q1013;EQDQ01+000000PRSWM2
0139827980999992001011502004-07100-034860FM-15+0007SBJP V0201501N002112200019N0112651N1+02401+02201999999ADDGA1021+006009999GF104991999999999999999999MA1101291999999MW1001REMMET045SBJP 150200Z 15004KT 9999 SCT020 24/22 Q1013;EQDQ01+000000PRSWM2
0139827980999992001011503004-07100-034860FM-15+0007SBJP V0201601N001512200019N0112651N1+02401+02201999999ADDGA1021+004509999GF102991999999999999999999MA1101191999999MW1001REMMET045SBJP 150300Z 16003KT 9999 FEW015 24/22 Q1012;EQDQ01+000000PRSWM2
0139827980999992001011504004-07100-034860FM-15+0007SBJP V0201601N002612200019N0112651N1+02401+02301999999ADDGA1021+004809999GF104991999999999999999999MA1101191999999MW1001REMMET045SBJP 150400Z 16005KT 9999 SCT016 24/23 Q1012;EQDQ01+000000PRSWM2
0139827980999992001011505004-07100-034860FM-15+0007SBJP V0202101N002112200019N0112651N1+02301+02201999999ADDGA1021+004809999GF102991999999999999999999MA1101081999999MW1001REMMET045SBJP 150500Z 21004KT 9999 FEW016 23/22 Q1011;EQDQ01+000000PRSWM2
0139827980999992001011506004-07100-034860FM-15+0007SBJP V0202101N002112200019N0112651N1+02201+02201999999ADDGA1021+004809999GF104991999999999999999999MA1101081999999MW1001REMMET045SBJP 150600Z 21004KT 9999 SCT016 22/22 Q1011;EQDQ01+000000PRSWM2
0139827980999992001011507004-07100-034860FM-15+0007SBJP V0201801N002112200019N0112651N1+02301+02201999999ADDGA1021+005109999GF104991999999999999999999MA1101081999999MW1001REMMET045SBJP 150700Z 18004KT 9999 SCT017 23/22 Q1011;EQDQ01+000000PRSWM2
0139827980999992001011508004-07100-034860FM-15+0007SBJP V0202001N002612200019N0112651N1+02201+02201999999ADDGA1021+005109999GF104991999999999999999999MA1101081999999MW1001REMMET045SBJP 150800Z 20005KT 9999 SCT017 22/22 Q1011;EQDQ01+000000PRSWM2
0165827980999992001011509004-07100-034860FM-15+0007SBJP V0202301N001512200019N0112651N1+02301+02201999999ADDGA1021+005109999GA2021+006009029GF102991999999999999999999MA1101191999999MW1001REMMET055SBJP 150900Z 23003KT 9999 SCT017 FEW020TCU 23/22 Q1012;EQDQ01+000000PRSWM2
0139827980999992001011510004-07100-034860FM-15+0007SBJP V0201801N002112200019N0112651N1+02901+02301999999ADDGA1021+006009999GF104991999999999999999999MA1101191999999MW1001REMMET045SBJP 151000Z 18004KT 9999 SCT020 29/23 Q1012;EQDQ01+000000PRSWM2
0139827980999992001011511004-07100-034860FM-15+0007SBJP V0201201N005110060019N0112651N1+02701+02201999999ADDGA1071+006009999GF107991999999999999999999MA1101191999999MW1001REMMET045SBJP 151100Z 12010KT 9999 BKN020 27/22 Q1012;EQDQ01+000000PRSWM2
0275827980999992001011512004-07100-034860SY-MT+0007SBJP V0200901N00511006001CN0200001N1+02841+02221101501ADDAA199000091GA1071+006009999GF107991071091008001001001KA1240N+02541MA1101291101291MD1999999-0031MW1001REMSYN076AAXX  15124 82798 32598 70910 10284 20222 30129 40150 87900 333 20254 59003;MET045SBJP 151200Z 13010KT 9999 BKN020 28/23 Q1013;EQDQ01+000000PRSWM2Q02  00002PRCP99
0139827980999992001011513004-07100-034860FM-15+0007SBJP V0201301N007210060019N0112651N1+02801+02201999999ADDGA1071+006009999GF107991999999999999999999MA1101291999999MW1001REMMET045SBJP 151300Z 13014KT 9999 BKN020 28/22 Q1013;EQDQ01+000000PRSWM2
0139827980999992001011514004-07100-034860FM-15+0007SBJP V0201201N006210060019N0112651N1+02901+02301999999ADDGA1071+006009999GF107991999999999999999999MA1101191999999MW1001REMMET045SBJP 151400Z 12012KT 9999 BKN020 29/23 Q1012;EQDQ01+000000PRSWM2
0139827980999992001011515004-07100-034860FM-15+0007SBJP V0201201N007210060019N0112651N1+02901+02301999999ADDGA1071+006009999GF107991999999999999999999MA1101191999999MW1001REMMET045SBJP 151500Z 12014KT 9999 BKN020 29/23 Q1012;EQDQ01+000000PRSWM2
0139827980999992001011516004-07100-034860FM-15+0007SBJP V0201201N006710060019N0112651N1+02901+02201999999ADDGA1071+006009999GF107991999999999999999999MA1101081999999MW1001REMMET045SBJP 151600Z 12013KT 9999 BKN020 29/22 Q1011;EQDQ01+000000PRSWM2
0139827980999992001011517004-07100-034860FM-15+0007SBJP V0201301N006710060019N0112651N1+02901+02301999999ADDGA1071+006009999GF107991999999999999999999MA1101081999999MW1001REMMET045SBJP 151700Z 13013KT 9999 BKN020 29/23 Q1011;EQDQ01+000000PRSWM2
0272827980999992001011518004-07100-034860SY-MT+0007SBJP V0200901N00461006001CN0200001N1+02941+02191101361ADDAA199000091GA1071+006009999GF199999061091008001001001MA1101081101151MD1999999-0031MW1001REMSYN070AAXX  15184 82798 32598 60909 10294 20219 30115 40136 86900 333 59003;MET045SBJP 151800Z 13013KT 9999 BKN020 29/23 Q1011;EQDQ01+000062SCOTCVQ02+000000PRSWM2Q03  00002PRCP99
0139827980999992001011519004-07100-034860FM-15+0007SBJP V0201501N008210060019N0112651N1+02801+02201999999ADDGA1071+006009999GF107991999999999999999999MA1101081999999MW1001REMMET045SBJP 151900Z 15016KT 9999 BKN020 28/22 Q1011;EQDQ01+000000PRSWM2
0139827980999992001011520004-07100-034860FM-15+0007SBJP V0201301N007212200019N0112651N1+02701+02201999999ADDGA1021+006009999GF104991999999999999999999MA1101081999999MW1001REMMET045SBJP 152000Z 13014KT 9999 SCT020 27/22 Q1011;EQDQ01+000000PRSWM2
0139827980999992001011521004-07100-034860FM-15+0007SBJP V0201401N005712200019N0112651N1+02601+02301999999ADDGA1021+006009999GF104991999999999999999999MA1101191999999MW1001REMMET045SBJP 152100Z 14011KT 9999 SCT020 26/23 Q1012;EQDQ01+000000PRSWM2
0139827980999992001011522004-07100-034860FM-15+0007SBJP V0201501N003612200019N0112651N1+02501+02201999999ADDGA1021+006009999GF102991999999999999999999MA1101191999999MW1001REMMET045SBJP 152200Z 15007KT 9999 FEW020 25/22 Q1012;EQDQ01+000000PRSWM2
0139827980999992001011523004-07100-034860FM-15+0007SBJP V0201501N002612200019N0112651N1+02401+02301999999ADDGA1021+006009999GF102991999999999999999999MA1101291999999MW1001REMMET045SBJP 152300Z 15005KT 9999 FEW020 24/23 Q1013;EQDQ01+000000PRSWM2
0303827980999992001011600004-07100-034860SY-MT+0007SBJP V0200901N003110075019N0040001N1+02701+02221101511ADDAA106000391AY161061AY221061GA1021+006009999GF106991061091008001001001KA1240M+03041MA1101291101301MD1999999+0011MW1021REMSYN088AAXX  16004 82798 21596 60906 10270 20222 30130 40151 70262 86900 333 10304 58001 69931;MET045SBJP 160000Z 15006KT 9999 FEW020 24/23 Q1013;EQDQ01+000000PRSWM2Q02    003PRSWM1
0139827980999992001011601004-07100-034860FM-15+0007SBJP V0201501N002112200019N0112651N1+02401+02201999999ADDGA1021+006009999GF102991999999999999999999MA1101291999999MW1001REMMET045SBJP 160100Z 15004KT 9999 FEW020 24/22 Q1013;EQDQ01+000000PRSWM2
0139827980999992001011602004-07100-034860FM-15+0007SBJP V0201501N002112200019N0112651N1+02301+02201999999ADDGA1021+006009999GF104991999999999999999999MA1101291999999MW1001REMMET045SBJP 160200Z 15004KT 9999 SCT020 23/22 Q1013;EQDQ01+000000PRSWM2
0139827980999992001011603004-07100-034860FM-15+0007SBJP V0201701N002112200019N0112651N1+02301+02201999999ADDGA1021+006009999GF104991999999999999999999MA1101291999999MW1001REMMET045SBJP 160300Z 17004KT 9999 SCT020 23/22 Q1013;EQDQ01+000000PRSWM2
0139827980999992001011604004-07100-034860FM-15+0007SBJP V0202101N002112200019N0112651N1+02301+02201999999ADDGA1021+006009999GF104991999999999999999999MA1101191999999MW1001REMMET045SBJP 160400Z 21004KT 9999 SCT020 23/22 Q1012;EQDQ01+000000PRSWM2
0139827980999992001011605004-07100-034860FM-15+0007SBJP V0202001N002112200019N0112651N1+02201+02201999999ADDGA1021+006009999GF102991999999999999999999MA1101191999999MW1001REMMET045SBJP 160500Z 20004KT 9999 FEW020 22/22 Q1012;EQDQ01+000000PRSWM2
0139827980999992001011606004-07100-034860FM-15+0007SBJP V0202001N002112200019N0112651N1+02201+02201999999ADDGA1021+006009999GF102991999999999999999999MA1101191999999MW1001REMMET045SBJP 160600Z 20004KT 9999 FEW020 22/22 Q1012;EQDQ01+000000PRSWM2
0139827980999992001011607004-07100-034860FM-15+0007SBJP V0202001N002112200019N0112651N1+02201+02201999999ADDGA1021+006009999GF102991999999999999999999MA1101191999999MW1001REMMET045SBJP 160700Z 20004KT 9999 FEW020 22/22 Q1012;EQDQ01+000000PRSWM2
0139827980999992001011608004-07100-034860FM-15+0007SBJP V0202001N002112200019N0112651N1+02201+02201999999ADDGA1021+006009999GF104991999999999999999999MA1101191999999MW1001REMMET045SBJP 160800Z 20004KT 9999 SCT020 22/22 Q1012;EQDQ01+000000PRSWM2
0139827980999992001011609004-07100-034860FM-15+0007SBJP V0202001N002112200019N0112651N1+02201+02201999999ADDGA1021+006009999GF104991999999999999999999MA1101191999999MW1001REMMET045SBJP 160900Z 20004KT 9999 SCT020 22/22 Q1012;EQDQ01+000000PRSWM2
0139827980999992001011610004-07100-034860FM-15+0007SBJP V0201801N002110060019N0112651N1+02401+02301999999ADDGA1071+006009999GF107991999999999999999999MA1101291999999MW1001REMMET045SBJP 161000Z 18004KT 9999 BKN020 24/23 Q1013;EQDQ01+000000PRSWM2
0139827980999992001011611004-07100-034860FM-15+0007SBJP V0201601N003110060019N0112651N1+02401+02301999999ADDGA1071+006009999GF107991999999999999999999MA1101291999999MW1001REMMET045SBJP 161100Z 16006KT 9999 BKN020 24/23 Q1013;EQDQ01+000000PRSWM2
0319827980999992001011612004-07100-034860SY-MT+0007SBJP V0200901N00511006001CN0200001N1+02821+02221101521ADDAA124000591AY161061AY221061GA1071+006009999GF199999051041008001001001KA1240N+02421MA1101291101311MD1999999+0021MW1021REMSYN088AAXX  16124 82798 21598 50910 10282 20222 30131 40152 70262 85400 333 20242 58002 69944;MET045SBJP 161200Z 16013KT 9999 BKN020 25/22 Q1013;EQDQ01+000052SCOTCVQ02+000000PRSWM2Q03    003PRSWM1
0139827980999992001011613004-07100-034860FM-15+0007SBJP V0201201N007210060019N0112651N1+02801+02301999999ADDGA1071+006009999GF107991999999999999999999MA1101291999999MW1001REMMET045SBJP 161300Z 12014KT 9999 BKN020 28/23 Q1013;EQDQ01+000000PRSWM2
0139827980999992001011614004-07100-034860FM-15+0007SBJP V0201201N007210060019N0112651N1+02901+02201999999ADDGA1071+006009999GF107991999999999999999999MA1101291999999MW1001REMMET045SBJP 161400Z 12014KT 9999 BKN020 29/22 Q1013;EQDQ01+000000PRSWM2
0140827980999992001011615004-07100-034860FM-15+0007SBJP V0201301N006210060019N0112651N1+02901+02201999999ADDGA1071+006009999GF107991999999999999999999MW1001REMMET045SBJP 161500Z 13012KT 9999 BKN020 29/22 Q1018;EQDQ01+101803APOA  Q02+000000PRSWM2
0139827980999992001011616004-07100-034860FM-15+0007SBJP V0201201N006710060019N0112651N1+03001+02101999999ADDGA1071+006009999GF107991999999999999999999MA1101191999999MW1001REMMET045SBJP 161600Z 12013KT 9999 BKN020 30/21 Q1012;EQDQ01+000000PRSWM2
0139827980999992001011617004-07100-034860FM-15+0007SBJP V0201001N005712200019N0112651N1+02901+02001999999ADDGA1021+006009999GF104991999999999999999999MA1101081999999MW1001REMMET045SBJP 161700Z 10011KT 9999 SCT020 29/20 Q1011;EQDQ01+000000PRSWM2
0256827980999992001011618004-07100-034860SY-MT+0007SBJP V0200901N005112200019N0200001N1+02881+02211101401ADDAA199000091GA1021+006009999GF105991051041008001001001MA1101081101191MD1999999+0041MW1001REMSYN070AAXX  16184 82798 32598 50910 10288 20221 30119 40140 85400 333 58004;MET045SBJP 161800Z 14013KT 9999 SCT020 29/22 Q1011;EQDQ01+000000PRSWM2Q02  00002PRCP99
0139827980999992001011620004-07100-034860FM-15+0007SBJP V0201401N005712200019N0112651N1+02701+02101999999ADDGA1021+006009999GF104991999999999999999999MA1101191999999MW1001REMMET045SBJP 162000Z 14011KT 9999 SCT020 27/21 Q1012;EQDQ01+000000PRSWM2
0139827980999992001011621004-07100-034860FM-15+0007SBJP V0201401N004612200019N0112651N1+02601+02101999999ADDGA1021+006009999GF102991999999999999999999MA1101191999999MW1001REMMET045SBJP 162100Z 14009KT 9999 FEW020 26/21 Q1012;EQDQ01+000000PRSWM2
0091827980999992001011622004-07100-034860FM-15+0007SBJP V0201501N00261220001CN0099001N1+02501+02201999999ADDMA1101291999999MW1001REMMET039SBJP 162200Z 15005KT CAVOK 25/22 Q1013;EQDQ01+000000PRSWM2
0091827980999992001011623004-07100-034860FM-15+0007SBJP V0201501N00151220001CN0099001N1+02401+02201999999ADDMA1101291999999MW1001REMMET039SBJP 162300Z 15003KT CAVOK 24/22 Q1013;EQDQ01+000000PRSWM2
0253827980999992001011700004-07100-034860SY-MT+0007SBJP V0200901N004112200019N0040001N1+02681+02091101541ADDAA199000091GF104991041041008001001001KA1240M+03021MA1101291101331MD1999999+0031MW1001REMSYN076AAXX  17004 82798 32596 40908 10268 20209 30133 40154 84400 333 10302 58003;MET039SBJP 170000Z 15003KT CAVOK 23/22 Q1013;EQDQ01+000000PRSWM2Q02  00002PRCP99
0139827980999992001011701004-07100-034860FM-15+0007SBJP V0201701N001512200019N0112651N1+02301+02101999999ADDGA1021+006009999GF102991999999999999999999MA1101291999999MW1001REMMET045SBJP 170100Z 17003KT 9999 FEW020 23/21 Q1013;EQDQ01+000000PRSWM2
0091827980999992001011702004-07100-034860FM-15+0007SBJP V0202001N00151220001CN0099001N1+02301+02101999999ADDMA1101291999999MW1001REMMET039SBJP 170200Z 20003KT CAVOK 23/21 Q1013;EQDQ01+000000PRSWM2
0091827980999992001011703004-07100-034860FM-15+0007SBJP V0201901N00151220001CN0099001N1+02301+02201999999ADDMA1101191999999MW1001REMMET039SBJP 170300Z 19003KT CAVOK 23/22 Q1012;EQDQ01+000000PRSWM2
0091827980999992001011704004-07100-034860FM-15+0007SBJP V0202101N00211220001CN0099001N1+02201+02201999999ADDMA1101191999999MW1001REMMET039SBJP 170400Z 21004KT CAVOK 22/22 Q1012;EQDQ01+000000PRSWM2
0091827980999992001011705004-07100-034860FM-15+0007SBJP V0202001N00211220001CN0099001N1+02201+02101999999ADDMA1101081999999MW1001REMMET039SBJP 170500Z 20004KT CAVOK 22/21 Q1011;EQDQ01+000000PRSWM2
0139827980999992001011706004-07100-034860FM-15+0007SBJP V0202301N002612200019N0112651N1+02201+02101999999ADDGA1021+006009999GF102991999999999999999999MA1101081999999MW1001REMMET045SBJP 170600Z 23005KT 9999 FEW020 22/21 Q1011;EQDQ01+000000PRSWM2
0139827980999992001011707004-07100-034860FM-15+0007SBJP V0209999C000012200019N0112651N1+02201+02101999999ADDGA1021+006009999GF102991999999999999999999MA1101081999999MW1001REMMET045SBJP 170700Z 00000KT 9999 FEW020 22/21 Q1011;EQDQ01+000000PRSWM2
0139827980999992001011708004-07100-034860FM-15+0007SBJP V0202001N001512200019N0112651N1+02201+02101999999ADDGA1021+006009999GF102991999999999999999999MA1101081999999MW1001REMMET045SBJP 170800Z 20003KT 9999 FEW020 22/21 Q1011;EQDQ01+000000PRSWM2
0139827980999992001011709004-07100-034860FM-15+0007SBJP V0202101N002612200019N0112651N1+02201+02201999999ADDGA1021+006009999GF102991999999999999999999MA1101191999999MW1001REMMET045SBJP 170900Z 21005KT 9999 FEW020 22/22 Q1012;EQDQ01+000000PRSWM2
0139827980999992001011710004-07100-034860FM-15+0007SBJP V0201801N002612200019N0112651N1+02401+02301999999ADDGA1021+006009999GF102991999999999999999999MA1101191999999MW1001REMMET045SBJP 171000Z 18005KT 9999 FEW020 24/23 Q1012;EQDQ01+000000PRSWM2
0139827980999992001011711004-07100-034860FM-15+0007SBJP V0201801N003612200019N0112651N1+02601+02201999999ADDGA1021+006009999GF102991999999999999999999MA1101291999999MW1001REMMET045SBJP 171100Z 18007KT 9999 FEW020 26/22 Q1013;EQDQ01+000000PRSWM2
0275827980999992001011712004-07100-034860SY-MT+0007SBJP V0201401N005710075019N0200001N1+02781+02251101511ADDAA199000091GA1021+006009999GF106991061091008001001001KA1240N+02581MA1101291101301MD1999999-0011MW1001REMSYN076AAXX  17124 82798 32598 61411 10278 20225 30130 40151 86900 333 20258 59001;MET045SBJP 171200Z 15014KT 9999 SCT020 28/21 Q1013;EQDQ01+000000PRSWM2Q02  00002PRCP99
0139827980999992001011713004-07100-034860FM-15+0007SBJP V0201401N006212200019N0112651N1+02801+02101999999ADDGA1021+006009999GF104991999999999999999999MA1101191999999MW1001REMMET045SBJP 171300Z 14012KT 9999 SCT020 28/21 Q1012;EQDQ01+000000PRSWM2
0139827980999992001011714004-07100-034860FM-15+0007SBJP V0201401N009312200019N0112651N1+02901+02101999999ADDGA1021+006009999GF104991999999999999999999MA1101191999999MW1001REMMET045SBJP 171400Z 14018KT 9999 SCT020 29/21 Q1012;EQDQ01+000000PRSWM2
0139827980999992001011715004-07100-034860FM-15+0007SBJP V0201401N008212200019N0112651N1+02901+02101999999ADDGA1021+006009999GF104991999999999999999999MA1101191999999MW1001REMMET045SBJP 171500Z 14016KT 9999 SCT020 29/21 Q1012;EQDQ01+000000PRSWM2
0139827980999992001011716004-07100-034860FM-15+0007SBJP V0201101N007710060019N0112651N1+02901+02101999999ADDGA1071+006009999GF107991999999999999999999MA1101081999999MW1001REMMET045SBJP 171600Z 11015KT 9999 BKN020 29/21 Q1011;EQDQ01+000000PRSWM2
0139827980999992001011717004-07100-034860FM-15+0007SBJP V0201101N007712200019N0112651N1+03001+02001999999ADDGA1021+006009999GF104991999999999999999999MA1101081999999MW1001REMMET045SBJP 171700Z 11015KT 9999 SCT020 30/20 Q1011;EQDQ01+000000PRSWM2
0256827980999992001011718004-07100-034860SY-MT+0007SBJP V0201401N004110075019N0200001N1+02941+02141101351ADDAA199000091GA1021+006009999GF105991051091008001001001MA1101081101141MD1999999-0051MW1001REMSYN070AAXX  17184 82798 32598 51408 10294 20214 30114 40135 85900 333 59005;MET045SBJP 171800Z 15015KT 9999 SCT020 29/21 Q1011;EQDQ01+000000PRSWM2Q02  00002PRCP99
0139827980999992001011719004-07100-034860FM-15+0007SBJP V0201201N007712200019N0112651N1+02901+02101999999ADDGA1021+006009999GF104991999999999999999999MA1101081999999MW1001REMMET045SBJP 171900Z 12015KT 9999 SCT020 29/21 Q1011;EQDQ01+000000PRSWM2
0139827980999992001011720004-07100-034860FM-15+0007SBJP V0201301N007712200019N0112651N1+02801+02101999999ADDGA1021+006009999GF104991999999999999999999MA1101081999999MW1001REMMET045SBJP 172000Z 13015KT 9999 SCT020 28/21 Q1011;EQDQ01+000000PRSWM2
0139827980999992001011721004-07100-034860FM-15+0007SBJP V0201501N006212200019N0112651N1+02601+02101999999ADDGA1021+006009999GF104991999999999999999999MA1101191999999MW1001REMMET045SBJP 172100Z 15012KT 9999 SCT020 26/21 Q1012;EQDQ01+000000PRSWM2
0139827980999992001011722004-07100-034860FM-15+0007SBJP V0201501N004112200019N0112651N1+02501+02101999999ADDGA1021+006009999GF102991999999999999999999MA1101191999999MW1001REMMET045SBJP 172200Z 15008KT 9999 FEW020 25/21 Q1012;EQDQ01+000000PRSWM2
0139827980999992001011723004-07100-034860FM-15+0007SBJP V0201301N003112200019N0112651N1+02401+02101999999ADDGA1021+006009999GF102991999999999999999999MA1101291999999MW1001REMMET045SBJP 172300Z 13006KT 9999 FEW020 24/21 Q1013;EQDQ01+000000PRSWM2
0275827980999992001011800004-07100-034860SY-MT+0007SBJP V0200901N002110075019N0040001N1+02681+02161101561ADDAA199000091GA1021+006009999GF105991051041008001001001KA1240M+03031MA1101391101351MD1999999+0021MW1001REMSYN076AAXX  18004 82798 32596 50904 10268 20216 30135 40156 85400 333 10303 58002;MET045SBJP 180000Z 15004KT 9999 FEW020 24/21 Q1014;EQDQ01+000000PRSWM2Q02  00002PRCP99
0091827980999992001011801004-07100-034860FM-15+0007SBJP V0209999C00001220001CN0099001N1+02301+02101999999ADDMA1101391999999MW1001REMMET039SBJP 180100Z 00000KT CAVOK 23/21 Q1014;EQDQ01+000000PRSWM2
0139827980999992001011802004-07100-034860FM-15+0007SBJP V0201801N001512200019N0112651N1+02301+02101999999ADDGA1021+006009999GF102991999999999999999999MA1101391999999MW1001REMMET045SBJP 180200Z 18003KT 9999 FEW020 23/21 Q1014;EQDQ01+000000PRSWM2
0139827980999992001011803004-07100-034860FM-15+0007SBJP V0201901N001512200019N0112651N1+02201+02101999999ADDGA1021+006009999GF102991999999999999999999MA1101291999999MW1001REMMET045SBJP 180300Z 19003KT 9999 FEW020 22/21 Q1013;EQDQ01+000000PRSWM2
0139827980999992001011804004-07100-034860FM-15+0007SBJP V0202201N002112200019N0112651N1+02201+02101999999ADDGA1021+006009999GF102991999999999999999999MA1101191999999MW1001REMMET045SBJP 180400Z 22004KT 9999 FEW020 22/21 Q1012;EQDQ01+000000PRSWM2
0139827980999992001011805004-07100-034860FM-15+0007SBJP V0202201N002612200019N0112651N1+02201+02101999999ADDGA1021+006009999GF102991999999999999999999MA1101191999999MW1001REMMET045SBJP 180500Z 22005KT 9999 FEW020 22/21 Q1012;EQDQ01+000000PRSWM2
0139827980999992001011806004-07100-034860FM-15+0007SBJP V0202101N002612200019N0112651N1+02201+02101999999ADDGA1021+006009999GF102991999999999999999999MA1101081999999MW1001REMMET045SBJP 180600Z 21005KT 9999 FEW020 22/21 Q1011;EQDQ01+000000PRSWM2
0139827980999992001011807004-07100-034860FM-15+0007SBJP V0202001N001512200019N0112651N1+02201+02101999999ADDGA1021+006009999GF102991999999999999999999MA1101081999999MW1001REMMET045SBJP 180700Z 20003KT 9999 FEW020 22/21 Q1011;EQDQ01+000000PRSWM2
0162827980999992001011808004-07100-034860FM-15+0007SBJP V0202001N002612200019N0112651N1+02201+02101999999ADDGA1021+005109999GA2021+090009999GF104991999999999999999999MA1101081999999MW1001REMMET052SBJP 180800Z 20005KT 9999 SCT017 SCT300 22/21 Q1011;EQDQ01+000000PRSWM2
0162827980999992001011809004-07100-034860FM-15+0007SBJP V0202001N001512200019N0112651N1+02201+02101999999ADDGA1021+005109999GA2021+090009999GF104991999999999999999999MA1101191999999MW1001REMMET052SBJP 180900Z 20003KT 9999 SCT017 SCT300 22/21 Q1012;EQDQ01+000000PRSWM2
0139827980999992001011810004-07100-034860FM-15+0007SBJP V0201801N002110060019N0112651N1+02401+02301999999ADDGA1071+006009999GF107991999999999999999999MA1101291999999MW1001REMMET045SBJP 181000Z 18004KT 9999 BKN020 24/23 Q1013;EQDQ01+000000PRSWM2
0139827980999992001011811004-07100-034860FM-15+0007SBJP V0201101N005110060019N0112651N1+02701+02201999999ADDGA1071+006009999GF107991999999999999999999MA1101291999999MW1001REMMET045SBJP 181100Z 11010KT 9999 BKN020 27/22 Q1013;EQDQ01+000000PRSWM2
0319827980999992001011812004-07100-034860SY-MT+0007SBJP V0200501N00411006001CN0200001N1+02881+02251101541ADDAA124003091AY161061AY221061GA1071+006009999GF199999061041008001001001KA1240N+02341MA1101291101331MD1999999+0031MW1021REMSYN088AAXX  18124 82798 21598 60508 10288 20225 30133 40154 70262 86400 333 20234 58003 60034;MET045SBJP 181200Z 13014KT 9999 BKN020 29/21 Q1013;EQDQ01+000062SCOTCVQ02+000000PRSWM2Q03    003PRSWM1
0139827980999992001011813004-07100-034860FM-15+0007SBJP V0201301N006710060019N0112651N1+02901+02101999999ADDGA1071+006009999GF107991999999999999999999MA1101291999999MW1001REMMET045SBJP 181300Z 13013KT 9999 BKN020 29/21 Q1013;EQDQ01+000000PRSWM2
0139827980999992001011814004-07100-034860FM-15+0007SBJP V0201301N007710060019N0112651N1+02901+02101999999ADDGA1071+006009999GF107991999999999999999999MA1101291999999MW1001REMMET045SBJP 181400Z 13015KT 9999 BKN020 29/21 Q1013;EQDQ01+000000PRSWM2
0139827980999992001011815004-07100-034860FM-15+0007SBJP V0201201N006210060019N0112651N1+03001+02201999999ADDGA1071+006009999GF107991999999999999999999MA1101191999999MW1001REMMET045SBJP 181500Z 12012KT 9999 BKN020 30/22 Q1012;EQDQ01+000000PRSWM2
0162827980999992001011816004-07100-034860FM-15+0007SBJP V0201101N00571220001CN0112651N1+02901+02101999999ADDGA1021+006009999GA2071+006009999GF107991999999999999999999MA1101191999999MW1001REMMET052SBJP 181600Z 11011KT 9999 SCT020 BKN020 29/21 Q1012;EQDQ01+000000PRSWM2
0162827980999992001011817004-07100-034860FM-15+0007SBJP V0201301N005710900019N0112651N1+02901+02101999999ADDGA1021+006009999GA2071+090009999GF107991999999999999999999MA1101081999999MW1001REMMET052SBJP 181700Z 13011KT 9999 SCT020 BKN300 29/21 Q1011;EQDQ01+000000PRSWM2
0279827980999992001011818004-07100-034860SY-MT+0007SBJP V0200501N00311090001CN0200001N1+02901+02201101401ADDAA199000091GA1021+006009999GA2071+090009999GF107991071041008001001001MA1101081101191MD1999999+0051MW1001REMSYN070AAXX  18184 82798 32598 70506 10290 20220 30119 40140 87400 333 58005;MET052SBJP 181800Z 12011KT 9999 FEW020 BKN300 29/21 Q1011;EQDQ01+000000PRSWM2Q02  00002PRCP99
0162827980999992001011819004-07100-034860FM-15+0007SBJP V0201201N005110900019N0112651N1+02801+02101999999ADDGA1021+006009999GA2071+090009999GF107991999999999999999999MA1101081999999MW1001REMMET052SBJP 181900Z 12010KT 9999 FEW020 BKN300 28/21 Q1011;EQDQ01+000000PRSWM2
0162827980999992001011820004-07100-034860FM-15+0007SBJP V0201301N004110900019N0112651N1+02701+02201999999ADDGA1021+006009999GA2071+090009999GF107991999999999999999999MA1101191999999MW1001REMMET052SBJP 182000Z 13008KT 9999 FEW020 BKN300 27/22 Q1012;EQDQ01+000000PRSWM2
0162827980999992001011821004-07100-034860FM-15+0007SBJP V0201201N003610900019N0112651N1+02601+02201999999ADDGA1021+006009999GA2071+090009999GF107991999999999999999999MA1101191999999MW1001REMMET052SBJP 182100Z 12007KT 9999 SCT020 BKN300 26/22 Q1012;EQDQ01+000000PRSWM2
0162827980999992001011822004-07100-034860FM-15+0007SBJP V0201401N002110900019N0112651N1+02501+02201999999ADDGA1021+006009999GA2071+090009999GF107991999999999999999999MA1101291999999MW1001REMMET052SBJP 182200Z 14004KT 9999 SCT020 BKN300 25/22 Q1013;EQDQ01+000000PRSWM2
0162827980999992001011823004-07100-034860FM-15+0007SBJP V0201301N002112200019N0112651N1+02401+02201999999ADDGA1021+006009999GA2021+090009999GF104991999999999999999999MA1101391999999MW1001REMMET052SBJP 182300Z 13004KT 9999 SCT020 SCT300 24/22 Q1014;EQDQ01+000000PRSWM2
