0196829860999992001010100004-09390-038210FM-12+0252SBUF V0201401N005112200019N0020001N1+02851+02141101101ADDAA199000091GA1001+999999999GF100991001001999999001001KA1240M+03371MA1999999098271MD1999999+0001REMSYN070AAXX  01004 82986 32995 01410 10285 20214 39827 40110 333 10337 58000;EQDQ01  00002PRCP99
0139829860999992001010109004-09390-038210FM-15+0252SBUF V0201301N002612200019N0112651N1+02301+01901999999ADDGA1021+006009999GF102991999999999999999999MA1101391999999MW1001REMMET045SBUF 010900Z 13005KT 9999 FEW020 23/19 Q1014;EQDQ01+000000PRSWM2
0091829860999992001010110004-09390-038210FM-15+0252SBUF V0201301N00261220001CN0099001N1+02401+01801999999ADDMA1101491999999MW1001REMMET039SBUF 011000Z 13005KT CAVOK 24/18 Q1015;EQDQ01+000000PRSWM2
0091829860999992001010111004-09390-038210FM-15+0252SBUF V0200201N00261220001CN0099001N1+02601+01801999999ADDMA1101491999999MW1001REMMET039SBUF 011100Z 02005KT CAVOK 26/18 Q1015;EQDQ01+000000PRSWM2
0269829860999992001010112004-09390-038210SY-MT+0252SBUF V0203201N00101220001CN0200001N1+02631+01881101341ADDAA199000091GF104991001001999999001051KA1240N+02201MA1101491098501MD1999999-0031MW1001REMSYN076AAXX  01124 82986 32998 43202 10263 20188 39850 40134 84005 333 20220 59003;MET039SBUF 011200Z 19006KT CAVOK 28/18 Q1015;EQDQ01+000000PRSWM2Q02+000042SCOTLCQ03  00002PRCP99
0091829860999992001010113004-09390-038210FM-15+0252SBUF V0201601N00151220001CN0099001N1+02901+01701999999ADDMA1101391999999MW1001REMMET039SBUF 011300Z 16003KT CAVOK 29/17 Q1014;EQDQ01+000000PRSWM2
0091829860999992001010114004-09390-038210FM-15+0252SBUF V0202201N00261220001CN0099001N1+03101+01601999999ADDMA1101291999999MW1001REMMET039SBUF 011400Z 22005KT CAVOK 31/16 Q1013;EQDQ01+000000PRSWM2
0162829860999992001010115004-09390-038210FM-15+0252SBUF V0202101N004112200019N0112651N1+03201+01601999999ADDGA1021+006009999GA2021+024009999GF102991999999999999999999MA1101291999999MW1001REMMET052SBUF 011500Z 21008KT 9999 FEW020 FEW080 32/16 Q1013;EQDQ01+000000PRSWM2
0162829860999992001010116004-09390-038210FM-15+0252SBUF V0202101N003112200019N0112651N1+03301+01501999999ADDGA1021+009009999GA2021+090009999GF104991999999999999999999MA1101191999999MW1001REMMET052SBUF 011600Z 21006KT 9999 FEW030 SCT300 33/15 Q1012;EQDQ01+000000PRSWM2
0139829860999992001010117004-09390-038210FM-15+0252SBUF V0202101N004112200019N0112651N1+03401+01401999999ADDGA1021+009009999GF102991999999999999999999MA1101081999999MW1001REMMET045SBUF 011700Z 21008KT 9999 FEW030 34/14 Q1011;EQDQ01+000000PRSWM2
0256829860999992001010118004-09390-038210SY-MT+0252SBUF V0201401N002612200019N0200001N1+03351+01241100961ADDAA199000091GA1021+009009999GF102991011011012501001041MA1101021098141MD1999999-0011MW1001REMSYN070AAXX  01184 82986 32698 21405 10335 20124 39814 40096 81104 333 59001;MET045SBUF 011800Z 15006KT 9999 FEW030 35/15 Q1010;EQDQ01+000000PRSWM2Q02  00002PRCP99
0091829860999992001010119004-09390-038210FM-15+0252SBUF V0201201N00511220001CN0099001N1+03501+01501999999ADDMA1101021999999MW1001REMMET039SBUF 011900Z 12010KT CAVOK 35/15 Q1010;EQDQ01+000000PRSWM2
0091829860999992001010120004-09390-038210FM-15+0252SBUF V0201501N00511220001CN0099001N1+03501+01501999999ADDMA1101021999999MW1001REMMET039SBUF 012000Z 15010KT CAVOK 35/15 Q1010;EQDQ01+000000PRSWM2
0091829860999992001010121004-09390-038210FM-15+0252SBUF V0201201N00411220001CN0099001N1+03401+01401999999ADDMA1101021999999MW1001REMMET039SBUF 012100Z 12008KT CAVOK 34/14 Q1010;EQDQ01+000000PRSWM2
0196829860999992001010200004-09390-038210FM-12+0252SBUF V0201401N006212200019N0020001N1+02791+01911101141ADDAA199000091GA1001+999999999GF100991001001999999001001KA1240M+03431MA1999999098311MD1999999+0041REMSYN070AAXX  02004 82986 32995 01412 10279 20191 39831 40114 333 10343 58004;EQDQ01  00002PRCP99
0139829860999992001010209004-09390-038210FM-15+0252SBUF V0201001N004112200019N0112651N1+02201+02001999999ADDGA1021+005409999GF102991999999999999999999MA1101491999999MW1001REMMET045SBUF 020900Z 10008KT 9999 FEW018 22/20 Q1015;EQDQ01+000000PRSWM2
0139829860999992001010210004-09390-038210FM-15+0252SBUF V0201301N004112200019N0112651N1+02401+02001999999ADDGA1021+006009999GF102991999999999999999999MA1101491999999MW1001REMMET045SBUF 021000Z 13008KT 9999 FEW020 24/20 Q1015;EQDQ01+000000PRSWM2
0275829860999992001010212004-09390-038210SY-MT+0252SBUF V0201801N001012200019N0200001N1+02631+01781101391ADDAA199000091GA1021+006009999GF103991031001012501061001KA1240N+02181MA1101391098551MD1999999+0051MW1001REMSYN076AAXX  02124 82986 32698 31802 10263 20178 39855 40139 83060 333 20218 58005;MET045SBUF 021200Z 13005KT 9999 FEW020 28/18 Q1014;EQDQ01+000000PRSWM2Q02  00002PRCP99
0139829860999992001010213004-09390-038210FM-15+0252SBUF V0201401N003112200019N0112651N1+02801+01801999999ADDGA1021+006009999GF102991999999999999999999MA1101491999999MW1001REMMET045SBUF 021300Z 14006KT 9999 FEW020 28/18 Q1015;EQDQ01+000000PRSWM2
0139829860999992001010214004-09390-038210FM-15+0252SBUF V0201601N004112200019N0112651N1+03101+01701999999ADDGA1021+006009999GF102991999999999999999999MA1101491999999MW1001REMMET045SBUF 021400Z 16008KT 9999 FEW020 31/17 Q1015;EQDQ01+000000PRSWM2
0139829860999992001010215004-09390-038210FM-15+0252SBUF V0201001N006212200019N0112651N1+03201+01701999999ADDGA1021+006009999GF102991999999999999999999MA1101391999999MW1001REMMET045SBUF 021500Z 10012KT 9999 FEW020 32/17 Q1014;EQDQ01+000000PRSWM2
0167829860999992001010218004-09390-038210FM-12+0252SBUF V0201401N003112200019N0200001N1+03261+01601101071ADDAA199000091GF103991031011012501001001MA1999999098241MD1999999+0101REMSYN070AAXX  02184 82986 32698 31406 10326 20160 39824 40107 83100 333 58010;EQDQ01  00002PRCP99
0263829860999992001010300004-09390-038210SY-MT+0252SBUF V0201401N005112200019N0099001N1+02731+01821100981ADDAA199000091GF100991001001999999001001KA1240M+03351MA1101391098451MD1999999+0141MW1001REMSYN070AAXX  03004 82986 32995 01410 10273 20182 39845 40098 333 10335 58014;MET039SBUF 030000Z 12010KT CAVOK 27/22 Q1014;EQDQ01+020002VODIS Q02+000000PRSWM2Q03  00002PRCP99
0091829860999992001010301004-09390-038210FM-15+0252SBUF V0201401N00621220001CN0099001N1+02601+02001999999ADDMA1101491999999MW1001REMMET039SBUF 030100Z 14012KT CAVOK 26/20 Q1015;EQDQ01+000000PRSWM2
0139829860999992001010309004-09390-038210FM-15+0252SBUF V0201901N002612200019N0112651N1+02201+02101999999ADDGA1021+006009999GF102991999999999999999999MA1101391999999MW1001REMMET045SBUF 030900Z 19005KT 9999 FEW020 22/21 Q1014;EQDQ01+000000PRSWM2
0139829860999992001010310004-09390-038210FM-15+0252SBUF V0201301N004110045019N0112651N1+02301+02101999999ADDGA1071+004509999GF107991999999999999999999MA1101491999999MW1001REMMET045SBUF 031000Z 13008KT 9999 BKN015 23/21 Q1015;EQDQ01+000000PRSWM2
0139829860999992001010311004-09390-038210FM-15+0252SBUF V0201301N005112200019N0112651N1+02501+02001999999ADDGA1021+006009999GF104991999999999999999999MA1101491999999MW1001REMMET045SBUF 031100Z 13010KT 9999 SCT020 25/20 Q1015;EQDQ01+000000PRSWM2
0275829860999992001010312004-09390-038210SY-MT+0252SBUF V0201401N004610450019N0100001N1+02621+01961101411ADDAA199000091GA1021+006009999GF105991041021008001041021KA1240N+02181MA1101491098571MD1999999+0021MW1001REMSYN076AAXX  03124 82986 32597 51409 10262 20196 39857 40141 84242 333 20218 58002;MET045SBUF 031200Z 13010KT 9999 SCT020 28/19 Q1015;EQDQ01+000000PRSWM2Q02  00002PRCP99
0139829860999992001010313004-09390-038210FM-15+0252SBUF V0201201N005112200019N0112651N1+02901+01901999999ADDGA1021+006009999GF104991999999999999999999MA1101491999999MW1001REMMET045SBUF 031300Z 12010KT 9999 SCT020 29/19 Q1015;EQDQ01+000000PRSWM2
0139829860999992001010314004-09390-038210FM-15+0252SBUF V0201101N004112200019N0112651N1+03001+01901999999ADDGA1021+006009999GF104991999999999999999999MA1101491999999MW1001REMMET045SBUF 031400Z 11008KT 9999 SCT020 30/19 Q1015;EQDQ01+000000PRSWM2
0139829860999992001010316004-09390-038210FM-15+0252SBUF V0201301N005112200019N0112651N1+03301+01701999999ADDGA1021+009009999GF104991999999999999999999MA1101291999999MW1001REMMET045SBUF 031600Z 13010KT 9999 SCT030 33/17 Q1013;EQDQ01+000000PRSWM2
0139829860999992001010317004-09390-038210FM-15+0252SBUF V0201501N004112200019N0112651N1+03301+01701999999ADDGA1021+009009999GF104991999999999999999999MA1101191999999MW1001REMMET045SBUF 031700Z 15008KT 9999 SCT030 33/17 Q1012;EQDQ01+000000PRSWM2
0256829860999992001010318004-09390-038210SY-MT+0252SBUF V0201401N004610450019N0200001N1+03211+01671101051ADDAA199000091GA1021+009009999GF106991041021004501081011MA1101081098221MD1999999-0021MW1001REMSYN070AAXX  03184 82986 32498 61409 10321 20167 39822 40105 84281 333 59002;MET045SBUF 031800Z 13010KT 9999 SCT030 33/17 Q1011;EQDQ01+000000PRSWM2Q02  00002PRCP99
0139829860999992001010319004-09390-038210FM-15+0252SBUF V0201301N005112200019N0112651N1+03301+01701999999ADDGA1021+009009999GF102991999999999999999999MA1101081999999MW1001REMMET045SBUF 031900Z 13010KT 9999 FEW030 33/17 Q1011;EQDQ01+000000PRSWM2
0162829860999992001010320004-09390-038210FM-15+0252SBUF V0201001N006212200019N0112651N1+03101+01701999999ADDGA1021+006009999GA2021+030009999GF104991999999999999999999MA1101191999999MW1001REMMET052SBUF 032000Z 10012KT 9999 FEW020 SCT100 31/17 Q1012;EQDQ01+000000PRSWM2
0162829860999992001010321004-09390-038210FM-15+0252SBUF V0201301N005110300019N0112651N1+03001+01801999999ADDGA1021+006009999GA2071+030009999GF107991999999999999999999MA1101191999999MW1001REMMET052SBUF 032100Z 13010KT 9999 SCT020 BKN100 30/18 Q1012;EQDQ01+000000PRSWM2
0162829860999992001010322004-09390-038210FM-15+0252SBUF V0201401N005110300019N0112651N1+02901+01901999999ADDGA1021+006009999GA2071+030009999GF107991999999999999999999MA1101191999999MW1001REMMET052SBUF 032200Z 14010KT 9999 SCT020 BKN100 29/19 Q1012;EQDQ01+000000PRSWM2
0162829860999992001010323004-09390-038210FM-15+0252SBUF V0201301N006210300019N0112651N1+02801+01901999999ADDGA1021+006009999GA2071+030009999GF107991999999999999999999MA1101291999999MW1001REMMET052SBUF 032300Z 13012KT 9999 SCT020 BKN100 28/19 Q1013;EQDQ01+000000PRSWM2
0314829860999992001010400004-09390-038210SY-MT+0252SBUF V0201401N00571030001CN0112651N1+02711+02011101251ADDAA199000091GA1021+006009999GA2071+030009999GF107991051021004501081001KA1240M+03291MA1101391098411MD1999999-0041MW1001REMSYN076AAXX  04004 82986 32494 71411 10271 20201 39841 40125 85280 333 10329 59004;MET052SBUF 040000Z 13015KT 9999 SCT020 BKN100 27/21 Q1014;EQDQ01+010002VODIS Q02+000000PRSWM2Q03  00002PRCP99
0139829860999992001010401004-09390-038210FM-15+0252SBUF V0201201N005112200019N0112651N1+02601+02201999999ADDGA1021+006009999GF104991999999999999999999MA1101391999999MW1001REMMET045SBUF 040100Z 12010KT 9999 SCT020 26/22 Q1014;EQDQ01+000000PRSWM2
0162829860999992001010411004-09390-038210FM-15+0252SBUF V0201301N004110045019N0112651N1+02501+02101999999ADDGA1071+004509999GA2071+024009999GF107991999999999999999999MA1101491999999MW1001REMMET052SBUF 041100Z 13008KT 9999 BKN015 BKN080 25/21 Q1015;EQDQ01+000000PRSWM2
0186829860999992001010412004-09390-038210FM-12+0252SBUF V0201401N002110042019N0100001N1+02491+02091101431ADDAA199000091GF108991081051004501999999KA1240N+02241MA1999999098591MD1999999+0021REMSYN076AAXX  04124 82986 32497 81404 10249 20209 39859 40143 885// 333 20224 58002;EQDQ01  00002PRCP99
0162829860999992001010413004-09390-038210FM-15+0252SBUF V0201301N004110045019N0112651N1+02701+02101999999ADDGA1071+004509999GA2071+024009999GF107991999999999999999999MA1101491999999MW1001REMMET052SBUF 041300Z 13008KT 9999 BKN015 BKN080 27/21 Q1015;EQDQ01+000000PRSWM2
0162829860999992001010414004-09390-038210FM-15+0252SBUF V0201101N005110045019N0112651N1+02701+02101999999ADDGA1071+004509999GA2071+024009999GF107991999999999999999999MA1101491999999MW1001REMMET052SBUF 041400Z 11010KT 9999 BKN015 BKN080 27/21 Q1015;EQDQ01+000000PRSWM2
0162829860999992001010415004-09390-038210FM-15+0252SBUF V0201301N005110240019N0112651N1+02701+02101999999ADDGA1021+004509999GA2071+024009999GF107991999999999999999999MA1101391999999MW1001REMMET052SBUF 041500Z 13010KT 9999 SCT015 BKN080 27/21 Q1014;EQDQ01+000000PRSWM2
0162829860999992001010416004-09390-038210FM-15+0252SBUF V0200901N004110060019N0112651N1+02801+02101999999ADDGA1071+006009999GA2071+024009999GF107991999999999999999999MA1101291999999MW1001REMMET052SBUF 041600Z 09008KT 9999 BKN020 BKN080 28/21 Q1013;EQDQ01+000000PRSWM2
0162829860999992001010417004-09390-038210FM-15+0252SBUF V0201001N005110060019N0112651N1+02901+02101999999ADDGA1071+006009999GA2071+024009999GF107991999999999999999999MA1101191999999MW1001REMMET052SBUF 041700Z 10010KT 9999 BKN020 BKN080 29/21 Q1012;EQDQ01+000000PRSWM2
0279829860999992001010418004-09390-038210SY-MT+0252SBUF V0201401N003110060019N0100001N1+02851+02141101111ADDAA199000091GA1071+006009999GA2071+024009999GF107991041021004501081001MA1101081098261MD1999999+0041MW1001REMSYN070AAXX  04184 82986 32497 71406 10285 20214 39826 40111 84280 333 58004;MET052SBUF 041800Z 15010KT 9999 BKN020 BKN080 29/21 Q1011;EQDQ01+000000PRSWM2Q02  00002PRCP99
0162829860999992001010420004-09390-038210FM-15+0252SBUF V0201101N005110060019N0112651N1+02901+02101999999ADDGA1071+006009999GA2071+024009999GF107991999999999999999999MA1101191999999MW1001REMMET052SBUF 042000Z 11010KT 9999 BKN020 BKN080 29/21 Q1012;EQDQ01+000000PRSWM2
0162829860999992001010421004-09390-038210FM-15+0252SBUF V0201201N005110240019N0112651N1+02801+02101999999ADDGA1021+006009999GA2071+024009999GF107991999999999999999999MA1101191999999MW1001REMMET052SBUF 042100Z 12010KT 9999 SCT020 BKN080 28/21 Q1012;EQDQ01+000000PRSWM2
0162829860999992001010422004-09390-038210FM-15+0252SBUF V0201301N006710240019N0112651N1+02701+02101999999ADDGA1021+006009999GA2071+024009999GF107991999999999999999999MA1101291999999MW1001REMMET052SBUF 042200Z 13013KT 9999 SCT020 BKN080 27/21 Q1013;EQDQ01+000000PRSWM2
0162829860999992001010423004-09390-038210FM-15+0252SBUF V0201501N005110240019N0112651N1+02601+02101999999ADDGA1021+006009999GA2071+024009999GF107991999999999999999999MA1101491999999MW1001REMMET052SBUF 042300Z 15010KT 9999 SCT020 BKN080 26/21 Q1015;EQDQ01+000000PRSWM2
0314829860999992001010500004-09390-038210SY-MT+0252SBUF V0201401N003119999999N0010001N1+02551+01881101461ADDAA199000091GA1021+006009999GA2071+024009999GF104991021011008001081001KA1240M+02941MA1101591098601MD1999999+0191MW1001REMSYN076AAXX  05004 82986 32594 41406 10255 20188 39860 40146 82180 333 10294 58019;MET052SBUF 050000Z 15010KT 9999 SCT020 BKN080 26/21 Q1016;EQDQ01+000000PRSWM2Q02  00002PRCP99Q03 024003SCOCIG
0162829860999992001010509004-09390-038210FM-15+0252SBUF V0201501N003110240019N0112651N1+02301+02001999999ADDGA1021+005409999GA2071+024009999GF107991999999999999999999MA1101591999999MW1001REMMET052SBUF 050900Z 15006KT 9999 FEW018 BKN080 23/20 Q1016;EQDQ01+000000PRSWM2
0162829860999992001010510004-09390-038210FM-15+0252SBUF V0201501N004110240019N0112651N1+02301+02001999999ADDGA1021+005409999GA2071+024009999GF107991999999999999999999MA1101491999999MW1001REMMET052SBUF 051000Z 15008KT 9999 SCT018 BKN080 23/20 Q1015;EQDQ01+000000PRSWM2
0162829860999992001010511004-09390-038210FM-15+0252SBUF V0201501N005112200019N0112651N1+02501+02101999999ADDGA1021+006009999GA2021+024009999GF104991999999999999999999MA1101591999999MW1001REMMET052SBUF 051100Z 15010KT 9999 FEW020 SCT080 25/21 Q1016;EQDQ01+000000PRSWM2
0186829860999992001010512004-09390-038210FM-12+0252SBUF V0200901N003110450019N0100001N1+02501+01961101501ADDAA199000091GF106991041021004501081001KA1240N+02121MA1999999098641MD1999999+0051REMSYN076AAXX  05124 82986 32497 60906 10250 20196 39864 40150 84280 333 20212 58005;EQDQ01  00002PRCP99
0162829860999992001010513004-09390-038210FM-15+0252SBUF V0201501N005112200019N0112651N1+02701+02001999999ADDGA1021+006009999GA2021+024009999GF104991999999999999999999MA1101591999999MW1001REMMET052SBUF 051300Z 15010KT 9999 SCT020 SCT080 27/20 Q1016;EQDQ01+000000PRSWM2
0139829860999992001010514004-09390-038210FM-15+0252SBUF V0201501N007212200019N0112651N1+03001+01901999999ADDGA1021+006009999GF104991999999999999999999MA1101491999999MW1001REMMET045SBUF 051400Z 15014KT 9999 SCT020 30/19 Q1015;EQDQ01+000000PRSWM2
0139829860999992001010515004-09390-038210FM-15+0252SBUF V0201001N005112200019N0112651N1+03101+01901999999ADDGA1021+006009999GF104991999999999999999999MA1101391999999MW1001REMMET045SBUF 051500Z 10010KT 9999 SCT020 31/19 Q1014;EQDQ01+000000PRSWM2
0139829860999992001010516004-09390-038210FM-15+0252SBUF V0201601N005112200019N0112651N1+03301+01801999999ADDGA1021+006009999GF104991999999999999999999MA1101291999999MW1001REMMET045SBUF 051600Z 16010KT 9999 SCT020 33/18 Q1013;EQDQ01+000000PRSWM2
0162829860999992001010517004-09390-038210FM-15+0252SBUF V0200901N005112200019N0112651N1+03301+01801999999ADDGA1021+006009999GA2021+090009999GF104991999999999999999999MA1101191999999MW1001REMMET052SBUF 051700Z 09010KT 9999 SCT020 SCT300 33/18 Q1012;EQDQ01+000000PRSWM2
0279829860999992001010518004-09390-038210SY-MT+0252SBUF V0201401N003110450019N0200001N1+03131+01711101081ADDAA199000091GA1021+006009999GA2021+090009999GF106991031011008001081011MA1101081098241MD1999999-0021MW1001REMSYN070AAXX  05184 82986 32598 61406 10313 20171 39824 40108 83181 333 59002;MET052SBUF 051800Z 16010KT 9999 SCT020 SCT300 34/17 Q1011;EQDQ01+000000PRSWM2Q02  00002PRCP99
0162829860999992001010519004-09390-038210FM-15+0252SBUF V0201201N006210900019N0112651N1+03301+01801999999ADDGA1021+006009999GA2071+090009999GF107991999999999999999999MA1101081999999MW1001REMMET052SBUF 051900Z 12012KT 9999 SCT020 BKN300 33/18 Q1011;EQDQ01+000000PRSWM2
0162829860999992001010520004-09390-038210FM-15+0252SBUF V0201301N006210900019N0112651N1+03201+01801999999ADDGA1021+006009999GA2071+090009999GF107991999999999999999999MA1101191999999MW1001REMMET052SBUF 052000Z 13012KT 9999 SCT020 BKN300 32/18 Q1012;EQDQ01+000000PRSWM2
0162829860999992001010521004-09390-038210FM-15+0252SBUF V0201001N006212200019N0112651N1+03101+01801999999ADDGA1021+006009999GA2021+090009999GF104991999999999999999999MA1101191999999MW1001REMMET052SBUF 052100Z 10012KT 9999 SCT020 SCT300 31/18 Q1012;EQDQ01+000000PRSWM2
0162829860999992001010522004-09390-038210FM-15+0252SBUF V0201601N005112200019N0112651N1+03001+01901999999ADDGA1021+006009999GA2021+090009999GF104991999999999999999999MA1101191999999MW1001REMMET052SBUF 052200Z 16010KT 9999 SCT020 SCT300 30/19 Q1012;EQDQ01+000000PRSWM2
0202829860999992001010600004-09390-038210FM-12+0252SBUF V0201401N004612200019N0020001N1+02711+01961101231ADDAA199000091GF102991001001999999001011KA1240M+03201MA1999999098391MD1999999-0211REMSYN076AAXX  06004 82986 32995 21409 10271 20196 39839 40123 82001 333 10320 59021;EQDQ01+000022SCOTLCQ02  00002PRCP99
0139829860999992001010609004-09390-038210FM-15+0252SBUF V0201301N003112200019N0112651N1+02401+02101999999ADDGA1021+006009999GF104991999999999999999999MA1101391999999MW1001REMMET045SBUF 060900Z 13006KT 9999 SCT020 24/21 Q1014;EQDQ01+000000PRSWM2
0139829860999992001010610004-09390-038210FM-15+0252SBUF V0201401N004112200019N0112651N1+02401+02101999999ADDGA1021+006009999GF104991999999999999999999MA1101391999999MW1001REMMET045SBUF 061000Z 14008KT 9999 SCT020 24/21 Q1014;EQDQ01+000000PRSWM2
0139829860999992001010611004-09390-038210FM-15+0252SBUF V0201301N005110060019N0112651N1+02601+02101999999ADDGA1071+006009999GF107991999999999999999999MA1101491999999MW1001REMMET045SBUF 061100Z 13010KT 9999 BKN020 26/21 Q1015;EQDQ01+000000PRSWM2
0291829860999992001010612004-09390-038210SY-MT+0252SBUF V0200901N00261006001CN9999999N1+02651+02051101371ADDAA199000091GA1071+006009999GF107991041021004501081011KA1240N+02231MA1101491098531MD1999999-0111MW1001REMSYN076AAXX  06124 82986 32496 70905 10265 20205 39853 40137 84281 333 20223 59011;MET045SBUF 061200Z 13008KT 9999 BKN020 27/21 Q1015;EQDQ01+040002VODIS Q02+000000PRSWM2Q03  00002PRCP99
0167829860999992001010618004-09390-038210FM-12+0252SBUF V0201401N001511050019N0200001N1+03251+01891100971ADDAA199000091GF106991031011004501001081MA1999999098151MD1999999-0091REMSYN070AAXX  06184 82986 35498 61403 10325 20189 39815 40097 83108 333 59009;EQDQ01  00002PRCP99
0162829860999992001010620004-09390-038210FM-15+0252SBUF V0201401N005112200019N0112651N1+03301+01901999999ADDGA1021+006009999GA2021+030009999GF104991999999999999999999MA1101021999999MW1001REMMET052SBUF 062000Z 14010KT 9999 FEW020 SCT100 33/19 Q1010;EQDQ01+000000PRSWM2
0162829860999992001010621004-09390-038210FM-15+0252SBUF V0201001N004112200019N0112651N1+03201+01901999999ADDGA1021+006009999GA2021+030009999GF104991999999999999999999MA1101021999999MW1001REMMET052SBUF 062100Z 10008KT 9999 FEW020 SCT100 32/19 Q1010;EQDQ01+000000PRSWM2
0162829860999992001010709004-09390-038210FM-15+0252SBUF V0201601N005112200019N0112651N1+02301+02201999999ADDGA1021+003609999GA2021+090009999GF104991999999999999999999MA1101291999999MW1001REMMET052SBUF 070900Z 16010KT 9999 SCT012 SCT300 23/22 Q1013;EQDQ01+000000PRSWM2
0162829860999992001010710004-09390-038210FM-15+0252SBUF V0201401N005112200019N0112651N1+02501+02101999999ADDGA1021+003609999GA2021+090009999GF104991999999999999999999MA1101391999999MW1001REMMET052SBUF 071000Z 14010KT 9999 SCT012 SCT300 25/21 Q1014;EQDQ01+000000PRSWM2
0139829860999992001010711004-09390-038210FM-15+0252SBUF V0201301N005110045019N0112651N1+02501+02101999999ADDGA1071+004509999GF107991999999999999999999MA1101391999999MW1001REMMET045SBUF 071100Z 13010KT 9999 BKN015 25/21 Q1014;EQDQ01+000000PRSWM2
0307829860999992001010712004-09390-038210SY-MT+0252SBUF V0201401N00311006001CN9999999N1+02631+02011101291ADDAA199000091GA1071+006009999GF199999031021004501081001KA1240N+02261MA1101391098451MD1999999-0081MW1001REMSYN076AAXX  07124 82986 32496 61406 10263 20201 39845 40129 83280 333 20226 59008;MET045SBUF 071200Z 14012KT 9999 BKN020 27/20 Q1014;EQDQ01+000062SCOTCVQ02+040002VODIS Q03+000000PRSWM2Q04  00002PRCP99
0139829860999992001010713004-09390-038210FM-15+0252SBUF V0201501N005110060019N0112651N1+02901+02001999999ADDGA1071+006009999GF107991999999999999999999MA1101391999999MW1001REMMET045SBUF 071300Z 15010KT 9999 BKN020 29/20 Q1014;EQDQ01+000000PRSWM2
0139829860999992001010716004-09390-038210FM-15+0252SBUF V0201201N005112200019N0112651N1+03201+02201999999ADDGA1021+009009999GF104991999999999999999999MA1101081999999MW1001REMMET045SBUF 071600Z 12010KT 9999 SCT030 32/22 Q1011;EQDQ01+000000PRSWM2
0139829860999992001010717004-09390-038210FM-15+0252SBUF V0201001N005112200019N0112651N1+03301+01801999999ADDGA1021+009009999GF104991999999999999999999MA1101021999999MW1001REMMET045SBUF 071700Z 10010KT 9999 SCT030 33/18 Q1010;EQDQ01+000000PRSWM2
0256829860999992001010718004-09390-038210SY-MT+0252SBUF V0201401N003612200019N0500001N1+03311+01501100901ADDAA199000091GA1021+009009999GF103991021011012501061001MA1101021098091MD1999999-0061MW1001REMSYN070AAXX  07184 82986 32699 31407 10331 20150 39809 40090 82160 333 59006;MET045SBUF 071800Z 15010KT 9999 SCT030 35/17 Q1010;EQDQ01+000000PRSWM2Q02  00002PRCP99
0139829860999992001010719004-09390-038210FM-15+0252SBUF V0201601N005112200019N0112651N1+03501+01601999999ADDGA1021+009009999GF104991999999999999999999MA1100911999999MW1001REMMET045SBUF 071900Z 16010KT 9999 SCT030 35/16 Q1009;EQDQ01+000000PRSWM2
0139829860999992001010720004-09390-038210FM-15+0252SBUF V0201301N005112200019N0112651N1+03401+01601999999ADDGA1021+009009999GF104991999999999999999999MA1100911999999MW1001REMMET045SBUF 072000Z 13010KT 9999 SCT030 34/16 Q1009;EQDQ01+000000PRSWM2
0139829860999992001010721004-09390-038210FM-15+0252SBUF V0201301N004112200019N0112651N1+03201+01501999999ADDGA1021+009009999GF102991999999999999999999MA1101021999999MW1001REMMET045SBUF 072100Z 13008KT 9999 FEW030 32/15 Q1010;EQDQ01+000000PRSWM2
0196829860999992001010800004-09390-038210FM-12+0252SBUF V0201401N005112200019N0020001N1+02671+01741101221ADDAA199000091GA1001+999999999GF100991001001999999001001KA1240M+03401MA1999999098381MD1999999+0051REMSYN070AAXX  08004 82986 32995 01410 10267 20174 39838 40122 333 10340 58005;EQDQ01  00002PRCP99
0139829860999992001010809004-09390-038210FM-15+0252SBUF V0201501N004112200019N0112651N1+02201+02101999999ADDGA1021+005409999GF102991999999999999999999MA1101391999999MW1001REMMET045SBUF 080900Z 15008KT 9999 FEW018 22/21 Q1014;EQDQ01+000000PRSWM2
0139829860999992001010810004-09390-038210FM-15+0252SBUF V0201501N005112200019N0112651N1+02401+02101999999ADDGA1021+005409999GF102991999999999999999999MA1101391999999MW1001REMMET045SBUF 081000Z 15010KT 9999 FEW018 24/21 Q1014;EQDQ01+000000PRSWM2
0139829860999992001010811004-09390-038210FM-15+0252SBUF V0201301N005112200019N0112651N1+02501+02001999999ADDGA1021+006009999GF104991999999999999999999MA1101491999999MW1001REMMET045SBUF 081100Z 13010KT 9999 SCT020 25/20 Q1015;EQDQ01+000000PRSWM2
0186829860999992001010812004-09390-038210FM-12+0252SBUF V0201401N003112200019N0100001N1+02681+01891101341ADDAA199000091GF105991021021008001001011KA1240N+02181MA1999999098501MD1999999+0051REMSYN076AAXX  08124 82986 32597 51406 10268 20189 39850 40134 82201 333 20218 58005;EQDQ01  00002PRCP99
0139829860999992001010813004-09390-038210FM-15+0252SBUF V0201201N007712200019N0112651N1+02901+01901999999ADDGA1021+007509999GF104991999999999999999999MA1101391999999MW1001REMMET045SBUF 081300Z 12015KT 9999 SCT025 29/19 Q1014;EQDQ01+000000PRSWM2
0167829860999992001010818004-09390-038210FM-12+0252SBUF V0201401N005112200019N0200001N1+03221+01521100861ADDAA199000091GF104991021011012501001061MA1999999098041MD1999999-0051REMSYN070AAXX  08184 82986 32698 41410 10322 20152 39804 40086 82106 333 59005;EQDQ01  00002PRCP99
0139829860999992001010822004-09390-038210FM-15+0252SBUF V0201001N006212200019N0112651N1+03001+01701999999ADDGA1021+006009999GF102991999999999999999999MA1101081999999MW1001REMMET045SBUF 082200Z 10012KT 9999 FEW020 30/17 Q1011;EQDQ01+000000PRSWM2
0162829860999992001010909004-09390-038210FM-15+0252SBUF V0201501N003112200019N0112651N1+02201+02001999999ADDGA1021+006009999GA2021+090009999GF104991999999999999999999MA1101291999999MW1001REMMET052SBUF 090900Z 15006KT 9999 FEW020 SCT300 22/20 Q1013;EQDQ01+000000PRSWM2
0162829860999992001010910004-09390-038210FM-15+0252SBUF V0201301N004112200019N0112651N1+02401+02001999999ADDGA1021+006009999GA2021+090009999GF104991999999999999999999MA1101391999999MW1001REMMET052SBUF 091000Z 13008KT 9999 FEW020 SCT300 24/20 Q1014;EQDQ01+000000PRSWM2
0162829860999992001010911004-09390-038210FM-15+0252SBUF V0201401N004112200019N0112651N1+02501+02001999999ADDGA1021+006009999GA2021+090009999GF104991999999999999999999MA1101391999999MW1001REMMET052SBUF 091100Z 14008KT 9999 FEW020 SCT300 25/20 Q1014;EQDQ01+000000PRSWM2
0298829860999992001010912004-09390-038210SY-MT+0252SBUF V0201401N004112200019N0200001N1+02661+01771101351ADDAA199000091GA1021+006009999GA2021+090009999GF104991031011012501001061KA1240N+02141MA1101491098511MD1999999+0011MW1001REMSYN076AAXX  09124 82986 32698 41408 10266 20177 39851 40135 83106 333 20214 58001;MET052SBUF 091200Z 13010KT 9999 FEW020 SCT300 27/18 Q1015;EQDQ01+000000PRSWM2Q02  00002PRCP99
0162829860999992001010913004-09390-038210FM-15+0252SBUF V0201101N004112200019N0112651N1+02901+01801999999ADDGA1021+006009999GA2021+090009999GF104991999999999999999999MA1101491999999MW1001REMMET052SBUF 091300Z 11008KT 9999 FEW020 SCT300 29/18 Q1015;EQDQ01+000000PRSWM2
0162829860999992001010914004-09390-038210FM-15+0252SBUF V0201201N005112200019N0112651N1+03001+01801999999ADDGA1021+006009999GA2021+090009999GF104991999999999999999999MA1101391999999MW1001REMMET052SBUF 091400Z 12010KT 9999 FEW020 SCT300 30/18 Q1014;EQDQ01+000000PRSWM2
0162829860999992001010915004-09390-038210FM-15+0252SBUF V0201601N005112200019N0112651N1+03101+01601999999ADDGA1021+006009999GA2021+090009999GF104991999999999999999999MA1101191999999MW1001REMMET052SBUF 091500Z 16010KT 9999 FEW020 SCT300 31/16 Q1012;EQDQ01+000000PRSWM2
0162829860999992001010916004-09390-038210FM-15+0252SBUF V0201501N006210900019N0112651N1+03301+01501999999ADDGA1021+006009999GA2071+090009999GF107991999999999999999999MA1101081999999MW1001REMMET052SBUF 091600Z 15012KT 9999 FEW020 BKN300 33/15 Q1011;EQDQ01+000000PRSWM2
0162829860999992001010917004-09390-038210FM-15+0252SBUF V0201701N006212200019N0112651N1+03401+01501999999ADDGA1021+006009999GA2021+090009999GF104991999999999999999999MA1101021999999MW1001REMMET052SBUF 091700Z 17012KT 9999 FEW020 SCT300 34/15 Q1010;EQDQ01+000000PRSWM2
0196829860999992001011000004-09390-038210FM-12+0252SBUF V0201401N006712200019N0010001N1+02761+01661101111ADDAA199000091GA1001+999999999GF100991001001999999001001KA1240M+03401MA1999999098281MD1999999+0021REMSYN070AAXX  10004 82986 32994 01413 10276 20166 39828 40111 333 10340 58002;EQDQ01  00002PRCP99
0162829860999992001011009004-09390-038210FM-15+0252SBUF V0201301N004112200019N0112651N1+02301+02001999999ADDGA1021+006009999GA2021+024009999GF104991999999999999999999MA1101291999999MW1001REMMET052SBUF 100900Z 13008KT 9999 SCT020 SCT080 23/20 Q1013;EQDQ01+000000PRSWM2
0162829860999992001011011004-09390-038210FM-15+0252SBUF V0201001N005112200019N0112651N1+02501+02101999999ADDGA1021+006009999GA2021+024009999GF104991999999999999999999MA1101491999999MW1001REMMET052SBUF 101100Z 10010KT 9999 SCT020 SCT080 25/21 Q1015;EQDQ01+000000PRSWM2
0186829860999992001011012004-09390-038210FM-12+0252SBUF V0201401N005110075019N0100001N1+02691+01991101351ADDAA199000091GF106991051021008001061011KA1240N+02281MA1999999098511MD1999999+0001REMSYN076AAXX  10124 82986 32597 61410 10269 20199 39851 40135 85261 333 20228 58000;EQDQ01  00002PRCP99
0279829860999992001011018004-09390-038210SY-MT+0252SBUF V0201401N004112200019N0200001N1+03361+01361100921ADDAA199000091GA1021+009009999GA2021+090009999GF103991021011012501001021MA1101021098111MD1999999+0071MW1001REMSYN070AAXX  10184 82986 32698 31408 10336 20136 39811 40092 82102 333 58007;MET052SBUF 101800Z 12010KT 9999 SCT030 SCT300 35/15 Q1010;EQDQ01+000000PRSWM2Q02  00002PRCP99
0165829860999992001011019004-09390-038210FM-15+0252SBUF V0201301N005112200019N0112651N1+03501+01501999999ADDGA1021+009009999GA2021+010509029GF102991999999999999999999MA1100911999999MW1001REMMET055SBUF 101900Z 13010KT 9999 SCT030 FEW035TCU 35/15 Q1009;EQDQ01+000000PRSWM2
0165829860999992001011020004-09390-038210FM-15+0252SBUF V0201301N006212200019N0112651N1+03401+01501999999ADDGA1021+009009999GA2021+010509029GF102991999999999999999999MA1100911999999MW1001REMMET055SBUF 102000Z 13012KT 9999 SCT030 FEW035TCU 34/15 Q1009;EQDQ01+000000PRSWM2
0139829860999992001011021004-09390-038210FM-15+0252SBUF V0201501N008212200019N0112651N1+03201+01501999999ADDGA1021+009009999GF102991999999999999999999MA1101021999999MW1001REMMET045SBUF 102100Z 15016KT 9999 FEW030 32/15 Q1010;EQDQ01+000000PRSWM2
0139829860999992001011022004-09390-038210FM-15+0252SBUF V0201501N008212200019N0112651N1+03101+01601999999ADDGA1021+009009999GF102991999999999999999999MA1101081999999MW1001REMMET045SBUF 102200Z 15016KT 9999 FEW030 31/16 Q1011;EQDQ01+000000PRSWM2
0208829860999992001011100004-09390-038210FM-12+0252SBUF V0201401N007212200019N0020001N1+02651+01801101271ADDAA199000091GA1001+999999999GF100991001001999999001001KA1240M+03411MA1999999098431MD1999999+0151REMSYN082AAXX  11004 82986 32995 01414 10265 20180 39843 40127 333 10341 29054 55100 58015;EQDQ01  00002PRCP99
0139829860999992001011109004-09390-038210FM-15+0252SBUF V0201501N002612200019N0112651N1+02301+02101999999ADDGA1021+006009999GF102991999999999999999999MA1101491999999MW1001REMMET045SBUF 110900Z 15005KT 9999 FEW020 23/21 Q1015;EQDQ01+000000PRSWM2
0139829860999992001011110004-09390-038210FM-15+0252SBUF V0201301N004110060019N0112651N1+02401+02101999999ADDGA1071+006009999GF107991999999999999999999MA1101491999999MW1001REMMET045SBUF 111000Z 13008KT 9999 BKN020 24/21 Q1015;EQDQ01+000000PRSWM2
0139829860999992001011111004-09390-038210FM-15+0252SBUF V0201101N004110060019N0112651N1+02501+02001999999ADDGA1071+006009999GF107991999999999999999999MA1101591999999MW1001REMMET045SBUF 111100Z 11008KT 9999 BKN020 25/20 Q1016;EQDQ01+000000PRSWM2
0186829860999992001011112004-09390-038210FM-12+0252SBUF V0201401N004610450019N0040001N1+02661+01951101471ADDAA199000091GF106991041021004501081011KA1240N+02131MA1999999098621MD1999999+0111REMSYN076AAXX  11124 82986 32496 61409 10266 20195 39862 40147 84281 333 20213 58011;EQDQ01  00002PRCP99
0162829860999992001011116004-09390-038210FM-15+0252SBUF V0201501N007212200019N0112651N1+03301+01801999999ADDGA1021+009009999GA2021+090009999GF104991999999999999999999MA1101291999999MW1001REMMET052SBUF 111600Z 15014KT 9999 SCT030 SCT300 33/18 Q1013;EQDQ01+000000PRSWM2
0162829860999992001011117004-09390-038210FM-15+0252SBUF V0201201N006212200019N0112651N1+03401+01701999999ADDGA1021+009009999GA2021+090009999GF104991999999999999999999MA1101191999999MW1001REMMET052SBUF 111700Z 12012KT 9999 SCT030 SCT300 34/17 Q1012;EQDQ01+000000PRSWM2
0167829860999992001011118004-09390-038210FM-12+0252SBUF V0201401N004111050019N0500001N1+03331+01571100981ADDAA199000091GF105991021011008001061021MA1999999098161MD1999999+0051REMSYN070AAXX  11184 82986 32599 51408 10333 20157 39816 40098 82162 333 58005;EQDQ01  00002PRCP99
0208829860999992001011200004-09390-038210FM-12+0252SBUF V0201401N005112200019N0020001N1+02711+01961101221ADDAA199000091GA1001+999999999GF100991001001999999001001KA1240M+03371MA1999999098391MD1999999-0041REMSYN082AAXX  12004 82986 32995 01410 10271 20196 39839 40122 333 10337 29057 55092 59004;EQDQ01  00002PRCP99
0185829860999992001011209004-09390-038210FM-15+0252SBUF V0201301N005110900019N0112651N1+02401+02301999999ADDGA1021+004509999GA2021+030009999GA3071+090009999GF107991999999999999999999MA1101391999999MW1001REMMET059SBUF 120900Z 13010KT 9999 SCT015 SCT100 BKN300 24/23 Q1014;EQDQ01+000000PRSWM2
0185829860999992001011210004-09390-038210FM-15+0252SBUF V0201101N005110900019N0112651N1+02401+02301999999ADDGA1021+004509999GA2021+030009999GA3071+090009999GF107991999999999999999999MA1101391999999MW1001REMMET059SBUF 121000Z 11010KT 9999 SCT015 SCT100 BKN300 24/23 Q1014;EQDQ01+000000PRSWM2
0342829860999992001011212004-09390-038210SY-MT+0252SBUF V0201401N00411006001CN0040001N1+02681+02091101391ADDAA124000191AY161061AY251061GA1071+006009999GA2071+030009999GF199999041021004501081011KA1240N+02191MA1101491098551MD1999999-0071MW1031REMSYN088AAXX  12124 82986 21496 61408 10268 20209 39855 40139 70365 84281 333 20219 59007 69914;MET052SBUF 121200Z 12010KT 9999 BKN020 BKN100 27/21 Q1015;EQDQ01+000062SCOTCVQ02+000000PRSWM2Q03    003PRSWM1
0167829860999992001011218004-09390-038210FM-12+0252SBUF V0201401N003611050019N0200001N1+03191+01691100951ADDAA199000091GF106991031021008001001081MA1999999098131MD1999999-0031REMSYN070AAXX  12184 82986 32598 61407 10319 20169 39813 40095 83208 333 59003;EQDQ01  00002PRCP99
0191829860999992001011220004-09390-038210FM-15+0252SBUF V0201301N009310054019N0070001N1+02801+01901999999ADDGA1071+005409999GA2071+030009999GF107991999999999999999999MA1101081999999MW1161REMMET065SBUF 122000Z 13018KT 090V160 7000 VCSH BKN018 BKN100 28/19 Q1011;EQDQ01+000003PRSWM1Q02    003PRSWM1
0162829860999992001011221004-09390-038210FM-15+0252SBUF V0201401N005110300019N0112651N1+02701+02001999999ADDGA1021+006009999GA2071+030009999GF107991999999999999999999MA1101081999999MW1001REMMET052SBUF 122100Z 14010KT 9999 SCT020 BKN100 27/20 Q1011;EQDQ01+000000PRSWM2
0162829860999992001011222004-09390-038210FM-15+0252SBUF V0201401N005110300019N0112651N1+02701+02001999999ADDGA1021+006009999GA2071+030009999GF107991999999999999999999MA1101191999999MW1001REMMET052SBUF 122200Z 14010KT 9999 SCT020 BKN100 27/20 Q1012;EQDQ01+000000PRSWM2
0198829860999992001011300004-09390-038210FM-12+0252SBUF V0200901N004610450019N0010001N1+02661+01871101261ADDAA199000091GF105991021021008001081001KA1240M+03291MA1999999098421MD1999999+0031REMSYN088AAXX  13004 82986 32594 50909 10266 20187 39842 40126 82280 333 10329 29059 55031 58003;EQDQ01  00002PRCP99
0185829860999992001011309004-09390-038210FM-15+0252SBUF V0201201N004110240019N0112651N1+02401+02201999999ADDGA1021+003009999GA2071+024009999GA3071+090009999GF107991999999999999999999MA1101391999999MW1001REMMET059SBUF 130900Z 12008KT 9999 FEW010 BKN080 BKN300 24/22 Q1014;EQDQ01+000000PRSWM2
0185829860999992001011310004-09390-038210FM-15+0252SBUF V0201301N005110240019N0112651N1+02401+02201999999ADDGA1021+003009999GA2071+024009999GA3071+090009999GF107991999999999999999999MA1101491999999MW1001REMMET059SBUF 131000Z 13010KT 9999 SCT010 BKN080 BKN300 24/22 Q1015;EQDQ01+000000PRSWM2
0185829860999992001011311004-09390-038210FM-15+0252SBUF V0201501N005110240019N0112651N1+02501+02201999999ADDGA1021+004509999GA2071+024009999GA3071+090009999GF107991999999999999999999MA1101491999999MW1001REMMET059SBUF 131100Z 15010KT 9999 SCT015 BKN080 BKN300 25/22 Q1015;EQDQ01+000000PRSWM2
0314829860999992001011312004-09390-038210SY-MT+0252SBUF V0201401N00461024001CN0040001N1+02551+02021101431ADDAA199000091GA1021+005409999GA2081+024009999GF199999051021004501081001KA1240N+02181MA1101591098591MD1999999+0041MW1001REMSYN076AAXX  13124 82986 32496 71409 10255 20202 39859 40143 85280 333 20218 58004;MET052SBUF 131200Z 12010KT 9999 SCT018 OVC080 26/21 Q1016;EQDQ01+000072SCOTCVQ02+000000PRSWM2Q03  00002PRCP99
0162829860999992001011313004-09390-038210FM-15+0252SBUF V0201201N006210240019N0112651N1+02801+02001999999ADDGA1021+006009999GA2071+024009999GF107991999999999999999999MA1101591999999MW1001REMMET052SBUF 131300Z 12012KT 9999 SCT020 BKN080 28/20 Q1016;EQDQ01+000000PRSWM2
0162829860999992001011314004-09390-038210FM-15+0252SBUF V0201301N006212200019N0112651N1+03001+01901999999ADDGA1021+006009999GA2021+024009999GF104991999999999999999999MA1101491999999MW1001REMMET052SBUF 131400Z 13012KT 9999 SCT020 SCT080 30/19 Q1015;EQDQ01+000000PRSWM2
0162829860999992001011315004-09390-038210FM-15+0252SBUF V0201201N006212200019N0112651N1+03101+01801999999ADDGA1021+006009999GA2021+024009999GF104991999999999999999999MA1101391999999MW1001REMMET052SBUF 131500Z 12012KT 9999 SCT020 SCT080 31/18 Q1014;EQDQ01+000000PRSWM2
0139829860999992001011316004-09390-038210FM-15+0252SBUF V0201301N006212200019N0112651N1+03301+01801999999ADDGA1021+006009999GF104991999999999999999999MA1101291999999MW1001REMMET045SBUF 131600Z 13012KT 9999 SCT020 33/18 Q1013;EQDQ01+000000PRSWM2
0162829860999992001011317004-09390-038210FM-15+0252SBUF V0201401N006210300019N0112651N1+03201+01701999999ADDGA1021+006009999GA2071+030009999GF107991999999999999999999MA1101291999999MW1001REMMET052SBUF 131700Z 14012KT 9999 FEW020 BKN100 32/17 Q1013;EQDQ01+000000PRSWM2
0295829860999992001011318004-09390-038210SY-MT+0252SBUF V0201401N00461030001CN0200001N1+03171+01671101101ADDAA199000091GA1021+006009999GA2071+030009999GF199999021021008001081081MA1101191098261MD1999999+0131MW1001REMSYN070AAXX  13184 82986 32598 61409 10317 20167 39826 40110 82288 333 58013;MET052SBUF 131800Z 15016KT 9999 FEW020 BKN100 33/18 Q1012;EQDQ01+000062SCOTCVQ02+000000PRSWM2Q03  00002PRCP99
0162829860999992001011319004-09390-038210FM-15+0252SBUF V0201201N006210300019N0112651N1+03201+01701999999ADDGA1021+006009999GA2071+030009999GF107991999999999999999999MA1101191999999MW1001REMMET052SBUF 131900Z 12012KT 9999 FEW020 BKN100 32/17 Q1012;EQDQ01+000000PRSWM2
0139829860999992001011320004-09390-038210FM-15+0252SBUF V0201301N009312200019N0112651N1+03001+01901999999ADDGA1021+006009999GF104991999999999999999999MA1101191999999MW1001REMMET045SBUF 132000Z 13018KT 9999 SCT020 30/19 Q1012;EQDQ01+000000PRSWM2
0162829860999992001011321004-09390-038210FM-15+0252SBUF V0201301N006210300019N0112651N1+02901+01901999999ADDGA1021+006009999GA2071+030009999GF107991999999999999999999MA1101291999999MW1001REMMET052SBUF 132100Z 13012KT 9999 FEW020 BKN100 29/19 Q1013;EQDQ01+000000PRSWM2
0198829860999992001011400004-09390-038210FM-12+0252SBUF V0200901N005710120019N0020001N1+02591+01901101471ADDAA199000091GF106991061021012501001001KA1240M+03261MA1999999098611MD1999999+0191REMSYN088AAXX  14004 82986 32695 60911 10259 20190 39861 40147 86200 333 10326 29059 55033 58019;EQDQ01  00002PRCP99
0162829860999992001011409004-09390-038210FM-15+0252SBUF V0201301N006210900019N0112651N1+02201+02101999999ADDGA1021+004509999GA2071+090009999GF107991999999999999999999MA1101491999999MW1001REMMET052SBUF 140900Z 13012KT 9999 SCT015 BKN300 22/21 Q1015;EQDQ01+000000PRSWM2
0162829860999992001011410004-09390-038210FM-15+0252SBUF V0201501N005110900019N0112651N1+02301+02101999999ADDGA1021+004509999GA2071+090009999GF107991999999999999999999MA1101491999999MW1001REMMET052SBUF 141000Z 15010KT 9999 SCT015 BKN300 23/21 Q1015;EQDQ01+000000PRSWM2
0162829860999992001011411004-09390-038210FM-15+0252SBUF V0201501N007710900019N0112651N1+02501+02101999999ADDGA1021+004509999GA2071+090009999GF107991999999999999999999MA1101591999999MW1001REMMET052SBUF 141100Z 15015KT 9999 SCT015 BKN300 25/21 Q1016;EQDQ01+000000PRSWM2
0330829860999992001011412004-09390-038210SY-MT+0252SBUF V0201401N00311090001CN9999999N1+02571+01951101491ADDAA199000091GA1021+004509999GA2071+090009999GF108991999071004501081999KA1240N+02151MA1101591098641MD1999999+0051MW1001REMSYN076AAXX  14124 82986 32496 81406 10257 20195 39864 40149 8878/ 333 20215 58005;MET052SBUF 141200Z 17012KT 9999 SCT015 BKN300 26/21 Q1016;EQDQ01+000082SCOTLCQ02+040002VODIS Q03+000000PRSWM2Q04  00002PRCP99
0162829860999992001011413004-09390-038210FM-15+0252SBUF V0201401N005110900019N0112651N1+02701+02001999999ADDGA1021+004509999GA2071+090009999GF107991999999999999999999MA1101591999999MW1001REMMET052SBUF 141300Z 14010KT 9999 SCT015 BKN300 27/20 Q1016;EQDQ01+000000PRSWM2
0162829860999992001011414004-09390-038210FM-15+0252SBUF V0201201N005110900019N0112651N1+02901+02001999999ADDGA1021+004509999GA2071+090009999GF107991999999999999999999MA1101491999999MW1001REMMET052SBUF 141400Z 12010KT 9999 SCT015 BKN300 29/20 Q1015;EQDQ01+000000PRSWM2
0162829860999992001011415004-09390-038210FM-15+0252SBUF V0201301N006210900019N0112651N1+03101+02001999999ADDGA1021+004509999GA2071+090009999GF107991999999999999999999MA1101391999999MW1001REMMET052SBUF 141500Z 13012KT 9999 SCT015 BKN300 31/20 Q1014;EQDQ01+000000PRSWM2
0162829860999992001011416004-09390-038210FM-15+0252SBUF V0201001N005110900019N0112651N1+03201+02001999999ADDGA1021+006009999GA2071+090009999GF107991999999999999999999MA1101291999999MW1001REMMET052SBUF 141600Z 10010KT 9999 SCT020 BKN300 32/20 Q1013;EQDQ01+000000PRSWM2
0162829860999992001011417004-09390-038210FM-15+0252SBUF V0201201N005110900019N0112651N1+03301+01901999999ADDGA1021+006009999GA2071+090009999GF107991999999999999999999MA1101191999999MW1001REMMET052SBUF 141700Z 12010KT 9999 SCT020 BKN300 33/19 Q1012;EQDQ01+000000PRSWM2
0333829860999992001011418004-09390-038210SY-MT+0252SBUF V0201401N00621090001CN0100001N1+03151+01871101071ADDAA199000091AY121061AY221061GA1021+006009999GA2071+090009999GF199999031021008001071001MA1101191098231MD1999999-0031MW1161REMSYN076AAXX  14184 82986 31597 61412 10315 20187 39823 40107 71622 83270 333 59003;MET052SBUF 141800Z 10016KT 9999 SCT020 BKN300 30/20 Q1012;EQDQ01+000062SCOTCVQ02+000000PRSWM2Q03  00002PRCP99Q04    003PRSWM1
0170829860999992001011419004-09390-038210FM-15+0252SBUF V0201601N009310900019N0112651N1+03001+02001999999ADDGA1021+006009999GA2071+090009999GF107991999999999999999999MA1101191999999MW1001REMMET060SBUF 141900Z 16018KT 120V180 9999 SCT020 BKN300 30/20 Q1012;EQDQ01+000000PRSWM2
0088829860999992001011420004-09390-038210FM-15+0252SBUF V02099999999992200019N0112651N1+99999+99999999999ADDMW1001REMMET051SBUF 14200Z 14016KT 9999 FEW020 BKN300 29/21 Q1012;EQDQ01+000000PRSWM2
0162829860999992001011421004-09390-038210FM-15+0252SBUF V0201601N007710900019N0112651N1+02801+01901999999ADDGA1021+006009999GA2071+090009999GF107991999999999999999999MA1101191999999MW1001REMMET052SBUF 142100Z 16015KT 9999 FEW020 BKN300 28/19 Q1012;EQDQ01+000000PRSWM2
0198829860999992001011500004-09390-038210FM-12+0252SBUF V0201401N006212200019N0020001N1+02561+02061101371ADDAA199000091GF103991031021012501001001KA1240M+03301MA1999999098521MD1999999-0091REMSYN088AAXX  15004 82986 32695 31412 10256 20206 39852 40137 83200 333 10330 29065 55035 59009;EQDQ01  00002PRCP99
0139829860999992001011509004-09390-038210FM-15+0252SBUF V0201601N004110045019N0112651N1+02301+02201999999ADDGA1071+004509999GF107991999999999999999999MA1101391999999MW1001REMMET045SBUF 150900Z 16008KT 9999 BKN015 23/22 Q1014;EQDQ01+000000PRSWM2
0139829860999992001011510004-09390-038210FM-15+0252SBUF V0201401N006210045019N0112651N1+02501+02201999999ADDGA1071+004509999GF107991999999999999999999MA1101491999999MW1001REMMET045SBUF 151000Z 14012KT 9999 BKN015 25/22 Q1015;EQDQ01+000000PRSWM2
0139829860999992001011511004-09390-038210FM-15+0252SBUF V0201401N006212200019N0112651N1+02701+02001999999ADDGA1021+006009999GF104991999999999999999999MA1101491999999MW1001REMMET045SBUF 151100Z 14012KT 9999 SCT020 27/20 Q1015;EQDQ01+000000PRSWM2
0313829860999992001011512004-09390-038210SY-MT+0252SBUF V0201401N005110450019N0100001N1+02631+01981101371ADDAA199000091AY121061AY221061GA1021+006009999GF106991041021008001081001KA1240N+02251MA1101491098531MD1999999-0111MW1151REMSYN082AAXX  15124 82986 31597 61410 10263 20198 39853 40137 71522 84280 333 20225 59011;MET045SBUF 151200Z 11012KT 9999 SCT020 27/20 Q1015;EQDQ01+000000PRSWM2Q02  00002PRCP99Q03    003PRSWM1
0183829860999992001011513004-09390-038210FM-15+0252SBUF V0201201N006212200019N0080001N1+02501+02201999999ADDGA1021+004509999GA2021+030009999GF104991999999999999999999MA1101491999999MW1161REMMET057SBUF 151300Z 12012KT 8000 VCSH SCT015 SCT100 25/22 Q1015;EQDQ01+000003PRSWM1Q02    003PRSWM1
0108829860999992001011514004-09390-038210FM-15+0252SBUF V0201201N006212200019N9999999N1+02701+02101999999ADDMA1101391999999MW1001REMMET040SBUF 151400Z 12012KT SCT020 27/21 Q1014;EQDQ01+014002VODIS Q02+000000PRSWM2
0139829860999992001011515004-09390-038210FM-15+0252SBUF V0201001N009310045019N0112651N1+02901+01901999999ADDGA1071+004509999GF107991999999999999999999MA1101391999999MW1001REMMET045SBUF 151500Z 10018KT 9999 BKN015 29/19 Q1014;EQDQ01+000000PRSWM2
0162829860999992001011516004-09390-038210FM-15+0252SBUF V0201201N007710240019N0112651N1+02901+02101999999ADDGA1021+007509999GA2071+024009999GF107991999999999999999999MA1101081999999MW1001REMMET052SBUF 151600Z 12015KT 9999 SCT025 BKN080 29/21 Q1011;EQDQ01+000000PRSWM2
0162829860999992001011517004-09390-038210FM-15+0252SBUF V0201501N005112200019N0112651N1+03001+02001999999ADDGA1021+009009999GA2021+024009999GF104991999999999999999999MA1101291999999MW1001REMMET052SBUF 151700Z 15010KT 9999 FEW030 SCT080 30/20 Q1013;EQDQ01+000000PRSWM2
0295829860999992001011518004-09390-038210SY-MT+0252SBUF V0201401N00571024001CN0200001N1+02991+01831101161ADDAA199000091GA1021+009009999GA2071+024009999GF199999041021004501081001MA1101191098321MD1999999+0091MW1001REMSYN070AAXX  15184 82986 32498 61411 10299 20183 39832 40116 84280 333 58009;MET052SBUF 151800Z 12016KT 9999 SCT030 BKN080 31/20 Q1012;EQDQ01+000062SCOTCVQ02+000000PRSWM2Q03  00002PRCP99
0162829860999992001011519004-09390-038210FM-15+0252SBUF V0201501N009310240019N0112651N1+02801+02001999999ADDGA1021+006009999GA2071+024009999GF107991999999999999999999MA1101291999999MW1001REMMET052SBUF 151900Z 15018KT 9999 SCT020 BKN080 28/20 Q1013;EQDQ01+000000PRSWM2
0162829860999992001011520004-09390-038210FM-15+0252SBUF V0201801N005110240019N0112651N1+02701+02001999999ADDGA1021+006009999GA2071+024009999GF107991999999999999999999MA1101291999999MW1001REMMET052SBUF 152000Z 18010KT 9999 FEW020 BKN080 27/20 Q1013;EQDQ01+000000PRSWM2
0162829860999992001011521004-09390-038210FM-15+0252SBUF V0201801N004110180019N0112651N1+02601+02001999999ADDGA1021+006009999GA2071+018009999GF107991999999999999999999MA1101391999999MW1001REMMET052SBUF 152100Z 18008KT 9999 SCT020 BKN060 26/20 Q1014;EQDQ01+000000PRSWM2
0162829860999992001011522004-09390-038210FM-15+0252SBUF V0201801N004110180019N0112651N1+02401+02101999999ADDGA1021+005409999GA2071+018009999GF107991999999999999999999MA1101391999999MW1001REMMET052SBUF 152200Z 18008KT 9999 SCT018 BKN060 24/21 Q1014;EQDQ01+000000PRSWM2
0213829860999992001011600004-09390-038210FM-12+0252SBUF V0201801N002110042019N0005001N1+02331+02051101381ADDAA106000191AY161061AY221061GF107991051021004501081001KA1240M+03041MA1999999098531MD1999999-0011MW1031REMSYN100AAXX  16004 82986 21493 71804 10233 20205 39853 40138 70362 85280 333 10304 29072 55047 59001 69911;
0139829860999992001011609004-09390-038210FM-15+0252SBUF V0201601N004110045019N0112651N1+02201+02101999999ADDGA1071+004509999GF107991999999999999999999MA1101491999999MW1001REMMET045SBUF 160900Z 16008KT 9999 BKN015 22/21 Q1015;EQDQ01+000000PRSWM2
0139829860999992001011610004-09390-038210FM-15+0252SBUF V0201301N004110045019N0112651N1+02301+02101999999ADDGA1071+004509999GF107991999999999999999999MA1101491999999MW1001REMMET045SBUF 161000Z 13008KT 9999 BKN015 23/21 Q1015;EQDQ01+000000PRSWM2
0139829860999992001011611004-09390-038210FM-15+0252SBUF V0201301N005112200019N0112651N1+02501+02101999999ADDGA1021+006009999GF104991999999999999999999MA1101491999999MW1001REMMET045SBUF 161100Z 13010KT 9999 SCT020 25/21 Q1015;EQDQ01+000000PRSWM2
0265829860999992001011612004-09390-038210SY-MT+0252SBUF V0201401N005710075019N0100001N1+02561+01971101441ADDAA124000191GA1021+006009999GF106991051021008001081001KA1240N+02201MA1101491098571MD1999999+0041MW1001REMSYN082AAXX  16124 82986 22597 61411 10256 20197 39857 40144 85280 333 20220 58004 69914;MET045SBUF 161200Z 13010KT 9999 SCT020 27/20 Q1015;EQDQ01+000000PRSWM2
0139829860999992001011613004-09390-038210FM-15+0252SBUF V0201401N005112200019N0112651N1+02901+02001999999ADDGA1021+006009999GF104991999999999999999999MA1101491999999MW1001REMMET045SBUF 161300Z 14010KT 9999 SCT020 29/20 Q1015;EQDQ01+000000PRSWM2
0139829860999992001011614004-09390-038210FM-15+0252SBUF V0201301N007712200019N0112651N1+03001+01801999999ADDGA1021+006009999GF104991999999999999999999MA1101491999999MW1001REMMET045SBUF 161400Z 13015KT 9999 SCT020 30/18 Q1015;EQDQ01+000000PRSWM2
0139829860999992001011615004-09390-038210FM-15+0252SBUF V0201001N007212200019N0112651N1+03101+01801999999ADDGA1021+006009999GF104991999999999999999999MA1101391999999MW1001REMMET045SBUF 161500Z 10014KT 9999 SCT020 31/18 Q1014;EQDQ01+000000PRSWM2
0139829860999992001011616004-09390-038210FM-15+0252SBUF V0201301N008212200019N0112651N1+03301+01801999999ADDGA1021+006009999GF104991999999999999999999MA1101291999999MW1001REMMET045SBUF 161600Z 13016KT 9999 SCT020 33/18 Q1013;EQDQ01+000000PRSWM2
0139829860999992001011617004-09390-038210FM-15+0252SBUF V0201501N006712200019N0112651N1+03401+01701999999ADDGA1021+009009999GF104991999999999999999999MA1101191999999MW1001REMMET045SBUF 161700Z 15013KT 9999 SCT030 34/17 Q1012;EQDQ01+000000PRSWM2
0167829860999992001011618004-09390-038210FM-12+0252SBUF V0201401N002612200019N0500001N1+03291+01391101081ADDAA199000091GF104991021011012501061001MA1999999098251MD1999999-0071REMSYN070AAXX  16184 82986 32699 41405 10329 20139 39825 40108 82160 333 59007;EQDQ01  00002PRCP99
0139829860999992001011619004-09390-038210FM-15+0252SBUF V0201201N006212200019N0112651N1+03401+01501999999ADDGA1021+009009999GF104991999999999999999999MA1101081999999MW1001REMMET045SBUF 161900Z 12012KT 9999 SCT030 34/15 Q1011;EQDQ01+000000PRSWM2
0139829860999992001011620004-09390-038210FM-15+0252SBUF V0201201N005112200019N0112651N1+03301+01501999999ADDGA1021+009009999GF102991999999999999999999MA1101081999999MW1001REMMET045SBUF 162000Z 12010KT 9999 FEW030 33/15 Q1011;EQDQ01+000000PRSWM2
0139829860999992001011621004-09390-038210FM-15+0252SBUF V0201201N005112200019N0112651N1+03201+01501999999ADDGA1021+009009999GF104991999999999999999999MA1101081999999MW1001REMMET045SBUF 162100Z 12010KT 9999 SCT030 32/15 Q1011;EQDQ01+000000PRSWM2
0139829860999992001011622004-09390-038210FM-15+0252SBUF V0201301N007212200019N0112651N1+03001+01601999999ADDGA1021+009009999GF104991999999999999999999MA1101191999999MW1001REMMET045SBUF 162200Z 13014KT 9999 SCT030 30/16 Q1012;EQDQ01+000000PRSWM2
0208829860999992001011700004-09390-038210FM-12+0252SBUF V0201401N003112200019N0020001N1+02681+01701101271ADDAA199000091GA1001+999999999GF100991001001999999001001KA1240M+03331MA1999999098431MD1999999-0101REMSYN082AAXX  17004 82986 32995 01406 10268 20170 39843 40127 333 10333 29053 55097 59010;EQDQ01  00002PRCP99
0139829860999992001011709004-09390-038210FM-15+0252SBUF V0201301N004112200019N0112651N1+02201+02101999999ADDGA1021+005409999GF102991999999999999999999MA1101391999999MW1001REMMET045SBUF 170900Z 13008KT 9999 FEW018 22/21 Q1014;EQDQ01+000000PRSWM2
0139829860999992001011710004-09390-038210FM-15+0252SBUF V0201301N005112200019N0112651N1+02301+02101999999ADDGA1021+006009999GF104991999999999999999999MA1101391999999MW1001REMMET045SBUF 171000Z 13010KT 9999 SCT020 23/21 Q1014;EQDQ01+000000PRSWM2
0139829860999992001011711004-09390-038210FM-15+0252SBUF V0201401N005112200019N0112651N1+02501+02001999999ADDGA1021+006009999GF104991999999999999999999MA1101491999999MW1001REMMET045SBUF 171100Z 14010KT 9999 SCT020 25/20 Q1015;EQDQ01+000000PRSWM2
0307829860999992001011712004-09390-038210SY-MT+0252SBUF V0200901N00511006001CN9999999N1+02591+01871101411ADDAA199000091GA1071+006009999GF199999031011008001081001KA1240N+02141MA1101491098571MD1999999+0001MW1001REMSYN076AAXX  17124 82986 32596 60910 10259 20187 39857 40141 83180 333 20214 58000;MET045SBUF 171200Z 13016KT 9999 BKN020 27/20 Q1015;EQDQ01+000062SCOTCVQ02+040002VODIS Q03+000000PRSWM2Q04  00002PRCP99
0139829860999992001011713004-09390-038210FM-15+0252SBUF V0201301N008210060019N0112651N1+02901+02001999999ADDGA1071+006009999GF107991999999999999999999MA1101491999999MW1001REMMET045SBUF 171300Z 13016KT 9999 BKN020 29/20 Q1015;EQDQ01+000000PRSWM2
0139829860999992001011714004-09390-038210FM-15+0252SBUF V0201001N005112200019N0112651N1+03001+01801999999ADDGA1021+006009999GF104991999999999999999999MA1101391999999MW1001REMMET045SBUF 171400Z 10010KT 9999 SCT020 30/18 Q1014;EQDQ01+000000PRSWM2
0139829860999992001011715004-09390-038210FM-15+0252SBUF V0201501N006212200019N0112651N1+03201+01801999999ADDGA1021+007509999GF102991999999999999999999MA1101291999999MW1001REMMET045SBUF 171500Z 15012KT 9999 FEW025 32/18 Q1013;EQDQ01+000000PRSWM2
0139829860999992001011716004-09390-038210FM-15+0252SBUF V0201301N006212200019N0112651N1+03401+01701999999ADDGA1021+009009999GF102991999999999999999999MA1101191999999MW1001REMMET045SBUF 171600Z 13012KT 9999 FEW030 34/17 Q1012;EQDQ01+000000PRSWM2
0139829860999992001011717004-09390-038210FM-15+0252SBUF V0201501N005112200019N0112651N1+03501+01601999999ADDGA1021+009009999GF102991999999999999999999MA1101081999999MW1001REMMET045SBUF 171700Z 15010KT 9999 FEW030 35/16 Q1011;EQDQ01+000000PRSWM2
0256829860999992001011718004-09390-038210SY-MT+0252SBUF V0201401N003112200019N0500001N1+03351+01491100971ADDAA199000091GA1021+009009999GF104991021011008001061001MA1101081098151MD1999999-0101MW1001REMSYN070AAXX  17184 82986 32599 41406 10335 20149 39815 40097 82160 333 59010;MET045SBUF 171800Z 13018KT 9999 FEW030 35/16 Q1011;EQDQ01+000000PRSWM2Q02  00002PRCP99
0139829860999992001011719004-09390-038210FM-15+0252SBUF V0201501N008212200019N0112651N1+03501+01601999999ADDGA1021+009009999GF102991999999999999999999MA1101021999999MW1001REMMET045SBUF 171900Z 15016KT 9999 FEW030 35/16 Q1010;EQDQ01+000000PRSWM2
0139829860999992001011720004-09390-038210FM-15+0252SBUF V0201501N006212200019N0112651N1+03401+01601999999ADDGA1021+009009999GF102991999999999999999999MA1101081999999MW1001REMMET045SBUF 172000Z 15012KT 9999 FEW030 34/16 Q1011;EQDQ01+000000PRSWM2
0091829860999992001011722004-09390-038210FM-15+0252SBUF V0201201N01031220001CN0099001N1+03001+01701999999ADDMA1101191999999MW1001REMMET039SBUF 172200Z 12020KT CAVOK 30/17 Q1012;EQDQ01+000000PRSWM2
0208829860999992001011800004-09390-038210FM-12+0252SBUF V0201401N003112200019N0020001N1+02691+01731101341ADDAA199000091GA1001+999999999GF100991001001999999001001KA1240M+03431MA1999999098501MD1999999+0071REMSYN082AAXX  18004 82986 32995 01406 10269 20173 39850 40134 333 10343 29053 55102 58007;EQDQ01  00002PRCP99
0139829860999992001011809004-09390-038210FM-15+0252SBUF V0201501N003112200019N0112651N1+02201+02001999999ADDGA1021+005409999GF104991999999999999999999MA1101391999999MW1001REMMET045SBUF 180900Z 15006KT 9999 SCT018 22/20 Q1014;EQDQ01+000000PRSWM2
0139829860999992001011810004-09390-038210FM-15+0252SBUF V0201201N004110060019N0112651N1+02301+02001999999ADDGA1071+006009999GF107991999999999999999999MA1101491999999MW1001REMMET045SBUF 181000Z 12008KT 9999 BKN020 23/20 Q1015;EQDQ01+000000PRSWM2
0139829860999992001011811004-09390-038210FM-15+0252SBUF V0201301N005112200019N0112651N1+02501+02001999999ADDGA1021+006009999GF104991999999999999999999MA1101491999999MW1001REMMET045SBUF 181100Z 13010KT 9999 SCT020 25/20 Q1015;EQDQ01+000000PRSWM2
0291829860999992001011812004-09390-038210SY-MT+0252SBUF V0201401N00461006001CN0100001N1+02661+01921101411ADDAA199000091GA1071+006009999GF199999031011008001081001KA1240N+02161MA1101491098571MD1999999+0001MW1001REMSYN076AAXX  18124 82986 32597 61409 10266 20192 39857 40141 83180 333 20216 58000;MET045SBUF 181200Z 14012KT 9999 BKN020 27/19 Q1015;EQDQ01+000062SCOTCVQ02+000000PRSWM2Q03  00002PRCP99
0139829860999992001011813004-09390-038210FM-15+0252SBUF V0201201N007212200019N0112651N1+02901+01901999999ADDGA1021+006009999GF104991999999999999999999MA1101491999999MW1001REMMET045SBUF 181300Z 12014KT 9999 SCT020 29/19 Q1015;EQDQ01+000000PRSWM2
0139829860999992001011814004-09390-038210FM-15+0252SBUF V0201301N006212200019N0112651N1+03001+01901999999ADDGA1021+007509999GF104991999999999999999999MA1101391999999MW1001REMMET045SBUF 181400Z 13012KT 9999 SCT025 30/19 Q1014;EQDQ01+000000PRSWM2
0162829860999992001011815004-09390-038210FM-15+0252SBUF V0201301N006212200019N0112651N1+03201+01801999999ADDGA1021+009009999GA2021+090009999GF104991999999999999999999MA1101291999999MW1001REMMET052SBUF 181500Z 13012KT 9999 SCT030 SCT300 32/18 Q1013;EQDQ01+000000PRSWM2
0162829860999992001011816004-09390-038210FM-15+0252SBUF V0201101N007710900019N0112651N1+03301+01701999999ADDGA1021+009009999GA2071+090009999GF107991999999999999999999MA1101291999999MW1001REMMET052SBUF 181600Z 11015KT 9999 SCT030 BKN300 33/17 Q1013;EQDQ01+000000PRSWM2
0152829860999992001011817004-09390-038210FM-15+0252SBUF V0201501N00771220001CN0112651N1+03401+01901999999ADDGA1071+009009999GA2021+090009999MA1101191999999MW1001REMMET052SBUF 181700Z 15015KT 9999 BKN030 SCT300 34/19 Q1012;EQDQ01+000042SCOTCVQ02+000000PRSWM2
0279829860999992001011818004-09390-038210SY-MT+0252SBUF V0201401N00411006001CN0100001N1+03141+01871101041ADDAA199000091GA1071+006009999GA2071+090009999GF107991051011004501081001MA1101081098201MD1999999+0051MW1001REMSYN070AAXX  18184 82986 32497 71408 10314 20187 39820 40104 85180 333 58005;MET052SBUF 181800Z 13012KT 9999 BKN020 BKN300 32/20 Q1011;EQDQ01+000000PRSWM2Q02  00002PRCP99
0162829860999992001011819004-09390-038210FM-15+0252SBUF V0201201N006210060019N0112651N1+03001+02001999999ADDGA1071+006009999GA2071+090009999GF107991999999999999999999MA1101081999999MW1001REMMET052SBUF 181900Z 12012KT 9999 BKN020 BKN300 30/20 Q1011;EQDQ01+000000PRSWM2
0162829860999992001011820004-09390-038210FM-15+0252SBUF V0201201N009310900019N0112651N1+02901+02001999999ADDGA1021+006009999GA2071+090009999GF107991999999999999999999MA1101191999999MW1001REMMET052SBUF 182000Z 12018KT 9999 SCT020 BKN300 29/20 Q1012;EQDQ01+000000PRSWM2
0162829860999992001011821004-09390-038210FM-15+0252SBUF V0201301N009310240019N0112651N1+02701+02101999999ADDGA1021+006009999GA2071+024009999GF107991999999999999999999MA1101291999999MW1001REMMET052SBUF 182100Z 13018KT 9999 SCT020 BKN080 27/21 Q1013;EQDQ01+000000PRSWM2
0162829860999992001011822004-09390-038210FM-15+0252SBUF V0201601N009312200019N0112651N1+02601+02101999999ADDGA1021+006009999GA2021+024009999GF104991999999999999999999MA1101391999999MW1001REMMET052SBUF 182200Z 16018KT 9999 SCT020 SCT080 26/21 Q1014;EQDQ01+000000PRSWM2
0208829860999992001011900004-09390-038210FM-12+0252SBUF V0201401N003612200019N0010001N1+02641+01981101341ADDAA199000091GA1001+999999999GF100991001001999999001001KA1240M+03291MA1999999098501MD1999999+0001REMSYN082AAXX  19004 82986 32994 01407 10264 20198 39850 40134 333 10329 29061 55078 58000;EQDQ01  00002PRCP99
0162829860999992001011909004-09390-038210FM-15+0252SBUF V0201301N005110270019N0112651N1+02301+02201999999ADDGA1021+005409999GA2071+027009999GF107991999999999999999999MA1101591999999MW1001REMMET052SBUF 190900Z 13010KT 9999 SCT018 BKN090 23/22 Q1016;EQDQ01+000000PRSWM2
0162829860999992001011910004-09390-038210FM-15+0252SBUF V0201501N005110270019N0112651N1+02401+02201999999ADDGA1021+006009999GA2071+027009999GF107991999999999999999999MA1101591999999MW1001REMMET052SBUF 191000Z 15010KT 9999 SCT020 BKN090 24/22 Q1016;EQDQ01+000000PRSWM2
0162829860999992001011911004-09390-038210FM-15+0252SBUF V0201001N006212200019N0112651N1+02601+02101999999ADDGA1021+006009999GA2021+027009999GF104991999999999999999999MA1101691999999MW1001REMMET052SBUF 191100Z 10012KT 9999 SCT020 SCT090 26/21 Q1017;EQDQ01+000000PRSWM2
0275829860999992001011912004-09390-038210SY-MT+0252SBUF V0201401N003110450019N0100001N1+02631+01911101521ADDAA199000091GA1021+006009999GF106991031011008001081011KA1240N+02161MA1101691098671MD1999999+0101MW1001REMSYN076AAXX  19124 82986 32597 61406 10263 20191 39867 40152 83181 333 20216 58010;MET045SBUF 191200Z 13012KT 9999 SCT020 27/20 Q1017;EQDQ01+000000PRSWM2Q02  00002PRCP99
0139829860999992001011913004-09390-038210FM-15+0252SBUF V0201201N005112200019N0112651N1+02901+02001999999ADDGA1021+006009999GF104991999999999999999999MA1101591999999MW1001REMMET045SBUF 191300Z 12010KT 9999 SCT020 29/20 Q1016;EQDQ01+000000PRSWM2
0139829860999992001011914004-09390-038210FM-15+0252SBUF V0201301N008212200019N0112651N1+03001+01901999999ADDGA1021+006009999GF104991999999999999999999MA1101591999999MW1001REMMET045SBUF 191400Z 13016KT 9999 SCT020 30/19 Q1016;EQDQ01+000000PRSWM2
0139829860999992001011915004-09390-038210FM-15+0252SBUF V0201401N006212200019N0112651N1+03201+01701999999ADDGA1021+006009999GF104991999999999999999999MA1101491999999MW1001REMMET045SBUF 191500Z 14012KT 9999 SCT020 32/17 Q1015;EQDQ01+000000PRSWM2
0162829860999992001011916004-09390-038210FM-15+0252SBUF V0201501N007210900019N0112651N1+03301+01701999999ADDGA1021+009009999GA2071+090009999GF107991999999999999999999MA1101391999999MW1001REMMET052SBUF 191600Z 15014KT 9999 SCT030 BKN300 33/17 Q1014;EQDQ01+000000PRSWM2
0162829860999992001011917004-09390-038210FM-15+0252SBUF V0201201N009310900019N0112651N1+03401+01601999999ADDGA1021+009009999GA2071+090009999GF107991999999999999999999MA1101291999999MW1001REMMET052SBUF 191700Z 12018KT 9999 SCT030 BKN300 34/16 Q1013;EQDQ01+000000PRSWM2
0295829860999992001011918004-09390-038210SY-MT+0252SBUF V0200901N00361090001CN0200001N1+03311+01501101121ADDAA199000091GA1021+009009999GA2071+090009999GF199999021011008001001081MA1101191098291MD1999999+0091MW1001REMSYN070AAXX  19184 82986 32598 60907 10331 20150 39829 40112 82108 333 58009;MET052SBUF 191800Z 14015KT 9999 SCT030 BKN300 35/16 Q1012;EQDQ01+000062SCOTCVQ02+000000PRSWM2Q03  00002PRCP99
0162829860999992001011919004-09390-038210FM-15+0252SBUF V0201701N005110900019N0112651N1+03401+01701999999ADDGA1021+009009999GA2071+090009999GF107991999999999999999999MA1101191999999MW1001REMMET052SBUF 191900Z 17010KT 9999 SCT030 BKN300 34/17 Q1012;EQDQ01+000000PRSWM2
0162829860999992001011920004-09390-038210FM-15+0252SBUF V0201501N005110900019N0112651N1+03401+01701999999ADDGA1021+009009999GA2071+090009999GF107991999999999999999999MA1101191999999MW1001REMMET052SBUF 192000Z 15010KT 9999 SCT030 BKN300 34/17 Q1012;EQDQ01+000000PRSWM2
0162829860999992001011921004-09390-038210FM-15+0252SBUF V0201301N006210900019N0112651N1+03201+01701999999ADDGA1021+009009999GA2071+090009999GF107991999999999999999999MA1101191999999MW1001REMMET052SBUF 192100Z 13012KT 9999 FEW030 BKN300 32/17 Q1012;EQDQ01+000000PRSWM2
0162829860999992001011922004-09390-038210FM-15+0252SBUF V0201301N006210900019N0112651N1+03001+01801999999ADDGA1021+009009999GA2071+090009999GF107991999999999999999999MA1101291999999MW1001REMMET052SBUF 192200Z 13012KT 9999 FEW030 BKN300 30/18 Q1013;EQDQ01+000000PRSWM2
0198829860999992001012000004-09390-038210FM-12+0252SBUF V0201401N006212200019N0020001N1+02691+01941101371ADDAA199000091GF102991021021012501001001KA1240M+03381MA1999999098531MD1999999+0031REMSYN088AAXX  20004 82986 32695 21412 10269 20194 39853 40137 82200 333 10338 29052 55095 58003;EQDQ01  00002PRCP99
0162829860999992001012009004-09390-038210FM-15+0252SBUF V0201501N004112200019N0112651N1+02301+02201999999ADDGA1021+003009999GA2021+004509999GF104991999999999999999999MA1101491999999MW1001REMMET052SBUF 200900Z 15008KT 9999 FEW010 SCT015 23/22 Q1015;EQDQ01+000000PRSWM2
0162829860999992001012010004-09390-038210FM-15+0252SBUF V0201601N004112200019N0112651N1+02401+02101999999ADDGA1021+003009999GA2021+006009999GF104991999999999999999999MA1101591999999MW1001REMMET052SBUF 201000Z 16008KT 9999 FEW010 SCT020 24/21 Q1016;EQDQ01+000000PRSWM2
0139829860999992001012011004-09390-038210FM-15+0252SBUF V0201201N005112200019N0112651N1+02701+02101999999ADDGA1021+006009999GF102991999999999999999999MA1101691999999MW1001REMMET045SBUF 201100Z 12010KT 9999 FEW020 27/21 Q1017;EQDQ01+000000PRSWM2
0275829860999992001012012004-09390-038210SY-MT+0252SBUF V0201401N003612200019N0100001N1+02731+01951101571ADDAA199000091GA1021+006009999GF106991031021008001061001KA1240N+02191MA1101691098731MD1999999+0061MW1001REMSYN076AAXX  20124 82986 32597 61407 10273 20195 39873 40157 83260 333 20219 58006;MET045SBUF 201200Z 15010KT 9999 SCT020 28/20 Q1017;EQDQ01+000000PRSWM2Q02  00002PRCP99
0139829860999992001012013004-09390-038210FM-15+0252SBUF V0201501N005112200019N0112651N1+03001+02001999999ADDGA1021+007509999GF104991999999999999999999MA1101691999999MW1001REMMET045SBUF 201300Z 15010KT 9999 SCT025 30/20 Q1017;EQDQ01+000000PRSWM2
0139829860999992001012014004-09390-038210FM-15+0252SBUF V0201301N006212200019N0112651N1+03101+01901999999ADDGA1021+009009999GF104991999999999999999999MA1101591999999MW1001REMMET045SBUF 201400Z 13012KT 9999 SCT030 31/19 Q1016;EQDQ01+000000PRSWM2
0140829860999992001012016004-09390-038210FM-15+0252SBUF V0201201N005112200019N0112651N1+03301+01801999999ADDGA1021+009009999GF104991999999999999999999MA1101391999999MW1001REMMET046SBUF 201600Z 12010KT 9999 SCT030 33/18 Q1014 ;EQDQ01+000000PRSWM2
0139829860999992001012017084-09390-038210FM-15+0252SBUF V0201301N004112200019N0112651N1+03401+01701999999ADDGA1021+009009999GF104991999999999999999999MA1101191999999MW1001REMMET045SBUF 201708Z 13008KT 9999 SCT030 34/17 Q1012;EQDQ01+000000PRSWM2
0167829860999992001012018004-09390-038210FM-12+0252SBUF V0201401N002612200019N0200001N1+03351+01581101101ADDAA199000091GF104991031021012501031001MA1999999098271MD1999999-0021REMSYN070AAXX  20184 82986 32698 41405 10335 20158 39827 40110 83230 333 59002;EQDQ01  00002PRCP99
0139829860999992001012019004-09390-038210FM-15+0252SBUF V0201601N004112200019N0112651N1+03301+01701999999ADDGA1021+009009999GF104991999999999999999999MA1101081999999MW1001REMMET045SBUF 201900Z 16008KT 9999 SCT030 33/17 Q1011;EQDQ01+000000PRSWM2
0139829860999992001012020004-09390-038210FM-15+0252SBUF V0201301N002612200019N0112651N1+03301+01801999999ADDGA1021+006009999GF102991999999999999999999MA1101081999999MW1001REMMET045SBUF 202000Z 13005KT 9999 FEW020 33/18 Q1011;EQDQ01+000000PRSWM2
0139829860999992001012021004-09390-038210FM-15+0252SBUF V0201101N004112200019N0112651N1+03201+01801999999ADDGA1021+006009999GF102991999999999999999999MA1101081999999MW1001REMMET045SBUF 202100Z 11008KT 9999 FEW020 32/18 Q1011;EQDQ01+000000PRSWM2
0208829860999992001012100004-09390-038210FM-12+0252SBUF V0201401N007712200019N0020001N1+02801+01751101261ADDAA199000091GA1001+999999999GF100991001001999999001001KA1240M+03401MA1999999098421MD1999999-0111REMSYN082AAXX  21004 82986 32995 01415 10280 20175 39842 40126 333 10340 29051 55105 59011;EQDQ01  00002PRCP99
0162829860999992001012109004-09390-038210FM-15+0252SBUF V0201601N004112200019N0112651N1+02201+02101999999ADDGA1021+003609999GA2021+090009999GF104991999999999999999999MA1101491999999MW1001REMMET052SBUF 210900Z 16008KT 9999 FEW012 SCT300 22/21 Q1015;EQDQ01+000000PRSWM2
0162829860999992001012110004-09390-038210FM-15+0252SBUF V0201301N004112200019N0112651N1+02401+02001999999ADDGA1021+003609999GA2021+090009999GF104991999999999999999999MA1101491999999MW1001REMMET052SBUF 211000Z 13008KT 9999 FEW012 SCT300 24/20 Q1015;EQDQ01+000000PRSWM2
0162829860999992001012111004-09390-038210FM-15+0252SBUF V0201201N004112200019N0112651N1+02601+02001999999ADDGA1021+006009999GA2021+090009999GF104991999999999999999999MA1101591999999MW1001REMMET052SBUF 211100Z 12008KT 9999 FEW020 SCT300 26/20 Q1016;EQDQ01+000000PRSWM2
0202829860999992001012112004-09390-038210FM-12+0252SBUF V0201401N003112200019N0200001N1+02641+01751101441ADDAA199000091GF102991001001999999001021KA1240N+02161MA1999999098601MD1999999-0131REMSYN076AAXX  21124 82986 32998 21406 10264 20175 39860 40144 82002 333 20216 59013;EQDQ01+000022SCOTLCQ02  00002PRCP99
0162829860999992001012113004-09390-038210FM-15+0252SBUF V0201301N004112200019N0112651N1+02901+01801999999ADDGA1021+006009999GA2021+090009999GF104991999999999999999999MA1101491999999MW1001REMMET052SBUF 211300Z 13008KT 9999 FEW020 SCT300 29/18 Q1015;EQDQ01+000000PRSWM2
0178829860999992001012114004-09390-038210FM-15+0252SBUF V0201001N004112200019N0112651N1+99999+01801999999ADDGA1021+006009999GA2021+090009999GF104991999999999999999999MA1101491999999MW1001REMMET052SBUF 211400Z 10008KT 9999 FEW020 SCT300 20/18 Q1015;EQDQ01+002003ATOT  Q02+000000PRSWM2
0162829860999992001012115004-09390-038210FM-15+0252SBUF V0201001N002612200019N0112651N1+03201+01701999999ADDGA1021+006009999GA2021+090009999GF104991999999999999999999MA1101291999999MW1001REMMET052SBUF 211500Z 10005KT 9999 FEW020 SCT300 32/17 Q1013;EQDQ01+000000PRSWM2
0139829860999992001012116004-09390-038210FM-15+0252SBUF V0201301N004112200019N0112651N1+03301+01701999999ADDGA1021+006009999GF102991999999999999999999MA1101291999999MW1001REMMET045SBUF 211600Z 13008KT 9999 FEW020 33/17 Q1013;EQDQ01+000000PRSWM2
0139829860999992001012117004-09390-038210FM-15+0252SBUF V0201501N004112200019N0112651N1+03401+01601999999ADDGA1021+006009999GF104991999999999999999999MA1101191999999MW1001REMMET045SBUF 211700Z 15008KT 9999 SCT020 34/16 Q1012;EQDQ01+000000PRSWM2
0167829860999992001012118004-09390-038210FM-12+0252SBUF V0201801N002612200019N0500001N1+03361+01601100961ADDAA199000091GF104991011011008001081011MA1999999098141MD1999999-0131REMSYN070AAXX  21184 82986 32599 41805 10336 20160 39814 40096 81181 333 59013;EQDQ01  00002PRCP99
0139829860999992001012119004-09390-038210FM-15+0252SBUF V0201401N002612200019N0112651N1+03501+01601999999ADDGA1021+006009999GF102991999999999999999999MA1101021999999MW1001REMMET045SBUF 211900Z 14005KT 9999 FEW020 35/16 Q1010;EQDQ01+000000PRSWM2
0139829860999992001012120004-09390-038210FM-15+0252SBUF V0201401N004112200019N0112651N1+03401+01601999999ADDGA1021+006009999GF102991999999999999999999MA1101021999999MW1001REMMET045SBUF 212000Z 14008KT 9999 FEW020 34/16 Q1010;EQDQ01+000000PRSWM2
0139829860999992001012121004-09390-038210FM-15+0252SBUF V0201301N006212200019N0112651N1+03301+01601999999ADDGA1021+006009999GF102991999999999999999999MA1101021999999MW1001REMMET045SBUF 212100Z 13012KT 9999 FEW020 33/16 Q1010;EQDQ01+000000PRSWM2
0208829860999992001012200004-09390-038210FM-12+0252SBUF V0201401N005112200019N0020001N1+02801+01901101211ADDAA199000091GA1001+999999999GF100991001001999999001001KA1240M+03451MA1999999098381MD1999999-0041REMSYN082AAXX  22004 82986 32995 01410 10280 20190 39838 40121 333 10345 29052 55110 59004;EQDQ01  00002PRCP99
0162829860999992001012209004-09390-038210FM-15+0252SBUF V0201301N004112200019N0112651N1+02301+02101999999ADDGA1021+006009999GA2021+030009999GF104991999999999999999999MA1101491999999MW1001REMMET052SBUF 220900Z 13008KT 9999 FEW020 SCT100 23/21 Q1015;EQDQ01+000000PRSWM2
0162829860999992001012210004-09390-038210FM-15+0252SBUF V0201501N004112200019N0112651N1+02401+02101999999ADDGA1021+006009999GA2021+030009999GF104991999999999999999999MA1101591999999MW1001REMMET052SBUF 221000Z 15008KT 9999 FEW020 SCT100 24/21 Q1016;EQDQ01+000000PRSWM2
0162829860999992001012211004-09390-038210FM-15+0252SBUF V0201301N004112200019N0112651N1+02601+02001999999ADDGA1021+006009999GA2021+030009999GF104991999999999999999999MA1101591999999MW1001REMMET052SBUF 221100Z 13008KT 9999 FEW020 SCT100 26/20 Q1016;EQDQ01+000000PRSWM2
0247829860999992001012212004-09390-038210SY-MT+0252SBUF V0201401N003112200019N0200001N1+02731+01621101471ADDAA199000091GF100991001001999999001001KA1240N+02281MA1101591098631MD1999999+0031MW1001REMSYN070AAXX  22124 82986 32998 01406 10273 20162 39863 40147 333 20228 58003;MET039SBUF 221200Z 10008KT CAVOK 27/19 Q1016;EQDQ01+000000PRSWM2Q02  00002PRCP99
0091829860999992001012213004-09390-038210FM-15+0252SBUF V0201501N00411220001CN0099001N1+02901+01901999999ADDMA1101591999999MW1001REMMET039SBUF 221300Z 15008KT CAVOK 29/19 Q1016;EQDQ01+000000PRSWM2
0091829860999992001012214004-09390-038210FM-15+0252SBUF V0201801N00461220001CN0099001N1+03101+01701999999ADDMA1101491999999MW1001REMMET039SBUF 221400Z 18009KT CAVOK 31/17 Q1015;EQDQ01+000000PRSWM2
0139829860999992001012215004-09390-038210FM-15+0252SBUF V0201501N005112200019N0112651N1+03201+01601999999ADDGA1021+006009999GF104991999999999999999999MA1101391999999MW1001REMMET045SBUF 221500Z 15010KT 9999 SCT020 32/16 Q1014;EQDQ01+000000PRSWM2
0139829860999992001012216004-09390-038210FM-15+0252SBUF V0200901N004112200019N0112651N1+03301+01601999999ADDGA1021+009009999GF102991999999999999999999MA1101291999999MW1001REMMET045SBUF 221600Z 09008KT 9999 FEW030 33/16 Q1013;EQDQ01+000000PRSWM2
0139829860999992001012217004-09390-038210FM-15+0252SBUF V0201201N005112200019N0112651N1+03401+01601999999ADDGA1021+009009999GF102991999999999999999999MA1101191999999MW1001REMMET045SBUF 221700Z 12010KT 9999 FEW030 34/16 Q1012;EQDQ01+000000PRSWM2
0256829860999992001012218004-09390-038210SY-MT+0252SBUF V0201401N002112200019N0500001N1+03391+01531101021ADDAA199000091GA1021+006009999GF105991021011008001081001MA1101081098201MD1999999+0061MW1001REMSYN070AAXX  22184 82986 32599 51404 10339 20153 39820 40102 82180 333 58006;MET045SBUF 221800Z 12010KT 9999 FEW020 35/16 Q1011;EQDQ01+000000PRSWM2Q02  00002PRCP99
0139829860999992001012220004-09390-038210FM-15+0252SBUF V0201301N004112200019N0112651N1+03501+01601999999ADDGA1021+009009999GF102991999999999999999999MA1101021999999MW1001REMMET045SBUF 222000Z 13008KT 9999 FEW030 35/16 Q1010;EQDQ01+000000PRSWM2
0091829860999992001012221004-09390-038210FM-15+0252SBUF V0201301N00621220001CN0099001N1+03301+01801999999ADDMA1101021999999MW1001REMMET039SBUF 222100Z 13012KT CAVOK 33/18 Q1010;EQDQ01+000000PRSWM2
0091829860999992001012222004-09390-038210FM-15+0252SBUF V0201301N00621220001CN0099001N1+03101+01801999999ADDMA1101081999999MW1001REMMET039SBUF 222200Z 13012KT CAVOK 31/18 Q1011;EQDQ01+000000PRSWM2
0208829860999992001012300004-09390-038210FM-12+0252SBUF V0201401N005112200019N0020001N1+02791+01811101241ADDAA199000091GA1001+999999999GF100991001001999999001001KA1240M+03471MA1999999098401MD1999999+0021REMSYN082AAXX  23004 82986 32995 01410 10279 20181 39840 40124 333 10347 29048 55105 58002;EQDQ01  00002PRCP99
0139829860999992001012309004-09390-038210FM-15+0252SBUF V0201501N003112200019N0112651N1+02301+02001999999ADDGA1021+006009999GF102991999999999999999999MA1101491999999MW1001REMMET045SBUF 230900Z 15006KT 9999 FEW020 23/20 Q1015;EQDQ01+000000PRSWM2
0139829860999992001012311004-09390-038210FM-15+0252SBUF V0201901N004112200019N0112651N1+02601+02001999999ADDGA1021+006009999GF102991999999999999999999MA1101591999999MW1001REMMET045SBUF 231100Z 19008KT 9999 FEW020 26/20 Q1016;EQDQ01+000000PRSWM2
0275829860999992001012312004-09390-038210SY-MT+0252SBUF V0200901N003112200019N0100001N1+02701+01801101501ADDAA199000091GA1021+006009999GF103991021011012501061001KA1240N+02191MA1101591098661MD1999999+0031MW1001REMSYN076AAXX  23124 82986 32697 30906 10270 20180 39866 40150 82160 333 20219 58003;MET045SBUF 231200Z 10010KT 9999 FEW020 28/19 Q1016;EQDQ01+000000PRSWM2Q02  00002PRCP99
0139829860999992001012313004-09390-038210FM-15+0252SBUF V0201401N006212200019N0112651N1+02901+01901999999ADDGA1021+006009999GF102991999999999999999999MA1101591999999MW1001REMMET045SBUF 231300Z 14012KT 9999 FEW020 29/19 Q1016;EQDQ01+000000PRSWM2
0139829860999992001012314004-09390-038210FM-15+0252SBUF V0201301N006212200019N0112651N1+03101+01901999999ADDGA1021+006009999GF102991999999999999999999MA1101591999999MW1001REMMET045SBUF 231400Z 13012KT 9999 FEW020 31/19 Q1016;EQDQ01+000000PRSWM2
0140829860999992001012315004-09390-038210FM-15+0252SBUF V0201131N006212200019N0112651N1+03201+01801999999ADDGA1021+009009999GF102991999999999999999999MA1101491999999MW1001REMMET046SBUF 231500Z 113012KT 9999 FEW030 32/18 Q1015;EQDQ01+000000PRSWM2
0139829860999992001012316004-09390-038210FM-15+0252SBUF V0200701N005112200019N0112651N1+03301+01701999999ADDGA1021+006009999GF102991999999999999999999MA1101391999999MW1001REMMET045SBUF 231600Z 07010KT 9999 FEW020 33/17 Q1014;EQDQ01+000000PRSWM2
0139829860999992001012317004-09390-038210FM-15+0252SBUF V0201401N006212200019N0112651N1+03501+01601999999ADDGA1021+006009999GF102991999999999999999999MA1101191999999MW1001REMMET045SBUF 231700Z 14012KT 9999 FEW020 35/16 Q1012;EQDQ01+000000PRSWM2
0256829860999992001012318004-09390-038210SY-MT+0252SBUF V0201401N005112200019N0500001N1+03401+01681101021ADDAA199000091GA1021+009009999GF103991031001012501061001MA1101081098201MD1999999+0001MW1001REMSYN070AAXX  23184 82986 32699 31410 10340 20168 39820 40102 83060 333 58000;MET045SBUF 231800Z 12016KT 9999 FEW030 35/17 Q1011;EQDQ01+000000PRSWM2Q02  00002PRCP99
0139829860999992001012319004-09390-038210FM-15+0252SBUF V0201001N007712200019N0112651N1+03401+01801999999ADDGA1021+009009999GF104991999999999999999999MA1101081999999MW1001REMMET045SBUF 231900Z 10015KT 9999 SCT030 34/18 Q1011;EQDQ01+000000PRSWM2
0139829860999992001012320004-09390-038210FM-15+0252SBUF V0201101N005112200019N0112651N1+03301+01801999999ADDGA1021+006009999GF102991999999999999999999MA1101081999999MW1001REMMET045SBUF 232000Z 11010KT 9999 FEW020 33/18 Q1011;EQDQ01+000000PRSWM2
0139829860999992001012321004-09390-038210FM-15+0252SBUF V0201301N006212200019N0112651N1+03201+01801999999ADDGA1021+006009999GF102991999999999999999999MA1101081999999MW1001REMMET045SBUF 232100Z 13012KT 9999 FEW020 32/18 Q1011;EQDQ01+000000PRSWM2
0139829860999992001012322004-09390-038210FM-15+0252SBUF V0201301N009312200019N0112651N1+03001+01901999999ADDGA1021+006009999GF102991999999999999999999MA1101191999999MW1001REMMET045SBUF 232200Z 13018KT 9999 FEW020 30/19 Q1012;EQDQ01+000000PRSWM2
0208829860999992001012400004-09390-038210FM-12+0252SBUF V0201401N006212200019N0020001N1+02751+01671101241ADDAA199000091GA1001+999999999GF100991001001999999001001KA1240M+03441MA1999999098401MD1999999+0001REMSYN082AAXX  24004 82986 32995 01412 10275 20167 39840 40124 333 10344 29049 55107 58000;EQDQ01  00002PRCP99
0091829860999992001012409004-09390-038210FM-15+0252SBUF V0201501N00411220001CN0099001N1+02201+01901999999ADDMA1101491999999MW1001REMMET039SBUF 240900Z 15008KT CAVOK 22/19 Q1015;EQDQ01+000000PRSWM2
0139829860999992001012410004-09390-038210FM-15+0252SBUF V0201601N005112200019N0112651N1+02401+01901999999ADDGA1021+006009999GF102991999999999999999999MA1101491999999MW1001REMMET045SBUF 241000Z 16010KT 9999 FEW020 24/19 Q1015;EQDQ01+000000PRSWM2
0139829860999992001012411004-09390-038210FM-15+0252SBUF V0201201N005112200019N0112651N1+02601+01801999999ADDGA1021+006009999GF102991999999999999999999MA1101591999999MW1001REMMET045SBUF 241100Z 12010KT 9999 FEW020 26/18 Q1016;EQDQ01+000000PRSWM2
0275829860999992001012412004-09390-038210SY-MT+0252SBUF V0200901N003612200019N0100001N1+02711+01911101471ADDAA199000091GA1021+006009999GF104991021011008001081001KA1240N+02201MA1101591098631MD1999999-0031MW1001REMSYN076AAXX  24124 82986 32597 40907 10271 20191 39863 40147 82180 333 20220 59003;MET045SBUF 241200Z 14010KT 9999 FEW020 28/20 Q1016;EQDQ01+000000PRSWM2Q02  00002PRCP99
0139829860999992001012413004-09390-038210FM-15+0252SBUF V0201501N005112200019N0112651N1+02901+01901999999ADDGA1021+006009999GF102991999999999999999999MA1101591999999MW1001REMMET045SBUF 241300Z 15010KT 9999 FEW020 29/19 Q1016;EQDQ01+000000PRSWM2
0139829860999992001012414004-09390-038210FM-15+0252SBUF V0201101N005112200019N0112651N1+03101+01901999999ADDGA1021+006009999GF102991999999999999999999MA1101491999999MW1001REMMET045SBUF 241400Z 11010KT 9999 FEW020 31/19 Q1015;EQDQ01+000000PRSWM2
0139829860999992001012415004-09390-038210FM-15+0252SBUF V0201201N005112200019N0112651N1+03201+01801999999ADDGA1021+006009999GF102991999999999999999999MA1101391999999MW1001REMMET045SBUF 241500Z 12010KT 9999 FEW020 32/18 Q1014;EQDQ01+000000PRSWM2
0139829860999992001012416004-09390-038210FM-15+0252SBUF V0201201N005112200019N0112651N1+03301+01801999999ADDGA1021+006009999GF104991999999999999999999MA1101291999999MW1001REMMET045SBUF 241600Z 12010KT 9999 SCT020 33/18 Q1013;EQDQ01+000000PRSWM2
0256829860999992001012418004-09390-038210SY-MT+0252SBUF V0201401N004612200019N0200001N1+03411+01811101021ADDAA199000091GA1021+006009999GF104991021011008001061011MA1101081098201MD1999999+0001MW1001REMSYN070AAXX  24184 82986 32598 41409 10341 20181 39820 40102 82161 333 58000;MET045SBUF 241800Z 14010KT 9999 SCT020 34/19 Q1011;EQDQ01+000000PRSWM2Q02  00002PRCP99
0139829860999992001012419004-09390-038210FM-15+0252SBUF V0201301N005112200019N0112651N1+03501+01801999999ADDGA1021+006009999GF104991999999999999999999MA1101081999999MW1001REMMET045SBUF 241900Z 13010KT 9999 SCT020 35/18 Q1011;EQDQ01+000000PRSWM2
0139829860999992001012420004-09390-038210FM-15+0252SBUF V0201501N007712200019N0112651N1+03401+01901999999ADDGA1021+006009999GF104991999999999999999999MA1101081999999MW1001REMMET045SBUF 242000Z 15015KT 9999 SCT020 34/19 Q1011;EQDQ01+000000PRSWM2
0139829860999992001012421004-09390-038210FM-15+0252SBUF V0201301N005112200019N0112651N1+03301+01801999999ADDGA1021+006009999GF102991999999999999999999MA1101191999999MW1001REMMET045SBUF 242100Z 13010KT 9999 FEW020 33/18 Q1012;EQDQ01+000000PRSWM2
0139829860999992001012422004-09390-038210FM-15+0252SBUF V0201301N005112200019N0112651N1+03101+01901999999ADDGA1021+006009999GF102991999999999999999999MA1101291999999MW1001REMMET045SBUF 242200Z 13010KT 9999 FEW020 31/19 Q1013;EQDQ01+000000PRSWM2
0208829860999992001012500004-09390-038210FM-12+0252SBUF V0201401N006712200019N0020001N1+02671+01921101341ADDAA199000091GA1001+999999999GF100991001001999999001001KA1240M+03471MA1999999098501MD1999999+0101REMSYN082AAXX  25004 82986 32995 01413 10267 20192 39850 40134 333 10347 29057 55105 58010;EQDQ01  00002PRCP99
0139829860999992001012509004-09390-038210FM-15+0252SBUF V0201301N002612200019N0112651N1+02301+02001999999ADDGA1021+006009999GF102991999999999999999999MA1101491999999MW1001REMMET045SBUF 250900Z 13005KT 9999 FEW020 23/20 Q1015;EQDQ01+000000PRSWM2
0139829860999992001012510004-09390-038210FM-15+0252SBUF V0201301N005112200019N0112651N1+02401+02101999999ADDGA1021+006009999GF102991999999999999999999MA1101591999999MW1001REMMET045SBUF 251000Z 13010KT 9999 FEW020 24/21 Q1016;EQDQ01+000000PRSWM2
0139829860999992001012511004-09390-038210FM-15+0252SBUF V0201001N002612200019N0112651N1+02501+02101999999ADDGA1021+006009999GF104991999999999999999999MA1101591999999MW1001REMMET045SBUF 251100Z 10005KT 9999 SCT020 25/21 Q1016;EQDQ01+000000PRSWM2
0186829860999992001012512004-09390-038210FM-12+0252SBUF V0200901N003111050019N0100001N1+02661+01951101511ADDAA199000091GF105991021011008001081011KA1240N+02231MA1999999098661MD1999999+0031REMSYN076AAXX  25124 82986 32597 50906 10266 20195 39866 40151 82181 333 20223 58003;EQDQ01  00002PRCP99
0139829860999992001012513004-09390-038210FM-15+0252SBUF V0201201N004112200019N0112651N1+02801+02001999999ADDGA1021+006009999GF104991999999999999999999MA1101591999999MW1001REMMET045SBUF 251300Z 12008KT 9999 SCT020 28/20 Q1016;EQDQ01+000000PRSWM2
0139829860999992001012514004-09390-038210FM-15+0252SBUF V0201001N004112200019N0112651N1+03001+02001999999ADDGA1021+006009999GF104991999999999999999999MA1101491999999MW1001REMMET045SBUF 251400Z 10008KT 9999 SCT020 30/20 Q1015;EQDQ01+000000PRSWM2
0139829860999992001012515004-09390-038210FM-15+0252SBUF V0201201N005112200019N0112651N1+03201+01901999999ADDGA1021+006009999GF104991999999999999999999MA1101391999999MW1001REMMET045SBUF 251500Z 12010KT 9999 SCT020 32/19 Q1014;EQDQ01+000000PRSWM2
0139829860999992001012516004-09390-038210FM-15+0252SBUF V0201201N005112200019N0112651N1+03301+01901999999ADDGA1021+009009999GF104991999999999999999999MA1101291999999MW1001REMMET045SBUF 251600Z 12010KT 9999 SCT030 33/19 Q1013;EQDQ01+000000PRSWM2
0139829860999992001012517004-09390-038210FM-15+0252SBUF V0201301N003112200019N0112651N1+03301+01801999999ADDGA1021+009009999GF104991999999999999999999MA1101191999999MW1001REMMET045SBUF 251700Z 13006KT 9999 SCT030 33/18 Q1012;EQDQ01+000000PRSWM2
0256829860999992001012518004-09390-038210SY-MT+0252SBUF V0201401N001512200019N0500001N1+03331+01571100961ADDAA199000091GA1021+009009999GF104991041011008001001001MA1101081098151MD1999999-0051MW1001REMSYN070AAXX  25184 82986 32599 41403 10333 20157 39815 40096 84100 333 59005;MET045SBUF 251800Z 12010KT 9999 SCT030 34/17 Q1011;EQDQ01+000000PRSWM2Q02  00002PRCP99
0139829860999992001012519004-09390-038210FM-15+0252SBUF V0201201N006212200019N0112651N1+03501+01501999999ADDGA1021+009009999GF102991999999999999999999MA1101021999999MW1001REMMET045SBUF 251900Z 12012KT 9999 FEW030 35/15 Q1010;EQDQ01+000000PRSWM2
0139829860999992001012520004-09390-038210FM-15+0252SBUF V0201301N004112200019N0112651N1+03401+01701999999ADDGA1021+009009999GF102991999999999999999999MA1101081999999MW1001REMMET045SBUF 252000Z 13008KT 9999 FEW030 34/17 Q1011;EQDQ01+000000PRSWM2
0091829860999992001012522004-09390-038210FM-15+0252SBUF V0201301N00621220001CN0099001N1+03101+01801999999ADDMA1101081999999MW1001REMMET039SBUF 252200Z 13012KT CAVOK 31/18 Q1011;EQDQ01+000000PRSWM2
0208829860999992001012600004-09390-038210FM-12+0252SBUF V0200901N006212200019N0020001N1+02781+01821101271ADDAA199000091GA1001+999999999GF100991001001999999001001KA1240M+03421MA1999999098441MD1999999-0061REMSYN082AAXX  26004 82986 32995 00912 10278 20182 39844 40127 333 10342 29053 55105 59006;EQDQ01  00002PRCP99
0139829860999992001012609004-09390-038210FM-15+0252SBUF V0201501N002612200019N0112651N1+02201+02101999999ADDGA1021+006009999GF102991999999999999999999MA1101491999999MW1001REMMET045SBUF 260900Z 15005KT 9999 FEW020 22/21 Q1015;EQDQ01+000000PRSWM2
0139829860999992001012610004-09390-038210FM-15+0252SBUF V0201401N004112200019N0112651N1+02401+02101999999ADDGA1021+006009999GF102991999999999999999999MA1101591999999MW1001REMMET045SBUF 261000Z 14008KT 9999 FEW020 24/21 Q1016;EQDQ01+000000PRSWM2
0139829860999992001012611004-09390-038210FM-15+0252SBUF V0201301N004112200019N0112651N1+02601+02001999999ADDGA1021+006009999GF102991999999999999999999MA1101591999999MW1001REMMET045SBUF 261100Z 13008KT 9999 FEW020 26/20 Q1016;EQDQ01+000000PRSWM2
0275829860999992001012612004-09390-038210SY-MT+0252SBUF V0201401N003112200019N0200001N1+02681+01811101461ADDAA199000091GA1021+006009999GF102991021011008001001001KA1240N+02221MA1101591098621MD1999999-0041MW1001REMSYN076AAXX  26124 82986 32598 21406 10268 20181 39862 40146 82100 333 20222 59004;MET045SBUF 261200Z 12008KT 9999 FEW020 27/19 Q1016;EQDQ01+000000PRSWM2Q02  00002PRCP99
0139829860999992001012613004-09390-038210FM-15+0252SBUF V0201201N005112200019N0112651N1+03001+01801999999ADDGA1021+007509999GF102991999999999999999999MA1101491999999MW1001REMMET045SBUF 261300Z 12010KT 9999 FEW025 30/18 Q1015;EQDQ01+000000PRSWM2
0139829860999992001012614004-09390-038210FM-15+0252SBUF V0201401N005112200019N0112651N1+03101+01801999999ADDGA1021+006009999GF102991999999999999999999MA1101491999999MW1001REMMET045SBUF 261400Z 14010KT 9999 FEW020 31/18 Q1015;EQDQ01+000000PRSWM2
0139829860999992001012615004-09390-038210FM-15+0252SBUF V0201301N004112200019N0112651N1+03301+01801999999ADDGA1021+009009999GF104991999999999999999999MA1101391999999MW1001REMMET045SBUF 261500Z 13008KT 9999 SCT030 33/18 Q1014;EQDQ01+000000PRSWM2
0139829860999992001012616004-09390-038210FM-15+0252SBUF V0201501N005112200019N0112651N1+03301+01701999999ADDGA1021+006009999GF104991999999999999999999MA1101291999999MW1001REMMET045SBUF 261600Z 15010KT 9999 SCT020 33/17 Q1013;EQDQ01+000000PRSWM2
0139829860999992001012617004-09390-038210FM-15+0252SBUF V0201301N003112200019N0112651N1+03501+01701999999ADDGA1021+006009999GF104991999999999999999999MA1101191999999MW1001REMMET045SBUF 261700Z 13006KT 9999 SCT020 35/17 Q1012;EQDQ01+000000PRSWM2
0256829860999992001012618004-09390-038210SY-MT+0252SBUF V0201401N002612200019N0500001N1+03391+01711101021ADDAA199000091GA1021+006009999GF103991031011008001001001MA1101081098201MD1999999+0051MW1001REMSYN070AAXX  26184 82986 32599 31405 10339 20171 39820 40102 83100 333 58005;MET045SBUF 261800Z 12010KT 9999 SCT020 35/17 Q1011;EQDQ01+000000PRSWM2Q02  00002PRCP99
0139829860999992001012619004-09390-038210FM-15+0252SBUF V0201301N005112200019N0112651N1+03501+01701999999ADDGA1021+006009999GF104991999999999999999999MA1101081999999MW1001REMMET045SBUF 261900Z 13010KT 9999 SCT020 35/17 Q1011;EQDQ01+000000PRSWM2
0139829860999992001012620004-09390-038210FM-15+0252SBUF V0201301N006212200019N0112651N1+03401+01701999999ADDGA1021+006009999GF102991999999999999999999MA1101021999999MW1001REMMET045SBUF 262000Z 13012KT 9999 FEW020 34/17 Q1010;EQDQ01+000000PRSWM2
0139829860999992001012621004-09390-038210FM-15+0252SBUF V0201401N005112200019N0112651N1+03301+01601999999ADDGA1021+006009999GF102991999999999999999999MA1101021999999MW1001REMMET045SBUF 262100Z 14010KT 9999 FEW020 33/16 Q1010;EQDQ01+000000PRSWM2
0091829860999992001012622004-09390-038210FM-15+0252SBUF V0201101N00821220001CN0099001N1+03101+01601999999ADDMA1101081999999MW1001REMMET039SBUF 262200Z 11016KT CAVOK 31/16 Q1011;EQDQ01+000000PRSWM2
0208829860999992001012700004-09390-038210FM-12+0252SBUF V0200901N006712200019N0010001N1+02821+01711101241ADDAA199000091GA1001+999999999GF100991001001999999001001KA1240M+03441MA1999999098401MD1999999-0041REMSYN082AAXX  27004 82986 32994 00913 10282 20171 39840 40124 333 10344 29049 55112 59004;EQDQ01  00002PRCP99
0139829860999992001012709004-09390-038210FM-15+0252SBUF V0201501N002612200019N0112651N1+02301+02101999999ADDGA1021+003009999GF102991999999999999999999MA1101391999999MW1001REMMET045SBUF 270900Z 15005KT 9999 FEW010 23/21 Q1014;EQDQ01+000000PRSWM2
0139829860999992001012710004-09390-038210FM-15+0252SBUF V0201201N004112200019N0112651N1+02401+02001999999ADDGA1021+003009999GF104991999999999999999999MA1101491999999MW1001REMMET045SBUF 271000Z 12008KT 9999 SCT010 24/20 Q1015;EQDQ01+000000PRSWM2
0162829860999992001012711004-09390-038210FM-15+0252SBUF V0201401N002112200019N0112651N1+02601+02001999999ADDGA1021+003009999GA2021+006009999GF104991999999999999999999MA1101491999999MW1001REMMET052SBUF 271100Z 14004KT 9999 FEW010 SCT020 26/20 Q1015;EQDQ01+000000PRSWM2
0275829860999992001012712004-09390-038210SY-MT+0252SBUF V0200901N002110450019N0100001N1+02711+01911101381ADDAA199000091GA1021+006009999GF106991041021004501081001KA1240N+02251MA1101491098541MD1999999-0081MW1001REMSYN076AAXX  27124 82986 32497 60904 10271 20191 39854 40138 84280 333 20225 59008;MET045SBUF 271200Z 15008KT 9999 SCT020 27/20 Q1015;EQDQ01+000000PRSWM2Q02  00002PRCP99
0139829860999992001012713004-09390-038210FM-15+0252SBUF V0200901N004112200019N0112651N1+02901+01901999999ADDGA1021+006009999GF104991999999999999999999MA1101491999999MW1001REMMET045SBUF 271300Z 09008KT 9999 SCT020 29/19 Q1015;EQDQ01+000000PRSWM2
0139829860999992001012714004-09390-038210FM-15+0252SBUF V0201401N004112200019N0112651N1+03101+01801999999ADDGA1021+006009999GF104991999999999999999999MA1101391999999MW1001REMMET045SBUF 271400Z 14008KT 9999 SCT020 31/18 Q1014;EQDQ01+000000PRSWM2
0139829860999992001012715004-09390-038210FM-15+0252SBUF V0201801N004112200019N0112651N1+03201+01901999999ADDGA1021+009009999GF104991999999999999999999MA1101291999999MW1001REMMET045SBUF 271500Z 18008KT 9999 SCT030 32/19 Q1013;EQDQ01+000000PRSWM2
0139829860999992001012716004-09390-038210FM-15+0252SBUF V0201101N005112200019N0112651N1+03301+01801999999ADDGA1021+006009999GF104991999999999999999999MA1101291999999MW1001REMMET045SBUF 271600Z 11010KT 9999 SCT020 33/18 Q1013;EQDQ01+000000PRSWM2
0139829860999992001012717004-09390-038210FM-15+0252SBUF V0201301N005112200019N0112651N1+03501+01901999999ADDGA1021+006009999GF104991999999999999999999MA1101081999999MW1001REMMET045SBUF 271700Z 13010KT 9999 SCT020 35/19 Q1011;EQDQ01+000000PRSWM2
0256829860999992001012718004-09390-038210SY-MT+0252SBUF V0201401N002610450019N0200001N1+03381+01791100981ADDAA199000091GA1021+006009999GF106991031011008001081001MA1101081098171MD1999999-0031MW1001REMSYN070AAXX  27184 82986 32598 61405 10338 20179 39817 40098 83180 333 59003;MET045SBUF 271800Z 12008KT 9999 SCT020 35/19 Q1011;EQDQ01+000000PRSWM2Q02  00002PRCP99
0139829860999992001012719004-09390-038210FM-15+0252SBUF V0201201N003112200019N0112651N1+03501+01901999999ADDGA1021+006009999GF104991999999999999999999MA1101081999999MW1001REMMET045SBUF 271900Z 12006KT 9999 SCT020 35/19 Q1011;EQDQ01+000000PRSWM2
0139829860999992001012720004-09390-038210FM-15+0252SBUF V0201201N005112200019N0112651N1+03401+01801999999ADDGA1021+006009999GF102991999999999999999999MA1101021999999MW1001REMMET045SBUF 272000Z 12010KT 9999 FEW020 34/18 Q1010;EQDQ01+000000PRSWM2
0139829860999992001012721004-09390-038210FM-15+0252SBUF V0201301N005112200019N0112651N1+03201+01801999999ADDGA1021+006009999GF102991999999999999999999MA1101021999999MW1001REMMET045SBUF 272100Z 13010KT 9999 FEW020 32/18 Q1010;EQDQ01+000000PRSWM2
0208829860999992001012800004-09390-038210FM-12+0252SBUF V0200901N006712200019N0020001N1+02831+01911101161ADDAA199000091GA1001+999999999GF100991001001999999001001KA1240M+03441MA1999999098331MD1999999-0071REMSYN082AAXX  28004 82986 32995 00913 10283 20191 39833 40116 333 10344 29054 55113 59007;EQDQ01  00002PRCP99
0139829860999992001012809004-09390-038210FM-15+0252SBUF V0201501N004112200019N0112651N1+02301+02101999999ADDGA1021+006009999GF102991999999999999999999MA1101291999999MW1001REMMET045SBUF 280900Z 15008KT 9999 FEW020 23/21 Q1013;EQDQ01+000000PRSWM2
0139829860999992001012810004-09390-038210FM-15+0252SBUF V0201301N004112200019N0112651N1+02501+02101999999ADDGA1021+006009999GF102991999999999999999999MA1101391999999MW1001REMMET045SBUF 281000Z 13008KT 9999 FEW020 25/21 Q1014;EQDQ01+000000PRSWM2
0186829860999992001012812004-09390-038210FM-12+0252SBUF V0200901N002612200019N0100001N1+02691+01941101351ADDAA199000091GF102991021001012501061001KA1240N+02211MA1999999098511MD1999999-0031REMSYN076AAXX  28124 82986 32697 20905 10269 20194 39851 40135 82060 333 20221 59003;EQDQ01  00002PRCP99
0139829860999992001012813004-09390-038210FM-15+0252SBUF V0201201N004112200019N0112651N1+03001+01901999999ADDGA1021+006009999GF102991999999999999999999MA1101491999999MW1001REMMET045SBUF 281300Z 12008KT 9999 FEW020 30/19 Q1015;EQDQ01+000000PRSWM2
0139829860999992001012814004-09390-038210FM-15+0252SBUF V0201201N005112200019N0112651N1+03101+01901999999ADDGA1021+006009999GF102991999999999999999999MA1101391999999MW1001REMMET045SBUF 281400Z 12010KT 9999 FEW020 31/19 Q1014;EQDQ01+000000PRSWM2
0139829860999992001012815004-09390-038210FM-15+0252SBUF V0201201N006212200019N0112651N1+03301+01801999999ADDGA1021+009009999GF104991999999999999999999MA1101291999999MW1001REMMET045SBUF 281500Z 12012KT 9999 SCT030 33/18 Q1013;EQDQ01+000000PRSWM2
0139829860999992001012816004-09390-038210FM-15+0252SBUF V0201601N006212200019N0112651N1+03401+01801999999ADDGA1021+006009999GF102991999999999999999999MA1101191999999MW1001REMMET045SBUF 281600Z 16012KT 9999 FEW020 34/18 Q1012;EQDQ01+000000PRSWM2
0139829860999992001012817004-09390-038210FM-15+0252SBUF V0201301N006212200019N0112651N1+03501+01801999999ADDGA1021+006009999GF102991999999999999999999MA1101081999999MW1001REMMET045SBUF 281700Z 13012KT 9999 FEW020 35/18 Q1011;EQDQ01+000000PRSWM2
0256829860999992001012818004-09390-038210SY-MT+0252SBUF V0201401N004112200019N0500001N1+03451+01671100891ADDAA199000091GA1021+006009999GF104991021011008001061001MA1101021098081MD1999999-0091MW1001REMSYN070AAXX  28184 82986 32599 41408 10345 20167 39808 40089 82160 333 59009;MET045SBUF 281800Z 13012KT 9999 SCT020 35/17 Q1010;EQDQ01+000000PRSWM2Q02  00002PRCP99
0139829860999992001012819004-09390-038210FM-15+0252SBUF V0201401N005112200019N0112651N1+03401+01701999999ADDGA1021+006009999GF104991999999999999999999MA1100911999999MW1001REMMET045SBUF 281900Z 14010KT 9999 SCT020 34/17 Q1009;EQDQ01+000000PRSWM2
0139829860999992001012820004-09390-038210FM-15+0252SBUF V0201301N005112200019N0112651N1+03301+01801999999ADDGA1021+006009999GF104991999999999999999999MA1100911999999MW1001REMMET045SBUF 282000Z 13010KT 9999 SCT020 33/18 Q1009;EQDQ01+000000PRSWM2
0139829860999992001012821004-09390-038210FM-15+0252SBUF V0201001N004112200019N0112651N1+03001+01901999999ADDGA1021+006009999GF102991999999999999999999MA1100911999999MW1001REMMET045SBUF 282100Z 10008KT 9999 FEW020 30/19 Q1009;EQDQ01+000000PRSWM2
0208829860999992001012900004-09390-038210FM-12+0252SBUF V0201401N003112200019N0020001N1+02891+01831101061ADDAA199000091GA1001+999999999GF100991001001999999001001KA1240M+03541MA1999999098241MD1999999-0091REMSYN082AAXX  29004 82986 32995 01406 10289 20183 39824 40106 333 10354 29051 55107 59009;EQDQ01  00002PRCP99
0139829860999992001012909004-09390-038210FM-15+0252SBUF V0201001N002612200019N0112651N1+02301+02001999999ADDGA1021+006009999GF102991999999999999999999MA1101291999999MW1001REMMET045SBUF 290900Z 10005KT 9999 FEW020 23/20 Q1013;EQDQ01+000000PRSWM2
0275829860999992001012912004-09390-038210SY-MT+0252SBUF V0201401N001510450019N0100001N1+02731+01931101291ADDAA199000091GA1021+006009999GF105991021011008001061001KA1240N+02251MA1101391098461MD1999999-0051MW1001REMSYN076AAXX  29124 82986 32597 51403 10273 20193 39846 40129 82160 333 20225 59005;MET045SBUF 291200Z 19006KT 9999 SCT020 28/20 Q1014;EQDQ01+000000PRSWM2Q02  00002PRCP99
0139829860999992001012913004-09390-038210FM-15+0252SBUF V0201301N004110060019N0112651N1+02901+01901999999ADDGA1071+006009999GF107991999999999999999999MA1101391999999MW1001REMMET045SBUF 291300Z 13008KT 9999 BKN020 29/19 Q1014;EQDQ01+000000PRSWM2
0162829860999992001012914004-09390-038210FM-15+0252SBUF V0201201N004112200019N0112651N1+03101+01901999999ADDGA1021+006009999GA2021+030009999GF104991999999999999999999MA1101291999999MW1001REMMET052SBUF 291400Z 12008KT 9999 SCT020 SCT100 31/19 Q1013;EQDQ01+000000PRSWM2
0162829860999992001012916004-09390-038210FM-15+0252SBUF V0201401N005112200019N0112651N1+03301+02001999999ADDGA1021+006009999GA2021+030009999GF104991999999999999999999MA1101081999999MW1001REMMET052SBUF 291600Z 14010KT 9999 FEW020 SCT100 33/20 Q1011;EQDQ01+000000PRSWM2
0162829860999992001012917004-09390-038210FM-15+0252SBUF V0201601N005110300019N0112651N1+03301+02001999999ADDGA1021+006009999GA2071+030009999GF107991999999999999999999MA1101021999999MW1001REMMET052SBUF 291700Z 16010KT 9999 SCT020 BKN100 33/20 Q1010;EQDQ01+000000PRSWM2
0279829860999992001012918004-09390-038210SY-MT+0252SBUF V0201401N003612200019N0200001N1+03351+01751100861ADDAA199000091GA1021+006009999GA2021+030009999GF106991031011008001081001MA1100911098051MD1999999-0031MW1001REMSYN070AAXX  29184 82986 32598 61407 10335 20175 39805 40086 83180 333 59003;MET052SBUF 291800Z 13010KT 9999 SCT020 SCT100 34/19 Q1009;EQDQ01+000000PRSWM2Q02  00002PRCP99
0162829860999992001012920004-09390-038210FM-15+0252SBUF V0201301N005112200019N0112651N1+03401+01901999999ADDGA1021+006009999GA2021+030009999GF104991999999999999999999MA1100811999999MW1001REMMET052SBUF 292000Z 13010KT 9999 SCT020 SCT100 34/19 Q1008;EQDQ01+000000PRSWM2
0162829860999992001012921004-09390-038210FM-15+0252SBUF V0201301N005112200019N0112651N1+03201+01901999999ADDGA1021+006009999GA2021+030009999GF104991999999999999999999MA1100811999999MW1001REMMET052SBUF 292100Z 13010KT 9999 FEW020 SCT100 32/19 Q1008;EQDQ01+000000PRSWM2
0139829860999992001012922004-09390-038210FM-15+0252SBUF V0201401N007712200019N0112651N1+03001+02001999999ADDGA1021+006009999GF102991999999999999999999MA1100811999999MW1001REMMET045SBUF 292200Z 14015KT 9999 FEW020 30/20 Q1008;EQDQ01+000000PRSWM2
