0201829940999992001081612004-09660-035690FM-12+008999999V0201401N001010450019N0040001N1+02261+02091102231ADDAA124002091AY161061AY211061GF107991041031012501061001KA1240N+01961MA1999999101181MD1999999+0121MW1151REMSYN088AAXX  16124 82994 21696 71402 10226 20209 30118 40223 71561 84360 333 20196 58012 60024;
0167829940999992001102118004-09660-035690FM-12+008999999V0201401N005110075019N0040001N1+02921+02361101201ADDAA199000091GF105991051021008001001001MA1999999100181MD1999999-0031REMSYN070AAXX  21184 82994 32596 51410 10292 20236 30018 40120 85200 333 59003;EQDQ01  00002PRCP99
0198829940999992001110800004-09660-035690FM-12+008999999V0209999C000010450019N0040001N1+02261+02121101591ADDAA199000091GF106991021021017501061001KA1240M+02801MA1999999100561MD1999999+0141REMSYN088AAXX  08004 82994 32796 60000 10226 20212 30056 40159 82260 333 10280 29082 55041 58014;EQDQ01  00002PRCP99
0201829940999992001110812004-09660-035690FM-12+008999999V0201401N003610450019N0020001N1+02781+02061101761ADDAA124000591AY161061AY211061GF106991021021008001031021KA1240N+02021MA1999999100731MD1999999+0051MW1031REMSYN088AAXX  08124 82994 21595 61407 10278 20206 30073 40176 70361 82232 333 20202 58005 69964;
