0186832360999992001010100004-12140-045000FM-12+044099999V0203601N005110075019N0020001N1+02191+02031101201ADDAA199000091GF108991081071008001999999KA1240M+03231MA1999999096271MD1999999-0061REMSYN076AAXX  01004 83236 32595 83610 10219 20203 39627 40120 887// 333 10323 59006;EQDQ01  00002PRCP99
0201832360999992001010112004-12140-045000FM-12+044099999V0203601N005110210019N0020001N1+02041+02011101511ADDAA124004191AY151061AY251061GF108991081001022501021999KA1240N+02031MA1999999096531MD1999999+0161MW1501REMSYN088AAXX  01124 83236 21895 83610 10204 20201 39653 40151 75055 8802/ 333 20203 58016 60044;
0182832360999992001010118004-12140-045000FM-12+044099999V0209999C000010120019N0100001N1+02621+02271101031ADDAA106001091AY151061AY251061GF106991061081008001001001MA1999999096121MD1999999+0161MW1021REMSYN082AAXX  01184 83236 21597 60000 10262 20227 39612 40103 70255 86800 333 58016 60011;
0167832360999992001010200004-12140-045000FM-12+044099999V0209999C000010120019N0100001N1+02401+02211101231ADDAA199000021GF106991061081008001001001KA1240M+02771MA1999999096271MD1999999+0001REMSYN076AAXX  02004 83236 32597 60000 10240 20221 39627 40123 86800 333 10277 58000;
0173832360999992001010212004-12140-045000FM-12+044099999V0209999C000010120019N0100001N1+02521+02291101281ADDAA124001091GF106991061081008001001001KA1240N+02031MA1999999096361MD1999999-0171REMSYN082AAXX  02124 83236 22597 60000 10252 20229 39636 40128 86800 333 20203 59017 60014;
0167832360999992001010218004-12140-045000FM-12+044099999V0200501N001011050019N0100001N1+02981+02041100921ADDAA199000091GF107991031021008001001061MA1999999096041MD1999999-0081REMSYN070AAXX  02184 83236 32597 70502 10298 20204 39604 40092 83206 333 59008;EQDQ01  00002PRCP99
0186832360999992001010300004-12140-045000FM-12+044099999V0209999C000012200019N0100001N1+02441+02351101161ADDAA199000091GF103991031021008001001001KA1240M+03121MA1999999096261MD1999999-0011REMSYN076AAXX  03004 83236 32597 30000 10244 20235 39626 40116 83200 333 10312 59001;EQDQ01  00002PRCP99
0186832360999992001010312004-12140-045000FM-12+044099999V0209999C000012200019N0200001N1+02581+02311101281ADDAA199000091GF102991001001999999001041KA1240N+02021MA1999999096371MD1999999+0011REMSYN076AAXX  03124 83236 32998 20000 10258 20231 39637 40128 80004 333 20202 58001;EQDQ01  00002PRCP99
0167832360999992001010318004-12140-045000FM-12+044099999V0203601N003611050019N0200001N1+03111+02121100931ADDAA199000091GF105991031031008001001031MA1999999096051MD1999999+0011REMSYN070AAXX  03184 83236 32598 53607 10311 20212 39605 40093 83303 333 58001;EQDQ01  00002PRCP99
0186832360999992001010400004-12140-045000FM-12+044099999V0201801N001512200019N0500001N1+02361+02261101131ADDAA199000091GF103991001001999999001041KA1240M+03211MA1999999096221MD1999999-0041REMSYN076AAXX  04004 83236 32999 31803 10236 20226 39622 40113 80004 333 10321 59004;EQDQ01  00002PRCP99
0186832360999992001010412004-12140-045000FM-12+044099999V0209999C000019999999N0200001N1+02541+02111101371ADDAA199000091GF105991001001999999001051KA1240N+01921MA1999999096451MD1999999+0081REMSYN076AAXX  04124 83236 32998 50000 10254 20211 39645 40137 80005 333 20192 58008;EQDQ01  00002PRCP99
0167832360999992001010418004-12140-045000FM-12+044099999V0203601N003111050019N0200001N1+03111+02121100961ADDAA199000091GF106991031021008001001051MA1999999096071MD1999999+0021REMSYN070AAXX  04184 83236 32598 63606 10311 20212 39607 40096 83205 333 58002;EQDQ01  00002PRCP99
0186832360999992001010500004-12140-045000FM-12+044099999V0209999C000010210019N0100001N1+02441+02191101211ADDAA199000091GF106991061001022501051001KA1240M+03211MA1999999096311MD1999999+0091REMSYN076AAXX  05004 83236 32897 60000 10244 20219 39631 40121 86050 333 10321 58009;EQDQ01  00002PRCP99
0201832360999992001010512004-12140-045000FM-12+044099999V0209999C000010450019N0040001N1+02301+02141101561ADDAA124005191AY161061AY261061GF107991041051008001021001KA1240N+02171MA1999999096611MD1999999+0161MW1411REMSYN088AAXX  05124 83236 21596 70000 10230 20214 39661 40156 74166 84520 333 20217 58016 60054;
0167832360999992001010518004-12140-045000FM-12+044099999V0201401N004110075019N0100001N1+03061+02081101031ADDAA199000091GF105991051021008001001001MA1999999096161MD1999999+0091REMSYN070AAXX  05184 83236 32597 51408 10306 20208 39616 40103 85200 333 58009;EQDQ01  00002PRCP99
0186832360999992001010600004-12140-045000FM-12+044099999V0209999C000012200019N0100001N1+02311+02071101171ADDAA199000091GF103991021001022501061041KA1240M+03171MA1999999096231MD1999999-0081REMSYN076AAXX  06004 83236 32897 30000 10231 20207 39623 40117 82064 333 10317 59008;EQDQ01  00002PRCP99
0186832360999992001010612004-12140-045000FM-12+044099999V0202701N000512200019N0200001N1+02491+02151101261ADDAA199000091GF105991031021008001001041KA1240N+01971MA1999999096421MD1999999-0191REMSYN076AAXX  06124 83236 32598 52701 10249 20215 39642 40126 83204 333 20197 59019;EQDQ01  00002PRCP99
0167832360999992001010618004-12140-045000FM-12+044099999V0200501N001510075019N0100001N1+03141+02301100961ADDAA199000091GF106991051021008001001011MA1999999096081MD1999999-0081REMSYN070AAXX  06184 83236 32597 60503 10314 20230 39608 40096 85201 333 59008;EQDQ01  00002PRCP99
0186832360999992001010700004-12140-045000FM-12+044099999V0209999C000010450019N0100001N1+02421+02251101041ADDAA199000091GF107991031051008001021001KA1240M+03251MA1999999096141MD1999999-0091REMSYN076AAXX  07004 83236 32597 70000 10242 20225 39614 40104 83520 333 10325 59009;EQDQ01  00002PRCP99
0186832360999992001010712004-12140-045000FM-12+044099999V0209999C000012200019N0200001N1+02621+02211101141ADDAA199000091GF103991031021008001001001KA1240N+02031MA1999999096241MD1999999-0181REMSYN076AAXX  07124 83236 32598 30000 10262 20221 39624 40114 83200 333 20203 59018;EQDQ01  00002PRCP99
0167832360999992001010718004-12140-045000FM-12+044099999V0203601N003611050019N0200001N1+03151+02181100711ADDAA199000091GF105991031031008001001031MA1999999095881MD1999999-0201REMSYN070AAXX  07184 83236 32598 53607 10315 20218 39588 40071 83303 333 59020;EQDQ01  00002PRCP99
0202832360999992001010800004-12140-045000FM-12+044099999V0209999C000019999999N0100001N1+02411+02311101001ADDAA199000091GF106991999001022501021001KA1240M+03261MA1999999096111MD1999999-0031REMSYN076AAXX  08004 83236 32897 60000 10241 20231 39611 40100 80020 333 10326 59003;EQDQ01+000002SCOTLCQ02  00002PRCP99
0186832360999992001010812004-12140-045000FM-12+044099999V0200501N004119999999N0100001N1+02621+02121101151ADDAA199000091GF106991001001999999001061KA1240N+01961MA1999999096251MD1999999+0011REMSYN076AAXX  08124 83236 32997 60508 10262 20212 39625 40115 80006 333 20196 58001;EQDQ01  00002PRCP99
0183832360999992001010818004-12140-045000FM-12+044099999V0203601N003612200019N0100001N1+03091+02211100771ADDAA199000091GF106991021021008001001061MA1999999095002MD1999999-0021REMSYN070AAXX  08184 83236 32597 63607 10309 20221 39500 40077 82206 333 59002;EQDQ01+095003APOSP Q02  00002PRCP99
0186832360999992001010912004-12140-045000FM-12+044099999V0203201N002110450019N0200001N1+02641+02031101241ADDAA199000091GF106991041021012501071051KA1240N+02031MA1999999096341MD1999999+0091REMSYN076AAXX  09124 83236 32698 63204 10264 20203 39634 40124 84275 333 20203 58009;EQDQ01  00002PRCP99
0167832360999992001010918004-12140-045000FM-12+044099999V0203601N004610450019N0200001N1+03161+02171100781ADDAA199000091GF106991031021008001081041MA1999999095911MD1999999+0011REMSYN070AAXX  09184 83236 32598 63609 10316 20217 39591 40078 83284 333 58001;EQDQ01  00002PRCP99
0186832360999992001011000004-12140-045000FM-12+044099999V0209999C000012200019N0200001N1+02421+02071100961ADDAA199000091GF103991001001999999001071KA1240M+03251MA1999999096081MD1999999+0001REMSYN076AAXX  10004 83236 32998 30000 10242 20207 39608 40096 80007 333 10325 58000;EQDQ01  00002PRCP99
0186832360999992001011012004-12140-045000FM-12+044099999V0209999C000012200019N0500001N1+02481+01981101291ADDAA199000091GF104991021001022501081051KA1240N+01841MA1999999096371MD1999999+0031REMSYN076AAXX  10124 83236 32899 40000 10248 20198 39637 40129 82085 333 20184 58003;EQDQ01  00002PRCP99
0195832360999992001011018004-12140-045000FM-12+044099999V0200501N002110075019N0200001N1+03211+01931100891ADDAA199000091AY121061AY221061GF106991051051008001071031MA1999999096011MD1999999+0101MW1171REMSYN076AAXX  10184 83236 31598 60504 10321 20193 39601 40089 71722 85573 333 58010;EQDQ01  00002PRCP99
0214832360999992001011100004-12140-045000FM-12+044099999V0202301N001010075019N0040001N1+02281+02051101191ADDAA199000091AY121061AY221061GF108991061051008001061999KA1240M+03311MA1999999096271MD1999999+0191MW1131REMSYN082AAXX  11004 83236 31596 82302 10228 20205 39627 40119 71322 8656/ 333 10331 58019;EQDQ01  00002PRCP99
0186832360999992001011112004-12140-045000FM-12+044099999V0202301N001011050019N0200001N1+02581+02011101341ADDAA199000091GF106991041001022501081051KA1240N+02011MA1999999096421MD1999999+0051REMSYN076AAXX  11124 83236 32898 62302 10258 20201 39642 40134 84085 333 20201 58005;EQDQ01  00002PRCP99
0195832360999992001011118004-12140-045000FM-12+044099999V0200501N004610075019N0200001N1+03071+02161100921ADDAA199000091AY121061AY221061GF106991051051008001001071MA1999999096041MD1999999+0031MW1171REMSYN076AAXX  11184 83236 32598 60509 10307 20216 39604 40092 71722 85507 333 58003;EQDQ01  00002PRCP99
0186832360999992001011200004-12140-045000FM-12+044099999V0202301N001510075019N0200001N1+02281+02181101151ADDAA199000091GF106991051031008001051071KA1240M+03231MA1999999096231MD1999999-0041REMSYN076AAXX  12004 83236 32598 62303 10228 20218 39623 40115 85357 333 10323 59004;EQDQ01  00002PRCP99
0186832360999992001011212004-12140-045000FM-12+044099999V0200501N002110210019N0200001N1+02691+02091101231ADDAA199000091GF105991051001022501081001KA1240N+02021MA1999999096331MD1999999-0091REMSYN076AAXX  12124 83236 32898 50504 10269 20209 39633 40123 85080 333 20202 59009;EQDQ01  00002PRCP99
0195832360999992001011218004-12140-045000FM-12+044099999V0200501N005110075019N0200001N1+03211+02091100881ADDAA199000091AY121061AY251061GF106991051051008001071031MA1999999096011MD1999999-0031MW1171REMSYN076AAXX  12184 83236 31598 60510 10321 20209 39601 40088 71725 85573 333 59003;EQDQ01  00002PRCP99
0186832360999992001011300004-12140-045000FM-12+044099999V0201801N002612200019N0500001N1+02251+02071101141ADDAA199000091GF103991031001022501061001KA1240M+03281MA1999999096231MD1999999+0001REMSYN076AAXX  13004 83236 32899 31805 10225 20207 39623 40114 83060 333 10328 58000;EQDQ01  00002PRCP99
0186832360999992001011312004-12140-045000FM-12+044099999V0200501N004111050019N0200001N1+02571+02061101441ADDAA199000091GF105991041021008001001031KA1240N+01941MA1999999096511MD1999999+0181REMSYN076AAXX  13124 83236 32598 50508 10257 20206 39651 40144 84203 333 20194 58018;EQDQ01  00002PRCP99
0167832360999992001011318004-12140-045000FM-12+044099999V0200501N004110075019N0200001N1+03051+01981101061ADDAA199000091GF106991051021008001001051MA1999999096171MD1999999+0161REMSYN070AAXX  13184 83236 32598 60508 10305 20198 39617 40106 85205 333 58016;EQDQ01  00002PRCP99
0186832360999992001011400004-12140-045000FM-12+044099999V0200501N002612200019N0200001N1+02551+01981101201ADDAA199000091GF104991021021012501001031KA1240M+03161MA1999999096311MD1999999+0081REMSYN076AAXX  14004 83236 32698 40505 10255 20198 39631 40120 82203 333 10316 58008;EQDQ01  00002PRCP99
0186832360999992001011412004-12140-045000FM-12+044099999V0201401N004112200019N0500001N1+02721+01791101431ADDAA199000091GF102991001001999999001031KA1240N+01851MA1999999096541MD1999999+0031REMSYN076AAXX  14124 83236 32999 21408 10272 20179 39654 40143 80003 333 20185 58003;EQDQ01  00002PRCP99
0167832360999992001011418004-12140-045000FM-12+044099999V0201401N004612200019N0500001N1+03221+01911101041ADDAA199000091GF102991021021008001001071MA1999999096151MD1999999-0021REMSYN070AAXX  14184 83236 32599 21409 10322 20191 39615 40104 82207 333 59002;EQDQ01  00002PRCP99
0226832360999992001011500004-12140-045000FM-12+044099999V0200501N005110075019N0100001N1+02511+02111101171ADDAA199000091AY121061AY221061GF106991061061008001051001KA1240M+03331MA1999999096281MD1999999-0031MW1171REMSYN094AAXX  15004 83236 31597 60510 10251 20211 39628 40117 71722 86650 333 10333 29065 55118 59003;EQDQ01  00002PRCP99
0186832360999992001011512004-12140-045000FM-12+044099999V0201801N002610075019N0200001N1+02561+02151101411ADDAA199000091GF106991051021008001061051KA1240N+02031MA1999999096501MD1999999-0041REMSYN076AAXX  15124 83236 32598 61805 10256 20215 39650 40141 85265 333 20203 59004;EQDQ01  00002PRCP99
0167832360999992001011518004-12140-045000FM-12+044099999V0200501N005110075019N0200001N1+03001+01911101141ADDAA199000091GF106991051021008001001071MA1999999096251MD1999999+0101REMSYN070AAXX  15184 83236 32598 60510 10300 20191 39625 40114 85207 333 58010;EQDQ01  00002PRCP99
0198832360999992001011600004-12140-045000FM-12+044099999V0201801N002112200019N0500001N1+02351+01931101191ADDAA199000091GF102991021021012501001001KA1240M+03151MA1999999096281MD1999999+0001REMSYN088AAXX  16004 83236 32699 21804 10235 20193 39628 40119 82200 333 10315 29072 55110 58000;EQDQ01  00002PRCP99
0186832360999992001011612004-12140-045000FM-12+044099999V0203201N001510450019N0200001N1+02501+01871101331ADDAA199000091GF106991041021012501071031KA1240N+01881MA1999999096411MD1999999-0091REMSYN076AAXX  16124 83236 32698 63203 10250 20187 39641 40133 84273 333 20188 59009;EQDQ01  00002PRCP99
0167832360999992001011618004-12140-045000FM-12+044099999V0200901N001510075019N0200001N1+02991+02061101021ADDAA199000091GF106991051021008001001051MA1999999096121MD1999999-0131REMSYN070AAXX  16184 83236 32598 60903 10299 20206 39612 40102 85205 333 59013;EQDQ01  00002PRCP99
0198832360999992001011700004-12140-045000FM-12+044099999V0201801N001012200019N0500001N1+02341+01911101141ADDAA199000091GF102991021021012501001001KA1240M+03151MA1999999096221MD1999999-0061REMSYN088AAXX  17004 83236 32699 21802 10234 20191 39622 40114 82200 333 10315 29070 55113 59006;EQDQ01  00002PRCP99
0186832360999992001011712004-12140-045000FM-12+044099999V0200901N001010075019N0100001N1+02551+02091101351ADDAA199000091GF108991071021008001081999KA1240N+01901MA1999999096431MD1999999+0021REMSYN076AAXX  17124 83236 32597 80902 10255 20209 39643 40135 8728/ 333 20190 58002;EQDQ01  00002PRCP99
0167832360999992001011718004-12140-045000FM-12+044099999V0201401N005110075019N0100001N1+03071+01961101101ADDAA199000091GF107991061021008001071051MA1999999096221MD1999999+0101REMSYN070AAXX  17184 83236 32597 71410 10307 20196 39622 40110 86275 333 58010;EQDQ01  00002PRCP99
0183832360999992001011800004-12140-045000FM-12+044099999V0209999C000010450019N0200001N1+02221+01921101311ADDAA199000091GF105991041021012501081031KA1240M+03141MA1999999096381REMSYN087AAXX  18004 83236 32698 50000 10222 20192 39638 40131 84283 333 10314 29074 55051 5801;EQDQ01  00002PRCP99
0186832360999992001011812004-12140-045000FM-12+044099999V0209999C000011050019N0200001N1+02301+01791101381ADDAA199000091GF106991031001022501051071KA1240N+01581MA1999999096421MD1999999-0011REMSYN076AAXX  18124 83236 32898 60000 10230 20179 39642 40138 83057 333 20158 59001;EQDQ01  00002PRCP99
0167832360999992001011818004-12140-045000FM-12+044099999V0200501N003110075019N0200001N1+03021+02071101031ADDAA199000091GF107991051021008001071051MA1999999096111MD1999999-0111REMSYN070AAXX  18184 83236 32598 70506 10302 20207 39611 40103 85275 333 59011;EQDQ01  00002PRCP99
0198832360999992001011900004-12140-045000FM-12+044099999V0209999C000012200019N0500001N1+02271+02031101221ADDAA199000091GF103991031001022501051001KA1240M+03211MA1999999096281MD1999999-0101REMSYN088AAXX  19004 83236 32899 30000 10227 20203 39628 40122 83050 333 10321 29076 55086 59010;EQDQ01  00002PRCP99
0186832360999992001011912004-12140-045000FM-12+044099999V0209999C000010075019N0200001N1+02551+02021101481ADDAA199000091GF107991061021008001061071KA1240N+01771MA1999999096551MD1999999+0131REMSYN076AAXX  19124 83236 32598 70000 10255 20202 39655 40148 86267 333 20177 58013;EQDQ01  00002PRCP99
0195832360999992001011918004-12140-045000FM-12+044099999V0200501N002610075019N0200001N1+03031+02341101131ADDAA199000091AY121061AY221061GF106991061051008001071001MA1999999096211MD1999999+0101MW1151REMSYN076AAXX  19184 83236 31598 60505 10303 20234 39621 40113 71522 86570 333 58010;EQDQ01  00002PRCP99
0185832360999992001012000004-12140-045000FM-12+044099999V0209999C000012200019N0200001N1+02261+02211101241ADDAA106000191GF104991031021008001001031KA1240M+03231MA1999999096321MD1999999+0041REMSYN094AAXX  20004 83236 22598 40000 10226 20221 39632 40124 83203 333 10323 29083 55091 58004 69921;
0173832360999992001012012004-12140-045000FM-12+044099999V0209999C000010075019N0200001N1+02591+02121101471ADDAA124000191GF106991051021008001061071KA1240N+01991MA1999999096541MD1999999-0011REMSYN082AAXX  20124 83236 22598 60000 10259 20212 39654 40147 85267 333 20199 59001 69924;
0167832360999992001012018004-12140-045000FM-12+044099999V0200501N002612200019N0500001N1+03381+01951100901ADDAA199000091GF104991031021012501001051MA1999999096041MD1999999-0171REMSYN070AAXX  20184 83236 32699 40505 10338 20195 39604 40090 83205 333 59017;EQDQ01  00002PRCP99
0198832360999992001012100004-12140-045000FM-12+044099999V0209999C000010075019N0100001N1+02521+02151101141ADDAA199000091GF108991061071008001051999KA1240M+03451MA1999999096251MD1999999-0071REMSYN088AAXX  21004 83236 32597 80000 10252 20215 39625 40114 8675/ 333 10345 29070 55096 59007;EQDQ01  00002PRCP99
0186832360999992001012112004-12140-045000FM-12+044099999V0201401N001010075019N0200001N1+02791+02181101211ADDAA199000091GF106991051021008001061031KA1240N+02051MA1999999096331MD1999999-0211REMSYN076AAXX  21124 83236 32598 61402 10279 20218 39633 40121 85263 333 20205 59021;EQDQ01  00002PRCP99
0167832360999992001012118004-12140-045000FM-12+044099999V0200501N005110075019N0200001N1+03171+01891100791ADDAA199000091GF107991051021008001081051MA1999999095931MD1999999-0111REMSYN070AAXX  21184 83236 32598 70510 10317 20189 39593 40079 85285 333 59011;EQDQ01  00002PRCP99
0213832360999992001012200004-12140-045000FM-12+044099999V0209999C000010075019N0100001N1+02111+02071101161ADDAA106003091AY161061AY261061GF106991051051008001001071KA1240M+03361MA1999999096251MD1999999+0001MW1131REMSYN100AAXX  22004 83236 21597 60000 10211 20207 39625 40116 71366 85507 333 10336 29078 55068 58000 60031;
0201832360999992001012212004-12140-045000FM-12+044099999V0200501N002110075019N0100001N1+02331+02161101501ADDAA124004191AY161061AY261061GF108991071061008001071999KA1240N+02011MA1999999096541MD1999999+0211MW1101REMSYN088AAXX  22124 83236 21597 80504 10233 20216 39654 40150 71066 8767/ 333 20201 58021 60044;
0167832360999992001012218004-12140-045000FM-12+044099999V0200501N002610075019N0200001N1+03021+02161100991ADDAA199000091GF107991061041008001071051MA1999999096111MD1999999+0181REMSYN070AAXX  22184 83236 32598 70505 10302 20216 39611 40099 86475 333 58018;EQDQ01  00002PRCP99
0198832360999992001012300004-12140-045000FM-12+044099999V0209999C000010450019N0200001N1+02281+02011101361ADDAA199000091GF105991041021012501081051KA1240M+03111MA1999999096411MD1999999+0161REMSYN088AAXX  23004 83236 32698 50000 10228 20201 39641 40136 84285 333 10311 29082 55052 58016;EQDQ01  00002PRCP99
0186832360999992001012312004-12140-045000FM-12+044099999V0201801N001010075019N0100001N1+02401+02191101461ADDAA199000091GF108991061021008001071999KA1240N+02101MA1999999096521MD1999999-0021REMSYN076AAXX  23124 83236 32597 81802 10240 20219 39652 40146 8627/ 333 20210 59002;EQDQ01  00002PRCP99
0167832360999992001012318004-12140-045000FM-12+044099999V0201801N002610075019N0100001N1+02461+02251101141ADDAA199000091GF108991071071008001051999MA1999999096201MD1999999+0091REMSYN070AAXX  23184 83236 32597 81805 10246 20225 39620 40114 8775/ 333 58009;EQDQ01  00002PRCP99
0226832360999992001012400004-12140-045000FM-12+044099999V0209999C000010120019N0100001N1+02281+02251101241ADDAA199000091AY121061AY221061GF106991051051012501071031KA1240M+02811MA1999999096311MD1999999-0101MW1131REMSYN094AAXX  24004 83236 32697 60000 10228 20225 39631 40124 71322 85573 333 10281 29093 55018 59010;EQDQ01  00002PRCP99
0186832360999992001012412004-12140-045000FM-12+044099999V0209999C000010450019N0100001N1+02521+02191101491ADDAA199000091GF105991041021008001041001KA1240N+02051MA1999999096551MD1999999+0031REMSYN076AAXX  24124 83236 32597 50000 10252 20219 39655 40149 84240 333 20205 58003;EQDQ01  00002PRCP99
0182832360999992001012418004-12140-045000FM-12+044099999V0200501N003112200019N0100001N1+02981+02231100981ADDAA106002091AY161061AY261061GF106991041021008001001061MA1999999096091MD1999999-0111MW1151REMSYN082AAXX  24184 83236 21597 60506 10298 20223 39609 40098 71566 84206 333 59011 60021;
0226832360999992001012500004-12140-045000FM-12+044099999V0209999C000010075019N0040001N1+02521+02291101181ADDAA199000091AY101061AY221061GF108991051071008001021999KA1240M+03201MA1999999096281MD1999999-0031MW1131REMSYN094AAXX  25004 83236 31596 80000 10252 20229 39628 40118 71302 8572/ 333 10320 29080 55051 59003;EQDQ01  00002PRCP99
0201832360999992001012512004-12140-045000FM-12+044099999V0209999C000011050019N0200001N1+02561+02271101311ADDAA124004191AY161061AY261061GF105991011011008001031041KA1240N+02221MA1999999096411MD1999999-0141MW1021REMSYN088AAXX  25124 83236 21598 50000 10256 20227 39641 40131 70266 81134 333 20222 59014 60044;
0167832360999992001012518004-12140-045000FM-12+044099999V0200501N004112200019N0200001N1+03051+02201100941ADDAA199000091GF106991031021008001001061MA1999999096071MD1999999-0021REMSYN070AAXX  25184 83236 32598 60508 10305 20220 39607 40094 83206 333 59002;EQDQ01  00002PRCP99
0198832360999992001012600004-12140-045000FM-12+044099999V0200501N001010120019N0100001N1+02561+02151101151ADDAA199000091GF105991051081008001001001KA1240M+03181MA1999999096261MD1999999-0021REMSYN088AAXX  26004 83236 32597 50502 10256 20215 39626 40115 85800 333 10318 29075 55068 59002;EQDQ01  00002PRCP99
0186832360999992001012612004-12140-045000FM-12+044099999V0202301N002112200019N0200001N1+02501+02171101371ADDAA199000091GF103991001001999999001021KA1240N+01981MA1999999096461MD1999999+0051REMSYN076AAXX  26124 83236 32998 32304 10250 20217 39646 40137 80002 333 20198 58005;EQDQ01  00002PRCP99
0183832360999992001012618004-12140-045000FM-12+044099999V0203601N004119999999N0100001N1+03221+01951101941ADDAA199000091GF105991999021008001001001MA1999999096061MD1999999-0011REMSYN070AAXX  26184 83236 32597 53608 10322 20195 39606 40194 84200 333 59001;EQDQ01+000042SCOTLCQ02  00002PRCP99
0214832360999992001012700004-12140-045000FM-12+044099999V0209999C000012200019N0100001N1+02461+02191101052ADDAA199000091GF103991021041008001001041KA1240M+03351MA1999999096151MD1999999-0111REMSYN088AAXX  27004 83236 32597 30000 10246 20219 39615 40105 82404 333 10335 29075 55093 59011;EQDQ01+101053APOSLPQ02  00002PRCP99
0186832360999992001012712004-12140-045000FM-12+044099999V0203601N000512200019N0200001N1+02611+02271101271ADDAA199000091GF102991021011008001001001KA1240N+01991MA1999999096371MD1999999-0091REMSYN076AAXX  27124 83236 32598 23601 10261 20227 39637 40127 82100 333 20199 59009;EQDQ01  00002PRCP99
0167832360999992001012718004-12140-045000FM-12+044099999V0200501N006712200019N0200001N1+03341+01981100851ADDAA199000091GF103991031011008001001001MA1999999096011MD1999999-0051REMSYN070AAXX  27184 83236 32598 30513 10334 20198 39601 40085 83100 333 59005;EQDQ01  00002PRCP99
0208832360999992001012800004-12140-045000FM-12+044099999V0209999C000012200019N0200001N1+02521+02311100991ADDAA199000091GA1001+999999999GF100991001001999999001001KA1240M+03451MA1999999096101MD1999999-0051REMSYN082AAXX  28004 83236 32998 00000 10252 20231 39610 40099 333 10345 29076 55110 59005;EQDQ01  00002PRCP99
0186832360999992001012812004-12140-045000FM-12+044099999V0200901N001012200019N0200001N1+02601+02141101221ADDAA199000091GF103991031021008001001001KA1240N+01951MA1999999096331MD1999999-0041REMSYN076AAXX  28124 83236 32598 30902 10260 20214 39633 40122 83200 333 20195 59004;EQDQ01  00002PRCP99
0167832360999992001012818004-12140-045000FM-12+044099999V0200501N003112200019N0200001N1+03251+01961100821ADDAA199000091GF103991031021008001001001MA1999999095951MD1999999-0061REMSYN070AAXX  28184 83236 32598 30506 10325 20196 39595 40082 83200 333 59006;EQDQ01  00002PRCP99
0208832360999992001012900004-12140-045000FM-12+044099999V0209999C000012200019N0200001N1+02541+02331100931ADDAA199000091GA1001+999999999GF100991001001999999001001KA1240M+03411MA1999999096041MD1999999-0061REMSYN082AAXX  29004 83236 32998 00000 10254 20233 39604 40093 333 10341 29075 55115 59006;EQDQ01  00002PRCP99
0186832360999992001012912004-12140-045000FM-12+044099999V0203601N001012200019N0200001N1+02731+02191101131ADDAA199000091GF103991021001022501081011KA1240N+02041MA1999999096251MD1999999-0081REMSYN076AAXX  29124 83236 32898 33602 10273 20219 39625 40113 82081 333 20204 59008;EQDQ01  00002PRCP99
0167832360999992001012918004-12140-045000FM-12+044099999V0200501N003612200019N0200001N1+03291+02071100611ADDAA199000091GF103991031021008001001001MA1999999095761MD1999999-0191REMSYN070AAXX  29184 83236 32598 30507 10329 20207 39576 40061 83200 333 59019;EQDQ01  00002PRCP99
0300832360999992001013000004-12140-045000FM-12+044099999V0209999C000012200019N0100001N1+02591+02351100741ADDAA199000091GA1031+012609029GF199999021001022501081001KA1240M+03431MA1999999095881MD1999999-0161REMSYN158AAXX  30004 83236 32897 20000 10259 20235 39588 40074 82080 333 10343 29074 55113 59016 83242 32995 02701 10243 20186 39594 40082 333 10326 29065 55082 59018;EQDQ01+000022SCOTCVQ02  00002PRCP99
0186832360999992001013012004-12140-045000FM-12+044099999V0200501N006212200019N0100001N1+02651+02161101061ADDAA199000091GF104991031021008001061001KA1240N+02001MA1999999096171MD1999999-0081REMSYN076AAXX  30124 83236 32597 40512 10265 20216 39617 40106 83260 333 20200 59008;EQDQ01  00002PRCP99
0167832360999992001013018004-12140-045000FM-12+044099999V0200501N004612200019N0200001N1+03181+02131100581ADDAA199000091GF103991031021008001001001MA1999999095731MD1999999-0041REMSYN070AAXX  30184 83236 32598 30509 10318 20213 39573 40058 83200 333 59004;EQDQ01  00002PRCP99
0198832360999992001013100004-12140-045000FM-12+044099999V0202301N001012200019N0100001N1+02601+02351100751ADDAA199000091GF103991021031008001041001KA1240M+03311MA1999999095881MD1999999+0001REMSYN088AAXX  31004 83236 31597 32302 10260 20235 39588 40075 82340 333 10331 29076 55109 58000;EQDQ01  00002PRCP99
0186832360999992001013112004-12140-045000FM-12+044099999V0200501N004110075019N0100001N1+02361+02051101141ADDAA199000091GF107991071051008001001001KA1240N+02101MA1999999096241MD1999999+0071REMSYN076AAXX  31124 83236 32597 70508 10236 20205 39624 40114 87500 333 20210 58007;EQDQ01  00002PRCP99
0167832360999992001013118004-12140-045000FM-12+044099999V0200901N001012200019N0200001N1+03301+02121100651ADDAA199000091GF104991031021008001001021MA1999999095821MD1999999+0101REMSYN070AAXX  31184 83236 32598 40902 10330 20212 39582 40065 83202 333 58010;EQDQ01  00002PRCP99
0226832360999992001020100004-12140-045000FM-12+044099999V0202701N001012200019N0100001N1+02511+01841100901ADDAA199000091AY101061AY221061GF103991021031008001041001KA1240M+03411MA1999999096001MD1999999+0121MW1131REMSYN094AAXX  01004 83236 31597 32702 10251 20184 39600 40090 71302 82340 333 10341 29067 55069 58012;EQDQ01  00002PRCP99
0201832360999992001020112004-12140-045000FM-12+044099999V0200501N001510075019N0040001N1+02061+02031101111ADDAA124002091AY191061AY261061GF107991051071008001021001KA1240N+01941MA1999999096171MD1999999-0071MW1021REMSYN088AAXX  01124 83236 21596 70503 10206 20203 39617 40111 70296 85720 333 20194 59007 60024;
0167832360999992001020118004-12140-045000FM-12+044099999V0200501N004111050019N0100001N1+03131+01991100571ADDAA199000091GF105991021021008001001021MA1999999095711MD1999999-0111REMSYN070AAXX  01184 83236 32597 50508 10313 20199 39571 40057 82202 333 59011;EQDQ01  00002PRCP99
0186832360999992001020200004-12140-045000FM-12+044099999V0209999C000012200019N0100001N1+02491+02271100641ADDAA199000091GF104991021031022501001081KA1240M+03251MA1999999095861MD1999999-0141REMSYN076AAXX  02004 83236 32897 40000 10249 20227 39586 40064 82308 333 10325 59014;EQDQ01  00002PRCP99
0167832360999992001020218004-12140-045000FM-12+044099999V0202701N003111050019N0100001N1+03271+02151100601ADDAA199000091GF106991041021008001001021MA1999999095741MD1999999-0021REMSYN070AAXX  02184 83236 32597 62706 10327 20215 39574 40060 84202 333 59002;EQDQ01  00002PRCP99
0213832360999992001020300004-12140-045000FM-12+044099999V0201801N001512200019N0100001N1+02331+02241100781ADDAA106001091AY191061AY261061GF103991001001999999001041KA1240M+03401MA1999999095871MD1999999+0111MW1021REMSYN100AAXX  03004 83236 21997 31803 10233 20224 39587 40078 70296 80004 333 10340 29081 55064 58011 60011;
0173832360999992001020312004-12140-045000FM-12+044099999V0200501N001512200019N0200001N1+02561+02131101091ADDAA124001091GF102991021001022501081001KA1240N+01971MA1999999096181MD1999999-0011REMSYN082AAXX  03124 83236 22898 20503 10256 20213 39618 40109 82080 333 20197 59001 60014;
0167832360999992001020318004-12140-045000FM-12+044099999V0200501N005110450019N0200001N1+03211+02121100661ADDAA199000091GF106991021021008001061001MA1999999095791MD1999999+0051REMSYN070AAXX  03184 83236 32598 60510 10321 20212 39579 40066 82260 333 58005;EQDQ01  00002PRCP99
0186832360999992001020412004-12140-045000FM-12+044099999V0201801N001511050019N0200001N1+02581+02101101261ADDAA199000091GF105991031081008001001021KA1240N+01971MA1999999096351MD1999999+0181REMSYN076AAXX  04124 83236 32598 51803 10258 20210 39635 40126 83802 333 20197 58018;EQDQ01  00002PRCP99
0167832360999992001020418004-12140-045000FM-12+044099999V0200501N004612200019N0200001N1+03321+02101100781ADDAA199000091GF103991031011008001001001MA1999999095951MD1999999+0161REMSYN070AAXX  04184 83236 32598 30509 10332 20210 39595 40078 83100 333 58016;EQDQ01  00002PRCP99
0208832360999992001020500004-12140-045000FM-12+044099999V0201801N001012200019N0200001N1+02491+02231100961ADDAA199000091GA1001+999999999GF100991001001999999001001KA1240M+03431MA1999999096071MD1999999+0131REMSYN082AAXX  05004 83236 32998 01802 10249 20223 39607 40096 333 10343 29112 55174 58013;EQDQ01  00002PRCP99
0186832360999992001020512004-12140-045000FM-12+044099999V0202701N001512200019N0200001N1+02691+02221101241ADDAA199000091GF103991031011008001001001KA1240N+02111MA1999999096351MD1999999-0011REMSYN076AAXX  05124 83236 32598 32703 10269 20222 39635 40124 83100 333 20211 59001;EQDQ01  00002PRCP99
0167832360999992001020518004-12140-045000FM-12+044099999V0200501N004612200019N0200001N1+03251+02021100751ADDAA199000091GF103991031011008001001001MA1999999095891MD1999999-0061REMSYN070AAXX  05184 83236 32598 30509 10325 20202 39589 40075 83100 333 59006;EQDQ01  00002PRCP99
0198832360999992001020600004-12140-045000FM-12+044099999V0209999C000012200019N0200001N1+02661+02241100921ADDAA199000091GF103991031001022501061001KA1240M+03491MA1999999096051MD1999999-0031REMSYN088AAXX  06004 83236 32898 30000 10266 20224 39605 40092 83060 333 10349 29070 55115 59003;EQDQ01  00002PRCP99
0202832360999992001020612004-12140-045000FM-12+044099999V0203601N001012200019N0200001N1+02691+02201101211ADDAA199000091GF103991999021008001001001KA1240N+02031MA1999999096331MD1999999-0021REMSYN076AAXX  06124 83236 32598 33602 10269 20220 39633 40121 82200 333 20203 59002;EQDQ01+000022SCOTLCQ02  00002PRCP99
0167832360999992001020618004-12140-045000FM-12+044099999V0200901N001512200019N0200001N1+03531+02031100661ADDAA199000091GF104991031021008001001021MA1999999095841MD1999999-0041REMSYN070AAXX  06184 83236 32598 40903 10353 20203 39584 40066 83202 333 59004;EQDQ01  00002PRCP99
0198832360999992001020700004-12140-045000FM-12+044099999V0209999C000012200019N0200001N1+02791+02341100791ADDAA199000091GF103991031061008001001001KA1240M+03651MA1999999095951MD1999999-0101REMSYN088AAXX  07004 83236 32598 30000 10279 20234 39595 40079 83600 333 10365 29068 55108 59010;EQDQ01  00002PRCP99
0186832360999992001020712004-12140-045000FM-12+044099999V0209999C000012200019N0200001N1+02781+02211101101ADDAA199000091GF104991031021012501001031KA1240N+02141MA1999999096251MD1999999-0071REMSYN076AAXX  07124 83236 32698 40000 10278 20221 39625 40110 83203 333 20214 59007;EQDQ01  00002PRCP99
0167832360999992001020718004-12140-045000FM-12+044099999V0200501N003110075019N0200001N1+03391+02061100671ADDAA199000091GF106991051041008001071051MA1999999095841MD1999999+0001REMSYN070AAXX  07184 83236 32598 60506 10339 20206 39584 40067 85475 333 58000;EQDQ01  00002PRCP99
0198832360999992001020800004-12140-045000FM-12+044099999V0209999C000012200019N0500001N1+02481+02341100961ADDAA199000091GF102991021021012501001001KA1240M+03621MA1999999095991MD1999999+0041REMSYN088AAXX  08004 83236 32699 20000 10248 20234 39599 40096 82200 333 10362 29075 55095 58004;EQDQ01  00002PRCP99
0186832360999992001020812004-12140-045000FM-12+044099999V0200501N002110075019N0200001N1+02691+02281101161ADDAA199000091GF107991051021008001071051KA1240N+02231MA1999999096271MD1999999+0021REMSYN076AAXX  08124 83236 32598 70504 10269 20228 39627 40116 85275 333 20223 58002;EQDQ01  00002PRCP99
0182832360999992001020818004-12140-045000FM-12+044099999V0201801N003110075019N0100001N1+02721+02301100781ADDAA106015091AY161061AY261061GF106991051051008001071051MA1999999095901MD1999999+0061MW1131REMSYN082AAXX  08184 83236 21597 61806 10272 20230 39590 40078 71366 85575 333 58006 60151;
0208832360999992001020900004-12140-045000FM-12+044099999V0209999C000012200019N0500001N1+02421+02321100801ADDAA199000091GA1001+999999999GF100991001001999999001001KA1240M+03281MA1999999095931MD1999999-0061REMSYN082AAXX  09004 83236 32999 00000 10242 20232 39593 40080 333 10328 29086 55077 59006;EQDQ01  00002PRCP99
0173832360999992001020912004-12140-045000FM-12+044099999V0209999C000010450019N0200001N1+02631+02331101131ADDAA124015091GF105991041021008001071051KA1240N+02131MA1999999096231MD1999999-0041REMSYN082AAXX  09124 83236 22598 50000 10263 20233 39623 40113 84275 333 20213 59004 60154;
0167832360999992001020918004-12140-045000FM-12+044099999V0200501N001510075019N0200001N1+03261+02241100581ADDAA199000091GF105991051021008001001001MA1999999095741MD1999999-0161REMSYN070AAXX  09184 83236 32598 50503 10326 20224 39574 40058 85200 333 59016;EQDQ01  00002PRCP99
0198832360999992001021000004-12140-045000FM-12+044099999V0202301N001010075019N0200001N1+02551+02271100741ADDAA199000091GF106991051021008001061071KA1240M+03361MA1999999095871MD1999999-0061REMSYN088AAXX  10004 83236 32598 62302 10255 20227 39587 40074 85267 333 10336 29078 55100 59006;EQDQ01  00002PRCP99
0214832360999992001021012004-12140-045000FM-12+044099999V0200501N004110075019N0100001N1+02721+02301101081ADDAA199000091AY121061AY221061GF107991061051008001071031KA1240N+02231MA1999999096201MD1999999-0031MW1151REMSYN082AAXX  10124 83236 31597 70508 10272 20230 39620 40108 71522 86573 333 20223 59003;EQDQ01  00002PRCP99
0167832360999992001021018004-12140-045000FM-12+044099999V0200501N002610075019N0200001N1+03291+02101100661ADDAA199000091GF105991051021008001001001MA1999999095841MD1999999+0101REMSYN070AAXX  10184 83236 32598 50505 10329 20210 39584 40066 85200 333 58010;EQDQ01  00002PRCP99
0198832360999992001021100004-12140-045000FM-12+044099999V0209999C000012200019N0500001N1+02601+02421100751ADDAA199000091GF103991031021012501001001KA1240M+03381MA1999999095891MD1999999+0021REMSYN088AAXX  11004 83236 32699 30000 10260 20242 39589 40075 83200 333 10338 29077 55105 58002;EQDQ01  00002PRCP99
0186832360999992001021112004-12140-045000FM-12+044099999V0200501N003112200019N0500001N1+02681+02021101161ADDAA199000091GF103991031021012501051001KA1240N+02131MA1999999096281MD1999999+0081REMSYN076AAXX  11124 83236 32699 30506 10268 20202 39628 40116 83250 333 20213 58008;EQDQ01  00002PRCP99
0167832360999992001021118004-12140-045000FM-12+044099999V0200501N002110075019N0200001N1+03201+02031100751ADDAA199000091GF105991051021008001001001MA1999999096391MD1999999+0061REMSYN070AAXX  11184 83236 32598 50504 10320 20203 39639 40075 85200 333 58006;EQDQ01  00002PRCP99
0198832360999992001021200004-12140-045000FM-12+044099999V0209999C000012200019N0500001N1+02481+02191100831ADDAA199000091GF102991021021008001001001KA1240M+03451MA1999999095951MD1999999+0061REMSYN088AAXX  12004 83236 32599 20000 10248 20219 39595 40083 82200 333 10345 29071 55116 58006;EQDQ01  00002PRCP99
0186832360999992001021212004-12140-045000FM-12+044099999V0209999C000012200019N0500001N1+02591+02041101201ADDAA199000091GF104991041021012501001001KA1240N+02051MA1999999096311MD1999999+0031REMSYN076AAXX  12124 83236 32699 40000 10259 20204 39631 40120 84200 333 20205 58003;EQDQ01  00002PRCP99
0167832360999992001021218004-12140-045000FM-12+044099999V0200501N001512200019N0200001N1+03361+01771100911ADDAA199000091GF104991031021008001001051MA1999999096051MD1999999+0151REMSYN070AAXX  12184 83236 32598 40503 10336 20177 39605 40091 83205 333 58015;EQDQ01  00002PRCP99
0208832360999992001021300004-12140-045000FM-12+044099999V0209999C000012200019N0500001N1+02551+02251100871ADDAA199000091GA1001+999999999GF100991001001999999001001KA1240M+03461MA1999999095991MD1999999+0041REMSYN082AAXX  13004 83236 32999 00000 10255 20225 39599 40087 333 10346 29070 55098 58004;EQDQ01  00002PRCP99
0186832360999992001021312004-12140-045000FM-12+044099999V0202301N001511050019N0200001N1+02551+02061101161ADDAA199000091GF105991031021012501001071KA1240N+01921MA1999999096271MD1999999-0041REMSYN076AAXX  13124 83236 32698 52303 10255 20206 39627 40116 83207 333 20192 59004;EQDQ01  00002PRCP99
0167832360999992001021318004-12140-045000FM-12+044099999V0201801N001010075019N0200001N1+03431+01831100661ADDAA199000091GF106991051021008001061071MA1999999095811MD1999999-0241REMSYN070AAXX  13184 83236 32598 61802 10343 20183 39581 40066 85267 333 59024;EQDQ01  00002PRCP99
0226832360999992001021400004-12140-045000FM-12+044099999V0201801N001012200019N0200001N1+02471+02151100821ADDAA199000091AY121061AY221061GF105991041051008001001061KA1240M+03571MA1999999095941MD1999999-0051MW1131REMSYN094AAXX  14004 83236 31598 51802 10247 20215 39594 40082 71322 84506 333 10357 29070 55094 59005;EQDQ01  00002PRCP99
0186832360999992001021412004-12140-045000FM-12+044099999V0200501N002110075019N0100001N1+02591+02191101211ADDAA199000091GF107991051041008001071051KA1240N+02251MA1999999096321MD1999999+0051REMSYN076AAXX  14124 83236 32597 70504 10259 20219 39632 40121 85475 333 20225 58005;EQDQ01  00002PRCP99
0167832360999992001021418004-12140-045000FM-12+044099999V0200501N003110120019N0100001N1+03151+02101100641ADDAA199000091GF108991071081008001051999MA1999999095811MD1999999+0001REMSYN070AAXX  14184 83236 32597 80506 10315 20210 39581 40064 8785/ 333 58000;EQDQ01  00002PRCP99
0214832360999992001021500004-12140-045000FM-12+044099999V0209999C000010075019N0100001N1+02431+02211100941ADDAA199000091GF108991999071008001061999KA1240M+03251MA1999999096051MD1999999+0111REMSYN088AAXX  15004 83236 32597 80000 10243 20221 39605 40094 8876/ 333 10325 29077 55042 58011;EQDQ01+000082SCOTLCQ02  00002PRCP99
0201832360999992001021512004-12140-045000FM-12+044099999V0209999C000010075019N0100001N1+02371+02071101271ADDAA124001091AY161061AY261061GF106991051021008001061071KA1240N+02031MA1999999096351MD1999999+0031MW1021REMSYN088AAXX  15124 83236 21597 60000 10237 20207 39635 40127 70266 85267 333 20203 58003 60014;
0167832360999992001021518004-12140-045000FM-12+044099999V0200501N005110075019N0200001N1+03101+02121100771ADDAA199000091GF106991051021008001051071MA1999999095911MD1999999+0101REMSYN070AAXX  15184 83236 32598 60510 10310 20212 39591 40077 85257 333 58010;EQDQ01  00002PRCP99
0198832360999992001021600004-12140-045000FM-12+044099999V0201801N001510450019N0200001N1+02321+02131101041ADDAA199000091GF106991041031008001061051KA1240M+03211MA1999999096121MD1999999+0071REMSYN088AAXX  16004 83236 32598 61803 10232 20213 39612 40104 84365 333 10321 29080 55047 58007;EQDQ01  00002PRCP99
0186832360999992001021612004-12140-045000FM-12+044099999V0209999C000010075019N0100001N1+02521+02211101311ADDAA199000091GF108991071021008001081999KA1240N+02121MA1999999096381MD1999999+0031REMSYN076AAXX  16124 83236 32597 80000 10252 20221 39638 40131 8728/ 333 20212 58003;EQDQ01  00002PRCP99
0182832360999992001021618004-12140-045000FM-12+044099999V0200901N002610450019N0200001N1+03091+02211100901ADDAA106002091AY161061AY261061GF108991041051008001071051MA1999999095931MD1999999+0021MW1171REMSYN082AAXX  16184 83236 21598 80905 10309 20221 39593 40090 71766 84575 333 58002 60021;
0226832360999992001021700004-12140-045000FM-12+044099999V0209999C000010075019N0200001N1+02241+99999101061ADDAA199000091AY121061AY221061GF106991061051008001071001KA1240M+03211MA1999999096161MD1999999+0041MW1131REMSYN094AAXX  17004 83236 31598 60000 10224 20230 39616 40106 71322 86570 333 10321 29081 55023 58004;EQDQ01  00002PRCP99
0173832360999992001021712004-12140-045000FM-12+044099999V0202301N002111050019N0200001N1+02691+02181101341ADDAA124002091GF105991031021008001001071KA1240N+02121MA1999999096441MD1999999+0061REMSYN082AAXX  17124 83236 22598 52304 10269 20218 39644 40134 83207 333 20212 58006 60024;
0167832360999992001021718004-12140-045000FM-12+044099999V0200501N003110075019N0100001N1+03271+02111100831ADDAA199000091GF108991071021008001071999MA1999999095991MD1999999+0061REMSYN070AAXX  17184 83236 32597 80506 10327 20211 39599 40083 8727/ 333 58006;EQDQ01  00002PRCP99
0213832360999992001021800004-12140-045000FM-12+044099999V0202301N002110075019N0100001N1+02271+02211101211ADDAA106001091AY161061AY261061GF108991061051008001081999KA1240M+03361MA1999999096311MD1999999+0151MW1131REMSYN100AAXX  18004 83236 21597 82304 10227 20221 39631 40121 71366 8658/ 333 10336 29080 55079 58015 60011;
0173832360999992001021812004-12140-045000FM-12+044099999V0202301N001512200019N0500001N1+02621+02211101421ADDAA124001091GF104991041021012501071001KA1240N+02081MA1999999096501MD1999999+0061REMSYN082AAXX  18124 83236 22699 42303 10262 20221 39650 40142 84270 333 20208 58006 60014;
0167832360999992001021818004-12140-045000FM-12+044099999V0200901N003110075019N0200001N1+03281+01931100961ADDAA199000091GF105991051021008001051001MA1999999096101MD1999999+0111REMSYN070AAXX  18184 83236 32598 50906 10328 20193 39610 40096 85250 333 58011;EQDQ01  00002PRCP99
0186832360999992001021912004-12140-045000FM-12+044099999V0209999C000010450019N0200001N1+02691+02091101371ADDAA199000091GF105991041021008001051031KA1240N+02071MA1999999096461MD1999999-0041REMSYN076AAXX  19124 83236 32598 50000 10269 20209 39646 40137 84253 333 20207 59004;EQDQ01  00002PRCP99
0195832360999992001021918004-12140-045000FM-12+044099999V0201401N002110075019N0200001N1+03291+01861100911ADDAA199000091AY121061AY221061GF106991051051008001071051MA1999999096841MD1999999-0061MW1151REMSYN076AAXX  19184 83236 31598 61404 10329 20186 39684 40091 71522 85575 333 59006;EQDQ01  00002PRCP99
0226832360999992001022000004-12140-045000FM-12+044099999V0209999C000010075019N0200001N1+02351+01931101231ADDAA199000091AY121061AY221061GF106991061051008001081001KA1240M+03361MA1999999096341MD1999999+0091MW1171REMSYN094AAXX  20004 83236 31598 60000 10235 20193 39634 40123 71722 86580 333 10336 29067 55070 58009;EQDQ01  00002PRCP99
0201832360999992001022012004-12140-045000FM-12+044099999V0209999C000010075019N0100001N1+02361+02111101401ADDAA124002091AY161061AY251061GF107991061071008001061051KA1240N+02081MA1999999096461MD1999999+0001MW1031REMSYN088AAXX  20124 83236 21597 70000 10236 20211 39646 40140 70365 86765 333 20208 58000 60024;
0167832360999992001022018004-12140-045000FM-12+044099999V0200901N004110075019N0200001N1+03171+01891100851ADDAA199000091GF107991051021008001071051MA1999999095971MD1999999-0071REMSYN070AAXX  20184 83236 32598 70908 10317 20189 39597 40085 85275 333 59007;EQDQ01  00002PRCP99
0226832360999992001022100004-12140-045000FM-12+044099999V0202301N001511050019N0200001N1+02301+02051101181ADDAA199000091AY121061AY221061GF105991031051008001001071KA1240M+03341MA1999999096251MD1999999-0091MW1131REMSYN094AAXX  21004 83236 31598 52303 10230 20205 39625 40118 71322 83507 333 10334 29076 55059 59009;EQDQ01  00002PRCP99
0186832360999992001022112004-12140-045000FM-12+044099999V0202301N001510450019N0200001N1+02471+02031101251ADDAA199000091GF106991041021008001061071KA1240N+02021MA1999999096331MD1999999-0131REMSYN076AAXX  21124 83236 32598 62303 10247 20203 39633 40125 84267 333 20202 59013;EQDQ01  00002PRCP99
0182832360999992001022118004-12140-045000FM-12+044099999V0200501N003110075019N0020001N1+02201+01251101041ADDAA106008991AY161061AY261061GF108991071061008001999999MA1999999096081MD1999999+0111MW1621REMSYN082AAXX  21184 83236 21595 80506 10220 20125 39608 40104 76266 876// 333 58011 60091;
0213832360999992001022200004-12140-045000FM-12+044099999V0201801N001510075019N0100001N1+02051+02011101141ADDAA106004191AY151061AY251061GF106991061051008001061001KA1240M+03191MA1999999096201MD1999999-0051MW1131REMSYN100AAXX  22004 83236 21597 61803 10205 20201 39620 40114 71355 86560 333 10319 29092 55029 59005 60041;
0201832360999992001022212004-12140-045000FM-12+044099999V0209999C000010075019N0040001N1+02211+02121101391ADDAA124013091AY151061AY251061GF108991051051008001021999KA1240N+01981MA1999999096431MD1999999+0101MW1021REMSYN088AAXX  22124 83236 21596 80000 10221 20212 39643 40139 70255 8552/ 333 20198 58010 60134;
0195832360999992001022218004-12140-045000FM-12+044099999V0201401N008210075019N0100001N1+02811+01781100901ADDAA199000091AY111061AY251061GF106991061071008001001001MA1999999096001MD1999999-0081MW1291REMSYN076AAXX  22184 83236 31597 61416 10281 20178 39600 40090 72915 86700 333 59008;EQDQ01  00002PRCP99
0226832360999992001022300004-12140-045000FM-12+044099999V0202701N001510450019N0100001N1+02211+02051101021ADDAA199000091AY101061AY221061GF106991041071008001021001KA1240M+03151MA1999999096081MD1999999-0131MW1131REMSYN094AAXX  23004 83236 31597 62703 10221 20205 39608 40102 71302 84720 333 10315 29083 55028 59013;EQDQ01  00002PRCP99
0186832360999992001022312004-12140-045000FM-12+044099999V0209999C000012200019N0200001N1+02671+02181101291ADDAA199000091GF102991011041008001021031KA1240N+01921MA1999999096441MD1999999+0011REMSYN076AAXX  23124 83236 32598 20000 10267 20218 39644 40129 81423 333 20192 58001;EQDQ01  00002PRCP99
0167832360999992001022318004-12140-045000FM-12+044099999V0200501N004612200019N0200001N1+03311+02121100761ADDAA199000091GF104991031021008001001011MA1999999095921MD1999999-0081REMSYN070AAXX  23184 83236 32598 40509 10331 20212 39592 40076 83201 333 59008;EQDQ01  00002PRCP99
0198832360999992001022400004-12140-045000FM-12+044099999V0201801N001512200019N0200001N1+02381+02171100951ADDAA199000091GF103991031001022501061001KA1240M+03461MA1999999096071MD1999999-0011REMSYN088AAXX  24004 83236 32898 31803 10238 20217 39607 40095 83060 333 10346 29074 55102 59001;EQDQ01  00002PRCP99
0186832360999992001022412004-12140-045000FM-12+044099999V0200501N005112200019N0200001N1+02691+01991101141ADDAA199000091GF103991011061008001001081KA1240N+02031MA1999999096271MD1999999-0091REMSYN076AAXX  24124 83236 32598 30510 10269 20199 39627 40114 81608 333 20203 59009;EQDQ01  00002PRCP99
0167832360999992001022418004-12140-045000FM-12+044099999V0200901N003612200019N0200001N1+03331+01931100721ADDAA199000091GF105991031021008001001011MA1999999095901MD1999999-0021REMSYN070AAXX  24184 83236 32598 50907 10333 20193 39590 40072 83201 333 59002;EQDQ01  00002PRCP99
0208832360999992001022500004-12140-045000FM-12+044099999V0201801N002112200019N0200001N1+02431+02171101151ADDAA199000091GA1001+999999999GF100991001001999999001001KA1240M+03461MA1999999096281MD1999999+0211REMSYN082AAXX  25004 83236 32998 01804 10243 20217 39628 40115 333 10346 29070 55101 58021;EQDQ01  00002PRCP99
0208832360999992001022512004-12140-045000FM-12+044099999V0201801N002112200019N0200001N1+02431+02171101151ADDAA199000091GA1001+999999999GF100991001001999999001001KA1240M+03461MA1999999096281MD1999999+0211REMSYN082AAXX  25124 83236 32998 01804 10243 20217 39628 40115 333 10346 29070 55101 58021;EQDQ01  00002PRCP99
0167832360999992001022518004-12140-045000FM-12+044099999V0200501N003611050019N0200001N1+03261+02111100571ADDAA199000091GF105991031021008001001021MA1999999095751MD1999999-0151REMSYN070AAXX  25184 83236 32598 50507 10326 20211 39575 40057 83202 333 59015;EQDQ01  00002PRCP99
0226832360999992001022600004-12140-045000FM-12+044099999V0209999C000012200019N0200001N1+02531+02311100761ADDAA199000091AY101061AY221061GF104991041071008001001001KA1240M+03471MA1999999095911MD1999999-0071MW1131REMSYN094AAXX  26004 83236 31598 40000 10253 20231 39591 40076 71302 84700 333 10347 29076 55093 59007;EQDQ01  00002PRCP99
0167832360999992001022618004-12140-045000FM-12+044099999V0200501N002612200019N0100001N1+03251+02031100501ADDAA199000091GF104991031021008001021011MA1999999095711MD1999999-0041REMSYN070AAXX  26184 83236 32597 40505 10325 20203 39571 40050 83221 333 59004;EQDQ01  00002PRCP99
0186832360999992001022700004-12140-045000FM-12+044099999V0209999C000012200019N0100001N1+02691+02091100801ADDAA199000091GF104991041021008001001001KA1240M+03431MA1999999095951MD1999999-0041REMSYN076AAXX  27004 83236 32597 40000 10269 20209 39595 40080 84200 333 10343 59004;EQDQ01  00002PRCP99
0201832360999992001022712004-12140-045000FM-12+044099999V0209999C000010450019N0100001N1+02441+02171101261ADDAA124000191AY151061AY251061GF107991041051008001021001KA1240N+02191MA1999999096381MD1999999+0191MW1021REMSYN088AAXX  27124 83236 21597 70000 10244 20217 39638 40126 70255 84520 333 20219 58019 69924;
0182832360999992001022718004-12140-045000FM-12+044099999V0200901N003610450019N0100001N1+02611+02101100921ADDAA106001091AY161061AY261061GF108991021061008001021999MA1999999096041MD1999999+0331MW1021REMSYN082AAXX  27184 83236 21597 80907 10261 20210 39604 40092 70266 8262/ 333 58033 69991;
0201832360999992001022812004-12140-045000FM-12+044099999V0202301N001010075019N0040001N1+02221+02011101341ADDAA124004191AY161061AY261061GF108991051051008001021999KA1240N+01951MA1999999096421MD1999999+0041MW1021REMSYN088AAXX  28124 83236 21596 82302 10222 20201 39642 40134 70266 8552/ 333 20195 58004 60044;
0167832360999992001022818004-12140-045000FM-12+044099999V0203601N001010450019N0100001N1+02821+02171100981ADDAA199000091GF107991031021008001021001MA1999999096091MD1999999-0111REMSYN070AAXX  28184 83236 32597 73602 10282 20217 39609 40098 83220 333 59011;EQDQ01  00002PRCP99
0198832360999992001030100004-12140-045000FM-12+044099999V0209999C000010120019N0040001N1+02511+02191100991ADDAA199000091GF107991071081008001001001KA1240M+02991MA1999999096091MD1999999-0111REMSYN088AAXX  01004 83236 32596 70000 10251 20219 39609 40099 87800 333 10299 29080 55012 59011;EQDQ01  00002PRCP99
0186832360999992001030112004-12140-045000FM-12+044099999V0203601N004610075019N0040001N1+02431+02151101301ADDAA199000091GF108991081051008001999999KA1240N+02151MA1999999096401MD1999999-0021REMSYN076AAXX  01124 83236 32596 83609 10243 20215 39640 40130 885// 333 20215 59002;EQDQ01  00002PRCP99
0184832360999992001030200004-12140-045000FM-12+044099999V0201801N001011050019N0040001N1+02511+02191101101ADDAA199000091GF107991031061008001001061KA1240M+02981MA1999999096221REMSYN088AAXX  02004 83236 32596 71802 10251 20219 39622 40110 83606 333 10298 29077 55051 5//18;EQDQ01  00002PRCP99
0173832360999992001030212004-12140-045000FM-12+044099999V0200501N001512200019N0200001N1+02561+02131101091ADDAA124001091GF102991021001022501081001KA1240N+01971MA1999999096181MD1999999-0011REMSYN082AAXX  02124 83236 22898 20503 10256 20213 39618 40109 82080 333 20197 59001 60014;
0167832360999992001030218004-12140-045000FM-12+044099999V0203601N002112200019N0200001N1+03131+02221100921ADDAA199000091GF103991021011008001001081MA1999999096091MD1999999-0071REMSYN070AAXX  02184 83236 32598 33604 10313 20222 39609 40092 82108 333 59007;EQDQ01  00002PRCP99
0186832360999992001030300004-12140-045000FM-12+044099999V0201801N000510120019N0040001N1+02691+02331101151ADDAA199000091GF108991081081008001001001KA1240M+03391MA1999999096271MD1999999+0051REMSYN076AAXX  03004 83236 32596 81801 10269 20233 39627 40115 88800 333 10339 58005;EQDQ01  00002PRCP99
0201832360999992001030312004-12140-045000FM-12+044099999V0201801N004119999999N0100001N1+02581+02151101471ADDAA124000191AY151061AY251061GF106991001001999999001061KA1240N+02161MA1999999096601MD1999999+0061MW1021REMSYN088AAXX  03124 83236 21997 61808 10258 20215 39660 40147 70255 80006 333 20216 58006 69924;
0167832360999992001030318004-12140-045000FM-12+044099999V0203601N002110450019N0100001N1+03111+02201101011ADDAA199000091GF106991041021008001061001MA1999999096181MD1999999+0091REMSYN070AAXX  03184 83236 32597 63604 10311 20220 39618 40101 84260 333 58009;EQDQ01  00002PRCP99
0198832360999992001030400004-12140-045000FM-12+044099999V0201801N002112200019N0200001N1+02531+02231101151ADDAA199000091GF103991001001999999001081KA1240M+03351MA1999999096381MD1999999+0111REMSYN088AAXX  04004 83236 32998 31804 10253 20223 39638 40115 80008 333 10335 29076 55045 58011;EQDQ01  00002PRCP99
0186832360999992001030412004-12140-045000FM-12+044099999V0201801N003112200019N0200001N1+02711+02221101321ADDAA199000091GF103991011011008001001081KA1240N+02151MA1999999096451MD1999999-0151REMSYN076AAXX  04124 83236 32598 31806 10271 20222 39645 40132 81108 333 20215 59015;EQDQ01  00002PRCP99
0183832360999992001030418004-12140-045000FM-12+044099999V0200901N004112200019N0200001N1+03321+02071100791ADDAA199000091GF103991999021008001001001MA1999999095971MD1999999-0211REMSYN070AAXX  04184 83236 32598 30908 10332 20207 39597 40079 84200 333 59021;EQDQ01+000042SCOTLCQ02  00002PRCP99
0186832360999992001030500004-12140-045000FM-12+044099999V0209999C000010210019N0100001N1+02641+02351101071ADDAA199000091GF108991081001022501021999KA1240M+03481MA1999999096221MD1999999-0161REMSYN076AAXX  05004 83236 32897 80000 10264 20235 39622 40107 8802/ 333 10348 59016;EQDQ01  00002PRCP99
0214832360999992001030512004-12140-045000FM-12+044099999V0201801N001010450019N0040001N1+02441+02111101351ADDAA199000091AY101061AY291061GF108991041071008001021999KA1240N+02121MA1999999096471MD1999999+0021MW1151REMSYN082AAXX  05124 83236 31596 81802 10244 20211 39647 40135 71509 8472/ 333 20212 58002;EQDQ01  00002PRCP99
0167832360999992001030518004-12140-045000FM-12+044099999V0200501N003110075019N0100001N1+03201+02301100731ADDAA199000091GF106991051031008001001031MA1999999095921MD1999999-0051REMSYN070AAXX  05184 83236 32597 60506 10320 20230 39592 40073 85303 333 59005;EQDQ01  00002PRCP99
0213832360999992001030600004-12140-045000FM-12+044099999V0209999C000010450019N0040001N1+02551+02291101071ADDAA106000591AY151061AY251061GF108991031051008001021999KA1240M+03331MA1999999096191MD1999999-0031MW1021REMSYN100AAXX  06004 83236 21596 80000 10255 20229 39619 40107 70255 8352/ 333 10333 29079 55029 59003 69941;
0173832360999992001030612004-12140-045000FM-12+044099999V0201801N001012200019N0200001N1+02751+02241101281ADDAA124000591GF104991021021008001001021KA1240N+02211MA1999999096421MD1999999-0021REMSYN082AAXX  06124 83236 22598 41802 10275 20224 39642 40128 82202 333 20221 59002 69944;
0167832360999992001030618004-12140-045000FM-12+044099999V0200501N005711050019N0200001N1+03311+02051100781ADDAA199000091GF105991031021008001001021MA1999999095981MD1999999+0061REMSYN070AAXX  06184 83236 32598 50511 10331 20205 39598 40078 83202 333 58006;EQDQ01  00002PRCP99
0226832360999992001030700004-12140-045000FM-12+044099999V0209999C000012200019N0100001N1+02551+02401101111ADDAA199000091AY101061AY221061GF104991031031008001061001KA1240M+03451MA1999999096361MD1999999+0071MW1131REMSYN094AAXX  07004 83236 31597 40000 10255 20240 39636 40111 71302 83360 333 10345 29076 55078 58007;EQDQ01  00002PRCP99
0186832360999992001030712004-12140-045000FM-12+044099999V0202301N001512200019N0200001N1+02611+02141101501ADDAA199000091GF104991021021008001061091KA1240N+02151MA1999999096621MD1999999+0201REMSYN076AAXX  07124 83236 32598 42303 10261 20214 39662 40150 82269 333 20215 58020;EQDQ01  00002PRCP99
0195832360999992001030718004-12140-045000FM-12+044099999V0201801N002110450019N0100001N1+03271+02211100971ADDAA199000091AY101061AY221061GF105991041031008001041001MA1999999096161MD1999999+0181MW1151REMSYN076AAXX  07184 83236 31597 51804 10327 20221 39616 40097 71502 84340 333 58018;EQDQ01  00002PRCP99
0232832360999992001030800004-12140-045000FM-12+044099999V0201801N001012200019N0200001N1+02431+02281101181ADDAA106005191AY191061AY261061GF103991999041008001001001KA1240M+03471MA1999999096301MD1999999+0041MW1021REMSYN100AAXX  08004 83236 21598 31802 10243 20228 39630 40118 70296 84400 333 10347 29078 55097 58004 60051;EQDQ01+000042SCOTLC
0173832360999992001030812004-12140-045000FM-12+044099999V0209999C000012200019N0200001N1+02541+02171101401ADDAA124005191GF102991001001999999001081KA1240N+02061MA1999999096511MD1999999-0111REMSYN082AAXX  08124 83236 22998 20000 10254 20217 39651 40140 80008 333 20206 59011 60054;
0167832360999992001030818004-12140-045000FM-12+044099999V0200901N002112200019N0200001N1+03481+02021100871ADDAA199000091GF104991031021008001001041MA1999999096061MD1999999-0161REMSYN070AAXX  08184 83236 32598 40904 10348 20202 39606 40087 83204 333 59016;EQDQ01  00002PRCP99
0198832360999992001030900004-12140-045000FM-12+044099999V0202301N001012200019N0200001N1+02511+02171100991ADDAA199000091GF102991001001999999001041KA1240M+03551MA1999999096121MD1999999-0181REMSYN088AAXX  09004 83236 32998 22302 10251 20217 39612 40099 80004 333 10355 29072 55103 59018;EQDQ01  00002PRCP99
0186832360999992001030912004-12140-045000FM-12+044099999V0209999C000012200019N0200001N1+02581+02151101021ADDAA199000091GF102991001001999999001081KA1240N+01941MA1999999096251MD1999999-0261REMSYN076AAXX  09124 83236 32998 20000 10258 20215 39625 40102 80008 333 20194 59026;EQDQ01  00002PRCP99
0167832360999992001030918004-12140-045000FM-12+044099999V0201801N001012200019N0200001N1+03511+01721100541ADDAA199000091GF103991031021008001001001MA1999999095751MD1999999-0311REMSYN070AAXX  09184 83236 32598 31802 10351 20172 39575 40054 83200 333 59031;EQDQ01  00002PRCP99
0198832360999992001031000004-12140-045000FM-12+044099999V0201801N002112200019N0200001N1+02581+02211100871ADDAA199000091GF104991021001022501061041KA1240M+03651MA1999999095971MD1999999-0151REMSYN088AAXX  10004 83236 32898 41804 10258 20221 39597 40087 82064 333 10365 29068 55103 59015;EQDQ01  00002PRCP99
0186832360999992001031012004-12140-045000FM-12+044099999V0200501N001010120019N0100001N1+02491+02051101081ADDAA199000091GF108991071081008001071999KA1240N+02031MA1999999096211MD1999999-0041REMSYN076AAXX  10124 83236 32597 80502 10249 20205 39621 40108 8787/ 333 20203 59004;EQDQ01  00002PRCP99
0167832360999992001031018004-12140-045000FM-12+044099999V0201801N001010075019N0200001N1+03141+01691100621ADDAA199000091GF107991061041008001071051MA1999999095781MD1999999+0031REMSYN070AAXX  10184 83236 32598 71802 10314 20169 39578 40062 86475 333 58003;EQDQ01  00002PRCP99
0213832360999992001031100004-12140-045000FM-12+044099999V0209999C000010075019N0040001N1+02341+02201101021ADDAA106000391AY151061AY251061GF108991071061008001999999KA1240M+03221MA1999999096131MD1999999+0161MW1501REMSYN100AAXX  11004 83236 21596 80000 10234 20220 39613 40102 75055 876// 333 10322 29078 55038 58016 69931;
0173832360999992001031112004-12140-045000FM-12+044099999V0202301N002110075019N0200001N1+02501+02091101121ADDAA124000891GF106991051021008001061071KA1240N+02211MA1999999096241MD1999999+0031REMSYN082AAXX  11124 83236 22598 62304 10250 20209 39624 40112 85267 333 20221 58003 69974;
0213832360999992001031200004-12140-045000FM-12+044099999V0200501N001510075019N0040001N1+02311+02201101111ADDAA106004191AY161061AY261061GF108991061071008001051999KA1240M+03071MA1999999096211MD1999999+0081MW1101REMSYN100AAXX  12004 83236 21596 80503 10231 20220 39621 40111 71066 8675/ 333 10307 29083 55050 58008 60041;
0220832360999992001031212004-12140-045000FM-12+044099999V0200501N002610075019N0020001N1+02121+02051101381ADDAA124055991AY161061AY261061GF108991999061008001041999KA1240N+02041MA1999999096431MD1999999+0191MW1501REMSYN088AAXX  12124 83236 21595 80505 10212 20205 39643 40138 75066 8864/ 333 20204 58019 60564;EQDQ01+000082SCOTLC
0182832360999992001031218004-12140-045000FM-12+044099999V0200501N003110075019N0040001N1+02531+02231100961ADDAA106006191AY161061AY251061GF108991061051008001999999MA1999999096051MD1999999+0271MW1151REMSYN082AAXX  12184 83236 21596 80506 10253 20223 39605 40096 71565 865// 333 58027 60061;
0207832360999992001031300004-12140-045000FM-12+044099999V0200501N002610120019N0040001N1+02341+02241101171ADDAA199000021AY121061AY221061GF108991061081008001999999KA1240M+02621MA1999999096241MD1999999+0031MW1101REMSYN094AAXX  13004 83236 31596 80505 10234 20224 39624 40117 71022 868// 333 10262 29092 55000 58003;
0201832360999992001031312004-12140-045000FM-12+044099999V0200501N001510075019N0040001N1+02351+02131101381ADDAA124006191AY121061AY221061GF108991061061008001051999KA1240N+02131MA1999999096461MD1999999+0061MW1151REMSYN088AAXX  13124 83236 21596 80503 10235 20213 39646 40138 71522 8665/ 333 20213 58006 60064;
0182832360999992001031318004-12140-045000FM-12+044099999V0203601N002110075019N0100001N1+02861+02091100831ADDAA106000191AY151061AY251061GF108991071061008001081999MA1999999095961MD1999999-0091MW1151REMSYN082AAXX  13184 83236 21597 83604 10286 20209 39596 40083 71555 8768/ 333 59009 69911;
0213832360999992001031400004-12140-045000FM-12+044099999V0203601N001510075019N0020001N1+02101+02081101401ADDAA106047091AY161061AY261061GF108991061061008001999999KA1240M+02981MA1999999096451MD1999999+0211MW1621REMSYN100AAXX  14004 83236 21595 83603 10210 20208 39645 40140 76266 866// 333 10298 29087 55020 58021 60471;
0201832360999992001031412004-12140-045000FM-12+044099999V0203601N001010120019N0040001N1+02271+02071101321ADDAA124062091AY161061AY251061GF108991071081008001061999KA1240N+02011MA1999999096371MD1999999-0091MW1021REMSYN088AAXX  14124 83236 21596 83602 10227 20207 39637 40132 70265 8786/ 333 20201 59009 60624;
0167832360999992001031418004-12140-045000FM-12+044099999V0203601N001010075019N0200001N1+02841+01961100891ADDAA199000091GF106991051021008001071051MA1999999096001MD1999999+0041REMSYN070AAXX  14184 83236 32598 63602 10284 20196 39600 40089 85275 333 58004;EQDQ01  00002PRCP99
0226832360999992001031500004-12140-045000FM-12+044099999V0201801N001010075019N0200001N1+02271+02181101151ADDAA199000091AY121061AY221061GF105991051051008001001001KA1240M+02941MA1999999096221MD1999999-0231MW1131REMSYN094AAXX  15004 83236 31598 51802 10227 20218 39622 40115 71322 85500 333 10294 29084 55033 59023;EQDQ01  00002PRCP99
0173832360999992001031512004-12140-045000FM-12+044099999V0209999C000010120019N0100001N1+02251+01941101421ADDAA124006191GF108991061081008001071999KA1240N+01991MA1999999096471MD1999999+0101REMSYN082AAXX  15124 83236 22597 80000 10225 20194 39647 40142 8687/ 333 20199 58010 60064;
0182832360999992001031518004-12140-045000FM-12+044099999V0201801N002110075019N0100001N1+02371+02201100981ADDAA106000891AY161061AY251061GF106991061061008001081001MA1999999096051MD1999999+0051MW1151REMSYN082AAXX  15184 83236 21597 61804 10237 20220 39605 40098 71565 86680 333 58005 69981;
0226832360999992001031600004-12140-045000FM-12+044099999V0201801N001010075019N0200001N1+02251+02171101041ADDAA199000091AY121061AY221061GF105991051061008001051001KA1240M+02931MA1999999096171MD1999999-0051MW1131REMSYN094AAXX  16004 83236 31598 51802 10225 20217 39617 40104 71322 85650 333 10293 29091 55035 59005;EQDQ01  00002PRCP99
0201832360999992001031612004-12140-045000FM-12+044099999V0202301N001510120019N0100001N1+02411+02191101421ADDAA124001091AY151061AY251061GF108991071081008001071999KA1240N+02151MA1999999096521MD1999999+0051MW1101REMSYN088AAXX  16124 83236 21597 82303 10241 20219 39652 40142 71055 8787/ 333 20215 58005 60014;
0182832360999992001031618004-12140-045000FM-12+044099999V0203201N001010075019N0100001N1+02771+02121101111ADDAA106001091AY151061AY251061GF107991051051008001071051MA1999999096221MD1999999+0171MW1151REMSYN082AAXX  16184 83236 21597 73202 10277 20212 39622 40111 71555 85575 333 58017 60011;
0213832360999992001031700004-12140-045000FM-12+044099999V0203201N002110120019N0040001N1+02351+02261101231ADDAA106006191AY161061AY261061GF108991061081008001061999KA1240M+02851MA1999999096331MD1999999+0161MW1021REMSYN100AAXX  17004 83236 21596 83204 10235 20226 39633 40123 70266 8686/ 333 10285 29081 55010 58016 60061;
0173832360999992001031712004-12140-045000FM-12+044099999V0209999C000010075019N0200001N1+02351+01931101311ADDAA124007191GF107991061021008001061071KA1240N+01951MA1999999096391MD1999999-0131REMSYN082AAXX  17124 83236 22598 70000 10235 20193 39639 40131 86267 333 20195 59013 60074;
0195832360999992001031718004-12140-045000FM-12+044099999V0201401N003110075019N0100001N1+02591+02001100941ADDAA199000091AY121061AY221061GF108991071061008001081999MA1999999096071MD1999999-0151MW1151REMSYN076AAXX  17184 83236 31597 81406 10259 20200 39607 40094 71522 8768/ 333 59015;EQDQ01  00002PRCP99
0173832360999992001031812004-12140-045000FM-12+044099999V0209999C000011050019N0200001N1+02401+02131101171ADDAA124002091GF105991031001022501071031KA1240N+01921MA1999999096271MD1999999-0121REMSYN082AAXX  18124 83236 22898 50000 10240 20213 39627 40117 83073 333 20192 59012 60024;
0167832360999992001031818004-12140-045000FM-12+044099999V0200501N002610075019N0200001N1+03021+02071100681ADDAA199000091GF106991051021008001081051MA1999999095821MD1999999-0251REMSYN070AAXX  18184 83236 32598 60505 10302 20207 39582 40068 85285 333 59025;EQDQ01  00002PRCP99
0198832360999992001031900004-12140-045000FM-12+044099999V0201001N002110120019N0100001N1+02401+02211100891ADDAA199000091GF108991061081008001061999KA1240M+03121MA1999999096001MD1999999-0211REMSYN088AAXX  19004 83236 32597 81004 10240 20221 39600 40089 8686/ 333 10312 29080 55086 59021;EQDQ01  00002PRCP99
0186832360999992001031912004-12140-045000FM-12+044099999V0209999C000010450019N0200001N1+02541+02171101131ADDAA199000091GF105991031021008001071051KA1240N+02091MA1999999096241MD1999999-0031REMSYN076AAXX  19124 83236 32598 50000 10254 20217 39624 40113 83275 333 20209 59003;EQDQ01  00002PRCP99
0195832360999992001031918004-12140-045000FM-12+044099999V0201801N003110075019N0100001N1+02671+02091100741ADDAA199000091AY121061AY221061GF108991071061008001081999MA1999999095861MD1999999+0041MW1151REMSYN076AAXX  19184 83236 31597 81806 10267 20209 39586 40074 71522 8768/ 333 58004;EQDQ01  00002PRCP99
0213832360999992001032000004-12140-045000FM-12+044099999V0209999C000010075019N0100001N1+02321+02251101001ADDAA106000191AY151061AY251061GF106991061061008001051001KA1240M+03081MA1999999096121MD1999999+0121MW1131REMSYN100AAXX  20004 83236 21597 60000 10232 20225 39612 40100 71355 86650 333 10308 29086 55063 58012 69921;
0201832360999992001032012004-12140-045000FM-12+044099999V0201801N001010450019N0200001N1+02561+02311101391ADDAA124006191AY161061AY261061GF105991041021008001061071KA1240N+02131MA1999999096491MD1999999+0251MW1021REMSYN088AAXX  20124 83236 21598 51802 10256 20231 39649 40139 70266 84267 333 20213 58025 60064;
0167832360999992001032018004-12140-045000FM-12+044099999V0200501N001511050019N0200001N1+03091+02161100951ADDAA199000091GF105991041021008001001051MA1999999096101MD1999999+0241REMSYN070AAXX  20184 83236 32598 50503 10309 20216 39610 40095 84205 333 58024;EQDQ01  00002PRCP99
0213832360999992001032100004-12140-045000FM-12+044099999V0201801N001012200019N0200001N1+02261+02231101161ADDAA106000591AY151061AY251061GF103991031061008001001001KA1240M+03181MA1999999096261MD1999999+0141MW1131REMSYN100AAXX  21004 83236 21598 31802 10226 20223 39626 40116 71355 83600 333 10318 29085 55018 58014 69961;
0173832360999992001032112004-12140-045000FM-12+044099999V0209999C000012200019N0500001N1+02431+02151101401ADDAA124000591GF102991021021012501001001KA1240N+01931MA1999999096481MD1999999-0011REMSYN082AAXX  21124 83236 22699 20000 10243 20215 39648 40140 82200 333 20193 59001 69964;
0167832360999992001032118004-12140-045000FM-12+044099999V0200501N001510075019N0200001N1+03111+02201100971ADDAA199000091GF105991051021008001001001MA1999999096111MD1999999+0011REMSYN070AAXX  21184 83236 32598 50503 10311 20220 39611 40097 85200 333 58001;EQDQ01  00002PRCP99
0208832360999992001032200004-12140-045000FM-12+044099999V0209999C000012200019N0500001N1+02341+02261101071ADDAA199000091GA1001+999999999GF100991001001999999001001KA1240M+03211MA1999999096171MD1999999-0091REMSYN082AAXX  22004 83236 32999 00000 10234 20226 39617 40107 333 10321 29083 55097 59009;EQDQ01  00002PRCP99
0186832360999992001032212004-12140-045000FM-12+044099999V0203601N001010075019N0200001N1+02591+02211101231ADDAA199000091GF105991051021008001071001KA1240N+02051MA1999999096341MD1999999-0141REMSYN076AAXX  22124 83236 32598 53602 10259 20221 39634 40123 85270 333 20205 59014;EQDQ01  00002PRCP99
0167832360999992001032218004-12140-045000FM-12+044099999V0201401N003112200019N0200001N1+03161+02021100671ADDAA199000091GF104991041021008001001001MA1999999095831MD1999999-0281REMSYN070AAXX  22184 83236 32598 41406 10316 20202 39583 40067 84200 333 59028;EQDQ01  00002PRCP99
0208832360999992001032300004-12140-045000FM-12+044099999V0209999C000012200019N0500001N1+02331+02091100871ADDAA199000091GA1001+999999999GF100991001001999999001001KA1240M+03241MA1999999095991MD1999999-0181REMSYN082AAXX  23004 83236 32999 00000 10233 20209 39599 40087 333 10324 29076 55104 59018;EQDQ01  00002PRCP99
0186832360999992001032312004-12140-045000FM-12+044099999V0209999C000012200019N0500001N1+02381+01971101151ADDAA199000091GF102991021001022501071001KA1240N+01781MA1999999096241MD1999999-0101REMSYN076AAXX  23124 83236 32899 20000 10238 20197 39624 40115 82070 333 20178 59010;EQDQ01  00002PRCP99
0167832360999992001032318004-12140-045000FM-12+044099999V0200501N002610075019N0200001N1+03061+02021100511ADDAA199000091GF106991051021008001081051MA1999999095751MD1999999-0081REMSYN070AAXX  23184 83236 32598 60505 10306 20202 39575 40051 85285 333 59008;EQDQ01  00002PRCP99
0198832360999992001032400004-12140-045000FM-12+044099999V0209999C000012200019N0200001N1+02341+02201100831ADDAA199000091GF104991041021008001061001KA1240M+03161MA1999999095941MD1999999-0051REMSYN088AAXX  24004 83236 32598 40000 10234 20220 39594 40083 84260 333 10316 29079 55099 59005;EQDQ01  00002PRCP99
0186832360999992001032412004-12140-045000FM-12+044099999V0209999C000010075019N0200001N1+02351+02011101191ADDAA199000091GF106991051021008001061071KA1240N+01811MA1999999096281MD1999999+0041REMSYN076AAXX  24124 83236 32598 60000 10235 20201 39628 40119 85267 333 20181 58004;EQDQ01  00002PRCP99
0167832360999992001032418004-12140-045000FM-12+044099999V0200501N002610075019N0200001N1+03071+02141100831ADDAA199000091GF106991051021008001081051MA1999999095951MD1999999+0201REMSYN070AAXX  24184 83236 32598 60505 10307 20214 39595 40083 85285 333 58020;EQDQ01  00002PRCP99
0198832360999992001032500004-12140-045000FM-12+044099999V0209999C000012200019N0500001N1+02351+02051101001ADDAA199000091GF102991001001999999001071KA1240M+03161MA1999999096101MD1999999+0161REMSYN088AAXX  25004 83236 32999 20000 10235 20205 39610 40100 80007 333 10316 29075 55103 58016;EQDQ01  00002PRCP99
0186832360999992001032512004-12140-045000FM-12+044099999V0209999C000012200019N0200001N1+02481+02191101331ADDAA199000091GF103991011011008001001061KA1240N+01951MA1999999096421MD1999999+0141REMSYN076AAXX  25124 83236 32598 30000 10248 20219 39642 40133 81106 333 20195 58014;EQDQ01  00002PRCP99
0223832360999992001032518004-12140-045000FM-12+044099999V0201401N999999999999N0200001N1+02931+02191100881ADDAA199000091AY101061AY291061GA1031+000909079GF106991999999008001999999MA1999999096001MW1151REMSYN070AAXX  25184 83236 31598 61497 10293 20219 39600 40088 71509 333 83303;EQDQ01+004993WOSPD Q02  00002PRCP99Q030004993WOSPD 
0226832360999992001032600004-12140-045000FM-12+044099999V0201801N001510450019N0040001N1+02341+02201100941ADDAA199000091AY101061AY221061GF108991041071008001021999KA1240M+03211MA1999999096051MD1999999-0051MW1131REMSYN094AAXX  26004 83236 31596 81803 10234 20220 39605 40094 71302 8472/ 333 10321 29083 55090 59005;EQDQ01  00002PRCP99
0186832360999992001032612004-12140-045000FM-12+044099999V0209999C000012200019N0200001N1+02601+02351101261ADDAA199000091GF103991011011008001001021KA1240N+02191MA1999999096361MD1999999-0061REMSYN076AAXX  26124 83236 32598 30000 10260 20235 39636 40126 81102 333 20219 59006;EQDQ01  00002PRCP99
0195832360999992001032618004-12140-045000FM-12+044099999V0203601N003612200019N0200001N1+03191+02161100671ADDAA199000091AY191061AY291061GF104991031031008001041001MA1999999095841MD1999999-0161MW1151REMSYN076AAXX  26184 83236 31598 43607 10319 20216 39584 40067 71599 83340 333 59016;EQDQ01  00002PRCP99
0167832360999992001032718004-12140-045000FM-12+044099999V0200901N002112200019N0200001N1+03171+02171100671ADDAA199000091GF103991031021008001001001MA1999999095821MD1999999-0021REMSYN070AAXX  27184 83236 32598 30904 10317 20217 39582 40067 83200 333 59002;EQDQ01  00002PRCP99
0196832360999992001032800004-12140-045000FM-12+044099999V0209999C000012200019N0200001N1+02481+02301100911ADDAA199000091GA1001+999999999GF100991001001999999001001KA1240M+03331MA1999999096031MD1999999-0191REMSYN070AAXX  28004 83236 32998 00000 10248 20230 39603 40091 333 10333 59019;EQDQ01  00002PRCP99
0186832360999992001032812004-12140-045000FM-12+044099999V0209999C000012200019N0200001N1+02471+02151101151ADDAA199000091GF104991021001022501061041KA1240N+01951MA1999999096261MD1999999-0091REMSYN076AAXX  28124 83236 32898 40000 10247 20215 39626 40115 82064 333 20195 59009;EQDQ01  00002PRCP99
0167832360999992001032818004-12140-045000FM-12+044099999V0200901N003110450019N0200001N1+03031+02071100661ADDAA199000091GF105991041021008001061001MA1999999095801MD1999999-0021REMSYN070AAXX  28184 83236 32598 50906 10303 20207 39580 40066 84260 333 59002;EQDQ01  00002PRCP99
0208832360999992001032900004-12140-045000FM-12+044099999V0201801N001012200019N0200001N1+02391+02211100901ADDAA199000091GA1001+999999999GF100991001001999999001001KA1240M+03351MA1999999096021MD1999999-0011REMSYN082AAXX  29004 83236 32998 01802 10239 20221 39602 40090 333 10335 29080 55086 59001;EQDQ01  00002PRCP99
0201832360999992001032912004-12140-045000FM-12+044099999V0200901N000510120019N0100001N1+02441+02251101341ADDAA124009991AY161061AY261061GF106991051081008001041001KA1240N+02141MA1999999096431MD1999999+0171MW1021REMSYN088AAXX  29124 83236 21597 60901 10244 20225 39643 40134 70266 85840 333 20214 58017 60104;
0167832360999992001032918004-12140-045000FM-12+044099999V0200501N003111050019N0100001N1+03031+02311100881ADDAA199000091GF106991031021008001001051MA1999999096071MD1999999+0271REMSYN070AAXX  29184 83236 32597 60506 10303 20231 39607 40088 83205 333 58027;EQDQ01  00002PRCP99
0198832360999992001033000004-12140-045000FM-12+044099999V0202701N001010210019N0100001N1+02431+02231100911ADDAA199000091GF105991051001022501021001KA1240M+03161MA1999999096251MD1999999+0231REMSYN088AAXX  30004 83236 32897 52702 10243 20223 39625 40091 85020 333 10316 29083 55082 58023;EQDQ01  00002PRCP99
0201832360999992001033012004-12140-045000FM-12+044099999V0202801N001011050019N0100001N1+02421+02281101271ADDAA124000191AY151061AY251061GF106991041081008001001021KA1240N+02201MA1999999096461MD1999999+0031MW1021REMSYN088AAXX  30124 83236 21597 62802 10242 20228 39646 40127 70255 84802 333 20220 58003 69924;
0167832360999992001033018004-12140-045000FM-12+044099999V0203601N001512200019N0200001N1+03081+02371100851ADDAA199000091GF103991031021008001001001MA1999999096011MD1999999-0061REMSYN070AAXX  30184 83236 32598 33603 10308 20237 39601 40085 83200 333 59006;EQDQ01  00002PRCP99
0226832360999992001033100004-12140-045000FM-12+044099999V0202301N001012200019N0100001N1+02501+02451101061ADDAA199000091AY101061AY221061GF104991041071008001001001KA1240M+03191MA1999999096171MD1999999-0081MW1131REMSYN094AAXX  31004 83236 31597 42302 10250 20245 39617 40106 71302 84700 333 10319 29088 55084 59008;EQDQ01  00002PRCP99
0186832360999992001033112004-12140-045000FM-12+044099999V0200901N001512200019N0200001N1+02621+02411101231ADDAA199000091GF104991021021008001061001KA1240N+02061MA1999999096351MD1999999-0111REMSYN076AAXX  31124 83236 32598 40903 10262 20241 39635 40123 82260 333 20206 59011;EQDQ01  00002PRCP99
0167832360999992001033118004-12140-045000FM-12+044099999V0203601N001012200019N0200001N1+03141+02331100711ADDAA199000091GF103991031011008001001001MA1999999095901MD1999999-0111REMSYN070AAXX  31184 83236 32598 33602 10314 20233 39590 40071 83100 333 59011;EQDQ01  00002PRCP99
0198832360999992001040100004-12140-045000FM-12+044099999V0201801N000512200019N0200001N1+02511+02401100921ADDAA199000091GF103991031031008001001001KA1240M+03251MA1999999096061MD1999999-0111REMSYN088AAXX  01004 83236 31598 31801 10251 20240 39606 40092 83300 333 10325 29084 55107 59011;EQDQ01  00002PRCP99
0186832360999992001040112004-12140-045000FM-12+044099999V0203601N000512200019N0200001N1+02561+02131101301ADDAA199000091GF103991021011008001001011KA1240N+02111MA1999999096421MD1999999+0071REMSYN076AAXX  01124 83236 32598 33601 10256 20213 39642 40130 82101 333 20211 58007;EQDQ01  00002PRCP99
0167832360999992001040118004-12140-045000FM-12+044099999V0201801N001012200019N0200001N1+03071+02381100811ADDAA199000091GF104991041031008001001001MA1999999095971MD1999999+0021REMSYN070AAXX  01184 83236 32598 41802 10307 20238 39597 40081 84300 333 58002;EQDQ01  00002PRCP99
0186832360999992001040200004-12140-045000FM-12+044099999V0201801N000512200019N0200001N1+02401+02281100981ADDAA199000091GF103991001001999999001081KA1240M+03191MA1999999096111MD1999999+0051REMSYN076AAXX  02004 83236 32998 31801 10240 20228 39611 40098 80008 333 10319 58005;EQDQ01  00002PRCP99
0186832360999992001040212004-12140-045000FM-12+044099999V0209999C000012200019N0200001N1+02531+02171101351ADDAA199000091GF103991001001999999001021KA1240N+01981MA1999999096451MD1999999+0031REMSYN076AAXX  02124 83236 32998 30000 10253 20217 39645 40135 80002 333 20198 58003;EQDQ01  00002PRCP99
0167832360999992001040218004-12140-045000FM-12+044099999V0203601N001511050019N0200001N1+03131+02281100951ADDAA199000091GF106991021021008001001051MA1999999096101MD1999999+0131REMSYN070AAXX  02184 83236 32598 63603 10313 20228 39610 40095 82205 333 58013;EQDQ01  00002PRCP99
0198832360999992001040300004-12140-045000FM-12+044099999V0201801N001510120019N0100001N1+02371+02321101151ADDAA199000091GF106991061081008001001001KA1240M+03231MA1999999096261MD1999999+0151REMSYN088AAXX  03004 83236 32597 61803 10237 20232 39626 40115 86800 333 10323 29082 55092 58015;EQDQ01  00002PRCP99
0186832360999992001040312004-12140-045000FM-12+044099999V0209999C000012200019N0200001N1+02551+02291101311ADDAA199000091GF104991021021008001001041KA1240N+02051MA1999999096411MD1999999-0041REMSYN076AAXX  03124 83236 32598 40000 10255 20229 39641 40131 82204 333 20205 59004;EQDQ01  00002PRCP99
0167832360999992001040318004-12140-045000FM-12+044099999V0203601N001012200019N0200001N1+03221+02201100801ADDAA199000091GF104991041021008001001001MA1999999095961MD1999999-0141REMSYN070AAXX  03184 83236 32598 43602 10322 20220 39596 40080 84200 333 59014;EQDQ01  00002PRCP99
0226832360999992001040400004-12140-045000FM-12+044099999V0201801N001010075019N0100001N1+02291+02141101081ADDAA199000091AY101061AY291061GF106991061051008001001001KA1240M+03331MA1999999096181MD1999999-0081MW1021REMSYN094AAXX  04004 83236 31597 61802 10229 20214 39618 40108 70209 86500 333 10333 29082 55093 59008;EQDQ01  00002PRCP99
0186832360999992001040412004-12140-045000FM-12+044099999V0209999C000019999999N0100001N1+02561+02331101191ADDAA199000091GF105991001001999999001051KA1240N+02051MA1999999096291MD1999999-0121REMSYN076AAXX  04124 83236 32997 50000 10256 20233 39629 40119 80005 333 20205 59012;EQDQ01  00002PRCP99
0167832360999992001040418004-12140-045000FM-12+044099999V0200501N003112200019N0100001N1+03251+02191100731ADDAA199000091GF106991021021008001001061MA1999999095911MD1999999-0051REMSYN070AAXX  04184 83236 32597 60506 10325 20219 39591 40073 82206 333 59005;EQDQ01  00002PRCP99
0196832360999992001040500004-12140-045000FM-12+044099999V0209999C000010210019N0040001N1+02441+02351100931ADDAY151061AY251061GF108991081001022501021999KA1240M+03331MA1999999096061MD1999999-0121MW1021REMSYN094AAXX  05004 83236 21896 80000 10244 20235 39606 40093 70255 8802/ 333 10333 29083 55088 59012;
0173832360999992001040512004-12140-045000FM-12+044099999V0200901N003112200019N0200001N1+02651+02231101291ADDAA124000191GF103991001001999999001061KA1240N+02191MA1999999096411MD1999999+0121REMSYN082AAXX  05124 83236 22998 30906 10265 20223 39641 40129 80006 333 20219 58012 69924;
0167832360999992001040518004-12140-045000FM-12+044099999V0201801N002610450019N0200001N1+03231+02201100841ADDAA199000091GF105991031021008001041021MA1999999096011MD1999999+0101REMSYN070AAXX  05184 83236 32598 51805 10323 20220 39601 40084 83242 333 58010;EQDQ01  00002PRCP99
0198832360999992001040600004-12140-045000FM-12+044099999V0209999C000012200019N0500001N1+02381+02261101101ADDAA199000091GF103991001001999999001081KA1240M+03351MA1999999096221MD1999999+0161REMSYN088AAXX  06004 83236 32999 30000 10238 20226 39622 40110 80008 333 10335 29080 55083 58016;EQDQ01  00002PRCP99
0186832360999992001040612004-12140-045000FM-12+044099999V0209999C000012200019N0500001N1+02441+02031101531ADDAA199000091GF102991021011008001001001KA1240N+01881MA1999999096611MD1999999+0201REMSYN076AAXX  06124 83236 32599 20000 10244 20203 39661 40153 82100 333 20188 58020;EQDQ01  00002PRCP99
0167832360999992001040618004-12140-045000FM-12+044099999V0201401N004112200019N0200001N1+03151+02161100981ADDAA199000091GF104991041021008001001001MA1999999096121MD1999999+0111REMSYN070AAXX  06184 83236 32598 41408 10315 20216 39612 40098 84200 333 58011;EQDQ01  00002PRCP99
0186832360999992001040700004-12140-045000FM-12+044099999V0209999C000010120019N0100001N1+02451+02251101231ADDAA199000091GF108991081081008001001001KA1240M+03311MA1999999096331MD1999999+0211REMSYN076AAXX  07004 83236 32597 80000 10245 20225 39633 40123 88800 333 10331 58021;EQDQ01  00002PRCP99
0186832360999992001040712004-12140-045000FM-12+044099999V0209999C000012200019N0200001N1+02651+02201101411ADDAA199000091GF104991041021008001071001KA1240N+02191MA1999999096531MD1999999-0081REMSYN076AAXX  07124 83236 32598 40000 10265 20220 39653 40141 84270 333 20219 59008;EQDQ01  00002PRCP99
0167832360999992001040718004-12140-045000FM-12+044099999V0200901N002610075019N0200001N1+03121+02021100901ADDAA199000091GF105991051021008001001001MA1999999096081MD1999999-0041REMSYN070AAXX  07184 83236 32598 50905 10312 20202 39608 40090 85200 333 59004;EQDQ01  00002PRCP99
0198832360999992001040800004-12140-045000FM-12+044099999V0209999C000012200019N0500001N1+02351+02151101091ADDAA199000091GF102991021021012501001001KA1240M+03281MA1999999096211MD1999999-0121REMSYN088AAXX  08004 83236 32699 20000 10235 20215 39621 40109 82200 333 10328 29077 55091 59012;EQDQ01  00002PRCP99
0186832360999992001040812004-12140-045000FM-12+044099999V0209999C000012200019N0500001N1+02611+02031101311ADDAA199000091GF102991001001999999001051KA1240N+02061MA1999999096421MD1999999-0111REMSYN076AAXX  08124 83236 32999 20000 10261 20203 39642 40131 80005 333 20206 59011;EQDQ01  00002PRCP99
0167832360999992001040818004-12140-045000FM-12+044099999V0201401N002610075019N0200001N1+03171+01751100761ADDAA199000091GF105991051021008001001001MA1999999095941MD1999999-0141REMSYN070AAXX  08184 83236 32598 51405 10317 20175 39594 40076 85200 333 59014;EQDQ01  00002PRCP99
0198832360999992001040900004-12140-045000FM-12+044099999V0209999C000012200019N0500001N1+02211+02011101021ADDAA199000091GF102991021021012501001001KA1240M+03271MA1999999096131MD1999999-0081REMSYN088AAXX  09004 83236 32699 20000 10221 20201 39613 40102 82200 333 10327 29068 55104 59008;EQDQ01  00002PRCP99
0186832360999992001040912004-12140-045000FM-12+044099999V0209999C000012200019N0500001N1+02471+01991101211ADDAA199000091GF102991021021012501001001KA1240N+01851MA1999999096301MD1999999-0121REMSYN076AAXX  09124 83236 32699 20000 10247 20199 39630 40121 82200 333 20185 59012;EQDQ01  00002PRCP99
0167832360999992001040918004-12140-045000FM-12+044099999V0201401N002610075019N0200001N1+03241+01781100691ADDAA199000091GF106991061021008001001001MA1999999095851MD1999999-0091REMSYN070AAXX  09184 83236 32598 61405 10324 20178 39585 40069 86200 333 59009;EQDQ01  00002PRCP99
0208832360999992001041000004-12140-045000FM-12+044099999V0209999C000012200019N0500001N1+02181+02101100951ADDAA199000091GA1001+999999999GF100991001001999999001001KA1240M+03321MA1999999096041MD1999999-0091REMSYN082AAXX  10004 83236 32999 00000 10218 20210 39604 40095 333 10332 29077 55102 59009;EQDQ01  00002PRCP99
0186832360999992001041012004-12140-045000FM-12+044099999V0201401N001010450019N0200001N1+02571+01931101191ADDAA199000091GF105991031011012501061051KA1240N+01661MA1999999096281MD1999999-0021REMSYN076AAXX  10124 83236 32698 51402 10257 20193 39628 40119 83165 333 20166 59002;EQDQ01  00002PRCP99
0167832360999992001041018004-12140-045000FM-12+044099999V0200501N002110075019N0200001N1+03281+01931100781ADDAA199000091GF106991051021008001071031MA1999999095911MD1999999+0061REMSYN070AAXX  10184 83236 32598 60504 10328 20193 39591 40078 85273 333 58006;EQDQ01  00002PRCP99
0198832360999992001041100004-12140-045000FM-12+044099999V0209999C000011050019N0200001N1+02261+02011100981ADDAA199000091GF106991021021012501001071KA1240M+03361MA1999999096091MD1999999-0051REMSYN088AAXX  11004 83236 32698 60000 10226 20201 39609 40098 82207 333 10336 29072 55103 59005;EQDQ01  00002PRCP99
0186832360999992001041112004-12140-045000FM-12+044099999V0209999C000012200019N0500001N1+02521+01981101341ADDAA199000091GF102991001001999999001031KA1240N+01801MA1999999096431MD1999999+0151REMSYN076AAXX  11124 83236 32999 20000 10252 20198 39643 40134 80003 333 20180 58015;EQDQ01  00002PRCP99
0167832360999992001041118004-12140-045000FM-12+044099999V0200501N002112200019N0500001N1+03271+01881100901ADDAA199000091GF104991041021012501001001MA1999999096041MD1999999+0131REMSYN070AAXX  11184 83236 32699 40504 10327 20188 39604 40090 84200 333 58013;EQDQ01  00002PRCP99
0208832360999992001041200004-12140-045000FM-12+044099999V0201801N001512200019N0500001N1+02351+02111101051ADDAA199000091GA1001+999999999GF100991001001999999001001KA1240M+03381MA1999999096161MD1999999+0071REMSYN082AAXX  12004 83236 32999 01803 10235 20211 39616 40105 333 10338 29072 55107 58007;EQDQ01  00002PRCP99
0186832360999992001041212004-12140-045000FM-12+044099999V0201801N001010450019N0200001N1+02251+01991101311ADDAA199000091GF106991031021012501071051KA1240N+01851MA1999999096381MD1999999-0051REMSYN076AAXX  12124 83236 32698 61802 10225 20199 39638 40131 83275 333 20185 59005;EQDQ01  00002PRCP99
0167832360999992001041218004-12140-045000FM-12+044099999V0200901N001011050019N0200001N1+03381+01791100771ADDAA199000091GF105991021021008001001071MA1999999095941MD1999999-0101REMSYN070AAXX  12184 83236 32598 50902 10338 20179 39594 40077 82207 333 59010;EQDQ01  00002PRCP99
0198832360999992001041300004-12140-045000FM-12+044099999V0201801N001512200019N0500001N1+02261+02051100971ADDAA199000091GF102991001001999999001051KA1240M+03461MA1999999096051MD1999999-0111REMSYN088AAXX  13004 83236 32999 21803 10226 20205 39605 40097 80005 333 10346 29070 55090 59011;EQDQ01  00002PRCP99
0186832360999992001041312004-12140-045000FM-12+044099999V0201801N001012200019N0500001N1+02431+01791101161ADDAA199000091GF102991001001999999001051KA1240N+01581MA1999999096251MD1999999-0131REMSYN076AAXX  13124 83236 32999 21802 10243 20179 39625 40116 80005 333 20158 59013;EQDQ01  00002PRCP99
0167832360999992001041318004-12140-045000FM-12+044099999V0203601N001512200019N0500001N1+03321+01781100681ADDAA199000091GF102991021021008001001051MA1999999095821MD1999999-0121REMSYN070AAXX  13184 83236 32599 23603 10332 20178 39582 40068 82205 333 59012;EQDQ01  00002PRCP99
0226832360999992001041400004-12140-045000FM-12+044099999V0201801N001012200019N0500001N1+02331+02131100811ADDAA199000091AY121061AY211061GF104991021051008001001071KA1240M+03411MA1999999095931MD1999999-0121MW1131REMSYN094AAXX  14004 83236 31599 41802 10233 20213 39593 40081 71321 82507 333 10341 29071 55105 59012;EQDQ01  00002PRCP99
0186832360999992001041412004-12140-045000FM-12+044099999V0200901N003012200019N0200001N1+02581+01971101161ADDAA199000091GF103991001001999999001021KA1240N+01851MA1999999096271MD1999999+0021REMSYN076AAXX  14121 83236 32998 30903 10258 20197 39627 40116 80002 333 20185 58002;EQDQ01  00002PRCP99
0167832360999992001041418004-12140-045000FM-12+044099999V0200501N001512200019N0200001N1+03191+01801100661ADDAA199000091GF103991011011008001001021MA1999999095811MD1999999-0011REMSYN070AAXX  14184 83236 32598 30503 10319 20180 39581 40066 81102 333 59001;EQDQ01  00002PRCP99
0186832360999992001041500004-12140-045000FM-12+044099999V0201801N002112200019N0200001N1+02471+02011101001ADDAA199000091GF104991041061008001001001KA1240M+03281MA1999999096131MD1999999+0201REMSYN076AAXX  15004 83236 32598 41804 10247 20201 39613 40100 84600 333 10328 58020;EQDQ01  00002PRCP99
0201832360999992001041512004-12140-045000FM-12+044099999V0201801N002110120019N0100001N1+02311+02111101451ADDAA124004191AY161061AY261061GF107991071081008001001001KA1240N+02121MA1999999096541MD1999999+0271MW1021REMSYN088AAXX  15124 83236 21597 71804 10231 20211 39654 40145 70266 87800 333 20212 58027 60044;
0167832360999992001041518004-12140-045000FM-12+044099999V0201801N003110075019N0100001N1+02651+02161101081ADDAA199000091GF107991051051008001001041MA1999999096191MD1999999+0381REMSYN070AAXX  15184 83236 32597 71806 10265 20216 39619 40108 85504 333 58038;EQDQ01  00002PRCP99
0192832360999992001041600004-12140-045000FM-12+044099999V0202301N001010120019N0100001N1+02361+02091101321ADDAA199000091GF106991061081008001001001KA1240M+03011MA1999999096401MD1999999+0271REMSYN082AAXX  16004 83236 32597 62302 10236 20209 39640 40132 86800 333 10301 55019 58027;EQDQ01  00002PRCP99
0186832360999992001041612004-12140-045000FM-12+044099999V0201801N001510450019N0200001N1+02581+02101101491ADDAA199000091GF105991031021012501051071KA1240N+02191MA1999999096581MD1999999+0041REMSYN076AAXX  16124 83236 32698 51803 10258 20210 39658 40149 83257 333 20219 58004;EQDQ01  00002PRCP99
0195832360999992001041618004-12140-045000FM-12+044099999V0201801N002611050019N0200001N1+03151+02041100971ADDAA199000091AY121061AY221061GF106991041051008001001051MA1999999096141MD1999999-0051MW1171REMSYN076AAXX  16184 83236 31598 61805 10315 20204 39614 40097 71722 84505 333 59005;EQDQ01  00002PRCP99
0226832360999992001041700004-12140-045000FM-12+044099999V0209999C000010450019N0200001N1+02401+02231101301ADDAA199000091AY121061AY221061GF106991041051008001071051KA1240M+03241MA1999999096411MD1999999+0011MW1131REMSYN094AAXX  17004 83236 31598 60000 10240 20223 39641 40130 71322 84575 333 10324 29077 55071 58001;EQDQ01  00002PRCP99
0173832360999992001041712004-12140-045000FM-12+044099999V0201401N001510450019N0200001N1+02581+02151101551ADDAA124000391GF106991031021008001051071KA1240N+02221MA1999999096461MD1999999-0121REMSYN082AAXX  17124 83236 22598 61403 10258 20215 39646 40155 83257 333 20222 59012 69934;
0195832360999992001041718004-12140-045000FM-12+044099999V0203601N002610075019N0100001N1+03081+02161100971ADDAA199000091AY121061AY221061GF108991071051008001071999MA1999999096111MD1999999-0031MW1151REMSYN076AAXX  17184 83236 31597 83605 10308 20216 39611 40097 71522 8757/ 333 59003;EQDQ01  00002PRCP99
0213832360999992001041800004-12140-045000FM-12+044099999V0209999C000010075019N0100001N1+02311+02251101221ADDAA106000191AY151061AY251061GF108991061051008001081999KA1240M+03211MA1999999096331MD1999999-0081MW1131REMSYN100AAXX  18004 83236 21597 80000 10231 20225 39633 40122 71355 8658/ 333 10321 29082 55073 59008 69921;
0173832360999992001041812004-12140-045000FM-12+044099999V0202301N001510075019N0100001N1+02601+02291101251ADDAA124000191GF108991071021008001071999KA1240N+02231MA1999999096351MD1999999-0111REMSYN082AAXX  18124 83236 22597 82303 10260 20229 39635 40125 8727/ 333 20223 59011 69924;
0167832360999992001041818004-12140-045000FM-12+044099999V0201801N002110075019N0200001N1+02871+02191100741ADDAA199000091GF107991061041008001071051MA1999999095891MD1999999-0221REMSYN070AAXX  18184 83236 32598 71804 10287 20219 39589 40074 86475 333 59022;EQDQ01  00002PRCP99
0198832360999992001041900004-12140-045000FM-12+044099999V0201801N001010450019N0200001N1+02491+02211100971ADDAA199000091GF105991041021008001061031KA1240M+03301MA1999999096111MD1999999-0221REMSYN088AAXX  19004 83236 32598 51802 10249 20221 39611 40097 84263 333 10330 29080 55084 59022;EQDQ01  00002PRCP99
0186832360999992001041912004-12140-045000FM-12+044099999V0200501N004110075019N0100001N1+02551+02061101321ADDAA199000091GF107991051021008001061071KA1240N+02291MA1999999096431MD1999999+0081REMSYN076AAXX  19124 83236 32597 70508 10255 20206 39643 40132 85267 333 20229 58008;EQDQ01  00002PRCP99
0167832360999992001041918004-12140-045000FM-12+044099999V0203601N002110075019N0200001N1+03041+02091100731ADDAA199000091GF106991051021008001061051MA1999999095901MD1999999+0011REMSYN070AAXX  19184 83236 32598 63604 10304 20209 39590 40073 85265 333 58001;EQDQ01  00002PRCP99
0198832360999992001042000004-12140-045000FM-12+044099999V0209999C000010075019N0200001N1+02311+02231101021ADDAA199000091GF106991051021008001061071KA1240M+03141MA1999999096141MD1999999+0031REMSYN088AAXX  20004 83236 32598 60000 10231 20223 39614 40102 85267 333 10314 29081 55051 58003;EQDQ01  00002PRCP99
0186832360999992001042012004-12140-045000FM-12+044099999V0200501N002110075019N0100001N1+02501+02171101361ADDAA199000091GF108991071041008001071999KA1240N+02231MA1999999096451MD1999999+0021REMSYN076AAXX  20124 83236 32597 80504 10250 20217 39645 40136 8747/ 333 20223 58002;EQDQ01  00002PRCP99
0182832360999992001042018004-12140-045000FM-12+044099999V0200501N005110075019N0100001N1+02761+02211100911ADDAA106020191AY161061AY261061GF108991071031008001061999MA1999999096041MD1999999+0141MW1151REMSYN082AAXX  20184 83236 21597 80510 10276 20221 39604 40091 71566 8736/ 333 58014 60201;
0198832360999992001042100004-12140-045000FM-12+044099999V0209999C000010075019N0200001N1+02271+02211101161ADDAA199000091GF106991061021008001061001KA1240M+02861MA1999999096261MD1999999+0121REMSYN088AAXX  21004 83236 32598 60000 10227 20221 39626 40116 86260 333 10286 29087 55024 58012;EQDQ01  00002PRCP99
0144832360999992001042112004-12140-045000FM-12+044099999V0201801N001019999999N0200001N1+02461+02171101421ADDAA124000591GF107991999999008001999999MA1999999096541MD1810091+9999REMSYN066AAXX  21124 83236 22598 71802 10246 20217 39654 40142 58009 69954;
0167832360999992001042118004-12140-045000FM-12+044099999V0203601N002610450019N0200001N1+03151+02071100871ADDAA199000091GF106991041021008001051071MA1999999096011MD1999999-0031REMSYN070AAXX  21184 83236 32598 63605 10315 20207 39601 40087 84257 333 59003;EQDQ01  00002PRCP99
0198832360999992001042200004-12140-045000FM-12+044099999V0209999C000012200019N0500001N1+02401+02311101111ADDAA199000091GF103991001001999999001051KA1240M+03251MA1999999096221MD1999999-0041REMSYN088AAXX  22004 83236 32999 30000 10240 20231 39622 40111 80005 333 10325 29082 55087 59004;EQDQ01  00002PRCP99
0186832360999992001042212004-12140-045000FM-12+044099999V0209999C000010075019N0100001N1+02361+02241101311ADDAA199000091GF108991071051008001071999KA1240N+02031MA1999999096401MD1999999-0141REMSYN076AAXX  22124 83236 32597 80000 10236 20224 39640 40131 8757/ 333 20203 59014;EQDQ01  00002PRCP99
0167832360999992001042218004-12140-045000FM-12+044099999V0200501N002611050019N0200001N1+03111+02151100691ADDAA199000091GF105991041021008001001051MA1999999095841MD1999999-0171REMSYN070AAXX  22184 83236 32598 50505 10311 20215 39584 40069 84205 333 59017;EQDQ01  00002PRCP99
0198832360999992001042300004-12140-045000FM-12+044099999V0209999C000012200019N0500001N1+02401+02241101001ADDAA199000091GF103991001001999999001071KA1240M+03211MA1999999096111MD1999999-0111REMSYN088AAXX  23004 83236 32999 30000 10240 20224 39611 40100 80007 333 10321 29083 55086 59011;EQDQ01  00002PRCP99
0186832360999992001042312004-12140-045000FM-12+044099999V0203601N001010075019N0200001N1+02671+02241101331ADDAA199000091GF105991051021008001001001KA1240N+02181MA1999999096451MD1999999+0051REMSYN076AAXX  23124 83236 32598 53602 10267 20224 39645 40133 85200 333 20218 58005;EQDQ01  00002PRCP99
0167832360999992001042318004-12140-045000FM-12+044099999V0201401N004112200019N0500001N1+03211+01781100831ADDAA199000091GF104991041021008001001001MA1999999096001MD1999999+0161REMSYN070AAXX  23184 83236 32599 41408 10321 20178 39600 40083 84200 333 58016;EQDQ01  00002PRCP99
0208832360999992001042400004-12140-045000FM-12+044099999V0209999C000012200019N0500001N1+02191+01991101121ADDAA199000091GA1001+999999999GF100991001001999999001001KA1240M+03311MA1999999096231MD1999999+0121REMSYN082AAXX  24004 83236 32999 00000 10219 20199 39623 40112 333 10331 29075 55106 58012;EQDQ01  00002PRCP99
0196832360999992001042412004-12140-045000FM-12+044099999V0201801N001512200019N0200001N1+02461+01981101541ADDAA199000091GA1001+999999999GF100991001001999999001001KA1240N+01761MA1999999096601MD1999999+0151REMSYN070AAXX  24124 83236 32998 01803 10246 20198 39660 40154 333 20176 58015;EQDQ01  00002PRCP99
0177832360999992001042418004-12140-045000FM-12+044099999V0201401N003112200019N0500001N1+03251+01671101061ADDAA199000091GA1001+999999999GF100991001001999999001001MA1999999096181MD1999999+0181REMSYN064AAXX  24184 83236 32999 01406 10325 20167 39618 40106 333 58018;EQDQ01  00002PRCP99
0208832360999992001042500004-12140-045000FM-12+044099999V0209999C000012200019N0200001N1+02091+01961101311ADDAA199000091GA1001+999999999GF100991001001999999001001KA1240M+03331MA1999999096371MD1999999+0141REMSYN082AAXX  25004 83236 32998 00000 10209 20196 39637 40131 333 10333 29074 55105 58014;EQDQ01  00002PRCP99
0186832360999992001042512004-12140-045000FM-12+044099999V0201401N002112200019N0200001N1+02561+01951101701ADDAA199000091GF104991021011008001001021KA1240N+02051MA1999999096751MD1999999+0151REMSYN076AAXX  25124 83236 32598 41404 10256 20195 39675 40170 82102 333 20205 58015;EQDQ01  00002PRCP99
0167832360999992001042518004-12140-045000FM-12+044099999V0200901N003612200019N0100001N1+03011+01811101181ADDAA199000091GF106991031021008001001061MA1999999096331MD1999999+0151REMSYN070AAXX  25184 83236 32597 60907 10301 20181 39633 40118 83206 333 58015;EQDQ01  00002PRCP99
0198832360999992001042600004-12140-045000FM-12+044099999V0201801N001012200019N0200001N1+02201+01941101411ADDAA199000091GF102991021011008001001001KA1240M+03141MA1999999096501MD1999999+0131REMSYN088AAXX  26004 83236 32598 21802 10220 20194 39650 40141 82100 333 10314 29072 55075 58013;EQDQ01  00002PRCP99
0186832360999992001042612004-12140-045000FM-12+044099999V0203601N001012200019N0200001N1+02511+02001101511ADDAA199000091GF104991041001022501061001KA1240N+01791MA1999999096581MD1999999-0171REMSYN076AAXX  26124 83236 32898 43602 10251 20200 39658 40151 84060 333 20179 59017;EQDQ01  00002PRCP99
0167832360999992001042618004-12140-045000FM-12+044099999V0200901N003112200019N0200001N1+03191+01771101031ADDAA199000091GF103991031021008001001001MA1999999096161MD1999999-0171REMSYN070AAXX  26184 83236 32598 30906 10319 20177 39616 40103 83200 333 59017;EQDQ01  00002PRCP99
0198832360999992001042700004-12140-045000FM-12+044099999V0209999C000012200019N0200001N1+02361+02051101261ADDAA199000091GF102991021021008001001001KA1240M+03341MA1999999096361MD1999999-0141REMSYN088AAXX  27004 83236 32598 20000 10236 20205 39636 40126 82200 333 10334 29071 55103 59014;EQDQ01  00002PRCP99
0186832360999992001042712004-12140-045000FM-12+044099999V0201801N003610075019N0200001N1+02431+01881101581ADDAA199000091GF105991051021008001001001KA1240N+02011MA1999999096561MD1999999-0021REMSYN076AAXX  27124 83236 32598 51807 10243 20188 39656 40158 85200 333 20201 59002;EQDQ01  00002PRCP99
0198832360999992001042800004-12140-045000FM-12+044099999V0209999C000012200019N0200001N1+02261+01991101521ADDAA199000091GF102991021021008001021001KA1240M+02921MA1999999096061MD1999999-0011REMSYN088AAXX  28004 83236 32598 20000 10226 20199 39606 40152 82220 333 10292 29063 55038 59001;EQDQ01  00002PRCP99
