0214833390999992001010100004-14040-042610FM-12+088299999V0209999C000010042019N0020001N1+02091+02031101191ADDAA199000091AY101061AY201061GF106991051021004501021001KA1240M+02501MA1999999091451MD1999999-0131MW1101REMSYN082AAXX  01004 83339 31495 60000 10209 20203 39145 40119 71000 85220 333 10250 59013;EQDQ01  00002PRCP99
0201833390999992001010112004-14040-042610FM-12+088299999V0202701N004110042019N0040001N1+01971+01881101361ADDAA124000891AY161061AY261061GF108991081051004501999999KA1240N+01861MA1999999091591MD1999999-0061MW1101REMSYN088AAXX  01124 83339 21496 82708 10197 20188 39159 40136 71066 885// 333 20186 59006 69984;
0182833390999992001010118004-14040-042610FM-12+088299999V0203201N001510042019N0040001N1+02351+01871101141ADDAA106000591AY161061AY261061GF107991061021004501021999MA1999999091421MD1999999+0021MW1021REMSYN082AAXX  01184 83339 21496 73203 10235 20187 39142 40114 70266 8622/ 333 58002 69941;
0201833390999992001010200004-14040-042610FM-12+088299999V0201801N000510042019N0020001N1+01991+01931101251ADDAA106003091AY161061AY261061GF108991081051004501999999KA1240M+02401MA1999999091481MD1999999+0031MW1101REMSYN088AAXX  02004 83339 21495 81801 10199 20193 39148 40125 71066 885// 333 10240 58003 60031;
0201833390999992001010212004-14040-042610FM-12+088299999V0201401N002610042019N0100001N1+02131+02041101391ADDAA124004191AY161061AY261061GF106991051021004501031001KA1240N+01931MA1999999091621MD1999999+0031MW1101REMSYN088AAXX  02124 83339 21497 61405 10213 20204 39162 40139 71066 85230 333 20193 58003 60044;
0182833390999992001010218004-14040-042610FM-12+088299999V0202701N001510042019N0100001N1+02451+01921101121ADDAA106000591AY161061AY261061GF106991051021004501021001MA1999999091401MD1999999-0021MW1021REMSYN082AAXX  02184 83339 21497 62703 10245 20192 39140 40112 70266 85220 333 59002 69941;
0186833390999992001010300004-14040-042610FM-12+088299999V0201401N004612200019N0020001N1+02271+01861101231ADDAA199000091GF103991031021004501001001KA1240M+02741MA1999999091501MD1999999+0021REMSYN076AAXX  03004 83339 32495 31409 10227 20186 39150 40123 83200 333 10274 58002;EQDQ01  00002PRCP99
0201833390999992001010312004-14040-042610FM-12+088299999V0200501N002112200019N0100001N1+02131+01861101381ADDAA124000591AY161061AY261061GF103991021021004501001021KA1240N+01721MA1999999091641MD1999999+0021MW1101REMSYN088AAXX  03124 83339 21497 30504 10213 20186 39164 40138 71066 82202 333 20172 58002 69944;
0167833390999992001010318004-14040-042610FM-12+088299999V0201401N004612200019N0100001N1+02691+01011101211ADDAA199000091GF102991011021004501001041MA1999999091491MD1999999+0091REMSYN070AAXX  03184 83339 32497 21409 10269 20101 39149 40121 81204 333 58009;EQDQ01  00002PRCP99
0196833390999992001010400004-14040-042610FM-12+088299999V0201401N004612200019N0020001N1+02151+01411101301ADDAA199000091GA1001+999999999GF100991001001999999001001KA1240M+02761MA1999999091551MD1999999+0051REMSYN070AAXX  04004 83339 32995 01409 10215 20141 39155 40130 333 10276 58005;EQDQ01  00002PRCP99
0186833390999992001010412004-14040-042610FM-12+088299999V0201401N006712200019N0100001N1+02071+01641101471ADDAA199000091GF103991031021004501001001KA1240N+01731MA1999999091701MD1999999+0061REMSYN076AAXX  04124 83339 32497 31413 10207 20164 39170 40147 83200 333 20173 58006;EQDQ01  00002PRCP99
0167833390999992001010418004-14040-042610FM-12+088299999V0201401N005712200019N0100001N1+02471+01631101111ADDAA199000091GF104991041021004501001001MA1999999091391MD1999999-0101REMSYN070AAXX  04184 83339 32497 41411 10247 20163 39139 40111 84200 333 59010;EQDQ01  00002PRCP99
0213833390999992001010500004-14040-042610FM-12+088299999V0201401N005110042019N0020001N1+02111+01891101211ADDAA199000091AY101061AY201061GF108991081051004501999999KA1240M+02541MA1999999091461MD1999999-0091MW1101REMSYN081AAXX  05004 83339 31495 81410 10211 2018939146 40121 71000 885// 333 10254 59009;EQDQ01  00002PRCP99
0167833390999992001010518004-14040-042610FM-12+088299999V0200901N003612200019N0100001N1+02351+01811101191ADDAA199000091GF104991041021004501001001MA1999999091441MD1999999+0051REMSYN070AAXX  05184 83339 32497 40907 10235 20181 39144 40119 84200 333 58005;EQDQ01  00002PRCP99
0214833390999992001010600004-14040-042610FM-12+088299999V0201401N004612200019N0020001N1+02051+01781101141ADDAA199000091AY101061AY201061GF103991031021004501001001KA1240M+02441MA1999999091381MD1999999-0081MW1101REMSYN082AAXX  06004 83339 31495 31409 10205 20178 39138 40114 71000 83200 333 10244 59008;EQDQ01  00002PRCP99
0202833390999992001010612004-14040-042610FM-12+088299999V0201401N004112200019N0100001N1+02191+01721101291ADDAA199000091GF103991999021004501001001KA1240N+01881MA1999999091541MD1999999-0151REMSYN076AAXX  06124 83339 32497 31408 10219 20172 39154 40129 82200 333 20188 59015;EQDQ01+000022SCOTLCQ02  00002PRCP99
0167833390999992001010618004-14040-042610FM-12+088299999V0201401N003612200019N0100001N1+02651+01931101001ADDAA199000091GF103991021021004501001021MA1999999091291MD1999999-0151REMSYN070AAXX  06184 83339 32497 31407 10265 20193 39129 40100 82202 333 59015;EQDQ01  00002PRCP99
0196833390999992001010700004-14040-042610FM-12+088299999V0201401N003112200019N0020001N1+02171+01681101071ADDAA199000091GA1001+999999999GF100991001001999999001001KA1240M+02721MA1999999091351MD1999999-0031REMSYN070AAXX  07004 83339 32995 01406 10217 20168 39135 40107 333 10272 59003;EQDQ01  00002PRCP99
0214833390999992001010712004-14040-042610FM-12+088299999V0201401N005110042019N0100001N1+02191+01901101191ADDAA199000091AY101061AY201061GF106991061021004501001001KA1240N+01781MA1999999091461MD1999999-0081MW1101REMSYN082AAXX  07124 83339 31497 61410 10219 20190 39146 40119 71000 86200 333 20178 59008;EQDQ01  00002PRCP99
0167833390999992001010718004-14040-042610FM-12+088299999V0201401N004612200019N0100001N1+02691+01671100911ADDAA199000091GF103991021021004501001041MA1999999091231MD1999999-0061REMSYN070AAXX  07184 83339 32497 31409 10269 20167 39123 40091 82204 333 59006;EQDQ01  00002PRCP99
0186833390999992001010800004-14040-042610FM-12+088299999V0201401N003612200019N0020001N1+02271+01641101031ADDAA199000091GF102991021021004501001001KA1240M+02771MA1999999091331MD1999999-0021REMSYN076AAXX  08004 83339 32495 21407 10227 20164 39133 40103 82200 333 10277 59002;EQDQ01  00002PRCP99
0214833390999992001010812004-14040-042610FM-12+088299999V0201401N004110042019N0100001N1+02111+01841101211ADDAA199000091AY101061AY201061GF105991051021004501001001KA1240N+01881MA1999999091481MD1999999+0021MW1101REMSYN082AAXX  08124 83339 31497 51408 10211 20184 39148 40121 71000 85200 333 20188 58002;EQDQ01  00002PRCP99
0167833390999992001010818004-14040-042610FM-12+088299999V0201401N005112200019N0100001N1+02621+01501100911ADDAA199000091GF103991021021004501021001MA1999999091231MD1999999+0001REMSYN070AAXX  08184 83339 32497 31410 10262 20150 39123 40091 82220 333 58000;EQDQ01  00002PRCP99
0186833390999992001010912004-14040-042610FM-12+088299999V0201401N005112200019N0100001N1+02211+01821101231ADDAA199000091GF102991021021004501001001KA1240N+01721MA1999999091501MD1999999+0021REMSYN076AAXX  09124 83339 32497 21410 10221 20182 39150 40123 82200 333 20172 58002;EQDQ01  00002PRCP99
0167833390999992001010918004-14040-042610FM-12+088299999V0201401N004112200019N0100001N1+02691+01581100921ADDAA199000091GF103991031021004501001001MA1999999091231MD1999999+0001REMSYN070AAXX  09184 83339 32497 31408 10269 20158 39123 40092 83200 333 58000;EQDQ01  00002PRCP99
0214833390999992001011000004-14040-042610FM-12+088299999V0201401N006212200019N0020001N1+02151+01901101011ADDAA199000091AY101061AY201061GF104991041021004501001001KA1240M+02741MA1999999091301MD1999999+0001MW1101REMSYN082AAXX  10004 83339 31495 41412 10215 20190 39130 40101 71000 84200 333 10274 58000;EQDQ01  00002PRCP99
0214833390999992001011012004-14040-042610FM-12+088299999V0200901N004610042019N0040001N1+02051+01851101261ADDAA199000091AY101061AY201061GF108991081051004501999999KA1240N+01861MA1999999091511MD1999999+0011MW1101REMSYN082AAXX  10124 83339 31496 80909 10205 20185 39151 40126 71000 885// 333 20186 58001;EQDQ01  00002PRCP99
0167833390999992001011018004-14040-042610FM-12+088299999V0201401N005110042019N0100001N1+02391+01891101021ADDAA199000091GF106991061021004501001001MA1999999091291MD1999999+0061REMSYN070AAXX  10184 83339 32497 61410 10239 20189 39129 40102 86200 333 58006;EQDQ01  00002PRCP99
0201833390999992001011100004-14040-042610FM-12+088299999V0201401N004610042019N0020001N1+01891+01761101211ADDAA106000591AY161061AY261061GF107991061021004501021999KA1240M+02601MA1999999091441MD1999999+0141MW1101REMSYN088AAXX  11004 83339 21495 71409 10189 20176 39144 40121 71066 8622/ 333 10260 58014 69961;
0201833390999992001011112004-14040-042610FM-12+088299999V0200901N007710042019N0100001N1+02091+01821101371ADDAA124000591AY161061AY261061GF105991051021004501001001KA1240N+01781MA1999999091591MD1999999+0081MW1101REMSYN088AAXX  11124 83339 21497 50915 10209 20182 39159 40137 71066 85200 333 20178 58008 69964;
0167833390999992001011118004-14040-042610FM-12+088299999V0200501N007712200019N0100001N1+02591+01401101091ADDAA199000091GF102991021021004501001001MA1999999091371MD1999999+0081REMSYN070AAXX  11184 83339 32497 20515 10259 20140 39137 40109 82200 333 58008;EQDQ01  00002PRCP99
0196833390999992001011200004-14040-042610FM-12+088299999V0201401N004112200019N0020001N1+02191+01561101141ADDAA199000091GA1001+999999999GF100991001001999999001001KA1240M+02661MA1999999091411MD1999999-0031REMSYN070AAXX  12004 83339 32995 01408 10219 20156 39141 40114 333 10266 59003;EQDQ01  00002PRCP99
0186833390999992001011212004-14040-042610FM-12+088299999V0201401N003612200019N0100001N1+02171+01741101251ADDAA199000091GF103991031021004501001001KA1240N+01801MA1999999091521MD1999999-0071REMSYN076AAXX  12124 83339 32497 31407 10217 20174 39152 40125 83200 333 20180 59007;EQDQ01  00002PRCP99
0167833390999992001011218004-14040-042610FM-12+088299999V0201401N005112200019N0100001N1+02671+01441100971ADDAA199000091GF102991021021004501001001MA1999999091281MD1999999-0091REMSYN070AAXX  12184 83339 32497 21410 10267 20144 39128 40097 82200 333 59009;EQDQ01  00002PRCP99
0186833390999992001011300004-14040-042610FM-12+088299999V0201401N005712200019N0020001N1+02051+01541101151ADDAA199000091GF102991021021004501001001KA1240M+02731MA1999999091411MD1999999+0001REMSYN076AAXX  13004 83339 32495 21411 10205 20154 39141 40115 82200 333 10273 58000;EQDQ01  00002PRCP99
0186833390999992001011312004-14040-042610FM-12+088299999V0201401N006212200019N0100001N1+02191+01671101401ADDAA199000091GF104991041021004501001001KA1240N+01801MA1999999091641MD1999999+0121REMSYN076AAXX  13124 83339 32497 41412 10219 20167 39164 40140 84200 333 20180 58012;EQDQ01  00002PRCP99
0167833390999992001011318004-14040-042610FM-12+088299999V0201401N004610042019N0100001N1+02621+01501101131ADDAA199000091GF105991051021004501001001MA1999999091411MD1999999+0131REMSYN070AAXX  13184 83339 32497 51409 10262 20150 39141 40113 85200 333 58013;EQDQ01  00002PRCP99
0214833390999992001011400004-14040-042610FM-12+088299999V0201401N004112200019N0020001N1+02031+01661101351ADDAA199000091AY101061AY201061GF102991021021004501001001KA1240M+02681MA1999999091591MD1999999+0181MW1101REMSYN082AAXX  14004 83339 31495 21408 10203 20166 39159 40135 71000 82200 333 10268 58018;EQDQ01  00002PRCP99
0214833390999992001011412004-14040-042610FM-12+088299999V0201401N005110042019N0040001N1+01911+01701101531ADDAA199000091AY101061AY201061GF106991061021004501001001KA1240N+01751MA1999999091721MD1999999+0081MW1101REMSYN082AAXX  14124 83339 31496 61410 10191 20170 39172 40153 71000 86200 333 20175 58008;EQDQ01  00002PRCP99
0167833390999992001011418004-14040-042610FM-12+088299999V0200901N005710042019N0040001N1+02231+01671101301ADDAA199000091GF107991061021004501021999MA1999999091531MD1999999+0121REMSYN070AAXX  14184 83339 32496 70911 10223 20167 39153 40130 8622/ 333 58012;EQDQ01  00002PRCP99
0226833390999992001011500004-14040-042610FM-12+088299999V0201401N011310042019N0020001N1+01951+01771101311ADDAA199000091AY101061AY201061GF106991061021004501001001KA1240M+02441MA1999999091531MD1999999-0061MW1101REMSYN094AAXX  15004 83339 31495 61422 10195 20177 39153 40131 71000 86200 333 10244 29084 55017 59006;EQDQ01  00002PRCP99
0214833390999992001011512004-14040-042610FM-12+088299999V0201401N004610042019N0100001N1+01951+01751101401ADDAA199000091AY101061AY201061GF106991061021004501001001KA1240N+01741MA1999999091601MD1999999-0121MW1101REMSYN082AAXX  15124 83339 31497 61409 10195 20175 39160 40140 71000 86200 333 20174 59012;EQDQ01  00002PRCP99
0167833390999992001011518004-14040-042610FM-12+088299999V0200501N002610042019N0040001N1+02191+01761101291ADDAA199000091GF107991061021004501021999MA1999999091521MD1999999-0011REMSYN070AAXX  15184 83339 32496 70505 10219 20176 39152 40129 8622/ 333 59001;EQDQ01  00002PRCP99
0226833390999992001011600004-14040-042610FM-12+088299999V0201401N003112200019N0020001N1+01911+01801101351ADDAA199000091AY101061AY201061GF102991021021004501001001KA1240M+02441MA1999999091551MD1999999+0021MW1101REMSYN094AAXX  16004 83339 31495 21406 10191 20180 39155 40135 71000 82200 333 10244 29087 55012 58002;EQDQ01  00002PRCP99
0214833390999992001011612004-14040-042610FM-12+088299999V0201401N005110042019N0100001N1+01951+01621101441ADDAA199000091AY101061AY201061GF105991051021004501001001KA1240N+01691MA1999999091641MD1999999+0041MW1101REMSYN082AAXX  16124 83339 31497 51410 10195 20162 39164 40144 71000 85200 333 20169 58004;EQDQ01  00002PRCP99
0167833390999992001011618004-14040-042610FM-12+088299999V0200501N004612200019N0100001N1+02511+01621101141ADDAA199000091GF104991041021004501001001MA1999999091401MD1999999-0151REMSYN070AAXX  16184 83339 32497 40509 10251 20162 39140 40114 84200 333 59015;EQDQ01  00002PRCP99
0213833390999992001011700004-14040-042610FM-12+088299999V0201401N004610042019N0020001N1+01871+01811101311ADDAA106005191AY161061AY261061GF108991081051004501999999KA1240M+02561MA1999999091511MD1999999-0041MW1601REMSYN100AAXX  17004 83339 21495 81409 10187 20181 39151 40131 76066 885// 333 10256 29084 55099 59004 60051;
0201833390999992001011712004-14040-042610FM-12+088299999V0200901N006710042019N0100001N1+01911+01711101411ADDAA124007991AY161061AY261061GF106991061021004501001001KA1240N+01701MA1999999091601MD1999999-0041MW1101REMSYN088AAXX  17124 83339 21497 60913 10191 20171 39160 40141 71066 86200 333 20170 59004 60084;
0183833390999992001011718004-14040-042610FM-12+088299999V0200901N005112200019N0100001N1+02391+01561101211ADDAA199000091GF104991999021004501001001MA1999999091451MD1999999+0051REMSYN070AAXX  17184 83339 32497 40910 10239 20156 39145 40121 85200 333 58005;EQDQ01+000052SCOTLCQ02  00002PRCP99
0226833390999992001011800004-14040-042610FM-12+088299999V0200901N001512200019N0020001N1+01951+01681101311ADDAA199000091AY101061AY201061GF102991021021004501001001KA1240M+02481MA1999999091531MD1999999+0021MW1101REMSYN094AAXX  18004 83339 31495 20903 10195 20168 39153 40131 71000 82200 333 10248 29078 55054 58002;EQDQ01  00002PRCP99
0214833390999992001011812004-14040-042610FM-12+088299999V0201401N008210042019N0100001N1+01991+01661101361ADDAA199000091AY101061AY201061GF105991051021004501001001KA1240N+01661MA1999999091561MD1999999-0041MW1101REMSYN082AAXX  18124 83339 31497 51416 10199 20166 39156 40136 71000 85200 333 20166 59004;EQDQ01  00002PRCP99
0167833390999992001011818004-14040-042610FM-12+088299999V0200901N005112200019N0100001N1+02541+01601101091ADDAA199000091GF103991031021004501001001MA1999999091361MD1999999-0091REMSYN070AAXX  18184 83339 32497 30910 10254 20160 39136 40109 83200 333 59009;EQDQ01  00002PRCP99
0226833390999992001011900004-14040-042610FM-12+088299999V0201401N003112200019N0020001N1+02191+01861101261ADDAA199000091AY101061AY201061GF102991021021004501001001KA1240M+02651MA1999999091511MD1999999-0021MW1101REMSYN094AAXX  19004 83339 31495 21406 10219 20186 39151 40126 71000 82200 333 10265 29078 55109 59002;EQDQ01  00002PRCP99
0214833390999992001011912004-14040-042610FM-12+088299999V0200501N003110042019N0100001N1+02171+01801101451ADDAA199000091AY101061AY201061GF106991051021004501021001KA1240N+01801MA1999999091701MD1999999+0141MW1101REMSYN082AAXX  19124 83339 31497 60506 10217 20180 39170 40145 71000 85220 333 20180 58014;EQDQ01  00002PRCP99
0167833390999992001011918004-14040-042610FM-12+088299999V0201401N005112200019N0100001N1+02611+01571101141ADDAA199000091GF104991031021004501001021MA1999999091431MD1999999+0071REMSYN070AAXX  19184 83339 32497 41410 10261 20157 39143 40114 83202 333 58007;EQDQ01  00002PRCP99
0226833390999992001012000004-14040-042610FM-12+088299999V0201801N001012200019N0020001N1+02171+01801101161ADDAA199000091AY101061AY201061GF102991021021004501001001KA1240M+02781MA1999999091431MD1999999-0081MW1101REMSYN094AAXX  20004 83339 31495 21802 10217 20180 39143 40116 71000 82200 333 10278 29072 55100 59008;EQDQ01  00002PRCP99
0214833390999992001012012004-14040-042610FM-12+088299999V0201401N003112200019N0100001N1+02251+01901101401ADDAA199000091AY101061AY201061GF104991041021004501001001KA1240N+01861MA1999999091651MD1999999-0051MW1101REMSYN082AAXX  20124 83339 31497 41406 10225 20190 39165 40140 71000 84200 333 20186 59005;EQDQ01  00002PRCP99
0167833390999992001012018004-14040-042610FM-12+088299999V0201401N004612200019N0100001N1+02831+01681101011ADDAA199000091GF103991021021004501001021MA1999999091331MD1999999-0101REMSYN070AAXX  20184 83339 32497 31409 10283 20168 39133 40101 82202 333 59010;EQDQ01  00002PRCP99
0224833390999992001012100004-14040-042610FM-12+088299999V0201101N042722200019N0020001N1+02251+01711101081ADDAA199000091GA1001+999999999GF100991001001999999001001KA1240M+02901MA1999999091371MD1999999-0611REMSYN082AAXX  21004 83339 32995 01183 10225 20171 39137 40108 333 10290 29068 55101 59061;EQDQ01+004273WOSPD Q02  00002PRCP99
0214833390999992001012112004-14040-042610FM-12+088299999V0201401N002112200019N0100001N1+02231+01881101221ADDAA199000091AY101061AY201061GF104991041021004501001001KA1240N+01801MA1999999091501MD1999999-0151MW1101REMSYN082AAXX  21124 83339 31497 41404 10223 20188 39150 40122 71000 84200 333 20180 59015;EQDQ01  00002PRCP99
0195833390999992001012118004-14040-042610FM-12+088299999V0200901N003110042019N0100001N1+02751+01671100851ADDAA199000091AY191061AY201061GF105991051021004501001001MA1999999091181MD1999999-0151MW1021REMSYN076AAXX  21184 83339 31497 50906 10275 20167 39118 40085 70290 85200 333 59015;EQDQ01  00002PRCP99
0198833390999992001012200004-14040-042610FM-12+088299999V0200501N001512200019N0020001N1+02311+01751101031ADDAA199000091GF102991011021004501021001KA1240M+02941MA1999999091331MD1999999-0041REMSYN088AAXX  22004 83339 32495 20503 10231 20175 39133 40103 81220 333 10294 29068 55098 59004;EQDQ01  00002PRCP99
0214833390999992001012212004-14040-042610FM-12+088299999V0201401N003110042019N0100001N1+02171+01951101261ADDAA199000091AY101061AY201061GF106991051021004501031001KA1240N+01901MA1999999091541MD1999999+0041MW1101REMSYN082AAXX  22124 83339 31497 61406 10217 20195 39154 40126 71000 85230 333 20190 58004;EQDQ01  00002PRCP99
0226833390999992001012300004-14040-042610FM-12+088299999V0209999C000010042019N0020001N1+02051+01971101151ADDAA199000091AY101061AY201061GF106991061021004501001001KA1240M+02741MA1999999091411MD1999999+0081MW1101REMSYN094AAXX  23004 83339 31495 60000 10205 20197 39141 40115 71000 86200 333 10274 29093 55032 58008;EQDQ01  00002PRCP99
0201833390999992001012312004-14040-042610FM-12+088299999V0201401N004110042019N0100001N1+02131+01951101351ADDAA124031091AY161061AY261061GF106991061021004501001001KA1240N+01761MA1999999091591MD1999999+0051MW1101REMSYN088AAXX  23124 83339 21497 61408 10213 20195 39159 40135 71066 86200 333 20176 58005 60314;
0167833390999992001012318004-14040-042610FM-12+088299999V0201401N004112200019N0100001N1+02671+01951100981ADDAA199000091GF103991021021004501031001MA1999999091281MD1999999+0011REMSYN070AAXX  23184 83339 32497 31408 10267 20195 39128 40098 82230 333 58001;EQDQ01  00002PRCP99
0198833390999992001012400004-14040-042610FM-12+088299999V0201801N002112200019N0020001N1+02271+01751101071ADDAA199000091GF102991021021004501001001KA1240M+02741MA1999999091351MD1999999-0061REMSYN088AAXX  24004 83339 32495 21804 10227 20175 39135 40107 82200 333 10274 29075 55092 59006;EQDQ01  00002PRCP99
0214833390999992001012412004-14040-042610FM-12+088299999V0201401N002610042019N0100001N1+02091+01931101351ADDAA199000091AY101061AY201061GF106991051021004501021001KA1240N+01941MA1999999091611MD1999999+0021MW1101REMSYN082AAXX  24124 83339 31497 61405 10209 20193 39161 40135 71000 85220 333 20194 58002;EQDQ01  00002PRCP99
0167833390999992001012418004-14040-042610FM-12+088299999V0201401N003612200019N0100001N1+02671+01821101051ADDAA199000091GF103991031021004501001001MA1999999091351MD1999999+0071REMSYN070AAXX  24184 83339 32497 31407 10267 20182 39135 40105 83200 333 58007;EQDQ01  00002PRCP99
0208833390999992001012500004-14040-042610FM-12+088299999V0201401N006212200019N0020001N1+02331+01531101071ADDAA199000091GA1001+999999999GF100991001001999999001001KA1240M+02761MA1999999091351MD1999999+0001REMSYN082AAXX  25004 83339 32995 01412 10233 20153 39135 40107 333 10276 29068 55091 58000;EQDQ01  00002PRCP99
0186833390999992001012512004-14040-042610FM-12+088299999V0201401N003112200019N0100001N1+02191+01761101211ADDAA199000091GF102991021021004501001001KA1240N+01721MA1999999091491MD1999999-0121REMSYN076AAXX  25124 83339 32497 21406 10219 20176 39149 40121 82200 333 20172 59012;EQDQ01  00002PRCP99
0167833390999992001012518004-14040-042610FM-12+088299999V0200501N004612200019N0100001N1+02731+01421100931ADDAA199000091GF102991021021004501001001MA1999999091251MD1999999-0101REMSYN070AAXX  25184 83339 32497 20509 10273 20142 39125 40093 82200 333 59010;EQDQ01  00002PRCP99
0208833390999992001012600004-14040-042610FM-12+088299999V0200901N001012200019N0020001N1+02151+01091100951ADDAA199000091GA1001+999999999GF100991001001999999001001KA1240M+02781MA1999999091241MD1999999-0111REMSYN082AAXX  26004 83339 32995 00902 10215 20109 39124 40095 333 10278 29056 55117 59011;EQDQ01  00002PRCP99
0214833390999992001012612004-14040-042610FM-12+088299999V0201401N004610042019N0100001N1+02171+01841101311ADDAA199000091AY101061AY201061GF106991061021004501001001KA1240N+01861MA1999999091561MD1999999+0071MW1101REMSYN082AAXX  26124 83339 31497 61409 10217 20184 39156 40131 71000 86200 333 20186 58007;EQDQ01  00002PRCP99
0167833390999992001012618004-14040-042610FM-12+088299999V0201401N004112200019N0100001N1+02751+01611100931ADDAA199000091GF103991031021004501001001MA1999999091251MD1999999+0001REMSYN070AAXX  26184 83339 32497 31408 10275 20161 39125 40093 83200 333 58000;EQDQ01  00002PRCP99
0208833390999992001012700004-14040-042610FM-12+088299999V0201401N003112200019N0020001N1+02251+01431100961ADDAA199000091GA1001+999999999GF100991001001999999001001KA1240M+02831MA1999999091251MD1999999+0011REMSYN082AAXX  27004 83339 32995 01406 10225 20143 39125 40096 333 10283 29063 55104 58001;EQDQ01  00002PRCP99
0214833390999992001012712004-14040-042610FM-12+088299999V0201401N003112200019N0100001N1+02271+01901101221ADDAA199000091AY101061AY201061GF102991021021004501001001KA1240N+01821MA1999999091501MD1999999-0061MW1101REMSYN082AAXX  27124 83339 31497 21406 10227 20190 39150 40122 71000 82200 333 20182 59006;EQDQ01  00002PRCP99
0167833390999992001012718004-14040-042610FM-12+088299999V0201401N005112200019N0100001N1+02751+01571100961ADDAA199000091GF103991021021004501001021MA1999999091271MD1999999+0021REMSYN070AAXX  27184 83339 32497 31410 10275 20157 39127 40096 82202 333 58002;EQDQ01  00002PRCP99
0198833390999992001012800004-14040-042610FM-12+088299999V0201801N000512200019N0020001N1+02291+01541100871ADDAA199000091GF102991021021004501001001KA1240M+02841MA1999999091191MD1999999-0061REMSYN088AAXX  28004 83339 32495 21801 10229 20154 39119 40087 82200 333 10284 29064 55118 59006;EQDQ01  00002PRCP99
0214833390999992001012812004-14040-042610FM-12+088299999V0201401N002612200019N0100001N1+02311+01941101161ADDAA199000091AY101061AY201061GF102991011021004501021001KA1240N+01761MA1999999091451MD1999999-0051MW1101REMSYN082AAXX  28124 83339 31497 21405 10231 20194 39145 40116 71000 81220 333 20176 59005;EQDQ01  00002PRCP99
0167833390999992001012818004-14040-042610FM-12+088299999V0201401N004610042019N0100001N1+02831+01441100781ADDAA199000091GF106991051021004501001041MA1999999091141MD1999999-0131REMSYN070AAXX  28184 83339 32497 61409 10283 20144 39114 40078 85204 333 59013;EQDQ01  00002PRCP99
0198833390999992001012900004-14040-042610FM-12+088299999V0201801N001512200019N0020001N1+02211+01461100971ADDAA199000091GF102991011021004501021001KA1240M+02941MA1999999091271MD1999999+0081REMSYN088AAXX  29004 83339 32495 21803 10221 20146 39127 40097 81220 333 10294 29062 55112 58008;EQDQ01  00002PRCP99
0202833390999992001012912004-14040-042610FM-12+088299999V0201401N002112200019N0100001N1+02301+01851101301ADDAA199000091GF102991001001999999001011KA1240N+01741MA1999999091571MD1999999+0121REMSYN076AAXX  29124 83339 32897 21404 10230 20185 39157 40130 80001 333 20174 58012;EQDQ01+022502SCOLCBQ02  00002PRCP99
0167833390999992001012918004-14040-042610FM-12+088299999V0201401N003612200019N0100001N1+02951+01161100831ADDAA199000091GF102991021021004501001001MA1999999091201MD1999999+0061REMSYN070AAXX  29184 83339 32497 21407 10295 20116 39120 40083 82200 333 58006;EQDQ01  00002PRCP99
0208833390999992001013000004-14040-042610FM-12+088299999V0209999C000012200019N0020001N1+02351+01491100901ADDAA199000091GA1001+999999999GF100991001001999999001001KA1240M+02991MA1999999091221MD1999999-0051REMSYN082AAXX  30004 83339 32995 00000 10235 20149 39122 40090 333 10299 29056 55117 59005;EQDQ01  00002PRCP99
0186833390999992001013012004-14040-042610FM-12+088299999V0201401N002110042019N0100001N1+02501+01821101231ADDAA199000091GF106991061021004501001001KA1240N+01771MA1999999091501MD1999999-0071REMSYN076AAXX  30124 83339 32497 61404 10250 20182 39150 40123 86200 333 20177 59007;EQDQ01  00002PRCP99
0167833390999992001013018004-14040-042610FM-12+088299999V0201401N005112200019N0100001N1+02871+01801100801ADDAA199000091GF103991031021004501001001MA1999999091141MD1999999-0061REMSYN070AAXX  30184 83339 32497 31410 10287 20180 39114 40080 83200 333 59006;EQDQ01  00002PRCP99
0208833390999992001013100004-14040-042610FM-12+088299999V0200901N001012200019N0020001N1+02321+01551100941ADDAA199000091GA1001+999999999GF100991001001999999001001KA1240M+02941MA1999999091241MD1999999+0021REMSYN082AAXX  31004 83339 32995 00902 10232 20155 39124 40094 333 10294 29065 55095 58002;EQDQ01  00002PRCP99
0186833390999992001013112004-14040-042610FM-12+088299999V0201401N002610042019N0100001N1+02091+01841101251ADDAA199000091GF106991061021004501001001KA1240N+01781MA1999999091521MD1999999+0021REMSYN076AAXX  31124 83339 32497 61405 10209 20184 39152 40125 86200 333 20178 58002;EQDQ01  00002PRCP99
0167833390999992001013118004-14040-042610FM-12+088299999V0201401N003612200019N0100001N1+02891+01621100901ADDAA199000091GF102991021021004501001001MA1999999091231MD1999999+0091REMSYN070AAXX  31184 83339 32497 21407 10289 20162 39123 40090 82200 333 58009;EQDQ01  00002PRCP99
0192833390999992001020100004-14040-042610FM-12+088299999V0200801N001512200019N0020001N1+02391+01601100981ADDAA199000091GF101991999999999999999999KA1240M+03001MA1999999091281MD1999999+0041REMSYN082AAXX  01004 83339 32995 10803 10239 20160 39128 40098 333 10300 29063 55110 58004;EQDQ01  00002PRCP99
0196833390999992001020112004-14040-042610FM-12+088299999V0200901N002612200019N0100001N1+02381+01781101101ADDAA199000091GA1001+999999999GF100991001001999999001001KA1240N+01771MA1999999091421MD1999999-0101REMSYN070AAXX  01124 83339 32997 00905 10238 20178 39142 40110 333 20177 59010;EQDQ01  00002PRCP99
0167833390999992001020118004-14040-042610FM-12+088299999V0200901N005112200019N0100001N1+02961+01531100651ADDAA199000091GF102991021021004501001001MA1999999091041MD1999999-0191REMSYN070AAXX  01184 83339 32497 20910 10296 20153 39104 40065 82200 333 59019;EQDQ01  00002PRCP99
0208833390999992001020200004-14040-042610FM-12+088299999V0200801N001512200019N0020001N1+02441+01201100821ADDAA199000091GA1001+999999999GF100991001001999999001001KA1240M+03021MA1999999091161MD1999999-0121REMSYN082AAXX  02004 83339 32995 00803 10244 20120 39116 40082 333 10302 29051 55117 59012;EQDQ01  00002PRCP99
0167833390999992001020218004-14040-042610FM-12+088299999V0201401N001012200019N0100001N1+03031+01411100711ADDAA199000091GF104991041021004501001001MA1999999091091MD1999999+0051REMSYN070AAXX  02184 83339 32497 41402 10303 20141 39109 40071 84200 333 58005;EQDQ01  00002PRCP99
0208833390999992001020300004-14040-042610FM-12+088299999V0201801N003112200019N0020001N1+02451+02011100811ADDAA199000091GA1001+999999999GF100991001001999999001001KA1240M+03231MA1999999091171MD1999999+0011REMSYN082AAXX  03004 83339 32995 01806 10245 20201 39117 40081 333 10323 29044 55090 58001;EQDQ01  00002PRCP99
0196833390999992001020312004-14040-042610FM-12+088299999V0200501N001512200019N0100001N1+02591+01761101141ADDAA199000091GA1001+999999999GF100991001001999999001001KA1240N+01881MA1999999091471MD1999999+0021REMSYN070AAXX  03124 83339 32997 00503 10259 20176 39147 40114 333 20188 58002;EQDQ01  00002PRCP99
0167833390999992001020318004-14040-042610FM-12+088299999V0201401N001512200019N0100001N1+03111+01351100791ADDAA199000091GF102991021021004501001001MA1999999091181MD1999999+0091REMSYN070AAXX  03184 83339 32497 21403 10311 20135 39118 40079 82200 333 58009;EQDQ01  00002PRCP99
0196833390999992001020412004-14040-042610FM-12+088299999V0200901N002112200019N0020001N1+02441+01761101321ADDAA199000091GA1001+999999999GF100991001001999999001001KA1240N+01861MA1999999091631MD1999999+0161REMSYN070AAXX  04124 83339 32995 00904 10244 20176 39163 40132 333 20186 58016;EQDQ01  00002PRCP99
0167833390999992001020418004-14040-042610FM-12+088299999V0200901N003112200019N0100001N1+02991+01711100951ADDAA199000091GF103991031021004501001001MA1999999091331MD1999999+0151REMSYN070AAXX  04184 83339 32497 30906 10299 20171 39133 40095 83200 333 58015;EQDQ01  00002PRCP99
0208833390999992001020500004-14040-042610FM-12+088299999V0201401N003112200019N0020001N1+02431+01531101071ADDAA199000091GA1001+999999999GF100991001001999999001001KA1240M+03061MA1999999091401MD1999999+0131REMSYN082AAXX  05004 83339 32995 01406 10243 20153 39140 40107 333 10306 29056 55118 58013;EQDQ01  00002PRCP99
0186833390999992001020512004-14040-042610FM-12+088299999V0200901N002112200019N0100001N1+02471+01971101281ADDAA199000091GF102991021021004501001001KA1240N+01961MA1999999091591MD1999999-0041REMSYN076AAXX  05124 83339 32497 20904 10247 20197 39159 40128 82200 333 20196 59004;EQDQ01  00002PRCP99
0167833390999992001020518004-14040-042610FM-12+088299999V0201401N005712200019N0100001N1+03111+01581100831ADDAA199000091GF102991021021004501001001MA1999999091231MD1999999-0101REMSYN070AAXX  05184 83339 32497 21411 10311 20158 39123 40083 82200 333 59010;EQDQ01  00002PRCP99
0188833390999992001020600004-14040-042610FM-12+088299999V0209999C000012200019N0020001N1+02471+01661100981ADDAA199000091GA1001+999999999GF100991001001999999001001KA1240M+03141MA1999999091321REMSYN076AAXX  06004 83339 32995 00000 10247 20166 39132 40098 333 10314 29057 55118;EQDQ01  00002PRCP99
0196833390999992001020612004-14040-042610FM-12+088299999V0203601N002112200019N0100001N1+02691+01811101181ADDAA199000091GA1001+999999999GF100991001001999999001001KA1240N+02041MA1999999091541MD1999999-0051REMSYN070AAXX  06124 83339 32997 03604 10269 20181 39154 40118 333 20204 59005;EQDQ01  00002PRCP99
0167833390999992001020618004-14040-042610FM-12+088299999V0200501N004612200019N0100001N1+03271+01281100791ADDAA199000091GF102991021021004501001001MA1999999091201MD1999999-0031REMSYN070AAXX  06184 83339 32497 20509 10327 20128 39120 40079 82200 333 59003;EQDQ01  00002PRCP99
0208833390999992001020700004-14040-042610FM-12+088299999V0201801N001512200019N0020001N1+02651+01421100831ADDAA199000091GA1001+999999999GF100991001001999999001001KA1240M+03371MA1999999091231MD1999999-0091REMSYN082AAXX  07004 83339 32995 01803 10265 20142 39123 40083 333 10337 29046 55117 59009;EQDQ01  00002PRCP99
0177833390999992001020712004-14040-042610FM-12+088299999V0201401N002112200019N0100001N1+02691+02041101131ADDAA199000091GA1001+999999999GF100991001001999999001001MA1999999091501MD1999999-0041REMSYN064AAXX  07124 83339 32997 01404 10269 20204 39150 40113 333 59004;EQDQ01  00002PRCP99
0167833390999992001020718004-14040-042610FM-12+088299999V0201801N002610042019N0100001N1+03271+01801100701ADDAA199000091GF106991061021004501001001MA1999999091131MD1999999-0071REMSYN070AAXX  07184 83339 32497 61805 10327 20180 39113 40070 86200 333 59007;EQDQ01  00002PRCP99
0198833390999992001020800004-14040-042610FM-12+088299999V0201801N002112200019N0020001N1+02671+01651100851ADDAA199000091GF102991011021004501031001KA1240M+03361MA1999999091251MD1999999+0021REMSYN088AAXX  08004 83339 32495 21804 10267 20165 39125 40085 81230 333 10336 29053 55108 58002;EQDQ01  00002PRCP99
0214833390999992001020812004-14040-042610FM-12+088299999V0201401N002612200019N0100001N1+02431+02131101151ADDAA199000091AY101061AY201061GF102991021021004501001001KA1240N+02041MA1999999091501MD1999999+0001MW1101REMSYN082AAXX  08124 83339 31497 21405 10243 20213 39150 40115 71000 82200 333 20204 58000;EQDQ01  00002PRCP99
0167833390999992001020818004-14040-042610FM-12+088299999V0201401N004612200019N0100001N1+02991+01691100771ADDAA199000091GF103991031021004501001001MA1999999091151MD1999999+0021REMSYN070AAXX  08184 83339 32497 31409 10299 20169 39115 40077 83200 333 58002;EQDQ01  00002PRCP99
0208833390999992001020900004-14040-042610FM-12+088299999V0201401N001512200019N0020001N1+02371+01351100941ADDAA199000091GA1001+999999999GF100991001001999999001001KA1240M+03081MA1999999091271MD1999999+0021REMSYN082AAXX  09004 83339 32995 01403 10237 20135 39127 40094 333 10308 29059 55115 58002;EQDQ01  00002PRCP99
0214833390999992001020912004-14040-042610FM-12+088299999V0201401N003110042019N0100001N1+02171+01921101241ADDAA199000091AY101061AY201061GF106991061021004501001001KA1240N+01781MA1999999091521MD1999999+0021MW1101REMSYN082AAXX  09124 83339 31497 61406 10217 20192 39152 40124 71000 86200 333 20178 58002;EQDQ01  00002PRCP99
0167833390999992001020918004-14040-042610FM-12+088299999V0201401N003612200019N0100001N1+02931+01301100761ADDAA199000091GF102991021021004501001001MA1999999091131MD1999999-0021REMSYN070AAXX  09184 83339 32497 21407 10293 20130 39113 40076 82200 333 59002;EQDQ01  00002PRCP99
0208833390999992001021000004-14040-042610FM-12+088299999V0201401N004612200019N0020001N1+02491+01031100871ADDAA199000091GA1001+999999999GF100991001001999999001001KA1240M+03001MA1999999091201MD1999999-0071REMSYN082AAXX  10004 83339 32995 01409 10249 20103 39120 40087 333 10300 29051 55112 59007;EQDQ01  00002PRCP99
0186833390999992001021012004-14040-042610FM-12+088299999V0201401N006212200019N0100001N1+02231+01821101191ADDAA199000091GF102991021021004501001001KA1240N+01881MA1999999091491MD1999999-0031REMSYN076AAXX  10124 83339 32497 21412 10223 20182 39149 40119 82200 333 20188 59003;EQDQ01  00002PRCP99
0167833390999992001021018004-14040-042610FM-12+088299999V0201401N005112200019N0100001N1+02871+00981100871ADDAA199000091GF102991021021004501001001MA1999999091231MD1999999+0101REMSYN070AAXX  10184 83339 32497 21410 10287 20098 39123 40087 82200 333 58010;EQDQ01  00002PRCP99
0208833390999992001021100004-14040-042610FM-12+088299999V0201801N001012200019N0020001N1+02391+00521100911ADDAA199000091GA1001+999999999GF100991001001999999001001KA1240M+02971MA1999999091231MD1999999+0031REMSYN082AAXX  11004 83339 32995 01802 10239 20052 39123 40091 333 10297 29042 55115 58003;EQDQ01  00002PRCP99
0196833390999992001021112004-14040-042610FM-12+088299999V0201401N004612200019N0100001N1+02251+01751101271ADDAA199000091GA1001+999999999GF100991001001999999001001KA1240N+01841MA1999999091551MD1999999+0061REMSYN070AAXX  11124 83339 32997 01409 10225 20175 39155 40127 333 20184 58006;EQDQ01  00002PRCP99
0167833390999992001021118004-14040-042610FM-12+088299999V0200501N001512200019N0100001N1+03011+00951100881ADDAA199000091GF102991011021004501001041MA1999999091251MD1999999+0021REMSYN070AAXX  11184 83339 32497 20503 10301 20095 39125 40088 81204 333 58002;EQDQ01  00002PRCP99
0208833390999992001021200004-14040-042610FM-12+088299999V0201401N003112200019N0020001N1+02431+01401100981ADDAA199000091GA1001+999999999GF100991001001999999001001KA1240M+03091MA1999999091301MD1999999+0071REMSYN082AAXX  12004 83339 32995 01406 10243 20140 39130 40098 333 10309 29050 55118 58007;EQDQ01  00002PRCP99
0196833390999992001021212004-14040-042610FM-12+088299999V0201401N004112200019N0100001N1+02451+01761101351ADDAA199000091GA1001+999999999GF100991001001999999001001KA1240N+01941MA1999999091651MD1999999+0101REMSYN070AAXX  12124 83339 32997 01408 10245 20176 39165 40135 333 20194 58010;EQDQ01  00002PRCP99
0167833390999992001021218004-14040-042610FM-12+088299999V0200901N004110042019N0100001N1+02941+01661101061ADDAA199000091GF105991051021004501001001MA1999999091411MD1999999+0161REMSYN070AAXX  12184 83339 32497 50908 10294 20166 39141 40106 85200 333 58016;EQDQ01  00002PRCP99
0208833390999992001021300004-14040-042610FM-12+088299999V0201401N002612200019N0020001N1+02451+01681101051ADDAA199000091GA1001+999999999GF100991001001999999001001KA1240M+03011MA1999999091381MD1999999+0081REMSYN082AAXX  13004 83339 32995 01405 10245 20168 39138 40105 333 10301 29059 55117 58008;EQDQ01  00002PRCP99
0186833390999992001021312004-14040-042610FM-12+088299999V0201401N002610042019N0100001N1+02031+01801101341ADDAA199000091GF106991061021004501001001KA1240N+01921MA1999999091611MD1999999-0041REMSYN076AAXX  13124 83339 32497 61405 10203 20180 39161 40134 86200 333 20192 59004;EQDQ01  00002PRCP99
0167833390999992001021318004-14040-042610FM-12+088299999V0201401N003110450019N0100001N1+02631+01881100971ADDAA199000091GF108991031021004501021041MA1999999091291MD1999999-0221REMSYN070AAXX  13184 83339 32497 81406 10263 20188 39129 40097 83224 333 59022;EQDQ01  00002PRCP99
0208833390999992001021400004-14040-042610FM-12+088299999V0209999C000012200019N9999999N1+02211+01731101121ADDAA199000091GA1001+999999999GF100991001001999999001001KA1240M+02791MA1999999091381MD1999999+0001REMSYN082AAXX  14004 83339 329// 00000 10221 20173 39138 40112 333 10279 29074 55021 58000;EQDQ01  00002PRCP99
0186833390999992001021412004-14040-042610FM-12+088299999V0201401N003112200019N0100001N1+02421+01911101211ADDAA199000091GF104991021021004501001041KA1240N+01871MA1999999091501MD1999999-0111REMSYN076AAXX  14124 83339 32497 41406 10242 20191 39150 40121 82204 333 20187 59011;EQDQ01  00002PRCP99
0167833390999992001021418004-14040-042610FM-12+088299999V0201401N003112200019N0100001N1+02701+01631100881ADDAA199000091GF106991041021004501001041MA1999999091201MD1999999-0091REMSYN070AAXX  14184 83339 32497 61406 10270 20163 39120 40088 84204 333 59009;EQDQ01  00002PRCP99
0198833390999992001021500004-14040-042610FM-12+088299999V0209999C000012200019N0020001N1+02371+01581100921ADDAA199000091GF104991041021004501001001KA1240M+03011MA1999999091251MD1999999-0131REMSYN088AAXX  15004 83339 32495 40000 10237 20158 39125 40092 84200 333 10301 29062 55067 59013;EQDQ01  00002PRCP99
0186833390999992001021512004-14040-042610FM-12+088299999V0200901N002110450019N0100001N1+02421+01931101311ADDAA199000091GF106991041021004501031001KA1240N+02021MA1999999091611MD1999999+0111REMSYN076AAXX  15124 83339 32497 60904 10242 20193 39161 40131 84230 333 20202 58011;EQDQ01  00002PRCP99
0195833390999992001021518004-14040-042610FM-12+088299999V0209999C000010450019N0100001N1+02521+01891100991ADDAA199000091AY121061AY221061GF107991041021004501021001MA1999999091301MD1999999+0101MW1171REMSYN076AAXX  15184 83339 31497 70000 10252 20189 39130 40099 71722 84220 333 58010;EQDQ01  00002PRCP99
0198833390999992001021600004-14040-042610FM-12+088299999V0209999C000012200019N0020001N1+02231+01881101061ADDAA199000091GF102991021021004501001001KA1240M+02721MA1999999091361MD1999999+0111REMSYN088AAXX  16004 83339 32495 20000 10223 20188 39136 40106 82200 333 10272 29033 55076 58011;EQDQ01  00002PRCP99
0186833390999992001021612004-14040-042610FM-12+088299999V0201401N001510450019N0100001N1+02331+01891101381ADDAA199000091GF106991021021004501031001KA1240N+01921MA1999999091651MD1999999+0041REMSYN076AAXX  16124 83339 32497 61403 10233 20189 39165 40138 82230 333 20192 58004;EQDQ01  00002PRCP99
0167833390999992001021618004-14040-042610FM-12+088299999V0201401N005112200019N0100001N1+03031+01141100941ADDAA199000091GF102991021021004501001001MA1999999091301MD1999999+0001REMSYN070AAXX  16184 83339 32497 21410 10303 20114 39130 40094 82200 333 58000;EQDQ01  00002PRCP99
0208833390999992001021700004-14040-042610FM-12+088299999V0201401N005112200019N0020001N1+02451+01741101211ADDAA199000091GA1001+999999999GF100991001001999999001001KA1240M+03071MA1999999091511MD1999999+0151REMSYN082AAXX  17004 83339 32995 01410 10245 20174 39151 40121 333 10307 29087 55060 58015;EQDQ01  00002PRCP99
0186833390999992001021712004-14040-042610FM-12+088299999V0201401N005112200019N0100001N1+02271+01831101491ADDAA199000091GF102991021021004501001001KA1240N+01901MA1999999091761MD1999999+0111REMSYN076AAXX  17124 83339 32497 21410 10227 20183 39176 40149 82200 333 20190 58011;EQDQ01  00002PRCP99
0167833390999992001021718004-14040-042610FM-12+088299999V0201401N005712200019N0100001N1+02931+01231101151ADDAA199000091GF102991021021004501001001MA1999999091481MD1999999+0181REMSYN070AAXX  17184 83339 32497 21411 10293 20123 39148 40115 82200 333 58018;EQDQ01  00002PRCP99
0208833390999992001021800004-14040-042610FM-12+088299999V0201401N003112200019N0020001N1+02411+01491101341ADDAA199000091GA1001+999999999GF100991001001999999001001KA1240M+02981MA1999999091631MD1999999+0121REMSYN082AAXX  18004 83339 32995 01406 10241 20149 39163 40134 333 10298 29055 55112 58012;EQDQ01  00002PRCP99
0196833390999992001021812004-14040-042610FM-12+088299999V0201401N004612200019N0100001N1+02231+01691101621ADDAA199000091GA1001+999999999GF100991001001999999001001KA1240N+01801MA1999999091871MD1999999+0111REMSYN070AAXX  18124 83339 32997 01409 10223 20169 39187 40162 333 20180 58011;EQDQ01  00002PRCP99
0167833390999992001021818004-14040-042610FM-12+088299999V0200901N003112200019N0100001N1+02971+00931101221ADDAA199000091GF102991011021004501031001MA1999999091541MD1999999+0061REMSYN070AAXX  18184 83339 32497 20906 10297 20093 39154 40122 81230 333 58006;EQDQ01  00002PRCP99
0186833390999992001021912004-14040-042610FM-12+088299999V0201401N006712200019N0100001N1+02251+01731101521ADDAA199000091GF104991041021004501001001KA1240N+01941MA1999999091791MD1999999-0081REMSYN076AAXX  19124 83339 32497 41413 10225 20173 39179 40152 84200 333 20194 59008;EQDQ01  00002PRCP99
0167833390999992001021918004-14040-042610FM-12+088299999V0202301N005110042019N0100001N1+02591+01611101231ADDAA199000091GF107991061021004501021999MA1999999091541MD1999999+0001REMSYN070AAXX  19184 83339 32497 72310 10259 20161 39154 40123 8622/ 333 58000;EQDQ01  00002PRCP99
0198833390999992001022000004-14040-042610FM-12+088299999V0201801N003110042019N0020001N1+02271+01641101201ADDAA199000091GF105991051021004501001001KA1240M+02681MA1999999091481MD1999999-0101REMSYN088AAXX  20004 83339 32495 51806 10227 20164 39148 40120 85200 333 10268 29066 55053 59010;EQDQ01  00002PRCP99
0186833390999992001022012004-14040-042610FM-12+088299999V0201401N003610042019N0100001N1+02291+01831101421ADDAA199000091GF106991061021004501001001KA1240N+01931MA1999999091691MD1999999-0101REMSYN076AAXX  20124 83339 32497 61407 10229 20183 39169 40142 86200 333 20193 59010;EQDQ01  00002PRCP99
0167833390999992001022018004-14040-042610FM-12+088299999V0201401N003112200019N0100001N1+02771+01561101051ADDAA199000091GF105991041021004501001041MA1999999091361MD1999999-0181REMSYN070AAXX  20184 83339 32497 51406 10277 20156 39136 40105 84204 333 59018;EQDQ01  00002PRCP99
0185833390999992001022100004-14040-042610FM-12+088299999V0201801N001512200019N0020001N1+02351+01441101201ADDAA199000091GF102991021021004501001001KA1240M+02871KA2999N+00581MA1999999091491REMSYN076AAXX  21004 83339 32495 21803 10235 20144 39149 40120 82200 333 10287 29058;EQDQ01  00002PRCP99
0186833390999992001022112004-14040-042610FM-12+088299999V0201401N004612200019N0100001N1+02291+01831101311ADDAA199000091GF103991031021004501001001KA1240N+01841MA1999999091591MD1999999-0101REMSYN076AAXX  21124 83339 32497 31409 10229 20183 39159 40131 83200 333 20184 59010;EQDQ01  00002PRCP99
0167833390999992001022118004-14040-042610FM-12+088299999V0201401N006712200019N0100001N1+02871+01251100881ADDAA199000091GF104991031021004501021001MA1999999091241MD1999999-0121REMSYN070AAXX  21184 83339 32497 41413 10287 20125 39124 40088 83220 333 59012;EQDQ01  00002PRCP99
0167833390999992001022218004-14040-042610FM-12+088299999V0201401N004612200019N0100001N1+02891+01531100981ADDAA199000091GF102991021021004501001001MA1999999091341MD1999999+0101REMSYN070AAXX  22184 83339 32497 21409 10289 20153 39134 40098 82200 333 58010;EQDQ01  00002PRCP99
0208833390999992001022300004-14040-042610FM-12+088299999V0200901N002112200019N0020001N1+02451+01301101061ADDAA199000091GA1001+999999999GF100991001001999999001001KA1240M+02981MA1999999091361MD1999999-0041REMSYN082AAXX  23004 83339 32995 00904 10245 20130 39136 40106 333 10298 29056 55090 59004;EQDQ01  00002PRCP99
0202833390999992001022312004-14040-042610FM-12+088299999V0200501N006719999999N0100001N1+02271+01731101521ADDAA199000091GF106991999021004501001001KA1240N+01941MA1999999091791MD1999999-0081REMSYN076AAXX  23124 83339 32497 60513 10227 20173 39179 40152 84200 333 20194 59008;EQDQ01+000042SCOTLCQ02  00002PRCP99
0167833390999992001022318004-14040-042610FM-12+088299999V0200501N004612200019N0100001N1+03091+01311100981ADDAA199000091GF102991021021004501001001MA1999999091351MD1999999+0011REMSYN070AAXX  23184 83339 32497 20509 10309 20131 39135 40098 82200 333 58001;EQDQ01  00002PRCP99
0208833390999992001022400004-14040-042610FM-12+088299999V0201401N004612200019N0020001N1+02551+01191101121ADDAA199000091GA1001+999999999GF100991001001999999001001KA1240M+03121MA1999999091441MD1999999+0081REMSYN082AAXX  24004 83339 32995 01409 10255 20119 39144 40112 333 10312 29049 55112 58008;EQDQ01  00002PRCP99
0186833390999992001022412004-14040-042610FM-12+088299999V0201401N005112200019N0100001N1+02371+01711101281ADDAA199000091GF102991021021004501001001KA1240N+01881MA1999999091591MD1999999-0051REMSYN076AAXX  24124 83339 32497 21410 10237 20171 39159 40128 82200 333 20188 59005;EQDQ01  00002PRCP99
0183833390999992001022418004-14040-042610FM-12+088299999V0201401N005712200019N0100001N1+02891+01421100951ADDAA199000091GF103991999021004501001001MA1999999091311MD1999999-0041REMSYN070AAXX  24184 83339 32497 31411 10289 20142 39131 40095 82200 333 59004;EQDQ01+000022SCOTLCQ02  00002PRCP99
0208833390999992001022500004-14040-042610FM-12+088299999V0201401N003112200019N0020001N1+02451+01241101041ADDAA199000091GA1001+999999999GF100991001001999999001001KA1240M+02801MA1999999091361MD1999999-0081REMSYN082AAXX  25004 83339 32995 01406 10245 20124 39136 40104 333 10280 29051 55112 59008;EQDQ01  00002PRCP99
0208833390999992001022512004-14040-042610FM-12+088299999V0201401N003112200019N0020001N1+02451+01241101041ADDAA199000091GA1001+999999999GF100991001001999999001001KA1240M+02801MA1999999091361MD1999999-0081REMSYN082AAXX  25124 83339 32995 01406 10245 20124 39136 40104 333 10280 29051 55112 59008;EQDQ01  00002PRCP99
0167833390999992001022518004-14040-042610FM-12+088299999V0201401N002612200019N0100001N1+02931+01601100851ADDAA199000091GF102991021021004501001001MA1999999091221MD1999999-0091REMSYN070AAXX  25184 83339 32497 21405 10293 20160 39122 40085 82200 333 59009;EQDQ01  00002PRCP99
0226833390999992001022600004-14040-042610FM-12+088299999V0201401N005712200019N0020001N1+02171+01801100971ADDAA199000091AY101061AY201061GF103991031021004501001001KA1240M+02981MA1999999091261MD1999999-0101MW1101REMSYN094AAXX  26004 83339 31495 31411 10217 20180 39126 40097 71000 83200 333 10298 29068 55094 59010;EQDQ01  00002PRCP99
0167833390999992001022618004-14040-042610FM-12+088299999V0201401N005112200019N0100001N1+02931+01721100771ADDAA199000091GF103991031021004501001001MA1999999091141MD1999999-0081REMSYN070AAXX  26184 83339 32497 31410 10293 20172 39114 40077 83200 333 59008;EQDQ01  00002PRCP99
0208833390999992001022700004-14040-042610FM-12+088299999V0201401N008212200019N0020001N1+02241+01881101111ADDAA199000091GA1001+999999999GF100991001001999999001001KA1240M+02971MA1999999091391MD1999999+0131REMSYN082AAXX  27004 83339 32995 01416 10224 20188 39139 40111 333 10297 29071 55088 58013;EQDQ01  00002PRCP99
0186833390999992001022712004-14040-042610FM-12+088299999V0201401N005110042019N0100001N1+02121+01881101361ADDAA199000091GF106991061021004501001001KA1240N+01941MA1999999091621MD1999999+0051REMSYN076AAXX  27124 83339 32497 61410 10212 20188 39162 40136 86200 333 20194 58005;EQDQ01  00002PRCP99
0167833390999992001022718004-14040-042610FM-12+088299999V0201401N003112200019N0100001N1+02751+01771100971ADDAA199000091GF106991041021004501001041MA1999999091291MD1999999+0151REMSYN070AAXX  27184 83339 32497 61406 10275 20177 39129 40097 84204 333 58015;EQDQ01  00002PRCP99
0201833390999992001022812004-14040-042610FM-12+088299999V0201401N005110042019N0100001N1+02121+01911101451ADDAA124004191AY191061AY261061GF106991061021004501001001KA1240N+01851MA1999999091651MD1999999+0031MW1021REMSYN088AAXX  28124 83339 21497 61410 10212 20191 39165 40145 70296 86200 333 20185 58003 60044;
0198833390999992001030100004-14040-042610FM-12+088299999V0201401N005110042019N0020001N1+02051+01841101331ADDAA199000091GF106991061021004501001001KA1240M+02741MA1999999092571MD1999999-0031REMSYN088AAXX  01004 83339 32495 61410 10205 20184 39257 40133 86200 333 10274 29078 55022 59003;EQDQ01  00002PRCP99
0186833390999992001030112004-14040-042610FM-12+088299999V0201401N005110042019N0100001N1+02041+01851101401ADDAA199000091GF108991051021004501021999KA1240N+01871MA1999999091631MD1999999-0021REMSYN076AAXX  01124 83339 32497 81410 10204 20185 39163 40140 8522/ 333 20187 59002;EQDQ01  00002PRCP99
0167833390999992001030118004-14040-042610FM-12+088299999V0201401N005112200019N0100001N1+02601+01841101091ADDAA199000091GF106991041021004501001041MA1999999091381MD1999999-0041REMSYN070AAXX  01184 83339 32497 61410 10260 20184 39138 40109 84204 333 59004;EQDQ01  00002PRCP99
0198833390999992001030200004-14040-042610FM-12+088299999V0201401N004610450019N0020001N1+02341+01721101321ADDAA199000091GF106991041021004501031001KA1240M+02631MA1999999091581MD1999999+0011REMSYN088AAXX  02004 83339 32495 61409 10234 20172 39158 40132 84230 333 10263 29072 55020 58001;EQDQ01  00002PRCP99
0196833390999992001030212004-14040-042610FM-12+088299999V0200501N001512200019N0100001N1+02591+01761101141ADDAA199000091GA1001+999999999GF100991001001999999001001KA1240N+01881MA1999999091471MD1999999+0021REMSYN070AAXX  02124 83339 32997 00503 10259 20176 39147 40114 333 20188 58002;EQDQ01  00002PRCP99
0167833390999992001030218004-14040-042610FM-12+088299999V0201401N005110042019N0100001N1+02711+01851101131ADDAA199000091GF106991061021004501001001MA1999999091441MD1999999+0061REMSYN070AAXX  02184 83339 32497 61410 10271 20185 39144 40113 86200 333 58006;EQDQ01  00002PRCP99
0198833390999992001030300004-14040-042610FM-12+088299999V0201401N005719999999N0020001N1+02291+01901101411ADDAA199000091GF105991031021999999031001KA1240M+02781MA1999999091661MD1999999+0081REMSYN088AAXX  03004 83339 32/95 51411 10229 20190 39166 40141 83230 333 10278 29075 55042 58008;EQDQ01  00002PRCP99
0186833390999992001030312004-14040-042610FM-12+088299999V0201401N004110042019N0100001N1+02191+01991101661ADDAA199000091GF108991051021004501021999KA1240N+02021MA1999999091901MD1999999+0071REMSYN076AAXX  03124 83339 32497 81408 10219 20199 39190 40166 8522/ 333 20202 58007;EQDQ01  00002PRCP99
0167833390999992001030318004-14040-042610FM-12+088299999V0201401N001010450019N0100001N1+02691+01881101301ADDAA199000091GF107991041021004501031041MA1999999091591MD1999999+0151REMSYN070AAXX  03184 83339 32497 71402 10269 20188 39159 40130 84234 333 58015;EQDQ01  00002PRCP99
0198833390999992001030400004-14040-042610FM-12+088299999V0201401N002612200019N0020001N1+02331+01831101451ADDAA199000091GF104991031021004501031001KA1240M+02871MA1999999091711MD1999999+0051REMSYN088AAXX  04004 83339 32495 41405 10233 20183 39171 40145 83230 333 10287 29074 55027 58005;EQDQ01  00002PRCP99
0201833390999992001030412004-14040-042610FM-12+088299999V0201401N004110042019N0100001N1+02161+01971101581ADDAA124000191AY161061AY221061GF108991051021004501021999KA1240N+01951MA1999999091831MD1999999-0071MW1021REMSYN088AAXX  04124 83339 21497 81408 10216 20197 39183 40158 70262 8522/ 333 20195 59007 69924;
0167833390999992001030418004-14040-042610FM-12+088299999V0201401N005712200019N0100001N1+02651+01611101101ADDAA199000091GF106991041021004501001041MA1999999091401MD1999999-0191REMSYN070AAXX  04184 83339 32497 61411 10265 20161 39140 40110 84204 333 59019;EQDQ01  00002PRCP99
0198833390999992001030500004-14040-042610FM-12+088299999V0201401N005712200019N0020001N1+02281+02001101311ADDAA199000091GF104991041021004501001001KA1240M+02841MA1999999091571MD1999999-0141REMSYN088AAXX  05004 83339 32495 41411 10228 20200 39157 40131 84200 333 10284 29080 55043 59014;EQDQ01  00002PRCP99
0201833390999992001030512004-14040-042610FM-12+088299999V0201401N005710042019N0040001N1+01951+01841101511ADDAA124001091AY161061AY261061GF108991081051004501999999KA1240N+01931MA1999999091741MD1999999-0091MW1101REMSYN088AAXX  05124 83339 21496 81411 10195 20184 39174 40151 71066 885// 333 20193 59009 60014;
0226833390999992001030600004-14040-042610FM-12+088299999V0201401N007210042019N0020001N1+02191+01921101281ADDAA199000091AY101061AY201061GF106991061021004501001001KA1240M+02521MA1999999091521MD1999999-0051MW1101REMSYN094AAXX  06004 83339 31495 61414 10219 20192 39152 40128 71000 86200 333 10252 29084 55007 59005;EQDQ01  00002PRCP99
0214833390999992001030612004-14040-042610FM-12+088299999V0201401N004610042019N0040001N1+02131+01931101521ADDAA199000091AY101061AY201061GF108991081051004501999999KA1240N+01941MA1999999091751MD1999999+0011MW1101REMSYN082AAXX  06124 83339 31496 81409 10213 20193 39175 40152 71000 885// 333 20194 58001;EQDQ01  00002PRCP99
0161833390999992001030618004-14040-042610FM-12+088299999V0201401N004110042019N0100001N1+02671+01821999999ADDAA199000091GF106991051021004501021001MA1999999091451MD1999999-0041REMSYN064AAXX  06184 83339 32497 61408 10267 20182 39145 85220 333 59004;EQDQ01  00002PRCP99
0198833390999992001030700004-14040-042610FM-12+088299999V0201401N004112200019N0020001N1+02391+01711101341ADDAA199000091GF104991041021004501001001KA1240M+02791MA1999999091611MD1999999+0091REMSYN088AAXX  07004 83339 32495 41408 10239 20171 39161 40134 84200 333 10279 29068 55053 58009;EQDQ01  00002PRCP99
0214833390999992001030712004-14040-042610FM-12+088299999V0201401N006210042019N0040001N1+02111+01881101641ADDAA199000091AY101061AY201061GF107991061021004501021999KA1240N+01921MA1999999091881MD1999999+0131MW1101REMSYN082AAXX  07124 83339 31496 71412 10211 20188 39188 40164 71000 8622/ 333 20192 58013;EQDQ01  00002PRCP99
0167833390999992001030718004-14040-042610FM-12+088299999V0201401N004112200019N0100001N1+02911+01441101221ADDAA199000091GF102991021021004501001001MA1999999091541MD1999999+0091REMSYN070AAXX  07184 83339 32497 21408 10291 20144 39154 40122 82200 333 58009;EQDQ01  00002PRCP99
0198833390999992001030800004-14040-042610FM-12+088299999V0201401N002112200019N0020001N1+02451+01531101331ADDAA199000091GF102991021021004501001001KA1240M+03001MA1999999091611MD1999999+0001REMSYN088AAXX  08004 83339 32495 21404 10245 20153 39161 40133 82200 333 10300 29060 55078 58000;EQDQ01  00002PRCP99
0186833390999992001030812004-14040-042610FM-12+088299999V0201401N004110042019N0100001N1+02231+01801101521ADDAA199000091GF105991051021004501001001KA1240N+01921MA1999999091791MD1999999-0091REMSYN076AAXX  08124 83339 32497 51408 10223 20180 39179 40152 85200 333 20192 59009;EQDQ01  00002PRCP99
0167833390999992001030818004-14040-042610FM-12+088299999V0201401N003112200019N0100001N1+02971+01211101071ADDAA199000091GF103991021021004501021001MA1999999091431MD1999999-0111REMSYN070AAXX  08184 83339 32497 31406 10297 20121 39143 40107 82220 333 59011;EQDQ01  00002PRCP99
0208833390999992001030900004-14040-042610FM-12+088299999V0201401N000512200019N0020001N1+02351+01441101141ADDAA199000091GA1001+999999999GF100991001001999999001001KA1240M+03021MA1999999091441MD1999999+0171REMSYN082AAXX  09004 83339 32995 01401 10235 20144 39144 40114 333 10302 29056 55112 58017;EQDQ01  00002PRCP99
0186833390999992001030912004-14040-042610FM-12+088299999V0201401N005112200019N0100001N1+02371+01871101241ADDAA199000091GF102991021021004501001001KA1240N+01831MA1999999091541MD1999999-0251REMSYN076AAXX  09124 83339 32497 21410 10237 20187 39154 40124 82200 333 20183 59025;EQDQ01  00002PRCP99
0183833390999992001030918004-14040-042610FM-12+088299999V0202701N003112200019N0100001N1+03151+01411100851ADDAA199000091GF103991999021004501001001MA1999999091141MD1999999-0291REMSYN070AAXX  09184 83339 32497 32706 10315 20141 39114 40085 82200 333 59029;EQDQ01+000022SCOTLCQ02  00002PRCP99
0198833390999992001031000004-14040-042610FM-12+088299999V0201401N002612200019N0020001N1+02431+01051100931ADDAA199000091GF102991021021004501001001KA1240M+03241MA1999999091261MD1999999-0181REMSYN088AAXX  10004 83339 32495 21405 10243 20105 39126 40093 82200 333 10324 29048 55109 59018;EQDQ01  00002PRCP99
0186833390999992001031012004-14040-042610FM-12+088299999V0201401N001510042019N0100001N1+02351+01951101101ADDAA199000091GF106991051021004501021001KA1240N+02001MA1999999091421MD1999999-0121REMSYN076AAXX  10124 83339 32497 61403 10235 20195 39142 40110 85220 333 20200 59012;EQDQ01  00002PRCP99
0182833390999992001031018004-14040-042610FM-12+088299999V0200901N001510042019N0040001N1+02251+02051100771ADDAA106002091AY191061AY261061GF107991061021004501021999MA1999999091091MD1999999-0051MW1101REMSYN082AAXX  10184 83339 21496 70903 10225 20205 39109 40077 71096 8622/ 333 59005 60021;
0213833390999992001031100004-14040-042610FM-12+088299999V0203201N002110042019N0020001N1+02251+01881101011ADDAA106000591AY161061AY261061GF108991081051004501999999KA1240M+03001MA1999999091321MD1999999+0061MW1101REMSYN100AAXX  11004 83339 21495 83204 10225 20188 39132 40101 71066 885// 333 10300 29081 55042 58006 69961;
0201833390999992001031112004-14040-042610FM-12+088299999V0209999C000010042019N0040001N1+02031+01871101241ADDAA124005191AY161061AY261061GF108991081051004501999999KA1240N+01981MA1999999091501MD1999999+0081MW1101REMSYN088AAXX  11124 83339 21496 80000 10203 20187 39150 40124 71066 885// 333 20198 58008 60054;
0213833390999992001031200004-14040-042610FM-12+088299999V0202701N001010042019N0020001N1+02031+01941101191ADDAA106023191AY191061AY261061GF108991081051004501999999KA1240M+03001MA1999999091441MD1999999+0121MW1101REMSYN100AAXX  12004 83339 21495 82702 10203 20194 39144 40119 71096 885// 333 10300 29091 55006 58012 60231;
0201833390999992001031212004-14040-042610FM-12+088299999V0201401N001510042019N0020001N1+01951+01911101491ADDAA124046091AY161061AY261061GF108991061021004501021999KA1240N+01921MA1999999091691MD1999999+0191MW1601REMSYN088AAXX  12124 83339 21495 81403 10195 20191 39169 40149 76066 8622/ 333 20192 58019 60464;
0182833390999992001031218004-14040-042610FM-12+088299999V0203201N001510042019N0020001N1+02051+02011101221ADDAA106011991AY161061AY241061GF108991051021004501021999MA1999999091451MD1999999+0261MW1601REMSYN082AAXX  12184 83339 21495 83203 10205 20201 39145 40122 76064 8522/ 333 58026 60121;
0213833390999992001031300004-14040-042610FM-12+088299999V0209999C000010042019N0020001N1+01991+01931101321ADDAA106003091AY161061AY241061GF105991051021004501001001KA1240M+02341MA1999999091541MD1999999+0101MW1021REMSYN100AAXX  13004 83339 21495 50000 10199 20193 39154 40132 70264 85200 333 10234 29096 55000 58010 60031;
0201833390999992001031312004-14040-042610FM-12+088299999V0201401N003110042019N0010001N1+02051+02031101541ADDAA124016091AY161061AY241061GF108991051021004501021999KA1240N+01921MA1999999091741MD1999999+0051MW1401REMSYN088AAXX  13124 83339 21494 81406 10205 20203 39174 40154 74064 8522/ 333 20192 58005 60164;
0182833390999992001031318004-14040-042610FM-12+088299999V0201401N003110042019N0100001N1+02321+02021101141ADDAA106010991AY161061AY241061GF108991061021004501021999MA1999999091401MD1999999-0021MW1021REMSYN082AAXX  13184 83339 21497 81406 10232 20202 39140 40114 70264 8622/ 333 59002 60111;
0198833390999992001031400004-14040-042610FM-12+088299999V0201401N003112200019N0020001N1+02051+01891101381ADDAA199000091GF103991031021004501001001KA1240M+02491MA1999999091611MD1999999+0071REMSYN088AAXX  14004 83339 32495 31406 10205 20189 39161 40138 83200 333 10249 29090 55002 58007;EQDQ01  00002PRCP99
0201833390999992001031412004-14040-042610FM-12+088299999V0201401N004110042019N0100001N1+02261+01941101421ADDAA124011991AY161061AY221061GF105991051021004501001001KA1240N+01951MA1999999091661MD1999999-0081MW1021REMSYN088AAXX  14124 83339 21497 51408 10226 20194 39166 40142 70262 85200 333 20195 59008 60124;
0167833390999992001031418004-14040-042610FM-12+088299999V0201401N005110042019N0100001N1+02451+02011101071ADDAA199000091GF105991051021004501001001MA1999999091351MD1999999-0051REMSYN070AAXX  14184 83339 32497 51410 10245 20201 39135 40107 85200 333 59005;EQDQ01  00002PRCP99
0201833390999992001031512004-14040-042610FM-12+088299999V0201401N004610042019N0100001N1+01991+01881101541ADDAA124001091AY161061AY221061GF106991061021004501001001KA1240N+01851MA1999999091741MD1999999+0081MW1021REMSYN088AAXX  15124 83339 21497 61409 10199 20188 39174 40154 70262 86200 333 20185 58008 60014;
0167833390999992001031518004-14040-042610FM-12+088299999V0201401N002612200019N0100001N1+02491+01961101121ADDAA199000091GF104991041021004501001001MA1999999091401MD1999999+0051REMSYN070AAXX  15184 83339 32497 41405 10249 20196 39140 40112 84200 333 58005;EQDQ01  00002PRCP99
0196833390999992001031600004-14040-042610FM-12+088299999V0201401N003110042019N0020001N1+02031+01871101291ADDAY161061AY221061GF106991061021004501001001KA1240M+02571MA1999999091521MD1999999+0021MW1021REMSYN094AAXX  16004 83339 21495 61406 10203 20187 39152 40129 70262 86200 333 10257 29086 55034 58002;
0201833390999992001031612004-14040-042610FM-12+088299999V0201401N005110042019N0100001N1+02011+01741101651ADDAA124004191AY161061AY221061GF106991061021004501001001KA1240N+01821MA1999999091841MD1999999+0101MW1021REMSYN088AAXX  16124 83339 21497 61410 10201 20174 39184 40165 70262 86200 333 20182 58010 60044;
0167833390999992001031618004-14040-042610FM-12+088299999V0200901N005112200019N0100001N1+02531+01601101351ADDAA199000091GF104991021021004501001041MA1999999091611MD1999999+0211REMSYN070AAXX  16184 83339 32497 40910 10253 20160 39161 40135 82204 333 58021;EQDQ01  00002PRCP99
0208833390999992001031700004-14040-042610FM-12+088299999V0201401N006712200019N0020001N1+02141+01741101461ADDAA199000091GA1001+999999999GF100991001001999999001001KA1240M+02561MA1999999091661MD1999999+0141REMSYN082AAXX  17004 83339 32995 01413 10214 20174 39166 40146 333 10256 29074 55060 58014;EQDQ01  00002PRCP99
0214833390999992001031712004-14040-042610FM-12+088299999V0201401N003110042019N0010001N1+01891+01821101591ADDAA199000091AY121061AY221061GF108991051021004501021999KA1240N+01801MA1999999091781MD1999999-0061MW1401REMSYN082AAXX  17124 83339 31494 81406 10189 20182 39178 40159 74022 8522/ 333 20180 59006;EQDQ01  00002PRCP99
0167833390999992001031718004-14040-042610FM-12+088299999V0201401N003610042019N0100001N1+02491+01871101171ADDAA199000091GF106991061021004501001001MA1999999091451MD1999999-0161REMSYN070AAXX  17184 83339 32497 61407 10249 20187 39145 40117 86200 333 59016;EQDQ01  00002PRCP99
0186833390999992001031812004-14040-042610FM-12+088299999V0201401N003611050019N0100001N1+02231+01901101311ADDAA199000091GF105991021021004501031011KA1240N+01771MA1999999091571MD1999999-0211REMSYN076AAXX  18124 83339 32497 51407 10223 20190 39157 40131 82231 333 20177 59021;EQDQ01  00002PRCP99
0167833390999992001031818004-14040-042610FM-12+088299999V0200901N003110042019N0100001N1+02791+01781100861ADDAA199000091GF106991061021004501001001MA1999999091201MD1999999-0251REMSYN070AAXX  18184 83339 32497 60906 10279 20178 39120 40086 86200 333 59025;EQDQ01  00002PRCP99
0208833390999992001031900004-14040-042610FM-12+088299999V0202301N001012200019N0020001N1+02191+01861101091ADDAA199000091GA1001+999999999GF100991001001999999001001KA1240M+02951MA1999999091371MD1999999-0151REMSYN082AAXX  19004 83339 32995 02302 10219 20186 39137 40109 333 10295 29074 55080 59015;EQDQ01  00002PRCP99
0214833390999992001031912004-14040-042610FM-12+088299999V0201401N000512200019N0100001N1+02371+01991101271ADDAA199000091AY101061AY201061GF104991041021004501001001KA1240N+01841MA1999999091551MD1999999-0021MW1101REMSYN082AAXX  19124 83339 31497 41401 10237 20199 39155 40127 71000 84200 333 20184 59002;EQDQ01  00002PRCP99
0167833390999992001031918004-14040-042610FM-12+088299999V0201401N003110042019N0100001N1+02991+01661100791ADDAA199000091GF105991051021004501001001MA1999999091161MD1999999+0041REMSYN070AAXX  19184 83339 32497 51406 10299 20166 39116 40079 85200 333 58004;EQDQ01  00002PRCP99
0198833390999992001032000004-14040-042610FM-12+088299999V0201801N000512200019N0020001N1+02371+01731101081ADDAA199000091GF102991021021004501001001KA1240M+03041MA1999999091391MD1999999+0021REMSYN088AAXX  20004 83339 32495 21801 10237 20173 39139 40108 82200 333 10304 29064 55080 58002;EQDQ01  00002PRCP99
0214833390999992001032012004-14040-042610FM-12+088299999V0201401N001510006019N0049001N1+02191+01951101521ADDAA199000091AY101061AY201061GF106991051021000751001021KA1240N+01801MA1999999091781MD1999999+0231MW1101REMSYN082AAXX  20124 83339 32149 61403 10219 20195 39178 40152 71000 85202 333 20180 58023;EQDQ01  00002PRCP99
0167833390999992001032018004-14040-042610FM-12+088299999V0201401N003612200019N0100001N1+02751+01441101221ADDAA199000091GF102991021021004501001001MA1999999091521MD1999999+0361REMSYN070AAXX  20184 83339 32497 21407 10275 20144 39152 40122 82200 333 58036;EQDQ01  00002PRCP99
0208833390999992001032100004-14040-042610FM-12+088299999V0200901N001012200019N0020001N1+02171+01431101331ADDAA199000091GA1001+999999999GF100991001001999999001001KA1240M+02901MA1999999091591MD1999999+0201REMSYN082AAXX  21004 83339 32995 00902 10217 20143 39159 40133 333 10290 29063 55094 58020;EQDQ01  00002PRCP99
0214833390999992001032112004-14040-042610FM-12+088299999V0201401N005110042019N0100001N1+02191+01921101571ADDAA199000091AY101061AY201061GF105991051021004501001001KA1240N+01921MA1999999091811MD1999999+0031MW1101REMSYN082AAXX  21124 83339 31497 51410 10219 20192 39181 40157 71000 85200 333 20192 58003;EQDQ01  00002PRCP99
0167833390999992001032118004-14040-042610FM-12+088299999V0201401N006712200019N0100001N1+02751+01611101201ADDAA199000091GF103991031021004501001001MA1999999091501MD1999999-0021REMSYN070AAXX  21184 83339 32497 31413 10275 20161 39150 40120 83200 333 59002;EQDQ01  00002PRCP99
0208833390999992001032200004-14040-042610FM-12+088299999V0201401N003612200019N0020001N1+02351+01551101261ADDAA199000091GA1001+999999999GF100991001001999999001001KA1240M+02801MA1999999091541MD1999999-0051REMSYN082AAXX  22004 83339 32995 01407 10235 20155 39154 40126 333 10280 29063 55091 59005;EQDQ01  00002PRCP99
0186833390999992001032212004-14040-042610FM-12+088299999V0201401N007712200019N0100001N1+02131+01661101421ADDAA199000091GF102991021021004501001001KA1240N+01801MA1999999091681MD1999999-0131REMSYN076AAXX  22124 83339 32497 21415 10213 20166 39168 40142 82200 333 20180 59013;EQDQ01  00002PRCP99
0167833390999992001032218004-14040-042610FM-12+088299999V0201401N002612200019N0100001N1+02651+01511100991ADDAA199000091GF103991031021004501001001MA1999999091291MD1999999-0211REMSYN070AAXX  22184 83339 32497 31405 10265 20151 39129 40099 83200 333 59021;EQDQ01  00002PRCP99
0208833390999992001032300004-14040-042610FM-12+088299999V0201401N003612200019N0020001N1+02251+01571101071ADDAA199000091GA1001+999999999GF100991001001999999001001KA1240M+02721MA1999999091351MD1999999-0191REMSYN082AAXX  23004 83339 32995 01407 10225 20157 39135 40107 333 10272 29064 55111 59019;EQDQ01  00002PRCP99
0186833390999992001032312004-14040-042610FM-12+088299999V0201401N004112200019N0100001N1+02271+01841101311ADDAA199000091GF102991021021004501001001KA1240N+01851MA1999999091581MD1999999-0101REMSYN076AAXX  23124 83339 32497 21408 10227 20184 39158 40131 82200 333 20185 59010;EQDQ01  00002PRCP99
0167833390999992001032318004-14040-042610FM-12+088299999V0201401N005712200019N0100001N1+02771+01391100841ADDAA199000091GF103991031021004501001001MA1999999091181MD1999999-0111REMSYN070AAXX  23184 83339 32497 31411 10277 20139 39118 40084 83200 333 59011;EQDQ01  00002PRCP99
0208833390999992001032400004-14040-042610FM-12+088299999V0201401N006212200019N0020001N1+02351+01621100981ADDAA199000091GA1001+999999999GF100991001001999999001001KA1240M+02831MA1999999091291MD1999999-0061REMSYN082AAXX  24004 83339 32995 01412 10235 20162 39129 40098 333 10283 29061 55112 59006;EQDQ01  00002PRCP99
0186833390999992001032412004-14040-042610FM-12+088299999V0201401N006210042019N0100001N1+02091+01701101331ADDAA199000091GF106991061021004501001001KA1240N+01921MA1999999091591MD1999999+0011REMSYN076AAXX  24124 83339 32497 61412 10209 20170 39159 40133 86200 333 20192 58001;EQDQ01  00002PRCP99
0167833390999992001032418004-14040-042610FM-12+088299999V0201401N005112200019N0100001N1+02731+01741101021ADDAA199000091GF102991021021004501001001MA1999999091341MD1999999-0161REMSYN070AAXX  24184 83339 32497 21410 10273 20174 39134 40102 82200 333 59016;EQDQ01  00002PRCP99
0198833390999992001032500004-14040-042610FM-12+088299999V0201401N003612200019N0020001N1+02251+01781101191ADDAA199000091GF102991021021004501001001KA1240M+02801MA1999999091451MD1999999-0161REMSYN088AAXX  25004 83339 32495 21407 10225 20178 39145 40119 82200 333 10280 29070 55081 59016;EQDQ01  00002PRCP99
0214833390999992001032512004-14040-042610FM-12+088299999V0201401N004110012019N0049001N1+02091+02001101461ADDAA199000091AY101061AY201061GF107991061021001501021999KA1240N+01861MA1999999091701MD1999999+0111MW1101REMSYN082AAXX  25124 83339 31249 71408 10209 20200 39170 40146 71000 8622/ 333 20186 58011;EQDQ01  00002PRCP99
0167833390999992001032518004-14040-042610FM-12+088299999V0201401N006212200019N0100001N1+02851+01601101061ADDAA199000091GF104991031021004501001041MA1999999091371MD1999999+0031REMSYN070AAXX  25184 83339 32497 41412 10285 20160 39137 40106 83204 333 58003;EQDQ01  00002PRCP99
0198833390999992001032600004-14040-042610FM-12+088299999V0201401N001510450019N0020001N1+02271+01731101211ADDAA199000091GF105991041021004501021001KA1240M+02431MA1999999091481MD1999999+0031REMSYN088AAXX  26004 83339 32495 51403 10227 20173 39148 40121 84220 333 10243 29072 55072 58003;EQDQ01  00002PRCP99
0186833390999992001032612004-14040-042610FM-12+088299999V0200901N003112200019N0100001N1+02271+01861101441ADDAA199000091GF102991021021004501001001KA1240N+01921MA1999999091701MD1999999+0001REMSYN076AAXX  26124 83339 32497 20906 10227 20186 39170 40144 82200 333 20192 58000;EQDQ01  00002PRCP99
0167833390999992001032618004-14040-042610FM-12+088299999V0201401N003112200019N0100001N1+02831+01701101011ADDAA199000091GF103991031021004501001001MA1999999091341MD1999999-0031REMSYN070AAXX  26184 83339 32497 31406 10283 20170 39134 40101 83200 333 59003;EQDQ01  00002PRCP99
0167833390999992001032718004-14040-042610FM-12+088299999V0201401N003610042019N0100001N1+02861+01621100871ADDAA199000091GF105991051021004501001001MA1999999091211MD1999999-0131REMSYN070AAXX  27184 83339 32497 51407 10286 20162 39121 40087 85200 333 59013;EQDQ01  00002PRCP99
0208833390999992001032800004-14040-042610FM-12+088299999V0201801N002112200019N9999999N1+02371+01481101031ADDAA199000091GA1001+999999999GF100991001001999999001001KA1240M+03081MA1999999091351MD1999999-0131REMSYN082AAXX  28004 83339 329// 01804 10237 20148 39135 40103 333 10308 29058 55111 59013;EQDQ01  00002PRCP99
0186833390999992001032812004-14040-042610FM-12+088299999V0201401N002110042019N0100001N1+02211+01961101341ADDAA199000091GF106991061021004501001001KA1240N+01881MA1999999091621MD1999999+0001REMSYN076AAXX  28124 83339 32497 61404 10221 20196 39162 40134 86200 333 20188 58000;EQDQ01  00002PRCP99
0167833390999992001032818004-14040-042610FM-12+088299999V0201401N005712200019N0100001N1+02931+01761100791ADDAA199000091GF103991021021004501001011MA1999999091151MD1999999-0061REMSYN070AAXX  28184 83339 32497 31411 10293 20176 39115 40079 82201 333 59006;EQDQ01  00002PRCP99
0208833390999992001032900004-14040-042610FM-12+088299999V0201401N002612200019N0020001N1+02371+01731101091ADDAA199000091GA1001+999999999GF100991001001999999001001KA1240M+03001MA1999999091391MD1999999+0041REMSYN082AAXX  29004 83339 32995 01405 10237 20173 39139 40109 333 10300 29067 55/03 58004;EQDQ01  00002PRCP99
0186833390999992001032912004-14040-042610FM-12+088299999V0201401N004110042019N0100001N1+02181+01901101501ADDAA199000091GF106991061021004501001001KA1240N+01931MA1999999091751MD1999999+0131REMSYN076AAXX  29124 83339 32497 61408 10218 20190 39175 40150 86200 333 20193 58013;EQDQ01  00002PRCP99
0167833390999992001032918004-14040-042610FM-12+088299999V0200901N004112200019N0100001N1+02711+01821101171ADDAA199000091GF102991021021004501001001MA1999999091481MD1999999+0331REMSYN070AAXX  29184 83339 32497 20908 10271 20182 39148 40117 82200 333 58033;EQDQ01  00002PRCP99
0208833390999992001033000004-14040-042610FM-12+088299999V0209999C000012200019N0020001N1+02291+01751101291ADDAA199000091GA1001+999999999GF100991001001999999001001KA1240M+02831MA1999999091581MD1999999+0191REMSYN082AAXX  30004 83339 32995 00000 10229 20175 39158 40129 333 10283 29071 55089 58019;EQDQ01  00002PRCP99
0186833390999992001033012004-14040-042610FM-12+088299999V0200901N003112200019N0100001N1+02171+01841101551ADDAA199000091GF105991041021004501001011KA1240N+01881MA1999999091791MD1999999+0041REMSYN076AAXX  30124 83339 32497 50906 10217 20184 39179 40155 84201 333 20188 58004;EQDQ01  00002PRCP99
0167833390999992001033018004-14040-042610FM-12+088299999V0201401N002112200019N0100001N1+02851+01551101111ADDAA199000091GF102991021011004501001001MA1999999091441MD1999999-0041REMSYN070AAXX  30184 83339 32497 21404 10285 20155 39144 40111 82100 333 59004;EQDQ01  00002PRCP99
0208833390999992001033100004-14040-042610FM-12+088299999V0201401N001012200019N0020001N1+02261+01471101221ADDAA199000091GA1001+999999999GF100991001001999999001001KA1240M+02881MA1999999091491MD1999999-0091REMSYN082AAXX  31004 83339 32995 01402 10226 20147 39149 40122 333 10288 29062 55111 59009;EQDQ01  00002PRCP99
0186833390999992001033112004-14040-042610FM-12+088299999V0201401N004110042019N0100001N1+02171+01941101441ADDAA199000091GF106991061021004501001001KA1240N+02001MA1999999091691MD1999999-0101REMSYN076AAXX  31124 83339 32497 61408 10217 20194 39169 40144 86200 333 20200 59010;EQDQ01  00002PRCP99
0167833390999992001033118004-14040-042610FM-12+088299999V0201401N004112200019N0100001N1+02741+01781100971ADDAA199000091GF104991041021004501001001MA1999999091301MD1999999-0141REMSYN070AAXX  31184 83339 32497 41408 10274 20178 39130 40097 84200 333 59014;EQDQ01  00002PRCP99
0198833390999992001040100004-14040-042610FM-12+088299999V0201401N006712200019N0100001N1+02371+01711101171ADDAA199000091GF102991021011004501001001KA1240M+02821MA1999999091451MD1999999-0041REMSYN088AAXX  01004 83339 32497 21413 10237 20171 39145 40117 82100 333 10282 29068 55072 59004;EQDQ01  00002PRCP99
0186833390999992001040112004-14040-042610FM-12+088299999V0200501N005110042019N0100001N1+02181+01721101451ADDAA199000091GF106991061021004501001001KA1240N+01861MA1999999091711MD1999999+0021REMSYN076AAXX  01124 83339 32497 60510 10218 20172 39171 40145 86200 333 20186 58002;EQDQ01  00002PRCP99
0167833390999992001040118004-14040-042610FM-12+088299999V0201401N005112200019N0100001N1+02731+01701101101ADDAA199000091GF104991041021004501001001MA1999999091401MD1999999+0101REMSYN070AAXX  01184 83339 32497 41410 10273 20170 39140 40110 84200 333 58010;EQDQ01  00002PRCP99
0208833390999992001040200004-14040-042610FM-12+088299999V0201401N005112200019N0020001N1+02351+01641101141ADDAA199000091GA1001+999999999GF100991001001999999001001KA1240M+02781MA1999999091431MD1999999-0021REMSYN082AAXX  02004 83339 32995 01410 10235 20164 39143 40114 333 10278 29078 55107 59002;EQDQ01  00002PRCP99
0214833390999992001040212004-14040-042610FM-12+088299999V0201401N004110042019N0040001N1+02051+01921101441ADDAA199000091AY101061AY201061GF108991081051004501999999KA1240N+01921MA1999999091691MD1999999-0021MW1101REMSYN082AAXX  02124 83339 31496 81408 10205 20192 39169 40144 71000 885// 333 20192 59002;EQDQ01  00002PRCP99
0167833390999992001040218004-14040-042610FM-12+088299999V0201401N003612200019N0100001N1+02711+01781101201ADDAA199000091GF102991021021004501001001MA1999999091501MD1999999+0101REMSYN070AAXX  02184 83339 32497 21407 10271 20178 39150 40120 82200 333 58010;EQDQ01  00002PRCP99
0198833390999992001040300004-14040-042610FM-12+088299999V0201401N004112200019N0020001N1+02351+01761101321ADDAA199000091GF102991021021004501001001KA1240M+02771MA1999999091581MD1999999+0151REMSYN088AAXX  03004 83339 32495 21408 10235 20176 39158 40132 82200 333 10277 29070 55066 58015;EQDQ01  00002PRCP99
0214833390999992001040312004-14040-042610FM-12+088299999V0200901N003610042019N0100001N1+02071+01401101441ADDAA199000091AY101061AY201061GF106991061021004501001001KA1240N+01901MA1999999091691MD1999999+0001MW1101REMSYN082AAXX  03124 83339 31497 60907 10207 2014/ 39169 40144 71000 86200 333 20190 58000;EQDQ01  00002PRCP99
0167833390999992001040318004-14040-042610FM-12+088299999V0200501N003112200019N0100001N1+02691+01701101121ADDAA199000091GF103991031021004501001001MA1999999091431MD1999999-0071REMSYN070AAXX  03184 83339 32497 30506 10269 20170 39143 40112 83200 333 59007;EQDQ01  00002PRCP99
0208833390999992001040400004-14040-042610FM-12+088299999V0209999C000012200019N0020001N1+02251+01671101311ADDAA199000091GA1001+999999999GF100991001001999999001001KA1240M+02821MA1999999091561MD1999999-0021REMSYN082AAXX  04004 83339 32995 00000 10225 20167 39156 40131 333 10282 29072 55066 59002;EQDQ01  00002PRCP99
0214833390999992001040412004-14040-042610FM-12+088299999V0200501N005710042019N0100001N1+02211+01881101331ADDAA199000091AY101061AY201061GF106991061021004501001001KA1240N+01951MA1999999091601MD1999999-0091MW1101REMSYN082AAXX  04124 83339 31497 60511 10221 20188 39160 40133 71000 86200 333 20195 59009;EQDQ01  00002PRCP99
0167833390999992001040418004-14040-042610FM-12+088299999V0201401N006212200019N0100001N1+02811+01501101001ADDAA199000091GF104991031021004501001041MA1999999091331MD1999999-0101REMSYN070AAXX  04184 83339 32497 41412 10281 20150 39133 40100 83204 333 59010;EQDQ01  00002PRCP99
0208833390999992001040500004-14040-042610FM-12+088299999V0201401N005112200019N0020001N1+02411+01501101191ADDAA199000091GA1001+999999999GF100991001001999999001001KA1240M+02871MA1999999091481MD1999999-0081REMSYN082AAXX  05004 83339 32995 01410 10241 20150 39148 40119 333 10287 29060 55090 59008;EQDQ01  00002PRCP99
0186833390999992001040512004-14040-042610FM-12+088299999V0200501N006210042019N0100001N1+02171+01721101471ADDAA199000091GF106991061021004501001001KA1240N+01941MA1999999091741MD1999999+0141REMSYN076AAXX  05124 83339 32497 60512 10217 20172 39174 40147 86200 333 20194 58014;EQDQ01  00002PRCP99
0167833390999992001040518004-14040-042610FM-12+088299999V0200501N004112200019N0100001N1+02871+01411101111ADDAA199000091GF102991021021004501001001MA1999999091441MD1999999+0111REMSYN070AAXX  05184 83339 32497 20508 10287 20141 39144 40111 82200 333 58011;EQDQ01  00002PRCP99
0198833390999992001040600004-14040-042610FM-12+088299999V0200901N003612200019N0020001N1+02331+01741101351ADDAA199000091GF102991011021004501031001KA1240M+03291MA1999999091621MD1999999+0141REMSYN088AAXX  06004 83339 32495 20907 10233 20174 39162 40135 81230 333 10329 29063 55105 58014;EQDQ01  00002PRCP99
0167833390999992001040618004-14040-042610FM-12+088299999V0201401N004612200019N0100001N1+02751+01481101231ADDAA199000091GF104991041021004501001001MA1999999091531MD1999999+0091REMSYN070AAXX  06184 83339 32497 41409 10275 20148 39153 40123 84200 333 58009;EQDQ01  00002PRCP99
0198833390999992001040700004-14040-042610FM-12+088299999V0200901N002110042019N0020001N1+02311+01791101461ADDAA199000091GF106991061021004501001001KA1240M+02861MA1999999091701MD1999999+0021REMSYN088AAXX  07004 83339 32495 60904 10231 20179 39170 40146 86200 333 10286 29070 55066 58002;EQDQ01  00002PRCP99
0214833390999992001040712004-14040-042610FM-12+088299999V0201401N004110042019N0100001N1+02091+01821101621ADDAA199000091AY101061AY201061GF106991061021004501001001KA1240N+01901MA1999999091851MD1999999-0041MW1101REMSYN082AAXX  07124 83339 31497 61408 10209 20182 39185 40162 71000 86200 333 20190 59004;EQDQ01  00002PRCP99
0167833390999992001040718004-14040-042610FM-12+088299999V0201401N007212200019N0100001N1+02751+01441101241ADDAA199000091GF103991031021004501001001MA1999999091541MD1999999+0011REMSYN070AAXX  07184 83339 32497 31414 10275 20144 39154 40124 83200 333 58001;EQDQ01  00002PRCP99
0198833390999992001040800004-14040-042610FM-12+088299999V0201401N003610042019N0020001N1+02351+01471101401ADDAA199000091GF106991061021004501001001KA1240M+02821MA1999999091651MD1999999-0051REMSYN088AAXX  08004 83339 32495 61407 10235 20147 39165 40140 86200 333 10282 29060 55083 59005;EQDQ01  00002PRCP99
0186833390999992001040812004-14040-042610FM-12+088299999V0200501N005710042019N0100001N1+02071+01661101471ADDAA199000091GF106991061021004501001001KA1240N+01821MA1999999091721MD1999999-0131REMSYN076AAXX  08124 83339 32497 60511 10207 20166 39172 40147 86200 333 20182 59013;EQDQ01  00002PRCP99
0167833390999992001040818004-14040-042610FM-12+088299999V0200501N004612200019N0100001N1+02731+01241101081ADDAA199000091GF104991041021004501001001MA1999999091391MD1999999-0151REMSYN070AAXX  08184 83339 32497 40509 10273 20124 39139 40108 84200 333 59015;EQDQ01  00002PRCP99
0186833390999992001040912004-14040-042610FM-12+088299999V0201401N005110042019N0100001N1+02151+01831101371ADDAA199000091GF105991051021004501001001KA1240N+01841MA1999999091631MD1999999-0091REMSYN076AAXX  09124 83339 32497 51410 10215 20183 39163 40137 85200 333 20184 59009;EQDQ01  00002PRCP99
0167833390999992001040918004-14040-042610FM-12+088299999V0201401N004612200019N0100001N1+02771+01481100881ADDAA199000091GF106991041021004501001011MA1999999091211MD1999999-0181REMSYN070AAXX  09184 83339 32497 61409 10277 20148 39121 40088 84201 333 59018;EQDQ01  00002PRCP99
0198833390999992001041000004-14040-042610FM-12+088299999V0201401N001512200019N0020001N1+02311+01501101121ADDAA199000091GF102991021011004501001001KA1240M+02831MA1999999091411MD1999999-0141REMSYN088AAXX  10004 83339 32495 21403 10231 20150 39141 40112 82100 333 10283 29062 55099 59014;EQDQ01  00002PRCP99
0196833390999992001041012004-14040-042610FM-12+088299999V0200901N005112200019N0100001N1+02291+01681101361ADDAA199000091GA1001+999999999GF100991001001999999001001KA1240N+01871MA1999999091641MD1999999+0011REMSYN070AAXX  10124 83339 31997 00910 10229 20168 39164 40136 333 20187 58001;EQDQ01  00002PRCP99
0167833390999992001041018004-14040-042610FM-12+088299999V0201401N003612200019N0100001N1+02891+01361100911ADDAA199000091GF102991021011004501001001MA1999999091271MD1999999+0061REMSYN070AAXX  10184 83339 32497 21407 10289 20136 39127 40091 82100 333 58006;EQDQ01  00002PRCP99
0208833390999992001041100004-14040-042610FM-12+088299999V0209999C000012200019N0020001N1+02301+01171101181ADDAA199000091GA1001+999999999GF100991001001999999001001KA1240M+02961MA1999999091471MD1999999+0061REMSYN082AAXX  11004 83339 32995 00000 10230 20117 39147 40118 333 10296 29051 55110 58006;EQDQ01  00002PRCP99
0186833390999992001041112004-14040-042610FM-12+088299999V0200901N006012200019N0100001N1+02261+01641101451ADDAA199000091GF104991011011004501001011KA1240N+01631MA1999999091721MD1999999+0081REMSYN076AAXX  11120 83339 32497 40906 10226 20164 39172 40145 81101 333 20163 58008;EQDQ01  00002PRCP99
0183833390999992001041118004-14040-042610FM-12+088299999V0200501N004112200019N0100001N1+02891+01201101071ADDAA199000091GF102991001001999999001011MA1999999091391MD1999999+0121REMSYN070AAXX  11184 83339 32897 20508 10289 20120 39139 40107 80001 333 58012;EQDQ01+022502SCOLCBQ02  00002PRCP99
0208833390999992001041200004-14040-042610FM-12+088299999V0209999C000012200019N0020001N1+02331+01181101231ADDAA199000091GA1001+999999999GF100991001001999999001001KA1240M+02961MA1999999091521MD1999999+0051REMSYN082AAXX  12004 83339 32995 00000 10233 20118 39152 40123 333 10296 29050 55107 58005;EQDQ01  00002PRCP99
0196833390999992001041212004-14040-042610FM-12+088299999V0200901N003112200019N0100001N1+02391+01771101371ADDAA199000091GA1001+999999999GF100991001001999999001001KA1240N+01721MA1999999091651MD1999999-0071REMSYN070AAXX  12124 83339 32997 00906 10239 20177 39165 40137 333 20172 59007;EQDQ01  00002PRCP99
0167833390999992001041218004-14040-042610FM-12+088299999V0201401N005112200019N0100001N1+03031+01091100991ADDAA199000091GF102991021011004501001001MA1999999091351MD1999999-0041REMSYN070AAXX  12184 83339 32497 21410 10303 20109 39135 40099 82100 333 59004;EQDQ01  00002PRCP99
0208833390999992001041300004-14040-042610FM-12+088299999V0201801N001512200019N0100001N1+02371+01211101121ADDAA199000091GA1001+999999999GF100991001001999999001001KA1240M+03071MA1999999091441MD1999999-0081REMSYN082AAXX  13004 83339 32997 01803 10237 20121 39144 40112 333 10307 29048 55110 59008;EQDQ01  00002PRCP99
0186833390999992001041312004-14040-042610FM-12+088299999V0201401N006712200019N0100001N1+02231+01671101291ADDAA199000091GF102991021011004501001001KA1240N+01901MA1999999091571MD1999999-0081REMSYN076AAXX  13124 83339 32497 21413 10223 20167 39157 40129 82100 333 20190 59008;EQDQ01  00002PRCP99
0167833390999992001041318004-14040-042610FM-12+088299999V0200901N005112200019N0100001N1+02831+01501100941ADDAA199000091GF103991031021004501001001MA1999999091271MD1999999-0081REMSYN070AAXX  13184 83339 32497 30910 10283 20150 39127 40094 83200 333 59008;EQDQ01  00002PRCP99
0198833390999992001041400004-14040-042610FM-12+088299999V0201401N005712200019N0020001N1+02431+01361101051ADDAA199000091GF102991021011004501001001KA1240M+02881MA1999999091361MD1999999-0081REMSYN088AAXX  14004 83339 32495 21411 10243 20136 39136 40105 82100 333 10288 29054 55110 59008;EQDQ01  00002PRCP99
0186833390999992001041412004-14040-042610FM-12+088299999V0200901N013010042019N0100001N1+02151+01761101311ADDAA199000091GF105991051021004501001001KA1240N+01941MA1999999091591MD1999999+0021REMSYN076AAXX  14121 83339 32497 50913 10215 20176 39159 40131 85200 333 20194 58002;EQDQ01  00002PRCP99
0167833390999992001041418004-14040-042610FM-12+088299999V0200901N004112200019N0100001N1+02771+01551100931ADDAA199000091GF103991031021004501001001MA1999999091251MD1999999-0021REMSYN070AAXX  14184 83339 32497 30908 10277 20155 39125 40093 83200 333 59002;EQDQ01  00002PRCP99
0189833390999992001041500004-14040-042610FM-12+088299999V0201401N000512200019N0020001N1+02131+01781101231ADDAA199000091GA1001+999999999GF100991001001999999001001MA1999999091491MD1999999+0131REMSYN076AAXX  15004 83339 32995 01401 10213 20178 39149 40123 333 29071 55084 58013;EQDQ01  00002PRCP99
0201833390999992001041512004-14040-042610FM-12+088299999V0201401N003110450019N0010001N1+01891+01821101631ADDAA124013091AY161061AY221061GF108991041021004501021999KA1240N+01801MA1999999091821MD1999999+0231MW1401REMSYN088AAXX  15124 83339 21494 81406 10189 20182 39182 40163 74062 8422/ 333 20180 58023 60134;
0195833390999992001041518004-14040-042610FM-12+088299999V0201801N003110042019N0100001N1+02291+01851101261ADDAA199000091AY141061AY221061GF108991051021004501021999MA1999999091511MD1999999+0261MW1171REMSYN076AAXX  15184 83339 31497 81806 10229 20185 39151 40126 71742 8522/ 333 58026;EQDQ01  00002PRCP99
0213833390999992001041600004-14040-042610FM-12+088299999V0201401N006710450019N0020001N1+02041+01831101551ADDAA106000891AY191061AY261061GF106991041021004501021001KA1240M+02441MA1999999091741MD1999999+0251MW1021REMSYN100AAXX  16004 83339 21495 61413 10204 20183 39174 40155 70296 84220 333 10244 29085 55007 58025 69981;
0201833390999992001041612004-14040-042610FM-12+088299999V0201401N005110042019N0100001N1+02051+01801101661ADDAA124000891AY161061AY261061GF106991061021004501001001KA1240N+01861MA1999999091851MD1999999+0031MW1101REMSYN088AAXX  16124 83339 21497 61410 10205 20180 39185 40166 71066 86200 333 20186 58003 69984;
0167833390999992001041618004-14040-042610FM-12+088299999V0200501N005712200019N0100001N1+02671+01301101281ADDAA199000091GF105991041021004501001041MA1999999091561MD1999999+0051REMSYN070AAXX  16184 83339 32497 50511 10267 20130 39156 40128 84204 333 58005;EQDQ01  00002PRCP99
0198833390999992001041700004-14040-042610FM-12+088299999V0200901N004612200019N0020001N1+02371+01591101491ADDAA199000091GF102991021021004501001001KA1240M+02731MA1999999091741MD1999999+0001REMSYN088AAXX  17004 83339 32495 20909 10237 20159 39174 40149 82200 333 10273 29064 55089 58000;EQDQ01  00002PRCP99
0214833390999992001041712004-14040-042610FM-12+088299999V0201401N004610042019N0040001N1+02131+01861101571ADDAA199000091AY101061AY201061GF106991051021004501021999KA1240N+01881MA1999999091821MD1999999-0031MW1101REMSYN082AAXX  17124 83339 31496 61409 10213 20186 39182 40157 71000 8522/ 333 20188 59003;EQDQ01  00002PRCP99
0167833390999992001041718004-14040-042610FM-12+088299999V0201401N002612200019N0100001N1+02651+01661101221ADDAA199000091GF104991031021004501021001MA1999999091511MD1999999-0051REMSYN070AAXX  17184 83339 32497 41405 10265 20166 39151 40122 83220 333 59005;EQDQ01  00002PRCP99
0198833390999992001041800004-14040-042610FM-12+088299999V0201401N006210042019N0020001N1+02271+01771101371ADDAA199000091GF105991051021004501001001KA1240M+02801MA1999999091631MD1999999-0111REMSYN088AAXX  18004 83339 32495 51412 10227 20177 39163 40137 85200 333 10280 29071 55082 59011;EQDQ01  00002PRCP99
0214833390999992001041812004-14040-042610FM-12+088299999V0201401N003110042019N0040001N1+02011+01951101461ADDAA199000091AY101061AY201061GF108991081051004501999999KA1240N+01941MA1999999091701MD1999999-0121MW1101REMSYN082AAXX  18124 83339 31496 81406 10201 20195 39170 40146 71000 885// 333 20194 59012;EQDQ01  00002PRCP99
0167833390999992001041818004-14040-042610FM-12+088299999V0201401N003112200019N0100001N1+02651+01601100971ADDAA199000091GF103991031021004501001001MA1999999091281MD1999999-0231REMSYN070AAXX  18184 83339 32497 31406 10265 20160 39128 40097 83200 333 59023;EQDQ01  00002PRCP99
0198833390999992001041900004-14040-042610FM-12+088299999V0201401N007212200019N0020001N1+02351+01331101221ADDAA199000091GF102991021021004501001001KA1240M+02761MA1999999091491MD1999999-0141REMSYN088AAXX  19004 83339 32495 21414 10235 20133 39149 40122 82200 333 10276 29064 55056 59014;EQDQ01  00002PRCP99
0214833390999992001041912004-14040-042610FM-12+088299999V0201401N004610042019N0100001N1+02031+01801101411ADDAA199000091AY101061AY201061GF106991061021004501001001KA1240N+01841MA1999999091661MD1999999-0041MW1101REMSYN082AAXX  19124 83339 31497 61409 10203 20180 39166 40141 71000 86200 333 20184 59004;EQDQ01  00002PRCP99
0167833390999992001041918004-14040-042610FM-12+088299999V0200501N002112200019N0100001N1+02751+01341100941ADDAA199000091GF104991041021004501001001MA1999999091271MD1999999-0011REMSYN070AAXX  19184 83339 32497 40504 10275 20134 39127 40094 84200 333 59001;EQDQ01  00002PRCP99
0208833390999992001042000004-14040-042610FM-12+088299999V0200901N000512200019N0020001N1+02231+01481101121ADDAA199000091GA1001+999999999GF100991001001999999001001KA1240M+02841MA1999999091391MD1999999-0101REMSYN082AAXX  20004 83339 32995 00901 10223 20148 39139 40112 333 10284 29063 55077 59010;EQDQ01  00002PRCP99
0214833390999992001042012004-14040-042610FM-12+088299999V0201401N001510042019N0100001N1+02051+01801101481ADDAA199000091AY101061AY201061GF106991061021004501001001KA1240N+01801MA1999999091721MD1999999+0061MW1101REMSYN082AAXX  20124 83339 31497 61403 10205 20180 39172 40148 71000 86200 333 20180 58006;EQDQ01  00002PRCP99
0167833390999992001042018004-14040-042610FM-12+088299999V0200501N001510450019N0100001N1+02711+01301101021ADDAA199000091GF105991041021004501021001MA1999999091341MD1999999+0071REMSYN070AAXX  20184 83339 32497 50503 10271 20130 39134 40102 84220 333 58007;EQDQ01  00002PRCP99
0198833390999992001042100004-14040-042610FM-12+088299999V0202701N001512200019N0020001N1+02171+01631101241ADDAA199000091GF102991021021004501001001KA1240M+02881MA1999999091491MD1999999+0101REMSYN088AAXX  21004 83339 32495 22703 10217 20163 39149 40124 82200 333 10288 29068 55049 58010;EQDQ01  00002PRCP99
0196833390999992001042112004-14040-042610FM-12+088299999V0200501N002112200019N0100001N1+02351+01871999999ADDAA199000091GF102991001001999999001021KA1240N+02011MA1999999091731MD1999999+0101REMSYN070AAXX  21124 83339 32497 20504 10235 20187 39173 80002 333 20201 58010;EQDQ01+004502SCOLCBQ02  00002PRCP99
0167833390999992001042118004-14040-042610FM-12+088299999V0201401N002112200019N0100001N1+02991+00931101011ADDAA199000091GF102991011021004501001021MA1999999091361MD1999999+0021REMSYN070AAXX  21184 83339 32497 21404 10299 20093 39136 40101 81202 333 58002;EQDQ01  00002PRCP99
0208833390999992001042200004-14040-042610FM-12+088299999V0200901N000512200019N0020001N1+02411+01291101171ADDAA199000091GA1001+999999999GF100991001001999999001001KA1240M+03091MA1999999091481MD1999999-0011REMSYN082AAXX  22004 83339 32995 00901 10241 20129 39148 40117 333 10309 29050 55093 59001;EQDQ01  00002PRCP99
0186833390999992001042212004-14040-042610FM-12+088299999V0201401N003612200019N0100001N1+02291+01831101371ADDAA199000091GF102991021021004501001001KA1240N+01801MA1999999091651MD1999999-0121REMSYN076AAXX  22124 83339 32497 21407 10229 20183 39165 40137 82200 333 20180 59012;EQDQ01  00002PRCP99
0167833390999992001042218004-14040-042610FM-12+088299999V0201401N004612200019N0100001N1+02911+01021100921ADDAA199000091GF102991021021004501001001MA1999999091251MD1999999-0111REMSYN070AAXX  22184 83339 32497 21409 10291 20102 39125 40092 82200 333 59011;EQDQ01  00002PRCP99
0208833390999992001042300004-14040-042610FM-12+088299999V0200901N003112200019N0020001N1+02391+01481101151ADDAA199000091GA1001+999999999GF100991001001999999001001KA1240M+02981MA1999999091451MD1999999-0031REMSYN082AAXX  23004 83339 32995 00906 10239 20148 39145 40115 333 10298 29055 55108 59003;EQDQ01  00002PRCP99
0186833390999992001042312004-14040-042610FM-12+088299999V0200901N006712200019N0100001N1+02261+01711101571ADDAA199000091GF103991031021004501001001KA1240N+01921MA1999999091831MD1999999+0181REMSYN076AAXX  23124 83339 32497 30913 10226 20171 39183 40157 83200 333 20192 58018;EQDQ01  00002PRCP99
0167833390999992001042318004-14040-042610FM-12+088299999V0200901N005712200019N0100001N1+02791+01501101161ADDAA199000091GF103991031021004501001001MA1999999091461MD1999999+0211REMSYN070AAXX  23184 83339 32497 30911 10279 20150 39146 40116 83200 333 58021;EQDQ01  00002PRCP99
0208833390999992001042400004-14040-042610FM-12+088299999V0201401N006212200019N0020001N1+02371+01361101351ADDAA199000091GA1001+999999999GF100991001001999999001001KA1240M+02861MA1999999091631MD1999999+0181REMSYN082AAXX  24004 83339 32995 01412 10237 20136 39163 40135 333 10286 29056 55109 58018;EQDQ01  00002PRCP99
0186833390999992001042412004-14040-042610FM-12+088299999V0200901N005710042019N0100001N1+02051+01661101681ADDAA199000091GF106991061021004501001001KA1240N+01801MA1999999091911MD1999999+0081REMSYN076AAXX  24124 83339 32497 60911 10205 20166 39191 40168 86200 333 20180 58008;EQDQ01  00002PRCP99
0167833390999992001042418004-14040-042610FM-12+088299999V0201401N006712200019N0100001N1+02651+01681101321ADDAA199000091GF104991041021004501001001MA1999999091591MD1999999+0131REMSYN070AAXX  24184 83339 32497 41413 10265 20168 39159 40132 84200 333 58013;EQDQ01  00002PRCP99
0213833390999992001042500004-14040-042610FM-12+088299999V0201401N004110042019N0100001N1+01971+01831101641ADDAA106003091AY161061AY221061GF106991061021004501001001KA1240M+02721MA1999999091831MD1999999+0201MW1021REMSYN100AAXX  25004 83339 21497 61408 10197 20183 39183 40164 70262 86200 333 10272 29079 55084 58020 60031;
0201833390999992001042512004-14040-042610FM-12+088299999V0200901N005112200019N0100001N1+01911+01701101861ADDAA124003091AY161061AY221061GF104991041021004501001001KA1240N+01671MA1999999092021MD1999999+0111MW1021REMSYN088AAXX  25124 83339 21497 40910 10191 20170 39202 40186 70262 84200 333 20167 58011 60034;
0167833390999992001042518004-14040-042610FM-12+088299999V0200501N003112200019N0100001N1+02581+01551101441ADDAA199000091GF106991041021004501001041MA1999999091681MD1999999+0091REMSYN070AAXX  25184 83339 32497 60506 10258 20155 39168 40144 84204 333 58009;EQDQ01  00002PRCP99
0198833390999992001042600004-14040-042610FM-12+088299999V0200901N002112200019N0020001N1+02241+01481101681ADDAA199000091GF103991031021004501001001KA1240M+02641MA1999999091871MD1999999+0041REMSYN088AAXX  26004 83339 32495 30904 10224 20148 39187 40168 83200 333 10264 29066 55056 58004;EQDQ01  00002PRCP99
0186833390999992001042612004-14040-042610FM-12+088299999V0200901N006710042019N0100001N1+02151+01721101701ADDAA199000091GF105991051021004501001001KA1240N+01851MA1999999091931MD1999999-0091REMSYN076AAXX  26124 83339 32497 50913 10215 20172 39193 40170 85200 333 20185 59009;EQDQ01  00002PRCP99
0167833390999992001042618004-14040-042610FM-12+088299999V0200901N007712200019N0100001N1+02531+01631101331ADDAA199000091GF105991031021004501001011MA1999999091591MD1999999-0091REMSYN070AAXX  26184 83339 32497 50915 10253 20163 39159 40133 83201 333 59009;EQDQ01  00002PRCP99
0208833390999992001042700004-14040-042610FM-12+088299999V0201401N005112200019N0020001N1+02151+01321101501ADDAA199000091GA1001+999999999GF100991001001999999001001KA1240M+02681MA1999999091741MD1999999-0131REMSYN082AAXX  27004 83339 32495 01410 10215 20132 39174 40150 333 10268 29063 55080 59013;EQDQ01  00002PRCP99
0186833390999992001042712004-14040-042610FM-12+088299999V0200901N004112200019N0100001N1+02011+01621101721ADDAA199000091GF103991031021004501001001KA1240N+01671MA1999999091931MD1999999+0001REMSYN076AAXX  27124 83339 32497 30908 10201 20162 39193 40172 83200 333 20167 58000;EQDQ01  00002PRCP99
0186833390999992001042812004-14040-042610FM-12+088299999V0200901N008210042019N0100001N1+01931+01621101741ADDAA199000091GF106991061021004501001001KA1240N+01771MA1999999091931MD1999999+0001REMSYN076AAXX  28124 83339 32497 60916 10193 20162 39193 40174 86200 333 20177 58000;EQDQ01  00002PRCP99
0167833390999992001042818004-14040-042610FM-12+088299999V0200901N006712200019N0100001N1+02591+01571101321ADDAA199000091GF102991021021004501001001MA1999999091591MD1999999+0051REMSYN070AAXX  28184 83339 32497 20913 10259 20157 39159 40132 82200 333 58005;EQDQ01  00002PRCP99
0186833390999992001042912004-14040-042610FM-12+088299999V0201401N005712200019N0100001N1+02051+01701101691ADDAA199000091GF103991031021004501001001KA1240N+01751MA1999999091901MD1999999-0031REMSYN076AAXX  29124 83339 32497 31411 10205 20170 39190 40169 83200 333 20175 59003;EQDQ01  00002PRCP99
0167833390999992001042918004-14040-042610FM-12+088299999V0201401N005112200019N0100001N1+02731+01411101261ADDAA199000091GF102991021011004501001001MA1999999091541MD1999999-0051REMSYN070AAXX  29184 83339 32497 21410 10273 20141 39154 40126 82100 333 59005;EQDQ01  00002PRCP99
0198833390999992001043000004-14040-042610FM-12+088299999V0200901N005112200019N0020001N1+02311+01501101471ADDAA199000091GF103991031021004501001001KA1240M+02761MA1999999091721MD1999999-0041REMSYN088AAXX  30004 83339 32495 30910 10231 20150 39172 40147 83200 333 10276 29061 55102 59004;EQDQ01  00002PRCP99
0214833390999992001043012004-14040-042610FM-12+088299999V0200501N005710042019N0100001N1+01931+01681101611ADDAA199000091AY101061AY201061GF106991061021004501001001KA1240N+01801MA1999999091831MD1999999-0071MW1101REMSYN082AAXX  30124 83339 31497 60511 10193 20168 39183 40161 71000 86200 333 20180 59007;EQDQ01  00002PRCP99
