0115822800999991998010212004-02533-044283FM-12+005199999V0209999999999045001CN0200001N1+02881+02321101191ADDAA106000091AG10000GF106991041021004501051001KA1240N+02521MA1999999100611MD1999999+0001REMSYN017 333 20252 58000;
0096822800999991998010218004-02533-044283FM-12+005199999V0209999999999105001CN0200001N1+03161+02341100881ADDAA106000091AG10000GF106991041021004501001021MA1999999100301MD1999999-0041REMSYN011 333 59004;
0115822800999991998010300004-02533-044283FM-12+005199999V0209999999999220001CN0200001N1+02641+02331101031ADDAA106000091AG10000GF102991021021004501001001KA1240M+03181MA1999999100451MD1999999-0151REMSYN017 333 10318 59015;
0115822800999991998010312004-02533-044283FM-12+005199999V0209999999999045001CN0200001N1+02901+02341101051ADDAA106000091AG10000GF106991041021004501051021KA1240N+02501MA1999999100471MD1999999-0141REMSYN017 333 20250 59014;
0143822800999991998010412004-02533-044283FM-12+005199999V0209999999999220001CN0200001N1+02921+02411101081ADDAA124007091AG10006AY161061AY211061GF104991031021004501041001KA1240N+02481MA1999999100501MD1999999+0031MW1021REMSYN023 333 20248 58003 60074;
0096822800999991998010418004-02533-044283FM-12+005199999V0209999999999220001CN0200001N1+03181+02471100781ADDAA106000091AG10000GF104991031021004501031001MA1999999100201MD1999999-0061REMSYN011 333 59006;
0115822800999991998010512004-02533-044283FM-12+005199999V0209999999999220001CN0200001N1+02981+02331100951ADDAA106000091AG10000GF104991041021004501001001KA1240N+02541MA1999999100371MD1999999-0131REMSYN017 333 20254 59013;
0115822800999991998010612004-02533-044283FM-12+005199999V0209999999999220001CN0200001N1+02981+02441101021ADDAA106000091AG10000GF104991041021004501001001KA1240N+02401MA1999999100441MD1999999+0071REMSYN017 333 20240 58007;
0096822800999991998010618004-02533-044283FM-12+005199999V0209999999999220001CN0200001N1+03161+02371100681ADDAA106000091AG10000GF102991021021004501001001MA1999999100101MD1999999-0041REMSYN011 333 59004;
0115822800999991998010712004-02533-044283FM-12+005199999V0209999999999045001CN0200001N1+02961+02401101011ADDAA106000091AG10000GF105991041021004501031001KA1240N+02531MA1999999100431MD1999999-0011REMSYN017 333 20253 59001;
0096822800999991998010818004-02533-044283FM-12+005199999V0209999999999004201CN0200001N1+02861+02371100881ADDAA106000091AG10000GF108991051061004501021999MA1999999100301MD1999999+0131REMSYN011 333 58013;
0115822800999991998010912004-02533-044283FM-12+005199999V0209999999999045001CN0200001N1+02841+02421101151ADDAA106000091AG10000GF106991041021004501031001KA1240N+02501MA1999999100571MD1999999+0091REMSYN017 333 20250 58009;
0096822800999991998010918004-02533-044283FM-12+005199999V0209999999999004201CN0200001N1+02861+02481100851ADDAA106000091AG10000GF108991051051004501031001MA1999999100271MD1999999+0031REMSYN011 333 58003;
0143822800999991998011012004-02533-044283FM-12+005199999V0209999999999045001CN0200001N1+02921+02341101141ADDAA124009091AG10006AY161061AY221061GF106991041021004501031001KA1240N+02491MA1999999100561MD1999999-0011MW1011REMSYN023 333 20249 59001 60094;
0096822800999991998011018004-02533-044283FM-12+005199999V0209999999999045001CN0200001N1+03001+02461100901ADDAA106000091AG10000GF106991041021004501051001MA1999999100321MD1999999+0051REMSYN011 333 58005;
0121822800999991998011112004-02533-044283FM-12+005199999V0209999999999045001CN0200001N1+02881+02481101151ADDAA124006091AG10006GF106991041021004501031001KA1240N+02451MA1999999100571MD1999999+0011REMSYN023 333 20245 58001 60064;
0121822800999991998011212004-02533-044283FM-12+005199999V0209999999999045001CN0200001N1+02761+02431101061ADDAA124000391AG10000GF106991041021004501031001KA1240N+02301MA1999999100481MD1999999-0091REMSYN023 333 20230 59009 69934;
0096822800999991998011218004-02533-044283FM-12+005199999V0209999999999004201CN0200001N1+02961+02471101001ADDAA106000091AG10000GF108991051021004501051999MA1999999100421MD1999999+0161REMSYN011 333 58016;
0143822800999991998011300004-02533-044283FM-12+005199999V0209999999999004201CN0200001N1+02521+02361101081ADDAA106001091AG10006AY161061AY221061GF108991051061004501031999KA1240M+03181MA1999999100501MD1999999-0091MW1161REMSYN023 333 10318 59009 69971;
0143822800999991998011312004-02533-044283FM-12+005199999V0209999999999045001CN0200001N1+02901+02391101141ADDAA124004091AG10006AY161061AY221061GF108991041021004501031999KA1240N+02511MA1999999100561MD1999999+0081MW1021REMSYN023 333 20251 58008 60044;
0121822800999991998011412004-02533-044283FM-12+005199999V0209999999999045001CN0200001N1+02921+02501100991ADDAA124004091AG10000GF106991041021004501051001KA1240N+02491MA1999999100411MD1999999-0151REMSYN023 333 20249 59015 60044;
0096822800999991998011418004-02533-044283FM-12+005199999V0209999999999045001CN0200001N1+03041+02431100761ADDAA106000091AG10000GF105991041021004501051001MA1999999100181MD1999999-0121REMSYN011 333 59012;
0121822800999991998011512004-02533-044283FM-12+005199999V02099999999999999999N0200001N1+99999+99999091951ADDAA124003091AG10000AY121061GF106991999999004501999999MA1999999099461REMSYN023 333 29259 57995 60034;EQDQ01+000552PRSWM1
0143822800999991998011518004-02533-044283FM-12+005199999V0209999999999004201CN0200001N1+02661+02391100712ADDAA106006091AG10006AY161061AY221061GF106991061051004501031999MA1999999100131MD1999999-0031MW1011REMSYN017 333 59003 60061;EQDQ01+100713APOSLP
0121822800999991998011612004-02533-044283FM-12+005199999V0209999999999045001CN0200001N1+02881+02561101031ADDAA124006091AG10000GF106991031021004501031001KA1240N+02541MA1999999100451MD1999999-0021REMSYN023 333 20254 59002 60064;
0143822800999991998012212004-02533-044283FM-12+005199999V0209999999999045001CN0100001N1+02361+02311101211ADDAA124051091AG10006AY161061AY261061GF108991041071004501021999KA1240N+02351MA1999999100631MD1999999+0161MW1611REMSYN023 333 20235 58016 60514;
0124822800999991998012218004-02533-044283FM-12+005199999V0209999999999045001CN0200001N1+02521+02381100921ADDAA106012091AG10006AY161061AY261061GF108991041071004501021999MA1999999100341MD1999999+0111MW1911REMSYN017 333 58011 60121;
0143822800999991998012300004-02533-044283FM-12+005199999V0209999999999220001CN0200001N1+02441+02391101041ADDAA106000591AG10006AY161061AY221061GF104991011011008001031021KA1240M+02681MA1999999100461MD1999999+0191MW1011REMSYN023 333 10268 58019 69941;
0162822800999991998012312004-02533-044283FM-12+005199999V0209999999999004201CN0040001N1+02641+02621101071ADDAA124002091AG10000AY121061AY221061GF108991061071004501021999KA1240M+99999MA1999999100491MD1999999-0141MW1911REMSYN023 333 10235 59014 60024;EQDQ01 +02352ATMX  
0124822800999991998012318004-02533-044283FM-12+005199999V0209999999999045001CN0200001N1+03101+02411100711ADDAA106000591AG10006AY161061AY221061GF106991031021004501031021MA1999999100131MD1999999-0211MW1021REMSYN017 333 59021 69961;
0143822800999991998012412004-02533-044283FM-12+005199999V0209999999999004201CN0040001N1+02601+02511101051ADDAA124025091AG10006AY161061AY221061GF108991061071004501021999KA1240N+02111MA1999999100471MD1999999-0021MW1911REMSYN023 333 20211 59002 60254;
0124822800999991998012418004-02533-044283FM-12+005199999V0209999999999004201CN0200001N1+02981+02491100741ADDAA106000191AG10006AY161061AY221061GF108991061051004501031999MA1999999100161MD1999999+0031MW1021REMSYN017 333 58003 69911;
0121822800999991998012512004-02533-044283FM-12+005199999V0209999999999045001CN0200001N1+02801+02521101081ADDAA124000191AG10000GF107991041021004501031021KA1240N+02491MA1999999100501MD1999999+0031REMSYN023 333 20249 58003 69914;
0096822800999991998012518004-02533-044283FM-12+005199999V0209999999999045001CN0200001N1+03061+02501100801ADDAA106000091AG10000GF106991031021004501031041MA1999999100221MD1999999+0061REMSYN011 333 58006;
0143822800999991998012612004-02533-044283FM-12+005199999V0209999999999004201CN0200001N1+02761+02461101151ADDAA124007091AG10006AY161061AY221061GF108991051061004501021999KA1240N+02471MA1999999100571MD1999999+0071MW1011REMSYN023 333 20247 58007 60074;
0124822800999991998012618004-02533-044283FM-12+005199999V0209999999999004201CN0200001N1+02921+02341100921ADDAA106000391AG10006AY161061AY221061GF108991061051004501031999MA1999999100341MD1999999+0121MW1021REMSYN017 333 58012 69931;
0121822800999991998012712004-02533-044283FM-12+005199999V0209999999999045001CN0200001N1+02761+02321101251ADDAA124000391AG10000GF106991021011008001031021KA1240N+02351MA1999999100671MD1999999+0101REMSYN023 333 20235 58010 69934;
0096822800999991998012718004-02533-044283FM-12+005199999V0209999999999105001CN0200001N1+03101+02411101021ADDAA106000091AG10000GF105991021021004501031011MA1999999100441MD1999999+0101REMSYN011 333 58010;
0115822800999991998012812004-02533-044283FM-12+005199999V0209999999999045001CN0200001N1+02841+02481101331ADDAA106000091AG10000GF106991041021004501031001KA1240N+02421MA1999999100751MD1999999+0081REMSYN017 333 20242 58008;
0124822800999991998012818004-02533-044283FM-12+005199999V0209999999999045001CN0200001N1+02921+02501101081ADDAA106001091AG10006AY161061AY211061GF108991041051004501031999MA1999999100501MD1999999+0061MW1021REMSYN017 333 58006 60011;
0143822800999991998012912004-02533-044283FM-12+005199999V0209999999999045001CN0200001N1+02801+02501101211ADDAA124080091AG10006AY161061AY221061GF106991041021004501031001KA1240N+02471MA1999999100631MD1999999-0121MW1011REMSYN023 333 20247 59012 60804;
0096822800999991998012918004-02533-044283FM-12+005199999V0209999999999004201CN0200001N1+02941+02601101111ADDAA106000091AG10000GF108991061051004501031999MA1999999100531MD1999999+0031REMSYN011 333 58003;
0143822800999991998013112004-02533-044283FM-12+005199999V0209999999999045001CN0200001N1+02781+02541101231ADDAA124016091AG10006AY161061AY221061GF108991041051004501031999KA1240N+02441MA1999999100651MD1999999+0061MW1031REMSYN023 333 20244 58006 60164;
0121822800999991998020112004-02533-044283FM-12+005199999V0209999999999045001CN0200001N1+02881+02371101211ADDAA124009091AG10000GF105991041021004501051001KA1240N+02451MA1999999100631MD1999999-0021REMSYN023 333 20245 59002 60094;
0124822800999991998020118004-02533-044283FM-12+005199999V0209999999999045001CN0200001N1+02941+02521101011ADDAA106006091AG10006AY161061AY221061GF105991031051004501031001MA1999999100431MD1999999-0051MW1021REMSYN017 333 59005 60061;
0143822800999991998020212004-02533-044283FM-12+005199999V0209999999999220001CN0200001N1+02801+02441101131ADDAA124008091AG10006AY161061AY221061GF103991031021004501001001KA1240N+02471MA1999999100551MD1999999-0081MW1021REMSYN023 333 20247 59008 60084;
0096822800999991998020218004-02533-044283FM-12+005199999V0209999999999045001CN0200001N1+03081+02441100901ADDAA106000091AG10000GF105991041021004501051001MA1999999100321MD1999999-0111REMSYN011 333 59011;
0143822800999991998020312004-02533-044283FM-12+005199999V0209999999999220001CN0200001N1+02841+02621101061ADDAA124010091AG10006AY161061AY211061GF106991031021004501001041KA1240N+02351MA1999999100481MD1999999-0071MW1031REMSYN023 333 20235 59007 60104;
0096822800999991998020318004-02533-044283FM-12+005199999V0209999999999045001CN0200001N1+03121+02551100711ADDAA106000091AG10000GF106991041021004501061051MA1999999100131MD1999999-0191REMSYN011 333 59019;
0115822800999991998020412004-02533-044283FM-12+005199999V0209999999999004201CN0200001N1+02961+02331100971ADDAA106000091AG10000GF105991051021004501001001KA1240N+02501MA1999999100391MD1999999-0061REMSYN017 333 20250 59006;
0096822800999991998020418004-02533-044283FM-12+005199999V0209999999999220001CN0200001N1+03301+02321100751ADDAA106000091AG10000GF102991011021004501031001MA1999999100181MD1999999+0051REMSYN011 333 58005;
0115822800999991998020512004-02533-044283FM-12+005199999V0209999999999220001CN0200001N1+03001+02461101061ADDAA106000091AG10000GF101991011011012501001001KA1240N+02521MA1999999100481MD1999999+0091REMSYN017 333 20252 58009;
0112822800999991998020518004-02533-044283FM-12+005199999V0209999999999220001CN0200001N1+03401+02451100801ADDAA106000091AG10000GA1001+999999999GF100991001001999999001001MA1999999100231MD1999999+0051REMSYN011 333 58005;
0115822800999991998020612004-02533-044283FM-12+005199999V0209999999999220001CN0200001N1+03001+02551101161ADDAA106000091AG10000GF102991011011008001001011KA1240N+02621MA1999999100581MD1999999+0101REMSYN017 333 20262 58010;
0096822800999991998020618004-02533-044283FM-12+005199999V0209999999999220001CN0200001N1+03321+02491100981ADDAA106000091AG10000GF102991011011008001001041MA1999999100411MD1999999+0181REMSYN011 333 58018;
0115822800999991998020712004-02533-044283FM-12+005199999V0209999999999045001CN0200001N1+02901+02431101251ADDAA106000091AG10000GF106991041021004501031001KA1240N+02591MA1999999100671MD1999999+0091REMSYN017 333 20259 58009;
0096822800999991998020718004-02533-044283FM-12+005199999V0209999999999220001CN0200001N1+03221+02531101061ADDAA106000091AG10000GF102991021021004501001001MA1999999100481MD1999999+0121REMSYN011 333 58012;
0115822800999991998020812004-02533-044283FM-12+005199999V0209999999999045001CN0200001N1+03001+02461101161ADDAA106000091AG10000GF106991041021004501051001KA1240N+02591MA1999999100581MD1999999-0091REMSYN017 333 20259 59009;
0096822800999991998020818004-02533-044283FM-12+005199999V0209999999999220001CN0200001N1+03281+02481100981ADDAA106000091AG10000GF103991031021004501001001MA1999999100401MD1999999-0081REMSYN011 333 59008;
0115822800999991998020912004-02533-044283FM-12+005199999V0209999999999004201CN0200001N1+02941+02471101351ADDAA106000091AG10000GF106991061021004501001001KA1240N+02671MA1999999100721MD1999999+0141REMSYN017 333 20267 58014;
0096822800999991998020918004-02533-044283FM-12+005199999V0209999999999220001CN0200001N1+03201+02431101001ADDAA106000091AG10000GF103991011011008001031011MA1999999100421MD1999999+0021REMSYN011 333 58002;
0115822800999991998021012004-02533-044283FM-12+005199999V0209999999999220001CN0200001N1+03001+02461101121ADDAA106000091AG10000GF104991041021004501001001KA1240N+02601MA1999999100541MD1999999-0181REMSYN017 333 20260 59018;
0096822800999991998021018004-02533-044283FM-12+005199999V0209999999999220001CN0200001N1+03181+02541101051ADDAA106000091AG10000GF104991041021004501001001MA1999999100471MD1999999+0051REMSYN011 333 58005;
0115822800999991998021112004-02533-044283FM-12+005199999V0209999999999220001CN0200001N1+02901+02341101291ADDAA106000091AG10000GF104991041021004501001001KA1240N+02501MA1999999100711MD1999999+0171REMSYN017 333 20250 58017;
0096822800999991998021118004-02533-044283FM-12+005199999V0209999999999220001CN0200001N1+03101+02411100991ADDAA106000091AG10000GF104991041021004501001001MA1999999100411MD1999999-0061REMSYN011 333 59006;
0115822800999991998021212004-02533-044283FM-12+005199999V0209999999999004201CN0200001N1+02921+02431101251ADDAA106000091AG10000GF105991051021004501001001KA1240N+02591MA1999999100671MD1999999-0041REMSYN017 333 20259 59004;
0096822800999991998021218004-02533-044283FM-12+005199999V0209999999999220001CN0200001N1+03101+02511101051ADDAA106000091AG10000GF104991031021004501001011MA1999999100471MD1999999+0061REMSYN011 333 58006;
0115822800999991998021300004-02533-044283FM-12+005199999V0209999999999220001CN0200001N1+02701+02461101181ADDAA106000091AG10000GF102991011011008001001011KA1240M+03131MA1999999100601MD1999999+0061REMSYN017 333 10313 58006;
0115822800999991998021312004-02533-044283FM-12+005199999V0209999999999220001CN0200001N1+02961+02421101351ADDAA106000091AG10000GF104991031021004501011001KA1240N+02391MA1999999100751MD1999999+0081REMSYN017 333 20239 58008;
0096822800999991998021318004-02533-044283FM-12+005199999V0209999999999220001CN0200001N1+03101+02411101141ADDAA106000091AG10000GF104991041021004501001001MA1999999100561MD1999999+0131REMSYN011 333 58013;
0115822800999991998021412004-02533-044283FM-12+005199999V0209999999999004201CN0200001N1+02901+02341101391ADDAA106000091AG10000GF105991051021004501001001KA1240N+02411MA1999999100811MD1999999+0061REMSYN017 333 20241 58006;
0096822800999991998021418004-02533-044283FM-12+005199999V0209999999999220001CN0200001N1+03161+02391101161ADDAA106000091AG10000GF103991031011008001001001MA1999999100581MD1999999-0021REMSYN011 333 59002;
0115822800999991998021512004-02533-044283FM-12+005199999V0209999999999220001CN0200001N1+02981+02421101451ADDAA106000091AG10000GF104991021021004501031011KA1240N+02561MA1999999100871MD1999999+0061REMSYN017 333 20256 58006;
0096822800999991998021518004-02533-044283FM-12+005199999V0209999999999045001CN0200001N1+03141+02301101251ADDAA106000091AG10000GF106991031021004501031041MA1999999100671MD1999999+0091REMSYN011 333 58009;
0115822800999991998021612004-02533-044283FM-12+005199999V0209999999999004201CN0200001N1+02901+02501101391ADDAA106000091AG10000GF105991051021004501001001KA1240N+02531MA1999999100811MD1999999-0061REMSYN017 333 20253 59006;
0096822800999991998021618004-02533-044283FM-12+005199999V0209999999999220001CN0200001N1+03161+02341101141ADDAA106000091AG10000GF103991021021004501001011MA1999999100561MD1999999-0111REMSYN011 333 59011;
0115822800999991998021712004-02533-044283FM-12+005199999V0209999999999004201CN0200001N1+02881+02461101231ADDAA106000091AG10000GF105991051021004501001001KA1240N+02601MA1999999100651MD1999999-0161REMSYN017 333 20260 59016;
0096822800999991998021718004-02533-044283FM-12+005199999V0209999999999045001CN0200001N1+03121+02431100981ADDAA106000091AG10000GF105991031021004501031011MA1999999100401MD1999999-0161REMSYN011 333 59016;
0115822800999991998021812004-02533-044283FM-12+005199999V0209999999999220001CN0200001N1+02981+02421101151ADDAA106000091AG10000GF104991031021004501061001KA1240N+02561MA1999999100571MD1999999-0081REMSYN017 333 20256 59008;
0124822800999991998021818004-02533-044283FM-12+005199999V0209999999999045001CN0200001N1+02681+02451100941ADDAA106004091AG10006AY161061AY211061GF108991041051004501021999MA1999999100361MD1999999-0041MW1161REMSYN017 333 59004 60041;
0143822800999991998021912004-02533-044283FM-12+005199999V0209999999999045001CN0200001N1+02601+02331101071ADDAA124019091AG10006AY161061AY221061GF106991041021004501031001KA1240N+02501MA1999999100491MD1999999-0081MW1011REMSYN023 333 20250 59008 60194;
0096822800999991998021918004-02533-044283FM-12+005199999V0209999999999045001CN0200001N1+03061+02381100801ADDAA106000091AG10000GF106991041021004501051001MA1999999100221MD1999999-0141REMSYN011 333 59014;
0115822800999991998022012004-02533-044283FM-12+005199999V0209999999999045001CN0200001N1+02841+02421100951ADDAA106000091AG10000GF106991031021004501031011KA1240N+02501MA1999999100371MD1999999-0121REMSYN017 333 20250 59012;
0096822800999991998022018004-02533-044283FM-12+005199999V0209999999999220001CN0200001N1+03221+02401100741ADDAA106000091AG10000GF104991041021004501001001MA1999999100161MD1999999-0061REMSYN011 333 59006;
0115822800999991998022112004-02533-044283FM-12+005199999V0209999999999220001CN0200001N1+02981+02491101051ADDAA106000091AG10000GF104991031021004501051001KA1240N+02541MA1999999100471MD1999999+0101REMSYN017 333 20254 58010;
0096822800999991998022118004-02533-044283FM-12+005199999V0209999999999045001CN0200001N1+03161+02521100761ADDAA106000091AG10000GF106991031021004501051041MA1999999100181MD1999999+0021REMSYN011 333 58002;
0115822800999991998022212004-02533-044283FM-12+005199999V0209999999999045001CN0200001N1+03001+02461101131ADDAA106000091AG10000GF106991041021004501031001KA1240N+02511MA1999999100551MD1999999+0081REMSYN017 333 20251 58008;
0096822800999991998022218004-02533-044283FM-12+005199999V0209999999999220001CN0200001N1+03181+02391100841ADDAA106000091AG10000GF103991031021004501001001MA1999999100261MD1999999+0081REMSYN011 333 58008;
0115822800999991998022312004-02533-044283FM-12+005199999V0209999999999220001CN0200001N1+02981+02471101131ADDAA106000091AG10000GF104991041021004501001001KA1240N+02521MA1999999100551MD1999999+0001REMSYN017 333 20252 58000;
0096822800999991998022318004-02533-044283FM-12+005199999V0209999999999045001CN0200001N1+03161+02391100881ADDAA106000091AG10000GF105991031021004501031021MA1999999100301MD1999999+0041REMSYN011 333 58004;
0096822800999991998022418004-02533-044283FM-12+005199999V0209999999999045001CN0200001N1+02891+02501100991ADDAA106000091AG10000GF107991041021008001031041MA1999999100411MD1999999+0111REMSYN011 333 58011;
0121822800999991998022512004-02533-044283FM-12+005199999V0209999999999045001CN0200001N1+02901+02501101171ADDAA124007091AG10000GF106991041021004501051021KA1240N+02471MA1999999100591MD1999999-0051REMSYN023 333 20247 59005 60074;
0096822800999991998022518004-02533-044283FM-12+005199999V0209999999999004201CN0200001N1+02821+02501100931ADDAA106000091AG10000GF108991051061004501021999MA1999999100351MD1999999-0061REMSYN011 333 59006;
0115822800999991998022600004-02533-044283FM-12+005199999V0209999999999220001CN0200001N1+02661+02391101011ADDAA106000091AG10000GF102991021021004501001001KA1240M+03101MA1999999100431MD1999999-0101REMSYN017 333 10310 59010;
0115822800999991998022612004-02533-044283FM-12+005199999V0209999999999004201CN0200001N1+02901+02501101131ADDAA106000091AG10000GF107991051021004501051999KA1240N+02491MA1999999100551MD1999999-0041REMSYN017 333 20249 59004;
0096822800999991998022618004-02533-044283FM-12+005199999V0209999999999105001CN0200001N1+03101+02411100721ADDAA106000091AG10000GF106991041021004501001021MA1999999100141MD1999999-0211REMSYN011 333 59021;
0143822800999991998022712004-02533-044283FM-12+005199999V0209999999999045001CN0200001N1+02781+99999101121ADDAA124005091AG10006AY161061AY221061GF108991041071004501021999KA1240N+02551MA1999999100541MD1999999-0011MW1911REMSYN023 333 20255 59001 60054;
0124822800999991998022718004-02533-044283FM-12+005199999V0209999999999045001CN0200001N1+02781+02601100841ADDAA106001091AG10006AY161061AY221061GF108991041051008001021999MA1999999100261MD1999999+0121MW1021REMSYN017 333 58012 60011;
0121822800999991998022812004-02533-044283FM-12+005199999V0209999999999045001CN0200001N1+02941+02431101041ADDAA124002091AG10000GF106991041021004501051001KA1240N+02471MA1999999100461MD1999999-0081REMSYN023 333 20247 59008 60024;
0124822800999991998022818004-02533-044283FM-12+005199999V0209999999999004201CN0200001N1+02521+02421100851ADDAA106001091AG10006AY161061AY221061GF108991051061004501031999MA1999999100271MD1999999+0011MW1211REMSYN017 333 58001 60011;
0143822800999991998030112004-02533-044283FM-12+005199999V0209999999999045001CN0200001N1+02801+02501101051ADDAA124003091AG10006AY161061AY221061GF107991041021004501051999KA1240N+02321MA1999999100471MD1999999+0011MW1011REMSYN023 333 20232 58001 60034;
0096822800999991998030118004-02533-044283FM-12+005199999V0209999999999045001CN0200001N1+03141+02531100781ADDAA106000091AG10000GF106991031021004501031001MA1999999100201MD1999999-0071REMSYN011 333 59007;
0115822800999991998030212004-02533-044283FM-12+005199999V0209999999999045001CN0200001N1+02881+02561101031ADDAA106000091AG10000GF106991041021004501031011KA1240N+02491MA1999999100451MD1999999-0021REMSYN017 333 20249 59002;
0115822800999991998030300004-02533-044283FM-12+005199999V0209999999999045001CN0200001N1+02741+02521100991ADDAA106000091AG10000GF108991031021004501011999KA1240M+03181MA1999999100411MD1999999+0151REMSYN017 333 10318 58015;
0115822800999991998030312004-02533-044283FM-12+005199999V0209999999999045001CN0200001N1+02821+02381101111ADDAA106000091AG10000GF106991041021004501051001KA1240N+02601MA1999999100531MD1999999+0081REMSYN017 333 20260 58008;
0096822800999991998030318004-02533-044283FM-12+005199999V0209999999999004201CN0200001N1+03001+02461100951ADDAA106000091AG10000GF107991061051004501021999MA1999999100381MD1999999+0151REMSYN011 333 58015;
0115822800999991998030412004-02533-044283FM-12+005199999V0209999999999045001CN0200001N1+02961+02471101131ADDAA106000091AG10000GF105991041021004501031001KA1240N+02591MA1999999100551MD1999999+0021REMSYN017 333 20259 58002;
0096822800999991998030418004-02533-044283FM-12+005199999V0209999999999045001CN0200001N1+03261+02541100801ADDAA106000091AG10000GF105991031021004501031001MA1999999100301MD1999999-0081REMSYN011 333 59008;
0115822800999991998030512004-02533-044283FM-12+005199999V0209999999999220001CN0200001N1+02981+02491101121ADDAA106000091AG10000GF102991011011008001001041KA1240N+02521MA1999999100541MD1999999-0011REMSYN017 333 20252 59001;
0096822800999991998030518004-02533-044283FM-12+005199999V0209999999999220001CN0200001N1+03201+02531100851ADDAA106000091AG10000GF102991011011008001001041MA1999999100271MD1999999-0031REMSYN011 333 59003;
0115822800999991998030612004-02533-044283FM-12+005199999V0209999999999045001CN0200001N1+02941+02541101031ADDAA106000091AG10000GF106991041021004501031001KA1240N+02511MA1999999100451MD1999999-0091REMSYN017 333 20251 59009;
0124822800999991998030618004-02533-044283FM-12+005199999V0209999999999045001CN0200001N1+03101+02491100691ADDAA106001091AG10006AY161061AY221061GF106991041051004501031001MA1999999100111MD1999999-0161MW1021REMSYN017 333 59016 60011;
0121822800999991998030712004-02533-044283FM-12+005199999V0209999999999004201CN0200001N1+03001+02461101031ADDAA124003091AG10000GF106991061021004501001001KA1240N+02511MA1999999100451MD1999999+0001REMSYN023 333 20251 58000 60034;
0124822800999991998030718004-02533-044283FM-12+005199999V0209999999999045001CN0200001N1+03121+02411100721ADDAA106001091AG10006AY161061AY221061GF106991041021004501051001MA1999999100141MD1999999+0021MW1011REMSYN017 333 58002 60011;
0121822800999991998030812004-02533-044283FM-12+005199999V0209999999999045001CN0200001N1+02661+02331101091ADDAA124001091AG10000GF106991041021004501031011KA1240N+02561MA1999999100511MD1999999+0061REMSYN023 333 20256 58006 60014;
0096822800999991998030818004-02533-044283FM-12+005199999V0209999999999045001CN0200001N1+03081+02541100811ADDAA106000091AG10000GF106991041021004501031041MA1999999100231MD1999999-0091REMSYN011 333 59009;
0134822800999991998030900004-02533-044283FM-12+005199999V0200401N00311045001CN0200001N1+02541+02451101021ADDAA106003091AG10000GF105991041011008001031001KA1240M+03161MA1999999100431MD1210171+9999REMSYN017 333 10316 60031;EQDQ01+999990APOSP 
0096822800999991998030918004-02533-044283FM-12+005199999V0209999999999004201CN0200001N1+02861+02461100741ADDAA106000091AG10000GF108991061061004501021999MA1999999100161MD1999999-0071REMSYN011 333 59007;
0143822800999991998031012004-02533-044283FM-12+005199999V0209999999999004201CN0200001N1+02601+02331101091ADDAA124005091AG10006AY161061AY221061GF108991061051004501021011KA1240N+02491MA1999999100511MD1999999+0061MW1011REMSYN023 333 20249 58006 60054;
0124822800999991998031018004-02533-044283FM-12+005199999V0209999999999045001CN0200001N1+02861+02521100811ADDAA106002091AG10006AY161061AY221061GF106991041021004501051001MA1999999100231MD1999999+0071MW1021REMSYN017 333 58007 60021;
0096822800999991998031118004-02533-044283FM-12+005199999V0209999999999220001CN0200001N1+03061+02471100901ADDAA106000091AG10000GF103991011021004501031041MA1999999100321MD1999999+0091REMSYN011 333 58009;
0121822800999991998031212004-02533-044283FM-12+005199999V0209999999999045001CN0200001N1+02841+02381101251ADDAA124000191AG10000GF106991041021004501051001KA1240N+02391MA1999999100671MD1999999-0041REMSYN023 333 20239 59004 69924;
0096822800999991998031218004-02533-044283FM-12+005199999V0209999999999045001CN0200001N1+03061+02451101001ADDAA106000091AG10000GF106991021021004501031021MA1999999100421MD1999999+0101REMSYN011 333 58010;
0096822800999991998031318004-02533-044283FM-12+005199999V0209999999999004201CN0200001N1+02941+02471100961ADDAA106000091AG10000GF106991051061004501051001MA1999999100381MD1999999-0041REMSYN011 333 59004;
0143822800999991998031400004-02533-044283FM-12+005199999V0209999999999004201CN0200001N1+02641+02521101041ADDAA106005091AG10006AY161061AY221061GF106991051051004501031001KA1240M+03131MA1999999100461MD1999999+0091MW1021REMSYN023 333 10313 58009 60051;
0143822800999991998031412004-02533-044283FM-12+005199999V0209999999999045001CN0200001N1+02881+02581101091ADDAA124006091AG10006AY161061AY211061GF106991031021004501061011KA1240N+02391MA1999999100511MD1999999-0121MW1021REMSYN023 333 20239 59012 60064;
0124822800999991998031418004-02533-044283FM-12+005199999V0209999999999045001CN0200001N1+02841+02561100931ADDAA106013091AG10006AY161061AY211061GF108991041071004501021999MA1999999100351MD1999999-0031MW1911REMSYN017 333 59003 60131;
0143822800999991998031512004-02533-044283FM-12+005199999V0209999999999045001CN0200001N1+02841+02421101101ADDAA124014091AG10006AY161061AY221061GF106991041021004501051001KA1240N+02491MA1999999100521MD1999999+0011MW1021REMSYN023 333 20249 58001 60144;
0124822800999991998031518004-02533-044283FM-12+005199999V0209999999999045001CN0200001N1+02681+02541100941ADDAA106006091AG10006AY161061AY221061GF107991041051004501031001MA1999999100361MD1999999+0011MW1211REMSYN017 333 58001 60061;
0143822800999991998031612004-02533-044283FM-12+005199999V0209999999999004201CN0200001N1+02701+02561100991ADDAA124028091AG10006AY161061AY221061GF108991051061004501021999KA1240N+02401MA1999999100411MD1999999-0111MW1011REMSYN023 333 20240 59011 60284;
0124822800999991998031718004-02533-044283FM-12+005199999V0209999999999045001CN0200001N1+02801+02561100801ADDAA106001091AG10006AY161061AY221061GF108991041051008001021999MA1999999100221MD1999999+0071MW1161REMSYN017 333 58007 60011;
0115822800999991998031800004-02533-044283FM-12+005199999V0209999999999220001CN0200001N1+02641+02541100951ADDAA106000091AG10000GF102991011021004501001011KA1240M+02841MA1999999100371MD1999999+0081REMSYN017 333 10284 58008;
0143822800999991998031812004-02533-044283FM-12+005199999V0209999999999004201CN0200001N1+02701+02561101051ADDAA124002091AG10006AY161061AY221061GF108991061071004501021999KA1240N+02511MA1999999100471MD1999999-0021MW1161REMSYN023 333 20251 59002 60024;
0128822800999991998031900004-02533-044283FM-12+005199999V0209991C00001045001CN0200001N1+02451+02431999999ADDAA106010091AG10019AY191061AY261061GF108991031051008001031999KA1240M+02921MD1999999+0121MW1021REMSYN023 333 10292 58012 60101;
0115822800999991998032112004-02533-044283FM-12+005199999V0209999999999004201CN0200001N1+02801+02521101151ADDAA106000091AG10000GF108991061051004501011999KA1240N+02471MA1999999100571MD1999999-0091REMSYN017 333 20247 59009;
0096822800999991998032118004-02533-044283FM-12+005199999V0209999999999045001CN0200001N1+02981+02551100791ADDAA106000091AG10000GF105991041021004501011001MA1999999100211MD1999999-0101REMSYN011 333 59010;
0096822800999991998032218004-02533-044283FM-12+005199999V0209999999999045001CN0200001N1+03001+02531100671ADDAA106000091AG10000GF106991031051004501031001MA1999999100091MD1999999-0121REMSYN011 333 59012;
0096822800999991998032318004-02533-044283FM-12+005199999V0209999999999045001CN0200001N1+02881+02501100851ADDAA106000091AG10000GF107991041021004501031041MA1999999100271MD1999999+0181REMSYN011 333 58018;
0121822800999991998032512004-02533-044283FM-12+005199999V0209999999999004201CN0200001N1+02741+02601101231ADDAA124002091AG10000GF108991051061004501021999KA1240N+02411MA1999999100651MD1999999+0061REMSYN023 333 20241 58006 60024;
0096822800999991998032518004-02533-044283FM-12+005199999V0209999999999004201CN0200001N1+02901+02501100931ADDAA106000091AG10000GF108991061061004501021999MA1999999100351MD1999999+0001REMSYN011 333 58000;
0143822800999991998032600004-02533-044283FM-12+005199999V0209999999999004201CN0200001N1+99999+99999101131ADDAA106034091AG10006AY161061AY221061GF105991051021004501001001KA1240M+03041MA1999999100551MD1999999-0021MW1021REMSYN023 333 10304 59002 60341;
0143822800999991998032612004-02533-044283FM-12+005199999V0209999999999045001CN0200001N1+02781+02561101281ADDAA124039091AG10006AY161061AY211061GF106991031021004501031011KA1240N+02431MA1999999100701MD1999999+0051MW1021REMSYN023 333 20243 58005 60394;
0118822800999991998032618004-02533-044283FM-12+005199999V0209999999999045001CN0200001N1+02921+02541100981ADDAA106000091AG10000AY121061AY211061GF106991021031004501061021MA1999999100401MD1999999+0051MW1171REMSYN011 333 58005;
0143822800999991998032712004-02533-044283FM-12+005199999V0209999999999045001CN0200001N1+02721+02451101161ADDAA124067091AG10006AY161061AY221061GF108991041021004501031011KA1240N+02391MA1999999100581MD1999999-0121MW1021REMSYN023 333 20239 59012 60674;
0096822800999991998032718004-02533-044283FM-12+005199999V0209999999999045001CN0200001N1+03081+02441100861ADDAA106000091AG10000GF106991041061004501051001MA1999999100281MD1999999-0121REMSYN011 333 59012;
0124822800999991998032918004-02533-044283FM-12+005199999V0209999999999105001CN0200001N1+02901+02601100701ADDAA106003091AG10019AY191061AY261061GF105991021021004501071011MA1999999100121MD1999999-0111MW1011REMSYN017 333 59011 60031;
0143822800999991998033112004-02533-044283FM-12+005199999V0209999999999045001CN0200001N1+02881+02481101051ADDAA124022091AG10006AY161061AY221061GF106991021021004501031011KA1240N+02531MA1999999100471MD1999999+0081MW1011REMSYN023 333 20253 58008 60224;
0096822800999991998033118004-02533-044283FM-12+005199999V0209999999999220001CN0200001N1+03101+02411100801ADDAA106000091AG10000GF104991031021004501001021MA1999999100221MD1999999-0051REMSYN011 333 59005;
0143822800999991998040112004-02533-044283FM-12+005199999V0209999999999220001CN0200001N1+02881+02621101151ADDAA124000191AG10006AY161061AY211061GF103991011021004501051011KA1240N+02451MA1999999100571MD1999999+0101MW1021REMSYN023 333 20245 58010 69924;
0121822800999991998040312004-02533-044283FM-12+005199999V0209999999999105001CN0200001N1+02921+02501101091ADDAA106000591AG10000GF105991041021004501001021KA1240N+02391MA1999999100511MD1999999-0211REMSYN023 333 20239 59021 69951;
0096822800999991998040318004-02533-044283FM-12+005199999V0209999999999045001CN0200001N1+03161+02591100971ADDAA106000091AG10000GF107991041051004501021001MA1999999100391MD1999999+0071REMSYN011 333 58007;
0115822800999991998040412004-02533-044283FM-12+005199999V0209999999999045001CN0200001N1+02861+02621101141ADDAA106000091AG10000GF106991041021004501031001KA1240N+02411MA1999999100561MD1999999+0051REMSYN017 333 20241 58005;
0124822800999991998040418004-02533-044283FM-12+005199999V0209999999999045001CN0200001N1+02621+02531100811ADDAA106041091AG10018AY191061AY261061GF107991011021004501021041MA1999999100231MD1999999+0161MW1911REMSYN017 333 58016 60411;
0121822800999991998040512004-02533-044283FM-12+005199999V0209999999999045001CN0200001N1+03001+02601101051ADDAA124041091AG10000GF106991041021004501031001KA1240N+02381MA1999999100471MD1999999-0091REMSYN023 333 20238 59009 60414;
0124822800999991998040518004-02533-044283FM-12+005199999V0209999999999220001CN0200001N1+03181+02561100761ADDAA106000591AG10006AY161061AY211061GF103991031021004501001001MA1999999100181MD1999999-0061MW1021REMSYN017 333 59006 69951;
0121822800999991998040612004-02533-044283FM-12+005199999V0209999999999004201CN0200001N1+03001+02571101131ADDAA124000591AG10000GF108991051021004501051999KA1240N+02501MA1999999100551MD1999999+0081REMSYN023 333 20250 58008 69954;
0096822800999991998040618004-02533-044283FM-12+005199999V0209999999999045001CN0200001N1+03061+02381100781ADDAA106000091AG10000GF105991041021004501031001MA1999999100201MD1999999+0021REMSYN011 333 58002;
0115822800999991998040812004-02533-044283FM-12+005199999V0209999999999220001CN0200001N1+03001+02461101121ADDAA106000091AG10000GF104991041021004501001001KA1240N+02581MA1999999100541MD1999999+0091REMSYN017 333 20258 58009;
0124822800999991998040818004-02533-044283FM-12+005199999V0209999999999105001CN0200001N1+02761+02481100851ADDAA106004091AG10000AY121061AY211061GF106991041051004501001021MA1999999100271MD1999999+0031MW1211REMSYN017 333 58003 60041;
0143822800999991998040912004-02533-044283FM-12+005199999V0209999999999004201CN0200001N1+02901+02581101031ADDAA124029091AG10006AY161061AY221061GF108991061051004501031999KA1240N+02511MA1999999100451MD1999999-0091MW1011REMSYN023 333 20251 59009 60294;
0124822800999991998040918004-02533-044283FM-12+005199999V0209999999999004201CN0020001N1+02441+02411100851ADDAA106027091AG10006AY161061AY221061GF108991081071004501999999MA1999999100271MD1999999+0001MW1951REMSYN017 333 58000 60271;
0096822800999991998041218004-02533-044283FM-12+005199999V0209999999999045001CN0200001N1+03031+02551100801ADDAA106000091AG10000GF106991041061004501051001MA1999999100221MD1999999+0041REMSYN011 333 58004;
0143822800999991998041312004-02533-044283FM-12+005199999V0209999999999045001CN0200001N1+02921+02601101131ADDAA124012091AG10006AY161061AY211061GF105991031021004501031001KA1240N+02511MA1999999100551MD1999999+0061MW1011REMSYN023 333 20251 58006 60124;
0124822800999991998041318004-02533-044283FM-12+005199999V0209999999999105001CN0200001N1+02621+02421100851ADDAA106005091AG10018AY191061AY261061GF106991021051004501021041MA1999999100271MD1999999+0051MW1951REMSYN017 333 58005 60051;
0124822800999991998041418004-02533-044283FM-12+005199999V0209999999999004201CN0200001N1+02701+02431100731ADDAA106008091AG10006AY161061AY221061GF108991051061004501021999MA1999999100151MD1999999-0121MW1011REMSYN017 333 59012 60081;
0143822800999991998041512004-02533-044283FM-12+005199999V0209999999999004201CN0200001N1+02901+02501100951ADDAA124015091AG10006AY161061AY221061GF108991061051004501031999KA1240N+02411MA1999999100371MD1999999-0101MW1021REMSYN023 333 20241 59010 60154;
0124822800999991998041518004-02533-044283FM-12+005199999V0209999999999004201CN0200001N1+02901+02581100721ADDAA124008091AG10006AY161061AY221061GF108991051061004501021999MA1999999100141MD1999999-0011MW1021REMSYN017 333 59001 60084;
0162822800999991998041612004-02533-044283FM-12+005199999V0209999999999045001CN0200001N1+02901+02601101091ADDAA124024091AG10006AY161061AY211061GF105991031021004501061021KA1240M+99999MA1999999100511MD1999999+0141MW1021REMSYN023 333 10239 58014 60244;EQDQ01 +02392ATMX  
0124822800999991998041618004-02533-044283FM-12+005199999V0209999999999045001CN0200001N1+02711+02461100851ADDAA106002091AG10006AY161061AY211061GF108991041051008001071999MA1999999100271MD1999999+0131MW1911REMSYN017 333 58013 60021;
0121822800999991998041712004-02533-044283FM-12+005199999V0209999999999220001CN0200001N1+02981+02471101071ADDAA124002091AG10000GF105991041021004501001011KA1240N+02391MA1999999100491MD1999999-0021REMSYN023 333 20239 59002 60024;
0096822800999991998041718004-02533-044283FM-12+005199999V0209999999999004201CN0200001N1+03181+02541100881ADDAA106000091AG10000GF105991051021004501001001MA1999999100301MD1999999+0031REMSYN011 333 58003;
0096822800999991998041818004-02533-044283FM-12+005199999V0209999999999004201CN0200001N1+03161+02551100751ADDAA106000091AG10000GF105991051021004501001001MA1999999100171MD1999999-0131REMSYN011 333 59013;
0124822800999991998041918004-02533-044283FM-12+005199999V0209999999999045001CN0200001N1+02981+02621100641ADDAA106001091AG10006AY161061AY211061GF106991041091004501031021MA1999999100061MD1999999-0111MW1021REMSYN017 333 59011 60011;
0121822800999991998042012004-02533-044283FM-12+005199999V0209999999999220001CN0200001N1+03001+02601100961ADDAA124001091AG10000GF104991041021004501001001KA1240N+02521MA1999999100381MD1999999+0321REMSYN023 333 20252 58032 60014;
0096822800999991998042018004-02533-044283FM-12+005199999V0209999999999045001CN0200001N1+03181+02611100761ADDAA106000091AG10000GF106991041021004501021001MA1999999100181MD1999999+0041REMSYN011 333 58004;
0096822800999991998042118004-02533-044283FM-12+005199999V0209999999999004201CN0200001N1+03181+02661100781ADDAA106000091AG10000GF105991051021004501001001MA1999999100201MD1999999-0101REMSYN011 333 59010;
0115822800999991998042212004-02533-044283FM-12+005199999V0209999999999220001CN0200001N1+03041+02551101131ADDAA106000091AG10000GF103991021021004501001011KA1240N+02551MA1999999100551MD1999999+0071REMSYN017 333 20255 58007;
0096822800999991998042218004-02533-044283FM-12+005199999V0209999999999045001CN0200001N1+03181+02661100851ADDAA106000091AG10000GF105991031021004501061011MA1999999100271MD1999999+0071REMSYN011 333 58007;
0124822800999991998042318004-02533-044283FM-12+005199999V0209999999999004201CN0200001N1+02881+02641100811ADDAA106008091AG10006AY161061AY221061GF107991051051004501031001MA1999999100231MD1999999-0041MW1021REMSYN017 333 59004 60081;
0121822800999991998042412004-02533-044283FM-12+005199999V0209999999999004201CN0200001N1+02981+02531101141ADDAA124008091AG10000GF105991051021004501001001KA1240N+02441MA1999999100561MD1999999-0021REMSYN023 333 20244 59002 60084;
0096822800999991998042418004-02533-044283FM-12+005199999V0209999999999220001CN0200001N1+03101+02491100841ADDAA106000091AG10000GF104991041021004501001001MA1999999100261MD1999999+0031REMSYN011 333 58003;
0143822800999991998042512004-02533-044283FM-12+005199999V0209999999999220001CN0200001N1+03001+02511101111ADDAA124000191AG10006AY161061AY211061GF103991021021004501031001KA1240N+02561MA1999999100531MD1999999-0031MW1021REMSYN023 333 20256 59003 69914;
0124822800999991998042518004-02533-044283FM-12+005199999V0209999999999045001CN0200001N1+03131+02581100771ADDAA106000191AG10006AY161061AY211061GF106991041051004501061011MA1999999100191MD1999999-0071MW1031REMSYN017 333 59007 69921;
0096822800999991998042618004-02533-044283FM-12+005199999V0209999999999045001CN0200001N1+03001+02601100651ADDAA106000091AG10000GF106991041051004501021001MA1999999100071MD1999999-0121REMSYN011 333 59012;
0143822800999991998042712004-02533-044283FM-12+005199999V0209999999999004201CN0200001N1+02901+02431100951ADDAA124020091AG10006AY161061AY221061GF108991061051004501021999KA1240N+02471MA1999999100371MD1999999+0061MW1021REMSYN023 333 20247 58006 60204;
0143822800999991998042812004-02533-044283FM-12+005199999V0209999999999045001CN0200001N1+02861+02601101081ADDAA124003091AG10006AY161061AY211061GF107991041051004501031011KA1240N+02461MA1999999100501MD1999999+0131MW1021REMSYN023 333 20246 58013 60034;
0124822800999991998042818004-02533-044283FM-12+005199999V0209999999999045001CN0100001N1+02461+99999100941ADDAA106007091AG10006AY161061AY261061GF108991041051004501021999MA1999999100361MD1999999+0321MW1621REMSYN017 333 58032 60071;
0121822800999991998042912004-02533-044283FM-12+005199999V0209999999999045001CN0200001N1+02901+02501101151ADDAA124007091AG10000GF106991041021004501031001KA1240N+02491MA1999999100571MD1999999+0071REMSYN023 333 20249 58007 60074;
0121822800999991998043012004-02533-044283FM-12+005199999V0209999999999045001CN0200001N1+02901+02501101031ADDAA124002091AG10000GF105991041021004501051001KA1240N+02531MA1999999100451MD1999999-0121REMSYN023 333 20253 59012 60024;
0124822800999991998043018004-02533-044283FM-12+005199999V0209999999999220001CN0200001N1+03041+02501100701ADDAA106000591AG10006AY161061AY221061GF104991041021004501001001MA1999999100121MD1999999-0241MW1011REMSYN017 333 59024 69951;
0121822800999991998050112004-02533-044283FM-12+005199999V0209999999999220001CN0200001N1+02981+02581101031ADDAA124000591AG10000GF105991041021004501001011KA1240N+02561MA1999999100451MD1999999+0001REMSYN023 333 20256 58000 69954;
0115822800999991998050212004-02533-044283FM-12+005199999V0209999999999004201CN0200001N1+02901+02501101031ADDAA106000091AG10000GF108991061051004501031999KA1240N+02491MA1999999100451MD1999999+0001REMSYN017 333 20249 58000;
0124822800999991998050218004-02533-044283FM-12+005199999V0209999999999045001CN0200001N1+03061+02431100781ADDAA106002091AG10005AY161061AY221061GF106991041051004501021001MA1999999100201MD1999999+0051MW1021REMSYN017 333 58005 60021;
0143822800999991998050312004-02533-044283FM-12+005199999V0209999999999045001CN0200001N1+02941+02561101131ADDAA124004091AG10005AY161061AY221061GF106991041021004501031001KA1240N+02501MA1999999100551MD1999999+0101MW1011REMSYN023 333 20250 58010 60044;
0096822800999991998050318004-02533-044283FM-12+005199999V0209999999999045001CN0200001N1+02901+02561100871ADDAA106000091AG10000GF107991041051004501031001MA1999999100291MD1999999+0091REMSYN011 333 58009;
0115822800999991998050412004-02533-044283FM-12+005199999V0209999999999045001CN0200001N1+02921+02581101151ADDAA106000091AG10000GF106991041021004501031011KA1240N+02481MA1999999100571MD1999999+0021REMSYN017 333 20248 58002;
0121822800999991998050512004-02533-044283FM-12+005199999V0209999999999220001CN0200001N1+03001+02461101061ADDAA124000191AG10000GF104991041021004501001001KA1240N+02491MA1999999100481MD1999999-0091REMSYN023 333 20249 59009 69924;
0096822800999991998050518004-02533-044283FM-12+005199999V0209999999999220001CN0200001N1+03181+02471100961ADDAA106000091AG10000GF103991031021004501001001MA1999999100381MD1999999-0011REMSYN011 333 59001;
0121822800999991998050612004-02533-044283FM-12+005199999V0209999999999220001CN0200001N1+03001+02511101121ADDAA124001091AG10000GF104991041021004501001001KA1240N+02391MA1999999100541MD1999999+0061REMSYN023 333 20239 58006 69974;
0096822800999991998050618004-02533-044283FM-12+005199999V0209999999999045001CN0200001N1+03101+02411100911ADDAA106000091AG10000GF106991041051004501031001MA1999999100331MD1999999+0031REMSYN011 333 58003;
0115822800999991998050712004-02533-044283FM-12+005199999V0209999999999220001CN0200001N1+02981+02581101191ADDAA106000091AG10000GF104991041021004501001001KA1240N+02491MA1999999100611MD1999999+0071REMSYN017 333 20249 58007;
0096822800999991998050718004-02533-044283FM-12+005199999V0209999999999045001CN0200001N1+03141+02501100871ADDAA106000091AG10000GF105991031031004501061011MA1999999100291MD1999999-0041REMSYN011 333 59004;
0115822800999991998050812004-02533-044283FM-12+005199999V0209999999999004201CN0200001N1+02901+02501101221ADDAA106000091AG10000GF105991051021004501001001KA1240N+02521MA1999999100641MD1999999+0031REMSYN017 333 20252 58003;
0124822800999991998050818004-02533-044283FM-12+005199999V0209999999999004201CN0200001N1+02921+02581100931ADDAA106009091AG10005AY161061AY221061GF108991051051004501031001MA1999999100351MD1999999+0061MW1021REMSYN017 333 58006 60091;
0124822800999991998051118004-02533-044283FM-12+005199999V0209999999999045001CN0200001N1+02801+02521101001ADDAA106006091AG10000AY121061AY211061GF106991041061004501031999MA1999999100421MD1999999-0211MW1211REMSYN017 333 59021 60061;
0121822800999991998051212004-02533-044283FM-12+005199999V0209999999999045001CN0200001N1+02901+02561101251ADDAA124011091AG10000GF105991031021004501031001KA1240N+02491MA1999999100671MD1999999-0011REMSYN023 333 20249 59001 60114;
0096822800999991998051218004-02533-044283FM-12+005199999V0209999999999220001CN0200001N1+03201+02531100981ADDAA106000091AG10000GF103991031021004501001001MA1999999100401MD1999999-0021REMSYN011 333 59002;
0115822800999991998051312004-02533-044283FM-12+005199999V0209999999999220001CN0200001N1+02981+02581101281ADDAA106000091AG10000GF104991031021004501001041KA1240N+02471MA1999999100701MD1999999+0031REMSYN017 333 20247 58003;
0096822800999991998051318004-02533-044283FM-12+005199999V0209999999999045001CN0200001N1+03221+02531100981ADDAA106000091AG10000GF106991041021004501031011MA1999999100401MD1999999+0001REMSYN011 333 58000;
0121822800999991998051412004-02533-044283FM-12+005199999V0209999999999045001CN0200001N1+02901+02581101121ADDAA124026091AG10000GF105991031021004501031001KA1240N+02491MA1999999100541MD1999999-0161REMSYN023 333 20249 59016 60264;
0096822800999991998051418004-02533-044283FM-12+005199999V0209999999999004201CN0200001N1+03101+02411100791ADDAA106000091AG10000GF105991051021004501001001MA1999999100211MD1999999-0191REMSYN011 333 59019;
0121822800999991998051512004-02533-044283FM-12+005199999V0209999999999045001CN0200001N1+02901+02581101071ADDAA124003091AG10000GF105991031021004501031001KA1240N+02481MA1999999100491MD1999999-0051REMSYN023 333 20248 59005 60034;
0096822800999991998051518004-02533-044283FM-12+005199999V0209999999999220001CN0200001N1+03181+02641100761ADDAA106000091AG10000GF104991041021004501001001MA1999999100181MD1999999-0031REMSYN011 333 59003;
0115822800999991998051612004-02533-044283FM-12+005199999V0209999999999045001CN0200001N1+02921+02621100991ADDAA106000091AG10000GF108991041021004501031999KA1240N+02511MA1999999100411MD1999999-0081REMSYN017 333 20251 59008;
0096822800999991998051618004-02533-044283FM-12+005199999V0209999999999045001CN0200001N1+03181+02641100681ADDAA106000091AG10000GF106991021021004501031011MA1999999100101MD1999999-0081REMSYN011 333 59008;
0115822800999991998051712004-02533-044283FM-12+005199999V0209999999999045001CN0200001N1+03001+02511101131ADDAA106000091AG10000GF106991041021004501031001KA1240N+02301MA1999999100551MD1999999+0141REMSYN017 333 20230 58014;
0121822800999991998051812004-02533-044283FM-12+005199999V0209999999999220001CN0200001N1+02941+02541101251ADDAA124004091AG10000GF102991021011004501001001KA1240N+02371MA1999999100671MD1999999+0121REMSYN023 333 20237 58012 60044;
0096822800999991998051818004-02533-044283FM-12+005199999V0209999999999004201CN0200001N1+03141+02571100971ADDAA106000091AG10000GF105991051021004501001001MA1999999100391MD1999999+0021REMSYN011 333 58002;
0121822800999991998051912004-02533-044283FM-12+005199999V0209999999999220001CN0200001N1+02861+02601101361ADDAA124005091AG10000GF103991011011008001031001KA1240N+02471MA1999999100781MD1999999+0111REMSYN023 333 20247 58011 60054;
0124822800999991998051918004-02533-044283FM-12+005199999V0209999999999045001CN0200001N1+02721+02501101091ADDAA106003091AG10005AY161061AY211061GF106991031071004501021011MA1999999100511MD1999999+0121MW1911REMSYN017 333 58012 60031;
0121822800999991998052012004-02533-044283FM-12+005199999V0209999999999045001CN0200001N1+02901+02601101351ADDAA124007091AG10000GF105991031021004501031001KA1240N+02411MA1999999100771MD1999999-0011REMSYN023 333 20241 59001 60074;
0124822800999991998052018004-02533-044283FM-12+005199999V0209999999999004201CN0200001N1+02701+02481101131ADDAA106005091AG10005AY161061AY221061GF108991061071004501021999MA1999999100551MD1999999+0041MW1171REMSYN017 333 58004 60051;
0121822800999991998052112004-02533-044283FM-12+005199999V0209999999999004201CN0200001N1+02881+02521101351ADDAA124010091AG10000GF108991051061004501021011KA1240N+02421MA1999999100771MD1999999+0001REMSYN023 333 20242 58000 60104;
0096822800999991998052118004-02533-044283FM-12+005199999V0209999999999045001CN0200001N1+03081+02561101101ADDAA106000091AG10000GF106991041021004501031001MA1999999100521MD1999999-0031REMSYN011 333 59003;
0121822800999991998052212004-02533-044283FM-12+005199999V0209999999999220001CN0200001N1+02941+02471101361ADDAA106000591AG10000GF104991031021004501001011KA1240N+02511MA1999999100781MD1999999+0011REMSYN023 333 20251 58001 69951;
0124822800999991998052218004-02533-044283FM-12+005199999V0209999999999045001CN0200001N1+02841+02481101051ADDAA106001091AG10005AY161061AY211061GF106991031021004501021011MA1999999100471MD1999999-0051MW1161REMSYN017 333 59005 69971;
0121822800999991998052312004-02533-044283FM-12+005199999V0209999999999105001CN0200001N1+02901+02411101351ADDAA124010091AG10000GF106991041021004501001021KA1240N+02551MA1999999100771MD1999999-0011REMSYN023 333 20255 59001 60104;
0124822800999991998052318004-02533-044283FM-12+005199999V0209999999999045001CN0200001N1+02901+02501101021ADDAA106006091AG10005AY161061AY221061GF106991041021004501051001MA1999999100441MD1999999-0031MW1011REMSYN017 333 59003 60061;
0121822800999991998052412004-02533-044283FM-12+005199999V0209999999999220001CN0200001N1+02941+02481101251ADDAA124006091AG10000GF102991021011008001001001KA1240N+02481MA1999999100671MD1999999-0101REMSYN023 333 20248 59010 60064;
0115822800999991998052512004-02533-044283FM-12+005199999V0209999999999220001CN0200001N1+02961+02601101231ADDAA106000091AG10000GF103991031021004501001001KA1240N+02531MA1999999100651MD1999999-0021REMSYN017 333 20253 59002;
0096822800999991998052518004-02533-044283FM-12+005199999V0209999999999220001CN0200001N1+03321+02521100851ADDAA106000091AG10000GF104991031021004501031001MA1999999100271MD1999999-0031REMSYN011 333 59003;
0115822800999991998052600004-02533-044283FM-12+005199999V0209999999999220001CN0200001N1+02681+02461101101ADDAA106000091AG10000GF104991021011008001051001KA1240M+03361MA1999999100521MD1999999-0021REMSYN017 333 10336 59002;
0115822800999991998052612004-02533-044283FM-12+005199999V0209999999999004201CN0200001N1+03001+02601101231ADDAA106000091AG10000GF105991051021004501001001KA1240N+02511MA1999999100651MD1999999+0001REMSYN017 333 20251 58000;
0096822800999991998052618004-02533-044283FM-12+005199999V0209999999999045001CN0200001N1+03121+02511100981ADDAA106000091AG10000GF106991041021004501051001MA1999999100401MD1999999+0131REMSYN011 333 58013;
0115822800999991998052712004-02533-044283FM-12+005199999V0209999999999220001CN0200001N1+03001+02461101211ADDAA106000091AG10000GF103991031021004501001001KA1240N+02491MA1999999100631MD1999999-0021REMSYN017 333 20249 59002;
0096822800999991998052718004-02533-044283FM-12+005199999V0209999999999220001CN0200001N1+03221+02371101021ADDAA106000091AG10000GF104991041021004501001001MA1999999100441MD1999999+0041REMSYN011 333 58004;
0115822800999991998052812004-02533-044283FM-12+005199999V0209999999999220001CN0200001N1+02981+02581101281ADDAA106000091AG10000GF103991021021004501031001KA1240N+02481MA1999999100701MD1999999+0071REMSYN017 333 20248 58007;
0096822800999991998052818004-02533-044283FM-12+005199999V0209999999999004201CN0200001N1+03121+02581101001ADDAA106000091AG10000GF106991051021004501031001MA1999999100421MD1999999-0021REMSYN011 333 59002;
0115822800999991998052912004-02533-044283FM-12+005199999V0209999999999004201CN0200001N1+02901+02521101131ADDAA106000091AG10000GF105991051021004501001001KA1240N+02491MA1999999100551MD1999999-0151REMSYN017 333 20249 59015;
0096822800999991998052918004-02533-044283FM-12+005199999V0209999999999220001CN0200001N1+03141+02601101021ADDAA106000091AG10000GF104991041021004501001001MA1999999100041MD1999999+0021REMSYN011 333 58002;
0121822800999991998053112004-02533-044283FM-12+005199999V0209999999999220001CN0200001N1+02981+02581101371ADDAA124003091AG10000GF104991021011008001031011KA1240N+02481MA1999999100791MD1999999+0141REMSYN023 333 20248 58014 60034;
0124822800999991998053118004-02533-044283FM-12+005199999V0209999999999045001CN0200001N1+03061+02591101101ADDAA106001091AG10005AY161061AY211061GF106991031021004501031011MA1999999100521MD1999999+0101MW1021REMSYN017 333 58010 60011;
0121822800999991998060112004-02533-044283FM-12+005199999V0209999999999004201CN0200001N1+02961+02561101331ADDAA124001091AG10000GF105991051021004501001001KA1240N+02511MA1999999100751MD1999999-0041REMSYN023 333 20251 59004 60014;
0096822800999991998060118004-02533-044283FM-12+005199999V0209999999999220001CN0200001N1+03161+02621101141ADDAA106000091AG10000GF103991031011004501001001MA1999999100561MD1999999+0041REMSYN011 333 58004;
0115822800999991998060212004-02533-044283FM-12+005199999V0209999999999004201CN0200001N1+03001+02511101491ADDAA106000091AG10000GF105991051021004501001001KA1240N+02511MA1999999100911MD1999999+0161REMSYN017 333 20251 58016;
0096822800999991998060218004-02533-044283FM-12+005199999V0209999999999220001CN0200001N1+03221+02601101161ADDAA106000091AG10000GF103991031021004501001001MA1999999100581MD1999999+0021REMSYN011 333 58002;
0115822800999991998060312004-02533-044283FM-12+005199999V0209999999999045001CN0200001N1+02821+02401101531ADDAA106000091AG10000GF106991031021004501031011KA1240N+02501MA1999999100951MD1999999+0041REMSYN017 333 20250 58004;
0096822800999991998060318004-02533-044283FM-12+005199999V0209999999999045001CN0200001N1+03221+02501101211ADDAA106000091AG10000GF105991031021004501031011MA1999999100631MD1999999+0051REMSYN011 333 58005;
0115822800999991998060412004-02533-044283FM-12+005199999V0209999999999105001CN0200001N1+02861+02461101451ADDAA106000091AG10000GF106991041021004501001021KA1240N+02371MA1999999100871MD1999999-0081REMSYN017 333 20237 59008;
0096822800999991998060418004-02533-044283FM-12+005199999V0209999999999045001CN0200001N1+02861+02391101231ADDAA106000091AG10000GF106991041051004501031001MA1999999100651MD1999999+0021REMSYN011 333 58002;
0115822800999991998060512004-02533-044283FM-12+005199999V0209999999999220001CN0200001N1+02901+02501101451ADDAA106000091AG10000GF102991021021004501001001KA1240N+02341MA1999999100871MD1999999+0001REMSYN017 333 20234 58000;
0124822800999991998060518004-02533-044283FM-12+005199999V0209999999999045001CN0200001N1+02761+02401101121ADDAA106017091AG10005AY161061AY221061GF106991041021004501051001MA1999999100541MD1999999-0111MW1011REMSYN017 333 59011 60171;
0143822800999991998060612004-02533-044283FM-12+005199999V0209999999999045001CN0200001N1+02701+02541101501ADDAA124028091AG10000AY121061AY211061GF108991041051004501021999KA1240N+02461MA1999999100291MD1999999+0051MW1911REMSYN023 333 20246 58005 60284;
0124822800999991998060618004-02533-044283FM-12+005199999V0209999999999045001CN0200001N1+02941+02471101191ADDAA106002091AG10005AY161061AY221061GF107991031021004501031021MA1999999100611MD1999999+0071MW1021REMSYN017 333 58007 60021;
0115822800999991998060812004-02533-044283FM-12+005199999V0209999999999045001CN0200001N1+02821+02441101251ADDAA106000091AG10000GF106991041021004501031001KA1240N+02481MA1999999100671MD1999999-0101REMSYN017 333 20248 59010;
0096822800999991998060818004-02533-044283FM-12+005199999V0209999999999045001CN0200001N1+03161+02501101041ADDAA106000091AG10000GF105991041021004501051001MA1999999100461MD1999999-0061REMSYN011 333 59006;
0115822800999991998060912004-02533-044283FM-12+005199999V0209999999999004201CN0200001N1+02861+02521101281ADDAA106000091AG10000GF105991051021004501001001KA1240N+02431MA1999999100701MD1999999+0031REMSYN017 333 20243 58003;
0096822800999991998060918004-02533-044283FM-12+005199999V0209999999999220001CN0200001N1+03121+02511101041ADDAA106000091AG10000GF104991021021004501001041MA1999999100511MD1999999+0001REMSYN011 333 58000;
0115822800999991998061012004-02533-044283FM-12+005199999V0209999999999045001CN0200001N1+02941+02541101231ADDAA106000091AG10000GF106991041021004501031001KA1240N+02351MA1999999100651MD1999999-0051REMSYN017 333 20235 59005;
0096822800999991998061018004-02533-044283FM-12+005199999V0209999999999004201CN0200001N1+03181+02521100981ADDAA106000091AG10000GF106991051021004501051001MA1999999100401MD1999999-0061REMSYN011 333 59006;
0115822800999991998061112004-02533-044283FM-12+005199999V0209999999999045001CN0200001N1+02921+02521101251ADDAA106000091AG10000GF105991031021004501011001KA1240N+02451MA1999999100671MD1999999+0021REMSYN017 333 20245 58002;
0096822800999991998061118004-02533-044283FM-12+005199999V0209999999999045001CN0200001N1+03101+02511101061ADDAA106000091AG10000GF106991031021004501031021MA1999999100481MD1999999+0081REMSYN011 333 58008;
0159822800999991998061200004-02533-044283FM-12+005199999V0209999999999220001CN0200001N1+02541+02441101301ADDAA106002091AG10005AY161061AY211061GA1001+999999999GF100991001001999999001001KA1240M+03281MA1999999100721MD1999999+0091MW1021REMSYN023 333 10328 58009 60021;
0143822800999991998061212004-02533-044283FM-12+005199999V0209999999999045001CN0200001N1+02661+02501101511ADDAA124002091AG10005AY161061AY221061GF107991031051008001031021KA1240N+02481MA1999999100931MD1999999+0261MW1021REMSYN023 333 20248 58026 60024;
0096822800999991998061218004-02533-044283FM-12+005199999V0209999999999220001CN0200001N1+03061+02451101191ADDAA106000091AG10000GF103991011021004501031041MA1999999100611MD1999999+0131REMSYN011 333 58013;
0143822800999991998061312004-02533-044283FM-12+005199999V0209999999999045001CN0200001N1+02761+02481101351ADDAA124000391AG10000AY121061AY221061GF106991041051004501031001KA1240N+02511MA1999999100771MD1999999-0161MW1211REMSYN023 333 20251 59016 69934;
0096822800999991998061318004-02533-044283FM-12+005199999V0209999999999045001CN0200001N1+03031+02441101101ADDAA106000091AG10000GF106991041021004501051001MA1999999100521MD1999999-0091REMSYN011 333 59009;
0115822800999991998061412004-02533-044283FM-12+005199999V0209999999999004201CN0200001N1+02801+02481101351ADDAA106000091AG10000GF105991051021004501001001KA1240N+02531MA1999999100771MD1999999+0001REMSYN017 333 20253 58000;
0096822800999991998061418004-02533-044283FM-12+005199999V0209999999999220001CN0200001N1+03061+02541101151ADDAA106000091AG10000GF104991041021004501001001MA1999999100571MD1999999+0051REMSYN011 333 58005;
0143822800999991998061512004-02533-044283FM-12+005199999V0209999999999045001CN0200001N1+02861+02541101331ADDAA124001091AG10005AY161061AY221061GF106991031021004501031021KA1240N+02431MA1999999100751MD1999999-0021MW1021REMSYN023 333 20243 59002 60014;
0124822800999991998061518004-02533-044283FM-12+005199999V0209999999999045001CN0200001N1+02681+02461101051ADDAA106008091AG10005AY161061AY221061GF107991041051004501031011MA1999999100471MD1999999-0101MW1031REMSYN017 333 59010 60081;
0121822800999991998061612004-02533-044283FM-12+005199999V0209999999999004201CN0200001N1+02701+02431101261ADDAA124008091AG10000GF108991051061004501051999KA1240N+02451MA1999999100681MD1999999-0071REMSYN023 333 20245 59007 60084;
0124822800999991998061618004-02533-044283FM-12+005199999V0209999999999004201CN0200001N1+02761+02461101031ADDAA106016091AG10005AY161061AY221061GF108991051051004501031999MA1999999100451MD1999999-0021MW1171REMSYN017 333 59002 60161;
0143822800999991998061712004-02533-044283FM-12+005199999V0209999999999045001CN0200001N1+02801+02481101351ADDAA124024091AG10005AY161061AY221061GF105991031021004501051001KA1240N+02391MA1999999100771MD1999999+0091MW1011REMSYN023 333 20239 58009 60244;
0096822800999991998061718004-02533-044283FM-12+005199999V0209999999999220001CN0200001N1+03181+02471101001ADDAA106000091AG10000GF103991031021004501001001MA1999999100421MD1999999+0031REMSYN011 333 58003;
0115822800999991998061812004-02533-044283FM-12+005199999V0209999999999045001CN0200001N1+02761+02481101371ADDAA106000091AG10000GF107991031021004501031011KA1240N+02371MA1999999100781MD1999999+0011REMSYN017 333 20237 58001;
0124822800999991998061818004-02533-044283FM-12+005199999V0209999999999105001CN0200001N1+02801+02441101131ADDAA106000591AG10005AY161061AY211061GF106991021081004501031041MA1999999100551MD1999999+0131MW1911REMSYN017 333 58013 69941;
0143822800999991998061900004-02533-044283FM-12+005199999V0209999999999220001CN0200001N1+02241+02191101351ADDAA106021091AG10015AY191061AY261061GF102991011001012501031011KA1240M+03041MA1999999100761MD1999999+0191MW1011REMSYN023 333 10304 58019 60211;
0121822800999991998061912004-02533-044283FM-12+005199999V0209999999999045001CN0200001N1+02821+02541101341ADDAA124021091AG10000GF105991041021004501031001KA1240N+02211MA1999999100761MD1999999-0021REMSYN023 333 20221 59002 60214;
0124822800999991998061918004-02533-044283FM-12+005199999V0209999999999004201CN0200001N1+03001+02461101021ADDAA106005091AG10005AY161061AY221061GF107991051021004501051999MA1999999100441MD1999999-0111MW1021REMSYN017 333 59011 60051;
0115822800999991998062000004-02533-044283FM-12+005199999V0209999999999220001CN0200001N1+02581+02421101211ADDAA106000091AG10000GF103991031021004501001001KA1240M+03091MA1999999100631MD1999999-0131REMSYN017 333 10309 59013;
0124822800999991998062018004-02533-044283FM-12+005199999V0209999999999220001CN0200001N1+03001+02461101061ADDAA106000191AG10005AY161061AY221061GF104991041021004501001001MA1999999100481MD1999999+0041MW1011REMSYN017 333 58004 69911;
0131822800999991998062100004-02533-044283FM-12+005199999V0209999999999220001CN0200001N1+02581+02301101131ADDAA106000091AG10000GA1001+999999999GF100991001001999999001001KA1240M+03061MA1999999100551MD1999999-0081REMSYN017 333 10306 59008;
0121822800999991998062112004-02533-044283FM-12+005199999V0209999999999220001CN0200001N1+02861+02391101321ADDAA124000191AG10000GF104991041021004501001001KA1240N+02351MA1999999100741MD1999999-0011REMSYN023 333 20235 59001 69914;
0096822800999991998062118004-02533-044283FM-12+005199999V0209999999999220001CN0200001N1+03161+02521101041ADDAA106000091AG10000GF103991031021004501001001MA1999999100461MD1999999-0021REMSYN011 333 59002;
0131822800999991998062200004-02533-044283FM-12+005199999V0209999999999220001CN0200001N1+02521+02421101261ADDAA106000091AG10000GA1001+999999999GF100991001001999999001001KA1240M+03201MA1999999100681MD1999999+0131REMSYN017 333 10320 58013;
0115822800999991998062212004-02533-044283FM-12+005199999V0209999999999220001CN0200001N1+02841+02421101311ADDAA106000091AG10000GF103991031021004501001001KA1240N+02391MA1999999100731MD1999999-0011REMSYN017 333 20239 59001;
0096822800999991998062218004-02533-044283FM-12+005199999V0209999999999045001CN0200001N1+02961+02531100941ADDAA106000091AG10000GF106991041021008001031001MA1999999100361MD1999999-0101REMSYN011 333 59010;
0143822800999991998062312004-02533-044283FM-12+005199999V0209999999999004201CN0200001N1+02801+02501101211ADDAA124002091AG10005AY161061AY221061GF106991051021004501031001KA1240N+02451MA1999999100631MD1999999-0101MW1021REMSYN023 333 20245 59010 60024;
0124822800999991998062318004-02533-044283FM-12+005199999V0209999999999045001CN0200001N1+02861+02581101041ADDAA106007091AG10000AY111061AY221061GF106991041021004501051001MA1999999100461MD1999999+0101MW1211REMSYN017 333 58010 60071;
0159822800999991998062400004-02533-044283FM-12+005199999V0209999999999220001CN0200001N1+02481+02431101151ADDAA106013091AG10005AY161061AY211061GA1001+999999999GF100991001001999999001001KA1240M+03161MA1999999100571MD1999999+0021MW1011REMSYN023 333 10316 58002 60131;
0121822800999991998062412004-02533-044283FM-12+005199999V0209999999999045001CN0200001N1+02801+02481101321ADDAA124020091AG10000GF105991031021004501031001KA1240N+02351MA1999999100741MD1999999+0111REMSYN023 333 20235 58011 60204;
0096822800999991998062418004-02533-044283FM-12+005199999V0209999999999220001CN0200001N1+03141+02451101101ADDAA106000091AG10000GF102991021011008001001001MA1999999100521MD1999999+0061REMSYN011 333 58006;
0131822800999991998062500004-02533-044283FM-12+005199999V0209999999999220001CN0100001N1+02521+02421101321ADDAA106000091AG10000GA1001+999999999GF100991001001999999001001KA1240M+03181MA1999999100741MD1999999+0171REMSYN017 333 10318 58017;
0115822800999991998062512004-02533-044283FM-12+005199999V0209999999999045001CN0200001N1+02861+02461101451ADDAA106000091AG10000GF106991041021004501051001KA1240N+02341MA1999999100871MD1999999+0131REMSYN017 333 20234 58013;
0096822800999991998062518004-02533-044283FM-12+005199999V0209999999999004201CN0200001N1+03061+02521101161ADDAA106000091AG10000GF105991051021004501001001MA1999999100581MD1999999+0061REMSYN011 333 58006;
0115822800999991998062600004-02533-044283FM-12+005199999V0209999999999220001CN0200001N1+02461+02271101401ADDAA106000091AG10000GF104991041021004501001001KA1240M+03121MA1999999100821MD1999999+0081REMSYN017 333 10312 58008;
0115822800999991998062612004-02533-044283FM-12+005199999V0209999999999045001CN0200001N1+02881+02501101431ADDAA106000091AG10000GF106991041021004501051001KA1240N+02331MA1999999100851MD1999999-0021REMSYN017 333 20233 59002;
0096822800999991998062618004-02533-044283FM-12+005199999V0209999999999045001CN0200001N1+02981+02371101181ADDAA106000091AG10000GF106991041021004501051001MA1999999100601MD1999999-0021REMSYN011 333 59002;
0159822800999991998062700004-02533-044283FM-12+005199999V0209999999999220001CN0200001N1+02501+02411101251ADDAA106003091AG10015AY191061AY261061GA1001+999999999GF100991001001999999001001KA1240M+03011MA1999999100671MD1999999-0151MW1011REMSYN023 333 10301 59015 60031;
0121822800999991998062712004-02533-044283FM-12+005199999V0209999999999220001CN0200001N1+02841+02481101471ADDAA124003091AG10000GF104991041021004501001001KA1240N+02471MA1999999100891MD1999999+0041REMSYN023 333 20247 58004 60034;
0124822800999991998062718004-02533-044283FM-12+005199999V0209999999999220001CN0200001N1+03081+02521101241ADDAA106001091AG10005AY161061AY211061GF102991011021004501031001MA1999999100661MD1999999+0061MW1011REMSYN017 333 58006 60011;
0115822800999991998062800004-02533-044283FM-12+005199999V0209999999999220001CN0200001N1+02531+02421101461ADDAA106000091AG10000GF101991011001012501031001KA1240M+03141MA1999999100831MD1999999+0161REMSYN017 333 10314 58016;
0096822800999991998062818004-02533-044283FM-12+005199999V0209999999999220001CN0200001N1+03301+02471101151ADDAA106000091AG10000GF103991031021004501001001MA1999999100571MD1999999-0091REMSYN011 333 59009;
0131822800999991998062900004-02533-044283FM-12+005199999V0209999999999220001CN0200001N1+02561+02401101271ADDAA106000091AG10000GA1001+999999999GF100991001001999999001001KA1240M+03321MA1999999100691MD1999999-0141REMSYN017 333 10332 59014;
0115822800999991998062912004-02533-044283FM-12+005199999V0209999999999045001CN0200001N1+02801+02381101451ADDAA106000091AG10000GF106991041021004501051001KA1240N+02391MA1999999100871MD1999999+0001REMSYN017 333 20239 58000;
0124822800999991998062918004-02533-044283FM-12+005199999V0209999999999220001CN0200001N1+03181+02311101201ADDAA106000191AG10005AY161061AY221061GF104991041021004501001001MA1999999100621MD1999999+0051MW1021REMSYN017 333 58005 69911;
0115822800999991998063000004-02533-044283FM-12+005199999V0209999999999220001CN0200001N1+02541+02401101411ADDAA106000091AG10000GF101991011011008001001001KA1240M+03201MA1999999100831MD1999999+0141REMSYN017 333 10320 58014;
0143822800999991998063012004-02533-044283FM-12+005199999V0209999999999004201CN0200001N1+02881+02561101451ADDAA106000191AG10005AY161061AY211061GF106991051021004501051001KA1240N+02391MA1999999100871MD1999999+0001MW1021REMSYN023 333 20239 58000 69921;
0096822800999991998063018004-02533-044283FM-12+005199999V0209999999999045001CN0200001N1+02981+02471101181ADDAA106000091AG10000GF107991041021004501031001MA1999999100601MD1999999-0021REMSYN011 333 59002;
0115822800999991998070100004-02533-044283FM-12+005199999V0209999999999220001CN0200001N1+02581+02481101391ADDAA106000091AG10000GF101991011011008001001001KA1240M+03161MA1999999100811MD1999999-0021REMSYN017 333 10316 59002;
0115822800999991998070112004-02533-044283FM-12+005199999V0209999999999045001CN0200001N1+02801+02481101471ADDAA106000091AG10000GF107991031021004501031001KA1240N+02351MA1999999100891MD1999999+0021REMSYN017 333 20235 58002;
0124822800999991998070118004-02533-044283FM-12+005199999V0209999999999045001CN0200001N1+03001+02441101251ADDAA106000191AG10005AY161061AY221061GF106991031021004501051001MA1999999100671MD1999999+0071MW1011REMSYN017 333 58007 69921;
0115822800999991998070200004-02533-044283FM-12+005199999V0209999999999004201CN0200001N1+02541+02321101471ADDAA106000091AG10000GF105991051021004501001001KA1240M+03121MA1999999100891MD1999999+0081REMSYN017 333 10312 58008;
0096822800999991998070218004-02533-044283FM-12+005199999V0209999999999045001CN0200001N1+03041+02361101221ADDAA106000091AG10000GF105991031021004501031001MA1999999100641MD1999999-0031REMSYN011 333 59003;
0115822800999991998070300004-02533-044283FM-12+005199999V0209999999999220001CN0200001N1+02501+02401101351ADDAA106000091AG10000GF101991011011008001001001KA1240M+03151MA1999999100771MD1999999-0121REMSYN017 333 10315 59012;
0115822800999991998070312004-02533-044283FM-12+005199999V0209999999999004201CN0200001N1+02841+02421101351ADDAA106000091AG10000GF105991051021004501001001KA1240N+02391MA1999999100771MD1999999+0121REMSYN017 333 20239 58012;
0096822800999991998070318004-02533-044283FM-12+005199999V0209999999999004201CN0200001N1+03041+02481101071ADDAA106000091AG10000GF105991051021004501001001MA1999999100491MD1999999-0151REMSYN011 333 59015;
0115822800999991998070400004-02533-044283FM-12+005199999V0209999999999220001CN0200001N1+02541+02401101201ADDAA106000091AG10000GF101991011011008001001001KA1240M+03121MA1999999100621MD1999999-0151REMSYN017 333 10312 59015;
0115822800999991998070412004-02533-044283FM-12+005199999V0209999999999045001CN0200001N1+02801+02341101361ADDAA106000091AG10000GF106991041021004501031041KA1240N+02481MA1999999100781MD1999999+0011REMSYN017 333 20248 58001;
0096822800999991998070418004-02533-044283FM-12+005199999V0209999999999220001CN0200001N1+03061+02431101101ADDAA106000091AG10000GF103991031021004501001001MA1999999100521MD1999999+0031REMSYN011 333 58003;
0131822800999991998070500004-02533-044283FM-12+005199999V0209999999999220001CN0100001N1+02501+02311101231ADDAA106000091AG10000GA1001+999999999GF100991001001999999001001KA1240M+03181MA1999999100651MD1999999+0061REMSYN017 333 10318 58006;
0115822800999991998070512004-02533-044283FM-12+005199999V0209999999999220001CN0200001N1+02801+02311101351ADDAA106000091AG10000GF104991041021004501001001KA1240N+02391MA1999999100771MD1999999-0011REMSYN017 333 20239 59001;
0096822800999991998070518004-02533-044283FM-12+005199999V0209999999999004201CN0200001N1+03121+02481101151ADDAA106000091AG10000GF105991051021004501001001MA1999999100571MD1999999+0051REMSYN011 333 58005;
0115822800999991998070600004-02533-044283FM-12+005199999V0209999999999045001CN0200001N1+02541+02401101241ADDAA106000091AG10000GF107991041051004501031001KA1240M+03161MA1999999100661MD1999999+0011REMSYN017 333 10316 58001;
0115822800999991998070612004-02533-044283FM-12+005199999V0209999999999105001CN0200001N1+02871+02441101361ADDAA106000091AG10000GF105991021021004501031041KA1240N+02361MA1999999100781MD1999999+0011REMSYN017 333 20236 58001;
0124822800999991998070618004-02533-044283FM-12+005199999V0209999999999045001CN0100001N1+02381+02291101231ADDAA106048091AG10005AY161061AY221061GF108991041071004501021999MA1999999100651MD1999999+0081MW1951REMSYN017 333 58008 60481;
0143822800999991998070700004-02533-044283FM-12+005199999V0209999999999007501CN0200001N1+02361+02311101331ADDAA106021091AG10005AY161061AY261061GF108991081051008001999999KA1240M+03001MA1999999100751MD1999999+0091MW1021REMSYN023 333 10300 58009 60211;
0143822800999991998070712004-02533-044283FM-12+005199999V0209999999999004201CN0200001N1+02721+02501101321ADDAA124070091AG10005AY161061AY221061GF105991051021004501001001KA1240N+02341MA1999999100741MD1999999-0041MW1021REMSYN023 333 20234 59004 60704;
0124822800999991998070718004-02533-044283FM-12+005199999V0209999999999004201CN0020001N1+02521+02381101151ADDAA106010091AG10000AY101061AY221061GF108991081071004501999999MA1999999100571MD1999999-0081MW1921REMSYN017 333 59008 60101;
0143822800999991998070800004-02533-044283FM-12+005199999V0209999999999220001CN0200001N1+02241+02191101251ADDAA106012091AG10005AY161061AY221061GF104991021001012501021021KA1240M+03001MA1999999100661MD1999999-0091MW1021REMSYN023 333 10300 59009 60121;
0121822800999991998070812004-02533-044283FM-12+005199999V0209999999999220001CN0200001N1+02801+02501101311ADDAA124023091AG10000GF106991041021004501001011KA1240N+02221MA1999999100721MD1999999-0021REMSYN023 333 20222 59002 60234;
0118822800999991998070818004-02533-044283FM-12+005199999V0209999999999045001CN0200001N1+02961+02511101081ADDAA106000091AG10000AY111061AY201061GF105991031031004501061001MA1999999100501MD1999999-0071MW1171REMSYN011 333 59007;
0115822800999991998070912004-02533-044283FM-12+005199999V0209999999999045001CN0200001N1+02761+02401101371ADDAA106000091AG10000GF105991041021004501031001KA1240N+02451MA1999999100891MD1999999+0171REMSYN017 333 20245 58017;
0096822800999991998070918004-02533-044283FM-12+005199999V0209999999999004201CN0200001N1+02961+02531101301ADDAA106000091AG10000GF105991051021004501001001MA1999999100721MD1999999+0221REMSYN011 333 58022;
0131822800999991998071000004-02533-044283FM-12+005199999V0209999999999220001CN0200001N1+02461+02271101331ADDAA106000091AG10000GA1001+999999999GF100991001001999999001001KA1240M+03061MA1999999100751MD1999999+0071REMSYN017 333 10306 58007;
0115822800999991998071012004-02533-044283FM-12+005199999V0209999999999004201CN0200001N1+02781+02461101501ADDAA106000091AG10000GF106991051021004501031001KA1240N+02401MA1999999100921MD1999999+0031REMSYN017 333 20240 58003;
0124822800999991998071018004-02533-044283FM-12+005199999V0209999999999045001CN0200001N1+02981+02531101231ADDAA106004091AG10005AY161061AY211061GF105991041021004501031001MA1999999100651MD1999999-0071MW1021REMSYN017 333 59007 60041;
0115822800999991998071100004-02533-044283FM-12+005199999V0209999999999220001CN0200001N1+02521+02381101401ADDAA106000091AG10000GF102991011011008001001041KA1240M+03021MA1999999100821MD1999999+0071REMSYN017 333 10302 58007;
0121822800999991998071112004-02533-044283FM-12+005199999V0209999999999004201CN0200001N1+02821+02461101521ADDAA124004091AG10000GF105991051021004501001001KA1240N+02341MA1999999100941MD1999999+0021REMSYN023 333 20234 58002 60044;
0096822800999991998071118004-02533-044283FM-12+005199999V0209999999999004201CN0200001N1+03021+02501101261ADDAA106000091AG10000GF105991051021004501001001MA1999999100681MD1999999+0031REMSYN011 333 58003;
0143822800999991998071212004-02533-044283FM-12+005199999V0209999999999045001CN0200001N1+02801+02481101511ADDAA124000591AG10005AY161061AY211061GF106991041021004501031041KA1240N+02421MA1999999100931MD1999999-0011MW1031REMSYN023 333 20242 59001 69944;
0115822800999991998071300004-02533-044283FM-12+005199999V0209999999999220001CN0200001N1+02521+02431101451ADDAA106000091AG10000GF104991031061004501031001KA1240M+02981MA1999999100871MD1999999+0001REMSYN017 333 10298 58000;
0121822800999991998071312004-02533-044283FM-12+005199999V0209999999999220001CN0200001N1+02521+02421101561ADDAA124021091AG10000GF104991041021004501001001KA1240N+02371MA1999999100981MD1999999+0051REMSYN023 333 20237 58005 60214;
0096822800999991998071318004-02533-044283FM-12+005199999V0209999999999045001CN0200001N1+02981+02421101211ADDAA106000091AG10000GF106991041051004501021001MA1999999100631MD1999999-0021REMSYN011 333 59002;
0115822800999991998071400004-02533-044283FM-12+005199999V0209999999999220001CN0200001N1+02521+02211101351ADDAA106000091AG10000GF102991021011008001001001KA1240M+03041MA1999999100771MD1999999-0101REMSYN017 333 10304 59010;
0115822800999991998071412004-02533-044283FM-12+005199999V0209999999999220001CN0200001N1+02761+02381101481ADDAA106000091AG10000GF103991021021004501031001KA1240N+02411MA1999999100901MD1999999-0091REMSYN017 333 20241 59009;
0096822800999991998071418004-02533-044283FM-12+005199999V0209999999999220001CN0200001N1+03041+02411101251ADDAA106000091AG10000GF104991021021004501031011MA1999999100671MD1999999+0041REMSYN011 333 58004;
0115822800999991998071500004-02533-044283FM-12+005199999V0209999999999045001CN0200001N1+02561+02401101351ADDAA106000091AG10000GF108991021021004501031999KA1240M+03101MA1999999100771MD1999999+0001REMSYN017 333 10310 58000;
0134822800999991998071512004-02533-044283FM-12+005199999V02099999999999999999N0200001N1+02741+02401101371ADDAA106000091AG10000GF106991999021004501001001KA1240N+02311MA1999999100791MD1999999-0111REMSYN017 333 20231 59011;EQDQ01+000042SCOTLC
0124822800999991998071518004-02533-044283FM-12+005199999V0209999999999045001CN0200001N1+02801+02381101161ADDAA106000591AG10005AY161061AY221061GF106991041051004501031001MA1999999100581MD1999999-0091MW1011REMSYN017 333 59009 69961;
0121822800999991998071712004-02533-044283FM-12+005199999V0209999999999004201CN0200001N1+02781+02461101351ADDAA124001091AG10000GF106991061021004501001001KA1240N+02421MA1999999100771MD1999999-0041REMSYN023 333 20242 59004 69984;
0124822800999991998071718004-02533-044283FM-12+005199999V0209999999999045001CN0200001N1+02781+02421101091ADDAA106025091AG10005AY161061AY221061GF106991031051008001031001MA1999999100511MD1999999-0051MW1011REMSYN017 333 59005 60251;
0143822800999991998071800004-02533-044283FM-12+005199999V0209999999999220001CN0200001N1+02381+02331101191ADDAA106008091AG10005AY161061AY221061GF101991011001012501031001KA1240M+03051MA1999999100611MD1999999-0061MW1011REMSYN023 333 10305 59006 60081;
0121822800999991998071812004-02533-044283FM-12+005199999V0209999999999220001CN0200001N1+02781+02421101341ADDAA124033091AG10000GF104991031021004501031001KA1240N+02341MA1999999100761MD1999999-0011REMSYN023 333 20234 59001 60334;
0096822800999991998071818004-02533-044283FM-12+005199999V0209999999999220001CN0200001N1+03121+02481101011ADDAA106000091AG10000GF102991021011008001001001MA1999999100431MD1999999-0081REMSYN011 333 59008;
0115822800999991998071912004-02533-044283FM-12+005199999V0209999999999220001CN0200001N1+02841+02421101351ADDAA106000091AG10000GF102991011011008001051001KA1240N+02351MA1999999100771MD1999999+0011REMSYN017 333 20235 58001;
0096822800999991998071918004-02533-044283FM-12+005199999V0209999999999220001CN0200001N1+02981+02491101101ADDAA106000091AG10000GF103991031021004501001001MA1999999100521MD1999999+0091REMSYN011 333 58009;
0115822800999991998072000004-02533-044283FM-12+005199999V0209999999999220001CN0200001N1+02601+02401101271ADDAA106000091AG10000GF101991011021004501001001KA1240M+03161MA1999999100691MD1999999-0011REMSYN017 333 10316 59001;
0115822800999991998072012004-02533-044283FM-12+005199999V0209999999999045001CN0200001N1+02801+02441101411ADDAA106000091AG10000GF105991031021004501031001KA1240N+02521MA1999999100831MD1999999+0061REMSYN017 333 20252 58006;
0096822800999991998072018004-02533-044283FM-12+005199999V0209999999999220001CN0200001N1+03161+02471101061ADDAA106000091AG10000GF102991011021004501001041MA1999999100481MD1999999-0041REMSYN011 333 59004;
0115822800999991998072112004-02533-044283FM-12+005199999V0209999999999004201CN0200001N1+02801+02441101361ADDAA106000091AG10000GF106991051021004501001011KA1240N+02391MA1999999100781MD1999999-0051REMSYN017 333 20239 59005;
0096822800999991998072118004-02533-044283FM-12+005199999V0209999999999220001CN0200001N1+02961+02451101091ADDAA106000091AG10000GF104991041021004501001001MA1999999100511MD1999999+0031REMSYN011 333 58003;
0131822800999991998072200004-02533-044283FM-12+005199999V0209999999999220001CN0200001N1+02401+02301101171ADDAA106000091AG10000GA1001+999999999GF100991001001999999001001KA1240M+03191MA1999999100591MD1999999-0091REMSYN017 333 10319 59009;
0115822800999991998072212004-02533-044283FM-12+005199999V0209999999999220001CN0200001N1+02841+02381101291ADDAA106000091AG10000GF103991031021004501001001KA1240N+02291MA1999999100711MD1999999-0071REMSYN017 333 20229 59007;
0115822800999991998072300004-02533-044283FM-12+005199999V0209999999999220001CN0200001N1+02521+02381101081ADDAA106000091AG10000GF102991011011008001031001KA1240M+03201MA1999999100501MD1999999-0091REMSYN017 333 10320 59009;
0115822800999991998072312004-02533-044283FM-12+005199999V0209999999999004201CN0200001N1+02721+02391101351ADDAA106000091AG10000GF106991061021004501001001KA1240N+02411MA1999999100771MD1999999+0061REMSYN017 333 20241 58006;
0096822800999991998072318004-02533-044283FM-12+005199999V0209999999999220001CN0009001N1+03021+02391101001ADDAA106000091AG10000GF104991031021004501001041MA1999999100421MD1999999+0091REMSYN011 333 58009;
0115822800999991998072400004-02533-044283FM-12+005199999V0209999999999220001CN0200001N1+02461+02361101131ADDAA106000091AG10000GF101991011011008001001001KA1240M+03151MA1999999100551MD1999999+0051REMSYN017 333 10315 58005;
0115822800999991998072412004-02533-044283FM-12+005199999V0209999999999220001CN0200001N1+02781+02361101351ADDAA106000091AG10000GF105991041021004501001011KA1240N+02311MA1999999100771MD1999999+0001REMSYN017 333 20231 58000;
0096822800999991998072418004-02533-044283FM-12+005199999V0209999999999220001CN0200001N1+03001+02461101031ADDAA106000091AG10000GF104991021021004501031011MA1999999100451MD1999999+0031REMSYN011 333 58003;
0131822800999991998072500004-02533-044283FM-12+005199999V0209999999999220001CN0200001N1+02361+02281101221ADDAA106000091AG10000GA1001+999999999GF100991001001999999001001KA1240M+03121MA1999999100641MD1999999+0091REMSYN017 333 10312 58009;
0115822800999991998072512004-02533-044283FM-12+005199999V0209999999999004201CN0200001N1+02781+02321101251ADDAA106000091AG10000GF105991051021004501001001KA1240N+02331MA1999999100671MD1999999-0101REMSYN017 333 20233 59010;
0115822800999991998072600004-02533-044283FM-12+005199999V0209999999999220001CN0200001N1+02441+02351101211ADDAA106000091AG10000GF101991011011008001001001KA1240M+03201MA1999999100631MD1999999-0011REMSYN017 333 10320 59001;
0115822800999991998072612004-02533-044283FM-12+005199999V0209999999999220001CN0200001N1+02841+02481101311ADDAA106000091AG10000GF104991031021004501001011KA1240N+02271MA1999999100731MD1999999+0061REMSYN017 333 20227 58006;
0096822800999991998072618004-02533-044283FM-12+005199999V0209999999999220001CN0200001N1+02961+02471101031ADDAA106000091AG10000GF105991041021004501001041MA1999999100451MD1999999-0071REMSYN011 333 59007;
0115822800999991998072700004-02533-044283FM-12+005199999V0209999999999220001CN0200001N1+02541+02401101171ADDAA106000091AG10000GF102991021011008001001001KA1240M+03191MA1999999100591MD1999999-0061REMSYN017 333 10319 59006;
0115822800999991998072712004-02533-044283FM-12+005199999V0209999999999004201CN0200001N1+02821+02441101341ADDAA106000091AG10000GF106991061021004501001001KA1240N+02821MA1999999100761MD1999999+0031REMSYN017 333 20282 58003;
0096822800999991998072718004-02533-044283FM-12+005199999V0209999999999220001CN0200001N1+02961+02471101121ADDAA106000091AG10000GF104991041021004501001001MA1999999100541MD1999999+0091REMSYN011 333 58009;
0115822800999991998072800004-02533-044283FM-12+005199999V0209999999999045001CN0200001N1+02561+02401101241ADDAA106000091AG10000GF107991021021004501031001KA1240M+03131MA1999999100661MD1999999+0071REMSYN017 333 10313 58007;
0143822800999991998072812004-02533-044283FM-12+005199999V0209999999999045001CN0200001N1+02761+02461101351ADDAA124000191AG10005AY161061AY221061GF106991041021004501031001KA1240N+02511MA1999999100771MD1999999+0011MW1011REMSYN023 333 20251 58001 69924;
0124822800999991998072818004-02533-044283FM-12+005199999V0209999999999220001CN0200001N1+03041+02501101111ADDAA106000391AG10005AY161061AY221061GF104991041021004501001001MA1999999100531MD1999999-0011MW1021REMSYN017 333 59001 69931;
0115822800999991998072900004-02533-044283FM-12+005199999V0209999999999004201CN0200001N1+02601+02391101311ADDAA106000091AG10000GF105991051051004501001001KA1240M+03141MA1999999100731MD1999999+0071REMSYN017 333 10314 58007;
0121822800999991998072912004-02533-044283FM-12+005199999V0209999999999004201CN0200001N1+02831+02401101351ADDAA124000391AG10000GF106991051021004501051001KA1240N+02511MA1999999100771MD1999999+0001REMSYN023 333 20251 58000 69934;
0096822800999991998072918004-02533-044283FM-12+005199999V0209999999999220001CN0200001N1+03081+02521101001ADDAA106000091AG10000GF104991041021004501001001MA1999999100421MD1999999-0111REMSYN011 333 59011;
0096822800999991998073018004-02533-044283FM-12+005199999V0209999999999045001CN0200001N1+03041+02481101141ADDAA106000091AG10000GF105991041021004501011001MA1999999100561MD1999999+0141REMSYN011 333 58014;
0115822800999991998073100004-02533-044283FM-12+005199999V0209999999999220001CN0200001N1+02581+02331101281ADDAA106000091AG10000GF103991031021004501001001KA1240M+03121MA1999999100701MD1999999-0061REMSYN017 333 10312 59006;
0115822800999991998073112004-02533-044283FM-12+005199999V0209999999999220001CN0200001N1+02901+02411101351ADDAA106000091AG10000GF103991031021004501001001KA1240N+02421MA1999999100771MD1999999-0041REMSYN017 333 20242 59004;
0096822800999991998073118004-02533-044283FM-12+005199999V0209999999999220001CN0200001N1+03001+02391101141ADDAA106000091AG10000GF104991031021004501051001MA1999999100561MD1999999+0001REMSYN011 333 58000;
0143822800999991998080112004-02533-044283FM-12+005199999V0209999999999045001CN0200001N1+02821+02441101361ADDAA124002091AG10005AY161061AY221061GF105991041021004501031001KA1240N+02351MA1999999100781MD1999999+0011MW1021REMSYN023 333 20235 58001 60024;
0096822800999991998080118004-02533-044283FM-12+005199999V0209999999999045001CN0200001N1+03001+02511101041ADDAA106000091AG10000GF107991041051004501021001MA1999999100461MD1999999+0101REMSYN011 333 58010;
0115822800999991998080200004-02533-044283FM-12+005199999V0209999999999045001CN0200001N1+02601+02401101231ADDAA106000091AG10000GF106991021021004501051001KA1240M+03101MA1999999100651MD1999999-0071REMSYN017 333 10310 59007;
0115822800999991998080212004-02533-044283FM-12+005199999V0209999999999004201CN0200001N1+02781+02401101411ADDAA106000091AG10000GF108991061051004501031999KA1240N+02361MA1999999100831MD1999999+0051REMSYN017 333 20236 58005;
0096822800999991998080218004-02533-044283FM-12+005199999V0209999999999220001CN0200001N1+03121+02511101111ADDAA106000091AG10000GF103991031021004501001001MA1999999100531MD1999999+0071REMSYN011 333 58007;
0115822800999991998080300004-02533-044283FM-12+005199999V0209999999999220001CN0200001N1+02541+02331101221ADDAA106000091AG10000GF101991011011008001001001KA1240M+03171MA1999999100641MD1999999-0011REMSYN017 333 10317 59001;
0115822800999991998080312004-02533-044283FM-12+005199999V0209999999999004201CN0200001N1+02821+02381101351ADDAA106000091AG10000GF106991051021004501011001KA1240N+02421MA1999999100751MD1999999-0081REMSYN017 333 20242 59008;
0096822800999991998080318004-02533-044283FM-12+005199999V0209999999999045001CN0200001N1+03021+02461101121ADDAA106000091AG10000GF105991031021004501031001MA1999999100541MD1999999+0011REMSYN011 333 58001;
0115822800999991998080412004-02533-044283FM-12+005199999V0209999999999004201CN0200001N1+02881+02321101351ADDAA106000091AG10000GF105991051021004501001001KA1240N+02491MA1999999100771MD1999999+0021REMSYN017 333 20249 58002;
0124822800999991998080418004-02533-044283FM-12+005199999V0209999999999220001CN0200001N1+03061+02451101101ADDAA106000191AG10005AY161061AY211061GF103991031021004501001001MA1999999100521MD1999999-0021MW1011REMSYN017 333 59002 69911;
0115822800999991998080500004-02533-044283FM-12+005199999V0209999999999220001CN0200001N1+02501+02321101251ADDAA106000091AG10000GF101991011011008001001001KA1240M+03131MA1999999100671MD1999999-0051REMSYN017 333 10313 59005;
0121822800999991998080512004-02533-044283FM-12+005199999V0209999999999004201CN0200001N1+02801+02381101351ADDAA124000191AG10000GF106991051021004501031001KA1240N+02451MA1999999100771MD1999999+0001REMSYN023 333 20245 58000 69914;
0096822800999991998080518004-02533-044283FM-12+005199999V0209999999999220001CN0200001N1+03061+02451101001ADDAA106000091AG10000GF104991041021004501001001MA1999999100421MD1999999-0101REMSYN011 333 59010;
0115822800999991998080612004-02533-044283FM-12+005199999V0209999999999004201CN0200001N1+02841+02381101351ADDAA106000091AG10000GF106991051021004501031001KA1240N+02371MA1999999100771MD1999999+0001REMSYN017 333 20237 58000;
0096822800999991998080618004-02533-044283FM-12+005199999V02099999999990042019N0200001N1+02941+02331101051ADDAA106000091AG10000GF105991051021004501001001MA1999999100471MD1999999+0051REMSYN011 333 58005;
0115822800999991998080712004-02533-044283FM-12+005199999V0209999999999004201CN0200001N1+02861+02391101211ADDAA106000091AG10000GF105991051021004501001001KA1240N+02311MA1999999100631MD1999999-0141REMSYN017 333 20231 59014;
0096822800999991998080718004-02533-044283FM-12+005199999V0209999999999220001CN0200001N1+03061+02451101001ADDAA106000091AG10000GF103991031021004501001001MA1999999100421MD1999999-0051REMSYN011 333 59005;
0115822800999991998080800004-02533-044283FM-12+005199999V0209999999999220001CN0200001N1+02501+02311101091ADDAA106000091AG10000GF101991011011008001001001KA1240M+03161MA1999999100511MD1999999-0061REMSYN017 333 10316 59006;
0115822800999991998080812004-02533-044283FM-12+005199999V0209999999999004201CN0200001N1+02821+02441101351ADDAA106000091AG10000GF106991051021004501051001KA1240N+02391MA1999999100771MD1999999+0101REMSYN017 333 20239 58010;
0115822800999991998080912004-02533-044283FM-12+005199999V0209999999999220001CN0200001N1+02821+02331101311ADDAA106000091AG10000GF104991041021004501031031KA1240N+02391MA1999999100731MD1999999-0041REMSYN017 333 20239 59004;
0096822800999991998080918004-02533-044283FM-12+005199999V0209999999999220001CN0200001N1+03161+02371101081ADDAA106000091AG10000GF101991011011008001001001MA1999999100501MD1999999-0061REMSYN011 333 59006;
0115822800999991998081000004-02533-044283FM-12+005199999V0209999999999220001CN0200001N1+02541+02381101111ADDAA106000091AG10000GF102991021021004501001001KA1240M+03181MA1999999100531MD1999999-0101REMSYN017 333 10318 59010;
0115822800999991998081012004-02533-044283FM-12+005199999V0209999999999220001CN0200001N1+02881+02371101311ADDAA106000091AG10000GF104991041021004501001001KA1240N+02351MA1999999100731MD1999999+0001REMSYN017 333 20235 58000;
0124822800999991998081018004-02533-044283FM-12+005199999V0209999999999004201CN0200001N1+02801+02311101061ADDAA106001091AG10005AY161061AY221061GF107991051051004501031001MA1999999100481MD1999999-0021MW1011REMSYN017 333 59002 60011;
0115822800999991998081100004-02533-044283FM-12+005199999V0209999999999220001CN0200001N1+02601+02351101151ADDAA106000091AG10000GF102991021011008001001001KA1240M+03051MA1999999100571MD1999999+0041REMSYN017 333 10305 58004;
0121822800999991998081112004-02533-044283FM-12+005199999V0209999999999220001CN0200001N1+02861+02461101311ADDAA124001091AG10000GF104991041021004501001001KA1240N+02421MA1999999100731MD1999999+0001REMSYN023 333 20242 58000 69984;
0096822800999991998081118004-02533-044283FM-12+005199999V0209999999999004201CN0200001N1+03101+02411101101ADDAA106000091AG10000GF106991051021004501031001MA1999999100521MD1999999+0041REMSYN011 333 58004;
0115822800999991998081200004-02533-044283FM-12+005199999V0209999999999220001CN0200001N1+02621+02371101231ADDAA106000091AG10000GF103991031021004501001001KA1240M+03161MA1999999100651MD1999999-0081REMSYN017 333 10316 59008;
0115822800999991998081212004-02533-044283FM-12+005199999V0209999999999045001CN0200001N1+02761+02401101451ADDAA106000091AG10000GF106991041021004501051001KA1240N+02441MA1999999100871MD1999999+0141REMSYN017 333 20244 58014;
0096822800999991998081218004-02533-044283FM-12+005199999V0209999999999220001CN0200001N1+03061+02501101221ADDAA106000091AG10000GF103991031021004501001001MA1999999100641MD1999999+0121REMSYN011 333 58012;
0115822800999991998081300004-02533-044283FM-12+005199999V0209999999999220001CN0200001N1+02521+02311101231ADDAA106000091AG10000GF102991021011008001001001KA1240M+03141MA1999999100651MD1999999+0001REMSYN017 333 10314 58000;
0115822800999991998081312004-02533-044283FM-12+005199999V0209999999999004201CN0200001N1+02801+02381101311ADDAA106000091AG10000GF106991051021004501011001KA1240N+02491MA1999999100731MD1999999-0141REMSYN017 333 20249 59014;
0096822800999991998081318004-02533-044283FM-12+005199999V0209999999999220001CN0200001N1+03101+02361101001ADDAA106000091AG10000GF102991021011008001001001MA1999999100421MD1999999-0221REMSYN011 333 59022;
0131822800999991998081400004-02533-044283FM-12+005199999V0209999999999220001CN0200001N1+02621+02311101191ADDAA106000091AG10000GA1001+999999999GF100991001001999999001001KA1240M+03181MA1999999100611MD1999999-0041REMSYN017 333 10318 59004;
0115822800999991998081412004-02533-044283FM-12+005199999V0209999999999220001CN0200001N1+02801+02311101151ADDAA106000091AG10000GF103991031021004501001001KA1240N+02501MA1999999100571MD1999999-0161REMSYN017 333 20250 59016;
0115822800999991998081512004-02533-044283FM-12+005199999V0209999999999004201CN0200001N1+02821+02401101351ADDAA106000091AG10000GF105991051021004501001001KA1240N+02491MA1999999100771MD1999999+0201REMSYN017 333 20249 58020;
0096822800999991998081518004-02533-044283FM-12+005199999V0209999999999220001CN0200001N1+03121+02361101081ADDAA106000091AG10000GF102991021011008001001001MA1999999100501MD1999999+0061REMSYN011 333 58006;
0131822800999991998081700004-02533-044283FM-12+005199999V0209999999999220001CN0200001N1+02581+02271101241ADDAA106000091AG10000GA1001+999999999GF100991001001999999001001KA1240M+03241MA1999999100661MD1999999+0041REMSYN017 333 10324 58004;
0115822800999991998081712004-02533-044283FM-12+005199999V0209999999999220001CN0200001N1+02801+02271101311ADDAA106000091AG10000GF103991031021004501001001KA1240N+02401MA1999999100731MD1999999-0041REMSYN017 333 20240 59004;
0096822800999991998081718004-02533-044283FM-12+005199999V0209999999999004201CN0200001N1+02941+02451101011ADDAA106000091AG10000GF105991051021004501001001MA1999999100431MD1999999-0021REMSYN011 333 59002;
0131822800999991998081800004-02533-044283FM-12+005199999V0209999999999220001CN0200001N1+02421+02321101111ADDAA106000091AG10000GA1001+999999999GF100991001001999999001001KA1240M+03031MA1999999100531MD1999999-0131REMSYN017 333 10303 59013;
0115822800999991998081812004-02533-044283FM-12+005199999V0209999999999004201CN0200001N1+02781+02361101091ADDAA106000091AG10000GF106991051021004501051001KA1240N+02301MA1999999100511MD1999999-0221REMSYN017 333 20230 59022;
0096822800999991998081818004-02533-044283FM-12+005199999V0209999999999004201CN0200001N1+03001+02421100781ADDAA106000091AG10000GF106991061021004501001001MA1999999100201MD1999999-0231REMSYN011 333 59023;
0115822800999991998081900004-02533-044283FM-12+005199999V0209999999999220001CN0200001N1+02581+02311101041ADDAA106000091AG10000GF101991011011008001001001KA1240M+03181MA1999999100461MD1999999-0071REMSYN017 333 10318 59007;
0115822800999991998081912004-02533-044283FM-12+005199999V0209999999999004201CN0200001N1+02881+02411101111ADDAA106000091AG10000GF105991051021004501001001KA1240N+02451MA1999999100531MD1999999+0021REMSYN017 333 20245 58002;
0096822800999991998081918004-02533-044283FM-12+005199999V0209999999999045001CN0200001N1+03001+02461100761ADDAA106000091AG10000GF106991041021004501051001MA1999999100181MD1999999-0021REMSYN011 333 59002;
0115822800999991998082000004-02533-044283FM-12+005199999V0209999999999220001CN0200001N1+02561+02311101031ADDAA106000091AG10000GF101991011011008001001001KA1240M+03181MA1999999100451MD1999999-0011REMSYN017 333 10318 59001;
0115822800999991998082012004-02533-044283FM-12+005199999V0209999999999004201CN0200001N1+02901+02411101111ADDAA106000091AG10000GF105991051021004501001001KA1240N+02401MA1999999100531MD1999999+0001REMSYN017 333 20240 58000;
0096822800999991998082018004-02533-044283FM-12+005199999V0209999999999220001CN0200001N1+03151+02381100971ADDAA106000091AG10000GF102991021021004501001001MA1999999100391MD1999999+0211REMSYN011 333 58021;
0115822800999991998082100004-02533-044283FM-12+005199999V0209999999999220001CN0200001N1+02581+02291101191ADDAA106000091AG10000GF101991011011008001001001KA1240M+03161MA1999999100511MD1999999-0061REMSYN017 333 10316 59006;
0115822800999991998082112004-02533-044283FM-12+005199999V0209999999999220001CN0200001N1+02841+02311101311ADDAA106000091AG10000GF104991041021004501001001KA1240N+02451MA1999999100731MD1999999+0201REMSYN017 333 20245 58020;
0096822800999991998082118004-02533-044283FM-12+005199999V0209999999999220001CN0200001N1+03101+02311101041ADDAA106000091AG10000GF101991011011008001001001MA1999999100461MD1999999+0071REMSYN011 333 58007;
0115822800999991998082212004-02533-044283FM-12+005199999V0209999999999045001CN0200001N1+02821+02381101231ADDAA106000091AG10000GF105991031021004501051001KA1240N+02491MA1999999100651MD1999999-0081REMSYN017 333 20249 59008;
0096822800999991998082218004-02533-044283FM-12+005199999V0209999999999220001CN0200001N1+03341+02281100901ADDAA106000091AG10000GF102991021011008001001001MA1999999100321MD1999999-0141REMSYN011 333 59014;
0131822800999991998082300004-02533-044283FM-12+005199999V0209999999999220001CN0200001N1+02541+02331101031ADDAA106000091AG10000GA1001+999999999GF100991001001999999001001KA1240M+03401MA1999999100451MD1999999+0001REMSYN017 333 10340 58000;
0115822800999991998082312004-02533-044283FM-12+005199999V0209999999999004201CN0200001N1+02881+02321101151ADDAA106000091AG10000GF105991051021004501001001KA1240N+02381MA1999999100571MD1999999-0081REMSYN017 333 20238 59008;
0115822800999991998082400004-02533-044283FM-12+005199999V0209999999999220001CN0200001N1+02521+02271101191ADDAA106000091AG10000GF101991011011008001001001KA1240M+03141MA1999999100511MD1999999+0061REMSYN017 333 10314 58006;
0115822800999991998082412004-02533-044283FM-12+005199999V0209999999999004201CN0200001N1+02901+02391101071ADDAA106000091AG10000GF105991051021004501001001KA1240N+02351MA1999999100491MD1999999-0081REMSYN017 333 20235 59008;
0096822800999991998082418004-02533-044283FM-12+005199999V0209999999999220001CN0200001N1+03081+02471100891ADDAA106000091AG10000GF104991041021004501001001MA1999999100311MD1999999-0061REMSYN011 333 59006;
0115822800999991998082500004-02533-044283FM-12+005199999V0209999999999220001CN0200001N1+02561+02351101031ADDAA106000091AG10000GF101991011011008001001001KA1240M+03221MA1999999100451MD1999999-0061REMSYN017 333 10322 59006;
0115822800999991998082512004-02533-044283FM-12+005199999V0209999999999045001CN0200001N1+02881+02371101151ADDAA106000091AG10000GF105991031021004501031001KA1240N+02291MA1999999100571MD1999999+0081REMSYN017 333 20229 58008;
0096822800999991998082518004-02533-044283FM-12+005199999V0209999999999220001CN0200001N1+03141+02431100951ADDAA106000091AG10000GF102991021021004501001001MA1999999100371MD1999999+0061REMSYN011 333 58006;
