0096823970999991998112318004-03733-038550FM-12+001999999V0200901N00361220001CN0200001N1+03041+02261100761ADDAA106000091AG10000GF106991041011008001001011MA1999999100451MD1999999-0091REMSYN011 333 59009;
0134823970999991998112400004-03733-038550FM-12+001999999V0200901N00151220001CN9999999N9+02661+02311100961ADDAA106000091AG10000GF102991021011008001001001KA1240M+03251MA1999999100651MD1999999-0091REMSYN017 333 10325 59009;EQDQ01+000002VOVAR 
