0134829750999991998010100004-09100-044117FM-12+033199999V0203201N00361220001CN9999999N9+02541+02261101131ADDAA106000091AG10000GF104991041031008001021021KA1240M+03461MA1999999097201MD1999999+0091REMSYN017 333 10346 58009;EQDQ01+000002VOVAR 
0115829750999991998010112004-09100-044117FM-12+033199999V0201801N00511220001CN0500001N1+02341+99999101401ADDAA106000091AG10000GF104991041021008001021031KA1240N+02121MA1999999097471MD1999999+0021REMSYN017 333 20212 58002;
0096829750999991998010118004-09100-044117FM-12+033199999V0203201N00771007501CN0500001N1+02911+02341101241ADDAA106000091AG10000GF105991051031008001041021MA1999999097301MD1999999+0061REMSYN011 333 58006;
0134829750999991998010200004-09100-044117FM-12+033199999V0201801N00361220001CN9999999N9+02311+99999101161ADDAA106000091AG10000GF104991041021008001031021KA1240M+03391MA1999999097231MD1999999+0031REMSYN017 333 10339 58003;EQDQ01+000002VOVAR 
0115829750999991998010212004-09100-044117FM-12+033199999V0201801N00361220001CN0500001N1+02311+99999101451ADDAA106000091AG10000GF103991031021008001021031KA1240N+02091MA1999999097521MD1999999+0051REMSYN017 333 20209 58005;
0096829750999991998010218004-09100-044117FM-12+033199999V0203201N00511007501CN0500001N1+03281+02151101281ADDAA106000091AG10000GF105991051031008001041021MA1999999097341MD1999999+0041REMSYN011 333 58004;
0124829750999991998010418004-09100-044117FM-12+033199999V0200501N00361007501CN0500001N1+02761+02241101031ADDAA106002091AG10000AY101061AY231061GF107991071051008001061031MA1999999097501MD1999999-0101MW1091REMSYN017 333 59010 60021;
0162829750999991998010500004-09100-044117FM-12+033199999V0209991C00001007501CN9999999N9+02301+02281101051ADDAA106003091AG10006AY161061AY231061GF105991051041008001021031KA1240M+03211MA1999999097131MD1999999+0131MW1091REMSYN023 333 10321 58013 60031;EQDQ01+000002VOVAR 
0121829750999991998010512004-09100-044117FM-12+033199999V0200501N00411007501CN0500001N1+02211+99999101171ADDAA124003091AG10000GF107991071051008001031041KA1240N+02001MA1999999097251MD1999999+0001REMSYN023 333 20200 58000 60034;
0131829750999991998010600004-09100-044117FM-12+033199999V0209991C00001220001CN0500001N1+02811+02291100851ADDAA106000091AG10000GA1001+999999999GF100991001001999999001001KA1240M+03541MA1999999096921MD1999999-0211REMSYN017 333 10354 59021;
0115829750999991998010612004-09100-044117FM-12+033199999V0209991C00001220001CN0500001N1+02311+99999101181ADDAA106000091AG10000GF104991041021008001031031KA1240N+02061MA1999999097251MD1999999+0001REMSYN017 333 20206 58000;
0112829750999991998010618004-09100-044117FM-12+033199999V0203201N00411220001CN0500001N1+03321+02071100981ADDAA106000091AG10000GA1001+999999999GF100991001001999999001001MA1999999097051MD1999999-0091REMSYN011 333 59009;
0134829750999991998010700004-09100-044117FM-12+033199999V0201801N00361220001CN9999999N9+02931+02321100781ADDAA106000091AG10000GF103991031001008001031021KA1240M+03671MA1999999096851MD1999999-0071REMSYN017 333 10367 59007;EQDQ01+000002VOVAR 
0162829750999991998010712004-09100-044117FM-12+033199999V0201801N00771007501CN0500001N1+02141+99999101271ADDAA124001091AG10006AY161061AY231061GF107991071051008001061021KA1240N+99999MA1999999097351MD1999999+0011MW1091REMSYN023 333 20298 58001 60014;EQDQ01 +02982ATMN  
0124829750999991998010718004-09100-044117FM-12+033199999V0200501N00411220001CN0500001N1+03041+02151101041ADDAA106007091AG10006AY161061AY231061GF103991031021008001001021MA1999999097101MD1999999+0051MW1091REMSYN017 333 58005 60071;
0134829750999991998010800004-09100-044117FM-12+033199999V0201801N00671220001CN9999999N9+02321+02311100871ADDAA106000091AG10000GF104991041021008001031021KA1240M+03291MA1999999096951MD1999999+0101REMSYN017 333 10329 58010;EQDQ01+000002VOVAR 
0096829750999991998010818004-09100-044117FM-12+033199999V0209991C00001007501CN0500001N1+02531+02191101131ADDAA106000091AG10000GF107991071051008001061031MA1999999097201MD1999999+0101REMSYN011 333 58010;
0150829750999991998010900004-09100-044117FM-12+033199999V0209991C00001220001CN9999999N9+02431+02281100981ADDAA106000091AG10000GA1001+999999999GF100991001001999999001001KA1240M+03371MA1999999097051MD1999999+0101REMSYN017 333 10337 58010;EQDQ01+000002VOVAR 
0115829750999991998010912004-09100-044117FM-12+033199999V0201801N00261220001CN0500001N1+02211+99999101341ADDAA106000091AG10000GF104991041021008001031021KA1240N+02011MA1999999097411MD1999999-0051REMSYN017 333 20201 59005;
0178829750999991998011000004-09100-044117FM-12+033199999V0201801N00261220001CN9999999N9+02511+02271101031ADDAA106005091AG10006AY161061AY231061GA1001+999999999GF100991001001999999001001KA1240M+03481MA1999999097101MD1999999+0051MW1091REMSYN023 333 10348 58005 60051;EQDQ01+000002VOVAR 
0135829750999991998011012004-09100-044117FM-12+033199999V0203201N003619999999N0500001N1+02511+02351101281ADDAG10000GF105991999051008001001001KA1240N+02061MA1999999097351MD1999999-0061REMSYN029 333 20206 59006 59006 69924;EQDQ01+000032SCOTLC
0096829750999991998011018004-09100-044117FM-12+033199999V0203201N00361007501CN0500001N1+02931+02071100581ADDAA106000091AG10000GF106991061031008001041051MA1999999097521MD1999999-0041REMSYN011 333 59004;
0134829750999991998011100004-09100-044117FM-12+033199999V0209991C00001220001CN9999999N9+02311+99999101181ADDAA106000091AG10000GF103991031021008001031021KA1240M+03271MA1999999097261MD1999999+0161REMSYN017 333 10327 58016;EQDQ01+000002VOVAR 
0143829750999991998011112004-09100-044117FM-12+033199999V0201801N00771007501CN0500001N1+02081+99999101481ADDAA124001091AG10006AY161061AY231061GF107991071051008001031041KA1240N+01971MA1999999097561MD1999999+0211MW1091REMSYN023 333 20197 58021 60014;
0124829750999991998011118004-09100-044117FM-12+033199999V0203201N00411007501CN0500001N1+02631+02281101181ADDAA106016091AG10006AY161061AY231061GF106991061041008001051021MA1999999097251MD1999999+0131MW1091REMSYN017 333 58013 60161;
0134829750999991998011200004-09100-044117FM-12+033199999V0209991C00001007501CN9999999N9+02111+99999101281ADDAA106000091AG10000GF106991061031008001041021KA1240M+03021MA1999999097361MD1999999+0101REMSYN017 333 10302 58010;EQDQ01+000002VOVAR 
0116829750999991998011212004-09100-044117FM-12+033199999V0203201N00361220001CN0500001N1+02211+99999101421ADDAG10000GF103991031021008001001021KA1240N+02021MA1999999097501MD1999999-0061REMSYN029 333 20202 59006 59001 60164;
0112829750999991998011218004-09100-044117FM-12+033199999V0200501N00411220001CN0500001N1+03251+02171101131ADDAA106000091AG10000GA1001+999999999GF100991001001999999001001MA1999999097201MD1999999-0051REMSYN011 333 59005;
0150829750999991998011300004-09100-044117FM-12+033199999V0209991C00001220001CN9999999N9+02711+02111101141ADDAA106000091AG10000GA1001+999999999GF100991001001999999001001KA1240M+03451MA1999999097211MD1999999-0251REMSYN017 333 10345 59025;EQDQ01+000002VOVAR 
0131829750999991998011312004-09100-044117FM-12+033199999V0201801N00461220001CN0500001N1+02481+02171101321ADDAA106000091AG10000GA1001+999999999GF100991001001999999001001KA1240N+02121MA1999999097391MD1999999-0111REMSYN017 333 20212 59011;
0134829750999991998011400004-09100-044117FM-12+033199999V0203201N00411220001CN9999999N9+02631+02391101061ADDAA106000091AG10000GF103991031021008001001031KA1240M+03391MA1999999097141MD1999999-0071REMSYN017 333 10339 59007;EQDQ01+000002VOVAR 
0115829750999991998011412004-09100-044117FM-12+033199999V0201801N00261220001CN0500001N1+02561+02351101141ADDAA106000091AG10000GF103991031021008001031021KA1240N+02141MA1999999097211MD1999999-0181REMSYN017 333 20214 59018;
0112829750999991998011418004-09100-044117FM-12+033199999V0203201N00361220001CN0500001N1+03311+02351100941ADDAA106000091AG10000GA1001+999999999GF100991001001999999001001MA1999999097001MD1999999-0061REMSYN011 333 59006;
0134829750999991998011500004-09100-044117FM-12+033199999V0200501N00361220001CN9999999N9+02761+02181100941ADDAA106000091AG10000GF104991041021008001031031KA1240M+03561MA1999999097011MD1999999-0131REMSYN017 333 10356 59013;EQDQ01+000002VOVAR 
0124829750999991998011518004-09100-044117FM-12+033199999V0209991C00001007501CN0500001N1+02631+02071100981ADDAA106008091AG10006AY161061AY231061GF107991071041008001051021MA1999999097061MD1999999+0061MW1091REMSYN017 333 58006 60081;
0134829750999991998011600004-09100-044117FM-12+033199999V0201801N00261007501CN9999999N9+02311+99999100891ADDAA106000091AG10000GF105991051031008001021041KA1240M+03301MA1999999096961MD1999999-0051REMSYN017 333 10330 59005;EQDQ01+000002VOVAR 
0081829750999991998012200004-09100-044117FM-12+033199999V0201801N007719999999N9999999N9+02011+99999101391ADDAA106000091AG10000GF107991999999008001999999MA1999999097371EQDQ01+000002VOVAR 
0134829750999991998012300004-09100-044117FM-12+033199999V0203201N00261220001CN9999999N9+02211+99999101121ADDAA106000091AG10000GF103991031021008001031021KA1240M+03231MA1999999097201MD1999999-0171REMSYN017 333 10323 59017;EQDQ01+000002VOVAR 
0172829750999991998012400004-09100-044117FM-12+033199999V0201801N00261007501CN9999999N9+01911+99999101081ADDAA106008091AG10006AY161061AY261061GF107991071051008001031041KA1240M+03121MA1999999097161MD1999999-0041REMSYN023 333 10312 59004 60081;EQDQ01+000002VOVAR Q02+000222PRSWM1
0121829750999991998012412004-09100-044117FM-12+033199999V0209991C00001007501CN0500001N1+02011+99999101221ADDAA124009091AG10000GF107991071061008001021021KA1240N+01901MA1999999097301MD1999999-0061REMSYN023 333 20190 59006 60094;
0121829750999991998012512004-09100-044117FM-12+033199999V0201801N00411007501CN0500001N1+02121+99999101231ADDAA124019091AG10000GF105991051031008001031021KA1240N+01961MA1999999097301MD1999999+0001REMSYN023 333 20196 58000 60194;
0134829750999991998012600004-09100-044117FM-12+033199999V0201801N00361007501CN9999999N9+02141+02071101081ADDAA106000091AG10000GF105991051021008001041021KA1240M+03221MA1999999097161MD1999999-0041REMSYN017 333 10322 59004;EQDQ01+000002VOVAR 
0134829750999991998012700004-09100-044117FM-12+033199999V0209991C00001220001CN9999999N9+02411+02181101241ADDAA106000091AG10000GF103991031021008001001031KA1240M+03401MA1999999097311MD1999999+0151REMSYN017 333 10340 58015;EQDQ01+000002VOVAR 
0115829750999991998012712004-09100-044117FM-12+033199999V0201801N00261007501CN0500001N1+02311+02241101501ADDAA106000091AG10000GF105991051031008001041031KA1240N+02001MA1999999097581MD1999999+0111REMSYN017 333 20200 58011;
0096829750999991998012718004-09100-044117FM-12+033199999V0203201N00261220001CN0500001N1+03071+02151101351ADDAA106000091AG10000GF104991041021008001001041MA1999999097421MD1999999+0031REMSYN011 333 58003;
0162829750999991998012800004-09100-044117FM-12+033199999V0201801N00361007501CN9999999N9+02031+02011101371ADDAA106007091AG10000AY131061AY261061GF105991051031008001041031KA1240M+03221MA1999999097451MD1999999+0141MW1091REMSYN023 333 10322 58014 60071;EQDQ01+000002VOVAR 
0140829750999991998012812004-09100-044117FM-12+033199999V0201801N00261007501CN0500001N1+02121+02081101631ADDAA124009091AG10000GF105991051041008001021031KA1240N+99999MA1999999097711MD1999999+0131REMSYN023 333 20296 58013 60094;EQDQ01 +02962ATMN  
0112829750999991998012818004-09100-044117FM-12+033199999V0203201N00261220001CN0500001N1+03071+02111101441ADDAA106000091AG10000GA1001+999999999GF100991001001999999001001MA1999999097501MD1999999+0081REMSYN011 333 58008;
0131829750999991998012900004-09100-044117FM-12+033199999V0201801N00361220001CN0500001N1+02811+02291101131ADDAA106000091AG10000GA1001+999999999GF100991001001999999001001KA1240M+03461MA1999999097201MD1999999-0251REMSYN017 333 10346 59025;
0115829750999991998012912004-09100-044117FM-12+033199999V0201801N00361220001CN0500001N1+02311+02171101421ADDAA106000091AG10000GF104991041021008001031021KA1240N+02031MA1999999097501MD1999999-0211REMSYN017 333 20203 59021;
0150829750999991998013000004-09100-044117FM-12+033199999V0203201N00361220001CN9999999N9+02641+02271101131ADDAA106000091AG10000GA1001+999999999GF100991001001999999001001KA1240M+03511MA1999999097201MD1999999+0001REMSYN017 333 10351 58000;EQDQ01+000002VOVAR 
0115829750999991998013112004-09100-044117FM-12+033199999V0203201N00361220001CN0500001N1+02431+02271101351ADDAA106000091AG10000GF103991031031008001001021KA1240N+02091MA1999999097421MD1999999-0031REMSYN017 333 20209 59003;
0112829750999991998013118004-09100-044117FM-12+033199999V0203201N00411220001CN0500001N1+03311+02251101301ADDAA106000091AG10000GA1001+999999999GF100991001001999999001001MA1999999097361MD1999999-0051REMSYN011 333 59005;
0121829750999991998020112004-09100-044117FM-12+033199999V0201801N00411220001CN0500001N1+02671+02371101451ADDAA124003091AG10000GF104991041031008001031021KA1240N+02131MA1999999097521MD1999999+0101REMSYN023 333 20213 58010 60034;
0115829750999991998020212004-09100-044117FM-12+033199999V0209991C00001007501CN0500001N1+02211+02141101351ADDAA106000091AG10000GF105991051041008001021031KA1240N+02091MA1999999097421MD1999999-0101REMSYN017 333 20209 59010;
0096829750999991998020218004-09100-044117FM-12+033199999V0203201N00411007501CN0500001N1+03251+02231101291ADDAA106000091AG10000GF105991051021008001031031MA1999999097351MD1999999-0051REMSYN011 333 59005;
0150829750999991998020400004-09100-044117FM-12+033199999V0203201N00411220001CN9999999N9+02911+02271100891ADDAA106000091AG10000GA1001+999999999GF100991001001999999001001KA1240M+03461MA1999999096961MD1999999-0151REMSYN017 333 10346 59015;EQDQ01+000002VOVAR 
0131829750999991998020412004-09100-044117FM-12+033199999V0203201N00261220001CN0500001N1+02311+02111101241ADDAA106000091AG10000GA1001+999999999GF100991001001999999001001KA1240N+02101MA1999999097311MD1999999-0041REMSYN017 333 20210 59004;
0112829750999991998020418004-09100-044117FM-12+033199999V0203601N00511220001CN0500001N1+03351+02381100961ADDAA106000091AG10000GA1001+999999999GF100991001001999999001001MA1999999097021MD1999999+0061REMSYN011 333 58006;
0134829750999991998020500004-09100-044117FM-12+033199999V0201801N00261220001CN9999999N9+03011+02171100831ADDAA106000091AG10000GF103991031021008001001021KA1240M+03561MA1999999096901MD1999999-0061REMSYN017 333 10356 59006;EQDQ01+000002VOVAR 
0131829750999991998020512004-09100-044117FM-12+033199999V0201801N00361220001CN0500001N1+02231+02121101261ADDAA106000091AG10000GA1001+999999999GF100991001001999999001001KA1240N+02091MA1999999097331MD1999999+0021REMSYN017 333 20209 58002;
0112829750999991998020518004-09100-044117FM-12+033199999V0203201N00261220001CN0500001N1+03411+02361100941ADDAA106000091AG10000GA1001+999999999GF100991001001999999001001MA1999999097001MD1999999-0021REMSYN011 333 59002;
0162829750999991998020600004-09100-044117FM-12+033199999V0201801N00261220001CN9999999N9+02381+02151101041ADDAA106019091AG10006AY161061AY231061GF104991041031008001001021KA1240M+03491MA1999999097511MD1999999+0211MW1091REMSYN023 333 10349 58021 60191;EQDQ01+000002VOVAR 
0140829750999991998020612004-09100-044117FM-12+033199999V0201801N00361220001CN0500001N1+02351+99999999999ADDAA124019091AG10000GF103991031031008001021001KA1240N+02011MA1999999097431MD1999999+0051REMSYN023 333 20201 58005 60194;EQDQ01 103583APOSLP
0150829750999991998020700004-09100-044117FM-12+033199999V0209991C00001220001CN9999999N9+03051+02391100941ADDAA106000091AG10000GA1001+999999999GF100991001001999999001001KA1240M+03491MA1999999097011MD1999999-0101REMSYN017 333 10349 59010;EQDQ01+000002VOVAR 
0115829750999991998020712004-09100-044117FM-12+033199999V0201801N00361220001CN0500001N1+02511+02181101441ADDAA106000091AG10000GF103991031021008001001031KA1240N+02121MA1999999097511MD1999999+0081REMSYN017 333 20212 58008;
0112829750999991998020718004-09100-044117FM-12+033199999V0209999999999220001CN0500001N1+03431+02271101141ADDAA106000091AG10000GA1001+999999999GF100991001001999999001001MA1999999097201MD1999999+0051REMSYN011 333 58005;
0121829750999991998021312004-09100-044117FM-12+033199999V0201801N00411007501CN0500001N1+02411+02351101421ADDAA124005091AG10000GF105991051031008001041021KA1240N+01991MA1999999097501MD1999999+0101REMSYN023 333 20199 58010 60054;
0096829750999991998021318004-09100-044117FM-12+033199999V0203201N00771007501CN0500001N1+02411+02271101321ADDAA106000091AG10000GF107991071051008001031041MA1999999097401MD1999999+0201REMSYN011 333 58020;
0162829750999991998021400004-09100-044117FM-12+033199999V0209991C00001007501CN9999999N9+02131+02061101441ADDAA106018091AG10006AY161061AY231061GF107991071041008001031021KA1240M+03081MA1999999097521MD1999999+0271MW1091REMSYN023 333 10308 58027 60181;EQDQ01+000002VOVAR 
0121829750999991998021412004-09100-044117FM-12+033199999V0200501N00411007501CN0500001N1+02211+02131101271ADDAA124018091AG10000GF106991061051008001031041KA1240N+01921MA1999999097351MD1999999-0141REMSYN023 333 20192 59014 60184;
0162829750999991998021500004-09100-044117FM-12+033199999V0209991C00001007501CN9999999N9+02211+02141101471ADDAA106001091AG10006AY161061AY231061GF105991051031008001021041KA1240M+03171MA1999999097551MD1999999+0031MW1091REMSYN023 333 10317 58003 60011;EQDQ01+000002VOVAR 
0121829750999991998021512004-09100-044117FM-12+033199999V0201401N00261007501CN0500001N1+02311+02081101481ADDAA124001091AG10000GF105991051031008001041031KA1240N+01981MA1999999097561MD1999999+0201REMSYN023 333 20198 58020 60014;
0112829750999991998021518004-09100-044117FM-12+033199999V0203201N00411220001CN0500001N1+02961+02131101421ADDAA106000091AG10000GA1001+999999999GF100991001001999999001001MA1999999097591MD1999999+0201REMSYN011 333 58020;
0150829750999991998021600004-09100-044117FM-12+033199999V0209991C00001220001CN9999999N9+02101+02071101461ADDAA106000091AG10000GA1001+999999999GF100991001001999999001001KA1240M+03091MA1999999097541MD1999999-0011REMSYN017 333 10309 59001;EQDQ01+000002VOVAR 
0115829750999991998021612004-09100-044117FM-12+033199999V0200501N00361007501CN0500001N1+02141+02051101521ADDAA106000091AG10000GF106991061041008001051031KA1240N+01911MA1999999097601MD1999999+0051REMSYN017 333 20191 58005;
0124829750999991998021618004-09100-044117FM-12+033199999V0201401N00411007501CN0500001N1+02941+02321101281ADDAA106001091AG10006AY161061AY231061GF106991061041008001051031MA1999999097351MD1999999-0101MW1091REMSYN017 333 59010 60011;
0162829750999991998021700004-09100-044117FM-12+033199999V0209991C00001007501CN9999999N9+02011+01971101321ADDAA106006091AG10006AY161061AY231061GF106991061041008001031031KA1240M+03161MA1999999097401MD1999999-0141MW1091REMSYN023 333 10316 59014 60061;EQDQ01+000002VOVAR 
0143829750999991998021712004-09100-044117FM-12+033199999V0201801N00261007501CN0500001N1+02031+01951101461ADDAA124008091AG10006AY161061AY231061GF107991071041008001031051KA1240N+01861MA1999999097541MD1999999-0061MW1091REMSYN023 333 20186 59006 60084;
0172829750999991998021800004-09100-044117FM-12+033199999V0201801N00261007501CN9999999N9+02011+01981101331ADDAA106018091AG10006AY161061AY261061GF107991071041008001061021KA1240M+03061MA1999999097411MD1999999+0011REMSYN023 333 10306 58001 60181;EQDQ01+000002VOVAR Q02+000222PRSWM1
0121829750999991998021812004-09100-044117FM-12+033199999V0201801N00261007501CN0500001N1+02011+01971101361ADDAA124019091AG10000GF107991071051008001031041KA1240N+01821MA1999999097441MD1999999-0101REMSYN023 333 20182 59010 60194;
0096829750999991998021818004-09100-044117FM-12+033199999V0203201N00511007501CN0500001N1+02861+02271101231ADDAA106000091AG10000GF105991051031008001041001MA1999999097301MD1999999-0051REMSYN011 333 59005;
0172829750999991998021900004-09100-044117FM-12+033199999V0203201N00361007501CN9999999N9+02011+01971101271ADDAA106004091AG10006AY161061AY261061GF107991071051008001061021KA1240M+03151MA1999999097351MD1999999-0061REMSYN023 333 10315 59006 60041;EQDQ01+000002VOVAR Q02+000222PRSWM1
0162829750999991998021912004-09100-044117FM-12+033199999V0200501N00411007501CN0500001N1+02311+02141101341ADDAA124011091AG10006AY161061AY231061GF105991051041008001031041KA1240N+99999MA1999999097421MD1999999-0021MW1091REMSYN023 333 20291 59002 60114;EQDQ01 +02912ATMN  
0096829750999991998021918004-09100-044117FM-12+033199999V0201401N00411220001CN0500001N1+03041+02351101191ADDAA106000091AG10000GF103991031001008001021001MA1999999097251MD1999999-0051REMSYN011 333 59005;
0134829750999991998022000004-09100-044117FM-12+033199999V0201401N00411220001CN9999999N9+02311+02141101141ADDAA106000091AG10000GF103991031031008001001011KA1240M+03101MA1999999097211MD1999999-0141REMSYN017 333 10310 59014;EQDQ01+000002VOVAR 
0115829750999991998022012004-09100-044117FM-12+033199999V0200501N00411007501CN0500001N1+02101+02041101291ADDAA106000091AG10000GF107991071031008001051031KA1240N+01851MA1999999097371MD1999999-0051REMSYN017 333 20185 59005;
0124829750999991998022018004-09100-044117FM-12+033199999V0203201N00361007501CN0500001N1+02411+02181101151ADDAA106006091AG10006AY161061AY231061GF107991071061008001041051MA1999999097231MD1999999-0021MW1091REMSYN017 333 59002 60061;
0114829750999991998022112004-09100-044117FM-12+033199999V0201801N00361220001CN0500001N1+02301+02161101281ADDAA124002091AG10000GF104991041021008001031031IA1019MA1999999097361MD1999999-0011REMSYN023 333 30193 59001 60024;
0134829750999991998022200004-09100-044117FM-12+033199999V0201401N00771007501CN9999999N9+02411+02271101131ADDAA106000091AG10000GF107991071051008001031041KA1240M+03181MA1999999097211MD1999999+0111REMSYN017 333 10318 58011;EQDQ01+000002VOVAR 
0143829750999991998022212004-09100-044117FM-12+033199999V0200501N00411007501CN0500001N1+02101+02051101321ADDAA124008091AG10006AY161061AY231061GF105991051041008001021031KA1240N+01901MA1999999097401MD1999999+0041MW1091REMSYN023 333 20190 58004 60084;
0150829750999991998022400004-09100-044117FM-12+033199999V0203201N00361220001CN9999999N9+02911+02181101431ADDAA106000091AG10000GA1001+999999999GF100991001001999999001001KA1240M+03451MA1999999097501MD1999999+0341REMSYN017 333 10345 58034;EQDQ01+000002VOVAR 
0115829750999991998022412004-09100-044117FM-12+033199999V0201401N00771220001CN0500001N1+02541+02341101371ADDAA106000091AG10000GF103991031001008001031021KA1240N+02031MA1999999097451MD1999999+0091REMSYN017 333 20203 58009;
0150829750999991998022500004-09100-044117FM-12+033199999V0200901N00671220001CN9999999N9+02611+02151101031ADDAA106000091AG10000GA1001+999999999GF100991001001999999001001KA1240M+03381MA1999999097101MD1999999-0041REMSYN017 333 10338 59004;EQDQ01+000002VOVAR 
0143829750999991998022512004-09100-044117FM-12+033199999V0200901N00361007501CN0100001N1+02631+02081101321ADDAA124000391AG10006AY161061AY221061GF106991061021008001001001KA1240N+02261MA1999999095181MD1999999-0021MW1021REMSYN023 333 20226 59002 69934;
0115829750999991998022518004-09100-044117FM-12+033199999V0201401N00411220001CN0500001N1+03251+02391101141ADDAA106000091AG10000GF103991031001008001021001MA1999999097202MD1999999-0031REMSYN011 333 59003;EQDQ01+097203APOSP 
0115829750999991998022612004-09100-044117FM-12+033199999V0201801N00511220001CN0500001N1+02311+02141101271ADDAA106000091AG10000GF104991041021008001031021KA1240N+02031MA1999999097351MD1999999-0051REMSYN017 333 20203 59005;
0121829750999991998022712004-09100-044117FM-12+033199999V0201801N00261220001CN0500001N1+02111+02051101221ADDAA124011091AG10000GF104991041021008001021031KA1240N+01991MA1999999097301MD1999999-0051REMSYN023 333 20199 59005 60114;
0112829750999991998022718004-09100-044117FM-12+033199999V0203201N00511220001CN0500001N1+03271+02371101041ADDAA106000091AG10000GA1001+999999999GF100991001001999999001001MA1999999097101MD1999999-0051REMSYN011 333 59005;
0150829750999991998022800004-09100-044117FM-12+033199999V0203201N00361220001CN9999999N9+02711+02081100851ADDAA106000091AG10000GA1001+999999999GF100991001001999999001001KA1240M+03421MA1999999096921MD1999999-0021REMSYN017 333 10342 59002;EQDQ01+000002VOVAR 
0121829750999991998030112004-09100-044117FM-12+033199999V0200501N00511220001CN0500001N1+02051+01971101181ADDAA124001091AG10000GF104991041031008001021031KA1240N+02001MA1999999097261MD1999999+0051REMSYN023 333 20200 58005 60014;
0115829750999991998030212004-09100-044117FM-12+033199999V0201801N00261007501CN0500001N1+02141+02031101201ADDAA106000091AG10000GF106991061031008001051031KA1240N+01931MA1999999097281MD1999999+0031REMSYN017 333 20193 58003;
0172829750999991998030300004-09100-044117FM-12+033199999V0201401N00771007501CN9999999N9+02031+01951101271ADDAA106057091AG10006AY161061AY261061GF107991071061008001031021KA1240M+03461MA1999999097351MD1999999+0451REMSYN023 333 10346 58045 60571;EQDQ01+000002VOVAR Q02+000222PRSWM1
0121829750999991998030312004-09100-044117FM-12+033199999V0201801N00411007501CN0500001N1+02211+02071101331ADDAA124057091AG10000GF106991061041008001031021KA1240N+01971MA1999999097411MD1999999+0131REMSYN023 333 20197 58013 60574;
0096829750999991998030318004-09100-044117FM-12+033199999V0203201N00411007501CN0500001N1+02831+02191101161ADDAA106000091AG10000GF106991061041008001051021MA1999999097231MD1999999+0061REMSYN011 333 58006;
0134829750999991998030400004-09100-044117FM-12+033199999V0209991C00001007501CN9999999N9+02211+02151101101ADDAA106000091AG10000GF105991051031008001041021KA1240M+03221MA1999999097171MD1999999-0181REMSYN017 333 10322 59018;EQDQ01+000002VOVAR 
0115829750999991998030412004-09100-044117FM-12+033199999V0200501N00361220001CN0500001N1+02411+02151101381ADDAA106000091AG10000GF104991041021008001031021KA1240N+02041MA1999999097461MD1999999+0051REMSYN017 333 20204 58005;
0115829750999991998030512004-09100-044117FM-12+033199999V0201801N00261007501CN0500001N1+02241+02171101371ADDAA106000091AG10000GF106991061041008001031021KA1240N+01971MA1999999097451MD1999999-0011REMSYN017 333 20197 59001;
0115829750999991998030612004-09100-044117FM-12+033199999V0201401N00771220001CN0500001N1+02511+02251101191ADDAA106000091AG10000GF103991031021008001001031KA1240N+02121MA1999999097261MD1999999-0191REMSYN017 333 20212 59019;
0150829750999991998030700004-09100-044117FM-12+033199999V0201801N00261220001CN9999999N9+02711+02321100791ADDAA106000091AG10000GA1001+999999999GF100991001001999999001001KA1240M+03341MA1999999096861MD1999999-0181REMSYN017 333 10334 59018;EQDQ01+000002VOVAR 
0115829750999991998030712004-09100-044117FM-12+033199999V0200501N00511220001CN0500001N1+02611+02231101081ADDAA106000091AG10000GF103991031021008001031021KA1240N+02191MA1999999097151MD1999999-0111REMSYN017 333 20219 59011;
0096829750999991998030718004-09100-044117FM-12+033199999V0200501N00361045001CN0500001N1+02371+02351101011ADDAA106000091AG10000GF105991031031008001041021MA1999999097081MD1999999-0101REMSYN011 333 59010;
0150829750999991998030800004-09100-044117FM-12+033199999V0209991C00001220001CN9999999N9+02711+02431100931ADDAA106000091AG10000GA1001+999999999GF100991001001999999001001KA1240M+03311MA1999999097001MD1999999+0141REMSYN017 333 10331 58014;EQDQ01+000002VOVAR 
0112829750999991998030818004-09100-044117FM-12+033199999V0201401N00771220001CN0500001N1+03241+02351101071ADDAA106000091AG10000GA1001+999999999GF100991001001999999001001MA1999999097131MD1999999+0051REMSYN011 333 58005;
0150829750999991998030900004-09100-044117FM-12+033199999V0201401N00261220001CN9999999N9+02761+02211101001ADDAA106000091AG10000GA1001+999999999GF100991001001999999001001KA1240M+03391MA1999999097071MD1999999+0071REMSYN017 333 10339 58007;EQDQ01+000002VOVAR 
0100829750999991998030912004-09100-044117FM-12+033199999V0201801N00361220001CN0500001N1+02741+02381101191ADDAA106000091AG10000GF104991041031008001031021KA1240N+02151MD1999999-0031REMSYN017 333 20215 59003;
0112829750999991998030918004-09100-044117FM-12+033199999V0201401N00511220001CN0500001N1+03311+02381101041ADDAA106000091AG10000GA1001+999999999GF100991001001999999001001MA1999999097101MD1999999+0021REMSYN011 333 58002;
0162829750999991998031000004-09100-044117FM-12+033199999V0209991C00001007501CN9999999N9+02101+02071100961ADDAA106033091AG10006AY161061AY231061GF106991061041008001051021KA1240M+03291MA1999999097031MD1999999-0041MW1091REMSYN023 333 10329 59004 60331;EQDQ01+000002VOVAR 
0123829750999991998031012004-09100-044117FM-12+033199999V0201801N00261007501CN0500001N1+02261+02151101241ADDAG10000GF105991051031008001041021KA1240N+99999MA1999999097321MD1999999+0051REMSYN017 333 20240 58005;EQDQ01 +02402ATMN  
0096829750999991998031018004-09100-044117FM-12+033199999V0201401N00411220001CN0500001N1+03041+02371101091ADDAA106000091AG10000GF103991031001008001021031MA1999999097161MD1999999+0061REMSYN011 333 58006;
0134829750999991998031100004-09100-044117FM-12+033199999V0201401N00511220001CN9999999N9+02501+02311101021ADDAA106000091AG10000GF103991031031008001001021KA1240M+03191MA1999999097101MD1999999+0071REMSYN017 333 10319 58007;EQDQ01+000002VOVAR 
0112829750999991998031118004-09100-044117FM-12+033199999V0203201N00361220001CN0500001N1+03141+02371101141ADDAA106000091AG10000GA1001+999999999GF100991001001999999001001MA1999999097201MD1999999+0041REMSYN011 333 58004;
0115829750999991998031212004-09100-044117FM-12+033199999V0200501N00361007501CN0500001N1+02311+02141101391ADDAA106000091AG10000GF105991051031008001021031KA1240N+02081MA1999999097461MD1999999+0001REMSYN017 333 20208 58000;
0137829750999991998031218004-09100-044117FM-12+033199999V0203201N00771007501CN0500001N1+03171+02341101091ADDAA106005091AG10006AY161061AY261061GF106991061041008001051031MA1999999097151MD1999999-0051REMSYN017 333 59005 60051;EQDQ01+000222PRSWM1
0162829750999991998031300004-09100-044117FM-12+033199999V0200501N00671007501CN9999999N9+02261+02191101281ADDAA106023091AG10006AY161061AY231061GF105991051021008001031021KA1240M+03181MA1999999097361MD1999999+0201MW1091REMSYN023 333 10318 58020 60231;EQDQ01+000002VOVAR 
0121829750999991998031312004-09100-044117FM-12+033199999V0201801N00411007501CN0500001N1+02211+02171101321ADDAA124023091AG10000GF105991051041008001031021KA1240N+02001MA1999999097401MD1999999-0061REMSYN023 333 20200 59006 60234;
0115829750999991998031412004-09100-044117FM-12+033199999V0201801N00361007501CN0500001N1+02511+02351101191ADDAA106000091AG10000GF105991051031008001021031KA1240N+02121MA1999999097261MD1999999-0141REMSYN017 333 20212 59014;
0124829750999991998031418004-09100-044117FM-12+033199999V0209991C00001007501CN0500001N1+03231+02431101021ADDAA106002091AG10006AY161061AY231061GF106991061041008001031021MA1999999097081MD1999999-0081MW1091REMSYN017 333 59008 60021;
0096829750999991998031518004-09100-044117FM-12+033199999V0203201N00771007501CN0500001N1+03171+02281101061ADDAA106000091AG10000GF107991071051008001061031MA1999999097131MD1999999+0051REMSYN011 333 58005;
0121829750999991998031612004-09100-044117FM-12+033199999V0201801N00261007501CN0500001N1+02211+02081101181ADDAA124007091AG10000GF106991061041008001031021KA1240N+01941MA1999999097261MD1999999+0071REMSYN023 333 20194 58007 60074;
0112829750999991998031818004-09100-044117FM-12+033199999V0201401N00511220001CN0500001N1+03171+02351101041ADDAA106000091AG10000GA1001+999999999GF100991001001999999001001MA1999999097101MD1999999-0101REMSYN011 333 59010;
0150829750999991998031900004-09100-044117FM-12+033199999V0209991C00001220001CN9999999N9+02711+02281101031ADDAA106000091AG10000GA1001+999999999GF100991001001999999001001KA1240M+03371MA1999999097101MD1999999-0011REMSYN017 333 10337 59001;EQDQ01+000002VOVAR 
0150829750999991998032000004-09100-044117FM-12+033199999V0209991C00001220001CN9999999N9+02911+02251100961ADDAA106000091AG10000GA1001+999999999GF100991001001999999001001KA1240M+03431MA1999999097031MD1999999-0071REMSYN017 333 10343 59007;EQDQ01+000002VOVAR 
0115829750999991998032012004-09100-044117FM-12+033199999V0201801N00511007501CN0500001N1+02431+02231101451ADDAA106000091AG10000GF105991051031008001031021KA1240N+02141MA1999999097521MD1999999+0161REMSYN017 333 20214 58016;
0112829750999991998032018004-09100-044117FM-12+033199999V0209991C00001220001CN0500001N1+03351+02431101141ADDAA106000091AG10000GA1001+999999999GF100991001001999999001001MA1999999097201MD1999999+0051REMSYN011 333 58005;
0150829750999991998032100004-09100-044117FM-12+033199999V0201801N00411220001CN9999999N9+02421+02271101071ADDAA106000091AG10000GA1001+999999999GF100991001001999999001001KA1240M+03351MA1999999097141MD1999999+0111REMSYN017 333 10335 58011;EQDQ01+000002VOVAR 
0115829750999991998032112004-09100-044117FM-12+033199999V0201801N00361007501CN0500001N1+02261+02051101381ADDAA106000091AG10000GF106991061041008001051021KA1240N+02061MA1999999097461MD1999999-0061REMSYN017 333 20206 59006;
0124829750999991998032118004-09100-044117FM-12+033199999V0200501N00361220001CN0500001N1+03071+02291101161ADDAA106004091AG10006AY161061AY231061GF104991041031008001001021MA1999999097231MD1999999+0031MW1091REMSYN017 333 58003 60041;
0150829750999991998032300004-09100-044117FM-12+033199999V0201801N00261220001CN9999999N9+02811+02421100811ADDAA106000091AG10000GA1001+999999999GF100991001001999999001001KA1240M+03411MA1999999096881MD1999999-0121REMSYN017 333 10341 59012;EQDQ01+000002VOVAR 
0115829750999991998032312004-09100-044117FM-12+033199999V0200501N00361220001CN0500001N1+02531+02241101281ADDAA106000091AG10000GF104991041031008001021031KA1240N+02151MA1999999097351MD1999999+0091REMSYN017 333 20215 58009;
0124829750999991998032318004-09100-044117FM-12+033199999V0201401N00261007501CN0500001N1+03091+02171101091ADDAA106004091AG10006AY161061AY231061GF106991061051008001041021MA1999999097161MD1999999+0061MW1091REMSYN017 333 58006 60041;
0134829750999991998032400004-09100-044117FM-12+033199999V0209991C00001220001CN9999999N9+02161+02051101061ADDAA106000091AG10000GF104991041021008001031021KA1240M+03201MA1999999097141MD1999999+0261REMSYN017 333 10320 58026;EQDQ01+000002VOVAR 
0121829750999991998032412004-09100-044117FM-12+033199999V0201801N00261007501CN0500001N1+02081+01971101381ADDAA124004091AG10000GF105991051031008001041031KA1240N+02041MA1999999097461MD1999999+0111REMSYN023 333 20204 58011 60044;
0096829750999991998032418004-09100-044117FM-12+033199999V0201401N00261220001CN0500001N1+03141+02351101141ADDAA106000091AG10000GF104991041001008001021031MA1999999097201MD1999999+0041REMSYN011 333 58004;
0143829750999991998032512004-09100-044117FM-12+033199999V0201801N00261007501CN0500001N1+02011+01941101461ADDAA124029091AG10006AY161061AY231061GF105991051031008001041021KA1240N+01951MA1999999097541MD1999999+0081MW1091REMSYN023 333 20195 58008 60294;
0112829750999991998032518004-09100-044117FM-12+033199999V0200501N00361220001CN0500001N1+03241+02431101191ADDAA106000091AG10000GA1001+999999999GF100991001001999999001001MA1999999097251MD1999999+0051REMSYN011 333 58005;
0150829750999991998032600004-09100-044117FM-12+033199999V0209991C00001220001CN9999999N9+02631+02291101171ADDAA106000091AG10000GA1001+999999999GF100991001001999999001001KA1240M+03421MA1999999097211MD1999999+0071REMSYN017 333 10342 58007;EQDQ01+000002VOVAR 
0115829750999991998032612004-09100-044117FM-12+033199999V0201801N00411007501CN0500001N1+02211+02131101431ADDAA106000091AG10000GF105991051031008001021001KA1240N+02011MA1999999097511MD1999999-0031REMSYN017 333 20201 59003;
0112829750999991998032618004-09100-044117FM-12+033199999V0201401N00361220001CN0500001N1+03311+02431101121ADDAA106000091AG10000GA1001+999999999GF100991001001999999001001MA1999999097181MD1999999-0071REMSYN011 333 59007;
0121829750999991998032712004-09100-044117FM-12+033199999V0201801N00261007501CN0500001N1+02121+02051101401ADDAA124002091AG10000GF106991061031008001041021KA1240N+01901MA1999999097481MD1999999-0061REMSYN023 333 20190 59006 60024;
0140829750999991998032718004-09100-044117FM-12+033199999V0201401N00361220001CN0500001N1+03141+02381101071ADDAA106010091AG10006AY161061AY231061GA1001+999999999GF100991001001999999001001MA1999999097141MD1999999-0041MW1091REMSYN017 333 59004 60101;
0134829750999991998032800004-09100-044117FM-12+033199999V0201801N00361007501CN9999999N9+02241+02151101231ADDAA106000091AG10000GF107991071031008001041001KA1240M+03281MA1999999097311MD1999999+0051REMSYN017 333 10328 58005;EQDQ01+000002VOVAR 
0115829750999991998033012004-09100-044117FM-12+033199999V0201801N00411220001CN0500001N1+02431+02171101271ADDAA106000091AG10000GF104991041021008001031021KA1240N+02231MA1999999097351MD1999999-0111REMSYN017 333 20223 59011;
0150829750999991998033100004-09100-044117FM-12+033199999V0209991C00001220001CN9999999N9+02711+02041100901ADDAA106000091AG10000GA1001+999999999GF100991001001999999001001KA1240M+03431MA1999999096971MD1999999-0031REMSYN017 333 10343 59003;EQDQ01+000002VOVAR 
0131829750999991998033112004-09100-044117FM-12+033199999V0203201N00411220001CN0500001N1+02311+02071101341ADDAA106000091AG10000GA1001+999999999GF100991001001999999001001KA1240N+01981MA1999999097411MD1999999+0061REMSYN017 333 20198 58006;
0112829750999991998033118004-09100-044117FM-12+033199999V0200501N00361220001CN0500001N1+03321+02251100971ADDAA106000091AG10000GA1001+999999999GF100991001001999999001001MA1999999097031MD1999999+0051REMSYN011 333 58005;
0150829750999991998040100004-09100-044117FM-12+033199999V0209991C00001220001CN9999999N9+02741+02021100981ADDAA106000091AG10000GA1001+999999999GF100991001001999999001001KA1240M+03471MA1999999097061MD1999999+0091REMSYN017 333 10347 58009;EQDQ01+000002VOVAR 
0115829750999991998040112004-09100-044117FM-12+033199999V0201801N00361007501CN0500001N1+02211+02041101321ADDAA106000091AG10000GF106991061041008001031041KA1240N+01941MA1999999097401MD1999999-0011REMSYN017 333 20194 59001;
0096829750999991998040118004-09100-044117FM-12+033199999V0200501N00411220001CN0500001N1+03371+02291101001ADDAA106000091AG10000GF103991031021008001001031MA1999999097061MD1999999+0031REMSYN011 333 58003;
0150829750999991998040300004-09100-044117FM-12+033199999V0209991C00001220001CN9999999N9+02831+02091101131ADDAA106000091AG10000GA1001+999999999GF100991001001999999001001KA1240M+03431MA1999999097201MD1999999-0081REMSYN017 333 10343 59008;EQDQ01+000002VOVAR 
0115829750999991998040312004-09100-044117FM-12+033199999V0200501N003619999999N0500001N1+02341+02151101411ADDAA106000091AG10000GF105991999999999999999999KA1240N+02051MA1999999097481MD1999999+0021REMSYN017 333 20205 58002;
0096829750999991998040318004-09100-044117FM-12+033199999V0202301N00361007501CN0500001N1+03141+02321101931ADDAA106000091AG10000GF105991051031008001041001MA1999999097201MD1999999+0061REMSYN011 333 58006;
0134829750999991998040400004-09100-044117FM-12+033199999V0203201N00511007501CN9999999N9+02611+02271101201ADDAA106000091AG10000GF105991051041008001021001KA1240M+03381MA1999999097271MD1999999+0071REMSYN017 333 10338 58007;EQDQ01+000002VOVAR 
0150829750999991998040500004-09100-044117FM-12+033199999V0201801N00361220001CN9999999N9+02411+02031101101ADDAA106000091AG10000GA1001+999999999GF100991001001999999001001KA1240M+03391MA1999999097181MD1999999-0091REMSYN017 333 10339 59009;EQDQ01+000002VOVAR 
0115829750999991998040512004-09100-044117FM-12+033199999V0203201N00411007501CN0500001N1+02301+02131101391ADDAA106000091AG10000GF105991051031008001021031KA1240N+02001MA1999999097471MD1999999+0021REMSYN017 333 20200 58002;
0112829750999991998040518004-09100-044117FM-12+033199999V0201401N00411220001CN0500001N1+03321+02351101241ADDAA106000091AG10000GA1001+999999999GF100991001001999999001001MA1999999097301MD1999999+0021REMSYN011 333 58002;
0182829750999991998040600004-09100-044117FM-12+033199999V0201401N00261220001CN9999999N9+02741+02191101131ADDAA106000091AG10000GA1001+999999999GF100991001001999999001001KA1240M+03481MA1999999999999MD1999999+0021REMSYN017 333 10348 58002;EQDQ01+090203APOSP Q02+000002VOVAR Q03 090203APOSP 
0131829750999991998040612004-09100-044117FM-12+033199999V0201801N00361220001CN0500001N1+02431+02131101451ADDAA106000091AG10000GA1001+999999999GF100991001001999999001001KA1240N+02101MA1999999097521MD1999999+0051REMSYN017 333 20210 58005;
0131829750999991998040712004-09100-044117FM-12+033199999V0201801N00261220001CN0500001N1+02531+02141101481ADDAA106000091AG10000GA1001+999999999GF100991001001999999001001KA1240N+02141MA1999999097551MD1999999+0031REMSYN017 333 20214 58003;
0150829750999991998040800004-09100-044117FM-12+033199999V0201401N00361220001CN9999999N9+02911+02221101121ADDAA106000091AG10000GA1001+999999999GF100991001001999999001001KA1240M+03501MA1999999097191MD1999999-0031REMSYN017 333 10350 59003;EQDQ01+000002VOVAR 
0131829750999991998040812004-09100-044117FM-12+033199999V0200501N00361220001CN0500001N1+02411+02321101471ADDAA106000091AG10000GA1001+999999999GF100991001001999999001001KA1240N+02081MA1999999097551MD1999999+0031REMSYN017 333 20208 58003;
0112829750999991998040818004-09100-044117FM-12+033199999V0202301N00411220001CN0500001N1+03351+02371101191ADDAA106000091AG10000GA1001+999999999GF100991001001999999001001MA1999999097251MD1999999+0011REMSYN011 333 58001;
0115829750999991998040912004-09100-044117FM-12+033199999V0201801N00261220001CN0500001N1+02611+02331100271ADDAA106000091AG10000GF103991031021008001031021KA1240N+02121MA1999999097451MD1999999-0101REMSYN017 333 20212 59010;
0131829750999991998040918004-09100-044117FM-12+033199999V0209991C00001220001CN0500001N1+03431+02251101142ADDAA106000091AG10000GA1001+999999999GF100991001001999999001001MA1999999097201MD1999999+0041REMSYN011 333 58004;EQDQ01+101143APOSLP
0150829750999991998041000004-09100-044117FM-12+033199999V0209991C00001220001CN9999999N9+02931+02171100881ADDAA106000091AG10000GA1001+999999999GF100991001001999999001001KA1240M+03491MA1999999096951MD1999999-0211REMSYN017 333 10349 59021;EQDQ01+000002VOVAR 
0131829750999991998041012004-09100-044117FM-12+033199999V0209991C00001220001CN0500001N1+02431+02231101171ADDAA106000091AG10000GA1001+999999999GF100991001001999999001001KA1240N+02091MA1999999097241MD1999999-0211REMSYN017 333 20209 59021;
0134829750999991998041100004-09100-044117FM-12+033199999V0201401N00411220001CN9999999N9+02611+02401100741ADDAA106000091AG10000GF104991041021008001031021KA1240M+03391MA1999999096811MD1999999-0151REMSYN017 333 10339 59015;EQDQ01+000002VOVAR 
0134829750999991998041112004-09100-044117FM-12+033199999V0201801N00261220001CN0500001N1+02541+02341101191ADDAA106000091AG10000GF103991999021008001031001KA1240N+02141MA1999999097271MD1999999+0031REMSYN017 333 20214 58003;EQDQ01+000052SCOTLC
0150829750999991998041300004-09100-044117FM-12+033199999V0209991C00001220001CN9999999N9+03041+02001100941ADDAA106000091AG10000GA1001+999999999GF100991001001999999001001KA1240M+03471MA1999999097011MD1999999-0111REMSYN017 333 10347 59011;EQDQ01+000002VOVAR 
0112829750999991998041318004-09100-044117FM-12+033199999V0202301N00411220001CN0500001N1+03471+02151101221ADDAA106000091AG10000GA1001+999999999GF100991001001999999001001MA1999999097281MD1999999+0011REMSYN011 333 58001;
0112829750999991998041418004-09100-044117FM-12+033199999V0201401N00411220001CN0500001N1+03451+02351101141ADDAA106000091AG10000GA1001+999999999GF100991001001999999001001MA1999999097201MD1999999-0081REMSYN011 333 59008;
0150829750999991998041500004-09100-044117FM-12+033199999V0209991C00001220001CN9999999N9+02831+02231100831ADDAA106000091AG10000GA1001+999999999GF100991001001999999001001KA1240M+03421MA1999999096901MD1999999-0161REMSYN017 333 10342 59016;EQDQ01+000002VOVAR 
0131829750999991998041512004-09100-044117FM-12+033199999V0201401N00411220001CN0500001N1+02261+02091101211ADDAA106000091AG10000GA1001+999999999GF100991001001999999001001KA1240N+02001MA1999999097291MD1999999-0141REMSYN017 333 20200 59014;
0112829750999991998041518004-09100-044117FM-12+033199999V0200501N00411220001CN0500001N1+03381+02151100981ADDAA106000091AG10000GA1001+999999999GF100991001001999999001001MA1999999097051MD1999999-0151REMSYN011 333 59015;
0150829750999991998041600004-09100-044117FM-12+033199999V0201401N00261220001CN9999999N9+02811+01951100841ADDAA106000091AG10000GA1001+999999999GF100991001001999999001001KA1240M+03371MA1999999096911MD1999999+0011REMSYN017 333 10337 58001;EQDQ01+000002VOVAR 
0115829750999991998041612004-09100-044117FM-12+033199999V0200501N00511007501CN0500001N1+02251+02151101291ADDAA106000091AG10000GF105991051031008001041021KA1240N+02051MA1999999097361MD1999999+0071REMSYN017 333 20205 58007;
0096829750999991998041618004-09100-044117FM-12+033199999V0203201N00361220001CN0500001N1+03231+02341100941ADDAA106000091AG10000GF104991041021008001031001MA1999999097001MD1999999-0051REMSYN011 333 59005;
0150829750999991998041700004-09100-044117FM-12+033199999V0209991C00001220001CN9999999N9+02811+02311100981ADDAA106000091AG10000GA1001+999999999GF100991001001999999001001KA1240M+03431MA1999999097051MD1999999+0141REMSYN017 333 10343 58014;EQDQ01+000002VOVAR 
0115829750999991998041712004-09100-044117FM-12+033199999V0201801N00361220001CN0500001N1+02411+02191101391ADDAA106000091AG10000GF104991041031008001001021KA1240N+02141MA1999999097451MD1999999+0091REMSYN017 333 20214 58009;
0112829750999991998041718004-09100-044117FM-12+033199999V0203201N00361220001CN0500001N1+03431+02351101091ADDAA106000091AG10000GA1001+999999999GF100991001001999999001001MA1999999097151MD1999999+0151REMSYN011 333 58015;
0150829750999991998041800004-09100-044117FM-12+033199999V0201401N00411220001CN9999999N9+03051+02101100941ADDAA106000091AG10000GA1001+999999999GF100991001001999999001001KA1240M+03581MA1999999097011MD1999999-0041REMSYN017 333 10358 59004;EQDQ01+000002VOVAR 
0115829750999991998041812004-09100-044117FM-12+033199999V0200501N00411220001CN0500001N1+02541+02311101231ADDAA106000091AG10000GF104991041031008001021031KA1240N+02191MA1999999097301MD1999999-0151REMSYN017 333 20219 59015;
0112829750999991998041818004-09100-044117FM-12+033199999V0201401N00361220001CN0500001N1+03501+02341101041ADDAA106000091AG10000GA1001+999999999GF100991001001999999001001MA1999999097101MD1999999-0051REMSYN011 333 59005;
0112829750999991998041918004-09100-044117FM-12+033199999V0201801N00411220001CN0500001N1+03531+02181100941ADDAA106000091AG10000GA1001+999999999GF100991001001999999001001MA1999999097001MD1999999-0101REMSYN011 333 59010;
0150829750999991998042000004-09100-044117FM-12+033199999V0203201N00261220001CN9999999N9+03151+02131100691ADDAA106000091AG10000GA1001+999999999GF100991001001999999001001KA1240M+03681MA1999999096761MD1999999-0101REMSYN017 333 10368 59010;EQDQ01+000002VOVAR 
0115829750999991998042012004-09100-044117FM-12+033199999V0201801N00361220001CN0500001N1+02411+02171101141ADDAA106000091AG10000GF103991031021008001001031KA1240N+02091MA1999999097211MD1999999+0001REMSYN017 333 20209 58000;
0112829750999991998042018004-09100-044117FM-12+033199999V0200501N00411220001CN0500001N1+03571+02171100891ADDAA106000091AG10000GA1001+999999999GF100991001001999999001001MA1999999096901MD1999999-0101REMSYN011 333 59010;
0150829750999991998042100004-09100-044117FM-12+033199999V0201401N00361220001CN9999999N9+03071+02101100731ADDAA106000091AG10000GA1001+999999999GF100991001001999999001001KA1240M+03651MA1999999096801MD1999999+0041REMSYN017 333 10365 58004;EQDQ01+000002VOVAR 
0115829750999991998042112004-09100-044117FM-12+033199999V0201401N00261220001CN0500001N1+02611+02011101281ADDAA106000091AG10000GF103991031021008001031021KA1240N+02151MA1999999097351MD1999999+0141REMSYN017 333 20215 58014;
0112829750999991998042118004-09100-044117FM-12+033199999V0203601N00511220001CN0500001N1+03631+02251100891ADDAA106000091AG10000GA1001+999999999GF100991001001999999001001MA1999999096941MD1999999+0041REMSYN011 333 58004;
0150829750999991998042200004-09100-044117FM-12+033199999V0209991C00001220001CN9999999N9+02911+99999100941ADDAA106000091AG10000GA1001+999999999GF100991001001999999001001KA1240M+03611MA1999999097011MD1999999+0211REMSYN017 333 10361 58021;EQDQ01+000002VOVAR 
0115829750999991998042212004-09100-044117FM-12+033199999V0201401N00771220001CN0500001N1+02411+02091101391ADDAA106000091AG10000GF104991041021008001001031KA1240N+02091MA1999999097461MD1999999+0111REMSYN017 333 20209 58011;
0112829750999991998042218004-09100-044117FM-12+033199999V0201801N00411220001CN0500001N1+03641+02281101081ADDAA106000091AG10000GA1001+999999999GF100991001001999999001001MA1999999097141MD1999999+0101REMSYN011 333 58010;
0150829750999991998042300004-09100-044117FM-12+033199999V0200501N00411220001CN9999999N9+02631+01861101141ADDAA106000091AG10000GA1001+999999999GF100991001001999999001001KA1240M+03571MA1999999097211MD1999999+0201REMSYN017 333 10357 58020;EQDQ01+000002VOVAR 
0096829750999991998042318004-09100-044117FM-12+033199999V0201801N00361220001CN0500001N1+03541+02091100981ADDAA106000091AG10000GF103991031021008001001031MA1999999097041MD1999999-0061REMSYN011 333 59006;
0131829750999991998042412004-09100-044117FM-12+033199999V0201401N00771220001CN0500001N1+02431+02111101311ADDAA106000091AG10000GA1001+999999999GF100991001001999999001001KA1240N+02031MA1999999097391MD1999999-0021REMSYN017 333 20203 59002;
0112829750999991998042418004-09100-044117FM-12+033199999V0201401N00361220001CN0500001N1+03611+02071100941ADDAA106000091AG10000GA1001+999999999GF100991001001999999001001MA1999999097001MD1999999-0041REMSYN011 333 59004;
0150829750999991998042500004-09100-044117FM-12+033199999V0203201N00261220001CN9999999N9+03051+02481100931ADDAA106000091AG10000GA1001+999999999GF100991001001999999001001KA1240M+03681MA1999999097001MD1999999-0051REMSYN017 333 10368 59005;EQDQ01+000002VOVAR 
0131829750999991998042512004-09100-044117FM-12+033199999V0209991C00001220001CN0500001N1+02511+02091101171ADDAA106000091AG10000GA1001+999999999GF100991001001999999001001KA1240N+02051MA1999999097251MD1999999-0141REMSYN017 333 20205 59014;
0150829750999991998042700004-09100-044117FM-12+033199999V0201401N00721220001CN9999999N9+03031+01831100701ADDAA106000091AG10000GA1001+999999999GF100991001001999999001001KA1240M+03761MA1999999096771MD1999999-0091REMSYN017 333 10376 59009;EQDQ01+000002VOVAR 
0126829750999991998042712004-09100-044117FM-12+033199999V0201801N003619999999N0500001N1+02341+02151101171ADDAA106000091AA299324091AG10000GF106991999999008001999999KA1240N+02011MA1999999097251MD1999999+0041REMSYN017 333 20201 58004;
0112829750999991998042718004-09100-044117FM-12+033199999V0203201N00261220001CN0500001N1+03531+01931100941ADDAA106000091AG10000GA1001+999999999GF100991001001999999001001MA1999999097001MD1999999+0091REMSYN011 333 58009;
0150829750999991998042800004-09100-044117FM-12+033199999V0209991C00001220001CN9999999N9+02731+02301100731ADDAA106000091AG10000GA1001+999999999GF100991001001999999001001KA1240M+03391MA1999999096801MD1999999+0031REMSYN017 333 10339 58003;EQDQ01+000002VOVAR 
0115829750999991998042812004-09100-044117FM-12+033199999V0200501N00411007501CN0500001N1+02481+02081101241ADDAA106000091AG10000GF105991051031008001001021KA1240N+02061MA1999999097321MD1999999+0071REMSYN017 333 20206 58007;
0112829750999991998042818004-09100-044117FM-12+033199999V0203201N00511220001CN0500001N1+03521+02051100991ADDAA106000091AG10000GA1001+999999999GF100991001001999999001001MA1999999097051MD1999999+0051REMSYN011 333 58005;
0134829750999991998042900004-09100-044117FM-12+033199999V0202301N00261220001CN9999999N9+02911+02171100941ADDAA106000091AG10000GF103991999999008001999999KA1240M+03521MA1999999097011MD1999999+0121REMSYN017 333 10352 58012;EQDQ01+000002VOVAR 
0115829750999991998042912004-09100-044117FM-12+033199999V0201801N00261007501CN0500001N1+02301+02141101371ADDAA106000091AG10000GF106991061021008001001001KA1240N+02001MA1999999097451MD1999999+0181REMSYN017 333 20200 58018;
0112829750999991998042918004-09100-044117FM-12+033199999V0200501N00411220001CN0500001N1+03531+02131101041ADDAA106000091AG10000GA1001+999999999GF100991001001999999001001MA1999999097101MD1999999+0051REMSYN011 333 58005;
0112829750999991998043018004-09100-044117FM-12+033199999V0201401N00411220001CN0500001N1+03561+02151100981ADDAA106000091AG10000GA1001+999999999GF100991001001999999001001MA1999999097041MD1999999-0061REMSYN011 333 59006;
0096829750999991998050118004-09100-044117FM-12+033199999V0201401N00261007501CN0500001N1+03141+02041100931ADDAA106000091AG10000GF106991061041008001021031MA1999999097001MD1999999-0041REMSYN011 333 59004;
0134829750999991998050200004-09100-044117FM-12+033199999V0201401N00261220001CN9999999N9+02501+02031100871ADDAA106000091AG10000GF104991041031008001021001KA1240M+03351MA1999999096951MD1999999-0011REMSYN017 333 10335 59001;EQDQ01+000002VOVAR 
0143829750999991998050212004-09100-044117FM-12+033199999V0201801N00261007501CN0500001N1+02201+02071101131ADDAA124002091AG10005AY161061AY231061GF106991061041008001051021KA1240N+01911MA1999999097201MD1999999-0031MW1091REMSYN023 333 20191 59003 60024;
0096829750999991998050218004-09100-044117FM-12+033199999V0203201N00261007501CN0500001N1+02931+02321100981ADDAA106000091AG10000GF105991051031008001021031MA1999999097051MD1999999+0051REMSYN011 333 58005;
0134829750999991998050300004-09100-044117FM-12+033199999V0201801N00261220001CN9999999N9+02341+02051100991ADDAA106000091AG10000GF104991041021008001001031KA1240M+03231MA1999999097071MD1999999+0121REMSYN017 333 10323 58012;EQDQ01+000002VOVAR 
0115829750999991998050412004-09100-044117FM-12+033199999V0201801N00261007501CN0500001N1+02231+02051101381ADDAA106000091AG10000GF105991051031008001041001KA1240N+01951MA1999999097461MD1999999+0171REMSYN017 333 20195 58017;
0131829750999991998050418004-09100-044117FM-12+033199999V0201401N00411220001CN0500001N1+03251+02241100082ADDAA106000091AG10000GA1001+999999999GF100991001001999999001001MA1999999097081MD1999999-0041REMSYN011 333 59004;EQDQ01+100083APOSLP
0166829750999991998050500004-09100-044117FM-12+033199999V0209991C00001220001CN9999999N9+02731+02091101062ADDAA106000091AG10000GA1001+999999999GF100991001001999999001001KA1240M+03371MA1999999097141MD1999999+0061REMSYN017 333 10337 58006;EQDQ01+101063APOSLPQ02+000002VOVAR 
0131829750999991998050512004-09100-044117FM-12+033199999V0209991C00001220001CN0500001N1+02411+02131101421ADDAA106000091AG10000GA1001+999999999GF100991001001999999001001KA1240N+02061MA1999999097501MD1999999+0041REMSYN017 333 20206 58004;
0150829750999991998050600004-09100-044117FM-12+033199999V0209991C00001220001CN9999999N9+02811+02391101031ADDAA106000091AG10000GA1001+999999999GF100991001001999999001001KA1240M+03431MA1999999097101MD1999999-0041REMSYN017 333 10343 59004;EQDQ01+000002VOVAR 
0115829750999991998050612004-09100-044117FM-12+033199999V0201801N00261220001CN0500001N1+02131+02031101321ADDAA106000091AG10000GF103991031021008001031001KA1240N+01991MA1999999097401MD1999999-0101REMSYN017 333 20199 59010;
0112829750999991998050618004-09100-044117FM-12+033199999V0200501N00411220001CN0500001N1+03351+02151101071ADDAA106000091AG10000GA1001+999999999GF100991001001999999001001MA1999999097131MD1999999-0071REMSYN011 333 59007;
0150829750999991998050700004-09100-044117FM-12+033199999V0209991C00001220001CN9999999N9+02811+02361101031ADDAA106000091AG10000GA1001+999999999GF100991001001999999001001KA1240M+03401MA1999999097501MD1999999+0001REMSYN017 333 10340 58000;EQDQ01+000002VOVAR 
0115829750999991998050712004-09100-044117FM-12+033199999V0201801N00511220001CN0500001N1+02121+01971101311ADDAA106000091AG10000GF103991031021008001021001KA1240N+01931MA1999999097391MD1999999-0011REMSYN017 333 20193 59001;
0112829750999991998050718004-09100-044117FM-12+033199999V0201401N00411220001CN0500001N1+03351+02071101041ADDAA106000091AG10000GA1001+999999999GF100991001001999999001001MA1999999097101MD1999999-0031REMSYN011 333 59003;
0134829750999991998050800004-09100-044117FM-12+033199999V0201801N00261220001CN9999999N9+02531+02121101071ADDAA106000091AG10000GF104991041031008001021031KA1240M+03391MA1999999097141MD1999999+0041REMSYN017 333 10339 58004;EQDQ01+000002VOVAR 
0143829750999991998050812004-09100-044117FM-12+033199999V0201801N00511007501CN0500001N1+02471+02181101481ADDAA124003091AG10005AY161061AY231061GF105991051031008001041021KA1240N+01861MA1999999097561MD1999999+0171MW1061REMSYN023 333 20186 58017 60034;
0096829750999991998050818004-09100-044117FM-12+033199999V0200501N00361007501CN0500001N1+03361+02141101101ADDAA106000091AG10000GF105991051031008001021041MA1999999097161MD1999999+0061REMSYN011 333 58006;
0112829750999991998051118004-09100-044117FM-12+033199999V0201401N00411220001CN0500001N1+03281+02141101291ADDAA106000091AG10000GA1001+999999999GF100991001001999999001001MA1999999097351MD1999999-0141REMSYN011 333 59014;
0131829750999991998051212004-09100-044117FM-12+033199999V0201801N00411220001CN0500001N1+02311+01941101481ADDAA106000091AG10000GA1001+999999999GF100991001001999999001001KA1240N+01871MA1999999097561MD1999999+0061REMSYN017 333 20187 58006;
0150829750999991998051300004-09100-044117FM-12+033199999V0209991C00001220001CN9999999N9+03011+02031101171ADDAA106000091AG10000GA1001+999999999GF100991001001999999001001KA1240M+03511MA1999999097241MD1999999-0051REMSYN017 333 10351 59005;EQDQ01+000002VOVAR 
0131829750999991998051312004-09100-044117FM-12+033199999V0201801N00261220001CN0500001N1+02341+02031101431ADDAA106000091AG10000GA1001+999999999GF100991001001999999001001KA1240N+01911MA1999999097511MD1999999-0051REMSYN017 333 20191 59005;
0112829750999991998051318004-09100-044117FM-12+033199999V0201401N00411220001CN0500001N1+03421+02051101191ADDAA106000091AG10000GA1001+999999999GF100991001001999999001001MA1999999097251MD1999999-0101REMSYN011 333 59010;
0150829750999991998051400004-09100-044117FM-12+033199999V0209991C00001220001CN9999999N9+02931+01971101131ADDAA106000091AG10000GA1001+999999999GF100991001001999999001001KA1240M+03571MA1999999097201MD1999999-0041REMSYN017 333 10357 59004;EQDQ01+000002VOVAR 
0131829750999991998051412004-09100-044117FM-12+033199999V0201801N00411220001CN0500001N1+02511+02151101411ADDAA106000091AG10000GA1001+999999999GF100991001001999999001001KA1240N+02121MA1999999097491MD1999999-0021REMSYN017 333 20212 59002;
0112829750999991998051418004-09100-044117FM-12+033199999V0200501N00411220001CN0500001N1+03481+02141101181ADDAA106000091AG10000GA1001+999999999GF100991001001999999001001MA1999999097251MD1999999+0001REMSYN011 333 58000;
0131829750999991998051512004-09100-044117FM-12+033199999V0201801N00771220001CN0500001N1+02431+01931101321ADDAA106000091AG10000GA1001+999999999GF100991001001999999001001KA1240N+02151MA1999999097401MD1999999-0091REMSYN017 333 20215 59009;
0112829750999991998051518004-09100-044117FM-12+033199999V0201801N00511220001CN0500001N1+03411+02031101171ADDAA106000091AG10000GA1001+999999999GF100991001001999999001001MA1999999097231MD1999999-0021REMSYN011 333 59002;
0150829750999991998051600004-09100-044117FM-12+033199999V0201801N00261220001CN9999999N9+02901+01081100941ADDAA106000091AG10000GA1001+999999999GF100991001001999999001001KA1240M+03481MA1999999097011MD1999999-0151REMSYN017 333 10348 59015;EQDQ01+000002VOVAR 
0131829750999991998051612004-09100-044117FM-12+033199999V0201801N00771220001CN0500001N1+02211+01831101281ADDAA106000091AG10000GA1001+999999999GF100991001001999999001001KA1240N+01861MA1999999097361MD1999999-0041REMSYN017 333 20186 59004;
0131829750999991998051712004-09100-044117FM-12+033199999V0201801N00411220001CN0500001N1+02241+01881101381ADDAA106000091AG10000GA1001+999999999GF100991001001999999001001KA1240N+01851MA1999999097461MD1999999+0101REMSYN017 333 20185 58010;
0096829750999991998051718004-09100-044117FM-12+033199999V0201801N00411220001CN0500001N1+03381+01911101291ADDAA106000091AG10000GF104991041021008001021031MA1999999097351MD1999999-0211REMSYN011 333 59021;
0131829750999991998051812004-09100-044117FM-12+033199999V0201801N00511220001CN0500001N1+02101+01741101491ADDAA106000091AG10000GA1001+999999999GF100991001001999999001001KA1240N+01811MA1999999097571MD1999999+0111REMSYN017 333 20181 58011;
0112829750999991998051818004-09100-044117FM-12+033199999V0200501N00411220001CN0500001N1+03411+02031101241ADDAA106000091AG10000GA1001+999999999GF100991001001999999001001MA1999999097301MD1999999+0151REMSYN011 333 58015;
0150829750999991998051900004-09100-044117FM-12+033199999V0209991C00001220001CN9999999N9+02911+01981101281ADDAA106000091AG10000GA1001+999999999GF100991001001999999001001KA1240M+03451MA1999999097351MD1999999+0051REMSYN017 333 10345 58005;EQDQ01+000002VOVAR 
0115829750999991998051912004-09100-044117FM-12+033199999V0201801N00261220001CN0500001N1+02241+01981101611ADDAA106000091AG10000GF104991041031008001021031KA1240N+01931MA1999999097691MD1999999+0121REMSYN017 333 20193 58012;
0134829750999991998052000004-09100-044117FM-12+033199999V0201801N00261220001CN9999999N9+02981+02011101391ADDAA106000091AG10000GF104991041021008001031001KA1240M+03391MA1999999097461MD1999999+0111REMSYN017 333 10339 58011;EQDQ01+000002VOVAR 
0115829750999991998052012004-09100-044117FM-12+033199999V0201801N00411220001CN0500001N1+02431+02031101671ADDAA106000091AG10000GF103991031001008001031021KA1240N+02031MA1999999097751MD1999999+0061REMSYN017 333 20203 58006;
0112829750999991998052018004-09100-044117FM-12+033199999V0203601N00511220001CN0500001N1+03431+02071101431ADDAA106000091AG10000GA1001+999999999GF100991001001999999001001MA1999999097501MD1999999+0101REMSYN011 333 58010;
0134829750999991998052100004-09100-044117FM-12+033199999V0201801N00261220001CN9999999N9+02911+01871101381ADDAA106000091AG10000GF103991031021008001001021KA1240M+03351MA1999999097461MD1999999+0001REMSYN017 333 10335 58000;EQDQ01+000002VOVAR 
0115829750999991998052112004-09100-044117FM-12+033199999V0201801N00511220001CN0500001N1+02311+01941101631ADDAA106000091AG10000GF104991041021008001031021KA1240N+01961MA1999999097711MD1999999-0041REMSYN017 333 20196 59004;
0115829750999991998052118004-09100-044117FM-12+033199999V0201801N00261220001CN0500001N1+03451+01981101491ADDAA106000091AG10000GF101991999031008001041021MA1999999097451MD1999999-0051REMSYN011 333 59005;EQDQ01+000052SCOTLC
0134829750999991998052200004-09100-044117FM-12+033199999V0201801N00261220001CN9999999N9+02931+02081101341ADDAA106000091AG10000GF104991041021008001021031KA1240M+03381MA1999999097411MD1999999-0051REMSYN017 333 10338 59005;EQDQ01+000002VOVAR 
0115829750999991998052212004-09100-044117FM-12+033199999V0201801N00261007501CN0500001N1+02411+02151101571ADDAA106000091AG10000GF105991051031008001021031KA1240N+02001MA1999999097651MD1999999-0061REMSYN017 333 20200 59006;
0096829750999991998052218004-09100-044117FM-12+033199999V0201801N00361220001CN0500001N1+03421+02141101341ADDAA106000091AG10000GF103991031001008001021031MA1999999097401MD1999999-0051REMSYN011 333 59005;
0150829750999991998052400004-09100-044117FM-12+033199999V0201801N00261220001CN9999999N9+02811+02031101281ADDAA106000091AG10000GA1001+999999999GF100991001001999999001001KA1240M+03181MA1999999097351MD1999999-0011REMSYN017 333 10318 59001;EQDQ01+000002VOVAR 
0115829750999991998052412004-09100-044117FM-12+033199999V0201801N00361105001CN0500001N1+02241+01921101581ADDAA106000091AG10000GF106991031021008001001021KA1240N+02001MA1999999097661MD1999999-0041REMSYN017 333 20200 59004;
0115829750999991998052512004-09100-044117FM-12+033199999V0201801N00511220001CN0500001N1+02351+01981101511ADDAA106000091AG10000GF104991041031008001021031KA1240N+02061MA1999999097591MD1999999-0071REMSYN017 333 20206 59007;
0112829750999991998052518004-09100-044117FM-12+033199999V0201401N00411220001CN0500001N1+03431+02071101341ADDAA106000091AG10000GA1001+999999999GF100991001001999999001001MA1999999097401MD1999999-0051REMSYN011 333 59005;
0131829750999991998052612004-09100-044117FM-12+033199999V0200501N00361220001CN0500001N1+02321+02031101531ADDAA106000091AG10000GA1001+999999999GF100991001001999999001001KA1240N+01971MA1999999097611MD1999999+0021REMSYN017 333 20197 58002;
0112829750999991998052618004-09100-044117FM-12+033199999V0203201N00511220001CN0500001N1+03401+02071101281ADDAA106000091AG10000GA1001+999999999GF100991001001999999001001MA1999999097341MD1999999-0061REMSYN011 333 59006;
0131829750999991998052712004-09100-044117FM-12+033199999V0200501N00361220001CN0500001N1+02141+01881101521ADDAA106000091AG10000GA1001+999999999GF100991001001999999001001KA1240N+01871MA1999999097601MD1999999-0011REMSYN017 333 20187 59001;
0112829750999991998052718004-09100-044117FM-12+033199999V0201401N00411220001CN0500001N1+03421+02151101291ADDAA106000091AG10000GA1001+999999999GF100991001001999999001001MA1999999097351MD1999999+0021REMSYN011 333 58002;
0131829750999991998052912004-09100-044117FM-12+033199999V0209991C00001220001CN0500001N1+02041+01821101481ADDAA106000091AG10000GA1001+999999999GF100991001001999999001001KA1240N+01841MA1999999097561MD1999999+0051REMSYN017 333 20184 58005;
0112829750999991998052918004-09100-044117FM-12+033199999V0200501N00411220001CN0500001N1+03461+02031101291ADDAA106000091AG10000GA1001+999999999GF100991001001999999001001MA1999999097351MD1999999-0051REMSYN011 333 59005;
0150829750999991998053000004-09100-044117FM-12+033199999V0209991C00001220001CN9999999N9+03001+01941101091ADDAA106000091AG10000GA1001+999999999GF100991001001999999001001KA1240M+03581MA1999999097161MD1999999-0041REMSYN017 333 10358 59004;EQDQ01+000002VOVAR 
0131829750999991998053012004-09100-044117FM-12+033199999V0201801N00361220001CN0500001N1+02251+01751101521ADDAA106000091AG10000GA1001+999999999GF100991001001999999001001KA1240N+01871MA1999999097601MD1999999+0041REMSYN017 333 20187 58004;
0112829750999991998053018004-09100-044117FM-12+033199999V0203201N00411220001CN0500001N1+03481+02131101321ADDAA106000091AG10000GA1001+999999999GF100991001001999999001001MA1999999097381MD1999999+0031REMSYN011 333 58003;
0115829750999991998060112004-09100-044117FM-12+033199999V0201801N00411007501CN0500001N1+02311+02071101621ADDAA106000091AG10000GF105991051021008001041021KA1240N+01861MA1999999097701MD1999999+0091REMSYN017 333 20186 58009;
0096829750999991998060118004-09100-044117FM-12+033199999V0203201N00511220001CN0500001N1+03461+02141101431ADDAA106000091AG10000GF104991041021008001031021MA1999999097501MD1999999+0061REMSYN011 333 58006;
0115829750999991998060212004-09100-044117FM-12+033199999V0201801N00361007501CN0500001N1+02351+02091101841ADDAA106000091AG10000GF105991051031008001041021KA1240N+02011MA1999999097921MD1999999+0221REMSYN017 333 20201 58022;
0112829750999991998060218004-09100-044117FM-12+033199999V0203201N00671220001CN0500001N1+03421+02051101531ADDAA106000091AG10000GA1001+999999999GF100991001001999999001001MA1999999097601MD1999999+0101REMSYN011 333 58010;
0131829750999991998060312004-09100-044117FM-12+033199999V0201801N00511220001CN0500001N1+02321+02031101781ADDAA106000091AG10000GA1001+999999999GF100991001001999999001001KA1240N+01941MA1999999097861MD1999999-0061REMSYN017 333 20194 59006;
0150829750999991998060400004-09100-044117FM-12+033199999V0201801N00671220001CN9999999N9+02841+01931101541ADDAA106000091AG10000GA1001+999999999GF100991001001999999001001KA1240M+03591MA1999999097611MD1999999+0101REMSYN017 333 10359 58010;EQDQ01+000002VOVAR 
0131829750999991998060412004-09100-044117FM-12+033199999V0209991C00001220001CN0500001N1+02311+01981101771ADDAA106000091AG10000GA1001+999999999GF100991001001999999001001KA1240N+01901MA1999999097851MD1999999-0011REMSYN017 333 20190 59001;
0112829750999991998060418004-09100-044117FM-12+033199999V0203201N00771220001CN0500001N1+03431+02051101541ADDAA106000091AG10000GA1001+999999999GF100991001001999999001001MA1999999097601MD1999999-0051REMSYN011 333 59005;
0150829750999991998060500004-09100-044117FM-12+033199999V0201801N00411220001CN9999999N9+02711+01981101431ADDAA106000091AG10000GA1001+999999999GF100991001001999999001001KA1240M+03521MA1999999097501MD1999999-0111REMSYN017 333 10352 59011;EQDQ01+000002VOVAR 
0131829750999991998060512004-09100-044117FM-12+033199999V0201801N00511220001CN0500001N1+02211+01841101791ADDAA106000091AG10000GA1001+999999999GF100991001001999999001001KA1240N+01861MA1999999097871MD1999999+0021REMSYN017 333 20186 58002;
0112829750999991998060518004-09100-044117FM-12+033199999V0201801N00411220001CN0500001N1+03361+01981101641ADDAA106000091AG10000GA1001+999999999GF100991001001999999001001MA1999999097551MD1999999-0051REMSYN011 333 59005;
0150829750999991998060600004-09100-044117FM-12+033199999V0201801N00411220001CN9999999N9+02711+01781101421ADDAA106000091AG10000GA1001+999999999GF100991001001999999001001KA1240M+03421MA1999999097501MD1999999+0001REMSYN017 333 10342 58000;EQDQ01+000002VOVAR 
0131829750999991998060712004-09100-044117FM-12+033199999V0201801N00771220001CN0500001N1+02241+01981101731ADDAA106000091AG10000GA1001+999999999GF100991001001999999001001KA1240N+01861MA1999999097811MD1999999-0191REMSYN017 333 20186 59019;
0112829750999991998060718004-09100-044117FM-12+033199999V0201401N00261220001CN0500001N1+03341+02151101511ADDAA106000091AG10000GA1001+999999999GF100991001001999999001001MA1999999097571MD1999999-0111REMSYN011 333 59011;
0150829750999991998060800004-09100-044117FM-12+033199999V0201801N00511220001CN9999999N9+02671+01981101441ADDAA106000091AG10000GA1001+999999999GF100991001001999999001001KA1240M+03401MA1999999097511MD1999999-0121REMSYN017 333 10340 59012;EQDQ01+000002VOVAR 
0131829750999991998060812004-09100-044117FM-12+033199999V0201801N00511220001CN0500001N1+02141+01981101581ADDAA106000091AG10000GA1001+999999999GF100991001001999999001001KA1240N+01801MA1999999097661MD1999999-0151REMSYN017 333 20180 59015;
0096829750999991998060818004-09100-044117FM-12+033199999V0203201N00771220001CN0500001N1+03261+02151101481ADDAA106000091AG10000GF104991041031008001021031MA1999999097551MD1999999-0021REMSYN011 333 59002;
0131829750999991998060912004-09100-044117FM-12+033199999V0201801N00771220001CN0500001N1+02311+01941101591ADDAA106000091AG10000GA1001+999999999GF100991001001999999001001KA1240N+01871MA1999999097661MD1999999+0001REMSYN017 333 20187 58000;
0112829750999991998060918004-09100-044117FM-12+033199999V0201801N00361220001CN0500001N1+03241+02041101491ADDAA106000091AG10000GA1001+999999999GF100991001001999999001001MA1999999097451MD1999999-0101REMSYN011 333 59010;
0150829750999991998061000004-09100-044117FM-12+033199999V0201801N00361220001CN9999999N9+02901+01961101331ADDAA106000091AG10000GA1001+999999999GF100991001001999999001001KA1240M+03461MA1999999097401MD1999999-0041REMSYN017 333 10346 59004;EQDQ01+000002VOVAR 
0131829750999991998061012004-09100-044117FM-12+033199999V0201801N00671220001CN0500001N1+02201+01921101521ADDAA106000091AG10000GA1001+999999999GF100991001001999999001001KA1240N+01791MA1999999097601MD1999999-0061REMSYN017 333 20179 59006;
0112829750999991998061018004-09100-044117FM-12+033199999V0201801N00261220001CN0500001N1+03351+02131101341ADDAA106000091AG10000GA1001+999999999GF100991001001999999001001MA1999999097401MD1999999-0051REMSYN011 333 59005;
0150829750999991998061100004-09100-044117FM-12+033199999V0209991C00001220001CN9999999N9+02951+01981101241ADDAA106000091AG10000GA1001+999999999GF100991001001999999001001KA1240M+03561MA1999999097311MD1999999-0091REMSYN017 333 10356 59009;EQDQ01+000002VOVAR 
0134829750999991998061200004-09100-044117FM-12+033199999V0201801N00261220001CN9999999N9+03011+01971101291ADDAA106000091AG10000GF103991031021008001031001KA1240M+03571MA1999999097361MD1999999+0051REMSYN017 333 10357 58005;EQDQ01+000002VOVAR 
0115829750999991998061212004-09100-044117FM-12+033199999V0201801N00261007501CN0500001N1+02141+01881101581ADDAA106000091AG10000GF105991051031008001021031KA1240N+01931MA1999999097651MD1999999+0001REMSYN017 333 20193 58000;
0131829750999991998061312004-09100-044117FM-12+033199999V0201801N00671220001CN0500001N1+02431+01881101681ADDAA106000091AG10000GA1001+999999999GF100991001001999999001001KA1240N+02011MA1999999097761MD1999999+0111REMSYN017 333 20201 58011;
0112829750999991998061318004-09100-044117FM-12+033199999V0203201N00511220001CN0500001N1+03381+02071101471ADDAA106000091AG10000GA1001+999999999GF100991001001999999001001MA1999999097531MD1999999+0031REMSYN011 333 58003;
0150829750999991998061400004-09100-044117FM-12+033199999V0209991C00001220001CN9999999N9+02711+01991101491ADDAA106000091AG10000GA1001+999999999GF100991001001999999001001KA1240M+03341MA1999999097561MD1999999+0211REMSYN017 333 10334 58021;EQDQ01+000002VOVAR 
0131829750999991998061412004-09100-044117FM-12+033199999V0201801N00511220001CN0500001N1+02141+01801101621ADDAA106000091AG10000GA1001+999999999GF100991001001999999001001KA1240N+01941MA1999999097701MD1999999-0041REMSYN017 333 20194 59004;
0134829750999991998061500004-09100-044117FM-12+033199999V0201801N00361007501CN9999999N9+02531+01921101521ADDAA106000091AG10000GF105991051031008001031001KA1240M+03391MA1999999097601MD1999999+0041REMSYN017 333 10339 58004;EQDQ01+000002VOVAR 
0131829750999991998061512004-09100-044117FM-12+033199999V0201801N00771220001CN0500001N1+02051+01801101671ADDAA106000091AG10000GA1001+999999999GF100991001001999999001001KA1240N+01871MA1999999097751MD1999999+0051REMSYN017 333 20187 58005;
0112829750999991998061518004-09100-044117FM-12+033199999V0201801N00261220001CN0500001N1+03411+02131101521ADDAA106000091AG10000GA1001+999999999GF100991001001999999001001MA1999999097581MD1999999-0101REMSYN011 333 59010;
0150829750999991998061600004-09100-044117FM-12+033199999V0201801N00511220001CN9999999N9+02631+01911101421ADDAA106000091AG10000GA1001+999999999GF100991001001999999001001KA1240M+03321MA1999999097501MD1999999-0101REMSYN017 333 10332 59010;EQDQ01+000002VOVAR 
0131829750999991998061612004-09100-044117FM-12+033199999V0201801N00771220001CN0500001N1+02131+01981101541ADDAA106000091AG10000GA1001+999999999GF100991001001999999001001KA1240N+01921MA1999999097721MD1999999-0031REMSYN017 333 20192 59003;
0096829750999991998061618004-09100-044117FM-12+033199999V0200501N00771007501CN0500001N1+03011+01931101431ADDAA106000091AG10000GF106991061041008001051021MA1999999097501MD1999999-0081REMSYN011 333 59008;
0134829750999991998061700004-09100-044117FM-12+033199999V0201801N00771007501CN9999999N9+02611+01961101471ADDAA106000091AG10000GF105991051021008001031021KA1240M+03191MA1999999097551MD1999999+0051REMSYN017 333 10319 58005;EQDQ01+000002VOVAR 
0131829750999991998061712004-09100-044117FM-12+033199999V0201801N00511220001CN0500001N1+02011+01931101681ADDAA106000091AG10000GA1001+999999999GF100991001001999999001001KA1240N+01841MA1999999097761MD1999999+0041REMSYN017 333 20184 58004;
0112829750999991998061718004-09100-044117FM-12+033199999V0200501N00411220001CN0500001N1+03351+02141101471ADDAA106000091AG10000GA1001+999999999GF100991001001999999001001MA1999999097531MD1999999+0031REMSYN011 333 58003;
0150829750999991998061800004-09100-044117FM-12+033199999V0201801N00671220001CN9999999N9+02811+01981101231ADDAA106000091AG10000GA1001+999999999GF100991001001999999001001KA1240M+03381MA1999999097301MD1999999-0251REMSYN017 333 10338 59025;EQDQ01+000002VOVAR 
0131829750999991998061812004-09100-044117FM-12+033199999V0201801N00261220001CN0500001N1+02141+01951101621ADDAA106000091AG10000GA1001+999999999GF100991001001999999001001KA1240N+01891MA1999999097701MD1999999-0061REMSYN017 333 20189 59006;
0112829750999991998061818004-09100-044117FM-12+033199999V0203201N00411220001CN0500001N1+03311+02041101431ADDAA106000091AG10000GA1001+999999999GF100991001001999999001001MA1999999097501MD1999999-0051REMSYN011 333 59005;
0150829750999991998061900004-09100-044117FM-12+033199999V0209991C00001220001CN9999999N9+02831+02031101341ADDAA106000091AG10000GA1001+999999999GF100991001001999999001001KA1240M+03401MA1999999097411MD1999999+0111REMSYN017 333 10340 58011;EQDQ01+000002VOVAR 
0131829750999991998061912004-09100-044117FM-12+033199999V0201801N00261220001CN0500001N1+02241+01921101571ADDAA106000091AG10000GA1001+999999999GF100991001001999999001001KA1240N+01931MA1999999097651MD1999999-0051REMSYN017 333 20193 59005;
0112829750999991998061918004-09100-044117FM-12+033199999V0201801N00511220001CN0500001N1+03341+02071101431ADDAA106000091AG10000GA1001+999999999GF100991001001999999001001MA1999999097501MD1999999+0001REMSYN011 333 58000;
0150829750999991998062000004-09100-044117FM-12+033199999V0201801N00411220001CN9999999N9+02861+01881101291ADDAA106000091AG10000GA1001+999999999GF100991001001999999001001KA1240M+03451MA1999999097361MD1999999-0051REMSYN017 333 10345 59005;EQDQ01+000002VOVAR 
0131829750999991998062012004-09100-044117FM-12+033199999V0201801N00261220001CN0500001N1+02131+01581101541ADDAA106000091AG10000GA1001+999999999GF100991001001999999001001KA1240N+01901MA1999999097621MD1999999-0031REMSYN017 333 20190 59003;
0112829750999991998062018004-09100-044117FM-12+033199999V0200501N00361220001CN0500001N1+03411+02141101341ADDAA106000091AG10000GA1001+999999999GF100991001001999999001001MA1999999097401MD1999999-0101REMSYN011 333 59010;
0131829750999991998062112004-09100-044117FM-12+033199999V0209991C00001220001CN0500001N1+02161+01891101431ADDAA106000091AG10000GA1001+999999999GF100991001001999999001001KA1240N+01951MA1999999097511MD1999999-0111REMSYN017 333 20195 59011;
0112829750999991998062118004-09100-044117FM-12+033199999V0201401N00261220001CN0500001N1+03471+02091101391ADDAA106000091AG10000GA1001+999999999GF100991001001999999001001MA1999999097451MD1999999+0051REMSYN011 333 58005;
0131829750999991998062212004-09100-044117FM-12+033199999V0201801N00771220001CN0500001N1+02041+01741101481ADDAA106000091AG10000GA1001+999999999GF100991001001999999001001KA1240N+01871MA1999999097561MD1999999+0051REMSYN017 333 20187 58005;
0112829750999991998062218004-09100-044117FM-12+033199999V0201801N00261220001CN0500001N1+03451+02051101391ADDAA106000091AG10000GA1001+999999999GF100991001001999999001001MA1999999097401MD1999999-0051REMSYN011 333 59005;
0131829750999991998062312004-09100-044117FM-12+033199999V0201801N00361220001CN0500001N1+02211+01841101521ADDAA106000091AG10000GA1001+999999999GF100991001001999999001001KA1240N+01921MA1999999097601MD1999999+0041REMSYN017 333 20192 58004;
0112829750999991998062318004-09100-044117FM-12+033199999V0201401N00261220001CN0500001N1+03341+01951101381ADDAA106000091AG10000GA1001+999999999GF100991001001999999001001MA1999999097451MD1999999+0051REMSYN011 333 58005;
0150829750999991998062400004-09100-044117FM-12+033199999V0201801N00261220001CN9999999N9+02781+01781101161ADDAA106000091AG10000GA1001+999999999GF100991001001999999001001KA1240M+03451MA1999999097241MD1999999-0021REMSYN017 333 10345 59002;EQDQ01+000002VOVAR 
0131829750999991998062412004-09100-044117FM-12+033199999V0201801N00771220001CN0500001N1+02131+01981101621ADDAA106000091AG10000GA1001+999999999GF100991001001999999001001KA1240N+01851MA1999999097701MD1999999+0101REMSYN017 333 20185 58010;
0112829750999991998062418004-09100-044117FM-12+033199999V0201401N00671220001CN0500001N1+03321+01841101241ADDAA106000091AG10000GA1001+999999999GF100991001001999999001001MA1999999097301MD1999999-0151REMSYN011 333 59015;
0150829750999991998062500004-09100-044117FM-12+033199999V0209991C00001220001CN9999999N9+02711+01631101371ADDAA106000091AG10000GA1001+999999999GF100991001001999999001001KA1240M+03431MA1999999097451MD1999999+0211REMSYN017 333 10343 58021;EQDQ01+000002VOVAR 
0131829750999991998062512004-09100-044117FM-12+033199999V0209991C00001220001CN0500001N1+02011+01701101651ADDAA106000091AG10000GA1001+999999999GF100991001001999999001001KA1240N+01801MA1999999097731MD1999999+0031REMSYN017 333 20180 58003;
0112829750999991998062518004-09100-044117FM-12+033199999V0201801N00361220001CN0500001N1+03351+02141101381ADDAA106000091AG10000GA1001+999999999GF100991001001999999001001MA1999999097451MD1999999+0151REMSYN011 333 58015;
0150829750999991998062600004-09100-044117FM-12+033199999V0209991C00001220001CN9999999N9+02901+01651101271ADDAA106000091AG10000GA1001+999999999GF100991001001999999001001KA1240M+03451MA1999999097341MD1999999-0111REMSYN017 333 10345 59011;EQDQ01+000002VOVAR 
0131829750999991998062612004-09100-044117FM-12+033199999V0209991C00001220001CN0500001N1+01931+01591101591ADDAA106000091AG10000GA1001+999999999GF100991001001999999001001KA1240N+01781MA1999999097671MD1999999-0061REMSYN017 333 20178 59006;
0112829750999991998062618004-09100-044117FM-12+033199999V0203201N00261220001CN0500001N1+03401+02051101341ADDAA106000091AG10000GA1001+999999999GF100991001001999999001001MA1999999097401MD1999999-0051REMSYN011 333 59005;
0150829750999991998062700004-09100-044117FM-12+033199999V0201801N00361220001CN9999999N9+02911+01731101271ADDAA106000091AG10000GA1001+999999999GF100991001001999999001001KA1240M+03491MA1999999097341MD1999999+0001REMSYN017 333 10349 58000;EQDQ01+000002VOVAR 
0131829750999991998062712004-09100-044117FM-12+033199999V0201801N00411220001CN0500001N1+02341+01811101721ADDAA106000091AG10000GA1001+999999999GF100991001001999999001001KA1240N+01871MA1999999097801MD1999999+0131REMSYN017 333 20187 58013;
0096829750999991998062718004-09100-044117FM-12+033199999V0201801N00511220001CN0500001N1+03431+02141101401ADDAA106000091AG10000GF104991041031008001021031MA1999999097461MD1999999+0061REMSYN011 333 58006;
0150829750999991998062800004-09100-044117FM-12+033199999V0201801N00261220001CN9999999N9+02871+01791101431ADDAA106000091AG10000GA1001+999999999GF100991001001999999001001KA1240M+03411MA1999999097501MD1999999+0161REMSYN017 333 10341 58016;EQDQ01+000002VOVAR 
0131829750999991998062812004-09100-044117FM-12+033199999V0201801N00361220001CN0500001N1+02201+01951101741ADDAA106000091AG10000GA1001+999999999GF100991001001999999001001KA1240N+01811MA1999999097821MD1999999+0021REMSYN017 333 20181 58002;
0096829750999991998062818004-09100-044117FM-12+033199999V0203201N00361220001CN0500001N1+03421+02171101431ADDAA106000091AG10000GF103991031021008001001031MA1999999097551MD1999999+0091REMSYN011 333 58009;
0131829750999991998062912004-09100-044117FM-12+033199999V0201801N00411220001CN0500001N1+02131+01841101851ADDAA106000091AG10000GA1001+999999999GF100991001001999999001001KA1240N+01851MA1999999097931MD1999999+0111REMSYN017 333 20185 58011;
0112829750999991998062918004-09100-044117FM-12+033199999V0200501N00411220001CN0500001N1+03381+02041101531ADDAA106000091AG10000GA1001+999999999GF100991001001999999001001MA1999999097601MD1999999+0051REMSYN011 333 58005;
0112829750999991998063018004-09100-044117FM-12+033199999V0203201N00511220001CN0500001N1+03311+02141101581ADDAA106000091AG10000GA1001+999999999GF100991001001999999001001MA1999999097651MD1999999+0051REMSYN011 333 58005;
0150829750999991998070100004-09100-044117FM-12+033199999V0201801N00411220001CN9999999N9+02531+01501101531ADDAA106000091AG10000GA1001+999999999GF100991001001999999001001KA1240M+03311MA1999999097611MD1999999+0071REMSYN017 333 10331 58007;EQDQ01+000002VOVAR 
0131829750999991998070112004-09100-044117FM-12+033199999V0201801N00361220001CN0500001N1+01961+01761101761ADDAA106000091AG10000GA1001+999999999GF100991001001999999001001KA1240N+01721MA1999999097841MD1999999-0101REMSYN017 333 20172 59010;
0112829750999991998070118004-09100-044117FM-12+033199999V0201801N00361220001CN0500001N1+03341+02051101491ADDAA106000091AG10000GA1001+999999999GF100991001001999999001001MA1999999097551MD1999999-0051REMSYN011 333 59005;
0150829750999991998070200004-09100-044117FM-12+033199999V0209991C00001220001CN9999999N9+02811+01721101431ADDAA106000091AG10000GA1001+999999999GF100991001001999999001001KA1240M+03391MA1999999097501MD1999999-0111REMSYN017 333 10339 59011;EQDQ01+000002VOVAR 
0131829750999991998070212004-09100-044117FM-12+033199999V0201801N00361220001CN0500001N1+02201+01971101721ADDAA106000091AG10000GA1001+999999999GF100991001001999999001001KA1240N+01851MA1999999097801MD1999999-0041REMSYN017 333 20185 59004;
0112829750999991998070218004-09100-044117FM-12+033199999V0203201N00261220001CN0500001N1+03431+02031101441ADDAA106000091AG10000GA1001+999999999GF100991001001999999001001MA1999999097501MD1999999-0051REMSYN011 333 59005;
0131829750999991998070312004-09100-044117FM-12+033199999V0201801N00361220001CN0500001N1+02101+01911101621ADDAA106000091AG10000GA1001+999999999GF100991001001999999001001KA1240N+01781MA1999999097701MD1999999-0101REMSYN017 333 20178 59010;
0112829750999991998070318004-09100-044117FM-12+033199999V0201401N00361220001CN0500001N1+03401+02151101401ADDAA106000091AG10000GA1001+999999999GF100991001001999999001001MA1999999097461MD1999999-0041REMSYN011 333 59004;
0150829750999991998070400004-09100-044117FM-12+033199999V0201801N00361220001CN9999999N9+03041+01921101281ADDAA106000091AG10000GA1001+999999999GF100991001001999999001001KA1240M+03581MA1999999097321MD1999999-0041REMSYN017 333 10358 59004;EQDQ01+000002VOVAR 
0131829750999991998070412004-09100-044117FM-12+033199999V0201801N00261220001CN0500001N1+02241+01981101571ADDAA106000091AG10000GA1001+999999999GF100991001001999999001001KA1240N+01871MA1999999097651MD1999999-0051REMSYN017 333 20187 59005;
0150829750999991998070500004-09100-044117FM-12+033199999V0209991C00001220001CN9999999N9+03061+01801101331ADDAA106000091AG10000GA1001+999999999GF100991001001999999001001KA1240M+03631MA1999999097401MD1999999+0081REMSYN017 333 10363 58008;EQDQ01+000002VOVAR 
0131829750999991998070512004-09100-044117FM-12+033199999V0201801N00771220001CN0500001N1+02061+01841101731ADDAA106000091AG10000GA1001+999999999GF100991001001999999001001KA1240N+01811MA1999999097811MD1999999+0161REMSYN017 333 20181 58016;
0112829750999991998070518004-09100-044117FM-12+033199999V0201801N00411220001CN0500001N1+03431+02171101541ADDAA106000091AG10000GA1001+999999999GF100991001001999999001001MA1999999097601MD1999999+0061REMSYN011 333 58006;
0134829750999991998070600004-09100-044117FM-12+033199999V0201801N00261007501CN9999999N9+02811+01661101381ADDAA106000091AG10000GF106991061041008001031021KA1240M+03411MA1999999097451MD1999999+0051REMSYN017 333 10341 58005;EQDQ01+000002VOVAR 
0115829750999991998070612004-09100-044117FM-12+033199999V0201801N00261220001CN0500001N1+02311+01901101671ADDAA106000091AG10000GF104991041021008001031021KA1240N+01921MA1999999097751MD1999999-0061REMSYN017 333 20192 59006;
0112829750999991998070618004-09100-044117FM-12+033199999V0200501N00511220001CN0500001N1+03411+02061101491ADDAA106000091AG10000GA1001+999999999GF100991001001999999001001MA1999999097551MD1999999-0051REMSYN011 333 59005;
0150829750999991998070700004-09100-044117FM-12+033199999V0209991C00001220001CN9999999N9+02901+01811101241ADDAA106000091AG10000GA1001+999999999GF100991001001999999001001KA1240M+03431MA1999999097321MD1999999-0131REMSYN017 333 10343 59013;EQDQ01+000002VOVAR 
0112829750999991998070718004-09100-044117FM-12+033199999V0201401N00411220001CN0500001N1+03431+02051101291ADDAA106000091AG10000GA1001+999999999GF100991001001999999001001MA1999999097351MD1999999-0201REMSYN011 333 59020;
0150829750999991998070800004-09100-044117FM-12+033199999V0209991C00001220001CN9999999N9+02811+01911101191ADDAA106000091AG10000GA1001+999999999GF100991001001999999001001KA1240M+03361MA1999999097271MD1999999-0051REMSYN017 333 10336 59005;EQDQ01+000002VOVAR 
0115829750999991998070812004-09100-044117FM-12+033199999V0200901N00361220001CN0500001N1+02131+01821101471ADDAA106000091AG10000GF104991041021008001031021KA1240N+01961MA1999999097551MD1999999-0011REMSYN017 333 20196 59001;
0115829750999991998070912004-09100-044117FM-12+033199999V0201401N00411220001CN0500001N1+02461+01941101561ADDAA106000091AG10000GF103991031001008001031021KA1240N+02041MA1999999097641MD1999999+0091REMSYN017 333 20204 58009;
0096829750999991998070918004-09100-044117FM-12+033199999V0203201N00361220001CN0500001N1+03381+02091101191ADDAA106000091AG10000GF104991041021008001031001MA1999999097261MD1999999+0061REMSYN011 333 58006;
0150829750999991998071000004-09100-044117FM-12+033199999V0209991C00001220001CN9999999N9+02881+01831101281ADDAA106000091AG10000GA1001+999999999GF100991001001999999001001KA1240M+03471MA1999999097351MD1999999+0151REMSYN017 333 10347 58015;EQDQ01+000002VOVAR 
0115829750999991998071012004-09100-044117FM-12+033199999V0201801N00511007501CN0500001N1+02541+02041101671ADDAA106000091AG10000GF105991051031008001021031KA1240N+02151MA1999999097761MD1999999+0121REMSYN017 333 20215 58012;
0131829750999991998071100004-09100-044117FM-12+033199999V0201801N00511220001CN0500001N1+02811+02031101381ADDAA106000091AG10000GA1001+999999999GF100991001001999999001001KA1240M+03381MA1999999097451MD1999999+0101REMSYN017 333 10338 58010;
0131829750999991998071312004-09100-044117FM-12+033199999V0200501N00771220001CN0500001N1+02211+02191101821ADDAA106000091AG10000GA1001+999999999GF100991001001999999001001KA1240N+01941MA1999999097901MD1999999+0061REMSYN017 333 20194 58006;
0112829750999991998071318004-09100-044117FM-12+033199999V0201401N00411220001CN0500001N1+03371+02061101571ADDAA106000091AG10000GA1001+999999999GF100991001001999999001001MA1999999097631MD1999999+0051REMSYN011 333 58005;
0150829750999991998071400004-09100-044117FM-12+033199999V0209991C00001220001CN9999999N9+02781+01781101321ADDAA106000091AG10000GA1001+999999999GF100991001001999999001001KA1240M+03281MA1999999097401MD1999999-0111REMSYN017 333 10328 59011;EQDQ01+000002VOVAR 
0112829750999991998071418004-09100-044117FM-12+033199999V0201401N00411220001CN0500001N1+03281+02051101431ADDAA106000091AG10000GA1001+999999999GF100991001001999999001001MA1999999097501MD1999999-0101REMSYN011 333 59010;
0150829750999991998071500004-09100-044117FM-12+033199999V0201801N00411220001CN9999999N9+02711+01691101451ADDAA106000091AG10000GA1001+999999999GF100991001001999999001001KA1240M+03261MA1999999097521MD1999999+0121REMSYN017 333 10326 58012;EQDQ01+000002VOVAR 
0131829750999991998071512004-09100-044117FM-12+033199999V0201801N00361220001CN0500001N1+02011+01801101591ADDAA106000091AG10000GA1001+999999999GF100991001001999999001001KA1240N+01911MA1999999097671MD1999999-0141REMSYN017 333 20191 59014;
0096829750999991998071518004-09100-044117FM-12+033199999V0203201N00361220001CN0500001N1+03251+02081101381ADDAA106000091AG10000GF104991041031008001021001MA1999999097451MD1999999-0051REMSYN011 333 59005;
0150829750999991998071700004-09100-044117FM-12+033199999V0200501N00361220001CN9999999N9+02911+01991101291ADDAA106000091AG10000GA1001+999999999GF100991001001999999001001KA1240M+03371MA1999999097361MD1999999-0051REMSYN017 333 10337 59005;EQDQ01+000002VOVAR 
0150829750999991998071712004-09100-044117FM-12+033199999V0200501N00771220001CN9999999N9+02301+01981101531ADDAA106000091AG10000GA1001+999999999GF100991001001999999001001KA1240N+02041MA1999999097611MD1999999-0031REMSYN017 333 20204 59003;EQDQ01+000002VOVAR 
0112829750999991998071718004-09100-044117FM-12+033199999V0201401N00411220001CN0500001N1+03361+02141101321ADDAA106000091AG10000GA1001+999999999GF100991001001999999001001MA1999999097381MD1999999-0041REMSYN011 333 59004;
0131829750999991998071812004-09100-044117FM-12+033199999V0200501N00511220001CN0500001N1+02341+01951101521ADDAA106000091AG10000GA1001+999999999GF100991001001999999001001KA1240N+02061MA1999999097601MD1999999-0011REMSYN017 333 20206 59001;
0112829750999991998071818004-09100-044117FM-12+033199999V0201801N00511220001CN0500001N1+03341+02171101291ADDAA106000091AG10000GA1001+999999999GF100991001001999999001001MA1999999097351MD1999999-0031REMSYN011 333 59003;
0131829750999991998071912004-09100-044117FM-12+033199999V0201801N00771220001CN0500001N1+02311+01941101571ADDAA106000091AG10000GA1001+999999999GF100991001001999999001001KA1240N+02021MA1999999097651MD1999999+0051REMSYN017 333 20202 58005;
0117829750999991998072012004-09100-044117FM-12+033199999V0201801N00771220001CN0500001N1+02431+02011101621ADDAA106000091AG10000GA1001+999999999GF100991001001999999001001KA1240N+02071MA1999999097701REMSYN017 333 20207 58205;
0112829750999991998072018004-09100-044117FM-12+033199999V0200501N00411220001CN0500001N1+03411+02091101341ADDAA106000091AG10000GA1001+999999999GF100991001001999999001001MA1999999097401MD1999999+0081REMSYN011 333 58008;
0134829750999991998072100004-09100-044117FM-12+033199999V0201801N00261220001CN9999999N9+02971+01961101291ADDAA106000091AG10000GF104991041021008001031001KA1240M+03431MA1999999097361MD1999999+0081REMSYN017 333 10343 58008;EQDQ01+000002VOVAR 
0131829750999991998072112004-09100-044117FM-12+033199999V0201801N00361220001CN0500001N1+02311+02071101571ADDAA106000091AG10000GA1001+999999999GF100991001001999999001001KA1240N+02001MA1999999097651MD1999999-0051REMSYN017 333 20200 59005;
0112829750999991998072118004-09100-044117FM-12+033199999V0203201N00361220001CN0500001N1+03421+02151101391ADDAA106000091AG10000GA1001+999999999GF100991001001999999001001MA1999999097451MD1999999+0051REMSYN011 333 58005;
0131829750999991998072312004-09100-044117FM-12+033199999V0200501N00411220001CN0500001N1+02341+01911101491ADDAA106000091AG10000GA1001+999999999GF100991001001999999001001KA1240N+01991MA1999999097571MD1999999-0031REMSYN017 333 20199 59003;
0096829750999991998072318004-09100-044117FM-12+033199999V0201401N00511220001CN0500001N1+03351+02091101171ADDAA106000091AG10000GF104991041031008001001021MA1999999097241MD1999999-0061REMSYN011 333 59006;
0150829750999991998072400004-09100-044117FM-12+033199999V0203201N00361220001CN9999999N9+02811+01811101121ADDAA106000091AG10000GA1001+999999999GF100991001001999999001001KA1240M+03411MA1999999097201MD1999999-0011REMSYN017 333 10341 59001;EQDQ01+000002VOVAR 
0115829750999991998072412004-09100-044117FM-12+033199999V0201801N00511220001CN0500001N1+02211+01861101561ADDAA106000091AG10000GF103991031021008001001021KA1240N+01931MA1999999097641MD1999999+0071REMSYN017 333 20193 58007;
0112829750999991998072418004-09100-044117FM-12+033199999V0201401N00771220001CN0500001N1+03311+02141101281ADDAA106000091AG10000GA1001+999999999GF100991001001999999001001MA1999999097351MD1999999+0051REMSYN011 333 58005;
0151829750999991998072512004-09100-044117FM-12+033199999V0201801N00261220001CN0500001N1+02141+01931999999ADDAA106000091AA224015091AG10000GF103991999001008001021001KA1240N+01541MA1999999097661MD1999999-0141REMSYN023 333 20154 59014 60154;EQDQ01+000082SCOTLC
0150829750999991998072700004-09100-044117FM-12+033199999V0201801N00511220001CN9999999N9+02811+01781101261ADDAA106000091AG10000GA1001+999999999GF100991001001999999001001KA1240M+03341MA1999999097341MD1999999-0061REMSYN017 333 10334 59006;EQDQ01+000002VOVAR 
0131829750999991998072712004-09100-044117FM-12+033199999V0201801N00361220001CN0500001N1+02231+01761101571ADDAA106000091AG10000GA1001+999999999GF100991001001999999001001KA1240N+01951MA1999999097651MD1999999+0101REMSYN017 333 20195 58010;
0150829750999991998072800004-09100-044117FM-12+033199999V0201801N00261220001CN9999999N9+02911+01921101291ADDAA106000091AG10000GA1001+999999999GF100991001001999999001001KA1240M+03461MA1999999097361MD1999999+0021REMSYN017 333 10346 58002;EQDQ01+000002VOVAR 
0112829750999991998072818004-09100-044117FM-12+033199999V0200501N00411220001CN0500001N1+03371+02171101421ADDAA106000091AG10000GA1001+999999999GF100991001001999999001001MA1999999097481MD1999999+0031REMSYN011 333 58003;
0150829750999991998072900004-09100-044117FM-12+033199999V0201801N00261220001CN9999999N9+02831+01941101301ADDAA106000091AG10000GA1001+999999999GF100991001001999999001001KA1240M+03411MA1999999097371MD1999999+0011REMSYN017 333 10341 58001;EQDQ01+000002VOVAR 
0131829750999991998072912004-09100-044117FM-12+033199999V0201801N00671220001CN0500001N1+02341+01831101671ADDAA106000091AG10000GA1001+999999999GF100991001001999999001001KA1240N+02051MA1999999097751MD1999999+0041REMSYN017 333 20205 58004;
0150829750999991998073100004-09100-044117FM-12+033199999V0201801N00361220001CN9999999N9+02811+01721101271ADDAA106000091AG10000GA1001+999999999GF100991001001999999001001KA1240M+03391MA1999999097341MD1999999-0021REMSYN017 333 10339 59002;EQDQ01+000002VOVAR 
0131829750999991998073112004-09100-044117FM-12+033199999V0201801N00361220001CN0500001N1+02211+01801101631ADDAA106000091AG10000GA1001+999999999GF100991001001999999001001KA1240N+01861MA1999999097711MD1999999+0101REMSYN017 333 20186 58010;
0112829750999991998073118004-09100-044117FM-12+033199999V0200501N00411220001CN0500001N1+03371+02141101451ADDAA106000091AG10000GA1001+999999999GF100991001001999999001001MA1999999097511MD1999999+0031REMSYN011 333 58003;
0150829750999991998080100004-09100-044117FM-12+033199999V0209991C00001220001CN9999999N9+02841+01701101361ADDAA106000091AG10000GA1001+999999999GF100991001001999999001001KA1240M+03451MA1999999097431MD1999999+0021REMSYN017 333 10345 58002;EQDQ01+000002VOVAR 
0115829750999991998080112004-09100-044117FM-12+033199999V0201801N00511220001CN0500001N1+02131+01891101681ADDAA106000091AG10000GF104991041031008001021031KA1240N+02011MA1999999097761MD1999999+0031REMSYN017 333 20201 58003;
0112829750999991998080118004-09100-044117FM-12+033199999V0203201N00511220001CN0500001N1+03421+02241101391ADDAA106000091AG10000GA1001+999999999GF100991001001999999001001MA1999999097451MD1999999-0061REMSYN011 333 59006;
0150829750999991998080200004-09100-044117FM-12+033199999V0200501N00771220001CN9999999N9+02811+01871101321ADDAA106000091AG10000GA1001+999999999GF100991001001999999001001KA1240M+03341MA1999999097401MD1999999-0031REMSYN017 333 10334 59003;EQDQ01+000002VOVAR 
0131829750999991998080312004-09100-044117FM-12+033199999V0201801N00411220001CN0500001N1+02241+01891101671ADDAA106000091AG10000GA1001+999999999GF100991001001999999001001KA1240N+02071MA1999999097751MD1999999+0001REMSYN017 333 20207 58000;
0112829750999991998080318004-09100-044117FM-12+033199999V0200501N00511220001CN0500001N1+03411+02181101441ADDAA106000091AG10000GA1001+999999999GF100991001001999999001001MA1999999097501MD1999999-0051REMSYN011 333 59005;
0150829750999991998080400004-09100-044117FM-12+033199999V0209991C00001220001CN9999999N9+02941+01791101281ADDAA106000091AG10000GA1001+999999999GF100991001001999999001001KA1240M+03481MA1999999097351MD1999999-0011REMSYN017 333 10348 59001;EQDQ01+000002VOVAR 
0131829750999991998080412004-09100-044117FM-12+033199999V0201401N00411220001CN0500001N1+02401+01981101621ADDAA106000091AG10000GA1001+999999999GF100991001001999999001001KA1240N+02001MA1999999097701MD1999999-0051REMSYN017 333 20200 59005;
0112829750999991998080418004-09100-044117FM-12+033199999V0201801N00411220001CN0500001N1+03431+02071101341ADDAA106000091AG10000GA1001+999999999GF100991001001999999001001MA1999999097401MD1999999-0101REMSYN011 333 59010;
0131829750999991998080512004-09100-044117FM-12+033199999V0201801N00361220001CN0500001N1+02311+01831101521ADDAA106000091AG10000GA1001+999999999GF100991001001999999001001KA1240N+01951MA1999999097601MD1999999-0101REMSYN017 333 20195 59010;
0112829750999991998080518004-09100-044117FM-12+033199999V0200501N00361220001CN0500001N1+03451+02091101351ADDAA106000091AG10000GA1001+999999999GF100991001001999999001001MA1999999097411MD1999999-0041REMSYN011 333 59004;
0150829750999991998080600004-09100-044117FM-12+033199999V0209991C00001220001CN9999999N9+02941+01721101141ADDAA106000091AG10000GA1001+999999999GF100991001001999999001001KA1240M+03491MA1999999097211MD1999999-0151REMSYN017 333 10349 59015;EQDQ01+000002VOVAR 
0115829750999991998080612004-09100-044117FM-12+033199999V0201801N00261007501CN0500001N1+02281+02011101471ADDAA106000091AG10000GF106991061041008001021031KA1240N+02001MA1999999097551MD1999999-0051REMSYN017 333 20200 59005;
0150829750999991998080700004-09100-044117FM-12+033199999V0209991C00001220001CN9999999N9+03011+01841101121ADDAA106000091AG10000GA1001+999999999GF100991001001999999001001KA1240M+03531MA1999999097191MD1999999-0021REMSYN017 333 10353 59002;EQDQ01+000002VOVAR 
0131829750999991998080712004-09100-044117FM-12+033199999V0201801N00361220001CN0500001N1+02431+01911101421ADDAA106000091AG10000GA1001+999999999GF100991001001999999001001KA1240N+02061MA1999999097501MD1999999-0051REMSYN017 333 20206 59005;
0150829750999991998080800004-09100-044117FM-12+033199999V0201801N00261220001CN9999999N9+02931+01951101101ADDAA106000091AG10000GA1001+999999999GF100991001001999999001001KA1240M+03491MA1999999097171MD1999999-0021REMSYN017 333 10349 59002;EQDQ01+000002VOVAR 
0112829750999991998081018004-09100-044117FM-12+033199999V0201401N00411220001CN0500001N1+03481+02091101291ADDAA106000091AG10000GA1001+999999999GF100991001001999999001001MA1999999097301MD1999999-0031REMSYN011 333 59003;
0150829750999991998081100004-09100-044117FM-12+033199999V0201801N00261220001CN9999999N9+03061+01391101051ADDAA106000091AG10000GA1001+999999999GF100991001001999999001001KA1240M+03571MA1999999097121MD1999999-0141REMSYN017 333 10357 59014;EQDQ01+000002VOVAR 
0131829750999991998081112004-09100-044117FM-12+033199999V0201801N00261220001CN0500001N1+02241+01621101521ADDAA106000091AG10000GA1001+999999999GF100991001001999999001001KA1240N+01961MA1999999097601MD1999999+0041REMSYN017 333 20196 58004;
0112829750999991998081118004-09100-044117FM-12+033199999V0203201N00261220001CN0500001N1+03521+02031101241ADDAA106000091AG10000GA1001+999999999GF100991001001999999001001MA1999999097351MD1999999+0051REMSYN011 333 58005;
0115829750999991998081212004-09100-044117FM-12+033199999V0200801N00261220001CN0500001N1+02321+01851101561ADDAA106000091AG10000GF104991041061008001001001KA1240N+02321MA1999999097641MD1999999+0041REMSYN017 333 20232 58004;
0112829750999991998081218004-09100-044117FM-12+033199999V0200501N00361220001CN0500001N1+03621+02131101321ADDAA106000091AG10000GA1001+999999999GF100991001001999999001001MA1999999097381MD1999999+0031REMSYN011 333 58003;
