0150829830999991998010100004-09383-040483FM-12+037099999V0203601N00151220001CN9999999N9+03101+01771100861ADDAA106000091AG10000GA1001+999999999GF100991001001999999001001KA1240M+03391MA1999999096771MD1999999-0041REMSYN017 333 10339 59004;EQDQ01+000002VOVAR 
0115829830999991998010112004-09383-040483FM-12+037099999V0200901N00311045001CN0200001N1+02781+01911101301ADDAA106000091AG10000GF106991031021008001031001KA1240N+02471MA1999999097201MD1999999+0051REMSYN017 333 20247 58005;
0150829830999991998010200004-09383-040483FM-12+037099999V0200501N00261220001CN9999999N9+02861+02061101001ADDAA106000091AG10000GA1001+999999999GF100991001001999999001001KA1240M+03441MA1999999096911MD1999999+0141REMSYN017 333 10344 58014;EQDQ01+000002VOVAR 
0115829830999991998010212004-09383-040483FM-12+037099999V0200901N00411007501CN0200001N1+02801+01921101281ADDAA106000091AG10000GF106991061021008001001001KA1240N+02531MA1999999097171MD1999999-0031REMSYN017 333 20253 59003;
0096829830999991998010218004-09383-040483FM-12+037099999V0200901N00311007501CN0200001N1+03481+01661100721ADDAA106000091AG10000GF105991051021008001001001MA1999999096661MD1999999-0061REMSYN011 333 59006;
0150829830999991998010300004-09383-040483FM-12+037099999V0200901N00151220001CN9999999N9+03181+01731100761ADDAA106000091AG10000GA1001+999999999GF100991001001999999001001KA1240M+03521MA1999999096701MD1999999-0211REMSYN017 333 10352 59021;EQDQ01+000002VOVAR 
0134829830999991998010500004-09383-040483FM-12+037099999V0200901N00151007501CN9999999N9+03281+01781100781ADDAA106000091AG10000GF106991061021008001001001KA1240M+03521MA1999999096721MD1999999+0081REMSYN017 333 10352 58008;EQDQ01+000002VOVAR 
0115829830999991998010512004-09383-040483FM-12+037099999V0200901N00411220001CN0200001N1+02901+02071101041ADDAA106000091AG10000GF104991041011008001001001KA1240N+02601MA1999999096971MD1999999-0041REMSYN017 333 20260 59004;
0131829830999991998010612004-09383-040483FM-12+037099999V0200501N00261220001CN0200001N1+03021+01891100931ADDAA106000091AG10000GA1001+999999999GF100991001001999999001001KA1240N+02671MA1999999096911MD1999999-0061REMSYN017 333 20267 59006;
0096829830999991998010618004-09383-040483FM-12+037099999V0200901N00411220001CN0200001N1+03681+01741100431ADDAA106000091AG10000GF104991041021008001001001MA1999999096411MD1999999-0101REMSYN011 333 59010;
0162829830999991998010700004-09383-040483FM-12+037099999V0203601N00151007501CN9999999N9+02941+01971100661ADDAA124000591AG10006AY161061AY261061GF105991051021008001001001KA1240M+03721MA1999999096601MD1999999+0051MW1031REMSYN023 333 10372 58005 69964;EQDQ01+000002VOVAR 
0116829830999991998010712004-09383-040483FM-12+037099999V0200901N00311007501CN0200001N1+02901+02101101011ADDAG10000GF106991061021008001001001KA1240N+02601MA1999999096921MD1999999-0011REMSYN029 333 20260 58001 59001 60014;
0096829830999991998010718004-09383-040483FM-12+037099999V0200901N00311007501CN0200001N1+03641+01801100431ADDAA106000091AG10000GF105991051021008001001001MA1999999096391MD1999999-0021REMSYN011 333 59002;
0134829830999991998010800004-09383-040483FM-12+037099999V0202701N00311007501CN9999999N9+02901+01961100671ADDAA106000091AG10000GF107991071021008001001001KA1240M+03681MA1999999096591MD1999999-0011REMSYN017 333 10368 59001;EQDQ01+000002VOVAR 
0096829830999991998010818004-09383-040483FM-12+037099999V0203201N00261045001CN0200001N1+03441+01921100621ADDAA106000091AG10000GF108991041021008001061999MA1999999096561MD1999999+0171REMSYN011 333 58017;
0134829830999991998010900004-09383-040483FM-12+037099999V0202701N00151007501CN9999999N9+03081+02031100771ADDAA106000091AG10000GF107991071051008001999999KA1240M+03501MA1999999096701MD1999999+0111REMSYN017 333 10350 58011;EQDQ01+000002VOVAR 
0143829830999991998010912004-09383-040483FM-12+037099999V0201401N00151007501CN0200001N1+02181+02061101321ADDAA124015091AG10019AY191061AY261061GF108991081051008001999999KA1240N+02151MA1999999097181MD1999999+0231MW1601REMSYN023 333 20215 58023 60154;
0124829830999991998010918004-09383-040483FM-12+037099999V0202701N00511045001CN0200001N1+03101+01801100831ADDAA106000591AG10006AY161061AY261061GF106991021011008001021001MA1999999096711MD1999999+0151MW1031REMSYN017 333 58015 69961;
0134829830999991998011000004-09383-040483FM-12+037099999V0202701N00151007501CN9999999N9+02721+02281101011ADDAA106000091AG10000GF108991081051008001999999KA1240M+03181MA1999999096851MD1999999+0151REMSYN017 333 10318 58015;EQDQ01+000002VOVAR 
0116829830999991998011012004-09383-040483FM-12+037099999V0201401N00261007501CN0200001N1+02861+02141101121ADDAG10000GF108991081051008001999999KA1240N+02561MA1999999097021MD1999999-0161REMSYN029 333 20256 59016 59006 69924;
0096829830999991998011018004-09383-040483FM-12+037099999V0201801N00261045001CN0200001N1+03061+02111100771ADDAA106000091AG10000GF108991041021008001031001MA1999999096691MD1999999-0021REMSYN011 333 59002;
0134829830999991998011100004-09383-040483FM-12+037099999V0201401N00151007501CN9999999N9+02661+02111101041ADDAA106000091AG10000GF108991081051008001999999KA1240M+03301MA1999999096931MD1999999+0081REMSYN017 333 10330 58008;EQDQ01+000002VOVAR 
0143829830999991998011112004-09383-040483FM-12+037099999V0201401N00311007501CN0200001N1+02641+02091101381ADDAA124004091AG10019AY191061AY261061GF107991071021008001001001KA1240N+02351MA1999999097241MD1999999+0221MW1031REMSYN023 333 20235 58022 60044;
0134829830999991998011200004-09383-040483FM-12+037099999V0209991C00001007501CN9999999N9+02901+01871101121ADDAA106000091AG10000GF105991051021008001001001KA1240M+03301MA1999999097001MD1999999+0071REMSYN017 333 10330 58007;EQDQ01+000002VOVAR 
0115829830999991998011212004-09383-040483FM-12+037099999V0200901N00511007501CN0200001N1+02601+01891101311ADDAA106000091AG10000GF108991081051008001999999KA1240N+02381MA1999999097191MD1999999+0191REMSYN017 333 20238 58019;
0096829830999991998011218004-09383-040483FM-12+037099999V0200501N00261007501CN0200001N1+03361+01811100771ADDAA106000091AG10000GF106991061021008001001001MA1999999096701MD1999999-0201REMSYN011 333 59020;
0134829830999991998011300004-09383-040483FM-12+037099999V0201401N00261007501CN9999999N9+03041+01881101001ADDAA106000091AG10000GF106991061021008001001001KA1240M+03481MA1999999096911MD1999999-0091REMSYN017 333 10348 59009;EQDQ01+000002VOVAR 
0115829830999991998011312004-09383-040483FM-12+037099999V0201401N00311007501CN0200001N1+02581+01941101321ADDAA106000091AG10000GF108991081051008001999999KA1240N+02451MA1999999097211MD1999999+0021REMSYN017 333 20245 58002;
0150829830999991998011400004-09383-040483FM-12+037099999V0209991C00001220001CN9999999N9+02921+01951100791ADDAA106000091AG10000GA1001+999999999GF100991001001999999001001KA1240M+03301MA1999999096691MD1999999-0221REMSYN017 333 10330 59022;EQDQ01+000002VOVAR 
0115829830999991998011412004-09383-040483FM-12+037099999V0201401N00411007501CN0200001N1+02741+02021101131ADDAA106000091AG10000GF106991061021008001001001KA1240N+02481MA1999999097031MD1999999-0181REMSYN017 333 20248 59018;
0096829830999991998011418004-09383-040483FM-12+037099999V0200901N00261007501CN0200001N1+03481+01841100591ADDAA106000091AG10000GF105991051021008001001001MA1999999096541MD1999999-0121REMSYN011 333 59012;
0134829830999991998011500004-09383-040483FM-12+037099999V0200501N00151220001CN9999999N9+03001+02081100721ADDAA106000091AG10000GF103991031011008001001001KA1240M+03561MA1999999096641MD1999999-0051REMSYN017 333 10356 59005;EQDQ01+000002VOVAR 
0143829830999991998011512004-09383-040483FM-12+037099999V0201401N00311007501CN0200001N1+02781+02061101061ADDAA124004091AG10006AY161061AY261061GF108991061021008001031999KA1240N+02411MA1999999096961MD1999999-0071MW1031REMSYN023 333 20241 59007 60044;
0096829830999991998011518004-09383-040483FM-12+037099999V0200501N00261045001CN0200001N1+03401+01931100531ADDAA106000091AG10000GF106991031021008001031001MA1999999096461MD1999999-0021REMSYN011 333 59002;
0150829830999991998011600004-09383-040483FM-12+037099999V0201401N00151220001CN9999999N9+03181+01871100611ADDAA106000091AG10000GA1001+999999999GF100991001001999999001001KA1240M+03521MA1999999096551MD1999999-0091REMSYN017 333 10352 59009;EQDQ01+000002VOVAR 
0143829830999991998011612004-09383-040483FM-12+037099999V0200501N00151045001CN0200001N1+02461+02211101131ADDAA124000591AG10001AY151061AY251061GF106991021011008001021011KA1240N+02381MA1999999097031MD1999999+0111MW1011REMSYN023 333 20238 58011 69954;
0134829830999991998012200004-09383-040483FM-12+037099999V0201801N00151045001CN9999999N9+02661+01971101021ADDAA106000091AG10000GF106991021011008001051001KA1240M+02961MA1999999096891MD1999999+0091REMSYN017 333 10296 58009;EQDQ01+000002VOVAR 
0115829830999991998012212004-09383-040483FM-12+037099999V0201401N00311007501CN0200001N1+02601+02141101121ADDAA106000091AG10000GF108991081051008001999999KA1240N+02441MA1999999096981MD1999999-0111REMSYN017 333 20244 59011;
0096829830999991998012218004-09383-040483FM-12+037099999V0200901N00151007501CN0200001N1+03121+02021100751ADDAA106000091AG10000GF108991061021008001031001MA1999999096651MD1999999-0161REMSYN011 333 59016;
0143829830999991998012312004-09383-040483FM-12+037099999V0201401N00311045001CN0200001N1+02441+02091101251ADDAA124002091AG10006AY161061AY261061GF106991041051008001031001KA1240N+02271MA1999999097081MD1999999+0101MW1031REMSYN023 333 20227 58010 60024;
0096829830999991998012318004-09383-040483FM-12+037099999V0201401N00411045001CN0200001N1+03061+02051100761ADDAA106000091AG10000GF106991031021008001031001MA1999999096651MD1999999+0001REMSYN011 333 58000;
0150829830999991998012400004-09383-040483FM-12+037099999V0201401N00261220001CN9999999N9+02801+02111100941ADDAA106000091AG10000GA1001+999999999GF100991001001999999001001KA1240M+03101MA1999999096811MD1999999-0111REMSYN017 333 10310 59011;EQDQ01+000002VOVAR 
0115829830999991998012412004-09383-040483FM-12+037099999V0200901N00311007501CN0200001N1+02681+02161101121ADDAA106000091AG10000GF108991081051008001999999KA1240N+02461MA1999999097001MD1999999-0081REMSYN017 333 20246 59008;
0096829830999991998012418004-09383-040483FM-12+037099999V0200901N00311007501CN0200001N1+03201+02031100701ADDAA106000091AG10000GF107991051021008001031001MA1999999096621MD1999999-0031REMSYN011 333 59003;
0115829830999991998012512004-09383-040483FM-12+037099999V0201401N00411045001CN0200001N1+02801+02111101041ADDAA106000091AG10000GF106991041021008001031001KA1240N+02471MA1999999096931MD1999999-0071REMSYN017 333 20247 59007;
0096829830999991998012518004-09383-040483FM-12+037099999V0200901N00151007501CN0200001N1+03301+01981100641ADDAA106000091AG10000GF106991051021008001031011MA1999999096561MD1999999-0061REMSYN011 333 59006;
0134829830999991998012600004-09383-040483FM-12+037099999V0200901N00311007501CN9999999N9+02881+01971100941ADDAA106000091AG10000GF107991071021008001001001KA1240M+03041MA1999999096851MD1999999+0041REMSYN017 333 10304 58004;EQDQ01+000002VOVAR 
0143829830999991998012612004-09383-040483FM-12+037099999V0201401N00311007501CN0200001N1+02661+02111101241ADDAA124000591AG10001AY151061AY251061GF108991081051008001999999KA1240N+02491MA1999999097121MD1999999+0191MW1031REMSYN023 333 20249 58019 69944;
0096829830999991998012618004-09383-040483FM-12+037099999V0200501N00151007501CN0200001N1+03261+02081100861ADDAA106000091AG10000GF107991051021008001031001MA1999999096781MD1999999+0021REMSYN011 333 58002;
0150829830999991998012700004-09383-040483FM-12+037099999V0202301N00151220001CN9999999N9+02641+02161101041ADDAA106000091AG10000GA1001+999999999GF100991001001999999001001KA1240M+03301MA1999999096911MD1999999+0061REMSYN017 333 10330 58006;EQDQ01+000002VOVAR 
0115829830999991998012712004-09383-040483FM-12+037099999V0201401N00411045001CN0200001N1+02681+02041101411ADDAA106000091AG10000GF106991031021008001031001KA1240N+02391MA1999999097271MD1999999+0151REMSYN017 333 20239 58015;
0096829830999991998012718004-09383-040483FM-12+037099999V0201401N00311007501CN0200001N1+03261+01761101071ADDAA106000091AG10000GF105991051021008001001001MA1999999096951MD1999999+0171REMSYN011 333 58017;
0150829830999991998012800004-09383-040483FM-12+037099999V0201701N00151220001CN9999999N9+02931+01711101061ADDAA106000091AG10000GA1001+999999999GF100991001001999999001001KA1240M+03341MA1999999096961MD1999999+0051REMSYN017 333 10334 58005;EQDQ01+000002VOVAR 
0140829830999991998012812004-09383-040483FM-12+037099999V0200901N00311220001CN0040001N1+02331+01961101311ADDAA124008091AG10000GF104991041021008001001001KA1240N+01801MA1999999999999MD1999999+0051REMSYN023 333 20180 58005 60084;EQDQ01 091783APOSP 
0115829830999991998012818004-09383-040483FM-12+037099999V0201401N00311220001CN0200001N1+03261+01761101061ADDAA106000091AG10000GF105991041011008001001011MA1999999096962MD1999999+0011REMSYN011 333 58001;EQDQ01+096963APOSP 
0150829830999991998012900004-09383-040483FM-12+037099999V0201801N00151220001CN9999999N9+02921+01861101091ADDAA106000091AG10000GA1001+999999999GF100991001001999999001001KA1240M+03361MA1999999096991MD1999999+0031REMSYN017 333 10336 58003;EQDQ01+000002VOVAR 
0115829830999991998012912004-09383-040483FM-12+037099999V0201401N00411007501CN0200001N1+02701+01941101331ADDAA106000091AG10000GF105991051021008001001001KA1240N+02421MA1999999097331MD1999999-0141REMSYN017 333 20242 59014;
0096829830999991998012918004-09383-040483FM-12+037099999V0201401N00261007501CN0200001N1+03281+01891101081ADDAA106000091AG10000GF105991051021008001001001MA1999999096981MD1999999+0021REMSYN011 333 58002;
0150829830999991998013000004-09383-040483FM-12+037099999V0201401N00261220001CN9999999N9+03001+02031101051ADDAA106000091AG10000GA1001+999999999GF100991001001999999001001KA1240M+03361MA1999999096951MD1999999-0041REMSYN017 333 10336 59004;EQDQ01+000002VOVAR 
0115829830999991998013112004-09383-040483FM-12+037099999V0201401N00411007501CN0200001N1+02741+02051101381ADDAA106000091AG10000GF106991061021008001001001KA1240N+02571MA1999999097271MD1999999+0001REMSYN017 333 20257 58000;
0096829830999991998013118004-09383-040483FM-12+037099999V0200901N00511007501CN0200001N1+03391+01961100921ADDAA106000091AG10000GF107991051021008001031001MA1999999096861MD1999999+0011REMSYN011 333 58001;
0134829830999991998020100004-09383-040483FM-12+037099999V0201401N00511007501CN9999999N9+02901+02171101121ADDAA106000091AG10000GF105991051021008001001001KA1240M+03441MA1999999097021MD1999999+0111REMSYN017 333 10344 58011;EQDQ01+000002VOVAR 
0115829830999991998020112004-09383-040483FM-12+037099999V0201401N00411007501CN0200001N1+02741+02101101631ADDAA106000091AG10000GF106991061011008001001001KA1240N+02501MA1999999097261MD1999999-0011REMSYN017 333 20250 59001;
0096829830999991998020118004-09383-040483FM-12+037099999V0201401N00311220001CN0200001N1+03461+01821100931ADDAA106000091AG10000GF104991041011008001001001MA1999999096871MD1999999+0011REMSYN011 333 58001;
0150829830999991998020200004-09383-040483FM-12+037099999V0201401N00311220001CN9999999N9+03061+01731101141ADDAA106000091AG10000GA1001+999999999GF100991001001999999001001KA1240M+03061MA1999999097041MD1999999+0021REMSYN017 333 10306 58002;EQDQ01+000002VOVAR 
0115829830999991998020212004-09383-040483FM-12+037099999V0201401N00411007501CN0200001N1+02541+01911101371ADDAA106000091AG10000GF106991061021008001001001KA1240N+02351MA1999999097261MD1999999+0001REMSYN017 333 20235 58000;
0096829830999991998020218004-09383-040483FM-12+037099999V0200901N00311045001CN0200001N1+03361+01651100891ADDAA106000091AG10000GF105991031041008001021001MA1999999096811MD1999999-0061REMSYN011 333 59006;
0150829830999991998020300004-09383-040483FM-12+037099999V0201401N00311220001CN9999999N9+03041+01641101001ADDAA106000091AG10000GA1001+999999999GF100991001001999999001001KA1240M+03461MA1999999096911MD1999999-0131REMSYN017 333 10346 59013;EQDQ01+000002VOVAR 
0134829830999991998020312004-09383-040483FM-12+037099999V0201401N003119999999N0200001N1+02561+01971101321ADDAA106000091AG10000GF106991999011008001001001KA1240N+02381MA1999999097211MD1999999-0051REMSYN017 333 20238 59005;EQDQ01+000032SCOTLC
0096829830999991998020318004-09383-040483FM-12+037099999V0200901N00311220001CN0200001N1+03561+01731100711ADDAA106000091AG10000GF105991031011008001001011MA1999999096651MD1999999-0161REMSYN011 333 59016;
0150829830999991998020400004-09383-040483FM-12+037099999V0201401N00511220001CN9999999N9+03181+01871100911ADDAA106000091AG10000GA1001+999999999GF100991001001999999001001KA1240M+03601MA1999999096821MD1999999-0091REMSYN017 333 10360 59009;EQDQ01+000002VOVAR 
0115829830999991998020412004-09383-040483FM-12+037099999V0201401N00311007501CN0200001N1+02621+02071101241ADDAA106000091AG10000GF108991081051008001999999KA1240N+02461MA1999999097141MD1999999-0071REMSYN017 333 20246 59007;
0096829830999991998020418004-09383-040483FM-12+037099999V0201401N00511045001CN0200001N1+03501+01861100721ADDAA106000091AG10000GF105991041021008001031001MA1999999096661MD1999999+0011REMSYN011 333 58001;
0150829830999991998020500004-09383-040483FM-12+037099999V0201401N00511220001CN9999999N9+02981+02011100971ADDAA106000091AG10000GA1001+999999999GF100991001001999999001001KA1240M+03601MA1999999096881MD1999999+0061REMSYN017 333 10360 58006;EQDQ01+000002VOVAR 
0115829830999991998020512004-09383-040483FM-12+037099999V0201401N00511007501CN0200001N1+02801+02081101321ADDAA106000091AG10000GF106991061021008001001001KA1240N+02461MA1999999097211MD1999999+0071REMSYN017 333 20246 58007;
0096829830999991998020518004-09383-040483FM-12+037099999V0200501N00511220001CN0200001N1+03641+01501100811ADDAA106000091AG10000GF103991031011008001001001MA1999999096751MD1999999+0091REMSYN011 333 58009;
0134829830999991998020600004-09383-040483FM-12+037099999V0201401N00151007501CN9999999N9+03281+01701100941ADDAA106000091AG10000GF106991061021008001001001KA1240M+03701MA1999999096881MD1999999+0001REMSYN017 333 10370 58000;EQDQ01+000002VOVAR 
0131829830999991998020612004-09383-040483FM-12+037099999V0200901N00311220001CN0200001N1+02881+02031101521ADDAA106000091AG10000GA1001+999999999GF100991001001999999001001KA1240N+02571MA1999999097201MD1999999-0011REMSYN017 333 20257 59001;
0150829830999991998020700004-09383-040483FM-12+037099999V0201401N00311220001CN9999999N9+03361+01651100951ADDAA106000091AG10000GA1001+999999999GF100991001001999999001001KA1240M+03741MA1999999096891MD1999999+0011REMSYN017 333 10374 58001;EQDQ01+000002VOVAR 
0131829830999991998020712004-09383-040483FM-12+037099999V0200901N00311220001CN0200001N1+02901+02201101541ADDAA106000091AG10000GA1001+999999999GF100991001001999999001001KA1240N+02591MA1999999097241MD1999999+0041REMSYN017 333 20259 58004;
0096829830999991998020718004-09383-040483FM-12+037099999V0200901N00151007501CN0200001N1+03641+01941100821ADDAA106000091AG10000GF106991061021008001001001MA1999999096761MD1999999-0051REMSYN011 333 59005;
0134829830999991998020800004-09383-040483FM-12+037099999V0201401N00151220001CN9999999N9+03361+01811100981ADDAA106000091AG10000GF103991031021008001001001KA1240M+03701MA1999999096931MD1999999+0041REMSYN017 333 10370 58004;EQDQ01+000002VOVAR 
0115829830999991998020812004-09383-040483FM-12+037099999V0200501N00261007501CN0200001N1+02961+01801101551ADDAA106000091AG10000GF106991061021008001001001KA1240N+02661MA1999999097251MD1999999+0011REMSYN017 333 20266 58001;
0096829830999991998020818004-09383-040483FM-12+037099999V0200501N00151007501CN0200001N1+03581+01881100841ADDAA106000091AG10000GF105991051021008001001001MA1999999096791MD1999999+0031REMSYN011 333 58003;
0150829830999991998020900004-09383-040483FM-12+037099999V0200501N00261220001CN9999999N9+03371+01811100901ADDAA106000091AG10000GA1001+999999999GF100991001001999999001001KA1240M+03721MA1999999096851MD1999999-0081REMSYN017 333 10372 59008;EQDQ01+000002VOVAR 
0115829830999991998020912004-09383-040483FM-12+037099999V0200901N00311220001CN0200001N1+03061+02141101491ADDAA106000091AG10000GF104991041011008001001001KA1240N+02761MA1999999097271MD1999999-0051REMSYN017 333 20276 59005;
0115829830999991998020918004-09383-040483FM-12+037099999V0200901N00311220001CN0200001N1+03641+02021100692ADDAA106000091AG10000GF103991031011008001001001MA1999999096651MD1999999-0091REMSYN011 333 59009;EQDQ01+100693APOSLP
0134829830999991998021000004-09383-040483FM-12+037099999V0200901N00151007501CN9999999N9+03281+01701100891ADDAA106000091AG10000GF105991051011008001001001KA1240M+03741MA1999999096841MD1999999-0011REMSYN017 333 10374 59001;EQDQ01+000002VOVAR 
0131829830999991998021012004-09383-040483FM-12+037099999V0200501N00151220001CN0200001N1+03021+02131101451ADDAA106000091AG10000GA1001+999999999GF100991001001999999001001KA1240N+02581MA1999999097151MD1999999-0051REMSYN017 333 20258 59005;
0096829830999991998021018004-09383-040483FM-12+037099999V0200901N00311220001CN0200001N1+03661+01671100761ADDAA106000091AG10000GF104991041011008001001001MA1999999096721MD1999999+0071REMSYN011 333 58007;
0134829830999991998021100004-09383-040483FM-12+037099999V0200901N00151007501CN9999999N9+03261+01841100991ADDAA106000091AG10000GF105991051011008001001001KA1240M+03741MA1999999096941MD1999999+0101REMSYN017 333 10374 58010;EQDQ01+000002VOVAR 
0131829830999991998021112004-09383-040483FM-12+037099999V0200501N00311220001CN0200001N1+02941+01971101511ADDAA106000091AG10000GA1001+999999999GF100991001001999999001001KA1240N+02541MA1999999097191MD1999999+0041REMSYN017 333 20254 58004;
0096829830999991998021118004-09383-040483FM-12+037099999V0202301N00151220001CN0200001N1+03661+01671100751ADDAA106000091AG10000GF104991031011008001001011MA1999999096711MD1999999-0011REMSYN011 333 59001;
0134829830999991998021200004-09383-040483FM-12+037099999V0202701N00151220001CN9999999N9+03221+02051100851ADDAA106000091AG10000GF104991041011008001001001KA1240M+03741MA1999999096791MD1999999-0151REMSYN017 333 10374 59015;EQDQ01+000002VOVAR 
0115829830999991998021212004-09383-040483FM-12+037099999V0203601N00461007501CN0200001N1+02881+02081101201ADDAA106000091AG10000GF108991081051008001999999KA1240N+02681MA1999999097131MD1999999-0061REMSYN017 333 20268 59006;
0096829830999991998021218004-09383-040483FM-12+037099999V0203201N00311007501CN0200001N1+03181+01941100901ADDAA106000091AG10000GF108991081051008001999999MA1999999096821MD1999999+0011REMSYN011 333 58001;
0134829830999991998021300004-09383-040483FM-12+037099999V0202301N00151007501CN9999999N9+02821+02101101011ADDAA106000091AG10000GF108991081051008001999999KA1240M+03221MA1999999096921MD1999999+0131REMSYN017 333 10322 58013;EQDQ01+000002VOVAR 
0143829830999991998021312004-09383-040483FM-12+037099999V0200901N00311012001CN0200001N1+02321+02181101521ADDAA124012091AG10006AY161061AY251061GF108991081081008001999999KA1240N+02301MA1999999097361MD1999999+0231MW1631REMSYN023 333 20230 58023 60124;
0124829830999991998021318004-09383-040483FM-12+037099999V0203601N00261007501CN0200001N1+02541+02211101271ADDAA106030091AG10018AY191061AY261061GF108991081051008001999999MA1999999097131MD1999999+0311MW1031REMSYN017 333 58031 60301;
0134829830999991998021400004-09383-040483FM-12+037099999V0202701N00151007501CN9999999N9+02541+02251101411ADDAA106000091AG10000GF108991081051008001999999KA1240M+02821MA1999999097241MD1999999+0321REMSYN017 333 10282 58032;EQDQ01+000002VOVAR 
0143829830999991998021412004-09383-040483FM-12+037099999V0200901N00311045001CN0200001N1+02641+02161101581ADDAA124030091AG10006AY161061AY261061GF106991041021008001031001KA1240N+02471MA1999999097421MD1999999+0061MW1031REMSYN023 333 20247 58006 60304;
0096829830999991998021418004-09383-040483FM-12+037099999V0200501N00311007501CN0200001N1+03101+02001101191ADDAA106000091AG10000GF105991051021008001001001MA1999999097071MD1999999-0061REMSYN011 333 59006;
0134829830999991998021500004-09383-040483FM-12+037099999V0203601N00261007501CN9999999N9+02691+02061101341ADDAA106000091AG10000GF108991081051008001999999KA1240M+03181MA1999999097201MD1999999-0041REMSYN017 333 10318 59004;EQDQ01+000002VOVAR 
0143829830999991998021512004-09383-040483FM-12+037099999V0200501N00151007501CN0200001N1+02561+02151101591ADDAA124012091AG10006AY161061AY261061GF108991081051008001999999KA1240N+02391MA1999999097431MD1999999+0011MW1031REMSYN023 333 20239 58001 60124;
0096829830999991998021518004-09383-040483FM-12+037099999V0203601N00261007501CN0200001N1+03201+01861101161ADDAA106000091AG10000GF105991051021008001001001MA1999999097041MD1999999-0031REMSYN011 333 59003;
0134829830999991998021600004-09383-040483FM-12+037099999V0209991C00001220001CN9999999N9+02861+02191101161ADDAA106000091AG10000GF104991041021008001001001KA1240M+03241MA1999999097031MD1999999-0171REMSYN017 333 10324 59017;EQDQ01+000002VOVAR 
0115829830999991998021612004-09383-040483FM-12+037099999V0200901N00411220001CN0200001N1+02681+02111101491ADDAA106000091AG10000GF103991031011008001001001KA1240N+02451MA1999999097361MD1999999-0071REMSYN017 333 20245 59007;
0096829830999991998021618004-09383-040483FM-12+037099999V0203601N00311045001CN0200001N1+03221+01841101021ADDAA106000091AG10000GF105991031021008001031001MA1999999096931MD1999999-0111REMSYN011 333 59011;
0134829830999991998021700004-09383-040483FM-12+037099999V0203601N00151007501CN9999999N9+02941+02051101071ADDAA106000091AG10000GF106991061021008001001001KA1240M+03301MA1999999096971MD1999999-0061REMSYN017 333 10330 59006;EQDQ01+000002VOVAR 
0115829830999991998021712004-09383-040483FM-12+037099999V0200901N00261045001CN0200001N1+02761+02141101321ADDAA106000091AG10000GF106991041021008001031001KA1240N+02561MA1999999097211MD1999999-0151REMSYN017 333 20256 59015;
0096829830999991998021718004-09383-040483FM-12+037099999V0203601N00261045001CN0200001N1+03321+01891100811ADDAA106000091AG10000GF106991041021008001031001MA1999999096741MD1999999-0191REMSYN011 333 59019;
0134829830999991998021800004-09383-040483FM-12+037099999V0201801N00311007501CN9999999N9+02701+02151101091ADDAA106000091AG10000GF108991081051008001999999KA1240M+03341MA1999999096971MD1999999+0001REMSYN017 333 10334 58000;EQDQ01+000002VOVAR 
0115829830999991998021812004-09383-040483FM-12+037099999V0200901N00311007501CN0200001N1+02501+02151101351ADDAA106000091AG10000GF108991081051008001999999KA1240N+02341MA1999999097201MD1999999-0011REMSYN017 333 20234 59001;
0096829830999991998021818004-09383-040483FM-12+037099999V0200501N00311007501CN0200001N1+02701+02111101091ADDAA106000091AG10000GF108991081051008001999999MA1999999096951MD1999999+0211REMSYN011 333 58021;
0162829830999991998021900004-09383-040483FM-12+037099999V0209991C00001007501CN9999999N9+02501+02211101121ADDAA106002091AG10006AY161061AY261061GF108991081051008001999999KA1240M+02761MA1999999096971MD1999999+0001MW1031REMSYN023 333 10276 58000 60021;EQDQ01+000002VOVAR 
0143829830999991998021912004-09383-040483FM-12+037099999V0200901N00411045001CN0200001N1+02621+02101101271ADDAA124002091AG10006AY161061AY261061GF106991041021008001031001KA1240N+02381MA1999999097121MD1999999-0081MW1031REMSYN023 333 20238 59008 60024;
0096829830999991998021918004-09383-040483FM-12+037099999V0200901N00261007501CN0200001N1+03141+02071100801ADDAA106000091AG10000GF106991061021008001001001MA1999999096701MD1999999-0251REMSYN011 333 59025;
0150829830999991998022000004-09383-040483FM-12+037099999V0203601N00151220001CN9999999N9+02561+02021101041ADDAA106000091AG10000GA1001+999999999GF100991001001999999001001KA1240M+03221MA1999999096911MD1999999-0061REMSYN017 333 10322 59006;EQDQ01+000002VOVAR 
0115829830999991998022012004-09383-040483FM-12+037099999V0200901N00311045001CN0200001N1+02701+02111101181ADDAA106000091AG10000GF106991041021008001051001KA1240N+02491MA1999999097041MD1999999-0081REMSYN017 333 20249 59008;
0096829830999991998022018004-09383-040483FM-12+037099999V0200901N00311007501CN0200001N1+03291+01871100741ADDAA106000091AG10000GF108991081051008001999999MA1999999096661MD1999999-0041REMSYN011 333 59004;
0115829830999991998022112004-09383-040483FM-12+037099999V0200901N00411007501CN0200001N1+02701+02031101511ADDAA106000091AG10000GF106991061051008001001001KA1240N+02441MA1999999097151MD1999999+0111REMSYN017 333 20244 58011;
0096829830999991998022118004-09383-040483FM-12+037099999V0200501N00151045001CN0200001N1+03341+01671100811ADDAA106000091AG10000GF106991021011008001011011MA1999999096731MD1999999+0071REMSYN011 333 58007;
0134829830999991998022200004-09383-040483FM-12+037099999V0200901N00511007501CN9999999N9+03001+02031100991ADDAA106000091AG10000GF106991061021008001001001KA1240M+03381MA1999999096901MD1999999+0071REMSYN017 333 10338 58007;EQDQ01+000002VOVAR 
0134829830999991998022212004-09383-040483FM-12+037099999V0200801N00511220001CN0200001N1+02741+02051101321ADDAA106000091AG10000GF103991999031008001011001KA1240N+02481MA1999999097211MD1999999+0061REMSYN017 333 20248 58006;EQDQ01+000082SCOTLC
0096829830999991998022218004-09383-040483FM-12+037099999V0201401N00311220001CN0200001N1+03361+01851100921ADDAA106000091AG10000GF103991031011008001001001MA1999999096831MD1999999+0101REMSYN011 333 58010;
0115829830999991998022312004-09383-040483FM-12+037099999V0200901N00411007501CN0200001N1+02761+01991101351ADDAA106000091AG10000GF105991051021008001001001KA1240N+02461MA1999999097251MD1999999+0041REMSYN017 333 20246 58004;
0096829830999991998022318004-09383-040483FM-12+037099999V0200901N00311007501CN0200001N1+03401+01851100851ADDAA106000091AG10000GF105991051021008001001001MA1999999096791MD1999999-0041REMSYN011 333 59004;
0134829830999991998022400004-09383-040483FM-12+037099999V0201401N00151007501CN9999999N9+03121+01951100991ADDAA106000091AG10000GF108991081051008001999999KA1240M+03461MA1999999096911MD1999999+0031REMSYN017 333 10346 58003;EQDQ01+000002VOVAR 
0115829830999991998022412004-09383-040483FM-12+037099999V0200901N00311007501CN0200001N1+02821+02051101351ADDAA106000091AG10000GF105991051011008001001001KA1240N+02521MA1999999097251MD1999999+0001REMSYN017 333 20252 58000;
0115829830999991998022418004-09383-040483FM-12+037099999V0201401N00261220001CN0200001N1+03441+01721100771ADDAA106000091AG10000GF104991999011008001001001MA1999999096711MD1999999-0081REMSYN011 333 59008;EQDQ01+000032SCOTLC
0134829830999991998022500004-09383-040483FM-12+037099999V0201401N00261220001CN9999999N9+03161+01671100821ADDAA106000091AG10000GF103991031011008001001001KA1240M+03481MA1999999096761MD1999999-0151REMSYN017 333 10348 59015;EQDQ01+000002VOVAR 
0115829830999991998022512004-09383-040483FM-12+037099999V0201401N00311220001CN0200001N1+02701+01941101301ADDAA106000091AG10000GF103991031011008001001001KA1240N+02461MA1999999097201MD1999999-0051REMSYN017 333 20246 59005;
0096829830999991998022518004-09383-040483FM-12+037099999V0201401N00261007501CN0200001N1+03441+02141100751ADDAA106000091AG10000GF105991051011008001001001MA1999999096691MD1999999-0021REMSYN011 333 59002;
0134829830999991998022600004-09383-040483FM-12+037099999V0201401N00261007501CN9999999N9+03201+01631100811ADDAA106000091AG10000GF106991061021008001001001KA1240M+03481MA1999999096741MD1999999-0021REMSYN017 333 10348 59002;EQDQ01+000002VOVAR 
0115829830999991998022612004-09383-040483FM-12+037099999V0201401N00311220001CN0200001N1+02661+01971101291ADDAA106000091AG10000GF104991041011008001001001KA1240N+02441MA1999999097181MD1999999-0021REMSYN017 333 20244 59002;
0096829830999991998022618004-09383-040483FM-12+037099999V0200901N00311220001CN0200001N1+03481+01751100711ADDAA106000091AG10000GF103991031011008001001001MA1999999096651MD1999999-0041REMSYN011 333 59004;
0150829830999991998022700004-09383-040483FM-12+037099999V0201401N00151220001CN9999999N9+03141+01661100731ADDAA106000091AG10000GA1001+999999999GF100991001001999999001001KA1240M+03521MA1999999096681MD1999999-0061REMSYN017 333 10352 59006;EQDQ01+000002VOVAR 
0115829830999991998022712004-09383-040483FM-12+037099999V0201401N00511220001CN0200001N1+02701+01941101241ADDAA106000091AG10000GF103991031011008001001001KA1240N+02451MA1999999097141MD1999999-0041REMSYN017 333 20245 59004;
0096829830999991998022718004-09383-040483FM-12+037099999V0200901N00311220001CN0200001N1+03401+01851100761ADDAA106000091AG10000GF104991041021008001001001MA1999999096701MD1999999+0051REMSYN011 333 58005;
0150829830999991998022800004-09383-040483FM-12+037099999V0201801N00151220001CN9999999N9+03101+01801100761ADDAA106000091AG10000GA1001+999999999GF100991001001999999001001KA1240M+03501MA1999999096681MD1999999+0001REMSYN017 333 10350 58000;EQDQ01+000002VOVAR 
0096829830999991998022818004-09383-040483FM-12+037099999V0200901N00261045001CN0200001N1+03321+01781100761ADDAA106000091AG10000GF106991031021008001031001MA1999999096691MD1999999-0011REMSYN011 333 59001;
0150829830999991998030100004-09383-040483FM-12+037099999V0201801N00261220001CN9999999N9+03001+01491100851ADDAA106000091AG10000GA1001+999999999GF100991001001999999001001KA1240M+03421MA1999999096761MD1999999+0081REMSYN017 333 10342 58008;EQDQ01+000002VOVAR 
0115829830999991998030112004-09383-040483FM-12+037099999V0200901N00411045001CN0200001N1+02681+02161101151ADDAA106000091AG10000GF107991031011008001031001KA1240N+02601MA1999999097051MD1999999-0101REMSYN017 333 20260 59010;
0096829830999991998030118004-09383-040483FM-12+037099999V0200901N00261007501CN0200001N1+03061+02021100801ADDAA106000091AG10000GF108991081051008001999999MA1999999096721MD1999999-0031REMSYN011 333 59003;
0115829830999991998030212004-09383-040483FM-12+037099999V0200901N00411007501CN0200001N1+02781+02131101171ADDAA106000091AG10000GF108991081051008001999999KA1240N+02641MA1999999097071MD1999999+0021REMSYN017 333 20264 58002;
0115829830999991998030218004-09383-040483FM-12+037099999V0200901N00311007501CN0200001N1+03221+01981100791ADDAA106000091AG10000GF108991999021008001001001MA1999999096731MD1999999+0011REMSYN011 333 58001;EQDQ01+000062SCOTLC
0134829830999991998030300004-09383-040483FM-12+037099999V0209991C00001007501CN9999999N9+03001+01971100851ADDAA106000091AG10000GF106991061021008001001001KA1240M+03301MA1999999096761MD1999999+0061REMSYN017 333 10330 58006;EQDQ01+000002VOVAR 
0115829830999991998030312004-09383-040483FM-12+037099999V0200901N00411007501CN0200001N1+02821+02021101281ADDAA106000091AG10000GF106991061021008001001001KA1240N+02611MA1999999097191MD1999999+0121REMSYN017 333 20261 58012;
0096829830999991998030318004-09383-040483FM-12+037099999V0200901N00511045001CN0200001N1+03581+01701100891ADDAA106000091AG10000GF106991041021008001031001MA1999999096831MD1999999+0101REMSYN011 333 58010;
0134829830999991998030400004-09383-040483FM-12+037099999V0201401N00261007501CN9999999N9+03301+01591100931ADDAA106000091AG10000GF108991081051008001999999KA1240M+03601MA1999999096871MD1999999+0111REMSYN017 333 10360 58011;EQDQ01+000002VOVAR 
0115829830999991998030412004-09383-040483FM-12+037099999V0200901N00511007501CN0200001N1+02761+01911101611ADDAA106000091AG10000GF106991061021008001001001KA1240N+02441MA1999999097291MD1999999+0101REMSYN017 333 20244 58010;
0096829830999991998030418004-09383-040483FM-12+037099999V0200901N00311007501CN0200001N1+03561+01531100921ADDAA106000091AG10000GF105991051021008001001001MA1999999096861MD1999999+0031REMSYN011 333 58003;
0115829830999991998030512004-09383-040483FM-12+037099999V0201401N00311220001CN0200001N1+02661+01951101321ADDAA106000091AG10000GF103991031011008001001001KA1240N+02481MA1999999097241MD1999999-0051REMSYN017 333 20248 59005;
0096829830999991998030518004-09383-040483FM-12+037099999V0201401N00411220001CN0200001N1+03521+01701100751ADDAA106000091AG10000GF103991031011008001001001MA1999999096691MD1999999-0171REMSYN011 333 59017;
0150829830999991998030600004-09383-040483FM-12+037099999V0201401N00261220001CN9999999N9+03181+01531100901ADDAA106000091AG10000GA1001+999999999GF100991001001999999001001KA1240M+03561MA1999999096811MD1999999-0071REMSYN017 333 10356 59007;EQDQ01+000002VOVAR 
0115829830999991998030612004-09383-040483FM-12+037099999V0200901N00511007501CN0200001N1+02761+01891101181ADDAA106000091AG10000GF105991051011008001001001KA1240N+02501MA1999999097091MD1999999-0151REMSYN017 333 20250 59015;
0096829830999991998030618004-09383-040483FM-12+037099999V0200901N00311220001CN0200001N1+03501+01631100581ADDAA106000091AG10000GF103991021011008001001011MA1999999096531MD1999999-0161REMSYN011 333 59016;
0150829830999991998030700004-09383-040483FM-12+037099999V0201401N00151220001CN9999999N9+03201+01551100721ADDAA106000091AG10000GA1001+999999999GF100991001001999999001001KA1240M+03561MA1999999096651MD1999999-0161REMSYN017 333 10356 59016;EQDQ01+000002VOVAR 
0115829830999991998030712004-09383-040483FM-12+037099999V0201401N00311007501CN0200001N1+02661+02071101211ADDAA106000091AG10000GF108991081011008001001001KA1240N+02481MA1999999097121MD1999999+0031REMSYN017 333 20248 58003;
0096829830999991998030718004-09383-040483FM-12+037099999V0200901N00311045001CN0200001N1+03401+01771100691ADDAA106000091AG10000GF106991041011008001021001MA1999999096631MD1999999+0101REMSYN011 333 58010;
0134829830999991998030800004-09383-040483FM-12+037099999V0200901N00311220001CN9999999N9+03161+01431100891ADDAA106000091AG10000GF104991021011008001011001KA1240M+03481MA1999999096801MD1999999+0151REMSYN017 333 10348 58015;EQDQ01+000002VOVAR 
0115829830999991998030812004-09383-040483FM-12+037099999V0201401N00311007501CN0200001N1+02601+01991101311ADDAA106000091AG10000GF108991081011008001999999KA1240N+02441MA1999999097201MD1999999+0081REMSYN017 333 20244 58008;
0096829830999991998030818004-09383-040483FM-12+037099999V0201401N00311045001CN0200001N1+03321+01741100851ADDAA106000091AG10000GF107991021011008001021001MA1999999096741MD1999999+0111REMSYN011 333 58011;
0134829830999991998030900004-09383-040483FM-12+037099999V0200901N00511220001CN9999999N9+02981+01591100991ADDAA106000091AG10000GF103991031011008001001001KA1240M+03321MA1999999096901MD1999999+0101REMSYN017 333 10332 58010;EQDQ01+000002VOVAR 
0115829830999991998030912004-09383-040483FM-12+037099999V0201401N00311007501CN0200001N1+02721+02121101181ADDAA106000091AG10000GF107991071011008001001001KA1240N+02341MA1999999097081MD1999999-0121REMSYN017 333 20234 59012;
0096829830999991998030918004-09383-040483FM-12+037099999V0201401N00311220001CN0200001N1+03361+02111100741ADDAA106000091AG10000GF103991031011008001001001MA1999999096661MD1999999-0081REMSYN011 333 59008;
0134829830999991998031000004-09383-040483FM-12+037099999V0200501N00151220001CN9999999N9+02941+01821100811ADDAA106000091AG10000GF105991021011008001001011KA1240M+03441MA1999999096731MD1999999-0171REMSYN017 333 10344 59017;EQDQ01+000002VOVAR 
0115829830999991998031012004-09383-040483FM-12+037099999V0201401N00311007501CN0200001N1+02641+02161101211ADDAA106000091AG10000GF108991081021008001999999KA1240N+02381MA1999999097111MD1999999+0031REMSYN017 333 20238 58003;
0096829830999991998031018004-09383-040483FM-12+037099999V0201401N00311220001CN0200001N1+03381+01981100711ADDAA106000091AG10000GF105991031011008001001011MA1999999096651MD1999999-0011REMSYN011 333 59001;
0134829830999991998031100004-09383-040483FM-12+037099999V0200901N00511045001CN9999999N9+03021+01921100891ADDAA106000091AG10000GF105991021011008001021001KA1240M+03451MA1999999096801MD1999999+0071REMSYN017 333 10345 58007;EQDQ01+000002VOVAR 
0096829830999991998031118004-09383-040483FM-12+037099999V0203601N00311007501CN0200001N1+03621+01641100631ADDAA106000091AG10000GF105991051021008001001001MA1999999096571MD1999999-0081REMSYN011 333 59008;
0150829830999991998031200004-09383-040483FM-12+037099999V0200901N00261220001CN9999999N9+03241+01051100871ADDAA106000091AG10000GF103991031011008001001001KA1240M+03681MA1999999096811MD1999999+0011REMSYN017 333 10368 58001;EQDQ01+999990APOSP Q02+000002VOVAR 
0115829830999991998031212004-09383-040483FM-12+037099999V0200501N00311220001CN0200001N1+03001+02031101311ADDAA106000091AG10000GF102991021011008001001001KA1240N+02611MA1999999097231MD1999999+0081REMSYN017 333 20261 58008;
0134829830999991998031300004-09383-040483FM-12+037099999V0209991C00001007501CN9999999N9+02861+02091101081ADDAA106000091AG10000GF106991061021008001001001KA1240M+03641MA1999999097001MD1999999+0191REMSYN017 333 10364 58019;EQDQ01+000002VOVAR 
0115829830999991998031312004-09383-040483FM-12+037099999V0200901N00511220001CN0200001N1+02841+01931101321ADDAA106000091AG10000GF102991021011008001001001KA1240N+02571MA1999999097211MD1999999-0021REMSYN017 333 20257 59002;
0096829830999991998031318004-09383-040483FM-12+037099999V0200901N00311007501CN0200001N1+03581+01751100751ADDAA106000091AG10000GF106991061021008001001001MA1999999096691MD1999999-0021REMSYN011 333 59002;
0134829830999991998031400004-09383-040483FM-12+037099999V0201401N00151220001CN9999999N9+03241+01611100801ADDAA106000091AG10000GF102991021011008001001001KA1240M+03641MA1999999096741MD1999999-0261REMSYN017 333 10364 59026;EQDQ01+000002VOVAR 
0115829830999991998031412004-09383-040483FM-12+037099999V0201401N00311007501CN0200001N1+02681+02021101111ADDAA106000091AG10000GF107991071011008001001001KA1240N+02501MA1999999097031MD1999999-0181REMSYN017 333 20250 59018;
0096829830999991998031418004-09383-040483FM-12+037099999V0200901N00311007501CN0200001N1+03541+01761100591ADDAA106000091AG10000GF105991051021008001001001MA1999999096551MD1999999-0141REMSYN011 333 59014;
0115829830999991998031512004-09383-040483FM-12+037099999V0200901N00311220001CN0200001N1+02901+01901101091ADDAA106000091AG10000GF102991021011008001001001KA1240N+02561MA1999999097021MD1999999-0011REMSYN017 333 20256 59001;
0115829830999991998031612004-09383-040483FM-12+037099999V0201401N00311007501CN0200001N1+03001+01971100981ADDAA106000091AG10000GF105991051021008001001001KA1240N+02681MA1999999096931MD1999999-0091REMSYN017 333 20268 59009;
0096829830999991998031618004-09383-040483FM-12+037099999V0201401N00261045001CN0200001N1+03641+01801100491ADDAA106000091AG10000GF105991031021008001031001MA1999999096471MD1999999+0021REMSYN011 333 58002;
0134829830999991998031700004-09383-040483FM-12+037099999V0203601N00311007501CN9999999N9+02641+02251100961ADDAA106000091AG10000GF108991081051008001999999KA1240M+03661MA1999999096851MD1999999+0251REMSYN017 333 10366 58025;EQDQ01+000002VOVAR 
0156829830999991998031712004-09383-040483FM-12+037099999V0200901N00511007501CN0200001N1+02801+02061101321ADDAA124002091AG10000AY101061AY231061GF106991061011008001001001KA1240N+02461MA1999999097131MD1999999+0201REMSYN023 333 20246 58020 60024;EQDQ01+000562PRSWM1
0096829830999991998031718004-09383-040483FM-12+037099999V0201401N00411007501CN0200001N1+03421+01941100651ADDAA106000091AG10000GF105991051011008001001001MA1999999096631MD1999999+0161REMSYN011 333 58016;
0150829830999991998031800004-09383-040483FM-12+037099999V0201401N00511220001CN9999999N9+03061+02021100891ADDAA106000091AG10000GA1001+999999999GF100991001001999999001001KA1240M+03581MA1999999096811MD1999999-0041REMSYN017 333 10358 59004;EQDQ01+000002VOVAR 
0115829830999991998031812004-09383-040483FM-12+037099999V0200901N00511007501CN0200001N1+02861+02091101211ADDAA106000091AG10000GF105991051021008001001001KA1240N+02601MA1999999097121MD1999999-0011REMSYN017 333 20260 59001;
0096829830999991998031818004-09383-040483FM-12+037099999V0200901N00411007501CN0200001N1+03641+01891100731ADDAA106000091AG10000GF105991051011008001001001MA1999999096671MD1999999+0041REMSYN011 333 58004;
0150829830999991998031900004-09383-040483FM-12+037099999V0201801N00411220001CN9999999N9+02861+02161100981ADDAA106000091AG10000GA1001+999999999GF100991001001999999001001KA1240M+03641MA1999999096891MD1999999+0081REMSYN017 333 10364 58008;EQDQ01+000002VOVAR 
0115829830999991998031912004-09383-040483FM-12+037099999V0201401N00511220001CN0200001N1+02741+01971101291ADDAA106000091AG10000GF104991041011008001001001KA1240N+02381MA1999999097181MD1999999+0061REMSYN017 333 20238 58006;
0096829830999991998031918004-09383-040483FM-12+037099999V0200501N00311220001CN0200001N1+03561+01781100781ADDAA106000091AG10000GF104991041011008001001001MA1999999096731MD1999999+0061REMSYN011 333 58006;
0134829830999991998032000004-09383-040483FM-12+037099999V0201401N00411220001CN9999999N9+03081+02101100971ADDAA106000091AG10000GF102991021011008001001001KA1240M+03581MA1999999096881MD1999999-0011REMSYN017 333 10358 59001;EQDQ01+000002VOVAR 
0115829830999991998032012004-09383-040483FM-12+037099999V0201401N00311220001CN0200001N1+02841+01991101311ADDAA106000091AG10000GF102991021011008001001001KA1240N+02561MA1999999097211MD1999999+0031REMSYN017 333 20256 58003;
0096829830999991998032018004-09383-040483FM-12+037099999V0200901N00311220001CN0200001N1+03561+01821100801ADDAA106000091AG10000GF102991021011008001001001MA1999999096741MD1999999+0011REMSYN011 333 58001;
0150829830999991998032100004-09383-040483FM-12+037099999V0200901N00261220001CN9999999N9+03261+01681100871ADDAA106000091AG10000GA1001+999999999GF100991001001999999001001KA1240M+03661MA1999999096811MD1999999-0071REMSYN017 333 10366 59007;EQDQ01+000002VOVAR 
0115829830999991998032112004-09383-040483FM-12+037099999V0201401N00311220001CN0200001N1+02821+02051101251ADDAA106000091AG10000GF103991021011008001001011KA1240N+02501MA1999999097171MD1999999-0041REMSYN017 333 20250 59004;
0096829830999991998032118004-09383-040483FM-12+037099999V0201401N00311007501CN0200001N1+03581+01861100581ADDAA106000091AG10000GF105991051011008001001001MA1999999096551MD1999999-0191REMSYN011 333 59019;
0115829830999991998032212004-09383-040483FM-12+037099999V0201401N00311045001CN0200001N1+02821+01971101111ADDAA106000091AG10000GF106991041011008001011011KA1240N+02561MA1999999097041MD1999999-0141REMSYN017 333 20256 59014;
0096829830999991998032218004-09383-040483FM-12+037099999V0201401N00311045001CN0200001N1+03561+01731100531ADDAA106000091AG10000GF106991031011008001011011MA1999999096491MD1999999-0061REMSYN011 333 59006;
0134829830999991998032300004-09383-040483FM-12+037099999V0201401N00311220001CN9999999N9+03341+01671100741ADDAA106000091AG10000GF102991021011008001001001KA1240M+03661MA1999999096681MD1999999-0051REMSYN017 333 10366 59005;EQDQ01+000002VOVAR 
0115829830999991998032312004-09383-040483FM-12+037099999V0200901N00311220001CN0200001N1+02841+01991101181ADDAA106000091AG10000GF102991021011008001001001KA1240N+02521MA1999999097111MD1999999+0071REMSYN017 333 20252 58007;
0096829830999991998032318004-09383-040483FM-12+037099999V0200901N00311045001CN0200001N1+03601+01671100601ADDAA106000091AG10000GF106991041021008001031001MA1999999096561MD1999999+0071REMSYN011 333 58007;
0150829830999991998032400004-09383-040483FM-12+037099999V0201401N00311220001CN9999999N9+03321+01521100761ADDAA106000091AG10000GA1001+999999999GF100991001001999999001001KA1240M+03661MA1999999096701MD1999999+0021REMSYN017 333 10366 58002;EQDQ01+000002VOVAR 
0115829830999991998032412004-09383-040483FM-12+037099999V0200901N00261007501CN0200001N1+02921+02061101171ADDAA106000091AG10000GF106991061021008001001001KA1240N+02601MA1999999097101MD1999999-0011REMSYN017 333 20260 59001;
0096829830999991998032418004-09383-040483FM-12+037099999V0200901N00311220001CN0200001N1+03661+01671100631ADDAA106000091AG10000GF104991031021008001031001MA1999999096591MD1999999+0031REMSYN011 333 58003;
0150829830999991998032500004-09383-040483FM-12+037099999V0201401N00151220001CN9999999N9+03281+01441100771ADDAA106000091AG10000GA1001+999999999GF100991001001999999001001KA1240M+03681MA1999999096711MD1999999+0011REMSYN017 333 10368 58001;EQDQ01+000002VOVAR 
0115829830999991998032512004-09383-040483FM-12+037099999V0200501N00261007501CN0200001N1+02901+02121101241ADDAA106000091AG10000GF106991061021008001001001KA1240N+02601MA1999999097161MD1999999+0061REMSYN017 333 20260 58006;
0150829830999991998032600004-09383-040483FM-12+037099999V0202301N00411220001CN9999999N9+03041+01671100881ADDAA106000091AG10000GA1001+999999999GF100991001001999999001001KA1240M+03721MA1999999096801MD1999999+0091REMSYN017 333 10372 58009;EQDQ01+000002VOVAR 
0115829830999991998032612004-09383-040483FM-12+037099999V0202301N00311220001CN0200001N1+02901+02121101221ADDAA106000091AG10000GF102991021011008001001001KA1240N+02491MA1999999097131MD1999999-0031REMSYN017 333 20249 59003;
0096829830999991998032618004-09383-040483FM-12+037099999V0201801N00151007501CN0200001N1+03621+01831100711ADDAA106000091AG10000GF106991061021008001001001MA1999999096651MD1999999+0101REMSYN011 333 58010;
0134829830999991998032700004-09383-040483FM-12+037099999V0203201N00311007501CN9999999N9+03061+02021101001ADDAA106000091AG10000GF105991051021008001001001KA1240M+03691MA1999999096941MD1999999+0141REMSYN017 333 10369 58014;EQDQ01+000002VOVAR 
0096829830999991998032718004-09383-040483FM-12+037099999V0203601N00261007501CN0200001N1+03241+02131100781ADDAA106000091AG10000GF106991061021008001001001MA1999999096701MD1999999+0051REMSYN011 333 58005;
0162829830999991998032800004-09383-040483FM-12+037099999V0209991C00001007501CN9999999N9+02771+02071101021ADDAA106003091AG10017AY191061AY261061GF108991081051008001999999KA1240M+03521MA1999999096901MD1999999-0041MW1031REMSYN023 333 10352 59004 60031;EQDQ01+000002VOVAR 
0143829830999991998032812004-09383-040483FM-12+037099999V0201401N00311007501CN0200001N1+02601+02061101401ADDAA124003091AG10006AY161061AY261061GF108991081051008001999999KA1240N+02441MA1999999097261MD1999999+0051MW1031REMSYN023 333 20244 58005 60034;
0096829830999991998032818004-09383-040483FM-12+037099999V0201401N00511007501CN0200001N1+03091+02061100881ADDAA106000091AG10000GF106991061021008001001001MA1999999096791MD1999999+0091REMSYN011 333 58009;
0150829830999991998032900004-09383-040483FM-12+037099999V0200901N00311220001CN9999999N9+03001+01571100991ADDAA106000091AG10000GA1001+999999999GF100991001001999999001001KA1240M+03241MA1999999096901MD1999999+0001REMSYN017 333 10324 58000;EQDQ01+000002VOVAR 
0115829830999991998032912004-09383-040483FM-12+037099999V0201401N00411220001CN0200001N1+02661+01901101271ADDAA106000091AG10000GF103991031011008001001001KA1240N+02321MA1999999097161MD1999999-0101REMSYN017 333 20232 59010;
0096829830999991998032918004-09383-040483FM-12+037099999V0200901N00311220001CN0200001N1+03341+01631100781ADDAA106000091AG10000GF104991041011008001001001MA1999999096701MD1999999-0091REMSYN011 333 59009;
0150829830999991998033000004-09383-040483FM-12+037099999V0200901N00311220001CN9999999N9+02981+01791100821ADDAA106000091AG10000GA1001+999999999GF100991001001999999001001KA1240M+03441MA1999999096711MD1999999-0191REMSYN017 333 10344 59019;EQDQ01+000002VOVAR 
0115829830999991998033012004-09383-040483FM-12+037099999V0201401N00411220001CN0200001N1+02741+01921101141ADDAA106000091AG10000GF104991041011008001001001KA1240N+02341MA1999999097041MD1999999-0141REMSYN017 333 20234 59014;
0096829830999991998033018004-09383-040483FM-12+037099999V0201401N00151220001CN0200001N1+03361+01651100681ADDAA106000091AG10000GF103991031011008001001001MA1999999096611MD1999999-0091REMSYN011 333 59009;
0134829830999991998033100004-09383-040483FM-12+037099999V0209991C00001220001CN9999999N9+02921+01891100811ADDAA106000091AG10000GF104991041011008001001001KA1240M+03481MA1999999096731MD1999999+0021REMSYN017 333 10348 58002;EQDQ01+000002VOVAR 
0115829830999991998033112004-09383-040483FM-12+037099999V0200901N00411007501CN0200001N1+02661+02071101221ADDAA106000091AG10000GF107991071011008001001001KA1240N+02501MA1999999097121MD1999999+0081REMSYN017 333 20250 58008;
0096829830999991998033118004-09383-040483FM-12+037099999V0200901N00261007501CN0200001N1+03461+01861100721ADDAA106000091AG10000GF105991051011008001001001MA1999999096651MD1999999+0041REMSYN011 333 58004;
0134829830999991998040100004-09383-040483FM-12+037099999V0201401N00311220001CN9999999N9+03181+01841100881ADDAA106000091AG10000GF104991041011008001001001KA1240M+03501MA1999999096791MD1999999+0061REMSYN017 333 10350 58006;EQDQ01+000002VOVAR 
0115829830999991998040112004-09383-040483FM-12+037099999V0200901N00311007501CN0200001N1+02801+02151101261ADDAA106000091AG10000GF107991071011008001001001KA1240N+02441MA1999999097181MD1999999+0061REMSYN017 333 20244 58006;
0096829830999991998040118004-09383-040483FM-12+037099999V0200901N00311007501CN0200001N1+03441+01881100791ADDAA106000091AG10000GF107991071011008001001001MA1999999096731MD1999999+0081REMSYN011 333 58008;
0134829830999991998040300004-09383-040483FM-12+037099999V0201401N00151220001CN9999999N9+03321+01611101001ADDAA106000091AG10000GF103991031041008001001001KA1240M+03701MA1999999096941MD1999999+0161REMSYN017 333 10370 58016;EQDQ01+000002VOVAR 
0115829830999991998040312004-09383-040483FM-12+037099999V0201401N00311045001CN0200001N1+02641+02031101291ADDAA106000091AG10000GF108991031011008001041999KA1240N+02561MA1999999097211MD1999999+0011REMSYN017 333 20256 58001;
0096829830999991998040318004-09383-040483FM-12+037099999V0201401N00311045001CN0200001N1+03341+01401100951ADDAA106000091AG10000GF107991031011008001041001MA1999999096891MD1999999+0181REMSYN011 333 58018;
0134829830999991998040400004-09383-040483FM-12+037099999V0201401N00151220001CN9999999N9+02981+01551101081ADDAA106000091AG10000GF104991021011008001001011KA1240M+03361MA1999999096981MD1999999+0041REMSYN017 333 10336 58004;EQDQ01+000002VOVAR 
0115829830999991998040412004-09383-040483FM-12+037099999V0201401N00411007501CN0200001N1+02701+02011101361ADDAA106000091AG10000GF108991081051008001999999KA1240N+02361MA1999999097051MD1999999+0041REMSYN017 333 20236 58004;
0096829830999991998040418004-09383-040483FM-12+037099999V0201401N00511220001CN0200001N1+02961+02131100981ADDAA106000091AG10000GF105991031011008001001011MA1999999096871MD1999999-0021REMSYN011 333 59002;
0134829830999991998040500004-09383-040483FM-12+037099999V0201401N00311007501CN9999999N9+02521+02001101261ADDAA106000091AG10000GF106991061021008001001001KA1240M+03061MA1999999097121MD1999999+0141REMSYN017 333 10306 58014;EQDQ01+000002VOVAR 
0115829830999991998040512004-09383-040483FM-12+037099999V0201401N00411007501CN0200001N1+02561+01951101411ADDAA106000091AG10000GF108991081051008001999999KA1240N+02201MA1999999097251MD1999999+0001REMSYN017 333 20220 58000;
0096829830999991998040518004-09383-040483FM-12+037099999V0201401N00311220001CN0200001N1+03061+01401100951ADDAA106000091AG10000GF102991021011008001001001MA1999999096831MD1999999-0041REMSYN011 333 59004;
0150829830999991998040600004-09383-040483FM-12+037099999V0201401N00311220001CN9999999N9+02541+02091101241ADDAA106000091AG10000GA1001+999999999GF100991001001999999001001KA1240M+03061MA1999999097141MD1999999+0021REMSYN017 333 10306 58002;EQDQ01+000002VOVAR 
0115829830999991998040612004-09383-040483FM-12+037099999V0201401N00311007501CN0200001N1+02601+01991101541ADDAA106000091AG10000GF108991081051008001999999KA1240N+02241MA1999999097361MD1999999+0111REMSYN017 333 20224 58011;
0096829830999991998040618004-09383-040483FM-12+037099999V0200901N00311220001CN0200001N1+03301+01721100921ADDAA106000091AG10000GF102991021011008001001001MA1999999096831MD1999999+0001REMSYN011 333 58000;
0150829830999991998040700004-09383-040483FM-12+037099999V0201401N00311220001CN9999999N9+02741+02001101251ADDAA106000091AG10000GA1001+999999999GF100991001001999999001001KA1240M+03341MA1999999097111MD1999999-0031REMSYN017 333 10334 59003;EQDQ01+000002VOVAR 
0115829830999991998040712004-09383-040483FM-12+037099999V0201401N00311007501CN0200001N1+02741+01921101521ADDAA106000091AG10000GF105991051011008001001001KA1240N+02221MA1999999097391MD1999999+0031REMSYN017 333 20222 58003;
0096829830999991998040718004-09383-040483FM-12+037099999V0201401N00311220001CN0200001N1+03521+01601100961ADDAA106000091AG10000GF102991021011008001001001MA1999999096821MD1999999-0011REMSYN011 333 59001;
0134829830999991998040800004-09383-040483FM-12+037099999V0201401N00311220001CN9999999N9+03161+01711101031ADDAA106000091AG10000GF102991021011008001001001KA1240M+03541MA1999999096951MD1999999-0161REMSYN017 333 10354 59016;EQDQ01+000002VOVAR 
0115829830999991998040812004-09383-040483FM-12+037099999V0200901N00311007501CN0200001N1+02701+02061101431ADDAA106000091AG10000GF105991051011008001001001KA1240N+02461MA1999999097331MD1999999-0061REMSYN017 333 20246 59006;
0096829830999991998040818004-09383-040483FM-12+037099999V0200901N00311007501CN0200001N1+03341+01911100891ADDAA106000091AG10000GF105991051011008001001001MA1999999096801MD1999999-0021REMSYN011 333 59002;
0115829830999991998040912004-09383-040483FM-12+037099999V0200901N00311007501CN0200001N1+02801+02131101271ADDAA106000091AG10000GF106991061011008001001001KA1240N+02441MA1999999097171MD1999999-0161REMSYN017 333 20244 59016;
0096829830999991998040918004-09383-040483FM-12+037099999V0200901N00311220001CN0200001N1+03521+01651100671ADDAA106000091AG10000GF103991031011008001001001MA1999999096611MD1999999-0191REMSYN011 333 59019;
0150829830999991998041000004-09383-040483FM-12+037099999V0200901N00311220001CN9999999N9+03181+01691100801ADDAA106000091AG10000GA1001+999999999GF100991001001999999001001KA1240M+03561MA1999999096741MD1999999-0271REMSYN017 333 10356 59027;EQDQ01+000002VOVAR 
0115829830999991998041012004-09383-040483FM-12+037099999V0201401N00311220001CN0200001N1+02781+01931101161ADDAA106000091AG10000GF102991021011008001001001KA1240N+02521MA1999999097091MD1999999-0081REMSYN017 333 20252 59008;
0096829830999991998041018004-09383-040483FM-12+037099999V0200901N00311220001CN0200001N1+03541+01671100501ADDAA106000091AG10000GF102991021011008001001001MA1999999096451MD1999999-0161REMSYN011 333 59016;
0150829830999991998041100004-09383-040483FM-12+037099999V0201401N00261220001CN9999999N9+03161+01551100721ADDAA106000091AG10000GA1001+999999999GF100991001001999999001001KA1240M+03581MA1999999096651MD1999999-0091REMSYN017 333 10358 59009;EQDQ01+000002VOVAR 
0115829830999991998041112004-09383-040483FM-12+037099999V0200901N00311007501CN0200001N1+02641+01981101241ADDAA106000091AG10000GF107991071011008001001001KA1240N+02301MA1999999097141MD1999999+0051REMSYN017 333 20230 58005;
0096829830999991998041118004-09383-040483FM-12+037099999V0201401N00261220001CN0200001N1+03521+01651100651ADDAA106000091AG10000GF102991021011008001001011MA1999999096591MD1999999+0141REMSYN011 333 58014;
0150829830999991998041200004-09383-040483FM-12+037099999V0201401N00311220001CN9999999N9+03161+01511100861ADDAA106000091AG10000GA1001+999999999GF100991001001999999001001KA1240M+03541MA1999999096771MD1999999+0121REMSYN017 333 10354 58012;EQDQ01+000002VOVAR 
0115829830999991998041212004-09383-040483FM-12+037099999V0200901N00411007501CN0200001N1+02701+02011101341ADDAA106000091AG10000GF106991061011008001001001KA1240N+02341MA1999999097241MD1999999+0101REMSYN017 333 20234 58010;
0134829830999991998041300004-09383-040483FM-12+037099999V0201401N00151220001CN9999999N9+03181+01531100871ADDAA106000091AG10000GF102991021011008001001001KA1240M+03541MA1999999096791MD1999999+0021REMSYN017 333 10354 58002;EQDQ01+000002VOVAR 
0115829830999991998041312004-09383-040483FM-12+037099999V0201401N00311220001CN0200001N1+02881+02051101301ADDAA106000091AG10000GF104991041011008001001001KA1240N+02321MA1999999097221MD1999999-0021REMSYN017 333 20232 59002;
0096829830999991998041318004-09383-040483FM-12+037099999V0200901N00311007501CN0200001N1+03561+01591100721ADDAA106000091AG10000GF105991051021008001001001MA1999999096661MD1999999-0071REMSYN011 333 59007;
0150829830999991998041400004-09383-040483FM-12+037099999V0201401N00261220001CN9999999N9+03141+01621100891ADDAA106000091AG10000GA1001+999999999GF100991001001999999001001KA1240M+03581MA1999999096831MD1999999+0041REMSYN017 333 10358 58004;EQDQ01+000002VOVAR 
0150829830999991998041500004-09383-040483FM-12+037099999V0201401N00261220001CN9999999N9+03181+01571100801ADDAA106000091AG10000GA1001+999999999GF100991001001999999001001KA1240M+03581MA1999999096731MD1999999-0101REMSYN017 333 10358 59010;EQDQ01+000002VOVAR 
0115829830999991998041512004-09383-040483FM-12+037099999V0201401N00311007501CN0200001N1+02681+01971101211ADDAA106000091AG10000GF105991051011008001001001KA1240N+02401MA1999999097121MD1999999-0071REMSYN017 333 20240 59007;
0096829830999991998041518004-09383-040483FM-12+037099999V0201401N00311220001CN0200001N1+03561+01531100571ADDAA106000091AG10000GF102991021011008001001001MA1999999096521MD1999999-0071REMSYN011 333 59007;
0150829830999991998041600004-09383-040483FM-12+037099999V0201401N00311220001CN9999999N9+03201+01511100731ADDAA106000091AG10000GA1001+999999999GF100991001001999999001001KA1240M+03601MA1999999096661MD1999999-0071REMSYN017 333 10360 59007;EQDQ01+000002VOVAR 
0115829830999991998041612004-09383-040483FM-12+037099999V0200901N00411007501CN0200001N1+02721+02001101231ADDAA106000091AG10000GF106991061021008001001001KA1240N+02471MA1999999097141MD1999999+0021REMSYN017 333 20247 58002;
0096829830999991998041618004-09383-040483FM-12+037099999V0200901N00311220001CN0200001N1+03581+01651100681ADDAA106000091AG10000GF104991021011008001031001MA1999999096621MD1999999+0101REMSYN011 333 58010;
0150829830999991998041700004-09383-040483FM-12+037099999V0201401N00261220001CN9999999N9+03181+01571100921ADDAA106000091AG10000GA1001+999999999GF100991001001999999001001KA1240M+03641MA1999999096841MD1999999+0181REMSYN017 333 10364 58018;EQDQ01+000002VOVAR 
0115829830999991998041712004-09383-040483FM-12+037099999V0200901N00311220001CN0200001N1+02801+01951101331ADDAA106000091AG10000GF103991011011008001031001KA1240N+02531MA1999999097241MD1999999+0101REMSYN017 333 20253 58010;
0096829830999991998041718004-09383-040483FM-12+037099999V0200901N00411220001CN0200001N1+03561+01641100761ADDAA106000091AG10000GF103991021011008001031001MA1999999096721MD1999999+0101REMSYN011 333 58010;
0150829830999991998041800004-09383-040483FM-12+037099999V0201401N00261220001CN9999999N9+03241+01631100941ADDAA106000091AG10000GA1001+999999999GF100991001001999999001001KA1240M+03601MA1999999096881MD1999999+0041REMSYN017 333 10360 58004;EQDQ01+000002VOVAR 
0115829830999991998041812004-09383-040483FM-12+037099999V0200901N00511220001CN0200001N1+02781+02011101201ADDAA106000091AG10000GF102991021011008001001001KA1240N+02011MA1999999097131MD1999999-0111REMSYN017 333 20201 59011;
0150829830999991998041900004-09383-040483FM-12+037099999V0201401N00261220001CN9999999N9+03161+01711100841ADDAA106000091AG10000GA1001+999999999GF100991001001999999001001KA1240M+03631MA1999999096761MD1999999-0121REMSYN017 333 10363 59012;EQDQ01+000002VOVAR 
0096829830999991998041918004-09383-040483FM-12+037099999V0200901N00311220001CN0200001N1+03641+01951100471ADDAA106000091AG10000GF102991021011008001001011MA1999999096451MD1999999-0201REMSYN011 333 59020;
0150829830999991998042000004-09383-040483FM-12+037099999V0201401N00261220001CN9999999N9+03261+01601100761ADDAA106000091AG10000GA1001+999999999GF100991001001999999001001KA1240M+03681MA1999999096701MD1999999-0061REMSYN017 333 10368 59006;EQDQ01+000002VOVAR 
0115829830999991998042012004-09383-040483FM-12+037099999V0201401N00311220001CN0200001N1+02781+02111101171ADDAA106000091AG10000GF101991011011008001001001KA1240N+02441MA1999999097101MD1999999+0041REMSYN017 333 20244 58004;
0112829830999991998042018004-09383-040483FM-12+037099999V0200901N00311220001CN0200001N1+03581+01601100581ADDAA106000091AG10000GA1001+999999999GF100991001001999999001001MA1999999096551MD1999999+0101REMSYN011 333 58010;
0150829830999991998042100004-09383-040483FM-12+037099999V0201401N00511220001CN9999999N9+03161+01671100921ADDAA106000091AG10000GA1001+999999999GF100991001001999999001001KA1240M+03621MA1999999096841MD1999999+0141REMSYN017 333 10362 58014;EQDQ01+000002VOVAR 
0115829830999991998042112004-09383-040483FM-12+037099999V0200901N00311007501CN0200001N1+02661+01711101221ADDAA106000091AG10000GF106991061011008001001001KA1240N+02361MA1999999097211MD1999999+0111REMSYN017 333 20236 58011;
0096829830999991998042118004-09383-040483FM-12+037099999V0200901N00411220001CN0200001N1+03381+01911100801ADDAA106000091AG10000GF103991031011008001001001MA1999999096741MD1999999+0191REMSYN011 333 58019;
0150829830999991998042200004-09383-040483FM-12+037099999V0201801N00311220001CN9999999N9+02841+01881101151ADDAA106000091AG10000GA1001+999999999GF100991001001999999001001KA1240M+03461MA1999999097031MD1999999+0191REMSYN017 333 10346 58019;EQDQ01+000002VOVAR 
0115829830999991998042212004-09383-040483FM-12+037099999V0201401N00311007501CN0200001N1+02681+02021101491ADDAA106000091AG10000GF105991051011008001001001KA1240N+02441MA1999999097361MD1999999+0151REMSYN017 333 20244 58015;
0096829830999991998042218004-09383-040483FM-12+037099999V0201401N00261220001CN0200001N1+03401+01721100941ADDAA106000091AG10000GF104991041011008001001001MA1999999096851MD1999999+0111REMSYN011 333 58011;
0150829830999991998042300004-09383-040483FM-12+037099999V0201401N00311220001CN9999999N9+03081+01641101151ADDAA106000091AG10000GA1001+999999999GF100991001001999999001001KA1240M+03481MA1999999097051MD1999999+0021REMSYN017 333 10348 58002;EQDQ01+000002VOVAR 
0096829830999991998042318004-09383-040483FM-12+037099999V0200901N00311220001CN0200001N1+03481+01751100801ADDAA106000091AG10000GF105991031011008001001011MA1999999096731MD1999999-0121REMSYN011 333 59012;
0150829830999991998042400004-09383-040483FM-12+037099999V0200901N00311220001CN9999999N9+02861+02211101131ADDAA106000091AG10000GA1001+999999999GF100991001001999999001001KA1240M+03521MA1999999097011MD1999999-0041REMSYN017 333 10352 59004;EQDQ01+000002VOVAR 
0134829830999991998042412004-09383-040483FM-12+037099999V0201401N00411220001CN0200001N1+02761+02041101251ADDAA106000091AG10000GF103991999011008001001001KA1240N+02441MA1999999097231MD1999999-0071REMSYN017 333 20244 59007;EQDQ01+000022SCOTLC
0096829830999991998042418004-09383-040483FM-12+037099999V0200901N00311220001CN0200001N1+03441+01631100761ADDAA106000091AG10000GF102991021011008001001001MA1999999096681MD1999999-0051REMSYN011 333 59005;
0150829830999991998042500004-09383-040483FM-12+037099999V0201401N00311220001CN9999999N9+03141+01541100961ADDAA106000091AG10000GA1001+999999999GF100991001001999999001001KA1240M+03501MA1999999096881MD1999999-0131REMSYN017 333 10350 59013;EQDQ01+000002VOVAR 
0115829830999991998042512004-09383-040483FM-12+037099999V0200901N00311220001CN0200001N1+02661+01951101191ADDAA106000091AG10000GF102991021011008001001001KA1240N+02401MA1999999097091MD1999999-0141REMSYN017 333 20240 59014;
0096829830999991998042518004-09383-040483FM-12+037099999V0201401N00411220001CN0200001N1+03561+01591100571ADDAA106000091AG10000GF103991031011008001001001MA1999999096521MD1999999-0161REMSYN011 333 59016;
0150829830999991998042600004-09383-040483FM-12+037099999V0200901N00261220001CN9999999N9+03021+01551100881ADDAA106000091AG10000GA1001+999999999GF100991001001999999001001KA1240M+03601MA1999999096791MD1999999-0091REMSYN017 333 10360 59009;EQDQ01+000002VOVAR 
0115829830999991998042612004-09383-040483FM-12+037099999V0200901N00311220001CN0200001N1+02761+02121101081ADDAA106000091AG10000GF104991041011008001001001KA1240N+02471MA1999999096981MD1999999-0111REMSYN017 333 20247 59011;
0096829830999991998042618004-09383-040483FM-12+037099999V0200901N00311220001CN0200001N1+03641+01601100441ADDAA106000091AG10000GF103991031011008001001001MA1999999096391MD1999999-0131REMSYN011 333 59013;
0150829830999991998042700004-09383-040483FM-12+037099999V0201401N00311220001CN9999999N9+03161+01551100731ADDAA106000091AG10000GA1001+999999999GF100991001001999999001001KA1240M+03701MA1999999096661MD1999999-0131REMSYN017 333 10370 59013;EQDQ01+000002VOVAR 
0131829830999991998042712004-09383-040483FM-12+037099999V0200901N00511220001CN0200001N1+02621+01811101141ADDAA106000091AG10000GA1001+999999999GF100991001001999999001001KA1240N+02371MA1999999097041MD1999999+0061REMSYN017 333 20237 58006;
0096829830999991998042718004-09383-040483FM-12+037099999V0200901N00311220001CN0200001N1+03501+01531100491ADDAA106000091AG10000GF102991021011008001001001MA1999999096441MD1999999+0051REMSYN011 333 58005;
0150829830999991998042800004-09383-040483FM-12+037099999V0201401N00261220001CN9999999N9+03161+01671100741ADDAA106000091AG10000GA1001+999999999GF100991001001999999001001KA1240M+03541MA1999999096661MD1999999+0001REMSYN017 333 10354 58000;EQDQ01+000002VOVAR 
0115829830999991998042812004-09383-040483FM-12+037099999V0200901N00311007501CN0200001N1+02801+02001101161ADDAA106000091AG10000GF105991051011008001001001KA1240N+02511MA1999999097091MD1999999+0051REMSYN017 333 20251 58005;
0096829830999991998042818004-09383-040483FM-12+037099999V0201401N00311007501CN0200001N1+03521+01651100641ADDAA106000091AG10000GF105991051021008001001001MA1999999096581MD1999999+0111REMSYN011 333 58011;
0134829830999991998042900004-09383-040483FM-12+037099999V0201401N00261007501CN9999999N9+03161+01711100901ADDAA106000091AG10000GF106991061021008001001001KA1240M+03551MA1999999096841MD1999999+0181REMSYN017 333 10355 58018;EQDQ01+000002VOVAR 
0115829830999991998042912004-09383-040483FM-12+037099999V0200901N00311045001CN0200001N1+02681+01991101461ADDAA106000091AG10000GF105991021011008001031001KA1240N+02461MA1999999097221MD1999999+0131REMSYN017 333 20246 58013;
0096829830999991998042918004-09383-040483FM-12+037099999V0201401N00261220001CN0200001N1+03481+01791100781ADDAA106000091AG10000GF104991021011008001021001MA1999999096721MD1999999+0141REMSYN011 333 58014;
0150829830999991998043000004-09383-040483FM-12+037099999V0200901N00261220001CN9999999N9+03261+01681100941ADDAA106000091AG10000GA1001+999999999GF100991001001999999001001KA1240M+03541MA1999999096861MD1999999+0021REMSYN017 333 10354 58002;EQDQ01+000002VOVAR 
0115829830999991998043012004-09383-040483FM-12+037099999V0200901N00311220001CN0200001N1+02821+01711101081ADDAA106000091AG10000GF102991011011008001021001KA1240N+02531MA1999999097011MD1999999-0211REMSYN017 333 20253 59021;
0112829830999991998043018004-09383-040483FM-12+037099999V0201401N00261220001CN0500001N1+03581+01701100551ADDAA106000091AG10000GA1001+999999999GF100991001001999999001001MA1999999096511MD1999999-0211REMSYN011 333 59021;
0131829830999991998050112004-09383-040483FM-12+037099999V0200501N00311220001CN0200001N1+02901+01901101031ADDAA106000091AG10000GA1001+999999999GF100991001001999999001001KA1240N+02601MA1999999096971MD1999999-0041REMSYN017 333 20260 59004;
0096829830999991998050118004-09383-040483FM-12+037099999V0201401N00311220001CN0200001N1+03641+01751100411ADDAA106000091AG10000GF102991021011008001001001MA1999999096361MD1999999-0151REMSYN011 333 59015;
0134829830999991998050200004-09383-040483FM-12+037099999V0200501N00151220001CN9999999N9+03301+01801100611ADDAA106000091AG10000GF102991021011008001001001KA1240M+03661MA1999999096551MD1999999-0071REMSYN017 333 10366 59007;EQDQ01+000002VOVAR 
0115829830999991998050212004-09383-040483FM-12+037099999V0200501N00311220001CN0200001N1+03061+01961100951ADDAA106000091AG10000GF104991021011008001001011KA1240N+02701MA1999999096901MD1999999-0071REMSYN017 333 20270 59007;
0096829830999991998050218004-09383-040483FM-12+037099999V0201401N00311220001CN0200001N1+03641+01751100451ADDAA106000091AG10000GF105991031011008001001011MA1999999096431MD1999999+0071REMSYN011 333 58007;
0134829830999991998050300004-09383-040483FM-12+037099999V0201401N00151007501CN9999999N9+03381+01791100761ADDAA106000091AG10000GF105991051011008001001001KA1240M+03681MA1999999096671MD1999999+0121REMSYN017 333 10368 58012;EQDQ01+000002VOVAR 
0115829830999991998050312004-09383-040483FM-12+037099999V0201401N00311220001CN0200001N1+02801+02081101191ADDAA106000091AG10000GF105991031011008001001011KA1240N+02601MA1999999097121MD1999999+0221REMSYN017 333 20260 58022;
0096829830999991998050318004-09383-040483FM-12+037099999V0200901N00311007501CN0200001N1+03501+01721100691ADDAA106000091AG10000GF106991061011008001001001MA1999999096671MD1999999+0241REMSYN011 333 58024;
0150829830999991998050400004-09383-040483FM-12+037099999V0201401N00311220001CN9999999N9+03181+01731100981ADDAA106000091AG10000GA1001+999999999GF100991001001999999001001KA1240M+03541MA1999999096921MD1999999+0251REMSYN017 333 10354 58025;EQDQ01+000002VOVAR 
0115829830999991998050412004-09383-040483FM-12+037099999V0200901N00311007501CN0200001N1+02701+01941101611ADDAA106000091AG10000GF105991051011008001001001KA1240N+02501MA1999999097281MD1999999+0161REMSYN017 333 20250 58016;
0115829830999991998050418004-09383-040483FM-12+037099999V0200901N00311007501CN0200001N1+03501+01431100802ADDAA106000091AG10000GF105991051011008001001001MA1999999096741MD1999999+0071REMSYN011 333 58007;EQDQ01+100803APOSLP
0134829830999991998050500004-09383-040483FM-12+037099999V0201401N00261220001CN9999999N9+03061+01511100991ADDAA106000091AG10000GF102991021011008001001001KA1240M+03501MA1999999096901MD1999999-0021REMSYN017 333 10350 59002;EQDQ01+000002VOVAR 
0115829830999991998050512004-09383-040483FM-12+037099999V0201401N00311220001CN0200001N1+02661+01901101641ADDAA106000091AG10000GF102991021011008001001001KA1240N+02401MA1999999097281MD1999999+0001REMSYN017 333 20240 58000;
0134829830999991998050600004-09383-040483FM-12+037099999V0201401N00151220001CN9999999N9+02961+01491100971ADDAA106000091AG10000GF102991021011008001001001KA1240M+03501MA1999999096881MD1999999-0021REMSYN017 333 10350 59002;EQDQ01+000002VOVAR 
0131829830999991998050612004-09383-040483FM-12+037099999V0200901N00311220001CN0200001N1+02741+01951101601ADDAA106000091AG10000GA1001+999999999GF100991001001999999001001KA1240N+02481MA1999999097241MD1999999-0021REMSYN017 333 20248 59002;
0115829830999991998050618004-09383-040483FM-12+037099999V0200901N00261220001CN0200001N1+03561+01531100702ADDAA106000091AG10000GF105991031011008001001011MA1999999096641MD1999999-0081REMSYN011 333 59008;EQDQ01+100703APOSLP
0150829830999991998050700004-09383-040483FM-12+037099999V0201401N00311220001CN9999999N9+03181+01591100981ADDAA106000091AG10000GA1001+999999999GF100991001001999999001001KA1240M+03581MA1999999096901MD1999999+0021REMSYN017 333 10358 58002;EQDQ01+000002VOVAR 
0115829830999991998050712004-09383-040483FM-12+037099999V0201401N00311007501CN0200001N1+02661+01971101631ADDAA106000091AG10000GF106991061011008001001001KA1240N+02361MA1999999097291MD1999999+0051REMSYN017 333 20236 58005;
0096829830999991998050718004-09383-040483FM-12+037099999V0201401N00411220001CN0200001N1+03221+01801100851ADDAA106000091AG10000GF102991021011008001001001MA1999999096761MD1999999+0121REMSYN011 333 58012;
0150829830999991998050800004-09383-040483FM-12+037099999V0201401N00051220001CN9999999N9+02861+01901101551ADDAA106000091AG10000GA1001+999999999GF100991001001999999001001KA1240M+02861MA1999999097171MD1999999+0271REMSYN017 333 10286 58027;EQDQ01+000002VOVAR 
0115829830999991998050812004-09383-040483FM-12+037099999V0201401N00511007501CN0200001N1+02601+01901101851ADDAA106000091AG10000GF107991071011008001001001KA1240N+02421MA1999999097461MD1999999+0171REMSYN017 333 20242 58017;
0096829830999991998050818004-09383-040483FM-12+037099999V0201401N00411007501CN0200001N1+02981+01831101241ADDAA106000091AG10000GF106991061011008001001001MA1999999097051MD1999999+0291REMSYN011 333 58029;
0096829830999991998051118004-09383-040483FM-12+037099999V0200901N00511007501CN0200001N1+03021+01801101231ADDAA106000091AG10000GF106991061021008001001001MA1999999097091MD1999999-0141REMSYN011 333 59014;
0150829830999991998051200004-09383-040483FM-12+037099999V0201401N00261220001CN9999999N9+02761+01721101381ADDAA106000091AG10000GA1001+999999999GF100991001001999999001001KA1240M+03061MA1999999097241MD1999999-0191REMSYN017 333 10306 59019;EQDQ01+000002VOVAR 
0115829830999991998051212004-09383-040483FM-12+037099999V0201401N00411220001CN0200001N1+02601+01891101541ADDAA106000091AG10000GF102991021011008001001001KA1240N+02221MA1999999097401MD1999999-0121REMSYN017 333 20222 59012;
0096829830999991998051218004-09383-040483FM-12+037099999V0200901N00311007501CN0200001N1+03301+01761101021ADDAA106000091AG10000GF105991051021008001001001MA1999999096931MD1999999-0161REMSYN011 333 59016;
0150829830999991998051300004-09383-040483FM-12+037099999V0201401N00151220001CN9999999N9+02961+01641101221ADDAA106000091AG10000GA1001+999999999GF100991001001999999001001KA1240M+03341MA1999999097121MD1999999-0111REMSYN017 333 10334 59011;EQDQ01+000002VOVAR 
0096829830999991998051318004-09383-040483FM-12+037099999V0201401N00311220001CN0200001N1+03421+01561100961ADDAA106000091AG10000GF102991021011008001001001MA1999999096881MD1999999-0051REMSYN011 333 59005;
0150829830999991998051400004-09383-040483FM-12+037099999V0201401N00511220001CN9999999N9+02981+01921101221ADDAA106000091AG10000GA1001+999999999GF100991001001999999001001KA1240M+03481MA1999999097121MD1999999+0001REMSYN017 333 10348 58000;EQDQ01+000002VOVAR 
0115829830999991998051412004-09383-040483FM-12+037099999V0200901N00511220001CN0200001N1+02701+01661101471ADDAA106000091AG10000GF102991021011008001001001KA1240N+02281MA1999999097351MD1999999-0071REMSYN017 333 20228 59007;
0096829830999991998051418004-09383-040483FM-12+037099999V0200901N00511220001CN0200001N1+03181+01651101061ADDAA106000091AG10000GF103991031011008001001001MA1999999096961MD1999999+0081REMSYN011 333 58008;
0131829830999991998051500004-09383-040483FM-12+037099999V0201401N00261220001CN0500001N1+02801+01631101191ADDAA106000091AG10000GA1001+999999999GF100991001001999999001001KA1240M+03221MA1999999097071MD1999999-0051REMSYN017 333 10322 59005;
0115829830999991998051512004-09383-040483FM-12+037099999V0201401N00311007501CN0200001N1+02421+01821101421ADDAA106000091AG10000GF107991071011008001001001KA1240N+02261MA1999999097271MD1999999-0081REMSYN017 333 20226 59008;
0096829830999991998051518004-09383-040483FM-12+037099999V0200901N00311220001CN0200001N1+03161+01671100891ADDAA106000091AG10000GF104991041011008001001001MA1999999096791MD1999999-0171REMSYN011 333 59017;
0150829830999991998051600004-09383-040483FM-12+037099999V0201401N00311220001CN9999999N9+02841+01501101021ADDAA106000091AG10000GA1001+999999999GF100991001001999999001001KA1240M+03261MA1999999096891MD1999999-0181REMSYN017 333 10326 59018;EQDQ01+000002VOVAR 
0115829830999991998051612004-09383-040483FM-12+037099999V0200901N00511220001CN0200001N1+02521+01861101321ADDAA106000091AG10000GF106991041011008001001011KA1240N+02241MA1999999097181MD1999999-0081REMSYN017 333 20224 59008;
0096829830999991998051618004-09383-040483FM-12+037099999V0200901N00511220001CN0200001N1+03141+01661100841ADDAA106000091AG10000GF104991041011008001001001MA1999999096741MD1999999-0051REMSYN011 333 59005;
0134829830999991998051700004-09383-040483FM-12+037099999V0201401N00151220001CN9999999N9+02881+01391101041ADDAA106000091AG10000GF102991021011008001001001KA1240M+03241MA1999999096921MD1999999+0031REMSYN017 333 10324 58003;EQDQ01+000002VOVAR 
0115829830999991998051712004-09383-040483FM-12+037099999V0200901N00311007501CN0200001N1+02561+01851101411ADDAA106000091AG10000GF105991051011008001001001KA1240N+02321MA1999999097271MD1999999+0091REMSYN017 333 20232 58009;
0134829830999991998051800004-09383-040483FM-12+037099999V0200901N00411220001CN9999999N9+02761+01801101251ADDAA106000091AG10000GF102991021011008001001001KA1240M+03221MA1999999097111MD1999999+0191REMSYN017 333 10322 58019;EQDQ01+000002VOVAR 
0115829830999991998051812004-09383-040483FM-12+037099999V0200901N00411007501CN0200001N1+02601+01921101581ADDAA106000091AG10000GF106991061011008001001001KA1240N+02261MA1999999097441MD1999999+0171REMSYN017 333 20226 58017;
0096829830999991998051818004-09383-040483FM-12+037099999V0201401N00311220001CN0200001N1+03261+01801101111ADDAA106000091AG10000GF104991041011008001001001MA1999999097011MD1999999+0141REMSYN011 333 58014;
0150829830999991998051900004-09383-040483FM-12+037099999V0201401N00511220001CN9999999N9+02901+01721101451ADDAA106000091AG10000GA1001+999999999GF100991001001999999001001KA1240M+03301MA1999999097331MD1999999+0221REMSYN017 333 10330 58022;EQDQ01+000002VOVAR 
0115829830999991998051912004-09383-040483FM-12+037099999V0201401N00511220001CN0200001N1+02641+01771101711ADDAA106000091AG10000GF104991041011008001001001KA1240N+02341MA1999999097571MD1999999+0131REMSYN017 333 20234 58013;
0096829830999991998051918004-09383-040483FM-12+037099999V0201401N00511220001CN0200001N1+03081+01751101291ADDAA106000091AG10000GF105991031011008001001011MA1999999097151MD1999999+0141REMSYN011 333 58014;
0150829830999991998052000004-09383-040483FM-12+037099999V0201401N00511220001CN9999999N9+02621+01781101621ADDAA106000091AG10000GA1001+999999999GF100991001001999999001001KA1240M+03161MA1999999097471MD1999999+0141REMSYN017 333 10316 58014;EQDQ01+000002VOVAR 
0115829830999991998052012004-09383-040483FM-12+037099999V0201401N00411007501CN0200001N1+02481+01851101791ADDAA106000091AG10000GF108991081051008001999999KA1240N+02281MA1999999097611MD1999999+0041REMSYN017 333 20228 58004;
0150829830999991998052100004-09383-040483FM-12+037099999V0200901N00151220001CN9999999N9+02701+01751101561ADDAA106000091AG10000GA1001+999999999GF100991001001999999001001KA1240M+03031MA1999999097401MD1999999-0071REMSYN017 333 10303 59007;EQDQ01+000002VOVAR 
0115829830999991998052112004-09383-040483FM-12+037099999V0200901N00511220001CN0200001N1+02601+01871101651ADDAA106000091AG10000GF103991031011008001001001KA1240N+02321MA1999999097501MD1999999-0111REMSYN017 333 20232 59011;
0096829830999991998052118004-09383-040483FM-12+037099999V0200901N00511045001CN0200001N1+03201+01671101101ADDAA106000091AG10000GF106991041021008001031001MA1999999097001MD1999999-0151REMSYN011 333 59015;
0150829830999991998052200004-09383-040483FM-12+037099999V0200901N00511220001CN9999999N9+02841+01731101461ADDAA106000091AG10000GA1001+999999999GF100991001001999999001001KA1240M+03281MA1999999097321MD1999999-0081REMSYN017 333 10328 59008;EQDQ01+000002VOVAR 
0115829830999991998052212004-09383-040483FM-12+037099999V0201401N005119999999N0200001N1+02501+01871101721ADDAA106000091AG10000GF108991021051008001999999KA1240N+02281MA1999999097561MD1999999+0061REMSYN017 333 20228 58006;
0096829830999991998052218004-09383-040483FM-12+037099999V0200901N00311220001CN0200001N1+03181+01691101191ADDAA106000091AG10000GF104991041011008001001001MA1999999097091MD1999999+0091REMSYN011 333 58009;
0150829830999991998052300004-09383-040483FM-12+037099999V0201401N00511220001CN9999999N9+02821+01941101441ADDAA106000091AG10000GA1001+999999999GF100991001001999999001001KA1240M+03201MA1999999097301MD1999999-0021REMSYN017 333 10320 59002;EQDQ01+000002VOVAR 
0115829830999991998052312004-09383-040483FM-12+037099999V0200901N00511220001CN0200001N1+02641+01691101731ADDAA106000091AG10000GF104991041011008001001001KA1240N+02261MA1999999097591MD1999999+0031REMSYN017 333 20226 58003;
0096829830999991998052318004-09383-040483FM-12+037099999V0201401N00411007501CN0200001N1+03141+01501101241ADDAA106000091AG10000GF105991051021008001001001MA1999999097121MD1999999+0031REMSYN011 333 58003;
0150829830999991998052400004-09383-040483FM-12+037099999V0201401N00311220001CN9999999N9+02761+01661101491ADDAA106000091AG10000GA1001+999999999GF100991001001999999001001KA1240M+03181MA1999999097351MD1999999+0051REMSYN017 333 10318 58005;EQDQ01+000002VOVAR 
0115829830999991998052412004-09383-040483FM-12+037099999V0201401N00411007501CN0200001N1+02561+01751101641ADDAA106000091AG10000GF105991051011008001001001KA1240N+02141MA1999999097491MD1999999-0101REMSYN017 333 20214 59010;
0096829830999991998052418004-09383-040483FM-12+037099999V0201401N00511045001CN0200001N1+03181+01731101181ADDAA106000091AG10000GF106991031011008001031001MA1999999097041MD1999999-0081REMSYN011 333 59008;
0115829830999991998052512004-09383-040483FM-12+037099999V0201401N00411012001CN0200001N1+02401+01911101641ADDAA106000091AG10000GF107991051081008001021001KA1240N+02221MA1999999097481MD1999999-0011REMSYN017 333 20222 59001;
0150829830999991998052600004-09383-040483FM-12+037099999V0201401N00411220001CN9999999N9+02541+01861101411ADDAA106000091AG10000GA1001+999999999GF100991001001999999001001KA1240M+03041MA1999999097241MD1999999-0051REMSYN017 333 10304 59005;EQDQ01+000002VOVAR 
0134829830999991998052612004-09383-040483FM-12+037099999V0201401N004119999999N0200001N1+02461+01941101651ADDAA106000091AG10000GF105991999081008001001001KA1240N+02161MA1999999097481MD1999999+0001REMSYN017 333 20216 58000;EQDQ01+000072SCOTLC
0096829830999991998052618004-09383-040483FM-12+037099999V0201401N00411007501CN0200001N1+02921+01831101231ADDAA106000091AG10000GF107991071011008001001001MA1999999097091MD1999999+0061REMSYN011 333 58006;
0150829830999991998052700004-09383-040483FM-12+037099999V0200901N00311220001CN9999999N9+02661+01851101341ADDAA106000091AG10000GA1001+999999999GF100991001001999999001001KA1240M+03001MA1999999097181MD1999999-0061REMSYN017 333 10300 59006;EQDQ01+000002VOVAR 
0131829830999991998052712004-09383-040483FM-12+037099999V0201401N00311220001CN0200001N1+02541+01881101601ADDAA106000091AG10000GA1001+999999999GF100991001001999999001001KA1240N+02121MA1999999097441MD1999999-0041REMSYN017 333 20212 59004;
0096829830999991998052718004-09383-040483FM-12+037099999V0200901N00311220001CN0200001N1+03181+01731101161ADDAA106000091AG10000GF102991011011008001001011MA1999999097031MD1999999-0061REMSYN011 333 59006;
0150829830999991998052800004-09383-040483FM-12+037099999V0201401N00261220001CN9999999N9+02781+01671101381ADDAA106000091AG10000GA1001+999999999GF100991001001999999001001KA1240M+03241MA1999999097241MD1999999+0061REMSYN017 333 10324 58006;EQDQ01+000002VOVAR 
0115829830999991998052812004-09383-040483FM-12+037099999V0200901N00311220001CN0200001N1+02501+01911101531ADDAA106000091AG10000GF104991021011008001001011KA1240N+02161MA1999999097381MD1999999-0061REMSYN017 333 20216 59006;
0096829830999991998052818004-09383-040483FM-12+037099999V0201401N00151220001CN0200001N1+03321+01681101021ADDAA106000091AG10000GF103991011011008001001031MA1999999096911MD1999999-0121REMSYN011 333 59012;
0150829830999991998052900004-09383-040483FM-12+037099999V0201401N00261220001CN9999999N9+02901+01521101251ADDAA106000091AG10000GA1001+999999999GF100991001001999999001001KA1240M+03401MA1999999097121MD1999999-0121REMSYN017 333 10340 59012;EQDQ01+000002VOVAR 
0115829830999991998052912004-09383-040483FM-12+037099999V0201401N00411007501CN0200001N1+02501+01911101611ADDAA106000091AG10000GF105991051011008001001001KA1240N+02261MA1999999097471MD1999999+0091REMSYN017 333 20226 58009;
0115829830999991998052918004-09383-040483FM-12+037099999V0201401N00261220001CN0200001N1+03241+01671101001ADDAA106000091AG10000GF103991031021008001001001MA1999999096931MD1999999-0061REMSYN011 333 59006;EQDQ01+999990APOSLP
0150829830999991998053000004-09383-040483FM-12+037099999V0201401N00261220001CN9999999N9+02861+01721101201ADDAA106000091AG10000GA1001+999999999GF100991001001999999001001KA1240M+03321MA1999999097071MD1999999-0071REMSYN017 333 10332 59007;EQDQ01+000002VOVAR 
0115829830999991998053012004-09383-040483FM-12+037099999V0201401N00311220001CN0200001N1+02721+01931101571ADDAA106000091AG10000GF103991031011008001001001KA1240N+02401MA1999999097451MD1999999-0021REMSYN017 333 20240 59002;
0096829830999991998053018004-09383-040483FM-12+037099999V0200901N00151220001CN0200001N1+03341+01831101021ADDAA106000091AG10000GF103991031011008001001001MA1999999096931MD1999999+0001REMSYN011 333 58000;
0115829830999991998060112004-09383-040483FM-12+037099999V0201401N00511007501CN0200001N1+02741+01871101631ADDAA106000091AG10000GF106991061021008001001001KA1240N+02501MA1999999097531MD1999999-0181REMSYN017 333 20250 59018;
0096829830999991998060118004-09383-040483FM-12+037099999V0201401N00511007501CN0200001N1+03121+01711101331ADDAA106000091AG10000GF106991061021008001001001MA1999999097221MD1999999+0301REMSYN011 333 58030;
0150829830999991998060200004-09383-040483FM-12+037099999V0200901N00411220001CN9999999N9+02821+01741101501ADDAA106000091AG10000GA1001+999999999GF100991001001999999001001KA1240M+03171MA1999999097381MD1999999+0311REMSYN017 333 10317 58031;EQDQ01+000002VOVAR 
0115829830999991998060212004-09383-040483FM-12+037099999V0201801N00311007501CN0200001N1+02441+02071101901ADDAA106000091AG10000GF108991081051008001999999KA1240N+02281MA1999999097741MD1999999+0211REMSYN017 333 20228 58021;
0096829830999991998060218004-09383-040483FM-12+037099999V0201401N00511007501CN0200001N1+02981+01921101501ADDAA106000091AG10000GF106991061021008001001001MA1999999097351MD1999999+0131REMSYN011 333 58013;
0150829830999991998060300004-09383-040483FM-12+037099999V0201401N00311220001CN9999999N9+02581+01771101591ADDAA106000091AG10000GA1001+999999999GF100991001001999999001001KA1240M+03021MA1999999097421MD1999999+0041REMSYN017 333 10302 58004;EQDQ01+000002VOVAR 
0115829830999991998060312004-09383-040483FM-12+037099999V0201401N00511007501CN0200001N1+02441+01861101821ADDAA106000091AG10000GF107991061021008001031001KA1240N+02291MA1999999097641MD1999999-0101REMSYN017 333 20229 59010;
0096829830999991998060318004-09383-040483FM-12+037099999V0200901N00411007501CN0200001N1+02871+01751101471ADDAA106000091AG10000GF106991061021008001001001MA1999999097321MD1999999-0031REMSYN011 333 59003;
0134829830999991998060400004-09383-040483FM-12+037099999V0200901N00411007501CN9999999N9+02561+01931101691ADDAA106000091AG10000GF108991081051008001999999KA1240M+02941MA1999999097521MD1999999+0101REMSYN017 333 10294 58010;EQDQ01+000002VOVAR 
0115829830999991998060412004-09383-040483FM-12+037099999V0201401N00511220001CN0200001N1+02521+01691101831ADDAA106000091AG10000GF103991031011008001001001KA1240N+02181MA1999999097651MD1999999+0011REMSYN017 333 20218 58001;
0096829830999991998060418004-09383-040483FM-12+037099999V0201401N00511007501CN0200001N1+02841+01631101441ADDAA106000091AG10000GF108991081051008001999999MA1999999097281MD1999999-0041REMSYN011 333 59004;
0134829830999991998060500004-09383-040483FM-12+037099999V0201401N00511007501CN9999999N9+02621+01761101701ADDAA106000091AG10000GF107991071021008001001001KA1240M+02971MA1999999097531MD1999999+0011REMSYN017 333 10297 58001;EQDQ01+000002VOVAR 
0115829830999991998060512004-09383-040483FM-12+037099999V0201401N00511220001CN0200001N1+02541+01911101841ADDAA106000091AG10000GF104991041011008001001001KA1240N+02111MA1999999097671MD1999999+0021REMSYN017 333 20211 58002;
0096829830999991998060518004-09383-040483FM-12+037099999V0201401N00411007501CN0200001N1+02961+01641101361ADDAA106000091AG10000GF106991061021008001001001MA1999999097201MD1999999-0081REMSYN011 333 59008;
0134829830999991998060600004-09383-040483FM-12+037099999V0201401N00571007501CN9999999N9+02581+01661101731ADDAA106000091AG10000GF108991081051008001999999KA1240M+03001MA1999999097551MD1999999+0021REMSYN017 333 10300 58002;EQDQ01+000002VOVAR 
0115829830999991998060612004-09383-040483FM-12+037099999V0201401N00511007501CN0200001N1+02381+01751101991ADDAA106000091AG10000GF108991081051008001999999KA1240N+02221MA1999999097801MD1999999+0131REMSYN017 333 20222 58013;
0096829830999991998060618004-09383-040483FM-12+037099999V0201401N00511007501CN0200001N1+02701+01781101671ADDAA106000091AG10000GF108991081051008001999999MA1999999097491MD1999999+0291REMSYN011 333 58029;
0134829830999991998060700004-09383-040483FM-12+037099999V0201401N00411007501CN9999999N9+02321+01851101891ADDAA106000091AG10000GF108991081051008001999999KA1240M+02741MA1999999097691MD1999999+0141REMSYN017 333 10274 58014;EQDQ01+000002VOVAR 
0115829830999991998060712004-09383-040483FM-12+037099999V0201801N00671045001CN0200001N1+02361+01821101851ADDAA106000091AG10000GF106991041021008001031001KA1240N+02071MA1999999097651MD1999999-0151REMSYN017 333 20207 59015;
0096829830999991998060718004-09383-040483FM-12+037099999V0201401N00511007501CN0200001N1+02741+01761101501ADDAA106000091AG10000GF106991061021008001001001MA1999999097321MD1999999-0171REMSYN011 333 59017;
0115829830999991998060812004-09383-040483FM-12+037099999V0201401N00511007501CN0200001N1+02301+01721101691ADDAA106000091AG10000GF108991081051008001999999KA1240N+02091MA1999999097511MD1999999-0141REMSYN017 333 20209 59014;
0096829830999991998060818004-09383-040483FM-12+037099999V0201401N00571007501CN0200001N1+02601+01861101401ADDAA106000091AG10000GF107991071021008001001001MA1999999097221MD1999999-0101REMSYN011 333 59010;
0134829830999991998060900004-09383-040483FM-12+037099999V0201401N00511220001CN9999999N9+02281+01881101631ADDAA106000091AG10000GF104991041021008001001001KA1240M+02801MA1999999097431MD1999999-0021REMSYN017 333 10280 59002;EQDQ01+000002VOVAR 
0115829830999991998060912004-09383-040483FM-12+037099999V0201401N00411007501CN0200001N1+02341+01771101711ADDAA106000091AG10000GF108991081051008001999999KA1240N+02141MA1999999097511MD1999999+0001REMSYN017 333 20214 58000;
0096829830999991998060918004-09383-040483FM-12+037099999V0201401N00411007501CN0200001N1+02741+01811101341ADDAA106000091AG10000GF108991081051008001999999MA1999999097161MD1999999-0061REMSYN011 333 59006;
0150829830999991998061000004-09383-040483FM-12+037099999V0201401N00311220001CN9999999N9+02461+01831101561ADDAA106000091AG10000GA1001+999999999GF100991001001999999001001KA1240M+02751MA1999999097381MD1999999-0051REMSYN017 333 10275 59005;EQDQ01+000002VOVAR 
0115829830999991998061012004-09383-040483FM-12+037099999V0200901N00411007501CN0200001N1+02421+01951101661ADDAA106000091AG10000GF106991061021008001001001KA1240N+02131MA1999999097481MD1999999-0031REMSYN017 333 20213 59003;
0096829830999991998061018004-09383-040483FM-12+037099999V0200901N00411045001CN0200001N1+03081+01851101221ADDAA106000091AG10000GF106991041021008001031001MA1999999097081MD1999999-0081REMSYN011 333 59008;
0115829830999991998061112004-09383-040483FM-12+037099999V0201401N00411007501CN0200001N1+02501+01821101731ADDAA106000091AG10000GF107991071021008001001001KA1240N+02201MA1999999097551MD1999999+0071REMSYN017 333 20220 58007;
0096829830999991998061118004-09383-040483FM-12+037099999V0201401N00311045001CN0200001N1+03121+01641101221ADDAA106000091AG10000GF106991031021008001031001MA1999999097091MD1999999+0011REMSYN011 333 58001;
0134829830999991998061200004-09383-040483FM-12+037099999V0201401N00311007501CN9999999N9+02741+01641101491ADDAA106000091AG10000GF106991061011008001001001KA1240M+03151MA1999999097341MD1999999+0041REMSYN017 333 10315 58004;EQDQ01+000002VOVAR 
0115829830999991998061212004-09383-040483FM-12+037099999V0201401N00411220001CN0200001N1+02421+01741101671ADDAA106000091AG10000GF103991031011008001001001KA1240N+02101MA1999999097511MD1999999-0041REMSYN017 333 20210 59004;
0096829830999991998061218004-09383-040483FM-12+037099999V0201401N00311007501CN0200001N1+03241+01411101231ADDAA106000091AG10000GF106991061001008001021021MA1999999097111MD1999999+0021REMSYN011 333 58002;
0150829830999991998061300004-09383-040483FM-12+037099999V0201401N00411220001CN9999999N9+02701+01601101551ADDAA106000091AG10000GA1001+999999999GF100991001001999999001001KA1240M+03241MA1999999097391MD1999999+0051REMSYN017 333 10324 58005;EQDQ01+000002VOVAR 
0115829830999991998061312004-09383-040483FM-12+037099999V0201801N00411007501CN0200001N1+02461+01781101891ADDAA106000091AG10000GF106991061021008001001001KA1240N+02101MA1999999097721MD1999999+0211REMSYN017 333 20210 58021;
0150829830999991998061400004-09383-040483FM-12+037099999V0201401N00511220001CN9999999N9+02661+01641101631ADDAA106000091AG10000GA1001+999999999GF100991001001999999001001KA1240M+03111MA1999999097461MD1999999+0071REMSYN017 333 10311 58007;EQDQ01+000002VOVAR 
0115829830999991998061412004-09383-040483FM-12+037099999V0201401N00571007501CN0200001N1+02441+01591101851ADDAA106000091AG10000GF105991051021008001001001KA1240N+01991MA1999999097671MD1999999-0051REMSYN017 333 20199 59005;
0096829830999991998061418004-09383-040483FM-12+037099999V0201401N00511007501CN0200001N1+02961+01531101421ADDAA106000091AG10000GF106991061021008001001001MA1999999097261MD1999999-0041REMSYN011 333 59004;
0134829830999991998061500004-09383-040483FM-12+037099999V0201401N005119999999N9999999N9+02301+01781101751ADDAA106000091AG10000GF105991999999999999999999KA1240M+03001MA1999999097551MD1999999+0091REMSYN017 333 10300 58009;EQDQ01+000002VOVAR 
0115829830999991998061512004-09383-040483FM-12+037099999V0201401N00511007501CN0200001N1+02301+01811101781ADDAA106000091AG10000GF105991051021008001001001KA1240N+01881MA1999999097571MD1999999-0101REMSYN017 333 20188 59010;
0096829830999991998061518004-09383-040483FM-12+037099999V0201401N00511007501CN0200001N1+02701+01831101381ADDAA106000091AG10000GF105991051021008001001001MA1999999097201MD1999999-0061REMSYN011 333 59006;
0134829830999991998061600004-09383-040483FM-12+037099999V0201401N00311007501CN9999999N9+02251+01921101631ADDAA106000091AG10000GF108991081021008001999999KA1240M+02761MA1999999097431MD1999999-0121REMSYN017 333 10276 59012;EQDQ01+000002VOVAR 
0115829830999991998061612004-09383-040483FM-12+037099999V0201401N00511012001CN0200001N1+02261+01821101801ADDAA106000091AG10000GF108991081081008001999999KA1240N+02101MA1999999097581MD1999999+0011REMSYN017 333 20210 58001;
0096829830999991998061618004-09383-040483FM-12+037099999V0201401N00511007501CN0200001N1+02741+01781101291ADDAA106000091AG10000GF108991081051008001999999MA1999999097121MD1999999-0081REMSYN011 333 59008;
0134829830999991998061700004-09383-040483FM-12+037099999V0201401N00411007501CN9999999N9+02261+01941101641ADDAA106000091AG10000GF106991061021008001001001KA1240M+02781MA1999999097441MD1999999+0011REMSYN017 333 10278 58001;EQDQ01+000002VOVAR 
0115829830999991998061712004-09383-040483FM-12+037099999V0201401N00411045001CN0200001N1+02421+01841101661ADDAA106000091AG10000GF105991031011008001011001KA1240N+02161MA1999999097471MD1999999-0111REMSYN017 333 20216 59011;
0096829830999991998061718004-09383-040483FM-12+037099999V0201401N00311007501CN0200001N1+02821+01861101211ADDAA106000091AG10000GF107991071011008001001001MA1999999097051MD1999999-0071REMSYN011 333 59007;
0134829830999991998061800004-09383-040483FM-12+037099999V0201401N00411007501CN9999999N9+02461+01941101401ADDAA106000091AG10000GF107991071021008001001001KA1240M+02841MA1999999097231MD1999999-0211REMSYN017 333 10284 59021;EQDQ01+000002VOVAR 
0115829830999991998061812004-09383-040483FM-12+037099999V0200901N00311007501CN0200001N1+02481+01901101671ADDAA106000091AG10000GF106991061011008001001001KA1240N+02221MA1999999097491MD1999999+0021REMSYN017 333 20222 58002;
0096829830999991998061818004-09383-040483FM-12+037099999V0200901N00311220001CN0200001N1+03081+01401101211ADDAA106000091AG10000GF103991021011008001001011MA1999999097071MD1999999+0021REMSYN011 333 58002;
0166829830999991998061900004-09383-040483FM-12+037099999V0201401N00311220001CN9999999N9+02601+01741101541ADDAA106000091AG10000GA1001+999999999GF100991001001999999001001KA1240M+99999MA1999999097371MD1999999+0041REMSYN017 333 10212 58004;EQDQ01+000002VOVAR Q02 +02122ATMX  
0115829830999991998061912004-09383-040483FM-12+037099999V0200901N00311220001CN0200001N1+02321+01761101711ADDAA106000091AG10000GF104991041011008001001001KA1240N+01981MA1999999097531MD1999999+0041REMSYN017 333 20198 58004;
0096829830999991998061918004-09383-040483FM-12+037099999V0200901N00311220001CN0200001N1+03121+01501101221ADDAA106000091AG10000GF104991041011008001001001MA1999999097081MD1999999+0011REMSYN011 333 58001;
0134829830999991998062000004-09383-040483FM-12+037099999V0201401N00311220001CN9999999N9+02661+01531101471ADDAA106000091AG10000GF102991021011008001001001KA1240M+03161MA1999999097311MD1999999-0061REMSYN017 333 10316 59006;EQDQ01+000002VOVAR 
0131829830999991998062012004-09383-040483FM-12+037099999V0201401N00311220001CN0200001N1+02361+01761101711ADDAA106000091AG10000GA1001+999999999GF100991001001999999001001KA1240N+01761MA1999999097141MD1999999+0011REMSYN017 333 20176 58001;
0096829830999991998062018004-09383-040483FM-12+037099999V0201401N00261220001CN0200001N1+03241+01451101201ADDAA106000091AG10000GF102991021011008001001001MA1999999097061MD1999999-0021REMSYN011 333 59002;
0150829830999991998062100004-09383-040483FM-12+037099999V0201401N00311220001CN9999999N9+02721+01491101361ADDAA106000091AG10000GA1001+999999999GF100991001001999999001001KA1240M+03241MA1999999097201MD1999999-0111REMSYN017 333 10324 59011;EQDQ01+000002VOVAR 
0115829830999991998062112004-09383-040483FM-12+037099999V0201401N00511007501CN0200001N1+02461+01731101721ADDAA106000091AG10000GF106991061021008001001001KA1240N+02201MA1999999097551MD1999999+0011REMSYN017 333 20220 58001;
0096829830999991998062118004-09383-040483FM-12+037099999V0200901N00411220001CN0200001N1+03081+01481101301ADDAA106000091AG10000GF103991031011008001001001MA1999999097161MD1999999+0101REMSYN011 333 58010;
0115829830999991998062212004-09383-040483FM-12+037099999V0201401N00511007501CN0200001N1+02341+01691101691ADDAA106000091AG10000GF108991081051008001999999KA1240N+02161MA1999999097511MD1999999-0041REMSYN017 333 20216 59004;
0096829830999991998062218004-09383-040483FM-12+037099999V0201401N00511220001CN0200001N1+02981+01511101191ADDAA106000091AG10000GF104991041021008001001001MA1999999097051MD1999999-0111REMSYN011 333 59011;
0150829830999991998062300004-09383-040483FM-12+037099999V0201401N00411220001CN9999999N9+02561+01851101421ADDAA106000091AG10000GA1001+999999999GF100991001001999999001001KA1240M+03021MA1999999097251MD1999999-0151REMSYN017 333 10302 59015;EQDQ01+000002VOVAR 
0115829830999991998062312004-09383-040483FM-12+037099999V0201401N00511007501CN0200001N1+02381+01751101701ADDAA106000091AG10000GF105991051011008001001001KA1240N+02081MA1999999097521MD1999999+0011REMSYN017 333 20208 58001;
