0115832360999991998010112004-12150-045000FM-12+044099999V0209991C00001105001CN0200001N1+02751+02121101121ADDAA106000091AG10000GF105991011011008001031041KA1240N+02051MA1999999096171MD1999999-0041REMSYN017 333 20205 59004;
0096832360999991998010118004-12150-045000FM-12+044099999V0203601N00311220001CN0200001N1+03391+01871100591ADDAA106000091AG10000GF104991041021008001001001MA1999999095761MD1999999-0041REMSYN011 333 59004;
0115832360999991998010212004-12150-045000FM-12+044099999V0200501N00411045001CN0100001N1+02341+02091101281ADDAA106000091AG10000GF107991041051008001021001KA1240N+02111MA1999999096351MD1999999+0181REMSYN017 333 20211 58018;
0096832360999991998010218004-12150-045000FM-12+044099999V0203601N00311105001CN0200001N1+03251+01891100751ADDAA106000091AG10000GF105991031021008001001021MA1999999095901MD1999999+0141REMSYN011 333 58014;
0115832360999991998010312004-12150-045000FM-12+044099999V0209991C00001045001CN0200001N1+02731+02101101031ADDAA106000091AG10000GF105991041081008001031001KA1240N+02131MA1999999096161MD1999999-0191REMSYN017 333 20213 59019;
0137832360999991998010412004-12150-045000FM-12+044099999V0202701N00101007501CN0200001N1+02591+02251100891ADDAA106000091AG10000AY101061AY291061GF106991051031008001041001KA1240N+02221MA1999999096021MD1999999-0141MW1151REMSYN017 333 20222 59014;
0143832360999991998010512004-12150-045000FM-12+044099999V0209991C00001007501CN0100001N1+02491+02291101061ADDAA124011091AG10003AY161061AY261061GF108991071051008001071999KA1240N+02191MA1999999096161MD1999999+0141MW1021REMSYN023 333 20219 58014 60114;
0115832360999991998010612004-12150-045000FM-12+044099999V0202301N00101007501CN0200001N1+02801+02201100981ADDAA106000091AG10000GF106991051021008001051031KA1240N+02361MA1999999096121MD1999999-0041REMSYN017 333 20236 59004;
0124832360999991998010618004-12150-045000FM-12+044099999V0202301N00261220001CN0200001N1+03151+02161100521ADDAA106000191AG10000AY151061AY251061GF105991041051008001001041MA1999999095701MD1999999+0111MW1151REMSYN017 333 58011 69911;
0121832360999991998010712004-12150-045000FM-12+044099999V0202301N00101007501CN0200001N1+02591+01941101061ADDAA124000191AG10000GF106991051021008001051031KA1240N+02121MA1999999096171MD1999999+0051REMSYN023 333 20212 58005 69914;
0096832360999991998010718004-12150-045000FM-12+044099999V0203601N00151220001CN0500001N1+03441+01721100481ADDAA106000091AG10000GF104991031021008001001031MA1999999095671MD1999999-0031REMSYN011 333 59003;
0096832360999991998010818004-12150-045000FM-12+044099999V0209991C00001045001CN0200001N1+02801+02221100751ADDAA106000091AG10000GF105991041021008001051041MA1999999095871MD1999999+0201REMSYN011 333 58020;
0115832360999991998010912004-12150-045000FM-12+044099999V0209991C00001007501CN0200001N1+02601+02191101091ADDAA106000091AG10000GF107991061071008001051041KA1240N+02121MA1999999096201MD1999999+0031REMSYN017 333 20212 58003;
0118832360999991998010918004-12150-045000FM-12+044099999V0203601N00461007501CN0200001N1+03131+01921100631ADDAA106000091AG10000AY121061AY221061GF106991051061008001071031MA1999999095771MD1999999-0101MW1151REMSYN011 333 59010;
0096832360999991998011000004-12150-045000FM-12+044099999V0203601N00101007501CN0200001N1+03341+01911100721ADDAA106000091AG10000GF106991051041008001051031MA1999999095901MD1999999+0131REMSYN011 333 58013;
0121832360999991998011012004-12150-045000FM-12+044099999V0209991C00001012001CN0100001N1+02521+02111101081ADDAA124000391AG10000GF108991071081008001071999KA1240N+02201MA1999999096191MD1999999-0011REMSYN023 333 20220 59001 69934;
0096832360999991998011018004-12150-045000FM-12+044099999V0203601N00101007501CN0200001N1+03341+01911100721ADDAA106000091AG10000GF106991051041008001051031MA1999999095901MD1999999+0131REMSYN011 333 58013;
0121832360999991998011112004-12150-045000FM-12+044099999V0200901N00101045001CN0200001N1+02471+01971101301ADDAA124000191AG10000GF105991041071008001051031KA1240N+02201MA1999999096391MD1999999+0201REMSYN023 333 20220 58020 69914;
0096832360999991998011118004-12150-045000FM-12+044099999V0200501N00571007501CN0200001N1+02971+01991100891ADDAA106000091AG10000GF106991051021008001071041MA1999999096011MD1999999+0111REMSYN011 333 58011;
0115832360999991998011212004-12150-045000FM-12+044099999V0200901N00101045001CN0200001N1+02731+02121101201ADDAA106000091AG10000GF105991041021008001071031KA1240N+02061MA1999999096321MD1999999-0071REMSYN017 333 20206 59007;
0096832360999991998011218004-12150-045000FM-12+044099999V0200901N00261007501CN0200001N1+03561+01951100681ADDAA106000091AG10000GF105991051031008001061001MA1999999095861MD1999999-0151REMSYN011 333 59015;
0115832360999991998011312004-12150-045000FM-12+044099999V0209991C00001220001CN0500001N1+02971+99999101111ADDAA106000091AG10000GF104991001001999999001051KA1240N+02191MA1999999096261MD1999999-0061REMSYN017 333 20219 59006;
0115832360999991998011412004-12150-045000FM-12+044099999V0209991C00001220001CN0500001N1+02851+01911100901ADDAA106000091AG10000GF104991001001999999001031KA1240N+01961MA1999999096061MD1999999-0201REMSYN017 333 20196 59020;
0096832360999991998011418004-12150-045000FM-12+044099999V0203201N00101007501CN0200001N1+03561+01781100501ADDAA106000091AG10000GF106991051021008001051041MA1999999095691MD1999999-0051REMSYN011 333 59005;
0115832360999991998011512004-12150-045000FM-12+044099999V0209991C00001007501CN0200001N1+02681+02091100901ADDAA106000091AG10000GF106991051021008001071051KA1240N+02241MA1999999096031MD1999999-0031REMSYN017 333 20224 59003;
0096832360999991998011518004-12150-045000FM-12+044099999V0200901N00101007501CN0200001N1+03511+01861100321ADDAA106000091AG10000GF106991051021008001061041MA1999999095521MD1999999-0171REMSYN011 333 59017;
0143832360999991998011612004-12150-045000FM-12+044099999V0209991C00001012001CN0100001N1+02381+02151101021ADDAA124009091AG10003AY161061AY261061GF108991071081008001051999KA1240N+02231MA1999999096141MD1999999+0111MW1031REMSYN023 333 20223 58011 60094;
0143832360999991998012212004-12150-045000FM-12+044099999V0209991C00001045001CN0100001N1+02341+02111101081ADDAA124006091AG10000AY151061AY251061GF108991021011008001021999KA1240N+02091MA1999999096141MD1999999-0211MW1021REMSYN023 333 20209 59021 60064;
0096832360999991998012218004-12150-045000FM-12+044099999V0203601N00211045001CN0100001N1+02871+02191100791ADDAA106000091AG10000GF108991041051008001021999MA1999999095911MD1999999-0271REMSYN011 333 59027;
0115832360999991998012312004-12150-045000FM-12+044099999V0201801N00311045001CN0100001N1+02651+02121100911ADDAA106000091AG10000GF107991041021008001051001KA1240N+02311MA1999999096131MD1999999-0011REMSYN017 333 20231 59001;
0102832360999991998012318004-12150-045000FM-12+044099999V0203601N00051045001CN0100001N1+02411+02171100761ADDAA106004091AG10000GF108991041051008001021999MA1999999095861MD1999999-0051REMSYN017 333 59005 60041;
0143832360999991998012412004-12150-045000FM-12+044099999V0209991C00001045001CN0100001N1+02431+02251101121ADDAA124005091AG10000AY151061AY251061GF107991031021008001051001KA1240N+02191MA1999999096201MD1999999+0071MW1021REMSYN023 333 20219 58007 60054;
0124832360999991998012418004-12150-045000FM-12+044099999V0209991C00001045001CN0040001N1+02311+02181100801ADDAA106014091AG10003AY161061AY261061GF108991041051008001021999MA1999999095881MD1999999+0021MW1511REMSYN017 333 58002 60141;
0143832360999991998012512004-12150-045000FM-12+044099999V0209991C00001007501CN0100001N1+02391+02151101081ADDAA124015091AG10000AY151061AY251061GF108991051021008001021999KA1240N+02171MA1999999096151MD1999999-0051MW1021REMSYN023 333 20217 59005 60154;
0115832360999991998012612004-12150-045000FM-12+044099999V0209991C00001105001CN0200001N1+02711+02241101151ADDAA106000091AG10000GF106991021021008001031041KA1240N+02231MA1999999096271MD1999999+0121REMSYN017 333 20223 58012;
0096832360999991998012618004-12150-045000FM-12+044099999V0203601N00211105001CN0200001N1+03171+02231100661ADDAA106000091AG10000GF105991031021008001001021MA1999999095831MD1999999-0021REMSYN011 333 59002;
0143832360999991998012712004-12150-045000FM-12+044099999V0209991C00001045001CN0100001N1+02441+02281101281ADDAA124001091AG10000AY151061AY251061GF107991041071008001021001KA1240N+02291MA1999999096461MD1999999+0191MW1021REMSYN023 333 20229 58019 60014;
0124832360999991998012718004-12150-045000FM-12+044099999V0201401N00151045001CN0100001N1+02711+02221101001ADDAA106002091AG10003AY161061AY261061GF108991031021008001021999MA1999999096121MD1999999+0291MW1021REMSYN017 333 58029 60021;
0143832360999991998012812004-12150-045000FM-12+044099999V0202301N00051220001CN0200001N1+02601+02191101421ADDAA124004091AG10003AY161061AY261061GF105991031021008001001041KA1240N+02171MA1999999096521MD1999999+0061MW1021REMSYN023 333 20217 58006 60044;
0096832360999991998012818004-12150-045000FM-12+044099999V0203601N00101220001CN0200001N1+03171+02201100931ADDAA106000091AG10000GF106991041021008001001041MA1999999096071MD1999999-0051REMSYN011 333 59005;
0143832360999991998012912004-12150-045000FM-12+044099999V0209991C00001045001CN0040001N1+02291+02231101521ADDAA124037091AG10010AY191061AY261061GF108991021011008001021999KA1240N+02181MA1999999096581MD1999999+0061MW1401REMSYN023 333 20218 58006 60374;
0124832360999991998012918004-12150-045000FM-12+044099999V0209991C00001220001CN0200001N1+03011+02291101001ADDAA106001091AG10003AY161061AY261061GF105991021021008001001061MA1999999096121MD1999999+0071MW1021REMSYN017 333 58007 60011;
0115832360999991998013112004-12150-045000FM-12+044099999V0209991C00001220001CN0500001N1+02641+02371101271ADDAA106000091AG10000GF102991001001999999001021KA1240N+02161MA1999999096371MD1999999+0051REMSYN017 333 20216 58005;
0115832360999991998020112004-12150-045000FM-12+044099999V0200501N00211220001CN0200001N1+02691+02181101261ADDAA106000091AG10000GF105991031001022501061061KA1240N+02161MA1999999096371MD1999999+0001REMSYN017 333 20216 58000;
0137832360999991998020118004-12150-045000FM-12+044099999V0200501N00211045001CN0200001N1+03201+02301101021ADDAA106999999AG10000AY101061AY291061GF105991041091022501041001MA1999999096151MD1999999+0121MW1951REMSYN011 333 58012;EQDQ01  00002PRCP06
0115832360999991998020212004-12150-045000FM-12+044099999V0209991C00001021001CN0100001N1+02701+02331101231ADDAA106000091AG10000GF108991081001022501021999KA1240N+02321MA1999999096351MD1999999-0021REMSYN017 333 20232 59002;
0096832360999991998020218004-12150-045000FM-12+044099999V0202701N00051045001CN0100001N1+03291+02231100821ADDAA106000091AG10000GF108991031021008001021999MA1999999095991MD1999999-0161REMSYN011 333 59016;
0115832360999991998020312004-12150-045000FM-12+044099999V0209991C00001220001CN0500001N1+02751+02341101081ADDAA106000091AG10000GF102991021001022501041001KA1240N+02271MA1999999096231MD1999999-0121REMSYN017 333 20227 59012;
0096832360999991998020318004-12150-045000FM-12+044099999V0203601N00211220001CN0500001N1+03371+02181100651ADDAA106000091AG10000GF103991031021008001001011MA1999999095831MD1999999-0161REMSYN011 333 59016;
0115832360999991998020412004-12150-045000FM-12+044099999V0209991C00001220001CN0500001N1+02811+02201101031ADDAA106000091AG10000GF103991021001022501041031KA1240N+02271MA1999999096191MD1999999-0041REMSYN017 333 20227 59004;
0096832360999991998020418004-12150-045000FM-12+044099999V0200501N00311220001CN0500001N1+03411+01891100641ADDAA106000091AG10000GF103991031021008001001001MA1999999095821MD1999999-0011REMSYN011 333 59001;
0115832360999991998020512004-12150-045000FM-12+044099999V0209991C00001220001CN0200001N1+02731+02191101091ADDAA106000091AG10000GF101991011001022501041001KA1240N+02111MA1999999096221MD1999999+0031REMSYN017 333 20211 58003;
0096832360999991998020518004-12150-045000FM-12+044099999V0200501N00261220001CN0500001N1+03411+02071100741ADDAA106000091AG10000GF103991031021008001001001MA1999999095921MD1999999+0101REMSYN011 333 58010;
0115832360999991998020612004-12150-045000FM-12+044099999V0201801N00101007501CN0200001N1+02831+02221101141ADDAA106000091AG10000GF105991051021008001041001KA1240N+02361MA1999999096301MD1999999+0081REMSYN017 333 20236 58008;
0096832360999991998020618004-12150-045000FM-12+044099999V0203601N00311220001CN0500001N1+03501+02091100761ADDAA106000091AG10000GF103991021021008001001031MA1999999095951MD1999999+0031REMSYN011 333 58003;
0115832360999991998020712004-12150-045000FM-12+044099999V0209991C00001007501CN0200001N1+02811+02251101181ADDAA106000091AG10000GF106991051021008001071031KA1240N+02281MA1999999096341MD1999999+0041REMSYN017 333 20228 58004;
0096832360999991998020718004-12150-045000FM-12+044099999V0200501N00261220001CN0500001N1+03471+01941100791ADDAA106000091AG10000GF102991021021008001001001MA1999999095981MD1999999+0031REMSYN011 333 58003;
0143832360999991998020812004-12150-045000FM-12+044099999V0201801N00101007501CN0200001N1+02481+02191101301ADDAA124062091AG10003AY161061AY261061GF106991051021008001061051KA1240N+02251MA1999999096401MD1999999+0061MW1021REMSYN023 333 20225 58006 60624;
0096832360999991998020818004-12150-045000FM-12+044099999V0200501N00311045001CN0200001N1+03231+02261100761ADDAA106000091AG10000GF105991041031008001071031MA1999999095941MD1999999-0041REMSYN011 333 59004;
0115832360999991998020912004-12150-045000FM-12+044099999V0209991C00001007501CN0200001N1+02591+02311101291ADDAA106000091AG10000GF108991061041008001071999KA1240N+02351MA1999999096391MD1999999-0011REMSYN017 333 20235 59001;
0143832360999991998021012004-12150-045000FM-12+044099999V0202301N00101007501CN0100001N1+02541+02331101251ADDAA124003091AG10000AY151061AY251061GF108991061051008001071999KA1240N+02411MA1999999096351MD1999999-0041MW1151REMSYN023 333 20241 59004 60034;
0096832360999991998021018004-12150-045000FM-12+044099999V0200901N00101007501CN0200001N1+03191+02191100811ADDAA106000091AG10000GF106991051031008001051041MA1999999095981MD1999999+0011REMSYN011 333 58001;
0115832360999991998021112004-12150-045000FM-12+044099999V0209991C00001012001CN0200001N1+02621+02311101301ADDAA106000091AG10000GF108991061081008001051999KA1240N+02311MA1999999096401MD1999999+0051REMSYN017 333 20231 58005;
0096832360999991998021118004-12150-045000FM-12+044099999V0202301N00101007501CN0200001N1+03361+02111100741ADDAA106000091AG10000GF106991051041008001071031MA1999999095921MD1999999-0061REMSYN011 333 59006;
0115832360999991998021212004-12150-045000FM-12+044099999V0209991C00001220001CN0500001N1+02761+02361101081ADDAA106000091AG10000GF104991031021008001061031KA1240N+02321MA1999999096201MD1999999-0201REMSYN017 333 20232 59020;
0124832360999991998021218004-12150-045000FM-12+044099999V0202301N00311007501CN0040001N1+02411+02261100941ADDAA106005091AG10003AY161061AY261061GF108991071061008001041999MA1999999096031MD1999999+0111MW1611REMSYN017 333 58011 60051;
0143832360999991998021312004-12150-045000FM-12+044099999V0209991C00001012001CN0100001N1+02511+02291101351ADDAA124006091AG10000AY121061AY221061GF108991061081008001051999KA1240N+02211MA1999999096431MD1999999+0231MW1151REMSYN023 333 20221 58023 60064;
0096832360999991998021318004-12150-045000FM-12+044099999V0200501N00461007501CN0200001N1+03051+01971100941ADDAA106000091AG10000GF106991051021008001071031MA1999999096071MD1999999+0041REMSYN011 333 58004;
0115832360999991998021412004-12150-045000FM-12+044099999V0209991C00001007501CN0200001N1+02561+02251101431ADDAA106000091AG10000GF107991051071008001061041KA1240N+02351MA1999999096521MD1999999+0091REMSYN017 333 20235 58009;
0096832360999991998021418004-12150-045000FM-12+044099999V0200501N00101007501CN0200001N1+03071+02251101021ADDAA106000091AG10000GF106991051041008001071051MA1999999096171MD1999999+0101REMSYN011 333 58010;
0121832360999991998021512004-12150-045000FM-12+044099999V0200501N00311012001CN0100001N1+02431+02071101561ADDAA124001091AG10000GF108991071081008001061999KA1240N+02201MA1999999096631MD1999999+0111REMSYN023 333 20220 58011 60014;
0096832360999991998021518004-12150-045000FM-12+044099999V0200501N00461045001CN0200001N1+02931+02121101081ADDAA106000091AG10000GF105991041021008001081041MA1999999096191MD1999999+0021REMSYN011 333 58002;
0143832360999991998021612004-12150-045000FM-12+044099999V0200501N00151012001CN0100001N1+02471+02091101441ADDAA124000191AG10000AY151061AY251061GF108991071081008001061999KA1240N+02201MA1999999096521MD1999999-0111MW1031REMSYN023 333 20220 59011 69924;
0096832360999991998021618004-12150-045000FM-12+044099999V0200501N00411007501CN0200001N1+02881+02131100911ADDAA106000091AG10000GF107991051031008001081051MA1999999096031MD1999999-0161REMSYN011 333 59016;
0143832360999991998021712004-12150-045000FM-12+044099999V0201801N00101012001CN0100001N1+02481+02191101271ADDAA124052091AG10003AY161061AY251061GF108991061081008001041999KA1240N+02171MA1999999096251MD1999999-0171MW1101REMSYN023 333 20217 59017 60524;
0118832360999991998021718004-12150-045000FM-12+044099999V0209991C00001007501CN0100001N1+03001+02141100731ADDAA106000091AG10000AY121061AY221061GF107991051051008001081031MA1999999095871MD1999999-0161MW1151REMSYN011 333 59016;
0143832360999991998021812004-12150-045000FM-12+044099999V0201801N00101012001CN0200001N1+02371+02151101221ADDAA124053091AG10003AY161061AY261061GF106991051081008001071051KA1240N+02181MA1999999096291MD1999999-0061MW1101REMSYN023 333 20218 59006 60534;
0096832360999991998021818004-12150-045000FM-12+044099999V0203601N00151007501CN0200001N1+02841+02291100761ADDAA106000091AG10000GF107991061041008001061051MA1999999095891MD1999999+0021REMSYN011 333 58002;
0115832360999991998021912004-12150-045000FM-12+044099999V0209991C00001007501CN0100001N1+02531+02151101171ADDAA106000091AG10000GF107991071051008001001001KA1240N+02231MA1999999096271MD1999999-0021REMSYN017 333 20223 59002;
0096832360999991998021918004-12150-045000FM-12+044099999V0209991C00001012001CN0100001N1+02871+02191100841ADDAA106000091AG10000GF107991071081008001001001MA1999999095961MD1999999+0071REMSYN011 333 58007;
0143832360999991998022012004-12150-045000FM-12+044099999V0202301N00101045001CN0100001N1+02351+02171101221ADDAA124000591AG10000AY151061AY251061GF108991041051008001021999KA1240N+02261MA1999999096301MD1999999+0031MW1021REMSYN023 333 20226 58003 69964;
0143832360999991998022018004-12150-045000FM-12+044099999V0200501N000519999999N0200001N1+02631+02251100821ADDAA106001091AG10000AY151061AY251061GF107991999021008001021041MA1999999095921MD1999999-0041MW1021REMSYN017 333 59004 69971;EQDQ01+000082SCOTLC
0143832360999991998022112004-12150-045000FM-12+044099999V0209991C00001007501CN0100001N1+02471+02251101161ADDAA124001091AG10000AY151061AY251061GF108991051051008001021999KA1240N+02211MA1999999096251MD1999999-0051MW1021REMSYN023 333 20221 59005 60014;
0143832360999991998022212004-12150-045000FM-12+044099999V0201801N00051045001CN0100001N1+02531+02311101281ADDAA124002091AG10003AY161061AY261061GF107991031021008001071001KA1240N+02311MA1999999096381MD1999999+0131MW1021REMSYN023 333 20231 58013 60024;
0096832360999991998022218004-12150-045000FM-12+044099999V0203601N00211220001CN0200001N1+03131+02171100811ADDAA106000091AG10000GF104991031021008001001041MA1999999095971MD1999999+0101REMSYN011 333 58010;
0143832360999991998022312004-12150-045000FM-12+044099999V0202301N00051045001CN0200001N1+02571+02251101201ADDAA124003091AG10003AY161061AY261061GF105991021011008001061001KA1240N+02261MA1999999096321MD1999999-0071MW1021REMSYN023 333 20226 59007 60034;
0096832360999991998022318004-12150-045000FM-12+044099999V0200501N00101045001CN0200001N1+03101+02181100751ADDAA106000091AG10000GF106991021021008001071021MA1999999095901MD1999999-0071REMSYN011 333 59007;
0143832360999991998022412004-12150-045000FM-12+044099999V0202301N00051045001CN0200001N1+02451+02231101301ADDAA124025091AG10003AY161061AY261061GF106991021011008001021001KA1240N+02211MA1999999096381MD1999999+0071MW1021REMSYN023 333 20221 58007 60254;
0118832360999991998022418004-12150-045000FM-12+044099999V0203601N00311220001CN0200001N1+03111+02181100761ADDAA106000091AG10000AY101061AY221061GF104991041091008001001001MA1999999095911MD1999999+0011MW1151REMSYN011 333 58001;
0115832360999991998022512004-12150-045000FM-12+044099999V0202301N00101220001CN0200001N1+02571+02251101101ADDAA106000091AG10000GF104991011011008001001081KA1240N+02171MA1999999097511MD1999999-0171REMSYN017 333 20217 59017;
0115832360999991998022518004-12150-045000FM-12+044099999V0203601N00361105001CN0200001N1+03191+02191100691ADDAA106000091AG10000GF105991021021008001001021MA1999999095842MD1999999-0071REMSYN011 333 59007;EQDQ01+095843APOSP 
0115832360999991998022612004-12150-045000FM-12+044099999V0200901N00051220001CN0500001N1+02671+02221101081ADDAA106000091AG10000GF103991011011008001081001KA1240N+02041MA1999999096201MD1999999-0011REMSYN017 333 20204 59001;
0096832360999991998022618004-12150-045000FM-12+044099999V0203601N00101105001CN0200001N1+03271+02111100641ADDAA106000091AG10000GF105991021021008001001051MA1999999095811MD1999999-0031REMSYN011 333 59003;
0143832360999991998022712004-12150-045000FM-12+044099999V0209991C00001220001CN0500001N1+02481+02271101091ADDAA124002091AG10000AY151061AY251061GF101991011011008001001001KA1240N+02031MA1999999096201MD1999999+0001MW1021REMSYN023 333 20203 58000 60024;
0096832360999991998022718004-12150-045000FM-12+044099999V0203601N00101220001CN0200001N1+03271+02081100681ADDAA106000091AG10000GF104991041021008001001001MA1999999095831MD1999999+0021REMSYN011 333 58002;
0096832360999991998022818004-12150-045000FM-12+044099999V0203601N00361220001CN0200001N1+03251+02191100581ADDAA106000091AG10000GF104991031021008001001021MA1999999095741MD1999999-0091REMSYN011 333 59009;
0143832360999991998030112004-12150-045000FM-12+044099999V0209991C00001220001CN0500001N1+02521+02111101011ADDAA124013091AG10003AY161061AY261061GF102991021001022501041001KA1240N+01881MA1999999096121MD1999999+0041MW1021REMSYN023 333 20188 58004 60134;
0096832360999991998030118004-12150-045000FM-12+044099999V0203601N00261220001CN0200001N1+03211+01991100581ADDAA106000091AG10000GF104991031021008001041001MA1999999095741MD1999999+0001REMSYN011 333 58000;
0143832360999991998030212004-12150-045000FM-12+044099999V0202301N00101045001CN0100001N1+02491+02191101171ADDAA124000191AG10000AY151061AY251061GF108991041051008001021999KA1240N+02361MA1999999096261MD1999999+0141MW1021REMSYN023 333 20236 58014 69924;
0096832360999991998030218004-12150-045000FM-12+044099999V0202301N00151105001CN0200001N1+03171+02171100681ADDAA106000091AG10000GF105991021021008001001051MA1999999095851MD1999999+0111REMSYN011 333 58011;
0123832360999991998030312004-12150-045000FM-12+044099999V0201801N00101105001CN0200001N1+02511+02131101231ADDAA124005091AG10003AY161061AY261061GF105991011011008001031071KA1240N+02101MA1999999096331MW1021REMSYN017 333 20210 60054;
0143832360999991998030412004-12150-045000FM-12+044099999V0209991C00001220001CN0500001N1+02651+02201101221ADDAA124001091AG10000AY151061AY251061GF103991001001999999001041KA1240N+02221MA1999999096331MD1999999+0001MW1021REMSYN023 333 20222 58000 60014;
0096832360999991998030418004-12150-045000FM-12+044099999V0200501N00211220001CN0200001N1+03271+02111100841ADDAA106000091AG10000GF105991041021008001001081MA1999999096001MD1999999-0081REMSYN011 333 59008;
0096832360999991998030518004-12150-045000FM-12+044099999V0201801N00461220001CN0200001N1+03111+02001100751ADDAA106000091AG10000GF105991041021008001001041MA1999999095891MD1999999-0111REMSYN011 333 59011;
0115832360999991998030612004-12150-045000FM-12+044099999V0209991C00001105001CN0500001N1+02581+01941101061ADDAA106000091AG10000GF105991021001022501071051KA1240N+02021MA1999999096171MD1999999-0101REMSYN017 333 20202 59010;
0096832360999991998030618004-12150-045000FM-12+044099999V0202301N00151007501CN0200001N1+03291+02161100531ADDAA106000091AG10000GF106991051041008001061031MA1999999095711MD1999999-0181REMSYN011 333 59018;
0115832360999991998030712004-12150-045000FM-12+044099999V0202301N00101007501CN0200001N1+02391+01931101031ADDAA106000091AG10000GF107991051021008001081041KA1240N+02011MA1999999096141MD1999999-0031REMSYN017 333 20201 59003;
0096832360999991998030718004-12150-045000FM-12+044099999V0203601N00151045001CN0200001N1+03211+02211100641ADDAA106000091AG10000GF106991041041008001051031MA1999999095811MD1999999+0101REMSYN011 333 58010;
0115832360999991998030812004-12150-045000FM-12+044099999V0202301N00101007501CN0200001N1+02411+02111101131ADDAA106000091AG10000GF107991051021008001081051KA1240N+02011MA1999999096221MD1999999+0081REMSYN017 333 20201 58008;
0115832360999991998030818004-12150-045000FM-12+044099999V0203601N00361012001CN0200001N1+02891+02181100881ADDAA106000091AG10000GF108991999081008001051999MA1999999096001MD1999999+0181REMSYN011 333 58018;EQDQ01+000082SCOTLC
0115832360999991998030912004-12150-045000FM-12+044099999V0209991C00001220001CN0500001N1+02611+02011101121ADDAA106000091AG10000GF104991001001999999001041KA1240N+02071MA1999999096231MD1999999+0011REMSYN017 333 20207 58001;
0096832360999991998030918004-12150-045000FM-12+044099999V0200501N00151007501CN0200001N1+03201+02181100661ADDAA106000091AG10000GF106991051041008001071031MA1999999095811MD1999999-0191REMSYN011 333 59019;
0115832360999991998031012004-12150-045000FM-12+044099999V0209991C00001007501CN0200001N1+02781+02161101041ADDAA106000091AG10000GF106991051021008001081051KA1240N+02211MA1999999096191MD1999999-0041REMSYN017 333 20221 59004;
0118832360999991998031018004-12150-045000FM-12+044099999V0201401N00511007501CN0200001N1+02681+01841100741ADDAA106000091AG10000AY121061AY221061GF108991061061008001051999MA1999999095861MD1999999+0051MW1151REMSYN011 333 58005;
0096832360999991998031118004-12150-045000FM-12+044099999V0200501N00211220001CN0500001N1+03291+02071100671ADDAA106000091AG10000GF103991031021008001001001MA1999999095851MD1999999-0011REMSYN011 333 59001;
0115832360999991998031212004-12150-045000FM-12+044099999V0209991C00001007501CN0200001N1+02511+02191101391ADDAA106000091AG10000GF107991061021008001001051KA1240N+02231MA1999999096481MD1999999+0171REMSYN017 333 20223 58017;
0096832360999991998031218004-12150-045000FM-12+044099999V0200501N00621220001CN0500001N1+03291+02161100861ADDAA106000091AG10000GF104991041021008001001001MA1999999096031MD1999999+0181REMSYN011 333 58018;
0115832360999991998031312004-12150-045000FM-12+044099999V0202301N00101220001CN0500001N1+02131+99999101181ADDAA106000091AG10000GF104991001001999999001051KA1240N+02111MA1999999096301MD1999999-0181REMSYN017 333 20211 59018;
0096832360999991998031318004-12150-045000FM-12+044099999V0200501N00211220001CN0500001N1+03231+02231100761ADDAA106000091AG10000GF105991031021008001001041MA1999999095931MD1999999-0101REMSYN011 333 59010;
0115832360999991998031412004-12150-045000FM-12+044099999V0209991C00001007501CN0200001N1+02711+02241101181ADDAA106000091AG10000GF106991051021008001071051KA1240N+02241MA1999999096301MD1999999+0001REMSYN017 333 20224 58000;
0096832360999991998031418004-12150-045000FM-12+044099999V0200501N00211220001CN0500001N1+03361+02141100531ADDAA106000091AG10000GF104991031021008001001041MA1999999095721MD1999999-0211REMSYN011 333 59021;
0115832360999991998031512004-12150-045000FM-12+044099999V0202301N00101007501CN0200001N1+02651+02291100981ADDAA106000091AG10000GF108991061071008001051999KA1240N+02271MA1999999096101MD1999999-0201REMSYN017 333 20227 59020;
0124832360999991998031518004-12150-045000FM-12+044099999V0209991C00001007501CN0200001N1+02861+02311100691ADDAA199013091AG10003AY161061AY261061GF107991051021008001061051MA1999999095731MD1999999+0011MW1021REMSYN017 333 58001 60132;
0162832360999991998031612004-12150-045000FM-12+044099999V0201801N00101220001CN0040001N1+02411+02351101051ADDAA124019091AG10003AY161061AY261061GF104991999051008001061999KA1240N+02351MA1999999096151MD1999999+0051MW1511REMSYN023 333 20235 58005 60194;EQDQ01+000062SCOTLC
0124832360999991998031618004-12150-045000FM-12+044099999V0209991C00001007501CN0100001N1+02391+02221100721ADDAA106001091AG10000AY151061AY251061GF108991071021008001081999MA1999999095821MD1999999+0091MW1021REMSYN017 333 58009 60011;
0143832360999991998031712004-12150-045000FM-12+044099999V0209991C00001007501CN0200001N1+02551+02171101161ADDAA124002091AG10000AY151061AY251061GF107991061021008001081051KA1240N+02111MA1999999096261MD1999999+0111MW1021REMSYN023 333 20211 58011 60024;
0124832360999991998031718004-12150-045000FM-12+044099999V0203601N00101007501CN0200001N1+02591+02371100831ADDAA106010091AG10003AY161061AY261061GF106991051051008001071031MA1999999095921MD1999999+0101MW1131REMSYN017 333 58010 60101;
0121832360999991998031812004-12150-045000FM-12+044099999V0200901N00151007501CN0200001N1+02691+02291101221ADDAA124010091AG10000GF106991051021008001081051KA1240N+02211MA1999999096321MD1999999+0061REMSYN023 333 20221 58006 60104;
0096832360999991998031818004-12150-045000FM-12+044099999V0203601N00211007501CN0200001N1+03151+02211100741ADDAA106000091AG10000GF106991051031008001061041MA1999999095971MD1999999+0051REMSYN011 333 58005;
0121832360999991998031912004-12150-045000FM-12+044099999V0209991C00001220001CN0500001N1+02711+02331101181ADDAA124005091AG10000GF103991021021012501001031KA1240N+02261MA1999999096301MD1999999-0021REMSYN023 333 20226 59002 60054;
0096832360999991998031918004-12150-045000FM-12+044099999V0203601N00101045001CN0200001N1+03091+02241100811ADDAA106000091AG10000GF105991041021008001051031MA1999999095951MD1999999-0021REMSYN011 333 59002;
0115832360999991998032012004-12150-045000FM-12+044099999V0209991C00001220001CN0500001N1+02731+02221101151ADDAA106000091AG10000GF102991001001999999001031KA1240N+02201MA1999999096271MD1999999-0031REMSYN017 333 20220 59003;
0096832360999991998032018004-12150-045000FM-12+044099999V0203601N00151220001CN0500001N1+03271+02181100781ADDAA106000091AG10000GF104991021021008001001041MA1999999095961MD1999999+0011REMSYN011 333 58001;
0115832360999991998032112004-12150-045000FM-12+044099999V0200501N00051220001CN0200001N1+02691+02281101081ADDAA106000091AG10000GF105991021021008001001061KA1240N+02371MA1999999096211MD1999999-0061REMSYN017 333 20237 59006;
0118832360999991998032118004-12150-045000FM-12+044099999V0201401N00621105001CN0200001N1+03031+02071100631ADDAA106000091AG10000AY101061AY221061GF106991041021008001001081MA1999999095781MD1999999-0181MW1151REMSYN011 333 59018;
0115832360999991998032212004-12150-045000FM-12+044099999V0202701N00101220001CN0200001N1+02631+02231101021ADDAA106000091AG10000GF106991001001999999001061KA1240N+02251MA1999999096141MD1999999-0071REMSYN017 333 20225 59007;
0096832360999991998032218004-12150-045000FM-12+044099999V0200501N00211105001CN0200001N1+03341+02151100571ADDAA106000091AG10000GF105991031021008001001051MA1999999095751MD1999999-0031REMSYN011 333 59003;
0096832360999991998032318004-12150-045000FM-12+044099999V0203601N00151105001CN0200001N1+03411+02141100521ADDAA106000091AG10000GF105991031021008001001051MA1999999095711MD1999999-0041REMSYN011 333 59004;
0115832360999991998032412004-12150-045000FM-12+044099999V0201801N00051045001CN0200001N1+02671+02161101121ADDAA106000091AG10000GF105991041081008001041001KA1240N+02211MA1999999096231MD1999999+0021REMSYN017 333 20221 58002;
0143832360999991998032512004-12150-045000FM-12+044099999V0203201N00051045001CN0100001N1+02171+02081101321ADDAA124006091AG10003AY161061AY261061GF108991031071008001021999KA1240N+02161MA1999999096391MD1999999+0161MW1521REMSYN023 333 20216 58016 60064;
0124832360999991998032518004-12150-045000FM-12+044099999V0200501N00211220001CN0200001N1+03051+02181100631ADDAA106000591AG10000AY151061AY251061GF104991011011008001001051MA1999999095771MD1999999+0021MW1021REMSYN017 333 58002 69961;
0143832360999991998032612004-12150-045000FM-12+044099999V0203601N00101045001CN0100001N1+02171+02081101241ADDAA124007091AG10003AY161061AY261061GF108991021011008001021999KA1240N+02081MA1999999096301MD1999999-0091MW1601REMSYN023 333 20208 59009 60074;
0121832360999991998032712004-12150-045000FM-12+044099999V0209991C00001220001CN0200001N1+02551+02231101241ADDAA124000591AG10000GF104991011011008001061041KA1240N+02051MA1999999096301MD1999999+0041REMSYN023 333 20205 58004 69954;
0121832360999991998032812004-12150-045000FM-12+044099999V0201801N00211220001CN0200001N1+02631+02181101281ADDAA124003091AG10000GF104991031021008001001011KA1240N+02171MA1999999096381MD1999999+0041REMSYN023 333 20217 58004 60034;
0096832360999991998032818004-12150-045000FM-12+044099999V0201401N00461220001CN0200001N1+03211+01991100821ADDAA106000091AG10000GF104991041021008001001001MA1999999095961MD1999999-0051REMSYN011 333 59005;
0115832360999991998032912004-12150-045000FM-12+044099999V0201801N00101220001CN0500001N1+02441+01811101361ADDAA106000091AG10000GF103991001001999999001041KA1240N+01831MA1999999096431MD1999999+0051REMSYN017 333 20183 58005;
0131832360999991998033112004-12150-045000FM-12+044099999V0202301N00101220001CN0500001N1+02651+02051101061ADDAA106000091AG10000GA1001+999999999GF100991001001999999001001KA1240N+02161MA1999999096171MD1999999+0011REMSYN017 333 20216 58001;
0096832360999991998033118004-12150-045000FM-12+044099999V0200501N00261220001CN0500001N1+03361+01771100671ADDAA106000091AG10000GF103991031011008001001001MA1999999095841MD1999999+0061REMSYN011 333 58006;
0115832360999991998040112004-12150-045000FM-12+044099999V0201801N00051220001CN0500001N1+02531+01931101231ADDAA106000091AG10000GF102991001001999999001091KA1240N+01921MA1999999096321MD1999999+0151REMSYN017 333 20192 58015;
0136832360999991998040118004-12150-045000FM-12+044099999V0202401N04992220001CN0042001N1-08032+99999100711ADDAG10000GF103991999011001501001001MA1999999096041MD1999999+0081REMSYN011 333 58008;EQDQ01+004993WOSPD Q02+000012SCOTLCQ03+019293ATOT  
0115832360999991998040312004-12150-045000FM-12+044099999V0200501N00211105001CN0200001N1+02871+02251101171ADDAA106000091AG10000GF106991021041008001061041KA1240N+02291MA1999999096331MD1999999+0021REMSYN017 333 20229 58002;
0096832360999991998040318004-12150-045000FM-12+044099999V0203601N00411045001CN0100001N1+03041+02061100961ADDAA106000091AG10000GF108991011011008001021999MA1999999096091MD1999999+0181REMSYN011 333 58018;
0115832360999991998040412004-12150-045000FM-12+044099999V0200901N00261007501CN0200001N1+02701+02031101261ADDAA106000091AG10000GF107991061021008001071051KA1240N+02251MA1999999096371MD1999999+0041REMSYN017 333 20225 58004;
0096832360999991998040418004-12150-045000FM-12+044099999V0203601N00361007501CN0200001N1+03271+02051100831ADDAA106000091AG10000GF106991051021008001061041MA1999999096001MD1999999+0091REMSYN011 333 58009;
0115832360999991998040512004-12150-045000FM-12+044099999V0209991C00001220001CN0500001N1+02611+01941101271ADDAA106000091AG10000GF101991011021008001001001KA1240N+02071MA1999999096371MD1999999+0001REMSYN017 333 20207 58000;
0096832360999991998040518004-12150-045000FM-12+044099999V0203601N00261220001CN0200001N1+03311+01911100801ADDAA106000091AG10000GF104991041021008001001001MA1999999095971MD1999999-0031REMSYN011 333 59003;
0115832360999991998040612004-12150-045000FM-12+044099999V0209991C00001220001CN0500001N1+02671+01871101341ADDAA106000091AG10000GF103991001001999999001051KA1240N+02171MA1999999096451MD1999999+0081REMSYN017 333 20217 58008;
0096832360999991998040618004-12150-045000FM-12+044099999V0200901N00211220001CN0500001N1+03281+01891100751ADDAA106000091AG10000GF105991041021008001001041MA1999999095921MD1999999-0051REMSYN011 333 59005;
0115832360999991998040712004-12150-045000FM-12+044099999V0202301N00101220001CN0500001N1+02871+02061101301ADDAA106000091AG10000GF102991021021012501001001KA1240N+02271MA1999999096441MD1999999-0011REMSYN017 333 20227 59001;
0096832360999991998040718004-12150-045000FM-12+044099999V0200501N00151220001CN0500001N1+03481+01961100891ADDAA106000091AG10000GF104991021021008001001051MA1999999095971MD1999999+0051REMSYN011 333 58005;
0096832360999991998040818004-12150-045000FM-12+044099999V0203601N00211220001CN0500001N1+03531+01791100761ADDAA106000091AG10000GF104991031021008001001031MA1999999095941MD1999999-0031REMSYN011 333 59003;
0115832360999991998040912004-12150-045000FM-12+044099999V0200901N00101045001CN0500001N1+02791+02091101121ADDAA106000091AG10000GF105991031011012501061051KA1240N+02091MA1999999096251MD1999999-0191REMSYN017 333 20209 59019;
0115832360999991998041012004-12150-045000FM-12+044099999V0209991C00001220001CN0500001N1+02831+02071100961ADDAA106000091AG10000GF103991031021008001051001KA1240N+02101MA1999999096111MD1999999-0141REMSYN017 333 20210 59014;
0118832360999991998041018004-12150-045000FM-12+044099999V0200501N00101007501CN0200001N1+03521+01871100411ADDAA106000091AG10000AY121061AY221061GF105991051051008001071001MA1999999095601MD1999999-0171MW1151REMSYN011 333 59017;
0115832360999991998041112004-12150-045000FM-12+044099999V0203601N00101220001CN0500001N1+02971+02131100951ADDAA106000091AG10000GF103991021001022501081051KA1240N+02311MA1999999096121MD1999999+0011REMSYN017 333 20231 58001;
0096832360999991998041118004-12150-045000FM-12+044099999V0200501N00151007501CN0500001N1+03511+01811100501ADDAA106000091AG10000GF105991051021008001071001MA1999999095711MD1999999+0111REMSYN011 333 58011;
0115832360999991998041212004-12150-045000FM-12+044099999V0209991C00001045001CN0500001N1+02871+02141101091ADDAA106000091AG10000GF105991031021008001071031KA1240N+02401MA1999999096251MD1999999+0131REMSYN017 333 20240 58013;
0096832360999991998041218004-12150-045000FM-12+044099999V0203601N00151045001CN0200001N1+03431+01871100711ADDAA106000091AG10000GF106991041021008001051031MA1999999095901MD1999999+0191REMSYN011 333 58019;
0115832360999991998041312004-12150-045000FM-12+044099999V0202301N00101220001CN0500001N1+02831+02051101081ADDAA106000091AG10000GF102991001001999999001041KA1240N+02101MA1999999096231MD1999999-0021REMSYN017 333 20210 59002;
0096832360999991998041318004-12150-045000FM-12+044099999V0203601N00211007501CN0200001N1+03611+99999100651ADDAA106000091AG10000GF106991061021008001051001MA1999999095841MD1999999-0061REMSYN011 333 59006;
0096832360999991998041418004-12150-045000FM-12+044099999V0203601N00151220001CN0500001N1+03521+01551100601ADDAA106000091AG10000GF103991031021008001001001MA1999999095781MD1999999-0061REMSYN011 333 59006;
0115832360999991998041512004-12150-045000FM-12+044099999V0209991C00001220001CN0500001N1+02681+01781101031ADDAA106000091AG10000GF102991011001022501051031KA1240N+01861MA1999999096151MD1999999-0081REMSYN017 333 20186 59008;
0096832360999991998041518004-12150-045000FM-12+044099999V0203601N00101220001CN0500001N1+03561+01641100491ADDAA106000091AG10000GF103991031021008001001001MA1999999095681MD1999999-0101REMSYN011 333 59010;
0115832360999991998041612004-12150-045000FM-12+044099999V0209991C00001007501CN0200001N1+02591+01871101101ADDAA106000091AG10000GF106991051021008001051031KA1240N+02011MA1999999096211MD1999999+0061REMSYN017 333 20201 58006;
0096832360999991998041618004-12150-045000FM-12+044099999V0200501N00101220001CN0500001N1+03581+01271100591ADDAA106000091AG10000GF102991021021008001001001MA1999999095781MD1999999+0101REMSYN011 333 58010;
0115832360999991998041712004-12150-045000FM-12+044099999V0209991C00001045001CN0500001N1+02821+01771101191ADDAA106000091AG10000GF105991041021008001071031KA1240N+02021MA1999999096431MD1999999+0131REMSYN017 333 20202 58013;
0096832360999991998041718004-12150-045000FM-12+044099999V0200501N00101220001CN0500001N1+03611+01811100681ADDAA106000091AG10000GF104991021021008001001031MA1999999095871MD1999999+0091REMSYN011 333 58009;
0115832360999991998041812004-12150-045000FM-12+044099999V0209991C00001105001CN0500001N1+02681+02111101081ADDAA106000091AG10000GF105991021001022501051071KA1240N+02071MA1999999096201MD1999999-0141REMSYN017 333 20207 59014;
0096832360999991998041818004-12150-045000FM-12+044099999V0200501N00151045001CN0200001N1+03641+01801100541ADDAA106000091AG10000GF106991041021008001071051MA1999999095751MD1999999-0121REMSYN011 333 59012;
0096832360999991998041918004-12150-045000FM-12+044099999V0209991C00001220001CN0200001N1+03751+01791100401ADDAA106000091AG10000GF104991041021008001001001MA1999999095621MD1999999-0131REMSYN011 333 59013;
0131832360999991998042012004-12150-045000FM-12+044099999V0209991C00001220001CN0500001N1+02861+02141100971ADDAA106000091AG10000GA1001+999999999GF100991001001999999001001KA1240N+02221MA1999999096141MD1999999+0071REMSYN017 333 20222 58007;
0096832360999991998042018004-12150-045000FM-12+044099999V0209991C00001220001CN0200001N1+03711+01811100341ADDAA106000091AG10000GF104991041021008001001001MA1999999095561MD1999999-0061REMSYN011 333 59006;
0115832360999991998042112004-12150-045000FM-12+044099999V0200501N00051220001CN0500001N1+02851+01791101211ADDAA106000091AG10000GF102991001001999999001081KA1240N+02091MA1999999096361MD1999999+0221REMSYN017 333 20209 58022;
0115832360999991998042212004-12150-045000FM-12+044099999V0201401N00211220001CN0500001N1+02831+01801101371ADDAA106000091AG10000GF104991011011008001001051KA1240N+02121MA1999999096521MD1999999+0161REMSYN017 333 20212 58016;
0096832360999991998042218004-12150-045000FM-12+044099999V0201401N00621220001CN0200001N1+03491+01611100841ADDAA106000091AG10000GF104991041021008001001001MA1999999096011MD1999999+0251REMSYN011 333 58025;
0096832360999991998042318004-12150-045000FM-12+044099999V0201401N00361007501CN0200001N1+03481+01841100701ADDAA106000091AG10000GF105991051021008001001001MA1999999095881MD1999999-0131REMSYN011 333 59013;
0131832360999991998042412004-12150-045000FM-12+044099999V0203601N00051220001CN0500001N1+02741+01921101191ADDAA106000091AG10000GA1001+999999999GF100991001001999999001001KA1240N+02021MA1999999096321MD1999999-0121REMSYN017 333 20202 59012;
0096832360999991998042418004-12150-045000FM-12+044099999V0201401N00101220001CN0200001N1+03561+01821100671ADDAA106000091AG10000GF104991041021008001001001MA1999999095851MD1999999-0031REMSYN011 333 59003;
0115832360999991998042512004-12150-045000FM-12+044099999V0209991C00001220001CN0500001N1+02651+01881101081ADDAA106000091AG10000GF102991021001022501061001KA1240N+01991MA1999999096191MD1999999-0131REMSYN017 333 20199 59013;
0115832360999991998042612004-12150-045000FM-12+044099999V0209991C00001220001CN0500001N1+02751+01731100931ADDAA106000091AG10000GF102991021001022501061001KA1240N+01991MA1999999096071MD1999999-0121REMSYN017 333 20199 59012;
0096832360999991998042618004-12150-045000FM-12+044099999V0203201N00211220001CN0500001N1+03791+01611100341ADDAA106000091AG10000GF103991031021008001001001MA1999999095541MD1999999-0111REMSYN011 333 59011;
0115832360999991998042712004-12150-045000FM-12+044099999V0203601N00261220001CN0200001N1+02881+01731100941ADDAA106000091AG10000GF105991031021008001001041KA1240N+02071MA1999999096111MD1999999+0041REMSYN017 333 20207 58004;
0096832360999991998042718004-12150-045000FM-12+044099999V0200901N00151220001CN0200001N1+03641+01651100301ADDAA106000091AG10000GF103991031021008001001001MA1999999095531MD1999999-0011REMSYN011 333 59001;
0134832360999991998042812004-12150-045000FM-12+044099999V0203601N00211220001CN0500001N1+02851+01931101051ADDAA106000091AG10000GF103991999001022501061001KA1240N+02061MA1999999096201MD1999999+0091REMSYN017 333 20206 58009;EQDQ01+000022SCOTLC
0096832360999991998042818004-12150-045000FM-12+044099999V0203601N00151220001CN0200001N1+03571+01871100441ADDAA106000091AG10000GF104991041021008001001001MA1999999095631MD1999999+0101REMSYN011 333 58010;
0115832360999991998043012004-12150-045000FM-12+044099999V0209991C00001220001CN0500001N1+02481+01941101061ADDAA106000091AG10000GF102991001001999999001011KA1240N+02061MA1999999096171MD1999999-0131REMSYN017 333 20206 59013;
0118832360999991998043018004-12150-045000FM-12+044099999V0201401N00571007501CN0200001N1+03331+01931100531ADDAA106000091AG10000AY101061AY221061GF105991051071008001001001MA1999999095711MD1999999-0231MW1151REMSYN011 333 59023;
0115832360999991998050112004-12150-045000FM-12+044099999V0209991C00001007501CN0100001N1+02631+02071100961ADDAA106000091AG10000GF107991071041008001001001KA1240N+02161MA1999999096081MD1999999-0091REMSYN017 333 20216 59009;
0096832360999991998050118004-12150-045000FM-12+044099999V0200901N00101220001CN0200001N1+03581+02011100371ADDAA106000091AG10000GF104991041031008001001001MA1999999095561MD1999999-0161REMSYN011 333 59016;
0143832360999991998050212004-12150-045000FM-12+044099999V0209991C00001045001CN0100001N1+02611+02231100971ADDAA124000591AG10000AY151061AY251061GF108991031041008001021999KA1240N+02351MA1999999096091MD1999999+0011MW1021REMSYN023 333 20235 58001 69944;
0096832360999991998050218004-12150-045000FM-12+044099999V0209991C00001045001CN0100001N1+03411+01961100461ADDAA106000091AG10000GF108991031021008001021999MA1999999095651MD1999999+0091REMSYN011 333 58009;
0115832360999991998050312004-12150-045000FM-12+044099999V0201801N00151220001CN0200001N1+02771+02071101001ADDAA106000091AG10000GF103991031001022501061001KA1240N+02261MA1999999096151MD1999999+0061REMSYN017 333 20226 58006;
0124832360999991998050318004-12150-045000FM-12+044099999V0203601N00511007501CN0100001N1+02671+02161100881ADDAA106000591AG10002AY161061AY261061GF107991051071008001021001MA1999999095991MD1999999+0341MW1021REMSYN017 333 58034 69961;
0121832360999991998050412004-12150-045000FM-12+044099999V0209991C00001007501CN0200001N1+02491+02251101231ADDAA124002091AG10000GF106991051021008001071051KA1240N+02251MA1999999096321MD1999999+0171REMSYN023 333 20225 58017 60024;
0096832360999991998050418004-12150-045000FM-12+044099999V0200501N00211220001CN0500001N1+03341+01871100751ADDAA106000091AG10000GF104991031021008001001031MA1999999095921MD1999999-0071REMSYN011 333 59007;
0115832360999991998050512004-12150-045000FM-12+044099999V0201801N00101220001CN0500001N1+02751+02021101191ADDAA106000091AG10000GF102991021021012501001001KA1240N+02111MA1999999096321MD1999999+0001REMSYN017 333 20211 58000;
0115832360999991998050612004-12150-045000FM-12+044099999V0201801N00101220001CN0500001N1+02791+02091101181ADDAA106000091AG10000GF103991021021012501001031KA1240N+02161MA1999999096331MD1999999+0011REMSYN017 333 20216 58001;
0096832360999991998050618004-12150-045000FM-12+044099999V0209991C00001045001CN0200001N1+03521+01651100671ADDAA106000091AG10000GF106991041021008001051031MA1999999095851MD1999999+0001REMSYN011 333 58000;
0143832360999991998050712004-12150-045000FM-12+044099999V0201401N00151007501CN0200001N1+02611+02121101261ADDAA124012091AG10002AY161061AY251061GF107991061021008001071051KA1240N+02291MA1999999096351MD1999999+0021MW1031REMSYN023 333 20229 58002 60124;
0096832360999991998050718004-12150-045000FM-12+044099999V0201801N00101105001CN0200001N1+03311+01951100741ADDAA106000091AG10000GF106991041031008001001031MA1999999095921MD1999999+0071REMSYN011 333 58007;
0115832360999991998050812004-12150-045000FM-12+044099999V0201401N00151220001CN0500001N1+02661+01851101411ADDAA106000091AG10000GF102991021001022501051001KA1240N+02231MA1999999096521MD1999999+0171REMSYN017 333 20223 58017;
0096832360999991998050818004-12150-045000FM-12+044099999V0201401N00101007501CN0500001N1+03291+01741100981ADDAA106000091AG10000GF105991051021008001001001MA1999999096131MD1999999+0211REMSYN011 333 58021;
0096832360999991998051118004-12150-045000FM-12+044099999V0200901N00101220001CN0500001N1+03291+01621100991ADDAA106000091AG10000GF103991031021008001001001MA1999999096151MD1999999-0151REMSYN011 333 59015;
0115832360999991998051212004-12150-045000FM-12+044099999V0209991C00001220001CN0500001N1+02411+01441101531ADDAA106000091AG10000GF102991001001999999001041KA1240N+01631MA1999999096191MD1999999-0021REMSYN017 333 20163 59002;
0096832360999991998051218004-12150-045000FM-12+044099999V0200501N00211220001CN0500001N1+03491+01361100931ADDAA106000091AG10000GF103991021021008001001051MA1999999096101MD1999999-0051REMSYN011 333 59005;
0115832360999991998051312004-12150-045000FM-12+044099999V0202301N00101220001CN0500001N1+02451+01641101501ADDAA106000091AG10000GF103991001001999999001031KA1240N+01661MA1999999096451MD1999999-0031REMSYN017 333 20166 59003;
0096832360999991998051318004-12150-045000FM-12+044099999V0201401N00261220001CN0500001N1+03371+01931100921ADDAA106000091AG10000GF104991041021008001041001MA1999999096091MD1999999-0011REMSYN011 333 59001;
0115832360999991998051412004-12150-045000FM-12+044099999V0209991C00001220001CN0500001N1+02761+01821101341ADDAA106000091AG10000GF104991001001999999001051KA1240N+01861MA1999999096441MD1999999-0121REMSYN017 333 20186 59012;
0096832360999991998051418004-12150-045000FM-12+044099999V0200901N00261007501CN0500001N1+03391+01661100761ADDAA106000091AG10000GF105991051021008001001001MA1999999095931MD1999999-0161REMSYN011 333 59016;
0115832360999991998051512004-12150-045000FM-12+044099999V0209991C00001220001CN0500001N1+02591+01611101221ADDAA106000091AG10000GF102991001001999999001041KA1240N+01761MA1999999096331MD1999999-0111REMSYN017 333 20176 59011;
0096832360999991998051518004-12150-045000FM-12+044099999V0201801N00311220001CN0500001N1+03431+01361100741ADDAA106000091AG10000GF102991001001999999001031MA1999999095921MD1999999-0011REMSYN011 333 59001;
0115832360999991998051612004-12150-045000FM-12+044099999V0209991C00001105001CN0500001N1+02251+01291101281ADDAA106000091AG10000GF105991031001022501081051KA1240N+01471MA1999999096341MD1999999+0011REMSYN017 333 20147 58001;
0096832360999991998051618004-12150-045000FM-12+044099999V0201401N00151220001CN0500001N1+03331+01131100641ADDAA106000091AG10000GF104991021021008001001041MA1999999095821MD1999999-0161REMSYN011 333 59016;
0115832360999991998051712004-12150-045000FM-12+044099999V0202301N00101007501CN0200001N1+02251+01351101331ADDAA106000091AG10000GF106991051021008001071041KA1240N+01461MA1999999096381MD1999999+0041REMSYN017 333 20146 58004;
0096832360999991998051718004-12150-045000FM-12+044099999V0202301N00101007501CN0200001N1+03081+01401100901ADDAA106000091AG10000GF106991051021008001081051MA1999999096041MD1999999+0221REMSYN011 333 58022;
0131832360999991998051812004-12150-045000FM-12+044099999V0209991C00001220001CN0500001N1+02361+01461101421ADDAA106000091AG10000GA1001+999999999GF100991001001999999001001KA1240N+01491MA1999999096481MD1999999+0101REMSYN017 333 20149 58010;
0096832360999991998051818004-12150-045000FM-12+044099999V0200501N00151220001CN0500001N1+03471+01231100921ADDAA106000091AG10000GF104991041021008001071001MA1999999096091MD1999999+0051REMSYN011 333 58005;
0115832360999991998051912004-12150-045000FM-12+044099999V0209991C00001220001CN0500001N1+02571+01641101601ADDAA106000091AG10000GF102991001001999999001091KA1240N+01771MA1999999096671MD1999999+0191REMSYN017 333 20177 58019;
0096832360999991998051918004-12150-045000FM-12+044099999V0200501N00311045001CN0200001N1+03461+01551101081ADDAA106000091AG10000GF106991031021008001041051MA1999999096201MD1999999+0111REMSYN011 333 58011;
0115832360999991998052012004-12150-045000FM-12+044099999V0209991C00001220001CN0500001N1+02481+01541101591ADDAA106000091AG10000GF105991021001022501031091KA1240N+01871MA1999999096661MD1999999-0011REMSYN017 333 20187 59001;
0096832360999991998052018004-12150-045000FM-12+044099999V0201401N00211105001CN0200001N1+03341+01191101101ADDAA106000091AG10000GF106991021001022501071091MA1999999096221MD1999999+0021REMSYN011 333 58002;
0115832360999991998052112004-12150-045000FM-12+044099999V0201801N00051220001CN0500001N1+02491+01511101581ADDAA106000091AG10000GF103991021001022501031041KA1240N+01791MA1999999096651MD1999999-0011REMSYN017 333 20179 59001;
0131832360999991998052212004-12150-045000FM-12+044099999V0201801N00051220001CN0500001N1+02541+01761101541ADDAA106000091AG10000GA1001+999999999GF100991001001999999001001KA1240N+01781MA1999999096611MD1999999-0041REMSYN017 333 20178 59004;
0096832360999991998052218004-12150-045000FM-12+044099999V0200901N00311007501CN0200001N1+03491+01711101021ADDAA106000091AG10000GF105991051021008001001001MA1999999096151MD1999999-0021REMSYN011 333 59002;
0131832360999991998052312004-12150-045000FM-12+044099999V0209991C00001220001CN0500001N1+02571+01751101561ADDAA106000091AG10000GA1001+999999999GF100991001001999999001001KA1240N+01911MA1999999096651MD1999999+0041REMSYN017 333 20191 58004;
0096832360999991998052318004-12150-045000FM-12+044099999V0201401N00211220001CN0500001N1+03411+01451101001ADDAA106000091AG10000GF104991041021008001001001MA1999999096141MD1999999-0011REMSYN011 333 59001;
0131832360999991998052412004-12150-045000FM-12+044099999V0200501N00211220001CN0500001N1+02641+01631101551ADDAA106000091AG10000GA1001+999999999GF100991001001999999001001KA1240N+01831MA1999999096631MD1999999-0021REMSYN017 333 20183 59002;
0096832360999991998052418004-12150-045000FM-12+044099999V0201401N00311220001CN0200001N1+03411+01501101011ADDAA106000091AG10000GF104991041021008001001001MA1999999096141MD1999999+0001REMSYN011 333 58000;
0115832360999991998052512004-12150-045000FM-12+044099999V0200501N00311021001CN0200001N1+02681+01461101531ADDAA106000091AG10000GF105991051001022501031001KA1240N+01891MA1999999096571MD1999999-0061REMSYN017 333 20189 59006;
0115832360999991998052612004-12150-045000FM-12+044099999V0202301N00101220001CN0500001N1+02391+01581101481ADDAA106000091AG10000GF104991001001999999001041KA1240N+01701MA1999999096551MD1999999-0021REMSYN017 333 20170 59002;
0096832360999991998052618004-12150-045000FM-12+044099999V0203201N00151220001CN0500001N1+03391+01481100991ADDAA106000091AG10000GF103991021011008001001011MA1999999096111MD1999999-0081REMSYN011 333 59008;
0115832360999991998052712004-12150-045000FM-12+044099999V0209991C00001105001CN0200001N1+02331+01671101491ADDAA106000091AG10000GF105991001001999999001051KA1240N+01671MA1999999096541MD1999999-0011REMSYN017 333 20167 59001;
0096832360999991998052718004-12150-045000FM-12+044099999V0201801N00101220001CN0500001N1+03391+01431101051ADDAA106000091AG10000GF103991011011008001001021MA1999999096171MD1999999+0061REMSYN011 333 58006;
0115832360999991998052812004-12150-045000FM-12+044099999V0209991C00001220001CN0500001N1+02391+01631101401ADDAA106000091AG10000GF102991001001999999001041KA1240N+01651MA1999999096461MD1999999-0081REMSYN017 333 20165 59008;
0096832360999991998052818004-12150-045000FM-12+044099999V0209991C00001220001CN0500001N1+03541+01521100931ADDAA106000091AG10000GF102991021011008001001001MA1999999096051MD1999999-0121REMSYN011 333 59012;
0115832360999991998052912004-12150-045000FM-12+044099999V0201801N00051220001CN0500001N1+02341+01601101431ADDAA106000091AG10000GF103991011011008001061001KA1240N+01691MA1999999096481MD1999999+0021REMSYN017 333 20169 58002;
0115832360999991998053012004-12150-045000FM-12+044099999V0209991C00001220001CN0500001N1+02431+01621101461ADDAA106000091AG10000GF102991001001999999001011KA1240N+01711MA1999999096521MD1999999+0041REMSYN017 333 20171 58004;
0096832360999991998053018004-12150-045000FM-12+044099999V0203201N00101220001CN0500001N1+03541+01351100921ADDAA106000091AG10000GF103991031021008001001001MA1999999096051MD1999999+0071REMSYN011 333 58007;
0115832360999991998053112004-12150-045000FM-12+044099999V0201801N00051220001CN0500001N1+02511+01821101461ADDAA106000091AG10000GF102991001001999999001011KA1240N+01831MA1999999096531MD1999999+0011REMSYN017 333 20183 58001;
0096832360999991998053118004-12150-045000FM-12+044099999V0203201N00211220001CN0200001N1+03551+01571100921ADDAA106000091AG10000GF104991041021008001001001MA1999999096061MD1999999+0011REMSYN011 333 58001;
0115832360999991998060112004-12150-045000FM-12+044099999V0202301N00051220001CN0500001N1+02601+01791101491ADDAA106000091AG10000GF102991021001022501041001KA1240N+01861MA1999999096561MD1999999+0031REMSYN017 333 20186 58003;
0096832360999991998060118004-12150-045000FM-12+044099999V0202701N00151220001CN0200001N1+03571+01591101011ADDAA106000091AG10000GF104991041021008001001001MA1999999096161MD1999999+0101REMSYN011 333 58010;
0096832360999991998060218004-12150-045000FM-12+044099999V0201801N00101007501CN0200001N1+03341+01801101121ADDAA106000091AG10000GF105991051031008001001001MA1999999096281MD1999999+0121REMSYN011 333 58012;
0115832360999991998060312004-12150-045000FM-12+044099999V0209991C00001045001CN0200001N1+02591+01821101711ADDAA106000091AG10000GF106991041021008001071051KA1240N+02111MA1999999096791MD1999999+0031REMSYN017 333 20211 58003;
0096832360999991998060318004-12150-045000FM-12+044099999V0200901N00211220001CN0500001N1+03301+01501101211ADDAA106000091AG10000GF104991021021008001001041MA1999999096361MD1999999+0081REMSYN011 333 58008;
0115832360999991998060412004-12150-045000FM-12+044099999V0209991C00001220001CN0500001N1+02491+01511101741ADDAA106000091AG10000GF103991021001022501051031KA1240N+01931MA1999999096801MD1999999-0011REMSYN017 333 20193 59001;
0096832360999991998060418004-12150-045000FM-12+044099999V0201401N00261105001CN0200001N1+03351+01291101151ADDAA106000091AG10000GF106991041021008001001051MA1999999096301MD1999999-0061REMSYN011 333 59006;
0115832360999991998060512004-12150-045000FM-12+044099999V0209991C00001220001CN0500001N1+02531+01521101691ADDAA106000091AG10000GF103991001001999999001051KA1240N+01791MA1999999096751MD1999999-0051REMSYN017 333 20179 59005;
0096832360999991998060518004-12150-045000FM-12+044099999V0200901N00151007501CN0200001N1+03251+01261101091ADDAA106000091AG10000GF105991051021008001001001MA1999999096251MD1999999-0051REMSYN011 333 59005;
0115832360999991998060612004-12150-045000FM-12+044099999V0201401N00261220001CN0500001N1+02471+01351101221ADDAA106000091AG10000GF104991001001999999001041KA1240N+01581MA1999999096931MD1999999+0181REMSYN017 333 20158 58018;
0096832360999991998060618004-12150-045000FM-12+044099999V0201401N00211105001CN0500001N1+03211+01321101341ADDAA106000091AG10000GF105991031021008001001031MA1999999096461MD1999999+0211REMSYN011 333 58021;
0131832360999991998060712004-12150-045000FM-12+044099999V0201801N00211220001CN0500001N1+02291+01641101831ADDAA106000091AG10000GA1001+999999999GF100991001001999999001001KA1240N+01711MA1999999096861MD1999999-0071REMSYN017 333 20171 59007;
0096832360999991998060718004-12150-045000FM-12+044099999V0200901N00211220001CN0500001N1+03221+01341101241ADDAA106000091AG10000GF103991031021008001001001MA1999999096361MD1999999-0101REMSYN011 333 59010;
0131832360999991998060812004-12150-045000FM-12+044099999V0209991C00001220001CN0500001N1+02311+01351101611ADDAA106000091AG10000GA1001+999999999GF100991001001999999001001KA1240N+01491MA1999999096651MD1999999-0211REMSYN017 333 20149 59021;
0096832360999991998060818004-12150-045000FM-12+044099999V0201801N00101220001CN0500001N1+03291+01191101091ADDAA106000091AG10000GF102991021021008001001001MA1999999096241MD1999999-0121REMSYN011 333 59012;
0115832360999991998060912004-12150-045000FM-12+044099999V0209991C00001220001CN0500001N1+02171+01351101591ADDAA106000091AG10000GF103991031021012501071001KA1240N+01501MA1999999096621MD1999999-0031REMSYN017 333 20150 59003;
0096832360999991998060918004-12150-045000FM-12+044099999V0209991C00001220001CN0500001N1+03401+01061100951ADDAA106000091AG10000GF103991031021008001001001MA1999999096121MD1999999-0121REMSYN011 333 59012;
0131832360999991998061012004-12150-045000FM-12+044099999V0200501N00151220001CN0500001N1+02471+01731101581ADDAA106000091AG10000GA1001+999999999GF100991001001999999001001KA1240N+01651MA1999999096641MD1999999+0021REMSYN017 333 20165 58002;
0096832360999991998061018004-12150-045000FM-12+044099999V0209991C00001220001CN0500001N1+03461+01231101001ADDAA106000091AG10000GF103991031021012501001001MA1999999096151MD1999999+0031REMSYN011 333 58003;
0131832360999991998061112004-12150-045000FM-12+044099999V0200501N00101220001CN0500001N1+02601+01601101561ADDAA106000091AG10000GA1001+999999999GF100991001001999999001001KA1240N+01621MA1999999096631MD1999999-0011REMSYN017 333 20162 59001;
0096832360999991998061118004-12150-045000FM-12+044099999V0201401N00101220001CN0500001N1+03341+01351101031ADDAA106000091AG10000GF104991041021008001001001MA1999999096191MD1999999+0041REMSYN011 333 58004;
0131832360999991998061212004-12150-045000FM-12+044099999V0209991C00001220001CN0500001N1+02331+01311101561ADDAA106000091AG10000GA1001+999999999GF100991001001999999001001KA1240N+01531MA1999999096601MD1999999-0031REMSYN017 333 20153 59003;
0096832360999991998061218004-12150-045000FM-12+044099999V0201401N00101220001CN0500001N1+03461+01291100951ADDAA106000091AG10000GF102991021021012501001001MA1999999096101MD1999999-0091REMSYN011 333 59009;
0115832360999991998061312004-12150-045000FM-12+044099999V0209991C00001220001CN0500001N1+02571+01441101661ADDAA106000091AG10000GF103991001001999999001051KA1240N+01611MA1999999096731MD1999999+0131REMSYN017 333 20161 58013;
0096832360999991998061318004-12150-045000FM-12+044099999V0200901N00261220001CN0500001N1+03301+01041101241ADDAA106000091AG10000GF101991011021012501001001MA1999999096361MD1999999+0261REMSYN011 333 58026;
0100832360999991998061412004-12150-045000FM-12+044099999V0201401N00211220001CN0500001N1+02341+01551101801ADDAA106000091AG10000GF104991021021012501001041KA1240N+01601MD1999999+0111REMSYN017 333 20160 58011;
0096832360999991998061418004-12150-045000FM-12+044099999V0201401N00311105001CN0500001N1+03041+01281101291ADDAA106000091AG10000GF105991041021008001001031MA1999999096391MD1999999+0031REMSYN011 333 58003;
0131832360999991998061512004-12150-045000FM-12+044099999V0201401N00151220001CN0500001N1+02311+01381101741ADDAA106000091AG10000GA1001+999999999GF100991001001999999001001KA1240N+01851MA1999999096771MD1999999-0071REMSYN017 333 20185 59007;
0096832360999991998061518004-12150-045000FM-12+044099999V0200501N00261105001CN0500001N1+03161+01431101111ADDAA106000091AG10000GF105991041021008001001031MA1999999096231MD1999999-0161REMSYN011 333 59016;
0096832360999991998061612004-12150-045000FM-12+044099999V0209991C00001045001CN0200001N1+02361+01401101601ADDAA106000091AG10000GF106991041021008001071051MA1999999096651MD1999999-0121REMSYN011 333 59012;
0096832360999991998061618004-12150-045000FM-12+044099999V0200501N00211007501CN0200001N1+03171+01381101051ADDAA106000091AG10000GF106991051021008001081051MA1999999096171MD1999999-0061REMSYN011 333 59006;
0115832360999991998061712004-12150-045000FM-12+044099999V0209991C00001220001CN0500001N1+02371+01321101561ADDAA106000091AG10000GF103991001001999999001031KA1240N+01651MA1999999096611MD1999999-0041REMSYN017 333 20165 59004;
0096832360999991998061718004-12150-045000FM-12+044099999V0203601N00101220001CN0500001N1+03291+00961100921ADDAA106000091AG10000GF103991011021012501001041MA1999999096061MD1999999-0111REMSYN011 333 59011;
0115832360999991998061812004-12150-045000FM-12+044099999V0209991C00001220001CN0500001N1+02401+01631101521ADDAA106000091AG10000GF102991021011008001001001KA1240N+01631MA1999999096581MD1999999-0031REMSYN017 333 20163 59003;
0096832360999991998061818004-12150-045000FM-12+044099999V0200901N00101220001CN0200001N1+03471+01401101041ADDAA106000091AG10000GF104991041021008001001001MA1999999096151MD1999999+0091REMSYN011 333 58009;
0112832360999991998061912004-12150-045000FM-12+044099999V0209991C00001220001CN0500001N1+02301+01581101611ADDAA106000091AG10000GA1001+999999999GF100991001001999999001001MA1999999096651MD1999999+0071REMSYN011 333 58007;
0115832360999991998062012004-12150-045000FM-12+044099999V0200901N00101220001CN0200001N1+02381+01531101531ADDAA106000091AG10000GF104991021021008001061001KA1240N+01631MA1999999096591MD1999999-0061REMSYN017 333 20163 59006;
0096832360999991998062018004-12150-045000FM-12+044099999V0200901N00151220001CN0200001N1+03421+01471100991ADDAA106000091AG10000GF104991041021008001001001MA1999999096111MD1999999-0081REMSYN011 333 59008;
0131832360999991998062112004-12150-045000FM-12+044099999V0209991C00001220001CN0500001N1+02481+01431101591ADDAA106000091AG10000GA1001+999999999GF100991001001999999001001KA1240N+01571MA1999999096651MD1999999+0061REMSYN017 333 20157 58006;
0112832360999991998062118004-12150-045000FM-12+044099999V0201401N00511220001CN0500001N1+03371+00901101131ADDAA106000091AG10000GA1001+999999999GF100991001001999999001001MA1999999096241MD1999999+0131REMSYN011 333 58013;
0115832360999991998062212004-12150-045000FM-12+044099999V0209991C00001220001CN0500001N1+02221+01461101571ADDAA106000091AG10000GF101991001001999999001021KA1240N+01491MA1999999096611MD1999999-0041REMSYN017 333 20149 59004;
0112832360999991998062218004-12150-045000FM-12+044099999V0201401N00411220001CN0500001N1+02391+00831100971ADDAA106000091AG10000GA1001+999999999GF100991001001999999001001MA1999999096081MD1999999-0161REMSYN011 333 59016;
0131832360999991998062312004-12150-045000FM-12+044099999V0209991C00001220001CN0500001N1+02331+01501101631ADDAA106000091AG10000GA1001+999999999GF100991001001999999001001KA1240N+01481MA1999999096671MD1999999+0061REMSYN017 333 20148 58006;
0096832360999991998062318004-12150-045000FM-12+044099999V0209991C00001220001CN0500001N1+03301+00861101831ADDAA106000091AG10000GF102991021001012501001001MA1999999096141MD1999999+0061REMSYN011 333 58006;
0115832360999991998062412004-12150-045000FM-12+044099999V0209991C00001220001CN0500001N1+02371+01611101641ADDAA106000091AG10000GF103991031021012501001001KA1240N+01511MA1999999096691MD1999999+0021REMSYN017 333 20151 58002;
0096832360999991998062418004-12150-045000FM-12+044099999V0200501N00151220001CN0500001N1+03091+01521101171ADDAA106000091AG10000GF104991041021008001001001MA1999999096241MD1999999+0101REMSYN011 333 58010;
0115832360999991998062512004-12150-045000FM-12+044099999V0209991C00001220001CN0500001N1+02251+01571101691ADDAA106000091AG10000GF102991021021012501001001KA1240N+01511MA1999999096711MD1999999+0021REMSYN017 333 20151 58002;
0096832360999991998062518004-12150-045000FM-12+044099999V0209991C00001220001CN0500001N1+03271+00941101151ADDAA106000091AG10000GF104991041021008001001001MA1999999096521MD1999999+0011REMSYN011 333 58001;
0115832360999991998062612004-12150-045000FM-12+044099999V0209991C00001220001CN0500001N1+02211+01461101591ADDAA106000091AG10000GF102991021001022501061001KA1240N+01541MA1999999096631MD1999999-0081REMSYN017 333 20154 59008;
0096832360999991998062618004-12150-045000FM-12+044099999V0200501N00311220001CN0200001N1+03341+01351101141ADDAA106000091AG10000GF104991041021008001001001MA1999999096231MD1999999-0021REMSYN011 333 59002;
0131832360999991998062712004-12150-045000FM-12+044099999V0209991C00001220001CN0500001N1+02331+01701101811ADDAA106000091AG10000GA1001+999999999GF100991001001999999001001KA1240N+01711MA1999999096841MD1999999+0211REMSYN017 333 20171 58021;
0096832360999991998062718004-12150-045000FM-12+044099999V0201801N00101007501CN0200001N1+03291+01441101281ADDAA106000091AG10000GF105991051021008001001001MA1999999096381MD1999999+0151REMSYN011 333 58015;
0131832360999991998062812004-12150-045000FM-12+044099999V0201801N00151220001CN0500001N1+02351+01601101821ADDAA106000091AG10000GA1001+999999999GF100991001001999999001001KA1240N+01601MA1999999096861MD1999999+0021REMSYN017 333 20160 58002;
0096832360999991998062818004-12150-045000FM-12+044099999V0200901N00311105001CN0200001N1+03191+01491101271ADDAA106000091AG10000GF105991041021008001001021MA1999999096341MD1999999-0041REMSYN011 333 59004;
0131832360999991998062912004-12150-045000FM-12+044099999V0201801N00211220001CN0500001N1+02231+01331101921ADDAA106000091AG10000GA1001+999999999GF100991001001999999001001KA1240N+01641MA1999999096961MD1999999+0101REMSYN017 333 20164 58010;
0112832360999991998062918004-12150-045000FM-12+044099999V0201401N00211220001CN0500001N1+03111+01281101381ADDAA106000091AG10000GA1001+999999999GF100991001001999999001001MA1999999096451MD1999999+0111REMSYN011 333 58011;
0115832360999991998063012004-12150-045000FM-12+044099999V0209991C00001220001CN0500001N1+02071+01311101951ADDAA106000091AG10000GF103991001001999999001061KA1240N+01341MA1999999096951MD1999999-0011REMSYN017 333 20134 59001;
0096832360999991998063018004-12150-045000FM-12+044099999V0201801N00261220001CN0200001N1+03071+01251101361ADDAA106000091AG10000GF103991001001999999001091MA1999999096401MD1999999-0051REMSYN011 333 59005;
0115832360999991998070112004-12150-045000FM-12+044099999V0202701N00051220001CN0500001N1+02171+01431101821ADDAA106000091AG10000GF102991021001022501041001KA1240N+01351MA1999999096831MD1999999-0121REMSYN017 333 20135 59012;
0096832360999991998070118004-12150-045000FM-12+044099999V0200501N00361220001CN0200001N1+03201+01511101271ADDAA106000091AG10000GF104991041021008001001001MA1999999096341MD1999999-0061REMSYN011 333 59006;
0131832360999991998070212004-12150-045000FM-12+044099999V0201801N00151220001CN0500001N1+02371+01731101681ADDAA106000091AG10000GA1001+999999999GF100991001001999999001001KA1240N+01971MA1999999096741MD1999999-0091REMSYN017 333 20197 59009;
0115832360999991998070312004-12150-045000FM-12+044099999V0209991C00001220001CN0500001N1+02451+01761101571ADDAA106000091AG10000GF103991031001022501061001KA1240N+01871MA1999999096641MD1999999-0101REMSYN017 333 20187 59010;
0096832360999991998070318004-12150-045000FM-12+044099999V0201401N00461012001CN0200001N1+03071+01771101101ADDAA106000091AG10000GF107991071081008001001001MA1999999096201MD1999999-0101REMSYN011 333 59010;
0115832360999991998070412004-12150-045000FM-12+044099999V0202301N00101220001CN0500001N1+02471+01661101591ADDAA106000091AG10000GF102991021011008001001001KA1240N+01871MA1999999096661MD1999999+0021REMSYN017 333 20187 58002;
0096832360999991998070418004-12150-045000FM-12+044099999V0200901N00461220001CN0200001N1+03261+01331101131ADDAA106000091AG10000GF104991041021008001001001MA1999999096241MD1999999+0041REMSYN011 333 58004;
0115832360999991998070512004-12150-045000FM-12+044099999V0201401N00211220001CN0500001N1+02391+01481101641ADDAA106000091AG10000GF103991001001999999001041KA1240N+01851MA1999999096701MD1999999+0041REMSYN017 333 20185 58004;
0096832360999991998070518004-12150-045000FM-12+044099999V0203601N00211220001CN0500001N1+03371+01311100981ADDAA106000091AG10000GF103991031011008001001001MA1999999096121MD1999999-0121REMSYN011 333 59012;
0115832360999991998070612004-12150-045000FM-12+044099999V0203201N00051220001CN0500001N1+02191+01391101651ADDAA106000091AG10000GF103991001001999999001081KA1240N+01621MA1999999096671MD1999999-0031REMSYN017 333 20162 59003;
0096832360999991998070618004-12150-045000FM-12+044099999V0202301N00101220001CN0500001N1+03301+01411101031ADDAA106000091AG10000GF102991021011008001001001MA1999999096131MD1999999+0011REMSYN011 333 58001;
0096832360999991998070718004-12150-045000FM-12+044099999V0200901N00211220001CN0500001N1+03291+00691100931ADDAA106000091AG10000GF104991021011012501001081MA1999999096041MD1999999-0091REMSYN011 333 59009;
0115832360999991998070812004-12150-045000FM-12+044099999V0209991C00001220001CN0500001N1+02121+01291101501ADDAA106000091AG10000GF104991001001999999001081KA1240N+01281MA1999999096531MD1999999-0021REMSYN017 333 20128 59002;
0096832360999991998070818004-12150-045000FM-12+044099999V0202301N00101105001CN0500001N1+03321+00721100951ADDAA106000091AG10000GF105991031021008001001071MA1999999096061MD1999999+0021REMSYN011 333 58002;
0115832360999991998070912004-12150-045000FM-12+044099999V0209991C00001220001CN0500001N1+02291+01411101541ADDAA106000091AG10000GF102991021021012501001001KA1240N+01571MA1999999096581MD1999999+0051REMSYN017 333 20157 58005;
0096832360999991998070918004-12150-045000FM-12+044099999V0209991C00001220001CN0500001N1+03441+01031100991ADDAA106000091AG10000GF104991041021008001001001MA1999999096121MD1999999+0061REMSYN011 333 58006;
0115832360999991998071012004-12150-045000FM-12+044099999V0209991C00001220001CN0500001N1+02401+01411101561ADDAA106000091AG10000GF103991001001999999001081KA1240N+01551MA1999999096611MD1999999-0031REMSYN017 333 20155 59003;
0096832360999991998071018004-12150-045000FM-12+044099999V0203201N00101220001CN0500001N1+03491+01251101051ADDAA106000091AG10000GF104991041021008001001001MA1999999096171MD1999999+0051REMSYN011 333 58005;
0115832360999991998071112004-12150-045000FM-12+044099999V0209991C00001045001CN0200001N1+02551+01511101721ADDAA106000091AG10000GF106991041021008001051071KA1240N+02011MA1999999096781MD1999999+0171REMSYN017 333 20201 58017;
0096832360999991998071118004-12150-045000FM-12+044099999V0200901N00361045001CN0200001N1+03431+01411101231ADDAA106000091AG10000GF105991041021008001071081MA1999999096341MD1999999+0171REMSYN011 333 58017;
0115832360999991998071212004-12150-045000FM-12+044099999V0209991C00001220001CN0500001N1+02451+01611101771ADDAA106000091AG10000GF104991001001999999001081KA1240N+01991MA1999999096831MD1999999+0051REMSYN017 333 20199 58005;
0096832360999991998071218004-12150-045000FM-12+044099999V0201401N00211105001CN0200001N1+03251+01411101291ADDAA106000091AG10000GF105991041021008001001071MA1999999096401MD1999999+0061REMSYN011 333 58006;
0115832360999991998071312004-12150-045000FM-12+044099999V0201401N00151220001CN0500001N1+02311+01461101851ADDAA106000091AG10000GF103991001001999999001081KA1240N+01701MA1999999096881MD1999999+0051REMSYN017 333 20170 58005;
0096832360999991998071318004-12150-045000FM-12+044099999V0201801N00311220001CN0500001N1+03221+01141101221ADDAA106000091AG10000GF102991021021012501001001MA1999999096311MD1999999-0091REMSYN011 333 59009;
0096832360999991998071418004-12150-045000FM-12+044099999V0209991C00001220001CN0500001N1+03191+00991101191ADDAA106000091AG10000GF101991011021012501001001MA1999999096281MD1999999-0031REMSYN011 333 59003;
0115832360999991998071512004-12150-045000FM-12+044099999V0209991C00001105001CN0200001N1+02271+01011101681ADDAA106000091AG10000GF106991031001022501061081KA1240N+01371MA1999999096721MD1999999-0041REMSYN017 333 20137 59004;
0096832360999991998071518004-12150-045000FM-12+044099999V0203101N00101220001CN0500001N1+03291+00861101121ADDAA106000091AG10000GF103991021021012501001061MA1999999096221MD1999999-0061REMSYN011 333 59006;
0131832360999991998071712004-12150-045000FM-12+044099999V0200501N00211220001CN0500001N1+02601+01571101491ADDAA106000091AG10000GA1001+999999999GF100991001001999999001001KA1240N+01751MA1999999096561MD1999999-0121REMSYN017 333 20175 59012;
0096832360999991998071718004-12150-045000FM-12+044099999V0200501N00151007501CN0200001N1+03431+01141100931ADDAA106000091AG10000GF106991051021008001001051MA1999999096051MD1999999-0101REMSYN011 333 59010;
0115832360999991998071812004-12150-045000FM-12+044099999V0200501N00361220001CN0500001N1+02611+01631101531ADDAA106000091AG10000GF102991011001022501071051KA1240N+01831MA1999999096601MD1999999+0041REMSYN017 333 20183 58004;
0131832360999991998071912004-12150-045000FM-12+044099999V0200501N00151220001CN0500001N1+02611+01481101571ADDAA106000091AG10000GA1001+999999999GF100991001001999999001001KA1240N+01811MA1999999096641MD1999999+0041REMSYN017 333 20181 58004;
0096832360999991998071918004-12150-045000FM-12+044099999V0200901N00211007501CN0200001N1+03521+01031100951ADDAA106000091AG10000GF106991061021008001001001MA1999999096081MD1999999-0071REMSYN011 333 59007;
0131832360999991998072012004-12150-045000FM-12+044099999V0209991C00001220001CN0500001N1+02571+01561101611ADDAA106000091AG10000GA1001+999999999GF100991001001999999001001KA1240N+01631MA1999999096681MD1999999+0041REMSYN017 333 20163 58004;
0096832360999991998072118004-12150-045000FM-12+044099999V0201401N00361220001CN0500001N1+03401+00991101051ADDAA106000091AG10000GF103991031021008001001001MA1999999096161MD1999999+0001REMSYN011 333 58000;
0153832360999991998072212004-12150-045000FM-12+044099999V0209991C00001220001CN0200001N1+02251+01291101491ADDAA106000091AG10000AY101061AY221061GA1001+999999999GF100991001001999999001001KA1240N+01491MA1999999096541MD1999999-0081MW1051REMSYN017 333 20149 59008;
0118832360999991998072218004-12150-045000FM-12+044099999V0202301N00101220001CN0200001N1+03351+01241100891ADDAA106000091AG10000AY101061AY221061GF103991031011008001001001MA1999999095991MD1999999-0171MW1051REMSYN011 333 59017;
0153832360999991998072312004-12150-045000FM-12+044099999V0209991C00001220001CN0200001N1+02291+01361101481ADDAA106000091AG10000AY101061AY221061GA1001+999999999GF100991001001999999001001KA1240N+01501MA1999999096531MD1999999-0011MW1051REMSYN017 333 20150 59001;
0096832360999991998072318004-12150-045000FM-12+044099999V0200501N00101220001CN0200001N1+03401+01181100911ADDAA106000091AG10000GF104991041021008001001001MA1999999096021MD1999999+0031REMSYN011 333 58003;
0131832360999991998072412004-12150-045000FM-12+044099999V0200901N00311220001CN0500001N1+02491+01371101641ADDAA106000091AG10000GA1001+999999999GF100991001001999999001001KA1240N+01861MA1999999096711MD1999999+0181REMSYN017 333 20186 58018;
0134832360999991998072418004-12150-045000FM-12+044099999V0201401N00721220001CN0200001N1+03211+01011101151ADDAA106000091AG10000AY101061AY221061GA1001+999999999GF100991001001999999001001MA1999999096261MD1999999+0241MW1051REMSYN011 333 58024;
0115832360999991998072512004-12150-045000FM-12+044099999V0202301N00051220001CN0500001N1+02231+01331101661ADDAA106000091AG10000GF102991021001022501081001KA1240N+01581MA1999999096691MD1999999-0021REMSYN017 333 20158 59002;
0115832360999991998072612004-12150-045000FM-12+044099999V0201801N00151220001CN0500001N1+02211+01581101581ADDAA106000091AG10000GF103991001001999999001071KA1240N+01731MA1999999096621MD1999999-0071REMSYN017 333 20173 59007;
0096832360999991998072618004-12150-045000FM-12+044099999V0203201N00101220001CN0500001N1+03211+01231101061ADDAA106000091AG10000GF103991031021008001001001MA1999999096171MD1999999-0031REMSYN011 333 59003;
0137832360999991998072712004-12150-045000FM-12+044099999V0209991C00001220001CN0500001N1+02381+01281101611ADDAA106000091AG10000AY101061AY221061GF101991001001999999001081KA1240N+01401MA1999999096661MD1999999+0041MW1051REMSYN017 333 20140 58004;
0131832360999991998072812004-12150-045000FM-12+044099999V0209991C00001220001CN0500001N1+02231+01331101671ADDAA106000091AG10000GA1001+999999999GF100991001001999999001001KA1240N+01421MA1999999096701MD1999999+0041REMSYN017 333 20142 58004;
0096832360999991998072818004-12150-045000FM-12+044099999V0201401N00151220001CN0500001N1+03451+01271101081ADDAA106000091AG10000GF101991011011008001001001MA1999999096171MD1999999-0031REMSYN011 333 59003;
0115832360999991998072912004-12150-045000FM-12+044099999V0202301N00051220001CN0500001N1+02301+01321101681ADDAA106000091AG10000GF102991001001999999001011KA1240N+01591MA1999999096721MD1999999+0021REMSYN017 333 20159 58002;
0096832360999991998072918004-12150-045000FM-12+044099999V0201401N00101220001CN0200001N1+03351+01491101161ADDAA106000091AG10000GF104991001001999999001061MA1999999096261MD1999999-0091REMSYN011 333 59009;
0096832360999991998073018004-12150-045000FM-12+044099999V0201401N00361220001CN0200001N1+03471+00911101011ADDAA106000091AG10000GF104991001001999999001051MA1999999096101MD1999999-0061REMSYN011 333 59006;
0137832360999991998073112004-12150-045000FM-12+044099999V0201401N00101220001CN0200001N1+02391+01391101761ADDAA106000091AG10000AY101061AY221061GF103991001001999999001041KA1240N+01831MA1999999096801MD1999999+0181MW1051REMSYN017 333 20183 58018;
0115832360999991998080112004-12150-045000FM-12+044099999V0203601N00051220001CN0500001N1+02331+01631101781ADDAA106000091AG10000GF102991021011008001001001KA1240N+01691MA1999999096801MD1999999+0001REMSYN017 333 20169 58000;
0096832360999991998080118004-12150-045000FM-12+044099999V0201401N00311220001CN0200001N1+03131+01391101171ADDAA106000091AG10000GF104991041021008001001001MA1999999096251MD1999999+0021REMSYN011 333 58002;
0137832360999991998080212004-12150-045000FM-12+044099999V0209991C00001220001CN0200001N1+02251+01621101731ADDAA106000091AG10000AY101061AY241061GF102991999999999999999999KA1240N+01671MA1999999096761MD1999999-0041MW1051REMSYN017 333 20167 59004;
0118832360999991998080218004-12150-045000FM-12+044099999V0203601N00261220001CN0100001N1+03311+01461101071ADDAA106000091AG10000AY101061AY241061GF101991011011008001001001MA1999999096171MD1999999-0081MW1051REMSYN011 333 59008;
0137832360999991998080312004-12150-045000FM-12+044099999V0203601N00261220001CN0100001N1+02411+01551101561ADDAA106000091AG10000AY101061AY241061GF103991001001999999001081KA1240N+01671MA1999999096611MD1999999-0151MW1051REMSYN017 333 20167 59015;
0118832360999991998080318004-12150-045000FM-12+044099999V0201801N00151220001CN0100001N1+03411+01401100971ADDAA106000091AG10000AY101061AY241061GF104991041021008001001001MA1999999096091MD1999999-0081MW1051REMSYN011 333 59008;
0137832360999991998080412004-12150-045000FM-12+044099999V0200501N00311220001CN0100001N1+02491+01621101551ADDAA106000091AG10000AY101061AY241061GF105991001001999999001061KA1240N+01831MA1999999096621MD1999999+0011MW1051REMSYN017 333 20183 58001;
0118832360999991998080418004-12150-045000FM-12+044099999V0200901N00211045001CN0100001N1+03271+01331101041ADDAA106000091AG10000AY101061AY241061GF107991021011008001021001MA1999999096151MD1999999+0061MW1051REMSYN011 333 58006;
0137832360999991998080512004-12150-045000FM-12+044099999V0202301N00051105001CN0100001N1+02331+01531101561ADDAA106000091AG10000AY101061AY241061GF105991011011008001001051KA1240N+01541MA1999999096611MD1999999-0011MW1051REMSYN017 333 20154 59001;
0118832360999991998080518004-12150-045000FM-12+044099999V0200501N00411220001CN0100001N1+03311+01041100951ADDAA106000091AG10000AY101061AY241061GF106991011011008001001061MA1999999096061MD1999999-0091MW1051REMSYN011 333 59009;
0137832360999991998080612004-12150-045000FM-12+044099999V0209991C00001220001CN0100001N1+02191+01561101511ADDAA106000091AG10000AY101061AY241061GF106991021001022501081061KA1240N+01531MA1999999096541MD1999999-0071MW1051REMSYN017 333 20153 59007;
0118832360999991998080618004-12150-045000FM-12+044099999V0203601N003112200019N0100001N1+03481+01361100861ADDAA106000091AG10000AY101061AY241061GF106991011011008001001061MA1999999095981MD1999999-0081MW1051REMSYN011 333 59008;
0137832360999991998080712004-12150-045000FM-12+044099999V0200501N00101220001CN0200001N1+02471+01611101401ADDAA106000091AG10000AY101061AY241061GF102991021011008001001001KA1240N+01671MA1999999096471MD1999999-0071MW1051REMSYN017 333 20167 59007;
0118832360999991998080718004-12150-045000FM-12+044099999V0200501N00211007501CN0100001N1+03531+01391100781ADDAA106000091AG10000AY101061AY241061GF105991051021008001001001MA1999999095931MD1999999-0051MW1051REMSYN011 333 59005;
0153832360999991998080812004-12150-045000FM-12+044099999V0200501N00311220001CN0200001N1+02591+01491101511ADDAA106000091AG10000AY101061AY241061GA1001+999999999GF100991001001999999001001KA1240N+01731MA1999999096581MD1999999+0111MW1051REMSYN017 333 20173 58011;
0118832360999991998080818004-12150-045000FM-12+044099999V0201401N00151220001CN0200001N1+03581+01331100931ADDAA106000091AG10000AY101061AY241061GF104991041021008001001001MA1999999096071MD1999999+0141MW1051REMSYN011 333 58014;
0137832360999991998080912004-12150-045000FM-12+044099999V0200501N00211220001CN0200001N1+02651+01661101431ADDAA106000091AG10000AY101061AY241061GF102991001001999999001071KA1240N+01711MA1999999096521MD1999999-0061MW1051REMSYN017 333 20171 59006;
0118832360999991998080918004-12150-045000FM-12+044099999V0203201N00101007501CN0200001N1+03551+01461100851ADDAA106000091AG10000AY101061AY241061GF105991051021008001001001MA1999999095991MD1999999-0081MW1051REMSYN011 333 59008;
0137832360999991998081012004-12150-045000FM-12+044099999V0200501N00101220001CN0200001N1+02711+01411101411ADDAA106000091AG10000AY101061AY241061GF102991001001999999001071KA1240N+01731MA1999999096511MD1999999-0011MW1051REMSYN017 333 20173 59001;
0118832360999991998081018004-12150-045000FM-12+044099999V0202301N00101220001CN0200001N1+02571+01371100831ADDAA106000091AG10000AY101061AY241061GF105991041021008001001061MA1999999095991MD1999999+0001MW1051REMSYN011 333 58000;
0115832360999991998081112004-12150-045000FM-12+044099999V0209991C00001007501CN0200001N1+02181+01611101461ADDAA106000091AG10000GF107991051021008001061051KA1240N+01711MA1999999096511MD1999999+0001REMSYN017 333 20171 58000;
0118832360999991998081118004-12150-045000FM-12+044099999V0203601N00101007501CN0200001N1+03461+01291100911ADDAA106000091AG10000AY101061AY241061GF107991061021008001071051MA1999999096041MD1999999+0051MW1051REMSYN011 333 58005;
0137832360999991998081212004-12150-045000FM-12+044099999V0203601N00511045001CN0500001N1+02831+01831101461ADDAA106000091AG10000AY101061AY241061GF105991031021008001071081KA1240N+02191MA1999999096571MD1999999+0061MW1051REMSYN017 333 20219 58006;
0096832360999991998081218004-12150-045000FM-12+044099999V0203601N00361007501CN0200001N1+03221+01611101011ADDAA106000091AG10000GF107991051041008001081051MA1999999096171MD1999999+0131REMSYN011 333 58013;
0137832360999991998081312004-12150-045000FM-12+044099999V0200501N00311220001CN0200001N1+02711+01661101531ADDAA106000091AG10000AY101061AY241061GF103991001001999999001071KA1240N+01851MA1999999099621MD1999999+0051MW1051REMSYN017 333 20185 58005;
0137832360999991998081318004-12150-045000FM-12+044099999V0200901N00361220001CN0200001N1+03611+01221100881ADDAA106000091AG10000AY101061AY241061GF102991001001999999001081MA1999999096042MD1999999-0131MW1051REMSYN011 333 59013;EQDQ01+096043APOSP 
0137832360999991998081412004-12150-045000FM-12+044099999V0209991C00001220001CN0200001N1+02511+01321101491ADDAA106000091AG10000AY101061AY241061GF103991001001999999001081KA1240N+01501MA1999999096551MD1999999-0071MW1051REMSYN017 333 20150 59007;
0153832360999991998081512004-12150-045000FM-12+044099999V0209991C00001220001CN0200001N1+02471+01521101591ADDAA106000091AG10000AY101061AY241061GA1001+999999999GF100991001001999999001001KA1240N+01691MA1999999096651MD1999999+0101MW1051REMSYN017 333 20169 58010;
0118832360999991998081518004-12150-045000FM-12+044099999V0200501N00261220001CN0200001N1+03531+01391100951ADDAA106000091AG10000AY101061AY241061GF103991031021012501001001MA1999999096091MD1999999+0021MW1051REMSYN011 333 58002;
0153832360999991998081712004-12150-045000FM-12+044099999V0200501N00461220001CN0200001N1+02611+01601101531ADDAA106000091AG10000AY101061AY241061GA1001+999999999GF100991001001999999001001KA1240N+01811MA1999999096611MD1999999-0101MW1051REMSYN017 333 20181 59010;
0118832360999991998081718004-12150-045000FM-12+044099999V0201401N00151220001CN0200001N1+03411+01181100851ADDAA106000091AG10000AY101061AY241061GF101991011011012501001001MA1999999095971MD1999999-0131MW1051REMSYN011 333 59013;
0137832360999991998081812004-12150-045000FM-12+044099999V0209991C00001220001CN0200001N1+02531+01431101371ADDAA106000091AG10000AY101061AY241061GF102991001001999999001071KA1240N+01581MA1999999096461MD1999999-0281MW1051REMSYN017 333 20158 59028;
0137832360999991998081912004-12150-045000FM-12+044099999V0209991C00001220001CN0200001N1+02391+01561101291ADDAA106000091AG10000AY101061AY241061GF103991001001999999001081KA1240N+01551MA1999999096361MD1999999+0101MW1051REMSYN017 333 20155 58010;
0118832360999991998081918004-12150-045000FM-12+044099999V0201401N00151220001CN0200001N1+03471+01041100721ADDAA106000091AG10000AY101061AY241061GF102991021011012501001001MA1999999095861MD1999999+0011MW1051REMSYN011 333 58001;
0153832360999991998082012004-12150-045000FM-12+044099999V0209991C00001220001CN0200001N1+02471+01521101441ADDAA106000091AG10000AY101061AY241061GA1001+999999999GF100991001001999999001001KA1240N+01611MA1999999096521MD1999999+0161MW1051REMSYN017 333 20161 58016;
0103832360999991998082018004-12150-045000FM-12+044099999V0200901N00311220001CN0200001N1+03591+00961100791ADDAA106000091AG10000AY101061AY241061GF102991021021008001001001MD1999999+0091MW1051REMSYN011 333 58009;
0137832360999991998082112004-12150-045000FM-12+044099999V0209991C00001220001CN0200001N1+02481+01491101521ADDAA106000091AG10000AY101061AY241061GF102991001001999999001071KA1240N+01671MA1999999096591MD1999999+0071MW1051REMSYN017 333 20167 58007;
0118832360999991998082118004-12150-045000FM-12+044099999V0200901N00411220001CN0200001N1+03541+00661100961ADDAA106000091AG10000AY101061AY241061GF102991001001999999001081MA1999999096101MD1999999+0151MW1051REMSYN011 333 58015;
0153832360999991998082212004-12150-045000FM-12+044099999V0209991C00001220001CN0200001N1+02451+01421101621ADDAA106000091AG10000AY101061AY241061GA1001+999999999GF100991001001999999001001KA1240N+01511MA1999999096681MD1999999+0091MW1051REMSYN017 333 20151 58009;
0134832360999991998082218004-12150-045000FM-12+044099999V0200501N00361220001CN0200001N1+03341+00751100991ADDAA106000091AG10000AY101061AY241061GA1001+999999999GF100991001001999999001001MA1999999096131MD1999999+0031MW1051REMSYN011 333 58003;
0131832360999991998082312004-12150-045000FM-12+044099999V0201401N00361220001CN0500001N1+02571+01241101391ADDAA106000091AG10000GA1001+999999999GF100991001001999999001001KA1240N+01771MA1999999096471MD1999999-0211REMSYN017 333 20177 59021;
0112832360999991998082318004-12150-045000FM-12+044099999V0200501N00361220001CN0200001N1+03451+01031100841ADDAA106000091AG10000GA1001+999999999GF100991001001999999001001MA1999999095971MD1999999-0161REMSYN011 333 59016;
0153832360999991998082412004-12150-045000FM-12+044099999V0203601N00101220001CN0100001N1+02391+01011101511ADDAA106000091AG10000AY101061AY241061GA1001+999999999GF100991001001999999001001KA1240N+01461MA1999999096561MD1999999-0091MW1051REMSYN017 333 20146 59009;
0153832360999991998082512004-12150-045000FM-12+044099999V0209991C00001220001CN0100001N1+02401+01231101431ADDAA106000091AG10000AY101061AY241061GA1001+999999999GF100991001001999999001001KA1240N+01501MA1999999096511MD1999999-0051MW1051REMSYN017 333 20150 59005;
0134832360999991998082518004-12150-045000FM-12+044099999V0201401N00311220001CN0100001N1+03391+00911100921ADDAA106000091AG10000AY101061AY241061GA1001+999999999GF100991001001999999001001MA1999999096031MD1999999+0061MW1051REMSYN011 333 58006;
0153832360999991998082612004-12150-045000FM-12+044099999V0203601N00101220001CN0100001N1+02451+01141101321ADDAA106000091AG10000AY101061AY241061GA1001+999999999GF100991001001999999001001KA1240N+01451MA1999999096381MD1999999-0131MW1041REMSYN017 333 20145 59013;
0153832360999991998082712004-12150-045000FM-12+044099999V0209991C00001220001CN0040001N1+02351+01301101281ADDAA106000091AG10000AY101061AY241061GA1001+999999999GF100991001001999999001001KA1240N+01421MA1999999096351MD1999999-0031MW1041REMSYN017 333 20142 59003;
0118832360999991998082718004-12150-045000FM-12+044099999V0202701N00151220001CN0040001N1+03521+00891100691ADDAA106000091AG10000AY101061AY241061GF102991021011008001001001MA1999999095821MD1999999-0061MW1041REMSYN011 333 59006;
0153832360999991998082812004-12150-045000FM-12+044099999V0209991C00001220001CN0040001N1+02631+01301101211ADDAA106000091AG10000AY101061AY241061GA1001+999999999GF100991001001999999001001KA1240N+01551MA1999999096321MD1999999-0031MW1041REMSYN017 333 20155 59003;
0134832360999991998082818004-12150-045000FM-12+044099999V0201401N00311220001CN0040001N1+03601+00871100711ADDAA106000091AG10000AY101061AY241061GA1001+999999999GF100991001001999999001001MA1999999095841MD1999999+0021MW1041REMSYN011 333 58002;
0153832360999991998082912004-12150-045000FM-12+044099999V0200501N00101220001CN0040001N1+02551+01261101591ADDAA106000091AG10000AY101061AY241061GA1001+999999999GF100991001001999999001001KA1240N+01501MA1999999096661MD1999999+0341MW1041REMSYN017 333 20150 58034;
0118832360999991998082918004-12150-045000FM-12+044099999V0203601N00101007501CN0040001N1+03381+01431101071ADDAA106000091AG10000AY101061AY241061GF106991061021008001001001MA1999999096171MD1999999+0331MW1041REMSYN011 333 58033;
0153832360999991998083012004-12150-045000FM-12+044099999V0203601N00051220001CN0100001N1+02571+01591101581ADDAA106000091AG10000AY101061AY241061GA1001+999999999GF100991001001999999001001KA1240N+01791MA1999999096651MD1999999+0011MW1051REMSYN017 333 20179 58001;
0153832360999991998083112004-12150-045000FM-12+044099999V0209991C00001220001CN0040001N1+02551+01361101631ADDAA106000091AG10000AY101061AY241061GA1001+999999999GF100991001001999999001001KA1240N+01631MA1999999096701MD1999999+0051MW1041REMSYN017 333 20163 58005;
0118832360999991998083118004-12150-045000FM-12+044099999V0201801N00261220001CN0040001N1+03491+01301101001ADDAA106000091AG10000AY101061AY241061GF104991041021008001001001MA1999999096151MD1999999+0061MW1041REMSYN011 333 58006;
0137832360999991998090112004-12150-045000FM-12+044099999V0200901N00511220001CN0100001N1+02751+01611101561ADDAA106000091AG10000AY101061AY241061GF102991021011008001001001KA1240N+02151MA1999999096661MD1999999-0041MW1051REMSYN017 333 20215 59004;
0118832360999991998090118004-12150-045000FM-12+044099999V0201401N00461220001CN0100001N1+03431+01071100861ADDAA106000091AG10000AY101061AY241061GF104991041021008001001001MA1999999096031MD1999999-0121MW1051REMSYN011 333 59012;
0115832360999991998090212004-12150-045000FM-12+044099999V0201401N00461220001CN0200001N1+02541+01571101601ADDAA106000091AG10000GF103991031021008001001001KA1240N+01991MA1999999096681MD1999999+0021REMSYN017 333 20199 58002;
0118832360999991998090218004-12150-045000FM-12+044099999V0200901N00361007501CN0200001N1+03371+01021100871ADDAA106000091AG10000AY101061AY221061GF105991051021008001001001MA1999999096031MD1999999+0001MW1051REMSYN011 333 58000;
0153832360999991998090312004-12150-045000FM-12+044099999V0203201N00101220001CN0100001N1+02521+01521101571ADDAA106000091AG10000AY101061AY241061GA1001+999999999GF100991001001999999001001KA1240N+01761MA1999999096641MD1999999-0041MW1051REMSYN017 333 20176 59004;
0096832360999991998090318004-12150-045000FM-12+044099999V0200901N00151220001CN0100001N1+03341+01241100931ADDAA106000091AG10000GF104991041021008001001001MA1999999096061MD1999999+0031REMSYN011 333 58003;
0118832360999991998090418004-12150-045000FM-12+044099999V0201401N00151220001CN0100001N1+03411+01181100791ADDAA106000091AG10000AY101061AY241061GF104991041021008001001001MA1999999095931MD1999999-0131MW1051REMSYN011 333 59013;
0118832360999991998090818004-12150-045000FM-12+044099999V0201401N00261220001CN0040001N1+03731+01051100531ADDAA106000091AG10000AY101061AY241061GF102991001001999999001031MA1999999095721MD1999999-0031MW1051REMSYN011 333 59003;
0153832360999991998090912004-12150-045000FM-12+044099999V0200501N00361220001CN0040001N1+02791+01411101241ADDAA106000091AG10000AY101061AY241061GA1001+999999999GF100991001001999999001001KA1240N+01731MA1999999096361MD1999999+0031MW1051REMSYN017 333 20173 58003;
0118832360999991998090918004-12150-045000FM-12+044099999V0209991C00001220001CN0040001N1+03751+01211100651ADDAA106000091AG10000AY101061AY241061GF103991031021012501001001MA1999999095831MD1999999+0111MW1051REMSYN011 333 58011;
0137832360999991998091012004-12150-045000FM-12+044099999V0203601N00261220001CN0040001N1+02851+01431101291ADDAA106000091AG10000AY101061AY241061GF104991001001999999001031KA1240N+01831MA1999999096431MD1999999+0071MW1051REMSYN017 333 20183 58007;
0118832360999991998091018004-12150-045000FM-12+044099999V0201401N00101220001CN0040001N1+03781+01311100701ADDAA106000091AG10000AY101061AY241061GF103991011021012501001031MA1999999095881MD1999999+0051MW1051REMSYN011 333 58005;
0115832360999991998091112004-12150-045000FM-12+044099999V0200501N00261220001CN0200001N1+02771+01591101321ADDAA106000091AG10000GF104991021011012501041001KA1240N+01891MA1999999096541MD1999999+0111REMSYN017 333 20189 58011;
0118832360999991998091118004-12150-045000FM-12+044099999V0200901N00411220001CN0100001N1+03571+01371100761ADDAA106000091AG10000AY101061AY241061GF101991011011012501001001MA1999999095941MD1999999+0061MW1051REMSYN011 333 58006;
0096832360999991998091218004-12150-045000FM-12+044099999V0200901N00461220001CN0500001N1+03551+01171100641ADDAA106000091AG10000GF103991031021008001001001MA1999999095831MD1999999-0111REMSYN011 333 59011;
0115832360999991998091312004-12150-045000FM-12+044099999V0201801N00151220001CN0500001N1+02731+01521101361ADDAA106000091AG10000GF103991001001999999001031KA1240N+01871MA1999999096481MD1999999+0071REMSYN017 333 20187 58007;
0096832360999991998091318004-12150-045000FM-12+044099999V0203601N00461220001CN0500001N1+03551+01241100731ADDAA106000091AG10000GF104991021021012501001041MA1999999095911MD1999999+0081REMSYN011 333 58008;
0096832360999991998091418004-12150-045000FM-12+044099999V0200901N00311220001CN0200001N1+03731+01051100611ADDAA106000091AG10000GF103991011011012501001081MA1999999095821MD1999999-0091REMSYN011 333 59009;
0150832360999991998091512004-12150-045000FM-12+044099999V0200501N00261220001CN9999999N9+02851+01391101391ADDAA106000091AG10000GA1001+999999999GF100991001001999999001001KA1240N+01801MA1999999096531MD1999999+0081REMSYN017 333 20180 58008;EQDQ01+000002VOVAR 
0118832360999991998091518004-12150-045000FM-12+044099999V0200901N00151220001CN0100001N1+03651+00981100731ADDAA106000091AG10000AY101061AY241061GF102991001001999999001061MA1999999095921MD1999999+0101MW1051REMSYN011 333 58010;
0153832360999991998091612004-12150-045000FM-12+044099999V0203601N00461220001CN0200001N1+02821+01331101281ADDAA106000091AG10000AY101061AY241061GA1001+999999999GF100991001001999999001001KA1240N+01611MA1999999096421MD1999999-0111MW1051REMSYN017 333 20161 59011;
0118832360999991998091618004-12150-045000FM-12+044099999V0202301N00151220001CN0100001N1+03781+00671100641ADDAA106000091AG10000AY101061AY241061GF102991021021012501001001MA1999999095851MD1999999-0071MW1051REMSYN011 333 59007;
0153832360999991998091712004-12150-045000FM-12+044099999V0203601N00511220001CN0100001N1+02831+01131101261ADDAA106000091AG10000AY101061AY241061GA1001+999999999GF100991001001999999001001KA1240N+01631MA1999999096401MD1999999-0021MW1051REMSYN017 333 20163 59002;
0118832360999991998091718004-12150-045000FM-12+044099999V0203601N00211012001CN0100001N1+03811+00691100581ADDAA106000091AG10000AY101061AY241061GF105991051021012501001001MA1999999095791MD1999999-0061MW1051REMSYN011 333 59006;
0137832360999991998091812004-12150-045000FM-12+044099999V0200501N00311045001CN0100001N1+02841+01531101311ADDAA106000091AG10000AY101061AY241061GF105991031021012501071031KA1240N+02051MA1999999096411MD1999999+0011MW1051REMSYN017 333 20205 58001;
0118832360999991998091818004-12150-045000FM-12+044099999V0203601N00361007501CN0100001N1+03561+01131100731ADDAA106000091AG10000AY101061AY241061GF105991051021008001001001MA1999999095941MD1999999+0151MW1051REMSYN011 333 58015;
0153832360999991998091912004-12150-045000FM-12+044099999V0200501N00511220001CN0100001N1+02881+01181101301ADDAA106000091AG10000AY101061AY241061GA1001+999999999GF100991001001999999001001KA1240N+01911MA1999999096441MD1999999+0031MW1051REMSYN017 333 20191 58003;
0134832360999991998091918004-12150-045000FM-12+044099999V0201401N00211220001CN0040001N1+03791+00571100601ADDAA106000091AG10000AY101061AY241061GA1001+999999999GF100991001001999999001001MA1999999095881MD1999999-0131MW1051REMSYN011 333 59013;
0153832360999991998092012004-12150-045000FM-12+044099999V0209991C00001220001CN0040001N1+02671+01031101201ADDAA106000091AG10000AY101061AY241061GA1001+999999999GF100991001001999999001001KA1240N+01531MA1999999096331MD1999999-0111MW1051REMSYN017 333 20153 59011;
0134832360999991998092018004-12150-045000FM-12+044099999V0209991C00001220001CN0040001N1+03871+00531100501ADDAA106000091AG10000AY101061AY241061GA1001+999999999GF100991001001999999001001MA1999999095741MD1999999-0071MW1051REMSYN011 333 59007;
0153832360999991998092112004-12150-045000FM-12+044099999V0203601N00411220001CN0040001N1+02831+01441101091ADDAA106000091AG10000AY101061AY241061GA1001+999999999GF100991001001999999001001KA1240N+01801MA1999999096251MD1999999-0081MW1051REMSYN017 333 20180 59008;
0118832360999991998092118004-12150-045000FM-12+044099999V0203201N00101007501CN0040001N1+03711+01111100461ADDAA106000091AG10000AY101061AY241061GF105991051021008001001001MA1999999095681MD1999999-0061MW1051REMSYN011 333 59006;
0153832360999991998092212004-12150-045000FM-12+044099999V0200501N00411220001CN0040001N1+03031+01211100161ADDAA106000091AG10000AY101061AY241061GA1001+999999999GF100991001001999999001001KA1240N+02291MA1999999096131MD1999999-0121MW1051REMSYN017 333 20229 59012;
0118832360999991998092218004-12150-045000FM-12+044099999V0203601N00311220001CN0040001N1+03751+01141100411ADDAA106000091AG10000AY101061AY241061GF102991021011008001001001MA1999999095631MD1999999-0051MW1051REMSYN011 333 59005;
0153832360999991998092312004-12150-045000FM-12+044099999V0200501N00261220001CN0040001N1+02851+01531101301ADDAA106000091AG10000AY101061AY241061GA1001+999999999GF100991001001999999001001KA1240N+02211MA1999999096451MD1999999+0321MW1051REMSYN017 333 20221 58032;
0118832360999991998092318004-12150-045000FM-12+044099999V0201401N00151220001CN0100001N1+03611+01571100781ADDAA106000091AG10000AY101061AY241061GF104991041021008001001001MA1999999095981MD1999999+0351MW1051REMSYN011 333 58035;
0153832360999991998092412004-12150-045000FM-12+044099999V0200901N00511220001CN0040001N1+02851+01191101591ADDAA106000091AG10000AY101061AY241061GA1001+999999999GF100991001001999999001001KA1240N+01951MA1999999096631MD1999999+0181MW1051REMSYN017 333 20195 58018;
0153832360999991998092512004-12150-045000FM-12+044099999V0200901N00361220001CN0100001N1+02831+01511101461ADDAA106000091AG10000AY101061AY241061GA1001+999999999GF100991001001999999001001KA1240N+01981MA1999999096591MD1999999-0041MW1041REMSYN017 333 20198 59004;
