0134832420999991998010100004-12567-041383FM-12+042799999V0200501N00151220001CN9999999N9+02601+01651100931ADDAA106000091AG10000GF101991011021004501001001KA1240M+03421MA1999999096181MD1999999-0151REMSYN017 333 10342 59015;EQDQ01+000002VOVAR 
0115832420999991998010112004-12567-041383FM-12+042799999V0201801N00051004201CN0040001N1+02461+02131101281ADDAA106000091AG10000GF108991081041004501999999KA1240N+02231MA1999999096501MD1999999-0011REMSYN017 333 20223 59001;
0096832420999991998010118004-12567-041383FM-12+042799999V0201801N00311220001CN0100001N1+03241+01931100751ADDAA106000091AG10000GF102991021011004501001001MA1999999096041MD1999999+0041REMSYN011 333 58004;
0134832420999991998010200004-12567-041383FM-12+042799999V0201801N00051220001CN9999999N9+02781+02161100971ADDAA106000091AG10000GF102991021031004501001001KA1240M+03371MA1999999096221MD1999999+0041REMSYN017 333 10337 58004;EQDQ01+000002VOVAR 
0115832420999991998010212004-12567-041383FM-12+042799999V0201801N00151004201CN0040001N1+02641+02091101311ADDAA106000091AG10000GF107991071031004501001001KA1240N+02141MA1999999096561MD1999999+0061REMSYN017 333 20214 58006;
0096832420999991998010218004-12567-041383FM-12+042799999V0200901N00211220001CN0100001N1+03231+02101100741ADDAA106000091AG10000GF102991021031004501001001MA1999999096021MD1999999-0021REMSYN011 333 59002;
0134832420999991998010300004-12567-041383FM-12+042799999V0203601N00101220001CN9999999N9+02701+02031100771ADDAA106000091AG10000GF102991021041004501001001KA1240M+03321MA1999999096041MD1999999-0181REMSYN017 333 10332 59018;EQDQ01+000002VOVAR 
0115832420999991998010312004-12567-041383FM-12+042799999V0202301N00151004201CN0040001N1+02571+02101101161ADDAA106000091AG10000GF107991051041004501061001KA1240N+02281MA1999999096411MD1999999-0151REMSYN017 333 20228 59015;
0115832420999991998010412004-12567-041383FM-12+042799999V0201801N00101004201CN0040001N1+02481+02151101101ADDAA106000091AG10000GF107991071031004501001001KA1240N+02271MA1999999096361MD1999999-0051REMSYN017 333 20227 59005;
0096832420999991998010418004-12567-041383FM-12+042799999V0200901N00101105001CN0100001N1+03371+02161100481ADDAA106000091AG10000GF108991011011004501001071MA1999999095811MD1999999-0051REMSYN011 333 59005;
0150832420999991998010500004-12567-041383FM-12+042799999V0202701N00151220001CN9999999N9+02771+02131100741ADDAA106000091AG10000GA1001+999999999GF100991001001999999001001KA1240M+03441MA1999999096011MD1999999+0041REMSYN017 333 10344 58004;EQDQ01+000002VOVAR 
0115832420999991998010512004-12567-041383FM-12+042799999V0201801N00151004201CN0040001N1+02521+02071101131ADDAA106000091AG10000GF108991081041004501999999KA1240N+02321MA1999999096381MD1999999+0021REMSYN017 333 20232 58002;
0150832420999991998010600004-12567-041383FM-12+042799999V0200901N00051220001CN9999999N9+02691+02011100701ADDAA106000091AG10000GA1001+999999999GF100991001001999999001001KA1240M+03411MA1999999095961MD1999999-0051REMSYN017 333 10341 59005;EQDQ01+000002VOVAR 
0115832420999991998010612004-12567-041383FM-12+042799999V0201801N00101004201CN0040001N1+02541+02171101171ADDAA106000091AG10000GF108991081031004501999999KA1240N+02221MA1999999096411MD1999999+0031REMSYN017 333 20222 58003;
0096832420999991998010618004-12567-041383FM-12+042799999V0200901N00151220001CN0100001N1+03341+02191100401ADDAA106000091AG10000GF102991011031004501001031MA1999999095831MD1999999-0061REMSYN011 333 59006;
0150832420999991998010700004-12567-041383FM-12+042799999V0209991C00001220001CN9999999N9+02851+02281100651ADDAA106000091AG10000GA1001+999999999GF100991001001999999001001KA1240M+03441MA1999999095931MD1999999-0031REMSYN017 333 10344 59003;EQDQ01+000002VOVAR 
0115832420999991998010712004-12567-041383FM-12+042799999V0203601N00051004201CN0040001N1+02681+02241101041ADDAA106000091AG10000GF107991071031004501001001KA1240N+02401MA1999999096311MD1999999-0101REMSYN017 333 20240 59010;
0096832420999991998010718004-12567-041383FM-12+042799999V0200901N00261105001CN0100001N1+03491+02431100421ADDAA106000091AG10000GF106991041031004501001091MA1999999095771MD1999999-0061REMSYN011 333 59006;
0134832420999991998010800004-12567-041383FM-12+042799999V0201801N00051220001CN9999999N9+02741+02101100621ADDAA106000091AG10000GF102991011031004501001031KA1240M+03501MA1999999095901MD1999999-0031REMSYN017 333 10350 59003;EQDQ01+000002VOVAR 
0124832420999991998010818004-12567-041383FM-12+042799999V0202701N00511004201CN0040001N1+02781+02131100581ADDAA106001091AG10010AY191061AY261061GF108991081071004501999999MA1999999095851MD1999999+0111MW1291REMSYN017 333 58011 69991;
0134832420999991998010900004-12567-041383FM-12+042799999V0200501N00101004201CN9999999N9+02601+02231100781ADDAA106000091AG10000GF108991081071004501999999KA1240M+03391MA1999999096051MD1999999+0151REMSYN017 333 10339 58015;EQDQ01+000002VOVAR 
0121832420999991998010912004-12567-041383FM-12+042799999V0200501N00101045001CN0040001N1+02721+02301101051ADDAA124001091AG10000GF108991031031004501061061KA1240N+02271MA1999999096301MD1999999+0081REMSYN023 333 20227 58008 69994;
0124832420999991998010918004-12567-041383FM-12+042799999V0200901N00311004201CN0040001N1+02551+02191100711ADDAA106011091AG10010AY191061AY261061GF108991081051004501999999MA1999999095951MD1999999+0101MW1031REMSYN017 333 58010 60111;
0134832420999991998011000004-12567-041383FM-12+042799999V0200901N00051045001CN9999999N9+02301+02251100931ADDAA106000091AG10000GF107991041051004501011001KA1240M+03221MA1999999096161MD1999999+0111REMSYN017 333 10322 58011;EQDQ01+000002VOVAR 
0121832420999991998011012004-12567-041383FM-12+042799999V0202301N00051045001CN0040001N1+02651+02201101161ADDAA124011091AG10000GF107991021031004501031011KA1240N+02091MA1999999096381MD1999999+0081REMSYN023 333 20209 58008 60114;
0096832420999991998011018004-12567-041383FM-12+042799999V0201801N00101105001CN0100001N1+03341+02251100691ADDAA106000091AG10000GF107991031031004501001031MA1999999095971MD1999999+0021REMSYN011 333 58002;
0156832420999991998011100004-12567-041383FM-12+042799999V0203601N00101004201CN9999999N9+02811+02241100911ADDAA106999999AG10000GF108991081071004501999999KA1240M+03361MA1999999096191MD1999999+0031MW1951REMSYN017 333 10336 58003;EQDQ01+000002VOVAR Q02  00002PRCP06
0143832420999991998011112004-12567-041383FM-12+042799999V0203601N00051004201CN0040001N1+02361+02191101331ADDAA124014091AG10010AY191061AY261061GF107991051041004501011001KA1240N+02131MA1999999096561MD1999999+0181MW1031REMSYN023 333 20213 58018 60144;
0096832420999991998011118004-12567-041383FM-12+042799999V0201801N00151105001CN0100001N1+03021+02361100941ADDAA106000091AG10000GF106991031031004501001031MA1999999096191MD1999999+0221REMSYN011 333 58022;
0162832420999991998011200004-12567-041383FM-12+042799999V0203601N00101004201CN9999999N9+02511+02341101091ADDAA106000191AG10000AY151061AY221061GF107991071071004501001001KA1240M+03171MA1999999096301MD1999999+0111MW1031REMSYN023 333 10317 58011 69921;EQDQ01+000002VOVAR 
0121832420999991998011212004-12567-041383FM-12+042799999V0202301N00151105001CN0100001N1+02531+02171101331ADDAA124000191AG10000GF106991041031004501001031KA1240N+02171MA1999999096541MD1999999-0021REMSYN023 333 20217 59002 69924;
0096832420999991998011218004-12567-041383FM-12+042799999V0202301N00151105001CN0100001N1+03161+02171100831ADDAA106000091AG10000GF106991031031004501001031MA1999999096111MD1999999-0081REMSYN011 333 59008;
0134832420999991998011300004-12567-041383FM-12+042799999V0203601N00151045001CN9999999N9+02581+02311101111ADDAA106000091AG10000GF107991041031004501061001KA1240M+03171MA1999999096341MD1999999+0041REMSYN017 333 10317 58004;EQDQ01+000002VOVAR 
0115832420999991998011312004-12567-041383FM-12+042799999V0201801N00211004201CN0100001N1+02461+02131101321ADDAA106000091AG10000GF105991051041004501001001KA1240N+02191MA1999999096531MD1999999-0011REMSYN017 333 20219 59001;
0134832420999991998011400004-12567-041383FM-12+042799999V0201801N00261004201CN9999999N9+02881+02211100851ADDAA106000091AG10000GF108991081051004501999999KA1240M+03341MA1999999096111MD1999999-0231REMSYN017 333 10334 59023;EQDQ01+000002VOVAR 
0162832420999991998011412004-12567-041383FM-12+042799999V0201801N001519999999N0040001N1+02571+02331101091ADDAA124002091AG10003AY161061AY221061GF107991999051004501001001KA1240N+02291MA1999999096361MD1999999-0171MW1031REMSYN023 333 20229 59017 60024;EQDQ01+000042SCOTLC
0096832420999991998011418004-12567-041383FM-12+042799999V0202301N00051220001CN0100001N1+03361+02271100531ADDAA106000091AG10000GF102991011031004501001031MA1999999095871MD1999999-0091REMSYN011 333 59009;
0134832420999991998011500004-12567-041383FM-12+042799999V0201801N00051045001CN9999999N9+02961+02151100761ADDAA106000091AG10000GF105991031021004501061001KA1240M+03451MA1999999096051MD1999999-0061REMSYN017 333 10345 59006;EQDQ01+000002VOVAR 
0143832420999991998011512004-12567-041383FM-12+042799999V0202301N00051004201CN0040001N1+02531+02211101101ADDAA124000191AG10000AY151061AY221061GF108991081041004501999999KA1240N+02391MA1999999096371MD1999999+0011MW1411REMSYN023 333 20239 58001 69914;
0096832420999991998011518004-12567-041383FM-12+042799999V0202301N00151045001CN0100001N1+03181+02221100561ADDAA106000091AG10000GF107991011041004501011001MA1999999095881MD1999999+0011REMSYN011 333 58001;
0134832420999991998011600004-12567-041383FM-12+042799999V0200901N00101220001CN9999999N9+02691+02241100671ADDAA106000091AG10000GF103991031041004501001001KA1240M+03221MA1999999095931MD1999999-0121REMSYN017 333 10322 59012;EQDQ01+000002VOVAR 
0115832420999991998011612004-12567-041383FM-12+042799999V0202701N00101004201CN0040001N1+02531+02231101021ADDAA106000091AG10000GF108991081041004501999999KA1240N+02431MA1999999096271MD1999999-0101REMSYN017 333 20243 59010;
0134832420999991998012200004-12567-041383FM-12+042799999V0202301N00051004201CN9999999N9+02341+02291101041ADDAA106000091AG10000GF108991081051004501999999KA1240M+02561MA1999999096241MD1999999-0091REMSYN017 333 10256 59009;EQDQ01+000002VOVAR 
0143832420999991998012212004-12567-041383FM-12+042799999V0201801N00101004201CN0040001N1+02321+02201101151ADDAA124005091AG10003AY161061AY221061GF108991081051004501999999KA1240N+02191MA1999999096341MD1999999-0081MW1411REMSYN023 333 20219 59008 60054;
0096832420999991998012218004-12567-041383FM-12+042799999V0201801N00261045001CN0100001N1+02831+02141100761ADDAA106000091AG10000GF107991041041004501061001MA1999999096021MD1999999-0201REMSYN011 333 59020;
0143832420999991998012312004-12567-041383FM-12+042799999V0201801N00151004201CN0020001N1+02271+02161101271ADDAA124015091AG10003AY161061AY241061GF108991081051004501999999KA1240N+02071MA1999999096461MD1999999+0121MW1031REMSYN023 333 20207 58012 60154;
0096832420999991998012318004-12567-041383FM-12+042799999V0202301N00151045001CN0100001N1+02881+02281100681ADDAA106000091AG10000GF107991031031004501061031MA1999999095941MD1999999-0081REMSYN011 333 59008;
0162832420999991998012400004-12567-041383FM-12+042799999V0202301N00151004201CN9999999N9+02301+02271101121ADDAA106007091AG10010AY191061AY281061GF108991081071004501999999KA1240M+02921MA1999999096301MD1999999-0031MW1211REMSYN023 333 10292 59003 60071;EQDQ01+000002VOVAR 
0143832420999991998012412004-12567-041383FM-12+042799999V0201401N00051004201CN0020001N1+02361+02331101221ADDAA124017091AG10003AY161061AY241061GF108991081051004501999999KA1240N+02211MA1999999096411MD1999999-0051MW1031REMSYN023 333 20221 59005 60174;
0162832420999991998012500004-12567-041383FM-12+042799999V0203601N00151004201CN9999999N9+02321+02271101051ADDAA106006091AG10003AY161061AY221061GF108991061071004501011999KA1240M+03001MA1999999096251MD1999999-0051MW1031REMSYN023 333 10300 59005 60061;EQDQ01+000002VOVAR 
0121832420999991998012512004-12567-041383FM-12+042799999V0201801N00151004201CN0040001N1+02561+02191101131ADDAA124006091AG10000GF107991071021004501001001KA1240N+02271MA1999999096341MD1999999-0071REMSYN023 333 20227 59007 60064;
0096832420999991998012518004-12567-041383FM-12+042799999V0201801N00101220001CN0100001N1+03121+02221100611ADDAA106000091AG10000GF102991011021004501061001MA1999999095901MD1999999-0041REMSYN011 333 59004;
0143832420999991998012612004-12567-041383FM-12+042799999V0202301N00151004201CN0020001N1+02501+02271101291ADDAA124000191AG10000AY151061AY221061GF107991071071004501001001KA1240N+02331MA1999999096521MD1999999+0181MW1051REMSYN023 333 20233 58018 69914;
0124832420999991998012618004-12567-041383FM-12+042799999V0201801N00151220001CN0100001N1+03101+02361100751ADDAA106000591AG10000AY151061AY221061GF105991021031004501001061MA1999999096061MD1999999+0161MW1031REMSYN017 333 58016 69951;
0134832420999991998012700004-12567-041383FM-12+042799999V0201401N00101004201CN9999999N9+02601+02291101131ADDAA106000091AG10000GF107991071071004501001001KA1240M+03161MA1999999096351MD1999999+0081REMSYN017 333 10316 58008;EQDQ01+000002VOVAR 
0143832420999991998012712004-12567-041383FM-12+042799999V0202701N00101004201CN0020001N1+02361+02241101501ADDAA124001091AG10000AY151061AY221061GF108991081051004501999999KA1240N+02291MA1999999096701MD1999999+0181MW1201REMSYN023 333 20229 58018 60014;
0096832420999991998012718004-12567-041383FM-12+042799999V0202301N00151220001CN0100001N1+03021+02241101021ADDAA106000091AG10000GF102991011031004501001031MA1999999096291MD1999999+0231REMSYN011 333 58023;
0134832420999991998012800004-12567-041383FM-12+042799999V0202301N00101004201CN9999999N9+02601+02441101211ADDAA106000091AG10000GF106991061071004501001001KA1240M+03161MA1999999096431MD1999999+0081REMSYN017 333 10316 58008;EQDQ01+000002VOVAR 
0115832420999991998012812004-12567-041383FM-12+042799999V0201801N00101004201CN0040001N1+02501+02171101581ADDAA106000091AG10000GF107991051041004501061001KA1240N+02271MA1999999096791MD1999999+0091REMSYN017 333 20227 58009;
0096832420999991998012818004-12567-041383FM-12+042799999V0200501N00101220001CN0100001N1+03011+02461101021ADDAA106000091AG10000GF102991011031004501001031MA1999999096291MD1999999+0001REMSYN011 333 58000;
0134832420999991998012900004-12567-041383FM-12+042799999V0201801N00151004201CN9999999N9+02701+02351101191ADDAA106000091AG10000GF107991071021004501001001KA1240M+03161MA1999999096431MD1999999+0001REMSYN017 333 10316 58000;EQDQ01+000002VOVAR 
0115832420999991998012912004-12567-041383FM-12+042799999V0201801N00211004201CN0040001N1+02531+02151101481ADDAA106000091AG10000GF107991071051004501001001KA1240N+02311MA1999999096701MD1999999-0091REMSYN017 333 20231 59009;
0096832420999991998012918004-12567-041383FM-12+042799999V0202301N00101220001CN0100001N1+03121+02171101011ADDAA106000091AG10000GF102991021031004501001001MA1999999096281MD1999999-0011REMSYN011 333 59001;
0143832420999991998013112004-12567-041383FM-12+042799999V0201801N00211004201CN0020001N1+02371+02281101571ADDAA124000191AG10000AY151061AY211061GF107991071071004501001001KA1240N+02251MA1999999096761MD1999999+0101MW1051REMSYN023 333 20225 58010 69914;
0143832420999991998020112004-12567-041383FM-12+042799999V0201401N00101004201CN0040001N1+02671+02281101441ADDAA124001091AG10000AY151061AY211061GF106991061071004501001001KA1240N+02301MA1999999096691MD1999999-0071MW1031REMSYN023 333 20230 59007 69994;
0096832420999991998020118004-12567-041383FM-12+042799999V0202301N00211220001CN0100001N1+03181+02221100971ADDAA106000091AG10000GF102991011031004501001031MA1999999096251MD1999999-0051REMSYN011 333 59005;
0115832420999991998020212004-12567-041383FM-12+042799999V0201801N00151045001CN0040001N1+02641+02161101391ADDAA106000091AG10000GF106991031041004501061011KA1240N+02211MA1999999096651MD1999999-0041REMSYN017 333 20221 59004;
0096832420999991998020218004-12567-041383FM-12+042799999V0202301N00151105001CN0100001N1+03151+02231100931ADDAA106000091AG10000GF107991021031004501001031MA1999999096211MD1999999-0041REMSYN011 333 59004;
0134832420999991998020300004-12567-041383FM-12+042799999V0201801N00051105001CN9999999N9+02741+02241101021ADDAA106000091AG10000GF107991031031004501001031KA1240M+03231MA1999999096291MD1999999-0141REMSYN017 333 10323 59014;EQDQ01+000002VOVAR 
0115832420999991998020312004-12567-041383FM-12+042799999V0201801N00101004201CN0020001N1+02581+02311101321ADDAA106000091AG10000GF108991081051004501999999KA1240N+02401MA1999999096561MD1999999-0091REMSYN017 333 20240 59009;
0096832420999991998020318004-12567-041383FM-12+042799999V0201801N00211220001CN0100001N1+03101+02261100861ADDAA106000091AG10000GF104991011031004501061031MA1999999096151MD1999999-0061REMSYN011 333 59006;
0134832420999991998020400004-12567-041383FM-12+042799999V0209991C00001105001CN9999999N9+02741+02241100931ADDAA106000091AG10000GF105991011031004501061031KA1240M+03161MA1999999096191MD1999999-0101REMSYN017 333 10316 59010;EQDQ01+000002VOVAR 
0115832420999991998020412004-12567-041383FM-12+042799999V0201801N00211004201CN0040001N1+02571+02101101291ADDAA106000091AG10000GF107991071051004501001001KA1240N+02191MA1999999096531MD1999999-0031REMSYN017 333 20219 59003;
0096832420999991998020418004-12567-041383FM-12+042799999V0202301N00151220001CN0100001N1+03341+02281100711ADDAA106000091AG10000GF102991011031004501001031MA1999999096001MD1999999-0151REMSYN011 333 59015;
0134832420999991998020500004-12567-041383FM-12+042799999V0200901N00151220001CN9999999N9+02871+02351100991ADDAA106000091AG10000GF102991011031004501061001KA1240M+03421MA1999999096261MD1999999+0071REMSYN017 333 10342 58007;EQDQ01+000002VOVAR 
0115832420999991998020512004-12567-041383FM-12+042799999V0200901N00151004201CN0040001N1+02641+02271101311ADDAA106000091AG10000GF107991071051004501001001KA1240N+02381MA1999999096571MD1999999+0041REMSYN017 333 20238 58004;
0096832420999991998020518004-12567-041383FM-12+042799999V0201801N00211105001CN0100001N1+03301+02241100821ADDAA106000091AG10000GF108991011011004501001071MA1999999096121MD1999999+0121REMSYN011 333 58012;
0150832420999991998020600004-12567-041383FM-12+042799999V0200901N00051220001CN9999999N9+02701+02171100961ADDAA106000091AG10000GA1001+999999999GF100991001001999999001001KA1240M+03381MA1999999096221MD1999999-0041REMSYN017 333 10338 59004;EQDQ01+000002VOVAR 
0115832420999991998020612004-12567-041383FM-12+042799999V0201801N00051220001CN0040001N1+02661+02291101311ADDAA106000091AG10000GF102991021011004501001001KA1240N+02221MA1999999096561MD1999999-0011REMSYN017 333 20222 59001;
0096832420999991998020618004-12567-041383FM-12+042799999V0201801N00211220001CN0100001N1+03481+02251100741ADDAA106000091AG10000GF104991021031004501061001MA1999999096071MD1999999-0051REMSYN011 333 59005;
0134832420999991998020700004-12567-041383FM-12+042799999V0202701N00101220001CN9999999N9+02961+02131100981ADDAA106000091AG10000GF102991011041004501061001KA1240M+03521MA1999999096271MD1999999+0051REMSYN017 333 10352 58005;EQDQ01+000002VOVAR 
0115832420999991998020712004-12567-041383FM-12+042799999V0201801N00151004201CN0040001N1+02601+02211101371ADDAA106000091AG10000GF107991071031004501001001KA1240N+02391MA1999999096661MD1999999+0101REMSYN017 333 20239 58010;
0096832420999991998020718004-12567-041383FM-12+042799999V0201801N00151105001CN0100001N1+03311+02381100861ADDAA106000091AG10000GF108991011021004501001071MA1999999096171MD1999999+0101REMSYN011 333 58010;
0115832420999991998020812004-12567-041383FM-12+042799999V0201401N00151004201CN0010001N1+02591+02391101401ADDAA106000091AG10000GF108991081051004501999999KA1240N+02471MA1999999096651MD1999999-0011REMSYN017 333 20247 59001;
0096832420999991998020818004-12567-041383FM-12+042799999V0200501N00151220001CN0100001N1+03311+02381100791ADDAA106000091AG10000GF102991011011004501001031MA1999999096111MD1999999-0061REMSYN011 333 59006;
0115832420999991998020912004-12567-041383FM-12+042799999V0202301N00101004201CN0010001N1+02581+02371101351ADDAA106000091AG10000GF108991081051004501999999KA1240N+02391MA1999999096591MD1999999-0061REMSYN017 333 20239 59006;
0096832420999991998020918004-12567-041383FM-12+042799999V0201401N00211105001CN0040001N1+03071+02291100861ADDAA106000091AG10000GF108991011011004501001071MA1999999096141MD1999999+0031REMSYN011 333 58003;
0150832420999991998021000004-12567-041383FM-12+042799999V0200501N00151220001CN9999999N9+02641+02231100931ADDAA106000091AG10000GA1001+999999999GF100991001001999999001001KA1240M+03161MA1999999096181MD1999999-0021REMSYN017 333 10316 59002;EQDQ01+000002VOVAR 
0115832420999991998021012004-12567-041383FM-12+042799999V0201801N00261004201CN0020001N1+02701+02411101291ADDAA106000091AG10000GF106991061021004501001001KA1240N+02281MA1999999096531MD1999999-0061REMSYN017 333 20228 59006;
0096832420999991998021018004-12567-041383FM-12+042799999V0201801N00151105001CN0100001N1+03421+02261100691ADDAA106000091AG10000GF108991011031004501001071MA1999999096011MD1999999-0131REMSYN011 333 59013;
0134832420999991998021100004-12567-041383FM-12+042799999V0203601N00101220001CN9999999N9+02861+02281100971ADDAA106000091AG10000GF102991011011004501061011KA1240M+03501MA1999999096221MD1999999+0041REMSYN017 333 10350 58004;EQDQ01+000002VOVAR 
0115832420999991998021112004-12567-041383FM-12+042799999V0201401N00151045001CN0200001N1+02771+02381101181ADDAA106000091AG10000GF108991021041004501061071KA1240N+02251MA1999999096461MD1999999-0071REMSYN017 333 20225 59007;
0096832420999991998021118004-12567-041383FM-12+042799999V0202301N00101045001CN0100001N1+03451+02261100611ADDAA106000091AG10000GF108991021031004501061071MA1999999095931MD1999999-0081REMSYN011 333 59008;
0134832420999991998021200004-12567-041383FM-12+042799999V0203601N00101220001CN9999999N9+02901+02221100741ADDAA106000091AG10000GF102991011011004501001011KA1240M+03521MA1999999096051MD1999999-0171REMSYN017 333 10352 59017;EQDQ01+000002VOVAR 
0115832420999991998021212004-12567-041383FM-12+042799999V0201801N00151004201CN0040001N1+02631+02351101211ADDAA106000091AG10000GF107991071041004501001001KA1240N+02431MA1999999096481MD1999999+0021REMSYN017 333 20243 58002;
0124832420999991998021218004-12567-041383FM-12+042799999V0202301N00051004201CN0040001N1+02711+02411100881ADDAA106000391AG10000AY151061AY221061GF107991071041004501001001MA1999999096141MD1999999+0211MW1021REMSYN017 333 58021 69931;
0134832420999991998021300004-12567-041383FM-12+042799999V0203601N00151045001CN9999999N9+02541+02441101061ADDAA106000091AG10000GF106991041031004501061001KA1240M+02901MA1999999096301MD1999999+0251REMSYN017 333 10290 58025;EQDQ01+000002VOVAR 
0154832420999991998021312004-12567-041383FM-12+042799999V0202701N00151004201CN0020001N1+02341+02261101481ADDAA124041091AG10003AY161061GF108991081071004501999999KA1240N+02191MA1999999096681MD1999999+0201MW1031REMSYN023 333 20219 58020 60414;EQDQ01+000072PSTWM1
0096832420999991998021318004-12567-041383FM-12+042799999V0201801N00051045001CN0040001N1+03021+02391101021ADDAA106000091AG10000GF108991031031004501061071MA1999999096271MD1999999+0151REMSYN011 333 58015;
0134832420999991998021400004-12567-041383FM-12+042799999V0202701N00101220001CN9999999N9+02581+02351101231ADDAA106000091AG10000GF103991011031004501061001KA1240M+03091MA1999999096441MD1999999+0141REMSYN017 333 10309 58014;EQDQ01+000002VOVAR 
0115832420999991998021412004-12567-041383FM-12+042799999V0202301N00101004201CN0040001N1+02511+02191101611ADDAA106000091AG10000GF107991071071004501001001KA1240N+02311MA1999999096821MD1999999+0141REMSYN017 333 20231 58014;
0096832420999991998021418004-12567-041383FM-12+042799999V0202301N00211220001CN0100001N1+03241+02101101031ADDAA106000091AG10000GF102991021031004501001001MA1999999096311MD1999999+0021REMSYN011 333 58002;
0134832420999991998021500004-12567-041383FM-12+042799999V0200501N00151004201CN9999999N9+02691+02061101401ADDAA106000091AG10000GF106991061071004501001001KA1240M+03311MA1999999096631MD1999999+0191REMSYN017 333 10331 58019;EQDQ01+000002VOVAR 
0154832420999991998021512004-12567-041383FM-12+042799999V0202301N00051004201CN0020001N1+02181+02161101631ADDAA124031091AG10003AY161061GF108991081071004501999999KA1240N+02071MA1999999096821MD1999999+0001MW1401REMSYN023 333 20207 58000 60314;EQDQ01+000072PSTWM1
0124832420999991998021518004-12567-041383FM-12+042799999V0201801N00151004201CN0040001N1+02811+02311101221ADDAA106000591AG10000AY151061AY221061GF107991051071004501061001MA1999999096461MD1999999+0151MW1031REMSYN017 333 58015 69941;
0121832420999991998021612004-12567-041383FM-12+042799999V0201401N00051004201CN0040001N1+02481+02091101571ADDAA124000591AG10000GF107991061071004501061001KA1240N+02191MA1999999096761MD1999999-0061REMSYN023 333 20219 59006 69944;
0096832420999991998021618004-12567-041383FM-12+042799999V0202301N00101220001CN0100001N1+03001+02221100951ADDAA106000091AG10000GF104991011031004501051091MA1999999096221MD1999999-0241REMSYN011 333 59024;
0134832420999991998021700004-12567-041383FM-12+042799999V0209991C00001004201CN9999999N9+02641+02331101041ADDAA106000091AG10000GF107991071041004501001001KA1240M+03041MA1999999096281MD1999999-0171REMSYN017 333 10304 59017;EQDQ01+000002VOVAR 
0154832420999991998021712004-12567-041383FM-12+042799999V0201801N00051004201CN0020001N1+02301+02221101401ADDAA124001091AG10003AY161061GF108991081051004501999999KA1240N+02281MA1999999096601MD1999999-0161MW1101REMSYN023 333 20228 59016 60014;EQDQ01+000072PSTWM1
0096832420999991998021718004-12567-041383FM-12+042799999V0201801N00051045001CN0040001N1+02711+02281100971ADDAA106000091AG10000GF107991041041004501011001MA1999999096211MD1999999-0011REMSYN011 333 59001;
0134832420999991998021800004-12567-041383FM-12+042799999V0203601N00101004201CN9999999N9+02401+02351101071ADDAA106000091AG10000GF107991071051004501001001KA1240M+02721MA1999999096271MD1999999-0011REMSYN017 333 10272 59001;EQDQ01+000002VOVAR 
0154832420999991998021812004-12567-041383FM-12+042799999V0201801N00051004201CN0020001N1+02171+02131101441ADDAA124056091AG10003AY161061GF108991081061004501999999KA1240N+02091MA1999999096611MD1999999+0011MW1101REMSYN023 333 20209 58001 60564;EQDQ01+000072PSTWM1
0096832420999991998021818004-12567-041383FM-12+042799999V0201801N00151004201CN0040001N1+02781+02361100901ADDAA106000091AG10000GF106991061071004501001001MA1999999096131MD1999999-0081REMSYN011 333 59008;
0143832420999991998021912004-12567-041383FM-12+042799999V0201801N00151004201CN0010001N1+02281+02201101351ADDAA124006091AG10000AY151061AY221061GF108991081061004501999999KA1240N+02151MA1999999096521MD1999999-0091MW1101REMSYN023 333 20215 59009 60064;
0096832420999991998021918004-12567-041383FM-12+042799999V0202301N00151045001CN0100001N1+02831+02351100901ADDAA106000091AG10000GF107991021031004501031031MA1999999096131MD1999999+0001REMSYN011 333 58000;
0134832420999991998022000004-12567-041383FM-12+042799999V0203601N00051004201CN9999999N9+02401+02351101111ADDAA106000091AG10000GF107991071051004501001001KA1240M+02911MA1999999096301MD1999999-0071REMSYN017 333 10291 59007;EQDQ01+000002VOVAR 
0115832420999991998022012004-12567-041383FM-12+042799999V0202301N00101004201CN0040001N1+02521+02231101241ADDAA106000091AG10000GF108991071071004501001091KA1240N+02231MA1999999096451MD1999999-0071REMSYN017 333 20223 59007;
0096832420999991998022018004-12567-041383FM-12+042799999V0201801N00211045001CN0100001N1+02991+02421100801ADDAA106000091AG10000GF107991031031004501061031MA1999999096071MD1999999-0061REMSYN011 333 59006;
0162832420999991998022100004-12567-041383FM-12+042799999V0202301N00211004201CN9999999N9+02341+02221101111ADDAA106000591AG10000AY151061AY221061GF108991081071004501999999KA1240M+03001MA1999999096321MD1999999+0021MW1021REMSYN023 333 10300 58002 69961;EQDQ01+000002VOVAR 
0143832420999991998022112004-12567-041383FM-12+042799999V0200901N00101045001CN0040001N1+02511+02291101361ADDAA124001091AG10000AY151061AY221061GF107991041031004501061001KA1240N+02281MA1999999096561MD1999999+0111MW1031REMSYN023 333 20228 58011 69984;
0096832420999991998022118004-12567-041383FM-12+042799999V0201401N00151220001CN0100001N1+03101+02291100791ADDAA106000091AG10000GF103991011031004501031031MA1999999096061MD1999999-0011REMSYN011 333 59001;
0178832420999991998022200004-12567-041383FM-12+042799999V0201401N00051004201CN9999999N9+02291+02271101221ADDAA106003091AG10009AY191061AY261061GF108991999071004501071999KA1240M+03181MA1999999096421MD1999999+0101MW1211REMSYN023 333 10318 58010 60031;EQDQ01+000082SCOTLCQ02+000002VOVAR 
0143832420999991998022212004-12567-041383FM-12+042799999V0201401N00101004201CN0020001N1+02561+02311101421ADDAA124004091AG10003AY161061AY221061GF107991071071004501001001KA1240N+02251MA1999999096621MD1999999+0061MW1031REMSYN023 333 20225 58006 60044;
0096832420999991998022218004-12567-041383FM-12+042799999V0201401N00211220001CN0100001N1+03101+02311100911ADDAA106000091AG10000GF102991011031004501001031MA1999999096161MD1999999+0101REMSYN011 333 58010;
0150832420999991998022300004-12567-041383FM-12+042799999V0200901N00051220001CN9999999N9+02641+02371101081ADDAA106000091AG10000GA1001+999999999GF100991001001999999001001KA1240M+03141MA1999999096321MD1999999-0101REMSYN017 333 10314 59010;EQDQ01+000002VOVAR 
0115832420999991998022312004-12567-041383FM-12+042799999V0201801N00261004201CN0040001N1+02521+02231101401ADDAA106000091AG10000GF107991071051004501001001KA1240N+02191MA1999999096631MD1999999+0011REMSYN017 333 20219 58001;
0096832420999991998022318004-12567-041383FM-12+042799999V0201801N00311105001CN0100001N1+03041+02231100911ADDAA106000091AG10000GF107991011031004501001031MA1999999096181MD1999999+0021REMSYN011 333 58002;
0115832420999991998022412004-12567-041383FM-12+042799999V0200901N00151220001CN0040001N1+02571+02191101451ADDAA106000091AG10000GF103991031051004501001001KA1240N+02111MA1999999096671MD1999999+0041REMSYN017 333 20211 58004;
0096832420999991998022418004-12567-041383FM-12+042799999V0201801N00361220001CN0100001N1+03141+02161100891ADDAA106000091AG10000GF102991011011004501001031MA1999999096151MD1999999-0031REMSYN011 333 59003;
0115832420999991998022512004-12567-041383FM-12+042799999V0202301N00151220001CN0100001N1+02621+02141101311ADDAA106000091AG10000GF103991021021004501001011KA1240N+02081MA1999999096541MD1999999-0131REMSYN017 333 20208 59013;
0096832420999991998022518004-12567-041383FM-12+042799999V0201801N00311220001CN0100001N1+03141+02131100781ADDAA106000091AG10000GF102991011011004501001011MA1999999096051MD1999999-0101REMSYN011 333 59010;
0150832420999991998022600004-12567-041383FM-12+042799999V0200901N00051220001CN9999999N9+02521+02091100891ADDAA106000091AG10000GA1001+999999999GF100991001001999999001001KA1240M+03181MA1999999096131MD1999999-0081REMSYN017 333 10318 59008;EQDQ01+000002VOVAR 
0115832420999991998022612004-12567-041383FM-12+042799999V0201401N00211220001CN0100001N1+02641+02161101291ADDAA106000091AG10000GF103991031021004501001001KA1240N+02131MA1999999096521MD1999999-0021REMSYN017 333 20213 59002;
0096832420999991998022618004-12567-041383FM-12+042799999V0201801N00211220001CN0100001N1+03241+01861100701ADDAA106000091AG10000GF102991011011004501001031MA1999999095991MD1999999-0061REMSYN011 333 59006;
0150832420999991998022700004-12567-041383FM-12+042799999V0203601N00151220001CN9999999N9+02481+01801100811ADDAA106000091AG10000GA1001+999999999GF100991001001999999001001KA1240M+03301MA1999999096061MD1999999-0071REMSYN017 333 10330 59007;EQDQ01+000002VOVAR 
0115832420999991998022712004-12567-041383FM-12+042799999V0202301N00151220001CN0100001N1+02591+02211101231ADDAA106000091AG10000GF103991031021004501001001KA1240N+02271MA1999999096461MD1999999-0061REMSYN017 333 20227 59006;
0096832420999991998022718004-12567-041383FM-12+042799999V0202301N00311220001CN0100001N1+03271+02201100701ADDAA106000091AG10000GF101991011011004501001001MA1999999096001MD1999999+0011REMSYN011 333 58001;
0150832420999991998022800004-12567-041383FM-12+042799999V0203601N00101220001CN9999999N9+02701+02111100811ADDAA106000091AG10000GA1001+999999999GF100991001001999999001001KA1240M+03341MA1999999096081MD1999999+0021REMSYN017 333 10334 58002;EQDQ01+000002VOVAR 
0096832420999991998022818004-12567-041383FM-12+042799999V0202301N00211220001CN0100001N1+03031+02201100741ADDAA106000091AG10000GF104991011011004501001031MA1999999096041MD1999999+0041REMSYN011 333 58004;
0150832420999991998030100004-12567-041383FM-12+042799999V0200501N00151220001CN9999999N9+02631+02181100901ADDAA106000091AG10000GA1001+999999999GF100991001001999999001001KA1240M+03061MA1999999096151MD1999999+0071REMSYN017 333 10306 58007;EQDQ01+000002VOVAR 
0115832420999991998030112004-12567-041383FM-12+042799999V0203601N00051004201CN0040001N1+02341+02151101241ADDAA106000091AG10000GF108991081041004501999999KA1240N+02031MA1999999096461MD1999999+0031REMSYN017 333 20203 58003;
0096832420999991998030118004-12567-041383FM-12+042799999V0201801N00151004201CN0100001N1+02921+02241100781ADDAA106000091AG10000GF107991071031004501001001MA1999999096051MD1999999+0011REMSYN011 333 58001;
0134832420999991998030200004-12567-041383FM-12+042799999V0200501N00101004201CN9999999N9+02531+02311100891ADDAA106000091AG10000GF108991081041004501999999KA1240M+03021MA1999999096111MD1999999-0041REMSYN017 333 10302 59004;EQDQ01+000002VOVAR 
0115832420999991998030212004-12567-041383FM-12+042799999V0201801N00211004201CN0040001N1+02541+02251101231ADDAA106000091AG10000GF108991081051004501999999KA1240N+02351MA1999999096461MD1999999+0001REMSYN017 333 20235 58000;
0096832420999991998030218004-12567-041383FM-12+042799999V0202301N00051004201CN0100001N1+03221+02431100771ADDAA106000091AG10000GF108991081031004501999999MA1999999096081MD1999999+0031REMSYN011 333 58003;
0134832420999991998030300004-12567-041383FM-12+042799999V0200901N00261004201CN9999999N9+02821+02401101001ADDAA106000091AG10000GF108991081071004501999999KA1240M+03271MA1999999096171MD1999999+0161REMSYN017 333 10327 58016;EQDQ01+000002VOVAR 
0154832420999991998030312004-12567-041383FM-12+042799999V0201801N00211004201CN0040001N1+02541+02401101361ADDAA124001091AG10003AY161061GF108991081051004501999999KA1240N+02351MA1999999096611MD1999999+0151MW1031REMSYN023 333 20235 58015 60014;EQDQ01+000072PSTWM1
0096832420999991998030318004-12567-041383FM-12+042799999V0201801N00311004201CN0100001N1+03171+02251100961ADDAA106000091AG10000GF107991061031004501001031MA1999999096251MD1999999+0171REMSYN011 333 58017;
0134832420999991998030400004-12567-041383FM-12+042799999V0200901N00151004201CN9999999N9+02741+02171101131ADDAA106000091AG10000GF105991051071004501001001KA1240M+03181MA1999999096381MD1999999+0111REMSYN017 333 10318 58011;EQDQ01+000002VOVAR 
0115832420999991998030412004-12567-041383FM-12+042799999V0201801N00211105001CN0040001N1+02631+02231101421ADDAA106000091AG10000GF105991021031004501061011KA1240N+02221MA1999999096671MD1999999+0061REMSYN017 333 20222 58006;
0096832420999991998030418004-12567-041383FM-12+042799999V0201801N00211220001CN0100001N1+03261+01981100941ADDAA106000091AG10000GF103991011011004501001021MA1999999096231MD1999999-0021REMSYN011 333 59002;
0134832420999991998030500004-12567-041383FM-12+042799999V0200901N00051220001CN9999999N9+02611+02031101061ADDAA106000091AG10000GF102991011021004501061001KA1240M+03281MA1999999096301MD1999999-0081REMSYN017 333 10328 59008;EQDQ01+000002VOVAR 
0096832420999991998030518004-12567-041383FM-12+042799999V0201801N00211220001CN0100001N1+03221+02111100801ADDAA106000091AG10000GF102991011011004501001011MA1999999096091MD1999999-0141REMSYN011 333 59014;
0134832420999991998030600004-12567-041383FM-12+042799999V0202301N00151004201CN9999999N9+02741+01971101031ADDAA106000091AG10000GF107991071051004501001001KA1240M+03301MA1999999096281MD1999999-0021REMSYN017 333 10330 59002;EQDQ01+000002VOVAR 
0115832420999991998030612004-12567-041383FM-12+042799999V0201801N00211045001CN0040001N1+02461+02091101281ADDAA106000091AG10000GF106991031041004501061001KA1240N+02111MA1999999096511MD1999999-0221REMSYN017 333 20211 59022;
0096832420999991998030618004-12567-041383FM-12+042799999V0201801N00311220001CN0100001N1+03251+01981100611ADDAA106000091AG10000GF104991011011004501001021MA1999999095901MD1999999-0191REMSYN011 333 59019;
0134832420999991998030700004-12567-041383FM-12+042799999V0202301N00151004201CN9999999N9+02771+01981100901ADDAA106000091AG10000GF107991071051004501001001KA1240M+03301MA1999999096151MD1999999-0131REMSYN017 333 10330 59013;EQDQ01+000002VOVAR 
0115832420999991998030712004-12567-041383FM-12+042799999V0201801N00311105001CN0040001N1+02591+02101101181ADDAA106000091AG10000GF106991021021004501001081KA1240N+02171MA1999999096441MD1999999-0071REMSYN017 333 20217 59007;
0096832420999991998030718004-12567-041383FM-12+042799999V0201801N00361105001CN0100001N1+03211+01981100711ADDAA106000091AG10000GF107991041031004501001031MA1999999095991MD1999999+0091REMSYN011 333 58009;
0134832420999991998030800004-12567-041383FM-12+042799999V0200501N00101004201CN9999999N9+02781+02091100961ADDAA106000091AG10000GF108991081051004501999999KA1240M+03261MA1999999096231MD1999999+0081REMSYN017 333 10326 58008;EQDQ01+000002VOVAR 
0115832420999991998030812004-12567-041383FM-12+042799999V0201801N00311004201CN0040001N1+02511+02171101231ADDAA106000091AG10000GF107991071031004501001001KA1240N+02271MA1999999096571MD1999999+0131REMSYN017 333 20227 58013;
0096832420999991998030818004-12567-041383FM-12+042799999V0201801N00211004201CN0100001N1+03001+02241100881ADDAA106000091AG10000GF107991061031004501001031MA1999999096141MD1999999+0151REMSYN011 333 58015;
0134832420999991998030900004-12567-041383FM-12+042799999V0202301N00051004201CN9999999N9+02671+02131101091ADDAA106000091AG10000GF108991061031004501011999KA1240M+03061MA1999999096331MD1999999+0101REMSYN017 333 10306 58010;EQDQ01+000002VOVAR 
0115832420999991998030912004-12567-041383FM-12+042799999V0201401N00151004201CN0040001N1+02581+02101101251ADDAA106000091AG10000GF107991071031004501001001KA1240N+02231MA1999999096511MD1999999-0061REMSYN017 333 20223 59006;
0134832420999991998031000004-12567-041383FM-12+042799999V0203601N00211220001CN9999999N9+02561+02191100881ADDAA106000091AG10000GF102991021041004501001001KA1240M+03161MA1999999096121MD1999999-0211REMSYN017 333 10316 59021;EQDQ01+000002VOVAR 
0115832420999991998031012004-12567-041383FM-12+042799999V0201401N00261004201CN0040001N1+02701+02241101191ADDAA106000091AG10000GF106991061021004501001001KA1240N+02331MA1999999096441MD1999999-0071REMSYN017 333 20233 59007;
0115832420999991998031018004-12567-041383FM-12+042799999V0202301N00311105001CN0100001N1+03341+02091100192ADDAA106000091AG10000GF105991021021004501001021MA1999999095901MD1999999-0211REMSYN011 333 59021;EQDQ01+100193APOSLP
0134832420999991998031100004-12567-041383FM-12+042799999V0200501N00461220001CN9999999N9+02851+02031100911ADDAA106000091AG10000GF104991041071004501001001KA1240M+03361MA1999999096201MD1999999+0081REMSYN017 333 10336 58008;EQDQ01+000002VOVAR 
0096832420999991998031118004-12567-041383FM-12+042799999V0202301N00151220001CN0100001N1+03391+02271100611ADDAA106000091AG10000GF102991011011004501001031MA1999999095921MD1999999+0021REMSYN011 333 58002;
0150832420999991998031200004-12567-041383FM-12+042799999V0202701N00101220001CN9999999N9+02861+02061100881ADDAA106000091AG10000GA1001+999999999GF100991001001999999001001KA1240M+03421MA1999999096171MD1999999-0031REMSYN017 333 10342 59003;EQDQ01+000002VOVAR 
0115832420999991998031212004-12567-041383FM-12+042799999V0201801N00211004201CN0040001N1+02631+02251101361ADDAA106000091AG10000GF106991061041004501001001KA1240N+02431MA1999999096621MD1999999+0121REMSYN017 333 20243 58012;
0096832420999991998031218004-12567-041383FM-12+042799999V0201801N00211220001CN0100001N1+03361+02241100771ADDAA106000091AG10000GF102991011031004501001031MA1999999096091MD1999999+0171REMSYN011 333 58017;
0134832420999991998031300004-12567-041383FM-12+042799999V0200901N00051220001CN9999999N9+02751+02231100991ADDAA106000091AG10000GF101991011031004501001001KA1240M+03411MA1999999096261MD1999999+0091REMSYN017 333 10341 58009;EQDQ01+000002VOVAR 
0115832420999991998031312004-12567-041383FM-12+042799999V0201801N00151004201CN0040001N1+02681+02281101331ADDAA106000091AG10000GF106991051031004501031001KA1240N+02411MA1999999096581MD1999999-0041REMSYN017 333 20241 59004;
0096832420999991998031318004-12567-041383FM-12+042799999V0202301N00311105001CN0040001N1+03361+02141100661ADDAA106000091AG10000GF107991021031004501001021MA1999999095981MD1999999-0111REMSYN011 333 59011;
0134832420999991998031400004-12567-041383FM-12+042799999V0200901N00261004201CN9999999N9+02761+01991100851ADDAA106000091AG10000GF106991061031004501001001KA1240M+03421MA1999999096121MD1999999-0141REMSYN017 333 10342 59014;EQDQ01+000002VOVAR 
0115832420999991998031412004-12567-041383FM-12+042799999V0201801N00051004201CN0040001N1+02631+02231101151ADDAA106000091AG10000GF107991061031004501061001KA1240N+02351MA1999999096411MD1999999-0171REMSYN017 333 20235 59017;
0096832420999991998031418004-12567-041383FM-12+042799999V0201801N00151220001CN0100001N1+03361+02271100511ADDAA106000091AG10000GF103991011031004501061021MA1999999095841MD1999999-0141REMSYN011 333 59014;
0134832420999991998031500004-12567-041383FM-12+042799999V0201801N00051004201CN9999999N9+02881+02231100691ADDAA106000091AG10000GF107991071071004501001001KA1240M+03451MA1999999095981MD1999999-0141REMSYN017 333 10345 59014;EQDQ01+000002VOVAR 
0115832420999991998031512004-12567-041383FM-12+042799999V0201801N00151220001CN0040001N1+02671+02221101091ADDAA106000091AG10000GF104991031021004501001011KA1240N+02251MA1999999096371MD1999999-0041REMSYN017 333 20225 59004;
0096832420999991998031518004-12567-041383FM-12+042799999V0201801N00211220001CN0100001N1+03371+02191100451ADDAA106000091AG10000GF102991011031004501001031MA1999999095791MD1999999-0051REMSYN011 333 59005;
0134832420999991998031600004-12567-041383FM-12+042799999V0200901N00101021001CN9999999N9+02751+02231100691ADDAA106000091AG10000GF105991051001022501061001KA1240M+03421MA1999999095971MD1999999-0011REMSYN017 333 10342 59001;EQDQ01+000002VOVAR 
0115832420999991998031612004-12567-041383FM-12+042799999V0201801N00101004201CN0040001N1+02511+02191101101ADDAA106000091AG10000GF108991081051004501999999KA1240N+02311MA1999999096351MD1999999-0021REMSYN017 333 20231 59002;
0096832420999991998031618004-12567-041383FM-12+042799999V0200501N00151220001CN0100001N1+03211+02231100581ADDAA106000091AG10000GF102991011031004501001031MA1999999095891MD1999999+0101REMSYN011 333 58010;
0134832420999991998031700004-12567-041383FM-12+042799999V0200901N00051004201CN9999999N9+02921+02121100921ADDAA106000091AG10000GF107991071071004501001001KA1240M+03321MA1999999096191MD1999999+0221REMSYN017 333 10332 58022;EQDQ01+000002VOVAR 
0115832420999991998031712004-12567-041383FM-12+042799999V0201401N00261004201CN0040001N1+02701+02221101241ADDAA106000091AG10000GF106991051031004501001031KA1240N+02331MA1999999096511MD1999999+0161REMSYN017 333 20233 58016;
0096832420999991998031718004-12567-041383FM-12+042799999V0201801N00311220001CN0100001N1+03401+02141100711ADDAA106000091AG10000GF102991021021004501001001MA1999999096031MD1999999+0141REMSYN011 333 58014;
0134832420999991998031800004-12567-041383FM-12+042799999V0201801N00101004201CN9999999N9+02881+02211100921ADDAA106000091AG10000GF108991081051004501999999KA1240M+03421MA1999999096211MD1999999+0021REMSYN017 333 10342 58002;EQDQ01+000002VOVAR 
0143832420999991998031812004-12567-041383FM-12+042799999V0201801N00311004201CN0040001N1+02541+02021101351ADDAA124000191AG10000AY151061AY221061GF107991071031004501001001KA1240N+02211MA1999999096601MD1999999+0091MW1031REMSYN023 333 20221 58009 69914;
0096832420999991998031818004-12567-041383FM-12+042799999V0201801N00361004201CN0100001N1+03211+02201100881ADDAA106000091AG10000GF107991071031004501001001MA1999999096181MD1999999+0151REMSYN011 333 58015;
0134832420999991998031900004-12567-041383FM-12+042799999V0200901N00051004201CN9999999N9+02741+02191101071ADDAA106000091AG10000GF106991061041004501001001KA1240M+03221MA1999999096321MD1999999+0111REMSYN017 333 10322 58011;EQDQ01+000002VOVAR 
0143832420999991998031912004-12567-041383FM-12+042799999V0201801N00151004201CN0040001N1+02381+02151101391ADDAA124001091AG10000AY151061AY221061GF108991081061004501999999KA1240N+02191MA1999999096591MD1999999-0011MW1401REMSYN023 333 20219 59001 60014;
0096832420999991998031918004-12567-041383FM-12+042799999V0201801N00151220001CN0100001N1+03101+02261100901ADDAA106000091AG10000GF102991011031004501001031MA1999999096181MD1999999+0001REMSYN011 333 58000;
0134832420999991998032000004-12567-041383FM-12+042799999V0201801N00151220001CN9999999N9+02791+02151101081ADDAA106000091AG10000GF104991041051004501001001KA1240M+03201MA1999999096321MD1999999+0001REMSYN017 333 10320 58000;EQDQ01+000002VOVAR 
0096832420999991998032018004-12567-041383FM-12+042799999V0201801N00211220001CN0100001N1+03391+02211100801ADDAA106000091AG10000GF102991011011004501001011MA1999999096121MD1999999-0061REMSYN011 333 59006;
0150832420999991998032100004-12567-041383FM-12+042799999V0200901N00051220001CN9999999N9+02801+02151101031ADDAA106000091AG10000GA1001+999999999GF100991001001999999001001KA1240M+03461MA1999999096301MD1999999-0021REMSYN017 333 10346 59002;EQDQ01+000002VOVAR 
0121832420999991998032112004-12567-041383FM-12+042799999V0201801N00151004201CN0040001N1+02571+02231101261ADDAA106000091AG10000GF107991071051004501001001KA1240N+02171MA1999999096511MD1999999-0071MW1401REMSYN017 333 20217 59007;
0096832420999991998032118004-12567-041383FM-12+042799999V0201801N00261220001CN0100001N1+03351+02271100651ADDAA106000091AG10000GF102991011011004501001011MA1999999095951MD1999999-0171REMSYN011 333 59017;
0134832420999991998032200004-12567-041383FM-12+042799999V0202301N00051004201CN9999999N9+02871+02161100871ADDAA106000091AG10000GF106991061031004501001001KA1240M+03441MA1999999096141MD1999999-0161REMSYN017 333 10344 59016;EQDQ01+000002VOVAR 
0115832420999991998032212004-12567-041383FM-12+042799999V0200901N00101004201CN0040001N1+02601+02271101091ADDAA106000091AG10000GF108991081041004501999999KA1240N+02351MA1999999096361MD1999999-0151REMSYN017 333 20235 59015;
0096832420999991998032218004-12567-041383FM-12+042799999V0201801N00211220001CN0100001N1+03381+02291100501ADDAA106000091AG10000GF104991011031004501001031MA1999999095851MD1999999-0101REMSYN011 333 59010;
0134832420999991998032300004-12567-041383FM-12+042799999V0202301N00101220001CN9999999N9+02861+02031100741ADDAA106000091AG10000GF101991011031004501001001KA1240M+03401MA1999999096031MD1999999-0111REMSYN017 333 10340 59011;EQDQ01+000002VOVAR 
0096832420999991998032318004-12567-041383FM-12+042799999V0202301N00211220001CN0100001N1+03321+02201100501ADDAA106000091AG10000GF102991011031004501001031MA1999999095851MD1999999+0001REMSYN011 333 58000;
0150832420999991998032400004-12567-041383FM-12+042799999V0200901N00151220001CN9999999N9+02861+02141100831ADDAA106000091AG10000GA1001+999999999GF100991001001999999001001KA1240M+03461MA1999999096121MD1999999+0091REMSYN017 333 10346 58009;EQDQ01+000002VOVAR 
0115832420999991998032412004-12567-041383FM-12+042799999V0201401N00211004201CN0040001N1+02751+02141101161ADDAA106000091AG10000GF106991051021004501061001KA1240N+02291MA1999999096441MD1999999+0061REMSYN017 333 20229 58006;
0096832420999991998032418004-12567-041383FM-12+042799999V0201801N00151220001CN0100001N1+03501+02271100531ADDAA106000091AG10000GF102991011031004501001031MA1999999095871MD1999999+0021REMSYN011 333 58002;
0150832420999991998032500004-12567-041383FM-12+042799999V0203601N00101220001CN9999999N9+02841+02221100731ADDAA106000091AG10000GA1001+999999999GF100991001001999999001001KA1240M+03531MA1999999096031MD1999999-0091REMSYN017 333 10353 59009;EQDQ01+000002VOVAR 
0115832420999991998032512004-12567-041383FM-12+042799999V0202701N00151004201CN0040001N1+02701+02221101251ADDAA106000091AG10000GF105991051031004501001001KA1240N+02311MA1999999096511MD1999999+0071REMSYN017 333 20231 58007;
0115832420999991998032518004-12567-041383FM-12+042799999V0201401N00151220001CN0100001N1+03511+02251100432ADDAA106000091AG10000GF102991011031004501001031MA1999999095771MD1999999-0101REMSYN011 333 59010;EQDQ01+100433APOSLP
0140832420999991998032600004-12567-041383FM-12+042799999V0200501N00151220001CN9999999N9+02801+02181100831ADDAA106000091AG10000GF103991031071004501001001KA1240M+03531MA1999999096111MD1999999-0011MW1131REMSYN017 333 10353 59001;EQDQ01+000002VOVAR 
0115832420999991998032612004-12567-041383FM-12+042799999V0201401N00101105001CN0040001N1+02851+02331101021ADDAA106000091AG10000GF108991011021004501001071KA1240N+02401MA1999999096311MD1999999-0201REMSYN017 333 20240 59020;
0096832420999991998032618004-12567-041383FM-12+042799999V0201801N00211004201CN0100001N1+03561+02321100431ADDAA106000091AG10000GF107991061071004501001031MA1999999095801MD1999999+0031REMSYN011 333 58003;
0162832420999991998032700004-12567-041383FM-12+042799999V0201401N00261004201CN9999999N9+02821+02171100951ADDAA106000191AG10000AY151061AY221061GF108991081071004501999999KA1240M+03581MA1999999096251MD1999999+0141MW1131REMSYN023 333 10358 58014 69911;EQDQ01+000002VOVAR 
0143832420999991998032712004-12567-041383FM-12+042799999V0201801N00151004201CN0040001N1+02601+02351101361ADDAA124002091AG10003AY161061AY221061GF107991071071004501001001KA1240N+02351MA1999999096611MD1999999+0301MW1031REMSYN023 333 20235 58030 60024;
0124832420999991998032718004-12567-041383FM-12+042799999V0201801N00461105001CN0100001N1+03161+02391100781ADDAA106999929AG10000AY151061AY221061GF107991041071004501001031MA1999999096091MD1999999+0291MW1031REMSYN017 333 58029 69901;
0134832420999991998032800004-12567-041383FM-12+042799999V0200901N00101220001CN9999999N9+02611+02291101241ADDAA106000091AG10000GF101991011031004501001001KA1240M+03361MA1999999096481MD1999999+0231REMSYN017 333 10336 58023;EQDQ01+000002VOVAR 
0115832420999991998032812004-12567-041383FM-12+042799999V0201801N00311220001CN0040001N1+02541+02091101461ADDAA106000091AG10000GF104991041021004501001001KA1240N+02271MA1999999096691MD1999999+0081REMSYN017 333 20227 58008;
0096832420999991998032818004-12567-041383FM-12+042799999V0202301N00461220001CN0100001N1+03341+02871100791ADDAA106000091AG10000GF101991011011004501001001MA1999999096101MD1999999+0011REMSYN011 333 58001;
0150832420999991998032900004-12567-041383FM-12+042799999V0201801N00101220001CN9999999N9+02621+01881101131ADDAA106000091AG10000GA1001+999999999GF100991001001999999001001KA1240M+03441MA1999999096371MD1999999-0111REMSYN017 333 10344 59011;EQDQ01+000002VOVAR 
0143832420999991998032912004-12567-041383FM-12+042799999V0201801N00101004201CN0020001N1+02301+02181101381ADDAA124000191AG10000AY151061AY221061GF107991071061004501001001KA1240N+02151MA1999999096581MD1999999-0111MW1401REMSYN023 333 20215 59011 69914;
0124832420999991998032918004-12567-041383FM-12+042799999V0200901N00361004201CN0020001N1+02871+02321100921ADDAA106000591AG10000AY151061AY241061GF108991081071004501999999MA1999999096171MD1999999+0071MW1201REMSYN017 333 58007 69961;
0162832420999991998033000004-12567-041383FM-12+042799999V0209991C00001220001CN9999999N9+02221+02191101051ADDAA106002091AG10003AY161061AY241061GF102991021051004501001001KA1240M+02921MA1999999096231MD1999999-0141MW1021REMSYN023 333 10292 59014 60021;EQDQ01+000002VOVAR 
0150832420999991998033100004-12567-041383FM-12+042799999V0202701N00051220001CN9999999N9+02581+02061100921ADDAA106000091AG10000GA1001+999999999GF100991001001999999001001KA1240M+03321MA1999999096151MD1999999-0081REMSYN017 333 10332 59008;EQDQ01+000002VOVAR 
0115832420999991998033112004-12567-041383FM-12+042799999V0200501N00151220001CN0100001N1+02701+02111101181ADDAA106000091AG10000GF102991021021004501001001KA1240N+02071MA1999999096431MD1999999+0001REMSYN017 333 20207 58000;
0096832420999991998033118004-12567-041383FM-12+042799999V0200901N00211220001CN0100001N1+03441+02251100651ADDAA106000091AG10000GF103991031021004501001001MA1999999095961MD1999999+0031REMSYN011 333 58003;
0150832420999991998040100004-12567-041383FM-12+042799999V0200901N00051220001CN9999999N9+02721+02151100871ADDAA106000091AG10000GA1001+999999999GF100991001001999999001001KA1240M+03461MA1999999096141MD1999999-0011REMSYN017 333 10346 59001;EQDQ01+000002VOVAR 
0115832420999991998040112004-12567-041383FM-12+042799999V0202301N00101220001CN0040001N1+02671+02281101331ADDAA106000091AG10000GF103991031021004501001001KA1240N+02451MA1999999096581MD1999999+0151REMSYN017 333 20245 58015;
0096832420999991998040118004-12567-041383FM-12+042799999V0201801N00151220001CN0100001N1+03391+02431100711ADDAA106000091AG10000GF101991011011004501001001MA1999999096041MD1999999+0081REMSYN011 333 58008;
0134832420999991998040300004-12567-041383FM-12+042799999V0201801N00101220001CN9999999N9+02811+02001100981ADDAA106000091AG10000GF102991011001022501061031KA1240M+03581MA1999999096261MD1999999+0061REMSYN017 333 10358 58006;EQDQ01+000002VOVAR 
0115832420999991998040312004-12567-041383FM-12+042799999V0202301N00211004201CN0040001N1+02561+02231101471ADDAA106000091AG10000GF107991071031004501001001KA1240N+02391MA1999999096711MD1999999+0171REMSYN017 333 20239 58017;
0096832420999991998040318004-12567-041383FM-12+042799999V0202301N00361045001CN0100001N1+03201+02211100921ADDAA106000091AG10000GF107991031031004501061031MA1999999096221MD1999999+0181REMSYN011 333 58018;
0134832420999991998040400004-12567-041383FM-12+042799999V0201801N00311004201CN9999999N9+02661+02141101351ADDAA106000091AG10000GF108991081071004501999999KA1240M+03241MA1999999096581MD1999999+0321REMSYN017 333 10324 58032;EQDQ01+000002VOVAR 
0115832420999991998040412004-12567-041383FM-12+042799999V0201801N00361004201CN0040001N1+02391+01911101491ADDAA106000091AG10000GF108991081051004501999999KA1240N+02271MA1999999096701MD1999999-0011REMSYN017 333 20227 59001;
0096832420999991998040418004-12567-041383FM-12+042799999V0201801N00461021001CN0100001N1+02731+02051101081ADDAA106000091AG10000GF108991081001022501071999MA1999999096311MD1999999+0091REMSYN011 333 58009;
0134832420999991998040500004-12567-041383FM-12+042799999V0201801N00151004201CN9999999N9+02531+02021101351ADDAA106000091AG10000GF108991081071004501999999KA1240M+02761MA1999999096551MD1999999-0031REMSYN017 333 10276 59003;EQDQ01+000002VOVAR 
0115832420999991998040512004-12567-041383FM-12+042799999V0201801N00461220001CN0100001N1+02461+01731101341ADDAA106000091AG10000GF104991011011004501061001KA1240N+02181MA1999999096551MD1999999-0151REMSYN017 333 20218 59015;
0096832420999991998040518004-12567-041383FM-12+042799999V0201801N00311004201CN0100001N1+02981+01981100991ADDAA106000091AG10000GF107991071041004501001001MA1999999096241MD1999999-0071REMSYN011 333 59007;
0134832420999991998040600004-12567-041383FM-12+042799999V0201801N00311004201CN9999999N9+02761+02071101291ADDAA106000091AG10000GF108991081071004501999999KA1240M+03061MA1999999096521MD1999999-0031REMSYN017 333 10306 59003;EQDQ01+000002VOVAR 
0143832420999991998040612004-12567-041383FM-12+042799999V0201801N00211045001CN0100001N1+02521+02111101501ADDAA124001091AG10003AY161061AY221061GF106991021021004501061021KA1240N+02131MA1999999096731MD1999999+0181MW1031REMSYN023 333 20213 58018 60014;
0124832420999991998040618004-12567-041383FM-12+042799999V0201801N00261004201CN0040001N1+02861+02281101101ADDAA106000191AG10000AY151061AY221061GF108991081071004501999999MA1999999096321MD1999999+0081MW1201REMSYN017 333 58008 69911;
0162832420999991998040700004-12567-041383FM-12+042799999V0201801N00101004201CN9999999N9+02561+02231101371ADDAA106000591AG10000AY151061AY221061GF108991081071004501999999KA1240M+03001MA1999999096591MD1999999+0071MW1021REMSYN023 333 10300 58007 69941;EQDQ01+000002VOVAR 
0143832420999991998040712004-12567-041383FM-12+042799999V0201801N00211004201CN0040001N1+02381+02011101641ADDAA124002091AG10003AY161061AY221061GF108991081031004501999999KA1240N+02111MA1999999096831MD1999999+0101MW1401REMSYN023 333 20211 58010 60024;
0096832420999991998040718004-12567-041383FM-12+042799999V0202301N00211220001CN0100001N1+03231+02221100971ADDAA106000091AG10000GF102991021011004501001001MA1999999096241MD1999999-0081REMSYN011 333 59008;
0134832420999991998040800004-12567-041383FM-12+042799999V0201801N00101004201CN9999999N9+02771+02271101241ADDAA106000091AG10000GF107991071051004501001001KA1240M+03291MA1999999096481MD1999999-0111REMSYN017 333 10329 59011;EQDQ01+000002VOVAR 
0096832420999991998040818004-12567-041383FM-12+042799999V0201801N00261220001CN0100001N1+03421+02091100831ADDAA106000091AG10000GF102991011011004501001021MA1999999096141MD1999999-0101REMSYN011 333 59010;
0134832420999991998040900004-12567-041383FM-12+042799999V0202301N00051220001CN9999999N9+02741+01951101151ADDAA106000091AG10000GF102991001001999999001011KA1240M+03441MA1999999096401MD1999999-0081REMSYN017 333 10344 59008;EQDQ01+000002VOVAR 
0115832420999991998040912004-12567-041383FM-12+042799999V0201801N00211045001CN0040001N1+02551+02151101331ADDAA106000091AG10000GF108991031041004501061071KA1240N+02111MA1999999096571MD1999999-0101REMSYN017 333 20211 59010;
0096832420999991998040918004-12567-041383FM-12+042799999V0202301N00101105001CN0100001N1+03101+02261100771ADDAA106000091AG10000GF105991011031004501001031MA1999999096041MD1999999-0101REMSYN011 333 59010;
0134832420999991998041000004-12567-041383FM-12+042799999V0203601N00211220001CN9999999N9+02521+02021100911ADDAA106000091AG10000GF102991021001022501031001KA1240M+03291MA1999999096151MD1999999-0251REMSYN017 333 10329 59025;EQDQ01+000002VOVAR 
0115832420999991998041012004-12567-041383FM-12+042799999V0201801N00151220001CN0040001N1+02601+02231101181ADDAA106000091AG10000GF103991031021004501001001KA1240N+02291MA1999999096411MD1999999-0161REMSYN017 333 20229 59016;
0096832420999991998041018004-12567-041383FM-12+042799999V0201401N00211220001CN0100001N1+03371+02221100521ADDAA106000091AG10000GF102991021021004501001001MA1999999095841MD1999999-0201REMSYN011 333 59020;
0134832420999991998041100004-12567-041383FM-12+042799999V0202301N00211220001CN9999999N9+02801+01901100761ADDAA106000091AG10000GF101991011001022501031001KA1240M+03441MA1999999096041MD1999999-0111REMSYN017 333 10344 59011;EQDQ01+000002VOVAR 
0115832420999991998041112004-12567-041383FM-12+042799999V0209991C00001220001CN0040001N1+02621+02211101211ADDAA106000091AG10000GF103991021031004501061001KA1240N+02301MA1999999096471MD1999999+0061REMSYN017 333 20230 58006;
0096832420999991998041118004-12567-041383FM-12+042799999V0201801N00101220001CN0100001N1+03321+02201100641ADDAA106000091AG10000GF102991021011004501001001MA1999999095951MD1999999+0111REMSYN011 333 58011;
0115832420999991998041212004-12567-041383FM-12+042799999V0201801N00211004201CN0040001N1+02621+02161101371ADDAA106000091AG10000GF107991061031004501061001KA1240N+02341MA1999999096621MD1999999+0151REMSYN017 333 20234 58015;
0096832420999991998041218004-12567-041383FM-12+042799999V0200901N00211220001CN0100001N1+03401+02001100751ADDAA106000091AG10000GF101991011011004501001001MA1999999096081MD1999999+0131REMSYN011 333 58013;
0134832420999991998041300004-12567-041383FM-12+042799999V0201801N00151220001CN9999999N9+02771+01961101081ADDAA106000091AG10000GF101991011001022501031001KA1240M+03461MA1999999096341MD1999999+0071REMSYN017 333 10346 58007;EQDQ01+000002VOVAR 
0121832420999991998041312004-12567-041383FM-12+042799999V0202301N00211004201CN0020001N1+02321+02281101441ADDAA106000091AG10000GF107991071031004501001001KA1240N+02151MA1999999096661MD1999999+0041MW1401REMSYN017 333 20215 58004;
0096832420999991998041318004-12567-041383FM-12+042799999V0201801N00101220001CN0100001N1+03321+02171100731ADDAA106000091AG10000GF101991011011004501001001MA1999999096041MD1999999-0041REMSYN011 333 59004;
0134832420999991998041400004-12567-041383FM-12+042799999V0201401N00101220001CN9999999N9+02671+01891101141ADDAA106000091AG10000GF101991011031004501001001KA1240M+03381MA1999999096361MD1999999+0021REMSYN017 333 10338 58002;EQDQ01+000002VOVAR 
0096832420999991998041418004-12567-041383FM-12+042799999V0201801N00311220001CN0100001N1+03371+02261100671ADDAA106000091AG10000GF102991021011004501001001MA1999999095981MD1999999-0061REMSYN011 333 59006;
0134832420999991998041500004-12567-041383FM-12+042799999V0202301N00101220001CN9999999N9+02661+02041100921ADDAA106000091AG10000GF102991011021004501061001KA1240M+03371MA1999999096181MD1999999-0181REMSYN017 333 10337 59018;EQDQ01+000002VOVAR 
0115832420999991998041512004-12567-041383FM-12+042799999V0201801N00211220001CN0040001N1+02641+02121101201ADDAA106000091AG10000GF104991041021004501001001KA1240N+02271MA1999999096451MD1999999-0151REMSYN017 333 20227 59015;
0096832420999991998041518004-12567-041383FM-12+042799999V0201801N00311220001CN0100001N1+03351+02171100561ADDAA106000091AG10000GF102991021011004501001001MA1999999095871MD1999999-0111REMSYN011 333 59011;
0134832420999991998041600004-12567-041383FM-12+042799999V0201401N00151220001CN9999999N9+02581+01941100811ADDAA106000091AG10000GF101991011001022501031001KA1240M+03421MA1999999096071MD1999999-0111REMSYN017 333 10342 59011;EQDQ01+000002VOVAR 
0115832420999991998041612004-12567-041383FM-12+042799999V0202301N00101004201CN0040001N1+02581+02101101291ADDAA106000091AG10000GF107991051021004501061001KA1240N+02251MA1999999096521MD1999999+0071REMSYN017 333 20225 58007;
0096832420999991998041618004-12567-041383FM-12+042799999V0201801N00211220001CN0100001N1+03361+02171100661ADDAA106000091AG10000GF101991011011004501001001MA1999999095971MD1999999+0101REMSYN011 333 58010;
0150832420999991998041700004-12567-041383FM-12+042799999V0202701N00101220001CN9999999N9+02661+02041100901ADDAA106000091AG10000GA1001+999999999GF100991001001999999001001KA1240M+03361MA1999999096151MD1999999+0081REMSYN017 333 10336 58008;EQDQ01+000002VOVAR 
0115832420999991998041712004-12567-041383FM-12+042799999V0201401N00151004201CN0040001N1+02681+02161101441ADDAA106000091AG10000GF107991061021004501001011KA1240N+02331MA1999999096681MD1999999+0161REMSYN017 333 20233 58016;
0096832420999991998041718004-12567-041383FM-12+042799999V0202701N00101105001CN0100001N1+03261+02301100801ADDAA106000091AG10000GF107991011011004501001031MA1999999096111MD1999999+0141REMSYN011 333 58014;
0150832420999991998041800004-12567-041383FM-12+042799999V0202301N00101220001CN9999999N9+02701+02111101021ADDAA106000091AG10000GA1001+999999999GF100991001001999999001001KA1240M+03361MA1999999096291MD1999999+0141REMSYN017 333 10336 58014;EQDQ01+000002VOVAR 
0115832420999991998041812004-12567-041383FM-12+042799999V0201801N00151004201CN0040001N1+02441+02031101331ADDAA106000091AG10000GF107991071031004501001001KA1240N+02231MA1999999096551MD1999999-0131REMSYN017 333 20223 59013;
0096832420999991998041818004-12567-041383FM-12+042799999V0201801N00211105001CN0100001N1+03251+02081100731ADDAA106000091AG10000GF107991001001999999001021MA1999999096031MD1999999-0081REMSYN011 333 59008;
0112832420999991998041918004-12567-041383FM-12+042799999V0202301N00151220001CN0100001N1+03161+02261100631ADDAA106000091AG10000GA1001+999999999GF100991001001999999001001MA1999999095921MD1999999-0111REMSYN011 333 59011;
0150832420999991998042000004-12567-041383FM-12+042799999V0203601N00051220001CN9999999N9+02561+02151100941ADDAA106000091AG10000GA1001+999999999GF100991001001999999001001KA1240M+03521MA1999999096171MD1999999+0011REMSYN017 333 10352 58001;EQDQ01+000002VOVAR 
0115832420999991998042012004-12567-041383FM-12+042799999V0200901N00211220001CN0040001N1+02661+02141101241ADDAA106000091AG10000GF102991021021004501001001KA1240N+02311MA1999999096481MD1999999+0061REMSYN017 333 20231 58006;
0096832420999991998042018004-12567-041383FM-12+042799999V0201401N00261220001CN0100001N1+03311+02071100701ADDAA106000091AG10000GF104991041031004501001001MA1999999096011MD1999999+0091REMSYN011 333 58009;
0134832420999991998042100004-12567-041383FM-12+042799999V0201801N00151220001CN9999999N9+02681+02091101121ADDAA106000091AG10000GF104991041031004501001001KA1240M+03441MA1999999096351MD1999999+0181REMSYN017 333 10344 58018;EQDQ01+000002VOVAR 
0143832420999991998042112004-12567-041383FM-12+042799999V0201801N00101004201CN0020001N1+02291+02131101481ADDAA124000191AG10000AY151061AY221061GF108991081051004501999999KA1240N+02091MA1999999096651MD1999999+0171MW1401REMSYN023 333 20209 58017 69914;
0135832420999991998042118004-12567-041383FM-12+042799999V0200901N00101045001CN0100001N1+02521+02401101141ADDAA106002091AG10002AY161061GF108991031031004501061071MA1999999096311MD1999999+0301MW1031REMSYN017 333 58030 60021;EQDQ01+000072PSTWM1
0134832420999991998042200004-12567-041383FM-12+042799999V0202301N00051004201CN9999999N9+02471+02071101351ADDAA106000091AG10000GF108991081051004501999999KA1240M+02901MA1999999096541MD1999999+0191REMSYN017 333 10290 58019;EQDQ01+000002VOVAR 
0121832420999991998042212004-12567-041383FM-12+042799999V0201801N00211004201CN0020001N1+02301+02111101631ADDAA124002091AG10000GF108991061051004501011999KA1240N+02131MA1999999096811MD1999999+0161REMSYN023 333 20213 58016 60024;
0096832420999991998042218004-12567-041383FM-12+042799999V0201801N00511220001CN0100001N1+03031+02091101011ADDAA106000091AG10000GF102991021011004501001001MA1999999096261MD1999999-0051REMSYN011 333 59005;
0134832420999991998042300004-12567-041383FM-12+042799999V0201801N00261220001CN9999999N9+02541+01951101391ADDAA106000091AG10000GF102991021041004501001001KA1240M+03101MA1999999096581MD1999999+0041REMSYN017 333 10310 58004;EQDQ01+000002VOVAR 
0096832420999991998042318004-12567-041383FM-12+042799999V0201801N00361220001CN0100001N1+02981+02061100991ADDAA106000091AG10000GF102991999999004501999999MA1999999096231MD1999999-0031REMSYN011 333 59003;
0134832420999991998042400004-12567-041383FM-12+042799999V0201801N00261004201CN9999999N9+02491+02071101381ADDAA106000091AG10000GF108991081051004501999999KA1240M+03021MA1999999096561MD1999999-0021REMSYN017 333 10302 59002;EQDQ01+000002VOVAR 
0143832420999991998042412004-12567-041383FM-12+042799999V0201801N00311004201CN0040001N1+02561+02151101411ADDAA124999929AG10000AY151061AY221061GF107991061031004501061001KA1240N+02131MA1999999096631MD1999999-0141MW1031REMSYN023 333 20213 59014 69904;
0096832420999991998042418004-12567-041383FM-12+042799999V0202701N00151220001CN0100001N1+03211+02141100841ADDAA106000091AG10000GF101991011011004501001001MA1999999096111MD1999999-0121REMSYN011 333 59012;
0134832420999991998042500004-12567-041383FM-12+042799999V0200901N00151004201CN9999999N9+02501+02051101091ADDAA106000091AG10000GF105991051041004501001001KA1240M+03241MA1999999096321MD1999999-0241REMSYN017 333 10324 59024;EQDQ01+000002VOVAR 
0115832420999991998042512004-12567-041383FM-12+042799999V0200501N00101220001CN0040001N1+02621+02071101201ADDAA106000091AG10000GF101991011011004501001001KA1240N+02111MA1999999096431MD1999999-0201REMSYN017 333 20211 59020;
0096832420999991998042518004-12567-041383FM-12+042799999V0201801N00261220001CN0100001N1+03441+01841100521ADDAA106000091AG10000GF101991011011004501001001MA1999999095831MD1999999-0281REMSYN011 333 59028;
0150832420999991998042600004-12567-041383FM-12+042799999V0200901N00101220001CN9999999N9+02621+02071100911ADDAA106000091AG10000GA1001+999999999GF100991001001999999001001KA1240M+03461MA1999999096161MD1999999-0161REMSYN017 333 10346 59016;EQDQ01+000002VOVAR 
0115832420999991998042612004-12567-041383FM-12+042799999V0200901N00101045001CN0040001N1+02491+02131101101ADDAA106000091AG10000GF105991041041004501061001KA1240N+02071MA1999999096331MD1999999-0101REMSYN017 333 20207 59010;
0096832420999991998042618004-12567-041383FM-12+042799999V0202301N00261220001CN0100001N1+03431+02111100451ADDAA106000091AG10000GF101991011011004501001001MA1999999095751MD1999999-0081REMSYN011 333 59008;
0150832420999991998042700004-12567-041383FM-12+042799999V0201801N00211220001CN9999999N9+02761+01971100891ADDAA106000091AG10000GA1001+999999999GF100991001001999999001001KA1240M+03451MA1999999096151MD1999999-0011REMSYN017 333 10345 59001;EQDQ01+000002VOVAR 
0115832420999991998042712004-12567-041383FM-12+042799999V0201401N00151220001CN0040001N1+02501+02051101191ADDAA106000091AG10000GF102991011011004501061001KA1240N+02051MA1999999096441MD1999999+0111REMSYN017 333 20205 58011;
0096832420999991998042718004-12567-041383FM-12+042799999V0200501N00151220001CN0100001N1+03301+02151100521ADDAA106000091AG10000GF102991011011004501001021MA1999999095821MD1999999+0071REMSYN011 333 58007;
0134832420999991998042800004-12567-041383FM-12+042799999V0201401N00101004201CN9999999N9+02761+02141100891ADDAA106000091AG10000GF107991071021004501001001KA1240M+03341MA1999999096151MD1999999+0001REMSYN017 333 10334 58000;EQDQ01+000002VOVAR 
0115832420999991998042812004-12567-041383FM-12+042799999V0201801N00311004201CN0040001N1+02641+02161101221ADDAA106000091AG10000GF106991051041004501061001KA1240N+02301MA1999999096481MD1999999+0041REMSYN017 333 20230 58004;
0096832420999991998042818004-12567-041383FM-12+042799999V0201801N00151220001CN0100001N1+03271+02321100671ADDAA106000091AG10000GF102991011021004501001021MA1999999095981MD1999999+0161REMSYN011 333 58016;
0134832420999991998042900004-12567-041383FM-12+042799999V0209991C00001220001CN9999999N9+02621+02161101021ADDAA106000091AG10000GF102991021041004501001001KA1240M+03271MA1999999096281MD1999999+0131REMSYN017 333 10327 58013;EQDQ01+000002VOVAR 
0096832420999991998042918004-12567-041383FM-12+042799999V0202701N00511045001CN0200001N1+03031+02131100801ADDAA106000091AG10000GF107991031021008001021001MA1999999095941MD1999999+0311REMSYN011 333 58031;
0134832420999991998043000004-12567-041383FM-12+042799999V0201801N00051220001CN9999999N9+02701+02221100961ADDAA106000091AG10000GF102991001001999999001031KA1240M+03231MA1999999096211MD1999999-0071REMSYN017 333 10323 59007;EQDQ01+000002VOVAR 
0115832420999991998043012004-12567-041383FM-12+042799999V0201801N00151004201CN0040001N1+02651+02141101131ADDAA106000091AG10000GF107991051031004501061011KA1240N+02391MA1999999096391MD1999999-0201REMSYN017 333 20239 59020;
0096832420999991998043018004-12567-041383FM-12+042799999V0201401N00211220001CN0100001N1+03341+02151100521ADDAA106000091AG10000GF102991011031004501061011MA1999999095851MD1999999-0231REMSYN011 333 59023;
0134832420999991998050100004-12567-041383FM-12+042799999V0203601N00151004201CN9999999N9+02861+02281100721ADDAA106000091AG10000GF108991081031004501999999KA1240M+03361MA1999999096011MD1999999-0201REMSYN017 333 10336 59020;EQDQ01+000002VOVAR 
0115832420999991998050112004-12567-041383FM-12+042799999V0201801N00151220001CN0040001N1+02561+02231101001ADDAA106000091AG10000GF104991031041004501061001KA1240N+02401MA1999999096271MD1999999-0121REMSYN017 333 20240 59012;
0096832420999991998050118004-12567-041383FM-12+042799999V0202301N00211220001CN0100001N1+03421+02231100331ADDAA106000091AG10000GF104991031031004501061031MA1999999095681MD1999999-0171REMSYN011 333 59017;
0134832420999991998050200004-12567-041383FM-12+042799999V0203601N00101004201CN9999999N9+02781+02231100641ADDAA106000091AG10000GF107991061031004501061001KA1240M+03461MA1999999095911MD1999999-0101REMSYN017 333 10346 59010;EQDQ01+000002VOVAR 
0121832420999991998050212004-12567-041383FM-12+042799999V0201801N00101004201CN0040001N1+02561+02231101031ADDAA106000091AG10000GF108991081031004501999999KA1240N+02451MA1999999096301MD1999999+0031MW1401REMSYN017 333 20245 58003;
0096832420999991998050218004-12567-041383FM-12+042799999V0201801N00211045001CN0100001N1+03161+02321100541ADDAA106000091AG10000GF107991041031004501061031MA1999999095861MD1999999+0181REMSYN011 333 58018;
0134832420999991998050300004-12567-041383FM-12+042799999V0202701N00051045001CN9999999N9+02661+02221100861ADDAA106000091AG10000GF107991011031004501011031KA1240M+03261MA1999999096111MD1999999+0201REMSYN017 333 10326 58020;EQDQ01+000002VOVAR 
0115832420999991998050312004-12567-041383FM-12+042799999V0200501N00101004201CN0040001N1+02541+02211101271ADDAA106000091AG10000GF107991061051004501061001KA1240N+02401MA1999999096501MD1999999+0201REMSYN017 333 20240 58020;
0096832420999991998050318004-12567-041383FM-12+042799999V0201801N00211004201CN0100001N1+03091+02181100831ADDAA106000091AG10000GF106991051031004501061001MA1999999096121MD1999999+0261REMSYN011 333 58026;
0134832420999991998050400004-12567-041383FM-12+042799999V0202701N00101220001CN9999999N9+02561+02081101161ADDAA106000091AG10000GF102991011001022501061031KA1240M+03201MA1999999096391MD1999999+0281REMSYN017 333 10320 58028;EQDQ01+000002VOVAR 
0115832420999991998050412004-12567-041383FM-12+042799999V0200901N00151004201CN0040001N1+02611+02071101441ADDAA106000091AG10000GF106991061051004501001001KA1240N+02271MA1999999096671MD1999999+0271REMSYN017 333 20227 58027;
0096832420999991998050418004-12567-041383FM-12+042799999V0201801N00211004201CN0100001N1+03221+02171100831ADDAA106000091AG10000GF106991051021004501061001MA1999999096121MD1999999+0001REMSYN011 333 58000;
0134832420999991998050500004-12567-041383FM-12+042799999V0200901N00101021001CN9999999N9+02721+02031101071ADDAA106000091AG10000GF106991061001022501051001KA1240M+03281MA1999999096321MD1999999-0071REMSYN017 333 10328 59007;EQDQ01+000002VOVAR 
0150832420999991998050600004-12567-041383FM-12+042799999V0202701N00151220001CN9999999N9+02591+01841101071ADDAA106000091AG10000GA1001+999999999GF100991001001999999001001KA1240M+03421MA1999999096321MD1999999+0001REMSYN017 333 10342 58000;EQDQ01+000002VOVAR 
0121832420999991998050612004-12567-041383FM-12+042799999V0201801N00151004201CN0040001N1+02551+02151101391ADDAA106000091AG10000GF107991071031004501001001KA1240N+02211MA1999999096611MD1999999-0021MW1401REMSYN017 333 20221 59002;
0096832420999991998050618004-12567-041383FM-12+042799999V0201801N00211220001CN0100001N1+03221+02051100841ADDAA106000091AG10000GF102991021031004501001001MA1999999096111MD1999999+0081REMSYN011 333 58008;
0134832420999991998050700004-12567-041383FM-12+042799999V0201801N00311004201CN9999999N9+02761+01971101151ADDAA106000091AG10000GF107991071051004501001001KA1240M+03301MA1999999096401MD1999999+0081REMSYN017 333 10330 58008;EQDQ01+000002VOVAR 
0143832420999991998050712004-12567-041383FM-12+042799999V0201801N00211004201CN0040001N1+02501+02051101401ADDAA124000191AG10000AY151061AY241061GF107991051051004501061001KA1240N+02171MA1999999096641MD1999999+0031MW1031REMSYN023 333 20217 58003 69914;
0096832420999991998050718004-12567-041383FM-12+042799999V0201801N00261220001CN0100001N1+03061+02051100941ADDAA106000091AG10000GF104991021031004501051091MA1999999096211MD1999999+0101REMSYN011 333 58010;
0162832420999991998050800004-12567-041383FM-12+042799999V0200901N00051004201CN9999999N9+02541+02111101381ADDAA106001091AG10000AY151061AY221061GF108991081071004501999999KA1240M+03081MA1999999096591MD1999999+0191MW1021REMSYN023 333 10308 58019 69981;EQDQ01+000002VOVAR 
0143832420999991998050812004-12567-041383FM-12+042799999V0202301N00101004201CN0040001N1+02341+02071101691ADDAA124003091AG10002AY161061AY241061GF107991061031004501051001KA1240N+02051MA1999999096881MD1999999+0241MW1031REMSYN023 333 20205 58024 60034;
0096832420999991998050818004-12567-041383FM-12+042799999V0201801N00261004201CN0100001N1+02841+02071101331ADDAA106000091AG10000GF107991071031004501001001MA1999999096521MD1999999+0311REMSYN011 333 58031;
0112832420999991998051118004-12567-041383FM-12+042799999V0201801N00261220001CN0100001N1+03091+01661101161ADDAA106000091AG10000GA1001+999999999GF100991001001999999001001MA1999999096401MD1999999-0261REMSYN011 333 59026;
0115832420999991998051212004-12567-041383FM-12+042799999V0201401N00151220001CN0100001N1+02401+01971101661ADDAA106000091AG10000GF102991011011004501001011KA1240N+01871MA1999999096841MD1999999-0111REMSYN017 333 20187 59011;
0096832420999991998051218004-12567-041383FM-12+042799999V0201401N00101220001CN0100001N1+03111+02081101161ADDAA106000091AG10000GF104991031031004501061001MA1999999096391MD1999999-0011REMSYN011 333 59001;
0134832420999991998051300004-12567-041383FM-12+042799999V0201801N00261004201CN9999999N9+02541+02151101451ADDAA106000091AG10000GF107991051031004501061031KA1240M+03181MA1999999096651MD1999999-0031REMSYN017 333 10318 59003;EQDQ01+000002VOVAR 
0143832420999991998051312004-12567-041383FM-12+042799999V0201801N00151004201CN0040001N1+02431+02271101631ADDAA124002091AG10002AY161061AY241061GF106991051071004501061001KA1240N+02171MA1999999096831MD1999999-0011MW1401REMSYN023 333 20217 59001 60024;
0096832420999991998051318004-12567-041383FM-12+042799999V0201801N00151220001CN0100001N1+02891+02151101221ADDAA106000091AG10000GF104991021031004501061031MA1999999096451MD1999999+0061REMSYN011 333 58006;
0162832420999991998051400004-12567-041383FM-12+042799999V0201801N00101004201CN9999999N9+02301+02271101531ADDAA106003091AG10002AY161061AY241061GF108991081071004501999999KA1240M+02901MA1999999096701MD1999999+0051MW1021REMSYN023 333 10290 58005 60031;EQDQ01+000002VOVAR 
0143832420999991998051412004-12567-041383FM-12+042799999V0201801N00261045001CN0040001N1+02381+01911101661ADDAA124004091AG10000AY151061AY221061GF106991031031004501061011KA1240N+02091MA1999999096831MD1999999+0001MW1031REMSYN023 333 20209 58000 60044;
0096832420999991998051418004-12567-041383FM-12+042799999V0201401N00211220001CN0100001N1+03091+01871101091ADDAA106000091AG10000GF102991011011004501001011MA1999999096331MD1999999-0121REMSYN011 333 59012;
0134832420999991998051500004-12567-041383FM-12+042799999V0200901N00051220001CN9999999N9+02321+01761101341ADDAA106000091AG10000GF101991001001999999001011KA1240M+03121MA1999999096521MD1999999-0181REMSYN017 333 10312 59018;EQDQ01+000002VOVAR 
0115832420999991998051512004-12567-041383FM-12+042799999V0201801N00151220001CN0100001N1+02191+01801101571ADDAA106000091AG10000GF101991011011004501001001KA1240N+01631MA1999999096721MD1999999-0111REMSYN017 333 20163 59011;
0112832420999991998051518004-12567-041383FM-12+042799999V0201801N00361220001CN0100001N1+03041+01681101001ADDAA106000091AG10000GA1001+999999999GF100991001001999999001001MA1999999096201MD1999999-0131REMSYN011 333 59013;
0150832420999991998051600004-12567-041383FM-12+042799999V0201801N00101220001CN9999999N9+02341+01691101201ADDAA106000091AG10000GA1001+999999999GF100991001001999999001001KA1240M+03041MA1999999096371MD1999999-0151REMSYN017 333 10304 59015;EQDQ01+000002VOVAR 
0115832420999991998051612004-12567-041383FM-12+042799999V0201801N00211220001CN0100001N1+02331+01811101451ADDAA106000091AG10000GF103991011011004501001021KA1240N+01741MA1999999096631MD1999999-0091REMSYN017 333 20174 59009;
0096832420999991998051618004-12567-041383FM-12+042799999V0201401N00311220001CN0100001N1+03061+01931100871ADDAA106000091AG10000GF103991021011004501001031MA1999999096101MD1999999-0101REMSYN011 333 59010;
0134832420999991998051700004-12567-041383FM-12+042799999V0203601N00101220001CN9999999N9+02411+01911101181ADDAA106000091AG10000GF102991001001999999001021KA1240M+03181MA1999999096371MD1999999+0001REMSYN017 333 10318 58000;EQDQ01+000002VOVAR 
0096832420999991998051712004-12567-041383FM-12+042799999V0201401N00211220001CN0100001N1+02511+01891101421ADDAA106000091AG10000GF103991011011004501001011MA1999999096621MD1999999-0011REMSYN011 333 59001;
0096832420999991998051718004-12567-041383FM-12+042799999V0201801N00151045001CN0100001N1+03101+01971100951ADDAA106000091AG10000GF107991031031004501061031MA1999999096211MD1999999+0111REMSYN011 333 58011;
0150832420999991998051800004-12567-041383FM-12+042799999V0202701N00101220001CN9999999N9+02501+01941101361ADDAA106000091AG10000GA1001+999999999GF100991001001999999001001KA1240M+03141MA1999999096571MD1999999+0201REMSYN017 333 10314 58020;EQDQ01+000002VOVAR 
0121832420999991998051812004-12567-041383FM-12+042799999V0201801N00151004201CN0040001N1+02441+02011101631ADDAA106000091AG10000GF107991061031004501061001KA1240N+02201MA1999999096821MD1999999+0201MW1401REMSYN017 333 20220 58020;
0096832420999991998051818004-12567-041383FM-12+042799999V0201401N00151220001CN0100001N1+02941+02081101201ADDAA106000091AG10000GF104991021031004501061001MA1999999096441MD1999999+0281REMSYN011 333 58028;
0134832420999991998051900004-12567-041383FM-12+042799999V0200501N00051004201CN9999999N9+02521+02021101591ADDAA106000091AG10000GF108991081071004501999999KA1240M+03061MA1999999096791MD1999999+0221REMSYN017 333 10306 58022;EQDQ01+000002VOVAR 
0143832420999991998051912004-12567-041383FM-12+042799999V0201801N00151220001CN0040001N1+02351+01971101851ADDAA124000191AG10000AY151061AY221061GF104991021031004501061001KA1240N+02131MA1999999097031MD1999999+0211MW1011REMSYN023 333 20213 58021 69914;
0096832420999991998051918004-12567-041383FM-12+042799999V0201801N00411220001CN0100001N1+02911+01951101341ADDAA106000091AG10000GF102991011031004501031001MA1999999096561MD1999999+0121REMSYN011 333 58012;
0134832420999991998052000004-12567-041383FM-12+042799999V0200901N00051220001CN9999999N9+02441+01901101711ADDAA106000091AG10000GF104991001001999999001031KA1240M+02941MA1999999096891MD1999999+0101REMSYN017 333 10294 58010;EQDQ01+000002VOVAR 
0115832420999991998052012004-12567-041383FM-12+042799999V0201801N00151004201CN0040001N1+02141+01741101851ADDAA106000091AG10000GF107991071041004501001001KA1240N+01811MA1999999097001MD1999999-0031REMSYN017 333 20181 59003;
0096832420999991998052018004-12567-041383FM-12+042799999V0202701N00101004201CN0100001N1+02741+02021101371ADDAA106000091AG10000GF108991081031004501999999MA1999999096551MD1999999-0011REMSYN011 333 59001;
0134832420999991998052100004-12567-041383FM-12+042799999V0203601N00051220001CN9999999N9+02411+01931101641ADDAA106000091AG10000GF103991021031004501001031KA1240M+02781MA1999999096801MD1999999-0091REMSYN017 333 10278 59009;EQDQ01+000002VOVAR 
0143832420999991998052112004-12567-041383FM-12+042799999V0201801N00261004201CN0010001N1+02021+01951101851ADDAA124002091AG10002AY161061AY221061GF108991081061004501999999KA1240N+02001MA1999999096981MD1999999-0021MW1201REMSYN023 333 20200 59002 60024;
0135832420999991998052118004-12567-041383FM-12+042799999V0201801N00101004201CN0040001N1+02391+02231101411ADDAA106002091AG10002AY161061GF107991051071004501061031MA1999999096581MD1999999+0031MW1401REMSYN017 333 58003 60021;EQDQ01+000072PSTWM1
0134832420999991998052200004-12567-041383FM-12+042799999V0209991C00001004201CN9999999N9+02281+02141101701ADDAA106000091AG10000GF108991081061004501999999KA1240M+02531MA1999999096831MD1999999+0031REMSYN017 333 10253 58003;EQDQ01+000002VOVAR 
0154832420999991998052212004-12567-041383FM-12+042799999V0202301N00151004201CN0040001N1+02101+02071101861ADDAA124006091AG10002AY161061GF108991081061004501999999KA1240N+01981MA1999999096991MD1999999+0011MW1401REMSYN023 333 20198 58001 60064;EQDQ01+000072PSTWM1
0096832420999991998052218004-12567-041383FM-12+042799999V0201801N00151004201CN0100001N1+02491+02111101481ADDAA106000091AG10000GF108991081031004501999999MA1999999096641MD1999999+0061REMSYN011 333 58006;
0134832420999991998052300004-12567-041383FM-12+042799999V0203601N00101004201CN9999999N9+02301+02181101701ADDAA106000091AG10000GF108991081071004501999999KA1240M+02531MA1999999096841MD1999999+0011REMSYN017 333 10253 58001;EQDQ01+000002VOVAR 
0143832420999991998052312004-12567-041383FM-12+042799999V0201801N00151004201CN0040001N1+02141+01991101941ADDAA124002091AG10002AY161061AY221061GF107991061071004501061001KA1240N+01951MA1999999097071MD1999999+0081MW1401REMSYN023 333 20195 58008 60024;
0096832420999991998052318004-12567-041383FM-12+042799999V0202701N00051220001CN0100001N1+02841+02071101341ADDAA106000091AG10000GF104991031021004501061001MA1999999096541MD1999999-0101REMSYN011 333 59010;
0134832420999991998052400004-12567-041383FM-12+042799999V0201801N00051004201CN9999999N9+02401+01971101711ADDAA106000091AG10000GF107991071051004501001001KA1240M+02871MA1999999096861MD1999999+0021REMSYN017 333 10287 58002;EQDQ01+000002VOVAR 
0115832420999991998052412004-12567-041383FM-12+042799999V0201801N00211004201CN0040001N1+02271+01811101801ADDAA106000091AG10000GF107991061031004501051001KA1240N+01971MA1999999096961MD1999999-0111REMSYN017 333 20197 59011;
0096832420999991998052418004-12567-041383FM-12+042799999V0201801N00261220001CN0100001N1+02961+01931101221ADDAA106000091AG10000GF101991011011004501001001MA1999999096441MD1999999-0101REMSYN011 333 59010;
0115832420999991998052512004-12567-041383FM-12+042799999V0200901N00151220001CN0100001N1+02321+01811101771ADDAA106000091AG10000GF101991011011004501001001KA1240N+01711MA1999999096931MD1999999-0031REMSYN017 333 20171 59003;
0150832420999991998052600004-12567-041383FM-12+042799999V0202301N00101220001CN9999999N9+02381+01891101461ADDAA106000091AG10000GA1001+999999999GF100991001001999999001001KA1240M+03101MA1999999096641MD1999999-0161REMSYN017 333 10310 59016;EQDQ01+000002VOVAR 
0115832420999991998052612004-12567-041383FM-12+042799999V0201801N00101220001CN0100001N1+02301+01681101721ADDAA106000091AG10000GF101991001001999999001011KA1240N+01731MA1999999096891MD1999999-0041REMSYN017 333 20173 59004;
0096832420999991998052618004-12567-041383FM-12+042799999V0202301N00411220001CN0100001N1+03071+01851101151ADDAA106000091AG10000GF103991011011004501061011MA1999999096361MD1999999+0021REMSYN011 333 58002;
0150832420999991998052700004-12567-041383FM-12+042799999V0200901N00051220001CN9999999N9+02381+01951101351ADDAA106000091AG10000GA1001+999999999GF100991001001999999001001KA1240M+03081MA1999999096531MD1999999-0111REMSYN017 333 10308 59011;EQDQ01+000002VOVAR 
0121832420999991998052712004-12567-041383FM-12+042799999V0200901N00101004201CN0040001N1+02361+01971101621ADDAA106000091AG10000GF107991071041004501001001KA1240N+02071MA1999999096791MD1999999-0101MW1401REMSYN017 333 20207 59010;
0096832420999991998052718004-12567-041383FM-12+042799999V0201401N00151220001CN0100001N1+02901+02171101221ADDAA106000091AG10000GF102991011011004501001011MA1999999096441MD1999999+0081REMSYN011 333 58008;
0150832420999991998052800004-12567-041383FM-12+042799999V0203601N00151220001CN9999999N9+02301+01851101341ADDAA106000091AG10000GA1001+999999999GF100991001001999999001001KA1240M+02971MA1999999096521MD1999999-0011REMSYN017 333 10297 59001;EQDQ01+000002VOVAR 
0121832420999991998052812004-12567-041383FM-12+042799999V0203601N00051004201CN0040001N1+02301+02031101551ADDAA106000091AG10000GF107991071041004501001001KA1240N+01941MA1999999096711MD1999999-0081MW1401REMSYN017 333 20194 59008;
0112832420999991998052818004-12567-041383FM-12+042799999V0202301N00261220001CN0100001N1+03081+02161101071ADDAA106000091AG10000GA1001+999999999GF100991001001999999001001MA1999999096301MD1999999-0141REMSYN011 333 59014;
0150832420999991998052900004-12567-041383FM-12+042799999V0203601N00101220001CN9999999N9+02361+01951101331ADDAA106000091AG10000GA1001+999999999GF100991001001999999001001KA1240M+03121MA1999999096511MD1999999-0011REMSYN017 333 10312 59001;EQDQ01+000002VOVAR 
0121832420999991998052912004-12567-041383FM-12+042799999V0201801N00211004201CN0040001N1+02321+02021101711ADDAA106000091AG10000GF107991051031004501051001KA1240N+01911MA1999999096881MD1999999+0171MW1401REMSYN017 333 20191 58017;
0096832420999991998052918004-12567-041383FM-12+042799999V0201401N00151220001CN0100001N1+03061+01991101111ADDAA106000091AG10000GF104991031021004501061001MA1999999096331MD1999999+0031REMSYN011 333 58003;
0134832420999991998053000004-12567-041383FM-12+042799999V0202701N00101220001CN9999999N9+02411+01841101361ADDAA106000091AG10000GF101991011011004501001001KA1240M+03091MA1999999096541MD1999999+0031REMSYN017 333 10309 58003;EQDQ01+000002VOVAR 
0115832420999991998053012004-12567-041383FM-12+042799999V0201401N00101004201CN0040001N1+02371+01801101671ADDAA106000091AG10000GF106991061041004501001001KA1240N+01791MA1999999096851MD1999999-0031REMSYN017 333 20179 59003;
0112832420999991998053018004-12567-041383FM-12+042799999V0202301N00211220001CN0100001N1+03081+02071100961ADDAA106000091AG10000GA1001+999999999GF100991001001999999001001MA1999999096191MD1999999-0141REMSYN011 333 59014;
0134832420999991998053100004-12567-041383FM-12+042799999V0209991C00001220001CN9999999N9+02531+01981101221ADDAA106000091AG10000GF102991011011004501061001KA1240M+03151MA1999999096431MD1999999-0111REMSYN017 333 10315 59011;EQDQ01+000002VOVAR 
0115832420999991998053112004-12567-041383FM-12+042799999V0201801N00151045001CN0040001N1+02491+02111101471ADDAA106000091AG10000GF108991041021004501061071KA1240N+02071MA1999999096681MD1999999-0171REMSYN017 333 20207 59017;
0096832420999991998053118004-12567-041383FM-12+042799999V0200901N00101220001CN0100001N1+03311+02101100951ADDAA106000091AG10000GF101991011011004501001001MA1999999096221MD1999999+0031REMSYN011 333 58003;
0134832420999991998060100004-12567-041383FM-12+042799999V0200901N00051220001CN9999999N9+02531+01981101251ADDAA106000091AG10000GF102991011011004501051001KA1240M+03361MA1999999096471MD1999999+0041REMSYN017 333 10336 58004;EQDQ01+000002VOVAR 
0143832420999991998060112004-12567-041383FM-12+042799999V0201801N00151004201CN0040001N1+02471+02211101741ADDAA124000191AG10000AY151061AY211061GF108991081031004501999999KA1240N+02251MA1999999096931MD1999999+0251MW1021REMSYN023 333 20225 58025 69914;
0102832420999991998060118004-12567-041383FM-12+042799999V0202301N00211004201CN0040001N1+02601+02191101421ADDAA106000091AG10000GF107991061031004501061001MA1999999096621MD1999999+0401MW1151REMSYN011 333 58040;
0134832420999991998060200004-12567-041383FM-12+042799999V0200901N00051004201CN9999999N9+02331+02221101741ADDAA106000091AG10000GF108991081051004501999999KA1240M+03061MA1999999096911MD1999999+0441REMSYN017 333 10306 58044;EQDQ01+000002VOVAR 
0143832420999991998060212004-12567-041383FM-12+042799999V0201401N00101004201CN0020001N1+02121+02041102051ADDAA124001091AG10000AY151061AY221061GF108991081051004501999999KA1240N+02051MA1999999097181MD1999999+0251MW1401REMSYN023 333 20205 58025 60014;
0096832420999991998060218004-12567-041383FM-12+042799999V0201801N00211004201CN0100001N1+02551+02151101591ADDAA106000091AG10000GF107991071031004501001001MA1999999096751MD1999999+0131REMSYN011 333 58013;
0162832420999991998060300004-12567-041383FM-12+042799999V0201801N00101004201CN9999999N9+02141+02111101781ADDAA106002091AG10002AY161061AY221061GF108991081071004501999999KA1240M+02621MA1999999096901MD1999999-0011MW1201REMSYN023 333 10262 59001 60021;EQDQ01+000002VOVAR 
0143832420999991998060312004-12567-041383FM-12+042799999V0201401N00211004201CN0040001N1+02291+02001101991ADDAA124002091AG10000AY151061AY221061GF107991051031004501061011KA1240N+02021MA1999999097111MD1999999-0071MW1031REMSYN023 333 20202 59007 60024;
0096832420999991998060318004-12567-041383FM-12+042799999V0201401N00311220001CN0100001N1+02911+01831101451ADDAA106000091AG10000GF102991011011004501061001MA1999999096651MD1999999-0101REMSYN011 333 59010;
0134832420999991998060400004-12567-041383FM-12+042799999V0200501N00101220001CN9999999N9+02321+01851101761ADDAA106000091AG10000GF102991011021004501061001KA1240M+02951MA1999999096911MD1999999+0011REMSYN017 333 10295 58001;EQDQ01+000002VOVAR 
0115832420999991998060412004-12567-041383FM-12+042799999V0201401N00461220001CN0100001N1+02351+01781101951ADDAA106000091AG10000GF103991021021004501061001KA1240N+01971MA1999999097101MD1999999-0011REMSYN017 333 20197 59001;
0096832420999991998060418004-12567-041383FM-12+042799999V0201801N00261220001CN0100001N1+02721+01821101491ADDAA106000091AG10000GF103991011031004501061021MA1999999096671MD1999999+0021REMSYN011 333 58002;
0134832420999991998060500004-12567-041383FM-12+042799999V0202301N00101004201CN9999999N9+02341+01781101771ADDAA106000091AG10000GF107991071051004501001001KA1240M+02831MA1999999096931MD1999999+0021REMSYN017 333 10283 58002;EQDQ01+000002VOVAR 
0115832420999991998060512004-12567-041383FM-12+042799999V0201801N00151220001CN0100001N1+02101+01741102001ADDAA106000091AG10000GF102991011011004501001021KA1240N+01741MA1999999097121MD1999999+0021REMSYN017 333 20174 58002;
0096832420999991998060518004-12567-041383FM-12+042799999V0201801N00211220001CN0100001N1+02881+01891101391ADDAA106000091AG10000GF102991021011004501001001MA1999999096581MD1999999-0091REMSYN011 333 59009;
0134832420999991998060600004-12567-041383FM-12+042799999V0200901N00151004201CN9999999N9+02431+01951101811ADDAA106000091AG10000GF108991081071004501999999KA1240M+02901MA1999999096951MD1999999+0021REMSYN017 333 10290 58002;EQDQ01+000002VOVAR 
0115832420999991998060612004-12567-041383FM-12+042799999V0201801N00361004201CN0040001N1+02161+01661102131ADDAA106000091AG10000GF107991071051004501001001KA1240N+01871MA1999999097271MD1999999+0151REMSYN017 333 20187 58015;
0096832420999991998060618004-12567-041383FM-12+042799999V0201801N00361004201CN0100001N1+02491+01871101791ADDAA106000091AG10000GF107991061031004501001031MA1999999096931MD1999999+0351REMSYN011 333 58035;
0134832420999991998060700004-12567-041383FM-12+042799999V0201401N00211004201CN9999999N9+02201+01781102001ADDAA106000091AG10000GF108991081071004501999999KA1240M+02521MA1999999097121MD1999999+0171REMSYN017 333 10252 58017;EQDQ01+000002VOVAR 
0115832420999991998060712004-12567-041383FM-12+042799999V0201801N00361220001CN0100001N1+02181+01371102031ADDAA106000091AG10000GF101991011011004501001001KA1240N+01911MA1999999097151MD1999999-0121REMSYN017 333 20191 59012;
0096832420999991998060718004-12567-041383FM-12+042799999V0201401N00261220001CN0100001N1+02791+01721101511ADDAA106000091AG10000GF103991021011004501061001MA1999999096691MD1999999-0241REMSYN011 333 59024;
0134832420999991998060800004-12567-041383FM-12+042799999V0200901N00101004201CN9999999N9+02341+01691101771ADDAA106000091AG10000GF107991071031004501001001KA1240M+02841MA1999999096911MD1999999-0211REMSYN017 333 10284 59021;EQDQ01+000002VOVAR 
0115832420999991998060812004-12567-041383FM-12+042799999V0202301N00151220001CN0100001N1+02011+01481101881ADDAA106000091AG10000GF102991011011004501001011KA1240N+01451MA1999999097011MD1999999-0141REMSYN017 333 20145 59014;
0096832420999991998060818004-12567-041383FM-12+042799999V0202301N00311220001CN0100001N1+02861+01751101391ADDAA106000091AG10000GF102991011011004501061011MA1999999096551MD1999999-0141REMSYN011 333 59014;
0134832420999991998060900004-12567-041383FM-12+042799999V0209991C00001004201CN9999999N9+02341+01601101621ADDAA106000091AG10000GF107991061031004501061001KA1240M+02881MA1999999096761MD1999999-0151REMSYN017 333 10288 59015;EQDQ01+000002VOVAR 
0115832420999991998060912004-12567-041383FM-12+042799999V0201401N00151220001CN0100001N1+02341+01761101741ADDAA106000091AG10000GF102991011011004501001091KA1240N+01911MA1999999096901MD1999999-0111REMSYN017 333 20191 59011;
0096832420999991998060918004-12567-041383FM-12+042799999V0202301N00151220001CN0100001N1+02941+01821101271ADDAA106000091AG10000GF102991011011004501061001MA1999999096481MD1999999-0071REMSYN011 333 59007;
0134832420999991998061000004-12567-041383FM-12+042799999V0203601N001510042019N9999999N9+02521+01931101551ADDAA106000091AG10000GF106991051031004501061001KA1240M+02981MA1999999096741MD1999999-0021REMSYN017 333 10298 59002;EQDQ01+000002VOVAR 
0143832420999991998061012004-12567-041383FM-12+042799999V0201801N00261004201CN0020001N1+02221+02051101741ADDAA124001091AG10002AY161061AY241061GF107991051071004501061031KA1240N+02011MA1999999096901MD1999999+0001MW1401REMSYN023 333 20201 58000 60014;
0096832420999991998061018004-12567-041383FM-12+042799999V0201801N00101045001CN0100001N1+02831+02091101251ADDAA106000091AG10000GF105991041031004501051001MA1999999096471MD1999999-0011REMSYN011 333 59001;
0134832420999991998061100004-12567-041383FM-12+042799999V0203601N00211004201CN9999999N9+02441+01951101581ADDAA106000091AG10000GF107991071031004501001001KA1240M+02901MA1999999096751MD1999999+0011REMSYN017 333 10290 58001;EQDQ01+000002VOVAR 
0143832420999991998061112004-12567-041383FM-12+042799999V0201801N00101004201CN0040001N1+02341+02071101701ADDAA124000591AG10000AY151061AY241061GF106991051031004501061001KA1240N+02071MA1999999096881MD1999999-0021MW1031REMSYN023 333 20207 59002 69964;
0096832420999991998061118004-12567-041383FM-12+042799999V0202301N00211220001CN0100001N1+03041+01971101141ADDAA106000091AG10000GF102991011011004501061001MA1999999096391MD1999999-0081REMSYN011 333 59008;
0134832420999991998061200004-12567-041383FM-12+042799999V0202301N00101004201CN9999999N9+02651+01921101451ADDAA106000091AG10000GF107991071031004501001001KA1240M+03091MA1999999096661MD1999999-0091REMSYN017 333 10309 59009;EQDQ01+000002VOVAR 
0115832420999991998061212004-12567-041383FM-12+042799999V0201801N00151220001CN0100001N1+02391+01891101681ADDAA106000091AG10000GF102991021011004501061001KA1240N+01891MA1999999096881MD1999999+0001REMSYN017 333 20189 58000;
0096832420999991998061218004-12567-041383FM-12+042799999V0201801N00311220001CN0100001N1+03101+01461101151ADDAA106000091AG10000GF102991011011004501061001MA1999999096411MD1999999+0021REMSYN011 333 58002;
0134832420999991998061300004-12567-041383FM-12+042799999V0202301N00101004201CN9999999N9+02461+01901101651ADDAA106000091AG10000GF107991071031004501001001KA1240M+03121MA1999999096841MD1999999+0181REMSYN017 333 10312 58018;EQDQ01+000002VOVAR 
0115832420999991998061312004-12567-041383FM-12+042799999V0201401N00261220001CN0100001N1+02321+01741102021ADDAA106000091AG10000GF102991011011004501001011KA1240N+01911MA1999999097181MD1999999+0301REMSYN017 333 20191 58030;
0096832420999991998061318004-12567-041383FM-12+042799999V0201401N00261004201CN0100001N1+02911+01771101521ADDAA106000091AG10000GF106991061031004501001001MA1999999096721MD1999999+0311REMSYN011 333 58031;
0134832420999991998061400004-12567-041383FM-12+042799999V0201801N00311004201CN9999999N9+02241+01881101851ADDAA106000091AG10000GF108991081071004501999999KA1240M+02941MA1999999097001MD1999999+0161REMSYN017 333 10294 58016;EQDQ01+000002VOVAR 
0143832420999991998061412004-12567-041383FM-12+042799999V0201801N00311004201CN0040001N1+02081+01721102071ADDAA124003091AG10002AY161061AY221061GF107991071031004501001001KA1240N+01871MA1999999097181MD1999999+0001MW1031REMSYN023 333 20187 58000 60034;
0096832420999991998061418004-12567-041383FM-12+042799999V0201801N00211004201CN0100001N1+02441+01691101681ADDAA106000091AG10000GF107991071031004501001001MA1999999096811MD1999999+0091REMSYN011 333 58009;
0134832420999991998061500004-12567-041383FM-12+042799999V0202301N00151004201CN9999999N9+02241+01671101831ADDAA106000091AG10000GF108991081031004501999999KA1240M+02481MA1999999096951MD1999999-0051REMSYN017 333 10248 59005;EQDQ01+000002VOVAR 
0115832420999991998061512004-12567-041383FM-12+042799999V0201401N00411004201CN0040001N1+02161+01541101931ADDAA106000091AG10000GF107991051031004501011001KA1240N+01951MA1999999097061MD1999999-0121REMSYN017 333 20195 59012;
0096832420999991998061518004-12567-041383FM-12+042799999V0201801N00411004201CN0100001N1+02361+01731101611ADDAA106000091AG10000GF107991071031004501001001MA1999999096751MD1999999-0061REMSYN011 333 59006;
0134832420999991998061600004-12567-041383FM-12+042799999V0201801N00311004201CN9999999N9+02091+01761101801ADDAA106000091AG10000GF108991081031004501999999KA1240M+02421MA1999999096921MD1999999-0031REMSYN017 333 10242 59003;EQDQ01+000002VOVAR 
0115832420999991998061612004-12567-041383FM-12+042799999V0201401N00411004201CN0040001N1+02091+01581101861ADDAA106000091AG10000GF108991081031004501999999KA1240N+01831MA1999999096971MD1999999+0091REMSYN017 333 20183 58009;
0096832420999991998061618004-12567-041383FM-12+042799999V0201801N00411004201CN0100001N1+02451+01881101431ADDAA106000091AG10000GF108991071031004501011001MA1999999096571MD1999999-0181REMSYN011 333 59018;
0134832420999991998061700004-12567-041383FM-12+042799999V0201401N00101004201CN9999999N9+02241+01861101681ADDAA106000091AG10000GF108991081071004501999999KA1240M+02461MA1999999096811MD1999999-0111REMSYN017 333 10246 59011;EQDQ01+000002VOVAR 
0115832420999991998061712004-12567-041383FM-12+042799999V0201401N00151004201CN0040001N1+02191+01841101771ADDAA106000091AG10000GF107991051031004501011001KA1240N+02011MA1999999096901MD1999999-0071REMSYN017 333 20201 59007;
0096832420999991998061718004-12567-041383FM-12+042799999V0203601N00151004201CN0100001N1+02731+02021101241ADDAA106000091AG10000GF107991061031004501061001MA1999999096431MD1999999-0141REMSYN011 333 59014;
0150832420999991998061800004-12567-041383FM-12+042799999V0200901N00051220001CN9999999N9+02181+01861101451ADDAA106000091AG10000GA1001+999999999GF100991001001999999001001KA1240M+02781MA1999999096601MD1999999-0211REMSYN017 333 10278 59021;EQDQ01+000002VOVAR 
0154832420999991998061812004-12567-041383FM-12+042799999V0201801N00051004201CN0020001N1+02151+02091101741ADDAA124003091AG10002AY161061GF108991081061004501999999KA1240N+02011MA1999999096871MD1999999-0031MW1401REMSYN023 333 20201 59003 60034;EQDQ01+000072PSTWM1
0124832420999991998061818004-12567-041383FM-12+042799999V0202701N00151004201CN0100001N1+02761+02121101271ADDAA106999929AG10000AY151061AY221061GF106991051031004501061001MA1999999096471MD1999999+0041MW1151REMSYN017 333 58004 69901;
0162832420999991998061900004-12567-041383FM-12+042799999V0202301N00151004201CN9999999N9+02221+02171101581ADDAA106004091AG10002AY161061AY221061GF107991071061004501001001KA1240M+02821MA1999999096721MD1999999+0121MW1031REMSYN023 333 10282 58012 60041;EQDQ01+000002VOVAR 
0143832420999991998061912004-12567-041383FM-12+042799999V0200901N00211004201CN0040001N1+02301+01851101761ADDAA124004091AG10000AY151061AY241061GF106991051031004501001011KA1240N+01981MA1999999096901MD1999999+0031MW1031REMSYN023 333 20198 58003 60044;
