0150833390999991998010100004-14050-042617FM-12+088299999V0209991C00001220001CN9999999N9+02421+01311101071ADDAA106000091AG10000GA1001+999999999GF100991001001999999001001KA1240M+03051MA1999999091391MD1999999-0131REMSYN017 333 10305 59013;EQDQ01+000002VOVAR 
0115833390999991998010112004-14050-042617FM-12+088299999V0201401N00311220001CN0200001N1+02481+01851101321ADDAA106000091AG10000GF102991021021004501001001KA1240N+01961MA1999999091631MD1999999-0041REMSYN017 333 20196 59004;
0096833390999991998010118004-14050-042617FM-12+088299999V0201401N00621220001CN0200001N1+03061+01471100901ADDAA106000091AG10000GF103991031021004501001001MA1999999091271MD1999999+0011REMSYN011 333 58001;
0150833390999991998010200004-14050-042617FM-12+088299999V0201801N00101220001CN9999999N9+02501+01391101081ADDAA106000091AG10000GA1001+999999999GF100991001001999999001001KA1240M+03101MA1999999091431MD1999999+0041REMSYN017 333 10310 58004;EQDQ01+000002VOVAR 
0115833390999991998010212004-14050-042617FM-12+088299999V0200901N00411220001CN0200001N1+02601+01761101281ADDAA106000091AG10000GF102991021021004501001001KA1240N+02041MA1999999091621MD1999999-0011REMSYN017 333 20204 59001;
0096833390999991998010218004-14050-042617FM-12+088299999V0201401N00411220001CN0200001N1+03121+01481100841ADDAA106000091AG10000GF104991041021004501001001MA1999999091231MD1999999-0041REMSYN011 333 59004;
0134833390999991998010300004-14050-042617FM-12+088299999V0201401N00151220001CN9999999N9+02681+01991100921ADDAA106000091AG10000GF103991031021004501001001KA1240M+03201MA1999999091311MD1999999-0121REMSYN017 333 10320 59012;EQDQ01+000002VOVAR 
0131833390999991998010312004-14050-042617FM-12+088299999V0200901N00261220001CN0200001N1+02621+01881101171ADDAA106000091AG10000GA1001+999999999GF100991001001999999001001KA1240N+02041MA1999999091541MD1999999-0081REMSYN017 333 20204 59008;
0134833390999991998010412004-14050-042617FM-12+088299999V0200901N00361220001CN0200001N1+02561+01831101071ADDAA106000091AG10000GF102991001001999999001011KA1240N+01961MA1999999091441MD1999999-0101REMSYN017 333 20196 59010;EQDQ01+000982SCOLCB
0096833390999991998010418004-14050-042617FM-12+088299999V0201401N00311220001CN0200001N1+03301+01091100651ADDAA106000091AG10000GF102991021021004501001001MA1999999091381MD1999999-0061REMSYN011 333 59006;
0150833390999991998010500004-14050-042617FM-12+088299999V0202301N00151220001CN9999999N9+02701+01071100861ADDAA106000091AG10000GA1001+999999999GF100991001001999999001001KA1240M+03361MA1999999091251MD1999999+0051REMSYN017 333 10336 58005;EQDQ01+000002VOVAR 
0115833390999991998010512004-14050-042617FM-12+088299999V0200501N00151220001CN0200001N1+02621+01671101091ADDAA106000091AG10000GF102991011021004501001021KA1240N+01881MA1999999091461MD1999999+0021REMSYN017 333 20188 58002;
0150833390999991998010600004-14050-042617FM-12+088299999V0201401N00211220001CN9999999N9+02761+00941100851ADDAA106000091AG10000GA1001+999999999GF100991001001999999001001KA1240M+03401MA1999999091251MD1999999+0001REMSYN017 333 10340 58000;EQDQ01+000002VOVAR 
0115833390999991998010612004-14050-042617FM-12+088299999V0200501N00511220001CN0200001N1+02681+01991101181ADDAA106000091AG10000GF102991021021004501001001KA1240N+02021MA1999999091551MD1999999+0091REMSYN017 333 20202 58009;
0096833390999991998010618004-14050-042617FM-12+088299999V0201401N00151220001CN0200001N1+03281+01391100661ADDAA106000091AG10000GF104991041021004501001001MA1999999091101MD1999999+0001REMSYN011 333 58000;
0162833390999991998010700004-14050-042617FM-12+088299999V0201401N00151004201CN9999999N9+02481+01751100871ADDAA106008091AG10003AY161061AY261061GF105991051021004501001001KA1240M+03501MA1999999091251MD1999999+0001MW1021REMSYN023 333 10350 58000 60081;EQDQ01+000002VOVAR 
0143833390999991998010712004-14050-042617FM-12+088299999V0202301N00411220001CN0200001N1+02471+01971101241ADDAA124008091AG10003AY161061AY261061GF104991031021004501031001KA1240N+02131MA1999999091551MD1999999+0001MW1021REMSYN023 333 20213 58000 60084;
0096833390999991998010718004-14050-042617FM-12+088299999V0202701N00571220001CN0200001N1+03281+01241100691ADDAA106000091AG10000GF103991021021004501021001MA1999999091121MD1999999+0021REMSYN011 333 58002;
0134833390999991998010800004-14050-042617FM-12+088299999V0202701N00101004201CN9999999N9+02241+01841101021ADDAA106000091AG10000GF106991061021004501001001KA1240M+03291MA1999999091341MD1999999+0091REMSYN017 333 10329 58009;EQDQ01+000002VOVAR 
0118833390999991998010818004-14050-042617FM-12+088299999V0203601N00211004201CN0040001N1+02281+01921101111ADDAA106000091AG10010AY191061AY201061GF107991061021004501021999MA1999999091351MD1999999+0231MW1101REMSYN011 333 58023;
0134833390999991998010900004-14050-042617FM-12+088299999V0202701N00151004201CN9999999N9+02381+01991101061ADDAA106000091AG10000GF106991061021004501001001KA1240M+02961MA1999999091421MD1999999+0081REMSYN017 333 10296 58008;EQDQ01+000002VOVAR 
0115833390999991998010912004-14050-042617FM-12+088299999V0203601N00051004201CN0200001N1+02441+01921101251ADDAA106000091AG10000GF106991061021004501001001KA1240N+02101MA1999999091551MD1999999+0071REMSYN017 333 20210 58007;
0096833390999991998010918004-14050-042617FM-12+088299999V0203601N00311004201CN0200001N1+02941+01621100931ADDAA106000091AG10000GF107991061021004501021999MA1999999091301MD1999999-0051REMSYN011 333 59005;
0134833390999991998011000004-14050-042617FM-12+088299999V0201401N00151004201CN9999999N9+02301+01851101131ADDAA106000091AG10000GF105991051021004501001001KA1240M+03021MA1999999091441MD1999999+0021REMSYN017 333 10302 58002;EQDQ01+000002VOVAR 
0115833390999991998011012004-14050-042617FM-12+088299999V0200501N00151004201CN0200001N1+02321+01961101411ADDAA106000091AG10000GF106991061021004501001001KA1240N+02001MA1999999091681MD1999999+0131REMSYN017 333 20200 58013;
0096833390999991998011018004-14050-042617FM-12+088299999V0200501N00211220001CN0200001N1+03101+01541101011ADDAA106000091AG10000GF104991041021004501001001MA1999999091381MD1999999+0081REMSYN011 333 58008;
0134833390999991998011100004-14050-042617FM-12+088299999V0202701N00051004201CN9999999N9+02501+01841101261ADDAA106000091AG10000GF106991061021004501001001KA1240M+03181MA1999999091561MD1999999+0121REMSYN017 333 10318 58012;EQDQ01+000002VOVAR 
0143833390999991998011112004-14050-042617FM-12+088299999V0200501N00311004201CN0040001N1+01921+01751101561ADDAA124041091AG10010AY191061AY261061GF108991081051004501999999KA1240N+01761MA1999999091801MD1999999+0121MW1101REMSYN023 333 20176 58012 60414;
0096833390999991998011118004-14050-042617FM-12+088299999V0200501N00461105001CN0200001N1+02801+01811101251ADDAA106000091AG10000GF105991041021004501001021MA1999999091541MD1999999+0161REMSYN011 333 58016;
0134833390999991998011200004-14050-042617FM-12+088299999V0201401N00461220001CN9999999N9+02401+01931101411ADDAA106000091AG10000GF103991031021004501001001KA1240M+02831MA1999999091651MD1999999+0141REMSYN017 333 10283 58014;EQDQ01+000002VOVAR 
0115833390999991998011212004-14050-042617FM-12+088299999V0200901N00571220001CN0200001N1+02481+01801101411ADDAA106000091AG10000GF102991011021004501001011KA1240N+01941MA1999999091711MD1999999-0091REMSYN017 333 20194 59009;
0096833390999991998011218004-14050-042617FM-12+088299999V0200901N00511004201CN0200001N1+02781+01761101141ADDAA106000091AG10000GF106991051021004501001011MA1999999091461MD1999999-0081REMSYN011 333 59008;
0134833390999991998011300004-14050-042617FM-12+088299999V0200901N00311004201CN9999999N9+02481+01851101241ADDAA106000091AG10000GF108991081021004501999999KA1240M+02841MA1999999091561MD1999999-0091REMSYN017 333 10284 59009;EQDQ01+000002VOVAR 
0115833390999991998011312004-14050-042617FM-12+088299999V0200901N00511220001CN0200001N1+02281+01791101381ADDAA106000091AG10000GF104991031021004501001011KA1240N+02001MA1999999091671MD1999999-0041REMSYN017 333 20200 59004;
0150833390999991998011400004-14050-042617FM-12+088299999V0201401N00411220001CN9999999N9+02541+01761101051ADDAA106000091AG10000GA1001+999999999GF100991001001999999001001KA1240M+02961MA1999999091371MD1999999-0191REMSYN017 333 10296 59019;EQDQ01+000002VOVAR 
0115833390999991998011412004-14050-042617FM-12+088299999V0201401N00311004201CN0200001N1+02471+02011101161ADDAA106000091AG10000GF106991061021004501001001KA1240N+02101MA1999999091491MD1999999-0181REMSYN017 333 20210 59018;
0096833390999991998011418004-14050-042617FM-12+088299999V0200901N00571220001CN0200001N1+02941+01821100841ADDAA106000091AG10000GF104991041021004501001001MA1999999091221MD1999999-0041REMSYN011 333 59004;
0150833390999991998011500004-14050-042617FM-12+088299999V0202301N00261220001CN9999999N9+02461+01831100971ADDAA106000091AG10000GA1001+999999999GF100991001001999999001001KA1240M+02981MA1999999091351MD1999999-0061REMSYN017 333 10298 59006;EQDQ01+000002VOVAR 
0115833390999991998011512004-14050-042617FM-12+088299999V0200901N00361220001CN0200001N1+02441+01921101151ADDAA106000091AG10000GF106991041021004501001011KA1240N+02071MA1999999091471MD1999999-0021REMSYN017 333 20207 59002;
0096833390999991998011518004-14050-042617FM-12+088299999V0202401N00261004201CN0200001N1+03011+01801100741ADDAA106000091AG10000GF106991051021004501001011MA1999999091541MD1999999-0081REMSYN011 333 59008;
0134833390999991998011600004-14050-042617FM-12+088299999V0201401N00361220001CN9999999N9+02581+01771100871ADDAA106000091AG10000GF102991021021004501001001KA1240M+03021MA1999999091241MD1999999-0071REMSYN017 333 10302 59007;EQDQ01+000002VOVAR 
0115833390999991998011612004-14050-042617FM-12+088299999V0200901N00311220001CN0200001N1+02501+01941101061ADDAA106000091AG10000GF106991041021004501001011KA1240N+02121MA1999999091421MD1999999-0051REMSYN017 333 20212 59005;
0172833390999991998012200004-14050-042617FM-12+088299999V0209991C00001220001CN9999999N9+02151+01951101231ADDAA106000091AG10000AY101061AY201061GA1001+999999999GF100991001001999999001001KA1240M+02461MA1999999091481MD1999999+0001MW1101REMSYN017 333 10246 58000;EQDQ01+000002VOVAR 
0137833390999991998012212004-14050-042617FM-12+088299999V0201401N00151004201CN0040001N1+02061+01931101311ADDAA106000091AG10000AY101061AY201061GF108991081051004501999999KA1240N+01961MA1999999091551MD1999999-0011MW1101REMSYN017 333 20196 59001;
0096833390999991998012218004-14050-042617FM-12+088299999V0200901N00311004201CN0200001N1+02421+01881101031ADDAA106000091AG10000GF106991051021004501021001MA1999999091321MD1999999-0101REMSYN011 333 59010;
0137833390999991998012312004-14050-042617FM-12+088299999V0201401N00311004201CN0200001N1+02221+01961101251ADDAA106000091AG10000AY101061AY201061GF106991051021004501021001KA1240N+02021MA1999999091521MD1999999-0031MW1101REMSYN017 333 20202 59003;
0096833390999991998012318004-14050-042617FM-12+088299999V0201401N00261004201CN0200001N1+02681+01781100791ADDAA106000091AG10000GF106991051021004501031001MA1999999091151MD1999999-0171REMSYN011 333 59017;
0162833390999991998012400004-14050-042617FM-12+088299999V0200901N00101004201CN9999999N9+02221+99999101111ADDAA106001091AG10003AY161061AY261061GF108991081051004501999999KA1240M+02821MA1999999091391MD1999999-0051MW1101REMSYN023 333 10282 59005 69981;EQDQ01+000002VOVAR 
0096833390999991998012418004-14050-042617FM-12+088299999V0201401N00211220001CN0200001N1+02581+02011100881ADDAA106000091AG10000GF104991041021004501001001MA1999999091201MD1999999+0051REMSYN011 333 58005;
0162833390999991998012500004-14050-042617FM-12+088299999V0200901N00151004201CN9999999N9+02021+01901101211ADDAA106004091AG10010AY191061AY261061GF108991081051004501999999KA1240M+02731MA1999999091461MD1999999+0071MW1621REMSYN023 333 10273 58007 60041;EQDQ01+000002VOVAR 
0143833390999991998012512004-14050-042617FM-12+088299999V0201401N00571220001CN0200001N1+02321+02021101241ADDAA124011091AG10003AY161061AY261061GF103991031021004501001001KA1240N+02001MA1999999091501MD1999999-0041MW1101REMSYN023 333 20200 59004 60114;
0096833390999991998012518004-14050-042617FM-12+088299999V0201401N00101220001CN0200001N1+03001+01781100781ADDAA106000091AG10000GF102991021021004501001001MA1999999091151MD1999999-0051REMSYN011 333 59005;
0143833390999991998012612004-14050-042617FM-12+088299999V0200901N00211004201CN0200001N1+02401+02091101401ADDAA124006091AG10003AY161061AY221061GF106991061021004501001001KA1240N+02041MA1999999091671MD1999999+0171MW1021REMSYN023 333 20204 58017 60064;
0096833390999991998012618004-14050-042617FM-12+088299999V0200501N00261004201CN0200001N1+03021+01921100911ADDAA106000091AG10000GF106991061021004501001001MA1999999091271MD1999999+0121REMSYN011 333 58012;
0134833390999991998012700004-14050-042617FM-12+088299999V0201401N00411220001CN9999999N9+02461+01701101181ADDAA106000091AG10000GF103991031021004501001001KA1240M+03021MA1999999091511MD1999999+0151REMSYN017 333 10302 58015;EQDQ01+000002VOVAR 
0115833390999991998012712004-14050-042617FM-12+088299999V0201401N00511004201CN0200001N1+02181+01971101631ADDAA106000091AG10000GF108991051021004501021999KA1240N+02061MA1999999091881MD1999999+0211REMSYN017 333 20206 58021;
0096833390999991998012718004-14050-042617FM-12+088299999V0201401N00461220001CN0200001N1+02901+01871101131ADDAA106000091AG10000GF106991041021004501001011MA1999999091461MD1999999+0191REMSYN011 333 58019;
0150833390999991998012800004-14050-042617FM-12+088299999V0209991C00001220001CN9999999N9+02481+01831101291ADDAA106000091AG10000GA1001+999999999GF100991001001999999001001KA1240M+02921MA1999999091571MD1999999+0071REMSYN017 333 10292 58007;EQDQ01+000002VOVAR 
0115833390999991998012812004-14050-042617FM-12+088299999V0200901N00461045001CN0200001N1+02281+02031101671ADDAA106000091AG10000GF108991041021004501021999KA1240N+02141MA1999999091941MD1999999+0061REMSYN017 333 20214 58006;
0096833390999991998012818004-14050-042617FM-12+088299999V0201401N00461220001CN0200001N1+02941+01791101131ADDAA106000091AG10000GF104991041021004501001001MA1999999091481MD1999999+0021REMSYN011 333 58002;
0134833390999991998012900004-14050-042617FM-12+088299999V0201401N00511220001CN9999999N9+02621+01731101351ADDAA106000091AG10000GF104991041021004501001001KA1240M+03051MA1999999091621MD1999999+0051REMSYN017 333 10305 58005;EQDQ01+000002VOVAR 
0115833390999991998012912004-14050-042617FM-12+088299999V0200901N00621004201CN0200001N1+02331+01831101581ADDAA106000091AG10000GF105991051021004501001001KA1240N+02001MA1999999091861MD1999999-0081REMSYN017 333 20200 59008;
0096833390999991998012918004-14050-042617FM-12+088299999V0201401N00511220001CN0200001N1+02881+01831101221ADDAA106000091AG10000GF102991021021004501001001MA1999999091541MD1999999+0061REMSYN011 333 58006;
0115833390999991998013112004-14050-042617FM-12+088299999V0201401N00411004201CN0200001N1+02301+01981101571ADDAA106000091AG10000GF106991061021004501001001KA1240N+02051MA1999999091851MD1999999+0061REMSYN017 333 20205 58006;
0096833390999991998020118004-14050-042617FM-12+088299999V0200501N00571220001CN0200001N1+03201+01631101101ADDAA106000091AG10000GF104991041021004501001071MA1999999091471MD1999999-0081REMSYN011 333 59008;
0134833390999991998020200004-14050-042617FM-12+088299999V0201401N00671220001CN9999999N9+02701+01541101221ADDAA106000091AG10000GF102991021021004501001001KA1240M+03231MA1999999091561MD1999999+0031REMSYN017 333 10323 58003;EQDQ01+000002VOVAR 
0115833390999991998020212004-14050-042617FM-12+088299999V0200901N00511220001CN0200001N1+02451+01761101441ADDAA106000091AG10000GF102991021021004501001001KA1240N+02041MA1999999091751MD1999999-0071REMSYN017 333 20204 59007;
0096833390999991998020218004-14050-042617FM-12+088299999V0200501N00621220001CN0200001N1+03151+01411101001ADDAA106000091AG10000GF104991031021004501021001MA1999999091391MD1999999-0081REMSYN011 333 59008;
0134833390999991998020300004-14050-042617FM-12+088299999V0201401N00311004201CN9999999N9+02731+01241101031ADDAA106000091AG10000GF105991051021004501001001KA1240M+03191MA1999999091401MD1999999-0161REMSYN017 333 10319 59016;EQDQ01+000002VOVAR 
0137833390999991998020312004-14050-042617FM-12+088299999V0200501N00571004201CN0200001N1+02361+01991101331ADDAA106000091AG10000AY101061AY201061GF106991061021004501001001KA1240N+02131MA1999999091651MD1999999-0101MW1101REMSYN017 333 20213 59010;
0096833390999991998020318004-14050-042617FM-12+088299999V0201401N00411220001CN0200001N1+03141+01451100901ADDAA106000091AG10000GF103991021021004501001021MA1999999091311MD1999999-0081REMSYN011 333 59008;
0139833390999991998020400004-14050-042617FM-12+088299999V0200501N00051220001CN9999999N9+99999+99999999999ADDAA106000091AG10000GA1001+999999999GF100991001001999999001001MA1999999093392REMSYN017 333 10/// 59///;EQDQ01+093393APOSP Q02+000002VOVAR 
0131833390999991998020412004-14050-042617FM-12+088299999V0201401N00311220001CN0200001N1+02551+01831101251ADDAA106000091AG10000GA1001+999999999GF100991001001999999001001KA1240N+02101MA1999999091601MD1999999-0051REMSYN017 333 20210 59005;
0096833390999991998020418004-14050-042617FM-12+088299999V0200501N00411220001CN0200001N1+03351+00941100771ADDAA106000091AG10000GF102991021021004501001001MA1999999091191MD1999999-0121REMSYN011 333 59012;
0150833390999991998020500004-14050-042617FM-12+088299999V0201801N00311220001CN9999999N9+02901+00871100921ADDAA106000091AG10000GA1001+999999999GF100991001001999999001001KA1240M+03441MA1999999091321MD1999999-0071REMSYN017 333 10344 59007;EQDQ01+000002VOVAR 
0134833390999991998020512004-14050-042617FM-12+088299999V0201801N002619999999N0200001N1+02551+01981101221ADDAA106000091AG10000GF105991999021008001001001KA1240N+02241MA1999999091591MD1999999-0011REMSYN017 333 20224 59001;EQDQ01+000022SCOTLC
0096833390999991998020518004-14050-042617FM-12+088299999V0200501N00511220001CN0200001N1+03381+00771100841ADDAA106000091AG10000GF104991041021004501001001MA1999999091261MD1999999+0071REMSYN011 333 58007;
0150833390999991998020600004-14050-042617FM-12+088299999V0209991C00001220001CN9999999N9+02601+01511101041ADDAA106000091AG10000GA1001+999999999GF100991001001999999001001KA1240M+03461MA1999999091401MD1999999+0081REMSYN017 333 10346 58008;EQDQ01+000002VOVAR 
0131833390999991998020612004-14050-042617FM-12+088299999V0200501N00311220001CN0200001N1+02741+01761101301ADDAA106000091AG10000GA1001+999999999GF100991001001999999001001KA1240N+02041MA1999999091651MD1999999+0061REMSYN017 333 20204 58006;
0096833390999991998020618004-14050-042617FM-12+088299999V0203201N00051004201CN0200001N1+03401+01251100891ADDAA106000091AG10000GF105991051021004501001001MA1999999091311MD1999999+0051REMSYN011 333 58005;
0124833390999991998020718004-14050-042617FM-12+088299999V0203201N00511004201CN0200001N1+03001+02001101001ADDAA106000191AG10009AY191061AY261061GF106991061021004501001001MA1999999091351MD1999999+0041MW1021REMSYN017 333 58004 69921;
0134833390999991998020800004-14050-042617FM-12+088299999V0209991C00001004201CN9999999N9+02441+01921101161ADDAA106000091AG10000GF106991061021004501001001KA1240M+03381MA1999999091521MD1999999+0071REMSYN017 333 10338 58007;EQDQ01+000002VOVAR 
0143833390999991998020812004-14050-042617FM-12+088299999V0200501N00211004201CN0200001N1+02681+01941101301ADDAA124000191AG10003AY161061AY261061GF105991051021004501001001KA1240N+02241MA1999999091641MD1999999+0001MW1021REMSYN023 333 20224 58000 69924;
0118833390999991998020818004-14050-042617FM-12+088299999V0203601N00151220001CN0200001N1+03141+01771100871ADDAA106000091AG10009AY191061AY201061GF104991041021004501001001MA1999999091291MD1999999-0061MW1021REMSYN011 333 59006;
0162833390999991998020900004-14050-042617FM-12+088299999V0203601N00511004201CN9999999N9+02361+01991101081ADDAA106006091AG10009AY191061AY261061GF108991081051004501999999KA1240M+03381MA1999999091431MD1999999-0091MW1171REMSYN023 333 10338 59009 60061;EQDQ01+000002VOVAR 
0143833390999991998020912004-14050-042617FM-12+088299999V0200501N00151220001CN0200001N1+02761+01991101371ADDAA124006091AG10003AY161061AY221061GF104991021021004501001011KA1240N+02221MA1999999091691MD1999999+0051MW1021REMSYN023 333 20222 58005 60064;
0118833390999991998020918004-14050-042617FM-12+088299999V0202701N00311004201CN0200001N1+03281+01891100861ADDAA106000091AG10000AY121061AY221061GF105991051021004501001001MA1999999091271MD1999999-0021MW1171REMSYN011 333 59002;
0156833390999991998021000004-14050-042617FM-12+088299999V0209991C00001220001CN9999999N9+02401+01991101031ADDAA106000091AG10009AY191061AY221061GF102991021021004501001001KA1240M+03321MA1999999091401MD1999999-0031MW1021REMSYN017 333 10332 59003;EQDQ01+000002VOVAR 
0115833390999991998021012004-14050-042617FM-12+088299999V0201401N00361004201CN0200001N1+02461+02051101361ADDAA106000091AG10000GF108991051021004501031999KA1240N+02201MA1999999091661MD1999999-0031REMSYN017 333 20220 59003;
0096833390999991998021018004-14050-042617FM-12+088299999V0203601N00101220001CN0200001N1+03181+01771100961ADDAA106000091AG10000GF103991031021004501001001MA1999999091351MD1999999+0081REMSYN011 333 58008;
0156833390999991998021100004-14050-042617FM-12+088299999V0202301N00411220001CN9999999N9+02541+02041101141ADDAA106000091AG10000AY121061AY221061GF102991021021004501001001KA1240M+03301MA1999999091471MD1999999+0071MW1131REMSYN017 333 10330 58007;EQDQ01+000002VOVAR 
0143833390999991998021112004-14050-042617FM-12+088299999V0200901N00151004201CN0200001N1+02221+02081101431ADDAA124006091AG10003AY161061AY241061GF108991061021004501021999KA1240N+02201MA1999999091721MD1999999+0061MW1601REMSYN023 333 20220 58006 60064;
0124833390999991998021118004-14050-042617FM-12+088299999V0200501N00311220001CN0200001N1+03181+01801100901ADDAA106000591AG10003AY161061AY221061GF104991041021004501001001MA1999999091291MD1999999-0061MW1021REMSYN017 333 59006 69951;
0134833390999991998021200004-14050-042617FM-12+088299999V0209991C00001220001CN9999999N9+02601+02061101091ADDAA106000091AG10000GF104991021021004501001011KA1240M+03241MA1999999091411MD1999999-0061REMSYN017 333 10324 59006;EQDQ01+000002VOVAR 
0143833390999991998021212004-14050-042617FM-12+088299999V0200501N00101004201CN0200001N1+02761+01991101191ADDAA124000591AG10003AY161061AY221061GF106991061021004501001001KA1240N+02221MA1999999091561MD1999999-0161MW1021REMSYN023 333 20222 59016 69954;
0124833390999991998021218004-14050-042617FM-12+088299999V0203201N00311004201CN0200001N1+02841+02091100901ADDAA106001091AG10003AY161061AY221061GF106991061021004501001001MA1999999091271MD1999999-0021MW1021REMSYN017 333 59002 60011;
0161833390999991998021300004-14050-042617FM-12+088299999V0209991C000019999999N9999999N9+02201+02011101261ADDAG10003AZ161061AZ291061GF108991061021999999021999KA1240M+03081MA1999999091411MD1999999+0071REMSYN023 333 10308 58007 600//;EQDQ01+000002VOVAR Q02+000772PRSWOA
0143833390999991998021312004-14050-042617FM-12+088299999V0201401N00511004201CN0010001N1+02121+01951101601ADDAA124084091AG10009AY191061AY261061GF108991051021004501021999KA1240N+02021MA1999999091831MD1999999+0271MW1401REMSYN023 333 20202 58027 60844;
0137833390999991998021318004-14050-042617FM-12+088299999V0200901N00411220001CN0200001N1+02721+02031101251ADDAA106000091AG10000AY141061AY221061GF101991999021004501001001MA1999999091551MD1999999+0281MW1021REMSYN011 333 58028;EQDQ01+000052SCOTLC
0134833390999991998021400004-14050-042617FM-12+088299999V0202301N00101004201CN9999999N9+02441+01971101401ADDAA106000091AG10000GF108991051021004501031999KA1240M+02741MA1999999091671MD1999999+0091REMSYN017 333 10274 58009;EQDQ01+000002VOVAR 
0115833390999991998021412004-14050-042617FM-12+088299999V0200901N00261220001CN0200001N1+02331+01811101701ADDAA106000091AG10000GF102991021021004501001001KA1240N+01951MA1999999091961MD1999999+0131REMSYN017 333 20195 58013;
0131833390999991998021418004-14050-042617FM-12+088299999V0200901N00311220001CN0200001N1+02881+01701999999ADDAA106000091AG10000GF102991021021004501001001MA1999999999999MD1999999+0071REMSYN011 333 58007;EQDQ01+096123APOSP Q02 096123APOSP 
0150833390999991998021500004-14050-042617FM-12+088299999V0201801N00311220001CN9999999N9+02551+01621101401ADDAA106000091AG10000GF103991031021004501001001KA1240M+02921MA1999999091702MD1999999+0031REMSYN017 333 10292 58003;EQDQ01+091703APOSP Q02+000002VOVAR 
0115833390999991998021512004-14050-042617FM-12+088299999V0201401N00261220001CN0200001N1+02481+01961101601ADDAA106000091AG10000GF105991041021004501001011KA1240N+02041MA1999999091891MD1999999-0071REMSYN017 333 20204 59007;
0096833390999991998021518004-14050-042617FM-12+088299999V0201401N00311045001CN0200001N1+02881+01671101181ADDAA106000091AG10000GF106991041021004501031041MA1999999091501MD1999999-0121REMSYN011 333 59012;
0115833390999991998021612004-14050-042617FM-12+088299999V0201401N00311004201CN0200001N1+02261+01711101531ADDAA106000091AG10000GF106991061021004501001001KA1240N+02061MA1999999091791MD1999999-0101REMSYN017 333 20206 59010;
0096833390999991998021618004-14050-042617FM-12+088299999V0203601N00211004201CN0200001N1+02381+01911101201ADDAA106000091AG10000GF106991061021004501001001MA1999999091481MD1999999-0021REMSYN011 333 59002;
0162833390999991998021700004-14050-042617FM-12+088299999V0200901N00051004201CN9999999N9+02161+01921101331ADDAA106012091AG10003AY161061AY261061GF108991081051004501999999KA1240M+02751MA1999999091591MD1999999-0071MW1101REMSYN023 333 10275 59007 60121;EQDQ01+000002VOVAR 
0143833390999991998021712004-14050-042617FM-12+088299999V0201401N00211004201CN0040001N1+01951+01771101481ADDAA124034091AG10003AY161061AY261061GF108991081051004501999999KA1240N+01961MA1999999091701MD1999999-0091MW1601REMSYN023 333 20196 59009 60344;
0159833390999991998021718004-14050-042617FM-12+088299999V0200901N00311220001CN0200001N1+02501+02071101091ADDAA106004091AG10003AY161061AY261061GF103991031021004501001001MA1999999999999MD1999999-0101MW1021REMSYN017 333 59010 60041;EQDQ01+095383APOSP Q02 095383APOSP 
0178833390999991998021800004-14050-042617FM-12+088299999V0203601N00151004201CN9999999N9+02061+01871101291ADDAA106020091AG10003AY161061AY261061GF108991081051004501999999KA1240M+02601MA1999999091522MD1999999-0071MW1101REMSYN023 333 10260 59007 60201;EQDQ01+091523APOSP Q02+000002VOVAR 
0143833390999991998021812004-14050-042617FM-12+088299999V0200901N00051004201CN0040001N1+02151+01971101421ADDAA124025091AG10003AY161061AY261061GF107991061021004501021999KA1240N+01981MA1999999091651MD1999999-0051MW1101REMSYN023 333 20198 59005 60254;
0124833390999991998021818004-14050-042617FM-12+088299999V0202701N00051004201CN0040001N1+02401+02131101021ADDAA106000591AG10009AY191061AY261061GF106991051021004501021001MA1999999091311MD1999999-0071MW1171REMSYN017 333 59007 69941;
0143833390999991998021912004-14050-042617FM-12+088299999V0200901N00261004201CN0040001N1+02121+01911101361ADDAA124002091AG10003AY161061AY261061GF108991081051004501999999KA1240N+02001MA1999999091601MD1999999-0051MW1101REMSYN023 333 20200 59005 60024;
0096833390999991998021918004-14050-042617FM-12+088299999V0200901N00311004201CN0200001N1+02541+01831101031ADDAA106000091AG10000GF106991061021004501021001MA1999999091331MD1999999+0021REMSYN011 333 58002;
0156833390999991998022000004-14050-042617FM-12+088299999V0200901N00051004201CN9999999N9+02241+01981101181ADDAA106000091AG10000AY101061AY201061GF108991081051004501999999KA1240M+02601MA1999999091451MD1999999-0071MW1101REMSYN017 333 10260 59007;EQDQ01+000002VOVAR 
0137833390999991998022012004-14050-042617FM-12+088299999V0201401N00361004201CN0200001N1+02161+01881101271ADDAA106000091AG10000AY101061AY201061GF106991061021004501001001KA1240N+02001MA1999999091541MD1999999-0061MW1101REMSYN017 333 20200 59006;
0096833390999991998022018004-14050-042617FM-12+088299999V0201401N00411220001CN0200001N1+02701+01721100961ADDAA106000091AG10000GF104991031021004501031001MA1999999091281MD1999999-0051REMSYN011 333 59005;
0134833390999991998022100004-14050-042617FM-12+088299999V0201401N00311220001CN9999999N9+02351+01761101081ADDAA106000091AG10000GF102991021021004501001001KA1240M+02721MA1999999091371MD1999999-0081REMSYN017 333 10272 59008;EQDQ01+000002VOVAR 
0115833390999991998022112004-14050-042617FM-12+088299999V0201401N00261220001CN0200001N1+02361+01911101311ADDAA106000091AG10000GF104991041021004501001001KA1240N+01961MA1999999091601MD1999999+0061REMSYN017 333 20196 58006;
0124833390999991998022118004-14050-042617FM-12+088299999V0200901N00151004201CN0040001N1+02061+01891101141ADDAA106003091AG10009AY191061AY261061GF108991081051004501999999MA1999999091401MD1999999+0121MW1171REMSYN017 333 58012 60031;
0162833390999991998022200004-14050-042617FM-12+088299999V0209991C00001220001CN9999999N9+02141+01801101221ADDAA106001091AG10003AY161061AY261061GF102991021021004501001001KA1240M+02741MA1999999091501MD1999999+0131MW1101REMSYN023 333 10274 58013 60011;EQDQ01+000002VOVAR 
0143833390999991998022212004-14050-042617FM-12+088299999V0200901N00211220001CN0200001N1+02381+01911101421ADDAA124005091AG10003AY161061AY261061GF103991031021004501001001KA1240N+01861MA1999999091681MD1999999+0081MW1021REMSYN023 333 20186 58008 60054;
0096833390999991998022218004-14050-042617FM-12+088299999V0200501N00311004201CN0200001N1+02641+01661101111ADDAA106000091AG10000GF106991061021004501001001MA1999999091401MD1999999+0001REMSYN011 333 58000;
0143833390999991998022312004-14050-042617FM-12+088299999V0201401N00311220001CN0200001N1+02401+02011101491ADDAA124003091AG10003AY161061AY221061GF102991021021004501001001KA1240N+02001MA1999999091761MD1999999+0081MW1021REMSYN023 333 20200 58008 60034;
0096833390999991998022318004-14050-042617FM-12+088299999V0201401N00311220001CN0200001N1+02951+01711101021ADDAA106000091AG10000GF103991031021004501001001MA1999999091371MD1999999-0031REMSYN011 333 59003;
0115833390999991998022412004-14050-042617FM-12+088299999V0200901N00411220001CN0200001N1+02321+01961101471ADDAA106000091AG10000GF102991011021008001001011KA1240N+01921MA1999999091761MD1999999+0001REMSYN017 333 20192 58000;
0096833390999991998022418004-14050-042617FM-12+088299999V0201401N00511220001CN0200001N1+02931+01481101081ADDAA106000091AG10000GF102991011021004501001041MA1999999091411MD1999999+0041REMSYN011 333 58004;
0115833390999991998022512004-14050-042617FM-12+088299999V0201401N00211220001CN0200001N1+02261+01881101391ADDAA106000091AG10000GF104991021021004501001041KA1240N+01961MA1999999091671MD1999999-0091REMSYN017 333 20196 59009;
0100833390999991998022518004-14050-042617FM-12+088299999V0201401N00311220001CN0200001N1+02881+01421100981ADDAA106000091AG10000GF102991011021004501001041MD1999999-0071REMSYN011 333 59007;EQDQ01+095343APOSP 
0150833390999991998022600004-14050-042617FM-12+088299999V0201801N00261220001CN9999999N9+02461+01611101111ADDAA106000091AG10000GA1001+999999999GF100991001001999999001001KA1240M+02901MA1999999091421MD1999999-0071REMSYN017 333 10290 59007;EQDQ01+000002VOVAR 
0134833390999991998022612004-14050-042617FM-12+088299999V0201401N00311220001CN0200001N1+02441+01921101331ADDAA106000091AG10000GF102991001001999999001011KA1240N+01901MA1999999091641MD1999999-0031REMSYN017 333 20190 59003;EQDQ01+000982SCOLCB
0096833390999991998022618004-14050-042617FM-12+088299999V0201401N00311220001CN0200001N1+03021+01511100951ADDAA106000091AG10000GF102991021021004501001001MA1999999091311MD1999999-0031REMSYN011 333 59003;
0150833390999991998022700004-14050-042617FM-12+088299999V0202301N00261220001CN9999999N9+02561+01101100971ADDAA106000091AG10000GA1001+999999999GF100991001001999999001001KA1240M+03061MA1999999091331MD1999999-0091REMSYN017 333 10306 59009;EQDQ01+000002VOVAR 
0131833390999991998022712004-14050-042617FM-12+088299999V0200901N00511220001CN0200001N1+02361+01851101361ADDAA106000091AG10000GA1001+999999999GF100991001001999999001001KA1240N+01781MA1999999091661MD1999999+0021REMSYN017 333 20178 58002;
0112833390999991998022718004-14050-042617FM-12+088299999V0200901N00261220001CN0200001N1+03161+01241100951ADDAA106000091AG10000GA1001+999999999GF100991001001999999001001MA1999999091291MD1999999-0021REMSYN011 333 59002;
0150833390999991998022800004-14050-042617FM-12+088299999V0209991C00001220001CN9999999N9+02581+01331101001ADDAA106000091AG10000GA1001+999999999GF100991001001999999001001KA1240M+03171MA1999999091341MD1999999+0011REMSYN017 333 10317 58001;EQDQ01+000002VOVAR 
0096833390999991998022818004-14050-042617FM-12+088299999V0201401N00261220001CN0200001N1+03061+01731100871ADDAA106000091AG10000GF103991031021004501001001MA1999999091261MD1999999-0031REMSYN011 333 59003;
0150833390999991998030100004-14050-042617FM-12+088299999V0201401N00411220001CN9999999N9+02641+01541100961ADDAA106000091AG10000GA1001+999999999GF100991001001999999001001KA1240M+03101MA1999999091321MD1999999-0021REMSYN017 333 10310 59002;EQDQ01+000002VOVAR 
0131833390999991998030112004-14050-042617FM-12+088299999V0200901N00211220001CN0200001N1+02281+01831101381ADDAA106000091AG10000GA1001+999999999GF100991001001999999001001KA1240N+02061MA1999999091621MD1999999+0071REMSYN017 333 20206 58007;
0096833390999991998030118004-14050-042617FM-12+088299999V0201401N00461045001CN0200001N1+02301+02011100781ADDAA106000091AG10000GF106991021021004501031001MA1999999092071MD1999999+0011REMSYN011 333 58001;
0150833390999991998030200004-14050-042617FM-12+088299999V0200901N00261220001CN9999999N9+02561+01621100991ADDAA106000091AG10000GA1001+999999999GF100991001001999999001001KA1240M+02861MA1999999091321MD1999999+0001REMSYN017 333 10286 58000;EQDQ01+000002VOVAR 
0137833390999991998030212004-14050-042617FM-12+088299999V0200901N00211004201CN0200001N1+02341+02091101271ADDAA106000091AG10000AY101061AY201061GF106991061021004501001001KA1240N+02061MA1999999091581MD1999999-0041MW1101REMSYN017 333 20206 59004;
0134833390999991998030300004-14050-042617FM-12+088299999V0200901N00151220001CN9999999N9+02451+01921101101ADDAA106000091AG10000GF103991031021004501001001KA1240M+03021MA1999999091421MD1999999+0101REMSYN017 333 10302 58010;EQDQ01+000002VOVAR 
0137833390999991998030312004-14050-042617FM-12+088299999V0200901N00411004201CN0040001N1+02241+02091101441ADDAA106000091AG10000AY101061AY201061GF108991081051004501999999KA1240N+02201MA1999999091721MD1999999+0141MW1101REMSYN017 333 20220 58014;
0096833390999991998030318004-14050-042617FM-12+088299999V0200901N00571045001CN0200001N1+02721+01741101181ADDAA106000091AG10000GF105991041021004501031001MA1999999091511MD1999999+0161REMSYN011 333 58016;
0134833390999991998030400004-14050-042617FM-12+088299999V0201401N00211220001CN9999999N9+02441+01861101201ADDAA106000091AG10000GF104991041021004501001001KA1240M+02821MA1999999091501MD1999999+0081REMSYN017 333 10282 58008;EQDQ01+000002VOVAR 
0115833390999991998030412004-14050-042617FM-12+088299999V0201401N00871220001CN0200001N1+02321+01891101381ADDAA106000091AG10000GF102991021021004501001001KA1240N+02021MA1999999091671MD1999999-0051REMSYN017 333 20202 59005;
0096833390999991998030418004-14050-042617FM-12+088299999V0200901N00211220001CN0200001N1+03101+01041101041ADDAA106000091AG10000GF102991021021004501001001MA1999999091421MD1999999-0091REMSYN011 333 59009;
0122833390999991998030500004-14050-042617FM-12+088299999V0209999999999220001CN9999999N9+99999+99999999999ADDAA106000091AG10000GA1001+999999999GF100991001001999999001001MD1999999+0001REMSYN017 333 10/// 58000;EQDQ01+000002VOVAR 
0096833390999991998030518004-14050-042617FM-12+088299999V0200501N00461220001CN0200001N1+03001+01371100971ADDAA106000091AG10000GF102991011021004501001041MA1999999091341MD1999999-0081REMSYN011 333 59008;
0134833390999991998030600004-14050-042617FM-12+088299999V0201401N00411220001CN9999999N9+02541+01391101071ADDAA106000091AG10000GF102991021021004501001001KA1240M+03061MA1999999091401MD1999999-0101REMSYN017 333 10306 59010;EQDQ01+000002VOVAR 
0115833390999991998030612004-14050-042617FM-12+088299999V0200501N00931220001CN0200001N1+02361+01801101241ADDAA106000091AG10000GF102991021021004501001001KA1240N+02001MA1999999091551MD1999999-0101REMSYN017 333 20200 59010;
0134833390999991998030700004-14050-042617FM-12+088299999V0200901N00051220001CN9999999N9+02481+01401100921ADDAA106000091AG10000GF103991031021004501001001KA1240M+03001MA1999999091251MD1999999-0151REMSYN017 333 10300 59015;EQDQ01+000002VOVAR 
0115833390999991998030712004-14050-042617FM-12+088299999V0201401N00771004201CN0200001N1+02301+01901101201ADDAA106000091AG10000GF106991061021004501001001KA1240N+02001MA1999999091511MD1999999-0041REMSYN017 333 20200 59004;
0096833390999991998030718004-14050-042617FM-12+088299999V0200501N00461004201CN0200001N1+02801+01561100851ADDAA106000091AG10000GF106991051021004501021001MA1999999091211MD1999999+0081REMSYN011 333 58008;
0134833390999991998030800004-14050-042617FM-12+088299999V0201401N00821004201CN9999999N9+02401+01801101041ADDAA106000091AG10000GF106991061021004501001001KA1240M+02801MA1999999091351MD1999999+0101REMSYN017 333 10280 58010;EQDQ01+000002VOVAR 
0137833390999991998030812004-14050-042617FM-12+088299999V0200501N00671004201CN0040001N1+02181+01901101321ADDAA106000091AG10000AY101061AY201061GF107991061021004501021999KA1240N+02021MA1999999091601MD1999999+0091MW1101REMSYN017 333 20202 58009;
0096833390999991998030818004-14050-042617FM-12+088299999V0201401N00311004201CN0200001N1+02681+01641100981ADDAA106000091AG10000GF106991061021004501001001MA1999999091321MD1999999+0111REMSYN011 333 58011;
0115833390999991998030912004-14050-042617FM-12+088299999V0201401N00511220001CN0200001N1+02581+01781101401ADDAA106000091AG10000GF103991021021004501001011KA1240N+01931MA1999999091671MD1999999+0071REMSYN017 333 20193 58007;
0096833390999991998030918004-14050-042617FM-12+088299999V0200901N00511220001CN0200001N1+03051+01341100981ADDAA106000091AG10000GF102991021021004501001001MA1999999091341MD1999999+0021REMSYN011 333 58002;
0134833390999991998031000004-14050-042617FM-12+088299999V0209991C00001220001CN9999999N9+02521+01171101041ADDAA106000091AG10000GF102991021021004501001001KA1240M+03071MA1999999091351MD1999999-0061REMSYN017 333 10307 59006;EQDQ01+000002VOVAR 
0115833390999991998031012004-14050-042617FM-12+088299999V0200901N00461004201CN0200001N1+02281+02031101331ADDAA106000091AG10000GF106991061021004501001001KA1240N+02101MA1999999091631MD1999999-0031REMSYN017 333 20210 59003;
0096833390999991998031018004-14050-042617FM-12+088299999V0200901N00311220001CN0200001N1+03041+01681100851ADDAA106000091AG10000GF103991021021004501001011MA1999999091231MD1999999-0011REMSYN011 333 59001;
0134833390999991998031100004-14050-042617FM-12+088299999V0201401N00621004201CN9999999N9+02601+01681101081ADDAA106000091AG10000GF105991051021004501001001KA1240M+03081MA1999999091421MD1999999+0071REMSYN017 333 10308 58007;EQDQ01+000002VOVAR 
0096833390999991998031118004-14050-042617FM-12+088299999V0200901N00311220001CN0200001N1+03241+01581100751ADDAA106000091AG10000GF104991041021004501001001MA1999999091151MD1999999-0081REMSYN011 333 59008;
0150833390999991998031200004-14050-042617FM-12+088299999V0201401N00261220001CN9999999N9+02421+01771101091ADDAA106000091AG10000GA1001+999999999GF100991001001999999001001KA1240M+03281MA1999999091421MD1999999+0001REMSYN017 333 10328 58000;EQDQ01+000002VOVAR 
0131833390999991998031212004-14050-042617FM-12+088299999V0201401N00411220001CN0200001N1+02601+02031101501ADDAA106000091AG10000GA1001+999999999GF100991001001999999001001KA1240N+02101MA1999999091801MD1999999+0181REMSYN017 333 20210 58018;
0096833390999991998031218004-14050-042617FM-12+088299999V0200501N00311004201CN0200001N1+03301+01551101001ADDAA106000091AG10000GF105991051021004501001001MA1999999091401MD1999999+0251REMSYN011 333 58025;
0134833390999991998031300004-14050-042617FM-12+088299999V0202301N00151220001CN9999999N9+02481+01731101241ADDAA106000091AG10000GF103991031021004501001001KA1240M+03361MA1999999091581MD1999999+0161REMSYN017 333 10336 58016;EQDQ01+000002VOVAR 
0115833390999991998031312004-14050-042617FM-12+088299999V0201401N00411220001CN0200001N1+02441+02051101491ADDAA106000091AG10000GF103991031021004501001001KA1240N+02121MA1999999091781MD1999999-0021REMSYN017 333 20212 59002;
0096833390999991998031318004-14050-042617FM-12+088299999V0200901N00311220001CN0200001N1+03081+01601100971ADDAA106000091AG10000GF103991031021004501001001MA1999999091351MD1999999-0051REMSYN011 333 59005;
0150833390999991998031400004-14050-042617FM-12+088299999V0201401N00261220001CN9999999N9+02541+01361101061ADDAA106000091AG10000GA1001+999999999GF100991001001999999001001KA1240M+03161MA1999999091411MD1999999-0171REMSYN017 333 10316 59017;EQDQ01+000002VOVAR 
0115833390999991998031412004-14050-042617FM-12+088299999V0200901N00311220001CN0200001N1+02481+02091101241ADDAA106000091AG10000GF104991041021004501001001KA1240N+02081MA1999999091561MD1999999-0221REMSYN017 333 20208 59022;
0096833390999991998031418004-14050-042617FM-12+088299999V0201401N00511004201CN0200001N1+03081+01561100721ADDAA106000091AG10000GF105991051021004501001001MA1999999091131MD1999999-0221REMSYN011 333 59022;
0134833390999991998031500004-14050-042617FM-12+088299999V0201801N00261220001CN9999999N9+02631+01501100861ADDAA106000091AG10000GF103991031021004501001001KA1240M+03361MA1999999091241MD1999999-0171REMSYN017 333 10336 59017;EQDQ01+000002VOVAR 
0115833390999991998031512004-14050-042617FM-12+088299999V0200501N00261220001CN0200001N1+02641+02121101081ADDAA106000091AG10000GF102991021021004501001001KA1240N+02141MA1999999091451MD1999999-0111REMSYN017 333 20214 59011;
0096833390999991998031518004-14050-042617FM-12+088299999V0200501N00361220001CN0200001N1+03201+01821100591ADDAA106000091AG10000GF104991031021004501021001MA1999999091031MD1999999-0101REMSYN011 333 59010;
0162833390999991998031600004-14050-042617FM-12+088299999V0209991C00001004201CN9999999N9+02541+02211100821ADDAA106000591AG10003AY161061AY261061GF106991061021004501001001KA1240M+03321MA1999999091201MD1999999-0041MW1101REMSYN023 333 10332 59004 69961;EQDQ01+000002VOVAR 
0143833390999991998031612004-14050-042617FM-12+088299999V0201401N00461004201CN0200001N1+02241+02071101211ADDAA124009091AG10008AY191061AY291061GF106991051021004501031001KA1240N+02031MA1999999091521MD1999999+0071MW1101REMSYN023 333 20203 58007 60094;
0096833390999991998031618004-14050-042617FM-12+088299999V0201401N00311045001CN0200001N1+02921+02011100851ADDAA106000091AG10000GF105991041021004501021001MA1999999091231MD1999999+0201REMSYN011 333 58020;
0156833390999991998031700004-14050-042617FM-12+088299999V0201401N00871220001CN9999999N9+02481+02111101021ADDAA106000091AG10000AY101061AY201061GF104991041021004501001001KA1240M+02921MA1999999091341MD1999999+0141MW1101REMSYN017 333 10292 58014;EQDQ01+000002VOVAR 
0120833390999991998031712004-14050-042617FM-12+088299999V0201401N00461000151CN0200001N1+02201+02031101371ADDAA106000091AG10000AY101061AY201061GA1061+000159089GF106991999999004501999999MA1999999091651MW1101REMSYN011 333 86200;
0096833390999991998031718004-14050-042617FM-12+088299999V0201401N00511220001CN0200001N1+02871+01781100961ADDAA106000091AG10000GF104991041021004501001001MA1999999091331MD1999999+0101REMSYN011 333 58010;
0162833390999991998031800004-14050-042617FM-12+088299999V0201401N00771004201CN9999999N9+02261+02011101221ADDAA106002091AG10003AY161061AY261061GF106991061021004501001001KA1240M+02951MA1999999091501MD1999999+0161MW1101REMSYN023 333 10295 58016 60021;EQDQ01+000002VOVAR 
0143833390999991998031812004-14050-042617FM-12+088299999V0201401N00771220001CN0200001N1+02181+01861101451ADDAA124002091AG10003AY161061AY261061GF103991031021004501001001KA1240N+01941MA1999999091701MD1999999+0051MW1101REMSYN023 333 20194 58005 60024;
0096833390999991998031818004-14050-042617FM-12+088299999V0201401N00411220001CN0200001N1+03001+01681101071ADDAA106000091AG10000GF104991031021004501001021MA1999999091421MD1999999+0091REMSYN011 333 58009;
0134833390999991998031900004-14050-042617FM-12+088299999V0201401N00871220001CN9999999N9+02621+01811101121ADDAA106000091AG10000GF103991031021004501001001KA1240M+03021MA1999999091441MD1999999-0061REMSYN017 333 10302 59006;EQDQ01+000002VOVAR 
0137833390999991998031912004-14050-042617FM-12+088299999V0201401N00261004201CN0040001N1+02181+02011101471ADDAA106000091AG10000AY101061AY201061GF108991081051004501999999KA1240N+02101MA1999999091751MD1999999+0051MW1101REMSYN017 333 20210 58005;
0096833390999991998031918004-14050-042617FM-12+088299999V0201401N00411004201CN0200001N1+02921+01921101041ADDAA106000091AG10000GF105991051021004501001001MA1999999091401MD1999999-0021REMSYN011 333 59002;
0134833390999991998032000004-14050-042617FM-12+088299999V0201401N00461220001CN9999999N9+02521+02091101181ADDAA106000091AG10000GF103991031021004501001001KA1240M+02961MA1999999091481MD1999999+0041REMSYN017 333 10296 58004;EQDQ01+000002VOVAR 
0137833390999991998032012004-14050-042617FM-12+088299999V0201401N00621220001CN0200001N1+02351+02011101381ADDAA106000091AG10000AY101061AY201061GF104991041021004501001001KA1240N+02021MA1999999091681MD1999999-0071MW1101REMSYN017 333 20202 59007;
0096833390999991998032018004-14050-042617FM-12+088299999V0201401N00461220001CN0200001N1+03131+01681100951ADDAA106000091AG10000GF103991021021004501001021MA1999999091531MD1999999-0071REMSYN011 333 59007;
0150833390999991998032100004-14050-042617FM-12+088299999V0201401N00511220001CN9999999N9+02781+01481101081ADDAA106000091AG10000GA1001+999999999GF100991001001999999001001KA1240M+03251MA1999999091441MD1999999-0041REMSYN017 333 10325 59004;EQDQ01+000002VOVAR 
0137833390999991998032112004-14050-042617FM-12+088299999V0201401N00511220001CN0200001N1+02481+02131101201ADDAA106000091AG10000AY101061AY201061GF102991021021004501001001KA1240N+02121MA1999999091561MD1999999-0121MW1101REMSYN017 333 20212 59012;
0096833390999991998032118004-14050-042617FM-12+088299999V0201401N00411220001CN0200001N1+03201+01671100711ADDAA106000091AG10000GF103991021021004501001041MA1999999091131MD1999999-0201REMSYN011 333 59020;
0150833390999991998032200004-14050-042617FM-12+088299999V0201401N00461220001CN9999999N9+02641+01691100971ADDAA106000091AG10000GA1001+999999999GF100991001001999999001001KA1240M+03271MA1999999091341MD1999999-0101REMSYN017 333 10327 59010;EQDQ01+000002VOVAR 
0115833390999991998032212004-14050-042617FM-12+088299999V0200901N00411220001CN0200001N1+02601+02141101131ADDAA106000091AG10000GF103991021021004501001041KA1240N+02201MA1999999091491MD1999999-0071REMSYN017 333 20220 59007;
0096833390999991998032218004-14050-042617FM-12+088299999V0201401N00411220001CN0200001N1+03181+01401100691ADDAA106000091AG10000GF104991041021004501001001MA1999999091131MD1999999+0001REMSYN011 333 58000;
0134833390999991998032300004-14050-042617FM-12+088299999V0200901N00461220001CN9999999N9+02801+01531100781ADDAA106000091AG10000GF102991021021004501001001KA1240M+03221MA1999999091191MD1999999-0151REMSYN017 333 10322 59015;EQDQ01+000002VOVAR 
0096833390999991998032318004-14050-042617FM-12+088299999V0201801N00411004201CN0200001N1+03101+01941100701ADDAA106000091AG10000GF106991061021004501001001MA1999999091121MD1999999-0011REMSYN011 333 59001;
0162833390999991998032400004-14050-042617FM-12+088299999V0209991C00001004201CN9999999N9+02421+02281101001ADDAA106003091AG10003AY161061AY261061GF108991081051004501999999KA1240M+03261MA1999999091351MD1999999+0161MW1101REMSYN023 333 10326 58016 60031;EQDQ01+000002VOVAR 
0159833390999991998032412004-14050-042617FM-12+088299999V0200501N00211220001CN0200001N1+02651+02051101211ADDAA124003091AG10003AY161061AY261061GA1001+999999999GF100991001001999999001001KA1240N+02081MA1999999091551MD1999999+0001MW1021REMSYN023 333 20208 58000 60034;
0096833390999991998032418004-14050-042617FM-12+088299999V0201401N00411220001CN0200001N1+03241+01821100711ADDAA106000091AG10000GF104991041021004501001001MA1999999091141MD1999999+0021REMSYN011 333 58002;
0162833390999991998032500004-14050-042617FM-12+088299999V0201401N00211004201CN9999999N9+02591+00691100921ADDAA106000191AG10003AY161061AY261061GF106991061021004501001001KA1240M+03461MA1999999091301MD1999999-0051MW1101REMSYN023 333 10346 59005 69921;EQDQ01+000002VOVAR 
0143833390999991998032512004-14050-042617FM-12+088299999V0200501N00101004201CN0200001N1+02591+02171101201ADDAA124000191AG10003AY161061AY261061GF105991051021004501001001KA1240N+02151MA1999999091551MD1999999+0001MW1021REMSYN023 333 20215 58000 69924;
0124833390999991998032518004-14050-042617FM-12+088299999V0200501N00411004201CN0040001N1+02631+02371100761ADDAA106007091AG10008AY191061AY261061GF106991051021004501021001MA1999999091191MD1999999-0011MW1601REMSYN017 333 59001 60071;
0156833390999991998032600004-14050-042617FM-12+088299999V0200901N00151220001CN9999999N9+02541+02251100981ADDAA106000091AG10000AY101061AY201061GF102991021021004501001001KA1240M+03291MA1999999091341MD1999999+0041MW1101REMSYN017 333 10329 58004;EQDQ01+000002VOVAR 
0143833390999991998032612004-14050-042617FM-12+088299999V0200501N00311004201CN0200001N1+02381+02011101211ADDAA124008091AG10008AY191061AY261061GF106991051021004501031001KA1240N+02141MA1999999091531MD1999999-0021MW1101REMSYN023 333 20214 59002 60084;
0096833390999991998032618004-14050-042617FM-12+088299999V0200501N00511220001CN0200001N1+03081+02071100851ADDAA106000091AG10000GF103991021021004501031001MA1999999091241MD1999999+0111REMSYN011 333 58011;
0156833390999991998032700004-14050-042617FM-12+088299999V0200501N00051220001CN9999999N9+02261+02071101201ADDAA106000091AG10000AY101061AY201061GF102991021021004501001001KA1240M+03081MA1999999091491MD1999999+0151MW1101REMSYN017 333 10308 58015;EQDQ01+000002VOVAR 
0156833390999991998032712004-14050-042617FM-12+088299999V0201401N00621009001CN0040001N1+02061+02041101501ADDAA106000091AG10000AY101061AY201061GF108991999081004501051999KA1240N+02031MA1999999091741MD1999999+0211MW1101REMSYN017 333 20203 58021;EQDQ01+000082SCOTLC
0096833390999991998032718004-14050-042617FM-12+088299999V0200501N00821220001CN0200001N1+02841+01991101071ADDAA106000091AG10000GF103991031021004501001001MA1999999091401MD1999999+0161REMSYN011 333 58016;
0156833390999991998032800004-14050-042617FM-12+088299999V0200901N00571004201CN9999999N9+02361+02111101331ADDAA106000091AG10000AY101061AY201061GF105991051021004501001001KA1240M+02861MA1999999091591MD1999999+0101MW1101REMSYN017 333 10286 58010;EQDQ01+000002VOVAR 
0143833390999991998032812004-14050-042617FM-12+088299999V0200901N00361004201CN0200001N1+02191+02111101481ADDAA124003091AG10003AY161061AY261061GF106991061021004501001001KA1240N+02001MA1999999091741MD1999999+0001MW1101REMSYN023 333 20200 58000 60034;
0112833390999991998032818004-14050-042617FM-12+088299999V0200901N00671220001CN0200001N1+02921+01341101071ADDAA106000091AG10000GA1001+999999999GF100991001001999999001001MA1999999091401MD1999999+0001REMSYN011 333 58000;
0150833390999991998032900004-14050-042617FM-12+088299999V0201401N00671220001CN9999999N9+02441+01691101161ADDAA106000091AG10000GA1001+999999999GF100991001001999999001001KA1240M+02921MA1999999091451MD1999999-0141REMSYN017 333 10292 59014;EQDQ01+000002VOVAR 
0115833390999991998032912004-14050-042617FM-12+088299999V0201401N00931004201CN0200001N1+02261+01881101381ADDAA106000091AG10000GF105991051021004501001001KA1240N+01901MA1999999091661MD1999999-0081REMSYN017 333 20190 59008;
0096833390999991998032918004-14050-042617FM-12+088299999V0200501N00511220001CN0200001N1+02861+01871100641ADDAA106000091AG10000GF103991031021004501001001MA1999999091341MD1999999-0061REMSYN011 333 59006;
0150833390999991998033000004-14050-042617FM-12+088299999V0201401N00621220001CN9999999N9+02461+01971101041ADDAA106000091AG10000GA1001+999999999GF100991001001999999001001KA1240M+02901MA1999999091351MD1999999-0101REMSYN017 333 10290 59010;EQDQ01+000002VOVAR 
0134833390999991998033100004-14050-042617FM-12+088299999V0201401N00151220001CN9999999N9+02341+01551101041ADDAA106000091AG10000GF102991021021004501001001KA1240M+02761MA1999999091341MD1999999-0021REMSYN017 333 10276 59002;EQDQ01+000002VOVAR 
0121833390999991998033112004-14050-042617FM-12+088299999V0201401N00261220001CN0200001N1+02381+01951101211ADDAA124009091AG10000GF102991021021004501001001KA1240N+01901MA1999999091511MD1999999-0051REMSYN023 333 20190 59005 60094;
0096833390999991998033118004-14050-042617FM-12+088299999V0200901N00151220001CN0200001N1+03061+01551100771ADDAA106000091AG10000GF102991021021004501001001MA1999999091161MD1999999-0081REMSYN011 333 59008;
0150833390999991998040100004-14050-042617FM-12+088299999V0201401N00261220001CN9999999N9+02601+01521100941ADDAA106000091AG10000GA1001+999999999GF100991001001999999001001KA1240M+03141MA1999999091301MD1999999-0031REMSYN017 333 10314 59003;EQDQ01+000002VOVAR 
0115833390999991998040112004-14050-042617FM-12+088299999V0201401N00311220001CN0200001N1+02481+02071101251ADDAA106000091AG10000GF102991021021004501001001KA1240N+02121MA1999999091591MD1999999+0081REMSYN017 333 20212 58008;
0096833390999991998040118004-14050-042617FM-12+088299999V0201401N00261220001CN0200001N1+03271+01471100821ADDAA106000091AG10000GF103991031021004501001001MA1999999091241MD1999999+0081REMSYN011 333 58008;
0134833390999991998040300004-14050-042617FM-12+088299999V0201401N00211220001CN9999999N9+02831+01511101031ADDAA106000091AG10000GF102991021021004501001001KA1240M+03361MA1999999091431MD1999999+0061REMSYN017 333 10336 58006;EQDQ01+000002VOVAR 
0137833390999991998040312004-14050-042617FM-12+088299999V0201401N00511004201CN0040001N1+02321+02051101401ADDAA106000091AG10000AY101061AY201061GF108991081011004501999999KA1240N+02201MA1999999091721MD1999999+0141MW1101REMSYN017 333 20220 58014;
0102833390999991998040318004-14050-042617FM-12+088299999V0201401N00621004201CN0200001N1+02481+01981101201ADDAA106000591AG10000GF106991061021004501001001MA1999999091521MD1999999+0231REMSYN017 333 58023 69961;
0134833390999991998040400004-14050-042617FM-12+088299999V0201401N00671004201CN9999999N9+02261+01861101331ADDAA106000091AG10000GF106991061021004501001001KA1240M+02821MA1999999091611MD1999999+0181REMSYN017 333 10282 58018;EQDQ01+000002VOVAR 
0096833390999991998040418004-14050-042617FM-12+088299999V0201401N00571004201CN0200001N1+02601+01381101561ADDAA106000091AG10000GF105991051021004501001001MA1999999091451MD1999999-0071REMSYN011 333 59007;
0134833390999991998040500004-14050-042617FM-12+088299999V0201401N00461004201CN9999999N9+02191+01521101431ADDAA106000091AG10000GF106991061021004501001001KA1240M+02661MA1999999091651MD1999999+0041REMSYN017 333 10266 58004;EQDQ01+000002VOVAR 
0115833390999991998040512004-14050-042617FM-12+088299999V0201401N00671220001CN0200001N1+02041+01451101491ADDAA106000091AG10000GF102991021021004501001001KA1240N+01781MA1999999091721MD1999999-0011REMSYN017 333 20178 59001;
0096833390999991998040518004-14050-042617FM-12+088299999V0200901N00511220001CN0200001N1+02801+01461101091ADDAA106000091AG10000GF104991041021004501001001MA1999999091401MD1999999-0051REMSYN011 333 59005;
0134833390999991998040600004-14050-042617FM-12+088299999V0201401N00461220001CN9999999N9+02321+01531101321ADDAA106000091AG10000GF102991021021004501001001KA1240M+02831MA1999999091581MD1999999-0071REMSYN017 333 10283 59007;EQDQ01+000002VOVAR 
0115833390999991998040612004-14050-042617FM-12+088299999V0201401N00461220001CN0200001N1+02181+01741101501ADDAA106000091AG10000GF102991021021004501001001KA1240N+01881MA1999999091751MD1999999+0031REMSYN017 333 20188 58003;
0096833390999991998040618004-14050-042617FM-12+088299999V0200901N00511045001CN0200001N1+02881+01601101021ADDAA106000091AG10000GF105991041021004501031001MA1999999091351MD1999999-0051REMSYN011 333 59005;
0150833390999991998040700004-14050-042617FM-12+088299999V0200901N00511220001CN9999999N9+02381+01841101251ADDAA106000091AG10000GA1001+999999999GF100991001001999999001001KA1240M+02951MA1999999091541MD1999999-0041REMSYN017 333 10295 59004;EQDQ01+000002VOVAR 
0137833390999991998040712004-14050-042617FM-12+088299999V0201401N00621004201CN0040001N1+02121+01821101511ADDAA106000091AG10000AY101061AY201061GF108991081051004501999999KA1240N+01901MA1999999091761MD1999999+0011MW1101REMSYN017 333 20190 58001;
0096833390999991998040718004-14050-042617FM-12+088299999V0201401N00671220001CN0200001N1+02901+01621101061ADDAA106000091AG10000GF102991021021004501001001MA1999999091391MD1999999+0041REMSYN011 333 58004;
0150833390999991998040800004-14050-042617FM-12+088299999V0200901N00571220001CN9999999N9+02501+01751101221ADDAA106000091AG10000GA1001+999999999GF100991001001999999001001KA1240M+02931MA1999999091511MD1999999-0031REMSYN017 333 10293 59003;EQDQ01+000002VOVAR 
0134833390999991998040900004-14050-042617FM-12+088299999V0201401N00361220001CN9999999N9+02731+01461101101ADDAA106000091AG10000GF103991031021004501001001KA1240M+03161MA1999999091451MD1999999-0061REMSYN017 333 10316 59006;EQDQ01+000002VOVAR 
0134833390999991998040912004-14050-042617FM-12+088299999V0201401N004619999999N0200001N1+02361+01971101211ADDAA106000091AG10000GF105991999021004501001001KA1240N+02101MA1999999091551MD1999999-0141REMSYN017 333 20210 59014;EQDQ01+000042SCOTLC
0096833390999991998040918004-14050-042617FM-12+088299999V0200901N00311220001CN0200001N1+03041+01531100751ADDAA106000091AG10000GF104991031021004501001041MA1999999091151MD1999999-0151REMSYN011 333 59015;
0150833390999991998041000004-14050-042617FM-12+088299999V0201801N00151220001CN9999999N9+02561+01351100961ADDAA106000091AG10000GA1001+999999999GF100991001001999999001001KA1240M+03081MA1999999091301MD1999999-0151REMSYN017 333 10308 59015;EQDQ01+000002VOVAR 
0131833390999991998041012004-14050-042617FM-12+088299999V0200901N00151220001CN0200001N1+02531+01841101021ADDAA106000091AG10000GA1001+999999999GF100991001001999999001001KA1240N+01941MA1999999091381MD1999999-0171REMSYN017 333 20194 59017;
0096833390999991998041018004-14050-042617FM-12+088299999V0200501N00261220001CN0200001N1+03141+01501100601ADDAA106000091AG10000GF103991031021004501001001MA1999999091021MD1999999-0131REMSYN011 333 59013;
0134833390999991998041100004-14050-042617FM-12+088299999V0201401N00311004201CN9999999N9+02621+01641100821ADDAA106000091AG10000GF105991051021004501001001KA1240M+03181MA1999999091201MD1999999-0101REMSYN017 333 10318 59010;EQDQ01+000002VOVAR 
0115833390999991998041112004-14050-042617FM-12+088299999V0201401N00511220001CN0200001N1+02401+01991101121ADDAA106000091AG10000GF104991041021004501001001KA1240N+02121MA1999999091451MD1999999+0071REMSYN017 333 20212 58007;
0096833390999991998041118004-14050-042617FM-12+088299999V0201401N00361220001CN0200001N1+03151+01411100681ADDAA106000091AG10000GF102991021021004501001001MA1999999091111MD1999999+0091REMSYN011 333 58009;
0096833390999991998041218004-14050-042617FM-12+088299999V0200901N00511220001CN0200001N1+03001+01611100911ADDAA106000091AG10000GF102991021021004501001001MA1999999091291MD1999999+0181REMSYN011 333 58018;
0150833390999991998041300004-14050-042617FM-12+088299999V0201401N00311220001CN9999999N9+02581+01551101081ADDAA106000091AG10000GA1001+999999999GF100991001001999999001001KA1240M+03001MA1999999091431MD1999999+0091REMSYN017 333 10300 58009;EQDQ01+000002VOVAR 
0115833390999991998041312004-14050-042617FM-12+088299999V0201401N00571220001CN0200001N1+02261+01841101441ADDAA106000091AG10000GF103991031021004501001001KA1240N+02071MA1999999091731MD1999999+0121REMSYN017 333 20207 58012;
0150833390999991998041400004-14050-042617FM-12+088299999V0201401N00151220001CN9999999N9+02581+01231101271ADDAA106000091AG10000GA1001+999999999GF100991001001999999001001KA1240M+03081MA1999999091571MD1999999+0141REMSYN017 333 10308 58014;EQDQ01+000002VOVAR 
0096833390999991998041418004-14050-042617FM-12+088299999V0201401N00411220001CN0200001N1+03061+01471100881ADDAA106000091AG10000GF102991021021004501001001MA1999999091261MD1999999-0101REMSYN011 333 59010;
0150833390999991998041500004-14050-042617FM-12+088299999V0209991C00001220001CN9999999N9+02391+01351101051ADDAA106000091AG10000GA1001+999999999GF100991001001999999001001KA1240M+03061MA1999999091371MD1999999-0201REMSYN017 333 10306 59020;EQDQ01+000002VOVAR 
0115833390999991998041512004-14050-042617FM-12+088299999V0201401N00411220001CN0200001N1+02381+01781101281ADDAA106000091AG10000GF102991021021004501001001KA1240N+01981MA1999999091581MD1999999-0111REMSYN017 333 20198 59011;
0096833390999991998041518004-14050-042617FM-12+088299999V0201401N00101220001CN0200001N1+03151+01471100781ADDAA106000091AG10000GF103991031021004501001001MA1999999091181MD1999999-0081REMSYN011 333 59008;
0150833390999991998041600004-14050-042617FM-12+088299999V0201401N00211220001CN9999999N9+02561+01241100951ADDAA106000091AG10000GA1001+999999999GF100991001001999999001001KA1240M+03181MA1999999091291MD1999999-0081REMSYN017 333 10318 59008;EQDQ01+000002VOVAR 
0131833390999991998041612004-14050-042617FM-12+088299999V0201401N00311220001CN0200001N1+02441+01861101341ADDAA106000091AG10000GA1001+999999999GF100991001001999999001001KA1240N+01981MA1999999091651MD1999999+0071REMSYN017 333 20198 58007;
0096833390999991998041618004-14050-042617FM-12+088299999V0201401N00151220001CN0200001N1+03241+01411100821ADDAA106000091AG10000GF104991041021004501001001MA1999999091221MD1999999+0041REMSYN011 333 58004;
0150833390999991998041700004-14050-042617FM-12+088299999V0201401N00101220001CN9999999N9+02681+01391101041ADDAA106000091AG10000GA1001+999999999GF100991001001999999001001KA1240M+03281MA1999999091401MD1999999+0111REMSYN017 333 10328 58011;EQDQ01+000002VOVAR 
0115833390999991998041712004-14050-042617FM-12+088299999V0200901N00311220001CN0200001N1+02461+01941101441ADDAA106000091AG10000GF102991021021004501001001KA1240N+02061MA1999999091771MD1999999+0121REMSYN017 333 20206 58012;
0096833390999991998041718004-14050-042617FM-12+088299999V0200501N00311220001CN0200001N1+03261+01601100911ADDAA106000091AG10000GF104991041021004501001001MA1999999091321MD1999999+0101REMSYN011 333 58010;
0150833390999991998041800004-14050-042617FM-12+088299999V0201401N00151220001CN9999999N9+02721+01351101071ADDAA106000091AG10000GA1001+999999999GF100991001001999999001001KA1240M+03301MA1999999091441MD1999999+0031REMSYN017 333 10330 58003;EQDQ01+000002VOVAR 
0134833390999991998041812004-14050-042617FM-12+088299999V0200901N00311220001CN0200001N1+02561+01801101301ADDAA106000091AG10000GF102991001001999999001011KA1240N+02041MA1999999091651MD1999999-0071REMSYN017 333 20204 59007;EQDQ01+000982SCOLCB
0096833390999991998041818004-14050-042617FM-12+088299999V0201401N00151220001CN0200001N1+03261+01471100821ADDAA106000091AG10000GF104991031021004501001011MA1999999091241MD1999999-0081REMSYN011 333 59008;
0096833390999991998041918004-14050-042617FM-12+088299999V0201401N00151220001CN0200001N1+03321+01651100711ADDAA106000091AG10000GF103991031021004501001001MA1999999091141MD1999999-0101REMSYN011 333 59010;
0150833390999991998042000004-14050-042617FM-12+088299999V0209991C00001220001CN9999999N9+02741+01571100981ADDAA106000091AG10000GA1001+999999999GF100991001001999999001001KA1240M+03341MA1999999091361MD1999999+0001REMSYN017 333 10334 58000;EQDQ01+000002VOVAR 
0131833390999991998042012004-14050-042617FM-12+088299999V0201401N00621220001CN0200001N1+02421+01821101201ADDAA106000091AG10000GA1001+999999999GF100991001001999999001001KA1240N+02031MA1999999091551MD1999999+0051REMSYN017 333 20203 58005;
0112833390999991998042018004-14050-042617FM-12+088299999V0201401N00821220001CN0200001N1+03071+01581100791ADDAA106000091AG10000GA1001+999999999GF100991001001999999001001MA1999999091201MD1999999+0061REMSYN011 333 58006;
0150833390999991998042100004-14050-042617FM-12+088299999V0209999999999220001CN9999999N9+02501+01961101181ADDAA106000091AG10000GA1001+999999999GF100991001001999999001001KA1240M+03141MA1999999091501MD1999999+0141REMSYN017 333 10314 58014;EQDQ01+000002VOVAR 
0137833390999991998042112004-14050-042617FM-12+088299999V0201401N00771004201CN0040001N1+02201+01861101411ADDAA106000091AG10000AY101061AY201061GF108991081051004501999999KA1240N+01941MA1999999091691MD1999999+0141MW1101REMSYN017 333 20194 58014;
0096833390999991998042118004-14050-042617FM-12+088299999V0200901N00721004201CN0200001N1+02861+01621101051ADDAA106000091AG10000GF106991061021004501001001MA1999999091401MD1999999+0201REMSYN011 333 58020;
0134833390999991998042200004-14050-042617FM-12+088299999V0200901N00931220001CN9999999N9+02541+01601101311ADDAA106000091AG10000GF102991021021004501001001KA1240M+02901MA1999999091601MD1999999+0101REMSYN017 333 10290 58010;EQDQ01+000002VOVAR 
0143833390999991998042212004-14050-042617FM-12+088299999V0201401N00571004201CN0040001N1+01941+01911101661ADDAA124000591AG10002AY161061AY261061GF108991081051004501999999KA1240N+01921MA1999999091901MD1999999+0211MW1101REMSYN023 333 20192 58021 69944;
0124833390999991998042218004-14050-042617FM-12+088299999V0200501N00361004201CN0040001N1+02391+02011101271ADDAA106000591AG10002AY161061AY261061GF106991051021004501021001MA1999999091541MD1999999+0141MW1101REMSYN017 333 58014 69941;
0156833390999991998042300004-14050-042617FM-12+088299999V0201401N00571004201CN9999999N9+02191+01971101551ADDAA106000091AG10000AY101061AY201061GF106991061021004501001001KA1240M+02581MA1999999091751MD1999999+0151MW1101REMSYN017 333 10258 58015;EQDQ01+000002VOVAR 
0096833390999991998042318004-14050-042617FM-12+088299999V0200501N00871004201CN0200001N1+02631+01761101081ADDAA106000091AG10000GF106991061021004501001001MA1999999091381MD1999999+0161REMSYN011 333 58016;
0134833390999991998042400004-14050-042617FM-12+088299999V0200501N00411220001CN9999999N9+02361+01911101021ADDAA106000091AG10000GF104991041021004501001001KA1240M+02721MA1999999091581MD1999999-0171REMSYN017 333 10272 59017;EQDQ01+000002VOVAR 
0115833390999991998042412004-14050-042617FM-12+088299999V0201401N00621220001CN0200001N1+02341+01891101391ADDAA106000091AG10000GF103991031021004501001001KA1240N+02001MA1999999091691MD1999999-0091REMSYN017 333 20200 59009;
0096833390999991998042418004-14050-042617FM-12+088299999V0201401N00261004201CN0200001N1+03001+01371100991ADDAA106000091AG10000GF105991051021004501001001MA1999999091351MD1999999-0031REMSYN011 333 59003;
0150833390999991998042500004-14050-042617FM-12+088299999V0201401N00101220001CN9999999N9+02501+01391101101ADDAA106000091AG10000GA1001+999999999GF100991001001999999001001KA1240M+03061MA1999999091421MD1999999-0161REMSYN017 333 10306 59016;EQDQ01+000002VOVAR 
0131833390999991998042512004-14050-042617FM-12+088299999V0200901N00311220001CN0200001N1+02501+01801101161ADDAA106000091AG10000GA1001+999999999GF100991001001999999001001KA1240N+01821MA1999999091491MD1999999-0201REMSYN017 333 20182 59020;
0096833390999991998042518004-14050-042617FM-12+088299999V0201401N00261220001CN0200001N1+03131+01161100721ADDAA106000091AG10000GF102991021021004501001001MA1999999091121MD1999999-0231REMSYN011 333 59023;
0150833390999991998042600004-14050-042617FM-12+088299999V0201401N00151220001CN9999999N9+02621+01331100951ADDAA106000091AG10000GA1001+999999999GF100991001001999999001001KA1240M+03221MA1999999091321MD1999999-0101REMSYN017 333 10322 59010;EQDQ01+000002VOVAR 
0131833390999991998042612004-14050-042617FM-12+088299999V0200901N00461220001CN0200001N1+02601+01791101091ADDAA106000091AG10000GA1001+999999999GF100991001001999999001001KA1240N+02001MA1999999091451MD1999999-0041REMSYN017 333 20200 59004;
0096833390999991998042618004-14050-042617FM-12+088299999V0201401N00261220001CN0200001N1+03201+01421100591ADDAA106000091AG10000GF102991021021004501001001MA1999999091021MD1999999-0101REMSYN011 333 59010;
0150833390999991998042700004-14050-042617FM-12+088299999V0201401N00621220001CN9999999N9+02681+01391100841ADDAA106000091AG10000GA1001+999999999GF100991001001999999001001KA1240M+03221MA1999999091241MD1999999-0081REMSYN017 333 10322 59008;EQDQ01+000002VOVAR 
0115833390999991998042712004-14050-042617FM-12+088299999V0200901N00871220001CN0200001N1+02341+01831101261ADDAA106000091AG10000GF102991021021004501001001KA1240N+02081MA1999999091581MD1999999+0131REMSYN017 333 20208 58013;
0096833390999991998042718004-14050-042617FM-12+088299999V0200901N00621220001CN0200001N1+02951+01781100731ADDAA106000091AG10000GF102991021021004501001001MA1999999091131MD1999999+0121REMSYN011 333 58012;
0150833390999991998042800004-14050-042617FM-12+088299999V0201401N00671220001CN9999999N9+02441+01691101031ADDAA106000091AG10000GA1001+999999999GF100991001001999999001001KA1240M+02961MA1999999091351MD1999999+0111REMSYN017 333 10296 58011;EQDQ01+000002VOVAR 
0115833390999991998042812004-14050-042617FM-12+088299999V0201401N00621004201CN0200001N1+02241+01841101331ADDAA106000091AG10000GF106991061021004501001001KA1240N+02061MA1999999091621MD1999999+0041REMSYN017 333 20206 58004;
0096833390999991998042818004-14050-042617FM-12+088299999V0201401N00261220001CN0200001N1+03001+01711100871ADDAA106000091AG10000GF102991021021004501001001MA1999999091241MD1999999+0111REMSYN011 333 58011;
0150833390999991998042900004-14050-042617FM-12+088299999V0201401N00211220001CN9999999N9+02481+01681101101ADDAA106000091AG10000GA1001+999999999GF100991001001999999001001KA1240M+03021MA1999999091411MD1999999+0061REMSYN017 333 10302 58006;EQDQ01+000002VOVAR 
0096833390999991998042918004-14050-042617FM-12+088299999V0202301N00101004201CN0200001N1+03081+01641100921ADDAA106000091AG10000GF105991051021004501001001MA1999999091291MD1999999+0051REMSYN011 333 58005;
0162833390999991998043000004-14050-042617FM-12+088299999V0202301N00311220001CN9999999N9+02341+01831101291ADDAA106003091AG10002AY161061AY221061GF104991041021004501001001KA1240M+03161MA1999999091581MD1999999+0171MW1021REMSYN023 333 10316 58017 60031;EQDQ01+000002VOVAR 
0143833390999991998043012004-14050-042617FM-12+088299999V0201401N00261045001CN0200001N1+02641+01781101171ADDAA124003091AG10002AY161061AY221061GF106991031021004501031001KA1240N+02101MA1999999091501MD1999999-0201MW1021REMSYN023 333 20210 59020 60034;
0096833390999991998043018004-14050-042617FM-12+088299999V0200501N00151004201CN0200001N1+02941+01941100771ADDAA106000091AG10000GF106991061021004501001001MA1999999091151MD1999999-0141REMSYN011 333 59014;
0134833390999991998050100004-14050-042617FM-12+088299999V0209991C00001220001CN9999999N9+02551+01971100921ADDAA106000091AG10000GF103991031021004501001001KA1240M+03141MA1999999091301MD1999999-0281REMSYN017 333 10314 59028;EQDQ01+000002VOVAR 
0131833390999991998050112004-14050-042617FM-12+088299999V0201401N00261220001CN0200001N1+02721+01851101031ADDAA106000091AG10000GA1001+999999999GF100991001001999999001001KA1240N+02161MA1999999091411MD1999999-0091REMSYN017 333 20216 59009;
0096833390999991998050118004-14050-042617FM-12+088299999V0202301N00311004201CN0200001N1+03211+01801100531ADDAA106000091AG10000GF106991061021004501001001MA1999999090971MD1999999-0181REMSYN011 333 59018;
0134833390999991998050200004-14050-042617FM-12+088299999V0209991C00001220001CN9999999N9+02561+01851100841ADDAA106000091AG10000GF102991021021004501001001KA1240M+03341MA1999999091241MD1999999-0061REMSYN017 333 10334 59006;EQDQ01+000002VOVAR 
0096833390999991998050218004-14050-042617FM-12+088299999V0200901N00511004201CN0200001N1+03041+01881100711ADDAA106000091AG10000GF106991061021004501001001MA1999999091111MD1999999+0141REMSYN011 333 58014;
0156833390999991998050300004-14050-042617FM-12+088299999V0200901N00101004201CN9999999N9+02401+02211101111ADDAA106000091AG10000AY121061AY221061GF108991061021004501021999KA1240M+03271MA1999999091461MD1999999+0221MW1131REMSYN017 333 10327 58022;EQDQ01+000002VOVAR 
0143833390999991998050312004-14050-042617FM-12+088299999V0201401N00571045001CN0200001N1+02171+02031101411ADDAA124002091AG10002AY161061AY221061GF108991041021004501021999KA1240N+02161MA1999999091681MD1999999+0211MW1021REMSYN023 333 20216 58021 60024;
0124833390999991998050318004-14050-042617FM-12+088299999V0201401N00671045001CN0200001N1+02241+02011101131ADDAA106002091AG10002AY161061AY221061GF108991031021004501021999MA1999999091411MD1999999+0301MW1501REMSYN017 333 58030 60021;
0140833390999991998050400004-14050-042617FM-12+088299999V0201401N00311004201CN9999999N9+02321+02021101361ADDAA106999929AG10000GF108991061021004501021999KA1240M+02561MA1999999091631MD1999999+0171REMSYN023 333 10256 58017 69901;EQDQ01+000002VOVAR 
0143833390999991998050412004-14050-042617FM-12+088299999V0201401N00671004201CN0200001N1+02221+02051101501ADDAA124002091AG10002AY161061AY261061GF106991061021004501001001KA1240N+02061MA1999999091751MD1999999+0071MW1101REMSYN023 333 20206 58007 60024;
0096833390999991998050418004-14050-042617FM-12+088299999V0200901N00511220001CN0200001N1+02901+01321100981ADDAA106000091AG10000GF102991021021004501001001MA1999999091341MD1999999-0071REMSYN011 333 59007;
0150833390999991998050500004-14050-042617FM-12+088299999V0201401N00361220001CN9999999N9+02541+01451101121ADDAA106000091AG10000GA1001+999999999GF100991001001999999001001KA1240M+02921MA1999999091441MD1999999-0191REMSYN017 333 10292 59019;EQDQ01+000002VOVAR 
0131833390999991998050512004-14050-042617FM-12+088299999V0200901N00361220001CN0200001N1+02401+01911101331ADDAA106000091AG10000GA1001+999999999GF100991001001999999001001KA1240N+01881MA1999999091641MD1999999-0111REMSYN017 333 20188 59011;
0134833390999991998050600004-14050-042617FM-12+088299999V0201801N00211220001CN9999999N9+02501+01391101141ADDAA106000091AG10000GF102991021021004501001001KA1240M+03081MA1999999091461MD1999999+0021REMSYN017 333 10308 58002;EQDQ01+000002VOVAR 
0115833390999991998050612004-14050-042617FM-12+088299999V0201401N00511220001CN0200001N1+02381+01971101391ADDAA106000091AG10000GF102991021021004501001001KA1240N+02081MA1999999091691MD1999999+0051REMSYN017 333 20208 58005;
0096833390999991998050618004-14050-042617FM-12+088299999V0201401N00411220001CN0200001N1+02851+01731101021ADDAA106000091AG10000GF103991031021004501001001MA1999999091371MD1999999+0111REMSYN011 333 58011;
0156833390999991998050700004-14050-042617FM-12+088299999V0200901N00871004201CN9999999N9+02301+01941101301ADDAA106000091AG10000AY101061AY201061GF106991061021004501001001KA1240M+02871MA1999999091591MD1999999+0131MW1101REMSYN017 333 10287 58013;EQDQ01+000002VOVAR 
0143833390999991998050712004-14050-042617FM-12+088299999V0200901N00671004201CN0040001N1+01901+01731101571ADDAA124001091AG10002AY161061AY261061GF108991081051004501999999KA1240N+01801MA1999999091791MD1999999+0101MW1101REMSYN023 333 20180 58010 69984;
0096833390999991998050718004-14050-042617FM-12+088299999V0200901N00461004201CN0200001N1+02471+01611101211ADDAA106000091AG10000GF106991051021004501031001MA1999999091481MD1999999+0111REMSYN011 333 58011;
0134833390999991998050800004-14050-042617FM-12+088299999V0201401N00931220001CN9999999N9+02121+01661101511ADDAA106000091AG10000GF104991041021004501001001KA1240M+02501MA1999999091711MD1999999+0121REMSYN017 333 10250 58012;EQDQ01+000002VOVAR 
0137833390999991998050812004-14050-042617FM-12+088299999V0201401N00721004201CN0200001N1+01901+01641101731ADDAA106000091AG10000AY101061AY201061GF106991061021004501001001KA1240N+01761MA1999999091931MD1999999+0141MW1101REMSYN017 333 20176 58014;
0096833390999991998050818004-14050-042617FM-12+088299999V0201401N00411220001CN0200001N1+02621+01331101401ADDAA106000091AG10000GF102991021021004501001001MA1999999091651MD1999999+0171REMSYN011 333 58017;
0112833390999991998051118004-14050-042617FM-12+088299999V0201401N00621220001CN0200001N1+02751+00941101361ADDAA106000091AG10000GA1001+999999999GF100991001001999999001001MA1999999091641MD1999999-0041REMSYN011 333 59004;
0115833390999991998051212004-14050-042617FM-12+088299999V0201401N00311004201CN0200001N1+02111+01821101751ADDAA106000091AG10000GF105991051021004501001001KA1240N+01851MA1999999091981MD1999999-0101REMSYN017 333 20185 59010;
0096833390999991998051218004-14050-042617FM-12+088299999V0200901N00311220001CN0200001N1+02941+01361101321ADDAA106000091AG10000GF102991021021004501001001MA1999999091621MD1999999-0021REMSYN011 333 59002;
0134833390999991998051300004-14050-042617FM-12+088299999V0201401N00571004201CN9999999N9+02331+02011101601ADDAA106000091AG10000GF106991061021004501001001KA1240M+02941MA1999999091841MD1999999+0111REMSYN017 333 10294 58011;EQDQ01+000002VOVAR 
0143833390999991998051312004-14050-042617FM-12+088299999V0200901N00571045001CN0200001N1+02021+01971101771ADDAA124002091AG10002AY161061AY221061GF106991041021004501021001KA1240N+02001MA1999999091981MD1999999+0001MW1101REMSYN023 333 20200 58000 60024;
0096833390999991998051318004-14050-042617FM-12+088299999V0200901N00511220001CN0200001N1+02781+01671101361ADDAA106000091AG10000GF103991031021004501001001MA1999999091651MD1999999+0031REMSYN011 333 58003;
0134833390999991998051400004-14050-042617FM-12+088299999V0201401N00671220001CN9999999N9+02401+01731101531ADDAA106000091AG10000GF102991021021004501001001KA1240M+02821MA1999999091771MD1999999-0071REMSYN017 333 10282 59007;EQDQ01+000002VOVAR 
0115833390999991998051412004-14050-042617FM-12+088299999V0200901N00571220001CN0200001N1+02121+01571101691ADDAA106000091AG10000GF102991021021004501001001KA1240N+01781MA1999999091921MD1999999-0051REMSYN017 333 20178 59005;
0112833390999991998051418004-14050-042617FM-12+088299999V0200901N00571220001CN0200001N1+02721+01521101281ADDAA106000091AG10000GA1001+999999999GF100991001001999999001001MA1999999091561MD1999999-0091REMSYN011 333 59009;
0150833390999991998051500004-14050-042617FM-12+088299999V0201401N00511220001CN9999999N9+02241+01571101431ADDAA106000091AG10000GA1001+999999999GF100991001001999999001001KA1240M+02721MA1999999091681MD1999999-0091REMSYN017 333 10272 59009;EQDQ01+000002VOVAR 
0131833390999991998051512004-14050-042617FM-12+088299999V0201401N00511220001CN0200001N1+01981+01501101651ADDAA106000091AG10000GA1001+999999999GF100991001001999999001001KA1240N+01641MA1999999091861MD1999999-0071REMSYN017 333 20164 59007;
0112833390999991998051518004-14050-042617FM-12+088299999V0200901N00621220001CN0200001N1+02661+01191101191ADDAA106000091AG10000GA1001+999999999GF100991001001999999001001MA1999999091461MD1999999-0101REMSYN011 333 59010;
0150833390999991998051600004-14050-042617FM-12+088299999V0201401N00721220001CN9999999N9+02301+01261101201ADDAA106000091AG10000GA1001+999999999GF100991001001999999001001KA1240M+02701MA1999999091461MD1999999-0221REMSYN017 333 10270 59022;EQDQ01+000002VOVAR 
0115833390999991998051612004-14050-042617FM-12+088299999V0200901N00721220001CN0200001N1+02101+01421101481ADDAA106000091AG10000GF102991021021004501001001KA1240N+01601MA1999999091731MD1999999-0131REMSYN017 333 20160 59013;
0112833390999991998051618004-14050-042617FM-12+088299999V0201401N00511220001CN0200001N1+02741+01301101401ADDAA106000091AG10000GA1001+999999999GF100991001001999999001001MA1999999091301MD1999999-0161REMSYN011 333 59016;
0150833390999991998051700004-14050-042617FM-12+088299999V0201401N00511220001CN9999999N9+02281+01561101271ADDAA106000091AG10000GA1001+999999999GF100991001001999999001001KA1240M+02741MA1999999091541MD1999999+0081REMSYN017 333 10274 58008;EQDQ01+000002VOVAR 
0134833390999991998051712004-14050-042617FM-12+088299999V0200901N002119999999N0200001N1+02161+01631101581ADDAA106000091AG10000GF105991001001999999001011KA1240N+01781MA1999999091821MD1999999+0091REMSYN017 333 20178 58009;EQDQ01+000982SCOLCB
0096833390999991998051718004-14050-042617FM-12+088299999V0201401N00461220001CN0200001N1+02761+00901101151ADDAA106000091AG10000GF106991021021004501001041MA1999999091451MD1999999+0151REMSYN011 333 58015;
0150833390999991998051800004-14050-042617FM-12+088299999V0200901N00211220001CN9999999N9+02381+01421101481ADDAA106000091AG10000GF104991001001999999001041KA1240M+02841MA1999999091741MD1999999+0201REMSYN017 333 10284 58020;EQDQ01+000982SCOLCBQ02+000002VOVAR 
0115833390999991998051812004-14050-042617FM-12+088299999V0201401N00671220001CN0200001N1+02201+01801101661ADDAA106000091AG10000GF102991021021004501001001KA1240N+01741MA1999999091911MD1999999+0091REMSYN017 333 20174 58009;
0096833390999991998051818004-14050-042617FM-12+088299999V0201401N00571220001CN0200001N1+02721+01171101411ADDAA106000091AG10000GF104991041021004501001001MA1999999091691MD1999999+0241REMSYN011 333 58024;
0134833390999991998051900004-14050-042617FM-12+088299999V0201401N00931220001CN9999999N9+02321+01311101651ADDAA106000091AG10000GF102991021021004501001001KA1240M+02801MA1999999091891MD1999999+0151REMSYN017 333 10280 58015;EQDQ01+000002VOVAR 
0115833390999991998051912004-14050-042617FM-12+088299999V0201401N00671004201CN0200001N1+02031+01601102001ADDAA106000091AG10000GF106991061021004501001001KA1240N+01821MA1999999092181MD1999999+0271REMSYN017 333 20182 58027;
0096833390999991998051918004-14050-042617FM-12+088299999V0201401N00931220001CN0200001N1+02501+01641101491ADDAA106000091AG10000GF103991031021004501001001MA1999999091741MD1999999+0051REMSYN011 333 58005;
0134833390999991998052000004-14050-042617FM-12+088299999V0201401N00621220001CN9999999N9+02281+01491101791ADDAA106000091AG10000GF102991021021004501001001KA1240M+02591MA1999999092001MD1999999+0111REMSYN017 333 10259 58011;EQDQ01+000002VOVAR 
0137833390999991998052012004-14050-042617FM-12+088299999V0201401N00571004201CN0200001N1+01941+01591101851ADDAA106000091AG10000AY101061AY201061GF106991051021004501031001KA1240N+01701MA1999999092041MD1999999-0141MW1101REMSYN017 333 20170 59014;
0096833390999991998052018004-14050-042617FM-12+088299999V0200501N00361220001CN0200001N1+02621+00951101421ADDAA106000091AG10000GF104991041021004501001001MA1999999091681MD1999999-0061REMSYN011 333 59006;
0134833390999991998052100004-14050-042617FM-12+088299999V0200901N00361220001CN9999999N9+02301+01431101691ADDAA106000091AG10000GF102991021021004501001001KA1240M+02661MA1999999091901MD1999999-0101REMSYN017 333 10266 59010;EQDQ01+000002VOVAR 
0137833390999991998052112004-14050-042617FM-12+088299999V0200901N00621004201CN0200001N1+02061+01841101821ADDAA106000091AG10000AY101061AY201061GF105991051021004501001001KA1240N+01881MA1999999092041MD1999999+0001MW1101REMSYN017 333 20188 58000;
0096833390999991998052118004-14050-042617FM-12+088299999V0200501N00211105001CN0200001N1+02781+01491101311ADDAA106000091AG10000GF105991041021004501001021MA1999999091611MD1999999-0071REMSYN011 333 59007;
0134833390999991998052200004-14050-042617FM-12+088299999V0200901N00671004201CN9999999N9+02241+01841101611ADDAA106000091AG10000GF106991061021004501001001KA1240M+02801MA1999999091841MD1999999-0061REMSYN017 333 10280 59006;EQDQ01+000002VOVAR 
0096833390999991998052218004-14050-042617FM-12+088299999V0200501N00821220001CN0200001N1+02501+01641101561ADDAA106000091AG10000GF104991041021004501001001MA1999999091751MD1999999+0141REMSYN011 333 58014;
0156833390999991998052300004-14050-042617FM-12+088299999V0200901N00571220001CN9999999N9+02151+01841101741ADDAA106000091AG10000AY101061AY201061GF102991021021004501001001KA1240M+02561MA1999999091931MD1999999+0091MW1101REMSYN017 333 10256 58009;EQDQ01+000002VOVAR 
0137833390999991998052312004-14050-042617FM-12+088299999V0200901N00571004201CN0040001N1+01941+01721100881ADDAA106000091AG10000AY101061AY201061GF108991081051004501999999KA1240N+01801MA1999999092051MD1999999+0021MW1101REMSYN017 333 20180 58002;
0096833390999991998052318004-14050-042617FM-12+088299999V0200501N00211220001CN0200001N1+02681+01491101421ADDAA106000091AG10000GF102991021021004501001001MA1999999091691MD1999999-0061REMSYN011 333 59006;
0150833390999991998052400004-14050-042617FM-12+088299999V0201401N00311220001CN9999999N9+02321+01471101611ADDAA106000091AG10000GA1001+999999999GF100991001001999999001001KA1240M+02721MA1999999091841MD1999999-0091REMSYN017 333 10272 59009;EQDQ01+000002VOVAR 
0115833390999991998052412004-14050-042617FM-12+088299999V0201401N00671220001CN0200001N1+02081+01601101801ADDAA106000091AG10000GF102991021021004501001001KA1240N+01681MA1999999092021MD1999999-0031REMSYN017 333 20168 59003;
0096833390999991998052418004-14050-042617FM-12+088299999V0200901N00571220001CN0200001N1+02571+01411101411ADDAA106000091AG10000GF102991021021004501001001MA1999999091671MD1999999-0021REMSYN011 333 59002;
0131833390999991998052512004-14050-042617FM-12+088299999V0201401N00411220001CN0200001N1+02081+01541101761ADDAA106000091AG10000GA1001+999999999GF100991001001999999001001KA1240N+01721MA1999999091971MD1999999-0051REMSYN017 333 20172 59005;
0150833390999991998052600004-14050-042617FM-12+088299999V0201401N00571220001CN9999999N9+02271+01361101481ADDAA106000091AG10000GA1001+999999999GF100991001001999999001001KA1240M+02671MA1999999091721MD1999999-0141REMSYN017 333 10267 59014;EQDQ01+000002VOVAR 
0115833390999991998052612004-14050-042617FM-12+088299999V0200901N00511220001CN0200001N1+02061+01361101741ADDAA106000091AG10000GF102991011011008001001041KA1240N+01641MA1999999091961MD1999999-0011REMSYN017 333 20164 59001;
0096833390999991998052618004-14050-042617FM-12+088299999V0201401N00151220001CN0200001N1+02831+01191101321ADDAA106000091AG10000GF102991011021004501001011MA1999999091601MD1999999+0011REMSYN011 333 58001;
0150833390999991998052700004-14050-042617FM-12+088299999V0201401N00151220001CN9999999N9+02241+01571101471ADDAA106000091AG10000GA1001+999999999GF100991001001999999001001KA1240M+02861MA1999999091691MD1999999-0061REMSYN017 333 10286 59006;EQDQ01+000002VOVAR 
0134833390999991998052712004-14050-042617FM-12+088299999V0200901N00151220001CN0200001N1+02221+01731101661ADDAA106000091AG10000GF103991001001999999001041KA1240N+01641MA1999999091901MD1999999-0061REMSYN017 333 20164 59006;EQDQ01+000982SCOLCB
0096833390999991998052718004-14050-042617FM-12+088299999V0200501N00211220001CN0200001N1+03021+01071101251ADDAA106000091AG10000GF104991011021004501001041MA1999999091551MD1999999-0051REMSYN011 333 59005;
0150833390999991998052800004-14050-042617FM-12+088299999V0201401N00101220001CN9999999N9+02481+01171101401ADDAA106000091AG10000GA1001+999999999GF100991001001999999001001KA1240M+03061MA1999999091681MD1999999-0011REMSYN017 333 10306 59001;EQDQ01+000002VOVAR 
0131833390999991998052812004-14050-042617FM-12+088299999V0200901N00261220001CN0200001N1+02501+01671101511ADDAA106000091AG10000GA1001+999999999GF100991001001999999001001KA1240N+01811MA1999999091811MD1999999-0091REMSYN017 333 20181 59009;
0096833390999991998052818004-14050-042617FM-12+088299999V0203201N00151220001CN0200001N1+03151+01141101171ADDAA106000091AG10000GF102991021021004501001001MA1999999091471MD1999999-0081REMSYN011 333 59008;
0150833390999991998052900004-14050-042617FM-12+088299999V0201401N00151220001CN9999999N9+02591+01321101351ADDAA106000091AG10000GA1001+999999999GF100991001001999999001001KA1240M+03081MA1999999091671MD1999999-0011REMSYN017 333 10308 59001;EQDQ01+000002VOVAR 
0115833390999991998052912004-14050-042617FM-12+088299999V0200901N00931220001CN0200001N1+02221+01551101691ADDAA106000091AG10000GF103991031021004501001001KA1240N+02001MA1999999091951MD1999999-0141REMSYN017 333 20200 59014;
0096833390999991998052918004-14050-042617FM-12+088299999V0200501N00821220001CN0200001N1+02671+01641101281ADDAA106000091AG10000GF102991021021004501001001MA1999999091581MD1999999+0111REMSYN011 333 58011;
0150833390999991998053000004-14050-042617FM-12+088299999V0200901N00461220001CN9999999N9+02321+01601101421ADDAA106000091AG10000GA1001+999999999GF100991001001999999001001KA1240M+02721MA1999999091681MD1999999+0011REMSYN017 333 10272 58001;EQDQ01+000002VOVAR 
0131833390999991998053012004-14050-042617FM-12+088299999V0200901N00311220001CN0200001N1+02141+01571101701ADDAA106000091AG10000GA1001+999999999GF100991001001999999001001KA1240N+01861MA1999999091941MD1999999-0011REMSYN017 333 20186 59001;
0112833390999991998053018004-14050-042617FM-12+088299999V0202301N00261220001CN0200001N1+03141+01071101091ADDAA106000091AG10000GA1001+999999999GF100991001001999999001001MA1999999091451MD1999999-0131REMSYN011 333 59013;
0150833390999991998053100004-14050-042617FM-12+088299999V0202301N00211220001CN9999999N9+02641+01171101331ADDAA106000091AG10000GA1001+999999999GF100991001001999999001001KA1240M+03201MA1999999091631MD1999999-0051REMSYN017 333 10320 59005;EQDQ01+000002VOVAR 
0150833390999991998053112004-14050-042617FM-12+088299999V0200501N00311220001CN9999999N9+02461+01681101521ADDAA106000091AG10000GA1001+999999999GF100991001001999999001001KA1240N+01931MA1999999091831MD1999999-0111REMSYN017 333 20193 59011;EQDQ01+000002VOVAR 
0096833390999991998053118004-14050-042617FM-12+088299999V0201401N00101004201CN0040001N1+02961+01461101211ADDAA106000091AG10000GF106991061021004501001001MA1999999091521MD1999999+0071REMSYN011 333 58007;
0134833390999991998060100004-14050-042617FM-12+088299999V0201801N00261220001CN9999999N9+02621+01371101401ADDAA106000091AG10000GF102991021021004501001001KA1240M+03141MA1999999091721MD1999999+0111REMSYN017 333 10314 58011;EQDQ01+000002VOVAR 
0137833390999991998060112004-14050-042617FM-12+088299999V0200901N00621004201CN0040001N1+02181+02011101781ADDAA106000091AG10000AY101061AY201061GF108991081051004501999999KA1240N+02061MA1999999092041MD1999999+0211MW1101REMSYN017 333 20206 58021;
0096833390999991998060118004-14050-042617FM-12+088299999V0200901N00621220001CN0200001N1+02801+01691101421ADDAA106000091AG10000GF103991031021004501001001MA1999999091741MD1999999+0221REMSYN011 333 58022;
0134833390999991998060200004-14050-042617FM-12+088299999V0200901N00931220001CN9999999N9+02201+01761101771ADDAA106000091AG10000GF102991021021004501001001KA1240M+02831MA1999999091991MD1999999+0271REMSYN017 333 10283 58027;EQDQ01+000002VOVAR 
0115833390999991998060212004-14050-042617FM-12+088299999V0201401N00771220001CN0200001N1+02071+01681101961ADDAA106000091AG10000GF103991031021004501001001KA1240N+01821MA1999999092141MD1999999+0101REMSYN017 333 20182 58010;
0096833390999991998060218004-14050-042617FM-12+088299999V0200901N00771220001CN0200001N1+02651+01601101551ADDAA106000091AG10000GF102991021021004501001001MA1999999091801MD1999999+0051REMSYN011 333 58005;
0150833390999991998060300004-14050-042617FM-12+088299999V0201401N00511220001CN9999999N9+02181+01761101731ADDAA106000091AG10000GA1001+999999999GF100991001001999999001001KA1240M+02691MA1999999091941MD1999999-0051REMSYN017 333 10269 59005;EQDQ01+000002VOVAR 
0137833390999991998060312004-14050-042617FM-12+088299999V0201401N00721004201CN0200001N1+02001+01901101951ADDAA106000091AG10000AY101061AY201061GF106991051021004501031001KA1240N+01801MA1999999092131MD1999999-0011MW1101REMSYN017 333 20180 59001;
0096833390999991998060318004-14050-042617FM-12+088299999V0201401N00311220001CN0200001N1+02541+01291101501ADDAA106000091AG10000GF103991021021004501001021MA1999999091841MD1999999+0041REMSYN011 333 58004;
0150833390999991998060400004-14050-042617FM-12+088299999V0201401N00461220001CN9999999N9+02131+01341101831ADDAA106000091AG10000GA1001+999999999GF100991001001999999001001KA1240M+02571MA1999999092011MD1999999+0071REMSYN017 333 10257 58007;EQDQ01+000002VOVAR 
0137833390999991998060412004-14050-042617FM-12+088299999V0201401N01131004201CN0200001N1+01841+01511101971ADDAA106000091AG10000AY101061AY201061GF106991061021004501001001KA1240N+01681MA1999999092131MD1999999+0001MW1101REMSYN017 333 20168 58000;
0096833390999991998060418004-14050-042617FM-12+088299999V0201401N00621220001CN0200001N1+02421+01281101641ADDAA106000091AG10000GF104991031021004501021001MA1999999091851MD1999999+0011REMSYN011 333 58001;
0134833390999991998060500004-14050-042617FM-12+088299999V0201401N00621220001CN9999999N9+02101+01221101881ADDAA106000091AG10000GF102991021021004501001001KA1240M+02441MA1999999092041MD1999999+0031REMSYN017 333 10244 58003;EQDQ01+000002VOVAR 
0115833390999991998060512004-14050-042617FM-12+088299999V0200901N00571220001CN0200001N1+01861+01491101971ADDAA106000091AG10000GF103991031021004501001001KA1240N+01621MA1999999092131MD1999999+0001REMSYN017 333 20162 58000;
0096833390999991998060518004-14050-042617FM-12+088299999V0201401N00461220001CN0200001N1+02531+01061101541ADDAA106000091AG10000GF102991021021004501001001MA1999999091771MD1999999-0081REMSYN011 333 59008;
0150833390999991998060600004-14050-042617FM-12+088299999V0201401N00671220001CN9999999N9+02061+01041101881ADDAA106000091AG10000GA1001+999999999GF100991001001999999001001KA1240M+02541MA1999999092041MD1999999+0001REMSYN017 333 10254 58000;EQDQ01+000002VOVAR 
0137833390999991998060612004-14050-042617FM-12+088299999V0201401N00771004201CN0040001N1+01641+01411102191ADDAA106000091AG10000AY101061AY201061GF108991081051004501999999KA1240N+01581MA1999999092301MD1999999+0171MW1101REMSYN017 333 20158 58017;
0096833390999991998060618004-14050-042617FM-12+088299999V0200901N00671220001CN0200001N1+02221+01271101841ADDAA106000091AG10000GF103991031021004501001001MA1999999091991MD1999999+0221REMSYN011 333 58022;
0150833390999991998060700004-14050-042617FM-12+088299999V0201401N00571220001CN9999999N9+01901+01301101961ADDAA106000091AG10000GA1001+999999999GF100991001001999999001001KA1240M+02261MA1999999092071MD1999999+0031REMSYN017 333 10226 58003;EQDQ01+000002VOVAR 
0115833390999991998060712004-14050-042617FM-12+088299999V0200501N00621004201CN0200001N1+01681+01151102061ADDAA106000091AG10000GF105991051021004501001001KA1240N+01401MA1999999092181MD1999999-0121REMSYN017 333 20140 59012;
0112833390999991998060718004-14050-042617FM-12+088299999V0201401N00051220001CN0200001N1+02381+01081101661ADDAA106000091AG10000GA1001+999999999GF100991001001999999001001MA1999999091841MD1999999-0151REMSYN011 333 59015;
0150833390999991998060800004-14050-042617FM-12+088299999V0201401N00621220001CN9999999N9+02001+00961101891ADDAA106000091AG10000GA1001+999999999GF100991001001999999001001KA1240M+02401MA1999999091941MD1999999-0131REMSYN017 333 10240 59013;EQDQ01+000002VOVAR 
0131833390999991998060812004-14050-042617FM-12+088299999V0200901N00411220001CN0200001N1+01721+01191101941ADDAA106000091AG10000GA1001+999999999GF100991001001999999001001KA1240N+01431MA1999999092071MD1999999-0111REMSYN017 333 20143 59011;
0112833390999991998060818004-14050-042617FM-12+088299999V0200901N00461220001CN0200001N1+02401+01261101541ADDAA106000091AG10000GA1001+999999999GF100991001001999999001001MA1999999091731MD1999999-0111REMSYN011 333 59011;
0150833390999991998060900004-14050-042617FM-12+088299999V0200901N00211220001CN9999999N9+02081+01201101721ADDAA106000091AG10000GA1001+999999999GF100991001001999999001001KA1240M+02461MA1999999091881MD1999999-0061REMSYN017 333 10246 59006;EQDQ01+000002VOVAR 
0115833390999991998060912004-14050-042617FM-12+088299999V0200901N00571004201CN0200001N1+01821+01451101921ADDAA106000091AG10000GF106991061021004501001001KA1240N+01621MA1999999092071MD1999999+0001REMSYN017 333 20162 58000;
0112833390999991998060918004-14050-042617FM-12+088299999V0200901N00461220001CN0200001N1+02661+01231101421ADDAA106000091AG10000GA1001+999999999GF100991001001999999001001MA1999999091671MD1999999-0061REMSYN011 333 59006;
0150833390999991998061000004-14050-042617FM-12+088299999V0201401N00151220001CN9999999N9+02201+01051101671ADDAA106000091AG10000GA1001+999999999GF100991001001999999001001KA1240M+02661MA1999999091851MD1999999-0031REMSYN017 333 10266 59003;EQDQ01+000002VOVAR 
0115833390999991998061012004-14050-042617FM-12+088299999V0200901N00311220001CN0200001N1+02111+01641101821ADDAA106000091AG10000GF102991021021004501001001KA1240N+01761MA1999999092021MD1999999-0051REMSYN017 333 20176 59005;
0096833390999991998061018004-14050-042617FM-12+088299999V0201401N00461220001CN0200001N1+02721+01521101351ADDAA106000091AG10000GF103991021021004501001011MA1999999091641MD1999999-0031REMSYN011 333 59003;
0134833390999991998061100004-14050-042617FM-12+088299999V0200901N00311220001CN9999999N9+02291+01921101541ADDAA106000091AG10000GF102991021021004501001001KA1240M+02741MA1999999091781MD1999999-0071REMSYN017 333 10274 59007;EQDQ01+000002VOVAR 
0115833390999991998061112004-14050-042617FM-12+088299999V0200901N00461220001CN0200001N1+02141+01741101781ADDAA106000091AG10000GF102991021021004501001001KA1240N+01641MA1999999092001MD1999999-0021REMSYN017 333 20164 59002;
0096833390999991998061118004-14050-042617FM-12+088299999V0201401N00261220001CN0200001N1+02821+01371101381ADDAA106000091AG10000GF102991021021004501001001MA1999999091661MD1999999+0021REMSYN011 333 58002;
0150833390999991998061200004-14050-042617FM-12+088299999V0201401N00211220001CN9999999N9+02321+01371101571ADDAA106000091AG10000GA1001+999999999GF100991001001999999001001KA1240M+02881MA1999999091821MD1999999+0041REMSYN017 333 10288 58004;EQDQ01+000002VOVAR 
0131833390999991998061212004-14050-042617FM-12+088299999V0201401N00361220001CN0200001N1+02221+01621101761ADDAA106000091AG10000GA1001+999999999GF100991001001999999001001KA1240N+01701MA1999999091991MD1999999-0011REMSYN017 333 20170 59001;
0096833390999991998061218004-14050-042617FM-12+088299999V0200501N00311220001CN0200001N1+02821+01251101381ADDAA106000091AG10000GF102991021021004501001001MA1999999091651MD1999999-0011REMSYN011 333 59001;
0150833390999991998061300004-14050-042617FM-12+088299999V0201401N00411220001CN9999999N9+02361+00891101651ADDAA106000091AG10000GA1001+999999999GF100991001001999999001001KA1240M+02861MA1999999091901MD1999999+0081REMSYN017 333 10286 58008;EQDQ01+000002VOVAR 
0115833390999991998061312004-14050-042617FM-12+088299999V0201401N00821004201CN0200001N1+01901+01571102101ADDAA106000091AG10000GF106991061021004501001001KA1240N+01741MA1999999092261MD1999999+0271REMSYN017 333 20174 58027;
0096833390999991998061318004-14050-042617FM-12+088299999V0201401N00821220001CN0200001N1+02421+01401101711ADDAA106000091AG10000GF103991031021004501001001MA1999999091931MD1999999+0281REMSYN011 333 58028;
0134833390999991998061400004-14050-042617FM-12+088299999V0201401N00671004201CN9999999N9+02081+01471101921ADDAA106000091AG10000GF106991061021004501001001KA1240M+02481MA1999999092081MD1999999+0181REMSYN017 333 10248 58018;EQDQ01+000002VOVAR 
0143833390999991998061412004-14050-042617FM-12+088299999V0201401N00671004201CN0200001N1+01701+01351102231ADDAA124000191AG10002AY161061AY221061GF108991051021004501021999KA1240N+01621MA1999999092301MD1999999+0061MW1501REMSYN023 333 20162 58006 69924;
0124833390999991998061418004-14050-042617FM-12+088299999V0201401N00931004201CN0200001N1+02121+01441101821ADDAA106999929AG10000AY151061AY221061GF105991051021004501001001MA1999999091971MD1999999+0041MW1021REMSYN017 333 58004 69901;
0134833390999991998061500004-14050-042617FM-12+088299999V0201401N00671004201CN9999999N9+01901+01321101961ADDAA106000091AG10000GF106991061021004501001001KA1240M+02481MA1999999092081MD1999999+0001REMSYN017 333 10248 58000;EQDQ01+000002VOVAR 
0115833390999991998061512004-14050-042617FM-12+088299999V0201401N00821004201CN0200001N1+01741+01251102011ADDAA106000091AG10000GF106991061021004501001001KA1240N+01561MA1999999092131MD1999999-0191REMSYN017 333 20156 59019;
0096833390999991998061518004-14050-042617FM-12+088299999V0200901N00821220001CN0200001N1+02161+01271101641ADDAA106000091AG10000GF102991021021004501001001MA1999999091821MD1999999-0151REMSYN011 333 59015;
0150833390999991998061600004-14050-042617FM-12+088299999V0201401N00771220001CN9999999N9+01861+01411101841ADDAA106000091AG10000GA1001+999999999GF100991001001999999001001KA1240M+02261MA1999999091971MD1999999-0111REMSYN017 333 10226 59011;EQDQ01+000002VOVAR 
0137833390999991998061612004-14050-042617FM-12+088299999V0201401N00821004201CN0040001N1+01681+01351101861ADDAA106000091AG10000AY101061AY201061GF106991051021004501021001KA1240N+01501MA1999999091981MD1999999-0151MW1101REMSYN017 333 20150 59015;
0096833390999991998061618004-14050-042617FM-12+088299999V0201401N00771045001CN0200001N1+02141+01381101561ADDAA106000091AG10000GF105991041021004501021001MA1999999091731MD1999999-0091REMSYN011 333 59009;
0150833390999991998061700004-14050-042617FM-12+088299999V0201401N00411220001CN9999999N9+01891+01321101731ADDAA106000091AG10000GA1001+999999999GF100991001001999999001001KA1240M+02161MA1999999091871MD1999999-0101REMSYN017 333 10216 59010;EQDQ01+000002VOVAR 
0115833390999991998061712004-14050-042617FM-12+088299999V0200501N00411220001CN0200001N1+01961+01531101861ADDAA106000091AG10000GF102991021021004501001001KA1240N+01501MA1999999092011MD1999999+0031REMSYN017 333 20150 58003;
0096833390999991998061718004-14050-042617FM-12+088299999V0200501N00261220001CN0200001N1+02681+01211101261ADDAA106000091AG10000GF102991021021004501001001MA1999999091501MD1999999-0231REMSYN011 333 59023;
0150833390999991998061800004-14050-042617FM-12+088299999V0201401N00461220001CN9999999N9+02251+01291101491ADDAA106000091AG10000GA1001+999999999GF100991001001999999001001KA1240M+02701MA1999999091721MD1999999-0151REMSYN017 333 10270 59015;EQDQ01+000002VOVAR 
0137833390999991998061812004-14050-042617FM-12+088299999V0201401N00311004201CN0040001N1+01781+01721101821ADDAA106000091AG10000AY101061AY201061GF107991061021004501021999KA1240N+01501MA1999999091991MD1999999-0021MW1101REMSYN017 333 20150 59002;
0096833390999991998061818004-14050-042617FM-12+088299999V0200901N00411004201CN0200001N1+02421+01541101501ADDAA106000091AG10000GF106991061021004501001001MA1999999091721MD1999999+0221REMSYN011 333 58022;
0134833390999991998061900004-14050-042617FM-12+088299999V0200901N00261220001CN9999999N9+02121+01681101591ADDAA106000091AG10000GF102991021021004501001001KA1240M+02641MA1999999091781MD1999999+0061REMSYN017 333 10264 58006;EQDQ01+000002VOVAR 
0137833390999991998061912004-14050-042617FM-12+088299999V0200901N00261004201CN0200001N1+01941+01771101741ADDAA106000091AG10000AY101061AY201061GF106991061021004501001001KA1240N+01801MA1999999091931MD1999999-0061MW1101REMSYN017 333 20180 59006;
