0134833980999991998010100004-15667-038933FM-12+000599999V0200501N00311045001CN9999999N9+02661+02311101181ADDAA106000091AG10000GF105991021051008001031001KA1240M+02971MA1999999101071MD1999999-0221REMSYN017 333 10297 59022;EQDQ01+000002VOVAR 
0115833980999991998010112004-15667-038933FM-12+000599999V0200501N00311045001CN0200001N1+02981+02531101341ADDAA106000091AG10000GF105991021051008001041001KA1240N+02231MA1999999101291MD1999999+0071REMSYN017 333 20223 58007;
0096833980999991998010118004-15667-038933FM-12+000599999V0200501N00311220001CN0200001N1+02981+02231101121ADDAA106000091AG10000GF102991021021008001001001MA1999999101071MD1999999+0071REMSYN011 333 58007;
0134833980999991998010200004-15667-038933FM-12+000599999V0200501N00101220001CN9999999N9+02711+02281101281ADDAA106000091AG10000GF102991021011008001001001KA1240M+03061MA1999999101261MD1999999-0201REMSYN017 333 10306 59020;EQDQ01+000002VOVAR 
0115833980999991998010212004-15667-038933FM-12+000599999V0203601N00051045001CN0200001N1+02961+02151101331ADDAA106000091AG10000GF105991021021008001041001KA1240N+02141MA1999999101281MD1999999+0011REMSYN017 333 20214 58001;
0096833980999991998010218004-15667-038933FM-12+000599999V0200501N00211220001CN0200001N1+02701+02221101021ADDAA106000091AG10000GF102991021021008001001001MA1999999100971MD1999999-0101REMSYN011 333 59010;
0134833980999991998010300004-15667-038933FM-12+000599999V0209991C00001220001CN9999999N9+02591+02501101051ADDAA106000091AG10000GF102991011021008001001071KA1240M+03021MA1999999101001MD1999999-0231REMSYN017 333 10302 59023;EQDQ01+000002VOVAR 
0134833980999991998010312004-15667-038933FM-12+000599999V0200501N00101220001CN0200001N1+03011+02261101241ADDAA106000091AG10000GF102991999021008001001001KA1240N+02121MA1999999101191MD1999999-0091REMSYN017 333 20212 59009;EQDQ01+000032SCOTLC
0115833980999991998010412004-15667-038933FM-12+000599999V0200501N00101220001CN0200001N1+02941+02241101141ADDAA106000091AG10000GF102991021021008001001001KA1240N+02121MA1999999101091MD1999999+0171REMSYN017 333 20212 58017;
0115833980999991998010512004-15667-038933FM-12+000599999V0200501N00311045001CN0200001N1+02881+02321101131ADDAA106000091AG10000GF106991021051008001041011KA1240N+02301MA1999999101081MD1999999-0011REMSYN017 333 20230 59001;
0134833980999991998010600004-15667-038933FM-12+000599999V0209991C00001220001CN9999999N9+02721+02431101091ADDAA106000091AG10000GF103991011021008001031011KA1240M+03081MA1999999101041MD1999999-0051REMSYN017 333 10308 59005;EQDQ01+000002VOVAR 
0115833980999991998010612004-15667-038933FM-12+000599999V0200501N00311045001CN0200001N1+02971+02401101091ADDAA106000091AG10000GF106991031051008001041011KA1240N+02311MA1999999101041MD1999999-0041REMSYN017 333 20231 59004;
0096833980999991998010618004-15667-038933FM-12+000599999V0200501N00511045001CN0200001N1+02931+02291100721ADDAA106000091AG10000GF106991031021008001041011MA1999999100671MD1999999-0131REMSYN011 333 59013;
0134833980999991998010700004-15667-038933FM-12+000599999V0203601N00211220001CN9999999N9+02681+02481100871ADDAA106000091AG10000GF102991021021008001001001KA1240M+03101MA1999999100821MD1999999-0221REMSYN017 333 10310 59022;EQDQ01+000002VOVAR 
0115833980999991998010712004-15667-038933FM-12+000599999V0203601N00211105001CN0200001N1+03141+02501101081ADDAA106000091AG10000GF105991021011008001041011KA1240N+02411MA1999999101031MD1999999-0011REMSYN017 333 20241 59001;
0096833980999991998010718004-15667-038933FM-12+000599999V0200501N00411220001CN0200001N1+03011+02551100671ADDAA106000091AG10000GF103991031021008001001001MA1999999100621MD1999999-0071REMSYN011 333 59007;
0134833980999991998010800004-15667-038933FM-12+000599999V0200501N00101220001CN9999999N9+02691+02331100891ADDAA106000091AG10000GF102991011021008001001011KA1240M+03201MA1999999100841MD1999999+0021REMSYN017 333 10320 58002;EQDQ01+000002VOVAR 
0096833980999991998010818004-15667-038933FM-12+000599999V0200501N00511045001CN0200001N1+02981+02491100601ADDAA106000091AG10000GF106991021051008001041011MA1999999100551MD1999999-0071REMSYN011 333 59007;
0150833980999991998010900004-15667-038933FM-12+000599999V0202701N00101220001CN9999999N9+02711+02521100921ADDAA106000091AG10000GF102991999021008001001001KA1240M+03131MA1999999100871MD1999999-0031REMSYN017 333 10313 59003;EQDQ01+000032SCOTLCQ02+000002VOVAR 
0115833980999991998010912004-15667-038933FM-12+000599999V0203601N00311045001CN0100001N1+03021+02411101011ADDAA106000091AG10000GF106991041051008001021001KA1240N+02511MA1999999100961MD1999999+0131REMSYN017 333 20251 58013;
0096833980999991998010918004-15667-038933FM-12+000599999V0200501N00511045001CN0200001N1+03021+02391100641ADDAA106000091AG10000GF106991021051008001041011MA1999999100591MD1999999+0041REMSYN011 333 58004;
0134833980999991998011000004-15667-038933FM-12+000599999V0200501N00101220001CN9999999N9+02691+02481101001ADDAA106000091AG10000GF102991021021008001001001KA1240M+03131MA1999999101051MD1999999+0181REMSYN017 333 10313 58018;EQDQ01+000002VOVAR 
0143833980999991998011012004-15667-038933FM-12+000599999V0203201N00211007501CN0040001N1+02541+02441101191ADDAA124002091AG10009AY191061AY261061GF108991051071008001021999KA1240N+02501MA1999999101141MD1999999+0181MW1611REMSYN023 333 20250 58018 60024;
0124833980999991998011018004-15667-038933FM-12+000599999V0200501N00311045001CN0200001N1+02991+02421100971ADDAA106006091AG10009AY191061AY261061GF106991031051008001041011MA1999999100921MD1999999+0331MW1021REMSYN017 333 58033 60061;
0134833980999991998011100004-15667-038933FM-12+000599999V0203601N00211045001CN9999999N9+02681+02521101021ADDAA106000091AG10000GF105991021051008001041001KA1240M+03011MA1999999100971MD1999999-0081REMSYN017 333 10301 59008;EQDQ01+000002VOVAR 
0115833980999991998011112004-15667-038933FM-12+000599999V0203601N00101007501CN0100001N1+02841+02601101381ADDAA106000091AG10000GF107991051051008001021001KA1240N+02391MA1999999101331MD1999999+0191REMSYN017 333 20239 58019;
0096833980999991998011118004-15667-038933FM-12+000599999V0200501N00211105001CN0200001N1+03001+02571101261ADDAA106000091AG10000GF105991021021008001041041MA1999999101211MD1999999+0291REMSYN011 333 58029;
0134833980999991998011200004-15667-038933FM-12+000599999V0209991C00001220001CN9999999N9+02581+02401101391ADDAA106000091AG10000GF104991021021008001041041KA1240M+03061MA1999999101341MD1999999+0371REMSYN017 333 10306 58037;EQDQ01+000002VOVAR 
0143833980999991998011212004-15667-038933FM-12+000599999V0200901N00101045001CN0100001N1+02921+02501101511ADDAA124004091AG10003AY161061AY221061GF106991041051008001021001KA1240N+02261MA1999999101461MD1999999+0131MW1011REMSYN023 333 20226 58013 60044;
0096833980999991998011218004-15667-038933FM-12+000599999V0201401N00101220001CN0200001N1+03171+02331101291ADDAA106000091AG10000GF102991011021008001051001MA1999999101241MD1999999+0031REMSYN011 333 58003;
0134833980999991998011300004-15667-038933FM-12+000599999V0209991C00001220001CN9999999N9+02591+02461101371ADDAA106000091AG10000GF102991021021008001001001KA1240M+03171MA1999999101321MD1999999-0021REMSYN017 333 10317 59002;EQDQ01+000002VOVAR 
0143833980999991998011312004-15667-038933FM-12+000599999V0200901N00211045001CN0100001N1+02841+02421101371ADDAA124004091AG10003AY161061AY221061GF106991041051008001021001KA1240N+02371MA1999999101321MD1999999-0141MW1011REMSYN023 333 20237 59014 60044;
0134833980999991998011400004-15667-038933FM-12+000599999V0209991C00001220001CN9999999N9+02731+02501101221ADDAA106000091AG10000GF102991021021008001001001KA1240M+03031MA1999999101171MD1999999-0111REMSYN017 333 10303 59011;EQDQ01+000002VOVAR 
0143833980999991998011412004-15667-038933FM-12+000599999V0200501N00101045001CN0100001N1+02841+02261101141ADDAA124001091AG10000AY151061AY221061GF106991031051008001021001KA1240N+02411MA1999999101091MD1999999-0231MW1011REMSYN023 333 20241 59023 60014;
0096833980999991998011418004-15667-038933FM-12+000599999V0200501N00311220001CN0200001N1+02841+02441101111ADDAA106000091AG10000GF102991011021008001051001MA1999999101061MD1999999+0011REMSYN011 333 58001;
0134833980999991998011500004-15667-038933FM-12+000599999V0209991C00001220001CN9999999N9+02661+02401101121ADDAA106000091AG10000GF102991021021008001001001KA1240M+03081MA1999999101071MD1999999-0101REMSYN017 333 10308 59010;EQDQ01+000002VOVAR 
0115833980999991998011512004-15667-038933FM-12+000599999V0200901N00211220001CN0200001N1+03051+02351101101ADDAA106000091AG10000GF104991031021008001041001KA1240N+02341MA1999999101051MD1999999-0041REMSYN017 333 20234 59004;
0096833980999991998011518004-15667-038933FM-12+000599999V0200501N00101220001CN0200001N1+03061+02521101001ADDAA106000091AG10000GF102991021021008001001001MA1999999100951MD1999999-0111REMSYN011 333 59011;
0134833980999991998011600004-15667-038933FM-12+000599999V0200501N00211220001CN9999999N9+02801+02441101041ADDAA106000091AG10000GF102991021021008001001001KA1240M+03091MA1999999100991MD1999999-0081REMSYN017 333 10309 59008;EQDQ01+000002VOVAR 
0143833980999991998011612004-15667-038933FM-12+000599999V0203601N00211007501CN0100001N1+02661+02461101181ADDAA124001091AG10003AY161061AY221061GF107991051071008001021001KA1240N+02451MA1999999101131MD1999999+0081MW1601REMSYN023 333 20245 58008 60014;
0134833980999991998012200004-15667-038933FM-12+000599999V0200501N00101045001CN9999999N9+02861+02421101341ADDAA106000091AG10000GF106991021051008001021001KA1240M+03011MA1999999101291MD1999999+0141REMSYN017 333 10301 58014;EQDQ01+000002VOVAR 
0115833980999991998012212004-15667-038933FM-12+000599999V0201801N00101045001CN0100001N1+02721+02481101161ADDAA106000091AG10000GF106991041051008001021001KA1240N+02391MA1999999101111MD1999999-0031REMSYN017 333 20239 59003;
0096833980999991998012218004-15667-038933FM-12+000599999V0201401N00211045001CN0100001N1+02841+02401101101ADDAA106000091AG10000GF107991041051008001021001MA1999999101051MD1999999+0071REMSYN011 333 58007;
0143833980999991998012312004-15667-038933FM-12+000599999V0203201N00211007501CN0040001N1+02641+02391101191ADDAA124005091AG10003AY161061AY221061GF108991051051008001021999KA1240N+02291MA1999999101141MD1999999+0031MW1021REMSYN023 333 20229 58003 60054;
0096833980999991998012318004-15667-038933FM-12+000599999V0201401N00211045001CN0100001N1+02911+02411100881ADDAA106000091AG10000GF106991031051008001041011MA1999999100831MD1999999-0221REMSYN011 333 59022;
0134833980999991998012400004-15667-038933FM-12+000599999V0209991C00001220001CN9999999N9+02651+02481101131ADDAA106000091AG10000GF103991031021008001001011KA1240M+02941MA1999999101041MD1999999+0001REMSYN017 333 10294 59000;EQDQ01+000002VOVAR 
0143833980999991998012412004-15667-038933FM-12+000599999V0203601N00211045001CN0100001N1+02601+02191101251ADDAA124001091AG10000AY151061AY221061GF106991041051008001021001KA1240N+02351MA1999999101201MD1999999+0061MW1021REMSYN023 333 20235 58006 60014;
0096833980999991998012418004-15667-038933FM-12+000599999V0200901N00211045001CN0200001N1+02921+02341101041ADDAA106000091AG10000GF105991031021008001041041MA1999999100991MD1999999+0161REMSYN011 333 58016;
0134833980999991998012500004-15667-038933FM-12+000599999V0203201N00101220001CN9999999N9+02701+02431101031ADDAA106000091AG10000GF104991021011008001031001KA1240M+03011MA1999999100981MD1999999-0101REMSYN017 333 10301 59010;EQDQ01+000002VOVAR 
0115833980999991998012512004-15667-038933FM-12+000599999V0201801N00211045001CN0100001N1+02901+02371101141ADDAA106000091AG10000GF106991041051008001021001KA1240N+02391MA1999999101091MD1999999-0111REMSYN017 333 20239 59011;
0162833980999991998012600004-15667-038933FM-12+000599999V0203201N00101007501CN9999999N9+02521+02381101121ADDAA106004091AG10009AY191061AY261061GF108991051051008001021999KA1240M+03021MA1999999101071MD1999999+0091MW1021REMSYN023 333 10302 58009 60041;EQDQ01+000002VOVAR 
0143833980999991998012612004-15667-038933FM-12+000599999V0203201N00101007501CN0040001N1+02741+02541101311ADDAA124049091AG10009AY191061AY261061GF107991051051008001021001KA1240N+02361MA1999999101261MD1999999+0171MW1021REMSYN023 333 20236 58017 60494;
0096833980999991998012618004-15667-038933FM-12+000599999V0200501N00311045001CN0200001N1+02981+02581101121ADDAA106000091AG10000GF106991021051008001041011MA1999999101071MD1999999+0171REMSYN011 333 58017;
0150833980999991998012700004-15667-038933FM-12+000599999V0203601N00211220001CN9999999N9+02721+02501101381ADDAA106000091AG10000GF103991031021008001001001KA1240M+03021MA1999999101331MD1999999+0261REMSYN017 333 10302 58026;EQDQ01+999990APOSLPQ02+000002VOVAR 
0143833980999991998012712004-15667-038933FM-12+000599999V0203201N00101045001CN0100001N1+02801+02501101461ADDAA124023091AG10003AY161061AY221061GF106991041051008001021001KA1240N+02351MA1999999101411MD1999999+0151MW1021REMSYN023 333 20235 58015 60234;
0096833980999991998012718004-15667-038933FM-12+000599999V0200901N00511105001CN0200001N1+02901+02431101301ADDAA106000091AG10000GF105991021051008001041011MA1999999101251MD1999999+0181REMSYN011 333 58018;
0134833980999991998012800004-15667-038933FM-12+000599999V0202701N00101220001CN9999999N9+02641+02441101441ADDAA106000091AG10000GF104991041011008001001001KA1240M+03011MA1999999101391MD1999999+0061REMSYN017 333 10301 58006;EQDQ01+000002VOVAR 
0115833980999991998012812004-15667-038933FM-12+000599999V0201401N00211045001CN0100001N1+02981+02371101591ADDAA106000091AG10000GF106991021051008001041001KA1240N+02291MA1999999101541MD1999999+0131REMSYN017 333 20229 58013;
0096833980999991998012818004-15667-038933FM-12+000599999V0200901N00311045001CN0200001N1+02941+02191101421ADDAA106000091AG10000GF106991021051008001041011MA1999999101271MD1999999+0021REMSYN011 333 58002;
0134833980999991998012900004-15667-038933FM-12+000599999V0200501N00211220001CN9999999N9+02691+02371101421ADDAA106000091AG10000GF104991011051008001031001KA1240M+03091MA1999999101371MD1999999-0021REMSYN017 333 10309 59002;EQDQ01+000002VOVAR 
0115833980999991998012912004-15667-038933FM-12+000599999V0203201N00101045001CN0200001N1+03001+02371101521ADDAA106000091AG10000GF106991021051008001041001KA1240N+02301MA1999999101471MD1999999-0071REMSYN017 333 20230 59007;
0096833980999991998012918004-15667-038933FM-12+000599999V0200501N00211045001CN0200001N1+02981+02401101291ADDAA106000091AG10000GF105991031021008001041001MA1999999101241MD1999999-0031REMSYN011 333 59003;
0134833980999991998013000004-15667-038933FM-12+000599999V0200501N00101220001CN9999999N9+02761+02441101101ADDAA106000091AG10000GF102991021021008001001001KA1240M+03011MA1999999101451MD1999999+0011REMSYN017 333 10301 58001;EQDQ01+000002VOVAR 
0115833980999991998013112004-15667-038933FM-12+000599999V0200501N00211220001CN0200001N1+03051+02451101691ADDAA106000091AG10000GF102991021021008001001001KA1240N+02401MA1999999101641MD1999999+0191REMSYN017 333 20240 58019;
0143833980999991998020112004-15667-038933FM-12+000599999V0203601N00211045001CN0200001N1+02961+02401101521ADDAA124012091AG10003AY161061AY221061GF106991021051008001041001KA1240N+02401MA1999999101471MD1999999-0171MW1021REMSYN023 333 20240 59017 60124;
0096833980999991998020118004-15667-038933FM-12+000599999V0200501N00211220001CN0200001N1+02311+99999101311ADDAA106000091AG10000GF102991011021008001001011MA1999999101261MD1999999-0091REMSYN011 333 59009;
0115833980999991998020212004-15667-038933FM-12+000599999V0202301N00101045001CN0100001N1+02761+02441101461ADDAA106000091AG10000GF106991041051008001041001KA1240N+02311MA1999999101411MD1999999-0061REMSYN017 333 20231 59006;
0096833980999991998020218004-15667-038933FM-12+000599999V0200501N00311045001CN0100001N1+02981+02491101171ADDAA106000091AG10000GF106991041021008001031001MA1999999101121MD1999999-0141REMSYN011 333 59014;
0134833980999991998020300004-15667-038933FM-12+000599999V0200501N00311220001CN9999999N9+02781+02461101281ADDAA106000091AG10000GF104991011051008001031001KA1240M+03061MA1999999101231MD1999999+0001REMSYN017 333 10306 58000;EQDQ01+000002VOVAR 
0115833980999991998020312004-15667-038933FM-12+000599999V0200501N00211045001CN0200001N1+02991+02441101401ADDAA106000091AG10000GF106991021051008001031011KA1240N+02411MA1999999101351MD1999999-0061REMSYN017 333 20241 59006;
0096833980999991998020318004-15667-038933FM-12+000599999V0200501N00101045001CN0200001N1+02901+02301101291ADDAA106000091AG10000GF106991041051008001021001MA1999999101241MD1999999+0121REMSYN011 333 58012;
0134833980999991998020400004-15667-038933FM-12+000599999V0200901N00211220001CN9999999N9+02821+02501101251ADDAA106000091AG10000GF104991041011008001001001KA1240M+03061MA1999999101201MD1999999-0031REMSYN017 333 10306 59003;EQDQ01+000002VOVAR 
0115833980999991998020412004-15667-038933FM-12+000599999V0203601N00101045001CN0100001N1+02941+02361101321ADDAA106000091AG10000GF106991021051008001041001KA1240N+02301MA1999999101271MD1999999-0081REMSYN017 333 20230 59008;
0096833980999991998020418004-15667-038933FM-12+000599999V0200501N00211220001CN0200001N1+03041+02551101021ADDAA106000091AG10000GF104991021021008001001011MA1999999100971MD1999999-0271REMSYN011 333 59027;
0134833980999991998020500004-15667-038933FM-12+000599999V0203601N00101220001CN9999999N9+02821+02501101181ADDAA106000091AG10000GF104991011051008001041001KA1240M+03101MA1999999101131MD1999999-0071REMSYN017 333 10310 59007;EQDQ01+000002VOVAR 
0115833980999991998020512004-15667-038933FM-12+000599999V0200501N00311045001CN0200001N1+03021+02481101321ADDAA106000091AG10000GF106991031021008001041001KA1240N+02411MA1999999101271MD1999999+0001REMSYN017 333 20241 58000;
0134833980999991998020600004-15667-038933FM-12+000599999V0203601N00211105001CN9999999N9+02941+02681101181ADDAA106000091AG10000GF105991021021008001041041KA1240M+03221MA1999999101131MD1999999+0001REMSYN017 333 10322 58000;EQDQ01+000002VOVAR 
0115833980999991998020612004-15667-038933FM-12+000599999V0200501N00311220001CN0200001N1+03021+02341101351ADDAA106000091AG10000GF104991011051008001041001KA1240N+02441MA1999999101301MD1999999+0031REMSYN017 333 20244 58003;
0096833980999991998020618004-15667-038933FM-12+000599999V0200501N00211220001CN0200001N1+03081+02581101261ADDAA106000091AG10000GF102991021021008001001001MA1999999101211MD1999999-0051REMSYN011 333 59005;
0134833980999991998020700004-15667-038933FM-12+000599999V0200501N00211220001CN9999999N9+02941+02721101321ADDAA106000091AG10000GF103991031011008001001001KA1240M+03121MA1999999101521MD1999999+0141REMSYN017 333 10312 58014;EQDQ01+000002VOVAR 
0115833980999991998020712004-15667-038933FM-12+000599999V0200501N00311045001CN0200001N1+03001+02391101431ADDAA106000091AG10000GF106991041021008001041001KA1240N+02381MA1999999101381MD1999999+0081REMSYN017 333 20238 58008;
0096833980999991998020718004-15667-038933FM-12+000599999V0200501N00311220001CN0200001N1+03061+02431101211ADDAA106000091AG10000GF104991021021008001041011MA1999999101161MD1999999-0051REMSYN011 333 59005;
0134833980999991998020800004-15667-038933FM-12+000599999V0203601N00211220001CN9999999N9+02861+02681101391ADDAA106000091AG10000GF104991021011008001041001KA1240M+03121MA1999999101341MD1999999+0071REMSYN017 333 10312 58007;EQDQ01+000002VOVAR 
0115833980999991998020812004-15667-038933FM-12+000599999V0200501N00311045001CN0200001N1+03001+02341101341ADDAA106000091AG10000GF106991041051008001041001KA1240N+02401MA1999999101291MD1999999-0091REMSYN017 333 20240 59009;
0096833980999991998020818004-15667-038933FM-12+000599999V0200501N00511045001CN0200001N1+03061+02451101041ADDAA106000091AG10000GF105991031021008001041001MA1999999100991MD1999999-0171REMSYN011 333 59017;
0134833980999991998020900004-15667-038933FM-12+000599999V0203601N00211220001CN9999999N9+02941+02761101171ADDAA106000091AG10000GF103991021011008001041001KA1240M+03141MA1999999101121MD1999999-0241REMSYN017 333 10314 59024;EQDQ01+000002VOVAR 
0115833980999991998020912004-15667-038933FM-12+000599999V0200501N00311045001CN0200001N1+03061+02521101361ADDAA106000091AG10000GF106991021051008001031001KA1240N+02551MA1999999101311MD1999999+0021REMSYN017 333 20255 58002;
0096833980999991998020918004-15667-038933FM-12+000599999V0200501N00311220001CN0200001N1+03121+02551101171ADDAA106000091AG10000GF102991021021008001001001MA1999999101521MD1999999-0131REMSYN011 333 59013;
0134833980999991998021000004-15667-038933FM-12+000599999V0203601N00101220001CN9999999N9+02821+02581101161ADDAA106000091AG10000GF102991021011008001001001KA1240M+03191MA1999999101111MD1999999-0011REMSYN017 333 10319 59001;EQDQ01+000002VOVAR 
0115833980999991998021012004-15667-038933FM-12+000599999V0200501N00311045001CN0200001N1+03041+02501101361ADDAA106000091AG10000GF105991031051008001031001KA1240N+02551MA1999999101311MD1999999+0001REMSYN017 333 20255 58000;
0096833980999991998021018004-15667-038933FM-12+000599999V0200501N00311220001CN0200001N1+03201+02511101181ADDAA106000091AG10000GF102991021071008001001001MA1999999101131MD1999999+0011REMSYN011 333 58001;
0134833980999991998021100004-15667-038933FM-12+000599999V0203601N00211220001CN9999999N9+02771+02541101271ADDAA106000091AG10000GF102991021021008001001001KA1240M+03181MA1999999101221MD1999999+0111REMSYN017 333 10318 58011;EQDQ01+000002VOVAR 
0115833980999991998021112004-15667-038933FM-12+000599999V0203201N00211045001CN0200001N1+03081+02471101221ADDAA106000091AG10000GF106991031051008001041001KA1240N+02501MA1999999101171MD1999999+0141REMSYN017 333 20250 58014;
0096833980999991998021118004-15667-038933FM-12+000599999V0200501N00311220001CN0200001N1+03091+02541101011ADDAA106000091AG10000GF102991021021008001001001MA1999999100961MD1999999-0171REMSYN011 333 59017;
0134833980999991998021200004-15667-038933FM-12+000599999V0200501N00101220001CN9999999N9+02771+02521101091ADDAA106000091AG10000GF102991011021008001051001KA1240M+03111MA1999999101041MD1999999-0181REMSYN017 333 10311 59018;EQDQ01+000002VOVAR 
0115833980999991998021212004-15667-038933FM-12+000599999V0200501N00311045001CN0200001N1+03021+02591101241ADDAA106000091AG10000GF105991031011008001041001KA1240N+02511MA1999999101191MD1999999+0021REMSYN017 333 20251 58002;
0096833980999991998021218004-15667-038933FM-12+000599999V0200501N00211220001CN0200001N1+03081+02521101111ADDAA106000091AG10000GF102991021021008001001001MA1999999101061MD1999999+0101REMSYN011 333 58010;
0134833980999991998021300004-15667-038933FM-12+000599999V0200501N00101220001CN9999999N9+02741+02631101341ADDAA106000091AG10000GF102991021021008001001001KA1240M+03171MA1999999101291MD1999999+0251REMSYN017 333 10317 58025;EQDQ01+000002VOVAR 
0143833980999991998021312004-15667-038933FM-12+000599999V0209991C00001045001CN0200001N1+02601+02441101591ADDAA124025091AG10003AY161061AY221061GF105991031011008001041001KA1240N+02281MA1999999101541MD1999999+0351MW1011REMSYN023 333 20228 58035 60254;
0096833980999991998021318004-15667-038933FM-12+000599999V0200501N00101220001CN0200001N1+02971+02441101341ADDAA106000091AG10000GF102991021021008001001001MA1999999101291MD1999999+0001REMSYN011 333 58000;
0115833980999991998021412004-15667-038933FM-12+000599999V0209991C00001220001CN0100001N1+02801+02481101661ADDAA106000091AG10000GF104991021051008001021001KA1240N+02351MA1999999101601MD1999999+0061REMSYN017 333 20235 58006;
0096833980999991998021418004-15667-038933FM-12+000599999V0200501N00311220001CN0200001N1+02941+02431101591ADDAA106000091AG10000GF103991011021008001041001MA1999999101541MD1999999+0251REMSYN011 333 58025;
0134833980999991998021500004-15667-038933FM-12+000599999V0209991C00001045001CN9999999N9+02671+02391101541ADDAA106000091AG10000GF105991031051008001021001KA1240M+03051MA1999999101491MD1999999+0001REMSYN017 333 10305 58000;EQDQ01+000002VOVAR 
0115833980999991998021512004-15667-038933FM-12+000599999V0203201N00101220001CN0200001N1+02911+02541101661ADDAA106000091AG10000GF102991021021008001001001KA1240N+02311MA1999999101601MD1999999+0001REMSYN017 333 20231 58000;
0096833980999991998021518004-15667-038933FM-12+000599999V0200501N00211220001CN0200001N1+03031+02361101391ADDAA106000091AG10000GF102991021021008001001001MA1999999101341MD1999999-0201REMSYN011 333 59020;
0115833980999991998021612004-15667-038933FM-12+000599999V0203601N00211045001CN0200001N1+02881+02411101581ADDAA106000091AG10000GF105991031011008001041041KA1240N+02191MA1999999101531MD1999999+0011REMSYN017 333 20219 58001;
0096833980999991998021618004-15667-038933FM-12+000599999V0203601N00311045001CN0200001N1+03001+02291101211ADDAA106000091AG10000GF106991021051008001041011MA1999999101161MD1999999-0181REMSYN011 333 59018;
0134833980999991998021700004-15667-038933FM-12+000599999V0200501N00101220001CN9999999N9+02771+02741101371ADDAA106000091AG10000GF102991021021008001001001KA1240M+03091MA1999999101321MD1999999-0081REMSYN017 333 10309 59008;EQDQ01+000002VOVAR 
0115833980999991998021712004-15667-038933FM-12+000599999V0203601N00211045001CN0100001N1+02901+02341101351ADDAA106000091AG10000GF107991041051008001021001KA1240N+02251MA1999999101301MD1999999-0231REMSYN017 333 20225 59023;
0096833980999991998021718004-15667-038933FM-12+000599999V0203601N00211007501CN0040001N1+02821+02381101281ADDAA106000091AG10000GF108991051051008001021999MA1999999101231MD1999999+0071REMSYN011 333 58007;
0162833980999991998021800004-15667-038933FM-12+000599999V0209991C00001007501CN9999999N9+02461+02271101401ADDAA106002091AG10003AY161061AY221061GF108991051051008001021999KA1240M+03081MA1999999101351MD1999999+0031MW1601REMSYN023 333 10308 58003 60021;EQDQ01+000002VOVAR 
0162833980999991998021812004-15667-038933FM-12+000599999V0203201N00211045001CN9999999N9+02741+02401101341ADDAA124003091AG10003AY161061AY221061GF106991031051008001021041KA1240N+02361MA1999999101291MD1999999-0011MW1021REMSYN023 333 20236 59001 60034;EQDQ01+000002VOVAR 
0096833980999991998021818004-15667-038933FM-12+000599999V0200501N00211105001CN0200001N1+02941+02381101051ADDAA106000091AG10000GF105991021021008001041041MA1999999101001MD1999999-0231REMSYN011 333 59023;
0115833980999991998021912004-15667-038933FM-12+000599999V0203601N00211105001CN0200001N1+02981+02351101371ADDAA106000091AG10000GF105991021021008001041041KA1240N+02351MA1999999101321MD1999999+0031REMSYN017 333 20235 58003;
0096833980999991998021918004-15667-038933FM-12+000599999V0200501N00211045001CN0200001N1+02991+02641101091ADDAA106000091AG10000GF106991041021008001041011MA1999999101041MD1999999+0041REMSYN011 333 58004;
0134833980999991998022000004-15667-038933FM-12+000599999V0200501N00101220001CN9999999N9+02811+02501101251ADDAA106000091AG10000GF102991011021008001001011KA1240M+03101MA1999999101201MD1999999+0031REMSYN017 333 10310 58003;EQDQ01+000002VOVAR 
0115833980999991998022012004-15667-038933FM-12+000599999V0201401N00211045001CN0100001N1+02801+02441101331ADDAA106000091AG10000GF106991031021008001051001KA1240N+02431MA1999999101281MD1999999-0041REMSYN017 333 20243 59004;
0096833980999991998022018004-15667-038933FM-12+000599999V0200501N00211045001CN0200001N1+03021+02361101071ADDAA106000091AG10000GF106991021021008001051021MA1999999101021MD1999999-0021REMSYN011 333 59002;
0134833980999991998022100004-15667-038933FM-12+000599999V0200501N00211220001CN9999999N9+02771+02381101271ADDAA106000091AG10000GF102991021021008001001001KA1240M+03101MA1999999101221MD1999999+0021REMSYN017 333 10310 58002;EQDQ01+000002VOVAR 
0115833980999991998022112004-15667-038933FM-12+000599999V0203601N00101045001CN0200001N1+03001+02371101321ADDAA106000091AG10000GF106991021051008001041011KA1240N+02401MA1999999101271MD1999999-0011REMSYN017 333 20240 59001;
0096833980999991998022118004-15667-038933FM-12+000599999V0200501N00511045001CN0200001N1+03001+02441101091ADDAA106000091AG10000GF106991021051008001041011MA1999999101041MD1999999+0041REMSYN011 333 58004;
0134833980999991998022200004-15667-038933FM-12+000599999V0200501N00211220001CN9999999N9+02761+02401101261ADDAA106000091AG10000GF103991021021008001041001KA1240M+03331MA1999999101211MD1999999-0011REMSYN017 333 10333 59001;EQDQ01+000002VOVAR 
0115833980999991998022212004-15667-038933FM-12+000599999V0200501N00211220001CN0200001N1+03061+02381101381ADDAA106000091AG10000GF103991031021008001001001KA1240N+02341MA1999999101331MD1999999+0061REMSYN017 333 20234 58006;
0096833980999991998022218004-15667-038933FM-12+000599999V0200501N00211220001CN0200001N1+03091+02491101241ADDAA106000091AG10000GF102991021011008001001001MA1999999101191MD1999999+0151REMSYN011 333 58015;
0134833980999991998022300004-15667-038933FM-12+000599999V0200501N00101220001CN9999999N9+02741+02361101511ADDAA106000091AG10000GF102991021021008001001001KA1240M+03171MA1999999101461MD1999999+0251REMSYN017 333 10317 58025;EQDQ01+000002VOVAR 
0115833980999991998022312004-15667-038933FM-12+000599999V0203601N00211220001CN0200001N1+02801+02371101441ADDAA106000091AG10000GF104991021021008001041001KA1240N+02311MA1999999101391MD1999999+0061REMSYN017 333 20231 58006;
0096833980999991998022318004-15667-038933FM-12+000599999V0200501N00311220001CN0200001N1+03081+02371101221ADDAA106000091AG10000GF102991021011008001001001MA1999999101171MD1999999-0021REMSYN011 333 59002;
0115833980999991998022412004-15667-038933FM-12+000599999V0200501N00211045001CN0100001N1+02921+02341101481ADDAA106000091AG10000GF106991041051008001041001KA1240N+02371MA1999999101431MD1999999+0041REMSYN017 333 20237 58004;
0096833980999991998022418004-15667-038933FM-12+000599999V0200501N00211220001CN0200001N1+03041+02361101201ADDAA106000091AG10000GF102991021021008001001001MA1999999101151MD1999999-0021REMSYN011 333 59002;
0143833980999991998022512004-15667-038933FM-12+000599999V0203601N00101045001CN0100001N1+02761+02321101351ADDAA124002091AG10003AY161061AY221061GF106991031051008001041001KA1240N+02261MA1999999101301MD1999999-0131MW1021REMSYN023 333 20226 59013 60024;
0096833980999991998022518004-15667-038933FM-12+000599999V0200501N00211105001CN0200001N1+03021+02391101091ADDAA106000091AG10000GF105991021021008001041011MA1999999101041MD1999999-0111REMSYN011 333 59011;
0134833980999991998022600004-15667-038933FM-12+000599999V0200501N00101220001CN9999999N9+02761+02361101311ADDAA106000091AG10000GF102991021011008001001001KA1240M+03061MA1999999101261MD1999999-0011REMSYN017 333 10306 59001;EQDQ01+000002VOVAR 
0115833980999991998022612004-15667-038933FM-12+000599999V0209991C00001045001CN0100001N1+02811+02311101281ADDAA106000091AG10000GF106991021051008001041011KA1240N+02221MA1999999101231MD1999999-0071REMSYN017 333 20222 59007;
0096833980999991998022618004-15667-038933FM-12+000599999V0200901N00211220001CN0200001N1+02981+02471101011ADDAA106000091AG10000GF104991021021008001041011MA1999999100961MD1999999-0081REMSYN011 333 59008;
0134833980999991998022700004-15667-038933FM-12+000599999V0200501N00101220001CN9999999N9+02811+02581101141ADDAA106000091AG10000GF102991011021008001001011KA1240M+03161MA1999999101091MD1999999-0201REMSYN017 333 10316 59020;EQDQ01+000002VOVAR 
0143833980999991998022712004-15667-038933FM-12+000599999V0200501N00211220001CN0200001N1+03001+02371101391ADDAA124002091AG10003AY161061AY221061GF104991021021008001041001KA1240N+02531MA1999999101341MD1999999+0111MW1011REMSYN023 333 20253 58011 60024;
0096833980999991998022718004-15667-038933FM-12+000599999V0200501N00311045001CN0200001N1+02951+02551101051ADDAA106000091AG10000GF105991031021008001041001MA1999999101001MD1999999+0041REMSYN011 333 58004;
0134833980999991998022800004-15667-038933FM-12+000599999V0200501N00211220001CN9999999N9+02761+02401101161ADDAA106000091AG10000GF102991021021008001001001KA1240M+03111MA1999999101111MD1999999+0021REMSYN017 333 10311 58002;EQDQ01+000002VOVAR 
0096833980999991998022818004-15667-038933FM-12+000599999V0200501N00101220001CN0200001N1+02951+02331101061ADDAA106000091AG10000GF104991011021008001031011MA1999999101011MD1999999+0011REMSYN011 333 58001;
0134833980999991998030100004-15667-038933FM-12+000599999V0200501N00311220001CN9999999N9+02761+02341101021ADDAA106000091AG10000GF103991021011008001041001KA1240M+03171MA1999999100971MD1999999-0141REMSYN017 333 10317 59014;EQDQ01+000002VOVAR 
0143833980999991998030112004-15667-038933FM-12+000599999V0202701N00101045001CN0100001N1+02771+02481101281ADDAA124000591AG10000AY151061AY221061GF106991041051008001021001KA1240N+02291MA1999999101231MD1999999+0061MW1021REMSYN023 333 20229 58006 69964;
0096833980999991998030118004-15667-038933FM-12+000599999V0200501N00211045001CN0200001N1+03071+02291100951ADDAA106000091AG10000GF105991021021008001041001MA1999999100901MD1999999-0111REMSYN011 333 59011;
0134833980999991998030200004-15667-038933FM-12+000599999V0200501N00101220001CN9999999N9+02801+02481101151ADDAA106000091AG10000GF102991021021008001001001KA1240M+03101MA1999999101101MD1999999+0131REMSYN017 333 10310 58013;EQDQ01+000002VOVAR 
0143833980999991998030212004-15667-038933FM-12+000599999V0203601N00211045001CN0100001N1+02801+02641101391ADDAA124002091AG10003AY161061AY221061GF106991041051008001021001KA1240N+02391MA1999999101341MD1999999+0111MW1601REMSYN023 333 20239 58011 60024;
0096833980999991998030218004-15667-038933FM-12+000599999V0200501N00101220001CN0200001N1+03031+02431101151ADDAA106000091AG10000GF104991021021008001041001MA1999999101101MD1999999+0201REMSYN011 333 58020;
0134833980999991998030300004-15667-038933FM-12+000599999V0203601N00211045001CN9999999N9+02831+02521101261ADDAA106000091AG10000GF106991041051008001021001KA1240M+03091MA1999999101211MD1999999+0111REMSYN017 333 10309 58011;EQDQ01+000002VOVAR 
0115833980999991998030312004-15667-038933FM-12+000599999V0200501N00211045001CN0200001N1+03041+02431101571ADDAA106000091AG10000GF105991031021008001041011KA1240N+02461MA1999999101521MD1999999+0181REMSYN017 333 20246 58018;
0134833980999991998030400004-15667-038933FM-12+000599999V0200501N00101220001CN9999999N9+02801+02581101311ADDAA106000091AG10000GF102991021021008001001001KA1240M+03191MA1999999101261MD1999999+0051REMSYN017 333 10319 58005;EQDQ01+000002VOVAR 
0143833980999991998030412004-15667-038933FM-12+000599999V0200501N00211045001CN0100001N1+02761+02421101541ADDAA124000591AG10000AY151061AY221061GF106991041051008001041001KA1240N+02421MA1999999101491MD1999999-0031MW1501REMSYN023 333 20242 59003 69944;
0096833980999991998030418004-15667-038933FM-12+000599999V0200501N00101220001CN0200001N1+03061+02301101311ADDAA106000091AG10000GF102991021021008001041001MA1999999101261MD1999999+0021REMSYN011 333 58002;
0134833980999991998030500004-15667-038933FM-12+000599999V0200501N00101220001CN9999999N9+02761+02441101511ADDAA106000091AG10000GF102991021011008001001001KA1240M+03121MA1999999101461MD1999999+0201REMSYN017 333 10312 58020;EQDQ01+000002VOVAR 
0096833980999991998030518004-15667-038933FM-12+000599999V0201401N00101220001CN0200001N1+03051+02381101281ADDAA106000091AG10000GF102991011021008001051001MA1999999101241MD1999999-0031REMSYN011 333 59003;
0134833980999991998030600004-15667-038933FM-12+000599999V0209991C00001220001CN9999999N9+02691+02561101371ADDAA106000091AG10000GF102991021021008001001001KA1240M+03081MA1999999101321MD1999999-0141REMSYN017 333 10308 59014;EQDQ01+000002VOVAR 
0143833980999991998030612004-15667-038933FM-12+000599999V0201801N00101045001CN0100001N1+02581+02421101341ADDAA124005091AG10003AY161061AY221061GF106991041051008001041001KA1240N+02311MA1999999101291MD1999999-0241MW1011REMSYN023 333 20231 59024 60054;
0134833980999991998030700004-15667-038933FM-12+000599999V0209991C00001220001CN9999999N9+02651+02501101241ADDAA106000091AG10000GF102991021011008001001001KA1240M+03091MA1999999101191MD1999999-0131REMSYN017 333 10309 59013;EQDQ01+000002VOVAR 
0143833980999991998030712004-15667-038933FM-12+000599999V0209991C00001007501CN0100001N1+02891+02411101301ADDAA124002091AG10003AY161061AY221061GF105991051051008001041001KA1240N+02361MA1999999101251MD1999999-0041MW1021REMSYN023 333 20236 59004 60024;
0096833980999991998030718004-15667-038933FM-12+000599999V0200901N00211045001CN0200001N1+02941+02391101031ADDAA106000091AG10000GF106991021051008001041011MA1999999100981MD1999999+0001REMSYN011 333 58000;
0134833980999991998030800004-15667-038933FM-12+000599999V0200501N00211045001CN9999999N9+02771+02361101211ADDAA106000091AG10000GF105991021011008001041001KA1240M+03081MA1999999101161MD1999999-0031REMSYN017 333 10308 59003;EQDQ01+000002VOVAR 
0115833980999991998030812004-15667-038933FM-12+000599999V0202301N00101105001CN0200001N1+02861+02741101471ADDAA106000091AG10000GF105991021051008001041011KA1240N+02301MA1999999101421MD1999999+0171REMSYN017 333 20230 58017;
0096833980999991998030818004-15667-038933FM-12+000599999V0201401N00211045001CN0200001N1+03021+02311101151ADDAA106000091AG10000GF106991021051008001041011MA1999999101101MD1999999+0121REMSYN011 333 58012;
0134833980999991998030900004-15667-038933FM-12+000599999V0200501N00211045001CN9999999N9+02771+02461101231ADDAA106000091AG10000GF105991021051008001041001KA1240M+03201MA1999999101181MD1999999+0021REMSYN017 333 10320 58002;EQDQ01+000002VOVAR 
0143833980999991998030912004-15667-038933FM-12+000599999V0209991C00001007501CN0040001N1+02661+02501101391ADDAA124002091AG10003AY161061AY221061GF107991051051008001021001KA1240N+02371MA1999999101341MD1999999-0081MW1021REMSYN023 333 20237 59008 60024;
0096833980999991998030918004-15667-038933FM-12+000599999V0200901N00211045001CN0200001N1+03001+02391101091ADDAA106000091AG10000GF106991021051008001041011MA1999999101041MD1999999-0061REMSYN011 333 59006;
0134833980999991998031000004-15667-038933FM-12+000599999V0201401N00311045001CN9999999N9+02761+02401101191ADDAA106000091AG10000GF105991031011008001041001KA1240M+03131MA1999999101141MD1999999-0041REMSYN017 333 10313 59004;EQDQ01+000002VOVAR 
0115833980999991998031012004-15667-038933FM-12+000599999V0202301N00101045001CN0100001N1+02881+02541101201ADDAA106000091AG10000GF106991041051008001021001KA1240N+02301MA1999999101151MD1999999-0191REMSYN017 333 20230 59019;
0096833980999991998031018004-15667-038933FM-12+000599999V0200901N00311220001CN0200001N1+03061+02431101051ADDAA106000091AG10000GF102991021021008001041001MA1999999101001MD1999999-0041REMSYN011 333 59004;
0134833980999991998031100004-15667-038933FM-12+000599999V0200501N00211220001CN9999999N9+02801+02501101111ADDAA106000091AG10000GF104991031011008001031001KA1240M+03151MA1999999101061MD1999999-0081REMSYN017 333 10315 59008;EQDQ01+000002VOVAR 
0096833980999991998031118004-15667-038933FM-12+000599999V0200501N00211045001CN0200001N1+03071+02471101011ADDAA106000091AG10000GF105991021021008001041001MA1999999100961MD1999999-0041REMSYN011 333 59004;
0134833980999991998031200004-15667-038933FM-12+000599999V0200501N00311045001CN9999999N9+02841+02461101171ADDAA106000091AG10000GF105991031051008001041001KA1240M+03151MA1999999101121MD1999999+0061REMSYN017 333 10315 58006;EQDQ01+000002VOVAR 
0115833980999991998031212004-15667-038933FM-12+000599999V0203201N00101045001CN0100001N1+03061+02451101381ADDAA106000091AG10000GF106991031051008001041001KA1240N+02311MA1999999101331MD1999999+0121REMSYN017 333 20231 58012;
0096833980999991998031218004-15667-038933FM-12+000599999V0200501N00311045001CN0200001N1+03041+02501101121ADDAA106000091AG10000GF106991021051008001041011MA1999999101071MD1999999+0111REMSYN011 333 58011;
0134833980999991998031300004-15667-038933FM-12+000599999V0200901N00211045001CN9999999N9+02861+02501101281ADDAA106000091AG10000GF106991031051008001031001KA1240M+03211MA1999999101231MD1999999+0111REMSYN017 333 10321 58011;EQDQ01+000002VOVAR 
0115833980999991998031312004-15667-038933FM-12+000599999V0202301N00101007501CN0100001N1+02961+02561101361ADDAA106000091AG10000GF107991051051008001031001KA1240N+02401MA1999999101311MD1999999-0021REMSYN017 333 20240 59002;
0096833980999991998031318004-15667-038933FM-12+000599999V0200501N00311220001CN0200001N1+03071+02621101091ADDAA106000091AG10000GF104991031021008001041001MA1999999101041MD1999999-0031REMSYN011 333 59003;
0134833980999991998031400004-15667-038933FM-12+000599999V0200501N00211220001CN9999999N9+02801+02481101161ADDAA106000091AG10000GF104991031011008001031001KA1240M+03201MA1999999101111MD1999999-0121REMSYN017 333 10320 59012;EQDQ01+000002VOVAR 
0115833980999991998031412004-15667-038933FM-12+000599999V0203201N00101045001CN0100001N1+03041+02451101141ADDAA106000091AG10000GF106991041051008001041001KA1240N+02381MA1999999101091MD1999999-0221REMSYN017 333 20238 59022;
0096833980999991998031418004-15667-038933FM-12+000599999V0200501N00511220001CN0200001N1+03071+02421100871ADDAA106000091AG10000GF104991041021008001001001MA1999999100821MD1999999-0221REMSYN011 333 59022;
0150833980999991998031500004-15667-038933FM-12+000599999V0200501N00511220001CN9999999N9+02801+02361100931ADDAA106000091AG10000GF103991999011008001001001KA1240M+03191MA1999999100881MD1999999-0231REMSYN017 333 10319 59023;EQDQ01+000022SCOTLCQ02+000002VOVAR 
0115833980999991998031512004-15667-038933FM-12+000599999V0203601N00211045001CN0200001N1+03041+02501101121ADDAA106000091AG10000GF106991031051008001041011KA1240N+02481MA1999999101071MD1999999-0021REMSYN017 333 20248 59002;
0096833980999991998031518004-15667-038933FM-12+000599999V0200501N00511045001CN0200001N1+03061+02581100731ADDAA106000091AG10000GF105991031021008001041001MA1999999100681MD1999999-0141REMSYN011 333 59014;
0134833980999991998031600004-15667-038933FM-12+000599999V0200501N00311105001CN9999999N9+02801+02481100911ADDAA106000091AG10000GF105991011051008001041011KA1240M+03241MA1999999100861MD1999999-0021REMSYN017 333 10324 59002;EQDQ01+000002VOVAR 
0115833980999991998031612004-15667-038933FM-12+000599999V0201801N00211045001CN0100001N1+02881+02481101131ADDAA106000091AG10000GF107991021051008001041011KA1240N+02341MA1999999101081MD1999999+0011REMSYN017 333 20234 58001;
0096833980999991998031618004-15667-038933FM-12+000599999V0200901N00311045001CN0200001N1+03041+02411100941ADDAA106000091AG10000GF106991021051008001031011MA1999999100891MD1999999+0211REMSYN011 333 58021;
0134833980999991998031700004-15667-038933FM-12+000599999V0201801N00211045001CN9999999N9+02681+02521101311ADDAA106000091AG10000GF105991021051008001031001KA1240M+03221MA1999999101261MD1999999+0301REMSYN017 333 10322 58030;EQDQ01+000002VOVAR 
0143833980999991998031712004-15667-038933FM-12+000599999V0201801N00211004201CN0040001N1+02521+02431101361ADDAA124003091AG10003AY161061AY221061GF108991051071004501021999KA1240N+02381MA1999999101311MD1999999+0231MW1611REMSYN023 333 20238 58023 60034;
0124833980999991998031718004-15667-038933FM-12+000599999V0201801N00511007501CN0100001N1+02661+02371101211ADDAA106002091AG10003AY161061AY221061GF108991051051008001021999MA1999999101161MD1999999+0271MW1021REMSYN017 333 58027 60021;
0162833980999991998031800004-15667-038933FM-12+000599999V0201801N00211007501CN9999999N9+02521+02411101331ADDAA106001091AG10003AY161061AY221061GF108991051021008001999999KA1240M+02821MA1999999101281MD1999999+0121MW1021REMSYN023 333 10282 58012 60011;EQDQ01+000002VOVAR 
0143833980999991998031812004-15667-038933FM-12+000599999V0201801N00211045001CN0100001N1+02801+02341101451ADDAA124005091AG10003AY161061AY221061GF106991021051008001041001KA1240N+02321MA1999999101401MD1999999+0091MW1021REMSYN023 333 20232 58009 60054;
0096833980999991998031818004-15667-038933FM-12+000599999V0201801N00211045001CN0200001N1+03061+02301101201ADDAA106000091AG10000GF106991031021008001041011MA1999999101151MD1999999-0011REMSYN011 333 59001;
0134833980999991998031900004-15667-038933FM-12+000599999V0201801N00211220001CN9999999N9+02561+02401101291ADDAA106000091AG10000GF104991011051008001031001KA1240M+03141MA1999999101241MD1999999-0041REMSYN017 333 10314 59004;EQDQ01+000002VOVAR 
0124833980999991998031918004-15667-038933FM-12+000599999V0201801N00101004201CN0040001N1+02781+02481101211ADDAA106021091AG10003AY161061AY221061GF108991051071004501021999MA1999999101161MD1999999+0011MW1531REMSYN017 333 58001 60211;
0162833980999991998032000004-15667-038933FM-12+000599999V0209991C00001007501CN9999999N9+02601+02551101321ADDAA106002091AG10003AY161061AY221061GF106991051051008001021001KA1240M+02811MA1999999101261MD1999999+0021MW1021REMSYN023 333 10281 58002 60021;EQDQ01+000002VOVAR 
0143833980999991998032012004-15667-038933FM-12+000599999V0201801N00101004201CN0040001N1+02481+02431101421ADDAA124074091AG10003AY161061AY221061GF108991051071004501021999KA1240N+02411MA1999999101371MD1999999+0021MW1631REMSYN023 333 20241 58002 60744;
0124833980999991998032018004-15667-038933FM-12+000599999V0202301N00101007501CN0040001N1+02781+02421101201ADDAA106007091AG10003AY161061AY221061GF107991051051008001021001MA1999999101151MD1999999-0011MW1021REMSYN017 333 59001 60071;
0134833980999991998032100004-15667-038933FM-12+000599999V0200501N00101045001CN9999999N9+02561+02461101181ADDAA106000091AG10000GF106991041051008001021001KA1240M+02811MA1999999101131MD1999999-0131REMSYN017 333 10281 59013;EQDQ01+000002VOVAR 
0096833980999991998032118004-15667-038933FM-12+000599999V0200501N00211045001CN0200001N1+03001+02551100911ADDAA106000091AG10000GF106991021051008001041011MA1999999100861MD1999999-0291REMSYN011 333 59029;
0134833980999991998032200004-15667-038933FM-12+000599999V0203601N00101045001CN9999999N9+02741+02501101071ADDAA106000091AG10000GF105991021051008001031001KA1240M+03061MA1999999101021MD1999999-0111REMSYN017 333 10306 59011;EQDQ01+000002VOVAR 
0115833980999991998032212004-15667-038933FM-12+000599999V0203601N00101045001CN0100001N1+02961+02511101131ADDAA106000091AG10000GF106991021051008001021001KA1240N+02401MA1999999101081MD1999999-0181REMSYN017 333 20240 59018;
0124833980999991998032218004-15667-038933FM-12+000599999V0200901N00311045001CN0100001N1+02881+02541100911ADDAA106001091AG10003AY161061AY221061GF106991041051008001021001MA1999999100861MD1999999+0001MW1021REMSYN017 333 58000 60011;
0134833980999991998032300004-15667-038933FM-12+000599999V0200901N00211045001CN9999999N9+02701+02501101041ADDAA106000091AG10000GF106991041051008001021001KA1240M+03001MA1999999100991MD1999999-0031REMSYN017 333 10300 59003;EQDQ01+000002VOVAR 
0096833980999991998032318004-15667-038933FM-12+000599999V0200901N00311220001CN0200001N1+03041+02361100921ADDAA106000091AG10000GF103991021021008001041001MA1999999100871MD1999999+0011REMSYN011 333 58001;
0134833980999991998032400004-15667-038933FM-12+000599999V0200501N00211045001CN9999999N9+02761+02441100971ADDAA106000091AG10000GF105991021051008001031001KA1240M+03061MA1999999100921MD1999999-0071REMSYN017 333 10306 59007;EQDQ01+000002VOVAR 
0115833980999991998032412004-15667-038933FM-12+000599999V0203601N00211045001CN0100001N1+03001+02441101181ADDAA106000091AG10000GF106991031051008001041001KA1240N+02311MA1999999101131MD1999999-0051REMSYN017 333 20231 59005;
0096833980999991998032418004-15667-038933FM-12+000599999V0200501N00311220001CN0200001N1+03021+02341100891ADDAA106000091AG10000GF104991031021008001041001MA1999999100841MD1999999-0031REMSYN011 333 59003;
0134833980999991998032500004-15667-038933FM-12+000599999V0203601N00211220001CN9999999N9+02761+02381100971ADDAA106000091AG10000GF103991031011008001001001KA1240M+03101MA1999999100921MD1999999+0001REMSYN017 333 10310 58000;EQDQ01+000002VOVAR 
0115833980999991998032512004-15667-038933FM-12+000599999V0202301N00101045001CN0100001N1+02941+02331101181ADDAA106000091AG10000GF106991031051008001031001KA1240N+02301MA1999999101131MD1999999+0001REMSYN017 333 20230 58000;
0096833980999991998032518004-15667-038933FM-12+000599999V0200501N00311220001CN0200001N1+03061+02381100841ADDAA106000091AG10000GF104991021021008001051001MA1999999100791MD1999999-0051REMSYN011 333 59005;
0134833980999991998032600004-15667-038933FM-12+000599999V0200501N00211220001CN9999999N9+02741+02401100961ADDAA106000091AG10000GF102991021011008001001001KA1240M+03161MA1999999100911MD1999999-0011REMSYN017 333 10316 59001;EQDQ01+000002VOVAR 
0115833980999991998032612004-15667-038933FM-12+000599999V0203601N00211007501CN0100001N1+03041+02521101121ADDAA106000091AG10000GF107991051051008001031001KA1240N+02401MA1999999101071MD1999999-0061REMSYN017 333 20240 59006;
0096833980999991998032618004-15667-038933FM-12+000599999V0200501N00311105001CN0200001N1+03101+02411100891ADDAA106000091AG10000GF105991021021008001041041MA1999999100841MD1999999+0051REMSYN011 333 58005;
0162833980999991998032700004-15667-038933FM-12+000599999V0201801N00211045001CN9999999N9+02641+02501101281ADDAA106001091AG10003AY161061AY221061GF106991041071008001021001KA1240M+03261MA1999999101231MD1999999+0321MW1531REMSYN023 333 10326 58032 60011;EQDQ01+000002VOVAR 
0143833980999991998032712004-15667-038933FM-12+000599999V0201801N00211004201CN0020001N1+02421+02271101541ADDAA124014091AG10008AY191061AY261061GF108991081071004501999999KA1240N+02381MA1999999101491MD1999999+0421MW1631REMSYN023 333 20238 58042 60144;
0124833980999991998032718004-15667-038933FM-12+000599999V0202301N00211007501CN0040001N1+02801+02501101241ADDAA106004091AG10003AY161061AY221061GF107991051051008001021001MA1999999101191MD1999999+0351MW1021REMSYN017 333 58035 60041;
0162833980999991998032800004-15667-038933FM-12+000599999V0201801N00211045001CN9999999N9+02501+02411101451ADDAA106003091AG10003AY161061AY221061GF106991041051008001021001KA1240M+02871MA1999999101401MD1999999+0171MW1021REMSYN023 333 10287 58017 60031;EQDQ01+000002VOVAR 
0143833980999991998032812004-15667-038933FM-12+000599999V0202701N00101045001CN0100001N1+02681+02481101561ADDAA124013091AG10003AY161061AY221061GF106991031051008001021001KA1240N+02391MA1999999101511MD1999999+0021MW1021REMSYN023 333 20239 58002 60134;
0096833980999991998032818004-15667-038933FM-12+000599999V0201401N00211045001CN0200001N1+03001+02461101271ADDAA106000091AG10000GF105991031051008001041001MA1999999101221MD1999999+0031REMSYN011 333 58003;
0134833980999991998032900004-15667-038933FM-12+000599999V0209991C00001220001CN9999999N9+02541+02441101381ADDAA106000091AG10000GF104991031011008001031001KA1240M+02941MA1999999101331MD1999999-0071REMSYN017 333 10294 59007;EQDQ01+000002VOVAR 
0115833980999991998032912004-15667-038933FM-12+000599999V0202301N00101007501CN0040001N1+02781+02481101481ADDAA106000091AG10000GF107991051051008001021001KA1240N+02401MA1999999101431MD1999999-0081REMSYN017 333 20240 59008;
0096833980999991998032918004-15667-038933FM-12+000599999V0201401N00211045001CN0200001N1+03041+02411101091ADDAA106000091AG10000GF105991021051008001041001MA1999999101041MD1999999-0181REMSYN011 333 59018;
0162833980999991998033000004-15667-038933FM-12+000599999V0201401N00211045001CN9999999N9+02681+02481101221ADDAA106001091AG10003AY161061AY221061GF106991041051008001021001KA1240M+03141MA1999999101171MD1999999-0161MW1021REMSYN023 333 10314 59016 60011;EQDQ01+000002VOVAR 
0134833980999991998033100004-15667-038933FM-12+000599999V0209991C00001220001CN9999999N9+02761+02481101071ADDAA106000091AG10000GF104991031011008001031001KA1240M+03051MA1999999101021MD1999999-0151REMSYN017 333 10305 59015;EQDQ01+000002VOVAR 
0115833980999991998033112004-15667-038933FM-12+000599999V0203601N00101045001CN0100001N1+03001+02391101251ADDAA106000091AG10000GF106991031051008001041001KA1240N+02311MA1999999101201MD1999999+0001REMSYN017 333 20231 58000;
0096833980999991998033118004-15667-038933FM-12+000599999V0200501N00311220001CN0200001N1+03021+02461100961ADDAA106000091AG10000GF104991031021008001041011MA1999999100911MD1999999-0011REMSYN011 333 59001;
0134833980999991998040100004-15667-038933FM-12+000599999V0200501N00211220001CN9999999N9+02801+02481101111ADDAA106000091AG10000GF103991031011008001001001KA1240M+03101MA1999999101061MD1999999+0041REMSYN017 333 10310 58004;EQDQ01+000002VOVAR 
0115833980999991998040112004-15667-038933FM-12+000599999V0203601N00211045001CN0100001N1+03001+02441101321ADDAA106000091AG10000GF106991021051008001041001KA1240N+02351MA1999999101261MD1999999+0061REMSYN017 333 20235 58006;
0096833980999991998040118004-15667-038933FM-12+000599999V0203601N00311220001CN0200001N1+03021+02411101081ADDAA106000091AG10000GF104991031021008001041001MA1999999101041MD1999999+0131REMSYN011 333 58013;
0134833980999991998040300004-15667-038933FM-12+000599999V0202701N00101045001CN9999999N9+02741+02581101311ADDAA106000091AG10000GF105991031051008001031001KA1240M+03161MA1999999101261MD1999999+0111REMSYN017 333 10316 58011;EQDQ01+000002VOVAR 
0096833980999991998040318004-15667-038933FM-12+000599999V0201801N00311045001CN0100001N1+02901+02271101461ADDAA106000091AG10000GF107991041051008001021001MA1999999101411MD1999999+0351REMSYN011 333 58035;
0162833980999991998040400004-15667-038933FM-12+000599999V0201801N00311045001CN9999999N9+02621+02311101501ADDAA106002091AG10002AY161061AY221061GF106991041051008001031001KA1240M+02941MA1999999101451MD1999999-0191MW1021REMSYN023 333 10294 59019 60021;EQDQ01+000002VOVAR 
0143833980999991998040412004-15667-038933FM-12+000599999V0202301N00311045001CN0100001N1+02661+02141101731ADDAA124000591AG10000AY151061AY221061GF105991031011008001041001KA1240N+02201MA1999999101671MD1999999+0131MW1011REMSYN023 333 20220 58013 69964;
0096833980999991998040418004-15667-038933FM-12+000599999V0201801N00511045001CN0100001N1+02741+01951101391ADDAA106000091AG10000GF106991041051008001021001MA1999999101341MD1999999-0071REMSYN011 333 59007;
0134833980999991998040500004-15667-038933FM-12+000599999V0209991C00001220001CN9999999N9+02681+02281101621ADDAA106000091AG10000GF102991021011008001001001KA1240M+02921MA1999999101561MD1999999+0111REMSYN017 333 10292 58011;EQDQ01+000002VOVAR 
0115833980999991998040512004-15667-038933FM-12+000599999V0201801N00511045001CN0100001N1+02581+02061101761ADDAA106000091AG10000GF106991021051008001041001KA1240N+02031MA1999999101701MD1999999+0031REMSYN017 333 20203 58003;
0096833980999991998040518004-15667-038933FM-12+000599999V0201801N00511007501CN0100001N1+02781+02041101351ADDAA106000091AG10000GF107991051051008001041001MA1999999101301MD1999999-0041REMSYN011 333 59004;
0134833980999991998040600004-15667-038933FM-12+000599999V0201801N00211007501CN9999999N9+02481+02111101561ADDAA106000091AG10000GF108991051051008001031001KA1240M+02931MA1999999101511MD1999999-0051REMSYN017 333 10293 59005;EQDQ01+000002VOVAR 
0115833980999991998040612004-15667-038933FM-12+000599999V0201801N00311045001CN0100001N1+02641+02161101591ADDAA106000091AG10000GF106991041051008001031001KA1240N+02151MA1999999101541MD1999999-0161REMSYN017 333 20215 59016;
0096833980999991998040618004-15667-038933FM-12+000599999V0201801N00411045001CN0100001N1+02741+02121101371ADDAA106000091AG10000GF106991031051008001031001MA1999999101321MD1999999+0021REMSYN011 333 58002;
0150833980999991998040700004-15667-038933FM-12+000599999V0202301N001019999999N9999999N9+02461+02091101551ADDAA106000091AG10000GF107991999051008001031001KA1240M+02881MA1999999101501MD1999999-0011REMSYN017 333 10288 59001;EQDQ01+000082SCOTLCQ02+000002VOVAR 
0115833980999991998040712004-15667-038933FM-12+000599999V0201801N00211045001CN0100001N1+02821+02291101711ADDAA106000091AG10000GF106991041011008001041001KA1240N+02251MA1999999101651MD1999999+0111REMSYN017 333 20225 58011;
0096833980999991998040718004-15667-038933FM-12+000599999V0201801N00311007501CN0100001N1+02841+02351101321ADDAA106000091AG10000GF108991051051008001021999MA1999999101271MD1999999-0051REMSYN011 333 59005;
0134833980999991998040800004-15667-038933FM-12+000599999V0202301N00211045001CN9999999N9+02541+02381101441ADDAA106000091AG10000GF106991021051008001041001KA1240M+02981MA1999999101391MD1999999+0111REMSYN017 333 10298 58011;EQDQ01+000002VOVAR 
0096833980999991998040818004-15667-038933FM-12+000599999V0200501N00211220001CN0200001N1+02921+02361101281ADDAA106000091AG10000GF104991021021008001051001MA1999999101231MD1999999-0041REMSYN011 333 59004;
0134833980999991998040900004-15667-038933FM-12+000599999V0200501N00211045001CN9999999N9+02761+02401101381ADDAA106000091AG10000GF105991021021008001031001KA1240M+03051MA1999999101331MD1999999-0061REMSYN017 333 10305 59006;EQDQ01+000002VOVAR 
0115833980999991998040912004-15667-038933FM-12+000599999V0203601N00101045001CN0100001N1+02901+02431101381ADDAA106000091AG10000GF106991021051008001041011KA1240N+02301MA1999999101331MD1999999-0081REMSYN017 333 20230 59008;
0096833980999991998040918004-15667-038933FM-12+000599999V0200501N00311045001CN0200001N1+03021+02411101021ADDAA106000091AG10000GF105991021021008001041001MA1999999100971MD1999999-0261REMSYN011 333 59026;
0134833980999991998041000004-15667-038933FM-12+000599999V0200501N00211220001CN9999999N9+02771+02461101121ADDAA106000091AG10000GF102991021021008001001001KA1240M+03161MA1999999101071MD1999999-0261REMSYN017 333 10316 59026;EQDQ01+000002VOVAR 
0115833980999991998041012004-15667-038933FM-12+000599999V0202301N00101045001CN0100001N1+02921+02581101211ADDAA106000091AG10000GF106991021051008001031001KA1240N+02311MA1999999101161MD1999999-0171REMSYN017 333 20231 59017;
0096833980999991998041018004-15667-038933FM-12+000599999V0200501N00211220001CN0200001N1+03021+02501100891ADDAA106000091AG10000GF104991021021008001041011MA1999999100841MD1999999-0131REMSYN011 333 59013;
0134833980999991998041100004-15667-038933FM-12+000599999V0203601N00101220001CN9999999N9+02741+02481101021ADDAA106000091AG10000GF103991031011008001001001KA1240M+03081MA1999999100971MD1999999-0101REMSYN017 333 10308 59010;EQDQ01+000002VOVAR 
0143833980999991998041112004-15667-038933FM-12+000599999V0202301N00101045001CN0100001N1+02741+02451101301ADDAA124003091AG10002AY161061AY221061GF106991031051008001041001KA1240N+02301MA1999999101251MD1999999+0091MW1021REMSYN023 333 20230 58009 60034;
0096833980999991998041118004-15667-038933FM-12+000599999V0200501N00311045001CN0200001N1+02821+02441100991ADDAA106000091AG10000GF105991031021008001041001MA1999999100941MD1999999+0101REMSYN011 333 58010;
0115833980999991998041212004-15667-038933FM-12+000599999V0209991C00001220001CN0200001N1+02901+02431101431ADDAA106000091AG10000GF103991031011008001001001KA1240N+02311MA1999999101381MD1999999+0131REMSYN017 333 20231 58013;
0096833980999991998041218004-15667-038933FM-12+000599999V0200501N00211220001CN0200001N1+03081+02321101171ADDAA106000091AG10000GF103991021021008001041001MA1999999101121MD1999999+0181REMSYN011 333 58018;
0134833980999991998041300004-15667-038933FM-12+000599999V0200901N00101220001CN9999999N9+02801+02291101491ADDAA106000091AG10000GF103991021011008001041001KA1240M+03071MA1999999101441MD1999999+0221REMSYN017 333 10307 58022;EQDQ01+000002VOVAR 
0115833980999991998041312004-15667-038933FM-12+000599999V0201401N00211220001CN0200001N1+02821+02381101541ADDAA106000091AG10000GF104991021021008001041001KA1240N+02231MA1999999101491MD1999999+0111REMSYN017 333 20223 58011;
0096833980999991998041318004-15667-038933FM-12+000599999V0200901N00211220001CN0200001N1+02981+02301101131ADDAA106000091AG10000GF102991021011008001001001MA1999999101081MD1999999-0041REMSYN011 333 59004;
0096833980999991998041418004-15667-038933FM-12+000599999V0200501N00211220001CN0200001N1+02921+02361101181ADDAA106000091AG10000GF102991021021008001001001MA1999999101131MD1999999+0051REMSYN011 333 58005;
0115833980999991998041512004-15667-038933FM-12+000599999V0202301N00101220001CN0200001N1+02661+02311101221ADDAA106000091AG10000GF103991021021008001041001KA1240N+02211MA1999999101171MD1999999+0041REMSYN017 333 20221 58004;
0096833980999991998041518004-15667-038933FM-12+000599999V0200501N00211220001CN0200001N1+02921+02341100921ADDAA106000091AG10000GF102991021021008001001001MA1999999100871MD1999999-0261REMSYN011 333 59026;
0115833980999991998041612004-15667-038933FM-12+000599999V0203601N00101220001CN0200001N1+02761+02341101331ADDAA106000091AG10000GF104991021011008001041001KA1240N+02221MA1999999101281MD1999999+0111REMSYN017 333 20222 58011;
0096833980999991998041618004-15667-038933FM-12+000599999V0200501N00211220001CN0200001N1+02941+02241101051ADDAA106000091AG10000GF102991021011008001001001MA1999999101001MD1999999+0131REMSYN011 333 58013;
0115833980999991998041712004-15667-038933FM-12+000599999V0203601N00211220001CN0200001N1+02961+02331101431ADDAA106000091AG10000GF104991021021008001041001KA1240N+02231MA1999999101381MD1999999+0101REMSYN017 333 20223 58010;
0115833980999991998041812004-15667-038933FM-12+000599999V0200501N00211220001CN0200001N1+02941+02311101381ADDAA106000091AG10000GF104991041021008001001001KA1240N+02311MA1999999101331MD1999999-0081REMSYN017 333 20231 59008;
0096833980999991998041818004-15667-038933FM-12+000599999V0200501N00211220001CN0200001N1+03021+02311101241ADDAA106000091AG10000GF104991021011008001001041MA1999999101191MD1999999+0011REMSYN011 333 58001;
0096833980999991998042018004-15667-038933FM-12+000599999V0200501N00211220001CN0200001N1+03041+02261101151ADDAA106000091AG10000GF103991031021008001001001MA1999999101121MD1999999+0001REMSYN011 333 58000;
0115833980999991998042112004-15667-038933FM-12+000599999V0200501N00211045001CN0100001N1+02921+02341101681ADDAA106000091AG10000GF105991031011008001041001KA1240N+02401MA1999999101621MD1999999+0331REMSYN017 333 20240 58033;
0096833980999991998042118004-15667-038933FM-12+000599999V0201401N00211045001CN0100001N1+02961+02391101471ADDAA106000091AG10000GF106991041051008001021001MA1999999101421MD1999999+0301REMSYN011 333 58030;
0162833980999991998042212004-15667-038933FM-12+000599999V0200901N00211220001CN9999999N9+02941+02331101661ADDAA124005091AG10002AY161061AY221061GF104991021011008001041001KA1240N+02361MA1999999101601MD1999999+0091MW1011REMSYN023 333 20236 58009 60054;EQDQ01+000002VOVAR 
0124833980999991998042218004-15667-038933FM-12+000599999V0201401N00211220001CN0100001N1+02921+02321101451ADDAA106006091AG10002AY161061AY221061GF104991031011008001041001MA1999999101401MD1999999-0021MW1011REMSYN017 333 59002 60061;
0124833980999991998042318004-15667-038933FM-12+000599999V0200901N00211220001CN0200001N1+02981+02351101271ADDAA106001091AG10000AY151061AY221061GF103991031021008001001001MA1999999101221MD1999999-0181MW1011REMSYN017 333 59018 60011;
0143833980999991998042412004-15667-038933FM-12+000599999V0202301N00101045001CN0100001N1+02781+02361101441ADDAA124002091AG10000AY151061AY221061GF106991031051008001021001KA1240N+02231MA1999999101391MD1999999-0141MW1021REMSYN023 333 20223 59014 60024;
0124833980999991998042418004-15667-038933FM-12+000599999V0203601N00101220001CN0200001N1+02941+02261101181ADDAA106004091AG10002AY161061AY221061GF104991021021008001041001MA1999999101131MD1999999-0091MW1011REMSYN017 333 59009 60041;
0121833980999991998042512004-15667-038933FM-12+000599999V0202701N00101220001CN0200001N1+02721+02371101291ADDAA124004091AG10000GF104991021021008001041001KA1240N+02151MA1999999101241MD1999999-0151REMSYN023 333 20215 59015 60044;
0096833980999991998042518004-15667-038933FM-12+000599999V0200501N00211220001CN0200001N1+02961+02331100831ADDAA106000091AG10000GF102991021021008001001001MA1999999100781MD1999999-0351REMSYN011 333 59035;
0115833980999991998042612004-15667-038933FM-12+000599999V0202701N00211220001CN0200001N1+02761+02401101171ADDAA106000091AG10000GF103991021021008001041001KA1240N+02141MA1999999101121MD1999999-0121REMSYN017 333 20214 59012;
0096833980999991998042618004-15667-038933FM-12+000599999V0200501N00211220001CN0200001N1+02981+02351100821ADDAA106000091AG10000GF102991021021008001001001MA1999999100771MD1999999-0011REMSYN011 333 59001;
0096833980999991998042918004-15667-038933FM-12+000599999V0200501N00311045001CN0200001N1+99999+99999101041ADDAA106000091AG10000GF105991031021008001041011MA1999999100991MD1999999+0071REMSYN011 333 58007;
0134833980999991998043000004-15667-038933FM-12+000599999V0200501N00211045001CN9999999N9+99999+99999101171ADDAA106000091AG10000GF105991021011008001031001KA1240M+03001MA1999999101121MD1999999+0001REMSYN017 333 10300 58000;EQDQ01+000002VOVAR 
0143833980999991998043012004-15667-038933FM-12+000599999V0202701N00101045001CN0040001N1+99999+99999101241ADDAA124009091AG10002AY161061AY221061GF107991041051008001021001KA1240N+02301MA1999999101191MD1999999-0131MW1601REMSYN023 333 20230 59013 60094;
0096833980999991998043018004-15667-038933FM-12+000599999V0200501N00511220001CN0200001N1+99999+99999100831ADDAA106000091AG10000GF104991021021008001041011MA1999999100781MD1999999-0211REMSYN011 333 59021;
0134833980999991998050100004-15667-038933FM-12+000599999V0200501N00211220001CN9999999N9+99999+99999100921ADDAA106000091AG10000GF104991011011008001031001KA1240M+03041MA1999999100871MD1999999-0251REMSYN017 333 10304 59025;EQDQ01+000002VOVAR 
0115833980999991998050112004-15667-038933FM-12+000599999V0203601N00311045001CN0100001N1+99999+99999101011ADDAA106000091AG10000GF107991041051008001041001KA1240N+02371MA1999999100961MD1999999-0231REMSYN017 333 20237 59023;
0096833980999991998050118004-15667-038933FM-12+000599999V0203601N00211220001CN0200001N1+99999+99999100701ADDAA106000091AG10000GF102991021021008001001001MA1999999100651MD1999999-0131REMSYN011 333 59013;
0134833980999991998050200004-15667-038933FM-12+000599999V0200501N00311045001CN9999999N9+99999+99999100831ADDAA106000091AG10000GF105991021011008001031001KA1240M+03011MA1999999100781MD1999999-0091REMSYN017 333 10301 59009;EQDQ01+000002VOVAR 
0115833980999991998050212004-15667-038933FM-12+000599999V0203601N00101045001CN0100001N1+99999+99999101131ADDAA106000091AG10000GF105991031011008001041001KA1240N+02431MA1999999101081MD1999999+0121REMSYN017 333 20243 58012;
0096833980999991998050218004-15667-038933FM-12+000599999V0200501N00211105001CN0100001N1+99999+99999100811ADDAA106000091AG10000GF105991021021008001041041MA1999999100761MD1999999+0111REMSYN011 333 58011;
0134833980999991998050300004-15667-038933FM-12+000599999V0209991C00001045001CN9999999N9+99999+99999101181ADDAA106000091AG10000GF105991021021008001051001KA1240M+03101MA1999999101131MD1999999+0351REMSYN017 333 10310 58035;EQDQ01+000002VOVAR 
0115833980999991998050312004-15667-038933FM-12+000599999V0200901N00211045001CN0100001N1+99999+99999101311ADDAA106000091AG10000GF106991021051008001041001KA1240N+02391MA1999999101261MD1999999+0181REMSYN017 333 20239 58018;
0096833980999991998050318004-15667-038933FM-12+000599999V0200901N00311045001CN0200001N1+99999+99999101151ADDAA106000091AG10000GF106991021051008001041011MA1999999101101MD1999999+0341REMSYN011 333 58034;
0134833980999991998050400004-15667-038933FM-12+000599999V0201401N00211045001CN9999999N9+02781+99999101391ADDAA106000091AG10000GF105991011051008001031001KA1240M+03071MA1999999101341MD1999999+0211REMSYN017 333 10307 58021;EQDQ01+000002VOVAR 
0143833980999991998050412004-15667-038933FM-12+000599999V0202301N00101045001CN0100001N1+02571+99999101481ADDAA124015091AG10002AY161061AY221061GF107991021051008001031001KA1240N+02351MA1999999101431MD1999999+0171MW1021REMSYN023 333 20235 58017 60154;
0096833980999991998050418004-15667-038933FM-12+000599999V0200901N00311045001CN0200001N1+02901+99999101151ADDAA106000091AG10000GF105991021051008001041001MA1999999101101MD1999999+0001REMSYN011 333 58000;
0134833980999991998050500004-15667-038933FM-12+000599999V0203601N00101220001CN9999999N9+02681+99999101141ADDAA106000091AG10000GF104991031011008001041001KA1240M+02981MA1999999101091MD1999999-0251REMSYN017 333 10298 59025;EQDQ01+000002VOVAR 
0143833980999991998050512004-15667-038933FM-12+000599999V0203201N00101045001CN0100001N1+02611+99999101371ADDAA124002091AG10002AY161061AY221061GF106991021051008001041001KA1240N+02261MA1999999101321MD1999999-0111MW1021REMSYN023 333 20226 59011 60024;
0134833980999991998050600004-15667-038933FM-12+000599999V0200501N00211220001CN9999999N9+02711+99999101191ADDAA106000091AG10000GF102991021011008001001001KA1240M+03041MA1999999101141MD1999999+0051REMSYN017 333 10304 58005;EQDQ01+000002VOVAR 
0143833980999991998050612004-15667-038933FM-12+000599999V0200401N00931007501CN0040001N1+02441+99999101491ADDAA124001091AG10002AY161061AY221061GF108991051071008001021999KA1240N+02271MA1999999101441MD1999999+0121MW1601REMSYN023 333 20227 58012 60014;
0124833980999991998050618004-15667-038933FM-12+000599999V0201801N00311007501CN0040001N1+02521+99999101241ADDAA106022091AG10002AY161061AY221061GF107991051051008001021001MA1999999101191MD1999999+0161MW1021REMSYN017 333 58016 60221;
0162833980999991998050700004-15667-038933FM-12+000599999V0202301N00101007501CN9999999N9+02261+99999101561ADDAA106001091AG10000AY151061AY221061GF108991051071008001021999KA1240M+02691MA1999999101511MD1999999+0371MW1021REMSYN023 333 10269 58037 60011;EQDQ01+000002VOVAR 
0143833980999991998050712004-15667-038933FM-12+000599999V0201801N00311045001CN0100001N1+02481+99999101571ADDAA124024091AG10002AY161061AY221061GF106991031051008001041001KA1240N+02161MA1999999101521MD1999999+0081MW1021REMSYN023 333 20216 58008 60244;
0096833980999991998050718004-15667-038933FM-12+000599999V0201401N00211045001CN0200001N1+02721+99999101301ADDAA106000091AG10000GF106991031051008001051011MA1999999101251MD1999999+0061REMSYN011 333 58006;
0134833980999991998050800004-15667-038933FM-12+000599999V0202301N00211045001CN9999999N9+02281+99999101581ADDAA106000091AG10000GF106991031051008001031001KA1240M+02761MA1999999101531MD1999999+0021REMSYN017 333 10276 58002;EQDQ01+000002VOVAR 
0143833980999991998050812004-15667-038933FM-12+000599999V0201801N00211045001CN0100001N1+02501+99999101911ADDAA199002091AG10002AY161061AY221061GF105991021051008001041001KA1240N+02101MA1999999101861MD1999999+0341MW1021REMSYN023 333 20210 58034 60023;
0096833980999991998050818004-15667-038933FM-12+000599999V0201801N00211045001CN0100001N1+02601+99999101681ADDAA106000091AG10000GF106991031021008001051001MA1999999101621MD1999999+0371REMSYN011 333 58037;
0124833980999991998051118004-15667-038933FM-12+000599999V0201801N00211004201CN0040001N1+02461+99999101531ADDAA106003091AG10002AY161061AY221061GF108991081071004501999999MA1999999101481MD1999999-0161MW1601REMSYN017 333 59016 60031;
0143833980999991998051212004-15667-038933FM-12+000599999V0200901N00311007501CN0040001N1+02741+99999101751ADDAA124021091AG10002AY161061AY221061GF107991051051008001021001KA1240N+02211MA1999999101691MD1999999-0071MW1021REMSYN023 333 20221 59007 60214;
0096833980999991998051218004-15667-038933FM-12+000599999V0201401N00311045001CN0100001N1+02841+99999101481ADDAA106000091AG10000GF106991021051008001041001MA1999999101431MD1999999-0051REMSYN011 333 59005;
0162833980999991998051300004-15667-038933FM-12+000599999V0201401N00101045001CN9999999N9+02481+99999101681ADDAA106002091AG10002AY161061AY221061GF107991041051008001021001KA1240M+02901MA1999999101621MD1999999-0101MW1021REMSYN023 333 10290 59010 60021;EQDQ01+000002VOVAR 
0143833980999991998051312004-15667-038933FM-12+000599999V0203601N00101004201CN0040001N1+02481+99999101741ADDAA199022091AG10002AY161061AY221061GF108991051071004501021999KA1240N+02241MA1999999101681MD1999999-0011MW1601REMSYN023 333 20224 59001 60228;
0124833980999991998051318004-15667-038933FM-12+000599999V0200901N00311045001CN0100001N1+02731+99999101481ADDAA106001091AG10002AY161061AY221061GF106991021051008001041001MA1999999101431MD1999999+0001MW1021REMSYN017 333 58000 60011;
0134833980999991998051400004-15667-038933FM-12+000599999V0202301N00101045001CN9999999N9+02421+99999101571ADDAA106000091AG10000GF105991021051008001031001KA1240M+02771MA1999999101521MD1999999-0101REMSYN017 333 10277 59010;EQDQ01+000002VOVAR 
0143833980999991998051412004-15667-038933FM-12+000599999V0202301N00101220001CN0200001N1+02561+99999101731ADDAA124002091AG10000AY151061AY221061GF104991031021008001041001KA1240N+02121MA1999999101671MD1999999-0011MW1011REMSYN023 333 20212 59001 60024;
0096833980999991998051418004-15667-038933FM-12+000599999V0200501N00211105001CN0200001N1+02831+99999101401ADDAA106000091AG10000GF105991011051008001041011MA1999999101351MD1999999-0081REMSYN011 333 59008;
0134833980999991998051500004-15667-038933FM-12+000599999V0200501N00211220001CN9999999N9+02341+99999101501ADDAA106000091AG10000GF104991011051008001041001KA1240M+02951MA1999999101451MD1999999-0071REMSYN017 333 10295 59007;EQDQ01+000002VOVAR 
0115833980999991998051512004-15667-038933FM-12+000599999V0202701N00211220001CN0200001N1+02501+99999101571ADDAA106000091AG10000GF103991021021008001041001KA1240N+01911MA1999999101521MD1999999-0151REMSYN017 333 20191 59015;
0096833980999991998051518004-15667-038933FM-12+000599999V0200901N00101220001CN0200001N1+02861+99999101411ADDAA106000091AG10000GF102991021011008001001001MA1999999101361MD1999999+0011REMSYN011 333 58001;
0134833980999991998051600004-15667-038933FM-12+000599999V0209991C00001220001CN9999999N9+02381+99999101321ADDAA106000091AG10000GF103991011011008001031001KA1240M+02931MA1999999101271MD1999999-0181REMSYN017 333 10293 59018;EQDQ01+000002VOVAR 
0143833980999991998051612004-15667-038933FM-12+000599999V0202301N00101007501CN0040001N1+02361+99999101511ADDAA124005091AG10002AY161061AY221061GF107991051051008001021001KA1240N+02001MA1999999101461MD1999999-0061MW1021REMSYN023 333 20200 59006 60054;
0124833980999991998051618004-15667-038933FM-12+000599999V0200501N00101220001CN0200001N1+02801+99999101231ADDAA106001091AG10000AY151061AY221061GF104991021021008001041041MA1999999101181MD1999999-0181MW1011REMSYN017 333 59018 69991;
0134833980999991998051700004-15667-038933FM-12+000599999V0209991C00001220001CN9999999N9+02301+99999101441ADDAA106000091AG10000GF102991021021008001001001KA1240M+02871MA1999999101391MD1999999+0121REMSYN017 333 10287 58012;EQDQ01+000002VOVAR 
0121833980999991998051712004-15667-038933FM-12+000599999V0202301N00101105001CN0200001N1+02481+99999101491ADDAA124001091AG10000GF105991021021008001041041KA1240N+01971MA1999999101441MD1999999-0021REMSYN023 333 20197 59002 69994;
0131833980999991998051718004-15667-038933FM-12+000599999V0200501N00101105001CN0200001N1+02781+99999999999ADDAA106000091AG10000GF105991021021008001041041MA1999999101271MD1999999+0091REMSYN011 333 58009;EQDQ01+103203APOSLPQ02 103203APOSLP
0150833980999991998051800004-15667-038933FM-12+000599999V0209991C00001220001CN9999999N9+02301+99999101642ADDAA106000091AG10000GF102991021011008001001001KA1240M+02881MA1999999101581MD1999999+0191REMSYN017 333 10288 58019;EQDQ01+101643APOSLPQ02+000002VOVAR 
0115833980999991998051812004-15667-038933FM-12+000599999V0202301N00211045001CN0100001N1+02521+99999101741ADDAA106000091AG10000GF106991021051008001041011KA1240N+01981MA1999999101681MD1999999+0241REMSYN017 333 20198 58024;
0096833980999991998051818004-15667-038933FM-12+000599999V0201401N00311045001CN0100001N1+02821+99999101581ADDAA106000091AG10000GF106991021051008001041011MA1999999101531MD1999999+0261REMSYN011 333 58026;
0134833980999991998051900004-15667-038933FM-12+000599999V0202301N00211045001CN9999999N9+02301+99999101861ADDAA106000091AG10000GF106991041051008001031001KA1240M+02941MA1999999101801MD1999999+0221REMSYN017 333 10294 58022;EQDQ01+000002VOVAR 
0143833980999991998051912004-15667-038933FM-12+000599999V0201801N00211105001CN0100001N1+02561+99999102061ADDAA124008091AG10002AY161061AY221061GF105991021011008001041041KA1240N+02151MA1999999102001MD1999999+0321MW1011REMSYN023 333 20215 58032 60084;
0096833980999991998051918004-15667-038933FM-12+000599999V0201401N00101045001CN0100001N1+02801+99999101661ADDAA106000091AG10000GF105991031051008001051001MA1999999101601MD1999999+0071REMSYN011 333 58007;
0134833980999991998052000004-15667-038933FM-12+000599999V0202301N00101220001CN9999999N9+02261+99999101921ADDAA106000091AG10000GF104991031051008001031001KA1240M+02861MA1999999101861MD1999999+0061REMSYN017 333 10286 58006;EQDQ01+000002VOVAR 
0143833980999991998052012004-15667-038933FM-12+000599999V0202301N00211045001CN0100001N1+02461+99999101941ADDAA124001091AG10002AY161061AY221061GF106991021051008001041001KA1240N+02021MA1999999101881MD1999999-0121MW1021REMSYN023 333 20202 59012 60014;
0096833980999991998052018004-15667-038933FM-12+000599999V0201801N00211045001CN0200001N1+02801+99999101571ADDAA106000091AG10000GF106991021051008001041011MA1999999101521MD1999999-0081REMSYN011 333 59008;
0134833980999991998052100004-15667-038933FM-12+000599999V0201801N00311045001CN9999999N9+01771+99999101831ADDAA106000091AG10000GF105991021051008001041001KA1240M+02901MA1999999101771MD1999999-0091REMSYN017 333 10290 59009;EQDQ01+000002VOVAR 
0143833980999991998052112004-15667-038933FM-12+000599999V0201801N00211007501CN0040001N1+02281+99999101881ADDAA124001091AG10002AY161061AY221061GF108991051051008001021999KA1240N+02121MA1999999101831MD1999999-0051MW1021REMSYN023 333 20212 59005 60014;
0124833980999991998052118004-15667-038933FM-12+000599999V0201801N00101007501CN0040001N1+02441+99999101661ADDAA106001091AG10002AY161061AY221061GF108991051051008001021999MA1999999101601MD1999999+0081MW1021REMSYN017 333 58008 60011;
0162833980999991998052200004-15667-038933FM-12+000599999V0202301N00101007501CN9999999N9+02281+99999101881ADDAA106005091AG10002AY161061AY221061GF105991051051008001001001KA1240M+02531MA1999999101821MD1999999+0051MW1021REMSYN023 333 10253 58005 60051;EQDQ01+000002VOVAR 
0143833980999991998052212004-15667-038933FM-12+000599999V0209991C00001045001CN0040001N1+02421+99999102061ADDAA124016091AG10002AY161061AY221061GF107991041051008001021001KA1240N+02191MA1999999102001MD1999999+0171MW1021REMSYN023 333 20219 58017 60164;
0096833980999991998052218004-15667-038933FM-12+000599999V0201401N00211045001CN0100001N1+02791+99999101741ADDAA106000091AG10000GF106991041011008001051001MA1999999101681MD1999999+0081REMSYN011 333 58008;
0134833980999991998052300004-15667-038933FM-12+000599999V0202701N00101045001CN9999999N9+02541+99999101841ADDAA106000091AG10000GF106991021051008001031001KA1240M+02861MA1999999101781MD1999999-0041REMSYN017 333 10286 59004;EQDQ01+000002VOVAR 
0115833980999991998052312004-15667-038933FM-12+000599999V0203201N00101045001CN0100001N1+02481+99999101961ADDAA106000091AG10000GF106991021051008001041001KA1240N+02121MA1999999101901MD1999999-0101REMSYN017 333 20212 59010;
0096833980999991998052318004-15667-038933FM-12+000599999V0201401N00311045001CN0200001N1+02741+99999101671ADDAA106000091AG10000GF105991021051008001041001MA1999999101611MD1999999-0071REMSYN011 333 59007;
0134833980999991998052400004-15667-038933FM-12+000599999V0209991C00001220001CN9999999N9+02241+99999101881ADDAA106000091AG10000GF103991031011008001001001KA1240M+02841MA1999999101821MD1999999+0041REMSYN017 333 10284 58004;EQDQ01+000002VOVAR 
0115833980999991998052412004-15667-038933FM-12+000599999V0209991C00001007501CN0100001N1+02441+99999101941ADDAA106000091AG10000GF105991051051008001001001KA1240N+01911MA1999999101881MD1999999-0091REMSYN017 333 20191 59009;
0096833980999991998052418004-15667-038933FM-12+000599999V0200901N00211220001CN0200001N1+02781+99999101611ADDAA106000091AG10000GF104991021011008001041001MA1999999101551MD1999999-0061REMSYN011 333 59006;
0115833980999991998052512004-15667-038933FM-12+000599999V0202301N00101220001CN0200001N1+02421+99999101811ADDAA106000091AG10000GF102991021011008001001001KA1240N+01841MA1999999101751MD1999999-0131REMSYN017 333 20184 59013;
0115833980999991998052612004-15667-038933FM-12+000599999V0202301N00101105001CN0200001N1+02361+99999101741ADDAA106000091AG10000GF106991021011008001041041KA1240N+01941MA1999999101681MD1999999-0071REMSYN017 333 20194 59007;
0096833980999991998052618004-15667-038933FM-12+000599999V0200901N00211220001CN0200001N1+02791+99999101391ADDAA106000091AG10000GF104991021021008001001041MA1999999101341MD1999999-0111REMSYN011 333 59011;
0134833980999991998052700004-15667-038933FM-12+000599999V0209991C00001220001CN9999999N9+02281+99999101491ADDAA106000091AG10000GF103991031011008001001001KA1240M+02861MA1999999101441MD1999999+0001REMSYN017 333 10286 58000;EQDQ01+000002VOVAR 
0115833980999991998052712004-15667-038933FM-12+000599999V0209991C00001045001CN0100001N1+02421+99999101561ADDAA106000091AG10000GF106991031021008001051001KA1240N+02001MA1999999101511MD1999999-0071REMSYN017 333 20200 59007;
0096833980999991998052718004-15667-038933FM-12+000599999V0200501N00211105001CN0200001N1+02841+99999101251ADDAA106000091AG10000GF106991021021008001041041MA1999999101201MD1999999-0141REMSYN011 333 59014;
0134833980999991998052800004-15667-038933FM-12+000599999V0209991C00001220001CN9999999N9+02581+99999101401ADDAA106000091AG10000GF103991031011008001001001KA1240M+02901MA1999999101351MD1999999-0091REMSYN017 333 10290 59009;EQDQ01+000002VOVAR 
0115833980999991998052812004-15667-038933FM-12+000599999V0203601N00211045001CN0100001N1+02761+99999101461ADDAA106000091AG10000GF106991041011008001041001KA1240N+02151MA1999999101411MD1999999-0101REMSYN017 333 20215 59010;
0096833980999991998052818004-15667-038933FM-12+000599999V0200501N00311220001CN0200001N1+02881+99999101291ADDAA106000091AG10000GF102991021021008001001001MA1999999101241MD1999999+0041REMSYN011 333 58004;
0134833980999991998052900004-15667-038933FM-12+000599999V0209991C00001220001CN9999999N9+02601+99999101461ADDAA106000091AG10000GF102991021021008001001001KA1240M+03011MA1999999101411MD1999999+0061REMSYN017 333 10301 58006;EQDQ01+000002VOVAR 
0115833980999991998052912004-15667-038933FM-12+000599999V0209991C00001220001CN0100001N1+02561+99999101841ADDAA106000091AG10000GF104991021011008001041001KA1240N+02191MA1999999101781MD1999999+0371REMSYN017 333 20219 58037;
0124833980999991998052918004-15667-038933FM-12+000599999V0200501N00101045001CN0100001N1+02591+99999101461ADDAA106004091AG10002AY161061AY221061GF105991031051008001041001MA1999999101411MD1999999+0171MW1021REMSYN017 333 58017 60041;
0150833980999991998053000004-15667-038933FM-12+000599999V0209991C00001220001CN9999999N9+02361+99999101671ADDAA106000091AG10000GA1001+999999999GF100991001001999999001001KA1240M+02911MA1999999101611MD1999999+0201REMSYN017 333 10291 58020;EQDQ01+000002VOVAR 
0104833980999991998053012004-15667-038933FM-12+000599999V0202301N00101045001CN0100001N1+02341+99999101591ADDAG10000GF105991031011004501041001KA1240N+02051MA1999999101541MD1999999-0241REMSYN017 333 20205 59024;
0096833980999991998053018004-15667-038933FM-12+000599999V0200501N00211220001CN0200001N1+02821+99999101151ADDAA106000091AG10000GF102991021021008001001001MA1999999101101MD1999999-0311REMSYN011 333 59031;
0134833980999991998053100004-15667-038933FM-12+000599999V0209991C00001220001CN9999999N9+02491+99999101371ADDAA106000091AG10000GF103991031011008001001001KA1240M+02901MA1999999101321MD1999999-0291REMSYN017 333 10290 59029;EQDQ01+000002VOVAR 
0115833980999991998053112004-15667-038933FM-12+000599999V0202701N00101220001CN0200001N1+02621+99999101561ADDAA106000091AG10000GF103991011021008001041001KA1240N+02401MA1999999101511MD1999999-0031REMSYN017 333 20240 59003;
0096833980999991998053118004-15667-038933FM-12+000599999V0200501N00211220001CN0200001N1+02851+99999101391ADDAA106000091AG10000GF104991021011008001041001MA1999999101431MD1999999+0241REMSYN011 333 58024;
0134833980999991998060100004-15667-038933FM-12+000599999V0209991C00001045001CN9999999N9+02451+99999101641ADDAA106000091AG10000GF106991041051008001051001KA1240M+02981MA1999999102561MD1999999+0241REMSYN017 333 10298 58024;EQDQ01+000002VOVAR 
0143833980999991998060112004-15667-038933FM-12+000599999V0202301N00101007501CN0040001N1+02501+99999101981ADDAA124001091AG10000AY151061AY221061GF108991051051008001021999KA1240N+02091MA1999999101921MD1999999+0141MW1021REMSYN023 333 20209 58014 60014;
0096833980999991998060118004-15667-038933FM-12+000599999V0201801N00101007501CN0040001N1+02601+99999101781ADDAA106000091AG10000GF108991051051008001021999MA1999999101721MD1999999+0381REMSYN011 333 58038;
0150833980999991998060200004-15667-038933FM-12+000599999V0209991C00001007501CN9999999N9+03341+99999102061ADDAA106000091AG10000GF108991051051008001021999KA1240M+99999MA1999999102001MD1999999+0281REMSYN017 333 10272 58028;EQDQ01+000002VOVAR Q02 +02722ATMX  
0143833980999991998060212004-15667-038933FM-12+000599999V0202301N00101045001CN0040001N1+02391+99999102181ADDAA124001091AG10000AY151061AY221061GF108991041051008001021999KA1240N+02181MA1999999102121MD1999999+0201MW1021REMSYN023 333 20218 58020 60014;
0096833980999991998060218004-15667-038933FM-12+000599999V0201401N00211045001CN0100001N1+02631+99999101811ADDAA106000091AG10000GF106991031021008001051001MA1999999101751MD1999999+0031REMSYN011 333 58003;
0134833980999991998060300004-15667-038933FM-12+000599999V0209991C00001045001CN9999999N9+02311+99999102081ADDAA106000091AG10000GF106991031051008001051001KA1240M+02691MA1999999102021MD1999999+0021REMSYN017 333 10269 58002;EQDQ01+000002VOVAR 
0115833980999991998060312004-15667-038933FM-12+000599999V0201801N00101045001CN0100001N1+02521+99999102101ADDAA106000091AG10000GF106991031051008001051011KA1240N+02121MA1999999102041MD1999999-0081REMSYN017 333 20212 59008;
0096833980999991998060318004-15667-038933FM-12+000599999V0201401N00211220001CN0100001N1+02681+99999101821ADDAA106000091AG10000GF104991021011008001041001MA1999999101761MD1999999+0011REMSYN011 333 58001;
0134833980999991998060400004-15667-038933FM-12+000599999V0209991C00001220001CN9999999N9+02181+99999102041ADDAA106000091AG10000GF102991021011008001001001KA1240M+02811MA1999999101981MD1999999-0041REMSYN017 333 10281 59004;EQDQ01+000002VOVAR 
0143833980999991998060412004-15667-038933FM-12+000599999V0202301N00101045001CN0100001N1+02301+99999102061ADDAA124001091AG10000AY151061AY221061GF107991041021008001021001KA1240N+02081MA1999999102001MD1999999-0041MW1021REMSYN023 333 20208 59004 60014;
0096833980999991998060418004-15667-038933FM-12+000599999V0201401N00311105001CN0100001N1+02681+99999101801ADDAA106000091AG10000GF105991021011008001041041MA1999999101741MD1999999-0021REMSYN011 333 59002;
0134833980999991998060500004-15667-038933FM-12+000599999V0209991C00001220001CN9999999N9+02141+99999102091ADDAA106000091AG10000GF104991021011008001001041KA1240M+02761MA1999999102031MD1999999+0051REMSYN017 333 10276 58005;EQDQ01+000002VOVAR 
0143833980999991998060512004-15667-038933FM-12+000599999V0202301N00211045001CN0100001N1+02281+99999102161ADDAA124000591AG10000AY141061AY221061GF105991031051008001041001KA1240N+01941MA1999999102101MD1999999+0031MW1011REMSYN023 333 20194 58003 69964;
0096833980999991998060518004-15667-038933FM-12+000599999V0201401N00311220001CN0200001N1+02651+99999101781ADDAA106000091AG10000GF103991021021008001041001MA1999999101721MD1999999-0021REMSYN011 333 59002;
0162833980999991998060600004-15667-038933FM-12+000599999V0202301N00101045001CN9999999N9+02081+99999102111ADDAA106000591AG10000AY151061AY221061GF106991031051008001051001KA1240M+02751MA1999999102051MD1999999+0021MW1021REMSYN023 333 10275 58002 69961;EQDQ01+000002VOVAR 
0051833980999991998060612004-15667-038933FM-12+000599999V0202301N002119999999N0100001N1+02141+99999102271ADDAG10000GF106991061001008001061021MA1999999102211
0124833980999991998060618004-15667-038933FM-12+000599999V0201801N00311045001CN0100001N1+02521+99999102181ADDAA106001091AG10000AY151061AY221061GF106991031051008001051001MA1999999102121MD1999999+0401MW1021REMSYN017 333 58040 60011;
0134833980999991998060700004-15667-038933FM-12+000599999V0209991C00001045001CN9999999N9+01921+99999102331ADDAA106000091AG10000GF105991031021008001051001KA1240M+02571MA1999999102171MD1999999+0121REMSYN017 333 10257 58012;EQDQ01+000002VOVAR 
0143833980999991998060712004-15667-038933FM-12+000599999V0202301N00211045001CN0100001N1+02281+99999102181ADDAA124002091AG10000AY151061AY221061GF105991031051008001041001KA1240N+01761MA1999999102121MD1999999-0091MW1011REMSYN023 333 20176 59009 60024;
0096833980999991998060718004-15667-038933FM-12+000599999V0201401N00211220001CN0200001N1+02581+99999101841ADDAA106000091AG10000GF104991021021008001051001MA1999999101781MD1999999-0341REMSYN011 333 59034;
0134833980999991998060800004-15667-038933FM-12+000599999V0202301N00101220001CN9999999N9+01991+99999102091ADDAA106000091AG10000GF104991021021008001041001KA1240M+02651MA1999999102031MD1999999-0141REMSYN017 333 10265 59014;EQDQ01+000002VOVAR 
0143833980999991998060812004-15667-038933FM-12+000599999V0202301N00211220001CN0100001N1+02241+99999101981ADDAA124004091AG10002AY161061AY221061GF104991021021008001041001KA1240N+01741MA1999999101921MD1999999-0101MW1011REMSYN023 333 20174 59010 60044;
0096833980999991998060818004-15667-038933FM-12+000599999V0201401N00211220001CN0200001N1+02671+99999101771ADDAA106000091AG10000GF104991031021008001041001MA1999999101711MD1999999-0071REMSYN011 333 59007;
0150833980999991998060900004-15667-038933FM-12+000599999V0209991C00001045001CN9999999N9+02171+99999101851ADDAA106000091AG10000GF105991021021008001051001KA1240M+02721MA1999999101801MD1999999-0241REMSYN017 333 10272 59024;EQDQ01+999990APOSP Q02+000002VOVAR 
0115833980999991998060912004-15667-038933FM-12+000599999V0201801N00101220001CN0200001N1+02401+99999102001ADDAA106000091AG10000GF103991021021008001041001KA1240N+01711MA1999999101941MD1999999+0021REMSYN017 333 20171 58002;
0096833980999991998060918004-15667-038933FM-12+000599999V0200901N00211045001CN0200001N1+02681+01891101591ADDAA106000091AG10000GF106991021051008001041011MA1999999101541MD1999999-0171REMSYN011 333 59017;
0134833980999991998061000004-15667-038933FM-12+000599999V0209991C000010450019N9999999N9+02301+99999101761ADDAA106000091AG10000GF106991021021008001051001KA1240M+02771MA1999999101701MD1999999-0091REMSYN017 333 10277 59009;EQDQ01+000002VOVAR 
0115833980999991998061012004-15667-038933FM-12+000599999V0202301N00101105001CN0100001N1+02361+02151101781ADDAA106000091AG10000GF105991011051008001041011KA1240N+01811MA1999999101731MD1999999-0211REMSYN017 333 20181 59021;
0096833980999991998061018004-15667-038933FM-12+000599999V0200901N00311045001CN0100001N1+02721+02221101521ADDAA106000091AG10000GF106991021051008001041011MA1999999101471MD1999999-0071REMSYN011 333 59007;
0134833980999991998061100004-15667-038933FM-12+000599999V0202301N00101045001CN9999999N9+02361+01871101571ADDAA106000091AG10000GF106991021051008001031001KA1240M+02811MA1999999101521MD1999999-0181REMSYN017 333 10281 59018;EQDQ01+000002VOVAR 
0115833980999991998061112004-15667-038933FM-12+000599999V0202301N00101045001CN0100001N1+02401+02281101781ADDAA106000091AG10000GF105991011051008001041001KA1240N+01881MA1999999101721MD1999999-0011REMSYN017 333 20188 59001;
0096833980999991998061118004-15667-038933FM-12+000599999V0200501N00311045001CN0200001N1+02701+02221101471ADDAA106000091AG10000GF105991031011008001041001MA1999999101421MD1999999-0051REMSYN011 333 59005;
0134833980999991998061200004-15667-038933FM-12+000599999V0209991C00001220001CN9999999N9+02461+02091101591ADDAA106000091AG10000GF103991031011008001001001KA1240M+02851MA1999999101541MD1999999+0021REMSYN017 333 10285 58002;EQDQ01+000002VOVAR 
0115833980999991998061212004-15667-038933FM-12+000599999V0202301N00101045001CN0100001N1+02381+02211101791ADDAA106000091AG10000GF106991021051008001031001KA1240N+01851MA1999999101731MD1999999+0011REMSYN017 333 20185 58001;
0096833980999991998061218004-15667-038933FM-12+000599999V0200501N00311045001CN0200001N1+02721+02121101511ADDAA106000091AG10000GF105991021051008001041001MA1999999101461MD1999999+0041REMSYN011 333 58004;
0134833980999991998061300004-15667-038933FM-12+000599999V0209991C00001045001CN9999999N9+02321+02161101891ADDAA106000091AG10000GF106991041051008001031001KA1240M+02891MA1999999101831MD1999999+0291REMSYN017 333 10289 58029;EQDQ01+000002VOVAR 
0143833980999991998061312004-15667-038933FM-12+000599999V0201801N00101007501CN0040001N1+02251+02161102271ADDAA124006091AG10002AY161061AY221061GF108991051071008001021999KA1240N+02121MA1999999102211MD1999999+0481MW1601REMSYN023 333 20212 58048 60064;
0124833980999991998061318004-15667-038933FM-12+000599999V0201801N00511007501CN0040001N1+02401+01791101901ADDAA106007091AG10002AY161061AY221061GF108991051051008001021999MA1999999101841MD1999999+0381MW1021REMSYN017 333 58038 60071;
0134833980999991998061400004-15667-038933FM-12+000599999V0201801N00311007501CN9999999N9+02201+01941102011ADDAA106000091AG10000GF107991051051008001021001KA1240M+02481MA1999999101951MD1999999+0121REMSYN017 333 10248 58012;EQDQ01+000002VOVAR 
0143833980999991998061412004-15667-038933FM-12+000599999V0202301N00101045001CN0040001N1+02261+01981102261ADDAA124009091AG10002AY161061AY221061GF106991041051008001031001KA1240N+01911MA1999999102201MD1999999-0011MW1021REMSYN023 333 20191 59001 60094;
0096833980999991998061418004-15667-038933FM-12+000599999V0201801N00311007501CN0100001N1+02461+01881101951ADDAA106000091AG10000GF106991051051008001021001MA1999999101891MD1999999+0051REMSYN011 333 58005;
0134833980999991998061500004-15667-038933FM-12+000599999V0202301N00211007501CN9999999N9+02171+01921102181ADDAA106000091AG10000GF105991051051008001001001KA1240M+02601MA1999999102121MD1999999+0171REMSYN017 333 10260 58017;EQDQ01+000002VOVAR 
0143833980999991998061512004-15667-038933FM-12+000599999V0202301N00211045001CN0040001N1+02031+01921102151ADDAA124002091AG10002AY161061AY221061GF107991041071008001021001KA1240N+01901MA1999999102091MD1999999-0111MW1531REMSYN023 333 20190 59011 60024;
0124833980999991998061518004-15667-038933FM-12+000599999V0201401N00311007501CN0100001N1+02401+01841101851ADDAA106002091AG10002AY161061AY221061GF107991051051008001021001MA1999999101791MD1999999-0101MW1021REMSYN017 333 59010 60021;
0134833980999991998061600004-15667-038933FM-12+000599999V0209991C00001045001CN9999999N9+02121+01861101961ADDAA106000091AG10000GF106991041051008001021001KA1240M+02481MA1999999101901MD1999999-0221REMSYN017 333 10248 59022;EQDQ01+000002VOVAR 
0143833980999991998061612004-15667-038933FM-12+000599999V0202301N00051007501CN0040001N1+02141+02001101941ADDAA124003091AG10002AY161061AY221061GF107991051051008001021001KA1240N+01831MA1999999101881MD1999999-0211MW1021REMSYN023 333 20183 59021 60034;
0096833980999991998061618004-15667-038933FM-12+000599999V0201801N00211007501CN0100001N1+02521+01741101711ADDAA106000091AG10000GF107991051051008001021001MA1999999101651MD1999999-0141REMSYN011 333 59014;
0162833980999991998061700004-15667-038933FM-12+000599999V0202301N00101007501CN9999999N9+02121+01971101811ADDAA106001091AG10002AY161061AY221061GF107991051051008001021001KA1240M+02561MA1999999101751MD1999999-0151MW1021REMSYN023 333 10256 59015 60011;EQDQ01+000002VOVAR 
0143833980999991998061712004-15667-038933FM-12+000599999V0202701N00101045001CN0100001N1+02241+01961101771ADDAA124008091AG10002AY161061AY221061GF107991041051008001021001KA1240N+01961MA1999999101711MD1999999-0171MW1021REMSYN023 333 20196 59017 60084;
0096833980999991998061718004-15667-038933FM-12+000599999V0201401N00101045001CN0200001N1+02621+02031101391ADDAA106000091AG10000GF105991021021008001051001MA1999999101341MD1999999-0311REMSYN011 333 59031;
0134833980999991998061800004-15667-038933FM-12+000599999V0209991C00001007501CN9999999N9+02491+02091101651ADDAA106000091AG10000GF108991051051008001021999KA1240M+02651MA1999999101591MD1999999-0161REMSYN017 333 10265 59016;EQDQ01+000002VOVAR 
0115833980999991998061812004-15667-038933FM-12+000599999V0209991C00001045001CN0100001N1+02321+02181101891ADDAA106000091AG10000GF106991021021008001051001KA1240N+01931MA1999999101831MD1999999+0121REMSYN017 333 20193 58012;
0096833980999991998061818004-15667-038933FM-12+000599999V0200501N00211007501CN0100001N1+02641+02001101531ADDAA106000091AG10000GF107991051051008001021001MA1999999101481MD1999999+0141REMSYN011 333 58014;
0134833980999991998061900004-15667-038933FM-12+000599999V0209991C00001045001CN9999999N9+02321+02201101641ADDAA106000091AG10000GF105991021051008001031001KA1240M+02671MA1999999101581MD1999999-0011REMSYN017 333 10267 59001;EQDQ01+000002VOVAR 
0115833980999991998061912004-15667-038933FM-12+000599999V0202701N00101045001CN0200001N1+02541+02211101721ADDAA106000091AG10000GF105991021021008001051001KA1240N+02091MA1999999101661MD1999999-0171REMSYN017 333 20209 59017;
0096833980999991998061918004-15667-038933FM-12+000599999V0200501N00311045001CN0200001N1+02801+01931101441ADDAA106000091AG10000GF106991021051008001041011MA1999999101381MD1999999+0101REMSYN011 333 58010;
0134833980999991998062000004-15667-038933FM-12+000599999V0209991C00001220001CN9999999N9+02451+02231101621ADDAA106000091AG10000GF104991011051008001031001KA1240M+02891MA1999999101561MD1999999-0021REMSYN017 333 10289 59002;EQDQ01+000002VOVAR 
0115833980999991998062012004-15667-038933FM-12+000599999V0209991C00001045001CN0100001N1+02351+02241101731ADDAA106000091AG10000GF105991021051008001041001KA1240N+01851MA1999999101671MD1999999+0011REMSYN017 333 20185 58001;
0096833980999991998062018004-15667-038933FM-12+000599999V0200501N00311220001CN0200001N1+02721+02221101411ADDAA106000091AG10000GF104991021051008001041011MA1999999101361MD1999999-0021REMSYN011 333 59002;
0134833980999991998062100004-15667-038933FM-12+000599999V0209991C00001220001CN9999999N9+02261+02091101631ADDAA106000091AG10000GF103991011051008001031001KA1240M+02821MA1999999101571MD1999999+0011REMSYN017 333 10282 58001;EQDQ01+000002VOVAR 
0115833980999991998062112004-15667-038933FM-12+000599999V0202301N00211220001CN0100001N1+02471+02341101881ADDAA106000091AG10000GF104991011051008001041001KA1240N+01841MA1999999101821MD1999999+0151REMSYN017 333 20184 58015;
0096833980999991998062118004-15667-038933FM-12+000599999V0201401N00211220001CN0200001N1+02721+02081101671ADDAA106000091AG10000GF102991021011008001001001MA1999999101611MD1999999+0251REMSYN011 333 58025;
0134833980999991998062200004-15667-038933FM-12+000599999V0209991C00001220001CN9999999N9+02141+01971101971ADDAA106000091AG10000GF102991021021008001001001KA1240M+02841MA1999999101911MD1999999+0341REMSYN017 333 10284 58034;EQDQ01+000002VOVAR 
0115833980999991998062212004-15667-038933FM-12+000599999V0202301N00211045001CN0100001N1+02301+02201101891ADDAA106000091AG10000GF106991031051008001041001KA1240N+01931MA1999999101831MD1999999+0011REMSYN017 333 20193 58001;
0096833980999991998062218004-15667-038933FM-12+000599999V0201401N00511007501CN0100001N1+02541+02041101631ADDAA106000091AG10000GF107991051051008001021001MA1999999101571MD1999999-0041REMSYN011 333 59004;
0134833980999991998062300004-15667-038933FM-12+000599999V0202301N00101007501CN9999999N9+02161+02021101831ADDAA106000091AG10000GF107991051051008001021001KA1240M+02741MA1999999101771MD1999999-0141REMSYN017 333 10274 59014;EQDQ01+000002VOVAR 
0143833980999991998062312004-15667-038933FM-12+000599999V0202301N00101007501CN0040001N1+02161+02041101911ADDAA124009091AG10002AY161061AY221061GF108991051051008001021999KA1240N+02011MA1999999101851MD1999999+0021MW1021REMSYN023 333 20201 58002 60094;
0096833980999991998062318004-15667-038933FM-12+000599999V0201401N00311007501CN0100001N1+02561+01851101551ADDAA106000091AG10000GF107991051051008001021001MA1999999101501MD1999999-0071REMSYN011 333 59007;
0134833980999991998062400004-15667-038933FM-12+000599999V0202301N00211045001CN9999999N9+02421+01841101771ADDAA106000091AG10000GF105991021051008001031001KA1240M+02631MA1999999101711MD1999999-0061REMSYN017 333 10263 59006;EQDQ01+000002VOVAR 
0115833980999991998062412004-15667-038933FM-12+000599999V0201801N00101045001CN0100001N1+02341+02071101821ADDAA106000091AG10000GF106991021051008001031001KA1240N+02041MA1999999101761MD1999999-0091REMSYN017 333 20204 59009;
0096833980999991998062418004-15667-038933FM-12+000599999V0200501N00311045001CN0200001N1+02661+01971101511ADDAA106000091AG10000GF105991021021008001041001MA1999999101461MD1999999-0041REMSYN011 333 59004;
0134833980999991998062500004-15667-038933FM-12+000599999V0203601N00101220001CN9999999N9+02261+02121101681ADDAA106000091AG10000GF104991011051008001031001KA1240M+02741MA1999999101621MD1999999-0091REMSYN017 333 10274 59009;EQDQ01+000002VOVAR 
0115833980999991998062512004-15667-038933FM-12+000599999V0203201N00211220001CN0100001N1+02561+02231101731ADDAA106000091AG10000GF104991011021008001041001KA1240N+01831MA1999999101671MD1999999-0091REMSYN017 333 20183 59009;
0096833980999991998062518004-15667-038933FM-12+000599999V0200501N00511045001CN0200001N1+02701+02241101371ADDAA106000091AG10000GF105991031021008001041001MA1999999101321MD1999999-0141REMSYN011 333 59014;
0134833980999991998062600004-15667-038933FM-12+000599999V0209991C00001045001CN9999999N9+02421+02281101711ADDAA106000091AG10000GF106991041051008001031001KA1240M+02911MA1999999101651MD1999999+0031REMSYN017 333 10291 58003;EQDQ01+000002VOVAR 
0143833980999991998062612004-15667-038933FM-12+000599999V0201801N00311045001CN0040001N1+02341+02241102031ADDAA124006091AG10002AY161061AY221061GF106991041051008001021001KA1240N+02061MA1999999101971MD1999999+0301MW1021REMSYN023 333 20206 58030 60064;
0124833980999991998062618004-15667-038933FM-12+000599999V0201801N00211007501CN0040001N1+02161+02061101991ADDAA106001091AG10000AY151061AY221061GF108991061071008001021999MA1999999101931MD1999999+0611MW1501REMSYN017 333 58061 69971;
0162833980999991998062700004-15667-038933FM-12+000599999V0202301N00101007501CN9999999N9+02041+01941102041ADDAA106002091AG10000AY151061AY221061GF108991051051008001021999KA1240M+02371MA1999999101981MD1999999+0331MW1021REMSYN023 333 10237 58033 60021;EQDQ01+000002VOVAR 
0143833980999991998062712004-15667-038933FM-12+000599999V0201801N00311045001CN0100001N1+02301+01981102221ADDAA124004091AG10002AY161061AY221061GF106991041051008001021001KA1240N+01901MA1999999102161MD1999999+0191MW1021REMSYN023 333 20190 58019 60044;
0096833980999991998062718004-15667-038933FM-12+000599999V0201801N00311007501CN0100001N1+02481+01901101951ADDAA106000091AG10000GF107991051051008001021001MA1999999101891MD1999999-0041REMSYN011 333 59004;
