0096834980999991998112318004-17733-039250FM-12+000399999V0200901N00151007501CN0100001N1+02551+02111101101ADDAA106000091AG10000GF108991051051008001021999MA1999999101051MD1999999+0051REMSYN011 333 58005;
0162834980999991998112400004-17733-039250FM-12+000399999V0203201N00151007501CN9999999N9+02321+02151101291ADDAA106005091AG10003AY161061AY261061GF108991051071008001021999KA1240M+02631MA1999999101241MD1999999+0011MW1601REMSYN023 333 10263 58001 60051;EQDQ01+000002VOVAR 
