0115823920999991996010212004-03700-040350FM-12+008399999V0200901N00211220001CN0200001N1+02941+02161101081ADDAA106000091AG10000GF104991041021004501001001KA1240N+02321MA1999999100071MD1999999+0021REMSYN017 333 20232 58002;
0096823920999991996010218004-03700-040350FM-12+008399999V0200501N00411220001CN0200001N1+03681+01471100551ADDAA106000091AG10000GF103991021021004501001011MA1999999099551MD1999999+0011REMSYN011 333 58001;
0115823920999991996010312004-03700-040350FM-12+008399999V0200501N00211045001CN0200001N1+02561+02151101031ADDAA106000091AG10000GF107991041021004501031001KA1240N+02291MA1999999100011MD1999999-0061REMSYN017 333 20229 59006;
0096823920999991996010418004-03700-040350FM-12+008399999V0200901N00511045001CN0200001N1+03501+01681100601ADDAA106000091AG10000GF106991041041004501031001MA1999999099601MD1999999+0001REMSYN011 333 58000;
0124823920999991996010518004-03700-040350FM-12+008399999V0202301N00311045001CN0100001N1+02321+02301100691ADDAA106006091AG10006AY161061AY261061GF108991031051004501021999MA1999999099661MD1999999+0061MW1211REMSYN017 333 58006 60061;
0143823920999991996010612004-03700-040350FM-12+008399999V0203601N00101045001CN0200001N1+02481+02271099891ADDAA199017091AG10006AY161061AY261061GF107991031041004501031001KA1240N+02261MA1999999099871MD1999999-0071MW1631REMSYN023 333 20226 59007 60170;
0096823920999991996010618004-03700-040350FM-12+008399999V0200501N00361045001CN0200001N1+03271+01981099501ADDAA106000091AG10000GF107991041041004501031001MA1999999099491MD1999999-0171REMSYN011 333 59017;
0121823920999991996010712004-03700-040350FM-12+008399999V0200901N002110450019N0200001N1+02701+02391101001ADDAA124002091AG10006GF106991041041004501011001KA1240N+02261MA1999999099981MD1999999+0111REMSYN023 333 20226 58011 60024;
0096823920999991996010818004-03700-040350FM-12+008399999V0200501N00511220001CN0200001N1+03431+01761100761ADDAA106000091AG10000GF103991031021004501001001MA1999999099751MD1999999+0161REMSYN011 333 58016;
0134823920999991996010900004-03700-040350FM-12+008399999V0200501N00361045001CN9999999N9+02721+02151101041ADDAA106000091AG10000GF106991021021008001011001KA1240M+03481MA1999999100021MD1999999+0111REMSYN017 333 10348 58011;EQDQ01+000002VOVAR 
0115823920999991996010912004-03700-040350FM-12+008399999V0200901N00361004201CN0200001N1+02831+02291101181ADDAA106000091AG10000GF106991051041004501031001KA1240N+02401MA1999999101161MD1999999+0011REMSYN017 333 20240 58001;
0131823920999991996010918004-03700-040350FM-12+008399999V0200901N00571220001CN0200001N1+03641+01701099692ADDAA106000091AG10000GF104991041021008001001001MA1999999099682MD1999999+0071REMSYN011 333 58007;EQDQ01+099683APOSP Q02+099693APOSLP
0115823920999991996011012004-03700-040350FM-12+008399999V0201401N00361220001CN0200001N1+02921+02171101091ADDAA106000091AG10000GF104991031021004501001011KA1240N+02311MA1999999100081MD1999999-0081REMSYN017 333 20231 59008;
0096823920999991996011018004-03700-040350FM-12+008399999V0200501N00261045001CN0200001N1+03601+01621100571ADDAA106000091AG10000GF106991041021004501031001MA1999999099571MD1999999-0111REMSYN011 333 59011;
0115823920999991996011112004-03700-040350FM-12+008399999V0200501N00261045001CN0200001N1+02861+02161099941ADDAA106000091AG10000GF107991041041004501031001KA1240N+02401MA1999999099921MD1999999-0161REMSYN017 333 20240 59016;
0096823920999991996011118004-03700-040350FM-12+008399999V0200501N00411045001CN0200001N1+03531+01791099411ADDAA106000091AG10000GF106991041041008001031001MA1999999099411MD1999999-0161REMSYN011 333 59016;
0096823920999991996011218004-03700-040350FM-12+008399999V0200901N00211045001CN0200001N1+03441+01801099471ADDAA106000091AG10000GF107991041061004501011011MA1999999099471MD1999999+0061REMSYN011 333 58006;
0134823920999991996011300004-03700-040350FM-12+008399999V0203601N00511045001CN9999999N9+02701+02201099761ADDAA106000091AG10000GF105991021061008001031001KA1240M+03461MA1999999099741MD1999999-0101REMSYN017 333 10346 59010;EQDQ01+000002VOVAR 
0115823920999991996011312004-03700-040350FM-12+008399999V0200901N00151045001CN0200001N1+02841+02191099881ADDAA106000091AG10000GF107991041041008001031001KA1240N+02471MA1999999099861MD1999999-0101REMSYN017 333 20247 59010;
0143823920999991996011512004-03700-040350FM-12+008399999V0201401N00101045001CN0040001N1+02201+02171101101ADDAA124046091AG10001AY151061AY251061GF108991031061004501021999KA1240N+02101MA1999999100061MD1999999+0161MW1511REMSYN023 333 20210 58016 60464;
0124823920999991996011518004-03700-040350FM-12+008399999V0202301N00211045001CN0200001N1+02481+02271100711ADDAA106001091AG10001AY151061AY251061GF108991031071004501021999MA1999999099681MD1999999-0021MW1031REMSYN017 333 59002 60011;
0096823920999991996011618004-03700-040350FM-12+008399999V0202701N00101004201CN0200001N1+03141+02001100421ADDAA106000091AG10000GF108991051061004501021999MA1999999099411MD1999999-0271REMSYN011 333 59027;
0143823920999991996011712004-03700-040350FM-12+008399999V0201801N00151045001CN0200001N1+02231+02171101001ADDAA124003091AG10001AY151061AY251061GF108991041081004501021999KA1240N+02121MA1999999099971MD1999999+0131MW1031REMSYN023 333 20212 58013 60034;
0096823920999991996011718004-03700-040350FM-12+008399999V0203201N00151045001CN0200001N1+02621+02211100731ADDAA106000091AG10000GF108991041061004501021999MA1999999099701MD1999999+0291REMSYN011 333 58029;
0096823920999991996011818004-03700-040350FM-12+008399999V0203601N00621045001CN0200001N1+03231+02171100451ADDAA106000091AG10000GF106991031061008001031001MA1999999099441MD1999999-0261REMSYN011 333 59026;
0162823920999991996011900004-03700-040350FM-12+008399999V0203601N00311220001CN9999999N9+02581+02531100791ADDAA106001091AG10001AY151061AY221061GF103991021001008001031011KA1240M+03261MA1999999099771MD1999999+0011MW1021REMSYN023 333 10326 58001 60011;EQDQ01+000002VOVAR 
0121823920999991996011912004-03700-040350FM-12+008399999V0203601N00151045001CN0200001N1+02701+02501100901ADDAA124001091AG10000GF106991041021004501031001KA1240N+02341MA1999999099881MD1999999+0021REMSYN023 333 20234 58002 60014;
0096823920999991996011918004-03700-040350FM-12+008399999V0200501N00311220001CN0200001N1+03351+02021100431ADDAA106000091AG10000GF106991031021008001001011MA1999999099421MD1999999-0011REMSYN011 333 59001;
0115823920999991996012012004-03700-040350FM-12+008399999V0203601N00311045001CN0200001N1+02781+02211100821ADDAA106000091AG10000GF106991041041008001031001KA1240N+02411MA1999999099801MD1999999-0081REMSYN017 333 20241 59008;
0096823920999991996012018004-03700-040350FM-12+008399999V0209991C00001045001CN0200001N1+03271+01911100481ADDAA106000091AG10000GF107991031041008001011001MA1999999099481MD1999999+0061REMSYN011 333 58006;
0108823920999991996012112004-03700-040350FM-12+008399999V0200901N00261045001CN0200001N1+02781+02301100861ADDAA124024091AG10000GF106991041041004501031011MA1999999099841MD1999999+0041REMSYN023 333 20/// 58004 60244;
0130823920999991996012212004-03700-040350FM-12+008399999V0201401N00101220001CN0200001N1+02521+02361100841ADDAA106001091AG10001AY151061AY251061GF105991041021004501001011MA1999999099811MD1999999-0031MW1031REMSYN023 333 20/// 59003 60011;
0096823920999991996012218004-03700-040350FM-12+008399999V0203601N00211045001CN0200001N1+02181+99999100451ADDAA106000091AG10000GF105991041021004501031001MA1999999099441MD1999999-0011REMSYN011 333 59001;
0096823920999991996012318004-03700-040350FM-12+008399999V0200901N00511004201CN0200001N1+02641+02231100691ADDAA106000091AG10000GF107991051071004501011001MA1999999100661MD1999999+0221REMSYN011 333 58022;
0102823920999991996012412004-03700-040350FM-12+008399999V0200901N00361220001CN0200001N1+02701+02371101121ADDAA106000091AG10000GF102991021021004501001001MA1999999100101MD1999999+0121REMSYN017 333 20/// 58012;
0096823920999991996012418004-03700-040350FM-12+008399999V0200501N00461045001CN0200001N1+03201+02061100801ADDAA106000091AG10000GF106991041021004501031001MA1999999099781MD1999999+0121REMSYN011 333 58012;
0102823920999991996012512004-03700-040350FM-12+008399999V0200901N00411045001CN0200001N1+02761+02231101091ADDAA106000091AG10000GF105991031041008001031011MA1999999100071MD1999999-0031REMSYN017 333 20/// 59003;
0096823920999991996012518004-03700-040350FM-12+008399999V0203601N00771045001CN0200001N1+02871+02231100841ADDAA106000091AG10000GF107991041061004501011001MA1999999099821MD1999999+0041REMSYN011 333 58004;
0134823920999991996012600004-03700-040350FM-12+008399999V0200501N00051220001CN9999999N9+02341+02261100881ADDAA106000091AG10000GF102991021001012501031001KA1240M+03241MA1999999099861MD1999999-0131REMSYN017 333 10324 59013;EQDQ01+000002VOVAR 
0115823920999991996012618004-03700-040350FM-12+008399999V0200901N002619999999N0200001N1+03371+02071100401ADDAA106000091AG10000GF105991999021008001001001MA1999999099391MD1999999-0431REMSYN011 333 59043;EQDQ01+000042SCOTLC
0102823920999991996012712004-03700-040350FM-12+008399999V0201401N00211045001CN0200001N1+02681+02241100791ADDAA106000091AG10000GF106991041041008001031001MA1999999099771MD1999999+0021REMSYN017 333 20/// 58002;
0096823920999991996012718004-03700-040350FM-12+008399999V0209991C00001045001CN0200001N1+03191+02011100431ADDAA106000091AG10000GF106991041061004501031001MA1999999099421MD1999999+0031REMSYN011 333 58003;
0096823920999991996013018004-03700-040350FM-12+008399999V0200501N00721004201CN0100001N1+03261+01981100511ADDAA106000091AG10000GF107991051061004501031001MA1999999099501MD1999999+0051REMSYN011 333 58005;
0102823920999991996013112004-03700-040350FM-12+008399999V0200901N00461045001CN0200001N1+02861+02261100871ADDAA106000091AG10000GF106991041041008001011001MA1999999099851MD1999999-0011REMSYN017 333 20/// 59001;
0108823920999991996020112004-03700-040350FM-12+008399999V0200901N00361045001CN0200001N1+02841+02221101011ADDAA124000591AG10000GF105991031021004501031001MA1999999099991MD1999999+0141REMSYN023 333 20/// 58014 69964;
0108823920999991996020212004-03700-040350FM-12+008399999V0201401N00261004201CN0200001N1+02741+02471101001ADDAA124002091AG10000GF105991051041004501001001MA1999999099981MD1999999-0011REMSYN023 333 20/// 59001 60024;
0096823920999991996020218004-03700-040350FM-12+008399999V0203601N00411045001CN0200001N1+03361+01971100551ADDAA106000091AG10000GF106991041061004501031001MA1999999099551MD1999999-0221REMSYN011 333 59022;
0108823920999991996020312004-03700-040350FM-12+008399999V0209999999999045001CN0200001N1+02861+02371100871ADDAA124001091AG10000GF105991031021004501031001MA1999999099851MD1999999-0131REMSYN023 333 20/// 59013 60014;
0096823920999991996020318004-03700-040350FM-12+008399999V0200501N00771045001CN0200001N1+03291+02001100541ADDAA106000091AG10000GF106991021041008001011011MA1999999099531MD1999999-0021REMSYN011 333 59002;
0102823920999991996020412004-03700-040350FM-12+008399999V0200501N00361045001CN0200001N1+02891+02211100931ADDAA106000091AG10000GF106991031021004501031001MA1999999099911MD1999999+0061REMSYN017 333 20/// 58006;
0108823920999991996020512004-03700-040350FM-12+008399999V0200901N00361045001CN0200001N1+02781+02361100921ADDAA124000591AG10000GF106991041041004501031001MA1999999099901MD1999999-0011REMSYN023 333 20/// 59001 69964;
0124823920999991996020618004-03700-040350FM-12+008399999V0200501N00511004201CN0200001N1+02661+02331100671ADDAA106003091AG10000AY101061AY221061GF107991051061004501021001MA1999999099651MD1999999+0151MW1611REMSYN017 333 58015 60031;
0162823920999991996020700004-03700-040350FM-12+008399999V0203601N00261045001CN9999999N9+02591+02211100901ADDAA106000591AG10001AY151061AY221061GF108991021061004501021999KA1240M+03321MA1999999099881MD1999999+0151MW1021REMSYN023 333 10332 58015 69951;EQDQ01+000002VOVAR 
0108823920999991996020712004-03700-040350FM-12+008399999V0200901N00361045001CN0200001N1+02801+02131101031ADDAA124004091AG10000GF106991041021004501031001MA1999999100011MD1999999+0091REMSYN023 333 20/// 58009 60044;
0096823920999991996020718004-03700-040350FM-12+008399999V0200501N00621220001CN0200001N1+03481+01811100611ADDAA106000091AG10000GF104991031021004501001051MA1999999099611MD1999999-0041REMSYN011 333 59004;
0102823920999991996020812004-03700-040350FM-12+008399999V0200901N00211045001CN0200001N1+02781+02211100701ADDAA106000091AG10000GF106991041021008001031001MA1999999100051MD1999999+0001REMSYN017 333 20/// 58000;
0096823920999991996020818004-03700-040350FM-12+008399999V0200501N00311220001CN0200001N1+03511+01771100561ADDAA106000091AG10000GF104991041021008001001001MA1999999099561MD1999999-0051REMSYN011 333 59005;
0096823920999991996020918004-03700-040350FM-12+008399999V0200901N00621220001CN0200001N1+03591+01601100511ADDAA106000091AG10000GF103991031021008001001001MA1999999099511MD1999999-0051REMSYN011 333 59005;
0102823920999991996021012004-03700-040350FM-12+008399999V0200901N00151220001CN0200001N1+02071+02051100981ADDAA106000091AG10000GF106991041021008001001011MA1999999099971MD1999999+0071REMSYN017 333 20/// 58007;
0096823920999991996021018004-03700-040350FM-12+008399999V0200501N00461220001CN0200001N1+03561+01731100611ADDAA106000091AG10000GF106991041021008001001011MA1999999099611MD1999999+0101REMSYN011 333 58010;
0102823920999991996021112004-03700-040350FM-12+008399999V0200501N00051220001CN0200001N1+02901+02121101061ADDAA106000091AG10000GF106991041021008001001011MA1999999100041MD1999999+0071REMSYN017 333 20/// 58007;
0102823920999991996021212004-03700-040350FM-12+008399999V0200901N00361045001CN0200001N1+02801+02311101131ADDAA106000091AG10000GF105991041041004501031001MA1999999100111MD1999999+0071REMSYN017 333 20/// 58007;
0124823920999991996021218004-03700-040350FM-12+008399999V0203201N00211004201CN0200001N1+02701+02411100731ADDAA199001091AG10000AY121061AY261061GF106991051051004501031001MA1999999099711MD1999999+0101MW1501REMSYN017 333 58010 60010;
0162823920999991996021300004-03700-040350FM-12+008399999V0209991C00001045001CN9999999N9+02481+02271100911ADDAA106010091AG10006AY161061AY261061GF105991021051004501011001KA1240M+03401MA1999999099891MD1999999-0041MW1021REMSYN023 333 10340 59004 60101;EQDQ01+000002VOVAR 
0121823920999991996021312004-03700-040350FM-12+008399999V0200501N00261045001CN0200001N1+02741+02361101091ADDAA124011091AG10000GF106991041021004501031001KA1240N+02301MA1999999100071MD1999999-0041REMSYN023 333 20230 59004 60114;
0096823920999991996021318004-03700-040350FM-12+008399999V0200501N00101045001CN0200001N1+03311+01951100641ADDAA106000091AG10000GF106991041021008001031001MA1999999099641MD1999999-0071REMSYN011 333 59007;
0143823920999991996021412004-03700-040350FM-12+008399999V0202701N00151045001CN0200001N1+02681+02201101041ADDAA124006091AG10001AY151061AY221061GF106991041041004501031001KA1240N+02351MA1999999100021MD1999999-0051MW1021REMSYN023 333 20235 59005 60064;
0121823920999991996021512004-03700-040350FM-12+008399999V0200501N00211045001CN0200001N1+02741+02141101071ADDAA124011091AG10000GF106991041021004501031001KA1240N+02301MA1999999100051MD1999999+0031REMSYN023 333 20230 58003 60114;
0096823920999991996021518004-03700-040350FM-12+008399999V0200501N00211045001CN0200001N1+03261+02981100551ADDAA106000091AG10000GF106991041021004501031001MA1999999099531MD1999999-0031REMSYN011 333 59003;
0096823920999991996021618004-03700-040350FM-12+008399999V0200501N00571045001CN0200001N1+03221+02011100611ADDAA106000091AG10000GF106991021061008001031001MA1999999099601MD1999999+0001REMSYN011 333 58000;
0102823920999991996021712004-03700-040350FM-12+008399999V0200901N00361045001CN0200001N1+02801+02311101131ADDAA106000091AG10000GF105991041041004501031001MA1999999100111MD1999999+0071REMSYN017 333 20/// 58007;
0124823920999991996021718004-03700-040350FM-12+008399999V0203601N00261045001CN0200001N1+02961+02091100571ADDAA106002091AG10000AY101061AY221061GF107991031061004501031001MA1999999099561MD1999999-0041MW1611REMSYN017 333 59004 60021;
0121823920999991996021812004-03700-040350FM-12+008399999V0200901N00211105001CN0200001N1+02821+02151100901ADDAA124002091AG10000GF105991021011008001031011KA1240N+02211MA1999999099881MD1999999-0041REMSYN023 333 20221 59004 60024;
0143823920999991996022012004-03700-040350FM-12+008399999V0203601N00101045001CN0200001N1+02481+02451101071ADDAA124055091AG10006AY161061AY261061GF105991041021004501031001KA1240N+02271MA1999999100041MD1999999+0101MW1021REMSYN023 333 20227 58010 60554;
0096823920999991996022018004-03700-040350FM-12+008399999V0200501N00151220001CN0200001N1+03231+01841100651ADDAA106000091AG10000GF104991021011008001011011MA1999999099641MD1999999-0011REMSYN011 333 59001;
0134823920999991996022100004-03700-040350FM-12+008399999V0203601N00771220001CN9999999N9+02681+02311100821ADDAA106000091AG10000GF101991011011004501001001KA1240M+03241MA1999999099791MD1999999+0061REMSYN017 333 10324 58006;EQDQ01+000002VOVAR 
0115823920999991996022112004-03700-040350FM-12+008399999V0200901N00151220001CN0200001N1+02661+02201100911ADDAA106000091AG10000GF103991021011004501001011KA1240N+02191MA1999999099891MD1999999-0151REMSYN017 333 20219 59015;
0121823920999991996022212004-03700-040350FM-12+008399999V0200501N00101045001CN0200001N1+02801+02311100981ADDAA124003091AG10000GF105991031021004501031001KA1240N+02161MA1999999099961MD1999999+0071REMSYN023 333 20216 58007 60034;
0096823920999991996022218004-03700-040350FM-12+008399999V0200501N00261220001CN0200001N1+03291+02051100601ADDAA106000091AG10000GF104991021021008001031001MA1999999099591MD1999999+0021REMSYN011 333 58002;
0124823920999991996022318004-03700-040350FM-12+008399999V0203601N00101045001CN0200001N1+02471+02301100821ADDAA106003091AG10006AY161061AY261061GF106991021021004501021001MA1999999099791MD1999999+0201MW1021REMSYN017 333 58020 60031;
0121823920999991996022412004-03700-040350FM-12+008399999V0202701N00151045001CN0200001N1+02661+02331101171ADDAA124003091AG10000GF106991041021004501031001KA1240N+02191MA1999999100141MD1999999+0041REMSYN023 333 20219 58004 60034;
0124823920999991996022418004-03700-040350FM-12+008399999V0200501N00211007501CN0200001N1+02561+02311100851ADDAA106002091AG10006AY161061AY261061GF107991051071008001011001MA1999999099821MD1999999+0031MW1021REMSYN017 333 58003 60021;
0121823920999991996022512004-03700-040350FM-12+008399999V0200901N00261045001CN0200001N1+02711+02371101061ADDAA124002091AG10000GF106991041021004501031001KA1240N+02191MA1999999100041MD1999999-0101REMSYN023 333 20219 59010 60024;
0143823920999991996022612004-03700-040350FM-12+008399999V0201801N00151045001CN0200001N1+02461+02431101101ADDAA124049091AG10006AY161061AY251061GF106991041051004501031001KA1240N+02191MA1999999100071MD1999999+0031MW1021REMSYN023 333 20219 58003 60494;
0096823920999991996022618004-03700-040350FM-12+008399999V0203601N00411220001CN0200001N1+03121+02481100611ADDAA106000091AG10000GF104991031021004501001011MA1999999099601MD1999999+0001REMSYN011 333 58000;
0115823920999991996022712004-03700-040350FM-12+008399999V0200901N00151220001CN0200001N1+02721+02471101071ADDAA106000091AG10000GF105991041021004501001011KA1240N+02301MA1999999100051MD1999999-0021REMSYN017 333 20230 59002;
0096823920999991996022718004-03700-040350FM-12+008399999V0200901N00511045001CN0200001N1+03201+02271100631ADDAA106000091AG10000GF106991041061004501031011MA1999999099611MD1999999+0011REMSYN011 333 58001;
0096823920999991996022818004-03700-040350FM-12+008399999V0203201N00211004201CN0200001N1+03101+02631100441ADDAA106000091AG10000GF107991051051004501031001MA1999999099431MD1999999-0181REMSYN011 333 59018;
0121823920999991996022912004-03700-040350FM-12+008399999V0200501N00311220001CN0200001N1+02841+02381100911ADDAA124005091AG10000GF106991031021004501001011KA1240N+02281MA1999999099891MD1999999+0041REMSYN023 333 20228 58004 60054;
0096823920999991996022918004-03700-040350FM-12+008399999V0203601N00571045001CN0200001N1+03171+02391100541ADDAA106000091AG10000GF106991031031004501031011MA1999999099531MD1999999+0101REMSYN011 333 58010;
0134823920999991996030100004-03700-040350FM-12+008399999V0203601N00151045001CN9999999N9+02421+02391100871ADDAA106000091AG10000GF106991041021004501031001KA1240M+03181MA1999999099851MD1999999+0081REMSYN017 333 10318 58008;EQDQ01+000002VOVAR 
0115823920999991996030112004-03700-040350FM-12+008399999V0200501N00211045001CN0200001N1+02761+02461100971ADDAA106000091AG10000GF106991041041004501031001KA1240N+02361MA1999999099951MD1999999+0061REMSYN017 333 20236 58006;
0159823920999991996030118004-03700-040350FM-12+008399999V0202701N00461004201CN0040001N1+02541+02311100581ADDAA106017091AG10006AY161061AY261061GF107991061061004501031001MA1999999099551MD1999999+0031MW1651REMSYN017 333 58003 60171;EQDQ01+095163APOSP Q02+999990APOSP 
0162823920999991996030200004-03700-040350FM-12+008399999V0200401N00151045001CN9999999N9+02331+02221100851ADDAA106016091AG10006AY161061AY261061GF107991021061004501011011KA1240M+03091MA1999999099821MD1999999-0031MW1021REMSYN023 333 10309 59003 60161;EQDQ01+000002VOVAR 
0121823920999991996030212004-03700-040350FM-12+008399999V0201401N00151045001CN0200001N1+02661+02391101021ADDAA124033091AG10000GF106991041021004501011001KA1240N+02221MA1999999099991MD1999999+0041REMSYN023 333 20222 58004 60334;
0124823920999991996030218004-03700-040350FM-12+008399999V0203601N00261045001CN0100001N1+02531+02421100711ADDAA106004091AG10006AY161061AY261061GF107991041061004501021011MA1999999099681MD1999999+0121MW1621REMSYN017 333 58012 60041;
0121823920999991996030312004-03700-040350FM-12+008399999V0200501N00151045001CN0200001N1+02721+02481101041ADDAA124004091AG10000GF106991031021004501011011KA1240N+02301MA1999999100021MD1999999+0031REMSYN023 333 20230 58003 60044;
0143823920999991996030412004-03700-040350FM-12+008399999V0200501N00051004201CN0200001N1+02611+02551100871ADDAA124011091AG10001AY151061AY251061GF107991051041004501031001KA1240N+02401MA1999999099851MD1999999-0171MW1021REMSYN023 333 20240 59017 60114;
0162823920999991996030700004-03700-040350FM-12+008399999V0209991C00001045001CN9999999N9+02371+02311100881ADDAA106002091AG10001AY151061AY251061GF108991031051004501011999KA1240M+02981MA1999999099851MD1999999-0171MW1021REMSYN023 333 10298 59017 60021;EQDQ01+000002VOVAR 
0121823920999991996030712004-03700-040350FM-12+008399999V0202301N00211045001CN0200001N1+02641+02391101001ADDAA124003091AG10000GF106991031021004501011001KA1240N+02251MA1999999099971MD1999999-0051REMSYN023 333 20225 59005 60034;
0096823920999991996030718004-03700-040350FM-12+008399999V0200901N00211045001CN0200001N1+03191+02131100671ADDAA106000091AG10000GF106991031021008001011001MA1999999099651MD1999999+0001REMSYN011 333 58000;
0124823920999991996030818004-03700-040350FM-12+008399999V0203601N00211045001CN0200001N1+02791+02501100771ADDAA106008091AG10006AY161061AY261061GF107991041061004501011011MA1999999099751MD1999999+0101MW1021REMSYN017 333 58010 60081;
0121823920999991996030912004-03700-040350FM-12+008399999V0200901N00101045001CN0200001N1+02821+02381101231ADDAA124008091AG10000GF106991031021004501031001KA1240N+02281MA1999999100211MD1999999+0181REMSYN023 333 20228 58018 60084;
0096823920999991996030918004-03700-040350FM-12+008399999V0203601N00101045001CN0200001N1+02741+02401100911ADDAA106000091AG10000GF107991031061004501011011MA1999999099881MD1999999+0131REMSYN011 333 58013;
0143823920999991996031012004-03700-040350FM-12+008399999V0203601N00101045001CN0200001N1+02661+02481101281ADDAA124000191AG10001AY151061AY251061GF106991031041004501031001KA1240N+02291MA1999999100261MD1999999+0051MW1021REMSYN023 333 20229 58005 69924;
0143823920999991996031112004-03700-040350FM-12+008399999V0203601N00261045001CN0200001N1+02501+02431100991ADDAA124003091AG10006AY161061AY261061GF107991031051004501011001KA1240N+02191MA1999999099961MD1999999-0301MW1021REMSYN023 333 20219 59030 60034;
0115823920999991996031212004-03700-040350FM-12+008399999V0209991C00001045001CN0200001N1+02541+02471100951ADDAA106000091AG10000GF108991031051004501021999KA1240N+02311MA1999999099921MD1999999-0041REMSYN017 333 20231 59004;
0096823920999991996031218004-03700-040350FM-12+008399999V0200501N00931004201CN0200001N1+02661+02371100531ADDAA106000091AG10000GF108991061061004501021999MA1999999099511MD1999999-0151REMSYN011 333 59015;
0162823920999991996031300004-03700-040350FM-12+008399999V0209991C00001004201CN9999999N9+02321+02271101021ADDAA106020091AG10006AY161061AY261061GF108991061061004501021999KA1240M+03001MA1999999099991MD1999999+0121MW1611REMSYN023 333 10300 58012 60201;EQDQ01+000002VOVAR 
0143823920999991996031312004-03700-040350FM-12+008399999V0201801N00101220001CN0200001N1+02501+02411101041ADDAA124023091AG10006AY161061AY261061GF104991031021004501031001KA1240N+02231MA1999999100011MD1999999+0091MW1021REMSYN023 333 20223 58009 60234;
0124823920999991996031418004-03700-040350FM-12+008399999V0203601N00101045001CN0200001N1+02601+02511100801ADDAA106005091AG10006AY161061AY261061GF106991031061004501021001MA1999999099771MD1999999+0111MW1021REMSYN017 333 58011 60051;
0121823920999991996031512004-03700-040350FM-12+008399999V0200901N00051105001CN0200001N1+02741+02471101041ADDAA124006091AG10000GF105991021021004501031011KA1240N+02261MA1999999100011MD1999999-0101REMSYN023 333 20226 59010 60064;
0124823920999991996031518004-03700-040350FM-12+008399999V0200501N00511002101CN0040001N1+02401+02311100721ADDAA106006091AG10000AY101061AY221061GF107991051061002501021001MA1999999099691MD1999999-0081MW1971REMSYN017 333 59008 60061;
0121823920999991996031612004-03700-040350FM-12+008399999V0201801N00151004201CN0200001N1+02611+02331100891ADDAA124009091AG10000GF107991061041004501031001KA1240N+02181MA1999999099861MD1999999-0151REMSYN023 333 20218 59015 60094;
0124823920999991996031618004-03700-040350FM-12+008399999V0203601N00261045001CN0200001N1+02471+02301100471ADDAA106000591AG10001AY151061AY251061GF107991041041004501031001MA1999999099451MD1999999-0241MW1021REMSYN017 333 59024 69941;
0143823920999991996031712004-03700-040350FM-12+008399999V0202701N00101002101CN0100001N1+02561+02421100971ADDAA124000591AG10000AY101061AY221061GF108991061041002501011999KA1240N+02291MA1999999099941MD1999999+0081MW1511REMSYN023 333 20229 58008 69964;
0124823920999991996031918004-03700-040350FM-12+008399999V0200501N00211045001CN0100001N1+02741+02521100761ADDAA106000591AG10000AY101061AY221061GF107991041061004501031011MA1999999099731MD1999999-0041MW1501REMSYN017 333 59004 69941;
0121823920999991996032112004-03700-040350FM-12+008399999V0201801N00261045001CN0200001N1+02561+02251101111ADDAA124022091AG10000GF106991041041004501031001KA1240N+02191MA1999999100081MD1999999+0001REMSYN023 333 20219 58000 60224;
0096823920999991996032118004-03700-040350FM-12+008399999V0209991C00001105001CN0200001N1+02351+02181100611ADDAA106000091AG10000GF105991021021004501011011MA1999999099601MD1999999-0201REMSYN011 333 59020;
0115823920999991996032212004-03700-040350FM-12+008399999V0200901N00211045001CN0200001N1+02701+02431101051ADDAA106000091AG10000GF106991041041004501031001KA1240N+02211MA1999999100031MD1999999-0051REMSYN017 333 20221 59005;
0162823920999991996032300004-03700-040350FM-12+008399999V0203601N00211045001CN9999999N9+02411+02371100931ADDAA106014091AG10006AY161061AY261061GF108991041041004501021999KA1240M+03271MA1999999099911MD1999999+0101MW1511REMSYN023 333 10327 58010 60141;EQDQ01+000002VOVAR 
0121823920999991996032312004-03700-040350FM-12+008399999V0209991C00001045001CN0200001N1+02671+02351101141ADDAA124014091AG10000GF106991041021004501031001KA1240N+02261MA1999999100101MD1999999+0071REMSYN023 333 20226 58007 60144;
0124823920999991996032318004-03700-040350FM-12+008399999V0203601N00871004201CN0040001N1+02541+02491100691ADDAA106005091AG10000AY101061AY221061GF108991061061004501021999MA1999999099661MD1999999+0071MW1651REMSYN017 333 58007 60051;
0162823920999991996032400004-03700-040350FM-12+008399999V0202301N00571045001CN9999999N9+02421+02391101131ADDAA106022091AG10006AY161061AY261061GF108991041061004501021999KA1240M+03181MA1999999100111MD1999999+0201MW1611REMSYN023 333 10318 58020 60221;EQDQ01+000002VOVAR 
0143823920999991996032412004-03700-040350FM-12+008399999V0209991C00001004201CN0200001N1+02521+02331101101ADDAA124041091AG10006AY161061AY261061GF107991051041004501011001KA1240N+02191MA1999999100071MD1999999-0031MW1021REMSYN023 333 20219 59003 60414;
0124823920999991996032618004-03700-040350FM-12+008399999V0203601N00361045001CN0200001N1+02641+02501099681ADDAA199011091AG10006AY161061AY261061GF107991041061004501031001MA1999999099681MD1999999+0071MW1021REMSYN017 333 58007 60110;
0162823920999991996032800004-03700-040350FM-12+008399999V0203601N00101045001CN9999999N9+02281+02251101291ADDAA106029091AG10006AY161061AY261061GF108991041061002501021999KA1240M+02641MA1999999100261MD1999999+0351MW1601REMSYN023 333 10264 58035 60291;EQDQ01+000002VOVAR 
0143823920999991996032812004-03700-040350FM-12+008399999V0201801N00211045001CN0200001N1+02541+02291101301ADDAA124038091AG10006AY161061AY261061GF107991041041004501031001KA1240N+02231MA1999999100271MD1999999+0161MW1011REMSYN023 333 20223 58016 60384;
0096823920999991996032818004-03700-040350FM-12+008399999V0202301N00211045001CN0200001N1+03061+02191100851ADDAA106000091AG10000GF106991031021008001031001MA1999999099831MD1999999+0021REMSYN011 333 58002;
0124823920999991996033018004-03700-040350FM-12+008399999V0202701N00311002101CN0200001N1+02561+02441100721ADDAA106005091AG10006AY161061AY261061GF108991061061002501011001MA1999999099691MD1999999-0011MW1611REMSYN017 333 59001 60051;
0121823920999991996033112004-03700-040350FM-12+008399999V0201401N00311045001CN0200001N1+02661+02371101041ADDAA124013091AG10000GF106991041021004501031001KA1240N+02231MA1999999100021MD1999999+0031REMSYN023 333 20223 58003 60134;
0121823920999991996040112004-03700-040350FM-12+008399999V0201401N00101045001CN0200001N1+02541+02471101241ADDAA124000391AG10000GF108991031051004501021999KA1240N+02301MA1999999100211MD1999999+0191REMSYN023 333 20230 58019 69934;
0124823920999991996040118004-03700-040350FM-12+008399999V0201401N00211045001CN0100001N1+02381+02281100921ADDAA106019091AG10006AY161061AY261061GF108991041041004501021999MA1999999099891MD1999999+0191MW1021REMSYN017 333 58019 60191;
0096823920999991996040218004-03700-040350FM-12+008399999V0200901N00211045001CN0200001N1+03191+02281100581ADDAA106000091AG10000GF105991041021008001011001MA1999999099571MD1999999-0321REMSYN011 333 59032;
0162823920999991996040300004-03700-040350FM-12+008399999V0203601N00211045001CN9999999N9+02521+02421100811ADDAA106000591AG10006AY161061AY261061GF107991031061004501031001KA1240M+03191MA1999999099791MD1999999-0161MW1031REMSYN023 333 10319 59016 69961;EQDQ01+000002VOVAR 
0121823920999991996040312004-03700-040350FM-12+008399999V0203601N00211045001CN0200001N1+02621+02371100091ADDAA124000591AG10000GF107991041051004501031001KA1240N+02381MA1999999099941MD1999999-0081REMSYN023 333 20238 59008 69964;
0096823920999991996040318004-03700-040350FM-12+008399999V0200901N00261045001CN0200001N1+03061+02381100561ADDAA106000091AG10000GF107991031051004501031001MA1999999099551MD1999999-0021REMSYN011 333 59002;
0121823920999991996040412004-03700-040350FM-12+008399999V0200501N00151045001CN0200001N1+02821+02421100951ADDAA124009091AG10000GF106991041041004501031001KA1240N+02821MA1999999099931MD1999999-0011REMSYN023 333 20282 59001 60094;
0143823920999991996040612004-03700-040350FM-12+008399999V0201801N00151045001CN0200001N1+02521+02311100981ADDAA124002091AG10001AY151061AY251061GF106991031041004501031001KA1240N+02261MA1999999099951MD1999999+0011MW1021REMSYN023 333 20226 58001 60024;
0096823920999991996040618004-03700-040350FM-12+008399999V0200501N00101045001CN0200001N1+03091+02211100561ADDAA106000091AG10000GF108991021021008001031001MA1999999099541MD1999999+0001REMSYN011 333 58000;
0134823920999991996040800004-03700-040350FM-12+008399999V0203601N00101045001CN9999999N9+02381+02221100971ADDAA106000091AG10000GF107991041051004501031001KA1240M+03021MA1999999099941MD1999999+0131REMSYN017 333 10302 58013;EQDQ01+000002VOVAR 
0121823920999991996040812004-03700-040350FM-12+008399999V0200901N00101045001CN0200001N1+02621+02211101111ADDAA124011091AG10001GF106991041041004501031001KA1240N+02301MA1999999100081MD1999999+0081REMSYN023 333 20230 58008 60114;
0096823920999991996040918004-03700-040350FM-12+008399999V0202301N00151220001CN0200001N1+03081+02371100691ADDAA106000091AG10000GF106991041061004501001011MA1999999099671MD1999999-0031REMSYN011 333 59003;
0162823920999991996041000004-03700-040350FM-12+008399999V0202301N00261045001CN9999999N9+02461+02431101061ADDAA106005091AG10006AY161061AY261061GF108991031061004501021999KA1240M+03111MA1999999100051MD1999999+0051MW1021REMSYN023 333 10311 58005 60051;EQDQ01+000002VOVAR 
0121823920999991996041012004-03700-040350FM-12+008399999V0200901N00151220001CN0200001N1+02621+02461101111ADDAA124005091AG10000GF104991031021004501001011KA1240N+02271MA1999999100081MD1999999-0021REMSYN023 333 20227 59002 60054;
0124823920999991996041018004-03700-040350FM-12+008399999V0200501N00511045001CN0200001N1+02561+02351100851ADDAA106018091AG10006AY161061AY261061GF108991041071004501011999MA1999999099821MD1999999+0151MW1031REMSYN017 333 58015 60181;
0121823920999991996041112004-03700-040350FM-12+008399999V0202301N00151045001CN0200001N1+02681+02351101051ADDAA124018091AG10000GF105991031021004501031001KA1240N+02191MA1999999100031MD1999999-0051REMSYN023 333 20219 59005 60184;
0096823920999991996041118004-03700-040350FM-12+008399999V0201801N00151045001CN0200001N1+02941+02381101611ADDAA106000091AG10000GF106991031021008001011011MA1999999099521MD1999999-0031REMSYN011 333 59003;
0096823920999991996041218004-03700-040350FM-12+008399999V0209991C00001105001CN0200001N1+03141+02301100501ADDAA106000091AG10000GF105991021021008001011011MA1999999099491MD1999999-0101REMSYN011 333 59010;
0115823920999991996041312004-03700-040350FM-12+008399999V0200501N00151045001CN0200001N1+02741+02451100881ADDAA106000091AG10000GF106991041021008001011001KA1240N+02291MA1999999099861MD1999999-0051REMSYN017 333 20229 59005;
0096823920999991996041318004-03700-040350FM-12+008399999V0203201N00051045001CN0200001N1+03241+02331100451ADDAA106000091AG10000GF106991041041008001031001MA1999999099441MD1999999-0051REMSYN011 333 59005;
0162823920999991996041600004-03700-040350FM-12+008399999V0203601N00211220001CN9999999N9+02461+02391100981ADDAA106013091AG10006AY161061AY261061GF102991021021004501001001KA1240M+03071MA1999999099951MD1999999+0001MW1021REMSYN023 333 10307 58000 60131;EQDQ01+000002VOVAR 
0121823920999991996041612004-03700-040350FM-12+008399999V0200901N00211220001CN0200001N1+02741+02401101101ADDAA124013091AG10000GF104991031021004501001011KA1240N+02321MA1999999100081MD1999999-0011REMSYN023 333 20232 59001 60134;
0124823920999991996041618004-03700-040350FM-12+008399999V0200501N00311045001CN0200001N1+03061+02381100561ADDAA199001091AG10006AY161061AY261061GF106991021041004501011011MA1999999099551MD1999999-0101MW1021REMSYN017 333 59010 60019;
0121823920999991996041712004-03700-040350FM-12+008399999V0200901N00211045001CN0200001N1+02741+02401101021ADDAA124009091AG10000GF106991041041004501031001KA1240N+02351MA1999999100001MD1999999-0081REMSYN023 333 20235 59008 60094;
0121823920999991996041812004-03700-040350FM-12+008399999V0201401N00101045001CN0200001N1+02641+02421101031ADDAA124003091AG10000GF106991021041004501011011KA1240N+02281MA1999999100011MD1999999+0011REMSYN023 333 20228 58001 60034;
0096823920999991996041818004-03700-040350FM-12+008399999V0201801N00151045001CN0200001N1+03031+02391100581ADDAA106000091AG10000GF108991031061008001011011MA1999999099571MD1999999-0031REMSYN011 333 59003;
0115823920999991996041912004-03700-040350FM-12+008399999V0203601N00261045001CN0200001N1+02701+02391100971ADDAA106000091AG10000GF107991041051004501031001KA1240N+02231MA1999999099951MD1999999-0061REMSYN017 333 20223 59006;
0096823920999991996041918004-03700-040350FM-12+008399999V0203601N00361004201CN0200001N1+02771+02441100601ADDAA106000091AG10000GF106991061061004501031001MA1999999099581MD1999999+0011REMSYN011 333 58001;
0121823920999991996042012004-03700-040350FM-12+008399999V0200901N00051045001CN0200001N1+02681+02411101051ADDAA124000591AG10000GF106991041061004501031001KA1240N+02281MA1999999100031MD1999999+0081REMSYN023 333 20228 58008 69944;
0124823920999991996042018004-03700-040350FM-12+008399999V0203601N00151004201CN0200001N1+02421+02321100791ADDAA106015091AG10006AY161061AY261061GF108991061061004501011999MA1999999099761MD1999999+0181MW1021REMSYN017 333 58018 60151;
0121823920999991996042112004-03700-040350FM-12+008399999V0201801N00311045001CN0200001N1+02641+02391101151ADDAA124015091AG10000GF106991041041004501011011KA1240N+02201MA1999999100121MD1999999+0091REMSYN023 333 20220 58009 60154;
0124823920999991996042118004-03700-040350FM-12+008399999V0203601N00101045001CN0200001N1+02821+02481100771ADDAA106001091AG10000AY121061AY221061GF108991041051004501021999MA1999999099751MD1999999-0011MW1611REMSYN017 333 59001 69981;
0121823920999991996042212004-03700-040350FM-12+008399999V0201401N00101045001CN0200001N1+02581+02371101171ADDAA124008091AG10000GF106991041051004501031001KA1240N+02301MA1999999100141MD1999999+0021REMSYN023 333 20230 58002 60084;
0124823920999991996042318004-03700-040350FM-12+008399999V0200501N00151004201CN0100001N1+02381+02241101031ADDAA106023091AG10006AY161061AY261061GF108991081061004501999999MA1999999100001MD1999999+0151MW1651REMSYN017 333 58015 60231;
0134823920999991996042500004-03700-040350FM-12+008399999V0203601N00211045001CN9999999N9+02421+02301101071ADDAA106000091AG10000GF106991031061004501031001KA1240M+03031MA1999999103041MD1999999-0211REMSYN017 333 10303 59021;EQDQ01+000002VOVAR 
0115823920999991996042512004-03700-040350FM-12+008399999V0201801N00211004201CN0200001N1+02531+02401101171ADDAA106000091AG10000GF108991051041004501031001KA1240N+02171MA1999999100141MD1999999-0131REMSYN017 333 20217 59013;
0096823920999991996042518004-03700-040350FM-12+008399999V0201801N00261045001CN0200001N1+02541+02381100811ADDAA106000091AG10000GF106991041061004501031001MA1999999099781MD1999999-0071REMSYN011 333 59007;
0154823920999991996042612004-03700-040350FM-12+008399999V0202701N001510450019N0200001N1+02581+02311100151ADDAA106000091AA224004091AG10001AY151061AY251061GF105991031041004501031001KA1240N+02201MA1999999100121MD1999999-0021MW1031REMSYN023 333 20220 59002 60044;
0096823920999991996042618004-03700-040350FM-12+008399999V0202201N00411004201CN0040001N1+02441+02341100841ADDAA106000091AG10000GF108991061061004501021999MA1999999099811MD1999999+0031REMSYN011 333 58003;
0162823920999991996042700004-03700-040350FM-12+008399999V0201801N00151045001CN9999999N9+02401+02351101131ADDAA106000391AG10001AY151061AY251061GF108991041061004501011999KA1240M+03001MA1999999100101MD1999999-0021MW1021REMSYN023 333 10300 59002 69931;EQDQ01+000002VOVAR 
0121823920999991996042712004-03700-040350FM-12+008399999V0201401N00101045001CN0200001N1+02561+02291101131ADDAA124000391AG10000GF105991031021004501031001KA1240N+02281MA1999999100101MD1999999-0021REMSYN023 333 20228 59002 69934;
0096823920999991996042718004-03700-040350FM-12+008399999V0209991C00001045001CN0200001N1+03071+02271100691ADDAA106000091AG10000GF106991031021008001031001MA1999999099671MD1999999-0141REMSYN011 333 59014;
0121823920999991996042812004-03700-040350FM-12+008399999V0201801N00361045001CN0200001N1+02581+02371101091ADDAA124010091AG10000GF106991041061004501031001KA1240N+02301MA1999999100061MD1999999-0041REMSYN023 333 20230 59004 60104;
0121823920999991996042912004-03700-040350FM-12+008399999V0201801N00311220001CN0200001N1+02641+02331101101ADDAA124003091AG10000GF104991031021004501031001KA1240N+02351MA1999999100081MD1999999+0021REMSYN023 333 20235 58002 60034;
0124823920999991996042918004-03700-040350FM-12+008399999V0202301N00211009001CN0200001N1+02901+02411100781ADDAA106000191AG10001AY151061AY221061GF107991051081004501031001MA1999999099761MD1999999+0001MW1031REMSYN017 333 58000 69921;
0162823920999991996043000004-03700-040350FM-12+008399999V0209991C00001045001CN9999999N9+02381+02351101181ADDAA106016091AG10006AY161061AY261061GF108991041061004501011999KA1240M+03021MA1999999100151MD1999999+0151MW1611REMSYN023 333 10302 58015 60161;EQDQ01+000002VOVAR 
0143823920999991996043012004-03700-040350FM-12+008399999V0200501N00411220001CN0200001N1+02561+02291101181ADDAA124016091AG10006AY161061AY251061GF103991021021004501001011KA1240N+02271MA1999999100151MD1999999+0071MW1031REMSYN023 333 20227 58007 60164;
0137823920999991996043018004-03700-040350FM-12+008399999V0200901N00361045001CN0200001N1+02761+02381100761ADDAA106006091AG10006AY161061AY261061GF106991041061004501031001MA1999999099731MD1999999-0031REMSYN017 333 59003 60061;EQDQ01+000562PRSWM1
0150823920999991996050100004-03700-040350FM-12+008399999V0200501N00211045001CN9999999N9+02441+02351101151ADDAA106000091AG10000GF108991031061008001011999KA1240M+02991MA1999999101152MD1999999-0051REMSYN017 333 10299 59005;EQDQ01+101153APOSP Q02+000002VOVAR 
0143823920999991996050112004-03700-040350FM-12+008399999V0201401N00151004201CN0200001N1+02621+02411101171ADDAA124007091AG10005AY161061AY261061GF107991051051004501031001KA1240N+02301MA1999999100141MD1999999-0011MW1031REMSYN023 333 20230 59001 60074;
0115823920999991996050212004-03700-040350FM-12+008399999V0201401N00211045001CN0200001N1+02721+02321101121ADDAA106000091AG10000GF106991031021004501031001KA1240N+02281MA1999999100101MD1999999-0041REMSYN017 333 20228 59004;
0124823920999991996050218004-03700-040350FM-12+008399999V0203201N00261004201CN0200001N1+02931+02501100761ADDAA106015091AG10005AY161061AY261061GF108991051061004501031001MA1999999099741MD1999999+0001MW1021REMSYN017 333 58000 60151;
0121823920999991996050312004-03700-040350FM-12+008399999V0201801N00151220001CN0200001N1+02641+02371101181ADDAA124016091AG10000GF104991031021004501031001KA1240N+02201MA1999999100151MD1999999+0151REMSYN023 333 20220 58015 60164;
0124823920999991996050318004-03700-040350FM-12+008399999V0203601N00261045001CN0200001N1+02481+02431100801ADDAA106013091AG10005AY161061AY261061GF107991031061004501011001MA1999999099771MD1999999+0031MW1021REMSYN017 333 58003 60131;
0143823920999991996050412004-03700-040350FM-12+008399999V0201801N00151045001CN0200001N1+02651+02411101081ADDAA124014091AG10001AY151061AY251061GF106991031021004501031001KA1240N+02281MA1999999100051MD1999999-0101MW1021REMSYN023 333 20228 59010 60144;
0096823920999991996050418004-03700-040350FM-12+008399999V0203201N001510450019N0200001N1+02731+02441100751ADDAA106000091AG10000GF106991041061004501031001MA1999999099721MD1999999-0051REMSYN011 333 59005;
0162823920999991996050500004-03700-040350FM-12+008399999V0201401N00051045001CN9999999N9+02401+02331101081ADDAA106004091AG10005AY161061AY251061GF108991041071004501021999KA1240M+03081MA1999999100051MD1999999-0081MW1021REMSYN023 333 10308 59008 60041;EQDQ01+000002VOVAR 
0121823920999991996050512004-03700-040350FM-12+008399999V0201801N00051045001CN0200001N1+02761+02501101131ADDAA124004091AG10000GF106991041061004501031001KA1240N+02201MA1999999100111MD1999999+0061REMSYN023 333 20220 58006 60044;
0143823920999991996050612004-03700-040350FM-12+008399999V0201801N00211045001CN0200001N1+02621+02271101151ADDAA106001091AG10005AY161061AY221061GF105991041021004501031001KA1240N+02211MA1999999100131MD1999999+0021MW1031REMSYN023 333 20221 58002 60011;
0096823920999991996050718004-03700-040350FM-12+008399999V0200901N00261220001CN0200001N1+03061+02111100771ADDAA106000091AG10000GF104991021021008001031001MA1999999099751MD1999999+0001REMSYN011 333 58000;
0115823920999991996050812004-03700-040350FM-12+008399999V0201801N00151220001CN0200001N1+02641+02231101161ADDAA106000091AG10000GF102991021021004501001001KA1240N+02201MA1999999100141MD1999999+0071REMSYN017 333 20220 58007;
0096823920999991996050818004-03700-040350FM-12+008399999V0201401N00261220001CN0200001N1+03121+02171100881ADDAA106000091AG10000GF104991031021004501031001MA1999999099861MD1999999+0111REMSYN011 333 58011;
0150823920999991996050900004-03700-040350FM-12+008399999V0200501N00211220001CN9999999N9+02511+02401101081ADDAA106000091AG10000GA1001+999999999GF100991001001999999001001KA1240M+03141MA1999999100061MD1999999+0051REMSYN017 333 10314 58005;EQDQ01+000002VOVAR 
0115823920999991996050912004-03700-040350FM-12+008399999V0201801N00211220001CN0200001N1+02771+02421101151ADDAA106000091AG10000GF104991041021008001001001KA1240N+02251MA1999999100131MD1999999-0011REMSYN017 333 20225 59001;
0124823920999991996050918004-03700-040350FM-12+008399999V0209991C00001045001CN0200001N1+02861+02231100751ADDAA106002091AG10000AY101061AY221061GF106991041061004501031001MA1999999099731MD1999999-0131MW1611REMSYN017 333 59013 60021;
0096823920999991996051018004-03700-040350FM-12+008399999V0202301N00261045001CN0200001N1+03071+02331100731ADDAA106000091AG10000GF106991021021008001031001MA1999999099711MD1999999-0021REMSYN011 333 59002;
0115823920999991996051112004-03700-040350FM-12+008399999V0209991C00001045001CN0200001N1+02801+02401101131ADDAA106000091AG10000GF105991041021004501011001KA1240N+02281MA1999999100111MD1999999+0031REMSYN017 333 20228 58003;
0096823920999991996051118004-03700-040350FM-12+008399999V0201401N00151220001CN0200001N1+03131+02281100961ADDAA106000091AG10000GF104991021021008001011001MA1999999099671MD1999999-0041REMSYN011 333 59004;
0115823920999991996051212004-03700-040350FM-12+008399999V0200901N00211045001CN0200001N1+02731+02281101261ADDAA106000091AG10000GF105991041021008001031001KA1240N+02161MA1999999100241MD1999999+0131REMSYN017 333 20216 58013;
0096823920999991996051418004-03700-040350FM-12+008399999V0200901N00311045001CN0200001N1+03091+02291100731ADDAA106000091AG10000GF105991031021008001031001MA1999999099711MD1999999-0131REMSYN011 333 59013;
0115823920999991996051512004-03700-040350FM-12+008399999V0200501N00051004201CN0200001N1+02481+02371101041ADDAA106000091AG10000GF108991061061004501021999KA1240N+02171MA1999999100011MD1999999-0161REMSYN017 333 20217 59016;
0115823920999991996051612004-03700-040350FM-12+008399999V0200501N00261220001CN0200001N1+02801+02441100941ADDAA106000091AG10000GF104991021011008001031001KA1240N+02191MA1999999099921MD1999999-0091REMSYN017 333 20219 59009;
0096823920999991996051618004-03700-040350FM-12+008399999V0201801N00051220001CN0200001N1+03161+02291100681ADDAA106000091AG10000GF104991021021008001031001MA1999999099661MD1999999+0061REMSYN011 333 58006;
0132823920999991996051712004-03700-040350FM-12+008399999V0201401N00311045001CN0200001N1+02681+02261101191ADDAA106000091AA224002091AG10000GF105991041041004501031001KA1240N+02151MA1999999100171MD1999999+0251REMSYN023 333 20215 58025 60024;
0096823920999991996051718004-03700-040350FM-12+008399999V0200901N002110450019N0200001N1+03061+01301100761ADDAA106000091AG10000GF105991021021008001031001MA1999999099741MD1999999+0081REMSYN011 333 58008;
0134823920999991996051800004-03700-040350FM-12+008399999V0203601N00261220001CN9999999N9+02571+02381101141ADDAA106000091AG10000GF102991011011008001031001KA1240M+03171MA1999999100121MD1999999+0221REMSYN017 333 10317 58022;EQDQ01+000002VOVAR 
0096823920999991996051818004-03700-040350FM-12+008399999V0200501N00101045001CN0200001N1+03121+02221100861ADDAA106000091AG10000GF105991031021008001031001MA1999999099841MD1999999+0101REMSYN011 333 58010;
0143823920999991996051912004-03700-040350FM-12+008399999V0203601N00101004201CN0200001N1+02461+02371101271ADDAA124006091AG10001AY151061AY251061GF107991051061004501031001KA1240N+02341MA1999999100241MD1999999-0041MW1621REMSYN023 333 20234 59004 60064;
0115823920999991996052012004-03700-040350FM-12+008399999V0201401N00151220001CN0200001N1+02721+02261101131ADDAA106000091AG10000GF101991011011004501001001KA1240N+02141MA1999999100111MD1999999-0131REMSYN017 333 20214 59013;
0096823920999991996052018004-03700-040350FM-12+008399999V0200901N00311220001CN0200001N1+03101+02181100771ADDAA106000091AG10000GF103991021021004501001011MA1999999099751MD1999999-0141REMSYN011 333 59014;
0115823920999991996052112004-03700-040350FM-12+008399999V0200901N00311220001CN0200001N1+02681+02201101211ADDAA106000091AG10000GF101991011011004501001001KA1240N+02091MA1999999100191MD1999999+0081REMSYN017 333 20209 58008;
0115823920999991996052118004-03700-040350FM-12+008399999V0200501N00261220001CN0200001N1+03111+02061100042ADDAA106000091AG10000GF103991021011008001011001MA1999999099821MD1999999+0071REMSYN011 333 58007;EQDQ01+100043APOSLP
0115823920999991996052212004-03700-040350FM-12+008399999V0202301N00211220001CN0200001N1+02561+02211101221ADDAA106000091AG10000GF104991011011004501031001KA1240N+02031MA1999999100201MD1999999+0011REMSYN017 333 20203 58001;
0096823920999991996052218004-03700-040350FM-12+008399999V0200901N00151220001CN0200001N1+03101+02101100851ADDAA106000091AG10000GF102991021021004501001001MA1999999100831MD1999999+0011REMSYN011 333 58001;
0134823920999991996052300004-03700-040350FM-12+008399999V0203601N00211220001CN9999999N9+02541+02381101101ADDAA106000091AG10000GF101991011021008001001001KA1240M+03161MA1999999100081MD1999999+0001REMSYN017 333 10316 58000;EQDQ01+000002VOVAR 
0115823920999991996052312004-03700-040350FM-12+008399999V0201801N00211220001CN0200001N1+02721+02261101221ADDAA106000091AG10000GF103991011011004501031001KA1240N+02171MA1999999100201MD1999999+0001REMSYN017 333 20217 58000;
0124823920999991996052318004-03700-040350FM-12+008399999V0203201N00211045001CN0200001N1+02641+02421100921ADDAA106004091AG10005AY161061AY221061GF108991031071004501021999MA1999999099891MD1999999+0061MW1021REMSYN017 333 58006 60041;
0121823920999991996052412004-03700-040350FM-12+008399999V0201801N00261045001CN0200001N1+02441+02371101151ADDAA124004091AG10000GF106991031051004501011001KA1240N+02141MA1999999100121MD1999999-0081REMSYN023 333 20214 59008 60044;
0115823920999991996052512004-03700-040350FM-12+008399999V0209991C00001220001CN0200001N1+02761+02301101171ADDAA106000091AG10000GF102991011011008001011001KA1240N+02071MA1999999100151MD1999999+0031REMSYN017 333 20207 58003;
0096823920999991996052518004-03700-040350FM-12+008399999V0201401N00211045001CN0200001N1+03121+02281100761ADDAA106000091AG10000GF106991031061004501011011MA1999999099741MD1999999-0051REMSYN011 333 59005;
0115823920999991996052612004-03700-040350FM-12+008399999V0201801N00211004201CN0200001N1+02721+02321101261ADDAA106000091AG10000GF107991051041004501031001KA1240N+02111MA1999999100241MD1999999+0091REMSYN017 333 20211 58009;
0115823920999991996052712004-03700-040350FM-12+008399999V0202301N00211220001CN0200001N1+02561+02061101381ADDAA106000091AG10000GF101991011011004501001001KA1240N+02201MA1999999100351MD1999999+0111REMSYN017 333 20220 58011;
0096823920999991996052718004-03700-040350FM-12+008399999V0201401N00261220001CN0200001N1+03081+02011101051ADDAA106000091AG10000GF103991031021004501001001MA1999999100031MD1999999+0111REMSYN011 333 58011;
0096823920999991996052818004-03700-040350FM-12+008399999V0201801N00151220001CN0200001N1+03131+02171100871ADDAA106000091AG10000GF103991031011008001001001MA1999999099851MD1999999-0181REMSYN011 333 59018;
0134823920999991996052900004-03700-040350FM-12+008399999V0200501N00151045001CN9999999N9+02541+02381101121ADDAA106000091AG10000GF107991031041004501031001KA1240M+03141MA1999999100101MD1999999-0271REMSYN017 333 10314 59027;EQDQ01+000002VOVAR 
0115823920999991996052912004-03700-040350FM-12+008399999V0202301N00211220001CN0200001N1+02641+02141101221ADDAA106000091AG10000GF102991011011004501031001KA1240N+02211MA1999999100201MD1999999-0051REMSYN017 333 20221 59005;
0162823920999991996053012004-03700-040350FM-12+008399999V0202301N00151004201CN0200001N1+02361+02281101281ADDAA124003091AG10005AY161061AY261061GF108991061051004501011999KA1240M+99999MA1999999100251MD1999999+0051MW1151REMSYN023 333 10227 58005 60034;EQDQ01 +02272ATMX  
0124823920999991996053018004-03700-040350FM-12+008399999V0209991C00001004201CN0200001N1+02371+02281101021ADDAA106013091AG10005AY161061AY261061GF108991061061004501011999MA1999999099991MD1999999+0191MW1971REMSYN017 333 58019 60131;
0121823920999991996053112004-03700-040350FM-12+008399999V0200901N00101045001CN0200001N1+02601+02211101311ADDAA124013091AG10000GF105991031021004501031001KA1240N+02031MA1999999100291MD1999999+0041REMSYN023 333 20203 58004 60134;
0096823920999991996053118004-03700-040350FM-12+008399999V0200901N00311220001CN0200001N1+03061+02081100881ADDAA106000091AG10000GF103991031011008001001001MA1999999099861MD1999999+0131REMSYN011 333 58013;
0115823920999991996060112004-03700-040350FM-12+008399999V0201801N00361220001CN0200001N1+02701+02131101291ADDAA106000091AG10000GF103991011011008001031001KA1240N+02081MA1999999100271MD1999999-0021REMSYN017 333 20208 59002;
0115823920999991996060118004-03700-040350FM-12+008399999V0209991C00001007501CN0200001N1+03071+02221099942ADDAA106000091AG10000GF105991051021008001001001MA1999999099921MD1999999+0061REMSYN011 333 58006;EQDQ01+099943APOSLP
0115823920999991996060212004-03700-040350FM-12+008399999V0200501N00101045001CN0200001N1+02661+02271101171ADDAA106000091AG10000GF107991041021004501031001KA1240N+02191MA1999999100151MD1999999-0121REMSYN017 333 20219 59012;
0134823920999991996060300004-03700-040350FM-12+008399999V0200501N00151220001CN9999999N9+02401+02191101181ADDAA106000091AG10000GF103991031001008001031001KA1240M+03121MA1999999100141MD1999999-0011REMSYN017 333 10312 59001;EQDQ01+000002VOVAR 
0115823920999991996060312004-03700-040350FM-12+008399999V0201401N00311220001CN0200001N1+02721+01981101191ADDAA106000091AG10000GF102991021021004501001001KA1240N+02221MA1999999090172MD1999999+0051REMSYN017 333 20222 58005;
0096823920999991996060418004-03700-040350FM-12+008399999V0201401N00151220001CN0200001N1+03161+01991100901ADDAA106000091AG10000GF104991011011008001031011MA1999999099881MD1999999-0091REMSYN011 333 59009;
0134823920999991996060612004-03700-040350FM-12+008399999V0201801N00211220001CN0200001N1+02681+02061101441ADDAA106000091AG10000GF102991999011008001011001KA1240N+02031MA1999999100421MD1999999+0021REMSYN017 333 20203 58002;EQDQ01+000032SCOTLC
0096823920999991996060618004-03700-040350FM-12+008399999V0200501N00151045001CN0200001N1+03141+01941101061ADDAA106000091AG10000GF105991031021008001031001MA1999999100041MD1999999-0071REMSYN011 333 59007;
0096823920999991996060718004-03700-040350FM-12+008399999V0200901N00261045001CN0200001N1+03061+02171100971ADDAA106000091AG10000GF106991041021008001031001MA1999999099951MD1999999-0091REMSYN011 333 59009;
0115823920999991996060812004-03700-040350FM-12+008399999V0201401N00151220001CN0200001N1+02811+99999101421ADDAA106000091AG10000GF104991021021008001031001KA1240N+02211MA1999999100401MD1999999+0051REMSYN017 333 20221 58005;
0096823920999991996060818004-03700-040350FM-12+008399999V0200901N00151045001CN0200001N1+03221+02171101041ADDAA106000091AG10000GF106991021021008001031011MA1999999100021MD1999999+0071REMSYN011 333 58007;
0115823920999991996060912004-03700-040350FM-12+008399999V0201801N00511105001CN0200001N1+02681+02351101531ADDAA106000091AG10000GF106991041021004501001031KA1240N+02271MA1999999100501MD1999999+0101REMSYN017 333 20227 58010;
0150823920999991996061000004-03700-040350FM-12+008399999V0209991C00001220001CN9999999N9+02501+02001101361ADDAA106000091AG10000GF102991999081008001031001KA1240M+03221MA1999999100361MD1999999-0031REMSYN017 333 10322 59003;EQDQ01+000032SCOTLCQ02+000002VOVAR 
0115823920999991996061012004-03700-040350FM-12+008399999V0201401N00261220001CN0200001N1+02621+01671101381ADDAA106000091AG10000GF101991011011004501001001KA1240N+02101MA1999999100361MD1999999-0141REMSYN017 333 20210 59014;
0096823920999991996061018004-03700-040350FM-12+008399999V0201801N00211045001CN0200001N1+02981+01691101041ADDAA106000091AG10000GF107991041041004501031001MA1999999100021MD1999999-0051REMSYN011 333 59005;
0134823920999991996061200004-03700-040350FM-12+008399999V0201801N00051045001CN9999999N9+02481+02051101331ADDAA106000091AG10000GF106991041051008001011001KA1240M+03041MA1999999100311MD1999999+0091REMSYN017 333 10304 58009;EQDQ01+000002VOVAR 
0115823920999991996061212004-03700-040350FM-12+008399999V0201801N00261220001CN0200001N1+02561+01901101351ADDAA106000091AG10000GF103991011011004501031001KA1240N+02081MA1999999100321MD1999999+0021REMSYN017 333 20208 58002;
0096823920999991996061218004-03700-040350FM-12+008399999V0200901N00361220001CN0200001N1+03301+01591100911ADDAA106000091AG10000GF103991031021004501001001MA1999999099891MD1999999-0101REMSYN011 333 59010;
0115823920999991996061312004-03700-040350FM-12+008399999V0201401N00311220001CN0200001N1+02741+02001101281ADDAA106000091AG10000GF102991021011004501001001KA1240N+02031MA1999999100261MD1999999-0061REMSYN017 333 20203 59006;
0096823920999991996061318004-03700-040350FM-12+008399999V0200901N00151007501CN0200001N1+03111+01901100901ADDAA106000091AG10000GF105991051021008001001001MA1999999099881MD1999999-0011REMSYN011 333 59001;
0115823920999991996061412004-03700-040350FM-12+008399999V0209991C00001220001CN0200001N1+02581+02061101231ADDAA106000091AG10000GF101991011011004501001001KA1240N+02001MA1999999100201MD1999999-0061REMSYN017 333 20200 59006;
0096823920999991996061418004-03700-040350FM-12+008399999V0200901N00461045001CN0200001N1+03161+01821100851ADDAA106000091AG10000GF105991031011008001011001MA1999999099831MD1999999-0051REMSYN011 333 59005;
0115823920999991996061512004-03700-040350FM-12+008399999V0201401N00461220001CN0200001N1+02741+02071101211ADDAA106000091AG10000GF103991021011008001031001KA1240N+01961MA1999999100181MD1999999-0021REMSYN017 333 20196 59002;
0096823920999991996061518004-03700-040350FM-12+008399999V0201401N00311220001CN0200001N1+03211+01861100761ADDAA106000091AG10000GF104991031021008001031001MA1999999099741MD1999999-0091REMSYN011 333 59009;
0115823920999991996061612004-03700-040350FM-12+008399999V0200901N00211045001CN0200001N1+02741+02191101081ADDAA106000091AG10000GF105991031021008001031001KA1240N+02141MA1999999100061MD1999999-0121REMSYN017 333 20214 59012;
0115823920999991996061712004-03700-040350FM-12+008399999V0201801N00051220001CN0200001N1+02721+01851100971ADDAA106000091AG10000GF101991011011004501001001KA1240N+02001MA1999999099251MD1999999-0111REMSYN017 333 20200 59011;
0096823920999991996061718004-03700-040350FM-12+008399999V0201401N00261045001CN0200001N1+03121+01791100671ADDAA106000091AG10000GF106991041041004501031001MA1999999099651MD1999999-0101REMSYN011 333 59010;
0096823920999991996061818004-03700-040350FM-12+008399999V0201401N00151007501CN0200001N1+03261+02021100611ADDAA106000091AG10000GF106991061051008001001001MA1999999099601MD1999999-0051REMSYN011 333 59005;
0134823920999991996061900004-03700-040350FM-12+008399999V0201801N00211220001CN9999999N9+02661+02111100871ADDAA106000091AG10000GF102991021051008001001001KA1240M+03291MA1999999099851MD1999999-0081REMSYN017 333 10329 59008;EQDQ01+000002VOVAR 
0115823920999991996061912004-03700-040350FM-12+008399999V0201801N00361045001CN0200001N1+02741+02171100981ADDAA106000091AG10000GF106991021051008001031011KA1240N+02361MA1999999099961MD1999999+0001REMSYN017 333 20236 58000;
0096823920999991996061918004-03700-040350FM-12+008399999V0201401N00311045001CN0200001N1+03171+02051100751ADDAA106000091AG10000GF106991021051004501031011MA1999999099731MD1999999+0131REMSYN011 333 58013;
0115823920999991996062012004-03700-040350FM-12+008399999V0200901N00261045001CN0200001N1+02741+02211101101ADDAA106000091AG10000GF106991031021008001031001KA1240N+02111MA1999999100081MD1999999+0081REMSYN017 333 20211 58008;
0096823920999991996062018004-03700-040350FM-12+008399999V0202301N00151045001CN0200001N1+03241+01751100801ADDAA106000091AG10000GF106991021021008001011011MA1999999099781MD1999999+0051REMSYN011 333 58005;
0096823920999991996062118004-03700-040350FM-12+008399999V0200901N00511220001CN0200001N1+03331+01931100871ADDAA106000091AG10000GF103991021021008001011001MA1999999099851MD1999999+0091REMSYN011 333 58009;
0096823920999991996062218004-03700-040350FM-12+008399999V0201401N00211220001CN0200001N1+03361+01771100881ADDAA106000091AG10000GF104991041021008001001001MA1999999099861MD1999999+0011REMSYN011 333 58001;
0115823920999991996062312004-03700-040350FM-12+008399999V0201401N00411045001CN0200001N1+02661+01921101431ADDAA106000091AG10000GF105991041021004501031001KA1240N+02131MA1999999100411MD1999999+0121REMSYN017 333 20213 58012;
0115823920999991996062412004-03700-040350FM-12+008399999V0201401N00211220001CN0200001N1+02601+01741101341ADDAA106000091AG10000GF102991011011004501031001KA1240N+01971MA1999999100311MD1999999-0101REMSYN017 333 20197 59010;
0115823920999991996062512004-03700-040350FM-12+008399999V0201801N00361220001CN0200001N1+02661+01821101301ADDAA106000091AG10000GF103991031021004501001001KA1240N+02291MA1999999100281MD1999999-0031REMSYN017 333 20229 59003;
0096823920999991996062518004-03700-040350FM-12+008399999V0201401N00211220001CN0200001N1+03181+01691100871ADDAA106000091AG10000GF104991041021008001001001MA1999999099851MD1999999-0081REMSYN011 333 59008;
0096823920999991996062618004-03700-040350FM-12+008399999V0200501N00211220001CN0200001N1+03331+01261100771ADDAA106000091AG10000GF103991021021004501001011MA1999999099751MD1999999-0101REMSYN011 333 59010;
0124823920999991996062718004-03700-040350FM-12+008399999V0209991C00001004201CN0200001N1+02781+02461100841ADDAA106002091AG10005AY161061AY261061GF107991051051004501031001MA1999999099811MD1999999+0061MW1021REMSYN017 333 58006 60021;
0162823920999991996062812004-03700-040350FM-12+008399999V0209991C00001045001CN9999999N9+02381+02211101161ADDAA106003091AG10005AY161061AY221061GF108991031051004501021999KA1240M+02881MA1999999100131MD1999999+0131MW1021REMSYN023 333 10288 58013 60031;EQDQ01+000002VOVAR 
0134823920999991996070400004-03700-040350FM-12+008399999V0203601N00571220001CN9999999N9+02581+02121101101ADDAA106000091AG10000GF102991011011008001011001KA1240M+03361MA1999999100081MD1999999-0011REMSYN017 333 10336 59001;EQDQ01+000002VOVAR 
0115823920999991996070412004-03700-040350FM-12+008399999V0201801N00311220001CN0200001N1+02641+02031101261ADDAA106000091AG10000GF102991021011008001001001KA1240N+01971MA1999999100241MD1999999+0031REMSYN017 333 20197 58003;
0096823920999991996070418004-03700-040350FM-12+008399999V0201801N00361007501CN0200001N1+03341+01581100891ADDAA106000091AG10000GF105991051021008001001001MA1999999099871MD1999999+0121REMSYN011 333 58012;
0115823920999991996070512004-03700-040350FM-12+008399999V0200901N00211007501CN0200001N1+02701+02031101411ADDAA106000091AG10000GF105991051021008001001001KA1240N+02191MA1999999100391MD1999999+0151REMSYN017 333 20219 58015;
0096823920999991996070518004-03700-040350FM-12+008399999V0201401N00211007501CN0200001N1+03491+01661100931ADDAA106000091AG10000GF105991051021008001001001MA1999999099911MD1999999+0041REMSYN011 333 58004;
0115823920999991996070612004-03700-040350FM-12+008399999V0201401N00361007501CN0200001N1+02671+02091101381ADDAA106000091AG10000GF106991051061008001031001KA1240N+02281MA1999999100361MD1999999-0031REMSYN017 333 20228 59003;
0096823920999991996070618004-03700-040350FM-12+008399999V0200901N00211007501CN0200001N1+03261+01761101001ADDAA106000091AG10000GF106991051051008001011001MA1999999099981MD1999999+0071REMSYN011 333 58007;
0134823920999991996070700004-03700-040350FM-12+008399999V0203601N00411045001CN9999999N9+02661+02001101181ADDAA106000091AG10000GF106991041051008001031001KA1240M+03301MA1999999100161MD1999999-0101REMSYN017 333 10330 59010;EQDQ01+000002VOVAR 
0115823920999991996070712004-03700-040350FM-12+008399999V0201401N00211045001CN0200001N1+02701+02031101191ADDAA106000091AG10000GF106991031051008001031001KA1240N+02201MA1999999100171MD1999999-0191REMSYN017 333 20220 59019;
0134823920999991996070800004-03700-040350FM-12+008399999V0203601N00211220001CN9999999N9+02471+02091101081ADDAA106000091AG10000GF102991021051008001001001KA1240M+03121MA1999999100061MD1999999-0101REMSYN017 333 10312 59010;EQDQ01+000002VOVAR 
0115823920999991996070812004-03700-040350FM-12+008399999V0201401N00461220001CN0200001N1+02761+01891101191ADDAA106000091AG10000GF102991011021008001011001KA1240N+02031MA1999999100371MD1999999+0001REMSYN017 333 20203 58000;
0096823920999991996070818004-03700-040350FM-12+008399999V0200901N00261007501CN0200001N1+03411+01641100721ADDAA106000091AG10000GF105991051021008001001001MA1999999099701MD1999999-0111REMSYN011 333 59011;
0115823920999991996070912004-03700-040350FM-12+008399999V0201401N00361220001CN0200001N1+02721+01771101381ADDAA106000091AG10000GF102991011021008001031001KA1240N+02061MA1999999100361MD1999999+0191REMSYN017 333 20206 58019;
0096823920999991996070918004-03700-040350FM-12+008399999V0201801N00311220001CN0200001N1+03441+01431100961ADDAA106000091AG10000GF103991011011008001001011MA1999999099941MD1999999+0241REMSYN011 333 58024;
0115823920999991996071012004-03700-040350FM-12+008399999V0201801N00261220001CN0200001N1+02681+01861101441ADDAA106000091AG10000GF101991011011008001001001KA1240N+01931MA1999999100421MD1999999+0061REMSYN017 333 20193 58006;
0096823920999991996071018004-03700-040350FM-12+008399999V0201801N00051220001CN0200001N1+03421+99999100971ADDAA106000091AG10000GF104991041021008001001001MA1999999099951MD1999999+0011REMSYN011 333 58001;
0134823920999991996071100004-03700-040350FM-12+008399999V0200301N00311220001CN9999999N9+02541+02001101301ADDAA106000091AG10000GF101991011001012501031001KA1240M+03481MA1999999100281MD1999999+0071REMSYN017 333 10348 58007;EQDQ01+000002VOVAR 
0115823920999991996071112004-03700-040350FM-12+008399999V0201801N00151220001CN0200001N1+02721+01881101431ADDAA106000091AG10000GF104991011011008001031011KA1240N+01961MA1999999100411MD1999999-0011REMSYN017 333 20196 59001;
0062823920999991996071118004-03700-040350FM-12+008399999V0201401N002119999999N0200001N1+03361+01651100931ADDAA106000091AG10000GF106991999999008001999999MA1999999099881
0115823920999991996071212004-03700-040350FM-12+008399999V0201401N00261007501CN0200001N1+02681+02091101331ADDAA106000091AG10000GF107991051021008001031001KA1240N+02191MA1999999100311MD1999999-0101REMSYN017 333 20219 59010;
0096823920999991996071218004-03700-040350FM-12+008399999V0200901N00211045001CN0200001N1+03171+01821100891ADDAA106000091AG10000GF107991041051008001031001MA1999999099871MD1999999-0011REMSYN011 333 59001;
0115823920999991996071312004-03700-040350FM-12+008399999V0200901N00361007501CN0200001N1+02761+02091101331ADDAA106000091AG10000GF106991061041008001001001KA1240N+02111MA1999999100311MD1999999+0001REMSYN017 333 20211 58000;
0096823920999991996071318004-03700-040350FM-12+008399999V0200901N00211007501CN0200001N1+03321+01781100871ADDAA106000091AG10000GF105991051021008001001001MA1999999099851MD1999999-0021REMSYN011 333 59002;
0134823920999991996071412004-03700-040350FM-12+008399999V0200901N002119999999N0200001N1+02821+02021101401ADDAA106000091AG10000GF105991999031008001001001KA1240N+02041MA1999999100381MD1999999+0071REMSYN017 333 20204 58007;EQDQ01+000022SCOTLC
0115823920999991996071512004-03700-040350FM-12+008399999V0200901N00511045001CN0200001N1+02761+01941101451ADDAA106000091AG10000GF106991041041008001031001KA1240N+02311MA1999999100431MD1999999+0051REMSYN017 333 20231 58005;
0096823920999991996071518004-03700-040350FM-12+008399999V0200901N00511105001CN0200001N1+03391+01531100991ADDAA106000091AG10000GF105991021021008001011011MA1999999099971MD1999999+0041REMSYN011 333 58004;
0134823920999991996071600004-03700-040350FM-12+008399999V0203601N00311220001CN9999999N9+02541+01831101321ADDAA106000091AG10000GF101991011001012501031001KA1240M+03431MA1999999100301MD1999999+0071REMSYN017 333 10343 58007;EQDQ01+000002VOVAR 
0115823920999991996071612004-03700-040350FM-12+008399999V0200901N00461220001CN0200001N1+02841+01791101421ADDAA106000091AG10000GF103991021011008001011001KA1240N+02041MA1999999100401MD1999999-0031REMSYN017 333 20204 59003;
0096823920999991996071618004-03700-040350FM-12+008399999V0200501N00621220001CN0200001N1+03391+01381100981ADDAA106000091AG10000GF103991021011008001011001MA1999999099961MD1999999-0011REMSYN011 333 59001;
0115823920999991996071718004-03700-040350FM-12+008399999V0201801N00211045001CN0200001N1+02761+02021101441ADDAA106000091AG10000GF105991031021008001031001KA1240N+02041MA1999999100421MD1999999+0021REMSYN017 333 20204 58002;
0134823920999991996071800004-03700-040350FM-12+008399999V0203601N00461220001CN9999999N9+02681+02021101221ADDAA106000091AG10000GF102991021001012501011001KA1240M+03421MA1999999100201MD1999999-0071REMSYN017 333 10342 59007;EQDQ01+000002VOVAR 
0143823920999991996071812004-03700-040350FM-12+008399999V0202301N00151004201CN0200001N1+02441+02211101541ADDAA124025091AG10005AY161061AY261061GF107991061061004501031001KA1240N+02201MA1999999100511MD1999999+0091MW1021REMSYN023 333 20220 58009 60254;
0096823920999991996071818004-03700-040350FM-12+008399999V0201401N00211045001CN0200001N1+02871+02011101171ADDAA106000091AG10000GF106991021041008001031001MA1999999100141MD1999999+0161REMSYN011 333 58016;
0115823920999991996071912004-03700-040350FM-12+008399999V0200901N00151220001CN0200001N1+02681+02061101491ADDAA106000091AG10000GF104991031021008001011001KA1240N+02111MA1999999100461MD1999999-0061REMSYN017 333 20211 59006;
0096823920999991996071918004-03700-040350FM-12+008399999V0201801N00211045001CN0200001N1+03271+01601101041ADDAA106000091AG10000GF105991031021008001011001MA1999999100021MD1999999-0121REMSYN011 333 59012;
0150823920999991996072000004-03700-040350FM-12+008399999V0200501N00261220001CN9999999N9+02421+01971101221ADDAA106000091AG10000GA1001+999999999GF100991001001999999001001KA1240M+03281MA1999999100261MD1999999-0031REMSYN017 333 10328 59003;EQDQ01+000002VOVAR 
0115823920999991996072012004-03700-040350FM-12+008399999V0201801N00361007501CN0200001N1+02541+02131101331ADDAA106000091AG10000GF107991061051008001031001KA1240N+02081MA1999999100301MD1999999-0161REMSYN017 333 20208 59016;
0115823920999991996072112004-03700-040350FM-12+008399999V0202301N00051220001CN0200001N1+02701+01991101281ADDAA106000091AG10000GF102991021011008001001001KA1240N+02041MA1999999100261MD1999999-0041REMSYN017 333 20204 59004;
0096823920999991996072118004-03700-040350FM-12+008399999V0200901N00151045001CN0200001N1+03341+01911100951ADDAA106000091AG10000GF106991041021008001031001MA1999999099931MD1999999-0041REMSYN011 333 59004;
0115823920999991996072212004-03700-040350FM-12+008399999V0201401N00261007501CN0200001N1+02761+02191101391ADDAA106000091AG10000GF106991061021008001001001KA1240N+02171MA1999999100371MD1999999+0111REMSYN017 333 20217 58011;
0096823920999991996072218004-03700-040350FM-12+008399999V0201401N00101045001CN0200001N1+03401+01891100931ADDAA106000091AG10000GF106991021021008001011011MA1999999099911MD1999999-0021REMSYN011 333 59002;
0162823920999991996072300004-03700-040350FM-12+008399999V0200501N00361045001CN9999999N9+02461+02321101251ADDAA106008091AG10005AY161061AY261061GF106991031061004501031001KA1240M+03491MA1999999100231MD1999999+0071MW1021REMSYN023 333 10349 58007 60081;EQDQ01+000002VOVAR 
0121823920999991996072312004-03700-040350FM-12+008399999V0200901N00361004201CN0200001N1+02711+02201101431ADDAA124008091AG10000GF105991051021004501001001KA1240N+02271MA1999999100411MD1999999+0041REMSYN023 333 20227 58004 60084;
0096823920999991996072318004-03700-040350FM-12+008399999V0201401N00261045001CN0200001N1+03341+01831100941ADDAA106000091AG10000GF106991031041008001031011MA1999999099921MD1999999+0011REMSYN011 333 58001;
0115823920999991996072412004-03700-040350FM-12+008399999V0201401N00211220001CN0200001N1+02741+01891101441ADDAA106000091AG10000GF104991021021008001031011KA1240N+02201MA1999999100421MD1999999+0011REMSYN017 333 20220 58001;
0115823920999991996072512004-03700-040350FM-12+008399999V0201401N00211220001CN0200001N1+02681+01861101411ADDAA106000091AG10000GF102991021021008001001001KA1240N+02311MA1999999100391MD1999999-0031REMSYN017 333 20231 59003;
0096823920999991996072518004-03700-040350FM-12+008399999V0200901N00511220001CN0200001N1+03331+01651100871ADDAA106000091AG10000GF102991021021008001001001MA1999999099861MD1999999-0191REMSYN011 333 59019;
0096823920999991996072618004-03700-040350FM-12+008399999V0200901N00261007501CN0200001N1+03121+01851100991ADDAA106000091AG10000GF107991051051008001031001MA1999999099971MD1999999+0111REMSYN011 333 58011;
0085823920999991996072718004-03700-040350FM-12+008399999V0201801N003610042019N0200001N1+03141+01911100991ADDAG10000GF106991051051004501031001MA1999999099971MD1999999+0001REMSYN011 333 58000;
0150823920999991996072900004-03700-040350FM-12+008399999V0209991C00001220001CN9999999N9+02431+01861101321ADDAA106000091AG10000GA1001+999999999GF100991001001999999001001KA1240M+03141MA1999999100301MD1999999+0021REMSYN017 333 10314 58002;EQDQ01+000002VOVAR 
0115823920999991996072912004-03700-040350FM-12+008399999V0200901N00361220001CN0200001N1+02721+01981101451ADDAA106000091AG10000GF102991021011004501001001KA1240N+01971MA1999999100431MD1999999+0031REMSYN017 333 20197 58003;
0096823920999991996072918004-03700-040350FM-12+008399999V0200501N00311220001CN0200001N1+03391+01751100921ADDAA106000091AG10000GF104991031021008001031011MA1999999099901MD1999999-0101REMSYN011 333 59010;
0115823920999991996073012004-03700-040350FM-12+008399999V0201401N00211007501CN0200001N1+02781+02061101461ADDAA106000091AG10000GF106991061021008001001001KA1240N+02111MA1999999100441MD1999999+0011REMSYN017 333 20211 58001;
0115823920999991996073112004-03700-040350FM-12+008399999V0200901N00211220001CN0200001N1+02761+02121101421ADDAA106000091AG10000GF104991041021008001001001KA1240N+02331MA1999999100001MD1999999-0041REMSYN017 333 20233 59004;
0096823920999991996073118004-03700-040350FM-12+008399999V0201401N00211007501CN0200001N1+03351+01631100951ADDAA106000091AG10000GF105991051021008001001001MA1999999099931MD1999999+0001REMSYN011 333 58000;
0096823920999991996080118004-03700-040350FM-12+008399999V0200901N00151220001CN0200001N1+03511+01481100891ADDAA106000091AG10000GF102991021021008001001001MA1999999099871MD1999999-0061REMSYN011 333 59006;
0096823920999991996080218004-03700-040350FM-12+008399999V0200901N00461007501CN0200001N1+03441+01841100971ADDAA106000091AG10000GF106991061021008001001001MA1999999099951MD1999999+0081REMSYN011 333 58008;
0134823920999991996080300004-03700-040350FM-12+008399999V0203601N00261220001CN9999999N9+02601+02031101341ADDAA106000091AG10000GF102991999999999999999999KA1240M+03461MA1999999100321MD1999999+0121REMSYN017 333 10346 58012;EQDQ01+000002VOVAR 
0115823920999991996080312004-03700-040350FM-12+008399999V0200901N00411004201CN0200001N1+02631+02071101591ADDAA106000091AG10000GF107991061041004501011001KA1240N+02211MA1999999100561MD1999999+0121REMSYN017 333 20221 58012;
0096823920999991996080318004-03700-040350FM-12+008399999V0200901N00461007501CN0200001N1+03151+01871101171ADDAA106000091AG10000GF107991051041008001011001MA1999999100151MD1999999+0201REMSYN011 333 58020;
0096823920999991996080518004-03700-040350FM-12+008399999V0201801N00461220001CN0200001N1+03381+01331100871ADDAA106000091AG10000GF102991021011004501001001MA1999999099851MD1999999-0341REMSYN011 333 59034;
0096823920999991996080618004-03700-040350FM-12+008399999V0200901N00361007501CN0200001N1+03481+01471100811ADDAA106000091AG10000GF105991051021008001001001MA1999999099791MD1999999-0061REMSYN011 333 59006;
0096823920999991996080718004-03700-040350FM-12+008399999V0200901N00461045001CN0200001N1+03421+01511100921ADDAA106000091AG10000GF105991031021004501031001MA1999999099901MD1999999+0111REMSYN011 333 58011;
0115823920999991996080812004-03700-040350FM-12+008399999V0200901N00311004201CN0200001N1+02781+01961101351ADDAA106000091AG10000GF106991061021004501001001KA1240N+01941MA1999999100331MD1999999+0121REMSYN017 333 20194 58012;
0096823920999991996080818004-03700-040350FM-12+008399999V0200901N00311220001CN0200001N1+03481+01571100851ADDAA106000091AG10000GF104991041021008001001001MA1999999099831MD1999999-0071REMSYN011 333 59007;
0150823920999991996080900004-03700-040350FM-12+008399999V0203601N00411220001CN9999999N9+02541+01951101221ADDAA106000091AG10000GA1001+999999999GF100991001001999999001001KA1240M+03561MA1999999100201MD1999999+0031REMSYN017 333 10356 58003;EQDQ01+000002VOVAR 
0115823920999991996080912004-03700-040350FM-12+008399999V0201801N00361004201CN0200001N1+02581+02231101271ADDAA106000091AG10000GF108991051051004501021999KA1240N+02041MA1999999100251MD1999999-0081REMSYN017 333 20204 59008;
0096823920999991996080918004-03700-040350FM-12+008399999V0200901N00101045001CN0200001N1+03521+01701100741ADDAA106000091AG10000GF105991041051008001021001MA1999999099711MD1999999-0121REMSYN011 333 59012;
0115823920999991996081012004-03700-040350FM-12+008399999V0200901N00261045001CN0200001N1+02781+02041101341ADDAA106000091AG10000GF105991041021008001031001KA1240N+02071MA1999999100321MD1999999+0071REMSYN017 333 20207 58007;
0096823920999991996081018004-03700-040350FM-12+008399999V0201401N00311220001CN0200001N1+03421+01611100901ADDAA106000091AG10000GF104991041021008001001001MA1999999099881MD1999999+0171REMSYN011 333 58017;
0115823920999991996081112004-03700-040350FM-12+008399999V0200901N00261220001CN0200001N1+02841+01881101321ADDAA106000091AG10000GF101991011011004501001001KA1240N+02081MA1999999100301MD1999999-0021REMSYN017 333 20208 59002;
0115823920999991996081312004-03700-040350FM-12+008399999V0200901N00461045001CN0200001N1+02761+02141101481ADDAA106000091AG10000GF106991041041004501031001KA1240N+01961MA1999999100451MD1999999+0041REMSYN017 333 20196 58004;
0096823920999991996081318004-03700-040350FM-12+008399999V0200901N00261220001CN0200001N1+03561+01311100871ADDAA106000091AG10000GF102991021011008001001001MA1999999099851MD1999999-0121REMSYN011 333 59012;
0150823920999991996081400004-03700-040350FM-12+008399999V0203601N00261220001CN9999999N9+02641+01861101231ADDAA106000091AG10000GA1001+999999999GF100991001001999999001001KA1240M+03561MA1999999100211MD1999999-0061REMSYN017 333 10356 59006;EQDQ01+000002VOVAR 
0115823920999991996081412004-03700-040350FM-12+008399999V0200901N00461220001CN0200001N1+02741+02101101381ADDAA106000091AG10000GF103991021021004501031001KA1240N+02041MA1999999100361MD1999999-0091REMSYN017 333 20204 59009;
0096823920999991996081418004-03700-040350FM-12+008399999V0200501N00151220001CN0200001N1+03501+01141100851ADDAA106000091AG10000GF102991021021004501001001MA1999999099841MD1999999-0011REMSYN011 333 59001;
0115823920999991996081512004-03700-040350FM-12+008399999V0200901N00311045001CN0200001N1+02771+01991101441ADDAA106000091AG10000GF106991041021008001031001KA1240N+02041MA1999999100421MD1999999+0061REMSYN017 333 20204 58006;
0096823920999991996081518004-03700-040350FM-12+008399999V0201801N00511220001CN0200001N1+03421+01511100891ADDAA106000091AG10000GF104991041021008001001001MA1999999099871MD1999999+0031REMSYN011 333 58003;
0115823920999991996081612004-03700-040350FM-12+008399999V0201801N00211220001CN0200001N1+02741+02021101321ADDAA106000091AG10000GF102991021021004501001001KA1240N+02161MA1999999100301MD1999999-0121REMSYN017 333 20216 59012;
0096823920999991996081718004-03700-040350FM-12+008399999V0200901N00151045001CN0200001N1+03431+01781100881ADDAA106000091AG10000GF106991041021008001011001MA1999999099871MD1999999-0101REMSYN011 333 59010;
0096823920999991996081918004-03700-040350FM-12+008399999V0201401N00261004201CN0200001N1+03101+01841101081ADDAA106000091AG10000GF106991051041004501031001MA1999999100061MD1999999-0081REMSYN011 333 59008;
0096823920999991996082018004-03700-040350FM-12+008399999V0200901N00261007501CN0200001N1+03401+01641100761ADDAA106000091AG10000GF105991051021008001001001MA1999999099751MD1999999-0311REMSYN011 333 59031;
0134823920999991996082100004-03700-040350FM-12+008399999V0200501N00511220001CN9999999N9+02631+02101101031ADDAA106000091AG10000GF102991011021008001031001KA1240M+03461MA1999999100011MD1999999-0081REMSYN017 333 10346 59008;EQDQ01+000002VOVAR 
0115823920999991996082112004-03700-040350FM-12+008399999V0201401N00311220001CN0200001N1+02721+01711101241ADDAA106000091AG10000GF102991021021004501001001KA1240N+02081MA1999999100221MD1999999-0051REMSYN017 333 20208 59005;
0096823920999991996082118004-03700-040350FM-12+008399999V0200501N00261220001CN0200001N1+03401+01401100761ADDAA106000091AG10000GF104991031021004501031001MA1999999099741MD1999999-0011REMSYN011 333 59001;
0115823920999991996082212004-03700-040350FM-12+008399999V0201801N00151220001CN0200001N1+02831+01941101281ADDAA106000091AG10000GF104991041021008001001001KA1240N+02181MA1999999100261MD1999999+0041REMSYN017 333 20218 58004;
0096823920999991996082218004-03700-040350FM-12+008399999V0203201N00101220001CN0200001N1+03491+01611100741ADDAA106000091AG10000GF104991041021008001001001MA1999999099731MD1999999-0011REMSYN011 333 59001;
0096823920999991996082318004-03700-040350FM-12+008399999V0200901N00151220001CN0200001N1+03521+01601100731ADDAA106000091AG10000GF104991031011008001001011MA1999999099721MD1999999-0011REMSYN011 333 59001;
0134823920999991996082400004-03700-040350FM-12+008399999V0203601N00311220001CN9999999N9+02711+01861101001ADDAA106000091AG10000GF102991021001012501031001KA1240M+03621MA1999999099981MD1999999-0091REMSYN017 333 10362 59009;EQDQ01+000002VOVAR 
0115823920999991996082412004-03700-040350FM-12+008399999V0200901N00311007501CN0200001N1+02701+01911101251ADDAA106000091AG10000GF106991061021008001001001KA1240N+02181MA1999999100231MD1999999-0051REMSYN017 333 20218 59005;
0096823920999991996082418004-03700-040350FM-12+008399999V0201401N00311220001CN0200001N1+03431+01411100671ADDAA106000091AG10000GF104991041021008001001001MA1999999099661MD1999999-0061REMSYN011 333 59006;
0115823920999991996082512004-03700-040350FM-12+008399999V0201401N00461220001CN0200001N1+02721+99999101211ADDAA106000091AG10000GF104991031021004501001011KA1240N+02161MA1999999100191MD1999999-0041REMSYN017 333 20216 59004;
0096823920999991996082518004-03700-040350FM-12+008399999V0201401N00101220001CN0200001N1+03381+01571100721ADDAA106000091AG10000GF103991031021004501001001MA1999999099701MD1999999+0041REMSYN011 333 58004;
0096823920999991996082618004-03700-040350FM-12+008399999V0201401N00311004201CN0200001N1+03361+01561100691ADDAA106000091AG10000GF107991051051004501031001MA1999999099681MD1999999-0221REMSYN011 333 59022;
0096823920999991996082718004-03700-040350FM-12+008399999V0201401N00621045001CN0200001N1+03401+01591100761ADDAA106000091AG10000GF106991021021008001031001MA1999999099751MD1999999+0071REMSYN011 333 58007;
0150823920999991996082800004-03700-040350FM-12+008399999V0203601N00311220001CN9999999N9+02691+01921101121ADDAA106000091AG10000GA1001+999999999GF100991001001999999001001KA1240M+03461MA1999999100101MD1999999+0081REMSYN017 333 10346 58008;EQDQ01+000002VOVAR 
0115823920999991996082812004-03700-040350FM-12+008399999V0200901N00411220001CN0200001N1+02781+02091101371ADDAA106000091AG10000GF104991031021004501001011KA1240N+02101MA1999999100351MD1999999+0131REMSYN017 333 20210 58013;
0096823920999991996082818004-03700-040350FM-12+008399999V0200901N00151220001CN0200001N1+03601+01571100741ADDAA106000091AG10000GF102991021011004501001001MA1999999099731MD1999999-0021REMSYN011 333 59002;
0115823920999991996082912004-03700-040350FM-12+008399999V0200901N00261007501CN0200001N1+02791+02091101301ADDAA106000091AG10000GF107991051051008001031001KA1240N+02381MA1999999100281MD1999999-0071REMSYN017 333 20238 59007;
0096823920999991996082918004-03700-040350FM-12+008399999V0200501N00311045001CN0200001N1+03441+01761100711ADDAA106000091AG10000GF106991041021008001031001MA1999999099701MD1999999-0031REMSYN011 333 59003;
0096823920999991996083018004-03700-040350FM-12+008399999V0200901N00261220001CN0200001N1+03541+01461100701ADDAA106000091AG10000GF102991011011008001031001MA1999999099691MD1999999-0011REMSYN011 333 59001;
0115823920999991996083112004-03700-040350FM-12+008399999V0200901N00511220001CN0200001N1+02921+01831101241ADDAA106000091AG10000GF102991011011008001011001KA1240N+02161MA1999999100221MD1999999-0071REMSYN017 333 20216 59007;
0096823920999991996083118004-03700-040350FM-12+008399999V0200901N00461220001CN0200001N1+03541+00901100761ADDAA106000091AG10000GF104991011011008001001011MA1999999099751MD1999999-0061REMSYN011 333 59006;
0115823920999991996090212004-03700-040350FM-12+008399999V0201401N00311045001CN0200001N1+02801+01951101361ADDAA106000091AG10000GF106991041021004501031001KA1240N+02101MA1999999100341MD1999999+0171REMSYN017 333 20210 58017;
0096823920999991996090218004-03700-040350FM-12+008399999V0200501N00571220001CN0200001N1+03481+01121100751ADDAA106000091AG10000GF103991031021004501001001MA1999999099741MD1999999-0041REMSYN011 333 59004;
0096823920999991996090318004-03700-040350FM-12+008399999V0200501N00671220001CN0200001N1+03591+01501100481ADDAA106000091AG10000GF102991021011008001001001MA1999999099481MD1999999-0261REMSYN011 333 59026;
0150823920999991996090500004-03700-040350FM-12+008399999V0203601N00361220001CN9999999N9+02621+01911100911ADDAA106000091AG10000GA1001+999999999GF100991001001999999001001KA1240M+03531MA1999999099891MD1999999+0021REMSYN017 333 10353 58002;EQDQ01+000002VOVAR 
0115823920999991996090512004-03700-040350FM-12+008399999V0200901N00311007501CN0200001N1+02861+01871101121ADDAA106000091AG10000GF105991051021008001001001KA1240N+01981MA1999999100101MD1999999+0111REMSYN017 333 20198 58011;
0096823920999991996090518004-03700-040350FM-12+008399999V0200501N00361220001CN0200001N1+03531+01051100571ADDAA106000091AG10000GF102991021011008001001001MA1999999099561MD1999999-0041REMSYN011 333 59004;
0096823920999991996090618004-03700-040350FM-12+008399999V0200501N00511220001CN0200001N1+03601+01161100471ADDAA106000091AG10000GF101991011011008001001001MA1999999099471MD1999999-0091REMSYN011 333 59009;
0150823920999991996090900004-03700-040350FM-12+008399999V0203601N00461220001CN9999999N9+02661+02091100971ADDAA106000091AG10000GA1001+999999999GF100991001001999999001001KA1240M+03581MA1999999099951MD1999999+0151REMSYN017 333 10358 58015;EQDQ01+000002VOVAR 
0115823920999991996090912004-03700-040350FM-12+008399999V0200901N00771220001CN0200001N1+03021+01961101151ADDAA106000091AG10000GF103991021021004501031001KA1240N+02311MA1999999100131MD1999999+0121REMSYN017 333 20231 58012;
0115823920999991996090913004-03700-040350FM-12+008399999V0200901N00771220001CN0000001N1+03021+01961101151ADDAA106000091AG10999GF103991021021004501031001KA1240N+02311MA1999999100131MD1999999+0121REMSYN017 333 20231 58012;
0150823920999991996091000004-03700-040350FM-12+008399999V0203601N00411220001CN9999999N9+02721+02001101141ADDAA106000091AG10000GA1001+999999999GF100991001001999999001001KA1240M+03531MA1999999100121MD1999999+0171REMSYN017 333 10353 58017;EQDQ01+000002VOVAR 
0115823920999991996091012004-03700-040350FM-12+008399999V0200901N00771220001CN0200001N1+02941+01851101381ADDAA106000091AG10000GF102991021021004501001001KA1240N+02441MA1999999100361MD1999999+0231REMSYN017 333 20244 58023;
0096823920999991996091018004-03700-040350FM-12+008399999V0201401N00211007501CN0200001N1+03561+01591100781ADDAA106000091AG10000GF105991051021008001001001MA1999999099771MD1999999+0051REMSYN011 333 58005;
0115823920999991996091112004-03700-040350FM-12+008399999V0200901N00721220001CN0200001N1+02881+01801101371ADDAA106000091AG10000GF101991011011004501001001KA1240N+02241MA1999999100351MD1999999-0011REMSYN017 333 20224 59001;
0096823920999991996091118004-03700-040350FM-12+008399999V0201401N00211220001CN0200001N1+03521+01451100861ADDAA106000091AG10000GF101991011011004501001001MA1999999099851MD1999999+0081REMSYN011 333 58008;
0150823920999991996091200004-03700-040350FM-12+008399999V0203601N00411220001CN9999999N9+02721+01711101161ADDAA106000091AG10000GA1001+999999999GF100991001001999999001001KA1240M+03591MA1999999100141MD1999999+0001REMSYN017 333 10359 58000;EQDQ01+000002VOVAR 
0096823920999991996091218004-03700-040350FM-12+008399999V0200901N00361007501CN0200001N1+03451+01481100711ADDAA106000091AG10000GF105991051021008001001001MA1999999099701MD1999999-0151REMSYN011 333 59015;
0096823920999991996091318004-03700-040350FM-12+008399999V0201401N00261220001CN0200001N1+03551+01521100691ADDAA106000091AG10000GF104991041021008001001001MA1999999099681MD1999999-0021REMSYN011 333 59002;
0115823920999991996091412004-03700-040350FM-12+008399999V0200901N00151045001CN0200001N1+02831+01611101281ADDAA106000091AG10000GF106991011011008001031001KA1240N+02291MA1999999100261MD1999999-0061REMSYN017 333 20229 59006;
0150823920999991996091700004-03700-040350FM-12+008399999V0203601N00311220001CN9999999N9+02641+02071101071ADDAA106000091AG10000GA1001+999999999GF100991001001999999001001KA1240M+03531MA1999999100051MD1999999+0031REMSYN017 333 10353 58003;EQDQ01+000002VOVAR 
0115823920999991996091712004-03700-040350FM-12+008399999V0200901N00361004201CN0200001N1+02801+02221101321ADDAA106000091AG10000GF107991051051004501031001KA1240N+02341MA1999999100301MD1999999+0091REMSYN017 333 20234 58009;
0096823920999991996091718004-03700-040350FM-12+008399999V0200501N00671004201CN0200001N1+03081+01981100861ADDAA106000091AG10000GF106991051061004501031001MA1999999099841MD1999999+0071REMSYN011 333 58007;
0115823920999991996091812004-03700-040350FM-12+008399999V0200901N00461004201CN0200001N1+02901+02041101371ADDAA106000091AG10000GF106991051021004501031001KA1240N+02251MA1999999100351MD1999999+0051REMSYN017 333 20225 58005;
0096823920999991996091818004-03700-040350FM-12+008399999V0200501N00361220001CN0200001N1+03541+01411100901ADDAA106000091AG10000GF102991021021004501001001MA1999999099891MD1999999+0051REMSYN011 333 58005;
0150823920999991996091900004-03700-040350FM-12+008399999V0203601N00511220001CN9999999N9+02641+01981101271ADDAA106000091AG10000GA1001+999999999GF100991001001999999001001KA1240M+03591MA1999999100351MD1999999+0051REMSYN017 333 10359 58005;EQDQ01+000002VOVAR 
0115823920999991996091912004-03700-040350FM-12+008399999V0200901N00511045001CN0200001N1+02831+01801101441ADDAA106000091AG10000GF105991021011008001011001KA1240N+02171MA1999999100421MD1999999+0071REMSYN017 333 20217 58007;
0096823920999991996091918004-03700-040350FM-12+008399999V0200901N00261220001CN0200001N1+03671+01141100821ADDAA106000091AG10000GF102991011011008001001011MA1999999099811MD1999999-0081REMSYN011 333 59008;
0096823920999991996092018004-03700-040350FM-12+008399999V0200501N00361220001CN0200001N1+03701+01431100761ADDAA106000091AG10000GF104991031021004501001011MA1999999099761MD1999999-0061REMSYN011 333 59006;
0150823920999991996092100004-03700-040350FM-12+008399999V0203601N00361220001CN9999999N9+02641+02071101121ADDAA106000091AG10000GA1001+999999999GF100991001001999999001001KA1240M+03741MA1999999100101MD1999999-0031REMSYN017 333 10374 59003;EQDQ01+000002VOVAR 
0115823920999991996092112004-03700-040350FM-12+008399999V0201401N00101220001CN0200001N1+02901+01871101231ADDAA106000091AG10000GF102991021021004501001001KA1240N+02161MA1999999100211MD1999999-0021REMSYN017 333 20216 59002;
0096823920999991996092118004-03700-040350FM-12+008399999V0200501N00621220001CN0200001N1+03641+00981100711ADDAA106000091AG10000GF101991011011008001001001MA1999999099701MD1999999-0051REMSYN011 333 59005;
0115823920999991996092312004-03700-040350FM-12+008399999V0201401N00151045001CN0200001N1+02861+02061101271ADDAA106000091AG10000GF105991031021004501031001KA1240N+02381MA1999999100251MD1999999-0171REMSYN017 333 20238 59017;
0096823920999991996092318004-03700-040350FM-12+008399999V0203601N00151220001CN0200001N1+03621+01301100661ADDAA106000091AG10000GF102991021021004501001001MA1999999099651MD1999999-0181REMSYN011 333 59018;
0115823920999991996092412004-03700-040350FM-12+008399999V0200901N00411220001CN0200001N1+02981+02151101181ADDAA106000091AG10000GF103991031021004501001001KA1240N+02371MA1999999100161MD1999999-0091REMSYN017 333 20237 59009;
0096823920999991996092418004-03700-040350FM-12+008399999V0201401N00261220001CN0200001N1+03681+01531100621ADDAA106000091AG10000GF102991021021004501001001MA1999999099621MD1999999-0031REMSYN011 333 59003;
0150823920999991996092700004-03700-040350FM-12+008399999V0203601N00361220001CN9999999N9+02661+02161101021ADDAA106000091AG10000GA1001+999999999GF100991001001999999001001KA1240M+03571MA1999999100001MD1999999-0041REMSYN017 333 10357 59004;EQDQ01+000002VOVAR 
0115823920999991996092712004-03700-040350FM-12+008399999V0200901N00621220001CN0200001N1+02901+02041101181ADDAA106000091AG10000GF103991031021004501001001KA1240N+02281MA1999999100161MD1999999-0061REMSYN017 333 20228 59006;
0096823920999991996092718004-03700-040350FM-12+008399999V0200901N00311220001CN0200001N1+03621+01531100551ADDAA106000091AG10000GF102991021021004501001001MA1999999099551MD1999999-0171REMSYN011 333 59017;
0115823920999991996093012004-03700-040350FM-12+008399999V0200901N00151220001CN0200001N1+02921+02121101401ADDAA106000091AG10000GF104991031021004501001011KA1240N+02381MA1999999100381MD1999999+0081REMSYN017 333 20238 58008;
0096823920999991996093018004-03700-040350FM-12+008399999V0201401N00261220001CN0200001N1+03621+01591100811ADDAA106000091AG10000GF102991021021004501001001MA1999999099801MD1999999+0001REMSYN011 333 58000;
0150823920999991996100100004-03700-040350FM-12+008399999V0203601N00411220001CN9999999N9+02681+01971101131ADDAA106000091AG10000GA1001+999999999GF100991001001999999001001KA1240M+03671MA1999999100111MD1999999-0031REMSYN017 333 10367 59003;EQDQ01+000002VOVAR 
0115823920999991996100112004-03700-040350FM-12+008399999V0200501N00361220001CN0200001N1+02861+02061101231ADDAA106000091AG10000GF102991021021004501001001KA1240N+02351MA1999999100211MD1999999-0171REMSYN017 333 20235 59017;
0096823920999991996100118004-03700-040350FM-12+008399999V0203601N00311220001CN0200001N1+03621+01481100581ADDAA106000091AG10000GF103991031021004501001001MA1999999099581MD1999999-0121REMSYN011 333 59012;
0115823920999991996100212004-03700-040350FM-12+008399999V0200501N004110450019N0200001N1+02881+01831101131ADDAA106000091AG10000GF105991041021004501031001KA1240N+02411MA1999999100111MD1999999-0101REMSYN017 333 20241 59010;
0096823920999991996100218004-03700-040350FM-12+008399999V0200501N00411220001CN0200001N1+03481+01571100611ADDAA106000091AG10000GF103991021011004501001011MA1999999099611MD1999999+0031REMSYN011 333 58003;
0150823920999991996100300004-03700-040350FM-12+008399999V0203601N00511220001CN9999999N9+02661+02201100971ADDAA106000091AG10000GA1001+999999999GF100991001001999999001001KA1240M+03571MA1999999099951MD1999999+0081REMSYN017 333 10357 58008;EQDQ01+000002VOVAR 
0115823920999991996100312004-03700-040350FM-12+008399999V0200501N00261045001CN0200001N1+02881+02161101121ADDAA106000091AG10000GF106991041041004501031001KA1240N+02381MA1999999100101MD1999999-0011REMSYN017 333 20238 59001;
0096823920999991996100318004-03700-040350FM-12+008399999V0203601N00311220001CN0200001N1+03581+01551100601ADDAA106000091AG10000GF104991031021004501031001MA1999999099601MD1999999-0011REMSYN011 333 59001;
0131823920999991996100400004-03700-040350FM-12+008399999V0203601N00571220001CN0200001N1+02681+02111100991ADDAA106000091AG10000GA1001+999999999GF100991001001999999001001KA1240M+03651MA1999999099971MD1999999+0021REMSYN017 333 10365 58002;
0115823920999991996100412004-03700-040350FM-12+008399999V0200501N00411045001CN0200001N1+02881+02031101251ADDAA106000091AG10000GF105991031021004501031001KA1240N+02231MA1999999100231MD1999999+0131REMSYN017 333 20223 58013;
0096823920999991996100418004-03700-040350FM-12+008399999V0200501N00411220001CN0200001N1+03521+01551100741ADDAA106000091AG10000GF104991031021004501001011MA1999999099731MD1999999+0131REMSYN011 333 58013;
0115823920999991996100512004-03700-040350FM-12+008399999V0200901N00571045001CN0200001N1+02821+01941101191ADDAA106000091AG10000GF106991041041004501031001KA1240N+02101MA1999999100171MD1999999-0061REMSYN017 333 20210 59006;
0096823920999991996100518004-03700-040350FM-12+008399999V0200901N00511004201CN0200001N1+03481+01361100651ADDAA106000091AG10000GF106991051021004501031001MA1999999099641MD1999999-0091REMSYN011 333 59009;
0150823920999991996100700004-03700-040350FM-12+008399999V0203601N00461220001CN9999999N9+02661+01951100891ADDAA106000091AG10000GA1001+999999999GF100991001001999999001001KA1240M+03551MA1999999099871MD1999999-0071REMSYN017 333 10355 59007;EQDQ01+000002VOVAR 
0115823920999991996100712004-03700-040350FM-12+008399999V0201401N00411015001CN0200001N1+02761+02021101121ADDAA106000091AG10000GF107991051051017501031001KA1240N+02161MA1999999100101MD1999999+0071REMSYN017 333 20216 58007;
0096823920999991996100718004-03700-040350FM-12+008399999V0200901N00821045001CN0200001N1+03421+01611100581ADDAA106000091AG10000GF106991041041004501031001MA1999999099571MD1999999+0001REMSYN011 333 58000;
0115823920999991996100912004-03700-040350FM-12+008399999V0200501N00511004201CN0200001N1+02881+02031101171ADDAA106000091AG10000GF107991051051004501031001KA1240N+02201MA1999999100151MD1999999-0051REMSYN017 333 20220 59005;
0096823920999991996100918004-03700-040350FM-12+008399999V0200901N00311045001CN0200001N1+03481+01521100681ADDAA106000091AG10000GF106991041041004501031001MA1999999099671MD1999999+0001REMSYN011 333 58000;
0115823920999991996101012004-03700-040350FM-12+008399999V0201401N00261007501CN0200001N1+02861+01871101111ADDAA106000091AG10000GF106991051021008001011001KA1240N+02321MA1999999100101MD1999999-0051REMSYN017 333 20232 59005;
0096823920999991996101018004-03700-040350FM-12+008399999V0201801N00101007501CN0200001N1+03521+01551100521ADDAA106000091AG10000GF106991051021008001031001MA1999999099521MD1999999-0151REMSYN011 333 59015;
0115823920999991996101112004-03700-040350FM-12+008399999V0201401N00361220001CN0200001N1+02971+01961100971ADDAA106000091AG10000GF102991021021004501001001KA1240N+02301MA1999999099951MD1999999-0051REMSYN017 333 20230 59005;
0096823920999991996101118004-03700-040350FM-12+008399999V0200501N00261220001CN0200001N1+03651+01501100371ADDAA106000091AG10000GF104991041021008001001001MA1999999099371MD1999999-0151REMSYN011 333 59015;
0134823920999991996101212004-03700-040350FM-12+008399999V0200901N00311007501CN0200001N1+03001+02051101001ADDAA106000091AG10000GF107991999021008001001001KA1240N+02481MA1999999099981MD1999999+0031REMSYN017 333 20248 58003;EQDQ01+000052SCOTLC
0096823920999991996101218004-03700-040350FM-12+008399999V0200501N00671007501CN0200001N1+03481+01961100391ADDAA106000091AG10000GF105991051021008001001001MA1999999099391MD1999999+0021REMSYN011 333 58002;
0096823920999991996101318004-03700-040350FM-12+008399999V0200901N00461220001CN0200001N1+03621+01741100451ADDAA106000091AG10000GF102991021021004501001001MA1999999099451MD1999999+0061REMSYN011 333 58006;
0115823920999991996101412004-03700-040350FM-12+008399999V0200901N00621045001CN0200001N1+02941+02001101141ADDAA106000091AG10000GF106991041041004501031001KA1240N+02221MA1999999100121MD1999999+0161REMSYN017 333 20222 58016;
0150823920999991996101500004-03700-040350FM-12+008399999V0203601N00461220001CN9999999N9+02621+02141100931ADDAA106000091AG10000GA1001+999999999GF100991001001999999001001KA1240M+03691MA1999999099911MD1999999+0051REMSYN017 333 10369 58005;EQDQ01+000002VOVAR 
0115823920999991996101512004-03700-040350FM-12+008399999V0200901N00211220001CN0200001N1+02801+02001101221ADDAA106000091AG10000GF104991031021004501031001KA1240N+02181MA1999999100201MD1999999+0081REMSYN017 333 20218 58008;
0096823920999991996101518004-03700-040350FM-12+008399999V0200901N00211220001CN0200001N1+03631+01531100601ADDAA106000091AG10000GF104991041021008001001001MA1999999099601MD1999999+0091REMSYN011 333 58009;
0115823920999991996101612004-03700-040350FM-12+008399999V0200901N00211045001CN0200001N1+02781+02011101141ADDAA106000091AG10000GF106991041041004501031001KA1240N+02221MA1999999100121MD1999999-0081REMSYN017 333 20222 59008;
0096823920999991996101618004-03700-040350FM-12+008399999V0200901N00151220001CN0200001N1+03521+01651100601ADDAA106000091AG10000GF103991031021004501001001MA1999999099601MD1999999+0001REMSYN011 333 58000;
0121823920999991996101712004-03700-040350FM-12+008399999V0200901N00211004201CN0100001N1+02701+02171101181ADDAA124000591AG10000GF107991051061004501011001KA1240N+02491MA1999999100161MD1999999+0041REMSYN023 333 20249 58004 69944;
0096823920999991996101718004-03700-040350FM-12+008399999V0200501N00721220001CN0200001N1+03451+01881100581ADDAA106000091AG10000GF105991041021008001001011MA1999999099581MD1999999-0021REMSYN011 333 59002;
0134823920999991996101800004-03700-040350FM-12+008399999V0203601N00311220001CN9999999N9+02521+02231100881ADDAA106000091AG10000GF103991021001008001031011KA1240M+03501MA1999999099861MD1999999-0101REMSYN017 333 10350 59010;EQDQ01+000002VOVAR 
0115823920999991996101812004-03700-040350FM-12+008399999V0200901N00261045001CN0200001N1+03001+01841101141ADDAA106000091AG10000GF105991041041004501031001KA1240N+02211MA1999999100121MD1999999-0041REMSYN017 333 20221 59004;
0096823920999991996101818004-03700-040350FM-12+008399999V0200901N00411220001CN0200001N1+03541+01461100501ADDAA106000091AG10000GF104991031021008001001011MA1999999099501MD1999999-0081REMSYN011 333 59008;
