0105825640999991996010108004-05533-047450FM-15+0131SBIZ V0209999999999999999CN9999999N9+99999+99999999999ADDAG10999REMMET051NEW 4KT 7000 -RA SCT010 BKN015 BKN080 22/21 Q1011 ;EQDQ01+000002VOVAR Q02+000000PRSWM2
0124825640999991996010111004-05533-047450FM-15+0131SBIZ V0200111N05142999999CN9999999N9+99999+99999999999ADDAG10999REMMET054NEW 0KT 9999 BKN010 OVC080 22/22 THE MESSAGE CONTINUE;EQDQ01+005143WOSPD Q02+000002VOVAR Q03+000000PRSWM2
0114825640999991996010112004-05533-047450FM-15+0131SBIZ V0200111N99999999999CN9999999N9+99999+99999999999ADDAG10000REMMET044NEW 0KT 9999 FEW010 BKN016 BKN080 24/22 Q101EQDQ01+010291WOSPD Q02+000002VOVAR Q03+000000PRSWM2
0110825640999991996010113004-05533-047450FM-15+0131SBIZ V0200111N99999999999CN9999999N9+99999+99999999999ADDAG10999REMMET040NEW 0KT 9999 SCT016 SCT300 26/23 Q1014 ;EQDQ01+015431WOSPD Q02+000002VOVAR Q03+000000PRSWM2
0098825640999991996010114004-05533-047450FM-15+0131SBIZ V0209999999999999999CN9999999N9+99999+99999999999ADDAG10999REMMET044NEW 0KT 9999 FEW020 SCT090 BKN300 27/23 Q101EQDQ01+000002VOVAR Q02+000000PRSWM2
0094825640999991996010116004-05533-047450FM-15+0131SBIZ V0209999999999999999CN9999999N9+99999+99999999999ADDAG10999REMMET040NEW 5KT 9999 SCT020 BKN100 31/24 Q1011 ;EQDQ01+000002VOVAR Q02+000000PRSWM2
0094825640999991996010117004-05533-047450FM-15+0131SBIZ V0209999999999999999CN9999999N9+99999+99999999999ADDAG10999REMMET040NEW 5KT 9999 SCT020 BKN100 31/23 Q1010 ;EQDQ01+000002VOVAR Q02+000000PRSWM2
0126825640999991996010118004-05533-047450SY-MT+0131SBIZ V0209991C000010075019N0200001N1+03111+02281999999ADDAA106000091AG10000GF107991071051008001001001REMSYN005 333;MET040NEW 5KT 9999 FEW020 BKN100 32/23 Q1010 ;EQDQ01+000000PRSWM2
0094825640999991996010119004-05533-047450FM-15+0131SBIZ V0209999999999999999CN9999999N9+99999+99999999999ADDAG10999REMMET040NEW 0KT 9999 FEW020 BKN100 31/24 Q1009 ;EQDQ01+000002VOVAR Q02+000000PRSWM2
0110825640999991996010122004-05533-047450FM-15+0131SBIZ V0200121N99999999999CN9999999N9+99999+99999999999ADDAG10999REMMET040NEW 0KT 9999 FEW020 SCT100 28/24 Q1009 ;EQDQ01+010291WOSPD Q02+000002VOVAR Q03+000000PRSWM2
0080825640999991996010200004-05533-047450FM-12+0131SBIZ V0209991C000010450019N0200001N1+02691+02501999999ADDAA106000091AG10000GF106991041021008001031001KA1999M+03131REMSYN011 333 10313;
0081825640999991996010209004-05533-047450FM-15+0131SBIZ V0209999999999999999CN9999999N9+99999+99999999999ADDAG10000REMMET027NEW 0KT CAVOK 25/24 Q1010 ;EQDQ01+000002VOVAR Q02+000000PRSWM2
0086825640999991996010210004-05533-047450FM-15+0131SBIZ V0209991C00001999999CN9999999N9+99999+99999999999ADDAG10999REMMET032NEW 0KT 9999 FEW015 BKN100 25/24EQDQ01+000002VOVAR Q02+000000PRSWM2
0080825640999991996010212004-05533-047450FM-12+0131SBIZ V0200901N00151045001CN0200001N1+02791+02501999999ADDAA106000091AG10000GF106991021011008001031001KA1999N+02461REMSYN011 333 20246;
0086825640999991996010214004-05533-047450FM-15+0131SBIZ V0209999999999999999CN9999999N9+99999+99999999999ADDAG10999REMMET032NEW 0KT 9999 SCT020 31/23 Q1013;EQDQ01+000002VOVAR Q02+000000PRSWM2
0086825640999991996010215004-05533-047450FM-15+0131SBIZ V0209999999999999999CN9999999N9+99999+99999999999ADDAG10000REMMET032NEW 6KT 9999 BKN020 32/23 Q1011;EQDQ01+000002VOVAR Q02+000000PRSWM2
0086825640999991996010216004-05533-047450FM-15+0131SBIZ V0209999999999999999CN9999999N9+99999+99999999999ADDAG10999REMMET032NEW 6KT 9999 FEW015 BKN020 32/23EQDQ01+000002VOVAR Q02+000000PRSWM2
0086825640999991996010217004-05533-047450FM-15+0131SBIZ V0209999999999999999CN9999999N9+99999+99999999999ADDAG10999REMMET032NEW 8KT 9999 BKN020 32/23 Q1009;EQDQ01+000002VOVAR Q02+000000PRSWM2
0061825640999991996010218004-05533-047450FM-12+0131SBIZ V0200901N001510075019N0200001N1+03231+02311999999ADDAA106000091AG10000GF106991061011008001001001REMSYN005 333;
0124825640999991996010221004-05533-047450FM-15+0131SBIZ V0200221N99999999999CN9999999N9+99999+99999999999ADDAG10000REMMET054NEW 2KT 8000 VCSH SCT020 FEW023CB BKN300 31/23 Q1008 ;EQDQ01+005143WOSPD Q02+000002VOVAR Q03+000000PRSWM2
0106825640999991996010222004-05533-047450FM-15+0131SBIZ V0200301N00261090001CN0112651N1+03001+02301999999ADDAG10999GA1021+006009999GA2021+030009999GA3071+090009999MA1100811999999REMMET005NEW ;EQDQ01+000000PRSWM2
0096825640999991996010300004-05533-047450FM-12+0131SBIZ V0200501N00101220001CN0200001N1+02611+02231999999ADDAA106000091AG10000GA1001+999999999GF100991001001999999001001KA1999M+03351REMSYN011 333 10335;
0061825640999991996010301004-05533-047450FM-15+0131SBIZ V0209991C00001999991CY0099001N1+02701+02201999999ADDAG10999MA1101081999999REMMET008NEW CAVOEQDQ01+000000PRSWM2
0097825640999991996010303004-05533-047450FM-15+0131SBIZ V0200301N99999999999CN9999999N9+99999+99999999999ADDAG10000REMMET027NEW 0KT CAVOK 24/23 Q1011 ;EQDQ01+015431WOSPD Q02+000002VOVAR Q03+000000PRSWM2
0081825640999991996010309004-05533-047450FM-15+0131SBIZ V0209999999999999999CN9999999N9+99999+99999999999ADDAG10000REMMET027NEW 0KT CAVOK 23/23 Q1010 ;EQDQ01+000002VOVAR Q02+000000PRSWM2
0081825640999991996010310004-05533-047450FM-15+0131SBIZ V0209991C00001999999CN9999999N9+99999+99999999999ADDAG10999REMMET027NEW 0KT CAVOK 23/23 Q1011 ;EQDQ01+000002VOVAR Q02+000000PRSWM2
0120825640999991996010311004-05533-047450FM-15+0131SBIZ V0200311N99999999999CN9999999N9+99999+99999999999ADDAG10999REMMET050NEW 9999 BKN023 SCT300 25/23 THE MESSAGE CONTINUE;EQDQ01+005143WOSPD Q02+000002VOVAR Q03+000000PRSWM2
0145825640999991996010312004-05533-047450SY-MT+0131SBIZ V0200501N00261007501CN0200001N1+02791+02381999999ADDAA106000091AG10000GF108991081071008001999999KA1999N+02341REMSYN011 333 20234;MET040NEW 8KT 9999 SCT023 SCT300 27/23 Q1013 ;EQDQ01+000000PRSWM2
0110825640999991996010313004-05533-047450FM-15+0131SBIZ V0200311N99999999999CN9999999N9+99999+99999999999ADDAG10999REMMET040NEW 8KT 9999 BKN020 SCT300 29/24 Q1013 ;EQDQ01+015431WOSPD Q02+000002VOVAR Q03+000000PRSWM2
0104825640999991996010315004-05533-047450FM-15+0131SBIZ V0209999999999999999CN9999999N9+99999+99999999999ADDAG10000REMMET050NEW 7KT 9999 SCT020 FEW023TCU BKN300 32/23 Q1012 ;EQDQ01+000002VOVAR Q02+000000PRSWM2
0094825640999991996010316004-05533-047450FM-15+0131SBIZ V0209999999999999999CN9999999N9+99999+99999999999ADDAG10999REMMET040NEW 0KT 9999 SCT020 BKN300 32/22 Q1011 ;EQDQ01+000002VOVAR Q02+000000PRSWM2
0094825640999991996010317004-05533-047450FM-15+0131SBIZ V0209999999999999999CN9999999N9+99999+99999999999ADDAG10999REMMET040NEW 0KT 9999 SCT020 BKN300 32/23 Q1010 ;EQDQ01+000002VOVAR Q02+000000PRSWM2
0061825640999991996010318004-05533-047450FM-12+0131SBIZ V0201401N00151220001CN0200001N1+03191+02351999999ADDAA106000091AG10000GF104991041021008001001001REMSYN005 333;
0125825640999991996010318004-05533-047450SY-MT+0131SBIZ V0201401N00151220001CN0200001N1+03191+02351999999ADDAA106000091AG10000GF104991041021008001001001REMSYN005 333;MET039NEW 6KT 9999 SCT020 BKN300 32/23 1009 ;EQDQ01+000000PRSWM2
0094825640999991996010319004-05533-047450FM-15+0131SBIZ V0209999999999999999CN9999999N9+99999+99999999999ADDAG10999REMMET040NEW 7KT 9999 SCT020 BKN300 32/23 Q1008 ;EQDQ01+000002VOVAR Q02+000000PRSWM2
0094825640999991996010320004-05533-047450FM-15+0131SBIZ V0209991C00001999999CN9999999N9+99999+99999999999ADDAG10999REMMET040NEW 3KT 9999 SCT020 BKN300 31/23 Q1007 ;EQDQ01+000002VOVAR Q02+000000PRSWM2
0110825640999991996010321004-05533-047450FM-15+0131SBIZ V0200321N99999999999CN9999999N9+99999+99999999999ADDAG10000REMMET040NEW 0KT 9999 SCT020 BKN300 30/23 Q1008 ;EQDQ01+005143WOSPD Q02+000002VOVAR Q03+000000PRSWM2
0086825640999991996010400004-05533-047450FM-12+0131SBIZ V0209991C000019999999N0200001N1+02351+02221999999ADDAA106000191AG10000GF106991061001008001071001KA1240M+03251REMSYN017 333 10325 69921;
0114825640999991996010411004-05533-047450FM-15+0131SBIZ V0200411N99999999999CN9999999N9+99999+99999999999ADDAG10999REMMET044NEW 0KT 9999 FEW020 BKN100 BKN300 25/24 Q101EQDQ01+005143WOSPD Q02+000002VOVAR Q03+000000PRSWM2
0155825640999991996010412004-05533-047450SY-MT+0131SBIZ V0209991C000010075019N0200001N1+02531+02311999999ADDAA124000191AG10000GF108991081051008001999999KA1240N+02321REMSYN017 333 20232 69924;MET044NEW 0KT 9999 FEW020 BKN100 BKN300 26/23 Q101EQDQ01+000000PRSWM2
0110825640999991996010416004-05533-047450FM-15+0131SBIZ V0209999999999999999CN9999999N9+99999+99999999999ADDAG10999REMMET056NEW 3KT 2500N TSRA SCT010 SCT030CB BKN100 24/23 Q1012 REEQDQ01+000002VOVAR Q02+000000PRSWM2
0109825640999991996010417004-05533-047450FM-15+0131SBIZ V0209999999999999999CN9999999N9+99999+99999999999ADDAG10999REMMET055NEW 1KT 9999 -TSRA SCT013 SCT033CB BKN100 24/23 Q1011 ;EQDQ01+000002VOVAR Q02+000000PRSWM2
0166825640999991996010418004-05533-047450SY-MT+0131SBIZ V0209991C000019999999N0200001N1+02501+02381999999ADDAA106032091AG10018AY191061AY261061GF108991081001008001071999MW1211REMSYN011 333 60321;MET052NEW 0KT 9999 SCT010 BKN100 OVC300 25/24 Q1010 RETS ;EQDQ01+000000PRSWM2
0061825640999991996010421004-05533-047450FM-15+0131SBIZ V0209991C00001999991CY0099001N1+02701+02401999999ADDAG10000MA1100911999999REMMET008NEW CAVOEQDQ01+000000PRSWM2
0061825640999991996010422004-05533-047450FM-15+0131SBIZ V0209991C00001999991CY0099001N1+02601+02301999999ADDAG10999MA1101021999999REMMET008NEW CAVOEQDQ01+000000PRSWM2
0080825640999991996010500004-05533-047450FM-12+0131SBIZ V0209991C000019999999N0200001N1+02471+02341999999ADDAA106000091AG10000GF107991071001008001011001KA1999M+03001REMSYN011 333 10300;
0086825640999991996010508004-05533-047450FM-15+0131SBIZ V0209999999999999999CN9999999N9+99999+99999999999ADDAG10999REMMET032NEW 3KT 9999 BKN009 24/23 Q1009;EQDQ01+000002VOVAR Q02+000000PRSWM2
0094825640999991996010509004-05533-047450FM-15+0131SBIZ V0209999999999999999CN9999999N9+99999+99999999999ADDAG10000REMMET040NEW 7KT 9999 BKN010 SCT080 24/23 Q1010 ;EQDQ01+000002VOVAR Q02+000000PRSWM2
0094825640999991996010510004-05533-047450FM-15+0131SBIZ V0209991C00001999999CN9999999N9+99999+99999999999ADDAG10999REMMET040NEW 0KT 9999 BKN010 BKN080 24/23 Q1012 ;EQDQ01+000002VOVAR Q02+000000PRSWM2
0114825640999991996010511004-05533-047450FM-15+0131SBIZ V0200511N99999999999CN9999999N9+99999+99999999999ADDAG10999REMMET044NEW 3KT 9999 SCT010 SCT015 BKN080 25/24 Q101EQDQ01+005143WOSPD Q02+000002VOVAR Q03+000000PRSWM2
0086825640999991996010512004-05533-047450FM-12+0131SBIZ V0203601N001510075019N0200001N1+02531+02321999999ADDAA124032091AG10000GF108991081071008001999999KA1240N+02341REMSYN017 333 20234 60324;
0114825640999991996010513004-05533-047450FM-15+0131SBIZ V0200511N99999999999CN9999999N9+99999+99999999999ADDAG10999REMMET044NEW 3KT 9999 SCT010 SCT017 BKN080 27/24 Q101EQDQ01+015431WOSPD Q02+000002VOVAR Q03+000000PRSWM2
0098825640999991996010514004-05533-047450FM-15+0131SBIZ V0209999999999999999CN9999999N9+99999+99999999999ADDAG10999REMMET044NEW 3KT 9999 FEW013 SCT017 BKN080 28/23 Q101EQDQ01+000002VOVAR Q02+000000PRSWM2
0106825640999991996010516004-05533-047450FM-15+0131SBIZ V0209991C00001090001CN0112651N1+03001+02401999999ADDAG10999GA1021+006009999GA2021+009009099GA3071+090009999MA1101081999999REMMET005NEW ;EQDQ01+000000PRSWM2
0106825640999991996010517004-05533-047450FM-15+0131SBIZ V0201701N00261090001CN0112651N1+02801+02401999999ADDAG10999GA1021+006009999GA2021+009009099GA3071+090009999MA1101021999999REMMET005NEW ;EQDQ01+000000PRSWM2
0150825640999991996010518004-05533-047450SY-MT+0131SBIZ V0203601N001510075019N0200001N1+02781+02361999999ADDAA106000591AG10000GF107991071071008001999999MW1001REMSYN011 333 69961;MET052NEW 5KT 9999 TS SCT020 FEW023CB BKN300 27/23 Q1009 ;EQDQ01+000000PRSWM2
0130825640999991996010521004-05533-047450FM-15+0131SBIZ V0200521N99999999999CN9999999N9+99999+99999999999ADDAG10000REMMET044NEW 0KT 9999 FEW015 SCT100 BKN300 29/24 Q100EQDQ01+005143WOSPD Q02+000002VOVAR Q03+000000PRSWM2Q040005143WOSPD 
0114825640999991996010523004-05533-047450FM-15+0131SBIZ V0200521N99999999999CN9999999N9+99999+99999999999ADDAG10999REMMET044NEW 0KT 9999 SCT015 SCT100 BKN300 26/23 Q100EQDQ01+015431WOSPD Q02+000002VOVAR Q03+000000PRSWM2
0158825640999991996010600004-05533-047450SY-MT+0131SBIZ V0209991C000019999999N0200001N1+02531+02401999999ADDAA106000091AG10000GF109991091999999999999999KA1999M+02911REMSYN011 333 10291;MET053NEW Z 30005KT 9999 SCT015 SCT020 BKN100 25/23 Q1010 ;EQDQ01+000000PRSWM2
0081825640999991996010608004-05533-047450FM-15+0131SBIZ V0209999999999999999CN9999999N9+99999+99999999999ADDAG10999REMMET027NEW 0KT CAVOK 24/22 Q1009 ;EQDQ01+000002VOVAR Q02+000000PRSWM2
0081825640999991996010609004-05533-047450FM-15+0131SBIZ V0209999999999999999CN9999999N9+99999+99999999999ADDAG10000REMMET027NEW 0KT CAVOK 24/22 Q1009 ;EQDQ01+000002VOVAR Q02+000000PRSWM2
0081825640999991996010610004-05533-047450FM-15+0131SBIZ V0209991C00001999999CN9999999N9+99999+99999999999ADDAG10999REMMET027NEW 0KT CAVOK 23/22 Q1010 ;EQDQ01+000002VOVAR Q02+000000PRSWM2
0080825640999991996010612004-05533-047450FM-12+0131SBIZ V0200501N00101007501CN0200001N1+02471+02271999999ADDAA106000091AG10000GF108991081051008001001001KA1999N+02251REMSYN011 333 20225;
0114825640999991996010613004-05533-047450FM-15+0131SBIZ V0200611N99999999999CN9999999N9+99999+99999999999ADDAG10999REMMET044NEW 0KT 9999 FEW015 BKN100 BKN300 26/23 Q101EQDQ01+015431WOSPD Q02+000002VOVAR Q03+000000PRSWM2
0098825640999991996010615004-05533-047450FM-15+0131SBIZ V0209999999999999999CN9999999N9+99999+99999999999ADDAG10000REMMET044NEW 6KT 9999 FEW015 SCT020 BKN100 28/24 Q101EQDQ01+000002VOVAR Q02+000000PRSWM2
0094825640999991996010616004-05533-047450FM-15+0131SBIZ V0209999999999999999CN9999999N9+99999+99999999999ADDAG10999REMMET040NEW 6KT 9999 FEW020 BKN100 29/23 Q1011 ;EQDQ01+000002VOVAR Q02+000000PRSWM2
0094825640999991996010617004-05533-047450FM-15+0131SBIZ V0209999999999999999CN9999999N9+99999+99999999999ADDAG10999REMMET040NEW 6KT 9999 FEW020 BKN100 29/23 Q1009 ;EQDQ01+000002VOVAR Q02+000000PRSWM2
0130825640999991996010618004-05533-047450SY-MT+0131SBIZ V0200901N002610075019N0200001N1+02931+02361999999ADDAA106000091AG10000GF108991081011008001001001REMSYN005 333;MET044NEW 3KT 9999 SCT020 SCT100 BKN300 30/24 Q100EQDQ01+000000PRSWM2
0098825640999991996010619004-05533-047450FM-15+0131SBIZ V0209999999999999999CN9999999N9+99999+99999999999ADDAG10999REMMET044NEW 8KT 9999 FEW015 SCT020 BKN100 30/24 Q100EQDQ01+000002VOVAR Q02+000000PRSWM2
0094825640999991996010620004-05533-047450FM-15+0131SBIZ V0209991C00001999999CN9999999N9+99999+99999999999ADDAG10999REMMET040NEW 3KT 9999 SCT015 SCT020 29/23 Q1007 ;EQDQ01+000002VOVAR Q02+000000PRSWM2
0138825640999991996010621004-05533-047450FM-15+0131SBIZ V0200621N99999999999CN9999999N9+99999+99999999999ADDAG10000REMMET052NEW 4KT 9999 TS FEW015 SCT020 SCT025CB 27/24 Q1008 ;EQDQ01+005143WOSPD Q02+000002VOVAR Q03+000000PRSWM2Q040005143WOSPD 
0122825640999991996010622004-05533-047450FM-15+0131SBIZ V0200621N99999999999CN9999999N9+99999+99999999999ADDAG10999REMMET052NEW 6KT 9999 TS SCT015 BKN020 SCT025CB 25/24 Q1008 ;EQDQ01+010291WOSPD Q02+000002VOVAR Q03+000000PRSWM2
0080825640999991996010700004-05533-047450FM-12+0131SBIZ V0200901N00151220001CN0200001N1+02451+02321999999ADDAA106000091AG10000GF104991041011008001001001KA1999M+03051REMSYN011 333 10305;
0110825640999991996010711004-05533-047450FM-15+0131SBIZ V0200711N05142999999CN9999999N9+99999+99999999999ADDAG10999REMMET040NEW 2KT 9999 SCT015 BKN020 24/23 Q1012 ;EQDQ01+005143WOSPD Q02+000002VOVAR Q03+000000PRSWM2
0157825640999991996010800004-05533-047450SY-MT+0131SBIZ V0203601N001519999999N0200001N1+02591+02401999999ADDAA106007091AG10000GF109991091999999999999999KA1240M+03291MW1001REMSYN017 333 10329 60071;MET040NEW 0KT 9999 SCT020 BKN300 26/24 Q1010 ;EQDQ01+000000PRSWM2
0143825640999991996010812004-05533-047450SY-MT+0131SBIZ V0203601N001010075019N0200001N1+02621+02311999999ADDAA106007091AG10000GF107991071021008001001001KA1240N+02381REMSYN017 333 20238 60071;MET032NEW 4KT 9999 BKN020 26/23 Q1014;EQDQ01+000000PRSWM2
0086825640999991996010815004-05533-047450FM-15+0131SBIZ V0209999999999999999CN9999999N9+99999+99999999999ADDAG10000REMMET032NEW 0KT 9999 BKN020 31/23 Q1013;EQDQ01+000002VOVAR Q02+000000PRSWM2
0086825640999991996010816004-05533-047450FM-15+0131SBIZ V0209999999999999999CN9999999N9+99999+99999999999ADDAG10999REMMET032NEW 5KT 9999 BKN020 32/23 Q1012;EQDQ01+000002VOVAR Q02+000000PRSWM2
0061825640999991996010818004-05533-047450FM-12+0131SBIZ V0203601N001010075019N0200001N1+03161+02321999999ADDAA106000091AG10000GF105991051021008001001001REMSYN005 333;
0102825640999991996010822004-05533-047450FM-15+0131SBIZ V0200821N99999999999CN9999999N9+99999+99999999999ADDAG10999REMMET032NEW 6KT 9999 FEW015 BKN020 27/23EQDQ01+010291WOSPD Q02+000002VOVAR Q03+000000PRSWM2
0117825640999991996010901004-05533-047450FM-15+0131SBIZ V0200901N99999999999CN9999999N9+99999+99999999999ADDAG10999REMMET031NEW 2KT 9999 SCT020 25/23 Q1012EQDQ01+005143WOSPD Q02+000002VOVAR Q03+000000PRSWM2Q040005143WOSPD 
0081825640999991996010908004-05533-047450FM-15+0131SBIZ V0209999999999999999CN9999999N9+99999+99999999999ADDAG10999REMMET027NEW 0KT CAVOK 23/23 Q1011 ;EQDQ01+000002VOVAR Q02+000000PRSWM2
0061825640999991996010910004-05533-047450FM-15+0131SBIZ V0209991C00001999991CY0099001N1+02301+02301999999ADDAG10999MA1101191999999REMMET008NEW CAVOEQDQ01+000000PRSWM2
0097825640999991996010911004-05533-047450FM-15+0131SBIZ V0200911N99999999999CN9999999N9+99999+99999999999ADDAG10999REMMET027NEW 0KT CAVOK 26/23 Q1013 ;EQDQ01+005143WOSPD Q02+000002VOVAR Q03+000000PRSWM2
0145825640999991996010912004-05533-047450SY-MT+0131SBIZ V0203201N001510075019N0200001N1+02701+02411999999ADDAA106000091AG10000GF107991071011008001001001KA1999N+02341REMSYN011 333 20234;MET040NEW 6KT 9999 SCT017 SCT300 27/23 Q1014 ;EQDQ01+000000PRSWM2
0102825640999991996010913004-05533-047450FM-15+0131SBIZ V0200911N99999999999CN9999999N9+99999+99999999999ADDAG10999REMMET032NEW 6KT 9999 BKN017 29/24 Q1015;EQDQ01+015431WOSPD Q02+000002VOVAR Q03+000000PRSWM2
0086825640999991996010916004-05533-047450FM-15+0131SBIZ V0209999999999999999CN9999999N9+99999+99999999999ADDAG10999REMMET032NEW 0KT 9999 SCT020 33/23 Q1012;EQDQ01+000002VOVAR Q02+000000PRSWM2
0086825640999991996010917004-05533-047450FM-15+0131SBIZ V0209999999999999999CN9999999N9+99999+99999999999ADDAG10999REMMET032NEW 0KT 9999 SCT020 33/23 Q1011;EQDQ01+000002VOVAR Q02+000000PRSWM2
0118825640999991996010918004-05533-047450SY-MT+0131SBIZ V0203201N002610075019N0200001N1+03171+02361999999ADDAA106000091AG10000GF106991061021008001001001REMSYN005 333;MET032NEW 0KT 9999 SCT020 33/23 Q1010;EQDQ01+000000PRSWM2
0138825640999991996010921004-05533-047450FM-15+0131SBIZ V0200921N99999999999CN9999999N9+99999+99999999999ADDAG10000REMMET052NEW 8KT 9999 TS SCT020 FEW025CB BKN100 27/22 Q1010 ;EQDQ01+005143WOSPD Q02+000002VOVAR Q03+000000PRSWM2Q040005143WOSPD 
0113825640999991996010922004-05533-047450FM-15+0131SBIZ V0200921N99999999999CN9999999N9+99999+99999999999ADDAG10999REMMET043NEW 4KT 9999 FEW020 BKN100 26/23 Q1010 RETSEQDQ01+010291WOSPD Q02+000002VOVAR Q03+000000PRSWM2
0096825640999991996011000004-05533-047450FM-12+0131SBIZ V0202701N001019999999N0200001N1+02601+02401999999ADDAA106000091AG10000GA1091+999999999GF109991091999999999999999KA1999M+03311REMSYN011 333 10331;
0081825640999991996011008004-05533-047450FM-15+0131SBIZ V0209999999999999999CN9999999N9+99999+99999999999ADDAG10999REMMET027NEW 0KT CAVOK 23/22 Q1010 ;EQDQ01+000002VOVAR Q02+000000PRSWM2
0102825640999991996011011004-05533-047450FM-15+0131SBIZ V0201011N99999999999CN9999999N9+99999+99999999999ADDAG10999REMMET032NEW 0KT 0500 FG SKC 23/23 Q1012;EQDQ01+005143WOSPD Q02+000002VOVAR Q03+000000PRSWM2
0080825640999991996011012004-05533-047450FM-12+0131SBIZ V0202701N001510075019N0200001N1+02471+02341999999ADDAA106000091AG10000GF108991081071008001999999KA1999N+02301REMSYN011 333 20230;
0102825640999991996011013004-05533-047450FM-15+0131SBIZ V0201011N99999999999CN9999999N9+99999+99999999999ADDAG10999REMMET032NEW 0KT 9999 SCT020 27/24 Q1013;EQDQ01+015431WOSPD Q02+000002VOVAR Q03+000000PRSWM2
0086825640999991996011014004-05533-047450FM-15+0131SBIZ V0209999999999999999CN9999999N9+99999+99999999999ADDAG10999REMMET032NEW 5KT 9999 BKN020 28/23 Q1012;EQDQ01+000002VOVAR Q02+000000PRSWM2
0086825640999991996011015004-05533-047450FM-15+0131SBIZ V0209999999999999999CN9999999N9+99999+99999999999ADDAG10000REMMET032NEW 0KT 9999 BKN020 30/24 Q1011;EQDQ01+000002VOVAR Q02+000000PRSWM2
0098825640999991996011016004-05533-047450FM-15+0131SBIZ V0209999999999999999CN9999999N9+99999+99999999999ADDAG10999REMMET044NEW 5KT 9999 FEW015 BKN020 BKN100 31/23 Q101EQDQ01+000002VOVAR Q02+000000PRSWM2
0094825640999991996011017004-05533-047450FM-15+0131SBIZ V0209999999999999999CN9999999N9+99999+99999999999ADDAG10999REMMET040NEW 6KT 9999 SCT020 OVC300 33/24 Q1010 ;EQDQ01+000002VOVAR Q02+000000PRSWM2
0126825640999991996011018004-05533-047450SY-MT+0131SBIZ V0203601N002612200019N0200001N1+03161+02451999999ADDAA106000091AG10000GF107991041021008001001011REMSYN005 333;MET040NEW 6KT 9999 SCT020 BKN300 33/23 Q1009 ;EQDQ01+000000PRSWM2
0094825640999991996011019004-05533-047450FM-15+0131SBIZ V0209999999999999999CN9999999N9+99999+99999999999ADDAG10999REMMET040NEW 6KT 9999 FEW020 BKN300 32/22 Q1007 ;EQDQ01+000002VOVAR Q02+000000PRSWM2
0126825640999991996011021004-05533-047450FM-15+0131SBIZ V0201021N99999999999CN9999999N9+99999+99999999999ADDAG10000REMMET040NEW 0KT 9999 FEW020 BKN300 31/23 Q1007 ;EQDQ01+005143WOSPD Q02+000002VOVAR Q03+000000PRSWM2Q040005143WOSPD 
0110825640999991996011022004-05533-047450FM-15+0131SBIZ V0201021N99999999999CN9999999N9+99999+99999999999ADDAG10999REMMET040NEW 0KT 9999 FEW020 BKN300 30/23 Q1008 ;EQDQ01+010291WOSPD Q02+000002VOVAR Q03+000000PRSWM2
0096825640999991996011100004-05533-047450FM-12+0131SBIZ V0209991C00001220001CN0200001N1+02861+02421999999ADDAA106000091AG10000GA1001+999999999GF100991001001999999001001KA1999M+03301REMSYN011 333 10330;
0086825640999991996011108004-05533-047450FM-15+0131SBIZ V0209999999999999999CN9999999N9+99999+99999999999ADDAG10999REMMET032NEW 0KT 9999 SCT020 25/24 Q1009;EQDQ01+000002VOVAR Q02+000000PRSWM2
0086825640999991996011109004-05533-047450FM-15+0131SBIZ V0209999999999999999CN9999999N9+99999+99999999999ADDAG10000REMMET032NEW 0KT 9999 SCT020 24/24 Q1009;EQDQ01+000002VOVAR Q02+000000PRSWM2
0094825640999991996011110004-05533-047450FM-15+0131SBIZ V0209991C00001999999CN9999999N9+99999+99999999999ADDAG10999REMMET040NEW 0KT 9999 FEW015 BKN020 25/24 Q1010 ;EQDQ01+000002VOVAR Q02+000000PRSWM2
0102825640999991996011111004-05533-047450FM-15+0131SBIZ V0201111N99999999999CN9999999N9+99999+99999999999ADDAG10999REMMET032NEW 4KT 9999 BKN020 27/24 Q1011;EQDQ01+005143WOSPD Q02+000002VOVAR Q03+000000PRSWM2
0137825640999991996011112004-05533-047450SY-MT+0131SBIZ V0203601N001510075019N0200001N1+02801+02381999999ADDAA106000091AG10000GF107991071021008001001001KA1999N+02461REMSYN011 333 20246;MET032NEW 6KT 9999 SCT020 28/22 Q1012;EQDQ01+000000PRSWM2
0102825640999991996011113004-05533-047450FM-15+0131SBIZ V0201111N99999999999CN9999999N9+99999+99999999999ADDAG10999REMMET032NEW 3KT 9999 BKN020 29/22 Q1012;EQDQ01+015431WOSPD Q02+000002VOVAR Q03+000000PRSWM2
0086825640999991996011114004-05533-047450FM-15+0131SBIZ V0209999999999999999CN9999999N9+99999+99999999999ADDAG10999REMMET032NEW 0KT 9999 BKN020 31/21 Q1011;EQDQ01+000002VOVAR Q02+000000PRSWM2
0086825640999991996011115004-05533-047450FM-15+0131SBIZ V0209999999999999999CN9999999N9+99999+99999999999ADDAG10000REMMET032NEW 5KT 9999 BKN020 31/24 Q1011;EQDQ01+000002VOVAR Q02+000000PRSWM2
0094825640999991996011116004-05533-047450FM-15+0131SBIZ V0209999999999999999CN9999999N9+99999+99999999999ADDAG10999REMMET040NEW 3KT 9999 SCT020 SCT300 32/22 Q1010 ;EQDQ01+000002VOVAR Q02+000000PRSWM2
0094825640999991996011117004-05533-047450FM-15+0131SBIZ V0209999999999999999CN9999999N9+99999+99999999999ADDAG10999REMMET040NEW 0KT 9999 BKN020 BKN300 33/22 Q1008 ;EQDQ01+000002VOVAR Q02+000000PRSWM2
0154825640999991996011118004-05533-047450SY-MT+0131SBIZ V0202301N00151090001CN0200001N1+03201+02431999999ADDAA106000091AG10000GA1021+006009999GA2071+090009999GF199999041021008001001041MA1100711999999REMSYN005 333;MET005NEW ;EQDQ01+000062SCOTCVQ02+000000PRSWM2
0094825640999991996011120004-05533-047450FM-15+0131SBIZ V0209991C00001999999CN9999999N9+99999+99999999999ADDAG10999REMMET040NEW 0KT 9999 SCT020 BKN300 32/22 Q1006 ;EQDQ01+000002VOVAR Q02+000000PRSWM2
0126825640999991996011121004-05533-047450FM-15+0131SBIZ V0201121N99999999999CN9999999N9+99999+99999999999ADDAG10000REMMET040NEW 3KT 9999 FEW020 OVC300 31/23 Q1007 ;EQDQ01+005143WOSPD Q02+000002VOVAR Q03+000000PRSWM2Q040005143WOSPD 
0102825640999991996011122004-05533-047450FM-15+0131SBIZ V0201121N99999999999CN9999999N9+99999+99999999999ADDAG10999REMMET032NEW 0KT 9999 FEW020 29/24 Q1007;EQDQ01+010291WOSPD Q02+000002VOVAR Q03+000000PRSWM2
0096825640999991996011200004-05533-047450FM-12+0131SBIZ V0209991C00001220001CN0200001N1+02791+02441999999ADDAA106000091AG10000GA1001+999999999GF100991001001999999001001KA1999M+03291REMSYN011 333 10329;
0094825640999991996011208004-05533-047450FM-15+0131SBIZ V0209999999999999999CN9999999N9+99999+99999999999ADDAG10999REMMET040NEW 0KT 9999 SCT010 BKN080 23/22 Q1009 ;EQDQ01+000002VOVAR Q02+000000PRSWM2
0094825640999991996011209004-05533-047450FM-15+0131SBIZ V0209999999999999999CN9999999N9+99999+99999999999ADDAG10000REMMET040NEW 0KT 9999 FEW016 BKN080 23/22 Q1010 ;EQDQ01+000002VOVAR Q02+000000PRSWM2
0110825640999991996011211004-05533-047450FM-15+0131SBIZ V0201211N05142999999CN9999999N9+99999+99999999999ADDAG10999REMMET040NEW 0KT 9999 FEW016 BKN300 24/23 Q1011 ;EQDQ01+005143WOSPD Q02+000002VOVAR Q03+000000PRSWM2
0110825640999991996011212004-05533-047450FM-15+0131SBIZ V0201211N99999999999CN9999999N9+99999+99999999999ADDAG10000REMMET040NEW 0KT 9999 SCT016 BKN300 25/23 Q1012 ;EQDQ01+010291WOSPD Q02+000002VOVAR Q03+000000PRSWM2
0110825640999991996011213004-05533-047450FM-15+0131SBIZ V0201211N99999999999CN9999999N9+99999+99999999999ADDAG10999REMMET040NEW 0KT 9999 SCT020 BKN300 27/23 Q1012 ;EQDQ01+015431WOSPD Q02+000002VOVAR Q03+000000PRSWM2
0094825640999991996011217004-05533-047450FM-15+0131SBIZ V0209999999999999999CN9999999N9+99999+99999999999ADDAG10999REMMET040NEW 3KT 9999 SCT020 BKN300 30/22 Q1009 ;EQDQ01+000002VOVAR Q02+000000PRSWM2
0047825640999991996011218004-05533-047450FM-12+0131SBIZ V0202301N00261220001CN0200001N1+03051+02431999999ADDAA106000091AG10000GF107991041031008001001011
0142825640999991996011221004-05533-047450FM-15+0131SBIZ V0201221N99999999999CN9999999N9+99999+99999999999ADDAG10000REMMET056NEW 0KT 9999 TS SCT015 SCT020 FEW023CB BKN300 30/23 Q100EQDQ01+005143WOSPD Q02+000002VOVAR Q03+000000PRSWM2Q040005143WOSPD 
0102825640999991996011222004-05533-047450FM-15+0131SBIZ V0201221N99999999999CN9999999N9+99999+99999999999ADDAG10999REMMET032NEW 5KT 9999 -TSRA SCT015 SCT020EQDQ01+010291WOSPD Q02+000002VOVAR Q03+000000PRSWM2
0108825640999991996011300004-05533-047450FM-12+0131SBIZ V0209991C00001007501CN0200001N1+02361+02221999999ADDAA106011091AG10018AY191061AY261061GF108991061071008001021999KA1240M+03151MW1211REMSYN017 333 10315 60111;
0098825640999991996011308004-05533-047450FM-15+0131SBIZ V0209999999999999999CN9999999N9+99999+99999999999ADDAG10999REMMET044NEW 0KT 9999 SCT010 BKN100 OVC300 23/23 Q100EQDQ01+000002VOVAR Q02+000000PRSWM2
0098825640999991996011309004-05533-047450FM-15+0131SBIZ V0209999999999999999CN9999999N9+99999+99999999999ADDAG10000REMMET044NEW 0KT 9999 SCT010 SCT100 OVC30023/22 Q1010EQDQ01+000002VOVAR Q02+000000PRSWM2
0110825640999991996011311004-05533-047450FM-15+0131SBIZ V0201311N99999999999CN9999999N9+99999+99999999999ADDAG10999REMMET040NEW 0KT 9999 FEW010 SCT300 24/22 Q1010 ;EQDQ01+005143WOSPD Q02+000002VOVAR Q03+000000PRSWM2
0086825640999991996011312004-05533-047450FM-12+0131SBIZ V0201401N001510075019N0200001N1+02631+02401999999ADDAA124011091AG10000GF105991051021008001001001KA1240N+02261REMSYN017 333 20226 60114;
0102825640999991996011313004-05533-047450FM-15+0131SBIZ V0201311N99999999999CN9999999N9+99999+99999999999ADDAG10999REMMET032NEW 3KT 9999 SCT020 28/22 Q1011;EQDQ01+015431WOSPD Q02+000002VOVAR Q03+000000PRSWM2
0086825640999991996011316004-05533-047450FM-15+0131SBIZ V0209999999999999999CN9999999N9+99999+99999999999ADDAG10999REMMET032NEW 6KT 9999 BKN020 31/24 Q1010;EQDQ01+000002VOVAR Q02+000000PRSWM2
0105825640999991996011317004-05533-047450FM-15+0131SBIZ V0209999999999999999CN9999999N9+99999+99999999999ADDAG10999REMMET051NEW 0KT 9999 TS SCT015 SCT020FEW023CB 28/23 Q1009 ;EQDQ01+000002VOVAR Q02+000000PRSWM2
0180825640999991996011318004-05533-047450SY-MT+0131SBIZ V0201401N002610075019N0100001N1+02591+02401999999ADDAA106999999AG10018AY191061AY291061GF108991061091008001021999MW1611REMSYN005 333;MET056NEW 5KT 9999 TS SCT015 SCT020FEW023CB BKN300 26/23 Q1008EQDQ01+000000PRSWM2Q02  00002PRCP06
0130825640999991996011321004-05533-047450FM-15+0131SBIZ V0201321N99999999999CN9999999N9+99999+99999999999ADDAG10000REMMET044NEW 3KT 9999 FEW015 SCT100 OVC300 24/23 Q101EQDQ01+005143WOSPD Q02+000002VOVAR Q03+000000PRSWM2Q040005143WOSPD 
0114825640999991996011322004-05533-047450FM-15+0131SBIZ V0201321N99999999999CN9999999N9+99999+99999999999ADDAG10999REMMET044NEW 3KT 9999 FEW015 BKN100 OVC300 24/23 Q101EQDQ01+010291WOSPD Q02+000002VOVAR Q03+000000PRSWM2
0086825640999991996011400004-05533-047450FM-12+0131SBIZ V0200501N002619999999N0200001N1+02331+02311999999ADDAA106001091AG10000GF108991999999999999999999KA1240M+03051REMSYN017 333 10305 60011;
0094825640999991996011408004-05533-047450FM-15+0131SBIZ V0209999999999999999CN9999999N9+99999+99999999999ADDAG10999REMMET040NEW 0KT 9999 FEW015 SCT100 22/21 Q1011 ;EQDQ01+000002VOVAR Q02+000000PRSWM2
0094825640999991996011409004-05533-047450FM-15+0131SBIZ V0209999999999999999CN9999999N9+99999+99999999999ADDAG10000REMMET040NEW 0KT 9999 FEW015 SCT100 22/21 Q1011 ;EQDQ01+000002VOVAR Q02+000000PRSWM2
0097825640999991996011412004-05533-047450FM-12+0131SBIZ V0209991C000010075019N0200001N1+02451+02211999999ADDAA106000091AA224001091AG10000GF108991061051008001031999KA1240N+02241REMSYN017 333 20224 60014;
0110825640999991996011413004-05533-047450FM-15+0131SBIZ V0201411N99999999999CN9999999N9+99999+99999999999ADDAG10999REMMET040NEW 5KT 9999 FEW020 BKN100 26/22 Q1013 ;EQDQ01+015431WOSPD Q02+000002VOVAR Q03+000000PRSWM2
0094825640999991996011415004-05533-047450FM-15+0131SBIZ V0209999999999999999CN9999999N9+99999+99999999999ADDAG10000REMMET040NEW 0KT 9999 SCT020 BKN100 29/22 Q1012 ;EQDQ01+000002VOVAR Q02+000000PRSWM2
0094825640999991996011416004-05533-047450FM-15+0131SBIZ V0209999999999999999CN9999999N9+99999+99999999999ADDAG10999REMMET040NEW 3KT 9999 SCT020 SCT100 31/22 Q1011 ;EQDQ01+000002VOVAR Q02+000000PRSWM2
0094825640999991996011417004-05533-047450FM-15+0131SBIZ V0209999999999999999CN9999999N9+99999+99999999999ADDAG10999REMMET040NEW 6KT 9999 SCT020 SCT100 32/22 Q1010 ;EQDQ01+000002VOVAR Q02+000000PRSWM2
0061825640999991996011418004-05533-047450FM-12+0131SBIZ V0202301N001510450019N0200001N1+03171+02331999999ADDAA106000091AG10000GF105991031021008001011001REMSYN005 333;
0094825640999991996011419004-05533-047450FM-15+0131SBIZ V0209999999999999999CN9999999N9+99999+99999999999ADDAG10999REMMET040NEW 4KT 9999 SCT020 SCT100 33/23 Q1008 ;EQDQ01+000002VOVAR Q02+000000PRSWM2
0094825640999991996011420004-05533-047450FM-15+0131SBIZ V0209991C00001999999CN9999999N9+99999+99999999999ADDAG10999REMMET040NEW 4KT 9999 SCT020 SCT300 32/22 Q1007 ;EQDQ01+000002VOVAR Q02+000000PRSWM2
0126825640999991996011421004-05533-047450FM-15+0131SBIZ V0201421N99999999999CN9999999N9+99999+99999999999ADDAG10000REMMET040NEW 5KT 9999 FEW020 BKN300 31/22 Q1007 ;EQDQ01+005143WOSPD Q02+000002VOVAR Q03+000000PRSWM2Q040005143WOSPD 
0110825640999991996011422004-05533-047450FM-15+0131SBIZ V0201421N99999999999CN9999999N9+99999+99999999999ADDAG10999REMMET040NEW 2KT 9999 FEW020 BKN300 29/23 Q1008 ;EQDQ01+010291WOSPD Q02+000002VOVAR Q03+000000PRSWM2
0121825640999991996011500004-05533-047450FM-12+0131SBIZ V0201401N001519999999N0200001N1+02721+02391999999ADDAA106000091AG10018AY191061AY291061GF108991999091008001999999KA1999M+03261MW1131REMSYN011 333 10326;EQDQ01+000092SCOTLC
0116825640999991996011508004-05533-047450FM-15+0131SBIZ V0209999999999999999CN9999999N9+99999+99999999999ADDAG10999REMMET062NEW 4KT 0800 +TSRA SCT008 BKN015 SCT020CB OVC080 22/22 Q1011 ;EQDQ01+000002VOVAR Q02+000000PRSWM2
0121825640999991996011509004-05533-047450FM-15+0131SBIZ V0209999999999999999CN9999999N9+99999+99999999999ADDAG10000REMMET067NEW 2KT 3000 TSRA SCT008 SCT015 FEW020CB OVC080 22/22 Q1012 REARA ;EQDQ01+000002VOVAR Q02+000000PRSWM2
0103825640999991996011510004-05533-047450FM-15+0131SBIZ V0209991C00001999999CN9999999N9+99999+99999999999ADDAG10999REMMET049NEW 3KT 5000 -RA SCT008 OVC080 22/21 Q1012 RETS ;EQDQ01+000002VOVAR Q02+000000PRSWM2
0114825640999991996011511004-05533-047450FM-15+0131SBIZ V0201511N99999999999CN9999999N9+99999+99999999999ADDAG10999REMMET044NEW 2KT 5000 -RA SCT008 OVC080 22/21 Q1013 ;EQDQ01+005143WOSPD Q02+000002VOVAR Q03+000000PRSWM2
0177825640999991996011512004-05533-047450SY-MT+0131SBIZ V0209991C000010075019N0100001N1+02261+02231999999ADDAA124077091AG10018AY191061AY261061GF108991061071008001021999KA1240N+02201MW1611REMSYN017 333 20220 60774;MET044NEW 0KT 5000 -RA SCT008 OVC080 22/22 Q1014 ;EQDQ01+000000PRSWM2
0098825640999991996011515004-05533-047450FM-15+0131SBIZ V0209999999999999999CN9999999N9+99999+99999999999ADDAG10000REMMET044NEW 0KT 9999 FEW010 BKN100 OVC300 25/22 Q101EQDQ01+000002VOVAR Q02+000000PRSWM2
0098825640999991996011516004-05533-047450FM-15+0131SBIZ V0209999999999999999CN9999999N9+99999+99999999999ADDAG10999REMMET044NEW 5KT 9999 FEW010 BKN100 OVC300 26/23 Q101EQDQ01+000002VOVAR Q02+000000PRSWM2
0098825640999991996011517004-05533-047450FM-15+0131SBIZ V0209999999999999999CN9999999N9+99999+99999999999ADDAG10999REMMET044NEW 5KT 9999 FEW015 BKN100 OVC300 26/23 Q101EQDQ01+000002VOVAR Q02+000000PRSWM2
0142825640999991996011518004-05533-047450SY-MT+0131SBIZ V0209991C000019999999N0200001N1+02671+02311999999ADDAA106000591AG10000GF108991081001008001011999MW1001REMSYN011 333 69951;MET044NEW 3KT 9999 FEW016 BKN100 OVC300 28/23 Q101EQDQ01+000000PRSWM2
0098825640999991996011519004-05533-047450FM-15+0131SBIZ V0209999999999999999CN9999999N9+99999+99999999999ADDAG10999REMMET044NEW 3KT 9999 FEW016 BKN100 OVC300 27/23 Q100EQDQ01+000002VOVAR Q02+000000PRSWM2
0098825640999991996011520004-05533-047450FM-15+0131SBIZ V0209991C00001999999CN9999999N9+99999+99999999999ADDAG10999REMMET044NEW 3KT 9999 FEW016 BKN100 OVC300 28/23 Q100EQDQ01+000002VOVAR Q02+000000PRSWM2
0110825640999991996011521004-05533-047450FM-15+0131SBIZ V0201521N99999999999CN9999999N9+99999+99999999999ADDAG10000REMMET040NEW 0KT 9999 FEW020 OVC300 27/24 Q1009 ;EQDQ01+005143WOSPD Q02+000002VOVAR Q03+000000PRSWM2
0096825640999991996011600004-05533-047450FM-12+0131SBIZ V0209991C000019999999N0200001N1+02451+02361999999ADDAA106000091AG10000GA1091+999999999GF109991091999999999999999KA1999M+02751REMSYN011 333 10275;
0094825640999991996011609004-05533-047450FM-15+0131SBIZ V0209999999999999999CN9999999N9+99999+99999999999ADDAG10000REMMET040NEW 0KT 8000 SCT015 BKN100 23/23 Q1010 ;EQDQ01+000002VOVAR Q02+000000PRSWM2
0086825640999991996011610004-05533-047450FM-15+0131SBIZ V0209991C00001999999CN9999999N9+99999+99999999999ADDAG10999REMMET032NEW 0KT 4000NE BR SCT015 BKN100;EQDQ01+000002VOVAR Q02+000000PRSWM2
0151825640999991996011612004-05533-047450SY-MT+0131SBIZ V0209991C000019999999N0200001N1+02571+02381999999ADDAA124000591AG10000GF107991071001008001011001KA1240N+02241REMSYN017 333 20224 69954;MET040NEW 2KT 9999 SCT020 BKN100 25/23 Q1011 ;EQDQ01+000000PRSWM2
0110825640999991996011613004-05533-047450FM-15+0131SBIZ V0201611N99999999999CN9999999N9+99999+99999999999ADDAG10999REMMET040NEW 2KT 9999 SCT020 SCT100 28/23 Q1011 ;EQDQ01+015431WOSPD Q02+000002VOVAR Q03+000000PRSWM2
0094825640999991996011614004-05533-047450FM-15+0131SBIZ V0209999999999999999CN9999999N9+99999+99999999999ADDAG10999REMMET040NEW 0KT 9999 SCT020 SCT100 29/23 Q1011 ;EQDQ01+000002VOVAR Q02+000000PRSWM2
0094825640999991996011615004-05533-047450FM-15+0131SBIZ V0209999999999999999CN9999999N9+99999+99999999999ADDAG10000REMMET040NEW 3KT 9999 SCT020 SCT100 30/23 Q1011 ;EQDQ01+000002VOVAR Q02+000000PRSWM2
0086825640999991996011617004-05533-047450FM-15+0131SBIZ V0209999999999999999CN9999999N9+99999+99999999999ADDAG10999REMMET032NEW 8KT 9999 SCT023 31/22 Q1008;EQDQ01+000002VOVAR Q02+000000PRSWM2
0118825640999991996011618004-05533-047450SY-MT+0131SBIZ V0201401N001010075019N0200001N1+03091+02261999999ADDAA106000091AG10000GF106991061021008001001001REMSYN005 333;MET032NEW 6KT 9999 FEW023 32/22 Q1007;EQDQ01+000000PRSWM2
0103825640999991996011619004-05533-047450FM-15+0131SBIZ V0209999999999999999CN9999999N9+99999+99999999999ADDAG10999REMMET049NEW 3KT 9999 FEW023 FEW033CB SCT300 32/22 Q1006 ;EQDQ01+000002VOVAR Q02+000000PRSWM2
0098825640999991996011620004-05533-047450FM-15+0131SBIZ V0209991C00001999999CN9999999N9+99999+99999999999ADDAG10999REMMET044NEW 3KT 9999 FEW023 FEW033 BKN300 30/23 Q100EQDQ01+000002VOVAR Q02+000000PRSWM2
0126825640999991996011621004-05533-047450FM-15+0131SBIZ V0201621N99999999999CN9999999N9+99999+99999999999ADDAG10000REMMET040NEW 0KT 9999 FEW020 BKN300 29/21 Q1007 ;EQDQ01+005143WOSPD Q02+000002VOVAR Q03+000000PRSWM2Q040005143WOSPD 
0110825640999991996011622004-05533-047450FM-15+0131SBIZ V0201621N99999999999CN9999999N9+99999+99999999999ADDAG10999REMMET040NEW 0KT 9999 FEW020 BKN300 28/22 Q1007 ;EQDQ01+010291WOSPD Q02+000002VOVAR Q03+000000PRSWM2
0145825640999991996011700004-05533-047450SY-MT+0131SBIZ V0203601N001019999999N0200001N1+02681+02431999999ADDAA106000091AG10000GF109991091999999999999999KA1999M+03231REMSYN011 333 10323;MET040NEW 0KT 9999 FEW020 BKN300 26/22 Q1009 ;EQDQ01+000000PRSWM2
0109825640999991996011701004-05533-047450FM-15+0131SBIZ V0201701N05142999999CN9999999N9+99999+99999999999ADDAG10999REMMET039NEW 0KT 9999 FEW020 BKN300 25/24Q1009 ;EQDQ01+005143WOSPD Q02+000002VOVAR Q03+000000PRSWM2
0098825640999991996011709004-05533-047450FM-15+0131SBIZ V0209999999999999999CN9999999N9+99999+99999999999ADDAG10000REMMET044NEW 1KT 9999 SCT013 BKN100 OVC300 24/22 Q100EQDQ01+000002VOVAR Q02+000000PRSWM2
0114825640999991996011711004-05533-047450FM-15+0131SBIZ V0201711N99999999999CN9999999N9+99999+99999999999ADDAG10999REMMET044NEW 3KT 9999 SCT015 BKN100 OVC300 24/23 Q101EQDQ01+005143WOSPD Q02+000002VOVAR Q03+000000PRSWM2
0149825640999991996011712004-05533-047450SY-MT+0131SBIZ V0201401N00151007501CN0200001N1+02471+02191999999ADDAA106000091AG10000GF108991081071008001999999KA1999N+02341REMSYN011 333 20234;MET044NEW 2KT 9999 SCT015 BKN100 OVC300 25/23 Q101EQDQ01+000000PRSWM2
0114825640999991996011713004-05533-047450FM-15+0131SBIZ V0201711N99999999999CN9999999N9+99999+99999999999ADDAG10999REMMET044NEW 8KT 9999 FEW020 BKN100 BKN300 27/23 Q101EQDQ01+015431WOSPD Q02+000002VOVAR Q03+000000PRSWM2
0094825640999991996011716004-05533-047450FM-15+0131SBIZ V0209999999999999999CN9999999N9+99999+99999999999ADDAG10999REMMET040NEW 5KT 9999 FEW020 BKN100 31/22 Q1009 ;EQDQ01+000002VOVAR Q02+000000PRSWM2
0086825640999991996011717004-05533-047450FM-15+0131SBIZ V0209999999999999999CN9999999N9+99999+99999999999ADDAG10999REMMET032NEW 0KT 9999 SCT020 32/22 Q1008;EQDQ01+000002VOVAR Q02+000000PRSWM2
0061825640999991996011718004-05533-047450FM-12+0131SBIZ V0202701N001010450019N0200001N1+03191+02331999999ADDAA106000091AG10000GF105991031021008001011001REMSYN005 333;
0094825640999991996011719004-05533-047450FM-15+0131SBIZ V0209999999999999999CN9999999N9+99999+99999999999ADDAG10999REMMET040NEW 5KT 9999 SCT020 SCT100 33/22 Q1006 ;EQDQ01+000002VOVAR Q02+000000PRSWM2
0085825640999991996011720004-05533-047450FM-15+0131SBIZ V0209991C00001999999CN9999999N9+99999+99999999999ADDAG10999REMMET031NEW 6KT 9999 SCT020 33/22 Q1005EQDQ01+000002VOVAR Q02+000000PRSWM2
0126825640999991996011721004-05533-047450FM-15+0131SBIZ V0201721N99999999999CN9999999N9+99999+99999999999ADDAG10000REMMET040NEW 6KT 9999 FEW020 SCT100 30/21 Q1005 ;EQDQ01+005143WOSPD Q02+000002VOVAR Q03+000000PRSWM2Q040005143WOSPD 
0110825640999991996011722004-05533-047450FM-15+0131SBIZ V0201721N99999999999CN9999999N9+99999+99999999999ADDAG10999REMMET040NEW 4KT 9999 FEW020 SCT100 28/22 Q1006 ;EQDQ01+010291WOSPD Q02+000002VOVAR Q03+000000PRSWM2
0096825640999991996011800004-05533-047450FM-12+0131SBIZ V0209991C00001220001CN0200001N1+02721+02241999999ADDAA106000091AG10000GA1001+999999999GF100991001001999999001001KA1999M+03251REMSYN011 333 10325;
0081825640999991996011809004-05533-047450FM-15+0131SBIZ V0209999999999999999CN9999999N9+99999+99999999999ADDAG10000REMMET027NEW 0KT CAVOK 23/23 Q1007 ;EQDQ01+000002VOVAR Q02+000000PRSWM2
0097825640999991996011811004-05533-047450FM-15+0131SBIZ V0201811N05142999999CN9999999N9+99999+99999999999ADDAG10999REMMET027NEW 0KT CAVOK 25/23 Q1010 ;EQDQ01+005143WOSPD Q02+000002VOVAR Q03+000000PRSWM2
0086825640999991996011814004-05533-047450FM-15+0131SBIZ V0209999999999999999CN9999999N9+99999+99999999999ADDAG10999REMMET032NEW 0KT 9999 BKN020 31/24 Q1010;EQDQ01+000002VOVAR Q02+000000PRSWM2
0090825640999991996011815004-05533-047450FM-15+0131SBIZ V0200401N00311006001CN0112651N1+03101+02201999999ADDAG10000GA1021+004509999GA2071+006009999MA1101021999999REMMET005NEW ;EQDQ01+000000PRSWM2
0090825640999991996011816004-05533-047450FM-15+0131SBIZ V0200601N00311006001CN0112651N1+03001+02201999999ADDAG10999GA1021+004509999GA2071+006009999MA1100911999999REMMET005NEW ;EQDQ01+000000PRSWM2
0093825640999991996011817004-05533-047450FM-16+0131SBIZ V0209999999999999999CN9999999N9+99999+99999999999ADDAG10999REMMET039NEW 8KT 999 SCT020 BKN100 32/22 Q1009 ;EQDQ01+000002VOVAR Q02+000000PRSWM2
0126825640999991996011818004-05533-047450SY-MT+0131SBIZ V0200501N001019999999N0200001N1+03121+02331999999ADDAA106000091AG10000GF106991061001008001011999REMSYN005 333;MET040NEW 6KT 9999 FEW015 BKN020 32/23 Q1008 ;EQDQ01+000000PRSWM2
0086825640999991996011820004-05533-047450FM-15+0131SBIZ V0209991C00001999999CN9999999N9+99999+99999999999ADDAG10999REMMET032NEW 6KT 9999 SCT020 30/22 Q1007;EQDQ01+000002VOVAR Q02+000000PRSWM2
0118825640999991996011821004-05533-047450FM-15+0131SBIZ V0201821N99999999999CN9999999N9+99999+99999999999ADDAG10000REMMET032NEW 3KT 9999 BKN020 29/23 Q1007;EQDQ01+005143WOSPD Q02+000002VOVAR Q03+000000PRSWM2Q040005143WOSPD 
0102825640999991996011822004-05533-047450FM-15+0131SBIZ V0201821N99999999999CN9999999N9+99999+99999999999ADDAG10999REMMET032NEW 0KT 9999 SCT020 28/23 Q1008;EQDQ01+010291WOSPD Q02+000002VOVAR Q03+000000PRSWM2
0096825640999991996011900004-05533-047450FM-12+0131SBIZ V0200501N00151220001CN0200001N1+02771+02441999999ADDAA106000091AG10000GA1001+999999999GF100991001001999999001001KA1999M+03191REMSYN011 333 10319;
0081825640999991996011908004-05533-047450FM-15+0131SBIZ V0209999999999999999CN9999999N9+99999+99999999999ADDAG10999REMMET027NEW 0KT CAVOK 24/23 Q1008 ;EQDQ01+000002VOVAR Q02+000000PRSWM2
0098825640999991996011910004-05533-047450FM-15+0131SBIZ V0209991C00001999999CN9999999N9+99999+99999999999ADDAG10999REMMET044NEW 3KT 9999 SCT015 BKN020 BKN100 25/24 Q101EQDQ01+000002VOVAR Q02+000000PRSWM2
0102825640999991996011911004-05533-047450FM-15+0131SBIZ V0201911N99999999999CN9999999N9+99999+99999999999ADDAG10999REMMET032NEW 3KT 9999 BKN015 BKN020 BKN10EQDQ01+005143WOSPD Q02+000002VOVAR Q03+000000PRSWM2
0149825640999991996011912004-05533-047450SY-MT+0131SBIZ V0200501N001519999999N0200001N1+02611+02251999999ADDAA106000091AG10000GF108991081001008001011999KA1999N+02421REMSYN011 333 20242;MET044NEW 6KT 9999 SCT015 BKN020 BKN100 26/24 Q101EQDQ01+000000PRSWM2
0104825640999991996011916004-05533-047450FM-15+0131SBIZ V0209999999999999999CN9999999N9+99999+99999999999ADDAG10999REMMET050NEW 7KT 9999 SCT020 FEW023TCU SCT100 32/23 Q1010 ;EQDQ01+000002VOVAR Q02+000000PRSWM2
0116825640999991996011917004-05533-047450FM-15+0131SBIZ V0209999999999999999CN9999999N9+99999+99999999999ADDAG10999REMMET062NEW 6KT 8000 VCSH SCT020 FERW023CB BKN100 BKN300 30/24 Q1009 ;EQDQ01+000002VOVAR Q02+000000PRSWM2
0073825640999991996011918004-05533-047450FM-12+0131SBIZ V0209991C000010075019N0200001N1+02911+02501999999ADDAA106003091AG10000GF105991051021008001001001MW1211REMSYN011 333 60031;
0108825640999991996012000004-05533-047450FM-12+0131SBIZ V0203201N00151007501CN0100001N1+02371+02221999999ADDAA106051091AG10018AY191061AY261061GF108991061091008001021999KA1240M+03221MW1951REMSYN017 333 10322 60511;
0086825640999991996012010004-05533-047450FM-15+0131SBIZ V0209991C00001999999CN9999999N9+99999+99999999999ADDAG10999REMMET032NEW 0KT 9999 SCT015 OVC100 23/22EQDQ01+000002VOVAR Q02+000000PRSWM2
0114825640999991996012011004-05533-047450FM-15+0131SBIZ V0202011N99999999999CN9999999N9+99999+99999999999ADDAG10999REMMET044NEW 0KT 9999 SCT015 SCT020 OVC100 24/22 Q101EQDQ01+005143WOSPD Q02+000002VOVAR Q03+000000PRSWM2
0195825640999991996012012004-05533-047450SY-MT+0131SBIZ V0203201N00151030001CN0200001N1+02431+02391999999ADDAA124062091AG10000GA1021+006009999GA2071+030009999GA3071+090009999GF199999041021008001001011KA1240N+02281MA1101191999999REMSYN017 333 20228 60624;MET005NEW ;EQDQ01+000062SCOTCVQ02+000000PRSWM2
0094825640999991996012016004-05533-047450FM-15+0131SBIZ V0209999999999999999CN9999999N9+99999+99999999999ADDAG10999REMMET040NEW 7KT 9999 SCT020 SCT100 29/23 Q1011 ;EQDQ01+000002VOVAR Q02+000000PRSWM2
0094825640999991996012017004-05533-047450FM-15+0131SBIZ V0209999999999999999CN9999999N9+99999+99999999999ADDAG10999REMMET040NEW 0KT 9999 BKN020 SCT300 30/23 Q1009 ;EQDQ01+000002VOVAR Q02+000000PRSWM2
0094825640999991996012018004-05533-047450FM-15+0131SBIZ V0209999999999999999CN9999999N9+99999+99999999999ADDAG10000REMMET040NEW 0KT 9999 SCT020 BKN300 30/23 Q1008 ;EQDQ01+000002VOVAR Q02+000000PRSWM2
0124825640999991996012021004-05533-047450FM-15+0131SBIZ V0202021N05142999999CN9999999N9+99999+99999999999ADDAG10000REMMET054NEW 0KT 2000 TSRA BKN010 SCT033CB OVC100 22/21 Q1011 ;EQDQ01+005143WOSPD Q02+000002VOVAR Q03+000000PRSWM2
0126825640999991996012022004-05533-047450FM-15+0131SBIZ V0202021N99999999999CN9999999N9+99999+99999999999ADDAG10999REMMET056NEW 8KT 6000 -TSRA SCT010 SCT033CB OVC100 21/21 Q1011 REEQDQ01+010291WOSPD Q02+000002VOVAR Q03+000000PRSWM2
0108825640999991996012100004-05533-047450FM-12+0131SBIZ V0203201N001510075019N0100001N1+02191+02181999999ADDAA106038091AG10006AY161061AY261061GF108991061071008001021999KA1240M+03051MW1611REMSYN017 333 10305 60381;
0098825640999991996012108004-05533-047450FM-15+0131SBIZ V0209999999999999999CN9999999N9+99999+99999999999ADDAG10999REMMET044NEW 0KT 9999 SCT010 SCT100 BKN300 21/21 Q100EQDQ01+000002VOVAR Q02+000000PRSWM2
0098825640999991996012109004-05533-047450FM-15+0131SBIZ V0209999999999999999CN9999999N9+99999+99999999999ADDAG10000REMMET044NEW 0KT 9999 FEW005 BKN010 BKN300 21/21 Q101EQDQ01+000002VOVAR Q02+000000PRSWM2
0094825640999991996012110004-05533-047450FM-15+0131SBIZ V0209991C00001999999CN9999999N9+99999+99999999999ADDAG10999REMMET040NEW 3KT 9999 BKN010 BKN300 21/21 Q1010 ;EQDQ01+000002VOVAR Q02+000000PRSWM2
0102825640999991996012111004-05533-047450FM-15+0131SBIZ V0202111N99999999999CN9999999N9+99999+99999999999ADDAG10999REMMET032NEW 6KT 9999 BKN010 BKN300 22/21EQDQ01+005143WOSPD Q02+000002VOVAR Q03+000000PRSWM2
0086825640999991996012112004-05533-047450FM-12+0131SBIZ V0203201N001519999999N0200001N1+02251+02191999999ADDAA124040091AG10000GF108991081001008001011999KA1240N+02121REMSYN017 333 20212 60404;
0114825640999991996012113004-05533-047450FM-15+0131SBIZ V0202111N99999999999CN9999999N9+99999+99999999999ADDAG10999REMMET044NEW 2KT 9999 BKN013 BKN100 OVC300 24/21 Q101EQDQ01+015431WOSPD Q02+000002VOVAR Q03+000000PRSWM2
0098825640999991996012116004-05533-047450FM-15+0131SBIZ V0209999999999999999CN9999999N9+99999+99999999999ADDAG10999REMMET044NEW 4KT 9999 FEW020 SCT100 BKN300 28/22 Q101EQDQ01+000002VOVAR Q02+000000PRSWM2
0098825640999991996012117004-05533-047450FM-15+0131SBIZ V0209999999999999999CN9999999N9+99999+99999999999ADDAG10999REMMET044NEW 2KT 9999 FEW020 SCT100 BKN300 30/22 Q100EQDQ01+000002VOVAR Q02+000000PRSWM2
0081825640999991996012120004-05533-047450FM-15+0131SBIZ V0209991C00001999999CN9999999N9+99999+99999999999ADDAG10999REMMET027NEW 0KT CAVOK 29/23 Q1008 ;EQDQ01+000002VOVAR Q02+000000PRSWM2
0097825640999991996012122004-05533-047450FM-15+0131SBIZ V0202121N99999999999CN9999999N9+99999+99999999999ADDAG10999REMMET027NEW 0KT CAVOK 27/23 Q1008 ;EQDQ01+010291WOSPD Q02+000002VOVAR Q03+000000PRSWM2
0104825640999991996012210004-05533-047450FM-15+0131SBIZ V0209991C00001999999CN9999999N9+99999+99999999999ADDAG10999REMMET050NEW 0KT 5000 BR SCT008 SCT015 BKN020 24/24 Q1009 ;EQDQ01+000002VOVAR Q02+000000PRSWM2
0120825640999991996012211004-05533-047450FM-15+0131SBIZ V0202211N99999999999CN9999999N9+99999+99999999999ADDAG10999REMMET050NEW 3KT 5000 BR SCT008 SCT015 BKN020 25/24 Q1009 ;EQDQ01+005143WOSPD Q02+000002VOVAR Q03+000000PRSWM2
0145825640999991996012212004-05533-047450SY-MT+0131SBIZ V0209991C000010075019N0200001N1+02431+02361999999ADDAA106000091AG10000GF108991081071008001999999KA1999N+02301REMSYN011 333 20230;MET040NEW 3KT 9999 SCT015 BKN020 26/24 Q1010 ;EQDQ01+000000PRSWM2
0110825640999991996012213004-05533-047450FM-15+0131SBIZ V0202211N99999999999CN9999999N9+99999+99999999999ADDAG10999REMMET040NEW 0KT 9999 SCT020 SCT100 28/24 Q1010 ;EQDQ01+015431WOSPD Q02+000002VOVAR Q03+000000PRSWM2
0094825640999991996012214004-05533-047450FM-15+0131SBIZ V0209999999999999999CN9999999N9+99999+99999999999ADDAG10999REMMET040NEW 6KT 9999 SCT020 SCT100 30/23 Q1010 ;EQDQ01+000002VOVAR Q02+000000PRSWM2
0086825640999991996012215004-05533-047450FM-15+0131SBIZ V0209999999999999999CN9999999N9+99999+99999999999ADDAG10000REMMET032NEW 0KT 9999 SCT020 31/22 Q1009;EQDQ01+000002VOVAR Q02+000000PRSWM2
0086825640999991996012216004-05533-047450FM-15+0131SBIZ V0209999999999999999CN9999999N9+99999+99999999999ADDAG10999REMMET032NEW 5KT 9999 SCT020 33/23 Q1008;EQDQ01+000002VOVAR Q02+000000PRSWM2
0086825640999991996012217004-05533-047450FM-15+0131SBIZ V0209999999999999999CN9999999N9+99999+99999999999ADDAG10999REMMET032NEW 5KT 9999 SCT020 34/22 Q1007;EQDQ01+000002VOVAR Q02+000000PRSWM2
0061825640999991996012218004-05533-047450FM-12+0131SBIZ V0200501N001510075019N0200001N1+03261+02301999999ADDAA106000091AG10000GF105991051021008001001001REMSYN005 333;
0106825640999991996012220004-05533-047450FM-15+0131SBIZ V0209991C00001999999CN9999999N9+99999+99999999999ADDAG10999REMMET052NEW 5KT 9999 TS SCT020 FEW023CB BKN300 30/23 Q1005 ;EQDQ01+000002VOVAR Q02+000000PRSWM2
0138825640999991996012221004-05533-047450FM-15+0131SBIZ V0202221N99999999999CN9999999N9+99999+99999999999ADDAG10000REMMET052NEW 0KT 9999 TS FEW020 FEW030CB BKN300 27/22 Q1005 ;EQDQ01+005143WOSPD Q02+000002VOVAR Q03+000000PRSWM2Q040005143WOSPD 
0110825640999991996012222004-05533-047450FM-15+0131SBIZ V0202221N99999999999CN9999999N9+99999+99999999999ADDAG10999REMMET040NEW 2KT 9999 SCT020 BKN300 26/23 Q1006 ;EQDQ01+010291WOSPD Q02+000002VOVAR Q03+000000PRSWM2
0094825640999991996012300004-05533-047450FM-15+0131SBIZ V0209991C00001999999CN9999999N9+99999+99999999999ADDAG10000REMMET040NEW 0KT 9999 FEW020 SCT300 25/23 Q1007 ;EQDQ01+000002VOVAR Q02+000000PRSWM2
0113825640999991996012301004-05533-047450FM-15+0131SBIZ V0202301N99999999999CN9999999N9+99999+99999999999ADDAG10999REMMET027NEW 0KT CAVOK 25/23 Q1008 ;EQDQ01+005143WOSPD Q02+000002VOVAR Q03+000000PRSWM2Q040005143WOSPD 
0097825640999991996012302004-05533-047450FM-15+0131SBIZ V0202301N99999999999CN9999999N9+99999+99999999999ADDAG10999REMMET027NEW 0KT CAVOK 25/23 Q1009 ;EQDQ01+010291WOSPD Q02+000002VOVAR Q03+000000PRSWM2
0096825640999991996012303004-05533-047450FM-15+0131SBIZ V0202301N99999999999CN9999999N9+99999+99999999999ADDAG10000REMMET026NEW 0KT 9999 24/23 Q1009 ;EQDQ01+015431WOSPD Q02+000002VOVAR Q03+000000PRSWM2
0081825640999991996012308004-05533-047450FM-15+0131SBIZ V0209999999999999999CN9999999N9+99999+99999999999ADDAG10999REMMET027NEW 0KT CAVOK 23/22 Q1008 ;EQDQ01+000002VOVAR Q02+000000PRSWM2
0091825640999991996012309004-05533-047450FM-15+0131SBIZ V0209999999999999999CN9999999N9+99999+99999999999ADDAG10000REMMET037NEW 0KT 9999 FEW015 SCT300 23/Q1008 ;EQDQ01+000002VOVAR Q02+000000PRSWM2
0094825640999991996012310004-05533-047450FM-15+0131SBIZ V0209991C00001999999CN9999999N9+99999+99999999999ADDAG10999REMMET040NEW 5KT 9999 SCT015 SCT020 24/23 Q1009 ;EQDQ01+000002VOVAR Q02+000000PRSWM2
0102825640999991996012311004-05533-047450FM-15+0131SBIZ V0202311N99999999999CN9999999N9+99999+99999999999ADDAG10999REMMET032NEW 0KT 9999 FEW015 SCT020 25/23EQDQ01+005143WOSPD Q02+000002VOVAR Q03+000000PRSWM2
0145825640999991996012312004-05533-047450SY-MT+0131SBIZ V0209991C000019999999N0200001N1+02661+02371999999ADDAA106000091AG10000GF108991081001008001011999KA1999N+02281REMSYN011 333 20228;MET040NEW 5KT 9999 FEW015 SCT020 26/23 Q1010 ;EQDQ01+000000PRSWM2
0102825640999991996012313004-05533-047450FM-15+0131SBIZ V0202311N99999999999CN9999999N9+99999+99999999999ADDAG10999REMMET032NEW 0KT 9999 BKN020 28/23 Q1010;EQDQ01+015431WOSPD Q02+000002VOVAR Q03+000000PRSWM2
0086825640999991996012314004-05533-047450FM-15+0131SBIZ V0209999999999999999CN9999999N9+99999+99999999999ADDAG10999REMMET032NEW 5KT 9999 BKN020 30/23 Q1010;EQDQ01+000002VOVAR Q02+000000PRSWM2
0086825640999991996012316004-05533-047450FM-15+0131SBIZ V0209999999999999999CN9999999N9+99999+99999999999ADDAG10999REMMET032NEW 1KT 9999 BKN020 32/22 Q1009;EQDQ01+000002VOVAR Q02+000000PRSWM2
0086825640999991996012317004-05533-047450FM-15+0131SBIZ V0209999999999999999CN9999999N9+99999+99999999999ADDAG10999REMMET032NEW 3KT 9999 SCT020 32/23 Q1007;EQDQ01+000002VOVAR Q02+000000PRSWM2
0118825640999991996012318004-05533-047450SY-MT+0131SBIZ V0200901N002610075019N0200001N1+03171+02391999999ADDAA106000091AG10000GF107991071021008001001001REMSYN005 333;MET032NEW 0KT 9999 SCT020 33/22 Q1006;EQDQ01+000000PRSWM2
0094825640999991996012319004-05533-047450FM-15+0131SBIZ V0209999999999999999CN9999999N9+99999+99999999999ADDAG10999REMMET040NEW 0KT 9999 SCT020 SCT300 33/23 Q1005 ;EQDQ01+000002VOVAR Q02+000000PRSWM2
0126825640999991996012321004-05533-047450FM-15+0131SBIZ V0202321N05142999999CN9999999N9+99999+99999999999ADDAG10000REMMET056NEW 0KT 9999 FEW015 SCT020 FEW023CB BKN300 29/23 Q1006 ;EQDQ01+005143WOSPD Q02+000002VOVAR Q03+000000PRSWM2
0114825640999991996012412004-05533-047450FM-15+0131SBIZ V0202411N99999999999CN9999999N9+99999+99999999999ADDAG10000REMMET044NEW 3KT 9999 SCT015 SCT020 OVC300 24/22 Q101EQDQ01+010291WOSPD Q02+000002VOVAR Q03+000000PRSWM2
0094825640999991996012416004-05533-047450FM-15+0131SBIZ V0209999999999999999CN9999999N9+99999+99999999999ADDAG10999REMMET040NEW 2KT 9999 BKN020 BKN300 30/23 Q1013 ;EQDQ01+000002VOVAR Q02+000000PRSWM2
0098825640999991996012417004-05533-047450FM-15+0131SBIZ V0209999999999999999CN9999999N9+99999+99999999999ADDAG10999REMMET044NEW 6KT 9999 SCT020 SCT100 BKN300 32/23 Q101EQDQ01+000002VOVAR Q02+000000PRSWM2
0142825640999991996012418004-05533-047450SY-MT+0131SBIZ V0200901N001510075019N0200001N1+03031+02361999999ADDAA106000091AG10000GF107991071021008001001001REMSYN005 333;MET056NEW 3KT 9999 TS SCT010 SCT020 FEW023CB BKN300 32/23 Q101EQDQ01+000000PRSWM2
0118825640999991996012419004-05533-047450FM-15+0131SBIZ V0209999999999999999CN9999999N9+99999+99999999999ADDAG10999REMMET064NEW 3KT 8000 TS VCSH FEW010 SCT020 FEW023CB OVC100 25/24 Q1010 ;EQDQ01+000002VOVAR Q02+000000PRSWM2
0110825640999991996012420004-05533-047450FM-15+0131SBIZ V0209991C00001999999CN9999999N9+99999+99999999999ADDAG10999REMMET056NEW 0KT 9999 TS SCT020 FEW023CB BKN100 BKN300 25/24 Q100EQDQ01+000002VOVAR Q02+000000PRSWM2
0138825640999991996012421004-05533-047450FM-15+0131SBIZ V0202421N99999999999CN9999999N9+99999+99999999999ADDAG10000REMMET052NEW 2KT 9999 SCT020 SCT100 BKN300 25/24 Q1010 RETS ;EQDQ01+005143WOSPD Q02+000002VOVAR Q03+000000PRSWM2Q040005143WOSPD 
0114825640999991996012422004-05533-047450FM-15+0131SBIZ V0202421N99999999999CN9999999N9+99999+99999999999ADDAG10999REMMET044NEW 3KT 9999 FEW015 SCT100 BKN300 25/24 Q101EQDQ01+010291WOSPD Q02+000002VOVAR Q03+000000PRSWM2
0102825640999991996012500004-05533-047450FM-12+0131SBIZ V0209991C00001220001CN0200001N1+02491+02471999999ADDAA106014091AG10000GA1001+999999999GF100991001001999999001001KA1240M+03141REMSYN017 333 10314 60141;
0094825640999991996012508004-05533-047450FM-15+0131SBIZ V0209999999999999999CN9999999N9+99999+99999999999ADDAG10999REMMET040NEW 0KT 9999 SCT005 SCT100 23/22 Q1010 ;EQDQ01+000002VOVAR Q02+000000PRSWM2
0086825640999991996012510004-05533-047450FM-15+0131SBIZ V0209991C00001999999CN9999999N9+99999+99999999999ADDAG10999REMMET032NEW 0KT 0300 FG SCT010 23/22 Q10EQDQ01+000002VOVAR Q02+000000PRSWM2
0097825640999991996012512004-05533-047450FM-12+0131SBIZ V0203601N001510075019N0200001N1+02591+02391999999ADDAA106000091AA224014091AG10000GF108991081071008001999999KA1240N+02281REMSYN017 333 20228 60144;
0094825640999991996012517004-05533-047450FM-15+0131SBIZ V0209999999999999999CN9999999N9+99999+99999999999ADDAG10999REMMET040NEW 0KT 9999 SCT020 SCT300 32/24 Q1010 ;EQDQ01+000002VOVAR Q02+000000PRSWM2
0061825640999991996012518004-05533-047450FM-12+0131SBIZ V0200901N002612200019N0200001N1+03101+02411999999ADDAA106000091AG10000GF105991041031008001001011REMSYN005 333;
0096825640999991996012600004-05533-047450FM-12+0131SBIZ V0209991C00001220001CN0200001N1+02751+02071999999ADDAA106000091AG10000GA1001+999999999GF100991001001999999001001KA1999M+03251REMSYN011 333 10325;
0110825640999991996012611004-05533-047450FM-15+0131SBIZ V0202611N99999999999CN9999999N9+99999+99999999999ADDAG10999REMMET040NEW 0KT 6000 FEW008 SCT300 25/24 Q1009 ;EQDQ01+005143WOSPD Q02+000002VOVAR Q03+000000PRSWM2
0132825640999991996012612004-05533-047450SY-MT+0131SBIZ V0200901N00151220001CN0200001N1+02721+02341999999ADDAA106000091AG10000GF102991021001012501001011KA1999N+02341REMSYN011 333 20234;MET027NEW 0KT CAVOK 27/24 Q1009 ;EQDQ01+000000PRSWM2
0097825640999991996012613004-05533-047450FM-15+0131SBIZ V0202611N99999999999CN9999999N9+99999+99999999999ADDAG10999REMMET027NEW 0KT CAVOK 30/23 Q1009 ;EQDQ01+015431WOSPD Q02+000002VOVAR Q03+000000PRSWM2
0107825640999991996012615004-05533-047450FM-15+0131SBIZ V0209999999999999999CN9999999N9+99999+99999999999ADDAG10000REMMET053NEW 5KT 9999 SCT020 33/23 Q1009 THE MESSAGE CONTINUE;EQDQ01+000002VOVAR Q02+000000PRSWM2
0086825640999991996012616004-05533-047450FM-15+0131SBIZ V0209999999999999999CN9999999N9+99999+99999999999ADDAG10999REMMET032NEW 5KT 9999 SCT020 34/23 Q1008;EQDQ01+000002VOVAR Q02+000000PRSWM2
0061825640999991996012618004-05533-047450FM-12+0131SBIZ V0202701N001510075019N0200001N1+03451+02361999999ADDAA106000091AG10000GF105991051021008001001001REMSYN005 333;
0126825640999991996012622004-05533-047450FM-15+0131SBIZ V0202621N99999999999CN9999999N9+99999+99999999999ADDAG10999REMMET056NEW 4KT 9999 TS SCT015 SCT020 SCT025CB OVC300 29/22 Q100EQDQ01+010291WOSPD Q02+000002VOVAR Q03+000000PRSWM2
0102825640999991996012700004-05533-047450FM-12+0131SBIZ V0201401N002619999999N0200001N1+02651+02371999999ADDAA106000091AG10018AY191061AY291061GF108991999999008001999999KA1999M+03351MW1171REMSYN011 333 10335;
0081825640999991996012710004-05533-047450FM-15+0131SBIZ V0209991C00001999999CN9999999N9+99999+99999999999ADDAG10999REMMET027NEW 0KT CAVOK 25/23 Q1008 ;EQDQ01+000002VOVAR Q02+000000PRSWM2
0097825640999991996012711004-05533-047450FM-15+0131SBIZ V0202711N99999999999CN9999999N9+99999+99999999999ADDAG10999REMMET027NEW 0KT CAVOK 25/24 Q1008 ;EQDQ01+005143WOSPD Q02+000002VOVAR Q03+000000PRSWM2
0125825640999991996012712004-05533-047450SY-MT+0131SBIZ V0203201N00151220001CN0200001N1+02651+02421999999ADDAA106000091AG10000GF103991021021008001001011KA1999N+02421REMSYN011 333 20242;MET020NEW CAVOK 27/24 Q100EQDQ01+000000PRSWM2
0110825640999991996012713004-05533-047450FM-15+0131SBIZ V0202711N99999999999CN9999999N9+99999+99999999999ADDAG10999REMMET040NEW 6KT 9999 FEW020 BKN300 29/24 Q1009 ;EQDQ01+015431WOSPD Q02+000002VOVAR Q03+000000PRSWM2
0086825640999991996012714004-05533-047450FM-15+0131SBIZ V0209999999999999999CN9999999N9+99999+99999999999ADDAG10999REMMET032NEW 8KT 9999 SCT020 BKN300 30/24EQDQ01+000002VOVAR Q02+000000PRSWM2
0094825640999991996012715004-05533-047450FM-15+0131SBIZ V0209999999999999999CN9999999N9+99999+99999999999ADDAG10000REMMET040NEW 2KT 9999 SCT020 BKN100 31/23 Q1008 ;EQDQ01+000002VOVAR Q02+000000PRSWM2
0094825640999991996012716004-05533-047450FM-15+0131SBIZ V0209999999999999999CN9999999N9+99999+99999999999ADDAG10999REMMET040NEW 4KT 9999 SCT020 BKN100 33/23 Q1007 ;EQDQ01+000002VOVAR Q02+000000PRSWM2
0083825640999991996012718004-05533-047450FM-12+0131SBIZ V0202301N001512200019N0200001N1+03091+02511999999ADDAA106000091AG10018AY191061AY291061GF106991041091008001001041MW1171REMSYN005 333;
0106825640999991996012719004-05533-047450FM-15+0131SBIZ V0209999999999999999CN9999999N9+99999+99999999999ADDAG10999REMMET052NEW 4KT 9999 TS SCT020 SCT025CB BKN100 31/24 Q1005 ;EQDQ01+000002VOVAR Q02+000000PRSWM2
0097825640999991996012720004-05533-047450FM-15+0131SBIZ V0209991C00001999999CN9999999N9+99999+99999999999ADDAG10999REMMET043NEW 3KT 9999 SCT020 OVC300 30/26 Q1004 RETSEQDQ01+000002VOVAR Q02+000000PRSWM2
0118825640999991996012721004-05533-047450FM-15+0131SBIZ V0202721N99999999999CN9999999N9+99999+99999999999ADDAG10000REMMET032NEW 0KT 9999 FEW020 BKN300 29/23EQDQ01+005143WOSPD Q02+000002VOVAR Q03+000000PRSWM2Q040005143WOSPD 
0110825640999991996012722004-05533-047450FM-15+0131SBIZ V0202721N99999999999CN9999999N9+99999+99999999999ADDAG10999REMMET040NEW 0KT 9999 FEW020 BKN300 28/22 Q1006 ;EQDQ01+010291WOSPD Q02+000002VOVAR Q03+000000PRSWM2
0102825640999991996012800004-05533-047450FM-12+0131SBIZ V0209991C00001220001CN0200001N1+02701+02501999999ADDAA106000091AG10018AY191061AY291061GF104991041091008001001001KA1999M+03231MW1131REMSYN011 333 10323;
0081825640999991996012808004-05533-047450FM-15+0131SBIZ V0209999999999999999CN9999999N9+99999+99999999999ADDAG10999REMMET027NEW 4KT CAVOK 23/22 Q1006 ;EQDQ01+000002VOVAR Q02+000000PRSWM2
0081825640999991996012810004-05533-047450FM-15+0131SBIZ V0209991C00001999999CN9999999N9+99999+99999999999ADDAG10999REMMET027NEW 6KT CAVOK 22/22 Q1008 ;EQDQ01+000002VOVAR Q02+000000PRSWM2
0097825640999991996012811004-05533-047450FM-15+0131SBIZ V0202811N99999999999CN9999999N9+99999+99999999999ADDAG10999REMMET027NEW 6KT CAVOK 25/22 Q1009 ;EQDQ01+005143WOSPD Q02+000002VOVAR Q03+000000PRSWM2
0137825640999991996012812004-05533-047450SY-MT+0131SBIZ V0201401N001510075019N0200001N1+02671+02311999999ADDAA106000091AG10000GF108991081051008001999999KA1999N+02281REMSYN011 333 20228;MET032NEW 3KT 9999 BKN020 27/22 Q1010;EQDQ01+000000PRSWM2
0094825640999991996012816004-05533-047450FM-15+0131SBIZ V0209999999999999999CN9999999N9+99999+99999999999ADDAG10999REMMET040NEW 3KT 9999 SCT020 SCT300 32/22 Q1008 ;EQDQ01+000002VOVAR Q02+000000PRSWM2
0094825640999991996012817004-05533-047450FM-15+0131SBIZ V0209999999999999999CN9999999N9+99999+99999999999ADDAG10999REMMET040NEW 3KT 9999 SCT020 SCT300 33/22 Q1007 ;EQDQ01+000002VOVAR Q02+000000PRSWM2
0094825640999991996012818004-05533-047450FM-15+0131SBIZ V0209999999999999999CN9999999N9+99999+99999999999ADDAG10000REMMET040NEW 6KT 9999 SCT020 SCT300 34/22 Q1006 ;EQDQ01+000002VOVAR Q02+000000PRSWM2
0096825640999991996012900004-05533-047450FM-12+0131SBIZ V0209991C00001220001CN0200001N1+02861+02481999999ADDAA106000091AG10000GA1001+999999999GF100991001001999999001001KA1999M+03411REMSYN011 333 10341;
0081825640999991996012909004-05533-047450FM-15+0131SBIZ V0209999999999999999CN9999999N9+99999+99999999999ADDAG10000REMMET027NEW 0KT CAVOK 23/22 Q1007 ;EQDQ01+000002VOVAR Q02+000000PRSWM2
0081825640999991996012910004-05533-047450FM-15+0131SBIZ V0209991C00001999999CN9999999N9+99999+99999999999ADDAG10999REMMET027NEW 0KT CAVOK 23/22 Q1008 ;EQDQ01+000002VOVAR Q02+000000PRSWM2
0097825640999991996012911004-05533-047450FM-15+0131SBIZ V0202911N99999999999CN9999999N9+99999+99999999999ADDAG10999REMMET027NEW 4KT CAVOK 26/23 Q1009 ;EQDQ01+005143WOSPD Q02+000002VOVAR Q03+000000PRSWM2
0145825640999991996012912004-05533-047450SY-MT+0131SBIZ V0200501N00151220001CN0200001N1+02751+02361999999ADDAA106000091AG10000GF103991031031008001001001KA1999N+02361REMSYN011 333 20236;MET040NEW 8KT 9999 SCT016 SCT300 27/23 Q1009 ;EQDQ01+000000PRSWM2
0102825640999991996012913004-05533-047450FM-15+0131SBIZ V0202911N99999999999CN9999999N9+99999+99999999999ADDAG10999REMMET032NEW 4KT 9999 BKN020 29/24 Q1009;EQDQ01+015431WOSPD Q02+000002VOVAR Q03+000000PRSWM2
0086825640999991996012915004-05533-047450FM-15+0131SBIZ V0209999999999999999CN9999999N9+99999+99999999999ADDAG10000REMMET032NEW 7KT 9999 BKN020 31/23 Q1009;EQDQ01+000002VOVAR Q02+000000PRSWM2
0086825640999991996012916004-05533-047450FM-15+0131SBIZ V0209999999999999999CN9999999N9+99999+99999999999ADDAG10999REMMET032NEW 5KT 9999 SCT020 32/23 Q1009;EQDQ01+000002VOVAR Q02+000000PRSWM2
0091825640999991996012917004-05533-047450FM-15+0131SBIZ V0209999999999999999CN9999999N9+99999+99999999999ADDAG10999REMMET037NEW 3KT 9999 -RA SCT020 31/24 Q1008 ;EQDQ01+000002VOVAR Q02+000000PRSWM2
0128825640999991996012918004-05533-047450SY-MT+0131SBIZ V0200501N002610075019N0200001N1+03241+02361999999ADDAA106000091AG10000GF106991061021008001001001REMSYN005 333;MET042NEW 2KT 9999 SCT020 FEW030CB 32/23 Q1006 ;EQDQ01+000000PRSWM2
0115825640999991996012920004-05533-047450FM-15+0131SBIZ V0209991C00001999999CN9999999N9+99999+99999999999ADDAG10999REMMET061NEW 1KT 9999 FEW020 FEW030CB SCT100 BKN300 26/21 Q1007 RETS ;EQDQ01+000002VOVAR Q02+000000PRSWM2
0110825640999991996012922004-05533-047450FM-15+0131SBIZ V0202921N99999999999CN9999999N9+99999+99999999999ADDAG10999REMMET040NEW 6KT 9999 FEW020 BKN300 26/22 Q1007 ;EQDQ01+010291WOSPD Q02+000002VOVAR Q03+000000PRSWM2
0081825640999991996013009004-05533-047450FM-15+0131SBIZ V0209999999999999999CN9999999N9+99999+99999999999ADDAG10000REMMET027NEW 0KT CAVOK 22/22 Q1010 ;EQDQ01+000002VOVAR Q02+000000PRSWM2
0097825640999991996013011004-05533-047450FM-15+0131SBIZ V0203011N99999999999CN9999999N9+99999+99999999999ADDAG10999REMMET027NEW 0KT CAVOK 25/22 Q1011 ;EQDQ01+005143WOSPD Q02+000002VOVAR Q03+000000PRSWM2
0132825640999991996013012004-05533-047450SY-MT+0131SBIZ V0200501N00151220001CN0200001N1+02761+02321999999ADDAA106000091AG10000GF105991031011008001001011KA1999N+02261REMSYN011 333 20226;MET027NEW 3KT CAVOK 28/23 Q1011 ;EQDQ01+000000PRSWM2
0102825640999991996013013004-05533-047450FM-15+0131SBIZ V0203011N99999999999CN9999999N9+99999+99999999999ADDAG10999REMMET032NEW 7KT 9999 BKN017 30/23 Q1012;EQDQ01+015431WOSPD Q02+000002VOVAR Q03+000000PRSWM2
0086825640999991996013014004-05533-047450FM-15+0131SBIZ V0209999999999999999CN9999999N9+99999+99999999999ADDAG10999REMMET032NEW 7KT 9999 BKN018 30/23 Q1011;EQDQ01+000002VOVAR Q02+000000PRSWM2
0086825640999991996013015004-05533-047450FM-15+0131SBIZ V0209999999999999999CN9999999N9+99999+99999999999ADDAG10000REMMET032NEW 3KT 9999 BKN020 31/24 Q1011;EQDQ01+000002VOVAR Q02+000000PRSWM2
0086825640999991996013016004-05533-047450FM-15+0131SBIZ V0209999999999999999CN9999999N9+99999+99999999999ADDAG10999REMMET032NEW 4KT 9999 BKN020 32/24 Q1010;EQDQ01+000002VOVAR Q02+000000PRSWM2
0086825640999991996013017004-05533-047450FM-15+0131SBIZ V0209999999999999999CN9999999N9+99999+99999999999ADDAG10999REMMET032NEW 4KT 9999 BKN020 34/24 Q1008;EQDQ01+000002VOVAR Q02+000000PRSWM2
0118825640999991996013018004-05533-047450SY-MT+0131SBIZ V0201401N001510075019N0200001N1+03331+02281999999ADDAA106000091AG10000GF105991051021008001001001REMSYN005 333;MET032NEW 3KT 9999 SCT020 34/23 Q1007;EQDQ01+000000PRSWM2
0091825640999991996013019004-05533-047450FM-15+0131SBIZ V0209999999999999999CN9999999N9+99999+99999999999ADDAG10999REMMET037NEW 4KT 9999 -RA SCT020 31/25 Q1006 ;EQDQ01+000002VOVAR Q02+000000PRSWM2
0086825640999991996013020004-05533-047450FM-15+0131SBIZ V0209991C00001999999CN9999999N9+99999+99999999999ADDAG10999REMMET032NEW 6KT 9999 SCT020 32/24 Q1006;EQDQ01+000002VOVAR Q02+000000PRSWM2
0092825640999991996013100004-05533-047450FM-12+0131SBIZ V0200501N001510075019N0200001N1+02431+02191999999ADDAA106000591AG10000GF108991061091008001021999KA1240M+03351MW1211REMSYN017 333 10335 69941;
0114825640999991996013111004-05533-047450FM-15+0131SBIZ V0203111N99999999999CN9999999N9+99999+99999999999ADDAG10999REMMET044NEW 5KT 9999 SCT015 SCT020 BKN300 24/23 Q101EQDQ01+005143WOSPD Q02+000002VOVAR Q03+000000PRSWM2
0149825640999991996013112004-05533-047450SY-MT+0131SBIZ V0203201N00101220001CN0200001N1+02431+02371999999ADDAA124003091AG10000GF104991041021008001001001KA1240N+02281MW1001REMSYN017 333 20228 60034;MET032NEW 0KT 9999 FEW020 BKN100 25/23EQDQ01+000000PRSWM2
0086825640999991996013114004-05533-047450FM-15+0131SBIZ V0209999999999999999CN9999999N9+99999+99999999999ADDAG10999REMMET032NEW 5KT 9999 BKN020 28/24 Q1012;EQDQ01+000002VOVAR Q02+000000PRSWM2
0098825640999991996013115004-05533-047450FM-15+0131SBIZ V0209999999999999999CN9999999N9+99999+99999999999ADDAG10000REMMET044NEW 6KT 9999 FEW015 SCT020 BKN100 30/25 Q101EQDQ01+000002VOVAR Q02+000000PRSWM2
0098825640999991996013116004-05533-047450FM-15+0131SBIZ V0209999999999999999CN9999999N9+99999+99999999999ADDAG10999REMMET044NEW 6KT 9999 SCT020 SCT100 OVC300 30/24 Q101EQDQ01+000002VOVAR Q02+000000PRSWM2
0154825640999991996013118004-05533-047450SY-MT+0131SBIZ V0203201N001010075019N0200001N1+02671+02411999999ADDAA106000591AG10000GF108991081051008001999999MW1001REMSYN011 333 69941;MET056NEW 6KT 9999 TS SCT015 BKN020 SCT025CB BKN300 26/24 Q100EQDQ01+000000PRSWM2
0106825640999991996013119004-05533-047450FM-15+0131SBIZ V0209999999999999999CN9999999N9+99999+99999999999ADDAG10999REMMET052NEW 3KT 9999 FEW015 SCT020 BKN100 26/25 Q1008 RETS ;EQDQ01+000002VOVAR Q02+000000PRSWM2
0102825640999991996020100004-05533-047450FM-12+0131SBIZ V0209991C00001220001CN0200001N1+02521+02431999999ADDAA106000191AG10000GA1001+999999999GF100991001001999999001001KA1240M+03011REMSYN017 333 10301 69911;
0094825640999991996020109004-05533-047450FM-15+0131SBIZ V0209999999999999999CN9999999N9+99999+99999999999ADDAG10000REMMET040NEW 0KT 9999 FEW015 OVC300 22/22 Q1010 ;EQDQ01+000002VOVAR Q02+000000PRSWM2
0098825640999991996020110004-05533-047450FM-15+0131SBIZ V0209991C00001999999CN9999999N9+99999+99999999999ADDAG10999REMMET044NEW 0KT 9999 SCT015 BKN100 OVC300 23/22 Q101EQDQ01+000002VOVAR Q02+000000PRSWM2
0113825640999991996020111004-05533-047450FM-15+0131SBIZ V0200111N99999999999CN9999999N9+99999+99999999999ADDAG10999REMMET027NEW 3KT CAVOK 24/22 Q1011 ;EQDQ01+005143WOSPD Q02+000002VOVAR Q03+000000PRSWM2Q040005143WOSPD 
0097825640999991996020112004-05533-047450FM-15+0131SBIZ V0200111N99999999999CN9999999N9+99999+99999999999ADDAG10000REMMET027NEW 2KT CAVOK 26/23 Q1011 ;EQDQ01+010291WOSPD Q02+000002VOVAR Q03+000000PRSWM2
0086825640999991996020117004-05533-047450FM-15+0131SBIZ V0209999999999999999CN9999999N9+99999+99999999999ADDAG10999REMMET032NEW 6KT 9999 BKN020 32/23 Q1009;EQDQ01+000002VOVAR Q02+000000PRSWM2
0103825640999991996020120004-05533-047450FM-15+0131SBIZ V0209991C00001999999CN9999999N9+99999+99999999999ADDAG10999REMMET049NEW 3KT 9999 SCT020 FEW030CB BKN300 29/24 Q1006 ;EQDQ01+000002VOVAR Q02+000000PRSWM2
0110825640999991996020121004-05533-047450FM-15+0131SBIZ V0200121N99999999999CN9999999N9+99999+99999999999ADDAG10000REMMET040NEW 7KT 9999 FEW020 BKN300 29/24 Q1007 ;EQDQ01+005143WOSPD Q02+000002VOVAR Q03+000000PRSWM2
0102825640999991996020200004-05533-047450FM-12+0131SBIZ V0209991C00001220001CN0200001N1+02551+02271999999ADDAA106000391AG10000GA1001+999999999GF100991001001999999001001KA1240M+03301REMSYN017 333 10330 69931;
0097825640999991996020209004-05533-047450FM-15+0131SBIZ V0209999999999999999CN9999999N9+99999+99999999999ADDAG10000REMMET043NEW 0KT 5000 BR SCT015 BKN300 23/23 Q1010 ;EQDQ01+000002VOVAR Q02+000000PRSWM2
0084825640999991996020210004-05533-047450FM-15+0131SBIZ V0209991C00001999999CN9999999N9+99999+99999999999ADDAG10999REMMET030NEW 0KT 5000 BR SCT015 BKN300;EQDQ01+000002VOVAR Q02+000000PRSWM2
0151825640999991996020212004-05533-047450SY-MT+0131SBIZ V0203601N001510075019N0200001N1+02671+02461999999ADDAA124000591AG10000GF108991081071008001999999KA1240N+02461REMSYN017 333 20246 69954;MET040NEW 4KT 9999 BKN020 BKN300 27/23 Q1012 ;EQDQ01+000000PRSWM2
0098825640999991996020214004-05533-047450FM-15+0131SBIZ V0209999999999999999CN9999999N9+99999+99999999999ADDAG10999REMMET044NEW 2KT 9999 SCT015 BKN020 BKN300 29/22 Q101EQDQ01+000002VOVAR Q02+000000PRSWM2
0094825640999991996020216004-05533-047450FM-15+0131SBIZ V0209999999999999999CN9999999N9+99999+99999999999ADDAG10999REMMET040NEW 4KT 9999 BKN020 BKN300 30/33 Q1011 ;EQDQ01+000002VOVAR Q02+000000PRSWM2
0094825640999991996020217004-05533-047450FM-15+0131SBIZ V0209999999999999999CN9999999N9+99999+99999999999ADDAG10999REMMET040NEW 0KT 9999 BKN020 BKN300 32/24 Q1010 ;EQDQ01+000002VOVAR Q02+000000PRSWM2
0073825640999991996020218004-05533-047450FM-12+0131SBIZ V0202701N00151007501CN0200001N1+02871+02521999999ADDAA106002091AG10000GF107991071091008001001001MW1211REMSYN011 333 60021;
0106825640999991996020220004-05533-047450FM-15+0131SBIZ V0209991C00001999999CN9999999N9+99999+99999999999ADDAG10999REMMET052NEW 8KT 9999 TS FEW020 FEW023CB SCT300 30/23 Q1007 ;EQDQ01+000002VOVAR Q02+000000PRSWM2
0126825640999991996020221004-05533-047450FM-15+0131SBIZ V0200221N99999999999CN9999999N9+99999+99999999999ADDAG10000REMMET040NEW 0KT 9999 FEW020 SCT100 28/23 Q1007 ;EQDQ01+005143WOSPD Q02+000002VOVAR Q03+000000PRSWM2Q040005143WOSPD 
0110825640999991996020222004-05533-047450FM-15+0131SBIZ V0200221N99999999999CN9999999N9+99999+99999999999ADDAG10999REMMET040NEW 0KT 9999 FEW020 BKN100 27/23 Q1007 ;EQDQ01+010291WOSPD Q02+000002VOVAR Q03+000000PRSWM2
0080825640999991996020300004-05533-047450FM-12+0131SBIZ V0200501N001519999999N0200001N1+02651+02421999999ADDAA106000091AG10000GF108991081001008001011999KA1999M+03181REMSYN011 333 10318;
0094825640999991996020308004-05533-047450FM-15+0131SBIZ V0209999999999999999CN9999999N9+99999+99999999999ADDAG10999REMMET040NEW 0KT 9999 SCT010 BKN300 24/23 Q1008 ;EQDQ01+000002VOVAR Q02+000000PRSWM2
0081825640999991996020310004-05533-047450FM-15+0131SBIZ V0209991C00001999999CN9999999N9+99999+99999999999ADDAG10999REMMET027NEW 0KT CAVOK 23/23 Q1009 ;EQDQ01+000002VOVAR Q02+000000PRSWM2
0114825640999991996020311004-05533-047450FM-15+0131SBIZ V0200311N99999999999CN9999999N9+99999+99999999999ADDAG10999REMMET044NEW 0KT 6000 SCT013 SCT100 OVC300 25/24 Q101EQDQ01+005143WOSPD Q02+000002VOVAR Q03+000000PRSWM2
0155825640999991996020312004-05533-047450SY-MT+0131SBIZ V0203601N001510075019N0200001N1+02631+02411999999ADDAA124002091AG10000GF107991071021008001001001KA1240N+02361REMSYN017 333 20236 60024;MET044NEW 3KT 8000 SCT013 SCT017 OVC300 27/23 Q101EQDQ01+000000PRSWM2
0110825640999991996020313004-05533-047450FM-15+0131SBIZ V0200311N99999999999CN9999999N9+99999+99999999999ADDAG10999REMMET040NEW 0KT 9999 SCT017 OVC300 28/24 Q1011 ;EQDQ01+015431WOSPD Q02+000002VOVAR Q03+000000PRSWM2
0094825640999991996020315004-05533-047450FM-15+0131SBIZ V0209999999999999999CN9999999N9+99999+99999999999ADDAG10000REMMET040NEW 5KT 9999 BKN020 BKN300 30/23 Q1011 ;EQDQ01+000002VOVAR Q02+000000PRSWM2
0098825640999991996020317004-05533-047450FM-15+0131SBIZ V0209999999999999999CN9999999N9+99999+99999999999ADDAG10999REMMET044NEW 2KT 9999 FEW015 SCT020 OVC300 31/22 Q100EQDQ01+000002VOVAR Q02+000000PRSWM2
0164825640999991996020318004-05533-047450SY-MT+0131SBIZ V0202301N002610450019N0200001N1+03141+02601999999ADDAA106000091AG10020AY191061AY291061GF106991041091008001071001MW1171REMSYN005 333;MET056NEW 4KT 9999 TS FEW020 FEW025CB SCT100 BKN300 32/24 Q100EQDQ01+000000PRSWM2
0110825640999991996020319004-05533-047450FM-15+0131SBIZ V0209999999999999999CN9999999N9+99999+99999999999ADDAG10999REMMET056NEW 4KT 9999 TS SCT015 SCT020 SCT025CB OVC300 3 2/23 Q10EQDQ01+000002VOVAR Q02+000000PRSWM2
0148825640999991996020321004-05533-047450FM-15+0131SBIZ V0200321N99999999999CN9999999N9+99999+99999999999ADDAG10000REMMET062NEW 6KT 9999 -TSRA SCT015 SCT020 FEW025CB OVC300 26/22 Q1007 ;EQDQ01+005143WOSPD Q02+000002VOVAR Q03+000000PRSWM2Q040005143WOSPD 
0126825640999991996020322004-05533-047450FM-15+0131SBIZ V0200321N99999999999CN9999999N9+99999+99999999999ADDAG10999REMMET056NEW 6KT 9999 TS SCT015 SCT020 FEW025CB OVC300 25/22 Q100EQDQ01+010291WOSPD Q02+000002VOVAR Q03+000000PRSWM2
0102825640999991996020400004-05533-047450FM-12+0131SBIZ V0209991C000010450019N0200001N1+02571+02361999999ADDAA106000091AG10020AY191061AY291061GF108991041091008001011999KA1999M+03161MW1131REMSYN011 333 10316;
0094825640999991996020409004-05533-047450FM-15+0131SBIZ V0209999999999999999CN9999999N9+99999+99999999999ADDAG10000REMMET040NEW 0KT 9999 SCT015 BKN300 24/23 Q1009 ;EQDQ01+000002VOVAR Q02+000000PRSWM2
0102825640999991996020411004-05533-047450FM-15+0131SBIZ V0200411N99999999999CN9999999N9+99999+99999999999ADDAG10999REMMET032NEW 5KT 9999 SCT015 BKN100 BKN30EQDQ01+005143WOSPD Q02+000002VOVAR Q03+000000PRSWM2
0092825640999991996020412004-05533-047450FM-12+0131SBIZ V0201401N001519999999N0200001N1+02531+02361999999ADDAA124002091AG10000GF108991081001008001071999KA1240N+02341MW1211REMSYN017 333 20234 60024;
0090825640999991996020413004-05533-047450FM-15+0131SBIZ V0209991C00001030001CN0112651N1+02901+02401999999ADDAG10999GA1021+006009999GA2071+030009999MA1101191999999REMMET005NEW ;EQDQ01+000000PRSWM2
0094825640999991996020414004-05533-047450FM-15+0131SBIZ V0209999999999999999CN9999999N9+99999+99999999999ADDAG10999REMMET040NEW 0KT 9999 BKN020 BKN100 30/24 Q1012 ;EQDQ01+000002VOVAR Q02+000000PRSWM2
0098825640999991996020415004-05533-047450FM-15+0131SBIZ V0209999999999999999CN9999999N9+99999+99999999999ADDAG10000REMMET044NEW 6KT 9999 SCT015 BKN020 BKN100 29/24 Q101EQDQ01+000002VOVAR Q02+000000PRSWM2
0110825640999991996020416004-05533-047450FM-15+0131SBIZ V0209999999999999999CN9999999N9+99999+99999999999ADDAG10999REMMET056NEW 4KT 9999 TS SCT015 BKN020 FEW025CB BKN100 30/23 Q101EQDQ01+000002VOVAR Q02+000000PRSWM2
0110825640999991996020417004-05533-047450FM-15+0131SBIZ V0209999999999999999CN9999999N9+99999+99999999999ADDAG10999REMMET056NEW 3KT 9999 TS FEW020 FEW025CB SCT100 BKN300 31/23 Q100EQDQ01+000002VOVAR Q02+000000PRSWM2
0135825640999991996020418004-05533-047450SY-MT+0131SBIZ V0203201N001510075019N0200001N1+03111+02511999999ADDAA106000091AG10000GF106991061091008001001001MW1001REMSYN005 333;MET043NEW 1KT 9999 FEW020 BKN300 32/24 Q1007 RETSEQDQ01+000000PRSWM2
0086825640999991996020500004-05533-047450FM-12+0131SBIZ V0209991C000010075019N0200001N1+02471+02381999999ADDAA106016091AG10000GF108991081071008001999999KA1240M+03161REMSYN017 333 10316 60161;
0098825640999991996020509004-05533-047450FM-15+0131SBIZ V0209999999999999999CN9999999N9+99999+99999999999ADDAG10000REMMET044NEW 4KT 9999 SCT015 BKN100 OVC300 23/23 Q101EQDQ01+000002VOVAR Q02+000000PRSWM2
0110825640999991996020511004-05533-047450FM-15+0131SBIZ V0200511N99999999999CN9999999N9+99999+99999999999ADDAG10999REMMET040NEW 4KT 9999 BKN015 BKN100 24/23 Q1011 ;EQDQ01+005143WOSPD Q02+000002VOVAR Q03+000000PRSWM2
0143825640999991996020512004-05533-047450SY-MT+0131SBIZ V0209991C000010075019N0200001N1+02431+02371999999ADDAA124017091AG10000GF108991081071008001999999KA1240N+02301REMSYN017 333 20230 60174;MET032NEW 2KT 9999 SCT015 SCT020 BKN10EQDQ01+000000PRSWM2
0102825640999991996020513004-05533-047450FM-15+0131SBIZ V0200511N99999999999CN9999999N9+99999+99999999999ADDAG10999REMMET032NEW 6KT 9999 SCT015 SCT020 BKN10EQDQ01+015431WOSPD Q02+000002VOVAR Q03+000000PRSWM2
0098825640999991996020514004-05533-047450FM-15+0131SBIZ V0209999999999999999CN9999999N9+99999+99999999999ADDAG10999REMMET044NEW 2KT 9999 FEW015 SCT020 OVC300 28/23 Q101EQDQ01+000002VOVAR Q02+000000PRSWM2
0086825640999991996020515004-05533-047450FM-15+0131SBIZ V0209999999999999999CN9999999N9+99999+99999999999ADDAG10000REMMET032NEW 7KT 9999 FEW015 SCT020 OVC30EQDQ01+000002VOVAR Q02+000000PRSWM2
0094825640999991996020517004-05533-047450FM-15+0131SBIZ V0209999999999999999CN9999999N9+99999+99999999999ADDAG10999REMMET040NEW 5KT 9999 SCT020 OVC300 29/24 Q1011 ;EQDQ01+000002VOVAR Q02+000000PRSWM2
0115825640999991996020518004-05533-047450SY-MT+0131SBIZ V0202301N001510075019N0200001N1+02991+02391999999ADDAA106000091AG10000GF106991061021008001001001REMMET040NEW 5KT 9999 SCT020 BKN300 31/23 Q1009 ;EQDQ01+000000PRSWM2
0094825640999991996020519004-05533-047450FM-15+0131SBIZ V0209999999999999999CN9999999N9+99999+99999999999ADDAG10999REMMET040NEW 5KT 9999 SCT020 BKN300 31/23 Q1008 ;EQDQ01+000002VOVAR Q02+000000PRSWM2
0094825640999991996020520004-05533-047450FM-15+0131SBIZ V0209991C00001999999CN9999999N9+99999+99999999999ADDAG10999REMMET040NEW 0KT 9999 SCT020 BKN300 31/24 Q1008 ;EQDQ01+000002VOVAR Q02+000000PRSWM2
0114825640999991996020521004-05533-047450FM-15+0131SBIZ V0200521N99999999999CN9999999N9+99999+99999999999ADDAG10000REMMET044NEW 0KT 9999 SCT015 SCT020 BKN300 30/24 Q100EQDQ01+005143WOSPD Q02+000002VOVAR Q03+000000PRSWM2
0108825640999991996020600004-05533-047450FM-12+0131SBIZ V0209991C000010075019N0200001N1+02491+02401999999ADDAA106004091AG10020AY191061AY261061GF108991081091008001999999KA1240M+03061MW1131REMSYN017 333 10306 60041;
0098825640999991996020609004-05533-047450FM-15+0131SBIZ V0209999999999999999CN9999999N9+99999+99999999999ADDAG10000REMMET044NEW 5KT 8000 -RA SCT010 OVC080 21/21 Q1010 ;EQDQ01+000002VOVAR Q02+000000PRSWM2
0098825640999991996020610004-05533-047450FM-15+0131SBIZ V0209991C00001999999CN9999999N9+99999+99999999999ADDAG10999REMMET044NEW 2KT 9999 SCT010 BKN080 OVC300 22/21 Q101EQDQ01+000002VOVAR Q02+000000PRSWM2
0114825640999991996020611004-05533-047450FM-15+0131SBIZ V0200611N99999999999CN9999999N9+99999+99999999999ADDAG10999REMMET044NEW 2KT 9999 FEW010 BKN100 BKN300 24/21 Q101EQDQ01+005143WOSPD Q02+000002VOVAR Q03+000000PRSWM2
0086825640999991996020612004-05533-047450FM-12+0131SBIZ V0200901N001510450019N0200001N1+02511+02401999999ADDAA124034091AG10000GF105991021011008001041001KA1240N+02141REMSYN017 333 20214 60344;
0110825640999991996020613004-05533-047450FM-15+0131SBIZ V0200611N99999999999CN9999999N9+99999+99999999999ADDAG10999REMMET040NEW 3KT 9999 FEW020 BKN100 28/22 Q1013 ;EQDQ01+015431WOSPD Q02+000002VOVAR Q03+000000PRSWM2
0094825640999991996020616004-05533-047450FM-15+0131SBIZ V0209999999999999999CN9999999N9+99999+99999999999ADDAG10999REMMET040NEW 0KT 9999 SCT020 SCT300 32/22 Q1012 ;EQDQ01+000002VOVAR Q02+000000PRSWM2
0095825640999991996020617004-05533-047450FM-15+0131SBIZ V0209999999999999999CN9999999N9+99999+99999999999ADDAG10999REMMET041NEW 2KT 9999 FEW020 BKN100 32/22 Q10100 ;EQDQ01+000002VOVAR Q02+000000PRSWM2
0115825640999991996020618004-05533-047450SY-MT+0131SBIZ V0200901N001510450019N0200001N1+02881+02351999999ADDAA106000091AG10000GF106991031011008001021001REMMET040NEW 6KT 9999 SCT020 BKN100 32/22 Q1008 ;EQDQ01+000000PRSWM2
0106825640999991996020619004-05533-047450FM-15+0131SBIZ V0200501N00101030001CN0112651N1+03201+02201999999ADDAG10999GA1021+004509999GA2021+006009999GA3071+030009999MA1100711999999REMMET005NEW ;EQDQ01+000000PRSWM2
0078825640999991996020620004-05533-047450FM-15+0131SBIZ V0209991C00001999999CN0009001N1+99999+99999999999ADDAG10999REMMET040NEW 8KT 9999 SCT020 BKN100 30/22 Q1007 ;EQDQ01+000000PRSWM2
0126825640999991996020621004-05533-047450FM-15+0131SBIZ V0200621N99999999999CN9999999N9+99999+99999999999ADDAG10000REMMET040NEW 4KT 9999 FEW020 BKN100 29/24 Q1008 ;EQDQ01+005143WOSPD Q02+000002VOVAR Q03+000000PRSWM2Q040005143WOSPD 
0114825640999991996020622004-05533-047450FM-15+0131SBIZ V0200621N99999999999CN9999999N9+99999+99999999999ADDAG10999REMMET044NEW 6KT 9999 FEW020 SCT100 OVC300 28/24 Q100EQDQ01+010291WOSPD Q02+000002VOVAR Q03+000000PRSWM2
0080825640999991996020700004-05533-047450FM-12+0131SBIZ V0203601N001510075019N0200001N1+02571+02401999999ADDAA106000091AG10000GF108991081071008001999999KA1999M+03051REMSYN011 333 10305;
0094825640999991996020708004-05533-047450FM-15+0131SBIZ V0209999999999999999CN9999999N9+99999+99999999999ADDAG10999REMMET040NEW 0KT 9999 FEW018 BKN300 23/22 Q1009 ;EQDQ01+000002VOVAR Q02+000000PRSWM2
0081825640999991996020709004-05533-047450FM-15+0131SBIZ V0209999999999999999CN9999999N9+99999+99999999999ADDAG10000REMMET027NEW 0KT CAVOK 23/22 Q1010 ;EQDQ01+000002VOVAR Q02+000000PRSWM2
0097825640999991996020711004-05533-047450FM-15+0131SBIZ V0200711N99999999999CN9999999N9+99999+99999999999ADDAG10999REMMET027NEW 0KT CAVOK 24/23 Q1012 ;EQDQ01+005143WOSPD Q02+000002VOVAR Q03+000000PRSWM2
0080825640999991996020712004-05533-047450FM-12+0131SBIZ V0200901N001519999999N0200001N1+02511+02311999999ADDAA106000091AG10000GF108991081001008001011999KA1999N+02321REMSYN011 333 20232;
0098825640999991996020714004-05533-047450FM-15+0131SBIZ V0209999999999999999CN9999999N9+99999+99999999999ADDAG10999REMMET044NEW 4KT 9999 FEW017 BKN100 OVC300 29/24 Q101EQDQ01+000002VOVAR Q02+000000PRSWM2
0108825640999991996020717004-05533-047450FM-15+0131SBIZ V0209999999999999999CN9999999N9+99999+99999999999ADDAG10999REMMET054NEW 6KT TS SCT015 SCT020 SCT025CB OVC300 31/24 Q1010 ;EQDQ01+000002VOVAR Q02+000000PRSWM2
0180825640999991996020718004-05533-047450SY-MT+0131SBIZ V0200901N00151007501CN0100001N1+02951+02521999999ADDAA106999999AG10020AY191061AY291061GF108991081091008001999999MW1271REMSYN005 333;MET056NEW 4KT 9999 TS FEW015 SCT020 SCT025CB OVC300 30/24 Q100EQDQ01+000000PRSWM2Q02  00002PRCP06
0102825640999991996020723004-05533-047450FM-15+0131SBIZ V0200721N99999999999CN9999999N9+99999+99999999999ADDAG10999REMMET032NEW 9999 FEW020 OVC300 24/23 Q10EQDQ01+015431WOSPD Q02+000002VOVAR Q03+000000PRSWM2
0096825640999991996020800004-05533-047450FM-12+0131SBIZ V0209991C000019999999N0200001N1+02481+02321999999ADDAA106000091AG10000GA1091+999999999GF109991091999999999999999KA1999M+03061REMSYN011 333 10306;
0081825640999991996020810004-05533-047450FM-15+0131SBIZ V0209991C00001999999CN9999999N9+99999+99999999999ADDAG10999REMMET027NEW 6KT CAVOK 23/23 Q1011 ;EQDQ01+000002VOVAR Q02+000000PRSWM2
0110825640999991996020811004-05533-047450FM-15+0131SBIZ V0200811N05142999999CN9999999N9+99999+99999999999ADDAG10999REMMET040NEW 0KT 9999 FEW015 BKN300 25/24 Q1011 ;EQDQ01+005143WOSPD Q02+000002VOVAR Q03+000000PRSWM2
0047825640999991996020818004-05533-047450FM-12+0131SBIZ V0200901N00261007501CN0200001N1+03351+02401999999ADDAA106000091AG10000GF105991051021008001001001
0110825640999991996020822004-05533-047450FM-15+0131SBIZ V0200821N99999999999CN9999999N9+99999+99999999999ADDAG10999REMMET040NEW 0KT 9999 FEW020 BKN300 29/23 Q1007 ;EQDQ01+010291WOSPD Q02+000002VOVAR Q03+000000PRSWM2
0137825640999991996020912004-05533-047450SY-MT+0131SBIZ V0203601N001510075019N0200001N1+02711+02411999999ADDAA106000091AG10000GF105991051021008001001001KA1999N+02401REMSYN011 333 20240;MET032NEW 8KT 9999 BKN020 27/24 Q1012;EQDQ01+000000PRSWM2
0102825640999991996020913004-05533-047450FM-15+0131SBIZ V0200911N99999999999CN9999999N9+99999+99999999999ADDAG10999REMMET032NEW 4KT 9999 BKN020 30/24 Q1012;EQDQ01+015431WOSPD Q02+000002VOVAR Q03+000000PRSWM2
0086825640999991996020914004-05533-047450FM-15+0131SBIZ V0209999999999999999CN9999999N9+99999+99999999999ADDAG10999REMMET032NEW 1KT 9999 BKN020 30/24 Q1012;EQDQ01+000002VOVAR Q02+000000PRSWM2
0086825640999991996020916004-05533-047450FM-15+0131SBIZ V0209999999999999999CN9999999N9+99999+99999999999ADDAG10999REMMET032NEW 3KT 9999 BKN020 33/23 Q1010;EQDQ01+000002VOVAR Q02+000000PRSWM2
0070825640999991996020917004-05533-047450FM-15+0131SBIZ V0209999999999999999CN0007001N1+99999+99999999999ADDAG10999REMMET032NEW 6KT 9999 SCT020 34/23 Q1009;EQDQ01+000000PRSWM2
0153825640999991996020918004-05533-047450SY-MT+0131SBIZ V0201401N001519999999N0200001N1+02831+02541999999ADDAA106000091AG10000GF106991999999008001999999REMSYN011 333 86300;MET061NEW 6KT 120V180 8000 -RA BKN020 FEW025CB BKN300 31/22 Q1008 ;EQDQ01+000000PRSWM2
0082825640999991996020919004-05533-047450FM-15+0131SBIZ V0209999999999999999CN0018001N1+99999+99999999999ADDAG10999REMMET044NEW 4KT 9999 SCT020 SCT100 BKN300 30/23 Q100EQDQ01+000000PRSWM2
0094825640999991996020920004-05533-047450FM-15+0131SBIZ V0209991C00001999999CN9999999N9+99999+99999999999ADDAG10999REMMET040NEW 3KT 9999 SCT020 BKN300 30/23 Q1007 ;EQDQ01+000002VOVAR Q02+000000PRSWM2
0102825640999991996021000004-05533-047450FM-12+0131SBIZ V0209991C000010075019N0200001N1+02851+02561999999ADDAA106000091AG10020AY191061AY291061GF108991081091008001999999KA1999M+03371MW1131REMSYN011 333 10337;
0098825640999991996021010004-05533-047450FM-15+0131SBIZ V0209991C00001999999CN9999999N9+99999+99999999999ADDAG10999REMMET044NEW 2KT 9999 FEW010 SCT100 BKN300 25/24 Q101EQDQ01+000002VOVAR Q02+000000PRSWM2
0114825640999991996021011004-05533-047450FM-15+0131SBIZ V0201011N99999999999CN9999999N9+99999+99999999999ADDAG10999REMMET044NEW 2KT 9999 SCT010 SCT100 BKN300 26/24 Q101EQDQ01+005143WOSPD Q02+000002VOVAR Q03+000000PRSWM2
0180825640999991996021012004-05533-047450SY-MT+0131SBIZ V0203601N003610450019N0200001N1+02711+02391101001ADDAA106000091AG10000GF107991041021004501041011KA1240N+02491MA1999999099901MD1999999-0041REMSYN017 333 20249 59004;MET040NEW 6KT 9999 SCT010 BKN300 27/24 Q1012 ;EQDQ01+000000PRSWM2
0102825640999991996021013004-05533-047450FM-15+0131SBIZ V0201011N99999999999CN9999999N9+99999+99999999999ADDAG10999REMMET032NEW 3KT 9999 FEW010 BKN020 BKN30EQDQ01+015431WOSPD Q02+000002VOVAR Q03+000000PRSWM2
0086825640999991996021014004-05533-047450FM-15+0131SBIZ V0209999999999999999CN9999999N9+99999+99999999999ADDAG10999REMMET032NEW 5KT 9999 SCT020 BKN300 29/24EQDQ01+000002VOVAR Q02+000000PRSWM2
0094825640999991996021015004-05533-047450FM-15+0131SBIZ V0209999999999999999CN9999999N9+99999+99999999999ADDAG10000REMMET040NEW 8KT 9999 BKN020 BKN300 30/23 Q1012 ;EQDQ01+000002VOVAR Q02+000000PRSWM2
0094825640999991996021016004-05533-047450FM-15+0131SBIZ V0209999999999999999CN9999999N9+99999+99999999999ADDAG10999REMMET040NEW 2KT 9999 BKN020 BKN300 32/23 Q1011 ;EQDQ01+000002VOVAR Q02+000000PRSWM2
0086825640999991996021017004-05533-047450FM-15+0131SBIZ V0209999999999999999CN9999999N9+99999+99999999999ADDAG10999REMMET032NEW 5KT 9999 SCT020 32/23 Q1010;EQDQ01+000002VOVAR Q02+000000PRSWM2
0061825640999991996021018004-05533-047450FM-12+0131SBIZ V0203601N00101007501CN0200001N1+03261+02351999999ADDAA106000091AG10000GF105991051021008001001001REMSYN005 333;
0102825640999991996021100004-05533-047450FM-12+0131SBIZ V0209991C00001220001CN0200001N1+02441+02341999999ADDAA106001091AG10000GA1001+999999999GF100991001001999999001001KA1240M+03291REMSYN017 333 10329 60011;
0086825640999991996021110004-05533-047450FM-15+0131SBIZ V0209991C00001999999CN9999999N9+99999+99999999999ADDAG10999REMMET032NEW 0KT 7000 BKN300 23/23 Q1011;EQDQ01+000002VOVAR Q02+000000PRSWM2
0097825640999991996021111004-05533-047450FM-15+0131SBIZ V0201111N99999999999CN9999999N9+99999+99999999999ADDAG10999REMMET027NEW 0KT CAVOK 24/24 Q1012 ;EQDQ01+005143WOSPD Q02+000002VOVAR Q03+000000PRSWM2
0086825640999991996021112004-05533-047450FM-12+0131SBIZ V0203601N00151220001CN0200001N1+02691+02461999999ADDAA124001091AG10000GF104991041021008001001001KA1240N+02321REMSYN017 333 20232 60014;
0110825640999991996021113004-05533-047450FM-15+0131SBIZ V0201111N99999999999CN9999999N9+99999+99999999999ADDAG10999REMMET040NEW 0KT 9999 FEW015 OVC300 29/23 Q1012 ;EQDQ01+015431WOSPD Q02+000002VOVAR Q03+000000PRSWM2
0094825640999991996021115004-05533-047450FM-15+0131SBIZ V0209999999999999999CN9999999N9+99999+99999999999ADDAG10000REMMET040NEW 0KT 9999 SCT020 BKN300 31/23 Q1012 ;EQDQ01+000002VOVAR Q02+000000PRSWM2
0094825640999991996021117004-05533-047450FM-15+0131SBIZ V0209999999999999999CN9999999N9+99999+99999999999ADDAG10999REMMET040NEW 5KT 9999 SCT020 BKN300 32/22 Q1010 ;EQDQ01+000002VOVAR Q02+000000PRSWM2
0154825640999991996021118004-05533-047450SY-MT+0131SBIZ V0203201N00151090001CN0200001N1+03201+02511999999ADDAA106000091AG10000GA1021+006009999GA2071+090009999GF199999031011008001001011MA1100911999999REMSYN005 333;MET005NEW ;EQDQ01+000052SCOTCVQ02+000000PRSWM2
0094825640999991996021119004-05533-047450FM-15+0131SBIZ V0209999999999999999CN9999999N9+99999+99999999999ADDAG10999REMMET040NEW 5KT 9999 FEW020 BKN300 32/23 Q1008 ;EQDQ01+000002VOVAR Q02+000000PRSWM2
0094825640999991996021120004-05533-047450FM-15+0131SBIZ V0209991C00001999999CN9999999N9+99999+99999999999ADDAG10999REMMET040NEW 0KT 9999 FEW020 BKN300 32/22 Q1007 ;EQDQ01+000002VOVAR Q02+000000PRSWM2
0110825640999991996021123004-05533-047450FM-15+0131SBIZ V0201121N99999999999CN9999999N9+99999+99999999999ADDAG10999REMMET040NEW 0KT 9999 FEW020 BKN300 28/24 Q1009 ;EQDQ01+015431WOSPD Q02+000002VOVAR Q03+000000PRSWM2
0094825640999991996021200004-05533-047450FM-15+0131SBIZ V0209991C00001999999CN9999999N9+99999+99999999999ADDAG10000REMMET040NEW 0KT 9999 FEW020 BKN300 27/24 Q1010 ;EQDQ01+000002VOVAR Q02+000000PRSWM2
0113825640999991996021201004-05533-047450FM-15+0131SBIZ V0201201N99999999999CN9999999N9+99999+99999999999ADDAG10999REMMET027NEW 0KT CAVOK 27/24 Q1011 ;EQDQ01+005143WOSPD Q02+000002VOVAR Q03+000000PRSWM2Q040005143WOSPD 
0110825640999991996021202004-05533-047450FM-15+0131SBIZ V0201201N99999999999CN9999999N9+99999+99999999999ADDAG10999REMMET040NEW 0KT 9999 SCT015 BKN300 27/23 Q1011 ;EQDQ01+010291WOSPD Q02+000002VOVAR Q03+000000PRSWM2
0119825640999991996021203004-05533-047450FM-15+0131SBIZ V0201201N99999999999CN9999999N9+99999+99999999999ADDAG10000REMMET049NEW 3KT 9999 SCT015 FEW023CB BKN300 26/23 Q1011 ;EQDQ01+015431WOSPD Q02+000002VOVAR Q03+000000PRSWM2
0114825640999991996021211004-05533-047450FM-15+0131SBIZ V0201211N99999999999CN9999999N9+99999+99999999999ADDAG10999REMMET044NEW 0KT 9999 FEW015 SCT020 BKN300 25/22 Q101EQDQ01+005143WOSPD Q02+000002VOVAR Q03+000000PRSWM2
0161825640999991996021212004-05533-047450SY-MT+0131SBIZ V0209991C000019999999N0200001N1+02551+02291999999ADDAA124001091AG10000GF105991051001008001061001KA1240N+02401MW1001REMSYN017 333 20240 60014;MET044NEW 3KT 9999 FEW015 SCT020 BKN300 26/23 Q101EQDQ01+000000PRSWM2
0086825640999991996021215004-05533-047450FM-15+0131SBIZ V0209999999999999999CN9999999N9+99999+99999999999ADDAG10000REMMET032NEW 5KT 9999 BKN020 30/24 Q1012;EQDQ01+000002VOVAR Q02+000000PRSWM2
0094825640999991996021217004-05533-047450FM-15+0131SBIZ V0209999999999999999CN9999999N9+99999+99999999999ADDAG10999REMMET040NEW 7KT 9999 BKN020 SCT300 32/23 Q1011 ;EQDQ01+000002VOVAR Q02+000000PRSWM2
0115825640999991996021218004-05533-047450SY-MT+0131SBIZ V0203601N001512200019N0200001N1+03091+02411999999ADDAA106000091AG10000GF106991041091008001001011REMMET040NEW 9KT 9999 FEW020 BKN300 31/24 Q1009 ;EQDQ01+000000PRSWM2
0094825640999991996021219004-05533-047450FM-15+0131SBIZ V0209999999999999999CN9999999N9+99999+99999999999ADDAG10999REMMET040NEW 3KT 9999 FEW020 BKN300 32/23 Q1008 ;EQDQ01+000002VOVAR Q02+000000PRSWM2
0094825640999991996021220004-05533-047450FM-15+0131SBIZ V0209991C00001999999CN9999999N9+99999+99999999999ADDAG10999REMMET040NEW 4KT 9999 FEW020 BKN300 32/23 Q1008 ;EQDQ01+000002VOVAR Q02+000000PRSWM2
0110825640999991996021221004-05533-047450FM-15+0131SBIZ V0201221N99999999999CN9999999N9+99999+99999999999ADDAG10000REMMET040NEW 0KT 9999 FEW020 BKN300 31/23 Q1008 ;EQDQ01+005143WOSPD Q02+000002VOVAR Q03+000000PRSWM2
0094825640999991996021222004-05533-047450FM-15+0131SBIZ V0209991C00001999999CN9999999N9+99999+99999999999ADDAG10999REMMET040NEW 0KT 9999 SCT020 BKN300 29/24 Q1008 ;EQDQ01+000002VOVAR Q02+000000PRSWM2
0102825640999991996021300004-05533-047450FM-12+0131SBIZ V0209991C00001220001CN0200001N1+02841+02481999999ADDAA106000091AG10020AY191061AY291061GF103991031091008001001001KA1999M+03251MW1131REMSYN011 333 10325;
0097825640999991996021311004-05533-047450FM-15+0131SBIZ V0201311N99999999999CN9999999N9+99999+99999999999ADDAG10999REMMET027NEW 3KT CAVOK 26/23 Q1012 ;EQDQ01+005143WOSPD Q02+000002VOVAR Q03+000000PRSWM2
0137825640999991996021312004-05533-047450SY-MT+0131SBIZ V0200901N00151220001CN0200001N1+02751+02361999999ADDAA106000091AG10000GF104991021011008001031011KA1999N+02441REMSYN011 333 20244;MET032NEW 8KT 9999 SCT020 28/22 Q1013;EQDQ01+000000PRSWM2
0102825640999991996021313004-05533-047450FM-15+0131SBIZ V0201311N99999999999CN9999999N9+99999+99999999999ADDAG10999REMMET032NEW 8KT 9999 SCT020 29/23 Q1013;EQDQ01+015431WOSPD Q02+000002VOVAR Q03+000000PRSWM2
0086825640999991996021314004-05533-047450FM-15+0131SBIZ V0209999999999999999CN9999999N9+99999+99999999999ADDAG10999REMMET032NEW 5KT 9999 BKN020 30/23 Q1013;EQDQ01+000002VOVAR Q02+000000PRSWM2
0086825640999991996021315004-05533-047450FM-15+0131SBIZ V0209999999999999999CN9999999N9+99999+99999999999ADDAG10000REMMET032NEW 3KT 9999 BKN020 31/24 Q1012;EQDQ01+000002VOVAR Q02+000000PRSWM2
0086825640999991996021317004-05533-047450FM-15+0131SBIZ V0209999999999999999CN9999999N9+99999+99999999999ADDAG10999REMMET032NEW 5KT 9999 SCT020 33/24 Q1010;EQDQ01+000002VOVAR Q02+000000PRSWM2
0118825640999991996021318004-05533-047450SY-MT+0131SBIZ V0200901N001010075019N0200001N1+03271+02371999999ADDAA106000091AG10000GF107991071021008001001001REMSYN005 333;MET032NEW 0KT 9999 SCT020 33/23 Q1009;EQDQ01+000000PRSWM2
0127825640999991996021400004-05533-047450FM-12+0131SBIZ V0209991C00001220001CN0200001N1+02651+02441999999ADDAA106004091AG10020AY191061AY261061GF103991031091999999001001KA1240M+03391MW1131REMSYN017 333 10339 60041;EQDQ01+000992SCOLCB
0094825640999991996021410004-05533-047450FM-15+0131SBIZ V0209991C00001999999CN9999999N9+99999+99999999999ADDAG10999REMMET040NEW 1KT 9999 BKN017 BKN300 25/24 Q1011 ;EQDQ01+000002VOVAR Q02+000000PRSWM2
0097825640999991996021411004-05533-047450FM-15+0131SBIZ V0201411N99999999999CN9999999N9+99999+99999999999ADDAG10999REMMET027NEW 4KT CAVOK 26/23 Q1011 ;EQDQ01+005143WOSPD Q02+000002VOVAR Q03+000000PRSWM2
0161825640999991996021412004-05533-047450SY-MT+0131SBIZ V0203601N002612200019N0200001N1+02711+02501999999ADDAA124019091AG10000GF106991041021008001001011KA1240N+02401MW1001REMSYN017 333 20240 60194;MET044NEW 9KT 9999 SCT017 SCT100 OVC300 27/23 Q101EQDQ01+000000PRSWM2
0094825640999991996021414004-05533-047450FM-15+0131SBIZ V0209999999999999999CN9999999N9+99999+99999999999ADDAG10999REMMET040NEW 3KT 9999 SCT020 OVC300 29/23 Q1012 ;EQDQ01+000002VOVAR Q02+000000PRSWM2
0094825640999991996021416004-05533-047450FM-15+0131SBIZ V0209999999999999999CN9999999N9+99999+99999999999ADDAG10999REMMET040NEW 5KT 9999 BKN020 BKN300 31/23 Q1011 ;EQDQ01+000002VOVAR Q02+000000PRSWM2
0094825640999991996021417004-05533-047450FM-15+0131SBIZ V0209999999999999999CN9999999N9+99999+99999999999ADDAG10999REMMET040NEW 5KT 9999 SCT020 SCT100 31/23 Q1009 ;EQDQ01+000002VOVAR Q02+000000PRSWM2
0115825640999991996021418004-05533-047450SY-MT+0131SBIZ V0202701N001512200019N0200001N1+03271+02511999999ADDAA106000091AG10000GF106991041021008001001011REMMET040NEW 3KT 9999 SCT020 SCT100 32/23 Q1007 ;EQDQ01+000000PRSWM2
0098825640999991996021420004-05533-047450FM-15+0131SBIZ V0209991C00001999999CN9999999N9+99999+99999999999ADDAG10999REMMET044NEW 6KT 270V340 9999 FEW020 SCT300 32/23 Q10EQDQ01+000002VOVAR Q02+000000PRSWM2
0110825640999991996021422004-05533-047450FM-15+0131SBIZ V0201421N99999999999CN9999999N9+99999+99999999999ADDAG10999REMMET040NEW 6KT 9999 FEW020 BKN300 30/24 Q1009 ;EQDQ01+010291WOSPD Q02+000002VOVAR Q03+000000PRSWM2
0102825640999991996021500004-05533-047450FM-12+0131SBIZ V0202701N001519999999N0200001N1+02371+02361999999ADDAA106020091AG10000GA1091+999999999GF109991091999999999999999KA1240M+03291REMSYN017 333 10329 60201;
0098825640999991996021508004-05533-047450FM-15+0131SBIZ V0209999999999999999CN9999999N9+99999+99999999999ADDAG10999REMMET044NEW 0KT 9999 FEW015 SCT100 BKN300 23/22 Q100EQDQ01+000002VOVAR Q02+000000PRSWM2
0098825640999991996021509004-05533-047450FM-15+0131SBIZ V0209999999999999999CN9999999N9+99999+99999999999ADDAG10000REMMET044NEW 0KT 9999 SCT015 SCT100 BKN300 23/22 Q101EQDQ01+000002VOVAR Q02+000000PRSWM2
0098825640999991996021510004-05533-047450FM-15+0131SBIZ V0209991C00001999999CN9999999N9+99999+99999999999ADDAG10999REMMET044NEW 0KT 9999 BKN015 SCT100 BKN300 23/22 Q101EQDQ01+000002VOVAR Q02+000000PRSWM2
0130825640999991996021511004-05533-047450FM-15+0131SBIZ V0201511N99999999999CN9999999N9+99999+99999999999ADDAG10999REMMET044NEW 3KT 9999 BKN015 SCT100 OVC300 24/23 Q101EQDQ01+005143WOSPD Q02+000002VOVAR Q03+000000PRSWM2Q040005143WOSPD 
