0150829860999991996010100004-09400-038217FM-12+0252SBUF V0201401N00311220001CN9999999N9+02921+02091100871ADDAA106000091AG10000GA1001+999999999GF100991001001999999001001KA1240M+03581MA1999999098061MD1999999-0311REMSYN017 333 10358 59031;EQDQ01+000002VOVAR 
0115829860999991996010112004-09400-038217FM-12+0252SBUF V0203201N00211045001CN0200001N1+02661+02071101231ADDAA106000091AG10000GF106991031071008001081001KA1240N+02301MA1999999098401MD1999999-0011REMSYN017 333 20230 59001;
0096829860999991996010118004-09400-038217FM-12+0252SBUF V0201401N00211220001CN0500001N1+03491+01301100831ADDAA106000091AG10000GF104991011011008001061011MA1999999098021MD1999999+0041REMSYN011 333 58004;
0172829860999991996010200004-09400-038217FM-12+0252SBUF V0201401N00511220001CN9999999N9+02841+02121100981ADDAA106000091AG10000AY101061AY201061GA1001+999999999GF100991001001999999001001KA1240M+03501MA1999999098161MD1999999+0101MW1061REMSYN017 333 10350 58010;EQDQ01+000002VOVAR 
0096829860999991996010218004-09400-038217FM-12+0252SBUF V0201401N00361045001CN0500001N1+03441+01381100901ADDAA106000091AG10000GF105991021071008001081001MA1999999098091MD1999999+0071REMSYN011 333 58007;
0115829860999991996010312004-09400-038217FM-12+0252SBUF V0200901N00461045001CN0100001N1+02771+01941101341ADDAA106000091AG10000GF106991041021004501081001KA1240N+02371MA1999999098511MD1999999+0021REMSYN017 333 20237 58002;
0096829860999991996010318004-09400-038217FM-12+0252SBUF V0201401N00211045001CN0500001N1+03521+01281100781ADDAA106000091AG10000GF106991031071008001081001MA1999999097981MD1999999-0111REMSYN011 333 59011;
0150829860999991996010400004-09400-038217FM-12+0252SBUF V0201401N00511220001CN9999999N9+02841+02011101001ADDAA106000091AG10000GA1001+999999999GF100991001001999999001001KA1240M+03561MA1999999098191MD1999999+0051REMSYN017 333 10356 58005;EQDQ01+000002VOVAR 
0115829860999991996010412004-09400-038217FM-12+0252SBUF V0201401N00411045001CN0100001N1+02781+01881101391ADDAA106000091AG10000GF106991031011008001081001KA1240N+02261MA1999999098561MD1999999+0051REMSYN017 333 20226 58005;
0150829860999991996010500004-09400-038217FM-12+0252SBUF V0201401N00151220001CN9999999N9+02981+01981101081ADDAA106000091AG10000GA1001+999999999GF100991001001999999001001KA1240M+03541MA1999999098271MD1999999+0081REMSYN017 333 10354 58008;EQDQ01+000002VOVAR 
0115829860999991996010512004-09400-038217FM-12+0252SBUF V0200901N00361045001CN0100001N1+02731+01901101201ADDAA106000091AG10000GF106991031011008001081001KA1240N+02241MA1999999098381MD1999999-0181REMSYN017 333 20224 59018;
0118829860999991996010518004-09400-038217FM-12+0252SBUF V0201401N00361045001CN0500001N1+03281+01701100721ADDAA106000091AG10000AY121061AY221061GF105991021071012501081001MA1999999097911MD1999999-0181MW1151REMSYN011 333 59018;
0137829860999991996010612004-09400-038217FM-12+0252SBUF V0200501N00311045001CN0200001N1+02681+01991101131ADDAA106000091AG10000AY121061AY221061GF106991031071008001081001KA1240N+02281MA1999999098311MD1999999+0071MW1151REMSYN017 333 20228 58007;
0096829860999991996010618004-09400-038217FM-12+0252SBUF V0200901N00211045001CN0500001N1+03401+01721100701ADDAA106000091AG10000GF105991021011008001061001MA1999999097891MD1999999-0021REMSYN011 333 59002;
0115829860999991996010712004-09400-038217FM-12+0252SBUF V0201401N00311220001CN0200001N1+02741+01841101191ADDAA106000091AG10000GF104991021011008001061001KA1240N+02221MA1999999098371MD1999999+0061REMSYN017 333 20222 58006;
0096829860999991996010718004-09400-038217FM-12+0252SBUF V0201401N00261220001CN0500001N1+03381+01571100841ADDAA106000091AG10000GF104991021011008001061001MA1999999098031MD1999999+0141REMSYN011 333 58014;
0115829860999991996010812004-09400-038217FM-12+0252SBUF V0201401N00211045001CN0100001N1+02681+02111101431ADDAA106000091AG10000GF106991041021004501081001KA1240N+02391MA1999999098591MD1999999+0221REMSYN017 333 20239 58022;
0096829860999991996010818004-09400-038217FM-12+0252SBUF V0201401N00511045001CN0500001N1+03501+01771100921ADDAA106000091AG10000GF105991021071008001061001MA1999999098111MD1999999+0081REMSYN011 333 58008;
0150829860999991996010900004-09400-038217FM-12+0252SBUF V0201401N00511220001CN9999999N9+02801+02081101161ADDAA106000091AG10000GA1001+999999999GF100991001001999999001001KA1240M+03551MA1999999098331MD1999999+0041REMSYN017 333 10355 58004;EQDQ01+000002VOVAR 
0115829860999991996010912004-09400-038217FM-12+0252SBUF V0200901N00361220001CN0200001N1+02821+01861101461ADDAA106000091AG10000GF103991011011008001061011KA1240N+02281MA1999999098631MD1999999+0041REMSYN017 333 20228 58004;
0150829860999991996011000004-09400-038217FM-12+0252SBUF V0200901N00621220001CN9999999N9+02811+01901101191ADDAA106000091AG10000GA1001+999999999GF100991001001999999001001KA1240M+03521MA1999999098361MD1999999+0031REMSYN017 333 10352 58003;EQDQ01+000002VOVAR 
0115829860999991996011012004-09400-038217FM-12+0252SBUF V0200901N00151045001CN0100001N1+02731+01931101311ADDAA106000091AG10000GF106991031011008001081001KA1240N+02401MA1999999098471MD1999999-0161REMSYN017 333 20240 59016;
0096829860999991996011018004-09400-038217FM-12+0252SBUF V0201401N00361045001CN0500001N1+03481+01571100821ADDAA106000091AG10000GF105991021071008001061001MA1999999098011MD1999999-0281REMSYN011 333 59028;
0115829860999991996011112004-09400-038217FM-12+0252SBUF V0200901N00261045001CN0100001N1+02661+01951101251ADDAA106000091AG10000GF106991031011008001081001KA1240N+02331MA1999999098411MD1999999-0061REMSYN017 333 20233 59006;
0096829860999991996011118004-09400-038217FM-12+0252SBUF V0201401N00361220001CN0500001N1+03401+01541100691ADDAA106000091AG10000GF105991021071012501081091MA1999999097891MD1999999-0121REMSYN011 333 59012;
0150829860999991996011200004-09400-038217FM-12+0252SBUF V0201401N00411220001CN9999999N9+02741+01871101041ADDAA106000091AG10000GA1001+999999999GF100991001001999999001001KA1240M+03501MA1999999098211MD1999999+0091REMSYN017 333 10350 58009;EQDQ01+000002VOVAR 
0115829860999991996011212004-09400-038217FM-12+0252SBUF V0201401N00361045001CN0100001N1+02661+01951101221ADDAA106000091AG10000GF106991031011008001081011KA1240N+02291MA1999999098391MD1999999-0021REMSYN017 333 20229 59002;
0096829860999991996011218004-09400-038217FM-12+0252SBUF V0201401N00461045001CN0500001N1+03301+01461100741ADDAA106000091AG10000GF106991031071008001081091MA1999999097931MD1999999+0041REMSYN011 333 58004;
0150829860999991996011300004-09400-038217FM-12+0252SBUF V0201401N00511220001CN9999999N9+02761+01621100941ADDAA106000091AG10000GA1001+999999999GF100991001001999999001001KA1240M+03451MA1999999098121MD1999999-0091REMSYN017 333 10345 59009;EQDQ01+000002VOVAR 
0137829860999991996011312004-09400-038217FM-12+0252SBUF V0201401N00361045001CN0200001N1+02641+01931101141ADDAA106000091AG10000AY101061AY221061GF106991031071008001081001KA1240N+02181MA1999999098311MD1999999-0081MW1151REMSYN017 333 20218 59008;
0137829860999991996011412004-09400-038217FM-12+0252SBUF V0201401N00151007501CN0200001N1+02581+02041101181ADDAA106000091AG10000AY101061AY221061GF107991051071008001081001KA1240N+02341MA1999999098341MD1999999+0031MW1151REMSYN017 333 20234 58003;
0118829860999991996011418004-09400-038217FM-12+0252SBUF V0201401N00151007501CN0500001N1+03161+01891100871ADDAA106000091AG10000AY121061AY221061GF107991051071008001081001MA1999999098051MD1999999+0111MW1151REMSYN011 333 58011;
0166829860999991996011500004-09400-038217FM-12+0252SBUF V0203201N00051220001CN9999999N9+02401+02091100921ADDAA106000091AG10000GF103991011011008001051001KA1240M+03221MA1999999999999MD1999999+0011REMSYN017 333 10322 58001;EQDQ01+095923APOSP Q02+000002VOVAR Q03 095923APOSP 
0121829860999991996011512004-09400-038217FM-12+0252SBUF V0201401N00361045001CN0100001N1+02721+01931101191ADDAA124001091AG10000GF106991031011008001081011KA1240N+02291MA1999999098361MD1999999+0021REMSYN023 333 20229 58002 60014;
0118829860999991996011518004-09400-038217FM-12+0252SBUF V0200901N00211007501CN0500001N1+03301+01761100661ADDAA106000091AG10000AY121061AY221061GF107991051071008001081091MA1999999097851MD1999999-0201MW1151REMSYN011 333 59020;
0134829860999991996011600004-09400-038217FM-12+0252SBUF V0201401N00151007501CN9999999N9+02781+02131100911ADDAA106000091AG10000GF107991051071008001081999KA1240M+03341MA1999999098091MD1999999-0101REMSYN017 333 10334 59010;EQDQ01+000002VOVAR 
0115829860999991996011612004-09400-038217FM-12+0252SBUF V0201401N00411045001CN0100001N1+02661+01901100971ADDAA106000091AG10000GF107991041021004501081081KA1240N+02311MA1999999098151MD1999999-0211REMSYN017 333 20231 59021;
0118829860999991996011618004-09400-038217FM-12+0252SBUF V0200901N00211004201CN0200001N1+03141+01911100681ADDAA106000091AG10000AY121061AY221061GF107991051071004501081001MA1999999097861MD1999999+0011MW1151REMSYN011 333 58001;
0134829860999991996011700004-09400-038217FM-12+0252SBUF V0201401N00151007501CN9999999N9+02601+02061100921ADDAA106000091AG10000GF107991051071008001081999KA1240M+03181MA1999999098091MD1999999+0001REMSYN017 333 10318 58000;EQDQ01+000002VOVAR 
0115829860999991996011712004-09400-038217FM-12+0252SBUF V0201401N00311045001CN0040001N1+02521+02021101111ADDAA106000091AG10000GF107991041071004501081001KA1240N+02261MA1999999098261MD1999999+0111REMSYN017 333 20226 58011;
0096829860999991996011718004-09400-038217FM-12+0252SBUF V0200901N001510075019N0500001N1+03101+01841100661ADDAA106000091AG10000GF107991051071008001081001MA1999999097841MD1999999-0021REMSYN011 333 59002;
0096829860999991996011818004-09400-038217FM-12+0252SBUF V0201401N00211045001CN0500001N1+03581+01971100491ADDAA106000091AG10000GF105991021071012501081001MA1999999097701MD1999999-0141REMSYN011 333 59014;
0172829860999991996011900004-09400-038217FM-12+0252SBUF V0201401N00511220001CN9999999N9+03241+01891100691ADDAA106000091AG10000AY101061AY221061GA1001+999999999GF100991001001999999001001KA1240M+03661MA1999999097901MD1999999-0011MW1061REMSYN017 333 10366 59001;EQDQ01+000002VOVAR 
0134829860999991996011912004-09400-038217FM-12+0252SBUF V0201401N00151220001CN0200001N1+02751+02121101011ADDAA106000091AG10000GF103991999001012501061021KA1240N+02391MA1999999098211MD1999999+0061REMSYN017 333 20239 58006;EQDQ01+000062SCOTLC
0096829860999991996011918004-09400-038217FM-12+0252SBUF V0200501N00211045001CN0500001N1+03561+01821100551ADDAA106000091AG10000GF105991021071012501081001MA1999999097771MD1999999+0071REMSYN011 333 58007;
0096829860999991996012018004-09400-038217FM-12+0252SBUF V0201401N00151045001CN0500001N1+03571+01481100521ADDAA106000091AG10000GF105991021011008001081001MA1999999097741MD1999999-0031REMSYN011 333 59003;
0115829860999991996012112004-09400-038217FM-12+0252SBUF V0201401N00311045001CN0100001N1+02781+02011101061ADDAA106000091AG10000GF106991031011008001081001KA1240N+02241MA1999999098241MD1999999+0161REMSYN017 333 20224 58016;
0124829860999991996012118004-09400-038217FM-12+0252SBUF V0201401N00511045001CN0100001N1+02761+02071100781ADDAA106007091AG10006AY161061AY251061GF106991031021004501081081MA1999999097941MD1999999+0201MW1151REMSYN017 333 58020 60071;
0121829860999991996012212004-09400-038217FM-12+0252SBUF V0201401N00151045001CN0200001N1+02661+01951101051ADDAA124007091AG10000GF106991031011008001081001KA1240N+02161MA1999999098291MD1999999-0041REMSYN023 333 20216 59004 60074;
0096829860999991996012218004-09400-038217FM-12+0252SBUF V0200901N00261045001CN0200001N1+03281+01701100621ADDAA106000091AG10000GF106991031071012501081001MA1999999097811MD1999999-0131REMSYN011 333 59013;
0150829860999991996012300004-09400-038217FM-12+0252SBUF V0200901N00511220001CN9999999N9+02781+01911100751ADDAA106000091AG10000GA1001+999999999GF100991001001999999001001KA1240M+03381MA1999999097931MD1999999-0141REMSYN017 333 10338 59014;EQDQ01+000002VOVAR 
0115829860999991996012312004-09400-038217FM-12+0252SBUF V0200901N00211220001CN0200001N1+02721+01951101011ADDAA106000091AG10000GF101991011001012501041001KA1240N+02201MA1999999098201MD1999999+0001REMSYN017 333 20220 58000;
0118829860999991996012318004-09400-038217FM-12+0252SBUF V0201401N00211045001CN0500001N1+03481+01571100621ADDAA106000091AG10000AY121061AY221061GF106991031071012501081001MA1999999097811MD1999999+0001MW1151REMSYN011 333 58000;
0156829860999991996012400004-09400-038217FM-12+0252SBUF V0201401N00511045001CN9999999N9+02861+02061100901ADDAA106000091AG10001AY151061AY221061GF106991041021004501081001KA1240M+03551MA1999999098091MD1999999+0161MW1131REMSYN017 333 10355 58016;EQDQ01+000002VOVAR 
0096829860999991996012418004-09400-038217FM-12+0252SBUF V0201401N00361045001CN0500001N1+03541+01621100951ADDAA106000091AG10000GF106991031071012501081001MA1999999098151MD1999999+0341REMSYN011 333 58034;
0150829860999991996012500004-09400-038217FM-12+0252SBUF V0200901N00721220001CN9999999N9+02941+01821101051ADDAA106000091AG10000GA1001+999999999GF100991001001999999001001KA1240M+03581MA1999999098241MD1999999+0151REMSYN017 333 10358 58015;EQDQ01+000002VOVAR 
0115829860999991996012512004-09400-038217FM-12+0252SBUF V0200901N00211045001CN0200001N1+02741+01841101301ADDAA106000091AG10000GF106991031011008001081001KA1240N+02241MA1999999098741MD1999999+0071REMSYN017 333 20224 58007;
0096829860999991996012518004-09400-038217FM-12+0252SBUF V0200901N00151045001CN0500001N1+02441+01671100921ADDAA106000091AG10000GF106991031071008001081001MA1999999098111MD1999999-0041REMSYN011 333 59004;
0150829860999991996012600004-09400-038217FM-12+0252SBUF V0200901N00511220001CN9999999N9+02801+01721101151ADDAA106000091AG10000GA1001+999999999GF100991001001999999001001KA1240M+03541MA1999999098321MD1999999+0081REMSYN017 333 10354 58008;EQDQ01+000002VOVAR 
0115829860999991996012612004-09400-038217FM-12+0252SBUF V0201401N00671220001CN0200001N1+02761+01801101131ADDAA106000091AG10000GF103991011011008001061001KA1240N+02221MA1999999098311MD1999999-0161REMSYN017 333 20222 59016;
0096829860999991996012618004-09400-038217FM-12+0252SBUF V0201401N00671045001CN0500001N1+03381+01711100631ADDAA106000091AG10000GF105991021071008001061001MA1999999097821MD1999999-0291REMSYN011 333 59029;
0150829860999991996012700004-09400-038217FM-12+0252SBUF V0201401N00511220001CN9999999N9+02701+01691101041ADDAA106000091AG10000GA1001+999999999GF100991001001999999001001KA1240M+03481MA1999999098211MD1999999-0111REMSYN017 333 10348 59011;EQDQ01+000002VOVAR 
0096829860999991996012718004-09400-038217FM-12+0252SBUF V0200901N00361045001CN0500001N1+03221+01801100641ADDAA106000091AG10000GF106991031011008001081021MA1999999097811MD1999999-0011REMSYN011 333 59001;
0143829860999991996012812004-09400-038217FM-12+0252SBUF V0201401N00311007501CN0200001N1+02701+02081101071ADDAA124000191AG10006AY161061AY221061GF107991051071008001081001KA1240N+02341MA1999999098231MD1999999-0071MW1151REMSYN023 333 20234 59007 69914;
0115829860999991996012818004-09400-038217FM-12+0252SBUF V0201401N001519999999N0200001N1+03461+01731100581ADDAA106000091AG10000GF105991999071008001061001MA1999999097791MD1999999-0021REMSYN011 333 59002;EQDQ01+000072SCOTLC
0156829860999991996012900004-09400-038217FM-12+0252SBUF V0201401N00511220001CN9999999N9+02861+02061100871ADDAA106000091AG10000AY121061AY221061GF104991021071004501061999KA1240M+03561MA1999999098061MD1999999-0011MW1131REMSYN017 333 10356 59001;EQDQ01+000002VOVAR 
0115829860999991996012912004-09400-038217FM-12+0252SBUF V0200901N00461045001CN0100001N1+02771+01861101131ADDAA106000091AG10000GF106991031011008001081001KA1240N+02331MA1999999098311MD1999999+0081REMSYN017 333 20233 58008;
0096829860999991996012918004-09400-038217FM-12+0252SBUF V0201401N00311045001CN0500001N1+03441+01671100611ADDAA106000091AG10000GF105991021071008001061001MA1999999097811MD1999999+0021REMSYN011 333 58002;
0156829860999991996013000004-09400-038217FM-12+0252SBUF V0201401N00361220001CN9999999N9+03141+01801100851ADDAA106000091AG10000AY121061AY221061GF104991021071004501061999KA1240M+03541MA1999999098051MD1999999-0011MW1131REMSYN017 333 10354 59001;EQDQ01+000002VOVAR 
0115829860999991996013012004-09400-038217FM-12+0252SBUF V0200901N00511045001CN0200001N1+02771+01941101171ADDAA106000091AG10000GF106991031011008001081001KA1240N+02361MA1999999098361MD1999999+0051REMSYN017 333 20236 58005;
0096829860999991996013018004-09400-038217FM-12+0252SBUF V0201401N00151045001CN0500001N1+03481+01471100681ADDAA106000091AG10000GF105991021071012501081001MA1999999097881MD1999999+0071REMSYN011 333 58007;
0134829860999991996013100004-09400-038217FM-12+0252SBUF V0201401N00361220001CN9999999N9+03021+01961100871ADDAA106000091AG10000GF103991021011004501061999KA1240M+03601MA1999999098061MD1999999+0011REMSYN017 333 10360 58001;EQDQ01+000002VOVAR 
0115829860999991996013112004-09400-038217FM-12+0252SBUF V0200901N00311045001CN0100001N1+02801+01981101061ADDAA106000091AG10000GF106991031011008001081001KA1240N+02361MA1999999098251MD1999999-0111REMSYN017 333 20236 59011;
0096829860999991996013118004-09400-038217FM-12+0252SBUF V0201401N00361220001CN0500001N1+03481+01521100611ADDAA106000091AG10000GF105991021011012501061091MA1999999097811MD1999999-0071REMSYN011 333 59007;
0134829860999991996020100004-09400-038217FM-12+0252SBUF V0201401N00511220001CN9999999N9+03121+01991100751ADDAA106000091AG10000GF104991041061008001001001KA1240M+03561MA1999999097961MD1999999-0101REMSYN017 333 10356 59010;EQDQ01+000002VOVAR 
0115829860999991996020112004-09400-038217FM-12+0252SBUF V0200501N00151045001CN0200001N1+02761+01971101191ADDAA106000091AG10000GF105991021011008001061001KA1240N+02321MA1999999098381MD1999999+0131REMSYN017 333 20232 58013;
0150829860999991996020200004-09400-038217FM-12+0252SBUF V0201401N00511220001CN9999999N9+03141+01621100741ADDAA106000091AG10000GA1001+999999999GF100991001001999999001001KA1240M+03601MA1999999097841MD1999999-0121REMSYN017 333 10360 59012;EQDQ01+000002VOVAR 
0115829860999991996020212004-09400-038217FM-12+0252SBUF V0202301N00151220001CN0500001N1+02781+02061101121ADDAA106000091AG10000GF102991021001012501041001KA1240N+02301MA1999999098311MD1999999-0071REMSYN017 333 20230 59007;
0096829860999991996020218004-09400-038217FM-12+0252SBUF V0201401N00151045001CN0500001N1+03581+01751100651ADDAA106000091AG10000GF105991021011008001061001MA1999999097851MD1999999-0041REMSYN011 333 59004;
0134829860999991996020300004-09400-038217FM-12+0252SBUF V0201401N00511220001CN9999999N9+03181+02131100761ADDAA106000091AG10000GF104991041001008001051999KA1240M+03681MA1999999097971MD1999999+0131REMSYN017 333 10368 58013;EQDQ01+000002VOVAR 
0096829860999991996020318004-09400-038217FM-12+0252SBUF V0203201N00211045001CN0500001N1+03351+01831100561ADDAA106000091AG10000GF106991031011008001081021MA1999999097771MD1999999-0081REMSYN011 333 59008;
0162829860999991996020400004-09400-038217FM-12+0252SBUF V0200901N00151009001CN9999999N9+02961+02261100771ADDAA106001091AG10000AY121061AY221061GF108991081081004501999999KA1240M+03661MA1999999097961MD1999999-0011MW1921REMSYN023 333 10366 59001 60011;EQDQ01+000002VOVAR 
0121829860999991996020412004-09400-038217FM-12+0252SBUF V0202301N00051045001CN0100001N1+02601+02141101101ADDAA124001091AG10000GF106991031011008001081001KA1240N+02391MA1999999098281MD1999999-0011REMSYN023 333 20239 59001 60014;
0096829860999991996020418004-09400-038217FM-12+0252SBUF V0203201N00151045001CN0500001N1+03221+01881100621ADDAA106000091AG10000GF106991031011008001081081MA1999999097811MD1999999+0041REMSYN011 333 58004;
0115829860999991996020512004-09400-038217FM-12+0252SBUF V0203201N00151045001CN0100001N1+02681+02131101111ADDAA106000091AG10000GF106991041021004501081001KA1240N+02401MA1999999092981MD1999999+0011REMSYN017 333 20240 58001;
0137829860999991996020518004-09400-038217FM-12+0252SBUF V0202701N00151007501CN0500001N1+03281+01861100651ADDAA106000091AG10000AY121061AY221061GF107991051071008001081091MA1999999097842MD1999999+0031MW1151REMSYN011 333 58003;EQDQ01+097843APOSP 
0150829860999991996020600004-09400-038217FM-12+0252SBUF V0200901N00311220001CN9999999N9+02861+01841100751ADDAA106000091AG10000GA1001+999999999GF100991001001999999001001KA1240M+03501MA1999999097931MD1999999-0031REMSYN017 333 10350 59003;EQDQ01+000002VOVAR 
0115829860999991996020612004-09400-038217FM-12+0252SBUF V0200901N00151045001CN0100001N1+02741+01951101111ADDAA106000091AG10000GF106991021011008001081021KA1240N+02261MA1999999098291MD1999999+0001REMSYN017 333 20226 58000;
0096829860999991996020618004-09400-038217FM-12+0252SBUF V0200501N00101220001CN0500001N1+03421+01411100671ADDAA106000091AG10000GF105991021071008001061091MA1999999097891MD1999999+0051REMSYN011 333 58005;
0150829860999991996020700004-09400-038217FM-12+0252SBUF V0200901N00511220001CN9999999N9+02901+01781100891ADDAA106000091AG10000GA1001+999999999GF100991001001999999001001KA1240M+03561MA1999999098081MD1999999+0151REMSYN017 333 10356 58015;EQDQ01+000002VOVAR 
0115829860999991996020712004-09400-038217FM-12+0252SBUF V0200501N00261220001CN0200001N1+02721+01881101291ADDAA106000091AG10000GF103991031001012501061021KA1240N+02181MA1999999098461MD1999999+0171REMSYN017 333 20218 58017;
0096829860999991996020718004-09400-038217FM-12+0252SBUF V0201401N00311220001CN0500001N1+03541+01521100781ADDAA106000091AG10000GF105991021021008001061091MA1999999097981MD1999999+0091REMSYN011 333 58009;
0118829860999991996020818004-09400-038217FM-12+0252SBUF V0200901N00361045001CN0500001N1+03541+01671100781ADDAA106000091AG10000AY121061AY221061GF105991021071008001081001MA1999999097981MD1999999+0001MW1151REMSYN011 333 58000;
0150829860999991996020900004-09400-038217FM-12+0252SBUF V0201401N00361220001CN9999999N9+02821+01941101101ADDAA106000091AG10000GA1001+999999999GF100991001001999999001001KA1240M+03621MA1999999098281MD1999999+0031REMSYN017 333 10362 58003;EQDQ01+000002VOVAR 
0115829860999991996020912004-09400-038217FM-12+0252SBUF V0201401N00461045001CN0100001N1+02721+01981101201ADDAA106000091AG10000GF106991031011008001081001KA1240N+02361MA1999999098371MD1999999-0161REMSYN017 333 20236 59016;
0096829860999991996020918004-09400-038217FM-12+0252SBUF V0201401N00151045001CN0500001N1+03421+01561100821ADDAA106000091AG10000GF106991031071012501081001MA1999999098011MD1999999+0031REMSYN011 333 58003;
0150829860999991996021000004-09400-038217FM-12+0252SBUF V0200901N00511220001CN9999999N9+02841+01761100991ADDAA106000091AG10000GA1001+999999999GF100991001001999999001001KA1240M+03551MA1999999098181MD1999999-0101REMSYN017 333 10355 59010;EQDQ01+000002VOVAR 
0115829860999991996021012004-09400-038217FM-12+0252SBUF V0200901N00511220001CN0200001N1+02701+01991101151ADDAA106000091AG10000GF105991021071008001081091KA1240N+02201MA1999999098331MD1999999-0041REMSYN017 333 20220 59004;
0096829860999991996021018004-09400-038217FM-12+0252SBUF V0201401N00151045001CN0500001N1+03501+01431100731ADDAA106000091AG10000GF106991021011008001061081MA1999999097921MD1999999-0091REMSYN011 333 59009;
0115829860999991996021112004-09400-038217FM-12+0252SBUF V0201401N00151045001CN0200001N1+02701+02171101131ADDAA106000091AG10000GF106991031071008001081091KA1240N+02421MA1999999098311MD1999999-0021REMSYN017 333 20242 59002;
0096829860999991996021118004-09400-038217FM-12+0252SBUF V0200901N00511045001CN0500001N1+03601+01681100781ADDAA106000091AG10000GF105991021071012501081001MA1999999097981MD1999999+0061REMSYN011 333 58006;
0150829860999991996021200004-09400-038217FM-12+0252SBUF V0201401N00621220001CN9999999N9+02961+02701100881ADDAA106000091AG10000GA1001+999999999GF100991001001999999001001KA1240M+03601MA1999999098071MD1999999-0091REMSYN017 333 10360 59009;EQDQ01+000002VOVAR 
0115829860999991996021212004-09400-038217FM-12+0252SBUF V0201401N00211220001CN0200001N1+02861+02091101251ADDAA106000091AG10000GF103991011011008001061021KA1240N+02401MA1999999098431MD1999999+0121REMSYN017 333 20240 58012;
0096829860999991996021218004-09400-038217FM-12+0252SBUF V0201401N00311045001CN0500001N1+03461+01641100841ADDAA106000091AG10000GF106991031071012501081091MA1999999098031MD1999999+0051REMSYN011 333 58005;
0172829860999991996021300004-09400-038217FM-12+0252SBUF V0200901N00511220001CN9999999N9+02961+01901100971ADDAA106000091AG10000AY101061AY221061GA1001+999999999GF100991001001999999001001KA1240M+03581MA1999999098161MD1999999+0091MW1061REMSYN017 333 10358 58009;EQDQ01+000002VOVAR 
0115829860999991996021312004-09400-038217FM-12+0252SBUF V0200901N00261045001CN0100001N1+02671+02091101311ADDAA106000091AG10000GF106991041021004501081021KA1240N+02391MA1999999098481MD1999999+0051REMSYN017 333 20239 58005;
0118829860999991996021318004-09400-038217FM-12+0252SBUF V0201401N00311045001CN0500001N1+03361+01231100811ADDAA106000091AG10000AY121061AY221061GF106991031071008001081091MA1999999098001MD1999999-0031MW1151REMSYN011 333 59003;
0172829860999991996021400004-09400-038217FM-12+0252SBUF V0201401N00511220001CN9999999N9+02921+01891100991ADDAA106000091AG10000AY101061AY221061GA1001+999999999GF100991001001999999001001KA1240M+03421MA1999999098181MD1999999+0021MW1061REMSYN017 333 10342 58002;EQDQ01+000002VOVAR 
0115829860999991996021412004-09400-038217FM-12+0252SBUF V0201401N00151045001CN0100001N1+02641+01851101211ADDAA106000091AG10000GF105991021011008001081001KA1240N+02381MA1999999098391MD1999999-0091REMSYN017 333 20238 59009;
0096829860999991996021418004-09400-038217FM-12+0252SBUF V0201401N00411045001CN0500001N1+03441+01431100731ADDAA106000091AG10000GF105991021071012501081001MA1999999097931MD1999999-0071REMSYN011 333 59007;
0156829860999991996021500004-09400-038217FM-12+0252SBUF V0201401N00571007501CN9999999N9+02681+01761101041ADDAA106000091AG10000AY101061AY221061GF106991061001008001021999KA1240M+03481MA1999999098211MD1999999+0031MW1061REMSYN017 333 10348 58003;EQDQ01+000002VOVAR 
0115829860999991996021512004-09400-038217FM-12+0252SBUF V0201401N00361045001CN0100001N1+02651+01931101281ADDAA106000091AG10000GF106991031011008001081001KA1240N+02381MA1999999098441MD1999999+0051REMSYN017 333 20238 58005;
0096829860999991996021518004-09400-038217FM-12+0252SBUF V0201401N00461045001CN0500001N1+03521+01451100771ADDAA106000091AG10000GF106991031071012501081001MA1999999097971MD1999999+0041REMSYN011 333 58004;
0172829860999991996021600004-09400-038217FM-12+0252SBUF V0201401N00571220001CN9999999N9+02841+01911100991ADDAA106000091AG10000AY101061AY221061GA1001+999999999GF100991001001999999001001KA1240M+03561MA1999999098171MD1999999-0041MW1061REMSYN017 333 10356 59004;EQDQ01+000002VOVAR 
0143829860999991996021612004-09400-038217FM-12+0252SBUF V0201401N00311045001CN0100001N1+02611+02031101321ADDAA124001091AG10006AY161061AY251061GF106991021011008001081021KA1240N+02241MA1999999098481MD1999999+0041MW1031REMSYN023 333 20224 58004 60014;
0150829860999991996021700004-09400-038217FM-12+0252SBUF V0201401N00361220001CN9999999N9+02841+01881101011ADDAA106000091AG10000GA1001+999999999GF100991001001999999001001KA1240M+03461MA1999999098191MD1999999+0021REMSYN017 333 10346 58002;EQDQ01+000002VOVAR 
0143829860999991996021712004-09400-038217FM-12+0252SBUF V0200901N00151006001CN0002001N1+02401+02151101071ADDAA124004091AG10006AY161061AY251061GF108991081081002501999999KA1240N+02321MA1999999098231MD1999999-0251MW1921REMSYN023 333 20232 59025 60044;
0124829860999991996021718004-09400-038217FM-12+0252SBUF V0201401N00211045001CN0500001N1+03431+01511100651ADDAA106000591AG10006AY161061AY251061GF105991021011008001061001MA1999999097841MD1999999-0171MW1031REMSYN017 333 59017 69961;
0150829860999991996021800004-09400-038217FM-12+0252SBUF V0200901N00151220001CN9999999N9+02881+02001100831ADDAA106000091AG10000GA1001+999999999GF100991001001999999001001KA1240M+03501MA1999999098001MD1999999-0191REMSYN017 333 10350 59019;EQDQ01+000002VOVAR 
0121829860999991996021812004-09400-038217FM-12+0252SBUF V0201401N00361220001CN0200001N1+02741+01921101061ADDAA124000591AG10000GF104991021011008001061001KA1240N+02311MA1999999098241MD1999999+0011REMSYN023 333 20231 58001 69964;
0150829860999991996021900004-09400-038217FM-12+0252SBUF V0201401N00411220001CN9999999N9+02831+02071100821ADDAA106000091AG10000GA1001+999999999GF100991001001999999001001KA1240M+03051MA1999999098011MD1999999+0011REMSYN017 333 10305 58001;EQDQ01+000002VOVAR 
0115829860999991996021912004-09400-038217FM-12+0252SBUF V0200901N00311220001CN0200001N1+02741+01891101121ADDAA106000091AG10000GF105991021021008001061091KA1240N+02381MA1999999098301MD1999999+0061REMSYN017 333 20238 58006;
0162829860999991996022000004-09400-038217FM-12+0252SBUF V0201401N00151009001CN9999999N9+02481+02271100991ADDAA106000391AG10006AY161061AY261061GF108991081081004501999999KA1240M+03641MA1999999098161MD1999999+0151MW1911REMSYN023 333 10364 58015 69931;EQDQ01+000002VOVAR 
0143829860999991996022012004-09400-038217FM-12+0252SBUF V0200501N00151045001CN0200001N1+02761+02141101151ADDAA124001091AG10006AY161061AY221061GF106991031071008001081001KA1240N+02421MA1999999098311MD1999999+0011MW1151REMSYN023 333 20242 58001 69984;
0096829860999991996022018004-09400-038217FM-12+0252SBUF V0202301N00151220001CN0500001N1+03551+01351100671ADDAA106000091AG10000GF104991021011012501041021MA1999999097881MD1999999+0141REMSYN011 333 58014;
0150829860999991996022100004-09400-038217FM-12+0252SBUF V0200901N00461220001CN9999999N9+02961+01811100801ADDAA106000091AG10000GA1001+999999999GF100991001001999999001001KA1240M+03601MA1999999097991MD1999999-0171REMSYN017 333 10360 59017;EQDQ01+000002VOVAR 
0115829860999991996022112004-09400-038217FM-12+0252SBUF V0201401N00151220001CN0200001N1+02741+02021101001ADDAA106000091AG10000GF104991021011008001061001KA1240N+02321MA1999999098191MD1999999-0121REMSYN017 333 20232 59012;
0096829860999991996022118004-09400-038217FM-12+0252SBUF V0200501N00151045001CN0500001N1+03601+01811100541ADDAA106000091AG10000GF106991021011008001081011MA1999999097751MD1999999-0131REMSYN011 333 59013;
0150829860999991996022200004-09400-038217FM-12+0252SBUF V0200901N00571220001CN9999999N9+03021+02071100761ADDAA106000091AG10000GA1001+999999999GF100991001001999999001001KA1240M+03641MA1999999097961MD1999999-0031REMSYN017 333 10364 59003;EQDQ01+000002VOVAR 
0115829860999991996022212004-09400-038217FM-12+0252SBUF V0203201N00101220001CN0500001N1+02891+02131101071ADDAA106000091AG10000GF104991011011008001061081KA1240N+02461MA1999999098261MD1999999+0071REMSYN017 333 20246 58007;
0096829860999991996022218004-09400-038217FM-12+0252SBUF V0201401N00151045001CN0500001N1+03661+01771100511ADDAA106000091AG10000GF106991031071012501081001MA1999999097731MD1999999-0021REMSYN011 333 59002;
0115829860999991996022312004-09400-038217FM-12+0252SBUF V0203201N00151220001CN0200001N1+02851+02011101251ADDAA106000091AG10000GF102991021001012501041001KA1240N+02381MA1999999098431MD1999999+0171REMSYN017 333 20238 58017;
0096829860999991996022318004-09400-038217FM-12+0252SBUF V0201401N00211045001CN0500001N1+03601+01521100701ADDAA106000091AG10000GF106991031071012501081001MA1999999097911MD1999999+0181REMSYN011 333 58018;
0150829860999991996022400004-09400-038217FM-12+0252SBUF V0200901N00671220001CN9999999N9+02861+02061101021ADDAA106000091AG10000GA1001+999999999GF100991001001999999001001KA1240M+03631MA1999999098201MD1999999+0111REMSYN017 333 10363 58011;EQDQ01+000002VOVAR 
0137829860999991996022412004-09400-038217FM-12+0252SBUF V0200501N00311045001CN0200001N1+02741+02171101211ADDAA106000091AG10000AY101061AY221061GF106991031071008001081001KA1240N+02401MA1999999098391MD1999999-0041MW1151REMSYN017 333 20240 59004;
0096829860999991996022418004-09400-038217FM-12+0252SBUF V0201401N00211220001CN0500001N1+03541+01521100781ADDAA106000091AG10000GF103991021011008001081001MA1999999097981MD1999999+0071REMSYN011 333 58007;
0150829860999991996022500004-09400-038217FM-12+0252SBUF V0200901N00511220001CN9999999N9+02881+01861101041ADDAA106000091AG10000GA1001+999999999GF100991001001999999001001KA1240M+03641MA1999999098221MD1999999+0021REMSYN017 333 10364 58002;EQDQ01+000002VOVAR 
0137829860999991996022512004-09400-038217FM-12+0252SBUF V0201401N00361045001CN0200001N1+02761+02091101241ADDAA106000091AG10000AY101061AY221061GF106991031071008001081001KA1240N+02321MA1999999098411MD1999999+0021MW1151REMSYN017 333 20232 58002;
0118829860999991996022518004-09400-038217FM-12+0252SBUF V0200901N00311045001CN0500001N1+03521+01791100791ADDAA106000091AG10000AY121061AY221061GF106991031071008001081001MA1999999097991MD1999999+0011MW1151REMSYN011 333 58001;
0172829860999991996022600004-09400-038217FM-12+0252SBUF V0201401N00671220001CN9999999N9+02921+01921100951ADDAA106000091AG10000AY101061AY221061GA1001+999999999GF100991001001999999001001KA1240M+03541MA1999999098141MD1999999-0081MW1061REMSYN017 333 10354 59008;EQDQ01+000002VOVAR 
0115829860999991996022612004-09400-038217FM-12+0252SBUF V0201401N00361220001CN0500001N1+02821+01831101201ADDAA106000091AG10000GF102991021001012501041001KA1240N+02331MA1999999098391MD1999999-0021REMSYN017 333 20233 59002;
0096829860999991996022618004-09400-038217FM-12+0252SBUF V0201401N00151045001CN0500001N1+03421+01831100811ADDAA106000091AG10000GF106991031071012501081001MA1999999098001MD1999999+0011REMSYN011 333 58001;
0150829860999991996022700004-09400-038217FM-12+0252SBUF V0201401N00151220001CN9999999N9+02861+01841100871ADDAA106000091AG10000GA1001+999999999GF100991001001999999001001KA1240M+03541MA1999999098061MD1999999-0081REMSYN017 333 10354 59008;EQDQ01+000002VOVAR 
0115829860999991996022712004-09400-038217FM-12+0252SBUF V0200901N00311045001CN0100001N1+02811+01981101231ADDAA106000091AG10000GF106991031011008001081001KA1240N+02341MA1999999098401MD1999999+0011REMSYN017 333 20234 58001;
0096829860999991996022718004-09400-038217FM-12+0252SBUF V0201401N00211045001CN0500001N1+03521+01741100711ADDAA106000091AG10000GF106991031071012501081001MA1999999097911MD1999999-0091REMSYN011 333 59009;
0115829860999991996022812004-09400-038217FM-12+0252SBUF V0201401N00361045001CN0100001N1+02781+02041101131ADDAA106000091AG10000GF106991031011008001081011KA1240N+02361MA1999999098311MD1999999-0091REMSYN017 333 20236 59009;
0134829860999991996022900004-09400-038217FM-12+0252SBUF V0200901N00311045001CN9999999N9+02881+02001100891ADDAA106000091AG10000GF106991031071008001081999KA1240M+03401MA1999999098081MD1999999-0061REMSYN017 333 10340 59006;EQDQ01+000002VOVAR 
0115829860999991996022912004-09400-038217FM-12+0252SBUF V0200901N00261045001CN0200001N1+02661+02071101131ADDAA106000091AG10000GF106991031011008001081011KA1240N+02271MA1999999098301MD1999999-0011REMSYN017 333 20227 59001;
0118829860999991996022918004-09400-038217FM-12+0252SBUF V0201401N00151007501CN0500001N1+03481+01711100691ADDAA106000091AG10000AY121061AY221061GF107991051071008001081001MA1999999097891MD1999999+0081MW1151REMSYN011 333 58008;
0162829860999991996030100004-09400-038217FM-12+0252SBUF V0200901N00151007501CN9999999N9+02781+02011100901ADDAA106001091AG10006AY161061AY221061GF107991051071008001081999KA1240M+03541MA1999999098081MD1999999+0001MW1031REMSYN023 333 10354 58000 60011;EQDQ01+000002VOVAR 
0121829860999991996030112004-09400-038217FM-12+0252SBUF V0200901N00101045001CN0040001N1+02541+02091101191ADDAA124001091AG10000GF107991041011004501081071KA1240N+02371MA1999999098351MD1999999+0051REMSYN023 333 20237 58005 60014;
0118829860999991996030118004-09400-038217FM-12+0252SBUF V0201401N00101007501CN0500001N1+03361+01891100631ADDAA106000091AG10000AY121061AY221061GF107991051071008001081091MA1999999097831MD1999999-0061MW1151REMSYN011 333 59006;
0134829860999991996030200004-09400-038217FM-12+0252SBUF V0200901N00211045001CN9999999N9+02801+02131100911ADDAA106000091AG10000GF106991031071008001081999KA1240M+03421MA1999999098091MD1999999+0011REMSYN017 333 10342 58001;EQDQ01+000002VOVAR 
0137829860999991996030212004-09400-038217FM-12+0252SBUF V0200901N00151012001CN0200001N1+02661+02241101141ADDAA106000091AG10000AY121061AY221061GF108991081081008001999999KA1240N+02401MA1999999098311MD1999999-0041MW1151REMSYN017 333 20240 59004;
0096829860999991996030218004-09400-038217FM-12+0252SBUF V0201401N00511045001CN0100001N1+03531+01701100721ADDAA106000091AG10000GF106991041021004501081011MA1999999097921MD1999999+0091REMSYN011 333 58009;
0156829860999991996030300004-09400-038217FM-12+0252SBUF V0200901N00671007501CN9999999N9+02781+02161100931ADDAA106000091AG10000AY121061AY221061GF107991051071008001081999KA1240M+03561MA1999999098111MD1999999+0021MW1131REMSYN017 333 10356 58002;EQDQ01+000002VOVAR 
0115829860999991996030312004-09400-038217FM-12+0252SBUF V0200901N00261045001CN0100001N1+02671+02091101151ADDAA106000091AG10000GF106991031011008001081011KA1240N+02421MA1999999098321MD1999999+0011REMSYN017 333 20242 58001;
0096829860999991996030318004-09400-038217FM-12+0252SBUF V0201401N00211045001CN0500001N1+03431+01471100661ADDAA106000091AG10000GF106991021011008001081081MA1999999097861MD1999999-0051REMSYN011 333 59005;
0134829860999991996030400004-09400-038217FM-12+0252SBUF V0200901N00361220001CN9999999N9+02741+02001100931ADDAA106000091AG10000GF102991021001012501061001KA1240M+03501MA1999999098111MD1999999+0001REMSYN017 333 10350 58000;EQDQ01+000002VOVAR 
0115829860999991996030412004-09400-038217FM-12+0252SBUF V0200501N00211045001CN0100001N1+02741+02001101061ADDAA106000091AG10000GF106991021011008001061001KA1240N+02401MA1999999098231MD1999999-0091REMSYN017 333 20240 59009;
0096829860999991996030418004-09400-038217FM-12+0252SBUF V0200501N00051045001CN0500001N1+03361+01811100511ADDAA106000091AG10000GF106991031071012501081091MA1999999097701MD1999999-0161REMSYN011 333 59016;
0150829860999991996030500004-09400-038217FM-12+0252SBUF V0200901N00721220001CN9999999N9+02901+02021100791ADDAA106000091AG10000GA1001+999999999GF100991001001999999001001KA1240M+03621MA1999999097981MD1999999-0131REMSYN017 333 10362 59013;EQDQ01+000002VOVAR 
0115829860999991996030512004-09400-038217FM-12+0252SBUF V0200901N00151045001CN0200001N1+02861+02091101121ADDAA106000091AG10000GF106991031011008001061011KA1240N+02461MA1999999098311MD1999999+0081REMSYN017 333 20246 58008;
0156829860999991996030600004-09400-038217FM-12+0252SBUF V0201401N00411045001CN9999999N9+02911+02071100971ADDAA106000091AG10001AY151061AY221061GF106991041021004501081001KA1240M+03681MA1999999098161MD1999999+0181MW1131REMSYN017 333 10368 58018;EQDQ01+000002VOVAR 
0123829860999991996030612004-09400-038217FM-12+0252SBUF V0200901N00211105001CN0200001N1+02751+02281101271ADDAA124012091AG10006AY161061AY251061GF105991021011008001061011KA1240N+02301MA1999999098441MW1031REMSYN017 333 20230 60124;
0118829860999991996030618004-09400-038217FM-12+0252SBUF V0201401N00151045001CN0500001N1+03401+02111100641ADDAA106000091AG10000AY121061AY221061GF106991031071012501081091MA1999999097831MD1999999+0051MW1151REMSYN011 333 58005;
0134829860999991996030700004-09400-038217FM-12+0252SBUF V0201401N00461045001CN9999999N9+02901+02151100931ADDAA106000091AG10000GF106991041021004501081001KA1240M+03531MA1999999098121MD1999999-0041REMSYN017 333 10353 59004;EQDQ01+000002VOVAR 
0115829860999991996030712004-09400-038217FM-12+0252SBUF V0200901N00311045001CN0040001N1+02701+02171101131ADDAA106000091AG10000GF106991031011008001081001KA1240N+02421MA1999999098311MD1999999-0131REMSYN017 333 20242 59013;
0096829860999991996030718004-09400-038217FM-12+0252SBUF V0201401N00211045001CN0500001N1+03461+01861100691ADDAA106000091AG10000GF106991031071012501081001MA1999999097891MD1999999+0061REMSYN011 333 58006;
0150829860999991996030800004-09400-038217FM-12+0252SBUF V0200901N00361220001CN9999999N9+02981+02011100911ADDAA106000091AG10000GA1001+999999999GF100991001001999999001001KA1240M+03601MA1999999098101MD1999999-0021REMSYN017 333 10360 59002;EQDQ01+000002VOVAR 
0115829860999991996030812004-09400-038217FM-12+0252SBUF V0200901N00101220001CN0200001N1+02841+02011101191ADDAA106000091AG10000GF103991011011008001061001KA1240N+02381MA1999999098381MD1999999+0071REMSYN017 333 20238 58007;
0096829860999991996030818004-09400-038217FM-12+0252SBUF V0201401N00211220001CN0500001N1+03521+01651100681ADDAA106000091AG10000GF104991021071012501061001MA1999999097881MD1999999-0011REMSYN011 333 59001;
0150829860999991996030900004-09400-038217FM-12+0252SBUF V0200901N00511220001CN9999999N9+03001+02031100961ADDAA106000091AG10000GA1001+999999999GF100991001001999999001001KA1240M+03641MA1999999098151MD1999999+0051REMSYN017 333 10364 58005;EQDQ01+000002VOVAR 
0137829860999991996030912004-09400-038217FM-12+0252SBUF V0201401N00151220001CN0100001N1+02701+02201101321ADDAA106000091AG10000AY101061AY221061GF105991021011004501061091KA1240N+02401MA1999999098491MD1999999+0111MW1051REMSYN017 333 20240 58011;
0096829860999991996030918004-09400-038217FM-12+0252SBUF V0200501N00261045001CN0200001N1+03351+01831100841ADDAA106000091AG10000GF107991031011008001081071MA1999999098031MD1999999+0151REMSYN011 333 58015;
0150829860999991996031000004-09400-038217FM-12+0252SBUF V0200901N00511220001CN9999999N9+02991+02061100941ADDAA106000091AG10000GA1001+999999999GF100991001001999999001001KA1240M+03381MA1999999098131MD1999999-0021REMSYN017 333 10338 59002;EQDQ01+000002VOVAR 
0137829860999991996031012004-09400-038217FM-12+0252SBUF V0200501N00051012001CN0200001N1+02621+02251101341ADDAA106000091AG10000AY101061AY221061GF108991081081008001999999KA1240N+02461MA1999999098511MD1999999+0021MW1151REMSYN017 333 20246 58002;
0118829860999991996031018004-09400-038217FM-12+0252SBUF V0202701N00151220001CN0500001N1+03321+02101100821ADDAA106000091AG10000AY121061AY221061GF105991021071012501061091MA1999999098011MD1999999-0021MW1151REMSYN011 333 59002;
0150829860999991996031100004-09400-038217FM-12+0252SBUF V0200901N00511220001CN9999999N9+03041+02001100811ADDAA106000091AG10000GA1001+999999999GF100991001001999999001001KA1240M+03441MA1999999098001MD1999999-0131REMSYN017 333 10344 59013;EQDQ01+000002VOVAR 
0115829860999991996031112004-09400-038217FM-12+0252SBUF V0201801N00151045001CN0200001N1+02771+02141101111ADDAA106000091AG10000GF106991031011008001081011KA1240N+02491MA1999999098301MD1999999-0211REMSYN017 333 20249 59021;
0150829860999991996031200004-09400-038217FM-12+0252SBUF V0200901N00311220001CN9999999N9+02961+01961100761ADDAA106000091AG10000GA1001+999999999GF100991001001999999001001KA1240M+03441MA1999999097961MD1999999-0041REMSYN017 333 10344 59004;EQDQ01+000002VOVAR 
0115829860999991996031212004-09400-038217FM-12+0252SBUF V0201401N002119999999N0100001N1+02751+02171101001ADDAA106000091AG10000GF106991999999008001999999KA1240N+02461MA1999999098191MD1999999-0111REMSYN017 333 20246 59011;
0118829860999991996031218004-09400-038217FM-12+0252SBUF V0201401N00361045001CN0500001N1+03521+01791100541ADDAA106000091AG10000AY121061AY221061GF106991031071012501081091MA1999999097761MD1999999-0071MW1151REMSYN011 333 59007;
0150829860999991996031300004-09400-038217FM-12+0252SBUF V0201401N00311220001CN9999999N9+02921+01981100791ADDAA106000091AG10000GA1001+999999999GF100991001001999999001001KA1240M+03481MA1999999097981MD1999999+0021REMSYN017 333 10348 58002;EQDQ01+000002VOVAR 
0115829860999991996031312004-09400-038217FM-12+0252SBUF V0201401N00101045001CN0100001N1+02621+02121101151ADDAA106000091AG10000GF106991031011008001081001KA1240N+02341MA1999999098321MD1999999+0131REMSYN017 333 20234 58013;
0096829860999991996031318004-09400-038217FM-12+0252SBUF V0203601N00211220001CN0500001N1+03381+01911100771ADDAA106000091AG10000GF105991021071012501081091MA1999999097971MD1999999+0211REMSYN011 333 58021;
0150829860999991996031400004-09400-038217FM-12+0252SBUF V0201401N00361220001CN9999999N9+02961+02101100951ADDAA106000091AG10000GA1001+999999999GF100991001001999999001001KA1240M+03501MA1999999098141MD1999999+0161REMSYN017 333 10350 58016;EQDQ01+000002VOVAR 
0115829860999991996031412004-09400-038217FM-12+0252SBUF V0200901N00261045001CN0200001N1+02841+02011101261ADDAA106000091AG10000GF106991031011008001081001KA1240N+02371MA1999999098441MD1999999+0121REMSYN017 333 20237 58012;
0115829860999991996031418004-09400-038217FM-12+0252SBUF V0201401N00211220001CN0500001N1+02581+01791100741ADDAA106000091AG10000GF105991021071012501081091MA1999999097552MD1999999-0021REMSYN011 333 59002;EQDQ01+097553APOSP 
0115829860999991996031512004-09400-038217FM-12+0252SBUF V0200901N00261045001CN0200001N1+02721+01931101121ADDAA106000091AG10000GF106991021011008001081011KA1240N+02171MA1999999098311MD1999999-0131REMSYN017 333 20217 59013;
0096829860999991996031518004-09400-038217FM-12+0252SBUF V0203201N00051220001CN0500001N1+03501+01381100731ADDAA106000091AG10000GF102991011011002501061081MA1999999097921MD1999999-0031REMSYN011 333 59003;
0172829860999991996031600004-09400-038217FM-12+0252SBUF V0200901N00671220001CN9999999N9+02941+01761100871ADDAA106000091AG10000AY101061AY221061GA1001+999999999GF100991001001999999001001KA1240M+03581MA1999999098061MD1999999-0081MW1061REMSYN017 333 10358 59008;EQDQ01+000002VOVAR 
0137829860999991996031612004-09400-038217FM-12+0252SBUF V0201401N00211012001CN0100001N1+02521+02131101071ADDAA106000091AG10000AY101061AY221061GF108991081081008001999999KA1240N+02421MA1999999098241MD1999999-0071MW1151REMSYN017 333 20242 59007;
0096829860999991996031618004-09400-038217FM-12+0252SBUF V0201401N00311220001CN0500001N1+03551+01411100541ADDAA106000091AG10000GF104991011011008001061011MA1999999097761MD1999999-0161REMSYN011 333 59016;
0150829860999991996031700004-09400-038217FM-12+0252SBUF V0201401N00361220001CN9999999N9+02981+02091100781ADDAA106000091AG10000GA1001+999999999GF100991001001999999001001KA1240M+03561MA1999999097961MD1999999-0181REMSYN017 333 10356 59018;EQDQ01+000002VOVAR 
0115829860999991996031712004-09400-038217FM-12+0252SBUF V0200901N00311045001CN0100001N1+02921+02041101081ADDAA106000091AG10000GF106991021011008001081011KA1240N+02461MA1999999098271MD1999999+0031REMSYN017 333 20246 58003;
0096829860999991996031718004-09400-038217FM-12+0252SBUF V0200901N00361045001CN0500001N1+03491+01661100591ADDAA106000091AG10000GF106991021011008001061011MA1999999097761MD1999999+0001REMSYN011 333 58000;
0150829860999991996031800004-09400-038217FM-12+0252SBUF V0201401N00461220001CN9999999N9+02941+01791100881ADDAA106000091AG10000GA1001+999999999GF100991001001999999001001KA1240M+03521MA1999999098081MD1999999+0121REMSYN017 333 10352 58012;EQDQ01+000002VOVAR 
0115829860999991996031812004-09400-038217FM-12+0252SBUF V0201401N00261045001CN0100001N1+02731+01981101151ADDAA106000091AG10000GF106991031011008001081011KA1240N+02331MA1999999098331MD1999999-0061REMSYN017 333 20233 59006;
0118829860999991996031818004-09400-038217FM-12+0252SBUF V0201401N00311007501CN0200001N1+03681+01651100691ADDAA106000091AG10000AY121061AY221061GF107991051071008001081091MA1999999097901MD1999999+0141MW1151REMSYN011 333 58014;
0134829860999991996031900004-09400-038217FM-12+0252SBUF V0200901N00211045001CN9999999N9+02481+01941101211ADDAA106000091AG10000GF106991031011008001081021KA1240M+03591MA1999999098371MD1999999+0291REMSYN017 333 10359 58029;EQDQ01+000002VOVAR 
0134829860999991996031912004-09400-038217FM-12+0252SBUF V0200501N00151220001CN0200001N1+02741+02001101241ADDAA106000091AG10000GF103991999001012501061001KA1240N+02311MA1999999098401MD1999999+0071REMSYN017 333 20231 58007;EQDQ01+000022SCOTLC
0150829860999991996032000004-09400-038217FM-12+0252SBUF V0201401N00461220001CN9999999N9+02821+02001101101ADDAA106000091AG10000GA1001+999999999GF100991001001999999001001KA1240M+03501MA1999999098281MD1999999-0091REMSYN017 333 10350 59009;EQDQ01+000002VOVAR 
0118829860999991996032018004-09400-038217FM-12+0252SBUF V0201401N00151045001CN0500001N1+03461+01861100721ADDAA106000091AG10000AY121061AY221061GF106991031071012501081091MA1999999097911MD1999999-0121MW1151REMSYN011 333 59012;
0115829860999991996032112004-09400-038217FM-12+0252SBUF V0203201N00101007501CN0100001N1+02401+01991101101ADDAA106000091AG10000GF105991051041008001001001KA1240N+02021MA1999999095261MD1999999+0001REMSYN017 333 20202 58000;
0115829860999991996032118004-09400-038217FM-12+0252SBUF V0201401N00151105001CN0500001N1+03521+01831100571ADDAA106000091AG10000GF105991021071012501081061MA1999999097782MD1999999-0131REMSYN011 333 59013;EQDQ01+097783APOSP 
0134829860999991996032200004-09400-038217FM-12+0252SBUF V0200901N00511045001CN9999999N9+02881+02031100911ADDAA106000091AG10000GF105991021011008001081001KA1240M+03561MA1999999098101MD1999999-0061REMSYN017 333 10356 59006;EQDQ01+000002VOVAR 
0115829860999991996032212004-09400-038217FM-12+0252SBUF V0200901N00151045001CN0200001N1+02831+02071101181ADDAA106000091AG10000GF106991021011008001081011KA1240N+02381MA1999999098361MD1999999+0031REMSYN017 333 20238 58003;
0096829860999991996032218004-09400-038217FM-12+0252SBUF V0201401N00311045001CN0500001N1+03521+01451100671ADDAA106000091AG10000GF106991031071012501081001MA1999999097881MD1999999+0101REMSYN011 333 58010;
0150829860999991996032300004-09400-038217FM-12+0252SBUF V0200901N00361220001CN9999999N9+02891+02031100931ADDAA106000091AG10000GA1001+999999999GF100991001001999999001001KA1240M+03541MA1999999098121MD1999999+0021REMSYN017 333 10354 58002;EQDQ01+000002VOVAR 
0115829860999991996032312004-09400-038217FM-12+0252SBUF V0200501N00151045001CN0200001N1+02801+01981101191ADDAA106000091AG10000GF105991021011008001061001KA1240N+02341MA1999999098371MD1999999+0011REMSYN017 333 20234 58001;
0150829860999991996032400004-09400-038217FM-12+0252SBUF V0200901N00411220001CN9999999N9+03041+01911100911ADDAA106000091AG10000GA1001+999999999GF100991001001999999001001KA1240M+03581MA1999999098101MD1999999-0021REMSYN017 333 10358 59002;EQDQ01+000002VOVAR 
0115829860999991996032412004-09400-038217FM-12+0252SBUF V0203201N00051045001CN0200001N1+02761+02191101081ADDAA106000091AG10000GF105991021071008001061051KA1240N+02481MA1999999098271MD1999999-0101REMSYN017 333 20248 59010;
0118829860999991996032418004-09400-038217FM-12+0252SBUF V0203201N00151220001CN0500001N1+03481+02071100541ADDAA106000091AG10000AY121061AY221061GF104991021071008001061091MA1999999097751MD1999999-0131MW1151REMSYN011 333 59013;
0172829860999991996032500004-09400-038217FM-12+0252SBUF V0201401N00151009001CN9999999N9+03101+02201100731ADDAA106999999AG10000AY121061AY221061GF108991081081004501999999KA1240M+03561MA1999999097931MD1999999-0171MW1951REMSYN017 333 10356 59017;EQDQ01+000002VOVAR Q02  00002PRCP06
0115829860999991996032512004-09400-038217FM-12+0252SBUF V0203601N00151045001CN0100001N1+02971+02101101041ADDAA106000091AG10000GF106991031011008001081001KA1240N+02691MA1999999098241MD1999999-0031REMSYN017 333 20269 59003;
0096829860999991996032518004-09400-038217FM-12+0252SBUF V0201401N001512200019N0500001N1+03581+01881100441ADDAA106000091AG10000GF105991021071008001041091MA1999999097661MD1999999-0091REMSYN011 333 59009;
0150829860999991996032600004-09400-038217FM-12+0252SBUF V0201401N00571220001CN9999999N9+03041+02121100631ADDAA106000091AG10000GA1001+999999999GF100991001001999999001001KA1240M+03721MA1999999097841MD1999999-0091REMSYN017 333 10372 59009;EQDQ01+000002VOVAR 
0118829860999991996032618004-09400-038217FM-12+0252SBUF V0200901N00311220001CN0500001N1+03581+01651100411ADDAA106000091AG10000AY121061AY221061GF105991021071008001061091MA1999999097631MD1999999-0031MW1151REMSYN011 333 59003;
0115829860999991996032712004-09400-038217FM-12+0252SBUF V0200901N00411220001CN0100001N1+02751+02021101251ADDAA106000091AG10000GF104991021011008001081001KA1240N+02361MA1999999098421MD1999999+0251REMSYN017 333 20236 58025;
0096829860999991996032718004-09400-038217FM-12+0252SBUF V0201401N00311045001CN0500001N1+03521+01451100731ADDAA106000091AG10000GF105991021011008001061001MA1999999097931MD1999999+0301REMSYN011 333 58030;
0172829860999991996032800004-09400-038217FM-12+0252SBUF V0201401N00671220001CN9999999N9+02941+01851101081ADDAA106000091AG10000AY121061AY221061GA1001+999999999GF100991001001999999001001KA1240M+03561MA1999999098261MD1999999+0081MW1061REMSYN017 333 10356 58008;EQDQ01+000002VOVAR 
0115829860999991996032812004-09400-038217FM-12+0252SBUF V0201401N00311045001CN0100001N1+02741+02071101361ADDAA106000091AG10000GF106991041021004501081001KA1240N+02371MA1999999098531MD1999999+0111REMSYN017 333 20237 58011;
0118829860999991996032818004-09400-038217FM-12+0252SBUF V0201401N00361007501CN0200001N1+03481+01751100811ADDAA106000091AG10000AY121061AY221061GF107991051071008001081001MA1999999098001MD1999999+0071MW1151REMSYN011 333 58007;
0156829860999991996032900004-09400-038217FM-12+0252SBUF V0201401N00511007501CN9999999N9+02581+02101101131ADDAA106000091AG10000AY121061AY221061GF107991051071008001081999KA1240M+03501MA1999999098301MD1999999+0041MW1131REMSYN017 333 10350 58004;EQDQ01+000002VOVAR 
0115829860999991996032912004-09400-038217FM-12+0252SBUF V0201401N00261045001CN0100001N1+02771+02161101291ADDAA106000091AG10000GF106991041021004501081011KA1240N+02461MA1999999098461MD1999999-0071REMSYN017 333 20246 59007;
0134829860999991996033000004-09400-038217FM-12+0252SBUF V0201401N00511007501CN9999999N9+02881+02161100971ADDAA106000091AG10000GF107991051071008001081999KA1240M+03481MA1999999098161MD1999999-0141REMSYN017 333 10348 59014;EQDQ01+000002VOVAR 
0137829860999991996033012004-09400-038217FM-12+0252SBUF V0200901N00211007501CN0200001N1+02841+02191101101ADDAA106000091AG10000AY121061AY221061GF107991051071008001081091KA1240N+02461MA1999999098291MD1999999-0171MW1151REMSYN017 333 20246 59017;
0096829860999991996033018004-09400-038217FM-12+0252SBUF V0200901N00151045001CN0500001N1+03471+01781100641ADDAA106000091AG10000GF106991021011008001081021MA1999999097841MD1999999-0151REMSYN011 333 59015;
0134829860999991996033100004-09400-038217FM-12+0252SBUF V0201401N00571045001CN9999999N9+02861+02161100971ADDAA106000091AG10000GF106991031071008001081999KA1240M+03521MA1999999098161MD1999999+0001REMSYN017 333 10352 58000;EQDQ01+000002VOVAR 
0115829860999991996033112004-09400-038217FM-12+0252SBUF V0200901N00211220001CN0200001N1+02901+01991101191ADDAA106000091AG10000GF103991021001012501061021KA1240N+02371MA1999999098381MD1999999+0091REMSYN017 333 20237 58009;
0096829860999991996033118004-09400-038217FM-12+0252SBUF V0200901N00261220001CN0500001N1+03581+01601100651ADDAA106000091AG10000GF103991021001012501061021MA1999999097851MD1999999+0011REMSYN011 333 58001;
0134829860999991996040100004-09400-038217FM-12+0252SBUF V0201401N00511045001CN9999999N9+02881+01941101081ADDAA106000091AG10000GF106991031021004501081001KA1240M+03601MA1999999098271MD1999999+0111REMSYN017 333 10360 58011;EQDQ01+000002VOVAR 
0115829860999991996040112004-09400-038217FM-12+0252SBUF V0201401N00211045001CN0100001N1+02771+02191101361ADDAA106000091AG10000GF106991031011008001081001KA1240N+02441MA1999999098531MD1999999+0151REMSYN017 333 20244 58015;
0118829860999991996040118004-09400-038217FM-12+0252SBUF V0201401N00311045001CN0500001N1+03561+99999100771ADDAA106000091AG10000AY121061AY221061GF106991031031008001081091MA1999999097981MD1999999+0131MW1151REMSYN011 333 58013;
0134829860999991996040200004-09400-038217FM-12+0252SBUF V0200901N00511045001CN9999999N9+02861+02141101191ADDAA106000091AG10000GF106991031011008001081021KA1240M+03611MA1999999098371MD1999999+0101REMSYN017 333 10361 58010;EQDQ01+000002VOVAR 
0115829860999991996040212004-09400-038217FM-12+0252SBUF V0201401N00511045001CN0100001N1+02801+02111101271ADDAA106000091AG10000GF106991031011008001081001KA1240N+02361MA1999999098441MD1999999-0091REMSYN017 333 20236 59009;
0118829860999991996040218004-09400-038217FM-12+0252SBUF V0201401N00461045001CN0500001N1+03421+01831100791ADDAA106000091AG10000AY121061AY221061GF106991031071008001081001MA1999999097991MD1999999+0011MW1151REMSYN011 333 58001;
0134829860999991996040300004-09400-038217FM-12+0252SBUF V0200901N00461220001CN9999999N9+02821+02021100991ADDAA106000091AG10000GF102991011001012501041021KA1240M+03481MA1999999098181MD1999999-0191REMSYN017 333 10348 59019;EQDQ01+000002VOVAR 
0115829860999991996040312004-09400-038217FM-12+0252SBUF V0201401N00461045001CN0100001N1+02811+01921101181ADDAA106000091AG10000GF105991021011008001081001KA1240N+02351MA1999999098361MD1999999-0081REMSYN017 333 20235 59008;
0096829860999991996040318004-09400-038217FM-12+0252SBUF V0201401N00461045001CN0500001N1+03501+01581100611ADDAA106000091AG10000GF105991041071012501081001MA1999999097811MD1999999-0081REMSYN011 333 59008;
0150829860999991996040400004-09400-038217FM-12+0252SBUF V0201401N00411220001CN9999999N9+02771+01941101091ADDAA106000091AG10000GA1001+999999999GF100991001001999999001001KA1240M+03521MA1999999098281MD1999999+0101REMSYN017 333 10352 58010;EQDQ01+000002VOVAR 
0137829860999991996040412004-09400-038217FM-12+0252SBUF V0200901N00311045001CN0200001N1+02801+02031101091ADDAA106000091AG10000AY101061AY221061GF106991031071008001081001KA1240N+02381MA1999999098271MD1999999-0091MW1151REMSYN017 333 20238 59009;
0096829860999991996040418004-09400-038217FM-12+0252SBUF V0201401N00461045001CN0500001N1+03351+01801100651ADDAA106000091AG10000GF105991021011008001081001MA1999999097841MD1999999+0031REMSYN011 333 58003;
0134829860999991996040500004-09400-038217FM-12+0252SBUF V0200901N00411045001CN9999999N9+02691+01941101061ADDAA106000091AG10000GF106991031011008001081001KA1240M+03401MA1999999098231MD1999999-0051REMSYN017 333 10340 59005;EQDQ01+000002VOVAR 
0137829860999991996040512004-09400-038217FM-12+0252SBUF V0201401N00311045001CN0200001N1+02621+02121101231ADDAA106000091AG10000AY121061AY221061GF106991031071008001081001KA1240N+02361MA1999999098391MD1999999+0121MW1151REMSYN017 333 20236 58012;
0096829860999991996040518004-09400-038217FM-12+0252SBUF V0202301N00311220001CN0500001N1+03361+01891100561ADDAA106000091AG10000GF104991021021004501081001MA1999999097761MD1999999-0081REMSYN011 333 59008;
0156829860999991996040600004-09400-038217FM-12+0252SBUF V0201801N00151045001CN9999999N9+02661+02091101011ADDAA106000091AG10001AY151061AY221061GF107991041021004501081001KA1240M+03401MA1999999098181MD1999999-0051MW1131REMSYN017 333 10340 59005;EQDQ01+000002VOVAR 
0162829860999991996040612004-09400-038217FM-12+0252SBUF V0201401N00151045001CN0200001N1+02701+02221101041ADDAA124001091AG10005AY161061AY221061GF106991031071008001081001KA1240N+02221MA1999999999999MD1999999-0181MW1151REMSYN023 333 20222 59018 60014;EQDQ01 092213APOSP 
0143829860999991996040618004-09400-038217FM-12+0252SBUF V0200901N00151045001CN0100001N1+02601+02231100741ADDAA106003091AG10005AY161061AY251061GF106991031021004501081001MA1999999097802MD1999999+0121MW1151REMSYN017 333 58012 60031;EQDQ01+097803APOSP 
0162829860999991996040700004-09400-038217FM-12+0252SBUF V0200901N00311006001CN9999999N9+02301+02221101061ADDAA106008091AG10005AY161061AY261061GF108991081081002501999999KA1240M+03161MA1999999098211MD1999999+0031MW1911REMSYN023 333 10316 58003 60081;EQDQ01+000002VOVAR 
0143829860999991996040712004-09400-038217FM-12+0252SBUF V0200501N00151007501CN0200001N1+02641+02141101161ADDAA124012091AG10005AY161061AY221061GF107991051071008001081061KA1240N+02261MA1999999098311MD1999999+0101MW1151REMSYN023 333 20226 58010 60124;
0118829860999991996040718004-09400-038217FM-12+0252SBUF V0201401N00101105001CN0500001N1+03261+02111100651ADDAA106000091AG10000AY121061AY221061GF105991021071012501061021MA1999999097831MD1999999-0051MW1151REMSYN011 333 59005;
0143829860999991996040812004-09400-038217FM-12+0252SBUF V0201801N00151004201CN0100001N1+02721+02371101251ADDAA124014091AG10005AY161061AY251061GF107991051071004501081001KA1240N+02451MA1999999098411MD1999999+0101MW1031REMSYN023 333 20245 58010 60144;
0118829860999991996040818004-09400-038217FM-12+0252SBUF V0201801N00151220001CN0500001N1+03181+02281100771ADDAA106000091AG10000AY121061AY221061GF105991021071004501061091MA1999999097961MD1999999+0131MW1151REMSYN011 333 58013;
0178829860999991996040900004-09400-038217FM-12+0252SBUF V0201401N03082006001CN9999999N9+02161+02111101331ADDAA106069091AG10005AY161061AY261061GF108991081081002501999999KA1240M+03281MA1999999098461MD1999999+0271MW1921REMSYN023 333 10328 58027 60691;EQDQ01+003083WOSPD Q02+000002VOVAR 
0143829860999991996040912004-09400-038217FM-12+0252SBUF V0201401N00211045001CN0040001N1+02571+02291101351ADDAA124129091AG10005AY161061AY251061GF106991041011004501081011KA1240N+02151MA1999999098471MD1999999+0061MW1031REMSYN023 333 20215 58006 61294;
0118829860999991996040918004-09400-038217FM-12+0252SBUF V0201401N00151220001CN0500001N1+03201+02061100761ADDAA106000091AG10000AY121061AY221061GF105991021071004501061091MA1999999097931MD1999999-0031MW1151REMSYN011 333 59003;
0162829860999991996041000004-09400-038217FM-12+0252SBUF V0203201N00211006001CN9999999N9+02341+02051101191ADDAA106001091AG10005AY161061AY251061GF108991081081002501999999KA1240M+03281MA1999999098331MD1999999-0131MW1951REMSYN023 333 10328 59013 69981;EQDQ01+000002VOVAR 
0118829860999991996041018004-09400-038217FM-12+0252SBUF V0201401N00151009001CN0020001N1+03041+02231100771ADDAA106000091AG10000AY121061AY221061GF108991081081004501999999MA1999999097951MD1999999+0021MW1151REMSYN011 333 58002;
0162829860999991996041100004-09400-038217FM-12+0252SBUF V0200901N00051004201CN9999999N9+02401+02351101331ADDAA106027091AG10005AY161061AY251061GF107991051071004501081999KA1240M+03061MA1999999098261MD1999999-0071MW1031REMSYN023 333 10306 59007 60271;EQDQ01+000002VOVAR 
0143829860999991996041112004-09400-038217FM-12+0252SBUF V0201401N00151045001CN0040001N1+02601+02291101261ADDAA124027091AG10005AY161061AY251061GF107991041021004501081021KA1240N+02271MA1999999098411MD1999999-0061MW1031REMSYN023 333 20227 59006 60274;
0118829860999991996041118004-09400-038217FM-12+0252SBUF V0201401N00051007501CN0500001N1+03081+02101100771ADDAA106000091AG10000AY121061AY221061GF107991051071008001081081MA1999999097951MD1999999-0011MW1151REMSYN011 333 59001;
0134829860999991996041200004-09400-038217FM-12+0252SBUF V0201401N00311220001CN9999999N9+02581+02171100941ADDAA106000091AG10000GF102991021041004501001999KA1240M+03081MA1999999098111MD1999999-0151REMSYN017 333 10308 59015;EQDQ01+000002VOVAR 
0115829860999991996041212004-09400-038217FM-12+0252SBUF V0201401N00211045001CN0100001N1+02701+02281101231ADDAA106000091AG10000GF106991031011008001081001KA1240N+02381MA1999999098391MD1999999-0021REMSYN017 333 20238 59002;
0178829860999991996041300004-09400-038217FM-12+0252SBUF V0200901N00211220001CN9999999N9+02481+02291101001ADDAA106009091AG10005AY161061AY221061GA1001+999999999GF100991001001999999001001KA1240M+03081MA1999999098181MD1999999+0071MW1001REMSYN023 333 10308 58007 60091;EQDQ01+000002VOVAR 
0143829860999991996041312004-09400-038217FM-12+0252SBUF V0200901N00211045001CN0200001N1+02581+02271101061ADDAA124009091AG10000AY121061AY221061GF106991031071008001081001KA1240N+02341MA1999999098211MD1999999-0181MW1151REMSYN023 333 20234 59018 60094;
0124829860999991996041318004-09400-038217FM-12+0252SBUF V0200901N00151045001CN0200001N1+02721+02371100711ADDAA106005091AG10005AY161061AY261061GF105991031021004501081001MA1999999097871MD1999999-0091MW1151REMSYN017 333 59009 60051;
0162829860999991996041400004-09400-038217FM-12+0252SBUF V0200901N00151045001CN9999999N9+02401+02261101071ADDAA106015091AG10005AY161061AY251061GF106991031071004501081999KA1240M+03161MA1999999098221MD1999999+0041MW1031REMSYN023 333 10316 58004 60151;EQDQ01+000002VOVAR 
0118829860999991996041418004-09400-038217FM-12+0252SBUF V0201401N00511045001CN0200001N1+02971+02101100791ADDAA106000091AG10001AY151061AY221061GF106991041021004501081001MA1999999097961MD1999999+0091MW1151REMSYN011 333 58009;
0150829860999991996041500004-09400-038217FM-12+0252SBUF V0201401N00461220001CN9999999N9+02681+02021101191ADDAA106000091AG10000GA1001+999999999GF100991001001999999001001KA1240M+03181MA1999999098351MD1999999+0131REMSYN017 333 10318 58013;EQDQ01+000002VOVAR 
0084829860999991996041518004-09400-038217FM-12+0252SBUF V0200501N00051045001CN0500001N1+02981+02171100881ADDAA106000091AG10000AY121061AY221061GF106991031071012501081001MA1999999098061MW1151
0150829860999991996041600004-09400-038217FM-12+0252SBUF V0201401N00511220001CN9999999N9+02681+02131101151ADDAA106000091AG10000GA1001+999999999GF100991001001999999001001KA1240M+03011MA1999999098311MD1999999-0041REMSYN017 333 10301 59004;EQDQ01+000002VOVAR 
0115829860999991996041612004-09400-038217FM-12+0252SBUF V0200901N00211045001CN0100001N1+02681+02201101261ADDAA106000091AG10000GF105991031021004501081011KA1240N+02311MA1999999098431MD1999999-0111REMSYN017 333 20231 59011;
0124829860999991996041618004-09400-038217FM-12+0252SBUF V0201401N00211004201CN0200001N1+02961+02201100791ADDAA106000191AG10005AY161061AY221061GF107991051071004501081001MA1999999097961MD1999999-0101MW1151REMSYN017 333 59010 69921;
0162829860999991996041700004-09400-038217FM-12+0252SBUF V0200901N00151045001CN9999999N9+02501+02341101081ADDAA106000591AG10005AY161061AY251061GF105991031011008001081001KA1240M+03101MA1999999098241MD1999999-0071MW1031REMSYN023 333 10310 59007 69941;EQDQ01+000002VOVAR 
0121829860999991996041712004-09400-038217FM-12+0252SBUF V0200901N00151009001CN0020001N1+02351+02091101261ADDAA124000591AG10000GF108991081081004501999999KA1240N+02341MA1999999098391MD1999999-0041REMSYN023 333 20234 59004 69964;
0134829860999991996041800004-09400-038217FM-12+0252SBUF V0200901N00261045001CN9999999N9+02551+02171101031ADDAA106000091AG10000GF106991031011008001081001KA1240M+03021MA1999999098181MD1999999-0061REMSYN017 333 10302 59006;EQDQ01+000002VOVAR 
0143829860999991996041812004-09400-038217FM-12+0252SBUF V0201401N00151045001CN0100001N1+02661+02331101131ADDAA124003091AG10005AY161061AY251061GF106991031011008001081011KA1240N+02311MA1999999098291MD1999999-0101MW1031REMSYN023 333 20231 59010 60034;
0118829860999991996041818004-09400-038217FM-12+0252SBUF V0201401N00151220001CN0500001N1+03161+02171100771ADDAA106000091AG10000AY121061AY221061GF105991021071008001061091MA1999999097951MD1999999+0031MW1151REMSYN011 333 58003;
0150829860999991996041900004-09400-038217FM-12+0252SBUF V0200901N00211220001CN9999999N9+02741+02141100931ADDAA106000091AG10000GA1001+999999999GF100991001001999999001001KA1240M+03181MA1999999098111MD1999999-0071REMSYN017 333 10318 59007;EQDQ01+000002VOVAR 
0115829860999991996041912004-09400-038217FM-12+0252SBUF V0201401N00151045001CN0100001N1+02641+02181101191ADDAA106000091AG10000GF106991031011008001081011KA1240N+02361MA1999999098361MD1999999+0071REMSYN017 333 20236 58007;
0096829860999991996041918004-09400-038217FM-12+0252SBUF V0200501N00151220001CN0500001N1+03101+02091100761ADDAA106000091AG10000GF105991021071012501061091MA1999999097941MD1999999-0011REMSYN011 333 59001;
0137829860999991996042012004-09400-038217FM-12+0252SBUF V0201401N00361004201CN0200001N1+02621+02251101141ADDAA106000091AG10000AY101061AY221061GF107991051071004501081001KA1240N+02381MA1999999098311MD1999999-0051MW1151REMSYN017 333 20238 59005;
0124829860999991996042018004-09400-038217FM-12+0252SBUF V0201401N00151045001CN0040001N1+02751+02261100921ADDAA106016091AG10005AY161061AY251061GF106991041071004501081001MA1999999098081MD1999999+0141MW1151REMSYN017 333 58014 60161;
0121829860999991996042112004-09400-038217FM-12+0252SBUF V0201401N002110075019N0200001N1+02561+02251101281ADDAA124023091AG10000GF107991051071008001081091KA1240N+02301MA1999999098431MD1999999+0121REMSYN023 333 20230 58012 60234;
0118829860999991996042118004-09400-038217FM-12+0252SBUF V0201401N00311045001CN0500001N1+03021+02071100911ADDAA106000091AG10000AY121061AY221061GF106991031071008001081081MA1999999098081MD1999999+0001MW1151REMSYN011 333 58000;
0172829860999991996042200004-09400-038217FM-12+0252SBUF V0201401N00211006001CN9999999N9+02421+02171101181ADDAA106999999AG10000AY121061AY221061GF108991081081002501999999KA1240M+03041MA1999999098331MD1999999-0051MW1501REMSYN017 333 10304 59005;EQDQ01+000002VOVAR Q02  00002PRCP06
0143829860999991996042212004-09400-038217FM-12+0252SBUF V0201401N00211007501CN0100001N1+02381+02071101451ADDAA124001091AG10005AY161061AY221061GF107991051071008001081001KA1240N+02321MA1999999098581MD1999999+0151MW1151REMSYN023 333 20232 58015 69984;
0118829860999991996042218004-09400-038217FM-12+0252SBUF V0201401N00211012001CN0200001N1+02781+01981101111ADDAA106000091AG10000AY121061AY221061GF108991081081008001999999MA1999999098271MD1999999+0191MW1151REMSYN011 333 58019;
0162829860999991996042300004-09400-038217FM-12+0252SBUF V0200501N00211006001CN9999999N9+02361+02261101331ADDAA106003091AG10005AY161061AY221061GF108991081081002501999999KA1240M+02801MA1999999098461MD1999999+0131MW1921REMSYN023 333 10280 58013 60031;EQDQ01+000002VOVAR 
0143829860999991996042312004-09400-038217FM-12+0252SBUF V0201401N00151045001CN0200001N1+02581+02231101391ADDAA124003091AG10005AY161061AY261061GF106991031071008001081001KA1240N+02261MA1999999098521MD1999999-0061MW1151REMSYN023 333 20226 59006 60034;
0118829860999991996042318004-09400-038217FM-12+0252SBUF V0200901N00211045001CN0100001N1+02921+02121101131ADDAA106000091AG10001AY151061AY221061GF106991041021004501051011MA1999999098281MD1999999+0011MW1151REMSYN011 333 58001;
0162829860999991996042400004-09400-038217FM-12+0252SBUF V0200901N00051004201CN9999999N9+02381+02291101311ADDAA106006091AG10005AY161061AY251061GF107991051071004501081999KA1240M+02961MA1999999098461MD1999999+0001MW1001REMSYN023 333 10296 58000 60061;EQDQ01+000002VOVAR 
0143829860999991996042412004-09400-038217FM-12+0252SBUF V0200901N00051045001CN0200001N1+02501+02311101391ADDAA124006091AG10005AY161061AY261061GF106991031071008001081001KA1240N+02301MA1999999098521MD1999999+0001MW1151REMSYN023 333 20230 58000 60064;
0124829860999991996042418004-09400-038217FM-12+0252SBUF V0200501N00151009001CN0005001N1+02301+02231101241ADDAA106007091AG10005AY161061AY261061GF108991081081004501999999MA1999999098361MD1999999+0081MW1911REMSYN017 333 58008 60071;
0162829860999991996042500004-09400-038217FM-12+0252SBUF V0201401N00051009001CN9999999N9+02281+02231101341ADDAA106000591AG10005AY161061AY221061GF108991081081004501999999KA1240M+02801MA1999999098471MD1999999+0011MW1001REMSYN023 333 10280 58001 69951;EQDQ01+000002VOVAR 
0143829860999991996042512004-09400-038217FM-12+0252SBUF V0200901N00151007501CN0200001N1+02461+02321101341ADDAA124009091AG10005AY161061AY261061GF107991051071008001081001KA1240N+02261MA1999999098461MD1999999-0061MW1151REMSYN023 333 20226 59006 60094;
0096829860999991996042518004-09400-038217FM-12+0252SBUF V0200901N00261045001CN0200001N1+02981+02231100921ADDAA106000091AG10000GF106991031021004501081011MA1999999098091MD1999999-0271REMSYN011 333 59027;
0162829860999991996042600004-09400-038217FM-12+0252SBUF V0200901N00211007501CN9999999N9+02421+02331101211ADDAA106012091AG10005AY161061AY221061GF107991051071008001081999KA1240M+03061MA1999999098341MD1999999-0131MW1001REMSYN023 333 10306 59013 60121;EQDQ01+000002VOVAR 
0096829860999991996042618004-09400-038217FM-12+0252SBUF V0201401N00211045001CN0100001N1+02521+02171100971ADDAA106000091AG10000GF107991041021004501081001MA1999999098101MD1999999+0011REMSYN011 333 58001;
0137829860999991996042712004-09400-038217FM-12+0252SBUF V0201401N00361007501CN0200001N1+02501+02341101291ADDAA106000091AG10000AY121061AY221061GF107991051071008001081001KA1240N+02301MA1999999098441MD1999999+0121MW1151REMSYN017 333 20230 58012;
0124829860999991996042718004-09400-038217FM-12+0252SBUF V0201401N00511004201CN0100001N1+02721+02051101081ADDAA106000191AG10005AY161061AY251061GF107991051071004501001999MA1999999098231MD1999999+0131MW1151REMSYN017 333 58013 69911;
0134829860999991996042800004-09400-038217FM-12+0252SBUF V0201401N00151007501CN9999999N9+02421+02051101311ADDAA106000091AG10000GF107991051071008001081999KA1240M+02761MA1999999098461MD1999999+0121REMSYN017 333 10276 58012;EQDQ01+000002VOVAR 
0121829860999991996042812004-09400-038217FM-12+0252SBUF V0201401N00311004201CN0040001N1+02491+02131101421ADDAA124000191AG10000GF107991051071004501081001KA1240N+02261MA1999999098551MD1999999+0111REMSYN023 333 20226 58011 69914;
0096829860999991996042818004-09400-038217FM-12+0252SBUF V0201401N00511004201CN0100001N1+02781+02061101091ADDAA106000091AG10000GF107991051071004501081001MA1999999098241MD1999999+0011REMSYN011 333 58001;
0134829860999991996042900004-09400-038217FM-12+0252SBUF V0200901N00211009001CN9999999N9+02351+02031101381ADDAA106000091AG10000GF108991081081004501999999KA1240M+02801MA1999999098511MD1999999+0051REMSYN017 333 10280 58005;EQDQ01+000002VOVAR 
0143829860999991996042912004-09400-038217FM-12+0252SBUF V0201401N00311006001CN0200001N1+02261+02211101461ADDAA124006091AG10005AY161061AY261061GF108991081081002501999999KA1240N+02171MA1999999098571MD1999999+0021MW1911REMSYN023 333 20217 58002 60064;
0124829860999991996042918004-09400-038217FM-12+0252SBUF V0201401N00311004201CN0100001N1+02711+02151101091ADDAA106000591AG10005AY161061AY251061GF107991051071004501081001MA1999999098231MD1999999-0011MW1031REMSYN017 333 59001 69961;
0134829860999991996043000004-09400-038217FM-12+0252SBUF V0201401N00311004201CN9999999N9+02411+02171101351ADDAA106000091AG10000GF107991051071004501081001KA1240M+02761MA1999999098471MD1999999-0041REMSYN017 333 10276 59004;EQDQ01+000002VOVAR 
0121829860999991996043012004-09400-038217FM-12+0252SBUF V0200901N003610075019N0200001N1+02501+99999101401ADDAA124000591AG10000GF107991051071008001081001KA1240N+02291MA1999999098531MD1999999-0041REMSYN023 333 20229 59004 69964;
0118829860999991996043018004-09400-038217FM-12+0252SBUF V0201401N00211007501CN0500001N1+02961+02211101051ADDAA106000091AG10000AY121061AY221061GF107991051071008001081081MA1999999098211MD1999999-0021MW1151REMSYN011 333 59002;
0162829860999991996050100004-09400-038217FM-12+0252SBUF V0201401N00151004201CN9999999N9+02341+02241101411ADDAA106008091AG10005AY161061AY251061GF107991051071004501081001KA1240M+03001MA1999999098541MD1999999+0071MW1031REMSYN023 333 10300 58007 60081;EQDQ01+000002VOVAR 
0121829860999991996050112004-09400-038217FM-12+0252SBUF V0201401N002110090019N0100001N1+02401+02231101331ADDAA124008091AG10000GF108991081081004501999999KA1240N+02201MA1999999098461MD1999999-0071REMSYN023 333 20220 59007 60084;
0096829860999991996050118004-09400-038217FM-12+0252SBUF V0200901N00311220001CN0200001N1+02901+01991101021ADDAA106000091AG10000GF104991021011008001061021MA1999999098181MD1999999-0031REMSYN011 333 59003;
0137829860999991996050212004-09400-038217FM-12+0252SBUF V0201401N00311007501CN0200001N1+02501+02211101381ADDAA106000091AG10000AY101061AY221061GF107991051071008001081011KA1240N+02181MA1999999098531MD1999999+0071MW1151REMSYN017 333 20218 58007;
0096829860999991996050218004-09400-038217FM-12+0252SBUF V0201401N00211045001CN0200001N1+02931+99999101001ADDAA106000091AG10000GF106991021011008001061021MA1999999098161MD1999999-0021REMSYN011 333 59002;
0134829860999991996050300004-09400-038217FM-12+0252SBUF V0201401N00211045001CN9999999N9+02581+02211101271ADDAA106000091AG10000GF107991031011008001081001KA1240M+02931MA1999999098421MD1999999-0041REMSYN017 333 10293 59004;EQDQ01+000002VOVAR 
0062829860999991996050312004-09400-038217FM-12+0252SBUF V0201401N00211045001CN0200001N1+02561+02231101261ADDAA106000091AG10000GF106991011051008001021021MA1999999098421
0096829860999991996050318004-09400-038217FM-12+0252SBUF V0201401N00311220001CN0500001N1+02981+02121100911ADDAA106000091AG10000GF103991021001012501041011MA1999999098081MD1999999-0081REMSYN011 333 59008;
0134829860999991996050400004-09400-038217FM-12+0252SBUF V0200901N00151220001CN9999999N9+02581+02211101261ADDAA106000091AG10000GF104991021011008001061021KA1240M+03011MA1999999098411MD1999999-0011REMSYN017 333 10301 59001;EQDQ01+000002VOVAR 
0082829860999991996050418004-09400-038217FM-12+0252SBUF V0201401N00311045001CN0500001N1+03001+02191100851ADDAA106000091AG10000GF106991031011008001081011MA1999999098021REMSYN011 333 50006;
0143829860999991996050512004-09400-038217FM-12+0252SBUF V0201401N00211007501CN0200001N1+02421+02381101411ADDAA124007091AG10005AY161061AY251061GF107991051071008001081001KA1240N+02321MA1999999098541MD1999999+0131MW1151REMSYN023 333 20232 58013 60074;
0118829860999991996050518004-09400-038217FM-12+0252SBUF V0201401N00151012001CN0500001N1+02801+02271100931ADDAA106000091AG10000AY121061AY221061GF108991081081008001999999MA1999999098101MD1999999+0081MW1151REMSYN011 333 58008;
0134829860999991996050600004-09400-038217FM-12+0252SBUF V0201401N00311012001CN9999999N9+02401+02091101311ADDAA106000091AG10000GF108991081081008001999999KA1240M+02861MA1999999098441MD1999999+0091REMSYN017 333 10286 58009;EQDQ01+000002VOVAR 
0137829860999991996050612004-09400-038217FM-12+0252SBUF V0201401N00211012001CN0200001N1+02361+02191101531ADDAA106000091AG10000AY151061AY221061GF107991051071012501081001KA1240N+02241MA1999999098651MD1999999+0111MW1151REMSYN017 333 20224 58011;
0118829860999991996050618004-09400-038217FM-12+0252SBUF V0201401N00151045001CN0040001N1+02811+02031101141ADDAA106000091AG10000AY151061AY221061GF106991041021004501081011MA1999999098291MD1999999+0191MW1151REMSYN011 333 58019;
0162829860999991996050700004-09400-038217FM-12+0252SBUF V0200901N00211007501CN9999999N9+02301+02221101341ADDAA106000391AG10005AY161061AY221061GF107991051071008001081999KA1240M+02821MA1999999098461MD1999999+0021MW1001REMSYN023 333 10282 58002 69931;EQDQ01+000002VOVAR 
0121829860999991996050712004-09400-038217FM-12+0252SBUF V0201401N00211045001CN0200001N1+02461+02031101401ADDAA124000391AG10000GF105991021071012501081001KA1240N+02121MA1999999098531MD1999999-0121REMSYN023 333 20212 59012 69934;
0096829860999991996050718004-09400-038217FM-12+0252SBUF V0200901N00211045001CN0200001N1+02841+01821101111ADDAA106000091AG10000GF106991031011008001081001MA1999999098251MD1999999-0041REMSYN011 333 59004;
0150829860999991996050800004-09400-038217FM-12+0252SBUF V0201401N00361220001CN9999999N9+02401+02071101301ADDAA106000091AG10000GA1001+999999999GF100991001001999999001001KA1240M+02921MA1999999098441MD1999999-0021REMSYN017 333 10292 59002;EQDQ01+000002VOVAR 
0115829860999991996050812004-09400-038217FM-12+0252SBUF V0201401N00411045001CN0200001N1+02501+02051101481ADDAA106000091AG10000GF105991021011008001061001KA1240N+02221MA1999999098621MD1999999-0091REMSYN017 333 20222 59009;
0096829860999991996050818004-09400-038217FM-12+0252SBUF V0201401N00311045001CN0100001N1+02841+02041101171ADDAA106000091AG10000GF107991041021004501081001MA1999999098321MD1999999+0071REMSYN011 333 58007;
0134829860999991996050900004-09400-038217FM-12+0252SBUF V0200901N00211007501CN9999999N9+02321+02131101341ADDAA106000091AG10000GF107991051071008001081999KA1240M+02841MA1999999098461MD1999999+0021REMSYN017 333 10284 58002;EQDQ01+000002VOVAR 
0115829860999991996050912004-09400-038217FM-12+0252SBUF V0201401N00311045001CN0200001N1+02421+02171101401ADDAA106000091AG10000GF106991031071008001081001KA1240N+02121MA1999999098531MD1999999-0091REMSYN017 333 20212 59009;
0096829860999991996050918004-09400-038217FM-12+0252SBUF V0201401N00261004201CN0100001N1+02701+02181101121ADDAA106000091AG10000GF107991051071004501081001MA1999999098251MD1999999-0071REMSYN011 333 59007;
0162829860999991996051000004-09400-038217FM-12+0252SBUF V0201401N00211007501CN9999999N9+02461+02171101311ADDAA106000191AG10005AY161061AY221061GF107991051071008001081999KA1240M+02761MA1999999098441MD1999999-0021MW1001REMSYN023 333 10276 59002 69911;EQDQ01+000002VOVAR 
0121829860999991996051012004-09400-038217FM-12+0252SBUF V0201401N00261004201CN0040001N1+02321+02131101411ADDAA124000191AG10000GF107991051071004501081001KA1240N+02171MA1999999098541MD1999999+0011REMSYN023 333 20217 58001 69914;
0118829860999991996051018004-09400-038217FM-12+0252SBUF V0200901N00311045001CN0100001N1+02851+02191101051ADDAA106000091AG10000AY151061AY221061GF106991031021004501081021MA1999999098201MD1999999-0051MW1151REMSYN011 333 59005;
0070829860999991996051100004-09400-038217FM-12+0252SBUF V0201401N003619999999N9999999N9+02321+02271101361ADDAG10000GF108991999999002501999999MA1999999098461EQDQ01+000002VOVAR 
0143829860999991996051112004-09400-038217FM-12+0252SBUF V0201401N00311045001CN0200001N1+02401+02231101321ADDAA124005091AG10005AY161061AY221061GF106991031071008001081001KA1240N+02221MA1999999098451MD1999999-0091MW1151REMSYN023 333 20222 59009 60054;
0118829860999991996051118004-09400-038217FM-12+0252SBUF V0200901N00311105001CN0500001N1+02901+02171101021ADDAA106000091AG10000AY121061AY221061GF105991021071012501061081MA1999999098181MD1999999-0021MW1151REMSYN011 333 59002;
0134829860999991996051200004-09400-038217FM-12+0252SBUF V0201401N00211045001CN9999999N9+02561+02251101271ADDAA106000091AG10000GF106991031071008001081999KA1240M+02941MA1999999098421MD1999999-0041REMSYN017 333 10294 59004;EQDQ01+000002VOVAR 
0062829860999991996051212004-09400-038217FM-12+0252SBUF V0201401N003619999999N0040001N1+02601+02191101561ADDAA106000091AG10000GF107991999999004501999999MA1999999098711
0096829860999991996051218004-09400-038217FM-12+0252SBUF V0201401N00511004201CN0040001N1+02891+02181101221ADDAA106000091AG10000GF107991051071004501081001MA1999999098381MD1999999+0211REMSYN011 333 58021;
0143829860999991996051312004-09400-038217FM-12+0252SBUF V0201401N00361045001CN0040001N1+02491+02131101651ADDAA124000191AG10005AY161061AY251061GF106991041011008001081001KA1240N+02131MA1999999098781MD1999999+0071MW1031REMSYN023 333 20213 58007 69924;
0096829860999991996051318004-09400-038217FM-12+0252SBUF V0200901N00361045001CN0100001N1+02901+02041101281ADDAA106000091AG10000GF106991041021004501081011MA1999999098371MD1999999-0011REMSYN011 333 59001;
0134829860999991996051400004-09400-038217FM-12+0252SBUF V0201401N00361004201CN9999999N9+02411+02071101541ADDAA106000091AG10000GF107991051071004501081001KA1240M+02921MA1999999098671MD1999999-0071REMSYN017 333 10292 59007;EQDQ01+000002VOVAR 
0143829860999991996051412004-09400-038217FM-12+0252SBUF V0201401N00621045001CN0200001N1+02421+02131101521ADDAA124002091AG10005AY161061AY221061GF106991031071012501081001KA1240N+02201MA1999999098641MD1999999-0141MW1151REMSYN023 333 20220 59014 60024;
0118829860999991996051418004-09400-038217FM-12+0252SBUF V0200901N00361045001CN0500001N1+02941+01911101001ADDAA106000091AG10000AY121061AY221061GF105991021071008001081001MA1999999098161MD1999999-0211MW1151REMSYN011 333 59021;
0150829860999991996051500004-09400-038217FM-12+0252SBUF V0201401N00361220001CN9999999N9+02521+02091101301ADDAA106000091AG10000GA1001+999999999GF100991001001999999001001KA1240M+02961MA1999999098441MD1999999-0231REMSYN017 333 10296 59023;EQDQ01+000002VOVAR 
0137829860999991996051512004-09400-038217FM-12+0252SBUF V0201401N00211045001CN0200001N1+02381+02151101301ADDAA106000091AG10000AY101061AY221061GF106991031071012501081001KA1240N+02121MA1999999098441MD1999999-0201MW1151REMSYN017 333 20212 59020;
0096829860999991996051518004-09400-038217FM-12+0252SBUF V0200501N00311220001CN0200001N1+03001+02051100851ADDAA106000091AG10000GF103991011011008001061001MA1999999098011MD1999999-0161REMSYN011 333 59016;
0115829860999991996051612004-09400-038217FM-12+0252SBUF V0200901N00151220001CN0100001N1+02481+02051101211ADDAA106000091AG10000GF103991021011008001061001KA1240N+02091MA1999999098351MD1999999-0091REMSYN017 333 20209 59009;
0096829860999991996051618004-09400-038217FM-12+0252SBUF V0201401N00151220001CN0500001N1+02961+02101100771ADDAA106000091AG10000GF104991021011004501061001MA1999999097931MD1999999-0081REMSYN011 333 59008;
0150829860999991996051700004-09400-038217FM-12+0252SBUF V0200901N00101220001CN9999999N9+02401+02111101091ADDAA106000091AG10000GA1001+999999999GF100991001001999999001001KA1240M+02981MA1999999098231MD1999999+0001REMSYN017 333 10298 58000;EQDQ01+000002VOVAR 
0096829860999991996051718004-09400-038217FM-12+0252SBUF V0201401N00151220001CN0500001N1+03001+02191101081ADDAA106000091AG10000GF103991021011008001061001MA1999999098241MD1999999+0211REMSYN011 333 58021;
0150829860999991996051800004-09400-038217FM-12+0252SBUF V0201401N00311220001CN9999999N9+02541+02041101431ADDAA106000091AG10000GA1001+999999999GF100991001001999999001001KA1240M+03041MA1999999098581MD1999999+0351REMSYN017 333 10304 58035;EQDQ01+000002VOVAR 
0137829860999991996051812004-09400-038217FM-12+0252SBUF V0201401N00211045001CN0200001N1+02461+02151101581ADDAA106000091AG10000AY101061AY221061GF106991031071008001081001KA1240N+02201MA1999999098721MD1999999+0181MW1151REMSYN017 333 20220 58018;
0096829860999991996051818004-09400-038217FM-12+0252SBUF V0200901N00511220001CN0500001N1+03011+01911101191ADDAA106000091AG10000GF102991021001012501041001MA1999999098341MD1999999+0101REMSYN011 333 58010;
0150829860999991996051900004-09400-038217FM-12+0252SBUF V0201401N00211220001CN9999999N9+02481+01961101241ADDAA106000091AG10000GA1001+999999999GF100991001001999999001001KA1240M+03021MA1999999098851MD1999999-0011REMSYN017 333 10302 59001;EQDQ01+000002VOVAR 
0143829860999991996051912004-09400-038217FM-12+0252SBUF V0201401N00151012001CN0100001N1+02301+02251101521ADDAA124002091AG10005AY161061AY251061GF108991081081008001999999KA1240N+02221MA1999999098641MD1999999-0081MW1151REMSYN023 333 20222 59008 60024;
0118829860999991996051918004-09400-038217FM-12+0252SBUF V0201401N00211045001CN0500001N1+02881+02181101131ADDAA106000091AG10000AY121061AY221061GF106991031071012501081001MA1999999098281MD1999999-0081MW1151REMSYN011 333 59008;
0134829860999991996052000004-09400-038217FM-12+0252SBUF V0201401N00311007501CN9999999N9+02641+02161101261ADDAA106000091AG10000GF107991051071008001081999KA1240M+02921MA1999999098411MD1999999-0161REMSYN017 333 10292 59016;EQDQ01+000002VOVAR 
0143829860999991996052012004-09400-038217FM-12+0252SBUF V0200901N00311220001CN0200001N1+02471+02131101311ADDAA124000191AG10005AY161061AY251061GF104991021011008001081001KA1240N+02181MA1999999098461MD1999999-0181MW1031REMSYN023 333 20218 59018 69914;
0096829860999991996052018004-09400-038217FM-12+0252SBUF V0201401N00311105001CN0500001N1+03021+01961101011ADDAA106000091AG10000GF105991021071004501061011MA1999999098181MD1999999-0101REMSYN011 333 59010;
0150829860999991996052100004-09400-038217FM-12+0252SBUF V0200901N00151220001CN9999999N9+02461+02091101171ADDAA106000091AG10000GA1001+999999999GF100991001001999999001001KA1240M+03021MA1999999098321MD1999999-0091REMSYN017 333 10302 59009;EQDQ01+000002VOVAR 
0115829860999991996052112004-09400-038217FM-12+0252SBUF V0200901N00311004201CN0040001N1+02441+02151101471ADDAA106000091AG10000GF107991051071004501081001KA1240N+02221MA1999999098601MD1999999+0141REMSYN017 333 20222 58014;
0096829860999991996052118004-09400-038217FM-12+0252SBUF V0201401N00211045001CN0500001N1+02981+02091101081ADDAA106000091AG10000GF105991021011004501061001MA1999999098241MD1999999+0061REMSYN011 333 58006;
0150829860999991996052200004-09400-038217FM-12+0252SBUF V0201401N00311220001CN9999999N9+02581+02091101261ADDAA106000091AG10000GA1001+999999999GF100991001001999999001001KA1240M+03021MA1999999098411MD1999999+0091REMSYN017 333 10302 58009;EQDQ01+000002VOVAR 
0115829860999991996052212004-09400-038217FM-12+0252SBUF V0200901N00211045001CN0040001N1+02441+02211101571ADDAA106000091AG10000GF106991031011008001081001KA1240N+02211MA1999999098711MD1999999+0111REMSYN017 333 20221 58011;
0096829860999991996052218004-09400-038217FM-12+0252SBUF V0200901N00311220001CN0500001N1+03061+01961101081ADDAA106000091AG10000GF104991021071008001061001MA1999999098241MD1999999+0001REMSYN011 333 58000;
0134829860999991996052300004-09400-038217FM-12+0252SBUF V0200901N00151012001CN9999999N9+02561+02151101301ADDAA106000091AG10000GF107991051071012501081999KA1240M+03081MA1999999098451MD1999999+0021REMSYN017 333 10308 58002;EQDQ01+000002VOVAR 
0118829860999991996052318004-09400-038217FM-12+0252SBUF V0200901N00151007501CN0500001N1+02921+02091101041ADDAA106000091AG10000AY121061AY221061GF107991051071008001081001MA1999999098201MD1999999-0041MW1151REMSYN011 333 59004;
0150829860999991996052400004-09400-038217FM-12+0252SBUF V0200901N00211220001CN9999999N9+02481+02151101171ADDAA106000091AG10000GA1001+999999999GF100991001001999999001001KA1240M+02921MA1999999098321MD1999999-0131REMSYN017 333 10292 59013;EQDQ01+000002VOVAR 
0115829860999991996052412004-09400-038217FM-12+0252SBUF V0201401N00311045001CN0040001N1+02601+02171101371ADDAA106000091AG10000GF106991041021004501081001KA1240N+02201MA1999999098521MD1999999-0121REMSYN017 333 20220 59012;
0096829860999991996052418004-09400-038217FM-12+0252SBUF V0200901N00151045001CN0500001N1+02921+01921100991ADDAA106000091AG10000GF106991031071008001081001MA1999999098161MD1999999-0041REMSYN011 333 59004;
0134829860999991996052500004-09400-038217FM-12+0252SBUF V0200901N00211004201CN9999999N9+02561+02081101171ADDAA106000091AG10000GF107991051071004501081999KA1240M+02981MA1999999098331MD1999999+0011REMSYN017 333 10298 58001;EQDQ01+000002VOVAR 
0137829860999991996052512004-09400-038217FM-12+0252SBUF V0201401N00051045001CN0200001N1+02601+02211101361ADDAA106000091AG10000AY121061AY221061GF106991031071008001081001KA1240N+02121MA1999999098511MD1999999-0011MW1151REMSYN017 333 20212 59001;
0115829860999991996052518004-09400-038217FM-12+0252SBUF V0200901N00671220001CN0500001N1+02881+01801101181ADDAA106000091AG10000GF103991011011012501061001MA1999999096332MD1999999+0171REMSYN011 333 58017;EQDQ01+096333APOSP 
0134829860999991996052612004-09400-038217FM-12+0252SBUF V0200901N00151007501CN9999999N9+02441+01831101411ADDAA106000091AG10000GF107991051071008001081999KA1240M+02981MA1999999098561MD1999999+0231REMSYN017 333 10298 58023;EQDQ01+000002VOVAR 
0124829860999991996052618004-09400-038217FM-12+0252SBUF V0201401N00101045001CN0100001N1+02721+01821101271ADDAA106001091AG10005AY161061AY251061GF106991041021004501081001MA1999999098501MD1999999+0171MW1031REMSYN017 333 58017 69981;
0121829860999991996052712004-09400-038217FM-12+0252SBUF V0201401N00211045001CN0100001N1+02311+01791101761ADDAA124001091AG10000GF106991021011008001061011KA1240N+01941MA1999999098851MD1999999+0041REMSYN023 333 20194 58004 69984;
0118829860999991996052718004-09400-038217FM-12+0252SBUF V0201401N00311045001CN0500001N1+02821+02051101331ADDAA106000091AG10000AY121061AY221061GF106991031071012501081001MA1999999098461MD1999999-0041MW1151REMSYN011 333 59004;
0150829860999991996052800004-09400-038217FM-12+0252SBUF V0200901N00151220001CN9999999N9+02381+01911101701ADDAA106000091AG10000GA1001+999999999GF100991001001999999001001KA1240M+02941MA1999999098801MD1999999+0051REMSYN017 333 10294 58005;EQDQ01+000002VOVAR 
0137829860999991996052812004-09400-038217FM-12+0252SBUF V0201401N00051007501CN0200001N1+02341+02001101631ADDAA106000091AG10000AY101061AY221061GF107991051071008001081001KA1240N+02001MA1999999098751MD1999999-0101MW1151REMSYN017 333 20200 59010;
0096829860999991996052818004-09400-038217FM-12+0252SBUF V0200901N00211045001CN0200001N1+02901+01871101221ADDAA106000091AG10000GF106991041021004501081001MA1999999098361MD1999999-0101REMSYN011 333 59010;
0134829860999991996052900004-09400-038217FM-12+0252SBUF V0201401N00361004201CN9999999N9+02361+02051101491ADDAA106000091AG10000GF107991051071004501081001KA1240M+02941MA1999999098601MD1999999-0201REMSYN017 333 10294 59020;EQDQ01+000002VOVAR 
0143829860999991996052912004-09400-038217FM-12+0252SBUF V0201401N00211045001CN0040001N1+02351+02171101501ADDAA124003091AG10005AY161061AY251061GF107991041021004501081011KA1240N+02161MA1999999098611MD1999999-0141MW1031REMSYN023 333 20216 59014 60034;
0124829860999991996052918004-09400-038217FM-12+0252SBUF V0201401N00151006001CN0002001N1+02641+02271101101ADDAA106010091AG10005AY161061AY251061GF108991081081002501999999MA1999999098231MD1999999-0131MW1921REMSYN017 333 59013 60101;
0162829860999991996053000004-09400-038217FM-12+0252SBUF V0201401N00361009001CN9999999N9+02311+02031101491ADDAA106001091AG10005AY161061AY251061GF108991081081004501999999KA1240M+02831MA1999999098601MD1999999+0001MW1031REMSYN023 333 10283 58000 69971;EQDQ01+000002VOVAR 
0143829860999991996053012004-09400-038217FM-12+0252SBUF V0201401N00151004201CN0020001N1+02181+02081101621ADDAA124011091AG10005AY161061AY251061GF107991051071004501081001KA1240N+02071MA1999999098721MD1999999+0111MW1151REMSYN023 333 20207 58011 60114;
0124829860999991996053018004-09400-038217FM-12+0252SBUF V0200901N00311006001CN0005001N1+02161+02021101471ADDAA106002091AG10005AY161061AY251061GF108991081081002501999999MA1999999098571MD1999999+0241MW1911REMSYN017 333 58024 60021;
0162829860999991996053100004-09400-038217FM-12+0252SBUF V0200901N00151006001CN9999999N9+02101+02021101701ADDAA106001091AG10005AY161061AY261061GF108991081081002501999999KA1240M+02501MA1999999098791MD1999999+0191MW1911REMSYN023 333 10250 58019 69971;EQDQ01+000002VOVAR 
0143829860999991996053112004-09400-038217FM-12+0252SBUF V0201401N00211045001CN0040001N1+02311+02051101671ADDAA124004091AG10005AY161061AY251061GF106991041021004501081001KA1240N+02021MA1999999098771MD1999999+0041MW1031REMSYN023 333 20202 58004 60044;
0118829860999991996053118004-09400-038217FM-12+0252SBUF V0201801N00311007501CN0500001N1+02781+01881101281ADDAA106000091AG10000AY121061AY221061GF107991051071008001081001MA1999999098411MD1999999-0161MW1151REMSYN011 333 59016;
0150829860999991996060100004-09400-038217FM-12+0252SBUF V0200901N00211220001CN9999999N9+02291+01831101611ADDAA106000091AG10000GA1001+999999999GF100991001001999999001001KA1240M+02841MA1999999098721MD1999999-0061REMSYN017 333 10284 59006;EQDQ01+000002VOVAR 
0143829860999991996060112004-09400-038217FM-12+0252SBUF V0201401N00361009001CN0040001N1+02241+02161101671ADDAA124000591AG10004AY161061AY251061GF108991081081004501999999KA1240N+02081MA1999999098781MD1999999+0011MW1911REMSYN023 333 20208 58001 69964;
0124829860999991996060118004-09400-038217FM-12+0252SBUF V0200901N00411105001CN0200001N1+02911+01901101341ADDAA106000191AG10004AY161061AY221061GF105991021011008001081081MA1999999098481MD1999999+0071MW1031REMSYN017 333 58007 69911;
0121829860999991996060212004-09400-038217FM-12+0252SBUF V0201401N00311006001CN0020001N1+02381+02071101451ADDAA124000191AG10000GF108991081081002501999999KA1240N+02081MA1999999098571MD1999999-0211REMSYN023 333 20208 59021 69914;
0124829860999991996060218004-09400-038217FM-12+0252SBUF V0201401N00311007501CN0500001N1+02421+02131101321ADDAA106000591AG10004AY161061AY251061GF107991051071008001081001MA1999999098431MD1999999-0051MW1151REMSYN017 333 59005 69941;
0150829860999991996060300004-09400-038217FM-12+0252SBUF V0201401N00151220001CN9999999N9+02261+02031101551ADDAA106000091AG10000GA1001+999999999GF100991001001999999001001KA1240M+02761MA1999999098661MD1999999+0011REMSYN017 333 10276 58001;EQDQ01+000002VOVAR 
0143829860999991996060312004-09400-038217FM-12+0252SBUF V0201401N00361045001CN0200001N1+02301+02071101561ADDAA124000591AG10000AY101061AY221061GF107991021071008001081001KA1240N+01941MA1999999098761MD1999999+0191MW1151REMSYN023 333 20194 58019 69944;
0118829860999991996060318004-09400-038217FM-12+0252SBUF V0201401N00311045001CN0500001N1+02901+01961101251ADDAA106000091AG10000AY121061AY221061GF106991031071012501081001MA1999999098371MD1999999-0061MW1151REMSYN011 333 59006;
0194829860999991996060400004-09400-038217FM-12+0252SBUF V0201401N00361009001CN9999999N9+02261+02091101571ADDAA106000191AG10004AY161061AY221061GF108991081081004501999999KA1240M+02921MA1999999098661MD1999999+0001MW1001REMSYN023 333 10292 58000 69911;EQDQ01+109151APOSLPQ02+999990APOSLPQ03+000002VOVAR 
0162829860999991996060412004-09400-038217FM-12+0252SBUF V0201401N00051009001CN0100001N1+02261+02121999999ADDAA124003091AG10004AY161061AY251061GF108991081081004501999999KA1240N+02111MA1999999098681MD1999999-0081MW1151REMSYN023 333 20211 59008 60034;EQDQ01 105173APOSLP
0162829860999991996060500004-09400-038217FM-12+0252SBUF V0201401N00051009001CN9999999N9+02141+02091101611ADDAA106010091AG10004AY161061AY251061GF108991081081004501999999KA1240M+02421MA1999999098711MD1999999+0051MW1051REMSYN023 333 10242 58005 60101;EQDQ01+000002VOVAR 
0143829860999991996060512004-09400-038217FM-12+0252SBUF V0201401N00151007501CN0200001N1+02221+02081101811ADDAA124026091AG10004AY161061AY221061GF107991051071008001081001KA1240N+01981MA1999999098891MD1999999+0211MW1151REMSYN023 333 20198 58021 60264;
0118829860999991996060518004-09400-038217FM-12+0252SBUF V0200901N00311045001CN0500001N1+02781+01981101561ADDAA106000091AG10000AY121061AY221061GF106991031071012501081061MA1999999098671MD1999999+0161MW1151REMSYN011 333 58016;
0134829860999991996060600004-09400-038217FM-12+0252SBUF V0200901N00211004201CN9999999N9+02341+02051101711ADDAA106000091AG10000GF107991051071004501081999KA1240M+02801MA1999999098801MD1999999+0091REMSYN017 333 10280 58009;EQDQ01+000002VOVAR 
0154829860999991996060612004-09400-038217FM-12+0252SBUF V0200901N00151007501CN0100001N1+02281+02111101801ADDAA106000091AA224000191AG10004AY161061AY221061GF107991051071008001081001KA1240N+01221MA1999999098891MD1999999+0001MW1151REMSYN023 333 20122 58000 69924;
0124829860999991996060618004-09400-038217FM-12+0252SBUF V0201401N00211045001CN0500001N1+02821+02051101431ADDAA106000591AG10004AY161061AY221061GF106991031071012501081001MA1999999098581MD1999999-0091MW1151REMSYN017 333 59009 69941;
0162829860999991996060700004-09400-038217FM-12+0252SBUF V0200901N00151009001CN9999999N9+02241+02161101581ADDAA106001091AG10004AY161061AY221061GF108991081081004501999999KA1240M+02841MA1999999098791MD1999999-0111MW1051REMSYN023 333 10284 59011 69991;EQDQ01+000002VOVAR 
0143829860999991996060712004-09400-038217FM-12+0252SBUF V0201401N00151007501CN0200001N1+02281+02111101661ADDAA124002091AG10004AY161061AY251061GF107991051071008001081001KA1240N+02021MA1999999098771MD1999999-0121MW1151REMSYN023 333 20202 59012 60024;
0124829860999991996060718004-09400-038217FM-12+0252SBUF V0201401N00311045001CN0500001N1+02781+02011101461ADDAA106001091AG10004AY161061AY221061GF106991031071012501081001MA1999999098591MD1999999+0011MW1151REMSYN017 333 58001 69991;
0150829860999991996060800004-09400-038217FM-12+0252SBUF V0200901N00151220001CN9999999N9+02321+02051101641ADDAA106000091AG10000GA1001+999999999GF100991001001999999001001KA1240M+02801MA1999999098751MD1999999-0041REMSYN017 333 10280 59004;EQDQ01+000002VOVAR 
0143829860999991996060812004-09400-038217FM-12+0252SBUF V0200901N00311009001CN0040001N1+02281+02141101781ADDAA124002091AG10004AY161061AY251061GF108991081081004501999999KA1240N+02121MA1999999098871MD1999999+0101MW1051REMSYN023 333 20212 58010 60024;
0118829860999991996060818004-09400-038217FM-12+0252SBUF V0201401N00211007501CN0500001N1+02501+02171101511ADDAA106000091AG10000AY121061AY221061GF107991051071008001081001MA1999999098621MD1999999+0031MW1151REMSYN011 333 58003;
0121829860999991996060912004-09400-038217FM-12+0252SBUF V0201401N00311045001CN0200001N1+02361+01991101871ADDAA124000591AG10000GF106991031071004501081001KA1240N+01981MA1999999098961MD1999999+0091REMSYN023 333 20198 58009 69964;
0118829860999991996060918004-09400-038217FM-12+0252SBUF V0201401N00311045001CN0500001N1+02781+01881101661ADDAA106000091AG10000AY121061AY221061GF106991031071008001051001MA1999999098771MD1999999+0151MW1151REMSYN011 333 58015;
0134829860999991996061000004-09400-038217FM-12+0252SBUF V0201401N00311012001CN9999999N9+02361+01831101951ADDAA106000091AG10000GF108991081081008001999999KA1240M+02821MA1999999099061MD1999999+0181REMSYN017 333 10282 58018;EQDQ01+000002VOVAR 
0137829860999991996061012004-09400-038217FM-12+0252SBUF V0201401N00571045001CN0200001N1+02381+02031101831ADDAA106000091AG10000AY121061AY221061GF106991031071008001081001KA1240N+02001MA1999999098941MD1999999-0021MW1151REMSYN017 333 20200 59002;
0118829860999991996061018004-09400-038217FM-12+0252SBUF V0201401N00361045001CN0200001N1+02721+01821101501ADDAA106000091AG10000AY121061AY221061GF106991031071008001081001MA1999999098611MD1999999-0161MW1151REMSYN011 333 59016;
0134829860999991996061100004-09400-038217FM-12+0252SBUF V0201401N00311045001CN9999999N9+02241+01781101771ADDAA106000091AG10000GF106991031071008001081999KA1240M+02781MA1999999098861MD1999999-0201REMSYN017 333 10278 59020;EQDQ01+000002VOVAR 
0137829860999991996061112004-09400-038217FM-12+0252SBUF V0201401N00311007501CN0200001N1+02221+01991101801ADDAA106000091AG10000AY121061AY221061GF107991051071008001081001KA1240N+01921MA1999999098881MD1999999-0061MW1151REMSYN017 333 20192 59006;
0134829860999991996061200004-09400-038217FM-12+0252SBUF V0201401N00211045001CN9999999N9+02361+01831101651ADDAA106000091AG10000GF106991031071008001081999KA1240M+02761MA1999999098761MD1999999-0101REMSYN017 333 10276 59010;EQDQ01+000002VOVAR 
0143829860999991996061212004-09400-038217FM-12+0252SBUF V0201401N00151009001CN0200001N1+02341+02051101761ADDAA124000191AG10004AY161061AY221061GF108991081081004501999999KA1240N+02061MA1999999098861MD1999999-0021MW1151REMSYN023 333 20206 59002 69924;
0150829860999991996061300004-09400-038217FM-12+0252SBUF V0201401N00211220001CN9999999N9+02321+01961101751ADDAA106000091AG10000GA1001+999999999GF100991001001999999001001KA1240M+02761MA1999999098841MD1999999+0081REMSYN017 333 10276 58008;EQDQ01+000002VOVAR 
0137829860999991996061312004-09400-038217FM-12+0252SBUF V0201401N00311007501CN0200001N1+02401+02091101631ADDAA106000091AG10000AY121061AY221061GF107991051071008001081001KA1240N+02081MA1999999098751MD1999999-0111MW1151REMSYN017 333 20208 59011;
0124829860999991996061318004-09400-038217FM-12+0252SBUF V0200901N00311009001CN0100001N1+02621+02071101391ADDAA106000591AG10004AY161061AY221061GF108991081081004501999999MA1999999098511MD1999999-0111MW1051REMSYN017 333 59011 69961;
