0115829940999991996010112004-09667-035700FM-12+008999999V0202701N00211045001CN0500001N1+02921+02041101461ADDAA106000091AG10000GF106991041021008001031001KA1240N+02841MA1999999100441MD1999999-0091REMSYN017 333 20284 59009;
0115829940999991996010118004-09667-035700FM-12+008999999V0201401N003619999999N0500001N1+02981+02121101241ADDAA106000091AG10000GF106991999021008001001001MA1999999100281MD1999999+0051REMSYN011 333 58005;EQDQ01+000042SCOTLC
0115829940999991996010212004-09667-035700FM-12+008999999V0201401N00721045001CN0500001N1+02891+01961101541ADDAA106000091AG10000GF106991041021008001031001KA1240N+02181MA1999999100521MD1999999+0081REMSYN017 333 20218 58008;
0115829940999991996010312004-09667-035700FM-12+008999999V0200501N00461007501CN0500001N1+99999+99999101411ADDAA106000091AG10000GF105991051031008001001001KA1240N+02241MA1999999100391MD1999999-0131REMSYN017 333 20224 59013;
0096829940999991996010318004-09667-035700FM-12+008999999V0200901N00621220001CN0500001N1+03021+02241101271ADDAA106000091AG10000GF103991031011008001001001MA1999999100241MD1999999+0011REMSYN011 333 58001;
0115829940999991996010418004-09667-035700FM-12+008999999V0200501N00821220001CN0500001N1+03031+02181101571ADDAA106000091AG10000GF103991999011008001001001MA1999999100251MD1999999+0011REMSYN011 333 58001;EQDQ01+000022SCOTLC
0115829940999991996010512004-09667-035700FM-12+008999999V0201401N00211045001CN0500001N1+02701+01861101441ADDAA106000091AG10000GF106991041021012501061011KA1240N+02291MA1999999100421MD1999999-0121REMSYN017 333 20229 59012;
0096829940999991996010518004-09667-035700FM-12+008999999V0201401N00511045001CN0500001N1+02891+01891101241ADDAA106000091AG10000GF107991021031017501041011MA1999999100221MD1999999-0031REMSYN011 333 59003;
0115829940999991996010612004-09667-035700FM-12+008999999V0200501N00361220001CN0500001N1+02801+02081101311ADDAA106000091AG10000GF104991041021008001001001KA1240N+02261MA1999999100291MD1999999-0131REMSYN017 333 20226 59013;
0096829940999991996010618004-09667-035700FM-12+008999999V0200901N00671220001CN0500001N1+03061+02201101241ADDAA106000091AG10000GF103991031011008001001001MA1999999100221MD1999999+0001REMSYN011 333 58000;
0115829940999991996010712004-09667-035700FM-12+008999999V0201401N00361220001CN0500001N1+02771+02091101501ADDAA106000091AG10000GF104991041031012501001001KA1240N+02241MA1999999100471MD1999999+0181REMSYN017 333 20224 58018;
0096829940999991996010718004-09667-035700FM-12+008999999V0200901N00571220001CN0500001N1+03041+02151101181ADDAA106000091AG10000GF103991031011008001001001MA1999999100151MD1999999-0071REMSYN011 333 59007;
0134829940999991996010800004-09667-035700FM-12+008999999V0200901N00411007501CN9999999N9+02441+02091101441ADDAA106000091AG10000GF105991051021008001001001KA1240M+03401MA1999999100411MD1999999-0161REMSYN017 333 10340 59016;EQDQ01+000002VOVAR 
0115829940999991996010812004-09667-035700FM-12+008999999V0200501N00571012001CN0500001N1+02821+02271101671ADDAA106000091AG10000GF107991051061012501031021KA1240N+02301MA1999999100651MD1999999+0181REMSYN017 333 20230 58018;
0096829940999991996010818004-09667-035700FM-12+008999999V0200901N00621045001CN0500001N1+02881+02221102441ADDAA106000091AG10000GF106991041021008001031021MA1999999100421MD1999999+0271REMSYN011 333 58027;
0166829940999991996010900004-09667-035700FM-12+008999999V0203601N004619999999N9999999N9+02481+02151101322ADDAA106000091AG10000GF106991999021008001001001KA1240M+03421MA1999999100301MD1999999-0111REMSYN017 333 10342 59011;EQDQ01+000042SCOTLCQ02+101323APOSLPQ03+000002VOVAR 
0121829940999991996010912004-09667-035700FM-12+008999999V0200901N00261045001CN0200001N1+02701+02081101671ADDAA124002091AG10000GF106991021031008001061001KA1240N+02201MA1999999100641MD1999999-0011REMSYN023 333 20220 59001 60024;
0096829940999991996010918004-09667-035700FM-12+008999999V0200901N00461012001CN0500001N1+02941+02031101431ADDAA106000091AG10000GF105991051021012501001001MA1999999100401MD1999999-0021REMSYN011 333 59002;
0121829940999991996011012004-09667-035700FM-12+008999999V0200501N00311045001CN0200001N1+02541+02111101521ADDAA124006091AG10000GF106991031031008001061001KA1240N+02321MA1999999100501MD1999999-0141REMSYN023 333 20232 59014 60064;
0096829940999991996011018004-09667-035700FM-12+008999999V0200901N00621007501CN0500001N1+02861+02031101441ADDAA106000091AG10000GF105991051021008001001001MA1999999100411MD1999999+0011REMSYN011 333 58001;
0115829940999991996011112004-09667-035700FM-12+008999999V0201401N00361045001CN0500001N1+02901+02041101441ADDAA106000091AG10000GF106991041021008001031011KA1240N+02361MA1999999100481MD1999999-0081REMSYN017 333 20236 59008;
0115829940999991996011118004-09667-035700FM-12+008999999V0200501N005119999999N0500001N1+03021+02181101201ADDAA106000091AG10000GF106991999021008001001001MA1999999100181MD1999999-0231REMSYN011 333 59023;EQDQ01+000042SCOTLC
0115829940999991996011212004-09667-035700FM-12+008999999V0200901N00361012001CN0500001N1+02881+02081101421ADDAA106000091AG10000GF107991051021012501031001KA1240N+02301MA1999999100401MD1999999-0021REMSYN017 333 20230 59002;
0096829940999991996011218004-09667-035700FM-12+008999999V0200901N00621045001CN0500001N1+02831+01961101581ADDAA106000091AG10000GF106991041021008001031031MA1999999100161MD1999999-0021REMSYN011 333 59002;
0150829940999991996011300004-09667-035700FM-12+008999999V0203601N006719999999N9999999N9+02621+02141101251ADDAA106000091AG10000GF105991999021008001001001KA1240M+03421MA1999999100241MD1999999-0091REMSYN017 333 10342 59009;EQDQ01+000042SCOTLCQ02+000002VOVAR 
0115829940999991996011312004-09667-035700FM-12+008999999V0200901N00511012001CN0500001N1+02941+01911101321ADDAA106000091AG10000GF106991051021012501031021KA1240N+02381MA1999999100311MD1999999-0091REMSYN017 333 20238 59009;
0121829940999991996011418004-09667-035700FM-12+008999999V0201401N00461015001CN0500001N1+02641+02071101341ADDAA124007091AG10000GF108991051081012501061001KA1240N+01921MA1999999100321MD1999999+0011REMSYN023 333 20192 58001 60074;
0150829940999991996011500004-09667-035700FM-12+008999999V0200901N002619999999N9999999N9+02621+02161101321ADDAA106000091AG10000GF105991999021008001001001KA1240M+03201MA1999999100301MD1999999-0031REMSYN017 333 10320 59003;EQDQ01+000042SCOTLCQ02+000002VOVAR 
0115829940999991996011512004-09667-035700FM-12+008999999V0200901N00261045001CN0200001N1+02701+02131101351ADDAA106000091AG10000GF106991031031012501061001KA1240N+02301MA1999999100331MD1999999+0011REMSYN017 333 20230 58001;
0134829940999991996011600004-09667-035700FM-12+008999999V0201401N00261045001CN9999999N9+02401+02111101351ADDAA106000091AG10000GF106991031031008001061001KA1240M+02931MA1999999100321MD1999999+0021REMSYN017 333 10293 58002;EQDQ01+000002VOVAR 
0096829940999991996011618004-09667-035700FM-12+008999999V0201401N00311045001CN0200001N1+02831+02221101081ADDAA106000091AG10000GF106991021031008001041001MA1999999100051MD1999999-0181REMSYN011 333 59018;
0096829940999991996011718004-09667-035700FM-12+008999999V0200501N00461045001CN0500001N1+02861+02191101041ADDAA106000091AG10000GF107991041081008001061031MA1999999100021MD1999999-0031REMSYN011 333 59003;
0096829940999991996011818004-09667-035700FM-12+008999999V0200901N00511045001CN0500001N1+03031+02151101011ADDAA106000091AG10000GF106991041021008001031001MA1999999100001MD1999999-0281REMSYN011 333 59028;
0150829940999991996011900004-09667-035700FM-12+008999999V0203601N00311220001CN9999999N9+02621+02141101151ADDAA106000091AG10000GF104991999021008001001001KA1240M+03131MA1999999100141MD1999999-0081REMSYN017 333 10313 59008;EQDQ01+000032SCOTLCQ02+000002VOVAR 
0115829940999991996011912004-09667-035700FM-12+008999999V0200901N00311045001CN0200001N1+02781+02061101251ADDAA106000091AG10000GF106991031031008001061001KA1240N+02101MA1999999100231MD1999999+0011REMSYN017 333 20210 58001;
0085829940999991996011918004-09667-035700FM-12+008999999V0200901N00571012001CN0500001N1+03061+01221101031ADDAG10000GF105991051031012501001001MA1999999100001MD1999999+0001REMSYN011 333 58000;
0121829940999991996012012004-09667-035700FM-12+008999999V0200501N00461220001CN0500001N1+02741+02121101301ADDAA124001091AG10000GF104991041021008001001001KA1240N+02201MA1999999100281MD1999999+0051REMSYN023 333 20220 58005 69994;
0096829940999991996012018004-09667-035700FM-12+008999999V0200901N00621220001CN0500001N1+03081+02191101161ADDAA106000091AG10000GF104991041021012501001001MA1999999100131MD1999999+0131REMSYN011 333 58013;
0121829940999991996012112004-09667-035700FM-12+008999999V0200901N00211045001CN0100001N1+02481+02171101291ADDAA124018091AG10000GF107991031031008001061001KA1240N+01921MA1999999100271MD1999999-0011REMSYN023 333 20192 59001 60184;
0096829940999991996012118004-09667-035700FM-12+008999999V0201401N00411045001CN0500001N1+02801+02081101211ADDAA106000091AG10000GF106991021031012501021001MA1999999100181MD1999999+0051REMSYN011 333 58005;
0121829940999991996012212004-09667-035700FM-12+008999999V0200501N00211045001CN0200001N1+02451+02051101251ADDAA124000191AG10000GF106991031031008001061001KA1240N+02201MA1999999100221MD1999999-0051REMSYN023 333 20220 59005 69924;
0102829940999991996012218004-09667-035700FM-12+008999999V0200901N00511007501CN0500001N1+02821+02151101181ADDAA106000591AG10000GF105991051031008001001001MA1999999100161MD1999999-0021REMSYN017 333 59002 69961;
0115829940999991996012312004-09667-035700FM-12+008999999V0203601N00361045001CN0500001N1+02821+02201101311ADDAA106000091AG10000GF106991041021008001061001KA1240N+02361MA1999999100291MD1999999+0081REMSYN017 333 20236 58008;
0096829940999991996012318004-09667-035700FM-12+008999999V0203601N00671045001CN0500001N1+03001+02291101091ADDAA106000091AG10000GF106991031021008001031021MA1999999100071MD1999999-0091REMSYN011 333 59009;
0134829940999991996012412004-09667-035700FM-12+008999999V0200901N00721012001CN0500001N1+02811+01951101501ADDAA106000091AG10000GF106991999021012501001001KA1240N+02001MA1999999100481MD1999999+0191REMSYN017 333 20200 58019;EQDQ01+000052SCOTLC
0096829940999991996012418004-09667-035700FM-12+008999999V0201401N00821045001CN0500001N1+03001+02191101331ADDAA106000091AG10000GF106991031021008001031001MA1999999100311MD1999999+0241REMSYN011 333 58024;
0115829940999991996012512004-09667-035700FM-12+008999999V0200901N00261007501CN0500001N1+02701+02111101521ADDAA106000091AG10000GF105991051031008001001001KA1240N+02201MA1999999100491MD1999999+0011REMSYN017 333 20220 58001;
0096829940999991996012518004-09667-035700FM-12+008999999V0200501N00571220001CN0500001N1+02961+02181101341ADDAA106000091AG10000GF103991031011012501001001MA1999999100321MD1999999+0011REMSYN011 333 58001;
0134829940999991996012600004-09667-035700FM-12+008999999V0200901N00311007501CN9999999N9+02431+02131101551ADDAA106000091AG10000GF105991051021008001001001KA1240M+03061MA1999999100531MD1999999+0121REMSYN017 333 10306 58012;EQDQ01+000002VOVAR 
0096829940999991996012618004-09667-035700FM-12+008999999V0200901N00461220001CN0500001N1+02901+02151101281ADDAA106000091AG10000GF104991041011012501001001MA1999999100261MD1999999-0061REMSYN011 333 59006;
0121829940999991996012712004-09667-035700FM-12+008999999V0201801N00101015001CN0500001N1+02641+02271101281ADDAA124000191AG10000GF107991051081012501061001KA1240N+02341MA1999999100201MD1999999-0061REMSYN023 333 20234 59006 69924;
0096829940999991996012718004-09667-035700FM-12+008999999V0200501N00571045001CN0500001N1+02781+02231101061ADDAA106000091AG10000GF106991041081008001061031MA1999999100041MD1999999-0221REMSYN011 333 59022;
0140829940999991996012800004-09667-035700FM-12+008999999V0202701N00151018001CN9999999N9+02461+02321101221ADDAA106004091AG10000GF108991061081017501061001KA1240M+02981MA1999999100201MD1999999-0121REMSYN023 333 10298 59012 60041;EQDQ01+000002VOVAR 
0102829940999991996012818004-09667-035700FM-12+008999999V0200901N00361045001CN0500001N1+02821+02051101061ADDAA106000591AG10000GF106991041081008001021031MA1999999100031MD1999999-0011REMSYN017 333 59001 69961;
0121829940999991996012912004-09667-035700FM-12+008999999V0200901N00311045001CN0500001N1+02861+02111101381ADDAA124000591AG10000GF106991041021008001031001KA1240N+02281MA1999999100361MD1999999+0101REMSYN023 333 20228 58010 69964;
0115829940999991996012918004-09667-035700FM-12+008999999V0200501N007219999999N0200001N1+03001+02221101141ADDAA106000091AG10000GF106991999021008001001001MA1999999100121MD1999999+0091REMSYN011 333 58009;EQDQ01+000042SCOTLC
0121829940999991996013012004-09667-035700FM-12+008999999V0200501N00461045001CN0500001N1+02901+02221101391ADDAA124000191AG10000GF106991041021008001061031KA1240N+02301MA1999999100371MD1999999+0011REMSYN023 333 20230 58001 69924;
0115829940999991996013018004-09667-035700FM-12+008999999V0201401N003119999999N0500001N1+03021+02241101141ADDAA106000091AG10000GF106991999021008001001001MA1999999100121MD1999999-0231REMSYN011 333 59023;EQDQ01+000042SCOTLC
0115829940999991996013112004-09667-035700FM-12+008999999V0200901N00211007501CN0500001N1+02701+02111101331ADDAA106000091AG10000GF105991051031008001001001KA1240N+02101MA1999999100311MD1999999-0061REMSYN017 333 20210 59006;
0096829940999991996013118004-09667-035700FM-12+008999999V0200901N00571220001CN0500001N1+02981+02121101251ADDAA106000091AG10000GF103991031011008001001001MA1999999100231MD1999999+0111REMSYN011 333 58011;
0115829940999991996020112004-09667-035700FM-12+008999999V0201401N00211220001CN0500001N1+02881+01731101371ADDAA106000091AG10000GF104991021011017501001011KA1240N+02171MA1999999100351MD1999999+0041REMSYN017 333 20217 58004;
0115829940999991996020212004-09667-035700FM-12+008999999V0201401N003119999999N0500001N1+02801+02201101381ADDAA106000091AG10000GF105991999999017501999999KA1240N+02271MA1999999100361MD1999999+0011REMSYN017 333 20227 58001;
0115829940999991996020218004-09667-035700FM-12+008999999V0203601N004619999999N0500001N1+03001+02291101161ADDAA106000091AG10000GF105991999021008001001001MA1999999100141MD1999999+0121REMSYN011 333 58012;EQDQ01+000042SCOTLC
0115829940999991996020312004-09667-035700FM-12+008999999V0201401N00211045001CN0500001N1+02821+01681101281ADDAA106000091AG10000GF106991021021017501061001KA1240N+02211MA1999999100261MD1999999-0101REMSYN017 333 20221 59010;
0096829940999991996020318004-09667-035700FM-12+008999999V0200901N00621220001CN0500001N1+03031+02151101021ADDAA106000091AG10000GF104991021001017501041011MA1999999100001MD1999999-0141REMSYN011 333 59014;
0096829940999991996020418004-09667-035700FM-12+008999999V0201401N00621045001CN0500001N1+03051+01941101071ADDAA106000091AG10000GF106991041021017501041041MA1999999100051MD1999999+0051REMSYN011 333 58005;
0115829940999991996020512004-09667-035700FM-12+008999999V0200901N00511012001CN0500001N1+02811+02051101321ADDAA106000091AG10000GF107991051021012501061031KA1240N+02001MA1999999100301MD1999999+0001REMSYN017 333 20200 58000;
0115829940999991996020518004-09667-035700FM-12+008999999V0200901N00621220001CN0500001N1+02861+02231101041ADDAA106000091AG10000GF104991999021012501061001MA1999999100021MD1999999-0031REMSYN011 333 59003;EQDQ01+000052SCOTLC
0115829940999991996020612004-09667-035700FM-12+008999999V0203601N00311012001CN0500001N1+02921+02121101351ADDAA106000091AG10000GF106991051021012501031041KA1240N+02361MA1999999100341MD1999999+0041REMSYN017 333 20236 58004;
0115829940999991996020618004-09667-035700FM-12+008999999V0201401N007719999999N0500001N1+03001+01911101271ADDAA106000091AG10000GF105991999021008001001001MA1999999100251MD1999999+0231REMSYN011 333 58023;EQDQ01+000042SCOTLC
0150829940999991996020700004-09667-035700FM-12+008999999V0202701N00511220001CN9999999N9+02601+02191101211ADDAA106000091AG10000GF104991999021008001001001KA1240M+03201MA1999999100201MD1999999-0021REMSYN017 333 10320 59002;EQDQ01+000032SCOTLCQ02+000002VOVAR 
0115829940999991996020712004-09667-035700FM-12+008999999V0201401N005110450019N0500001N1+02901+01781101541ADDAA106000091AG10000GF106991021021017501041001KA1240N+02301MA1999999100521MD1999999+0181REMSYN017 333 20230 58018;
0096829940999991996020718004-09667-035700FM-12+008999999V0201401N00571045001CN0500001N1+03021+01881101281ADDAA106000091AG10000GF106991021021017501041011MA1999999100261MD1999999+0011REMSYN011 333 58001;
0115829940999991996020812004-09667-035700FM-12+008999999V0201401N00261105001CN0500001N1+02931+01951101551ADDAA106000091AG10000GF105991021011017501061011KA1240N+02131MA1999999100531MD1999999+0011REMSYN017 333 20213 58001;
0102829940999991996020818004-09667-035700FM-12+008999999V0201401N00461220001CN0500001N1+02991+01731101291ADDAA106002091AG10000GF104991021021017501041011MA1999999100271MD1999999+0011REMSYN017 333 58001 60021;
0115829940999991996020912004-09667-035700FM-12+008999999V0201401N00361015001CN0500001N1+02891+01901101731ADDAA106000091AG10000GF106991051021017501061041KA1240N+02201MA1999999100401MD1999999+0171REMSYN017 333 20220 58017;
0115829940999991996021012004-09667-035700FM-12+008999999V0203601N00261045001CN0500001N1+02841+02091101461ADDAA106000091AG10000GF106991041021008001031041KA1240N+02301MA1999999100441MD1999999+0041REMSYN017 333 20230 58004;
0096829940999991996021018004-09667-035700FM-12+008999999V0200901N00621045001CN0500001N1+02961+02211101151ADDAA106000091AG10000GF106991031021012501061001MA1999999100131MD1999999-0061REMSYN011 333 59006;
0115829940999991996021112004-09667-035700FM-12+008999999V0200501N00261012001CN0500001N1+02841+02041101461ADDAA106000091AG10000GF106991051021012501061031KA1240N+01981MA1999999100441MD1999999+0001REMSYN017 333 20198 58000;
0096829940999991996021118004-09667-035700FM-12+008999999V0201401N00721012001CN0500001N1+03041+02151101211ADDAA106000091AG10000GF106991051021012501041021MA1999999100191MD1999999+0061REMSYN011 333 58006;
0134829940999991996021212004-09667-035700FM-12+008999999V0203601N00511045001CN0500001N1+02081+01551101561ADDAA106000091AG10000GF107991041021012501061041KA1240N+99999MA1999999100551MD1999999+0111REMSYN017 333 20238 58011;EQDQ01 +02382ATMN  
0096829940999991996021218004-09667-035700FM-12+008999999V0203601N00771015001CN0500001N1+03061+02351101341ADDAA106000091AG10000GF106991051021017501031001MA1999999100331MD1999999+0141REMSYN011 333 58014;
0150829940999991996021300004-09667-035700FM-12+008999999V0203601N003619999999N9999999N9+02681+02241101451ADDAA106000091AG10000GF105991999021012501001001KA1240M+03241MA1999999100441MD1999999+0061REMSYN017 333 10324 58006;EQDQ01+000022SCOTLCQ02+000002VOVAR 
0104829940999991996021312004-09667-035700FM-12+008999999V0201401N00311045001CN0500001N1+02901+02781101521ADDAG10000GF106991021031012501041001KA1240N+02601MA1999999100501MD1999999-0051REMSYN017 333 20260 59005;
0096829940999991996021318004-09667-035700FM-12+008999999V0201401N00511220001CN0500001N1+03001+01841101351ADDAA106000091AG10000GF103991021011017501001011MA1999999100331MD1999999+0001REMSYN011 333 58000;
0096829940999991996021418004-09667-035700FM-12+008999999V0201801N00211045001CN0200001N1+03041+01911101241ADDAA106000091AG10000GF107991021031017501061001MA1999999100221MD1999999-0111REMSYN011 333 59011;
0115829940999991996021512004-09667-035700FM-12+008999999V0201401N00411045001CN0500001N1+02821+01971101511ADDAA106000091AG10000GF106991031021017501031001KA1240N+02121MA1999999100441MD1999999+0091REMSYN017 333 20212 58009;
0115829940999991996021518004-09667-035700FM-12+008999999V0200501N00461015001CN0500001N1+03021+02041101241ADDAA106000091AG10000GF106991999021017501001001MA1999999100221MD1999999+0001REMSYN011 333 58000;EQDQ01+000052SCOTLC
0121829940999991996021612004-09667-035700FM-12+008999999V0200901N00261012001CN0500001N1+02621+02011101541ADDAA124001091AG10000GF106991051021012501061041KA1240N+02011MA1999999100521MD1999999+0031REMSYN023 333 20201 58003 69984;
0096829940999991996021618004-09667-035700FM-12+008999999V0200901N00461045001CN0500001N1+02961+02281101271ADDAA106000091AG10000GF106991041081008001061001MA1999999100251MD1999999+0031REMSYN011 333 58003;
0121829940999991996021712004-09667-035700FM-12+008999999V0200501N00101045001CN0200001N1+02701+02111101301ADDAA124016091AG10000GF107991021031017501041001KA1240N+02241MA1999999100281MD1999999-0241REMSYN023 333 20224 59024 60164;
0096829940999991996021718004-09667-035700FM-12+008999999V0201401N00311045001CN0500001N1+02901+02151101141ADDAA106000091AG10000GF106991021011017501061001MA1999999100121MD1999999-0121REMSYN011 333 59012;
0096829940999991996021818004-09667-035700FM-12+008999999V0201401N00511045001CN0500001N1+03041+01971101031ADDAA106000091AG10000GF106991021021017501061001MA1999999100011MD1999999-0111REMSYN011 333 59011;
0115829940999991996021912004-09667-035700FM-12+008999999V0201401N00511045001CN0500001N1+02881+01971101341ADDAA106000091AG10000GF106991021031017501061001KA1240N+02201MA1999999100321MD1999999+0041REMSYN017 333 20220 58004;
0096829940999991996021918004-09667-035700FM-12+008999999V0201801N00511045001CN0500001N1+02971+02131101141ADDAA106000091AG10000GF106991021031017501041001MA1999999100121MD1999999+0111REMSYN011 333 58011;
0115829940999991996022012004-09667-035700FM-12+008999999V0201401N00101045001CN0500001N1+02921+01741101351ADDAA106000091AG10000GF106991041021017501061011KA1240N+02271MA1999999100331MD1999999+0011REMSYN017 333 20227 58001;
0096829940999991996022018004-09667-035700FM-12+008999999V0201401N00571220001CN0500001N1+02961+01711101101ADDAA106000091AG10000GF103991021011017501001011MA1999999100081MD1999999-0041REMSYN011 333 59004;
0121829940999991996022212004-09667-035700FM-12+008999999V0202701N00511045001CN0500001N1+03021+02261101351ADDAA124000191AG10000GF107991031081012501061001KA1240N+02461MA1999999100341MD1999999+0161REMSYN023 333 20246 58016 69914;
0115829940999991996022218004-09667-035700FM-12+008999999V0203601N006719999999N0500001N1+03061+02221101091ADDAA106000091AG10000GF105991999021017501001001MA1999999100081MD1999999+0061REMSYN011 333 58006;EQDQ01+000022SCOTLC
0115829940999991996022312004-09667-035700FM-12+008999999V0201401N00511045001CN0500001N1+02841+02071101431ADDAA106000091AG10000GF106991021021017501061001KA1240N+02291MA1999999100411MD1999999+0071REMSYN017 333 20229 58007;
0096829940999991996022318004-09667-035700FM-12+008999999V0201401N00571220001CN0500001N1+03041+02151101161ADDAA106000091AG10000GF106991021021017501001011MA1999999100141MD1999999+0061REMSYN011 333 58006;
0121829940999991996022412004-09667-035700FM-12+008999999V0200901N00511045001CN0500001N1+02921+02241101391ADDAA124000191AG10000GF107991031081008001061001KA1240N+02491MA1999999100371MD1999999-0051REMSYN023 333 20249 59005 69924;
0096829940999991996022418004-09667-035700FM-12+008999999V0201401N00461045001CN0500001N1+03161+02291101231ADDAA106000091AG10000GF106991021021012501031001MA1999999100221MD1999999+0081REMSYN011 333 58008;
0150829940999991996022500004-09667-035700FM-12+008999999V0201401N00211220001CN9999999N9+02641+02291101341ADDAA106000091AG10000GF104991999021017501001001KA1240M+03261MA1999999100331MD1999999+0031REMSYN017 333 10326 58003;EQDQ01+000022SCOTLCQ02+000002VOVAR 
0121829940999991996022512004-09667-035700FM-12+008999999V0200501N00621045001CN0500001N1+02831+02241101451ADDAA124003091AG10000GF106991041081008001031041KA1240N+01911MA1999999100431MD1999999+0061REMSYN023 333 20191 58006 60034;
0096829940999991996022518004-09667-035700FM-12+008999999V0201401N00571012001CN0500001N1+02841+02241101221ADDAA106000091AG10000GF106991051061012501021031MA1999999100201MD1999999+0021REMSYN011 333 58002;
0051829940999991996022612004-09667-035700FM-12+008999999V0203601N00361045001CN0500001N1+02921+02061101441ADDAG10000GF106991041021012501031041MA1999999100421
0115829940999991996022618004-09667-035700FM-12+008999999V0200501N003119999999N0500001N1+02941+02031101191ADDAA106000091AG10000GF106991999021017501001001MA1999999100171MD1999999-0031REMSYN011 333 59003;EQDQ01+000032SCOTLC
0121829940999991996022712004-09667-035700FM-12+008999999V0201401N00461015001CN0500001N1+03001+02171101411ADDAA124001091AG10000GF106991051021017501031001KA1240N+02401MA1999999100401MD1999999-0021REMSYN023 333 20240 59002 69984;
0096829940999991996022718004-09667-035700FM-12+008999999V0201801N00671045001CN0500001N1+02891+02221101191ADDAA106000091AG10000GF106991041021008001011001MA1999999100171MD1999999+0001REMSYN011 333 58000;
0096829940999991996022818004-09667-035700FM-12+008999999V0201401N00311220001CN0500001N1+03061+01961101021ADDAA106000091AG10000GF104991021011017501001011MA1999999100001MD1999999-0111REMSYN011 333 59011;
0115829940999991996022912004-09667-035700FM-12+008999999V0201401N00211045001CN0500001N1+02841+02261101261ADDAA106000091AG10000GF106991021031012501041001KA1240N+02271MA1999999100241MD1999999-0171REMSYN017 333 20227 59017;
0096829940999991996022918004-09667-035700FM-12+008999999V0201401N00511045001CN0500001N1+03001+01911101011ADDAA106000091AG10000GF106991021021017501061011MA1999999099991MD1999999+0011REMSYN011 333 58001;
0134829940999991996030100004-09667-035700FM-12+008999999V0200501N00101045001CN9999999N9+02461+01861101151ADDAA106000091AG10000GF105991021011017501061001KA1240M+03161MA1999999100141MD1999999-0011REMSYN017 333 10316 59001;EQDQ01+000002VOVAR 
0115829940999991996030112004-09667-035700FM-12+008999999V0201401N00311105001CN0500001N1+02921+01981101291ADDAA106000091AG10000GF106991021021017501061041KA1240N+02301MA1999999100271MD1999999+0021REMSYN017 333 20230 58002;
0096829940999991996030118004-09667-035700FM-12+008999999V0209999999999045001CN0200001N1+03041+02431100881ADDAA106000091AG10000GF106991031061008001021001MA1999999100801MD1999999+0041REMSYN011 333 58004;
0134829940999991996030200004-09667-035700FM-12+008999999V0200501N00101045001CN9999999N9+02501+01911101181ADDAA106000091AG10000GF105991021021012501061001KA1240M+03221MA1999999100161MD1999999+0021REMSYN017 333 10322 58002;EQDQ01+000002VOVAR 
0115829940999991996030212004-09667-035700FM-12+008999999V0201401N00461045001CN0500001N1+02861+02231101371ADDAA106000091AG10000GF106991041021017501061001KA1240N+02251MA1999999100351MD1999999+0081REMSYN017 333 20225 58008;
0096829940999991996030218004-09667-035700FM-12+008999999V0200901N00621220001CN0500001N1+02891+02211101141ADDAA106000091AG10000GF104991021021017501061001MA1999999100121MD1999999+0071REMSYN011 333 58007;
0121829940999991996030312004-09667-035700FM-12+008999999V0201401N00361045001CN0200001N1+02861+02141101301ADDAA124000191AG10000GF107991021031017501061001KA1240N+02241MA1999999100221MD1999999-0071REMSYN023 333 20224 59007 69914;
0096829940999991996030318004-09667-035700FM-12+008999999V0200901N00411045001CN0100001N1+03001+01911101001ADDAA106000091AG10000GF108991041031017501041999MA1999999099981MD1999999-0041REMSYN011 333 59004;
0140829940999991996030412004-09667-035700FM-12+008999999V0203601N002119999999N0500001N1+02961+02181101141ADDAA124000191AG10000GF106991999021017501001001KA1240N+02441MA1999999100131MD1999999-0151REMSYN023 333 20244 59015 69924;EQDQ01+000042SCOTLC
0124829940999991996030418004-09667-035700FM-12+008999999V0201401N00571045001CN0500001N1+03021+02211100781ADDAA106000091AG10000GF106991031021017501031001MA1999999099771MD1999999-0211ME1100789REMSYN011 333 59021;EQDQ01+999990APOSLP
0150829940999991996030500004-09667-035700FM-12+008999999V0200901N004619999999N9999999N9+02481+02091101101ADDAA106000091AG10000GF105991999021012501001001KA1240M+03221MA1999999100091MD1999999-0061REMSYN017 333 10322 59006;EQDQ01+000032SCOTLCQ02+000002VOVAR 
0121829940999991996030512004-09667-035700FM-12+008999999V0200901N00151045001CN0500001N1+02981+02181101191ADDAA124000191AG10000GF106991021021008001031001KA1240N+02461MA1999999100181MD1999999+0051REMSYN023 333 20246 58005 69924;
0132829940999991996030612004-09667-035700FM-12+008999999V0201401N00511045001CN0500001N1+02981+01921101451ADDAA106000091AA224000591AG10000GF106991021021017501061001KA1240N+02381MA1999999100431MD1999999+0251REMSYN023 333 20238 58025 69944;
0096829940999991996030618004-09667-035700FM-12+008999999V0200901N00671045001CN0500001N1+02981+02171101041ADDAA106000091AG10000GF106991041031017501021001MA1999999100031MD1999999-0071REMSYN011 333 59007;
0143829940999991996030712004-09667-035700FM-12+008999999V0201401N00311007501CN0020001N1+02881+02541100971ADDAA124004091AG10006AY161061AY221061GF106991051021008001021001KA1240N+02421MA1999999100771MD1999999-0091MW1031REMSYN023 333 20242 59009 60044;
0120829940999991996030715004-09667-035700FM-12+008999999V0200901N00411007501CN0200001N1+03051+02161100981ADDAG10000GF106991061021008001001001MA1999999099972MD1999999-0121REMSYN011 333 59012;EQDQ01+999990APOSP Q02+099973APOSP 
0096829940999991996030718004-09667-035700FM-12+008999999V0200901N00571045001CN0500001N1+02941+02191101041ADDAA106000091AG10000GF106991031021012501031001MA1999999100031MD1999999+0001REMSYN011 333 58000;
0124829940999991996030818004-09667-035700FM-12+008999999V0200901N00361007501CN0020001N1+02941+02371100801ADDAA106002091AG10006AY161061AY221061GF107991061071008001071001MA1999999100601MD1999999-0041MW1031REMSYN017 333 59004 60021;
0115829940999991996030912004-09667-035700FM-12+008999999V0200901N00461007501CN0500001N1+02861+02231101471ADDAA106000091AG10000GF105991051031008001001001KA1240N+02201MA1999999100441MD1999999+0071REMSYN017 333 20220 58007;
0121829940999991996031012004-09667-035700FM-12+008999999V0201001N02061045001CN0500001N1+03001+02191101481ADDAA124001091AG10000GF106991031021008001041061KA1240N+02541MA1999999100461MD1999999-0241REMSYN023 333 20254 59024 69984;
0096829940999991996031018004-09667-035700FM-12+008999999V0200901N00461045001CN0500001N1+03021+02161101151ADDAA106000091AG10000GF106991041021012501031001MA1999999100141MD1999999+0081REMSYN011 333 58008;
0121829940999991996031112004-09667-035700FM-12+008999999V0203601N00261045001CN0500001N1+03041+02181101221ADDAA124000191AG10000GF107991041021012501061031KA1240N+02561MA1999999100211MD1999999-0251REMSYN023 333 20256 59025 69924;
0121829940999991996031212004-09667-035700FM-12+008999999V0201401N00261015001CN0500001N1+02681+01991101231ADDAA124004091AG10000GF107991061041017501061031KA1240M+03201MA1999999100211MD1999999+0001REMSYN023 333 10320 58000 60044;
0130829940999991996031218004-09667-035700FM-12+008999999V0200401N00211045001CN0500001N1+02821+02241100961ADDAA106015091AG10000GF108991041081008001061001MA1999999099941MD1999999-0021ME1100969REMSYN017 333 59002 60151;EQDQ01+999990APOSLP
0134829940999991996031300004-09667-035700FM-12+008999999V0200901N00211045001CN9999999N9+02321+02091101031ADDAA106000091AG10000GF106991021071017501021001KA1240M+02981MA1999999100001MD1999999-0141REMSYN017 333 10298 59014;EQDQ01+000002VOVAR 
0121829940999991996031312004-09667-035700FM-12+008999999V0200901N00051045001CN0100001N1+02861+02141101341ADDAA124015091AG10000GF108991021031017501061999KA1240N+02071MA1999999100321MD1999999+0081REMSYN023 333 20207 58008 60154;
0096829940999991996031318004-09667-035700FM-12+008999999V0200901N00671045001CN0500001N1+03061+02191101121ADDAA106000091AG10000GF106991021031008001021001MA1999999100091MD1999999+0151REMSYN011 333 58015;
0121829940999991996031412004-09667-035700FM-12+008999999V0200501N00101045001CN0200001N1+02701+02131101431ADDAA124000191AG10000GF107991021031017501061041KA1240N+02291MA1999999100411MD1999999+0091REMSYN023 333 20229 58009 69924;
0096829940999991996031418004-09667-035700FM-12+008999999V0200501N00461045001CN0500001N1+02981+02201101171ADDAA106000091AG10000GF106991031021017501061001MA1999999100151MD1999999-0171REMSYN011 333 59017;
0121829940999991996031512004-09667-035700FM-12+008999999V0201401N00211045001CN0500001N1+02861+01841101321ADDAA124001091AG10000GF106991021021012501061011KA1240N+02321MA1999999100301MD1999999-0111REMSYN023 333 20232 59011 69984;
0096829940999991996031518004-09667-035700FM-12+008999999V0200901N00151220001CN0500001N1+03001+01751100981ADDAA106000091AG10000GF104991021021017501001011MA1999999099961MD1999999-0191REMSYN011 333 59019;
0140829940999991996031612004-09667-035700FM-12+008999999V0201401N002619999999N0010001N1+02821+01941101151ADDAA124000191AG10000GF106991999021017501001001KA1240N+02001MA1999999100161MD1999999-0141REMSYN023 333 20200 59014 69924;EQDQ01+000032SCOTLC
0140829940999991996031618004-09667-035700FM-12+008999999V0200901N004619999999N0500001N1+03041+02151100971ADDAA106000091AG10000GF105991999021012501001001MA1999999099961MD1999999+0001ME1100979REMSYN011 333 58000;EQDQ01+000022SCOTLCQ02+999990APOSLP
0121829940999991996031712004-09667-035700FM-12+008999999V0201401N00211045001CN0500001N1+02861+02461101151ADDAA124000191AG10000GF106991041021012501031001KA1240N+02441MA1999999100131MD1999999-0031REMSYN023 333 20244 59003 69924;
0096829940999991996031718004-09667-035700FM-12+008999999V0200901N00361045001CN0500001N1+03021+02481100931ADDAA106000091AG10000GF106991031021017501031001MA1999999099921MD1999999-0041REMSYN011 333 59004;
0102829940999991996031818004-09667-035700FM-12+008999999V0203601N00211045001CN0500001N1+02301+02271101241ADDAA106031091AG10017GF108991031081008001061001MA1999999100201MD1999999+0281REMSYN017 333 58028 60311;
0140829940999991996031900004-09667-035700FM-12+008999999V0201401N00311045001CN9999999N9+02361+02131101371ADDAA106003091AG10000GF106991041081008001061001KA1240M+03141MA1999999100341MD1999999+0261REMSYN023 333 10314 58026 60031;EQDQ01+000002VOVAR 
0121829940999991996031912004-09667-035700FM-12+008999999V0200901N00151045001CN0500001N1+02821+02331101351ADDAA124035091AG10000GF107991041081008001061001KA1240N+02201MA1999999100331MD1999999+0061REMSYN023 333 20220 58006 60354;
0096829940999991996031918004-09667-035700FM-12+008999999V0201401N00571045001CN0500001N1+02821+01511101131ADDAA106000091AG10000GF107991041081008001061001MA1999999100111MD1999999-0091REMSYN011 333 59009;
0115829940999991996032112004-09667-035700FM-12+008999999V0201401N00051045001CN0500001N1+03001+01941101321ADDAA106000091AG10000GF106991021011017501061011KA1240N+02201MA1999999100301MD1999999-0071REMSYN017 333 20220 59007;
0096829940999991996032118004-09667-035700FM-12+008999999V0200901N00461007501CN0500001N1+03001+02291101231ADDAA106000091AG10000GF105991051031008001001001MA1999999100201MD1999999+0131REMSYN011 333 58013;
0115829940999991996032212004-09667-035700FM-12+008999999V0201401N00571220001CN0500001N1+02981+01861101371ADDAA106000091AG10000GF105991021011017501001011KA1240N+02321MA1999999100351MD1999999+0051REMSYN017 333 20232 58005;
0096829940999991996032218004-09667-035700FM-12+008999999V0200901N00311220001CN0500001N1+03081+01821101101ADDAA106000091AG10000GF105991041021017501001041MA1999999100081MD1999999-0121REMSYN011 333 59012;
0115829940999991996032312004-09667-035700FM-12+008999999V0201401N00571045001CN0500001N1+03001+01811101471ADDAA106000091AG10000GF106991021021017501061001KA1240N+02351MA1999999100451MD1999999+0101REMSYN017 333 20235 58010;
0096829940999991996032318004-09667-035700FM-12+008999999V0200901N00461220001CN0500001N1+03061+01831101061ADDAA106000091AG10000GF104991041021012501061041MA1999999100041MD1999999-0041REMSYN011 333 59004;
0134829940999991996032400004-09667-035700FM-12+008999999V0200901N00211220001CN9999999N9+02501+02051101251ADDAA106000091AG10000GF104991021011012501001061KA1240M+03271MA1999999100241MD1999999-0041REMSYN017 333 10327 59004;EQDQ01+000002VOVAR 
0115829940999991996032412004-09667-035700FM-12+008999999V0201401N00311045001CN0500001N1+02901+01781101361ADDAA106000091AG10000GF106991021021012501061001KA1240N+02311MA1999999100341MD1999999-0111REMSYN017 333 20231 59011;
0121829940999991996032512004-09667-035700FM-12+008999999V0202701N00311045001CN0500001N1+02961+02281101171ADDAA124000191AG10000GF106991031021012501061031KA1240N+02481MA1999999100161MD1999999-0181REMSYN023 333 20248 59018 69924;
0150829940999991996032600004-09667-035700FM-12+008999999V0202701N002119999999N9999999N9+02661+02371101091ADDAA106000091AG10000GF105991999021008001001001KA1240M+03281MA1999999100081MD1999999-0121REMSYN017 333 10328 59012;EQDQ01+000042SCOTLCQ02+000002VOVAR 
0121829940999991996032612004-09667-035700FM-12+008999999V0200901N00511045001CN0500001N1+02821+02271101171ADDAA124003091AG10000GF106991031081012501061001KA1240N+01821MA1999999100151MD1999999-0011REMSYN023 333 20182 59001 60034;
0102829940999991996032618004-09667-035700FM-12+008999999V0203601N00411105001CN0500001N1+02861+02501100881ADDAA106001091AG10000GF106991021081008001061031MA1999999099871MD1999999+0051REMSYN017 333 58005 60011;
0121829940999991996032712004-09667-035700FM-12+008999999V0201401N00361045001CN0500001N1+02821+01741101531ADDAA124001091AG10000GF106991021021017501061001KA1240N+02271MA1999999100511MD1999999+0361REMSYN023 333 20227 58036 60014;
0096829940999991996032718004-09667-035700FM-12+008999999V0200901N00311045001CN0500001N1+03001+02191101191ADDAA106000091AG10000GF105991031021012501041001MA1999999100181MD1999999+0311REMSYN011 333 58031;
0121829940999991996032812004-09667-035700FM-12+008999999V0201401N00211045001CN0100001N1+02501+02211101681ADDAA124002091AG10000GF107991021031012501041011KA1240N+02271MA1999999100661MD1999999+0151REMSYN023 333 20227 58015 60024;
0096829940999991996032818004-09667-035700FM-12+008999999V0200901N00361045001CN0500001N1+02981+01891101311ADDAA106000091AG10000GF106991031021008001061011MA1999999100301MD1999999+0121REMSYN011 333 58012;
0121829940999991996032912004-09667-035700FM-12+008999999V0201401N00211045001CN0500001N1+02761+02021101451ADDAA124005091AG10000GF106991021021017501061001KA1240N+02291MA1999999100431MD1999999-0231REMSYN023 333 20229 59023 60054;
0102829940999991996033018004-09667-035700FM-12+008999999V0200501N00771045001CN0500001N1+02991+02191101081ADDAA106001091AG10000GF106991021021008001011001MA1999999100061MD1999999-0071REMSYN017 333 59007 60011;
0121829940999991996033112004-09667-035700FM-12+008999999V0200901N00211007501CN0500001N1+02781+02041101451ADDAA124004091AG10000GF105991051031008001001001KA1240N+02281MA1999999100431MD1999999+0191REMSYN023 333 20228 58019 60044;
0121829940999991996040112004-09667-035700FM-12+008999999V0201801N00151045001CN0500001N1+02841+02261101461ADDAA124009091AG10000GF107991041081008001061001KA1240N+01911MA1999999100441MD1999999+0041REMSYN023 333 20191 58004 60094;
0102829940999991996040118004-09667-035700FM-12+008999999V0201401N00411045001CN0500001N1+02801+02251101221ADDAA106001091AG10000GF106991031061012501021001MA1999999100211MD1999999-0101REMSYN017 333 59010 60011;
0140829940999991996040200004-09667-035700FM-12+008999999V0201401N00361045001CN9999999N9+02321+02011101201ADDAA106002091AG10000GF106991041081008001061001KA1240M+03041MA1999999100181MD1999999-0221REMSYN023 333 10304 59022 60021;EQDQ01+000002VOVAR 
0121829940999991996040212004-09667-035700FM-12+008999999V0201401N00311045001CN0500001N1+02701+02461101441ADDAA124011091AG10000GF107991031081008001061031KA1240N+02021MA1999999100421MD1999999-0021REMSYN023 333 20202 59002 60114;
0096829940999991996040218004-09667-035700FM-12+008999999V0203601N00461015001CN0500001N1+02921+02391101071ADDAA106000091AG10000GF106991051081012501061031MA1999999100051MD1999999-0131REMSYN011 333 59013;
0121829940999991996040312004-09667-035700FM-12+008999999V0201401N00361220001CN0500001N1+02901+01901101411ADDAA124003091AG10000GF106991021021012501001011KA1240N+02331MA1999999100391MD1999999-0031REMSYN023 333 20233 59003 60034;
0096829940999991996040318004-09667-035700FM-12+008999999V0201401N00361045001CN0500001N1+02801+02251101131ADDAA106000091AG10000GF106991031021008001041001MA1999999100111MD1999999+0001REMSYN011 333 58000;
0115829940999991996040412004-09667-035700FM-12+008999999V0201401N00101045001CN0100001N1+02641+02311101331ADDAA106000091AG10000GF108991021071012501021999KA1240N+02191MA1999999100311MD1999999-0081REMSYN017 333 20219 59008;
0102829940999991996040418004-09667-035700FM-12+008999999V0200901N00511220001CN0500001N1+02881+02001101081ADDAA106000191AG10000GF106991021021012501001041MA1999999100061MD1999999-0051REMSYN017 333 59005 69921;
0121829940999991996040512004-09667-035700FM-12+008999999V0201401N00311045001CN0500001N1+02681+02021101281ADDAA124001091AG10000GF106991021021017501061001KA1240N+02171MA1999999100261MD1999999-0051REMSYN023 333 20217 59005 69974;
0096829940999991996040518004-09667-035700FM-12+008999999V0200901N00511220001CN0500001N1+02901+01871101021ADDAA106000091AG10000GF104991021021017501061011MA1999999100001MD1999999-0061REMSYN011 333 59006;
0143829940999991996040612004-09667-035700FM-12+008999999V0201801N00151007501CN0020001N1+02601+02391101011ADDAA124020091AG10005AY161061AY221061GF107991061061008001021001KA1240N+02281MA1999999100811MD1999999+0011MW1031REMSYN023 333 20228 58001 60204;
0115829940999991996040618004-09667-035700FM-12+008999999V0201401N00411045001CN0500001N1+02841+02291100881ADDAA106000091AG10000GF107991031061012501061041MA1999999099862MD1999999-0141REMSYN011 333 59014;EQDQ01+099863APOSP 
0121829940999991996040712004-09667-035700FM-12+008999999V0200901N00211045001CN0500001N1+02901+02301101311ADDAA124000591AG10000GF107991041081008001061001KA1240N+02481MA1999999100301MD1999999+0071REMSYN023 333 20248 58007 69944;
0102829940999991996040718004-09667-035700FM-12+008999999V0201401N00411045001CN0500001N1+02801+02251101061ADDAA106000591AG10000GF108991031071008001061001MA1999999100041MD1999999+0181REMSYN017 333 58018 69951;
0134829940999991996040800004-09667-035700FM-12+008999999V0203601N00311012001CN9999999N9+02541+02401101191ADDAA106000091AG10000GF106991051021012501061001KA1240M+03201MA1999999100171MD1999999+0031REMSYN017 333 10320 58003;EQDQ01+000002VOVAR 
0121829940999991996040812004-09667-035700FM-12+008999999V0201401N00151045001CN0500001N1+02641+02411101311ADDAA124001091AG10000GF107991041021008001061041KA1240N+02481MA1999999100291MD1999999-0011REMSYN023 333 20248 59001 60014;
0115829940999991996040818004-09667-035700FM-12+008999999V0200401N00411220001CN0500001N1+02961+02451101051ADDAA106000091AG10000GF101991999021012501061021MA1999999100041MD1999999+0001REMSYN011 333 58000;EQDQ01+000052SCOTLC
0140829940999991996040900004-09667-035700FM-12+008999999V0202701N00461045001CN9999999N9+02401+02171101321ADDAA106010091AG10000GF107991041081008001061001KA1240M+03041MA1999999100291MD1999999+0021REMSYN023 333 10304 58002 60101;EQDQ01+000002VOVAR 
0121829940999991996040912004-09667-035700FM-12+008999999V0201401N00211045001CN0500001N1+02801+02271101371ADDAA124015091AG10000GF107991041081008001061041KA1240N+02401MA1999999100351MD1999999+0061REMSYN023 333 20240 58006 60154;
0096829940999991996040918004-09667-035700FM-12+008999999V0200901N00361105001CN0500001N1+02821+02151101181ADDAA106000091AG10000GF105991021061012501041011MA1999999100161MD1999999+0121REMSYN011 333 58012;
0121829940999991996041012004-09667-035700FM-12+008999999V0201401N00051045001CN0200001N1+02661+02001101451ADDAA124035091AG10000GF107991021071012501041001KA1240N+02141MA1999999100431MD1999999+0081REMSYN023 333 20214 58008 60354;
0121829940999991996041112004-09667-035700FM-12+008999999V0200901N00051045001CN0100001N1+02681+02331101321ADDAA124041091AG10000GF108991041031012501061999KA1240N+02191MA1999999100361MD1999999-0071REMSYN023 333 20219 59007 60414;
0102829940999991996041118004-09667-035700FM-12+008999999V0200901N00411045001CN0200001N1+02721+02101101351ADDAA106039091AG10000GF107991031071008001021001MA1999999100331MD1999999+0171REMSYN017 333 58017 60391;
0096829940999991996041218004-09667-035700FM-12+008999999V0200901N00411007501CN0500001N1+02901+02201101041ADDAA106000091AG10000GF105991051031008001001001MA1999999100011MD1999999-0091REMSYN011 333 59009;
0102829940999991996041318004-09667-035700FM-12+008999999V0200501N00411045001CN0500001N1+02801+02251101011ADDAA106000191AG10000GF106991031061012501031021MA1999999099991MD1999999-0011REMSYN017 333 59001 69921;
0121829940999991996041412004-09667-035700FM-12+008999999V0200901N00211045001CN0200001N1+02761+01971101341ADDAA124001091AG10000GF107991021031012501061001KA1240N+02141MA1999999100321MD1999999+0071REMSYN023 333 20214 58007 60014;
0096829940999991996041418004-09667-035700FM-12+008999999V0201401N00361045001CN0500001N1+02981+01891101091ADDAA106000091AG10000GF105991041011017501041011MA1999999100071MD1999999+0081REMSYN011 333 58008;
0121829940999991996041512004-09667-035700FM-12+008999999V0200301N00051045001CN0500001N1+02461+02131101441ADDAA124003091AG10000GF107991041081008001061021KA1240N+02421MA1999999100411MD1999999+0091REMSYN023 333 20242 58009 60034;
0102829940999991996041518004-09667-035700FM-12+008999999V0201401N00311045001CN0500001N1+02901+02321101041ADDAA106009091AG10000GF107991041081008001061011MA1999999100021MD1999999-0051REMSYN017 333 59005 60091;
0140829940999991996041600004-09667-035700FM-12+008999999V0200901N00051045001CN9999999N9+02581+02371101331ADDAA106002091AG10000GF106991041081008001061001KA1240M+03061MA1999999100301MD1999999-0021REMSYN023 333 10306 59002 60021;EQDQ01+000002VOVAR 
0121829940999991996041612004-09667-035700FM-12+008999999V0203601N00571045001CN0290001N1+02681+02461101281ADDAA124020091AG10000GF108991041081008001061001KA1240N+02381MA1999999100261MD1999999-0151REMSYN023 333 20238 59015 60204;
0102829940999991996041618004-09667-035700FM-12+008999999V0201401N00511045001CN0500001N1+02641+02441101061ADDAA106005091AG10000GF108991041081008001061001MA1999999100031MD1999999+0011REMSYN017 333 58001 60051;
0121829940999991996041712004-09667-035700FM-12+008999999V0201401N00051045001CN0200001N1+02501+02071101401ADDAA124010091AG10000GF107991041031012501061001KA1240N+02091MA1999999100371MD1999999+0111REMSYN023 333 20209 58011 60104;
0102829940999991996041718004-09667-035700FM-12+008999999V0203201N00101015001CN0500001N1+02401+02111101081ADDAA106000591AG10000GF106991051081012501061011MA1999999100051MD1999999+0021REMSYN017 333 58002 69941;
0115829940999991996041912004-09667-035700FM-12+008999999V0201801N00101220001CN0500001N1+02821+02041101281ADDAA106000091AG10000GF105991021021017501001011KA1240N+02251MA1999999100261MD1999999-0051REMSYN017 333 20225 59005;
0096829940999991996041918004-09667-035700FM-12+008999999V0201401N00361045001CN0500001N1+02821+02291101071ADDAA106000091AG10000GF106991041021012501031001MA1999999100051MD1999999-0011REMSYN011 333 59001;
0134829940999991996042000004-09667-035700FM-12+008999999V0200501N00051220001CN9999999N9+02401+01971101081ADDAA106000091AG10000GF106991021011012501001011KA1240M+03101MA1999999100061MD1999999-0251REMSYN017 333 10310 59025;EQDQ01+000002VOVAR 
0140829940999991996042012004-09667-035700FM-12+008999999V0200901N00101045001CN0200001N1+02661+02311101351ADDAA124004091AG10000GF106991031031008001061001KA1240M+99999MA1999999100321MD1999999+0061REMSYN023 333 10226 58006 60044;EQDQ01 +02262ATMX  
0102829940999991996042118004-09667-035700FM-12+008999999V0202301N00101045001CN0200001N1+02701+02351101171ADDAA106007091AG10000GF106991031061012501031021MA1999999100151MD1999999-0011REMSYN017 333 59001 60071;
0102829940999991996042218004-09667-035700FM-12+008999999V0209991C00001045001CN0500001N1+02421+02371101251ADDAA106010091AG10000GF108991041081008001061001MA1999999100221MD1999999+0071REMSYN017 333 58007 60101;
0121829940999991996042312004-09667-035700FM-12+008999999V0202701N00151045001CN0500001N1+02641+02351101431ADDAA124055091AG10000GF107991041081008001061041KA1240N+01931MA1999999100401MD1999999-0021REMSYN023 333 20193 59002 60554;
0102829940999991996042318004-09667-035700FM-12+008999999V0202301N00261045001CN0100001N1+02821+02291101301ADDAA106000191AG10000GF106991031071012501061021MA1999999100281MD1999999-0061REMSYN017 333 59006 69911;
0121829940999991996042418004-09667-035700FM-12+008999999V0200901N00101045001CN0100001N1+02401+02171101561ADDAA124020091AG10000GF108991041071012501041999KA1240N+02211MA1999999100541MD1999999+0141REMSYN023 333 20221 58014 60204;
0140829940999991996042500004-09667-035700FM-12+008999999V0201401N00101045001CN9999999N9+02281+02011101461ADDAA106004091AG10000GF106991031031008001061001KA1240M+02601MA1999999100431MD1999999+0081REMSYN023 333 10260 58008 60041;EQDQ01+000002VOVAR 
0140829940999991996042512004-09667-035700FM-12+008999999V0201801N00211045001CN0200001N1+01621+99999101481ADDAA124019091AG10000GF107991041081008001061021KA1240N+99999MA1999999100451MD1999999-0091REMSYN023 333 20220 59009 60194;EQDQ01 +02202ATMN  
0096829940999991996042518004-09667-035700FM-12+008999999V0201401N00411045001CN0500001N1+02821+02291101211ADDAA106000091AG10000GF106991021061012501041011MA1999999100181MD1999999-0141REMSYN011 333 59014;
0121829940999991996042612004-09667-035700FM-12+008999999V0201401N00101045001CN0200001N1+02781+02121101401ADDAA124001091AG10000GF107991021031017501061001KA1240N+02191MA1999999100381MD1999999-0071REMSYN023 333 20219 59007 69974;
0102829940999991996042618004-09667-035700FM-12+008999999V0201801N00151105001CN0500001N1+02801+02081101201ADDAA106000191AG10000GF106991021021012501061041MA1999999100181MD1999999+0001REMSYN017 333 58000 69911;
0121829940999991996042712004-09667-035700FM-12+008999999V0201401N00261045001CN0500001N1+02741+02071101421ADDAA124028091AG10000GF106991041081008001061001KA1240N+02041MA1999999100391MD1999999+0011REMSYN023 333 20204 58001 60284;
0102829940999991996042718004-09667-035700FM-12+008999999V0200901N00411045001CN0500001N1+02421+02321101251ADDAA106009091AG10000GF108991041081012501061001MA1999999100221MD1999999+0041REMSYN017 333 58004 60091;
0140829940999991996042800004-09667-035700FM-12+008999999V0202701N00211045001CN9999999N9+02341+02031101211ADDAA106011091AG10000GF107991041081008001061001KA1240M+02941MA1999999100191MD1999999-0071REMSYN023 333 10294 59007 60111;EQDQ01+000002VOVAR 
0121829940999991996042812004-09667-035700FM-12+008999999V0200901N00721012001CN0500001N1+02681+02351101301ADDAA124029091AG10000GF107991051021012501061041KA1240N+01981MA1999999100271MD1999999-0121REMSYN023 333 20198 59012 60294;
0140829940999991996042900004-09667-035700FM-12+008999999V0201401N00211015001CN9999999N9+02561+02461101281ADDAA106025091AG10000GF107991051081012501061001KA1240M+02961MA1999999100341MD1999999+0051REMSYN023 333 10296 58005 60251;EQDQ01+000002VOVAR 
0121829940999991996042912004-09667-035700FM-12+008999999V0202701N00311045001CN0500001N1+02601+02331101471ADDAA124056091AG10000GF107991041081008001061041KA1240N+02421MA1999999100451MD1999999+0581REMSYN023 333 20242 58058 60564;
0102829940999991996042918004-09667-035700FM-12+008999999V0201801N00211045001CN0500001N1+02501+02341101251ADDAA106002091AG10000GF108991031071012501061031MA1999999100221MD1999999+0041REMSYN017 333 58004 60021;
0140829940999991996043000004-09667-035700FM-12+008999999V0202701N00261015001CN9999999N9+02461+02251101431ADDAA106001091AG10000GF108991051081012501061001KA1240M+02941MA1999999100411MD1999999+0171REMSYN023 333 10294 58017 60011;EQDQ01+000002VOVAR 
0121829940999991996043012004-09667-035700FM-12+008999999V0201401N00361045001CN0500001N1+02541+02401101511ADDAA124023091AG10000GF108991041081008001061001KA1240N+01981MA1999999100481MD1999999+0031REMSYN023 333 20198 58003 60234;
0102829940999991996043018004-09667-035700FM-12+008999999V0201401N00361015001CN0500001N1+02781+02251101221ADDAA106012091AG10000GF106991051081012501061041MA1999999100301MD1999999-0021REMSYN017 333 59002 60121;
0134829940999991996050100004-09667-035700FM-12+008999999V0200901N00051007501CN9999999N9+02361+02111101541ADDAA106000091AG10000GF105991051021008001001001KA1240M+03001MA1999999100511MD1999999+0101REMSYN017 333 10300 58010;EQDQ01+000002VOVAR 
0140829940999991996050112004-09667-035700FM-12+008999999V0201801N00101045001CN0500001N1+02481+02091101451ADDAA124016091AG10000GF108991031081008001061021KA1240M+99999MA1999999100421MD1999999-0061REMSYN023 333 10220 59006 60164;EQDQ01 +02202ATMX  
0102829940999991996050118004-09667-035700FM-12+008999999V0202301N00151045001CN0200001N1+02601+02351101251ADDAA106009091AG10000GF107991041071012501061031MA1999999100221MD1999999+0021REMSYN017 333 58002 60091;
0121829940999991996050212004-09667-035700FM-12+008999999V0201401N00151045001CN0200001N1+02701+02281101591ADDAA124010091AG10000GF107991021071012501041001KA1240N+02201MA1999999100561MD1999999+0111REMSYN023 333 20220 58011 60104;
0096829940999991996050218004-09667-035700FM-12+008999999V0201401N00511045001CN0500001N1+02801+02131101201ADDAA106000091AG10000GF106991021021017501061001MA1999999100181MD1999999-0041REMSYN011 333 59004;
0121829940999991996050312004-09667-035700FM-12+008999999V0200901N00361220001CN0500001N1+02781+02261101531ADDAA124000591AG10000GF105991021011012501001041KA1240N+02211MA1999999100511MD1999999-0051REMSYN023 333 20221 59005 69944;
0096829940999991996050318004-09667-035700FM-12+008999999V0200901N00511220001CN0500001N1+02881+02051101191ADDAA106000091AG10000GF104991021021012501011031MA1999999100171MD1999999-0011REMSYN011 333 59001;
0121829940999991996050412004-09667-035700FM-12+008999999V0201401N00151105001CN0500001N1+02701+02111101451ADDAA124000191AG10000GF106991021021017501061041KA1240N+02291MA1999999100431MD1999999-0081REMSYN023 333 20229 59008 69914;
0096829940999991996050418004-09667-035700FM-12+008999999V0201801N00311105001CN0500001N1+02841+02051101191ADDAA106000091AG10000GF105991021021012501061021MA1999999100171MD1999999+0001REMSYN011 333 58000;
0134829940999991996050500004-09667-035700FM-12+008999999V0200901N00101045001CN9999999N9+02381+02011101431ADDAA106000091AG10000GF107991041081008001061031KA1240M+03021MA1999999100401MD1999999+0021REMSYN017 333 10302 58002;EQDQ01+000002VOVAR 
0121829940999991996050512004-09667-035700FM-12+008999999V0200501N00261045001CN0500001N1+02701+02371101451ADDAA124009091AG10000GF106991021061012501041011KA1240N+02311MA1999999100431MD1999999+0001REMSYN023 333 20231 58000 60094;
0096829940999991996050518004-09667-035700FM-12+008999999V0201801N00261045001CN0500001N1+02781+02361101241ADDAA106000091AG10000GF107991021081012501061021MA1999999100221MD1999999+0051REMSYN011 333 58005;
0121829940999991996050612004-09667-035700FM-12+008999999V0201801N00151045001CN0500001N1+02501+02211101541ADDAA124010091AG10000GF107991041081012501061041KA1240N+01861MA1999999100511MD1999999+0081REMSYN023 333 20186 58008 60104;
0096829940999991996050618004-09667-035700FM-12+008999999V0200901N00211015001CN0500001N1+02861+02261101311ADDAA106000091AG10000GF106991051021017501061031MA1999999100291MD1999999+0071REMSYN011 333 58007;
0121829940999991996050712004-09667-035700FM-12+008999999V0201801N00261045001CN0500001N1+02561+02351101491ADDAA124009091AG10000GF106991031061008001031011KA1240N+01821MA1999999100471MD1999999-0041REMSYN023 333 20182 59004 60094;
0096829940999991996050718004-09667-035700FM-12+008999999V0202701N00311045001CN0200001N1+02621+02251101321ADDAA106000091AG10000GF107991021081008001061021MA1999999100291MD1999999+0001REMSYN011 333 58000;
0096829940999991996050818004-09667-035700FM-12+008999999V0201401N00261007501CN0500001N1+02701+02221101401ADDAA106000091AG10000GF105991051031008001001001MA1999999100371MD1999999+0081REMSYN011 333 58008;
0134829940999991996050900004-09667-035700FM-12+008999999V0200901N00101007501CN9999999N9+02401+02111101501ADDAA106000091AG10000GF105991051031008001001001KA1240M+02881MA1999999100471MD1999999+0041REMSYN017 333 10288 58004;EQDQ01+000002VOVAR 
0121829940999991996050912004-09667-035700FM-12+008999999V0200901N00051045001CN0100001N1+02421+02051101611ADDAA124002091AG10000GF108991041031012501041999KA1240N+02161MA1999999100581MD1999999-0021REMSYN023 333 20216 59002 60024;
0102829940999991996050918004-09667-035700FM-12+008999999V0200501N00261012001CN0200001N1+02881+02231101201ADDAA106000191AG10000GF106991051061012501031021MA1999999100181MD1999999-0191REMSYN017 333 59019 69921;
0121829940999991996051012004-09667-035700FM-12+008999999V0201401N00211045001CN0500001N1+02741+02071101481ADDAA106005091AG10000GF106991021021012501061011KA1240N+02571MA1999999100461MD1999999-0121REMSYN023 333 20257 59012 60051;
0104829940999991996051015004-09667-035700FM-12+008999999V0201101N00411007501CN0200001N1+03141+02691101091ADDAG10000GF106991051021008001001041MA1999999100081MD1999999-0071REMSYN011 333 59007;EQDQ01+999990APOSP 
0096829940999991996051018004-09667-035700FM-12+008999999V0200901N00571105001CN0500001N1+02961+02131101081ADDAA106000091AG10000GF106991021011012501061041MA1999999100061MD1999999-0121REMSYN011 333 59012;
0115829940999991996051112004-09667-035700FM-12+008999999V0200901N00151220001CN0500001N1+02701+02061101501ADDAA106000091AG10000GF104991021021012501041041KA1240N+02231MA1999999100471MD1999999+0011REMSYN017 333 20223 58001;
0096829940999991996051118004-09667-035700FM-12+008999999V0201401N00461220001CN0500001N1+02901+02871101221ADDAA106000091AG10000GF104991021011017501001011MA1999999100201MD1999999+0141REMSYN011 333 58014;
0115829940999991996051212004-09667-035700FM-12+008999999V0201401N00151220001CN0500001N1+02761+01971101731ADDAA106000091AG10000GF106991021021017501001011KA1240N+02301MA1999999100701MD1999999+0231REMSYN017 333 20230 58023;
0140829940999991996051312004-09667-035700FM-12+008999999V0201801N005719999999N0500001N1+02821+02331101711ADDAA124004091AG10000GF106991999021017501001001KA1240N+01881MA1999999100681MD1999999-0021REMSYN023 333 20188 59002 60044;EQDQ01+000042SCOTLC
0096829940999991996051318004-09667-035700FM-12+008999999V0201801N00361012001CN0500001N1+02841+02011101421ADDAA106000091AG10000GF106991051021012501031041MA1999999100391MD1999999-0101REMSYN011 333 59010;
0150829940999991996051400004-09667-035700FM-12+008999999V0200901N00101220001CN9999999N9+02501+02411101581ADDAA106000091AG10000GF103991999021022501001001KA1240M+03141MA1999999100561MD1999999+0051REMSYN017 333 10314 58005;EQDQ01+000062SCOTLCQ02+000002VOVAR 
0121829940999991996051412004-09667-035700FM-12+008999999V0201801N00211015001CN0500001N1+02521+02291101591ADDAA124010091AG10000GF108991051081012501061001KA1240N+01961MA1999999100561MD1999999-0121REMSYN023 333 20196 59012 60104;
0096829940999991996051418004-09667-035700FM-12+008999999V0201801N00211045001CN0500001N1+02701+02371101341ADDAA106000091AG10000GF106991041081008001061001MA1999999100311MD1999999-0081REMSYN011 333 59008;
0121829940999991996051512004-09667-035700FM-12+008999999V0201401N00311015001CN0100001N1+02461+02411101451ADDAA124001091AG10000GF108991051081012501061999KA1240N+02301MA1999999100421MD1999999-0141REMSYN023 333 20230 59014 69984;
0096829940999991996051518004-09667-035700FM-12+008999999V0200901N00151045001CN0100001N1+02861+02241101121ADDAA106000091AG10000GF106991031021008001011001MA1999999100091MD1999999-0221REMSYN011 333 59022;
0096829940999991996051618004-09667-035700FM-12+008999999V0201401N00461220001CN0500001N1+02931+02141101191ADDAA106000091AG10000GF104991041021008001001001MA1999999100161MD1999999+0071REMSYN011 333 58007;
0115829940999991996051712004-09667-035700FM-12+008999999V0201801N00101045001CN0500001N1+02641+02251101371ADDAA106000091AG10000GF105991041021012501031011KA1240N+02141MA1999999100341MD1999999-0021REMSYN017 333 20214 59002;
0115829940999991996051718004-09667-035700FM-12+008999999V0200501N00261220001CN0200001N1+02881+02361101331ADDAA106000091AG10000GF103991999021012501001001MA1999999100401MD1999999+0141REMSYN011 333 58014;EQDQ01+000042SCOTLC
0134829940999991996051800004-09667-035700FM-12+008999999V0200401N00261045001CN9999999N9+02401+02151101461ADDAA106000091AG10000GF106991031041008001021081KA1240M+03061MA1999999100441MD1999999+0041REMSYN017 333 10306 58004;EQDQ01+000002VOVAR 
0096829940999991996051818004-09667-035700FM-12+008999999V0200901N00461045001CN0500001N1+02801+02291101361ADDAA106000091AG10000GF107991041021008001061001MA1999999100331MD1999999+0031REMSYN011 333 58003;
0121829940999991996051912004-09667-035700FM-12+008999999V0203601N00151045001CN0500001N1+02721+02241101511ADDAA124001091AG10000GF106991041061012501031021KA1240N+02221MA1999999100491MD1999999-0171REMSYN023 333 20222 59017 60014;
0102829940999991996051918004-09667-035700FM-12+008999999V0201801N00311045001CN0200001N1+02901+02101101291ADDAA106000191AG10000GF105991031041012501021011MA1999999100271MD1999999-0061REMSYN017 333 59006 69911;
0104829940999991996052012004-09667-035700FM-12+008999999V0201801N00211105001CN0500001N1+02781+02251101501ADDAG10000GF106991041021012501001031KA1240N+01821MA1999999100471MD1999999-0021REMSYN017 333 20182 59002;
0115829940999991996052018004-09667-035700FM-12+008999999V0203601N003619999999N0500001N1+02861+02311101231ADDAA106000091AG10000GF106991999021017501001001MA1999999100211MD1999999-0061REMSYN011 333 59006;EQDQ01+000032SCOTLC
0121829940999991996052112004-09667-035700FM-12+008999999V0201801N00211015001CN0500001N1+02781+02341101171ADDAA124000191AG10000GF106991061021017501031041KA1240N+01901MA1999999100141MD1999999-0331REMSYN023 333 20190 59033 69914;
0115829940999991996052118004-09667-035700FM-12+008999999V0203601N00361220001CN0500001N1+02921+02191101471ADDAA106000091AG10000GF103991999021008001001001MA1999999100441MD1999999+0231REMSYN011 333 58023;EQDQ01+000042SCOTLC
0121829940999991996052212004-09667-035700FM-12+008999999V0200901N00101045001CN0500001N1+02841+02041101721ADDAA124000191AG10000GF106991021021012501061011KA1240N+02201MA1999999100691MD1999999+0551REMSYN023 333 20220 58055 69914;
0096829940999991996052218004-09667-035700FM-12+008999999V0200901N00311220001CN0500001N1+02881+02101101661ADDAA106000091AG10000GF104991041021008001001001MA1999999100631MD1999999-0011REMSYN011 333 59001;
0134829940999991996052300004-09667-035700FM-12+008999999V0200901N00101220001CN9999999N9+02521+02151101561ADDAA106000091AG10000GF103991031011008001001001KA1240M+03081MA1999999100531MD1999999-0131REMSYN017 333 10308 59013;EQDQ01+000002VOVAR 
0115829940999991996052312004-09667-035700FM-12+008999999V0201401N00211105001CN0500001N1+02761+02021101661ADDAA106000091AG10000GF106991021021017501061041KA1240N+02201MA1999999100631MD1999999-0061REMSYN017 333 20220 59006;
0096829940999991996052318004-09667-035700FM-12+008999999V0201401N00261045001CN0500001N1+02901+02041101301ADDAA106000091AG10000GF106991041021012501061031MA1999999100271MD1999999-0361REMSYN011 333 59036;
0121829940999991996052412004-09667-035700FM-12+008999999V0200901N00101045001CN0500001N1+02701+02321101571ADDAA124000391AG10000GF106991041031012501061001KA1240N+02221MA1999999100541MD1999999-0091REMSYN023 333 20222 59009 69934;
0096829940999991996052418004-09667-035700FM-12+008999999V0200901N00151045001CN0500001N1+02941+01821101251ADDAA106000091AG10000GF105991021021012501061001MA1999999100231MD1999999-0041REMSYN011 333 59004;
0121829940999991996052512004-09667-035700FM-12+008999999V0201801N00261007501CN0500001N1+02741+01301101411ADDAA124000191AG10000GF106991051041008001061021KA1240N+01981MA1999999100391MD1999999-0151REMSYN023 333 20198 59015 69924;
0096829940999991996052518004-09667-035700FM-12+008999999V0201401N00311045001CN0500001N1+02801+01731101401ADDAA106000091AG10000GF105991041021012501061011MA1999999100371MD1999999+0141REMSYN011 333 58014;
0115829940999991996052712004-09667-035700FM-12+008999999V0202301N00211015001CN0500001N1+02501+02211101561ADDAA106000091AG10000GF106991051021017501031001KA1240N+01801MA1999999100811MD1999999-0121REMSYN017 333 20180 59012;
0096829940999991996052718004-09667-035700FM-12+008999999V0201801N00571045001CN0500001N1+02791+02201101571ADDAA106000091AG10000GF106991041021012501031021MA1999999100541MD1999999-0061REMSYN011 333 59006;
0121829940999991996052812004-09667-035700FM-12+008999999V0202701N00151045001CN0500001N1+02381+02241101771ADDAA124003091AG10000GF108991041081008001061001KA1240N+01861MA1999999100741MD1999999-0071REMSYN023 333 20186 59007 60034;
0102829940999991996052818004-09667-035700FM-12+008999999V0200901N00461045001CN0500001N1+02721+02281101431ADDAA106000591AG10000GF107991041081008001061041MA1999999100401MD1999999-0141REMSYN017 333 59014 69961;
0140829940999991996053000004-09667-035700FM-12+008999999V0200901N00151045001CN9999999N9+02301+02051101641ADDAA106005091AG10000GF106991031071008001021001KA1240M+03061MA1999999100611MD1999999-0091REMSYN023 333 10306 59009 60051;EQDQ01+000002VOVAR 
0121829940999991996053012004-09667-035700FM-12+008999999V0200901N00461045001CN0100001N1+02561+02311101721ADDAA124009091AG10000GF108991021071012501041999KA1240N+02081MA1999999100691MD1999999+0171REMSYN023 333 20208 58017 60094;
0102829940999991996053018004-09667-035700FM-12+008999999V0201401N00151045001CN0200001N1+02481+02261101531ADDAA106023091AG10000GF106991031031008001061001MA1999999100501MD1999999+0181REMSYN017 333 58018 60231;
0121829940999991996053112004-09667-035700FM-12+008999999V0201401N00311045001CN0500001N1+02701+02131101661ADDAA124023091AG10000GF106991021021012501061001KA1240N+02211MA1999999100631MD1999999-0061REMSYN023 333 20221 59006 60234;
0096829940999991996053118004-09667-035700FM-12+008999999V0201801N00461045001CN0500001N1+02761+02231101441ADDAA106000091AG10000GF107991041081012501061021MA1999999100411MD1999999-0091REMSYN011 333 59009;
0121829940999991996060112004-09667-035700FM-12+008999999V0201401N00101045001CN0500001N1+02801+02031101851ADDAA124017091AG10000GF106991021031012501041001KA1240N+02191MA1999999100821MD1999999+0191REMSYN023 333 20219 58019 60174;
0102829940999991996060118004-09667-035700FM-12+008999999V0200901N00211045001CN0200001N1+02651+02221101511ADDAA106000591AG10000GF106991031031008001061001MA1999999100491MD1999999+0081REMSYN017 333 58008 69951;
0096829940999991996060218004-09667-035700FM-12+008999999V0200901N00311007501CN0500001N1+02901+02171101391ADDAA106000091AG10000GF105991051031008001001001MA1999999100361MD1999999-0131REMSYN011 333 59013;
0121829940999991996060312004-09667-035700FM-12+008999999V0201801N00211015001CN0500001N1+02461+02171101691ADDAA124000591AG10000GF106991061021017501001001KA1240N+01621MA1999999100661MD1999999+0111REMSYN023 333 20162 58011 69944;
0096829940999991996060318004-09667-035700FM-12+008999999V0200901N00411012001CN0500001N1+02781+02181101421ADDAA106000091AG10000GF106991051021012501031001MA1999999100391MD1999999+0031REMSYN011 333 58003;
0140829940999991996060400004-09667-035700FM-12+008999999V0201401N00461015001CN9999999N9+02281+02011101661ADDAA106000191AG10000GF106991061021017501031001KA1240M+02881MA1999999100621MD1999999-0021REMSYN023 333 10288 59002 69921;EQDQ01+000002VOVAR 
0121829940999991996060412004-09667-035700FM-12+008999999V0201401N00261045001CN0500001N1+02441+02281101681ADDAA124004091AG10000GF108991041081008001061001KA1240N+01881MA1999999100651MD1999999-0011REMSYN023 333 20188 59001 60044;
0102829940999991996060418004-09667-035700FM-12+008999999V0200501N005110120019N0500001N1+02701+02121101521ADDAA106005091AG10000GF106991051061012501031011MA1999999100491MD1999999+0101REMSYN017 333 58010 60051;
0121829940999991996060512004-09667-035700FM-12+008999999V0200901N00211045001CN0500001N1+02701+01911101841ADDAA124005091AG10000GF106991041011012501061011KA1240N+02211MA1999999100811MD1999999+0161REMSYN023 333 20221 58016 60054;
0102829940999991996060518004-09667-035700FM-12+008999999V0200901N00151045001CN0200001N1+02581+02101101721ADDAA106004091AG10000GF106991031031008001061001MA1999999100691MD1999999+0201REMSYN017 333 58020 60041;
0121829940999991996060612004-09667-035700FM-12+008999999V0201401N00261045001CN0100001N1+02541+02041101931ADDAA124004091AG10000GF108991041071012501041999KA1240N+02171MA1999999100901MD1999999+0091REMSYN023 333 20217 58009 60044;
0121829940999991996060712004-09667-035700FM-12+008999999V0200901N00411105001CN0500001N1+02761+01861101751ADDAA124001091AG10000GF106991021011012501061041KA1240N+02221MA1999999100721MD1999999-0181REMSYN023 333 20222 59018 60014;
0121829940999991996060812004-09667-035700FM-12+008999999V0201401N00511045001CN0500001N1+02581+02581101701ADDAA124004091AG10000GF106991041081008001061021KA1240N+01841MA1999999100951MD1999999+0231REMSYN023 333 20184 58023 60044;
0102829940999991996060818004-09667-035700FM-12+008999999V0200901N00261045001CN0500001N1+02761+01991101741ADDAA106000191AG10000GF106991031061012501041021MA1999999100711MD1999999+0151REMSYN017 333 58015 69911;
0121829940999991996060912004-09667-035700FM-12+008999999V0201801N00311045001CN0500001N1+02541+02151101641ADDAA124004091AG10000GF108991041081008001061001KA1240N+01881MA1999999100901MD1999999-0051REMSYN023 333 20188 59005 60044;
0102829940999991996060918004-09667-035700FM-12+008999999V0203601N00621045001CN0500001N1+02461+02111101501ADDAA106005091AG10000GF108991041081008001061041MA1999999100761MD1999999+0051REMSYN017 333 58005 60051;
0121829940999991996061012004-09667-035700FM-12+008999999V0201401N00671012001CN0500001N1+02641+02071101761ADDAA124006091AG10000GF106991051021012501041011KA1240N+02001MA1999999099051MD1999999+0051REMSYN023 333 20200 58005 60064;
0121829940999991996061018004-09667-035700FM-12+008999999V0200501N00151012001CN0500001N1+02701+02081101671ADDAA106001091AG10000GF106991051061012501061031MA1999999100642MD1999999-0121REMSYN017 333 59012 69981;EQDQ01+100643APOSP 
0140829940999991996061200004-09667-035700FM-12+008999999V0200901N00101045001CN9999999N9+02201+01991101961ADDAA106005091AG10000GF106991031071008001021001KA1240M+02761MA1999999100941MD1999999+0261REMSYN023 333 10276 58026 60051;EQDQ01+000002VOVAR 
0121829940999991996061212004-09667-035700FM-12+008999999V0201401N00511045001CN0500001N1+02741+01951101871ADDAA124033091AG10000GF106991021021012501061011KA1240N+02081MA1999999100831MD1999999+0101REMSYN023 333 20208 58010 60334;
0102829940999991996061218004-09667-035700FM-12+008999999V0200901N00211045001CN0500001N1+02461+02231101651ADDAA106001091AG10000GF106991031041012501021011MA1999999100621MD1999999+0031REMSYN017 333 58003 69991;
0121829940999991996061312004-09667-035700FM-12+008999999V0200901N00151045001CN0500001N1+02721+02101101741ADDAA124008091AG10000GF106991021031008001041001KA1240N+02001MA1999999100711MD1999999-0121REMSYN023 333 20200 59012 60084;
0102829940999991996061318004-09667-035700FM-12+008999999V0200901N00151045001CN0200001N1+02601+02191101621ADDAA106003091AG10000GF106991021031012501061001MA1999999100591MD1999999-0031REMSYN017 333 59003 60031;
0121829940999991996061412004-09667-035700FM-12+008999999V0201401N00211045001CN0100001N1+02501+02151101731ADDAA124100091AG10000GF108991021071012501041999KA1240N+01981MA1999999100691MD1999999-0021REMSYN023 333 20198 59002 61004;
0102829940999991996061418004-09667-035700FM-12+008999999V0201401N00151045001CN0100001N1+02681+02111101521ADDAA106002091AG10000GF108991021011012501041999MA1999999100491MD1999999-0101REMSYN017 333 59010 60021;
0121829940999991996061512004-09667-035700FM-12+008999999V0201401N00361045001CN0100001N1+02701+01991101651ADDAA124030091AG10000GF108991041031012501061999KA1240N+02001MA1999999100621MD1999999-0071REMSYN023 333 20200 59007 60304;
0102829940999991996061518004-09667-035700FM-12+008999999V0201401N00311045001CN0500001N1+02581+02191101491ADDAA106999929AG10000GF106991021021012501061001MA1999999100461MD1999999-0031REMSYN017 333 59003 69901;
0115829940999991996061612004-09667-035700FM-12+008999999V0201801N00211012001CN0500001N1+02581+02121101611ADDAA106000091AG10000GF106991051041012501061021KA1240N+01801MA1999999100581MD1999999-0091REMSYN017 333 20180 59009;
0096829940999991996061618004-09667-035700FM-12+008999999V0201401N00361045001CN0500001N1+02221+01221101381ADDAA106000091AG10000GF107991041061012501031021MA1999999100351MD1999999-0111REMSYN011 333 59011;
0140829940999991996061700004-09667-035700FM-12+008999999V0200901N00261045001CN9999999N9+02301+02071101541ADDAA106000191AG10000GF106991041061008001041001KA1240M+02881MA1999999100511MD1999999-0141REMSYN023 333 10288 59014 69921;EQDQ01+000002VOVAR 
0132829940999991996061712004-09667-035700FM-12+008999999V0203601N00621015001CN0500001N1+02481+02171101561ADDAA106000091AA224009091AG10000GF107991051081012501061041KA1240N+01861MA1999999100531MD1999999-0051REMSYN023 333 20186 59005 60094;
0102829940999991996061718004-09667-035700FM-12+008999999V0200901N00461045001CN0500001N1+02661+02221101301ADDAA106004091AG10000GF108991041081008001061001MA1999999100271MD1999999-0051REMSYN017 333 59005 60041;
0140829940999991996061800004-09667-035700FM-12+008999999V0202701N00361045001CN9999999N9+02201+02031101371ADDAA106006091AG10000GF106991031081012501061001KA1240M+02841MA1999999100341MD1999999-0011REMSYN023 333 10284 59001 60061;EQDQ01+000002VOVAR 
0121829940999991996061812004-09667-035700FM-12+008999999V0201401N00261045001CN0500001N1+02561+02351101741ADDAA124010091AG10000GF107991041081012501061041KA1240N+01891MA1999999100711MD1999999+0181REMSYN023 333 20189 58018 60104;
0096829940999991996061818004-09667-035700FM-12+008999999V0200901N00461045001CN0500001N1+02641+02251101431ADDAA106000091AG10000GF108991031061012501041021MA1999999100391MD1999999-0121REMSYN011 333 59012;
0121829940999991996061912004-09667-035700FM-12+008999999V0201401N00211045001CN0100001N1+02541+02111101571ADDAA124006091AG10000GF108991041031012501041999KA1240N+01981MA1999999100541MD1999999-0171REMSYN023 333 20198 59017 60064;
0096829940999991996061918004-09667-035700FM-12+008999999V0200901N00361007501CN0500001N1+02731+02081101471ADDAA106000091AG10000GF105991051031008001001001MA1999999100441MD1999999+0051REMSYN011 333 58005;
0121829940999991996062012004-09667-035700FM-12+008999999V0201401N00151045001CN0200001N1+02541+02041101591ADDAA124001091AG10000GF107991021031012501061001KA1240N+01971MA1999999100561MD1999999+0021REMSYN023 333 20197 58002 60014;
0096829940999991996062018004-09667-035700FM-12+008999999V0201401N00261007501CN0500001N1+02701+02131101471ADDAA106000091AG10000GF105991051031008001001001MA1999999100451MD1999999+0011REMSYN011 333 58001;
0121829940999991996062112004-09667-035700FM-12+008999999V0200901N00261105001CN0500001N1+02481+01941101801ADDAA124000191AG10000GF106991021021012501061041KA1240N+01991MA1999999100771MD1999999+0211REMSYN023 333 20199 58021 69914;
0102829940999991996062218004-09667-035700FM-12+008999999V0201801N00311045001CN0200001N1+02601+01821101711ADDAA106000191AG10000GF106991021041012501061021MA1999999100681MD1999999+0181REMSYN017 333 58018 69911;
0132829940999991996062312004-09667-035700FM-12+008999999V0203201N00101045001CN0500001N1+02461+02221101661ADDAA106000091AA224003091AG10000GF106991031041012501061021KA1240N+01921MA1999999100911MD1999999+0091REMSYN023 333 20192 58009 60034;
0102829940999991996062318004-09667-035700FM-12+008999999V0201801N00311045001CN0500001N1+02621+02251101801ADDAA106000191AG10000GF106991021031008001061001MA1999999100771MD1999999+0091REMSYN017 333 58009 69911;
0115829940999991996062412004-09667-035700FM-12+008999999V0201401N00151045001CN0500001N1+02681+01781101861ADDAA106000091AG10000GF106991021021012501061001KA1240N+01971MA1999999100831MD1999999-0081REMSYN017 333 20197 59008;
0096829940999991996062418004-09667-035700FM-12+008999999V0200901N00311220001CN0500001N1+02701+01761101611ADDAA106000091AG10000GF104991021021012501041011MA1999999100581MD1999999-0191REMSYN011 333 59019;
0121829940999991996062512004-09667-035700FM-12+008999999V0201801N00211045001CN0500001N1+02661+01851101771ADDAA124005091AG10000GF106991021021012501061001KA1240N+01941MA1999999100741MD1999999-0091REMSYN023 333 20194 59009 60054;
0096829940999991996062518004-09667-035700FM-12+008999999V0201401N00151045001CN0500001N1+02691+01831101601ADDAA106000091AG10000GF106991021021012501041011MA1999999100571MD1999999-0011REMSYN011 333 59001;
0134829940999991996062600004-09667-035700FM-12+008999999V0201401N00051045001CN9999999N9+02221+01901101661ADDAA106000091AG10000GF106991021011012501061001KA1240M+02741MA1999999100631MD1999999-0091REMSYN017 333 10274 59009;EQDQ01+000002VOVAR 
0121829940999991996062612004-09667-035700FM-12+008999999V0203201N00211045001CN0500001N1+02321+02181101701ADDAA124003091AG10000GF107991041061012501031011KA1240N+01801MA1999999100671MD1999999-0071REMSYN023 333 20180 59007 60034;
0102829940999991996062618004-09667-035700FM-12+008999999V0201801N00211045001CN0500001N1+02361+02191101441ADDAA106000591AG10000GF108991041031008001061001MA1999999100411MD1999999-0171REMSYN017 333 59017 69961;
0096829940999991996062718004-09667-035700FM-12+008999999V0200901N00311220001CN0500001N1+02761+02121101421ADDAA106000091AG10000GF104991041031008001001001MA1999999100391MD1999999-0011REMSYN011 333 59001;
0134829940999991996062812004-09667-035700FM-12+008999999V0200901N00101045001CN9999999N9+02381+02091101521ADDAA106000091AG10000GF106991021021008001031001KA1240M+02801MA1999999100501MD1999999+0111REMSYN017 333 10280 58011;EQDQ01+000002VOVAR 
0096829940999991996063018004-09667-035700FM-12+008999999V0201401N00361045001CN0500001N1+02701+02031101801ADDAA106000091AG10000GF105991031021017501041011MA1999999100761MD1999999+0211REMSYN011 333 58021;
0134829940999991996070400004-09667-035700FM-12+008999999V0200901N00101045001CN9999999N9+02161+01721101801ADDAA106000091AG10000GF107991041031012501061001KA1240M+02811MA1999999100761MD1999999+0161REMSYN017 333 10281 58016;EQDQ01+000002VOVAR 
0121829940999991996070412004-09667-035700FM-12+008999999V0203201N00051015001CN0500001N1+02541+02121101571ADDAA124006091AG10000GF108991051081012501061001KA1240N+01681MA1999999100821MD1999999+0141REMSYN023 333 20168 58014 60064;
0096829940999991996070418004-09667-035700FM-12+008999999V0201801N00151045001CN0500001N1+02701+01991101631ADDAA106000091AG10000GF107991021031012501061001MA1999999100601MD1999999+0161REMSYN011 333 58016;
0121829940999991996070512004-09667-035700FM-12+008999999V0201401N00361045001CN0500001N1+02761+01971101991ADDAA124010091AG10000GF106991021021012501061011KA1240N+01801MA1999999100961MD1999999+0141REMSYN023 333 20180 58014 60104;
0096829940999991996070518004-09667-035700FM-12+008999999V0200901N00511105001CN0500001N1+02791+02061101831ADDAA106000091AG10000GF106991021011012501061041MA1999999100801MD1999999+0201REMSYN011 333 58020;
0140829940999991996070700004-09667-035700FM-12+008999999V0200901N00051045001CN9999999N9+02141+01931101781ADDAA106001091AG10000GF107991021021012501061001KA1240M+02621MA1999999100741MD1999999-0141REMSYN023 333 10262 59014 60011;EQDQ01+000002VOVAR 
0121829940999991996070712004-09667-035700FM-12+008999999V0201401N00311045001CN0500001N1+02601+02081101751ADDAA199002091AG10000GF106991021021012501061001KA1240N+01801MA1999999100721MD1999999-0221REMSYN023 333 20180 59022 60020;
0134829940999991996070800004-09667-035700FM-12+008999999V0200901N00151045001CN9999999N9+02201+02061101641ADDAA106000091AG10000GF107991021031012501061001KA1240M+02791MA1999999100601MD1999999-0141REMSYN017 333 10279 59014;EQDQ01+000002VOVAR 
0121829940999991996070812004-09667-035700FM-12+008999999V0200901N00151045001CN0100001N1+02201+02061101841ADDAA124010091AG10000GF108991041071017501041999KA1240N+01741MA1999999100801MD1999999+0081REMSYN023 333 20174 58008 60104;
0102829940999991996070818004-09667-035700FM-12+008999999V0201401N00571045001CN0500001N1+02601+01871101681ADDAA106001091AG10000GF106991041031012501041001MA1999999100651MD1999999+0111REMSYN017 333 58011 60011;
0121829940999991996070912004-09667-035700FM-12+008999999V0200901N00511045001CN0500001N1+02401+01841101981ADDAA124001091AG10000GF106991041031012501041011KA1240N+01811MA1999999100941MD1999999+0141REMSYN023 333 20181 58014 60014;
0096829940999991996070918004-09667-035700FM-12+008999999V0201401N00151045001CN0500001N1+02581+01801101781ADDAA106000091AG10000GF106991021011012501061001MA1999999100741MD1999999+0101REMSYN011 333 58010;
0121829940999991996071012004-09667-035700FM-12+008999999V0201401N00211045001CN0500001N1+02581+01721102071ADDAA124005091AG10000GF106991021011012501061011KA1240N+01831MA1999999101031MD1999999+0091REMSYN023 333 20183 58009 60054;
0096829940999991996071018004-09667-035700FM-12+008999999V0201401N00101045001CN0500001N1+02441+02091101811ADDAA106000091AG10000GF106991021031017501041001MA1999999100781MD1999999+0031REMSYN011 333 58003;
0140829940999991996071100004-09667-035700FM-12+008999999V0200501N00101045001CN9999999N9+02201+02061101981ADDAA124007091AG10000GF106991021021012501041001KA1240M+02861MA1999999100941MD1999999+0041REMSYN023 333 10286 58004 60074;EQDQ01+000002VOVAR 
0121829940999991996071112004-09667-035700FM-12+008999999V0201401N00361045001CN0500001N1+02501+01911101021ADDAA124008091AG10000GF106991021031012501041001KA1240N+01791MA1999999100991MD1999999-0041REMSYN023 333 20179 59004 60084;
0096829940999991996071118004-09667-035700FM-12+008999999V0200901N00311045001CN0500001N1+02601+01761101731ADDAA106000091AG10000GF105991041021017501041001MA1999999100701MD1999999-0081REMSYN011 333 59008;
0115829940999991996071212004-09667-035700FM-12+008999999V0200901N00361220001CN0500001N1+02381+01821101841ADDAA106000091AG10000GF104991021011017501001011KA1240N+01821MA1999999100801MD1999999-0191REMSYN017 333 20182 59019;
0096829940999991996071218004-09667-035700FM-12+008999999V0201801N00211045001CN0500001N1+02641+02031101581ADDAA106000091AG10000GF105991021021012501061001MA1999999100551MD1999999-0151REMSYN011 333 59015;
0115829940999991996071312004-09667-035700FM-12+008999999V0201401N00211045001CN0500001N1+02481+02091101891ADDAA106000091AG10000GF106991041011012501061041KA1240N+01801MA1999999100851MD1999999+0051REMSYN017 333 20180 58005;
0115829940999991996071412004-09667-035700FM-12+008999999V0201801N00311045001CN0500001N1+02601+02141101641ADDAA106000091AG10000GF105991021041012501061001KA1240N+01981MA1999999100891MD1999999+0041REMSYN017 333 20198 58004;
0096829940999991996071418004-09667-035700FM-12+008999999V0201401N00311045001CN0500001N1+02721+02051101751ADDAA106000091AG10000GF106991021021017501061011MA1999999100721MD1999999-0061REMSYN011 333 59006;
0115829940999991996071512004-09667-035700FM-12+008999999V0200901N00311105001CN0500001N1+02601+02031101701ADDAA106000091AG10000GF105991021011017501041011KA1240N+01861MA1999999100951MD1999999+0061REMSYN017 333 20186 58006;
0115829940999991996071518004-09667-035700FM-12+008999999V0200901N00461220001CN0500001N1+02721+02121101841ADDAA106000091AG10000GF103991999011008001001001MA1999999100821MD1999999+0101REMSYN011 333 58010;EQDQ01+000002SCOTLC
0140829940999991996071600004-09667-035700FM-12+008999999V0200901N00051220001CN9999999N9+02101+01931101851ADDAA106002091AG10000GF104991021021012501061001KA1240M+02861MA1999999100901MD1999999-0021REMSYN023 333 10286 59002 60021;EQDQ01+000002VOVAR 
0121829940999991996071612004-09667-035700FM-12+008999999V0201401N00101045001CN0100001N1+02581+01871101771ADDAA124008091AG10000GF108991021031012501041999KA1240N+01811MA1999999101021MD1999999+0071REMSYN023 333 20181 58007 60084;
0102829940999991996071618004-09667-035700FM-12+008999999V0201801N00511045001CN0500001N1+02481+02091101831ADDAA106001091AG10000GF108991021031012501061001MA1999999100791MD1999999-0031REMSYN017 333 59003 60011;
0121829940999991996071712004-09667-035700FM-12+008999999V0201401N00151045001CN0100001N1+02201+01941101791ADDAA124010091AG10000GF108991041071012501021999KA1240N+01781MA1999999101041MD1999999+0021REMSYN023 333 20178 58002 60104;
0102829940999991996071718004-09667-035700FM-12+008999999V0201401N00101045001CN0100001N1+02301+02181101571ADDAA106006091AG10000GF108991041071012501021999MA1999999100821MD1999999+0031REMSYN017 333 58003 60061;
0102829940999991996071818004-09667-035700FM-12+008999999V0201401N00361045001CN0500001N1+02701+01991101811ADDAA106000191AG10000GF106991021041012501061001MA1999999100771MD1999999-0051REMSYN017 333 59005 69921;
0121829940999991996071912004-09667-035700FM-12+008999999V0201401N00101045001CN0500001N1+02201+02061101981ADDAA124003091AG10000GF108991041071012501021999KA1240N+01791MA1999999100941MD1999999-0081REMSYN023 333 20179 59008 60034;
0102829940999991996071918004-09667-035700FM-12+008999999V0200901N00211045001CN0100001N1+02581+02011101801ADDAA106000191AG10000GF108991041031012501041999MA1999999100761MD1999999-0011REMSYN017 333 59001 69921;
0121829940999991996072012004-09667-035700FM-12+008999999V0201401N00211045001CN0500001N1+02701+01691101871ADDAA124001091AG10000GF106991041011012501061001KA1240N+01861MA1999999100841MD1999999-0101REMSYN023 333 20186 59010 60014;
0115829940999991996072112004-09667-035700FM-12+008999999V0201401N00211045001CN0500001N1+02441+01751101861ADDAA106000091AG10000GF106991021021012501061001KA1240N+01861MA1999999100821MD1999999-0021REMSYN017 333 20186 59002;
0096829940999991996072118004-09667-035700FM-12+008999999V0200901N00101045001CN0500001N1+02561+01901101731ADDAA106000091AG10000GF106991021031017501041001MA1999999100701MD1999999+0081REMSYN011 333 58008;
0115829940999991996072212004-09667-035700FM-12+008999999V0202301N00101045001CN0500001N1+02381+02281101661ADDAA106000091AG10000GF108991021081012501061001KA1240N+01681MA1999999100911MD1999999+0151REMSYN017 333 20168 58015;
0085829940999991996072218004-09667-035700FM-12+008999999V0201401N002610450019N0100001N1+02461+02301101761ADDAG10000GF108991031071008001041999MA1999999100721MD1999999+0021REMSYN011 333 58002;
0121829940999991996072300004-09667-035700FM-12+008999999V0200901N00211015001CN0100001N1+02201+02121101771ADDAA106006091AG10000GF106991051081012501061011KA1240M+02781MA1999999100731MD1999999-0071REMSYN023 333 10278 59007 60061;
0121829940999991996072312004-09667-035700FM-12+008999999V0200901N00361045001CN0500001N1+02621+01971101611ADDAA124008091AG10000GF106991041021008001061031KA1240N+01881MA1999999100861MD1999999-0051REMSYN023 333 20188 59005 60084;
0102829940999991996072318004-09667-035700FM-12+008999999V0200901N00211045001CN0200001N1+02461+02131101541ADDAA106000591AG10000GF107991041081008001061001MA1999999100791MD1999999+0071REMSYN017 333 58007 69961;
0121829940999991996072412004-09667-035700FM-12+008999999V0201401N00511045001CN0200001N1+02461+01781101991ADDAA124016091AG10000GF107991041031012501061001KA1240N+01771MA1999999100951MD1999999+0091REMSYN023 333 20177 58009 60164;
0121829940999991996072512004-09667-035700FM-12+008999999V0201401N00151045001CN0100001N1+02301+01981101991ADDAA124008091AG10000GF108991041031012501061999KA1240N+01791MA1999999100951MD1999999+0001REMSYN023 333 20179 58000 60084;
0102829940999991996072518004-09667-035700FM-12+008999999V0201401N00211045001CN0100001N1+02551+01901101761ADDAA106000191AG10000GF108991041031012501061999MA1999999100721MD1999999-0021REMSYN017 333 59002 69921;
0121829940999991996072612004-09667-035700FM-12+008999999V0201801N00151045001CN0100001N1+02281+02201101961ADDAA124005091AG10000GF108991041031012501061999KA1240N+01711MA1999999100921MD1999999-0031REMSYN023 333 20171 59003 60054;
0102829940999991996072618004-09667-035700FM-12+008999999V0201401N00511045001CN0500001N1+02461+01971101731ADDAA106000191AG10000GF106991021041012501061001MA1999999100691MD1999999-0031REMSYN017 333 59003 69921;
0102829940999991996072718004-09667-035700FM-12+008999999V0201801N00361045001CN0100001N1+02541+02061101781ADDAA106001091AG10000GF108991041081012501061999MA1999999100041MD1999999+0051REMSYN017 333 58005 60011;
0121829940999991996072812004-09667-035700FM-12+008999999V0200501N00361045001CN0200001N1+02501+02171101771ADDAA124010091AG10000GF107991041041008001061031KA1240N+01741MA1999999101021MD1999999+0091REMSYN023 333 20174 58009 60104;
0096829940999991996072818004-09667-035700FM-12+008999999V0203601N00671015001CN0500001N1+02601+02031101511ADDAA106000091AG10000GF107991061021017501061041MA1999999100761MD1999999+0021REMSYN011 333 58002;
0140829940999991996072900004-09667-035700FM-12+008999999V0201401N00261045001CN9999999N9+02181+01971101611ADDAA106009091AG10000GF106991041021008001031001KA1240M+02741MA1999999100861MD1999999+0121REMSYN023 333 10274 58012 60091;EQDQ01+000002VOVAR 
0102829940999991996072918004-09667-035700FM-12+008999999V0203201N00211045001CN0100001N1+02321+02201101731ADDAA106004091AG10000GF108991041081008001061999MA1999999100681MD1999999-0081REMSYN017 333 59008 60041;
0126829940999991996072921004-09667-035700FM-12+008999999V0201501N001519999999N0100001N1+02271+02161101761ADDAG10004AY161031AY221031GF107991011001004501061021MA1999999100711MD1999999+0061MW1101REMSYN011 333 58006;EQDQ01+999990APOSP 
0121829940999991996073012004-09667-035700FM-12+008999999V0201401N00361045001CN0100001N1+02141+01861101991ADDAA124020091AG10000GF108991041031012501041999KA1240N+01721MA1999999100941MD1999999-0011REMSYN023 333 20172 59001 60204;
0102829940999991996073018004-09667-035700FM-12+008999999V0201401N00411045001CN0500001N1+02521+01841101811ADDAA106003091AG10000GF106991021061012501031021MA1999999100781MD1999999+0101REMSYN017 333 58010 60031;
0121829940999991996073112004-09667-035700FM-12+008999999V0201401N00101045001CN0100001N1+02301+02011101041ADDAA124006091AG10000GF107991041071012501041001KA1240N+01781MA1999999100991MD1999999+0051REMSYN023 333 20178 58005 60064;
0096829940999991996073118004-09667-035700FM-12+008999999V0201401N00151045001CN0500001N1+02691+01761101661ADDAA106000091AG10000GF106991021041012501061001MA1999999100631MD1999999-0151REMSYN011 333 59015;
0121829940999991996080112004-09667-035700FM-12+008999999V0203201N00211045001CN0200001N1+02381+02211101931ADDAA124002091AG10000GF107991041031008001031041KA1240N+01721MA1999999100891MD1999999-0101REMSYN023 333 20172 59010 60024;
0102829940999991996080118004-09667-035700FM-12+008999999V0201401N00511045001CN0500001N1+02641+02161101741ADDAA106002091AG10000GF107991041081008001061021MA1999999100711MD1999999+0081REMSYN017 333 58008 60021;
0140829940999991996080300004-09667-035700FM-12+008999999V0200901N00101045001CN9999999N9+02581+02101101991ADDAA106010091AG10000GF108991021081008001041999KA1240M+03701MA1999999100951MD1999999+0231REMSYN023 333 10370 58023 60101;EQDQ01+000002VOVAR 
0121829940999991996080312004-09667-035700FM-12+008999999V0201401N00101045001CN0100001N1+02201+02081101051ADDAA124034091AG10000GF108991041071012501021999KA1240N+01781MA1999999101001MD1999999+0011REMSYN023 333 20178 58001 60344;
0121829940999991996080318004-09667-035700FM-12+008999999V0200901N00311045001CN0100001N1+02401+02111101892ADDAA106000591AG10000GF108991041081012501041999MA1999999100851MD1999999+0141REMSYN017 333 58014 69941;EQDQ01+101893APOSLP
0121829940999991996080412004-09667-035700FM-12+008999999V0201401N00051045001CN0100001N1+02281+01881102031ADDAA124007091AG10000GF108991041071012501041999KA1240N+01771MA1999999100981MD1999999-0021REMSYN023 333 20177 59002 60074;
0102829940999991996080418004-09667-035700FM-12+008999999V0201401N00101045001CN0100001N1+02501+02001101761ADDAA106000391AG10000GF108991041031012501061001MA1999999100791MD1999999-0131REMSYN017 333 59013 69931;
0121829940999991996080512004-09667-035700FM-12+008999999V0201401N00211045001CN0500001N1+02441+02091101891ADDAA124008091AG10000GF106991021011012501061001KA1240N+01841MA1999999100851MD1999999-0131REMSYN023 333 20184 59013 60084;
0102829940999991996080518004-09667-035700FM-12+008999999V0201401N00461105001CN0500001N1+02661+02071101611ADDAA106000591AG10000GF105991021011012501061041MA1999999100571MD1999999-0151REMSYN017 333 59015 69941;
0036829940999991996080612004-09667-035700FM-12+008999999V0200901N000519999999N0500001N1+02561+01901999999ADDAG10000GF106991999999012501999999
0096829940999991996080618004-09667-035700FM-12+008999999V0201401N00151045001CN0500001N1+02641+01851101581ADDAA106000091AG10000GF106991041011012501061011MA1999999100541MD1999999-0031REMSYN011 333 59003;
0121829940999991996080712004-09667-035700FM-12+008999999V0201401N00261045001CN0500001N1+02481+02071108811ADDAA106000591AG10000GF106991021081012501061021KA1240N+01601MA1999999100841MD1999999+0031REMSYN023 333 20160 58003 69941;
0121829940999991996080718004-09667-035700FM-12+008999999V0200501N00621045001CN0500001N1+02521+02151101652ADDAA106001091AG10000GF106991041081008001061031MA1999999100671MD1999999+0061REMSYN017 333 58006 60011;EQDQ01+101653APOSLP
0121829940999991996080812004-09667-035700FM-12+008999999V0200901N00151015001CN0100001N1+02361+02281101781ADDAA124003091AG10000GF108991051081012501061999KA1240N+01781MA1999999100741MD1999999-0101REMSYN023 333 20178 59010 60034;
0102829940999991996080818004-09667-035700FM-12+008999999V0203201N00211045001CN0100001N1+02361+02261101561ADDAA106010091AG10000GF108991041071008001021999MA1999999100521MD1999999-0081REMSYN017 333 59008 60101;
0140829940999991996080900004-09667-035700FM-12+008999999V0203201N00101045001CN9999999N9+02281+02201101711ADDAA106006091AG10000GF108991031071008001031999KA1240M+02541MA1999999100671MD1999999-0081REMSYN023 333 10254 59008 60061;EQDQ01+000002VOVAR 
0121829940999991996080912004-09667-035700FM-12+008999999V0200501N00261045001CN0100001N1+02441+02131101811ADDAA124027091AG10000GF108991041071012501021999KA1240N+01801MA1999999100771MD1999999+0031REMSYN023 333 20180 58003 60274;
0115829940999991996080918004-09667-035700FM-12+008999999V0201401N005719999999N0500001N1+02701+01961101501ADDAA106000091AG10000GF106991021021999999061041MA1999999100471MD1999999-0051REMSYN011 333 59005;EQDQ01+000992SCOLCB
0121829940999991996081012004-09667-035700FM-12+008999999V0200901N00461045001CN0200001N1+02561+02081101851ADDAA124002091AG10000GF106991031021017501061031KA1240N+01701MA1999999100821MD1999999+0051REMSYN023 333 20170 58005 60024;
0096829940999991996081018004-09667-035700FM-12+008999999V0200901N00511045001CN0200001N1+02681+01971101581ADDAA106000091AG10000GF106991021021017501031081MA1999999100541MD1999999+0071REMSYN011 333 58007;
0121829940999991996081112004-09667-035700FM-12+008999999V0201401N00151045001CN0500001N1+02521+02131101791ADDAA124000191AG10000GF106991021031012501061021KA1240N+01881MA1999999100751MD1999999-0071REMSYN023 333 20188 59007 69924;
0102829940999991996081118004-09667-035700FM-12+008999999V0200901N00311045001CN0500001N1+02721+02001101521ADDAA106000191AG10000GF107991021081012501061021MA1999999100481MD1999999-0061REMSYN017 333 59006 69911;
0121829940999991996081212004-09667-035700FM-12+008999999V0201401N00461045001CN0500001N1+02721+02101101931ADDAA124000191AG10000GF106991031021012501041031KA1240N+02161MA1999999100901MD1999999+0151REMSYN023 333 20216 58015 69924;
0115829940999991996081312004-09667-035700FM-12+008999999V0201801N00461045001CN0500001N1+02561+02191101991ADDAA106000091AG10000GF106991021031012501041021KA1240N+01661MA1999999100961MD1999999+0061REMSYN017 333 20166 58006;
0096829940999991996081318004-09667-035700FM-12+008999999V0201801N00151045001CN0500001N1+02721+02001101791ADDAA106000091AG10000GF106991041021017501061021MA1999999100751MD1999999+0091REMSYN011 333 58009;
0134829940999991996081400004-09667-035700FM-12+008999999V0201801N001019999999N9999999N9+02361+02011101941ADDAA106000091AG10000GF105991031021012501999999KA1240M+02781MA1999999100911MD1999999+0031REMSYN017 333 10278 58003;EQDQ01+000002VOVAR 
0121829940999991996081412004-09667-035700FM-12+008999999V0201401N00821045001CN0100001N1+02381+02031101961ADDAA124014091AG10000GF108991041071012501041999KA1240N+01831MA1999999100921MD1999999-0041REMSYN023 333 20183 59004 60144;
0096829940999991996081418004-09667-035700FM-12+008999999V0201401N00621045001CN0200001N1+02521+01861101641ADDAA106000091AG10000GF107991041031012501061001MA1999999100601MD1999999-0151REMSYN011 333 59015;
0121829940999991996081512004-09667-035700FM-12+008999999V0201401N00461045001CN0500001N1+02521+01731101021ADDAA124000591AG10000GF105991041011012501061001KA1240N+01061MA1999999100981MD1999999+0061REMSYN023 333 20106 58006 69954;
0096829940999991996081518004-09667-035700FM-12+008999999V0201801N00461045001CN0500001N1+02641+01841101721ADDAA106000091AG10000GF105991031041012501061001MA1999999100681MD1999999+0081REMSYN011 333 58008;
0115829940999991996081812004-09667-035700FM-12+008999999V0201401N00361045001CN0500001N1+02341+01871102061ADDAA106000091AG10000GF106991021031012501061001KA1240N+01831MA1999999101021MD1999999+0001REMSYN017 333 20183 58000;
0121829940999991996081912004-09667-035700FM-12+008999999V0201801N00621045001CN0500001N1+02561+01951101991ADDAA124015091AG10000GF106991031021008001041011KA1240N+01721MA1999999100951MD1999999-0071REMSYN023 333 20172 59007 60154;
0102829940999991996081918004-09667-035700FM-12+008999999V0201801N00671105001CN0500001N1+02661+02001101781ADDAA106002091AG10000GF106991021021012501031031MA1999999100741MD1999999-0111REMSYN017 333 59011 60021;
0121829940999991996082012004-09667-035700FM-12+008999999V0201401N00211045001CN0500001N1+02341+02011101961ADDAA124002091AG10000GF106991041011012501061001KA1240N+01861MA1999999100921MD1999999-0031REMSYN023 333 20186 59003 60024;
0102829940999991996082018004-09667-035700FM-12+008999999V0200901N00101045001CN0500001N1+02481+01781101641ADDAA106001091AG10000GF106991021021012501061001MA1999999100601MD1999999-0141REMSYN017 333 59014 69981;
0134829940999991996082100004-09667-035700FM-12+008999999V0201401N00261105001CN9999999N9+02221+01961101861ADDAA106000091AG10000GF106991021021012501061041KA1240M+02611MA1999999100821MD1999999-0061REMSYN017 333 10261 59006;EQDQ01+000002VOVAR 
0121829940999991996082112004-09667-035700FM-12+008999999V0201401N00211045001CN0500001N1+02461+01981101781ADDAA124002091AG10000GF106991021021012501041011KA1240N+01851MA1999999100741MD1999999-0181REMSYN023 333 20185 59018 60024;
0102829940999991996082118004-09667-035700FM-12+008999999V0201801N00571045001CN0500001N1+02421+02171101601ADDAA106000191AG10000GF107991021041012501061021MA1999999100561MD1999999-0041REMSYN017 333 59004 69911;
0121829940999991996082212004-09667-035700FM-12+008999999V0200901N00461045001CN0500001N1+02641+01751101911ADDAA124000191AG10000GF106991041021017501011031KA1240N+01611MA1999999100881MD1999999+0141REMSYN023 333 20161 58014 69924;
0096829940999991996082218004-09667-035700FM-12+008999999V0200901N00461045001CN0500001N1+02581+01941101691ADDAA106000091AG10000GF106991031021012501061031MA1999999100651MD1999999+0121REMSYN011 333 58012;
0134829940999991996082300004-09667-035700FM-12+008999999V0201401N00361045001CN9999999N9+02381+02131101871ADDAA106000091AG10000GF106991041061012501041999KA1240M+02741MA1999999100841MD1999999+0091REMSYN017 333 10274 58009;EQDQ01+000002VOVAR 
0121829940999991996082312004-09667-035700FM-12+008999999V0200901N00311045001CN0500001N1+02601+02061102001ADDAA124002091AG10000GF106991031021008001031041KA1240N+01621MA1999999100971MD1999999+0091REMSYN023 333 20162 58009 60024;
0102829940999991996082318004-09667-035700FM-12+008999999V0201801N00311045001CN0500001N1+02641+01981101711ADDAA106000191AG10000GF106991021031012501061011MA1999999100671MD1999999+0021REMSYN017 333 58002 69911;
0140829940999991996082400004-09667-035700FM-12+008999999V0201801N00511045001CN9999999N9+02241+02101101901ADDAA106009091AG10000GF108991031081008001061999KA1240M+02741MA1999999100861MD1999999+0021REMSYN023 333 10274 58002 60091;EQDQ01+000002VOVAR 
0121829940999991996082412004-09667-035700FM-12+008999999V0201401N00261045001CN0280001N1+02181+02061101941ADDAA124027091AG10000GF108991031081012501061001KA1240N+01721MA1999999100901MD1999999-0071REMSYN023 333 20172 59007 60274;
0102829940999991996082418004-09667-035700FM-12+008999999V0202301N00211045001CN0500001N1+02241+02121101701ADDAA106008091AG10000GF108991031081008001061999MA1999999100651MD1999999-0021REMSYN017 333 59002 60081;
0121829940999991996082512004-09667-035700FM-12+008999999V0201401N00461045001CN0100001N1+02281+02161101831ADDAA124052091AG10000GF108991031081008001061001KA1240N+01741MA1999999100791MD1999999-0161REMSYN023 333 20174 59016 60524;
0102829940999991996082518004-09667-035700FM-12+008999999V0202701N00511045001CN0100001N1+02261+02121101701ADDAA106000591AG10000GF108991041081008001061001MA1999999100651MD1999999+0001REMSYN017 333 58000 69961;
0121829940999991996082612004-09667-035700FM-12+008999999V0201401N00211045001CN0100001N1+02261+01881101781ADDAA124031091AG10000GF108991041071012501041999KA1240N+01781MA1999999100741MD1999999-0051REMSYN023 333 20178 59005 60314;
0104829940999991996082613004-09667-035700FM-12+008999999V0201401N00211045001CN0100001N1+02261+01881101781ADDAG10999GF108991041071012501041999KA1240N+01781MA1999999100741MD1999999-0051REMSYN017 333 20178 59005;
0102829940999991996082618004-09667-035700FM-12+008999999V0201401N003619999999N0100001N1+02321+02221101561ADDAA106005091AG10000GF108991999999012501999999MA1999999100521MD1999999-0131REMSYN017 333 59013 60051;
0121829940999991996082712004-09667-035700FM-12+008999999V0201401N00211045001CN0200001N1+02381+02131101821ADDAA124013091AG10000GF107991041071012501041001KA1240N+01741MA1999999090781MD1999999+0041REMSYN023 333 20174 58004 60134;
0121829940999991996082713004-09667-035700FM-12+008999999V0201401N00211045001CN0200001N1+02381+02131101821ADDAA124013091AG10999GF107991041071012501041001KA1240N+01741MA1999999090781MD1999999+0041REMSYN023 333 20174 58004 60134;
0115829940999991996082718004-09667-035700FM-12+008999999V0201401N00511045001CN0500001N1+02641+01901101561ADDAA106000091AG10000GF106991041021012501061001MA1999999100522MD1999999+0001REMSYN011 333 58000;EQDQ01+100523APOSP 
0134829940999991996082800004-09667-035700FM-12+008999999V0200501N00051045001CN9999999N9+02161+01951101721ADDAA106000091AG10000GF107991021071012501041001KA1240M+02681MA1999999100681MD1999999+0061REMSYN017 333 10268 58006;EQDQ01+000002VOVAR 
