0134830960999991996010100004-10917-037050FM-12+000699999V0200501N00211220001CN9999999N9+02641+02351101151ADDAA106000091AG10000GF101991011011012501001001KA1240M+02971MA1999999101081MD1999999-0081REMSYN017 333 10297 59008;EQDQ01+000002VOVAR 
0115830960999991996010112004-10917-037050FM-12+000699999V0200901N00311045001CN0200001N1+02841+02311101381ADDAA106000091AG10000GF106991021051012501031011KA1240N+02431MA1999999101311MD1999999-0031REMSYN017 333 20243 59003;
0096830960999991996010118004-10917-037050FM-12+000699999V0200901N00311220001CN0200001N1+02891+02371101141ADDAA106000091AG10000GF102991011051012501001011MA1999999101071MD1999999-0191REMSYN011 333 59019;
0134830960999991996010200004-10917-037050FM-12+000699999V0200901N00211220001CN9999999N9+02701+02331101111ADDAA106000091AG10000GF101991011011012501001001KA1240M+02971MA1999999101041MD1999999-0041REMSYN017 333 10297 59004;EQDQ01+000002VOVAR 
0115830960999991996010212004-10917-037050FM-12+000699999V0200901N00311220001CN0200001N1+02861+02351101381ADDAA106000091AG10000GF102991021051012501001001KA1240N+02461MA1999999101311MD1999999+0001REMSYN017 333 20246 58000;
0096830960999991996010218004-10917-037050FM-12+000699999V0200901N00311220001CN0200001N1+02841+02291101101ADDAA106000091AG10000GF101991011011012501001001MA1999999101031MD1999999-0041REMSYN011 333 59004;
0134830960999991996010300004-10917-037050FM-12+000699999V0200901N00311220001CN9999999N9+02681+02311101071ADDAA106000091AG10000GF101991011011012501001001KA1240M+02941MA1999999101001MD1999999-0041REMSYN017 333 10294 59004;EQDQ01+000002VOVAR 
0115830960999991996010312004-10917-037050FM-12+000699999V0200501N00311220001CN0200001N1+02881+02371101381ADDAA106000091AG10000GF102991021051012501001001KA1240N+02421MA1999999101311MD1999999+0001REMSYN017 333 20242 58000;
0096830960999991996010318004-10917-037050FM-12+000699999V0200901N00311220001CN0200001N1+02861+02331101121ADDAA106000091AG10000GF101991011051012501001001MA1999999101051MD1999999+0021REMSYN011 333 58002;
0134830960999991996010400004-10917-037050FM-12+000699999V0200901N00311220001CN9999999N9+02701+02351101061ADDAA106000091AG10000GF101991011011012501001001KA1240M+02961MA1999999100991MD1999999-0011REMSYN017 333 10296 59001;EQDQ01+000002VOVAR 
0096830960999991996010418004-10917-037050FM-12+000699999V0200901N00361220001CN0200001N1+02861+02231101171ADDAA106000091AG10000GF101991011051012501001001MA1999999101101MD1999999+0051REMSYN011 333 58005;
0134830960999991996010500004-10917-037050FM-12+000699999V0200901N00211220001CN9999999N9+02711+02311101161ADDAA106000091AG10000GF102991021011012501001001KA1240M+02971MA1999999101091MD1999999+0101REMSYN017 333 10297 58010;EQDQ01+000002VOVAR 
0115830960999991996010512004-10917-037050FM-12+000699999V0200901N00311220001CN0200001N1+02831+02241101271ADDAA106000091AG10000GF101991011051012501001001KA1240N+02391MA1999999101201MD1999999-0211REMSYN017 333 20239 59021;
0096830960999991996010518004-10917-037050FM-12+000699999V0200901N00311220001CN0200001N1+02871+02441101041ADDAA106000091AG10000GF102991021051012501001001MA1999999100971MD1999999-0131REMSYN011 333 59013;
0115830960999991996010612004-10917-037050FM-12+000699999V0200501N00261220001CN0200001N1+02841+02241101241ADDAA106000091AG10000GF103991011051012501031001KA1240N+02471MA1999999101171MD1999999-0031REMSYN017 333 20247 59003;
0096830960999991996010618004-10917-037050FM-12+000699999V0200901N00311220001CN0200001N1+02901+02271101071ADDAA106000091AG10000GF102991021051012501001001MA1999999101001MD1999999+0031REMSYN011 333 58003;
0115830960999991996010712004-10917-037050FM-12+000699999V0200501N00311220001CN0200001N1+02821+02331101151ADDAA106000091AG10000GF102991021051012501001001KA1240N+02451MA1999999101081MD1999999-0091REMSYN017 333 20245 59009;
0096830960999991996010718004-10917-037050FM-12+000699999V0201401N00311220001CN0200001N1+02931+02291101141ADDAA106000091AG10000GF101991011011012501001001MA1999999101071MD1999999+0071REMSYN011 333 58007;
0121830960999991996010812004-10917-037050FM-12+000699999V0201401N00311045001CN0200001N1+02821+02331101501ADDAA124000591AG10000GF106991041051012501031001KA1240N+02461MA1999999101431MD1999999+0351REMSYN023 333 20246 58035 69944;
0096830960999991996010818004-10917-037050FM-12+000699999V0201401N00211220001CN0200001N1+02911+02341101231ADDAA106000091AG10000GF101991011051012501001001MA1999999101161MD1999999+0091REMSYN011 333 58009;
0134830960999991996010900004-10917-037050FM-12+000699999V0201401N00211220001CN9999999N9+02721+02291101151ADDAA106000091AG10000GF104991041051012501001001KA1240M+03031MA1999999101081MD1999999+0001REMSYN017 333 10303 58000;EQDQ01+000002VOVAR 
0115830960999991996010912004-10917-037050FM-12+000699999V0201401N00311220001CN0200001N1+02871+02371101581ADDAA106000091AG10000GF102991021051012501001001KA1240N+02371MA1999999101511MD1999999+0081REMSYN017 333 20237 58008;
0096830960999991996010918004-10917-037050FM-12+000699999V0201401N00311220001CN0200001N1+02891+02351101271ADDAA106000091AG10000GF101991011051012501001001MA1999999101201MD1999999+0041REMSYN011 333 58004;
0134830960999991996011000004-10917-037050FM-12+000699999V0201401N00311220001CN9999999N9+02691+02351101311ADDAA106000091AG10000GF101991011051012501001001KA1240M+03011MA1999999101241MD1999999+0161REMSYN017 333 10301 58016;EQDQ01+000002VOVAR 
0115830960999991996011012004-10917-037050FM-12+000699999V0201401N00261220001CN0200001N1+02821+02291101361ADDAA106000091AG10000GF102991021051012501001001KA1240N+02441MA1999999101291MD1999999-0221REMSYN017 333 20244 59022;
0096830960999991996011018004-10917-037050FM-12+000699999V0201401N00311045001CN0200001N1+02841+02241101031ADDAA106000091AG10000GF106991031051012501031001MA1999999100961MD1999999-0241REMSYN011 333 59024;
0134830960999991996011100004-10917-037050FM-12+000699999V0201401N00211220001CN9999999N9+02701+02331101051ADDAA106000091AG10000GF104991041051012501001001KA1240M+03021MA1999999100981MD1999999-0261REMSYN017 333 10302 59026;EQDQ01+000002VOVAR 
0115830960999991996011112004-10917-037050FM-12+000699999V0201401N00311045001CN0200001N1+02841+02381101251ADDAA106000091AG10000GF106991041051012501031001KA1240N+02431MA1999999101181MD1999999-0111REMSYN017 333 20243 59011;
0102830960999991996011118004-10917-037050FM-12+000699999V0200901N00311045001CN0200001N1+02911+02221101151ADDAA106001091AG10000GF106991011051012501031001MA1999999101081MD1999999+0121REMSYN017 333 58012 69981;
0134830960999991996011200004-10917-037050FM-12+000699999V0200901N00151220001CN9999999N9+02661+02271101161ADDAA106000091AG10000GF102991021051012501001001KA1240M+02981MA1999999101091MD1999999+0111REMSYN017 333 10298 58011;EQDQ01+000002VOVAR 
0121830960999991996011212004-10917-037050FM-12+000699999V0200901N00311045001CN0200001N1+02861+02231101311ADDAA124001091AG10000GF106991021051012501031001KA1240N+02471MA1999999101241MD1999999+0061REMSYN023 333 20247 58006 69984;
0096830960999991996011218004-10917-037050FM-12+000699999V0201401N00311220001CN0200001N1+02901+02301101121ADDAA106000091AG10000GF102991021051012501001001MA1999999101051MD1999999-0031REMSYN011 333 59003;
0134830960999991996011300004-10917-037050FM-12+000699999V0201401N00261220001CN9999999N9+02661+02271101101ADDAA106000091AG10000GF102991021021012501001001KA1240M+03001MA1999999101031MD1999999-0061REMSYN017 333 10300 59006;EQDQ01+000002VOVAR 
0115830960999991996011312004-10917-037050FM-12+000699999V0201401N00311220001CN0200001N1+02881+02251101211ADDAA106000091AG10000GF102991021011012501001001KA1240N+02481MA1999999101141MD1999999-0101REMSYN017 333 20248 59010;
0096830960999991996011318004-10917-037050FM-12+000699999V0201401N00311220001CN0200001N1+02921+02291101081ADDAA106000091AG10000GF101991011051012501001001MA1999999101011MD1999999-0041REMSYN011 333 59004;
0121830960999991996011412004-10917-037050FM-12+000699999V0200501N002110120019N0200001N1+02681+02311101291ADDAA124002091AG10007GF106991061051012501001001KA1240N+02461MA1999999101221MD1999999+0081REMSYN023 333 20246 58008 60024;
0096830960999991996011418004-10917-037050FM-12+000699999V0200901N00311012001CN0200001N1+02811+02311101111ADDAA106000091AG10000GF107991071051012501001001MA1999999101041MD1999999+0031REMSYN011 333 58003;
0134830960999991996011500004-10917-037050FM-12+000699999V0200901N00211012001CN9999999N9+02621+02121101081ADDAA106000091AG10000GF106991061051012501001001KA1240M+02881MA1999999101011MD1999999-0031REMSYN017 333 10288 59003;EQDQ01+000002VOVAR 
0121830960999991996011512004-10917-037050FM-12+000699999V0201401N00261045001CN0200001N1+02781+02301101161ADDAA124004091AG10000GF106991021051012501031011KA1240N+02481MA1999999101091MD1999999-0131REMSYN023 333 20248 59013 60044;
0096830960999991996011518004-10917-037050FM-12+000699999V0200901N00261045001CN0200001N1+02801+02201100931ADDAA106000091AG10000GF106991031051012501031001MA1999999100861MD1999999-0181REMSYN011 333 59018;
0134830960999991996011600004-10917-037050FM-12+000699999V0201401N00211220001CN9999999N9+02661+02331101171ADDAA106000091AG10000GF101991011011012501001001KA1240M+02951MA1999999101101MD1999999-0091REMSYN017 333 10295 59009;EQDQ01+000002VOVAR 
0121830960999991996011612004-10917-037050FM-12+000699999V0201401N00311045001CN0200001N1+02791+02181101101ADDAA124000191AG10000GF107991021051012501031011KA1240N+02501MA1999999100931MD1999999-0161REMSYN023 333 20250 59016 69924;
0124830960999991996011618004-10917-037050FM-12+000699999V0201401N00211007501CN0200001N1+02611+02291100831ADDAA106005091AG10007AY161061AY261061GF108991081051008001999999MA1999999100761MD1999999-0101MW1601REMSYN017 333 59010 60051;
0134830960999991996011700004-10917-037050FM-12+000699999V0200901N00101220001CN9999999N9+02611+02231100901ADDAA106000091AG10000GF101991011011012501001001KA1240M+02891MA1999999100831MD1999999-0271REMSYN017 333 10289 59027;EQDQ01+000002VOVAR 
0143830960999991996011712004-10917-037050FM-12+000699999V0200501N00211007501CN0100001N1+02661+02311101141ADDAA124005091AG10007AY161061AY261061GF108991081071008001999999KA1240N+02421MA1999999101071MD1999999+0141MW1601REMSYN023 333 20242 58014 60054;
0102830960999991996011718004-10917-037050FM-12+000699999V0200501N002110075019N0100001N1+02641+02291100841ADDAA106000191AG10000GF108991081071008001999999MA1999999100771MD1999999+0011REMSYN017 333 58001 69911;
0096830960999991996011818004-10917-037050FM-12+000699999V0201401N00311220001CN0200001N1+02861+02281100771ADDAA106000091AG10000GF101991011011012501001001MA1999999100701MD1999999-0071REMSYN011 333 59007;
0134830960999991996011900004-10917-037050FM-12+000699999V0201401N00211220001CN9999999N9+02671+02251100951ADDAA106000091AG10000GF101991011011012501001001KA1240M+03021MA1999999100881MD1999999+0021REMSYN017 333 10302 58002;EQDQ01+000002VOVAR 
0115830960999991996011912004-10917-037050FM-12+000699999V0200501N00311045001CN0200001N1+02811+02291100971ADDAA106000091AG10000GF105991031051012501031001KA1240N+02311MA1999999100901MD1999999-0101REMSYN017 333 20231 59010;
0096830960999991996011918004-10917-037050FM-12+000699999V0200901N00311220001CN0200001N1+02921+02361100831ADDAA106000091AG10000GF102991011051012501031001MA1999999100761MD1999999+0061REMSYN011 333 58006;
0134830960999991996012000004-10917-037050FM-12+000699999V0200901N00311012001CN9999999N9+02731+02391100871ADDAA106000091AG10000GF106991061051012501001001KA1240M+03061MA1999999100801MD1999999-0081REMSYN017 333 10306 59008;EQDQ01+000002VOVAR 
0121830960999991996012012004-10917-037050FM-12+000699999V0200501N002110120019N0200001N1+02781+02341101131ADDAA124002091AG10007GF106991061051012501001001KA1240N+02471MA1999999101061MD1999999+0161REMSYN023 333 20247 58016 60024;
0102830960999991996012018004-10917-037050FM-12+000699999V0200501N00311220001CN0200001N1+02861+02261100851ADDAA106001091AG10000GF101991011011012501001001MA1999999100781MD1999999+0021REMSYN017 333 58002 60011;
0143830960999991996012112004-10917-037050FM-12+000699999V0200501N00211007501CN0100001N1+02611+02351101181ADDAA124006091AG10007AY161061AY261061GF108991081051008001999999KA1240N+02411MA1999999101111MD1999999+0051MW1601REMSYN023 333 20241 58005 60064;
0102830960999991996012118004-10917-037050FM-12+000699999V0200901N00311012001CN0200001N1+02701+02221100891ADDAA106001091AG10000GF105991051051012501001001MA1999999100821MD1999999+0041REMSYN017 333 58004 69971;
0121830960999991996012212004-10917-037050FM-12+000699999V0200501N00311220001CN0200001N1+02811+02221101041ADDAA124001091AG10000GF102991021051012501001001KA1240N+02401MA1999999100971MD1999999-0141REMSYN023 333 20240 59014 69984;
0096830960999991996012218004-10917-037050FM-12+000699999V0200901N00311220001CN0200001N1+02841+02241100931ADDAA106000091AG10000GF101991011051012501001001MA1999999100861MD1999999+0041REMSYN011 333 58004;
0134830960999991996012300004-10917-037050FM-12+000699999V0200901N00311220001CN9999999N9+02681+02181100841ADDAA106000091AG10000GF102991021051012501001001KA1240M+02961MA1999999100771MD1999999-0161REMSYN017 333 10296 59016;EQDQ01+000002VOVAR 
0115830960999991996012312004-10917-037050FM-12+000699999V0200501N00261220001CN0200001N1+02761+02301101111ADDAA106000091AG10000GF102991021051012501001001KA1240N+02401MA1999999101041MD1999999+0071REMSYN017 333 20240 58007;
0096830960999991996012318004-10917-037050FM-12+000699999V0201401N00311220001CN0200001N1+02951+02271100931ADDAA106000091AG10000GF101991011051012501001001MA1999999100861MD1999999+0001REMSYN011 333 58000;
0134830960999991996012400004-10917-037050FM-12+000699999V0200901N00211220001CN9999999N9+02711+02301101041ADDAA106000091AG10000GF101991011011012501001001KA1240M+03021MA1999999100971MD1999999+0201REMSYN017 333 10302 58020;EQDQ01+000002VOVAR 
0096830960999991996012418004-10917-037050FM-12+000699999V0200901N00311220001CN0200001N1+02931+02291101121ADDAA106000091AG10000GF101991011011012501001001MA1999999101051MD1999999+0191REMSYN011 333 58019;
0134830960999991996012500004-10917-037050FM-12+000699999V0200901N00311220001CN9999999N9+02661+02291101011ADDAA106000091AG10000GF101991011011012501001001KA1240M+03051MA1999999100941MD1999999-0031REMSYN017 333 10305 59003;EQDQ01+000002VOVAR 
0115830960999991996012512004-10917-037050FM-12+000699999V0200501N00311220001CN0200001N1+02881+02211101401ADDAA106000091AG10000GF101991011011012501001001KA1240N+02501MA1999999101331MD1999999+0111REMSYN017 333 20250 58011;
0096830960999991996012518004-10917-037050FM-12+000699999V0200901N00311220001CN0200001N1+02921+02171101231ADDAA106000091AG10000GF101991011051012501001001MA1999999101161MD1999999+0111REMSYN011 333 58011;
0134830960999991996012600004-10917-037050FM-12+000699999V0200901N00211220001CN9999999N9+02681+02261101091ADDAA106000091AG10000GF101991011011012501001001KA1240M+03041MA1999999101021MD1999999+0081REMSYN017 333 10304 58008;EQDQ01+000002VOVAR 
0115830960999991996012612004-10917-037050FM-12+000699999V0200501N00211012001CN0200001N1+02701+02131101191ADDAA106000091AG10000GF107991071051012501001001KA1240N+02451MA1999999101121MD1999999-0211REMSYN017 333 20245 59021;
0096830960999991996012618004-10917-037050FM-12+000699999V0200901N00311220001CN0200001N1+02841+02201101151ADDAA106000091AG10000GF101991011051012501001001MA1999999101081MD1999999-0121REMSYN011 333 59012;
0134830960999991996012700004-10917-037050FM-12+000699999V0200901N00211220001CN9999999N9+02701+02201101071ADDAA106000091AG10000GF101991011011012501001001KA1240M+02921MA1999999101001MD1999999-0021REMSYN017 333 10292 59002;EQDQ01+000002VOVAR 
0115830960999991996012712004-10917-037050FM-12+000699999V0201401N00311220001CN0200001N1+02901+02201101061ADDAA106000091AG10000GF101991011051012501001001KA1240N+02501MA1999999100991MD1999999-0131REMSYN017 333 20250 59013;
0102830960999991996012718004-10917-037050FM-12+000699999V0201401N003110120019N0200001N1+02921+02391100861ADDAA106003091AG10007GF106991061051012501001001MA1999999100791MD1999999-0331REMSYN017 333 59033 60031;
0121830960999991996012812004-10917-037050FM-12+000699999V0200901N00311220001CN0200001N1+02931+02341101051ADDAA124005091AG10000GF102991021051012501001001KA1240N+02501MA1999999100981MD1999999-0011REMSYN023 333 20250 59001 60054;
0134830960999991996012900004-10917-037050FM-12+000699999V0201401N00211220001CN9999999N9+02651+02251100971ADDAA106000091AG10000GF101991011011012501001001KA1240M+03061MA1999999100901MD1999999+0021REMSYN017 333 10306 58002;EQDQ01+000002VOVAR 
0121830960999991996012912004-10917-037050FM-12+000699999V0200901N00311220001CN0200001N1+02891+02301101201ADDAA124000391AG10000GF101991011051012501001001KA1240N+02481MA1999999101131MD1999999+0151REMSYN023 333 20248 58015 69934;
0096830960999991996012918004-10917-037050FM-12+000699999V0200901N00311012001CN0200001N1+02931+02341100941ADDAA106000091AG10000GF106991061051012501001001MA1999999100871MD1999999+0091REMSYN011 333 58009;
0134830960999991996013000004-10917-037050FM-12+000699999V0200901N00261220001CN9999999N9+02701+02321100991ADDAA106000091AG10000GF101991011011012501001001KA1240M+03061MA1999999100921MD1999999+0021REMSYN017 333 10306 58002;EQDQ01+000002VOVAR 
0121830960999991996013012004-10917-037050FM-12+000699999V0200901N00311220001CN0200001N1+02931+02361101251ADDAA124000191AG10000GF102991021051012501001001KA1240N+02491MA1999999101181MD1999999+0051REMSYN023 333 20249 58005 69924;
0096830960999991996013018004-10917-037050FM-12+000699999V0200901N00311220001CN0200001N1+02961+02351100961ADDAA106000091AG10000GF102991021051008001001001MA1999999100891MD1999999+0021REMSYN011 333 58002;
0134830960999991996013100004-10917-037050FM-12+000699999V0200901N00261220001CN9999999N9+02711+02261101131ADDAA106000091AG10000GF101991011011012501001001KA1240M+03081MA1999999101061MD1999999+0141REMSYN017 333 10308 58014;EQDQ01+000002VOVAR 
0115830960999991996013112004-10917-037050FM-12+000699999V0200901N00311220001CN0200001N1+02941+02261101161ADDAA106000091AG10000GF102991021051012501001001KA1240N+02611MA1999999101091MD1999999-0091REMSYN017 333 20261 59009;
0096830960999991996013118004-10917-037050FM-12+000699999V0201401N00311220001CN0200001N1+02931+02291100891ADDAA106000091AG10000GF101991011051012501001001MA1999999100821MD1999999-0071REMSYN011 333 59007;
0115830960999991996020112004-10917-037050FM-12+000699999V0200501N00311220001CN0200001N1+02921+02221101191ADDAA106000091AG10000GF104991041051012501001001KA1240N+02441MA1999999101121MD1999999+0031REMSYN017 333 20244 58003;
0134830960999991996020200004-10917-037050FM-12+000699999V0200901N00311220001CN9999999N9+02681+02231101081ADDAA106000091AG10000GF101991011011012501001001KA1240M+03041MA1999999101011MD1999999-0021REMSYN017 333 10304 59002;EQDQ01+000002VOVAR 
0115830960999991996020212004-10917-037050FM-12+000699999V0200901N00311220001CN0200001N1+02961+02211101191ADDAA106000091AG10000GF102991021021012501001001KA1240N+02481MA1999999101121MD1999999+0001REMSYN017 333 20248 58000;
0096830960999991996020218004-10917-037050FM-12+000699999V0200901N00311220001CN0200001N1+02961+02331100921ADDAA106000091AG10000GF101991011051012501001001MA1999999100851MD1999999-0031REMSYN011 333 59003;
0134830960999991996020300004-10917-037050FM-12+000699999V0200901N02781220001CN9999999N9+02711+02281101051ADDAA106000091AG10000GF101991011011012501001001KA1240M+03081MA1999999100981MD1999999-0031REMSYN017 333 10308 59003;EQDQ01+000002VOVAR 
0115830960999991996020312004-10917-037050FM-12+000699999V0200901N00311220001CN0200001N1+02921+02291101151ADDAA106000091AG10000GF101991011051012501001001KA1240N+02501MA1999999101081MD1999999-0041REMSYN017 333 20250 59004;
0115830960999991996020318004-10917-037050FM-12+000699999V0201401N00311220001CN0200001N1+02931+02321100951ADDAA106000091AG10000GF101991011011012501001001MA1999999100881MD1999999+0031REMSYN011 333 58003;EQDQ01+999990APOSP 
0134830960999991996020400004-10917-037050FM-12+000699999V0201401N00211220001CN9999999N9+02741+02361100991ADDAA106000091AG10000GF102991021011012501001001KA1240M+03071MA1999999100921MD1999999-0061REMSYN017 333 10307 59006;EQDQ01+000002VOVAR 
0115830960999991996020412004-10917-037050FM-12+000699999V0200501N00311220001CN0200001N1+02961+02261101141ADDAA106000091AG10000GF101991011051012501001001KA1240N+02491MA1999999101071MD1999999-0011REMSYN017 333 20249 59001;
0134830960999991996020500004-10917-037050FM-12+000699999V0200901N00311220001CN9999999N9+02731+02281100851ADDAA106000091AG10000GF101991011011012501001001KA1240M+03071MA1999999100781MD1999999-0141REMSYN017 333 10307 59014;EQDQ01+000002VOVAR 
0115830960999991996020512004-10917-037050FM-12+000699999V0200501N00311220001CN0200001N1+02841+02261101131ADDAA106000091AG10000GF101991011011012501001001KA1240N+02471MA1999999101061MD1999999-0011REMSYN017 333 20247 59001;
0096830960999991996020518004-10917-037050FM-12+000699999V0200901N00311220001CN0200001N1+02931+02291100961ADDAA106000091AG10000GF101991011051012501001001MA1999999100891MD1999999-0011REMSYN011 333 59001;
0134830960999991996020600004-10917-037050FM-12+000699999V0200901N00211220001CN9999999N9+02711+02281100881ADDAA106000091AG10000GF101991011011012501001001KA1240M+03051MA1999999100811MD1999999+0031REMSYN017 333 10305 58003;EQDQ01+000002VOVAR 
0115830960999991996020612004-10917-037050FM-12+000699999V0201401N00311220001CN0200001N1+02911+02201101191ADDAA106000091AG10000GF101991011051012501001001KA1240N+02461MA1999999101121MD1999999+0061REMSYN017 333 20246 58006;
0096830960999991996020618004-10917-037050FM-12+000699999V0200901N00311220001CN0200001N1+02941+02301100981ADDAA106000091AG10000GF101991011051012501001001MA1999999100911MD1999999+0021REMSYN011 333 58002;
0115830960999991996020712004-10917-037050FM-12+000699999V0200501N00261220001CN0200001N1+02861+02161101371ADDAA106000091AG10000GF101991011051012501001001KA1240N+02411MA1999999101301MD1999999+0181REMSYN017 333 20241 58018;
0096830960999991996020718004-10917-037050FM-12+000699999V0201401N00311220001CN0200001N1+02921+02301101041ADDAA106000091AG10000GF101991011051012501001001MA1999999100971MD1999999+0061REMSYN011 333 58006;
0102830960999991996020818004-10917-037050FM-12+000699999V0201401N00311220001CN0200001N1+02951+02381101111ADDAA106005091AG10000GF101991011051012501001001MA1999999101041MD1999999+0071REMSYN017 333 58007 60051;
0134830960999991996020900004-10917-037050FM-12+000699999V0201401N00311220001CN9999999N9+02681+02261101171ADDAA106000091AG10000GF101991011011012501001001KA1240M+03061MA1999999101101MD1999999-0111REMSYN017 333 10306 59011;EQDQ01+000002VOVAR 
0121830960999991996020912004-10917-037050FM-12+000699999V0200901N00311220001CN0200001N1+02921+02221101261ADDAA124005091AG10000GF101991011051012501001001KA1240N+02481MA1999999101191MD1999999-0141REMSYN023 333 20248 59014 60054;
0096830960999991996020918004-10917-037050FM-12+000699999V0201401N00311220001CN0200001N1+02971+02181101061ADDAA106000091AG10000GF101991011051012501001001MA1999999100991MD1999999-0051REMSYN011 333 59005;
0134830960999991996021000004-10917-037050FM-12+000699999V0201401N00211220001CN9999999N9+02701+02171101071ADDAA106000091AG10000GF102991021011012501001001KA1240M+03081MA1999999101001MD1999999-0101REMSYN017 333 10308 59010;EQDQ01+000002VOVAR 
0115830960999991996021012004-10917-037050FM-12+000699999V0200901N00311220001CN0200001N1+02911+02201101281ADDAA106000091AG10000GF101991011051012501001001KA1240N+02501MA1999999101211MD1999999+0021REMSYN017 333 20250 58002;
0096830960999991996021018004-10917-037050FM-12+000699999V0201401N00311220001CN0200001N1+02961+02181100981ADDAA106000091AG10000GF102991011011012501001011MA1999999100911MD1999999-0091REMSYN011 333 59009;
0115830960999991996021112004-10917-037050FM-12+000699999V0200901N00311220001CN0200001N1+02941+02261101401ADDAA106000091AG10000GF102991021051012501001001KA1240N+02471MA1999999101331MD1999999+0121REMSYN017 333 20247 58012;
0096830960999991996021118004-10917-037050FM-12+000699999V0200901N00311220001CN0200001N1+02991+02281100891ADDAA106000091AG10000GF101991011051012501001001MA1999999100821MD1999999-0091REMSYN011 333 59009;
0134830960999991996021200004-10917-037050FM-12+000699999V0200901N00211220001CN9999999N9+02771+02321101071ADDAA106000091AG10000GF101991011011012501001001KA1240M+03081MA1999999101001MD1999999+0031REMSYN017 333 10308 58003;EQDQ01+000002VOVAR 
0115830960999991996021212004-10917-037050FM-12+000699999V0200501N00311220001CN0200001N1+02961+02311101371ADDAA106000091AG10000GF103991011051012501031011KA1240N+02471MA1999999101301MD1999999-0031REMSYN017 333 20247 59003;
0096830960999991996021218004-10917-037050FM-12+000699999V0200901N00311045001CN0200001N1+02951+02361101131ADDAA106000091AG10000GF106991021051012501031011MA1999999101061MD1999999+0241REMSYN011 333 58024;
0134830960999991996021300004-10917-037050FM-12+000699999V0200901N00211220001CN9999999N9+02721+02371101111ADDAA106000091AG10000GF104991041051012501001001KA1240M+03081MA1999999101041MD1999999-0041REMSYN017 333 10308 59004;EQDQ01+000002VOVAR 
0121830960999991996021312004-10917-037050FM-12+000699999V0200501N00311045001CN0200001N1+02841+02311101301ADDAA124001091AG10000GF106991041051012501031001KA1240N+02441MA1999999101231MD1999999-0071REMSYN023 333 20244 59007 69974;
0096830960999991996021318004-10917-037050FM-12+000699999V0200901N00311220001CN0200001N1+02931+02301101091ADDAA106000091AG10000GF104991041051012501001001MA1999999101021MD1999999-0041REMSYN011 333 59004;
0134830960999991996021400004-10917-037050FM-12+000699999V0200901N00261220001CN9999999N9+02721+02301101121ADDAA106000091AG10000GF102991021051012501001001KA1240M+03031MA1999999101051MD1999999+0011REMSYN017 333 10303 58001;EQDQ01+000002VOVAR 
0115830960999991996021412004-10917-037050FM-12+000699999V0201401N00311045001CN0200001N1+02841+02221101271ADDAA106000091AG10000GF106991041051012501031001KA1240N+02441MA1999999101201MD1999999-0031REMSYN017 333 20244 59003;
0096830960999991996021418004-10917-037050FM-12+000699999V0200501N00311012001CN0200001N1+02831+02221101081ADDAA106000091AG10000GF107991071051012501001001MA1999999101011MD1999999-0011REMSYN011 333 59001;
0134830960999991996021500004-10917-037050FM-12+000699999V0200901N00211220001CN9999999N9+02701+02331101171ADDAA106000091AG10000GF104991041051012501001001KA1240M+02961MA1999999101101MD1999999+0051REMSYN017 333 10296 58005;EQDQ01+000002VOVAR 
0115830960999991996021512004-10917-037050FM-12+000699999V0201401N00311045001CN0200001N1+02941+02211101371ADDAA106000091AG10000GF105991021051012501031001KA1240N+02311MA1999999101301MD1999999+0101REMSYN017 333 20231 58010;
0096830960999991996021518004-10917-037050FM-12+000699999V0201401N00311220001CN0200001N1+02991+02331101131ADDAA106000091AG10000GF101991011051012501001001MA1999999101061MD1999999+0051REMSYN011 333 58005;
0134830960999991996021600004-10917-037050FM-12+000699999V0201401N00311220001CN9999999N9+02721+02301101111ADDAA106000091AG10000GF104991041051012501001001KA1240M+02991MA1999999101041MD1999999-0061REMSYN017 333 10299 59006;EQDQ01+000002VOVAR 
0115830960999991996021612004-10917-037050FM-12+000699999V0201401N00311045001CN0200001N1+02841+02311101361ADDAA106000091AG10000GF106991041051012501031001KA1240N+02471MA1999999101291MD1999999-0011REMSYN017 333 20247 59001;
0134830960999991996021700004-10917-037050FM-12+000699999V0201401N00211220001CN9999999N9+02731+02351101161ADDAA106000091AG10000GF102991021011012501001001KA1240M+03081MA1999999101091MD1999999+0051REMSYN017 333 10308 58005;EQDQ01+000002VOVAR 
0121830960999991996021712004-10917-037050FM-12+000699999V0200901N00311220001CN0200001N1+02951+02311101131ADDAA124004091AG10000GF101991011051012501001001KA1240N+02441MA1999999101061MD1999999-0231REMSYN023 333 20244 59023 60044;
0096830960999991996021718004-10917-037050FM-12+000699999V0201401N00311220001CN0200001N1+02971+02341101081ADDAA106000091AG10000GF102991021051012501001001MA1999999101011MD1999999-0061REMSYN011 333 59006;
0134830960999991996021800004-10917-037050FM-12+000699999V0201401N00211220001CN9999999N9+02761+02341101021ADDAA106000091AG10000GF102991021011012501001001KA1240M+03051MA1999999100951MD1999999-0141REMSYN017 333 10305 59014;EQDQ01+000002VOVAR 
0134830960999991996021812004-10917-037050FM-12+000699999V0200501N00311012001CN0200001N1+02311+02311101091ADDAA106000091AG10000GF106991061051012501001001KA1240N+99999MA1999999101021MD1999999-0041REMSYN017 333 20248 59004;EQDQ01 +02482ATMN  
0134830960999991996021900004-10917-037050FM-12+000699999V0200901N00211220001CN9999999N9+02771+02321101061ADDAA106000091AG10000GF104991041051012501001001KA1240M+03141MA1999999100991MD1999999+0041REMSYN017 333 10314 58004;EQDQ01+000002VOVAR 
0121830960999991996021912004-10917-037050FM-12+000699999V0200901N00311220001CN0200001N1+02921+02291101191ADDAA124003091AG10000GF102991021051012501001001KA1240N+02461MA1999999101121MD1999999+0101REMSYN023 333 20246 58010 60034;
0096830960999991996021918004-10917-037050FM-12+000699999V0200901N00311220001CN0200001N1+02971+02321101031ADDAA106000091AG10000GF101991011051012501001001MA1999999100961MD1999999+0051REMSYN011 333 58005;
0134830960999991996022000004-10917-037050FM-12+000699999V0200901N00261220001CN9999999N9+02751+02321100971ADDAA106000091AG10000GF104991041011012501001001KA1240M+03111MA1999999100901MD1999999-0091REMSYN017 333 10311 59009;EQDQ01+000002VOVAR 
0121830960999991996022012004-10917-037050FM-12+000699999V0200501N00211045001CN0200001N1+02851+02381101231ADDAA124002091AG10000GF106991041051012501031001KA1240N+02441MA1999999101161MD1999999+0041REMSYN023 333 20244 58004 60024;
0096830960999991996022018004-10917-037050FM-12+000699999V0200901N00311220001CN0200001N1+02991+02351101011ADDAA106000091AG10000GF101991011051012501001001MA1999999100941MD1999999-0021REMSYN011 333 59002;
0134830960999991996022100004-10917-037050FM-12+000699999V0200901N00211220001CN9999999N9+02771+02361100971ADDAA106000091AG10000GF101991011011012501001001KA1240M+03041MA1999999100901MD1999999+0001REMSYN017 333 10304 58000;EQDQ01+000002VOVAR 
0115830960999991996022112004-10917-037050FM-12+000699999V0200501N00311220001CN0200001N1+02961+02331101061ADDAA106000091AG10000GF103991021051012501001011KA1240N+02491MA1999999100991MD1999999-0171REMSYN017 333 20249 59017;
0096830960999991996022118004-10917-037050FM-12+000699999V0200901N00311220001CN0200001N1+02981+02351100971ADDAA106000091AG10000GF101991011051012501001001MA1999999100901MD1999999-0041REMSYN011 333 59004;
0115830960999991996022212004-10917-037050FM-12+000699999V0200901N00311220001CN0200001N1+03001+02321101201ADDAA106000091AG10000GF101991011051012501001001KA1240N+02511MA1999999101131MD1999999+0141REMSYN017 333 20251 58014;
0096830960999991996022218004-10917-037050FM-12+000699999V0200901N00311220001CN0200001N1+02981+02361100931ADDAA106000091AG10000GF101991011011012501001001MA1999999100861MD1999999-0041REMSYN011 333 59004;
0115830960999991996022312004-10917-037050FM-12+000699999V0200901N00311220001CN0200001N1+03021+02461101251ADDAA106000091AG10000GF102991021051012501001001KA1240N+02501MA1999999101181MD1999999+0051REMSYN017 333 20250 58005;
0096830960999991996022318004-10917-037050FM-12+000699999V0201401N00311220001CN0200001N1+03051+02411101051ADDAA106000091AG10000GF101991011011012501001001MA1999999100981MD1999999+0121REMSYN011 333 58012;
0134830960999991996022400004-10917-037050FM-12+000699999V0200901N00211220001CN9999999N9+02761+02381101121ADDAA106000091AG10000GF102991021011012501001001KA1240M+03141MA1999999101051MD1999999+0101REMSYN017 333 10314 58010;EQDQ01+000002VOVAR 
0134830960999991996022412004-10917-037050FM-12+000699999V0200901N00211220001CN9999999N9+02761+02381101121ADDAA106000091AG10000GF102991021011012501001001KA1240M+03141MA1999999101051MD1999999+0101REMSYN017 333 10314 58010;EQDQ01+000002VOVAR 
0096830960999991996022418004-10917-037050FM-12+000699999V0200901N00311220001CN0200001N1+03011+02291101121ADDAA106000091AG10000GF101991011011012501001001MA1999999101051MD1999999+0071REMSYN011 333 58007;
0134830960999991996022500004-10917-037050FM-12+000699999V0200901N00311220001CN9999999N9+02751+02281101131ADDAA106000091AG10000GF102991021011012501001001KA1240M+03161MA1999999101061MD1999999+0011REMSYN017 333 10316 58001;EQDQ01+000002VOVAR 
0115830960999991996022512004-10917-037050FM-12+000699999V0200901N00311220001CN0200001N1+02941+02261101301ADDAA106000091AG10000GF101991011051012501001001KA1240N+02481MA1999999101231MD1999999-0051REMSYN017 333 20248 59005;
0096830960999991996022518004-10917-037050FM-12+000699999V0200901N00311220001CN0200001N1+02981+02351101141ADDAA106000091AG10000GF101991011011012501001001MA1999999101071MD1999999-0021REMSYN011 333 59002;
0134830960999991996022600004-10917-037050FM-12+000699999V0200901N00211220001CN9999999N9+02791+02301101091ADDAA106000091AG10000GF101991011011012501001001KA1240M+03111MA1999999101021MD1999999-0041REMSYN017 333 10311 59004;EQDQ01+000002VOVAR 
0115830960999991996022612004-10917-037050FM-12+000699999V0200901N00311045001CN0200001N1+02981+02201101301ADDAA106000091AG10000GF106991041051012501031001KA1240N+02471MA1999999101231MD1999999+0001REMSYN017 333 20247 58000;
0096830960999991996022618004-10917-037050FM-12+000699999V0200901N00311220001CN0200001N1+03011+99999101091ADDAA106000091AG10000GF101991011011012501001001MA1999999101021MD1999999-0051REMSYN011 333 59005;
0134830960999991996022700004-10917-037050FM-12+000699999V0200901N00211220001CN9999999N9+02801+02341101131ADDAA106000091AG10000GF101991011011012501001001KA1240M+03181MA1999999101061MD1999999+0041REMSYN017 333 10318 58004;EQDQ01+000002VOVAR 
0115830960999991996022712004-10917-037050FM-12+000699999V0200901N00311220001CN0200001N1+02981+02331101331ADDAA106000091AG10000GF101991011051012501001001KA1240N+02451MA1999999101261MD1999999+0031REMSYN017 333 20245 58003;
0096830960999991996022718004-10917-037050FM-12+000699999V0200901N00311220001CN0200001N1+02991+02271101071ADDAA106000091AG10000GF102991021011012501001001MA1999999101001MD1999999-0021REMSYN011 333 59002;
0134830960999991996022800004-10917-037050FM-12+000699999V0200901N00211220001CN9999999N9+02781+02401101141ADDAA106000091AG10000GF101991011011012501001001KA1240M+03161MA1999999101071MD1999999+0011REMSYN017 333 10316 58001;EQDQ01+000002VOVAR 
0115830960999991996022812004-10917-037050FM-12+000699999V0201401N00311220001CN0200001N1+02961+02351101151ADDAA106000091AG10000GF102991021051012501001001KA1240N+02481MA1999999101081MD1999999-0181REMSYN017 333 20248 59018;
0134830960999991996022900004-10917-037050FM-12+000699999V0201401N00311220001CN9999999N9+02781+02401101051ADDAA106000091AG10000GF104991041051012501001001KA1240M+03191MA1999999100981MD1999999-0091REMSYN017 333 10319 59009;EQDQ01+000002VOVAR 
0115830960999991996022912004-10917-037050FM-12+000699999V0200901N00311012001CN0200001N1+02901+02371101121ADDAA106000091AG10000GF107991071051012501001001KA1240N+02441MA1999999101051MD1999999-0031REMSYN017 333 20244 59003;
0096830960999991996022918004-10917-037050FM-12+000699999V0200901N00311220001CN0200001N1+02961+02371101071ADDAA106000091AG10000GF104991041051012501001001MA1999999101001MD1999999-0021REMSYN011 333 59002;
0134830960999991996030100004-10917-037050FM-12+000699999V0200901N00311012001CN9999999N9+02771+02381101061ADDAA106000091AG10000GF106991061051012501001001KA1240M+03201MA1999999100991MD1999999+0011REMSYN017 333 10320 58001;EQDQ01+000002VOVAR 
0121830960999991996030112004-10917-037050FM-12+000699999V0200501N002110120019N0200001N1+02701+02501101141ADDAA124005091AG10006GF107991071051012501001001KA1240N+02411MA1999999101071MD1999999+0021REMSYN023 333 20241 58002 60054;
0096830960999991996030118004-10917-037050FM-12+000699999V0200901N00311045001CN0200001N1+02971+02401100901ADDAA106000091AG10000GF107991021051012501031011MA1999999100831MD1999999-0171REMSYN011 333 59017;
0134830960999991996030200004-10917-037050FM-12+000699999V0200901N00311012001CN9999999N9+02771+02401101021ADDAA106000091AG10000GF106991061051012501001001KA1240M+03081MA1999999100951MD1999999-0041REMSYN017 333 10308 59004;EQDQ01+000002VOVAR 
0143830960999991996030212004-10917-037050FM-12+000699999V0200901N00261007501CN0100001N1+02681+02391101221ADDAA124006091AG10006AY161061AY261061GF108991081051008001999999KA1240N+02391MA1999999101151MD1999999+0081MW1601REMSYN023 333 20239 58008 60064;
0096830960999991996030218004-10917-037050FM-12+000699999V0201401N00311012001CN0200001N1+02941+02361101041ADDAA106000091AG10000GF106991061051012501001001MA1999999100971MD1999999+0141REMSYN011 333 58014;
0121830960999991996030312004-10917-037050FM-12+000699999V0200501N00311220001CN0200001N1+02881+02411101171ADDAA124001091AG10000GF104991041051012501001001KA1240N+02441MA1999999101101MD1999999-0051REMSYN023 333 20244 59005 60014;
0096830960999991996030318004-10917-037050FM-12+000699999V0200901N00211012001CN0200001N1+02911+02321100931ADDAA106000091AG10000GF107991071051012501001001MA1999999100861MD1999999-0111REMSYN011 333 59011;
0134830960999991996030400004-10917-037050FM-12+000699999V0200901N00311220001CN9999999N9+02771+02301100971ADDAA106000091AG10000GF104991041051012501001001KA1240M+03111MA1999999100901MD1999999-0121REMSYN017 333 10311 59012;EQDQ01+000002VOVAR 
0134830960999991996030500004-10917-037050FM-12+000699999V0201401N00211220001CN9999999N9+02781+02311100911ADDAA106000091AG10000GF103991031051012501001001KA1240M+03101MA1999999100841MD1999999-0061REMSYN017 333 10310 59006;EQDQ01+000002VOVAR 
0121830960999991996030512004-10917-037050FM-12+000699999V0200501N00311220001CN0200001N1+02951+02381101141ADDAA124001091AG10000GF101991011051012501001001KA1240N+02461MA1999999101071MD1999999+0041REMSYN023 333 20246 58004 69974;
0134830960999991996030600004-10917-037050FM-12+000699999V0201401N00211220001CN9999999N9+02801+02381100961ADDAA106000091AG10000GF101991011011012501001001KA1240M+03121MA1999999100891MD1999999+0051REMSYN017 333 10312 58005;EQDQ01+000002VOVAR 
0121830960999991996030612004-10917-037050FM-12+000699999V0200501N00311045001CN0200001N1+02991+02371101331ADDAA124000191AG10000GF106991041051012501031001KA1240N+02381MA1999999101261MD1999999+0191REMSYN023 333 20238 58019 69924;
0096830960999991996030618004-10917-037050FM-12+000699999V0200901N00311220001CN0200001N1+03001+02431101071ADDAA106000091AG10000GF104991041051012501001001MA1999999101001MD1999999+0281REMSYN011 333 58028;
0134830960999991996030700004-10917-037050FM-12+000699999V0200901N00311220001CN9999999N9+02821+02401101061ADDAA106000091AG10000GF102991021051012501001001KA1240M+03161MA1999999100991MD1999999+0101REMSYN017 333 10316 58010;EQDQ01+000002VOVAR 
0121830960999991996030712004-10917-037050FM-12+000699999V0200501N00101220001CN0200001N1+02921+02391101181ADDAA124000191AG10000GF103991031051012501001001KA1240N+02501MA1999999101111MD1999999-0151REMSYN023 333 20250 59015 69924;
0096830960999991996030718004-10917-037050FM-12+000699999V0200901N00101220001CN0200001N1+02901+02401101051ADDAA106000091AG10000GF101991011011012501001001MA1999999100981MD1999999-0021REMSYN011 333 59002;
0134830960999991996030800004-10917-037050FM-12+000699999V0200901N00101220001CN9999999N9+02801+02381101071ADDAA106000091AG10000GF101991011051012501001001KA1240M+03201MA1999999101001MD1999999+0011REMSYN017 333 10320 58001;EQDQ01+000002VOVAR 
0115830960999991996030812004-10917-037050FM-12+000699999V0200501N00101220001CN0200001N1+03041+02331101251ADDAA106000091AG10000GF102991021011012501001001KA1240N+02551MA1999999101181MD1999999+0071REMSYN017 333 20255 58007;
0096830960999991996030818004-10917-037050FM-12+000699999V0200901N00101220001CN0200001N1+03071+02271100951ADDAA106000091AG10000GF101991011011012501001001MA1999999100881MD1999999-0101REMSYN011 333 59010;
0134830960999991996030900004-10917-037050FM-12+000699999V0200901N00051220001CN9999999N9+02811+02391101011ADDAA106000091AG10000GF101991011011012501001001KA1240M+03191MA1999999100941MD1999999-0061REMSYN017 333 10319 59006;EQDQ01+000002VOVAR 
0115830960999991996030912004-10917-037050FM-12+000699999V0200501N00101045001CN0200001N1+02981+02421101361ADDAA106000091AG10000GF106991021051012501031011KA1240N+02571MA1999999101291MD1999999+0111REMSYN017 333 20257 58011;
0096830960999991996030918004-10917-037050FM-12+000699999V0200501N00101007501CN0100001N1+02961+02381101031ADDAA106000091AG10000GF108991081051008001999999MA1999999100961MD1999999+0081REMSYN011 333 58008;
0134830960999991996031000004-10917-037050FM-12+000699999V0200901N00101220001CN9999999N9+02841+02421101051ADDAA106000091AG10000GF101991011011012501001001KA1240M+03151MA1999999100981MD1999999+0041REMSYN017 333 10315 58004;EQDQ01+000002VOVAR 
0115830960999991996031012004-10917-037050FM-12+000699999V0200501N00101045001CN0200001N1+02961+02381101341ADDAA106000091AG10000GF106991021051012501031011KA1240N+02511MA1999999101271MD1999999-0021REMSYN017 333 20251 59002;
0096830960999991996031018004-10917-037050FM-12+000699999V0200901N00101220001CN0200001N1+03011+02451101071ADDAA106000091AG10000GF101991999999012501999999MA1999999101001MD1999999+0041REMSYN011 333 58004;
0134830960999991996031100004-10917-037050FM-12+000699999V0200901N00051220001CN9999999N9+02821+02411101001ADDAA106000091AG10000GF101991011011012501001001KA1240M+03171MA1999999100931MD1999999-0051REMSYN017 333 10317 59005;EQDQ01+000002VOVAR 
0115830960999991996031112004-10917-037050FM-12+000699999V0201401N00101012001CN0200001N1+02911+02341101131ADDAA106000091AG10000GF108991081051012501999999KA1240N+02491MA1999999101061MD1999999-0211REMSYN017 333 20249 59021;
0134830960999991996031200004-10917-037050FM-12+000699999V0201401N00101220001CN9999999N9+02841+02421100951ADDAA106000091AG10000GF103991031051012501001001KA1240M+03181MA1999999100881MD1999999-0051REMSYN017 333 10318 59005;EQDQ01+000002VOVAR 
0115830960999991996031212004-10917-037050FM-12+000699999V0200901N00101045001CN0200001N1+02881+02301101051ADDAA106000091AG10000GF106991021051012501031011KA1240N+02441MA1999999100981MD1999999-0081REMSYN017 333 20244 59008;
0096830960999991996031218004-10917-037050FM-12+000699999V0200901N00101045001CN0200001N1+02961+02341100911ADDAA106000091AG10000GF106991041051012501031001MA1999999100841MD1999999+0061REMSYN011 333 58006;
0134830960999991996031300004-10917-037050FM-12+000699999V0200901N00101220001CN9999999N9+02831+02451100971ADDAA106000091AG10000GF104991041051012501001001KA1240M+03151MA1999999100901MD1999999+0021REMSYN017 333 10315 58002;EQDQ01+000002VOVAR 
0115830960999991996031312004-10917-037050FM-12+000699999V0200901N00101220001CN0200001N1+02961+02401101171ADDAA106000091AG10000GF102991021051012501001001KA1240N+02911MA1999999101101MD1999999+0121REMSYN017 333 20291 58012;
0096830960999991996031318004-10917-037050FM-12+000699999V0200901N00101220001CN0200001N1+03001+02381100881ADDAA106000091AG10000GF101991011051012501001001MA1999999100811MD1999999-0031REMSYN011 333 59003;
0134830960999991996031400004-10917-037050FM-12+000699999V0200901N00051220001CN9999999N9+02811+02391100931ADDAA106000091AG10000GF103991031051012501001001KA1240M+03191MA1999999100861MD1999999-0041REMSYN017 333 10319 59004;EQDQ01+000002VOVAR 
0115830960999991996031412004-10917-037050FM-12+000699999V0200901N00101220001CN0200001N1+02971+02281101271ADDAA106000091AG10000GF102991021051012501001001KA1240N+02481MA1999999101201MD1999999+0101REMSYN017 333 20248 58010;
0096830960999991996031418004-10917-037050FM-12+000699999V0200901N00101012001CN0200001N1+02941+02211100981ADDAA106000091AG10000GF106991061051012501001001MA1999999100911MD1999999+0101REMSYN011 333 58010;
0115830960999991996031512004-10917-037050FM-12+000699999V0200501N00101012001CN0200001N1+02941+02311101161ADDAA106000091AG10000GF106991061051012501001001KA1240N+02471MA1999999101091MD1999999-0111REMSYN017 333 20247 59011;
0096830960999991996031518004-10917-037050FM-12+000699999V0201401N00101220001CN0200001N1+02981+02171100951ADDAA106000091AG10000GF102991011051012501001011MA1999999100851MD1999999-0061REMSYN011 333 59006;
0134830960999991996031600004-10917-037050FM-12+000699999V0200901N00051220001CN9999999N9+02761+02341101081ADDAA106000091AG10000GF101991011011012501001001KA1240M+03141MA1999999101011MD1999999+0071REMSYN017 333 10314 58007;EQDQ01+000002VOVAR 
0115830960999991996031612004-10917-037050FM-12+000699999V0200901N00101045001CN0200001N1+02921+02191101191ADDAA106000091AG10000GF106991031051012501031001KA1240N+02441MA1999999101121MD1999999+0031REMSYN017 333 20244 58003;
0096830960999991996031618004-10917-037050FM-12+000699999V0200901N00101220001CN0200001N1+02941+02251100981ADDAA106000091AG10000GF102991021051012501001001MA1999999100911MD1999999+0061REMSYN011 333 58006;
0134830960999991996031700004-10917-037050FM-12+000699999V0200901N00051220001CN9999999N9+02801+02361101031ADDAA106000091AG10000GF101991011051012501001001KA1240M+03111MA1999999100961MD1999999-0051REMSYN017 333 10311 59005;EQDQ01+000002VOVAR 
0115830960999991996031712004-10917-037050FM-12+000699999V0200901N00101220001CN0200001N1+03041+02411101151ADDAA106000091AG10000GF102991021051012501001001KA1240N+02511MA1999999101081MD1999999-0041REMSYN017 333 20251 59004;
0096830960999991996031718004-10917-037050FM-12+000699999V0200901N00101220001CN0200001N1+03001+02351100951ADDAA106000091AG10000GF101991011051012501001001MA1999999100881MD1999999-0031REMSYN011 333 59003;
0134830960999991996031800004-10917-037050FM-12+000699999V0200901N00101220001CN9999999N9+02841+02421100981ADDAA106000091AG10000GF101991011011012501001001KA1240M+03171MA1999999100911MD1999999-0051REMSYN017 333 10317 59005;EQDQ01+000002VOVAR 
0115830960999991996031812004-10917-037050FM-12+000699999V0200501N00101012001CN0200001N1+02951+02431101191ADDAA106000091AG10000GF107991071051012501001001KA1240N+02521MA1999999101121MD1999999+0041REMSYN017 333 20252 58004;
0124830960999991996031818004-10917-037050FM-12+000699999V0200501N00211007501CN0100001N1+02521+02361101101ADDAA106008091AG10006AY161061AY261061GF108991081071008001999999MA1999999101031MD1999999+0151MW1601REMSYN017 333 58015 60081;
0134830960999991996031900004-10917-037050FM-12+000699999V0200501N00051220001CN9999999N9+02571+02351101231ADDAA106000091AG10000GF102991021051012501001001KA1240M+02991MA1999999101161MD1999999+0251REMSYN017 333 10299 58025;EQDQ01+000002VOVAR 
0121830960999991996031912004-10917-037050FM-12+000699999V0200901N00101012001CN0200001N1+02781+02401101211ADDAA124009091AG10000GF106991061051012501001001KA1240N+02261MA1999999101141MD1999999+0021REMSYN023 333 20226 58002 60094;
0134830960999991996032000004-10917-037050FM-12+000699999V0201401N00051220001CN9999999N9+02801+02381100971ADDAA106000091AG10000GF101991011011012501001001KA1240M+03011MA1999999100901MD1999999-0261REMSYN017 333 10301 59026;EQDQ01+000002VOVAR 
0096830960999991996032018004-10917-037050FM-12+000699999V0201401N00101220001CN0200001N1+02981+01021101091ADDAA106000091AG10000GF104991041051012501001001MA1999999101021MD1999999+0091REMSYN011 333 58009;
0102830960999991996032112004-10917-037050FM-12+000699999V0201401N00051045001CN0200001N1+02501+02071101161ADDAA106000091AG10000GF106991021011008001051001MA1999999096141MD1999999-0061REMSYN017 333 2014/ 59006;
0115830960999991996032118004-10917-037050FM-12+000699999V0201401N00101220001CN0200001N1+02991+02331100831ADDAA106000091AG10000GF101991011051012501001001MA1999999100762MD1999999-0261REMSYN011 333 59026;EQDQ01+100763APOSP 
0134830960999991996032200004-10917-037050FM-12+000699999V0200901N00101220001CN9999999N9+02801+02311101011ADDAA106000091AG10000GF101991011011012501001001KA1240M+03081MA1999999100941MD1999999+0001REMSYN017 333 10308 58000;EQDQ01+000002VOVAR 
0134830960999991996032212004-10917-037050FM-12+000699999V0200501N00101220001CN0200001N1+02001+99999101241ADDAA106000091AG10000GF102991021051012501001001KA1240N+99999MA1999999101171MD1999999-0011REMSYN017 333 20257 59001;EQDQ01 +02572ATMN  
0096830960999991996032218004-10917-037050FM-12+000699999V0200901N00101220001CN0200001N1+03041+02331100891ADDAA106000091AG10000GF101991011051012501001001MA1999999100821MD1999999+0061REMSYN011 333 58006;
0134830960999991996032300004-10917-037050FM-12+000699999V0200901N00101220001CN9999999N9+02821+02351100981ADDAA106000091AG10000GF101991011011012501001001KA1240M+03161MA1999999100911MD1999999-0031REMSYN017 333 10316 59003;EQDQ01+000002VOVAR 
0115830960999991996032312004-10917-037050FM-12+000699999V0200901N00101220001CN0200001N1+02991+02281101251ADDAA106000091AG10000GF101991011051012501001001KA1240N+02501MA1999999101181MD1999999+0011REMSYN017 333 20250 58001;
0134830960999991996032400004-10917-037050FM-12+000699999V0200901N00101220001CN9999999N9+02841+02421101021ADDAA106000091AG10000GF101991011011012501001001KA1240M+03191MA1999999100951MD1999999+0041REMSYN017 333 10319 58004;EQDQ01+000002VOVAR 
0115830960999991996032412004-10917-037050FM-12+000699999V0200501N00101220001CN0200001N1+03011+02321101171ADDAA106000091AG10000GF102991021051012501001001KA1240N+02511MA1999999101101MD1999999-0081REMSYN017 333 20251 59008;
0096830960999991996032418004-10917-037050FM-12+000699999V0200901N00101220001CN0200001N1+03001+02371100851ADDAA106000091AG10000GF101991011011012501001001MA1999999100781MD1999999-0121REMSYN011 333 59012;
0134830960999991996032500004-10917-037050FM-12+000699999V0200901N00101012001CN9999999N9+02861+02391100991ADDAA106000091AG10000GF106991061051012501001001KA1240M+03181MA1999999100921MD1999999-0031REMSYN017 333 10318 59003;EQDQ01+000002VOVAR 
0115830960999991996032512004-10917-037050FM-12+000699999V0200501N00101220001CN0200001N1+02981+02371101141ADDAA106000091AG10000GF101991011051012501001001KA1240N+02531MA1999999101071MD1999999-0031REMSYN017 333 20253 59003;
0096830960999991996032518004-10917-037050FM-12+000699999V0200901N001012200019N0200001N1+03051+02391100951ADDAA106000091AG10000GF101991011051999999001001MA1999999100881MD1999999+0101REMSYN011 333 58010;
0134830960999991996032600004-10917-037050FM-12+000699999V0200901N00101012001CN9999999N9+02881+02441100971ADDAA106000091AG10000GF106991061051012501001001KA1240M+03201MA1999999100901MD1999999-0021REMSYN017 333 10320 59002;EQDQ01+000002VOVAR 
0096830960999991996032618004-10917-037050FM-12+000699999V0201401N00101220001CN0200001N1+02981+02401105041ADDAA106000091AG10000GF102991021011012501001001MA1999999100971MD1999999+0091REMSYN011 333 58009;
0115830960999991996032712004-10917-037050FM-12+000699999V0200901N00101220001CN0200001N1+03011+02241101321ADDAA106000091AG10000GF101991011051012501001001KA1240N+02541MA1999999101251MD1999999+0241REMSYN017 333 20254 58024;
0096830960999991996032718004-10917-037050FM-12+000699999V0201401N00101220001CN0200001N1+03021+02241101121ADDAA106000091AG10000GF102991021011012501001001MA1999999101051MD1999999+0081REMSYN011 333 58008;
0134830960999991996032800004-10917-037050FM-12+000699999V0201401N00051220001CN9999999N9+02841+02371101071ADDAA106000091AG10000GF101991011011012501001001KA1240M+03141MA1999999101001MD1999999-0071REMSYN017 333 10314 59007;EQDQ01+000002VOVAR 
0115830960999991996032812004-10917-037050FM-12+000699999V0203201N00101012001CN0200001N1+02791+02401101451ADDAA106000091AG10000GF106991061051012501001001KA1240N+02521MA1999999101381MD1999999+0131REMSYN017 333 20252 58013;
0102830960999991996032818004-10917-037050FM-12+000699999V0200901N00101220001CN0200001N1+02941+02331101161ADDAA106002091AG10000GF104991021051012501031001MA1999999101091MD1999999+0041REMSYN017 333 58004 60021;
0134830960999991996032900004-10917-037050FM-12+000699999V0200901N00051012001CN9999999N9+02811+02371101121ADDAA106000091AG10000GF106991061051012501001001KA1240M+03061MA1999999101051MD1999999+0051REMSYN017 333 10306 58005;EQDQ01+000002VOVAR 
0140830960999991996032912004-10917-037050FM-12+000699999V0201401N00101220001CN0200001N1+02901+02391101261ADDAA124002091AG10000GF102991999021012501001001KA1240N+02481MA1999999101191MD1999999-0191REMSYN023 333 20248 59019 60024;EQDQ01+000052SCOTLC
0134830960999991996033000004-10917-037050FM-12+000699999V0201401N00051220001CN9999999N9+02841+02371101021ADDAA106000091AG10000GF104991041051012501001001KA1240M+03181MA1999999100951MD1999999-0101REMSYN017 333 10318 59010;EQDQ01+000002VOVAR 
0121830960999991996033012004-10917-037050FM-12+000699999V0200501N00101045001CN0200001N1+02961+02401101171ADDAA124004091AG10000GF106991041051012501031001KA1240N+02481MA1999999101101MD1999999-0091REMSYN023 333 20248 59009 60044;
0134830960999991996033100004-10917-037050FM-12+000699999V0200901N00051220001CN9999999N9+02871+02431101001ADDAA106000091AG10000GF102991021011012501001001KA1240M+03061MA1999999100931MD1999999-0021REMSYN017 333 10306 59002;EQDQ01+000002VOVAR 
0162830960999991996033112004-10917-037050FM-12+000699999V0202701N00151045001CN0200001N1+02341+02221101341ADDAA124013091AG10006AY161061AY261061GF107991021011008001051001KA1240N+02211MA1999999999999MD1999999+0101MW1031REMSYN023 333 20221 58010 60134;EQDQ01 096303APOSP 
0115830960999991996033118004-10917-037050FM-12+000699999V0201401N00101012001CN0200001N1+02901+02371100921ADDAA106000091AG10000GF106991061051012501001001MA1999999100852MD1999999+0011REMSYN011 333 58001;EQDQ01+100853APOSP 
0134830960999991996040100004-10917-037050FM-12+000699999V0201401N00101012001CN9999999N9+02821+02401100981ADDAA106000091AG10000GF106991061051012501001001KA1240M+03081MA1999999100911MD1999999-0021REMSYN017 333 10308 59002;EQDQ01+000002VOVAR 
0121830960999991996040112004-10917-037050FM-12+000699999V0201401N00101220001CN0200001N1+02901+02521101361ADDAA124026091AG10000GF102991021051012501001001KA1240N+02511MA1999999101291MD1999999+0071REMSYN023 333 20251 58007 60264;
0096830960999991996040118004-10917-037050FM-12+000699999V0201401N00101220001CN0200001N1+02991+02301101101ADDAA106000091AG10000GF101991011051012501001001MA1999999101031MD1999999+0181REMSYN011 333 58018;
0134830960999991996040200004-10917-037050FM-12+000699999V0200901N00101220001CN9999999N9+02791+02361101281ADDAA106000091AG10000GF101991011011012501001001KA1240M+03111MA1999999101211MD1999999+0301REMSYN017 333 10311 58030;EQDQ01+000002VOVAR 
0104830960999991996040212004-10917-037050FM-12+000699999V0201401N00101220001CN0200001N1+02941+02431101341ADDAG10000GF101991011051012501001001KA1240N+02561MA1999999101271MD1999999-0021REMSYN017 333 20256 59002;
0102830960999991996040218004-10917-037050FM-12+000699999V0200901N00101220001CN0200001N1+02981+02401101001ADDAA106000591AG10000GF101991011051012501001001MA1999999100931MD1999999-0101REMSYN017 333 59010 69951;
0134830960999991996040300004-10917-037050FM-12+000699999V0200501N00051220001CN9999999N9+02811+02381101041ADDAA106000091AG10000GF101991011011012501001001KA1240M+03111MA1999999100971MD1999999-0241REMSYN017 333 10311 59024;EQDQ01+000002VOVAR 
0121830960999991996040312004-10917-037050FM-12+000699999V0200901N00101220001CN0200001N1+02961+02261101201ADDAA124003091AG10000GF101991011051012501001001KA1240N+02611MA1999999101131MD1999999-0141REMSYN023 333 20261 59014 60034;
0096830960999991996040318004-10917-037050FM-12+000699999V0201401N00101012001CN0200001N1+02941+02331100991ADDAA106000091AG10000GF106991061051012501001001MA1999999100921MD1999999-0011REMSYN011 333 59001;
0134830960999991996040400004-10917-037050FM-12+000699999V0201401N00051220001CN9999999N9+02781+02301101141ADDAA106000091AG10000GF104991041051012501001001KA1240M+03101MA1999999101071MD1999999+0101REMSYN017 333 10310 58010;EQDQ01+000002VOVAR 
0115830960999991996040412004-10917-037050FM-12+000699999V0200901N00101012001CN0200001N1+02961+02311101151ADDAA106000091AG10000GF106991061051012501001001KA1240N+02571MA1999999101081MD1999999-0051REMSYN017 333 20257 59005;
0096830960999991996040418004-10917-037050FM-12+000699999V0200901N00051220001CN0200001N1+02941+02291101031ADDAA106000091AG10000GF103991031051012501001001MA1999999100961MD1999999+0041REMSYN011 333 58004;
0140830960999991996040500004-10917-037050FM-12+000699999V0200501N00051012001CN9999999N9+02661+02331101121ADDAA106000591AG10000GF106991061051012501001001KA1240M+03091MA1999999101051MD1999999-0021REMSYN023 333 10309 59002 69941;EQDQ01+000002VOVAR 
0121830960999991996040512004-10917-037050FM-12+000699999V0201401N00101220001CN0200001N1+02831+02421101211ADDAA124007091AG10000GF106991041051012501001011KA1240N+02491MA1999999101141MD1999999+0061REMSYN023 333 20249 58006 60074;
0096830960999991996040518004-10917-037050FM-12+000699999V0201401N00051045001CN0200001N1+02771+02341100831ADDAA106000091AG10000GF106991031051012501031001MA1999999100761MD1999999-0201REMSYN011 333 59020;
0134830960999991996040600004-10917-037050FM-12+000699999V0201401N00051012001CN9999999N9+02681+02301101051ADDAA106000091AG10000GF107991071051012501001001KA1240M+02981MA1999999100981MD1999999-0071REMSYN017 333 10298 59007;EQDQ01+000002VOVAR 
0121830960999991996040612004-10917-037050FM-12+000699999V0202301N00051045001CN0200001N1+02681+02521101121ADDAA124001091AG10000GF106991041051012501031001KA1240N+02421MA1999999101051MD1999999-0091REMSYN023 333 20242 59009 60014;
0096830960999991996040618004-10917-037050FM-12+000699999V0200901N00511012001CN0200001N1+02881+02371100731ADDAA106000091AG10000GF107991061051012501031001MA1999999100661MD1999999-0101REMSYN011 333 59010;
0134830960999991996040700004-10917-037050FM-12+000699999V0201401N00101045001CN9999999N9+02791+02361100991ADDAA106000091AG10000GF106991041051012501031001KA1240M+03061MA1999999100921MD1999999-0061REMSYN017 333 10306 59006;EQDQ01+000002VOVAR 
0121830960999991996040712004-10917-037050FM-12+000699999V0202301N00051012001CN0200001N1+02691+02411101211ADDAA124010091AG10000GF106991051051012501031001KA1240N+02491MA1999999101141MD1999999+0091REMSYN023 333 20249 58009 60104;
0096830960999991996040718004-10917-037050FM-12+000699999V0201401N00101220001CN0200001N1+02911+02351100851ADDAA106000091AG10000GF104991041051012501001001MA1999999100781MD1999999+0121REMSYN011 333 58012;
0121830960999991996040812004-10917-037050FM-12+000699999V0202701N00051012001CN0200001N1+02781+02401101271ADDAA124000191AG10000GF106991061051012501001001KA1240N+02501MA1999999101201MD1999999+0061REMSYN023 333 20250 58006 69924;
0102830960999991996040818004-10917-037050FM-12+000699999V0201401N00101012001CN0200001N1+02841+02421100991ADDAA106006091AG10000GF107991071051012501001001MA1999999100921MD1999999+0141REMSYN017 333 58014 60061;
0134830960999991996040900004-10917-037050FM-12+000699999V0201401N00051012001CN9999999N9+02801+02451101031ADDAA106000091AG10000GF106991061051012501001001KA1240M+02941MA1999999100961MD1999999-0011REMSYN017 333 10294 59001;EQDQ01+000002VOVAR 
0121830960999991996040912004-10917-037050FM-12+000699999V0201801N00051012001CN0200001N1+02701+02411101301ADDAA124016091AG10000GF107991071051012501001001KA1240N+02381MA1999999101231MD1999999+0031REMSYN023 333 20238 58003 60164;
0096830960999991996040918004-10917-037050FM-12+000699999V0201801N00101045001CN0200001N1+02761+02421101061ADDAA106000091AG10000GF107991041051012501031001MA1999999100991MD1999999+0071REMSYN011 333 58007;
0134830960999991996041000004-10917-037050FM-12+000699999V0201401N00051012001CN9999999N9+02731+02401101051ADDAA106000091AG10000GF106991061051012501001001KA1240M+02821MA1999999100981MD1999999+0021REMSYN017 333 10282 58002;EQDQ01+000002VOVAR 
0143830960999991996041012004-10917-037050FM-12+000699999V0203301N00051007501CN0100001N1+02721+02521101281ADDAA124009091AG10005AY161061AY261061GF108991081051008001999999KA1240N+02541MA1999999101211MD1999999-0021MW1601REMSYN023 333 20254 59002 60094;
0124830960999991996041018004-10917-037050FM-12+000699999V0200901N00101007501CN0100001N1+02801+02401100981ADDAA106005091AG10005AY161061AY261061GF108991081051008001999999MA1999999100911MD1999999-0091MW1601REMSYN017 333 59009 60051;
0140830960999991996041100004-10917-037050FM-12+000699999V0200901N00101012001CN9999999N9+02561+02401101251ADDAA106003091AG10000GF106991061051012501001001KA1240M+02881MA1999999101181MD1999999+0201REMSYN023 333 10288 58020 60031;EQDQ01+000002VOVAR 
0143830960999991996041112004-10917-037050FM-12+000699999V0200901N00051007501CN0100001N1+02501+02451101311ADDAA124015091AG10005AY161061AY261061GF108991081071008001999999KA1240N+02411MA1999999101241MD1999999+0031MW1601REMSYN023 333 20241 58003 60154;
0102830960999991996041118004-10917-037050FM-12+000699999V0200901N00101045001CN0200001N1+02741+02541100911ADDAA106002091AG10000GF106991041051012501031001MA1999999100841MD1999999-0071REMSYN017 333 59007 60021;
0134830960999991996041200004-10917-037050FM-12+000699999V0200901N00051220001CN9999999N9+02601+02311101111ADDAA106000091AG10000GF102991021051012501001001KA1240M+02851MA1999999101041MD1999999-0141REMSYN017 333 10285 59014;EQDQ01+000002VOVAR 
0143830960999991996041212004-10917-037050FM-12+000699999V0201401N00051007501CN0100001N1+02441+02411101231ADDAA124052091AG10005AY161061AY261061GF108991081071008001999999KA1240N+02381MA1999999101161MD1999999-0081MW1601REMSYN023 333 20238 59008 60524;
0102830960999991996041218004-10917-037050FM-12+000699999V0201401N00101220001CN0200001N1+02931+02271100831ADDAA106004091AG10000GF104991021051012501031001MA1999999100761MD1999999-0081REMSYN017 333 59008 60041;
0134830960999991996041300004-10917-037050FM-12+000699999V0201401N00101220001CN9999999N9+02641+02291101041ADDAA106000091AG10000GF102991021011012501001001KA1240M+03001MA1999999100971MD1999999-0071REMSYN017 333 10300 59007;EQDQ01+000002VOVAR 
0130830960999991996041312004-10917-037050FM-12+000699999V0200501N00151007501CN0200001N1+02821+02441101001ADDAA124001091AG10001AY151061AY251061GF106991061021008001001001MA1999999100771MD1999999+0101MW1021REMSYN023 333 20/// 58010 69984;
0096830960999991996041318004-10917-037050FM-12+000699999V0200501N00101220001CN0200001N1+02961+02401100841ADDAA106000091AG10000GF104991041051012501001001MA1999999100771MD1999999+0011REMSYN011 333 58001;
0134830960999991996041400004-10917-037050FM-12+000699999V0200901N00051220001CN9999999N9+02701+02321101061ADDAA106000091AG10000GF102991021011012501001001KA1240M+03031MA1999999100991MD1999999+0021REMSYN017 333 10303 58002;EQDQ01+000002VOVAR 
0096830960999991996041418004-10917-037050FM-12+000699999V0200901N00101220001CN0200001N1+02941+02431100871ADDAA106000091AG10000GF104991041051012501001001MA1999999100801MD1999999+0031REMSYN011 333 58003;
0162830960999991996041500004-10917-037050FM-12+000699999V0201401N00051007501CN9999999N9+02581+02301100991ADDAA106004091AG10005AY161061AY261061GF108991081051008001999999KA1240M+03061MA1999999100921MD1999999-0071MW1601REMSYN023 333 10306 59007 60041;EQDQ01+000002VOVAR 
0121830960999991996041512004-10917-037050FM-12+000699999V0203201N00051220001CN0200001N1+02621+02331101371ADDAA124004091AG10000GF104991041051012501001001KA1240N+02361MA1999999101301MD1999999+0211REMSYN023 333 20236 58021 60044;
0102830960999991996041518004-10917-037050FM-12+000699999V0201401N00101045001CN0200001N1+02911+02321101051ADDAA106000391AG10000GF106991021051012501031011MA1999999100981MD1999999+0181REMSYN017 333 58018 69931;
0134830960999991996041600004-10917-037050FM-12+000699999V0201401N00051220001CN9999999N9+02671+02371101191ADDAA106000091AG10000GF102991021051012501001001KA1240M+02961MA1999999101121MD1999999+0201REMSYN017 333 10296 58020;EQDQ01+000002VOVAR 
0121830960999991996041612004-10917-037050FM-12+000699999V0200901N00101012001CN0200001N1+02921+02411101281ADDAA124000391AG10000GF106991061051012501001001KA1240N+02541MA1999999101211MD1999999-0091REMSYN023 333 20254 59009 69934;
0096830960999991996041618004-10917-037050FM-12+000699999V0200901N00101220001CN0200001N1+02911+02301100971ADDAA106000091AG10000GF102991021051012501001001MA1999999100901MD1999999-0081REMSYN011 333 59008;
0134830960999991996041700004-10917-037050FM-12+000699999V0201401N00101220001CN9999999N9+02801+02361101121ADDAA106000091AG10000GF103991031051012501001001KA1240M+03021MA1999999101051MD1999999-0071REMSYN017 333 10302 59007;EQDQ01+000002VOVAR 
0143830960999991996041712004-10917-037050FM-12+000699999V0203201N00051007501CN0100001N1+02501+02401101171ADDAA124005091AG10005AY161061AY261061GF108991081051008001999999KA1240N+02401MA1999999101101MD1999999-0111MW1601REMSYN023 333 20240 59011 60054;
0096830960999991996041718004-10917-037050FM-12+000699999V0201401N00101220001CN0200001N1+02901+02301100841ADDAA106000091AG10000GF104991021051012501001011MA1999999100771MD1999999-0131REMSYN011 333 59013;
0134830960999991996041800004-10917-037050FM-12+000699999V0200901N00101220001CN9999999N9+02791+02361101051ADDAA106000091AG10000GF102991021011012501001001KA1240M+02981MA1999999100981MD1999999-0071REMSYN017 333 10298 59007;EQDQ01+000002VOVAR 
0115830960999991996041812004-10917-037050FM-12+000699999V0203201N00051220001CN0200001N1+02621+02421101121ADDAA106000091AG10000GF103991031051012501001001KA1240N+02311MA1999999101051MD1999999-0051REMSYN017 333 20231 59005;
0096830960999991996041818004-10917-037050FM-12+000699999V0201401N00101220001CN0200001N1+02941+02351100871ADDAA106000091AG10000GF102991021051012501001001MA1999999100801MD1999999+0031REMSYN011 333 58003;
0134830960999991996041900004-10917-037050FM-12+000699999V0200901N00101220001CN9999999N9+02721+02371100941ADDAA106000091AG10000GF101991011051012501001001KA1240M+03061MA1999999100871MD1999999-0111REMSYN017 333 10306 59011;EQDQ01+000002VOVAR 
0121830960999991996041912004-10917-037050FM-12+000699999V0200901N00101045001CN0200001N1+02601+02271101201ADDAA124002091AG10000GF106991041051012501031001KA1240N+02481MA1999999101131MD1999999+0081REMSYN023 333 20248 58008 60024;
0096830960999991996041918004-10917-037050FM-12+000699999V0200901N00101220001CN0200001N1+02911+02301100911ADDAA106000091AG10000GF104991041051012501001001MA1999999100841MD1999999+0041REMSYN011 333 58004;
0182830960999991996042000004-10917-037050FM-12+000699999V0201401N00211220001CN9999999N9+02711+02261101061ADDAA106000091AG10000GA1001+999999999GF100991001001999999001001KA1240M+03161MA1999999999999MD1999999+0121REMSYN017 333 10316 58012;EQDQ01+098233APOSP Q02+000002VOVAR Q03 098233APOSP 
0143830960999991996042012004-10917-037050FM-12+000699999V0203201N00101007501CN0100001N1+02471+02431101251ADDAA124061091AG10005AY161061AY261061GF108991081071008001999999KA1240N+02401MA1999999101181MD1999999+0051MW1601REMSYN023 333 20240 58005 60614;
0102830960999991996042018004-10917-037050FM-12+000699999V0201401N00101045001CN0200001N1+02821+02421100991ADDAA106007091AG10000GF106991041051012501031001MA1999999100921MD1999999+0081REMSYN017 333 58008 60071;
0143830960999991996042112004-10917-037050FM-12+000699999V0201801N00101007501CN0100001N1+02381+02131101341ADDAA124012091AG10005AY161061AY261061GF108991081071008001999999KA1240N+02321MA1999999101271MD1999999+0091MW1601REMSYN023 333 20232 58009 60124;
0124830960999991996042118004-10917-037050FM-12+000699999V0201801N00101007501CN0100001N1+02801+02221101081ADDAA124003091AG10005AY161061AY261061GF108991081071008001999999MA1999999101011MD1999999+0091MW1601REMSYN017 333 58009 60034;
0162830960999991996042200004-10917-037050FM-12+000699999V0201801N00101007501CN9999999N9+02711+02331101221ADDAA106002091AG10005AY161061AY261061GF108991081071008001999999KA1240M+02881MA1999999101151MD1999999+0171MW1601REMSYN023 333 10288 58017 60021;EQDQ01+000002VOVAR 
0096830960999991996042218004-10917-037050FM-12+000699999V0201801N00101007501CN0100001N1+02851+02221101201ADDAA106000091AG10000GF108991081051008001999999MA1999999101131MD1999999+0121REMSYN011 333 58012;
0134830960999991996042300004-10917-037050FM-12+000699999V0201401N00101220001CN9999999N9+02741+02311101181ADDAA106000091AG10000GF102991021051012501001001KA1240M+02971MA1999999101011MD1999999-0041REMSYN017 333 10297 59004;EQDQ01+000002VOVAR 
0115830960999991996042312004-10917-037050FM-12+000699999V0201401N00101012001CN0200001N1+02801+02271101391ADDAA106000091AG10000GF106991061051012501001001KA1240N+02391MA1999999101321MD1999999+0041REMSYN017 333 20239 58004;
0096830960999991996042318004-10917-037050FM-12+000699999V0202301N00101012001CN0200001N1+02721+02321101201ADDAA106000091AG10000GF107991071051012501001001MA1999999101131MD1999999+0001REMSYN011 333 58000;
0134830960999991996042400004-10917-037050FM-12+000699999V0201401N00051012001CN9999999N9+02721+02281101211ADDAA106000091AG10000GF106991061051012501001001KA1240M+02931MA1999999101141MD1999999+0031REMSYN017 333 10293 58003;EQDQ01+000002VOVAR 
0115830960999991996042412004-10917-037050FM-12+000699999V0201401N00101012001CN0200001N1+02941+02361101391ADDAA106000091AG10000GF106991061051012501001001KA1240N+02461MA1999999101321MD1999999+0001REMSYN017 333 20246 58000;
0124830960999991996042418004-10917-037050FM-12+000699999V0201401N00051007501CN0100001N1+02641+02461101191ADDAA106003091AG10005AY161061AY261061GF108991081071008001999999MA1999999101121MD1999999-0011MW1601REMSYN017 333 59001 60031;
0140830960999991996042500004-10917-037050FM-12+000699999V0201401N00051012001CN9999999N9+02661+02441101281ADDAA106000591AG10000GF106991061051012501001001KA1240M+03011MA1999999101211MD1999999+0071REMSYN023 333 10301 58007 69941;EQDQ01+000002VOVAR 
0143830960999991996042512004-10917-037050FM-12+000699999V0200901N00051007501CN0100001N1+02631+02551101351ADDAA124063091AG10005AY161061AY261061GF108991081071008001999999KA1240N+02461MA1999999101281MD1999999-0041MW1601REMSYN023 333 20246 59004 60634;
0096830960999991996042518004-10917-037050FM-12+000699999V0201401N00101012001CN0200001N1+02881+02441101071ADDAA106000091AG10000GF106991061051012501001001MA1999999101001MD1999999-0121REMSYN011 333 59012;
0134830960999991996042600004-10917-037050FM-12+000699999V0200901N00051220001CN9999999N9+02711+02261101211ADDAA106000091AG10000GF104991041051012501001001KA1240M+02961MA1999999101141MD1999999-0071REMSYN017 333 10296 59007;EQDQ01+000002VOVAR 
0096830960999991996042618004-10917-037050FM-12+000699999V0201401N00101220001CN0200001N1+02901+02421101041ADDAA106000091AG10000GF103991031051012501001001MA1999999100971MD1999999-0031REMSYN011 333 59003;
0173830960999991996042700004-10917-037050FM-12+000699999V0203201N999999999999N9999999N9+02721+02231101071ADDAG10005AY161061AY241061GF105991999071008001041999KA1999M+03031MA1999999100701MW1601REMSYN011 333 10303;EQDQ01+005353WOSPD Q02+000082SCOTLCQ03+000002VOVAR Q040005353WOSPD 
0121830960999991996042712004-10917-037050FM-12+000699999V0201401N00101012001CN0200001N1+02801+02271101381ADDAA124002091AG10000GF107991071051012501001001KA1240N+02541MA1999999101311MD1999999+0081REMSYN023 333 20254 58008 60024;
0096830960999991996042718004-10917-037050FM-12+000699999V0201401N00101007501CN0100001N1+02781+02301101191ADDAA106000091AG10000GF108991081051008001001001MA1999999101121MD1999999+0151REMSYN011 333 58015;
0134830960999991996042800004-10917-037050FM-12+000699999V0201801N00101012001CN9999999N9+02721+02241101291ADDAA106000091AG10000GF106991051051012501031001KA1240M+02911MA1999999101221MD1999999+0221REMSYN017 333 10291 58022;EQDQ01+000002VOVAR 
0143830960999991996042812004-10917-037050FM-12+000699999V0201801N00051007501CN0100001N1+02731+02281101441ADDAA124008091AG10005AY161061AY261061GF108991081071008001999999KA1240N+02481MA1999999101371MD1999999+0061MW1601REMSYN023 333 20248 58006 60084;
0124830960999991996042818004-10917-037050FM-12+000699999V0200901N00051007501CN0100001N1+02581+02421101231ADDAA106021091AG10005AY181061AY261061GF108991081071008001999999MA1999999101161MD1999999+0041MW1601REMSYN017 333 58004 60211;
0143830960999991996042912004-10917-037050FM-12+000699999V0201401N00101007501CN0100001N1+02561+02461101471ADDAA124074091AG10005AY161061AY261061GF108991081071008001999999KA1240N+02341MA1999999101401MD1999999-0031MW1601REMSYN023 333 20234 59003 60744;
0146830960999991996042918004-10917-037050FM-12+000699999V0200901N00051007501CN0100001N1+02401+02301101201ADDAA106031091AG10005AY161061AY261061GA1031+022509009GF108991081071008001999999MA1999999101131MD1999999-0031MW1601REMSYN023 333 59003 60311 83498;
0134830960999991996043000004-10917-037050FM-12+000699999V0201401N00051007501CN9999999N9+02421+02351101371ADDAA106000091AG10000GF108991081071008001999999KA1240M+02661MA1999999101301MD1999999+0001REMSYN017 333 10266 58000;EQDQ01+000002VOVAR 
0143830960999991996043012004-10917-037050FM-12+000699999V0203201N00051007501CN0100001N1+02421+02301101431ADDAA124064091AG10005AY161061AY261061GF108991081071008001999999KA1240N+02361MA1999999101361MD1999999-0041MW1601REMSYN023 333 20236 59004 60644;
0102830960999991996043018004-10917-037050FM-12+000699999V0200901N00101012001CN0200001N1+02581+02351101231ADDAA106003091AG10000GF106991061051012501001001MA1999999101161MD1999999+0031REMSYN017 333 58003 60031;
0140830960999991996050100004-10917-037050FM-12+000699999V0200901N00051012001CN9999999N9+02601+02351101351ADDAA106000191AG10000GF108991081071012501999999KA1240M+02661MA1999999101281MD1999999-0021REMSYN023 333 10266 59002 69921;EQDQ01+000002VOVAR 
0121830960999991996050112004-10917-037050FM-12+000699999V0201401N00101220001CN0200001N1+02791+02271101381ADDAA124003091AG10000GF103991021051012501031001KA1240N+02311MA1999999101311MD1999999-0051REMSYN023 333 20231 59005 60034;
0096830960999991996050118004-10917-037050FM-12+000699999V0201401N00101045001CN0200001N1+02881+02351101231ADDAA106000091AG10000GF105991041051012501031001MA1999999101161MD1999999+0001REMSYN011 333 58000;
0115830960999991996050212004-10917-037050FM-12+000699999V0200501N00101012001CN0200001N1+02681+02391101411ADDAA106000091AG10000GF107991071051012501001001KA1240N+02411MA1999999101341MD1999999+0031REMSYN017 333 20241 58003;
0096830960999991996050218004-10917-037050FM-12+000699999V0200901N00101012001CN0200001N1+02861+02341101221ADDAA106000091AG10000GF105991051051012501001001MA1999999101151MD1999999-0011REMSYN011 333 59001;
0134830960999991996050300004-10917-037050FM-12+000699999V0200901N00051045001CN9999999N9+02711+02301101221ADDAA106000091AG10000GF106991041051012501031001KA1240M+02961MA1999999101151MD1999999-0041REMSYN017 333 10296 59004;EQDQ01+000002VOVAR 
0115830960999991996050312004-10917-037050FM-12+000699999V0200501N00101220001CN0200001N1+02871+02371101391ADDAA106000091AG10000GF102991021051012501001001KA1240N+02481MA1999999101321MD1999999-0021REMSYN017 333 20248 59002;
0096830960999991996050318004-10917-037050FM-12+000699999V0200901N00101220001CN0200001N1+02921+02331101251ADDAA106000091AG10000GF102991021051012501001001MA1999999101181MD1999999+0031REMSYN011 333 58003;
0134830960999991996050400004-10917-037050FM-12+000699999V0200501N00101220001CN9999999N9+02731+02321101201ADDAA106000091AG10000GF103991031051012501001001KA1240M+03011MA1999999101131MD1999999-0021REMSYN017 333 10301 59002;EQDQ01+000002VOVAR 
0115830960999991996050412004-10917-037050FM-12+000699999V0200901N00051045001CN0200001N1+02821+02481101361ADDAA106000091AG10000GF106991041051012501031001KA1240N+02381MA1999999101291MD1999999+0031REMSYN017 333 20238 58003;
0096830960999991996050418004-10917-037050FM-12+000699999V0201401N00101220001CN0200001N1+02841+02441101101ADDAA106000091AG10000GF104991041051012501001001MA1999999101031MD1999999-0151REMSYN011 333 59015;
0143830960999991996050512004-10917-037050FM-12+000699999V0202301N00051007501CN0100001N1+02371+02151101511ADDAA124017091AG10005AY161061AY261061GF108991081051008001999999KA1240N+02361MA1999999101441MD1999999+0151MW1601REMSYN023 333 20236 58015 60174;
0124830960999991996050518004-10917-037050FM-12+000699999V0203201N00051007501CN0100001N1+02431+02391101211ADDAA106005091AG10005AY161061AY261061GF108991081071008001999999MA1999999101141MD1999999+0111MW1601REMSYN017 333 58011 60051;
0134830960999991996050600004-10917-037050FM-12+000699999V0201401N00051007501CN9999999N9+02461+02211101291ADDAA106000091AG10000GF108991081071008001999999KA1240M+02591MA1999999101221MD1999999+0041REMSYN017 333 10259 58004;EQDQ01+000002VOVAR 
0143830960999991996050612004-10917-037050FM-12+000699999V0201401N00051007501CN0100001N1+02711+02201101431ADDAA124008091AG10005AY161061AY261061GF108991081051008001999999KA1240N+02381MA1999999101361MD1999999-0081MW1601REMSYN023 333 20238 59008 60084;
0096830960999991996050618004-10917-037050FM-12+000699999V0201801N00051012001CN0200001N1+02781+02211101301ADDAA106000091AG10000GF107991071051012501001001MA1999999101231MD1999999+0091REMSYN011 333 58009;
0134830960999991996050700004-10917-037050FM-12+000699999V0201401N00101220001CN9999999N9+02721+02281101311ADDAA106000091AG10000GF104991041051012501001001KA1240M+02921MA1999999101241MD1999999+0021REMSYN017 333 10292 58002;EQDQ01+000002VOVAR 
0121830960999991996050712004-10917-037050FM-12+000699999V0201401N00101012001CN0200001N1+02821+02221101411ADDAA124000591AG10000GF106991061051012501001001KA1240N+02411MA1999999101341MD1999999-0021REMSYN023 333 20241 59002 69944;
0096830960999991996050718004-10917-037050FM-12+000699999V0200901N00101220001CN0200001N1+02701+02151101191ADDAA106000091AG10000GF102991021051012501001001MA1999999101121MD1999999-0111REMSYN011 333 59011;
0134830960999991996050800004-10917-037050FM-12+000699999V0201401N00101045001CN9999999N9+02641+02141101391ADDAA106000091AG10000GF106991041051012501031001KA1240M+02961MA1999999101321MD1999999+0081REMSYN017 333 10296 58008;EQDQ01+000002VOVAR 
0143830960999991996050812004-10917-037050FM-12+000699999V0202301N00051007501CN0100001N1+02401+02311101521ADDAA124001091AG10005AY161061AY261061GF108991081051008001999999KA1240N+02411MA1999999101451MD1999999+0111MW1601REMSYN023 333 20241 58011 60014;
0124830960999991996050818004-10917-037050FM-12+000699999V0201401N00101007501CN0100001N1+02401+02231101321ADDAA106018091AG10005AY161061AY261061GF108991081071008001999999MA1999999101251MD1999999+0131MW1601REMSYN017 333 58013 60181;
0134830960999991996050900004-10917-037050FM-12+000699999V0200901N00051012001CN9999999N9+02361+02111101291ADDAA106000091AG10000GF106991061051012501001001KA1240M+02821MA1999999101221MD1999999-0101REMSYN017 333 10282 59010;EQDQ01+000002VOVAR 
0121830960999991996050912004-10917-037050FM-12+000699999V0202201N00101012001CN0200001N1+02361+02281101471ADDAA124062091AG10000GF107991071051012501001001KA1240N+02281MA1999999101401MD1999999-0051REMSYN023 333 20228 59005 60624;
0102830960999991996050918004-10917-037050FM-12+000699999V0201801N00101007501CN0100001N1+02541+02271101211ADDAA106002091AG10000GF108991081051008001999999MA1999999101141MD1999999-0111REMSYN017 333 59011 60021;
0162830960999991996051000004-10917-037050FM-12+000699999V0202201N00051007501CN9999999N9+02281+02231101311ADDAA106009091AG10005AY161061AY261061GF108991081071008001999999KA1240M+02681MA1999999101241MD1999999+0021MW1601REMSYN023 333 10268 58002 60091;EQDQ01+000002VOVAR 
0143830960999991996051012004-10917-037050FM-12+000699999V0201401N00051007501CN0100001N1+02511+02401101381ADDAA124014091AG10005AY161061AY261061GF108991081051008001999999KA1240N+02291MA1999999101311MD1999999-0091MW1601REMSYN023 333 20229 59009 60144;
0102830960999991996051018004-10917-037050FM-12+000699999V0201401N00101045001CN0200001N1+02701+02301101001ADDAA106004091AG10000GF107991041051012501031001MA1999999100931MD1999999-0211REMSYN017 333 59021 60041;
0134830960999991996051100004-10917-037050FM-12+000699999V0201401N00051012001CN9999999N9+02561+02291101111ADDAA106000091AG10000GF106991061051012501001001KA1240M+02741MA1999999101041MD1999999-0201REMSYN017 333 10274 59020;EQDQ01+000002VOVAR 
0121830960999991996051112004-10917-037050FM-12+000699999V0200901N00101220001CN0200001N1+02541+02361101331ADDAA124004091AG10000GF102991021051012501001001KA1240N+02281MA1999999101261MD1999999-0051REMSYN023 333 20228 59005 60044;
0096830960999991996051118004-10917-037050FM-12+000699999V0201401N00101220001CN0200001N1+02861+02391101051ADDAA106000091AG10000GF102991021051012501001001MA1999999100981MD1999999+0051REMSYN011 333 58005;
0134830960999991996051200004-10917-037050FM-12+000699999V0201401N00051012001CN9999999N9+02581+02351101271ADDAA106000091AG10000GF106991061051012501001001KA1240M+02961MA1999999101201MD1999999+0161REMSYN017 333 10296 58016;EQDQ01+000002VOVAR 
0121830960999991996051212004-10917-037050FM-12+000699999V0201401N00101045001CN0200001N1+02681+02281101551ADDAA124001091AG10000GF106991041051012501031001KA1240N+02311MA1999999101481MD1999999+0221REMSYN023 333 20231 58022 60014;
0124830960999991996051218004-10917-037050FM-12+000699999V0202201N00101007501CN0100001N1+02561+02491101401ADDAA106000591AG10005AY161061AY261061GF108991081051008001999999MA1999999101331MD1999999+0351MW1601REMSYN017 333 58035 69941;
0132830960999991996051312004-10917-037050FM-12+000699999V0201401N00101220001CN0200001N1+02721+02281101661ADDAA106000091AA224003091AG10000GF104991041051012501001001KA1240N+02361MA1999999101591MD1999999+0111REMSYN023 333 20236 58011 60034;
0102830960999991996051318004-10917-037050FM-12+000699999V0201401N00101012001CN0200001N1+02741+02301101391ADDAA106002091AG10000GF106991061051012501001001MA1999999101321MD1999999-0111REMSYN017 333 59011 60021;
0140830960999991996051400004-10917-037050FM-12+000699999V0201401N00101007501CN9999999N9+02541+02211101501ADDAA106000191AG10000GF108991081071008001999999KA1240M+02881MA1999999101431MD1999999+0131REMSYN023 333 10288 58013 69921;EQDQ01+000002VOVAR 
0121830960999991996051412004-10917-037050FM-12+000699999V0201401N00051220001CN0200001N1+02811+02221101501ADDAA124002091AG10000GF101991011011012501001001KA1240N+02441MA1999999101431MD1999999-0161REMSYN023 333 20244 59016 60024;
0096830960999991996051418004-10917-037050FM-12+000699999V0201401N00101220001CN0200001N1+02841+02291101421ADDAA106000091AG10000GF104991041051012501001001MA1999999101351MD1999999-0131REMSYN011 333 59013;
0134830960999991996051500004-10917-037050FM-12+000699999V0201401N00101045001CN9999999N9+02631+02211101291ADDAA106000091AG10000GF106991031051012501031001KA1240M+02931MA1999999101221MD1999999-0211REMSYN017 333 10293 59021;EQDQ01+000002VOVAR 
0115830960999991996051512004-10917-037050FM-12+000699999V0201401N00101220001CN0200001N1+02711+99999101221ADDAA106000091AG10000GF103991031051012501001001MA1999999101151MD1999999-0281REMSYN011 333 59028;EQDQ01+999990APOSP 
0115830960999991996051518004-10917-037050FM-12+000699999V0201401N00101220001CN0200001N1+02791+02181100951ADDAA106000091AG10000GF103991999051012501001001MA1999999100881MD1999999-0471REMSYN011 333 59047;EQDQ01+000022SCOTLC
0134830960999991996051612004-10917-037050FM-12+000699999V0202201N00051220001CN0200001N1+01511+99999101141ADDAA106000091AG10000GF101991011051012501001001KA1240N+99999MA1999999101071MD1999999-0091REMSYN017 333 20229 59009;EQDQ01 +02292ATMN  
0096830960999991996051618004-10917-037050FM-12+000699999V0201401N00101220001CN0200001N1+02871+02311100851ADDAA106000091AG10000GF101991011011012501001001MA1999999100771MD1999999-0111REMSYN011 333 59011;
0134830960999991996051700004-10917-037050FM-12+000699999V0201401N00051012001CN9999999N9+02561+02181101001ADDAA106000091AG10000GF106991061051012501001001KA1240M+02981MA1999999100931MD1999999-0021REMSYN017 333 10298 59002;EQDQ01+000002VOVAR 
0096830960999991996051718004-10917-037050FM-12+000699999V0201401N00101220001CN0200001N1+02861+02331101161ADDAA106000091AG10000GF101991011011012501001001MA1999999101091MD1999999+0321REMSYN011 333 58032;
0134830960999991996051800004-10917-037050FM-12+000699999V0201401N00051220001CN9999999N9+02531+02171101071ADDAA106000091AG10000GF102991021011012501001001KA1240M+02941MA1999999101001MD1999999+0071REMSYN017 333 10294 58007;EQDQ01+000002VOVAR 
0115830960999991996051812004-10917-037050FM-12+000699999V0201401N00101045001CN0200001N1+02881+02411101661ADDAA106000091AG10000GF106991041051012501031001KA1240N+02381MA1999999101591MD1999999+0271REMSYN017 333 20238 58027;
0096830960999991996051818004-10917-037050FM-12+000699999V0201401N00101220001CN0200001N1+02861+02231101331ADDAA106000091AG10000GF102991021051012501001001MA1999999101261MD1999999+0171REMSYN011 333 58017;
0121830960999991996051912004-10917-037050FM-12+000699999V0201401N00101220001CN0200001N1+02761+02361101481ADDAA124004091AG10000GF104991041051012501001001KA1240N+02401MA1999999101411MD1999999-0181REMSYN023 333 20240 59018 60044;
0096830960999991996051918004-10917-037050FM-12+000699999V0200901N00101012001CN0200001N1+02801+02341101111ADDAA106000091AG10000GF107991071051012501001001MA1999999101041MD1999999-0221REMSYN011 333 59022;
0134830960999991996052000004-10917-037050FM-12+000699999V0201401N00051220001CN9999999N9+02681+02311101321ADDAA106000091AG10000GF104991041021012501001001KA1240M+02961MA1999999101251MD1999999-0061REMSYN017 333 10296 59006;EQDQ01+000002VOVAR 
0115830960999991996052012004-10917-037050FM-12+000699999V0200501N00051220001CN0200001N1+02811+02381101291ADDAA106000091AG10000GF102991021051012501001001KA1240N+02371MA1999999101221MD1999999-0191REMSYN017 333 20237 59019;
0096830960999991996052018004-10917-037050FM-12+000699999V0201401N00101220001CN0200001N1+02831+02271101091ADDAA106000091AG10000GF102991011051012501001011MA1999999101021MD1999999-0021REMSYN011 333 59002;
0134830960999991996052100004-10917-037050FM-12+000699999V0201401N00051220001CN9999999N9+02661+02311101291ADDAA106000091AG10000GF101991011011012501001001KA1240M+02941MA1999999101221MD1999999-0031REMSYN017 333 10294 59003;EQDQ01+000002VOVAR 
0115830960999991996052112004-10917-037050FM-12+000699999V0200501N00051012001CN0200001N1+02721+02301101471ADDAA106000091AG10000GF106991061051012501001001KA1240N+02301MA1999999101401MD1999999+0181REMSYN017 333 20230 58018;
0096830960999991996052118004-10917-037050FM-12+000699999V0200901N00101220001CN0200001N1+02861+02281101181ADDAA106000091AG10000GF101991011051012501001001MA1999999101111MD1999999+0091REMSYN011 333 58009;
0134830960999991996052200004-10917-037050FM-12+000699999V0200901N00101220001CN9999999N9+02681+02311101421ADDAA106000091AG10000GF103991031051012501001001KA1240M+02971MA1999999101351MD1999999+0131REMSYN017 333 10297 58013;EQDQ01+000002VOVAR 
0121830960999991996052212004-10917-037050FM-12+000699999V0201401N00051220001CN0200001N1+02681+02521101591ADDAA124004091AG10000GF104991041051012501001001KA1240N+02421MA1999999101521MD1999999+0121REMSYN023 333 20242 58012 60044;
0102830960999991996052218004-10917-037050FM-12+000699999V0201401N00101012001CN0200001N1+02711+02281101281ADDAA106017091AG10000GF107991071051012501001001MA1999999101211MD1999999+0101REMSYN017 333 58010 60171;
0134830960999991996052300004-10917-037050FM-12+000699999V0201401N00101045001CN9999999N9+02631+02311101361ADDAA106000091AG10000GF106991041051012501031001KA1240M+02891MA1999999101291MD1999999-0061REMSYN017 333 10289 59006;EQDQ01+000002VOVAR 
0096830960999991996052318004-10917-037050FM-12+000699999V0201401N00101220001CN0200001N1+02681+02141101251ADDAA106000091AG10000GF102991021051012501001001MA1999999101181MD1999999-0031REMSYN011 333 59003;
0134830960999991996052400004-10917-037050FM-12+000699999V0201401N00101220001CN9999999N9+02621+02311101161ADDAA106000091AG10000GF101991011051012501001001KA1240M+02901MA1999999101091MD1999999-0201REMSYN017 333 10290 59020;EQDQ01+000002VOVAR 
0115830960999991996052412004-10917-037050FM-12+000699999V0202201N00051012001CN0200001N1+02611+02311101381ADDAA106000091AG10000GF106991061051012501001001KA1240N+02311MA1999999101311MD1999999-0081REMSYN017 333 20231 59008;
0102830960999991996052418004-10917-037050FM-12+000699999V0202201N00101220001CN0200001N1+02821+02291101081ADDAA106002091AG10000GF103991021051012501031001MA1999999101011MD1999999-0171REMSYN017 333 59017 60021;
0134830960999991996052500004-10917-037050FM-12+000699999V0200901N00101220001CN9999999N9+02641+02181101241ADDAA106000091AG10000GF101991011051012501001001KA1240M+02971MA1999999101171MD1999999+0081REMSYN017 333 10297 58008;EQDQ01+000002VOVAR 
0121830960999991996052512004-10917-037050FM-12+000699999V0201401N00101220001CN0200001N1+02841+02241101481ADDAA124002091AG10000GF102991021051012501001001KA1240N+02521MA1999999101411MD1999999+0101REMSYN023 333 20252 58010 60024;
0096830960999991996052518004-10917-037050FM-12+000699999V0201401N00101012001CN0200001N1+02821+02171101271ADDAA106000091AG10000GF105991051051012501001001MA1999999101201MD1999999+0191REMSYN011 333 58019;
0140830960999991996052612004-10917-037050FM-12+000699999V0201401N00051220001CN9999999N9+02581+02171101401ADDAA106000191AG10000GF104991041051012501001001KA1240M+02941MA1999999101331MD1999999+0161REMSYN023 333 10294 58016 69921;EQDQ01+000002VOVAR 
0096830960999991996052618004-10917-037050FM-12+000699999V0201401N00101220001CN0200001N1+02691+02091101411ADDAA106000091AG10000GF103991031051012501001001MA1999999101341MD1999999+0141REMSYN011 333 58014;
0115830960999991996052712004-10917-037050FM-12+000699999V0202701N00101220001CN0200001N1+02301+02131101711ADDAA106000091AG10000GF102991021051012501001001KA1240N+02101MA1999999101641MD1999999+0131REMSYN017 333 20210 58013;
0096830960999991996052718004-10917-037050FM-12+000699999V0201401N00101220001CN0200001N1+02741+02141101451ADDAA106000091AG10000GF101991011051012501001001MA1999999101381MD1999999+0041REMSYN011 333 58004;
0134830960999991996052800004-10917-037050FM-12+000699999V0200901N00101012001CN9999999N9+02481+02171101661ADDAA106000091AG10000GF106991061051012501001001KA1240M+02891MA1999999101591MD1999999+0091REMSYN017 333 10289 58009;EQDQ01+000002VOVAR 
0143830960999991996052812004-10917-037050FM-12+000699999V0202201N00101007501CN0100001N1+02461+02361101661ADDAA124002091AG10005AY161061AY261061GF108991081051008001999999KA1240N+02261MA1999999101591MD1999999-0051MW1601REMSYN023 333 20226 59005 60024;
0124830960999991996052818004-10917-037050FM-12+000699999V0201401N00051007501CN0100001N1+02471+02361101311ADDAA106004091AG10005AY161061AY261061GF108991081071008001999999MA1999999101241MD1999999-0141MW1601REMSYN017 333 59014 60041;
0162830960999991996052900004-10917-037050FM-12+000699999V0202201N00051007501CN9999999N9+02291+02231101421ADDAA106008091AG10005AY161061AY261061GF108991081071008001999999KA1240M+02571MA1999999101351MD1999999-0241MW1601REMSYN023 333 10257 59024 60081;EQDQ01+000002VOVAR 
0143830960999991996052912004-10917-037050FM-12+000699999V0201401N00051007501CN0100001N1+02381+02331101521ADDAA124036091AG10005AY161061AY261061GF108991081071008001999999KA1240N+02301MA1999999101451MD1999999-0141MW1601REMSYN023 333 20230 59014 60364;
0124830960999991996052918004-10917-037050FM-12+000699999V0200901N00051007501CN0100001N1+02311+02201101271ADDAA106040091AG10005AY161061AY261061GF108991081071008001999999MA1999999101201MD1999999-0041MW1601REMSYN017 333 59004 60401;
0162830960999991996053000004-10917-037050FM-12+000699999V0202201N00051007501CN9999999N9+02211+02151101441ADDAA106068091AG10005AY161061AY261061GF108991081071008001999999KA1240M+02461MA1999999101371MD1999999+0021MW1601REMSYN023 333 10246 58002 60681;EQDQ01+000002VOVAR 
0143830960999991996053012004-10917-037050FM-12+000699999V0201401N00051007501CN0100001N1+02311+02231101661ADDAA124117091AG10005AY161061AY261061GF108991081071008001999999KA1240N+02301MA1999999101591MD1999999+0141MW1601REMSYN023 333 20230 58014 61174;
0124830960999991996053018004-10917-037050FM-12+000699999V0200501N00051007501CN0100001N1+02341+02201101381ADDAA106009091AG10005AY161061AY261061GF108991081071008001999999MA1999999101311MD1999999+0111MW1601REMSYN017 333 58011 60091;
0162830960999991996053100004-10917-037050FM-12+000699999V0201401N00051007501CN9999999N9+02411+02011101581ADDAA106001091AG10005AY161061AY261061GF108991081071008001999999KA1240M+02681MA1999999101511MD1999999+0141MW1601REMSYN023 333 10268 58014 60011;EQDQ01+000002VOVAR 
0121830960999991996053112004-10917-037050FM-12+000699999V0201401N00051220001CN0200001N1+02711+02171101521ADDAA124012091AG10000GF102991011051012501001011KA1240N+02281MA1999999101451MD1999999-0141REMSYN023 333 20228 59014 60124;
0096830960999991996053118004-10917-037050FM-12+000699999V0201801N00101045001CN0200001N1+02761+02111101371ADDAA106000091AG10000GF106991031051012501031011MA1999999101301MD1999999-0011REMSYN011 333 59001;
0140830960999991996060100004-10917-037050FM-12+000699999V0202201N00101045001CN9999999N9+02321+02201101511ADDAA106003091AG10000GF106991031051008001031001KA1240M+02881MA1999999101441MD1999999-0071REMSYN023 333 10288 59007 60031;EQDQ01+000002VOVAR 
0121830960999991996060112004-10917-037050FM-12+000699999V0201401N00101220001CN0200001N1+02761+02191101691ADDAA124007091AG10000GF101991011051012501001001KA1240N+02291MA1999999101621MD1999999+0171REMSYN023 333 20229 58017 60074;
0096830960999991996060118004-10917-037050FM-12+000699999V0201401N00101220001CN0200001N1+02881+02251101381ADDAA106000091AG10000GF102991021051012501001001MA1999999101311MD1999999+0011REMSYN011 333 58001;
0121830960999991996060212004-10917-037050FM-12+000699999V0201401N00101007501CN0100001N1+02771+02281101561ADDAA124001091AG10000GF108991081051008001999999KA1240N+02471MA1999999101491MD1999999-0131REMSYN023 333 20247 59013 69974;
0096830960999991996060218004-10917-037050FM-12+000699999V0201401N00101220001CN0200001N1+02901+02271101431ADDAA106000091AG10000GF102991021051012501001001MA1999999101361MD1999999+0051REMSYN011 333 58005;
0134830960999991996060300004-10917-037050FM-12+000699999V0201401N00051220001CN9999999N9+02551+02151101391ADDAA106000091AG10000GF104991041051012501001001KA1240M+02941MA1999999101321MD1999999-0101REMSYN017 333 10294 59010;EQDQ01+000002VOVAR 
0151830960999991996060312004-10917-037050FM-12+000699999V0202201N00051220001CN0200001N1+02511+02271101571ADDAA106000091AG10000GF102991021051012501001001KA1240N+02201MA1999999101501MD1999999+0011REMSYN053 22201 10251 20227 30150 40157 82500 333 20220 58001;
0096830960999991996060318004-10917-037050FM-12+000699999V0200901N00101012001CN0200001N1+02741+02261101331ADDAA106000091AG10000GF106991061051012501001001MA1999999101261MD1999999-0101REMSYN011 333 59010;
0140830960999991996060400004-10917-037050FM-12+000699999V0200901N00101045001CN9999999N9+02461+02301101391ADDAA106013091AG10000GF106991041051012501031001KA1240M+02841MA1999999101321MD1999999+0001REMSYN023 333 10284 58000 60131;EQDQ01+000002VOVAR 
0143830960999991996060412004-10917-037050FM-12+000699999V0201401N00151007501CN0100001N1+02361+02281101561ADDAA124031091AG10004AY161061AY261061GF108991081071008001999999KA1240N+02381MA1999999101491MD1999999-0011MW1601REMSYN023 333 20238 59001 60314;
0162830960999991996060500004-10917-037050FM-12+000699999V0201401N00101007501CN9999999N9+02311+02201101551ADDAA106023091AG10004AY161061AY261061GF108991081071008001999999KA1240M+02651MA1999999101381MD1999999+0161MW1601REMSYN023 333 10265 58016 60231;EQDQ01+000002VOVAR 
0115830960999991996060518004-10917-037050FM-12+000699999V0200901N04632045001CN0200001N1+02731+02171101591ADDAA106000091AG10000GF107991041051012501031001MA1999999101521MD1999999+0251REMSYN011 333 58025;EQDQ01+004633WOSPD 
0134830960999991996060600004-10917-037050FM-12+000699999V0201401N00051012001CN9999999N9+02571+02211101571ADDAA106000091AG10000GF106991061051012501001001KA1240M+02861MA1999999101501MD1999999+0021REMSYN017 333 10286 58002;EQDQ01+000002VOVAR 
0134830960999991996060612004-10917-037050FM-12+000699999V0200901N00101045001CN0200001N1+01781+99999101811ADDAA106000091AG10000GF105991031051012501031001KA1240N+99999MA1999999101741MD1999999+0041REMSYN017 333 20239 58004;EQDQ01 +02392ATMN  
0102830960999991996060618004-10917-037050FM-12+000699999V0201401N00101220001CN0200001N1+02731+02261101561ADDAA106004091AG10000GF102991021021012501051001MA1999999101491MD1999999-0031REMSYN017 333 59003 60041;
0134830960999991996060700004-10917-037050FM-12+000699999V0201401N00051220001CN9999999N9+02601+02201101601ADDAA106000091AG10000GF102991021011012501001001KA1240M+02891MA1999999101531MD1999999+0031REMSYN017 333 10289 58003;EQDQ01+000002VOVAR 
0121830960999991996060712004-10917-037050FM-12+000699999V0201401N00051220001CN0200001N1+02721+02281101681ADDAA124001091AG10000GF102991021051012501001001KA1240N+02401MA1999999101611MD1999999-0131REMSYN023 333 20240 59013 69984;
0096830960999991996060718004-10917-037050FM-12+000699999V0200901N00101220001CN0200001N1+02761+02281101471ADDAA106000091AG10000GF101991011051012501001001MA1999999101401MD1999999-0041REMSYN011 333 59004;
0134830960999991996060800004-10917-037050FM-12+000699999V0201401N00101220001CN9999999N9+02571+02151101571ADDAA106000091AG10000GF104991041051012501001001KA1240M+02881MA1999999101501MD1999999-0031REMSYN017 333 10288 59003;EQDQ01+000002VOVAR 
0121830960999991996060812004-10917-037050FM-12+000699999V0201401N00101220001CN0200001N1+02781+02251101611ADDAA124003091AG10000GF104991021051012501031001KA1240N+02401MA1999999101541MD1999999-0071REMSYN023 333 20240 59007 60034;
0096830960999991996060818004-10917-037050FM-12+000699999V0201401N00101220001CN0200001N1+02751+02141101611ADDAA106000091AG10000GF103991031051012501001001MA1999999101541MD1999999+0141REMSYN011 333 58014;
0134830960999991996060912004-10917-037050FM-12+000699999V0200701N04222220001CN0200001N1+02791+02041101761ADDAA106000091AG10000GF101991011011012501001001KA1240N+02391MA1999999101691MD1999999+0151REMSYN017 333 20239 58015;EQDQ01+004223WOSPD 
0096830960999991996060918004-10917-037050FM-12+000699999V0201401N00051220001CN0200001N1+02711+02111101701ADDAA106000091AG10000GF101991011051012501001001MA1999999101631MD1999999+0091REMSYN011 333 58009;
0134830960999991996061000004-10917-037050FM-12+000699999V0201401N00101220001CN9999999N9+02561+02021101681ADDAA106000091AG10000GF102991021011012501001001KA1240M+02881MA1999999101611MD1999999-0011REMSYN017 333 10288 59001;EQDQ01+000002VOVAR 
0121830960999991996061012004-10917-037050FM-12+000699999V0201401N00101220001CN0200001N1+02731+02191101771ADDAA124000191AG10000GF104991041051012501001001KA1240N+02391MA1999999101701MD1999999+0011REMSYN023 333 20239 58001 69924;
0096830960999991996061018004-10917-037050FM-12+000699999V0201401N00101220001CN0200001N1+02711+02131101611ADDAA106000091AG10000GF101991011051012501001001MA1999999101541MD1999999+0091REMSYN011 333 58009;
0162830960999991996061100004-10917-037050FM-12+000699999V0201401N00101007501CN9999999N9+02501+02261101571ADDAA106001091AG10004AY161061AY261061GF108991081051008001999999KA1240M+02871MA1999999101501MD1999999-0111MW1601REMSYN023 333 10287 59011 60011;EQDQ01+000002VOVAR 
0121830960999991996061112004-10917-037050FM-12+000699999V0201401N00101220001CN0200001N1+02721+02171101781ADDAA124002091AG10000GF102991021051012501001001KA1240N+02411MA1999999101611MD1999999-0091REMSYN023 333 20241 59009 60024;
0134830960999991996061200004-10917-037050FM-12+000699999V0201401N00051220001CN9999999N9+99999+99999101531ADDAA106000091AG10000GF102991021011012501001001KA1240M+02841MA1999999101461MD1999999-0041REMSYN017 333 10284 59004;EQDQ01+000002VOVAR 
0115830960999991996061212004-10917-037050FM-12+000699999V0201401N00051220001CN0200001N1+02771+02231101801ADDAA106000091AG10000GF102991021051012501001001KA1240N+02361MA1999999101731MD1999999+0121REMSYN017 333 20236 58012;
0096830960999991996061218004-10917-037050FM-12+000699999V0201401N00101220001CN0200001N1+02761+02281101651ADDAA106000091AG10000GF104991041051012501001001MA1999999101581MD1999999+0181REMSYN011 333 58018;
0140830960999991996061300004-10917-037050FM-12+000699999V0201401N00101012001CN9999999N9+02541+02141101581ADDAA106002091AG10000GF106991061051012501001001KA1240M+02881MA1999999101511MD1999999+0051REMSYN023 333 10288 58005 60021;EQDQ01+000002VOVAR 
0121830960999991996061312004-10917-037050FM-12+000699999V0200501N00101045001CN0200001N1+02641+02331101681ADDAA124003091AG10000GF105991021051012501031001KA1240N+02311MA1999999101611MD1999999-0121REMSYN023 333 20231 59012 60034;
0124830960999991996061318004-10917-037050FM-12+000699999V0201401N00151007501CN0100001N1+02301+02221101481ADDAA106019091AG10004AY161061AY261061GF108991081071008001999999MA1999999101411MD1999999-0171MW1601REMSYN017 333 59017 60191;
0140830960999991996061412004-10917-037050FM-12+000699999V0201401N00101220001CN9999999N9+02711+02261101741ADDAA124024091AG10000GF102991021051012501001001KA1240N+02301MA1999999101671MD1999999+0061REMSYN023 333 20230 58006 60244;EQDQ01+000002VOVAR 
0102830960999991996061418004-10917-037050FM-12+000699999V0201401N00101220001CN0200001N1+02701+02081101411ADDAA106002091AG10000GF104991021051012501031001MA1999999101341MD1999999-0071REMSYN017 333 59007 60021;
0134830960999991996061500004-10917-037050FM-12+000699999V0201401N00051220001CN9999999N9+02511+02031101571ADDAA106000091AG10000GF101991011011012501001001KA1240M+02841MA1999999101501MD1999999+0011REMSYN017 333 10284 58001;EQDQ01+000002VOVAR 
0121830960999991996061512004-10917-037050FM-12+000699999V0201401N00051007501CN0100001N1+02661+02311101641ADDAA124002091AG10000GF108991081051008001999999KA1240N+02291MA1999999101571MD1999999-0101REMSYN023 333 20229 59010 60024;
0124830960999991996061518004-10917-037050FM-12+000699999V0201401N00101007501CN0100001N1+02581+02251101521ADDAA106004091AG10004AY161061AY261061GF108991081051008001999999MA1999999101451MD1999999+0091MW1601REMSYN017 333 58009 60041;
0134830960999991996061600004-10917-037050FM-12+000699999V0201401N00051012001CN9999999N9+02421+02211101381ADDAA106000091AG10000GF106991061051012501001001KA1240M+02731MA1999999101311MD1999999-0191REMSYN017 333 10273 59019;EQDQ01+000002VOVAR 
