0134831820999991996010100004-11300-041867FM-12+074799999V0200901N00101015001CN9999999N9+02281+02011101251ADDAA106000091AG10000GF108991051001017501011011KA1240M+02741MA1999999092931MD1999999-0091REMSYN017 333 10274 59009;EQDQ01+000002VOVAR 
0115831820999991996010112004-11300-041867FM-12+074799999V0200501N00511045001CN0200001N1+02351+01911101431ADDAA106000091AG10000GF108991021051008001051011KA1240N+01941MA1999999093081MD1999999-0031REMSYN017 333 20194 59003;
0096831820999991996010118004-11300-041867FM-12+074799999V0200501N00311045001CN0100001N1+02771+01941100981ADDAA106000091AG10000GF108991011031008001011011MA1999999092691MD1999999+0071REMSYN011 333 58007;
0134831820999991996010200004-11300-041867FM-12+074799999V0201401N00311220001CN9999999N9+02201+01941101301ADDAA106000091AG10000GF108991001001999999001011KA1240M+02821MA1999999092961MD1999999+0031REMSYN017 333 10282 58003;EQDQ01+000002VOVAR 
0115831820999991996010212004-11300-041867FM-12+074799999V0200901N00361220001CN0100001N1+02391+01891101451ADDAA106000091AG10000GF108991021021008001001011KA1240N+01921MA1999999093101MD1999999+0021REMSYN017 333 20192 58002;
0096831820999991996010218004-11300-041867FM-12+074799999V0200901N00311220001CN0100001N1+02811+01871101021ADDAA106000091AG10000GF108991011021008001001011MA1999999092731MD1999999+0041REMSYN011 333 58004;
0134831820999991996010300004-11300-041867FM-12+074799999V0201401N00211220001CN9999999N9+02081+01841101321ADDAA106000091AG10000GF108991001001999999001011KA1240M+02851MA1999999092971MD1999999+0011REMSYN017 333 10285 58001;EQDQ01+000002VOVAR 
0115831820999991996010312004-11300-041867FM-12+074799999V0200901N00461220001CN0100001N1+02391+01821101481ADDAA106000091AG10000GF105991011021008001001011KA1240N+01821MA1999999093121MD1999999+0021REMSYN017 333 20182 58002;
0096831820999991996010318004-11300-041867FM-12+074799999V0201401N00151220001CN0100001N1+02971+01661101061ADDAA106000091AG10000GF106991011021008001001011MA1999999092741MD1999999+0011REMSYN011 333 58001;
0134831820999991996010400004-11300-041867FM-12+074799999V0200901N00411220001CN9999999N9+02231+01731101221ADDAA106000091AG10000GF103991001001999999001011KA1240M+02971MA1999999092891MD1999999-0081REMSYN017 333 10297 59008;EQDQ01+000002VOVAR 
0115831820999991996010412004-11300-041867FM-12+074799999V0200901N00361007501CN0100001N1+02291+01811101541ADDAA106000091AG10000GF108991081051008001999999KA1240N+01931MA1999999093171MD1999999+0051REMSYN017 333 20193 58005;
0096831820999991996010418004-11300-041867FM-12+074799999V0200901N00311045001CN0200001N1+02831+01801101181ADDAA106000091AG10000GF108991041021008001051011MA1999999092871MD1999999+0131REMSYN011 333 58013;
0134831820999991996010500004-11300-041867FM-12+074799999V0200901N00361220001CN9999999N9+02191+01741101301ADDAA106000091AG10000GF108991001001999999001011KA1240M+02821MA1999999092951MD1999999+0061REMSYN017 333 10282 58006;EQDQ01+000002VOVAR 
0131831820999991996010512004-11300-041867FM-12+074799999V0201401N00621220001CN0100001N1+02321+01631101371ADDAA106000091AG10000GA1001+999999999GF100991001001999999001001KA1240N+01681MA1999999093021MD1999999-0151REMSYN017 333 20168 59015;
0096831820999991996010518004-11300-041867FM-12+074799999V0200901N00151220001CN0100001N1+03031+01471100911ADDAA106000091AG10000GF102991011021008001001011MA1999999092631MD1999999-0271REMSYN011 333 59027;
0115831820999991996010612004-11300-041867FM-12+074799999V0201401N00101007501CN0100001N1+02391+01781101291ADDAA106000091AG10000GF105991051021008001001001KA1240N+01781MA1999999092951MD1999999-0071REMSYN017 333 20178 59007;
0096831820999991996010618004-11300-041867FM-12+074799999V0200901N00311220001CN0100001N1+02971+01711100901ADDAA106000091AG10000GF102991011021008001001011MA1999999092611MD1999999-0021REMSYN011 333 59002;
0150831820999991996010700004-11300-041867FM-12+074799999V0200901N00361220001CN9999999N9+02251+01641101091ADDAA106000091AG10000GA1001+999999999GF100991001001999999001001KA1240M+02981MA1999999092071MD1999999+0021REMSYN017 333 10298 58002;EQDQ01+000002VOVAR 
0101831820999991996010712004-11300-041867FM-12+074799999V0200901N00461007501CN0100001N1+02401+01731101371ADDAA106000091AG10000GF106991061021008001001001KA1240N+01701MA1999999093041REMSYN017 333 20170 59909;
0096831820999991996010718004-11300-041867FM-12+074799999V0201401N00311220001CN0100001N1+02951+01661101071ADDAA106000091AG10000GF107991031021008001001011MA1999999092771MD1999999+0161REMSYN011 333 58016;
0134831820999991996010800004-11300-041867FM-12+074799999V0201401N00361220001CN9999999N9+02241+01711101291ADDAA106000091AG10000GF104991001001999999001011KA1240M+03001MA1999999092951MD1999999+0181REMSYN017 333 10300 58018;EQDQ01+000002VOVAR 
0115831820999991996010812004-11300-041867FM-12+074799999V0200901N00261007501CN0100001N1+02361+01801101581ADDAA106000091AG10000GF106991061021008001001001KA1240N+01861MA1999999093221MD1999999+0181REMSYN017 333 20186 58018;
0096831820999991996010818004-11300-041867FM-12+074799999V0200901N00261220001CN0100001N1+02991+01661101081ADDAA106000091AG10000GF102991021021008001001001MA1999999092801MD1999999+0031REMSYN011 333 58003;
0134831820999991996010900004-11300-041867FM-12+074799999V0201401N00361220001CN9999999N9+02301+01631101311ADDAA106000091AG10000GF102991001001999999001011KA1240M+03011MA1999999092981MD1999999+0031REMSYN017 333 10301 58003;EQDQ01+000002VOVAR 
0115831820999991996010912004-11300-041867FM-12+074799999V0200901N00411007501CN0100001N1+02581+01851101611ADDAA106000091AG10000GF108991061021008001001011KA1240N+01851MA1999999093271MD1999999-0051REMSYN017 333 20185 59005;
0096831820999991996010918004-11300-041867FM-12+074799999V0200501N00261220001CN0100001N1+03011+01711101161ADDAA106000091AG10000GF106991021021008001001011MA1999999092871MD1999999+0071REMSYN011 333 58007;
0134831820999991996011000004-11300-041867FM-12+074799999V0201401N00261220001CN9999999N9+02251+01681101331ADDAA106000091AG10000GF106991001001999999001011KA1240M+03031MA1999999093021MD1999999+0041REMSYN017 333 10303 58004;EQDQ01+000002VOVAR 
0115831820999991996011012004-11300-041867FM-12+074799999V0201401N00311220001CN0100001N1+02501+01641101421ADDAA106000091AG10000GF108991001001999999001011KA1240N+01881MA1999999093091MD1999999-0181REMSYN017 333 20188 59018;
0096831820999991996011018004-11300-041867FM-12+074799999V0200901N00511220001CN0100001N1+03101+01541100931ADDAA106000091AG10000GF102991011021008001001011MA1999999092661MD1999999-0211REMSYN011 333 59021;
0134831820999991996011100004-11300-041867FM-12+074799999V0200901N00461220001CN9999999N9+02361+01591101101ADDAA106000091AG10000GF104991001001999999001011KA1240M+03161MA1999999092811MD1999999+0211REMSYN017 333 10316 58021;EQDQ01+000002VOVAR 
0115831820999991996011112004-11300-041867FM-12+074799999V0200901N00461007501CN0100001N1+02361+01841101371ADDAA106000091AG10000GF108991081051008001999999KA1240N+01921MA1999999093041MD1999999-0051REMSYN017 333 20192 59005;
0096831820999991996011118004-11300-041867FM-12+074799999V0200501N00461220001CN0100001N1+02931+01671100991ADDAA106000091AG10000GF108991021021008001001011MA1999999092611MD1999999-0051REMSYN011 333 59005;
0134831820999991996011200004-11300-041867FM-12+074799999V0201401N00411220001CN9999999N9+02441+01561101141ADDAA106000091AG10000GF108991021021008001001011KA1240M+02961MA1999999092841MD1999999+0031REMSYN017 333 10296 58003;EQDQ01+000002VOVAR 
0115831820999991996011212004-11300-041867FM-12+074799999V0200901N00311220001CN0100001N1+02501+01721101371ADDAA106000091AG10000GF108991021021008001001011KA1240N+02021MA1999999093051MD1999999+0011REMSYN017 333 20202 58001;
0096831820999991996011218004-11300-041867FM-12+074799999V0209999999999045001CN0100001N1+03031+01151100881ADDAA106000091AG10000GF108991021021008001031011MA1999999092621MD1999999+0011REMSYN011 333 58001;
0134831820999991996011300004-11300-041867FM-12+074799999V0200901N00261220001CN9999999N9+02311+01461101081ADDAA106000091AG10000GF108991001001999999001011KA1240M+03041MA1999999092781MD1999999-0061REMSYN017 333 10304 59006;EQDQ01+000002VOVAR 
0115831820999991996011312004-11300-041867FM-12+074799999V0200901N00511007501CN0100001N1+02441+01711101251ADDAA106000091AG10000GF106991051021008001001011KA1240N+01761MA1999999092941MD1999999-0111REMSYN017 333 20176 59011;
0096831820999991996011318004-11300-041867FM-12+074799999V0200901N00411105001CN0100001N1+02841+01461100961ADDAA106000091AG10000GF108991021021008001001021MA1999999092661MD1999999+0041REMSYN011 333 58004;
0134831820999991996011400004-11300-041867FM-12+074799999V0200901N00411220001CN9999999N9+02291+01491101131ADDAA106000091AG10000GF108991011021008001001011KA1240M+02941MA1999999092821MD1999999+0041REMSYN017 333 10294 58004;EQDQ01+000002VOVAR 
0115831820999991996011412004-11300-041867FM-12+074799999V0200901N00571007501CN0040001N1+02371+01691101361ADDAA106000091AG10000GF106991061021008001001001KA1240N+01761MA1999999093031MD1999999+0091REMSYN017 333 20176 58009;
0096831820999991996011418004-11300-041867FM-12+074799999V0201801N00261007501CN0040001N1+03081+01561100951ADDAA106000091AG10000GF105991051021008001001001MA1999999092681MD1999999+0021REMSYN011 333 58002;
0150831820999991996011500004-11300-041867FM-12+074799999V0201401N00311220001CN9999999N9+02331+01701101091ADDAA106000091AG10000GA1001+999999999GF100991001001999999001001KA1240M+03101MA1999999092781MD1999999-0041REMSYN017 333 10310 59004;EQDQ01+000002VOVAR 
0115831820999991996011512004-11300-041867FM-12+074799999V0201401N00411007501CN0100001N1+02331+01741101391ADDAA106000091AG10000GF107991071051008001001001KA1240N+01781MA1999999093051MD1999999+0021REMSYN017 333 20178 58002;
0096831820999991996011518004-11300-041867FM-12+074799999V0201401N00361220001CN0100001N1+03061+01551100841ADDAA106000091AG10000GF102991011021008001001011MA1999999092571MD1999999-0111REMSYN011 333 59011;
0156831820999991996011600004-11300-041867FM-12+074799999V0200901N00571220001CN9999999N9+02371+01691101111ADDAA106000091AG10000AY101061AY201061GF104991021001017501011011KA1240M+03051MA1999999092801MD1999999+0021MW1131REMSYN017 333 10305 58002;EQDQ01+000002VOVAR 
0134831820999991996011612004-11300-041867FM-12+074799999V0201401N00571007501CN0100001N1+02381+01781101201ADDAA106000091AG10000GF108991061021008001001011KA1240N+01781MA1999999999999MD1999999-0161REMSYN017 333 20178 59016;EQDQ01 097893APOSP 
0115831820999991996011618004-11300-041867FM-12+074799999V0201801N00311220001CN0040001N1+02951+01551100811ADDAA106000091AG10000GF107991031021008001001011MA1999999092542MD1999999-0031REMSYN011 333 59003;EQDQ01+092543APOSP 
0156831820999991996011700004-11300-041867FM-12+074799999V0201401N00211220001CN9999999N9+02291+01611100961ADDAA106000091AG10000AY121061AY221061GF106991011021008001001011KA1240M+02971MA1999999092661MD1999999-0141MW1131REMSYN017 333 10297 59014;EQDQ01+000002VOVAR 
0115831820999991996011712004-11300-041867FM-12+074799999V0201401N00411007501CN0100001N1+02521+01911101161ADDAA106000091AG10000GF108991061021008001001011KA1240N+01901MA1999999092851MD1999999-0041REMSYN017 333 20190 59004;
0118831820999991996011718004-11300-041867FM-12+074799999V0200901N00311045001CN0040001N1+02851+02151100761ADDAA106000091AG10000AY121061AY221061GF108991031031004501011011MA1999999092491MD1999999-0051MW1151REMSYN011 333 59005;
0118831820999991996011818004-11300-041867FM-12+074799999V0203601N00151045001CN0020001N1+03021+01661100731ADDAA106000091AG10000AY121061AY221061GF108991041061004501021011MA1999999092481MD1999999-0011MW1161REMSYN011 333 59001;
0134831820999991996011900004-11300-041867FM-12+074799999V0200901N00211220001CN9999999N9+02441+01901100941ADDAA106000091AG10000GF108991031021008001001011KA1240M+03091MA1999999092661MD1999999-0051REMSYN017 333 10309 59005;EQDQ01+000002VOVAR 
0115831820999991996011912004-11300-041867FM-12+074799999V0200901N00261007501CN0100001N1+02601+01961101111ADDAA106000091AG10000GF107991071021008001001001KA1240N+01941MA1999999092831MD1999999-0071REMSYN017 333 20194 59007;
0096831820999991996011918004-11300-041867FM-12+074799999V0201801N00211220001CN0040001N1+03261+01761100641ADDAA106000091AG10000GF102991011021008001031011MA1999999092441MD1999999-0041REMSYN011 333 59004;
0156831820999991996012000004-11300-041867FM-12+074799999V0201401N00311220001CN9999999N9+02571+01831100861ADDAA106000091AG10000AY101061AY201061GF102991001001999999001011KA1240M+03301MA1999999092611MD1999999-0051MW1131REMSYN017 333 10330 59005;EQDQ01+000002VOVAR 
0115831820999991996012012004-11300-041867FM-12+074799999V0201401N00261007501CN0040001N1+02351+01911101161ADDAA106000091AG10000GF108991081051008001999999KA1240N+02021MA1999999092861MD1999999+0031REMSYN017 333 20202 58003;
0096831820999991996012018004-11300-041867FM-12+074799999V0200901N00211220001CN0100001N1+03071+01471100751ADDAA106000091AG10000GF104991041021008001001001MA1999999092511MD1999999+0071REMSYN011 333 58007;
0134831820999991996012100004-11300-041867FM-12+074799999V0201401N00311007501CN9999999N9+02631+01591100941ADDAA106000091AG10000GF107991061021008001001011KA1240M+03181MA1999999092661MD1999999-0051REMSYN017 333 10318 59005;EQDQ01+000002VOVAR 
0137831820999991996012112004-11300-041867FM-12+074799999V0201401N00411045001CN0020001N1+02481+01881101221ADDAA106000091AG10000AY121061AY221061GF108991021021004501021011KA1240N+02161MA1999999092941MD1999999+0081MW1161REMSYN017 333 20216 58008;
0096831820999991996012118004-11300-041867FM-12+074799999V0201801N00261220001CN0100001N1+03031+01661100851ADDAA106000091AG10000GF104991031021008001061001MA1999999092601MD1999999+0091REMSYN011 333 58009;
0150831820999991996012200004-11300-041867FM-12+074799999V0200901N00361220001CN9999999N9+02421+01701100811ADDAA106000091AG10000GA1001+999999999GF100991001001999999001001KA1240M+03081MA1999999092541MD1999999-0121REMSYN017 333 10308 59012;EQDQ01+000002VOVAR 
0115831820999991996012212004-11300-041867FM-12+074799999V0201401N00461220001CN0100001N1+02521+01781101081ADDAA106000091AG10000GF102991021021008001001001KA1240N+01821MA1999999092801MD1999999-0141REMSYN017 333 20182 59014;
0096831820999991996012218004-11300-041867FM-12+074799999V0201401N00311220001CN0100001N1+03211+01461100661ADDAA106000091AG10000GF102991021021008001001001MA1999999092431MD1999999-0171REMSYN011 333 59017;
0156831820999991996012300004-11300-041867FM-12+074799999V0201401N00311220001CN9999999N9+02421+01541100791ADDAA106000091AG10000AY101061AY201061GF102991001001999999001011KA1240M+03211MA1999999092531MD1999999-0011MW1131REMSYN017 333 10321 59001;EQDQ01+000002VOVAR 
0115831820999991996012312004-11300-041867FM-12+074799999V0200901N00361220001CN0100001N1+02471+01681101171ADDAA106000091AG10000GF104991021021008001051011KA1240N+01921MA1999999092871MD1999999+0071REMSYN017 333 20192 58007;
0096831820999991996012318004-11300-041867FM-12+074799999V0200901N00461220001CN0100001N1+02971+01641100841ADDAA106000091AG10000GF102991021021008001001001MA1999999092571MD1999999+0141REMSYN011 333 58014;
0172831820999991996012400004-11300-041867FM-12+074799999V0200901N00151220001CN9999999N9+02331+01371100981ADDAA106000091AG10000AY101061AY201061GA1001+999999999GF100991001001999999001001KA1240M+03091MA1999999092691MD1999999+0161MW1131REMSYN017 333 10309 58016;EQDQ01+000002VOVAR 
0096831820999991996012418004-11300-041867FM-12+074799999V0200501N00101220001CN0100001N1+03241+01411101031ADDAA106000091AG10000GF104991031021008001001011MA1999999092761MD1999999+0191REMSYN011 333 58019;
0136831820999991996012500004-11300-041867FM-12+074799999V0201401N00411220001CN9999999N9+02601+01511101131ADDAA106000091AG10000AY101061AY201061GF102991001001999999001011KA1999M+03261MA1999999092851MW1131REMSYN011 333 10326;EQDQ01+000002VOVAR 
0134831820999991996012512004-11300-041867FM-12+074799999V0200901N004119999999N0040001N1+02581+01871101431ADDAA106000091AG10000GF106991999051008001001001KA1240N+02161MA1999999093141MD1999999+0051REMSYN017 333 20216 58005;EQDQ01+000042SCOTLC
0096831820999991996012518004-11300-041867FM-12+074799999V0200901N00461220001CN0040001N1+03251+01581101031ADDAA106000091AG10000GF104991011021008001001011MA1999999092791MD1999999+0031REMSYN011 333 58003;
0134831820999991996012600004-11300-041867FM-12+074799999V0200901N00311220001CN9999999N9+02561+01591101121ADDAA106000091AG10000GF102991001001999999001011KA1240M+03281MA1999999092841MD1999999-0011REMSYN017 333 10328 59001;EQDQ01+000002VOVAR 
0115831820999991996012612004-11300-041867FM-12+074799999V0200901N00721220001CN0100001N1+02531+01741101241ADDAA106000091AG10000GF104991031021008001051001KA1240N+02001MA1999999092951MD1999999-0191REMSYN017 333 20200 59019;
0096831820999991996012618004-11300-041867FM-12+074799999V0201401N00671220001CN0100001N1+03161+01431100861ADDAA106000091AG10000GF101991011021008001001001MA1999999092621MD1999999-0171REMSYN011 333 59017;
0172831820999991996012700004-11300-041867FM-12+074799999V0200901N00361220001CN9999999N9+02481+01401101021ADDAA106000091AG10000AY101061AY201061GA1001+999999999GF100991001001999999001001KA1240M+03161MA1999999092741MD1999999-0101MW1131REMSYN017 333 10316 59010;EQDQ01+000002VOVAR 
0115831820999991996012712004-11300-041867FM-12+074799999V0201401N00361220001CN0200001N1+02451+01641101231ADDAA106000091AG10000GF102991011011012501001011KA1240N+01761MA1999999092931MD1999999-0021REMSYN017 333 20176 59002;
0096831820999991996012718004-11300-041867FM-12+074799999V0201401N00361220001CN0200001N1+03231+01081100761ADDAA106000091AG10000GF102991011011012501001011MA1999999092521MD1999999-0101REMSYN011 333 59010;
0150831820999991996012800004-11300-041867FM-12+074799999V0201401N00411220001CN9999999N9+02421+01791100951ADDAA106000091AG10000GA1001+999999999GF100991001001999999001001KA1240M+03201MA1999999092661MD1999999-0081REMSYN017 333 10320 59008;EQDQ01+000002VOVAR 
0115831820999991996012812004-11300-041867FM-12+074799999V0200901N00571007501CN0100001N1+02441+01761101161ADDAA106000091AG10000GF108991081051008001999999KA1240N+02101MA1999999092861MD1999999-0071REMSYN017 333 20210 59007;
0096831820999991996012818004-11300-041867FM-12+074799999V0201801N00361220001CN0200001N1+03211+01421100711ADDAA106000091AG10000GF102991021021008001001001MA1999999092491MD1999999-0031REMSYN011 333 59003;
0150831820999991996012900004-11300-041867FM-12+074799999V0201401N00411220001CN9999999N9+02521+01461100941ADDAA106000091AG10000GA1001+999999999GF100991001001999999001001KA1240M+03251MA1999999092661MD1999999+0001REMSYN017 333 10325 58000;EQDQ01+000002VOVAR 
0115831820999991996012912004-11300-041867FM-12+074799999V0200901N00621007501CN0100001N1+02611+01821101221ADDAA106000091AG10000GF106991061021008001001001KA1240N+01881MA1999999092941MD1999999+0081REMSYN017 333 20188 58008;
0096831820999991996012918004-11300-041867FM-12+074799999V0200901N00461220001CN0100001N1+03191+01531100861ADDAA106000091AG10000GF103991031021008001001001MA1999999092611MD1999999+0121REMSYN011 333 58012;
0150831820999991996013000004-11300-041867FM-12+074799999V0201401N00511220001CN9999999N9+02531+01241101001ADDAA106000091AG10000GA1001+999999999GF100991001001999999001001KA1240M+03221MA1999999092731MD1999999+0071REMSYN017 333 10322 58007;EQDQ01+000002VOVAR 
0115831820999991996013012004-11300-041867FM-12+074799999V0200901N00461220001CN0200001N1+02651+01771101271ADDAA106000091AG10000GF101991011021008001001001KA1240N+01981MA1999999092991MD1999999+0051REMSYN017 333 20198 58005;
0096831820999991996013018004-11300-041867FM-12+074799999V0201401N00311220001CN0100001N1+03311+01091100791ADDAA106000091AG10000GF104991041021008001001001MA1999999092571MD1999999-0041REMSYN011 333 59004;
0150831820999991996013100004-11300-041867FM-12+074799999V0200901N00361220001CN9999999N9+02631+01501101011ADDAA106000091AG10000GA1001+999999999GF100991001001999999001001KA1240M+03381MA1999999092751MD1999999+0021REMSYN017 333 10338 58002;EQDQ01+000002VOVAR 
0115831820999991996013112004-11300-041867FM-12+074799999V0200901N00461007501CN0100001N1+02491+01781101211ADDAA106000091AG10000GF106991061021008001001001KA1240N+01861MA1999999092931MD1999999-0061REMSYN017 333 20186 59006;
0096831820999991996013118004-11300-041867FM-12+074799999V0201801N00261220001CN0100001N1+03331+01281100721ADDAA106000091AG10000GF102991021021008001001011MA1999999092511MD1999999-0061REMSYN011 333 59006;
0134831820999991996020100004-11300-041867FM-12+074799999V0201401N00361220001CN9999999N9+02681+01451100921ADDAA106000091AG10000GF102991001001999999001011KA1240M+03381MA1999999092661MD1999999-0091REMSYN017 333 10338 59009;EQDQ01+000002VOVAR 
0115831820999991996020112004-11300-041867FM-12+074799999V0200501N00311220001CN0040001N1+02551+01731101301ADDAA106000091AG10000GF102991011021008001001011KA1240N+01821MA1999999093021MD1999999+0091REMSYN017 333 20182 58009;
0134831820999991996020200004-11300-041867FM-12+074799999V0200901N00311220001CN9999999N9+02581+01231100971ADDAA106000091AG10000GF102991011001017501051021KA1240M+03271MA1999999092701MD1999999+0041REMSYN017 333 10327 58004;EQDQ01+000002VOVAR 
0115831820999991996020212004-11300-041867FM-12+074799999V0200501N00211007501CN0040001N1+02731+01791101181ADDAA106000091AG10000GF106991061021008001001001KA1240N+02161MA1999999092911MD1999999-0111REMSYN017 333 20216 59011;
0096831820999991996020218004-11300-041867FM-12+074799999V0200501N00211220001CN0100001N1+03411+01451100611ADDAA106000091AG10000GF104991021021008001051011MA1999999092431MD1999999-0181REMSYN011 333 59018;
0134831820999991996020300004-11300-041867FM-12+074799999V0201801N002110450019N9999999N9+02631+01641100921ADDAA106000091AG10000GF108991011021008001031011KA1240M+03421MA1999999092681MD1999999-0021REMSYN017 333 10342 59002;EQDQ01+000002VOVAR 
0115831820999991996020312004-11300-041867FM-12+074799999V0200901N00361045001CN0040001N1+02681+01861101121ADDAA106000091AG10000GF108991011031008001031011KA1240N+02181MA1999999092851MD1999999-0061REMSYN017 333 20218 59006;
0124831820999991996020318004-11300-041867FM-12+074799999V0202301N00311045001CN0020001N1+02651+02051100731ADDAA106003091AG10000AY121061AY221061GF108991041031004501021011MA1999999092481MD1999999+0051MW1291REMSYN017 333 58005 60031;
0156831820999991996020400004-11300-041867FM-12+074799999V0203201N00101105001CN9999999N9+02121+02001101161ADDAA106000091AG10000AY121061AY221061GF108991021001017501031021KA1240M+03161MA1999999092851MD1999999+0171MW1131REMSYN017 333 10316 58017;EQDQ01+000002VOVAR 
0121831820999991996020412004-11300-041867FM-12+074799999V0201401N00411045001CN0200001N1+02491+01851101221ADDAA124003091AG10000GF107991011021008001051011KA1240N+01781MA1999999092891MD1999999+0041REMSYN023 333 20178 58004 60034;
0124831820999991996020418004-11300-041867FM-12+074799999V0203201N00311045001CN0020001N1+02311+02091100871ADDAA106003091AG10000AY121061AY221061GF107991041071004501011011MA1999999092541MD1999999+0061MW1611REMSYN017 333 58006 60031;
0162831820999991996020500004-11300-041867FM-12+074799999V0200501N00051004201CN9999999N9+02071+01961101071ADDAA106000191AG10000AY121061AY221061GF108991051071004501051011KA1240M+03101MA1999999092751MD1999999-0101MW1211REMSYN023 333 10310 59010 69921;EQDQ01+000002VOVAR 
0121831820999991996020512004-11300-041867FM-12+074799999V0200901N00261220001CN0040001N1+02591+01941101181ADDAA124003091AG10000GF102991021021008001001011KA1240N+01861MA1999999092861MD1999999-0031REMSYN023 333 20186 59003 60034;
0096831820999991996020518004-11300-041867FM-12+074799999V0200901N00361220001CN0100001N1+03151+01451100631ADDAA106000091AG10000GF103991021021008001001011MA1999999092411MD1999999-0131REMSYN011 333 59013;
0134831820999991996020600004-11300-041867FM-12+074799999V0203201N00101220001CN9999999N9+02321+02001100951ADDAA106000091AG10000GF102991011021008001001011KA1240M+03251MA1999999092661MD1999999-0091REMSYN017 333 10325 59009;EQDQ01+000002VOVAR 
0137831820999991996020612004-11300-041867FM-12+074799999V0203601N00151007501CN0020001N1+02571+01901101211ADDAA106000091AG10000AY111061AY211061GF106991051021008001031001KA1240N+02001MA1999999092911MD1999999+0051MW1051REMSYN017 333 20200 58005;
0131831820999991996020618004-11300-041867FM-12+074799999V0201401N00261220001CN0100001N1+03071+01551100771ADDAA106000091AG10000GF104991031021008001001011MA1999999999999MD1999999+0121REMSYN011 333 58012;EQDQ01+098533APOSP Q02 098533APOSP 
0172831820999991996020700004-11300-041867FM-12+074799999V0201401N00361220001CN9999999N9+02521+01341101001ADDAA106000091AG10000AY101061AY201061GF102991001001999999001011KA1240M+03281MA1999999092732MD1999999+0071MW1131REMSYN017 333 10328 58007;EQDQ01+092733APOSP Q02+000002VOVAR 
0115831820999991996020712004-11300-041867FM-12+074799999V0201401N00311220001CN0040001N1+02531+01741101401ADDAA106000091AG10000GF108991011011012501001011KA1240N+01851MA1999999093101MD1999999+0191REMSYN017 333 20185 58019;
0096831820999991996020718004-11300-041867FM-12+074799999V0200901N00261220001CN0100001N1+03201+01071101001ADDAA106000091AG10000GF108991041021008001001011MA1999999092741MD1999999+0211REMSYN011 333 58021;
0134831820999991996020800004-11300-041867FM-12+074799999V0201401N00361220001CN9999999N9+02461+01121101171ADDAA106000091AG10000GF108991001001999999001011KA1240M+03241MA1999999092881MD1999999+0151REMSYN017 333 10324 58015;EQDQ01+000002VOVAR 
0096831820999991996020818004-11300-041867FM-12+074799999V0200501N00211220001CN0100001N1+03331+01111100911ADDAA106000091AG10000GF104991031021008001001011MA1999999092671MD1999999-0071REMSYN011 333 59007;
0134831820999991996020900004-11300-041867FM-12+074799999V0200901N00311220001CN9999999N9+02651+01391101071ADDAA106000091AG10000GF102991001001999999001011KA1240M+03391MA1999999092791MD1999999-0091REMSYN017 333 10339 59009;EQDQ01+000002VOVAR 
0115831820999991996020912004-11300-041867FM-12+074799999V0200901N00511220001CN0100001N1+02671+01501101301ADDAA106000091AG10000GF102991011011012501001011KA1240N+01961MA1999999093031MD1999999-0131REMSYN017 333 20196 59013;
0096831820999991996020918004-11300-041867FM-12+074799999V0201801N00361220001CN0100001N1+03311+01261100881ADDAA106000091AG10000GF106991031021008001001011MA1999999092651MD1999999-0021REMSYN011 333 59002;
0134831820999991996021000004-11300-041867FM-12+074799999V0200901N00311220001CN9999999N9+02661+01371100941ADDAA106000091AG10000GF104991001001999999001011KA1240M+03391MA1999999092691MD1999999-0101REMSYN017 333 10339 59010;EQDQ01+000002VOVAR 
0115831820999991996021012004-11300-041867FM-12+074799999V0201401N00411220001CN0100001N1+02671+01331101261ADDAA106000091AG10000GF108991001001999999001011KA1240N+02001MA1999999092991MD1999999-0041REMSYN017 333 20200 59004;
0096831820999991996021018004-11300-041867FM-12+074799999V0201401N00151220001CN0100001N1+03301+01211100791ADDAA106000091AG10000GF106991041021008001001011MA1999999092551MD1999999-0101REMSYN011 333 59010;
0134831820999991996021100004-11300-041867FM-12+074799999V0200901N00361015001CN9999999N9+02761+01391101001ADDAA106000091AG10000GF106991061001017501051001KA1240M+03451MA1999999092751MD1999999+0061REMSYN017 333 10345 58006;EQDQ01+000002VOVAR 
0115831820999991996021112004-11300-041867FM-12+074799999V0201401N00311045001CN0100001N1+02711+01471101261ADDAA106000091AG10000GF108991011021008001051011KA1240N+02001MA1999999093001MD1999999+0011REMSYN017 333 20200 58001;
0096831820999991996021118004-11300-041867FM-12+074799999V0202701N00311007501CN0100001N1+03461+01291100751ADDAA106000091AG10000GF106991061021008001001001MA1999999092511MD1999999-0041REMSYN011 333 59004;
0134831820999991996021200004-11300-041867FM-12+074799999V0201401N00311220001CN9999999N9+02711+01441100941ADDAA106000091AG10000GF102991021001017501051001KA1240M+03491MA1999999092701MD1999999-0051REMSYN017 333 10349 59005;EQDQ01+000002VOVAR 
0115831820999991996021212004-11300-041867FM-12+074799999V0201401N00411220001CN0100001N1+02571+01701101391ADDAA106000091AG10000GF108991001001999999001011KA1240N+02001MA1999999093111MD1999999+0111REMSYN017 333 20200 58011;
0096831820999991996021218004-11300-041867FM-12+074799999V0200901N00361007501CN0100001N1+03061+01701100961ADDAA106000091AG10000GF108991051021008001001011MA1999999092711MD1999999+0201REMSYN011 333 58020;
0162831820999991996021300004-11300-041867FM-12+074799999V0203601N00101220001CN9999999N9+02641+01541101101ADDAA106000191AG10003AY161061AY221061GF108991021001017501051011KA1240M+03331MA1999999092831MD1999999+0131MW1021REMSYN023 333 10333 58013 69921;EQDQ01+000002VOVAR 
0121831820999991996021312004-11300-041867FM-12+074799999V0200901N00571220001CN0100001N1+02701+01601101351ADDAA124000191AG10000GF106991011011012501001011KA1240N+02121MA1999999093071MD1999999-0041REMSYN023 333 20212 59004 69924;
0096831820999991996021318004-11300-041867FM-12+074799999V0201801N00361220001CN0100001N1+03271+01171100861ADDAA106000091AG10000GF103991021021008001001011MA1999999092641MD1999999-0071REMSYN011 333 59007;
0150831820999991996021500004-11300-041867FM-12+074799999V0201401N00821220001CN9999999N9+02391+01661101221ADDAA106000091AG10000GA1001+999999999GF100991001001999999001001KA1240M+03251MA1999999092931MD1999999+0181REMSYN017 333 10325 58018;EQDQ01+000002VOVAR 
0096831820999991996021518004-11300-041867FM-12+074799999V0201401N00621007501CN0100001N1+02991+01511100981ADDAA106000091AG10000GF107991071051008001001001MA1999999092701MD1999999+0061REMSYN011 333 58006;
0150831820999991996021600004-11300-041867FM-12+074799999V0201401N00411220001CN9999999N9+02531+01491101201ADDAA106000091AG10000GA1001+999999999GF100991001001999999001001KA1240M+03121MA1999999092921MD1999999-0011REMSYN017 333 10312 59001;EQDQ01+000002VOVAR 
0115831820999991996021612004-11300-041867FM-12+074799999V0200901N00821007501CN0100001N1+02611+01651101401ADDAA106000091AG10000GF105991051021008001001001KA1240N+02001MA1999999093101MD1999999-0051REMSYN017 333 20200 59005;
0150831820999991996021700004-11300-041867FM-12+074799999V0201401N00571220001CN9999999N9+02521+01661101191ADDAA106000091AG10000GA1001+999999999GF100991001001999999001001KA1240M+03251MA1999999092911MD1999999-0011REMSYN017 333 10325 59001;EQDQ01+000002VOVAR 
0115831820999991996021712004-11300-041867FM-12+074799999V0201401N00671220001CN0100001N1+02731+01561101191ADDAA106000091AG10000GF102991021021008001001001KA1240N+01961MA1999999092921MD1999999-0181REMSYN017 333 20196 59018;
0096831820999991996021718004-11300-041867FM-12+074799999V0200901N00411220001CN0100001N1+03211+01371100791ADDAA106000091AG10000GF103991031021008001001001MA1999999092551MD1999999-0191REMSYN011 333 59019;
0150831820999991996021900004-11300-041867FM-12+074799999V0200901N00571220001CN9999999N9+02671+01711100901ADDAA106000091AG10000GA1001+999999999GF100991001001999999001001KA1240M+03301MA1999999092651MD1999999-0051REMSYN017 333 10330 59005;EQDQ01+000002VOVAR 
0115831820999991996021912004-11300-041867FM-12+074799999V0201401N00511007501CN0100001N1+02681+01811101181ADDAA106000091AG10000GF106991061021008001001001KA1240N+02151MA1999999092921MD1999999+0021REMSYN017 333 20215 58002;
0118831820999991996021918004-11300-041867FM-12+074799999V0200901N00671007501CN0100001N1+02911+01751100811ADDAA106000091AG10000AY121061AY221061GF107991051021008001041001MA1999999092561MD1999999+0101MW1151REMSYN011 333 58010;
0134831820999991996022000004-11300-041867FM-12+074799999V0201401N00511220001CN9999999N9+02441+01761100971ADDAA106000091AG10000GF102991021001017501051001KA1240M+03251MA1999999092701MD1999999+0051REMSYN017 333 10325 58005;EQDQ01+000002VOVAR 
0115831820999991996022012004-11300-041867FM-12+074799999V0200501N00151007501CN0100001N1+02461+01781101341ADDAA106000091AG10000GF108991081051008001999999KA1240N+02021MA1999999095032MD1999999+0111REMSYN017 333 20202 58011;
0162831820999991996022200004-11300-041867FM-12+074799999V0201801N00361045001CN9999999N9+02091+01891101011ADDAA106004091AG10003AY161061AY221061GF107991041031008001021001KA1240M+03321MA1999999092721MD1999999+0031MW1131REMSYN023 333 10332 58003 60041;EQDQ01+000002VOVAR 
0121831820999991996022212004-11300-041867FM-12+074799999V0200501N002610450019N0100001N1+02601+01991101251ADDAA124004091AG10000GF108991011021008001061021KA1240N+02021MA1999999092931MD1999999+0131REMSYN023 333 20202 58013 60044;
0124831820999991996022218004-11300-041867FM-12+074799999V0203601N00211045001CN0100001N1+02761+01891100911ADDAA106000191AG10003AY161061AY221061GF108991021031008001021011MA1999999092631MD1999999+0301MW1021REMSYN017 333 58030 69911;
0162831820999991996022300004-11300-041867FM-12+074799999V0203201N00571045001CN9999999N9+02151+01901101331ADDAA124005091AG10009AY191061AY221061GF108991031031004501021999KA1240M+03151MA1999999093011MD1999999+0291MW1131REMSYN023 333 10315 58029 60054;EQDQ01+000002VOVAR 
0121831820999991996022312004-11300-041867FM-12+074799999V0200901N00411004201CN0100001N1+02531+01981101431ADDAA124005091AG10000GF108991051021004501041011KA1240N+01971MA1999999093091MD1999999+0161REMSYN023 333 20197 58016 60054;
0096831820999991996022318004-11300-041867FM-12+074799999V0200901N00411220001CN0100001N1+03201+01631100911ADDAA106000091AG10000GF103991021021008001041001MA1999999092651MD1999999+0031REMSYN011 333 58003;
0134831820999991996022400004-11300-041867FM-12+074799999V0201401N00151220001CN9999999N9+02471+01711101221ADDAA106000091AG10000GF105991021001017501061011KA1240M+03221MA1999999092931MD1999999-0081REMSYN017 333 10322 59008;EQDQ01+000002VOVAR 
0134831820999991996022412004-11300-041867FM-12+074799999V0201401N001512200019N9999999N9+02471+01711101221ADDAA106000091AG10000GF105991021001017501061011KA1240M+03221MA1999999092931MD1999999-0081REMSYN017 333 10322 59008;EQDQ01+000002VOVAR 
0096831820999991996022418004-11300-041867FM-12+074799999V0201801N00361220001CN0100001N1+03281+00871100921ADDAA106000091AG10000GF103991031021008001001001MA1999999092681MD1999999+0031REMSYN011 333 58003;
0172831820999991996022500004-11300-041867FM-12+074799999V0201401N00411220001CN9999999N9+02641+01281101101ADDAA106000091AG10000AY101061AY201061GA1001+999999999GF100991001001999999001001KA1240M+03341MA1999999092831MD1999999-0101MW1131REMSYN017 333 10334 59010;EQDQ01+000002VOVAR 
0115831820999991996022512004-11300-041867FM-12+074799999V0201401N00571220001CN0100001N1+02801+01391101271ADDAA106000091AG10000GF103991011001017501041011KA1240N+01921MA1999999093011MD1999999-0121REMSYN017 333 20192 59012;
0096831820999991996022518004-11300-041867FM-12+074799999V0201801N00461220001CN0100001N1+03281+01341100881ADDAA106000091AG10000GF102991011011012501001011MA1999999092641MD1999999-0041REMSYN011 333 59004;
0150831820999991996022600004-11300-041867FM-12+074799999V0200901N00311220001CN9999999N9+02511+01391101051ADDAA106000091AG10000GA1001+999999999GF100991001001999999001001KA1240M+03301MA1999999092781MD1999999-0051REMSYN017 333 10330 59005;EQDQ01+000002VOVAR 
0131831820999991996022612004-11300-041867FM-12+074799999V0200901N00311220001CN0100001N1+02601+01821101361ADDAA106000091AG10000GA1001+999999999GF100991001001999999001001KA1240N+01961MA1999999093061MD1999999+0051REMSYN017 333 20196 58005;
0096831820999991996022618004-11300-041867FM-12+074799999V0201401N00311220001CN0100001N1+03291+01131100861ADDAA106000091AG10000GF102991021021008001001001MA1999999092631MD1999999-0011REMSYN011 333 59001;
0150831820999991996022700004-11300-041867FM-12+074799999V0201401N00311220001CN9999999N9+02591+01281101031ADDAA106000091AG10000GA1001+999999999GF100991001001999999001001KA1240M+03321MA1999999092761MD1999999-0021REMSYN017 333 10332 59002;EQDQ01+000002VOVAR 
0115831820999991996022712004-11300-041867FM-12+074799999V0200901N00311220001CN0100001N1+02571+01641101341ADDAA106000091AG10000GF102991021021008001001001KA1240N+01921MA1999999093061MD1999999+0001REMSYN017 333 20192 58000;
0096831820999991996022718004-11300-041867FM-12+074799999V0201801N00261220001CN0100001N1+03321+01171100841ADDAA106000091AG10000GF102991021021008001001001MA1999999092611MD1999999-0021REMSYN011 333 59002;
0115831820999991996022812004-11300-041867FM-12+074799999V0201401N00311220001CN0100001N1+02601+01631101271ADDAA106000091AG10000GF101991011021008001001001KA1240N+01841MA1999999092991MD1999999-0071REMSYN017 333 20184 59007;
0150831820999991996022900004-11300-041867FM-12+074799999V0200901N00411220001CN9999999N9+02611+01381100871ADDAA106000091AG10000GA1001+999999999GF100991001001999999001001KA1240M+03381MA1999999092621MD1999999-0051REMSYN017 333 10338 59005;EQDQ01+000002VOVAR 
0131831820999991996022912004-11300-041867FM-12+074799999V0201401N00571220001CN0100001N1+02661+01681101211ADDAA106000091AG10000GA1001+999999999GF100991001001999999001001KA1240N+01941MA1999999092941MD1999999-0051REMSYN017 333 20194 59005;
0096831820999991996022918004-11300-041867FM-12+074799999V0201801N00311045001CN0100001N1+03431+01311100691ADDAA106000091AG10000GF106991031021008001041011MA1999999092461MD1999999+0001REMSYN011 333 58000;
0134831820999991996030100004-11300-041867FM-12+074799999V0200901N00261220001CN9999999N9+02691+01241100851ADDAA106000091AG10000GF108991011021008001001011KA1240M+03441MA1999999092611MD1999999-0011REMSYN017 333 10344 59001;EQDQ01+000002VOVAR 
0115831820999991996030112004-11300-041867FM-12+074799999V0200901N00311045001CN0100001N1+02631+01731101221ADDAA106000091AG10000GF108991011021008001051011KA1240N+02081MA1999999092951MD1999999+0011REMSYN017 333 20208 58001;
0115831820999991996030113004-11300-041867FM-12+074799999V0200901N00311045001CN0100001N1+02631+01731101221ADDAA106000091AG10999GF108991011021008001051011KA1240N+02081MA1999999092951MD1999999+0011REMSYN017 333 20208 58001;
0096831820999991996030118004-11300-041867FM-12+074799999V0200901N00311220001CN0100001N1+03231+01271100621ADDAA106000091AG10000GF108991041021008001001011MA1999999092411MD1999999-0051REMSYN011 333 59005;
0115831820999991996030212004-11300-041867FM-12+074799999V0200901N00411045001CN0100001N1+02641+01691101341ADDAA106000091AG10000GF108991011021008001051011KA1240N+02221MA1999999093061MD1999999+0111REMSYN017 333 20222 58011;
0096831820999991996030218004-11300-041867FM-12+074799999V0201801N00211045001CN0100001N1+03201+01371100771ADDAA106000091AG10000GF108991031021008001041011MA1999999092561MD1999999+0151REMSYN011 333 58015;
0134831820999991996030300004-11300-041867FM-12+074799999V0200901N00311220001CN9999999N9+02651+01581101031ADDAA106000091AG10000GF108991021001017501041011KA1240M+03281MA1999999092771MD1999999+0121REMSYN017 333 10328 58012;EQDQ01+000002VOVAR 
0115831820999991996030312004-11300-041867FM-12+074799999V0200901N00361045001CN0100001N1+02681+01611101261ADDAA106000091AG10000GF108991031021008001041011KA1240N+02121MA1999999092991MD1999999-0071REMSYN017 333 20212 59007;
0096831820999991996030318004-11300-041867FM-12+074799999V0201801N00151007501CN0100001N1+03181+01441100711ADDAA106000091AG10000GF106991061021008001001001MA1999999092481MD1999999-0081REMSYN011 333 59008;
0134831820999991996030400004-11300-041867FM-12+074799999V0200901N00151220001CN9999999N9+02611+01351100921ADDAA106000091AG10000GF108991041001017501051011KA1240M+03301MA1999999092671MD1999999-0101REMSYN017 333 10330 59010;EQDQ01+000002VOVAR 
0115831820999991996030412004-11300-041867FM-12+074799999V0201401N00261045001CN0100001N1+02651+01721101141ADDAA106000091AG10000GF108991011011012501051011KA1240N+02121MA1999999092871MD1999999-0121REMSYN017 333 20212 59012;
0162831820999991996030600004-11300-041867FM-12+074799999V0201801N00051220001CN9999999N9+02211+02101101161ADDAA106005091AG10003AY161061AY221061GF108991001001999999001011KA1240M+03131MA1999999092861MD1999999+0101MW1021REMSYN023 333 10313 58010 60051;EQDQ01+000002VOVAR 
0143831820999991996030612004-11300-041867FM-12+074799999V0200501N00571007501CN0100001N1+02581+01871101411ADDAA124005091AG10003AY161061AY221061GF108991051021008001001011KA1240N+02081MA1999999093091MD1999999+0171MW1021REMSYN023 333 20208 58017 60054;
0162831820999991996030700004-11300-041867FM-12+074799999V0201801N00151220001CN9999999N9+02331+02091101081ADDAA106000391AG10003AY161061AY261061GF108991001001999999001011KA1240M+03231MA1999999092791MD1999999-0071MW1021REMSYN023 333 10323 59007 69931;EQDQ01+000002VOVAR 
0121831820999991996030712004-11300-041867FM-12+074799999V0201401N00411220001CN0100001N1+02721+01821101241ADDAA124000391AG10000GF104991041021008001001001KA1240N+02041MA1999999092951MD1999999-0141REMSYN023 333 20204 59014 69934;
0143831820999991996030812004-11300-041867FM-12+074799999V0200901N00311007501CN0100001N1+02781+01981101251ADDAA124000591AG10003AY161061AY221061GF106991051021008001001011KA1240N+02021MA1999999092991MD1999999-0041MW1031REMSYN023 333 20202 59004 69944;
0140831820999991996030900004-11300-041867FM-12+074799999V0203201N00151045001CN9999999N9+02251+01981101181ADDAA106007091AG10000GF107991031031004501051011KA1240M+03441MA1999999092891MD1999999+0131REMSYN023 333 10344 58013 60071;EQDQ01+000002VOVAR 
0121831820999991996030912004-11300-041867FM-12+074799999V0200501N00261220001CN0100001N1+02801+02111101421ADDAA124007091AG10000GF105991041021008001001011KA1240N+02141MA1999999093121MD1999999-0131REMSYN023 333 20214 59013 60074;
0156831820999991996031200004-11300-041867FM-12+074799999V0200901N00411220001CN9999999N9+02631+01401100931ADDAA106000091AG10000AY121061AY221061GF108991001001999999001011KA1240M+03301MA1999999092671MD1999999-0191MW1131REMSYN017 333 10330 59019;EQDQ01+000002VOVAR 
0115831820999991996031212004-11300-041867FM-12+074799999V0200901N00361220001CN0100001N1+02631+01641101141ADDAA106000091AG10000GF103991011021008001001011KA1240N+01901MA1999999092871MD1999999-0181REMSYN017 333 20190 59018;
0096831820999991996031218004-11300-041867FM-12+074799999V0200901N00461220001CN0100001N1+03231+01341100601ADDAA106000091AG10000GF103991021021008001001011MA1999999092381MD1999999-0121REMSYN011 333 59012;
0115831820999991996031312004-11300-041867FM-12+074799999V0200901N00311007501CN0100001N1+02781+01731101241ADDAA106000091AG10000GF108991051021008001001011KA1240N+02121MA1999999092981MD1999999+0111REMSYN017 333 20212 58011;
0096831820999991996031318004-11300-041867FM-12+074799999V0200901N00311220001CN0200001N1+03291+01131100721ADDAA106000091AG10000GF106991021021008001001011MA1999999092511MD1999999+0131REMSYN011 333 58013;
0115831820999991996031412004-11300-041867FM-12+074799999V0201401N00621220001CN0100001N1+02751+01441101371ADDAA106000091AG10000GF108991011021008001001011KA1240N+02081MA1999999093111MD1999999+0131REMSYN017 333 20208 58013;
0096831820999991996031518004-11300-041867FM-12+074799999V0200901N00311007501CN0200001N1+03301+01151100811ADDAA106000091AG10000GF108991051021008001001021MA1999999092581MD1999999-0021REMSYN011 333 59002;
0115831820999991996031612004-11300-041867FM-12+074799999V0200901N00511220001CN0100001N1+02731+01741101131ADDAA106000091AG10000GF108991011021008001001011KA1240N+01921MA1999999092871MD1999999-0071REMSYN017 333 20192 59007;
0096831820999991996031618004-11300-041867FM-12+074799999V0200901N00461220001CN0200001N1+03371+01091100601ADDAA106000091AG10000GF103991021021008001001011MA1999999092391MD1999999-0191REMSYN011 333 59019;
0096831820999991996031718004-11300-041867FM-12+074799999V0202301N00101220001CN0500001N1+03441+01961100431ADDAA106000091AG10000GF103991031031004501001001MA1999999095761MD1999999+0051REMSYN011 333 58005;
0115831820999991996031812004-11300-041867FM-12+074799999V0200901N00621220001CN0100001N1+02781+01761101241ADDAA106000091AG10000GF108991011021008001001011KA1240N+02341MA1999999092981MD1999999+0081REMSYN017 333 20234 58008;
0096831820999991996031818004-11300-041867FM-12+074799999V0200901N00511045001CN0100001N1+03131+01601100841ADDAA106000091AG10000GF108991021021008001051021MA1999999092621MD1999999+0181REMSYN011 333 58018;
0134831820999991996031900004-11300-041867FM-12+074799999V0200901N00411220001CN9999999N9+02681+01581101111ADDAA106000091AG10000GF108991031001017501011011KA1240M+03151MA1999999092861MD1999999+0141REMSYN017 333 10315 58014;EQDQ01+000002VOVAR 
0115831820999991996031912004-11300-041867FM-12+074799999V0200901N00571007501CN0100001N1+02671+01681101321ADDAA106000091AG10000GF108991061021008001001011KA1240N+01961MA1999999093051MD1999999+0071REMSYN017 333 20196 58007;
0096831820999991996032018004-11300-041867FM-12+074799999V0201401N00311007501CN0200001N1+03271+01331100731ADDAA106000091AG10000GF106991051021008001001011MA1999999092521MD1999999-0091REMSYN011 333 59009;
0115831820999991996032112004-11300-041867FM-12+074799999V0201401N00311007501CN0100001N1+02661+01701101291ADDAA106000091AG10000GF108991051021008001051011KA1240N+02161MA1999999093021MD1999999+0011REMSYN017 333 20216 58001;
0096831820999991996032218004-11300-041867FM-12+074799999V0200901N00461220001CN0100001N1+03231+01291100751ADDAA106000091AG10000GF104991031021008001001011MA1999999092521MD1999999+0011REMSYN011 333 58001;
0115831820999991996032312004-11300-041867FM-12+074799999V0201401N00211220001CN0100001N1+02591+01721101341ADDAA106000091AG10000GF108991011011012501001011KA1240N+02021MA1999999093061MD1999999-0041REMSYN017 333 20202 59004;
0096831820999991996032418004-11300-041867FM-12+074799999V0203201N00101220001CN0100001N1+03171+01601100741ADDAA106000091AG10000GF104991021021008001001011MA1999999092501MD1999999-0061REMSYN011 333 59006;
0134831820999991996032500004-11300-041867FM-12+074799999V0203601N00211220001CN9999999N9+02711+01781100941ADDAA106000091AG10000GF104991021021008001001011KA1240M+03351MA1999999092711MD1999999-0041REMSYN017 333 10335 59004;EQDQ01+000002VOVAR 
0115831820999991996032512004-11300-041867FM-12+074799999V0200701N00101007501CN0100001N1+02701+02011101111ADDAA106000091AG10000GF107991071021008001001001KA1240N+02221MA1999999092851MD1999999-0111REMSYN017 333 20222 59011;
0118831820999991996032518004-11300-041867FM-12+074799999V0203201N00361004201CN0020001N1+03271+01841100531ADDAA106000091AG10000AY121061AY221061GF106991051031004501999011MA1999999092351MD1999999-0151MW1161REMSYN011 333 59015;
0162831820999991996032600004-11300-041867FM-12+074799999V0200901N00051004201CN9999999N9+02261+02121100931ADDAA106028091AG10003AY161061AY221061GF108991081071004501999999KA1240M+03361MA1999999092651MD1999999-0061MW1021REMSYN023 333 10336 59006 60281;EQDQ01+000002VOVAR 
0134831820999991996032700004-11300-041867FM-12+074799999V0200901N00211045001CN9999999N9+02571+01731101051ADDAA106000091AG10000GF106991011021008001061011KA1240M+03161MA1999999092771MD1999999+0121REMSYN017 333 10316 58012;EQDQ01+000002VOVAR 
0115831820999991996032712004-11300-041867FM-12+074799999V0200901N00411220001CN0100001N1+02491+01651101461ADDAA106000091AG10000GF106991021021008001001011KA1240N+01981MA1999999093151MD1999999+0251REMSYN017 333 20198 58025;
0096831820999991996032718004-11300-041867FM-12+074799999V0201801N00311220001CN0200001N1+03331+00931100911ADDAA106000091AG10000GF106991011021008001001011MA1999999092681MD1999999+0231REMSYN011 333 58023;
0115831820999991996032812004-11300-041867FM-12+074799999V0201401N00311220001CN0100001N1+02531+01631101541ADDAA106000091AG10000GF102991011011012501001011KA1240N+01861MA1999999093231MD1999999+0081REMSYN017 333 20186 58008;
0096831820999991996032818004-11300-041867FM-12+074799999V0201401N00151007501CN0100001N1+03271+01331100991ADDAA106000091AG10000GF105991051021008001001001MA1999999092741MD1999999+0061REMSYN011 333 58006;
0115831820999991996032912004-11300-041867FM-12+074799999V0201401N00411220001CN0100001N1+02561+01701999999ADDAA106000091AG10000GF102991021021008001001001KA1240N+01801MA1999999093131MD1999999-0101REMSYN017 333 20180 59010;
0150831820999991996033000004-11300-041867FM-12+074799999V0200901N00361220001CN9999999N9+02611+01541101111ADDAA106000091AG10000GA1001+999999999GF100991001001999999001001KA1240M+03381MA1999999092841MD1999999-0141REMSYN017 333 10338 59014;EQDQ01+000002VOVAR 
0115831820999991996033012004-11300-041867FM-12+074799999V0200901N00411220001CN0100001N1+02671+01901101281ADDAA106000091AG10000GF105991041021008001001011KA1240N+02121MA1999999093011MD1999999-0121REMSYN017 333 20212 59012;
0096831820999991996033018004-11300-041867FM-12+074799999V0200901N00361220001CN0200001N1+03291+01491100791ADDAA106000091AG10000GF102991011021008001001011MA1999999092561MD1999999-0071REMSYN011 333 59007;
0115831820999991996033112004-11300-041867FM-12+074799999V0200901N00511007501CN0100001N1+02721+01821101291ADDAA106000091AG10000GF108991061021008001001011KA1240N+02141MA1999999093021MD1999999+0011REMSYN017 333 20214 58001;
0124831820999991996033118004-11300-041867FM-12+074799999V0200901N00151220001CN0100001N1+03061+01701100851ADDAA106000391AG10000AY121061AY221061GF108991021021008001001011MA1999999092611MD1999999+0051MW1211REMSYN017 333 58005 69931;
0121831820999991996040112004-11300-041867FM-12+074799999V0200901N00571004201CN0100001N1+02541+01951101471ADDAA124001091AG10000GF108991061071004501021999KA1240N+02141MA1999999093161MD1999999+0141REMSYN023 333 20214 58014 69974;
0124831820999991996040118004-11300-041867FM-12+074799999V0200901N00671045001CN0020001N1+02331+01991101101ADDAA106005091AG10003AY161061AY221061GF108991041031004501021011MA1999999092781MD1999999+0171MW1631REMSYN017 333 58017 60051;
0096831820999991996040218004-11300-041867FM-12+074799999V0200901N00511220001CN0100001N1+03091+01641100941ADDAA106000091AG10000GF102991021021008001001001MA1999999092661MD1999999-0121REMSYN011 333 59012;
0134831820999991996040300004-11300-041867FM-12+074799999V0200901N00461220001CN9999999N9+02451+01761101101ADDAA106000091AG10000GF106991001001999999001011KA1240M+03121MA1999999092821MD1999999-0181REMSYN017 333 10312 59018;EQDQ01+000002VOVAR 
0115831820999991996040312004-11300-041867FM-12+074799999V0201401N00511007501CN0100001N1+02591+01851101321ADDAA106000091AG10000GF106991061021008001001001KA1240N+01981MA1999999093021MD1999999+0081REMSYN017 333 20198 58008;
0096831820999991996040318004-11300-041867FM-12+074799999V0201401N00511007501CN0100001N1+03131+01481100921ADDAA106000091AG10000GF107991051021008001051011MA1999999092661MD1999999+0001REMSYN011 333 58000;
0134831820999991996040400004-11300-041867FM-12+074799999V0201401N00511220001CN9999999N9+02431+01911101141ADDAA106000091AG10000GF106991001001999999001011KA1240M+03141MA1999999092851MD1999999+0031REMSYN017 333 10314 58003;EQDQ01+000002VOVAR 
0115831820999991996040412004-11300-041867FM-12+074799999V0200901N00571007501CN0100001N1+02531+01741101311ADDAA106000091AG10000GF106991061021008001001001KA1240N+01921MA1999999093011MD1999999-0011REMSYN017 333 20192 59001;
0096831820999991996040418004-11300-041867FM-12+074799999V0200901N00671045001CN0200001N1+02971+01741100881ADDAA106000091AG10000GF106991021021008001051011MA1999999092711MD1999999-0051REMSYN011 333 59005;
0134831820999991996040500004-11300-041867FM-12+074799999V0201401N00511220001CN9999999N9+02401+01771101191ADDAA106000091AG10000GF104991021001017501031011KA1240M+03021MA1999999092891MD1999999+0041REMSYN017 333 10302 58004;EQDQ01+000002VOVAR 
0115831820999991996040512004-11300-041867FM-12+074799999V0200901N00671220001CN0100001N1+02571+01671101261ADDAA106000091AG10000GF102991021021008001001001KA1240N+01901MA1999999092961MD1999999-0051REMSYN017 333 20190 59005;
0096831820999991996040518004-11300-041867FM-12+074799999V0200901N00511220001CN0100001N1+03111+01281100741ADDAA106000091AG10000GF104991041021008001001001MA1999999092501MD1999999-0111REMSYN011 333 59011;
0156831820999991996040600004-11300-041867FM-12+074799999V0200901N00511220001CN9999999N9+02421+01911101151ADDAA106000091AG10000AY101061AY201061GF104991041001017501051001KA1240M+03151MA1999999092861MD1999999-0031MW1131REMSYN017 333 10315 59003;EQDQ01+000002VOVAR 
0115831820999991996040612004-11300-041867FM-12+074799999V0200901N00411220001CN0200001N1+02471+01831101271ADDAA106000091AG10000GF108991021021008001001011KA1240N+02001MA1999999092961MD1999999+0001REMSYN017 333 20200 58000;
0096831820999991996040618004-11300-041867FM-12+074799999V0200901N00511045001CN0200001N1+02851+01701100841ADDAA106000091AG10000GF108991021021008001011011MA1999999092561MD1999999+0061REMSYN011 333 58006;
0134831820999991996040700004-11300-041867FM-12+074799999V0200901N00211220001CN9999999N9+02361+01661101031ADDAA106000091AG10000GF108991001001999999001011KA1240M+03021MA1999999092741MD1999999-0121REMSYN017 333 10302 59012;EQDQ01+000002VOVAR 
0115831820999991996040712004-11300-041867FM-12+074799999V0201401N00311007501CN0100001N1+02521+01791101331ADDAA106000091AG10000GF107991061021008001031001KA1240N+02021MA1999999093021MD1999999+0061REMSYN017 333 20202 58006;
0118831820999991996040718004-11300-041867FM-12+074799999V0201801N00211220001CN0100001N1+03231+01521100781ADDAA106000091AG10000AY121061AY221061GF108991041021008001001011MA1999999092541MD1999999-0021MW1151REMSYN011 333 59002;
0115831820999991996040812004-11300-041867FM-12+074799999V0200901N00311220001CN0100001N1+02521+01841101361ADDAA106000091AG10000GF108991021021008001001011KA1240N+02021MA1999999093081MD1999999+0061REMSYN017 333 20202 58006;
0096831820999991996040818004-11300-041867FM-12+074799999V0201801N00411045001CN0200001N1+03071+01661100871ADDAA106000091AG10000GF108991041021008001031011MA1999999092621MD1999999-0081REMSYN011 333 59008;
0143831820999991996040912004-11300-041867FM-12+074799999V0201401N00411007501CN0100001N1+02391+01971101501ADDAA124004091AG10003AY161061AY261061GF108991051051008001051011KA1240N+02061MA1999999093161MD1999999+0081MW1021REMSYN023 333 20206 58008 60044;
0118831820999991996040918004-11300-041867FM-12+074799999V0201801N00411045001CN0020001N1+02911+01811101031ADDAA106000091AG10000AY121061AY221061GF108991041021008001031011MA1999999092751MD1999999+0131MW1161REMSYN011 333 58013;
0162831820999991996041000004-11300-041867FM-12+074799999V0200901N00411045001CN9999999N9+02301+01961101331ADDAA106000191AG10003AY161061AY221061GF107991031071004501011001KA1240M+03001MA1999999093001MD1999999-0011MW1131REMSYN023 333 10300 59001 69921;EQDQ01+000002VOVAR 
0121831820999991996041012004-11300-041867FM-12+074799999V0201401N00511045001CN0100001N1+02541+01831101451ADDAA124000191AG10000GF108991021021008001041011KA1240N+01981MA1999999093121MD1999999-0041REMSYN023 333 20198 59004 69924;
0124831820999991996041018004-11300-041867FM-12+074799999V0201401N00261220001CN0040001N1+03001+01781100821ADDAA106000591AG10003AY161061AY221061GF103991021021008001051011MA1999999092561MD1999999-0191MW1151REMSYN017 333 59019 69961;
0134831820999991996041100004-11300-041867FM-12+074799999V0200901N00621004201CN9999999N9+02401+01911101241ADDAA106000091AG10000GF108991061071004501001999KA1240M+03081MA1999999092941MD1999999-0061REMSYN017 333 10308 59006;EQDQ01+000002VOVAR 
0121831820999991996041112004-11300-041867FM-12+074799999V0200901N00311045001CN0100001N1+02471+01941101391ADDAA124000591AG10000GF108991031051008001061021KA1240N+02141MA1999999093071MD1999999-0051REMSYN023 333 20214 59005 69964;
0118831820999991996041118004-11300-041867FM-12+074799999V0203601N00311045001CN0100001N1+03111+01771100851ADDAA106000091AG10000AY121061AY221061GF106991031021008001031011MA1999999092611MD1999999+0051MW1151REMSYN011 333 58005;
0156831820999991996041200004-11300-041867FM-12+074799999V0201401N00151045001CN9999999N9+02431+01911101151ADDAA106000091AG10000AY121061AY221061GF108991031031008001021999KA1240M+03131MA1999999092851MD1999999-0091MW1131REMSYN017 333 10313 59009;EQDQ01+000002VOVAR 
0143831820999991996041212004-11300-041867FM-12+074799999V0200901N00411045001CN0100001N1+02711+01941101291ADDAA124000591AG10003AY161061AY221061GF108991021021008001031011KA1240N+02071MA1999999093001MD1999999-0071MW1031REMSYN023 333 20207 59007 69954;
0096831820999991996041218004-11300-041867FM-12+074799999V0203601N00411045001CN0100001N1+02921+01741100771ADDAA106000091AG10000GF107991021021008001051011MA1999999092521MD1999999-0091REMSYN011 333 59009;
0156831820999991996041300004-11300-041867FM-12+074799999V0202301N00211004201CN9999999N9+02361+01971101071ADDAA106000091AG10000AY121061AY221061GF108991051031004501021999KA1240M+03101MA1999999092791MD1999999-0061MW1131REMSYN017 333 10310 59006;EQDQ01+000002VOVAR 
0143831820999991996041312004-11300-041867FM-12+074799999V0201401N00261045001CN0100001N1+02451+01881101271ADDAA124055091AG10003AY161061AY261061GF107991031021008001041011KA1240N+01961MA1999999092951MD1999999-0051MW1031REMSYN023 333 20196 59005 60554;
0096831820999991996041318004-11300-041867FM-12+074799999V0203601N00211220001CN0100001N1+03041+01601100771ADDAA106000091AG10000GF102991011021008001001011MA1999999092511MD1999999-0011REMSYN011 333 59001;
0134831820999991996041400004-11300-041867FM-12+074799999V0201401N00261220001CN9999999N9+02401+02111101131ADDAA106000091AG10000GF108991011051008001001011KA1240M+03061MA1999999092831MD1999999+0041REMSYN017 333 10306 58004;EQDQ01+000002VOVAR 
0096831820999991996041418004-11300-041867FM-12+074799999V0200501N00261220001CN0040001N1+03011+01641100851ADDAA106000091AG10000GF102991011021008001061011MA1999999092591MD1999999+0081REMSYN011 333 58008;
0134831820999991996041500004-11300-041867FM-12+074799999V0200501N00211220001CN9999999N9+02541+01711101191ADDAA106000091AG10000GF104991011021008001001011KA1240M+03041MA1999999092911MD1999999+0081REMSYN017 333 10304 58008;EQDQ01+000002VOVAR 
0096831820999991996041518004-11300-041867FM-12+074799999V0200901N00411220001CN0100001N1+03151+01621100931ADDAA106000091AG10000GF107991031021008001001011MA1999999092661MD1999999+0071REMSYN011 333 58007;
0115831820999991996041612004-11300-041867FM-12+074799999V0200901N00411220001CN0100001N1+02561+01561101451ADDAA106000091AG10000GF108991011021008001001011KA1240N+01961MA1999999093141MD1999999+0021REMSYN017 333 20196 58002;
0096831820999991996041618004-11300-041867FM-12+074799999V0200901N00151220001CN0100001N1+03151+01451100861ADDAA106000091AG10000GF107991011021008001001011MA1999999092611MD1999999-0051REMSYN011 333 59005;
0134831820999991996041700004-11300-041867FM-12+074799999V0200901N00261220001CN9999999N9+02561+01501101131ADDAA106000091AG10000GF106991001001999999001011KA1240M+03191MA1999999092851MD1999999-0011REMSYN017 333 10319 59001;EQDQ01+000002VOVAR 
0115831820999991996041712004-11300-041867FM-12+074799999V0201401N00261220001CN0100001N1+02561+01801101261ADDAA106000091AG10000GF108991001001999999001011KA1240N+01861MA1999999092971MD1999999-0171REMSYN017 333 20186 59017;
0096831820999991996041718004-11300-041867FM-12+074799999V0201801N00051220001CN0100001N1+02151+01771100721ADDAA106000091AG10000GF108991031021008001001011MA1999999092491MD1999999-0121REMSYN011 333 59012;
0134831820999991996041800004-11300-041867FM-12+074799999V0200501N00151220001CN9999999N9+02591+01901100581ADDAA106000091AG10000GF108991021021008001001011KA1240M+03221MA1999999091721MD1999999-0131REMSYN017 333 10322 59013;EQDQ01+000002VOVAR 
0115831820999991996041812004-11300-041867FM-12+074799999V0203601N00261220001CN0100001N1+02731+02031101191ADDAA106000091AG10000GF106991031021008001001011KA1240N+02181MA1999999092921MD1999999-0051REMSYN017 333 20218 59005;
0096831820999991996041818004-11300-041867FM-12+074799999V0203201N00211220001CN0100001N1+03251+01781100691ADDAA106000091AG10000GF103991021021008001001011MA1999999092501MD1999999+0011REMSYN011 333 58001;
0156831820999991996041900004-11300-041867FM-12+074799999V0203201N00151045001CN9999999N9+02581+01991101051ADDAA106000091AG10008AY191061AY221061GF108991041061004501021999KA1240M+03241MA1999999092781MD1999999+0061MW1021REMSYN017 333 10324 58006;EQDQ01+000002VOVAR 
0143831820999991996041912004-11300-041867FM-12+074799999V0201401N00411045001CN0100001N1+02441+01921101361ADDAA124018091AG10003AY161061AY261061GF108991031021008001041011KA1240N+02041MA1999999093051MD1999999+0131MW1031REMSYN023 333 20204 58013 60184;
0096831820999991996041918004-11300-041867FM-12+074799999V0201401N00211220001CN0100001N1+03001+01781100931ADDAA106000091AG10000GF108991031021008001001011MA1999999092661MD1999999+0161REMSYN011 333 58016;
0134831820999991996042000004-11300-041867FM-12+074799999V0201401N00411220001CN9999999N9+02371+01801101141ADDAA106000091AG10000GF108991001001999999001011KA1240M+02981MA1999999092841MD1999999+0061REMSYN017 333 10298 58006;EQDQ01+000002VOVAR 
0115831820999991996042012004-11300-041867FM-12+074799999V0201401N00671007501CN0100001N1+02361+01931101441ADDAA106000091AG10000GF105991051021008001001001KA1240N+02001MA1999999093101MD1999999+0051REMSYN017 333 20200 58005;
0096831820999991996042018004-11300-041867FM-12+074799999V0201801N00571220001CN0200001N1+02771+01771101081ADDAA106000091AG10000GF103991011021008001001011MA1999999092791MD1999999+0131REMSYN011 333 58013;
0115831820999991996042112004-11300-041867FM-12+074799999V0201401N00721007501CN0100001N1+02351+01781101531ADDAA106000091AG10000GF107991051051008001051001KA1240N+01881MA1999999093171MD1999999+0071REMSYN017 333 20188 58007;
0096831820999991996042118004-11300-041867FM-12+074799999V0201401N00571045001CN0100001N1+02681+01761101201ADDAA106000091AG10000GF107991031051008001051001MA1999999092871MD1999999+0081REMSYN011 333 58008;
0134831820999991996042200004-11300-041867FM-12+074799999V0201401N00461220001CN9999999N9+02081+01761101481ADDAA106000091AG10000GF106991031021008001001011KA1240M+02691MA1999999093111MD1999999+0091REMSYN017 333 10269 58009;EQDQ01+000002VOVAR 
0096831820999991996042218004-11300-041867FM-12+074799999V0201801N00361220001CN0100001N1+02971+01611101151ADDAA106000091AG10000GF104991021021008001051011MA1999999092851MD1999999-0021REMSYN011 333 59002;
0134831820999991996042300004-11300-041867FM-12+074799999V0200901N00311220001CN9999999N9+02351+01441101361ADDAA106000091AG10000GF108991021001017501051011KA1240M+03001MA1999999093031MD1999999+0081REMSYN017 333 10300 58008;EQDQ01+000002VOVAR 
0131831820999991996042312004-11300-041867FM-12+074799999V0201401N00461220001CN0100001N1+02391+01731101611ADDAA106000091AG10000GA1001+999999999GF100991001001999999001001KA1240N+01761MA1999999093251MD1999999+0011REMSYN017 333 20176 58001;
0096831820999991996042318004-11300-041867FM-12+074799999V0201801N00151007501CN0100001N1+03011+01491101271ADDAA106000091AG10000GF107991061021008001051001MA1999999092871MD1999999+0021REMSYN011 333 58002;
0150831820999991996042400004-11300-041867FM-12+074799999V0201401N00311220001CN9999999N9+02311+01481101371ADDAA106000091AG10000GA1001+999999999GF100991001001999999001001KA1240M+03071MA1999999093041MD1999999+0011REMSYN017 333 10307 58001;EQDQ01+000002VOVAR 
0115831820999991996042412004-11300-041867FM-12+074799999V0201401N00671220001CN0100001N1+02461+01781101601ADDAA106000091AG10000GF102991011021008001041001KA1240N+02001MA1999999093251MD1999999+0001REMSYN017 333 20200 58000;
0096831820999991996042418004-11300-041867FM-12+074799999V0201401N00511220001CN0100001N1+03131+01521101041ADDAA106000091AG10000GF102991021021008001001011MA1999999092771MD1999999-0101REMSYN011 333 59010;
0150831820999991996042500004-11300-041867FM-12+074799999V0200901N00361220001CN9999999N9+02371+01871101391ADDAA106000091AG10000GA1001+999999999GF100991001001999999001001KA1240M+03101MA1999999093061MD1999999+0021REMSYN017 333 10310 58002;EQDQ01+000002VOVAR 
0115831820999991996042512004-11300-041867FM-12+074799999V0201401N00461007501CN0100001N1+02481+01921101461ADDAA106000091AG10000GF106991051021008001001011KA1240N+01981MA1999999093141MD1999999-0111REMSYN017 333 20198 59011;
0096831820999991996042518004-11300-041867FM-12+074799999V0200901N00461220001CN0200001N1+03111+01701100981ADDAA106000091AG10000GF102991011021008001001011MA1999999092711MD1999999-0061REMSYN011 333 59006;
0150831820999991996042600004-11300-041867FM-12+074799999V0201401N00261220001CN9999999N9+02311+01751101221ADDAA106000091AG10000GA1001+999999999GF100991001001999999001001KA1240M+03101MA1999999092981MD1999999-0081REMSYN017 333 10310 59008;EQDQ01+000002VOVAR 
0096831820999991996042618004-11300-041867FM-12+074799999V0201401N00461220001CN0100001N1+03211+01321100921ADDAA106000091AG10000GF102991011021008001051011MA1999999092661MD1999999-0051REMSYN011 333 59005;
0182831820999991996042700004-11300-041867FM-12+074799999V0200901N00361220001CN9999999N9+02471+01521101001ADDAA106000091AG10000GA1001+999999999GF100991001001999999001001KA1240M+03201MA1999999999999MD1999999-0081REMSYN017 333 10320 59008;EQDQ01+102003APOSP Q02+000002VOVAR Q03 102003APOSP 
0115831820999991996042712004-11300-041867FM-12+074799999V0201401N00671045001CN0100001N1+02591+01661101471ADDAA106000091AG10000GF105991041021008001041001KA1240N+01871MA1999999093161MD1999999+0071REMSYN017 333 20187 58007;
0096831820999991996042718004-11300-041867FM-12+074799999V0200901N00461220001CN0100001N1+02971+01501101031ADDAA106000091AG10000GF102991011021008001031011MA1999999092751MD1999999-0091REMSYN011 333 59009;
0150831820999991996042800004-11300-041867FM-12+074799999V0200901N00571220001CN9999999N9+02431+01671101301ADDAA106000091AG10000GA1001+999999999GF100991001001999999001001KA1240M+03001MA1999999093001MD1999999+0101REMSYN017 333 10300 58010;EQDQ01+000002VOVAR 
0115831820999991996042812004-11300-041867FM-12+074799999V0201401N00821007501CN0100001N1+02371+01781101451ADDAA106000091AG10000GF106991061021008001001001KA1240N+01921MA1999999093121MD1999999-0041REMSYN017 333 20192 59004;
0096831820999991996042818004-11300-041867FM-12+074799999V0200901N00571007501CN0100001N1+02631+01621101271ADDAA106000091AG10000GF107991051061008001051011MA1999999092941MD1999999+0191REMSYN011 333 58019;
0134831820999991996042900004-11300-041867FM-12+074799999V0201401N00511220001CN9999999N9+02101+01761101571ADDAA106000091AG10000GF105991021001017501041011KA1240M+02721MA1999999093201MD1999999+0201REMSYN017 333 10272 58020;EQDQ01+000002VOVAR 
0115831820999991996042912004-11300-041867FM-12+074799999V0201401N00931007501CN0100001N1+02321+01671101601ADDAA106000091AG10000GF108991061051008001001041KA1240N+01861MA1999999093221MD1999999+0101REMSYN017 333 20186 58010;
0096831820999991996042918004-11300-041867FM-12+074799999V0201401N00771220001CN0200001N1+02651+01721101261ADDAA106000091AG10000GF108991031061008001001011MA1999999092931MD1999999-0011REMSYN011 333 59001;
0134831820999991996043000004-11300-041867FM-12+074799999V0201401N00411045001CN9999999N9+02131+01841101551ADDAA106000091AG10000GF108991031081008001031021KA1240M+02651MA1999999093181MD1999999-0021REMSYN017 333 10265 59002;EQDQ01+000002VOVAR 
0115831820999991996043012004-11300-041867FM-12+074799999V0201401N00671045001CN0100001N1+02401+01801101591ADDAA106000091AG10000GF106991041021008001031001KA1240N+01941MA1999999093221MD1999999+0001REMSYN017 333 20194 58000;
0118831820999991996043018004-11300-041867FM-12+074799999V0201401N00671007501CN0100001N1+02691+01781101231ADDAA106000091AG10000AY121061AY221061GF107991051051008001051011MA1999999092921MD1999999-0011MW1151REMSYN011 333 59001;
0134831820999991996050100004-11300-041867FM-12+074799999V0200901N00511045001CN9999999N9+02301+01721101451ADDAA106000091AG10000GF108991041061008001051011KA1240M+02841MA1999999093111MD1999999-0071REMSYN017 333 10284 59007;EQDQ01+000002VOVAR 
0115831820999991996050112004-11300-041867FM-12+074799999V0200901N00411007501CN0100001N1+02411+01771101511ADDAA106000091AG10000GF106991061021008001001001KA1240N+01981MA1999999093161MD1999999-0061REMSYN017 333 20198 59006;
0096831820999991996050118004-11300-041867FM-12+074799999V0200901N00311007501CN0100001N1+02721+01771101171ADDAA106000091AG10000GF108991061021008001999999MA1999999092861MD1999999-0061REMSYN011 333 59006;
0121831820999991996050212004-11300-041867FM-12+074799999V0200901N00511220001CN0100001N1+02521+01551101461ADDAA124000391AG10000GF108991001001999999001011KA1240N+01781MA1999999093131MD1999999-0031REMSYN023 333 20178 59003 69934;
0096831820999991996050218004-11300-041867FM-12+074799999V0203201N00151220001CN0100001N1+03111+01281100981ADDAA106000091AG10000GF104991011021008001001011MA1999999092711MD1999999-0151REMSYN011 333 59015;
0134831820999991996050300004-11300-041867FM-12+074799999V0200901N00261220001CN9999999N9+02461+01441101231ADDAA106000091AG10000GF104991011011012501001011KA1240M+03101MA1999999092941MD1999999-0111REMSYN017 333 10310 59011;EQDQ01+000002VOVAR 
0115831820999991996050312004-11300-041867FM-12+074799999V0201801N00261220001CN0100001N1+02631+01831101371ADDAA106000091AG10000GF108991011001017501041011KA1240N+01821MA1999999093081MD1999999+0051REMSYN017 333 20182 58005;
0096831820999991996050318004-11300-041867FM-12+074799999V0201801N00151045001CN0100001N1+03201+01551100921ADDAA106000091AG10000GF108991011031008001051011MA1999999092661MD1999999-0051REMSYN011 333 59005;
0134831820999991996050400004-11300-041867FM-12+074799999V0200901N00211220001CN9999999N9+02531+01691101251ADDAA106000091AG10000GF108991041081008001001011KA1240M+03201MA1999999092971MD1999999+0031REMSYN017 333 10320 58003;EQDQ01+000002VOVAR 
0115831820999991996050412004-11300-041867FM-12+074799999V0201401N00361007501CN0100001N1+02461+01971101401ADDAA106000091AG10000GF108991061051008001001011KA1240N+02041MA1999999093091MD1999999+0011REMSYN017 333 20204 58001;
0096831820999991996050418004-11300-041867FM-12+074799999V0201801N00261045001CN0100001N1+02921+01801100991ADDAA106000091AG10000GF108991021021008001011999MA1999999092761MD1999999+0101REMSYN011 333 58010;
0115831820999991996050512004-11300-041867FM-12+074799999V0200901N00461007501CN0100001N1+02441+01861101501ADDAA106000091AG10000GF108991081051008001999999KA1240N+02121MA1999999093151MD1999999+0061REMSYN017 333 20212 58006;
0096831820999991996050518004-11300-041867FM-12+074799999V0200901N00511045001CN0100001N1+02541+01861101201ADDAA106000091AG10000GF108991011021008001051011MA1999999092881MD1999999+0121REMSYN011 333 58012;
0134831820999991996050600004-11300-041867FM-12+074799999V0200901N00311045001CN9999999N9+02151+01761101441ADDAA106000091AG10000GF108991031061008001051999KA1240M+02631MA1999999093091MD1999999+0141REMSYN017 333 10263 58014;EQDQ01+000002VOVAR 
0143831820999991996050612004-11300-041867FM-12+074799999V0200901N00311007501CN0100001N1+02151+01591101651ADDAA124001091AG10002AY161061AY221061GF108991081051008001999999KA1240N+01931MA1999999093251MD1999999+0101MW1021REMSYN023 333 20193 58010 60014;
0096831820999991996050618004-11300-041867FM-12+074799999V0200901N00361007501CN0040001N1+02571+01591101291ADDAA106000091AG10000GF108991061021008001051011MA1999999092961MD1999999+0081REMSYN011 333 58008;
0134831820999991996050700004-11300-041867FM-12+074799999V0200901N00261045001CN9999999N9+02191+01671101451ADDAA106000091AG10000GF108991031061008001051011KA1240M+02641MA1999999093071MD1999999-0021REMSYN017 333 10264 59002;EQDQ01+000002VOVAR 
0115831820999991996050712004-11300-041867FM-12+074799999V0201401N00621220001CN0100001N1+02341+01621101591ADDAA106000091AG10000GF101991001001999999001011KA1240N+01681MA1999999093221MD1999999-0031REMSYN017 333 20168 59003;
0131831820999991996050718004-11300-041867FM-12+074799999V0201801N00311220001CN0100001N1+02891+01271101151ADDAA106000091AG10000GF101991001001999999001011MA1999999999999MD1999999-0121REMSYN011 333 59012;EQDQ01+096843APOSP Q02 096843APOSP 
0166831820999991996050800004-11300-041867FM-12+074799999V0200901N00311220001CN9999999N9+02141+01461101411ADDAA106000091AG10000GA1001+999999999GF100991001001999999001001KA1240M+02921MA1999999093052MD1999999-0021REMSYN017 333 10292 59002;EQDQ01+093053APOSP Q02+000002VOVAR 
0115831820999991996050812004-11300-041867FM-12+074799999V0201401N00511220001CN0100001N1+02661+01691101651ADDAA106000091AG10000GF108991001001999999001011KA1240N+01541MA1999999093261MD1999999+0041REMSYN017 333 20154 58004;
0096831820999991996050818004-11300-041867FM-12+074799999V0201801N00151220001CN0100001N1+02911+01401101111ADDAA106000091AG10000GF108991001001999999001011MA1999999092771MD1999999-0071REMSYN011 333 59007;
0134831820999991996050900004-11300-041867FM-12+074799999V0200901N00361220001CN9999999N9+02191+01491101461ADDAA106000091AG10000GF108991001001999999001011KA1240M+02921MA1999999093101MD1999999+0051REMSYN017 333 10292 58005;EQDQ01+000002VOVAR 
0115831820999991996050912004-11300-041867FM-12+074799999V0201401N00411220001CN0100001N1+02331+01761101571ADDAA106000091AG10000GF108991001001999999001011KA1240N+01621MA1999999093201MD1999999-0061REMSYN017 333 20162 59006;
0096831820999991996050918004-11300-041867FM-12+074799999V0201401N00211045001CN0040001N1+02841+01671101171ADDAA106000091AG10000GF107991031021008001051011MA1999999092841MD1999999+0071REMSYN011 333 58007;
0150831820999991996051000004-11300-041867FM-12+074799999V0200901N00311220001CN9999999N9+02261+01441101321ADDAA106000091AG10000GA1001+999999999GF100991001001999999001001KA1240M+02881MA1999999092981MD1999999-0121REMSYN017 333 10288 59012;EQDQ01+000002VOVAR 
0115831820999991996051012004-11300-041867FM-12+074799999V0201401N00511220001CN0100001N1+02431+01791101521ADDAA106000091AG10000GF108991011011012501001011KA1240N+01751MA1999999093171MD1999999-0031REMSYN017 333 20175 59003;
0134831820999991996051100004-11300-041867FM-12+074799999V0200901N00211007501CN9999999N9+02431+01841101271ADDAA106000091AG10000GF108991051051008001001011KA1240M+03041MA1999999092961MD1999999-0021REMSYN017 333 10304 59002;EQDQ01+000002VOVAR 
0115831820999991996051112004-11300-041867FM-12+074799999V0200901N00211220001CN0100001N1+02491+01751101451ADDAA106000091AG10000GF108991001001999999001011KA1240N+01881MA1999999093151MD1999999-0041REMSYN017 333 20188 59004;
0096831820999991996051118004-11300-041867FM-12+074799999V0201801N00101045001CN0100001N1+03011+01491101001ADDAA106000091AG10000GF108991021021008001051011MA1999999092731MD1999999-0031REMSYN011 333 59003;
0134831820999991996051200004-11300-041867FM-12+074799999V0200901N00361220001CN9999999N9+02441+01691101331ADDAA106000091AG10000GF108991031021008001001011KA1240M+03041MA1999999093021MD1999999+0061REMSYN017 333 10304 58006;EQDQ01+000002VOVAR 
0115831820999991996051212004-11300-041867FM-12+074799999V0201401N00571045001CN0100001N1+02501+01621101651ADDAA106000091AG10000GF108991011021008001041011KA1240N+02041MA1999999093311MD1999999+0181REMSYN017 333 20204 58018;
0096831820999991996051218004-11300-041867FM-12+074799999V0201401N00361045001CN0100001N1+02891+01571101181ADDAA106000091AG10000GF108991041021008001031011MA1999999092971MD1999999+0241REMSYN011 333 58024;
0115831820999991996051312004-11300-041867FM-12+074799999V0201401N00671220001CN0100001N1+02451+01761101731ADDAA106000091AG10000GF108991001001999999001011KA1240N+01781MA1999999093351MD1999999+0041REMSYN017 333 20178 58004;
0096831820999991996051318004-11300-041867FM-12+074799999V0200501N00461220001CN0100001N1+02831+01651101351ADDAA106000091AG10000GF104991021021008001051011MA1999999093011MD1999999+0041REMSYN011 333 58004;
0134831820999991996051400004-11300-041867FM-12+074799999V0200901N00311220001CN9999999N9+02211+01651101571ADDAA106000091AG10000GF102991001001999999001011KA1240M+02891MA1999999093221MD1999999-0071REMSYN017 333 10289 59007;EQDQ01+000002VOVAR 
0115831820999991996051412004-11300-041867FM-12+074799999V0201401N00361220001CN0100001N1+02361+01781101641ADDAA106000091AG10000GF108991001001999999001011KA1240N+01661MA1999999093271MD1999999-0081REMSYN017 333 20166 59008;
0096831820999991996051418004-11300-041867FM-12+074799999V0201401N00261220001CN0040001N1+03091+01481101091ADDAA106000091AG10000GF108991021021008001001011MA1999999092791MD1999999-0221REMSYN011 333 59022;
0134831820999991996051500004-11300-041867FM-12+074799999V0200901N00261220001CN9999999N9+02361+01561101241ADDAA106000091AG10000GF108991001001999999001011KA1240M+03121MA1999999092921MD1999999-0301REMSYN017 333 10312 59030;EQDQ01+000002VOVAR 
0115831820999991996051512004-11300-041867FM-12+074799999V0200901N00211220001CN0100001N1+02511+01771101371ADDAA106000091AG10000GF108991001001999999001011KA1240N+01681MA1999999093051MD1999999-0221REMSYN017 333 20168 59022;
0096831820999991996051518004-11300-041867FM-12+074799999V0200901N00211220001CN0040001N1+03191+00931100841ADDAA106000091AG10000GF102991011011012501001011MA1999999092561MD1999999-0231REMSYN011 333 59023;
0112831820999991996051618004-11300-041867FM-12+074799999V0202301N00211220001CN0100001N1+03241+01041100831ADDAA106000091AG10000GA1001+999999999GF100991001001999999001001MA1999999092551MD1999999-0011REMSYN011 333 59001;
0150831820999991996051700004-11300-041867FM-12+074799999V0200901N00261220001CN9999999N9+02471+00971101101ADDAA106000091AG10000GA1001+999999999GF100991001001999999001001KA1240M+03241MA1999999092821MD1999999+0091REMSYN017 333 10324 58009;EQDQ01+000002VOVAR 
0096831820999991996051718004-11300-041867FM-12+074799999V0201401N00461220001CN0040001N1+03371+01201100991ADDAA106000091AG10000GF102991011021008001001011MA1999999092741MD1999999+0191REMSYN011 333 58019;
0150831820999991996051800004-11300-041867FM-12+074799999V0200901N00101220001CN9999999N9+02571+01561101341ADDAA106000091AG10000GA1001+999999999GF100991001001999999001001KA1240M+03371MA1999999093071MD1999999+0251REMSYN017 333 10337 58025;EQDQ01+000002VOVAR 
0131831820999991996051812004-11300-041867FM-12+074799999V0200901N00771220001CN0040001N1+02571+01701101741ADDAA106000091AG10000GA1001+999999999GF100991001001999999001001KA1240N+01921MA1999999093411MD1999999+0251REMSYN017 333 20192 58025;
0096831820999991996051818004-11300-041867FM-12+074799999V0201401N00361220001CN0100001N1+03161+01381101211ADDAA106000091AG10000GF102991021021008001001001MA1999999092931MD1999999+0191REMSYN011 333 58019;
0150831820999991996051900004-11300-041867FM-12+074799999V0200901N00511220001CN9999999N9+02441+01641101421ADDAA106000091AG10000GA1001+999999999GF100991001001999999001001KA1240M+03161MA1999999093111MD1999999+0041REMSYN017 333 10316 58004;EQDQ01+000002VOVAR 
0115831820999991996051912004-11300-041867FM-12+074799999V0201401N00511220001CN0200001N1+02471+02011101541ADDAA106000091AG10000GF102991021021008001001001KA1240N+02031MA1999999093211MD1999999-0201REMSYN017 333 20203 59020;
0096831820999991996051918004-11300-041867FM-12+074799999V0200901N00311220001CN0100001N1+02961+01901101141ADDAA106000091AG10000GF104991041021008001001001MA1999999092851MD1999999-0081REMSYN011 333 59008;
0134831820999991996052000004-11300-041867FM-12+074799999V0200901N00211220001CN9999999N9+02371+01851101381ADDAA106000091AG10000GF103991001001999999001011KA1240M+02981MA1999999093111MD1999999-0061REMSYN017 333 10298 59006;EQDQ01+000002VOVAR 
0115831820999991996052012004-11300-041867FM-12+074799999V0200901N00361220001CN0100001N1+02741+01821101351ADDAA106000091AG10000GF101991011021008001001001KA1240N+02021MA1999999093051MD1999999-0161REMSYN017 333 20202 59016;
0118831820999991996052018004-11300-041867FM-12+074799999V0200901N00311045001CN0040001N1+03291+01621100881ADDAA106000091AG10000AY111061AY211061GF106991041021008001051001MA1999999092641MD1999999-0211MW1161REMSYN011 333 59021;
0156831820999991996052100004-11300-041867FM-12+074799999V0200901N00311220001CN9999999N9+02551+01761101221ADDAA106000091AG10000AY121061AY221061GF104991021021008001001011KA1240M+03311MA1999999092951MD1999999-0101MW1131REMSYN017 333 10331 59010;EQDQ01+000002VOVAR 
0115831820999991996052112004-11300-041867FM-12+074799999V0201401N00261007501CN0100001N1+02531+01891101511ADDAA106000091AG10000GF107991071021008001001001KA1240N+01921MA1999999093201MD1999999+0151REMSYN017 333 20192 58015;
0096831820999991996052118004-11300-041867FM-12+074799999V0201401N00361220001CN0040001N1+03031+01661101221ADDAA106000091AG10000GF102991011021008001001011MA1999999092841MD1999999+0201REMSYN011 333 58020;
0115831820999991996052212004-11300-041867FM-12+074799999V0201401N00461220001CN0100001N1+02581+01771101611ADDAA106000091AG10000GF108991011021008001001011KA1240N+02061MA1999999093281MD1999999+0081REMSYN017 333 20206 58008;
0096831820999991996052218004-11300-041867FM-12+074799999V0200901N00461220001CN0100001N1+02951+01861101201ADDAA106000091AG10000GF102991011021008001001011MA1999999092921MD1999999+0081REMSYN011 333 58008;
0134831820999991996052300004-11300-041867FM-12+074799999V0200901N00311220001CN9999999N9+02221+01861101461ADDAA106000091AG10000GF101991001001999999001011KA1240M+02981MA1999999093131MD1999999+0021REMSYN017 333 10298 58002;EQDQ01+000002VOVAR 
0096831820999991996052318004-11300-041867FM-12+074799999V0201801N00261045001CN0040001N1+03171+01511101091ADDAA106000091AG10000GF108991011021008001031011MA1999999092811MD1999999-0111REMSYN011 333 59011;
0134831820999991996052400004-11300-041867FM-12+074799999V0200901N00261007501CN9999999N9+02661+01591101201ADDAA106000091AG10000GF108991051051008001051011KA1240M+03181MA1999999092931MD1999999-0201REMSYN017 333 10318 59020;EQDQ01+000002VOVAR 
0143831820999991996052412004-11300-041867FM-12+074799999V0200901N00211045001CN0100001N1+02641+01951101351ADDAA124000391AG10002AY161061AY221061GF108991041021008001061011KA1240N+02121MA1999999093071MD1999999-0181MW1031REMSYN023 333 20212 59018 69934;
0118831820999991996052418004-11300-041867FM-12+074799999V0201801N00311220001CN0040001N1+03051+01571100921ADDAA106000091AG10000AY121061AY221061GF107991021031008001001011MA1999999092691MD1999999-0121MW1151REMSYN011 333 59012;
0143831820999991996052512004-11300-041867FM-12+074799999V0201401N00511045001CN0100001N1+02191+01741101591ADDAA124015091AG10002AY161061AY261061GF108991011051008001051011KA1240N+01981MA1999999092341MD1999999+0171MW1021REMSYN023 333 20198 58017 60154;
0096831820999991996052518004-11300-041867FM-12+074799999V0201401N00361045001CN0100001N1+02621+01591101271ADDAA106000091AG10000GF106991021021008001051011MA1999999092941MD1999999+0251REMSYN011 333 58025;
0134831820999991996052612004-11300-041867FM-12+074799999V0201401N00311220001CN9999999N9+01991+01571101481ADDAA106000091AG10000GF102991999999999999999999KA1240M+02641MA1999999093091MD1999999+0241REMSYN017 333 10264 58024;EQDQ01+000002VOVAR 
0096831820999991996052618004-11300-041867FM-12+074799999V0201801N00151007501CN0100001N1+02701+01231101461ADDAA106000091AG10000GF106991051021008001001011MA1999999093091MD1999999+0151REMSYN011 333 58015;
0115831820999991996052712004-11300-041867FM-12+074799999V0201401N00621220001CN0100001N1+02161+01571101881ADDAA106000091AG10000GF108991001001999999001011KA1240N+01541MA1999999091451MD1999999+0361REMSYN017 333 20154 58036;
0115831820999991996052718004-11300-041867FM-12+074799999V0201801N00311220001CN0100001N1+02751+01221101411ADDAA106000091AG10000GF108991011011012501001011MA1999999093042MD1999999-0051REMSYN011 333 59005;EQDQ01+093043APOSP 
0134831820999991996052800004-11300-041867FM-12+074799999V0200901N00311220001CN9999999N9+02091+01031101721ADDAA106000091AG10000GF108991001001999999001011KA1240M+02761MA1999999093321MD1999999+0091REMSYN017 333 10276 58009;EQDQ01+000002VOVAR 
0115831820999991996052812004-11300-041867FM-12+074799999V0201401N00511220001CN0100001N1+02281+01511101761ADDAA106000091AG10000GF101991011011012501001001KA1240N+01601MA1999999093371MD1999999-0081REMSYN017 333 20160 59008;
0096831820999991996052818004-11300-041867FM-12+074799999V0200901N00361220001CN0100001N1+02761+01241101331ADDAA106000091AG10000GF103991021021008001001011MA1999999092971MD1999999-0071REMSYN011 333 59007;
0134831820999991996052900004-11300-041867FM-12+074799999V0201401N00411220001CN9999999N9+02101+01581101591ADDAA106000091AG10000GF102991001001999999001011KA1240M+02761MA1999999093211MD1999999-0111REMSYN017 333 10276 59011;EQDQ01+000002VOVAR 
0115831820999991996052912004-11300-041867FM-12+074799999V0201401N00571220001CN0100001N1+02261+01751101671ADDAA106000091AG10000GF108991041021008001001011KA1240N+01661MA1999999093281MD1999999-0091REMSYN017 333 20166 59009;
0096831820999991996052918004-11300-041867FM-12+074799999V0200901N00511007501CN0100001N1+02801+01631101301ADDAA106000091AG10000GF107991071021008001001001MA1999999092951MD1999999-0021REMSYN011 333 59002;
0134831820999991996053000004-11300-041867FM-12+074799999V0201401N00361220001CN9999999N9+02111+01641101571ADDAA106000091AG10000GF106991001001999999001011KA1240M+02851MA1999999093191MD1999999-0021REMSYN017 333 10285 59002;EQDQ01+000002VOVAR 
0115831820999991996053012004-11300-041867FM-12+074799999V0201401N00621007501CN0100001N1+02231+01711101701ADDAA106000091AG10000GF108991071051008001001011KA1240N+01901MA1999999093301MD1999999+0021REMSYN017 333 20190 58002;
0096831820999991996053018004-11300-041867FM-12+074799999V0200901N00411007501CN0100001N1+02491+01471101391ADDAA106000091AG10000GF107991071061008001001001MA1999999093031MD1999999+0081REMSYN011 333 58008;
0134831820999991996053100004-11300-041867FM-12+074799999V0200901N00361220001CN9999999N9+02111+01601101671ADDAA106000091AG10000GF108991001001999999001011KA1240M+02701MA1999999093271MD1999999+0081REMSYN017 333 10270 58008;EQDQ01+000002VOVAR 
0115831820999991996053112004-11300-041867FM-12+074799999V0200901N00771007501CN0100001N1+02151+01641101781ADDAA106000091AG10000GF108991061051008001001011KA1240N+01641MA1999999093381MD1999999+0081REMSYN017 333 20164 58008;
0096831820999991996053118004-11300-041867FM-12+074799999V0201401N00361220001CN0100001N1+02711+01191101391ADDAA106000091AG10000GF108991011021008001001011MA1999999093031MD1999999+0001REMSYN011 333 58000;
0134831820999991996060100004-11300-041867FM-12+074799999V0200901N00211220001CN9999999N9+02051+01381101691ADDAA106000091AG10000GF108991001001999999001011KA1240M+02701MA1999999093291MD1999999+0021REMSYN017 333 10270 58002;EQDQ01+000002VOVAR 
0131831820999991996060112004-11300-041867FM-12+074799999V0201401N00571220001CN0100001N1+02311+01611101781ADDAA106000091AG10000GA1001+999999999GF100991001001999999001001KA1240N+01581MA1999999093401MD1999999+0021REMSYN017 333 20158 58002;
0096831820999991996060118004-11300-041867FM-12+074799999V0201401N00461220001CN0100001N1+03011+01151101371ADDAA106000091AG10000GF104991041021008001001001MA1999999093031MD1999999+0001REMSYN011 333 58000;
0115831820999991996060212004-11300-041867FM-12+074799999V0201401N00511220001CN0100001N1+02341+01491101581ADDAA106000091AG10000GF102991001001999999001011KA1240N+01641MA1999999093221MD1999999-0181REMSYN017 333 20164 59018;
0096831820999991996060218004-11300-041867FM-12+074799999V0201401N00621220001CN0100001N1+03041+00981101241ADDAA106000091AG10000GF102991011011012501001011MA1999999092921MD1999999-0111REMSYN011 333 59011;
0150831820999991996060300004-11300-041867FM-12+074799999V0200901N00311220001CN9999999N9+02121+01141101491ADDAA106000091AG10000GA1001+999999999GF100991001001999999001001KA1240M+03061MA1999999093121MD1999999-0111REMSYN017 333 10306 59011;EQDQ01+000002VOVAR 
0115831820999991996060312004-11300-041867FM-12+074799999V0201401N00721220001CN0100001N1+02341+01621101651ADDAA106000091AG10000GF101991001001999999001011KA1240N+01621MA1999999093281MD1999999+0061REMSYN017 333 20162 58006;
0096831820999991996060318004-11300-041867FM-12+074799999V0200901N00511220001CN0100001N1+02891+01271101321ADDAA106000091AG10000GF106991011011012501001011MA1999999092981MD1999999+0061REMSYN011 333 58006;
0134831820999991996060400004-11300-041867FM-12+074799999V0201401N00311220001CN9999999N9+02111+01441101191ADDAA106000091AG10000GF102991001001999999001011KA1240M+02901MA1999999093221MD1999999+0101REMSYN017 333 10290 58010;EQDQ01+000002VOVAR 
0115831820999991996060412004-11300-041867FM-12+074799999V0201401N00871007501CN0100001N1+02291+01661101671ADDAA106000091AG10000GF106991061051008001001001KA1240N+01721MA1999999093281MD1999999+0001REMSYN017 333 20172 58000;
0121831820999991996060500004-11300-041867FM-12+074799999V0201401N00411045001CN9999999N9+02001+01481101791ADDAA106000091AG10000GF108991031021017501051001MA1999999093391MD1999999+0171REMSYN017 333 1024/ 58017;EQDQ01+000002VOVAR 
0115831820999991996060512004-11300-041867FM-12+074799999V0201401N00821045001CN0100001N1+02061+01471101911ADDAA106000091AG10000GF107991031051008001051001KA1240N+01741MA1999999093481MD1999999+0201REMSYN017 333 20174 58020;
0096831820999991996060518004-11300-041867FM-12+074799999V0201401N00671007501CN0100001N1+02301+01631101681ADDAA106000091AG10000GF108991081051008001999999MA1999999093281MD1999999+0131REMSYN011 333 58013;
0134831820999991996060600004-11300-041867FM-12+074799999V0201401N00571007501CN9999999N9+01931+01611101981ADDAA106000091AG10000GF108991081051008001999999KA1240M+02381MA1999999093541MD1999999+0151REMSYN017 333 10238 58015;EQDQ01+000002VOVAR 
0115831820999991996060612004-11300-041867FM-12+074799999V0201401N00461007501CN0100001N1+02241+01551101991ADDAA106000091AG10000GF108991081051008001999999KA1240N+01761MA1999999093561MD1999999+0081REMSYN017 333 20176 58008;
0096831820999991996060618004-11300-041867FM-12+074799999V0200901N00461004201CN0100001N1+02531+01491101621ADDAA106000091AG10000GF108991081061004501999999MA1999999093241MD1999999-0041REMSYN011 333 59004;
0134831820999991996060700004-11300-041867FM-12+074799999V0201401N00261007501CN9999999N9+02061+01781101871ADDAA106000091AG10000GF108991081051008001999999KA1240M+02541MA1999999093461MD1999999-0081REMSYN017 333 10254 59008;EQDQ01+000002VOVAR 
0143831820999991996060712004-11300-041867FM-12+074799999V0201401N00571220001CN0100001N1+02301+01581101891ADDAA124000191AG10002AY161061AY211061GF101991011021008001001001KA1240N+01761MA1999999093491MD1999999-0071MW1031REMSYN023 333 20176 59007 69924;
0096831820999991996060718004-11300-041867FM-12+074799999V0200901N00621220001CN0100001N1+02751+01511101531ADDAA106000091AG10000GF104991041021008001001001MA1999999093171MD1999999-0071REMSYN011 333 59007;
0134831820999991996060800004-11300-041867FM-12+074799999V0201401N00311007501CN9999999N9+02201+01801101791ADDAA106000091AG10000GF107991071051008001001001KA1240M+02801MA1999999093401MD1999999-0061REMSYN017 333 10280 59006;EQDQ01+000002VOVAR 
0115831820999991996060812004-11300-041867FM-12+074799999V0201401N00671007501CN0100001N1+02291+01771101931ADDAA106000091AG10000GF108991081051008001999999KA1240N+01941MA1999999093541MD1999999+0051REMSYN017 333 20194 58005;
0096831820999991996060818004-11300-041867FM-12+074799999V0200901N00511007501CN0200001N1+02621+01621999999ADDAA106000091AG10000GF107991071061008001001001MA1999999093271MD1999999+0101REMSYN011 333 58010;
0096831820999991996060918004-11300-041867FM-12+074799999V0201401N00721220001CN0100001N1+02651+01351101741ADDAA106000091AG10000GF102991011021008001001011MA1999999093351MD1999999+0081REMSYN011 333 58008;
0150831820999991996061000004-11300-041867FM-12+074799999V0200901N00511220001CN9999999N9+02001+01461102001ADDAA106000091AG10000GA1001+999999999GF100991001001999999001001KA1240M+02731MA1999999093581MD1999999+0091REMSYN017 333 10273 58009;EQDQ01+000002VOVAR 
0115831820999991996061012004-11300-041867FM-12+074799999V0201401N00821007501CN0100001N1+02131+01441102031ADDAA106000091AG10000GF107991071051008001001001KA1240N+01721MA1999999093601MD1999999-0031REMSYN017 333 20172 59003;
0096831820999991996061018004-11300-041867FM-12+074799999V0201401N00511007501CN0100001N1+02501+01501101671ADDAA106000091AG10000GF108991051021008001001011MA1999999093271MD1999999-0081REMSYN011 333 59008;
0134831820999991996061100004-11300-041867FM-12+074799999V0201401N00511220001CN9999999N9+02001+01581101901ADDAA106000091AG10000GF108991001001999999001011KA1240M+02561MA1999999093471MD1999999-0111REMSYN017 333 10256 59011;EQDQ01+000002VOVAR 
0115831820999991996061112004-11300-041867FM-12+074799999V0201401N00771007501CN0100001N1+02111+01511101891ADDAA106000091AG10000GF106991061021008001001001KA1240N+01651MA1999999093461MD1999999-0141REMSYN017 333 20165 59014;
0120831820999991996061200004-11300-041867FM-12+074799999V0201401N00461007501CN9999999N9+01991+01571101901ADDAA106000091AG10000GF106991051021008001001011KA1240M+02521MA1999999093471REMSYN017 333 10252 50000;EQDQ01+000002VOVAR 
0115831820999991996061212004-11300-041867FM-12+074799999V0201401N00871007501CN0100001N1+02281+01751101861ADDAA106000091AG10000GF106991061051008001001001KA1240N+01861MA1999999093451MD1999999-0011REMSYN017 333 20186 59001;
0096831820999991996061218004-11300-041867FM-12+074799999V0201401N00771007501CN0200001N1+02471+01681101651ADDAA106000091AG10000GF108991081051008001999999MA1999999093261MD1999999+0041REMSYN011 333 58004;
0134831820999991996061300004-11300-041867FM-12+074799999V0201401N00411004201CN9999999N9+01951+01771101911ADDAA106000091AG10000GF106991061061004501001001KA1240M+02541MA1999999093491MD1999999+0021REMSYN017 333 10254 58002;EQDQ01+000002VOVAR 
0162831820999991996061312004-11300-041867FM-12+074799999V0201401N00871220001CN0100001N1+02031+01481101911ADDAA124000591AG10002AY161061AY261061GF107991011021008001001041KA1240N+01721MA1999999999999MD1999999+0021MW1031REMSYN023 333 20172 58002 69944;EQDQ01 103473APOSP 
0115831820999991996061318004-11300-041867FM-12+074799999V0200901N00821105001CN0000001N1+02411+01551101611ADDAA106000091AG10000GF108991021021008001001021MA1999999093212MD1999999-0051REMSYN011 333 59005;EQDQ01+093213APOSP 
0115831820999991996061412004-11300-041867FM-12+074799999V0201401N00721007501CN0100001N1+02171+01611101731ADDAA106000091AG10000GF107991071051008001001001KA1240N+01741MA1999999093331MD1999999-0141REMSYN017 333 20174 59014;
0115831820999991996061418004-11300-041867FM-12+074799999V0201401N006719999999N0100001N1+02341+01491101591ADDAA106000091AG10000GF107991999061004501001001MA1999999093171MD1999999-0041REMSYN011 333 59004;EQDQ01+000032SCOTLC
0134831820999991996061500004-11300-041867FM-12+074799999V0201401N00511220001CN9999999N9+02031+01461101771ADDAA106000091AG10000GF106991011051008001001011KA1240M+02491MA1999999093361MD1999999-0041REMSYN017 333 10249 59004;EQDQ01+000002VOVAR 
0115831820999991996061512004-11300-041867FM-12+074799999V0201401N00571220001CN0100001N1+02231+01481101761ADDAA106000091AG10000GF101991011011012501001001KA1240N+01641MA1999999093361MD1999999+0031REMSYN017 333 20164 58003;
0096831820999991996061518004-11300-041867FM-12+074799999V0200901N00511045001CN0100001N1+02711+01411101391ADDAA106000091AG10000GF105991031021008001031011MA1999999093021MD1999999-0151REMSYN011 333 59015;
0134831820999991996061600004-11300-041867FM-12+074799999V0201401N00261220001CN9999999N9+02011+01481101661ADDAA106000091AG10000GF103991001001999999001011KA1240M+02761MA1999999093261MD1999999-0101REMSYN017 333 10276 59010;EQDQ01+000002VOVAR 
0115831820999991996061612004-11300-041867FM-12+074799999V0201401N00621007501CN0100001N1+02181+01631101681ADDAA106000091AG10000GF107991071051008001001001KA1240N+01761MA1999999093281MD1999999-0081REMSYN017 333 20176 59008;
0112831820999991996061618004-11300-041867FM-12+074799999V0200901N00461220001CN0100001N1+02871+01291101181ADDAA106000091AG10000GA1001+999999999GF100991001001999999001001MA1999999092861MD1999999-0161REMSYN011 333 59016;
0150831820999991996061700004-11300-041867FM-12+074799999V0200901N00511220001CN9999999N9+02301+01681101421ADDAA106000091AG10000GA1001+999999999GF100991001001999999001001KA1240M+02901MA1999999093061MD1999999-0201REMSYN017 333 10290 59020;EQDQ01+000002VOVAR 
0115831820999991996061712004-11300-041867FM-12+074799999V0201401N00511007501CN0100001N1+02281+01811101541ADDAA106000091AG10000GF108991081051008001999999KA1240N+01881MA1999999093181MD1999999-0101REMSYN017 333 20188 59010;
0096831820999991996061718004-11300-041867FM-12+074799999V0200901N00511007501CN0200001N1+02571+01751101181ADDAA106000091AG10000GF106991051021008001051011MA1999999092851MD1999999-0011REMSYN011 333 59001;
0134831820999991996061800004-11300-041867FM-12+074799999V0200901N00311045001CN9999999N9+02091+01601101501ADDAA106000091AG10000GF106991011021008001061001KA1240M+02671MA1999999093131MD1999999+0071REMSYN017 333 10267 58007;EQDQ01+000002VOVAR 
0115831820999991996061812004-11300-041867FM-12+074799999V0201401N00511220001CN0100001N1+02311+01771101611ADDAA106000091AG10000GF103991031021008001001001KA1240N+01741MA1999999093231MD1999999+0051REMSYN017 333 20174 58005;
0096831820999991996061818004-11300-041867FM-12+074799999V0201401N00461220001CN0100001N1+02891+01421101181ADDAA106000091AG10000GF101991011021008001001001MA1999999092851MD1999999+0001REMSYN011 333 58000;
0131831820999991996061912004-11300-041867FM-12+074799999V0201401N00671220001CN0100001N1+02271+01341101561ADDAA106000091AG10000GA1001+999999999GF100991001001999999001001KA1240N+01521MA1999999093181MD1999999-0051REMSYN017 333 20152 59005;
0112831820999991996061918004-11300-041867FM-12+074799999V0200901N00511220001CN0100001N1+02891+01001101241ADDAA106000091AG10000GA1001+999999999GF100991001001999999001001MA1999999092901MD1999999+0051REMSYN011 333 58005;
0115831820999991996062012004-11300-041867FM-12+074799999V0201401N00461007501CN0100001N1+02111+01491101691ADDAA106000091AG10000GF107991071021008001001001KA1240N+01441MA1999999093291MD1999999+0111REMSYN017 333 20144 58011;
0112831820999991996062018004-11300-041867FM-12+074799999V0201401N00671220001CN0100001N1+02851+00871101351ADDAA106000091AG10000GA1001+999999999GF100991001001999999001001MA1999999093001MD1999999+0101REMSYN011 333 58010;
0115831820999991996062112004-11300-041867FM-12+074799999V0201401N00261007501CN0100001N1+02211+01741101741ADDAA106000091AG10000GF108991081051008001999999KA1240N+01681MA1999999093331MD1999999+0041REMSYN017 333 20168 58004;
0096831820999991996062118004-11300-041867FM-12+074799999V0200901N00461220001CN0100001N1+02971+01711101331ADDAA106000091AG10000GF102991021021008001001001MA1999999093011MD1999999+0011REMSYN011 333 58001;
0134831820999991996062200004-11300-041867FM-12+074799999V0201401N00461004201CN9999999N9+02171+01971101671ADDAA106000091AG10000GF108991081071004501999999KA1240M+03001MA1999999093281MD1999999+0021REMSYN017 333 10300 58002;EQDQ01+000002VOVAR 
0143831820999991996062212004-11300-041867FM-12+074799999V0200901N00511007501CN0100001N1+02281+01901101761ADDAA124004091AG10002AY161061AY221061GF106991061021008001001001KA1240N+01921MA1999999093371MD1999999+0041MW1031REMSYN023 333 20192 58004 60044;
0096831820999991996062218004-11300-041867FM-12+074799999V0200901N00311220001CN0100001N1+02781+01371101461ADDAA106000091AG10000GF102991011021008001001011MA1999999093131MD1999999+0121REMSYN011 333 58012;
0096831820999991996062318004-11300-041867FM-12+074799999V0200901N00571220001CN0100001N1+02781+01181101611ADDAA106000091AG10000GF102991001001999999001011MA1999999093231MD1999999+0101REMSYN011 333 58010;
0115831820999991996062412004-11300-041867FM-12+074799999V0200901N00411220001CN0100001N1+02021+01561101981ADDAA106000091AG10000GF103991031021008001001001KA1240N+01401MA1999999093531MD1999999-0041REMSYN017 333 20140 59004;
0112831820999991996062418004-11300-041867FM-12+074799999V0200901N00621220001CN0100001N1+02621+01191101571ADDAA106000091AG10000GA1001+999999999GF100991001001999999001001MA1999999093171MD1999999-0061REMSYN011 333 59006;
0135831820999991996062500004-11300-041867FM-12+074799999V0200901N00261220001CN9999999N9+01911+01251101771ADDAA106000091AG10000GA1001+999999999GF100991001001999999001001KA1240M+02681MD1999999-0061REMSYN017 333 10268 59006;EQDQ01+000002VOVAR 
0115831820999991996062512004-11300-041867FM-12+074799999V0200901N00511007501CN0100001N1+02151+01411101861ADDAA106000091AG10000GF105991051021008001001001KA1240N+01281MA1999999093441MD1999999-0091REMSYN017 333 20128 59009;
0150831820999991996062600004-11300-041867FM-12+074799999V0200901N00311220001CN9999999N9+01971+01591101681ADDAA106000091AG10000GA1001+999999999GF100991001001999999001001KA1240M+02691MA1999999093271MD1999999-0071REMSYN017 333 10269 59007;EQDQ01+000002VOVAR 
0096831820999991996062618004-11300-041867FM-12+074799999V0200501N00361220001CN0200001N1+02791+01141101161ADDAA106000091AG10000GF101991011021008001001001MA1999999092841MD1999999-0221REMSYN011 333 59022;
0150831820999991996062700004-11300-041867FM-12+074799999V0200901N00101220001CN9999999N9+02091+01331101511ADDAA106000091AG10000GA1001+999999999GF100991001001999999001001KA1240M+02851MA1999999093131MD1999999-0141REMSYN017 333 10285 59014;EQDQ01+000002VOVAR 
0115831820999991996062712004-11300-041867FM-12+074799999V0200901N00261015001CN0100001N1+02241+01671101591ADDAA106000091AG10000GF107991071081012501001001KA1240N+01181MA1999999093201MD1999999-0181REMSYN017 333 20118 59018;
0096831820999991996062718004-11300-041867FM-12+074799999V0200501N00101220001CN0100001N1+02891+01091101071ADDAA106000091AG10000GF102991011021008001001011MA1999999092761MD1999999-0081REMSYN011 333 59008;
0150831820999991996062800004-11300-041867FM-12+074799999V0201401N00151220001CN9999999N9+02211+01141101351ADDAA106000091AG10000GA1001+999999999GF100991001001999999001001KA1240M+02921MA1999999093001MD1999999-0131REMSYN017 333 10292 59013;EQDQ01+000002VOVAR 
0115831820999991996062812004-11300-041867FM-12+074799999V0201401N00211220001CN0100001N1+02501+01621101481ADDAA106000091AG10000GF102991001001999999001011KA1240N+01581MA1999999093141MD1999999-0061REMSYN017 333 20158 59006;
0096831820999991996062818004-11300-041867FM-12+074799999V0202701N00211220001CN0100001N1+03151+00841101011ADDAA106000091AG10000GF108991001001999999001011MA1999999092771MD1999999-0041REMSYN011 333 59004;
0134831820999991996062900004-11300-041867FM-12+074799999V0200901N00571220001CN9999999N9+02331+01371101381ADDAA106000091AG10000GF106991001001999999001011KA1240M+03151MA1999999093051MD1999999+0051REMSYN017 333 10315 58005;EQDQ01+000002VOVAR 
