0134832290999991996010100004-13017-038517FM-12+005199999V0200501N00311220001CN9999999N9+02601+02291101231ADDAA106000091AG10000GF102991001001999999001061KA1240M+03161MA1999999100631MD1999999-0171REMSYN017 333 10316 59017;EQDQ01+000002VOVAR 
0115832290999991996010112004-13017-038517FM-12+005199999V0203201N00051105001CN0100001N1+02801+02221101391ADDAA106000091AG10000GF105991041051008001001021KA1240N+02341MA1999999100791MD1999999+0071REMSYN017 333 20234 58007;
0096832290999991996010118004-13017-038517FM-12+005199999V0200501N00261220001CN0100001N1+03021+02361101181ADDAA106000091AG10000GF102991011021008001001021MA1999999100581MD1999999+0071REMSYN011 333 58007;
0150832290999991996010200004-13017-038517FM-12+005199999V0200501N00261220001CN9999999N9+02581+02311101401ADDAA106000091AG10000GA1001+999999999GF100991001001999999001001KA1240M+03091MA1999999100801MD1999999+0171REMSYN017 333 10309 58017;EQDQ01+000002VOVAR 
0115832290999991996010212004-13017-038517FM-12+005199999V0200501N00151220001CN0200001N1+02981+02281101551ADDAA106000091AG10000GF102991021021008001001051KA1240N+02411MA1999999100951MD1999999+0161REMSYN017 333 20241 58016;
0096832290999991996010218004-13017-038517FM-12+005199999V0200901N00311220001CN0200001N1+03021+02341101231ADDAA106000091AG10000GF101991001001999999001021MA1999999100631MD1999999+0051REMSYN011 333 58005;
0150832290999991996010300004-13017-038517FM-12+005199999V0200501N00151220001CN9999999N9+02591+02191101321ADDAA106000091AG10000GA1001+999999999GF100991001001999999001001KA1240M+03121MA1999999100721MD1999999-0081REMSYN017 333 10312 59008;EQDQ01+000002VOVAR 
0115832290999991996010312004-13017-038517FM-12+005199999V0201401N00151004201CN0200001N1+02811+02481101401ADDAA106000091AG10000GF105991051091004501001001KA1240N+02411MA1999999100821MD1999999-0131REMSYN017 333 20241 59013;
0096832290999991996010318004-13017-038517FM-12+005199999V0200501N00311220001CN0200001N1+02931+02241101261ADDAA106000091AG10000GF102991011021008001041001MA1999999100661MD1999999+0031REMSYN011 333 58003;
0134832290999991996010400004-13017-038517FM-12+005199999V0200501N00211220001CN9999999N9+02621+02111101411ADDAA106000091AG10000GF101991011001999999041001KA1240M+03151MA1999999100811MD1999999+0091REMSYN017 333 10315 58009;EQDQ01+000002VOVAR 
0115832290999991996010412004-13017-038517FM-12+005199999V0200501N00151220001CN0200001N1+02991+02151101571ADDAA106000091AG10000GF102991011021008001001051KA1240N+02461MA1999999100971MD1999999+0011REMSYN017 333 20246 58001;
0112832290999991996010418004-13017-038517FM-12+005199999V0201401N00151220001CN0200001N1+02911+02391101361ADDAA106000091AG10000GA1001+999999999GF100991001001999999001001MA1999999100781MD1999999+0121REMSYN011 333 58012;
0150832290999991996010500004-13017-038517FM-12+005199999V0200901N00151220001CN9999999N9+02551+01931101441ADDAA106000091AG10000GA1001+999999999GF100991001001999999001001KA1240M+03121MA1999999100841MD1999999+0031REMSYN017 333 10312 58003;EQDQ01+000002VOVAR 
0131832290999991996010512004-13017-038517FM-12+005199999V0200901N00151220001CN0200001N1+02861+02111101401ADDAA106000091AG10000GA1001+999999999GF100991001001999999001001KA1240N+02401MA1999999100821MD1999999-0151REMSYN017 333 20240 59015;
0096832290999991996010518004-13017-038517FM-12+005199999V0200901N00311220001CN0200001N1+03011+02551101151ADDAA106000091AG10000GF102991021021004501001001MA1999999100571MD1999999-0211REMSYN011 333 59021;
0143832290999991996010612004-13017-038517FM-12+005199999V0200901N00151220001CN0200001N1+02811+02341101291ADDAA124008091AG10003AY161061AY221061GF102991021021002501001001KA1240N+02391MA1999999100711MD1999999-0111MW1031REMSYN023 333 20239 59011 60084;
0096832290999991996010618004-13017-038517FM-12+005199999V0200901N00211220001CN0200001N1+02961+02331101121ADDAA106000091AG10000GF101991011031008001001001MA1999999100521MD1999999-0051REMSYN011 333 59005;
0134832290999991996010700004-13017-038517FM-12+005199999V0200901N00151220001CN9999999N9+02561+02151101251ADDAA106000091AG10000GF101991011091008001001001KA1240M+03041MA1999999100651MD1999999+0021REMSYN017 333 10304 58002;EQDQ01+000002VOVAR 
0115832290999991996010712004-13017-038517FM-12+005199999V0200901N00151220001CN0200001N1+02911+02341101391ADDAA106000091AG10000GF102991021021002501001001KA1240N+02411MA1999999100811MD1999999+0111REMSYN017 333 20241 58011;
0096832290999991996010718004-13017-038517FM-12+005199999V0200901N00211220001CN0200001N1+02961+02261101681ADDAA106000091AG10000GF102991011021008001041051MA1999999100681MD1999999+0161REMSYN011 333 58016;
0134832290999991996010800004-13017-038517FM-12+005199999V0201401N00211220001CN9999999N9+02561+02171101351ADDAA106000091AG10000GF101991011021012501001001KA1240M+03041MA1999999100751MD1999999+0101REMSYN017 333 10304 58010;EQDQ01+000002VOVAR 
0115832290999991996010812004-13017-038517FM-12+005199999V0200501N00151220001CN0200001N1+02881+02371101601ADDAA106000091AG10000GF102991021021008001001051KA1240N+02501MA1999999101001MD1999999+0191REMSYN017 333 20250 58019;
0096832290999991996010818004-13017-038517FM-12+005199999V0201401N00151105001CN0200001N1+03041+02361101411ADDAA106000091AG10000GF106991011011008001001021MA1999999100811MD1999999+0141REMSYN011 333 58014;
0134832290999991996010900004-13017-038517FM-12+005199999V0201401N00051220001CN9999999N9+02591+02211101431ADDAA106000091AG10000GF101991011021008001001001KA1240M+03121MA1999999100831MD1999999+0081REMSYN017 333 10312 58008;EQDQ01+000002VOVAR 
0143832290999991996010912004-13017-038517FM-12+005199999V0203601N00051220001CN0200001N1+02781+02341101511ADDAA124000191AG10003AY161061AY221061GF104991041051004501001001KA1240N+02511MA1999999100931MD1999999-0071MW1031REMSYN023 333 20251 59007 69924;
0115832290999991996010918004-13017-038517FM-12+005199999V0200901N00311220001CN0200001N1+03011+02571101331ADDAA106000091AG10000GF102991001001999999001021MA1999999101021MD1999999+0211REMSYN011 333 58021;EQDQ01+000982SCOLCB
0150832290999991996011000004-13017-038517FM-12+005199999V0200501N00311220001CN9999999N9+02631+02271101441ADDAA106000091AG10000GA1001+999999999GF100991001001999999001001KA1240M+03181MA1999999100841MD1999999+0011REMSYN017 333 10318 58001;EQDQ01+000002VOVAR 
0115832290999991996011012004-13017-038517FM-12+005199999V0200501N00151220001CN0200001N1+02921+02291101491ADDAA106000091AG10000GF103991021021008001001011KA1240N+02461MA1999999100891MD1999999-0041REMSYN017 333 20246 59004;
0096832290999991996011018004-13017-038517FM-12+005199999V0200901N00151045001CN0100001N1+03061+02361101201ADDAA106000091AG10000GF106991011011008001051021MA1999999100601MD1999999-0151REMSYN011 333 59015;
0134832290999991996011100004-13017-038517FM-12+005199999V0200501N00151220001CN9999999N9+02641+02391101351ADDAA106000091AG10000GF101991011011008001001001KA1240M+03081MA1999999100751MD1999999-0091REMSYN017 333 10308 59009;EQDQ01+000002VOVAR 
0115832290999991996011112004-13017-038517FM-12+005199999V0200501N00151007501CN0100001N1+02941+02331101411ADDAA106000091AG10000GF107991051021008001001011KA1240N+02441MA1999999100811MD1999999-0081REMSYN017 333 20244 59008;
0096832290999991996011118004-13017-038517FM-12+005199999V0200501N00151220001CN0100001N1+03061+02351101181ADDAA106000091AG10000GF101991011011008001001001MA1999999100581MD1999999-0021REMSYN011 333 59002;
0134832290999991996011200004-13017-038517FM-12+005199999V0200501N00151220001CN9999999N9+02601+02211101351ADDAA106000091AG10000GF101991011011008001001001KA1240M+03161MA1999999100751MD1999999+0001REMSYN017 333 10316 58000;EQDQ01+000002VOVAR 
0115832290999991996011212004-13017-038517FM-12+005199999V0201401N00101045001CN0200001N1+02861+02281101421ADDAA106000091AG10000GF106991031021008001041061KA1240N+02451MA1999999100821MD1999999+0011REMSYN017 333 20245 58001;
0096832290999991996011218004-13017-038517FM-12+005199999V0200901N00211105001CN0200001N1+02781+02211101221ADDAA106000091AG10000GF106991021021008001021061MA1999999100621MD1999999+0041REMSYN011 333 58004;
0134832290999991996011300004-13017-038517FM-12+005199999V0200901N00151045001CN9999999N9+02581+02311101271ADDAA106000091AG10000GF105991031011008001051001KA1240M+03091MA1999999100671MD1999999-0081REMSYN017 333 10309 59008;EQDQ01+000002VOVAR 
0115832290999991996011312004-13017-038517FM-12+005199999V0201401N00101220001CN0200001N1+02841+02141101361ADDAA106000091AG10000GF102991021021008001001001KA1240N+02461MA1999999100761MD1999999-0061REMSYN017 333 20246 59006;
0096832290999991996011318004-13017-038517FM-12+005199999V0201401N00211220001CN0100001N1+02841+02241101241ADDAA106000091AG10000GF102991021021008001041001MA1999999100641MD1999999+0021REMSYN011 333 58002;
0134832290999991996011400004-13017-038517FM-12+005199999V0201401N00151220001CN9999999N9+02561+02211101261ADDAA106000091AG10000GF101991011011008001001001KA1240M+03091MA1999999100661MD1999999-0011REMSYN017 333 10309 59001;EQDQ01+000002VOVAR 
0115832290999991996011412004-13017-038517FM-12+005199999V0201401N00151220001CN0100001N1+02941+02241101361ADDAA106000091AG10000GF102991021011008001001001KA1240N+02421MA1999999100761MD1999999+0081REMSYN017 333 20242 58008;
0096832290999991996011418004-13017-038517FM-12+005199999V0201401N00151220001CN0100001N1+02731+02281101341ADDAA106000091AG10000GF106991041021008001001011MA1999999100741MD1999999+0101REMSYN011 333 58010;
0134832290999991996011500004-13017-038517FM-12+005199999V0201401N00151220001CN9999999N9+02621+02211101351ADDAA106000091AG10000GF103991011011008001051001KA1240M+03041MA1999999100751MD1999999+0091REMSYN017 333 10304 58009;EQDQ01+000002VOVAR 
0115832290999991996011512004-13017-038517FM-12+005199999V0200901N00261220001CN0200001N1+02881+02251101381ADDAA106000091AG10000GF102991021021008001001011KA1240N+02361MA1999999100781MD1999999+0021REMSYN017 333 20236 58002;
0096832290999991996011518004-13017-038517FM-12+005199999V0200901N00151105001CN0200001N1+02941+02521101051ADDAA106000091AG10000GF105991021021012501001021MA1999999100471MD1999999-0271REMSYN011 333 59027;
0134832290999991996011600004-13017-038517FM-12+005199999V0200901N00051220001CN9999999N9+02591+02291101291ADDAA106000091AG10000GF102991021021008001001001KA1240M+03061MA1999999100691MD1999999-0061REMSYN017 333 10306 59006;EQDQ01+000002VOVAR 
0143832290999991996011612004-13017-038517FM-12+005199999V0200901N00151220001CN0200001N1+02861+02481101201ADDAA124002091AG10003AY161061AY221061GF104991021001017501061011KA1240N+02411MA1999999100621MD1999999-0161MW1031REMSYN023 333 20241 59016 60024;
0096832290999991996011618004-13017-038517FM-12+005199999V0201401N00151045001CN0100001N1+02841+02421101061ADDAA106000091AG10000GF107991011021008001051021MA1999999100461MD1999999-0011REMSYN011 333 59001;
0134832290999991996011700004-13017-038517FM-12+005199999V0200501N00151220001CN9999999N9+02601+02191101171ADDAA106000091AG10000GF102991021011008001001001KA1240M+03041MA1999999100571MD1999999-0121REMSYN017 333 10304 59012;EQDQ01+000002VOVAR 
0115832290999991996011712004-13017-038517FM-12+005199999V0200901N00151220001CN0100001N1+02881+02211101231ADDAA106000091AG10000GF103991999999008001999999KA1240N+02451MA1999999100631MD1999999+0011REMSYN017 333 20245 58001;
0096832290999991996011718004-13017-038517FM-12+005199999V0201401N00211220001CN0200001N1+03021+02291100931ADDAA106000091AG10000GF102991011021008001001061MA1999999100331MD1999999-0131REMSYN011 333 59013;
0096832290999991996011818004-13017-038517FM-12+005199999V0200501N00311220001CN0200001N1+03061+02451100921ADDAA106000091AG10000GF101991011001008001041001MA1999999100341MD1999999+0011REMSYN011 333 58001;
0166832290999991996011900004-13017-038517FM-12+005199999V0200901N00151220001CN9999999N9+02661+02411101121ADDAA106000091AG10000GA1001+999999999GF100991001001999999001001KA1240M+03321MA1999999100531MD1999999+0041REMSYN017 333 10332 58004;EQDQ01+999990APOSLPQ02+000002VOVAR 
0115832290999991996011912004-13017-038517FM-12+005199999V0203201N00101007501CN0040001N1+02771+02401101231ADDAA106000091AG10000GF106991061051008001001001KA1240N+02501MA1999999100631MD1999999+0031REMSYN017 333 20250 58003;
0096832290999991996011918004-13017-038517FM-12+005199999V0200501N00151220001CN0100001N1+03101+02511101001ADDAA106000091AG10000GF103991031021008001001001MA1999999100401MD1999999+0061REMSYN011 333 58006;
0115832290999991996012000004-13017-038517FM-12+005199999V0201401N00151220001CN0100001N1+02651+02391101091ADDAA106000091AG10000GF101991011011008001001001KA1240M+03301MA1999999100491MD1999999-0041REMSYN017 333 10330 59004;
0115832290999991996012012004-13017-038517FM-12+005199999V0200501N00151105001CN0100001N1+02981+02331101241ADDAA106000091AG10000GF105991011021008001051021KA1240N+02551MA1999999100641MD1999999+0011REMSYN017 333 20255 58001;
0096832290999991996012018004-13017-038517FM-12+005199999V0200501N00211105001CN0200001N1+03161+02291101061ADDAA106000091AG10000GF106991011021008001041061MA1999999100461MD1999999+0061REMSYN011 333 58006;
0134832290999991996012100004-13017-038517FM-12+005199999V0200901N00151007501CN9999999N9+02691+02321101091ADDAA106000091AG10000GF106991061021008001001001KA1240M+03241MA1999999100491MD1999999+0001REMSYN017 333 10324 58000;EQDQ01+000002VOVAR 
0135832290999991996012112004-13017-038517FM-12+005199999V0200901N00211220001CN0200001N1+02961+02331101311ADDAA124000191AG10000AY151061GF103991021021008001041001KA1240N+02501MA1999999100711MD1999999+0071MW1031REMSYN023 333 20250 58007 69924;
0096832290999991996012118004-13017-038517FM-12+005199999V0201401N00151220001CN0200001N1+02901+02221101111ADDAA106000091AG10000GF102991021031008001001001MA1999999100511MD1999999+0051REMSYN011 333 58005;
0134832290999991996012200004-13017-038517FM-12+005199999V0200901N00101220001CN9999999N9+02631+02181101091ADDAA106000091AG10000GF102991011021008001021001KA1240M+03131MA1999999100491MD1999999+0001REMSYN017 333 10313 58000;EQDQ01+000002VOVAR 
0121832290999991996012212004-13017-038517FM-12+005199999V0200901N00101220001CN0100001N1+02831+02241101201ADDAA124007091AG10000GF103991021031008001051001KA1240N+02381MA1999999100601MD1999999-0111REMSYN023 333 20238 59011 60074;
0096832290999991996012218004-13017-038517FM-12+005199999V0201401N00151220001CN0100001N1+02991+02301101031ADDAA106000091AG10000GF101991011011008001001001MA1999999100431MD1999999-0081REMSYN011 333 59008;
0134832290999991996012300004-13017-038517FM-12+005199999V0200901N00151220001CN9999999N9+02581+02141101051ADDAA106000091AG10000GF101991011011008001001001KA1240M+03041MA1999999100451MD1999999-0041REMSYN017 333 10304 59004;EQDQ01+000002VOVAR 
0115832290999991996012312004-13017-038517FM-12+005199999V0201401N00151007501CN0100001N1+02761+02191101231ADDAA106000091AG10000GF106991061051008001001001KA1240N+02401MA1999999100631MD1999999+0031REMSYN017 333 20240 58003;
0096832290999991996012318004-13017-038517FM-12+005199999V0201401N00211220001CN0200001N1+02921+02151101131ADDAA106000091AG10000GF103991011021008001041001MA1999999100531MD1999999+0101REMSYN011 333 58010;
0134832290999991996012400004-13017-038517FM-12+005199999V0201401N00151220001CN9999999N9+02581+02271101151ADDAA106000091AG10000GF101991011011008001001001KA1240M+03001MA1999999100551MD1999999+0101REMSYN017 333 10300 58010;EQDQ01+000002VOVAR 
0115832290999991996012418004-13017-038517FM-12+005199999V0200901N00151220001CN0200001N1+03041+02411101211ADDAA106000091AG10000GF101991001001999999001011MA1999999100631MD1999999-0101REMSYN011 333 59010;EQDQ01+000982SCOLCB
0150832290999991996012500004-13017-038517FM-12+005199999V0200501N00151220001CN9999999N9+02691+02271101261ADDAA106000091AG10000GA1001+999999999GF100991001001999999001001KA1240M+03181MA1999999100681MD1999999+0131REMSYN017 333 10318 58013;EQDQ01+000002VOVAR 
0143832290999991996012512004-13017-038517FM-12+005199999V0200501N00151220001CN0200001N1+02911+02321101511ADDAA124000591AG10003AY161061AY221061GF102991011021008001021001KA1240N+02451MA1999999100931MD1999999+0301MW1031REMSYN023 333 20245 58030 69954;
0096832290999991996012518004-13017-038517FM-12+005199999V0201401N00151220001CN0200001N1+03141+02301101301ADDAA106000091AG10000GF101991011011008001001001MA1999999100701MD1999999+0071REMSYN011 333 58007;
0150832290999991996012600004-13017-038517FM-12+005199999V0201401N00151220001CN9999999N9+02661+02301101321ADDAA106000091AG10000GF102991999011008001001001KA1240M+03281MA1999999100721MD1999999+0041REMSYN017 333 10328 58004;EQDQ01+000012SCOTLCQ02+000002VOVAR 
0115832290999991996012612004-13017-038517FM-12+005199999V0201401N00151220001CN0200001N1+02961+02261101371ADDAA106000091AG10000GF103991031021008001001001KA1240N+02511MA1999999100771MD1999999-0161REMSYN017 333 20251 59016;
0096832290999991996012618004-13017-038517FM-12+005199999V0200501N00211045001CN0100001N1+02961+02381101221ADDAA106000091AG10000GF105991031021008001041001MA1999999100621MD1999999-0081REMSYN011 333 59008;
0150832290999991996012700004-13017-038517FM-12+005199999V0200501N00151220001CN9999999N9+02621+02161101331ADDAA106000091AG10000GF102991999011008001001001KA1240M+03131MA1999999100731MD1999999+0111REMSYN017 333 10313 58011;EQDQ01+000012SCOTLCQ02+000002VOVAR 
0135832290999991996012712004-13017-038517FM-12+005199999V0202301N00101045001CN0200001N1+02761+02401101241ADDAA124005091AG10003AY161061GF105991031021008001041001KA1240N+02381MA1999999100641MD1999999-0131MW1031REMSYN023 333 20238 59013 60054;
0124832290999991996012718004-13017-038517FM-12+005199999V0200901N00051007501CN0100001N1+02581+02401101131ADDAA106002091AG10003AY161061AY261061GF107991071051008001001001MA1999999100531MD1999999-0091MW1021REMSYN017 333 59009 60021;
0162832290999991996012800004-13017-038517FM-12+005199999V0209991C00001007501CN9999999N9+02421+02371101191ADDAA106021091AG10003AY161061AY261061GF105991051051008001001001KA1240M+02831MA1999999100571MD1999999-0161MW1021REMSYN023 333 10283 59016 60211;EQDQ01+000002VOVAR 
0143832290999991996012812004-13017-038517FM-12+005199999V0200901N00101220001CN0200001N1+02871+02481101231ADDAA124029091AG10003AY161061AY261061GF104991041051008001001001KA1240N+02321MA1999999100631MD1999999-0011MW1021REMSYN023 333 20232 59001 60294;
0096832290999991996012818004-13017-038517FM-12+005199999V0201401N00151220001CN0100001N1+03061+02521101001ADDAA106000091AG10000GF103991031021008001001001MA1999999100491MD1999999-0041REMSYN011 333 59004;
0134832290999991996012900004-13017-038517FM-12+005199999V0201401N00151220001CN9999999N9+02641+02371101231ADDAA106000091AG10000GF102991021011008001001001KA1240M+03101MA1999999100631MD1999999+0041REMSYN017 333 10310 58004;EQDQ01+000002VOVAR 
0115832290999991996012912004-13017-038517FM-12+005199999V0201401N00151220001CN0100001N1+02881+02321101331ADDAA106000091AG10000GF105991041021008001001011KA1240N+02501MA1999999100731MD1999999+0101REMSYN017 333 20250 58010;
0096832290999991996012918004-13017-038517FM-12+005199999V0201401N00311045001CN0100001N1+02741+02341101231ADDAA106000091AG10000GF106991031031008001041061MA1999999100631MD1999999+0141REMSYN011 333 58014;
0134832290999991996013000004-13017-038517FM-12+005199999V0201401N00151220001CN9999999N9+02581+02291101371ADDAA106000091AG10000GF101991011011008001001001KA1240M+03041MA1999999100771MD1999999+0141REMSYN017 333 10304 58014;EQDQ01+000002VOVAR 
0143832290999991996013012004-13017-038517FM-12+005199999V0200501N00211220001CN0200001N1+02881+02411101401ADDAA124003091AG10003AY161061AY251061GF103991021021008001031001KA1240N+02491MA1999999100801MD1999999+0071MW1031REMSYN023 333 20249 58007 60034;
0096832290999991996013018004-13017-038517FM-12+005199999V0201401N00151220001CN0200001N1+02921+02341101241ADDAA106000091AG10000GF102991021011008001001001MA1999999100641MD1999999+0011REMSYN011 333 58001;
0134832290999991996013100004-13017-038517FM-12+005199999V0201401N00151220001CN9999999N9+02661+02371101271ADDAA106000091AG10000GF102991021011008001001001KA1240M+03051MA1999999100671MD1999999-0101REMSYN017 333 10305 59010;EQDQ01+000002VOVAR 
0115832290999991996013112004-13017-038517FM-12+005199999V0201401N00151220001CN0100001N1+02801+02381101281ADDAA106000091AG10000GF104991041051008001001001KA1240N+02481MA1999999100681MD1999999-0121REMSYN017 333 20248 59012;
0096832290999991996013118004-13017-038517FM-12+005199999V0201401N00151220001CN0100001N1+03011+02321101111ADDAA106000091AG10000GF101991011011008001001001MA1999999100511MD1999999-0131REMSYN011 333 59013;
0134832290999991996020100004-13017-038517FM-12+005199999V0201401N00151220001CN9999999N9+02661+02271101151ADDAA106000091AG10000GF101991011011008001001001KA1240M+03081MA1999999100551MD1999999-0121REMSYN017 333 10308 59012;EQDQ01+000002VOVAR 
0115832290999991996020112004-13017-038517FM-12+005199999V0203201N00151007501CN0200001N1+02851+02281101351ADDAA106000091AG10000GF106991061021008001001001KA1240N+02501MA1999999100751MD1999999+0071REMSYN017 333 20250 58007;
0134832290999991996020200004-13017-038517FM-12+005199999V0201401N00151220001CN9999999N9+02681+02301101131ADDAA106000091AG10000GF101991011011008001001001KA1240M+03101MA1999999100531MD1999999-0021REMSYN017 333 10310 59002;EQDQ01+000002VOVAR 
0115832290999991996020212004-13017-038517FM-12+005199999V0203201N00101220001CN0200001N1+02761+02361101281ADDAA106000091AG10000GF104991031021008001041001KA1240N+02521MA1999999100681MD1999999-0071REMSYN017 333 20252 59007;
0115832290999991996020218004-13017-038517FM-12+005199999V0200901N00311220001CN0200001N1+03121+02511101081ADDAA106000091AG10000GF101991001001999999001011MA1999999100501MD1999999+0041REMSYN011 333 58004;EQDQ01+000982SCOLCB
0150832290999991996020300004-13017-038517FM-12+005199999V0200501N00151220001CN9999999N9+02681+02371101061ADDAA106000091AG10000GA1001+999999999GF100991001001999999001001KA1240M+03201MA1999999100481MD1999999-0051REMSYN017 333 10320 59005;EQDQ01+000002VOVAR 
0115832290999991996020312004-13017-038517FM-12+005199999V0203601N00311220001CN0200001N1+02911+02371101131ADDAA106000091AG10000GF103991031091004501001001KA1240N+02491MA1999999100551MD1999999-0131REMSYN017 333 20249 59013;
0096832290999991996020318004-13017-038517FM-12+005199999V0201401N00151220001CN0200001N1+03121+02461101021ADDAA106000091AG10000GF101991011011008001001001MA1999999100421MD1999999-0081REMSYN011 333 59008;
0134832290999991996020400004-13017-038517FM-12+005199999V0200501N00151220001CN9999999N9+02641+02231101151ADDAA106000091AG10000GF101991011011008001001001KA1240M+03181MA1999999100551MD1999999+0071REMSYN017 333 10318 58007;EQDQ01+000002VOVAR 
0134832290999991996020412004-13017-038517FM-12+005199999V0201401N00151007501CN0200001N1+02871+02251101211ADDAA106000091AG10000GF107991999051008001001001KA1240N+02421MA1999999100611MD1999999+0061REMSYN017 333 20242 58006;EQDQ01+000062SCOTLC
0096832290999991996020418004-13017-038517FM-12+005199999V0200901N00101220001CN0200001N1+03041+02381101001ADDAA106000091AG10000GF101991011021012501001001MA1999999100401MD1999999-0021REMSYN011 333 59002;
0134832290999991996020500004-13017-038517FM-12+005199999V0200501N00151220001CN9999999N9+02661+02261101091ADDAA106000091AG10000GF101991011011008001001001KA1240M+03101MA1999999100491MD1999999-0061REMSYN017 333 10310 59006;EQDQ01+000002VOVAR 
0115832290999991996020512004-13017-038517FM-12+005199999V0203201N00101220001CN0100001N1+02801+02361101251ADDAA106000091AG10000GF102991021021008001001001KA1240N+02471MA1999999100651MD1999999+0041REMSYN017 333 20247 58004;
0096832290999991996020518004-13017-038517FM-12+005199999V0200901N00151220001CN0200001N1+03081+02561100921ADDAA106000091AG10000GF102991021021004501001001MA1999999100341MD1999999-0061REMSYN011 333 59006;
0134832290999991996020600004-13017-038517FM-12+005199999V0200501N00151220001CN9999999N9+02651+02311100921ADDAA106000091AG10000GF101991011001008001031001KA1240M+03131MA1999999100341MD1999999-0151REMSYN017 333 10313 59015;EQDQ01+000002VOVAR 
0115832290999991996020612004-13017-038517FM-12+005199999V0200901N00151220001CN0200001N1+03041+02411101211ADDAA106000091AG10000GF103991021021004501041001KA1240N+02511MA1999999100631MD1999999-0021REMSYN017 333 20251 59002;
0096832290999991996020618004-13017-038517FM-12+005199999V0201401N00151105001CN0100001N1+03091+02441101131ADDAA106000091AG10000GF105991011011008001001021MA1999999100531MD1999999+0191REMSYN011 333 58019;
0134832290999991996020700004-13017-038517FM-12+005199999V0201401N00151220001CN9999999N9+02641+02241101211ADDAA106000091AG10000GF101991011011008001001001KA1240M+03121MA1999999100611MD1999999+0271REMSYN017 333 10312 58027;EQDQ01+000002VOVAR 
0115832290999991996020712004-13017-038517FM-12+005199999V0200501N00151220001CN0100001N1+02721+02191101371ADDAA106000091AG10000GF102991021021008001001001KA1240N+02501MA1999999100771MD1999999+0141REMSYN017 333 20250 58014;
0096832290999991996020718004-13017-038517FM-12+005199999V0201401N00211220001CN0200001N1+03121+02361101271ADDAA106000091AG10000GF102991011021012501041001MA1999999100671MD1999999+0041REMSYN011 333 58004;
0134832290999991996020800004-13017-038517FM-12+005199999V0200501N00151220001CN9999999N9+02681+02331101411ADDAA106000091AG10000GF101991011011008001001001KA1240M+03201MA1999999100811MD1999999+0201REMSYN017 333 10320 58020;EQDQ01+000002VOVAR 
0112832290999991996020818004-13017-038517FM-12+005199999V0200901N00261220001CN0200001N1+03071+02351101311ADDAA106000091AG10000GA1001+999999999GF100991001001999999001001MA1999999100711MD1999999+0041REMSYN011 333 58004;
0134832290999991996020900004-13017-038517FM-12+005199999V0200901N00151220001CN9999999N9+02641+02331101251ADDAA106000091AG10000GF101991011011004501001001KA1240M+03191MA1999999100671MD1999999+0141REMSYN017 333 10319 58014;EQDQ01+000002VOVAR 
0115832290999991996020912004-13017-038517FM-12+005199999V0200901N00151220001CN0200001N1+02951+02311101441ADDAA106000091AG10000GF101991011031008001001001KA1240N+02491MA1999999100841MD1999999-0121REMSYN017 333 20249 59012;
0096832290999991996020918004-13017-038517FM-12+005199999V0201401N00151220001CN0200001N1+03051+02361101201ADDAA106000091AG10000GF101991011021012501001001MA1999999100601MD1999999-0111REMSYN011 333 59011;
0150832290999991996021000004-13017-038517FM-12+005199999V0200501N00151220001CN9999999N9+02621+02231101151ADDAA106000091AG10000GF102991999011008001001001KA1240M+03141MA1999999100551MD1999999-0121REMSYN017 333 10314 59012;EQDQ01+000012SCOTLCQ02+000002VOVAR 
0115832290999991996021012004-13017-038517FM-12+005199999V0200501N00151007501CN0100001N1+02861+02261101251ADDAA106000091AG10000GF106991061051008001001001KA1240N+02431MA1999999100751MD1999999-0091REMSYN017 333 20243 59009;
0096832290999991996021018004-13017-038517FM-12+005199999V0200901N00151220001CN0200001N1+03081+02191101121ADDAA106000091AG10000GF101991011021012501001001MA1999999100521MD1999999-0081REMSYN011 333 59008;
0134832290999991996021100004-13017-038517FM-12+005199999V0201401N00151220001CN9999999N9+02611+02211101291ADDAA106000091AG10000GF101991011011008001001001KA1240M+03231MA1999999100691MD1999999+0141REMSYN017 333 10323 58014;EQDQ01+000002VOVAR 
0115832290999991996021112004-13017-038517FM-12+005199999V0201401N00151220001CN0100001N1+02921+02221101411ADDAA106000091AG10000GF103991031021008001001001KA1240N+02451MA1999999100811MD1999999+0061REMSYN017 333 20245 58006;
0115832290999991996021118004-13017-038517FM-12+005199999V0200901N00151220001CN0200001N1+03021+02411101161ADDAA106000091AG10000GF104991001001999999001011MA1999999100581MD1999999+0061REMSYN011 333 58006;EQDQ01+000982SCOLCB
0150832290999991996021200004-13017-038517FM-12+005199999V0200901N00151220001CN9999999N9+02611+02231101171ADDAA106000091AG10000GA1001+999999999GF100991001001999999001001KA1240M+03081MA1999999100591MD1999999-0101REMSYN017 333 10308 59010;EQDQ01+000002VOVAR 
0115832290999991996021212004-13017-038517FM-12+005199999V0200901N00211220001CN0200001N1+02981+02371101451ADDAA106000091AG10000GF103991021031008001001051KA1240N+02481MA1999999100851MD1999999+0041REMSYN017 333 20248 58004;
0096832290999991996021218004-13017-038517FM-12+005199999V0200901N00261220001CN0200001N1+03071+02631101291ADDAA106000091AG10000GF106991031041017501001011MA1999999100711MD1999999+0291REMSYN011 333 58029;
0150832290999991996021300004-13017-038517FM-12+005199999V0200901N00151220001CN9999999N9+02661+02331101321ADDAA106000091AG10000GA1001+999999999GF100991001001999999001001KA1240M+03151MA1999999100721MD1999999+0031REMSYN017 333 10315 58003;EQDQ01+000002VOVAR 
0143832290999991996021312004-13017-038517FM-12+005199999V0203601N00051004201CN0040001N1+02471+02271101421ADDAA124025091AG10003AY161061AY251061GF107991071071004501001001KA1240N+02271MA1999999100861MD1999999+0011MW1031REMSYN023 333 20227 58001 60254;
0096832290999991996021318004-13017-038517FM-12+005199999V0201401N00151220001CN0200001N1+02781+02341101311ADDAA106000091AG10000GF102991011021008001041001MA1999999100711MD1999999+0001REMSYN011 333 58000;
0134832290999991996021400004-13017-038517FM-12+005199999V0200901N00211007501CN9999999N9+02571+02351101381ADDAA106000091AG10000GF105991051051008001001001KA1240M+02901MA1999999100781MD1999999+0061REMSYN017 333 10290 58006;EQDQ01+000002VOVAR 
0115832290999991996021412004-13017-038517FM-12+005199999V0201401N00101045001CN0100001N1+02841+02311101431ADDAA106000091AG10000GF105991031031008001041001KA1240N+02481MA1999999100881MD1999999-0011REMSYN017 333 20248 59001;
0096832290999991996021418004-13017-038517FM-12+005199999V0200901N00211220001CN0200001N1+03051+02501101231ADDAA106000091AG10000GF103991031021004501001001MA1999999100651MD1999999-0061REMSYN011 333 59006;
0134832290999991996021500004-13017-038517FM-12+005199999V0200901N00151220001CN9999999N9+02611+02291101341ADDAA106000091AG10000GF102991021021008001001001KA1240M+03061MA1999999101031MD1999999+0251REMSYN017 333 10306 58025;EQDQ01+000002VOVAR 
0143832290999991996021512004-13017-038517FM-12+005199999V0202701N00261220001CN0200001N1+02701+02411101441ADDAA124006091AG10003AY161061AY221061GF103991021021008001031001KA1240N+02201MA1999999100861MD1999999+0031MW1031REMSYN023 333 20220 58003 60064;
0096832290999991996021518004-13017-038517FM-12+005199999V0201801N00311220001CN0200001N1+02841+02381101311ADDAA106000091AG10000GF102991011021008001021001MA1999999100711MD1999999+0061REMSYN011 333 58006;
0162832290999991996021600004-13017-038517FM-12+005199999V0201801N00261220001CN9999999N9+02641+02331101311ADDAA106006091AG10003AY161061AY221061GF102991021051002501001001KA1240M+02961MA1999999100731MD1999999-0301MW1031REMSYN023 333 10296 59030 60061;EQDQ01+000002VOVAR 
0162832290999991996021612004-13017-038517FM-12+005199999V0201801N00261220001CN9999999N9+02641+02331101311ADDAA106002091AG10003AY161061AY221061GF102991021051002501001001KA1240M+02961MA1999999100731MD1999999-0301MW1031REMSYN023 333 10296 59030 60021;EQDQ01+000002VOVAR 
0162832290999991996021700004-13017-038517FM-12+005199999V0200901N00101220001CN9999999N9+02391+02311101401ADDAA106014091AG10003AY161061AY211061GF102991021021008001041001KA1240M+02951MA1999999100801MD1999999+0071MW1211REMSYN023 333 10295 58007 60141;EQDQ01+000002VOVAR 
0135832290999991996021712004-13017-038517FM-12+005199999V0202301N00151220001CN0100001N1+02811+02521101341ADDAA124021091AG10000AY151061GF103991031031004501001001KA1240N+02381MA1999999100741MD1999999-0081MW1031REMSYN023 333 20238 59008 60214;
0134832290999991996021800004-13017-038517FM-12+005199999V0201401N00151220001CN9999999N9+02641+02391101311ADDAA106000091AG10000GF102991021021008001001001KA1240M+02791MA1999999100721MD1999999-0081REMSYN017 333 10279 59008;EQDQ01+000002VOVAR 
0143832290999991996021812004-13017-038517FM-12+005199999V0200901N00051004201CN0100001N1+02581+02491101341ADDAA124028091AG10003AY161061AY221061GF106991061071004501001011KA1240N+02411MA1999999100761MD1999999-0021MW1031REMSYN023 333 20241 59002 60284;
0134832290999991996021900004-13017-038517FM-12+005199999V0201401N00311220001CN9999999N9+02701+02431101161ADDAA106000091AG10000GF102991021021008001001001KA1240M+02821MA1999999100561MD1999999-0161REMSYN017 333 10282 59016;EQDQ01+000002VOVAR 
0143832290999991996021912004-13017-038517FM-12+005199999V0200901N000519999999N0040001N1+02581+02271101191ADDAA124005091AG10003AY161061AY221061GF106991061001008001041001KA1240N+02231MA1999999100611MD1999999-0151MW1031REMSYN023 333 20223 59015 60054;
0096832290999991996021918004-13017-038517FM-12+005199999V0201401N00151007501CN0100001N1+03021+02501101011ADDAA106000091AG10000GF105991051011008001001021MA1999999100411MD1999999-0011REMSYN011 333 59001;
0134832290999991996022000004-13017-038517FM-12+005199999V0200901N00151220001CN9999999N9+02641+02371101171ADDAA106000091AG10000GF101991011021008001001001KA1240M+03051MA1999999100571MD1999999+0011REMSYN017 333 10305 58001;EQDQ01+000002VOVAR 
0115832290999991996022012004-13017-038517FM-12+005199999V0200501N00151045001CN0100001N1+02801+02331101271ADDAA106000091AG10000GF107991011021008001051021KA1240N+02521MA1999999100671MD1999999+0061REMSYN017 333 20252 58006;
0096832290999991996022018004-13017-038517FM-12+005199999V0201401N00261220001CN0200001N1+02971+02401101081ADDAA106000091AG10000GF104991041001012501031001MA1999999100481MD1999999+0071REMSYN011 333 58007;
0150832290999991996022100004-13017-038517FM-12+005199999V0200501N00261220001CN9999999N9+02681+02281101141ADDAA106000091AG10000GA1001+999999999GF100991001001999999001001KA1240M+03131MA1999999100541MD1999999-0031REMSYN017 333 10313 59003;EQDQ01+000002VOVAR 
0115832290999991996022112004-13017-038517FM-12+005199999V0203601N00151220001CN0100001N1+02761+02501101091ADDAA106000091AG10000GF104991021051008001041001KA1240N+02551MA1999999100511MD1999999-0161REMSYN017 333 20255 59016;
0124832290999991996022118004-13017-038517FM-12+005199999V0200501N00151220001CN0200001N1+02941+02561100401ADDAA106006091AG10009AY191061AY261061GF102991021001004501031001MA1999999100261MD1999999-0221MW1031REMSYN017 333 59022 60061;
0150832290999991996022200004-13017-038517FM-12+005199999V0200501N00211220001CN9999999N9+02681+02391101091ADDAA106000091AG10000GA1001+999999999GF100991001001999999001001KA1240M+02981MA1999999100491MD1999999-0051REMSYN017 333 10298 59005;EQDQ01+000002VOVAR 
0121832290999991996022212004-13017-038517FM-12+005199999V0203601N00151220001CN0200001N1+02881+02141101151ADDAA106006091AG10000GF103991031041004501001001KA1240N+02521MA1999999100571MD1999999+0061REMSYN023 333 20252 58006 60061;
0096832290999991996022218004-13017-038517FM-12+005199999V0200901N00261220001CN0200001N1+03041+02551101041ADDAA106000091AG10000GF102991011021008001041051MA1999999100441MD1999999+0181REMSYN011 333 58018;
0134832290999991996022300004-13017-038517FM-12+005199999V0200501N00261220001CN9999999N9+02701+02451101181ADDAA106000091AG10000GF101991011021012501001001KA1240M+03111MA1999999100581MD1999999+0091REMSYN017 333 10311 58009;EQDQ01+000002VOVAR 
0115832290999991996022312004-13017-038517FM-12+005199999V0200501N00151045001CN0100001N1+02931+02501101421ADDAA106000091AG10000GF105991041021008001041001KA1240N+02551MA1999999100821MD1999999+0251REMSYN017 333 20255 58025;
0096832290999991996022318004-13017-038517FM-12+005199999V0200901N00361220001CN0100001N1+03001+02551101231ADDAA106000091AG10000GF103991021031008001021001MA1999999100631MD1999999+0191REMSYN011 333 58019;
0150832290999991996022400004-13017-038517FM-12+005199999V0200901N00261220001CN9999999N9+02691+02391101321ADDAA106000091AG10000GA1001+999999999GF100991001001999999001001KA1240M+03091MA1999999100721MD1999999+0141REMSYN017 333 10309 58014;EQDQ01+000002VOVAR 
0150832290999991996022412004-13017-038517FM-12+005199999V0200901N00261220001CN9999999N9+02691+02391101321ADDAA106000091AG10000GA1001+999999999GF100991001001999999001001KA1240M+03091MA1999999100721MD1999999+0141REMSYN017 333 10309 58014;EQDQ01+000002VOVAR 
0112832290999991996022418004-13017-038517FM-12+005199999V0200901N00211220001CN0200001N1+03001+02491101181ADDAA106000091AG10000GA1001+999999999GF100991001001999999001001MA1999999100601MD1999999-0031REMSYN011 333 59003;
0150832290999991996022500004-13017-038517FM-12+005199999V0200901N00151220001CN9999999N9+02631+02231101321ADDAA106000091AG10000GA1001+999999999GF100991001001999999001001KA1240M+03081MA1999999100721MD1999999+0001REMSYN017 333 10308 58000;EQDQ01+000002VOVAR 
0143832290999991996022512004-13017-038517FM-12+005199999V0201801N00151220001CN0200001N1+02811+02381101501ADDAA124005091AG10003AY161061AY221061GF102991011021008001041001KA1240N+02271MA1999999100921MD1999999+0031MW1031REMSYN023 333 20227 58003 60054;
0124832290999991996022518004-13017-038517FM-12+005199999V0200901N00211220001CN0200001N1+02941+02381101221ADDAA106000591AG10000AY151061AY201061GF101991011021012501001001MA1999999100621MD1999999+0021MW1031REMSYN017 333 58002 69961;
0134832290999991996022600004-13017-038517FM-12+005199999V0200501N00211012001CN9999999N9+02651+02161101321ADDAA106000091AG10000GF107991071081008001001001KA1240M+03001MA1999999100721MD1999999+0001REMSYN017 333 10300 58000;EQDQ01+000002VOVAR 
0121832290999991996022612004-13017-038517FM-12+005199999V0200101N00051220001CN0200001N1+02801+02311101441ADDAA124000591AG10000GF103991031021008001001001KA1240N+02451MA1999999100841MD1999999-0081REMSYN023 333 20245 59008 69964;
0115832290999991996022618004-13017-038517FM-12+005199999V0200901N00261220001CN0200001N1+02991+02441101201ADDAA106000091AG10000GF103991001001999999001011MA1999999100521MD1999999-0101REMSYN011 333 59010;EQDQ01+000982SCOLCB
0134832290999991996022700004-13017-038517FM-12+005199999V0200901N00311220001CN9999999N9+02671+02241101331ADDAA106000091AG10000GF101991011021008001001001KA1240M+03071MA1999999100731MD1999999+0011REMSYN017 333 10307 58001;EQDQ01+000002VOVAR 
0121832290999991996022712004-13017-038517FM-12+005199999V0201401N00261220001CN0100001N1+02821+02221101341ADDAA124999929AG10000GF103991021061008001041001KA1240N+02571MA1999999100761MD1999999-0081REMSYN023 333 20257 59008 69904;
0096832290999991996022718004-13017-038517FM-12+005199999V0200901N00311220001CN0200001N1+03021+02531101161ADDAA106000091AG10000GF102991011021008001031001MA1999999100581MD1999999+0061REMSYN011 333 58006;
0134832290999991996022800004-13017-038517FM-12+005199999V0200901N00151220001CN9999999N9+02661+02181101111ADDAA106000091AG10000GF101991011021008001001001KA1240M+03101MA1999999100711MD1999999-0021REMSYN017 333 10310 59002;EQDQ01+000002VOVAR 
0115832290999991996022812004-13017-038517FM-12+005199999V0201401N00101220001CN0200001N1+02861+02211101351ADDAA106000091AG10000GF101991011031008001001001KA1240N+02541MA1999999100751MD1999999-0011REMSYN017 333 20254 59001;
0150832290999991996022900004-13017-038517FM-12+005199999V0200901N00151220001CN9999999N9+02621+02251101081ADDAA106000091AG10000GA1001+999999999GF100991001001999999001001KA1240M+03041MA1999999100501MD1999999-0211REMSYN017 333 10304 59021;EQDQ01+000002VOVAR 
0115832290999991996022912004-13017-038517FM-12+005199999V0201401N00151220001CN0200001N1+02861+02421101321ADDAA106000091AG10000GF103991031021008001001001KA1240N+02581MA1999999100721MD1999999-0031REMSYN017 333 20258 59003;
0096832290999991996022918004-13017-038517FM-12+005199999V0201401N00211220001CN0200001N1+02971+02351101071ADDAA106000091AG10000GF102991011021008001001061MA1999999100471MD1999999-0041REMSYN011 333 59004;
0134832290999991996030100004-13017-038517FM-12+005199999V0200901N00101220001CN9999999N9+02731+02301101161ADDAA106000091AG10000GF103991011021008001001061KA1240M+03081MA1999999100561MD1999999+0061REMSYN017 333 10308 58006;EQDQ01+000002VOVAR 
0115832290999991996030112004-13017-038517FM-12+005199999V0200901N00151220001CN0200001N1+03041+02481101271ADDAA106000091AG10000GF103991021021017501001011KA1240N+02531MA1999999100691MD1999999-0031REMSYN017 333 20253 59003;
0115832290999991996030113004-13017-038517FM-12+005199999V0200901N00151220001CN0200001N1+03041+02481101271ADDAA106000091AG10999GF103991021021017501001011KA1240N+02531MA1999999100691MD1999999-0031REMSYN017 333 20253 59003;
0096832290999991996030118004-13017-038517FM-12+005199999V0200901N000519999999N0100001N1+03031+02501101061ADDAA106000091AG10000GF105991051001012501061001MA1999999100461MD1999999-0011REMSYN011 333 59001;
0134832290999991996030200004-13017-038517FM-12+005199999V0200901N00261007501CN9999999N9+02711+02441101181ADDAA106000091AG10000GF106991051041008001001061KA1240M+03181MA1999999100581MD1999999+0021REMSYN017 333 10318 58002;EQDQ01+000002VOVAR 
0115832290999991996030212004-13017-038517FM-12+005199999V0200901N00101045001CN0100001N1+02901+02481101341ADDAA106000091AG10000GF105991021031008001031001KA1240N+02541MA1999999100741MD1999999+0051REMSYN017 333 20254 58005;
0096832290999991996030218004-13017-038517FM-12+005199999V0201401N00151045001CN0200001N1+02901+02391101151ADDAA106000091AG10000GF107991021021008001011061MA1999999100551MD1999999+0091REMSYN011 333 58009;
0134832290999991996030300004-13017-038517FM-12+005199999V0200901N00101045001CN9999999N9+02681+02351101281ADDAA106000091AG10000GF106991021021008001031051KA1240M+03151MA1999999100681MD1999999+0101REMSYN017 333 10315 58010;EQDQ01+000002VOVAR 
0135832290999991996030312004-13017-038517FM-12+005199999V0201401N00051045001CN0100001N1+02841+02421101301ADDAA124003091AG10000AY151061GF107991031021008001041061KA1240N+02581MA1999999100701MD1999999-0041MW1031REMSYN023 333 20258 59004 60034;
0134832290999991996030400004-13017-038517FM-12+005199999V0200901N00151220001CN9999999N9+02651+02251101191ADDAA106000091AG10000GF102991011001012501031081KA1240M+02981MA1999999100591MD1999999-0091REMSYN017 333 10298 59009;EQDQ01+000002VOVAR 
0134832290999991996030412004-13017-038517FM-12+005199999V0200901N00151220001CN9999999N9+02651+02251101191ADDAA106000091AG10000GF102991011001012501031081KA1240M+02981MA1999999100591MD1999999-0091REMSYN017 333 10298 59009;EQDQ01+000002VOVAR 
0112832290999991996030418004-13017-038517FM-12+005199999V0201401N00151220001CN0200001N1+03021+02311101001ADDAA106000091AG10000GA1001+999999999GF100991001001999999001001MA1999999100401MD1999999-0031REMSYN011 333 59003;
0134832290999991996030500004-13017-038517FM-12+005199999V0200901N00261220001CN9999999N9+02721+02281101131ADDAA106000091AG10000GF101991011021008001001001KA1240M+03121MA1999999100531MD1999999-0061REMSYN017 333 10312 59006;EQDQ01+000002VOVAR 
0134832290999991996030512004-13017-038517FM-12+005199999V0200901N00151220001CN0200001N1+02971+02491101141ADDAA106000091AG10000GF104991999081008001001001KA1240N+02551MA1999999100561MD1999999-0031REMSYN017 333 20255 59003;EQDQ01+000032SCOTLC
0134832290999991996030600004-13017-038517FM-12+005199999V0200901N00211220001CN9999999N9+02731+02391101241ADDAA106000091AG10000GF102991021021008001001001KA1240M+03231MA1999999100641MD1999999+0111REMSYN017 333 10323 58011;EQDQ01+000002VOVAR 
0115832290999991996030612004-13017-038517FM-12+005199999V0201401N00151220001CN0100001N1+02931+02431101461ADDAA106000091AG10000GF103991021021008001001051KA1240N+02601MA1999999100861MD1999999+0301REMSYN017 333 20260 58030;
0096832290999991996030618004-13017-038517FM-12+005199999V0200901N00311220001CN0200001N1+03051+02631101071ADDAA106000091AG10000GF102991021021004501001001MA1999999100491MD1999999-0091REMSYN011 333 59009;
0140832290999991996030700004-13017-038517FM-12+005199999V0200901N00151220001CN9999999N9+02711+02371101271ADDAA106999929AG10000GF101991011021008001001001KA1240M+03141MA1999999100671MD1999999+0031REMSYN023 333 10314 58003 69901;EQDQ01+000002VOVAR 
0143832290999991996030712004-13017-038517FM-12+005199999V0200901N00051004201CN0040001N1+02721+02481101331ADDAA124004091AG10003AY161061AY251061GF107991071071004501001001KA1240N+02551MA1999999100731MD1999999-0131MW1961REMSYN023 333 20255 59013 60044;
0102832290999991996030718004-13017-038517FM-12+005199999V0200901N00311220001CN0200001N1+03081+02541101091ADDAA106000391AG10000GF102991021031008001001001MA1999999100491MD1999999+0001REMSYN017 333 58000 69931;
0134832290999991996030800004-13017-038517FM-12+005199999V0200901N00151220001CN9999999N9+02751+02381101201ADDAA106000091AG10000GF101991011021008001001001KA1240M+03201MA1999999100601MD1999999-0071REMSYN017 333 10320 59007;EQDQ01+000002VOVAR 
0143832290999991996030812004-13017-038517FM-12+005199999V0200901N00151220001CN0200001N1+02961+02491101301ADDAA124005091AG10003AY161061AY221061GF103991031021008001031001KA1240N+02511MA1999999100721MD1999999-0011MW1031REMSYN023 333 20251 59001 60054;
0096832290999991996030818004-13017-038517FM-12+005199999V0201401N00211220001CN0200001N1+03061+02431101031ADDAA106000091AG10000GF102991011021012501041001MA1999999100431MD1999999-0061REMSYN011 333 59006;
0134832290999991996030900004-13017-038517FM-12+005199999V0200901N00211220001CN9999999N9+02731+02321101241ADDAA106000091AG10000GF101991011001999999041001KA1240M+03161MA1999999100641MD1999999+0041REMSYN017 333 10316 58004;EQDQ01+000002VOVAR 
0115832290999991996030912004-13017-038517FM-12+005199999V0203601N00051220001CN0200001N1+02821+02501101481ADDAA106000091AG10000GF103991021031008001041001KA1240N+02601MA1999999100881MD1999999+0161REMSYN017 333 20260 58016;
0096832290999991996030918004-13017-038517FM-12+005199999V0200901N00211220001CN0200001N1+03091+02521101151ADDAA106000091AG10000GF101991011021008001001001MA1999999100551MD1999999+0121REMSYN011 333 58012;
0150832290999991996031000004-13017-038517FM-12+005199999V0200901N00261220001CN9999999N9+02701+02301101171ADDAA106000091AG10000GA1001+999999999GF100991001001999999001001KA1240M+03121MA1999999100571MD1999999-0071REMSYN017 333 10312 59007;EQDQ01+000002VOVAR 
0115832290999991996031012004-13017-038517FM-12+005199999V0200901N00051220001CN0200001N1+02931+02451101431ADDAA106000091AG10000GF103991021021004501001011KA1240N+02481MA1999999100931MD1999999+0051REMSYN017 333 20248 58005;
0096832290999991996031018004-13017-038517FM-12+005199999V0201401N00101045001CN0200001N1+03081+02361101121ADDAA106000091AG10000GF108991011011008001051021MA1999999100521MD1999999-0031REMSYN011 333 59003;
0137832290999991996031100004-13017-038517FM-12+005199999V0200901N00051220001CN9999999N9+02681+02261101241ADDAA106000091AG10000GA1001+999999999GF100991001001999999001001MA1999999100651MD1999999+0081REMSYN017 333 10/// 58008;EQDQ01+000002VOVAR 
0115832290999991996031112004-13017-038517FM-12+005199999V0201401N00151220001CN0200001N1+02951+02381101401ADDAA106000091AG10000GF104991041031008001001001KA1240N+02561MA1999999100701MD1999999-0231REMSYN017 333 20256 59023;
0134832290999991996031200004-13017-038517FM-12+005199999V0201401N00211220001CN9999999N9+02681+02331101151ADDAA106000091AG10000GF101991011021008001001001KA1240M+03081MA1999999100551MD1999999-0101REMSYN017 333 10308 59010;EQDQ01+000002VOVAR 
0115832290999991996031212004-13017-038517FM-12+005199999V0202301N00211045001CN0100001N1+02801+02481101181ADDAA106000091AG10000GF106991041031008001021001KA1240N+02621MA1999999100581MD1999999-0121REMSYN017 333 20262 59012;
0143832290999991996031218004-13017-038517FM-12+005199999V0201801N00311220001CN0200001N1+02901+02521100881ADDAA106000591AG10003AY161061AY221061GF103991999081004501001001MA1999999100301MD1999999-0131MW1031REMSYN017 333 59013 69951;EQDQ01+000042SCOTLC
0134832290999991996031300004-13017-038517FM-12+005199999V0200901N00151220001CN9999999N9+02681+02431101141ADDAA106000091AG10000GF101991011021008001001001KA1240M+03091MA1999999100541MD1999999-0011REMSYN017 333 10309 59001;EQDQ01+000002VOVAR 
0121832290999991996031312004-13017-038517FM-12+005199999V0203601N00051007501CN0100001N1+02911+02431101271ADDAA124000591AG10000GF107991071051008001001001KA1240N+02561MA1999999100671MD1999999+0091REMSYN023 333 20256 58009 69954;
0096832290999991996031318004-13017-038517FM-12+005199999V0200901N00101105001CN0100001N1+03161+02501101111ADDAA106000091AG10000GF106991011011008001001021MA1999999100511MD1999999+0211REMSYN011 333 58021;
0134832290999991996031400004-13017-038517FM-12+005199999V0201401N00151220001CN9999999N9+02741+02341101251ADDAA106000091AG10000GF102991021011008001001001KA1240M+03241MA1999999100651MD1999999+0111REMSYN017 333 10324 58011;EQDQ01+000002VOVAR 
0115832290999991996031412004-13017-038517FM-12+005199999V0200501N00101105001CN0100001N1+03021+02411101361ADDAA106000091AG10000GF106991031021008001001021KA1240N+02621MA1999999100761MD1999999+0091REMSYN017 333 20262 58009;
0096832290999991996031418004-13017-038517FM-12+005199999V0201401N00211220001CN0200001N1+03021+02391101171ADDAA106000091AG10000GF102991011031008001001021MA1999999100571MD1999999+0061REMSYN011 333 58006;
0115832290999991996031512004-13017-038517FM-12+005199999V0209991C00001045001CN0040001N1+02861+02441101301ADDAA106000091AG10000GF107991031051008001061081KA1240N+02581MA1999999100701MD1999999-0061REMSYN017 333 20258 59006;
0096832290999991996031518004-13017-038517FM-12+005199999V0202301N00311045001CN0100001N1+02801+02501101121ADDAA106000091AG10000GF107991021021008001011001MA1999999100521MD1999999-0051REMSYN011 333 59005;
0134832290999991996031600004-13017-038517FM-12+005199999V0201401N00151220001CN9999999N9+02721+02431101251ADDAA106000091AG10000GF101991011011008001001001KA1240M+03161MA1999999100651MD1999999-0051REMSYN017 333 10316 59005;EQDQ01+000002VOVAR 
0135832290999991996031612004-13017-038517FM-12+005199999V0202301N00101220001CN0200001N1+02801+02581101251ADDAA124002091AG10003AY161061GF104991031031008001041001KA1240N+02601MA1999999100651MD1999999-0051MW1031REMSYN023 333 20260 59005 60024;
0096832290999991996031618004-13017-038517FM-12+005199999V0201401N00151220001CN0100001N1+03061+02581100901ADDAA106000091AG10000GF104991021011008001001021MA1999999100301MD1999999-0221REMSYN011 333 59022;
0134832290999991996031700004-13017-038517FM-12+005199999V0200501N00151220001CN9999999N9+02721+02221101151ADDAA106000091AG10000GF102991021011008001001001KA1240M+03101MA1999999100551MD1999999-0101REMSYN017 333 10310 59010;EQDQ01+000002VOVAR 
0115832290999991996031712004-13017-038517FM-12+005199999V0202301N00151007501CN0100001N1+02781+02501101211ADDAA106000091AG10000GF107991071051008001001001KA1240N+02581MA1999999100611MD1999999-0041REMSYN017 333 20258 59004;
0115832290999991996031718004-13017-038517FM-12+005199999V0200901N00211220001CN0200001N1+03111+02651100931ADDAA106000091AG10000GF101991001001999999001011MA1999999100351MD1999999+0051REMSYN011 333 58005;EQDQ01+000982SCOLCB
0150832290999991996031800004-13017-038517FM-12+005199999V0200901N00261220001CN9999999N9+02751+02381101091ADDAA106000091AG10000GA1001+999999999GF100991001001999999001001KA1240M+03201MA1999999100511MD1999999-0041REMSYN017 333 10320 59004;EQDQ01+000002VOVAR 
0115832290999991996031812004-13017-038517FM-12+005199999V0200901N00151220001CN0200001N1+03061+02351101361ADDAA106000091AG10000GF102991011031008001001011KA1240N+02641MA1999999100761MD1999999+0151REMSYN017 333 20264 58015;
0096832290999991996031818004-13017-038517FM-12+005199999V0201401N00311220001CN0200001N1+03101+02261101171ADDAA106000091AG10000GF103991011021008001041061MA1999999100571MD1999999+0221REMSYN011 333 58022;
0134832290999991996031900004-13017-038517FM-12+005199999V0200901N00261220001CN9999999N9+02741+02241101351ADDAA106000091AG10000GF101991011021008001001001KA1240M+03261MA1999999100751MD1999999+0241REMSYN017 333 10326 58024;EQDQ01+000002VOVAR 
0135832290999991996031912004-13017-038517FM-12+005199999V0202301N00151220001CN0040001N1+02731+02321101421ADDAA124010091AG10003AY161061GF103991021031008001041001KA1240N+02351MA1999999100821MD1999999+0061MW1031REMSYN023 333 20235 58006 60104;
0115832290999991996031918004-13017-038517FM-12+005199999V0201401N00151220001CN0100001N1+02841+02311101151ADDAA106000091AG10000GF103991999021008001001001MA1999999100551MD1999999-0021REMSYN011 333 59002;EQDQ01+000022SCOTLC
0096832290999991996032018004-13017-038517FM-12+005199999V0201801N00311220001CN0100001N1+02781+02501101071ADDAA106000091AG10000GF103991031031008001001001MA1999999100491MD1999999-0071REMSYN011 333 59007;
0115832290999991996032112004-13017-038517FM-12+005199999V0200901N00051220001CN0200001N1+02971+02531101261ADDAA106000091AG10000GF102991021031004501001001KA1240N+02301MA1999999100681MD1999999-0031REMSYN017 333 20230 59003;
0096832290999991996032118004-13017-038517FM-12+005199999V0200901N00211220001CN0200001N1+03081+02401101031ADDAA106000091AG10000GF102991011021008001001011MA1999999100431MD1999999-0061REMSYN011 333 59006;
0134832290999991996032200004-13017-038517FM-12+005199999V0200901N00151220001CN9999999N9+02721+02391101201ADDAA106000091AG10000GF101991011021008001001001KA1240M+03121MA1999999100601MD1999999-0011REMSYN017 333 10312 59001;EQDQ01+000002VOVAR 
0115832290999991996032212004-13017-038517FM-12+005199999V0200501N00151220001CN0200001N1+02881+02441101321ADDAA106000091AG10000GF102991021021008001041001KA1240N+02601MA1999999100721MD1999999+0041REMSYN017 333 20260 58004;
0115832290999991996032218004-13017-038517FM-12+005199999V0201401N001519999999N0100001N1+99999+99999101131ADDAA106000091AG10000GF105991999021004501001001MA1999999100531MD1999999+0101REMSYN011 333 58010;EQDQ01+000012SCOTLC
0134832290999991996032300004-13017-038517FM-12+005199999V0201401N00101220001CN9999999N9+02741+02521101561ADDAA106000091AG10000GF102991021021008001001001KA1240M+03161MA1999999100761MD1999999+0161REMSYN017 333 10316 58016;EQDQ01+000002VOVAR 
0115832290999991996032312004-13017-038517FM-12+005199999V0201801N00151007501CN0100001N1+02981+02531101341ADDAA106000091AG10000GF107991071051008001001001KA1240N+02561MA1999999100741MD1999999+0021REMSYN017 333 20256 58002;
0150832290999991996032400004-13017-038517FM-12+005199999V0200901N00311220001CN9999999N9+02731+02321101211ADDAA106000091AG10000GA1001+999999999GF100991001001999999001001KA1240M+03201MA1999999100611MD1999999-0151REMSYN017 333 10320 59015;EQDQ01+000002VOVAR 
0115832290999991996032412004-13017-038517FM-12+005199999V0203601N00151220001CN0100001N1+02791+02421101331ADDAA106000091AG10000GF103991031041008001001001KA1240N+02541MA1999999100731MD1999999-0011REMSYN017 333 20254 59001;
0115832290999991996032418004-13017-038517FM-12+005199999V0200901N00311220001CN0200001N1+03081+02471100911ADDAA106000091AG10000GF101991001001999999001011MA1999999100321MD1999999-0151REMSYN011 333 59015;EQDQ01+999990APOSP 
0134832290999991996032500004-13017-038517FM-12+005199999V0200501N00261220001CN9999999N9+02751+02431101061ADDAA106000091AG10000GF101991011021008001001001KA1240M+03151MA1999999100461MD1999999-0151REMSYN017 333 10315 59015;EQDQ01+000002VOVAR 
0115832290999991996032512004-13017-038517FM-12+005199999V0203201N00151105001CN0100001N1+02881+02481101251ADDAA106000091AG10000GF105991021021008001041061KA1240N+02561MA1999999100651MD1999999-0081REMSYN017 333 20256 59008;
0115832290999991996032518004-13017-038517FM-12+005199999V0200901N001519999999N0200001N1+03081+02671101011ADDAA106000091AG10000GF105991001001999999001051MA1999999100431MD1999999+0121REMSYN011 333 58012;EQDQ01+000972SCOLCB
0134832290999991996032600004-13017-038517FM-12+005199999V0200901N00311220001CN9999999N9+02771+02441101071ADDAA106000091AG10000GF101991011021008001001001KA1240M+03161MA1999999100471MD1999999+0011REMSYN017 333 10316 58001;EQDQ01+000002VOVAR 
0115832290999991996032618004-13017-038517FM-12+005199999V0200901N00311220001CN0200001N1+03081+02521100921ADDAA106000091AG10000GF102991001001999999001021MA1999999100341MD1999999-0091REMSYN011 333 59009;EQDQ01+000982SCOLCB
0143832290999991996032712004-13017-038517FM-12+005199999V0200501N00051045001CN0100001N1+02761+02541101471ADDAA124004091AG10003AY161061AY251061GF106991041031008001041001KA1240N+02441MA1999999100871MD1999999+0171MW1031REMSYN023 333 20244 58017 60044;
0096832290999991996032718004-13017-038517FM-12+005199999V0201401N00211220001CN0200001N1+03041+02311101301ADDAA106000091AG10000GF102991021021008001001001MA1999999100701MD1999999+0361REMSYN011 333 58036;
0166832290999991996032800004-13017-038517FM-12+005199999V0200901N00151220001CN9999999N9+02701+02301101431ADDAA106000091AG10000GA1001+999999999GF100991001001999999001001KA1240M+03151MA1999999100831MD1999999+0151REMSYN017 333 10315 58015;EQDQ01+999990APOSLPQ02+000002VOVAR 
0115832290999991996032812004-13017-038517FM-12+005199999V0202301N00211220001CN0200001N1+02781+02401101591ADDAA106000091AG10000GF102991021021008001001001KA1240N+02511MA1999999100991MD1999999+0121REMSYN017 333 20251 58012;
0096832290999991996032818004-13017-038517FM-12+005199999V0201801N00211220001CN0200001N1+02881+02371101331ADDAA106000091AG10000GF102991021021008001041001MA1999999100731MD1999999+0031REMSYN011 333 58003;
0134832290999991996032900004-13017-038517FM-12+005199999V0201401N00051220001CN9999999N9+02721+02301101451ADDAA106000091AG10000GF103991031021008001001001KA1240M+02991MA1999999100851MD1999999+0021REMSYN017 333 10299 58002;EQDQ01+000002VOVAR 
0121832290999991996032912004-13017-038517FM-12+005199999V0201801N00261220001CN0100001N1+02861+02541101331ADDAA124999929AG10000GF103991031031004501001001KA1240N+02551MA1999999100751MD1999999-0241REMSYN023 333 20255 59024 69904;
0140832290999991996033000004-13017-038517FM-12+005199999V0201401N00151220001CN9999999N9+02671+02461101321ADDAA106000191AG10000GF101991011021008001001001KA1240M+03031MA1999999100721MD1999999-0131REMSYN023 333 10303 59013 69911;EQDQ01+000002VOVAR 
0143832290999991996033012004-13017-038517FM-12+005199999V0209991C00001004201CN0040001N1+02911+02561101281ADDAA124020091AG10003AY161061AY261061GF106991061051004501001001KA1240N+02501MA1999999100701MD1999999-0051MW1031REMSYN023 333 20250 59005 60204;
0124832290999991996033018004-13017-038517FM-12+005199999V0202301N00211220001CN0200001N1+02781+02501101151ADDAA106000391AG10000AY151061AY201061GF102991021021008001041001MA1999999100551MD1999999+0011MW1031REMSYN017 333 58001 69931;
0134832290999991996033100004-13017-038517FM-12+005199999V0200901N00151220001CN9999999N9+02671+02441101271ADDAA106000091AG10000GF102991021021008001001001KA1240M+02991MA1999999100671MD1999999-0051REMSYN017 333 10299 59005;EQDQ01+000002VOVAR 
0121832290999991996033112004-13017-038517FM-12+005199999V0203201N00051045001CN0100001N1+02801+02441101411ADDAA124000391AG10000GF106991041021008001041001KA1240N+02501MA1999999100811MD1999999+0111REMSYN023 333 20250 58011 69934;
0115832290999991996033118004-13017-038517FM-12+005199999V0200501N00151220001CN0100001N1+03021+02461101051ADDAA106000091AG10000GF103991999011008001001001MA1999999100451MD1999999-0101REMSYN011 333 59010;EQDQ01+000012SCOTLC
0150832290999991996040100004-13017-038517FM-12+005199999V0200901N00151220001CN9999999N9+02701+02431101351ADDAA106000091AG10000GF102991999011008001001001KA1240M+03191MA1999999100751MD1999999+0081REMSYN017 333 10319 58008;EQDQ01+000012SCOTLCQ02+000002VOVAR 
0115832290999991996040112004-13017-038517FM-12+005199999V0201401N00151220001CN0100001N1+02961+02481101551ADDAA106000091AG10000GF103991031021008001001001KA1240N+02541MA1999999100951MD1999999+0141REMSYN017 333 20254 58014;
0096832290999991996040118004-13017-038517FM-12+005199999V0201401N00211220001CN0200001N1+03041+02481101161ADDAA106000091AG10000GF103991031031004501001001MA1999999100581MD1999999+0131REMSYN011 333 58013;
0150832290999991996040200004-13017-038517FM-12+005199999V0200901N00151220001CN9999999N9+02661+02271101381ADDAA106000091AG10000GA1001+999999999GF100991001001999999001001KA1240M+03121MA1999999100801MD1999999+0051REMSYN017 333 10312 58005;EQDQ01+000002VOVAR 
0143832290999991996040212004-13017-038517FM-12+005199999V0201401N00151220001CN0100001N1+02621+02441101511ADDAA124005091AG10002AY161061AY251061GF104991031031008001041001KA1240N+02381MA1999999100911MD1999999-0041MW1211REMSYN023 333 20238 59004 60054;
0096832290999991996040218004-13017-038517FM-12+005199999V0201401N00051220001CN0200001N1+02921+02411101211ADDAA106000091AG10000GF102991021021008001041001MA1999999100611MD1999999+0031REMSYN011 333 58003;
0140832290999991996040300004-13017-038517FM-12+005199999V0200901N00151220001CN9999999N9+02671+02521101181ADDAA106999929AG10000GF102991021041004501001001KA1240M+03061MA1999999100601MD1999999+0071REMSYN023 333 10306 58007 69901;EQDQ01+000002VOVAR 
0134832290999991996040400004-13017-038517FM-12+005199999V0201401N00151220001CN9999999N9+02721+02321101311ADDAA106000091AG10000GF102991021011008001001001KA1240M+03121MA1999999100711MD1999999+0111REMSYN017 333 10312 58011;EQDQ01+000002VOVAR 
0096832290999991996040418004-13017-038517FM-12+005199999V0201401N00151105001CN0100001N1+02961+02571101041ADDAA106000091AG10000GF105991011011008001001021MA1999999100441MD1999999-0101REMSYN011 333 59010;
0134832290999991996040500004-13017-038517FM-12+005199999V0201401N00151220001CN9999999N9+02671+02231101301ADDAA106000091AG10000GF101991011021008001001001KA1240M+03081MA1999999100701MD1999999-0011REMSYN017 333 10308 59001;EQDQ01+000002VOVAR 
0143832290999991996040512004-13017-038517FM-12+005199999V0201401N00211220001CN0200001N1+02821+02461101301ADDAA124002091AG10002AY161061AY221061GF102991021021004501021001KA1240N+02501MA1999999100721MD1999999-0061MW1031REMSYN023 333 20250 59006 60024;
0124832290999991996040518004-13017-038517FM-12+005199999V0201401N00051007501CN0020001N1+02361+02281100981ADDAA106020091AG10002AY161061AY211061GF107991051031008001021001MA1999999100381MD1999999-0061MW1291REMSYN017 333 59006 60201;
0162832290999991996040600004-13017-038517FM-12+005199999V0201401N00101220001CN9999999N9+02481+02411101201ADDAA106003091AG10002AY161061AY251061GF102991021031008001001001KA1240M+02901MA1999999100601MD1999999-0101MW1031REMSYN023 333 10290 59010 60031;EQDQ01+000002VOVAR 
0132832290999991996040612004-13017-038517FM-12+005199999V0200501N00051004201CN0020001N1+02551+02381101331ADDAG10002AY161061AY251061GF108991071071004501021999KA1240N+02361MA1999999100731MD1999999+0011MW1611REMSYN023 333 20236 58001 69324;
0124832290999991996040618004-13017-038517FM-12+005199999V0201401N00101007501CN0020001N1+02761+02401100961ADDAA106004091AG10002AY161061AY221061GF108991081071008001999999MA1999999100361MD1999999-0021MW1021REMSYN017 333 59002 60041;
0151832290999991996040700004-13017-038517FM-12+005199999V0201401N00101007501CN9999999N9+02621+02411101111ADDAG10000AY151061AY221061GF105991051071008001001001KA1240M+02801MA1999999100511MD1999999-0091MW1021REMSYN023 333 10280 59009 69331;EQDQ01+000002VOVAR 
0143832290999991996040712004-13017-038517FM-12+005199999V0202301N00101007501CN0020001N1+02781+02541101281ADDAA124007091AG10002AY161061AY221061GF107991071051008001001001KA1240N+02581MA1999999100681MD1999999-0051MW1021REMSYN023 333 20258 59005 60074;
0096832290999991996040718004-13017-038517FM-12+005199999V0201401N00151007501CN0100001N1+02881+02521101051ADDAA106000091AG10000GF106991061021008001001001MA1999999100451MD1999999+0091REMSYN011 333 58009;
0143832290999991996040812004-13017-038517FM-12+005199999V0202701N00261004201CN0020001N1+02381+02361101431ADDAA124033091AG10002AY161061AY261061GF108991081071004501999999KA1240N+02311MA1999999100851MD1999999+0171MW1641REMSYN023 333 20231 58017 60334;
0124832290999991996040818004-13017-038517FM-12+005199999V0201401N00261045001CN0200001N1+02841+02351101161ADDAA106001091AG10000AY151061AY211061GF106991021021008001031051MA1999999100561MD1999999+0111MW1031REMSYN017 333 58011 69981;
0134832290999991996040900004-13017-038517FM-12+005199999V0201401N00151220001CN9999999N9+02661+02351101361ADDAA106000091AG10000GF102991011021008001031001KA1240M+02931MA1999999100761MD1999999+0151REMSYN017 333 10293 58015;EQDQ01+000002VOVAR 
0143832290999991996040912004-13017-038517FM-12+005199999V0203201N00051004201CN0010001N1+02341+02311101471ADDAA124094091AG10002AY161061AY261061GF108991081071004501999999KA1240N+02261MA1999999100871MD1999999+0021MW1971REMSYN023 333 20226 58002 60944;
0162832290999991996041000004-13017-038517FM-12+005199999V0201401N00261004201CN9999999N9+02521+02501101461ADDAA106004091AG10002AY161061AY261061GF108991081071004501999999KA1240M+02781MA1999999100871MD1999999+0111MW1631REMSYN023 333 10278 58011 60041;EQDQ01+000002VOVAR 
0143832290999991996041012004-13017-038517FM-12+005199999V0203201N00151004201CN0010001N1+02621+02461101401ADDAA124007091AG10002AY161061AY221061GF108991081071004501999999KA1240N+02291MA1999999100801MD1999999-0071MW1031REMSYN023 333 20229 59007 60074;
0124832290999991996041018004-13017-038517FM-12+005199999V0203201N00101007501CN0005001N1+02741+02541101191ADDAA106009091AG10002AY161061AY221061GF108991081071008001999999MA1999999100591MD1999999-0091MW1021REMSYN017 333 59009 60091;
0162832290999991996041100004-13017-038517FM-12+005199999V0200501N00151220001CN9999999N9+02501+02411101391ADDAA106002091AG10002AY161061AY221061GF102991021051008001001001KA1240M+02801MA1999999100791MD1999999-0081MW1021REMSYN023 333 10280 59008 60021;EQDQ01+000002VOVAR 
0143832290999991996041112004-13017-038517FM-12+005199999V0203201N00101007501CN0020001N1+02381+02191101461ADDAA124031091AG10002AY161061AY221061GF108991081071008001999999KA1240N+02201MA1999999100861MD1999999+0061MW1611REMSYN023 333 20220 58006 60314;
0096832290999991996041118004-13017-038517FM-12+005199999V0201401N00151220001CN0200001N1+02881+02541101081ADDAA106000091AG10000GF102991021021008001041001MA1999999100481MD1999999-0111REMSYN011 333 59011;
0134832290999991996041200004-13017-038517FM-12+005199999V0200501N00051220001CN9999999N9+02601+02351101211ADDAA106000091AG10000GF101991011021008001001001KA1240M+02911MA1999999100611MD1999999-0181REMSYN017 333 10291 59018;EQDQ01+000002VOVAR 
0115832290999991996041212004-13017-038517FM-12+005199999V0201401N00151220001CN0200001N1+02851+02401101351ADDAA106000091AG10000GF103991021021008001001051KA1240N+02381MA1999999100751MD1999999-0111REMSYN017 333 20238 59011;
0096832290999991996041218004-13017-038517FM-12+005199999V0201401N00151220001CN0100001N1+02901+02501100971ADDAA106000091AG10000GF103991031021008001001001MA1999999100371MD1999999-0111REMSYN011 333 59011;
0134832290999991996041300004-13017-038517FM-12+005199999V0200901N00101220001CN9999999N9+02641+02351101191ADDAA106000091AG10000GF101991011011008001001001KA1240M+02981MA1999999100591MD1999999-0021REMSYN017 333 10298 59002;EQDQ01+000002VOVAR 
0143832290999991996041312004-13017-038517FM-12+005199999V0201801N00101220001CN0100001N1+02821+02381101171ADDAA124000191AG10000AY151061AY201061GF103991031021008001001001KA1240N+02481MA1999999100571MD1999999-0181MW1021REMSYN023 333 20248 59018 69924;
0096832290999991996041318004-13017-038517FM-12+005199999V0201401N00151007501CN0100001N1+02981+02571101051ADDAA106000091AG10000GF107991071021008001001001MA1999999100451MD1999999+0081REMSYN011 333 58008;
0140832290999991996041400004-13017-038517FM-12+005199999V0200901N00101220001CN9999999N9+02681+02411101371ADDAA106000191AG10000GF101991011021008001001001KA1240M+03081MA1999999100771MD1999999+0181REMSYN023 333 10308 58018 69921;EQDQ01+000002VOVAR 
0134832290999991996041500004-13017-038517FM-12+005199999V0200901N00151220001CN9999999N9+02671+02331101461ADDAA106000091AG10000GF103991031021008001001001KA1240M+03061MA1999999100861MD1999999+0091REMSYN017 333 10306 58009;EQDQ01+000002VOVAR 
0134832290999991996041600004-13017-038517FM-12+005199999V0201401N00211220001CN9999999N9+02661+02241101431ADDAA106000091AG10000GF101991011021008001001001KA1240M+03041MA1999999100831MD1999999-0031REMSYN017 333 10304 59003;EQDQ01+000002VOVAR 
0143832290999991996041612004-13017-038517FM-12+005199999V0201401N00211220001CN0100001N1+02871+02391101451ADDAA124003091AG10000AY151061AY211061GF103991021021008001041001KA1240N+02451MA1999999100851MD1999999-0081MW1031REMSYN023 333 20245 59008 60034;
0096832290999991996041618004-13017-038517FM-12+005199999V0201401N00151220001CN0100001N1+02921+02411101071ADDAA106000091AG10000GF102991011011008001001021MA1999999100471MD1999999-0171REMSYN011 333 59017;
0150832290999991996041700004-13017-038517FM-12+005199999V0201401N00151220001CN9999999N9+02641+02251101291ADDAA106000091AG10000GF102991999011008001001001KA1240M+03001MA1999999100691MD1999999-0141REMSYN017 333 10300 59014;EQDQ01+000012SCOTLCQ02+000002VOVAR 
0143832290999991996041712004-13017-038517FM-12+005199999V0202701N00101007501CN0020001N1+02561+02421101291ADDAA124003091AG10002AY161061AY221061GF108991081071008001999999KA1240N+02521MA1999999100691MD1999999-0161MW1611REMSYN023 333 20252 59016 60034;
0140832290999991996041718004-13017-038517FM-12+005199999V0201401N00151220001CN0200001N1+02921+02521101031ADDAA106000591AG10000AY151061AY221061GA1001+999999999GF100991001001999999001001MA1999999100431MD1999999-0041MW1031REMSYN017 333 59004 69951;
0134832290999991996041800004-13017-038517FM-12+005199999V0200501N00151220001CN9999999N9+02611+02261101031ADDAA106000091AG10000GF101991011011008001001001KA1240M+02941MA1999999100431MD1999999-0261REMSYN017 333 10294 59026;EQDQ01+000002VOVAR 
0121832290999991996041812004-13017-038517FM-12+005199999V0203201N00151220001CN0100001N1+02801+02421101281ADDAA124000591AG10000GF102991021031008001001001KA1240N+02451MA1999999100681MD1999999-0011REMSYN023 333 20245 59001 69954;
0115832290999991996041818004-13017-038517FM-12+005199999V0201401N00151220001CN0200001N1+02951+02491100991ADDAA106000091AG10000GF102991001001999999001011MA1999999100391MD1999999-0041REMSYN011 333 59004;EQDQ01+000972SCOLCB
0134832290999991996041900004-13017-038517FM-12+005199999V0201401N00211220001CN9999999N9+02631+02271101181ADDAA106000091AG10000GF101991011021008001001001KA1240M+03001MA1999999100581MD1999999+0151REMSYN017 333 10300 58015;EQDQ01+000002VOVAR 
0115832290999991996041912004-13017-038517FM-12+005199999V0200701N00151220001CN0200001N1+02701+02541101231ADDAA106000091AG10000GF103991031021004501001001KA1240N+02551MA1999999100731MD1999999+0051REMSYN017 333 20255 58005;
0096832290999991996041918004-13017-038517FM-12+005199999V0201801N00211220001CN0200001N1+02791+02421101181ADDAA106000091AG10000GF103991021021008001041061MA1999999100581MD1999999+0191REMSYN011 333 58019;
0134832290999991996042000004-13017-038517FM-12+005199999V0201801N00411012001CN9999999N9+02661+02411101351ADDAA106000091AG10000GF106991061081008001001001KA1240M+02861MA1999999100751MD1999999+0171REMSYN017 333 10286 58017;EQDQ01+000002VOVAR 
0143832290999991996042012004-13017-038517FM-12+005199999V0202301N00571007501CN0100001N1+02471+02301101441ADDAA124005091AG10002AY161061AY251061GF107991051071008001021001KA1240N+02471MA1999999100841MD1999999+0111MW1021REMSYN023 333 20247 58011 60054;
0143832290999991996042018004-13017-038517FM-12+005199999V0201801N00151007501CN0020001N1+02441+02391101201ADDAA106003091AG10002AY161061AY221061GF108991081071008001999999MA1999999100601MD1999999+0021MW1631REMSYN017 333 58002 60031;EQDQ01+999990APOSP 
0143832290999991996042112004-13017-038517FM-12+005199999V0201801N00261007501CN0010001N1+02401+02311101541ADDAA124234091AG10002AY161061AY221061GF108991081071008001999999KA1240N+02261MA1999999100941MD1999999+0101MW1021REMSYN023 333 20226 58010 62344;
0124832290999991996042118004-13017-038517FM-12+005199999V0201401N00671004201CN0100001N1+02711+02201101641ADDAA106000191AG10000AY151061AY221061GF108991081071004501999999MA1999999100881MD1999999+0281MW1031REMSYN017 333 58028 69911;
0162832290999991996042200004-13017-038517FM-12+005199999V0201801N005119999999N9999999N9+02631+01961101491ADDAA106000191AG10002AY161061AY251061GF106991061001012501081001KA1240M+02721MA1999999100901MD1999999+0241MW1021REMSYN023 333 10272 58024 69921;EQDQ01+000002VOVAR 
0124832290999991996042218004-13017-038517FM-12+005199999V0201801N00461220001CN0100001N1+02671+02221101391ADDAA106003091AG10002AY161061AY261061GF103991031041008001001001MA1999999100801MD1999999-0081MW1021REMSYN017 333 59008 60031;
0134832290999991996042300004-13017-038517FM-12+005199999V0201801N00511220001CN9999999N9+02601+02141101631ADDAA106000091AG10000GF103991031021008001001001KA1240M+02701MA1999999101041MD1999999+0141REMSYN017 333 10270 58014;EQDQ01+000002VOVAR 
0121832290999991996042312004-13017-038517FM-12+005199999V0201801N00511007501CN0100001N1+02601+02311101721ADDAA124003091AG10000GF105991051051008001001001KA1240N+02241MA1999999101131MD1999999+0001REMSYN023 333 20224 58000 60034;
0096832290999991996042318004-13017-038517FM-12+005199999V0201801N00311012001CN0100001N1+02621+02271101441ADDAA106000091AG10000GF107991051081008001031001MA1999999100841MD1999999+0041REMSYN011 333 58004;
0162832290999991996042400004-13017-038517FM-12+005199999V0201401N00261004201CN9999999N9+02461+02411101531ADDAA106035091AG10002AY161061AY221061GF108991081071004501999999KA1240M+02721MA1999999100931MD1999999-0111MW1611REMSYN023 333 10272 59011 60351;EQDQ01+000002VOVAR 
0143832290999991996042412004-13017-038517FM-12+005199999V0202301N00211004201CN0020001N1+02521+02421101621ADDAA124110091AG10002AY161061AY251061GF107991061071004501021001KA1240N+02341MA1999999101021MD1999999-0111MW1031REMSYN023 333 20234 59011 61104;
0124832290999991996042418004-13017-038517FM-12+005199999V0202301N00101007501CN0020001N1+02681+02521101371ADDAA106000191AG10002AY161061AY221061GF107991071071008001001001MA1999999100771MD1999999-0071MW1021REMSYN017 333 59007 69921;
0162832290999991996042500004-13017-038517FM-12+005199999V0201401N00101220001CN9999999N9+02561+02461101431ADDAA106003091AG10002AY161061AY221061GF102991021011008001001001KA1240M+02741MA1999999100831MD1999999-0101MW1021REMSYN023 333 10274 59010 60031;EQDQ01+000002VOVAR 
0143832290999991996042512004-13017-038517FM-12+005199999V0202301N00101007501CN0020001N1+02621+02371101411ADDAA124007091AG10002AY161061AY221061GF107991071071008001001001KA1240N+02381MA1999999100811MD1999999-0211MW1021REMSYN023 333 20238 59021 60074;
0124832290999991996042518004-13017-038517FM-12+005199999V0201401N00151220001CN0200001N1+02821+02521101431ADDAA106001091AG10002AY161061AY221061GF102991021021004501001001MA1999999100831MD1999999+0061MW1031REMSYN017 333 58006 60011;
0150832290999991996042600004-13017-038517FM-12+005199999V0200901N00151220001CN9999999N9+02581+02251101411ADDAA106000091AG10000GA1001+999999999GF100991001001999999001001KA1240M+02921MA1999999100811MD1999999-0021REMSYN017 333 10292 59002;EQDQ01+000002VOVAR 
0096832290999991996042618004-13017-038517FM-12+005199999V0201401N00101220001CN0200001N1+02801+02441101231ADDAA106000091AG10000GF102991011031008001021001MA1999999100641MD1999999-0191REMSYN011 333 59019;
0115832290999991996042712004-13017-038517FM-12+005199999V0201401N00151220001CN0200001N1+02781+02251101561ADDAA106000091AG10000GF102991011011008001021001KA1240N+02471MA1999999100961MD1999999+0241REMSYN017 333 20247 58024;
0096832290999991996042718004-13017-038517FM-12+005199999V0201401N00211220001CN0100001N1+02841+02241101351ADDAA106000091AG10000GF104991021031008001041061MA1999999100751MD1999999+0111REMSYN011 333 58011;
0134832290999991996042800004-13017-038517FM-12+005199999V0201401N00311220001CN9999999N9+02601+02231101521ADDAA106000091AG10000GF102991021001999999041001KA1240M+02951MA1999999100921MD1999999+0071REMSYN017 333 10295 58007;EQDQ01+000002VOVAR 
0115832290999991996042812004-13017-038517FM-12+005199999V0201401N00411045001CN0040001N1+02681+02281101621ADDAA106000091AG10000GF105991041031008001031001KA1240N+02301MA1999999101021MD1999999+0061REMSYN017 333 20230 58006;
0124832290999991996042818004-13017-038517FM-12+005199999V0201401N00151007501CN0020001N1+02521+02381101371ADDAA106001091AG10002AY161061AY221061GF108991081071008001999999MA1999999100771MD1999999+0021MW1021REMSYN017 333 58002 60011;
0162832290999991996042900004-13017-038517FM-12+005199999V0201801N00261007501CN9999999N9+02461+02411101531ADDAA106010091AG10002AY161061AY221061GF108991081071008001999999KA1240M+02821MA1999999100931MD1999999+0011MW1611REMSYN023 333 10282 58001 60101;EQDQ01+000002VOVAR 
0143832290999991996042912004-13017-038517FM-12+005199999V0200901N00151007501CN0020001N1+02441+02411101601ADDAA124064091AG10002AY161061AY221061GF108991081071008001999999KA1240N+02301MA1999999101001MD1999999-0021MW1021REMSYN023 333 20230 59002 60644;
0124832290999991996042918004-13017-038517FM-12+005199999V0201801N00151004201CN0040001N1+02501+02471101461ADDAA106007091AG10002AY161061AY261061GF108991081071004501999999MA1999999100861MD1999999+0091MW1031REMSYN017 333 58009 60071;
0140832290999991996043000004-13017-038517FM-12+005199999V0202301N00051007501CN9999999N9+02481+02301101531ADDAA106000191AG10000GF106991061051008001001001KA1240M+02571MA1999999100941MD1999999+0011REMSYN023 333 10257 58001 69911;EQDQ01+000002VOVAR 
0143832290999991996043012004-13017-038517FM-12+005199999V0201801N00051004201CN0010001N1+02291+02251101701ADDAA124078091AG10002AY161061AY251061GF108991081071004501999999KA1240N+02241MA1999999101111MD1999999+0111MW1631REMSYN023 333 20224 58011 60784;
0137832290999991996043018004-13017-038517FM-12+005199999V0201801N00151004201CN0020001N1+02361+02241101501ADDAA106002091AG10002AY161061AY261061GF108991081071004501999999MA1999999100981MD1999999-0021REMSYN017 333 59002 60021;EQDQ01+000682PRSWM1
0162832290999991996050100004-13017-038517FM-12+005199999V0201801N001519999999N9999999N9+02561+02331101551ADDAA106000591AG10002AY161061AY251061GF107991071001012501051001KA1240M+02621MA1999999100961MD1999999+0021MW1021REMSYN023 333 10262 58002 69961;EQDQ01+000002VOVAR 
0143832290999991996050112004-13017-038517FM-12+005199999V0201801N00151220001CN0100001N1+02511+02381101501ADDAA124007091AG10002AY161061AY221061GF104991041051004501001001KA1240N+02271MA1999999100901MD1999999-0211MW1031REMSYN023 333 20227 59021 60074;
0096832290999991996050118004-13017-038517FM-12+005199999V0201401N00261045001CN0200001N1+02611+02311101301ADDAA106000091AG10000GF106991021021008001031001MA1999999100701MD1999999-0281REMSYN011 333 59028;
0135832290999991996050212004-13017-038517FM-12+005199999V0202301N00211220001CN0200001N1+02641+02421101511ADDAA124000591AG10000AY151061GF103991021021008001001061KA1240N+02441MA1999999100911MD1999999+0011MW1031REMSYN023 333 20244 58001 69944;
0096832290999991996050218004-13017-038517FM-12+005199999V0201801N00151220001CN0100001N1+02741+02431101161ADDAA106000091AG10000GF101991011011008001001001MA1999999100561MD1999999-0141REMSYN011 333 59014;
0134832290999991996050300004-13017-038517FM-12+005199999V0200501N00151220001CN9999999N9+02451+02171101311ADDAA106000091AG10000GF103991011011008001001021KA1240M+02821MA1999999100711MD1999999-0161REMSYN017 333 10282 59016;EQDQ01+000002VOVAR 
0115832290999991996050312004-13017-038517FM-12+005199999V0203601N00151220001CN0100001N1+02741+02381101411ADDAA106000091AG10000GF104991041021008001001001KA1240N+02361MA1999999100811MD1999999-0101REMSYN017 333 20236 59010;
0096832290999991996050318004-13017-038517FM-12+005199999V0201401N00211220001CN0100001N1+02821+02461101201ADDAA106000091AG10000GF101991001001999999001011MA1999999100601MD1999999+0041REMSYN011 333 58004;
0134832290999991996050400004-13017-038517FM-12+005199999V0200501N00101220001CN9999999N9+02621+02371101281ADDAA106000091AG10000GF103991001001999999001051KA1240M+02851MA1999999100681MD1999999-0031REMSYN017 333 10285 59003;EQDQ01+000002VOVAR 
0140832290999991996050412004-13017-038517FM-12+005199999V0203201N00151220001CN0040001N1+02651+02521101491ADDAA124999929AG10000GF104991999041004501001001KA1240N+02381MA1999999100891MD1999999+0071REMSYN023 333 20238 58007 69904;EQDQ01+000022SCOTLC
0096832290999991996050418004-13017-038517FM-12+005199999V0201801N00151004201CN0040001N1+02661+01411101271ADDAA106000091AG10000GF106991061051004501001001MA1999999100671MD1999999+0071REMSYN011 333 58007;
0143832290999991996050512004-13017-038517FM-12+005199999V0201401N00151007501CN0040001N1+02641+02331101611ADDAA124003091AG10000AY101061AY201061GF107991061051008001061001KA1240N+02421MA1999999101021MD1999999+0131MW1631REMSYN023 333 20242 58013 60034;
0124832290999991996050518004-13017-038517FM-12+005199999V0201801N00151007501CN0020001N1+02521+02421101371ADDAA106012091AG10002AY161061AY221061GF107991071071008001001001MA1999999100771MD1999999+0101MW1211REMSYN017 333 58010 60121;
0162832290999991996050600004-13017-038517FM-12+005199999V0201401N00311220001CN9999999N9+02571+02171101521ADDAA106000191AG10000AY151061AY221061GF104991021021008001001061KA1240M+02701MA1999999100921MD1999999+0041MW1031REMSYN023 333 10270 58004 69921;EQDQ01+000002VOVAR 
0135832290999991996050612004-13017-038517FM-12+005199999V0201401N00361045001CN0100001N1+02651+01981101671ADDAA124012091AG10000AY151061GF106991031021008001041061KA1240N+02281MA1999999101071MD1999999+0051MW1031REMSYN023 333 20228 58005 60124;
0096832290999991996050618004-13017-038517FM-12+005199999V0201401N00151007501CN0040001N1+02621+02191101451ADDAA106000091AG10000GF108991081051008001001001MA1999999100851MD1999999+0081REMSYN011 333 58008;
0134832290999991996050700004-13017-038517FM-12+005199999V0201401N00151220001CN9999999N9+02581+01941101511ADDAA106000091AG10000GF104991041021008001001001KA1240M+02711MA1999999100911MD1999999-0011REMSYN017 333 10271 59001;EQDQ01+000002VOVAR 
0115832290999991996050712004-13017-038517FM-12+005199999V0201801N00151220001CN0100001N1+02651+02031101601ADDAA106000091AG10000GF105991031021008001001011KA1240N+02301MA1999999101001MD1999999-0071REMSYN017 333 20230 59007;
0096832290999991996050718004-13017-038517FM-12+005199999V0201801N00261220001CN0200001N1+02661+02241101341ADDAA106000091AG10000GF102991021021004501001001MA1999999100791MD1999999-0061REMSYN011 333 59006;
0172832290999991996050800004-13017-038517FM-12+005199999V0201401N00151004201CN9999999N9+02401+02131101611ADDAA106001091AG10000AY121061AY221061GF108991081071004501999999KA1240M+02761MA1999999101011MD1999999+0101REMSYN023 333 10276 58010 69981;EQDQ01+000002VOVAR Q02+000682PRSWM1
0143832290999991996050812004-13017-038517FM-12+005199999V0201801N00151220001CN0200001N1+02601+02211101671ADDAA124001091AG10000AY151061AY251061GF105991041031008001001011KA1240N+02361MA1999999101071MD1999999+0071MW1021REMSYN023 333 20236 58007 60014;
0096832290999991996050818004-13017-038517FM-12+005199999V0201801N00361220001CN0200001N1+02681+02041101481ADDAA106000091AG10000GF101991011021008001001001MA1999999100881MD1999999+0091REMSYN011 333 58009;
0134832290999991996050900004-13017-038517FM-12+005199999V0201401N00151220001CN9999999N9+02561+01951101541ADDAA106000091AG10000GF101991011021008001001001KA1240M+02741MA1999999100951MD1999999-0061REMSYN017 333 10274 59006;EQDQ01+000002VOVAR 
0115832290999991996050912004-13017-038517FM-12+005199999V0201801N00151045001CN0200001N1+02651+02001101601ADDAA106000091AG10000GF107991011031008001051001KA1240N+02531MA1999999101011MD1999999-0061REMSYN017 333 20253 59006;
0096832290999991996050918004-13017-038517FM-12+005199999V0201401N00211012001CN0100001N1+02651+02001101371ADDAA106000091AG10000GF107991071081008001001001MA1999999100771MD1999999-0111REMSYN011 333 59011;
0134832290999991996051000004-13017-038517FM-12+005199999V0201801N00151220001CN9999999N9+02571+02191101501ADDAA106000091AG10000GF103991031021008001001001KA1240M+02771MA1999999100901MD1999999-0091REMSYN017 333 10277 59009;EQDQ01+000002VOVAR 
0135832290999991996051012004-13017-038517FM-12+005199999V0201401N00151045001CN0100001N1+02501+02211101521ADDAA124001091AG10000AY151061GF106991031031008001031001KA1240N+02381MA1999999100921MD1999999-0091MW1031REMSYN023 333 20238 59009 60014;
0124832290999991996051018004-13017-038517FM-12+005199999V0201801N00211004201CN0020001N1+02501+02211101301ADDAA106000591AG10002AY161061AY201061GF108991081071004501999999MA1999999100711MD1999999-0061MW1601REMSYN017 333 59006 69941;
0178832290999991996051100004-13017-038517FM-12+005199999V0201401N00051220001CN9999999N9+02481+02251101481ADDAA106003091AG10002AY161061AY251061GF102991999031008001001001KA1240M+02771MA1999999100891MD1999999-0011MW1021REMSYN023 333 10277 59001 60031;EQDQ01+000012SCOTLCQ02+000002VOVAR 
0121832290999991996051112004-13017-038517FM-12+005199999V0201801N00311009001CN0100001N1+02541+02381101401ADDAA124003091AG10000GF106991061081004501001001KA1240N+02281MA1999999100801MD1999999-0121REMSYN023 333 20228 59012 60034;
0096832290999991996051118004-13017-038517FM-12+005199999V0201801N00261045001CN0100001N1+02691+02351101251ADDAA106000091AG10000GF106991011031008001031001MA1999999100651MD1999999-0061REMSYN011 333 59006;
0134832290999991996051200004-13017-038517FM-12+005199999V0201401N00311220001CN9999999N9+02581+02151101581ADDAA106000091AG10000GF103991031021008001001001KA1240M+02781MA1999999100981MD1999999+0091REMSYN017 333 10278 58009;EQDQ01+000002VOVAR 
0115832290999991996051212004-13017-038517FM-12+005199999V0201801N00151009001CN0040001N1+02661+02221101791ADDAA106000091AG10000GF106991061081004501001001KA1240N+02491MA1999999101191MD1999999+0391REMSYN017 333 20249 58039;
0115832290999991996051218004-13017-038517FM-12+005199999V0201801N00261045001CN0500001N1+02721+01771101391ADDAA106000091AG10000GF108991031021004501061071MA1999999096572MD1999999+0461REMSYN011 333 58046;EQDQ01+096573APOSP 
0143832290999991996051312004-13017-038517FM-12+005199999V0201801N00151004201CN0040001N1+02641+02331101881ADDAA124005091AG10002AY161061AY221061GF107991071071004501001001KA1240N+02301MA1999999101281MD1999999+0091MW1581REMSYN023 333 20230 58009 60054;
0124832290999991996051318004-13017-038517FM-12+005199999V0201401N00311045001CN0100001N1+02641+01981101581ADDAA106000591AG10000AY151061AY221061GF106991021021008001011001MA1999999100981MD1999999-0051MW1031REMSYN017 333 59005 69961;
0134832290999991996051400004-13017-038517FM-12+005199999V0201401N00211220001CN9999999N9+02561+02081101731ADDAA106000091AG10000GF102991021021008001001001KA1240M+02681MA1999999101131MD1999999-0061REMSYN017 333 10268 59006;EQDQ01+000002VOVAR 
0121832290999991996051412004-13017-038517FM-12+005199999V0201401N00101220001CN0200001N1+02701+02151101711ADDAA124000591AG10000GF102991021021008001001001KA1240N+02461MA1999999101111MD1999999-0171REMSYN023 333 20246 59017 69964;
0096832290999991996051418004-13017-038517FM-12+005199999V0201801N00151220001CN0200001N1+02701+02081101361ADDAA106000091AG10000GF102991021021008001001001MA1999999100771MD1999999-0211REMSYN011 333 59021;
0134832290999991996051500004-13017-038517FM-12+005199999V0201401N00101007501CN9999999N9+02441+02131101401ADDAA106000091AG10000GF105991051051008001001001KA1240M+02781MA1999999100801MD1999999-0331REMSYN017 333 10278 59033;EQDQ01+000002VOVAR 
0134832290999991996051512004-13017-038517FM-12+005199999V0200501N00151105001CN0040001N1+02271+99999101401ADDAA106000091AG10000GF107991041051008001001021KA1240N+99999MA1999999100801MD1999999-0311REMSYN017 333 20242 59031;EQDQ01 +02422ATMN  
0096832290999991996051518004-13017-038517FM-12+005199999V0201801N00151220001CN0200001N1+02661+02221101161ADDAA106000091AG10000GF102991011021017501001011MA1999999100561MD1999999-0211REMSYN011 333 59021;
0115832290999991996051612004-13017-038517FM-12+005199999V0203201N00051220001CN0200001N1+02551+02251101301ADDAA106000091AG10000GF103991031021008001001001KA1240N+02281MA1999999100711MD1999999-0091REMSYN017 333 20228 59009;
0112832290999991996051618004-13017-038517FM-12+005199999V0201801N00151220001CN0200001N1+02701+02221100991ADDAA106000091AG10000GA1001+999999999GF100991001001999999001001MA1999999100451MD1999999-0151REMSYN011 333 59015;
0150832290999991996051700004-13017-038517FM-12+005199999V0200501N00101220001CN9999999N9+02471+02191101241ADDAA106000091AG10000GA1001+999999999GF100991001001999999001001KA1240M+02901MA1999999100641MD1999999-0021REMSYN017 333 10290 59002;EQDQ01+000002VOVAR 
0096832290999991996051718004-13017-038517FM-12+005199999V0201401N00261220001CN0200001N1+02661+02371101391ADDAA106000091AG10000GF102991011021008001031051MA1999999100791MD1999999+0381REMSYN011 333 58038;
0134832290999991996051800004-13017-038517FM-12+005199999V0201401N00311007501CN9999999N9+02651+02271101701ADDAA106000091AG10000GF107991051041008001031001KA1240M+02791MA1999999101101MD1999999+0461REMSYN017 333 10279 58046;EQDQ01+000002VOVAR 
0135832290999991996051812004-13017-038517FM-12+005199999V0202301N00361007501CN0040001N1+02431+02371101821ADDAA124003091AG10002AY161061GF107991061071008001021001KA1240N+02431MA1999999101221MD1999999+0251MW1211REMSYN023 333 20243 58025 60034;
0051832290999991996051818004-13017-038517FM-12+005199999V0209991C00001004201CN0020001N1+02361+02331101541ADDAG10000GF108991061031004501061001MA1999999100951
0162832290999991996051900004-13017-038517FM-12+005199999V0201401N00151007501CN9999999N9+02521+02311101591ADDAA106002091AG10002AY161061AY221061GF107991071071008001001001KA1240M+02661MA1999999100991MD1999999-0111MW1021REMSYN023 333 10266 59011 60021;EQDQ01+000002VOVAR 
0143832290999991996051912004-13017-038517FM-12+005199999V0201401N00051004201CN0040001N1+02361+02341101681ADDAA124057091AG10002AY161061AY261061GF108991081071004501999999KA1240N+02291MA1999999101081MD1999999+0131MW1581REMSYN023 333 20229 58013 60574;
0124832290999991996051918004-13017-038517FM-12+005199999V0201401N001519999999N0200001N1+02661+02431101231ADDAA106001091AG10002AY161061AY221061GF105991051001008001031001MA1999999100631MD1999999-0321MW1031REMSYN017 333 59032 60011;
0134832290999991996052000004-13017-038517FM-12+005199999V0201801N00151220001CN9999999N9+02581+02481101471ADDAA106000091AG10000GF101991011011004501001001KA1240M+02781MA1999999100871MD1999999-0121REMSYN017 333 10278 59012;EQDQ01+000002VOVAR 
0121832290999991996052012004-13017-038517FM-12+005199999V0202301N00101220001CN0200001N1+02591+02441101491ADDAA124001091AG10000GF104991031051008001001021KA1240N+02381MA1999999100901MD1999999-0181REMSYN023 333 20238 59018 60014;
0096832290999991996052018004-13017-038517FM-12+005199999V0201401N00151220001CN0200001N1+02761+02441101201ADDAA106000091AG10000GF103991011021008001041061MA1999999100601MD1999999-0031REMSYN011 333 59003;
0150832290999991996052100004-13017-038517FM-12+005199999V0201401N00151007501CN9999999N9+02601+02511101371ADDAA106000091AG10000GF107991999051008001001001KA1240M+02791MA1999999100771MD1999999-0101REMSYN017 333 10279 59010;EQDQ01+000062SCOTLCQ02+000002VOVAR 
0115832290999991996052112004-13017-038517FM-12+005199999V0201401N00101045001CN0040001N1+02681+02411101611ADDAA106000091AG10000GF106991041031008001031001KA1240N+02451MA1999999101011MD1999999+0111REMSYN017 333 20245 58011;
0124832290999991996052118004-13017-038517FM-12+005199999V0201401N00101012001CN0040001N1+02641+02391101411ADDAA106000591AG10000AY151061AY221061GF106991061001012501021001MA1999999100821MD1999999+0221MW1021REMSYN017 333 58022 69941;
0162832290999991996052200004-13017-038517FM-12+005199999V0201401N00261004201CN9999999N9+02461+02341101641ADDAA106000391AG10000AY151061AY251061GF106991061051004501001001KA1240M+02721MA1999999101051MD1999999+0291MW1031REMSYN023 333 10272 58029 69931;EQDQ01+000002VOVAR 
0143832290999991996052212004-13017-038517FM-12+005199999V0201801N00261007501CN0100001N1+02641+02231101711ADDAA124002091AG10002AY161061AY251061GF106991061051008001001001KA1240N+02361MA1999999101121MD1999999+0111MW1021REMSYN023 333 20236 58011 60024;
0096832290999991996052218004-13017-038517FM-12+005199999V0201801N00151220001CN0200001N1+02711+02391101391ADDAA106000091AG10000GF102991021021004501001001MA1999999100791MD1999999-0031REMSYN011 333 59003;
0134832290999991996052300004-13017-038517FM-12+005199999V0201401N00101220001CN9999999N9+02631+02311101581ADDAA106000091AG10000GF102991001001999999001041KA1240M+02761MA1999999100991MD1999999-0061REMSYN017 333 10276 59006;EQDQ01+000002VOVAR 
0096832290999991996052318004-13017-038517FM-12+005199999V0201401N00101220001CN0200001N1+02691+02161101221ADDAA106000091AG10000GF102991011001999999041051MA1999999100621MD1999999-0171REMSYN011 333 59017;
0134832290999991996052400004-13017-038517FM-12+005199999V0201401N00101220001CN9999999N9+02511+02291101431ADDAA106000091AG10000GF104991041021008001001001KA1240M+02771MA1999999100831MD1999999-0161REMSYN017 333 10277 59016;EQDQ01+000002VOVAR 
0135832290999991996052412004-13017-038517FM-12+005199999V0201801N00211004201CN0040001N1+02341+02221101531ADDAA124006091AG10002AY161061GF107991061071004501021001KA1240N+02341MA1999999100931MD1999999-0051MW1611REMSYN023 333 20234 59005 60064;
0124832290999991996052418004-13017-038517FM-12+005199999V0201801N00261220001CN0100001N1+02661+02331101191ADDAA106000591AG10002AY161061AY221061GF102991011021004501031001MA1999999100591MD1999999-0031MW1031REMSYN017 333 59003 69951;
0141832290999991996052512004-13017-038517FM-12+005199999V0201801N00311220001CN0200001N1+02531+99999101631ADDAA106000091AA224002091AG10002AY161061AY221061GF104991041031002501001001MA1999999101031MD1999999+0101MW1031REMSYN023 333 2031/ 58010 60024;
0124832290999991996052518004-13017-038517FM-12+005199999V0201801N00261045001CN0500001N1+02521+02001101491ADDAA106000591AG10000AY151061AY211061GF105991021021008001031001MA1999999100891MD1999999+0301MW1031REMSYN017 333 58030 69941;
0162832290999991996052612004-13017-038517FM-12+005199999V0201801N00571007501CN9999999N9+02481+01921101701ADDAA106004091AG10002AY161061AY251061GF106991061051008001001001KA1240M+02621MA1999999101111MD1999999+0251MW1011REMSYN023 333 10262 58025 60041;EQDQ01+000002VOVAR 
0124832290999991996052618004-13017-038517FM-12+005199999V0202301N00211007501CN0200001N1+02271+02091101671ADDAA106000591AG10000AY151061AY211061GF106991051071008001021001MA1999999101071MD1999999+0181MW1031REMSYN017 333 58018 69941;
0121832290999991996052712004-13017-038517FM-12+005199999V0202301N00311045001CN0200001N1+02371+02131101911ADDAA124000591AG10000GF105991031021008001031001KA1240N+02221MA1999999101311MD1999999+0011REMSYN023 333 20222 58001 69954;
0124832290999991996052718004-13017-038517FM-12+005199999V0201801N00311220001CN0040001N1+02461+02131101601ADDAA106000591AG10002AY161061AY221061GF103991031091004501001001MA1999999101001MD1999999-0071MW1031REMSYN017 333 59007 69961;
0150832290999991996052800004-13017-038517FM-12+005199999V0201801N001519999999N9999999N9+02401+02071101861ADDAA106000091AG10000GF105991999001008001031001KA1240M+02631MA1999999101261MD1999999+0041REMSYN017 333 10263 58004;EQDQ01+000062SCOTLCQ02+000002VOVAR 
0143832290999991996052812004-13017-038517FM-12+005199999V0201801N00311004201CN0100001N1+02311+02181101831ADDAA124015091AG10002AY161061AY261061GF107991071051004501001001KA1240N+02131MA1999999101231MD1999999-0081MW1031REMSYN023 333 20213 59008 60154;
0124832290999991996052818004-13017-038517FM-12+005199999V0201801N00361012001CN0100001N1+02431+02151101571ADDAA106000591AG10002AY161061AY251061GF106991061001012501021001MA1999999100981MD1999999-0021MW1021REMSYN017 333 59002 69941;
0150832290999991996052900004-13017-038517FM-12+005199999V0201801N00151220001CN9999999N9+02351+02261101671ADDAA106000091AG10000GF102991001001999999001021KA1240M+02501MA1999999101071MD1999999-0141REMSYN017 333 10250 59014;EQDQ01+000982SCOLCBQ02+000002VOVAR 
0121832290999991996052912004-13017-038517FM-12+005199999V0200901N00151004201CN0040001N1+02281+02201101801ADDAA124027091AG10000GF108991081071004501999999KA1240N+02191MA1999999101201MD1999999-0031REMSYN023 333 20219 59003 60274;
0124832290999991996052918004-13017-038517FM-12+005199999V0201401N00151004201CN0040001N1+02261+02161101561ADDAA106021091AG10002AY161061AY251061GF108991071071004501021999MA1999999100961MD1999999-0021MW1031REMSYN017 333 59002 60211;
0162832290999991996053000004-13017-038517FM-12+005199999V0209991C00001004201CN9999999N9+02171+99999101761ADDAA106006091AG10002AY161061AY221061GF108991081071004501999999KA1240M+02421MA1999999101161MD1999999+0091MW1581REMSYN023 333 10242 58009 60061;EQDQ01+000002VOVAR 
0143832290999991996053012004-13017-038517FM-12+005199999V0202301N00461004201CN0040001N1+02281+02071101811ADDAA124037091AG10002AY161061AY251061GF107991061071004501021001KA1240N+02061MA1999999101211MD1999999+0011MW1031REMSYN023 333 20206 58001 60374;
0124832290999991996053018004-13017-038517FM-12+005199999V0201401N00311007501CN0100001N1+02481+02091101581ADDAA106000191AG10000AY151061AY221061GF107991051071008001031001MA1999999100981MD1999999+0021MW1031REMSYN017 333 58002 69911;
0162832290999991996053100004-13017-038517FM-12+005199999V0201801N001519999999N9999999N9+02431+02111101781ADDAA106000191AG10000AY151061AY221061GF105991051001008001031001KA1240M+02521MA1999999101181MD1999999+0021MW1031REMSYN023 333 10252 58002 69921;EQDQ01+000002VOVAR 
0121832290999991996053112004-13017-038517FM-12+005199999V0201801N00151220001CN0200001N1+02561+01991101871ADDAA124000391AG10000GF102991021021004501001001KA1240N+02251MA1999999101271MD1999999+0061REMSYN023 333 20225 58006 69934;
0096832290999991996053118004-13017-038517FM-12+005199999V0201801N001519999999N0100001N1+02621+01981101571ADDAA106000091AG10000GF107991041001012501041011MA1999999100971MD1999999-0011REMSYN011 333 59001;
0134832290999991996060100004-13017-038517FM-12+005199999V0201801N00151220001CN9999999N9+02461+02131101771ADDAA106000091AG10000GF104991041021008001051001KA1240M+02661MA1999999101171MD1999999-0011REMSYN017 333 10266 59001;EQDQ01+000002VOVAR 
0115832290999991996060112004-13017-038517FM-12+005199999V0201801N00311220001CN0200001N1+02611+02031101861ADDAA106000091AG10000GF102991021031008001001001KA1240N+02391MA1999999101271MD1999999+0001REMSYN017 333 20239 58000;
0096832290999991996060118004-13017-038517FM-12+005199999V0201401N00311220001CN0200001N1+02551+02091101621ADDAA106000091AG10000GF103991031021008001001001MA1999999101021MD1999999+0051REMSYN011 333 58005;
0115832290999991996060212004-13017-038517FM-12+005199999V0201401N00211007501CN0100001N1+02681+02241101691ADDAA106000091AG10000GF106991051031008001041001KA1240N+02431MA1999999101091MD1999999-0181REMSYN017 333 20243 59018;
0096832290999991996060218004-13017-038517FM-12+005199999V0201401N00051220001CN0200001N1+02721+02151101491ADDAA106000091AG10000GF101991011021008001001001MA1999999100901MD1999999-0121REMSYN011 333 59012;
0150832290999991996060300004-13017-038517FM-12+005199999V0201401N00051220001CN9999999N9+02501+02131101661ADDAA106000091AG10000GA1001+999999999GF100991001001999999001001KA1240M+02821MA1999999101071MD1999999-0101REMSYN017 333 10282 59010;EQDQ01+000002VOVAR 
0115832290999991996060312004-13017-038517FM-12+005199999V0201801N00411045001CN0100001N1+02601+02211101781ADDAA106000091AG10000GF106991041031008001031001KA1240N+02481MA1999999101191MD1999999+0101REMSYN017 333 20248 58010;
0124832290999991996060318004-13017-038517FM-12+005199999V0201801N00721004201CN0020001N1+02421+02251101501ADDAA106002091AG10002AY161061AY221061GF108991081071004501999999MA1999999100911MD1999999+0011MW1011REMSYN017 333 58001 60021;
0162832290999991996060400004-13017-038517FM-12+005199999V0201801N00671004201CN9999999N9+02381+02221101731ADDAA106002091AG10002AY161061AY261061GF108991081071004501999999KA1240M+02641MA1999999101141MD1999999+0071MW1021REMSYN023 333 10264 58007 60021;EQDQ01+000002VOVAR 
0156832290999991996060412004-13017-038517FM-12+005199999V0201801N005119999999N0020001N1+02501+02071100011ADDAA124011091AG10000GF107991999051004501021001KA1240N+02001MA1999999099421MD1999999+0161REMSYN023 333 20200 58016 60114;EQDQ01+000082SCOTLCQ02+999990APOSLP
0178832290999991996060500004-13017-038517FM-12+005199999V0201401N005119999999N9999999N9+02471+01921101901ADDAA106000191AG10000AY151061AY221061GF107991999021008001001001KA1240M+02551MA1999999101301MD1999999+0161MW1031REMSYN023 333 10255 58016 69921;EQDQ01+000022SCOTLCQ02+000002VOVAR 
0143832290999991996060512004-13017-038517FM-12+005199999V0201401N00461007501CN0040001N1+02301+02011102021ADDAA124002091AG10000AY151061AY221061GF108991061071008001021999KA1240N+02221MA1999999101421MD1999999+0151MW1201REMSYN023 333 20222 58015 60024;
0107832290999991996060518004-13017-038517FM-12+005199999V0201401N00311004201CN0040001N1+02211+02131101841ADDAG10002AY161061AY261061GF108991081071004501999999MA1999999101241MD1999999-0121MW1581REMSYN011 333 59012;
0162832290999991996060600004-13017-038517FM-12+005199999V0201401N00101004201CN9999999N9+02241+02191102001ADDAA106021091AG10002AY161061AY261061GF106991061051004501001001KA1240M+02541MA1999999101411MD1999999+0111MW1601REMSYN023 333 10254 58011 60211;EQDQ01+000002VOVAR 
0143832290999991996060612004-13017-038517FM-12+005199999V0200901N00151004201CN0100001N1+02301+02181101941ADDAA124051091AG10002AY161061AY261061GF108991081071004501999999KA1240N+02101MA1999999101341MD1999999+0101MW1581REMSYN023 333 20210 58010 60514;
0124832290999991996060618004-13017-038517FM-12+005199999V0200901N00151004201CN0040001N1+02421+02211101171ADDAA106000391AG10002AY161061AY221061GF106991061071004501001001MA1999999101171MD1999999-0071MW1581REMSYN017 333 59007 69931;
0134832290999991996060700004-13017-038517FM-12+005199999V0201401N00261220001CN9999999N9+02421+02051101921ADDAA106000091AG10000GF101991011021008001001001KA1240M+02761MA1999999101331MD1999999-0081REMSYN017 333 10276 59008;EQDQ01+000002VOVAR 
0121832290999991996060712004-13017-038517FM-12+005199999V0201401N001519999999N0200001N1+02421+02151101941ADDAA124000391AG10000GF108991081001008001051001KA1240N+02281MA1999999101341MD1999999+0171REMSYN023 333 20228 58017 69934;
0162832290999991996060800004-13017-038517FM-12+005199999V0200501N00101007501CN9999999N9+02281+02181101911ADDAA106001091AG10000AY151061AY221061GF106991051071008001021001KA1240M+02561MA1999999101311MD1999999-0021MW1031REMSYN023 333 10256 59002 60011;EQDQ01+000002VOVAR 
