0143832360999991996010112004-12150-045000FM-12+044099999V0200501N00101012001CN0100001N1+02551+02171101161ADDAA106005091AG10000AY151061AY251061GF108991061081008001061999KA1240N+02181MA1999999096241MD1999999+0011MW1101REMSYN023 333 20218 58001 60051;
0124832360999991996010118004-12150-045000FM-12+044099999V0202301N00101007501CN0200001N1+02891+02181100691ADDAA106000591AG10000AY151061AY251061GF106991061051008001081001MA1999999095821MD1999999+0001MW1011REMSYN017 333 58000 69941;
0143832360999991996010212004-12150-045000FM-12+044099999V0202701N00051045001CN0200001N1+02451+02071101241ADDAA124001091AG10000AY151061AY251061GF106991011011008001061001KA1240N+02121MA1999999096311MD1999999+0071MW1021REMSYN023 333 20212 58007 69974;
0096832360999991996010218004-12150-045000FM-12+044099999V0203601N00211045001CN0200001N1+03031+02161100791ADDAA106000091AG10000GF106991031021008001031021MA1999999095921MD1999999+0101REMSYN011 333 58010;
0115832360999991996010312004-12150-045000FM-12+044099999V0202701N00051105001CN0500001N1+02551+02151101101ADDAA106000091AG10000GF106991021011008001001071KA1240N+02031MA1999999096201MD1999999-0111REMSYN017 333 20203 59011;
0096832360999991996010318004-12150-045000FM-12+044099999V0200501N001019999999N0200001N1+03071+01771100801ADDAA106000091AG10000GF106991031021008001999061MA1999999095931MD1999999+0011REMSYN011 333 58001;
0115832360999991996010412004-12150-045000FM-12+044099999V0201801N00101220001CN0200001N1+02431+02091101181ADDAA106000091AG10000GF105991001001999999001061KA1240N+01971MA1999999096271MD1999999+0071REMSYN017 333 20197 58007;
0096832360999991996010418004-12150-045000FM-12+044099999V0203601N00101105001CN0200001N1+03111+02151100831ADDAA106000091AG10000GF105991031021008001001021MA1999999095951MD1999999+0021REMSYN011 333 58002;
0115832360999991996010512004-12150-045000FM-12+044099999V0209991C00001105001CN0200001N1+02491+01981101081ADDAA106000091AG10000GF105991011011008001001051KA1240N+01981MA1999999096191MD1999999-0081REMSYN017 333 20198 59008;
0096832360999991996010518004-12150-045000FM-12+044099999V0200901N00101220001CN0200001N1+03271+01801100581ADDAA106000091AG10000GF104991031021008001001041MA1999999095741MD1999999-0211REMSYN011 333 59021;
0115832360999991996010612004-12150-045000FM-12+044099999V0201801N00051220001CN0500001N1+02551+01911100971ADDAA106000091AG10000GF103991001001999999001041KA1240N+01921MA1999999096091MD1999999-0101REMSYN017 333 20192 59010;
0096832360999991996010618004-12150-045000FM-12+044099999V0200501N00261220001CN0200001N1+03181+01911100641ADDAA106000091AG10000GF104991021021008001001041MA1999999095731MD1999999-0011REMSYN011 333 59001;
0115832360999991996010712004-12150-045000FM-12+044099999V0201801N00051220001CN0200001N1+02571+02081101101ADDAA106000091AG10000GF104991041021008001001001KA1240N+02031MA1999999096211MD1999999+0021REMSYN017 333 20203 58002;
0115832360999991996010812004-12150-045000FM-12+044099999V0201801N00101220001CN0500001N1+02491+02051101241ADDAA106000091AG10000GF103991011011008001001041KA1240N+02011MA1999999096341MD1999999+0131REMSYN017 333 20201 58013;
0096832360999991996010818004-12150-045000FM-12+044099999V0200501N00261220001CN0500001N1+03191+01981100841ADDAA106000091AG10000GF103991021021008001001011MA1999999095961MD1999999+0111REMSYN011 333 58011;
0115832360999991996010912004-12150-045000FM-12+044099999V0201801N00101220001CN0200001N1+02571+01971101331ADDAA106000091AG10000GF103991011011008001001041KA1240N+01921MA1999999096421MD1999999+0081REMSYN017 333 20192 58008;
0096832360999991996010918004-12150-045000FM-12+044099999V0203601N00151220001CN0200001N1+03211+01891100911ADDAA106000091AG10000GF104991031021008001001021MA1999999096031MD1999999+0071REMSYN011 333 58007;
0115832360999991996011012004-12150-045000FM-12+044099999V0201801N00101220001CN0500001N1+02571+02151101141ADDAA106000091AG10000GF104991011011008001001041KA1240N+02061MA1999999096261MD1999999-0161REMSYN017 333 20206 59016;
0096832360999991996011018004-12150-045000FM-12+044099999V0203601N00261220001CN0200001N1+03201+01931100871ADDAA106000091AG10000GF105991021021008001001061MA1999999095811MD1999999-0221REMSYN011 333 59022;
0115832360999991996011112004-12150-045000FM-12+044099999V0201801N00101220001CN0500001N1+02571+02171101041ADDAA106000091AG10000GF104991021021008001001041KA1240N+01961MA1999999096151MD1999999-0111REMSYN017 333 20196 59011;
0096832360999991996011118004-12150-045000FM-12+044099999V0200501N00211045001CN0200001N1+03211+01961100591ADDAA106000091AG10000GF106991041021008001051041MA1999999095741MD1999999-0071REMSYN011 333 59007;
0137832360999991996011212004-12150-045000FM-12+044099999V0200901N00151007501CN0040001N1+02311+02051101251ADDAA106000091AG10000AY121061AY221061GF108991071051008001041999KA1240N+02091MA1999999096341MD1999999+0181MW1151REMSYN017 333 20209 58018;
0143832360999991996011218004-12150-045000FM-12+044099999V0201801N00101007501CN0100001N1+02791+02301100801ADDAA106013091AG10003AY161061AY261061GF108991999041008001071999MA1999999095921MD1999999+0181MW1031REMSYN017 333 58018 60131;EQDQ01+000082SCOTLC
0121832360999991996011312004-12150-045000FM-12+044099999V0203201N00101007501CN0200001N1+02441+02071101031ADDAA124013091AG10000GF106991051021008001081041KA1240N+01991MA1999999096121MD1999999-0221REMSYN023 333 20199 59022 60134;
0124832360999991996011318004-12150-045000FM-12+044099999V0200501N00151007501CN0200001N1+02911+02121100701ADDAA106002091AG10003AY161061AY251061GF106991051051008001071011MA1999999095811MD1999999-0111MW1151REMSYN017 333 59011 60021;
0121832360999991996011412004-12150-045000FM-12+044099999V0201801N00211220001CN0200001N1+02511+01981101111ADDAA106002091AG10000GF101991011021012501001001KA1240N+01701MA1999999096191MD1999999+0071REMSYN023 333 20170 58007 60021;
0118832360999991996011418004-12150-045000FM-12+044099999V0200501N00211007501CN0200001N1+03121+01981100791ADDAA106000091AG10000AY121061AY221061GF105991051051008001071001MA1999999095891MD1999999+0081MW1151REMSYN011 333 58008;
0115832360999991996011512004-12150-045000FM-12+044099999V0202301N00101220001CN0500001N1+02571+01931101131ADDAA106000091AG10000GF102991021021008001001001KA1240N+01801MA1999999096221MD1999999+0031REMSYN017 333 20180 58003;
0096832360999991996011518004-12150-045000FM-12+044099999V0200501N00151220001CN0500001N1+03191+01981100631ADDAA106000091AG10000GF103991031021008001001001MA1999999095761MD1999999-0131REMSYN011 333 59013;
0115832360999991996011612004-12150-045000FM-12+044099999V0201801N00101220001CN0500001N1+02551+01881100981ADDAA106000091AG10000GF102991021021008001001001KA1240N+02011MA1999999096101MD1999999-0121REMSYN017 333 20201 59012;
0096832360999991996011618004-12150-045000FM-12+044099999V0200901N00411007501CN0200001N1+03031+01961100461ADDAA106000091AG10000GF106991051041008001081051MA1999999095601MD1999999-0161REMSYN011 333 59016;
0121832360999991996011712004-12150-045000FM-12+044099999V0202301N00101007501CN0200001N1+02151+01861101091ADDAA124026091AG10000GF106991051041008001061031KA1240N+01791MA1999999096121MD1999999+0021REMSYN023 333 20179 58002 60264;
0118832360999991996011718004-12150-045000FM-12+044099999V0203601N00151007501CN0200001N1+02851+02091100511ADDAA106000091AG10000AY121061AY221061GF107991061051008001071051MA1999999095611MD1999999+0011MW1151REMSYN011 333 58001;
0096832360999991996011818004-12150-045000FM-12+044099999V0200901N00211007501CN0200001N1+03061+02251100521ADDAA106000091AG10000GF106991051041008001081031MA1999999095641MD1999999+0031REMSYN011 333 58003;
0115832360999991996011912004-12150-045000FM-12+044099999V0209991C00001012001CN0200001N1+02091+99999100921ADDAA106000091AG10000GF106991051021012501061041KA1240N+02001MA1999999096041MD1999999+0021REMSYN017 333 20200 58002;
0118832360999991996011918004-12150-045000FM-12+044099999V0201801N00101007501CN0200001N1+03091+02041100491ADDAA106000091AG10000AY121061AY221061GF107991061051008001071031MA1999999095631MD1999999-0011MW1151REMSYN011 333 59001;
0115832360999991996012012004-12150-045000FM-12+044099999V0209991C00001007501CN0200001N1+02571+02191100861ADDAA106000091AG10000GF106991051041008001071051KA1240N+02071MA1999999095981MD1999999-0061REMSYN017 333 20207 59006;
0118832360999991996012018004-12150-045000FM-12+044099999V0203601N00101007501CN0200001N1+02971+02211100541ADDAA106000091AG10000AY121061AY221061GF106991051051008001071041MA1999999095681MD1999999+0051MW1151REMSYN011 333 58005;
0115832360999991996012112004-12150-045000FM-12+044099999V0201401N00101220001CN0500001N1+02641+02161100931ADDAA106000091AG10000GF104991031021008001001011KA1240N+02091MA1999999096051MD1999999+0071REMSYN017 333 20209 58007;
0118832360999991996012118004-12150-045000FM-12+044099999V0200901N00101007501CN0200001N1+02951+02141100651ADDAA106000091AG10000AY121061AY221061GF106991051051008001071041MA1999999095781MD1999999+0101MW1151REMSYN011 333 58010;
0115832360999991996012212004-12150-045000FM-12+044099999V0202301N00101220001CN0500001N1+02531+02091100881ADDAA106000091AG10000GF103991031021008001001001KA1240N+01681MA1999999095951MD1999999-0101REMSYN017 333 20168 59010;
0096832360999991996012218004-12150-045000FM-12+044099999V0200501N00411220001CN0500001N1+03131+02141100491ADDAA106000091AG10000GF103991031021008001001001MA1999999095611MD1999999-0171REMSYN011 333 59017;
0115832360999991996012312004-12150-045000FM-12+044099999V0200501N00261045001CN0500001N1+02691+02201100871ADDAA106000091AG10000GF105991041021008001071011KA1240N+01921MA1999999095981MD1999999+0031REMSYN017 333 20192 58003;
0118832360999991996012318004-12150-045000FM-12+044099999V0200501N00311007501CN0200001N1+03111+02061100631ADDAA106000091AG10000AY121061AY221061GF106991051051008001041031MA1999999095761MD1999999+0151MW1151REMSYN011 333 58015;
0096832360999991996012418004-12150-045000FM-12+044099999V0200501N00101220001CN0500001N1+03201+02181100831ADDAA106000091AG10000GF104991031021008001051011MA1999999095951MD1999999+0191REMSYN011 333 58019;
0115832360999991996012512004-12150-045000FM-12+044099999V0201801N00101045001CN0500001N1+02651+02071101181ADDAA106000091AG10000GF105991031021008001031011KA1240N+01891MA1999999096291MD1999999+0031REMSYN017 333 20189 58003;
0096832360999991996012518004-12150-045000FM-12+044099999V0200501N00211220001CN0200001N1+03181+02191100861ADDAA106000091AG10000GF106991041021008001001041MA1999999095981MD1999999+0031REMSYN011 333 58003;
0131832360999991996012612004-12150-045000FM-12+044099999V0201401N00101220001CN0500001N1+02641+02091101011ADDAA106000091AG10000GA1001+999999999GF100991001001999999001001KA1240N+01911MA1999999096121MD1999999-0171REMSYN017 333 20191 59017;
0096832360999991996012618004-12150-045000FM-12+044099999V0200501N00211007501CN0200001N1+03111+02021100621ADDAA106000091AG10000GF105991051021008001001001MA1999999095771MD1999999-0211REMSYN011 333 59021;
0102832360999991996012712004-12150-045000FM-12+044099999V0203601N00261220001CN0500001N1+02651+01831100921ADDAA106000091AG10000GF103991001001999999001041MA1999999096051MD1999999-0071REMSYN017 333 2019/ 59007;
0115832360999991996012718004-12150-045000FM-12+044099999V0203601N002619999999N0200001N1+03271+01881100531ADDAA106000091AG10000GF105991999021008001001001MA1999999095721MD1999999-0051REMSYN011 333 59005;EQDQ01+000032SCOTLC
0115832360999991996012812004-12150-045000FM-12+044099999V0202301N00051220001CN0500001N1+02431+01671100931ADDAA106000091AG10000GF103991001001999999001041KA1240N+01771MA1999999096041MD1999999-0011REMSYN017 333 20177 59001;
0096832360999991996012818004-12150-045000FM-12+044099999V0203601N00101220001CN0200001N1+03241+01781100561ADDAA106000091AG10000GF106991041021008001001041MA1999999095691MD1999999-0031REMSYN011 333 59003;
0115832360999991996012912004-12150-045000FM-12+044099999V0202701N00101220001CN0500001N1+02611+01791100971ADDAA106000091AG10000GF102991021001022501041001KA1240N+01961MA1999999096091MD1999999+0051REMSYN017 333 20196 58005;
0096832360999991996012918004-12150-045000FM-12+044099999V0203601N00311220001CN0500001N1+03311+01871100601ADDAA106000091AG10000GF104991041021008001001001MA1999999095741MD1999999+0051REMSYN011 333 58005;
0115832360999991996013012004-12150-045000FM-12+044099999V0202301N00101220001CN0200001N1+02541+01861101151ADDAA106000091AG10000GF105991011001022501041061KA1240N+02031MA1999999096241MD1999999+0151REMSYN017 333 20203 58015;
0096832360999991996013018004-12150-045000FM-12+044099999V0203601N00211220001CN0200001N1+03181+01911100701ADDAA106000091AG10000GF105991021021008001001061MA1999999095831MD1999999+0091REMSYN011 333 58009;
0134832360999991996013112004-12150-045000FM-12+044099999V0203601N00211220001CN0500001N1+02681+01941101001ADDAA106000091AG10000GF103991999001022501041001KA1240N+02051MA1999999096121MD1999999-0121REMSYN017 333 20205 59012;EQDQ01+000022SCOTLC
0096832360999991996013118004-12150-045000FM-12+044099999V0203601N00261220001CN0500001N1+03351+01951100521ADDAA106000091AG10000GF104991031021008001001021MA1999999095701MD1999999-0131REMSYN011 333 59013;
0115832360999991996020112004-12150-045000FM-12+044099999V0200901N00101105001CN0500001N1+02611+02011101041ADDAA106000091AG10000GF105991021021008001001071KA1240N+02071MA1999999096161MD1999999+0041REMSYN017 333 20207 58004;
0115832360999991996020212004-12150-045000FM-12+044099999V0201801N00101007501CN0200001N1+02521+02071101051ADDAA106000091AG10000GF106991061041008001001001KA1240N+02111MA1999999096161MD1999999+0001REMSYN017 333 20211 58000;
0115832360999991996020312004-12150-045000FM-12+044099999V0200501N00411007501CN0100001N1+02371+02071101031ADDAA106000091AG10000GF107991071051008001001001KA1240N+02091MA1999999096141MD1999999-0021REMSYN017 333 20209 59002;
0143832360999991996020412004-12150-045000FM-12+044099999V0203201N00311007501CN0200001N1+02431+02051101001ADDAA124006091AG10003AY161061AY261061GF106991061021008001001001KA1240N+02071MA1999999096101MD1999999-0041MW1021REMSYN023 333 20207 59004 60064;
0124832360999991996020418004-12150-045000FM-12+044099999V0200501N00261045001CN0100001N1+02291+02131100731ADDAA106011091AG10003AY161061AY261061GF107991041041008001021001MA1999999095801MD1999999+0031MW1021REMSYN017 333 58003 60111;
0121832360999991996020512004-12150-045000FM-12+044099999V0201801N00101220001CN0200001N1+02571+02111100951ADDAA124011091AG10000GF105991021011008001061091KA1240N+02101MA1999999096051MD1999999-0051REMSYN023 333 20210 59005 60114;
0096832360999991996020518004-12150-045000FM-12+044099999V0200501N00211220001CN0200001N1+03011+02051100521ADDAA106000091AG10000GF106991031021008001001061MA1999999095661MD1999999-0141REMSYN011 333 59014;
0143832360999991996020612004-12150-045000FM-12+044099999V0209991C00001012001CN0100001N1+02351+01981101081ADDAA124022091AG10003AY161061AY261061GF106991061081008001001001KA1240N+02011MA1999999096131MD1999999+0081MW1021REMSYN023 333 20201 58008 60224;
0096832360999991996020618004-12150-045000FM-12+044099999V0200901N00151220001CN0100001N1+02891+02081100721ADDAA106000091AG10000GF106991031021008001001061MA1999999095831MD1999999+0171REMSYN011 333 58017;
0143832360999991996020712004-12150-045000FM-12+044099999V0202701N00051220001CN0200001N1+02581+02121101161ADDAA124000591AG10000AY151061AY251061GF103991021011008001081001KA1240N+02151MA1999999096261MD1999999+0131MW1021REMSYN023 333 20215 58013 69964;
0124832360999991996020718004-12150-045000FM-12+044099999V0203601N00151220001CN0200001N1+03071+02191100791ADDAA106003091AG10003AY161061AY261061GF104991021021008001001041MA1999999095921MD1999999+0091MW1021REMSYN017 333 58009 60031;
0096832360999991996020818004-12150-045000FM-12+044099999V0203601N00211220001CN0200001N1+03251+01931100761ADDAA106000091AG10000GF104991031021008001001021MA1999999095901MD1999999-0021REMSYN011 333 59002;
0115832360999991996020912004-12150-045000FM-12+044099999V0203601N00101021001CN0100001N1+02491+02051101091ADDAA106000091AG10000GF106991061001022501071001KA1240N+01991MA1999999096201MD1999999-0011REMSYN017 333 20199 59001;
0096832360999991996020918004-12150-045000FM-12+044099999V0203601N00101220001CN0200001N1+03311+01641100711ADDAA106000091AG10000GF103991021021008001041001MA1999999095851MD1999999-0051REMSYN011 333 59005;
0115832360999991996021012004-12150-045000FM-12+044099999V0203601N00101220001CN0500001N1+02581+02151100991ADDAA106000091AG10000GF103991031001022501071021KA1240N+01971MA1999999096121MD1999999-0081REMSYN017 333 20197 59008;
0115832360999991996021112004-12150-045000FM-12+044099999V0209991C00001220001CN0500001N1+02681+02161101001ADDAA106000091AG10000GF102991021001022501051001KA1240N+01981MA1999999096141MD1999999+0021REMSYN017 333 20198 58002;
0096832360999991996021118004-12150-045000FM-12+044099999V0200501N00211045001CN0200001N1+03381+02271100551ADDAA106000091AG10000GF106991041021008001071011MA1999999095731MD1999999-0041REMSYN011 333 59004;
0137832360999991996021212004-12150-045000FM-12+044099999V0200501N00361007501CN0100001N1+02451+02051101221ADDAA106000091AG10000AY121061AY221061GF108991061051008001071999KA1240N+02191MA1999999096331MD1999999+0191MW1171REMSYN017 333 20219 58019;
0118832360999991996021218004-12150-045000FM-12+044099999V0200501N00411007501CN0200001N1+02611+02011100891ADDAA106000091AG10000AY121061AY221061GF106991051051008001081011MA1999999095991MD1999999+0261MW1151REMSYN011 333 58026;
0121832360999991996021312004-12150-045000FM-12+044099999V0201801N00151007501CN0200001N1+02611+02121101191ADDAA124000191AG10000GF106991051021008001071041KA1240N+02091MA1999999096301MD1999999-0031REMSYN023 333 20209 59003 69924;
0118832360999991996021318004-12150-045000FM-12+044099999V0200501N00101105001CN0200001N1+03131+02081100751ADDAA106000091AG10000AY121061AY221061GF105991041051008001001051MA1999999095891MD1999999-0101MW1171REMSYN011 333 59010;
0121832360999991996021412004-12150-045000FM-12+044099999V0200501N00101007501CN0200001N1+02611+02011101111ADDAA124003091AG10000GF106991051011008001071041KA1240N+01811MA1999999096191MD1999999-0111REMSYN023 333 20181 59011 60034;
0096832360999991996021418004-12150-045000FM-12+044099999V0200501N00151007501CN0200001N1+03231+02081100601ADDAA106000091AG10000GF106991051021008001061031MA1999999095741MD1999999-0151REMSYN011 333 59015;
0115832360999991996021512004-12150-045000FM-12+044099999V0200501N00101220001CN0500001N1+02741+01811101161ADDAA106000091AG10000GF104991011021012501001041KA1240N+01991MA1999999096321MD1999999+0131REMSYN017 333 20199 58013;
0096832360999991996021518004-12150-045000FM-12+044099999V0200501N00101220001CN0200001N1+03251+01631100761ADDAA106000091AG10000GF104991041021008001001001MA1999999095931MD1999999+0191REMSYN011 333 58019;
0115832360999991996021612004-12150-045000FM-12+044099999V0201401N00101220001CN0200001N1+02801+01781101101ADDAA106000091AG10000GF104991031021008001001011KA1240N+02051MA1999999096311MD1999999-0011REMSYN017 333 20205 59001;
0121832360999991996021712004-12150-045000FM-12+044099999V0201401N00101045001CN0200001N1+02661+01951101121ADDAA124003091AG10000GF106991041021008001081031KA1240N+01691MA1999999096201MD1999999-0111REMSYN023 333 20169 59011 60034;
0096832360999991996021718004-12150-045000FM-12+044099999V0200501N00151007501CN0200001N1+03211+01821100611ADDAA106000091AG10000GF106991051021008001071011MA1999999095741MD1999999-0271REMSYN011 333 59027;
0115832360999991996021812004-12150-045000FM-12+044099999V0203601N00101220001CN0500001N1+02631+01881100941ADDAA106000091AG10000GF102991011021012501001011KA1240N+01981MA1999999096061MD1999999-0141REMSYN017 333 20198 59014;
0115832360999991996021912004-12150-045000FM-12+044099999V0200501N00361220001CN0500001N1+02771+01971101021ADDAA106000091AG10000GF102991021021008001001001KA1240N+01961MA1999999096141MD1999999+0081REMSYN017 333 20196 58008;
0143832360999991996022012004-12150-045000FM-12+044099999V0203201N00101012001CN0100001N1+02341+02091101211ADDAA124003091AG10003AY161061AY261061GF108991061081008001071999KA1240N+02211MA1999999096291MD1999999+0151MW1031REMSYN023 333 20221 58015 60034;
0096832360999991996022018004-12150-045000FM-12+044099999V0200501N00411007501CN0200001N1+03091+02041100661ADDAA106000091AG10000GF106991051021008001061041MA1999999095811MD1999999+0071REMSYN011 333 58007;
0143832360999991996022112004-12150-045000FM-12+044099999V0202301N00151007501CN0100001N1+02591+02121100931ADDAA124000191AG10000AY151061AY251061GF108991071041008001071999KA1240N+02091MA1999999096051MD1999999-0241MW1031REMSYN023 333 20209 59024 69924;
0143832360999991996022118004-12150-045000FM-12+044099999V0209991C00001007501CN0100001N1+02221+99999100631ADDAA106001091AG10000AY151061AY251061GF108991999051008001081999MA1999999095741MD1999999-0071MW1151REMSYN017 333 59007 60011;EQDQ01+000082SCOTLC
0140832360999991996022212004-12150-045000FM-12+044099999V0200501N00151007501CN0200001N1+02521+02151101001ADDAA124001091AG10000GF108991999071008001041999KA1240N+02081MA1999999096191MD1999999+0141REMSYN023 333 20208 58014 60014;EQDQ01+000082SCOTLC
0096832360999991996022218004-12150-045000FM-12+044099999V0200501N00411007501CN0200001N1+03171+01921100611ADDAA106000091AG10000GF106991051021008001071031MA1999999095751MD1999999+0011REMSYN011 333 58001;
0115832360999991996022312004-12150-045000FM-12+044099999V0201801N00101007501CN0200001N1+02571+02041101211ADDAA106000091AG10000GF106991051021008001051041KA1240N+01921MA1999999096311MD1999999+0121REMSYN017 333 20192 58012;
0096832360999991996022318004-12150-045000FM-12+044099999V0201801N00151007501CN0200001N1+02681+02121100741ADDAA106000091AG10000GF107991061041008001071051MA1999999095841MD1999999+0091REMSYN011 333 58009;
0115832360999991996022418004-12150-045000FM-12+044099999V0201401N00101220001CN0500001N1+02681+02061101191ADDAA106000091AG10000GF104991021021012501001011KA1240N+02061MA1999999096301MD1999999-0011REMSYN017 333 20206 59001;
0115832360999991996022512004-12150-045000FM-12+044099999V0203601N00101220001CN0500001N1+02711+02131101071ADDAA106000091AG10000GF103991011011008001001041KA1240N+02101MA1999999096191MD1999999-0111REMSYN017 333 20210 59011;
0096832360999991996022518004-12150-045000FM-12+044099999V0201801N00101220001CN0200001N1+03451+02071100641ADDAA106000091AG10000GF104991041031008001001001MA1999999095821MD1999999-0041REMSYN011 333 59004;
0143832360999991996022612004-12150-045000FM-12+044099999V0200501N00151045001CN0200001N1+02731+02191101111ADDAA124000591AG10000AY151061AY251061GF105991031021008001041001KA1240N+02191MA1999999096221MD1999999+0031MW1021REMSYN023 333 20219 58003 69954;
0096832360999991996022618004-12150-045000FM-12+044099999V0200901N00261220001CN0200001N1+03371+01731100621ADDAA106000091AG10000GF105991031021008001001081MA1999999095801MD1999999-0021REMSYN011 333 59002;
0115832360999991996022712004-12150-045000FM-12+044099999V0203601N00311007501CN0100001N1+02651+02161101161ADDAA106000091AG10000GF107991071051008001001001KA1240N+02061MA1999999096271MD1999999+0051REMSYN017 333 20206 58005;
0096832360999991996022718004-12150-045000FM-12+044099999V0200901N00151220001CN0200001N1+03391+01751100651ADDAA106000091AG10000GF105991031021008001001041MA1999999095821MD1999999+0021REMSYN011 333 58002;
0115832360999991996022812004-12150-045000FM-12+044099999V0200501N00311220001CN0200001N1+02611+01921101041ADDAA106000091AG10000GF104991041021008001001001KA1240N+01981MA1999999096151MD1999999-0121REMSYN017 333 20198 59012;
0115832360999991996022912004-12150-045000FM-12+044099999V0200501N00261045001CN0200001N1+02691+02041100981ADDAA106000091AG10000GF105991031021008001061001KA1240N+02031MA1999999096111MD1999999-0041REMSYN017 333 20203 59004;
0096832360999991996022918004-12150-045000FM-12+044099999V0200501N00261220001CN0200001N1+03311+01801100611ADDAA106000091AG10000GF103991031021008001001001MA1999999095761MD1999999+0061REMSYN011 333 58006;
0115832360999991996030112004-12150-045000FM-12+044099999V0200501N00511012001CN0200001N1+02581+02121101121ADDAA106000091AG10000GF106991061081008001001001KA1240N+02051MA1999999096231MD1999999+0121REMSYN017 333 20205 58012;
0115832360999991996030113004-12150-045000FM-12+044099999V0200501N00511012001CN0200001N1+02581+02121101121ADDAA106000091AG10999GF106991061081008001001001KA1240N+02051MA1999999096231MD1999999+0121REMSYN017 333 20205 58012;
0096832360999991996030118004-12150-045000FM-12+044099999V0203601N00261105001CN0200001N1+03251+01961100581ADDAA106000091AG10000GF105991031021008001001021MA1999999095731MD1999999-0031REMSYN011 333 59003;
0115832360999991996030212004-12150-045000FM-12+044099999V0200901N00101045001CN0200001N1+02591+02081101151ADDAA106000091AG10000GF106991021021008001061081KA1240N+02101MA1999999096261MD1999999+0031REMSYN017 333 20210 58003;
0096832360999991996030218004-12150-045000FM-12+044099999V0201801N00211045001CN0100001N1+02871+02061100781ADDAA106000091AG10000GF107991021021008001021001MA1999999095901MD1999999+0171REMSYN011 333 58017;
0115832360999991996030312004-12150-045000FM-12+044099999V0209991C00001045001CN0200001N1+02501+02031101141ADDAA106000091AG10000GF105991031021008001061001KA1240N+02161MA1999999096241MD1999999-0021REMSYN017 333 20216 59002;
0096832360999991996030318004-12150-045000FM-12+044099999V0202701N00051045001CN0200001N1+02911+02041100641ADDAA106000091AG10000GF106991031021008001061041MA1999999095771MD1999999-0131REMSYN011 333 59013;
0115832360999991996030412004-12150-045000FM-12+044099999V0201401N00051045001CN0100001N1+02561+02111100941ADDAA106000091AG10000GF107991041081008001031001KA1240N+02251MA1999999096061MD1999999-0181REMSYN017 333 20225 59018;
0124832360999991996030418004-12150-045000FM-12+044099999V0203601N00151045001CN0100001N1+02431+02281100661ADDAA106001091AG10000AY151061AY251061GF108991031021008001021999MA1999999095751MD1999999-0021MW1021REMSYN017 333 59002 60011;
0143832360999991996030512004-12150-045000FM-12+044099999V0200501N00051045001CN0100001N1+02591+02171101031ADDAA124002091AG10000AY151061AY251061GF107991041021008001051001KA1240N+02311MA1999999096141MD1999999+0081MW1021REMSYN023 333 20231 58008 60024;
0132832360999991996030612004-12150-045000FM-12+044099999V0201801N00151105001CN0200001N1+02631+02101101191ADDAA106000091AA224002091AG10000GF106991041021008001001091KA1240N+02261MA1999999096301MD1999999+0161REMSYN023 333 20226 58016 60024;
0070832360999991996030712004-12150-045000FM-12+044099999V0202701N000519999999N0100001N1+02491+02191101111ADDAG10000GF106991999021008001061061MA1999999096211EQDQ01+000002SCOTLC
0115832360999991996030812004-12150-045000FM-12+044099999V0201801N00151220001CN0200001N1+02681+02161101071ADDAA106000091AG10000GF106991021011008001001061KA1240N+02291MA1999999096191MD1999999-0021REMSYN017 333 20229 59002;
0124832360999991996030818004-12150-045000FM-12+044099999V0203601N00211045001CN0100001N1+02631+02251100841ADDAA106000391AG10000AY151061AY251061GF107991041071008001021001MA1999999095941MD1999999+0111MW1951REMSYN017 333 58011 69931;
0121832360999991996030912004-12150-045000FM-12+044099999V0203601N00101045001CN0200001N1+02491+02111101371ADDAA124000391AG10000GF106991021011008001051001KA1240N+02151MA1999999096441MD1999999+0251REMSYN023 333 20215 58025 69934;
0124832360999991996030918004-12150-045000FM-12+044099999V0200901N00051045001CN0200001N1+02711+02241100891ADDAA106001091AG10003AY161061AY261061GF106991031021008001061001MA1999999095991MD1999999+0051MW1021REMSYN017 333 58005 60011;
0121832360999991996031012004-12150-045000FM-12+044099999V0209991C00001220001CN0500001N1+02691+02181101181ADDAA124001091AG10000GF103991021001022501031041KA1240N+02131MA1999999096301MD1999999-0141REMSYN023 333 20213 59014 60014;
0096832360999991996031018004-12150-045000FM-12+044099999V0200501N00361105001CN0200001N1+03191+02071100681ADDAA106000091AG10000GF106991031031008001001031MA1999999095851MD1999999-0141REMSYN011 333 59014;
0143832360999991996031112004-12150-045000FM-12+044099999V0201401N00101007501CN0020001N1+02131+02021101371ADDAA124032091AG10003AY161061AY261061GF108991071061008001071999KA1240N+02061MA1999999096371MD1999999+0071MW1101REMSYN023 333 20206 58007 60324;
0137832360999991996031212004-12150-045000FM-12+044099999V0203201N00151007501CN0100001N1+02411+02151101031ADDAA106000091AG10000AY121061AY221061GF108991071061008001041999KA1240N+02191MA1999999096131MD1999999-0241MW1151REMSYN017 333 20219 59024;
0124832360999991996031218004-12150-045000FM-12+044099999V0201401N00151007501CN0200001N1+03011+02241100491ADDAA106009091AG10003AY161061AY261061GF106991051061008001051041MA1999999095631MD1999999-0261MW1151REMSYN017 333 59026 60091;
0143832360999991996031312004-12150-045000FM-12+044099999V0209991C00001007501CN0200001N1+02351+02191101141ADDAA124013091AG10003AY161061AY261061GF106991051051008001071051KA1240N+02171MA1999999086211MD1999999+0081MW1151REMSYN023 333 20217 58008 60134;
0115832360999991996031318004-12150-045000FM-12+044099999V0200501N00211045001CN0200001N1+03151+02041100591ADDAA106000091AG10000GF105991041021008001081011MA1999999095742MD1999999+0111REMSYN011 333 58011;EQDQ01+095743APOSP 
0115832360999991996031412004-12150-045000FM-12+044099999V0209991C00001045001CN0200001N1+02531+02151101211ADDAA106000091AG10000GF105991041021008001061041KA1240N+02001MA1999999096321MD1999999+0111REMSYN017 333 20200 58011;
0096832360999991996031418004-12150-045000FM-12+044099999V0203601N00151007501CN0200001N1+03171+01961100791ADDAA106000091AG10000GF106991051021008001071031MA1999999095931MD1999999+0191REMSYN011 333 58019;
0115832360999991996031512004-12150-045000FM-12+044099999V0203201N00101220001CN0500001N1+02601+02101101151ADDAA106000091AG10000GF103991021021008001001031KA1240N+01971MA1999999096241MD1999999-0081REMSYN017 333 20197 59008;
0096832360999991996031518004-12150-045000FM-12+044099999V0200501N00211007501CN0200001N1+03211+01991100761ADDAA106000091AG10000GF105991051021008001051041MA1999999095901MD1999999-0031REMSYN011 333 59003;
0115832360999991996031612004-12150-045000FM-12+044099999V0200501N00101220001CN0200001N1+02591+02101101021ADDAA106000091AG10000GF103991021021012501001011KA1240N+01991MA1999999096121MD1999999-0121REMSYN017 333 20199 59012;
0115832360999991996031618004-12150-045000FM-12+044099999V0200501N001519999999N0200001N1+03301+02091100481ADDAA106000091AG10000GF105991999051008001001001MA1999999095631MD1999999-0271REMSYN011 333 59027;EQDQ01+000022SCOTLC
0115832360999991996031712004-12150-045000FM-12+044099999V0201401N00101045001CN0500001N1+02771+02091100971ADDAA106000091AG10000GF105991041021008001071011KA1240N+01951MA1999999096101MD1999999-0021REMSYN017 333 20195 59002;
0096832360999991996031718004-12150-045000FM-12+044099999V0200501N00211045001CN0200001N1+03231+01911100491ADDAA106000091AG10000GF106991041021008001081041MA1999999096321MD1999999+0001REMSYN011 333 58000;
0115832360999991996031812004-12150-045000FM-12+044099999V0209991C00001007501CN0200001N1+02541+02131101141ADDAA106000091AG10000GF107991061021008001081041KA1240N+02111MA1999999096241MD1999999+0141REMSYN017 333 20211 58014;
0096832360999991996031818004-12150-045000FM-12+044099999V0200501N00211007501CN0200001N1+03121+02081100631ADDAA106000091AG10000GF108991071021008001081999MA1999999095781MD1999999+0151REMSYN011 333 58015;
0143832360999991996031912004-12150-045000FM-12+044099999V0200501N00101007501CN0200001N1+02751+02211101181ADDAA124000191AG10000AY151061AY251061GF106991051071008001041031KA1240N+02241MA1999999096291MD1999999+0051MW1031REMSYN023 333 20224 58005 69924;
0096832360999991996031918004-12150-045000FM-12+044099999V0200501N00151220001CN0200001N1+03141+02001100691ADDAA106000091AG10000GF105991031021008001001041MA1999999095861MD1999999+0081REMSYN011 333 58008;
0096832360999991996032018004-12150-045000FM-12+044099999V0200501N00411105001CN0200001N1+03311+01801100631ADDAA106000091AG10000GF105991031021008001001031MA1999999095761MD1999999-0101REMSYN011 333 59010;
0143832360999991996032112004-12150-045000FM-12+044099999V0200501N00101012001CN0100001N1+02351+02111101131ADDAA124008091AG10003AY161061AY261061GF108991061081008001071999KA1240N+02071MA1999999096221MD1999999-0011MW1101REMSYN023 333 20207 59001 60084;
0096832360999991996032118004-12150-045000FM-12+044099999V0200501N00151007501CN0200001N1+02961+02261100651ADDAA106000091AG10000GF108991071041008001081999MA1999999095781MD1999999+0021REMSYN011 333 58002;
0143832360999991996032212004-12150-045000FM-12+044099999V0201801N00151045001CN0200001N1+02711+01911101101ADDAA124000191AG10000AY151061AY251061GF105991041021008001061051KA1240N+02131MA1999999096211MD1999999-0011MW1021REMSYN023 333 20213 59001 69924;
0124832360999991996032218004-12150-045000FM-12+044099999V0200501N00101007501CN0200001N1+03251+02061100661ADDAA106002091AG10003AY161061AY261061GF106991051051008001071031MA1999999095811MD1999999+0031MW1151REMSYN017 333 58003 60021;
0143832360999991996032312004-12150-045000FM-12+044099999V0200501N00101007501CN0200001N1+02471+02131101261ADDAA124010091AG10003AY161061AY261061GF108991071021008001061999KA1240N+02091MA1999999096351MD1999999+0141MW1101REMSYN023 333 20209 58014 60104;
0115832360999991996032412004-12150-045000FM-12+044099999V0201401N00101007501CN0200001N1+02491+02111101091ADDAA106000091AG10000GF106991051021008001051041KA1240N+01991MA1999999096191MD1999999-0171REMSYN017 333 20199 59017;
0096832360999991996032418004-12150-045000FM-12+044099999V0200501N00151045001CN0200001N1+03231+02051100571ADDAA106000091AG10000GF105991041021008001061031MA1999999095721MD1999999-0041REMSYN011 333 59004;
0115832360999991996032512004-12150-045000FM-12+044099999V0200501N00101045001CN0200001N1+02721+02281101011ADDAA106000091AG10000GF106991041021008001081041KA1240N+02011MA1999999096131MD1999999-0061REMSYN017 333 20201 59006;
0124832360999991996032518004-12150-045000FM-12+044099999V0201801N000519999999N0100001N1+02911+02171100521ADDAA106000391AG10000AY151061AY251061GF107991999999008001999999MA1999999095651MD1999999-0071MW1151REMSYN017 333 59007 69931;
0124832360999991996032618004-12150-045000FM-12+044099999V0203601N00151012001CN0200001N1+02701+02301100701ADDAA106000591AG10000AY151061AY251061GF106991061081008001001001MA1999999095811MD1999999+0161MW1021REMSYN017 333 58016 69951;
0143832360999991996032712004-12150-045000FM-12+044099999V0203601N00101220001CN0200001N1+02571+02151101271ADDAA124010091AG10003AY161061AY261061GF104991041021008001001001KA1240N+02211MA1999999096361MD1999999+0191MW1021REMSYN023 333 20221 58019 60104;
0096832360999991996032718004-12150-045000FM-12+044099999V0200501N00211220001CN0200001N1+03051+02181100861ADDAA106000091AG10000GF104991031021008001001041MA1999999095991MD1999999+0181REMSYN011 333 58018;
0115832360999991996032812004-12150-045000FM-12+044099999V0200901N00051220001CN0200001N1+02551+02111101361ADDAA106000091AG10000GF104991041021008001001001KA1240N+02081MA1999999096451MD1999999+0091REMSYN017 333 20208 58009;
0096832360999991996032818004-12150-045000FM-12+044099999V0203601N00261220001CN0200001N1+03171+01921100891ADDAA106000091AG10000GF104991041021008001001001MA1999999095991MD1999999+0001REMSYN011 333 58000;
0115832360999991996032912004-12150-045000FM-12+044099999V0200501N00211220001CN0500001N1+02571+02131101271ADDAA106000091AG10000GF102991021011008001001001KA1240N+02041MA1999999096371MD1999999-0081REMSYN017 333 20204 59008;
0115832360999991996033112004-12150-045000FM-12+044099999V0200501N00411220001CN0200001N1+02621+02181101121ADDAA106000091AG10000GF105991041021008001001041KA1240N+02191MA1999999096231MD1999999-0011REMSYN017 333 20219 59001;
0096832360999991996033118004-12150-045000FM-12+044099999V0200501N00101220001CN0200001N1+03171+02081100641ADDAA106000091AG10000GF106991041081008001001041MA1999999095791MD1999999-0051REMSYN011 333 59005;
0143832360999991996040112004-12150-045000FM-12+044099999V0200501N00101012001CN0100001N1+02361+02191101411ADDAA124007091AG10003AY161061AY261061GF107991071081008001001001KA1240N+02161MA1999999096451MD1999999+0221MW1021REMSYN023 333 20216 58022 60074;
0143832360999991996040212004-12150-045000FM-12+044099999V0201801N00101045001CN0100001N1+02531+02231101251ADDAA124002091AG10003AY161061AY261061GF107991031021008001071001KA1240N+01791MA1999999096351MD1999999-0101MW1021REMSYN023 333 20179 59010 60024;
0096832360999991996040218004-12150-045000FM-12+044099999V0201401N00211220001CN0200001N1+03241+01861100651ADDAA106000091AG10000GF104991021021008001001051MA1999999095831MD1999999-0111REMSYN011 333 59011;
0115832360999991996040412004-12150-045000FM-12+044099999V0203601N00051220001CN0500001N1+02711+01991101111ADDAA106000091AG10000GF102991011011008001041001KA1240N+02231MA1999999096231MD1999999-0011REMSYN017 333 20223 59001;
0148832360999991996040512004-12150-045000FM-12+044099999V0201801N00051220001CN0500001N1+02571+02021101081ADDAA124004091AG10003AY161061AY261061GF103991021011008001041001IA1119IA2999+02109MA1999999096181MD1999999-0051MW1021REMSYN023 333 32021 59005 60044;
0143832360999991996040612004-12150-045000FM-12+044099999V0203601N00211220001CN0200001N1+02651+02001101071ADDAA124000191AG10000AY151061AY251061GF104991021001022501041021KA1240N+02151MA1999999098181MD1999999+0001MW1021REMSYN023 333 20215 58000 69924;
0115832360999991996040618004-12150-045000FM-12+044099999V0200501N00151220001CN0500001N1+03301+01681100541ADDAA106000091AG10000GF103991031011008001001001MA1999999095722MD1999999-0011REMSYN011 333 59001;EQDQ01+095723APOSP 
0096832360999991996040718004-12150-045000FM-12+044099999V0201801N00101220001CN0200001N1+03291+01891100651ADDAA106000091AG10000GF105991031021008001001041MA1999999095791MD1999999+0071REMSYN011 333 58007;
0143832360999991996040812004-12150-045000FM-12+044099999V0202301N00101007501CN0100001N1+02471+02131101201ADDAA124004091AG10003AY161061AY261061GF107991071051008001001001KA1240N+02051MA1999999096291MD1999999+0021MW1151REMSYN023 333 20205 58002 60044;
0124832360999991996040818004-12150-045000FM-12+044099999V0202701N00051045001CN0100001N1+02681+02131100881ADDAA106002091AG10003AY161061AY261061GF108991031051008001011999MA1999999095971MD1999999+0181MW1021REMSYN017 333 58018 60021;
0121832360999991996040912004-12150-045000FM-12+044099999V0200501N000510450019N0100001N1+02391+02211101371ADDAA124003091AG10000GF108991031021008001021999KA1240N+02251MA1999999096441MD1999999+0151REMSYN023 333 20225 58015 60034;
0124832360999991996040918004-12150-045000FM-12+044099999V0201801N00261045001CN0200001N1+03041+02181100881ADDAA106000191AG10000AY151061AY251061GF106991041091008001041001MA1999999096011MD1999999+0041MW1151REMSYN017 333 58004 69911;
0121832360999991996041012004-12150-045000FM-12+044099999V0201801N00101007501CN0200001N1+02621+02101101271ADDAA124000591AG10000GF106991051041008001071051KA1240N+02041MA1999999096351MD1999999-0091REMSYN023 333 20204 59009 69964;
0118832360999991996041018004-12150-045000FM-12+044099999V0202701N00151007501CN0200001N1+03291+02001100621ADDAA106000091AG10000AY121061AY221061GF106991061051008001001001MA1999999095771MD1999999-0241MW1151REMSYN011 333 59024;
0073832360999991996041112004-12150-045000FM-12+044099999V0209991C00001012001CN0040001N1+02191+02031101321ADDAG10003AY161061AY261061GF108991071081008001041999MA1999999096361MW1501
0102832360999991996041118004-12150-045000FM-12+044099999V0200501N00101007501CN0200001N1+02871+02061100741ADDAA106000191AG10000GF106991051021008001051041MA1999999095871MD1999999+0101REMSYN017 333 58010 69921;
0121832360999991996041212004-12150-045000FM-12+044099999V0209991C00001045001CN0200001N1+02431+02151101141ADDAA124000191AG10000GF106991041021008001061041KA1240N+01891MA1999999096211MD1999999-0151REMSYN023 333 20189 59015 69924;
0124832360999991996041218004-12150-045000FM-12+044099999V0200501N00151045001CN0200001N1+02711+01961100641ADDAA106021091AG10003AY161061AY261061GF105991041061008001041021MA1999999095741MD1999999-0131MW1151REMSYN017 333 59013 60211;
0143832360999991996041312004-12150-045000FM-12+044099999V0200501N00101007501CN0100001N1+02381+02151101171ADDAA124022091AG10000AY151061AY251061GF108991061091008001041999KA1240N+01991MA1999999096231MD1999999+0021MW1101REMSYN023 333 20199 58002 60224;
0124832360999991996041318004-12150-045000FM-12+044099999V0200901N00151105001CN0200001N1+02771+02121100681ADDAA106003091AG10003AY161061AY251061GF105991031021008001001031MA1999999095781MD1999999+0041MW1021REMSYN017 333 58004 60031;
0096832360999991996041418004-12150-045000FM-12+044099999V0200501N00151007501CN0200001N1+02941+02041100671ADDAA106000091AG10000GF108991071051008001071999MA1999999095791MD1999999+0011REMSYN011 333 58001;
0096832360999991996041518004-12150-045000FM-12+044099999V0200501N00151007501CN0200001N1+03031+01861100771ADDAA106000091AG10000GF106991051021008001071051MA1999999095901MD1999999+0111REMSYN011 333 58011;
0115832360999991996041612004-12150-045000FM-12+044099999V0203601N00411007501CN0200001N1+02531+02051101291ADDAA106000091AG10000GF107991051021008001081011KA1240N+02001MA1999999096361MD1999999-0021REMSYN017 333 20200 59002;
0115832360999991996041618004-12150-045000FM-12+044099999V0209991C000019999999N0200001N1+02821+02331100991ADDAA106000091AG10000GF105991051001012501031001MA1999999094322MD1999999+0081REMSYN011 333 58008;EQDQ01+094323APOSP 
0115832360999991996041712004-12150-045000FM-12+044099999V0202301N00101220001CN0200001N1+02541+02151101111ADDAA106000091AG10000GF105991041021008001001041KA1240N+01971MA1999999096201MD1999999-0161REMSYN017 333 20197 59016;
0096832360999991996041718004-12150-045000FM-12+044099999V0203601N00151007501CN0200001N1+03271+01951100531ADDAA106000091AG10000GF106991051031008001071051MA1999999095691MD1999999-0171REMSYN011 333 59017;
0115832360999991996041812004-12150-045000FM-12+044099999V0202701N00101220001CN0500001N1+02611+02211101031ADDAA106000091AG10000GF104991021021008001051011KA1240N+01981MA1999999096141MD1999999-0061REMSYN017 333 20198 59006;
0118832360999991996041818004-12150-045000FM-12+044099999V0203601N00101007501CN0200001N1+03041+02281100671ADDAA106000091AG10000AY121061AY221061GF108991071051008001071999MA1999999095801MD1999999+0111MW1171REMSYN011 333 58011;
0115832360999991996041912004-12150-045000FM-12+044099999V0203601N00101012001CN0200001N1+02431+02111101181ADDAA106000091AG10000GF108991071081008001051999KA1240N+02011MA1999999096251MD1999999+0111REMSYN017 333 20201 58011;
0096832360999991996041918004-12150-045000FM-12+044099999V0203601N00151045001CN0200001N1+03041+02031100741ADDAA106000091AG10000GF105991041021008001071041MA1999999095871MD1999999+0071REMSYN011 333 58007;
0143832360999991996042012004-12150-045000FM-12+044099999V0201801N00101007501CN0200001N1+02521+02051101331ADDAA124005091AG10003AY161061AY261061GF107991061021008001071041KA1240N+02111MA1999999096401MD1999999+0151MW1031REMSYN023 333 20211 58015 60054;
0124832360999991996042018004-12150-045000FM-12+044099999V0203601N00151007501CN0200001N1+02471+02131100961ADDAA106001091AG10003AY161061AY261061GF108991071071008001061999MA1999999096021MD1999999+0151MW1151REMSYN017 333 58015 60011;
0121832360999991996042112004-12150-045000FM-12+044099999V0200901N00151220001CN0500001N1+02451+01831101421ADDAA124001091AG10000GF104991021021012501001041KA1240N+01891MA1999999096471MD1999999+0071REMSYN023 333 20189 58007 60014;
0118832360999991996042118004-12150-045000FM-12+044099999V0201801N00101007501CN0200001N1+02901+01991100951ADDAA106000091AG10000AY121061AY221061GF106991051061008001071041MA1999999096051MD1999999+0031MW1151REMSYN011 333 58003;
0096832360999991996042218004-12150-045000FM-12+044099999V0202301N00101007501CN0200001N1+03031+01621101051ADDAA106000091AG10000GF106991061021008001071001MA1999999096151MD1999999+0101REMSYN011 333 58010;
0131832360999991996042312004-12150-045000FM-12+044099999V0202301N00101220001CN0500001N1+02231+01461101541ADDAA106000091AG10000GA1001+999999999GF100991001001999999001001KA1240N+01521MA1999999096571MD1999999+0071REMSYN017 333 20152 58007;
0096832360999991996042318004-12150-045000FM-12+044099999V0201801N00151220001CN0500001N1+03191+01531100981ADDAA106000091AG10000GF102991021021008001001001MA1999999096071MD1999999-0081REMSYN011 333 59008;
0131832360999991996042412004-12150-045000FM-12+044099999V0202701N00101220001CN0500001N1+02351+01521101461ADDAA106000091AG10000GA1001+999999999GF100991001001999999001001KA1240N+01561MA1999999096501MD1999999-0071REMSYN017 333 20156 59007;
0096832360999991996042418004-12150-045000FM-12+044099999V0203601N00151220001CN0200001N1+03221+01731100931ADDAA106000091AG10000GF104991041021008001001001MA1999999096031MD1999999-0041REMSYN011 333 59004;
0115832360999991996042512004-12150-045000FM-12+044099999V0200501N00101220001CN0500001N1+02621+01961101301ADDAA106000091AG10000GF103991001001999999001041KA1240N+01581MA1999999096391MD1999999-0111REMSYN017 333 20158 59011;
0096832360999991996042518004-12150-045000FM-12+044099999V0203601N00151220001CN0200001N1+03271+01911100811ADDAA106000091AG10000GF104991041021008001001001MA1999999095981MD1999999-0051REMSYN011 333 59005;
0115832360999991996042712004-12150-045000FM-12+044099999V0200501N00211220001CN0200001N1+02541+02021101271ADDAA106000091AG10000GF104991031021008001001041KA1240N+01971MA1999999096351MD1999999+0061REMSYN017 333 20197 58006;
0096832360999991996042718004-12150-045000FM-12+044099999V0200901N00261045001CN0200001N1+03071+01801100811ADDAA106000091AG10000GF106991031021008001071001MA1999999095931MD1999999+0031REMSYN011 333 58003;
0115832360999991996042812004-12150-045000FM-12+044099999V0201801N00101220001CN0500001N1+02621+01731101351ADDAA106000091AG10000GF101991011011008001001001KA1240N+02011MA1999999096441MD1999999+0091REMSYN017 333 20201 58009;
0134832360999991996043012004-12150-045000FM-12+044099999V0203201N00101007501CN0200001N1+02611+01631101431ADDAA106000091AG10000GF106991999051008001001001KA1240N+02081MA1999999096501MD1999999-0031REMSYN017 333 20208 59003;EQDQ01+000052SCOTLC
0096832360999991996043018004-12150-045000FM-12+044099999V0201401N00211045001CN0200001N1+03071+01731100991ADDAA106000091AG10000GF108991031081008001071999MA1999999096131MD1999999-0061REMSYN011 333 59006;
0115832360999991996050112004-12150-045000FM-12+044099999V0201401N00151021001CN0200001N1+02611+01791101331ADDAA106000091AG10000GF107991071001022501071001KA1240N+02331MA1999999096431MD1999999-0071REMSYN017 333 20233 59007;
0115832360999991996050212004-12150-045000FM-12+044099999V0201401N00101220001CN0200001N1+02621+01961101231ADDAA106000091AG10000GF104991031021008001001011KA1240N+02151MA1999999096341MD1999999-0091REMSYN017 333 20215 59009;
0096832360999991996050218004-12150-045000FM-12+044099999V0203601N00261012001CN0200001N1+03231+01841100791ADDAA106000091AG10000GF105991051081008001001001MA1999999095941MD1999999-0031REMSYN011 333 59003;
0115832360999991996050312004-12150-045000FM-12+044099999V0203601N00361045001CN0200001N1+02571+02021101231ADDAA106000091AG10000GF106991031021008001031001KA1240N+02091MA1999999096331MD1999999-0011REMSYN017 333 20209 59001;
0096832360999991996050318004-12150-045000FM-12+044099999V0203601N00151105001CN0200001N1+03201+01931100781ADDAA106000091AG10000GF106991031021008001001021MA1999999095911MD1999999-0031REMSYN011 333 59003;
0115832360999991996050412004-12150-045000FM-12+044099999V0200501N00101007501CN0200001N1+02621+02071101221ADDAA106000091AG10000GF106991061021008001001001KA1240N+02201MA1999999096331MD1999999+0001REMSYN017 333 20220 58000;
0096832360999991996050418004-12150-045000FM-12+044099999V0203201N00101045001CN0200001N1+03201+02031100721ADDAA106000091AG10000GF106991041021008001041001MA1999999095891MD1999999-0021REMSYN011 333 59002;
0115832360999991996050612004-12150-045000FM-12+044099999V0200901N00261220001CN0200001N1+02491+02051101481ADDAA106000091AG10000GF106991041021008001001041KA1240N+02051MA1999999096461MD1999999+0121REMSYN017 333 20205 58012;
0162832360999991996050712004-12150-045000FM-12+044099999V0201801N00051220001CN0500001N1+02331+01741101421ADDAA124002091AG10002AY161061AY261061GF102991001001999999001011KA1240N+01891MA1999999096461MD1999999+0001MW1021REMSYN023 333 20189 58000 60024;EQDQ01+000952SCOLCB
0096832360999991996050718004-12150-045000FM-12+044099999V0201801N00211220001CN0500001N1+03211+01421100871ADDAA106000091AG10000GF104991041021008001001001MA1999999095991MD1999999-0141REMSYN011 333 59014;
0115832360999991996050812004-12150-045000FM-12+044099999V0202701N00101220001CN0500001N1+02251+01151101511ADDAA106000091AG10000GF103991001001999999001051KA1240N+01571MA1999999096571MD1999999+0111REMSYN017 333 20157 58011;
0096832360999991996050818004-12150-045000FM-12+044099999V0202301N00211105001CN0500001N1+03191+01161100991ADDAA106000091AG10000GF105991021011008001001051MA1999999096081MD1999999+0091REMSYN011 333 58009;
0115832360999991996050912004-12150-045000FM-12+044099999V0202701N00101220001CN0500001N1+02091+01251101461ADDAA106000091AG10000GF103991001001999999001051KA1240N+01281MA1999999096481MD1999999-0091REMSYN017 333 20128 59009;
0096832360999991996050918004-12150-045000FM-12+044099999V0203601N00101220001CN0500001N1+03161+01341100961ADDAA106000091AG10000GF102991021021008001001001MA1999999096031MD1999999-0051REMSYN011 333 59005;
0115832360999991996051012004-12150-045000FM-12+044099999V0203601N00101220001CN0500001N1+02231+01381101381ADDAA106000091AG10000GF104991001001999999001041KA1240N+01271MA1999999096371MD1999999-0111REMSYN017 333 20127 59011;
0096832360999991996051018004-12150-045000FM-12+044099999V0202701N00101220001CN0500001N1+03261+01001100911ADDAA106000091AG10000GF104991021021012501001051MA1999999095991MD1999999-0041REMSYN011 333 59004;
0115832360999991996051112004-12150-045000FM-12+044099999V0203601N00101105001CN0200001N1+02151+01481101351ADDAA106000091AG10000GF105991031001022501071051KA1240N+01291MA1999999096341MD1999999-0031REMSYN017 333 20129 59003;
0096832360999991996051118004-12150-045000FM-12+044099999V0200901N00151007501CN0200001N1+03231+01391100761ADDAA106000091AG10000GF106991051021008001061041MA1999999095891MD1999999-0101REMSYN011 333 59010;
0115832360999991996051212004-12150-045000FM-12+044099999V0202301N00101220001CN0200001N1+02201+01671101481ADDAA106000091AG10000GF104991041021008001001001KA1240N+01671MA1999999096521MD1999999+0181REMSYN017 333 20167 58018;
0115832360999991996051312004-12150-045000FM-12+044099999V0203601N00151220001CN0500001N1+02691+01811101571ADDAA106000091AG10000GF103991001001999999001041KA1240N+02061MA1999999096651MD1999999+0131REMSYN017 333 20206 58013;
0096832360999991996051318004-12150-045000FM-12+044099999V0200901N00101007501CN0200001N1+03291+01661100901ADDAA106000091AG10000GF106991051021008001051041MA1999999096061MD1999999-0111REMSYN011 333 59011;
0115832360999991996051412004-12150-045000FM-12+044099999V0200901N00101220001CN0500001N1+02421+01671101471ADDAA106000091AG10000GF103991001001999999001041KA1240N+01641MA1999999096531MD1999999-0121REMSYN017 333 20164 59012;
0096832360999991996051418004-12150-045000FM-12+044099999V0200901N00101220001CN0500001N1+03351+01351100861ADDAA106000091AG10000GF104991021021008001001051MA1999999095981MD1999999-0081REMSYN011 333 59008;
0115832360999991996051512004-12150-045000FM-12+044099999V0203201N00101220001CN0200001N1+02301+01611101321ADDAA106000091AG10000GF106991031001022501081041KA1240N+01481MA1999999096271MD1999999-0261REMSYN017 333 20148 59026;
0096832360999991996051518004-12150-045000FM-12+044099999V0203601N00151007501CN0200001N1+03301+01461100701ADDAA106000091AG10000GF106991051021008001071051MA1999999095811MD1999999-0171REMSYN011 333 59017;
0131832360999991996051612004-12150-045000FM-12+044099999V0202301N00101220001CN0500001N1+02431+01741101151ADDAA106000091AG10000GA1001+999999999GF100991001001999999001001KA1240N+01591MA1999999096211MD1999999-0061REMSYN017 333 20159 59006;
0096832360999991996051618004-12150-045000FM-12+044099999V0200501N00151220001CN0500001N1+03411+01451100591ADDAA106000091AG10000GF103991031021008001001001MA1999999095731MD1999999-0081REMSYN011 333 59008;
0096832360999991996051718004-12150-045000FM-12+044099999V0203601N00101007501CN0200001N1+03431+01651100821ADDAA106000091AG10000GF105991051021008001001001MA1999999095951MD1999999+0221REMSYN011 333 58022;
0131832360999991996051812004-12150-045000FM-12+044099999V0200901N00101220001CN0500001N1+02651+01881101531ADDAA106000091AG10000GA1001+999999999GF100991001001999999001001KA1240N+01891MA1999999096601MD1999999+0161REMSYN017 333 20189 58016;
0096832360999991996051818004-12150-045000FM-12+044099999V0200501N00151007501CN0200001N1+03371+01651101041ADDAA106000091AG10000GF105991051021008001001001MA1999999096161MD1999999+0211REMSYN011 333 58021;
0115832360999991996051912004-12150-045000FM-12+044099999V0200901N00101220001CN0500001N1+02621+01931101341ADDAA106000091AG10000GF103991001001999999001051KA1240N+01791MA1999999096421MD1999999-0181REMSYN017 333 20179 59018;
0096832360999991996051918004-12150-045000FM-12+044099999V0200501N00101105001CN0200001N1+03441+01761100821ADDAA106000091AG10000GF105991041021008001001051MA1999999095951MD1999999-0211REMSYN011 333 59021;
0115832360999991996052012004-12150-045000FM-12+044099999V0200501N00101045001CN0200001N1+02741+02071101191ADDAA106000091AG10000GF106991041021008001071041KA1240N+01991MA1999999096301MD1999999-0121REMSYN017 333 20199 59012;
0096832360999991996052018004-12150-045000FM-12+044099999V0200501N00151007501CN0200001N1+03371+01851100681ADDAA106000091AG10000GF106991051021008001001051MA1999999095851MD1999999-0101REMSYN011 333 59010;
0143832360999991996052112004-12150-045000FM-12+044099999V0203601N00101007501CN0020001N1+02521+02121101421ADDAA124007091AG10002AY161061AY261061GF108991061061008001051999KA1240N+02071MA1999999096471MD1999999+0171MW1101REMSYN023 333 20207 58017 60074;
0096832360999991996052118004-12150-045000FM-12+044099999V0203201N00101007501CN0200001N1+02951+02161100981ADDAA106000091AG10000GF106991051051008001061051MA1999999096101MD1999999+0251REMSYN011 333 58025;
0143832360999991996052212004-12150-045000FM-12+044099999V0203201N00101007501CN0200001N1+02561+02271101411ADDAA124001091AG10002AY161061AY251061GF106991051021008001051041KA1240N+02091MA1999999096481MD1999999+0011MW1031REMSYN023 333 20209 58001 60014;
0096832360999991996052218004-12150-045000FM-12+044099999V0203601N00101007501CN0200001N1+03291+01861100881ADDAA106000091AG10000GF106991051021008001001051MA1999999096021MD1999999-0081REMSYN011 333 59008;
0096832360999991996052318004-12150-045000FM-12+044099999V0203201N00151007501CN0200001N1+02611+02011101151ADDAA106000091AG10000GF106991051071008001051031MA1999999096231MD1999999+0211REMSYN011 333 58021;
0115832360999991996052412004-12150-045000FM-12+044099999V0200501N00101220001CN0500001N1+02351+01981101271ADDAA106000091AG10000GF103991001001999999001041KA1240N+01791MA1999999096321MD1999999-0221REMSYN017 333 20179 59022;
0096832360999991996052418004-12150-045000FM-12+044099999V0200501N00151105001CN0200001N1+03331+01791100721ADDAA106000091AG10000GF105991041021008001001051MA1999999095851MD1999999-0381REMSYN011 333 59038;
0134832360999991996052512004-12150-045000FM-12+044099999V0200501N00211220001CN0200001N1+02571+01991101371ADDAA106000091AG10000GF104991041021008001001001KA1240N+01981MA1999999096431MD1999999+0111REMSYN017 333 20198 58011;EQDQ01+999990APOSLP
0118832360999991996052518004-12150-045000FM-12+044099999V0200901N00361007501CN0200001N1+02731+02001101041ADDAA106000091AG10000AY101061AY221061GF107991071071008001001001MA1999999096121MD1999999+0071MW1151REMSYN011 333 58007;
0115832360999991996052712004-12150-045000FM-12+044099999V0201801N00151220001CN0500001N1+02111+01421101721ADDAA106000091AG10000GF102991001001999999001041KA1240N+01451MA1999999096711MD1999999+0101REMSYN017 333 20145 58010;
0096832360999991996052718004-12150-045000FM-12+044099999V0201401N00101220001CN0500001N1+03071+01051101221ADDAA106000091AG10000GF103991031011008001001001MA1999999096771MD1999999-0121REMSYN011 333 59012;
0115832360999991996052812004-12150-045000FM-12+044099999V0201801N00151220001CN0500001N1+02051+01241101681ADDAA106000091AG10000GF102991001001999999001011KA1240N+01361MA1999999096651MD1999999-0061REMSYN017 333 20136 59006;
0096832360999991996052818004-12150-045000FM-12+044099999V0201401N00211220001CN0500001N1+03071+01151101141ADDAA106000091AG10000GF102991011011008001001011MA1999999096201MD1999999-0071REMSYN011 333 59007;
0115832360999991996052912004-12150-045000FM-12+044099999V0202701N00101220001CN0500001N1+02031+01321101541ADDAA106000091AG10000GF102991001001999999001081KA1240N+01411MA1999999096541MD1999999-0111REMSYN017 333 20141 59011;
0096832360999991996052918004-12150-045000FM-12+044099999V0200901N00211220001CN0500001N1+03111+01501101091ADDAA106000091AG10000GF103991011011008001001071MA1999999096151MD1999999-0051REMSYN011 333 59005;
0115832360999991996053012004-12150-045000FM-12+044099999V0203601N00151220001CN0500001N1+02321+01531101451ADDAA106000091AG10000GF104991011001022501041051KA1240N+01791MA1999999096491MD1999999-0051REMSYN017 333 20179 59005;
0115832360999991996053112004-12150-045000FM-12+044099999V0200501N00211105001CN0200001N1+02421+01721101541ADDAA106000091AG10000GF105991011011008001001051KA1240N+01881MA1999999096601MD1999999+0111REMSYN017 333 20188 58011;
0096832360999991996053118004-12150-045000FM-12+044099999V0200501N00151105001CN0200001N1+03221+01611101031ADDAA106000091AG10000GF105991041021008001001051MA1999999096151MD1999999-0011REMSYN011 333 59001;
0131832360999991996060112004-12150-045000FM-12+044099999V0202301N00101220001CN0500001N1+02251+01351101631ADDAA106000091AG10000GA1001+999999999GF100991001001999999001001KA1240N+01661MA1999999096681MD1999999+0081REMSYN017 333 20166 58008;
0096832360999991996060118004-12150-045000FM-12+044099999V0201801N00261220001CN0500001N1+03241+01261101081ADDAA106000091AG10000GF103991031011008001001001MA1999999096191MD1999999+0041REMSYN011 333 58004;
0115832360999991996060212004-12150-045000FM-12+044099999V0202301N00151220001CN0500001N1+02171+01271101501ADDAA106000091AG10000GF103991001001999999001071KA1240N+01481MA1999999096531MD1999999-0151REMSYN017 333 20148 59015;
0096832360999991996060218004-12150-045000FM-12+044099999V0201801N00261220001CN0500001N1+03311+01041100901ADDAA106000091AG10000GF103991001001999999001051MA1999999096001MD1999999-0191REMSYN011 333 59019;
0115832360999991996060312004-12150-045000FM-12+044099999V0202301N00151220001CN0500001N1+02131+01101101561ADDAA106000091AG10000GF104991001001999999001051KA1240N+01371MA1999999096571MD1999999+0041REMSYN017 333 20137 58004;
0115832360999991996060412004-12150-045000FM-12+044099999V0201801N00151220001CN0500001N1+02211+01391101711ADDAA106000091AG10000GF102991001001999999001011KA1240N+01551MA1999999096731MD1999999+0161REMSYN017 333 20155 58016;
0115832360999991996060512004-12150-045000FM-12+044099999V0201801N00211220001CN0500001N1+02171+01321101841ADDAA106000091AG10000GF102991021001022501081001KA1240N+01631MA1999999096851MD1999999+0121REMSYN017 333 20163 58012;
0096832360999991996060518004-12150-045000FM-12+044099999V0200901N00211007501CN0200001N1+03041+01451101341ADDAA106000091AG10000GF107991071051008001001001MA1999999096461MD1999999+0111REMSYN011 333 58011;
0115832360999991996060612004-12150-045000FM-12+044099999V0200901N00151012001CN0200001N1+02531+01581101751ADDAA106000091AG10000GF106991061081008001051001KA1240N+01911MA1999999096811MD1999999-0041REMSYN017 333 20191 59004;
0096832360999991996060618004-12150-045000FM-12+044099999V0200501N00101007501CN0100001N1+02491+01551101331ADDAA106000091AG10000GF108991071041008001061999MA1999999096411MD1999999-0031REMSYN011 333 59003;
0115832360999991996060712004-12150-045000FM-12+044099999V0200501N00101220001CN0200001N1+02471+01731101641ADDAA106000091AG10000GF104991011011008001061021KA1240N+01891MA1999999096711MD1999999-0101REMSYN017 333 20189 59010;
0115832360999991996060812004-12150-045000FM-12+044099999V0201801N00151220001CN0500001N1+02221+01511101771ADDAA106000091AG10000GF103991031001022501031001KA1240N+01561MA1999999096781MD1999999+0071REMSYN017 333 20156 58007;
0096832360999991996060818004-12150-045000FM-12+044099999V0201401N00261220001CN0200001N1+03301+01261101271ADDAA106000091AG10000GF104991041021008001001001MA1999999096361MD1999999+0021REMSYN011 333 58002;
0115832360999991996060912004-12150-045000FM-12+044099999V0200501N00151220001CN0500001N1+02391+01731101761ADDAA106000091AG10000GF103991031001022501071001KA1240N+01651MA1999999096791MD1999999+0011REMSYN017 333 20165 58001;
0096832360999991996060918004-12150-045000FM-12+044099999V0200901N00211007501CN0200001N1+03131+01301101311ADDAA106000091AG10000GF105991051021008001001001MA1999999096401MD1999999+0061REMSYN011 333 58006;
0131832360999991996061012004-12150-045000FM-12+044099999V0200901N00151220001CN0500001N1+02211+01391101851ADDAA106000091AG10000GA1001+999999999GF100991001001999999001001KA1240N+01341MA1999999096891MD1999999+0101REMSYN017 333 20134 58010;
0096832360999991996061018004-12150-045000FM-12+044099999V0201801N00211045001CN0200001N1+03041+01141101341ADDAA106000091AG10000GF106991041021008001041061MA1999999096411MD1999999+0011REMSYN011 333 58001;
0115832360999991996061112004-12150-045000FM-12+044099999V0201401N00211220001CN0500001N1+02281+01411101761ADDAA106000091AG10000GF103991001001999999001041KA1240N+01311MA1999999096771MD1999999+0121REMSYN017 333 20131 58012;
0115832360999991996061212004-12150-045000FM-12+044099999V0200901N00211220001CN0500001N1+02361+01431101771ADDAA106000091AG10000GF104991041001022501081001KA1240N+01541MA1999999096801MD1999999+0031REMSYN017 333 20154 58003;
0096832360999991996061218004-12150-045000FM-12+044099999V0200901N00101007501CN0200001N1+03001+01371101321ADDAA106000091AG10000GF106991051021008001061051MA1999999096401MD1999999+0071REMSYN011 333 58007;
0131832360999991996061312004-12150-045000FM-12+044099999V0201801N00101220001CN0500001N1+02321+01471101741ADDAA106000091AG10000GA1001+999999999GF100991001001999999001001KA1240N+01701MA1999999096761MD1999999-0041REMSYN017 333 20170 59004;
0115832360999991996061418004-12150-045000FM-12+044099999V0200901N00211007501CN0200001N1+02931+01501101151ADDAA106000091AG10000GF108991999051008001071999MA1999999096221MD1999999-0061REMSYN011 333 59006;EQDQ01+000082SCOTLC
0115832360999991996061512004-12150-045000FM-12+044099999V0201801N00101220001CN0500001N1+02271+01391101601ADDAA106000091AG10000GF104991021001022501061071KA1240N+01421MA1999999096651MD1999999+0001REMSYN017 333 20142 58000;
0096832360999991996061518004-12150-045000FM-12+044099999V0201801N00151105001CN0500001N1+03101+01421101071ADDAA106000091AG10000GF105991031001022501071051MA1999999096151MD1999999-0071REMSYN011 333 59007;
0115832360999991996061612004-12150-045000FM-12+044099999V0203201N00101220001CN0500001N1+02101+01191101521ADDAA106000091AG10000GF102991001001999999001051KA1240N+01291MA1999999096521MD1999999-0131REMSYN017 333 20129 59013;
0112832360999991996061618004-12150-045000FM-12+044099999V0203201N00151220001CN0500001N1+03191+01311100941ADDAA106000091AG10000GA1001+999999999GF100991001001999999001001MA1999999096021MD1999999-0131REMSYN011 333 59013;
0131832360999991996061712004-12150-045000FM-12+044099999V0202701N00101220001CN0500001N1+02291+01361101291ADDAA106000091AG10000GA1001+999999999GF100991001001999999001001KA1240N+01401MA1999999096341MD1999999-0181REMSYN017 333 20140 59018;
0096832360999991996061718004-12150-045000FM-12+044099999V0201401N00101105001CN0200001N1+03231+01431100831ADDAA106000091AG10000GF105991041021008001001021MA1999999095931MD1999999-0091REMSYN011 333 59009;
0115832360999991996061812004-12150-045000FM-12+044099999V0209991C00001220001CN0500001N1+02411+01731101421ADDAA106000091AG10000GF102991021021012501001001KA1240N+01661MA1999999096461MD1999999+0121REMSYN017 333 20166 58012;
0096832360999991996061818004-12150-045000FM-12+044099999V0200901N00151007501CN0200001N1+03271+01421100841ADDAA106000091AG10000GF105991051021008001001001MA1999999095961MD1999999+0031REMSYN011 333 58003;
0131832360999991996061912004-12150-045000FM-12+044099999V0203601N00101220001CN0500001N1+02311+01461101411ADDAA106000091AG10000GA1001+999999999GF100991001001999999001001KA1240N+01381MA1999999096451MD1999999+0011REMSYN017 333 20138 58001;
0112832360999991996061918004-12150-045000FM-12+044099999V0201801N00211220001CN0500001N1+03321+01171100851ADDAA106000091AG10000GA1001+999999999GF100991001001999999001001MA1999999095951MD1999999-0011REMSYN011 333 59001;
0115832360999991996062012004-12150-045000FM-12+044099999V0200301N00101220001CN0500001N1+02051+01081101511ADDAA106000091AG10000GF102991999999999999999999KA1240N+01171MA1999999096501MD1999999+0051REMSYN017 333 20117 58005;
0112832360999991996062018004-12150-045000FM-12+044099999V0201801N00211220001CN0500001N1+03271+00931100981ADDAA106000091AG10000GA1001+999999999GF100991001001999999001001MA1999999096051MD1999999+0101REMSYN011 333 58010;
0131832360999991996062112004-12150-045000FM-12+044099999V0203201N00261220001CN0500001N1+02091+00841101731ADDAA106000091AG10000GA1001+999999999GF100991001001999999001001KA1240N+01091MA1999999096741MD1999999+0241REMSYN017 333 20109 58024;
0096832360999991996062118004-12150-045000FM-12+044099999V0200501N00151007501CN0500001N1+03161+01341101151ADDAA106000091AG10000GF105991051021008001001001MA1999999096201MD1999999+0151REMSYN011 333 58015;
0096832360999991996062218004-12150-045000FM-12+044099999V0201401N00151007501CN0200001N1+03091+01601101171ADDAA106000091AG10000GF106991061021008001001001MA1999999096271MD1999999+0071REMSYN011 333 58007;
0115832360999991996062312004-12150-045000FM-12+044099999V0203201N00101220001CN0500001N1+02231+01481101751ADDAA106000091AG10000GF103991001001999999001071KA1240N+01391MA1999999096761MD1999999+0151REMSYN017 333 20139 58015;
0096832360999991996062318004-12150-045000FM-12+044099999V0201801N00151220001CN0500001N1+03291+01241101161ADDAA106000091AG10000GF103991031021008001001001MA1999999096251MD1999999-0021REMSYN011 333 59002;
0131832360999991996062412004-12150-045000FM-12+044099999V0201801N00101220001CN0500001N1+02091+01221101711ADDAA106000091AG10000GA1001+999999999GF100991001001999999001001KA1240N+01391MA1999999096731MD1999999-0031REMSYN017 333 20139 59003;
0096832360999991996062418004-12150-045000FM-12+044099999V0200901N00151220001CN0500001N1+03201+00151101121ADDAA106000091AG10000GF104991001001999999001041MA1999999096231MD1999999-0021REMSYN011 333 59002;
0131832360999991996062512004-12150-045000FM-12+044099999V0202701N00151220001CN0500001N1+01961+01141101761ADDAA106000091AG10000GA1001+999999999GF100991001001999999001001KA1240N+01211MA1999999096721MD1999999-0011REMSYN017 333 20121 59001;
0112832360999991996062618004-12150-045000FM-12+044099999V0203201N00151220001CN0500001N1+03081+01071100971ADDAA106000091AG10000GA1001+999999999GF100991001001999999001001MA1999999096021MD1999999-0141REMSYN011 333 59014;
0115832360999991996062712004-12150-045000FM-12+044099999V0203601N00051220001CN0500001N1+01991+01351101461ADDAA106000091AG10000GF103991031001022501031001KA1240N+01471MA1999999096441MD1999999-0131REMSYN017 333 20147 59013;
0112832360999991996062718004-12150-045000FM-12+044099999V0203601N00101220001CN0500001N1+03231+01031100861ADDAA106000091AG10000GA1001+999999999GF100991001001999999001001MA1999999095941MD1999999-0081REMSYN011 333 59008;
0115832360999991996062812004-12150-045000FM-12+044099999V0201801N00101220001CN0500001N1+01981+01281101451ADDAA106000091AG10000GF103991001001999999001041KA1240N+01291MA1999999096451MD1999999+0011REMSYN017 333 20129 58001;
0115832360999991996062818004-12150-045000FM-12+044099999V0203601N00101220001CN0500001N1+03351+00931100701ADDAA106000091AG10000GF104991001001999999001041MA1999999095911MD1999999-0051REMSYN011 333 59005;EQDQ01+999990APOSP 
0115832360999991996062912004-12150-045000FM-12+044099999V0202301N001519999999N0500001N1+02131+01261105881ADDAA106000091AG10000GF108991999999999999999999KA1240N+01391MA1999999096571MD1999999+0121REMSYN017 333 20139 58012;
0115832360999991996062918004-12150-045000FM-12+044099999V0201801N00151220001CN0500001N1+03241+01161101022ADDAA106000091AG10000GF102991011011008001001011MA1999999096121MD1999999+0231REMSYN011 333 58023;EQDQ01+101023APOSLP
0096832360999991996063018004-12150-045000FM-12+044099999V0200901N00211220001CN0500001N1+03341+01241101141ADDAA106000091AG10000GF104991041011008001001001MA1999999096251MD1999999+0131REMSYN011 333 58013;
0131832360999991996070112004-12150-045000FM-12+044099999V0201801N00101220001CN0500001N1+02271+01421101831ADDAA106000091AG10000GA1001+999999999GF100991001001999999001001KA1240N+01611MA1999999096861MD1999999+0071REMSYN017 333 20161 58007;
0115832360999991996070212004-12150-045000FM-12+044099999V0201801N00101220001CN0500001N1+02211+01511101801ADDAA106000091AG10000GF104991021021008001001041KA1240N+01491MA1999999096811MD1999999-0051REMSYN017 333 20149 59005;
0096832360999991996070218004-12150-045000FM-12+044099999V0200901N00211007501CN0200001N1+03091+01221101231ADDAA106000091AG10000GF105991051021008001001001MA1999999096321MD1999999-0101REMSYN011 333 59010;
0115832360999991996070312004-12150-045000FM-12+044099999V0201801N00101220001CN0500001N1+02251+01481101661ADDAA106000091AG10000GF102991001001999999001011KA1240N+01611MA1999999096681MD1999999-0131REMSYN017 333 20161 59013;
0096832360999991996070318004-12150-045000FM-12+044099999V0200501N00211220001CN0200001N1+03211+01371101001ADDAA106000091AG10000GF104991041021008001001001MA1999999096121MD1999999-0201REMSYN011 333 59020;
0131832360999991996070412004-12150-045000FM-12+044099999V0201801N00101220001CN0500001N1+02061+01181101571ADDAA106000091AG10000GA1001+999999999GF100991001001999999001001KA1240N+01371MA1999999096581MD1999999-0101REMSYN017 333 20137 59010;
0096832360999991996070418004-12150-045000FM-12+044099999V0203201N00101220001CN0200001N1+03191+01161101081ADDAA106000091AG10000GF104991041021008001001001MA1999999096151MD1999999+0031REMSYN011 333 58003;
0115832360999991996070512004-12150-045000FM-12+044099999V0202301N00051220001CN0200001N1+02361+01291101711ADDAA106000091AG10000GF104991021011008001081001KA1240N+01911MA1999999096761MD1999999+0181REMSYN017 333 20191 58018;
0112832360999991996070518004-12150-045000FM-12+044099999V0201401N00261220001CN0500001N1+03291+00891101171ADDAA106000091AG10000GA1001+999999999GF100991001001999999001001MA1999999096291MD1999999+0141REMSYN011 333 58014;
0115832360999991996070612004-12150-045000FM-12+044099999V0202301N00101105001CN0200001N1+02091+01171101821ADDAA106000091AG10000GF106991001001999999001051KA1240N+01371MA1999999096831MD1999999+0071REMSYN017 333 20137 58007;
0096832360999991996070618004-12150-045000FM-12+044099999V0200901N00461105001CN0200001N1+02151+00901101241ADDAA106000091AG10000GF106991011011008001001051MA1999999096311MD1999999+0021REMSYN011 333 58002;
0131832360999991996070712004-12150-045000FM-12+044099999V0201401N00051220001CN0500001N1+02231+01221101631ADDAA106000091AG10000GA1001+999999999GF100991001001999999001001KA1240N+01571MA1999999096681MD1999999-0151REMSYN017 333 20157 59015;
0096832360999991996070718004-12150-045000FM-12+044099999V0201401N00151220001CN0500001N1+03071+00651101111ADDAA106000091AG10000GF101991001001999999001011MA1999999096191MD1999999-0121REMSYN011 333 59012;
0115832360999991996070812004-12150-045000FM-12+044099999V0201801N00051220001CN0200001N1+02011+01121101661ADDAA106000091AG10000GF104991041001022501031001KA1240N+01511MA1999999096671MD1999999-0011REMSYN017 333 20151 59001;
0131832360999991996070912004-12150-045000FM-12+044099999V0201801N00101220001CN0500001N1+01891+00901101821ADDAA106000091AG10000GA1001+999999999GF100991001001999999001001KA1240N+01151MA1999999096771MD1999999+0101REMSYN017 333 20115 58010;
0131832360999991996070918004-12150-045000FM-12+044099999V0201401N00311220001CN0500001N1+03051+00871101331ADDAA106000091AG10000GA1001+999999999GF100991001001999999001001MA1999999093632MD1999999+0191REMSYN011 333 58019;EQDQ01+093633APOSP 
0131832360999991996071012004-12150-045000FM-12+044099999V0201801N00101220001CN0500001N1+02041+01161101901ADDAA106000091AG10000GA1001+999999999GF100991001001999999001001KA1240N+01161MA1999999096861MD1999999+0091REMSYN017 333 20116 58009;
0096832360999991996071018004-12150-045000FM-12+044099999V0201401N00151220001CN0500001N1+03131+00881101341ADDAA106000091AG10000GF102991021021012501001001MA1999999096381MD1999999+0021REMSYN011 333 58002;
0131832360999991996071112004-12150-045000FM-12+044099999V0201801N00101220001CN0500001N1+01991+01051101811ADDAA106000091AG10000GA1001+999999999GF100991001001999999001001KA1240N+01101MA1999999096771MD1999999-0091REMSYN017 333 20110 59009;
0112832360999991996071118004-12150-045000FM-12+044099999V0201801N00151220001CN0500001N1+03161+00981101141ADDAA106000091AG10000GA1001+999999999GF100991001001999999001001MA1999999096201MD1999999-0181REMSYN011 333 59018;
0131832360999991996071212004-12150-045000FM-12+044099999V0202301N00101220001CN0500001N1+01911+00921101661ADDAA106000091AG10000GA1001+999999999GF100991001001999999001001KA1240N+01041MA1999999096611MD1999999-0161REMSYN017 333 20104 59016;
0112832360999991996071218004-12150-045000FM-12+044099999V0203601N00101220001CN0500001N1+03301+00851100981ADDAA106000091AG10000GA1001+999999999GF100991001001999999001001MA1999999096051MD1999999-0151REMSYN011 333 59015;
0115832360999991996071312004-12150-045000FM-12+044099999V0203201N00101220001CN0200001N1+02111+00991101581ADDAA106000091AG10000GF106991031001022501071041KA1240N+01091MA1999999096581MD1999999-0031REMSYN017 333 20109 59003;
0096832360999991996071318004-12150-045000FM-12+044099999V0203601N00211105001CN0200001N1+03351+00881101001ADDAA106000091AG10000GF105991031001022501071051MA1999999096071MD1999999+0021REMSYN011 333 58002;
0115832360999991996071412004-12150-045000FM-12+044099999V0201401N00101220001CN0500001N1+02071+01231101751ADDAA106000091AG10000GF103991001001999999001031KA1240N+01281MA1999999096741MD1999999+0161REMSYN017 333 20128 58016;
0096832360999991996071418004-12150-045000FM-12+044099999V0201801N00151220001CN0200001N1+03311+01151101171ADDAA106000091AG10000GF105991031021008001001041MA1999999096251MD1999999+0181REMSYN011 333 58018;
0131832360999991996071512004-12150-045000FM-12+044099999V0201801N00101220001CN0500001N1+02191+01181101761ADDAA106000091AG10000GA1001+999999999GF100991001001999999001001KA1240N+01371MA1999999096771MD1999999+0031REMSYN017 333 20137 58003;
0112832360999991996071518004-12150-045000FM-12+044099999V0201401N00151220001CN0500001N1+03301+00851101161ADDAA106000091AG10000GA1001+999999999GF100991001001999999001001MA1999999096251MD1999999+0011REMSYN011 333 58001;
0131832360999991996071612004-12150-045000FM-12+044099999V0202301N00101220001CN0500001N1+02291+01301101881ADDAA106000091AG10000GA1001+999999999GF100991001001999999001001KA1240N+01371MA1999999096901MD1999999+0131REMSYN017 333 20137 58013;
0112832360999991996071618004-12150-045000FM-12+044099999V0200901N00211220001CN0500001N1+03251+00991101451ADDAA106000091AG10000GA1001+999999999GF100991001001999999001001MA1999999096441MD1999999+0181REMSYN011 333 58018;
0131832360999991996071712004-12150-045000FM-12+044099999V0201801N00101220001CN0500001N1+02311+01461101841ADDAA106000091AG10000GA1001+999999999GF100991001001999999001001KA1240N+01381MA1999999096861MD1999999-0041REMSYN017 333 20138 59004;
0096832360999991996071718004-12150-045000FM-12+044099999V0201801N00151220001CN0500001N1+03171+01141101311ADDAA106000091AG10000GF102991021021008001001001MA1999999096381MD1999999-0061REMSYN011 333 59006;
0115832360999991996071812004-12150-045000FM-12+044099999V0201801N00101105001CN0200001N1+02041+01291101901ADDAA106000091AG10000GF105991031001022501071031KA1240N+01321MA1999999096901MD1999999+0041REMSYN017 333 20132 58004;
0096832360999991996071818004-12150-045000FM-12+044099999V0201801N002119999999N0200001N1+03121+00701101331ADDAA106000091AG10000GF106991021001008001061041MA1999999096421MD1999999+0041REMSYN011 333 58004;
0115832360999991996071912004-12150-045000FM-12+044099999V0201801N00101220001CN0200001N1+02051+01111101791ADDAA106000091AG10000GF106991041001022501061041KA1240N+01171MA1999999096751MD1999999-0151REMSYN017 333 20117 59015;
0096832360999991996071918004-12150-045000FM-12+044099999V0200901N00151105001CN0200001N1+03211+00951101251ADDAA106000091AG10000GF105991031001022501071031MA1999999096311MD1999999-0111REMSYN011 333 59011;
0115832360999991996072012004-12150-045000FM-12+044099999V0202301N00101220001CN0500001N1+02171+01161101651ADDAA106000091AG10000GF103991031001022501061001KA1240N+01221MA1999999096661MD1999999-0111REMSYN017 333 20122 59011;
0096832360999991996072018004-12150-045000FM-12+044099999V0200901N00151220001CN0500001N1+03291+01341101161ADDAA106000091AG10000GF103991031021008001001001MA1999999096231MD1999999-0081REMSYN011 333 59008;
0131832360999991996072112004-12150-045000FM-12+044099999V0202301N00101220001CN0500001N1+02291+01641101621ADDAA106000091AG10000GA1001+999999999GF100991001001999999001001KA1240N+01461MA1999999096681MD1999999+0011REMSYN017 333 20146 58001;
0096832360999991996072118004-12150-045000FM-12+044099999V0202301N00151220001CN0500001N1+03351+01311101041ADDAA106000091AG10000GF102991021021008001001001MA1999999096151MD1999999-0081REMSYN011 333 59008;
0131832360999991996072212004-12150-045000FM-12+044099999V0202301N00101220001CN0500001N1+02301+01041101571ADDAA106000091AG10000GA1001+999999999GF100991001001999999001001KA1240N+01371MA1999999096611MD1999999-0061REMSYN017 333 20137 59006;
0096832360999991996072218004-12150-045000FM-12+044099999V0203601N00151220001CN0500001N1+03511+00631101021ADDAA106000091AG10000GF103991001001999999001061MA1999999096141MD1999999-0011REMSYN011 333 59001;
0115832360999991996072312004-12150-045000FM-12+044099999V0201801N00101105001CN0200001N1+02241+01351101781ADDAA106000091AG10000GF105991021001022501071051KA1240N+01311MA1999999096791MD1999999+0181REMSYN017 333 20131 58018;
0096832360999991996072318004-12150-045000FM-12+044099999V0201801N00211007501CN0200001N1+03261+01331101211ADDAA106000091AG10000GF106991051021008001001051MA1999999096291MD1999999+0151REMSYN011 333 58015;
0115832360999991996072412004-12150-045000FM-12+044099999V0201401N00151220001CN0500001N1+02081+01201101831ADDAA106000091AG10000GF103991031001022501051001KA1240N+01591MA1999999096871MD1999999+0081REMSYN017 333 20159 58008;
0096832360999991996072418004-12150-045000FM-12+044099999V0201801N00151220001CN0500001N1+03041+00981101211ADDAA106000091AG10000GF102991021021008001001001MA1999999096331MD1999999+0041REMSYN011 333 58004;
0115832360999991996072512004-12150-045000FM-12+044099999V0201801N00101220001CN0500001N1+02111+01051101801ADDAA106000091AG10000GF104991001001999999001041KA1240N+01491MA1999999096811MD1999999-0061REMSYN017 333 20149 59006;
0115832360999991996072612004-12150-045000FM-12+044099999V0202701N00051220001CN0500001N1+01931+00971101791ADDAA106000091AG10000GF103991001001999999001051KA1240N+01071MA1999999096741MD1999999-0071REMSYN017 333 20107 59007;
0096832360999991996072618004-12150-045000FM-12+044099999V0203601N00261105001CN0200001N1+03011+00951101221ADDAA106000091AG10000GF105991001001999999001051MA1999999096251MD1999999-0031REMSYN011 333 59003;
0096832360999991996072718004-12150-045000FM-12+044099999V0202301N00151220001CN0500001N1+03251+00811101121ADDAA106000091AG10000GF102991001001999999001021MA1999999096221MD1999999-0031REMSYN011 333 59003;
0115832360999991996072812004-12150-045000FM-12+044099999V0201801N00151220001CN0500001N1+02191+00871101821ADDAA106000091AG10000GF103991001001999999001041KA1240N+01301MA1999999096821MD1999999+0061REMSYN017 333 20130 58006;
0096832360999991996072818004-12150-045000FM-12+044099999V0201801N00101220001CN0500001N1+03201+00761101201ADDAA106000091AG10000GF103991001001999999001041MA1999999096261MD1999999+0041REMSYN011 333 58004;
0115832360999991996072912004-12150-045000FM-12+044099999V0201801N00051220001CN0500001N1+02191+01121101791ADDAA106000091AG10000GF103991001001999999001011KA1240N+01411MA1999999096801MD1999999-0021REMSYN017 333 20141 59002;
0096832360999991996072918004-12150-045000FM-12+044099999V0201801N00101220001CN0500001N1+03131+00821101121ADDAA106000091AG10000GF103991001001999999001021MA1999999096241MD1999999-0021REMSYN011 333 59002;
0115832360999991996073012004-12150-045000FM-12+044099999V0200501N00411220001CN0500001N1+02551+01041101791ADDAA106000091AG10000GF103991001001999999001041KA1240N+01621MA1999999096841MD1999999+0041REMSYN017 333 20162 58004;
0115832360999991996073018004-12150-045000FM-12+044099999V0201801N00211002101CN0100001N1+02901+02561101761ADDAA106000091AG10000GF108991081071002501999999MA1999999101182MD1999999+0191REMSYN011 333 58019;EQDQ01+101183APOSP 
0115832360999991996073112004-12150-045000FM-12+044099999V0201401N00151220001CN0500001N1+02411+01261101871ADDAA106000091AG10000GF104991011001022501081021KA1240N+01471MA1999999096891MD1999999+0051REMSYN017 333 20147 58005;
0096832360999991996073118004-12150-045000FM-12+044099999V0201401N00151007501CN0200001N1+03121+01051101371ADDAA106000091AG10000GF106991051021008001001041MA1999999096421MD1999999+0061REMSYN011 333 58006;
0115832360999991996080112004-12150-045000FM-12+044099999V0200501N00101220001CN0500001N1+02411+01441101781ADDAA106000091AG10000GF104991011001022501081021KA1240N+01771MA1999999096841MD1999999-0051REMSYN017 333 20177 59005;
0096832360999991996080118004-12150-045000FM-12+044099999V0201401N00261045001CN0200001N1+03201+01121101211ADDAA106000091AG10000GF105991041021008001081001MA1999999096321MD1999999-0101REMSYN011 333 59010;
0153832360999991996080212004-12150-045000FM-12+044099999V0201801N00101220001CN0200001N1+02271+01391101811ADDAA106000091AG10000AY101061AY241061GA1001+999999999GF100991001001999999001001KA1240N+01631MA1999999096831MD1999999-0011MW1051REMSYN017 333 20163 59001;
0137832360999991996080218004-12150-045000FM-12+044099999V0200901N002619999999N0200001N1+03211+01071101251ADDAA106000091AG10000AY101061AY241061GF105991999031008001001001MA1999999096341MD1999999-0211MW1051REMSYN011 333 59021;EQDQ01+000042SCOTLC
0137832360999991996080312004-12150-045000FM-12+044099999V0201401N00151220001CN0200001N1+02391+01531101841ADDAA106000091AG10000AY101061AY241061GF103991031001022501031001KA1240N+01911MA1999999096871MD1999999+0041MW1051REMSYN017 333 20191 58004;
0118832360999991996080318004-12150-045000FM-12+044099999V0200901N00411007501CN0200001N1+03241+01211101281ADDAA106000091AG10000AY101061AY241061GF105991051021008001001001MA1999999096401MD1999999+0061MW1051REMSYN011 333 58006;
0131832360999991996080412004-12150-045000FM-12+044099999V0203601N00101220001CN0500001N1+02461+01501101731ADDAA106000091AG10000GA1001+999999999GF100991001001999999001001KA1240N+01811MA1999999096781MD1999999-0091REMSYN017 333 20181 59009;
0096832360999991996080418004-12150-045000FM-12+044099999V0200901N00151007501CN0200001N1+03221+01391101151ADDAA106000091AG10000GF105991051021008001001001MA1999999096261MD1999999-0141REMSYN011 333 59014;
0153832360999991996080512004-12150-045000FM-12+044099999V0201401N00101220001CN0200001N1+02351+01381101581ADDAA106000091AG10000AY101061AY241061GA1001+999999999GF100991001001999999001001KA1240N+01691MA1999999096651MD1999999-0131MW1051REMSYN017 333 20169 59013;
0153832360999991996080712004-12150-045000FM-12+044099999V0200501N00151220001CN0200001N1+02511+01391101401ADDAA106000091AG10000AY101061AY251061GA1001+999999999GF100991001001999999001001KA1240N+01711MA1999999096481MD1999999-0021MW1041REMSYN017 333 20171 59002;
0118832360999991996080718004-12150-045000FM-12+044099999V0203201N00101220001CN0200001N1+03491+01251100911ADDAA106000091AG10000AY101061AY251061GF102991021011008001001001MA1999999096041MD1999999-0081MW1041REMSYN011 333 59008;
0137832360999991996080812004-12150-045000FM-12+044099999V0200501N00361220001CN0200001N1+02591+01431101381ADDAA106000091AG10000AY101061AY241061GF103991031001022501041001KA1240N+01801MA1999999096471MD1999999-0011MW1051REMSYN017 333 20180 59001;
0118832360999991996080818004-12150-045000FM-12+044099999V0203201N00101220001CN0200001N1+03451+01151100891ADDAA106000091AG10000AY101061AY241061GF103991031011008001001001MA1999999096021MD1999999-0021MW1051REMSYN011 333 59002;
0137832360999991996080912004-12150-045000FM-12+044099999V0200501N00151220001CN0200001N1+02571+01351101391ADDAA106000091AG10000AY101061AY241061GF102991001001999999001021KA1240N+01591MA1999999096481MD1999999+0011MW1051REMSYN017 333 20159 58001;
0118832360999991996080918004-12150-045000FM-12+044099999V0203601N00101220001CN0200001N1+03541+01241100761ADDAA106000091AG10000AY101061AY241061GF104991041021012501001001MA1999999095931MD1999999-0091MW1051REMSYN011 333 59009;
0153832360999991996081012004-12150-045000FM-12+044099999V0200501N00361220001CN0200001N1+02371+01521101731ADDAA106000091AG10000AY101061AY241061GA1001+999999999GF100991001001999999001001KA1240N+01591MA1999999096481MD1999999+0001MW1051REMSYN017 333 20159 58000;
0115832360999991996081018004-12150-045000FM-12+044099999V0203601N00151007501CN0200001N1+03571+00991100792ADDAA106000091AG10000GF105991051021008001001001MA1999999095931MD1999999+0001REMSYN011 333 58000;EQDQ01+100793APOSLP
0137832360999991996081112004-12150-045000FM-12+044099999V0200501N00101220001CN0200001N1+02551+01421101331ADDAA106000091AG10000AY101061AY241061GF102991021001022501011001KA1240N+01681MA1999999096401MD1999999-0081MW1051REMSYN017 333 20168 59008;
0096832360999991996081118004-12150-045000FM-12+044099999V0203601N00151220001CN0500001N1+03591+01141100811ADDAA106000091AG10000GF104991041021008001001001MA1999999095951MD1999999+0021REMSYN011 333 58002;
0137832360999991996081212004-12150-045000FM-12+044099999V0202301N00101021001CN0200001N1+02871+01681101411ADDAA106000091AG10000AY101061AY241061GF106991061001022501031001KA1240N+02201MA1999999096481MD1999999+0081MW1051REMSYN017 333 20220 58008;
0096832360999991996081218004-12150-045000FM-12+044099999V0203601N00151007501CN0500001N1+03671+01001100841ADDAA106000091AG10000GF105991051021008001001001MA1999999096031MD1999999+0081REMSYN011 333 58008;
0137832360999991996081312004-12150-045000FM-12+044099999V0203601N00101220001CN0200001N1+02691+01611101471ADDAA106000091AG10000AY101061AY241061GF102991021001022501011001KA1240N+01951MA1999999096601MD1999999+0121MW1051REMSYN017 333 20195 58012;
0096832360999991996081318004-12150-045000FM-12+044099999V0200901N00211007501CN0200001N1+03261+01471101021ADDAA106000091AG10000GF108991071051008001041999MA1999999096181MD1999999+0151REMSYN011 333 58015;
0137832360999991996081412004-12150-045000FM-12+044099999V0200901N00151220001CN0200001N1+02611+01681101541ADDAA106000091AG10000AY101061AY241061GF103991011011012501001021KA1240N+01791MA1999999096621MD1999999+0021MW1051REMSYN017 333 20179 58002;
0118832360999991996081418004-12150-045000FM-12+044099999V0201801N00101007501CN0200001N1+03411+01181100911ADDAA106000091AG10000AY101061AY241061GF106991061041008001071001MA1999999096051MD1999999-0131MW1051REMSYN011 333 59013;
0137832360999991996081512004-12150-045000FM-12+044099999V0200501N00151220001CN0200001N1+02511+01561101581ADDAA106000091AG10000AY101061AY241061GF103991001001999999001031KA1240N+01721MA1999999096661MD1999999+0041MW1051REMSYN017 333 20172 58004;
0096832360999991996081518004-12150-045000FM-12+044099999V0202701N00101007501CN0200001N1+03371+01601101021ADDAA106000091AG10000GF107991061041008001071021MA1999999096151MD1999999+0101REMSYN011 333 58010;
0137832360999991996081612004-12150-045000FM-12+044099999V0200501N001019999999N0200001N1+02491+01301101391ADDAA106000091AG10000AY101061AY241061GF105991031001008001061031KA1240N+01521MA1999999096451MD1999999-0121MW1051REMSYN017 333 20152 59012;
0096832360999991996081618004-12150-045000FM-12+044099999V0200901N00151105001CN0200001N1+03471+00981100881ADDAA106000091AG10000GF106991021051008001001031MA1999999096001MD1999999-0151REMSYN011 333 59015;
0137832360999991996081812004-12150-045000FM-12+044099999V0200501N00211220001CN0200001N1+02471+01351101661ADDAA106000091AG10000AY101061AY241061GF103991021001022501051021KA1240N+01891MA1999999096841MD1999999+0141MW1051REMSYN017 333 20189 58014;
0118832360999991996081818004-12150-045000FM-12+044099999V0201401N00151105001CN0200001N1+03191+01491101121ADDAA106000091AG10000AY101061AY241061GF105991031021008001001031MA1999999096281MD1999999+0051MW1051REMSYN011 333 58005;
0137832360999991996081912004-12150-045000FM-12+044099999V0200901N00151220001CN0200001N1+02411+01131101681ADDAA106000091AG10000AY101061AY241061GF102991001001999999001031KA1240N+01691MA1999999096761MD1999999-0081MW1051REMSYN017 333 20169 59008;
0118832360999991996081918004-12150-045000FM-12+044099999V0200901N00151007501CN0200001N1+03141+01221101141ADDAA106000091AG10000AY101061AY241061GF105991051021008001001001MA1999999096271MD1999999-0011MW1051REMSYN011 333 59001;
0137832360999991996082012004-12150-045000FM-12+044099999V0200501N00211105001CN0200001N1+02331+01061101701ADDAA106000091AG10000AY101061AY241061GF105991021001022501041021KA1240N+01591MA1999999096751MD1999999-0011MW1051REMSYN017 333 20159 59001;
0118832360999991996082018004-12150-045000FM-12+044099999V0201801N00151220001CN0200001N1+03151+01121101131ADDAA106000091AG10000AY101061AY241061GF104991041011008001041001MA1999999096241MD1999999-0031MW1051REMSYN011 333 59003;
0137832360999991996082112004-12150-045000FM-12+044099999V0202701N00101105001CN0200001N1+02281+01091101591ADDAA106000091AG10000AY101061AY241061GF105991031001022501051031KA1240N+01301MA1999999096631MD1999999-0121MW1051REMSYN017 333 20130 59012;
0118832360999991996082118004-12150-045000FM-12+044099999V0201801N00151007501CN0200001N1+03051+01041101001ADDAA106000091AG10000AY101061AY241061GF106991051021008001071061MA1999999096091MD1999999-0151MW1051REMSYN011 333 59015;
0115832360999991996082212004-12150-045000FM-12+044099999V0200501N001011050019N0200001N1+02311+01041101651ADDAA106000091AG10000GF105991021001022501081031KA1240N+01291MA1999999096691MD1999999+0061REMSYN017 333 20129 58006;
0118832360999991996082218004-12150-045000FM-12+044099999V0200501N00151220001CN0200001N1+03301+01041101031ADDAA106000091AG10000AY101061AY241061GF103991021021008001001021MA1999999096131MD1999999+0041MW1051REMSYN011 333 58004;
0115832360999991996082412004-12150-045000FM-12+044099999V0200501N00261220001CN0200001N1+02491+01401101561ADDAA106000091AG10000GF104991011011008001081001KA1240N+01681MA1999999096651MD1999999-0041REMSYN017 333 20168 59004;
0096832360999991996082418004-12150-045000FM-12+044099999V0201401N00211007501CN0200001N1+03201+01231100951ADDAA106000091AG10000GF105991051021008001001001MA1999999096121MD1999999-0011REMSYN011 333 59001;
0115832360999991996082512004-12150-045000FM-12+044099999V0201401N00261220001CN0200001N1+02451+01271101561ADDAA106000091AG10000GF104991011011008001001051KA1240N+01651MA1999999096641MD1999999-0011REMSYN017 333 20165 59001;
0096832360999991996082518004-12150-045000FM-12+044099999V0203601N00151220001CN0200001N1+03181+00931100881ADDAA106000091AG10000GF104991041021008001001001MA1999999096051MD1999999-0071REMSYN011 333 59007;
0115832360999991996082612004-12150-045000FM-12+044099999V0202701N00101220001CN0200001N1+02461+01521101501ADDAA106000091AG10000GF104991001001999999001051KA1240N+01811MA1999999096561MD1999999-0081REMSYN017 333 20181 59008;
0096832360999991996082618004-12150-045000FM-12+044099999V0202701N00151105001CN0200001N1+03261+01211100821ADDAA106000091AG10000GF105991041021008001001051MA1999999095981MD1999999-0071REMSYN011 333 59007;
0115832360999991996082712004-12150-045000FM-12+044099999V0200501N00211220001CN0200001N1+02531+01371101421ADDAA106000091AG10000GF104991001001999999001051KA1240N+01681MA1999999096501MD1999999-0061REMSYN017 333 20168 59006;
0096832360999991996082718004-12150-045000FM-12+044099999V0202701N00151220001CN0200001N1+03451+00891100851ADDAA106000091AG10000GF104991031021008001001041MA1999999095971MD1999999-0011REMSYN011 333 59001;
0137832360999991996082812004-12150-045000FM-12+044099999V0202701N00101220001CN0200001N1+02481+01031101401ADDAA106000091AG10000AY101061AY241061GF103991031011008001001001KA1240N+01591MA1999999096461MD1999999-0041MW1051REMSYN017 333 20159 59004;
0118832360999991996082818004-12150-045000FM-12+044099999V0203601N00151220001CN0200001N1+03571+00401100801ADDAA106000091AG10000AY101061AY241061GF104991041021008001001001MA1999999095961MD1999999-0011MW1041REMSYN011 333 59001;
0118832360999991996082918004-12150-045000FM-12+044099999V0203201N00101220001CN0200001N1+03491+00531100781ADDAA106000091AG10000AY101061AY241061GF104991041021008001001001MA1999999095931MD1999999-0031MW1041REMSYN011 333 59003;
0137832360999991996083012004-12150-045000FM-12+044099999V0200501N00151220001CN0100001N1+02481+01171101451ADDAA106000091AG10000AY101061AY241061GF102991021011008001001001KA1240N+01571MA1999999096521MD1999999+0041MW1041REMSYN017 333 20157 58004;
0118832360999991996083018004-12150-045000FM-12+044099999V0203601N00261007501CN0100001N1+03421+01071100831ADDAA106000091AG10000AY101061AY241061GF106991051021008001001021MA1999999095951MD1999999+0021MW1041REMSYN011 333 58002;
0153832360999991996083112004-12150-045000FM-12+044099999V0203601N00311220001CN0200001N1+02611+01511101411ADDAA106000091AG10000AY101061AY241061GA1001+999999999GF100991001001999999001001KA1240N+01931MA1999999096451MD1999999-0071MW1051REMSYN017 333 20193 59007;
0118832360999991996083118004-12150-045000FM-12+044099999V0203601N00261220001CN0200001N1+03461+01341100741ADDAA106000091AG10000AY101061AY241061GF104991041021008001001001MA1999999095921MD1999999-0031MW1051REMSYN011 333 59003;
0137832360999991996090112004-12150-045000FM-12+044099999V0200501N00311220001CN0200001N1+02691+01491101261ADDAA106000091AG10000AY101061AY241061GF102991021001022501081001KA1240N+01991MA1999999096371MD1999999-0081MW1051REMSYN017 333 20199 59008;
0137832360999991996090212004-12150-045000FM-12+044099999V0200501N00461220001CN0200001N1+02821+01331101161ADDAA106000091AG10000AY101061AY241061GF103991001001999999001041KA1240N+02131MA1999999096271MD1999999-0101MW1051REMSYN017 333 20213 59010;
0118832360999991996090218004-12150-045000FM-12+044099999V0200901N00211220001CN0200001N1+03581+01211100531ADDAA106000091AG10000AY101061AY241061GF105991031021008001001041MA1999999095741MD1999999-0161MW1051REMSYN011 333 59016;
0156832360999991996090312004-12150-045000FM-12+044099999V0200501N00571220001CN0100001N1+02831+01251100981ADDAA106000091AG10000AY101061AY231061GF102991001001999999001041KA1240N+01881MA1999999096121MD1999999-0151MW1071REMSYN017 333 20188 59015;EQDQ01+000952SCOLCB
0118832360999991996090318004-12150-045000FM-12+044099999V0200501N00361220001CN0100001N1+03681+01021100331ADDAA106000091AG10000AY101061AY241061GF104991021011008001001041MA1999999095531MD1999999-0211MW1051REMSYN011 333 59021;
0124832360999991996090412004-12150-045000FM-12+044099999V0203601N00621220001CN0100001N1+02841+01271101031ADDAA106000091AG10000AY101061AY231061GF103991001001999999001041MA1999999096211MD1999999+0091MW1061REMSYN017 333 20/// 58009;
0118832360999991996090418004-12150-045000FM-12+044099999V0203601N00211105001CN0100001N1+03651+00741100441ADDAA106000091AG10000AY101061AY241061GF106991021011008001001051MA1999999095661MD1999999+0131MW1051REMSYN011 333 58013;
0137832360999991996090512004-12150-045000FM-12+044099999V0203601N00211220001CN0100001N1+02771+01351101141ADDAA106000091AG10000AY101061AY241061GF104991001001999999001041KA1240N+02011MA1999999096291MD1999999+0081MW1051REMSYN017 333 20201 58008;
0118832360999991996090518004-12150-045000FM-12+044099999V0200901N00261105001CN0100001N1+03711+00881100481ADDAA106000091AG10000AY101061AY241061GF106991031021008001001051MA1999999095701MD1999999+0041MW1051REMSYN011 333 58004;
0137832360999991996090612004-12150-045000FM-12+044099999V0203601N00151220001CN0100001N1+02631+01081101181ADDAA106000091AG10000AY101061AY241061GF102991001001999999001041KA1240N+01631MA1999999096311MD1999999+0021MW1051REMSYN017 333 20163 58002;
0153832360999991996090712004-12150-045000FM-12+044099999V0200901N00461220001CN0100001N1+02621+01041101131ADDAA106000091AG10000AY101061AY241061GA1001+999999999GF100991001001999999001001KA1240N+01241MA1999999096231MD1999999+0361MW1051REMSYN017 333 20124 58036;
0118832360999991996090718004-12150-045000FM-12+044099999V0201401N00511220001CN0100001N1+03431+00651100561ADDAA106000091AG10000AY101061AY241061GF103991001001999999001071MA1999999095691MD1999999-0031MW1051REMSYN011 333 59003;
0153832360999991996090812004-12150-045000FM-12+044099999V0200501N00151220001CN0100001N1+02551+01261101271ADDAA106000091AG10000AY101061AY241061GA1001+999999999GF100991001001999999001001KA1240N+01541MA1999999096371MD1999999+0141MW1051REMSYN017 333 20154 58014;
0131832360999991996090912004-12150-045000FM-12+044099999V0200501N00211220001CN0100001N1+02651+01351101521ADDAA106000091AG10000GA1001+999999999GF100991001001999999001001KA1240N+01691MA1999999096611MD1999999+0241REMSYN017 333 20169 58024;
0115832360999991996090918004-12150-045000FM-12+044099999V0200901N005110075019N0200001N1+03491+01061100722ADDAA106000091AG10000GF105991051021008001001001MA1999999095901MD1999999+0031REMSYN011 333 58003;EQDQ01+100723APOSLP
0137832360999991996091012004-12150-045000FM-12+044099999V0200501N00411220001CN0100001N1+02591+01331101591ADDAA106000091AG10000AY101061AY241061GF102991001001999999001061KA1240N+01501MA1999999096691MD1999999+0081MW1051REMSYN017 333 20150 58008;
0118832360999991996091018004-12150-045000FM-12+044099999V0200901N00101220001CN0100001N1+03411+01121100951ADDAA106000091AG10000AY101061AY241061GF103991031021008001001001MA1999999096081MD1999999+0181MW1051REMSYN011 333 58018;
0137832360999991996091112004-12150-045000FM-12+044099999V0200501N00511220001CN0100001N1+02601+01141101461ADDAA106000091AG10000AY101061AY241061GF104991001001999999001071KA1240N+01461MA1999999096571MD1999999-0161MW1051REMSYN017 333 20146 59016;
0118832360999991996091118004-12150-045000FM-12+044099999V0201401N00151007501CN0100001N1+03441+00671100861ADDAA106000091AG10000AY101061AY241061GF105991051021008001061001MA1999999095981MD1999999-0101MW1051REMSYN011 333 59010;
0137832360999991996091212004-12150-045000FM-12+044099999V0200501N00151105001CN0100001N1+02631+01081101501ADDAA106000091AG10000AY101061AY241061GF105991021001022501051031KA1240N+01421MA1999999096601MD1999999+0031MW1051REMSYN017 333 20142 58003;
0118832360999991996091218004-12150-045000FM-12+044099999V0200901N00211007501CN0100001N1+03381+01041100861ADDAA106000091AG10000AY101061AY241061GF105991051021008001001001MA1999999095981MD1999999+0001MW1051REMSYN011 333 58000;
0137832360999991996091312004-12150-045000FM-12+044099999V0203601N00101220001CN0100001N1+02611+01411101471ADDAA106000091AG10000AY101061AY241061GF102991021001022501071001KA1240N+01921MA1999999096581MD1999999-0021MW1051REMSYN017 333 20192 59002;
0118832360999991996091318004-12150-045000FM-12+044099999V0200901N00211007501CN0100001N1+03441+00891100801ADDAA106000091AG10000AY101061AY241061GF105991051021008001001001MA1999999095971MD1999999+0011MW1051REMSYN011 333 58001;
0153832360999991996091412004-12150-045000FM-12+044099999V0200901N00311220001CN0100001N1+02681+01281101491ADDAA106000091AG10000AY101061AY241061GA1001+999999999GF100991001001999999001001KA1240N+01801MA1999999096601MD1999999+0021MW1051REMSYN017 333 20180 58002;
0096832360999991996091418004-12150-045000FM-12+044099999V0201401N00211007501CN0100001N1+03431+00801100821ADDAA106000091AG10000GF105991051021008001001001MA1999999095991MD1999999+0021REMSYN011 333 58002;
0153832360999991996091512004-12150-045000FM-12+044099999V0200501N00151220001CN0100001N1+02701+01411101481ADDAA106000091AG10000AY101061AY241061GA1001+999999999GF100991001001999999001001KA1240N+01621MA1999999096561MD1999999-0041MW1051REMSYN017 333 20162 59004;
0153832360999991996091612004-12150-045000FM-12+044099999V0200901N00101220001CN0100001N1+02591+01301101371ADDAA106000091AG10000AY101061AY241061GA1001+999999999GF100991001001999999001001KA1240N+01561MA1999999096461MD1999999-0041MW1051REMSYN017 333 20156 59004;
0118832360999991996091618004-12150-045000FM-12+044099999V0203601N00151007501CN0100001N1+03271+01041100841ADDAA106000091AG10000AY101061AY241061GF105991051021008001001001MA1999999095971MD1999999-0071MW1051REMSYN011 333 59007;
0137832360999991996091712004-12150-045000FM-12+044099999V0200501N00211220001CN0100001N1+02881+01351101311ADDAA106000091AG10000AY101061AY241061GF101991011001022501051001KA1240N+01571MA1999999096421MD1999999-0041MW1051REMSYN017 333 20157 59004;
0118832360999991996091718004-12150-045000FM-12+044099999V0203601N00151007501CN0100001N1+02521+01891100791ADDAA106000091AG10000AY101061AY241061GF105991051021008001061001MA1999999095941MD1999999-0031MW1051REMSYN011 333 59003;
0137832360999991996091812004-12150-045000FM-12+044099999V0200501N00361220001CN0100001N1+02851+01101101311ADDAA106000091AG10000AY101061AY241061GF102991021001022501071001KA1240N+01591MA1999999096411MD1999999-0011MW1051REMSYN017 333 20159 59001;
0118832360999991996091818004-12150-045000FM-12+044099999V0202301N00151007501CN0100001N1+03691+01021100771ADDAA106000091AG10000AY101061AY241061GF106991051021008001081071MA1999999095941MD1999999+0001MW1051REMSYN011 333 58000;
