0121833390999991996010100004-14050-042617FM-12+088299999V0209999999999004201CN9999999N9+02201+01921101181ADDAA106000091AG10000GF108991061021004501021999MA1999999091461MD1999999-0101REMSYN017 333 10/// 59010;EQDQ01+000002VOVAR 
0143833390999991996010112004-14050-042617FM-12+088299999V0209999999999004201CN0200001N1+02261+01881101291ADDAA124008091AG10003AY161061AY261061GF106991061021004501001001KA1240N+01941MA1999999091561MD1999999-0041MW1021REMSYN023 333 20194 59004 60084;
0096833390999991996010118004-14050-042617FM-12+088299999V0209999999999220001CN0200001N1+02421+01911100931ADDAA106000091AG10000GF104991041021004501001001MA1999999091241MD1999999+0001REMSYN011 333 58000;
0143833390999991996010200004-14050-042617FM-12+088299999V0209999999999004201CN9999999N9+02181+01921101231ADDAA106000091AG10000AY101061AY201061GF107991061021004501021999MA1999999091501MD1999999+0041MW1101REMSYN017 333 10/// 58004;EQDQ01+000002VOVAR 
0137833390999991996010212004-14050-042617FM-12+088299999V0209999999999004201CN0200001N1+02281+01921101371ADDAA106000091AG10000AY101061AY201061GF106991061021004501001001KA1240N+01921MA1999999091641MD1999999+0081MW1101REMSYN017 333 20192 58008;
0096833390999991996010218004-14050-042617FM-12+088299999V0209999999999045001CN0200001N1+02661+01681101051ADDAA106000091AG10000GF105991041021004501021001MA1999999091351MD1999999+0111REMSYN011 333 58011;
0143833390999991996010300004-14050-042617FM-12+088299999V0209999999999220001CN9999999N9+02161+01901101231ADDAA106000091AG10000AY101061AY201061GF104991041021004501001001MA1999999091501MD1999999+0001MW1101REMSYN017 333 10/// 58000;EQDQ01+000002VOVAR 
0137833390999991996010312004-14050-042617FM-12+088299999V0209999999999004201CN0200001N1+02091+01871101391ADDAA106000091AG10000AY101061AY201061GF106991061021004501001001KA1240N+01831MA1999999091631MD1999999-0011MW1101REMSYN017 333 20183 59001;
0096833390999991996010318004-14050-042617FM-12+088299999V0209999999999220001CN0200001N1+02721+01281101201ADDAA106000091AG10000GF104991031021004501001021MA1999999091391MD1999999+0041REMSYN011 333 58004;
0121833390999991996010400004-14050-042617FM-12+088299999V0209999999999004201CN9999999N9+02361+01511101221ADDAA106000091AG10000GF107991061021004501021999MA1999999091491MD1999999-0011REMSYN017 333 10/// 59001;EQDQ01+000002VOVAR 
0115833390999991996010412004-14050-042617FM-12+088299999V0209999999999004201CN0200001N1+02221+01781101391ADDAA106000091AG10000GF106991061021004501001001KA1240N+01901MA1999999091661MD1999999+0031REMSYN017 333 20190 58003;
0096833390999991996010418004-14050-042617FM-12+088299999V0209999999999045001CN0200001N1+02691+01421101161ADDAA106000091AG10000GF105991041021004501021001MA1999999091461MD1999999+0071REMSYN011 333 58007;
0121833390999991996010500004-14050-042617FM-12+088299999V0209999999999220001CN9999999N9+02201+01491101221ADDAA106000091AG10000GF103991031021004501001001MA1999999091491MD1999999+0001REMSYN017 333 10/// 58000;EQDQ01+000002VOVAR 
0115833390999991996010512004-14050-042617FM-12+088299999V0209999999999220001CN0200001N1+02201+01611101291ADDAA106000091AG10000GF102991021021004501001001KA1240N+01601MA1999999091551MD1999999-0111REMSYN017 333 20160 59011;
0096833390999991996010518004-14050-042617FM-12+088299999V0209999999999220001CN0200001N1+02701+00891100971ADDAA106000091AG10000GF102991021021004501001001MA1999999091271MD1999999-0191REMSYN011 333 59019;
0115833390999991996010612004-14050-042617FM-12+088299999V0209999999999220001CN0200001N1+02151+01501101201ADDAA106000091AG10000GF102991021021004501001001KA1240N+01621MA1999999091461MD1999999-0091REMSYN017 333 20162 59009;
0096833390999991996010618004-14050-042617FM-12+088299999V0209999999999220001CN0200001N1+02681+01241100911ADDAA106000091AG10000GF102991011021004501001021MA1999999091231MD1999999-0041REMSYN011 333 59004;
0121833390999991996010700004-14050-042617FM-12+088299999V0209999999999220001CN9999999N9+02241+01431101001ADDAA106000091AG10000GF102991011021004501021001MA1999999091291MD1999999-0051REMSYN017 333 10/// 59005;EQDQ01+000002VOVAR 
0115833390999991996010712004-14050-042617FM-12+088299999V0209999999999004201CN0040001N1+02001+01741101341ADDAA106000091AG10000GF108991081051004501999999KA1240N+01701MA1999999091581MD1999999+0121REMSYN017 333 20170 58012;
0096833390999991996010718004-14050-042617FM-12+088299999V0209999999999004201CN0200001N1+02701+01191101091ADDAA106000091AG10000GF106991051021004501021001MA1999999091391MD1999999+0161REMSYN011 333 58016;
0121833390999991996010800004-14050-042617FM-12+088299999V0209999999999220001CN9999999N9+02161+01381101251ADDAA106000091AG10000GF105991041021004501001041MA1999999091501MD1999999+0211REMSYN017 333 10/// 58021;EQDQ01+000002VOVAR 
0115833390999991996010812004-14050-042617FM-12+088299999V0209999999999220001CN0200001N1+02321+01811101481ADDAA106000091AG10000GF104991041021004501001001KA1240N+01761MA1999999091741MD1999999+0161REMSYN017 333 20176 58016;
0096833390999991996010818004-14050-042617FM-12+088299999V0209999999999220001CN0200001N1+02721+01461101191ADDAA106000091AG10000GF103991031021004501001001MA1999999091481MD1999999+0091REMSYN011 333 58009;
0137833390999991996010900004-14050-042617FM-12+088299999V0209999999999220001CN9999999N9+02301+01561101301ADDAA106000091AG10000GA1001+999999999GF100991001001999999001001MA1999999091581MD1999999+0081REMSYN017 333 10/// 58008;EQDQ01+000002VOVAR 
0115833390999991996010912004-14050-042617FM-12+088299999V0209999999999004201CN0200001N1+02301+01851101571ADDAA106000091AG10000GF105991051021004501001001KA1240N+01711MA1999999091831MD1999999+0091REMSYN017 333 20171 58009;
0096833390999991996010918004-14050-042617FM-12+088299999V0209999999999220001CN0200001N1+02741+01731101191ADDAA106000091AG10000GF104991041021004501001001MA1999999091491MD1999999+0011REMSYN011 333 58001;
0137833390999991996011000004-14050-042617FM-12+088299999V0209999999999220001CN9999999N9+02321+01671101321ADDAA106000091AG10000GA1001+999999999GF100991001001999999001001MA1999999091601MD1999999+0021REMSYN017 333 10/// 58002;EQDQ01+000002VOVAR 
0115833390999991996011012004-14050-042617FM-12+088299999V0209999999999004201CN0200001N1+02341+01831101341ADDAA106000091AG10000GF106991061021004501001001KA1240N+01801MA1999999091631MD1999999-0201REMSYN017 333 20180 59020;
0096833390999991996011018004-14050-042617FM-12+088299999V0209999999999004201CN0200001N1+02701+01571100901ADDAA106000091AG10000GF105991051021004501001001MA1999999091231MD1999999-0261REMSYN011 333 59026;
0149833390999991996011100004-14050-042617FM-12+088299999V0209999999999004201CN9999999N9+02151+01881101081ADDAA106000591AG10010AY191061AY261061GF108991051021004501021999MA1999999091371MD1999999-0231MW1021REMSYN023 333 10/// 59023 69951;EQDQ01+000002VOVAR 
0143833390999991996011112004-14050-042617FM-12+088299999V0209999999999004201CN0200001N1+02321+01831101321ADDAA124000591AG10003AY161061AY221061GF106991061021004501001001KA1240N+01821MA1999999091591MD1999999-0041MW1021REMSYN023 333 20182 59004 69954;
0096833390999991996011118004-14050-042617FM-12+088299999V0209999999999004201CN0200001N1+02801+01691100891ADDAA106000091AG10000GF106991061021004501001001MA1999999091231MD1999999+0001REMSYN011 333 58000;
0137833390999991996011200004-14050-042617FM-12+088299999V0209999999999220001CN9999999N9+02221+01581101171ADDAA106000091AG10010AY191061AY201061GF102991021021004501001001MA1999999091451MD1999999+0081MW1021REMSYN011 333 58008;EQDQ01+000002VOVAR 
0115833390999991996011212004-14050-042617FM-12+088299999V0209999999999045001CN0200001N1+02081+01841101411ADDAA106000091AG10000GF108991041051004501021999KA1240N+01901MA1999999091651MD1999999+0061REMSYN017 333 20190 58006;
0096833390999991996011218004-14050-042617FM-12+088299999V0209999999999004201CN0200001N1+02481+01621101061ADDAA106000091AG10000GF106991061021004501001001MA1999999091361MD1999999+0131REMSYN011 333 58013;
0137833390999991996011300004-14050-042617FM-12+088299999V0209999999999220001CN9999999N9+02141+01331101131ADDAA106000091AG10000GA1001+999999999GF100991001001999999001001MA1999999091391MD1999999-0061REMSYN017 333 10/// 59006;EQDQ01+000002VOVAR 
0115833390999991996011312004-14050-042617FM-12+088299999V0209999999999004201CN0200001N1+02141+01661101281ADDAA106000091AG10000GF106991061021004501001001KA1240N+01841MA1999999091541MD1999999-0111REMSYN017 333 20184 59011;
0096833390999991996011318004-14050-042617FM-12+088299999V0209999999999220001CN0200001N1+02581+01581101061ADDAA106000091AG10000GF103991031021004501001001MA1999999091351MD1999999-0011REMSYN011 333 59001;
0137833390999991996011400004-14050-042617FM-12+088299999V0209999999999220001CN9999999N9+02121+01551101211ADDAA106000091AG10000GA1001+999999999GF100991001001999999001001MA1999999091471MD1999999+0081REMSYN017 333 10/// 58008;EQDQ01+000002VOVAR 
0115833390999991996011412004-14050-042617FM-12+088299999V0209999999999220001CN0200001N1+02241+01501101401ADDAA106000091AG10000GF102991021021004501001001KA1240N+01741MA1999999091651MD1999999+0111REMSYN017 333 20174 58011;
0096833390999991996011418004-14050-042617FM-12+088299999V0209999999999220001CN0200001N1+02661+01191101101ADDAA106000091AG10000GF102991021021004501001001MA1999999091401MD1999999+0051REMSYN011 333 58005;
0137833390999991996011500004-14050-042617FM-12+088299999V0209999999999220001CN9999999N9+02301+01401101151ADDAA106000091AG10000GA1001+999999999GF100991001001999999001001MA1999999091441MD1999999-0031REMSYN017 333 10/// 59003;EQDQ01+000002VOVAR 
0115833390999991996011512004-14050-042617FM-12+088299999V0209999999999220001CN0200001N1+02121+01621101341ADDAA106000091AG10000GF103991031021004501001001KA1240N+01861MA1999999091601MD1999999-0051REMSYN017 333 20186 59005;
0096833390999991996011518004-14050-042617FM-12+088299999V0209999999999220001CN0200001N1+02641+01641101021ADDAA106000091AG10000GF102991021021004501001001MA1999999091331MD1999999-0071REMSYN011 333 59007;
0137833390999991996011600004-14050-042617FM-12+088299999V0209999999999220001CN9999999N9+02201+01651101141ADDAA106000091AG10000GA1001+999999999GF100991001001999999001001MA1999999091411MD1999999-0031REMSYN017 333 10/// 59003;EQDQ01+000002VOVAR 
0115833390999991996011612004-14050-042617FM-12+088299999V0209999999999004201CN0200001N1+02091+01621101241ADDAA106000091AG10000GF106991061021004501001001KA1240N+01751MA1999999091501MD1999999-0101REMSYN017 333 20175 59010;
0096833390999991996011618004-14050-042617FM-12+088299999V0209999999999220001CN0200001N1+02661+01231100851ADDAA106000091AG10000GF104991041021004501001001MA1999999091171MD1999999-0161REMSYN011 333 59016;
0137833390999991996011700004-14050-042617FM-12+088299999V0209999999999220001CN9999999N9+02161+01431100961ADDAA106000091AG10000GA1001+999999999GF100991001001999999001001MA1999999091241MD1999999-0171REMSYN017 333 10/// 59017;EQDQ01+000002VOVAR 
0115833390999991996011712004-14050-042617FM-12+088299999V0209999999999220001CN0200001N1+02281+01751101121ADDAA106000091AG10000GF102991011021004501001041KA1240N+01851MA1999999091401MD1999999-0101REMSYN017 333 20185 59010;
0096833390999991996011718004-14050-042617FM-12+088299999V0209999999999007501CN0200001N1+02791+01331100681ADDAA106000091AG10000GF106991051021008001021001MA1999999091041MD1999999-0131REMSYN011 333 59013;
0124833390999991996011818004-14050-042617FM-12+088299999V0209999999999004201CN0040001N1+02101+00891100931ADDAA106001091AG10010AY191061AY261061GF107991061021004501021999MA1999999091201MD1999999+0161MW1171REMSYN017 333 58016 60011;
0143833390999991996011900004-14050-042617FM-12+088299999V0209999999999220001CN9999999N9+02121+01641101561ADDAA106000091AG10010AY191061AY201061GF102991021021004501001001MA1999999091241MD1999999+0031MW1021REMSYN017 333 10/// 58003;EQDQ01+000002VOVAR 
0162833390999991996011912004-14050-042617FM-12+088299999V0201401N05042220001CN0040001N1+02501+01911101091ADDAA124001091AG10003AY161061AY261061GF102991021021004501001001KA1240N+01951MA1999999091391MD1999999+0081MW1021REMSYN023 333 20195 58008 60014;EQDQ01+005043WOSPD 
0096833390999991996011918004-14050-042617FM-12+088299999V0209999999999220001CN0200001N1+03001+01001100721ADDAA106000091AG10000GF104991041021004501001001MA1999999091101MD1999999-0101REMSYN011 333 59010;
0121833390999991996012000004-14050-042617FM-12+088299999V0209999999999220001CN9999999N9+02481+01731100841ADDAA106000091AG10000GF102991021021004501001001MA1999999091211MD1999999-0031REMSYN017 333 10/// 59003;EQDQ01+000002VOVAR 
0137833390999991996012012004-14050-042617FM-12+088299999V0209999999999004201CN0200001N1+02231+01941101041ADDAA106000091AG10000AY101061AY201061GF106991061021004501001001KA1240N+02001MA1999999091351MD1999999-0041MW1101REMSYN017 333 20200 59004;
0096833390999991996012018004-14050-042617FM-12+088299999V0209999999999220001CN0200001N1+02761+01281100881ADDAA106000091AG10000GF102991021021004501001001MA1999999091241MD1999999+0141REMSYN011 333 58014;
0137833390999991996012100004-14050-042617FM-12+088299999V0209999999999220001CN9999999N9+02301+01581101041ADDAA106000091AG10000GA1001+999999999GF100991001001999999001001MA1999999091341MD1999999+0131REMSYN017 333 10/// 58013;EQDQ01+000002VOVAR 
0115833390999991996012112004-14050-042617FM-12+088299999V0209999999999004201CN0200001N1+02271+01751101141ADDAA106000091AG10000GF106991061021004501001001KA1240N+01861MA1999999091441MD1999999+0091REMSYN017 333 20186 58009;
0096833390999991996012118004-14050-042617FM-12+088299999V0209999999999220001CN0200001N1+02721+01321100911ADDAA106000091AG10000GF103991031021004501001001MA1999999091241MD1999999+0001REMSYN011 333 58000;
0137833390999991996012200004-14050-042617FM-12+088299999V0209999999999220001CN9999999N9+02271+01251100871ADDAA106000091AG10000GA1001+999999999GF100991001001999999001001MA1999999091181MD1999999-0161REMSYN017 333 10/// 59016;EQDQ01+000002VOVAR 
0115833390999991996012212004-14050-042617FM-12+088299999V0209999999999220001CN0200001N1+02261+01751101101ADDAA106000091AG10000GF102991021021004501001001KA1240N+01811MA1999999091391MD1999999-0051REMSYN017 333 20181 59005;
0096833390999991996012218004-14050-042617FM-12+088299999V0209999999999220001CN0200001N1+02741+01481100781ADDAA106000091AG10000GF103991031021004501001001MA1999999091121MD1999999-0121REMSYN011 333 59012;
0137833390999991996012300004-14050-042617FM-12+088299999V0209999999999220001CN9999999N9+02261+01441100811ADDAA106000091AG10000GA1001+999999999GF100991001001999999001001MA1999999091131MD1999999-0051REMSYN017 333 10/// 59005;EQDQ01+000002VOVAR 
0115833390999991996012312004-14050-042617FM-12+088299999V0209999999999045001CN0200001N1+02201+01651101121ADDAA106000091AG10000GF106991041021004501021001KA1240N+01721MA1999999091411MD1999999+0021REMSYN017 333 20172 58002;
0096833390999991996012318004-14050-042617FM-12+088299999V0209999999999220001CN0200001N1+02731+01441100941ADDAA106000091AG10000GF103991031021004501001001MA1999999091261MD1999999+0141REMSYN011 333 58014;
0137833390999991996012400004-14050-042617FM-12+088299999V0209999999999220001CN9999999N9+02241+01371100991ADDAA106000091AG10000GA1001+999999999GF100991001001999999001001MA1999999091281MD1999999+0151REMSYN017 333 10/// 58015;EQDQ01+000002VOVAR 
0096833390999991996012418004-14050-042617FM-12+088299999V0209999999999220001CN0200001N1+02901+01281101111ADDAA106000091AG10000GF103991031021004501001001MA1999999091431MD1999999+0171REMSYN011 333 58017;
0137833390999991996012500004-14050-042617FM-12+088299999V0209999999999220001CN9999999N9+02461+01351101201ADDAA106000091AG10000GA1001+999999999GF100991001001999999001001MA1999999091501MD1999999+0121REMSYN017 333 10/// 58012;EQDQ01+000002VOVAR 
0115833390999991996012512004-14050-042617FM-12+088299999V0209999999999045001CN0200001N1+02261+01991101431ADDAA106000091AG10000GF106991041021004501021001KA1240N+01841MA1999999091711MD1999999+0081REMSYN017 333 20184 58008;
0096833390999991996012518004-14050-042617FM-12+088299999V0209999999999220001CN0200001N1+02921+01531101151ADDAA106000091AG10000GF102991021021004501001001MA1999999091481MD1999999+0051REMSYN011 333 58005;
0137833390999991996012600004-14050-042617FM-12+088299999V0209999999999220001CN9999999N9+02401+01631101111ADDAA106000091AG10000GA1001+999999999GF100991001001999999001001MA1999999091421MD1999999-0081REMSYN017 333 10/// 59008;EQDQ01+000002VOVAR 
0115833390999991996012612004-14050-042617FM-12+088299999V0209999999999004201CN0200001N1+02331+01871101321ADDAA106000091AG10000GF106991061021004501001001KA1240N+01961MA1999999091611MD1999999-0101REMSYN017 333 20196 59010;
0096833390999991996012618004-14050-042617FM-12+088299999V0209999999999220001CN0200001N1+02861+01411100931ADDAA106000091AG10000GF103991031021004501001001MA1999999091291MD1999999-0191REMSYN011 333 59019;
0137833390999991996012700004-14050-042617FM-12+088299999V0209999999999220001CN9999999N9+02481+01431100991ADDAA106000091AG10000GA1001+999999999GF100991001001999999001001MA1999999091321MD1999999-0101REMSYN017 333 10/// 59010;EQDQ01+000002VOVAR 
0115833390999991996012712004-14050-042617FM-12+088299999V0209999999999220001CN0200001N1+02201+01581101171ADDAA106000091AG10000GF104991041021004501001001KA1240N+01711MA1999999091471MD1999999-0141REMSYN017 333 20171 59014;
0112833390999991996012718004-14050-042617FM-12+088299999V0209999999999220001CN0200001N1+02821+01171100901ADDAA106000091AG10000GA1001+999999999GF100991001001999999001001MA1999999091241MD1999999-0051REMSYN011 333 59005;
0137833390999991996012800004-14050-042617FM-12+088299999V0209999999999220001CN9999999N9+02441+01141100911ADDAA106000091AG10000GA1001+999999999GF100991001001999999001001MA1999999091231MD1999999-0091REMSYN017 333 10/// 59009;EQDQ01+000002VOVAR 
0115833390999991996012812004-14050-042617FM-12+088299999V0209999999999220001CN0200001N1+02121+01721101201ADDAA106000091AG10000GF102991021021004501001001KA1240N+01741MA1999999091491MD1999999+0021REMSYN017 333 20174 58002;
0096833390999991996012818004-14050-042617FM-12+088299999V0209999999999220001CN0200001N1+02851+01291100831ADDAA106000091AG10000GF104991041021004501001001MA1999999091171MD1999999-0071REMSYN011 333 59007;
0137833390999991996012900004-14050-042617FM-12+088299999V0209999999999220001CN9999999N9+02201+01671101091ADDAA106000091AG10000GA1001+999999999GF100991001001999999001001MA1999999091361MD1999999+0131REMSYN017 333 10/// 58013;EQDQ01+000002VOVAR 
0115833390999991996012912004-14050-042617FM-12+088299999V0209999999999004201CN0200001N1+02211+01581101251ADDAA106000091AG10000GF105991051021004501001001KA1240N+01851MA1999999091521MD1999999+0031REMSYN017 333 20185 58003;
0096833390999991996012918004-14050-042617FM-12+088299999V0209999999999220001CN0200001N1+02871+01211100921ADDAA106000091AG10000GF102991021021004501001001MA1999999091261MD1999999+0091REMSYN011 333 58009;
0121833390999991996013000004-14050-042617FM-12+088299999V0209999999999220001CN9999999N9+02201+01781101131ADDAA106000091AG10000GF102991021021004501001001MA1999999091411MD1999999+0051REMSYN017 333 10/// 58005;EQDQ01+000002VOVAR 
0115833390999991996013012004-14050-042617FM-12+088299999V0209999999999004201CN0200001N1+02141+01721101321ADDAA106000091AG10000GF106991061021004501001001KA1240N+01821MA1999999091571MD1999999+0051REMSYN017 333 20182 58005;
0096833390999991996013018004-14050-042617FM-12+088299999V0209999999999220001CN0200001N1+02731+01591101011ADDAA106000091AG10000GF104991041021004501001001MA1999999091331MD1999999+0071REMSYN011 333 58007;
0149833390999991996013100004-14050-042617FM-12+088299999V0209999999999220001CN9999999N9+02281+01791101051ADDAA106000591AG10003AY161061AY261061GF102991021021004501001001MA1999999091341MD1999999+0071MW1021REMSYN023 333 10/// 58007 69941;EQDQ01+000002VOVAR 
0143833390999991996013112004-14050-042617FM-12+088299999V0209999999999220001CN0200001N1+02241+01691101201ADDAA124000591AG10003AY161061AY261061GF102991011021004501001021KA1240N+01881MA1999999091481MD1999999-0091MW1021REMSYN023 333 20188 59009 69944;
0096833390999991996013118004-14050-042617FM-12+088299999V0209999999999220001CN0200001N1+02941+01151100841ADDAA106000091AG10000GF102991021021004501001001MA1999999091201MD1999999-0131REMSYN011 333 59013;
0137833390999991996020100004-14050-042617FM-12+088299999V0209999999999220001CN9999999N9+02491+01371100951ADDAA106000091AG10000GA1001+999999999GF100991001001999999001001MA1999999091271MD1999999-0071REMSYN017 333 10/// 59007;EQDQ01+000002VOVAR 
0137833390999991996020112004-14050-042617FM-12+088299999V0209999999999004201CN0200001N1+02261+01961101221ADDAA106000091AG10000AY101061AY201061GF106991051021004501021001KA1240N+01861MA1999999091511MD1999999-0031MW1101REMSYN017 333 20186 59003;
0121833390999991996020200004-14050-042617FM-12+088299999V0209999999999220001CN9999999N9+02401+01501100991ADDAA106000091AG10000GF104991031021004501021001MA1999999091311MD1999999+0041REMSYN017 333 10/// 58004;EQDQ01+000002VOVAR 
0131833390999991996020212004-14050-042617FM-12+088299999V0209999999999220001CN0200001N1+02621+01701101091ADDAA106000091AG10000GA1001+999999999GF100991001001999999001001KA1240N+01991MA1999999091441MD1999999-0071REMSYN017 333 20199 59007;
0124833390999991996020218004-14050-042617FM-12+088299999V0209999999999004201CN0200001N1+02501+01721100811ADDAA106001091AG10009AY191061AY261061GF106991051021004501031001MA1999999091141MD1999999-0011MW1021REMSYN017 333 59001 60011;
0121833390999991996020300004-14050-042617FM-12+088299999V02099999999990042019N9999999N9+02261+01861100951ADDAA106000091AG10000GF106991061021004501001001MA1999999091291MD1999999-0021REMSYN017 333 10/// 59002;EQDQ01+000002VOVAR 
0143833390999991996020312004-14050-042617FM-12+088299999V0209999999999004201CN0200001N1+02401+01991101111ADDAA124001091AG10003AY161061AY261061GF107991061021004501031001KA1240N+01901MA1999999091421MD1999999-0021MW1021REMSYN023 333 20190 59002 60014;
0124833390999991996020318004-14050-042617FM-12+088299999V0209999999999004201CN0040001N1+02001+01871100981ADDAA106020091AG10009AY191061AY261061GF108991081051004501999999MA1999999091241MD1999999+0101MW1171REMSYN017 333 58010 60201;
0149833390999991996020400004-14050-042617FM-12+088299999V0209999999999004201CN9999999N9+02101+01841101001ADDAA106001091AG10003AY161061AY261061GF106991061021004501001001MA1999999091301MD1999999+0011MW1101REMSYN023 333 10/// 58001 60011;EQDQ01+000002VOVAR 
0143833390999991996020412004-14050-042617FM-12+088299999V0209999999999004201CN0200001N1+02191+01861101201ADDAA124022091AG10003AY161061AY261061GF106991061021004501001001KA1240N+01881MA1999999091461MD1999999+0041MW1101REMSYN023 333 20188 58004 60224;
0124833390999991996020418004-14050-042617FM-12+088299999V0209999999999004201CN0040001N1+02001+01831101011ADDAA106008091AG10009AY191061AY261061GF107991061021004501021999MA1999999091261MD1999999+0021MW1171REMSYN017 333 58002 60081;
0143833390999991996020500004-14050-042617FM-12+088299999V0209999999999220001CN9999999N9+02041+01831101031ADDAA106000091AG10009AY191061AY201061GF102991021021004501001001MA1999999091301MD1999999+0001MW1101REMSYN017 333 10/// 58000;EQDQ01+000002VOVAR 
0162833390999991996020512004-14050-042617FM-12+088299999V0209999999999220001CN0200001N1+02301+01721101171ADDAA124008091AG10003AY161061AY261061GF104991999021004501001001KA1240N+01761MA1999999091441MD1999999-0041MW1021REMSYN023 333 20176 59004 60084;EQDQ01+000032SCOTLC
0143833390999991996020518004-14050-042617FM-12+088299999V0209999999999220001CN0200001N1+02661+01651100761ADDAA106002091AG10009AY191061AY261061GF103991999021004501001001MA1999999091081MD1999999-0181MW1021REMSYN017 333 59018 60021;EQDQ01+000022SCOTLC
0121833390999991996020600004-14050-042617FM-12+088299999V0209999999999220001CN9999999N9+02361+01971100851ADDAA106000091AG10000GF102991021021004501001001MA1999999091181MD1999999-0121REMSYN017 333 10/// 59012;EQDQ01+000002VOVAR 
0143833390999991996020612004-14050-042617FM-12+088299999V0209999999999004201CN0200001N1+02251+02071101141ADDAA124002091AG10003AY161061AY261061GF106991061021004501001001KA1240N+01761MA1999999091441MD1999999+0001MW1101REMSYN023 333 20176 58000 60024;
0096833390999991996020618004-14050-042617FM-12+088299999V0209999999999004201CN0200001N1+02831+01711100791ADDAA106000091AG10000GF106991061021004501001001MA1999999091161MD1999999+0081REMSYN011 333 58008;
0137833390999991996020700004-14050-042617FM-12+088299999V0209999999999220001CN9999999N9+02341+01621100921ADDAA106000091AG10000GA1001+999999999GF100991001001999999001001MA1999999091241MD1999999+0061REMSYN017 333 10/// 58006;EQDQ01+000002VOVAR 
0115833390999991996020712004-14050-042617FM-12+088299999V0209999999999220001CN0200001N1+02321+01701101301ADDAA106000091AG10000GF102991021021004501001001KA1240N+01801MA1999999091591MD1999999+0151REMSYN017 333 20180 58015;
0096833390999991996020718004-14050-042617FM-12+088299999V0209999999999220001CN0200001N1+02921+01031101001ADDAA106000091AG10000GF104991041021004501001001MA1999999091341MD1999999+0181REMSYN011 333 58018;
0121833390999991996020800004-14050-042617FM-12+088299999V0209999999999220001CN9999999N9+02401+00721101101ADDAA106000091AG10000GF102991011021008001001021MA1999999091411MD1999999+0171REMSYN017 333 10/// 58017;EQDQ01+000002VOVAR 
0096833390999991996020818004-14050-042617FM-12+088299999V0209999999999220001CN0200001N1+02991+00711101001ADDAA106000091AG10000GF102991021021004501001001MA1999999091361MD1999999+0021REMSYN011 333 58002;
0137833390999991996020900004-14050-042617FM-12+088299999V0209999999999220001CN9999999N9+02521+00541101031ADDAA106000091AG10000GA1001+999999999GF100991001001999999001001MA1999999091351MD1999999-0061REMSYN017 333 10/// 59006;EQDQ01+000002VOVAR 
0115833390999991996020912004-14050-042617FM-12+088299999V0209999999999220001CN0200001N1+02221+01711101301ADDAA106000091AG10000GF102991021021004501001001KA1240N+01901MA1999999091591MD1999999-0051REMSYN017 333 20190 59005;
0096833390999991996020918004-14050-042617FM-12+088299999V0209999999999220001CN0200001N1+02991+00291100971ADDAA106000091AG10000GF102991021021004501001001MA1999999091341MD1999999-0021REMSYN011 333 59002;
0137833390999991996021000004-14050-042617FM-12+088299999V0209999999999220001CN9999999N9+02371+00451100961ADDAA106000091AG10000GA1001+999999999GF100991001001999999001001MA1999999091271MD1999999-0081REMSYN017 333 10/// 59008;EQDQ01+000002VOVAR 
0131833390999991996021012004-14050-042617FM-12+088299999V0209999999999220001CN0200001N1+02381+01631101191ADDAA106000091AG10000GA1001+999999999GF100991001001999999001001KA1240N+01681MA1999999091491MD1999999-0101REMSYN017 333 20168 59010;
0096833390999991996021018004-14050-042617FM-12+088299999V0209999999999220001CN0200001N1+03091+00851100821ADDAA106000091AG10000GF104991041021004501001001MA1999999091201MD1999999-0141REMSYN011 333 59014;
0137833390999991996021100004-14050-042617FM-12+088299999V0209999999999220001CN9999999N9+02461+01011101031ADDAA106000091AG10000GA1001+999999999GF100991001001999999001001MA1999999091331MD1999999+0081REMSYN017 333 10/// 58008;EQDQ01+000002VOVAR 
0131833390999991996021112004-14050-042617FM-12+088299999V0209999999999220001CN0200001N1+02421+01701101191ADDAA106000091AG10000GA1001+999999999GF100991001001999999001001KA1240N+01851MA1999999091511MD1999999+0021REMSYN017 333 20185 58002;
0096833390999991996021118004-14050-042617FM-12+088299999V0209999999999220001CN0200001N1+03061+00951100831ADDAA106000091AG10000GF102991021021004501001001MA1999999091221MD1999999+0021REMSYN011 333 58002;
0137833390999991996021200004-14050-042617FM-12+088299999V0209999999999220001CN9999999N9+02581+00691100941ADDAA106000091AG10000GA1001+999999999GF100991001001999999001001MA1999999091301MD1999999-0051REMSYN017 333 10/// 59005;EQDQ01+000002VOVAR 
0115833390999991996021212004-14050-042617FM-12+088299999V0209999999999220001CN0200001N1+02291+01731101281ADDAA106000091AG10000GF102991021021004501001001KA1240N+01871MA1999999091591MD1999999+0081REMSYN017 333 20187 58008;
0096833390999991996021218004-14050-042617FM-12+088299999V0209999999999220001CN0200001N1+02951+00411100991ADDAA106000091AG10000GF102991011021004501001041MA1999999091351MD1999999+0131REMSYN011 333 58013;
0137833390999991996021300004-14050-042617FM-12+088299999V0209999999999220001CN9999999N9+02431+00901101001ADDAA106000091AG10000GA1001+999999999GF100991001001999999001001MA1999999091331MD1999999+0031REMSYN017 333 10/// 58003;EQDQ01+000002VOVAR 
0115833390999991996021312004-14050-042617FM-12+088299999V0209999999999220001CN0200001N1+02301+01751101301ADDAA106000091AG10000GF102991021021004501001001KA1240N+01881MA1999999091591MD1999999+0001REMSYN017 333 20188 58000;
0096833390999991996021318004-14050-042617FM-12+088299999V0209999999999220001CN0200001N1+02911+00811100961ADDAA106000091AG10000GF104991041021004501001001MA1999999091331MD1999999-0021REMSYN011 333 59002;
0121833390999991996021400004-14050-042617FM-12+088299999V0209999999999220001CN9999999N9+02481+01511101061ADDAA106000091AG10000GF103991031021004501001001MA1999999091381MD1999999+0051REMSYN017 333 10/// 58005;EQDQ01+000002VOVAR 
0115833390999991996021412004-14050-042617FM-12+088299999V0209999999999004201CN0200001N1+02221+01731101211ADDAA106000091AG10000GF105991051021004501001001KA1240N+01901MA1999999091511MD1999999-0081REMSYN017 333 20190 59008;
0124833390999991996021418004-14050-042617FM-12+088299999V0209999999999004201CN0200001N1+02401+01651101131ADDAA106000391AG10003AY161061AY261061GF107991061021004501021999MA1999999091411MD1999999+0081MW1021REMSYN017 333 58008 69931;
0143833390999991996021500004-14050-042617FM-12+088299999V0209999999999004201CN9999999N9+02001+01781101241ADDAA106000091AG10000AY101061AY201061GF106991061021004501001001MA1999999091491MD1999999+0111MW1111REMSYN017 333 10/// 58011;EQDQ01+000002VOVAR 
0143833390999991996021512004-14050-042617FM-12+088299999V0209999999999004201CN0200001N1+02151+01641101401ADDAA124000391AG10003AY161061AY261061GF105991051021004501001001KA1240N+01781MA1999999091631MD1999999+0121MW1021REMSYN023 333 20178 58012 69934;
0096833390999991996021518004-14050-042617FM-12+088299999V0209999999999220001CN0200001N1+02701+01411101081ADDAA106000091AG10000GF104991031021004501031001MA1999999091381MD1999999-0031REMSYN011 333 59003;
0121833390999991996021600004-14050-042617FM-12+088299999V0209999999999220001CN9999999N9+02371+01591101201ADDAA106000091AG10000GF102991021001004501001001MA1999999091481MD1999999-0011REMSYN017 333 10/// 59001;EQDQ01+000002VOVAR 
0143833390999991996021612004-14050-042617FM-12+088299999V0209999999999004201CN0200001N1+02001+01901101451ADDAA124002091AG10003AY161061AY261061GF106991061021004501001001KA1240N+01841MA1999999091701MD1999999+0071MW1101REMSYN023 333 20184 58007 60024;
0121833390999991996021700004-14050-042617FM-12+088299999V0209999999999220001CN9999999N9+02361+01131101211ADDAA106000091AG10000GF102991021021004501001001MA1999999091481MD1999999+0001REMSYN017 333 10/// 58000;EQDQ01+000002VOVAR 
0137833390999991996021712004-14050-042617FM-12+088299999V0209999999999004201CN0200001N1+02141+01781101251ADDAA106000091AG10000AY101061AY201061GF106991061021004501001001KA1240N+01801MA1999999091531MD1999999-0171MW1101REMSYN017 333 20180 59017;
0096833390999991996021718004-14050-042617FM-12+088299999V0209999999999220001CN0200001N1+02851+01411100891ADDAA106000091AG10000GF103991031021004501001001MA1999999091521MD1999999-0171REMSYN011 333 59017;
0143833390999991996021800004-14050-042617FM-12+088299999V0209999999999220001CN9999999N9+02161+01741101131ADDAA106000091AG10009AY191061AY201061GF102991021021004501001001MA1999999091401MD1999999-0081MW1131REMSYN017 333 10/// 59008;EQDQ01+000002VOVAR 
0137833390999991996021812004-14050-042617FM-12+088299999V0209999999999004201CN0200001N1+02121+01861101191ADDAA106000091AG10000AY101061AY201061GF106991061021004501001001KA1240N+01861MA1999999091451MD1999999-0081MW1101REMSYN017 333 20186 59008;
0137833390999991996021900004-14050-042617FM-12+088299999V0209999999999220001CN9999999N9+02481+01301100911ADDAA106000091AG10000GA1001+999999999GF100991001001999999001001MA1999999091231MD1999999-0171REMSYN017 333 10/// 59017;EQDQ01+000002VOVAR 
0137833390999991996022000004-14050-042617FM-12+088299999V0209999999999220001CN9999999N9+02481+01491100871ADDAA106000091AG10000GA1001+999999999GF100991001001999999001001MA1999999091201MD1999999-0031REMSYN017 333 10/// 59003;EQDQ01+000002VOVAR 
0115833390999991996022012004-14050-042617FM-12+088299999V0209999999999004201CN0200001N1+02291+01791101131ADDAA106000091AG10000GF105991051021004501001001KA1240N+01861MA1999999091431MD1999999-0061REMSYN017 333 20186 59006;
0096833390999991996022018004-14050-042617FM-12+088299999V0209999999999220001CN0200001N1+03031+01071100711ADDAA106000091AG10000GF102991021021004501001001MA1999999091091MD1999999-0041REMSYN011 333 59004;
0121833390999991996022100004-14050-042617FM-12+088299999V0209999999999220001CN9999999N9+02661+01071100751ADDAA106000091AG10000GF104991041021004501001001MA1999999091121MD1999999-0081REMSYN017 333 10/// 59008;EQDQ01+000002VOVAR 
0115833390999991996022112004-14050-042617FM-12+088299999V0209999999999004201CN0200001N1+02381+01911100931ADDAA106000091AG10000GF106991051021004501021001KA1240N+01951MA1999999091291MD1999999-0141REMSYN017 333 20195 59014;
0118833390999991996022118004-14050-042617FM-12+088299999V0209999999999004201CN0200001N1+02981+01761100641ADDAA106000091AG10009AY191061AY201061GF106991051021004501021001MA1999999091031MD1999999-0061MW1171REMSYN011 333 59006;
0143833390999991996022200004-14050-042617FM-12+088299999V0209999999999220001CN9999999N9+02521+01791100791ADDAA106000091AG10009AY191061AY201061GF103991031021004501001001MA1999999091151MD1999999+0031MW1021REMSYN017 333 10/// 58003;EQDQ01+000002VOVAR 
0115833390999991996022212004-14050-042617FM-12+088299999V0209999999999004201CN0200001N1+02501+01961101121ADDAA106000091AG10000GF106991051021004501031001KA1240N+02061MA1999999091451MD1999999+0161REMSYN017 333 20206 58016;
0124833390999991996022218004-14050-042617FM-12+088299999V0209999999999004201CN0040001N1+02261+01901100881ADDAA106020091AG10009AY191061AY261061GF106991051021004501021001MA1999999091191MD1999999+0161MW1101REMSYN017 333 58016 60201;
0143833390999991996022300004-14050-042617FM-12+088299999V0209999999999220001CN9999999N9+02161+01901101041ADDAA106000091AG10000AY101061AY201061GF102991021021004501001001MA1999999091351MD1999999+0201MW1101REMSYN017 333 10/// 58020;EQDQ01+000002VOVAR 
0143833390999991996022312004-14050-042617FM-12+088299999V0209999999999220001CN0200001N1+02431+01881101281ADDAA124020091AG10003AY161061AY261061GF103991021021004501021001KA1240N+01841MA1999999091561MD1999999+0111MW1021REMSYN023 333 20184 58011 60204;
0096833390999991996022318004-14050-042617FM-12+088299999V0209999999999004201CN0200001N1+02741+02001100871ADDAA106000091AG10000GF105991051021004501001001MA1999999091201MD1999999+0011REMSYN011 333 58001;
0143833390999991996022400004-14050-042617FM-12+088299999V0209999999999220001CN9999999N9+02401+01931101071ADDAA106000091AG10009AY191061AY201061GF102991021021004501001001MA1999999091391MD1999999+0041MW1131REMSYN017 333 10/// 58004;EQDQ01+000002VOVAR 
0137833390999991996022412004-14050-042617FM-12+088299999V0209999999999004201CN0200001N1+02341+02011101311ADDAA106000091AG10000AY101061AY201061GF106991061021004501001001KA1240N+01921MA1999999091601MD1999999+0041MW1101REMSYN017 333 20192 58004;
0115833390999991996022418004-14050-042617FM-12+088299999V0209999999999220001CN0200001N1+02991+01271100871ADDAA106000091AG10000GF104991999021004501001001MA1999999091251MD1999999+0051REMSYN011 333 58005;EQDQ01+000022SCOTLC
0121833390999991996022500004-14050-042617FM-12+088299999V0209999999999220001CN9999999N9+02601+01381101001ADDAA106000091AG10000GF102991021021004501001001MA1999999091341MD1999999-0041REMSYN017 333 10/// 59004;EQDQ01+000002VOVAR 
0137833390999991996022512004-14050-042617FM-12+088299999V0209999999999004201CN0200001N1+02281+01941101271ADDAA106000091AG10000AY101061AY201061GF105991051021004501001001KA1240N+01961MA1999999091581MD1999999-0021MW1101REMSYN017 333 20196 59002;
0096833390999991996022518004-14050-042617FM-12+088299999V0209999999999220001CN0200001N1+03001+00951100911ADDAA106000091AG10000GF102991021021004501001001MA1999999091291MD1999999+0041REMSYN011 333 58004;
0137833390999991996022600004-14050-042617FM-12+088299999V0209999999999220001CN9999999N9+02441+00471101001ADDAA106000091AG10000GA1001+999999999GF100991001001999999001001MA1999999091371MD1999999-0021REMSYN017 333 10/// 59002;EQDQ01+000002VOVAR 
0131833390999991996022612004-14050-042617FM-12+088299999V0209999999999220001CN0200001N1+02201+01591101271ADDAA106000091AG10000GA1001+999999999GF100991001001999999001001KA1240N+01841MA1999999091551MD1999999-0031REMSYN017 333 20184 59003;
0096833390999991996022618004-14050-042617FM-12+088299999V0209999999999220001CN0200001N1+02941+00661100871ADDAA106000091AG10000GF103991021021004501031001MA1999999091241MD1999999-0051REMSYN011 333 59005;
0121833390999991996022700004-14050-042617FM-12+088299999V0209999999999220001CN9999999N9+02381+00741101031ADDAA106000091AG10000GF102991021021004501001001MA1999999091341MD1999999+0021REMSYN017 333 10/// 58002;EQDQ01+000002VOVAR 
0115833390999991996022712004-14050-042617FM-12+088299999V0209999999999220001CN0200001N1+02201+01671101331ADDAA106000091AG10000GF102991021021004501001001KA1240N+01821MA1999999091611MD1999999+0061REMSYN017 333 20182 58006;
0096833390999991996022718004-14050-042617FM-12+088299999V0209999999999220001CN0200001N1+03021+00741100861ADDAA106000091AG10000GF104991031021004501001041MA1999999091231MD1999999-0011REMSYN011 333 59001;
0137833390999991996022800004-14050-042617FM-12+088299999V0209999999999220001CN9999999N9+02421+00861100941ADDAA106000091AG10000GA1001+999999999GF100991001001999999001001MA1999999091251MD1999999-0091REMSYN017 333 10/// 59009;EQDQ01+000002VOVAR 
0115833390999991996022812004-14050-042617FM-12+088299999V0209999999999220001CN0200001N1+02241+01671101191ADDAA106000091AG10000GF102991021021004501001001KA1240N+01841MA1999999091491MD1999999-0121REMSYN017 333 20184 59012;
0121833390999991996022900004-14050-042617FM-12+088299999V0209999999999220001CN9999999N9+02571+00901100841ADDAA106000091AG10000GF102991021021004501001001MA1999999091181MD1999999-0071REMSYN017 333 10/// 59007;EQDQ01+000002VOVAR 
0115833390999991996022912004-14050-042617FM-12+088299999V0209999999999220001CN0200001N1+02241+01691101181ADDAA106000091AG10000GF103991031021004501001001KA1240N+01901MA1999999091491MD1999999+0001REMSYN017 333 20190 58000;
0096833390999991996022918004-14050-042617FM-12+088299999V0209999999999220001CN0200001N1+03061+01001100751ADDAA106000091AG10000GF104991041021004501001001MA1999999091141MD1999999+0001REMSYN011 333 58000;
0137833390999991996030100004-14050-042617FM-12+088299999V0209999999999220001CN9999999N9+02481+00991100801ADDAA106000091AG10000GA1001+999999999GF100991001001999999001001MA1999999091141MD1999999-0041REMSYN017 333 10/// 59004;EQDQ01+000002VOVAR 
0115833390999991996030112004-14050-042617FM-12+088299999V0209999999999004201CN0200001N1+02271+01861101181ADDAA106000091AG10000GF106991061021004501001001KA1240N+01901MA1999999091481MD1999999-0011REMSYN017 333 20190 59001;
0115833390999991996030113004-14050-042617FM-12+088299999V0209999999999004201CN0200001N1+02271+01861101181ADDAA106000091AG10999GF106991061021004501001001KA1240N+01901MA1999999091481MD1999999-0011REMSYN017 333 20190 59001;
0096833390999991996030118004-14050-042617FM-12+088299999V0209999999999004201CN0200001N1+03101+00871100661ADDAA106000091AG10000GF105991051021004501001001MA1999999091051MD1999999-0091REMSYN011 333 59009;
0121833390999991996030200004-14050-042617FM-12+088299999V0209999999999220001CN9999999N9+02521+01081100861ADDAA106000091AG10000GF104991041021004501001001MA1999999091201MD1999999+0061REMSYN017 333 10/// 58006;EQDQ01+000002VOVAR 
0115833390999991996030212004-14050-042617FM-12+088299999V0209999999999220001CN0200001N1+02401+01841101261ADDAA106000091AG10000GF102991021021004501001001KA1240N+01961MA1999999091571MD1999999+0091REMSYN017 333 20196 58009;
0096833390999991996030218004-14050-042617FM-12+088299999V0209999999999004201CN0200001N1+03101+01191100721ADDAA106000091AG10000GF106991051021004501021001MA1999999091141MD1999999+0091REMSYN011 333 58009;
0121833390999991996030300004-14050-042617FM-12+088299999V0209999999999004201CN9999999N9+02421+01651100981ADDAA106000091AG10000GF107991061021004501021999MA1999999091311MD1999999+0111REMSYN017 333 10/// 58011;EQDQ01+000002VOVAR 
0115833390999991996030312004-14050-042617FM-12+088299999V0209999999999220001CN0002001N1+02381+01751101191ADDAA106000091AG10000GF102991021021004501001001KA1240N+02001MA1999999091501MD1999999-0071REMSYN017 333 20200 59007;
0096833390999991996030318004-14050-042617FM-12+088299999V0209999999999220001CN0200001N1+03081+00911100671ADDAA106000091AG10000GF104991041021004501001001MA1999999091081MD1999999-0061REMSYN011 333 59006;
0121833390999991996030400004-14050-042617FM-12+088299999V0209999999999004201CN9999999N9+02601+01171100831ADDAA106000091AG10000GF106991051021004501021001MA1999999091201MD1999999-0111REMSYN017 333 10/// 59011;EQDQ01+000002VOVAR 
0115833390999991996030412004-14050-042617FM-12+088299999V0209999999999004201CN0200001N1+02281+01811101071ADDAA106000091AG10000GF106991051021004501021001KA1240N+01971MA1999999091401MD1999999-0101REMSYN017 333 20197 59010;
0124833390999991996030418004-14050-042617FM-12+088299999V0209999999999004201CN0200001N1+02601+02141100651ADDAA106003091AG10008AY191061AY261061GF106991061021004501001001MA1999999091021MD1999999-0061MW1021REMSYN017 333 59006 60031;
0143833390999991996030500004-14050-042617FM-12+088299999V0209999999999220001CN9999999N9+02321+01981100921ADDAA106000091AG10000AY101061AY201061GF104991041021004501001001MA1999999091241MD1999999+0041MW1101REMSYN017 333 10/// 58004;EQDQ01+000002VOVAR 
0143833390999991996030512004-14050-042617FM-12+088299999V0209999999999004201CN0200001N1+02481+01851101151ADDAA124003091AG10003AY161061AY221061GF106991061021004501001001KA1240N+02061MA1999999091461MD1999999+0061MW1021REMSYN023 333 20206 58006 60034;
0121833390999991996030600004-14050-042617FM-12+088299999V0209999999999045001CN9999999N9+02291+01901101061ADDAA106000091AG10000GF106991041021004501031001MA1999999091381MD1999999+0141REMSYN017 333 10/// 58014;EQDQ01+000002VOVAR 
0115833390999991996030612004-14050-042617FM-12+088299999V0209999999999004201CN0200001N1+02361+01951101421ADDAA106000091AG10000GF106991061021004501001001KA1240N+01931MA1999999091681MD1999999+0221REMSYN017 333 20193 58022;
0096833390999991996030618004-14050-042617FM-12+088299999V0209999999999220001CN0700001N1+03061+01551100881ADDAA106000091AG10000GF104991041021004501001001MA1999999091261MD1999999+0111REMSYN011 333 58011;
0121833390999991996030700004-14050-042617FM-12+088299999V0209999999999220001CN9999999N9+02641+01351101001ADDAA106000091AG10000GF104991021021004501001011MA1999999091351MD1999999-0031REMSYN017 333 10/// 59003;EQDQ01+000002VOVAR 
0115833390999991996030712004-14050-042617FM-12+088299999V0209999999999220001CN0200001N1+02381+01801101231ADDAA106000091AG10000GF103991031021004501001001KA1240N+01981MA1999999091551MD1999999-0131REMSYN017 333 20198 59013;
0096833390999991996030718004-14050-042617FM-12+088299999V0209999999999220001CN0200001N1+03161+01141100761ADDAA106000091AG10000GF103991031021004501001001MA1999999091171MD1999999-0091REMSYN011 333 59009;
0137833390999991996030800004-14050-042617FM-12+088299999V0209999999999220001CN9999999N9+02641+01351100971ADDAA106000091AG10000GA1001+999999999GF100991001001999999001001MA1999999091331MD1999999-0021REMSYN017 333 10/// 59002;EQDQ01+000002VOVAR 
0115833390999991996030812004-14050-042617FM-12+088299999V0209999999999220001CN0200001N1+02621+02031101261ADDAA106000091AG10000GF102991021021004501001001KA1240N+01981MA1999999091611MD1999999+0061REMSYN017 333 20198 58006;
0124833390999991996030818004-14050-042617FM-12+088299999V0209999999999004201CN0010001N1+02741+02141100871ADDAA106003091AG10000AY121061AY221061GF106991061021004501001001MA1999999091481MD1999999+0071MW1601REMSYN017 333 58007 60031;
0149833390999991996030900004-14050-042617FM-12+088299999V0209999999999004201CN9999999N9+02631+01751101101ADDAA106000591AG10003AY161061AY221061GF106991061021004501001001MA1999999091461MD1999999+0131MW1131REMSYN023 333 10/// 58013 69961;EQDQ01+000002VOVAR 
0143833390999991996030912004-14050-042617FM-12+088299999V0209999999999004201CN0200001N1+02161+02061101491ADDAA124007091AG10008AY191061AY261061GF108991051021004501021999KA1240N+01921MA1999999091771MD1999999+0161MW1021REMSYN023 333 20192 58016 60074;
0137833390999991996031000004-14050-042617FM-12+088299999V0209999999999220001CN9999999N9+02541+01861101121ADDAA106000091AG10000GA1001+999999999GF100991001001999999001001MA1999999091431MD1999999-0031REMSYN017 333 10/// 59003;EQDQ01+000002VOVAR 
0134833390999991996031012004-14050-042617FM-12+088299999V0209999999999004201CN0200001N1+02481+02111101341ADDAA106000091AG10000GF105991051021004501001001KA1240N+02101MA1999999999999MD1999999-0121REMSYN017 333 20210 59012;EQDQ01 101653APOSP 
0115833390999991996031018004-14050-042617FM-12+088299999V0209999999999004201CN0200001N1+03181+01801100811ADDAA106000091AG10000GF106991061021004501001001MA1999999091222MD1999999-0141REMSYN011 333 59014;EQDQ01+091223APOSP 
0143833390999991996031100004-14050-042617FM-12+088299999V0209999999999004201CN9999999N9+02361+01971101061ADDAA106000091AG10008AY191061AY221061GF106991061021004501001001MA1999999091381MD1999999-0051MW1131REMSYN017 333 10/// 59005;EQDQ01+000002VOVAR 
0115833390999991996031112004-14050-042617FM-12+088299999V0209999999999004201CN0200001N1+02421+01571101301ADDAA106000091AG10000GF106991051021004501021001KA1240N+02121MA1999999091601MD1999999-0051REMSYN017 333 20212 59005;
0143833390999991996031200004-14050-042617FM-12+088299999V0209999999999220001CN9999999N9+02381+02151100991ADDAA106000091AG10000AY101061AY201061GF102991021021004501001001MA1999999091321MD1999999-0061MW1101REMSYN017 333 10/// 59006;EQDQ01+000002VOVAR 
0137833390999991996031212004-14050-042617FM-12+088299999V0209999999999004201CN0200001N1+02361+02111101071ADDAA106000091AG10000AY101061AY201061GF106991061021004501001001KA1240N+02061MA1999999091381MD1999999-0221MW1101REMSYN017 333 20206 59022;
0096833390999991996031218004-14050-042617FM-12+088299999V0209999999999220001CN0200001N1+03001+01331100651ADDAA106000091AG10000GF103991031021004501001001MA1999999091051MD1999999-0121REMSYN011 333 59012;
0137833390999991996031300004-14050-042617FM-12+088299999V0209999999999220001CN9999999N9+02571+01651100911ADDAA106000091AG10000GA1001+999999999GF100991001001999999001001MA1999999091251MD1999999-0071REMSYN017 333 10/// 59007;EQDQ01+000002VOVAR 
0137833390999991996031312004-14050-042617FM-12+088299999V0209999999999004201CN0040001N1+02301+02171101191ADDAA106000091AG10000AY101061AY201061GF106991051021004501031001KA1240N+02061MA1999999091511MD1999999+0131MW1101REMSYN017 333 20206 58013;
0096833390999991996031318004-14050-042617FM-12+088299999V0209999999999004201CN0200001N1+03001+01491100841ADDAA106000091AG10000GF105991051021004501001001MA1999999091231MD1999999+0181REMSYN011 333 58018;
0121833390999991996031400004-14050-042617FM-12+088299999V0209999999999220001CN9999999N9+02421+01741101131ADDAA106000091AG10000GF102991021021004501001001MA1999999091441MD1999999+0191REMSYN017 333 10/// 58019;EQDQ01+000002VOVAR 
0137833390999991996031412004-14050-042617FM-12+088299999V0209999999999004201CN0040001N1+02261+02181101421ADDAA106000091AG10000AY101061AY201061GF108991081051004501999999KA1240N+02061MA1999999091701MD1999999+0191MW1101REMSYN017 333 20206 58019;
0096833390999991996031418004-14050-042617FM-12+088299999V0209999999999004201CN0200001N1+02951+01511101001ADDAA106000091AG10000GF106991061021004501001001MA1999999091341MD1999999+0111REMSYN011 333 58011;
0137833390999991996031512004-14050-042617FM-12+088299999V0209999999999004201CN0040001N1+02221+02151101321ADDAA106000091AG10000AY101061AY201061GF108991081051004501999999KA1240N+02081MA1999999091611MD1999999-0091MW1101REMSYN017 333 20208 59009;
0124833390999991996031518004-14050-042617FM-12+088299999V0209999999999004201CN0200001N1+02441+01901101041ADDAA106000391AG10003AY161061AY261061GF106991061021004501001001MA1999999091351MD1999999+0011MW1021REMSYN017 333 58001 69931;
0121833390999991996031600004-14050-042617FM-12+088299999V0209999999999220001CN9999999N9+02141+01501101221ADDAA106000091AG10000GF102991021021004501001001MA1999999091491MD1999999+0081REMSYN017 333 10/// 58008;EQDQ01+000002VOVAR 
0143833390999991996031612004-14050-042617FM-12+088299999V0209999999999004201CN0200001N1+02261+01801101291ADDAA124000391AG10003AY161061AY261061GF105991051021004501001001KA1240N+01861MA1999999091551MD1999999-0061MW1101REMSYN023 333 20186 59006 69934;
0096833390999991996031618004-14050-042617FM-12+088299999V0209999999999220001CN0200001N1+02921+01601100751ADDAA106000091AG10000GF102991021021004501001001MA1999999091121MD1999999-0231REMSYN011 333 59023;
0137833390999991996031700004-14050-042617FM-12+088299999V0209999999999220001CN9999999N9+02491+01511100831ADDAA106000091AG10000GA1001+999999999GF100991001001999999001001MA1999999091161MD1999999-0331REMSYN017 333 10/// 59033;EQDQ01+000002VOVAR 
0115833390999991996031712004-14050-042617FM-12+088299999V0209999999999220001CN0200001N1+02471+02031101161ADDAA106000091AG10000GF104991041021004501001001KA1240N+02061MA1999999091491MD1999999-0061REMSYN017 333 20206 59006;
0096833390999991996031718004-14050-042617FM-12+088299999V0209999999999045001CN0200001N1+03151+01321100681ADDAA106000091AG10000GF105991041021004501021001MA1999999091091MD1999999-0031REMSYN011 333 59003;
0121833390999991996031800004-14050-042617FM-12+088299999V0209999999999220001CN9999999N9+02501+01561100961ADDAA106000091AG10000GF102991021021004501001001MA1999999091321MD1999999+0161REMSYN017 333 10/// 58016;EQDQ01+000002VOVAR 
0115833390999991996031812004-14050-042617FM-12+088299999V0209999999999004201CN0200001N1+02201+01991101341ADDAA106000091AG10000GF108991051021004501021999KA1240N+02041MA1999999090631MD1999999+0141REMSYN017 333 20204 58014;
0096833390999991996031818004-14050-042617FM-12+088299999V0209999999999220001CN0200001N1+02961+01531100901ADDAA106000091AG10000GF104991041021004501001001MA1999999091271MD1999999+0181REMSYN011 333 58018;
0137833390999991996031900004-14050-042617FM-12+088299999V0209999999999220001CN9999999N9+02481+01571101161ADDAA106000091AG10000GA1001+999999999GF100991001001999999001001MA1999999091461MD1999999+0141REMSYN017 333 10/// 58014;EQDQ01+000002VOVAR 
0115833390999991996031912004-14050-042617FM-12+088299999V0209999999999004201CN0200001N1+99999+99999101391ADDAA106000091AG10000GF106991061021004501001001KA1240N+01921MA1999999091671MD1999999+0041REMSYN017 333 20192 58004;
0096833390999991996031918004-14050-042617FM-12+088299999V0209999999999220001CN0200001N1+03101+01141100931ADDAA106000091AG10000GF103991031021004501001001MA1999999091311MD1999999+0041REMSYN011 333 58004;
0137833390999991996032000004-14050-042617FM-12+088299999V0209999999999220001CN9999999N9+02541+00931101141ADDAA106000091AG10000GA1001+999999999GF100991001001999999001001MA1999999091451MD1999999-0011REMSYN017 333 10/// 59001;EQDQ01+000002VOVAR 
0096833390999991996032018004-14050-042617FM-12+088299999V0209999999999220001CN0200001N1+03101+01141100811ADDAA106000091AG10000GF103991031021004501001001MA1999999091201MD1999999-0111REMSYN011 333 59011;
0131833390999991996032112004-14050-042617FM-12+088299999V0209999999999220001CN0200001N1+02481+01901101201ADDAA106000091AG10000GA1001+999999999GF100991001001999999001001KA1240N+01901MA1999999091531MD1999999-0121REMSYN017 333 20190 59012;
0096833390999991996032118004-14050-042617FM-12+088299999V0209999999999220001CN0200001N1+03161+01091100711ADDAA106000091AG10000GF104991031021004501001041MA1999999091131MD1999999-0071REMSYN011 333 59007;
0137833390999991996032200004-14050-042617FM-12+088299999V0209999999999220001CN9999999N9+02561+01101100951ADDAA106000091AG10000GA1001+999999999GF100991001001999999001001MA1999999091311MD1999999-0061REMSYN017 333 10/// 59006;EQDQ01+000002VOVAR 
0115833390999991996032212004-14050-042617FM-12+088299999V0209999999999220001CN0200001N1+02421+01821101191ADDAA106000091AG10000GF102991021021004501001001KA1240N+02061MA1999999091521MD1999999-0011REMSYN017 333 20206 59001;
0096833390999991996032218004-14050-042617FM-12+088299999V0209999999999220001CN0200001N1+03121+01391100791ADDAA106000091AG10000GF104991041021004501001001MA1999999091191MD1999999+0061REMSYN011 333 58006;
0137833390999991996032300004-14050-042617FM-12+088299999V0209999999999220001CN9999999N9+02591+01301101011ADDAA106000091AG10000GA1001+999999999GF100991001001999999001001MA1999999091361MD1999999+0051REMSYN017 333 10/// 58005;EQDQ01+000002VOVAR 
0115833390999991996032312004-14050-042617FM-12+088299999V0209999999999220001CN0200001N1+02501+01871101261ADDAA106000091AG10000GF103991021021004501001011KA1240N+02021MA1999999091601MD1999999+0081REMSYN017 333 20202 58008;
0143833390999991996032400004-14050-042617FM-12+088299999V0209999999999220001CN9999999N9+02741+01301100921ADDAA106000091AG10000AY121061AY221061GF103991031021004501001001MA1999999091301MD1999999-0061MW1131REMSYN017 333 10/// 59006;EQDQ01+000002VOVAR 
0115833390999991996032412004-14050-042617FM-12+088299999V0209999999999045001CN0200001N1+02421+02011101171ADDAA106000091AG10000GF106991041021004501031001KA1240N+02221MA1999999091531MD1999999-0071REMSYN017 333 20222 59007;
0096833390999991996032418004-14050-042617FM-12+088299999V0209999999999220001CN0200001N1+02801+01811100771ADDAA106000091AG10000GF105991021021004501001041MA1999999091161MD1999999+0071REMSYN011 333 58007;
0121833390999991996032500004-14050-042617FM-12+088299999V0209999999999045001CN9999999N9+02541+01781100911ADDAA106000091AG10000GF106991031021004501031001MA1999999091261MD1999999-0041REMSYN017 333 10/// 59004;EQDQ01+000002VOVAR 
0115833390999991996032512004-14050-042617FM-12+088299999V0209999999999004201CN0200001N1+02531+02071101161ADDAA106000091AG10000GF106991061021004501001001KA1240N+02141MA1999999091511MD1999999-0021REMSYN017 333 20214 59002;
0118833390999991996032518004-14050-042617FM-12+088299999V0209999999999004201CN0100001N1+02341+01811100861ADDAA106000091AG10008AY191061AY201061GF107991061021004501021999MA1999999091181MD1999999+0021MW1021REMSYN011 333 58002;
0143833390999991996032600004-14050-042617FM-12+088299999V0209999999999220001CN9999999N9+02141+01881101011ADDAA106000091AG10000AY101061AY201061GF102991021021004501001001MA1999999091331MD1999999+0071MW1101REMSYN017 333 10/// 58007;EQDQ01+000002VOVAR 
0096833390999991996032618004-14050-042617FM-12+088299999V0209999999999004201CN0200001N1+03021+01661100751ADDAA106000091AG10000GF105991051021004501001001MA1999999091131MD1999999-0051REMSYN011 333 59005;
0115833390999991996032712004-14050-042617FM-12+088299999V0209999999999220001CN0200001N1+02321+01791101411ADDAA106000091AG10000GF102991021021004501001001KA1240N+01951MA1999999091701MD1999999+0171REMSYN017 333 20195 58017;
0096833390999991996032718004-14050-042617FM-12+088299999V0209999999999220001CN0200001N1+02991+00711101111ADDAA106000091AG10000GF102991011021004501001021MA1999999091461MD1999999+0331REMSYN011 333 58033;
0137833390999991996032800004-14050-042617FM-12+088299999V0209999999999220001CN9999999N9+02461+01221101331ADDAA106000091AG10000GA1001+999999999GF100991001001999999001001MA1999999091631MD1999999+0201REMSYN017 333 10/// 58020;EQDQ01+000002VOVAR 
0115833390999991996032812004-14050-042617FM-12+088299999V0209999999999220001CN0200001N1+02341+01601101501ADDAA106000091AG10000GF102991021021004501001001KA1240N+01941MA1999999091781MD1999999+0081REMSYN017 333 20194 58008;
0096833390999991996032818004-14050-042617FM-12+088299999V0209999999999220001CN0200001N1+02971+01291101071ADDAA106000091AG10000GF103991031021004501001001MA1999999091431MD1999999-0031REMSYN011 333 59003;
0121833390999991996032900004-14050-042617FM-12+088299999V0209999999999220001CN9999999N9+02491+01681101301ADDAA106000091AG10000GF104991041021004501001001MA1999999091581MD1999999-0051REMSYN017 333 10/// 59005;EQDQ01+000002VOVAR 
0115833390999991996032912004-14050-042617FM-12+088299999V0209999999999220001CN0200001N1+02401+01751101461ADDAA106000091AG10000GF102991021021004501001001KA1240N+01971MA1999999091751MD1999999-0031REMSYN017 333 20197 59003;
0137833390999991996033000004-14050-042617FM-12+088299999V0209999999999220001CN9999999N9+02501+01671101131ADDAA106000091AG10000GA1001+999999999GF100991001001999999001001MA1999999091451MD1999999-0131REMSYN017 333 10/// 59013;EQDQ01+000002VOVAR 
0137833390999991996033012004-14050-042617FM-12+088299999V0209999999999004201CN0040001N1+02201+01941101371ADDAA106000091AG10000AY101061AY201061GF108991081051004501999999KA1240N+01941MA1999999091651MD1999999-0101MW1101REMSYN017 333 20194 59010;
0096833390999991996033018004-14050-042617FM-12+088299999V0209999999999220001CN0200001N1+02861+01551100961ADDAA106000091AG10000GF104991041021004501001001MA1999999091301MD1999999-0031REMSYN011 333 59003;
0143833390999991996033100004-14050-042617FM-12+088299999V0209999999999004201CN9999999N9+02271+02091101181ADDAA106000091AG10000AY101061AY201061GF106991051021004501021001MA1999999091461MD1999999+0011MW1101REMSYN017 333 10/// 58001;EQDQ01+000002VOVAR 
0137833390999991996033112004-14050-042617FM-12+088299999V0209999999999004201CN0200001N1+02241+01961101391ADDAA106000091AG10000AY101061AY201061GF106991061021004501001001KA1240N+01961MA1999999091651MD1999999+0001MW1101REMSYN017 333 20196 58000;
0115833390999991996033118004-14050-042617FM-12+088299999V0209999999999004201CN0200001N1+02961+01531100931ADDAA106000091AG10000GF106991999021004501001001MA1999999091271MD1999999-0031REMSYN011 333 59003;EQDQ01+000052SCOTLC
0143833390999991996040100004-14050-042617FM-12+088299999V0209999999999004201CN9999999N9+02321+01981101251ADDAA106000091AG10000AY101061AY201061GF105991051021004501001001MA1999999091541MD1999999+0081MW1101REMSYN017 333 10/// 58008;EQDQ01+000002VOVAR 
0115833390999991996040112004-14050-042617FM-12+088299999V0209999999999004201CN0200001N1+02341+01911101481ADDAA106000091AG10000GF106991061021004501001001KA1240N+01951MA1999999091751MD1999999+0101REMSYN017 333 20195 58010;
0096833390999991996040118004-14050-042617FM-12+088299999V0209999999999220001CN0200001N1+03041+01601100961ADDAA106000091AG10000GF104991041021004501001001MA1999999091331MD1999999+0061REMSYN011 333 58006;
0137833390999991996040200004-14050-042617FM-12+088299999V0209999999999220001CN9999999N9+02521+01241101261ADDAA106000091AG10000GA1001+999999999GF100991001001999999001001MA1999999091571MD1999999+0031REMSYN017 333 10/// 58003;EQDQ01+000002VOVAR 
0102833390999991996040212004-14050-042617FM-12+088299999V0209999999999220001CN0200001N1+03041+01601100961ADDAA106000091AG10000GF104991041021004501001001MA1999999091331MD1999999+0061REMSYN017 333 20/// 58006;
0096833390999991996040218004-14050-042617FM-12+088299999V0209999999999220001CN0200001N1+03021+01351100871ADDAA106000091AG10000GF103991031021004501001001MA1999999091261MD1999999-0071REMSYN011 333 59007;
0137833390999991996040300004-14050-042617FM-12+088299999V0209999999999220001CN9999999N9+02441+01641101101ADDAA106000091AG10000GA1001+999999999GF100991001001999999001001MA1999999091411MD1999999-0161REMSYN017 333 10/// 59016;EQDQ01+000002VOVAR 
0115833390999991996040312004-14050-042617FM-12+088299999V02099999999999999999N0200001N1+02221+01841999999ADDAA106000091AG10000GF105991999999004501999999KA1240N+01961MA1999999091681MD1999999-0121REMSYN017 333 20196 59012;
0121833390999991996040400004-14050-042617FM-12+088299999V0209999999999220001CN9999999N9+02401+01991101191ADDAA106000091AG10000GF102991021021004501001001MA1999999091481MD1999999+0071REMSYN017 333 10/// 58007;EQDQ01+000002VOVAR 
0115833390999991996040412004-14050-042617FM-12+088299999V0209999999999004201CN0200001N1+02241+01821101351ADDAA106000091AG10000GF106991061021004501001001KA1240N+01971MA1999999091631MD1999999+0001REMSYN017 333 20197 58000;
0096833390999991996040418004-14050-042617FM-12+088299999V0209999999999004201CN0200001N1+02881+01601100821ADDAA106000091AG10000GF105991051021004501001001MA1999999091201MD1999999-0121REMSYN011 333 59012;
0121833390999991996040500004-14050-042617FM-12+088299999V0209999999999220001CN9999999N9+02241+01901101251ADDAA106000091AG10000GF104991041021004501001001MA1999999091531MD1999999+0051REMSYN017 333 10/// 58005;EQDQ01+000002VOVAR 
0115833390999991996040512004-14050-042617FM-12+088299999V0209999999999004201CN0200001N1+02271+01961101301ADDAA106000091AG10000GF106991061021004501001001KA1240N+01921MA1999999091571MD1999999-0061REMSYN017 333 20192 59006;
0096833390999991996040518004-14050-042617FM-12+088299999V0209999999999220001CN0200001N1+02901+01161100821ADDAA106000091AG10000GF104991041021004501001001MA1999999091181MD1999999-0021REMSYN011 333 59002;
0121833390999991996040600004-14050-042617FM-12+088299999V0209999999999220001CN9999999N9+02401+01651101091ADDAA106000091AG10000GF102991021021004501001001MA1999999091401MD1999999-0131REMSYN017 333 10/// 59013;EQDQ01+000002VOVAR 
0115833390999991996040612004-14050-042617FM-12+088299999V0209999999999220001CN0200001N1+02301+01811101271ADDAA106000091AG10000GF102991021021004501001001KA1240N+01881MA1999999091561MD1999999-0011REMSYN017 333 20188 59001;
0096833390999991996040618004-14050-042617FM-12+088299999V0209999999999220001CN0200001N1+03021+01171100781ADDAA106000091AG10000GF104991041021004501001001MA1999999091151MD1999999-0031REMSYN011 333 59003;
0121833390999991996040700004-14050-042617FM-12+088299999V0209999999999220001CN9999999N9+02541+01161100961ADDAA106000091AG10000GF102991021021004501001001MA1999999091291MD1999999-0111REMSYN017 333 10/// 59011;EQDQ01+000002VOVAR 
0131833390999991996040712004-14050-042617FM-12+088299999V0209999999999220001CN0200001N1+02451+01831101271ADDAA106000091AG10000GA1001+999999999GF100991001001999999001001KA1240N+01831MA1999999091591MD1999999+0031REMSYN017 333 20183 58003;
0115833390999991996040718004-14050-042617FM-12+088299999V0209999999999220001CN0200001N1+03121+01161100761ADDAA106000091AG10000GF106991041021004501001011MA1999999101162MD1999999+0011REMSYN011 333 58001;EQDQ01+101163APOSP 
0115833390999991996040812004-14050-042617FM-12+088299999V0209999999999220001CN0200001N1+02351+01911101311ADDAA106000091AG10000GF102991021021004501001001KA1240N+02001MA1999999091621MD1999999+0031REMSYN017 333 20200 58003;
0096833390999991996040818004-14050-042617FM-12+088299999V0209999999999004201CN0200001N1+02961+01211100921ADDAA106000091AG10000GF106991051021004501021001MA1999999091311MD1999999+0151REMSYN011 333 58015;
0121833390999991996040900004-14050-042617FM-12+088299999V0209999999999220001CN9999999N9+02571+01171101211ADDAA106000091AG10000GF104991031021004501021001MA1999999091531MD1999999+0211REMSYN017 333 10/// 58021;EQDQ01+000002VOVAR 
0137833390999991996040912004-14050-042617FM-12+088299999V0209999999999004201CN0040001N1+02251+01981101501ADDAA106000091AG10000AY101061AY201061GF108991081051004501999999KA1240N+02081MA1999999091781MD1999999+0161MW1101REMSYN017 333 20208 58016;
0096833390999991996040918004-14050-042617FM-12+088299999V0209999999999004201CN0200001N1+02721+01241101191ADDAA106000091AG10000GF106991061021004501031001MA1999999091501MD1999999+0191REMSYN011 333 58019;
0121833390999991996041000004-14050-042617FM-12+088299999V0209999999999220001CN9999999N9+02371+01381101301ADDAA106000091AG10000GF104991041021004501001001MA1999999091581MD1999999+0051REMSYN017 333 10/// 58005;EQDQ01+000002VOVAR 
0137833390999991996041012004-14050-042617FM-12+088299999V0209999999999004201CN0200001N1+02221+02011101491ADDAA106000091AG10000AY101061AY201061GF106991051021004501031001KA1240N+02001MA1999999091751MD1999999-0031MW1101REMSYN017 333 20200 59003;
0115833390999991996041018004-14050-042617FM-12+088299999V02099999999999999999N0200001N1+03131+01211100841ADDAA106000091AG10000GF105991999021004501001001MA1999999091231MD1999999-0271REMSYN011 333 59027;EQDQ01+000042SCOTLC
0121833390999991996041100004-14050-042617FM-12+088299999V0209999999999220001CN9999999N9+02421+01821101171ADDAA106000091AG10000GF103991031021004501001001MA1999999091461MD1999999-0121REMSYN017 333 10/// 59012;EQDQ01+000002VOVAR 
0115833390999991996041112004-14050-042617FM-12+088299999V0209999999999220001CN0200001N1+02341+01871101391ADDAA106000091AG10000GF103991031021004501001001KA1240N+02001MA1999999091681MD1999999-0071REMSYN017 333 20200 59007;
0096833390999991996041118004-14050-042617FM-12+088299999V0209999999999220001CN0200001N1+03051+01141100841ADDAA106000091AG10000GF104991041021004501001001MA1999999091231MD1999999+0001REMSYN011 333 58000;
0121833390999991996041200004-14050-042617FM-12+088299999V0209999999999220001CN9999999N9+02381+01801101101ADDAA106000091AG10000GF102991021021004501001001MA1999999091411MD1999999-0061REMSYN017 333 10/// 59006;EQDQ01+000002VOVAR 
0115833390999991996041212004-14050-042617FM-12+088299999V0209999999999004201CN0200001N1+02361+02011101261ADDAA106000091AG10000GF106991061021004501001001KA1240N+02041MA1999999091551MD1999999-0131REMSYN017 333 20204 59013;
0096833390999991996041218004-14050-042617FM-12+088299999V0209999999999004201CN0200001N1+02641+01881100741ADDAA106000091AG10000GF106991051021004501031001MA1999999091081MD1999999-0151REMSYN011 333 59015;
0143833390999991996041300004-14050-042617FM-12+088299999V0209999999999004201CN9999999N9+02141+01991101181ADDAA106000091AG10000AY121061AY221061GF108991051021004501001999MA1999999091471MD1999999+0061MW1131REMSYN017 333 10/// 58006;EQDQ01+000002VOVAR 
0143833390999991996041312004-14050-042617FM-12+088299999V0209999999999004201CN0200001N1+02121+01951101331ADDAA124001091AG10002AY161061AY221061GF108991051021004501021999KA1240N+01951MA1999999091581MD1999999+0031MW1021REMSYN023 333 20195 58003 60014;
0096833390999991996041318004-14050-042617FM-12+088299999V0209999999999004201CN0200001N1+02701+01541100841ADDAA106000091AG10000GF108991061021004501021999MA1999999091171MD1999999+0091REMSYN011 333 58009;
0121833390999991996041400004-14050-042617FM-12+088299999V0209999999999220001CN9999999N9+02201+01921101101ADDAA106000091AG10000GF102991021021004501001001MA1999999091371MD1999999-0101REMSYN017 333 10/// 59010;EQDQ01+000002VOVAR 
0096833390999991996041418004-14050-042617FM-12+088299999V0209999999999004201CN0200001N1+02861+01441100931ADDAA106000091AG10000GF105991051021004501001001MA1999999091271MD1999999+0101REMSYN011 333 58010;
0137833390999991996041500004-14050-042617FM-12+088299999V0209999999999220001CN9999999N9+02421+01491101231ADDAA106000091AG10000GA1001+999999999GF100991001001999999001001MA1999999091141MD1999999+0171REMSYN017 333 10/// 58017;EQDQ01+000002VOVAR 
0096833390999991996041518004-14050-042617FM-12+088299999V0209999999999045001CN0200001N1+02881+01221101001ADDAA106000091AG10000GF105991031021004501031011MA1999999091341MD1999999+0071REMSYN011 333 58007;
0137833390999991996041600004-14050-042617FM-12+088299999V0209999999999220001CN9999999N9+02461+01411101231ADDAA106000091AG10000GA1001+999999999GF100991001001999999001001MA1999999091541MD1999999+0001REMSYN017 333 10/// 58000;EQDQ01+000002VOVAR 
0115833390999991996041612004-14050-042617FM-12+088299999V0209999999999220001CN0200001N1+02231+01751101421ADDAA106000091AG10000GF104991021021004501001041KA1240N+01861MA1999999091701MD1999999-0041REMSYN017 333 20186 59004;
0096833390999991996041618004-14050-042617FM-12+088299999V0209999999999045001CN0200001N1+02981+00771100881ADDAA106000091AG10000GF105991041021004501021001MA1999999091301MD1999999-0041REMSYN011 333 59004;
0137833390999991996041700004-14050-042617FM-12+088299999V0209999999999220001CN9999999N9+02401+01381101101ADDAA106000091AG10000GA1001+999999999GF100991001001999999001001MA1999999091401MD1999999-0141REMSYN017 333 10/// 59014;EQDQ01+000002VOVAR 
0131833390999991996041712004-14050-042617FM-12+088299999V0209999999999220001CN0200001N1+02421+01741101311ADDAA106000091AG10000GA1001+999999999GF100991001001999999001001KA1240N+01771MA1999999091611MD1999999-0091REMSYN017 333 20177 59009;
0096833390999991996041718004-14050-042617FM-12+088299999V0209999999999004201CN0200001N1+03061+01341100681ADDAA106000091AG10000GF105991051021004501001001MA1999999091071MD1999999-0231REMSYN011 333 59023;
0137833390999991996041800004-14050-042617FM-12+088299999V0209999999999220001CN9999999N9+02141+01191100891ADDAA106000091AG10000GA1001+999999999GF100991001001999999001001MA1999999091251MD1999999-0151REMSYN017 333 10/// 59015;EQDQ01+000002VOVAR 
0115833390999991996041812004-14050-042617FM-12+088299999V0209999999999220001CN0200001N1+02621+01731101131ADDAA106000091AG10000GF102991021021004501001001KA1240N+01961MA1999999091491MD1999999-0121REMSYN017 333 20196 59012;
0143833390999991996041900004-14050-042617FM-12+088299999V0209999999999220001CN9999999N9+02461+01731101041ADDAA106000091AG10000AY121061AY221061GF104991041021004501001001MA1999999091401MD1999999+0151MW1131REMSYN017 333 10/// 58015;EQDQ01+000002VOVAR 
0143833390999991996041912004-14050-042617FM-12+088299999V0209999999999004201CN0040001N1+01941+01871101441ADDAA124074091AG10002AY161061AY221061GF108991061021004501021999KA1240N+01841MA1999999091691MD1999999+0201MW1401REMSYN023 333 20184 58020 60744;
0131833390999991996041918004-14050-042617FM-12+088299999V0209999999999004201CN0200001N1+02461+01811101111ADDAA106000091AG10000GF106991061021004501001001MA1999999999999MD1999999+0241REMSYN011 333 58024;EQDQ01+099413APOSP Q02 099413APOSP 
0137833390999991996042000004-14050-042617FM-12+088299999V0209999999999220001CN9999999N9+02001+01741101401ADDAA106000091AG10000GF104991041021004501001001MA1999999091602MD1999999+0201REMSYN017 333 10/// 58020;EQDQ01+091603APOSP Q02+000002VOVAR 
0115833390999991996042012004-14050-042617FM-12+088299999V0209999999999045001CN0200001N1+01841+01621101561ADDAA106000091AG10000GF108991041051004501021999KA1240N+01741MA1999999091741MD1999999+0051REMSYN017 333 20174 58005;
0096833390999991996042018004-14050-042617FM-12+088299999V0209999999999004201CN0200001N1+02261+01591101281ADDAA106000091AG10000GF108991051051004501021999MA1999999091521MD1999999+0111REMSYN011 333 58011;
0143833390999991996042112004-14050-042617FM-12+088299999V0209999999999045001CN0010001N1+01731+01681101751ADDAA124999929AG10000AY121061AY221061GF108991041051004501021999KA1240N+01671MA1999999091911MD1999999+0171MW1501REMSYN023 333 20167 58017 69904;
0124833390999991996042118004-14050-042617FM-12+088299999V0209999999999220001CN0200001N1+02321+01501101351ADDAA106000191AG10000AY151061AY221061GF102991021021004501001001MA1999999091581MD1999999+0061MW1021REMSYN017 333 58006 69921;
0137833390999991996042200004-14050-042617FM-12+088299999V0209999999999220001CN9999999N9+02061+01521101541ADDAA106000091AG10000GA1001+999999999GF100991001001999999001001MA1999999091721MD1999999-0011REMSYN017 333 10/// 59001;EQDQ01+000002VOVAR 
0096833390999991996042218004-14050-042617FM-12+088299999V0209999999999220001CN0200001N1+02581+00541101291ADDAA106000091AG10000GF102991021021004501001001MA1999999091581MD1999999+0001REMSYN011 333 58000;
0137833390999991996042300004-14050-042617FM-12+088299999V0209999999999220001CN9999999N9+02081+00811101541ADDAA106000091AG10000GA1001+999999999GF100991001001999999001001MA1999999091741MD1999999+0021REMSYN017 333 10/// 58002;EQDQ01+000002VOVAR 
0115833390999991996042312004-14050-042617FM-12+088299999V0209999999999220001CN0200001N1+01941+01441101751ADDAA106000091AG10000GF102991021021004501001001KA1240N+01631MA1999999091931MD1999999+0031REMSYN017 333 20163 58003;
0137833390999991996042400004-14050-042617FM-12+088299999V0209999999999220001CN9999999N9+02161+01011101511ADDAA106000091AG10000GA1001+999999999GF100991001001999999001001MA1999999091731MD1999999-0011REMSYN017 333 10/// 59001;EQDQ01+000002VOVAR 
0115833390999991996042412004-14050-042617FM-12+088299999V0209999999999220001CN0200001N1+02001+01581101721ADDAA106000091AG10000GF103991021021004501031001KA1240N+01741MA1999999091931MD1999999+0001REMSYN017 333 20174 58000;
0096833390999991996042418004-14050-042617FM-12+088299999V0209999999999220001CN0200001N1+02801+01111101191ADDAA106000091AG10000GF102991021021004501001001MA1999999091491MD1999999-0101REMSYN011 333 59010;
0121833390999991996042500004-14050-042617FM-12+088299999V0209999999999220001CN9999999N9+02421+01311101441ADDAA106000091AG10000GF102991021021004501001001MA1999999091691MD1999999-0041REMSYN017 333 10/// 59004;EQDQ01+000002VOVAR 
0115833390999991996042512004-14050-042617FM-12+088299999V0209999999999004201CN0200001N1+02121+01701101581ADDAA106000091AG10000GF106991061021004501001001KA1240N+01921MA1999999091831MD1999999-0101REMSYN017 333 20192 59010;
0096833390999991996042518004-14050-042617FM-12+088299999V0209999999999004201CN0200001N1+02701+01571101181ADDAA106000091AG10000GF105991051021004501001001MA1999999091491MD1999999+0001REMSYN011 333 58000;
0121833390999991996042600004-14050-042617FM-12+088299999V0209999999999220001CN9999999N9+02371+01661101351ADDAA106000091AG10000GF102991021021004501001001MA1999999091621MD1999999-0071REMSYN017 333 10/// 59007;EQDQ01+000002VOVAR 
0096833390999991996042618004-14050-042617FM-12+088299999V0209999999999045001CN0200001N1+02971+00281101001ADDAA106000091AG10000GF105991041021004501021001MA1999999091351MD1999999-0141REMSYN011 333 59014;
0153833390999991996042700004-14050-042617FM-12+088299999V0209999999999220001CN9999999N9+02521+01921101241ADDAA106000091AG10000GF102991999001004501001001MA1999999091561MD1999999+0001REMSYN017 333 10/// 59000;EQDQ01+000082SCOTLCQ02+999990APOSP Q03+000002VOVAR 
0115833390999991996042712004-14050-042617FM-12+088299999V0209999999999220001CN0200001N1+02181+01631101521ADDAA106000091AG10000GF104991041021004501001001KA1240N+01921MA1999999091791MD1999999+0091REMSYN017 333 20192 58009;
0137833390999991996042800004-14050-042617FM-12+088299999V0209999999999220001CN9999999N9+02321+00691101431ADDAA106000091AG10000GA1001+999999999GF100991001001999999001001MA1999999091691MD1999999+0161REMSYN017 333 10/// 58016;EQDQ01+000002VOVAR 
0115833390999991996042812004-14050-042617FM-12+088299999V0209999999999004201CN0200001N1+01871+01351101651ADDAA106000091AG10000GF106991061021004501001001KA1240N+01721MA1999999091861MD1999999+0071REMSYN017 333 20172 58007;
0096833390999991996042818004-14050-042617FM-12+088299999V0209999999999004201CN0040001N1+02281+01331101471ADDAA106000091AG10000GF107991061021004501021999MA1999999091701MD1999999+0221REMSYN011 333 58022;
0159833390999991996042900004-14050-042617FM-12+088299999V0209999999999004201CN9999999N9+02021+01621101751ADDAA106999999AG10000AY101061AY201061GF108991081051004501999999MA1999999091921MD1999999+0231MW1501REMSYN017 333 10/// 58023;EQDQ01+000002VOVAR Q02  00002PRCP06
0096833390999991996042918004-14050-042617FM-12+088299999V0209999999999045001CN0200001N1+02661+00991101301ADDAA106000091AG10000GF106991041021004501031001MA1999999091571MD1999999-0131REMSYN011 333 59013;
0121833390999991996043000004-14050-042617FM-12+088299999V0209999999999004201CN9999999N9+02261+01371101561ADDAA106000091AG10000GF108991061021004501031999MA1999999091781MD1999999-0141REMSYN017 333 10/// 59014;EQDQ01+000002VOVAR 
0115833390999991996043012004-14050-042617FM-12+088299999V0209999999999004201CN0200001N1+01961+01501101671ADDAA106000091AG10000GF108991051021004501021999KA1240N+01801MA1999999091881MD1999999+0041REMSYN017 333 20180 58004;
0096833390999991996043018004-14050-042617FM-12+088299999V0209999999999220001CN0200001N1+02521+01401101341ADDAA106000091AG10000GF103991031021004501001001MA1999999091601MD1999999+0031REMSYN011 333 58003;
0121833390999991996050100004-14050-042617FM-12+088299999V0209999999999220001CN9999999N9+02261+01441101531ADDAA106000091AG10000GF102991021021004501001001MA1999999091751MD1999999-0051REMSYN017 333 10/// 59005;EQDQ01+000002VOVAR 
0137833390999991996050112004-14050-042617FM-12+088299999V0209999999999004201CN0040001N1+01971+01641101611ADDAA106000091AG10000AY101061AY201061GF108991081051004501999999KA1240N+01761MA1999999091831MD1999999-0051MW1101REMSYN017 333 20176 59005;
0096833390999991996050118004-14050-042617FM-12+088299999V0209999999999004201CN0200001N1+02621+01151101231ADDAA106000091AG10000GF106991061021004501001001MA1999999091521MD1999999-0081REMSYN011 333 59008;
0115833390999991996050212004-14050-042617FM-12+088299999V0209999999999004201CN0200001N1+02181+01701101451ADDAA106000091AG10000GF105991051021004501001001KA1240N+01841MA1999999091711MD1999999-0121REMSYN017 333 20184 59012;
0096833390999991996050218004-14050-042617FM-12+088299999V0209999999999004201CN0200001N1+02701+01341101061ADDAA106000091AG10000GF105991051021004501001001MA1999999091371MD1999999-0151REMSYN011 333 59015;
0121833390999991996050300004-14050-042617FM-12+088299999V0209999999999220001CN9999999N9+02301+01351101241ADDAA106000091AG10000GF102991021021004501001001MA1999999091521MD1999999-0071REMSYN017 333 10/// 59007;EQDQ01+000002VOVAR 
0115833390999991996050312004-14050-042617FM-12+088299999V0209999999999220001CN0200001N1+02351+01691101381ADDAA106000091AG10000GF103991021021004501021001KA1240N+01821MA1999999091651MD1999999-0061REMSYN017 333 20182 59006;
0096833390999991996050318004-14050-042617FM-12+088299999V0209999999999004201CN0200001N1+03061+01001100921ADDAA106000091AG10000GF105991051021004501001001MA1999999091291MD1999999-0081REMSYN011 333 59008;
0137833390999991996050400004-14050-042617FM-12+088299999V02099999999999999999N9999999N9+02561+00981101171ADDAA106000091AG10000GF106991999021004501001001MA1999999091491MD1999999-0021REMSYN017 333 10/// 59002;EQDQ01+000022SCOTLCQ02+000002VOVAR 
0143833390999991996050412004-14050-042617FM-12+088299999V0209999999999004201CN0200001N1+02141+01881101411ADDAA124001091AG10002AY161061AY261061GF106991051021004501021001KA1240N+01841MA1999999091691MD1999999+0041MW1101REMSYN023 333 20184 58004 60014;
0096833390999991996050418004-14050-042617FM-12+088299999V0209999999999004201CN0200001N1+02861+01251101021ADDAA106000091AG10000GF106991051021004501021001MA1999999092351MD1999999+0061REMSYN011 333 58006;
0137833390999991996050512004-14050-042617FM-12+088299999V0209999999999004201CN0040001N1+01871+01531101601ADDAA106000091AG10000AY101061AY201061GF107991061021004501021999KA1240N+01761MA1999999091831MD1999999+0141MW1101REMSYN017 333 20176 58014;
0096833390999991996050518004-14050-042617FM-12+088299999V0209999999999004201CN0200001N1+02431+01311101241ADDAA106000091AG10000GF106991061021004501001001MA1999999091521MD1999999+0171REMSYN011 333 58017;
0121833390999991996050600004-14050-042617FM-12+088299999V0209999999999004201CN9999999N9+02181+01391101381ADDAA106000091AG10000GF105991051021004501001001MA1999999091601MD1999999+0031REMSYN017 333 10/// 58003;EQDQ01+000002VOVAR 
0137833390999991996050612004-14050-042617FM-12+088299999V0209999999999004201CN0040001N1+01821+01641101781ADDAA106000091AG10000AY101061AY201061GF108991081051004501999999KA1240N+01691MA1999999091921MD1999999+0091MW1101REMSYN017 333 20169 58009;
0096833390999991996050618004-14050-042617FM-12+088299999V0209999999999004201CN0200001N1+02441+01031101391ADDAA106000091AG10000GF106991051021004501021001MA1999999091641MD1999999+0121REMSYN011 333 58012;
0121833390999991996050700004-14050-042617FM-12+088299999V0209999999999220001CN9999999N9+02041+01161101601ADDAA106000091AG10000GF102991021021004501001001MA1999999091781MD1999999+0181REMSYN017 333 10/// 58018;EQDQ01+000002VOVAR 
0115833390999991996050712004-14050-042617FM-12+088299999V0209999999999004201CN0200001N1+01811+01351101751ADDAA106000091AG10000GF105991051021004501001001KA1240N+01561MA1999999091911MD1999999-0011REMSYN017 333 20156 59001;
0096833390999991996050718004-14050-042617FM-12+088299999V0209999999999220001CN0200001N1+02531+00381101261ADDAA106000091AG10000GF102991021021004501001001MA1999999091581MD1999999-0111REMSYN011 333 59011;
0137833390999991996050800004-14050-042617FM-12+088299999V0209999999999220001CN9999999N9+02041+01441101541ADDAA106000091AG10000GA1001+999999999GF100991001001999999001001MA1999999091721MD1999999-0061REMSYN017 333 10/// 59006;EQDQ01+000002VOVAR 
0115833390999991996050812004-14050-042617FM-12+088299999V0209999999999220001CN0200001N1+01921+01291101801ADDAA106000091AG10000GF102991021021004501001001KA1240N+01351MA1999999091971MD1999999+0061REMSYN017 333 20135 58006;
0096833390999991996050818004-14050-042617FM-12+088299999V0209999999999220001CN0200001N1+02521+00541101321ADDAA106000091AG10000GF102991021021004501001001MA1999999091571MD1999999+0041REMSYN011 333 58004;
0137833390999991996050900004-14050-042617FM-12+088299999V0209999999999220001CN9999999N9+02041+00741101511ADDAA106000091AG10000GA1001+999999999GF100991001001999999001001MA1999999091701MD1999999-0021REMSYN017 333 10/// 59002;EQDQ01+000002VOVAR 
0134833390999991996050912004-14050-042617FM-12+088299999V0209999999999220001CN0200001N1+01971+01351101711ADDAA106000091AG10000GF102991011021004501021001KA1240N+01541MA1999999999999MD1999999-0081REMSYN017 333 20154 59008;EQDQ01 097893APOSP 
0115833390999991996050918004-14050-042617FM-12+088299999V0209999999999220001CN0200001N1+02661+00501101211ADDAA106000091AG10000GF102991021021004501001001MA1999999091492MD1999999-0081REMSYN011 333 59008;EQDQ01+091493APOSP 
0137833390999991996051000004-14050-042617FM-12+088299999V0209999999999220001CN9999999N9+02201+00631101401ADDAA106000091AG10000GA1001+999999999GF100991001001999999001001MA1999999091641MD1999999-0061REMSYN017 333 10/// 59006;EQDQ01+000002VOVAR 
0137833390999991996051012004-14050-042617FM-12+088299999V0209999999999004201CN0040001N1+01821+01561101611ADDAA106000091AG10000AY101061AY201061GF108991081051004501999999KA1240N+01521MA1999999091801MD1999999-0091MW1101REMSYN017 333 20152 59009;
0096833390999991996051018004-14050-042617FM-12+088299999V0209999999999220001CN0200001N1+02821+00631101181ADDAA106000091AG10000GF103991031021004501001001MA1999999091481MD1999999-0011REMSYN011 333 59001;
0137833390999991996051100004-14050-042617FM-12+088299999V0209999999999220001CN9999999N9+02191+00531101421ADDAA106000091AG10000GA1001+999999999GF100991001001999999001001MA1999999091641MD1999999+0001REMSYN017 333 10/// 58000;EQDQ01+000002VOVAR 
0115833390999991996051112004-14050-042617FM-12+088299999V0209999999999220001CN0200001N1+02091+01421101521ADDAA106000091AG10000GF104991031021004501021001KA1240N+01521MA1999999091751MD1999999-0051REMSYN017 333 20152 59005;
0096833390999991996051118004-14050-042617FM-12+088299999V0209999999999004201CN0200001N1+02731+00911101101ADDAA106000091AG10000GF106991061021004501001001MA1999999091391MD1999999-0091REMSYN011 333 59009;
0121833390999991996051200004-14050-042617FM-12+088299999V0209999999999220001CN9999999N9+02301+01171101441ADDAA106000091AG10000GF104991999999004501999999MA1999999091691MD1999999+0051REMSYN017 333 10/// 58005;EQDQ01+000002VOVAR 
0137833390999991996051212004-14050-042617FM-12+088299999V02099999999999999999N0040001N1+01851+01531101861ADDAA106000091AG10000AY101061AY201061GF107991021021004501999999KA1240N+01741MA1999999092041MD1999999+0291MW1101REMSYN017 333 20174 58029;
0096833390999991996051218004-14050-042617FM-12+088299999V0209999999999220001CN0200001N1+02561+01141101431ADDAA106000091AG10000GF102991021021004501001001MA1999999091691MD1999999+0301REMSYN011 333 58030;
0115833390999991996051312004-14050-042617FM-12+088299999V0209999999999220001CN0200001N1+01901+01321101921ADDAA106000091AG10000GF104991021021004501001041KA1240N+01621MA1999999092081MD1999999+0041REMSYN017 333 20162 58004;
0096833390999991996051318004-14050-042617FM-12+088299999V0209999999999220001CN0200001N1+02571+01081101391ADDAA106000091AG10000GF106991021021004501001041MA1999999091641MD1999999-0051REMSYN011 333 59005;
0137833390999991996051400004-14050-042617FM-12+088299999V0209999999999220001CN9999999N9+02121+01181101611ADDAA106000091AG10000GA1001+999999999GF100991001001999999001001MA1999999091801MD1999999-0041REMSYN017 333 10/// 59004;EQDQ01+000002VOVAR 
0134833390999991996051412004-14050-042617FM-12+088299999V0209999999999220001CN0200001N1+02101+01491101691ADDAA106000091AG10000GF102991001001999999001041KA1240N+01491MA1999999091901MD1999999-0181REMSYN017 333 20149 59018;EQDQ01+000982SCOLCB
0096833390999991996051418004-14050-042617FM-12+088299999V0209999999999220001CN0200001N1+02791+00621101211ADDAA106000091AG10000GF102991011021004501001041MA1999999091481MD1999999-0161REMSYN011 333 59016;
0137833390999991996051500004-14050-042617FM-12+088299999V0209999999999220001CN9999999N9+02281+00851101301ADDAA106000091AG10000GA1001+999999999GF100991001001999999001001MA1999999091561MD1999999-0241REMSYN017 333 10/// 59024;EQDQ01+000002VOVAR 
0131833390999991996051512004-14050-042617FM-12+088299999V0209999999999220001CN0200001N1+02281+01091101361ADDAA106000091AG10000GA1001+999999999GF100991001001999999001001KA1240N+01661MA1999999091641MD1999999-0261REMSYN017 333 20166 59026;
0096833390999991996051518004-14050-042617FM-12+088299999V0209999999999220001CN0200001N1+02951+00551100901ADDAA106000091AG10000GF103991021021004501001041MA1999999091241MD1999999-0241REMSYN011 333 59024;
0131833390999991996051612004-14050-042617FM-12+088299999V0209999999999220001CN0200001N1+02341+01181101241ADDAA106000091AG10000GA1001+999999999GF100991001001999999001001KA1240N+01731MA1999999091551MD1999999-0091REMSYN017 333 20173 59009;
0096833390999991996051618004-14050-042617FM-12+088299999V0209999999999220001CN0200001N1+03241+00991100721ADDAA106000091AG10000GF102991021021004501001001MA1999999091121MD1999999-0121REMSYN011 333 59012;
0137833390999991996051700004-14050-042617FM-12+088299999V0209999999999220001CN9999999N9+02561+01101101021ADDAA106000091AG10000GA1001+999999999GF100991001001999999001001MA1999999091351MD1999999+0071REMSYN017 333 10/// 58007;EQDQ01+000002VOVAR 
0096833390999991996051718004-14050-042617FM-12+088299999V0209999999999220001CN0200001N1+03041+01041101041ADDAA106000091AG10000GF102991011021004501001011MA1999999091421MD1999999+0301REMSYN011 333 58030;
0137833390999991996051800004-14050-042617FM-12+088299999V0209999999999220001CN9999999N9+02421+01461101411ADDAA106000091AG10000GA1001+999999999GF100991001001999999001001MA1999999091721MD1999999+0371REMSYN017 333 10/// 58037;EQDQ01+000002VOVAR 
0115833390999991996051812004-14050-042617FM-12+088299999V0209999999999004201CN0200001N1+02021+01641101851ADDAA106000091AG10000GF106991061021004501001001KA1240N+01861MA1999999092061MD1999999+0291REMSYN017 333 20186 58029;
0096833390999991996051818004-14050-042617FM-12+088299999V0209999999999220001CN0200001N1+02641+01321101401ADDAA106000091AG10000GF102991021021004501001001MA1999999091671MD1999999+0251REMSYN011 333 58025;
0137833390999991996051900004-14050-042617FM-12+088299999V0209999999999220001CN9999999N9+02191+01631101591ADDAA106000091AG10000GA1001+999999999GF100991001001999999001001MA1999999091821MD1999999+0091REMSYN017 333 10/// 58009;EQDQ01+000002VOVAR 
0115833390999991996051912004-14050-042617FM-12+088299999V0209999999999220001CN0200001N1+02241+01691101561ADDAA106000091AG10000GF102991021021004501001001KA1240N+01871MA1999999091801MD1999999-0261REMSYN017 333 20187 59026;
0096833390999991996051918004-14050-042617FM-12+088299999V0209999999999220001CN0200001N1+02901+01401101091ADDAA106000091AG10000GF103991031021004501001001MA1999999091421MD1999999-0251REMSYN011 333 59025;
0137833390999991996052000004-14050-042617FM-12+088299999V0209999999999220001CN9999999N9+02401+01581101331ADDAA106000091AG10000GA1001+999999999GF100991001001999999001001MA1999999091611MD1999999-0201REMSYN017 333 10/// 59020;EQDQ01+000002VOVAR 
0137833390999991996052012004-14050-042617FM-12+088299999V0209999999999004201CN0200001N1+02221+01861101471ADDAA106000091AG10000AY101061AY201061GF106991061021004501001001KA1240N+01941MA1999999091741MD1999999-0061MW1101REMSYN017 333 20194 59006;
0096833390999991996052018004-14050-042617FM-12+088299999V0209999999999220001CN0200001N1+02991+01041101001ADDAA106000091AG10000GF104991031021004501021001MA1999999091361MD1999999-0061REMSYN011 333 59006;
0121833390999991996052100004-14050-042617FM-12+088299999V0209999999999220001CN9999999N9+02541+01331101201ADDAA106000091AG10000GF102991021021004501001001MA1999999091521MD1999999-0021REMSYN017 333 10/// 59002;EQDQ01+000002VOVAR 
0137833390999991996052112004-14050-042617FM-12+088299999V0209999999999004201CN0040001N1+02181+01821101591ADDAA106000091AG10000AY101061AY201061GF108991081051004501999999KA1240N+02061MA1999999091851MD1999999+0111MW1101REMSYN017 333 20206 58011;
0096833390999991996052118004-14050-042617FM-12+088299999V0209999999999220001CN0200001N1+02661+01591101241ADDAA106000091AG10000GF104991041021004501001001MA1999999091551MD1999999+0191REMSYN011 333 58019;
0121833390999991996052200004-14050-042617FM-12+088299999V0209999999999220001CN9999999N9+02271+01751101551ADDAA106000091AG10000GF102991021021004501001001MA1999999091791MD1999999+0271REMSYN017 333 10/// 58027;EQDQ01+000002VOVAR 
0115833390999991996052212004-14050-042617FM-12+088299999V0209999999999004201CN0200001N1+02141+01591101671ADDAA106000091AG10000GF106991051021004501021001KA1240N+01901MA1999999091901MD1999999+0051REMSYN017 333 20190 58005;
0096833390999991996052218004-14050-042617FM-12+088299999V0209999999999220001CN0200001N1+02841+01271101221ADDAA106000091AG10000GF102991021021004501001001MA1999999091531MD1999999-0021REMSYN011 333 59002;
0137833390999991996052300004-14050-042617FM-12+088299999V0209999999999220001CN9999999N9+02381+01361101421ADDAA106000091AG10000GA1001+999999999GF100991001001999999001001MA1999999091681MD1999999-0111REMSYN017 333 10/// 59011;EQDQ01+000002VOVAR 
0096833390999991996052318004-14050-042617FM-12+088299999V0209999999999220001CN0200001N1+02921+01131101161ADDAA106000091AG10000GF104991041021004501001001MA1999999091491MD1999999-0041REMSYN011 333 59004;
0137833390999991996052400004-14050-042617FM-12+088299999V0209999999999220001CN9999999N9+02501+01051101271ADDAA106000091AG10000GA1001+999999999GF100991001001999999001001MA1999999091561MD1999999-0121REMSYN017 333 10/// 59012;EQDQ01+000002VOVAR 
0137833390999991996052412004-14050-042617FM-12+088299999V0209999999999004201CN0200001N1+02021+01741101551ADDAA106000091AG10000AY101061AY201061GF106991061021004501001001KA1240N+01841MA1999999091801MD1999999-0051MW1101REMSYN017 333 20184 59005;
0096833390999991996052418004-14050-042617FM-12+088299999V0209999999999220001CN0200001N1+02801+01201101001ADDAA106000091AG10000GF104991041021004501001001MA1999999091351MD1999999-0141REMSYN011 333 59014;
0115833390999991996052512004-14050-042617FM-12+088299999V0209999999999004201CN0200001N1+02841+01261101751ADDAA106000091AG10000GF106991061021004501001001KA1240N+01661MA1999999091941MD1999999+0141REMSYN017 333 20166 58014;
0115833390999991996052518004-14050-042617FM-12+088299999V0209999999999220001CN0200001N1+02351+00831101391ADDAA106000091AG10000GF103991031021004501001001MA1999999096132MD1999999+0281REMSYN011 333 58028;EQDQ01+096133APOSP 
0137833390999991996052612004-14050-042617FM-12+088299999V0209999999999220001CN9999999N9+02001+00901101601ADDAA106000091AG10000GA1001+999999999GF100991001001999999001001MA1999999091791MD1999999+0201REMSYN017 333 10/// 58020;EQDQ01+000002VOVAR 
0096833390999991996052618004-14050-042617FM-12+088299999V0209999999999045001CN0200001N1+02341+01391101611ADDAA106000091AG10000GF105991041021004501021001MA1999999091801MD1999999+0171REMSYN011 333 58017;
0134833390999991996052712004-14050-042617FM-12+088299999V0209999999999220001CN0200001N1+01801+01161101951ADDAA106000091AG10000GF102991001001999999001011KA1240N+01441MA1999999092071MD1999999+0031REMSYN017 333 20144 58003;EQDQ01+000982SCOLCB
0112833390999991996052718004-14050-042617FM-12+088299999V0209999999999220001CN0200001N1+02451+00641101521ADDAA106000091AG10000GA1001+999999999GF100991001001999999001001MA1999999091711MD1999999-0091REMSYN011 333 59009;
0150833390999991996052800004-14050-042617FM-12+088299999V0200501N00261220001CN9999999N9+01721+01291101791ADDAA106000091AG10000GA1001+999999999GF100991001001999999001001KA1240M+02381MA1999999091721MD1999999+0051REMSYN017 333 10238 58005;EQDQ01+000002VOVAR 
0115833390999991996052812004-14050-042617FM-12+088299999V0209999999999004201CN0200001N1+02261+01841101811ADDAA106000091AG10000GF106991061021004501001001KA1240N+01561MA1999999092021MD1999999-0051REMSYN017 333 20156 59005;
0096833390999991996052818004-14050-042617FM-12+088299999V0209999999999220001CN0200001N1+02541+00711101371ADDAA106000091AG10000GF102991021021004501001001MA1999999091611MD1999999-0101REMSYN011 333 59010;
0137833390999991996052900004-14050-042617FM-12+088299999V0209999999999220001CN9999999N9+02161+01041101531ADDAA106000091AG10000GA1001+999999999GF100991001001999999001001MA1999999091771MD1999999-0161REMSYN017 333 10/// 59016;EQDQ01+000002VOVAR 
0115833390999991996052912004-14050-042617FM-12+088299999V0209999999999004201CN0200001N1+01901+01451101721ADDAA106000091AG10000GF106991061021004501001001KA1240N+01641MA1999999091911MD1999999-0111REMSYN017 333 20164 59011;
0096833390999991996052918004-14050-042617FM-12+088299999V0209999999999004201CN0200001N1+02521+01241101271ADDAA106000091AG10000GF105991051021004501001001MA1999999091531MD1999999-0081REMSYN011 333 59008;
0137833390999991996053000004-14050-042617FM-12+088299999V0209999999999220001CN9999999N9+02141+01381101591ADDAA106000091AG10000GA1001+999999999GF100991001001999999001001MA1999999091781MD1999999+0011REMSYN017 333 10/// 58001;EQDQ01+000002VOVAR 
0115833390999991996053012004-14050-042617FM-12+088299999V0209999999999004201CN0200001N1+01861+01511101761ADDAA106000091AG10000GF108991051051004501021999KA1240N+01721MA1999999091941MD1999999+0031REMSYN017 333 20172 58003;
0096833390999991996053018004-14050-042617FM-12+088299999V0209999999999220001CN0200001N1+02421+01121101421ADDAA106000091AG10000GF104991041021004501001001MA1999999091651MD1999999+0121REMSYN011 333 58012;
0137833390999991996053100004-14050-042617FM-12+088299999V0209999999999220001CN9999999N9+02121+01071101631ADDAA106000091AG10000GA1001+999999999GF100991001001999999001001MA1999999091821MD1999999+0041REMSYN017 333 10/// 58004;EQDQ01+000002VOVAR 
0115833390999991996053112004-14050-042617FM-12+088299999V0209999999999004201CN0200001N1+01821+01291101831ADDAA106000091AG10000GF105991051021004501001001KA1240N+01541MA1999999091991MD1999999+0051REMSYN017 333 20154 58005;
0096833390999991996053118004-14050-042617FM-12+088299999V0209999999999220001CN0200001N1+02561+00771101371ADDAA106000091AG10000GF102991021021004501001001MA1999999091621MD1999999-0031REMSYN011 333 59003;
0137833390999991996060100004-14050-042617FM-12+088299999V0209999999999220001CN9999999N9+02101+00801101701ADDAA106000091AG10000GA1001+999999999GF100991001001999999001001MA1999999091871MD1999999+0051REMSYN017 333 10/// 58005;EQDQ01+000002VOVAR 
0131833390999991996060112004-14050-042617FM-12+088299999V0209999999999220001CN0200001N1+01961+01261101841ADDAA106000091AG10000GA1001+999999999GF100991001001999999001001KA1240N+01581MA1999999092021MD1999999+0031REMSYN017 333 20158 58003;
0112833390999991996060118004-14050-042617FM-12+088299999V0209999999999220001CN0200001N1+02731+00681101411ADDAA106000091AG10000GA1001+999999999GF100991001001999999001001MA1999999091661MD1999999+0041REMSYN011 333 58004;
0131833390999991996060212004-14050-042617FM-12+088299999V0209999999999220001CN0200001N1+02091+01281101691ADDAA106000091AG10000GA1001+999999999GF100991001001999999001001KA1240N+01461MA1999999091911MD1999999-0111REMSYN017 333 20146 59011;
0112833390999991996060218004-14050-042617FM-12+088299999V0209999999999220001CN0200001N1+02741+00681101241ADDAA106000091AG10000GA1001+999999999GF100991001001999999001001MA1999999091541MD1999999-0121REMSYN011 333 59012;
0137833390999991996060300004-14050-042617FM-12+088299999V0209999999999220001CN9999999N9+02121+00431101601ADDAA106000091AG10000GF102991001001999999001011MA1999999091821MD1999999-0031REMSYN017 333 10/// 59003;EQDQ01+000982SCOLCBQ02+000002VOVAR 
0115833390999991996060312004-14050-042617FM-12+088299999V0209999999999045001CN0200001N1+01901+01431101741ADDAA106000091AG10000GF105991041021004501021001KA1240N+01501MA1999999091921MD1999999+0011REMSYN017 333 20150 58001;
0096833390999991996060318004-14050-042617FM-12+088299999V0209999999999220001CN0200001N1+02421+00651101471ADDAA106000091AG10000GF104991031021004501021001MA1999999091701MD1999999+0161REMSYN011 333 58016;
0121833390999991996060400004-14050-042617FM-12+088299999V0209999999999220001CN9999999N9+02051+00741101681ADDAA106000091AG10000GF102991021021004501001001MA1999999091851MD1999999+0031REMSYN017 333 10/// 58003;EQDQ01+000002VOVAR 
0115833390999991996060412004-14050-042617FM-12+088299999V0209999999999004201CN0200001N1+01701+01231101921ADDAA106000091AG10000GF106991061021004501001001KA1240N+01521MA1999999092051MD1999999+0131REMSYN017 333 20152 58013;
0121833390999991996060500004-14050-042617FM-12+088299999V0209999999999220001CN9999999N9+01901+01001101931ADDAA106000091AG10000GF102991021021004501001001MA1999999092051MD1999999+0201REMSYN017 333 10/// 58020;EQDQ01+000002VOVAR 
0115833390999991996060512004-14050-042617FM-12+088299999V0209999999999220001CN0200001N1+01681+01111102021ADDAA106000091AG10000GF103991021021004501021001KA1240N+01481MA1999999092141MD1999999+0091REMSYN017 333 20148 58009;
0121833390999991996060600004-14050-042617FM-12+088299999V0209999999999220001CN9999999N9+02031+01271101981ADDAA106000091AG10000GF102991021021004501001001MA1999999092111MD1999999+0061REMSYN017 333 10/// 58006;EQDQ01+000002VOVAR 
0137833390999991996060612004-14050-042617FM-12+088299999V0209999999999004201CN0040001N1+01801+01451101991ADDAA106000091AG10000AY101061AY201061GF107991061021004501021999KA1240N+01651MA1999999092131MD1999999-0011MW1101REMSYN017 333 20165 59001;
0096833390999991996060618004-14050-042617FM-12+088299999V0209999999999004201CN0200001N1+02301+01351101691ADDAA106000091AG10000GF106991061021004501001001MA1999999091881MD1999999+0001REMSYN011 333 58000;
0143833390999991996060700004-14050-042617FM-12+088299999V0209999999999004201CN9999999N9+01871+01691101921ADDAA106000091AG10000AY101061AY201061GF108991081051004501999999MA1999999092051MD1999999-0061MW1101REMSYN017 333 10/// 59006;EQDQ01+000002VOVAR 
0143833390999991996060712004-14050-042617FM-12+088299999V0209999999999004201CN0200001N1+01841+01641101981ADDAA124000391AG10002AY161061AY261061GF106991061021004501001001KA1240N+01701MA1999999092111MD1999999-0021MW1101REMSYN023 333 20170 59002 69934;
0096833390999991996060718004-14050-042617FM-12+088299999V0209999999999220001CN0200001N1+02621+00461101501ADDAA106000091AG10000GF103991031021004501001001MA1999999091741MD1999999-0141REMSYN011 333 59014;
0121833390999991996060800004-14050-042617FM-12+088299999V0209999999999220001CN9999999N9+02161+00671101811ADDAA106000091AG10000GF102991021021004501001001MA1999999091981MD1999999-0071REMSYN017 333 10/// 59007;EQDQ01+000002VOVAR 
0134833390999991996060812004-14050-042617FM-12+088299999V02099999999999999999N0200001N1+02061+01451101921ADDAA106000091AG10000GF105991999021004501001001KA1240N+01771MA1999999092101MD1999999-0011REMSYN017 333 20177 59001;EQDQ01+000042SCOTLC
0096833390999991996060818004-14050-042617FM-12+088299999V0209999999999220001CN0200001N1+02601+00941101561ADDAA106000091AG10000GF102991021021004501001001MA1999999091831MD1999999+0091REMSYN011 333 58009;
0115833390999991996060912004-14050-042617FM-12+088299999V0209999999999220001CN0200001N1+02041+01161101991ADDAA106000091AG10000GF104991041021004501001001KA1240N+01751MA1999999092171MD1999999+0071REMSYN017 333 20175 58007;
0096833390999991996060918004-14050-042617FM-12+088299999V0209999999999220001CN0200001N1+02431+00601101751ADDAA106000091AG10000GF102991021021004501001001MA1999999091961MD1999999+0131REMSYN011 333 58013;
0137833390999991996061000004-14050-042617FM-12+088299999V0209999999999220001CN9999999N9+02021+00821102001ADDAA106000091AG10000GA1001+999999999GF100991001001999999001001MA1999999092161MD1999999+0131REMSYN017 333 10/// 58013;EQDQ01+000002VOVAR 
0115833390999991996061012004-14050-042617FM-12+088299999V0209999999999004201CN0200001N1+01721+01291102151ADDAA106000091AG10000GF108991051021004501021999KA1240N+01541MA1999999092261MD1999999+0091REMSYN017 333 20154 58009;
0096833390999991996061018004-14050-042617FM-12+088299999V0209999999999004201CN0200001N1+02241+01121101771ADDAA106000091AG10000GF106991061021004501001001MA1999999091941MD1999999-0021REMSYN011 333 59002;
0121833390999991996061100004-14050-042617FM-12+088299999V0209999999999220001CN9999999N9+01941+00991101921ADDAA106000091AG10000GF102991021021004501001001MA1999999092051MD1999999-0121REMSYN017 333 10/// 59012;EQDQ01+000002VOVAR 
0115833390999991996061112004-14050-042617FM-12+088299999V0209999999999004201CN0200001N1+01641+01181102081ADDAA106000091AG10000GF106991061021004501001001KA1240N+01421MA1999999092151MD1999999-0071REMSYN017 333 20142 59007;
