0121834980999991996010100004-17733-039250FM-12+000399999V0200501N00511105001CN9999999N9+02581+02381101121ADDAA106000091AG10000GF108991001001999999001081MA1999999101071MD1999999+0051REMSYN017 333 10/// 58005;EQDQ01+000002VOVAR 
0115834980999991996010112004-17733-039250FM-12+000399999V0203601N00511045001CN0200001N1+02741+02361101311ADDAA106000091AG10000GF106991041021008001041001KA1240N+02321MA1999999101261MD1999999+0081REMSYN017 333 20232 58008;
0096834980999991996010118004-17733-039250FM-12+000399999V0203601N00571045001CN0200001N1+02861+02351101111ADDAA106000091AG10000GF107991031041008001041001MA1999999101061MD1999999+0241REMSYN011 333 58024;
0121834980999991996010200004-17733-039250FM-12+000399999V0203601N00461105001CN9999999N9+02521+99999101291ADDAA106000091AG10000GF108991041041008001001021MA1999999101241MD1999999+0171REMSYN017 333 10/// 58017;EQDQ01+000002VOVAR 
0115834980999991996010212004-17733-039250FM-12+000399999V0203601N00211105001CN0200001N1+02741+02301101501ADDAA106000091AG10000GF107991021021008001001021KA1240N+02321MA1999999101451MD1999999+0191REMSYN017 333 20232 58019;
0096834980999991996010218004-17733-039250FM-12+000399999V0200501N00511045001CN0200001N1+02941+02191101121ADDAA106000091AG10000GF107991011011008001081021MA1999999101071MD1999999+0011REMSYN011 333 58001;
0121834980999991996010300004-17733-039250FM-12+000399999V0200501N00211105001CN9999999N9+02441+02341101381ADDAA106000091AG10000GF106991001001999999001021MA1999999101331MD1999999+0091REMSYN017 333 10/// 58009;EQDQ01+000002VOVAR 
0115834980999991996010312004-17733-039250FM-12+000399999V0200501N00411220001CN0200001N1+02821+02271101481ADDAA106000091AG10000GF105991031021008001001011KA1240N+02121MA1999999101431MD1999999-0021REMSYN017 333 20212 59002;
0147834980999991996010318004-17733-039250FM-12+000399999V0203601N002619999999N0200001N1+03081+01951100791ADDAA106000091AG10000GF106991001001999999001011MA1999999999999MD1999999+0011REMSYN011 333 58001;EQDQ01+000952SCOLCBQ02+095913APOSP Q03 095913APOSP 
0121834980999991996010400004-17733-039250FM-12+000399999V0200501N00411220001CN9999999N9+02541+02381101421ADDAA106000091AG10000GF102991021011008001001001MA1999999101371MD1999999+0041REMSYN017 333 10/// 58004;EQDQ01+000002VOVAR 
0115834980999991996010412004-17733-039250FM-12+000399999V0203601N00361045001CN0200001N1+02861+02231101531ADDAA106000091AG10000GF106991021021008001041011KA1240N+02201MA1999999101481MD1999999+0051REMSYN017 333 20220 58005;
0096834980999991996010418004-17733-039250FM-12+000399999V0203601N00511105001CN0200001N1+02941+02241101351ADDAA106000091AG10000GF105991021011008001041011MA1999999101301MD1999999+0151REMSYN011 333 58015;
0121834980999991996010500004-17733-039250FM-12+000399999V0200501N00151220001CN9999999N9+02501+02401101431ADDAA106000091AG10000GF102991011011008001001011MA1999999101381MD1999999+0011REMSYN017 333 10/// 58001;EQDQ01+000002VOVAR 
0115834980999991996010512004-17733-039250FM-12+000399999V0203601N00261012001CN0200001N1+02701+02391101441ADDAA106000091AG10000GF107991061081008001001091KA1240N+02161MA1999999101391MD1999999-0091REMSYN017 333 20216 59009;
0096834980999991996010518004-17733-039250FM-12+000399999V0200501N00261105001CN0200001N1+02961+02181101111ADDAA106000091AG10000GF107991011011008001001021MA1999999101061MD1999999-0241REMSYN011 333 59024;
0115834980999991996010612004-17733-039250FM-12+000399999V0203601N00361220001CN0200001N1+02801+02311101321ADDAA106000091AG10000GF106991041021008001001041KA1240N+02251MA1999999101271MD1999999-0121REMSYN017 333 20225 59012;
0096834980999991996010618004-17733-039250FM-12+000399999V0200501N00511105001CN0200001N1+02901+02221101051ADDAA106000091AG10000GF106991001001999999001031MA1999999101001MD1999999-0061REMSYN011 333 59006;
0137834980999991996010700004-17733-039250FM-12+000399999V0200501N00211220001CN9999999N9+02491+02301101211ADDAA106000091AG10000GF104991011011999999001031MA1999999101161MD1999999-0011REMSYN017 333 10/// 59001;EQDQ01+000992SCOLCBQ02+000002VOVAR 
0115834980999991996010712004-17733-039250FM-12+000399999V0200501N00151220001CN0200001N1+02761+02341101421ADDAA106000091AG10000GF104991021021008001001011KA1240N+02121MA1999999101371MD1999999+0101REMSYN017 333 20212 58010;
0096834980999991996010718004-17733-039250FM-12+000399999V0200501N00311220001CN0200001N1+02951+02291101201ADDAA106000091AG10000GF105991011011008001001081MA1999999101151MD1999999+0151REMSYN011 333 58015;
0121834980999991996010800004-17733-039250FM-12+000399999V0200501N00311220001CN9999999N9+02521+02381101391ADDAA106000091AG10000GF105991001001999999001061MA1999999101341MD1999999+0181REMSYN017 333 10/// 58018;EQDQ01+000002VOVAR 
0115834980999991996010812004-17733-039250FM-12+000399999V0203601N00311045001CN0200001N1+02901+02221101581ADDAA106000091AG10000GF105991031021008001051001KA1240N+02221MA1999999101531MD1999999+0161REMSYN017 333 20222 58016;
0096834980999991996010818004-17733-039250FM-12+000399999V0203601N00361045001CN0200001N1+02921+02271101371ADDAA106000091AG10000GF107991041011008001011001MA1999999101321MD1999999+0171REMSYN011 333 58017;
0121834980999991996010900004-17733-039250FM-12+000399999V0200501N00311045001CN9999999N9+02561+02381101491ADDAA106000091AG10000GF106991021011008001051001MA1999999101441MD1999999+0101REMSYN017 333 10/// 58010;EQDQ01+000002VOVAR 
0115834980999991996010912004-17733-039250FM-12+000399999V0203601N00311105001CN0200001N1+02861+02371101571ADDAA106000091AG10000GF105991031021008001001021KA1240N+02241MA1999999101521MD1999999-0011REMSYN017 333 20224 59001;
0096834980999991996010918004-17733-039250FM-12+000399999V0200501N00511105001CN0200001N1+02991+02121101311ADDAA106000091AG10000GF105991011011008001001031MA1999999101261MD1999999-0061REMSYN011 333 59006;
0137834980999991996011000004-17733-039250FM-12+000399999V0200501N00261220001CN9999999N9+02621+02441101451ADDAA106000091AG10000GA1001+999999999GF100991001001999999001001MA1999999101401MD1999999-0041REMSYN017 333 10/// 59004;EQDQ01+000002VOVAR 
0115834980999991996011012004-17733-039250FM-12+000399999V0203601N00511220001CN0200001N1+02901+02221101371ADDAA106000091AG10000GF106991031021008001001041KA1240N+02321MA1999999101321MD1999999-0201REMSYN017 333 20232 59020;
0096834980999991996011018004-17733-039250FM-12+000399999V0200501N00511220001CN0200001N1+02951+99999101031ADDAA106000091AG10000GF103991001001999999001041MA1999999100981MD1999999-0281REMSYN011 333 59028;
0121834980999991996011100004-17733-039250FM-12+000399999V0200501N00311220001CN9999999N9+02561+02421101211ADDAA106000091AG10000GF104991001001999999001041MA1999999101161MD1999999-0241REMSYN017 333 10/// 59024;EQDQ01+000002VOVAR 
0115834980999991996011112004-17733-039250FM-12+000399999V0200501N00511220001CN0200001N1+02881+02281101341ADDAA106000091AG10000GF106991031021008001001041KA1240N+02221MA1999999101291MD1999999-0031REMSYN017 333 20222 59003;
0096834980999991996011118004-17733-039250FM-12+000399999V0200501N00671220001CN0200001N1+02841+02261101101ADDAA106000091AG10000GF106991021011008001001061MA1999999101051MD1999999+0071REMSYN011 333 58007;
0121834980999991996011200004-17733-039250FM-12+000399999V0200501N00151220001CN9999999N9+02531+02381101301ADDAA106000091AG10000GF102991001001999999001061MA1999999101251MD1999999+0091REMSYN017 333 10/// 58009;EQDQ01+000002VOVAR 
0115834980999991996011212004-17733-039250FM-12+000399999V0200501N00261105001CN0200001N1+02721+02391101451ADDAA106000091AG10000GF107991011011008001001061KA1240N+02151MA1999999101401MD1999999+0111REMSYN017 333 20215 58011;
0096834980999991996011218004-17733-039250FM-12+000399999V0200501N00511045001CN0200001N1+02901+02321101231ADDAA106000091AG10000GF107991021021008001081061MA1999999101181MD1999999+0131REMSYN011 333 58013;
0137834980999991996011300004-17733-039250FM-12+000399999V0200501N00151220001CN9999999N9+02421+02281101291ADDAA106000091AG10000GA1001+999999999GF100991001001999999001001MA1999999101241MD1999999-0011REMSYN017 333 10/// 59001;EQDQ01+000002VOVAR 
0115834980999991996011312004-17733-039250FM-12+000399999V0201401N00261045001CN0200001N1+02861+02391101431ADDAA106000091AG10000GF105991041021008001031001KA1240N+02091MA1999999101381MD1999999-0021REMSYN017 333 20209 59002;
0096834980999991996011318004-17733-039250FM-12+000399999V0200901N00261045001CN0200001N1+02881+02351101351ADDAA106000091AG10000GF105991031021008001021041MA1999999101301MD1999999+0121REMSYN011 333 58012;
0121834980999991996011400004-17733-039250FM-12+000399999V0200901N00211220001CN9999999N9+02461+02431101451ADDAA106000091AG10000GF102991021011008001001001MA1999999101401MD1999999+0161REMSYN017 333 10/// 58016;EQDQ01+000002VOVAR 
0143834980999991996011412004-17733-039250FM-12+000399999V0200901N00101007501CN0100001N1+02461+02341101631ADDAA124007091AG10003AY161061AY221061GF107991051051008001011001KA1240N+02151MA1999999101581MD1999999+0201MW1211REMSYN023 333 20215 58020 60074;
0096834980999991996011418004-17733-039250FM-12+000399999V0201401N00311220001CN0200001N1+02881+02351101361ADDAA106000091AG10000GF102991011011008001001011MA1999999101311MD1999999+0011REMSYN011 333 58001;
0121834980999991996011500004-17733-039250FM-12+000399999V0200901N00151220001CN9999999N9+02551+02381101491ADDAA106000091AG10000GF102991021011008001001001MA1999999101441MD1999999+0041REMSYN017 333 10/// 58004;EQDQ01+000002VOVAR 
0115834980999991996011512004-17733-039250FM-12+000399999V0201401N00311007501CN0200001N1+02841+02401101501ADDAA106000091AG10000GF106991061021008001001001KA1240N+02281MA1999999101451MD1999999-0131REMSYN017 333 20228 59013;
0096834980999991996011518004-17733-039250FM-12+000399999V0201401N00311007501CN0200001N1+02861+02331101251ADDAA106000091AG10000GF106991051021008001001081MA1999999101201MD1999999-0111REMSYN011 333 59011;
0121834980999991996011600004-17733-039250FM-12+000399999V0200901N00151220001CN9999999N9+02541+02351101351ADDAA106000091AG10000GF102991011011008001001081MA1999999101301MD1999999-0141REMSYN017 333 10/// 59014;EQDQ01+000002VOVAR 
0115834980999991996011612004-17733-039250FM-12+000399999V0201401N00261007501CN0200001N1+02861+02311101311ADDAA106000091AG10000GF106991061021008001001001KA1240N+02391MA1999999101261MD1999999-0191REMSYN017 333 20239 59019;
0096834980999991996011618004-17733-039250FM-12+000399999V0201401N00311220001CN0200001N1+02901+02301101041ADDAA106000091AG10000GF102991011011008001031011MA1999999100991MD1999999-0211REMSYN011 333 59021;
0137834980999991996011700004-17733-039250FM-12+000399999V0200901N00211220001CN9999999N9+02541+02291101151ADDAA106000091AG10000GA1001+999999999GF100991001001999999001001MA1999999101101MD1999999-0201REMSYN017 333 10/// 59020;EQDQ01+000002VOVAR 
0134834980999991996011712004-17733-039250FM-12+000399999V0200501N00211012001CN0200001N1+02781+02321101171ADDAA106000091AG10000GF107991051081008001051091KA1240N+02141MA1999999999999MD1999999-0141REMSYN017 333 20214 59014;EQDQ01 091123APOSP 
0115834980999991996011718004-17733-039250FM-12+000399999V0200501N00461220001CN0200001N1+02961+02261100811ADDAA106000091AG10000GF101991011021008001001001MA1999999100762MD1999999-0231REMSYN011 333 59023;EQDQ01+100763APOSP 
0096834980999991996011818004-17733-039250FM-12+000399999V0200501N00671220001CN0200001N1+02941+02331100761ADDAA106000091AG10000GF101991011011008001001001MA1999999100711MD1999999-0051REMSYN011 333 59005;
0137834980999991996011900004-17733-039250FM-12+000399999V0200501N00311220001CN9999999N9+02601+02371100951ADDAA106000091AG10000GA1001+999999999GF100991001001999999001001MA1999999100901MD1999999-0081REMSYN017 333 10/// 59008;EQDQ01+000002VOVAR 
0115834980999991996011912004-17733-039250FM-12+000399999V0200501N00411220001CN0200001N1+02881+02371101071ADDAA106000091AG10000GF104991031021008001001011KA1240N+02271MA1999999101021MD1999999+0051REMSYN017 333 20227 58005;
0096834980999991996011918004-17733-039250FM-12+000399999V0200501N00461220001CN0200001N1+02971+02331100861ADDAA106000091AG10000GF102991011011008001001081MA1999999100811MD1999999+0101REMSYN011 333 58010;
0121834980999991996012000004-17733-039250FM-12+000399999V0200501N00211220001CN9999999N9+02571+02421101081ADDAA106000091AG10000GF102991021011008001001001MA1999999101031MD1999999+0131REMSYN017 333 10/// 58013;EQDQ01+000002VOVAR 
0143834980999991996012012004-17733-039250FM-12+000399999V0200901N00311105001CN0200001N1+02871+02351101281ADDAA124002091AG10003AY161061AY221061GF106991041051008001001021KA1240N+02331MA1999999101231MD1999999+0211MW1211REMSYN023 333 20233 58021 60024;
0096834980999991996012018004-17733-039250FM-12+000399999V0200501N00461220001CN0200001N1+02941+02261101111ADDAA106000091AG10000GF102991021011008001001001MA1999999101061MD1999999+0251REMSYN011 333 58025;
0121834980999991996012100004-17733-039250FM-12+000399999V0200501N00101220001CN9999999N9+02461+02371101341ADDAA106000091AG10000GF101991011011008001001001MA1999999101291MD1999999+0261REMSYN017 333 10/// 58026;EQDQ01+000002VOVAR 
0115834980999991996012112004-17733-039250FM-12+000399999V0200501N00261007501CN0200001N1+02801+02251101281ADDAA106000091AG10000GF106991061021008001001001KA1240N+02121MA1999999101231MD1999999+0001REMSYN017 333 20212 58000;
0096834980999991996012118004-17733-039250FM-12+000399999V0200901N00461220001CN0200001N1+02941+02261101031ADDAA106000091AG10000GF102991011011008001041001MA1999999100981MD1999999-0081REMSYN011 333 59008;
0137834980999991996012200004-17733-039250FM-12+000399999V0200901N00151220001CN9999999N9+02461+02271101151ADDAA106000091AG10000GA1001+999999999GF100991001001999999001001MA1999999101101MD1999999-0191REMSYN017 333 10/// 59019;EQDQ01+000002VOVAR 
0115834980999991996012212004-17733-039250FM-12+000399999V0200901N00361007501CN0200001N1+02841+02241101111ADDAA106000091AG10000GF106991061021008001001001KA1240N+02121MA1999999101061MD1999999-0171REMSYN017 333 20212 59017;
0096834980999991996012218004-17733-039250FM-12+000399999V0200501N00511220001CN0200001N1+02941+02311100931ADDAA106000091AG10000GF101991011021008001001001MA1999999100881MD1999999-0101REMSYN011 333 59010;
0137834980999991996012300004-17733-039250FM-12+000399999V0200501N00151220001CN9999999N9+02481+02321100931ADDAA106000091AG10000GA1001+999999999GF100991001001999999001001MA1999999100881MD1999999-0221REMSYN017 333 10/// 59022;EQDQ01+000002VOVAR 
0115834980999991996012312004-17733-039250FM-12+000399999V0203601N00151220001CN0200001N1+02781+02321101211ADDAA106000091AG10000GF104991041021008001001001KA1240N+02161MA1999999101161MD1999999+0101REMSYN017 333 20216 58010;
0096834980999991996012318004-17733-039250FM-12+000399999V0200501N00511220001CN0200001N1+03081+02131101051ADDAA106000091AG10000GF101991011011008001001001MA1999999101001MD1999999+0121REMSYN011 333 58012;
0137834980999991996012400004-17733-039250FM-12+000399999V0200501N00311220001CN9999999N9+02571+02401101151ADDAA106000091AG10000GA1001+999999999GF100991001001999999001001MA1999999101101MD1999999+0221REMSYN017 333 10/// 58022;EQDQ01+000002VOVAR 
0096834980999991996012418004-17733-039250FM-12+000399999V0200501N00461220001CN0200001N1+03001+02371101261ADDAA106000091AG10000GF102991021011008001001001MA1999999101211MD1999999+0211REMSYN011 333 58021;
0121834980999991996012500004-17733-039250FM-12+000399999V0200501N00211220001CN9999999N9+02581+02421101381ADDAA106000091AG10000GF102991011011008001001011MA1999999101331MD1999999+0231REMSYN017 333 10/// 58023;EQDQ01+000002VOVAR 
0115834980999991996012512004-17733-039250FM-12+000399999V0200501N00411007501CN0200001N1+02931+02431101521ADDAA106000091AG10000GF105991051021008001001001KA1240N+02221MA1999999101471MD1999999+0101REMSYN017 333 20222 58010;
0096834980999991996012518004-17733-039250FM-12+000399999V0200501N00571220001CN0200001N1+02981+02331101311ADDAA106000091AG10000GF103991021011008001001041MA1999999101261MD1999999+0051REMSYN011 333 58005;
0137834980999991996012600004-17733-039250FM-12+000399999V0200501N00211220001CN9999999N9+02561+02381101331ADDAA106000091AG10000GA1001+999999999GF100991001001999999001001MA1999999101281MD1999999-0051REMSYN017 333 10/// 59005;EQDQ01+000002VOVAR 
0102834980999991996012612004-17733-039250FM-12+000399999V0200501N00311220001CN0200001N1+02921+02221101461ADDAA106000091AG10000GF104991041021008001001001MA1999999101411MD1999999-0061REMSYN017 333 20/// 59006;
0096834980999991996012618004-17733-039250FM-12+000399999V0200501N00511220001CN0200001N1+03041+02201101201ADDAA106000091AG10000GF101991011011008001001001MA1999999101151MD1999999-0111REMSYN011 333 59011;
0137834980999991996012700004-17733-039250FM-12+000399999V0200501N00261220001CN9999999N9+02501+02311101271ADDAA106000091AG10000GA1001+999999999GF100991001001999999001001MA1999999101221MD1999999-0061REMSYN017 333 10/// 59006;EQDQ01+000002VOVAR 
0115834980999991996012712004-17733-039250FM-12+000399999V0202301N00051220001CN0200001N1+02721+02471101331ADDAA106000091AG10000GF103991031021008001001001KA1240N+01981MA1999999101281MD1999999-0131REMSYN017 333 20198 59013;
0096834980999991996012718004-17733-039250FM-12+000399999V0201401N00511220001CN0200001N1+02981+02331101101ADDAA106000091AG10000GF102991021011008001001001MA1999999101051MD1999999-0101REMSYN011 333 59010;
0137834980999991996012800004-17733-039250FM-12+000399999V0209991C00001220001CN9999999N9+02501+02361101191ADDAA106000091AG10000GA1001+999999999GF100991001001999999001001MA1999999101141MD1999999-0081REMSYN017 333 10/// 59008;EQDQ01+000002VOVAR 
0115834980999991996012812004-17733-039250FM-12+000399999V0201401N00261045001CN0200001N1+02821+02401101311ADDAA106000091AG10000GF106991041031008001021041KA1240N+02141MA1999999101261MD1999999-0021REMSYN017 333 20214 59002;
0124834980999991996012818004-17733-039250FM-12+000399999V0201401N00361220001CN0200001N1+02981+02401101091ADDAA106001091AG10003AY161061AY221061GF104991041021008001001001MA1999999101041MD1999999-0011MW1211REMSYN017 333 59001 60011;
0121834980999991996012900004-17733-039250FM-12+000399999V0200501N00051220001CN9999999N9+02571+02421101291ADDAA106000091AG10000GF104991041021008001001001MA1999999101241MD1999999+0101REMSYN017 333 10/// 58010;EQDQ01+000002VOVAR 
0143834980999991996012912004-17733-039250FM-12+000399999V0201401N00311045001CN0200001N1+02861+02371101421ADDAA124002091AG10003AY161061AY221061GF106991041051008001021001KA1240N+02251MA1999999101371MD1999999+0111MW1211REMSYN023 333 20225 58011 60024;
0096834980999991996012918004-17733-039250FM-12+000399999V0200901N00311220001CN0200001N1+03021+02291101271ADDAA106000091AG10000GF103991031021008001001001MA1999999101221MD1999999+0181REMSYN011 333 58018;
0121834980999991996013000004-17733-039250FM-12+000399999V0209991C00001220001CN9999999N9+02581+02421101421ADDAA106000091AG10000GF103991031021008001001001MA1999999101371MD1999999+0131REMSYN017 333 10/// 58013;EQDQ01+000002VOVAR 
0143834980999991996013012004-17733-039250FM-12+000399999V0201401N00101220001CN0200001N1+02921+02411101471ADDAA124003091AG10003AY161061AY201061GF102991021021008001001001KA1240N+02321MA1999999101421MD1999999+0051MW1211REMSYN023 333 20232 58005 60034;
0096834980999991996013018004-17733-039250FM-12+000399999V0201401N00261220001CN0200001N1+02961+02451101261ADDAA106000091AG10000GF102991021011008001001001MA1999999101211MD1999999-0011REMSYN011 333 59001;
0137834980999991996013100004-17733-039250FM-12+000399999V0200901N00101220001CN9999999N9+02561+02441101261ADDAA106000091AG10000GA1001+999999999GF100991001001999999001001MA1999999101211MD1999999-0161REMSYN017 333 10/// 59016;EQDQ01+000002VOVAR 
0115834980999991996013112004-17733-039250FM-12+000399999V0202701N00151007501CN0200001N1+02781+02481101271ADDAA106000091AG10000GF105991051021008001001001KA1240N+02271MA1999999101221MD1999999-0201REMSYN017 333 20227 59020;
0096834980999991996013118004-17733-039250FM-12+000399999V0201401N00361220001CN0200001N1+03051+02451101021ADDAA106000091AG10000GF103991021021008001031001MA1999999100971MD1999999-0241REMSYN011 333 59024;
0121834980999991996020100004-17733-039250FM-12+000399999V0200501N00151220001CN9999999N9+02601+02421101081ADDAA106000091AG10000GF102991021011008001001001MA1999999101031MD1999999-0181REMSYN017 333 10/// 59018;EQDQ01+000002VOVAR 
0115834980999991996020112004-17733-039250FM-12+000399999V0203601N00261220001CN0200001N1+02941+02331101201ADDAA106000091AG10000GF103991031011008001001001KA1240N+02231MA1999999101151MD1999999-0071REMSYN017 333 20223 59007;
0121834980999991996020200004-17733-039250FM-12+000399999V0200501N00311220001CN9999999N9+02671+02441101011ADDAA106000091AG10000GF101991011011008001001001MA1999999100961MD1999999-0071REMSYN017 333 10/// 59007;EQDQ01+000002VOVAR 
0115834980999991996020212004-17733-039250FM-12+000399999V0203601N00411220001CN0200001N1+02961+02331101151ADDAA106000091AG10000GF103991031011008001001001KA1240N+02291MA1999999101101MD1999999-0051REMSYN017 333 20229 59005;
0096834980999991996020218004-17733-039250FM-12+000399999V0200501N00621220001CN0200001N1+03081+02291100871ADDAA106000091AG10000GF101991011021008001001001MA1999999100821MD1999999-0011REMSYN011 333 59001;
0137834980999991996020300004-17733-039250FM-12+000399999V0200501N00311220001CN9999999N9+02641+02421101051ADDAA106000091AG10000GA1001+999999999GF100991001001999999001001MA1999999101001MD1999999+0041REMSYN017 333 10/// 58004;EQDQ01+000002VOVAR 
0115834980999991996020312004-17733-039250FM-12+000399999V0200501N00411007501CN0200001N1+02901+02271101191ADDAA106000091AG10000GF105991051021008001001001KA1240N+02181MA1999999101141MD1999999+0041REMSYN017 333 20218 58004;
0096834980999991996020318004-17733-039250FM-12+000399999V0200501N00511220001CN0200001N1+03041+02311100911ADDAA106000091AG10000GF102991021011008001001001MA1999999100861MD1999999+0041REMSYN011 333 58004;
0137834980999991996020400004-17733-039250FM-12+000399999V0200501N00261220001CN9999999N9+02591+02371101081ADDAA106000091AG10000GA1001+999999999GF100991001001999999001001MA1999999101031MD1999999+0031REMSYN017 333 10/// 58003;EQDQ01+000002VOVAR 
0115834980999991996020412004-17733-039250FM-12+000399999V0200501N00361220001CN0200001N1+02801+02201101201ADDAA106000091AG10000GF103991021021008001001011KA1240N+02201MA1999999101151MD1999999+0011REMSYN017 333 20220 58001;
0115834980999991996020418004-17733-039250FM-12+000399999V0200901N00671220001CN0200001N1+03021+02131100851ADDAA106000091AG10000GF102991001001999999001011MA1999999100801MD1999999-0061REMSYN011 333 59006;EQDQ01+000972SCOLCB
0137834980999991996020500004-17733-039250FM-12+000399999V0200501N00311220001CN9999999N9+02551+02291101001ADDAA106000091AG10000GA1001+999999999GF100991001001999999001001MA1999999100951MD1999999-0081REMSYN017 333 10/// 59008;EQDQ01+000002VOVAR 
0115834980999991996020512004-17733-039250FM-12+000399999V0203601N00411220001CN0200001N1+02921+02221101171ADDAA106000091AG10000GF102991011011008001001051KA1240N+02151MA1999999101121MD1999999-0031REMSYN017 333 20215 59003;
0112834980999991996020518004-17733-039250FM-12+000399999V0200501N00511220001CN0200001N1+03021+02131100831ADDAA106000091AG10000GA1001+999999999GF100991001001999999001001MA1999999100781MD1999999-0021REMSYN011 333 59002;
0121834980999991996020600004-17733-039250FM-12+000399999V0200501N00211220001CN9999999N9+02581+02381100971ADDAA106000091AG10000GF101991001001999999001051MA1999999100921MD1999999-0031REMSYN017 333 10/// 59003;EQDQ01+000002VOVAR 
0115834980999991996020612004-17733-039250FM-12+000399999V0203601N00511007501CN0200001N1+02911+02251101181ADDAA106000091AG10000GF106991061021008001001001KA1240N+02271MA1999999101131MD1999999+0011REMSYN017 333 20227 58001;
0112834980999991996020618004-17733-039250FM-12+000399999V0200501N00671220001CN0200001N1+03011+02291100931ADDAA106000091AG10000GA1001+999999999GF100991001001999999001001MA1999999100881MD1999999+0101REMSYN011 333 58010;
0137834980999991996020700004-17733-039250FM-12+000399999V0200501N00261220001CN9999999N9+02601+02351101101ADDAA106000091AG10000GA1001+999999999GF100991001001999999001001MA1999999101051MD1999999+0131REMSYN017 333 10/// 58013;EQDQ01+000002VOVAR 
0115834980999991996020712004-17733-039250FM-12+000399999V0203601N00461220001CN0200001N1+02921+02161101431ADDAA106000091AG10000GF102991021011008001001001KA1240N+02191MA1999999101381MD1999999+0251REMSYN017 333 20219 58025;
0096834980999991996020718004-17733-039250FM-12+000399999V0200501N00511220001CN0200001N1+03081+02271101171ADDAA106000091AG10000GF101991011011008001001001MA1999999101121MD1999999+0241REMSYN011 333 58024;
0137834980999991996020800004-17733-039250FM-12+000399999V0200501N00261220001CN9999999N9+02601+02401101361ADDAA106000091AG10000GA1001+999999999GF100991001001999999001001MA1999999101311MD1999999+0261REMSYN017 333 10/// 58026;EQDQ01+000002VOVAR 
0096834980999991996020818004-17733-039250FM-12+000399999V0200501N00621220001CN0200001N1+03081+02211101211ADDAA106000091AG10000GF101991011021008001001001MA1999999101161MD1999999+0041REMSYN011 333 58004;
0137834980999991996020900004-17733-039250FM-12+000399999V0200501N00151220001CN9999999N9+02581+02421101291ADDAA106000091AG10000GA1001+999999999GF100991001001999999001001MA1999999101241MD1999999-0071REMSYN017 333 10/// 59007;EQDQ01+000002VOVAR 
0115834980999991996020912004-17733-039250FM-12+000399999V0203601N00311007501CN0200001N1+02851+02241101331ADDAA106000091AG10000GF106991061021008001001001KA1240N+02171MA1999999101281MD1999999-0181REMSYN017 333 20217 59018;
0096834980999991996020918004-17733-039250FM-12+000399999V0200501N00461220001CN0200001N1+03111+02001101061ADDAA106000091AG10000GF102991011021008001001011MA1999999101011MD1999999-0151REMSYN011 333 59015;
0137834980999991996021000004-17733-039250FM-12+000399999V0200501N00211220001CN9999999N9+02591+02371101131ADDAA106000091AG10000GA1001+999999999GF100991001001999999001001MA1999999101081MD1999999-0161REMSYN017 333 10/// 59016;EQDQ01+000002VOVAR 
0134834980999991996021012004-17733-039250FM-12+000399999V0200301N00511220001CN0200001N1+02901+02221101321ADDAA106000091AG10000GF103991031021008001001001KA1240N+02381MA1999999101271MD1999999-0101REMSYN017 333 20238 59010;EQDQ01+999990APOSP 
0115834980999991996021018004-17733-039250FM-12+000399999V0200501N00621220001CN0200001N1+03041+02181100951ADDAA106000091AG10000GF101991001001999999001011MA1999999100901MD1999999-0111REMSYN011 333 59011;EQDQ01+000972SCOLCB
0137834980999991996021100004-17733-039250FM-12+000399999V0200501N00411220001CN9999999N9+02611+02351101171ADDAA106000091AG10000GA1001+999999999GF100991001001999999001001MA1999999101121MD1999999+0041REMSYN017 333 10/// 58004;EQDQ01+000002VOVAR 
0115834980999991996021112004-17733-039250FM-12+000399999V0203601N00361007501CN0200001N1+02861+02211101341ADDAA106000091AG10000GF105991051021008001001001KA1240N+02171MA1999999101291MD1999999+0201REMSYN017 333 20217 58020;
0096834980999991996021118004-17733-039250FM-12+000399999V0200501N00621220001CN0200001N1+03001+02271101081ADDAA106000091AG10000GF101991011011008001001001MA1999999101031MD1999999+0131REMSYN011 333 58013;
0137834980999991996021200004-17733-039250FM-12+000399999V0200501N00261220001CN9999999N9+02601+02351101251ADDAA106000091AG10000GA1001+999999999GF100991001001999999001001MA1999999101201MD1999999+0081REMSYN017 333 10/// 58008;EQDQ01+000002VOVAR 
0115834980999991996021212004-17733-039250FM-12+000399999V0200501N00411007501CN0200001N1+02821+02331101461ADDAA106000091AG10000GF105991051021008001001001KA1240N+02081MA1999999101411MD1999999+0121REMSYN017 333 20208 58012;
0096834980999991996021218004-17733-039250FM-12+000399999V0200501N00511220001CN0200001N1+03021+99999101231ADDAA106000091AG10000GF104991031011008001051001MA1999999101181MD1999999+0151REMSYN011 333 58015;
0137834980999991996021300004-17733-039250FM-12+000399999V0200501N00101220001CN9999999N9+02541+02441101381ADDAA106000091AG10000GA1001+999999999GF100991001001999999001001MA1999999101331MD1999999+0131REMSYN017 333 10/// 58013;EQDQ01+000002VOVAR 
0143834980999991996021312004-17733-039250FM-12+000399999V0200901N00051220001CN0200001N1+02751+02561101541ADDAA124000191AG10003AY161061AY221061GF105991041021008001001011KA1240N+02191MA1999999101491MD1999999+0081MW1211REMSYN023 333 20219 58008 69914;
0096834980999991996021318004-17733-039250FM-12+000399999V0200901N00461220001CN0200001N1+02961+02331101351ADDAA106000091AG10000GF104991031021008001021091MA1999999101301MD1999999+0121REMSYN011 333 58012;
0121834980999991996021400004-17733-039250FM-12+000399999V0200901N00211105001CN9999999N9+02661+02351101461ADDAA106000091AG10000GF107991021021008001001081MA1999999101411MD1999999+0081REMSYN017 333 10/// 58008;EQDQ01+000002VOVAR 
0115834980999991996021412004-17733-039250FM-12+000399999V0201401N00261045001CN0200001N1+03001+02441101521ADDAA106000091AG10000GF106991031021008001031081KA1240N+02321MA1999999101471MD1999999-0021REMSYN017 333 20232 59002;
0096834980999991996021418004-17733-039250FM-12+000399999V0201401N00311045001CN0200001N1+02921+02341101391ADDAA106000091AG10000GF105991021021008001031001MA1999999101341MD1999999+0041REMSYN011 333 58004;
0121834980999991996021500004-17733-039250FM-12+000399999V0201401N00411220001CN9999999N9+02721+02371101601ADDAA106000091AG10000GF102991021011008001001001MA1999999101551MD1999999+0141REMSYN017 333 10/// 58014;EQDQ01+000002VOVAR 
0143834980999991996021512004-17733-039250FM-12+000399999V0201401N00361105001CN0200001N1+02841+02401101641ADDAA124000591AG10003AY161061AY221061GF105991021011008001051011KA1240N+02361MA1999999101591MD1999999+0121MW1211REMSYN023 333 20236 58012 69944;
0096834980999991996021518004-17733-039250FM-12+000399999V0200901N00311045001CN0200001N1+02901+02321101421ADDAA106000091AG10000GF106991031011008001041021MA1999999101371MD1999999+0031REMSYN011 333 58003;
0121834980999991996021600004-17733-039250FM-12+000399999V0200901N00211220001CN9999999N9+02681+02481101641ADDAA106000091AG10000GF104991041021008001001001MA1999999101591MD1999999+0041REMSYN017 333 10/// 58004;EQDQ01+000002VOVAR 
0143834980999991996021612004-17733-039250FM-12+000399999V0200901N00261220001CN0200001N1+02901+02561101681ADDAA124003091AG10003AY161061AY261061GF105991031031008001001041KA1240N+02311MA1999999101641MD1999999+0041MW1021REMSYN023 333 20231 58004 60034;
0121834980999991996021700004-17733-039250FM-12+000399999V0201401N00311220001CN9999999N9+02751+02481101571ADDAA106000091AG10000GF101991011011008001001001MA1999999101521MD1999999-0071REMSYN017 333 10/// 59007;EQDQ01+000002VOVAR 
0115834980999991996021712004-17733-039250FM-12+000399999V0201401N00311007501CN0200001N1+02911+02601101451ADDAA106000091AG10000GF105991051021008001001001KA1240N+02141MA1999999101401MD1999999-0231REMSYN017 333 20214 59023;
0096834980999991996021718004-17733-039250FM-12+000399999V0201401N00311220001CN0200001N1+03011+02441101201ADDAA106000091AG10000GF103991031011008001001001MA1999999101151MD1999999-0261REMSYN011 333 59026;
0121834980999991996021800004-17733-039250FM-12+000399999V0200901N00311220001CN9999999N9+02701+02411101341ADDAA106000091AG10000GF102991021011008001001001MA1999999101291MD1999999-0231REMSYN017 333 10/// 59023;EQDQ01+000002VOVAR 
0143834980999991996021812004-17733-039250FM-12+000399999V0201401N00311045001CN0200001N1+02901+02501101271ADDAA124006091AG10003AY161061AY221061GF106991041021008001041001KA1240N+02371MA1999999101221MD1999999-0181MW1211REMSYN023 333 20237 59018 60064;
0121834980999991996021900004-17733-039250FM-12+000399999V0200901N00211220001CN9999999N9+02681+02481101221ADDAA106000091AG10000GF102991021011008001001001MA1999999101171MD1999999-0121REMSYN017 333 10/// 59012;EQDQ01+000002VOVAR 
0143834980999991996021912004-17733-039250FM-12+000399999V0200901N00211007501CN0200001N1+02841+02521101331ADDAA124002091AG10003AY161061AY221061GF106991061021008001001001KA1240N+02321MA1999999101281MD1999999+0061MW1211REMSYN023 333 20232 58006 60024;
0096834980999991996021918004-17733-039250FM-12+000399999V0200901N00461220001CN0200001N1+03091+02321101031ADDAA106000091AG10000GF102991021011008001001001MA1999999100981MD1999999-0051REMSYN011 333 59005;
0137834980999991996022000004-17733-039250FM-12+000399999V0200501N00051220001CN9999999N9+02601+02481101171ADDAA106000091AG10000GA1001+999999999GF100991001001999999001001MA1999999101121MD1999999-0051REMSYN017 333 10/// 59005;EQDQ01+000002VOVAR 
0115834980999991996022012004-17733-039250FM-12+000399999V0203601N00261220001CN0200001N1+02911+02391101251ADDAA106000091AG10000GF104991041021008001001001KA1240N+02221MA1999999101201MD1999999-0081REMSYN017 333 20222 59008;
0096834980999991996022018004-17733-039250FM-12+000399999V0200501N00511220001CN0200001N1+03141+02211100931ADDAA106000091AG10000GF102991021011008001001001MA1999999100881MD1999999-0101REMSYN011 333 59010;
0137834980999991996022100004-17733-039250FM-12+000399999V0200501N00261220001CN9999999N9+02621+02371101031ADDAA106000091AG10000GA1001+999999999GF100991001001999999001001MA1999999100981MD1999999-0141REMSYN017 333 10/// 59014;EQDQ01+000002VOVAR 
0115834980999991996022112004-17733-039250FM-12+000399999V0203601N00311220001CN0200001N1+03011+02341100981ADDAA106000091AG10000GF105991021021008001001081KA1240N+02261MA1999999100931MD1999999-0271REMSYN017 333 20226 59027;
0096834980999991996022118004-17733-039250FM-12+000399999V0203601N00411220001CN0200001N1+03121+02251100721ADDAA106000091AG10000GF103991021011008001001011MA1999999100671MD1999999-0211REMSYN011 333 59021;
0137834980999991996022200004-17733-039250FM-12+000399999V0203601N00311220001CN9999999N9+02721+02451100921ADDAA106000091AG10000GA1001+999999999GF100991001001999999001001MA1999999100871MD1999999-0111REMSYN017 333 10/// 59011;EQDQ01+000002VOVAR 
0115834980999991996022212004-17733-039250FM-12+000399999V0203601N00511105001CN0200001N1+02901+02411101131ADDAA106000091AG10000GF106991041021008001001081KA1240N+02381MA1999999101081MD1999999+0151REMSYN017 333 20238 58015;
0124834980999991996022218004-17733-039250FM-12+000399999V0200501N00571105001CN0200001N1+03051+02451100871ADDAA106000191AG10003AY161061AY221061GF107991031051008001001081MA1999999100821MD1999999+0151MW1021REMSYN017 333 58015 69921;
0121834980999991996022300004-17733-039250FM-12+000399999V0200501N00211220001CN9999999N9+02741+02521101091ADDAA106000091AG10000GF103991001001999999001081MA1999999101041MD1999999+0171REMSYN017 333 10/// 58017;EQDQ01+000002VOVAR 
0121834980999991996022312004-17733-039250FM-12+000399999V0203601N00361045001CN0200001N1+02941+02331101321ADDAA124000191AG10000GF106991031051008001031081KA1240N+02391MA1999999101271MD1999999+0191REMSYN023 333 20239 58019 69924;
0124834980999991996022318004-17733-039250FM-12+000399999V0200501N00571220001CN0200001N1+03111+02261101031ADDAA106004091AG10003AY161061AY201061GF103991999999008001999999MA1999999100981MD1999999+0161MW1211REMSYN017 333 58016 60041;
0143834980999991996022400004-17733-039250FM-12+000399999V0200501N00261220001CN9999999N9+02691+02501101251ADDAA106000091AG10003AY161061AY211061GF103991011011008001001081MA1999999101201MD1999999+0161MW1131REMSYN017 333 10/// 58016;EQDQ01+000002VOVAR 
0143834980999991996022412004-17733-039250FM-12+000399999V0200501N00261220001CN9999999N9+02691+02501101251ADDAA106000091AG10003AY161061AY211061GF103991011011008001001081MA1999999101201MD1999999+0161MW1131REMSYN017 333 10/// 58016;EQDQ01+000002VOVAR 
0096834980999991996022418004-17733-039250FM-12+000399999V0203601N00411220001CN0200001N1+03101+99999101161ADDAA106000091AG10000GF102991021011008001001001MA1999999101111MD1999999+0131REMSYN011 333 58013;
0137834980999991996022500004-17733-039250FM-12+000399999V0200501N00261220001CN9999999N9+02641+02331101211ADDAA106000091AG10000GA1001+999999999GF100991001001999999001001MA1999999101161MD1999999-0041REMSYN017 333 10/// 59004;EQDQ01+000002VOVAR 
0115834980999991996022512004-17733-039250FM-12+000399999V0203601N00211220001CN0200001N1+02791+02321101421ADDAA106000091AG10000GF105991041021008001001041KA1240N+02211MA1999999101371MD1999999+0011REMSYN017 333 20221 58001;
0096834980999991996022518004-17733-039250FM-12+000399999V0200501N00571220001CN0200001N1+03021+02161101131ADDAA106000091AG10000GF104991021011008001001041MA1999999101081MD1999999-0031REMSYN011 333 59003;
0134834980999991996022600004-17733-039250FM-12+000399999V0209991C00001220001CN9999999N9+02601+02291101191ADDAA106000091AG10000GF102991021021008001001001KA1240M+03041MA1999999101141MD1999999+0011REMSYN017 333 10304 58001;EQDQ01+000002VOVAR 
0115834980999991996022612004-17733-039250FM-12+000399999V0203601N00311220001CN0200001N1+02841+02171101431ADDAA106000091AG10000GF104991011011008001001011KA1240N+01991MA1999999101381MD1999999+0011REMSYN017 333 20199 58001;
0115834980999991996022618004-17733-039250FM-12+000399999V0200501N00511220001CN0200001N1+03061+02111101171ADDAA106000091AG10000GF102991001001999999001021MA1999999101121MD1999999+0041REMSYN011 333 58004;EQDQ01+000972SCOLCB
0137834980999991996022700004-17733-039250FM-12+000399999V0200501N00151220001CN9999999N9+02541+02391101241ADDAA106000091AG10000GA1001+999999999GF100991001001999999001001MA1999999101191MD1999999-0071REMSYN017 333 10/// 59007;EQDQ01+000002VOVAR 
0115834980999991996022712004-17733-039250FM-12+000399999V0203601N00361220001CN0200001N1+02921+02321101431ADDAA106000091AG10000GF104991041021008001001001KA1240N+02171MA1999999101381MD1999999+0001REMSYN017 333 20217 58000;
0096834980999991996022718004-17733-039250FM-12+000399999V0200501N00411220001CN0200001N1+03061+02191101151ADDAA106000091AG10000GF102991021011008001001001MA1999999101101MD1999999-0021REMSYN011 333 59002;
0121834980999991996022800004-17733-039250FM-12+000399999V0200501N00311220001CN9999999N9+02601+02371101251ADDAA106000091AG10000GF102991011011008001001011MA1999999101201MD1999999+0011REMSYN017 333 10/// 58001;EQDQ01+000002VOVAR 
0143834980999991996022812004-17733-039250FM-12+000399999V0201401N00101045001CN0200001N1+02371+02291101491ADDAA124005091AG10003AY161061AY221061GF107991041051008001021041KA1240N+02181MA1999999101441MD1999999+0061MW1211REMSYN023 333 20218 58006 60054;
0121834980999991996022900004-17733-039250FM-12+000399999V0200901N00151220001CN9999999N9+02621+02411101261ADDAA106000091AG10000GF103991031021008001001001MA1999999101211MD1999999+0011REMSYN017 333 10/// 58001;EQDQ01+000002VOVAR 
0143834980999991996022912004-17733-039250FM-12+000399999V0203601N00101105001CN0200001N1+02691+02461101341ADDAA124009091AG10003AY161061AY221061GF106991021051008001031041KA1240N+02231MA1999999101291MD1999999-0151MW1211REMSYN023 333 20223 59015 60094;
0096834980999991996022918004-17733-039250FM-12+000399999V0200901N00311220001CN0200001N1+03001+02291101041ADDAA106000091AG10000GF105991011011008001001041MA1999999100991MD1999999-0071REMSYN011 333 59007;
0137834980999991996030100004-17733-039250FM-12+000399999V0200901N00101220001CN9999999N9+02551+02421101141ADDAA106000091AG10000GA1001+999999999GF100991001001999999001001MA1999999101091MD1999999-0121REMSYN017 333 10/// 59012;EQDQ01+000002VOVAR 
0143834980999991996030112004-17733-039250FM-12+000399999V0200501N00361220001CN0200001N1+02841+02401101231ADDAA124001091AG10003AY161061AY211061GF104991021011008001051001KA1240N+02261MA1999999101181MD1999999-0111MW1211REMSYN023 333 20226 59011 60014;
0096834980999991996030118004-17733-039250FM-12+000399999V0200501N00461045001CN0200001N1+02981+02281100961ADDAA106000091AG10000GF106991031011008001051011MA1999999100911MD1999999-0081REMSYN011 333 59008;
0121834980999991996030200004-17733-039250FM-12+000399999V0200501N00211220001CN9999999N9+02581+02371101151ADDAA106000091AG10000GF102991011011008001001011MA1999999101101MD1999999+0011REMSYN017 333 10/// 58001;EQDQ01+000002VOVAR 
0115834980999991996030212004-17733-039250FM-12+000399999V0200501N00151007501CN0200001N1+02791+02481101381ADDAA106000091AG10000GF106991061021008001001001KA1240N+02201MA1999999101331MD1999999+0151REMSYN017 333 20220 58015;
0096834980999991996030218004-17733-039250FM-12+000399999V0200901N00511220001CN0200001N1+03041+02361101121ADDAA106000091AG10000GF103991021011008001001041MA1999999101071MD1999999+0161REMSYN011 333 58016;
0121834980999991996030300004-17733-039250FM-12+000399999V0200501N00101220001CN9999999N9+02581+02441101311ADDAA106000091AG10000GF103991021011008001001011MA1999999101261MD1999999+0161REMSYN017 333 10/// 58016;EQDQ01+000002VOVAR 
0115834980999991996030312004-17733-039250FM-12+000399999V0200501N00151220001CN0200001N1+02901+02501101301ADDAA106000091AG10000GF106991041051008001001041KA1240N+02231MA1999999101251MD1999999-0081REMSYN017 333 20223 59008;
0096834980999991996030318004-17733-039250FM-12+000399999V0200501N00411220001CN0200001N1+03041+02361100991ADDAA106000091AG10000GF103991011011008001001041MA1999999100941MD1999999-0131REMSYN011 333 59013;
0121834980999991996030400004-17733-039250FM-12+000399999V0200501N00101220001CN9999999N9+02581+02421101121ADDAA106000091AG10000GF103991021011008001001041MA1999999101071MD1999999-0191REMSYN017 333 10/// 59019;EQDQ01+000002VOVAR 
0115834980999991996030412004-17733-039250FM-12+000399999V0200501N00151045001CN0200001N1+02801+02461101111ADDAA106000091AG10000GF106991041041008001031001KA1240N+02261MA1999999101061MD1999999-0161REMSYN017 333 20226 59016;
0096834980999991996030418004-17733-039250FM-12+000399999V0200501N00411220001CN0200001N1+03061+02351100821ADDAA106000091AG10000GF103991021011008001001011MA1999999100771MD1999999-0171REMSYN011 333 59017;
0121834980999991996030500004-17733-039250FM-12+000399999V0200501N00361220001CN9999999N9+02661+02521101071ADDAA106000091AG10000GF103991031011008001001001MA1999999101021MD1999999-0051REMSYN017 333 10/// 59005;EQDQ01+000002VOVAR 
0115834980999991996030512004-17733-039250FM-12+000399999V0200501N00261007501CN0200001N1+02821+02421101191ADDAA106000091AG10000GF107991051051008001031041KA1240N+02351MA1999999101141MD1999999+0081REMSYN017 333 20235 58008;
0121834980999991996030600004-17733-039250FM-12+000399999V0200501N00261220001CN9999999N9+02641+02441101261ADDAA106000091AG10000GF101991011011008001001001MA1999999101211MD1999999+0191REMSYN017 333 10/// 58019;EQDQ01+000002VOVAR 
0115834980999991996030612004-17733-039250FM-12+000399999V0200501N00151220001CN0200001N1+02951+02331101461ADDAA106000091AG10000GF106991041021008001001011KA1240N+02221MA1999999101411MD1999999+0271REMSYN017 333 20222 58027;
0096834980999991996030618004-17733-039250FM-12+000399999V0200501N00411220001CN0200001N1+03081+02421101141ADDAA106000091AG10000GF103991011011008001001011MA1999999101091MD1999999+0191REMSYN011 333 58019;
0121834980999991996030700004-17733-039250FM-12+000399999V0200501N00461220001CN9999999N9+02691+02411101271ADDAA106000091AG10000GF104991041021008001001001MA1999999101221MD1999999+0011REMSYN017 333 10/// 58001;EQDQ01+000002VOVAR 
0115834980999991996030712004-17733-039250FM-12+000399999V0200501N00261045001CN0200001N1+02741+02451101371ADDAA106000091AG10000GF105991021021008001031001KA1240N+02261MA1999999101321MD1999999-0091REMSYN017 333 20226 59009;
0096834980999991996030718004-17733-039250FM-12+000399999V0200501N00461220001CN0200001N1+02981+02281101011ADDAA106000091AG10000GF104991041011008001001001MA1999999100961MD1999999-0131REMSYN011 333 59013;
0117834980999991996030800004-17733-039250FM-12+000399999V0200501N00311999999CN9999999N9+02721+02431101151ADDAA106000091AG10000GF106991999999008001999999MA1999999101101REMSYN011 333 10///;EQDQ01+999990APOSLPQ02+000002VOVAR 
0115834980999991996030812004-17733-039250FM-12+000399999V0200501N00361220001CN0200001N1+02961+02311101261ADDAA106000091AG10000GF105991041011008001001041KA1240N+02321MA1999999101211MD1999999-0111REMSYN017 333 20232 59011;
0096834980999991996030818004-17733-039250FM-12+000399999V0200501N00511220001CN0200001N1+03101+02261100931ADDAA106000091AG10000GF104991001001999999001041MA1999999100881MD1999999-0081REMSYN011 333 59008;
0121834980999991996030900004-17733-039250FM-12+000399999V0200501N00261220001CN9999999N9+02701+02451101191ADDAA106000091AG10000GF106991021011008001001041MA1999999101141MD1999999+0041REMSYN017 333 10/// 58004;EQDQ01+000002VOVAR 
0134834980999991996030912004-17733-039250FM-12+000399999V0203601N00411220001CN0200001N1+02981+02331101411ADDAA106000091AG10000GF104991021011008001001041KA1240N+02341MA1999999101361MD1999999+0101REMSYN017 333 20234 58010;EQDQ01+999990APOSLP
0159834980999991996031000004-17733-039250FM-12+000399999V0200501N00261220001CN9999999N9+02691+02451101071ADDAA106000091AG10003AY161061AY201061GA1001+999999999GF100991001001999999001001MA1999999101021MD1999999-0121MW1131REMSYN017 333 10/// 59012;EQDQ01+000002VOVAR 
0115834980999991996031012004-17733-039250FM-12+000399999V0203601N00411045001CN0200001N1+02961+02381101381ADDAA106000091AG10000GF106991021021008001041091KA1240N+02391MA1999999101331MD1999999+0021REMSYN017 333 20239 58002;
0096834980999991996031018004-17733-039250FM-12+000399999V0201401N00311045001CN0100001N1+02961+02311101171ADDAA106000091AG10000GF106991031041008001041001MA1999999101121MD1999999+0211REMSYN011 333 58021;
0121834980999991996031100004-17733-039250FM-12+000399999V0201401N00361045001CN9999999N9+02761+02461101361ADDAA106000091AG10000GF106991041041008001041001MA1999999101311MD1999999+0291REMSYN017 333 10/// 58029;EQDQ01+000002VOVAR 
0143834980999991996031112004-17733-039250FM-12+000399999V0201801N00411007501CN0200001N1+02791+02421101271ADDAA124009091AG10003AY161061AY261061GF106991061021008001001001KA1240N+02331MA1999999101221MD1999999-0111MW1211REMSYN023 333 20233 59011 60094;
0121834980999991996031200004-17733-039250FM-12+000399999V0201801N00311220001CN9999999N9+02681+02481101231ADDAA106000091AG10000GF103991011011008001001041MA1999999101181MD1999999-0131REMSYN017 333 10/// 59013;EQDQ01+000002VOVAR 
0143834980999991996031212004-17733-039250FM-12+000399999V0201401N00261045001CN0040001N1+02581+02491101211ADDAA124012091AG10003AY161061AY261061GF108991041071008001021999KA1240N+02231MA1999999101161MD1999999-0061MW1601REMSYN023 333 20223 59006 60124;
0124834980999991996031218004-17733-039250FM-12+000399999V0201801N00461045001CN0200001N1+02911+02561100921ADDAA106008091AG10003AY161061AY221061GF106991041031008001061001MA1999999100871MD1999999-0131MW1211REMSYN017 333 59013 60081;
0149834980999991996031300004-17733-039250FM-12+000399999V0201401N00211220001CN9999999N9+02721+02501101111ADDAA106000191AG10003AY161061AY211061GF103991031061008001001001MA1999999101061MD1999999-0121MW1211REMSYN023 333 10/// 59012 69921;EQDQ01+000002VOVAR 
0143834980999991996031312004-17733-039250FM-12+000399999V0202301N00261105001CN0200001N1+02661+02611101261ADDAA124011091AG10003AY161061AY221061GF106991041041008001001091KA1240N+02321MA1999999101211MD1999999+0051MW1211REMSYN023 333 20232 58005 60114;
0096834980999991996031318004-17733-039250FM-12+000399999V0201401N00411105001CN0200001N1+02741+02451101161ADDAA106000091AG10000GF106991031041008001001021MA1999999101111MD1999999+0241REMSYN011 333 58024;
0153834980999991996031400004-17733-039250FM-12+000399999V0201401N00361045001CN9999999N9+02681+02481101371ADDAA106000091AG10000GF105991031041008001041001MA1999999999999MD1999999+0261REMSYN017 333 10/// 58026;EQDQ01+091323APOSP Q02+000002VOVAR Q03 091323APOSP 
0143834980999991996031412004-17733-039250FM-12+000399999V0200901N00051045001CN0100001N1+02611+02401101511ADDAA124027091AG10003AY161061AY261061GF108991041071008001021081KA1240N+02361MA1999999101461MD1999999+0251MW1291REMSYN023 333 20236 58025 60274;
0124834980999991996031418004-17733-039250FM-12+000399999V0201801N00101045001CN0100001N1+02731+02631101311ADDAA106003091AG10003AY161061AY261061GF108991031071008001021081MA1999999101261MD1999999+0151MW1291REMSYN017 333 58015 60031;
0121834980999991996031512004-17733-039250FM-12+000399999V0201401N00211105001CN0200001N1+02881+02371101471ADDAA124013091AG10000GF106991041021008001001021KA1240N+01901MA1999999101421MD1999999-0021REMSYN023 333 20190 59002 60134;
0096834980999991996031518004-17733-039250FM-12+000399999V0201401N00311045001CN0200001N1+02901+02411101231ADDAA106000091AG10000GF106991021031008001061021MA1999999101181MD1999999-0081REMSYN011 333 59008;
0121834980999991996031600004-17733-039250FM-12+000399999V0200901N00151220001CN9999999N9+02681+02371101341ADDAA106000091AG10000GF101991011011008001001001MA1999999101291MD1999999-0061REMSYN017 333 10/// 59006;EQDQ01+000002VOVAR 
0115834980999991996031612004-17733-039250FM-12+000399999V0202301N00101045001CN0200001N1+02721+02521101271ADDAA106000091AG10000GF105991031041008001041001KA1240N+02211MA1999999101221MD1999999-0201REMSYN017 333 20221 59020;
0096834980999991996031618004-17733-039250FM-12+000399999V0200901N00311105001CN0200001N1+02881+02371100891ADDAA106000091AG10000GF106991021041008001001091MA1999999100481MD1999999-0341REMSYN011 333 59034;
0137834980999991996031700004-17733-039250FM-12+000399999V0200901N00101220001CN9999999N9+02481+02451101031ADDAA106000091AG10000GA1001+999999999GF100991001001999999001001MA1999999100981MD1999999-0311REMSYN017 333 10/// 59031;EQDQ01+000002VOVAR 
0115834980999991996031712004-17733-039250FM-12+000399999V0202701N00101012001CN0200001N1+02741+02401101251ADDAA106000091AG10000GF107991051081008001071051KA1240N+02181MA1999999101201MD1999999-0021REMSYN017 333 20218 59002;
0124834980999991996031718004-17733-039250FM-12+000399999V0201401N00311220001CN0200001N1+03061+02521100941ADDAA106000591AG10003AY161061AY201061GF102991011011008001001051MA1999999100891MD1999999+0051MW1211REMSYN017 333 58005 69951;
0121834980999991996031800004-17733-039250FM-12+000399999V0200901N00101220001CN9999999N9+02661+02481101151ADDAA106000091AG10000GF102991011011008001001051MA1999999101101MD1999999+0121REMSYN017 333 10/// 58012;EQDQ01+000002VOVAR 
0051834980999991996031812004-17733-039250FM-12+000399999V0200501N00101999999CN0200001N1+02891+02641101361ADDAG10000GF106991999999008001999999MA1999999101311
0096834980999991996031818004-17733-039250FM-12+000399999V0200901N00261220001CN0200001N1+03041+02481101161ADDAA106000091AG10000GF103991021021008001001041MA1999999101111MD1999999+0221REMSYN011 333 58022;
0121834980999991996031900004-17733-039250FM-12+000399999V0200901N00151220001CN9999999N9+02671+02441101371ADDAA106000091AG10000GF102991021011008001001001MA1999999101321MD1999999+0221REMSYN017 333 10/// 58022;EQDQ01+000002VOVAR 
0115834980999991996031912004-17733-039250FM-12+000399999V0202701N00101045001CN0200001N1+02741+02541101461ADDAA106000091AG10000GF106991041051008001061001KA1240N+02251MA1999999101411MD1999999+0101REMSYN017 333 20225 58010;
0096834980999991996031918004-17733-039250FM-12+000399999V0200901N00311220001CN0200001N1+03021+02391101181ADDAA106000091AG10000GF102991021011008001001001MA1999999101131MD1999999+0021REMSYN011 333 58002;
0096834980999991996032018004-17733-039250FM-12+000399999V0200501N00261045001CN0200001N1+03041+02381101031ADDAA106000091AG10000GF106991031011008001041011MA1999999100981MD1999999-0151REMSYN011 333 59015;
0115834980999991996032112004-17733-039250FM-12+000399999V0200501N00211220001CN0200001N1+02941+02431101231ADDAA106000091AG10000GF106991041021008001001061KA1240N+02301MA1999999101181MD1999999-0101REMSYN017 333 20230 59010;
0096834980999991996032118004-17733-039250FM-12+000399999V0200901N00511105001CN0200001N1+03101+02291100941ADDAA106000091AG10000GF107991011021008001001021MA1999999100891MD1999999-0091REMSYN011 333 59009;
0121834980999991996032200004-17733-039250FM-12+000399999V0200501N00101220001CN9999999N9+02701+02501101211ADDAA106000091AG10000GF102991011011008001001051MA1999999101161MD1999999+0101REMSYN017 333 10/// 58010;EQDQ01+000002VOVAR 
0115834980999991996032212004-17733-039250FM-12+000399999V0202301N00051045001CN0200001N1+02731+02581101381ADDAA106000091AG10000GF107991041051008001021081KA1240N+02331MA1999999101331MD1999999+0151REMSYN017 333 20233 58015;
0096834980999991996032218004-17733-039250FM-12+000399999V0201401N00311045001CN0200001N1+02931+02471101071ADDAA106000091AG10000GF106991031031008001041081MA1999999101021MD1999999+0131REMSYN011 333 58013;
0121834980999991996032300004-17733-039250FM-12+000399999V0200901N00211045001CN9999999N9+02731+02481101231ADDAA106000091AG10000GF105991031051008001041001MA1999999101181MD1999999+0021REMSYN017 333 10/// 58002;EQDQ01+000002VOVAR 
0143834980999991996032312004-17733-039250FM-12+000399999V0200501N00101220001CN0200001N1+02621+02531101311ADDAA124009091AG10003AY161061AY221061GF106991041051008001001041KA1240N+02211MA1999999101261MD1999999-0071MW1211REMSYN023 333 20221 59007 60094;
0121834980999991996032400004-17733-039250FM-12+000399999V0200901N00151220001CN9999999N9+02681+02521101201ADDAA106000091AG10000GF103991031061008001001001MA1999999101151MD1999999-0031REMSYN017 333 10/// 59003;EQDQ01+000002VOVAR 
0143834980999991996032412004-17733-039250FM-12+000399999V0203601N00311220001CN0200001N1+02721+02451101141ADDAA124030091AG10003AY161061AY211061GF103991021011008001041001KA1240N+02181MA1999999101091MD1999999-0171MW1211REMSYN023 333 20218 59017 60304;
0096834980999991996032418004-17733-039250FM-12+000399999V0200501N00261220001CN0200001N1+03061+02521100741ADDAA106000091AG10000GF105991031011008001001011MA1999999100691MD1999999-0171REMSYN011 333 59017;
0121834980999991996032500004-17733-039250FM-12+000399999V0203201N00101007501CN9999999N9+02721+02521101061ADDAA106000091AG10000GF106991061031008001001001MA1999999101011MD1999999-0141REMSYN017 333 10/// 59014;EQDQ01+000002VOVAR 
0143834980999991996032512004-17733-039250FM-12+000399999V0203601N00211045001CN0200001N1+02601+02421101051ADDAA124001091AG10003AY161061AY221061GF107991011011008001041081KA1240N+02341MA1999999101001MD1999999-0091MW1211REMSYN023 333 20234 59009 60014;
0096834980999991996032518004-17733-039250FM-12+000399999V0200501N00411045001CN0200001N1+02561+02381100731ADDAA106000091AG10000GF107991011011008001071021MA1999999100681MD1999999-0011REMSYN011 333 59001;
0121834980999991996032600004-17733-039250FM-12+000399999V0200501N00211220001CN9999999N9+02681+02581101021ADDAA106000091AG10000GF101991001001999999001051MA1999999100971MD1999999-0041REMSYN017 333 10/// 59004;EQDQ01+000002VOVAR 
0096834980999991996032618004-17733-039250FM-12+000399999V0200501N00461220001CN0200001N1+03001+02491100981ADDAA106000091AG10000GF105991041021008001001041MA1999999100931MD1999999+0251REMSYN011 333 58025;
0115834980999991996032712004-17733-039250FM-12+000399999V0201401N00261045001CN0100001N1+02881+02481101601ADDAA106000091AG10000GF107991031071008001071091KA1240N+02211MA1999999101551MD1999999+0421REMSYN017 333 20221 58042;
0124834980999991996032718004-17733-039250FM-12+000399999V0201401N00151045001CN0200001N1+02821+02521101411ADDAA106021091AG10003AY161061AY261061GF107991031071008001061081MA1999999101361MD1999999+0431MW1611REMSYN017 333 58043 60211;
0165834980999991996032800004-17733-039250FM-12+000399999V0200501N00051220001CN9999999N9+02461+02371101501ADDAA106001091AG10003AY161061AY261061GA1001+999999999GF100991001001999999001001MA1999999101451MD1999999+0231MW1211REMSYN023 333 10/// 58023 69981;EQDQ01+000002VOVAR 
0143834980999991996032812004-17733-039250FM-12+000399999V0202701N00101220001CN0200001N1+02541+02521101651ADDAA124024091AG10003AY161061AY261061GF104991021011008001001011KA1240N+02261MA1999999101601MD1999999+0051MW1921REMSYN023 333 20226 58005 60244;
0124834980999991996032818004-17733-039250FM-12+000399999V0200501N00311220001CN0200001N1+02921+02471101381ADDAA106001091AG10003AY161061AY211061GF104991031011008001001011MA1999999101331MD1999999-0031MW1211REMSYN017 333 59003 69971;
0137834980999991996032900004-17733-039250FM-12+000399999V0200501N00211220001CN9999999N9+02621+02411101521ADDAA106000091AG10000GA1001+999999999GF100991001001999999001001MA1999999101471MD1999999+0021REMSYN017 333 10/// 58002;EQDQ01+000002VOVAR 
0121834980999991996032912004-17733-039250FM-12+000399999V0201401N00311220001CN0200001N1+02901+02481101571ADDAA124000191AG10000GF104991041041008001001001KA1240N+02241MA1999999101521MD1999999-0081REMSYN023 333 20224 59008 69924;
0121834980999991996033000004-17733-039250FM-12+000399999V0201401N00211220001CN9999999N9+02741+02481101401ADDAA106000091AG10000GF102991021011008001001001MA1999999101351MD1999999-0121REMSYN017 333 10/// 59012;EQDQ01+000002VOVAR 
0143834980999991996033012004-17733-039250FM-12+000399999V0202301N00051045001CN0200001N1+02721+02541101471ADDAA124001091AG10003AY161061AY221061GF105991031051008001031041KA1240N+02341MA1999999101421MD1999999-0101MW1211REMSYN023 333 20234 59010 69974;
0102834980999991996033018004-17733-039250FM-12+000399999V0200901N00261220001CN0200001N1+02941+02521101341ADDAA106013091AG10000GF104991041021008001001001MA1999999101081MD1999999-0181REMSYN017 333 59018 60131;
0137834980999991996033100004-17733-039250FM-12+000399999V0200501N00101220001CN9999999N9+02631+02411101261ADDAA106000091AG10000GA1001+999999999GF100991001001999999001001MA1999999101211MD1999999-0141REMSYN017 333 10/// 59014;EQDQ01+000002VOVAR 
0132834980999991996033112004-17733-039250FM-12+000399999V0200501N00051012001CN0200001N1+02741+02651101511ADDAA106000091AA224013091AG10000GF107991061081008001001051KA1240N+02211MA1999999101461MD1999999+0041REMSYN023 333 20221 58004 60134;
0096834980999991996033118004-17733-039250FM-12+000399999V0200901N00311220001CN0200001N1+02981+02401101131ADDAA106000091AG10000GF102991021011008001001001MA1999999101081MD1999999+0001REMSYN011 333 58000;
0121834980999991996040100004-17733-039250FM-12+000399999V0200501N00051220001CN9999999N9+02541+02421101361ADDAA106000091AG10000GF101991011011008001001001MA1999999101311MD1999999+0101REMSYN017 333 10/// 58010;EQDQ01+000002VOVAR 
0115834980999991996040112004-17733-039250FM-12+000399999V0202301N00101045001CN0100001N1+02741+02581101571ADDAA106000091AG10000GF107991041041008001011001KA1240N+02191MA1999999101521MD1999999-0061REMSYN017 333 20219 59006;
0096834980999991996040118004-17733-039250FM-12+000399999V0200501N00311220001CN0200001N1+02981+02471101281ADDAA106000091AG10000GF104991021011008001001091MA1999999101231MD1999999+0151REMSYN011 333 58015;
0121834980999991996040200004-17733-039250FM-12+000399999V0200901N00151220001CN9999999N9+02641+02481101461ADDAA106000091AG10000GF101991011011008001001001MA1999999101411MD1999999+0101REMSYN017 333 10/// 58010;EQDQ01+000002VOVAR 
0115834980999991996040212004-17733-039250FM-12+000399999V0209991C00001045001CN0200001N1+02961+02421101561ADDAA106000091AG10000GF105991041011008001041001KA1240N+02231MA1999999101511MD1999999+0091REMSYN017 333 20223 58009;
0096834980999991996040218004-17733-039250FM-12+000399999V0201401N00261220001CN0200001N1+02951+02471101261ADDAA106000091AG10000GF102991021011008001001001MA1999999101211MD1999999-0021REMSYN011 333 59002;
0121834980999991996040300004-17733-039250FM-12+000399999V0200901N00211220001CN9999999N9+02681+02461101411ADDAA106000091AG10000GF102991011011008001031001MA1999999101361MD1999999-0051REMSYN017 333 10/// 59005;EQDQ01+000002VOVAR 
0115834980999991996040312004-17733-039250FM-12+000399999V0201401N00211045001CN0200001N1+02921+02501101491ADDAA106000091AG10000GF105991031031008001031091KA1240N+02371MA1999999101441MD1999999-0101REMSYN017 333 20237 59010;
0121834980999991996040400004-17733-039250FM-12+000399999V0201401N00101220001CN9999999N9+02741+02541101401ADDAA106000091AG10000GF102991021021008001001001MA1999999101351MD1999999-0011REMSYN017 333 10/// 59001;EQDQ01+000002VOVAR 
0156834980999991996040412004-17733-039250FM-12+000399999V0201401N00261220001CN0200001N1+02881+02481101481ADDAA124001091AG10002AY161061AY211061GF104991041041008001001001KA1240N+02361MA1999999101431MD1999999-0011REMSYN023 333 20236 59001 60014;EQDQ01+000672PRSWM1
0096834980999991996040418004-17733-039250FM-12+000399999V0201401N00411220001CN0200001N1+02961+02451101211ADDAA106000091AG10000GF104991031041008001001051MA1999999101161MD1999999-0071REMSYN011 333 59007;
0121834980999991996040500004-17733-039250FM-12+000399999V0201401N00151220001CN9999999N9+02741+02541101431ADDAA106000091AG10000GF102991021011008001001001MA1999999101381MD1999999+0031REMSYN017 333 10/// 58003;EQDQ01+000002VOVAR 
0115834980999991996040512004-17733-039250FM-12+000399999V0202301N00311220001CN0200001N1+02681+02481101361ADDAA106000091AG10000GF103991031011008001001001KA1240N+02151MA1999999101311MD1999999-0121REMSYN017 333 20215 59012;
0096834980999991996040518004-17733-039250FM-12+000399999V0201401N00211045001CN0200001N1+02901+02401101131ADDAA106000091AG10000GF106991021011008001031001MA1999999101081MD1999999-0081REMSYN011 333 59008;
0121834980999991996040600004-17733-039250FM-12+000399999V0201401N00101220001CN9999999N9+02501+02401101191ADDAA106000091AG10000GF103991021011008001001011MA1999999101141MD1999999-0241REMSYN017 333 10/// 59024;EQDQ01+000002VOVAR 
0115834980999991996040612004-17733-039250FM-12+000399999V0202301N00211007501CN0200001N1+02681+02481101341ADDAA106000091AG10000GF106991061041008001001001KA1240N+02141MA1999999101291MD1999999-0021REMSYN017 333 20214 59002;
0096834980999991996040618004-17733-039250FM-12+000399999V0200501N00311220001CN0200001N1+02941+02361100961ADDAA106000091AG10000GF106991011011008001001061MA1999999100911MD1999999-0171REMSYN011 333 59017;
0121834980999991996040700004-17733-039250FM-12+000399999V0200501N00101220001CN9999999N9+02481+02411101081ADDAA106000091AG10000GF102991001001999999001061MA1999999101031MD1999999-0111REMSYN017 333 10/// 59011;EQDQ01+000002VOVAR 
0115834980999991996040712004-17733-039250FM-12+000399999V0200501N00311220001CN0200001N1+02921+02341101241ADDAA106000091AG10000GF104991031021008001001091KA1240N+02201MA1999999101191MD1999999-0101REMSYN017 333 20220 59010;
0096834980999991996040718004-17733-039250FM-12+000399999V0200501N00311220001CN0200001N1+03161+02321100951ADDAA106000091AG10000GF103991031021008001001001MA1999999100901MD1999999-0011REMSYN011 333 59001;
0115834980999991996040812004-17733-039250FM-12+000399999V0200901N00101220001CN0200001N1+02781+02641101451ADDAA106000091AG10000GF104991041021008001001001KA1240N+02231MA1999999101401MD1999999+0211REMSYN017 333 20223 58021;
0096834980999991996040818004-17733-039250FM-12+000399999V0201401N00211220001CN0200001N1+03021+02211101191ADDAA106000091AG10000GF102991021021008001001001MA1999999101141MD1999999+0241REMSYN011 333 58024;
0137834980999991996040900004-17733-039250FM-12+000399999V0200901N00151220001CN9999999N9+02591+02331101451ADDAA106000091AG10000GA1001+999999999GF100991001001999999001001MA1999999101401MD1999999+0301REMSYN017 333 10/// 58030;EQDQ01+000002VOVAR 
0115834980999991996040912004-17733-039250FM-12+000399999V0201801N00101220001CN0200001N1+02721+02451101531ADDAA106000091AG10000GF104991041011008001001001KA1240N+02161MA1999999101481MD1999999+0081REMSYN017 333 20216 58008;
0096834980999991996040918004-17733-039250FM-12+000399999V0200901N00311220001CN0200001N1+02921+02361101411ADDAA106000091AG10000GF103991021011008001001011MA1999999101361MD1999999+0221REMSYN011 333 58022;
0137834980999991996041000004-17733-039250FM-12+000399999V0200901N00151220001CN9999999N9+02581+02331101401ADDAA106000091AG10000GA1001+999999999GF100991001001999999001001MA1999999101351MD1999999-0051REMSYN017 333 10/// 59005;EQDQ01+000002VOVAR 
0115834980999991996041012004-17733-039250FM-12+000399999V0201801N00101045001CN0200001N1+02741+02541101521ADDAA106000091AG10000GF106991041081008001041051KA1240N+02121MA1999999101471MD1999999-0011REMSYN017 333 20212 59001;
0096834980999991996041018004-17733-039250FM-12+000399999V0201401N00361045001CN0200001N1+02961+02491101191ADDAA106000091AG10000GF107991011021008001051021MA1999999101141MD1999999-0221REMSYN011 333 59022;
0121834980999991996041100004-17733-039250FM-12+000399999V0200901N00101220001CN9999999N9+02581+02481101371ADDAA106000091AG10000GF102991011011008001051001MA1999999101321MD1999999-0031REMSYN017 333 10/// 59003;EQDQ01+000002VOVAR 
0140834980999991996041112004-17733-039250FM-12+000399999V0203601N001519999999N0200001N1+02821+02541101361ADDAA124000191AG10000GF106991999061008001001001KA1240N+02151MA1999999101311MD1999999-0161REMSYN023 333 20215 59016 69924;EQDQ01+000032SCOTLC
0096834980999991996041118004-17733-039250FM-12+000399999V0200901N00361220001CN0200001N1+02251+02251101021ADDAA106000091AG10000GF103991011021008001001081MA1999999100971MD1999999-0171REMSYN011 333 59017;
0121834980999991996041200004-17733-039250FM-12+000399999V0200501N00151220001CN9999999N9+02581+02441101201ADDAA106000091AG10000GF102991021021008001001001MA1999999101151MD1999999-0171REMSYN017 333 10/// 59017;EQDQ01+000002VOVAR 
0115834980999991996041212004-17733-039250FM-12+000399999V0200501N00151105001CN0200001N1+02861+02501101341ADDAA106000091AG10000GF105991031021008001001021KA1240N+02181MA1999999101291MD1999999-0021REMSYN017 333 20218 59002;
0096834980999991996041218004-17733-039250FM-12+000399999V0201401N00261220001CN0200001N1+03041+02481100971ADDAA106000091AG10000GF103991011011008001001021MA1999999100921MD1999999-0051REMSYN011 333 59005;
0121834980999991996041300004-17733-039250FM-12+000399999V0200901N00211220001CN9999999N9+02721+02451101241ADDAA106000091AG10000GF102991021011008001001001MA1999999101191MD1999999+0041REMSYN017 333 10/// 58004;EQDQ01+000002VOVAR 
0143834980999991996041312004-17733-039250FM-12+000399999V0200501N00151007501CN0040001N1+02541+02441101351ADDAA124008091AG10002AY161061AY221061GF108991051071008001021999KA1240N+02251MA1999999101301MD1999999+0011MW1211REMSYN023 333 20225 58001 60084;
0124834980999991996041318004-17733-039250FM-12+000399999V0200501N00101045001CN0040001N1+02541+02251101121ADDAA106001091AG10002AY161061AY221061GF108991041071008001021999MA1999999101071MD1999999+0151MW1211REMSYN017 333 58015 60011;
0131834980999991996041400004-17733-039250FM-12+000399999V0200501N00411007501CN0020001N1+02351+02261101471ADDAA106000091AG10000AY111061AY211061GF105991051061008001001001KA1999M+02751MA1999999101101MD1310131+9999MW1101REMSYN011 333 10275;
0096834980999991996041418004-17733-039250FM-12+000399999V0201401N00211045001CN0100001N1+02721+02471101301ADDAA106000091AG10000GF108991021071008001091071MA1999999101251MD1999999+0181REMSYN011 333 58018;
0121834980999991996041500004-17733-039250FM-12+000399999V0200901N00101045001CN9999999N9+02421+02351101511ADDAA106000091AG10000GF108991031071008001091999MA1999999101461MD1999999+0181REMSYN017 333 10/// 58018;EQDQ01+000002VOVAR 
0096834980999991996041518004-17733-039250FM-12+000399999V0201401N00101045001CN0200001N1+02751+02481101331ADDAA106000091AG10000GF106991031041008001051091MA1999999101281MD1999999+0031REMSYN011 333 58003;
0137834980999991996041600004-17733-039250FM-12+000399999V0200901N00051220001CN9999999N9+02431+02371101521ADDAA106000091AG10000GA1001+999999999GF100991001001999999001001MA1999999101471MD1999999+0011REMSYN017 333 10/// 58001;EQDQ01+000002VOVAR 
0137834980999991996041612004-17733-039250FM-12+000399999V0202301N00211045001CN0040001N1+02231+01761101021ADDAA124005091AG10002AY161061AY251061GF107991031031008001071001KA1240N+02081MA1999999100641MD1110261+9999MW1051REMSYN017 333 20208 60054;
0096834980999991996041618004-17733-039250FM-12+000399999V0200501N00311220001CN0200001N1+03041+02281101171ADDAA106000091AG10000GF104991021011008001001041MA1999999101121MD1999999-0161REMSYN011 333 59016;
0137834980999991996041700004-17733-039250FM-12+000399999V0200901N00051220001CN9999999N9+02461+02371101261ADDAA106000091AG10000GA1001+999999999GF100991001001999999001001MA1999999101211MD1999999-0261REMSYN017 333 10/// 59026;EQDQ01+000002VOVAR 
0115834980999991996041712004-17733-039250FM-12+000399999V0203601N00261220001CN0200001N1+02781+02341101231ADDAA106000091AG10000GF102991021011008001001001KA1240N+02111MA1999999101181MD1999999-0291REMSYN017 333 20211 59029;
0096834980999991996041718004-17733-039250FM-12+000399999V0203601N00411220001CN0200001N1+02981+02371100801ADDAA106000091AG10000GF105991031011008001001011MA1999999100751MD1999999-0371REMSYN011 333 59037;
0137834980999991996041800004-17733-039250FM-12+000399999V0203601N00311220001CN9999999N9+02561+02381100951ADDAA106000091AG10000GA1001+999999999GF100991001001999999001001MA1999999100901MD1999999-0311REMSYN017 333 10/// 59031;EQDQ01+000002VOVAR 
0137834980999991996041812004-17733-039250FM-12+000399999V0203601N00311220001CN9999999N9+02561+02381100951ADDAA106000091AG10000GA1001+999999999GF100991001001999999001001MA1999999100901MD1999999-0311REMSYN017 333 10/// 59031;EQDQ01+000002VOVAR 
0096834980999991996041818004-17733-039250FM-12+000399999V0201801N00621007501CN0100001N1+02641+02291101181ADDAA106000091AG10000GF107991051071008001051091MA1999999101121MD1999999+0381REMSYN011 333 58038;
0149834980999991996041900004-17733-039250FM-12+000399999V0201801N00621007501CN9999999N9+02461+02321101381ADDAA106000591AG10002AY161061AY261061GF107991071071008001001001MA1999999101331MD1999999+0431MW1611REMSYN023 333 10/// 58043 69951;EQDQ01+000002VOVAR 
0143834980999991996041912004-17733-039250FM-12+000399999V0201801N00621045001CN0100001N1+02461+02171101561ADDAA124035091AG10002AY161061AY261061GF108991031071008001021999KA1240N+02001MA1999999101511MD1999999+0221MW1211REMSYN023 333 20200 58022 60354;
0143834980999991996041918004-17733-039250FM-12+000399999V0201801N00621045001CN0100001N1+02391+02241101421ADDAA106003091AG10002AY161061AY261061GF108991041071008001021999MA1999999102372MD1999999+0241MW1211REMSYN017 333 58024 60031;EQDQ01+102373APOSP 
0149834980999991996042000004-17733-039250FM-12+000399999V0201801N00461045001CN9999999N9+02291+02111101631ADDAA106031091AG10002AY161061AY261061GF108991041071008001021999MA1999999101581MD1999999+0251MW1211REMSYN023 333 10/// 58025 60311;EQDQ01+000002VOVAR 
0143834980999991996042012004-17733-039250FM-12+000399999V0201801N00571007501CN0100001N1+02601+01991101711ADDAA124048091AG10002AY161061AY221061GF108991051061008001021999KA1240N+02001MA1999999101661MD1999999+0151MW1211REMSYN023 333 20200 58015 60484;
0124834980999991996042018004-17733-039250FM-12+000399999V0201801N00511045001CN0100001N1+02581+02081101551ADDAA106002091AG10002AY161061AY251061GF108991031071008001021999MA1999999101501MD1999999+0131MW1211REMSYN017 333 58013 60021;
0143834980999991996042112004-17733-039250FM-12+000399999V0202301N00411045001CN0040001N1+02241+02051101831ADDAA124008091AG10002AY161061AY221061GF108991041071008001021999KA1240N+01971MA1999999101781MD1999999+0121MW1211REMSYN023 333 20197 58012 60084;
0096834980999991996042118004-17733-039250FM-12+000399999V0201801N00511220001CN0200001N1+02601+01941101551ADDAA106000091AG10000GF104991031011008001041001MA1999999101501MD1999999+0001REMSYN011 333 58000;
0121834980999991996042200004-17733-039250FM-12+000399999V0201801N00461220001CN9999999N9+02441+02011101691ADDAA106000091AG10000GF104991041071008001001001MA1999999101631MD1999999-0061REMSYN017 333 10/// 59006;EQDQ01+000002VOVAR 
0124834980999991996042218004-17733-039250FM-12+000399999V0201801N00511045001CN0200001N1+02561+02151101531ADDAA106000191AG10002AY161061AY221061GF107991041081008001041051MA1999999101481MD1999999-0021MW1211REMSYN017 333 59002 69911;
0121834980999991996042300004-17733-039250FM-12+000399999V0201801N00361220001CN9999999N9+02461+02131101721ADDAA106000091AG10000GF104991021081008001041051MA1999999101671MD1999999+0031REMSYN017 333 10/// 58003;EQDQ01+000002VOVAR 
0143834980999991996042312004-17733-039250FM-12+000399999V0202301N00261045001CN0100001N1+02311+02231101791ADDAA124010091AG10002AY161061AY261061GF107991041071008001021001KA1240N+01981MA1999999101741MD1999999-0011MW1211REMSYN023 333 20198 59001 60104;
0110834980999991996042318004-17733-039250FM-12+000399999V0201801N00211045001CN0200001N1+02641+02161101611ADDAA106001091AG10002AY161061AY261061GF106991021071008001021001MA1999999101561MW1211REMSYN017 333 5008/ 69971;
0137834980999991996042400004-17733-039250FM-12+000399999V0209991C00001220001CN9999999N9+02341+02241101721ADDAA106000091AG10000GA1001+999999999GF100991001001999999001001MA1999999101671MD1999999+0001REMSYN017 333 10/// 58000;EQDQ01+000002VOVAR 
0143834980999991996042412004-17733-039250FM-12+000399999V0201801N00411220001CN0200001N1+02661+02091101841ADDAA124001091AG10002AY161061AY201061GF102991021011008001001001KA1240N+01951MA1999999101791MD1999999+0051MW1211REMSYN023 333 20195 58005 60014;
0096834980999991996042418004-17733-039250FM-12+000399999V0201801N00411220001CN0200001N1+02681+02111101531ADDAA106000091AG10000GF103991031011008001001001MA1999999101481MD1999999-0081REMSYN011 333 59008;
0137834980999991996042500004-17733-039250FM-12+000399999V0209991C00001220001CN9999999N9+02401+02281101621ADDAA106000091AG10000GA1001+999999999GF100991001001999999001001MA1999999101571MD1999999-0101REMSYN017 333 10/// 59010;EQDQ01+000002VOVAR 
0115834980999991996042512004-17733-039250FM-12+000399999V0202301N00101220001CN0200001N1+02511+02321101661ADDAA106000091AG10000GF102991021011008001001001KA1240N+01901MA1999999101611MD1999999-0181REMSYN017 333 20190 59018;
0096834980999991996042518004-17733-039250FM-12+000399999V0200901N00261220001CN0200001N1+02701+02111101311ADDAA106000091AG10000GF103991021011008001001011MA1999999101261MD1999999-0221REMSYN011 333 59022;
0137834980999991996042600004-17733-039250FM-12+000399999V0200901N00101220001CN9999999N9+02321+02251101361ADDAA106000091AG10000GA1001+999999999GF100991001001999999001001MA1999999101311MD1999999-0261REMSYN017 333 10/// 59026;EQDQ01+000002VOVAR 
0096834980999991996042618004-17733-039250FM-12+000399999V0201401N00261220001CN0200001N1+02861+02461101221ADDAA106000091AG10000GF101991011021008001001001MA1999999101171MD1999999-0091REMSYN011 333 59009;
0134834980999991996042700004-17733-039250FM-12+000399999V0209991C00001220001CN9999999N9+02481+02411101521ADDAA106000091AG10000GF101991999999008001999999KA1240M+03101MA1999999101471MD1999999+0161REMSYN017 333 10310 58016;EQDQ01+000002VOVAR 
0137834980999991996042712004-17733-039250FM-12+000399999V0203201N00151045001CN0040001N1+01821+01691102571ADDAA124009091AG10002AY161061AY221061GF105991021021004501061001KA1240N+01461MA1999999102191MD1310181+9999MW1101REMSYN017 333 20146 60094;
0143834980999991996042718004-17733-039250FM-12+000399999V0201801N00411045001CN0100001N1+02661+02161101512ADDAA106001091AG10002AY161061AY261061GF108991031071008001021999MA1999999101461MD1999999+0291MW1211REMSYN017 333 58029 60011;EQDQ01+101513APOSLP
0149834980999991996042800004-17733-039250FM-12+000399999V0201801N00571045001CN9999999N9+02591+01941101791ADDAA106000191AG10002AY161061AY261061GF108991031071008001021999MA1999999101741MD1999999+0271MW1211REMSYN023 333 10/// 58027 69911;EQDQ01+000002VOVAR 
0121834980999991996042812004-17733-039250FM-12+000399999V0201801N00571220001CN0200001N1+02621+02031101921ADDAA124001091AG10000GF104991021051008001001081KA1240N+02141MA1999999101871MD1999999+0171REMSYN023 333 20214 58017 60014;
0096834980999991996042818004-17733-039250FM-12+000399999V0201401N00511220001CN0200001N1+02621+01931101751ADDAA106000091AG10000GF105991031001017501051081MA1999999101701MD1999999+0241REMSYN011 333 58024;
0137834980999991996042900004-17733-039250FM-12+000399999V0201801N00461220001CN9999999N9+02521+01861102021ADDAA106000091AG10000GA1001+999999999GF100991001001999999001001MA1999999101971MD1999999+0231REMSYN017 333 10/// 58023;EQDQ01+000002VOVAR 
0143834980999991996042912004-17733-039250FM-12+000399999V0202701N00261045001CN0100001N1+02361+02201101931ADDAA124000591AG10002AY161061AY221061GF108991031061008001011999KA1240N+01921MA1999999101881MD1999999+0011MW1211REMSYN023 333 20192 58001 69944;
0124834980999991996042918004-17733-039250FM-12+000399999V0201801N00211045001CN0040001N1+02401+02281101661ADDAA106000591AG10002AY161061AY261061GF108991021071008001021999MA1999999101611MD1999999-0091MW1211REMSYN017 333 59009 69961;
0121834980999991996043000004-17733-039250FM-12+000399999V0201401N00361220001CN9999999N9+02501+02051101801ADDAA106000091AG10000GF103991031011008001001001MA1999999101751MD1999999-0221REMSYN017 333 10/// 59022;EQDQ01+000002VOVAR 
0143834980999991996043012004-17733-039250FM-12+000399999V0202701N00051012001CN0100001N1+02241+02171101851ADDAA124008091AG10002AY161061AY261061GF108991061081008001021999KA1240N+02091MA1999999101801MD1999999-0081MW1621REMSYN023 333 20209 59008 60084;
0124834980999991996043018004-17733-039250FM-12+000399999V0201801N00571007501CN0040001N1+02361+02221101651ADDAA106020091AG10002AY161061AY261061GF108991081061008001999999MA1999999101601MD1999999-0011MW1621REMSYN017 333 59001 60201;
0149834980999991996050100004-17733-039250FM-12+000399999V0201801N00211220001CN9999999N9+02421+02281101691ADDAA106005091AG10002AY161061AY201061GF102991011041008001001091MA1999999101641MD1999999-0111MW1211REMSYN023 333 10/// 59011 60051;EQDQ01+000002VOVAR 
0121834980999991996050112004-17733-039250FM-12+000399999V0202301N00261045001CN0200001N1+02391+02311101711ADDAA124025091AG10000GF106991041071008001021001KA1240N+02071MA1999999101661MD1999999-0141REMSYN023 333 20207 59014 60254;
0096834980999991996050118004-17733-039250FM-12+000399999V0201801N00361220001CN0200001N1+02681+02311101401ADDAA106000091AG10000GF103991021021008001031001MA1999999101351MD1999999-0251REMSYN011 333 59025;
0115834980999991996050212004-17733-039250FM-12+000399999V0202301N00211045001CN0100001N1+02221+02191101551ADDAA106000091AG10000GF108991041051008001011091KA1240N+01931MA1999999101501MD1999999-0161REMSYN017 333 20193 59016;
0096834980999991996050218004-17733-039250FM-12+000399999V0201401N00261220001CN0200001N1+02781+02341101111ADDAA106000091AG10000GF103991031021008001001001MA1999999101061MD1999999-0291REMSYN011 333 59029;
0137834980999991996050300004-17733-039250FM-12+000399999V0209991C00001220001CN9999999N9+02261+02211101301ADDAA106000091AG10000GA1001+999999999GF100991001001999999001001MA1999999101251MD1999999-0261REMSYN017 333 10/// 59026;EQDQ01+000002VOVAR 
0096834980999991996050318004-17733-039250FM-12+000399999V0201401N00151220001CN0200001N1+02741+02301101111ADDAA106000091AG10000GF102991021011008001001001MA1999999101061MD1999999+0001REMSYN011 333 58000;
0121834980999991996050400004-17733-039250FM-12+000399999V0201401N00311045001CN9999999N9+02541+02251101401ADDAA106000091AG10000GF108991031041008001011999MA1999999101351MD1999999+0101REMSYN017 333 10/// 58010;EQDQ01+000002VOVAR 
0115834980999991996050412004-17733-039250FM-12+000399999V0202301N00511045001CN0200001N1+02501+02111101621ADDAA106000091AG10000GF105991021041008001051051KA1240N+02111MA1999999101571MD1999999+0201REMSYN017 333 20211 58020;
0096834980999991996050418004-17733-039250FM-12+000399999V0201801N00571220001CN0200001N1+02661+02091101361ADDAA106000091AG10000GF103991011011008001051051MA1999999101311MD1999999+0251REMSYN011 333 58025;
0115834980999991996050512004-17733-039250FM-12+000399999V0202301N00261045001CN0200001N1+02371+02171101711ADDAA106000091AG10000GF106991041071008001031081KA1240N+01951MA1999999101661MD1999999+0091REMSYN017 333 20195 58009;
0096834980999991996050518004-17733-039250FM-12+000399999V0201801N00411220001CN0200001N1+02571+02041101421ADDAA106000091AG10000GF103991021021008001031041MA1999999101371MD1999999+0061REMSYN011 333 58006;
0120834980999991996050600004-17733-039250FM-12+000399999V0201801N00101999999CN0012001N1+01231+01161100951ADDAA106000191AA224009091AG10002AY161061AY201061GF108991999001999999021999MD1210101+9999MW1101REMSYN017 333 05254 70092;
0115834980999991996050612004-17733-039250FM-12+000399999V0201801N00311220001CN0200001N1+02551+01861101771ADDAA106000091AG10000GF103991031011008001001001KA1240N+01821MA1999999101721MD1999999+0061REMSYN017 333 20182 58006;
0115834980999991996050618004-17733-039250FM-12+000399999V0201801N00361220001CN0200001N1+02561+01781101571ADDAA106000091AG10000GF102991001001999999001081MA1999999101521MD1999999+0151REMSYN011 333 58015;EQDQ01+000972SCOLCB
0121834980999991996050700004-17733-039250FM-12+000399999V0201401N00211220001CN9999999N9+02341+02031101721ADDAA106000091AG10000GF104991021011008001031001MA1999999101671MD1999999+0091REMSYN017 333 10/// 58009;EQDQ01+000002VOVAR 
0115834980999991996050712004-17733-039250FM-12+000399999V0202301N00151045001CN0100001N1+02241+02071101751ADDAA106000091AG10000GF107991031041008001011001KA1240N+01601MA1999999101701MD1999999-0021REMSYN017 333 20160 59002;
0124834980999991996050718004-17733-039250FM-12+000399999V0201801N00211045001CN0040001N1+02101+02001101521ADDAA106004091AG10002AY161061AY261061GF108991031071008001021999MA1999999101471MD1999999-0051MW1611REMSYN017 333 59005 60041;
0137834980999991996050800004-17733-039250FM-12+000399999V0201401N001519999999N9999999N9+02361+02011101671ADDAA106000091AG10000GF108991021061999999011999MA1999999101621MD1999999-0051REMSYN017 333 10/// 59005;EQDQ01+000992SCOLCBQ02+000002VOVAR 
0121834980999991996050812004-17733-039250FM-12+000399999V0202301N00261220001CN0200001N1+02321+02091101841ADDAA124004091AG10000GF102991011041008001051001KA1240N+01671MA1999999101791MD1999999+0091REMSYN023 333 20167 58009 60044;
0096834980999991996050818004-17733-039250FM-12+000399999V0201401N00211220001CN0200001N1+02621+02121101531ADDAA106000091AG10000GF103991021041008001051001MA1999999101481MD1999999+0011REMSYN011 333 58001;
0137834980999991996050900004-17733-039250FM-12+000399999V0200901N00101220001CN9999999N9+02101+01951101711ADDAA106000091AG10000GA1001+999999999GF100991001001999999001001MA1999999101661MD1999999+0041REMSYN017 333 10/// 58004;EQDQ01+000002VOVAR 
0131834980999991996050912004-17733-039250FM-12+000399999V0202301N00151220001CN0200001N1+02221+02101101751ADDAA106000091AG10000GA1001+999999999GF100991001001999999001001KA1240N+01651MA1999999101701MD1999999-0091REMSYN017 333 20165 59009;
0096834980999991996050918004-17733-039250FM-12+000399999V0201401N00211220001CN0200001N1+02671+02041101411ADDAA106000091AG10000GF103991021021008001001011MA1999999101361MD1999999-0121REMSYN011 333 59012;
0137834980999991996051000004-17733-039250FM-12+000399999V0200901N00051220001CN9999999N9+02041+01961101601ADDAA106000091AG10000GA1001+999999999GF100991001001999999001001MA1999999101551MD1999999-0111REMSYN017 333 10/// 59011;EQDQ01+000002VOVAR 
0134834980999991996051012004-17733-039250FM-12+000399999V0202701N00101220001CN0200001N1+02261+02181101591ADDAA106000091AG10000GF103991001001999999001021KA1240N+01621MA1999999101541MD1999999-0161REMSYN017 333 20162 59016;EQDQ01+000972SCOLCB
0096834980999991996051018004-17733-039250FM-12+000399999V0201401N00211220001CN0200001N1+02641+02091101331ADDAA106000091AG10000GF103991011011008001001021MA1999999101281MD1999999-0081REMSYN011 333 59008;
0137834980999991996051100004-17733-039250FM-12+000399999V0200901N00101220001CN9999999N9+02241+02071101491ADDAA106000091AG10000GA1001+999999999GF100991001001999999001001MA1999999101441MD1999999-0111REMSYN017 333 10/// 59011;EQDQ01+000002VOVAR 
0115834980999991996051112004-17733-039250FM-12+000399999V0202301N00211045001CN0200001N1+02341+02131101621ADDAA106000091AG10000GF106991021011008001051001KA1240N+01701MA1999999101571MD1999999+0031REMSYN017 333 20170 58003;
0124834980999991996051118004-17733-039250FM-12+000399999V0201801N00411045001CN0040001N1+02321+02161101461ADDAA106001091AG10002AY161061AY221061GF108991021031008001021999MA1999999101411MD1999999+0031MW1911REMSYN017 333 58003 69981;
0149834980999991996051200004-17733-039250FM-12+000399999V0202301N00151045001CN9999999N9+02121+02021101761ADDAA106000591AG10002AY161061AY261061GF108991021071008001021999MA1999999101711MD1999999+0271MW1211REMSYN023 333 10/// 58027 69951;EQDQ01+000002VOVAR 
0143834980999991996051212004-17733-039250FM-12+000399999V0203201N00311220001CN0200001N1+02251+02011102001ADDAA124002091AG10002AY161061AY211061GF104991021021008001001011KA1240N+01641MA1999999101951MD1999999+0381MW1211REMSYN023 333 20164 58038 60024;
0096834980999991996051218004-17733-039250FM-12+000399999V0201801N00411007501CN0200001N1+02541+02131101801ADDAA106000091AG10000GF106991051021008001001051MA1999999101751MD1999999+0341REMSYN011 333 58034;
0115834980999991996051312004-17733-039250FM-12+000399999V0202701N00151220001CN0200001N1+02341+02091102081ADDAA106000091AG10000GF104991021021008001031041KA1240N+01721MA1999999102031MD1999999+0081REMSYN017 333 20172 58008;
0096834980999991996051318004-17733-039250FM-12+000399999V0201401N00261220001CN0200001N1+02641+01851101611ADDAA106000091AG10000GF105991011011008001001041MA1999999101561MD1999999-0191REMSYN011 333 59019;
0121834980999991996051400004-17733-039250FM-12+000399999V0200501N00101220001CN9999999N9+01981+01981101731ADDAA106000091AG10000GF103991001001999999001041MA1999999101681MD1999999-0221REMSYN017 333 10/// 59022;EQDQ01+000002VOVAR 
0134834980999991996051412004-17733-039250FM-12+000399999V0203201N00101220001CN0200001N1+02401+02031101691ADDAA106000091AG10000GF102991001001999999001081KA1240N+01581MA1999999101641MD1999999-0391REMSYN017 333 20158 59039;EQDQ01+000972SCOLCB
0096834980999991996051418004-17733-039250FM-12+000399999V0200501N00261220001CN0200001N1+02661+02071101271ADDAA106000091AG10000GF105991031081008001001081MA1999999101221MD1999999-0341REMSYN011 333 59034;
0137834980999991996051500004-17733-039250FM-12+000399999V0209991C00001220001CN9999999N9+02101+02031101321ADDAA106000091AG10000GA1001+999999999GF100991001001999999001001MA1999999101271MD1999999-0411REMSYN017 333 10/// 59041;EQDQ01+000002VOVAR 
0115834980999991996051512004-17733-039250FM-12+000399999V0203601N00311220001CN0200001N1+02521+02091101281ADDAA106000091AG10000GF103991021011008001041001KA1240N+01741MA1999999101231MD1999999-0411REMSYN017 333 20174 59041;
0096834980999991996051518004-17733-039250FM-12+000399999V0203601N00311220001CN0200001N1+02681+02111100871ADDAA106000091AG10000GF102991011011008001001081MA1999999100821MD1999999-0401REMSYN011 333 59040;
0115834980999991996051612004-17733-039250FM-12+000399999V0203601N00461220001CN0200001N1+02641+01931101171ADDAA106000091AG10000GF102991001001999999001051KA1240N+01871MA1999999101121MD1999999-0111REMSYN017 333 20187 59011;
0096834980999991996051618004-17733-039250FM-12+000399999V0200501N00311220001CN0200001N1+02801+01841100831ADDAA106000091AG10000GF106991001001999999001061MA1999999100781MD1999999-0041REMSYN011 333 59004;
0121834980999991996051700004-17733-039250FM-12+000399999V0200501N00151220001CN9999999N9+02421+02251101051ADDAA106000091AG10000GF101991001001999999001051MA1999999101001MD1999999+0051REMSYN017 333 10/// 58005;EQDQ01+000002VOVAR 
0096834980999991996051718004-17733-039250FM-12+000399999V0201801N00621045001CN0200001N1+02531+01891101631ADDAA106000091AG10000GF107991011071012501021001MA1999999101581MD1999999+0801REMSYN011 333 58080;
0121834980999991996051800004-17733-039250FM-12+000399999V0201801N00411045001CN9999999N9+02461+02011101921ADDAA106000091AG10000GF108991011071012501021999MA1999999101871MD1999999+0871REMSYN017 333 10/// 58087;EQDQ01+000002VOVAR 
0115834980999991996051812004-17733-039250FM-12+000399999V0209991C00001045001CN0100001N1+02401+02241102011ADDAA106000091AG10000GF108991041051008001021999KA1240N+02041MA1999999101961MD1999999+0331REMSYN017 333 20204 58033;
0096834980999991996051818004-17733-039250FM-12+000399999V0201401N00261045001CN0200001N1+02591+02271101641ADDAA106000091AG10000GF106991031051008001091001MA1999999101591MD1999999+0011REMSYN011 333 58001;
0137834980999991996051900004-17733-039250FM-12+000399999V0200901N00101220001CN9999999N9+02431+02261101751ADDAA106000091AG10000GA1001+999999999GF100991001001999999001001MA1999999101701MD1999999-0171REMSYN017 333 10/// 59017;EQDQ01+000002VOVAR 
0143834980999991996051912004-17733-039250FM-12+000399999V0202701N00051045001CN0040001N1+02381+02351101651ADDAA124002091AG10002AY161061AY221061GF108991031071008001021999KA1240N+02161MA1999999101601MD1999999-0361MW1211REMSYN023 333 20216 59036 60024;
0124834980999991996051918004-17733-039250FM-12+000399999V0201401N00211045001CN0200001N1+02601+02421101271ADDAA106004091AG10002AY161061AY261061GF107991031041008001051001MA1999999101221MD1999999-0371MW1211REMSYN017 333 59037 60041;
0121834980999991996052012004-17733-039250FM-12+000399999V0201801N00211045001CN0100001N1+02441+02371101521ADDAA124004091AG10000GF107991041071008001071061KA1240N+02121MA1999999101471MD1999999-0131REMSYN023 333 20212 59013 60044;
0096834980999991996052018004-17733-039250FM-12+000399999V0201801N00511045001CN0200001N1+02601+02251101331ADDAA106000091AG10000GF107991041021008001051061MA1999999101281MD1999999+0061REMSYN011 333 58006;
0121834980999991996052100004-17733-039250FM-12+000399999V0201801N00211220001CN9999999N9+02441+02231101551ADDAA106000091AG10000GF102991011021008001001051MA1999999101501MD1999999+0141REMSYN017 333 10/// 58014;EQDQ01+000002VOVAR 
0115834980999991996052112004-17733-039250FM-12+000399999V0201801N00211220001CN0200001N1+02591+02171101721ADDAA106000091AG10000GF105991041021008001001011KA1240N+02031MA1999999101671MD1999999+0221REMSYN017 333 20203 58022;
0115834980999991996052118004-17733-039250FM-12+000399999V0201801N00261220001CN0200001N1+02641+02141101511ADDAA106000091AG10000GF104991031021008001031091MA1999999091462MD1999999+0181REMSYN011 333 58018;EQDQ01+091463APOSP 
0121834980999991996052200004-17733-039250FM-12+000399999V0201801N00211220001CN9999999N9+02421+02151101701ADDAA106000091AG10000GF102991021011008001001001MA1999999091651MD1999999+0151REMSYN017 333 10/// 58015;EQDQ01+000002VOVAR 
0143834980999991996052212004-17733-039250FM-12+000399999V0202301N00151045001CN0100001N1+02251+02211101851ADDAA124002091AG10002AY161061AY221061GF108991041051008001021999KA1240N+01881MA1999999101802MD1999999+0111MW1211REMSYN023 333 20188 58011 60024;
0115834980999991996052218004-17733-039250FM-12+000399999V0201801N00311220001CN0200001N1+02601+02121101451ADDAA106000091AG10000GF103991001001999999001051MA1999999101401MD1999999-0061REMSYN011 333 59006;EQDQ01+000972SCOLCB
0137834980999991996052300004-17733-039250FM-12+000399999V0202301N00101220001CN9999999N9+02301+02181101571ADDAA106000091AG10000GA1001+999999999GF100991001001999999001001MA1999999101521MD1999999-0131REMSYN017 333 10/// 59013;EQDQ01+000002VOVAR 
0096834980999991996052318004-17733-039250FM-12+000399999V0201401N00311220001CN0200001N1+02621+02141101281ADDAA106000091AG10000GF102991021001008001031001MA1999999101231MD1999999-0171REMSYN011 333 59017;
0121834980999991996052400004-17733-039250FM-12+000399999V0201801N00311220001CN9999999N9+02441+02171101401ADDAA106000091AG10000GF102991021011008001001001MA1999999101351MD1999999-0171REMSYN017 333 10/// 59017;EQDQ01+000002VOVAR 
0143834980999991996052412004-17733-039250FM-12+000399999V0202301N00411045001CN0100001N1+02421+02191101581ADDAA124000191AG10002AY161061AY221061GF107991041071008001071051KA1240N+02001MA1999999101531MD1999999-0011MW1211REMSYN023 333 20200 59001 69914;
0124834980999991996052418004-17733-039250FM-12+000399999V0201801N00571045001CN0200001N1+02521+02051101391ADDAA106000191AG10002AY161061AY221061GF107991011081008001031051MA1999999101341MD1999999+0111MW1211REMSYN017 333 58011 69911;
0121834980999991996052512004-17733-039250FM-12+000399999V0201801N00511045001CN0200001N1+02281+01901101891ADDAA124004091AG10000GF106991031051008001021001KA1240N+01861MA1999999101841MD1999999+0311REMSYN023 333 20186 58031 60044;
0096834980999991996052518004-17733-039250FM-12+000399999V0201801N00411220001CN0200001N1+02481+01851101681ADDAA106000091AG10000GF103991011021008001031001MA1999999101631MD1999999+0291REMSYN011 333 58029;
0121834980999991996052612004-17733-039250FM-12+000399999V0201801N00311220001CN9999999N9+02261+01791101861ADDAA106000091AG10000GF103991021021008001031001MA1999999101811MD1999999+0251REMSYN017 333 10/// 58025;EQDQ01+000002VOVAR 
0096834980999991996052618004-17733-039250FM-12+000399999V0201401N00211045001CN0100001N1+02321+02031101791ADDAA106000091AG10000GF106991031051008001011061MA1999999101741MD1999999+0111REMSYN011 333 58011;
0121834980999991996052712004-17733-039250FM-12+000399999V0201801N00151045001CN0040001N1+02161+02041102091ADDAA124000391AG10000GF108991041031008001011999KA1240N+01721MA1999999102041MD1999999+0101REMSYN023 333 20172 58010 69934;
0096834980999991996052718004-17733-039250FM-12+000399999V0201801N00211220001CN0200001N1+02301+02051101791ADDAA106000091AG10000GF103991021011008001001011MA1999999101741MD1999999+0001REMSYN011 333 58000;
0121834980999991996052800004-17733-039250FM-12+000399999V0201801N00211045001CN9999999N9+02221+02031101971ADDAA106000091AG10000GF107991021011008001051001MA1999999101921MD1999999+0001REMSYN017 333 10/// 59000;EQDQ01+000002VOVAR 
0115834980999991996052812004-17733-039250FM-12+000399999V0209991C00001220001CN0200001N1+02341+02181102001ADDAA106000091AG10000GF102991011021008001001051KA1240N+01801MA1999999101951MD1999999-0091REMSYN017 333 20180 59009;
0096834980999991996052818004-17733-039250FM-12+000399999V0201401N00151045001CN0200001N1+02521+02091101681ADDAA106000091AG10000GF105991041021008001031001MA1999999101631MD1999999-0111REMSYN011 333 59011;
0121834980999991996052900004-17733-039250FM-12+000399999V0201401N00101015001CN9999999N9+02241+02101101861ADDAA106000091AG10000GF107991061001017501051051MA1999999101811MD1999999-0111REMSYN017 333 10/// 59011;EQDQ01+000002VOVAR 
0115834980999991996052912004-17733-039250FM-12+000399999V0202301N00211220001CN0200001N1+02201+02101101941ADDAA106000091AG10000GF103991021021008001001091KA1240N+01731MA1999999101891MD1999999-0061REMSYN017 333 20173 59006;
0096834980999991996052918004-17733-039250FM-12+000399999V0201401N00261220001CN0200001N1+02581+02151101631ADDAA106000091AG10000GF104991031021008001031001MA1999999101581MD1999999-0051REMSYN011 333 59005;
0121834980999991996053000004-17733-039250FM-12+000399999V0201401N00051045001CN9999999N9+02181+02041101891ADDAA106000091AG10000GF105991021011008001031001MA1999999101841MD1999999+0031REMSYN017 333 10/// 58003;EQDQ01+000002VOVAR 
0115834980999991996053012004-17733-039250FM-12+000399999V0202301N00151220001CN0200001N1+02261+02161101951ADDAA106000091AG10000GF104991041051008001001001KA1240N+01671MA1999999101901MD1999999+0011REMSYN017 333 20167 58001;
0096834980999991996053018004-17733-039250FM-12+000399999V0201401N00211220001CN0200001N1+02551+02021101721ADDAA106000091AG10000GF104991041021008001001001MA1999999101671MD1999999+0091REMSYN011 333 58009;
0137834980999991996053100004-17733-039250FM-12+000399999V0201401N00101220001CN9999999N9+02221+02071101961ADDAA106000091AG10000GF102991001001999999001051MA1999999101911MD1999999+0071REMSYN017 333 10/// 58007;EQDQ01+000972SCOLCBQ02+000002VOVAR 
0143834980999991996053112004-17733-039250FM-12+000399999V0202301N00101045001CN0100001N1+02101+02071102051ADDAA124003091AG10002AY161061AY221061GF107991031091008001011001KA1240N+01711MA1999999102001MD1999999+0101MW1211REMSYN023 333 20171 58010 60034;
0115834980999991996053118004-17733-039250FM-12+000399999V0201401N00261220001CN0200001N1+02561+01661101711ADDAA106000091AG10000GF103991031011008001001001MA1999999101661MD1999999-0011REMSYN011 333 59001;EQDQ01+999990APOSP 
0137834980999991996060100004-17733-039250FM-12+000399999V0200901N00151220001CN9999999N9+02221+02071101881ADDAA106000091AG10000GA1001+999999999GF100991001001999999001001MA1999999101831MD1999999-0081REMSYN017 333 10/// 59008;EQDQ01+000002VOVAR 
0115834980999991996060112004-17733-039250FM-12+000399999V0202301N00261045001CN0100001N1+02061+02031102051ADDAA106000091AG10000GF108991031061008001021071KA1240N+01711MA1999999102001MD1999999+0001REMSYN017 333 20171 58000;
0124834980999991996060118004-17733-039250FM-12+000399999V0201401N00211007501CN0100001N1+02301+02141101751ADDAA106001091AG10002AY161061AY261061GF108991051061008001021999MA1999999101701MD1999999+0041MW1611REMSYN017 333 58004 69981;
0143834980999991996060212004-17733-039250FM-12+000399999V0202701N00211045001CN0200001N1+02241+02171101801ADDAA124003091AG10002AY161061AY211061GF106991011011008001031051KA1240N+01881MA1999999101751MD1999999-0251MW1211REMSYN023 333 20188 59025 60034;
0121834980999991996060300004-17733-039250FM-12+000399999V0202301N00211220001CN9999999N9+02241+02161101821ADDAA106000091AG10000GF102991011011008001001091MA1999999101771MD1999999-0011REMSYN017 333 10/// 59001;EQDQ01+000002VOVAR 
0143834980999991996060312004-17733-039250FM-12+000399999V0201801N00671045001CN0100001N1+02321+02021102061ADDAA124000191AG10002AY161061AY221061GF108991041051008001021999KA1240N+02021MA1999999102041MD1999999+0261MW1211REMSYN023 333 20202 58026 69924;
0096834980999991996060318004-17733-039250FM-12+000399999V0201801N00511045001CN0100001N1+02301+01941101901ADDAA106000091AG10000GF108991041051008001021999MA1999999101851MD1999999+0431REMSYN011 333 58043;
0149834980999991996060400004-17733-039250FM-12+000399999V0201801N00671045001CN9999999N9+02381+01711102131ADDAA106000391AG10002AY161061AY221061GF108991041051008001021999MA1999999102081MD1999999+0311MW1211REMSYN023 333 10/// 58031 69931;EQDQ01+000002VOVAR 
0121834980999991996060412004-17733-039250FM-12+000399999V0201401N00411220001CN0200001N1+02461+01661102211ADDAA124000391AG10000GF104991031011008001041001KA1240N+01981MA1999999102161MD1999999+0151REMSYN023 333 20198 58015 69934;
0121834980999991996060500004-17733-039250FM-12+000399999V0201801N00461007501CN9999999N9+02241+01801102251ADDAA106000091AG10000GF108991051031008001011999MA1999999102201MD1999999+0121REMSYN017 333 10/// 58012;EQDQ01+000002VOVAR 
0143834980999991996060512004-17733-039250FM-12+000399999V0201401N00411220001CN0200001N1+02441+01921102351ADDAA124001091AG10002AY161061AY211061GF104991031021008001001051KA1240N+01681MA1999999102301MD1999999+0141MW1211REMSYN023 333 20168 58014 60014;
0096834980999991996060518004-17733-039250FM-12+000399999V0201801N00361045001CN0200001N1+02381+02031102121ADDAA106000091AG10000GF107991021081008001061061MA1999999102071MD1999999+0091REMSYN011 333 58009;
0149834980999991996060600004-17733-039250FM-12+000399999V0201801N00151007501CN9999999N9+02141+02061102311ADDAA106001091AG10002AY161061AY261061GF108991051061008001021999MA1999999102261MD1999999+0061MW1601REMSYN023 333 10/// 58006 60011;EQDQ01+000002VOVAR 
0162834980999991996060612004-17733-039250FM-12+000399999V0200901N00151045001CN0100001N1+02241+02071102181ADDAA124012091AG10002AY161061AY221061GF107991041061008001011061KA1240N+99999MA1999999102131MD1999999-0171MW1211REMSYN023 333 21900 59017 60124;EQDQ01 -09002ATMN  
0096834980999991996060618004-17733-039250FM-12+000399999V0200901N00311045001CN0100001N1+02501+01981101881ADDAA106000091AG10000GF107991041061008001071001MA1999999101831MD1999999-0241REMSYN011 333 59024;
0121834980999991996060700004-17733-039250FM-12+000399999V0200901N00101220001CN9999999N9+02261+02111102061ADDAA106000091AG10000GF102991021011008001001001MA1999999102011MD1999999-0251REMSYN017 333 10/// 59025;EQDQ01+000002VOVAR 
0096834980999991996060718004-17733-039250FM-12+000399999V0201401N00211220001CN0200001N1+02601+02101101791ADDAA106000091AG10000GF102991011011008001001011MA1999999101741MD1999999-0091REMSYN011 333 59009;
0096834980999991996060818004-17733-039250FM-12+000399999V0201401N00261220001CN0200001N1+02581+02171101941ADDAA106000091AG10000GF101991011011008001001001MA1999999101891MD1999999+0151REMSYN011 333 58015;
0143834980999991996060912004-17733-039250FM-12+000399999V0201801N00571045001CN0040001N1+02021+01951102441ADDAA124005091AG10002AY161061AY261061GF108991041071008001021999KA1240N+01791MA1999999102391MD1999999+0281MW1611REMSYN023 333 20179 58028 60054;
0124834980999991996060918004-17733-039250FM-12+000399999V0201801N00511045001CN0040001N1+02421+01971102251ADDAA106003091AG10002AY161061AY221061GF108991031071008001021999MA1999999102201MD1999999+0311MW1211REMSYN017 333 58031 60031;
0149834980999991996061000004-17733-039250FM-12+000399999V0201801N00511220001CN9999999N9+02341+01871102401ADDAA106000391AG10002AY161061AY201061GF102991021061008001001001MA1999999102351MD1999999+0261MW1211REMSYN023 333 10/// 58026 69931;EQDQ01+000002VOVAR 
0143834980999991996061012004-17733-039250FM-12+000399999V0201801N00571007501CN0200001N1+02381+01661102361ADDAA124004091AG10002AY161061AY261061GF105991051011008001001001KA1240N+01841MA1999999102311MD1999999-0081MW1211REMSYN023 333 20184 59008 60044;
0124834980999991996061018004-17733-039250FM-12+000399999V0201801N00511045001CN0100001N1+02221+02191102171ADDAA106000591AG10002AY161061AY221061GF107991031021008001041011MA1999999102121MD1999999-0081MW1211REMSYN017 333 59008 69941;
0149834980999991996061100004-17733-039250FM-12+000399999V0201801N00411045001CN9999999N9+02061+01911102291ADDAA106000191AG10002AY161061AY221061GF106991031061008001011001MA1999999102241MD1999999-0111MW1211REMSYN023 333 10/// 59011 69911;EQDQ01+000002VOVAR 
0143834980999991996061112004-17733-039250FM-12+000399999V0202301N00361007501CN0100001N1+01981+01931102361ADDAA124004091AG10002AY161061AY261061GF108991061061008001011071KA1240N+01691MA1999999102311MD1999999+0001MW1611REMSYN023 333 20169 58000 60044;
0149834980999991996061200004-17733-039250FM-12+000399999V0201801N00261012001CN9999999N9+02221+01971102341ADDAA106000591AG10000AY151061AY261061GF106991061081008001001001MA1999999102291MD1999999+0051MW1651REMSYN023 333 10/// 58005 69951;EQDQ01+000002VOVAR 
