0168823920999992013010100004-03700-040350FM-12+008399999V0200501N002110450019N0040001N1+02791+02001100911ADDGF108991031021004501031999KA1240M+03671MA1999999099901MD1999999+0031REMSYN088AAXX  01004 82392 32496 80504 10279 20200 39990 40091 8323/ 333 10367 29056 55056 58003;
0156823920999992013010112004-03700-040350FM-12+008399999V0200501N003110450019N0500001N1+02861+02141101121ADDGF105991021041004501031001KA1240N+02141MA1999999100101MD1999999-0061REMSYN076AAXX  01124 82392 32499 50506 10286 20214 30010 40112 82430 333 20214 59006;
0137823920999992013010118004-03700-040350FM-12+008399999V0202301N003110450019N0500001N1+03601+01901100621ADDGF106991031021004501031001MA1999999099621MD1999999+0001REMSYN070AAXX  01184 82392 32499 62306 10360 20190 39962 40062 83230 333 58000;
0213823920999992013010200004-03700-040350FM-12+008399999V0200501N004110450019N0040001N1+02721+02451100931ADDAA106000591AY151061AY221061GF107991031061004501031001KA1240M+03681MA1999999099911MD1999999+0011MW1021REMSYN100AAXX  02004 82392 21496 70508 10272 20245 39991 40093 70252 83630 333 10368 29068 55038 58001 69951;
0192823920999992013010212004-03700-040350FM-12+008399999V0200501N000519999999N0500001N1+02911+02141101061ADDAA124000591GF107991999021004501001001KA1240N+02521MA1999999100041MD1999999-0061REMSYN082AAXX  02124 82392 22499 70501 10291 20214 30004 40106 84200 333 20252 59006 69954;EQDQ01+000042SCOTLC
0137823920999992013010218004-03700-040350FM-12+008399999V0200501N000510450019N0500001N1+03561+01911100551ADDGF106991031021004501031011MA1999999099551MD1999999-0071REMSYN070AAXX  02184 82392 32499 60501 10356 20191 39955 40055 83231 333 59007;
0168823920999992013010300004-03700-040350FM-12+008399999V0203601N002110042019N0040001N1+02801+02131100901ADDGF108991081061004501999999KA1240M+03621MA1999999099891MD1999999-0021REMSYN088AAXX  03004 82392 32496 83604 10280 20213 39989 40090 886// 333 10362 29059 55033 59002;
0156823920999992013010312004-03700-040350FM-12+008399999V0200501N001010450019N0500001N1+02861+02311101171ADDGF106991031081004501031001KA1240N+02581MA1999999100151MD1999999+0111REMSYN076AAXX  03124 82392 32499 60502 10286 20231 30015 40117 83830 333 20258 58011;
0182823920999992013010318004-03700-040350FM-12+008399999V0200501N005110450019N0500001N1+02841+02331100911ADDAA106007991AY161061AY221061GF105991031081004501021999MA1999999099891MD1999999+0341MW1031REMSYN082AAXX  03184 82392 21499 50510 10284 20233 39989 40091 70362 8382/ 333 58034 60081;
0213823920999992013010400004-03700-040350FM-12+008399999V0202701N000510450019N0040001N1+02181+01901101331ADDAA106022191AY161061AY261061GF108991041061004501021999KA1240M+03361MA1999999100301MD1999999+0411MW1021REMSYN100AAXX  04004 82392 21496 82701 10218 20190 30030 40133 70266 8462/ 333 10336 29078 55032 58041 60221;
0201823920999992013010412004-03700-040350FM-12+008399999V0209999C000010042019N0500001N1+02401+02301101451ADDAA124031091AY161061AY261061GF108991071061004501031999KA1240N+02131MA1999999100431MD1999999+0281MW1211REMSYN088AAXX  04124 82392 21499 80500 10240 20230 30043 40145 72166 8763/ 333 20213 58028 60314;
0182823920999992013010418004-03700-040350FM-12+008399999V0203201N001010042019N0100001N1+02281+02231101281ADDAA106039991AY161061AY261061GF108991081061004501999999MA1999999100241MD1999999+0351MW1291REMSYN082AAXX  04184 82392 21497 83202 10228 20223 30024 40128 72966 886// 333 58035 60401;
0213823920999992013010500004-03700-040350FM-12+008399999V0209999C000010042019N0040001N1+02281+02211101331ADDAA106002091AY151061AY261061GF106991061061004501001001KA1240M+02761MA1999999100301MD1999999+0001MW1021REMSYN100AAXX  05004 82392 21496 60000 10228 20221 30030 40133 70256 86600 333 10276 29096 55003 58000 60021;
0192823920999992013010512004-03700-040350FM-12+008399999V0200901N000519999999N0500001N1+02661+02291101391ADDAA124041991GF106991999021004501001001KA1240N+02131MA1999999100361MD1999999-0071REMSYN082AAXX  05124 82392 22499 60901 10266 20229 30036 40139 84200 333 20213 59007 60424;EQDQ01+000042SCOTLC
0156823920999992013010518004-03700-040350FM-12+008399999V0203601N000519999999N0500001N1+03211+01911101051ADDGF107991999021004501001001MA1999999100031MD1999999-0211REMSYN070AAXX  05184 82392 32499 73601 10321 20191 30003 40105 83200 333 59021;EQDQ01+000032SCOTLC
0168823920999992013010600004-03700-040350FM-12+008399999V0203601N000512200019N0040001N1+02661+02091101261ADDGF104991041041004501001001KA1240M+03281MA1999999100241MD1999999-0061REMSYN088AAXX  06004 82392 32496 43601 10266 20209 30024 40126 84400 333 10328 29067 55023 59006;
0156823920999992013010612004-03700-040350FM-12+008399999V0200501N001010450019N0500001N1+02781+02211101251ADDGF106991041021004501011011KA1240N+02261MA1999999100231MD1999999-0131REMSYN076AAXX  06124 82392 32499 60502 10278 20221 30023 40125 84211 333 20226 59013;
0182823920999992013010618004-03700-040350FM-12+008399999V0200501N001510042019N0500001N1+02531+02311100921ADDAA106009991AY121061AY251061GF108991081061004501999999MA1999999099891MD1999999-0141MW1911REMSYN082AAXX  06184 82392 21499 80503 10253 20231 39989 40092 79125 886// 333 59014 60101;
0213823920999992013010700004-03700-040350FM-12+008399999V0203601N001512200019N0040001N1+02581+02271101051ADDAA106002091AY161061AY261061GF102991021001008001011001KA1240M+03271MA1999999100031MD1999999-0211MW1021REMSYN100AAXX  07004 82392 21596 23603 10258 20227 30003 40105 70266 82010 333 10327 29081 55072 59021 60021;
0173823920999992013010712004-03700-040350FM-12+008399999V0200501N003112200019N0500001N1+02901+02121101191ADDAA124011991GF104991021011004501031001KA1240N+02441MA1999999100171MD1999999-0061REMSYN082AAXX  07124 82392 22499 40506 10290 20212 30017 40119 82130 333 20244 59006 60124;
0137823920999992013010718004-03700-040350FM-12+008399999V0200501N002612200019N0500001N1+03481+01841100661ADDGF104991041041004501001001MA1999999099651MD1999999-0241REMSYN070AAXX  07184 82392 32499 40505 10348 20184 39965 40066 84400 333 59024;
0178823920999992013010800004-03700-040350FM-12+008399999V0200501N002112200019N0040001N1+02701+02221100981ADDGA1001+999999999GF100991001001999999001001KA1240M+03581MA1999999099961MD1999999-0071REMSYN082AAXX  08004 82392 32996 00504 10270 20222 39996 40098 333 10358 29063 55108 59007;
0156823920999992013010812004-03700-040350FM-12+008399999V0200901N001010042019N0500001N1+02951+02131101161ADDGF105991051021004501001001KA1240N+02301MA1999999100141MD1999999-0031REMSYN076AAXX  08124 82392 32499 50902 10295 20213 30014 40116 85200 333 20230 59003;
0137823920999992013010818004-03700-040350FM-12+008399999V0203201N000512200019N0500001N1+03451+02091100631ADDGF104991021021004501031001MA1999999099631MD1999999-0021REMSYN070AAXX  08184 82392 32499 43201 10345 20209 39963 40063 82230 333 59002;
0168823920999992013010900004-03700-040350FM-12+008399999V0203601N002612200019N0040001N1+02731+02021101021ADDGF104991041021008001001001KA1240M+03591MA1999999100001MD1999999+0041REMSYN088AAXX  09004 82392 32596 43605 10273 20202 30000 40102 84200 333 10359 29059 55092 58004;
0156823920999992013010912004-03700-040350FM-12+008399999V0200501N002110450019N0500001N1+02901+02041101221ADDGF105991031011004501031001KA1240N+02541MA1999999100201MD1999999+0061REMSYN076AAXX  09124 82392 32499 50504 10290 20204 30020 40122 83130 333 20254 58006;
0137823920999992013010918004-03700-040350FM-12+008399999V0200501N001010450019N0500001N1+03361+02001100711ADDGF107991031041004501031001MA1999999099701MD1999999+0001REMSYN070AAXX  09184 82392 32499 70502 10336 20200 39970 40071 83430 333 58000;
0178823920999992013011000004-03700-040350FM-12+008399999V0200501N002112200019N0040001N1+02761+02091100921ADDGA1001+999999999GF100991001001999999001001KA1240M+03461MA1999999099901MD1999999-0101REMSYN082AAXX  10004 82392 32996 00504 10276 20209 39990 40092 333 10346 29060 55041 59010;
0156823920999992013011012004-03700-040350FM-12+008399999V0200901N000510042019N0500001N1+02751+02231101081ADDGF107991051021004501031001KA1240N+02341MA1999999100061MD1999999-0141REMSYN076AAXX  10124 82392 32499 70901 10275 20223 30006 40108 85230 333 20234 59014;
0137823920999992013011018004-03700-040350FM-12+008399999V0200901N000511050019N0500001N1+03411+01871100581ADDGF105991021021008001011011MA1999999099581MD1999999-0121REMSYN070AAXX  10184 82392 32599 50901 10341 20187 39958 40058 82211 333 59012;
0178823920999992013011100004-03700-040350FM-12+008399999V0203601N002112200019N0040001N1+02641+02181100851ADDGA1001+999999999GF100991001001999999001001KA1240M+03501MA1999999099831MD1999999-0071REMSYN082AAXX  11004 82392 32996 03604 10264 20218 39983 40085 333 10350 29066 55076 59007;
0156823920999992013011112004-03700-040350FM-12+008399999V0200501N002110450019N0500001N1+02821+02201100861ADDGF106991031041004501031001KA1240N+02381MA1999999099861MD1999999-0201REMSYN076AAXX  11124 82392 32499 60504 10282 20220 39986 40086 83430 333 20238 59020;
0168823920999992013011200004-03700-040350FM-12+008399999V0203601N003112200019N0040001N1+02741+02261100731ADDGF102991021001008001031001KA1240M+03481MA1999999099711MD1999999-0121REMSYN088AAXX  12004 82392 32596 23606 10274 20226 39971 40073 82030 333 10348 29066 55050 59012;
0156823920999992013011218004-03700-040350FM-12+008399999V0200901N003119999999N0500001N1+03441+02041100451ADDGF107991999021004501001001MA1999999099451MD1999999+0001REMSYN070AAXX  12184 82392 32499 70906 10344 20204 39945 40045 83200 333 58000;EQDQ01+000032SCOTLC
0178823920999992013011300004-03700-040350FM-12+008399999V0200501N003112200019N0040001N1+02741+02261100821ADDGA1001+999999999GF100991001001999999001001KA1240M+03481MA1999999099801MD1999999-0091REMSYN082AAXX  13004 82392 32496 00506 10274 20226 39980 40082 333 10348 29066 55052 59009;
0156823920999992013011312004-03700-040350FM-12+008399999V0200901N001012200019N0500001N1+02821+02171100941ADDGF104991021021004501031001KA1240N+02231MA1999999099921MD1999999+0111REMSYN076AAXX  13124 82392 32499 40902 10282 20217 39992 40094 82230 333 20223 58011;
0137823920999992013011318004-03700-040350FM-12+008399999V0200501N001012200019N0500001N1+03581+01931100501ADDGF102991011011004501001011MA1999999099501MD1999999+0081REMSYN070AAXX  13184 82392 32499 20502 10358 20193 39950 40050 81101 333 58008;
0178823920999992013011400004-03700-040350FM-12+008399999V0203601N002112200019N0500001N1+02861+02191100851ADDGA1001+999999999GF100991001001999999001001KA1240M+03641MA1999999099831MD1999999+0031REMSYN082AAXX  14004 82392 32499 03604 10286 20219 39983 40085 333 10364 29060 55105 58003;
0156823920999992013011412004-03700-040350FM-12+008399999V0200501N000510042019N0500001N1+02811+02241101031ADDGF107991071041004501001001KA1240N+02181MA1999999100011MD1999999+0091REMSYN076AAXX  14124 82392 32499 70501 10281 20224 30001 40103 87400 333 20218 58009;
0173823920999992013011512004-03700-040350FM-12+008399999V0200901N000512200019N0500001N1+02701+02331100971ADDAA124001091GF104991021011004501031001KA1240N+02411MA1999999099951MD1999999-0061REMSYN082AAXX  15124 82392 22499 40901 10270 20233 39995 40097 82130 333 20241 59006 60014;
0137823920999992013011518004-03700-040350FM-12+008399999V0201401N000510450019N0500001N1+03401+02181100551ADDGF106991031041004501031001MA1999999099551MD1999999-0051REMSYN070AAXX  15184 82392 32499 61401 10340 20218 39955 40055 83430 333 59005;
0156823920999992013011612004-03700-040350FM-12+008399999V0209999C000010450019N0500001N1+02771+02251101051ADDGF106991021021004501011011KA1240N+02371MA1999999100031MD1999999+0081REMSYN076AAXX  16124 82392 32499 63600 10277 20225 30003 40105 82211 333 20237 58008;
0156823920999992013011618004-03700-040350FM-12+008399999V0203601N000519999999N0500001N1+03401+02141100571ADDGF106991999021004501001001MA1999999099571MD1999999+0021REMSYN070AAXX  16184 82392 32499 63601 10340 20214 39957 40057 83200 333 58002;EQDQ01+000032SCOTLC
0178823920999992013011700004-03700-040350FM-12+008399999V0203601N002612200019N0040001N1+02731+02211100901ADDGA1001+999999999GF100991001001999999001001KA1240M+03521MA1999999099881MD1999999+0051REMSYN082AAXX  17004 82392 32996 03605 10273 20221 39988 40090 333 10352 29067 55073 58005;
0175823920999992013011712004-03700-040350FM-12+008399999V0200501N001019999999N0500001N1+02801+02151101121ADDGF108991999021004501001001KA1240N+02581MA1999999100101MD1999999+0071REMSYN076AAXX  17124 82392 32499 80502 10280 20215 30010 40112 84200 333 20258 58007;EQDQ01+000042SCOTLC
0137823920999992013011718004-03700-040350FM-12+008399999V0200501N003110450019N0500001N1+03501+02021100641ADDGF106991031021004501031001MA1999999099641MD1999999+0071REMSYN070AAXX  17184 82392 32499 60506 10350 20202 39964 40064 83230 333 58007;
0187823920999992013011800004-03700-040350FM-12+008399999V0200501N002112200019N0040001N1+02861+02281101021ADDGF102991999021004501001001KA1240M+03621MA1999999100001MD1999999+0121REMSYN088AAXX  18004 82392 32496 20504 10286 20228 30000 40102 83200 333 10362 29064 55066 58012;EQDQ01+000032SCOTLC
0156823920999992013011812004-03700-040350FM-12+008399999V0200501N000510450019N0500001N1+02861+02261101231ADDGF106991041041004501031001KA1240N+02401MA1999999100221MD1999999+0121REMSYN076AAXX  18124 82392 32499 60501 10286 20226 30022 40123 84430 333 20240 58012;
0137823920999992013011818004-03700-040350FM-12+008399999V0200501N001510450019N0500001N1+03571+02091100661ADDGF106991031041004501031001MA1999999099651MD1999999+0011REMSYN070AAXX  18184 82392 32499 60503 10357 20209 39965 40066 83430 333 58001;
0168823920999992013011900004-03700-040350FM-12+008399999V0203601N002112200019N0040001N1+02801+02081101031ADDGF101991011001008001011001KA1240M+03611MA1999999100011MD1999999+0011REMSYN088AAXX  19004 82392 32596 13604 10280 20208 30001 40103 81010 333 10361 29062 55078 58001;
0156823920999992013011912004-03700-040350FM-12+008399999V0200501N001010042019N0500001N1+02881+02281101101ADDGF106991061021004501001001KA1240N+02381MA1999999100081MD1999999-0141REMSYN076AAXX  19124 82392 32499 60502 10288 20228 30008 40110 86200 333 20238 59014;
0182823920999992013011918004-03700-040350FM-12+008399999V0203601N001010450019N0500001N1+02701+02331100841ADDAA106005191AY161061AY221061GF108991041021004501031999MA1999999099821MD1999999+0171MW1021REMSYN082AAXX  19184 82392 21499 83602 10270 20233 39982 40084 70262 8423/ 333 58017 60051;
0213823920999992013012000004-03700-040350FM-12+008399999V0209999C000010042019N0040001N1+02251+02161101261ADDAA106004191AY161061AY261061GF108991081061004501999999KA1240M+03101MA1999999100241MD1999999+0231MW1551REMSYN100AAXX  20004 82392 21496 80000 10225 20216 30024 40126 75566 886// 333 10310 29085 55044 58023 60041;
0201823920999992013012012004-03700-040350FM-12+008399999V0202701N000512200019N0500001N1+02511+02231101201ADDAA124008991AY151061AY261061GF107991031061004501001011KA1240N+02161MA1999999100171MD1999999+0091MW1021REMSYN088AAXX  20124 82392 21499 72701 10251 20223 30017 40120 70256 83601 333 20216 58009 60094;
0137823920999992013012018004-03700-040350FM-12+008399999V0200901N000510450019N0500001N1+03341+02051100721ADDGF106991041021004501031001MA1999999099701MD1999999-0121REMSYN070AAXX  20184 82392 32499 60901 10334 20205 39970 40072 84230 333 59012;
0168823920999992013012100004-03700-040350FM-12+008399999V0203601N002110450019N0020001N1+02711+02281101021ADDGF106991021021004501031001KA1240M+03391MA1999999100001MD1999999-0241REMSYN088AAXX  21004 82392 32495 63604 10271 20228 30000 40102 82230 333 10339 29071 55064 59024;
0156823920999992013012112004-03700-040350FM-12+008399999V0200901N001010450019N0500001N1+02821+02481101181ADDGF106991021041004501031001KA1240N+02401MA1999999100161MD1999999-0011REMSYN076AAXX  21124 82392 32499 60902 10282 20248 30016 40118 82430 333 20240 59001;
0137823920999992013012118004-03700-040350FM-12+008399999V0200901N004110450019N0500001N1+02841+02421100821ADDGF107991031061004501021999MA1999999099801MD1999999+0101REMSYN070AAXX  21184 82392 32499 70908 10284 20242 39980 40082 8362/ 333 58010;
0213823920999992013012200004-03700-040350FM-12+008399999V0203601N000510450019N0040001N1+02461+02171101111ADDAA106005191AY161061AY221061GF108991031061004501011999KA1240M+03221MA1999999100091MD1999999+0091MW1021REMSYN100AAXX  22004 82392 21496 83601 10246 20217 30009 40111 70262 8361/ 333 10322 29082 55037 58009 60051;
0173823920999992013012212004-03700-040350FM-12+008399999V0200901N001010042019N0500001N1+02731+02431101201ADDAA124005191GF107991051061004501031001KA1240N+02321MA1999999100181MD1999999+0021REMSYN082AAXX  22124 82392 22499 70902 10273 20243 30018 40120 85630 333 20232 58002 60054;
0137823920999992013012218004-03700-040350FM-12+008399999V0200501N001010450019N0500001N1+03481+02041100811ADDGF106991031021004501011011MA1999999099801MD1999999+0001REMSYN070AAXX  22184 82392 32499 60502 10348 20204 39980 40081 83211 333 58000;
0168823920999992013012300004-03700-040350FM-12+008399999V0203601N001511050019N0040001N1+02711+02171101051ADDGF105991011021004501011011KA1240M+03521MA1999999100031MD1999999-0061REMSYN088AAXX  23004 82392 32496 53603 10271 20217 30003 40105 81211 333 10352 29068 55070 59006;
0175823920999992013012312004-03700-040350FM-12+008399999V0200901N001012200019N0500001N1+02661+02351101221ADDGF104991999021004501001001KA1240N+02281MA1999999100201MD1999999+0021REMSYN076AAXX  23124 82392 32499 40902 10266 20235 30020 40122 83200 333 20228 58002;EQDQ01+000032SCOTLC
0137823920999992013012318004-03700-040350FM-12+008399999V0200501N000512200019N0500001N1+03441+02211100781ADDGF104991021011004501031001MA1999999099771MD1999999-0031REMSYN070AAXX  23184 82392 32499 40501 10344 20221 39977 40078 82130 333 59003;
0156823920999992013012412004-03700-040350FM-12+008399999V0200901N000512200019N0500001N1+02831+02221101191ADDGF104991041021004501001001KA1240N+02831MA1999999100171MD1999999-0031REMSYN076AAXX  24124 82392 32499 40901 10283 20222 30017 40119 84200 333 20283 59003;
0137823920999992013012418004-03700-040350FM-12+008399999V0203601N000510450019N0500001N1+03511+01991100731ADDGF105991021021004501031001MA1999999099721MD1999999-0051REMSYN070AAXX  24184 82392 32499 53601 10351 20199 39972 40073 82230 333 59005;
0156823920999992013012512004-03700-040350FM-12+008399999V0200501N000512200019N0500001N1+02781+02361101221ADDGF104991041011004501001001KA1240N+02401MA1999999100201MD1999999+0031REMSYN076AAXX  25124 82392 32499 40501 10278 20236 30020 40122 84100 333 20240 58003;
0137823920999992013012518004-03700-040350FM-12+008399999V0200501N002110450019N0500001N1+03401+02141100831ADDGF107991031021004501031001MA1999999099821MD1999999+0081REMSYN070AAXX  25184 82392 32499 70504 10340 20214 39982 40083 83230 333 58008;
0168823920999992013012600004-03700-040350FM-12+008399999V0203601N003112200019N0040001N1+02741+02471101171ADDGF102991021001004501031001KA1240M+03621MA1999999100151MD1999999-0021REMSYN088AAXX  26004 82392 32496 23606 10274 20247 30015 40117 82030 333 10362 29074 55065 59002;
0156823920999992013012612004-03700-040350FM-12+008399999V0200501N002112200019N0500001N1+02781+02441101321ADDGF104991021021004501031001KA1240N+02321MA1999999100301MD1999999+0101REMSYN076AAXX  26124 82392 32499 40504 10278 20244 30030 40132 82230 333 20232 58010;
0137823920999992013012618004-03700-040350FM-12+008399999V0200901N003110450019N0500001N1+03601+02141100811ADDGF105991021021004501031001MA1999999099801MD1999999-0021REMSYN070AAXX  26184 82392 32499 50906 10360 20214 39980 40081 82230 333 59002;
0168823920999992013012700004-03700-040350FM-12+008399999V0200501N004110450019N0040001N1+02781+02461101151ADDGF107991021011004501011001KA1240M+03681MA1999999100131MD1999999-0021REMSYN088AAXX  27004 82392 32496 70508 10278 20246 30013 40115 82110 333 10368 29073 55069 59002;
0156823920999992013012712004-03700-040350FM-12+008399999V0200901N000510450019N0500001N1+02801+02381101321ADDGF107991031051004501011001KA1240N+02501MA1999999100301MD1999999+0001REMSYN076AAXX  27124 82392 32499 70901 10280 20238 30030 40132 83510 333 20250 58000;
0137823920999992013012718004-03700-040350FM-12+008399999V0200501N002110450019N0500001N1+03501+02021100901ADDGF106991041021004501031001MA1999999099891MD1999999+0091REMSYN070AAXX  27184 82392 32499 60504 10350 20202 39989 40090 84230 333 58009;
0168823920999992013012800004-03700-040350FM-12+008399999V0203601N002112200019N0040001N1+02701+02281101121ADDGF104991011011008001031001KA1240M+03581MA1999999100101MD1999999-0031REMSYN088AAXX  28004 82392 32596 43604 10270 20228 30010 40112 81130 333 10358 29069 55062 59003;
0156823920999992013012812004-03700-040350FM-12+008399999V0200501N001510450019N0500001N1+02891+02171101321ADDGF106991031021004501011011KA1240N+02291MA1999999100301MD1999999+0001REMSYN076AAXX  28124 82392 32499 60503 10289 20217 30030 40132 83211 333 20229 58000;
0137823920999992013012818004-03700-040350FM-12+008399999V0200501N001010450019N0500001N1+03511+02071100881ADDGF106991041021004501031011MA1999999099781MD1999999-0021REMSYN070AAXX  28184 82392 32499 60502 10351 20207 39978 40088 84231 333 59002;
0178823920999992013012900004-03700-040350FM-12+008399999V0200501N002112200019N0040001N1+02711+02051101171ADDGA1001+999999999GF100991001001999999001001KA1240M+03561MA1999999100151MD1999999+0101REMSYN082AAXX  29004 82392 32996 00504 10271 20205 30015 40117 333 10356 29061 55085 58010;
0175823920999992013012912004-03700-040350FM-12+008399999V0200501N004112200019N0500001N1+02901+02241101271ADDGF104991999021004501001001KA1240N+02101MA1999999100251MD1999999-0051REMSYN076AAXX  29124 82392 32499 40508 10290 20224 30025 40127 83200 333 20210 59005;EQDQ01+000032SCOTLC
0137823920999992013012918004-03700-040350FM-12+008399999V0200901N004112200019N0500001N1+03681+01641100761ADDGF103991031011004501001001MA1999999099751MD1999999-0121REMSYN070AAXX  29184 82392 32499 30908 10368 20164 39975 40076 83100 333 59012;
0178823920999992013013000004-03700-040350FM-12+008399999V0203601N005112200019N0040001N1+02761+01971101061ADDGA1001+999999999GF100991001001999999001001KA1240M+03761MA1999999100041MD1999999-0111REMSYN082AAXX  30004 82392 32996 03610 10276 20197 30004 40106 333 10376 29054 55106 59011;
0156823920999992013013012004-03700-040350FM-12+008399999V0200901N001010042019N0500001N1+02851+02061101191ADDGF105991051021004501001001KA1240N+02041MA1999999100171MD1999999-0081REMSYN076AAXX  30124 82392 32499 50902 10285 20206 30017 40119 85200 333 20204 59008;
0137823920999992013013018004-03700-040350FM-12+008399999V0200901N000512200019N0500001N1+03571+01931100681ADDGF104991041021004501001001MA1999999099671MD1999999-0081REMSYN070AAXX  30184 82392 32499 40901 10357 20193 39967 40068 84200 333 59008;
0178823920999992013013100004-03700-040350FM-12+008399999V0200501N004112200019N0040001N1+02761+02041101051ADDGA1001+999999999GF100991001001999999001001KA1240M+03721MA1999999100031MD1999999-0011REMSYN082AAXX  31004 82392 32996 00508 10276 20204 30003 40105 333 10372 29051 55096 59001;
0156823920999992013013112004-03700-040350FM-12+008399999V0200501N004112200019N0500001N1+02881+02131101171ADDGF104991041021004501001001KA1240N+02381MA1999999100151MD1999999-0021REMSYN076AAXX  31124 82392 32499 40508 10288 20213 30015 40117 84200 333 20238 59002;
0137823920999992013013118004-03700-040350FM-12+008399999V0200501N003110450019N0500001N1+03661+01771100661ADDGF105991021021004501031001MA1999999099651MD1999999-0021REMSYN070AAXX  31184 82392 32499 50506 10366 20177 39965 40066 82230 333 59002;
0178823920999992013020100004-03700-040350FM-12+008399999V0200501N003112200019N0040001N1+02741+02261100951ADDGA1001+999999999GF100991001001999999001001KA1240M+03701MA1999999099931MD1999999-0101REMSYN082AAXX  01004 82392 32996 00506 10274 20226 39993 40095 333 10370 29062 55094 59010;
0175823920999992013020112004-03700-040350FM-12+008399999V0200501N000519999999N0040001N1+02741+02181101141ADDGF106991999021004501001001KA1240N+02361MA1999999100121MD1999999-0031REMSYN076AAXX  01124 82392 32496 60501 10274 20218 30012 40114 83200 333 20236 59003;EQDQ01+000032SCOTLC
0137823920999992013020118004-03700-040350FM-12+008399999V0200501N001510042019N0500001N1+03571+02201100581ADDGF106991061021004501001001MA1999999099581MD1999999-0071REMSYN070AAXX  01184 82392 32499 60503 10357 20220 39958 40058 86200 333 59007;
0178823920999992013020200004-03700-040350FM-12+008399999V0203601N001012200019N0040001N1+02771+02061100891ADDGA1001+999999999GF100991001001999999001001KA1240M+03711MA1999999099871MD1999999-0061REMSYN082AAXX  02004 82392 32996 03602 10277 20206 39987 40089 333 10371 29061 55092 59006;
0156823920999992013020212004-03700-040350FM-12+008399999V0200501N001010450019N0500001N1+02921+02121101211ADDGF106991041021004501031001KA1240N+02301MA1999999100201MD1999999+0081REMSYN076AAXX  02124 82392 32499 60502 10292 20212 30020 40121 84230 333 20230 58008;
0137823920999992013020218004-03700-040350FM-12+008399999V0200901N001010042019N0500001N1+03701+01991100621ADDGF106991061021004501001001MA1999999099621MD1999999+0041REMSYN070AAXX  02184 82392 32499 60902 10370 20199 39962 40062 86200 333 58004;
0178823920999992013020300004-03700-040350FM-12+008399999V0203601N001012200019N0040001N1+02941+02031100821ADDGA1001+999999999GF100991001001999999001001KA1240M+03801MA1999999099811MD1999999-0061REMSYN082AAXX  03004 82392 32996 03602 10294 20203 39981 40082 333 10380 29054 55096 59006;
0156823920999992013020312004-03700-040350FM-12+008399999V0200901N000512200019N0500001N1+02991+02111101091ADDGF104991041021004501001001KA1240N+02231MA1999999100081MD1999999-0121REMSYN076AAXX  03124 82392 32499 40901 10299 20211 30008 40109 84200 333 20223 59012;
0137823920999992013020318004-03700-040350FM-12+008399999V0203601N002110042019N0500001N1+03691+02031100531ADDGF105991051021004501001001MA1999999099531MD1999999-0021REMSYN070AAXX  03184 82392 32499 53604 10369 20203 39953 40053 85200 333 59002;
0178823920999992013020400004-03700-040350FM-12+008399999V0203601N003612200019N0040001N1+02811+02051100831ADDGA1001+999999999GF100991001001999999001001KA1240M+03781MA1999999099821MD1999999+0011REMSYN082AAXX  04004 82392 32996 03607 10281 20205 39982 40083 333 10378 29056 55105 58001;
0156823920999992013020412004-03700-040350FM-12+008399999V0200501N004110450019N0500001N1+02881+02031100991ADDGF107991031051004501011001KA1240N+02501MA1999999099971MD1999999-0111REMSYN076AAXX  04124 82392 32499 70508 10288 20203 39997 40099 83510 333 20250 59011;
0137823920999992013020418004-03700-040350FM-12+008399999V0200901N003110450019N0500001N1+03451+01881100561ADDGF106991031021004501031001MA1999999099561MD1999999+0031REMSYN070AAXX  04184 82392 32499 60906 10345 20188 39956 40056 83230 333 58003;
0178823920999992013020500004-03700-040350FM-12+008399999V0200501N004112200019N0040001N1+02781+02251100861ADDGA1001+999999999GF100991001001999999001001KA1240M+03601MA1999999099841MD1999999+0021REMSYN082AAXX  05004 82392 32996 00508 10278 20225 39984 40086 333 10360 29062 55046 58002;
0156823920999992013020512004-03700-040350FM-12+008399999V0200501N001010042019N0040001N1+02931+02051100981ADDGF106991051021004501001011KA1240N+02241MA1999999099971MD1999999+0001REMSYN076AAXX  05124 82392 32496 60502 10293 20205 39997 40098 85201 333 20224 58000;
0156823920999992013020518004-03700-040350FM-12+008399999V0203601N001510042019N0500001N1+03471+02071100511ADDGF106991051021004501031001MA1999999999999MD1999999-0051REMSYN070AAXX  05184 82392 32499 63603 10347 20207 35951 40051 85230 333 59005;EQDQ01 059513APOSP 
0197823920999992013020600004-03700-040350FM-12+008399999V0203601N003112200019N0040001N1+02731+02121100881ADDGA1001+999999999GF100991001001999999001001KA1240M+03661MA1999999099862MD1999999+0021REMSYN082AAXX  06004 82392 32996 03606 10273 20212 39986 40088 333 10366 29060 55089 58002;EQDQ01+099863APOSP 
0214823920999992013020612004-03700-040350FM-12+008399999V0200901N002112200019N0500001N1+02841+02291101071ADDAA124000891AY151061AY221061GF104991041021004501001001KA1240N+02401MA1999999100051MD1999999+0071REMSYN088AAXX  06124 82392 21499 40904 10284 20229 30005 40107 77252 84200 333 20240 58007 69984;EQDQ01+000722PRSWM1
0137823920999992013020618004-03700-040350FM-12+008399999V0200901N002110450019N0500001N1+03541+01891100671ADDGF105991021021004501031001MA1999999099661MD1999999+0151REMSYN070AAXX  06184 82392 32499 50904 10354 20189 39966 40067 82230 333 58015;
0168823920999992013020700004-03700-040350FM-12+008399999V0203601N003112200019N0040001N1+02721+02241100881ADDGF104991021011004501031001KA1240M+03641MA1999999099861MD1999999+0001REMSYN088AAXX  07004 82392 32496 43606 10272 20224 39986 40088 82130 333 10364 29065 55082 58000;
0156823920999992013020712004-03700-040350FM-12+008399999V0201801N000510042019N0500001N1+02781+02211101111ADDGF107991061061004501031001KA1240N+02371MA1999999100091MD1999999+0041REMSYN076AAXX  07124 82392 32499 71801 10278 20221 30009 40111 86630 333 20237 58004;
0182823920999992013020718004-03700-040350FM-12+008399999V0203601N001010450019N0500001N1+03101+01971100671ADDAA106000591AY161061AY221061GF107991031021004501031001MA1999999099651MD1999999-0011MW1021REMSYN082AAXX  07184 82392 21499 73602 10310 20197 39965 40067 70262 83230 333 59001 69941;
0168823920999992013020800004-03700-040350FM-12+008399999V0200501N001012200019N0040001N1+02681+02201100881ADDGF104991021021004501031001KA1240M+03321MA1999999099861MD1999999+0001REMSYN088AAXX  08004 82392 32496 40502 10268 20220 39986 40088 82230 333 10332 29068 55032 58000;
0173823920999992013020812004-03700-040350FM-12+008399999V0201801N001012200019N0500001N1+02921+02061101071ADDAA124000591GF103991031011004501001001KA1240N+02101MA1999999100051MD1999999-0041REMSYN082AAXX  08124 82392 22499 31802 10292 20206 30005 40107 83100 333 20210 59004 69944;
0137823920999992013020818004-03700-040350FM-12+008399999V0200501N003112200019N0500001N1+03661+01621100601ADDGF103991031011004501001001MA1999999099601MD1999999-0051REMSYN070AAXX  08184 82392 32499 30506 10366 20162 39960 40060 83100 333 59005;
0178823920999992013020900004-03700-040350FM-12+008399999V0200501N002612200019N0040001N1+02801+02061100791ADDGA1001+999999999GF100991001001999999001001KA1240M+03841MA1999999099781MD1999999-0081REMSYN082AAXX  09004 82392 32996 00505 10280 20206 39978 40079 333 10384 29054 55101 59008;
0156823920999992013020912004-03700-040350FM-12+008399999V0200901N004112200019N0500001N1+03001+02171101021ADDGF104991021011004501031001KA1240N+02401MA1999999100011MD1999999-0041REMSYN076AAXX  09124 82392 32499 40908 10300 20217 30001 40102 82130 333 20240 59004;
0137823920999992013020918004-03700-040350FM-12+008399999V0200501N002110450019N0500001N1+03681+01741100601ADDGF106991031041004501031001MA1999999099601MD1999999+0001REMSYN070AAXX  09184 82392 32499 60504 10368 20174 39960 40060 83430 333 58000;
0187823920999992013021000004-03700-040350FM-12+008399999V0200501N004119999999N0040001N1+02641+02371101011ADDGF107991999031004501081021KA1240M+03821MA1999999099991MD1999999+0211REMSYN088AAXX  10004 82392 32496 70508 10264 20237 39999 40101 80382 333 10382 29066 55086 58021;EQDQ01+000002SCOTLC
0156823920999992013021012004-03700-040350FM-12+008399999V0201401N002612200019N0500001N1+02981+02151101021ADDGF104991041011004501001001KA1240N+02401MA1999999100001MD1999999-0011REMSYN076AAXX  10124 82392 32499 41405 10298 20215 30000 40102 84100 333 20240 59001;
0137823920999992013021018004-03700-040350FM-12+008399999V0200901N004610450019N0500001N1+03701+01851100501ADDGF105991021011004501031001MA1999999099501MD1999999-0101REMSYN070AAXX  10184 82392 32499 50909 10370 20185 39950 40050 82130 333 59010;
0178823920999992013021100004-03700-040350FM-12+008399999V0200501N004112200019N0040001N1+02801+02251100761ADDGA1001+999999999GF100991001001999999001001KA1240M+03851MA1999999099751MD1999999-0241REMSYN082AAXX  11004 82392 32996 00508 10280 20225 39975 40076 333 10385 29060 55104 59024;
0201823920999992013021112004-03700-040350FM-12+008399999V0209999C000010450019N0500001N1+02831+02331101031ADDAA124001091AY161061AY211061GF106991041021004501031001KA1240N+02471MA1999999100011MD1999999+0011MW1021REMSYN088AAXX  11124 82392 21499 63600 10283 20233 30001 40103 70261 84230 333 20247 58001 60014;
0137823920999992013021118004-03700-040350FM-12+008399999V0203601N004110450019N0500001N1+03431+02071100481ADDGF106991031021004501031001MA1999999099481MD1999999-0021REMSYN070AAXX  11184 82392 32499 63608 10343 20207 39948 40048 83230 333 59002;
0168823920999992013021200004-03700-040350FM-12+008399999V0203601N001012200019N0040001N1+02811+02001100811ADDGF102991021001008001011001KA1240M+03331MA1999999099791MD1999999+0041REMSYN088AAXX  12004 82392 32596 23602 10281 20200 39979 40081 82010 333 10333 29060 55089 58004;
0156823920999992013021212004-03700-040350FM-12+008399999V0200501N002610450019N0500001N1+02941+02081100871ADDGF105991021021004501031001KA1240N+02381MA1999999099861MD1999999-0151REMSYN076AAXX  12124 82392 32499 50505 10294 20208 39986 40087 82230 333 20238 59015;
0137823920999992013021218004-03700-040350FM-12+008399999V0200501N000512200019N0500001N1+03721+02011100451ADDGF104991021011004501031001MA1999999099451MD1999999-0031REMSYN070AAXX  12184 82392 32499 40501 10372 20201 39945 40045 82130 333 59003;
0178823920999992013021300004-03700-040350FM-12+008399999V0200501N003112200019N0040001N1+02861+02161100781ADDGA1001+999999999GF100991001001999999001001KA1240M+03871MA1999999099771MD1999999-0021REMSYN082AAXX  13004 82392 32996 00506 10286 20216 39977 40078 333 10387 29057 55095 59002;
0156823920999992013021312004-03700-040350FM-12+008399999V0200901N001510042019N0500001N1+02961+02181100951ADDGF107991051021004501031001KA1240N+02571MA1999999099941MD1999999+0081REMSYN076AAXX  13124 82392 32499 70903 10296 20218 39994 40095 85230 333 20257 58008;
0137823920999992013021318004-03700-040350FM-12+008399999V0203201N001510450019N0500001N1+03511+02111100541ADDGF106991041061004501031001MA1999999099541MD1999999+0091REMSYN070AAXX  13184 82392 32499 63203 10351 20211 39954 40054 84630 333 58009;
0168823920999992013021400004-03700-040350FM-12+008399999V0203601N002119999999N0040001N1+02731+02241100951ADDGF105991051001008001011001KA1240M+03661MA1999999099941MD1999999+0171REMSYN088AAXX  14004 82392 32596 53604 10273 20224 39994 40095 85010 333 10366 29064 55053 58017;
0201823920999992013021412004-03700-040350FM-12+008399999V0200501N002110450019N0500001N1+02821+02271101181ADDAA124014091AY161061AY221061GF107991031041004501011001KA1240N+02441MA1999999100161MD1999999+0221MW1021REMSYN088AAXX  14124 82392 21499 70504 10282 20227 30016 40118 70262 83410 333 20244 58022 60144;
0182823920999992013021418004-03700-040350FM-12+008399999V0202301N001010450019N0500001N1+02461+02171100901ADDAA106031091AY161061AY261061GF108991031071004501021999MA1999999099871MD1999999+0331MW1021REMSYN082AAXX  14184 82392 21499 82302 10246 20217 39987 40090 70266 8372/ 333 58033 60311;
0168823920999992013021500004-03700-040350FM-12+008399999V0200501N001010450019N0040001N1+02601+02331101081ADDGF106991031041004501031001KA1240M+02961MA1999999100601MD1999999+0121REMSYN088AAXX  15004 82392 32496 60502 10260 20233 30060 40108 83430 333 10296 29082 55033 58012;
0173823920999992013021512004-03700-040350FM-12+008399999V0209999C000010042019N0500001N1+02531+02401101231ADDAA124031091GF107991061061004501031001KA1240N+02371MA1999999100211MD1999999+0051REMSYN082AAXX  15124 82392 22499 70500 10253 20240 30021 40123 86630 333 20237 58005 60314;
0182823920999992013021518004-03700-040350FM-12+008399999V0200501N001510450019N0500001N1+02771+02181100921ADDAA106000591AY161061AY211061GF108991041061004501011999MA1999999099901MD1999999+0031MW1021REMSYN082AAXX  15184 82392 21499 80503 10277 20218 39990 40092 70261 8461/ 333 58003 69941;
0168823920999992013021600004-03700-040350FM-12+008399999V0200501N000510450019N0040001N1+02521+02271101111ADDGF106991021061004501011001KA1240M+03041MA1999999100081MD1999999+0221REMSYN088AAXX  16004 82392 32496 60501 10252 20227 30008 40111 82610 333 10304 29084 55022 58022;
0173823920999992013021612004-03700-040350FM-12+008399999V0209999C000010450019N0500001N1+02611+02371101081ADDAA124000591GF106991031021004501011011KA1240N+02331MA1999999100061MD1999999-0151REMSYN082AAXX  16124 82392 22499 60900 10261 20237 30006 40108 83211 333 20233 59015 69944;
0201823920999992013021712004-03700-040350FM-12+008399999V0203601N000510450019N0500001N1+02671+02411101181ADDAA124004191AY151061AY221061GF106991041021004501031001KA1240N+02371MA1999999100161MD1999999+0101MW1211REMSYN088AAXX  17124 82392 21499 63601 10267 20241 30016 40118 72152 84230 333 20237 58010 60044;
0182823920999992013021718004-03700-040350FM-12+008399999V0200501N000510450019N0500001N1+02391+02311100911ADDAA106029091AY161061AY211061GF107991041061004501021001MA1999999099881MD1999999+0231MW1511REMSYN082AAXX  17184 82392 21499 70501 10239 20231 39988 40091 75161 84620 333 58023 60291;
0168823920999992013021800004-03700-040350FM-12+008399999V0209999C000010450019N0040001N1+02421+02351101111ADDGF108991011011004501011999KA1240M+02901MA1999999100091MD1999999+0081REMSYN088AAXX  18004 82392 32496 80000 10242 20235 30009 40111 8111/ 333 10290 29029 55024 58008;
0173823920999992013021812004-03700-040350FM-12+008399999V0203201N001012200019N0500001N1+02601+02331101161ADDAA124029091GF104991041011004501001001KA1240N+02161MA1999999100131MD1999999-0031REMSYN082AAXX  18124 82392 22499 43202 10260 20233 30013 40116 84100 333 20216 59003 60294;
0182823920999992013021818004-03700-040350FM-12+008399999V0200501N003112200019N0500001N1+02721+02451100751ADDAA106003091AY161061AY221061GF104991031051004501031001MA1999999099721MD1999999-0161MW1031REMSYN082AAXX  18184 82392 21499 40506 10272 20245 39972 40075 70362 83530 333 59016 60031;
0213823920999992013021900004-03700-040350FM-12+008399999V0201801N000510450019N0040001N1+02381+02091101081ADDAA106019191AY161061AY261061GF108991041071004501021999KA1240M+03161MA1999999100051MD1999999-0041MW1021REMSYN100AAXX  19004 82392 21496 81801 10238 20209 30005 40108 70266 8472/ 333 10316 29084 55059 59004 60191;
0201823920999992013021912004-03700-040350FM-12+008399999V0200901N000510450019N0500001N1+02731+02401101071ADDAA124023191AY151061AY211061GF106991041021004501031001KA1240N+02241MA1999999100051MD1999999-0081MW1021REMSYN088AAXX  19124 82392 21499 60901 10273 20240 30005 40107 70251 84230 333 20224 59008 60234;
0182823920999992013021918004-03700-040350FM-12+008399999V0203601N001010042019N0500001N1+02361+02331100791ADDAA106011991AY161061AY211061GF107991051061004501011011MA1999999099761MD1999999+0041MW1511REMSYN082AAXX  19184 82392 21499 73602 10236 20233 39976 40079 75161 85611 333 58004 60121;
0213823920999992013022000004-03700-040350FM-12+008399999V0209999C000010450019N0040001N1+02411+02331101051ADDAA106000591AY151061AY211061GF108991011011004501011999KA1240M+03181MA1999999100031MD1999999-0021MW1021REMSYN100AAXX  20004 82392 21496 80000 10241 20233 30003 40105 70251 8111/ 333 10318 29093 55054 59002 69941;
0173823920999992013022012004-03700-040350FM-12+008399999V0200501N001012200019N0500001N1+02781+02561101221ADDAA124013091GF103991031011004501001001KA1240N+02241MA1999999100001MD1999999-0051REMSYN082AAXX  20124 82392 22499 30502 10278 20256 30000 40122 83100 333 20224 59005 60134;
0137823920999992013022018004-03700-040350FM-12+008399999V0200501N003112200019N0500001N1+03541+02131100571ADDGF102991021011004501001001MA1999999099561MD1999999-0201REMSYN070AAXX  20184 82392 32499 20506 10354 20213 39956 40057 82100 333 59020;
0168823920999992013022100004-03700-040350FM-12+008399999V0200501N004112200019N0040001N1+02761+02231100871ADDGF104991021011004501031001KA1240M+03301MA1999999099851MD1999999-0181REMSYN088AAXX  21004 82392 32496 40508 10276 20223 39985 40087 82130 333 10330 29067 55099 59018;
0156823920999992013022112004-03700-040350FM-12+008399999V0200901N000510450019N0500001N1+02811+02271101021ADDGF106991041021004501031001KA1240N+02311MA1999999099991MD1999999-0011REMSYN076AAXX  21124 82392 32499 60901 10281 20227 39999 40102 84230 333 20231 59001;
0137823920999992013022118004-03700-040350FM-12+008399999V0200901N001012200019N0500001N1+03331+02021100531ADDGF106991031021004501001011MA1999999099531MD1999999-0031REMSYN070AAXX  21184 82392 32499 60902 10333 20202 39953 40053 83201 333 59003;
0168823920999992013022200004-03700-040350FM-12+008399999V0203601N001010450019N0040001N1+02711+01931100921ADDGF106991021011004501011011KA1240M+03421MA1999999099901MD1999999+0051REMSYN088AAXX  22004 82392 32496 63602 10271 20193 39990 40092 82111 333 10342 29061 55089 58005;
0156823920999992013022212004-03700-040350FM-12+008399999V0200501N000512200019N0500001N1+02661+02141101061ADDGF104991021011004501031001KA1240N+02101MA1999999100041MD1999999+0051REMSYN076AAXX  22124 82392 32499 40501 10266 20214 30004 40106 82130 333 20210 58005;
0137823920999992013022218004-03700-040350FM-12+008399999V0200501N002112200019N0500001N1+03421+02131100601ADDGF103991021011004501001011MA1999999099601MD1999999+0071REMSYN070AAXX  22184 82392 32499 30504 10342 20213 39960 40060 82101 333 58007;
0168823920999992013022300004-03700-040350FM-12+008399999V0200501N002112200019N0040001N1+02781+02301100971ADDGF101991011001008001001011KA1240M+03481MA1999999099951MD1999999+0051REMSYN088AAXX  23004 82392 32596 10504 10278 20230 39995 40097 81001 333 10348 29068 55081 58005;
0156823920999992013022312004-03700-040350FM-12+008399999V0203201N000512200019N0500001N1+02721+02151101151ADDGF103991031011004501001001KA1240N+02181MA1999999100131MD1999999+0091REMSYN076AAXX  23124 82392 32499 33201 10272 20215 30013 40115 83100 333 20218 58009;
0137823920999992013022318004-03700-040350FM-12+008399999V0200501N003112200019N0500001N1+03441+01921100601ADDGF101991011011004501001001MA1999999099601MD1999999+0001REMSYN070AAXX  23184 82392 32499 10506 10344 20192 39960 40060 81100 333 58000;
0168823920999992013022400004-03700-040350FM-12+008399999V0200501N002112200019N0040001N1+02761+02221100821ADDGF101991011011004501001001KA1240M+03481MA1999999099801MD1999999-0151REMSYN088AAXX  24004 82392 32496 10504 10276 20222 39980 40082 81100 333 10348 29064 55102 59015;
0156823920999992013022412004-03700-040350FM-12+008399999V0200901N002110450019N0500001N1+02801+02271101081ADDGF106991031041004501031001KA1240N+02301MA1999999100061MD1999999-0071REMSYN076AAXX  24124 82392 32499 60904 10280 20227 30006 40108 83430 333 20230 59007;
0156823920999992013022418004-03700-040350FM-12+008399999V0200501N002112200019N0500001N1+03401+02001100561ADDGF101991999011004501001001MA1999999099561MD1999999-0041REMSYN070AAXX  24184 82392 32499 10504 10340 20200 39956 40056 83100 333 59004;EQDQ01+000032SCOTLC
0178823920999992013022500004-03700-040350FM-12+008399999V0200501N001012200019N0040001N1+02701+02151100881ADDGA1001+999999999GF100991001001999999001001KA1240M+03451MA1999999099861MD1999999+0061REMSYN082AAXX  25004 82392 32996 00502 10270 20215 39986 40088 333 10345 29064 55106 58006;
0156823920999992013022512004-03700-040350FM-12+008399999V0200901N001012200019N0500001N1+02791+02131101101ADDGF105991041021004501001011KA1240N+02181MA1999999100081MD1999999+0021REMSYN076AAXX  25124 82392 32499 50902 10279 20213 30008 40110 84201 333 20218 58002;
0137823920999992013022518004-03700-040350FM-12+008399999V0200501N001012200019N0500001N1+03471+02111100561ADDGF104991011011004501001021MA1999999099561MD1999999+0001REMSYN070AAXX  25184 82392 32499 40502 10347 20211 39956 40056 81102 333 58000;
0168823920999992013022600004-03700-040350FM-12+008399999V0203601N000512200019N0040001N1+02731+01971100851ADDGF103991011011004501001021KA1240M+03501MA1999999099831MD1999999-0031REMSYN088AAXX  26004 82392 32496 33601 10273 20197 39983 40085 81102 333 10350 29060 55109 59003;
0156823920999992013022612004-03700-040350FM-12+008399999V0200901N001012200019N0500001N1+02801+02201101161ADDGF102991021011004501001001KA1240N+02181MA1999999100141MD1999999+0061REMSYN076AAXX  26124 82392 32499 20902 10280 20220 30014 40116 82100 333 20218 58006;
0137823920999992013022618004-03700-040350FM-12+008399999V0200501N001012200019N0500001N1+03481+02071100671ADDGF104991021011004501031001MA1999999099661MD1999999+0101REMSYN070AAXX  26184 82392 32499 40502 10348 20207 39966 40067 82130 333 58010;
0168823920999992013022700004-03700-040350FM-12+008399999V0200501N003110450019N0040001N1+02921+02151101041ADDGF106991031041004501031001KA1240M+03541MA1999999100031MD1999999+0201REMSYN088AAXX  27004 82392 32496 60506 10292 20215 30003 40104 83430 333 10354 29060 55104 58020;
0156823920999992013022712004-03700-040350FM-12+008399999V0200901N000510450019N0500001N1+02901+02271101191ADDGF106991041021004501011001KA1240N+02461MA1999999100181MD1999999+0041REMSYN076AAXX  27124 82392 32499 60901 10290 20227 30018 40119 84210 333 20246 58004;
0137823920999992013022718004-03700-040350FM-12+008399999V0203601N004110450019N0500001N1+03381+02321100781ADDGF106991031021004501011011MA1999999099771MD1999999+0111REMSYN070AAXX  27184 82392 32499 63608 10338 20232 39977 40078 83211 333 58011;
0178823920999992013022800004-03700-040350FM-12+008399999V0203601N001012200019N0040001N1+02711+02151100991ADDGA1001+999999999GF100991001001999999001001KA1240M+03401MA1999999099971MD1999999-0061REMSYN082AAXX  28004 82392 32996 03602 10271 20215 39997 40099 333 10340 29066 55092 59006;
0156823920999992013022812004-03700-040350FM-12+008399999V0200901N004112200019N0500001N1+02881+02251101071ADDGF102991021011004501001001KA1240N+02301MA1999999100051MD1999999-0131REMSYN076AAXX  28124 82392 32499 20908 10288 20225 30005 40107 82100 333 20230 59013;
0137823920999992013022818004-03700-040350FM-12+008399999V0200501N005112200019N0500001N1+03521+01991100601ADDGF102991021011004501001001MA1999999099601MD1999999-0171REMSYN070AAXX  28184 82392 32499 20510 10352 20199 39960 40060 82100 333 59017;
0178823920999992013030100004-03700-040350FM-12+008399999V0200501N003112200019N0040001N1+02801+02251100911ADDGA1001+999999999GF100991001001999999001001KA1240M+03581MA1999999099891MD1999999+0081REMSYN082AAXX  01004 82392 32996 00506 10280 20225 39989 40091 333 10358 29064 55102 58008;
0156823920999992013030112004-03700-040350FM-12+008399999V0200501N001010042019N0500001N1+02881+02131101011ADDGF105991051021004501001001KA1240N+02301MA1999999099991MD1999999-0061REMSYN076AAXX  01124 82392 32499 50502 10288 20213 39999 40101 85200 333 20230 59006;
0156823920999992013030118004-03700-040350FM-12+008399999V0200501N001512200019N0500001N1+03501+01981100531ADDGF104991999021004501001001MA1999999099531MD1999999-0071REMSYN070AAXX  01184 82392 32499 40503 10350 20198 39953 40053 83200 333 59007;EQDQ01+000032SCOTLC
0178823920999992013030200004-03700-040350FM-12+008399999V0203601N002112200019N0040001N1+02811+02001100771ADDGA1001+999999999GF100991001001999999001001KA1240M+03541MA1999999099761MD1999999-0131REMSYN082AAXX  02004 82392 32996 03604 10281 20200 39976 40077 333 10354 29057 55119 59013;
0156823920999992013030212004-03700-040350FM-12+008399999V0200901N001010042019N0500001N1+02971+02151100961ADDGF106991061021004501001001KA1240N+02361MA1999999099951MD1999999-0041REMSYN076AAXX  02124 82392 32499 60902 10297 20215 39995 40096 86200 333 20236 59004;
0137823920999992013030218004-03700-040350FM-12+008399999V0200901N001510450019N0500001N1+03591+02141100511ADDGF106991041021004501011001MA1999999099511MD1999999-0021REMSYN070AAXX  02184 82392 32499 60903 10359 20214 39951 40051 84210 333 59002;
0168823920999992013030300004-03700-040350FM-12+008399999V0203601N002112200019N0040001N1+02841+02191100941ADDGF104991041001008001011001KA1240M+03641MA1999999099931MD1999999+0171REMSYN088AAXX  03004 82392 32596 43604 10284 20219 39993 40094 84010 333 10364 29060 55105 58017;
0156823920999992013030312004-03700-040350FM-12+008399999V0200901N000510450019N0500001N1+02891+02171101131ADDGF105991011011004501011001KA1240N+02251MA1999999100121MD1999999+0171REMSYN076AAXX  03124 82392 32499 50901 10289 20217 30012 40113 81110 333 20225 58017;
0156823920999992013030318004-03700-040350FM-12+008399999V0200901N001019999999N0500001N1+03581+01841100621ADDGF105991999021004501001001MA1999999099621MD1999999+0091REMSYN070AAXX  03184 82392 32499 50902 10358 20184 39962 40062 83200 333 58009;EQDQ01+000032SCOTLC
0178823920999992013030400004-03700-040350FM-12+008399999V0203601N000512200019N0040001N1+02861+02141101001ADDGA1001+999999999GF100991001001999999001001KA1240M+03651MA1999999099991MD1999999+0061REMSYN082AAXX  04004 82392 32996 03601 10286 20214 39999 40100 333 10365 29058 55095 58006;
0156823920999992013030412004-03700-040350FM-12+008399999V0200901N002112200019N0500001N1+02781+01981101211ADDGF104991021011004501031001KA1240N+02401MA1999999100191MD1999999+0071REMSYN076AAXX  04124 82392 32499 40904 10278 20198 30019 40121 82130 333 20240 58007;
0137823920999992013030418004-03700-040350FM-12+008399999V0200501N004112200019N0500001N1+03581+02011100701ADDGF104991021011004501031001MA1999999099691MD1999999+0071REMSYN070AAXX  04184 82392 32499 40508 10358 20201 39969 40070 82130 333 58007;
0178823920999992013030500004-03700-040350FM-12+008399999V0200501N001012200019N0040001N1+02801+02251101021ADDGA1001+999999999GF100991001001999999001001KA1240M+03641MA1999999100001MD1999999+0011REMSYN082AAXX  05004 82392 32996 00502 10280 20225 30000 40102 333 10364 29062 55089 58001;
0156823920999992013030512004-03700-040350FM-12+008399999V0200901N002112200019N0500001N1+02981+02231101131ADDGF105991031021004501001011KA1240N+02241MA1999999100121MD1999999-0071REMSYN076AAXX  05124 82392 32499 50904 10298 20223 30012 40113 83201 333 20224 59007;
0137823920999992013030518004-03700-040350FM-12+008399999V0203601N002612200019N0500001N1+03641+02021100601ADDGF105991031021004501001011MA1999999099631MD1999999-0091REMSYN070AAXX  05184 82392 32499 53605 10364 20202 39963 40060 83201 333 59009;
0156823920999992013030612004-03700-040350FM-12+008399999V0200901N002112200019N0500001N1+02981+02201101161ADDGF102991021011004501001001KA1240N+02481MA1999999100151MD1999999+0031REMSYN076AAXX  06124 82392 32499 20904 10298 20220 30015 40116 82100 333 20248 58003;
0137823920999992013030618004-03700-040350FM-12+008399999V0200901N003112200019N0500001N1+03721+01921100671ADDGF102991021011004501001001MA1999999099661MD1999999+0061REMSYN070AAXX  06184 82392 32499 20906 10372 20192 39966 40067 82100 333 58006;
0168823920999992013030700004-03700-040350FM-12+008399999V0200501N002119999999N0040001N1+02841+02221101071ADDGF106991031041999999031001KA1240M+03771MA1999999100061MD1999999+0101REMSYN088AAXX  07004 82392 32996 60504 10284 20222 30006 40107 83430 333 10377 29059 55086 58010;
0110823920999992013030712004-03700-040350FM-12+008399999V0200901N001519999999N0500001N1+02961+02131999999ADDGF106991999999004501999999REMSYN072AAXX  07124 82392 32499 60903 10296 20213 20241 30024 40125 58009 84210;
0137823920999992013030718004-03700-040350FM-12+008399999V0200901N001510450019N0500001N1+03521+01831100871ADDGF106991021021004501031001MA1999999099861MD1999999+0201REMSYN070AAXX  07184 82392 32499 60903 10352 20183 39986 40087 82230 333 58020;
0178823920999992013030800004-03700-040350FM-12+008399999V0203601N001012200019N0040001N1+02701+02151101181ADDGA1001+999999999GF100991001001999999001001KA1240M+03601MA1999999100161MD1999999+0101REMSYN082AAXX  08004 82392 32996 03602 10270 20215 30016 40118 333 10360 29061 55081 58010;
0156823920999992013030812004-03700-040350FM-12+008399999V0200901N003110450019N0500001N1+02961+02131101421ADDGF105991031021004501031001KA1240N+02401MA1999999100401MD1999999+0161REMSYN076AAXX  08124 82392 32499 50906 10296 20213 30040 40142 83230 333 20240 58016;
0137823920999992013030818004-03700-040350FM-12+008399999V0201801N001010450019N0500001N1+03481+01021100911ADDGF107991021011004501011001MA1999999099901MD1999999+0041REMSYN070AAXX  08184 82392 32499 71802 10348 20102 39990 40091 82110 333 58004;
0168823920999992013030900004-03700-040350FM-12+008399999V0200501N003112200019N0040001N1+02821+02221101151ADDGF104991041011004501001001KA1240M+03541MA1999999100141MD1999999-0021REMSYN088AAXX  09004 82392 32496 40506 10282 20222 30014 40115 84100 333 10354 29060 55068 59002;
0156823920999992013030912004-03700-040350FM-12+008399999V0201801N001012200019N0500001N1+02901+02171101291ADDGF104991021021004501031001KA1240N+02301MA1999999100981MD1999999-0121REMSYN076AAXX  09124 82392 32499 41802 10290 20217 30098 40129 82230 333 20230 59012;
0156823920999992013030918004-03700-040350FM-12+008399999V0201801N000510450019N0500001N1+03201+02241100871ADDGF108991041051004501021999MA1999999099862MD1999999-0041REMSYN070AAXX  09184 82392 32499 81801 10320 20224 39986 40087 8452/ 333 59004;EQDQ01+099863APOSP 
0168823920999992013031000004-03700-040350FM-12+008399999V0203601N001510450019N0020001N1+02681+02391101221ADDGF106991041041008001031001KA1240M+03381MA1999999100201MD1999999+0061REMSYN088AAXX  10004 82392 32595 63603 10268 20239 30020 40122 84430 333 10338 29072 55043 58006;
0156823920999992013031012004-03700-040350FM-12+008399999V0203601N001510450019N0500001N1+02861+02351101271ADDGF106991031041004501031001KA1240N+02321MA1999999100251MD1999999-0031REMSYN076AAXX  10124 82392 32499 63603 10286 20235 30025 40127 83430 333 20232 59003;
0137823920999992013031018004-03700-040350FM-12+008399999V0200501N004110450019N0500001N1+03341+02461100691ADDGF107991031051004501031001MA1999999099681MD1999999-0181REMSYN070AAXX  10184 82392 32499 70508 10334 20246 39968 40069 83530 333 59018;
0168823920999992013031100004-03700-040350FM-12+008399999V0200501N002112200019N0040001N1+02721+02191101021ADDGF103991031011004501001001KA1240M+03661MA1999999100001MD1999999-0201REMSYN088AAXX  11004 82392 32496 30504 10272 20219 30000 40102 83100 333 10366 29070 55058 59020;
0156823920999992013031112004-03700-040350FM-12+008399999V0200501N001510042019N0500001N1+02941+02261101101ADDGF106991051021004501001011KA1240N+02361MA1999999100081MD1999999-0171REMSYN076AAXX  11124 82392 32499 60503 10294 20226 30008 40110 85201 333 20236 59017;
0137823920999992013031118004-03700-040350FM-12+008399999V0200501N003112200019N0500001N1+03721+01961100451ADDGF104991031011004501001011MA1999999099461MD1999999-0221REMSYN070AAXX  11184 82392 32499 40506 10372 20196 39946 40045 83101 333 59022;
0178823920999992013031200004-03700-040350FM-12+008399999V0203601N001512200019N0040001N1+02781+02181100841ADDGA1001+999999999GF100991001001999999001001KA1240M+03801MA1999999099831MD1999999-0171REMSYN082AAXX  12004 82392 32996 03603 10278 20218 39983 40084 333 10380 29061 55103 59017;
0156823920999992013031212004-03700-040350FM-12+008399999V0200501N003112200019N0500001N1+02901+02041101061ADDGF104991021011008001031001KA1240N+02401MA1999999100041MD1999999-0041REMSYN076AAXX  12124 82392 32599 40506 10290 20204 30004 40106 82130 333 20240 59004;
0137823920999992013031218004-03700-040350FM-12+008399999V0200501N004112200019N0500001N1+03681+01791100541ADDGF102991021011004501001001MA1999999099541MD1999999+0081REMSYN070AAXX  12184 82392 32499 20508 10368 20179 39954 40054 82100 333 58008;
0178823920999992013031300004-03700-040350FM-12+008399999V0203601N004112200019N0040001N1+02801+02081100841ADDGA1001+999999999GF100991001001999999001001KA1240M+03771MA1999999099831MD1999999+0001REMSYN082AAXX  13004 82392 32996 03608 10280 20208 39983 40084 333 10377 29056 55100 58000;
0156823920999992013031312004-03700-040350FM-12+008399999V0200901N001510042019N0500001N1+03081+02191101061ADDGF106991051021004501011001KA1240N+02441MA1999999100051MD1999999+0011REMSYN076AAXX  13124 82392 32499 60903 10308 20219 30005 40106 85210 333 20244 58001;
0137823920999992013031318004-03700-040350FM-12+008399999V0200901N001010042019N0500001N1+03611+02121100521ADDGF106991051021004501011001MA1999999099521MD1999999-0021REMSYN070AAXX  13184 82392 32499 60902 10361 20212 39952 40052 85210 333 59002;
0175823920999992013031412004-03700-040350FM-12+008399999V0200901N002119999999N0500001N1+03041+02201101031ADDGF106991999021004501001001KA1240N+02571MA1999999100021MD1999999-0031REMSYN076AAXX  14124 82392 32499 60904 10304 20220 30002 40103 83200 333 20257 59003;EQDQ01+000032SCOTLC
0137823920999992013031418004-03700-040350FM-12+008399999V0200901N001010450019N0500001N1+03621+01741100501ADDGF106991031021004501031001MA1999999099501MD1999999-0021REMSYN070AAXX  14184 82392 32499 60902 10362 20174 39950 40050 83230 333 59002;
0178823920999992013031500004-03700-040350FM-12+008399999V0200501N004112200019N0040001N1+02801+02251100831ADDGA1001+999999999GF100991001001999999001001KA1240M+03781MA1999999099821MD1999999-0031REMSYN082AAXX  15004 82392 32996 00508 10280 20225 39982 40083 333 10378 29060 55086 59003;
0156823920999992013031512004-03700-040350FM-12+008399999V0200901N001010042019N0500001N1+02951+02181101011ADDGF107991061061004501031001KA1240N+02521MA1999999100001MD1999999-0021REMSYN076AAXX  15124 82392 32499 70902 10295 20218 30000 40101 86630 333 20252 59002;
0178823920999992013031600004-03700-040350FM-12+008399999V0203601N001012200019N0040001N1+02761+02141100771ADDGA1001+999999999GF100991001001999999001001KA1240M+03741MA1999999099761MD1999999-0061REMSYN082AAXX  16004 82392 32596 03602 10276 20214 39976 40077 333 10374 29060 55061 59006;
0156823920999992013031612004-03700-040350FM-12+008399999V0200901N001510450019N0500001N1+03001+02271101061ADDGF106991041021004501031001KA1240N+02231MA1999999100051MD1999999+0051REMSYN076AAXX  16124 82392 32499 60903 10300 20227 30005 40106 84230 333 20223 58005;
0137823920999992013031618004-03700-040350FM-12+008399999V0203601N002610042019N0500001N1+03161+02121100721ADDGF107991051061004501031001MA1999999099701MD1999999+0231REMSYN070AAXX  16184 82392 32499 73605 10316 20212 39970 40072 85630 333 58023;
0168823920999992013031700004-03700-040350FM-12+008399999V0203601N002110450019N0040001N1+02731+02211100971ADDGF106991031021004501031001KA1240M+03501MA1999999099961MD1999999+0201REMSYN088AAXX  17004 82392 32496 63604 10273 20221 39996 40097 83230 333 10350 29066 55051 58020;
0156823920999992013031712004-03700-040350FM-12+008399999V0200901N000510450019N0500001N1+02981+02281101161ADDGF106991031021004501031011KA1240N+02321MA1999999100151MD1999999+0101REMSYN076AAXX  17124 82392 32499 60901 10298 20228 30015 40116 83231 333 20232 58010;
0137823920999992013031718004-03700-040350FM-12+008399999V0203601N000510450019N0500001N1+03561+01991100631ADDGF106991041021004501031001MA1999999099631MD1999999-0071REMSYN070AAXX  17184 82392 32499 63601 10356 20199 39963 40063 84230 333 59007;
0168823920999992013031800004-03700-040350FM-12+008399999V0203601N002110450019N0040001N1+02821+02201100941ADDGF107991021021004501011001KA1240M+03691MA1999999099931MD1999999-0031REMSYN088AAXX  18004 82392 32496 73604 10282 20220 39993 40094 82210 333 10369 29061 55082 59003;
0156823920999992013031812004-03700-040350FM-12+008399999V0201801N000512200019N0500001N1+02861+02091101061ADDGF104991041011004501001001KA1240N+02531MA1999999100041MD1999999-0111REMSYN076AAXX  18124 82392 32499 41801 10286 20209 30004 40106 84100 333 20253 59011;
0201823920999992013031818004-03700-040350FM-12+008399999V0203201N002119999999N0500001N1+02821+02221100601ADDAA106002091AY161061AY221061GF107991999021004501001001MA1999999099591MD1999999-0041MW1021REMSYN082AAXX  18184 82392 21499 73204 10282 20222 39959 40060 70262 83200 333 59004 60021;EQDQ01+000032SCOTLC
0168823920999992013031900004-03700-040350FM-12+008399999V0200501N003110450019N0040001N1+02701+02221100971ADDGF107991031041004501031001KA1240M+03601MA1999999099951MD1999999+0021REMSYN088AAXX  19004 82392 32496 70506 10270 20222 39995 40097 83430 333 10360 29071 55051 58002;
0173823920999992013031912004-03700-040350FM-12+008399999V0203601N001010450019N0500001N1+02801+02341100991ADDAA124002091GF106991041021004501031001KA1240N+02391MA1999999099971MD1999999-0071REMSYN082AAXX  19124 82392 22499 63602 10280 20234 39997 40099 84230 333 20239 59007 60024;
0182823920999992013031918004-03700-040350FM-12+008399999V0203601N000510042019N0200001N1+02391+02311100721ADDAA106013091AY161061AY211061GF107991051061004501031001MA1999999099691MD1999999+0101MW1291REMSYN082AAXX  19184 82392 21498 73601 10239 20231 39969 40072 72961 85630 333 58010 60131;
0213823920999992013032000004-03700-040350FM-12+008399999V0209999C000010450019N0020001N1+02381+02311100931ADDAA106006191AY161061AY211061GF108991031021004501011001KA1240M+03291MA1999999099911MD1999999-0041MW1021REMSYN100AAXX  20004 82392 21495 80000 10238 20231 39991 40093 70261 83210 333 10329 29091 55017 59004 60061;
0173823920999992013032012004-03700-040350FM-12+008399999V0200901N003112200019N0500001N1+02861+02121101111ADDAA124019191GF103991031021004501001001KA1240N+02231MA1999999100091MD1999999+0121REMSYN082AAXX  20124 82392 22499 30906 10286 20212 30009 40111 83200 333 20223 58012 60194;
0156823920999992013032018004-03700-040350FM-12+008399999V0200901N000519999999N0500001N1+03301+01951100641ADDGF107991999021004501001001MA1999999099641MD1999999-0051REMSYN070AAXX  20184 82392 32499 70901 10330 20195 39964 40064 83200 333 59005;EQDQ01+000032SCOTLC
0168823920999992013032100004-03700-040350FM-12+008399999V0200501N001012200019N0040001N1+02641+02141101021ADDGF104991021011004501031001KA1240M+03401MA1999999100001MD1999999+0091REMSYN088AAXX  21004 82392 32496 40502 10264 20214 30000 40102 82130 333 10340 29064 55078 58009;
0175823920999992013032112004-03700-040350FM-12+008399999V0200901N000519999999N0500001N1+02811+02291101191ADDGF106991999021004501001001KA1240N+02201MA1999999100171MD1999999+0081REMSYN076AAXX  21124 82392 32499 60901 10281 20229 30017 40119 83200 333 20220 58008;EQDQ01+000032SCOTLC
0182823920999992013032118004-03700-040350FM-12+008399999V0203601N001012200019N0500001N1+03081+02271100771ADDAA106000021AY101061AY221061GF105991041021004501001011MA1999999099751MD1999999+0111MW1201REMSYN082AAXX  21184 82392 21499 53602 10308 20227 39975 40077 72002 84201 333 58011 69911;
0168823920999992013032200004-03700-040350FM-12+008399999V0203601N001012200019N0040001N1+02721+02081101101ADDGF103991021021004501011001KA1240M+03401MA1999999100081MD1999999+0081REMSYN088AAXX  22004 82392 32496 33602 10272 20208 30008 40110 82210 333 10340 29068 55086 58008;
0173823920999992013032212004-03700-040350FM-12+008399999V0201401N002112200019N0500001N1+02961+02021101291ADDAA124000021GF104991031011004501031001KA1240N+02401MA1999999100271MD1999999+0101REMSYN082AAXX  22124 82392 22499 41404 10296 20202 30027 40129 83130 333 20240 58010 69914;
0137823920999992013032218004-03700-040350FM-12+008399999V0203601N004112200019N0500001N1+03501+01901100761ADDGF102991021021004501001001MA1999999099751MD1999999+0001REMSYN070AAXX  22184 82392 32499 23608 10350 20190 39975 40076 82200 333 58000;
0178823920999992013032300004-03700-040350FM-12+008399999V0200501N003112200019N0040001N1+02721+02151101041ADDGA1001+999999999GF100991001001999999001001KA1240M+03601MA1999999100021MD1999999-0061REMSYN082AAXX  23004 82392 32996 00506 10272 20215 30002 40104 333 10360 29060 55102 59006;
0156823920999992013032312004-03700-040350FM-12+008399999V0200501N002110450019N0500001N1+02761+02141101111ADDGF107991031051004501011001KA1240N+02501MA1999999100091MD1999999-0181REMSYN076AAXX  23124 82392 32499 70504 10276 20214 30009 40111 83510 333 20250 59018;
0182823920999992013032318004-03700-040350FM-12+008399999V0200901N000510450019N0500001N1+02781+02161100741ADDAA106003091AY161061AY221061GF108991041051004501011999MA1999999099721MD1999999-0031MW1021REMSYN082AAXX  23184 82392 21499 80901 10278 20216 39972 40074 70262 8451/ 333 59003 60031;
0168823920999992013032400004-03700-040350FM-12+008399999V0200501N000510450019N0040001N1+02601+02031100921ADDGF105991031041004501031001KA1240M+03261MA1999999099901MD1999999-0121REMSYN088AAXX  24004 82392 32496 50501 10260 20203 39990 40092 83430 333 10326 29070 55024 59012;
0173823920999992013032412004-03700-040350FM-12+008399999V0203601N001012200019N0500001N1+02921+02091101021ADDAA124003091GF104991041021004501001001KA1240N+02341MA1999999100001MD1999999-0091REMSYN082AAXX  24124 82392 22499 43602 10292 20209 30000 40102 84200 333 20234 59009 60034;
0137823920999992013032418004-03700-040350FM-12+008399999V0203601N002110450019N0500001N1+03161+02081100541ADDGF106991031041004501031001MA1999999099531MD1999999-0191REMSYN070AAXX  24184 82392 32499 63604 10316 20208 39953 40054 83430 333 59019;
0213823920999992013032500004-03700-040350FM-12+008399999V0202701N000510450019N0040001N1+02341+01811100941ADDAA106068191AY161061AY221061GF108991031061004501021999KA1240M+03281MA1999999099921MD1999999+0021MW1021REMSYN100AAXX  25004 82392 21496 82701 10234 20181 39992 40094 70262 8362/ 333 10328 29064 55074 58002 60681;
0201823920999992013032512004-03700-040350FM-12+008399999V0209999C000010450019N0500001N1+02661+02391101181ADDAA124069191AY101061AY221061GF107991041021004501031001KA1240N+02181MA1999999100151MD1999999+0151MW1201REMSYN088AAXX  25124 82392 21499 73600 10266 20239 30015 40118 72002 84230 333 20218 58015 60694;
0156823920999992013032518004-03700-040350FM-12+008399999V0203601N001519999999N0500001N1+03001+02321100741ADDGF106991999021004501001001MA1999999099721MD1999999+0191REMSYN070AAXX  25184 82392 32499 63603 10300 20232 39972 40074 83200 333 58019;EQDQ01+000032SCOTLC
0168823920999992013032600004-03700-040350FM-12+008399999V0209999C000012200019N0040001N1+02561+02401101191ADDGF103991011021004501011011KA1240M+03231MA1999999100171MD1999999+0251REMSYN088AAXX  26004 82392 32496 30000 10256 20240 30017 40119 81211 333 10323 29084 55064 58025;
0156823920999992013032612004-03700-040350FM-12+008399999V0200501N001010450019N0500001N1+02701+02171101321ADDGF107991031021004501011001KA1240N+02401MA1999999100301MD1999999+0151REMSYN076AAXX  26124 82392 32499 70502 10270 20217 30030 40132 83210 333 20240 58015;
0137823920999992013032618004-03700-040350FM-12+008399999V0200501N002610450019N0500001N1+03281+02231100881ADDGF108991041041004501021999MA1999999099871MD1999999+0151REMSYN070AAXX  26184 82392 32499 80505 10328 20223 39987 40088 8442/ 333 58015;
0213823920999992013032700004-03700-040350FM-12+008399999V0203601N002112200019N0040001N1+02521+02051101161ADDAA106004191AY161061AY221061GF104991011011004501031001KA1240M+03321MA1999999100141MD1999999-0031MW1031REMSYN100AAXX  27004 82392 21496 43604 10252 20205 30014 40116 70362 81130 333 10332 29069 55073 59003 60041;
0173823920999992013032712004-03700-040350FM-12+008399999V0202301N000510450019N0500001N1+02661+02371101321ADDAA124004191GF106991041061004501031001KA1240N+02251MA1999999100301MD1999999+0001REMSYN082AAXX  27124 82392 22499 62301 10266 20237 30030 40132 84630 333 20225 58000 60044;
0137823920999992013032718004-03700-040350FM-12+008399999V0203601N003110450019N0500001N1+02831+02421100911ADDGF106991041061004501031001MA1999999099891MD1999999+0021REMSYN070AAXX  27184 82392 32499 63606 10283 20242 39989 40091 84630 333 58002;
0168823920999992013032800004-03700-040350FM-12+008399999V0200501N000512200019N0040001N1+02541+02291101141ADDGF103991011021004501031001KA1240M+03121MA1999999100121MD1999999-0021REMSYN088AAXX  28004 82392 32496 30501 10254 20229 30012 40114 81230 333 10312 29085 55060 59002;
0156823920999992013032812004-03700-040350FM-12+008399999V0200501N001512200019N0500001N1+02781+02161101181ADDGF103991031021004501001001KA1240N+02381MA1999999100161MD1999999-0141REMSYN076AAXX  28124 82392 32499 30503 10278 20216 30016 40118 83200 333 20238 59014;
0182823920999992013032818004-03700-040350FM-12+008399999V0203601N000512200019N0500001N1+02921+02321100811ADDAA106003091AY161061AY221061GF104991031031004501031001MA1999999099791MD1999999-0101MW1021REMSYN082AAXX  28184 82392 21499 43601 10292 20232 39979 40081 70262 83330 333 59010 60031;
0168823920999992013032900004-03700-040350FM-12+008399999V0200501N001012200019N0040001N1+02661+02141101021ADDGF102991021001004501031001KA1240M+03281MA1999999100001MD1999999-0121REMSYN088AAXX  29004 82392 32496 20502 10266 20214 30000 40102 82030 333 10328 29071 55071 59012;
0173823920999992013032912004-03700-040350FM-12+008399999V0200501N000510450019N0500001N1+02831+02421101161ADDAA124003091GF106991041041004501031001KA1240N+02401MA1999999100141MD1999999-0021REMSYN082AAXX  29124 82392 22499 60501 10283 20242 30014 40116 84430 333 20240 59002 60034;
0137823920999992013032918004-03700-040350FM-12+008399999V0203601N001010042019N0500001N1+02801+02381100761ADDGF107991061061004501001021MA1999999099741MD1999999-0051REMSYN070AAXX  29184 82392 32499 73602 10280 20238 39974 40076 86602 333 59005;
0201823920999992013033012004-03700-040350FM-12+008399999V0200501N000510042019N0500001N1+02841+02481101301ADDAA124009991AY151061AY211061GF105991051041004501001001KA1240N+02231MA1999999100281MD1999999+0141MW1021REMSYN088AAXX  30124 82392 21499 50501 10284 20248 30028 40130 70251 85400 333 20223 58014 60104;
0137823920999992013033018004-03700-040350FM-12+008399999V0203601N001010450019N0500001N1+03031+02411100881ADDGF106991031061004501011021MA1999999099861MD1999999+0121REMSYN070AAXX  30184 82392 32499 63602 10303 20241 39986 40088 83612 333 58012;
0156823920999992013033112004-03700-040350FM-12+008399999V0202301N001010450019N0500001N1+02761+02401101361ADDGF105991031021004501011001KA1240N+02241MA1999999100341MD1999999+0061REMSYN076AAXX  31124 82392 32499 52302 10276 20240 30034 40136 83210 333 20224 58006;
0182823920999992013033118004-03700-040350FM-12+008399999V0200501N000510042019N0500001N1+02571+02371101041ADDAA106009991AY161061AY211061GF107991051041004501031001MA1999999100011MD1999999+0151MW1021REMSYN082AAXX  31184 82392 21499 70501 10257 20237 30001 40104 70261 85430 333 58015 60101;
0168823920999992013040100004-03700-040350FM-12+008399999V0200501N001010450019N0040001N1+02631+02411101321ADDGF106991041041004501031001KA1240M+03181MA1999999100301MD1999999+0161REMSYN088AAXX  01004 82392 32496 60502 10263 20241 30030 40132 84430 333 10318 29086 55059 58016;
0201823920999992013040112004-03700-040350FM-12+008399999V0200501N003112200019N0010001N1+02781+02161101361ADDAA124021191AY161061AY261061GF104991041021004501001001KA1240N+02211MA1999999099341MD1999999+0001MW1021REMSYN088AAXX  01124 82392 21494 40506 10278 20216 39934 40136 70266 84200 333 20221 58000 60214;
0137823920999992013040118004-03700-040350FM-12+008399999V0200501N001012200019N0500001N1+03221+02201100961ADDGF104991021011004501031001MA1999999099951MD1999999-0061REMSYN070AAXX  01184 82392 32499 40502 10322 20220 39995 40096 82130 333 59006;
0168823920999992013040200004-03700-040350FM-12+008399999V0203601N003112200019N0040001N1+02681+02201101221ADDGF102991021001004501031001KA1240M+03321MA1999999100201MD1999999-0101REMSYN088AAXX  02004 82392 32496 23606 10268 20220 30020 40122 82030 333 10332 29068 55103 59010;
0156823920999992013040212004-03700-040350FM-12+008399999V0200901N000510450019N0500001N1+02831+02291101241ADDGF105991031021004501031001KA1240N+02301MA1999999100221MD1999999-0121REMSYN076AAXX  02124 82392 32499 50901 10283 20229 30022 40124 83230 333 20230 59012;
0156823920999992013040218004-03700-040350FM-12+008399999V0200501N001019999999N0500001N1+02891+02151100921ADDGF106991999021004501001001MA1999999099911MD1999999-0041REMSYN070AAXX  02184 82392 32499 60502 10289 20215 39991 40092 83200 333 59004;EQDQ01+000032SCOTLC
0156823920999992013040312004-03700-040350FM-12+008399999V0200501N001010450019N0500001N1+02761+02041101301ADDGF106991021021004501031001KA1240N+02301MA1999999100281MD1999999+0061REMSYN076AAXX  03124 82392 32499 60502 10276 20204 30028 40130 82230 333 20230 58006;
0137823920999992013040318004-03700-040350FM-12+008399999V0203601N000512200019N0500001N1+03241+02161100861ADDGF102991021011004501001001MA1999999099851MD1999999-0061REMSYN070AAXX  03184 82392 32499 23601 10324 20216 39985 40086 82100 333 59006;
0187823920999992013040400004-03700-040350FM-12+008399999V0200501N004112200019N0040001N1+02681+02131101071ADDGF103991999001004501031001KA1240M+03371MA1999999100051MD1999999-0081REMSYN088AAXX  04004 82392 32496 30508 10268 20213 30005 40107 82030 333 10337 29066 55091 59008;EQDQ01+000022SCOTLC
0156823920999992013040412004-03700-040350FM-12+008399999V0200501N000510450019N0500001N1+02741+02361101251ADDGF106991031021004501031001KA1240N+02331MA1999999100231MD1999999-0051REMSYN076AAXX  04124 82392 32499 60501 10274 20236 30023 40125 83230 333 20233 59005;
0182823920999992013040418004-03700-040350FM-12+008399999V0200501N001010042019N0500001N1+02831+02311100941ADDAA106000391AY161061AY211061GF107991061061004501031001MA1999999099921MD1999999+0071MW1021REMSYN082AAXX  04184 82392 21499 70502 10283 20231 39992 40094 70261 86630 333 58007 69931;
0168823920999992013040500004-03700-040350FM-12+008399999V0203601N000512200019N0040001N1+02641+02231101271ADDGF102991011021004501011001KA1240M+03201MA1999999100181MD1999999+0131REMSYN088AAXX  05004 82392 32496 23601 10264 20223 30018 40127 81210 333 10320 29077 55064 58013;
0201823920999992013040512004-03700-040350FM-12+008399999V0200501N000510450019N0500001N1+02681+02241101371ADDAA124000591AY151061AY251061GF106991031021004501031001KA1240N+02301MA1999999100351MD1999999+0121MW1021REMSYN088AAXX  05124 82392 21499 60501 10268 20224 30035 40137 70255 83230 333 20230 58012 69954;
0137823920999992013040518004-03700-040350FM-12+008399999V0200501N003110450019N0500001N1+02701+02131101041ADDGF107991031051004501031001MA1999999100021MD1999999+0101REMSYN070AAXX  05184 82392 32499 70506 10270 20213 30002 40104 83530 333 58010;
0178823920999992013040600004-03700-040350FM-12+008399999V0200501N001012200019N0040001N1+02531+02111101281ADDGA1001+999999999GF100991001001999999001001KA1240M+03061MA1999999100261MD1999999+0081REMSYN082AAXX  06004 82392 32996 00502 10253 20211 30026 40128 333 10306 29075 55037 58008;
0156823920999992013040612004-03700-040350FM-12+008399999V0200501N000512200019N0500001N1+02781+02161101351ADDGF103991031021004501001001KA1240N+02301MA1999999100331MD1999999-0021REMSYN076AAXX  06124 82392 32499 30501 10278 20216 30033 40135 83200 333 20230 59002;
0137823920999992013040618004-03700-040350FM-12+008399999V0203601N003112200019N0500001N1+02841+02291100981ADDGF104991021041004501031001MA1999999099961MD1999999-0061REMSYN070AAXX  06184 82392 32499 43606 10284 20229 39996 40098 82430 333 59006;
0168823920999992013040700004-03700-040350FM-12+008399999V0200501N004110450019N0040001N1+02601+02031101301ADDGF105991031041004501031001KA1240M+03641MA1999999100281MD1999999+0021REMSYN088AAXX  07004 82392 32496 50508 10260 20203 30028 40130 83430 333 10364 29071 55080 58002;
0173823920999992013040712004-03700-040350FM-12+008399999V0200901N000512200019N0500001N1+02801+02181101321ADDAA124001091GF103991031011004501001001KA1240N+02321MA1999999100301MD1999999-0031REMSYN082AAXX  07124 82392 22499 30901 10280 20218 30030 40132 83100 333 20232 59003 60014;
0137823920999992013040718004-03700-040350FM-12+008399999V0203601N001012200019N0500001N1+03221+02171100811ADDGF103991031011004501001001MA1999999099801MD1999999-0161REMSYN070AAXX  07184 82392 32499 33602 10322 20217 39980 40081 83100 333 59016;
0178823920999992013040800004-03700-040350FM-12+008399999V0200501N001012200019N0040001N1+02661+02181101121ADDGA1001+999999999GF100991001001999999001001KA1240M+03321MA1999999100101MD1999999-0181REMSYN082AAXX  08004 82392 32996 00502 10266 20218 30010 40112 333 10332 29068 55104 59018;
0156823920999992013040812004-03700-040350FM-12+008399999V0200501N000510450019N0500001N1+02861+02391101241ADDGF106991031061004501031001KA1240N+02411MA1999999100221MD1999999-0081REMSYN076AAXX  08124 82392 32499 60501 10286 20239 30022 40124 83630 333 20241 59008;
0156823920999992013040818004-03700-040350FM-12+008399999V0200501N004119999999N0500001N1+02961+02381100721ADDGF106991999021004501001001MA1999999099242MD1999999-0061REMSYN070AAXX  08184 82392 32499 60508 10296 20238 39924 40072 83200 333 59006;EQDQ01+000032SCOTLC
0168823920999992013040900004-03700-040350FM-12+008399999V0203601N000510450019N0040001N1+02681+02391101051ADDGF106991031021004501031001KA1240M+03291MA1999999100031MD1999999-0071REMSYN088AAXX  09004 82392 32496 63601 10268 20239 30003 40105 83230 333 10329 29079 55081 59007;
0156823920999992013040912004-03700-040350FM-12+008399999V0200501N001010450019N0500001N1+02681+02111101151ADDGF107991031041004501031001KA1240N+02381MA1999999100131MD1999999-0091REMSYN076AAXX  09124 82392 32499 70502 10268 20211 30013 40115 83430 333 20238 59009;
0137823920999992013040918004-03700-040350FM-12+008399999V0200901N005110450019N0500001N1+02841+02291100781ADDGF108991041041004501021999MA1999999099761MD1999999+0021REMSYN070AAXX  09184 82392 32499 80910 10284 20229 39976 40078 8442/ 333 58002;
0178823920999992013041000004-03700-040350FM-12+008399999V0203601N001012200019N0040001N1+02501+01911101001ADDGA1001+999999999GF100991001001999999001001KA1240M+03281MA1999999099981MD1999999-0051REMSYN082AAXX  10004 82392 32996 03602 10250 20191 39998 40100 333 10328 29071 55048 59005;
0156823920999992013041012004-03700-040350FM-12+008399999V0200501N000510450019N0500001N1+02961+02341101121ADDGF106991031021004501031001KA1240N+02321MA1999999100101MD1999999-0031REMSYN076AAXX  10124 82392 32499 60501 10296 20234 30010 40112 83230 333 20232 59003;
0137823920999992013041018004-03700-040350FM-12+008399999V0200501N001010450019N0500001N1+03291+02151100731ADDGF105991031021004501031001MA1999999099721MD1999999-0041REMSYN070AAXX  10184 82392 32499 50502 10329 20215 39972 40073 83230 333 59004;
0168823920999992013041100004-03700-040350FM-12+008399999V0200501N001012200019N0040001N1+02481+02361101071ADDGF104991021021004501031001KA1240M+03401MA1999999100051MD1999999+0071REMSYN088AAXX  11004 82392 32496 40502 10248 20236 30005 40107 82230 333 10340 29077 55075 58007;
0156823920999992013041112004-03700-040350FM-12+008399999V0200901N001012200019N0500001N1+02881+02101101191ADDGF102991021011004501001001KA1240N+02401MA1999999100171MD1999999+0071REMSYN076AAXX  11124 82392 32499 20902 10288 20210 30017 40119 82100 333 20240 58007;
0137823920999992013041118004-03700-040350FM-12+008399999V0200501N002112200019N0500001N1+03461+01731100771ADDGF102991021011004501001001MA1999999099761MD1999999+0041REMSYN070AAXX  11184 82392 32499 20504 10346 20173 39976 40077 82100 333 58004;
0178823920999992013041200004-03700-040350FM-12+008399999V0200501N002112200019N0040001N1+02721+02151101121ADDGA1001+999999999GF100991001001999999001001KA1240M+03541MA1999999100101MD1999999+0051REMSYN082AAXX  12004 82392 32996 00504 10272 20215 30010 40112 333 10354 29060 55099 58005;
0156823920999992013041212004-03700-040350FM-12+008399999V0203601N000510450019N0500001N1+02961+02331101191ADDGF106991041021004501031001KA1240N+02331MA1999999100171MD1999999+0001REMSYN076AAXX  12124 82392 32499 63601 10296 20233 30017 40119 84230 333 20233 58000;
0137823920999992013041218004-03700-040350FM-12+008399999V0200501N000512200019N0500001N1+03461+01981100741ADDGF104991041021004501001001MA1999999099731MD1999999-0031REMSYN070AAXX  12184 82392 32499 40501 10346 20198 39973 40074 84200 333 59003;
0168823920999992013041300004-03700-040350FM-12+008399999V0203601N001512200019N0040001N1+02691+02081101081ADDGF101991011021004501001001KA1240M+03511MA1999999100061MD1999999-0041REMSYN088AAXX  13004 82392 32496 13603 10269 20208 30006 40108 81200 333 10351 29062 55101 59004;
0156823920999992013041312004-03700-040350FM-12+008399999V0200901N001512200019N0500001N1+02921+02221101121ADDGF102991021011004501001001KA1240N+02111MA1999999100101MD1999999-0071REMSYN076AAXX  13124 82392 32499 20903 10292 20222 30010 40112 82100 333 20211 59007;
0137823920999992013041318004-03700-040350FM-12+008399999V0203601N002112200019N0500001N1+03471+02111100701ADDGF104991021021004501031001MA1999999099691MD1999999-0041REMSYN070AAXX  13184 82392 32499 43604 10347 20211 39969 40070 82230 333 59004;
0178823920999992013041400004-03700-040350FM-12+008399999V0203601N001512200019N0040001N1+02641+02161101001ADDGA1001+999999999GF100991001001999999001001KA1240M+03541MA1999999099981MD1999999-0081REMSYN082AAXX  14004 82392 32996 03603 10264 20216 39998 40100 333 10354 29062 55104 59008;
0156823920999992013041412004-03700-040350FM-12+008399999V0200501N001012200019N0500001N1+02901+02121101171ADDGF104991041021004501001001KA1240N+02201MA1999999100151MD1999999+0051REMSYN076AAXX  14124 82392 32499 40502 10290 20212 30015 40117 84200 333 20220 58005;
0137823920999992013041418004-03700-040350FM-12+008399999V0200501N001512200019N0500001N1+03331+02091100741ADDGF104991041021004501001001MA1999999099721MD1999999+0031REMSYN070AAXX  14184 82392 32499 40503 10333 20209 39972 40074 84200 333 58003;
0168823920999992013041500004-03700-040350FM-12+008399999V0203601N001012200019N0040001N1+02681+02331101131ADDGF101991011011004501001001KA1240M+03401MA1999999100111MD1999999+0131REMSYN088AAXX  15004 82392 32496 13602 10268 20233 30011 40113 81100 333 10340 29068 55105 58013;
0156823920999992013041512004-03700-040350FM-12+008399999V0202701N000512200019N0500001N1+02841+02041101191ADDGF102991021021004501001021KA1240N+02311MA1999999100171MD1999999+0021REMSYN076AAXX  15124 82392 32499 22701 10284 20204 30017 40119 82202 333 20231 58002;
0137823920999992013041518004-03700-040350FM-12+008399999V0200501N004112200019N0500001N1+03101+01871100781ADDGF104991021021004501031001MA1999999099771MD1999999+0051REMSYN070AAXX  15184 82392 32499 40508 10310 20187 39977 40078 82230 333 58005;
0168823920999992013041600004-03700-040350FM-12+008399999V0200501N002112200019N0040001N1+02621+02011101021ADDGF101991011001999999031001KA1240M+03501MA1999999100001MD1999999-0111REMSYN088AAXX  16004 82392 32996 10504 10262 20201 30000 40102 81030 333 10350 29062 55095 59011;
0156823920999992013041612004-03700-040350FM-12+008399999V0203601N000510042019N0500001N1+02831+02381101161ADDGF107991061061004501031001KA1240N+02311MA1999999100141MD1999999-0031REMSYN076AAXX  16124 82392 32499 73601 10283 20238 30014 40116 86630 333 20231 59003;
0137823920999992013041618004-03700-040350FM-12+008399999V0203601N002110450019N0500001N1+03121+02281100711ADDGF107991041061004501031001MA1999999099691MD1999999-0081REMSYN070AAXX  16184 82392 32499 73604 10312 20228 39969 40071 84630 333 59008;
0168823920999992013041700004-03700-040350FM-12+008399999V0200501N000510450019N0040001N1+02561+02351101091ADDGF105991021061004501011001KA1240M+03321MA1999999100071MD1999999+0071REMSYN088AAXX  17004 82392 32496 50501 10256 20235 30007 40109 82610 333 10332 29078 55064 58007;
0201823920999992013041712004-03700-040350FM-12+008399999V0203201N000512200019N0500001N1+02861+01921101141ADDAA124000591AY151061AY221061GF104991041041004501001001KA1240N+02401MA1999999100121MD1999999-0021MW1021REMSYN088AAXX  17124 82392 21499 43201 10286 20192 30012 40114 70252 84400 333 20240 59002 69944;
0137823920999992013041718004-03700-040350FM-12+008399999V0203201N000512200019N0500001N1+03401+01641100601ADDGF104991021021004501031001MA1999999099601MD1999999-0091REMSYN070AAXX  17184 82392 32499 43201 10340 20164 39960 40060 82230 333 59009;
0213823920999992013041800004-03700-040350FM-12+008399999V0200501N001012200019N0040001N1+02501+01591100971ADDAA106006191AY161061AY221061GF102991021001008001031001KA1240M+03501MA1999999099951MD1999999-0121MW1021REMSYN100AAXX  18004 82392 21596 20502 10250 20159 39995 40097 70262 82030 333 10350 29052 55085 59012 60061;
0173823920999992013041812004-03700-040350FM-12+008399999V0209999C000010042019N0500001N1+02761+02401101071ADDAA124006191GF107991061041004501031001KA1240N+02301MA1999999100051MD1999999-0071REMSYN082AAXX  18124 82392 22499 70000 10276 20240 30005 40107 86430 333 20230 59007 60064;
0182823920999992013041818004-03700-040350FM-12+008399999V0209999C000010042019N0500001N1+02661+02431100751ADDAA106002091AY161061AY211061GF107991061061004501011001MA1999999099731MD1999999+0131MW1021REMSYN082AAXX  18184 82392 21499 70000 10266 20243 39973 40075 70261 86610 333 58013 60021;
0232823920999992013041900004-03700-040350FM-12+008399999V0209999C000010450019N0040001N1+02491+02411101001ADDAA106000091AY151061AY211061GF107991021061004501011001KA1240M+03131MA1999999099981MD1999999+0031MW1021REMSYN100AAXX  19004 82392 21496 70000 10249 20241 39998 40100 70251 82610 333 10313 29090 55032 58003 69921;EQDQ01  00002PRCP06
0173823920999992013041912004-03700-040350FM-12+008399999V0202701N000512200019N0500001N1+02801+01921101771ADDAA124003091GF104991011041004501031001KA1240N+02381MA1999999100051MD1999999+0001REMSYN082AAXX  19124 82392 22499 42701 10280 20192 30005 40177 81430 333 20238 58000 60034;
0201823920999992013041918004-03700-040350FM-12+008399999V0200501N004610450019N0500001N1+02681+02111100732ADDAA106002091AY161061AY221061GF108991021081004501021999MA1999999099701MD1999999-0031MW1021REMSYN082AAXX  19184 82392 21499 80509 10268 20211 39970 40073 70262 8282/ 333 59003 60021;EQDQ01+100733APOSLP
0213823920999992013042000004-03700-040350FM-12+008399999V0201401N000510450019N0040001N1+02481+02051101021ADDAA106000591AY161061AY251061GF108991031071004501021041KA1240M+03181MA1999999100001MD1999999+0021MW1021REMSYN100AAXX  20004 82392 21496 81401 10248 20205 30000 40102 70265 83724 333 10318 29071 55046 58002 69941;
0201823920999992013042012004-03700-040350FM-12+008399999V0200901N000510450019N0500001N1+02381+02261101281ADDAA124021191AY161061AY261061GF108991031061004501021999KA1240N+02101MA1999999100251MD1999999+0201MW1021REMSYN088AAXX  20124 82392 21499 80901 10238 20226 30025 40128 70266 8362/ 333 20210 58020 60214;
0137823920999992013042018004-03700-040350FM-12+008399999V0201801N000510450019N0500001N1+02841+02171100821ADDGF107991041051004501031001MA1999999099801MD1999999+0101REMSYN070AAXX  20184 82392 32499 71801 10284 20217 39980 40082 84530 333 58010;
0213823920999992013042100004-03700-040350FM-12+008399999V0200501N001010450019N0040001N1+02351+01851101131ADDAA106003091AY121061AY221061GF108991031071004501021999KA1240M+02951MA1999999100101MD1999999+0101MW1611REMSYN100AAXX  21004 82392 21496 80502 10235 20185 30010 40113 76122 8372/ 333 10295 29076 55013 58010 60031;
0173823920999992013042112004-03700-040350FM-12+008399999V0201401N001012200019N0500001N1+02721+02151101181ADDAA124003091GF102991021011004501001001KA1240N+02201MA1999999100151MD1999999-0101REMSYN082AAXX  21124 82392 22499 21402 10272 20215 30015 40118 82100 333 20220 59010 60034;
0137823920999992013042118004-03700-040350FM-12+008399999V0203601N000512200019N0500001N1+03161+02081100721ADDGF102991021011004501001001MA1999999099701MD1999999-0101REMSYN070AAXX  21184 82392 32499 23601 10316 20208 39970 40072 82100 333 59010;
0213823920999992013042200004-03700-040350FM-12+008399999V0203601N001010450019N0040001N1+02561+02151101101ADDAA106001091AY161061AY221061GF108991041061004501021999KA1240M+03241MA1999999100081MD1999999-0021MW1021REMSYN100AAXX  22004 82392 21496 83602 10256 20215 30008 40110 70262 8462/ 333 10324 29070 55091 59002 60011;
0173823920999992013042212004-03700-040350FM-12+008399999V0203601N000510450019N0500001N1+02871+02321101161ADDAA124001091GF105991031021004501031001KA1240N+02361MA1999999100141MD1999999-0011REMSYN082AAXX  22124 82392 22499 53601 10287 20232 30014 40116 83230 333 20236 59001 60014;
0137823920999992013042218004-03700-040350FM-12+008399999V0203201N000510450019N0500001N1+02981+02331100771ADDGF107991041041004501031001MA1999999099751MD1999999+0051REMSYN070AAXX  22184 82392 32499 73201 10298 20233 39975 40077 84430 333 58005;
0213823920999992013042300004-03700-040350FM-12+008399999V0209999C000010450019N0040001N1+02361+02311101311ADDAA106014091AY161061AY211061GF108991041071004501021999KA1240M+03141MA1999999100191MD1999999+0111MW1021REMSYN100AAXX  23004 82392 21496 80000 10236 20231 30019 40131 70261 8472/ 333 10314 29084 55054 58011 60141;
0173823920999992013042312004-03700-040350FM-12+008399999V0201401N001012200019N0500001N1+02701+02131101231ADDAA124014091GF102991021011004501031001KA1240N+02281MA1999999100201MD1999999+0061REMSYN082AAXX  23124 82392 22499 21402 10270 20213 30020 40123 82130 333 20228 58006 60144;
0137823920999992013042318004-03700-040350FM-12+008399999V0201401N001010450019N0500001N1+03021+02021100881ADDGF106991031041004501021001MA1999999099861MD1999999+0111REMSYN070AAXX  23184 82392 32499 61402 10302 20202 39986 40088 83420 333 58011;
0213823920999992013042400004-03700-040350FM-12+008399999V0209999C000010450019N0040001N1+02361+01991101191ADDAA106002091AY161061AY221061GF108991031071004501021999KA1240M+03201MA1999999100161MD1999999-0031MW1021REMSYN100AAXX  24004 82392 21496 80000 10236 20199 30016 40119 70262 8372/ 333 10320 29072 55062 59003 60021;
0192823920999992013042412004-03700-040350FM-12+008399999V0200501N000519999999N0500001N1+02611+02501101331ADDAA124002091GF107991999021004501021091KA1240N+02291MA1999999100301MD1999999+0101REMSYN082AAXX  24124 82392 22499 70501 10261 20250 30030 40133 80229 333 20229 58010 60024;EQDQ01+000002SCOTLC
0137823920999992013042418004-03700-040350FM-12+008399999V0201801N000510450019N0500001N1+03021+02261100901ADDGF106991021021004501031001MA1999999099881MD1999999+0021REMSYN070AAXX  24184 82392 32499 61801 10302 20226 39988 40090 82230 333 58002;
0168823920999992013042500004-03700-040350FM-12+008399999V0200501N000510450019N0040001N1+02481+02271101201ADDGF106991011021004501031001KA1240M+03131MA1999999100181MD1999999+0021REMSYN088AAXX  25004 82392 32496 60501 10248 20227 30018 40120 81230 333 10313 29083 55026 58002;
0156823920999992013042512004-03700-040350FM-12+008399999V0200901N002112200019N0500001N1+02841+02291101241ADDGF101991011011004501001001KA1240N+02281MA1999999100221MD1999999-0081REMSYN076AAXX  25124 82392 32499 10904 10284 20229 30022 40124 81100 333 20228 59008;
0137823920999992013042518004-03700-040350FM-12+008399999V0200501N001012200019N0500001N1+03161+02291100821ADDGF104991021041004501031001MA1999999099801MD1999999-0081REMSYN070AAXX  25184 82392 32499 40502 10316 20229 39980 40082 82430 333 59008;
0232823920999992013042600004-03700-040350FM-12+008399999V0200501N002112200019N0040001N1+02501+02211101221ADDAA106000091AY151061AY221061GF102991021001004501031001KA1240M+03241MA1999999100201MD1999999+0021MW1021REMSYN100AAXX  26004 82392 21496 20504 10250 20221 30020 40122 70252 82030 333 10324 29075 55095 58002 69921;EQDQ01  00002PRCP06
0192823920999992013042612004-03700-040350FM-12+008399999V0200901N001010450019N0500001N1+02731+02301101311ADDAA124000091GF106991031021004501031001KA1240N+02281MA1999999100291MD1999999+0071REMSYN082AAXX  26124 82392 22499 60902 10273 20230 30029 40131 83230 333 20228 58007 69924;EQDQ01  00002PRCP24
0156823920999992013042618004-03700-040350FM-12+008399999V0200901N001519999999N0500001N1+03141+02131100801ADDGF105991999021004501001001MA1999999099781MD1999999-0021REMSYN070AAXX  26184 82392 32499 50903 10314 20213 39978 40080 83200 333 59002;EQDQ01+000032SCOTLC
0168823920999992013042700004-03700-040350FM-12+008399999V0203601N001012200019N0040001N1+02581+02311101121ADDGF102991021001008001031001KA1240M+03341MA1999999100101MD1999999-0101REMSYN088AAXX  27004 82392 32596 23602 10258 20231 30010 40112 82030 333 10334 29076 55093 59010;
0156823920999992013042712004-03700-040350FM-12+008399999V0201801N001010042019N0500001N1+02881+02231101131ADDGF106991061021004501001001KA1240N+02281MA1999999100111MD1999999-0181REMSYN076AAXX  27124 82392 32499 61802 10288 20223 30011 40113 86200 333 20228 59018;
0137823920999992013042718004-03700-040350FM-12+008399999V0200501N000510450019N0500001N1+03271+02031100741ADDGF105991031021004501011001MA1999999099721MD1999999-0061REMSYN070AAXX  27184 82392 32499 50501 10327 20203 39972 40074 83210 333 59006;
0168823920999992013042800004-03700-040350FM-12+008399999V0203601N001010450019N0040001N1+02651+02391101001ADDGF107991021021004501011001KA1240M+03381MA1999999099981MD1999999-0121REMSYN088AAXX  28004 82392 32496 73602 10265 20239 39998 40100 82210 333 10338 29072 55099 59012;
0156823920999992013042812004-03700-040350FM-12+008399999V0209999C000010450019N0500001N1+02701+02151101131ADDGF106991021021004501011001KA1240N+02411MA1999999100111MD1999999+0001REMSYN076AAXX  28124 82392 32499 60000 10270 20215 30011 40113 82210 333 20241 58000;
0137823920999992013042818004-03700-040350FM-12+008399999V0209999C000010042019N0500001N1+03181+02221100731ADDGF107991061061004501031001MA1999999099711MD1999999-0011REMSYN070AAXX  28184 82392 32499 70000 10318 20222 39971 40073 86630 333 59001;
0232823920999992013042900004-03700-040350FM-12+008399999V0209999C000019999999N0040001N1+02331+02291101031ADDAA106029091AY191061AY211061GF107991999041004501061021KA1240M+03271MA1999999100001MD1999999+0021MW1021REMSYN100AAXX  29004 82392 21496 70000 10233 20229 30000 40103 70291 89462 333 10327 29081 55024 58002 60291;EQDQ01+000092SCOTLC
0173823920999992013042912004-03700-040350FM-12+008399999V0201801N000510450019N0500001N1+02581+02311101161ADDAA124029091GF108991031051004501011001KA1240N+02281MA1999999100131MD1999999+0021REMSYN082AAXX  29124 82392 22499 81801 10258 20231 30013 40116 83510 333 20228 58002 60294;
0156823920999992013042918004-03700-040350FM-12+008399999V0200901N001019999999N0500001N1+03001+02321100821ADDGF106991999021004501001001MA1999999099781MD1999999+0071REMSYN070AAXX  29184 82392 32499 60902 10300 20232 39978 40082 83200 333 58007;EQDQ01+000032SCOTLC
0213823920999992013043000004-03700-040350FM-12+008399999V0200501N000510450019N0040001N1+02481+02231101121ADDAA106002091AY161061AY221061GF108991031061004501021999KA1240M+03121MA1999999100091MD1999999+0091MW1031REMSYN100AAXX  30004 82392 21496 80501 10248 20223 30009 40112 70362 8362/ 333 10312 29081 55025 58009 60021;
0173823920999992013043012004-03700-040350FM-12+008399999V0201801N000510042019N0500001N1+02661+02371101221ADDAA124002091GF106991051061004501031001KA1240N+02301MA1999999100201MD1999999+0071REMSYN082AAXX  30124 82392 22499 61801 10266 20237 30020 40122 85630 333 20230 58007 60024;
0182823920999992013043018004-03700-040350FM-12+008399999V0202301N000510042019N0500001N1+02381+02311101001ADDAA106014091AY161061AY211061GF107991061061004501031001MA1999999099971MD1999999+0191MW1201REMSYN082AAXX  30184 82392 21499 72301 10238 20231 39997 40100 72061 86630 333 58019 60141;
0209823920999992013050100004-03700-040350FM-12+008399999V0209999C000019999999N004000199+02401+02371101231ADDGA1041+999991061GA2991+999991041GE19MSL   +99999+99999GF107991999999999999999999KA1120M+03081KA2120N+00941MA1999990100201REMSYN07682392 32496 70000 10240 20237 30020 40123 84410 333 10308 29094 55055 58011=
0149823920999992013050112004-03700-040350FM-12+008399999V0201401N0021199999999050000199+02691+02221101251ADDAA124014031AZ101061AZ201061GA1021+004501081GE19MSL   +99999+99999GF102991999999999999999999KA1120N+02261MA1999990100231MD1909990+0031REMSYN004BUFR
0168823920999992013050118004-03700-040350FM-12+008399999V0200501N0005199999999050000199+03151+02121100851ADDAA101999990AZ101061AZ201061GA1021+004501081GA2991+999991041GA3991+999991001GE19MSL   +99999+99999GF104991999999999999999999MA1999990099831MD1909990-0141REMSYN004BUFR
0193823920999992013050200004-03700-040350FM-12+008399999V0209999C000019999999N004000199+02601+02331101151ADDGA1021+999991031GE19MSL   +99999+99999GF102991999999999999999999KA1120M+03201KA2120N+00751MA1999990100131REMSYN07682392 32496 20000 10260 20233 30013 40115 82030 333 10320 29075 55103 59007=
0165823920999992013050212004-03700-040350FM-12+008399999V0202301N0005199999999050000199+02641+02291101231ADDAA101999990AZ101061AZ201061GA1021+004501081GA2991+999991031GE19MSL   +99999+99999GF105991999999999999999999KA1120N+02191MA1999990100211MD1909990-0021REMSYN004BUFR
0168823920999992013050218004-03700-040350FM-12+008399999V0200901N0005199999999050000199+03171+02191100801ADDAA101999990AZ101061AZ201061GA1021+004501081GA2991+999991031GA3991+999991001GE19MSL   +99999+99999GF104991999999999999999999MA1999990099781MD1909990-0051REMSYN004BUFR
0098823920999992013050300004-03700-040350FM-12+008399999V0202701N0005122000199004000199+02451+02341100981ADDAA101999990AZ101061AZ201061GF100991999999999999999999MA1999990099961MD1909990-0171REMSYN004BUFR
0165823920999992013050312004-03700-040350FM-12+008399999V0200901N0010199999999050000199+02821+02291101221ADDAA101999990AZ101061AZ201061GA1031+004501061GA2991+999991031GE19MSL   +99999+99999GF106991999999999999999999KA1120N+02181MA1999990100201MD1909990-0011REMSYN004BUFR
0136823920999992013050318004-03700-040350FM-12+008399999V0200501N0021199999999050000199+03171+02391100821ADDAA101999990AZ101061AZ201061GA1031+004501081GE19MSL   +99999+99999GF103991999999999999999999MA1999990099801MD1909990+0021REMSYN004BUFR
0098823920999992013050400004-03700-040350FM-12+008399999V0200501N0010122000199004000199+02571+02231101141ADDAA101999990AZ101061AZ201061GF100991999999999999999999MA1999990100121MD1909990+0161REMSYN004BUFR
0149823920999992013050412004-03700-040350FM-12+008399999V0200501N0021199999999050000199+02791+02251101071ADDAA101999990AZ101061AZ201061GA1021+004501081GE19MSL   +99999+99999GF102991999999999999999999KA1120N+02121MA1999990100051MD1909990-0151REMSYN004BUFR
0152823920999992013050418004-03700-040350FM-12+008399999V0202701N0005199999999050000199+03221+02201100751ADDAA101999990AZ101061AZ201061GA1031+004501061GA2991+999991031GE19MSL   +99999+99999GF104991999999999999999999MA1999990099731MD1909990-0071REMSYN004BUFR
0238823920999992013050500004-03700-040350FM-12+008399999V0202301N000519999999N004000199+02561+02291101071ADDAA106000831AY151021AY251021GA1021+999991031GE19MSL   +99999+99999GF102991999999999999999999KA1120M+03201KA2120N+00741MA1999990100051MW1021REMSYN08882392 21496 22301 10256 20229 30005 40107 70255 82030 333 10320 29074 55095 59007 69981=
0215823920999992013050512004-03700-040350FM-12+008399999V0200901N001019999999N050000199+02761+02281101221ADDAA124000831GA1031+999991081GA2991+999991031GE19MSL   +99999+99999GF105991999999999999999999KA1240N+02211MA1999990100201MD1909990+0151REMSYN07082392 22499 50902 10276 20228 30020 40122 83130 333 20221 58015 69984=
0179823920999992013050518004-03700-040350FM-12+008399999V0203601N001019999999N050000199+03001+02321100871ADDGA1031+999991061GA2991+999991031GE19MSL   +99999+99999GF107991999999999999999999MA1999990099851MD1909990+0121REMSYN05882392 32499 73602 10300 20232 39985 40087 83530 333 58012=
0174823920999992013050600004-03700-040350FM-12+008399999V0203601N0000199999999004000199+02371+02091101221ADDAA106003031AY161061AY261061GA1031+004501071GA2991+999991051GA3991+999991101GE19MSL   +99999+99999GF108991999999999999999999MA1999990100201MD1909990+0151MW1031REMSYN004BUFR
0215823920999992013050612004-03700-040350FM-12+008399999V0200901N001019999999N050000199+02841+02331101331ADDAA124003031GA1051+999991081GA2991+999991031GE19MSL   +99999+99999GF106991999999999999999999KA1240N+02281MA1999990100311MD1909990+0111REMSYN07082392 22499 60902 10284 20233 30031 40133 85230 333 20228 58011 60034=
0152823920999992013050618004-03700-040350FM-12+008399999V0200901N0005100450199050000199+03121+02361100831ADDAA101999990AZ101061AZ201061GA1061+004501071GA2991+999991031GE19MSL   +99999+99999GF107991999999999999999999MA1999990099811MD1909990-0041REMSYN004BUFR
0123823920999992013050700004-03700-040350FM-12+008399999V0203601N001019999999N004000199+02541+02331101201ADDKA1120M+03241KA2120N+00791MA1999990100181REMSYN07082392 32996 03602 10254 20233 30018 40120 333 10324 29079 55073 59002=
0182823920999992013050712004-03700-040350FM-12+008399999V0200501N001019999999N050000199+02721+02191101431ADDGA1021+999991081GE19MSL   +99999+99999GF102991999999999999999999KA1240N+02231MA1999990100411MD1909990+0101REMSYN06482392 32499 20502 10272 20219 30041 40143 82100 333 20223 58010=
0152823920999992013050718004-03700-040350FM-12+008399999V0200501N0041199999999050000199+02921+02171101071ADDAA101999990AZ101061AZ201061GA1031+004501061GA2991+999991041GE19MSL   +99999+99999GF107991999999999999999999MA1999990100051MD1909990+0241REMSYN004BUFR
0098823920999992013050800004-03700-040350FM-12+008399999V0200501N0021122000199004000199+02491+02131101361ADDAA101999990AZ101061AZ201061GF100991999999999999999999MA1999990100341MD1909990+0161REMSYN004BUFR
0182823920999992013050812004-03700-040350FM-12+008399999V0209999C000019999999N050000199+02771+02361101481ADDGA1031+999991081GE19MSL   +99999+99999GF106991999999999999999999KA1240N+02241MA1999990100451MD1909990+0041REMSYN06482392 32499 60000 10277 20236 30045 40148 83200 333 20224 58004=
0152823920999992013050818004-03700-040350FM-12+008399999V0203601N0021199999999050000199+02921+02361101051ADDAA101999990AZ101061AZ201061GA1021+004501081GA2991+999991041GE19MSL   +99999+99999GF106991999999999999999999MA1999990100031MD1909990-0021REMSYN004BUFR
