0120827980999992013010100004-07117-034950FM-15+0066SBJP V0201501N005112200019N0112651N1+02601+02201999999ADDGA1041+006001999GF104991999999999999999999MA1101291999999REMMET051METAR SBJP 010000Z 15010KT 9999 SCT020 26/22 Q1013;
0120827980999992013010101004-07117-034950FM-15+0066SBJP V0201501N004112200019N0112651N1+02601+02101999999ADDGA1021+006001999GF102991999999999999999999MA1101391999999REMMET051METAR SBJP 010100Z 15008KT 9999 FEW020 26/21 Q1014;
0120827980999992013010102004-07117-034950FM-15+0066SBJP V0201301N004112200019N0112651N1+02601+02201999999ADDGA1041+006001999GF104991999999999999999999MA1101291999999REMMET051METAR SBJP 010200Z 13008KT 9999 SCT020 26/22 Q1013;
0120827980999992013010103004-07117-034950FM-15+0066SBJP V0201601N002110060019N0112651N1+02501+02201999999ADDGA1071+006001999GF107991999999999999999999MA1101291999999REMMET051METAR SBJP 010300Z 16004KT 9999 BKN020 25/22 Q1013;
0153827980999992013010104004-07117-034950FM-15+0066SBJP V0201501N005710060019N0060001N1+02501+02201999999ADDGA1071+006001999GA2071+021001999GF107991999999999999999999MA1101191999999MW1611REMMET062METAR SBJP 010400Z 15011KT 6000 -RA BKN020 BKN070 25/22 Q1012;
0128827980999992013010105004-07117-034950FM-15+0066SBJP V0201901N002110057019N0112651N1+02501+02201999999ADDGA1071+005701999GF107991999999999999999999MA1101191999999REMMET059METAR SBJP 010500Z 19004KT 160V250 9999 BKN019 25/22 Q1012;
0120827980999992013010106004-07117-034950FM-15+0066SBJP V0201501N002610060019N0112651N1+02501+02201999999ADDGA1071+006001999GF107991999999999999999999MA1101191999999REMMET051METAR SBJP 010600Z 15005KT 9999 BKN020 25/22 Q1012;
0120827980999992013010107004-07117-034950FM-15+0066SBJP V0201801N002112200019N0112651N1+02401+02201999999ADDGA1041+006001999GF104991999999999999999999MA1101191999999REMMET051METAR SBJP 010700Z 18004KT 9999 SCT020 24/22 Q1012;
0120827980999992013010108004-07117-034950FM-15+0066SBJP V0201701N001512200019N0112651N1+02401+02101999999ADDGA1021+006001999GF102991999999999999999999MA1101191999999REMMET051METAR SBJP 010800Z 17003KT 9999 FEW020 24/21 Q1012;
0120827980999992013010109004-07117-034950FM-15+0066SBJP V0201901N001512200019N0112651N1+02401+02201999999ADDGA1041+006001999GF104991999999999999999999MA1101291999999REMMET051METAR SBJP 010900Z 19003KT 9999 SCT020 24/22 Q1013;
0120827980999992013010110004-07117-034950FM-15+0066SBJP V0209999C000012200019N0112651N1+02701+02201999999ADDGA1041+006001999GF104991999999999999999999MA1101291999999REMMET051METAR SBJP 011000Z 00000KT 9999 SCT020 27/22 Q1013;
0120827980999992013010111004-07117-034950FM-15+0066SBJP V0209999C000010060019N0112651N1+02601+02201999999ADDGA1071+006001999GF107991999999999999999999MA1101391999999REMMET051METAR SBJP 011100Z 00000KT 9999 BKN020 26/22 Q1014;
0120827980999992013010112004-07117-034950FM-15+0066SBJP V0201101N005710060019N0112651N1+02701+02201999999ADDGA1071+006001999GF107991999999999999999999MA1101391999999REMMET051METAR SBJP 011200Z 11011KT 9999 BKN020 27/22 Q1014;
0120827980999992013010113004-07117-034950FM-15+0066SBJP V0201101N005710060019N0112651N1+02901+02201999999ADDGA1071+006001999GF107991999999999999999999MA1101391999999REMMET051METAR SBJP 011300Z 11011KT 9999 BKN020 29/22 Q1014;
0128827980999992013010114004-07117-034950FM-15+0066SBJP V0201101N006210075019N0112651N1+03001+02001999999ADDGA1071+007501999GF107991999999999999999999MA1101291999999REMMET059METAR SBJP 011400Z 11012KT 080V150 9999 BKN025 30/20 Q1013;
0128827980999992013010115004-07117-034950FM-15+0066SBJP V0201101N006210075019N0112651N1+03001+02101999999ADDGA1071+007501999GF107991999999999999999999MA1101291999999REMMET059METAR SBJP 011500Z 11012KT 070V150 9999 BKN025 30/21 Q1013;
0120827980999992013010116004-07117-034950FM-15+0066SBJP V0201101N006212200019N0112651N1+03001+02001999999ADDGA1041+006001999GF104991999999999999999999MA1101191999999REMMET051METAR SBJP 011600Z 11012KT 9999 SCT020 30/20 Q1012;
0120827980999992013010117004-07117-034950FM-15+0066SBJP V0201301N007210060019N0112651N1+02901+01901999999ADDGA1071+006001999GF107991999999999999999999MA1101081999999REMMET051METAR SBJP 011700Z 13014KT 9999 BKN020 29/19 Q1011;
0120827980999992013010118004-07117-034950FM-15+0066SBJP V0201401N007212200019N0112651N1+02901+02101999999ADDGA1041+006001999GF104991999999999999999999MA1101081999999REMMET051METAR SBJP 011800Z 14014KT 9999 SCT020 29/21 Q1011;
0120827980999992013010119004-07117-034950FM-15+0066SBJP V0201301N007212200019N0112651N1+02901+02001999999ADDGA1041+006001999GF104991999999999999999999MA1101081999999REMMET051METAR SBJP 011900Z 13014KT 9999 SCT020 29/20 Q1011;
0120827980999992013010120004-07117-034950FM-15+0066SBJP V0201301N007712200019N0112651N1+02801+02001999999ADDGA1021+006001999GF102991999999999999999999MA1101081999999REMMET051METAR SBJP 012000Z 13015KT 9999 FEW020 28/20 Q1011;
0072827980999992013010121004-07117-034950FM-15+0066SBJP V0201401N004119999999Y0099001N1+02701+02001999999ADDMA1101191999999REMMET045METAR SBJP 012100Z 14008KT CAVOK 27/20 Q1012;
0072827980999992013010122004-07117-034950FM-15+0066SBJP V0209999C000019999999Y0099001N1+02601+02101999999ADDMA1101291999999REMMET045METAR SBJP 012200Z 00000KT CAVOK 26/21 Q1013;
0120827980999992013010123004-07117-034950FM-15+0066SBJP V0209999C000012200019N0112651N1+02501+02101999999ADDGA1021+006001999GF102991999999999999999999MA1101291999999REMMET051METAR SBJP 012300Z 00000KT 9999 FEW020 25/21 Q1013;
0120827980999992013010200004-07117-034950FM-15+0066SBJP V0209999C000012200019N0112651N1+02501+02101999999ADDGA1021+006001999GF102991999999999999999999MA1101291999999REMMET051METAR SBJP 020000Z 00000KT 9999 FEW020 25/21 Q1013;
0120827980999992013010201004-07117-034950FM-15+0066SBJP V0209999C000012200019N0112651N1+02501+02101999999ADDGA1021+006001999GF102991999999999999999999MA1101291999999REMMET051METAR SBJP 020100Z 00000KT 9999 FEW020 25/21 Q1013;
0120827980999992013010202004-07117-034950FM-15+0066SBJP V0209999C000012200019N0112651N1+02401+02101999999ADDGA1021+006001999GF102991999999999999999999MA1101291999999REMMET051METAR SBJP 020200Z 00000KT 9999 FEW020 24/21 Q1013;
0120827980999992013010203004-07117-034950FM-15+0066SBJP V0209999C000012200019N0112651N1+02401+02101999999ADDGA1021+006001999GF102991999999999999999999MA1101291999999REMMET051METAR SBJP 020300Z 00000KT 9999 FEW020 24/21 Q1013;
0120827980999992013010204004-07117-034950FM-15+0066SBJP V0209999C000012200019N0112651N1+02401+02101999999ADDGA1041+006001999GF104991999999999999999999MA1101191999999REMMET051METAR SBJP 020400Z 00000KT 9999 SCT020 24/21 Q1012;
0143827980999992013010205004-07117-034950FM-15+0066SBJP V0209999C000010210019N0112651N1+02401+02101999999ADDGA1021+006001999GA2071+021001999GF107991999999999999999999MA1101191999999REMMET058METAR SBJP 020500Z 00000KT 9999 FEW020 BKN070 24/21 Q1012;
0143827980999992013010206004-07117-034950FM-15+0066SBJP V0209999C000010210019N0112651N1+02401+02101999999ADDGA1041+006001999GA2071+021001999GF107991999999999999999999MA1101191999999REMMET058METAR SBJP 020600Z 00000KT 9999 SCT020 BKN070 24/21 Q1012;
0143827980999992013010207004-07117-034950FM-15+0066SBJP V0209999C000012200019N0112651N1+02301+02101999999ADDGA1021+006001999GA2041+021001999GF104991999999999999999999MA1101191999999REMMET058METAR SBJP 020700Z 00000KT 9999 FEW020 SCT070 23/21 Q1012;
0120827980999992013010208004-07117-034950FM-15+0066SBJP V0209999C000012200019N0112651N1+02401+02101999999ADDGA1021+006001999GF102991999999999999999999MA1101191999999REMMET051METAR SBJP 020800Z 00000KT 9999 FEW020 24/21 Q1012;
0143827980999992013010209004-07117-034950FM-15+0066SBJP V0209999C000010060019N0112651N1+02401+02201999999ADDGA1071+006001999GA2071+021001999GF107991999999999999999999MA1101191999999REMMET058METAR SBJP 020900Z 00000KT 9999 BKN020 BKN070 24/22 Q1012;
0128827980999992013010210004-07117-034950FM-15+0066SBJP V0201801N002112200019N0112651N1+02601+02201999999ADDGA1041+006001999GF104991999999999999999999MA1101291999999REMMET059METAR SBJP 021000Z 18004KT 160V220 9999 SCT020 26/22 Q1013;
0128827980999992013010211004-07117-034950FM-15+0066SBJP V0201401N004610060019N0112651N1+02801+02101999999ADDGA1071+006001999GF107991999999999999999999MA1101291999999REMMET059METAR SBJP 021100Z 14009KT 110V170 9999 BKN020 28/21 Q1013;
0136827980999992013010212004-07117-034950FM-15+0066SBJP V0201301N00411006001CN0112651N1+02701+02201999999ADDGA1071+006001999GA2041+030001999MA1101291999999REMMET058METAR SBJP 021200Z 13008KT 9999 BKN020 SCT100 27/22 Q1013;EQDQ01+000042SCOTCV
0136827980999992013010213004-07117-034950FM-15+0066SBJP V0201101N00671006001CN0112651N1+02801+02201999999ADDGA1071+006001999GA2041+021001999MA1101291999999REMMET058METAR SBJP 021300Z 11013KT 9999 BKN020 SCT070 28/22 Q1013;EQDQ01+000042SCOTCV
0144827980999992013010214004-07117-034950FM-15+0066SBJP V0201501N00571006001CN0112651N1+03001+02101999999ADDGA1071+006001999GA2041+021001999MA1101291999999REMMET066METAR SBJP 021400Z 15011KT 110V180 9999 BKN020 SCT070 30/21 Q1013;EQDQ01+000042SCOTCV
0136827980999992013010215004-07117-034950FM-15+0066SBJP V0201401N00571006001CN0112651N1+02601+02401999999ADDGA1071+006001999GA2041+021001999MA1101291999999REMMET058METAR SBJP 021500Z 14011KT 9999 BKN020 SCT070 26/24 Q1013;EQDQ01+000042SCOTCV
0166827980999992013010216004-07117-034950FM-15+0066SBJP V0201401N005710051019N0112651N1+02601+02301999999ADDGA1021+003001999GA2071+005101999GA3071+021001999GF107991999999999999999999MA1101191999999REMMET065METAR SBJP 021600Z 14011KT 9999 FEW010 BKN017 BKN070 26/23 Q1012;
0143827980999992013010217004-07117-034950FM-15+0066SBJP V0201201N006210051019N0112651N1+02701+02201999999ADDGA1071+005101999GA2071+021001999GF107991999999999999999999MA1101081999999REMMET058METAR SBJP 021700Z 12012KT 9999 BKN017 BKN070 27/22 Q1011;
0143827980999992013010218004-07117-034950FM-15+0066SBJP V0201501N006210051019N0112651N1+02701+02201999999ADDGA1071+005101999GA2071+021001999GF107991999999999999999999MA1101081999999REMMET058METAR SBJP 021800Z 15012KT 9999 BKN017 BKN070 27/22 Q1011;
0143827980999992013010219004-07117-034950FM-15+0066SBJP V0201401N009310051019N0112651N1+02601+02201999999ADDGA1071+005101999GA2071+021001999GF107991999999999999999999MA1101081999999REMMET058METAR SBJP 021900Z 14018KT 9999 BKN017 BKN070 26/22 Q1011;
0143827980999992013010220004-07117-034950FM-15+0066SBJP V0201601N005110210019N0112651N1+02601+02201999999ADDGA1041+005101999GA2071+021001999GF107991999999999999999999MA1101191999999REMMET058METAR SBJP 022000Z 16010KT 9999 SCT017 BKN070 26/22 Q1012;
0143827980999992013010221004-07117-034950FM-15+0066SBJP V0201501N005110069019N0112651N1+02601+02201999999ADDGA1041+004501999GA2071+006901999GF107991999999999999999999MA1101191999999REMMET058METAR SBJP 022100Z 15010KT 9999 SCT015 BKN023 26/22 Q1012;
0143827980999992013010222004-07117-034950FM-15+0066SBJP V0201501N003110069019N0112651N1+02501+02201999999ADDGA1041+004501999GA2071+006901999GF107991999999999999999999MA1101191999999REMMET058METAR SBJP 022200Z 15006KT 9999 SCT015 BKN023 25/22 Q1012;
0143827980999992013010223004-07117-034950FM-15+0066SBJP V0209999C000010060019N0112651N1+02501+02201999999ADDGA1021+004501999GA2071+006001999GF107991999999999999999999MA1101291999999REMMET058METAR SBJP 022300Z 00000KT 9999 FEW015 BKN020 25/22 Q1013;
0120827980999992013010300004-07117-034950FM-15+0066SBJP V0209999C000012200019N0112651N1+02601+02101999999ADDGA1021+006001999GF102991999999999999999999MA1101291999999REMMET051METAR SBJP 030000Z 00000KT 9999 FEW020 26/21 Q1013;
0120827980999992013010301004-07117-034950FM-15+0066SBJP V0209999C000012200019N0112651N1+02501+02101999999ADDGA1021+006001999GF102991999999999999999999MA1101291999999REMMET051METAR SBJP 030100Z 00000KT 9999 FEW020 25/21 Q1013;
0120827980999992013010302004-07117-034950FM-15+0066SBJP V0201501N002112200019N0112651N1+02501+02101999999ADDGA1041+006001999GF104991999999999999999999MA1101291999999REMMET051METAR SBJP 030200Z 15004KT 9999 SCT020 25/21 Q1013;
0120827980999992013010303004-07117-034950FM-15+0066SBJP V0209999C000012200019N0112651N1+02501+02101999999ADDGA1041+006001999GF104991999999999999999999MA1101191999999REMMET051METAR SBJP 030300Z 00000KT 9999 SCT020 25/21 Q1012;
0143827980999992013010304004-07117-034950FM-15+0066SBJP V0201101N002112200019N0112651N1+02501+02201999999ADDGA1041+005401999GA2041+021001999GF104991999999999999999999MA1101191999999REMMET058METAR SBJP 030400Z 11004KT 9999 SCT018 SCT070 25/22 Q1012;
0143827980999992013010305004-07117-034950FM-15+0066SBJP V0209999C000012200019N0112651N1+02501+02201999999ADDGA1041+006001999GA2041+021001999GF104991999999999999999999MA1101191999999REMMET058METAR SBJP 030500Z 00000KT 9999 SCT020 SCT070 25/22 Q1012;
0143827980999992013010306004-07117-034950FM-15+0066SBJP V0201601N003110210019N0112651N1+02501+02201999999ADDGA1041+006001999GA2071+021001999GF107991999999999999999999MA1101191999999REMMET058METAR SBJP 030600Z 16006KT 9999 SCT020 BKN070 25/22 Q1012;
0143827980999992013010308004-07117-034950FM-15+0066SBJP V0209999C000012200019N0112651N1+02401+02201999999ADDGA1041+006001999GA2041+021001999GF104991999999999999999999MA1101291999999REMMET058METAR SBJP 030800Z 00000KT 9999 SCT020 SCT070 24/22 Q1013;
0143827980999992013010309004-07117-034950FM-15+0066SBJP V0209999C000012200019N0112651N1+02501+02201999999ADDGA1021+006001999GA2041+021001999GF104991999999999999999999MA1101391999999REMMET058METAR SBJP 030900Z 00000KT 9999 FEW020 SCT070 25/22 Q1014;
0120827980999992013010310004-07117-034950FM-15+0066SBJP V0201401N000512200019N0112651N1+02701+02201999999ADDGA1041+005701999GF104991999999999999999999MA1101391999999REMMET051METAR SBJP 031000Z 14001KT 9999 SCT019 27/22 Q1014;
0143827980999992013010311004-07117-034950FM-15+0066SBJP V0201301N004610063019N0112651N1+02801+02101999999ADDGA1071+006301999GA2071+021001999GF107991999999999999999999MA1101491999999REMMET058METAR SBJP 031100Z 13009KT 9999 BKN021 BKN070 28/21 Q1015;
0144827980999992013010312004-07117-034950FM-15+0066SBJP V0201201N00461007801CN0112651N1+02801+02001999999ADDGA1071+007801999GA2041+021001999MA1101491999999REMMET066METAR SBJP 031200Z 12009KT 090V150 9999 BKN026 SCT070 28/20 Q1015;EQDQ01+000042SCOTCV
0143827980999992013010313004-07117-034950FM-15+0066SBJP V0201201N006710090019N0112651N1+02801+02101999999ADDGA1071+009001999GA2071+021001999GF107991999999999999999999MA1101491999999REMMET058METAR SBJP 031300Z 12013KT 9999 BKN030 BKN070 28/21 Q1015;
0128827980999992013010314004-07117-034950FM-15+0066SBJP V0201301N006710099019N0112651N1+03101+02001999999ADDGA1071+009901999GF107991999999999999999999MA1101391999999REMMET059METAR SBJP 031400Z 13013KT 090V150 9999 BKN033 31/20 Q1014;
0128827980999992013010315004-07117-034950FM-15+0066SBJP V0201301N001510099019N0112651N1+03101+02001999999ADDGA1071+009901999GF107991999999999999999999MA1101391999999REMMET059METAR SBJP 031500Z 13003KT 080V150 9999 BKN033 31/20 Q1014;
0128827980999992013010316004-07117-034950FM-15+0066SBJP V0201101N005712200019N0112651N1+03101+01901999999ADDGA1041+009001999GF104991999999999999999999MA1101291999999REMMET059METAR SBJP 031600Z 11011KT 070V150 9999 SCT030 31/19 Q1013;
0128827980999992013010317004-07117-034950FM-15+0066SBJP V0201101N006712200019N0112651N1+03101+01901999999ADDGA1041+009001999GF104991999999999999999999MA1101291999999REMMET059METAR SBJP 031700Z 11013KT 070V150 9999 SCT030 31/19 Q1013;
0120827980999992013010318004-07117-034950FM-15+0066SBJP V0201201N006210075019N0112651N1+03001+02001999999ADDGA1071+007501999GF107991999999999999999999MA1101291999999REMMET051METAR SBJP 031800Z 12012KT 9999 BKN025 30/20 Q1013;
0151827980999992013010319004-07117-034950FM-15+0066SBJP V0201401N006710210019N0112651N1+02901+02001999999ADDGA1041+007501999GA2071+021001999GF107991999999999999999999MA1101291999999REMMET066METAR SBJP 031900Z 14013KT 110V170 9999 SCT025 BKN070 29/20 Q1013;
0128827980999992013010320004-07117-034950FM-15+0066SBJP V0201201N005712200019N0112651N1+02801+02101999999ADDGA1041+007501999GF104991999999999999999999MA1101291999999REMMET059METAR SBJP 032000Z 12011KT 100V160 9999 SCT025 28/21 Q1013;
0120827980999992013010321004-07117-034950FM-15+0066SBJP V0201301N004112200019N0112651N1+02701+02101999999ADDGA1041+007501999GF104991999999999999999999MA1101391999999REMMET051METAR SBJP 032100Z 13008KT 9999 SCT025 27/21 Q1014;
0143827980999992013010322004-07117-034950FM-15+0066SBJP V0201201N003610045019N0112651N1+02501+02301999999ADDGA1041+003001999GA2071+004501999GF107991999999999999999999MA1101391999999REMMET058METAR SBJP 032200Z 12007KT 9999 SCT010 BKN015 25/23 Q1014;
0120827980999992013010323004-07117-034950FM-15+0066SBJP V0201501N003112200019N0112651N1+02501+02301999999ADDGA1041+005401999GF104991999999999999999999MA1101491999999REMMET051METAR SBJP 032300Z 15006KT 9999 SCT018 25/23 Q1015;
0143827980999992013010400004-07117-034950FM-15+0066SBJP V0201701N001510210019N0112651N1+02501+02201999999ADDGA1041+005401999GA2071+021001999GF107991999999999999999999MA1101491999999REMMET058METAR SBJP 040000Z 17003KT 9999 SCT018 BKN070 25/22 Q1015;
0143827980999992013010401004-07117-034950FM-15+0066SBJP V0209999C000010210019N0112651N1+02501+02201999999ADDGA1021+006001999GA2071+021001999GF107991999999999999999999MA1101491999999REMMET058METAR SBJP 040100Z 00000KT 9999 FEW020 BKN070 25/22 Q1015;
0153827980999992013010402004-07117-034950FM-15+0066SBJP V0209999C000010210019N0112651N1+02501+02301999999ADDGA1041+002401999GA2071+021001999GF107991999999999999999999MA1101491999999MW1611REMMET062METAR SBJP 040200Z 00000KT 9999 -RA SCT008 BKN070 25/23 Q1015;
0143827980999992013010403004-07117-034950FM-15+0066SBJP V0202501N001510060019N0112651N1+02501+02301999999ADDGA1041+003001999GA2071+006001999GF107991999999999999999999MA1101491999999REMMET058METAR SBJP 040300Z 25003KT 9999 SCT010 BKN020 25/23 Q1015;
0120827980999992013010404004-07117-034950FM-15+0066SBJP V0209999C000012200019N0112651N1+02401+02301999999ADDGA1041+006001999GF104991999999999999999999MA1101391999999REMMET051METAR SBJP 040400Z 00000KT 9999 SCT020 24/23 Q1014;
0120827980999992013010405004-07117-034950FM-15+0066SBJP V0209999C000012200019N0112651N1+02401+02201999999ADDGA1041+006001999GF104991999999999999999999MA1101391999999REMMET051METAR SBJP 040500Z 00000KT 9999 SCT020 24/22 Q1014;
0120827980999992013010406004-07117-034950FM-15+0066SBJP V0209999C000010060019N0112651N1+02401+02201999999ADDGA1071+006001999GF107991999999999999999999MA1101391999999REMMET051METAR SBJP 040600Z 00000KT 9999 BKN020 24/22 Q1014;
0120827980999992013010407004-07117-034950FM-15+0066SBJP V0209999C000010054019N0112651N1+02401+02201999999ADDGA1071+005401999GF107991999999999999999999MA1101391999999REMMET051METAR SBJP 040700Z 00000KT 9999 BKN018 24/22 Q1014;
0143827980999992013010408004-07117-034950FM-15+0066SBJP V0209999C000012200019N0112651N1+02401+02201999999ADDGA1021+003001999GA2041+006001999GF104991999999999999999999MA1101491999999REMMET058METAR SBJP 040800Z 00000KT 9999 FEW010 SCT020 24/22 Q1015;
0120827980999992013010409004-07117-034950FM-15+0066SBJP V0209999C000012200019N0112651N1+02501+02301999999ADDGA1041+006001999GF104991999999999999999999MA1101591999999REMMET051METAR SBJP 040900Z 00000KT 9999 SCT020 25/23 Q1016;
0120827980999992013010410004-07117-034950FM-15+0066SBJP V0201101N002110060019N0112651N1+02701+02301999999ADDGA1071+006001999GF107991999999999999999999MA1101591999999REMMET051METAR SBJP 041000Z 11004KT 9999 BKN020 27/23 Q1016;
0120827980999992013010411004-07117-034950FM-15+0066SBJP V0201101N004110060019N0112651N1+02701+02301999999ADDGA1071+006001999GF107991999999999999999999MA1101591999999REMMET051METAR SBJP 041100Z 11008KT 9999 BKN020 27/23 Q1016;
0120827980999992013010412004-07117-034950FM-15+0066SBJP V0201101N006710060019N0112651N1+02901+02101999999ADDGA1071+006001999GF107991999999999999999999MA1101591999999REMMET051METAR SBJP 041200Z 11013KT 9999 BKN020 29/21 Q1016;
0120827980999992013010413004-07117-034950FM-15+0066SBJP V0201201N006210060019N0112651N1+03001+02101999999ADDGA1071+006001999GF107991999999999999999999MA1101591999999REMMET051METAR SBJP 041300Z 12012KT 9999 BKN020 30/21 Q1016;
0120827980999992013010414004-07117-034950FM-15+0066SBJP V0201201N007210090019N0112651N1+03001+02001999999ADDGA1071+009001999GF107991999999999999999999MA1101591999999REMMET051METAR SBJP 041400Z 12014KT 9999 BKN030 30/20 Q1016;
0120827980999992013010415004-07117-034950FM-15+0066SBJP V0201001N005110090019N0112651N1+03001+02101999999ADDGA1071+009001999GF107991999999999999999999MA1101591999999REMMET051METAR SBJP 041500Z 10010KT 9999 BKN030 30/21 Q1016;
0120827980999992013010416004-07117-034950FM-15+0066SBJP V0201001N005710066019N0112651N1+03001+02101999999ADDGA1071+006601999GF107991999999999999999999MA1101491999999REMMET051METAR SBJP 041600Z 10011KT 9999 BKN022 30/21 Q1015;
0120827980999992013010417004-07117-034950FM-15+0066SBJP V0201001N006210075019N0112651N1+03001+02001999999ADDGA1071+007501999GF107991999999999999999999MA1101491999999REMMET051METAR SBJP 041700Z 10012KT 9999 BKN025 30/20 Q1015;
0120827980999992013010418004-07117-034950FM-15+0066SBJP V0201001N006710090019N0112651N1+02901+02001999999ADDGA1071+009001999GF107991999999999999999999MA1101391999999REMMET051METAR SBJP 041800Z 10013KT 9999 BKN030 29/20 Q1014;
0120827980999992013010419004-07117-034950FM-15+0066SBJP V0200801N005710075019N0112651N1+02901+02101999999ADDGA1071+007501999GF107991999999999999999999MA1101391999999REMMET051METAR SBJP 041900Z 08011KT 9999 BKN025 29/21 Q1014;
0120827980999992013010420004-07117-034950FM-15+0066SBJP V0200901N005112200019N0112651N1+02801+02101999999ADDGA1041+007501999GF104991999999999999999999MA1101491999999REMMET051METAR SBJP 042000Z 09010KT 9999 SCT025 28/21 Q1015;
0120827980999992013010421004-07117-034950FM-15+0066SBJP V0201101N004612200019N0112651N1+02701+02101999999ADDGA1021+006001999GF102991999999999999999999MA1101491999999REMMET051METAR SBJP 042100Z 11009KT 9999 FEW020 27/21 Q1015;
0120827980999992013010422004-07117-034950FM-15+0066SBJP V0201001N003112200019N0112651N1+02701+02101999999ADDGA1041+006001999GF104991999999999999999999MA1101591999999REMMET051METAR SBJP 042200Z 10006KT 9999 SCT020 27/21 Q1016;
0120827980999992013010423004-07117-034950FM-15+0066SBJP V0201001N002612200019N0112651N1+02601+02101999999ADDGA1041+006001999GF104991999999999999999999MA1101691999999REMMET051METAR SBJP 042300Z 10005KT 9999 SCT020 26/21 Q1017;
0120827980999992013010500004-07117-034950FM-15+0066SBJP V0209999C000012200019N0112651N1+02601+02101999999ADDGA1041+006001999GF104991999999999999999999MA1101691999999REMMET051METAR SBJP 050000Z 00000KT 9999 SCT020 26/21 Q1017;
0120827980999992013010501004-07117-034950FM-15+0066SBJP V0201101N002112200019N0112651N1+02601+02101999999ADDGA1041+006001999GF104991999999999999999999MA1101691999999REMMET051METAR SBJP 050100Z 11004KT 9999 SCT020 26/21 Q1017;
0120827980999992013010502004-07117-034950FM-15+0066SBJP V0201201N002112200019N0112651N1+02601+02201999999ADDGA1041+006001999GF104991999999999999999999MA1101591999999REMMET051METAR SBJP 050200Z 12004KT 9999 SCT020 26/22 Q1016;
0120827980999992013010503004-07117-034950FM-15+0066SBJP V0201101N003112200019N0112651N1+02501+02201999999ADDGA1041+006001999GF104991999999999999999999MA1101491999999REMMET051METAR SBJP 050300Z 11006KT 9999 SCT020 25/22 Q1015;
0120827980999992013010504004-07117-034950FM-15+0066SBJP V0209999C000012200019N0112651N1+02501+02201999999ADDGA1021+006001999GF102991999999999999999999MA1101391999999REMMET051METAR SBJP 050400Z 00000KT 9999 FEW020 25/22 Q1014;
0120827980999992013010505004-07117-034950FM-15+0066SBJP V0201301N001012200019N0112651N1+02501+02201999999ADDGA1021+006001999GF102991999999999999999999MA1101391999999REMMET051METAR SBJP 050500Z 13002KT 9999 FEW020 25/22 Q1014;
0120827980999992013010506004-07117-034950FM-15+0066SBJP V0209999C000012200019N0112651N1+02501+02201999999ADDGA1021+006001999GF102991999999999999999999MA1101391999999REMMET051METAR SBJP 050600Z 00000KT 9999 FEW020 25/22 Q1014;
0120827980999992013010507004-07117-034950FM-15+0066SBJP V0209999C000012200019N0112651N1+02401+02101999999ADDGA1021+006001999GF102991999999999999999999MA1101491999999REMMET051METAR SBJP 050700Z 00000KT 9999 FEW020 24/21 Q1015;
0120827980999992013010508004-07117-034950FM-15+0066SBJP V0201101N001012200019N0112651N1+02501+02101999999ADDGA1021+006001999GF102991999999999999999999MA1101491999999REMMET051METAR SBJP 050800Z 11002KT 9999 FEW020 25/21 Q1015;
0120827980999992013010509004-07117-034950FM-15+0066SBJP V0209999C000012200019N0112651N1+02501+02201999999ADDGA1041+006001999GF104991999999999999999999MA1101591999999REMMET051METAR SBJP 050900Z 00000KT 9999 SCT020 25/22 Q1016;
0120827980999992013010510004-07117-034950FM-15+0066SBJP V0201101N003112200019N0112651N1+02701+02201999999ADDGA1041+005401999GF104991999999999999999999MA1101591999999REMMET051METAR SBJP 051000Z 11006KT 9999 SCT018 27/22 Q1016;
0120827980999992013010511004-07117-034950FM-15+0066SBJP V0201201N005110060019N0112651N1+02801+02201999999ADDGA1071+006001999GF107991999999999999999999MA1101591999999REMMET051METAR SBJP 051100Z 12010KT 9999 BKN020 28/22 Q1016;
0120827980999992013010512004-07117-034950FM-15+0066SBJP V0201101N005710090019N0112651N1+02901+02001999999ADDGA1071+009001999GF107991999999999999999999MA1101591999999REMMET051METAR SBJP 051200Z 11011KT 9999 BKN030 29/20 Q1016;
0120827980999992013010513004-07117-034950FM-15+0066SBJP V0201101N006210090019N0112651N1+03001+02001999999ADDGA1071+009001999GF107991999999999999999999MA1101591999999REMMET051METAR SBJP 051300Z 11012KT 9999 BKN030 30/20 Q1016;
0120827980999992013010514004-07117-034950FM-15+0066SBJP V0201001N006210090019N0112651N1+03001+02101999999ADDGA1071+009001999GF107991999999999999999999MA1101491999999REMMET051METAR SBJP 051400Z 10012KT 9999 BKN030 30/21 Q1015;
0120827980999992013010515004-07117-034950FM-15+0066SBJP V0201201N006710090019N0112651N1+03201+01901999999ADDGA1071+009001999GF107991999999999999999999MA1101491999999REMMET051METAR SBJP 051500Z 12013KT 9999 BKN030 32/19 Q1015;
0120827980999992013010516004-07117-034950FM-15+0066SBJP V0201101N006712200019N0112651N1+03101+02001999999ADDGA1041+009001999GF104991999999999999999999MA1101391999999REMMET051METAR SBJP 051600Z 11013KT 9999 SCT030 31/20 Q1014;
0128827980999992013010517004-07117-034950FM-15+0066SBJP V0201101N006710075019N0112651N1+03101+02101999999ADDGA1071+007501999GF107991999999999999999999MA1101391999999REMMET059METAR SBJP 051700Z 11013KT 080V140 9999 BKN025 31/21 Q1014;
0120827980999992013010518004-07117-034950FM-15+0066SBJP V0201201N006710075019N0112651N1+02901+02101999999ADDGA1071+007501999GF107991999999999999999999MA1101391999999REMMET051METAR SBJP 051800Z 12013KT 9999 BKN025 29/21 Q1014;
0128827980999992013010519004-07117-034950FM-15+0066SBJP V0201101N006210075019N0112651N1+02901+02101999999ADDGA1071+007501999GF107991999999999999999999MA1101391999999REMMET059METAR SBJP 051900Z 11012KT 080V140 9999 BKN025 29/21 Q1014;
0128827980999992013010520004-07117-034950FM-15+0066SBJP V0201101N005710075019N0112651N1+02801+02101999999ADDGA1071+007501999GF107991999999999999999999MA1101391999999REMMET059METAR SBJP 052000Z 11011KT 080V140 9999 BKN025 28/21 Q1014;
0120827980999992013010521004-07117-034950FM-15+0066SBJP V0201201N005710060019N0112651N1+02701+02101999999ADDGA1071+006001999GF107991999999999999999999MA1101391999999REMMET051METAR SBJP 052100Z 12011KT 9999 BKN020 27/21 Q1014;
0120827980999992013010522004-07117-034950FM-15+0066SBJP V0201101N004612200019N0112651N1+02701+02101999999ADDGA1041+006001999GF104991999999999999999999MA1101491999999REMMET051METAR SBJP 052200Z 11009KT 9999 SCT020 27/21 Q1015;
0120827980999992013010523004-07117-034950FM-15+0066SBJP V0201101N004112200019N0112651N1+02701+02101999999ADDGA1021+006001999GF102991999999999999999999MA1101491999999REMMET051METAR SBJP 052300Z 11008KT 9999 FEW020 27/21 Q1015;
0120827980999992013010600004-07117-034950FM-15+0066SBJP V0201201N003612200019N0112651N1+02701+02101999999ADDGA1021+006001999GF102991999999999999999999MA1101591999999REMMET051METAR SBJP 060000Z 12007KT 9999 FEW020 27/21 Q1016;
0128827980999992013010601004-07117-034950FM-15+0066SBJP V0201101N002110060019N0112651N1+02701+02201999999ADDGA1071+006001999GF107991999999999999999999MA1101591999999REMMET059METAR SBJP 060100Z 11004KT 070V150 9999 BKN020 27/22 Q1016;
0120827980999992013010602004-07117-034950FM-15+0066SBJP V0201201N003612200019N0112651N1+02601+02101999999ADDGA1041+006001999GF104991999999999999999999MA1101491999999REMMET051METAR SBJP 060200Z 12007KT 9999 SCT020 26/21 Q1015;
0120827980999992013010603004-07117-034950FM-15+0066SBJP V0201201N003112200019N0112651N1+02601+02101999999ADDGA1041+006001999GF104991999999999999999999MA1101491999999REMMET051METAR SBJP 060300Z 12006KT 9999 SCT020 26/21 Q1015;
0120827980999992013010604004-07117-034950FM-15+0066SBJP V0201201N003112200019N0112651N1+02601+02101999999ADDGA1041+006001999GF104991999999999999999999MA1101391999999REMMET051METAR SBJP 060400Z 12006KT 9999 SCT020 26/21 Q1014;
0120827980999992013010605004-07117-034950FM-15+0066SBJP V0201601N002610060019N0112651N1+02501+02101999999ADDGA1071+006001999GF107991999999999999999999MA1101291999999REMMET051METAR SBJP 060500Z 16005KT 9999 BKN020 25/21 Q1013;
0120827980999992013010606004-07117-034950FM-15+0066SBJP V0201601N002112200019N0112651N1+02501+02101999999ADDGA1041+006001999GF104991999999999999999999MA1101291999999REMMET051METAR SBJP 060600Z 16004KT 9999 SCT020 25/21 Q1013;
0120827980999992013010607004-07117-034950FM-15+0066SBJP V0201601N002112200019N0112651N1+02501+02101999999ADDGA1041+006001999GF104991999999999999999999MA1101391999999REMMET051METAR SBJP 060700Z 16004KT 9999 SCT020 25/21 Q1014;
0120827980999992013010608004-07117-034950FM-15+0066SBJP V0209999C000012200019N0112651N1+02401+02101999999ADDGA1021+006001999GF102991999999999999999999MA1101391999999REMMET051METAR SBJP 060800Z 00000KT 9999 FEW020 24/21 Q1014;
0120827980999992013010609004-07117-034950FM-15+0066SBJP V0209999C000012200019N0112651N1+02401+02101999999ADDGA1041+006001999GF104991999999999999999999MA1101491999999REMMET051METAR SBJP 060900Z 00000KT 9999 SCT020 24/21 Q1015;
0120827980999992013010610004-07117-034950FM-15+0066SBJP V0201301N004112200019N0112651N1+02701+02101999999ADDGA1041+007501999GF104991999999999999999999MA1101491999999REMMET051METAR SBJP 061000Z 13008KT 9999 SCT025 27/21 Q1015;
0120827980999992013010611004-07117-034950FM-15+0066SBJP V0201101N004612200019N0112651N1+02801+02101999999ADDGA1041+007501999GF104991999999999999999999MA1101491999999REMMET051METAR SBJP 061100Z 11009KT 9999 SCT025 28/21 Q1015;
0120827980999992013010612004-07117-034950FM-15+0066SBJP V0201201N006212200019N0112651N1+02901+02001999999ADDGA1041+007501999GF104991999999999999999999MA1101491999999REMMET051METAR SBJP 061200Z 12012KT 9999 SCT025 29/20 Q1015;
0120827980999992013010613004-07117-034950FM-15+0066SBJP V0201301N006712200019N0112651N1+03001+01901999999ADDGA1041+009001999GF104991999999999999999999MA1101491999999REMMET051METAR SBJP 061300Z 13013KT 9999 SCT030 30/19 Q1015;
0128827980999992013010614004-07117-034950FM-15+0066SBJP V0201301N007212200019N0112651N1+03101+01701999999ADDGA1041+010501999GF104991999999999999999999MA1101491999999REMMET059METAR SBJP 061400Z 13014KT 090V160 9999 SCT035 31/17 Q1015;
0128827980999992013010615004-07117-034950FM-15+0066SBJP V0201101N006212200019N0112651N1+03101+01801999999ADDGA1041+010501999GF104991999999999999999999MA1101391999999REMMET059METAR SBJP 061500Z 11012KT 080V150 9999 SCT035 31/18 Q1014;
0139827980999992013010616004-07117-034950FM-15+0066SBJP V0201201N007712200019N0112651N1+03101+01701999999ADDGA1041+010501999GF104991999999999999999999MA1101291999999OC101441REMMET062METAR SBJP 061600Z 12015G28KT 080V160 9999 SCT035 31/17 Q1013;
0128827980999992013010617004-07117-034950FM-15+0066SBJP V0201201N008212200019N0112651N1+03001+01801999999ADDGA1041+010501999GF104991999999999999999999MA1101191999999REMMET059METAR SBJP 061700Z 12016KT 090V160 9999 SCT035 30/18 Q1012;
0120827980999992013010618004-07117-034950FM-15+0066SBJP V0201201N007712200019N0112651N1+03001+01801999999ADDGA1021+010501999GF102991999999999999999999MA1101191999999REMMET051METAR SBJP 061800Z 12015KT 9999 FEW035 30/18 Q1012;
0120827980999992013010619004-07117-034950FM-15+0066SBJP V0201301N007212200019N0112651N1+02901+02001999999ADDGA1041+009001999GF104991999999999999999999MA1101191999999REMMET051METAR SBJP 061900Z 13014KT 9999 SCT030 29/20 Q1012;
0120827980999992013010620004-07117-034950FM-15+0066SBJP V0201301N007212200019N0112651N1+02801+02001999999ADDGA1041+009001999GF104991999999999999999999MA1101291999999REMMET051METAR SBJP 062000Z 13014KT 9999 SCT030 28/20 Q1013;
0120827980999992013010621004-07117-034950FM-15+0066SBJP V0201401N006212200019N0112651N1+02701+02101999999ADDGA1021+009001999GF102991999999999999999999MA1101291999999REMMET051METAR SBJP 062100Z 14012KT 9999 FEW030 27/21 Q1013;
0120827980999992013010623004-07117-034950FM-15+0066SBJP V0201201N004612200019N0112651N1+02601+02101999999ADDGA1021+007501999GF102991999999999999999999MA1101391999999REMMET051METAR SBJP 062300Z 12009KT 9999 FEW025 26/21 Q1014;
0120827980999992013010700004-07117-034950FM-15+0066SBJP V0201201N003612200019N0112651N1+02601+02101999999ADDGA1021+006001999GF102991999999999999999999MA1101391999999REMMET051METAR SBJP 070000Z 12007KT 9999 FEW020 26/21 Q1014;
0120827980999992013010701004-07117-034950FM-15+0066SBJP V0201201N003112200019N0112651N1+02601+02101999999ADDGA1041+006001999GF104991999999999999999999MA1101391999999REMMET051METAR SBJP 070100Z 12006KT 9999 SCT020 26/21 Q1014;
0120827980999992013010703004-07117-034950FM-15+0066SBJP V0201101N001512200019N0112651N1+02601+02101999999ADDGA1021+006001999GF102991999999999999999999MA1101191999999REMMET051METAR SBJP 070300Z 11003KT 9999 FEW020 26/21 Q1012;
0120827980999992013010704004-07117-034950FM-15+0066SBJP V0209999C000012200019N0112651N1+02601+02101999999ADDGA1041+006001999GF104991999999999999999999MA1101191999999REMMET051METAR SBJP 070400Z 00000KT 9999 SCT020 26/21 Q1012;
0120827980999992013010706004-07117-034950FM-15+0066SBJP V0209999C000012200019N0112651N1+02501+02101999999ADDGA1041+006001999GF104991999999999999999999MA1101191999999REMMET051METAR SBJP 070600Z 00000KT 9999 SCT020 25/21 Q1012;
0120827980999992013010707004-07117-034950FM-15+0066SBJP V0209999C000012200019N0112651N1+02401+02101999999ADDGA1041+006001999GF104991999999999999999999MA1101191999999REMMET051METAR SBJP 070700Z 00000KT 9999 SCT020 24/21 Q1012;
0143827980999992013010708004-07117-034950FM-15+0066SBJP V0201301N001012200019N0112651N1+02501+02201999999ADDGA1021+003001999GA2041+006001999GF104991999999999999999999MA1101291999999REMMET058METAR SBJP 070800Z 13002KT 9999 FEW010 SCT020 25/22 Q1013;
0128827980999992013010710004-07117-034950FM-15+0066SBJP V0201101N002612200019N0112651N1+02801+02201999999ADDGA1021+006001999GF102991999999999999999999MA1101391999999REMMET059METAR SBJP 071000Z 11005KT 070V150 9999 FEW020 28/22 Q1014;
0128827980999992013010711004-07117-034950FM-15+0066SBJP V0201201N005112200019N0112651N1+02901+02101999999ADDGA1041+007501999GF104991999999999999999999MA1101491999999REMMET059METAR SBJP 071100Z 12010KT 090V150 9999 SCT025 29/21 Q1015;
0120827980999992013010712004-07117-034950FM-15+0066SBJP V0201201N005112200019N0112651N1+03001+02101999999ADDGA1041+007501999GF104991999999999999999999MA1101491999999REMMET051METAR SBJP 071200Z 12010KT 9999 SCT025 30/21 Q1015;
0128827980999992013010713004-07117-034950FM-15+0066SBJP V0201101N005712200019N0112651N1+03001+02101999999ADDGA1041+009001999GF104991999999999999999999MA1101391999999REMMET059METAR SBJP 071300Z 11011KT 070V150 9999 SCT030 30/21 Q1014;
0128827980999992013010714004-07117-034950FM-15+0066SBJP V0201001N005712200019N0112651N1+03001+02001999999ADDGA1041+009001999GF104991999999999999999999MA1101391999999REMMET059METAR SBJP 071400Z 10011KT 070V130 9999 SCT030 30/20 Q1014;
0120827980999992013010715004-07117-034950FM-15+0066SBJP V0201101N006212200019N0112651N1+03101+02101999999ADDGA1041+009001999GF104991999999999999999999MA1101291999999REMMET051METAR SBJP 071500Z 11012KT 9999 SCT030 31/21 Q1013;
0139827980999992013010716004-07117-034950FM-15+0066SBJP V0201201N006210090019N0112651N1+03001+02101999999ADDGA1071+009001999GF107991999999999999999999MA1101191999999OC101181REMMET062METAR SBJP 071600Z 12012G23KT 070V160 9999 BKN030 30/21 Q1012;
0120827980999992013010717004-07117-034950FM-15+0066SBJP V0201101N007210090019N0112651N1+03101+02001999999ADDGA1071+009001999GF107991999999999999999999MA1101191999999REMMET051METAR SBJP 071700Z 11014KT 9999 BKN030 31/20 Q1012;
0128827980999992013010718004-07117-034950FM-15+0066SBJP V0201101N006710078019N0112651N1+03001+02001999999ADDGA1071+007801999GF107991999999999999999999MA1101081999999REMMET059METAR SBJP 071800Z 11013KT 080V140 9999 BKN026 30/20 Q1011;
0120827980999992013010719004-07117-034950FM-15+0066SBJP V0201101N005110075019N0112651N1+02901+02101999999ADDGA1071+007501999GF107991999999999999999999MA1101191999999REMMET051METAR SBJP 071900Z 11010KT 9999 BKN025 29/21 Q1012;
0120827980999992013010720004-07117-034950FM-15+0066SBJP V0201201N005710063019N0112651N1+02801+02101999999ADDGA1071+006301999GF107991999999999999999999MA1101191999999REMMET051METAR SBJP 072000Z 12011KT 9999 BKN021 28/21 Q1012;
0120827980999992013010721004-07117-034950FM-15+0066SBJP V0201201N005110060019N0112651N1+02701+02201999999ADDGA1071+006001999GF107991999999999999999999MA1101191999999REMMET051METAR SBJP 072100Z 12010KT 9999 BKN020 27/22 Q1012;
0120827980999992013010722004-07117-034950FM-15+0066SBJP V0201101N005110060019N0112651N1+02701+02101999999ADDGA1071+006001999GF107991999999999999999999MA1101291999999REMMET051METAR SBJP 072200Z 11010KT 9999 BKN020 27/21 Q1013;
0120827980999992013010723004-07117-034950FM-15+0066SBJP V0201101N005110060019N0112651N1+02701+02101999999ADDGA1071+006001999GF107991999999999999999999MA1101391999999REMMET051METAR SBJP 072300Z 11010KT 9999 BKN020 27/21 Q1014;
0120827980999992013010800004-07117-034950FM-15+0066SBJP V0201101N005112200019N0112651N1+02701+02101999999ADDGA1041+006001999GF104991999999999999999999MA1101391999999REMMET051METAR SBJP 080000Z 11010KT 9999 SCT020 27/21 Q1014;
0120827980999992013010801004-07117-034950FM-15+0066SBJP V0201101N005112200019N0112651N1+02701+02101999999ADDGA1041+006001999GF104991999999999999999999MA1101391999999REMMET051METAR SBJP 080100Z 11010KT 9999 SCT020 27/21 Q1014;
0120827980999992013010802004-07117-034950FM-15+0066SBJP V0201201N004112200019N0112651N1+02601+02101999999ADDGA1041+006001999GF104991999999999999999999MA1101291999999REMMET051METAR SBJP 080200Z 12008KT 9999 SCT020 26/21 Q1013;
0120827980999992013010803004-07117-034950FM-15+0066SBJP V0201201N002612200019N0112651N1+02601+02101999999ADDGA1041+006001999GF104991999999999999999999MA1101291999999REMMET051METAR SBJP 080300Z 12005KT 9999 SCT020 26/21 Q1013;
0120827980999992013010804004-07117-034950FM-15+0066SBJP V0201201N002612200019N0112651N1+02501+02101999999ADDGA1021+006001999GF102991999999999999999999MA1101191999999REMMET051METAR SBJP 080400Z 12005KT 9999 FEW020 25/21 Q1012;
0120827980999992013010805004-07117-034950FM-15+0066SBJP V0201201N003112200019N0112651N1+02501+02101999999ADDGA1021+006001999GF102991999999999999999999MA1101191999999REMMET051METAR SBJP 080500Z 12006KT 9999 FEW020 25/21 Q1012;
0120827980999992013010806004-07117-034950FM-15+0066SBJP V0201501N002112200019N0112651N1+02401+02001999999ADDGA1041+006001999GF104991999999999999999999MA1101191999999REMMET051METAR SBJP 080600Z 15004KT 9999 SCT020 24/20 Q1012;
0120827980999992013010807004-07117-034950FM-15+0066SBJP V0201601N002612200019N0112651N1+02401+02101999999ADDGA1021+006001999GF102991999999999999999999MA1101291999999REMMET051METAR SBJP 080700Z 16005KT 9999 FEW020 24/21 Q1013;
0120827980999992013010808004-07117-034950FM-15+0066SBJP V0201701N002612200019N0112651N1+02401+02001999999ADDGA1041+006001999GF104991999999999999999999MA1101391999999REMMET051METAR SBJP 080800Z 17005KT 9999 SCT020 24/20 Q1014;
0120827980999992013010809004-07117-034950FM-15+0066SBJP V0201201N002612200019N0112651N1+02501+02101999999ADDGA1041+006001999GF104991999999999999999999MA1101391999999REMMET051METAR SBJP 080900Z 12005KT 9999 SCT020 25/21 Q1014;
0120827980999992013010810004-07117-034950FM-15+0066SBJP V0201201N006212200019N0112651N1+02801+02001999999ADDGA1041+006001999GF104991999999999999999999MA1101491999999REMMET051METAR SBJP 081000Z 12012KT 9999 SCT020 28/20 Q1015;
0128827980999992013010811004-07117-034950FM-15+0066SBJP V0201201N005710090019N0112651N1+02901+02001999999ADDGA1071+009001999GF107991999999999999999999MA1101491999999REMMET059METAR SBJP 081100Z 12011KT 090V150 9999 BKN030 29/20 Q1015;
0120827980999992013010812004-07117-034950FM-15+0066SBJP V0201101N005710090019N0112651N1+02901+02001999999ADDGA1071+009001999GF107991999999999999999999MA1101491999999REMMET051METAR SBJP 081200Z 11011KT 9999 BKN030 29/20 Q1015;
0128827980999992013010813004-07117-034950FM-15+0066SBJP V0201101N005110108019N0112651N1+03101+01901999999ADDGA1071+010801999GF107991999999999999999999MA1101491999999REMMET059METAR SBJP 081300Z 11010KT 080V150 9999 BKN036 31/19 Q1015;
0128827980999992013010814004-07117-034950FM-15+0066SBJP V0201101N006710099019N0112651N1+03001+01901999999ADDGA1071+009901999GF107991999999999999999999MA1101391999999REMMET059METAR SBJP 081400Z 11013KT 090V150 9999 BKN033 30/19 Q1014;
0120827980999992013010815004-07117-034950FM-15+0066SBJP V0200801N007210090019N0112651N1+02901+02101999999ADDGA1071+009001999GF107991999999999999999999MA1101391999999REMMET051METAR SBJP 081500Z 08014KT 9999 BKN030 29/21 Q1014;
0120827980999992013010816004-07117-034950FM-15+0066SBJP V0201101N005110090019N0112651N1+03001+01901999999ADDGA1071+009001999GF107991999999999999999999MA1101291999999REMMET051METAR SBJP 081600Z 11010KT 9999 BKN030 30/19 Q1013;
0120827980999992013010817004-07117-034950FM-15+0066SBJP V0201101N007212200019N0112651N1+03101+01901999999ADDGA1041+009001999GF104991999999999999999999MA1101191999999REMMET051METAR SBJP 081700Z 11014KT 9999 SCT030 31/19 Q1012;
0120827980999992013010818004-07117-034950FM-15+0066SBJP V0201201N007712200019N0112651N1+03001+01901999999ADDGA1041+009001999GF104991999999999999999999MA1101191999999REMMET051METAR SBJP 081800Z 12015KT 9999 SCT030 30/19 Q1012;
0120827980999992013010819004-07117-034950FM-15+0066SBJP V0201301N007212200019N0112651N1+02901+01901999999ADDGA1041+009001999GF104991999999999999999999MA1101191999999REMMET051METAR SBJP 081900Z 13014KT 9999 SCT030 29/19 Q1012;
0120827980999992013010820004-07117-034950FM-15+0066SBJP V0201301N007212200019N0112651N1+02801+02001999999ADDGA1021+009001999GF102991999999999999999999MA1101191999999REMMET051METAR SBJP 082000Z 13014KT 9999 FEW030 28/20 Q1012;
0120827980999992013010821004-07117-034950FM-15+0066SBJP V0201201N005112200019N0112651N1+02701+01901999999ADDGA1021+009001999GF102991999999999999999999MA1101291999999REMMET051METAR SBJP 082100Z 12010KT 9999 FEW030 27/19 Q1013;
0120827980999992013010822004-07117-034950FM-15+0066SBJP V0201301N003612200019N0112651N1+02701+01901999999ADDGA1041+009001999GF104991999999999999999999MA1101391999999REMMET051METAR SBJP 082200Z 13007KT 9999 SCT030 27/19 Q1014;
0120827980999992013010823004-07117-034950FM-15+0066SBJP V0209999C000012200019N0112651N1+02601+02001999999ADDGA1021+007501999GF102991999999999999999999MA1101391999999REMMET051METAR SBJP 082300Z 00000KT 9999 FEW025 26/20 Q1014;
0120827980999992013010900004-07117-034950FM-15+0066SBJP V0209999C000012200019N0112651N1+02601+02001999999ADDGA1021+007501999GF102991999999999999999999MA1101491999999REMMET051METAR SBJP 090000Z 00000KT 9999 FEW025 26/20 Q1015;
0120827980999992013010901004-07117-034950FM-15+0066SBJP V0209999C000012200019N0112651N1+02501+02001999999ADDGA1021+007501999GF102991999999999999999999MA1101491999999REMMET051METAR SBJP 090100Z 00000KT 9999 FEW025 25/20 Q1015;
0128827980999992013010902004-07117-034950FM-15+0066SBJP V0201101N002112200019N0112651N1+02601+02101999999ADDGA1021+007501999GF102991999999999999999999MA1101391999999REMMET059METAR SBJP 090200Z 11004KT 070V130 9999 FEW025 26/21 Q1014;
0120827980999992013010903004-07117-034950FM-15+0066SBJP V0201001N001512200019N0112651N1+02501+02001999999ADDGA1021+007501999GF102991999999999999999999MA1101391999999REMMET051METAR SBJP 090300Z 10003KT 9999 FEW025 25/20 Q1014;
0120827980999992013010904004-07117-034950FM-15+0066SBJP V0201001N001012200019N0112651N1+02501+02101999999ADDGA1021+006001999GF102991999999999999999999MA1101291999999REMMET051METAR SBJP 090400Z 10002KT 9999 FEW020 25/21 Q1013;
0120827980999992013010905004-07117-034950FM-15+0066SBJP V0209999C000012200019N0112651N1+02501+02101999999ADDGA1041+006001999GF104991999999999999999999MA1101291999999REMMET051METAR SBJP 090500Z 00000KT 9999 SCT020 25/21 Q1013;
0120827980999992013010906004-07117-034950FM-15+0066SBJP V0201001N002112200019N0112651N1+02501+02101999999ADDGA1041+006001999GF104991999999999999999999MA1101291999999REMMET051METAR SBJP 090600Z 10004KT 9999 SCT020 25/21 Q1013;
0120827980999992013010907004-07117-034950FM-15+0066SBJP V0209999C000012200019N0112651N1+02501+02101999999ADDGA1041+006001999GF104991999999999999999999MA1101291999999REMMET051METAR SBJP 090700Z 00000KT 9999 SCT020 25/21 Q1013;
0120827980999992013010908004-07117-034950FM-15+0066SBJP V0200901N002112200019N0112651N1+02501+02001999999ADDGA1041+006001999GF104991999999999999999999MA1101391999999REMMET051METAR SBJP 090800Z 09004KT 9999 SCT020 25/20 Q1014;
0120827980999992013010909004-07117-034950FM-15+0066SBJP V0209999C000010063019N0112651N1+02501+02101999999ADDGA1071+006301999GF107991999999999999999999MA1101391999999REMMET051METAR SBJP 090900Z 00000KT 9999 BKN021 25/21 Q1014;
0120827980999992013010910004-07117-034950FM-15+0066SBJP V0201001N004110060019N0112651N1+02801+02101999999ADDGA1071+006001999GF107991999999999999999999MA1101491999999REMMET051METAR SBJP 091000Z 10008KT 9999 BKN020 28/21 Q1015;
0120827980999992013010911004-07117-034950FM-15+0066SBJP V0201101N005112200019N0112651N1+02801+02001999999ADDGA1041+006001999GF104991999999999999999999MA1101491999999REMMET051METAR SBJP 091100Z 11010KT 9999 SCT020 28/20 Q1015;
0120827980999992013010912004-07117-034950FM-15+0066SBJP V0201001N005112200019N0112651N1+02901+02001999999ADDGA1041+009001999GF104991999999999999999999MA1101491999999REMMET051METAR SBJP 091200Z 10010KT 9999 SCT030 29/20 Q1015;
0120827980999992013010913004-07117-034950FM-15+0066SBJP V0201001N005112200019N0112651N1+03001+01901999999ADDGA1041+009001999GF104991999999999999999999MA1101491999999REMMET051METAR SBJP 091300Z 10010KT 9999 SCT030 30/19 Q1015;
0120827980999992013010914004-07117-034950FM-15+0066SBJP V0201101N005112200019N0112651N1+03101+01901999999ADDGA1021+009001999GF102991999999999999999999MA1101391999999REMMET051METAR SBJP 091400Z 11010KT 9999 FEW030 31/19 Q1014;
0120827980999992013010915004-07117-034950FM-15+0066SBJP V0201101N005112200019N0112651N1+03201+01801999999ADDGA1041+009001999GF104991999999999999999999MA1101391999999REMMET051METAR SBJP 091500Z 11010KT 9999 SCT030 32/18 Q1014;
0120827980999992013010916004-07117-034950FM-15+0066SBJP V0201101N005112200019N0112651N1+03101+01801999999ADDGA1021+009001999GF102991999999999999999999MA1101291999999REMMET051METAR SBJP 091600Z 11010KT 9999 FEW030 31/18 Q1013;
0120827980999992013010917004-07117-034950FM-15+0066SBJP V0201101N005712200019N0112651N1+03101+01801999999ADDGA1021+009001999GF102991999999999999999999MA1101191999999REMMET051METAR SBJP 091700Z 11011KT 9999 FEW030 31/18 Q1012;
0120827980999992013010918004-07117-034950FM-15+0066SBJP V0201201N007212200019N0112651N1+03101+01701999999ADDGA1021+009001999GF102991999999999999999999MA1101191999999REMMET051METAR SBJP 091800Z 12014KT 9999 FEW030 31/17 Q1012;
0120827980999992013010919004-07117-034950FM-15+0066SBJP V0201201N007212200019N0112651N1+03001+01901999999ADDGA1021+009001999GF102991999999999999999999MA1101081999999REMMET051METAR SBJP 091900Z 12014KT 9999 FEW030 30/19 Q1011;
0120827980999992013010920004-07117-034950FM-15+0066SBJP V0201301N007210075019N0112651N1+02801+02001999999ADDGA1071+007501999GF107991999999999999999999MA1101191999999REMMET051METAR SBJP 092000Z 13014KT 9999 BKN025 28/20 Q1012;
0120827980999992013010921004-07117-034950FM-15+0066SBJP V0201301N006212200019N0112651N1+02701+02001999999ADDGA1021+007501999GF102991999999999999999999MA1101191999999REMMET051METAR SBJP 092100Z 13012KT 9999 FEW025 27/20 Q1012;
0120827980999992013010922004-07117-034950FM-15+0066SBJP V0201201N005112200019N0112651N1+02701+02001999999ADDGA1021+007501999GF102991999999999999999999MA1101191999999REMMET051METAR SBJP 092200Z 12010KT 9999 FEW025 27/20 Q1012;
0120827980999992013010923004-07117-034950FM-15+0066SBJP V0201201N004112200019N0112651N1+02701+02001999999ADDGA1021+007501999GF102991999999999999999999MA1101291999999REMMET051METAR SBJP 092300Z 12008KT 9999 FEW025 27/20 Q1013;
0120827980999992013011000004-07117-034950FM-15+0066SBJP V0201201N003112200019N0112651N1+02601+02101999999ADDGA1021+007501999GF102991999999999999999999MA1101391999999REMMET051METAR SBJP 100000Z 12006KT 9999 FEW025 26/21 Q1014;
0120827980999992013011001004-07117-034950FM-15+0066SBJP V0201101N003612200019N0112651N1+02601+02001999999ADDGA1021+006001999GF102991999999999999999999MA1101291999999REMMET051METAR SBJP 100100Z 11007KT 9999 FEW020 26/20 Q1013;
0128827980999992013011002004-07117-034950FM-15+0066SBJP V0201101N002612200019N0112651N1+02601+02101999999ADDGA1041+006001999GF104991999999999999999999MA1101291999999REMMET059METAR SBJP 100200Z 11005KT 080V140 9999 SCT020 26/21 Q1013;
0120827980999992013011003004-07117-034950FM-15+0066SBJP V0201201N003612200019N0112651N1+02601+02001999999ADDGA1021+006001999GF102991999999999999999999MA1101191999999REMMET051METAR SBJP 100300Z 12007KT 9999 FEW020 26/20 Q1012;
0120827980999992013011004004-07117-034950FM-15+0066SBJP V0201101N003112200019N0112651N1+02601+02101999999ADDGA1021+006001999GF102991999999999999999999MA1101191999999REMMET051METAR SBJP 100400Z 11006KT 9999 FEW020 26/21 Q1012;
0120827980999992013011005004-07117-034950FM-15+0066SBJP V0201101N002112200019N0112651N1+02601+02101999999ADDGA1021+006001999GF102991999999999999999999MA1101191999999REMMET051METAR SBJP 100500Z 11004KT 9999 FEW020 26/21 Q1012;
0120827980999992013011006004-07117-034950FM-15+0066SBJP V0209999C000012200019N0112651N1+02601+02101999999ADDGA1021+006001999GF102991999999999999999999MA1101191999999REMMET051METAR SBJP 100600Z 00000KT 9999 FEW020 26/21 Q1012;
0120827980999992013011007004-07117-034950FM-15+0066SBJP V0209999C000012200019N0112651N1+02501+02101999999ADDGA1021+006001999GF102991999999999999999999MA1101191999999REMMET051METAR SBJP 100700Z 00000KT 9999 FEW020 25/21 Q1012;
0120827980999992013011008004-07117-034950FM-15+0066SBJP V0209999C000012200019N0112651N1+02501+02101999999ADDGA1041+006001999GF104991999999999999999999MA1101291999999REMMET051METAR SBJP 100800Z 00000KT 9999 SCT020 25/21 Q1013;
0120827980999992013011009004-07117-034950FM-15+0066SBJP V0209999C000012200019N0112651N1+02501+02101999999ADDGA1021+006001999GF102991999999999999999999MA1101291999999REMMET051METAR SBJP 100900Z 00000KT 9999 FEW020 25/21 Q1013;
0120827980999992013011010004-07117-034950FM-15+0066SBJP V0201701N002112200019N0112651N1+02701+02101999999ADDGA1041+007501999GF104991999999999999999999MA1101291999999REMMET051METAR SBJP 101000Z 17004KT 9999 SCT025 27/21 Q1013;
0120827980999992013011011004-07117-034950FM-15+0066SBJP V0201101N004110075019N0112651N1+02901+02101999999ADDGA1071+007501999GF107991999999999999999999MA1101391999999REMMET051METAR SBJP 101100Z 11008KT 9999 BKN025 29/21 Q1014;
0120827980999992013011012004-07117-034950FM-15+0066SBJP V0201201N006210075019N0112651N1+03001+02101999999ADDGA1071+007501999GF107991999999999999999999MA1101291999999REMMET051METAR SBJP 101200Z 12012KT 9999 BKN025 30/21 Q1013;
0120827980999992013011013004-07117-034950FM-15+0066SBJP V0201201N006710090019N0112651N1+03101+02001999999ADDGA1071+009001999GF107991999999999999999999MA1101291999999REMMET051METAR SBJP 101300Z 12013KT 9999 BKN030 31/20 Q1013;
0120827980999992013011014004-07117-034950FM-15+0066SBJP V0201101N005110090019N0112651N1+03101+02001999999ADDGA1071+009001999GF107991999999999999999999MA1101291999999REMMET051METAR SBJP 101400Z 11010KT 9999 BKN030 31/20 Q1013;
0120827980999992013011015004-07117-034950FM-15+0066SBJP V0201101N006210090019N0112651N1+03101+01901999999ADDGA1071+009001999GF107991999999999999999999MA1101191999999REMMET051METAR SBJP 101500Z 11012KT 9999 BKN030 31/19 Q1012;
0120827980999992013011016004-07117-034950FM-15+0066SBJP V0201201N006712200019N0112651N1+03101+01901999999ADDGA1041+010501999GF104991999999999999999999MA1101081999999REMMET051METAR SBJP 101600Z 12013KT 9999 SCT035 31/19 Q1011;
0120827980999992013011017004-07117-034950FM-15+0066SBJP V0201201N007712200019N0112651N1+03101+01901999999ADDGA1041+010501999GF104991999999999999999999MA1101081999999REMMET051METAR SBJP 101700Z 12015KT 9999 SCT035 31/19 Q1011;
0120827980999992013011018004-07117-034950FM-15+0066SBJP V0201201N007212200019N0112651N1+03001+01901999999ADDGA1041+010501999GF104991999999999999999999MA1101021999999REMMET051METAR SBJP 101800Z 12014KT 9999 SCT035 30/19 Q1010;
0120827980999992013011019004-07117-034950FM-15+0066SBJP V0201201N007212200019N0112651N1+02901+01901999999ADDGA1021+009001999GF102991999999999999999999MA1101021999999REMMET051METAR SBJP 101900Z 12014KT 9999 FEW030 29/19 Q1010;
0120827980999992013011020004-07117-034950FM-15+0066SBJP V0201201N007212200019N0112651N1+02801+01901999999ADDGA1021+009001999GF102991999999999999999999MA1101081999999REMMET051METAR SBJP 102000Z 12014KT 9999 FEW030 28/19 Q1011;
0072827980999992013011021004-07117-034950FM-15+0066SBJP V0201101N005719999999Y0099001N1+02701+02001999999ADDMA1101081999999REMMET045METAR SBJP 102100Z 11011KT CAVOK 27/20 Q1011;
0120827980999992013011022004-07117-034950FM-15+0066SBJP V0201101N005112200019N0112651N1+02701+01901999999ADDGA1021+006001999GF102991999999999999999999MA1101081999999REMMET051METAR SBJP 102200Z 11010KT 9999 FEW020 27/19 Q1011;
0120827980999992013011023004-07117-034950FM-15+0066SBJP V0201101N003612200019N0112651N1+02701+02001999999ADDGA1021+006001999GF102991999999999999999999MA1101191999999REMMET051METAR SBJP 102300Z 11007KT 9999 FEW020 27/20 Q1012;
0120827980999992013011100004-07117-034950FM-15+0066SBJP V0201101N003612200019N0112651N1+02601+02001999999ADDGA1021+006001999GF102991999999999999999999MA1101291999999REMMET051METAR SBJP 110000Z 11007KT 9999 FEW020 26/20 Q1013;
0120827980999992013011101004-07117-034950FM-15+0066SBJP V0201101N004112200019N0112651N1+02601+02001999999ADDGA1041+006001999GF104991999999999999999999MA1101291999999REMMET051METAR SBJP 110100Z 11008KT 9999 SCT020 26/20 Q1013;
0120827980999992013011102004-07117-034950FM-15+0066SBJP V0201201N003112200019N0112651N1+02601+02001999999ADDGA1041+006001999GF104991999999999999999999MA1101191999999REMMET051METAR SBJP 110200Z 12006KT 9999 SCT020 26/20 Q1012;
0120827980999992013011103004-07117-034950FM-15+0066SBJP V0201201N002612200019N0112651N1+02601+02101999999ADDGA1041+006001999GF104991999999999999999999MA1101191999999REMMET051METAR SBJP 110300Z 12005KT 9999 SCT020 26/21 Q1012;
0120827980999992013011104004-07117-034950FM-15+0066SBJP V0201301N001012200019N0112651N1+02501+02201999999ADDGA1021+005401999GF102991999999999999999999MA1101081999999REMMET051METAR SBJP 110400Z 13002KT 9999 FEW018 25/22 Q1011;
0120827980999992013011105004-07117-034950FM-15+0066SBJP V0200801N001512200019N0112651N1+02501+02101999999ADDGA1021+006001999GF102991999999999999999999MA1101081999999REMMET051METAR SBJP 110500Z 08003KT 9999 FEW020 25/21 Q1011;
0120827980999992013011106004-07117-034950FM-15+0066SBJP V0201001N001512200019N0112651N1+02501+02101999999ADDGA1021+006001999GF102991999999999999999999MA1101081999999REMMET051METAR SBJP 110600Z 10003KT 9999 FEW020 25/21 Q1011;
0120827980999992013011107004-07117-034950FM-15+0066SBJP V0201001N002612200019N0112651N1+02401+02101999999ADDGA1021+006001999GF102991999999999999999999MA1101081999999REMMET051METAR SBJP 110700Z 10005KT 9999 FEW020 24/21 Q1011;
0120827980999992013011108004-07117-034950FM-15+0066SBJP V0209999C000012200019N0112651N1+02401+02101999999ADDGA1021+006001999GF102991999999999999999999MA1101081999999REMMET051METAR SBJP 110800Z 00000KT 9999 FEW020 24/21 Q1011;
0120827980999992013011109004-07117-034950FM-15+0066SBJP V0209999C000012200019N0112651N1+02401+02101999999ADDGA1041+006001999GF104991999999999999999999MA1101081999999REMMET051METAR SBJP 110900Z 00000KT 9999 SCT020 24/21 Q1011;
0120827980999992013011110004-07117-034950FM-15+0066SBJP V0209999C000012200019N0112651N1+02601+02101999999ADDGA1021+007501999GF102991999999999999999999MA1101191999999REMMET051METAR SBJP 111000Z 00000KT 9999 FEW025 26/21 Q1012;
0120827980999992013011111004-07117-034950FM-15+0066SBJP V0201001N005712200019N0112651N1+02801+02001999999ADDGA1041+007501999GF104991999999999999999999MA1101191999999REMMET051METAR SBJP 111100Z 10011KT 9999 SCT025 28/20 Q1012;
0120827980999992013011112004-07117-034950FM-15+0066SBJP V0200901N005712200019N0112651N1+03001+02001999999ADDGA1041+007501999GF104991999999999999999999MA1101191999999REMMET051METAR SBJP 111200Z 09011KT 9999 SCT025 30/20 Q1012;
0120827980999992013011113004-07117-034950FM-15+0066SBJP V0200901N006212200019N0112651N1+03101+01901999999ADDGA1041+009001999GF104991999999999999999999MA1101191999999REMMET051METAR SBJP 111300Z 09012KT 9999 SCT030 31/19 Q1012;
0120827980999992013011114004-07117-034950FM-15+0066SBJP V0200801N007212200019N0112651N1+03101+01901999999ADDGA1041+009001999GF104991999999999999999999MA1101191999999REMMET051METAR SBJP 111400Z 08014KT 9999 SCT030 31/19 Q1012;
0120827980999992013011115004-07117-034950FM-15+0066SBJP V0200801N006712200019N0112651N1+03101+02001999999ADDGA1041+010501999GF104991999999999999999999MA1101081999999REMMET051METAR SBJP 111500Z 08013KT 9999 SCT035 31/20 Q1011;
0128827980999992013011116004-07117-034950FM-15+0066SBJP V0200901N005710090019N0112651N1+03101+01901999999ADDGA1071+009001999GF107991999999999999999999MA1101081999999REMMET059METAR SBJP 111600Z 09011KT 050V120 9999 BKN030 31/19 Q1011;
0128827980999992013011117004-07117-034950FM-15+0066SBJP V0201001N006712200019N0112651N1+03101+01801999999ADDGA1041+009001999GF104991999999999999999999MA1101021999999REMMET059METAR SBJP 111700Z 10013KT 060V120 9999 SCT030 31/18 Q1010;
0128827980999992013011118004-07117-034950FM-15+0066SBJP V0200801N006710090019N0112651N1+03001+02001999999ADDGA1071+009001999GF107991999999999999999999MA1100911999999REMMET059METAR SBJP 111800Z 08013KT 050V110 9999 BKN030 30/20 Q1009;
0120827980999992013011119004-07117-034950FM-15+0066SBJP V0201101N006212200019N0112651N1+02901+02001999999ADDGA1041+009001999GF104991999999999999999999MA1101021999999REMMET051METAR SBJP 111900Z 11012KT 9999 SCT030 29/20 Q1010;
0120827980999992013011120004-07117-034950FM-15+0066SBJP V0201101N005712200019N0112651N1+02801+02001999999ADDGA1041+009001999GF104991999999999999999999MA1101021999999REMMET051METAR SBJP 112000Z 11011KT 9999 SCT030 28/20 Q1010;
0120827980999992013011121004-07117-034950FM-15+0066SBJP V0201101N004612200019N0112651N1+02701+02101999999ADDGA1041+007501999GF104991999999999999999999MA1101021999999REMMET051METAR SBJP 112100Z 11009KT 9999 SCT025 27/21 Q1010;
0120827980999992013011122004-07117-034950FM-15+0066SBJP V0201101N004612200019N0112651N1+02701+02101999999ADDGA1041+006001999GF104991999999999999999999MA1101081999999REMMET051METAR SBJP 112200Z 11009KT 9999 SCT020 27/21 Q1011;
0120827980999992013011123004-07117-034950FM-15+0066SBJP V0201101N004112200019N0112651N1+02701+02101999999ADDGA1041+006001999GF104991999999999999999999MA1101081999999REMMET051METAR SBJP 112300Z 11008KT 9999 SCT020 27/21 Q1011;
0120827980999992013011200004-07117-034950FM-15+0066SBJP V0201101N003112200019N0112651N1+02701+02101999999ADDGA1041+006001999GF104991999999999999999999MA1101191999999REMMET051METAR SBJP 120000Z 11006KT 9999 SCT020 27/21 Q1012;
0128827980999992013011201004-07117-034950FM-15+0066SBJP V0201101N004112200019N0112651N1+02701+02101999999ADDGA1041+006001999GF104991999999999999999999MA1101191999999REMMET059METAR SBJP 120100Z 11008KT 070V150 9999 SCT020 27/21 Q1012;
0128827980999992013011202004-07117-034950FM-15+0066SBJP V0201101N002112200019N0112651N1+02601+02101999999ADDGA1041+006001999GF104991999999999999999999MA1101191999999REMMET059METAR SBJP 120200Z 11004KT 070V130 9999 SCT020 26/21 Q1012;
0151827980999992013011203004-07117-034950FM-15+0066SBJP V0201201N002112200019N0112651N1+02601+02101999999ADDGA1041+006001999GA2041+021001999GF104991999999999999999999MA1101081999999REMMET066METAR SBJP 120300Z 12004KT 080V150 9999 SCT020 SCT070 26/21 Q1011;
0120827980999992013011204004-07117-034950FM-15+0066SBJP V0201201N002612200019N0112651N1+02601+02101999999ADDGA1041+006001999GF104991999999999999999999MA1101081999999REMMET051METAR SBJP 120400Z 12005KT 9999 SCT020 26/21 Q1011;
0120827980999992013011205004-07117-034950FM-15+0066SBJP V0209999C000012200019N0112651N1+02501+02101999999ADDGA1021+006001999GF102991999999999999999999MA1101081999999REMMET051METAR SBJP 120500Z 00000KT 9999 FEW020 25/21 Q1011;
0143827980999992013011206004-07117-034950FM-15+0066SBJP V0209999C000010060019N0112651N1+02501+02101999999ADDGA1071+006001999GA2071+021001999GF107991999999999999999999MA1101021999999REMMET058METAR SBJP 120600Z 00000KT 9999 BKN020 BKN070 25/21 Q1010;
0120827980999992013011207004-07117-034950FM-15+0066SBJP V0201101N004110054019N0112651N1+02401+02201999999ADDGA1071+005401999GF107991999999999999999999MA1101021999999REMMET051METAR SBJP 120700Z 11008KT 9999 BKN018 24/22 Q1010;
0143827980999992013011208004-07117-034950FM-15+0066SBJP V0201201N003110054019N0112651N1+02401+02201999999ADDGA1071+005401999GA2071+021001999GF107991999999999999999999MA1101081999999REMMET058METAR SBJP 120800Z 12006KT 9999 BKN018 BKN070 24/22 Q1011;
0120827980999992013011209004-07117-034950FM-15+0066SBJP V0201201N003612200019N0112651N1+02501+02201999999ADDGA1041+005401999GF104991999999999999999999MA1101081999999REMMET051METAR SBJP 120900Z 12007KT 9999 SCT018 25/22 Q1011;
0120827980999992013011210004-07117-034950FM-15+0066SBJP V0201201N004612200019N0112651N1+02701+02201999999ADDGA1041+006001999GF104991999999999999999999MA1101191999999REMMET051METAR SBJP 121000Z 12009KT 9999 SCT020 27/22 Q1012;
0120827980999992013011211004-07117-034950FM-15+0066SBJP V0201101N006212200019N0112651N1+02801+02101999999ADDGA1041+007501999GF104991999999999999999999MA1101191999999REMMET051METAR SBJP 121100Z 11012KT 9999 SCT025 28/21 Q1012;
0153827980999992013011212004-07117-034950FM-15+0066SBJP V0201201N006210060019N0112651N1+02501+02301999999ADDGA1071+006001999GA2071+021001999GF107991999999999999999999MA1101191999999MW1611REMMET062METAR SBJP 121200Z 12012KT 9999 -RA BKN020 BKN070 25/23 Q1012;
0153827980999992013011213004-07117-034950FM-15+0066SBJP V0201201N004610060019N0060001N1+02601+02301999999ADDGA1071+006001999GA2071+021001999GF107991999999999999999999MA1101191999999MW1611REMMET062METAR SBJP 121300Z 12009KT 6000 -RA BKN020 BKN070 26/23 Q1012;
0136827980999992013011214004-07117-034950FM-15+0066SBJP V0201101N00721006001CN0112651N1+02801+02201999999ADDGA1071+006001999GA2041+021001999MA1101191999999REMMET058METAR SBJP 121400Z 11014KT 9999 BKN020 SCT070 28/22 Q1012;EQDQ01+000042SCOTCV
0128827980999992013011215004-07117-034950FM-15+0066SBJP V0201101N007712200019N0112651N1+02901+02101999999ADDGA1041+007501999GF104991999999999999999999MA1101081999999REMMET059METAR SBJP 121500Z 11015KT 080V140 9999 SCT025 29/21 Q1011;
0131827980999992013011216004-07117-034950FM-15+0066SBJP V0201301N008710090019N0112651N1+03001+02001999999ADDGA1071+009001999GF107991999999999999999999MA1101081999999OC101391REMMET054METAR SBJP 121600Z 13017G27KT 9999 BKN030 30/20 Q1011;
0120827980999992013011217004-07117-034950FM-15+0066SBJP V0201301N008710090019N0112651N1+03001+02001999999ADDGA1071+009001999GF107991999999999999999999MA1101021999999REMMET051METAR SBJP 121700Z 13017KT 9999 BKN030 30/20 Q1010;
0139827980999992013011218004-07117-034950FM-15+0066SBJP V0201301N008210078019N0112651N1+03001+02101999999ADDGA1071+007801999GF107991999999999999999999MA1101021999999OC101341REMMET062METAR SBJP 121800Z 13016G26KT 090V160 9999 BKN026 30/21 Q1010;
0120827980999992013011219004-07117-034950FM-15+0066SBJP V0201301N007710090019N0112651N1+02901+02001999999ADDGA1071+009001999GF107991999999999999999999MA1101021999999REMMET051METAR SBJP 121900Z 13015KT 9999 BKN030 29/20 Q1010;
0120827980999992013011220004-07117-034950FM-15+0066SBJP V0201401N007212200019N0112651N1+02701+02201999999ADDGA1041+007801999GF104991999999999999999999MA1101081999999REMMET051METAR SBJP 122000Z 14014KT 9999 SCT026 27/22 Q1011;
0120827980999992013011221004-07117-034950FM-15+0066SBJP V0201501N004612200019N0112651N1+02701+02201999999ADDGA1021+006001999GF102991999999999999999999MA1101081999999REMMET051METAR SBJP 122100Z 15009KT 9999 FEW020 27/22 Q1011;
0120827980999992013011222004-07117-034950FM-15+0066SBJP V0201501N005112200019N0112651N1+02601+02101999999ADDGA1041+009001999GF104991999999999999999999MA1101191999999REMMET051METAR SBJP 122200Z 15010KT 9999 SCT030 26/21 Q1012;
0120827980999992013011223004-07117-034950FM-15+0066SBJP V0201501N003112200019N0112651N1+02601+02201999999ADDGA1021+009001999GF102991999999999999999999MA1101191999999REMMET051METAR SBJP 122300Z 15006KT 9999 FEW030 26/22 Q1012;
0072827980999992013011300004-07117-034950FM-15+0066SBJP V0201501N003119999999Y0099001N1+02501+02201999999ADDMA1101291999999REMMET045METAR SBJP 130000Z 15006KT CAVOK 25/22 Q1013;
0072827980999992013011301004-07117-034950FM-15+0066SBJP V0209999C000019999999Y0099001N1+02501+02201999999ADDMA1101291999999REMMET045METAR SBJP 130100Z 00000KT CAVOK 25/22 Q1013;
0120827980999992013011302004-07117-034950FM-15+0066SBJP V0209999C000012200019N0112651N1+02501+02201999999ADDGA1041+006001999GF104991999999999999999999MA1101291999999REMMET051METAR SBJP 130200Z 00000KT 9999 SCT020 25/22 Q1013;
0120827980999992013011303004-07117-034950FM-15+0066SBJP V0201601N003112200019N0112651N1+02501+02101999999ADDGA1021+006001999GF102991999999999999999999MA1101191999999REMMET051METAR SBJP 130300Z 16006KT 9999 FEW020 25/21 Q1012;
0120827980999992013011304004-07117-034950FM-15+0066SBJP V0201601N003612200019N0112651N1+02501+02101999999ADDGA1041+006001999GF104991999999999999999999MA1101081999999REMMET051METAR SBJP 130400Z 16007KT 9999 SCT020 25/21 Q1011;
0120827980999992013011305004-07117-034950FM-15+0066SBJP V0201501N002612200019N0112651N1+02501+02201999999ADDGA1041+006001999GF104991999999999999999999MA1101081999999REMMET051METAR SBJP 130500Z 15005KT 9999 SCT020 25/22 Q1011;
0120827980999992013011306004-07117-034950FM-15+0066SBJP V0201601N002112200019N0112651N1+02401+02101999999ADDGA1041+006001999GF104991999999999999999999MA1101081999999REMMET051METAR SBJP 130600Z 16004KT 9999 SCT020 24/21 Q1011;
0120827980999992013011307004-07117-034950FM-15+0066SBJP V0209999C000012200019N0112651N1+02401+02101999999ADDGA1041+006001999GF104991999999999999999999MA1101081999999REMMET051METAR SBJP 130700Z 00000KT 9999 SCT020 24/21 Q1011;
0120827980999992013011308004-07117-034950FM-15+0066SBJP V0209999C000012200019N0112651N1+02401+02101999999ADDGA1041+006001999GF104991999999999999999999MA1101081999999REMMET051METAR SBJP 130800Z 00000KT 9999 SCT020 24/21 Q1011;
0120827980999992013011309004-07117-034950FM-15+0066SBJP V0209999C000012200019N0112651N1+02501+02201999999ADDGA1041+006001999GF104991999999999999999999MA1101191999999REMMET051METAR SBJP 130900Z 00000KT 9999 SCT020 25/22 Q1012;
0143827980999992013011310004-07117-034950FM-15+0066SBJP V0209999C000012200019N0112651N1+02601+02301999999ADDGA1041+006001999GA2041+021001999GF104991999999999999999999MA1101191999999REMMET058METAR SBJP 131000Z 00000KT 9999 SCT020 SCT070 26/23 Q1012;
0143827980999992013011311004-07117-034950FM-15+0066SBJP V0201401N006710210019N0112651N1+02701+02201999999ADDGA1041+004201999GA2071+021001999GF107991999999999999999999MA1101191999999REMMET058METAR SBJP 131100Z 14013KT 9999 SCT014 BKN070 27/22 Q1012;
0153827980999992013011312004-07117-034950FM-15+0066SBJP V0201201N005110045019N0080001N1+02701+02301999999ADDGA1071+004501999GA2081+021001999GF108991999999999999999999MA1101191999999MW1611REMMET062METAR SBJP 131200Z 12010KT 8000 -RA BKN015 OVC070 27/23 Q1012;
0151827980999992013011313004-07117-034950FM-15+0066SBJP V0201101N006210069019N0112651N1+02901+02201999999ADDGA1071+006901999GA2071+021001999GF107991999999999999999999MA1101191999999REMMET066METAR SBJP 131300Z 11012KT 080V140 9999 BKN023 BKN070 29/22 Q1012;
0144827980999992013011314004-07117-034950FM-15+0066SBJP V0201101N00671006901CN0112651N1+03001+02101999999ADDGA1071+006901999GA2041+021001999MA1101081999999REMMET066METAR SBJP 131400Z 11013KT 080V140 9999 BKN023 SCT070 30/21 Q1011;EQDQ01+000042SCOTCV
0144827980999992013011315004-07117-034950FM-15+0066SBJP V0201101N00571006901CN0112651N1+02901+02301999999ADDGA1071+006901999GA2041+021001999MA1101081999999REMMET066METAR SBJP 131500Z 11011KT 090V150 9999 BKN023 SCT070 29/23 Q1011;EQDQ01+000042SCOTCV
0154827980999992013011316004-07117-034950FM-15+0066SBJP V0201101N005110036019N0060001N1+02801+02401999999ADDGA1071+003601999GA2071+021001999GF107991999999999999999999MA1101081999999MW1161REMMET063METAR SBJP 131600Z 11010KT 6000 VCSH BKN012 BKN070 28/24 Q1011;
0166827980999992013011317004-07117-034950FM-15+0066SBJP V0201301N007210060019N0112651N1+02801+02201999999ADDGA1021+004801999GA2071+006001999GA3071+021001999GF107991999999999999999999MA1101021999999REMMET065METAR SBJP 131700Z 13014KT 9999 FEW016 BKN020 BKN070 28/22 Q1010;
0120827980999992013011318004-07117-034950FM-15+0066SBJP V0201201N006710060019N0112651N1+02801+02201999999ADDGA1071+006001999GF107991999999999999999999MA1101021999999REMMET051METAR SBJP 131800Z 12013KT 9999 BKN020 28/22 Q1010;
0153827980999992013011319004-07117-034950FM-15+0066SBJP V0201501N008210060019N0045001N1+02601+02301999999ADDGA1041+003001999GA2071+006001999GF107991999999999999999999MA1101081999999MW1611REMMET062METAR SBJP 131900Z 15016KT 4500 -RA SCT010 BKN020 26/23 Q1011;
0176827980999992013011320004-07117-034950FM-15+0066SBJP V0201401N005110048019N0030001N1+02501+02301999999ADDGA1041+002101999GA2071+004801999GA3081+021001999GF108991999999999999999999MA1101081999999MW1611REMMET069METAR SBJP 132000Z 14010KT 3000 -RA SCT007 BKN016 OVC070 25/23 Q1011;
0143827980999992013011321004-07117-034950FM-15+0066SBJP V0201101N005110030019N0112651N1+02501+02301999999ADDGA1071+003001999GA2071+021001999GF107991999999999999999999MA1101081999999REMMET058METAR SBJP 132100Z 11010KT 9999 BKN010 BKN070 25/23 Q1011;
0143827980999992013011322004-07117-034950FM-15+0066SBJP V0201201N003110210019N0112651N1+02501+02301999999ADDGA1041+004501999GA2071+021001999GF107991999999999999999999MA1101081999999REMMET058METAR SBJP 132200Z 12006KT 9999 SCT015 BKN070 25/23 Q1011;
0143827980999992013011323004-07117-034950FM-15+0066SBJP V0209999C000010210019N0112651N1+02601+02301999999ADDGA1041+006001999GA2071+021001999GF107991999999999999999999MA1101191999999REMMET058METAR SBJP 132300Z 00000KT 9999 SCT020 BKN070 26/23 Q1012;
0143827980999992013011400004-07117-034950FM-15+0066SBJP V0201101N002110210019N0112651N1+02501+02201999999ADDGA1041+003001999GA2081+021001999GF108991999999999999999999MA1101191999999REMMET058METAR SBJP 140000Z 11004KT 9999 SCT010 OVC070 25/22 Q1012;
0153827980999992013011401004-07117-034950FM-15+0066SBJP V0201601N003610045019N0060001N1+02501+02301999999ADDGA1071+004501999GA2081+021001999GF108991999999999999999999MA1101191999999MW1611REMMET062METAR SBJP 140100Z 16007KT 6000 -RA BKN015 OVC070 25/23 Q1012;
0143827980999992013011402004-07117-034950FM-15+0066SBJP V0201401N003110057019N0112651N1+02501+02201999999ADDGA1071+005701999GA2071+021001999GF107991999999999999999999MA1101191999999REMMET058METAR SBJP 140200Z 14006KT 9999 BKN019 BKN070 25/22 Q1012;
0143827980999992013011403004-07117-034950FM-15+0066SBJP V0201701N002610060019N0112651N1+02501+02201999999ADDGA1071+006001999GA2071+021001999GF107991999999999999999999MA1101081999999REMMET058METAR SBJP 140300Z 17005KT 9999 BKN020 BKN070 25/22 Q1011;
0143827980999992013011404004-07117-034950FM-15+0066SBJP V0201601N001512200019N0112651N1+02501+02201999999ADDGA1041+006001999GA2041+021001999GF104991999999999999999999MA1101081999999REMMET058METAR SBJP 140400Z 16003KT 9999 SCT020 SCT070 25/22 Q1011;
0143827980999992013011405004-07117-034950FM-15+0066SBJP V0209999C000012200019N0112651N1+02501+02201999999ADDGA1021+006001999GA2041+021001999GF104991999999999999999999MA1101081999999REMMET058METAR SBJP 140500Z 00000KT 9999 FEW020 SCT070 25/22 Q1011;
0143827980999992013011406004-07117-034950FM-15+0066SBJP V0201601N000512200019N0112651N1+02501+02201999999ADDGA1021+006001999GA2041+021001999GF104991999999999999999999MA1101081999999REMMET058METAR SBJP 140600Z 16001KT 9999 FEW020 SCT070 25/22 Q1011;
0143827980999992013011407004-07117-034950FM-15+0066SBJP V0201601N000512200019N0112651N1+02501+02101999999ADDGA1021+006001999GA2041+021001999GF104991999999999999999999MA1101081999999REMMET058METAR SBJP 140700Z 16001KT 9999 FEW020 SCT070 25/21 Q1011;
0143827980999992013011408004-07117-034950FM-15+0066SBJP V0201701N001012200019N0112651N1+02501+02201999999ADDGA1021+006001999GA2041+021001999GF104991999999999999999999MA1101191999999REMMET058METAR SBJP 140800Z 17002KT 9999 FEW020 SCT070 25/22 Q1012;
0143827980999992013011409004-07117-034950FM-15+0066SBJP V0209999C000012200019N0112651N1+02501+02201999999ADDGA1021+006001999GA2041+021001999GF104991999999999999999999MA1101191999999REMMET058METAR SBJP 140900Z 00000KT 9999 FEW020 SCT070 25/22 Q1012;
0143827980999992013011410004-07117-034950FM-15+0066SBJP V0209999C000010210019N0112651N1+02601+02201999999ADDGA1041+006001999GA2071+021001999GF107991999999999999999999MA1101291999999REMMET058METAR SBJP 141000Z 00000KT 9999 SCT020 BKN070 26/22 Q1013;
0143827980999992013011411004-07117-034950FM-15+0066SBJP V0200701N001010054019N0112651N1+02601+02301999999ADDGA1071+005401999GA2071+021001999GF107991999999999999999999MA1101291999999REMMET058METAR SBJP 141100Z 07002KT 9999 BKN018 BKN070 26/23 Q1013;
0143827980999992013011412004-07117-034950FM-15+0066SBJP V0201401N006210060019N0112651N1+02801+02201999999ADDGA1071+006001999GA2071+021001999GF107991999999999999999999MA1101191999999REMMET058METAR SBJP 141200Z 14012KT 9999 BKN020 BKN070 28/22 Q1012;
0143827980999992013011413004-07117-034950FM-15+0066SBJP V0201401N006210270019N0112651N1+03001+02101999999ADDGA1041+006001999GA2071+027001999GF107991999999999999999999MA1101191999999REMMET058METAR SBJP 141300Z 14012KT 9999 SCT020 BKN090 30/21 Q1012;
0120827980999992013011414004-07117-034950FM-15+0066SBJP V0201201N006212200019N0112651N1+03001+02101999999ADDGA1041+009001999GF104991999999999999999999MA1101191999999REMMET051METAR SBJP 141400Z 12012KT 9999 SCT030 30/21 Q1012;
0120827980999992013011415004-07117-034950FM-15+0066SBJP V0201301N006712200019N0112651N1+03001+02001999999ADDGA1041+009001999GF104991999999999999999999MA1101081999999REMMET051METAR SBJP 141500Z 13013KT 9999 SCT030 30/20 Q1011;
0120827980999992013011416004-07117-034950FM-15+0066SBJP V0201301N006210090019N0112651N1+03001+02001999999ADDGA1071+009001999GF107991999999999999999999MA1101081999999REMMET051METAR SBJP 141600Z 13012KT 9999 BKN030 30/20 Q1011;
0120827980999992013011417004-07117-034950FM-15+0066SBJP V0201101N007210090019N0112651N1+03001+02001999999ADDGA1071+009001999GF107991999999999999999999MA1101021999999REMMET051METAR SBJP 141700Z 11014KT 9999 BKN030 30/20 Q1010;
0143827980999992013011418004-07117-034950FM-15+0066SBJP V0201401N007210090019N0112651N1+03001+02101999999ADDGA1071+009001999GA2071+021001999GF107991999999999999999999MA1101021999999REMMET058METAR SBJP 141800Z 14014KT 9999 BKN030 BKN070 30/21 Q1010;
0143827980999992013011419004-07117-034950FM-15+0066SBJP V0201201N007210210019N0112651N1+02901+02001999999ADDGA1041+007501999GA2071+021001999GF107991999999999999999999MA1101021999999REMMET058METAR SBJP 141900Z 12014KT 9999 SCT025 BKN070 29/20 Q1010;
0143827980999992013011420004-07117-034950FM-15+0066SBJP V0201101N005110057019N0112651N1+02801+02201999999ADDGA1071+005701999GA2071+021001999GF107991999999999999999999MA1101081999999REMMET058METAR SBJP 142000Z 11010KT 9999 BKN019 BKN070 28/22 Q1011;
0143827980999992013011421004-07117-034950FM-15+0066SBJP V0201101N004110210019N0112651N1+02701+02201999999ADDGA1041+004801999GA2071+021001999GF107991999999999999999999MA1101081999999REMMET058METAR SBJP 142100Z 11008KT 9999 SCT016 BKN070 27/22 Q1011;
0072827980999992013011422004-07117-034950FM-15+0066SBJP V0201301N004119999999Y0099001N1+02601+02201999999ADDMA1101081999999REMMET045METAR SBJP 142200Z 13008KT CAVOK 26/22 Q1011;
0072827980999992013011423004-07117-034950FM-15+0066SBJP V0201201N004119999999Y0099001N1+02601+02201999999ADDMA1101191999999REMMET045METAR SBJP 142300Z 12008KT CAVOK 26/22 Q1012;
0072827980999992013011500004-07117-034950FM-15+0066SBJP V0201201N003119999999Y0099001N1+02601+02101999999ADDMA1101191999999REMMET045METAR SBJP 150000Z 12006KT CAVOK 26/21 Q1012;
0072827980999992013011501004-07117-034950FM-15+0066SBJP V0201201N002619999999Y0099001N1+02601+02101999999ADDMA1101191999999REMMET045METAR SBJP 150100Z 12005KT CAVOK 26/21 Q1012;
0072827980999992013011502004-07117-034950FM-15+0066SBJP V0209999C000019999999Y0099001N1+02601+02201999999ADDMA1101081999999REMMET045METAR SBJP 150200Z 00000KT CAVOK 26/22 Q1011;
0072827980999992013011503004-07117-034950FM-15+0066SBJP V0209999C000019999999Y0099001N1+02601+02201999999ADDMA1101081999999REMMET045METAR SBJP 150300Z 00000KT CAVOK 26/22 Q1011;
0072827980999992013011504004-07117-034950FM-15+0066SBJP V0201101N003119999999Y0099001N1+02601+02101999999ADDMA1101021999999REMMET045METAR SBJP 150400Z 11006KT CAVOK 26/21 Q1010;
0072827980999992013011505004-07117-034950FM-15+0066SBJP V0209999C000019999999Y0099001N1+02601+02001999999ADDMA1101021999999REMMET045METAR SBJP 150500Z 00000KT CAVOK 26/20 Q1010;
0072827980999992013011506004-07117-034950FM-15+0066SBJP V0209999C000019999999Y0099001N1+02601+02101999999ADDMA1101081999999REMMET045METAR SBJP 150600Z 00000KT CAVOK 26/21 Q1011;
0143827980999992013011507004-07117-034950FM-15+0066SBJP V0209999C000010060019N0112651N1+02501+02101999999ADDGA1071+006001999GA2071+021001999GF107991999999999999999999MA1101081999999REMMET058METAR SBJP 150700Z 00000KT 9999 BKN020 BKN070 25/21 Q1011;
0143827980999992013011508004-07117-034950FM-15+0066SBJP V0209999C000010060019N0112651N1+02501+02101999999ADDGA1071+006001999GA2071+021001999GF107991999999999999999999MA1101081999999REMMET058METAR SBJP 150800Z 00000KT 9999 BKN020 BKN070 25/21 Q1011;
0143827980999992013011509004-07117-034950FM-15+0066SBJP V0209999C000012200019N0112651N1+02501+02101999999ADDGA1041+006001999GA2041+021001999GF104991999999999999999999MA1101081999999REMMET058METAR SBJP 150900Z 00000KT 9999 SCT020 SCT070 25/21 Q1011;
0120827980999992013011510004-07117-034950FM-15+0066SBJP V0201801N002110060019N0112651N1+02601+02101999999ADDGA1071+006001999GF107991999999999999999999MA1101191999999REMMET051METAR SBJP 151000Z 18004KT 9999 BKN020 26/21 Q1012;
0130827980999992013011510114-07117-034950FM-16+0066SBJP V0201701N002110060019N0040001N1+02601+02101999999ADDGA1071+006001999GF107991999999999999999999MA1101191999999MW1611REMMET055SPECI SBJP 151011Z 17004KT 4000 -RA BKN020 26/21 Q1012;
0131827980999992013011511004-07117-034950FM-15+0066SBJP V0201801N003110060019N0040001N1+02601+02201999999ADDGA1071+006001999GF107991999999999999999999MA1101191999999MW1161REMMET056METAR SBJP 151100Z 18006KT 4000 VCSH BKN020 26/22 Q1012;
0130827980999992013011512004-07117-034950FM-15+0066SBJP V0201701N003110057019N0040001N1+02601+02301999999ADDGA1081+005701999GF108991999999999999999999MA1101191999999MW1611REMMET055METAR SBJP 151200Z 17006KT 4000 -RA OVC019 26/23 Q1012;
0143827980999992013011513004-07117-034950FM-15+0066SBJP V0202001N003110045019N0112651N1+02501+02301999999ADDGA1041+003001999GA2071+004501999GF107991999999999999999999MA1101081999999REMMET058METAR SBJP 151300Z 20006KT 9999 SCT010 BKN015 25/23 Q1011;
0143827980999992013011514004-07117-034950FM-15+0066SBJP V0201901N002110060019N0112651N1+02701+02301999999ADDGA1041+003601999GA2071+006001999GF107991999999999999999999MA1101081999999REMMET058METAR SBJP 151400Z 19004KT 9999 SCT012 BKN020 27/23 Q1011;
0120827980999992013011515004-07117-034950FM-15+0066SBJP V0201801N004110045019N0112651N1+02701+02301999999ADDGA1071+004501999GF107991999999999999999999MA1101021999999REMMET051METAR SBJP 151500Z 18008KT 9999 BKN015 27/23 Q1010;
0120827980999992013011516004-07117-034950FM-15+0066SBJP V0201201N004110060019N0112651N1+02901+02101999999ADDGA1071+006001999GF107991999999999999999999MA1101021999999REMMET051METAR SBJP 151600Z 12008KT 9999 BKN020 29/21 Q1010;
0120827980999992013011517004-07117-034950FM-15+0066SBJP V0201101N005110090019N0112651N1+02901+02101999999ADDGA1071+009001999GF107991999999999999999999MA1101021999999REMMET051METAR SBJP 151700Z 11010KT 9999 BKN030 29/21 Q1010;
0120827980999992013011518004-07117-034950FM-15+0066SBJP V0201201N005712200019N0112651N1+02901+02101999999ADDGA1041+009001999GF104991999999999999999999MA1100911999999REMMET051METAR SBJP 151800Z 12011KT 9999 SCT030 29/21 Q1009;
0143827980999992013011519004-07117-034950FM-15+0066SBJP V0201301N005110210019N0112651N1+02901+02001999999ADDGA1021+009001999GA2071+021001999GF107991999999999999999999MA1101021999999REMMET058METAR SBJP 151900Z 13010KT 9999 FEW030 BKN070 29/20 Q1010;
0143827980999992013011520004-07117-034950FM-15+0066SBJP V0201101N004610210019N0112651N1+02801+02101999999ADDGA1021+009001999GA2071+021001999GF107991999999999999999999MA1101021999999REMMET058METAR SBJP 152000Z 11009KT 9999 FEW030 BKN070 28/21 Q1010;
0120827980999992013011521004-07117-034950FM-15+0066SBJP V0201101N005112200019N0112651N1+02701+02201999999ADDGA1021+006001999GF102991999999999999999999MA1101021999999REMMET051METAR SBJP 152100Z 11010KT 9999 FEW020 27/22 Q1010;
0072827980999992013011522004-07117-034950FM-15+0066SBJP V0201101N004119999999Y0099001N1+02601+02101999999ADDMA1101081999999REMMET045METAR SBJP 152200Z 11008KT CAVOK 26/21 Q1011;
0080827980999992013011523004-07117-034950FM-15+0066SBJP V0201101N004119999999Y0099001N1+02601+02101999999ADDMA1101081999999REMMET053METAR SBJP 152300Z 11008KT 080V150 CAVOK 26/21 Q1011;
0072827980999992013011600004-07117-034950FM-15+0066SBJP V0201001N002119999999Y0099001N1+02601+02201999999ADDMA1101081999999REMMET045METAR SBJP 160000Z 10004KT CAVOK 26/22 Q1011;
0072827980999992013011601004-07117-034950FM-15+0066SBJP V0201101N001019999999Y0099001N1+02601+02201999999ADDMA1101081999999REMMET045METAR SBJP 160100Z 11002KT CAVOK 26/22 Q1011;
0120827980999992013011602004-07117-034950FM-15+0066SBJP V0209999C000012200019N0112651N1+02501+02201999999ADDGA1041+006001999GF104991999999999999999999MA1101081999999REMMET051METAR SBJP 160200Z 00000KT 9999 SCT020 25/22 Q1011;
0120827980999992013011603004-07117-034950FM-15+0066SBJP V0202101N000510060019N0112651N1+02501+02201999999ADDGA1071+006001999GF107991999999999999999999MA1101021999999REMMET051METAR SBJP 160300Z 21001KT 9999 BKN020 25/22 Q1010;
0130827980999992013011604004-07117-034950FM-15+0066SBJP V0202001N002110054019N0090001N1+02501+02201999999ADDGA1071+005401999GF107991999999999999999999MA1101021999999MW1611REMMET055METAR SBJP 160400Z 20004KT 9000 -RA BKN018 25/22 Q1010;
0120827980999992013011605004-07117-034950FM-15+0066SBJP V0209999C000010054019N0112651N1+02501+02301999999ADDGA1071+005401999GF107991999999999999999999MA1101021999999REMMET051METAR SBJP 160500Z 00000KT 9999 BKN018 25/23 Q1010;
0120827980999992013011606004-07117-034950FM-15+0066SBJP V0201301N002110054019N0112651N1+02501+02201999999ADDGA1071+005401999GF107991999999999999999999MA1101021999999REMMET051METAR SBJP 160600Z 13004KT 9999 BKN018 25/22 Q1010;
0120827980999992013011607004-07117-034950FM-15+0066SBJP V0209999C000010057019N0112651N1+02501+02201999999ADDGA1071+005701999GF107991999999999999999999MA1101021999999REMMET051METAR SBJP 160700Z 00000KT 9999 BKN019 25/22 Q1010;
0120827980999992013011608004-07117-034950FM-15+0066SBJP V0202201N001510060019N0112651N1+02501+02201999999ADDGA1071+006001999GF107991999999999999999999MA1101081999999REMMET051METAR SBJP 160800Z 22003KT 9999 BKN020 25/22 Q1011;
0120827980999992013011609004-07117-034950FM-15+0066SBJP V0201401N002112200019N0112651N1+02501+02301999999ADDGA1041+006001999GF104991999999999999999999MA1101191999999REMMET051METAR SBJP 160900Z 14004KT 9999 SCT020 25/23 Q1012;
0120827980999992013011610004-07117-034950FM-15+0066SBJP V0201101N004112200019N0112651N1+02701+02101999999ADDGA1041+007501999GF104991999999999999999999MA1101191999999REMMET051METAR SBJP 161000Z 11008KT 9999 SCT025 27/21 Q1012;
0120827980999992013011611004-07117-034950FM-15+0066SBJP V0201101N004610075019N0112651N1+02801+02101999999ADDGA1071+007501999GF107991999999999999999999MA1101191999999REMMET051METAR SBJP 161100Z 11009KT 9999 BKN025 28/21 Q1012;
0120827980999992013011612004-07117-034950FM-15+0066SBJP V0201101N005110075019N0112651N1+02901+02101999999ADDGA1071+007501999GF107991999999999999999999MA1101191999999REMMET051METAR SBJP 161200Z 11010KT 9999 BKN025 29/21 Q1012;
0120827980999992013011613004-07117-034950FM-15+0066SBJP V0201101N005110075019N0112651N1+02901+02101999999ADDGA1071+007501999GF107991999999999999999999MA1101191999999REMMET051METAR SBJP 161300Z 11010KT 9999 BKN025 29/21 Q1012;
0128827980999992013011614004-07117-034950FM-15+0066SBJP V0200901N004110075019N0112651N1+02901+02101999999ADDGA1071+007501999GA2071+021001999GF107991999999999999999999REMMET058METAR SBJP 161400Z 09008KT 9999 BKN025 BKN070 29/21 Q////;
0143827980999992013011615004-07117-034950FM-15+0066SBJP V0201101N005110210019N0112651N1+03101+02101999999ADDGA1041+009001999GA2071+021001999GF107991999999999999999999MA1101081999999REMMET058METAR SBJP 161500Z 11010KT 9999 SCT030 BKN070 31/21 Q1011;
0143827980999992013011616004-07117-034950FM-15+0066SBJP V0201001N007712200019N0112651N1+03001+02201999999ADDGA1041+009001999GA2041+021001999GF104991999999999999999999MA1101081999999REMMET058METAR SBJP 161600Z 10015KT 9999 SCT030 SCT070 30/22 Q1011;
0143827980999992013011617004-07117-034950FM-15+0066SBJP V0201001N006210210019N0112651N1+02901+02101999999ADDGA1041+006001999GA2071+021001999GF107991999999999999999999MA1101081999999REMMET058METAR SBJP 161700Z 10012KT 9999 SCT020 BKN070 29/21 Q1011;
0120827980999992013011618004-07117-034950FM-15+0066SBJP V0200901N005712200019N0112651N1+02901+02201999999ADDGA1041+006001999GF104991999999999999999999MA1101021999999REMMET051METAR SBJP 161800Z 09011KT 9999 SCT020 29/22 Q1010;
0120827980999992013011619004-07117-034950FM-15+0066SBJP V0201001N005710075019N0112651N1+02901+02201999999ADDGA1071+007501999GF107991999999999999999999MA1101081999999REMMET051METAR SBJP 161900Z 10011KT 9999 BKN025 29/22 Q1011;
0120827980999992013011620004-07117-034950FM-15+0066SBJP V0201101N005712200019N0112651N1+02801+02101999999ADDGA1041+006001999GF104991999999999999999999MA1101081999999REMMET051METAR SBJP 162000Z 11011KT 9999 SCT020 28/21 Q1011;
0120827980999992013011621004-07117-034950FM-15+0066SBJP V0201101N005112200019N0112651N1+02701+02201999999ADDGA1041+006001999GF104991999999999999999999MA1101081999999REMMET051METAR SBJP 162100Z 11010KT 9999 SCT020 27/22 Q1011;
0120827980999992013011622004-07117-034950FM-15+0066SBJP V0201101N004612200019N0112651N1+02701+02201999999ADDGA1041+006001999GF104991999999999999999999MA1101191999999REMMET051METAR SBJP 162200Z 11009KT 9999 SCT020 27/22 Q1012;
0120827980999992013011623004-07117-034950FM-15+0066SBJP V0201101N004612200019N0112651N1+02701+02201999999ADDGA1041+006001999GF104991999999999999999999MA1101291999999REMMET051METAR SBJP 162300Z 11009KT 9999 SCT020 27/22 Q1013;
0128827980999992013011700004-07117-034950FM-15+0066SBJP V0201101N004612200019N0112651N1+02701+02101999999ADDGA1041+006001999GF104991999999999999999999MA1101291999999REMMET059METAR SBJP 170000Z 11009KT 070V130 9999 SCT020 27/21 Q1013;
0120827980999992013011701004-07117-034950FM-15+0066SBJP V0201101N004612200019N0112651N1+02701+02101999999ADDGA1041+006001999GF104991999999999999999999MA1101291999999REMMET051METAR SBJP 170100Z 11009KT 9999 SCT020 27/21 Q1013;
0120827980999992013011702004-07117-034950FM-15+0066SBJP V0201101N004612200019N0112651N1+02701+02101999999ADDGA1041+006001999GF104991999999999999999999MA1101291999999REMMET051METAR SBJP 170200Z 11009KT 9999 SCT020 27/21 Q1013;
0120827980999992013011703004-07117-034950FM-15+0066SBJP V0201101N003612200019N0112651N1+02701+02101999999ADDGA1041+006001999GF104991999999999999999999MA1101191999999REMMET051METAR SBJP 170300Z 11007KT 9999 SCT020 27/21 Q1012;
0120827980999992013011704004-07117-034950FM-15+0066SBJP V0201201N001512200019N0112651N1+02601+02101999999ADDGA1041+006001999GF104991999999999999999999MA1101191999999REMMET051METAR SBJP 170400Z 12003KT 9999 SCT020 26/21 Q1012;
0120827980999992013011705004-07117-034950FM-15+0066SBJP V0209999C000012200019N0112651N1+02501+02101999999ADDGA1021+006001999GF102991999999999999999999MA1101081999999REMMET051METAR SBJP 170500Z 00000KT 9999 FEW020 25/21 Q1011;
0072827980999992013011706004-07117-034950FM-15+0066SBJP V0209999C000019999999Y0099001N1+02401+02101999999ADDMA1101081999999REMMET045METAR SBJP 170600Z 00000KT CAVOK 24/21 Q1011;
0120827980999992013011707004-07117-034950FM-15+0066SBJP V0209999C000012200019N0112651N1+02401+02101999999ADDGA1021+006001999GF102991999999999999999999MA1101081999999REMMET051METAR SBJP 170700Z 00000KT 9999 FEW020 24/21 Q1011;
0120827980999992013011708004-07117-034950FM-15+0066SBJP V0209999C000012200019N0112651N1+02301+02101999999ADDGA1021+006001999GF102991999999999999999999MA1101191999999REMMET051METAR SBJP 170800Z 00000KT 9999 FEW020 23/21 Q1012;
0120827980999992013011709004-07117-034950FM-15+0066SBJP V0209999C000012200019N0112651N1+02401+02101999999ADDGA1021+006001999GF102991999999999999999999MA1101191999999REMMET051METAR SBJP 170900Z 00000KT 9999 FEW020 24/21 Q1012;
0120827980999992013011710004-07117-034950FM-15+0066SBJP V0209999C000012200019N0112651N1+02601+02201999999ADDGA1041+006001999GF104991999999999999999999MA1101291999999REMMET051METAR SBJP 171000Z 00000KT 9999 SCT020 26/22 Q1013;
0128827980999992013011711004-07117-034950FM-15+0066SBJP V0201201N003610075019N0112651N1+02901+02101999999ADDGA1071+007501999GF107991999999999999999999MA1101391999999REMMET059METAR SBJP 171100Z 12007KT 090V160 9999 BKN025 29/21 Q1014;
0128827980999992013011712004-07117-034950FM-15+0066SBJP V0201301N005712200019N0112651N1+03001+02101999999ADDGA1041+007501999GF104991999999999999999999MA1101391999999REMMET059METAR SBJP 171200Z 13011KT 080V150 9999 SCT025 30/21 Q1014;
0128827980999992013011713004-07117-034950FM-15+0066SBJP V0201301N004110090019N0112651N1+03001+02001999999ADDGA1071+009001999GF107991999999999999999999MA1101291999999REMMET059METAR SBJP 171300Z 13008KT 100V170 9999 BKN030 30/20 Q1013;
0151827980999992013011714004-07117-034950FM-15+0066SBJP V0200801N004112200019N0112651N1+03101+02001999999ADDGA1041+009001999GA2041+021001999GF104991999999999999999999MA1101291999999REMMET066METAR SBJP 171400Z 08008KT 040V120 9999 SCT030 SCT070 31/20 Q1013;
0143827980999992013011715004-07117-034950FM-15+0066SBJP V0200901N005110210019N0112651N1+03001+02101999999ADDGA1041+007501999GA2071+021001999GF107991999999999999999999MA1101291999999REMMET058METAR SBJP 171500Z 09010KT 9999 SCT025 BKN070 30/21 Q1013;
0128827980999992013011716004-07117-034950FM-15+0066SBJP V0200901N004610090019N0112651N1+03101+02101999999ADDGA1071+009001999GF107991999999999999999999MA1101191999999REMMET059METAR SBJP 171600Z 09009KT 060V130 9999 BKN030 31/21 Q1012;
0128827980999992013011717004-07117-034950FM-15+0066SBJP V0201101N005110090019N0112651N1+03101+02001999999ADDGA1071+009001999GF107991999999999999999999MA1101081999999REMMET059METAR SBJP 171700Z 11010KT 070V140 9999 BKN030 31/20 Q1011;
0120827980999992013011718004-07117-034950FM-15+0066SBJP V0201001N004612200019N0112651N1+03101+02001999999ADDGA1041+009901999GF104991999999999999999999MA1101081999999REMMET051METAR SBJP 171800Z 10009KT 9999 SCT033 31/20 Q1011;
0128827980999992013011719004-07117-034950FM-15+0066SBJP V0201001N005112200019N0112651N1+03001+02001999999ADDGA1021+007501999GF102991999999999999999999MA1101081999999REMMET059METAR SBJP 171900Z 10010KT 040V120 9999 FEW025 30/20 Q1011;
0128827980999992013011720004-07117-034950FM-15+0066SBJP V0201101N004612200019N0112651N1+02901+02101999999ADDGA1021+007501999GF102991999999999999999999MA1101191999999REMMET059METAR SBJP 172000Z 11009KT 070V130 9999 FEW025 29/21 Q1012;
0120827980999992013011721004-07117-034950FM-15+0066SBJP V0201101N003612200019N0112651N1+02801+02101999999ADDGA1021+007501999GF102991999999999999999999MA1101191999999REMMET051METAR SBJP 172100Z 11007KT 9999 FEW025 28/21 Q1012;
0120827980999992013011722004-07117-034950FM-15+0066SBJP V0209999C000012200019N0112651N1+02701+02201999999ADDGA1021+006001999GF102991999999999999999999MA1101291999999REMMET051METAR SBJP 172200Z 00000KT 9999 FEW020 27/22 Q1013;
0072827980999992013011723004-07117-034950FM-15+0066SBJP V0209999C000019999999Y0099001N1+02701+02201999999ADDMA1101291999999REMMET045METAR SBJP 172300Z 00000KT CAVOK 27/22 Q1013;
0072827980999992013011800004-07117-034950FM-15+0066SBJP V0209999C000019999999Y0099001N1+02701+02201999999ADDMA1101391999999REMMET045METAR SBJP 180000Z 00000KT CAVOK 27/22 Q1014;
0072827980999992013011801004-07117-034950FM-15+0066SBJP V0209999C000019999999Y0099001N1+02701+02201999999ADDMA1101391999999REMMET045METAR SBJP 180100Z 00000KT CAVOK 27/22 Q1014;
0120827980999992013011802004-07117-034950FM-15+0066SBJP V0209999C000012200019N0112651N1+02701+02201999999ADDGA1021+006001999GF102991999999999999999999MA1101291999999REMMET051METAR SBJP 180200Z 00000KT 9999 FEW020 27/22 Q1013;
0120827980999992013011803004-07117-034950FM-15+0066SBJP V0209999C000012200019N0112651N1+02701+02201999999ADDGA1021+006001999GF102991999999999999999999MA1101291999999REMMET051METAR SBJP 180300Z 00000KT 9999 FEW020 27/22 Q1013;
0143827980999992013011804004-07117-034950FM-15+0066SBJP V0209999C000012200019N0112651N1+02601+02301999999ADDGA1021+007501999GA2041+021001999GF104991999999999999999999MA1101191999999REMMET058METAR SBJP 180400Z 00000KT 9999 FEW025 SCT070 26/23 Q1012;
0072827980999992013011805004-07117-034950FM-15+0066SBJP V0209999C000019999999Y0099001N1+02501+02201999999ADDMA1101191999999REMMET045METAR SBJP 180500Z 00000KT CAVOK 25/22 Q1012;
0120827980999992013011806004-07117-034950FM-15+0066SBJP V0209999C000012200019N0112651N1+02501+02201999999ADDGA1021+006001999GF102991999999999999999999MA1101191999999REMMET051METAR SBJP 180600Z 00000KT 9999 FEW020 25/22 Q1012;
0120827980999992013011807004-07117-034950FM-15+0066SBJP V0201201N001512200019N0112651N1+02501+02201999999ADDGA1021+006001999GF102991999999999999999999MA1101191999999REMMET051METAR SBJP 180700Z 12003KT 9999 FEW020 25/22 Q1012;
0120827980999992013011808004-07117-034950FM-15+0066SBJP V0202901N001512200019N0112651N1+02501+02201999999ADDGA1041+006001999GF104991999999999999999999MA1101291999999REMMET051METAR SBJP 180800Z 29003KT 9999 SCT020 25/22 Q1013;
0120827980999992013011809004-07117-034950FM-15+0066SBJP V0202601N001512200019N0112651N1+02501+02201999999ADDGA1041+006001999GF104991999999999999999999MA1101391999999REMMET051METAR SBJP 180900Z 26003KT 9999 SCT020 25/22 Q1014;
0120827980999992013011810004-07117-034950FM-15+0066SBJP V0209999C000010060019N0112651N1+02701+02301999999ADDGA1071+006001999GF107991999999999999999999MA1101391999999REMMET051METAR SBJP 181000Z 00000KT 9999 BKN020 27/23 Q1014;
0128827980999992013011811004-07117-034950FM-15+0066SBJP V0200601N003610069019N0112651N1+02801+02201999999ADDGA1071+006901999GF107991999999999999999999MA1101391999999REMMET059METAR SBJP 181100Z 06007KT 020V080 9999 BKN023 28/22 Q1014;
0128827980999992013011812004-07117-034950FM-15+0066SBJP V0200801N004112200019N0112651N1+03001+02101999999ADDGA1041+007501999GF104991999999999999999999MA1101391999999REMMET059METAR SBJP 181200Z 08008KT 040V120 9999 SCT025 30/21 Q1014;
0128827980999992013011813004-07117-034950FM-15+0066SBJP V0200901N004112200019N0112651N1+03101+02001999999ADDGA1041+009001999GF104991999999999999999999MA1101391999999REMMET059METAR SBJP 181300Z 09008KT 020V140 9999 SCT030 31/20 Q1014;
0128827980999992013011814004-07117-034950FM-15+0066SBJP V0200901N003612200019N0112651N1+03001+02101999999ADDGA1041+009001999GF104991999999999999999999MA1101391999999REMMET059METAR SBJP 181400Z 09007KT 030V130 9999 SCT030 30/21 Q1014;
0128827980999992013011815004-07117-034950FM-15+0066SBJP V0201001N004612200019N0112651N1+03101+02001999999ADDGA1041+009001999GF104991999999999999999999MA1101291999999REMMET059METAR SBJP 181500Z 10009KT 030V150 9999 SCT030 31/20 Q1013;
0120827980999992013011816004-07117-034950FM-15+0066SBJP V0200801N005112200019N0112651N1+03101+02101999999ADDGA1021+009001999GF102991999999999999999999MA1101191999999REMMET051METAR SBJP 181600Z 08010KT 9999 FEW030 31/21 Q1012;
0072827980999992013011817004-07117-034950FM-15+0066SBJP V0200801N004119999999Y0099001N1+03201+02001999999ADDMA1101081999999REMMET045METAR SBJP 181700Z 08008KT CAVOK 32/20 Q1011;
0072827980999992013011818004-07117-034950FM-15+0066SBJP V0201001N005119999999Y0099001N1+03101+02101999999ADDMA1101081999999REMMET045METAR SBJP 181800Z 10010KT CAVOK 31/21 Q1011;
0072827980999992013011819004-07117-034950FM-15+0066SBJP V0200801N005119999999Y0099001N1+03001+02101999999ADDMA1101081999999REMMET045METAR SBJP 181900Z 08010KT CAVOK 30/21 Q1011;
0120827980999992013011820004-07117-034950FM-15+0066SBJP V0200901N005112200019N0112651N1+02801+02201999999ADDGA1021+006001999GF102991999999999999999999MA1101081999999REMMET051METAR SBJP 182000Z 09010KT 9999 FEW020 28/22 Q1011;
0120827980999992013011821004-07117-034950FM-15+0066SBJP V0200901N004112200019N0112651N1+02701+02201999999ADDGA1021+006001999GF102991999999999999999999MA1101191999999REMMET051METAR SBJP 182100Z 09008KT 9999 FEW020 27/22 Q1012;
0120827980999992013011822004-07117-034950FM-15+0066SBJP V0200901N004112200019N0112651N1+02701+02201999999ADDGA1041+006001999GF104991999999999999999999MA1101191999999REMMET051METAR SBJP 182200Z 09008KT 9999 SCT020 27/22 Q1012;
0120827980999992013011823004-07117-034950FM-15+0066SBJP V0200901N003112200019N0112651N1+02701+02201999999ADDGA1041+005101999GF104991999999999999999999MA1101191999999REMMET051METAR SBJP 182300Z 09006KT 9999 SCT017 27/22 Q1012;
0120827980999992013011900004-07117-034950FM-15+0066SBJP V0200801N002112200019N0112651N1+02701+02201999999ADDGA1041+005401999GF104991999999999999999999MA1101291999999REMMET051METAR SBJP 190000Z 08004KT 9999 SCT018 27/22 Q1013;
0120827980999992013011901004-07117-034950FM-15+0066SBJP V0200901N003112200019N0112651N1+02701+02201999999ADDGA1021+006001999GF102991999999999999999999MA1101291999999REMMET051METAR SBJP 190100Z 09006KT 9999 FEW020 27/22 Q1013;
0120827980999992013011902004-07117-034950FM-15+0066SBJP V0200801N002112200019N0112651N1+02601+02201999999ADDGA1021+006001999GF102991999999999999999999MA1101291999999REMMET051METAR SBJP 190200Z 08004KT 9999 FEW020 26/22 Q1013;
0120827980999992013011903004-07117-034950FM-15+0066SBJP V0200201N002610045019N0112651N1+02601+02301999999ADDGA1071+004501999GF107991999999999999999999MA1101191999999REMMET051METAR SBJP 190300Z 02005KT 9999 BKN015 26/23 Q1012;
0120827980999992013011904004-07117-034950FM-15+0066SBJP V0209999C000010060019N0112651N1+02601+02201999999ADDGA1071+006001999GF107991999999999999999999MA1101191999999REMMET051METAR SBJP 190400Z 00000KT 9999 BKN020 26/22 Q1012;
0120827980999992013011905004-07117-034950FM-15+0066SBJP V0209999C000010054019N0112651N1+02601+02301999999ADDGA1071+005401999GF107991999999999999999999MA1101191999999REMMET051METAR SBJP 190500Z 00000KT 9999 BKN018 26/23 Q1012;
0120827980999992013011906004-07117-034950FM-15+0066SBJP V0209999V001012200019N0112651N1+02501+02301999999ADDGA1041+006001999GF104991999999999999999999MA1101191999999REMMET051METAR SBJP 190600Z VRB02KT 9999 SCT020 25/23 Q1012;
0120827980999992013011907004-07117-034950FM-15+0066SBJP V0202901N002612200019N0112651N1+02401+02201999999ADDGA1041+006001999GF104991999999999999999999MA1101291999999REMMET051METAR SBJP 190700Z 29005KT 9999 SCT020 24/22 Q1013;
