0149832360999992013050112004-12150-045000FM-12+043999999V0202301N0010199999999020000199+02441+01781101381ADDAA101999990AZ101061AZ201061GA1021+017501051GE19MSL   +99999+99999GF102991999999999999999999KA1120N+01881MA1999990096471MD1909990-0021REMSYN004BUFR
0149832360999992013050212004-12150-045000FM-12+043999999V0202301N0010199999999020000199+02471+01801101381ADDAA101999990AZ101061AZ201061GA1011+017501031GE19MSL   +99999+99999GF101991999999999999999999KA1120N+01851MA1999990096471MD1909990+0001REMSYN004BUFR
0111832360999992013050312004-12150-045000FM-12+043999999V0202301N0026122000199020000199+02451+01681101321ADDAA101999990AZ101061AZ201061GF100991999999999999999999KA1120N+01831MA1999990096411MD1909990-0061REMSYN004BUFR
0149832360999992013050412004-12150-045000FM-12+043999999V0202301N0005199999999020000199+02441+01741101341ADDAA101999990AZ101061AZ201061GA1021+017501051GE19MSL   +99999+99999GF102991999999999999999999KA1120N+01841MA1999990096421MD1909990+0011REMSYN004BUFR
0149832360999992013050512004-12150-045000FM-12+043999999V0202301N0015199999999020000199+02341+01761101321ADDAA101999990AZ101061AZ201061GA1991+025001001GE19MSL   +99999+99999GF101991999999999999999999KA1120N+01761MA1999990096391MD1909990-0031REMSYN004BUFR
0149832360999992013050612004-12150-045000FM-12+043999999V0201401N0005199999999020000199+02321+01631101371ADDAA101999990AZ101061AZ201061GA1021+017501051GE19MSL   +99999+99999GF102991999999999999999999KA1120N+01651MA1999990096421MD1909990+0031REMSYN004BUFR
0165832360999992013050712004-12150-045000FM-12+043999999V0202301N0010199999999020000199+02521+01781101461ADDAA101999990AZ101061AZ201061GA1021+008001081GA2991+999991031GE19MSL   +99999+99999GF104991999999999999999999KA1120N+01941MA1999990096561MD1909990-0011REMSYN004BUFR
0165832360999992013050812004-12150-045000FM-12+043999999V0202301N0010199999999020000199+02501+01861101331ADDAA101999990AZ101061AZ201061GA1021+017501031GA2991+999991001GE19MSL   +99999+99999GF103991999999999999999999KA1120N+01911MA1999990096441MD1909990-0121REMSYN004BUFR
0165832360999992013050912004-12150-045000FM-12+043999999V0202301N0005100800199020000199+02571+02041101461ADDAA101999990AZ101061AZ201061GA1051+008001061GA2991+999991001GE19MSL   +99999+99999GF106991999999999999999999KA1120N+02251MA1999990096581MD1909990+0141REMSYN004BUFR
0165832360999992013051012004-12150-045000FM-12+043999999V0202301N0005199999999020000199+02371+01891101611ADDAA101999990AZ101061AZ201061GA1031+008001081GA2991+999991051GE19MSL   +99999+99999GF104991999999999999999999KA1120N+02131MA1999990096691MD1909990+0111REMSYN004BUFR
0149832360999992013051112004-12150-045000FM-12+043999999V0201401N0021199999999020000199+02551+01731101521ADDAA101999990AZ101061AZ201061GA1011+017501051GE19MSL   +99999+99999GF101991999999999999999999KA1120N+02011MA1999990096641MD1909990-0051REMSYN004BUFR
0149832360999992013051212004-12150-045000FM-12+043999999V0201401N0010199999999020000199+02571+01771101441ADDAA101999990AZ101061AZ201061GA1041+008001081GE19MSL   +99999+99999GF104991999999999999999999KA1120N+02311MA1999990096551MD1909990-0091REMSYN004BUFR
0149832360999992013051312004-12150-045000FM-12+043999999V0201401N0005199999999020000199+02491+01801101441ADDAA101999990AZ101061AZ201061GA1041+008001081GE19MSL   +99999+99999GF104991999999999999999999KA1120N+01941MA1999990096551MD1909990+0001REMSYN004BUFR
0149832360999992013051412004-12150-045000FM-12+043999999V0200501N0021199999999020000199+02671+01551101471ADDAA101999990AZ101061AZ201061GA1991+017501041GE19MSL   +99999+99999GF101991999999999999999999KA1120N+02171MA1999990096601MD1909990+0111REMSYN004BUFR
0149832360999992013051512004-12150-045000FM-12+043999999V0203601N0000199999999020000199+02441+01781101441ADDAA101999990AZ101061AZ201061GA1021+017501041GE19MSL   +99999+99999GF102991999999999999999999KA1120N+01861MA1999990096541MD1909990-0061REMSYN004BUFR
0149832360999992013051612004-12150-045000FM-12+043999999V0201401N0015199999999020000199+02521+01731101431ADDAA101999990AZ101061AZ201061GA1021+017501051GE19MSL   +99999+99999GF102991999999999999999999KA1120N+01861MA1999990096521MD1909990-0021REMSYN004BUFR
0111832360999992013051712004-12150-045000FM-12+043999999V0202301N0010122000199020000199+02441+01761101481ADDAA101999990AZ101061AZ201061GF100991999999999999999999KA1120N+01801MA1999990096561MD1909990+0041REMSYN004BUFR
0149832360999992013051812004-12150-045000FM-12+043999999V0202301N0010199999999020000199+02501+01631101571ADDAA101999990AZ101061AZ201061GA1011+017501051GE19MSL   +99999+99999GF101991999999999999999999KA1120N+01881MA1999990096651MD1909990+0091REMSYN004BUFR
0149832360999992013051912004-12150-045000FM-12+043999999V0201401N0021199999999020000199+02441+01611101571ADDAA101999990AZ101061AZ201061GA1031+008001081GE19MSL   +99999+99999GF103991999999999999999999KA1120N+01741MA1999990096651MD1909990+0001REMSYN004BUFR
0149832360999992013052012004-12150-045000FM-12+043999999V0202301N0015199999999020000199+02321+01641101591ADDAA101999990AZ101061AZ201061GA1021+008001081GE19MSL   +99999+99999GF102991999999999999999999KA1120N+01741MA1999990096641MD1909990-0011REMSYN004BUFR
0149832360999992013052112004-12150-045000FM-12+043999999V0203601N0000199999999020000199+02371+01751101281ADDAA101999990AZ101061AZ201061GA1991+022501001GE19MSL   +99999+99999GF101991999999999999999999KA1120N+01881MA1999990096371MD1909990-0271REMSYN004BUFR
0135832360999992013052512004-12150-045000FM-12+043999999V0202301N0010199999999020000199+02441+01691101301ADDAA101999990AZ101061AZ201061GA1021+008001081GE19MSL   +99999+99999GF102991999999999999999999KA1120N+01861MA1999990096381REMSYN004BUFR
0181832360999992013052612004-12150-045000FM-12+043999999V0200501N0015199999999020000199+02671+01991101401ADDAA101999990AZ101061AZ201061GA1021+008001081GA2991+999991051GA3991+999991001GE19MSL   +99999+99999GF105991999999999999999999KA1120N+02101MA1999990096521MD1909990+0141REMSYN004BUFR
0171832360999992013052712004-12150-045000FM-12+043999999V0202701N0015199999999020000199+02321+02111101511ADDAA124003031AY161061AY261061GA1021+008001081GA2991+999991051GE19MSL   +99999+99999GF104991999999999999999999KA1120N+02171MA1999990096601MD1909990+0081MW1031REMSYN004BUFR
0149832360999992013052812004-12150-045000FM-12+043999999V0203601N0000199999999020000199+02451+01731101301ADDAA101999990AZ101061AZ201061GA1011+017501051GE19MSL   +99999+99999GF101991999999999999999999KA1120N+02011MA1999990096411MD1909990-0191REMSYN004BUFR
0149832360999992013052912004-12150-045000FM-12+043999999V0203201N0005199999999020000199+02571+01801101231ADDAA101999990AZ101061AZ201061GA1011+022501031GE19MSL   +99999+99999GF101991999999999999999999KA1120N+01881MA1999990096341MD1909990-0071REMSYN004BUFR
0165832360999992013053012004-12150-045000FM-12+043999999V0202301N0010199999999020000199+02341+01871101411ADDAA101999990AZ101061AZ201061GA1041+008001081GA2991+999991031GE19MSL   +99999+99999GF106991999999999999999999KA1120N+01861MA1999990096491MD1909990+0151REMSYN004BUFR
0165832360999992013053112004-12150-045000FM-12+043999999V0202301N0015199999999020000199+02291+01811101371ADDAA101999990AZ101061AZ201061GA1021+008001081GA2991+999991051GE19MSL   +99999+99999GF103991999999999999999999KA1120N+01881MA1999990096461MD1909990-0031REMSYN004BUFR
0165832360999992013060112004-12150-045000FM-12+043999999V0203601N0000199999999020000199+02601+01811101291ADDAA101999990AZ101061AZ201061GA1041+008001081GA2991+999991031GE19MSL   +99999+99999GF105991999999999999999999KA1120N+02081MA1999990096421MD1909990-0041REMSYN004BUFR
0111832360999992013060212004-12150-045000FM-12+043999999V0202301N0005122000199020000199+02521+01711101421ADDAA101999990AZ101061AZ201061GF100991999999999999999999KA1120N+01871MA1999990096511MD1909990+0091REMSYN004BUFR
0149832360999992013060312004-12150-045000FM-12+043999999V0203601N0000199999999020000199+02371+01751101531ADDAA101999990AZ101061AZ201061GA1021+017501051GE19MSL   +99999+99999GF102991999999999999999999KA1120N+01821MA1999990096591MD1909990+0081REMSYN004BUFR
0165832360999992013060412004-12150-045000FM-12+043999999V0201401N0015199999999020000199+02521+01891101481ADDAA101999990AZ101061AZ201061GA1021+008001081GA2991+999991031GE19MSL   +99999+99999GF103991999999999999999999KA1120N+02071MA1999990096571MD1909990-0021REMSYN004BUFR
0165832360999992013060512004-12150-045000FM-12+043999999V0201401N0026199999999020000199+02541+01811101411ADDAA101999990AZ101061AZ201061GA1021+017501031GA2991+999991001GE19MSL   +99999+99999GF103991999999999999999999KA1120N+02151MA1999990096531MD1909990-0041REMSYN004BUFR
0149832360999992013060612004-12150-045000FM-12+043999999V0201401N0015199999999020000199+02541+01551101501ADDAA101999990AZ101061AZ201061GA1041+017501051GE19MSL   +99999+99999GF104991999999999999999999KA1120N+01901MA1999990096611MD1909990+0081REMSYN004BUFR
0165832360999992013060712004-12150-045000FM-12+043999999V0201401N0005199999999020000199+02441+01581101491ADDAA101999990AZ101061AZ201061GA1031+012501051GA2991+999991001GE19MSL   +99999+99999GF104991999999999999999999KA1120N+01881MA1999990096591MD1909990-0021REMSYN004BUFR
0165832360999992013060812004-12150-045000FM-12+043999999V0203601N0000199999999020000199+02321+01811101661ADDAA101999990AZ101061AZ201061GA1031+008001081GA2991+999991051GE19MSL   +99999+99999GF106991999999999999999999KA1120N+02001MA1999990096771MD1909990+0181REMSYN004BUFR
0149832360999992013060912004-12150-045000FM-12+043999999V0202301N0015199999999020000199+02391+01631101591ADDAA101999990AZ101061AZ201061GA1021+017501051GE19MSL   +99999+99999GF102991999999999999999999KA1120N+01901MA1999990096671MD1909990-0101REMSYN004BUFR
0111832360999992013061012004-12150-045000FM-12+043999999V0201401N0026122000199020000199+02351+01541101601ADDAA101999990AZ101061AZ201061GF100991999999999999999999KA1120N+01781MA1999990096671MD1909990+0001REMSYN004BUFR
0149832360999992013061112004-12150-045000FM-12+043999999V0201401N0031199999999020000199+02341+01571101761ADDAA101999990AZ101061AZ201061GA1011+008001081GE19MSL   +99999+99999GF101991999999999999999999KA1120N+02061MA1999990096821MD1909990+0151REMSYN004BUFR
0149832360999992013061212004-12150-045000FM-12+043999999V0201401N0010199999999020000199+02321+01451101721ADDAA101999990AZ101061AZ201061GA1991+025001001GE19MSL   +99999+99999GF101991999999999999999999KA1120N+01661MA1999990096761MD1909990-0061REMSYN004BUFR
0149832360999992013061312004-12150-045000FM-12+043999999V0200501N0005199999999020000199+02371+01681101541ADDAA101999990AZ101061AZ201061GA1011+017501031GE19MSL   +99999+99999GF101991999999999999999999KA1120N+01701MA1999990096621MD1909990-0141REMSYN004BUFR
0149832360999992013061412004-12150-045000FM-12+043999999V0202301N0005199999999020000199+02291+01581101381ADDAA101999990AZ101061AZ201061GA1991+025001001GE19MSL   +99999+99999GF101991999999999999999999KA1120N+01761MA1999990096461MD1909990-0161REMSYN004BUFR
0149832360999992013061512004-12150-045000FM-12+043999999V0202301N0005199999999020000199+02291+01481101441ADDAA101999990AZ101061AZ201061GA1991+025001001GE19MSL   +99999+99999GF102991999999999999999999KA1120N+01681MA1999990096501MD1909990+0041REMSYN004BUFR
0149832360999992013061612004-12150-045000FM-12+043999999V0203601N0000199999999020000199+02491+01501101361ADDAA101999990AZ101061AZ201061GA1021+017501051GE19MSL   +99999+99999GF102991999999999999999999KA1120N+01911MA1999990096451MD1909990-0051REMSYN004BUFR
0149832360999992013061712004-12150-045000FM-12+043999999V0203601N0000199999999020000199+02321+01451101541ADDAA101999990AZ101061AZ201061GA1031+017501051GE19MSL   +99999+99999GF103991999999999999999999KA1120N+01731MA1999990096611MD1909990+0161REMSYN004BUFR
0165832360999992013061812004-12150-045000FM-12+043999999V0202301N0005199999999020000199+02291+01561101411ADDAA101999990AZ101061AZ201061GA1031+012501051GA2991+999991001GE19MSL   +99999+99999GF106991999999999999999999KA1120N+01731MA1999990096491MD1909990-0121REMSYN004BUFR
0111832360999992013061912004-12150-045000FM-12+043999999V0203601N0000122000199020000199+02201+01511101461ADDAA101999990AZ101061AZ201061GF100991999999999999999999KA1120N+01541MA1999990096501MD1909990+0011REMSYN004BUFR
0149832360999992013062012004-12150-045000FM-12+043999999V0202301N0005199999999020000199+02441+01741101431ADDAA101999990AZ101061AZ201061GA1021+008001081GE19MSL   +99999+99999GF102991999999999999999999KA1120N+01921MA1999990096511MD1909990+0011REMSYN004BUFR
0111832360999992013062112004-12150-045000FM-12+043999999V0200501N0031122000199020000199+02341+01871101361ADDAA101999990AZ101061AZ201061GF100991999999999999999999KA1120N+02111MA1999990096441MD1909990-0071REMSYN004BUFR
0136832360999992013062200004-12150-045000FM-12+043999999V0203601N0000199999999020000199+02241+01731101171ADDAA101999990AZ101061AZ201061GA1991+025001001GE19MSL   +99999+99999GF101991999999999999999999MA1999990096251MD1909990+0111REMSYN004BUFR
0138832360999992013062212004-12150-045000FM-12+043999999V0203601N0000199999999020000199+02141+01631101481ADDAZ101061AZ201061GA1991+025001001GE19MSL   +99999+99999GF101991999999999999999999KA1120N+01621MA1999990096521MD1909990+0081REMSYN004BUFR
0136832360999992013062300004-12150-045000FM-12+043999999V0201401N0010199999999020000199+02341+01561101201ADDAA101999990AZ101061AZ201061GA1011+017501051GE19MSL   +99999+99999GF101991999999999999999999MA1999990096261MD1909990+0011REMSYN004BUFR
0111832360999992013062312004-12150-045000FM-12+043999999V0203601N0000122000199020000199+02341+01641101511ADDAA101999990AZ101061AZ201061GF100991999999999999999999KA1120N+01641MA1999990096581MD1909990+0061REMSYN004BUFR
0152832360999992013062400004-12150-045000FM-12+043999999V0202301N0010199999999020000199+02701+01561101171ADDAA101999990AZ101061AZ201061GA1021+008001081GA2991+999991031GE19MSL   +99999+99999GF106991999999999999999999MA1999990096301MD1909990+0041REMSYN004BUFR
0149832360999992013062412004-12150-045000FM-12+043999999V0203601N0000199999999020000199+02541+01531101501ADDAA101999990AZ101061AZ201061GA1021+017501041GE19MSL   +99999+99999GF102991999999999999999999KA1120N+01881MA1999990096631MD1909990+0051REMSYN004BUFR
0152832360999992013062500004-12150-045000FM-12+043999999V0201401N0036199999999020000199+02771+01641101191ADDAA101999990AZ101061AZ201061GA1041+008001081GA2991+999991031GE19MSL   +99999+99999GF106991999999999999999999MA1999990096341MD1909990+0041REMSYN004BUFR
0149832360999992013062512004-12150-045000FM-12+043999999V0202301N0005199999999020000199+02401+01721101541ADDAA101999990AZ101061AZ201061GA1011+008001081GE19MSL   +99999+99999GF101991999999999999999999KA1120N+02011MA1999990096661MD1909990+0031REMSYN004BUFR
0149832360999992013062612004-12150-045000FM-12+043999999V0203601N0000199999999020000199+02371+01531101581ADDAA101999990AZ101061AZ201061GA1991+025001001GE19MSL   +99999+99999GF101991999999999999999999KA1120N+01661MA1999990096651MD1909990-0011REMSYN004BUFR
0136832360999992013062700004-12150-045000FM-12+043999999V0202301N0015199999999020000199+02491+01161101201ADDAA101999990AZ101061AZ201061GA1991+025001001GE19MSL   +99999+99999GF101991999999999999999999MA1999990096311MD1909990-0041REMSYN004BUFR
0149832360999992013062712004-12150-045000FM-12+043999999V0202301N0005199999999020000199+02271+01511101631ADDAA101999990AZ101061AZ201061GA1011+022501031GE19MSL   +99999+99999GF101991999999999999999999KA1120N+01531MA1999990096711MD1909990+0061REMSYN004BUFR
0136832360999992013062800004-12150-045000FM-12+043999999V0202701N0005199999999020000199+02341+01491101171ADDAA101999990AZ101061AZ201061GA1011+017501051GE19MSL   +99999+99999GF101991999999999999999999MA1999990096251MD1909990-0061REMSYN004BUFR
0111832360999992013062812004-12150-045000FM-12+043999999V0202301N0005122000199020000199+02291+01351101431ADDAA101999990AZ101061AZ201061GF100991999999999999999999KA1120N+01691MA1999990096511MD1909990-0201REMSYN004BUFR
0149832360999992013062912004-12150-045000FM-12+043999999V0203601N0000199999999020000199+02391+01381101271ADDAA101999990AZ101061AZ201061GA1021+008001081GE19MSL   +99999+99999GF102991999999999999999999KA1120N+01641MA1999990096361MD1909990-0151REMSYN004BUFR
0098832360999992013063000004-12150-045000FM-12+043999999V0203601N0000122000199020000199+02201+01621101041ADDAA101999990AZ101061AZ201061GF100991999999999999999999MA1999990096131MD1909990+0051REMSYN004BUFR
0165832360999992013063012004-12150-045000FM-12+043999999V0203601N0000199999999020000199+02341+01351101331ADDAA101999990AZ101061AZ201061GA1011+012501031GA2991+999991001GE19MSL   +99999+99999GF102991999999999999999999KA1120N+01601MA1999990096401MD1909990+0041REMSYN004BUFR
0136832360999992013070100004-12150-045000FM-12+043999999V0201401N0005199999999020000199+02251+01441101001ADDAA101999990AZ101061AZ201061GA1011+008001081GE19MSL   +99999+99999GF101991999999999999999999MA1999990096101MD1909990-0031REMSYN004BUFR
0149832360999992013070112004-12150-045000FM-12+043999999V0203601N0000199999999020000199+02291+01201101411ADDAA101999990AZ101061AZ201061GA1011+012501031GE19MSL   +99999+99999GF101991999999999999999999KA1120N+01641MA1999990096471MD1909990+0071REMSYN004BUFR
0136832360999992013070200004-12150-045000FM-12+043999999V0200201N0154199999999020000199+99999+01411101181ADDAA101999990AZ101061AZ201061GA1991+025001001GE19MSL   +99999+99999GF101991999999999999999999MA1999990096231MD1909990+0131REMSYN004BUFR
0111832360999992013070212004-12150-045000FM-12+043999999V0201401N0010122000199020000199+02021+00991101591ADDAA101999990AZ101061AZ201061GF100991999999999999999999KA1120N+01291MA1999990096591MD1909990+0121REMSYN004BUFR
0136832360999992013070300004-12150-045000FM-12+043999999V0202701N0005199999999020000199+02021+01361101241ADDAA101999990AZ101061AZ201061GA1011+017501051GE19MSL   +99999+99999GF101991999999999999999999MA1999990096261MD1909990+0031REMSYN004BUFR
0111832360999992013070312004-12150-045000FM-12+043999999V0203201N0005122000199020000199+02221+01291101591ADDAA101999990AZ101061AZ201061GF100991999999999999999999KA1120N+01381MA1999990096621MD1909990+0031REMSYN004BUFR
0136832360999992013070400004-12150-045000FM-12+043999999V0202301N0021100800199020000199+02571+01301101391ADDAA101999990AZ101061AZ201061GA1051+008001081GE19MSL   +99999+99999GF105991999999999999999999MA1999990096481MD1909990+0221REMSYN004BUFR
0149832360999992013070412004-12150-045000FM-12+043999999V0200501N0005199999999020000199+02201+01661101731ADDAA101999990AZ101061AZ201061GA1991+025001001GE19MSL   +99999+99999GF101991999999999999999999KA1120N+01581MA1999990096831MD1909990+0211REMSYN004BUFR
0136832360999992013070500004-12150-045000FM-12+043999999V0202301N0005100800199020000199+02551+01531101471ADDAA101999990AZ101061AZ201061GA1051+008001091GE19MSL   +99999+99999GF105991999999999999999999MA1999990096551MD1909990+0071REMSYN004BUFR
0149832360999992013070512004-12150-045000FM-12+043999999V0201401N0015199999999020000199+02301+01581101791ADDAA101999990AZ101061AZ201061GA1011+008001081GE19MSL   +99999+99999GF101991999999999999999999KA1120N+01691MA1999990096871MD1909990+0041REMSYN004BUFR
0136832360999992013070600004-12150-045000FM-12+043999999V0203601N0000100800199020000199+02451+01531101471ADDAA101999990AZ101061AZ201061GA1051+008001061GE19MSL   +99999+99999GF105991999999999999999999MA1999990096561MD1909990+0011REMSYN004BUFR
0165832360999992013070612004-12150-045000FM-12+043999999V0201401N0031199999999020000199+02241+01481101631ADDAA101999990AZ101061AZ201061GA1041+008001061GA2991+999991031GE19MSL   +99999+99999GF106991999999999999999999KA1120N+01861MA1999990096701MD1909990-0171REMSYN004BUFR
0136832360999992013070700004-12150-045000FM-12+043999999V0202301N0010199999999020000199+02041+01311101361ADDAA101999990AZ101061AZ201061GA1011+004501051GE19MSL   +99999+99999GF101991999999999999999999MA1999990096401MD1909990-0161REMSYN004BUFR
0111832360999992013070712004-12150-045000FM-12+043999999V0202301N0010122000199020000199+02171+01421101601ADDAA101999990AZ101061AZ201061GF100991999999999999999999KA1120N+01461MA1999990096621MD1909990-0081REMSYN004BUFR
0149832360999992013070812004-12150-045000FM-12+043999999V0202301N0015199999999020000199+02191+01411101641ADDAA101999990AZ101061AZ201061GA1011+008001081GE19MSL   +99999+99999GF101991999999999999999999KA1120N+01501MA1999990096681MD1909990+0061REMSYN004BUFR
0098832360999992013070900004-12150-045000FM-12+043999999V0202701N0005122000199020000199+02221+01331101391ADDAA101999990AZ101061AZ201061GF100991999999999999999999MA1999990096441MD1909990+0081REMSYN004BUFR
0149832360999992013070912004-12150-045000FM-12+043999999V0202301N0005199999999020000199+02391+01501101701ADDAA101999990AZ101061AZ201061GA1011+022501051GE19MSL   +99999+99999GF101991999999999999999999KA1120N+01761MA1999990096751MD1909990+0071REMSYN004BUFR
0147832360999992013071000004-12150-045000FM-12+043999999V0201801N0015199999999020000199+02401+01311101451ADDAA100999990AA201999990AZ101061AZ201061GA1991+017501991GE19MSL   +99999+99999GF103991999999999999999999MA1999990096541MD1909990+0101REMSYN004BUFR
0111832360999992013071012004-12150-045000FM-12+043999999V0201801N0021122000199020000199+02191+01051101761ADDAA101999990AZ101061AZ201061GF100991999999999999999999KA1120N+01581MA1999990096811MD1909990+0061REMSYN004BUFR
0109832360999992013071100004-12150-045000FM-12+043999999V0201401N0031122000199020000199+02391+00961101461ADDAA100999990AA201999990AZ101061AZ201061GF100991999999999999999999MA1999990096521MD1909990-0021REMSYN004BUFR
0149832360999992013071112004-12150-045000FM-12+043999999V0201401N0021100800199020000199+02121+01431101701ADDAA101999990AZ101061AZ201061GA1051+008001081GE19MSL   +99999+99999GF105991999999999999999999KA1120N+01631MA1999990096741MD1909990-0071REMSYN004BUFR
0136832360999992013071200004-12150-045000FM-12+043999999V0201401N0031199999999020000199+02371+01451101431ADDAA101999990AZ101061AZ201061GA1021+008001091GE19MSL   +99999+99999GF103991999999999999999999MA1999990096481MD1909990-0041REMSYN004BUFR
0165832360999992013071212004-12150-045000FM-12+043999999V0201401N0041199999999020000199+02391+01551101781ADDAA101999990AZ101061AZ201061GA1041+008001061GA2991+999991031GE19MSL   +99999+99999GF106991999999999999999999KA1120N+02041MA1999990096851MD1909990+0111REMSYN004BUFR
0136832360999992013071300004-12150-045000FM-12+043999999V0201401N0015199999999020000199+02341+01521101381ADDAA101999990AZ101061AZ201061GA1991+025001001GE19MSL   +99999+99999GF101991999999999999999999MA1999990096461MD1909990-0021REMSYN004BUFR
0149832360999992013071312004-12150-045000FM-12+043999999V0201801N0010199999999020000199+02141+01571101691ADDAA101999990AZ101061AZ201061GA1011+022501031GE19MSL   +99999+99999GF101991999999999999999999KA1120N+01611MA1999990096731MD1909990-0101REMSYN004BUFR
0136832360999992013071400004-12150-045000FM-12+043999999V0203601N0000199999999020000199+02571+01771101341ADDAA101999990AZ101061AZ201061GA1031+008001091GE19MSL   +99999+99999GF103991999999999999999999MA1999990096421MD1909990-0041REMSYN004BUFR
0165832360999992013071412004-12150-045000FM-12+043999999V0200501N0021199999999020000199+02591+01871101501ADDAA101999990AZ101061AZ201061GA1021+008001081GA2991+999991031GE19MSL   +99999+99999GF103991999999999999999999KA1120N+02041MA1999990096621MD1909990-0111REMSYN004BUFR
0152832360999992013071500004-12150-045000FM-12+043999999V0200501N0041199999999020000199+02841+01631101251ADDAA101999990AZ101061AZ201061GA1031+008001081GA2991+999991031GE19MSL   +99999+99999GF106991999999999999999999MA1999990096401MD1909990-0021REMSYN004BUFR
0149832360999992013071512004-12150-045000FM-12+043999999V0203601N0000199999999020000199+02241+01521101451ADDAA101999990AZ101061AZ201061GA1021+022501031GE19MSL   +99999+99999GF102991999999999999999999KA1120N+01751MA1999990096561MD1909990-0061REMSYN004BUFR
0152832360999992013071600004-12150-045000FM-12+043999999V0203601N0000199999999020000199+02651+01711101201ADDAA101999990AZ101061AZ201061GA1031+008001091GA2991+999991051GE19MSL   +99999+99999GF105991999999999999999999MA1999990096311MD1909990-0091REMSYN004BUFR
0149832360999992013071612004-12150-045000FM-12+043999999V0200501N0046199999999020000199+02621+01701101441ADDAA101999990AZ101061AZ201061GA1991+025001001GE19MSL   +99999+99999GF101991999999999999999999KA1120N+02011MA1999990096571MD1909990+0011REMSYN004BUFR
0155832360999992013071700004-12150-045000FM-12+043999999V0202301N0010199999999020000199+02501+01791101821ADDAA101999990AZ101061AZ201061GA1991+008001991GE19MSL   +99999+99999GF104991999999999999999999MA1999990999999MD1909990+0161REMSYN004BUFREQDQ01 099433APOSP 
0165832360999992013071712004-12150-045000FM-12+043999999V0201401N0005199999999020000199+02341+01551101511ADDAA101999990AZ101061AZ201061GA1031+012501051GA2991+999991001GE19MSL   +99999+99999GF105991999999999999999999KA1120N+01751MA1999990096591MD1909990+0021REMSYN004BUFR
0152832360999992013071800004-12150-045000FM-12+043999999V0202301N0015199999999020000199+02421+01621101221ADDAA101999990AZ101061AZ201061GA1021+008001081GA2991+999991051GE19MSL   +99999+99999GF104991999999999999999999MA1999990096321MD1909990-0021REMSYN004BUFR
0149832360999992013071812004-12150-045000FM-12+043999999V0202301N0005199999999020000199+02341+01591101521ADDAA101999990AZ101061AZ201061GA1991+025001001GE19MSL   +99999+99999GF104991999999999999999999KA1120N+01691MA1999990096601MD1909990+0011REMSYN004BUFR
0136832360999992013071900004-12150-045000FM-12+043999999V0202301N0026199999999020000199+02621+01561101191ADDAA101999990AZ101061AZ201061GA1041+008001081GE19MSL   +99999+99999GF104991999999999999999999MA1999990096311MD1909990-0011REMSYN004BUFR
0111832360999992013071912004-12150-045000FM-12+043999999V0203601N0005122000199020000199+02371+01531101481ADDAA101999990AZ101061AZ201061GF100991999999999999999999KA1120N+01711MA1999990096581MD1909990-0021REMSYN004BUFR
0136832360999992013072000004-12150-045000FM-12+043999999V0203201N0010199999999020000199+02341+01431101121ADDAA101999990AZ101061AZ201061GA1991+025001001GE19MSL   +99999+99999GF101991999999999999999999MA1999990096211MD1909990-0101REMSYN004BUFR
0111832360999992013072012004-12150-045000FM-12+043999999V0203601N0000122000199020000199+02201+01391101501ADDAA101999990AZ101061AZ201061GF100991999999999999999999KA1120N+01461MA1999990096501MD1909990-0081REMSYN004BUFR
0111832360999992013072112004-12150-045000FM-12+043999999V0203601N0000122000199020000199+02571+01661101391ADDAA101999990AZ101061AZ201061GF100991999999999999999999KA1120N+01641MA1999990096481MD1909990-0021REMSYN004BUFR
0111832360999992013072212004-12150-045000FM-12+043999999V0203601N0000122000199020000199+02191+01511101501ADDAA101999990AZ101061AZ201061GF100991999999999999999999KA1120N+01511MA1999990096541MD1909990+0061REMSYN004BUFR
0136832360999992013072300004-12150-045000FM-12+043999999V0203601N0000199999999020000199+02391+01521101071ADDAA101999990AZ101061AZ201061GA1021+008001081GE19MSL   +99999+99999GF102991999999999999999999MA1999990096151MD1909990-0111REMSYN004BUFR
0111832360999992013072312004-12150-045000FM-12+043999999V0203601N0000122000199020000199+02351+01561101351ADDAA101999990AZ101061AZ201061GF100991999999999999999999KA1120N+01661MA1999990096441MD1909990-0101REMSYN004BUFR
0136832360999992013072400004-12150-045000FM-12+043999999V0202301N0005199999999020000199+02291+01461101101ADDAA101999990AZ101061AZ201061GA1041+008001081GE19MSL   +99999+99999GF104991999999999999999999MA1999990096091MD1909990-0061REMSYN004BUFR
0111832360999992013072412004-12150-045000FM-12+043999999V0200501N0005122000199020000199+02391+01521101371ADDAA101999990AZ101061AZ201061GF100991999999999999999999KA1120N+01711MA1999990096451MD1909990+0011REMSYN004BUFR
0098832360999992013072500004-12150-045000FM-12+043999999V0202301N0005122000199020000199+02451+01441101261ADDAA101999990AZ101061AZ201061GF100991999999999999999999MA1999990096351MD1909990+0261REMSYN004BUFR
0149832360999992013072512004-12150-045000FM-12+043999999V0200501N0021199999999020000199+02441+01481101681ADDAA101999990AZ101061AZ201061GA1021+017501051GE19MSL   +99999+99999GF102991999999999999999999KA1120N+01731MA1999990096761MD1909990+0311REMSYN004BUFR
0136832360999992013072600004-12150-045000FM-12+043999999V0202701N0005199999999020000199+02201+01381101461ADDAA101999990AZ101061AZ201061GA1991+025001001GE19MSL   +99999+99999GF101991999999999999999999MA1999990096521MD1909990+0071REMSYN004BUFR
0165832360999992013072612004-12150-045000FM-12+043999999V0202301N0005199999999020000199+02101+01211101901ADDAA101999990AZ101061AZ201061GA1021+017501051GA2991+999991001GE19MSL   +99999+99999GF103991999999999999999999KA1120N+01281MA1999990096911MD1909990+0151REMSYN004BUFR
0136832360999992013072700004-12150-045000FM-12+043999999V0202701N0005100800199020000199+02301+01381101481ADDAA101999990AZ101061AZ201061GA1051+008001081GE19MSL   +99999+99999GF105991999999999999999999MA1999990096521MD1909990+0001REMSYN004BUFR
0149832360999992013072712004-12150-045000FM-12+043999999V0202301N0015199999999020000199+02391+01551101681ADDAA101999990AZ101061AZ201061GA1011+008001081GE19MSL   +99999+99999GF101991999999999999999999KA1120N+01661MA1999990096751MD1909990-0161REMSYN004BUFR
0149832360999992013072812004-12150-045000FM-12+043999999V0201401N0005199999999020000199+02391+01321101601ADDAA101999990AZ101061AZ201061GA1021+008001081GE19MSL   +99999+99999GF102991999999999999999999KA1120N+01761MA1999990096681MD1909990-0071REMSYN004BUFR
0111832360999992013072912004-12150-045000FM-12+043999999V0200501N0026122000199020000199+02491+01821101681ADDAA101999990AZ101061AZ201061GF100991999999999999999999KA1120N+01771MA1999990096761MD1909990+0081REMSYN004BUFR
0136832360999992013073000004-12150-045000FM-12+043999999V0202301N0015100800199020000199+02801+01411101401ADDAA101999990AZ101061AZ201061GA1051+008001081GE19MSL   +99999+99999GF105991999999999999999999MA1999990096541MD1909990+0151REMSYN004BUFR
0111832360999992013073012004-12150-045000FM-12+043999999V0202301N0005122000199020000199+02341+01511101711ADDAA101999990AZ101061AZ201061GF100991999999999999999999KA1120N+01701MA1999990096821MD1909990+0061REMSYN004BUFR
0136832360999992013073100004-12150-045000FM-12+043999999V0202301N0021199999999020000199+02441+01451101481ADDAA101999990AZ101061AZ201061GA1031+008001081GE19MSL   +99999+99999GF103991999999999999999999MA1999990096561MD1909990+0021REMSYN004BUFR
0111832360999992013073112004-12150-045000FM-12+043999999V0203601N0000122000199020000199+02341+01331101771ADDAA101999990AZ101061AZ201061GF100991999999999999999999KA1120N+01591MA1999990096841MD1909990+0021REMSYN004BUFR
0111832360999992013080112004-12150-045000FM-12+043999999V0203601N0000122000199020000199+02191+01391101761ADDAA101999990AZ101061AZ201061GF100991999999999999999999KA1120N+01501MA1999990096791MD1909990-0051REMSYN004BUFR
0136832360999992013080200004-12150-045000FM-12+043999999V0202301N0026199999999020000199+02551+01241101391ADDAA101999990AZ101061AZ201061GA1991+025001001GE19MSL   +99999+99999GF101991999999999999999999MA1999990096481MD1909990-0071REMSYN004BUFR
0111832360999992013080212004-12150-045000FM-12+043999999V0203601N0000122000199020000199+02191+01251101171ADDAA101999990AZ101061AZ201061GF100991999999999999999999KA1120N+01341MA1999990096741MD1909990-0051REMSYN004BUFR
0136832360999992013080300004-12150-045000FM-12+043999999V0203201N0021199999999020000199+02191+01281101401ADDAA101999990AZ101061AZ201061GA1991+025001001GE19MSL   +99999+99999GF101991999999999999999999MA1999990096451MD1909990-0031REMSYN004BUFR
0111832360999992013080312004-12150-045000FM-12+043999999V0203601N0000122000199020000199+02021+01071101741ADDAA101999990AZ101061AZ201061GF100991999999999999999999KA1120N+01201MA1999990096751MD1909990+0011REMSYN004BUFR
0111832360999992013080412004-12150-045000FM-12+043999999V0203601N0000122000199020000199+02341+01511101681ADDAA101999990AZ101061AZ201061GF100991999999999999999999KA1120N+01541MA1999990096711MD1909990-0041REMSYN004BUFR
0111832360999992013080512004-12150-045000FM-12+043999999V0203601N0000122000199020000199+02201+01431101611ADDAA101999990AZ101061AZ201061GF100991999999999999999999KA1120N+01451MA1999990096661MD1909990-0051REMSYN004BUFR
0136832360999992013080600004-12150-045000FM-12+043999999V0202701N0015199999999020000199+02521+00751101271ADDAA101999990AZ101061AZ201061GA1991+025001001GE19MSL   +99999+99999GF101991999999999999999999MA1999990096351MD1909990-0081REMSYN004BUFR
0111832360999992013080612004-12150-045000FM-12+043999999V0201801N0015122000199020000199+02421+01401101531ADDAA101999990AZ101061AZ201061GF100991999999999999999999KA1120N+01601MA1999990096621MD1909990-0041REMSYN004BUFR
0136832360999992013080700004-12150-045000FM-12+043999999V0202701N0021199999999020000199+02471+00831101221ADDAA101999990AZ101061AZ201061GA1991+025001001GE19MSL   +99999+99999GF101991999999999999999999MA1999990096331MD1909990-0021REMSYN004BUFR
0149832360999992013080712004-12150-045000FM-12+043999999V0202301N0010199999999020000199+02421+01621101361ADDAA101999990AZ101061AZ201061GA1011+008001081GE19MSL   +99999+99999GF101991999999999999999999KA1120N+01781MA1999990096461MD1909990-0161REMSYN004BUFR
0136832360999992013080800004-12150-045000FM-12+043999999V0202701N0010199999999020000199+02571+01361101011ADDAA101999990AZ101061AZ201061GA1031+008001081GE19MSL   +99999+99999GF104991999999999999999999MA1999990096111MD1909990-0221REMSYN004BUFR
0149832360999992013080812004-12150-045000FM-12+043999999V0203201N0021199999999020000199+02301+01501101321ADDAA101999990AZ101061AZ201061GA1031+008001081GE19MSL   +99999+99999GF103991999999999999999999KA1120N+01601MA1999990096421MD1909990-0041REMSYN004BUFR
0136832360999992013080900004-12150-045000FM-12+043999999V0202301N0005199999999020000199+02401+01081101091ADDAA101999990AZ101061AZ201061GA1991+025001001GE19MSL   +99999+99999GF101991999999999999999999MA1999990096181MD1909990+0071REMSYN004BUFR
0149832360999992013080912004-12150-045000FM-12+043999999V0201401N0010199999999020000199+02391+01471101441ADDAA101999990AZ101061AZ201061GA1991+025001001GE19MSL   +99999+99999GF101991999999999999999999KA1120N+01571MA1999990096531MD1909990+0111REMSYN004BUFR
0136832360999992013081000004-12150-045000FM-12+043999999V0203601N0000199999999020000199+02141+01381101161ADDAA101999990AZ101061AZ201061GA1991+025001001GE19MSL   +99999+99999GF101991999999999999999999MA1999990096231MD1909990+0051REMSYN004BUFR
0111832360999992013081012004-12150-045000FM-12+043999999V0203601N0000122000199020000199+02241+01451101501ADDAA101999990AZ101061AZ201061GF100991999999999999999999KA1120N+01431MA1999990096541MD1909990+0011REMSYN004BUFR
0165832360999992013081112004-12150-045000FM-12+043999999V0203601N0000199999999020000199+02271+01411101321ADDAA101999990AZ101061AZ201061GA1011+008001081GA2991+999991051GE19MSL   +99999+99999GF103991999999999999999999KA1120N+01581MA1999990096391MD1909990-0151REMSYN004BUFR
0165832360999992013081212004-12150-045000FM-12+043999999V0200501N0036199999999020000199+02591+01411101271ADDAA101999990AZ101061AZ201061GA1021+008001081GA2991+999991001GE19MSL   +99999+99999GF103991999999999999999999KA1120N+01941MA1999990096371MD1909990-0021REMSYN004BUFR
0152832360999992013081300004-12150-045000FM-12+043999999V0201801N0015199999999020000199+02821+01151100961ADDAA101999990AZ101061AZ201061GA1031+008001081GA2991+999991031GE19MSL   +99999+99999GF106991999999999999999999MA1999990096131MD1909990+0071REMSYN004BUFR
0111832360999992013081312004-12150-045000FM-12+043999999V0202301N0005122000199020000199+02601+01191101251ADDAA101999990AZ101061AZ201061GF100991999999999999999999KA1120N+01721MA1999990096401MD1909990+0031REMSYN004BUFR
0152832360999992013081400004-12150-045000FM-12+043999999V0202701N0005199999999020000199+02591+01141101091ADDAA101999990AZ101061AZ201061GA1021+008001081GA2991+999991031GE19MSL   +99999+99999GF106991999999999999999999MA1999990096231MD1909990+0101REMSYN004BUFR
0165832360999992013081412004-12150-045000FM-12+043999999V0200501N0010100800199020000199+02601+01561101411ADDAA101999990AZ101061AZ201061GA1051+008001081GA2991+999991001GE19MSL   +99999+99999GF106991999999999999999999KA1120N+02041MA1999990096541MD1909990+0141REMSYN004BUFR
0152832360999992013081500004-12150-045000FM-12+043999999V0202301N0005199999999020000199+02641+01351101071ADDAA101999990AZ101061AZ201061GA1021+008001081GA2991+999991031GE19MSL   +99999+99999GF106991999999999999999999MA1999990096191MD1909990-0041REMSYN004BUFR
0149832360999992013081512004-12150-045000FM-12+043999999V0200501N0031199999999020000199+02591+01511101231ADDAA101999990AZ101061AZ201061GA1041+008001051GE19MSL   +99999+99999GF104991999999999999999999KA1120N+01791MA1999990096361MD1909990-0181REMSYN004BUFR
0152832360999992013081600004-12150-045000FM-12+043999999V0202301N0015199999999020000199+02491+01321100891ADDAA101999990AZ101061AZ201061GA1021+008001081GA2991+999991051GE19MSL   +99999+99999GF104991999999999999999999MA1999990096031MD1909990-0161REMSYN004BUFR
0149832360999992013081612004-12150-045000FM-12+043999999V0200501N0021199999999020000199+02641+01651101451ADDAA101999990AZ101061AZ201061GA1041+017501051GE19MSL   +99999+99999GF104991999999999999999999KA1120N+01851MA1999990096561MD1909990+0201REMSYN004BUFR
0136832360999992013081700004-12150-045000FM-12+043999999V0201801N0021199999999020000199+02721+01221101201ADDAA101999990AZ101061AZ201061GA1991+025001001GE19MSL   +99999+99999GF102991999999999999999999MA1999990096351MD1909990-0321REMSYN004BUFR
0149832360999992013081712004-12150-045000FM-12+043999999V0200501N0021199999999020000199+02541+01591101581ADDAA101999990AZ101061AZ201061GA1991+025001001GE19MSL   +99999+99999GF102991999999999999999999KA1120N+01861MA1999990096701MD1909990+0141REMSYN004BUFR
0165832360999992013081812004-12150-045000FM-12+043999999V0200501N0010199999999020000199+02591+01541101541ADDAA101999990AZ101061AZ201061GA1021+017501051GA2991+999991001GE19MSL   +99999+99999GF104991999999999999999999KA1120N+02051MA1999990096651MD1909990-0051REMSYN004BUFR
0165832360999992013081912004-12150-045000FM-12+043999999V0201401N0021199999999020000199+02371+01421101671ADDAA101999990AZ101061AZ201061GA1031+017501051GA2991+999991001GE19MSL   +99999+99999GF104991999999999999999999KA1120N+01961MA1999990096751MD1909990+0101REMSYN004BUFR
0152832360999992013082000004-12150-045000FM-12+043999999V0201401N0026199999999020000199+02551+00981101371ADDAA101999990AZ101061AZ201061GA1021+017501051GA2991+999991001GE19MSL   +99999+99999GF103991999999999999999999MA1999990096471MD1909990+0101REMSYN004BUFR
0149832360999992013082012004-12150-045000FM-12+043999999V0200501N0036199999999020000199+02271+01511101621ADDAA101999990AZ101061AZ201061GA1011+017501051GE19MSL   +99999+99999GF101991999999999999999999KA1120N+01581MA1999990096701MD1909990-0051REMSYN004BUFR
0152832360999992013082100004-12150-045000FM-12+043999999V0202701N0015199999999020000199+02371+01211101301ADDAA101999990AZ101061AZ201061GA1021+017501051GA2991+999991001GE19MSL   +99999+99999GF103991999999999999999999MA1999990096381MD1909990-0091REMSYN004BUFR
0149832360999992013082112004-12150-045000FM-12+043999999V0201401N0031199999999020000199+02351+01551101581ADDAA101999990AZ101061AZ201061GA1011+012501051GE19MSL   +99999+99999GF101991999999999999999999KA1120N+01891MA1999990096651MD1909990-0051REMSYN004BUFR
0152832360999992013082200004-12150-045000FM-12+043999999V0200501N0015199999999020000199+02591+01171101151ADDAA101999990AZ101061AZ201061GA1031+008001081GA2991+999991001GE19MSL   +99999+99999GF104991999999999999999999MA1999990096271MD1909990-0111REMSYN004BUFR
0149832360999992013082212004-12150-045000FM-12+043999999V0203601N0000101750199020000199+02521+01631101361ADDAA101999990AZ101061AZ201061GA1051+017501051GE19MSL   +99999+99999GF105991999999999999999999KA1120N+01931MA1999990096481MD1909990-0171REMSYN004BUFR
0152832360999992013082300004-12150-045000FM-12+043999999V0202701N0010199999999020000199+02671+01241101041ADDAA101999990AZ101061AZ201061GA1021+017501051GA2991+999991001GE19MSL   +99999+99999GF103991999999999999999999MA1999990096191MD1909990-0081REMSYN004BUFR
0111832360999992013082312004-12150-045000FM-12+043999999V0200501N0010122000199020000199+02521+01611101401ADDAA101999990AZ101061AZ201061GF100991999999999999999999KA1120N+01811MA1999990096521MD1909990+0041REMSYN004BUFR
0136832360999992013082400004-12150-045000FM-12+043999999V0202301N0005199999999020000199+02521+01211101001ADDAA101999990AZ101061AZ201061GA1991+025001001GE19MSL   +99999+99999GF101991999999999999999999MA1999990096131MD1909990-0061REMSYN004BUFR
0111832360999992013082412004-12150-045000FM-12+043999999V0202301N0005122000199020000199+02401+01401101491ADDAA101999990AZ101061AZ201061GF100991999999999999999999KA1120N+01681MA1999990096581MD1909990+0061REMSYN004BUFR
0111832360999992013082512004-12150-045000FM-12+043999999V0202301N0015122000199020000199+02321+01441101501ADDAA101999990AZ101061AZ201061GF100991999999999999999999KA1120N+01581MA1999990096581MD1909990+0001REMSYN004BUFR
0111832360999992013082612004-12150-045000FM-12+043999999V0200501N0031122000199020000199+02491+01621101301ADDAA101999990AZ101061AZ201061GF100991999999999999999999KA1120N+01731MA1999990096431MD1909990-0151REMSYN004BUFR
0152832360999992013082700004-12150-045000FM-12+043999999V0201401N0010199999999020000199+02541+01211101971ADDAA101999990AZ101061AZ201061GA1021+008001061GA2991+999991051GE19MSL   +99999+99999GF103991999999999999999999MA1999990096101MD1909990-0111REMSYN004BUFR
0117832360999992013082712004-12150-045000FM-12+043999999V0200501N0010122000199010000199+02421+01451101341ADDAA101999990AY101061AY201061GF100991999999999999999999KA1120N+01651MA1999990096451MD1909990+0021MW1051REMSYN004BUFR
0104832360999992013082800004-12150-045000FM-12+043999999V0203601N0000122000199010000199+02441+01391101081ADDAA101999990AY101061AY201061GF100991999999999999999999MA1999990096191MD1909990+0091MW1061REMSYN004BUFR
0117832360999992013082812004-12150-045000FM-12+043999999V0203601N0000122000199010000199+02691+01541101421ADDAA101999990AY101061AY201061GF100991999999999999999999KA1120N+01761MA1999990096541MD1909990+0091MW1051REMSYN004BUFR
0136832360999992013082900004-12150-045000FM-12+043999999V0203601N0000199999999020000199+02551+01641101151ADDAA101999990AZ101061AZ201061GA1041+017501031GE19MSL   +99999+99999GF104991999999999999999999MA1999990096291MD1909990+0101REMSYN004BUFR
0165832360999992013082912004-12150-045000FM-12+043999999V0200501N0046199999999020000199+02851+01781101581ADDAA101999990AZ101061AZ201061GA1031+008001081GA2991+999991031GE19MSL   +99999+99999GF104991999999999999999999KA1120N+02401MA1999990096681MD1909990+0141REMSYN004BUFR
0136832360999992013083000004-12150-045000FM-12+043999999V0201401N0021100800199020000199+03071+01401101211ADDAA101999990AZ101061AZ201061GA1051+008001081GE19MSL   +99999+99999GF105991999999999999999999MA1999990096421MD1909990+0131REMSYN004BUFR
0149832360999992013083012004-12150-045000FM-12+043999999V0201401N0026199999999020000199+02641+01711101581ADDAA101999990AZ101061AZ201061GA1011+008001081GE19MSL   +99999+99999GF101991999999999999999999KA1120N+02101MA1999990096751MD1909990+0071REMSYN004BUFR
0098832360999992013083100004-12150-045000FM-12+043999999V0201401N0021122000199020000199+02751+01201101211ADDAA101999990AZ101061AZ201061GF100991999999999999999999MA1999990096361MD1909990-0061REMSYN004BUFR
0149832360999992013083112004-12150-045000FM-12+043999999V0200501N0026199999999020000199+02641+01681101591ADDAA101999990AZ101061AZ201061GA1021+008001081GE19MSL   +99999+99999GF102991999999999999999999KA1120N+02091MA1999990096731MD1909990-0021REMSYN004BUFR
0165832360999992013090212004-12150-045000FM-12+043999999V0200501N0036199999999020000199+02601+01641101281ADDAA101999990AZ101061AZ201061GA1021+008001081GA2991+999991051GE19MSL   +99999+99999GF104991999999999999999999KA1120N+02311MA1999990096441MD1909990-0131REMSYN004BUFR
0136832360999992013090300004-12150-045000FM-12+043999999V0202701N0010199999999020000199+02571+01491100841ADDAA101999990AZ101061AZ201061GA1011+017501051GE19MSL   +99999+99999GF101991999999999999999999MA1999990095991MD1909990-0041REMSYN004BUFR
0181832360999992013090312004-12150-045000FM-12+043999999V0200501N0036199999999020000199+02701+01521101261ADDAA101999990AZ101061AZ201061GA1021+008001081GA2991+999991001GA3991+999991051GE19MSL   +99999+99999GF105991021990008001991991KA1120N+02281MA1999990096401MD1909990-0041REMSYN004BUFR
0149832360999992013090512004-12150-045000FM-12+043999999V0200501N0005101750199020000199+02901+01641101331ADDAA101999990AZ101061AZ201061GA1051+017501051GE19MSL   +99999+99999GF105991051990017501991991KA1120N+02221MA1999990096501MD1909990+0071REMSYN004BUFR
0136832360999992013090600004-12150-045000FM-12+043999999V0201401N0026199999999020000199+03021+01451101111ADDAA101999990AZ101061AZ201061GA1041+008001081GE19MSL   +99999+99999GF104991041990008001991991MA1999990096241MD1909990+0011REMSYN004BUFR
0181832360999992013090612004-12150-045000FM-12+043999999V0201401N0036199999999020000199+02601+01561101441ADDAA101999990AZ101061AZ201061GA1021+008001081GA2991+999991001GA3991+999991051GE19MSL   +99999+99999GF105991021990008001991991KA1120N+02251MA1999990096611MD1909990+0111REMSYN004BUFR
0136832360999992013090700004-12150-045000FM-12+043999999V0201401N0036199999999020000199+02971+01471101081ADDAA101999990AZ101061AZ201061GA1041+008001081GE19MSL   +99999+99999GF104991041990008001991991MA1999990096261MD1909990+0021REMSYN004BUFR
0165832360999992013090712004-12150-045000FM-12+043999999V0201401N0031199999999020000199+02591+01571101131ADDAA101999990AZ101061AZ201061GA1031+017501051GA2991+999991001GE19MSL   +99999+99999GF104991031990017501991991KA1120N+02271MA1999990096601MD1909990-0011REMSYN004BUFR
0165832360999992013090812004-12150-045000FM-12+043999999V0200501N0031199999999020000199+02671+01731101511ADDAA101999990AZ101061AZ201061GA1021+017501051GA2991+999991001GE19MSL   +99999+99999GF104991021990017501991991KA1120N+02241MA1999990096661MD1909990+0061REMSYN004BUFR
0165832360999992013091012004-12150-045000FM-12+043999999V0203601N0021199999999020000199+02451+01521101641ADDAA101999990AZ101061AZ201061GA1021+008001081GA2991+999991051GE19MSL   +99999+99999GF106991021990008001991991KA1120N+01801MA1999990096751MD1909990+0041REMSYN004BUFR
0152832360999992013091100004-12150-045000FM-12+043999999V0201401N0021199999999020000199+02621+01041101301ADDAA101999990AZ101061AZ201061GA1021+008001081GA2991+999991001GE19MSL   +99999+99999GF104991021990008001991991MA1999990096411MD1909990+0001REMSYN004BUFR
0165832360999992013091112004-12150-045000FM-12+043999999V0200501N0051199999999020000199+02621+01581101481ADDAA101999990AZ101061AZ201061GA1031+008001091GA2991+999991051GE19MSL   +99999+99999GF105991031990008001991991KA1120N+01771MA1999990096611MD1909990-0141REMSYN004BUFR
0136832360999992013091200004-12150-045000FM-12+043999999V0201401N0021199999999020000199+02571+01041101091ADDAA101999990AZ101061AZ201061GA1031+017501031GE19MSL   +99999+99999GF103991031990017501991991MA1999990096231MD1909990-0181REMSYN004BUFR
0149832360999992013091212004-12150-045000FM-12+043999999V0200501N0031199999999020000199+02591+01341101401ADDAA101999990AZ101061AZ201061GA1021+012501051GE19MSL   +99999+99999GF102991021990012501991991KA1120N+01611MA1999990096531MD1909990-0081REMSYN004BUFR
0136832360999992013091300004-12150-045000FM-12+043999999V0201401N0041199999999020000199+02651+01501101041ADDAA101999990AZ101061AZ201061GA1021+017501031GE19MSL   +99999+99999GF102991021990017501991991MA1999990096181MD1909990-0051REMSYN004BUFR
0165832360999992013091312004-12150-045000FM-12+043999999V0200501N0046199999999020000199+02521+01431101401ADDAA101999990AZ101061AZ201061GA1021+012501051GA2991+999991001GE19MSL   +99999+99999GF103991021990012501991991KA1120N+01841MA1999990096531MD1909990+0001REMSYN004BUFR
0152832360999992013091400004-12150-045000FM-12+043999999V0202301N0005101750199020000199+02701+01171100981ADDAA101999990AZ101061AZ201061GA1051+017501091GA2991+999991031GE19MSL   +99999+99999GF105991051990017501991991MA1999990096131MD1909990-0051REMSYN004BUFR
0149832360999992013091412004-12150-045000FM-12+043999999V0201401N0015199999999020000199+02551+01591101431ADDAA101999990AZ101061AZ201061GA1021+017501031GE19MSL   +99999+99999GF102991021990017501991991KA1120N+01891MA1999990096561MD1909990+0031REMSYN004BUFR
0111832360999992013091512004-12150-045000FM-12+043999999V0200501N0010122000199020000199+02691+01571101391ADDAA101999990AZ101061AZ201061GF100991999999999999999999KA1120N+01861MA1999990096521MD1909990-0041REMSYN004BUFR
0111832360999992013091612004-12150-045000FM-12+043999999V0200501N0046122000199020000199+02801+01771101121ADDAA101999990AZ101061AZ201061GF100991999999999999999999KA1120N+02491MA1999990096321MD1909990-0201REMSYN004BUFR
0136832360999992013091700004-12150-045000FM-12+043999999V0203201N0005199999999020000199+02791+01751100701ADDAA101999990AZ101061AZ201061GA1031+008001081GE19MSL   +99999+99999GF103991031990008001991991MA1999990095901MD1909990-0161REMSYN004BUFR
0165832360999992013091712004-12150-045000FM-12+043999999V0200501N0072199999999020000199+02891+01811101041ADDAA101999990AZ101061AZ201061GA1011+008001081GA2991+999991001GE19MSL   +99999+99999GF103991011990008001991991KA1120N+02501MA1999990096241MD1909990-0081REMSYN004BUFR
0136832360999992013091800004-12150-045000FM-12+043999999V0202301N0015100800199020000199+02991+01571100601ADDAA101999990AZ101061AZ201061GA1051+008001081GE19MSL   +99999+99999GF105991051990008001991991MA1999990095841MD1909990-0061REMSYN004BUFR
0155832360999992013091812004-12150-045000FM-12+043999999V0201401N0015100800199020000199+02441+02031101411ADDAA124006031AY191061AY261061GA1061+008001061GE19MSL   +99999+99999GF106991061990008001991991KA1120N+01811MA1999990096561MD1909990+0321MW1031REMSYN004BUFR
0142832360999992013091900004-12150-045000FM-12+043999999V0202301N0015199999999020000199+02571+01991101331ADDAA106000231AY151061AY251061GA1021+008001081GE19MSL   +99999+99999GF102991021990008001991991MA1999990096461MD1909990+0601MW1031REMSYN004BUFR
0149832360999992013091912004-12150-045000FM-12+043999999V0202301N0005199999999020000199+02691+01881101421ADDAA124000231AZ101061AZ201061GA1991+025001001GE19MSL   +99999+99999GF102991990990025001991991KA1120N+02001MA1999990096551MD1909990-0011REMSYN004BUFR
0152832360999992013092000004-12150-045000FM-12+043999999V0200901N0036199999999020000199+03151+00981100951ADDAA101999990AZ101061AZ201061GA1021+008001091GA2991+999991051GE19MSL   +99999+99999GF104991021990008001991991MA1999990096161MD1909990-0281REMSYN004BUFR
0149832360999992013092012004-12150-045000FM-12+043999999V0200501N0031199999999020000199+02641+01621101301ADDAA101999990AZ101061AZ201061GA1021+008001081GE19MSL   +99999+99999GF102991021990008001991991KA1120N+02361MA1999990096541MD1909990-0011REMSYN004BUFR
0136832360999992013092100004-12150-045000FM-12+043999999V0200501N0005199999999020000199+03001+01261100801ADDAA101999990AZ101061AZ201061GA1021+017501051GE19MSL   +99999+99999GF102991021990017501991991MA1999990096011MD1909990-0151REMSYN004BUFR
0111832360999992013092112004-12150-045000FM-12+043999999V0200501N0046122000199020000199+02651+01501101291ADDAA101999990AZ101061AZ201061GF100991999999999999999999KA1120N+01921MA1999990096471MD1909990-0071REMSYN004BUFR
0149832360999992013092212004-12150-045000FM-12+043999999V0200501N0041199999999020000199+02841+01551101331ADDAA101999990AZ101061AZ201061GA1991+025001001GE19MSL   +99999+99999GF102991990990025001991991KA1120N+01701MA1999990096471MD1909990+0001REMSYN004BUFR
0117832360999992013092312004-12150-045000FM-12+043999999V0200501N0031122000199020000199+02971+01691101331ADDAA101999990AY101061AY201061GF100991999999999999999999KA1120N+02171MA1999990096481MD1909990+0011MW1051REMSYN004BUFR
0136832360999992013092400004-12150-045000FM-12+043999999V0203601N0000199999999020000199+02801+01481100821ADDAA101999990AZ101061AZ201061GA1041+008001081GE19MSL   +99999+99999GF104991041990008001991991MA1999990096041MD1909990-0141REMSYN004BUFR
0155832360999992013092412004-12150-045000FM-12+043999999V0200501N0031199999999020000199+03021+01451101141ADDAA101999990AY111061AY211061GA1041+008001081GE19MSL   +99999+99999GF104991041990008001991991KA1120N+02151MA1999990096341MD1909990-0141MW1051REMSYN004BUFR
0136832360999992013092500004-12150-045000FM-12+043999999V0201401N0015199999999020000199+02801+01251100761ADDAA101999990AZ101061AZ201061GA1031+008001081GE19MSL   +99999+99999GF103991031990008001991991MA1999990095981MD1909990-0061REMSYN004BUFR
0171832360999992013092512004-12150-045000FM-12+043999999V0203601N0000199999999020000199+02741+01431101021ADDAA101999990AY111061AY211061GA1031+008001081GA2991+999991001GE19MSL   +99999+99999GF105991031990008001991991KA1120N+02011MA1999990096211MD1909990-0131MW1051REMSYN004BUFR
0136832360999992013092600004-12150-045000FM-12+043999999V0201401N0005199999999020000199+02571+01521100821ADDAA101999990AZ101061AZ201061GA1021+008001081GE19MSL   +99999+99999GF102991021990008001991991MA1999990095981MD1909990+0001REMSYN004BUFR
0117832360999992013092612004-12150-045000FM-12+043999999V0203601N0010122000199020000199+02871+01911100951ADDAA101999990AY101061AY201061GF100991999999999999999999KA1120N+02191MA1999990096131MD1909990-0081MW1051REMSYN004BUFR
0136832360999992013092700004-12150-045000FM-12+043999999V0202301N0005100800199020000199+02991+01941100671ADDAA101999990AZ101061AZ201061GA1051+008001081GE19MSL   +99999+99999GF105991051990008001991991MA1999990095901MD1909990-0081REMSYN004BUFR
0155832360999992013092712004-12150-045000FM-12+043999999V0200501N0036199999999020000199+02971+01731101071ADDAA101999990AY111061AY211061GA1031+012501051GE19MSL   +99999+99999GF103991031990012501991991KA1120N+02591MA1999990096291MD1909990+0161MW1051REMSYN004BUFR
0136832360999992013092800004-12150-045000FM-12+043999999V0202701N0010199999999020000199+02921+01881100871ADDAA101999990AZ101061AZ201061GA1041+008001081GE19MSL   +99999+99999GF104991041990008001991991MA1999990096091MD1909990+0191REMSYN004BUFR
0165832360999992013092812004-12150-045000FM-12+043999999V0200501N0036199999999020000199+02941+01781101271ADDAA101999990AZ101061AZ201061GA1031+008001081GA2991+999991031GE19MSL   +99999+99999GF105991031990008001991991KA1120N+02521MA1999990096471MD1909990+0181REMSYN004BUFR
0165832360999992013092912004-12150-045000FM-12+043999999V0200501N0031199999999020000199+02971+01661101021ADDAA101999990AZ101061AZ201061GA1011+025001051GA2991+999991001GE19MSL   +99999+99999GF103991011990025001991991KA1120N+02081MA1999990096271MD1909990-0201REMSYN004BUFR
0149832360999992013093012004-12150-045000FM-12+043999999V0200501N0021199999999020000199+02841+01781101171ADDAA101999990AZ101061AZ201061GA1021+012501051GE19MSL   +99999+99999GF102991021990012501991991KA1120N+02401MA1999990096391MD1909990+0121REMSYN004BUFR
0136832360999992013100100004-12150-045000FM-12+043999999V0203601N0000199999999020000199+02791+01661100661ADDAA101999990AZ101061AZ201061GA1991+025001001GE19MSL   +99999+99999GF102991990990025001991991MA1999990095861MD1909990-0021REMSYN004BUFR
0149832360999992013100112004-12150-045000FM-12+043999999V0200501N0036199999999020000199+02971+01151101131ADDAA101999990AZ101061AZ201061GA1031+017501051GE19MSL   +99999+99999GF103991031990017501991991KA1120N+02191MA1999990096331MD1909990-0061REMSYN004BUFR
0136832360999992013100200004-12150-045000FM-12+043999999V0203601N0000199999999020000199+03171+01611100681ADDAA101999990AZ101061AZ201061GA1041+008001081GE19MSL   +99999+99999GF104991041990008001991991MA1999990095931MD1909990+0071REMSYN004BUFR
0135832360999992013100212004-12150-045000FM-12+043999999V0200501N0021199999999020000199+03091+01421101051ADDAA101999990AZ101061AZ201061GA1991+025001001GE19MSL   +99999+99999GF101991990990025001991991KA1120N+02221MA1999990096301REMSYN004BUFR
0136832360999992013100300004-12150-045000FM-12+043999999V0200501N0015199999999020000199+03371+01481100531ADDAA101999990AZ101061AZ201061GA1041+008001081GE19MSL   +99999+99999GF104991041990008001991991MA1999990095831MD1909990-0101REMSYN004BUFR
0149832360999992013100312004-12150-045000FM-12+043999999V0200501N0036199999999020000199+03041+01731101081ADDAA101999990AZ101061AZ201061GA1991+025001001GE19MSL   +99999+99999GF101991990990025001991991KA1120N+02651MA1999990096341MD1909990+0041REMSYN004BUFR
0136832360999992013100400004-12150-045000FM-12+043999999V0203601N0000100800199020000199+03091+01901100731ADDAA101999990AZ101061AZ201061GA1051+008001081GE19MSL   +99999+99999GF105991051990008001991991MA1999990095981MD1909990+0151REMSYN004BUFR
0165832360999992013100412004-12150-045000FM-12+043999999V0200501N0036199999999020000199+03071+01521101041ADDAA101999990AZ101061AZ201061GA1011+017501031GA2991+999991001GE19MSL   +99999+99999GF103991011990017501991991KA1120N+02401MA1999990096291MD1909990-0051REMSYN004BUFR
0136832360999992013100500004-12150-045000FM-12+043999999V0203601N0000199999999020000199+03001+01891100631ADDAA101999990AZ101061AZ201061GA1031+008001081GE19MSL   +99999+99999GF103991031990008001991991MA1999990095881MD1909990-0101REMSYN004BUFR
0171832360999992013100512004-12150-045000FM-12+043999999V0202301N0026199999999020000199+03071+01851100971ADDAA101999990AY121061AY221061GA1011+017501051GA2991+999991001GE19MSL   +99999+99999GF106991011990017501991991KA1120N+02481MA1999990096211MD1909990-0081MW1051REMSYN004BUFR
0171832360999992013100612004-12150-045000FM-12+043999999V0202301N0021199999999020000199+03021+01991101041ADDAA101999990AY121061AY221061GA1011+008001051GA2991+999991001GE19MSL   +99999+99999GF104991011990008001991991KA1120N+02421MA1999990096251MD1909990+0041MW1051REMSYN004BUFR
0171832360999992013100712004-12150-045000FM-12+043999999V0201401N0010199999999010000199+02791+02001101251ADDAA101999990AY121061AY221061GA1031+008001081GA2991+999991001GE19MSL   +99999+99999GF106991031990008001991991KA1120N+02441MA1999990096401MD1909990+0151MW1051REMSYN004BUFR
0136832360999992013100800004-12150-045000FM-12+043999999V0202301N0005199999999020000199+02521+02041101211ADDAA101999990AZ101061AZ201061GA1041+008001061GE19MSL   +99999+99999GF104991041990008001991991MA1999990096351MD1909990+0131REMSYN004BUFR
0165832360999992013100812004-12150-045000FM-12+043999999V0202301N0021199999999020000199+02621+01931101521ADDAA101999990AZ101061AZ201061GA1031+008001081GA2991+999991031GE19MSL   +99999+99999GF107991031990008001991991KA1120N+02331MA1999990096641MD1909990+0241REMSYN004BUFR
0136832360999992013100900004-12150-045000FM-12+043999999V0202301N0021100800199020000199+02871+01701100991ADDAA101999990AZ101061AZ201061GA1051+008001081GE19MSL   +99999+99999GF105991051990008001991991MA1999990096161MD1909990-0191REMSYN004BUFR
0165832360999992013100912004-12150-045000FM-12+043999999V0201401N0036199999999020000199+02701+01791101371ADDAA101999990AZ101061AZ201061GA1021+008001081GA2991+999991031GE19MSL   +99999+99999GF105991021990008001991991KA1120N+02311MA1999990096541MD1909990-0101REMSYN004BUFR
0136832360999992013101000004-12150-045000FM-12+043999999V0202301N0026100800199020000199+02771+01481101101ADDAA101999990AZ101061AZ201061GA1051+008001081GE19MSL   +99999+99999GF105991051990008001991991MA1999990096271MD1909990+0111REMSYN004BUFR
0165832360999992013101012004-12150-045000FM-12+043999999V0200501N0031199999999020000199+02641+01681101351ADDAA101999990AZ101061AZ201061GA1021+012501031GA2991+999991001GE19MSL   +99999+99999GF104991021990012501991991KA1120N+02181MA1999990096501MD1909990-0041REMSYN004BUFR
0136832360999992013101100004-12150-045000FM-12+043999999V0201401N0046100800199020000199+02971+01511100901ADDAA101999990AZ101061AZ201061GA1051+008001081GE19MSL   +99999+99999GF105991051990008001991991MA1999990096091MD1909990-0181REMSYN004BUFR
0149832360999992013101112004-12150-045000FM-12+043999999V0202301N0005199999999020000199+02701+01651101311ADDAA101999990AZ101061AZ201061GA1991+025001001GE19MSL   +99999+99999GF102991990990025001991991KA1120N+02231MA1999990096491MD1909990-0011REMSYN004BUFR
0136832360999992013101200004-12150-045000FM-12+043999999V0201401N0031100800199020000199+03021+01301100821ADDAA101999990AZ101061AZ201061GA1051+008001081GE19MSL   +99999+99999GF105991051990008001991991MA1999990096031MD1909990-0061REMSYN004BUFR
0149832360999992013101312004-12150-045000FM-12+043999999V0200501N0021199999999020000199+02741+01611101321ADDAA101999990AZ101061AZ201061GA1991+025001001GE19MSL   +99999+99999GF102991990990025001991991KA1120N+02191MA1999990096501MD1909990-0021REMSYN004BUFR
0165832360999992013101412004-12150-045000FM-12+043999999V0201401N0031199999999020000199+02851+01681101261ADDAA101999990AZ101061AZ201061GA1021+017501031GA2991+999991001GE19MSL   +99999+99999GF103991021990017501991991KA1120N+02231MA1999990096451MD1909990-0051REMSYN004BUFR
0136832360999992013101500004-12150-045000FM-12+043999999V0201401N0010100800199020000199+03071+01601101321ADDAA101999990AZ101061AZ201061GA1061+008001061GE19MSL   +99999+99999GF106991061990008001991991MA1999990096521MD1909990+0461REMSYN004BUFR
0165832360999992013101512004-12150-045000FM-12+043999999V0200501N0031199999999020000199+02891+01931101171ADDAA101999990AZ101061AZ201061GA1011+008001081GA2991+999991031GE19MSL   +99999+99999GF102991011990008001991991KA1120N+02511MA1999990096391MD1909990-0061REMSYN004BUFR
0136832360999992013101600004-12150-045000FM-12+043999999V0201401N0036100800199020000199+03191+01671100741ADDAA101999990AZ101061AZ201061GA1061+008001091GE19MSL   +99999+99999GF106991061990008001991991MA1999990095991MD1909990-0531REMSYN004BUFR
0165832360999992013101612004-12150-045000FM-12+043999999V0200501N0041199999999020000199+02891+01811101131ADDAA101999990AZ101061AZ201061GA1011+012501051GA2991+999991001GE19MSL   +99999+99999GF103991011990012501991991KA1120N+02581MA1999990096361MD1909990-0031REMSYN004BUFR
0136832360999992013101700004-12150-045000FM-12+043999999V0201401N0010100800199020000199+03101+01481100561ADDAA101999990AZ101061AZ201061GA1051+008001091GE19MSL   +99999+99999GF105991051990008001991991MA1999990095811MD1909990-0181REMSYN004BUFR
0165832360999992013101712004-12150-045000FM-12+043999999V0200501N0041199999999020000199+02921+01861101061ADDAA101999990AZ101061AZ201061GA1021+008001081GA2991+999991031GE19MSL   +99999+99999GF105991021990008001991991KA1120N+02571MA1999990096281MD1909990-0081REMSYN004BUFR
0158832360999992013101800004-12150-045000FM-12+043999999V0202701N0005199999999020000199+02841+01701100741ADDAA101999990AY101061AY201061GA1031+008001081GA2991+999991031GE19MSL   +99999+99999GF106991031990008001991991MA1999990095961MD1909990+0151MW1131REMSYN004BUFR
0165832360999992013101812004-12150-045000FM-12+043999999V0202701N0005199999999020000199+02901+01951100941ADDAA101999990AZ101061AZ201061GA1031+008001081GA2991+999991031GE19MSL   +99999+99999GF106991031990008001991991KA1120N+02461MA1999990096141MD1909990-0141REMSYN004BUFR
0158832360999992013101900004-12150-045000FM-12+043999999V0203601N0000199999999020000199+02421+02191100911ADDAA106001031AY151061AY251061GA1021+008001081GA2991+999991031GE19MSL   +99999+99999GF106991021990008001991991MA1999990096071MD1909990+0111MW1031REMSYN004BUFR
0155832360999992013101912004-12150-045000FM-12+043999999V0200501N0036101750199020000199+02771+02061100111ADDAA124001031AY151061AY251061GA1061+017501031GE19MSL   +99999+99999GF106991061990017501991991KA1120N+02291MA1999990096151MD1909990+0011MW1031REMSYN004BUFR
0155832360999992013102012004-12150-045000FM-12+043999999V0200501N0021100800199020000199+02101+02041101521ADDAA124027031AY161061AY261061GA1081+008001091GE19MSL   +99999+99999GF108991081990008001991991KA1120N+02111MA1999990096561MD1909990+0411MW1291REMSYN004BUFR
0187832360999992013102112004-12150-045000FM-12+043999999V0202301N0015199999999020000199+02551+02151101371ADDAA124015031AY161061AY261061GA1011+008001081GA2991+999991001GA3991+999991051GE19MSL   +99999+99999GF105991011990008001991991KA1120N+02051MA1999990096461MD1909990-0101MW1031REMSYN004BUFR
0152832360999992013102200004-12150-045000FM-12+043999999V0200501N0031199999999020000199+02621+01881101061ADDAA101999990AZ101061AZ201061GA1021+008001081GA2991+999991031GE19MSL   +99999+99999GF105991021990008001991991MA1999990096201MD1909990-0161REMSYN004BUFR
0165832360999992013102212004-12150-045000FM-12+043999999V0202301N0005199999999020000199+02421+02191101191ADDAA101999990AZ101061AZ201061GA1041+008001061GA2991+999991001GE19MSL   +99999+99999GF106991041990008001991991KA1120N+02291MA1999990096311MD1909990-0151REMSYN004BUFR
0136832360999992013102300004-12150-045000FM-12+043999999V0203601N0000199999999020000199+02541+02111100881ADDAA101999990AZ101061AZ201061GA1041+008001081GE19MSL   +99999+99999GF104991041990008001991991MA1999990096011MD1909990-0191REMSYN004BUFR
0165832360999992013102312004-12150-045000FM-12+043999999V0203601N0015199999999020000199+02801+01861101141ADDAA101999990AZ101061AZ201061GA1011+008001081GA2991+999991001GE19MSL   +99999+99999GF103991011990008001991991KA1120N+02161MA1999990096301MD1909990-0011REMSYN004BUFR
0136832360999992013102400004-12150-045000FM-12+043999999V0202301N0015199999999020000199+02541+02021100911ADDAA101999990AZ101061AZ201061GA1991+025001001GE19MSL   +99999+99999GF104991990990025001991991MA1999990096071MD1909990+0061REMSYN004BUFR
0181832360999992013102412004-12150-045000FM-12+043999999V0200501N0031199999999020000199+02841+01671101281ADDAA101999990AZ101061AZ201061GA1011+008001081GA2991+999991001GA3991+999991031GE19MSL   +99999+99999GF104991011990008001991991KA1120N+02111MA1999990096431MD1909990+0131REMSYN004BUFR
0136832360999992013102500004-12150-045000FM-12+043999999V0201401N0021199999999020000199+02871+01531100881ADDAA101999990AZ101061AZ201061GA1031+012501051GE19MSL   +99999+99999GF103991031990012501991991MA1999990096081MD1909990+0011REMSYN004BUFR
0165832360999992013102512004-12150-045000FM-12+043999999V0203601N0026199999999020000199+02871+01701101301ADDAA101999990AZ101061AZ201061GA1011+012501031GA2991+999991001GE19MSL   +99999+99999GF102991011990012501991991KA1120N+02191MA1999990096481MD1909990+0051REMSYN004BUFR
0136832360999992013102600004-12150-045000FM-12+043999999V0202301N0021199999999020000199+02921+01461100791ADDAA101999990AZ101061AZ201061GA1031+012501051GE19MSL   +99999+99999GF103991031990012501991991MA1999990096011MD1909990-0071REMSYN004BUFR
0149832360999992013102612004-12150-045000FM-12+043999999V020999999999999999999020000199+02891+01591101041ADDAA101999990AZ101061AZ201061GA1991+025001011GE19MSL   +99999+99999GF101991990990025001991991KA1120N+01971MA1999990096251MD1909990-0231REMSYN004BUFR
0165832360999992013102712004-12150-045000FM-12+043999999V0203601N0026199999999020000199+02871+01531101051ADDAA101999990AZ101061AZ201061GA1011+008001081GA2991+999991001GE19MSL   +99999+99999GF103991011990008001991991KA1120N+02141MA1999990096241MD1909990-0011REMSYN004BUFR
0165832360999992013102812004-12150-045000FM-12+043999999V0203201N0005199999999020000199+03021+01851100901ADDAA101999990AZ101061AZ201061GA1011+008001081GA2991+999991001GE19MSL   +99999+99999GF103991011990008001991991KA1120N+02511MA1999990096101MD1909990-0141REMSYN004BUFR
0136832360999992013102900004-12150-045000FM-12+043999999V0203201N0010199999999020000199+02741+01781100601ADDAA101999990AZ101061AZ201061GA1991+025001001GE19MSL   +99999+99999GF102991990990025001991991MA1999990095831MD1909990+0101REMSYN004BUFR
0165832360999992013102912004-12150-045000FM-12+043999999V0202301N0005199999999020000199+02951+02021100911ADDAA101999990AZ101061AZ201061GA1011+008001081GA2991+999991001GE19MSL   +99999+99999GF103991011990008001991991KA1120N+02181MA1999990096111MD1909990+0011REMSYN004BUFR
0136832360999992013103000004-12150-045000FM-12+043999999V0202301N0005100800199020000199+02391+02031100741ADDAA101999990AZ101061AZ201061GA1051+008001081GE19MSL   +99999+99999GF105991051990008001991991MA1999990095921MD1909990+0091REMSYN004BUFR
0165832360999992013103012004-12150-045000FM-12+043999999V0203201N0010199999999020000199+02871+01971101011ADDAA101999990AZ101061AZ201061GA1021+008001081GA2991+999991051GE19MSL   +99999+99999GF104991021990008001991991KA1120N+02241MA1999990096161MD1909990+0051REMSYN004BUFR
0136832360999992013103100004-12150-045000FM-12+043999999V0201801N0015101750199020000199+02521+02111100681ADDAA101999990AZ101061AZ201061GA1051+017501031GE19MSL   +99999+99999GF105991051990017501991991MA1999990095861MD1909990-0061REMSYN004BUFR
0165832360999992013103112004-12150-045000FM-12+043999999V0202301N0005199999999020000199+02801+02051100971ADDAA101999990AZ101061AZ201061GA1021+012501081GA2991+999991031GE19MSL   +99999+99999GF105991021990012501991991KA1120N+02281MA1999990096131MD1909990-0031REMSYN004BUFR
0136832360999992013110100004-12150-045000FM-12+043999999V0202301N0015199999999020000199+02751+01801100661ADDAA101999990AZ101061AZ201061GA1041+008001091GE19MSL   +99999+99999GF104991041990008001991991MA1999990095861MD1909990+0001REMSYN004BUFR
0181832360999992013110112004-12150-045000FM-12+043999999V0203201N0005199999999020000199+02951+01871100951ADDAA101999990AZ101061AZ201061GA1011+008001081GA2991+999991001GA3991+999991051GE19MSL   +99999+99999GF105991011990008001991991KA1120N+02291MA1999990096151MD1909990+0021REMSYN004BUFR
0136832360999992013110200004-12150-045000FM-12+043999999V0202701N0005199999999020000199+02791+01841100661ADDAA101999990AZ101061AZ201061GA1041+017501031GE19MSL   +99999+99999GF104991041990017501991991MA1999990095881MD1909990+0021REMSYN004BUFR
0165832360999992013110212004-12150-045000FM-12+043999999V0202301N0031199999999020000199+02821+01971101041ADDAA101999990AZ101061AZ201061GA1031+012501051GA2991+999991001GE19MSL   +99999+99999GF105991031990012501991991KA1120N+02301MA1999990096231MD1909990+0081REMSYN004BUFR
0165832360999992013110312004-12150-045000FM-12+043999999V0201401N0026199999999020000199+02801+01891101021ADDAA101999990AZ101061AZ201061GA1021+008001081GA2991+999991001GE19MSL   +99999+99999GF105991021990008001991991KA1120N+02271MA1999990096231MD1909990+0001REMSYN004BUFR
0165832360999992013110412004-12150-045000FM-12+043999999V0200501N0041199999999020000199+02741+01801100911ADDAA101999990AZ101061AZ201061GA1011+008001081GA2991+999991051GE19MSL   +99999+99999GF104991011990008001991991KA1120N+02031MA1999990096091MD1909990-0141REMSYN004BUFR
0136832360999992013110500004-12150-045000FM-12+043999999V0203601N0000199999999020000199+02571+01581100481ADDAA101999990AZ101061AZ201061GA1031+008001081GE19MSL   +99999+99999GF103991031990008001991991MA1999990095661MD1909990-0141REMSYN004BUFR
0165832360999992013110512004-12150-045000FM-12+043999999V0200501N0051199999999020000199+02891+01871100981ADDAA101999990AZ101061AZ201061GA1031+008001061GA2991+999991031GE19MSL   +99999+99999GF106991031990008001991991KA1120N+02301MA1999990096151MD1909990+0061REMSYN004BUFR
0142832360999992013110600004-12150-045000FM-12+043999999V0203601N0000100800199020000199+02201+02101101141ADDAA106018031AY191061AY291061GA1081+008001091GE19MSL   +99999+99999GF108991081990008001991991MA1999990096281MD1909990+0621MW1641REMSYN004BUFR
0171832360999992013110612004-12150-045000FM-12+043999999V0202301N0021100800199020000199+02321+02051101371ADDAA124035031AY161061AY261061GA1061+008001091GA2991+999991031GE19MSL   +99999+99999GF108991061990008001991991KA1120N+02131MA1999990096441MD1909990+0291MW1031REMSYN004BUFR
0142832360999992013110700004-12150-045000FM-12+043999999V0201401N0005100800199020000199+02071+01931101401ADDAA106022031AY161061AY261061GA1071+008001091GE19MSL   +99999+99999GF107991071990008001991991MA1999990096451MD1909990+0171MW1611REMSYN004BUFR
0171832360999992013110712004-12150-045000FM-12+043999999V0202301N0005199999999020000199+02351+02091101401ADDAA124025031AY161061AY261061GA1031+008001081GA2991+999991031GE19MSL   +99999+99999GF106991031990008001991991KA1120N+02031MA1999990096451MD1909990+0011MW1031REMSYN004BUFR
0136832360999992013110800004-12150-045000FM-12+043999999V0202301N0005199999999020000199+02541+02001100981ADDAA101999990AZ101061AZ201061GA1991+025001001GE19MSL   +99999+99999GF102991990990025001991991MA1999990096101MD1909990-0351REMSYN004BUFR
0181832360999992013110812004-12150-045000FM-12+043999999V0202701N0005199999999020000199+02701+02101101051ADDAA101999990AZ101061AZ201061GA1011+008001081GA2991+999991001GA3991+999991031GE19MSL   +99999+99999GF105991011990008001991991KA1120N+02171MA1999990096191MD1909990-0261REMSYN004BUFR
0152832360999992013110900004-12150-045000FM-12+043999999V0202301N0015199999999020000199+02691+01881100681ADDAA101999990AZ101061AZ201061GA1011+008001081GA2991+999991051GE19MSL   +99999+99999GF104991011990008001991991MA1999990095861MD1909990-0241REMSYN004BUFR
0165832360999992013110912004-12150-045000FM-12+043999999V0202301N0010199999999020000199+02791+02111100851ADDAA101999990AZ101061AZ201061GA1031+012501051GA2991+999991001GE19MSL   +99999+99999GF105991031990012501991991KA1120N+02391MA1999990096031MD1909990-0161REMSYN004BUFR
0171832360999992013111012004-12150-045000FM-12+043999999V0202301N0015199999999020000199+02391+02261100921ADDAA124001031AY161061AY261061GA1031+008001061GA2991+999991031GE19MSL   +99999+99999GF106991031990008001991991KA1120N+02391MA1999990096071MD1909990+0041MW1031REMSYN004BUFR
0181832360999992013111112004-12150-045000FM-12+043999999V0203601N0005199999999020000199+02791+02111100901ADDAA124001031AZ101061AZ201061GA1021+008001081GA2991+999991001GA3991+999991051GE19MSL   +99999+99999GF105991021990008001991991KA1120N+02201MA1999990096081MD1909990+0011REMSYN004BUFR
0158832360999992013111200004-12150-045000FM-12+043999999V0203601N0000199999999020000199+02691+02131100641ADDAA101999990AY111061AY211061GA1031+008001061GA2991+999991051GE19MSL   +99999+99999GF106991031990008001991991MA1999990095831MD1909990+0091MW1131REMSYN004BUFR
0181832360999992013111212004-12150-045000FM-12+043999999V0200501N0005199999999020000199+02791+02151101011ADDAA101999990AZ101061AZ201061GA1021+008001081GA2991+999991001GA3991+999991031GE19MSL   +99999+99999GF106991021990008001991991KA1120N+02391MA1999990096181MD1909990+0101REMSYN004BUFR
0142832360999992013111300004-12150-045000FM-12+043999999V0203201N0005199999999020000199+02571+01971100841ADDAA101999990AY111061AY211061GA1991+025001001GE19MSL   +99999+99999GF102991990990025001991991MA1999990096011MD1909990+0181MW1131REMSYN004BUFR
0171832360999992013111312004-12150-045000FM-12+043999999V0201401N0005199999999020000199+02741+02191100981ADDAA124000731AY151061AY251061GA1021+008001081GA2991+999991051GE19MSL   +99999+99999GF104991021990008001991991KA1120N+02221MA1999990096141MD1909990-0041MW1031REMSYN004BUFR
0136832360999992013111400004-12150-045000FM-12+043999999V0202301N0010199999999020000199+02721+02121100561ADDAA101999990AZ101061AZ201061GA1041+017501051GE19MSL   +99999+99999GF104991041990017501991991MA1999990095751MD1909990-0261REMSYN004BUFR
0171832360999992013111412004-12150-045000FM-12+043999999V0202301N0005199999999020000199+02751+02071100901ADDAA124001031AY161061AY261061GA1021+008001081GA2991+999991001GE19MSL   +99999+99999GF104991021990008001991991KA1120N+02361MA1999990096161MD1909990+0021MW1031REMSYN004BUFR
0158832360999992013111500004-12150-045000FM-12+043999999V0202301N0015199999999020000199+02341+02151100791ADDAA106010031AY161061AY261061GA1031+008001061GA2991+999991031GE19MSL   +99999+99999GF106991031990008001991991MA1999990095941MD1909990+0191MW1131REMSYN004BUFR
0152832360999992013111900004-12150-045000FM-12+043999999V0201401N0015199999999020000199+02721+01621100661ADDAA101999990AZ101061AZ201061GA1031+017501031GA2991+999991001GE19MSL   +99999+99999GF105991031990017501991991MA1999990095851MD1909990+0021REMSYN004BUFR
0111832360999992013111912004-12150-045000FM-12+043999999V0200501N0057122000199020000199+02851+01751100961ADDAA101999990AZ101061AZ201061GF100991999999999999999999KA1120N+02171MA1999990096151MD1909990+0071REMSYN004BUFR
0152832360999992013112000004-12150-045000FM-12+043999999V0200501N0010199999999020000199+02721+01611100671ADDAA101999990AZ101061AZ201061GA1021+008001081GA2991+999991031GE19MSL   +99999+99999GF105991021990008001991991MA1999990095871MD1909990+0021REMSYN004BUFR
0165832360999992013112012004-12150-045000FM-12+043999999V0200501N0031199999999020000199+02841+01731101111ADDAA101999990AZ101061AZ201061GA1011+008001081GA2991+999991031GE19MSL   +99999+99999GF103991011990008001991991KA1120N+02401MA1999990096291MD1909990+0141REMSYN004BUFR
0136832360999992013112100004-12150-045000FM-12+043999999V020230199999999999999020000199+02591+01871100811ADDAA101999990AZ101061AZ201061GA1991+025001001GE19MSL   +99999+99999GF102991990990025001991991MA1999990095981MD1909990+0111REMSYN004BUFR
0111832360999992013112112004-12150-045000FM-12+043999999V0203601N0010122000199020000199+02791+01661101091ADDAA101999990AZ101061AZ201061GF100991999999999999999999KA1120N+01971MA1999990096251MD1909990-0041REMSYN004BUFR
0136832360999992013112200004-12150-045000FM-12+043999999V0203601N0000199999999020000199+02541+01911100611ADDAA101999990AZ101061AZ201061GA1011+017501051GE19MSL   +99999+99999GF101991011990017501991991MA1999990095781MD1909990-0201REMSYN004BUFR
0165832360999992013112212004-12150-045000FM-12+043999999V0200501N0031199999999020000199+02921+01571100781ADDAA101999990AZ101061AZ201061GA1011+012501031GA2991+999991001GE19MSL   +99999+99999GF102991011990012501991991KA1120N+01951MA1999990095961MD1909990-0291REMSYN004BUFR
0136832360999992013112300004-12150-045000FM-12+043999999V0203201N0010199999999020000199+02641+01871100371ADDAA101999990AZ101061AZ201061GA1031+017501031GE19MSL   +99999+99999GF103991031990017501991991MA1999990095591MD1909990-0191REMSYN004BUFR
0165832360999992013112312004-12150-045000FM-12+043999999V0200501N0021199999999020000199+02851+02011100751ADDAA101999990AZ101061AZ201061GA1031+017501031GA2991+999991001GE19MSL   +99999+99999GF104991031990017501991991KA1120N+02121MA1999990095941MD1909990-0021REMSYN004BUFR
0171832360999992013112412004-12150-045000FM-12+043999999V0201401N0010199999999020000199+02521+02041101101ADDAA101999990AY121061AY221061GA1031+008001091GA2991+999991051GE19MSL   +99999+99999GF106991031990008001991991KA1120N+02371MA1999990096231MD1909990+0291MW1151REMSYN004BUFR
0171832360999992013112512004-12150-045000FM-12+043999999V0203601N0000199999999020000199+02441+02111101151ADDAA124032031AY161061AY261061GA1031+008001081GA2991+999991031GE19MSL   +99999+99999GF106991031990008001991991KA1120N+02141MA1999990096241MD1909990+0011MW1031REMSYN004BUFR
0136832360999992013112600004-12150-045000FM-12+043999999V0203601N0000100800199020000199+02671+02041100731ADDAA101999990AZ101061AZ201061GA1061+008001081GE19MSL   +99999+99999GF106991061990008001991991MA1999990095881MD1909990-0421REMSYN004BUFR
0187832360999992013112612004-12150-045000FM-12+043999999V0200501N0015100800199010000199+02141+02111101061ADDAA124032031AY161061AY261061GA1081+008001061GA2991+999991101GA3991+999991101GE19MSL   +99999+99999GF108991081990008001991991KA1120N+02181MA1999990096161MD1909990-0081MW1951REMSYN004BUFR
0142832360999992013112700004-12150-045000FM-12+043999999V0203601N0000199999999020000199+02441+02281100531ADDAA106009031AY161061AY261061GA1041+008001061GE19MSL   +99999+99999GF104991041990008001991991MA1999990095641MD1909990-0241MW1031REMSYN004BUFR
0171832360999992013112712004-12150-045000FM-12+043999999V0202701N0005199999999020000199+02621+02251100621ADDAA124010031AY161061AY261061GA1031+008001091GA2991+999991051GE19MSL   +99999+99999GF105991031990008001991991KA1120N+02201MA1999990095721MD1909990-0441MW1031REMSYN004BUFR
0142832360999992013112800004-12150-045000FM-12+043999999V0200501N0021100800199020000199+02351+02201100611ADDAA106018031AY161061AY261061GA1051+008001091GE19MSL   +99999+99999GF105991051990008001991991MA1999990095751MD1909990+0111MW1131REMSYN004BUFR
0171832360999992013112812004-12150-045000FM-12+043999999V0203601N0000199999999020000199+02441+02111100911ADDAA124038031AY161061AY261061GA1041+008001061GA2991+999991051GE19MSL   +99999+99999GF106991041990008001991991KA1120N+02201MA1999990096021MD1909990+0301MW1031REMSYN004BUFR
0142832360999992013112900004-12150-045000FM-12+043999999V0200501N0015100800199010000199+02371+02211100781ADDAA106000231AY151061AY251061GA1061+008001081GE19MSL   +99999+99999GF106991061990008001991991MA1999990095901MD1909990+0151MW1121REMSYN004BUFR
0155832360999992013112912004-12150-045000FM-12+043999999V0200501N0021100800199020000199+02371+02171101151ADDAA124000231AY151061AY251061GA1061+008001061GE19MSL   +99999+99999GF106991061990008001991991KA1120N+02251MA1999990096241MD1909990+0221MW1151REMSYN004BUFR
0142832360999992013113000004-12150-045000FM-12+043999999V0203601N0000199999999020000199+02291+02141101061ADDAA106002031AY161061AY261061GA1041+008001091GE19MSL   +99999+99999GF104991041990008001991991MA1999990096151MD1909990+0251MW1501REMSYN004BUFR
0155832360999992013113012004-12150-045000FM-12+043999999V0203601N0000100800199020000199+02421+02171101181ADDAA124002031AY161061AY261061GA1061+008001061GE19MSL   +99999+99999GF106991061990008001991991KA1120N+02171MA1999990096271MD1909990+0031MW1031REMSYN004BUFR
0149832360999992013120112004-12150-045000FM-12+043999999V0203601N0000199999999020000199+02721+02241100961ADDAA101999990AZ101061AZ201061GA1021+017501051GE19MSL   +99999+99999GF102991021990017501991991KA1120N+02221MA1999990096121MD1909990-0151REMSYN004BUFR
0149832360999992013120212004-12150-045000FM-12+043999999V0200501N0015199999999020000199+02741+01911101011ADDAA101999990AZ101061AZ201061GA1991+025001001GE19MSL   +99999+99999GF102991990990025001991991KA1120N+02011MA1999990096171MD1909990+0051REMSYN004BUFR
0098832360999992013120300004-12150-045000FM-12+043999999V0203601N0000122000199020000199+02471+01941100871ADDAA101999990AZ101061AZ201061GF100991999999999999999999MA1999990096021MD1909990+0081REMSYN004BUFR
0149832360999992013120312004-12150-045000FM-12+043999999V0200501N0015199999999020000199+02741+01891101091ADDAA101999990AZ101061AZ201061GA1021+017501051GE19MSL   +99999+99999GF102991021990017501991991KA1120N+01931MA1999990096231MD1909990+0061REMSYN004BUFR
0142832360999992013120400004-12150-045000FM-12+043999999V0202301N0005199999999020000199+02671+02241100811ADDAA101999990AY101061AY201061GA1991+025001001GE19MSL   +99999+99999GF103991990990025001991991MA1999990095981MD1909990-0041MW1131REMSYN004BUFR
0181832360999992013120412004-12150-045000FM-12+043999999V0203601N0000199999999020000199+02801+02121101091ADDAA101999990AZ101061AZ201061GA1011+008001081GA2991+999991001GA3991+999991031GE19MSL   +99999+99999GF104991011990008001991991KA1120N+01961MA1999990096261MD1909990+0031REMSYN004BUFR
0136832360999992013120500004-12150-045000FM-12+043999999V0203601N0000199999999020000199+02651+02221100861ADDAA101999990AZ101061AZ201061GA1021+017501051GE19MSL   +99999+99999GF102991021990017501991991MA1999990096031MD1909990+0051REMSYN004BUFR
0181832360999992013120512004-12150-045000FM-12+043999999V0203201N0005199999999020000199+02651+02141100931ADDAA101999990AZ101061AZ201061GA1011+008001081GA2991+999991001GA3991+999991031GE19MSL   +99999+99999GF104991011990008001991991KA1120N+02231MA1999990096091MD1909990-0171REMSYN004BUFR
0158832360999992013120600004-12150-045000FM-12+043999999V0202301N0010199999999020000199+02721+01951100791ADDAA101999990AY101061AY201061GA1011+008001081GA2991+999991001GE19MSL   +99999+99999GF104991011990008001991991MA1999990095961MD1909990-0071MW1131REMSYN004BUFR
0165832360999992013120612004-12150-045000FM-12+043999999V0201801N0015100800199020000199+02441+02031101031ADDAA101999990AZ101061AZ201061GA1051+008001061GA2991+999991001GE19MSL   +99999+99999GF107991051990008001991991KA1120N+02221MA1999990096171MD1909990+0081REMSYN004BUFR
0171832360999992013120712004-12150-045000FM-12+043999999V0203601N0000199999999020000199+02551+01941101141ADDAA124000931AY151061AY251061GA1041+008001061GA2991+999991051GE19MSL   +99999+99999GF106991041990008001991991KA1120N+02581MA1999990096251MD1909990+0081MW1031REMSYN004BUFR
0181832360999992013120812004-12150-045000FM-12+043999999V0202301N0005199999999020000199+02691+02221101111ADDAA124014031AZ101061AZ201061GA1021+008001081GA2991+999991001GA3991+999991031GE19MSL   +99999+99999GF105991021990008001991991KA1120N+02241MA1999990096231MD1909990-0021REMSYN004BUFR
0181832360999992013120912004-12150-045000FM-12+043999999V0201401N0015199999999020000199+02741+02261101041ADDAA101999990AZ101061AZ201061GA1021+008001091GA2991+999991001GA3991+999991051GE19MSL   +99999+99999GF106991021990008001991991KA1120N+02261MA1999990096281MD1909990+0051REMSYN004BUFR
0142832360999992013121000004-12150-045000FM-12+043999999V0203601N0000100800199020000199+02291+02161101131ADDAA106000331AY151061AY251061GA1051+008001061GE19MSL   +99999+99999GF105991051990008001991991MA1999990096251MD1909990+0131MW1031REMSYN004BUFR
0187832360999992013121012004-12150-045000FM-12+043999999V0201401N0010199999999020000199+02651+02181101191ADDAA124000431AY151061AY251061GA1021+008001081GA2991+999991001GA3991+999991031GE19MSL   +99999+99999GF106991021990008001991991KA1120N+02251MA1999990096301MD1909990+0021MW1031REMSYN004BUFR
0158832360999992013121100004-12150-045000FM-12+043999999V0203601N0000199999999020000199+02371+02171100971ADDAA101999990AY191061AY291061GA1031+008001081GA2991+999991031GE19MSL   +99999+99999GF105991031990008001991991MA1999990096101MD1909990-0151MW1131REMSYN004BUFR
0165832360999992013121112004-12150-045000FM-12+043999999V0203601N0015199999999020000199+02641+02161101061ADDAA101999990AZ101061AZ201061GA1031+008001081GA2991+999991031GE19MSL   +99999+99999GF106991031990008001991991KA1120N+02221MA1999990096181MD1909990-0121REMSYN004BUFR
0152832360999992013121200004-12150-045000FM-12+043999999V0203601N0000199999999020000199+02621+02211100731ADDAA101999990AZ101061AZ201061GA1021+008001081GA2991+999991031GE19MSL   +99999+99999GF103991021990008001991991MA1999990095901MD1909990-0201REMSYN004BUFR
0149832360999992013121212004-12150-045000FM-12+043999999V0203601N0000100800199020000199+02591+02211100841ADDAA101999990AZ101061AZ201061GA1061+008001061GE19MSL   +99999+99999GF106991061990008001991991KA1120N+02261MA1999990095991MD1909990-0191REMSYN004BUFR
0158832360999992013121300004-12150-045000FM-12+043999999V0200501N0026100800199020000199+02301+02161101001ADDAA106010031AY161061AY261061GA1051+008001061GA2991+999991051GE19MSL   +99999+99999GF107991051990008001991991MA1999990096121MD1909990+0221MW1031REMSYN004BUFR
0171832360999992013121312004-12150-045000FM-12+043999999V0203601N0000199999999020000199+02391+02191101041ADDAA124016031AY161061AY261061GA1041+008001081GA2991+999991031GE19MSL   +99999+99999GF107991041990008001991991KA1120N+02201MA1999990096141MD1909990+0151MW1031REMSYN004BUFR
0158832360999992013121400004-12150-045000FM-12+043999999V0200501N0010199999999020000199+02241+02171101101ADDAA106009031AY161061AY291061GA1021+008001081GA2991+999991031GE19MSL   +99999+99999GF107991021990008001991991MA1999990096181MD1909990+0061MW1611REMSYN004BUFR
0187832360999992013121412004-12150-045000FM-12+043999999V0202301N0005199999999020000199+02291+02181101171ADDAA124019031AY161061AY261061GA1031+008001091GA2991+999991101GA3991+999991031GE19MSL   +99999+99999GF108991031990008001991991KA1120N+02141MA1999990096241MD1909990+0101MW1611REMSYN004BUFR
0190832360999992013121512004-12150-045000FM-12+043999999V0201801N0005199999999020000199+02501+02231100981ADDAA124005031AY161061AY261061GA1041+008001081GA2991+999991001GE19MSL   +99999+99999GF106991041990008001991991KA1120N+99999MA1999990096101MD1909990-0141MW1031REMSYN004BUFREQDQ01 +02572ATMN  
0171832360999992013121612004-12150-045000FM-12+043999999V0200501N0015199999999020000199+02541+02351100921ADDAA124023031AY161061AY261061GA1041+008001091GA2991+999991051GE19MSL   +99999+99999GF106991041990008001991991KA1120N+02221MA1999990096031MD1909990-0071MW1031REMSYN004BUFR
0174832360999992013121700004-12150-045000FM-12+043999999V0202301N0005100800199010000199+02301+02221100711ADDAA106003031AY161061AY261061GA1081+008001061GA2991+999991101GA3991+999991101GE19MSL   +99999+99999GF108991081990008001991991MA1999990095841MD1909990-0201MW1631REMSYN004BUFR
0187832360999992013121712004-12150-045000FM-12+043999999V0200501N0015199999999020000199+02341+02111100851ADDAA124055031AY161061AY261061GA1031+008001061GA2991+999991101GA3991+999991051GE19MSL   +99999+99999GF108991031990008001991991KA1120N+02141MA1999990095951MD1909990-0081MW1031REMSYN004BUFR
0136832360999992013121800004-12150-045000FM-12+043999999V0200501N0021100800199020000199+02341+02181100651ADDAA101999990AZ101061AZ201061GA1061+008001091GE19MSL   +99999+99999GF106991061990008001991991MA1999990095761MD1909990-0081REMSYN004BUFR
0187832360999992013121812004-12150-045000FM-12+043999999V0200501N0021199999999010000199+02221+02161100861ADDAA124006031AY161061AY261061GA1041+008001091GA2991+999991101GA3991+999991031GE19MSL   +99999+99999GF108991041990008001991991KA1120N+02171MA1999990095951MD1909990+0001MW1501REMSYN004BUFR
0158832360999992013121900004-12150-045000FM-12+043999999V0200501N0021199999999020000199+02291+02161100751ADDAA106004031AY161061AY261061GA1041+008001091GA2991+999991051GE19MSL   +99999+99999GF106991041990008001991991MA1999990095841MD1909990+0081MW1031REMSYN004BUFR
0187832360999992013121912004-12150-045000FM-12+043999999V0200501N0026100800199020000199+02321+02181100771ADDAA124007031AY161061AY261061GA1081+008001061GA2991+999991101GA3991+999991051GE19MSL   +99999+99999GF108991081990008001991991KA1120N+02241MA1999990095871MD1909990-0081MW1151REMSYN004BUFR
0158832360999992013122000004-12150-045000FM-12+043999999V0203201N0005199999999020000199+02321+02051100631ADDAA106001031AY161061AY261061GA1031+008001091GA2991+999991051GE19MSL   +99999+99999GF106991031990008001991991MA1999990095741MD1909990-0101MW1031REMSYN004BUFR
0187832360999992013122012004-12150-045000FM-12+043999999V0200501N0015100800199020000199+02321+02201100781ADDAA124003031AY161061AY261061GA1051+008001061GA2991+999991031GA3991+999991101GE19MSL   +99999+99999GF108991051990008001991991KA1120N+02221MA1999990095881MD1909990+0011MW1511REMSYN004BUFR
0158832360999992013122100004-12150-045000FM-12+043999999V0200501N0026199999999020000199+02291+02221100591ADDAA106006031AY161061AY261061GA1031+008001091GA2991+999991051GE19MSL   +99999+99999GF106991031990008001991991MA1999990095711MD1909990-0031MW1031REMSYN004BUFR
0187832360999992013122112004-12150-045000FM-12+043999999V0200501N0031100800199010000199+02191+02131100741ADDAA124015031AY161061AY261061GA1081+008001061GA2991+999991101GA3991+999991101GE19MSL   +99999+99999GF108991081990008001991991KA1120N+02181MA1999990095831MD1909990-0051MW1611REMSYN004BUFR
0187832360999992013122212004-12150-045000FM-12+043999999V0200501N0021100800199010000199+02171+02101100861ADDAA124057031AY161061AY261061GA1081+008001061GA2991+999991101GA3991+999991101GE19MSL   +99999+99999GF108991081990008001991991KA1120N+02151MA1999990095931MD1909990+0101MW1511REMSYN004BUFR
0187832360999992013122312004-12150-045000FM-12+043999999V0200501N0026199999999020000199+02271+02161101101ADDAA124000431AY121061AY221061GA1031+008001081GA2991+999991101GA3991+999991031GE19MSL   +99999+99999GF108991031990008001991991KA1120N+02181MA1999990096171MD1909990+0241MW1511REMSYN004BUFR
0142832360999992013122400004-12150-045000FM-12+043999999V020180199999900800199020000199+02371+02221100931ADDAA106002031AY161061AY261061GA1051+008001061GE19MSL   +99999+99999GF105991051990008001991991MA1999990096051MD1909990+0041MW1511REMSYN004BUFR
0171832360999992013122412004-12150-045000FM-12+043999999V0201801N0010199999999020000199+02441+02151101101ADDAA124003031AY161061AY261061GA1031+008001081GA2991+999991051GE19MSL   +99999+99999GF106991031990008001991991KA1120N+02231MA1999990096201MD1909990+0031MW1031REMSYN004BUFR
0096832360999992013122418004-12150-045000FM-12+043999999V020999999999999999999002300199+99999+99999999999ADDAZ101061AZ201061GA1991+001501991GE19MSL   +99999+99999GF102991990990001501991991REMSYN004BUFR
0181832360999992013122512004-12150-045000FM-12+043999999V0202301N0005199999999020000199+02571+02271101131ADDAA101999990AZ101061AZ201061GA1021+008001081GA2991+999991001GA3991+999991031GE19MSL   +99999+99999GF106991021990008001991991KA1120N+02221MA1999990096261MD1909990+0061REMSYN004BUFR
0181832360999992013122612004-12150-045000FM-12+043999999V0202301N0010199999999020000199+02651+02271101091ADDAA124001031AZ101061AZ201061GA1021+008001091GA2991+999991001GA3991+999991051GE19MSL   +99999+99999GF106991021990008001991991KA1120N+02171MA1999990096221MD1909990-0041REMSYN004BUFR
0187832360999992013122712004-12150-045000FM-12+043999999V0202301N0015199999999020000199+02191+02081101291ADDAA124018031AY161061AY261061GA1021+008001081GA2991+999991001GA3991+999991031GE19MSL   +99999+99999GF107991021990008001991991KA1120N+02141MA1999990096341MD1909990+0121MW1511REMSYN004BUFR
0187832360999992013122812004-12150-045000FM-12+043999999V0201801N0010199999999010000199+02151+02021101401ADDAA124012031AY161061AY261061GA1021+008001091GA2991+999991021GA3991+999991031GE19MSL   +99999+99999GF107991021990008001991991KA1120N+02081MA1999990096481MD1909990+0141MW1581REMSYN004BUFR
0171832360999992013122912004-12150-045000FM-12+043999999V0200501N0005199999999020000199+02551+02191101211ADDAA124002031AY161061AY261061GA1021+008001081GA2991+999991031GE19MSL   +99999+99999GF106991021990008001991991KA1120N+02021MA1999990096311MD1909990-0171MW1031REMSYN004BUFR
0149832360999992013123012004-12150-045000FM-12+043999999V0200501N0015199999999020000199+02691+02131101101ADDAA101999990AZ101061AZ201061GA1011+022501031GE19MSL   +99999+99999GF101991011990022501991991KA1120N+02081MA1999990096241MD1909990-0071REMSYN004BUFR
0149832360999992013123112004-12150-045000FM-12+043999999V0202301N0005199999999020000199+02571+02011101111ADDAA101999990AZ101061AZ201061GA1021+017501031GE19MSL   +99999+99999GF102991021990017501991991KA1120N+01981MA1999990096241MD1909990+0001REMSYN004BUFR
