0211822800999992007040212004-02533-044300FM-12+005199999V0200701N002110042019N0100001N1+02741+02501101151ADDAA124019091AY161061AY221061GF107991061051004501031999KA1240N+02461MA1101931100571MD1999999+0001MW1031REMSYN098AAXX  02124 82280 21497 70704 10274 20250 30057 40115 70362 8653/ 333 20246 58000 60194 555 10194;
0137822800999992007040218004-02533-044300FM-12+005199999V0200301N002610042019N0100001N1+02821+02561100841ADDGF107991051051004501021999MA1999999100261MD1999999+0041REMSYN070AAXX  02184 82280 32497 70305 10282 20256 30026 40084 8552/ 333 58004;
0211822800999992007041712004-02533-044300FM-12+005199999V0200901N001010042019N0100001N1+02501+02431101141ADDAA124020091AY161061AY221061GF108991061051004501011999KA1240N+02401MA1102001100561MD1999999-0141MW1011REMSYN098AAXX  17124 82280 21497 80902 10250 20243 30056 40114 70162 8651/ 333 20240 59014 60204 555 10201;
0137822800999992007092518004-02533-044300FM-12+005199999V02099999999990042019N0100001N1+02981+02351101131ADDGF105991051021004501001001MA1999999100551MD1999999+0001REMSYN070AAXX  25184 82280 32497 5//// 10298 20235 30055 40113 85200 333 58000;
