0211825780999992007040212004-05083-042817FM-12+007499999V0202301N000510075019N0100001N1+02661+02331101541ADDAA124016091AY161061AY221061GF106991061041008001001001KA1240N+02221MA1101591100511MD1999999+0211MW1021REMSYN098AAXX  02124 82578 21597 62301 10266 20233 30051 40154 70262 86400 333 20222 58021 60164 555 10158;
0137825780999992007040218004-05083-042817FM-12+007499999V0201401N002110450019N0100001N1+03301+02471100891ADDGF105991031031008001041001MA1999999099881MD1999999-0031REMSYN070AAXX  02184 82578 32597 51404 10330 20247 39988 40089 83340 333 59003;
0211825780999992007041712004-05083-042817FM-12+007499999V0203201N001010075019N0100001N1+02221+02171101491ADDAA124040091AY161061AY261061GF108991081071008001999999KA1240N+02181MA1103961100461MD1999999-0041MW1211REMSYN098AAXX  17124 82578 21597 83202 10222 20217 30046 40149 72166 887// 333 20218 59004 60404 555 10398;
0153825780999992007092518004-05083-042817FM-12+007499999V0201401N001512200019N0100001N1+03801+01631101001ADDGA1001+999999999GF100991001001999999001001MA1999999100001MD1999999-0051REMSYN070AAXX  25184 82578 32597 01403 10380 20163 30000 40100 81100 333 59005;
