0156829000999992007040212004-08050-034917FM-12+000799999V0201401N003110075019N0100001N1+02901+02321101351ADDGF106991061021008001001001KA1240N+02361MA1999999101261MD1999999+0051REMSYN076AAXX  02124 82900 32597 61406 10290 20232 30126 40135 86200 333 20236 58005;
0137829000999992007040218004-08050-034917FM-12+000799999V0201401N003612200019N0100001N1+02951+02381101021ADDGF104991041021008001001001MA1999999100931MD1999999-0041REMSYN070AAXX  02184 82900 32597 41407 10295 20238 30093 40102 84200 333 59004;
0156829000999992007041712004-08050-034917FM-12+000799999V0201401N002110075019N0100001N1+02891+02341101271ADDGF105991051021008001001001KA1240N+02261MA1999999101181MD1999999-0221REMSYN076AAXX  17124 82900 32597 51404 10289 20234 30118 40127 85200 333 20226 59022;
0137829000999992007092518004-08050-034917FM-12+000799999V0201401N003612200019N0100001N1+02751+02071101411ADDGF104991041011008001001001MA1999999101321MD1999999+0051REMSYN070AAXX  25184 82900 32597 41407 10275 20207 30132 40141 84100 333 58005;
