0178829860999992007010100004-09400-038217FM-12+0253SBUF V0201401N007712200019N0020001N1+02741+01701101271ADDGA1001+999999999GF100991001001999999001001KA1240M+03421MA1999999098451MD1999999-0051REMSYN082AAXX  01004 82986 32995 01415 10274 20170 39845 40127 333 10342 29051 55102 59005;
0156829860999992007010112004-09400-038217FM-12+0253SBUF V0200901N004610075019N0100001N1+02771+02041101431ADDGF105991051021008001001001KA1240N+02321MA1999999098601MD1999999+0001REMSYN076AAXX  01124 82986 32597 50909 10277 20204 39860 40143 85200 333 20232 58000;
0137829860999992007010118004-09400-038217FM-12+0253SBUF V0201401N002610075019N0200001N1+03511+01681100911ADDGF105991051011008001001001MA1999999098121MD1999999-0071REMSYN070AAXX  01184 82986 32598 51405 10351 20168 39812 40091 85100 333 59007;
0178829860999992007010200004-09400-038217FM-12+0253SBUF V0200901N006212200019N0020001N1+02781+02091101211ADDGA1001+999999999GF100991001001999999001001KA1240M+03591MA1999999098391MD1999999-0061REMSYN082AAXX  02004 82986 32995 00912 10278 20209 39839 40121 333 10359 29058 55102 59006;
0156829860999992007010212004-09400-038217FM-12+0253SBUF V0201801N004110075019N0100001N1+02891+02131101431ADDGF106991061021008001001001KA1240N+02381MA1999999098611MD1999999+0011REMSYN076AAXX  02124 82986 32597 61808 10289 20213 39861 40143 86200 333 20238 58001;
0137829860999992007010218004-09400-038217FM-12+0253SBUF V0201401N009811050019N0200001N1+03341+01871100871ADDGF106991021021008001031041MA1999999098161MD1999999+0041REMSYN070AAXX  02184 82986 32598 61419 10334 20187 39816 40087 82234 333 58004;
0168829860999992007010300004-09400-038217FM-12+0253SBUF V0200901N006210075019N0020001N1+02621+02161101371ADDGF105991051011008001001001KA1240M+03541MA1999999098541MD1999999+0151REMSYN088AAXX  03004 82986 32595 50912 10262 20216 39854 40137 85100 333 10354 29065 55096 58015;
0220829860999992007010312004-09400-038217FM-12+0253SBUF V0201801N003610120019N0040001N1+02701+02171101371ADDAA124000091AY151061AY221061GF107991061081008001081001KA1240N+02281MA1999999098531MD1999999-0081MW1151REMSYN088AAXX  03124 82986 21596 71807 10270 20217 39853 40137 71552 86880 333 20228 59008 69924;EQDQ01  00002PRCP24
0137829860999992007010318004-09400-038217FM-12+0253SBUF V0201401N005710075019N0200001N1+03311+01551101021ADDGF106991051021008001031001MA1999999098211MD1999999+0051REMSYN070AAXX  03184 82986 32598 61411 10331 20155 39821 40102 85230 333 58005;
0178829860999992007010400004-09400-038217FM-12+0253SBUF V0201801N007212200019N0020001N1+02681+01921101241ADDGA1001+999999999GF100991001001999999001001KA1240M+03351MA1999999098411MD1999999-0131REMSYN082AAXX  04004 82986 32995 01814 10268 20192 39841 40124 333 10335 29058 55052 59013;
0156829860999992007010412004-09400-038217FM-12+0253SBUF V0201401N003110042019N0100001N1+02741+02001101321ADDGF107991071071004501999999KA1240N+02281MA1999999098491MD1999999-0041REMSYN076AAXX  04124 82986 32497 71406 10274 20200 39849 40132 877// 333 20228 59004;
0165829860999992007010418004-09400-038217FM-12+0253SBUF V0200901N005110042019N0100001N1+02981+02091100971ADDAY121061AY221061GF106991061071004501999999MA1999999098141MD1999999-0071MW1151REMSYN076AAXX  04184 82986 31497 60910 10298 20209 39814 40097 71522 867// 333 59007;
0168829860999992007010500004-09400-038217FM-12+0253SBUF V0201801N003619999999N0020001N1+02591+02121101241ADDGF106991061001012501071001KA1240M+03411MA1999999098401MD1999999-0011REMSYN088AAXX  05004 82986 32695 61807 10259 20212 39840 40124 86070 333 10341 29069 55068 59001;
0156829860999992007010512004-09400-038217FM-12+0253SBUF V0201401N002610075019N0100001N1+02881+01801101261ADDGF105991051011008001001001KA1240N+02261MA1999999098431MD1999999-0061REMSYN076AAXX  05124 82986 32597 51405 10288 20180 39843 40126 85100 333 20226 59006;
0137829860999992007010518004-09400-038217FM-12+0253SBUF V0201401N002612200019N0200001N1+03571+01251100751ADDGF104991041021008001001001MA1999999097961MD1999999-0181REMSYN070AAXX  05184 82986 32598 41405 10357 20125 39796 40075 84200 333 59018;
0178829860999992007010600004-09400-038217FM-12+0253SBUF V0200901N006712200019N0020001N1+02791+01701101101ADDGA1001+999999999GF100991001001999999001001KA1240M+03591MA1999999098301MD1999999-0101REMSYN082AAXX  06004 82986 32995 00913 10279 20170 39830 40110 333 10359 29045 55108 59010;
0156829860999992007010612004-09400-038217FM-12+0253SBUF V0200901N003110090019N0100001N1+02791+01821101241ADDGF106991061081004501001001KA1240N+02161MA1999999098421MD1999999-0011REMSYN076AAXX  06124 82986 32497 60906 10279 20182 39842 40124 86800 333 20216 59001;
0137829860999992007010618004-09400-038217FM-12+0253SBUF V0200901N002611050019N0200001N1+03531+01451100751ADDGF106991031011008001001081MA1999999097951MD1999999-0011REMSYN070AAXX  06184 82986 32598 60905 10353 20145 39795 40075 83108 333 59001;
0156829860999992007010712004-09400-038217FM-12+0253SBUF V0200901N003612200019N0200001N1+02891+01801101321ADDGF104991041011008001001001KA1240N+02251MA1999999098501MD1999999+0081REMSYN076AAXX  07124 82986 32598 40907 10289 20180 39850 40132 84100 333 20225 58008;
0137829860999992007010718004-09400-038217FM-12+0253SBUF V0201401N003610075019N0200001N1+03471+01501100921ADDGF105991051011008001001001MA1999999098121MD1999999+0171REMSYN070AAXX  07184 82986 32598 51407 10347 20150 39812 40092 85100 333 58017;
0156829860999992007010812004-09400-038217FM-12+0253SBUF V0201401N004610450019N0100001N1+02801+02031101271ADDGF106991041021008001081001KA1240N+02361MA1999999098451MD1999999-0081REMSYN076AAXX  08124 82986 32597 61409 10280 20203 39845 40127 84280 333 20236 59008;
0137829860999992007010818004-09400-038217FM-12+0253SBUF V0201401N005110450019N0200001N1+03301+01641100891ADDGF108991031041008001071081MA1999999098091MD1999999-0031REMSYN070AAXX  08184 82986 32598 81410 10330 20164 39809 40089 83478 333 59003;
0178829860999992007010900004-09400-038217FM-12+0253SBUF V0201801N003612200019N0020001N1+02661+02141101201ADDGA1001+999999999GF100991001001999999001001KA1240M+03351MA1999999098371MD1999999+0001REMSYN082AAXX  09004 82986 32995 01807 10266 20214 39837 40120 333 10335 29062 55058 58000;
0156829860999992007010912004-09400-038217FM-12+0253SBUF V0200901N004111050019N0100001N1+02781+01931101231ADDGF106991011001017501041081KA1240N+02281MA1999999098401MD1999999-0051REMSYN076AAXX  09124 82986 32797 60908 10278 20193 39840 40123 81048 333 20228 59005;
0137829860999992007010918004-09400-038217FM-12+0253SBUF V0201401N003611050019N0200001N1+03571+00921100761ADDGF108991021011008001001071MA1999999097971MD1999999-0121REMSYN070AAXX  09184 82986 32598 81407 10357 20092 39797 40076 82107 333 59012;
0178829860999992007011000004-09400-038217FM-12+0253SBUF V0200901N006712200019N0020001N1+02781+02091101081ADDGA1001+999999999GF100991001001999999001001KA1240M+03601MA1999999098261MD1999999-0111REMSYN082AAXX  10004 82986 32995 00913 10278 20209 39826 40108 333 10360 29053 55082 59011;
0156829860999992007011012004-09400-038217FM-12+0253SBUF V0201401N004110042019N0100001N1+02741+02141101231ADDGF108991081071004501999999KA1240N+02381MA1999999098401MD1999999+0001REMSYN076AAXX  10124 82986 32497 81408 10274 20214 39840 40123 887// 333 20238 58000;
0137829860999992007011018004-09400-038217FM-12+0253SBUF V0200901N001512200019N0200001N1+03541+01241100691ADDGF105991031011008001001061MA1999999097901MD1999999-0071REMSYN070AAXX  10184 82986 32598 50903 10354 20124 39790 40069 83106 333 59007;
0178829860999992007011100004-09400-038217FM-12+0253SBUF V0201401N004612200019N0020001N1+02871+02011101011ADDGA1001+999999999GF100991001001999999001001KA1240M+03601MA1999999098201MD1999999-0061REMSYN082AAXX  11004 82986 32995 01409 10287 20201 39820 40101 333 10360 29054 55074 59006;
0156829860999992007011112004-09400-038217FM-12+0253SBUF V0201801N002111050019N0100001N1+02861+02091101171ADDGF106991021011008001001081KA1240N+02361MA1999999098361MD1999999-0041REMSYN076AAXX  11124 82986 32597 61804 10286 20209 39836 40117 82108 333 20236 59004;
0137829860999992007011118004-09400-038217FM-12+0253SBUF V0201401N002610450019N0200001N1+03691+01351100641ADDGF105991031021008001041001MA1999999097861MD1999999-0041REMSYN070AAXX  11184 82986 32598 51405 10369 20135 39786 40064 83240 333 59004;
0178829860999992007011200004-09400-038217FM-12+0253SBUF V0200901N003112200019N0020001N1+03001+02081100931ADDGA1001+999999999GF100991001001999999001001KA1240M+03731MA1999999098141MD1999999-0061REMSYN082AAXX  12004 82986 32995 00906 10300 20208 39814 40093 333 10373 29051 55095 59006;
0156829860999992007011212004-09400-038217FM-12+0253SBUF V0202701N001510450019N0100001N1+02761+02251101121ADDGF106991021021008001051081KA1240N+02451MA1999999098321MD1999999-0041REMSYN076AAXX  12124 82986 32597 62703 10276 20225 39832 40112 82258 333 20245 59004;
0137829860999992007011218004-09400-038217FM-12+0253SBUF V0203201N001011050019N0200001N1+03321+01971100641ADDGF108991021011008001001081MA1999999097851MD1999999-0011REMSYN070AAXX  12184 82986 32598 83202 10332 20197 39785 40064 82108 333 59001;
0168829860999992007011300004-09400-038217FM-12+0253SBUF V0200901N004119999999N0020001N1+02921+02191100771ADDGF106991001001999999001081KA1240M+03381MA1999999097971MD1999999-0171REMSYN088AAXX  13004 82986 32995 60908 10292 20219 39797 40077 80008 333 10338 29062 55055 59017;
0156829860999992007011312004-09400-038217FM-12+0253SBUF V0200901N001510450019N0100001N1+02911+01991101041ADDGF106991031051008001051001KA1240N+02531MA1999999098241MD1999999-0081REMSYN076AAXX  13124 82986 32597 60903 10291 20199 39824 40104 83550 333 20253 59008;
0137829860999992007011318004-09400-038217FM-12+0253SBUF V0202701N001010450019N0200001N1+03391+01911100591ADDGF106991031021008001041081MA1999999097811MD1999999-0041REMSYN070AAXX  13184 82986 32598 62702 10339 20191 39781 40059 83248 333 59004;
0184829860999992007011412004-09400-038217FM-12+0253SBUF V0203201N003111050019N0040001N1+03041+01911101091ADDAY141061AY211061GF106991021001017501031081KA1240N+02511MA1999999098301MD1999999+0061MW1051REMSYN082AAXX  14124 82986 31796 63206 10304 20191 39830 40109 70541 82038 333 20251 58006;
0137829860999992007011418004-09400-038217FM-12+0253SBUF V0201401N003110450019N0200001N1+03671+01141100621ADDGF106991011011008001031051MA1999999097851MD1999999+0041REMSYN070AAXX  14184 82986 32598 61406 10367 20114 39785 40062 81135 333 58004;
0178829860999992007011500004-09400-038217FM-12+0253SBUF V0200901N003612200019N0020001N1+03181+01731100761ADDGA1001+999999999GF100991001001999999001001KA1240M+03741MA1999999097991MD1999999-0041REMSYN082AAXX  15004 82986 32995 00907 10318 20173 39799 40076 333 10374 29039 55099 59004;
0184829860999992007011512004-09400-038217FM-12+0253SBUF V0203201N001512200019N0040001N1+02871+02141101161ADDAY141061AY211061GF104991041011008001001001KA1240N+02401MA1999999098361MD1999999+0061MW1051REMSYN082AAXX  15124 82986 31596 43203 10287 20214 39836 40116 70541 84100 333 20240 58006;
0175829860999992007011518004-09400-038217FM-12+0253SBUF V0201401N003612200019N0040001N1+03711+00961100691ADDAY141061AY201061GA1001+999999999GF100991001001999999001001MA1999999097911MD1999999+0061MW1051REMSYN070AAXX  15184 82986 31996 01407 10371 20096 39791 40069 70540 333 58006;
0178829860999992007011600004-09400-038217FM-12+0253SBUF V0201801N006712200019N0020001N1+02961+01931101001ADDGA1001+999999999GF100991001001999999001001KA1240M+03761MA1999999098201MD1999999+0211REMSYN082AAXX  16004 82986 32995 01813 10296 20193 39820 40100 333 10376 29048 55104 58021;
0184829860999992007011612004-09400-038217FM-12+0253SBUF V0201401N003612200019N0040001N1+02821+01941101191ADDAY141061AY201061GF104991041011008001001001KA1240N+02321MA1999999098381MD1999999+0021MW1051REMSYN082AAXX  16124 82986 31596 41407 10282 20194 39838 40119 70540 84100 333 20232 58002;
0137829860999992007011618004-09400-038217FM-12+0253SBUF V0200901N004612200019N0200001N1+03611+01291100721ADDGF104991041011008001001001MA1999999097941MD1999999+0031REMSYN070AAXX  16184 82986 32598 40909 10361 20129 39794 40072 84100 333 58003;
0178829860999992007011700004-09400-038217FM-12+0253SBUF V0200901N007712200019N0020001N1+02831+01971101081ADDGA1001+999999999GF100991001001999999001001KA1240M+03621MA1999999098261MD1999999+0061REMSYN082AAXX  17004 82986 32995 00915 10283 20197 39826 40108 333 10362 29051 55109 58006;
0156829860999992007011712004-09400-038217FM-12+0253SBUF V0200901N004610075019N0100001N1+02881+01941101281ADDGF106991061021008001001001KA1240N+02421MA1999999098461MD1999999+0081REMSYN076AAXX  17124 82986 32597 60909 10288 20194 39846 40128 86200 333 20242 58008;
0137829860999992007011718004-09400-038217FM-12+0253SBUF V0200901N005110075019N0200001N1+03561+01191100751ADDGF105991051021008001001001MA1999999097971MD1999999+0031REMSYN070AAXX  17184 82986 32598 50910 10356 20119 39797 40075 85200 333 58003;
0178829860999992007011800004-09400-038217FM-12+0253SBUF V0201801N006712200019N0020001N1+02821+01891101211ADDGA1001+999999999GF100991001001999999001001KA1240M+03621MA1999999098401MD1999999+0141REMSYN082AAXX  18004 82986 32995 01813 10282 20189 39840 40121 333 10362 29049 55099 58014;
0156829860999992007011812004-09400-038217FM-12+0253SBUF V0201801N005110075019N0100001N1+02791+01881101321ADDGF106991061021008001001001KA1240N+02321MA1999999098501MD1999999+0041REMSYN076AAXX  18124 82986 32597 61810 10279 20188 39850 40132 86200 333 20232 58004;
0137829860999992007011818004-09400-038217FM-12+0253SBUF V0201401N005112200019N0200001N1+03591+01211100801ADDGF104991041011008001001001MA1999999098021MD1999999+0051REMSYN070AAXX  18184 82986 32598 41410 10359 20121 39802 40080 84100 333 58005;
0178829860999992007011900004-09400-038217FM-12+0253SBUF V0201801N005112200019N0020001N1+02741+01671101251ADDGA1001+999999999GF100991001001999999001001KA1240M+03621MA1999999098421MD1999999+0021REMSYN082AAXX  19004 82986 32995 01810 10274 20167 39842 40125 333 10362 29046 55098 58002;
0156829860999992007011912004-09400-038217FM-12+0253SBUF V0200901N003610042019N0100001N1+02271+01861101421ADDGF106991061071004501001001KA1240N+02161MA1999999098581MD1999999+0081REMSYN076AAXX  19124 82986 32497 60907 10227 20186 39858 40142 86700 333 20216 58008;
0137829860999992007011918004-09400-038217FM-12+0253SBUF V0201801N001512200019N0200001N1+03471+01451100861ADDGF104991041011008001001001MA1999999098061MD1999999+0041REMSYN070AAXX  19184 82986 32598 41803 10347 20145 39806 40086 84100 333 58004;
0178829860999992007012000004-09400-038217FM-12+0253SBUF V0201801N007212200019N0020001N1+02811+02031101201ADDGA1001+999999999GF100991001001999999001001KA1240M+03581MA1999999098371MD1999999-0051REMSYN082AAXX  20004 82986 32995 01814 10281 20203 39837 40120 333 10358 29054 55111 59005;
0156829860999992007012012004-09400-038217FM-12+0253SBUF V0203201N002110075019N0200001N1+02851+01991101371ADDGF105991051011008001001001KA1240N+02321MA1999999098551MD1999999-0031REMSYN076AAXX  20124 82986 32598 53204 10285 20199 39855 40137 85100 333 20232 59003;
0165829860999992007012018004-09400-038217FM-12+0253SBUF V0200501N001010075019N0040001N1+03611+01221100931ADDAY121061AY211061GF106991051021008001071001MA1999999098141MD1999999+0081MW1151REMSYN076AAXX  20184 82986 31596 60502 10361 20122 39814 40093 71521 85270 333 58008;
0213829860999992007012100004-09400-038217FM-12+0253SBUF V0201801N004112200019N0020001N1+02621+02161101321ADDAA106002091AY161061AY221061GF101991011001012501021001KA1240M+02661MA1999999098491MD1999999+0121MW1011REMSYN100AAXX  21004 82986 21695 11808 10262 20216 39849 40132 70162 81020 333 10266 29059 55088 58012 60021;
0173829860999992007012112004-09400-038217FM-12+0253SBUF V0200901N003110075019N0100001N1+02801+02061101451ADDAA124002091GF105991051011008001001001KA1240N+02341MA1999999098611MD1999999+0061REMSYN082AAXX  21124 82986 22597 50906 10280 20206 39861 40145 85100 333 20234 58006 60024;
0137829860999992007012118004-09400-038217FM-12+0253SBUF V0200901N004112200019N0200001N1+03691+01021100891ADDGF101991011011008001001001MA1999999098111MD1999999-0031REMSYN070AAXX  21184 82986 32598 10908 10369 20102 39811 40089 81100 333 59003;
0194829860999992007012212004-09400-038217FM-12+0253SBUF V0203201N002112200019N0100001N1+02701+01911101231ADDAY141061AY201061GA1001+999999999GF100991001001999999001001KA1240N+02141MA1999999098411MD1999999-0201MW1051REMSYN076AAXX  22124 82986 31997 03204 10270 20191 39841 40123 70540 333 20214 59020;
0147829860999992007012218004-09400-038217FM-12+0253SBUF V0201801N001512200019N0200001N1+03691+00591100721ADDGA1001+999999999GF100991001001999999001001MA1999999097931MD1999999-0181REMSYN064AAXX  22184 82986 32998 01803 10369 20059 39793 40072 333 59018;
0178829860999992007012300004-09400-038217FM-12+0253SBUF V0200901N005112200019N0020001N1+03081+01751100891ADDGA1001+999999999GF100991001001999999001001KA1240M+03741MA1999999098091MD1999999-0211REMSYN082AAXX  23004 82986 32995 00910 10308 20175 39809 40089 333 10374 29042 55112 59021;
0166829860999992007012312004-09400-038217FM-12+0253SBUF V0200901N001512200019N0200001N1+02761+01861101161ADDGA1001+999999999GF100991001001999999001001KA1240N+02241MA1999999098351MD1999999-0061REMSYN070AAXX  23124 82986 32998 00903 10276 20186 39835 40116 333 20224 59006;
0147829860999992007012318004-09400-038217FM-12+0253SBUF V0201801N003112200019N0200001N1+03691+01021100671ADDGA1001+999999999GF100991001001999999001001MA1999999097891MD1999999-0041REMSYN064AAXX  23184 82986 32998 01806 10369 20102 39789 40067 333 59004;
0178829860999992007012400004-09400-038217FM-12+0253SBUF V0200901N005112200019N0020001N1+02931+01831100941ADDGA1001+999999999GF100991001001999999001001KA1240M+03701MA1999999098141MD1999999+0051REMSYN082AAXX  24004 82986 32995 00910 10293 20183 39814 40094 333 10370 29046 55110 58005;
0184829860999992007012412004-09400-038217FM-12+0253SBUF V0202701N001512200019N0100001N1+02871+01921101341ADDAY141061AY211061GF102991021021008001001001KA1240N+02351MA1999999098531MD1999999+0181MW1051REMSYN082AAXX  24124 82986 31597 22703 10287 20192 39853 40134 70541 82200 333 20235 58018;
0137829860999992007012418004-09400-038217FM-12+0253SBUF V0201401N003112200019N0200001N1+03571+01311100811ADDGF103991031011008001001001MA1999999098031MD1999999+0141REMSYN070AAXX  24184 82986 32598 31406 10357 20131 39803 40081 83100 333 58014;
0178829860999992007012500004-09400-038217FM-12+0253SBUF V0201401N008212200019N0020001N1+02911+01781101141ADDGA1001+999999999GF100991001001999999001001KA1240M+03641MA1999999098331MD1999999+0191REMSYN082AAXX  25004 82986 32995 01416 10291 20178 39833 40114 333 10364 29048 55109 58019;
0166829860999992007012512004-09400-038217FM-12+0253SBUF V0200901N001512200019N0200001N1+02821+01941101321ADDGA1001+999999999GF100991001001999999001001KA1240N+02281MA1999999098501MD1999999-0031REMSYN070AAXX  25124 82986 32998 00903 10282 20194 39850 40132 333 20228 59003;
0137829860999992007012518004-09400-038217FM-12+0253SBUF V0201401N003112200019N0200001N1+03671+01271100771ADDGF103991031011008001001001MA1999999097991MD1999999-0041REMSYN070AAXX  25184 82986 32598 31406 10367 20127 39799 40077 83100 333 59004;
0178829860999992007012600004-09400-038217FM-12+0253SBUF V0201801N008212200019N0020001N1+02861+02161101041ADDGA1001+999999999GF100991001001999999001001KA1240M+03701MA1999999098231MD1999999-0101REMSYN082AAXX  26004 82986 32995 01816 10286 20216 39823 40104 333 10370 29054 55112 59010;
0156829860999992007012612004-09400-038217FM-12+0253SBUF V0200901N003110075019N0100001N1+02821+02121101321ADDGF106991051021008001081001KA1240N+02421MA1999999098501MD1999999+0001REMSYN076AAXX  26124 82986 32597 60906 10282 20212 39850 40132 85280 333 20242 58000;
0137829860999992007012618004-09400-038217FM-12+0253SBUF V0201401N003111050019N0200001N1+03651+01191100811ADDGF105991041021008001001021MA1999999098031MD1999999+0041REMSYN070AAXX  26184 82986 32598 51406 10365 20119 39803 40081 84202 333 58004;
0178829860999992007012700004-09400-038217FM-12+0253SBUF V0201401N007712200019N0020001N1+02901+01931101061ADDGA1001+999999999GF100991001001999999001001KA1240M+03681MA1999999098251MD1999999+0021REMSYN082AAXX  27004 82986 32995 01415 10290 20193 39825 40106 333 10368 29050 55106 58002;
0184829860999992007012712004-09400-038217FM-12+0253SBUF V0201401N005110075019N0100001N1+02741+02021101331ADDAY141061AY221061GF106991061021008001001001KA1240N+02401MA1999999098511MD1999999+0011MW1051REMSYN082AAXX  27124 82986 31597 61410 10274 20202 39851 40133 70542 86200 333 20240 58001;
0137829860999992007012718004-09400-038217FM-12+0253SBUF V0200901N005712200019N0200001N1+03591+01081100811ADDGF101991011011008001001001MA1999999098031MD1999999+0001REMSYN070AAXX  27184 82986 32598 10911 10359 20108 39803 40081 81100 333 58000;
0156829860999992007012812004-09400-038217FM-12+0253SBUF V0200901N002112200019N0100001N1+02761+01831101431ADDGF103991011011008001001011KA1240N+02221MA1999999098611MD1999999+0101REMSYN076AAXX  28124 82986 32597 30904 10276 20183 39861 40143 81101 333 20222 58010;
0137829860999992007012818004-09400-038217FM-12+0253SBUF V0200901N003112200019N0200001N1+03691+01351100841ADDGF105991021011008001001041MA1999999098061MD1999999+0031REMSYN070AAXX  28184 82986 32598 50906 10369 20135 39806 40084 82104 333 58003;
0168829860999992007012900004-09400-038217FM-12+0253SBUF V0200901N005112200019N0020001N1+02921+01801101161ADDGF103991001001999999001071KA1240M+03711MA1999999098351MD1999999+0001REMSYN088AAXX  29004 82986 32995 30910 10292 20180 39835 40116 80007 333 10371 29046 55103 58000;
0156829860999992007012912004-09400-038217FM-12+0253SBUF V0200901N003112200019N0100001N1+02921+01711101431ADDGF105991011011008001001041KA1240N+02341MA1999999098621MD1999999+0011REMSYN076AAXX  29124 82986 32597 50906 10292 20171 39862 40143 81104 333 20234 58001;
0137829860999992007012918004-09400-038217FM-12+0253SBUF V0201401N004610450019N0100001N1+03351+01451100991ADDGF106991031051008001051001MA1999999098191MD1999999+0131REMSYN070AAXX  29184 82986 32597 61409 10335 20145 39819 40099 83550 333 58013;
0168829860999992007013000004-09400-038217FM-12+0253SBUF V0200901N006212200019N0020001N1+02851+01991101171ADDGF104991041001012501041001KA1240M+03551MA1999999098361MD1999999+0011REMSYN088AAXX  30004 82986 32695 40912 10285 20199 39836 40117 84040 333 10355 29050 55088 58001;
0156829860999992007013012004-09400-038217FM-12+0253SBUF V0200901N003110075019N0100001N1+02791+02061101421ADDGF105991051021008001001001KA1240N+02341MA1999999098601MD1999999-0021REMSYN076AAXX  30124 82986 32597 50906 10279 20206 39860 40142 85200 333 20234 59002;
0137829860999992007013018004-09400-038217FM-12+0253SBUF V0201401N004612200019N0200001N1+03631+01421100851ADDGF103991031011008001001001MA1999999098061MD1999999-0131REMSYN070AAXX  30184 82986 32598 31409 10363 20142 39806 40085 83100 333 59013;
0178829860999992007013100004-09400-038217FM-12+0253SBUF V0201801N006212200019N0020001N1+02871+02031101101ADDGA1001+999999999GF100991001001999999001001KA1240M+03651MA1999999098291MD1999999-0071REMSYN082AAXX  31004 82986 32995 01812 10287 20203 39829 40110 333 10365 29054 55096 59007;
0156829860999992007013112004-09400-038217FM-12+0253SBUF V0201801N005110075019N0100001N1+02791+02061101211ADDGF106991061051008001001001KA1240N+02411MA1999999098401MD1999999-0201REMSYN076AAXX  31124 82986 32597 61810 10279 20206 39840 40121 86500 333 20241 59020;
0137829860999992007013118004-09400-038217FM-12+0253SBUF V0200901N004612200019N0200001N1+03651+01321100621ADDGF102991021011008001001001MA1999999097851MD1999999-0211REMSYN070AAXX  31184 82986 32598 20909 10365 20132 39785 40062 82100 333 59021;
0178829860999992007020100004-09400-038217FM-12+0253SBUF V0201801N007212200019N0020001N1+02261+01951101041ADDGA1001+999999999GF100991001001999999001001KA1240M+03681MA1999999098231MD1999999-0061REMSYN082AAXX  01004 82986 32995 01814 10226 20195 39823 40104 333 10368 29052 55100 59006;
0156829860999992007020112004-09400-038217FM-12+0253SBUF V0201801N001511050019N0100001N1+02671+02141101321ADDGF106991011041008001001081KA1240N+02381MA1999999098491MD1999999+0091REMSYN076AAXX  01124 82986 32597 61803 10267 20214 39849 40132 81408 333 20238 58009;
0137829860999992007020118004-09400-038217FM-12+0253SBUF V0200901N005111050019N0200001N1+03631+01111100751ADDGF106991021011008001001081MA1999999097971MD1999999+0121REMSYN070AAXX  01184 82986 32598 60910 10363 20111 39797 40075 82108 333 58012;
0178829860999992007020200004-09400-038217FM-12+0253SBUF V0201801N007212200019N0020001N1+02841+01991101111ADDGA1001+999999999GF100991001001999999001001KA1240M+03661MA1999999098291MD1999999+0051REMSYN082AAXX  02004 82986 32995 01814 10284 20199 39829 40111 333 10366 29054 55082 58005;
0184829860999992007020212004-09400-038217FM-12+0253SBUF V0201401N001010075019N0040001N1+02781+02211101351ADDAY141061AY221061GF106991061051008001001001KA1240N+02381MA1999999098531MD1999999+0041MW1051REMSYN082AAXX  02124 82986 31596 61402 10278 20221 39853 40135 70542 86500 333 20238 58004;
0137829860999992007020218004-09400-038217FM-12+0253SBUF V0201401N003110075019N0200001N1+03651+01441100791ADDGF106991051021008001001011MA1999999098011MD1999999+0041REMSYN070AAXX  02184 82986 32598 61406 10365 20144 39801 40079 85201 333 58004;
0168829860999992007020300004-09400-038217FM-12+0253SBUF V0201401N005112200019N0020001N1+02941+02111101011ADDGF102991021001017501051001KA1240M+03701MA1999999098201MD1999999-0091REMSYN088AAXX  03004 82986 32795 21410 10294 20211 39820 40101 82050 333 10370 29055 55101 59009;
0156829860999992007020312004-09400-038217FM-12+0253SBUF V0201801N000510042019N0040001N1+02801+02251101291ADDGF108991081071004501999999KA1240N+02481MA1999999098471MD1999999-0061REMSYN076AAXX  03124 82986 32496 81801 10280 20225 39847 40129 887// 333 20248 59006;
0137829860999992007020318004-09400-038217FM-12+0253SBUF V0202301N001512200019N0200001N1+03681+01471100591ADDGF104991031021008001001031MA1999999097831MD1999999-0181REMSYN070AAXX  03184 82986 32598 42303 10368 20147 39783 40059 83203 333 59018;
0196829860999992007020400004-09400-038217FM-12+0253SBUF V0201801N005719999999N0020001N1+02941+02211101041ADDAY101061AY201061GF106991061001012501071001KA1240M+03761MA1999999098231MD1999999+0031MW1131REMSYN094AAXX  04004 82986 31695 61811 10294 20221 39823 40104 71300 86070 333 10376 29057 55078 58003;
0201829860999992007020412004-09400-038217FM-12+0253SBUF V0203601N001510450019N0100001N1+02601+02351101341ADDAA124024991AY161061AY221061GF106991021021008001051001KA1240N+02241MA1999999098511MD1999999+0041MW1011REMSYN088AAXX  04124 82986 21597 63603 10260 20235 39851 40134 70162 82250 333 20224 58004 60254;
0137829860999992007020418004-09400-038217FM-12+0253SBUF V0203601N001510450019N0100001N1+03201+01961100821ADDGF106991031021008001051001MA1999999098011MD1999999+0181REMSYN070AAXX  04184 82986 32597 63603 10320 20196 39801 40082 83250 333 58018;
0196829860999992007020500004-09400-038217FM-12+0253SBUF V0201801N001519999999N0020001N1+02801+02081101191ADDAY101061AY201061GF105991051001012501071001KA1240M+03241MA1999999098361MD1999999+0131MW1131REMSYN094AAXX  05004 82986 31695 51803 10280 20208 39836 40119 71300 85070 333 10324 29066 55041 58013;
0156829860999992007020512004-09400-038217FM-12+0253SBUF V0201801N002110075019N0100001N1+02901+02041101321ADDGF106991061051008001001001KA1240N+02561MA1999999098501MD1999999-0011REMSYN076AAXX  05124 82986 32597 61804 10290 20204 39850 40132 86500 333 20256 59001;
0137829860999992007020518004-09400-038217FM-12+0253SBUF V0201401N004110075019N0200001N1+03431+01361100771ADDGF105991051021008001001001MA1999999097991MD1999999-0021REMSYN070AAXX  05184 82986 32598 51408 10343 20136 39799 40077 85200 333 59002;
0156829860999992007020612004-09400-038217FM-12+0253SBUF V0201801N001511050019N0100001N1+02701+02111101281ADDGF106991041021008001001021KA1240N+02341MA1999999098451MD1999999-0051REMSYN076AAXX  06124 82986 32597 61803 10270 20211 39845 40128 84202 333 20234 59005;
0137829860999992007020618004-09400-038217FM-12+0253SBUF V0201401N003612200019N0200001N1+03401+01351100711ADDGF106991031011008001001061MA1999999097961MD1999999-0031REMSYN070AAXX  06184 82986 32598 61407 10340 20135 39796 40071 83106 333 59003;
0178829860999992007020700004-09400-038217FM-12+0253SBUF V0201801N005712200019N0020001N1+02781+01931101101ADDGA1001+999999999GF100991001001999999001001KA1240M+03491MA1999999098281MD1999999-0091REMSYN082AAXX  07004 82986 32995 01811 10278 20193 39828 40110 333 10349 29055 55082 59009;
0156829860999992007020712004-09400-038217FM-12+0253SBUF V0201801N003610075019N0100001N1+02681+01971101201ADDGF106991061021008001001001KA1240N+02341MA1999999098371MD1999999-0081REMSYN076AAXX  07124 82986 32597 61807 10268 20197 39837 40120 86200 333 20234 59008;
0137829860999992007020718004-09400-038217FM-12+0253SBUF V0201401N001510075019N0200001N1+03411+00991100771ADDGF106991061011008001001001MA1999999097971MD1999999+0051REMSYN070AAXX  07184 82986 32598 61403 10341 20099 39797 40077 86100 333 58005;
0178829860999992007020800004-09400-038217FM-12+0253SBUF V0201801N006712200019N0020001N1+02861+01211101081ADDGA1001+999999999GF100991001001999999001001KA1240M+03481MA1999999098261MD1999999-0021REMSYN082AAXX  08004 82986 32995 01813 10286 20121 39826 40108 333 10348 29040 55104 59002;
0156829860999992007020812004-09400-038217FM-12+0253SBUF V0201401N003610075019N0100001N1+02781+02011101331ADDGF106991061021008001071001KA1240N+02281MA1999999098511MD1999999+0141REMSYN076AAXX  08124 82986 32597 61407 10278 20201 39851 40133 86270 333 20228 58014;
0137829860999992007020818004-09400-038217FM-12+0253SBUF V0200901N002612200019N0200001N1+03461+01341100821ADDGF104991041021008001001001MA1999999098031MD1999999+0061REMSYN070AAXX  08184 82986 32598 40905 10346 20134 39803 40082 84200 333 58006;
0168829860999992007020900004-09400-038217FM-12+0253SBUF V0201801N005112200019N0020001N1+02811+02001101231ADDGF101991011011008001001001KA1240M+03541MA1999999098411MD1999999+0151REMSYN088AAXX  09004 82986 32595 11810 10281 20200 39841 40123 81100 333 10354 29054 55112 58015;
0156829860999992007020912004-09400-038217FM-12+0253SBUF V0200901N004110075019N0100001N1+02821+02021101451ADDGF106991061041008001001001KA1240N+02381MA1999999098631MD1999999+0121REMSYN076AAXX  09124 82986 32597 60908 10282 20202 39863 40145 86400 333 20238 58012;
0137829860999992007020918004-09400-038217FM-12+0253SBUF V0201401N002612200019N0200001N1+03541+01351100971ADDGF104991041021008001001001MA1999999098181MD1999999+0151REMSYN070AAXX  09184 82986 32598 41405 10354 20135 39818 40097 84200 333 58015;
0178829860999992007021000004-09400-038217FM-12+0253SBUF V0201801N005112200019N0020001N1+02811+01721101371ADDGA1001+999999999GF100991001001999999001001KA1240M+03571MA1999999098551MD1999999+0141REMSYN082AAXX  10004 82986 32995 01810 10281 20172 39855 40137 333 10357 29048 55102 58014;
0156829860999992007021012004-09400-038217FM-12+0253SBUF V0201801N004610450019N0100001N1+02681+02021101551ADDGF106991041041008001031001KA1240N+02321MA1999999098721MD1999999+0091REMSYN076AAXX  10124 82986 32597 61809 10268 20202 39872 40155 84430 333 20232 58009;
0137829860999992007021018004-09400-038217FM-12+0253SBUF V0200901N003112200019N0200001N1+03591+01141100951ADDGF104991041021008001001021MA1999999098161MD1999999-0021REMSYN070AAXX  10184 82986 32598 40906 10359 20114 39816 40095 84202 333 59002;
0178829860999992007021100004-09400-038217FM-12+0253SBUF V0201401N005112200019N0020001N1+02881+01861101251ADDGA1001+999999999GF100991001001999999001001KA1240M+03621MA1999999098431MD1999999-0121REMSYN082AAXX  11004 82986 32995 01410 10288 20186 39843 40125 333 10362 29050 55102 59012;
0156829860999992007021112004-09400-038217FM-12+0253SBUF V0201401N003612200019N0200001N1+02831+01861101421ADDGF102991021011008001001001KA1240N+02321MA1999999098601MD1999999-0121REMSYN076AAXX  11124 82986 32598 21407 10283 20186 39860 40142 82100 333 20232 59012;
0137829860999992007021118004-09400-038217FM-12+0253SBUF V0202301N001012200019N0200001N1+03541+01171100821ADDGF102991021011008001001001MA1999999098041MD1999999-0121REMSYN070AAXX  11184 82986 32598 22302 10354 20117 39804 40082 82100 333 59012;
0203829860999992007021200004-09400-038217FM-12+0253SBUF V0201801N004112200019N0020001N1+02981+01891101101ADDGF102991021011008001001001KA1240M+03591MA1999999999999MD1999999-0131REMSYN088AAXX  12004 82986 32595 21808 10298 20189 39130 40110 82100 333 10359 29046 55113 59013;EQDQ01+091303APOSP Q02 091303APOSP 
0156829860999992007021212004-09400-038217FM-12+0253SBUF V0203201N003112200019N0200001N1+02931+02061101251ADDGF101991011001012501041001KA1240N+02401MA1999999098451MD1999999-0151REMSYN076AAXX  12124 82986 32698 13206 10293 20206 39845 40125 81040 333 20240 59015;
0137829860999992007021218004-09400-038217FM-12+0253SBUF V0202301N005110042019N0200001N1+03251+01541100621ADDGF106991051031004501001061MA1999999097821MD1999999-0221REMSYN070AAXX  12184 82986 32498 62310 10325 20154 39782 40062 85306 333 59022;
0196829860999992007021300004-09400-038217FM-12+0253SBUF V0201401N002110090019N0020001N1+03011+01911100931ADDAY121061AY221061GF106991061081004501001001KA1240M+03601MA1999999098141MD1999999-0161MW1131REMSYN094AAXX  13004 82986 31495 61404 10301 20191 39814 40093 71322 86800 333 10360 29050 55096 59016;
0156829860999992007021312004-09400-038217FM-12+0253SBUF V0203201N003110450019N0100001N1+02861+02161101121ADDGF107991021041008001091001KA1240N+02531MA1999999098321MD1999999-0131REMSYN076AAXX  13124 82986 32597 73206 10286 20216 39832 40112 82490 333 20253 59013;
0137829860999992007021318004-09400-038217FM-12+0253SBUF V0200501N001510450019N0200001N1+03241+01891100661ADDGF106991041041008001091011MA1999999097871MD1999999+0051REMSYN070AAXX  13184 82986 32598 60503 10324 20189 39787 40066 84491 333 58005;
0196829860999992007021400004-09400-038217FM-12+0253SBUF V0201801N005112200019N0020001N1+02821+02021101031ADDAY101061AY201061GF104991041001017501041001KA1240M+03331MA1999999098221MD1999999+0081MW1131REMSYN094AAXX  14004 82986 31795 41810 10282 20202 39822 40103 71300 84040 333 10333 29059 55022 58008;
0201829860999992007021412004-09400-038217FM-12+0253SBUF V0203601N001010150019N0100001N1+02561+02151101151ADDAA124004191AY191061AY261061GF106991061001017501051001KA1240N+02261MA1999999098321MD1999999+0001MW1021REMSYN088AAXX  14124 82986 21797 63602 10256 20215 39832 40115 70296 86050 333 20226 58000 60044;
0137829860999992007021418004-09400-038217FM-12+0253SBUF V0203601N003112200019N0200001N1+03331+01821100601ADDGF106991031021008001001041MA1999999097801MD1999999-0071REMSYN070AAXX  14184 82986 32598 63606 10333 20182 39780 40060 83204 333 59007;
0213829860999992007021500004-09400-038217FM-12+0253SBUF V0201801N002110150019N0010001N1+02361+02291101201ADDAA106013091AY161061AY221061GF106991061001017501021001KA1240M+03391MA1999999098341MD1999999+0121MW1211REMSYN100AAXX  15004 82986 21794 61804 10236 20229 39834 40120 72162 86020 333 10339 29078 55080 58012 60131;
0201829860999992007021512004-09400-038217FM-12+0253SBUF V0203201N001510450019N0100001N1+02641+02271101191ADDAA124019191AY161061AY221061GF106991031041008001051011KA1240N+02321MA1999999098341MD1999999+0021MW1011REMSYN088AAXX  15124 82986 21597 63203 10264 20227 39834 40119 70162 83451 333 20232 58002 60194;
0168829860999992007021600004-09400-038217FM-12+0253SBUF V0201801N001010450019N0020001N1+02421+02281101151ADDGF105991021021008001051001KA1240M+03351MA1999999098301MD1999999-0041REMSYN088AAXX  16004 82986 32595 51802 10242 20228 39830 40115 82250 333 10335 29076 55088 59004;
0201829860999992007021612004-09400-038217FM-12+0253SBUF V0203201N001010450019N0100001N1+02641+02251101131ADDAA124000391AY151061AY221061GF107991021021008001031081KA1240N+02341MA1999999098281MD1999999-0061MW1031REMSYN088AAXX  16124 82986 21597 73202 10264 20225 39828 40113 70352 82238 333 20234 59006 69934;
0137829860999992007021618004-09400-038217FM-12+0253SBUF V0203201N001510450019N0100001N1+03161+01631100631ADDGF108991041081008001051999MA1999999097831MD1999999-0011REMSYN070AAXX  16184 82986 32597 83203 10316 20163 39783 40063 8485/ 333 59001;
0156829860999992007021712004-09400-038217FM-12+0253SBUF V0201401N001510450019N0100001N1+02681+02221101051ADDGF106991031021008001031001KA1240N+02401MA1999999098221MD1999999-0061REMSYN076AAXX  17124 82986 32597 61403 10268 20222 39822 40105 83230 333 20240 59006;
0137829860999992007021718004-09400-038217FM-12+0253SBUF V0201801N002610075019N0100001N1+03261+01981100531ADDGF107991051021008001091061MA1999999097741MD1999999-0091REMSYN070AAXX  17184 82986 32597 71805 10326 20198 39774 40053 85296 333 59009;
0232829860999992007021800004-09400-038217FM-12+0253SBUF V0201801N002110120019N0020001N1+02581+02351100931ADDAA106000091AY191061AY251061GF108991081081008001999999KA1240M+03351MA1999999098101MD1999999-0101MW1131REMSYN100AAXX  18004 82986 21595 81804 10258 20235 39810 40093 71395 888// 333 10335 29074 55038 59010 69901;EQDQ01  00002PRCP06
0220829860999992007021812004-09400-038217FM-12+0253SBUF V0203201N001510075019N0100001N1+02561+02331101131ADDAA124000091AY151061AY221061GF107991061071008001001011KA1240N+02401MA1999999098281MD1999999+0061MW1031REMSYN088AAXX  18124 82986 21597 73203 10256 20233 39828 40113 70352 86701 333 20240 58006 69924;EQDQ01  00002PRCP24
0137829860999992007021818004-09400-038217FM-12+0253SBUF V0203201N003110450019N0200001N1+03161+02121100761ADDGF106991041021008001091001MA1999999097961MD1999999+0221REMSYN070AAXX  18184 82986 32598 63206 10316 20212 39796 40076 84290 333 58022;
0220829860999992007021912004-09400-038217FM-12+0253SBUF V0202301N000510090019N0100001N1+02621+02351101061ADDAA124000091AY151061AY221061GF107991061081004501081001KA1240N+02361MA1999999098221MD1999999-0061MW1021REMSYN088AAXX  19124 82986 21497 72301 10262 20235 39822 40106 70252 86880 333 20236 59006 69924;EQDQ01  00002PRCP24
0182829860999992007021918004-09400-038217FM-12+0253SBUF V0200501N006710060019N0040001N1+03141+02071100691ADDAA106000021AY121061AY221061GF107991051081002501071001MA1999999097891MD1999999-0071MW1501REMSYN082AAXX  19184 82986 21396 70513 10314 20207 39789 40069 75022 85870 333 59007 69901;
0173829860999992007022012004-09400-038217FM-12+0253SBUF V0203601N003110450019N0100001N1+02701+02131101221ADDAA124000891GF106991021041008001031081KA1240N+02301MA1999999098371MD1999999+0151REMSYN082AAXX  20124 82986 22597 63606 10270 20213 39837 40122 82438 333 20230 58015 69974;
0137829860999992007022018004-09400-038217FM-12+0253SBUF V0200501N004110450019N0200001N1+03041+01881100811ADDGF107991021041008001041041MA1999999097991MD1999999+0101REMSYN070AAXX  20184 82986 32598 70508 10304 20188 39799 40081 82444 333 58010;
0201829860999992007022112004-09400-038217FM-12+0253SBUF V0200901N001511050019N0100001N1+02481+02191101361ADDAA124007191AY161061AY221061GF106991021011008001051041KA1240N+02181MA1999999098511MD1999999+0141MW1031REMSYN088AAXX  21124 82986 21597 60903 10248 20219 39851 40136 70362 82154 333 20218 58014 60074;
0137829860999992007022118004-09400-038217FM-12+0253SBUF V0200901N003112200019N0200001N1+03201+01671100841ADDGF104991031021008001001021MA1999999098021MD1999999+0031REMSYN070AAXX  21184 82986 32598 40906 10320 20167 39802 40084 83202 333 58003;
0168829860999992007022200004-09400-038217FM-12+0253SBUF V0200901N005110075019N0020001N1+02601+02311101351ADDGF106991061071008001001001KA1240M+03201MA1999999098501MD1999999+0151REMSYN088AAXX  22004 82986 32595 60910 10260 20231 39850 40135 86700 333 10320 29072 55081 58015;
0201829860999992007022212004-09400-038217FM-12+0253SBUF V0201401N003110450019N0100001N1+02601+02121101481ADDAA124002091AY161061AY221061GF107991031021008001031041KA1240N+02301MA1999999098631MD1999999+0121MW1031REMSYN088AAXX  22124 82986 21597 71406 10260 20212 39863 40148 70362 83234 333 20230 58012 60024;
0165829860999992007022218004-09400-038217FM-12+0253SBUF V0201801N003110075019N0100001N1+03111+01771100991ADDAY121061AY221061GF106991051041008001001021MA1999999098161MD1999999+0141MW1151REMSYN076AAXX  22184 82986 31597 61806 10311 20177 39816 40099 71522 85402 333 58014;
0223829860999992007022300004-09400-038217FM-12+0253SBUF V0201801N005112200019N0020001N1+02581+01991101411ADDAA106000591AY161061AY211061GA1001+999999999GF100991001001999999001001KA1240M+03271MA1999999098561MD1999999+0061MW1001REMSYN094AAXX  23004 82986 21995 01810 10258 20199 39856 40141 70061 333 10327 29065 55052 58006 69951;
0201829860999992007022312004-09400-038217FM-12+0253SBUF V0201801N003110042019N0100001N1+02451+02271101501ADDAA124001091AY161061AY251061GF108991081071004501999999KA1240N+02231MA1999999098651MD1999999+0021MW1031REMSYN088AAXX  23124 82986 21497 81806 10245 20227 39865 40150 70365 887// 333 20223 58002 60014;
0182829860999992007022318004-09400-038217FM-12+0253SBUF V0201801N003610090019N0020001N1+02681+02411101231ADDAA106006191AY161061AY261061GF108991081081004501999999MA1999999098371MD1999999+0211MW1161REMSYN082AAXX  23184 82986 21495 81807 10268 20241 39837 40123 71666 888// 333 58021 60061;
0213829860999992007022400004-09400-038217FM-12+0253SBUF V0201801N001510450019N0020001N1+02281+02251101601ADDAA106008991AY161061AY221061GF108991031081004501071999KA1240M+02701MA1999999098721MD1999999+0161MW1021REMSYN100AAXX  24004 82986 21495 81803 10228 20225 39872 40160 70262 8387/ 333 10270 29093 55000 58016 60091;
0201829860999992007022412004-09400-038217FM-12+0253SBUF V0201401N001510042019N0100001N1+02611+02251101521ADDAA124015091AY161061AY251061GF106991061071004501001001KA1240N+02201MA1999999098651MD1999999+0001MW1031REMSYN088AAXX  24124 82986 21497 61403 10261 20225 39865 40152 70365 86700 333 20220 58000 60154;
0137829860999992007022418004-09400-038217FM-12+0253SBUF V0201401N001510075019N0200001N1+03071+01901101121ADDGF106991061021008001001001MA1999999098291MD1999999-0081REMSYN070AAXX  24184 82986 32598 61403 10307 20190 39829 40112 86200 333 59008;
0196829860999992007022500004-09400-038217FM-12+0253SBUF V0201801N003610090019N0020001N1+02471+02371101491ADDAY121061AY221061GF107991061081004501071999KA1240M+03171MA1999999098641MD1999999-0081MW1131REMSYN094AAXX  25004 82986 31495 71807 10247 20237 39864 40149 71322 8687/ 333 10317 29080 55085 59008;
0178829860999992007022518004-09400-038217FM-12+0253SBUF V0201801N005110450019N0200001N1+03061+02221101051ADDAY121061AY211061GF106991021021008001041021MA1999999098221MD1999999-0071REMSYN076AAXX  25184 82986 31598 61810 10306 20222 39822 40105 77121 82242 333 59007;EQDQ01+000712PRSWM1
0178829860999992007022600004-09400-038217FM-12+0253SBUF V0201401N003612200019N0020001N1+02661+02161101291ADDGA1001+999999999GF100991001001999999001001KA1240M+03211MA1999999098451MD1999999-0191REMSYN082AAXX  26004 82986 32995 01407 10266 20216 39845 40129 333 10321 29072 55076 59019;
0156829860999992007022612004-09400-038217FM-12+0253SBUF V0201801N004610075019N0100001N1+02701+02221101371ADDGF106991061021008001001001KA1240N+02301MA1999999098541MD1999999+0011REMSYN076AAXX  26124 82986 32597 61809 10270 20222 39854 40137 86200 333 20230 58001;
0137829860999992007022618004-09400-038217FM-12+0253SBUF V0201401N002611050019N0200001N1+03201+01671101021ADDGF105991031021008001001021MA1999999098211MD1999999-0011REMSYN070AAXX  26184 82986 32598 51405 10320 20167 39821 40102 83202 333 59001;
0168829860999992007022700004-09400-038217FM-12+0253SBUF V0201401N004611050019N0020001N1+02741+02071101181ADDGF105991021001017501021031KA1240M+03231MA1999999098351MD1999999-0101REMSYN088AAXX  27004 82986 32795 51409 10274 20207 39835 40118 82023 333 10323 29062 55086 59010;
0156829860999992007022712004-09400-038217FM-12+0253SBUF V0201401N005710450019N0100001N1+02741+01951101431ADDGF105991031041008001031011KA1240N+02361MA1999999098601MD1999999+0061REMSYN076AAXX  27124 82986 32597 51411 10274 20195 39860 40143 83431 333 20236 58006;
0137829860999992007022718004-09400-038217FM-12+0253SBUF V0201401N004110075019N0200001N1+03201+01671100961ADDGF105991051041008001001001MA1999999098151MD1999999-0061REMSYN070AAXX  27184 82986 32598 51408 10320 20167 39815 40096 85400 333 59006;
0168829860999992007022800004-09400-038217FM-12+0253SBUF V0201401N004612200019N0020001N1+02591+02171101251ADDGF104991041021008001001001KA1240M+03241MA1999999098411MD1999999+0061REMSYN088AAXX  28004 82986 32595 41409 10259 20217 39841 40125 84200 333 10324 29064 55095 58006;
0182829860999992007022818004-09400-038217FM-12+0253SBUF V0201801N003110450019N0200001N1+02531+02431101011ADDAA106005191AY161061AY221061GF106991031041008001051011MA1999999098151MD1999999+0001MW1021REMSYN082AAXX  28184 82986 21598 61806 10253 20243 39815 40101 70262 83451 333 58000 60051;
0168829860999992007030100004-09400-038217FM-12+0253SBUF V0201801N003110450019N0020001N1+02401+02231101251ADDGF108991041081008001071999KA1240M+03131MA1999999098401MD1999999-0011REMSYN088AAXX  01004 82986 32595 81806 10240 20223 39840 40125 8487/ 333 10313 29086 55064 59001;
0201829860999992007030112004-09400-038217FM-12+0253SBUF V0201401N004610042019N0100001N1+02601+02211101311ADDAA124005191AY161061AY221061GF106991061071004501001001KA1240N+02221MA1999999098451MD1999999-0031MW1031REMSYN088AAXX  01124 82986 21497 61409 10260 20221 39845 40131 70362 86700 333 20222 59003 60054;
0137829860999992007030118004-09400-038217FM-12+0253SBUF V0201401N005110075019N0200001N1+03061+01901100831ADDGF106991051021008001051001MA1999999098011MD1999999-0141REMSYN070AAXX  01184 82986 32598 61410 10306 20190 39801 40083 85250 333 59014;
0156829860999992007030212004-09400-038217FM-12+0253SBUF V0201401N003110075019N0100001N1+02551+01861101301ADDGF105991051021008001001001KA1240N+01961MA1999999098451MD1999999+0001REMSYN076AAXX  02124 82986 32597 51406 10255 20186 39845 40130 85200 333 20196 58000;
0137829860999992007030218004-09400-038217FM-12+0253SBUF V0200901N004110075019N0200001N1+03091+01951100931ADDGF106991061021008001001001MA1999999098091MD1999999+0081REMSYN070AAXX  02184 82986 32598 60908 10309 20195 39809 40093 86200 333 58008;
0156829860999992007030312004-09400-038217FM-12+0253SBUF V0201401N002610075019N0100001N1+02581+02081101221ADDGF106991061051008001001001KA1240N+02081MA1999999098461MD1999999+0011REMSYN076AAXX  03124 82986 32597 61405 10258 20208 39846 40122 86500 333 20208 58001;
0182829860999992007030318004-09400-038217FM-12+0253SBUF V0200901N002610021019N0020001N1+02601+02311101051ADDAA106001091AY111061AY201061GF108991081071002501999999MA1999999098181MD1999999+0091MW1011REMSYN082AAXX  03184 82986 21395 80905 10260 20231 39818 40105 70110 887// 333 58009 60011;
0213829860999992007030400004-09400-038217FM-12+0253SBUF V0201801N002610021019N0020001N1+02281+02211101281ADDAA106008991AY161061AY221061GF108991081071002501999999KA1240M+03151MA1999999098421MD1999999+0071MW1601REMSYN100AAXX  04004 82986 21395 81805 10228 20221 39842 40128 76062 887// 333 10315 29088 55071 58007 60091;
0201829860999992007030412004-09400-038217FM-12+0253SBUF V0200901N002610075019N0100001N1+02511+02211101321ADDAA124019191AY161061AY221061GF106991051021008001051001KA1240N+02111MA1999999098451MD1999999-0011MW1021REMSYN088AAXX  04124 82986 21597 60905 10251 20221 39845 40132 70262 85250 333 20211 59001 60194;
0182829860999992007030418004-09400-038217FM-12+0253SBUF V0201401N005110060019N0020001N1+02341+02271101131ADDAA106007191AY161061AY221061GF108991081081002501999999MA1999999098251MD1999999+0071MW1651REMSYN082AAXX  04184 82986 21395 81410 10234 20227 39825 40113 76562 888// 333 58007 60071;
0213829860999992007030500004-09400-038217FM-12+0253SBUF V0201801N001510042019N0020001N1+02301+02231101331ADDAA106005191AY161061AY221061GF106991061071004501001001KA1240M+03011MA1999999098461MD1999999+0041MW1011REMSYN100AAXX  05004 82986 21495 61803 10230 20223 39846 40133 70162 86700 333 10301 29093 55064 58004 60051;
0173829860999992007030512004-09400-038217FM-12+0253SBUF V0201401N003110075019N0100001N1+02481+02171101401ADDAA124011991GF106991061041008001001001KA1240N+02221MA1999999098531MD1999999+0081REMSYN082AAXX  05124 82986 22597 61406 10248 20217 39853 40140 86400 333 20222 58008 60124;
0137829860999992007030518004-09400-038217FM-12+0253SBUF V0200901N003112200019N0200001N1+03051+01711101031ADDGF104991031021008001001051MA1999999098201MD1999999-0051REMSYN070AAXX  05184 82986 32598 40906 10305 20171 39820 40103 83205 333 59005;
0168829860999992007030600004-09400-038217FM-12+0253SBUF V0200901N003110075019N0020001N1+02511+02111101311ADDGF106991061051008001001001KA1240M+03061MA1999999098451MD1999999-0011REMSYN088AAXX  06004 82986 32595 60906 10251 20211 39845 40131 86500 333 10306 29072 55097 59001;
0156829860999992007030612004-09400-038217FM-12+0253SBUF V0200901N003110075019N0100001N1+02661+02091101501ADDGF106991051041008001001021KA1240N+02241MA1999999098651MD1999999+0121REMSYN076AAXX  06124 82986 32597 60906 10266 20209 39865 40150 85402 333 20224 58012;
0178829860999992007030700004-09400-038217FM-12+0253SBUF V0200901N005112200019N0020001N1+02641+02091101441ADDGA1001+999999999GF100991001001999999001001KA1240M+03071MA1999999098601MD1999999+0151REMSYN082AAXX  07004 82986 32995 00910 10264 20209 39860 40144 333 10307 29066 55089 58015;
0137829860999992007030718004-09400-038217FM-12+0253SBUF V0200901N003110075019N0200001N1+03081+01821101181ADDGF105991051021008001001001MA1999999098351MD1999999+0011REMSYN070AAXX  07184 82986 32598 50906 10308 20182 39835 40118 85200 333 58001;
0168829860999992007030800004-09400-038217FM-12+0253SBUF V0201801N004112200019N0020001N1+02621+02071101381ADDGF101991011001017501041001KA1240M+02641MA1999999098531MD1999999-0071REMSYN088AAXX  08004 82986 32795 11808 10262 20207 39853 40138 81040 333 10264 29066 55097 59007;
0203829860999992007030812004-09400-038217FM-12+0253SBUF V0200901N003119999999N0100001N1+02541+02271101431ADDAY121061AY221061GF106991999071004501999999KA1240N+02261MA1999999098581MD1999999-0141MW1151REMSYN082AAXX  08124 82986 31497 60906 10254 20227 39858 40143 71522 887// 333 20226 59014;EQDQ01+000082SCOTLC
0182829860999992007030818004-09400-038217FM-12+0253SBUF V0201401N004112200019N0100001N1+02961+02101101001ADDAA106001091AY161061AY221061GF106991031021008001001061MA1999999098171MD1999999-0181MW1011REMSYN082AAXX  08184 82986 21597 61408 10296 20210 39817 40100 70162 83206 333 59018 60011;
0168829860999992007030900004-09400-038217FM-12+0253SBUF V0201801N005110450019N0020001N1+02541+02211101281ADDGF106991021041008001071001KA1240M+03031MA1999999098431MD1999999-0101REMSYN088AAXX  09004 82986 32595 61810 10254 20221 39843 40128 82470 333 10303 29077 55038 59010;
0201829860999992007030912004-09400-038217FM-12+0253SBUF V0201401N003610042019N0100001N1+02501+02091101341ADDAA124001091AY151061AY221061GF108991081071004501999999KA1240N+02201MA1999999098481MD1999999-0101MW1021REMSYN088AAXX  09124 82986 21497 81407 10250 20209 39848 40134 70252 887// 333 20220 59010 60014;
0201829860999992007030918004-09400-038217FM-12+0253SBUF V0201401N002610450019N0100001N1+02661+01971101041ADDAA106000091AY161061AY221061GF107991041071004501041011MA1999999098181MD1999999+0011MW1031REMSYN082AAXX  09184 82986 21497 71405 10266 20197 39818 40104 70362 84741 333 58001 69921;EQDQ01  00002PRCP06
0213829860999992007031000004-09400-038217FM-12+0253SBUF V0201801N002612200019N0020001N1+02221+02141101341ADDAA106004191AY161061AY221061GF103991031001017501021001KA1240M+02811MA1999999098461MD1999999+0031MW1011REMSYN100AAXX  10004 82986 21795 31805 10222 20214 39846 40134 70162 83020 333 10281 29084 55028 58003 60041;
0137829860999992007031018004-09400-038217FM-12+0253SBUF V0201401N004110450019N0200001N1+03061+01701100921ADDGF106991031021008001041021MA1999999098101MD1999999-0081REMSYN070AAXX  10184 82986 32598 61408 10306 20170 39810 40092 83242 333 59008;
0178829860999992007031100004-09400-038217FM-12+0253SBUF V0200901N005712200019N0020001N1+02501+02251101191ADDGA1001+999999999GF100991001001999999001001KA1240M+03071MA1999999098341MD1999999-0121REMSYN082AAXX  11004 82986 32995 00911 10250 20225 39834 40119 333 10307 29075 55074 59012;
0220829860999992007031112004-09400-038217FM-12+0253SBUF V0201801N001010042019N0100001N1+02401+02241101451ADDAA124000091AY151061AY221061GF108991081071004501999999KA1240N+02181MA1999999098581MD1999999+0101MW1031REMSYN088AAXX  11124 82986 21497 81802 10240 20224 39858 40145 70352 887// 333 20218 58010 69924;EQDQ01  00002PRCP24
0137829860999992007031118004-09400-038217FM-12+0253SBUF V0201401N001010450019N0200001N1+03021+01801100931ADDGF106991021031008001051021MA1999999098101MD1999999+0001REMSYN070AAXX  11184 82986 32598 61402 10302 20180 39810 40093 82352 333 58000;
0168829860999992007031200004-09400-038217FM-12+0253SBUF V0201801N003110075019N0020001N1+02371+02221101401ADDGF105991051021008001001001KA1240M+03041MA1999999098531MD1999999+0191REMSYN088AAXX  12004 82986 32595 51806 10237 20222 39853 40140 85200 333 10304 29081 55020 58019;
0156829860999992007031212004-09400-038217FM-12+0253SBUF V0201801N002610075019N0100001N1+02621+02211101411ADDGF106991061041008001001001KA1240N+02301MA1999999098551MD1999999-0031REMSYN076AAXX  12124 82986 32597 61805 10262 20221 39855 40141 86400 333 20230 59003;
0137829860999992007031218004-09400-038217FM-12+0253SBUF V0200901N003610450019N0100001N1+03161+01991100981ADDGF106991021021008001051081MA1999999098161MD1999999+0061REMSYN070AAXX  12184 82986 32597 60907 10316 20199 39816 40098 82258 333 58006;
0178829860999992007031300004-09400-038217FM-12+0253SBUF V0201801N002112200019N0020001N1+02481+02211101361ADDGA1001+999999999GF100991001001999999001001KA1240M+03201MA1999999098511MD1999999-0021REMSYN082AAXX  13004 82986 32995 01804 10248 20221 39851 40136 333 10320 29074 55075 59002;
0156829860999992007031312004-09400-038217FM-12+0253SBUF V0201401N003110450019N0100001N1+02621+02161101391ADDGF106991041021008001031001KA1240N+02261MA1999999098541MD1999999-0011REMSYN076AAXX  13124 82986 32597 61406 10262 20216 39854 40139 84230 333 20226 59001;
0137829860999992007031318004-09400-038217FM-12+0253SBUF V0200901N004612200019N0200001N1+03101+01971100991ADDGF106991041021008001001061MA1999999098161MD1999999+0001REMSYN070AAXX  13184 82986 32598 60909 10310 20197 39816 40099 84206 333 58000;
0168829860999992007031400004-09400-038217FM-12+0253SBUF V0201801N002610120019N0020001N1+02421+02251101271ADDGF106991061081008001001001KA1240M+03171MA1999999098411MD1999999-0101REMSYN088AAXX  14004 82986 32595 61805 10242 20225 39841 40127 86800 333 10317 29077 55076 59010;
0156829860999992007031412004-09400-038217FM-12+0253SBUF V0200901N003110075019N0100001N1+02731+02121101291ADDGF106991061041008001001001KA1240N+02341MA1999999098451MD1999999-0091REMSYN076AAXX  14124 82986 32597 60906 10273 20212 39845 40129 86400 333 20234 59009;
0137829860999992007031418004-09400-038217FM-12+0253SBUF V0200901N004110450019N0200001N1+02931+01921100911ADDGF106991041091008001031061MA1999999098081MD1999999-0081REMSYN070AAXX  14184 82986 32598 60908 10293 20192 39808 40091 84936 333 59008;
0156829860999992007031512004-09400-038217FM-12+0253SBUF V0201401N004610075019N0100001N1+02701+02151101311ADDGF106991061021008001001001KA1240N+02261MA1999999098471MD1999999+0021REMSYN076AAXX  15124 82986 32597 61409 10270 20215 39847 40131 86200 333 20226 58002;
0137829860999992007031518004-09400-038217FM-12+0253SBUF V0200901N005710450019N0200001N1+03221+01611100961ADDGF106991031021008001041041MA1999999098541MD1999999+0061REMSYN070AAXX  15184 82986 32598 60911 10322 20161 39854 40096 83244 333 58006;
0178829860999992007031600004-09400-038217FM-12+0253SBUF V0201401N005112200019N0020001N1+02641+02001101211ADDGA1001+999999999GF100991001001999999001001KA1240M+03251MA1999999098371MD1999999-0041REMSYN082AAXX  16004 82986 32995 01410 10264 20200 39837 40121 333 10325 29062 55092 59004;
0156829860999992007031612004-09400-038217FM-12+0253SBUF V0200901N003110075019N0100001N1+02741+02121101371ADDGF106991051021008001001041KA1240N+02231MA1999999098541MD1999999+0071REMSYN076AAXX  16124 82986 32597 60906 10274 20212 39854 40137 85204 333 20223 58007;
0137829860999992007031618004-09400-038217FM-12+0253SBUF V0201401N003611050019N0200001N1+03181+01731101001ADDGF107991031021008001001071MA1999999098171MD1999999+0031REMSYN070AAXX  16184 82986 32598 71407 10318 20173 39817 40100 83207 333 58003;
0213829860999992007031700004-09400-038217FM-12+0253SBUF V0201401N001510150019N0020001N1+02381+02331101291ADDAA106006191AY191061AY221061GF105991051001017501021001KA1240M+03251MA1999999098441MD1999999+0071MW1011REMSYN100AAXX  17004 82986 21795 51403 10238 20233 39844 40129 70192 85020 333 10325 29073 55092 58007 60061;
0173829860999992007031712004-09400-038217FM-12+0253SBUF V0201401N003110042019N0100001N1+02621+02371101371ADDAA124006191GF108991081071004501999999KA1240N+02261MA1999999098511MD1999999-0031REMSYN082AAXX  17124 82986 22497 81406 10262 20237 39851 40137 887// 333 20226 59003 60064;
0156829860999992007031812004-09400-038217FM-12+0253SBUF V0200901N002110042019N0100001N1+02701+02151101431ADDGF108991081071004501999999KA1240N+02341MA1999999098591MD1999999+0081REMSYN076AAXX  18124 82986 32497 80904 10270 20215 39859 40143 887// 333 20234 58008;
0156829860999992007031912004-09400-038217FM-12+0253SBUF V0201401N003110450019N0100001N1+02731+02081101421ADDGF106991031021008001031011KA1240N+02331MA1999999098581MD1999999-0011REMSYN076AAXX  19124 82986 32597 61406 10273 20208 39858 40142 83231 333 20233 59001;
0137829860999992007031918004-09400-038217FM-12+0253SBUF V0200901N002611050019N0200001N1+03301+01911100941ADDGF106991021021008001001081MA1999999098141MD1999999+0041REMSYN070AAXX  19184 82986 32598 60905 10330 20191 39814 40094 82208 333 58004;
0168829860999992007032000004-09400-038217FM-12+0253SBUF V0201401N002612200019N0020001N1+02721+02281101251ADDGF102991021001012501031001KA1240M+03331MA1999999098421MD1999999+0071REMSYN088AAXX  20004 82986 32695 21405 10272 20228 39842 40125 82030 333 10333 29066 55073 58007;
0156829860999992007032012004-09400-038217FM-12+0253SBUF V0200901N001510075019N0100001N1+02741+02261101361ADDGF106991061041008001001001KA1240N+02421MA1999999098531MD1999999-0051REMSYN076AAXX  20124 82986 32597 60903 10274 20226 39853 40136 86400 333 20242 59005;
0137829860999992007032018004-09400-038217FM-12+0253SBUF V0201401N002612200019N0200001N1+03421+01781100821ADDGF102991011021008001001061MA1999999098031MD1999999-0111REMSYN070AAXX  20184 82986 32598 21405 10342 20178 39803 40082 81206 333 59011;
0178829860999992007032100004-09400-038217FM-12+0253SBUF V0201401N005112200019N0020001N1+02721+02371101071ADDGA1001+999999999GF100991001001999999001001KA1240M+03421MA1999999098251MD1999999-0171REMSYN082AAXX  21004 82986 32995 01410 10272 20237 39825 40107 333 10342 29069 55092 59017;
0156829860999992007032112004-09400-038217FM-12+0253SBUF V0201401N002610075019N0100001N1+02761+02191101251ADDGF106991061021008001001001KA1240N+02341MA1999999098421MD1999999-0111REMSYN076AAXX  21124 82986 32597 61405 10276 20219 39842 40125 86200 333 20234 59011;
0182829860999992007032118004-09400-038217FM-12+0253SBUF V0201401N002612200019N0200001N1+03101+01941100771ADDAA106002091AY161061AY221061GF106991021021008001001061MA1999999097961MD1999999-0071MW1011REMSYN082AAXX  21184 82986 21598 61405 10310 20194 39796 40077 70162 82206 333 59007 60021;
0168829860999992007032200004-09400-038217FM-12+0253SBUF V0200901N004112200019N0020001N1+02621+02391101081ADDGF103991031001017501021001KA1240M+03311MA1999999098251MD1999999+0001REMSYN088AAXX  22004 82986 32795 30908 10262 20239 39825 40108 83020 333 10331 29074 55077 58000;
0201829860999992007032212004-09400-038217FM-12+0253SBUF V0201801N004110021019N0010001N1+02331+02321101341ADDAA124009991AY121061AY221061GF108991081071002501999999KA1240N+02301MA1999999098481MD1999999+0061MW1631REMSYN088AAXX  22124 82986 21394 81808 10233 20232 39848 40134 76322 887// 333 20230 58006 60104;
0182829860999992007032218004-09400-038217FM-12+0253SBUF V0201801N004111050019N0200001N1+02861+02061100871ADDAA106008991AY161061AY221061GF106991021021008001031041MA1999999098041MD1999999+0081MW1011REMSYN082AAXX  22184 82986 21598 61808 10286 20206 39804 40087 70162 82234 333 58008 60091;
0178829860999992007032300004-09400-038217FM-12+0253SBUF V0201801N003112200019N0020001N1+02461+02281101091ADDGA1001+999999999GF100991001001999999001001KA1240M+02971MA1999999098231MD1999999-0021REMSYN082AAXX  23004 82986 32995 01806 10246 20228 39823 40109 333 10297 29086 55041 59002;
0173829860999992007032312004-09400-038217FM-12+0253SBUF V0201401N005110450019N0100001N1+02721+02101101371ADDAA124008991GF106991041021008001051021KA1240N+02261MA1999999098521MD1999999+0041REMSYN082AAXX  23124 82986 22597 61410 10272 20210 39852 40137 84252 333 20226 58004 60094;
0137829860999992007032318004-09400-038217FM-12+0253SBUF V0200901N003111050019N0200001N1+03121+01791101021ADDGF106991021021008001001081MA1999999098201MD1999999+0161REMSYN070AAXX  23184 82986 32598 60906 10312 20179 39820 40102 82208 333 58016;
0156829860999992007032412004-09400-038217FM-12+0253SBUF V0200901N004110042019N0100001N1+02551+02271101441ADDGF108991081071004501999999KA1240N+02261MA1999999098591MD1999999+0071REMSYN076AAXX  24124 82986 32497 80908 10255 20227 39859 40144 887// 333 20226 58007;
0137829860999992007032418004-09400-038217FM-12+0253SBUF V0201401N005112200019N0200001N1+03161+01631100951ADDGF106991031021008001001041MA1999999098141MD1999999-0061REMSYN070AAXX  24184 82986 32598 61410 10316 20163 39814 40095 83204 333 59006;
0178829860999992007032500004-09400-038217FM-12+0253SBUF V0200901N005112200019N0020001N1+02681+02181101261ADDGA1001+999999999GF100991001001999999001001KA1240M+03211MA1999999098421MD1999999-0051REMSYN082AAXX  25004 82986 32995 00910 10268 20218 39842 40126 333 10321 29068 55060 59005;
0167829860999992007032512004-09400-038217FM-12+0253SBUF V0201801N003119999999N0040001N1+02531+02341101351ADDGF108991999999004501999999KA1240N+02341MA1999999098501MD1999999-0091REMSYN087AAXX  25124 82986 21496 81806 10253 20234 39850 40135 5052 888// 333 20234 59009 69914;
0182829860999992007032518004-09400-038217FM-12+0253SBUF V0201801N003110090019N0040001N1+02741+02521100981ADDAA106007991AY161061AY221061GF107991051081004501091999MA1999999098141MD1999999+0001MW1601REMSYN082AAXX  25184 82986 21496 71806 10274 20252 39814 40098 76062 8589/ 333 58000 60081;
0213829860999992007032600004-09400-038217FM-12+0253SBUF V0201401N003110021019N0020001N1+02461+02391101151ADDAA106003091AY161061AY221061GF108991061071002501091999KA1240M+02961MA1999999098301MD1999999-0121MW1021REMSYN100AAXX  26004 82986 21395 81406 10246 20239 39830 40115 70262 8679/ 333 10296 29092 55028 59012 60031;
0201829860999992007032612004-09400-038217FM-12+0253SBUF V0200901N004610075019N0100001N1+02641+02161101261ADDAA124011991AY161061AY221061GF106991061021008001001001KA1240N+02251MA1999999098411MD1999999-0091MW1021REMSYN088AAXX  26124 82986 21597 60909 10264 20216 39841 40126 70262 86200 333 20225 59009 60124;
0137829860999992007032618004-09400-038217FM-12+0253SBUF V0200901N004610075019N0200001N1+03081+01921100881ADDGF105991051021008001001001MA1999999098061MD1999999-0081REMSYN070AAXX  26184 82986 32598 50909 10308 20192 39806 40088 85200 333 59008;
0178829860999992007032700004-09400-038217FM-12+0253SBUF V0201401N004612200019N0020001N1+02561+02291101171ADDGA1001+999999999GF100991001001999999001001KA1240M+03111MA1999999098331MD1999999+0031REMSYN082AAXX  27004 82986 32995 01409 10256 20229 39833 40117 333 10311 29074 55101 58003;
0156829860999992007032712004-09400-038217FM-12+0253SBUF V0200901N003610042019N0100001N1+02641+02271101321ADDGF107991071071004501001001KA1240N+02281MA1999999098471MD1999999+0061REMSYN076AAXX  27124 82986 32497 70907 10264 20227 39847 40132 87700 333 20228 58006;
0137829860999992007032718004-09400-038217FM-12+0253SBUF V0200901N003111050019N0200001N1+03161+01711100931ADDGF105991031021008001001021MA1999999098111MD1999999+0051REMSYN070AAXX  27184 82986 32598 50906 10316 20171 39811 40093 83202 333 58005;
0168829860999992007032800004-09400-038217FM-12+0253SBUF V0201801N004112200019N0020001N1+02601+02121101271ADDGF104991041001017501021001KA1240M+03191MA1999999098431MD1999999+0101REMSYN088AAXX  28004 82986 32795 41808 10260 20212 39843 40127 84020 333 10319 29068 55086 58010;
0156829860999992007032812004-09400-038217FM-12+0253SBUF V0201801N003610042019N0100001N1+02621+02181101361ADDGF107991061051004501081001KA1240N+02241MA1999999098511MD1999999+0041REMSYN076AAXX  28124 82986 32497 71807 10262 20218 39851 40136 86580 333 20224 58004;
0165829860999992007032818004-09400-038217FM-12+0253SBUF V0201801N005110450019N0200001N1+03121+01951100941ADDAY111061AY201061GF106991041021008001041021MA1999999098121MD1999999+0011MW1151REMSYN076AAXX  28184 82986 31598 61810 10312 20195 39812 40094 71510 84242 333 58001;
0213829860999992007032900004-09400-038217FM-12+0253SBUF V0201801N003110042019N0020001N1+02361+02291101321ADDAA106004191AY161061AY221061GF106991061071004501001001KA1240M+03151MA1999999098461MD1999999+0031MW1011REMSYN100AAXX  29004 82986 21495 61806 10236 20229 39846 40132 70162 86700 333 10315 29080 55066 58003 60041;
0201829860999992007032912004-09400-038217FM-12+0253SBUF V0201401N002110042019N0100001N1+02421+02301101301ADDAA124004191AY161061AY221061GF108991081071004501999999KA1240N+02161MA1999999098431MD1999999-0081MW1021REMSYN088AAXX  29124 82986 21497 81404 10242 20230 39843 40130 70262 887// 333 20216 59008 60044;
0137829860999992007032918004-09400-038217FM-12+0253SBUF V0201401N003110075019N0200001N1+03031+01511100881ADDGF105991051021008001001001MA1999999098051MD1999999-0071REMSYN070AAXX  29184 82986 32598 51406 10303 20151 39805 40088 85200 333 59007;
0178829860999992007033000004-09400-038217FM-12+0253SBUF V0201801N001512200019N0020001N1+02411+01821101231ADDGA1001+999999999GF100991001001999999001001KA1240M+03041MA1999999098361MD1999999-0101REMSYN082AAXX  30004 82986 32995 01803 10241 20182 39836 40123 333 10304 29068 55075 59010;
0156829860999992007033012004-09400-038217FM-12+0253SBUF V0200901N004610450019N0100001N1+02561+02151101261ADDGF106991041071004501031011KA1240N+02081MA1999999098401MD1999999-0031REMSYN076AAXX  30124 82986 32497 60909 10256 20215 39840 40126 84731 333 20208 59003;
0137829860999992007033018004-09400-038217FM-12+0253SBUF V0201801N002111050019N0200001N1+03061+01771100831ADDGF105991021021008001031021MA1999999098001MD1999999-0051REMSYN070AAXX  30184 82986 32598 51804 10306 20177 39800 40083 82232 333 59005;
0156829860999992007033112004-09400-038217FM-12+0253SBUF V0201401N003110075019N0100001N1+02601+02121101191ADDGF106991061041008001001001KA1240N+02191MA1999999098341MD1999999-0061REMSYN076AAXX  31124 82986 32597 61406 10260 20212 39834 40119 86400 333 20219 59006;
0137829860999992007033118004-09400-038217FM-12+0253SBUF V0201401N002612200019N0200001N1+03181+01571100831ADDGF105991041021008001001041MA1999999098021MD1999999+0021REMSYN070AAXX  31184 82986 32598 51405 10318 20157 39802 40083 84204 333 58002;
0178829860999992007040100004-09400-038217FM-12+0253SBUF V0201401N003612200019N0020001N1+02621+02101101251ADDGA1001+999999999GF100991001001999999001001KA1240M+03211MA1999999098311MD1999999+0011REMSYN082AAXX  01004 82986 32995 01407 10262 20210 39831 40125 333 10321 29065 55098 58001;
0156829860999992007040112004-09400-038217FM-12+0253SBUF V0201401N003610075019N0100001N1+02701+01861101341ADDGF105991051011008001001001KA1240N+02201MA1999999098501MD1999999+0161REMSYN076AAXX  01124 82986 32597 51407 10270 20186 39850 40134 85100 333 20220 58016;
0137829860999992007040118004-09400-038217FM-12+0253SBUF V0201401N003612200019N0200001N1+03231+01691100851ADDGF104991031011008001001021MA1999999098041MD1999999+0021REMSYN070AAXX  01184 82986 32598 41407 10323 20169 39804 40085 83102 333 58002;
0178829860999992007040200004-09400-038217FM-12+0253SBUF V0200901N004112200019N0020001N1+02661+01951101161ADDGA1001+999999999GF100991001001999999001001KA1240M+03361MA1999999098241MD1999999+0031REMSYN082AAXX  02004 82986 32995 00908 10266 20195 39824 40116 333 10336 29058 55101 58003;
0156829860999992007040212004-09400-038217FM-12+0253SBUF V0200901N003610075019N0100001N1+02681+01991101311ADDGF106991051011008001001021KA1240N+02201MA1999999098471MD1999999-0031REMSYN076AAXX  02124 82986 32597 60907 10268 20199 39847 40131 85102 333 20220 59003;
0137829860999992007040218004-09400-038217FM-12+0253SBUF V0200901N003111050019N0200001N1+03181+01531100811ADDGF107991021011008001001081MA1999999098001MD1999999-0041REMSYN070AAXX  02184 82986 32598 70906 10318 20153 39800 40081 82108 333 59004;
0168829860999992007040300004-09400-038217FM-12+0253SBUF V0201801N003119999999N0020001N1+02661+02141101151ADDGF106991001001999999001061KA1240M+03251MA1999999098321MD1999999-0021REMSYN088AAXX  03004 82986 32995 61806 10266 20214 39832 40115 80006 333 10325 29062 55081 59002;
0156829860999992007040312004-09400-038217FM-12+0253SBUF V0201401N004110075019N0100001N1+02621+02101101361ADDGF106991051021008001001011KA1240N+02221MA1999999098521MD1999999+0051REMSYN076AAXX  03124 82986 32597 61408 10262 20210 39852 40136 85201 333 20222 58005;
0137829860999992007040318004-09400-038217FM-12+0253SBUF V0200901N002611050019N0200001N1+03141+01171100851ADDGF108991011011008001001071MA1999999098031MD1999999+0031REMSYN070AAXX  03184 82986 32598 80905 10314 20117 39803 40085 81107 333 58003;
0168829860999992007040400004-09400-038217FM-12+0253SBUF V0201401N004112200019N0020001N1+02621+02031101061ADDGF104991001001999999001031KA1240M+03191MA1999999098221MD1999999-0101REMSYN088AAXX  04004 82986 32995 41408 10262 20203 39822 40106 80003 333 10319 29061 55051 59010;
0156829860999992007040412004-09400-038217FM-12+0253SBUF V0200901N003112200019N0100001N1+02701+01861101381ADDGF106991041041008001001011KA1240N+02201MA1999999098541MD1999999+0021REMSYN076AAXX  04124 82986 32597 60906 10270 20186 39854 40138 84401 333 20220 58002;
0137829860999992007040418004-09400-038217FM-12+0253SBUF V0201801N002112200019N0200001N1+03271+01281100901ADDGF105991021021008001001061MA1999999098081MD1999999+0051REMSYN070AAXX  04184 82986 32598 51804 10327 20128 39808 40090 82206 333 58005;
0168829860999992007040500004-09400-038217FM-12+0253SBUF V0201401N003112200019N0020001N1+02631+01781101111ADDGF103991031001012501021001KA1240M+03321MA1999999098281MD1999999+0061REMSYN088AAXX  05004 82986 32695 31406 10263 20178 39828 40111 83020 333 10332 29052 55074 58006;
0156829860999992007040512004-09400-038217FM-12+0253SBUF V0200901N005110075019N0100001N1+02681+01941101371ADDGF105991051011008001001001KA1240N+02041MA1999999098531MD1999999-0011REMSYN076AAXX  05124 82986 32597 50910 10268 20194 39853 40137 85100 333 20204 59001;
0137829860999992007040518004-09400-038217FM-12+0253SBUF V0200901N003110075019N0200001N1+03221+01341101001ADDGF105991051011008001001001MA1999999098171MD1999999+0091REMSYN070AAXX  05184 82986 32598 50906 10322 20134 39817 40100 85100 333 58009;
0156829860999992007040612004-09400-038217FM-12+0253SBUF V0201401N001512200019N0100001N1+02641+01951101411ADDGF104991041011008001001001KA1240N+02061MA1999999098571MD1999999+0041REMSYN076AAXX  06124 82986 32597 41403 10264 20195 39857 40141 84100 333 20206 58004;
0137829860999992007040618004-09400-038217FM-12+0253SBUF V0201401N002612200019N0200001N1+03491+01531100881ADDGF102991011011008001001051MA1999999098071MD1999999-0101REMSYN070AAXX  06184 82986 32598 21405 10349 20153 39807 40088 81105 333 59010;
0178829860999992007040700004-09400-038217FM-12+0253SBUF V0201401N005112200019N0020001N1+02721+02081101181ADDGA1001+999999999GF100991001001999999001001KA1240M+03491MA1999999098351MD1999999-0131REMSYN082AAXX  07004 82986 32995 01410 10272 20208 39835 40118 333 10349 29058 55107 59013;
0156829860999992007040712004-09400-038217FM-12+0253SBUF V0201401N005712200019N0100001N1+02631+01931101461ADDGF106991041021008001001011KA1240N+02161MA1999999098621MD1999999+0051REMSYN076AAXX  07124 82986 32597 61411 10263 20193 39862 40146 84201 333 20216 58005;
0137829860999992007040718004-09400-038217FM-12+0253SBUF V0201401N005112200019N0200001N1+03321+01611101011ADDGF102991011011008001001011MA1999999098191MD1999999+0121REMSYN070AAXX  07184 82986 32598 21410 10332 20161 39819 40101 81101 333 58012;
0178829860999992007040800004-09400-038217FM-12+0253SBUF V0201401N005712200019N0020001N1+02681+01841101321ADDGA1001+999999999GF100991001001999999001001KA1240M+03341MA1999999098481MD1999999+0131REMSYN082AAXX  08004 82986 32995 01411 10268 20184 39848 40132 333 10334 29056 55105 58013;
0156829860999992007040812004-09400-038217FM-12+0253SBUF V0201401N003612200019N0100001N1+02701+02011101251ADDGF106991031041008001001061KA1240N+02361MA1999999098611MD1999999-0011REMSYN076AAXX  08124 82986 32597 61407 10270 20201 39861 40125 83406 333 20236 59001;
0137829860999992007040818004-09400-038217FM-12+0253SBUF V0201401N001519999999N0200001N1+03311+01411100931ADDGF105991001001999999001081MA1999999098131MD1999999-0061REMSYN070AAXX  08184 82986 32998 51403 10331 20141 39813 40093 80008 333 59006;
0178829860999992007040900004-09400-038217FM-12+0253SBUF V0201801N003612200019N0020001N1+02641+02051101201ADDGA1001+999999999GF100991001001999999001001KA1240M+03351MA1999999098361MD1999999-0121REMSYN082AAXX  09004 82986 32995 01807 10264 20205 39836 40120 333 10335 29060 55082 59012;
0137829860999992007040918004-09400-038217FM-12+0253SBUF V0201401N002612200019N0200001N1+03591+01271100721ADDGF102991021011008001001001MA1999999097931MD1999999-0201REMSYN070AAXX  09184 82986 32598 21405 10359 20127 39793 40072 82100 333 59020;
0178829860999992007041000004-09400-038217FM-12+0253SBUF V0201401N003612200019N0020001N1+02841+01701101011ADDGA1001+999999999GF100991001001999999001001KA1240M+03581MA1999999098201MD1999999-0161REMSYN082AAXX  10004 82986 32995 01407 10284 20170 39820 40101 333 10358 29047 55089 59016;
0156829860999992007041012004-09400-038217FM-12+0253SBUF V0201801N001512200019N0100001N1+02801+01951101181ADDGF102991011011008001001011KA1240N+02281MA1999999098361MD1999999-0131REMSYN076AAXX  10124 82986 32597 21803 10280 20195 39836 40118 81101 333 20228 59013;
0137829860999992007041018004-09400-038217FM-12+0253SBUF V0201401N002612200019N0200001N1+03511+01481100751ADDGF104991031011008001001011MA1999999097961MD1999999+0031REMSYN070AAXX  10184 82986 32598 41405 10351 20148 39796 40075 83101 333 58003;
0178829860999992007041100004-09400-038217FM-12+0253SBUF V0200901N004112200019N0020001N1+02851+02041101171ADDGA1001+999999999GF100991001001999999001001KA1240M+03551MA1999999098351MD1999999+0151REMSYN082AAXX  11004 82986 32995 00908 10285 20204 39835 40117 333 10355 29054 55103 58015;
0156829860999992007041112004-09400-038217FM-12+0253SBUF V0201801N003610042019N0100001N1+02821+01971101411ADDGF106991061071004501001001KA1240N+02341MA1999999098591MD1999999+0231REMSYN076AAXX  11124 82986 32497 61807 10282 20197 39859 40141 86700 333 20234 58023;
0137829860999992007041118004-09400-038217FM-12+0253SBUF V0200901N003110042019N0100001N1+03241+01261101001ADDGF106991061051004501001001MA1999999098191MD1999999+0231REMSYN070AAXX  11184 82986 32497 60906 10324 20126 39819 40100 86500 333 58023;
0178829860999992007041200004-09400-038217FM-12+0253SBUF V0201401N005112200019N0020001N1+02661+01871101361ADDGA1001+999999999GF100991001001999999001001KA1240M+03351MA1999999098531MD1999999+0181REMSYN082AAXX  12004 82986 32995 01410 10266 20187 39853 40136 333 10335 29054 55045 58018;
0156829860999992007041212004-09400-038217FM-12+0253SBUF V0200901N003110075019N0100001N1+02691+02091101541ADDGF105991051041008001001001KA1240N+02221MA1999999098701MD1999999+0111REMSYN076AAXX  12124 82986 32597 50906 10269 20209 39870 40154 85400 333 20222 58011;
0137829860999992007041218004-09400-038217FM-12+0253SBUF V0201401N004110450019N0200001N1+03451+01481101061ADDGF105991031021008001031001MA1999999098261MD1999999+0071REMSYN070AAXX  12184 82986 32598 51408 10345 20148 39826 40106 83230 333 58007;
0168829860999992007041300004-09400-038217FM-12+0253SBUF V0201401N006212200019N0020001N1+02761+02231101351ADDGF104991041021008001001001KA1240M+03501MA1999999098521MD1999999-0011REMSYN088AAXX  13004 82986 32595 41412 10276 20223 39852 40135 84200 333 10350 29062 55091 59001;
0156829860999992007041312004-09400-038217FM-12+0253SBUF V0201801N003110075019N0100001N1+02841+01991101461ADDGF105991051021008001001001KA1240N+02261MA1999999098641MD1999999-0061REMSYN076AAXX  13124 82986 32597 51806 10284 20199 39864 40146 85200 333 20226 59006;
0137829860999992007041318004-09400-038217FM-12+0253SBUF V0201401N003610075019N0200001N1+03451+01581100971ADDGF105991051021008001001001MA1999999098171MD1999999-0091REMSYN070AAXX  13184 82986 32598 51407 10345 20158 39817 40097 85200 333 59009;
0168829860999992007041400004-09400-038217FM-12+0253SBUF V0201801N005110075019N0020001N1+02651+02161101351ADDGF106991061051008001001001KA1240M+03461MA1999999098521MD1999999+0001REMSYN088AAXX  14004 82986 32595 61810 10265 20216 39852 40135 86500 333 10346 29061 55101 58000;
0156829860999992007041412004-09400-038217FM-12+0253SBUF V0201401N003110075019N0100001N1+02721+02101101491ADDGF106991061021008001001001KA1240N+02301MA1999999098651MD1999999+0011REMSYN076AAXX  14124 82986 32597 61406 10272 20210 39865 40149 86200 333 20230 58001;
0137829860999992007041418004-09400-038217FM-12+0253SBUF V0201401N004110075019N0200001N1+03301+01911100961ADDGF106991061021008001001001MA1999999098151MD1999999-0021REMSYN070AAXX  14184 82986 32598 61408 10330 20191 39815 40096 86200 333 59002;
0178829860999992007041500004-09400-038217FM-12+0253SBUF V0201401N004112200019N0020001N1+02551+02111101451ADDGA1001+999999999GF100991001001999999001001KA1240M+03351MA1999999098611MD1999999+0091REMSYN082AAXX  15004 82986 32995 01408 10255 20211 39861 40145 333 10335 29067 55085 58009;
0156829860999992007041512004-09400-038217FM-12+0253SBUF V0201401N003110075019N0100001N1+02701+02061101521ADDGF105991051021008001001001KA1240N+02271MA1999999098671MD1999999+0021REMSYN076AAXX  15124 82986 32597 51406 10270 20206 39867 40152 85200 333 20227 58002;
0137829860999992007041518004-09400-038217FM-12+0253SBUF V0201401N002612200019N0200001N1+03311+01411101001ADDGF104991041011008001001001MA1999999098181MD1999999+0031REMSYN070AAXX  15184 82986 32598 41405 10331 20141 39818 40100 84100 333 58003;
0156829860999992007041612004-09400-038217FM-12+0253SBUF V0200901N005710075019N0100001N1+02821+01831101451ADDGF105991051041008001001001KA1240N+02221MA1999999098621MD1999999-0051REMSYN076AAXX  16124 82986 32597 50911 10282 20183 39862 40145 85400 333 20222 59005;
0137829860999992007041618004-09400-038217FM-12+0253SBUF V0201401N003110075019N0200001N1+03281+01241100921ADDGF106991061021008001001001MA1999999098111MD1999999-0071REMSYN070AAXX  16184 82986 32598 61406 10328 20124 39811 40092 86200 333 59007;
0168829860999992007041700004-09400-038217FM-12+0253SBUF V0201801N006212200019N0020001N1+02681+01891101221ADDGF104991041001017501021001KA1240M+03391MA1999999098391MD1999999-0161REMSYN088AAXX  17004 82986 32795 41812 10268 20189 39839 40122 84020 333 10339 29052 55086 59016;
0156829860999992007041712004-09400-038217FM-12+0253SBUF V0201401N004610042019N0100001N1+02681+02091101321ADDGF108991081071004501999999KA1240N+02221MA1999999098491MD1999999-0131REMSYN076AAXX  17124 82986 32497 81409 10268 20209 39849 40132 887// 333 20222 59013;
0137829860999992007041718004-09400-038217FM-12+0253SBUF V0201801N001511050019N0200001N1+03281+01531100861ADDGF106991041021008001001021MA1999999098051MD1999999-0061REMSYN070AAXX  17184 82986 32598 61803 10328 20153 39805 40086 84202 333 59006;
0178829860999992007041800004-09400-038217FM-12+0253SBUF V0201801N003112200019N0020001N1+02641+02071101171ADDGA1001+999999999GF100991001001999999001001KA1240M+03281MA1999999098341MD1999999-0051REMSYN082AAXX  18004 82986 32995 01806 10264 20207 39834 40117 333 10328 29062 55039 59005;
0156829860999992007041812004-09400-038217FM-12+0253SBUF V0201401N003610450019N0100001N1+02721+02081101241ADDGF106991041021008001021001KA1240N+02301MA1999999098411MD1999999-0081REMSYN076AAXX  18124 82986 32597 61407 10272 20208 39841 40124 84220 333 20230 59008;
0137829860999992007041818004-09400-038217FM-12+0253SBUF V0200901N003111050019N0200001N1+03141+01971100881ADDGF106991031021008001001081MA1999999098061MD1999999+0011REMSYN070AAXX  18184 82986 32598 60906 10314 20197 39806 40088 83208 333 58001;
0168829860999992007041900004-09400-038217FM-12+0253SBUF V0201401N003612200019N0020001N1+02721+02191101201ADDGF102991021021008001001001KA1240M+03271MA1999999098731MD1999999+0031REMSYN088AAXX  19004 82986 32595 21407 10272 20219 39873 40120 82200 333 10327 29066 55030 58003;
0201829860999992007041912004-09400-038217FM-12+0253SBUF V0200901N003110060019N0010001N1+02271+02211101341ADDAA124006191AY161061AY261061GF108991081081002501999999KA1240N+02261MA1999999098481MD1999999+0071MW1631REMSYN088AAXX  19124 82986 21394 80906 10227 20221 39848 40134 76366 888// 333 20226 58007 60064;
0182829860999992007041918004-09400-038217FM-12+0253SBUF V0201801N003110090019N0100001N1+02881+02351100901ADDAA106000021AY151061AY221061GF107991051081004501091999MA1999999098071MD1999999+0011MW1151REMSYN082AAXX  19184 82986 21497 71806 10288 20235 39807 40090 71552 8589/ 333 58001 69911;
0178829860999992007042000004-09400-038217FM-12+0253SBUF V0201801N004112200019N0020001N1+02531+02211101281ADDGA1001+999999999GF100991001001999999001001KA1240M+03211MA1999999098411MD1999999+0041REMSYN082AAXX  20004 82986 32995 01808 10253 20221 39841 40128 333 10321 29084 55025 58004;
0173829860999992007042012004-09400-038217FM-12+0253SBUF V0201401N004610075019N0100001N1+02671+02071101241ADDAA124000021GF106991051021008001031001KA1240N+02241MA1999999098491MD1999999+0011REMSYN082AAXX  20124 82986 22597 61409 10267 20207 39849 40124 85230 333 20224 58001 69914;
0137829860999992007042018004-09400-038217FM-12+0253SBUF V0200901N005710450019N0200001N1+03241+01211100841ADDGF106991031011008001031001MA1999999098031MD1999999-0041REMSYN070AAXX  20184 82986 32598 60911 10324 20121 39803 40084 83130 333 59004;
0178829860999992007042100004-09400-038217FM-12+0253SBUF V0201801N005112200019N0020001N1+02621+01731101191ADDGA1001+999999999GF100991001001999999001001KA1240M+03311MA1999999098351MD1999999-0061REMSYN082AAXX  21004 82986 32995 01810 10262 20173 39835 40119 333 10331 29054 55072 59006;
0220829860999992007042112004-09400-038217FM-12+0253SBUF V0201801N004610090019N0040001N1+02711+02431101281ADDAA124000091AY151061AY221061GF108991081081004501999999KA1240N+02261MA1999999098441MD1999999-0051MW1151REMSYN088AAXX  21124 82986 21496 81809 10271 20243 39844 40128 71552 888// 333 20226 59005 69904;EQDQ01  00002PRCP24
0182829860999992007042118004-09400-038217FM-12+0253SBUF V0201801N003610060019N0020001N1+02581+02551100971ADDAA106014091AY161061AY221061GF108991081081002501999999MA1999999098121MD1999999+0091MW1601REMSYN082AAXX  21184 82986 21395 81807 10258 20255 39812 40097 76062 888// 333 58009 60141;
0213829860999992007042200004-09400-038217FM-12+0253SBUF V0201801N002610042019N0020001N1+02241+02221101321ADDAA106006191AY161061AY221061GF106991061071004501001001KA1240M+02711MA1999999098461MD1999999+0111MW1011REMSYN100AAXX  22004 82986 21495 61805 10224 20222 39846 40132 70162 86700 333 10271 29095 55025 58011 60061;
0173829860999992007042212004-09400-038217FM-12+0253SBUF V0201401N002610450019N0100001N1+02521+02271101351ADDAA124020191GF108991041021008001021021KA1240N+02221MA1999999098481MD1999999+0041REMSYN082AAXX  22124 82986 22597 81405 10252 20227 39848 40135 84222 333 20222 58004 60204;
0137829860999992007042218004-09400-038217FM-12+0253SBUF V0200901N001510450019N0200001N1+03071+01771100931ADDGF106991031021008001021001MA1999999098111MD1999999-0011REMSYN070AAXX  22184 82986 32598 60903 10307 20177 39811 40093 83220 333 59001;
0178829860999992007042300004-09400-038217FM-12+0253SBUF V0200901N002612200019N0020001N1+02531+02271101361ADDGA1001+999999999GF100991001001999999001001KA1240M+03071MA1999999098501MD1999999+0041REMSYN082AAXX  23004 82986 32995 00905 10253 20227 39850 40136 333 10307 29076 55047 58004;
0156829860999992007042312004-09400-038217FM-12+0253SBUF V0201801N001510042019N0100001N1+02481+02271101431ADDGF108991081071004501999999KA1240N+02181MA1999999098571MD1999999+0091REMSYN076AAXX  23124 82986 32497 81803 10248 20227 39857 40143 887// 333 20218 58009;
0182829860999992007042318004-09400-038217FM-12+0253SBUF V0200901N002610450019N0200001N1+02641+02161101081ADDAA106003091AY161061AY221061GF106991021021008001041011MA1999999098221MD1999999+0111MW1021REMSYN082AAXX  23184 82986 21598 60905 10264 20216 39822 40108 70262 82241 333 58011 60031;
0178829860999992007042400004-09400-038217FM-12+0253SBUF V0201801N002112200019N0020001N1+02441+02281101341ADDGA1001+999999999GF100991001001999999001001KA1240M+02901MA1999999098481MD1999999-0021REMSYN082AAXX  24004 82986 32995 01804 10244 20228 39848 40134 333 10290 29086 55013 59002;
0173829860999992007042412004-09400-038217FM-12+0253SBUF V0200901N003610075019N0100001N1+02681+02201101421ADDAA124003091GF106991051041008001001011KA1240N+02221MA1999999098571MD1999999+0001REMSYN082AAXX  24124 82986 22597 60907 10268 20220 39857 40142 85401 333 20222 58000 60034;
0137829860999992007042418004-09400-038217FM-12+0253SBUF V0201401N005110075019N0200001N1+03151+02211100941ADDGF106991051021008001041001MA1999999098121MD1999999-0101REMSYN070AAXX  24184 82986 32598 61410 10315 20221 39812 40094 85240 333 59010;
0232829860999992007042500004-09400-038217FM-12+0253SBUF V0201801N002610450019N0020001N1+02501+02291101241ADDAA106000091AY151061AY221061GF105991021021008001051001KA1240M+03201MA1999999098401MD1999999-0081MW1021REMSYN100AAXX  25004 82986 21595 51805 10250 20229 39840 40124 70252 82250 333 10320 29077 55067 59008 69901;EQDQ01  00002PRCP06
0201829860999992007042512004-09400-038217FM-12+0253SBUF V0201401N002110042019N0100001N1+02551+02211101401ADDAA124001091AY161061AY251061GF106991061071004501001001KA1240N+02281MA1999999098541MD1999999-0031MW1031REMSYN088AAXX  25124 82986 21497 61404 10255 20221 39854 40140 70365 86700 333 20228 59003 60014;
0137829860999992007042518004-09400-038217FM-12+0253SBUF V0201401N005110450019N0200001N1+02901+02171100961ADDGF106991031021008001091001MA1999999098131MD1999999+0011REMSYN070AAXX  25184 82986 32598 61410 10290 20217 39813 40096 83290 333 58001;
0168829860999992007042600004-09400-038217FM-12+0253SBUF V0200901N003112200019N0020001N1+02461+02281101241ADDGF104991041001012501051001KA1240M+02911MA1999999098381MD1999999-0021REMSYN088AAXX  26004 82986 32695 40906 10246 20228 39838 40124 84050 333 10291 29082 55016 59002;
0156829860999992007042612004-09400-038217FM-12+0253SBUF V0201401N004110075019N0100001N1+02661+02021101261ADDGF105991051011008001001001KA1240N+02181MA1999999098411MD1999999-0131REMSYN076AAXX  26124 82986 32597 51408 10266 20202 39841 40126 85100 333 20218 59013;
0137829860999992007042618004-09400-038217FM-12+0253SBUF V0201401N003112200019N0200001N1+03201+01711100771ADDGF103991031011008001001001MA1999999098951MD1999999-0191REMSYN070AAXX  26184 82986 32598 31406 10320 20171 39895 40077 83100 333 59019;
0178829860999992007042700004-09400-038217FM-12+0253SBUF V0201401N005112200019N0020001N1+02621+02251101141ADDGA1001+999999999GF100991001001999999001001KA1240M+03251MA1999999098311MD1999999-0071REMSYN082AAXX  27004 82986 32995 01410 10262 20225 39831 40114 333 10325 29067 55107 59007;
0184829860999992007042712004-09400-038217FM-12+0253SBUF V0201401N004610090019N0100001N1+02731+02301101391ADDAY121061AY221061GF107991071081004501999999KA1240N+02341MA1999999098551MD1999999+0141MW1151REMSYN082AAXX  27124 82986 31497 71409 10273 20230 39855 40139 71522 878// 333 20234 58014;
0137829860999992007042718004-09400-038217FM-12+0253SBUF V0201401N003110450019N0200001N1+02981+01951100911ADDGF106991031071004501071041MA1999999098091MD1999999+0141REMSYN070AAXX  27184 82986 32498 61406 10298 20195 39809 40091 83774 333 58014;
0178829860999992007042800004-09400-038217FM-12+0253SBUF V0201801N003112200019N0020001N1+02621+02051101191ADDGA1001+999999999GF100991001001999999001001KA1240M+03131MA1999999098361MD1999999+0051REMSYN082AAXX  28004 82986 32995 01806 10262 20205 39836 40119 333 10313 29068 55042 58005;
0156829860999992007042812004-09400-038217FM-12+0253SBUF V0201401N004112200019N0100001N1+02721+02241101531ADDGF106991041041008001001011KA1240N+02241MA1999999098681MD1999999+0131REMSYN076AAXX  28124 82986 32597 61408 10272 20224 39868 40153 84401 333 20224 58013;
0201829860999992007042818004-09400-038217FM-12+0253SBUF V0201401N005112200019N0200001N1+02741+02241101181ADDAA106000091AY151061AY221061GF106991041051008001001011MA1999999098331MD1999999+0241MW1021REMSYN082AAXX  28184 82986 21598 61410 10274 20224 39833 40118 70252 84501 333 58024 69911;EQDQ01  00002PRCP06
0168829860999992007042900004-09400-038217FM-12+0253SBUF V0201801N003110075019N0020001N1+02471+02321101521ADDGF108991081061008001999999KA1240M+03281MA1999999098671MD1999999+0311REMSYN088AAXX  29004 82986 32595 81806 10247 20232 39867 40152 886// 333 10328 29083 55085 58031;
0201829860999992007042912004-09400-038217FM-12+0253SBUF V0201401N003610042019N0100001N1+02521+02401101571ADDAA124009991AY161061AY221061GF107991071071004501999999KA1240N+02161MA1999999098711MD1999999+0031MW1031REMSYN088AAXX  29124 82986 21497 71407 10252 20240 39871 40157 70362 877// 333 20216 58003 60104;
0165829860999992007042918004-09400-038217FM-12+0253SBUF V0201401N003110450019N0200001N1+02781+02181101141ADDAY121061AY211061GF106991031071004501021041MA1999999098291MD1999999-0041MW1511REMSYN076AAXX  29184 82986 31498 61406 10278 20218 39829 40114 75121 83724 333 59004;
0213829860999992007043000004-09400-038217FM-12+0253SBUF V0201801N001510042019N0020001N1+02441+02411101431ADDAA106000591AY161061AY221061GF106991061071004501001001KA1240M+02871MA1999999098571MD1999999-0101MW1011REMSYN100AAXX  30004 82986 21495 61803 10244 20241 39857 40143 70162 86700 333 10287 29090 55027 59010 69961;
0173829860999992007043012004-09400-038217FM-12+0253SBUF V0201401N003110450019N0100001N1+02731+02081101471ADDAA124000591GF106991031021008001051001KA1240N+02261MA1999999098621MD1999999-0091REMSYN082AAXX  30124 82986 22597 61406 10273 20208 39862 40147 83250 333 20226 59009 69964;
0182829860999992007043018004-09400-038217FM-12+0253SBUF V0201801N001510450019N0100001N1+02361+02331101131ADDAA106017091AY101061AY261061GF107991031021008001091001MA1999999098261MD1999999-0031MW1211REMSYN082AAXX  30184 82986 21597 71803 10236 20233 39826 40113 72106 83290 333 59003 60171;
0168829860999992007050100004-09400-038217FM-12+0253SBUF V0201801N000510450019N0020001N1+02371+02331101321ADDGF108991031041008001021999KA1240M+02871MA1999999098471MD1999999-0101REMSYN088AAXX  01004 82986 32595 81801 10237 20233 39847 40132 8342/ 333 10287 29066 55029 59010;
0201829860999992007050112004-09400-038217FM-12+0253SBUF V0201801N002110450019N0040001N1+02521+02381101451ADDAA124017091AY121061AY221061GF108991041071004501071999KA1240N+02261MA1999999098581MD1999999-0041MW1151REMSYN088AAXX  01124 82986 21496 81804 10252 20238 39858 40145 71522 8477/ 333 20226 59004 60174;
0137829860999992007050118004-09400-038217FM-12+0253SBUF V0201401N003110450019N0200001N1+02981+02121100871ADDGF105991031021008001031001MA1999999098041MD1999999-0221REMSYN070AAXX  01184 82986 32598 51406 10298 20212 39804 40087 83230 333 59022;
0168829860999992007050200004-09400-038217FM-12+0253SBUF V0201401N004610450019N0020001N1+02541+02331101301ADDGF106991021041008001051001KA1240M+03011MA1999999098451MD1999999-0021REMSYN088AAXX  02004 82986 32595 61409 10254 20233 39845 40130 82450 333 10301 29082 55049 59002;
0156829860999992007050212004-09400-038217FM-12+0253SBUF V0201801N003110075019N0100001N1+02531+02291101471ADDGF107991061071008001021999KA1240N+02291MA1999999098621MD1999999+0041REMSYN076AAXX  02124 82986 32597 71806 10253 20229 39862 40147 8672/ 333 20229 58004;
0137829860999992007050218004-09400-038217FM-12+0253SBUF V0200901N003610450019N0200001N1+03101+01841101031ADDGF106991031021008001041011MA1999999098201MD1999999+0161REMSYN070AAXX  02184 82986 32598 60907 10310 20184 39820 40103 83241 333 58016;
0178829860999992007050300004-09400-038217FM-12+025399999V0201801N002612200019N0020001N1+02481+02211101301ADDGA1001+999999999GF100991001001999999001001KA1240M+03111MA1999999098441MD1999999-0011REMSYN082AAXX  03004 82986 32995 01805 10248 20221 39844 40130 333 10311 29076 55056 59001;
0156829860999992007050312004-09400-038217FM-12+025399999V0200901N003610075019N0100001N1+02651+02091101471ADDGF106991051021008001001021KA1240N+02301MA1999999098621MD1999999+0001REMSYN076AAXX  03124 82986 32597 60907 10265 20209 39862 40147 85202 333 20230 58000;
0137829860999992007050318004-09400-038217FM-12+0253SBUF V0201401N005110042019N0200001N1+03001+01531101071ADDGF106991061071004501001001MA1999999098241MD1999999+0041REMSYN070AAXX  03184 82986 32498 61410 10300 20153 39824 40107 86700 333 58004;
0178829860999992007050400004-09400-038217FM-12+0253SBUF V0200901N003612200019N0020001N1+02441+01881101311ADDGA1001+999999999GF100991001001999999001001KA1240M+03111MA1999999098461MD1999999+0021REMSYN082AAXX  04004 82986 32995 00907 10244 20188 39846 40131 333 10311 29064 55091 58002;
0175829860999992007050412004-09400-038217FM-12+0253SBUF V0201401N003110120019N0020001N1+02841+02221101541ADDGF105991051021012501001001KA1240N+02281MA1999999999999MD1999999+0071REMSYN076AAXX  04124 82986 32695 51406 10284 20222 30147 40154 85200 333 20228 58007;EQDQ01 101473APOSP 
0156829860999992007050418004-09400-038217FM-12+0253SBUF V0201401N003112200019N0200001N1+02891+01731101121ADDGF105991031041008001001011MA1999999098272MD1999999+0031REMSYN070AAXX  04184 82986 32598 51406 10289 20173 39827 40112 83401 333 58003;EQDQ01+098273APOSP 
0168829860999992007050500004-09400-038217FM-12+0253SBUF V0201401N003110450019N0020001N1+02451+02011101471ADDGF106991031051008001051001KA1240M+03001MA1999999098621MD1999999+0161REMSYN088AAXX  05004 82986 32595 61406 10245 20201 39862 40147 83550 333 10300 29071 55060 58016;
0156829860999992007050512004-09400-038217FM-12+0253SBUF V0201801N004110075019N0100001N1+02481+02091101441ADDGF106991051021008001031001KA1240N+02141MA1999999098571MD1999999+0001REMSYN076AAXX  05124 82986 32597 61808 10248 20209 39857 40144 85230 333 20214 58000;
0159829860999992007050518004-09400-038217FM-12+0253SBUF V0201801N001519999999N0100001N1+02811+02131100991ADDAY121061AY221061GF106991999999008001999999MA1999999098141MD1999999-0131MW1151REMSYN070AAXX  05184 82986 31597 61803 10281 20213 39814 40099 71522 333 59013;
0213829860999992007050600004-09400-038217FM-12+0253SBUF V0201801N001510075019N0020001N1+02361+02331101321ADDAA106004191AY161061AY251061GF105991051051008001001001KA1240M+02821MA1999999098451MD1999999-0171MW1031REMSYN100AAXX  06004 82986 21595 51803 10236 20233 39845 40132 70365 85500 333 10282 29086 55051 59017 60041;
0201829860999992007050612004-09400-038217FM-12+0253SBUF V0201401N003610075019N0100001N1+02351+02311101311ADDAA124007991AY161061AY221061GF106991061041008001001001KA1240N+02201MA1999999098441MD1999999-0131MW1021REMSYN088AAXX  06124 82986 21597 61407 10235 20231 39844 40131 70262 86400 333 20220 59013 60084;
0137829860999992007050618004-09400-038217FM-12+0253SBUF V0200901N003110450019N0200001N1+02901+02041100941ADDGF106991041021008001081001MA1999999098111MD1999999-0031REMSYN070AAXX  06184 82986 32598 60906 10290 20204 39811 40094 84280 333 59003;
0168829860999992007050700004-09400-038217FM-12+0253SBUF V0201401N004112200019N0020001N1+02491+02231101231ADDGF103991031021008001001001KA1240M+03111MA1999999098361MD1999999-0091REMSYN088AAXX  07004 82986 32595 31408 10249 20223 39836 40123 83200 333 10311 29082 55047 59009;
0156829860999992007050712004-09400-038217FM-12+0253SBUF V0200901N004610075019N0100001N1+02641+02071101291ADDGF105991051021008001001001KA1240N+02171MA1999999098441MD1999999+0001REMSYN076AAXX  07124 82986 32597 50909 10264 20207 39844 40129 85200 333 20217 58000;
0137829860999992007050718004-09400-038217FM-12+0253SBUF V0201401N005110075019N0200001N1+03121+01561100851ADDGF105991051011008001001001MA1999999098031MD1999999-0081REMSYN070AAXX  07184 82986 32598 51410 10312 20156 39803 40085 85100 333 59008;
0178829860999992007050800004-09400-038217FM-12+0253SBUF V0201401N003112200019N0020001N1+02481+02051101181ADDGA1001+999999999GF100991001001999999001001KA1240M+03141MA1999999098331MD1999999-0031REMSYN082AAXX  08004 82986 32995 01406 10248 20205 39833 40118 333 10314 29066 55105 59003;
0156829860999992007050812004-09400-038217FM-12+0253SBUF V0201401N002110075019N0100001N1+02541+02151101361ADDGF106991061021008001001001KA1240N+02181MA1999999098501MD1999999+0061REMSYN076AAXX  08124 82986 32597 61404 10254 20215 39850 40136 86200 333 20218 58006;
0137829860999992007050818004-09400-038217FM-12+0253SBUF V0200901N005112200019N0200001N1+03101+01621100961ADDGF103991021011008001001011MA1999999098131MD1999999+0101REMSYN070AAXX  08184 82986 32598 30910 10310 20162 39813 40096 82101 333 58010;
0178829860999992007050900004-09400-038217FM-12+0253SBUF V0200901N003112200019N0020001N1+02541+02061101221ADDGA1001+999999999GF100991001001999999001001KA1240M+03151MA1999999098371MD1999999+0041REMSYN082AAXX  09004 82986 32995 00906 10254 20206 39837 40122 333 10315 29068 55104 58004;
0156829860999992007050912004-09400-038217FM-12+0253SBUF V0201401N003111050019N0100001N1+02661+02001101401ADDGF105991031011008001001051KA1240N+02201MA1999999098551MD1999999+0051REMSYN076AAXX  09124 82986 32597 51406 10266 20200 39855 40140 83105 333 20220 58005;
0137829860999992007050918004-09400-038217FM-12+0253SBUF V0200901N006210450019N0200001N1+03101+01661100981ADDGF106991021041008001051001MA1999999098151MD1999999+0021REMSYN070AAXX  09184 82986 32598 60912 10310 20166 39815 40098 82450 333 58002;
0168829860999992007051000004-09400-038217FM-12+0253SBUF V0201801N001512200019N0020001N1+02541+02171101351ADDGF104991041051008001001001KA1240M+03171MA1999999098571MD1999999+0131REMSYN088AAXX  10004 82986 32595 41803 10254 20217 39857 40135 84500 333 10317 29067 55093 58013;
0156829860999992007051012004-09400-038217FM-12+0253SBUF V0200901N004110042019N0100001N1+02501+02171101491ADDGF108991081071004501999999KA1240N+02181MA1999999098631MD1999999+0081REMSYN076AAXX  10124 82986 32497 80908 10250 20217 39863 40149 887// 333 20218 58008;
0137829860999992007051018004-09400-038217FM-12+0253SBUF V0201401N004612200019N0200001N1+03131+01601101091ADDGF106991031021008001001061MA1999999098261MD1999999+0111REMSYN070AAXX  10184 82986 32598 61409 10313 20160 39826 40109 83206 333 58011;
0178829860999992007051100004-09400-038217FM-12+0253SBUF V0200901N001512200019N0020001N1+02451+02071101571ADDGA1001+999999999GF100991001001999999001001KA1240M+03131MA1999999098711MD1999999+0211REMSYN082AAXX  11004 82986 32995 00903 10245 20207 39871 40157 333 10313 29070 55018 58021;
0156829860999992007051112004-09400-038217FM-12+0253SBUF V0201801N006210042019N0100001N1+02501+02071101761ADDGF107991071071004501999999KA1240N+02181MA1999999098891MD1999999+0261REMSYN076AAXX  11124 82986 32497 71812 10250 20207 39889 40176 877// 333 20218 58026;
0182829860999992007051118004-09400-038217FM-12+0253SBUF V0201801N005110450019N0100001N1+02571+02271101421ADDAA106000591AY161061AY221061GF106991031071004501071001MA1999999098551MD1999999-0071MW1031REMSYN082AAXX  11184 82986 21497 61810 10257 20227 39855 40142 70362 83770 333 59007 69941;
0213829860999992007051200004-09400-038217FM-12+0253SBUF V0201801N002110090019N0020001N1+02271+02241101811ADDAA106000021AY151061AY221061GF108991081081004501999999KA1240M+02811MA1999999098931MD1999999+0221MW1201REMSYN100AAXX  12004 82986 21495 81804 10227 20224 39893 40181 72052 888// 333 10281 29090 55032 58022 69911;
0201829860999992007051212004-09400-038217FM-12+0253SBUF V0201801N003110090019N0040001N1+02321+02151101901ADDAA124002091AY161061AY251061GF108991081081004501999999KA1240N+02141MA1999999099001MD1999999+0011MW1031REMSYN088AAXX  12124 82986 21496 81806 10232 20215 39900 40190 70365 888// 333 20214 58001 60024;
0201829860999992007051218004-09400-038217FM-12+0253SBUF V0201801N001510042019N0040001N1+02501+02241101471ADDAA106000091AY151061AY221061GF108991081061004501999999MA1999999098591MD1999999+0041MW1021REMSYN082AAXX  12184 82986 21496 81803 10250 20224 39859 40147 70252 886// 333 58004 69921;EQDQ01  00002PRCP06
0213829860999992007051300004-09400-038217FM-12+0253SBUF V0201801N001010120019N0020001N1+02261+02261101791ADDAA106002091AY161061AY251061GF106991061081008001001001KA1240M+02671MA1999999098901MD1999999-0031MW1021REMSYN100AAXX  13004 82986 21595 61802 10226 20226 39890 40179 70265 86800 333 10267 29096 55002 59003 60021;
