0168833980999992007010100004-15667-038950FM-12+000599999V0209999C000010450019N0010001N1+02381+02221101681ADDGF106991041051008001021001KA1240M+02941MA1999999101621MD1999999-0041REMSYN088AAXX  01004 83398 32594 60000 10238 20222 30162 40168 84520 333 10294 29084 55065 59004;
0201833980999992007010112004-15667-038950FM-12+000599999V0203601N002110450019N0040001N1+02561+02361101731ADDAA124013091AY161061AY221061GF106991041051008001021001KA1240N+02161MA1999999101671MD1999999+0011MW1021REMSYN088AAXX  01124 83398 21596 63604 10256 20236 30167 40173 70262 84520 333 20216 58001 60134;
0137833980999992007010118004-15667-038950FM-12+000599999V0200901N004110450019N0040001N1+02781+02211101471ADDGF106991031051008001041001MA1999999101421MD1999999-0081REMSYN070AAXX  01184 83398 32596 60908 10278 20221 30142 40147 83540 333 59008;
0168833980999992007010200004-15667-038950FM-12+000599999V0200901N002110450019N0010001N1+02621+02351101701ADDGF106991041051008001021001KA1240M+02951MA1999999101641MD1999999+0021REMSYN088AAXX  02004 83398 32594 60904 10262 20235 30164 40170 84520 333 10295 29083 55088 58002;
0201833980999992007010212004-15667-038950FM-12+000599999V0200501N002110075019N0040001N1+02541+02381101781ADDAA124022191AY161061AY221061GF108991051071008001021999KA1240N+02301MA1999999101721MD1999999+0051MW1511REMSYN088AAXX  02124 83398 21596 80504 10254 20238 30172 40178 75162 8572/ 333 20230 58005 60224;
0182833980999992007010218004-15667-038950FM-12+000599999V0200501N003110450019N0040001N1+02821+02361101581ADDAA106001091AY161061AY221061GF106991041051008001021001MA1999999101531MD1999999+0111MW1021REMSYN082AAXX  02184 83398 21596 60506 10282 20236 30153 40158 70262 84520 333 58011 60011;
0168833980999992007010300004-15667-038950FM-12+000599999V0200501N002110450019N0010001N1+02681+02261101731ADDGF106991041051008001021001KA1240M+02961MA1999999101671MD1999999+0031REMSYN088AAXX  03004 83398 32594 60504 10268 20226 30167 40173 84520 333 10296 29081 55054 58003;
0201833980999992007010312004-15667-038950FM-12+000599999V0209999C000010075019N0040001N1+02401+02311101761ADDAA124008991AY161061AY221061GF108991051071008001021999KA1240N+02281MA1999999101701MD1999999-0021MW1531REMSYN088AAXX  03124 83398 21596 80000 10240 20231 30170 40176 75362 8572/ 333 20228 59002 60094;
0182833980999992007010318004-15667-038950FM-12+000599999V0200901N002110075019N0040001N1+02761+02231101531ADDAA106005191AY161061AY221061GF108991051051008001021999MA1999999101481MD1999999-0051MW1021REMSYN082AAXX  03184 83398 21596 80904 10276 20223 30148 40153 70262 8552/ 333 59005 60051;
0213833980999992007010400004-15667-038950FM-12+000599999V0209999C000010075019N0010001N1+02481+02251101581ADDAA106003091AY161061AY221061GF108991051051008001021999KA1240M+02881MA1999999101531MD1999999-0141MW1021REMSYN100AAXX  04004 83398 21594 80000 10248 20225 30153 40158 70262 8552/ 333 10288 29086 55000 59014 60031;
0173833980999992007010412004-15667-038950FM-12+000599999V0200501N002110450019N0040001N1+02821+02361101591ADDAA124007991GF106991031051008001021011KA1240N+02201MA1999999101541MD1999999-0161REMSYN082AAXX  04124 83398 22596 60504 10282 20236 30154 40159 83521 333 20220 59016 60084;
0137833980999992007010418004-15667-038950FM-12+000599999V0200501N003110450019N0040001N1+02841+02331101371ADDGF106991041051008001021001MA1999999101321MD1999999-0161REMSYN070AAXX  04184 83398 32596 60506 10284 20233 30132 40137 84520 333 59016;
0213833980999992007010500004-15667-038950FM-12+000599999V0203601N003110075019N0010001N1+02481+02411101511ADDAA106001091AY161061AY221061GF108991051071008001021999KA1240M+02941MA1999999101461MD1999999-0071MW1511REMSYN100AAXX  05004 83398 21594 83606 10248 20241 30146 40151 75162 8572/ 333 10294 29086 55078 59007 60011;
0201833980999992007010512004-15667-038950FM-12+000599999V0200501N003110450019N0040001N1+02821+02361101531ADDAA124006191AY161061AY221061GF108991041051008001021999KA1240N+02301MA1999999101481MD1999999-0061MW1021REMSYN088AAXX  05124 83398 21596 80506 10282 20236 30148 40153 70262 8452/ 333 20230 59006 60064;
0137833980999992007010518004-15667-038950FM-12+000599999V0203601N004110450019N0040001N1+02741+02381101331ADDGF108991041051008001021999MA1999999101281MD1999999-0041REMSYN070AAXX  05184 83398 32596 83608 10274 20238 30128 40133 8452/ 333 59004;
0168833980999992007010600004-15667-038950FM-12+000599999V0209999C000010450019N0010001N1+02441+02391101391ADDGF106991041051008001021001KA1240M+02881MA1999999101341MD1999999-0121REMSYN088AAXX  06004 83398 32594 60000 10244 20239 30134 40139 84520 333 10288 29088 55009 59012;
0156833980999992007010612004-15667-038950FM-12+000599999V0200501N003110075019N0040001N1+02761+02421101471ADDGF108991051051008001021999KA1240N+02181MA1999999101421MD1999999-0061REMSYN076AAXX  06124 83398 32596 80506 10276 20242 30142 40147 8552/ 333 20218 59006;
0137833980999992007010618004-15667-038950FM-12+000599999V0200501N003110075019N0040001N1+02741+02301101301ADDGF108991051051008001021999MA1999999101251MD1999999-0031REMSYN070AAXX  06184 83398 32596 80506 10274 20230 30125 40130 8552/ 333 59003;
0156833980999992007010712004-15667-038950FM-12+000599999V0200501N002110075019N0040001N1+02741+02281101641ADDGF108991051051008001021999KA1240N+02221MA1999999101581MD1999999+0161REMSYN076AAXX  07124 83398 32596 80504 10274 20228 30158 40164 8552/ 333 20222 58016;
0137833980999992007010718004-15667-038950FM-12+000599999V0209999C000010075019N0040001N1+02781+02271101431ADDGF108991051051008001021999MA1999999101381MD1999999+0131REMSYN070AAXX  07184 83398 32596 80000 10278 20227 30138 40143 8552/ 333 58013;
0201833980999992007010812004-15667-038950FM-12+000599999V0203601N002110450019N0040001N1+02761+02361101481ADDAA124002091AY161061AY221061GF106991041051008001021001KA1240N+02141MA1999999101431MD1999999-0151MW1021REMSYN088AAXX  08124 83398 21596 63604 10276 20236 30143 40148 70262 84520 333 20214 59015 60024;
0137833980999992007010818004-15667-038950FM-12+000599999V0200501N004110450019N0040001N1+02881+02301101311ADDGF105991031051008001041001MA1999999101261MD1999999-0121REMSYN070AAXX  08184 83398 32596 50508 10288 20230 30126 40131 83540 333 59012;
0168833980999992007010900004-15667-038950FM-12+000599999V0202301N002110450019N0010001N1+02661+02221101441ADDGF106991031051008001041001KA1240M+02991MA1999999101391MD1999999-0121REMSYN088AAXX  09004 83398 32594 62304 10266 20222 30139 40144 83540 333 10299 29076 55101 59012;
0156833980999992007010912004-15667-038950FM-12+000599999V0203601N002110450019N0040001N1+02861+02311101471ADDGF106991031051008001041001KA1240N+02201MA1999999101421MD1999999-0011REMSYN076AAXX  09124 83398 32596 63604 10286 20231 30142 40147 83540 333 20220 59001;
0137833980999992007010918004-15667-038950FM-12+000599999V0200501N003110450019N0040001N1+02881+02211101201ADDGF106991031021008001041011MA1999999101151MD1999999-0111REMSYN070AAXX  09184 83398 32596 60506 10288 20221 30115 40120 83241 333 59011;
0168833980999992007011000004-15667-038950FM-12+000599999V0202301N001010450019N0010001N1+02641+02251101311ADDGF105991031021008001041001KA1240M+03001MA1999999101261MD1999999-0131REMSYN088AAXX  10004 83398 32594 52302 10264 20225 30126 40131 83240 333 10300 29074 55107 59013;
0156833980999992007011012004-15667-038950FM-12+000599999V0203601N002110450019N0040001N1+02841+02351101361ADDGF106991041051008001021001KA1240N+02341MA1999999101311MD1999999-0111REMSYN076AAXX  10124 83398 32596 63604 10284 20235 30131 40136 84520 333 20234 59011;
0137833980999992007011018004-15667-038950FM-12+000599999V0203601N003110450019N0040001N1+02861+02371101131ADDGF106991031051008001021011MA1999999101081MD1999999-0071REMSYN070AAXX  10184 83398 32596 63606 10286 20237 30108 40113 83521 333 59007;
0168833980999992007011100004-15667-038950FM-12+000599999V0200501N002110450019N0010001N1+02641+02351101281ADDGF105991031051008001021001KA1240M+03021MA1999999101231MD1999999-0021REMSYN088AAXX  11004 83398 32594 50504 10264 20235 30123 40128 83520 333 10302 29080 55083 59002;
0156833980999992007011112004-15667-038950FM-12+000599999V0203601N003110450019N0040001N1+02841+02381101361ADDGF106991041051008001021001KA1240N+02361MA1999999101311MD1999999+0001REMSYN076AAXX  11124 83398 32596 63606 10284 20238 30131 40136 84520 333 20236 58000;
0137833980999992007011118004-15667-038950FM-12+000599999V0200501N003110075019N0040001N1+02821+02401101101ADDGF108991051051008001021999MA1999999101051MD1999999-0031REMSYN070AAXX  11184 83398 32596 80506 10282 20240 30105 40110 8552/ 333 59003;
0168833980999992007011200004-15667-038950FM-12+000599999V0203601N002110450019N0010001N1+02641+02441101251ADDGF106991041051008001021001KA1240M+03021MA1999999101201MD1999999-0031REMSYN088AAXX  12004 83398 32594 63604 10264 20244 30120 40125 84520 333 10302 29083 55041 59003;
0156833980999992007011212004-15667-038950FM-12+000599999V0200501N003110450019N0040001N1+02981+02371101211ADDGF106991031051008001041011KA1240N+02441MA1999999101161MD1999999-0151REMSYN076AAXX  12124 83398 32596 60506 10298 20237 30116 40121 83541 333 20244 59015;
0137833980999992007011218004-15667-038950FM-12+000599999V0203601N005110450019N0040001N1+02941+02361100901ADDGF106991031021008001041011MA1999999100851MD1999999-0201REMSYN070AAXX  12184 83398 32596 63610 10294 20236 30085 40090 83241 333 59020;
0168833980999992007011300004-15667-038950FM-12+000599999V0200501N002112200019N0010001N1+02681+02521100971ADDGF104991041011008001001001KA1240M+03101MA1999999100921MD1999999-0281REMSYN088AAXX  13004 83398 32594 40504 10268 20252 30092 40097 84100 333 10310 29085 55097 59028;
0156833980999992007011312004-15667-038950FM-12+000599999V0203601N005110450019N0040001N1+03041+02611101041ADDGF106991041051008001021001KA1240N+02581MA1999999100991MD1999999-0171REMSYN076AAXX  13124 83398 32596 63610 10304 20261 30099 40104 84520 333 20258 59017;
0137833980999992007011318004-15667-038950FM-12+000599999V0203601N005110450019N0040001N1+02881+02441100761ADDGF107991041051008001021001MA1999999100711MD1999999-0141REMSYN070AAXX  13184 83398 32596 73610 10288 20244 30071 40076 84520 333 59014;
0156833980999992007011412004-15667-038950FM-12+000599999V0203601N005110450019N0040001N1+02981+02471101181ADDGF106991041051008001021001KA1240N+02561MA1999999101131MD1999999+0141REMSYN076AAXX  14124 83398 32596 63610 10298 20247 30113 40118 84520 333 20256 58014;
0137833980999992007011418004-15667-038950FM-12+000599999V0203601N004111050019N0040001N1+02941+02491100881ADDGF105991021051008001041011MA1999999100831MD1999999+0121REMSYN070AAXX  14184 83398 32596 53608 10294 20249 30083 40088 82541 333 58012;
0168833980999992007011500004-15667-038950FM-12+000599999V0203601N002110450019N0010001N1+02641+02501101201ADDGF106991041051008001021001KA1240M+03161MA1999999101151MD1999999+0251REMSYN088AAXX  15004 83398 32594 63604 10264 20250 30115 40120 84520 333 10316 29084 55110 58025;
0156833980999992007011512004-15667-038950FM-12+000599999V0203201N003110075019N0040001N1+02881+02441101381ADDGF107991051051008001021001KA1240N+02361MA1999999101331MD1999999+0201REMSYN076AAXX  15124 83398 32596 73206 10288 20244 30133 40138 85520 333 20236 58020;
0113833980999992007011518004-15667-038950FM-12+000599999V0203601N004110450019N0040001N1+02961+02401101171ADDGF106991041051008001021001MA1999999101121REMSYN060AAXX  15184 83398 32596 63608 10296 20240 30112 40117 84520;
0168833980999992007011600004-15667-038950FM-12+000599999V0200501N002110450019N0010001N1+02581+02401101201ADDGF106991041051008001021001KA1240M+03081MA1999999101151MD1999999+0001REMSYN088AAXX  16004 83398 32594 60504 10258 20240 30115 40120 84520 333 10308 29082 55090 58000;
0156833980999992007011612004-15667-038950FM-12+000599999V0203201N002110450019N0040001N1+02921+02471101421ADDGF106991041051008001021001KA1240N+02181MA1999999101371MD1999999+0041REMSYN076AAXX  16124 83398 32596 63204 10292 20247 30137 40142 84520 333 20218 58004;
0137833980999992007011618004-15667-038950FM-12+000599999V0200501N003110450019N0040001N1+02921+02431101251ADDGF107991031021008001041011MA1999999101201MD1999999+0081REMSYN070AAXX  16184 83398 32596 70506 10292 20243 30120 40125 83241 333 58008;
0168833980999992007011700004-15667-038950FM-12+000599999V0209999C000012200019N0010001N1+02681+02481101421ADDGF104991021011008001041001KA1240M+03141MA1999999101371MD1999999+0221REMSYN088AAXX  17004 83398 32594 40000 10268 20248 30137 40142 82140 333 10314 29083 55100 58022;
0156833980999992007011712004-15667-038950FM-12+000599999V0200901N003110450019N0040001N1+02941+02471101631ADDGF105991031021008001041001KA1240N+02301MA1999999101571MD1999999+0201REMSYN076AAXX  17124 83398 32596 50906 10294 20247 30157 40163 83240 333 20230 58020;
0137833980999992007011718004-15667-038950FM-12+000599999V0200501N003110075019N0040001N1+02961+02491101381ADDGF105991051021008001001001MA1999999101331MD1999999+0131REMSYN070AAXX  17184 83398 32596 50506 10296 20249 30133 40138 85200 333 58013;
0168833980999992007011800004-15667-038950FM-12+000599999V0200501N003110450019N0010001N1+02701+02451101531ADDGF105991021051008001041001KA1240M+03101MA1999999101481MD1999999+0111REMSYN088AAXX  18004 83398 32594 50506 10270 20245 30148 40153 82540 333 10310 29082 55110 58011;
0156833980999992007011812004-15667-038950FM-12+000599999V0200501N002110450019N0040001N1+02941+02311101661ADDGF105991031051008001041001KA1240N+02341MA1999999101601MD1999999+0031REMSYN076AAXX  18124 83398 32596 50504 10294 20231 30160 40166 83540 333 20234 58003;
0137833980999992007011818004-15667-038950FM-12+000599999V0200501N004112200019N0040001N1+03021+02261101351ADDGF104991041021008001001001MA1999999101301MD1999999-0031REMSYN070AAXX  18184 83398 32596 40508 10302 20226 30130 40135 84200 333 59003;
0168833980999992007011900004-15667-038950FM-12+000599999V0200501N002112200019N0010001N1+02641+02331101441ADDGF103991031011008001001001KA1240M+03111MA1999999101391MD1999999-0091REMSYN088AAXX  19004 83398 32594 30504 10264 20233 30139 40144 83100 333 10311 29075 55111 59009;
0156833980999992007011912004-15667-038950FM-12+000599999V0203601N003110450019N0040001N1+02901+02221101541ADDGF106991031021008001041011KA1240N+02181MA1999999101491MD1999999-0111REMSYN076AAXX  19124 83398 32596 63606 10290 20222 30149 40154 83241 333 20218 59011;
0137833980999992007011918004-15667-038950FM-12+000599999V0203601N003110450019N0040001N1+03001+02271101331ADDGF105991031021008001041001MA1999999101281MD1999999-0021REMSYN070AAXX  19184 83398 32596 53606 10300 20227 30128 40133 83240 333 59002;
0168833980999992007012000004-15667-038950FM-12+000599999V0202301N001012200019N0010001N1+02621+02211101591ADDGF104991021021008001041001KA1240M+03101MA1999999101541MD1999999+0151REMSYN088AAXX  20004 83398 32594 42302 10262 20221 30154 40159 82240 333 10310 29078 55116 58015;
0156833980999992007012012004-15667-038950FM-12+000599999V0203601N003110450019N0040001N1+02941+02331101631ADDGF106991041051008001021001KA1240N+02181MA1999999101571MD1999999+0081REMSYN076AAXX  20124 83398 32596 63606 10294 20233 30157 40163 84520 333 20218 58008;
0137833980999992007012018004-15667-038950FM-12+000599999V0203601N004112200019N0040001N1+03021+02441101431ADDGF104991041021008001001001MA1999999101381MD1999999+0101REMSYN070AAXX  20184 83398 32596 43608 10302 20244 30138 40143 84200 333 58010;
0168833980999992007012100004-15667-038950FM-12+000599999V0209999C000012200019N0010001N1+02681+02461101591ADDGF104991041011008001001001KA1240M+03141MA1999999101541MD1999999+0001REMSYN088AAXX  21004 83398 32594 40000 10268 20246 30154 40159 84100 333 10314 29079 55107 58000;
0156833980999992007012112004-15667-038950FM-12+000599999V0203601N003110075019N0040001N1+02981+02401101611ADDGF105991051051008001001001KA1240N+02341MA1999999101551MD1999999-0021REMSYN076AAXX  21124 83398 32596 53606 10298 20240 30155 40161 85500 333 20234 59002;
0137833980999992007012118004-15667-038950FM-12+000599999V0203601N005110450019N0040001N1+03001+02461101301ADDGF105991031021008001011001MA1999999101251MD1999999-0131REMSYN070AAXX  21184 83398 32596 53610 10300 20246 30125 40130 83210 333 59013;
0156833980999992007012212004-15667-038950FM-12+000599999V0203601N003110450019N0040001N1+03081+02491101331ADDGF106991041051008001021001KA1240N+02401MA1999999101281MD1999999-0271REMSYN076AAXX  22124 83398 32596 63606 10308 20249 30128 40133 84520 333 20240 59027;
0137833980999992007012218004-15667-038950FM-12+000599999V0200501N003110450019N0040001N1+03021+02461101091ADDGF105991031021008001041001MA1999999101041MD1999999-0211REMSYN070AAXX  22184 83398 32596 50506 10302 20246 30104 40109 83240 333 59021;
0168833980999992007012300004-15667-038950FM-12+000599999V0202301N002110450019N0010001N1+02641+02441101231ADDGF105991031021008001041001KA1240M+03121MA1999999101581MD1999999-0101REMSYN088AAXX  23004 83398 32594 52304 10264 20244 30158 40123 83240 333 10312 29080 55117 59010;
0156833980999992007012312004-15667-038950FM-12+000599999V0203201N002110450019N0040001N1+03001+02441101291ADDGF106991041051008001021001KA1240N+02301MA1999999101241MD1999999-0041REMSYN076AAXX  23124 83398 32596 63204 10300 20244 30124 40129 84520 333 20230 59004;
0137833980999992007012318004-15667-038950FM-12+000599999V0203601N005110450019N0040001N1+02981+02371101061ADDGF106991021021008001041011MA1999999101011MD1999999-0031REMSYN070AAXX  23184 83398 32596 63610 10298 20237 30101 40106 82241 333 59003;
0168833980999992007012400004-15667-038950FM-12+000599999V0209999C000010450019N0010001N1+02721+02451101401ADDGF105991031051008001021001KA1240M+03241MA1999999101351MD1999999+0171REMSYN088AAXX  24004 83398 32594 50000 10272 20245 30135 40140 83520 333 10324 29078 55106 58017;
0156833980999992007012412004-15667-038950FM-12+000599999V0203201N002110450019N0040001N1+02921+02361101491ADDGF106991041051008001021001KA1240N+02481MA1999999101441MD1999999+0201REMSYN076AAXX  24124 83398 32596 63204 10292 20236 30144 40149 84520 333 20248 58020;
0137833980999992007012418004-15667-038950FM-12+000599999V0203601N004110450019N0040001N1+02961+02471101261ADDGF106991031021008001041011MA1999999101211MD1999999+0201REMSYN070AAXX  24184 83398 32596 63608 10296 20247 30121 40126 83241 333 58020;
0168833980999992007012500004-15667-038950FM-12+000599999V0209999C000012200019N0010001N1+02701+02411101461ADDGF104991031021008001041001KA1240M+03121MA1999999101411MD1999999-0061REMSYN088AAXX  25004 83398 32594 40000 10270 20241 30141 40146 83240 333 10312 29079 55100 59006;
0201833980999992007012512004-15667-038950FM-12+000599999V0203201N002110450019N0040001N1+02861+02371101531ADDAA124002091AY161061AY221061GF106991041051008001021001KA1240N+02401MA1999999101481MD1999999+0041MW1021REMSYN088AAXX  25124 83398 21596 63204 10286 20237 30148 40153 70262 84520 333 20240 58004 60024;
0137833980999992007012518004-15667-038950FM-12+000599999V0203601N003110450019N0040001N1+02961+02491101311ADDGF106991031051008001021011MA1999999101261MD1999999+0051REMSYN070AAXX  25184 83398 32596 63606 10296 20249 30126 40131 83521 333 58005;
0168833980999992007012600004-15667-038950FM-12+000599999V0200501N003112200019N0010001N1+02701+02301101481ADDGF103991031011008001001001KA1240M+03131MA1999999101431MD1999999+0021REMSYN088AAXX  26004 83398 32594 30506 10270 20230 30143 40148 83100 333 10313 29077 55086 58002;
0156833980999992007012612004-15667-038950FM-12+000599999V0200501N004110450019N0040001N1+02961+02261101521ADDGF106991031051008001021011KA1240N+02201MA1999999101471MD1999999-0011REMSYN076AAXX  26124 83398 32596 60508 10296 20226 30147 40152 83521 333 20220 59001;
0137833980999992007012618004-15667-038950FM-12+000599999V0200501N004110450019N0040001N1+03061+02431101301ADDGF106991021021008001041011MA1999999101251MD1999999-0011REMSYN070AAXX  26184 83398 32596 60508 10306 20243 30125 40130 82241 333 59001;
0168833980999992007012700004-15667-038950FM-12+000599999V0200501N003112200019N0010001N1+02661+02351101391ADDGF102991021011008001001001KA1240M+03141MA1999999101341MD1999999-0091REMSYN088AAXX  27004 83398 32594 20506 10266 20235 30134 40139 82100 333 10314 29075 55111 59009;
0156833980999992007012712004-15667-038950FM-12+000599999V0203601N002110450019N0040001N1+02961+02451101441ADDGF105991031051008001041001KA1240N+02181MA1999999101391MD1999999-0061REMSYN076AAXX  27124 83398 32596 53604 10296 20245 30139 40144 83540 333 20218 59006;
0137833980999992007012718004-15667-038950FM-12+000599999V0203601N004110450019N0040001N1+03021+02461101211ADDGF106991031021008001041011MA1999999101161MD1999999-0091REMSYN070AAXX  27184 83398 32596 63608 10302 20246 30116 40121 83241 333 59009;
0156833980999992007012812004-15667-038950FM-12+000599999V0203601N005110450019N0040001N1+02961+02311101671ADDGF106991031051008001041011KA1240N+02421MA1999999101611MD1999999+0221REMSYN076AAXX  28124 83398 32596 63610 10296 20231 30161 40167 83541 333 20242 58022;
0137833980999992007012818004-15667-038950FM-12+000599999V0203601N004110450019N0040001N1+02941+02311101331ADDGF106991041051008001021001MA1999999101281MD1999999+0121REMSYN070AAXX  28184 83398 32596 63608 10294 20231 30128 40133 84520 333 58012;
0168833980999992007012900004-15667-038950FM-12+000599999V0203601N002110450019N0010001N1+02681+02461101421ADDGF106991041051008001021001KA1240M+03141MA1999999101371MD1999999+0071REMSYN088AAXX  29004 83398 32594 63604 10268 20246 30137 40142 84520 333 10314 29078 55067 58007;
0156833980999992007012912004-15667-038950FM-12+000599999V0203601N003110450019N0040001N1+02921+02431101621ADDGF106991041051008001021001KA1240N+02401MA1999999101561MD1999999-0051REMSYN076AAXX  29124 83398 32596 63606 10292 20243 30156 40162 84520 333 20240 59005;
0137833980999992007012918004-15667-038950FM-12+000599999V0203601N004110450019N0040001N1+03001+02291101321ADDGF105991031021008001041001MA1999999101271MD1999999-0011REMSYN070AAXX  29184 83398 32596 53608 10300 20229 30127 40132 83240 333 59001;
0168833980999992007013000004-15667-038950FM-12+000599999V0200501N002110075019N0010001N1+02681+02431101471ADDGF106991061001008001021001KA1240M+03181MA1999999101421MD1999999+0051REMSYN088AAXX  30004 83398 32594 60504 10268 20243 30142 40147 86020 333 10318 29078 55114 58005;
0156833980999992007013012004-15667-038950FM-12+000599999V0203601N004110450019N0040001N1+03001+02441101561ADDGF106991031051008001041001KA1240N+02301MA1999999101511MD1999999-0051REMSYN076AAXX  30124 83398 32596 63608 10300 20244 30151 40156 83540 333 20230 59005;
0137833980999992007013018004-15667-038950FM-12+000599999V0203601N005110450019N0040001N1+03021+02311101231ADDGF106991031021008001041001MA1999999101181MD1999999-0091REMSYN070AAXX  30184 83398 32596 63610 10302 20231 30118 40123 83240 333 59009;
0168833980999992007013100004-15667-038950FM-12+000599999V0200501N002110450019N0010001N1+02661+02431101361ADDGF105991031051008001041001KA1240M+03181MA1999999101311MD1999999-0111REMSYN088AAXX  31004 83398 32594 50504 10266 20243 30131 40136 83540 333 10318 29078 55101 59011;
0156833980999992007013112004-15667-038950FM-12+000599999V0203201N002110450019N0040001N1+03021+02461101391ADDGF105991041051008001021001KA1240N+02341MA1999999101341MD1999999-0171REMSYN076AAXX  31124 83398 32596 53204 10302 20246 30134 40139 84520 333 20234 59017;
0137833980999992007013118004-15667-038950FM-12+000599999V0203601N005110450019N0040001N1+03001+02391101121ADDGF106991031051008001041001MA1999999101071MD1999999-0111REMSYN070AAXX  31184 83398 32596 63610 10300 20239 30107 40112 83540 333 59011;
0168833980999992007020100004-15667-038950FM-12+000599999V0209999C000010450019N0010001N1+02681+02431101301ADDGF106991041051008001021001KA1240M+03121MA1999999101251MD1999999-0061REMSYN088AAXX  01004 83398 32594 60000 10268 20243 30125 40130 84520 333 10312 29079 55093 59006;
0156833980999992007020112004-15667-038950FM-12+000599999V0203601N002110450019N0040001N1+02821+02521101481ADDGF106991031051008001021001KA1240N+02221MA1999999101431MD1999999-0091REMSYN076AAXX  01124 83398 32596 63604 10282 20252 30143 40148 83520 333 20222 59009;
0137833980999992007020118004-15667-038950FM-12+000599999V0200501N004110450019N0040001N1+03001+02391101201ADDGF106991031051008001041011MA1999999101151MD1999999+0081REMSYN070AAXX  01184 83398 32596 60508 10300 20239 30115 40120 83541 333 58008;
0168833980999992007020200004-15667-038950FM-12+000599999V0209999C000010450019N0010001N1+02741+02541101351ADDGF106991041051008001021001KA1240M+03181MA1999999101301MD1999999+0051REMSYN088AAXX  02004 83398 32594 60000 10274 20254 30130 40135 84520 333 10318 29083 55081 58005;
0156833980999992007020212004-15667-038950FM-12+000599999V0203601N003110450019N0040001N1+03001+02391101491ADDGF105991031021008001041001KA1240N+02501MA1999999101441MD1999999+0011REMSYN076AAXX  02124 83398 32596 53606 10300 20239 30144 40149 83240 333 20250 58001;
0137833980999992007020218004-15667-038950FM-12+000599999V0203601N004110450019N0040001N1+03021+02361101121ADDGF105991021021008001041001MA1999999101071MD1999999-0151REMSYN070AAXX  02184 83398 32596 53608 10302 20236 30107 40112 82240 333 59015;
0168833980999992007020300004-15667-038950FM-12+000599999V0203601N002110450019N0010001N1+02721+02561101191ADDGF106991041051008001021001KA1240M+03161MA1999999101141MD1999999-0161REMSYN088AAXX  03004 83398 32594 63604 10272 20256 30114 40119 84520 333 10316 29080 55113 59016;
0201833980999992007020312004-15667-038950FM-12+000599999V0209999C000010075019N0040001N1+02721+02581101351ADDAA124003091AY191061AY261061GF108991051051008001021999KA1240N+02481MA1999999101301MD1999999-0141MW1021REMSYN088AAXX  03124 83398 21596 80000 10272 20258 30130 40135 70296 8552/ 333 20248 59014 60034;
0137833980999992007020318004-15667-038950FM-12+000599999V0203601N005110075019N0040001N1+02841+02501101061ADDGF108991051051008001021999MA1999999101011MD1999999-0061REMSYN070AAXX  03184 83398 32596 83610 10284 20250 30101 40106 8552/ 333 59006;
0213833980999992007020400004-15667-038950FM-12+000599999V0209999C000010450019N0010001N1+02581+02481101331ADDAA106002091AY161061AY221061GF108991041051008001021999KA1240M+03181MA1999999101281MD1999999+0141MW1021REMSYN100AAXX  04004 83398 21594 80000 10258 20248 30128 40133 70262 8452/ 333 10318 29091 55013 58014 60021;
0220833980999992007020412004-15667-038950FM-12+000599999V0200501N002110075019N0040001N1+02401+02311101441ADDAA124004191AY191061AY261061GF108991051051008001021999KA1240N+99999MA1999999101391MD1999999+0091MW1021REMSYN088AAXX  04124 83398 21596 80504 10240 20231 30139 40144 70296 8552/ 333 20246 58009 60044;EQDQ01 +02462ATMN  
0137833980999992007020418004-15667-038950FM-12+000599999V0203601N005110075019N0040001N1+02821+02441101161ADDGF108991051051008001021999MA1999999101111MD1999999+0101REMSYN070AAXX  04184 83398 32596 83610 10282 20244 30111 40116 8552/ 333 58010;
0213833980999992007020500004-15667-038950FM-12+000599999V0209999C000010075019N0010001N1+02601+02461101441ADDAA106002091AY191061AY261061GF108991051051008001021999KA1240M+03061MA1999999101391MD1999999+0111MW1021REMSYN100AAXX  05004 83398 21594 80000 10260 20246 30139 40144 70296 8552/ 333 10306 29090 55003 58011 60021;
0201833980999992007020512004-15667-038950FM-12+000599999V0209999C000010075019N0040001N1+02551+02451101551ADDAA124005191AY161061AY221061GF108991051051008001021999KA1240N+02431MA1999999101501MD1999999+0111MW1021REMSYN088AAXX  05124 83398 21596 80000 10255 20245 30150 40155 70262 8552/ 333 20243 58011 60054;
0137833980999992007020518004-15667-038950FM-12+000599999V0203601N004110450019N0040001N1+02981+02401101341ADDGF106991041051008001041001MA1999999101291MD1999999+0181REMSYN070AAXX  05184 83398 32596 63608 10298 20240 30129 40134 84540 333 58018;
0168833980999992007020600004-15667-038950FM-12+000599999V0200501N002112200019N0010001N1+02691+02401101461ADDGF104991021011008001041001KA1240M+03081MA1999999101411MD1999999+0021REMSYN088AAXX  06004 83398 32594 40504 10269 20240 30141 40146 82140 333 10308 29083 55067 58002;
0156833980999992007020612004-15667-038950FM-12+000599999V0200501N001012200019N0040001N1+02931+02371101531ADDGF104991021011008001041001KA1240N+02291MA1999999101481MD1999999-0021REMSYN076AAXX  06124 83398 32596 40502 10293 20237 30148 40153 82140 333 20229 59002;
0182833980999992007020618004-15667-038950FM-12+000599999V0209999C000010075019N0040001N1+02701+02411101341ADDAA106001091AY161061AY221061GF108991051051008001021999MA1999999101291MD1999999+0001MW1021REMSYN082AAXX  06184 83398 21596 80000 10270 20241 30129 40134 70262 8552/ 333 58000 60011;
0168833980999992007020700004-15667-038950FM-12+000599999V0200501N001010450019N0010001N1+02671+02361101461ADDGF105991031021008001041001KA1240M+03101MA1999999101411MD1999999+0001REMSYN088AAXX  07004 83398 32594 50502 10267 20236 30141 40146 83240 333 10310 29080 55077 58000;
0201833980999992007020712004-15667-038950FM-12+000599999V0200901N002110450019N0040001N1+02841+02331101481ADDAA124003091AY161061AY221061GF106991041051008001021001KA1240N+02181MA1999999101431MD1999999-0051MW1021REMSYN088AAXX  07124 83398 21596 60904 10284 20233 30143 40148 70262 84520 333 20218 59005 60034;
0182833980999992007020718004-15667-038950FM-12+000599999V0200501N001010075019N0040001N1+03001+02051101351ADDAA106000391AY151061AY221061GF108991051051008001021999MA1999999101301MD1999999+0011MW1021REMSYN082AAXX  07184 83398 21596 80502 10300 20205 30130 40135 70252 8552/ 333 58001 69931;
0168833980999992007020800004-15667-038950FM-12+000599999V0200901N002110075019N0010001N1+02601+02121101511ADDGF108991051051008001021999KA1240M+03021MA1999999101461MD1999999+0051REMSYN088AAXX  08004 83398 32594 80904 10260 20212 30146 40151 8552/ 333 10302 29070 55067 58005;
0173833980999992007020812004-15667-038950FM-12+000599999V0200901N001010450019N0040001N1+02951+02341101621ADDAA124000391GF106991041021008001041001KA1240N+02181MA1999999101561MD1999999+0131REMSYN082AAXX  08124 83398 22596 60902 10295 20234 30156 40162 84240 333 20218 58013 69934;
0137833980999992007020818004-15667-038950FM-12+000599999V0200901N003110450019N0040001N1+03021+02291101431ADDGF106991031051008001041001MA1999999101381MD1999999+0081REMSYN070AAXX  08184 83398 32596 60906 10302 20229 30138 40143 83540 333 58008;
0168833980999992007020900004-15667-038950FM-12+000599999V0209999C000012200019N0010001N1+02691+02401101581ADDGF103991021021008001041001KA1240M+03101MA1999999101531MD1999999+0071REMSYN088AAXX  09004 83398 32594 30000 10269 20240 30153 40158 82240 333 10310 29076 55110 58007;
0201833980999992007020912004-15667-038950FM-12+000599999V0209999C000010450019N0040001N1+02661+02461101771ADDAA124023191AY161061AY221061GF107991041051008001021001KA1240N+02331MA1999999101711MD1999999+0151MW1021REMSYN088AAXX  09124 83398 21596 70000 10266 20246 30171 40177 70262 84520 333 20233 58015 60234;
0182833980999992007020918004-15667-038950FM-12+000599999V0209999C000010075019N0040001N1+02501+02401101671ADDAA106004191AY161061AY221061GF108991051051008001021999MA1999999101611MD1999999+0231MW1021REMSYN082AAXX  09184 83398 21596 80000 10250 20240 30161 40167 70262 8552/ 333 58023 60041;
0168833980999992007021000004-15667-038950FM-12+000599999V0209999C000012200019N0010001N1+02381+02331101781ADDGF103991021021008001041001KA1240M+02851MA1999999101721MD1999999+0191REMSYN088AAXX  10004 83398 32594 30000 10238 20233 30172 40178 82240 333 10285 29094 55030 58019;
0201833980999992007021012004-15667-038950FM-12+000599999V0200901N001010075019N0040001N1+02641+02411101811ADDAA124010991AY161061AY221061GF108991051051008001021999KA1240N+02281MA1999999101751MD1999999+0041MW1021REMSYN088AAXX  10124 83398 21596 80902 10264 20241 30175 40181 70262 8552/ 333 20228 58004 60114;
0137833980999992007021018004-15667-038950FM-12+000599999V0200501N004110450019N0040001N1+02801+02421101521ADDGF106991031021008001041001MA1999999101471MD1999999-0141REMSYN070AAXX  10184 83398 32596 60508 10280 20242 30147 40152 83240 333 59014;
0168833980999992007021100004-15667-038950FM-12+000599999V0209999C000012200019N0010001N1+02381+02311101621ADDGF103991011011008001041001KA1240M+03061MA1999999101561MD1999999-0161REMSYN088AAXX  11004 83398 32594 30000 10238 20231 30156 40162 81140 333 10306 29090 55093 59016;
0156833980999992007021112004-15667-038950FM-12+000599999V0203201N002110450019N0040001N1+02821+02401101481ADDGF106991041051008001021001KA1240N+02161MA1999999101431MD1999999-0321REMSYN076AAXX  11124 83398 32596 63204 10282 20240 30143 40148 84520 333 20216 59032;
0137833980999992007021118004-15667-038950FM-12+000599999V0203601N006210450019N0040001N1+02941+02331101061ADDGF105991021051008001041001MA1999999101011MD1999999-0461REMSYN070AAXX  11184 83398 32596 53612 10294 20233 30101 40106 82540 333 59046;
0168833980999992007021200004-15667-038950FM-12+000599999V0203601N002110450019N0010001N1+02681+02391101641ADDGF105991021051008001041001KA1240M+03041MA1999999101581MD1999999+0021REMSYN088AAXX  12004 83398 32594 53604 10268 20239 30158 40164 82540 333 10304 29079 55106 58002;
0156833980999992007021212004-15667-038950FM-12+000599999V0203601N004610450019N0040001N1+02981+02371101621ADDGF105991031011008001041001KA1240N+02431MA1999999101561MD1999999+0131REMSYN076AAXX  12124 83398 32596 53609 10298 20237 30156 40162 83140 333 20243 58013;
0172833980999992007021218004-15667-038950FM-12+000599999V0203601N011810075019N0040001N1+02841+02461100702ADDGF108991051051008001021999MA1999999100652MD1999999-0361REMSYN070AAXX  12184 83398 32596 83623 10284 20246 30065 40070 8552/ 333 59036;EQDQ01+100653APOSP Q02+100703APOSLP
0213833980999992007021300004-15667-038950FM-12+000599999V0209999C000010075019N0010001N1+02321+02251101291ADDAA106016091AY191061AY261061GF108991051051008001021999KA1240M+03131MA1999999101241MD1999999-0341MW1021REMSYN100AAXX  13004 83398 21594 80000 10232 20225 30124 40129 70296 8552/ 333 10313 29086 55081 59034 60161;
0201833980999992007021312004-15667-038950FM-12+000599999V0202301N002610075019N0040001N1+02481+02171101311ADDAA124016091AY151061AY221061GF108991051051008001021999KA1240N+02221MA1999999101261MD1999999-0301MW1021REMSYN088AAXX  13124 83398 21596 82305 10248 20217 30126 40131 70252 8552/ 333 20222 59030 60164;
0182833980999992007021318004-15667-038950FM-12+000599999V0201401N002610075019N0040001N1+02441+02341101071ADDAA106002091AY161061AY221061GF108991051051008001021999MA1999999101021MD1999999+0371MW1611REMSYN082AAXX  13184 83398 21596 81405 10244 20234 30102 40107 76162 8552/ 333 58037 60021;
0213833980999992007021400004-15667-038950FM-12+000599999V0209999C000010075019N0010001N1+02301+02271101221ADDAA106000591AY151061AY221061GF108991051051008001021999KA1240M+02621MA1999999101171MD1999999-0071MW1021REMSYN100AAXX  14004 83398 21594 80000 10230 20227 30117 40122 70252 8552/ 333 10262 29093 55000 59007 69961;
0201833980999992007021412004-15667-038950FM-12+000599999V0202301N002110075019N0040001N1+02381+02331101211ADDAA124003091AY151061AY221061GF108991051051008001021999KA1240N+02261MA1999999101161MD1999999-0101MW1021REMSYN088AAXX  14124 83398 21596 82304 10238 20233 30116 40121 70252 8552/ 333 20226 59010 60034;
0182833980999992007021418004-15667-038950FM-12+000599999V0209999C000010075019N0040001N1+02421+02351100961ADDAA106017091AY161061AY221061GF106991051051008001021999MA1999999100911MD1999999-0111MW1621REMSYN082AAXX  14184 83398 21596 60000 10242 20235 30091 40096 76262 8552/ 333 59011 60171;
0213833980999992007021500004-15667-038950FM-12+000599999V0209999C000010075019N0010001N1+02421+02331101151ADDAA106002091AY161061AY221061GF108991051051008001021999KA1240M+02751MA1999999101101MD1999999-0071MW1021REMSYN100AAXX  15004 83398 21594 80000 10242 20233 30110 40115 70262 8552/ 333 10275 29095 55006 59007 60021;
0201833980999992007021512004-15667-038950FM-12+000599999V0203601N006210075019N0040001N1+02741+02361101111ADDAA124038191AY161061AY221061GF108991051051008001021999KA1240N+02301MA1999999101061MD1999999-0101MW1021REMSYN088AAXX  15124 83398 21596 83612 10274 20236 30106 40111 70262 8552/ 333 20230 59010 60384;
0213833980999992007021600004-15667-038950FM-12+000599999V0200501N004110075019N0010001N1+02561+02511101071ADDAA106007191AY161061AY221061GF108991051051008001021999KA1240M+02981MA1999999101021MD1999999-0081MW1621REMSYN100AAXX  16004 83398 21594 80508 10256 20251 30102 40107 76262 8552/ 333 10298 29089 55012 59008 60071;
0201833980999992007021612004-15667-038950FM-12+000599999V0203201N002610450019N0040001N1+02811+02391101111ADDAA124010991AY161061AY221061GF107991041051008001021001KA1240N+02341MA1999999101061MD1999999+0001MW1021REMSYN088AAXX  16124 83398 21596 73205 10281 20239 30106 40111 70262 84520 333 20234 58000 60114;
0182833980999992007021618004-15667-038950FM-12+000599999V0202301N004610075019N0040001N1+02561+02421100851ADDAA106002091AY191061AY261061GF108991051051008001021999MA1999999100831MD1999999+0051MW1621REMSYN082AAXX  16184 83398 21596 82309 10256 20242 30083 40085 76296 8552/ 333 58005 60021;
0201833980999992007021712004-15667-038950FM-12+000599999V0209999C000010075019N0040001N1+02541+02441101111ADDAA124034091AY151061AY221061GF108991051051008001021999KA1240N+02301MA1999999101061MD1999999+0001MW1021REMSYN088AAXX  17124 83398 21596 80000 10254 20244 30106 40111 70252 8552/ 333 20230 58000 60344;
0137833980999992007021718004-15667-038950FM-12+000599999V0200501N004610075019N0040001N1+02721+02411100901ADDGF108991051051008001021999MA1999999100851MD1999999-0211REMSYN070AAXX  17184 83398 32596 80509 10272 20241 30085 40090 8552/ 333 59021;
0168833980999992007021800004-15667-038950FM-12+000599999V0203601N001010075019N0010001N1+02601+02421101101ADDGF108991051051008001021999KA1240M+02951MA1999999101051MD1999999+0031REMSYN088AAXX  18004 83398 32594 83602 10260 20242 30105 40110 8552/ 333 10295 29089 55034 58003;
0201833980999992007021812004-15667-038950FM-12+000599999V0203201N001510075019N0040001N1+02581+02421101171ADDAA124013091AY161061AY221061GF108991051051008001021999KA1240N+02351MA1999999101111MD1999999+0051MW1021REMSYN088AAXX  18124 83398 21596 83203 10258 20242 30111 40117 70262 8552/ 333 20235 58005 60134;
0182833980999992007021818004-15667-038950FM-12+000599999V0209999C000010075019N0040001N1+02711+02381100941ADDAA106007991AY161061AY221061GF108991051051008001021999MA1999999100891MD1999999+0041MW1021REMSYN082AAXX  18184 83398 21596 80000 10271 20238 30089 40094 70262 8552/ 333 58004 60081;
0201833980999992007021912004-15667-038950FM-12+000599999V0200501N002610075019N0040001N1+02571+02371101281ADDAA124018091AY161061AY221061GF108991051051008001021999KA1240N+02291MA1999999101231MD1999999+0121MW1021REMSYN088AAXX  19124 83398 21596 80505 10257 20237 30123 40128 70262 8552/ 333 20229 58012 60184;
0182833980999992007021918004-15667-038950FM-12+000599999V0200501N004610450019N0040001N1+02731+02421101061ADDAA106003091AY161061AY221061GF107991041051008001021001MA1999999101011MD1999999+0121MW1021REMSYN082AAXX  19184 83398 21596 70509 10273 20242 30101 40106 70262 84520 333 58012 60031;
0168833980999992007022000004-15667-038950FM-12+000599999V0209999C000010075019N0010001N1+02601+02401101291ADDGF108991051051008001021999KA1240M+02901MA1999999101241MD1999999+0091REMSYN088AAXX  20004 83398 32594 80000 10260 20240 30124 40129 8552/ 333 10290 29088 55054 58009;
0201833980999992007022012004-15667-038950FM-12+000599999V0200501N004610450019N0040001N1+02851+02361101361ADDAA124007991AY161061AY221061GF106991031021008001041001KA1240N+02341MA1999999101311MD1999999+0081MW1021REMSYN088AAXX  20124 83398 21596 60509 10285 20236 30131 40136 70262 83240 333 20234 58008 60084;
0137833980999992007022018004-15667-038950FM-12+000599999V0200501N002610450019N0040001N1+02881+02371101201ADDGF106991031051008001041001MA1999999101151MD1999999+0141REMSYN070AAXX  20184 83398 32596 60505 10288 20237 30115 40120 83540 333 58014;
0213833980999992007022100004-15667-038950FM-12+000599999V0209999C000010075019N0010001N1+02361+02281101421ADDAA106022191AY161061AY221061GF108991051051008001021999KA1240M+02981MA1999999101371MD1999999+0131MW1021REMSYN100AAXX  21004 83398 21594 80000 10236 20228 30137 40142 70262 8552/ 333 10298 29085 55097 58013 60221;
0201833980999992007022112004-15667-038950FM-12+000599999V0209999C000010075019N0040001N1+02491+02311101541ADDAA124041991AY161061AY221061GF108991051051008001021999KA1240N+02251MA1999999101491MD1999999+0181MW1021REMSYN088AAXX  21124 83398 21596 80000 10249 20231 30149 40154 70262 8552/ 333 20225 58018 60424;
0137833980999992007022118004-15667-038950FM-12+000599999V0200501N003110450019N0040001N1+02931+02421101361ADDGF105991031051008001041001MA1999999101311MD1999999+0161REMSYN070AAXX  21184 83398 32596 50506 10293 20242 30131 40136 83540 333 58016;
0213833980999992007022200004-15667-038950FM-12+000599999V0202301N002610450019N0010001N1+02461+02361101571ADDAA106013091AY161061AY221061GF105991031051008001041001KA1240M+03001MA1999999101521MD1999999+0151MW1021REMSYN100AAXX  22004 83398 21594 52305 10246 20236 30152 40157 70262 83540 333 10300 29088 55074 58015 60131;
0201833980999992007022212004-15667-038950FM-12+000599999V0202301N008210450019N0040001N1+02901+02321101801ADDAA124020191AY161061AY221061GF105991031021008001041001KA1240N+02341MA1999999101741MD1999999+0251MW1021REMSYN088AAXX  22124 83398 21596 52316 10290 20232 30174 40180 70262 83240 333 20234 58025 60204;
0137833980999992007022218004-15667-038950FM-12+000599999V0202301N008210450019N0040001N1+02891+02401101651ADDGF106991031051008001041001MA1999999101591MD1999999+0281REMSYN070AAXX  22184 83398 32596 62316 10289 20240 30159 40165 83540 333 58028;
0168833980999992007022300004-15667-038950FM-12+000599999V0202301N001510450019N0010001N1+02541+02381101771ADDGF107991041051008001021001KA1240M+03021MA1999999101711MD1999999+0191REMSYN088AAXX  23004 83398 32594 72303 10254 20238 30171 40177 84520 333 10302 29082 55109 58019;
0156833980999992007022312004-15667-038950FM-12+000599999V0201401N004610450019N0040001N1+02811+02321101821ADDGF106991031051008001021001KA1240N+02281MA1999999101761MD1999999+0021REMSYN076AAXX  23124 83398 32596 61409 10281 20232 30176 40182 83520 333 20228 58002;
0137833980999992007022318004-15667-038950FM-12+000599999V0201401N004610450019N0040001N1+02941+02241101561ADDGF105991031021008001041001MA1999999101511MD1999999-0081REMSYN070AAXX  23184 83398 32596 51409 10294 20224 30151 40156 83240 333 59008;
0213833980999992007022400004-15667-038950FM-12+000599999V0201401N001010450019N0010001N1+02371+02291101751ADDAA106002091AY161061AY221061GF106991041051008001021001KA1240M+03001MA1999999101691MD1999999-0021MW1021REMSYN100AAXX  24004 83398 21594 61402 10237 20229 30169 40175 70262 84520 333 10300 29083 55086 59002 60021;
0201833980999992007022412004-15667-038950FM-12+000599999V0209999C000010075019N0040001N1+02361+02311101811ADDAA124020191AY161061AY221061GF108991051051008001021999KA1240N+02241MA1999999101751MD1999999-0011MW1621REMSYN088AAXX  24124 83398 21596 80000 10236 20231 30175 40181 76262 8552/ 333 20224 59001 60204;
0182833980999992007022418004-15667-038950FM-12+000599999V0201401N003110075019N0040001N1+02591+02361101551ADDAA106007191AY161061AY221061GF107991051051008001021001MA1999999101501MD1999999-0011MW1021REMSYN082AAXX  24184 83398 21596 71406 10259 20236 30150 40155 70262 85520 333 59001 60071;
0213833980999992007022500004-15667-038950FM-12+000599999V0209999C000010075019N0010001N1+02381+02291101701ADDAA106002091AY161061AY221061GF108991051051008001021999KA1240M+02761MA1999999101641MD1999999-0051MW1021REMSYN100AAXX  25004 83398 21594 80000 10238 20229 30164 40170 70262 8552/ 333 10276 29094 55016 59005 60021;
0137833980999992007022518004-15667-038950FM-12+000599999V0200501N005110450019N0040001N1+02881+02321101351ADDGF105991031051008001041001MA1999999101301MD1999999-0201REMSYN070AAXX  25184 83398 32596 50510 10288 20232 30130 40135 83540 333 59020;
0213833980999992007022600004-15667-038950FM-12+000599999V0209999C000010075019N0010001N1+02421+02331101591ADDAA106007191AY161061AY221061GF108991051051008001021999KA1240M+02951MA1999999101541MD1999999-0101MW1611REMSYN100AAXX  26004 83398 21594 80000 10242 20233 30154 40159 76162 8552/ 333 10295 29089 55067 59010 60071;
0201833980999992007022612004-15667-038950FM-12+000599999V0209999C000010450019N0040001N1+02741+02361101641ADDAA124011991AY161061AY221061GF107991041051008001021001KA1240N+02251MA1999999101581MD1999999-0011MW1021REMSYN088AAXX  26124 83398 21596 70000 10274 20236 30158 40164 70262 84520 333 20225 59001 60124;
0137833980999992007022618004-15667-038950FM-12+000599999V0200501N002612200019N0040001N1+02891+02291101391ADDGF104991021011008001041001MA1999999101341MD1999999+0041REMSYN070AAXX  26184 83398 32596 40505 10289 20229 30134 40139 82140 333 58004;
0168833980999992007022700004-15667-038950FM-12+000599999V0200501N001012200019N0010001N1+02671+02171101531ADDGF103991021011008001041001KA1240M+02961MA1999999101481MD1999999-0061REMSYN088AAXX  27004 83398 32594 30502 10267 20217 30148 40153 82140 333 10296 29075 55097 59006;
0201833980999992007022712004-15667-038950FM-12+000599999V0209999C000010450019N0040001N1+02701+02451101711ADDAA124000891AY151061AY221061GF106991041051008001021001KA1240N+02231MA1999999101651MD1999999+0071MW1021REMSYN088AAXX  27124 83398 21596 60000 10270 20245 30165 40171 70252 84520 333 20223 58007 69974;
0182833980999992007022718004-15667-038950FM-12+000599999V0200501N004610450019N0040001N1+02891+02331101491ADDAA106001091AY151061AY221061GF107991041051008001021001MA1999999101441MD1999999+0101MW1021REMSYN082AAXX  27184 83398 21596 70509 10289 20233 30144 40149 70252 84520 333 58010 69991;
0168833980999992007022800004-15667-038950FM-12+000599999V0201401N004110450019N0010001N1+02601+02271101581ADDGF107991041051008001021001KA1240M+02971MA1999999101531MD1999999+0091REMSYN088AAXX  28004 83398 32594 71408 10260 20227 30153 40158 84520 333 10297 29081 55069 58009;
0137833980999992007022818004-15667-038950FM-12+000599999V0200501N004610450019N0040001N1+02891+02221101401ADDGF105991031021008001041001MA1999999101351MD1999999-0091REMSYN070AAXX  28184 83398 32596 50509 10289 20222 30135 40140 83240 333 59009;
0168833980999992007030100004-15667-038950FM-12+000599999V0209999C000010450019N0010001N1+02661+02271101461ADDGF105991031051008001041001KA1240M+03011MA1999999101411MD1999999-0121REMSYN088AAXX  01004 83398 32594 50000 10266 20227 30141 40146 83540 333 10301 29079 55102 59012;
0201833980999992007030112004-15667-038950FM-12+000599999V0201401N001010450019N0040001N1+02751+02331101641ADDAA124004191AY161061AY221061GF106991041051008001041001KA1240N+02221MA1999999101581MD1999999-0031MW1021REMSYN088AAXX  01124 83398 21596 61402 10275 20233 30158 40164 70262 84540 333 20222 59003 60044;
0137833980999992007030118004-15667-038950FM-12+000599999V0201401N004610450019N0040001N1+02901+02251101331ADDGF105991031021008001041001MA1999999101281MD1999999-0071REMSYN070AAXX  01184 83398 32596 51409 10290 20225 30128 40133 83240 333 59007;
0201833980999992007030212004-15667-038950FM-12+000599999V0201401N009310075019N0040001N1+02751+02371101581ADDAA124000591AY151061AY221061GF108991051051008001021999KA1240N+02181MA1999999101531MD1999999+0251MW1021REMSYN088AAXX  02124 83398 21596 81418 10275 20237 30153 40158 70252 8552/ 333 20218 58025 69944;
0137833980999992007030218004-15667-038950FM-12+000599999V0200501N005110075019N0040001N1+02791+02191101451ADDGF108991051051008001021999MA1999999101401MD1999999+0121REMSYN070AAXX  02184 83398 32596 80510 10279 20219 30140 40145 8552/ 333 58012;
0122833980999992007030300004-15667-038950FM-12+000599999V0202301N001019999999N0010001N1+01701+99999999999ADDGF105991999999008001999999REMSYN084AAXX  03004 83398 32594 52302 10170 20231 10154 10300 29086 39140 55092 58008 83540;
0201833980999992007030312004-15667-038950FM-12+000599999V0201401N004610450019N0040001N1+02861+02281101631ADDAA124004191AY161061AY221061GF105991031021008001041001KA1240N+02311MA1999999101571MD1999999+0041MW1021REMSYN088AAXX  03124 83398 21596 51409 10286 20228 30157 40163 70262 83240 333 20231 58004 60044;
0182833980999992007030318004-15667-038950FM-12+000599999V0201401N002610450019N0040001N1+02911+02311101421ADDAA106000391AY151061AY221061GF105991031051008001041001MA1999999101371MD1999999-0031MW1021REMSYN082AAXX  03184 83398 21596 51405 10291 20231 30137 40142 70252 83540 333 59003 69931;
0168833980999992007030400004-15667-038950FM-12+000599999V0201401N004110450019N0010001N1+02661+02331101521ADDGF105991031051008001041001KA1240M+03001MA1999999101471MD1999999-0021REMSYN088AAXX  04004 83398 32594 51408 10266 20233 30147 40152 83540 333 10300 29076 55099 59002;
0201833980999992007030412004-15667-038950FM-12+000599999V0209999C000010450019N0040001N1+02501+02251101671ADDAA124011991AY161061AY221061GF107991041051008001021001KA1240N+02231MA1999999101611MD1999999+0241MW1021REMSYN088AAXX  04124 83398 21596 70000 10250 20225 30161 40167 70262 84520 333 20223 58024 60124;
0132833980999992007030418004-15667-038950FM-12+000599999V0201401N003619999999N0040001N1+02841+02351101421ADDGF105991999001008001001001MA1999999101371REMSYN060AAXX  04184 83398 32596 51407 10284 20235 30137 40142 88000;EQDQ01+000082SCOTLC
0168833980999992007030500004-15667-038950FM-12+000599999V0201401N003610450019N0010001N1+02421+02351101631ADDGF107991041051008001021001KA1240M+02941MA1999999101571MD1999999+0101REMSYN088AAXX  05004 83398 32594 71407 10242 20235 30157 40163 84520 333 10294 29088 55088 58010;
0201833980999992007030512004-15667-038950FM-12+000599999V0201401N004110450019N0040001N1+02681+02461101621ADDAA124007191AY161061AY221061GF107991041051008001021001KA1240N+02221MA1999999101561MD1999999-0051MW1021REMSYN088AAXX  05124 83398 21596 71408 10268 20246 30156 40162 70262 84520 333 20222 59005 60074;
0137833980999992007030518004-15667-038950FM-12+000599999V0201401N005110450019N0040001N1+02881+02391101431ADDGF105991031051008001041001MA1999999101381MD1999999+0011REMSYN070AAXX  05184 83398 32596 51410 10288 20239 30138 40143 83540 333 58001;
0213833980999992007030600004-15667-038950FM-12+000599999V0209999C000010450019N0010001N1+02621+02351101641ADDAA106001091AY151061AY221061GF106991041051008001041001KA1240M+02961MA1999999101581MD1999999+0011MW1021REMSYN100AAXX  06004 83398 21594 60000 10262 20235 30158 40164 70252 84540 333 10296 29083 55093 58001 69991;
0201833980999992007030612004-15667-038950FM-12+000599999V0200501N003110450019N0040001N1+02841+02501101791ADDAA124011991AY161061AY221061GF106991041051008001021001KA1240N+02341MA1999999101731MD1999999+0171MW1021REMSYN088AAXX  06124 83398 21596 60506 10284 20250 30173 40179 70262 84520 333 20234 58017 60124;
0213833980999992007030700004-15667-038950FM-12+000599999V0209999C000010450019N0010001N1+02401+02281101821ADDAA106002091AY161061AY221061GF105991031051008001021001KA1240M+03011MA1999999101761MD1999999+0181MW1021REMSYN100AAXX  07004 83398 21594 50000 10240 20228 30176 40182 70262 83520 333 10301 29084 55103 58018 60021;
0137833980999992007030718004-15667-038950FM-12+000599999V0200501N005110075019N0040001N1+02781+02321101701ADDGF108991051051008001021999MA1999999101641MD1999999+0091REMSYN070AAXX  07184 83398 32596 80510 10278 20232 30164 40170 8552/ 333 58009;
0168833980999992007030800004-15667-038950FM-12+000599999V0209999C000010450019N0010001N1+02661+02461101751ADDGF105991041051008001021001KA1240M+03021MA1999999101691MD1999999-0071REMSYN088AAXX  08004 83398 32594 50000 10266 20246 30169 40175 84520 333 10302 29086 55069 59007;
0201833980999992007030812004-15667-038950FM-12+000599999V0201801N002110450019N0040001N1+02741+02381101711ADDAA124002091AY161061AY221061GF106991041051008001021001KA1240N+02161MA1999999101651MD1999999-0201MW1021REMSYN088AAXX  08124 83398 21596 61804 10274 20238 30165 40171 70262 84520 333 20216 59020 60024;
0137833980999992007030818004-15667-038950FM-12+000599999V0200901N003110450019N0040001N1+02861+02231101431ADDGF105991031051008001041001MA1999999101381MD1999999-0261REMSYN070AAXX  08184 83398 32596 50906 10286 20223 30138 40143 83540 333 59026;
0168833980999992007030900004-15667-038950FM-12+000599999V0200501N001010450019N0010001N1+02661+02291101551ADDGF106991041051008001021001KA1240M+02991MA1999999101501MD1999999-0191REMSYN088AAXX  09004 83398 32594 60502 10266 20229 30150 40155 84520 333 10299 29078 55106 59019;
0156833980999992007030912004-15667-038950FM-12+000599999V0209999C000010450019N0040001N1+02761+02281101581ADDGF106991041051008001021001KA1240N+02141MA1999999101531MD1999999-0121REMSYN076AAXX  09124 83398 32596 60000 10276 20228 30153 40158 84520 333 20214 59012;
0137833980999992007030918004-15667-038950FM-12+000599999V0200501N002110450019N0040001N1+02901+02151101331ADDGF105991031051008001041001MA1999999101281MD1999999-0101REMSYN070AAXX  09184 83398 32596 50504 10290 20215 30128 40133 83540 333 59010;
0168833980999992007031000004-15667-038950FM-12+000599999V0200501N001010450019N0010001N1+02681+02261101471ADDGF105991031051008001021001KA1240M+03021MA1999999101421MD1999999-0081REMSYN088AAXX  10004 83398 32594 50502 10268 20226 30142 40147 83520 333 10302 29074 55100 59008;
0137833980999992007031018004-15667-038950FM-12+000599999V0200501N002110450019N0040001N1+02861+02231101321ADDGF106991041051008001021001MA1999999101271MD1999999-0011REMSYN070AAXX  10184 83398 32596 60504 10286 20223 30127 40132 84520 333 59001;
0213833980999992007031100004-15667-038950FM-12+000599999V0209999C000010450019N0010001N1+02461+02231101491ADDAA106002091AY161061AY221061GF106991041051008001021001KA1240M+02921MA1999999101441MD1999999+0021MW1021REMSYN100AAXX  11004 83398 21594 60000 10246 20223 30144 40149 70262 84520 333 10292 29085 55076 58002 60021;
0201833980999992007031112004-15667-038950FM-12+000599999V0201801N003110450019N0040001N1+02561+02331101631ADDAA124013091AY161061AY221061GF106991041051008001021001KA1240N+02181MA1999999101571MD1999999-0051MW1021REMSYN088AAXX  11124 83398 21596 61806 10256 20233 30157 40163 70262 84520 333 20218 59005 60134;
0201833980999992007031118004-15667-038950FM-12+000599999V0200501N001510450019N0040001N1+02581+02121101331ADDAA106000091AY151061AY221061GF107991041051008001021001MA1999999101281MD1999999+0011MW1021REMSYN082AAXX  11184 83398 21596 70503 10258 20212 30128 40133 70252 84520 333 58001 69921;EQDQ01  00002PRCP06
0168833980999992007031200004-15667-038950FM-12+000599999V0209999C000010450019N0010001N1+02361+02281101551ADDGF105991031051008001021001KA1240M+02901MA1999999101501MD1999999+0061REMSYN088AAXX  12004 83398 32594 50000 10236 20228 30150 40155 83520 333 10290 29088 55066 58006;
0201833980999992007031212004-15667-038950FM-12+000599999V0201801N003110075019N0040001N1+02281+02261101721ADDAA124018091AY191061AY261061GF108991051051008001021999KA1240N+02141MA1999999101661MD1999999+0091MW1021REMSYN088AAXX  12124 83398 21596 81806 10228 20226 30166 40172 70296 8552/ 333 20214 58009 60184;
0137833980999992007031218004-15667-038950FM-12+000599999V0200501N001010450019N0040001N1+02841+02351101481ADDGF106991041051008001021001MA1999999101431MD1999999+0151REMSYN070AAXX  12184 83398 32596 60502 10284 20235 30143 40148 84520 333 58015;
0168833980999992007031300004-15667-038950FM-12+000599999V0209999C000010450019N0040001N1+02361+02311101651ADDGF106991041051008001021001KA1240M+02961MA1999999101591MD1999999+0091REMSYN088AAXX  13004 83398 32596 60000 10236 20231 30159 40165 84520 333 10296 29092 55048 58009;
0201833980999992007031312004-15667-038950FM-12+000599999V0201401N003110075019N0020001N1+02441+02351101751ADDAA124013091AY191061AY261061GF108991051051008001021999KA1240N+02221MA1999999101691MD1999999+0031MW1601REMSYN088AAXX  13124 83398 21595 81406 10244 20235 30169 40175 76096 8552/ 333 20222 58003 60134;
0182833980999992007031318004-15667-038950FM-12+000599999V0200501N004110450019N0040001N1+02821+02361101441ADDAA106001091AY161061AY221061GF106991041051008001021001MA1999999101391MD1999999-0041MW1021REMSYN082AAXX  13184 83398 21596 60508 10282 20236 30139 40144 70262 84520 333 59004 60011;
0168833980999992007031400004-15667-038950FM-12+000599999V0209999C000010450019N0010001N1+02641+02331101611ADDGF106991041051008001021001KA1240M+02941MA1999999101551MD1999999-0041REMSYN088AAXX  14004 83398 32594 60000 10264 20233 30155 40161 84520 333 10294 29084 55025 59004;
0201833980999992007031412004-15667-038950FM-12+000599999V0202301N001010450019N0040001N1+02701+02371101591ADDAA124005191AY161061AY221061GF106991041051008001021001KA1240N+02181MA1999999101541MD1999999-0151MW1021REMSYN088AAXX  14124 83398 21596 62302 10270 20237 30154 40159 70262 84520 333 20218 59015 60054;
0137833980999992007031418004-15667-038950FM-12+000599999V0200901N003110450019N0040001N1+02881+02281101341ADDGF106991031051008001021011MA1999999101291MD1999999-0101REMSYN070AAXX  14184 83398 32596 60906 10288 20228 30129 40134 83521 333 59010;
0201833980999992007031512004-15667-038950FM-12+000599999V0209999C000010450019N0040001N1+02601+02311101581ADDAA124003091AY161061AY221061GF106991041051008001021001KA1240N+02181MA1999999101531MD1999999-0011MW1021REMSYN088AAXX  15124 83398 21596 60000 10260 20231 30153 40158 70262 84520 333 20218 59001 60034;
0137833980999992007031518004-15667-038950FM-12+000599999V0200501N002110075019N0040001N1+02781+02341101331ADDGF107991051051008001021001MA1999999101281MD1999999-0011REMSYN070AAXX  15184 83398 32596 70504 10278 20234 30128 40133 85520 333 59001;
0168833980999992007031600004-15667-038950FM-12+000599999V0209999C000010450019N0010001N1+02521+02401101441ADDGF105991031051008001021001KA1240M+02961MA1999999101391MD1999999-0061REMSYN088AAXX  16004 83398 32594 50000 10252 20240 30139 40144 83520 333 10296 29087 55066 59006;
0201833980999992007031612004-15667-038950FM-12+000599999V0209999C000010450019N0040001N1+02821+02421101511ADDAA124002091AY191061AY261061GF106991041051008001021001KA1240N+02301MA1999999101461MD1999999-0071MW1021REMSYN088AAXX  16124 83398 21596 60000 10282 20242 30146 40151 70296 84520 333 20230 59007 60024;
0137833980999992007031618004-15667-038950FM-12+000599999V0200501N003110450019N0040001N1+02941+02431101251ADDGF105991031051008001041001MA1999999101201MD1999999-0081REMSYN070AAXX  16184 83398 32596 50506 10294 20243 30120 40125 83540 333 59008;
0168833980999992007031700004-15667-038950FM-12+000599999V0200501N003110450019N0010001N1+02681+02371101391ADDGF105991031051008001021001KA1240M+02681MA1999999101341MD1999999-0051REMSYN088AAXX  17004 83398 32594 50506 10268 20237 30134 40139 83520 333 10268 29080 55089 59005;
0156833980999992007031712004-15667-038950FM-12+000599999V0203201N004610450019N0040001N1+02861+02331101451ADDGF105991031021008001041001KA1240N+02231MA1999999101401MD1999999-0061REMSYN076AAXX  17124 83398 32596 53209 10286 20233 30140 40145 83240 333 20223 59006;
0137833980999992007031718004-15667-038950FM-12+000599999V0200501N003112200019N0040001N1+02921+02391101171ADDGF103991021011008001041001MA1999999101121MD1999999-0081REMSYN070AAXX  17184 83398 32596 30506 10292 20239 30112 40117 82140 333 59008;
0156833980999992007031812004-15667-038950FM-12+000599999V0203201N002610450019N0040001N1+02861+02461101561ADDGF106991041051008001041001KA1240N+02261MA1999999101511MD1999999+0111REMSYN076AAXX  18124 83398 32596 63205 10286 20246 30151 40156 84540 333 20226 58011;
0156833980999992007031912004-15667-038950FM-12+000599999V0203201N002110450019N0040001N1+02911+02351101541ADDGF105991031021008001041001KA1240N+02181MA1999999101491MD1999999-0021REMSYN076AAXX  19124 83398 32596 53204 10291 20235 30149 40154 83240 333 20218 59002;
0137833980999992007031918004-15667-038950FM-12+000599999V0200501N006210450019N0040001N1+02921+02321101241ADDGF105991031021008001041001MA1999999101191MD1999999+0061REMSYN070AAXX  19184 83398 32596 50512 10292 20232 30119 40124 83240 333 58006;
0168833980999992007032000004-15667-038950FM-12+000599999V0209999C000010450019N0010001N1+02501+02451101371ADDGF105991031051008001041001KA1240M+03061MA1999999101321MD1999999+0021REMSYN088AAXX  20004 83398 32594 50000 10250 20245 30132 40137 83540 333 10306 29084 55086 58002;
0156833980999992007032012004-15667-038950FM-12+000599999V0202301N002110450019N0040001N1+02841+02521101451ADDGF105991031011008001041001KA1240N+02201MA1999999101401MD1999999-0091REMSYN076AAXX  20124 83398 32596 52304 10284 20252 30140 40145 83140 333 20220 59009;
0137833980999992007032018004-15667-038950FM-12+000599999V0200501N004612200019N0040001N1+02941+02471101111ADDGF104991021011008001041001MA1999999101061MD1999999-0131REMSYN070AAXX  20184 83398 32596 40509 10294 20247 30106 40111 82140 333 59013;
0168833980999992007032100004-15667-038950FM-12+000599999V0203201N001012200019N0010001N1+02681+02541101211ADDGF104991021021008001041001KA1240M+03091MA1999999101161MD1999999-0161REMSYN088AAXX  21004 83398 32594 43202 10268 20254 30116 40121 82240 333 10309 29086 55091 59016;
0156833980999992007032112004-15667-038950FM-12+000599999V0200501N003110450019N0040001N1+02901+02481101421ADDGF106991041051008001021001KA1240N+02361MA1999999101371MD1999999-0011REMSYN076AAXX  21124 83398 32596 60506 10290 20248 30137 40142 84520 333 20236 59001;
0137833980999992007032118004-15667-038950FM-12+000599999V0203601N004110450019N0040001N1+03001+02531101061ADDGF105991031021008001041001MA1999999101011MD1999999-0051REMSYN070AAXX  21184 83398 32596 53608 10300 20253 30101 40106 83240 333 59005;
0168833980999992007032200004-15667-038950FM-12+000599999V0200501N002112200019N0010001N1+02721+02471101241ADDGF103991031011008001001001KA1240M+03081MA1999999101191MD1999999+0031REMSYN088AAXX  22004 83398 32594 30504 10272 20247 30119 40124 83100 333 10308 29082 55087 58003;
0201833980999992007032212004-15667-038950FM-12+000599999V0203601N002110450019N0040001N1+02821+02421101511ADDAA124022191AY161061AY221061GF106991041051008001021001KA1240N+02341MA1999999101461MD1999999+0091MW1021REMSYN088AAXX  22124 83398 21596 63604 10282 20242 30146 40151 70262 84520 333 20234 58009 60224;
0137833980999992007032218004-15667-038950FM-12+000599999V0200501N002112200019N0040001N1+02941+02261101201ADDGF104991031021008001041011MA1999999101151MD1999999+0141REMSYN070AAXX  22184 83398 32596 40504 10294 20226 30115 40120 83241 333 58014;
0168833980999992007032300004-15667-038950FM-12+000599999V0209999C000010450019N0010001N1+02681+02431101341ADDGF105991031021008001051021KA1240M+02981MA1999999101291MD1999999-0101REMSYN088AAXX  23004 83398 32594 50000 10268 20243 30129 40134 83252 333 10298 29080 55070 59010;
0201833980999992007032312004-15667-038950FM-12+000599999V0201401N001010450019N0040001N1+02881+02501101611ADDAA124011991AY161061AY221061GF106991041051008001021001KA1240N+02241MA1999999101551MD1999999+0091MW1021REMSYN088AAXX  23124 83398 21596 61402 10288 20250 30155 40161 70262 84520 333 20224 58009 60124;
0137833980999992007032318004-15667-038950FM-12+000599999V0200901N002110075019N0040001N1+02941+02471101381ADDGF105991051021008001001001MA1999999101331MD1999999+0181REMSYN070AAXX  23184 83398 32596 50904 10294 20247 30133 40138 85200 333 58018;
0168833980999992007032400004-15667-038950FM-12+000599999V0209999C000012200019N0010001N1+02581+02371101561ADDGF104991041011008001001001KA1240M+03021MA1999999101511MD1999999+0221REMSYN088AAXX  24004 83398 32594 40000 10258 20237 30151 40156 84100 333 10302 29083 55087 58022;
0201833980999992007032412004-15667-038950FM-12+000599999V0201401N002110450019N0040001N1+02741+02481101681ADDAA124003091AY161061AY221061GF106991041051008001021001KA1240N+02241MA1999999101621MD1999999+0071MW1021REMSYN088AAXX  24124 83398 21596 61404 10274 20248 30162 40168 70262 84520 333 20224 58007 60034;
0137833980999992007032418004-15667-038950FM-12+000599999V0200501N003110450019N0040001N1+02961+02331101401ADDGF106991031051008001041011MA1999999101351MD1999999+0021REMSYN070AAXX  24184 83398 32596 60506 10296 20233 30135 40140 83541 333 58002;
0168833980999992007032500004-15667-038950FM-12+000599999V0209999C000012200019N0010001N1+02661+02291101631ADDGF103991031011008001001001KA1240M+03021MA1999999101571MD1999999+0061REMSYN088AAXX  25004 83398 32594 30000 10266 20229 30157 40163 83100 333 10302 29079 55083 58006;
0201833980999992007032512004-15667-038950FM-12+000599999V0201401N001010450019N0040001N1+02701+02501101641ADDAA124003091AY161061AY221061GF106991041051008001021001KA1240N+02301MA1999999101581MD1999999-0041MW1021REMSYN088AAXX  25124 83398 21596 61402 10270 20250 30158 40164 70262 84520 333 20230 59004 60034;
0182833980999992007032518004-15667-038950FM-12+000599999V0201401N001010450019N0040001N1+02881+02321101391ADDAA106002091AY161061AY221061GF106991041051008001021001MA1999999101341MD1999999-0011MW1021REMSYN082AAXX  25184 83398 21596 61402 10288 20232 30134 40139 70262 84520 333 59001 60021;
0168833980999992007032600004-15667-038950FM-12+000599999V0209999C000012200019N0010001N1+02441+02391101471ADDGF103991021011008001041001KA1240M+02941MA1999999101421MD1999999-0151REMSYN088AAXX  26004 83398 32594 30000 10244 20239 30142 40147 82140 333 10294 29089 55061 59015;
0201833980999992007032612004-15667-038950FM-12+000599999V0200501N001010450019N0040001N1+02821+02461101581ADDAA124002091AY161061AY221061GF106991041051008001021001KA1240N+02301MA1999999101531MD1999999-0051MW1021REMSYN088AAXX  26124 83398 21596 60502 10282 20246 30153 40158 70262 84520 333 20230 59005 60024;
0137833980999992007032618004-15667-038950FM-12+000599999V0200501N005110450019N0040001N1+03001+02371101321ADDGF105991031051008001041001MA1999999101271MD1999999-0071REMSYN070AAXX  26184 83398 32596 50510 10300 20237 30127 40132 83540 333 59007;
0168833980999992007032700004-15667-038950FM-12+000599999V0209999C000010450019N0010001N1+02641+02391101511ADDGF106991041051008001021001KA1240M+03011MA1999999101461MD1999999+0041REMSYN088AAXX  27004 83398 32594 60000 10264 20239 30146 40151 84520 333 10301 29081 55075 58004;
0201833980999992007032712004-15667-038950FM-12+000599999V0209999C000010450019N0040001N1+02721+02561101621ADDAA124006191AY161061AY221061GF106991041051008001021001KA1240N+02281MA1999999101561MD1999999+0031MW1021REMSYN088AAXX  27124 83398 21596 60000 10272 20256 30156 40162 70262 84520 333 20228 58003 60064;
0137833980999992007032718004-15667-038950FM-12+000599999V0200501N004110450019N0040001N1+02961+02451101401ADDGF106991041051008001021001MA1999999101351MD1999999+0081REMSYN070AAXX  27184 83398 32596 60508 10296 20245 30135 40140 84520 333 58008;
0168833980999992007032800004-15667-038950FM-12+000599999V0209999C000012200019N0010001N1+02681+02371101551ADDGF103991031011008001001001KA1240M+03021MA1999999101501MD1999999+0041REMSYN088AAXX  28004 83398 32594 30000 10268 20237 30150 40155 83100 333 10302 29083 55074 58004;
0156833980999992007032812004-15667-038950FM-12+000599999V0200501N001010075019N0040001N1+02901+02371101691ADDGF105991051051008001001001KA1240N+02181MA1999999101631MD1999999+0071REMSYN076AAXX  28124 83398 32596 50502 10290 20237 30163 40169 85500 333 20218 58007;
0137833980999992007032818004-15667-038950FM-12+000599999V0200501N001010450019N0040001N1+02941+02291101401ADDGF105991031021008001041001MA1999999101351MD1999999+0001REMSYN070AAXX  28184 83398 32596 50502 10294 20229 30135 40140 83240 333 58000;
0168833980999992007032900004-15667-038950FM-12+000599999V0200501N001012200019N0010001N1+02681+02461101551ADDGF103991031011008001001001KA1240M+03031MA1999999101501MD1999999+0001REMSYN088AAXX  29004 83398 32594 30502 10268 20246 30150 40155 83100 333 10303 29079 55093 58000;
0156833980999992007032912004-15667-038950FM-12+000599999V0209999C000010450019N0040001N1+02761+02441101571ADDGF106991041051008001021001KA1240N+02121MA1999999101521MD1999999-0111REMSYN076AAXX  29124 83398 32596 60000 10276 20244 30152 40157 84520 333 20212 59011;
0137833980999992007032918004-15667-038950FM-12+000599999V0200501N003110450019N0040001N1+02901+02341101201ADDGF106991031051008001041011MA1999999101151MD1999999-0201REMSYN070AAXX  29184 83398 32596 60506 10290 20234 30115 40120 83541 333 59020;
0168833980999992007033000004-15667-038950FM-12+000599999V0209999C000012200019N0010001N1+02561+02361101371ADDGF103991031001008001041001KA1240M+03041MA1999999101321MD1999999-0181REMSYN088AAXX  30004 83398 32594 30000 10256 20236 30132 40137 83040 333 10304 29083 55085 59018;
0201833980999992007033012004-15667-038950FM-12+000599999V0201801N003110075019N0040001N1+02521+02401101521ADDAA124001091AY161061AY221061GF108991051051008001021999KA1240N+02201MA1999999101471MD1999999-0051MW1021REMSYN088AAXX  30124 83398 21596 81806 10252 20240 30147 40152 70262 8552/ 333 20220 59005 60014;
0182833980999992007033018004-15667-038950FM-12+000599999V0200501N001010450019N0040001N1+02861+02331101121ADDAA106001091AY161061AY221061GF106991041051008001021001MA1999999101071MD1999999-0081MW1021REMSYN082AAXX  30184 83398 21596 60502 10286 20233 30107 40112 70262 84520 333 59008 60011;
0168833980999992007033100004-15667-038950FM-12+000599999V0209999C000012200019N0010001N1+02381+02331101311ADDGF102991021011008001001001KA1240M+02981MA1999999101261MD1999999-0061REMSYN088AAXX  31004 83398 32594 20000 10238 20233 30126 40131 82100 333 10298 29090 55018 59006;
0173833980999992007033112004-15667-038950FM-12+000599999V0202301N001010450019N0040001N1+02741+02451101381ADDAA124001091GF106991031051008001041011KA1240N+02121MA1999999101331MD1999999-0141REMSYN082AAXX  31124 83398 22596 62302 10274 20245 30133 40138 83541 333 20212 59014 60014;
0137833980999992007033118004-15667-038950FM-12+000599999V0200501N001010450019N0040001N1+02941+02331101111ADDGF105991031021008001041001MA1999999101061MD1999999-0011REMSYN070AAXX  31184 83398 32596 50502 10294 20233 30106 40111 83240 333 59001;
0168833980999992007040100004-15667-038950FM-12+000599999V0209999C000012200019N0010001N1+02421+02301101271ADDGF103991031011008001001001KA1240M+03051MA1999999101221MD1999999-0041REMSYN088AAXX  01004 83398 32594 30000 10242 20230 30122 40127 83100 333 10305 29085 55082 59004;
0156833980999992007040112004-15667-038950FM-12+000599999V0202301N001010450019N0040001N1+02901+02481101451ADDGF106991041051008001021001KA1240N+02141MA1999999101401MD1999999+0071REMSYN076AAXX  01124 83398 32596 62302 10290 20248 30140 40145 84520 333 20214 58007;
0137833980999992007040118004-15667-038950FM-12+000599999V0200501N002110450019N0040001N1+03001+02241101161ADDGF106991031021008001041011MA1999999101111MD1999999+0051REMSYN070AAXX  01184 83398 32596 60504 10300 20224 30111 40116 83241 333 58005;
0168833980999992007040200004-15667-038950FM-12+000599999V0209999C000012200019N0010001N1+02461+02321101311ADDGF103991011011008001041001KA1240M+03051MA1999999101261MD1999999+0041REMSYN088AAXX  02004 83398 32594 30000 10246 20232 30126 40131 81140 333 10305 29082 55088 58004;
0156833980999992007040212004-15667-038950FM-12+000599999V0209999C000010450019N0040001N1+02821+02521101521ADDGF106991031051008001041011KA1240N+02201MA1999999101471MD1999999+0071REMSYN076AAXX  02124 83398 32596 60000 10282 20252 30147 40152 83541 333 20220 58007;
0137833980999992007040218004-15667-038950FM-12+000599999V0209999C000010075019N0040001N1+02761+02341101211ADDGF108991051051008001021999MA1999999101161MD1999999+0051REMSYN070AAXX  02184 83398 32596 80000 10276 20234 30116 40121 8552/ 333 58005;
0168833980999992007040300004-15667-038950FM-12+000599999V0209999C000012200019N0010001N1+02461+02321101361ADDGF104991021011008001041001KA1240M+03061MA1999999101311MD1999999+0051REMSYN088AAXX  03004 83398 32594 40000 10246 20232 30131 40136 82140 333 10306 29087 55048 58005;
0156833980999992007040312004-15667-038950FM-12+000599999V0201801N003110075019N0040001N1+02641+02351101511ADDGF107991051051008001021001KA1240N+02201MA1999999101461MD1999999-0011REMSYN076AAXX  03124 83398 32596 71806 10264 20235 30146 40151 85520 333 20220 59001;
0137833980999992007040318004-15667-038950FM-12+000599999V0200901N001010450019N0040001N1+02861+02441101161ADDGF106991041051008001021001MA1999999101111MD1999999-0051REMSYN070AAXX  03184 83398 32596 60902 10286 20244 30111 40116 84520 333 59005;
0168833980999992007040400004-15667-038950FM-12+000599999V0209999C000010450019N0010001N1+02501+02361101251ADDGF106991041051008001021001KA1240M+03001MA1999999101201MD1999999-0111REMSYN088AAXX  04004 83398 32594 60000 10250 20236 30120 40125 84520 333 10300 29087 55045 59011;
0201833980999992007040412004-15667-038950FM-12+000599999V0209999C000010450019N0040001N1+02721+02471101451ADDAA124009991AY161061AY221061GF106991041051008001021001KA1240N+02211MA1999999101401MD1999999-0061MW1021REMSYN088AAXX  04124 83398 21596 60000 10272 20247 30140 40145 70262 84520 333 20221 59006 60104;
0137833980999992007040418004-15667-038950FM-12+000599999V0203601N004110450019N0040001N1+02921+02321101141ADDGF106991021051008001041011MA1999999101091MD1999999-0021REMSYN070AAXX  04184 83398 32596 63608 10292 20232 30109 40114 82541 333 59002;
0168833980999992007040500004-15667-038950FM-12+000599999V0200501N003112200019N0010001N1+02601+02271101311ADDGF104991021011008001041001KA1240M+03041MA1999999101261MD1999999+0061REMSYN088AAXX  05004 83398 32594 40506 10260 20227 30126 40131 82140 333 10304 29080 55073 58006;
0156833980999992007040512004-15667-038950FM-12+000599999V0202301N004110450019N0040001N1+02801+02361101471ADDGF106991031011008001041011KA1240N+02101MA1999999101421MD1999999+0021REMSYN076AAXX  05124 83398 32596 62308 10280 20236 30142 40147 83141 333 20210 58002;
0137833980999992007040518004-15667-038950FM-12+000599999V0203601N003111050019N0040001N1+02941+02111101251ADDGF105991021021008001041011MA1999999101201MD1999999+0111REMSYN070AAXX  05184 83398 32596 53606 10294 20211 30120 40125 82241 333 58011;
0168833980999992007040600004-15667-038950FM-12+000599999V0200501N001012200019N0010001N1+02661+02411101421ADDGF103991031011008001001001KA1240M+03061MA1999999101371MD1999999+0111REMSYN088AAXX  06004 83398 32594 30502 10266 20241 30137 40142 83100 333 10306 29078 55090 58011;
0156833980999992007040612004-15667-038950FM-12+000599999V0202301N002112200019N0040001N1+02731+02311101521ADDGF102991011011008001041001KA1240N+02051MA1999999101471MD1999999+0051REMSYN076AAXX  06124 83398 32596 22304 10273 20231 30147 40152 81140 333 20205 58005;
0137833980999992007040618004-15667-038950FM-12+000599999V0200501N006712200019N0040001N1+02981+02351101211ADDGF102991011011008001041001MA1999999101161MD1999999+0041REMSYN070AAXX  06184 83398 32596 20513 10298 20235 30116 40121 81140 333 58004;
0168833980999992007040700004-15667-038950FM-12+000599999V0200501N001512200019N0010001N1+02681+02391101451ADDGF103991021011008001041001KA1240M+03101MA1999999101401MD1999999+0031REMSYN088AAXX  07004 83398 32594 30503 10268 20239 30140 40145 82140 333 10310 29079 55090 58003;
0156833980999992007040712004-15667-038950FM-12+000599999V0202301N002610450019N0040001N1+02761+02381101671ADDGF106991041051008001041001KA1240N+02201MA1999999101611MD1999999+0141REMSYN076AAXX  07124 83398 32596 62305 10276 20238 30161 40167 84540 333 20220 58014;
0182833980999992007040718004-15667-038950FM-12+000599999V0209999C000010075019N0040001N1+02511+02441101371ADDAA106016091AY161061AY221061GF108991051051008001021999MA1999999101321MD1999999+0161MW1021REMSYN082AAXX  07184 83398 21596 80000 10251 20244 30132 40137 70262 8552/ 333 58016 60161;
0213833980999992007040800004-15667-038950FM-12+000599999V0202301N001010450019N0010001N1+02361+02281101521ADDAA106002091AY161061AY221061GF107991041051008001021001KA1240M+03051MA1999999101471MD1999999+0071MW1021REMSYN100AAXX  08004 83398 21594 72302 10236 20228 30147 40152 70262 84520 333 10305 29092 55044 58007 60021;
0201833980999992007040812004-15667-038950FM-12+000599999V0201401N002610450019N0040001N1+02521+02401101571ADDAA124021191AY161061AY221061GF106991041051008001021001KA1240N+02271MA1999999101521MD1999999-0091MW1021REMSYN088AAXX  08124 83398 21596 61405 10252 20240 30152 40157 70262 84520 333 20227 59009 60214;
0137833980999992007040818004-15667-038950FM-12+000599999V0200501N004612200019N0040001N1+02841+02331101141ADDGF104991021021008001041001MA1999999101091MD1999999-0231REMSYN070AAXX  08184 83398 32596 40509 10284 20233 30109 40114 82240 333 59023;
0168833980999992007040900004-15667-038950FM-12+000599999V0209999C000012200019N0010001N1+02371+02271101361ADDGF102991011011008001041001KA1240M+03011MA1999999101311MD1999999-0161REMSYN088AAXX  09004 83398 32594 20000 10237 20227 30131 40136 81140 333 10301 29089 55059 59016;
0137833980999992007040918004-15667-038950FM-12+000599999V0203201N006712200019N0040001N1+02881+02281100931ADDGF103991021011008001041001MA1999999100881MD1999999-0211REMSYN070AAXX  09184 83398 32596 33213 10288 20228 30088 40093 82140 333 59021;
0168833980999992007041000004-15667-038950FM-12+000599999V0200501N002612200019N0010001N1+02661+02311101171ADDGF104991021021008001041001KA1240M+03021MA1999999101121MD1999999-0191REMSYN088AAXX  10004 83398 32594 40505 10266 20231 30112 40117 82240 333 10302 29076 55088 59019;
0156833980999992007041012004-15667-038950FM-12+000599999V0203601N004610075019N0040001N1+02821+02401101371ADDGF108991051051008001021999KA1240N+02311MA1999999101321MD1999999+0001REMSYN076AAXX  10124 83398 32596 83609 10282 20240 30132 40137 8552/ 333 20231 58000;
0137833980999992007041018004-15667-038950FM-12+000599999V0203601N003110075019N0040001N1+02831+02341101111ADDGF108991051051008001021999MA1999999101061MD1999999+0181REMSYN070AAXX  10184 83398 32596 83606 10283 20234 30106 40111 8552/ 333 58018;
0168833980999992007041100004-15667-038950FM-12+000599999V0209999C000010075019N0010001N1+02561+02421101471ADDGF108991051051008001021999KA1240M+03041MA1999999101421MD1999999+0301REMSYN088AAXX  11004 83398 32594 80000 10256 20242 30142 40147 8552/ 333 10304 29084 55022 58030;
0201833980999992007041112004-15667-038950FM-12+000599999V0209999C000010075019N0040001N1+02401+02281101751ADDAA124015091AY161061AY221061GF108991051051008001021999KA1240N+02141MA1999999101691MD1999999+0371MW1021REMSYN088AAXX  11124 83398 21596 80000 10240 20228 30169 40175 70262 8552/ 333 20214 58037 60154;
0137833980999992007041118004-15667-038950FM-12+000599999V0209999C000010075019N0040001N1+02801+02361101491ADDGF108991051051008001021999MA1999999101441MD1999999+0381REMSYN070AAXX  11184 83398 32596 80000 10280 20236 30144 40149 8552/ 333 58038;
0168833980999992007041200004-15667-038950FM-12+000599999V0209999C000012200019N0010001N1+02421+02331101771ADDGF104991021021008001041001KA1240M+02831MA1999999101711MD1999999+0291REMSYN088AAXX  12004 83398 32594 40000 10242 20233 30171 40177 82240 333 10283 29090 55001 58029;
0201833980999992007041212004-15667-038950FM-12+000599999V0201401N001010450019N0040001N1+02471+02401101881ADDAA124009991AY161061AY221061GF107991041051008001021001KA1240N+02111MA1999999101821MD1999999+0131MW1021REMSYN088AAXX  12124 83398 21596 71402 10247 20240 30182 40188 70262 84520 333 20211 58013 60104;
0182833980999992007041218004-15667-038950FM-12+000599999V0209999C000010075019N0040001N1+02491+02401101561ADDAA106001091AY161061AY221061GF108991051051008001021999MA1999999101511MD1999999+0071MW1021REMSYN082AAXX  12184 83398 21596 80000 10249 20240 30151 40156 70262 8552/ 333 58007 60011;
0213833980999992007041300004-15667-038950FM-12+000599999V0209999C000010075019N0010001N1+02241+02221101921ADDAA106040991AY161061AY221061GF108991051051008001021999KA1240M+02941MA1999999101861MD1999999+0151MW1621REMSYN100AAXX  13004 83398 21594 80000 10224 20222 30186 40192 76262 8552/ 333 10294 29097 55041 58015 60411;
0201833980999992007041312004-15667-038950FM-12+000599999V0202301N002110450019N0040001N1+02641+02251101821ADDAA124046091AY161061AY221061GF106991041051008001041001KA1240N+02141MA1999999101761MD1999999-0061MW1021REMSYN088AAXX  13124 83398 21596 62304 10264 20225 30176 40182 70262 84540 333 20214 59006 60464;
0182833980999992007041318004-15667-038950FM-12+000599999V0209999C000010450019N0040001N1+02701+02331101511ADDAA106000591AY151061AY211061GF106991041051008001021001MA1999999101461MD1999999-0051MW1021REMSYN082AAXX  13184 83398 21596 60000 10270 20233 30146 40151 70251 84520 333 59005 69941;
0168833980999992007041400004-15667-038950FM-12+000599999V0209999C000012200019N0010001N1+02341+02261101721ADDGF102991011011008001041001KA1240M+02901MA1999999101661MD1999999-0201REMSYN088AAXX  14004 83398 32594 20000 10234 20226 30166 40172 81140 333 10290 29087 55072 59020;
0201833980999992007041412004-15667-038950FM-12+000599999V0209999C000010450019N0040001N1+02681+02311101811ADDAA124016091AY161061AY221061GF107991041051008001021001KA1240N+02171MA1999999101751MD1999999-0011MW1021REMSYN088AAXX  14124 83398 21596 70000 10268 20231 30175 40181 70262 84520 333 20217 59001 60164;
0137833980999992007041418004-15667-038950FM-12+000599999V0201401N001010450019N0040001N1+02861+02481101441ADDGF106991041051008001041001MA1999999101391MD1999999-0071REMSYN070AAXX  14184 83398 32596 61402 10286 20248 30139 40144 84540 333 59007;
0168833980999992007041500004-15667-038950FM-12+000599999V0201401N002112200019N0010001N1+02381+02291101711ADDGF103991021021008001041001KA1240M+03051MA1999999101651MD1999999-0011REMSYN088AAXX  15004 83398 32594 31404 10238 20229 30165 40171 82240 333 10305 29086 55067 59001;
0201833980999992007041512004-15667-038950FM-12+000599999V0202301N004110450019N0040001N1+02641+02461101791ADDAA124002091AY161061AY221061GF107991041051008001021001KA1240N+02261MA1999999101731MD1999999-0021MW1021REMSYN088AAXX  15124 83398 21596 72308 10264 20246 30173 40179 70262 84520 333 20226 59002 60024;
0182833980999992007041518004-15667-038950FM-12+000599999V0209999C000010075019N0040001N1+02481+02341101491ADDAA106014091AY161061AY221061GF108991051051008001021999MA1999999101441MD1999999+0051MW1021REMSYN082AAXX  15184 83398 21596 80000 10248 20234 30144 40149 70262 8552/ 333 58005 60141;
0201833980999992007041612004-15667-038950FM-12+000599999V0202301N001510450019N0040001N1+02441+02351101761ADDAA124015091AY151061AY221061GF107991041051008001021001KA1240N+02131MA1999999101701MD1999999+0031MW1021REMSYN088AAXX  16124 83398 21596 72303 10244 20235 30170 40176 70252 84520 333 20213 58003 60154;
0137833980999992007041618004-15667-038950FM-12+000599999V0200901N004610450019N0040001N1+02821+02311101371ADDGF105991031051008001041001MA1999999101321MD1999999-0121REMSYN070AAXX  16184 83398 32596 50909 10282 20231 30132 40137 83540 333 59012;
0168833980999992007041700004-15667-038950FM-12+000599999V0202301N002110450019N0010001N1+02401+02351101551ADDGF105991031051008001041001KA1240M+02931MA1999999101501MD1999999-0181REMSYN088AAXX  17004 83398 32594 52304 10240 20235 30150 40155 83540 333 10293 29091 55058 59018;
0201833980999992007041712004-15667-038950FM-12+000599999V0202301N002112200019N0040001N1+02601+02371101541ADDAA124002091AY161061AY221061GF104991021021008001041001KA1240N+02181MA1999999101491MD1999999-0211MW1021REMSYN088AAXX  17124 83398 21596 42304 10260 20237 30149 40154 70262 82240 333 20218 59021 60024;
0137833980999992007041718004-15667-038950FM-12+000599999V0201401N003610450019N0040001N1+02701+02411101201ADDGF106991041051008001041001MA1999999101151MD1999999-0171REMSYN070AAXX  17184 83398 32596 61407 10270 20241 30115 40120 84540 333 59017;
0168833980999992007041800004-15667-038950FM-12+000599999V0209999C000012200019N0010001N1+02421+02351101411ADDGF104991021051008001041001KA1240M+02951MA1999999101361MD1999999-0141REMSYN088AAXX  18004 83398 32594 40000 10242 20235 30136 40141 82540 333 10295 29091 55078 59014;
0201833980999992007041812004-15667-038950FM-12+000599999V0201401N001510075019N0040001N1+02481+02431101511ADDAA124008991AY161061AY221061GF108991051051008001021999KA1240N+02291MA1999999101461MD1999999-0031MW1621REMSYN088AAXX  18124 83398 21596 81403 10248 20243 30146 40151 76262 8552/ 333 20229 59003 60094;
0182833980999992007041818004-15667-038950FM-12+000599999V0201401N001010075019N0040001N1+02521+02321101241ADDAA106002091AY161061AY221061GF108991051051008001021999MA1999999101191MD1999999+0041MW1021REMSYN082AAXX  18184 83398 21596 81402 10252 20232 30119 40124 70262 8552/ 333 58004 60021;
0213833980999992007041900004-15667-038950FM-12+000599999V0202301N001010075019N0010001N1+02371+02321101551ADDAA106004191AY161061AY221061GF108991051051008001021999KA1240M+02841MA1999999101501MD1999999+0141MW1021REMSYN100AAXX  19004 83398 21594 82302 10237 20232 30150 40155 70262 8552/ 333 10284 29095 55025 58014 60041;
0201833980999992007041912004-15667-038950FM-12+000599999V0201401N002610075019N0040001N1+02401+02331101591ADDAA124008991AY161061AY221061GF108991051051008001021999KA1240N+02241MA1999999101541MD1999999+0081MW1521REMSYN088AAXX  19124 83398 21596 81405 10240 20233 30154 40159 75262 8552/ 333 20224 58008 60094;
0182833980999992007041918004-15667-038950FM-12+000599999V0201401N004610075019N0040001N1+02861+02371101361ADDAA106000021AY151061AY221061GF108991051051008001021999MA1999999101311MD1999999+0121MW1021REMSYN082AAXX  19184 83398 21596 81409 10286 20237 30131 40136 70252 8552/ 333 58012 69921;
0213833980999992007042000004-15667-038950FM-12+000599999V0202301N001510075019N0010001N1+02431+02361101581ADDAA106003091AY161061AY221061GF108991051051008001021999KA1240M+02921MA1999999101531MD1999999+0031MW1021REMSYN100AAXX  20004 83398 21594 82303 10243 20236 30153 40158 70262 8552/ 333 10292 29091 55043 58003 60031;
0201833980999992007042012004-15667-038950FM-12+000599999V0201401N001510075019N0040001N1+02601+02461101691ADDAA124006191AY161061AY221061GF108991051051008001021999KA1240N+02281MA1999999101631MD1999999+0091MW1021REMSYN088AAXX  20124 83398 21596 81403 10260 20246 30163 40169 70262 8552/ 333 20228 58009 60064;
0182833980999992007042018004-15667-038950FM-12+000599999V0201401N002110075019N0040001N1+02721+02321101391ADDAA106005191AY161061AY221061GF108991051051008001021999MA1999999101341MD1999999+0031MW1021REMSYN082AAXX  20184 83398 21596 81404 10272 20232 30134 40139 70262 8552/ 333 58003 60051;
0168833980999992007042100004-15667-038950FM-12+000599999V0209999C000012200019N0010001N1+02421+02351101591ADDGF104991021021008001041001KA1240M+02961MA1999999101541MD1999999+0011REMSYN088AAXX  21004 83398 32594 40000 10242 20235 30154 40159 82240 333 10296 29091 55023 58001;
0201833980999992007042112004-15667-038950FM-12+000599999V0202301N002610075019N0040001N1+02441+02391101661ADDAA124026991AY161061AY221061GF108991051051008001021999KA1240N+02291MA1999999101601MD1999999-0031MW1021REMSYN088AAXX  21124 83398 21596 82305 10244 20239 30160 40166 70262 8552/ 333 20229 59003 60274;
0182833980999992007042118004-15667-038950FM-12+000599999V0200501N003110450019N0040001N1+02861+02371101341ADDAA106004191AY161061AY221061GF106991041051008001021001MA1999999101291MD1999999-0051MW1021REMSYN082AAXX  21184 83398 21596 60506 10286 20237 30129 40134 70262 84520 333 59005 60041;
0168833980999992007042200004-15667-038950FM-12+000599999V0209999C000010450019N0010001N1+02391+02341101521ADDGF105991031051008001041001KA1240M+02901MA1999999101471MD1999999-0071REMSYN088AAXX  22004 83398 32594 50000 10239 20234 30147 40152 83540 333 10290 29092 55034 59007;
0201833980999992007042212004-15667-038950FM-12+000599999V0201401N001010075019N0040001N1+02641+02391101591ADDAA124007191AY161061AY221061GF108991051051008001021999KA1240N+02251MA1999999101541MD1999999-0061MW1021REMSYN088AAXX  22124 83398 21596 81402 10264 20239 30154 40159 70262 8552/ 333 20225 59006 60074;
0137833980999992007042218004-15667-038950FM-12+000599999V0200501N001010450019N0040001N1+02841+02241101361ADDGF105991031051008001041001MA1999999101311MD1999999+0021REMSYN070AAXX  22184 83398 32596 50502 10284 20224 30131 40136 83540 333 58002;
0168833980999992007042300004-15667-038950FM-12+000599999V0209999C000010450019N0010001N1+02371+02301101571ADDGF106991041051008001041001KA1240M+02951MA1999999101521MD1999999+0051REMSYN088AAXX  23004 83398 32594 60000 10237 20230 30152 40157 84540 333 10295 29087 55068 58005;
0156833980999992007042312004-15667-038950FM-12+000599999V0201401N003110450019N0040001N1+02741+02341101671ADDGF106991041051008001041001KA1240N+02091MA1999999101611MD1999999+0071REMSYN076AAXX  23124 83398 32596 61406 10274 20234 30161 40167 84540 333 20209 58007;
0137833980999992007042318004-15667-038950FM-12+000599999V0201401N003110450019N0040001N1+02861+02231101401ADDGF105991031051008001041001MA1999999101351MD1999999+0041REMSYN070AAXX  23184 83398 32596 51406 10286 20223 30135 40140 83540 333 58004;
0213833980999992007042400004-15667-038950FM-12+000599999V0209999C000010450019N0010001N1+02381+02311101581ADDAA106001091AY161061AY221061GF106991041051008001021001KA1240M+03011MA1999999101531MD1999999+0011MW1021REMSYN100AAXX  24004 83398 21594 60000 10238 20231 30153 40158 70262 84520 333 10301 29085 55078 58001 60011;
0173833980999992007042412004-15667-038950FM-12+000599999V0202301N002110450019N0040001N1+02671+02381101671ADDAA124001091GF105991031021008001041001KA1240N+02161MA1999999101611MD1999999+0001REMSYN082AAXX  24124 83398 22596 52304 10267 20238 30161 40167 83240 333 20216 58000 60014;
0137833980999992007042418004-15667-038950FM-12+000599999V0200901N002110450019N0040001N1+02841+02261101311ADDGF105991031051008001041001MA1999999101261MD1999999-0091REMSYN070AAXX  24184 83398 32596 50904 10284 20226 30126 40131 83540 333 59009;
0168833980999992007042500004-15667-038950FM-12+000599999V0200501N001010450019N0010001N1+02461+02271101511ADDGF107991041051008001021001KA1240M+02991MA1999999101461MD1999999-0071REMSYN088AAXX  25004 83398 32594 70502 10246 20227 30146 40151 84520 333 10299 29083 55064 59007;
0201833980999992007042512004-15667-038950FM-12+000599999V0202301N003110450019N0040001N1+02591+02361101641ADDAA124002091AY161061AY221061GF105991031051008001041001KA1240N+02141MA1999999101581MD1999999-0031MW1021REMSYN088AAXX  25124 83398 21596 52306 10259 20236 30158 40164 70262 83540 333 20214 59003 60024;
0137833980999992007042518004-15667-038950FM-12+000599999V0200501N004110450019N0040001N1+02801+02151101291ADDGF105991031051008001041001MA1999999101241MD1999999-0021REMSYN070AAXX  25184 83398 32596 50508 10280 20215 30124 40129 83540 333 59002;
0168833980999992007042600004-15667-038950FM-12+000599999V0209999C000012200019N0010001N1+02401+02191101411ADDGF104991021021008001041001KA1240M+02961MA1999999101361MD1999999-0101REMSYN088AAXX  26004 83398 32594 40000 10240 20219 30136 40141 82240 333 10296 29083 55058 59010;
0156833980999992007042612004-15667-038950FM-12+000599999V0209999C000010075019N0040001N1+02541+02291101511ADDGF108991051051008001021999KA1240N+02031MA1999999101461MD1999999-0121REMSYN076AAXX  26124 83398 32596 80000 10254 20229 30146 40151 8552/ 333 20203 59012;
0182833980999992007042618004-15667-038950FM-12+000599999V0200501N003610450019N0040001N1+02801+02181101151ADDAA106002091AY161061AY221061GF105991031051008001041001MA1999999101101MD1999999-0141MW1021REMSYN082AAXX  26184 83398 21596 50507 10280 20218 30110 40115 70262 83540 333 59014 60021;
0168833980999992007042700004-15667-038950FM-12+000599999V0209999C000012200019N0010001N1+02561+02231101361ADDGF104991021021008001041001KA1240M+02881MA1999999101311MD1999999-0051REMSYN088AAXX  27004 83398 32594 40000 10256 20223 30131 40136 82240 333 10288 29080 55070 59005;
0173833980999992007042712004-15667-038950FM-12+000599999V0209999C000010075019N0040001N1+02621+02461101501ADDAA124002091GF108991051051008001021999KA1240N+02211MA1999999101451MD1999999-0011REMSYN082AAXX  27124 83398 22596 80000 10262 20246 30145 40150 8552/ 333 20221 59001 60024;
0137833980999992007042718004-15667-038950FM-12+000599999V0200501N004112200019N0040001N1+02841+02241101181ADDGF104991021011008001041001MA1999999101131MD1999999+0031REMSYN070AAXX  27184 83398 32596 40508 10284 20224 30113 40118 82140 333 58003;
0168833980999992007042800004-15667-038950FM-12+000599999V0209999C000012200019N0010001N1+02371+02231101431ADDGF104991021021008001041001KA1240M+02951MA1999999101381MD1999999+0071REMSYN088AAXX  28004 83398 32594 40000 10237 20223 30138 40143 82240 333 10295 29086 55037 58007;
0156833980999992007042812004-15667-038950FM-12+000599999V0209999C000012200019N0040001N1+02701+02371101801ADDGF104991021021008001041001KA1240N+02121MA1999999101741MD1999999+0291REMSYN076AAXX  28124 83398 32596 40000 10270 20237 30174 40180 82240 333 20212 58029;
0137833980999992007042818004-15667-038950FM-12+000599999V0201401N006212200019N0040001N1+02881+02131101551ADDGF103991011011008001041001MA1999999101501MD1999999+0371REMSYN070AAXX  28184 83398 32596 31412 10288 20213 30150 40155 81140 333 58037;
0168833980999992007042900004-15667-038950FM-12+000599999V0202301N001512200019N0010001N1+02351+02251101851ADDGF103991021021008001041001KA1240M+03031MA1999999101791MD1999999+0411REMSYN088AAXX  29004 83398 32594 32303 10235 20225 30179 40185 82240 333 10303 29084 55084 58041;
0156833980999992007042912004-15667-038950FM-12+000599999V0201401N003610075019N0040001N1+02561+02251101921ADDGF108991051051008001021999KA1240N+02131MA1999999101861MD1999999+0121REMSYN076AAXX  29124 83398 32596 81407 10256 20225 30186 40192 8552/ 333 20213 58012;
0137833980999992007042918004-15667-038950FM-12+000599999V0201401N002610450019N0040001N1+02811+02231101471ADDGF106991041051008001021001MA1999999101421MD1999999-0081REMSYN070AAXX  29184 83398 32596 61405 10281 20223 30142 40147 84520 333 59008;
0168833980999992007043000004-15667-038950FM-12+000599999V0202301N002110450019N0010001N1+02321+02241101651ADDGF107991041051008001021001KA1240M+02881MA1999999101591MD1999999-0201REMSYN088AAXX  30004 83398 32594 72304 10232 20224 30159 40165 84520 333 10288 29086 55043 59020;
0156833980999992007043012004-15667-038950FM-12+000599999V0202301N002110450019N0040001N1+02621+02271101641ADDGF106991031051008001041001KA1240N+02161MA1999999101581MD1999999-0281REMSYN076AAXX  30124 83398 32596 62304 10262 20227 30158 40164 83540 333 20216 59028;
0137833980999992007043018004-15667-038950FM-12+000599999V0200501N003610450019N0040001N1+02751+02291101331ADDGF106991031021008001041001MA1999999101281MD1999999-0141REMSYN070AAXX  30184 83398 32596 60507 10275 20229 30128 40133 83240 333 59014;
0168833980999992007050100004-15667-038950FM-12+000599999V0209999C000010450019N0010001N1+02361+02311101551ADDGF105991031021008001041001KA1240M+02951MA1999999101501MD1999999-0091REMSYN088AAXX  01004 83398 32594 50000 10236 20231 30150 40155 83240 333 10295 29088 55053 59009;
0156833980999992007050112004-15667-038950FM-12+000599999V0201401N003110450019N0040001N1+02701+02371101581ADDGF106991041051008001041001KA1240N+02181MA1999999101531MD1999999-0051REMSYN076AAXX  01124 83398 32596 61406 10270 20237 30153 40158 84540 333 20218 59005;
0182833980999992007050118004-15667-038950FM-12+000599999V0202701N003110450019N0040001N1+02651+02281101281ADDAA106010991AY161061AY221061GF106991041051004501041001MA1999999101231MD1999999-0051MW1011REMSYN082AAXX  01184 83398 21496 62706 10265 20228 30123 40128 70162 84540 333 59005 60111;
0168833980999992007050200004-15667-038950FM-12+000599999V0209999C000010450019N0010001N1+02301+02221101571ADDGF107991041051008001021001KA1240M+02851MA1999999101521MD1999999+0021REMSYN088AAXX  02004 83398 32594 70000 10230 20222 30152 40157 84520 333 10285 29088 55040 58002;
0173833980999992007050212004-15667-038950FM-12+000599999V0202301N003112200019N0040001N1+02581+02331101691ADDAA124010991GF104991011011008001041001KA1240N+02061MA1999999101631MD1999999+0101REMSYN082AAXX  02124 83398 22596 42306 10258 20233 30163 40169 81140 333 20206 58010 60114;
0137833980999992007050218004-15667-038950FM-12+000599999V0201401N004112200019N0040001N1+02781+02091101321ADDGF103991021011008001041001MA1999999101271MD1999999+0041REMSYN070AAXX  02184 83398 32596 31408 10278 20209 30127 40132 82140 333 58004;
0168833980999992007050300004-15667-038950FM-12+000599999V0209999C000012200019N0010001N1+02201+02131101561ADDGF103991031011008001001001KA1240M+02971MA1999999101511MD1999999-0011REMSYN088AAXX  03004 83398 32594 30000 10220 20213 30151 40156 83100 333 10297 29086 55081 59001;
0156833980999992007050312004-15667-038950FM-12+000599999V0202301N002112200019N0040001N1+02591+02221101721ADDGF102991011011008001041001KA1240N+01921MA1999999101661MD1999999+0031REMSYN076AAXX  03124 83398 32596 22304 10259 20222 30166 40172 81140 333 20192 58003;
0137833980999992007050318004-15667-038950FM-12+000599999V0201401N003612200019N0040001N1+02741+02121101371ADDGF104991021021008001041001MA1999999101321MD1999999-0051REMSYN070AAXX  03184 83398 32596 41407 10274 20212 30132 40137 82240 333 59005;
0168833980999992007050400004-15667-038950FM-12+000599999V0209999C000012200019N0010001N1+02101+02031101611ADDGF101991011011008001001001KA1240M+02881MA1999999101551MD1999999+0041REMSYN088AAXX  04004 83398 32594 10000 10210 20203 30155 40161 81100 333 10288 29085 55080 58004;
0156833980999992007050412004-15667-038950FM-12+000599999V0202301N004612200019N0040001N1+02471+02061101791ADDGF103991021011008001041001KA1240N+01771MA1999999101721MD1999999+0061REMSYN076AAXX  04124 83398 32596 32309 10247 20206 30172 40179 82140 333 20177 58006;
0137833980999992007050418004-15667-038950FM-12+000599999V0201401N002612200019N0040001N1+02811+01791101521ADDGF104991021011008001041001MA1999999101471MD1999999+0151REMSYN070AAXX  04184 83398 32596 41405 10281 20179 30147 40152 82140 333 58015;
0168833980999992007050500004-15667-038950FM-12+000599999V0209999C000012200019N0010001N1+02191+02091101711ADDGF104991021021008001041001KA1240M+02931MA1999999101651MD1999999+0101REMSYN088AAXX  05004 83398 32594 40000 10219 20209 30165 40171 82240 333 10293 29080 55082 58010;
0201833980999992007050512004-15667-038950FM-12+000599999V0201401N008710075019N0040001N1+02591+02161101761ADDAA124002091AY161061AY221061GF108991051051008001021999KA1240N+02081MA1999999101701MD1999999-0021MW1021REMSYN088AAXX  05124 83398 21596 81417 10259 20216 30170 40176 70262 8552/ 333 20208 59002 60024;
0182833980999992007050518004-15667-038950FM-12+000599999V0201401N003110075019N0040001N1+02401+02351101441ADDAA106003091AY161061AY221061GF108991051051008001021999MA1999999101391MD1999999-0081MW1521REMSYN082AAXX  05184 83398 21596 81406 10240 20235 30139 40144 75262 8552/ 333 59008 60031;
0213833980999992007050600004-15667-038950FM-12+000599999V0201401N002610075019N0010001N1+02281+02281101631ADDAA106007991AY161061AY221061GF108991051051008001021999KA1240M+02621MA1999999101571MD1999999-0081MW1521REMSYN100AAXX  06004 83398 21594 81405 10228 20228 30157 40163 75262 8552/ 333 10262 29094 55009 59008 60081;
0201833980999992007050612004-15667-038950FM-12+000599999V0200501N002110075019N0040001N1+02561+02361101631ADDAA124086191AY161061AY221061GF108991051051008001021999KA1240N+02251MA1999999101571MD1999999-0131MW1021REMSYN088AAXX  06124 83398 21596 80504 10256 20236 30157 40163 70262 8552/ 333 20225 59013 60864;
0137833980999992007050618004-15667-038950FM-12+000599999V0200501N002612200019N0040001N1+02821+02331101361ADDGF104991021021008001041001MA1999999101311MD1999999-0081REMSYN070AAXX  06184 83398 32596 40505 10282 20233 30131 40136 82240 333 59008;
0168833980999992007050700004-15667-038950FM-12+000599999V0209999C000012200019N0010001N1+02361+02261101551ADDGF104991021021008001041001KA1240M+02951MA1999999101501MD1999999-0071REMSYN088AAXX  07004 83398 32594 40000 10236 20226 30150 40155 82240 333 10295 29088 55058 59007;
0201833980999992007050712004-15667-038950FM-12+000599999V0209999C000012200019N0040001N1+02571+02241101541ADDAA124000591AY151061AY211061GF103991021011008001041001KA1240N+01991MA1999999101491MD1999999-0081MW1011REMSYN088AAXX  07124 83398 21596 30000 10257 20224 30149 40154 70151 82140 333 20199 59008 69944;
0137833980999992007050718004-15667-038950FM-12+000599999V0201401N003112200019N0040001N1+02791+02261101221ADDGF104991021021008001041001MA1999999101171MD1999999-0141REMSYN070AAXX  07184 83398 32596 41406 10279 20226 30117 40122 82240 333 59014;
0168833980999992007050800004-15667-038950FM-12+000599999V0209999C000012200019N0010001N1+02301+02271101441ADDGF103991021011008001041001KA1240M+02951MA1999999101391MD1999999-0111REMSYN088AAXX  08004 83398 32594 30000 10230 20227 30139 40144 82140 333 10295 29088 55078 59011;
0220833980999992007050812004-15667-038950FM-12+000599999V0200501N001510075019N0040001N1+02431+02341101581ADDAA124002091AY161061AY221061GF108991999051008001021999KA1240N+02181MA1999999101531MD1999999+0041MW1021REMSYN088AAXX  08124 83398 21596 80503 10243 20234 30153 40158 70262 8852/ 333 20218 58004 60024;EQDQ01+000082SCOTLC
0137833980999992007050818004-15667-038950FM-12+000599999V0200501N001010075019N0040001N1+02681+02411101281ADDGF108991051051008001021999MA1999999101231MD1999999+0061REMSYN070AAXX  08184 83398 32596 80502 10268 20241 30123 40128 8552/ 333 58006;
0232833980999992007050900004-15667-038950FM-12+000599999V0200501N002110450019N0010001N1+02481+02381101431ADDAA106000091AY151061AY211061GF106991041051008001021001KA1240M+02821MA1999999101381MD1999999-0011MW1021REMSYN100AAXX  09004 83398 21594 60504 10248 20238 30138 40143 70251 84520 333 10282 29092 55015 59001 69921;EQDQ01  00002PRCP06
