0198821980999992002010100004-01710-045400FM-12+004499999V0200501N005710450019N0020001N1+02751+02421100951ADDAA199000091GF105991021011017501031001KA1240M+03171MA1999999100441MD1999999-0141REMSYN088AAXX  01004 82198 32795 50511 10275 20242 30044 40095 82130 333 10317 29077 55054 59014;EQDQ01  00002PRCP99
0186821980999992002010112004-01710-045400FM-12+004499999V0200501N002610450019N0100001N1+02961+02491101061ADDAA199000091GF108991041021017501031011KA1240N+02581MA1999999100551MD1999999-0011REMSYN076AAXX  01124 82198 32797 80505 10296 20249 30055 40106 84231 333 20258 59001;EQDQ01  00002PRCP99
0182821980999992002010118004-01710-045400FM-12+004499999V0200501N005710450019N0100001N1+03071+02371100771ADDAA106000591AY161061AY221061GF107991041021017501011011MA1999999100261MD1999999-0071MW1021REMSYN082AAXX  01184 82198 21797 70511 10307 20237 30026 40077 70262 84211 333 59007 69941;
0198821980999992002010200004-01710-045400FM-12+004499999V0200501N002612200019N0020001N1+02691+02371100961ADDAA199000091GF103991021021017501011001KA1240M+03161MA1999999100451MD1999999-0131REMSYN088AAXX  02004 82198 32795 30505 10269 20237 30045 40096 82210 333 10316 29079 55030 59013;EQDQ01  00002PRCP99
0173821980999992002010212004-01710-045400FM-12+004499999V0200501N003110450019N0100001N1+02881+02521101121ADDAA124000591GF108991041051017501011041KA1240N+02561MA1999999100611MD1999999+0051REMSYN082AAXX  02124 82198 32797 80506 10288 20252 30061 40112 84514 333 20256 58005 69944;
0167821980999992002010218004-01710-045400FM-12+004499999V0200501N005710150019N0100001N1+03041+02381100931ADDAA199000091GF108991051051017501011041MA1999999100321MD1999999+0061REMSYN070AAXX  02184 82198 32797 80511 10304 20238 30032 40093 85514 333 58006;EQDQ01  00002PRCP99
0208821980999992002010300004-01710-045400FM-12+004499999V0200501N003112200019N0020001N1+02701+02451101161ADDAA199000091GA1001+999999999GF100991001001999999001001KA1240M+03261MA1999999100651MD1999999+0201REMSYN082AAXX  03004 82198 32995 00506 10270 20245 30065 40116 333 10326 29080 55023 58020;EQDQ01  00002PRCP99
0186821980999992002010312004-01710-045400FM-12+004499999V0200501N004110450019N0100001N1+02791+02461101191ADDAA199000091GF108991041051017501031011KA1240N+02541MA1999999100681MD1999999+0071REMSYN076AAXX  03124 82198 32797 80508 10279 20246 30068 40119 84531 333 20254 58007;EQDQ01  00002PRCP99
0167821980999992002010318004-01710-045400FM-12+004499999V0200501N005710450019N0100001N1+03091+02191100871ADDAA199000091GF106991041021017501041011MA1999999100361MD1999999+0041REMSYN070AAXX  03184 82198 32797 60511 10309 20219 30036 40087 84241 333 58004;EQDQ01  00002PRCP99
0208821980999992002010400004-01710-045400FM-12+004499999V0200501N003612200019N0020001N1+02701+02541101051ADDAA199000091GA1001+999999999GF100991001001999999001001KA1240M+03251MA1999999100541MD1999999-0111REMSYN082AAXX  04004 82198 32995 00507 10270 20254 30054 40105 333 10325 29082 55035 59011;EQDQ01  00002PRCP99
0186821980999992002010412004-01710-045400FM-12+004499999V0200901N003112200019N0100001N1+02961+02471101251ADDAA199000091GF105991031021017501001011KA1240N+02571MA1999999100741MD1999999+0061REMSYN076AAXX  04124 82198 32797 50906 10296 20247 30074 40125 83201 333 20257 58006;EQDQ01  00002PRCP99
0167821980999992002010418004-01710-045400FM-12+004499999V0200501N006710450019N0100001N1+03091+02271100861ADDAA199000091GF107991041021017501041061MA1999999100351MD1999999-0011REMSYN070AAXX  04184 82198 32797 70513 10309 20227 30035 40086 84246 333 59001;EQDQ01  00002PRCP99
0226821980999992002010500004-01710-045400FM-12+004499999V0200501N001512200019N0020001N1+02721+02481101161ADDAA199000091AY111061AY221061GF103991031021017501001001KA1240M+03351MA1999999100651MD1999999+0111MW1131REMSYN094AAXX  05004 82198 31795 30503 10272 20248 30065 40116 71312 83200 333 10335 29078 55076 58011;EQDQ01  00002PRCP99
0182821980999992002010518004-01710-045400FM-12+004499999V0200501N002610150019N0100001N1+02661+02561100951ADDAA106013091AY161061AY291061GF108991051071017501061011MA1999999100441MD1999999+0091MW1021REMSYN082AAXX  05184 82198 21797 80505 10266 20256 30044 40095 70269 85761 333 58009 60131;
0182821980999992002010618004-01710-045400FM-12+004499999V0200501N003110450019N0100001N1+02551+02511100901ADDAA106023991AY161061AY221061GF108991041051017501011041MA1999999100381MD1999999-0061MW1021REMSYN082AAXX  06184 82198 21797 80506 10255 20251 30038 40090 70262 84514 333 59006 60241;
0198821980999992002010700004-01710-045400FM-12+004499999V0203601N001010450019N0020001N1+02491+02351101151ADDAA199000091GF105991021021017501061001KA1240M+02701MA1999999100631MD1999999-0021REMSYN088AAXX  07004 82198 32795 53602 10249 20235 30063 40115 82260 333 10270 29096 55001 59002;EQDQ01  00002PRCP99
0201821980999992002010712004-01710-045400FM-12+004499999V0202701N001510450019N0100001N1+02391+02211101321ADDAA124034091AY161061AY221061GF108991041071017501021001KA1240N+02261MA1999999100801MD1999999+0061MW1031REMSYN088AAXX  07124 82198 21797 82703 10239 20221 30080 40132 70362 84720 333 20226 58006 60344;
0167821980999992002010718004-01710-045400FM-12+004499999V0202301N000510150019N0100001N1+02881+02521100901ADDAA199000091GF108991051071017501021001MA1999999100381MD1999999+0001REMSYN070AAXX  07184 82198 32797 82301 10288 20252 30038 40090 85720 333 58000;EQDQ01  00002PRCP99
0213821980999992002010800004-01710-045400FM-12+004499999V0200501N001510150019N0020001N1+02441+02391101111ADDAA106001091AY161061AY251061GF108991051071017501021001KA1240M+02911MA1999999100591MD1999999-0041MW1151REMSYN100AAXX  08004 82198 21795 80503 10244 20239 30059 40111 71565 85720 333 10291 29091 55000 59004 60011;
0201821980999992002010812004-01710-045400FM-12+004499999V0203601N002110150019N0100001N1+02421+02331101241ADDAA124002091AY161061AY221061GF108991051051017501021001KA1240N+02351MA1999999100721MD1999999-0081MW1021REMSYN088AAXX  08124 82198 21797 83604 10242 20233 30072 40124 70262 85520 333 20235 59008 60024;
0182821980999992002010818004-01710-045400FM-12+004499999V0200501N001510150019N0100001N1+02361+02271100911ADDAA106006191AY161061AY221061GF108991051021017501041001MA1999999100401MD1999999+0021MW1021REMSYN082AAXX  08184 82198 21797 80503 10236 20227 30040 40091 70262 85240 333 58002 60061;
0213821980999992002010900004-01710-045400FM-12+004499999V0209999C000010150019N0020001N1+02281+02231101231ADDAA106004191AY161061AY251061GF108991051051017501021001KA1240M+02951MA1999999100711MD1999999+0121MW1021REMSYN100AAXX  09004 82198 21795 80000 10228 20223 30071 40123 70265 85520 333 10295 29096 55012 58012 60041;
0201821980999992002010912004-01710-045400FM-12+004499999V0200901N001010150019N0100001N1+02271+02231101341ADDAA124037191AY161061AY221061GF108991051011017501071001KA1240N+02101MA1999999100821MD1999999+0101MW1021REMSYN088AAXX  09124 82198 21797 80902 10227 20223 30082 40134 70262 85170 333 20210 58010 60374;
0182821980999992002010918004-01710-045400FM-12+004499999V0200501N002612200019N0100001N1+02931+02171101051ADDAA106000191AY151061AY221061GF104991021021017501061001MA1999999100541MD1999999+0141MW1011REMSYN082AAXX  09184 82198 21797 40505 10293 20217 30054 40105 70152 82260 333 58014 69921;
0198821980999992002011000004-01710-045400FM-12+004499999V0200501N001012200019N0020001N1+02541+02291101261ADDAA199000091GF103991031001017501061001KA1240M+03021MA1999999100741MD1999999+0031REMSYN088AAXX  10004 82198 32795 30502 10254 20229 30074 40126 83060 333 10302 29083 55051 58003;EQDQ01  00002PRCP99
0173821980999992002011012004-01710-045400FM-12+004499999V0200901N002610450019N0100001N1+02691+02371101291ADDAA124000191GF108991021011017501031001KA1240N+02311MA1999999100781MD1999999-0041REMSYN082AAXX  10124 82198 22797 80905 10269 20237 30078 40129 82130 333 20231 59004 69924;
0167821980999992002011018004-01710-045400FM-12+004499999V0200501N006210450019N0100001N1+03061+02301101211ADDAA199000091GF106991031021017501061001MA1999999100501MD1999999-0041REMSYN070AAXX  10184 82198 32797 60512 10306 20230 30050 40121 83260 333 59004;EQDQ01  00002PRCP99
0201821980999992002011112004-01710-045400FM-12+004499999V0201801N002110450019N0100001N1+02421+02301101441ADDAA124004191AY161061AY221061GF108991041071017501011001KA1240N+02251MA1999999100931MD1999999+0151MW1031REMSYN088AAXX  11124 82198 21797 81804 10242 20230 30093 40144 70362 84710 333 20225 58015 60044;
0182821980999992002011218004-01710-045400FM-12+004499999V0200901N002110450019N0100001N1+02461+02281101091ADDAA106004191AY161061AY221061GF108991041021017501041001MA1999999100571MD1999999-0011MW1031REMSYN082AAXX  12184 82198 21797 80904 10246 20228 30057 40109 70362 84240 333 59001 60041;
0173821980999992002011412004-01710-045400FM-12+004499999V0200501N002610150019N0100001N1+02861+02541101251ADDAA124003091GF106991061021017501001001KA1240N+02301MA1999999100741MD1999999+0011REMSYN082AAXX  14124 82198 22797 60505 10286 20254 30074 40125 86200 333 20230 58001 60034;
0170821980999992002011418004-01710-045400FM-12+004499999V0201401N003110450019N0100001N1+02621+02481100941ADDAY161061AY251061GF107991041021017501041001MA1999999100421MD1999999-0031MW1021REMSYN081AAXX  14184 82198 21797 71406 10262 20248 30042 40094 70265 84240 333 59003 0631;
0213821980999992002011500004-01710-045400FM-12+004499999V0203201N001512200019N0020001N1+02561+02401101091ADDAA106016091AY161061AY221061GF103991031001017501061001KA1240M+03041MA1999999100581MD1999999-0101MW1011REMSYN100AAXX  15004 82198 21795 33203 10256 20240 30058 40109 70162 83060 333 10304 29089 55043 59010 60161;
0173821980999992002011512004-01710-045400FM-12+004499999V0203201N001010450019N0100001N1+02641+02541101121ADDAA124079091GF108991041051017501031041KA1240N+02321MA1999999100601MD1999999-0141REMSYN082AAXX  15124 82198 22797 83202 10264 20254 30060 40112 84534 333 20232 59014 60794;
0198821980999992002011600004-01710-045400FM-12+004499999V0200501N001510450019N0020001N1+02571+02461100931ADDAA199000091GF106991041021017501061001KA1240M+03001MA1999999100421MD1999999-0161REMSYN088AAXX  16004 82198 32795 60503 10257 20246 30042 40093 84260 333 10300 29088 55029 59016;EQDQ01  00002PRCP99
0201821980999992002011612004-01710-045400FM-12+004499999V0202701N001510450019N0100001N1+02411+02351101131ADDAA124017091AY161061AY221061GF108991041071017501021001KA1240N+02321MA1999999100611MD1999999+0011MW1021REMSYN088AAXX  16124 82198 21797 82703 10241 20235 30061 40113 70262 84720 333 20232 58001 60174;
0182821980999992002011618004-01710-045400FM-12+004499999V0209999C000010450019N0100001N1+02481+02301100891ADDAA106013091AY161061AY221061GF108991041051017501011011MA1999999100371MD1999999+0151MW1021REMSYN082AAXX  16184 82198 21797 80000 10248 20230 30037 40089 70262 84511 333 58015 60131;
0198821980999992002011700004-01710-045400FM-12+004499999V0203601N002110450019N0020001N1+02401+02311101081ADDAA199000091GF106991041021017501061001KA1240M+02661MA1999999100561MD1999999+0141REMSYN088AAXX  17004 82198 32795 63604 10240 20231 30056 40108 84260 333 10266 29094 55012 58014;EQDQ01  00002PRCP99
0173821980999992002011712004-01710-045400FM-12+004499999V0201401N001510450019N0100001N1+02761+02421101151ADDAA124013091GF106991031021017501041041KA1240N+02251MA1999999100631MD1999999+0021REMSYN082AAXX  17124 82198 22797 61403 10276 20242 30063 40115 83244 333 20225 58002 60134;
0213821980999992002011800004-01710-045400FM-12+004499999V0200501N001010450019N0020001N1+02581+02441101161ADDAA106003091AY161061AY221061GF105991031021017501061001KA1240M+03131MA1999999100641MD1999999+0081MW1131REMSYN100AAXX  18004 82198 21795 50502 10258 20244 30064 40116 71362 83260 333 10313 29086 55045 58008 60031;
0201821980999992002011812004-01710-045400FM-12+004499999V0200901N003610150019N0100001N1+02411+02351101261ADDAA124004191AY161061AY221061GF108991051071017501021001KA1240N+02311MA1999999100741MD1999999+0111MW1031REMSYN088AAXX  18124 82198 21797 80907 10241 20235 30074 40126 70362 85720 333 20231 58011 60044;
0182821980999992002011818004-01710-045400FM-12+004499999V0200901N003110450019N0100001N1+02431+02371101011ADDAA106009991AY161061AY221061GF108991041071017501021001MA1999999100491MD1999999+0091MW1611REMSYN082AAXX  18184 82198 21797 80906 10243 20237 30049 40101 76162 84720 333 58009 60101;
0213821980999992002011900004-01710-045400FM-12+004499999V0200501N001010150019N0020001N1+02421+02321101071ADDAA106000591AY161061AY221061GF105991051021017501001001KA1240M+03291MA1999999100551MD1999999-0091MW1011REMSYN100AAXX  19004 82198 21795 50502 10242 20232 30055 40107 70162 85200 333 10329 29096 55000 59009 69961;
0173821980999992002011912004-01710-045400FM-12+004499999V0201401N001510450019N0100001N1+02601+02501101101ADDAA124009991GF106991031051017501031011KA1240N+02331MA1999999100581MD1999999-0161REMSYN082AAXX  19124 82198 22797 61403 10260 20250 30058 40110 83531 333 20233 59016 60104;
0182821980999992002011918004-01710-045400FM-12+004499999V0200901N004110450019N0100001N1+02421+02281100961ADDAA106004191AY161061AY221061GF108991041071017501061041MA1999999100441MD1999999-0051MW1031REMSYN082AAXX  19184 82198 21797 80908 10242 20228 30044 40096 70362 84764 333 59005 60041;
0173821980999992002012012004-01710-045400FM-12+004499999V0200501N000510450019N0100001N1+02681+02521101201ADDAA124005191GF107991031051017501031041KA1240N+02321MA1999999100681MD1999999+0101REMSYN082AAXX  20124 82198 32797 70501 10268 20252 30068 40120 83534 333 20232 58010 60054;
0198821980999992002012100004-01710-045400FM-12+004499999V0200501N004112200019N0020001N1+02611+02331101221ADDAA199000091GF103991011021017501011011KA1240M+03171MA1999999100701MD1999999+0131REMSYN088AAXX  21004 82198 32795 30508 10261 20233 30070 40122 81211 333 10317 29084 55052 58013;EQDQ01  00002PRCP99
0173821980999992002012112004-01710-045400FM-12+004499999V0200901N002610450019N0100001N1+02851+02501101411ADDAA124000591GF107991041021017501041041KA1240N+02341MA1999999100891MD1999999+0211REMSYN082AAXX  21124 82198 22797 70905 10285 20250 30089 40141 84244 333 20234 58021 69954;
0182821980999992002012118004-01710-045400FM-12+004499999V0203201N001510150019N0100001N1+02591+02421101061ADDAA106018091AY161061AY221061GF108991061071017501021001MA1999999100541MD1999999+0101MW1291REMSYN082AAXX  21184 82198 21797 83203 10259 20242 30054 40106 72962 86720 333 58010 60181;
0213821980999992002012200004-01710-045400FM-12+004499999V0202301N002610450019N0020001N1+02491+02371101401ADDAA106014091AY161061AY221061GF107991041071017501011001KA1240M+02981MA1999999100881MD1999999+0181MW1131REMSYN100AAXX  22004 82198 21795 72305 10249 20237 30088 40140 71362 84710 333 10298 29092 55016 58018 60141;
0201821980999992002012212004-01710-045400FM-12+004499999V0200901N002610450019N0100001N1+02261+02181101571ADDAA124054191AY161061AY221061GF108991031051017501021001KA1240N+02191MA1999999101051MD1999999+0161MW1531REMSYN088AAXX  22124 82198 21797 80905 10226 20218 30105 40157 75362 83520 333 20219 58016 60544;
0182821980999992002012218004-01710-045400FM-12+004499999V0200501N002110450019N0100001N1+02721+02301101341ADDAA106000891AY161061AY221061GF108991041021017501071001MA1999999100831MD1999999+0291MW1021REMSYN082AAXX  22184 82198 21797 80504 10272 20230 30083 40134 70262 84270 333 58029 69981;
0213821980999992002012300004-01710-045400FM-12+004499999V0200901N002610450019N0020001N1+02391+02241101411ADDAA106000391AY161061AY221061GF107991041021017501031041KA1240M+02741MA1999999100891MD1999999+0011MW1021REMSYN100AAXX  23004 82198 21795 70905 10239 20224 30089 40141 70262 84234 333 10274 29088 55000 58001 69931;
0173821980999992002012312004-01710-045400FM-12+004499999V0200901N003110450019N0100001N1+02771+02381101391ADDAA124001091GF105991031021017501061011KA1240N+02221MA1999999100871MD1999999-0181REMSYN082AAXX  23124 82198 22797 50906 10277 20238 30087 40139 83261 333 20222 59018 60014;
0167821980999992002012318004-01710-045400FM-12+004499999V0200501N005712200019N0100001N1+03041+02311101091ADDAA199000091GF104991041021017501001001MA1999999100581MD1999999-0251REMSYN070AAXX  23184 82198 32797 40511 10304 20231 30058 40109 84200 333 59025;EQDQ01  00002PRCP99
0198821980999992002012400004-01710-045400FM-12+004499999V0200501N007012200019N0020001N1+02561+02381101361ADDAA199000091GF104991031021017501061001KA1240M+03121MA1999999100851MD1999999-0041REMSYN088AAXX  24001 82198 32795 40507 10256 20238 30085 40136 83260 333 10312 29081 55093 59004;EQDQ01  00002PRCP99
0156821980999992002012412004-01710-045400FM-12+004499999V0200501N003610450019N0100001N1+02811+02381101361ADDGF106991041021017501061001KA1240N+02401MA1999999100851MD1999999-0021REMSYN076AAXX  24124 82198 22797 60507 10281 20238 30085 40136 84260 333 20240 59002;
0182821980999992002012418004-01710-045400FM-12+004499999V0200501N006210450019N0100001N1+02891+02361100971ADDAA106000391AY161061AY221061GF106991031021017501061011MA1999999100461MD1999999-0121MW1021REMSYN082AAXX  24184 82198 21797 60512 10289 20236 30046 40097 70262 83261 333 59012 69931;
0198821980999992002012500004-01710-045400FM-12+004499999V0200501N002610450019N0020001N1+02661+02411101231ADDAA199000091GF107991041021017501061001KA1240M+03081MA1999999100721MD1999999-0131REMSYN088AAXX  25004 82198 32795 70505 10266 20241 30072 40123 84260 333 10308 29081 55056 59013;EQDQ01  00002PRCP99
0173821980999992002012512004-01710-045400FM-12+004499999V0200501N003610150019N0100001N1+02871+02461101321ADDAA124000391GF106991051021017501061001KA1240N+02451MA1999999100811MD1999999-0041REMSYN082AAXX  25124 82198 22797 60507 10287 20246 30081 40132 85260 333 20245 59004 69934;
0167821980999992002012518004-01710-045400FM-12+004499999V0200501N005110450019N0100001N1+03081+02351100931ADDAA199000091GF105991041021017501061001MA1999999100421MD1999999-0041REMSYN070AAXX  25184 82198 32797 50510 10308 20235 30042 40093 84260 333 59004;EQDQ01  00002PRCP99
0213821980999992002012600004-01710-045400FM-12+004499999V0200501N002110450019N0020001N1+02561+02441101281ADDAA106001091AY161061AY221061GF107991031011017501071001KA1240M+03211MA1999999100761MD1999999+0041MW1031REMSYN100AAXX  26004 82198 21795 70504 10256 20244 30076 40128 70362 83170 333 10321 29082 55073 58004 60011;
0173821980999992002012612004-01710-045400FM-12+004499999V0200901N004610150019N0100001N1+02861+02461101331ADDAA124001091GF106991061021017501001001KA1240N+02441MA1999999100821MD1999999+0011REMSYN082AAXX  26124 82198 22797 60909 10286 20246 30082 40133 86200 333 20244 58001 60014;
0182821980999992002012618004-01710-045400FM-12+004499999V0200501N006210450019N0100001N1+02721+02371101041ADDAA106004191AY161061AY221061GF107991031011017501041001MA1999999100531MD1999999+0111MW1021REMSYN082AAXX  26184 82198 21797 70512 10272 20237 30053 40104 70262 83140 333 58011 60041;
0198821980999992002012700004-01710-045400FM-12+004499999V0200501N003110450019N0020001N1+02641+02441101291ADDAA199000091GF106991031011017501061001KA1240M+03031MA1999999100771MD1999999+0011REMSYN088AAXX  27004 82198 32795 60506 10264 20244 30077 40129 83160 333 10303 29082 55053 58001;EQDQ01  00002PRCP99
0201821980999992002012712004-01710-045400FM-12+004499999V0200901N005110450019N0100001N1+02841+02311101251ADDAA124006191AY161061AY221061GF106991021011017501061011KA1240N+02381MA1999999100741MD1999999-0081MW1021REMSYN088AAXX  27124 82198 21797 60910 10284 20231 30074 40125 70262 82161 333 20238 59008 60064;
0167821980999992002012718004-01710-045400FM-12+004499999V0200901N004110450019N0100001N1+03171+02211100941ADDAA199000091GF105991031021017501061011MA1999999100431MD1999999-0101REMSYN070AAXX  27184 82198 32797 50908 10317 20221 30043 40094 83261 333 59010;EQDQ01  00002PRCP99
0198821980999992002012800004-01710-045400FM-12+004499999V0200901N002612200019N0020001N1+02681+02431101131ADDAA199000091GF104991021021017501061001KA1240M+03231MA1999999100621MD1999999-0151REMSYN088AAXX  28004 82198 32795 40905 10268 20243 30062 40113 82260 333 10323 29076 55079 59015;EQDQ01  00002PRCP99
0186821980999992002012812004-01710-045400FM-12+004499999V0200901N003110450019N0100001N1+02891+02561101181ADDAA199000091GF106991041021017501061001KA1240N+02451MA1999999100671MD1999999-0071REMSYN076AAXX  28124 82198 32797 60906 10289 20256 30067 40118 84260 333 20245 59007;EQDQ01  00002PRCP99
0167821980999992002012818004-01710-045400FM-12+004499999V0200501N003610150019N0100001N1+03051+02501100871ADDAA199000091GF108991051021017501061001MA1999999100361MD1999999-0071REMSYN070AAXX  28184 82198 32797 80507 10305 20250 30036 40087 85260 333 59007;EQDQ01  00002PRCP99
0198821980999992002012900004-01710-045400FM-12+004499999V0200901N003110450019N0020001N1+02701+02481101071ADDAA199000091GF106991031021017501061001KA1240M+03211MA1999999100561MD1999999-0061REMSYN088AAXX  29004 82198 32795 60906 10270 20248 30056 40107 83260 333 10321 29083 55056 59006;EQDQ01  00002PRCP99
0186821980999992002012912004-01710-045400FM-12+004499999V0200901N003110450019N0100001N1+02771+02561101121ADDAA199000091GF107991041051017501061011KA1240N+02541MA1999999100611MD1999999-0061REMSYN076AAXX  29124 82198 32797 70906 10277 20256 30061 40112 84561 333 20254 59006;EQDQ01  00002PRCP99
0182821980999992002012918004-01710-045400FM-12+004499999V0200501N005710450019N0100001N1+02881+02521100881ADDAA106022191AY161061AY221061GF107991041051017501011041MA1999999100361MD1999999+0001MW1021REMSYN082AAXX  29184 82198 21797 70511 10288 20252 30036 40088 70262 84514 333 58000 60221;
0198821980999992002013000004-01710-045400FM-12+004499999V0200501N003110450019N0020001N1+02701+02481101081ADDAA199000091GF108991041051017501011001KA1240M+03111MA1999999100561MD1999999+0001REMSYN088AAXX  30004 82198 32795 80506 10270 20248 30056 40108 84510 333 10311 29086 55027 58000;EQDQ01  00002PRCP99
0173821980999992002013012004-01710-045400FM-12+004499999V0200501N003610450019N0100001N1+02771+02441101121ADDAA124022191GF107991031021017501011041KA1240N+02531MA1999999100601MD1999999-0011REMSYN082AAXX  30124 82198 22797 70507 10277 20244 30060 40112 83214 333 20253 59001 60224;
0182821980999992002013018004-01710-045400FM-12+004499999V0200501N002610150019N0100001N1+02711+02481100961ADDAA106000891AY161061AY221061GF108991061071017501011001MA1999999100441MD1999999+0081MW1021REMSYN082AAXX  30184 82198 21797 80505 10271 20248 30044 40096 70262 86710 333 58008 69981;
0198821980999992002013100004-01710-045400FM-12+004499999V0200501N002610450019N0020001N1+02641+02481101041ADDAA199000091GF107991041021017501011011KA1240M+03041MA1999999100521MD1999999-0041REMSYN088AAXX  31004 82198 32795 70505 10264 20248 30052 40104 84211 333 10304 29088 55017 59004;EQDQ01  00002PRCP99
0173821980999992002013112004-01710-045400FM-12+004499999V0200501N002110450019N0100001N1+02891+02461101141ADDAA124000891GF106991041021017501061011KA1240N+02511MA1999999100621MD1999999+0021REMSYN082AAXX  31124 82198 22797 60504 10289 20246 30062 40114 84261 333 20251 58002 69984;
0167821980999992002013118004-01710-045400FM-12+004499999V0203601N006210450019N0100001N1+03071+02371100851ADDAA199000091GF106991031021017501031091MA1999999100331MD1999999-0111REMSYN070AAXX  31184 82198 32797 63612 10307 20237 30033 40085 83239 333 59011;EQDQ01  00002PRCP99
0226821980999992002020100004-01710-045400FM-12+004499999V0200501N006710450019N0020001N1+02651+02391101131ADDAA199000091AY121061AY221061GF108991041021017501061001KA1240M+03181MA1999999100621MD1999999+0101MW1131REMSYN094AAXX  01004 82198 31795 80513 10265 20239 30062 40113 71322 84260 333 10318 29080 55082 58010;EQDQ01  00002PRCP99
0186821980999992002020112004-01710-045400FM-12+004499999V0200501N001010450019N0100001N1+02711+02411101251ADDAA199000091GF107991041021017501031041KA1240N+02401MA1999999100731MD1999999+0111REMSYN076AAXX  01124 82198 32797 70502 10271 20241 30073 40125 84234 333 20240 58011;EQDQ01  00002PRCP99
0182821980999992002020118004-01710-045400FM-12+004499999V0200901N004110150019N0100001N1+02721+02341101051ADDAA106002091AY161061AY221061GF108991051071017501061001MA1999999100531MD1999999+0201MW1201REMSYN082AAXX  01184 82198 21797 80908 10272 20234 30053 40105 72062 85760 333 58020 60021;
0213821980999992002020200004-01710-045400FM-12+004499999V0200901N003610450019N0020001N1+02581+02381101211ADDAA106000191AY121061AY251061GF108991041021017501061001KA1240M+03041MA1999999100691MD1999999+0071MW1021REMSYN100AAXX  02004 82198 21795 80907 10258 20238 30069 40121 70225 84260 333 10304 29086 55012 58007 69911;
0173821980999992002020212004-01710-045400FM-12+004499999V0200501N004110450019N0100001N1+02861+02461101191ADDAA124002091GF107991041021017501031011KA1240N+02311MA1999999100671MD1999999-0061REMSYN082AAXX  02124 82198 21797 70508 10286 20246 30067 40119 84231 333 20231 59006 60024;
0182821980999992002020218004-01710-045400FM-12+004499999V0200501N004610150019N0100001N1+02791+02421101061ADDAA106000191AY121061AY251061GF107991051051017501011001MA1999999100541MD1999999+0011MW1021REMSYN082AAXX  02184 82198 21797 70509 10279 20242 30054 40106 70225 85510 333 58001 69911;
0201821980999992002020300004-01710-045400FM-12+004499999V0200501N006210450019N0100001N1+02341+02201101411ADDAA124009991AY161061AY221061GF108991041051017501061011KA1240N+02191MA1999999100891MD1999999+0221MW1031REMSYN088AAXX  03004 82198 21797 80512 10234 20220 30089 40141 70362 84561 333 20219 58022 60104;
0201821980999992002020312004-01710-045400FM-12+004499999V0200501N006210450019N0100001N1+02341+02201101411ADDAA124009991AY161061AY221061GF108991041051017501061011KA1240N+02191MA1999999100891MD1999999+0221MW1031REMSYN088AAXX  03124 82198 21797 80512 10234 20220 30089 40141 70362 84561 333 20219 58022 60104;
0167821980999992002020318004-01710-045400FM-12+004499999V0200501N004610450019N0100001N1+02951+02291101031ADDAA199000091GF108991041051017501031011MA1999999100511MD1999999-0031REMSYN070AAXX  03184 82198 32797 80509 10295 20229 30051 40103 84531 333 59003;EQDQ01  00002PRCP99
0186821980999992002020412004-01710-045400FM-12+004499999V0200501N003112200019N0100001N1+02901+02521101241ADDAA199000091GF104991031021017501001011KA1240N+02221MA1999999100721MD1999999-0171REMSYN076AAXX  04124 82198 32797 40506 10290 20252 30072 40124 83201 333 20222 59017;EQDQ01  00002PRCP99
0167821980999992002020418004-01710-045400FM-12+004499999V0200501N005112200019N0100001N1+03001+02321100961ADDAA199000091GF104991041021017501001001MA1999999100441MD1999999-0071REMSYN070AAXX  04184 82198 32797 40510 10300 20232 30044 40096 84200 333 59007;EQDQ01  00002PRCP99
0198821980999992002020500004-01710-045400FM-12+004499999V0200501N003612200019N0020001N1+02601+02271101161ADDAA199000091GF103991031021017501001001KA1240M+03141MA1999999100641MD1999999+0021REMSYN088AAXX  05004 82198 32795 30507 10260 20227 30064 40116 83200 333 10314 29080 55090 58002;EQDQ01  00002PRCP99
0201821980999992002020512004-01710-045400FM-12+004499999V0200901N002110450019N0100001N1+02531+02421101331ADDAA124003091AY161061AY221061GF108991041021017501061001KA1240N+02351MA1999999100821MD1999999+0101MW1031REMSYN088AAXX  05124 82198 21797 80904 10253 20242 30082 40133 70362 84260 333 20235 58010 60034;
0167821980999992002020518004-01710-045400FM-12+004499999V0200901N006710150019N0100001N1+03121+02281101061ADDAA199000091GF105991051021017501001001MA1999999100551MD1999999+0111REMSYN070AAXX  05184 82198 32797 50913 10312 20228 30055 40106 85200 333 58011;EQDQ01  00002PRCP99
0198821980999992002020600004-01710-045400FM-12+004499999V0200501N007012200019N0020001N1+02621+02331101231ADDAA199000091GF103991031001017501061001KA1240M+03211MA1999999100721MD1999999+0081REMSYN088AAXX  06000 82198 32795 30507 10262 20233 30072 40123 83060 333 10321 29081 55084 58008;EQDQ01  00002PRCP99
0186821980999992002020612004-01710-045400FM-12+004499999V0200501N005710450019N0100001N1+02831+02381101291ADDAA199000091GF105991041021017501061001KA1240N+02451MA1999999100781MD1999999-0041REMSYN076AAXX  06124 82198 32797 50511 10283 20238 30078 40129 84260 333 20245 59004;EQDQ01  00002PRCP99
0167821980999992002020618004-01710-045400FM-12+004499999V0200501N005110150019N0100001N1+02911+02341101041ADDAA199000091GF108991051021017501061001MA1999999100531MD1999999-0021REMSYN070AAXX  06184 82198 32797 80510 10291 20234 30053 40104 85260 333 59002;EQDQ01  00002PRCP99
0182821980999992002020718004-01710-045400FM-12+004499999V0200501N005710150019N0100001N1+02561+02361100821ADDAA106011991AY161061AY221061GF108991051051017501021001MA1999999100311MD1999999-0221MW1021REMSYN082AAXX  07184 82198 21797 80511 10256 20236 30031 40082 70262 85520 333 59022 60121;
0198821980999992002020800004-01710-045400FM-12+004499999V0200901N002112200019N0020001N1+02551+02441101061ADDAA199000091GF103991031001017501061001KA1240M+03141MA1999999100541MD1999999-0101REMSYN088AAXX  08004 82198 32795 30904 10255 20244 30054 40106 83060 333 10314 29088 55066 59010;EQDQ01  00002PRCP99
0201821980999992002020812004-01710-045400FM-12+004499999V0200901N003610450019N0100001N1+02831+02441101121ADDAA124014091AY161061AY221061GF106991031021017501061001KA1240N+02421MA1999999100601MD1999999-0051MW1021REMSYN088AAXX  08124 82198 21797 60907 10283 20244 30060 40112 70262 83260 333 20242 59005 60144;
0167821980999992002020818004-01710-045400FM-12+004499999V0200501N003110450019N0100001N1+02661+02411100941ADDAA199000091GF108991041051017501041001MA1999999100421MD1999999+0111REMSYN070AAXX  08184 82198 32797 80506 10266 20241 30042 40094 84540 333 58011;EQDQ01  00002PRCP99
0183821980999992002020900004-01710-045400FM-12+004499999V0203601N003110450019N0020001N1+02521+02341101191ADDAA199000091GF105991021011017501061001KA1240M+03111MA1999999100671REMSYN087AAXX  09004 82198 32795 53606 10252 20234 30067 40119 82160 333 10311 29086 55037 5801;EQDQ01  00002PRCP99
0186821980999992002020912004-01710-045400FM-12+004499999V0202301N002110180019N0100001N1+02521+02431101371ADDAA199000091GF108991051081017501041001KA1240N+02411MA1999999100861MD1999999+0261REMSYN076AAXX  09124 82198 32797 82304 10252 20243 30086 40137 85840 333 20241 58026;EQDQ01  00002PRCP99
0167821980999992002020918004-01710-045400FM-12+004499999V0202301N002610450019N0100001N1+02701+02241101111ADDAA199000091GF108991041021017501041001MA1999999100601MD1999999+0181REMSYN070AAXX  09184 82198 32797 82305 10270 20224 30060 40111 84240 333 58018;EQDQ01  00002PRCP99
0198821980999992002021000004-01710-045400FM-12+004499999V0203601N001512200019N0020001N1+02641+02411101221ADDAA199000091GF104991041001017501061001KA1240M+03011MA1999999100701MD1999999+0031REMSYN088AAXX  10004 82198 32795 43603 10264 20241 30070 40122 84060 333 10301 29086 55011 58003;EQDQ01  00002PRCP99
0201821980999992002021012004-01710-045400FM-12+004499999V0201401N001510450019N0100001N1+02741+02481101291ADDAA124000591AY161061AY221061GF105991031021017501031001KA1240N+02331MA1999999100781MD1999999+0001MW1021REMSYN088AAXX  10124 82198 21797 51403 10274 20248 30078 40129 70262 83230 333 20233 59000 69944;
0167821980999992002021018004-01710-045400FM-12+004499999V0200501N005112200019N0100001N1+02951+02351100931ADDAA199000091GF104991021021017501061001MA1999999100421MD1999999-0181REMSYN070AAXX  10184 82198 32797 40510 10295 20235 30042 40093 82260 333 59018;EQDQ01  00002PRCP99
0182821980999992002021118004-01710-045400FM-12+004499999V0200501N003610450019N0100001N1+02751+02501100851ADDAA106005191AY161061AY221061GF108991041051017501021001MA1999999100341MD1999999-0061MW1021REMSYN082AAXX  11184 82198 21797 80507 10275 20250 30034 40085 70262 84520 333 59006 60051;
0232821980999992002021200004-01710-045400FM-12+004499999V0200501N005110150019N0020001N1+02581+02421101141ADDAA106000591AY161061AY221061GF108991051051017501041001KA1240M+99999MA1999999100631MD1999999-0031MW1021REMSYN100AAXX  12004 82198 21795 80510 10258 20242 30063 40114 70262 85540 333 10217 29087 55053 59003 69941;EQDQ01 +02172ATMX  
0201821980999992002021212004-01710-045400FM-12+004499999V0200501N001510150019N0100001N1+02381+02281101391ADDAA124009991AY161061AY221061GF108991061051017501011001KA1240N+02251MA1999999100871MD1999999+0201MW1021REMSYN088AAXX  12124 82198 21797 80503 10238 20228 30087 40139 70262 86510 333 20225 58020 60104;
0182821980999992002021218004-01710-045400FM-12+004499999V0201401N004610150019N0100001N1+02671+02391101171ADDAA106001091AY161061AY251061GF108991051071017501061001MA1999999100581MD1999999+0241MW1021REMSYN082AAXX  12184 82198 21797 81409 10267 20239 30058 40117 70265 85760 333 58024 60011;
0198821980999992002021300004-01710-045400FM-12+004499999V0200901N002110150019N0020001N1+02491+02191101281ADDAA199000091GF108991061071017501021001KA1240M+03081MA1999999100761MD1999999+0071REMSYN088AAXX  13004 82198 32795 80904 10249 20219 30076 40128 86720 333 10308 29090 55009 58007;EQDQ01  00002PRCP99
0173821980999992002021312004-01710-045400FM-12+004499999V0200901N003010450019N0100001N1+02851+02291101241ADDAA124001091GF106991041021017501031011KA1240N+02401MA1999999100721MD1999999-0151REMSYN082AAXX  13120 82198 22797 60903 10285 20229 30072 40124 84231 333 20240 59015 60014;
0148821980999992002021318004-01710-045400FM-12+004499999V0203601N000519999999N0100001N1+02571+02531101071ADDGF108991999999017501999999MA1999999100551MD1999999-0151REMSYN081AAXX  13184 82198 21797 83601 10257 20253 30055 40107 7362 84510 333 59015 60091;
0198821980999992002021400004-01710-045400FM-12+004499999V0201401N001010150019N0020001N1+02551+02461101261ADDAA199000091GF108991061051017501061001KA1240M+02971MA1999999100741MD1999999+0011REMSYN088AAXX  14004 82198 32795 81402 10255 20246 30074 40126 86560 333 10297 29088 55009 58001;EQDQ01  00002PRCP99
0201821980999992002021412004-01710-045400FM-12+004499999V0200901N004110450019N0100001N1+02871+02381101251ADDAA124008991AY161061AY251061GF106991031021017501031011KA1240N+02451MA1999999100731MD1999999+0011MW1011REMSYN088AAXX  14124 82198 21797 60908 10287 20238 30073 40125 70165 83231 333 20245 58001 60094;
0213821980999992002021500004-01710-045400FM-12+004499999V0200501N001510150019N0020001N1+02481+02431101231ADDAA106003091AY161061AY221061GF105991051021017501001001KA1240M+03141MA1999999100711MD1999999-0031MW1011REMSYN100AAXX  15004 82198 21795 50503 10248 20243 30071 40123 70162 85200 333 10314 29090 55043 59003 60031;
0201821980999992002021512004-01710-045400FM-12+004499999V0200501N003610450019N0100001N1+02771+02521101391ADDAA124005191AY161061AY251061GF106991041051017501041091KA1240N+02311MA1999999100871MD1999999+0141MW1031REMSYN088AAXX  15124 82198 21797 60507 10277 20252 30087 40139 70365 84549 333 20231 58014 60054;
0182821980999992002021518004-01710-045400FM-12+004499999V0200501N001510150019N0100001N1+02491+02281101091ADDAA106032091AY161061AY221061GF108991061071017501021001MA1999999100571MD1999999+0101MW1031REMSYN082AAXX  15184 82198 21797 80503 10249 20228 30057 40109 70362 86720 333 58010 60321;
0167821980999992002021618004-01710-045400FM-12+004499999V0200501N005712200019N0100001N1+03061+02451101011ADDAA199000091GF105991031021017501001041MA1999999100491MD1999999-0081REMSYN070AAXX  16184 82198 32797 50511 10306 20245 30049 40101 83204 333 59008;EQDQ01  00002PRCP99
0198821980999992002021700004-01710-045400FM-12+004499999V0200501N003112200019N0020001N1+02671+02391101121ADDAA199000091GF103991031021017501001001KA1240M+03281MA1999999100601MD1999999-0131REMSYN088AAXX  17004 82198 32795 30506 10267 20239 30060 40112 83200 333 10328 29082 55084 59013;EQDQ01  00002PRCP99
0186821980999992002021712004-01710-045400FM-12+004499999V0200901N004112200019N0100001N1+02911+02481101211ADDAA199000091GF105991031021017501001011KA1240N+02431MA1999999100691MD1999999-0051REMSYN076AAXX  17124 82198 32797 50908 10291 20248 30069 40121 83201 333 20243 59005;EQDQ01  00002PRCP99
0167821980999992002021718004-01710-045400FM-12+004499999V0200501N004610450019N0100001N1+03151+02461100961ADDAA199000091GF105991031021017501011041MA1999999100441MD1999999-0051REMSYN070AAXX  17184 82198 32797 50509 10315 20246 30044 40096 83214 333 59005;EQDQ01  00002PRCP99
0198821980999992002021800004-01710-045400FM-12+004499999V0200501N001012200019N0020001N1+02601+02441101051ADDAA199000091GF103991011021017501031011KA1240M+03291MA1999999100531MD1999999-0071REMSYN088AAXX  18004 82198 32795 30502 10260 20244 30053 40105 81231 333 10329 29082 55092 59007;EQDQ01  00002PRCP99
0186821980999992002021812004-01710-045400FM-12+004499999V0200901N002610150019N0100001N1+02911+02581101091ADDAA199000091GF105991051021017501001001KA1240N+02221MA1999999100571MD1999999-0121REMSYN076AAXX  18124 82198 32797 50905 10291 20258 30057 40109 85200 333 20222 59012;EQDQ01  00002PRCP99
0167821980999992002021818004-01710-045400FM-12+004499999V0203601N004610450019N0100001N1+03051+02441100761ADDAA199000091GF105991031021017501041041MA1999999100241MD1999999-0201REMSYN070AAXX  18184 82198 32797 53609 10305 20244 30024 40076 83244 333 59020;EQDQ01  00002PRCP99
0198821980999992002021900004-01710-045400FM-12+004499999V0200501N006210450019N0020001N1+02701+02451101071ADDAA199000091GF106991041021017501061001KA1240M+03171MA1999999100551MD1999999+0021REMSYN088AAXX  19004 82198 32795 60512 10270 20245 30055 40107 84260 333 10317 29082 55077 58002;EQDQ01  00002PRCP99
0186821980999992002021912004-01710-045400FM-12+004499999V0200501N004110150019N0100001N1+02881+02491101151ADDAA199000091GF107991051021017501061001KA1240N+02521MA1999999100641MD1999999+0071REMSYN076AAXX  19124 82198 32797 70508 10288 20249 30064 40115 85260 333 20252 58007;EQDQ01  00002PRCP99
0182821980999992002021918004-01710-045400FM-12+004499999V0200501N004110150019N0100001N1+02831+02521100791ADDAA106002091AY161061AY221061GF108991051051017501041001MA1999999100281MD1999999+0041MW1021REMSYN082AAXX  19184 82198 21797 80508 10283 20252 30028 40079 70262 85540 333 58004 60021;
0213821980999992002022000004-01710-045400FM-12+004499999V0200501N003610450019N0020001N1+02611+02481101041ADDAA106000591AY161061AY221061GF105991021011017501061001KA1240M+03221MA1999999100521MD1999999-0031MW1021REMSYN100AAXX  20004 82198 21795 50507 10261 20248 30052 40104 70262 82160 333 10322 29087 55052 59003 69961;
0173821980999992002022012004-01710-045400FM-12+004499999V0200501N004110150019N0100001N1+02951+02511101191ADDAA124002091GF106991051021017501031001KA1240N+02461MA1999999100681MD1999999+0041REMSYN082AAXX  20124 82198 22797 60508 10295 20251 30068 40119 85230 333 20246 58004 60024;
0167821980999992002022018004-01710-045400FM-12+004499999V0200901N005710150019N0100001N1+03171+02441100831ADDAA199000091GF105991051021017501001001MA1999999100321MD1999999+0041REMSYN070AAXX  20184 82198 32797 50911 10317 20244 30032 40083 85200 333 58004;EQDQ01  00002PRCP99
0198821980999992002022100004-01710-045400FM-12+004499999V0200501N002612200019N0020001N1+02641+02421101011ADDAA199000091GF102991021011017501001001KA1240M+03241MA1999999100501MD1999999-0021REMSYN088AAXX  21004 82198 32795 20505 10264 20242 30050 40101 82100 333 10324 29080 55103 59002;EQDQ01  00002PRCP99
0186821980999992002022112004-01710-045400FM-12+004499999V0200901N003610150019N0100001N1+02941+02491101151ADDAA199000091GF106991061021017501001001KA1240N+02461MA1999999100641MD1999999-0041REMSYN076AAXX  21124 82198 32797 60907 10294 20249 30064 40115 86200 333 20246 59004;EQDQ01  00002PRCP99
0167821980999992002022118004-01710-045400FM-12+004499999V0200901N005112200019N0100001N1+03211+02381100791ADDAA199000091GF104991041021017501001001MA1999999100281MD1999999-0041REMSYN070AAXX  21184 82198 32797 40910 10321 20238 30028 40079 84200 333 59004;EQDQ01  00002PRCP99
0208821980999992002022200004-01710-045400FM-12+004499999V0200901N004112200019N0020001N1+02671+02351100981ADDAA199000091GA1001+999999999GF100991001001999999001001KA1240M+03291MA1999999100471MD1999999-0031REMSYN082AAXX  22004 82198 32995 00908 10267 20235 30047 40098 333 10329 29076 55107 59003;EQDQ01  00002PRCP99
0186821980999992002022212004-01710-045400FM-12+004499999V0200901N003112200019N0100001N1+02951+02421101021ADDAA199000091GF102991021011017501001001KA1240N+02431MA1999999100511MD1999999-0131REMSYN076AAXX  22124 82198 32797 20906 10295 20242 30051 40102 82100 333 20243 59013;EQDQ01  00002PRCP99
0167821980999992002022218004-01710-045400FM-12+004499999V0200901N003110150019N0100001N1+03241+02391100671ADDAA199000091GF105991051021017501001001MA1999999100161MD1999999-0121REMSYN070AAXX  22184 82198 32797 50906 10324 20239 30016 40067 85200 333 59012;EQDQ01  00002PRCP99
0208821980999992002022300004-01710-045400FM-12+004499999V0200501N002612200019N0020001N1+02691+02411100881ADDAA199000091GA1001+999999999GF100991001001999999001001KA1240M+03391MA1999999100371MD1999999-0101REMSYN082AAXX  23004 82198 32995 00505 10269 20241 30037 40088 333 10339 29076 55105 59010;EQDQ01  00002PRCP99
0186821980999992002022312004-01710-045400FM-12+004499999V0200501N003110450019N0100001N1+02961+02491101131ADDAA199000091GF106991041021017501061001KA1240N+02491MA1999999100621MD1999999+0111REMSYN076AAXX  23124 82198 32797 60506 10296 20249 30062 40113 84260 333 20249 58011;EQDQ01  00002PRCP99
0182821980999992002022318004-01710-045400FM-12+004499999V0203601N003110150019N0100001N1+02911+02521100811ADDAA106009991AY161061AY221061GF107991051051017501021001MA1999999100301MD1999999+0141MW1161REMSYN082AAXX  23184 82198 21797 73606 10291 20252 30030 40081 71662 85520 333 58014 60101;
0213821980999992002022400004-01710-045400FM-12+004499999V0200501N003612200019N0020001N1+02671+02461101091ADDAA106002091AY161061AY221061GF102991021011017501001001KA1240M+03261MA1999999100581MD1999999+0211MW1021REMSYN100AAXX  24004 82198 21795 20507 10267 20246 30058 40109 70262 82100 333 10326 29083 55029 58021 60021;
0173821980999992002022412004-01710-045400FM-12+004499999V0200501N002610450019N0100001N1+02811+02541101311ADDAA124010991GF107991021011017501031001KA1240N+02411MA1999999100801MD1999999+0181REMSYN082AAXX  24124 82198 22797 70505 10281 20254 30080 40131 82130 333 20241 58018 60114;
0182821980999992002022418004-01710-045400FM-12+004499999V0200501N004110450019N0100001N1+02831+02581100991ADDAA106016091AY161061AY221061GF107991031021017501041001MA1999999100481MD1999999+0181MW1021REMSYN082AAXX  24184 82198 21797 70508 10283 20258 30048 40099 70262 83240 333 58018 60161;
0167821980999992002022518004-01710-045400FM-12+004499999V0200501N005710150019N0100001N1+03031+02391100891ADDAA199000091GF105991051021017501001001MA1999999100381MD1999999-0101REMSYN070AAXX  25184 82198 32797 50511 10303 20239 30038 40089 85200 333 59010;EQDQ01  00002PRCP99
0198821980999992002022600004-01710-045400FM-12+004499999V0200501N003610450019N0020001N1+02721+02471101161ADDAA199000091GF106991031021017501061001KA1240M+03181MA1999999100641MD1999999-0071REMSYN088AAXX  26004 82198 32795 60507 10272 20247 30064 40116 83260 333 10318 29080 55072 59007;EQDQ01  00002PRCP99
0202821980999992002022612004-01710-045400FM-12+004499999V0200901N005710450019N0100001N1+02951+02441101161ADDAA199000091GF106991041021017501061001KA1240M+99999MA1999999100641MD1999999-0071REMSYN076AAXX  26124 82198 32797 60911 10295 20244 30064 40116 84260 333 10258 59007;EQDQ01  00002PRCP99Q02 +02582ATMX  
0182821980999992002022618004-01710-045400FM-12+004499999V0200501N006710450019N0100001N1+03121+02281100921ADDAA106000891AY161061AY221061GF105991031011017501011001MA1999999100401MD1999999+0021MW1011REMSYN082AAXX  26184 82198 21797 50513 10312 20228 30040 40092 70162 83110 333 58002 69981;
0198821980999992002022700004-01710-045400FM-12+004499999V0200501N004112200019N0020001N1+02681+02391101071ADDAA199000091GF103991021011017501001011KA1240M+03181MA1999999100551MD1999999-0091REMSYN088AAXX  27004 82198 32795 30508 10268 20239 30055 40107 82101 333 10318 29075 55087 59009;EQDQ01  00002PRCP99
0173821980999992002022712004-01710-045400FM-12+004499999V0200501N003610150019N0100001N1+02951+02551101151ADDAA124000891GF105991051021017501001001KA1240N+02511MA1999999100631MD1999999-0011REMSYN082AAXX  27124 82198 22797 50507 10295 20255 30063 40115 85200 333 20251 59001 69984;
0182821980999992002022718004-01710-045400FM-12+004499999V0200501N004610150019N0100001N1+03171+02431100911ADDAA106000591AY161061AY221061GF105991051021017501001001MA1999999100391MD1999999-0011MW1021REMSYN082AAXX  27184 82198 21797 50509 10317 20243 30039 40091 70262 85200 333 59001 69941;
0198821980999992002022800004-01710-045400FM-12+004499999V0200501N003112200019N0020001N1+02691+02401101011ADDAA199000091GF103991021021017501001011KA1240M+03311MA1999999100491MD1999999-0061REMSYN088AAXX  28004 82198 32795 30506 10269 20240 30049 40101 82201 333 10331 29080 55099 59006;EQDQ01  00002PRCP99
0173821980999992002022812004-01710-045400FM-12+004499999V0200901N004610450019N0100001N1+02931+02431101091ADDAA124000591GF106991041021017501061001KA1240N+02561MA1999999100571MD1999999-0061REMSYN082AAXX  28124 82198 22797 60909 10293 20243 30057 40109 84260 333 20256 59006 69944;
0167821980999992002022818004-01710-045400FM-12+004499999V0200901N007210450019N0100001N1+03131+02151100791ADDAA199000091GF106991031021017501011041MA1999999100271MD1999999-0121REMSYN070AAXX  28184 82198 32797 60914 10313 20215 30027 40079 83214 333 59012;EQDQ01  00002PRCP99
0198821980999992002030100004-01710-045400FM-12+004499999V0200501N003610450019N0020001N1+02681+02391100941ADDAA199000091GF106991031021017501011011KA1240M+03291MA1999999100421MD1999999-0071REMSYN088AAXX  01004 82198 32795 60507 10268 20239 30042 40094 83211 333 10329 29075 55064 59007;EQDQ01  00002PRCP99
0186821980999992002030112004-01710-045400FM-12+004499999V0200501N003610450019N0100001N1+02901+02501101101ADDAA199000091GF106991031021017501031091KA1240N+02541MA1999999100581MD1999999+0011REMSYN076AAXX  01124 82198 32797 60507 10290 20250 30058 40110 83239 333 20254 58001;EQDQ01  00002PRCP99
0167821980999992002030118004-01710-045400FM-12+004499999V0200501N005110450019N0100001N1+03151+02411100891ADDAA199000091GF108991041021017501041041MA1999999100371MD1999999+0101REMSYN070AAXX  01184 82198 32797 80510 10315 20241 30037 40089 84244 333 58010;EQDQ01  00002PRCP99
0213821980999992002030400004-01710-045400FM-12+004499999V0202701N001010450019N0100001N1+02541+02491101031ADDAA106003091AY161061AY221061GF106991041071017501061001KA1240M+03091MA1999999100511MD1999999-0051MW1011REMSYN100AAXX  04004 82198 21797 62702 10254 20249 30051 40103 70162 84760 333 10309 29090 55015 59005 60031;
0201821980999992002030412004-01710-045400FM-12+004499999V0202701N000510150019N0100001N1+02391+02211101271ADDAA124007191AY161061AY221061GF108991051071017501021001KA1240N+02211MA1999999100751MD1999999+0121MW1201REMSYN088AAXX  04124 82198 21797 82701 10239 20221 30075 40127 72062 85720 333 20221 58012 60074;
0182821980999992002030418004-01710-045400FM-12+004499999V0200501N006710450019N0100001N1+02561+02401101061ADDAA106003091AY161061AY221061GF108991041071017501021001MA1999999100541MD1999999+0191MW1211REMSYN082AAXX  04184 82198 21797 80513 10256 20240 30054 40106 72162 84720 333 58019 60031;
0173821980999992002030512004-01710-045400FM-12+004499999V0200901N000510150019N0100001N1+02471+02381101391ADDAA124007191GF107991051051017501061001KA1240N+02251MA1999999100871MD1999999+0121REMSYN082AAXX  05124 82198 22797 70901 10247 20238 30087 40139 85560 333 20225 58012 60074;
0182821980999992002030518004-01710-045400FM-12+004499999V0203201N001010150019N0100001N1+02461+02341101161ADDAA106003091AY161061AY221061GF108991051041017501021001MA1999999100641MD1999999+0101MW1021REMSYN082AAXX  05184 82198 21797 83202 10246 20234 30064 40116 70262 85420 333 58010 60031;
0213821980999992002030600004-01710-045400FM-12+004499999V0202701N001510450019N0020001N1+02311+02231101291ADDAA106004191AY161061AY221061GF108991041051017501021001KA1240M+02731MA1999999100761MD1999999+0101MW1021REMSYN100AAXX  06004 82198 21795 82703 10231 20223 30076 40129 70262 84520 333 10273 29095 55004 58010 60041;
0167821980999992002030618004-01710-045400FM-12+004499999V0200501N004110450019N0100001N1+02941+02241100931ADDAA199000091GF108991041021017501061001MA1999999100421MD1999999-0221REMSYN070AAXX  06184 82198 32797 80508 10294 20224 30042 40093 84260 333 59022;EQDQ01  00002PRCP99
0198821980999992002030700004-01710-045400FM-12+004499999V0203601N002110450019N0020001N1+02581+02371101171ADDAA199000091GF105991031021017501061001KA1240M+03171MA1999999100661MD1999999-0101REMSYN088AAXX  07004 82198 32795 53604 10258 20237 30066 40117 83260 333 10317 29084 55041 59010;EQDQ01  00002PRCP99
0201821980999992002030712004-01710-045400FM-12+004499999V0203601N002610450019N0100001N1+02801+02421101331ADDAA124000891AY161061AY221061GF106991041021017501061041KA1240N+02401MA1999999100811MD1999999+0011MW1021REMSYN088AAXX  07124 82198 21797 63605 10280 20242 30081 40133 70262 84264 333 20240 58001 69974;
0167821980999992002030718004-01710-045400FM-12+004499999V0200501N004610450019N0100001N1+02971+02391100981ADDAA199000091GF106991041021017501011041MA1999999100461MD1999999+0041REMSYN070AAXX  07184 82198 32797 60509 10297 20239 30046 40098 84214 333 58004;EQDQ01  00002PRCP99
0226821980999992002030800004-01710-045400FM-12+004499999V0202701N001510450019N0020001N1+02651+02391101301ADDAA199000091AY121061AY211061GF105991031021017501061001KA1240M+03061MA1999999100781MD1999999+0121MW1131REMSYN094AAXX  08004 82198 31795 52703 10265 20239 30078 40130 71321 83260 333 10306 29082 55052 58012;EQDQ01  00002PRCP99
0201821980999992002030812004-01710-045400FM-12+004499999V0202301N001510450019N0100001N1+02501+02451101451ADDAA124007991AY161061AY221061GF108991041071017501061001KA1240N+02341MA1999999100931MD1999999+0121MW1031REMSYN088AAXX  08124 82198 21797 82303 10250 20245 30093 40145 70362 84760 333 20234 58012 60084;
0182821980999992002030818004-01710-045400FM-12+004499999V0200501N001010150019N0100001N1+02491+02311101131ADDAA106003091AY161061AY221061GF108991051051017501041041MA1999999100611MD1999999+0151MW1021REMSYN082AAXX  08184 82198 21797 80502 10249 20231 30061 40113 70262 85544 333 58015 60031;
0226821980999992002030900004-01710-045400FM-12+004499999V0200501N001012200019N0020001N1+02451+02311101351ADDAA199000091AY111061AY221061GF103991031021017501001001KA1240M+02921MA1999999100831MD1999999+0051MW1131REMSYN094AAXX  09004 82198 31795 30502 10245 20231 30083 40135 71312 83200 333 10292 29096 55005 58005;EQDQ01  00002PRCP99
0201821980999992002030912004-01710-045400FM-12+004499999V0202301N001010150019N0100001N1+02481+02411101361ADDAA124004191AY161061AY221061GF108991051071017501061001KA1240N+02241MA1999999100851MD1999999-0081MW1031REMSYN088AAXX  09124 82198 21797 82302 10248 20241 30085 40136 70362 85760 333 20224 59008 60044;
0182821980999992002030918004-01710-045400FM-12+004499999V0203201N002110150019N0100001N1+02661+02441101051ADDAA106007991AY161061AY221061GF108991051021017501061001MA1999999100541MD1999999-0071MW1021REMSYN082AAXX  09184 82198 21797 83204 10266 20244 30054 40105 70262 85260 333 59007 60081;
0198821980999992002031000004-01710-045400FM-12+004499999V0200501N000510450019N0020001N1+02571+02461101291ADDAA199000091GF105991031071017501061001KA1240M+03291MA1999999100781MD1999999-0051REMSYN088AAXX  10004 82198 32795 50501 10257 20246 30078 40129 83760 333 10329 29092 55012 59005;EQDQ01  00002PRCP99
0173821980999992002031012004-01710-045400FM-12+004499999V0200501N001010450019N0100001N1+02641+02481101281ADDAA124007991GF106991041021017501061001KA1240N+02281MA1999999100771MD1999999-0081REMSYN082AAXX  10124 82198 22797 60502 10264 20248 30077 40128 84260 333 20228 59008 60084;
0198821980999992002031100004-01710-045400FM-12+004499999V0200901N002612200019N0020001N1+02631+02411101201ADDAA199000091GF104991041001017501061001KA1240M+03181MA1999999100691MD1999999-0081REMSYN088AAXX  11004 82198 32795 40905 10263 20241 30069 40120 84060 333 10318 29083 55037 59008;EQDQ01  00002PRCP99
0201821980999992002031112004-01710-045400FM-12+004499999V0202301N002110150019N0100001N1+02431+02251101291ADDAA124014091AY161061AY221061GF108991051071017501021001KA1240N+02291MA1999999100771MD1999999+0001MW1031REMSYN088AAXX  11124 82198 21797 82304 10243 20225 30077 40129 70362 85720 333 20229 58000 60144;
0182821980999992002031118004-01710-045400FM-12+004499999V0201401N002110450019N0100001N1+03001+02441100971ADDAA106000191AY151061AY221061GF106991031021017501061001MA1999999100461MD1999999+0121MW1011REMSYN082AAXX  11184 82198 21797 61404 10300 20244 30046 40097 70152 83260 333 58012 69921;
0198821980999992002031200004-01710-045400FM-12+004499999V0200501N001512200019N0020001N1+02581+02401101311ADDAA199000091GF102991021001017501061001KA1240M+03081MA1999999100801MD1999999+0111REMSYN088AAXX  12004 82198 32795 20503 10258 20240 30080 40131 82060 333 10308 29086 55021 58011;EQDQ01  00002PRCP99
0201821980999992002031212004-01710-045400FM-12+004499999V0203201N000510450019N0100001N1+02361+02281101441ADDAA124010991AY161061AY221061GF107991031011017501071001KA1240N+02231MA1999999100931MD1999999+0161MW1031REMSYN088AAXX  12124 82198 21797 73201 10236 20228 30093 40144 70362 83170 333 20223 58016 60114;
0167821980999992002031218004-01710-045400FM-12+004499999V0200901N003110450019N0100001N1+02811+02381101141ADDAA199000091GF108991041021017501041001MA1999999100631MD1999999+0171REMSYN070AAXX  12184 82198 32797 80906 10281 20238 30063 40114 84240 333 58017;EQDQ01  00002PRCP99
0198821980999992002031300004-01710-045400FM-12+004499999V0200501N002112200019N0020001N1+02611+02401101271ADDAA199000091GF103991031001017501061001KA1240M+02881MA1999999100761MD1999999-0041REMSYN088AAXX  13004 82198 32795 30504 10261 20240 30076 40127 83060 333 10288 29083 55003 59004;EQDQ01  00002PRCP99
0201821980999992002031312004-01710-045400FM-12+004499999V0200901N003610150019N0100001N1+02901+02481101391ADDAA124002091AY161061AY221061GF105991051021017501001001KA1240N+02371MA1999999100881MD1999999-0051MW1031REMSYN088AAXX  13124 82198 21797 50907 10290 20248 30088 40139 70362 85200 333 20237 59005 60024;
0182821980999992002031318004-01710-045400FM-12+004499999V0200501N005110150019N0100001N1+03021+02441101021ADDAA106003091AY161061AY221061GF105991051021017501001001MA1999999100501MD1999999-0131MW1021REMSYN082AAXX  13184 82198 21797 50510 10302 20244 30050 40102 70262 85200 333 59013 60031;
0208821980999992002031400004-01710-045400FM-12+004499999V0200501N003112200019N0020001N1+02681+02391101251ADDAA199000091GA1001+999999999GF100991001001999999001001KA1240M+03251MA1999999100741MD1999999-0021REMSYN082AAXX  14004 82198 32995 00506 10268 20239 30074 40125 333 10325 29079 55098 59002;EQDQ01  00002PRCP99
0173821980999992002031412004-01710-045400FM-12+004499999V0200501N005110150019N0100001N1+02821+02381101281ADDAA124003091GF105991051021017501001001KA1240N+02541MA1999999100761MD1999999-0121REMSYN082AAXX  14124 82198 22797 50510 10282 20238 30076 40128 85200 333 20254 59012 60034;
0167821980999992002031418004-01710-045400FM-12+004499999V0203601N007212200019N0100001N1+03021+02361101001ADDAA199000091GF105991041021017501001011MA1999999100481MD1999999-0021REMSYN070AAXX  14184 82198 32797 53614 10302 20236 30048 40100 84201 333 59002;EQDQ01  00002PRCP99
0208821980999992002031500004-01710-045400FM-12+004499999V0200501N003112200019N0020001N1+02641+02411101091ADDAA199000091GA1001+999999999GF100991001001999999001001KA1240M+03151MA1999999100571MD1999999-0171REMSYN082AAXX  15004 82198 32995 00506 10264 20241 30057 40109 333 10315 29080 55104 59017;EQDQ01  00002PRCP99
0186821980999992002031512004-01710-045400FM-12+004499999V0200501N004110450019N0100001N1+02831+02441101181ADDAA199000091GF106991041021017501061001KA1240N+02491MA1999999100671MD1999999-0091REMSYN076AAXX  15124 82198 32797 60508 10283 20244 30067 40118 84260 333 20249 59009;EQDQ01  00002PRCP99
0182821980999992002031518004-01710-045400FM-12+004499999V0201801N002110450019N0100001N1+02911+02431100891ADDAA106019191AY161061AY221061GF108991041071017501061001MA1999999100371MD1999999-0111MW1211REMSYN082AAXX  15184 82198 21797 81804 10291 20243 30037 40089 72162 84760 333 59011 60191;
0213821980999992002031600004-01710-045400FM-12+004499999V0200901N003112200019N0020001N1+02621+02441101141ADDAA106000391AY161061AY221061GF103991031021017501001001KA1240M+03041MA1999999100621MD1999999+0051MW1011REMSYN100AAXX  16004 82198 21795 30906 10262 20244 30062 40114 70162 83200 333 10304 29084 55029 58005 69931;
0173821980999992002031612004-01710-045400FM-12+004499999V0200501N003110450019N0100001N1+02841+02481101191ADDAA124019191GF106991041021017501041041KA1240N+02471MA1999999100671MD1999999+0001REMSYN082AAXX  16124 82198 22797 60506 10284 20248 30067 40119 84244 333 20247 58000 60194;
0182821980999992002031618004-01710-045400FM-12+004499999V0200501N001010150019N0100001N1+02571+02501100991ADDAA106009991AY161061AY221061GF108991051071017501061001MA1999999100471MD1999999+0101MW1031REMSYN082AAXX  16184 82198 21797 80502 10257 20250 30047 40099 70362 85760 333 58010 60101;
0213821980999992002031700004-01710-045400FM-12+004499999V0200501N003110450019N0020001N1+02591+02461101131ADDAA106000191AY151061AY221061GF106991041021017501061001KA1240M+03021MA1999999100611MD1999999-0011MW1131REMSYN100AAXX  17004 82198 21795 60506 10259 20246 30061 40113 71352 84260 333 10302 29090 55022 59001 69911;
0201821980999992002031712004-01710-045400FM-12+004499999V0200501N001010450019N0100001N1+02501+02341101171ADDAA124010991AY161061AY221061GF108991041021017501041061KA1240N+02281MA1999999100651MD1999999-0021MW1031REMSYN088AAXX  17124 82198 21797 80502 10250 20234 30065 40117 70362 84246 333 20228 59002 60114;
0167821980999992002031718004-01710-045400FM-12+004499999V0200501N005710450019N0100001N1+02931+02321100881ADDAA199000091GF107991041021017501041061MA1999999100361MD1999999-0111REMSYN070AAXX  17184 82198 32797 70511 10293 20232 30036 40088 84246 333 59011;EQDQ01  00002PRCP99
0213821980999992002031800004-01710-045400FM-12+004499999V0200901N003112200019N0020001N1+02621+02521101081ADDAA106000391AY161061AY251061GF104991041021017501001001KA1240M+03131MA1999999100561MD1999999-0051MW1011REMSYN100AAXX  18004 82198 21795 40906 10262 20252 30056 40108 70165 84200 333 10313 29088 55045 59005 69931;
0201821980999992002031812004-01710-045400FM-12+004499999V0202301N001010450019N0100001N1+02631+02331101401ADDAA124000591AY161061AY251061GF107991041051017501041061KA1240N+02351MA1999999100881MD1999999-0041MW1031REMSYN088AAXX  18124 82198 21797 72302 10263 20233 30088 40140 70365 84546 333 20235 59004 69964;
0182821980999992002031818004-01710-045400FM-12+004499999V0200501N003110450019N0100001N1+02441+02371100891ADDAA106037191AY161061AY291061GF108991041071017501061011MA1999999100371MD1999999+0011MW1171REMSYN082AAXX  18184 82198 21797 80506 10244 20237 30037 40089 71769 84761 333 58001 60371;
0198821980999992002031900004-01710-045400FM-12+004499999V0201401N002110450019N0020001N1+02511+02451100991ADDAA199000091GF105991031021017501061001KA1240M+03231MA1999999100471MD1999999-0091REMSYN088AAXX  19004 82198 32795 51404 10251 20245 30047 40099 83260 333 10323 29094 55037 59009;EQDQ01  00002PRCP99
0201821980999992002031912004-01710-045400FM-12+004499999V0203201N000510150019N0100001N1+02521+02401101131ADDAA124041991AY161061AY221061GF108991051071017501051001KA1240N+02351MA1999999100621MD1999999+0011MW1611REMSYN088AAXX  19124 82198 21797 83201 10252 20240 30062 40113 76162 85750 333 20235 58001 60424;
0182821980999992002031918004-01710-045400FM-12+004499999V0200501N003110450019N0100001N1+02661+02411100721ADDAA106000191AY151061AY221061GF108991041051017501041001MA1999999100211MD1999999-0161MW1021REMSYN082AAXX  19184 82198 21797 80506 10266 20241 30021 40072 70252 84540 333 59016 69921;
0213821980999992002032000004-01710-045400FM-12+004499999V0201401N001512200019N0020001N1+02521+02431100861ADDAA106001091AY161061AY221061GF103991031001017501061001KA1240M+02831MA1999999100351MD1999999-0121MW1011REMSYN100AAXX  20004 82198 21795 31403 10252 20243 30035 40086 70162 83060 333 10283 29092 55001 59012 60011;
0173821980999992002032012004-01710-045400FM-12+004499999V0200501N002612200019N0100001N1+02881+02481101121ADDAA124001091GF105991031021017501001011KA1240N+02301MA1999999100601MD1999999-0021REMSYN082AAXX  20124 82198 22797 50505 10288 20248 30060 40112 83201 333 20230 59002 60014;
0182821980999992002032018004-01710-045400FM-12+004499999V0200501N002110150019N0100001N1+02841+02501100781ADDAA106008991AY161061AY221061GF108991051051017501041001MA1999999100271MD1999999+0061MW1031REMSYN082AAXX  20184 82198 21797 80504 10284 20250 30027 40078 70362 85540 333 58006 60091;
0198821980999992002032100004-01710-045400FM-12+004499999V0201401N001010450019N0020001N1+02621+02481101041ADDAA199000091GF106991031011017501041001KA1240M+03191MA1999999100531MD1999999+0181REMSYN088AAXX  21004 82198 32795 61402 10262 20248 30053 40104 83140 333 10319 29080 55056 58018;EQDQ01  00002PRCP99
0173821980999992002032112004-01710-045400FM-12+004499999V0200501N005112200019N0100001N1+02971+02471101131ADDAA124008991GF104991031021017501001011KA1240N+02421MA1999999100621MD1999999+0021REMSYN082AAXX  21124 82198 22797 40510 10297 20247 30062 40113 83201 333 20242 58002 60094;
0167821980999992002032118004-01710-045400FM-12+004499999V0200501N006212200019N0100001N1+03081+02441100771ADDAA199000091GF105991031021017501001011MA1999999100261MD1999999-0011REMSYN070AAXX  21184 82198 32797 50512 10308 20244 30026 40077 83201 333 59001;EQDQ01  00002PRCP99
0198821980999992002032200004-01710-045400FM-12+004499999V0200501N003112200019N0020001N1+02661+02461100991ADDAA199000091GF103991031001017501061001KA1240M+03231MA1999999100481MD1999999-0051REMSYN088AAXX  22004 82198 32795 30506 10266 20246 30048 40099 83060 333 10323 29080 55090 59005;EQDQ01  00002PRCP99
0186821980999992002032212004-01710-045400FM-12+004499999V0200501N003610450019N0100001N1+02921+02501101091ADDAA199000091GF107991041021017501061011KA1240N+02481MA1999999100581MD1999999-0041REMSYN076AAXX  22124 82198 32797 70507 10292 20250 30058 40109 84261 333 20248 59004;EQDQ01  00002PRCP99
0167821980999992002032218004-01710-045400FM-12+004499999V0200501N004610450019N0100001N1+03041+02481100801ADDAA199000091GF107991041021017501061001MA1999999100291MD1999999+0031REMSYN070AAXX  22184 82198 32797 70509 10304 20248 30029 40080 84260 333 58003;EQDQ01  00002PRCP99
0213821980999992002032300004-01710-045400FM-12+004499999V0201401N002110450019N0020001N1+02631+02511101121ADDAA106003091AY161061AY221061GF105991031051017501061011KA1240M+03301MA1999999100601MD1999999+0121MW1171REMSYN100AAXX  23004 82198 21795 51404 10263 20251 30060 40112 71762 83561 333 10330 29085 55072 58012 60031;
0201821980999992002032312004-01710-045400FM-12+004499999V0200501N003610450019N0100001N1+02691+02461101291ADDAA124008991AY161061AY221061GF106991031021017501061011KA1240N+02371MA1999999100781MD1999999+0201MW1021REMSYN088AAXX  23124 82198 21797 60507 10269 20246 30078 40129 70262 83261 333 20237 58020 60094;
0182821980999992002032318004-01710-045400FM-12+004499999V0200501N005110150019N0100001N1+02901+02581100971ADDAA106000891AY161061AY221061GF108991051021017501041001MA1999999100461MD1999999+0171MW1021REMSYN082AAXX  23184 82198 21797 80510 10290 20258 30046 40097 70262 85240 333 58017 69971;
0213821980999992002032400004-01710-045400FM-12+004499999V0200501N004110150019N0020001N1+02391+02171101321ADDAA106036191AY161061AY221061GF108991051051017501021001KA1240M+03071MA1999999100801MD1999999+0201MW1611REMSYN100AAXX  24004 82198 21795 80508 10239 20217 30080 40132 76162 85520 333 10307 29087 55028 58020 60361;
0167821980999992002032418004-01710-045400FM-12+004499999V0203601N003610450019N0100001N1+03021+02361101011ADDAA199000091GF106991031011017501011041MA1999999100491MD1999999+0031REMSYN070AAXX  24184 82198 32797 63607 10302 20236 30049 40101 83114 333 58003;EQDQ01  00002PRCP99
0198821980999992002032500004-01710-045400FM-12+004499999V0203601N002112200019N0020001N1+02581+02441101171ADDAA199000091GF104991021011017501031001KA1240M+03081MA1999999100661MD1999999-0141REMSYN088AAXX  25004 82198 32795 43604 10258 20244 30066 40117 82130 333 10308 29086 55046 59014;EQDQ01  00002PRCP99
0186821980999992002032512004-01710-045400FM-12+004499999V0203601N004110450019N0100001N1+02821+02381101161ADDAA199000091GF106991031021017501061001KA1240N+02381MA1999999100651MD1999999-0201REMSYN076AAXX  25124 82198 32797 63608 10282 20238 30065 40116 83260 333 20238 59020;EQDQ01  00002PRCP99
0167821980999992002032518004-01710-045400FM-12+004499999V0200501N005110450019N0100001N1+02991+02121100831ADDAA199000091GF105991031021017501061001MA1999999100321MD1999999-0171REMSYN070AAXX  25184 82198 32797 50510 10299 20212 30032 40083 83260 333 59017;EQDQ01  00002PRCP99
0198821980999992002032600004-01710-045400FM-12+004499999V0203601N002112200019N0020001N1+02601+02271101091ADDAA199000091GF103991031021017501001001KA1240M+03081MA1999999100581MD1999999-0081REMSYN088AAXX  26004 82198 32795 33604 10260 20227 30058 40109 83200 333 10308 29075 55053 59008;EQDQ01  00002PRCP99
0186821980999992002032612004-01710-045400FM-12+004499999V0200901N001510150019N0100001N1+02681+02451101171ADDAA199000091GF107991051021017501061001KA1240N+02391MA1999999100661MD1999999+0011REMSYN076AAXX  26124 82198 32797 70903 10268 20245 30066 40117 85260 333 20239 58001;EQDQ01  00002PRCP99
0182821980999992002032618004-01710-045400FM-12+004499999V0203201N000510150019N0100001N1+02581+02441100821ADDAA106023191AY161061AY221061GF108991051051017501021001MA1999999100311MD1999999-0011MW1021REMSYN082AAXX  26184 82198 21797 83201 10258 20244 30031 40082 70262 85520 333 59001 60231;
0213821980999992002032700004-01710-045400FM-12+004499999V0209999C000010450019N0020001N1+02471+02301101161ADDAA106037191AY161061AY221061GF106991041051017501031011KA1240M+03021MA1999999100641MD1999999+0061MW1011REMSYN100AAXX  27004 82198 21795 60000 10247 20230 30064 40116 70162 84531 333 10302 29092 55016 58006 60371;
0173821980999992002032712004-01710-045400FM-12+004499999V0200501N002112200019N0100001N1+02921+02501101091ADDAA124059991GF104991021011017501031041KA1240N+02271MA1999999100571MD1999999-0091REMSYN082AAXX  27124 82198 22797 40504 10292 20250 30057 40109 82134 333 20227 59009 60604;
0182821980999992002032718004-01710-045400FM-12+004499999V0203201N002610150019N0100001N1+02691+02401100891ADDAA106006191AY161061AY221061GF108991051071017501061041MA1999999100371MD1999999+0061MW1171REMSYN082AAXX  27184 82198 21797 83205 10269 20240 30037 40089 71762 85764 333 58006 60061;
0226821980999992002032800004-01710-045400FM-12+004499999V0200501N002610450019N0020001N1+02591+02441101061ADDAA199000091AY121061AY221061GF106991031021017501041041KA1240M+03121MA1999999100541MD1999999-0101MW1131REMSYN094AAXX  28004 82198 31795 60505 10259 20244 30054 40106 71322 83244 333 10312 29092 55046 59010;EQDQ01  00002PRCP99
0201821980999992002032812004-01710-045400FM-12+004499999V0200901N003610450019N0100001N1+02821+02401101191ADDAA124007191AY161061AY221061GF106991011011017501041091KA1240N+02361MA1999999100671MD1999999+0101MW1021REMSYN088AAXX  28124 82198 21797 60907 10282 20240 30067 40119 70262 81149 333 20236 58010 60074;
0195821980999992002032818004-01710-045400FM-12+004499999V0200501N005110150019N0100001N1+02871+02421100881ADDAA199000091AY121061AY221061GF108991061071017501061001MA1999999100361MD1999999-0011MW1171REMSYN076AAXX  28184 82198 31797 80510 10287 20242 30036 40088 71722 86760 333 59001;EQDQ01  00002PRCP99
0213821980999992002032900004-01710-045400FM-12+004499999V0200501N002110450019N0020001N1+02601+02461101041ADDAA106000191AY161061AY221061GF106991041021017501031011KA1240M+03261MA1999999100521MD1999999-0021MW1011REMSYN100AAXX  29004 82198 21795 60504 10260 20246 30052 40104 70162 84231 333 10326 29059 55086 59002 69921;
0173821980999992002032912004-01710-045400FM-12+004499999V0200901N003610450019N0100001N1+02931+02461101071ADDAA124000191GF106991031021017501061001KA1240N+02391MA1999999100561MD1999999-0111REMSYN082AAXX  29124 82198 22797 60907 10293 20246 30056 40107 83260 333 20239 59011 69924;
0182821980999992002032918004-01710-045400FM-12+004499999V0200501N001010450019N0100001N1+02641+02521100821ADDAA106009991AY161061AY221061GF108991041021017501041061MA1999999100301MD1999999-0061MW1291REMSYN082AAXX  29184 82198 21797 80502 10264 20252 30030 40082 72962 84246 333 59006 60101;
0226821980999992002033000004-01710-045400FM-12+004499999V0200901N002110450019N0020001N1+02581+02491101071ADDAA199000091AY121061AY221061GF106991031051017501041061KA1240M+03091MA1999999100551MD1999999+0031MW1131REMSYN094AAXX  30004 82198 31795 60904 10258 20249 30055 40107 71322 83546 333 10309 29090 55027 58003;EQDQ01  00002PRCP99
0201821980999992002033012004-01710-045400FM-12+004499999V0200901N000510450019N0100001N1+02601+02401101091ADDAA124014091AY161061AY221061GF108991041051017501061041KA1240N+02311MA1999999100571MD1999999+0011MW1171REMSYN088AAXX  30124 82198 21797 80901 10260 20240 30057 40109 71762 84564 333 20231 58001 60144;
0182821980999992002033018004-01710-045400FM-12+004499999V0200501N001010450019N0100001N1+02531+02411100811ADDAA106004191AY161061AY221061GF108991041071017501011011MA1999999100291MD1999999-0011MW1021REMSYN082AAXX  30184 82198 21797 80502 10253 20241 30029 40081 70262 84711 333 59001 60041;
0198821980999992002033100004-01710-045400FM-12+004499999V0200501N000510450019N0020001N1+02491+02451101091ADDAA199000091GF105991031021017501011041KA1240M+02791MA1999999100571MD1999999+0021REMSYN088AAXX  31004 82198 32795 50501 10249 20245 30057 40109 83214 333 10279 29094 55000 58002;EQDQ01  00002PRCP99
0173821980999992002033112004-01710-045400FM-12+004499999V0200901N001510450019N0100001N1+02831+02521101231ADDAA124004191GF108991041051017501061011KA1240N+02461MA1999999100711MD1999999+0141REMSYN082AAXX  31124 82198 22797 80903 10283 20252 30071 40123 84561 333 20246 58014 60044;
0173821980999992002040112004-01710-045400FM-12+004499999V0200901N001510450019N0100001N1+02881+02521101171ADDAA124001091GF106991041011017501041061KA1240N+02361MA1999999100661MD1999999-0051REMSYN082AAXX  01124 82198 22797 60903 10288 20252 30066 40117 84146 333 20236 59005 60014;
0182821980999992002040118004-01710-045400FM-12+004499999V0200501N002110450019N0100001N1+02991+02601100821ADDAA106005191AY161061AY221061GF108991041031017501061011MA1999999100301MD1999999+0011MW1151REMSYN082AAXX  01184 82198 21797 80504 10299 20260 30030 40082 71562 84361 333 58001 60051;
0213821980999992002040200004-01710-045400FM-12+004499999V0200901N001512200019N0020001N1+02611+02481101081ADDAA106004191AY161061AY211061GF103991031021017501001001KA1240M+03281MA1999999100561MD1999999-0011MW1131REMSYN100AAXX  02004 82198 21795 30903 10261 20248 30056 40108 71361 83200 333 10328 29086 55073 59001 60041;
0173821980999992002040212004-01710-045400FM-12+004499999V0200901N002610450019N0100001N1+02751+02421101111ADDAA124008991GF105991021011017501061001KA1240N+02371MA1999999100601MD1999999-0061REMSYN082AAXX  02124 82198 22797 50905 10275 20242 30060 40111 82160 333 20237 59006 60094;
0182821980999992002040218004-01710-045400FM-12+004499999V0200901N003110450019N0100001N1+02831+02461100861ADDAA106007191AY161061AY291061GF108991041071017501041001MA1999999100351MD1999999+0051MW1151REMSYN082AAXX  02184 82198 21797 80906 10283 20246 30035 40086 71569 84740 333 58005 60071;
0198821980999992002040300004-01710-045400FM-12+004499999V0200901N003112200019N0020001N1+02601+02481101081ADDAA199000091GF104991021011017501061001KA1240M+03091MA1999999100571MD1999999+0011REMSYN088AAXX  03004 82198 32795 40906 10260 20248 30057 40108 82160 333 10309 29086 55023 58001;EQDQ01  00002PRCP99
0173821980999992002040312004-01710-045400FM-12+004499999V0200501N002610150019N0100001N1+02711+02501101271ADDAA124007191GF108991051051017501071001KA1240N+02441MA1999999100761MD1999999+0161REMSYN082AAXX  03124 82198 22797 80505 10271 20250 30076 40127 85570 333 20244 58016 60074;
0182821980999992002040318004-01710-045400FM-12+004499999V0200901N005710150019N0100001N1+02881+02391100941ADDAA106016091AY161061AY221061GF108991051051017501041001MA1999999100431MD1999999+0081MW1021REMSYN082AAXX  03184 82198 21797 80911 10288 20239 30043 40094 70262 85540 333 58008 60161;
0213821980999992002040400004-01710-045400FM-12+004499999V0200901N001510450019N0020001N1+02531+02381101281ADDAA124000191AY151061AY221061GF106991031051017501041001KA1240M+02941MA1999999100761MD1999999+0191MW1011REMSYN100AAXX  04004 82198 21795 60903 10253 20238 30076 40128 70152 83540 333 10294 29087 55005 58019 69914;
0190821980999992002040412004-01710-045400FM-12+004499999V0200901N002110150019N0100001N1+02641+02501101261ADDAY161061AY221061GF108991061051017501041001KA1240N+02361MA1999999100751MD1999999-0011MW1031REMSYN088AAXX  04124 82198 21797 80904 10264 20250 30075 40126 70362 86540 333 20236 59001 00174;
0182821980999992002040418004-01710-045400FM-12+004499999V0200901N003610150019N0100001N1+02631+02441100911ADDAA106010991AY161061AY221061GF108991051051017501021001MA1999999100401MD1999999-0031MW1151REMSYN082AAXX  04184 82198 21797 80907 10263 20244 30040 40091 71562 85520 333 59003 60111;
0201821980999992002040512004-01710-045400FM-12+004499999V0200901N003110150019N0100001N1+02401+02261101291ADDAA124064091AY161061AY221061GF108991061071017501011001KA1240N+02291MA1999999100781MD1999999+0031MW1021REMSYN088AAXX  05124 82198 21797 80906 10240 20226 30078 40129 70262 86710 333 20229 58003 60644;
0182821980999992002040518004-01710-045400FM-12+004499999V0200501N001510450019N0100001N1+02821+02401100831ADDAA106000591AY151061AY221061GF108991041021017501041001MA1999999100321MD1999999-0081MW1021REMSYN082AAXX  05184 82198 21797 80503 10282 20240 30032 40083 70252 84240 333 59008 69951;
0198821980999992002040600004-01710-045400FM-12+004499999V0200901N002112200019N0020001N1+02531+02381101091ADDAA199000091GF104991021011017501071001KA1240M+02871MA1999999100581MD1999999-0041REMSYN088AAXX  06004 82198 32795 40904 10253 20238 30058 40109 82170 333 10287 29088 55003 59004;EQDQ01  00002PRCP99
0173821980999992002040612004-01710-045400FM-12+004499999V0200501N001510450019N0100001N1+02761+02461101131ADDAA124000591GF107991041021017501061011KA1240N+02381MA1999999100621MD1999999-0161REMSYN082AAXX  06124 82198 22797 70503 10276 20246 30062 40113 84261 333 20238 59016 69954;
0182821980999992002040618004-01710-045400FM-12+004499999V0200901N002110150019N0100001N1+02521+02421100821ADDAA106023991AY161061AY221061GF108991051051017501021001MA1999999100301MD1999999-0021MW1511REMSYN082AAXX  06184 82198 21797 80904 10252 20242 30030 40082 75162 85520 333 59002 60241;
0213821980999992002040700004-01710-045400FM-12+004499999V0200501N002110150019N0020001N1+02411+02331101091ADDAA106100191AY161061AY251061GF108991051051017501021001KA1240M+02861MA1999999100581MD1999999+0001MW1161REMSYN100AAXX  07004 82198 21795 80504 10241 20233 30058 40109 71665 85520 333 10286 29018 55091 58000 61001;
0201821980999992002040712004-01710-045400FM-12+004499999V0201801N004110450019N0100001N1+02251+02161101421ADDAA124173091AY161061AY221061GF108991031051017501021001KA1240N+02201MA1999999100911MD1999999+0301MW1631REMSYN088AAXX  07124 82198 21797 81808 10225 20216 30091 40142 76362 83520 333 20220 58030 61734;
0182821980999992002040718004-01710-045400FM-12+004499999V0203201N002110150019N0100001N1+02701+02431100961ADDAA106003091AY161061AY221061GF108991051021017501041001MA1999999100451MD1999999+0151MW1021REMSYN082AAXX  07184 82198 21797 83204 10270 20243 30045 40096 70262 85240 333 58015 60031;
0179821980999992002040800004-01710-045400FM-12+004499999V0200501N000510450019N0020001N1+02471+02391101031ADDAA199000021GF105991031021017501041001KA1240M+02711MA1999999100521MD1999999-0061REMSYN088AAXX  08004 82198 32795 50501 10247 20239 30052 40103 83240 333 10271 29090 55000 59006;
0173821980999992002040812004-01710-045400FM-12+004499999V0200501N001510450019N0100001N1+02661+02411101161ADDAA124003091GF106991021021017501031001KA1240N+02241MA1999999100651MD1999999-0271REMSYN082AAXX  08124 82198 22797 60503 10266 20241 30065 40116 82230 333 20224 59027 60034;
0167821980999992002040818004-01710-045400FM-12+004499999V0200501N006212200019N0100001N1+02981+02331100811ADDAA199000091GF104991021021017501061001MA1999999100301MD1999999-0151REMSYN070AAXX  08184 82198 32797 40512 10298 20233 30030 40081 82260 333 59015;EQDQ01  00002PRCP99
0198821980999992002040900004-01710-045400FM-12+004499999V0200501N001512200019N0020001N1+02601+02391101031ADDAA199000091GF103991031021017501001001KA1240M+03261MA1999999100521MD1999999+0001REMSYN088AAXX  09004 82198 32795 30503 10260 20239 30052 40103 83200 333 10326 29082 55067 58000;EQDQ01  00002PRCP99
0186821980999992002040912004-01710-045400FM-12+004499999V0200501N002110450019N0100001N1+02821+02581101051ADDAA199000091GF106991041021017501061011KA1240N+02251MA1999999100531MD1999999-0121REMSYN076AAXX  09124 82198 32797 60504 10282 20258 30053 40105 84261 333 20225 59012;EQDQ01  00002PRCP99
0182821980999992002040918004-01710-045400FM-12+004499999V0200501N005010450019N0100001N1+02651+02401100791ADDAA106002091AY161061AY221061GF108991041071017501061011MA1999999100271MD1999999-0031MW1031REMSYN082AAXX  09181 82198 21797 80505 10265 20240 30027 40079 70362 84761 333 59003 60021;
0173821980999992002041012004-01710-045400FM-12+004499999V0200501N001010450019N0100001N1+02741+02581101081ADDAA124002091GF106991031021017501061041KA1240N+02311MA1999999100561MD1999999+0031REMSYN082AAXX  10124 82198 22797 60502 10274 20258 30056 40108 83264 333 20231 58003 60024;
0195821980999992002041018004-01710-045400FM-12+004499999V0200501N004110450019N0100001N1+02791+02441100721ADDAA199000091AY121061AY221061GF108991041021017501011061MA1999999100201MD1999999-0071MW1171REMSYN076AAXX  10184 82198 31797 80508 10279 20244 30020 40072 71722 84216 333 59007;EQDQ01  00002PRCP99
0213821980999992002041100004-01710-045400FM-12+004499999V0203201N000510450019N0020001N1+02461+02341101131ADDAA106004191AY161061AY221061GF106991031021017501061001KA1240M+03181MA1999999100611MD1999999+0101MW1131REMSYN100AAXX  11004 82198 21795 63201 10246 20234 30061 40113 71362 83260 333 10318 29090 55056 58010 60041;
0201821980999992002041112004-01710-045400FM-12+004499999V0203201N002610450019N0100001N1+02471+02311101231ADDAA124017091AY161061AY221061GF108991041051017501061001KA1240N+02321MA1999999100711MD1999999+0151MW1031REMSYN088AAXX  11124 82198 21797 83205 10247 20231 30071 40123 70362 84560 333 20232 58015 60174;
0182821980999992002041118004-01710-045400FM-12+004499999V0203201N003610450019N0100001N1+02661+02451100901ADDAA106004191AY151061AY221061GF108991041071017501021001MA1999999100381MD1999999+0181MW1631REMSYN082AAXX  11184 82198 21797 83207 10266 20245 30038 40090 76352 84720 333 58018 60041;
0213821980999992002041200004-01710-045400FM-12+004499999V0209999C000010150019N0020001N1+02341+02311101171ADDAA106029091AY161061AY221061GF108991051051017501061001KA1240M+03041MA1999999100651MD1999999+0041MW1021REMSYN100AAXX  12004 82198 21795 80000 10234 20231 30065 40117 70262 85560 333 10304 29094 55011 58004 60291;
0201821980999992002041212004-01710-045400FM-12+004499999V0202701N001010450019N0100001N1+02441+02371101311ADDAA124038191AY161061AY221061GF108991041051017501011001KA1240N+02261MA1999999100791MD1999999+0081MW1021REMSYN088AAXX  12124 82198 21797 82702 10244 20237 30079 40131 70262 84510 333 20226 58008 60384;
0167821980999992002041218004-01710-045400FM-12+004499999V0202301N001010450019N0100001N1+03191+02581100991ADDAA199000091GF108991041021017501011041MA1999999100471MD1999999+0091REMSYN070AAXX  12184 82198 32797 82302 10319 20258 30047 40099 84214 333 58009;EQDQ01  00002PRCP99
0186821980999992002041312004-01710-045400FM-12+004499999V0200501N003110450019N0020001N1+02891+02361101101ADDAA199000091GF107991031011017501041091KA1240N+02411MA1999999100581MD1999999-0211REMSYN076AAXX  13124 82198 32795 70506 10289 20236 30058 40110 83149 333 20241 59021;EQDQ01  00002PRCP99
0167821980999992002041318004-01710-045400FM-12+004499999V0203601N004610450019N0100001N1+02941+02361100951ADDAA199000091GF107991031011017501041061MA1999999100431MD1999999-0041REMSYN070AAXX  13184 82198 32797 73609 10294 20236 30043 40095 83146 333 59004;EQDQ01  00002PRCP99
0213821980999992002041400004-01710-045400FM-12+004499999V0200501N003112200019N0020001N1+02571+02461101141ADDAA106000191AY151061AY221061GF104991021051017501061001KA1240M+03161MA1999999100621MD1999999-0041MW1131REMSYN100AAXX  14004 82198 21795 40506 10257 20246 30062 40114 71352 82560 333 10316 29083 55044 59004 69911;
0173821980999992002041412004-01710-045400FM-12+004499999V0203601N003612200019N0100001N1+02881+02441101281ADDAA124000191GF106991041021017501001041KA1240N+02371MA1999999100771MD1999999+0191REMSYN082AAXX  14124 82198 22797 63607 10288 20244 30077 40128 84204 333 20237 58019 69914;
0167821980999992002041418004-01710-045400FM-12+004499999V0203601N005110150019N0100001N1+03081+02401100861ADDAA199000091GF106991061021017501001001MA1999999100341MD1999999-0091REMSYN070AAXX  14184 82198 32797 63610 10308 20240 30034 40086 86200 333 59009;EQDQ01  00002PRCP99
0198821980999992002041500004-01710-045400FM-12+004499999V0200501N004112200019N0020001N1+02651+02371101061ADDAA199000091GF102991021021017501001001KA1240M+03151MA1999999100551MD1999999-0071REMSYN088AAXX  15004 82198 32795 20508 10265 20237 30055 40106 82200 333 10315 29080 55083 59007;EQDQ01  00002PRCP99
0186821980999992002041512004-01710-045400FM-12+004499999V0200501N002610450019N0100001N1+02901+02601101321ADDAA199000091GF106991031021017501031041KA1240N+02361MA1999999100801MD1999999+0031REMSYN076AAXX  15124 82198 32797 60505 10290 20260 30080 40132 83234 333 20236 58003;EQDQ01  00002PRCP99
0213821980999992002041600004-01710-045400FM-12+004499999V0203201N002610450019N0020001N1+02551+02501101221ADDAA106001091AY161061AY221061GF105991031021017501061001KA1240M+03071MA1999999100701MD1999999+0151MW1011REMSYN100AAXX  16004 82198 21795 53205 10255 20250 30070 40122 70162 83260 333 10307 29090 55031 58015 60011;
0201821980999992002041612004-01710-045400FM-12+004499999V0202701N004110150019N0100001N1+02471+02341101441ADDAA124027991AY161061AY221061GF108991061051017501041001KA1240N+02281MA1999999100921MD1999999+0121MW1161REMSYN088AAXX  16124 82198 21797 82708 10247 20234 30092 40144 71662 86540 333 20228 58012 60284;
0182821980999992002041618004-01710-045400FM-12+004499999V0201401N002610150019N0100001N1+02461+02341101191ADDAA106006191AY161061AY221061GF108991051071017501041001MA1999999100681MD1999999+0281MW1021REMSYN082AAXX  16184 82198 21797 81405 10246 20234 30068 40119 70262 85740 333 58028 60061;
0167821980999992002041718004-01710-045400FM-12+004499999V0203601N003110450019N0100001N1+02881+02501101011ADDAA199000091GF107991031021017501041001MA1999999100501MD1999999-0181REMSYN070AAXX  17184 82198 32797 73606 10288 20250 30050 40101 83240 333 59018;EQDQ01  00002PRCP99
0208821980999992002041800004-01710-045400FM-12+004499999V0200501N003112200019N0020001N1+02581+02441101261ADDAA199000091GA1001+999999999GF100991001001999999001001KA1240M+03221MA1999999100751MD1999999-0111REMSYN082AAXX  18004 82198 32995 00506 10258 20244 30075 40126 333 10322 29086 55062 59011;EQDQ01  00002PRCP99
0186821980999992002041812004-01710-045400FM-12+004499999V0200501N001510150019N0100001N1+02901+02541101271ADDAA199000091GF106991061021017501001001KA1240N+02291MA1999999100761MD1999999-0121REMSYN076AAXX  18124 82198 32797 60503 10290 20254 30076 40127 86200 333 20229 59012;EQDQ01  00002PRCP99
0182821980999992002041818004-01710-045400FM-12+004499999V0201801N003110450019N0100001N1+02401+02311100961ADDAA106037191AY161061AY221061GF108991041051017501041001MA1999999100451MD1999999-0051MW1161REMSYN082AAXX  18184 82198 21797 81806 10240 20231 30045 40096 71662 84540 333 59005 60371;
0198821980999992002041900004-01710-045400FM-12+004499999V0200501N002612200019N0020001N1+02541+02381101121ADDAA199000091GF104991021011017501061001KA1240M+03191MA1999999100601MD1999999-0151REMSYN088AAXX  19004 82198 32795 40505 10254 20238 30060 40112 82160 333 10319 29089 55059 59015;EQDQ01  00002PRCP99
0201821980999992002041912004-01710-045400FM-12+004499999V0200501N004110150019N0100001N1+02931+02501101131ADDAA124037191AY151061AY221061GF106991051021017501001011KA1240N+02351MA1999999100621MD1999999-0141MW1031REMSYN088AAXX  19124 82198 21797 60508 10293 20250 30062 40113 70352 85201 333 20235 59014 60374;
0182821980999992002041918004-01710-045400FM-12+004499999V0200501N001510450019N0100001N1+02741+02431100811ADDAA106001091AY161061AY221061GF108991031011017501041001MA1999999100301MD1999999-0151MW1031REMSYN082AAXX  19184 82198 21797 80503 10274 20243 30030 40081 70362 83140 333 59015 60011;
0213821980999992002042000004-01710-045400FM-12+004499999V0200501N001512200019N0020001N1+02541+02451101021ADDAA106000591AY161061AY221061GF104991021011017501061001KA1240M+03111MA1999999100511MD1999999-0091MW1011REMSYN100AAXX  20004 82198 21795 40503 10254 20245 30051 40102 70162 82160 333 10311 29088 55035 59009 69961;
0201821980999992002042012004-01710-045400FM-12+004499999V0200501N002610450019N0100001N1+02821+02481101131ADDAA124002091AY161061AY221061GF106991031021017501031011KA1240N+02371MA1999999100621MD1999999+0001MW1021REMSYN088AAXX  20124 82198 21797 60505 10282 20248 30062 40113 70262 83231 333 20237 58000 60024;
0182821980999992002042018004-01710-045400FM-12+004499999V0203201N001010450019N0100001N1+02541+02451100761ADDAA106026991AY161061AY221061GF107991031021017501061001MA1999999100251MD1999999-0051MW1021REMSYN082AAXX  20184 82198 21797 73202 10254 20245 30025 40076 70262 83260 333 59005 60271;
0182821980999992002042118004-01710-045400FM-12+004499999V0200501N000510150019N0100001N1+02411+02331100871ADDAA106040991AY161061AY291061GF108991051051017501021001MA1999999100361MD1999999+0111MW1511REMSYN082AAXX  21184 82198 21797 80501 10241 20233 30036 40087 75169 85520 333 58011 60411;
0213821980999992002042200004-01710-045400FM-12+004499999V0201401N001510450019N0020001N1+02501+02471101041ADDAA106000391AY151061AY221061GF106991031051017501041001KA1240M+02941MA1999999100531MD1999999+0031MW1021REMSYN100AAXX  22004 82198 21795 61403 10250 20247 30053 40104 70252 83540 333 10294 29090 55003 58003 69931;
0201821980999992002042212004-01710-045400FM-12+004499999V0200501N002611050019N0100001N1+02651+02441101011ADDAA124058991AY161061AY221061GF105991021021017501061011KA1240N+02331MA1999999100501MD1999999-0161MW1011REMSYN088AAXX  22124 82198 21797 50505 10265 20244 30050 40101 70162 82261 333 20233 59016 60594;
0182821980999992002042218004-01710-045400FM-12+004499999V0200501N005110150019N0100001N1+02931+02451100711ADDAA106000591AY161061AY221061GF108991051071017501041001MA1999999100201MD1999999-0161MW1031REMSYN082AAXX  22184 82198 21797 80510 10293 20245 30020 40071 70362 85740 333 59016 69941;
0201821980999992002042312004-01710-045400FM-12+004499999V0200501N001010450019N0100001N1+02621+02501101021ADDAA124007991AY161061AY221061GF108991041051017501011041KA1240N+02331MA1999999100501MD1999999+0001MW1021REMSYN088AAXX  23124 82198 21797 80502 10262 20250 30050 40102 70262 84514 333 20233 58000 60084;
0182821980999992002042318004-01710-045400FM-12+004499999V0203601N003110450019N0100001N1+02951+02461100691ADDAA106000591AY161061AY221061GF107991041021017501011041MA1999999100171MD1999999-0031MW1021REMSYN082AAXX  23184 82198 21797 73606 10295 20246 30017 40069 70262 84214 333 59003 69951;
0213821980999992002042400004-01710-045400FM-12+004499999V0201401N001010450019N0020001N1+02411+02351101091ADDAA106032091AY161061AY221061GF108991041071017501061001KA1240M+03001MA1999999100571MD1999999+0071MW1131REMSYN100AAXX  24004 82198 21795 81402 10241 20235 30057 40109 71362 84760 333 10300 29090 55025 58007 60321;
0201821980999992002042412004-01710-045400FM-12+004499999V0202301N001010150019N0100001N1+02541+02491101031ADDAA124036191AY161061AY251061GF108991061031017501011001KA1240N+02351MA1999999100511MD1999999+0011MW1021REMSYN088AAXX  24124 82198 21797 82302 10254 20249 30051 40103 70265 86310 333 20235 58001 60364;
0167821980999992002042418004-01710-045400FM-12+004499999V0200501N002110450019N0100001N1+02711+02431100721ADDAA199000091GF108991041051017501011001MA1999999100201MD1999999+0031REMSYN070AAXX  24184 82198 32797 80504 10271 20243 30020 40072 84510 333 58003;EQDQ01  00002PRCP99
0198821980999992002042500004-01710-045400FM-12+004499999V0203201N002110450019N0020001N1+02521+02421101041ADDAA199000091GF108991041021017501031001KA1240M+02791MA1999999100521MD1999999-0051REMSYN088AAXX  25004 82198 32795 83204 10252 20242 30052 40104 84230 333 10279 29092 55000 59005;EQDQ01  00002PRCP99
0186821980999992002042512004-01710-045400FM-12+004499999V0200501N001510450019N0100001N1+02541+02511101251ADDAA199000091GF108991041031017501011041KA1240N+02311MA1999999100731MD1999999-0221REMSYN076AAXX  25124 82198 32797 80503 10254 20251 30073 40125 84314 333 20231 59022;EQDQ01  00002PRCP99
0182821980999992002042518004-01710-045400FM-12+004499999V0200501N001010450019N0100001N1+02471+02331100901ADDAA106009991AY161061AY221061GF108991041031017501061001MA1999999100381MD1999999+0181MW1511REMSYN082AAXX  25184 82198 21797 80502 10247 20233 30038 40090 75162 84360 333 58018 60101;
0173821980999992002042612004-01710-045400FM-12+004499999V0201401N003112200019N0100001N1+02721+02471101101ADDAA124009991GF104991031021017501061061KA1240N+02421MA1999999100681MD1999999-0051REMSYN082AAXX  26124 82198 22797 41406 10272 20247 30068 40110 83266 333 20242 59005 60104;
0182821980999992002042618004-01710-045400FM-12+004499999V0200501N002610450019N0100001N1+02701+02411100851ADDAA106001091AY161061AY221061GF107991041071017501061011MA1999999100331MD1999999-0051MW1171REMSYN082AAXX  26184 82198 21797 70505 10270 20241 30033 40085 71762 84761 333 59005 60011;
0198821980999992002042700004-01710-045400FM-12+004499999V0200501N002110450019N0020001N1+02581+02441101131ADDAA199000091GF108991041021017501041061KA1240M+03291MA1999999100611MD1999999+0041REMSYN088AAXX  27004 82198 32795 80504 10258 20244 30061 40113 84246 333 10329 29088 55051 58004;EQDQ01  00002PRCP99
0173821980999992002042712004-01710-045400FM-12+004499999V0203201N001010450019N0100001N1+02621+02441101221ADDAA124001091GF107991031021017501041061KA1240N+02291MA1999999100701MD1999999+0021REMSYN082AAXX  27124 82198 22797 73202 10262 20244 30070 40122 83246 333 20229 58002 60014;
0167821980999992002042718004-01710-045400FM-12+004499999V0203601N004611050019N0100001N1+03101+02361100841ADDAA199000091GF105991021021017501041041MA1999999100321MD1999999+0021REMSYN070AAXX  27184 82198 32797 53609 10310 20236 30032 40084 82244 333 58002;EQDQ01  00002PRCP99
0226821980999992002042800004-01710-045400FM-12+004499999V0202701N001010450019N0020001N1+02521+02431101081ADDAA199000091AY121061AY221061GF108991041071017501061001KA1240M+03311MA1999999100561MD1999999-0051MW1131REMSYN094AAXX  28004 82198 31795 82702 10252 20243 30056 40108 71322 84760 333 10331 29086 55075 59005;EQDQ01  00002PRCP99
0201821980999992002042812004-01710-045400FM-12+004499999V0200501N004610450019N0100001N1+02691+02401101221ADDAA124030091AY161061AY221061GF108991041051017501041061KA1240N+02311MA1999999100701MD1999999+0001MW1021REMSYN088AAXX  28124 82198 21797 80509 10269 20240 30070 40122 70262 84546 333 20231 58000 60304;
0167821980999992002042818004-01710-045400FM-12+004499999V0200501N002610450019N0100001N1+02691+02371100891ADDAA199000091GF108991031071017501061041MA1999999100371MD1999999+0051REMSYN070AAXX  28184 82198 32797 80505 10269 20237 30037 40089 83764 333 58005;EQDQ01  00002PRCP99
0198821980999992002042900004-01710-045400FM-12+004499999V0200501N004110450019N0020001N1+02551+02501101131ADDAA199000091GF106991031021017501011041KA1240M+03141MA1999999100611MD1999999+0051REMSYN088AAXX  29004 82198 32795 60508 10255 20250 30061 40113 83214 333 10314 29091 55015 58005;EQDQ01  00002PRCP99
0201821980999992002042912004-01710-045400FM-12+004499999V0200901N001510450019N0100001N1+02731+02461101181ADDAA124001091AY161061AY221061GF107991031051017501061001KA1240N+02351MA1999999100661MD1999999-0041MW1021REMSYN088AAXX  29124 82198 21797 70903 10273 20246 30066 40118 70262 83560 333 20235 59004 60014;
0182821980999992002042918004-01710-045400FM-12+004499999V0201401N001010450019N0100001N1+02901+02641100981ADDAA106009991AY161061AY221061GF108991041071017501061001MA1999999100461MD1999999+0091MW1601REMSYN082AAXX  29184 82198 21797 81402 10290 20264 30046 40098 76062 84760 333 58009 60101;
0213821980999992002043000004-01710-045400FM-12+004499999V0200501N002612200019N0020001N1+02551+02531101221ADDAA106008991AY161061AY221061GF103991021011017501041041KA1240M+03131MA1999999100701MD1999999+0091MW1131REMSYN100AAXX  30004 82198 21795 30505 10255 20253 30070 40122 71362 82144 333 10313 29091 55045 58009 60091;
0173821980999992002043012004-01710-045400FM-12+004499999V0200501N002112200019N0100001N1+02931+02501101441ADDAA124019191GF106991041021017501001011KA1240N+02351MA1999999100931MD1999999+0201REMSYN082AAXX  30124 82198 22797 60504 10293 20250 30093 40144 84201 333 20235 58020 60194;
0182821980999992002043018004-01710-045400FM-12+004499999V0202701N001010150019N0100001N1+02581+02441101181ADDAA106025991AY161061AY221061GF107991051021017501041001MA1999999100671MD1999999+0211MW1031REMSYN082AAXX  30184 82198 21797 72702 10258 20244 30067 40118 70362 85240 333 58021 60261;
0198821980999992002050100004-01710-045400FM-12+004499999V0200501N001510450019N0020001N1+02541+02471101331ADDAA199000091GF105991031051017501041001KA1240M+03021MA1999999100821MD1999999+0121REMSYN088AAXX  01004 82198 32795 50503 10254 20247 30082 40133 83540 333 10302 29090 55029 58012;EQDQ01  00002PRCP99
0173821980999992002050112004-01710-045400FM-12+004499999V0203601N003612200019N0100001N1+02861+02541101331ADDAA124025991GF104991021011017501061001KA1240N+02341MA1999999100821MD1999999-0111REMSYN082AAXX  01124 82198 32797 43607 10286 20254 30082 40133 82160 333 20234 59011 60264;
0167821980999992002050118004-01710-045400FM-12+004499999V0203601N005112200019N0100001N1+03041+02481100961ADDAA199000091GF104991041021017501001001MA1999999100451MD1999999-0221REMSYN070AAXX  01184 82198 32797 43610 10304 20248 30045 40096 84200 333 59022;EQDQ01  00002PRCP99
0182821980999992002050218004-01710-045400FM-12+004499999V0203601N004610150019N0100001N1+02641+02331101041ADDAA106000591AY161061AY221061GF108991051051017501041001MA1999999100531MD1999999+0081MW1021REMSYN082AAXX  02184 82198 21797 83609 10264 20233 30053 40104 70262 85540 333 58008 69941;
0198821980999992002050300004-01710-045400FM-12+004499999V0201801N002610450019N0020001N1+02521+02421101211ADDAA199000091GF106991041051017501041001KA1240M+03021MA1999999100701MD1999999-0021REMSYN088AAXX  03004 82198 32795 61805 10252 20242 30070 40121 84540 333 10302 29088 55040 59002;EQDQ01  00002PRCP99
0201821980999992002050312004-01710-045400FM-12+004499999V0200501N002110450019N0100001N1+02761+02501101281ADDAA124002091AY161061AY221061GF108991041021017501031001KA1240N+02331MA1999999100771MD1999999-0051MW1031REMSYN088AAXX  03124 82198 21797 80504 10276 20250 30077 40128 70362 84230 333 20233 59005 60024;
0167821980999992002050318004-01710-045400FM-12+004499999V0203601N005112200019N0100001N1+03051+02281100831ADDAA199000091GF105991041021017501001011MA1999999100321MD1999999-0211REMSYN070AAXX  03184 82198 32797 53610 10305 20228 30032 40083 84201 333 59021;EQDQ01  00002PRCP99
0208821980999992002050400004-01710-045400FM-12+004499999V0200501N003112200019N0020001N1+02631+02411101091ADDAA199000091GA1001+999999999GF100991001001999999001001KA1240M+03151MA1999999100581MD1999999-0121REMSYN082AAXX  04004 82198 32995 00506 10263 20241 30058 40109 333 10315 29082 55061 59012;EQDQ01  00002PRCP99
0186821980999992002050412004-01710-045400FM-12+004499999V0200501N004112200019N0100001N1+02981+02511101311ADDAA199000091GF104991031021017501001011KA1240N+02401MA1999999100801MD1999999+0031REMSYN076AAXX  04124 82198 32797 40508 10298 20251 30080 40131 83201 333 20240 58003;EQDQ01  00002PRCP99
0182821980999992002050418004-01710-045400FM-12+004499999V0200501N005110150019N0100001N1+02641+02461101121ADDAA106018091AY161061AY221061GF108991051051017501021001MA1999999100601MD1999999+0281MW1031REMSYN082AAXX  04184 82198 21797 80510 10264 20246 30060 40112 70362 85520 333 58028 60181;
0208821980999992002050500004-01710-045400FM-12+004499999V0200501N002612200019N0020001N1+02601+02461101281ADDAA199000091GA1001+999999999GF100991001001999999001001KA1240M+03161MA1999999100771MD1999999+0191REMSYN082AAXX  05004 82198 32995 00505 10260 20246 30077 40128 333 10316 29088 55053 58019;EQDQ01  00002PRCP99
0173821980999992002050512004-01710-045400FM-12+004499999V0200501N006210150019N0100001N1+02931+02451101381ADDAA124018091GF105991051021017501001001KA1240N+02491MA1999999100871MD1999999-0071REMSYN082AAXX  05124 82198 22797 50512 10293 20245 30087 40138 85200 333 20249 59007 60184;
0182821980999992002050518004-01710-045400FM-12+004499999V0200501N005110150019N0100001N1+02551+02331101131ADDAA106003091AY161061AY221061GF106991051021017501061001MA1999999100621MD1999999+0021MW1151REMSYN082AAXX  05184 82198 21797 60510 10255 20233 30062 40113 71562 85260 333 58002 60031;
0173821980999992002050612004-01710-045400FM-12+004499999V0200501N004110150019N0100001N1+02941+02621101461ADDAA124003091GF106991061021017501001001KA1240N+02491MA1999999100951MD1999999+0081REMSYN082AAXX  06124 82198 22797 60508 10294 20262 30095 40146 86200 333 20249 58008 60034;
0182821980999992002050618004-01710-045400FM-12+004499999V0201401N004610150019N0100001N1+02561+02401101111ADDAA106033091AY161061AY221061GF108991051051017501021001MA1999999100601MD1999999-0021MW1631REMSYN082AAXX  06184 82198 21797 81409 10256 20240 30060 40111 76362 85520 333 59002 60331;
0213821980999992002050700004-01710-045400FM-12+004499999V0200501N002612200019N0020001N1+02601+02401101311ADDAA106050091AY161061AY221061GF102991021001017501061001KA1240M+03151MA1999999100801MD1999999-0021MW1021REMSYN100AAXX  07004 82198 21795 20505 10260 20240 30080 40131 70262 82060 333 10315 29088 55058 59002 60501;
0173821980999992002050712004-01710-045400FM-12+004499999V0203601N003610450019N0100001N1+02881+02521101361ADDAA124082091GF107991031021017501041041KA1240N+02351MA1999999100841MD1999999-0111REMSYN082AAXX  07124 82198 22797 73607 10288 20252 30084 40136 83244 333 20235 59011 60824;
0182821980999992002050718004-01710-045400FM-12+004499999V0203601N005710450019N0100001N1+02881+02391100961ADDAA106004191AY161061AY221061GF106991031051017501011061MA1999999100401MD1999999-0201MW1021REMSYN082AAXX  07184 82198 21797 63611 10288 20239 30040 40096 70262 83516 333 59020 60041;
0198821980999992002050800004-01710-045400FM-12+004499999V0209999C000010450019N0020001N1+02521+02421101251ADDAA199000091GF105991031021017501061001KA1240M+03081MA1999999100731MD1999999-0071REMSYN088AAXX  08004 82198 32795 50000 10252 20242 30073 40125 83260 333 10308 29086 55061 59007;EQDQ01  00002PRCP99
0173821980999992002050812004-01710-045400FM-12+004499999V0200501N003112200019N0100001N1+02971+02571101341ADDAA124004191GF106991041021017501001041KA1240N+02351MA1999999100821MD1999999-0021REMSYN082AAXX  08124 82198 22797 60506 10297 20257 30082 40134 84204 333 20235 59002 60044;
0182821980999992002050818004-01710-045400FM-12+004499999V0200501N003110450019N0100001N1+02491+02331101051ADDAA106019191AY161061AY251061GF108991041071017501061001MA1999999100531MD1999999+0131MW1201REMSYN082AAXX  08184 82198 21797 80506 10249 20233 30053 40105 72065 84760 333 58013 60191;
0179821980999992002050900004-01710-045400FM-12+004499999V0200501N001510450019N0020001N1+02501+02471101221ADDAA199000021GF106991041021017501061001KA1240M+03041MA1999999100701MD1999999-0031REMSYN088AAXX  09004 82198 32795 60503 10250 20247 30070 40122 84260 333 10304 29092 55032 59003;
0201821980999992002050912004-01710-045400FM-12+004499999V0200501N001512200019N0100001N1+02941+02541101381ADDAA124020191AY161061AY251061GF106991031021017501001011KA1240N+02361MA1999999100861MD1999999+0041MW1021REMSYN088AAXX  09124 82198 21797 60503 10294 20254 30086 40138 70265 83201 333 20236 58004 60204;
0182821980999992002050918004-01710-045400FM-12+004499999V0202301N001510150019N0100001N1+02601+02501101171ADDAA106011991AY161061AY221061GF108991051071017501011001MA1999999100651MD1999999+0121MW1031REMSYN082AAXX  09184 82198 21797 82303 10260 20250 30065 40117 70362 85710 333 58012 60121;
0198821980999992002051000004-01710-045400FM-12+004499999V0209999C000012200019N0020001N1+02421+02351101221ADDAA199000091GF102991021011017501001001KA1240M+03161MA1999999100701MD1999999+0001REMSYN088AAXX  10000 82198 32795 20000 10242 20235 30070 40122 82100 333 10316 29092 55035 58000;EQDQ01  00002PRCP99
0201821980999992002051012004-01710-045400FM-12+004499999V0200501N002610150019N0100001N1+02471+02331101451ADDAA124015091AY161061AY251061GF108991061071017501011001KA1240N+02311MA1999999100931MD1999999+0071MW1021REMSYN088AAXX  10124 82198 21797 80505 10247 20233 30093 40145 70265 86710 333 20231 58007 60154;
