0167822800999992002031118004-02530-044280FM-12+005199999V0203601N002110450019N0100001N1+02871+02541100981ADDAA199000091GF107991041051008001031061MA1999999100401MD1999999+0071REMSYN070AAXX  11184 82280 32597 73604 10287 20254 30040 40098 84536 333 58007;EQDQ01  00002PRCP99
0195822800999992002031818004-02530-044280FM-12+005199999V0201401N002610042019N0100001N1+02761+02601100911ADDAA199000091AY191061AY221061GF108991051061004501021999MA1999999100331MD1999999+0001MW1161REMSYN076AAXX  18184 82280 31497 81405 10276 20260 30033 40091 71692 8562/ 333 58000;EQDQ01  00002PRCP99
0213822800999992002031900004-02530-044280FM-12+005199999V0200501N001012200019N0100001N1+02451+02391100981ADDAA106002091AY191061AY261061GF102991021001004501021001KA1240M+03121MA1999999100401MD1999999-0141MW1011REMSYN100AAXX  19004 82280 21497 20502 10245 20239 30040 40098 70196 82020 333 10312 29092 55042 59014 60021;
0201822800999992002041012004-02530-044280FM-12+005199999V0200501N001010450019N0100001N1+02881+02561101111ADDAA124055991AY161061AY221061GF106991031021004501061011KA1240N+02441MA1999999100531MD1999999+0001MW1011REMSYN088AAXX  10124 82280 21497 60502 10288 20256 30053 40111 70162 83261 333 20244 58000 60564;
0173822800999992002043012004-02530-044280FM-12+005199999V0209999C000010042019N0100001N1+02801+02621101411ADDAA124008991GF108991071061004501051999KA1240N+02381MA1999999100831MD1999999+0211REMSYN082AAXX  30124 82280 22497 80000 10280 20262 30083 40141 8765/ 333 20238 58021 60094;
0182822800999992002051218004-02530-044280FM-12+005199999V0200501N004012200019N0100001N1+02831+02521101051ADDAA106001091AY161061AY221061GF104991011021004501011021MA1999999100471MD1999999+0031MW1021REMSYN082AAXX  12180 82280 21497 40504 10283 20252 30047 40105 70262 81212 333 58003 60011;
0198822800999992002051300004-02530-044280FM-12+005199999V0200501N000510042019N0100001N1+02601+02461101181ADDAA199000091GF106991061051004501001001KA1240M+03151MA1999999100601MD1999999+0011REMSYN088AAXX  13004 82280 32497 60501 10260 20246 30060 40118 86500 333 10315 29087 55089 58001;EQDQ01  00002PRCP99
0173822800999992002051312004-02530-044280FM-12+005199999V0200501N001510450019N0100001N1+02971+02661101381ADDAA124001091GF105991041021004501031001KA1240N+02321MA1999999100801MD1999999-0041REMSYN082AAXX  13124 82280 22497 50503 10297 20266 30080 40138 84230 333 20232 59004 60014;
0173822800999992002051612004-02530-044280FM-12+005199999V0200901N002112200019N0100001N1+02921+02661101231ADDAA124037191GF104991011021004501051011KA1240N+02461MA1999999100651MD1999999+0001REMSYN082AAXX  16124 82280 22497 40904 10292 20266 30065 40123 81251 333 20246 58000 60374;
0182822800999992002051618004-02530-044280FM-12+005199999V0200901N001510450019N0040001N1+02681+02581100911ADDAA106017091AY111061AY201061GF108991041051004501021999MA1999999100331MD1999999-0081MW1951REMSYN082AAXX  16184 82280 21496 80903 10268 20258 30033 40091 79510 8452/ 333 59008 60171;
0198822800999992002061100004-02530-044280FM-12+005199999V0209999C000012200019N0100001N1+02581+02401101291ADDAA199000091GF104991031021004501021001KA1240M+03061MA1999999100711MD1999999-0061REMSYN088AAXX  11004 82280 32497 40000 10258 20240 30071 40129 83220 333 10306 29085 55084 59006;EQDQ01  00002PRCP99
0186822800999992002061112004-02530-044280FM-12+005199999V0200901N001510042019N0100001N1+02941+02601101311ADDAA199000091GF106991061021004501001001KA1240N+02281MA1999999100731MD1999999-0041REMSYN076AAXX  11124 82280 32497 60903 10294 20260 30073 40131 86200 333 20228 59004;EQDQ01  00002PRCP99
0162822800999992002062712004-02530-044280FM-12+005199999V0200901N004112200019N0100001N1+02761+02441101631ADDGF103991021021004501031001KA1240N+02221MA1999999101051MD1999999-0021REMSYN082AAXX  27124 82280 22497 30908 10276 20244 30105 40163 82230 333 20222 59002 60054;
0186822800999992002071312004-02530-044280FM-12+005199999V0200501N001510450019N0100001N1+02741+02451101491ADDAA199000091GF106991041051004501031999KA1240N+02231MA1999999100901MD1999999+0021REMSYN076AAXX  13124 82280 32497 60503 10274 20245 30090 40149 8453/ 333 20223 58002;EQDQ01  00002PRCP99
