0167823970999992002031118004-03720-038550FM-12+001999999V0200901N004112200019N0200001N1+03121+02251101011ADDAA199000091GF103991021031008001041001MA1999999100701MD1999999-0021REMSYN070AAXX  11184 82397 32598 30908 10312 20225 30070 40101 82340 333 59002;EQDQ01  00002PRCP99
0182823970999992002031818004-03720-038550FM-12+001999999V0200901N002610450019N0200001N1+02871+02481100941ADDAA106000391AY151061AY221061GF106991031031008001031061MA1999999100631MD1999999-0051MW1031REMSYN082AAXX  18184 82397 21598 60905 10287 20248 30063 40094 70352 83336 333 59005 69931;
0213823970999992002031900004-03720-038550FM-12+001999999V0200901N000510450019N0040001N1+02621+02521101281ADDAA106001091AY161061AY221061GF106991031011008001051001KA1240M+03021MA1999999100971MD1999999+0021MW1031REMSYN100AAXX  19004 82397 21596 60901 10262 20252 30097 40128 70362 83150 333 10302 29090 55020 58002 60011;
0164823970999992002040918004-03720-038550FM-12+001999999V0209999C999992200019N0013001N1+99999+99999106011ADDGA1001+999999999GF100991001001999999001001MA1999999104041REMSYN060AAXX  09184 82397 22213 04300 20601 30404 40601 50701 80293;EQDQ01+000007APCTENQ02+007017APC3  
0201823970999992002041012004-03720-038550FM-12+001999999V0201401N002110075019N0010001N1+02431+02371101301ADDAA124069191AY191061AY261061GF108991081071008001999999KA1240N+02361MA1999999100991MD1999999+0071MW1621REMSYN088AAXX  10124 82397 21594 81404 10243 20237 30099 40130 76296 887// 333 20236 58007 60694;
0201823970999992002043012004-03720-038550FM-12+001999999V0200901N002110450019N0200001N1+02801+02521101491ADDAA124007991AY161061AY251061GF107991041081008001031011KA1240N+02301MA1999999101181MD1999999+0011MW1031REMSYN088AAXX  30124 82397 21598 70904 10280 20252 30118 40149 70365 84831 333 20230 58001 60084;
0167823970999992002051218004-03720-038550FM-12+001999999V0200901N007012200019N0200001N1+03081+02241100841ADDAA199000091GF104991031081008001001011MA1999999100831MD1999999-0141REMSYN070AAXX  12180 82397 32598 40907 10308 20224 30083 40084 83801 333 59014;EQDQ01  00002PRCP99
0198823970999992002051300004-03720-038550FM-12+001999999V0201801N000510120019N0020001N1+02561+02381101441ADDAA199000091GF106991061081008001001001KA1240M+03121MA1999999101131MD1999999-0021REMSYN088AAXX  13004 82397 32595 61801 10256 20238 30113 40144 86800 333 10312 29080 55104 59002;EQDQ01  00002PRCP99
0186823970999992002051312004-03720-038550FM-12+001999999V0201801N003110450019N0200001N1+02591+02271101481ADDAA199000091GF108991011011008001011999KA1240N+02361MA1999999101171MD1999999-0031REMSYN076AAXX  13124 82397 32598 81806 10259 20227 30117 40148 8111/ 333 20236 59003;EQDQ01  00002PRCP99
0201823970999992002051612004-03720-038550FM-12+001999999V0201401N003610120019N0200001N1+02821+02421101331ADDAA124003091AY161061AY251061GF106991061081008001001001KA1240N+02481MA1999999101021MD1999999-0141MW1031REMSYN088AAXX  16124 82397 21598 61407 10282 20242 30102 40133 70365 86800 333 20248 59014 60034;
0167823970999992002051618004-03720-038550FM-12+001999999V0200901N004110450019N0200001N1+03041+02381101021ADDAA199000091GF107991021021008001031011MA1999999100711MD1999999-0091REMSYN070AAXX  16184 82397 32598 70908 10304 20238 30071 40102 82231 333 59009;EQDQ01  00002PRCP99
0201823970999992002052912004-03720-038550FM-12+001999999V0201401N002612200019N0200001N1+02821+02361101321ADDAA124005191AY161061AY201061GF104991041011008001001001KA1240N+02311MA1999999101011MD1999999+0011MW1031REMSYN088AAXX  29124 82397 21598 41405 10282 20236 30101 40132 70360 84100 333 20231 58001 60054;
0198823970999992002061100004-03730-038550FM-12+001999999V0200901N000512200019N0020001N1+02561+02311101421ADDAA199000091GF103991031021008001001001KA1240M+03081MA1999999101111MD1999999+0031REMSYN088AAXX  11004 82397 32595 30901 10256 20231 30111 40142 83200 333 10308 29077 55081 58003;EQDQ01  00002PRCP99
0190823970999992002061112004-03730-038550FM-12+001999999V0201401N003112200019N0500001N1+02801+02251101501ADDAY151061AY221061GF102991011011008001031001KA1240N+02271MA1999999101191MD1999999-0011MW1031REMSYN088AAXX  11124 82397 21599 21406 10280 20225 30119 40150 70352 81130 333 20227 59001 69934;
0190823970999992002062712004-03730-038550FM-12+001999999V0201401N003112200019N0200001N1+02661+02291101811ADDAY161061AY211061GF106991021011008001001061KA1240N+02251MA1999999101501MD1999999-0101MW1031REMSYN088AAXX  27124 82397 21598 61406 10266 20229 30150 40181 70361 82106 333 20225 59010 60074;
0186823970999992002071312004-03730-038550FM-12+001999999V0201401N003610450019N0200001N1+02601+02331101601ADDAA199000091GF107991041081008001031001KA1240N+02251MA1999999101291MD1999999-0071REMSYN076AAXX  13124 82397 32598 71407 10260 20233 30129 40160 84830 333 20225 59007;EQDQ01  00002PRCP99
