0198823920999992002010100004-03690-040340FM-12+008399999V0200501N005110450019N0040001N1+02821+02221100911ADDAA199000091GF106991041041004501031001KA1240M+03681MA1999999099901MD1999999-0051REMSYN088AAXX  01004 82392 32496 60510 10282 20222 39990 40091 84430 333 10368 29062 55044 59005;EQDQ01  00002PRCP99
0167823920999992002010118004-03690-040340FM-12+008399999V0200901N001510450019N0500001N1+03421+02091100601ADDAA199000091GF105991031021004501031001MA1999999099601MD1999999+0021REMSYN070AAXX  01184 82392 32499 50903 10342 20209 39960 40060 83230 333 58002;EQDQ01  00002PRCP99
0198823920999992002010200004-03690-040340FM-12+008399999V0200501N005710450019N0040001N1+02801+02311100911ADDAA199000091GF106991041041004501031001KA1240M+03561MA1999999099901MD1999999+0001REMSYN088AAXX  02004 82392 32496 60511 10280 20231 39990 40091 84430 333 10356 29066 55066 58000;EQDQ01  00002PRCP99
0186823920999992002010212004-03690-040340FM-12+008399999V0201401N001010042019N0500001N1+02941+02211101061ADDAA199000091GF106991051021004501031001KA1240N+02591MA1999999100051MD1999999-0031REMSYN076AAXX  02124 82392 32499 61402 10294 20221 30005 40106 85230 333 20259 59003;EQDQ01  00002PRCP99
0167823920999992002010218004-03690-040340FM-12+008399999V0200901N001510450019N0500001N1+03161+01991100751ADDAA199000091GF108991041061004501021999MA1999999099741MD1999999+0141REMSYN070AAXX  02184 82392 32499 80903 10316 20199 39974 40075 8462/ 333 58014;EQDQ01  00002PRCP99
0198823920999992002010300004-03690-040340FM-12+008399999V0200501N005710450019N0040001N1+02881+02281101111ADDAA199000091GF107991041051004501031001KA1240M+03381MA1999999100101MD1999999+0201REMSYN088AAXX  03004 82392 32496 70511 10288 20228 30010 40111 84530 333 10338 29064 55020 58020;EQDQ01  00002PRCP99
0186823920999992002010312004-03690-040340FM-12+008399999V0203201N000510450019N0500001N1+02741+02341101201ADDAA199000091GF108991031071004501021999KA1240N+02491MA1999999100181MD1999999+0131REMSYN076AAXX  03124 82392 32499 83201 10274 20234 30018 40120 8372/ 333 20249 58013;EQDQ01  00002PRCP99
0167823920999992002010318004-03690-040340FM-12+008399999V0201401N001010042019N0500001N1+03421+01911100761ADDAA199000091GF107991051041004501031001MA1999999099751MD1999999+0011REMSYN070AAXX  03184 82392 32499 71402 10342 20191 39975 40076 85430 333 58001;EQDQ01  00002PRCP99
0208823920999992002010400004-03690-040340FM-12+008399999V0203601N001512200019N0040001N1+02801+02251101071ADDAA199000091GA1001+999999999GF100991001001999999001001KA1240M+03501MA1999999100051MD1999999-0051REMSYN082AAXX  04004 82392 32996 03603 10280 20225 30005 40107 333 10350 29066 55031 59005;EQDQ01  00002PRCP99
0186823920999992002010412004-03690-040340FM-12+008399999V0200501N002612200019N0500001N1+03001+02271101161ADDAA199000091GF104991031021004501031001KA1240N+02281MA1999999100151MD1999999-0031REMSYN076AAXX  04124 82392 32499 40505 10300 20227 30015 40116 83230 333 20228 59003;EQDQ01  00002PRCP99
0167823920999992002010418004-03690-040340FM-12+008399999V0200501N004610450019N0500001N1+03521+01601100691ADDAA199000091GF108991031051004501021999MA1999999099681MD1999999-0071REMSYN070AAXX  04184 82392 32499 80509 10352 20160 39968 40069 8352/ 333 59007;EQDQ01  00002PRCP99
0198823920999992002010500004-03690-040340FM-12+008399999V0200501N005710450019N0040001N1+02821+02221101111ADDAA199000091GF106991041041004501031001KA1240M+03661MA1999999100101MD1999999+0051REMSYN088AAXX  05004 82392 32496 60511 10282 20222 30010 40111 84430 333 10366 29059 55061 58005;EQDQ01  00002PRCP99
0186823920999992002010512004-03690-040340FM-12+008399999V0200901N000510450019N0500001N1+02881+02181101201ADDAA199000091GF106991031051004501031001KA1240N+02541MA1999999100191MD1999999+0041REMSYN076AAXX  05124 82392 32499 60901 10288 20218 30019 40120 83530 333 20254 58004;EQDQ01  00002PRCP99
0167823920999992002010518004-03690-040340FM-12+008399999V0200901N002610450019N0500001N1+03471+01921100761ADDAA199000091GF106991031041004501031001MA1999999099751MD1999999+0071REMSYN070AAXX  05184 82392 32499 60905 10347 20192 39975 40076 83430 333 58007;EQDQ01  00002PRCP99
0198823920999992002010600004-03690-040340FM-12+008399999V0203601N004110450019N0040001N1+02761+02231101091ADDAA199000091GF106991031041004501031001KA1240M+03541MA1999999100071MD1999999-0031REMSYN088AAXX  06004 82392 32496 63608 10276 20223 30007 40109 83430 333 10354 29063 55046 59003;EQDQ01  00002PRCP99
0186823920999992002010612004-03690-040340FM-12+008399999V0200901N001010450019N0500001N1+02801+02251101121ADDAA199000091GF108991031061004501021999KA1240N+02501MA1999999100101MD1999999-0091REMSYN076AAXX  06124 82392 32499 80902 10280 20225 30010 40112 8362/ 333 20250 59009;EQDQ01  00002PRCP99
0167823920999992002010618004-03690-040340FM-12+008399999V0200901N002110450019N0500001N1+03241+02101100611ADDAA199000091GF106991041041004501031001MA1999999099611MD1999999-0141REMSYN070AAXX  06184 82392 32499 60904 10324 20210 39961 40061 84430 333 59014;EQDQ01  00002PRCP99
0213823920999992002010700004-03690-040340FM-12+008399999V0202301N000510042019N0040001N1+02321+02291101221ADDAA106023991AY161061AY261061GF108991051051004501021999KA1240M+03301MA1999999100201MD1999999+0131MW1611REMSYN100AAXX  07004 82392 21496 82301 10232 20229 30020 40122 76166 8552/ 333 10330 29080 55005 58013 60241;
0201823920999992002010712004-03690-040340FM-12+008399999V0202301N000510450019N0200001N1+02341+02311101181ADDAA124035191AY161061AY261061GF108991031061004501021999KA1240N+02101MA1999999100151MD1999999+0051MW1031REMSYN088AAXX  07124 82392 21498 82301 10234 20231 30015 40118 70366 8362/ 333 20210 58005 60354;
0167823920999992002010718004-03690-040340FM-12+008399999V0202701N000510450019N0500001N1+03011+02101100761ADDAA199000091GF106991041041004501031001MA1999999099741MD1999999+0131REMSYN070AAXX  07184 82392 32499 62701 10301 20210 39974 40076 84430 333 58013;EQDQ01  00002PRCP99
0213823920999992002010800004-03690-040340FM-12+008399999V0203601N002610042019N0040001N1+02441+02341101171ADDAA106002091AY161061AY261061GF108991071051004501021999KA1240M+03101MA1999999100141MD1999999-0061MW1611REMSYN100AAXX  08004 82392 21496 83605 10244 20234 30014 40117 76166 8752/ 333 10310 29086 55013 59006 60021;
0201823920999992002010812004-03690-040340FM-12+008399999V0202301N000510450019N0500001N1+02481+02271101231ADDAA124033091AY161061AY261061GF106991041041004501031001KA1240N+02201MA1999999100201MD1999999+0051MW1021REMSYN088AAXX  08124 82392 21499 62301 10248 20227 30020 40123 70266 84430 333 20220 58005 60334;
0182823920999992002010818004-03690-040340FM-12+008399999V0203601N000510042019N0500001N1+02961+02131100741ADDAA106000191AY151061AY251061GF107991051051004501031001MA1999999099721MD1999999-0021MW1021REMSYN082AAXX  08184 82392 21499 73601 10296 20213 39972 40074 70255 85530 333 59002 69921;
0198823920999992002010900004-03690-040340FM-12+008399999V0203601N003110450019N0040001N1+02631+02271101091ADDAA199000091GF108991021051004501021999KA1240M+03001MA1999999100071MD1999999-0071REMSYN088AAXX  09004 82392 32496 83606 10263 20227 30007 40109 8252/ 333 10300 29077 55004 59007;EQDQ01  00002PRCP99
0201823920999992002010912004-03690-040340FM-12+008399999V0202301N003610042019N0500001N1+02481+02191101401ADDAA124038191AY161061AY261061GF107991051041004501031001KA1240N+02101MA1999999100381MD1999999+0181MW1021REMSYN088AAXX  09124 82392 21499 72307 10248 20219 30038 40140 70266 85430 333 20210 58018 60384;
0167823920999992002010918004-03690-040340FM-12+008399999V0200501N002610042019N0500001N1+02821+02221101091ADDAA199000091GF108991051041004501031001MA1999999100061MD1999999+0341REMSYN070AAXX  09184 82392 32499 80505 10282 20222 30006 40109 85430 333 58034;EQDQ01  00002PRCP99
0198823920999992002011000004-03690-040340FM-12+008399999V0200501N001010450019N0040001N1+02561+02361101241ADDAA199000091GF106991031051004501021001KA1240M+02941MA1999999100211MD1999999+0141REMSYN088AAXX  10004 82392 32496 60502 10256 20236 30021 40124 83520 333 10294 29080 55003 58014;EQDQ01  00002PRCP99
0186823920999992002011012004-03690-040340FM-12+008399999V0201401N001010450019N0500001N1+02801+02081101371ADDAA199000091GF105991041021004501021001KA1240N+02301MA1999999100351MD1999999-0031REMSYN076AAXX  10124 82392 32499 51402 10280 20208 30035 40137 84220 333 20230 59003;EQDQ01  00002PRCP99
0167823920999992002011018004-03690-040340FM-12+008399999V0201401N002610450019N0500001N1+03161+02021100871ADDAA199000091GF106991031051004501021011MA1999999099851MD1999999-0211REMSYN070AAXX  10184 82392 32499 61405 10316 20202 39985 40087 83521 333 59021;EQDQ01  00002PRCP99
0182823920999992002011118004-03690-040340FM-12+008399999V0200901N002611050019N0500001N1+03171+02191101021ADDAA106000591AY161061AY261061GF105991021051004501031021MA1999999100001MD1999999+0151MW1021REMSYN082AAXX  11184 82392 21499 50905 10317 20219 30000 40102 70266 82532 333 58015 69941;
0223823920999992002011200004-03690-040340FM-12+008399999V0203601N001512200019N0040001N1+02521+02341101321ADDAA106001091AY161061AY251061GA1001+999999999GF100991001001999999001001KA1240M+03281MA1999999100301MD1999999+0021MW1021REMSYN094AAXX  12004 82392 21996 03603 10252 20234 30030 40132 70265 333 10328 29079 55074 58002 60011;
0173823920999992002011212004-03690-040340FM-12+008399999V0201401N001010042019N0500001N1+02821+02221101371ADDAA124002091GF105991051041004501031001KA1240N+02301MA1999999100351MD1999999-0051REMSYN082AAXX  12124 82392 22499 51402 10282 20222 30035 40137 85430 333 20230 59005 60024;
0167823920999992002011218004-03690-040340FM-12+008399999V0201401N001010450019N0500001N1+03121+01601100921ADDAA199000091GF105991041041004501031001MA1999999099901MD1999999-0101REMSYN070AAXX  12184 82392 32499 51402 10312 20160 39990 40092 84430 333 59010;EQDQ01  00002PRCP99
0198823920999992002011300004-03690-040340FM-12+008399999V0200501N003110042019N0040001N1+02701+02431101271ADDAA199000091GF107991051051004501031001KA1240M+03281MA1999999100251MD1999999-0051REMSYN088AAXX  13004 82392 32496 70506 10270 20243 30025 40127 85530 333 10328 29070 55073 59005;EQDQ01  00002PRCP99
0201823920999992002011312004-03690-040340FM-12+008399999V0201401N001010450019N0500001N1+02701+02301101301ADDAA124002091AY161061AY261061GF107991041041004501031001KA1240N+02321MA1999999100281MD1999999-0071MW1021REMSYN088AAXX  13124 82392 21499 71402 10270 20230 30028 40130 70266 84430 333 20232 59007 60024;
0182823920999992002011318004-03690-040340FM-12+008399999V0203601N003110021019N0040001N1+02541+02381100941ADDAA106005191AY101061AY221061GF108991081061002501999999MA1999999099911MD1999999+0011MW1651REMSYN082AAXX  13184 82392 21396 83606 10254 20238 39991 40094 76502 886// 333 58001 60051;
0213823920999992002011400004-03690-040340FM-12+008399999V0202301N000510450019N0040001N1+02301+02251101271ADDAA106008991AY161061AY261061GF107991041071004501011999KA1240M+03281MA1999999100241MD1999999-0011MW1021REMSYN100AAXX  14004 82392 21496 72301 10230 20225 30024 40127 70266 8471/ 333 10328 29091 55038 59001 60091;
0173823920999992002011412004-03690-040340FM-12+008399999V0201401N000512200019N0500001N1+02741+02471101231ADDAA124015091GF104991041021004501001001KA1240N+02201MA1999999100201MD1999999-0081REMSYN082AAXX  14124 82392 22499 41401 10274 20247 30020 40123 84200 333 20220 59008 60154;
0167823920999992002011418004-03690-040340FM-12+008399999V0200501N005710042019N0500001N1+03181+02441100771ADDAA199000091GF106991051051004501031001MA1999999099751MD1999999-0161REMSYN070AAXX  14184 82392 32499 60511 10318 20244 39975 40077 85530 333 59016;EQDQ01  00002PRCP99
0198823920999992002011500004-03690-040340FM-12+008399999V0201801N000512200019N0040001N1+02461+02251100871ADDAA199000091GF103991021021004501031001KA1240M+03261MA1999999099951MD1999999-0291REMSYN088AAXX  15004 82392 32496 31801 10246 20225 39995 40087 82230 333 10326 29082 55082 59029;EQDQ01  00002PRCP99
0186823920999992002011512004-03690-040340FM-12+008399999V0201401N001010450019N0500001N1+02741+02361101071ADDAA199000091GF106991041041004501031001KA1240N+02301MA1999999100051MD1999999-0151REMSYN076AAXX  15124 82392 32499 61402 10274 20236 30005 40107 84430 333 20230 59015;EQDQ01  00002PRCP99
0213823920999992002011600004-03690-040340FM-12+008399999V0203601N000510042019N0040001N1+02381+02291100951ADDAA106106991AY161061AY261061GF108991081061004501999999KA1240M+03301MA1999999099941MD1999999-0011MW1631REMSYN100AAXX  16004 82392 21496 83601 10238 20229 39994 40095 76366 886// 333 10330 29080 55083 59001 61071;
0201823920999992002011612004-03690-040340FM-12+008399999V0202701N000510042019N0500001N1+02461+02391101091ADDAA124024991AY161061AY261061GF107991051041004501031001KA1240N+02261MA1999999100061MD1999999+0011MW1021REMSYN088AAXX  16124 82392 21499 72701 10246 20239 30006 40109 70266 85430 333 20226 58001 60254;
0167823920999992002011618004-03690-040340FM-12+008399999V0203201N001510042019N0500001N1+02901+02431100741ADDAA199000091GF107991051051004501031001MA1999999099721MD1999999+0191REMSYN070AAXX  16184 82392 32499 73203 10290 20243 39972 40074 85530 333 58019;EQDQ01  00002PRCP99
0213823920999992002011700004-03690-040340FM-12+008399999V0200901N000510042019N0040001N1+02401+02331101121ADDAA106002091AY161061AY261061GF108991061061004501999999KA1240M+03061MA1999999100091MD1999999+0151MW1021REMSYN100AAXX  17004 82392 21496 80901 10240 20233 30009 40112 70266 866// 333 10306 29091 55030 58015 60021;
0201823920999992002011712004-03690-040340FM-12+008399999V0201401N000510450019N0500001N1+02701+02351101111ADDAA124002091AY151061AY251061GF106991031041004501031001KA1240N+02341MA1999999100091MD1999999+0031MW1021REMSYN088AAXX  17124 82392 21499 61401 10270 20235 30009 40111 70255 83430 333 20234 58003 60024;
0182823920999992002011718004-03690-040340FM-12+008399999V0200901N003110021019N0100001N1+02531+02331100931ADDAA106004191AY101061AY221061GF108991061061002501021999MA1999999099901MD1999999+0081MW1631REMSYN082AAXX  17184 82392 21397 80906 10253 20233 39990 40093 76302 8662/ 333 58008 60041;
0213823920999992002011800004-03690-040340FM-12+008399999V0209999C000010042019N0040001N1+02381+02331101201ADDAA106005191AY161061AY261061GF108991051061004501021999KA1240M+03061MA1999999100171MD1999999+0081MW1021REMSYN100AAXX  18004 82392 21496 80000 10238 20233 30017 40120 70266 8562/ 333 10306 29091 55018 58008 60051;
0201823920999992002011812004-03690-040340FM-12+008399999V0202701N000510450019N0500001N1+02281+02261101321ADDAA124038191AY161061AY261061GF108991041061004501021999KA1240N+02101MA1999999100301MD1999999+0211MW1021REMSYN088AAXX  18124 82392 21499 82701 10228 20226 30030 40132 70266 8462/ 333 20210 58021 60384;
0167823920999992002011818004-03690-040340FM-12+008399999V0201401N000510450019N0500001N1+02881+02181100921ADDAA199000091GF106991041021004501031001MA1999999099901MD1999999+0001REMSYN070AAXX  18184 82392 32499 61401 10288 20218 39990 40092 84230 333 58000;EQDQ01  00002PRCP99
0198823920999992002011900004-03690-040340FM-12+008399999V0202301N000512200019N0040001N1+02461+02391101031ADDAA199000091GF103991021021004501031001KA1240M+03001MA1999999100001MD1999999-0171REMSYN088AAXX  19004 82392 32496 32301 10246 20239 30000 40103 82230 333 10300 29089 55035 59017;EQDQ01  00002PRCP99
0186823920999992002011912004-03690-040340FM-12+008399999V0200501N000510450019N0500001N1+02671+02331101121ADDAA199000091GF106991031041004501011001KA1240N+02281MA1999999100101MD1999999-0201REMSYN076AAXX  19124 82392 32499 60501 10267 20233 30010 40112 83410 333 20228 59020;EQDQ01  00002PRCP99
0167823920999992002011918004-03690-040340FM-12+008399999V0209999C000010450019N0500001N1+02951+02101100841ADDAA199000091GF106991021021004501011011MA1999999099821MD1999999-0081REMSYN070AAXX  19184 82392 32499 60000 10295 20210 39982 40084 82211 333 59008;EQDQ01  00002PRCP99
0198823920999992002012000004-03690-040340FM-12+008399999V0203601N000512200019N0040001N1+02521+02251101101ADDAA199000091GF103991011021004501011001KA1240M+02981MA1999999100081MD1999999+0081REMSYN088AAXX  20004 82392 32496 33601 10252 20225 30008 40110 81210 333 10298 29078 55030 58008;EQDQ01  00002PRCP99
0186823920999992002012012004-03690-040340FM-12+008399999V0201401N001012200019N0500001N1+02661+02331101271ADDAA199000091GF103991021011004501031001KA1240N+02181MA1999999100251MD1999999+0151REMSYN076AAXX  20124 82392 32499 31402 10266 20233 30025 40127 82130 333 20218 58015;EQDQ01  00002PRCP99
0167823920999992002012018004-03690-040340FM-12+008399999V0201401N001010042019N0500001N1+02921+02271100921ADDAA199000091GF107991051041004501031001MA1999999099901MD1999999+0081REMSYN070AAXX  20184 82392 32499 71402 10292 20227 39990 40092 85430 333 58008;EQDQ01  00002PRCP99
0197823920999992002012100004-03690-040340FM-12+008399999V0202301N000510450019N0040001N1+02481+02411101241ADDAA199000091GF106991041041004501031001KA1240M+03181MA1999999100221MD1999999+0141REMSYN087AAXX  21004 82392 32496 62301 10248 20241 30022 4012484430 333 10318 29085 55078 58014;EQDQ01  00002PRCP99
0186823920999992002012112004-03690-040340FM-12+008399999V0200501N002612200019N0500001N1+02781+02361101361ADDAA199000091GF104991031021004501031001KA1240N+02281MA1999999100341MD1999999+0091REMSYN076AAXX  21124 82392 32499 40505 10278 20236 30034 40136 83230 333 20228 58009;EQDQ01  00002PRCP99
0182823920999992002012118004-03690-040340FM-12+008399999V0203201N000510450019N0500001N1+02881+02541100981ADDAA106000891AY151061AY251061GF107991041071004501011001MA1999999099961MD1999999+0061MW1031REMSYN082AAXX  21184 82392 21499 73201 10288 20254 39996 40098 70355 84710 333 58006 69981;
0213823920999992002012200004-03690-040340FM-12+008399999V0209999C000010042019N0040001N1+02421+02331101461ADDAA106014091AY161061AY261061GF108991051071004501011999KA1240M+03141MA1999999100441MD1999999+0221MW1021REMSYN100AAXX  22004 82392 21496 80000 10242 20233 30044 40146 70266 8571/ 333 10314 29088 55064 58022 60141;
0201823920999992002012212004-03690-040340FM-12+008399999V0202701N000510450019N0500001N1+02221+02151101501ADDAA124033091AY161061AY261061GF108991031061004501021999KA1240N+02001MA1999999100471MD1999999+0131MW1021REMSYN088AAXX  22124 82392 21499 82701 10222 20215 30047 40150 70266 8362/ 333 20200 58013 60334;
0198823920999992002012300004-03690-040340FM-12+008399999V0209999C000010450019N0040001N1+02461+02361101451ADDAA199000091GF106991031061004501011001KA1240M+02711MA1999999100421MD1999999-0021REMSYN088AAXX  23000 82392 32496 60000 10246 20236 30042 40145 83610 333 10271 29090 55001 59002;EQDQ01  00002PRCP99
0186823920999992002012312004-03690-040340FM-12+008399999V0209999C000010450019N0500001N1+02501+02431101451ADDAA199000091GF108991041061004501021999KA1240N+02161MA1999999100421MD1999999-0051REMSYN076AAXX  23124 82392 32499 80000 10250 20243 30042 40145 8462/ 333 20216 59005;EQDQ01  00002PRCP99
0167823920999992002012318004-03690-040340FM-12+008399999V0200901N001512200019N0500001N1+02121+02111101071ADDAA199000091GF103991021011004501031001MA1999999100051MD1999999-0201REMSYN070AAXX  23184 82392 32499 30903 10212 20211 30005 40107 82130 333 59020;EQDQ01  00002PRCP99
0198823920999992002012400004-03690-040340FM-12+008399999V0203601N003110450019N0040001N1+02611+02251101301ADDAA199000091GF106991031041004501031001KA1240M+03161MA1999999100281MD1999999-0141REMSYN088AAXX  24004 82392 32496 63606 10261 20225 30028 40130 83430 333 10316 29078 55077 59014;EQDQ01  00002PRCP99
0186823920999992002012412004-03690-040340FM-12+008399999V0209999C000011050019N0500001N1+02661+02241101361ADDAA199000091GF105991021021004501011011KA1240N+02151MA1999999100341MD1999999-0081REMSYN076AAXX  24124 82392 32499 50000 10266 20224 30034 40136 82211 333 20215 59008;EQDQ01  00002PRCP99
0167823920999992002012418004-03690-040340FM-12+008399999V0200901N001010450019N0500001N1+03071+02351100961ADDAA199000091GF106991031061004501011011MA1999999099941MD1999999-0111REMSYN070AAXX  24184 82392 32499 60902 10307 20235 39994 40096 83611 333 59011;EQDQ01  00002PRCP99
0198823920999992002012500004-03690-040340FM-12+008399999V0200501N003112200019N0040001N1+02581+02311101221ADDAA199000091GF103991031001004501031001KA1240M+03101MA1999999100201MD1999999-0081REMSYN088AAXX  25004 82392 32496 30506 10258 20231 30020 40122 83030 333 10310 29078 55049 59008;EQDQ01  00002PRCP99
0186823920999992002012512004-03690-040340FM-12+008399999V0201401N001012200019N0500001N1+02721+02341101361ADDAA199000091GF104991041021004501001001KA1240N+02301MA1999999100341MD1999999+0001REMSYN076AAXX  25124 82392 32499 41402 10272 20234 30034 40136 84200 333 20230 58000;EQDQ01  00002PRCP99
0182823920999992002012518004-03690-040340FM-12+008399999V0201401N000510450019N0500001N1+02761+02461100971ADDAA106020191AY161061AY261061GF106991041071004501011001MA1999999099961MD1999999+0021MW1021REMSYN082AAXX  25184 82392 21499 61401 10276 20246 39996 40097 70266 84710 333 58002 60201;
0198823920999992002012600004-03690-040340FM-12+008399999V0202301N000510450019N0040001N1+02521+02431101361ADDAA199000091GF106991041041004501031001KA1240M+03021MA1999999100341MD1999999+0001REMSYN088AAXX  26004 82392 32496 62301 10252 20243 30034 40136 84430 333 10302 29088 55067 58000;EQDQ01  00002PRCP99
0156823920999992002012612004-03690-040340FM-12+008399999V0202701N000510450019N0500001N1+02761+02481101421ADDGF107991041051004501031001KA1240N+02301MA1999999100401MD1999999+0061REMSYN076AAXX  26124 82392 22499 72701 10276 20248 30040 40142 84530 333 20230 58006;
0182823920999992002012618004-03690-040340FM-12+008399999V0203601N003112200019N0500001N1+02841+02351101071ADDAA106000591AY151061AY221061GF103991021011004501031001MA1999999100051MD1999999+0091MW1031REMSYN082AAXX  26184 82392 21499 33606 10284 20235 30005 40107 70352 82130 333 58009 69941;
0232823920999992002012700004-03690-040340FM-12+008399999V0200201N036022200019N0040001N1+02201+02161101381ADDAA106020191AY161061AY251061GF104991031041004501031001KA1240M+02981MA1999999100351MD1999999+0011MW1031REMSYN100AAXX  27004 82392 21496 40270 10220 20216 30035 40138 70365 83430 333 10298 29088 55067 58001 60201;EQDQ01+003603WOSPD 
0201823920999992002012712004-03690-040340FM-12+008399999V0201801N000510450019N0100001N1+02561+02361101351ADDAA124022191AY161061AY261061GF106991041041002501031001KA1240N+02181MA1999999100321MD1999999-0081MW1021REMSYN088AAXX  27124 82392 21397 61801 10256 20236 30032 40135 70266 84430 333 20218 59008 60224;
0182823920999992002012718004-03690-040340FM-12+008399999V0200901N000510042019N0500001N1+02541+02441101021ADDAA106013091AY161061AY261061GF107991051071004501031001MA1999999099991MD1999999-0061MW1021REMSYN082AAXX  27184 82392 21499 70901 10254 20244 39999 40102 70266 85730 333 59006 60131;
0198823920999992002012800004-03690-040340FM-12+008399999V0203601N000512200019N0040001N1+02441+02341101151ADDAA199000091GF103991021021004501031001KA1240M+02831MA1999999100121MD1999999-0231REMSYN088AAXX  28004 82392 32496 33601 10244 20234 30012 40115 82230 333 10283 29093 55039 59023;EQDQ01  00002PRCP99
0173823920999992002012812004-03690-040340FM-12+008399999V0202301N000510450019N0500001N1+02621+02531101271ADDAA124013091GF107991041041004501031001KA1240N+02211MA1999999100241MD1999999-0081REMSYN082AAXX  28124 82392 22499 72301 10262 20253 30024 40127 84430 333 20221 59008 60134;
0182823920999992002012818004-03690-040340FM-12+008399999V0202301N000510450019N0500001N1+02761+02381100951ADDAA106013091AY161061AY221061GF106991031041004501031001MA1999999099931MD1999999-0061MW1021REMSYN082AAXX  28184 82392 21499 62301 10276 20238 39993 40095 70262 83430 333 59006 60131;
0198823920999992002012900004-03690-040340FM-12+008399999V0209999C000010450019N0040001N1+02531+02401101141ADDAA199000091GF108991031071004501011999KA1240M+02901MA1999999100121MD1999999+0001REMSYN088AAXX  29004 82392 32496 80000 10253 20240 30012 40114 8371/ 333 10290 29090 55052 58000;EQDQ01  00002PRCP99
0172823920999992002012912004-03690-040340FM-12+008399999V0202701N000512200019N0500001N1+02701+02521101181ADDAA124013091GF104991031021004501031001KA1240N+02291MA1999999100161MD1999999-0081REMSYN081AAXX  29124 82392 2249942701 10270 20252 30016 40118 83230 333 20229 59008 60134;
0182823920999992002012918004-03690-040340FM-12+008399999V0203601N001510021019N0040001N1+02301+02251101001ADDAA106025991AY101061AY221061GF108991081071002501999999MA1999999099971MD1999999+0041MW1971REMSYN082AAXX  29184 82392 21396 83603 10230 20225 39997 40100 79702 887// 333 58004 60261;
0213823920999992002013000004-03690-040340FM-12+008399999V0200901N000510450019N0040001N1+02401+02351101171ADDAA106006191AY161061AY261061GF107991031071004501011001KA1240M+03091MA1999999100151MD1999999+0031MW1021REMSYN100AAXX  30004 82392 21496 70901 10240 20235 30015 40117 70266 83710 333 10309 29095 55056 58003 60061;
0200823920999992002013012004-03690-040340FM-12+008399999V0201801N001010450019N0500001N1+02661+02481101231ADDAA124032091AY161061AY261061GF105991041021004501031001KA1999N+02261MA1999999100201MD1999999+0041MW1021REMSYN087AAXX  30124 82392 21499 51802 10266 20248 30020 40123 70266 84230333 20226 58004 60324;
0167823920999992002013018004-03690-040340FM-12+008399999V0203201N002610450019N0500001N1+02821+02361100981ADDAA199000091GF108991031071004501021999MA1999999099961MD1999999-0011REMSYN070AAXX  30184 82392 32499 83205 10282 20236 39996 40098 8372/ 333 59001;EQDQ01  00002PRCP99
0198823920999992002013100004-03690-040340FM-12+008399999V0200501N000512200019N0040001N1+02521+02401101181ADDAA199000091GF103991011021004501011001KA1240M+03141MA1999999100161MD1999999+0011REMSYN088AAXX  31004 82392 32496 30501 10252 20240 30016 40118 81210 333 10314 29088 55061 58001;EQDQ01  00002PRCP99
0186823920999992002013112004-03690-040340FM-12+008399999V0200901N001010450019N0500001N1+02681+02371101131ADDAA199000091GF107991041061004501011001KA1240N+02201MA1999999100111MD1999999-0091REMSYN076AAXX  31124 82392 32499 70902 10268 20237 30011 40113 84610 333 20220 59009;EQDQ01  00002PRCP99
0167823920999992002013118004-03690-040340FM-12+008399999V0203601N001510042019N0500001N1+02981+02491100801ADDAA199000091GF107991051061004501031001MA1999999099781MD1999999-0181REMSYN070AAXX  31184 82392 32499 73603 10298 20249 39978 40080 85630 333 59018;EQDQ01  00002PRCP99
0232823920999992002020100004-03690-040340FM-12+008399999V0203601N002619999999N0040001N1+02461+02391101081ADDAA106000891AY161061AY261061GF107991999021004501001001KA1240M+03041MA1999999100061MD1999999-0101MW1021REMSYN100AAXX  01004 82392 21496 73605 10246 20239 30006 40108 70266 83200 333 10304 29087 55047 59010 69981;EQDQ01+000032SCOTLC
0173823920999992002020112004-03690-040340FM-12+008399999V0209999C000010450019N0500001N1+02401+02371101351ADDAA124000891GF108991031071004501021999KA1240N+02241MA1999999100321MD1999999+0211REMSYN082AAXX  01124 82392 22499 80000 10240 20237 30032 40135 8372/ 333 20224 58021 69984;
0167823920999992002020118004-03690-040340FM-12+008399999V0200901N000510450019N0500001N1+02841+02311100971ADDAA199000091GF107991041061004501031001MA1999999099951MD1999999+0171REMSYN070AAXX  01184 82392 32499 70901 10284 20231 39995 40097 84630 333 58017;EQDQ01  00002PRCP99
0208823920999992002020200004-03690-040340FM-12+008399999V0202701N000512200019N0040001N1+02501+02431101091ADDAA199000091GA1001+999999999GF100991001001999999001001KA1240M+02901MA1999999100061MD1999999+0001REMSYN082AAXX  02004 82392 32996 02701 10250 20243 30006 40109 333 10290 29091 55013 58000;EQDQ01  00002PRCP99
0202823920999992002020212004-03690-040340FM-12+008399999V0209999C000019999999N0020001N1+02741+02341101311ADDAA199000091GF106991999011008001001001KA1240N+02141MA1999999100291MD1999999-0031REMSYN076AAXX  02124 82392 32595 60000 10274 20234 30029 40131 82100 333 20214 59003;EQDQ01+000022SCOTLCQ02  00002PRCP99
0167823920999992002020218004-03690-040340FM-12+008399999V0201401N002612200019N0500001N1+03201+02301100991ADDAA199000091GF102991021011004501001001MA1999999099971MD1999999+0021REMSYN070AAXX  02184 82392 32499 21405 10320 20230 39997 40099 82100 333 58002;EQDQ01  00002PRCP99
0198823920999992002020300004-03690-040340FM-12+008399999V0203601N002612200019N0040001N1+02511+02361101241ADDAA199000091GF101991011041004501001001KA1240M+03241MA1999999100281MD1999999+0061REMSYN088AAXX  03004 82392 32496 13605 10251 20236 30028 40124 81400 333 10324 29081 55100 58006;EQDQ01  00002PRCP99
0201823920999992002020312004-03690-040340FM-12+008399999V0203601N001010450019N0100001N1+02431+02341101361ADDAA124002091AY161061AY261061GF107991041061004501031001KA1240N+02291MA1999999100331MD1999999+0041MW1021REMSYN088AAXX  03124 82392 21497 73602 10243 20234 30033 40136 70266 84630 333 20229 58004 60024;
0182823920999992002020318004-03690-040340FM-12+008399999V0203601N001010450019N0500001N1+02791+02401101031ADDAA106001091AY161061AY261061GF107991041061004501031001MA1999999100011MD1999999+0041MW1021REMSYN082AAXX  03184 82392 21499 73602 10279 20240 30001 40103 70266 84630 333 58004 60011;
0198823920999992002020400004-03690-040340FM-12+008399999V0202701N000510450019N0040001N1+02441+02371101231ADDAA199000091GF108991041061004501031999KA1240M+02821MA1999999100201MD1999999-0021REMSYN088AAXX  04004 82392 32496 82701 10244 20237 30020 40123 8463/ 333 10282 29091 55008 59002;EQDQ01  00002PRCP99
0173823920999992002020412004-03690-040340FM-12+008399999V0201401N001010450019N0500001N1+02721+02391101321ADDAA124001091GF105991041021004501031001KA1240N+02221MA1999999100301MD1999999-0031REMSYN082AAXX  04124 82392 22499 51402 10272 20239 30030 40132 84230 333 20222 59003 60014;
0167823920999992002020418004-03690-040340FM-12+008399999V0200501N002610450019N0500001N1+03021+02141100921ADDAA199000091GF106991041041004501031001MA1999999099901MD1999999-0111REMSYN070AAXX  04184 82392 32499 60505 10302 20214 39990 40092 84430 333 59011;EQDQ01  00002PRCP99
0214823920999992002020500004-03690-040340FM-12+008399999V0200501N000519999999N0040001N1+02501+02151101221ADDAA199000091GF106991999021008001001001KA1240M+03141MA1999999100201MD1999999+0001REMSYN088AAXX  05004 82392 32596 60501 10250 20215 30020 40122 83200 333 10314 29075 55081 58000;EQDQ01+000032SCOTLCQ02  00002PRCP99
0186823920999992002020512004-03690-040340FM-12+008399999V0203201N000512200019N0500001N1+02721+02391101391ADDAA199000091GF104991041021004501001001KA1240N+02261MA1999999100371MD1999999+0071REMSYN076AAXX  05124 82392 32499 43201 10272 20239 30037 40139 84200 333 20226 58007;EQDQ01  00002PRCP99
0167823920999992002020518004-03690-040340FM-12+008399999V0200501N000512200019N0500001N1+03091+02361101001ADDAA199000091GF103991021021004501031001MA1999999099981MD1999999+0081REMSYN070AAXX  05184 82392 32499 30501 10309 20236 39998 40100 82230 333 58008;EQDQ01  00002PRCP99
0198823920999992002020600004-03690-040340FM-12+008399999V0203601N000512200019N0040001N1+02531+02271101261ADDAA199000091GF102991021021004501001001KA1240M+03141MA1999999100241MD1999999+0041REMSYN088AAXX  06004 82392 32496 23601 10253 20227 30024 40126 82200 333 10314 29079 55093 58004;EQDQ01  00002PRCP99
0186823920999992002020612004-03690-040340FM-12+008399999V0209999C000012200019N0500001N1+02681+02311101271ADDAA199000091GF101991011011004501001001KA1240N+02221MA1999999100251MD1999999-0121REMSYN076AAXX  06124 82392 32499 10000 10268 20231 30025 40127 81100 333 20222 59012;EQDQ01  00002PRCP99
0182823920999992002020618004-03690-040340FM-12+008399999V0209999C000010450019N0500001N1+02501+02411100951ADDAA106002091AY161061AY221061GF108991031071004501021999MA1999999099921MD1999999-0061MW1211REMSYN082AAXX  06184 82392 21499 80000 10250 20241 39992 40095 72162 8372/ 333 59006 60021;
0167823920999992002020718004-03690-040340FM-12+008399999V0201401N000510450019N0500001N1+03091+02311100841ADDAA199000091GF106991021021004501011011MA1999999099821MD1999999-0101REMSYN070AAXX  07184 82392 32499 61401 10309 20231 39982 40084 82211 333 59010;EQDQ01  00002PRCP99
0208823920999992002020800004-03690-040340FM-12+008399999V0203601N001512200019N0040001N1+02421+02281101061ADDAA199000091GA1001+999999999GF100991001001999999001001KA1240M+03161MA1999999100041MD1999999-0061REMSYN082AAXX  08004 82392 32996 03603 10242 20228 30004 40106 333 10316 29082 55068 59006;EQDQ01  00002PRCP99
0186823920999992002020812004-03690-040340FM-12+008399999V0201801N001012200019N0500001N1+02721+02241101181ADDAA199000091GF103991031021004501001001KA1240N+02161MA1999999100161MD1999999-0041REMSYN076AAXX  08124 82392 32499 31802 10272 20224 30016 40118 83200 333 20216 59004;EQDQ01  00002PRCP99
0167823920999992002020818004-03690-040340FM-12+008399999V0200901N001012200019N0500001N1+03091+99999100851ADDAA199000091GF104991041021004501001001MA1999999099831MD1999999+0011REMSYN070AAXX  08184 82392 32499 40902 10309 20323 39983 40085 84200 333 58001;EQDQ01  00002PRCP99
0208823920999992002020900004-03690-040340FM-12+008399999V0200501N002612200019N0040001N1+02501+02401101151ADDAA199000091GA1001+999999999GF100991001001999999001001KA1240M+03181MA1999999100131MD1999999+0091REMSYN082AAXX  09004 82392 32996 00505 10250 20240 30013 40115 333 10318 29081 55100 58009;EQDQ01  00002PRCP99
0186823920999992002020912004-03690-040340FM-12+008399999V0200901N001012200019N0500001N1+02721+02391101281ADDAA199000091GF102991021011004501001001KA1240N+02301MA1999999100261MD1999999+0101REMSYN076AAXX  09124 82392 32499 20902 10272 20239 30026 40128 82100 333 20230 58010;EQDQ01  00002PRCP99
0167823920999992002020918004-03690-040340FM-12+008399999V0200501N001012200019N0500001N1+03241+02101100931ADDAA199000091GF102991021011004501001001MA1999999099911MD1999999+0081REMSYN070AAXX  09184 82392 32499 20502 10324 20210 39991 40093 82100 333 58008;EQDQ01  00002PRCP99
0208823920999992002021000004-03690-040340FM-12+008399999V0203601N001012200019N0040001N1+02521+02381101261ADDAA199000091GA1001+999999999GF100991001001999999001001KA1240M+03321MA1999999100241MD1999999+0111REMSYN082AAXX  10004 82392 32996 03602 10252 20238 30024 40126 333 10332 29079 55101 58011;EQDQ01  00002PRCP99
0186823920999992002021012004-03690-040340FM-12+008399999V0200901N001012200019N0500001N1+02641+02311101371ADDAA199000091GF103991031021004501001001KA1240N+02361MA1999999100351MD1999999+0091REMSYN076AAXX  10124 82392 32499 30902 10264 20231 30035 40137 83200 333 20236 58009;EQDQ01  00002PRCP99
0183823920999992002021018004-03690-040340FM-12+008399999V0200901N002610042019N0500001N1+03201+02061100921ADDAA199000091GF106991999021004501001001MA1999999099901MD1999999-0011REMSYN070AAXX  10184 82392 32499 60905 10320 20206 39990 40092 85200 333 59001;EQDQ01+000052SCOTLCQ02  00002PRCP99
0198823920999992002021100004-03690-040340FM-12+008399999V0200901N002110450019N0040001N1+02401+02351101191ADDAA199000091GF105991041041008001031001KA1240M+03201MA1999999100161MD1999999-0081REMSYN088AAXX  11004 82392 32596 50904 10240 20235 30016 40119 84430 333 10320 29082 55080 59008;EQDQ01  00002PRCP99
0186823920999992002021112004-03690-040340FM-12+008399999V0202701N000510450019N0500001N1+02581+02311101231ADDAA199000091GF106991021021004501031001KA1240N+02141MA1999999100201MD1999999-0151REMSYN076AAXX  11124 82392 32499 62701 10258 20231 30020 40123 82230 333 20214 59015;EQDQ01  00002PRCP99
0167823920999992002021118004-03690-040340FM-12+008399999V0200901N000512200019N0500001N1+03211+02341100821ADDAA199000091GF104991021021004501031001MA1999999099801MD1999999-0101REMSYN070AAXX  11184 82392 32499 40901 10321 20234 39980 40082 82230 333 59010;EQDQ01  00002PRCP99
0198823920999992002021200004-03690-040340FM-12+008399999V0203601N001012200019N0040001N1+02441+02251101151ADDAA199000091GF104991021021004501031001KA1240M+03241MA1999999100121MD1999999-0041REMSYN088AAXX  12004 82392 32496 43602 10244 20225 30012 40115 82230 333 10324 29081 55088 59004;EQDQ01  00002PRCP99
0186823920999992002021212004-03690-040340FM-12+008399999V0201401N001012200019N0500001N1+02661+02201101341ADDAA199000091GF101991011011004501001001KA1240N+02341MA1999999100321MD1999999+0121REMSYN076AAXX  12124 82392 32499 11402 10266 20220 30032 40134 81100 333 20234 58012;EQDQ01  00002PRCP99
0167823920999992002021218004-03690-040340FM-12+008399999V0201801N001012200019N0500001N1+03121+02081101021ADDAA199000091GF104991031021004501031001MA1999999100001MD1999999+0201REMSYN070AAXX  12184 82392 32499 41802 10312 20208 30000 40102 83230 333 58020;EQDQ01  00002PRCP99
0213823920999992002021300004-03690-040340FM-12+008399999V0202301N000510450019N0040001N1+02241+02171101281ADDAA106001091AY161061AY221061GF108991041071004501021999KA1240M+03221MA1999999100251MD1999999+0131MW1021REMSYN100AAXX  13004 82392 21496 82301 10224 20217 30025 40128 70262 8472/ 333 10322 29080 55081 58013 60011;
0173823920999992002021312004-03690-040340FM-12+008399999V0201801N000512200019N0500001N1+02661+02351101301ADDAA124001091GF103991031021004501001001KA1240N+02211MA1999999100271MD1999999-0051REMSYN082AAXX  13124 82392 22499 31801 10266 20235 30027 40130 83200 333 20221 59005 60014;
0167823920999992002021318004-03690-040340FM-12+008399999V0200501N002610450019N0500001N1+02981+02491101021ADDAA199000091GF107991041051004501031001MA1999999100001MD1999999+0001REMSYN070AAXX  13184 82392 32499 70505 10298 20249 30000 40102 84530 333 58000;EQDQ01  00002PRCP99
0213823920999992002021400004-03690-040340FM-12+008399999V0203601N000510450019N0040001N1+02341+02291101371ADDAA106002091AY161061AY261061GF108991041061004501021999KA1240M+03081MA1999999100341MD1999999+0091MW1021REMSYN100AAXX  14004 82392 21496 83601 10234 20229 30034 40137 70266 8462/ 333 10308 29088 55036 58009 60021;
0167823920999992002021418004-03690-040340FM-12+008399999V0200501N000510450019N0500001N1+02821+02331101011ADDAA199000091GF107991041061004501031001MA1999999099991MD1999999-0011REMSYN070AAXX  14184 82392 32499 70501 10282 20233 39999 40101 84630 333 59001;EQDQ01  00002PRCP99
0232823920999992002021500004-03690-040340FM-12+008399999V0209999C000019999999N0040001N1+02481+02411101281ADDAA106002091AY161061AY221061GF108991999021004501001001KA1240M+02901MA1999999100251MD1999999-0091MW1021REMSYN100AAXX  15004 82392 21496 80000 10248 20241 30025 40128 70262 84200 333 10290 29090 55007 59009 60021;EQDQ01+000042SCOTLC
0201823920999992002021512004-03690-040340FM-12+008399999V0201801N000512200019N0500001N1+02581+02491101431ADDAA124002091AY161061AY251061GF101991011011004501001001KA1240N+02301MA1999999100401MD1999999+0121MW1021REMSYN088AAXX  15124 82392 21499 11801 10258 20249 30040 40143 70265 81100 333 20230 58012 60024;
0167823920999992002021518004-03690-040340FM-12+008399999V0200501N000510450019N0500001N1+02921+02411100971ADDAA199000091GF107991041061004501031001MA1999999099951MD1999999-0041REMSYN070AAXX  15184 82392 32499 70501 10292 20241 39995 40097 84630 333 59004;EQDQ01  00002PRCP99
0198823920999992002021600004-03690-040340FM-12+008399999V0200501N001510450019N0040001N1+02501+02411101281ADDAA199000091GF106991041041004501031001KA1240M+03081MA1999999100251MD1999999+0001REMSYN088AAXX  16004 82392 32496 60503 10250 20241 30025 40128 84430 333 10308 29090 55063 58000;EQDQ01  00002PRCP99
0202823920999992002021612004-03690-040340FM-12+008399999V0200501N000519999999N0500001N1+02731+02451101331ADDAA199000091GF106991999021004501001001KA1240N+02241MA1999999100311MD1999999-0091REMSYN076AAXX  16124 82392 32499 60501 10273 20245 30031 40133 84200 333 20224 59009;EQDQ01+000042SCOTLCQ02  00002PRCP99
0183823920999992002021618004-03690-040340FM-12+008399999V0200901N000519999999N0500001N1+03241+02391100971ADDAA199000091GF105991999011004501001001MA1999999099961MD1999999+0001REMSYN070AAXX  16184 82392 32499 50901 10324 20239 39996 40097 82100 333 58000;EQDQ01+000022SCOTLCQ02  00002PRCP99
0214823920999992002021700004-03690-040340FM-12+008399999V0203601N000512200019N0040001N1+02561+02351101141ADDAA199000091GF101991999011008001001001KA1240M+03271MA1999999100121MD1999999-0131REMSYN088AAXX  17004 82392 32596 13601 10256 20235 30012 40114 82100 333 10327 29080 55094 59013;EQDQ01+000022SCOTLCQ02  00002PRCP99
0186823920999992002021712004-03690-040340FM-12+008399999V0201401N002010450019N0500001N1+02801+02381101301ADDAA199000091GF106991041021004501031001KA1240N+02201MA1999999100281MD1999999-0031REMSYN076AAXX  17121 82392 32499 61402 10280 20238 30028 40130 84230 333 20220 59003;EQDQ01  00002PRCP99
0167823920999992002021718004-03690-040340FM-12+008399999V0200901N001512200019N0500001N1+03281+02261100901ADDAA199000091GF101991011011004501001001MA1999999099881MD1999999-0071REMSYN070AAXX  17184 82392 32499 10903 10328 20226 39988 40090 81100 333 59007;EQDQ01  00002PRCP99
0208823920999992002021800004-03690-040340FM-12+008399999V0203601N001512200019N0040001N1+02541+02401101071ADDAA199000091GA1001+999999999GF100991001001999999001001KA1240M+03341MA1999999100051MD1999999-0071REMSYN082AAXX  18004 82392 32996 03603 10254 20240 30005 40107 333 10334 29079 55106 59007;EQDQ01  00002PRCP99
0186823920999992002021812004-03690-040340FM-12+008399999V0200901N002612200019N0500001N1+02741+02031101141ADDAA199000091GF103991031021004501001001KA1240N+02261MA1999999100121MD1999999-0161REMSYN076AAXX  18124 82392 32499 30905 10274 20203 30012 40114 83200 333 20226 59016;EQDQ01  00002PRCP99
0167823920999992002021818004-03690-040340FM-12+008399999V0200901N001012200019N0500001N1+03361+02271100721ADDAA199000091GF103991031021004501001001MA1999999099711MD1999999-0171REMSYN070AAXX  18184 82392 32499 30902 10336 20227 39971 40072 83200 333 59017;EQDQ01  00002PRCP99
0214823920999992002021900004-03690-040340FM-12+008399999V0203601N001012200019N0040001N1+02621+02411101021ADDAA199000091GF103991999021017501001001KA1240M+03321MA1999999100001MD1999999-0051REMSYN088AAXX  19004 82392 32796 33602 10262 20241 30000 40102 81200 333 10332 29077 55097 59005;EQDQ01+000012SCOTLCQ02  00002PRCP99
0186823920999992002021912004-03690-040340FM-12+008399999V0201801N000510450019N0500001N1+02701+02521101181ADDAA199000091GF108991041061004501021999KA1240N+02341MA1999999100161MD1999999+0041REMSYN076AAXX  19124 82392 32499 81801 10270 20252 30016 40118 8462/ 333 20234 58004;EQDQ01  00002PRCP99
0167823920999992002021918004-03690-040340FM-12+008399999V0200901N001510450019N0500001N1+03241+02391100791ADDAA199000091GF105991031041004501031001MA1999999099771MD1999999+0061REMSYN070AAXX  19184 82392 32499 50903 10324 20239 39977 40079 83430 333 58006;EQDQ01  00002PRCP99
0208823920999992002022000004-03690-040340FM-12+008399999V0203601N000512200019N0040001N1+02601+02391101011ADDAA199000091GA1001+999999999GF100991001001999999001001KA1240M+03301MA1999999099991MD1999999-0011REMSYN082AAXX  20004 82392 32996 03601 10260 20239 39999 40101 333 10330 29082 55076 59001;EQDQ01  00002PRCP99
0186823920999992002022012004-03690-040340FM-12+008399999V0200901N002612200019N0500001N1+02821+02331101231ADDAA199000091GF101991011011004501001001KA1240N+02201MA1999999100211MD1999999+0051REMSYN076AAXX  20124 82392 32499 10905 10282 20233 30021 40123 81100 333 20220 58005;EQDQ01  00002PRCP99
0167823920999992002022018004-03690-040340FM-12+008399999V0200901N003112200019N0500001N1+03261+02111100861ADDAA199000091GF103991031021004501001001MA1999999099841MD1999999+0071REMSYN070AAXX  20184 82392 32499 30906 10326 20211 39984 40086 83200 333 58007;EQDQ01  00002PRCP99
0208823920999992002022100004-03690-040340FM-12+008399999V0203601N000512200019N0040001N1+02531+02271101031ADDAA199000091GA1001+999999999GF100991001001999999001001KA1240M+03341MA1999999100011MD1999999+0021REMSYN082AAXX  21004 82392 32996 03601 10253 20227 30001 40103 333 10334 29074 55100 58002;EQDQ01  00002PRCP99
0186823920999992002022112004-03690-040340FM-12+008399999V0209999C000010042019N0500001N1+02731+02401101181ADDAA199000091GF105991051041004501001001KA1240N+02181MA1999999100161MD1999999-0051REMSYN076AAXX  21124 82392 32499 50000 10273 20240 30016 40118 85400 333 20218 59005;EQDQ01  00002PRCP99
0167823920999992002022118004-03690-040340FM-12+008399999V0200901N001012200019N0500001N1+03351+02211100741ADDAA199000091GF104991041021004501001001MA1999999099721MD1999999-0121REMSYN070AAXX  21184 82392 32499 40902 10335 20221 39972 40074 84200 333 59012;EQDQ01  00002PRCP99
0198823920999992002022200004-03690-040340FM-12+008399999V0200501N002612200019N0040001N1+02561+02381100981ADDAA199000091GF104991041021004501001001KA1240M+03381MA1999999099961MD1999999-0051REMSYN088AAXX  22004 82392 32496 40505 10256 20238 39996 40098 84200 333 10338 29078 55106 59005;EQDQ01  00002PRCP99
0186823920999992002022212004-03690-040340FM-12+008399999V0200901N001012200019N0500001N1+02741+02361101071ADDAA199000091GF101991011011004501001001KA1240N+02011MA1999999100051MD1999999-0111REMSYN076AAXX  22124 82392 32499 10902 10274 20236 30005 40107 81100 333 20201 59011;EQDQ01  00002PRCP99
0167823920999992002022218004-03690-040340FM-12+008399999V0200901N000512200019N0500001N1+03421+01911100651ADDAA199000091GF102991021011004501001001MA1999999099641MD1999999-0081REMSYN070AAXX  22184 82392 32499 20901 10342 20191 39964 40065 82100 333 59008;EQDQ01  00002PRCP99
0208823920999992002022300004-03690-040340FM-12+008399999V0203601N001512200019N0040001N1+02621+02421100921ADDAA199000091GA1001+999999999GF100991001001999999001001KA1240M+03481MA1999999099901MD1999999-0061REMSYN082AAXX  23004 82392 32996 03603 10262 20242 39990 40092 333 10348 29075 55108 59006;EQDQ01  00002PRCP99
0186823920999992002022312004-03690-040340FM-12+008399999V0200901N000512200019N0500001N1+02641+02461101221ADDAA199000091GF104991031021004501031001KA1240N+02141MA1999999100201MD1999999+0151REMSYN076AAXX  23124 82392 32499 40901 10264 20246 30020 40122 83230 333 20214 58015;EQDQ01  00002PRCP99
0167823920999992002022318004-03690-040340FM-12+008399999V0201401N001012200019N0500001N1+03341+02151100791ADDAA199000091GF102991021021004501001001MA1999999099771MD1999999+0131REMSYN070AAXX  23184 82392 32499 21402 10334 20215 39977 40079 82200 333 58013;EQDQ01  00002PRCP99
0198823920999992002022400004-03690-040340FM-12+008399999V0200501N001512200019N0040001N1+02681+02261101101ADDAA199000091GF102991021001008001031001KA1240M+03441MA1999999100081MD1999999+0181REMSYN088AAXX  24004 82392 32596 20503 10268 20226 30008 40110 82030 333 10344 29074 55082 58018;EQDQ01  00002PRCP99
0186823920999992002022412004-03690-040340FM-12+008399999V0200901N000512200019N0500001N1+02891+02321101321ADDAA199000091GF103991031021004501001001KA1240N+02161MA1999999100301MD1999999+0101REMSYN076AAXX  24124 82392 32499 30901 10289 20232 30030 40132 83200 333 20216 58010;EQDQ01  00002PRCP99
0167823920999992002022418004-03690-040340FM-12+008399999V0200501N000512200019N0500001N1+03481+02111100851ADDAA199000091GF103991031021004501001001MA1999999099841MD1999999+0071REMSYN070AAXX  24184 82392 32499 30501 10348 20211 39984 40085 83200 333 58007;EQDQ01  00002PRCP99
0167823920999992002022518004-03690-040340FM-12+008399999V0200501N001512200019N0500001N1+03461+02091100811ADDAA199000091GF104991031021004501031001MA1999999099801MD1999999-0041REMSYN070AAXX  25184 82392 32499 40503 10346 20209 39980 40081 83230 333 59004;EQDQ01  00002PRCP99
0198823920999992002022600004-03690-040340FM-12+008399999V0203601N000519999999N0040001N1+02541+02381101151ADDAA199000091GF106991061001008001031001KA1240M+03491MA1999999100131MD1999999+0031REMSYN088AAXX  26004 82392 32596 63601 10254 20238 30013 40115 86030 333 10349 29075 55083 58003;EQDQ01  00002PRCP99
0173823920999992002022612004-03690-040340FM-12+008399999V0200901N001512200019N0500001N1+02781+02401101261ADDAA124000591GF103991031021004501001001KA1240N+02341MA1999999100241MD1999999-0021REMSYN082AAXX  26124 82392 22499 30903 10278 20240 30024 40126 83200 333 20234 59002 69964;
0167823920999992002022618004-03690-040340FM-12+008399999V0200901N002612200019N0500001N1+03351+02111100811ADDAA199000091GF104991041021004501001001MA1999999099801MD1999999+0001REMSYN070AAXX  26184 82392 32499 40905 10335 20211 39980 40081 84200 333 58000;EQDQ01  00002PRCP99
0208823920999992002022700004-03690-040340FM-12+008399999V0200501N001012200019N0040001N1+02491+02111101081ADDAA199000091GA1001+999999999GF100991001001999999001001KA1240M+03421MA1999999100061MD1999999-0071REMSYN082AAXX  27004 82392 32996 00502 10249 20211 30006 40108 333 10342 29072 55102 59007;EQDQ01  00002PRCP99
0186823920999992002022712004-03690-040340FM-12+008399999V0201401N001010450019N0500001N1+02601+02331101251ADDAA199000091GF105991031021004501031001KA1240N+02151MA1999999100221MD1999999-0021REMSYN076AAXX  27124 82392 32499 51402 10260 20233 30022 40125 83230 333 20215 59002;EQDQ01  00002PRCP99
0167823920999992002022718004-03690-040340FM-12+008399999V0201401N001512200019N0500001N1+03461+01981100771ADDAA199000091GF104991041021004501001001MA1999999099761MD1999999-0041REMSYN070AAXX  27184 82392 32499 41403 10346 20198 39976 40077 84200 333 59004;EQDQ01  00002PRCP99
0198823920999992002022800004-03690-040340FM-12+008399999V0203601N001512200019N0040001N1+02731+02261101041ADDAA199000091GF102991021001008001031001KA1240M+03481MA1999999100021MD1999999-0041REMSYN088AAXX  28004 82392 32596 23603 10273 20226 30002 40104 82030 333 10348 29069 55096 59004;EQDQ01  00002PRCP99
0186823920999992002022812004-03690-040340FM-12+008399999V0200901N000512200019N0500001N1+02881+02131101141ADDAA199000091GF104991041021004501001001KA1240N+02441MA1999999100121MD1999999-0101REMSYN076AAXX  28124 82392 32499 40901 10288 20213 30012 40114 84200 333 20244 59010;EQDQ01  00002PRCP99
0167823920999992002022818004-03690-040340FM-12+008399999V0200901N001012200019N0500001N1+03441+01531100731ADDAA199000091GF101991011011004501001001MA1999999099721MD1999999-0041REMSYN070AAXX  28184 82392 32499 10902 10344 20153 39972 40073 81100 333 59004;EQDQ01  00002PRCP99
0208823920999992002030100004-03690-040340FM-12+008399999V0203601N001512200019N0040001N1+02581+02211100891ADDAA199000091GA1001+999999999GF100991001001999999001001KA1240M+03481MA1999999099871MD1999999-0151REMSYN082AAXX  01004 82392 32996 03603 10258 20221 39987 40089 333 10348 29064 55110 59015;EQDQ01  00002PRCP99
0186823920999992002030112004-03690-040340FM-12+008399999V0200501N002612200019N0040001N1+02801+02311101121ADDAA199000091GF101991011011004501001001KA1240N+02221MA1999999100101MD1999999-0021REMSYN076AAXX  01124 82392 32496 10505 10280 20231 30010 40112 81100 333 20222 59002;EQDQ01  00002PRCP99
0167823920999992002030118004-03690-040340FM-12+008399999V0200901N000512200019N0500001N1+03441+01841100781ADDAA199000091GF104991041021004501001001MA1999999099771MD1999999+0051REMSYN070AAXX  01184 82392 32499 40901 10344 20184 39977 40078 84200 333 58005;EQDQ01  00002PRCP99
0198823920999992002030300004-03690-040340FM-12+008399999V0203601N001012200019N0040001N1+02641+02331101031ADDAA199000091GF103991021061004501011001KA1240M+03521MA1999999100011MD1999999+0021REMSYN088AAXX  03004 82392 32496 33602 10264 20233 30001 40103 82610 333 10352 29070 55084 58002;EQDQ01  00002PRCP99
0201823920999992002030318004-03690-040340FM-12+008399999V0202301N000519999999N0500001N1+02701+02431100871ADDAA106034091AY161061AY221061GF108991999021004501001001MA1999999099851MD1999999+0151MW1021REMSYN082AAXX  03184 82392 21499 82301 10270 20243 39985 40087 70262 83200 333 58015 60341;EQDQ01+000032SCOTLC
0201823920999992002030412004-03690-040340FM-12+008399999V0202301N000512200019N0500001N1+02661+02371101201ADDAA124036191AY161061AY261061GF103991031021004501001001KA1240N+02191MA1999999100181MD1999999+0081MW1021REMSYN088AAXX  04124 82392 21499 32301 10266 20237 30018 40120 70266 83200 333 20219 58008 60364;
0182823920999992002030418004-03690-040340FM-12+008399999V0203201N000510450019N0500001N1+02281+02211100881ADDAA106026991AY161061AY221061GF108991031061004501021999MA1999999099851MD1999999+0001MW1631REMSYN082AAXX  04184 82392 21499 83201 10228 20221 39985 40088 76362 8362/ 333 58000 60271;
0213823920999992002030500004-03690-040340FM-12+008399999V0200901N000510450019N0040001N1+02351+02331101181ADDAA106000391AY151061AY251061GF106991041061004501021001KA1240M+03021MA1999999100151MD1999999+0111MW1021REMSYN100AAXX  05004 82392 21496 60901 10235 20233 30015 40118 70255 84620 333 10302 29094 55047 58011 69931;
0201823920999992002030512004-03690-040340FM-12+008399999V0203201N000510450019N0500001N1+02301+02271101331ADDAA124027991AY161061AY261061GF108991031061004501021999KA1240N+02271MA1999999100301MD1999999+0121MW1021REMSYN088AAXX  05124 82392 21499 83201 10230 20227 30030 40133 70266 8362/ 333 20227 58012 60284;
0182823920999992002030518004-03690-040340FM-12+008399999V0202701N000510042019N0100001N1+02701+02351101011ADDAA106003091AY101061AY221061GF107991051061004501021001MA1999999099981MD1999999+0131MW1211REMSYN082AAXX  05184 82392 21497 72701 10270 20235 39998 40101 72102 85620 333 58013 60031;
0232823920999992002030600004-03690-040340FM-12+008399999V0201801N000519999999N0040001N1+02281+02261101341ADDAA106019191AY161061AY261061GF108991999011004501001001KA1240M+03001MA1999999100321MD1999999+0151MW1211REMSYN100AAXX  06004 82392 21496 81801 10228 20226 30032 40134 72166 82100 333 10300 29094 55024 58015 60191;EQDQ01+000022SCOTLC
0201823920999992002030612004-03690-040340FM-12+008399999V0203201N000510450019N0500001N1+02361+02331101281ADDAA124050091AY161061AY261061GF106991041041004501031001KA1240N+02101MA1999999100251MD1999999-0051MW1021REMSYN088AAXX  06124 82392 21499 63201 10236 20233 30025 40128 70266 84430 333 20210 59005 60504;
0167823920999992002030618004-03690-040340FM-12+008399999V0201401N001012200019N0500001N1+03081+02241100841ADDAA199000091GF104991031021004501031001MA1999999099821MD1999999-0161REMSYN070AAXX  06184 82392 32499 41402 10308 20224 39982 40084 83230 333 59016;EQDQ01  00002PRCP99
0198823920999992002030700004-03690-040340FM-12+008399999V0200501N001010042019N0040001N1+02561+02351101191ADDAA199000091GF107991051061004501011001KA1240M+03181MA1999999100161MD1999999-0161REMSYN088AAXX  07004 82392 32496 70502 10256 20235 30016 40119 85610 333 10318 29084 55075 59016;EQDQ01  00002PRCP99
0201823920999992002030712004-03690-040340FM-12+008399999V0200901N000510042019N0200001N1+02741+02451101291ADDAA124001091AY161061AY261061GF107991051061004501031001KA1240N+02381MA1999999100271MD1999999+0021MW1021REMSYN088AAXX  07124 82392 21498 70901 10274 20245 30027 40129 70266 85630 333 20238 58002 60014;
0182823920999992002030718004-03690-040340FM-12+008399999V0201801N000510042019N0200001N1+02531+02421101051ADDAA106002091AY161061AY261061GF108991071071004501011999MA1999999100021MD1999999+0201MW1021REMSYN082AAXX  07184 82392 21498 81801 10253 20242 30002 40105 70266 8771/ 333 58020 60021;
0214823920999992002030800004-03690-040340FM-12+008399999V0202301N000510042019N0040001N1+02461+02431101281ADDAA199000091GF107991999021004501001001KA1240M+03001MA1999999100261MD1999999+0101REMSYN088AAXX  08004 82392 32496 72301 10246 20243 30026 40128 85200 333 10300 29093 55020 58010;EQDQ01+000052SCOTLCQ02  00002PRCP99
0201823920999992002030812004-03690-040340FM-12+008399999V0202301N001010450019N0500001N1+02581+02511101401ADDAA124009991AY161061AY261061GF107991041061004501011001KA1240N+02261MA1999999100371MD1999999+0101MW1031REMSYN088AAXX  08124 82392 21499 72302 10258 20251 30037 40140 70366 84610 333 20226 58010 60104;
0182823920999992002030818004-03690-040340FM-12+008399999V0200501N001010042019N0500001N1+02481+02341101131ADDAA106018091AY161061AY261061GF108991061061004501011999MA1999999100101MD1999999+0081MW1021REMSYN082AAXX  08184 82392 21499 80502 10248 20234 30010 40113 70266 8661/ 333 58008 60181;
0213823920999992002030900004-03690-040340FM-12+008399999V0203201N000510450019N0040001N1+02321+99999101371ADDAA106000891AY161061AY221061GF108991041071004501021081KA1240M+02961MA1999999100341MD1999999+0081MW1021REMSYN100AAXX  09004 82392 21496 83201 10232 20239 30034 40137 70262 84728 333 10296 29096 55028 58008 69981;
0192823920999992002030912004-03690-040340FM-12+008399999V0202701N000519999999N0500001N1+02521+02381101351ADDAA124018091GF108991999011004501001001KA1240N+02161MA1999999100321MD1999999-0051REMSYN082AAXX  09124 82392 22499 82701 10252 20238 30032 40135 82100 333 20216 59005 60184;EQDQ01+000022SCOTLC
0183823920999992002030918004-03690-040340FM-12+008399999V0201401N001019999999N0500001N1+02821+02331100991ADDAA199000091GF108991999021004501001001MA1999999099961MD1999999-0041REMSYN070AAXX  09184 82392 32499 81402 10282 20233 39996 40099 83200 333 59004;EQDQ01+000032SCOTLCQ02  00002PRCP99
0214823920999992002031000004-03690-040340FM-12+008399999V0209999C000019999999N0040001N1+02441+02411101291ADDAA199000091GF106991999021004501001001KA1240M+03041MA1999999100261MD1999999-0081REMSYN088AAXX  10004 82392 32496 60000 10244 20241 30026 40129 84200 333 10304 29091 55050 59008;EQDQ01+000042SCOTLCQ02  00002PRCP99
0201823920999992002031012004-03690-040340FM-12+008399999V0201801N000510042019N0500001N1+02721+02321101271ADDAA124000191AY151061AY251061GF106991051041004501031001KA1240N+02341MA1999999100351MD1999999-0071MW1021REMSYN088AAXX  10124 82392 21499 61801 10272 20232 30035 40127 70255 85430 333 20234 59007 69924;
0167823920999992002031018004-03690-040340FM-12+008399999V0201401N001010450019N0500001N1+03061+02221100851ADDAA199000091GF106991041041004501011001MA1999999099831MD1999999-0131REMSYN070AAXX  10184 82392 32499 61402 10306 20222 39983 40085 84410 333 59013;EQDQ01  00002PRCP99
0198823920999992002031100004-03690-040340FM-12+008399999V0203601N000510450019N0040001N1+02561+99999101131ADDAA199000091GF108991041061004501011999KA1240M+03131MA1999999100111MD1999999-0151REMSYN088AAXX  11004 82392 32496 83601 10256 20342 30011 40113 8461/ 333 10313 29081 55061 59015;EQDQ01  00002PRCP99
0186823920999992002031112004-03690-040340FM-12+008399999V0201401N001012200019N0500001N1+02761+02441101241ADDAA199000091GF102991021021004501001001KA1240N+02281MA1999999100221MD1999999-0031REMSYN076AAXX  11124 82392 32499 21402 10276 20244 30022 40124 82200 333 20228 59003;EQDQ01  00002PRCP99
0167823920999992002031118004-03690-040340FM-12+008399999V0201401N001512200019N0500001N1+03201+02241100871ADDAA199000091GF104991041021004501001001MA1999999099851MD1999999+0021REMSYN070AAXX  11184 82392 32499 41403 10320 20224 39985 40087 84200 333 58002;EQDQ01  00002PRCP99
0214823920999992002031200004-03690-040340FM-12+008399999V0203601N001019999999N0040001N1+02591+02401101241ADDAA199000091GF106991999021004501001001KA1240M+03231MA1999999100221MD1999999+0111REMSYN088AAXX  12004 82392 32496 63602 10259 20240 30022 40124 83200 333 10323 29080 55082 58011;EQDQ01+000032SCOTLCQ02  00002PRCP99
0186823920999992002031212004-03690-040340FM-12+008399999V0201401N001512200019N0500001N1+02801+02251101421ADDAA199000091GF103991031021004501001001KA1240N+02301MA1999999100401MD1999999+0181REMSYN076AAXX  12124 82392 32499 31403 10280 20225 30040 40142 83200 333 20230 58018;EQDQ01  00002PRCP99
0167823920999992002031218004-03690-040340FM-12+008399999V0200901N001010042019N0500001N1+03181+02161101051ADDAA199000091GF105991051021004501001001MA1999999100031MD1999999+0181REMSYN070AAXX  12184 82392 32499 50902 10318 20216 30003 40105 85200 333 58018;EQDQ01  00002PRCP99
0198823920999992002031300004-03690-040340FM-12+008399999V0203601N000512200019N0500001N1+02541+02231101321ADDAA199000091GF101991011011004501001001KA1240M+03221MA1999999100301MD1999999+0081REMSYN088AAXX  13004 82392 32499 13601 10254 20223 30030 40132 81100 333 10322 29073 55097 58008;EQDQ01  00002PRCP99
0186823920999992002031312004-03690-040340FM-12+008399999V0200901N001012200019N0500001N1+02681+02351101341ADDAA199000091GF103991031021008001001001KA1240N+02201MA1999999100321MD1999999+0081REMSYN076AAXX  13124 82392 32599 30902 10268 20235 30032 40134 83200 333 20220 58008;EQDQ01  00002PRCP99
0167823920999992002031318004-03690-040340FM-12+008399999V0200901N001512200019N0500001N1+03161+02201101061ADDAA199000091GF101991011011004501001001MA1999999100041MD1999999+0011REMSYN070AAXX  13184 82392 32499 10903 10316 20220 30004 40106 81100 333 58001;EQDQ01  00002PRCP99
0208823920999992002031400004-03690-040340FM-12+008399999V0203601N000512200019N0040001N1+02541+02241101281ADDAA199000091GA1001+999999999GF100991001001999999001001KA1240M+03211MA1999999100261MD1999999-0041REMSYN082AAXX  14004 82392 32996 03601 10254 20224 30026 40128 333 10321 29077 55103 59004;EQDQ01  00002PRCP99
0186823920999992002031412004-03690-040340FM-12+008399999V0209999C000010450019N0500001N1+02681+02331101341ADDAA199000091GF106991021021004501031001KA1240N+02181MA1999999100321MD1999999+0001REMSYN076AAXX  14124 82392 32499 60000 10268 20233 30032 40134 82230 333 20218 58000;EQDQ01  00002PRCP99
0167823920999992002031418004-03690-040340FM-12+008399999V0200901N001010450019N0500001N1+03201+02331100921ADDAA199000091GF105991031021004501031001MA1999999099901MD1999999-0141REMSYN070AAXX  14184 82392 32499 50902 10320 20233 39990 40092 83230 333 59014;EQDQ01  00002PRCP99
0212823920999992002031500004-03690-040340FM-12+008399999V0202301N000510450019N0040001N1+02461+02431101161ADDAA106000591AY151061AY221061GF107991041051004501031001KA1240M+03241MA1999999100141MD1999999-0121MW1021REMSYN099AAXX  15004 82392 21496 72301 10246 20243 30014 40116 7025284530 333 10324 29084 55082 59012 69961;
0173823920999992002031512004-03690-040340FM-12+008399999V0201401N001010450019N0500001N1+02681+02541101261ADDAA124000591GF106991041041004501031001KA1240N+02321MA1999999100241MD1999999-0081REMSYN082AAXX  15124 82392 22499 61402 10268 20254 30024 40126 84430 333 20232 59008 69964;
0167823920999992002031518004-03690-040340FM-12+008399999V0200901N001010042019N0500001N1+02621+02411100991ADDAA199000091GF107991061071004501011001MA1999999099961MD1999999+0061REMSYN070AAXX  15184 82392 32499 70902 10262 20241 39996 40099 86710 333 58006;EQDQ01  00002PRCP99
0232823920999992002031600004-03690-040340FM-12+008399999V0202301N000519999999N0040001N1+02401+02371101201ADDAA106019191AY161061AY221061GF108991999021004501001001KA1240M+03161MA1999999100171MD1999999+0031MW1021REMSYN100AAXX  16004 82392 21496 82301 10240 20237 30017 40120 70262 83200 333 10316 29094 55062 58003 60191;EQDQ01+000032SCOTLC
0173823920999992002031612004-03690-040340FM-12+008399999V0209999C000010450019N0500001N1+02611+02371101261ADDAA124019191GF106991031041004501031001KA1240N+02301MA1999999100241MD1999999+0001REMSYN082AAXX  16124 82392 22499 60000 10261 20237 30024 40126 83430 333 20230 58000 60194;
0182823920999992002031618004-03690-040340FM-12+008399999V0200501N000510042019N0500001N1+02661+02541100921ADDAA106000391AY151061AY251061GF107991051061004501031001MA1999999099891MD1999999-0071MW1201REMSYN082AAXX  16184 82392 21499 70501 10266 20254 39989 40092 72055 85630 333 59007 69931;
0192823920999992002031712004-03690-040340FM-12+008399999V0202701N000519999999N0500001N1+02481+02451101231ADDAA124003091GF108991999021004501001001KA1240N+02101MA1999999100201MD1999999-0041REMSYN082AAXX  17124 82392 22499 82701 10248 20245 30020 40123 83200 333 20210 59004 60034;EQDQ01+000032SCOTLC
0201823920999992002031718004-03690-040340FM-12+008399999V0202701N000510042019N0200001N1+02501+02411100891ADDAA106007191AY161061AY261061GF108991999021004501001001MA1999999099861MD1999999-0031MW1021REMSYN082AAXX  17184 82392 21498 82701 10250 20241 39986 40089 70266 86200 333 59003 60071;EQDQ01+000062SCOTLC
0232823920999992002031800004-03690-040340FM-12+008399999V0203201N000519999999N0040001N1+02421+02391101131ADDAA106001091AY161061AY261061GF108991999021004501001001KA1240M+03081MA1999999100101MD1999999-0051MW1021REMSYN100AAXX  18004 82392 21496 83201 10242 20239 30010 40113 70266 83200 333 10308 29097 55033 59005 60011;EQDQ01+000032SCOTLC
0173823920999992002031812004-03690-040340FM-12+008399999V0202301N000510450019N0500001N1+02581+02441101181ADDAA124007991GF107991041051004501031001KA1240N+02201MA1999999100181MD1999999-0051REMSYN082AAXX  18124 82392 22499 72301 10258 20244 30018 40118 84530 333 20220 59005 60084;
0182823920999992002031818004-03690-040340FM-12+008399999V0202701N000510450019N0500001N1+02761+02601100731ADDAA106000391AY151061AY221061GF107991041041004501031001MA1999999099701MD1999999-0161MW1201REMSYN082AAXX  18184 82392 21499 72701 10276 20260 39970 40073 72052 84430 333 59016 69931;
0213823920999992002031900004-03690-040340FM-12+008399999V0203601N000510450019N0040001N1+02441+02411101111ADDAA106003091AY161061AY261061GF106991031041004501011001KA1240M+03131MA1999999100081MD1999999-0021MW1021REMSYN100AAXX  19004 82392 21496 63601 10244 20241 30008 40111 70266 83410 333 10313 29035 55053 59002 60031;
0173823920999992002031912004-03690-040340FM-12+008399999V0202301N001010450019N0500001N1+02661+02501101101ADDAA124003091GF107991041051004501031001KA1240N+02281MA1999999100081MD1999999-0071REMSYN082AAXX  19124 82392 22499 72302 10266 20250 30008 40110 84530 333 20228 59007 60034;
0182823920999992002031918004-03690-040340FM-12+008399999V0200901N000510042019N0500001N1+02691+02461100821ADDAA106000591AY151061AY251061GF108991061061004501011999MA1999999099791MD1999999+0091MW1021REMSYN082AAXX  19184 82392 21499 80901 10269 20246 39979 40082 70255 8661/ 333 58009 69941;
0213823920999992002032000004-03690-040340FM-12+008399999V0203601N000510450019N0040001N1+02401+02351101001ADDAA106000891AY151061AY251061GF106991041061004501011001KA1240M+03041MA1999999099931MD1999999-0111MW1201REMSYN100AAXX  20004 82392 21496 63601 10240 20235 39993 40100 72055 84610 333 10304 29093 55041 59011 69971;
0173823920999992002032012004-03690-040340FM-12+008399999V0200901N001010450019N0500001N1+02601+02551101171ADDAA124001091GF106991041041004501031001KA1240N+02181MA1999999100141MD1999999+0061REMSYN082AAXX  20124 82392 22499 60902 10260 20255 30014 40117 84430 333 20218 58006 60014;
0167823920999992002032018004-03690-040340FM-12+008399999V0201401N001510450019N0500001N1+03141+02381100741ADDAA199000091GF105991041021004501031001MA1999999099721MD1999999-0071REMSYN070AAXX  20184 82392 32499 51403 10314 20238 39972 40074 84230 333 59007;EQDQ01  00002PRCP99
0213823920999992002032100004-03690-040340FM-12+008399999V0203601N000512200019N0040001N1+02531+02421101021ADDAA106000191AY151061AY251061GF102991011021004501011001KA1240M+03221MA1999999100001MD1999999+0031MW1021REMSYN100AAXX  21004 82392 21496 23601 10253 20242 30000 40102 70255 81210 333 10322 29087 55083 58003 69911;
0173823920999992002032112004-03690-040340FM-12+008399999V0200901N001012200019N0500001N1+02781+02461101231ADDAA124001091GF104991021041004501031001KA1240N+02281MA1999999100211MD1999999+0071REMSYN082AAXX  21124 82392 22499 40902 10278 20246 30021 40123 82430 333 20228 58007 69994;
0167823920999992002032118004-03690-040340FM-12+008399999V0200501N001012200019N0500001N1+03181+02311100821ADDAA199000091GF104991041041004501001001MA1999999099801MD1999999+0081REMSYN070AAXX  21184 82392 32499 40502 10318 20231 39980 40082 84400 333 58008;EQDQ01  00002PRCP99
0213823920999992002032200004-03690-040340FM-12+008399999V0200501N001512200019N0040001N1+02401+02331101101ADDAA106000591AY161061AY221061GF102991021011008001001001KA1240M+03241MA1999999100081MD1999999+0081MW1021REMSYN100AAXX  22004 82392 21596 20503 10240 20233 30008 40110 70262 82100 333 10324 29084 55082 58008 69961;
0173823920999992002032212004-03690-040340FM-12+008399999V0201801N001012200019N0500001N1+02741+02401101141ADDAA124000591GF103991031021004501001001KA1240N+02161MA1999999100121MD1999999-0091REMSYN082AAXX  22124 82392 22499 31802 10274 20240 30012 40114 83200 333 20216 59009 69964;
0167823920999992002032218004-03690-040340FM-12+008399999V0200501N000512200019N0500001N1+03121+02381100771ADDAA199000091GF104991021061004501031001MA1999999099761MD1999999-0041REMSYN070AAXX  22184 82392 32499 40501 10312 20238 39976 40077 82630 333 59004;EQDQ01  00002PRCP99
0192823920999992002032312004-03690-040340FM-12+008399999V0203601N000519999999N0200001N1+02501+02451101391ADDAA124001091GF108991999021004501001001KA1240N+02301MA1999999100361MD1999999+0241REMSYN082AAXX  23124 82392 22498 83601 10250 20245 30036 40139 83200 333 20230 58024 69994;EQDQ01+000032SCOTLC
0182823920999992002032318004-03690-040340FM-12+008399999V0202701N000510450019N0500001N1+02481+02451101131ADDAA106021191AY161061AY261061GF108991031071004501021001MA1999999100101MD1999999+0341MW1511REMSYN082AAXX  23184 82392 21499 82701 10248 20245 30010 40113 75166 83720 333 58034 60211;
0232823920999992002032400004-03690-040340FM-12+008399999V0202701N000519999999N0040001N1+02261+02231101231ADDAA106001091AY161061AY261061GF108991999021004501001001KA1240M+02591MA1999999100201MD1999999+0101MW1021REMSYN100AAXX  24004 82392 21496 82701 10226 20223 30020 40123 70266 83200 333 10259 29098 55001 58010 60011;EQDQ01+000032SCOTLC
0173823920999992002032412004-03690-040340FM-12+008399999V0201801N000512200019N0500001N1+02641+02371101331ADDAA124022191GF103991021021004501031001KA1240N+02161MA1999999100301MD1999999-0061REMSYN082AAXX  24124 82392 22499 31801 10264 20237 30030 40133 82230 333 20216 59006 60224;
0167823920999992002032418004-03690-040340FM-12+008399999V0202701N000511050019N0500001N1+03181+02371100861ADDAA199000091GF105991021021004501011011MA1999999099841MD1999999-0261REMSYN070AAXX  24184 82392 32499 52701 10318 20237 39984 40086 82211 333 59026;EQDQ01  00002PRCP99
0213823920999992002032500004-03690-040340FM-12+008399999V0201801N000510450019N0040001N1+02221+02171101201ADDAA106034091AY161061AY261061GF106991041071004501031001KA1240M+03241MA1999999100171MD1999999-0031MW1021REMSYN100AAXX  25004 82392 21496 61801 10222 20217 30017 40120 70266 84730 333 10324 29085 55090 59003 60341;
0173823920999992002032512004-03690-040340FM-12+008399999V0202301N000512200019N0500001N1+02541+02401101231ADDAA124034091GF102991021011004501001001KA1240N+02021MA1999999100201MD1999999-0101REMSYN082AAXX  25124 82392 22499 22301 10254 20240 30020 40123 82100 333 20202 59010 60344;
0167823920999992002032518004-03690-040340FM-12+008399999V0201401N001012200019N0500001N1+03121+02361100771ADDAA199000091GF104991041021004501001001MA1999999099751MD1999999-0091REMSYN070AAXX  25184 82392 32499 41402 10312 20236 39975 40077 84200 333 59009;EQDQ01  00002PRCP99
0214823920999992002032600004-03690-040340FM-12+008399999V0203601N001019999999N0040001N1+02531+02421101191ADDAA199000091GF107991999021004501001001KA1240M+03171MA1999999100161MD1999999-0011REMSYN088AAXX  26004 82392 32496 73602 10253 20242 30016 40119 83200 333 10317 29086 55091 59001;EQDQ01+000032SCOTLCQ02  00002PRCP99
0186823920999992002032612004-03690-040340FM-12+008399999V0200901N002110450019N0500001N1+02701+02431101171ADDAA199000091GF106991041051004501031001KA1240N+02381MA1999999100151MD1999999-0051REMSYN076AAXX  26124 82392 32499 60904 10270 20243 30015 40117 84530 333 20238 59005;EQDQ01  00002PRCP99
0167823920999992002032618004-03690-040340FM-12+008399999V0200901N001012200019N0500001N1+03181+02221100751ADDAA199000091GF104991041021004501001001MA1999999099731MD1999999-0021REMSYN070AAXX  26184 82392 32499 40902 10318 20222 39973 40075 84200 333 59002;EQDQ01  00002PRCP99
0170823920999992002032700004-03690-040340FM-12+008399999V0200501N001011050019N0040001N1+02551+02331101061ADDAA199000091GF105991011021004501031011MA1999999100041REMSYN087AAXX  27004 82392 32496 50502 10255 20233 30004 40106 81231 33 10318 29079 55090 59012;EQDQ01  00002PRCP99
0186823920999992002032712004-03690-040340FM-12+008399999V0201401N001010450019N0500001N1+02741+02401101201ADDAA199000091GF105991041041004501031001KA1240N+02301MA1999999100181MD1999999+0031REMSYN076AAXX  27124 82392 32499 51402 10274 20240 30018 40120 84430 333 20230 58003;EQDQ01  00002PRCP99
0182823920999992002032718004-03690-040340FM-12+008399999V0202301N000510450019N0200001N1+02561+02471100881ADDAA106007191AY161061AY221061GF108991041071004501021999MA1999999099851MD1999999+0121MW1021REMSYN082AAXX  27184 82392 21498 82301 10256 20247 39985 40088 70262 8472/ 333 58012 60071;
0232823920999992002032800004-03690-040340FM-12+008399999V0203601N000519999999N0040001N1+02281+02101101331ADDAA106001091AY151061AY251061GF108991999011004501001001KA1240M+03081MA1999999100301MD1999999+0021MW1611REMSYN100AAXX  28004 82392 21496 83601 10228 20210 30030 40133 76155 82100 333 10308 29091 55058 58002 60011;EQDQ01+000022SCOTLC
0173823920999992002032812004-03690-040340FM-12+008399999V0202301N000510450019N0500001N1+02461+02341101221ADDAA124007991GF106991021041004501031001KA1240N+02101MA1999999100191MD1999999+0011REMSYN082AAXX  28124 82392 22499 62301 10246 20234 30019 40122 82430 333 20210 58001 60084;
0182823920999992002032818004-03690-040340FM-12+008399999V0202301N000510450019N0500001N1+02881+02371100991ADDAA106000191AY151061AY251061GF107991031041004501031001MA1999999099961MD1999999+0111MW1021REMSYN082AAXX  28184 82392 21499 72301 10288 20237 39996 40099 70255 83430 333 58011 69911;
0232823920999992002032900004-03690-040340FM-12+008399999V0203201N000519999999N0500001N1+02201+02171101151ADDAA106020191AY161061AY221061GF108991999011004501001001KA1240M+02981MA1999999100131MD1999999-0181MW1211REMSYN100AAXX  29004 82392 21499 83201 10220 20217 30013 40115 72162 82100 333 10298 29091 55019 59018 60201;EQDQ01+000022SCOTLC
0201823920999992002032912004-03690-040340FM-12+008399999V0201401N001512200019N0500001N1+02601+02421101051ADDAA124020191AY161061AY221061GF103991031011004501001001KA1240N+02121MA1999999100021MD1999999-0171MW1021REMSYN088AAXX  29124 82392 21499 31403 10260 20242 30002 40105 70262 83100 333 20212 59017 60204;
0167823920999992002032918004-03690-040340FM-12+008399999V0200501N000510450019N0500001N1+03141+02351100771ADDAA199000091GF106991031061004501031011MA1999999099751MD1999999-0211REMSYN070AAXX  29184 82392 32499 60501 10314 20235 39975 40077 83631 333 59021;EQDQ01  00002PRCP99
0213823920999992002033000004-03690-040340FM-12+008399999V0202301N000510450019N0040001N1+02521+02491101021ADDAA106006191AY161061AY221061GF108991031061004501021999KA1240M+03161MA1999999100001MD1999999-0121MW1021REMSYN100AAXX  30004 82392 21496 82301 10252 20249 30000 40102 70262 8362/ 333 10316 29087 55071 59012 60061;
0173823920999992002033012004-03690-040340FM-12+008399999V0200901N000512200019N0500001N1+02781+02461101031ADDAA124006191GF104991031041004501031001KA1240N+02301MA1999999100011MD1999999-0011REMSYN082AAXX  30124 82392 22499 40901 10278 20246 30001 40103 83430 333 20230 59001 60064;
0167823920999992002033018004-03690-040340FM-12+008399999V0200901N001510450019N0500001N1+03141+02301100741ADDAA199000091GF105991031041004501031001MA1999999099721MD1999999-0031REMSYN070AAXX  30184 82392 32499 50903 10314 20230 39972 40074 83430 333 59003;EQDQ01  00002PRCP99
0198823920999992002033100004-03690-040340FM-12+008399999V0203601N001010042019N0040001N1+02601+02251101141ADDAA199000091GF108991051061004501011999KA1240M+03191MA1999999100121MD1999999+0121REMSYN088AAXX  31004 82392 32496 83602 10260 20225 30012 40114 8561/ 333 10319 29077 55089 58012;EQDQ01  00002PRCP99
0186823920999992002033112004-03690-040340FM-12+008399999V0201401N001010042019N0500001N1+02681+02541101261ADDAA199000091GF107991051051004501031001KA1240N+02281MA1999999100241MD1999999+0231REMSYN076AAXX  31124 82392 32499 71402 10268 20254 30024 40126 85530 333 20228 58023;EQDQ01  00002PRCP99
0201823920999992002033118004-03690-040340FM-12+008399999V0202301N000519999999N0500001N1+02461+02411100991ADDAA106000891AY161061AY221061GF108991999021004501001001MA1999999099961MD1999999+0241MW1021REMSYN082AAXX  31184 82392 21499 82301 10246 20241 39996 40099 70262 83200 333 58024 69971;EQDQ01+000032SCOTLC
0198823920999992002040100004-03690-040340FM-12+008399999V0203601N001012200019N0040001N1+02501+02451101151ADDAA199000091GF103991031021004501001001KA1240M+03101MA1999999100131MD1999999+0011REMSYN088AAXX  01004 82392 32496 33602 10250 20245 30013 40115 83200 333 10310 29096 55027 58001;EQDQ01  00002PRCP99
0186823920999992002040112004-03690-040340FM-12+008399999V0201401N001012200019N0500001N1+02701+02541101121ADDAA199000091GF102991021011004501001001KA1240N+02281MA1999999100101MD1999999-0141REMSYN076AAXX  01124 82392 32499 21402 10270 20254 30010 40112 82100 333 20228 59014;EQDQ01  00002PRCP99
0182823920999992002040118004-03690-040340FM-12+008399999V0200901N002110042019N0500001N1+03081+02401100761ADDAA106000391AY151061AY221061GF106991051041004501031001MA1999999099741MD1999999-0221MW1031REMSYN082AAXX  01184 82392 21499 60904 10308 20240 39974 40076 70352 85430 333 59022 69931;
0214823920999992002040200004-03690-040340FM-12+008399999V0203601N000519999999N0040001N1+02561+02441101091ADDAA199000091GF107991999021004501001001KA1240M+03121MA1999999100071MD1999999-0061REMSYN088AAXX  02004 82392 32496 73601 10256 20244 30007 40109 83200 333 10312 29086 55096 59006;EQDQ01+000032SCOTLCQ02  00002PRCP99
0173823920999992002040212004-03690-040340FM-12+008399999V0200901N001012200019N0500001N1+02781+02441101171ADDAA124000391GF104991031021004501031001KA1240N+02401MA1999999100151MD1999999+0051REMSYN082AAXX  02124 82392 22499 40902 10278 20244 30015 40117 83230 333 20240 58005 69934;
0167823920999992002040218004-03690-040340FM-12+008399999V0203601N000510450019N0500001N1+02931+02491100871ADDAA199000091GF106991031061004501011001MA1999999099851MD1999999-0111REMSYN070AAXX  02184 82392 32499 63601 10293 20249 39985 40087 83610 333 59011;EQDQ01  00002PRCP99
0198823920999992002040300004-03690-040340FM-12+008399999V0200501N000510450019N0040001N1+02541+02441101171ADDAA199000091GF106991031061004501011001KA1240M+03021MA1999999100151MD1999999+0081REMSYN088AAXX  03004 82392 32496 60501 10254 20244 30015 40117 83610 333 10302 29087 55068 58008;EQDQ01  00002PRCP99
0186823920999992002040312004-03690-040340FM-12+008399999V0201801N000512200019N0500001N1+02781+02321101271ADDAA199000091GF104991031021004501001011KA1240N+02301MA1999999100251MD1999999+0101REMSYN076AAXX  03124 82392 32499 41801 10278 20232 30025 40127 83201 333 20230 58010;EQDQ01  00002PRCP99
0167823920999992002040318004-03690-040340FM-12+008399999V0202301N000510042019N0500001N1+02881+02251101021ADDAA199000091GF107991051051004501031001MA1999999100001MD1999999+0151REMSYN070AAXX  03184 82392 32499 72301 10288 20225 30000 40102 85530 333 58015;EQDQ01  00002PRCP99
0232823920999992002040400004-03690-040340FM-12+008399999V0203601N000519999999N0040001N1+02461+02431101291ADDAA106000591AY151061AY251061GF105991999021004501001001KA1240M+03041MA1999999100271MD1999999+0121MW1021REMSYN100AAXX  04004 82392 21496 53601 10246 20243 30027 40129 70255 83200 333 10304 29085 55069 58012 69941;EQDQ01+000032SCOTLC
0201823920999992002040412004-03690-040340FM-12+008399999V0200501N000510042019N0500001N1+02681+02451101301ADDAA124000891AY151061AY251061GF107991051061004501031001KA1240N+02301MA1999999100281MD1999999+0031MW1021REMSYN088AAXX  04124 82392 21499 70501 10268 20245 30028 40130 70255 85630 333 20230 58003 69984;
0182823920999992002040418004-03690-040340FM-12+008399999V0200501N000510042019N0500001N1+02481+02381100951ADDAA106000591AY101061AY221061GF107991061061004501011001MA1999999099921MD1999999-0081MW1211REMSYN082AAXX  04184 82392 21499 70501 10248 20238 39992 40095 72102 86610 333 59008 69961;
0179823920999992002040500004-03690-040340FM-12+008399999V0202301N000510042019N0040001N1+02481+02431101121ADDAA199000021GF106991051051004501031001KA1240M+02981MA1999999100101MD1999999-0171REMSYN088AAXX  05004 82392 32496 62301 10248 20243 30010 40112 85530 333 10298 29094 55036 59017;
0173823920999992002040512004-03690-040340FM-12+008399999V0202301N000512200019N0500001N1+02621+02441101131ADDAA124000591GF104991011011004501031001KA1240N+02241MA1999999100111MD1999999-0171REMSYN082AAXX  05124 82392 22499 42301 10262 20244 30011 40113 81130 333 20224 59017 69964;
0182823920999992002040518004-03690-040340FM-12+008399999V0203601N000510042019N0500001N1+02631+02481101001ADDAA106007991AY101061AY221061GF107991051071004501011001MA1999999099701MD1999999-0221MW1211REMSYN082AAXX  05184 82392 21499 73601 10263 20248 39970 40100 72102 85710 333 59022 60081;
0198823920999992002040600004-03690-040340FM-12+008399999V0202301N000519999999N0040001N1+02421+02331101061ADDAA199000021GF108991999021004501001001KA1240M+03181MA1999999100031MD1999999-0071REMSYN088AAXX  06004 82392 32496 82301 10242 20233 30003 40106 84200 333 10318 29094 55051 59007;EQDQ01+000042SCOTLC
0201823920999992002040612004-03690-040340FM-12+008399999V0203201N000512200019N0500001N1+02501+02401101031ADDAA124025991AY161061AY261061GF102991021011004501001001KA1240N+02181MA1999999100001MD1999999-0111MW1021REMSYN088AAXX  06124 82392 21499 23201 10250 20240 30000 40103 70266 82100 333 20218 59011 60264;
0213823920999992002040700004-03690-040340FM-12+008399999V0202301N000510450019N0040001N1+02241+02191101171ADDAA106013091AY161061AY261061GF108991041061004501021999KA1240M+03001MA1999999100141MD1999999+0111MW1511REMSYN100AAXX  07004 82392 21496 82301 10224 20219 30014 40117 75166 8462/ 333 10300 29092 55055 58011 60131;
0220823920999992002040712004-03690-040340FM-12+008399999V0209999C000019999999N0500001N1+02581+02301101211ADDAA124013091AY151061AY251061GF107991999011004501001001KA1240N+02181MA1999999100181MD1999999+0181MW1021REMSYN088AAXX  07124 82392 21499 70000 10258 20230 30018 40121 70255 82100 333 20218 58018 60134;EQDQ01+000022SCOTLC
0183823920999992002040718004-03690-040340FM-12+008399999V0203201N000510042019N0500001N1+02901+02431100781ADDAA199000091GF107991999061004501001001MA1999999099761MD1999999+0051REMSYN070AAXX  07184 82392 32499 73201 10290 20243 39976 40078 85600 333 58005;EQDQ01+000052SCOTLCQ02  00002PRCP99
0232823920999992002040800004-03690-040340FM-12+008399999V0201801N000519999999N0040001N1+02431+02411101121ADDAA106001091AY151061AY251061GF108991999011004501001001KA1240M+03171MA1999999100091MD1999999-0151MW1021REMSYN100AAXX  08004 82392 21496 81801 10243 20241 30009 40112 70255 82100 333 10317 29090 55057 59015 60011;EQDQ01+000022SCOTLC
0173823920999992002040812004-03690-040340FM-12+008399999V0202301N000512200019N0500001N1+02601+02391101151ADDAA124001091GF103991031021004501001001KA1240N+02311MA1999999100121MD1999999-0061REMSYN082AAXX  08124 82392 22499 32301 10260 20239 30012 40115 83200 333 20231 59006 60014;
0167823920999992002040818004-03690-040340FM-12+008399999V0201801N001010450019N0500001N1+02881+02321100791ADDAA199000091GF106991041021004501031001MA1999999099771MD1999999+0011REMSYN070AAXX  08184 82392 32499 61802 10288 20232 39977 40079 84230 333 58001;EQDQ01  00002PRCP99
0213823920999992002040900004-03690-040340FM-12+008399999V0200501N001012200019N0040001N1+02421+02281101081ADDAA106007991AY161061AY261061GF104991021061004501001011KA1240M+02981MA1999999100051MD1999999-0041MW1021REMSYN100AAXX  09004 82392 21496 40502 10242 20228 30005 40108 70266 82601 333 10298 29086 55062 59004 60081;
0173823920999992002040912004-03690-040340FM-12+008399999V0200901N001010450019N0500001N1+02701+02331101121ADDAA124007991GF105991041021004501031001KA1240N+02281MA1999999100101MD1999999-0021REMSYN082AAXX  09124 82392 22499 50902 10270 20233 30010 40112 84230 333 20228 59002 60084;
0182823920999992002040918004-03690-040340FM-12+008399999V0203601N000510450019N0500001N1+02601+02481100751ADDAA106000591AY151061AY251061GF107991041061004501011001MA1999999099721MD1999999-0051MW1201REMSYN082AAXX  09184 82392 21499 73601 10260 20248 39972 40075 72055 84610 333 59005 69941;
0232823920999992002041000004-03690-040340FM-12+008399999V0200501N000519999999N0040001N1+02401+02351101021ADDAA106005191AY161061AY261061GF106991999021004501001001KA1240M+03081MA1999999100001MD1999999-0051MW1021REMSYN100AAXX  10004 82392 21496 60501 10240 20235 30000 40102 70266 83200 333 10308 29092 55058 59005 60051;EQDQ01+000032SCOTLC
0201823920999992002041012004-03690-040340FM-12+008399999V0203201N000510450019N0200001N1+02401+02331101151ADDAA124020191AY161061AY261061GF108991041071004501021999KA1240N+02301MA1999999100121MD1999999-0021MW1511REMSYN088AAXX  10124 82392 21498 83201 10240 20233 30012 40115 75166 8472/ 333 20230 59002 60204;
0182823920999992002041018004-03690-040340FM-12+008399999V0203201N000510450019N0500001N1+02581+02401100781ADDAA106006191AY161061AY261061GF108991031061004501021999MA1999999099751MD1999999+0081MW1021REMSYN082AAXX  10184 82392 21499 83201 10258 20240 39975 40078 70266 8362/ 333 58008 60061;
0223823920999992002041100004-03690-040340FM-12+008399999V02099999999992200019N0040001N1+02351+02331101081ADDAA106000391AY151061AY251061GA1001+999999999GF100991001001999999001001KA1240M+02601MA1999999100051MD1999999+0051MW1021REMSYN094AAXX  11004 82392 21496 05011 10235 20233 30005 40108 70255 333 10260 29096 55000 58005 69931;
0173823920999992002041112004-03690-040340FM-12+008399999V0201401N000510450019N0500001N1+02641+02331101181ADDAA124007191GF106991021021004501011011KA1240N+02101MA1999999100151MD1999999+0031REMSYN082AAXX  11124 82392 22499 61401 10264 20233 30015 40118 82211 333 20210 58003 60074;
0167823920999992002041118004-03690-040340FM-12+008399999V0201801N000510450019N0500001N1+03081+02161100791ADDAA199000091GF106991021021004501011011MA1999999099771MD1999999+0021REMSYN070AAXX  11184 82392 32499 61801 10308 20216 39977 40079 82211 333 58002;EQDQ01  00002PRCP99
0198823920999992002041200004-03690-040340FM-12+008399999V0203601N002112200019N0010001N1+02421+02281101111ADDAA199000091GF102991021011008001001001KA1240M+03121MA1999999100081MD1999999+0031REMSYN088AAXX  12004 82392 32594 23604 10242 20228 30008 40111 82100 333 10312 29081 55094 58003;EQDQ01  00002PRCP99
0186823920999992002041212004-03690-040340FM-12+008399999V0201401N001010450019N0200001N1+02441+02301101331ADDAA199000091GF108991041061004501021999KA1240N+02241MA1999999100331MD1999999+0151REMSYN076AAXX  12124 82392 32498 81402 10244 20230 30033 40133 8462/ 333 20224 58015;EQDQ01  00002PRCP99
0167823920999992002041218004-03690-040340FM-12+008399999V0200501N001010450019N0500001N1+02701+02351101071ADDAA199000091GF108991041061004501011999MA1999999100041MD1999999+0271REMSYN070AAXX  12184 82392 32499 80502 10270 20235 30004 40107 8461/ 333 58027;EQDQ01  00002PRCP99
0198823920999992002041300004-03690-040340FM-12+008399999V0200501N001510450019N0040001N1+02421+02281101251ADDAA199000091GF108991031071004501021999KA1240M+02721MA1999999100221MD1999999+0141REMSYN088AAXX  13004 82392 32496 80503 10242 20228 30022 40125 8372/ 333 10272 29089 55000 58014;EQDQ01  00002PRCP99
0220823920999992002041312004-03690-040340FM-12+008399999V0209999C000019999999N0500001N1+02501+02311101271ADDAA124000191AY151061AY251061GF106991999021008001001001KA1240N+02241MA1999999100241MD1999999-0061MW1021REMSYN088AAXX  13124 82392 21599 60000 10250 20231 30024 40127 70255 83200 333 20224 59006 69914;EQDQ01+000032SCOTLC
0183823920999992002041318004-03690-040340FM-12+008399999V0209999C000019999999N0500001N1+03131+02401100861ADDAA199000091GF105991999021008001001001MA1999999099841MD1999999-0201REMSYN070AAXX  13184 82392 32599 50000 10313 20240 39984 40086 83200 333 59020;EQDQ01+000032SCOTLCQ02  00002PRCP99
0232823920999992002041400004-03690-040340FM-12+008399999V0202301N000519999999N0040001N1+02321+02201101251ADDAA106000191AY151061AY251061GF108991999021004501001001KA1240M+03141MA1999999100221MD1999999+0001MW1021REMSYN100AAXX  14004 82392 21496 82301 10232 20220 30022 40125 70255 84200 333 10314 29085 55072 58000 69911;EQDQ01+000042SCOTLC
0201823920999992002041412004-03690-040340FM-12+008399999V0201401N001012200019N0500001N1+02681+02411101331ADDAA124003091AY161061AY221061GF103991031021004501001001KA1240N+02201MA1999999100301MD1999999+0061MW1031REMSYN088AAXX  14124 82392 21499 31402 10268 20241 30030 40133 70362 83200 333 20220 58006 60034;
0182823920999992002041418004-03690-040340FM-12+008399999V0200101N001012200019N0500001N1+02501+02291100881ADDAA106000891AY151061AY251061GF104991041021004501001001MA1999999099851MD1999999+0011MW1031REMSYN082AAXX  14184 82392 21499 40102 10250 20229 39985 40088 70355 84200 333 58001 69971;
0198823920999992002041500004-03690-040340FM-12+008399999V0203601N001012200019N0040001N1+02441+02271101081ADDAA199000091GF103991031001004501031001KA1240M+02881MA1999999100061MD1999999-0161REMSYN088AAXX  15004 82392 32496 33602 10244 20227 30006 40108 83030 333 10288 29088 55049 59016;EQDQ01  00002PRCP99
0173823920999992002041512004-03690-040340FM-12+008399999V0203201N000510450019N0500001N1+02581+02401101301ADDAA124000891GF108991041071004501021999KA1240N+02281MA1999999100271MD1999999-0031REMSYN082AAXX  15124 82392 22499 83201 10258 20240 30027 40130 8472/ 333 20228 59003 69974;
0214823920999992002041600004-03690-040340FM-12+008399999V0200501N000512200019N0040001N1+02531+02441101061ADDAA199000091GF101991999011008001001001KA1240M+03161MA1999999100041MD1999999-0021REMSYN088AAXX  16004 82392 32596 10501 10253 20244 30004 40106 82100 333 10316 29084 55063 59002;EQDQ01+000022SCOTLCQ02  00002PRCP99
0186823920999992002041612004-03690-040340FM-12+008399999V0200901N001512200019N0500001N1+02741+02401101181ADDAA199000091GF103991031021004501001001KA1240N+02241MA1999999100161MD1999999+0111REMSYN076AAXX  16124 82392 32499 30903 10274 20240 30016 40118 83200 333 20224 58011;EQDQ01  00002PRCP99
0167823920999992002041618004-03690-040340FM-12+008399999V0201801N000512200019N0500001N1+03241+02441100881ADDAA199000091GF104991041021004501001001MA1999999099861MD1999999+0101REMSYN070AAXX  16184 82392 32499 41801 10324 20244 39986 40088 84200 333 58010;EQDQ01  00002PRCP99
0198823920999992002041700004-03690-040340FM-12+008399999V0200501N000512200019N0040001N1+02521+02251101251ADDAA199000091GF104991031061004501011001KA1240M+03311MA1999999100231MD1999999+0191REMSYN088AAXX  17004 82392 32496 40501 10252 20225 30023 40125 83610 333 10331 29079 55101 58019;EQDQ01  00002PRCP99
0214823920999992002041800004-03690-040340FM-12+008399999V0209999C000019999999N0040001N1+02431+02321101311ADDAA199000091GF106991999021008001001001KA1240M+03181MA1999999100281MD1999999+0051REMSYN088AAXX  18004 82392 32596 60000 10243 20232 30028 40131 84200 333 10318 29085 55057 58005;EQDQ01+000042SCOTLCQ02  00002PRCP99
0186823920999992002041812004-03690-040340FM-12+008399999V0202701N000510042019N0500001N1+02621+02371101241ADDAA199000091GF105991051021004501001001KA1240N+02141MA1999999100211MD1999999-0091REMSYN076AAXX  18124 82392 32499 52701 10262 20237 30021 40124 85200 333 20214 59009;EQDQ01  00002PRCP99
0167823920999992002041818004-03690-040340FM-12+008399999V0203601N000510450019N0500001N1+03001+02511100801ADDAA199000091GF106991041071004501011001MA1999999099781MD1999999-0151REMSYN070AAXX  18184 82392 32499 63601 10300 20251 39978 40080 84710 333 59015;EQDQ01  00002PRCP99
0173823920999992002041912004-03690-040340FM-12+008399999V0200901N001512200019N0500001N1+02701+02331101031ADDAA124001091GF103991031021004501001001KA1240N+02241MA1999999100011MD1999999-0201REMSYN082AAXX  19124 82392 22499 30903 10270 20233 30001 40103 83200 333 20224 59020 60014;
0167823920999992002041918004-03690-040340FM-12+008399999V0200901N000512200019N0500001N1+03141+02131100751ADDAA199000091GF104991031021004501001011MA1999999099731MD1999999-0051REMSYN070AAXX  19184 82392 32499 40901 10314 20213 39973 40075 83201 333 59005;EQDQ01  00002PRCP99
0186823920999992002042012004-03690-040340FM-12+008399999V0200901N001512200019N0500001N1+02701+02431101071ADDAA199000091GF104991041021004501001001KA1240N+02221MA1999999100051MD1999999+0041REMSYN076AAXX  20124 82392 32499 40903 10270 20243 30005 40107 84200 333 20222 58004;EQDQ01  00002PRCP99
0167823920999992002042018004-03690-040340FM-12+008399999V0201401N001010450019N0500001N1+02881+02411100631ADDAA199000091GF108991031051004501021999MA1999999099621MD1999999-0111REMSYN070AAXX  20184 82392 32499 81402 10288 20241 39962 40063 8352/ 333 59011;EQDQ01  00002PRCP99
0198823920999992002042100004-03690-040340FM-12+008399999V0203601N000510450019N0040001N1+02461+02321100961ADDAA199000091GF106991041041004501031001KA1240M+02961MA1999999099941MD1999999+0031REMSYN088AAXX  21004 82392 32496 63601 10246 20232 39994 40096 84430 333 10296 29086 55042 58003;EQDQ01  00002PRCP99
0202823920999992002042112004-03690-040340FM-12+008399999V0201801N000519999999N0500001N1+02741+02321101171ADDAA199000091GF106991999011008001001001KA1240N+02321MA1999999100151MD1999999+0101REMSYN076AAXX  21124 82392 32599 61801 10274 20232 30015 40117 82100 333 20232 58010;EQDQ01+000022SCOTLCQ02  00002PRCP99
0183823920999992002042118004-03690-040340FM-12+008399999V0200901N001019999999N0500001N1+03111+02331100741ADDAA199000091GF105991999011004501001001MA1999999099721MD1999999+0101REMSYN070AAXX  21184 82392 32499 50902 10311 20233 39972 40074 82100 333 58010;EQDQ01+000022SCOTLCQ02  00002PRCP99
0232823920999992002042200004-03690-040340FM-12+008399999V0209999C000019999999N0040001N1+02421+02331101101ADDAA106001091AY151061AY251061GF107991999011008001001001KA1240M+03121MA1999999100081MD1999999+0041MW1031REMSYN100AAXX  22004 82392 21596 70000 10242 20233 30008 40110 70355 82100 333 10312 29083 55087 58004 60011;EQDQ01+000022SCOTLC
0173823920999992002042212004-03690-040340FM-12+008399999V0200901N001012200019N0500001N1+02661+02291101051ADDAA124001091GF104991031021004501031001KA1240N+02221MA1999999100021MD1999999-0131REMSYN082AAXX  22124 82392 22499 40902 10266 20229 30002 40105 83230 333 20222 59013 60014;
0167823920999992002042218004-03690-040340FM-12+008399999V0201401N000512200019N0500001N1+03121+02191100681ADDAA199000091GF102991021021004501001001MA1999999099661MD1999999-0061REMSYN070AAXX  22184 82392 32499 21401 10312 20219 39966 40068 82200 333 59006;EQDQ01  00002PRCP99
0198823920999992002042300004-03690-040340FM-12+008399999V0203601N000512200019N0040001N1+02581+02371100971ADDAA199000091GF102991011011004501031001KA1240M+03121MA1999999099951MD1999999-0131REMSYN088AAXX  23004 82392 32496 23601 10258 20237 39995 40097 81130 333 10312 29083 55087 59013;EQDQ01  00002PRCP99
0186823920999992002042312004-03690-040340FM-12+008399999V0201401N001010042019N0500001N1+02701+02331101011ADDAA199000091GF107991051041004501031001KA1240N+02261MA1999999099991MD1999999-0031REMSYN076AAXX  23124 82392 32499 71402 10270 20233 39999 40101 85430 333 20226 59003;EQDQ01  00002PRCP99
0182823920999992002042318004-03690-040340FM-12+008399999V0202301N000510450019N0500001N1+02861+02761100621ADDAA106002091AY161061AY261061GF106991031051004501031001MA1999999099611MD1999999-0051MW1021REMSYN082AAXX  23184 82392 21499 62301 10286 20276 39961 40062 70266 83530 333 59005 60021;
0214823920999992002042400004-03690-040340FM-12+008399999V0200501N000519999999N0040001N1+02521+02431100991ADDAA199000091GF108991999011008001001001KA1240M+02891MA1999999099971MD1999999+0021REMSYN088AAXX  24004 82392 32596 80501 10252 20243 39997 40099 82100 333 10289 29087 55039 58002;EQDQ01+000022SCOTLCQ02  00002PRCP99
0173823920999992002042412004-03690-040340FM-12+008399999V0200901N001510450019N0500001N1+02601+02391101031ADDAA124002091GF105991041021004501031001KA1240N+02381MA1999999100011MD1999999+0021REMSYN082AAXX  24124 82392 22499 50903 10260 20239 30001 40103 84230 333 20238 58002 60024;
0167823920999992002042418004-03690-040340FM-12+008399999V0200501N001512200019N0500001N1+03101+02201100591ADDAA199000091GF104991041021004501001001MA1999999099581MD1999999-0031REMSYN070AAXX  24184 82392 32499 40503 10310 20220 39958 40059 84200 333 59003;EQDQ01  00002PRCP99
0213823920999992002042500004-03690-040340FM-12+008399999V0209999C000010450019N0040001N1+02581+02421100981ADDAA106000191AY151061AY251061GF107991021041004501031001KA1240M+03211MA1999999099961MD1999999-0011MW1021REMSYN100AAXX  25004 82392 21496 70000 10258 20242 39996 40098 70255 82430 333 10321 29082 55074 59001 69911;
0201823920999992002042512004-03690-040340FM-12+008399999V0203601N000510450019N0500001N1+02641+02391101201ADDAA124000591AY151061AY251061GF108991021041004501031999KA1240N+02381MA1999999100181MD1999999+0171MW1021REMSYN088AAXX  25124 82392 21499 83601 10264 20239 30018 40120 70255 8243/ 333 20238 58017 69954;
0182823920999992002042518004-03690-040340FM-12+008399999V0203601N000510450019N0500001N1+02461+02391100881ADDAA106018091AY161061AY261061GF108991041061004501011999MA1999999099851MD1999999+0271MW1021REMSYN082AAXX  25184 82392 21499 83601 10246 20239 39985 40088 70266 8461/ 333 58027 60181;
0232823920999992002042600004-03690-040340FM-12+008399999V0203201N000519999999N0040001N1+02401+02231101151ADDAA106002091AY161061AY221061GF108991999021004501001001KA1240M+02901MA1999999100141MD1999999+0121MW1021REMSYN100AAXX  26004 82392 21496 83201 10240 20223 30014 40115 70262 84200 333 10290 29019 55012 58012 60021;EQDQ01+000042SCOTLC
0173823920999992002042612004-03690-040340FM-12+008399999V0201801N000510450019N0200001N1+02501+02361101281ADDAA124019191GF108991041061004501021999KA1240N+02281MA1999999100251MD1999999+0071REMSYN082AAXX  26124 82392 22498 81801 10250 20236 30025 40128 8462/ 333 20228 58007 60194;
0167823920999992002042618004-03690-040340FM-12+008399999V0202301N000510450019N0500001N1+02621+02231100921ADDAA199000091GF107991031061004501011001MA1999999099891MD1999999+0041REMSYN070AAXX  26184 82392 32499 72301 10262 20223 39989 40092 83610 333 58004;EQDQ01  00002PRCP99
0198823920999992002042700004-03690-040340FM-12+008399999V0202301N000510450019N0040001N1+02341+02201101171ADDAA199000091GF106991041041004501031001KA1240M+02781MA1999999100141MD1999999+0001REMSYN088AAXX  27004 82392 32496 62301 10234 20220 30014 40117 84430 333 10278 29089 55016 58000;EQDQ01  00002PRCP99
0202823920999992002042712004-03690-040340FM-12+008399999V0209999C000012200019N0500001N1+02681+02221101201ADDAA199000091GF104991999011008001001001KA1240N+02101MA1999999100141MD1999999-0081REMSYN076AAXX  27124 82392 32599 40000 10268 20222 30014 40120 82100 333 20210 59008;EQDQ01+000022SCOTLCQ02  00002PRCP99
0182823920999992002042718004-03690-040340FM-12+008399999V0203601N001010450019N0500001N1+02961+02531100481ADDAA106000591AY161061AY261061GF106991031061008001031001MA1999999099821MD1999999-0071MW1021REMSYN082AAXX  27184 82392 21599 63602 10296 20253 39982 40048 70266 83630 333 59007 69961;
0214823920999992002042800004-03690-040340FM-12+008399999V0202301N000512200019N0040001N1+02351+02281101031ADDAA199000091GF103991999021008001001001KA1240M+02981MA1999999100001MD1999999-0141REMSYN088AAXX  28004 82392 32596 32301 10235 20228 30000 40103 81200 333 10298 29086 55078 59014;EQDQ01+000012SCOTLCQ02  00002PRCP99
0173823920999992002042812004-03690-040340FM-12+008399999V0200901N000510042019N0500001N1+02641+02371101181ADDAA124000591GF107991051041004501031001KA1240N+02281MA1999999100151MD1999999-0021REMSYN082AAXX  28124 82392 22499 70901 10264 20237 30015 40118 85430 333 20228 59002 69964;
0182823920999992002042818004-03690-040340FM-12+008399999V0203201N000510450019N0200001N1+02321+02151100931ADDAA106015091AY161061AY261061GF108991041061004501021999MA1999999099901MD1999999+0081MW1511REMSYN082AAXX  28184 82392 21498 83201 10232 20215 39990 40093 75166 8462/ 333 58008 60151;
0173823920999992002042912004-03690-040340FM-12+008399999V0200901N001010042019N0500001N1+02581+02311101331ADDAA124022191GF107991051051004501031001KA1240N+02281MA1999999100301MD1999999+0151REMSYN082AAXX  29124 82392 22499 70902 10258 20231 30030 40133 85530 333 20228 58015 60224;
0167823920999992002042918004-03690-040340FM-12+008399999V0201401N001010450019N0500001N1+02641+02271100981ADDAA199000091GF106991041041004501031001MA1999999099951MD1999999+0051REMSYN070AAXX  29184 82392 32499 61402 10264 20227 39995 40098 84430 333 58005;EQDQ01  00002PRCP99
0214823920999992002043000004-03690-040340FM-12+008399999V0201501N001012200019N0020001N1+02341+02221101161ADDAA199000091GF104991999061008001001001KA1240M+02821MA1999999100131MD1999999-0071REMSYN088AAXX  30004 82392 32595 41502 10234 20222 30013 40116 82600 333 10282 29081 55015 59007;EQDQ01+000022SCOTLCQ02  00002PRCP99
0186823920999992002043012004-03690-040340FM-12+008399999V0201401N001012200019N0500001N1+02661+02391101431ADDAA199000091GF104991041021004501001001KA1240N+02161MA1999999100401MD1999999+0101REMSYN076AAXX  30124 82392 32499 41402 10266 20239 30040 40143 84200 333 20216 58010;EQDQ01  00002PRCP99
0182823920999992002043018004-03690-040340FM-12+008399999V0203601N000510042019N0500001N1+02821+02581101011ADDAA106002091AY161061AY261061GF106991051061004501031001MA1999999099981MD1999999+0031MW1201REMSYN082AAXX  30184 82392 21499 63601 10282 20258 39998 40101 72066 85630 333 58003 60021;
0179823920999992002050100004-03690-040340FM-12+008399999V0201801N000512200019N0040001N1+02391+02331101301ADDAA199000021GF102991021001004501031001KA1240M+02991MA1999999100271MD1999999+0141REMSYN088AAXX  01004 82392 32496 21801 10239 20233 30027 40130 82030 333 10299 29091 55041 58014;
0173823920999992002050112004-03690-040340FM-12+008399999V0202701N000510450019N0500001N1+02481+02341101361ADDAA124002091GF108991031061004501021999KA1240N+02241MA1999999100331MD1999999-0071REMSYN082AAXX  01124 82392 22499 82701 10248 20234 30033 40136 8362/ 333 20224 59007 60024;
