0167825780999992002031118004-05070-042820FM-12+009099999V0201401N001510075019N0100001N1+03081+02421101191ADDAA199000091GF108991051021008001031011MA1999999100171MD1999999+0081REMSYN070AAXX  11184 82578 32597 81403 10308 20242 30017 40119 85231 333 58008;EQDQ01  00002PRCP99
0167825780999992002031818004-05070-042820FM-12+009099999V0201401N002111050019N0100001N1+03141+02451100981ADDAA199000091GF107991031021008001001021MA1999999099971MD1999999-0081REMSYN070AAXX  18184 82578 32597 71404 10314 20245 39997 40098 83202 333 59008;EQDQ01  00002PRCP99
0198825780999992002031900004-05070-042820FM-12+009099999V0209999C000010450019N0005001N1+02681+02501101271ADDAA199000091GF105991031041008001041001KA1240M+03151MA1999999100181MD1999999-0141REMSYN088AAXX  19004 82578 32593 50000 10268 20250 30018 40127 83440 333 10315 29083 55077 59014;EQDQ01  00002PRCP99
0201825780999992002041012004-05070-042820FM-12+009099999V0200501N001510075019N0100001N1+02521+02431101431ADDAA124029091AY161061AY221061GF108991081071008001999999KA1240N+02321MA1999999100401MD1999999+0051MW1021REMSYN088AAXX  10124 82578 21597 80503 10252 20243 30040 40143 70262 887// 333 20232 58005 60294;
0186825780999992002043012004-05070-042820FM-12+009099999V0200501N001010075019N0100001N1+02581+02401101741ADDAA199000091GF108991081041008001999999KA1240N+02321MA1999999100721MD1999999+0251REMSYN076AAXX  30124 82578 32597 80502 10258 20240 30072 40174 884// 333 20232 58025;EQDQ01  00002PRCP99
0167825780999992002051218004-05070-042820FM-12+009099999V0200501N001011050019N0100001N1+03261+02211101231ADDAA199000091GF105991041021008001001021MA1999999100221MD1999999-0031REMSYN070AAXX  12180 82578 32597 50501 10326 20221 30022 40123 84202 333 59003;EQDQ01  00002PRCP99
0208825780999992002051300004-05070-042820FM-12+009099999V0209999C000012200019N0005001N1+02611+02441101511ADDAA199000091GA1001+999999999GF100991001001999999001001KA1240M+03261MA1999999100501MD1999999+0051REMSYN082AAXX  13004 82578 32993 00000 10261 20244 30050 40151 333 10326 29078 55100 58005;EQDQ01  00002PRCP99
0186825780999992002051312004-05070-042820FM-12+009099999V0201401N002612200019N0100001N1+02841+02141101651ADDAA199000091GF101991011011008001001001KA1240N+02151MA1999999100631MD1999999-0031REMSYN076AAXX  13124 82578 32597 11405 10284 20214 30063 40165 81100 333 20215 59003;EQDQ01  00002PRCP99
0186825780999992002051612004-05070-042820FM-12+009099999V0200901N001012200019N0100001N1+02961+02071101511ADDAA199000091GF103991011011008001041001KA1240N+02341MA1999999100501MD1999999-0041REMSYN076AAXX  16124 82578 32597 30902 10296 20207 30050 40151 81140 333 20234 59004;EQDQ01  00002PRCP99
0167825780999992002051618004-05070-042820FM-12+009099999V0201401N001510450019N0100001N1+03311+02121101061ADDAA199000091GF105991031011008001041041MA1999999100051MD1999999-0191REMSYN070AAXX  16184 82578 32597 51403 10331 20212 30005 40106 83144 333 59019;EQDQ01  00002PRCP99
0186825780999992002052212004-05070-042820FM-12+009099999V0200901N001512200019N0100001N1+02861+02231101541ADDAA199000091GF103991011011008001031001KA1240N+02261MA1999999100521MD1999999-0011REMSYN076AAXX  22124 82578 32597 30903 10286 20223 30052 40154 81130 333 20226 59001;EQDQ01  00002PRCP99
0196825780999992002052912004-05070-042820FM-12+009099999V0201401N003112200019N0100001N1+02861+02061101461ADDAA199000091GA1001+999999999GF100991001001999999001001KA1240N+02221MA1999999100451MD1999999+0001REMSYN070AAXX  29124 82578 32997 01406 10286 20206 30045 40146 333 20222 58000;EQDQ01  00002PRCP99
0208825780999992002061100004-05080-042820FM-12+009099999V0200501N002612200019N0005001N1+02541+02381101521ADDAA199000091GA1001+999999999GF100991001001999999001001KA1240M+03261MA1999999100491MD1999999+0011REMSYN082AAXX  11004 82578 32993 00505 10254 20238 30049 40152 333 10326 29081 55056 58001;EQDQ01  00002PRCP99
0186825780999992002061112004-05080-042820FM-12+009099999V0202701N001012200019N0100001N1+02531+02191101661ADDAA199000091GF102991011011008001031001KA1240N+02321MA1999999100631MD1999999-0071REMSYN076AAXX  11124 82578 32597 22702 10253 20219 30063 40166 81130 333 20232 59007;EQDQ01  00002PRCP99
0186825780999992002062712004-05080-042820FM-12+009099999V0201401N003610450019N0100001N1+02701+02031101841ADDAA199000091GF106991021011008001041021KA1240N+02321MA1999999100821MD1999999-0151REMSYN076AAXX  27124 82578 32597 61407 10270 20203 30082 40184 82142 333 20232 59015;EQDQ01  00002PRCP99
0180825780999992002071312004-05080-042820FM-12+009099999V0200501N001012200019N0100001N1+02751+02301101721ADDAA199000091GF101991999999999999999999KA1240N+02231MA1999999100701MD1999999-0041REMSYN070AAXX  13124 82578 32997 10502 10275 20230 30070 40172 333 20223 59004;EQDQ01  00002PRCP99
