0167825710999992002010118004-05500-045260FM-12+017499999V0203601N003110450019N0100001N1+03241+02331100941ADDAA199000091GF106991031021004501031011MA1999999099001MD1999999-0031REMSYN070AAXX  01184 82571 32497 63606 10324 20233 39900 40094 83231 333 59003;EQDQ01  00002PRCP99
0186825710999992002010212004-05500-045260FM-12+017499999V0203201N001010042019N0100001N1+02591+02441101401ADDAA199000091GF108991081051004501999999KA1240N+02531MA1999999099431MD1999999+0031REMSYN076AAXX  02124 82571 32497 83202 10259 20244 39943 40140 885// 333 20253 58003;EQDQ01  00002PRCP99
0167825710999992002010218004-05500-045260FM-12+017499999V0201401N001010042019N0100001N1+02741+02431101211ADDAA199000091GF108991081051004501999999MA1999999099241MD1999999+0241REMSYN070AAXX  02184 82571 32497 81402 10274 20243 39924 40121 885// 333 58024;EQDQ01  00002PRCP99
0167825710999992002010318004-05500-045260FM-12+017499999V0203601N001010450019N0100001N1+03001+02271101051ADDAA199000091GF106991031031004501031001MA1999999099091MD1999999-0151REMSYN070AAXX  03184 82571 32497 63602 10300 20227 39909 40105 83330 333 59015;EQDQ01  00002PRCP99
0198825710999992002010400004-05500-045260FM-12+017499999V0202301N001012200019N0100001N1+02611+02461101281ADDAA199000091GF102991021001017501031001KA1240M+03231MA1999999099311MD1999999-0841REMSYN088AAXX  04004 82571 32797 22302 10261 20246 39931 40128 82030 333 10323 59084 55037 59014;EQDQ01  00002PRCP99
0186825710999992002010412004-05500-045260FM-12+017499999V0202301N001010042019N0100001N1+02531+02441101651ADDAA199000091GF108991081051004501999999KA1240N+02441MA1999999099661MD1999999+0181REMSYN076AAXX  04124 82571 32497 82302 10253 20244 39966 40165 885// 333 20244 58018;EQDQ01  00002PRCP99
0182825710999992002010418004-05500-045260FM-12+017499999V0202701N001010450019N0100001N1+02891+02371101201ADDAA106002091AY161061AY221061GF106991041051004501031001MA1999999099241MD1999999+0151MW1021REMSYN082AAXX  04184 82571 21497 62702 10289 20237 39924 40120 70262 84530 333 58015 60021;
0208825710999992002010500004-05500-045260FM-12+017499999V0202301N001012200019N0100001N1+02681+02541101381ADDAA199000091GA1001+999999999GF100991001001999999001001KA1240M+02961MA1999999099411MD1999999+0101REMSYN082AAXX  05004 82571 32997 02302 10268 20254 39941 40138 333 10296 29088 55014 58010;EQDQ01  00002PRCP99
0193825710999992002010512004-05500-045260FM-12+017499999V0200501N001010042019N0100001N1+02441+02351101571ADDAA124006191AY161061GF108991081051004501999999KA1240N+02241MA1999999099591MD1999999-0071MW1021REMSYN088AAXX  05124 82571 21497 80502 10244 20235 39959 40157 7026/ 885// 333 20224 59007 60064;
0167825710999992002010518004-05500-045260FM-12+017499999V0200901N001010450019N0100001N1+03071+02471101101ADDAA199000091GF106991031031004501031011MA1999999099121MD1999999-0121REMSYN070AAXX  05184 82571 32497 60902 10307 20247 39912 40110 83331 333 59012;EQDQ01  00002PRCP99
0198825710999992002010600004-05500-045260FM-12+017499999V0202301N001010042019N0100001N1+02781+02561101361ADDAA199000091GF108991081051004501999999KA1240M+03251MA1999999099391MD1999999-0021REMSYN088AAXX  06004 82571 31497 82302 10278 20256 39939 40136 885// 333 10325 29085 55046 59002;EQDQ01  00002PRCP99
0182825710999992002010618004-05500-045260FM-12+017499999V0201401N001010042019N0100001N1+02491+02431101251ADDAA106033091AY161061AY221061GF108991081051004501999999MA1999999099271MD1999999+0151MW1611REMSYN082AAXX  06184 82571 21497 81402 10249 20243 39927 40125 76162 885// 333 58015 60331;
0205825710999992002010700004-05500-045260FM-12+017499999V0201401N001010042019N0040001N1+02301+02231101501ADDAA106002091AY161061GF108991081071004501999999KA1240M+02791MA1999999099501MD1999999+0111MW1021REMSYN100AAXX  07004 82571 21496 81402 10230 20223 39950 40150 7026/ 887// 333 10279 29096 55000 58011 60021;
0193825710999992002010712004-05500-045260FM-12+017499999V0202301N001010042019N0100001N1+02371+02311101541ADDAA124038191AY161061GF108991081051004501999999KA1240N+02251MA1999999099541MD1999999+0001MW1021REMSYN088AAXX  07124 82571 21497 82302 10237 20231 39954 40154 7026/ 885// 333 20225 58000 60384;
0167825710999992002010718004-05500-045260FM-12+017499999V0203201N001010450019N0100001N1+03011+02391101021ADDAA199000091GF106991041021004501031001MA1999999099051MD1999999-0211REMSYN070AAXX  07184 82571 32497 63202 10301 20239 39905 40102 84230 333 59021;EQDQ01  00002PRCP99
0213825710999992002010800004-05500-045260FM-12+017499999V0209999C000012200019N0100001N1+02551+02441101281ADDAA106000191AY161061AY221061GF104991041081004501001001KA1240M+03051MA1999999099291MD1999999-0211MW1021REMSYN100AAXX  08004 82571 21497 40000 10255 20244 39929 40128 70262 84800 333 10305 29088 55021 59021 69911;
0193825710999992002010812004-05500-045260FM-12+017499999V0200901N001010450019N0100001N1+02391+02371101431ADDAA124006191AY161061GF108991031071004501021999KA1240N+02371MA1999999099441MD1999999-0101MW1611REMSYN088AAXX  08124 82571 21497 80902 10239 20237 39944 40143 7616/ 8372/ 333 20237 59010 60064;
0174825710999992002010818004-05500-045260FM-12+017499999V0200501N001010450019N0100001N1+02331+02271101171ADDAA106022191AY161061GF108991031071004501021999MA1999999099181MD1999999+0121MW1611REMSYN082AAXX  08184 82571 21497 80502 10233 20227 39918 40117 7616/ 8372/ 333 58012 60221;
0205825710999992002010900004-05500-045260FM-12+017499999V0209999C000010450019N0040001N1+02371+02311101511ADDAA106001091AY161061GF108991041071004501021999KA1240M+02551MA1999999099521MD1999999+0231MW1611REMSYN100AAXX  09004 82571 21496 80000 10237 20231 39952 40151 7616/ 8472/ 333 10255 29096 55000 58023 60011;
0193825710999992002010912004-05500-045260FM-12+017499999V0201801N001010042019N0100001N1+02331+02261101661ADDAA124025991AY161061GF108991081051004501999999KA1240N+02261MA1999999099661MD1999999+0221MW1601REMSYN088AAXX  09124 82571 21497 81802 10233 20226 39966 40166 7606/ 885// 333 20226 58022 60264;
0148825710999992002010918004-05500-045260FM-12+017499999V0201801N001010042019N0100001N1+02791+02341101241ADDAA199000021GF107991051021004501031001MA1999999099261MD1999999+0081REMSYN070AAXX  09184 82571 32497 71802 10279 20234 39926 40124 85230 333 58008;
0179825710999992002011000004-05500-045260FM-12+017499999V0200501N002112200019N0100001N1+02391+02261101491ADDAA199000021GF104991021021004501031001KA1240M+02871MA1999999099491MD1999999-0031REMSYN088AAXX  10004 82571 32497 40504 10239 20226 39949 40149 82230 333 10287 29089 55016 59003;
0186825710999992002011012004-05500-045260FM-12+017499999V0201401N001010450019N0100001N1+02611+02351101581ADDAA199000091GF106991041021004501031001KA1240N+02351MA1999999099591MD1999999-0071REMSYN076AAXX  10124 82571 32497 61402 10261 20235 39959 40158 84230 333 20235 59007;EQDQ01  00002PRCP99
0167825710999992002011018004-05500-045260FM-12+017499999V0201401N001010090019N0100001N1+02831+02331101201ADDAA199000091GF106991061081004501001001MA1999999099231MD1999999-0031REMSYN070AAXX  10184 82571 32497 61402 10283 20233 39923 40120 86800 333 59003;EQDQ01  00002PRCP99
0193825710999992002011112004-05500-045260FM-12+017499999V0202301N001010042019N0100001N1+02311+02271101791ADDAA124009991AY161061GF108991081051004501999999KA1240N+02261MA1999999099791MD1999999+0201MW1021REMSYN088AAXX  11124 82571 21497 82302 10231 20227 39979 40179 7026/ 885// 333 20226 58020 60104;
0182825710999992002011118004-05500-045260FM-12+017499999V0200901N001010042019N0100001N1+02511+02331101471ADDAA106003091AY161061AY221061GF107991061051004501041001MA1999999099481MD1999999+0251MW1611REMSYN082AAXX  11184 82571 21497 70902 10251 20233 39948 40147 76162 86540 333 58025 60031;
0179825710999992002011200004-05500-045260FM-12+017499999V0202301N002112200019N0100001N1+02391+02351101591ADDAA199000021GF103991011021004501041001KA1240M+02711MA1999999099591MD1999999-0021REMSYN088AAXX  12004 82571 32497 32304 10239 20235 39959 40159 81240 333 10271 29095 55003 59002;
0193825710999992002011212004-05500-045260FM-12+017499999V0202301N001010042019N0100001N1+02311+02271101781ADDAA124006191AY161061GF108991081051004501999999KA1240N+02241MA1999999099781MD1999999-0011MW1021REMSYN088AAXX  12124 82571 21497 82302 10231 20227 39978 40178 7026/ 885// 333 20224 59001 60064;
0182825710999992002011218004-05500-045260FM-12+017499999V0200501N001010450019N0100001N1+02931+02431101431ADDAA106000191AY161061AY211061GF105991031031004501031011MA1999999099431MD1999999-0051MW1011REMSYN082AAXX  12184 82571 21497 50502 10293 20243 39943 40143 70161 83331 333 59005 69911;
0201825710999992002011312004-05500-045260FM-12+017499999V0200501N001010450019N0100001N1+02171+02111101811ADDAA124042991AY191061AY261061GF108991031071004501021999KA1240N+02151MA1999999099811MD1999999+0031MW1611REMSYN088AAXX  13124 82571 21497 80502 10217 20211 39981 40181 76196 8372/ 333 20215 58003 60434;
0182825710999992002011318004-05500-045260FM-12+017499999V0201401N001010042019N0100001N1+02591+02351101301ADDAA106004191AY161061AY221061GF107991061051004501041001MA1999999099321MD1999999-0111MW1021REMSYN082AAXX  13184 82571 21497 71402 10259 20235 39932 40130 70262 86540 333 59011 60041;
0191825710999992002011400004-05500-045260FM-12+017499999V0209999C000012200019N0100001N1+02491+02411101491ADDAA199000021GF101991011031004501001001KA1240M+02781MA1999999099491MD1999999+0021MW1131REMSYN094AAXX  14004 82571 31497 10000 10249 20241 39949 40149 713// 81300 333 10278 29093 55020 58002;
0201825710999992002011412004-05500-045260FM-12+017499999V0201401N001010042019N0100001N1+02451+02361101551ADDAA124005191AY191061AY261061GF107991071051004501001001KA1240N+02201MA1999999099561MD1999999-0251MW1021REMSYN088AAXX  14124 82571 21497 71402 10245 20236 39956 40155 70296 87500 333 20220 59025 60054;
0167825710999992002011418004-05500-045260FM-12+017499999V0200501N002110450019N0100001N1+03091+02261100981ADDAA199000091GF105991031021004501011011MA1999999099021MD1999999-0301REMSYN070AAXX  14184 82571 32497 50504 10309 20226 39902 40098 83211 333 59030;EQDQ01  00002PRCP99
0197825710999992002011500004-05500-045260FM-12+017499999V0203201N002112200019N0100001N1+02671+02461101311ADDAA106002091GF104991041051004501001001KA1240M+03191MA1999999099331MD1999999-0161MW1611REMSYN100AAXX  15004 82571 21497 43204 10267 20246 39933 40131 761// 84500 333 10319 29083 55065 59016 60021;
0193825710999992002011512004-05500-045260FM-12+017499999V0202301N001010450019N0100001N1+02571+02371101371ADDAA124002091AY161061GF106991041021004501041011KA1240N+02361MA1999999099401MD1999999-0161MW1011REMSYN088AAXX  15124 82571 21497 62302 10257 20237 39940 40137 7016/ 84241 333 20236 59016 60024;
0213825710999992002011600004-05500-045260FM-12+017499999V0202301N001012200019N0100001N1+02371+02351101231ADDAA106002091AY191061AY261061GF102991021021004501001001KA1240M+02741MA1999999099251MD1999999-0081MW1131REMSYN100AAXX  16004 82571 21497 22302 10237 20235 39925 40123 71396 82200 333 10274 29094 55008 59008 60021;
0193825710999992002011612004-05500-045260FM-12+017499999V0202701N001010090019N0100001N1+02351+02281101421ADDAA124033091AY161061GF107991071081004501001001KA1240N+02161MA1999999099421MD1999999+0021MW1601REMSYN088AAXX  16124 82571 21497 72702 10235 20228 39942 40142 7606/ 87800 333 20216 58002 60334;
0148825710999992002011618004-05500-045260FM-12+017499999V0203201N001010450019N0100001N1+02911+02271100991ADDAA199000021GF106991041021004501041001MA1999999099001MD1999999-0071REMSYN070AAXX  16184 82571 32497 63202 10291 20227 39900 40099 84240 333 59007;
0191825710999992002011700004-05500-045260FM-12+017499999V0203201N001012200019N0100001N1+02551+02361101231ADDAA199000021GF102991011031004501011001KA1240M+03041MA1999999099251MD1999999+0001MW1131REMSYN094AAXX  17004 82571 31497 23202 10255 20236 39925 40123 713// 81310 333 10304 29085 55019 58000;
0201825710999992002011712004-05500-045260FM-12+017499999V0202701N001010042019N0100001N1+02271+02231101501ADDAA124042991AY161061AY221061GF108991081051004501999999KA1240N+02181MA1999999099511MD1999999+0091MW1021REMSYN088AAXX  17124 82571 21497 82702 10227 20223 39951 40150 70262 885// 333 20218 58009 60434;
0167825710999992002011718004-05500-045260FM-12+017499999V0201401N001010450019N0100001N1+03131+02401101021ADDAA199000091GF105991031021004501031001MA1999999099061MD1999999+0061REMSYN070AAXX  17184 82571 32497 51402 10313 20240 39906 40102 83230 333 58006;EQDQ01  00002PRCP99
0213825710999992002011800004-05500-045260FM-12+017499999V0200501N002112200019N0100001N1+02471+02301101301ADDAA106010991AY161061AY211061GF104991041021004501001001KA1240M+03221MA1999999099311MD1999999+0061MW1131REMSYN100AAXX  18004 82571 21497 40504 10247 20230 39931 40130 71361 84200 333 10322 29086 55055 58006 60111;
0193825710999992002011812004-05500-045260FM-12+017499999V0201401N001010450019N0100001N1+02331+02291101531ADDAA124040991AY161061GF108991031071004501021999KA1240N+02281MA1999999099541MD1999999+0031MW1611REMSYN088AAXX  18124 82571 21497 81402 10233 20229 39954 40153 7616/ 8372/ 333 20228 58003 60414;
0182825710999992002011818004-05500-045260FM-12+017499999V0201401N001010450019N0100001N1+02761+02321101161ADDAA106000191AY161061AY221061GF106991031021004501011001MA1999999099181MD1999999+0121MW1011REMSYN082AAXX  18184 82571 21497 61402 10276 20232 39918 40116 70162 83210 333 58012 69911;
0179825710999992002011900004-05500-045260FM-12+017499999V0209999C000012200019N0100001N1+02551+02461101291ADDAA199000021GF103991031001017501071001KA1240M+02811MA1999999099301MD1999999-0011REMSYN088AAXX  19004 82571 32797 30000 10255 20246 39930 40129 83070 333 10281 29090 55011 59001;
0193825710999992002011912004-05500-045260FM-12+017499999V0203201N001010042019N0100001N1+02531+02441101401ADDAA124000191AY141061GF106991051051004501031001KA1240N+02321MA1999999099421MD1999999-0121MW1011REMSYN088AAXX  19124 82571 21497 63202 10253 20244 39942 40140 7014/ 85530 333 20232 59012 69914;
0167825710999992002011918004-05500-045260FM-12+017499999V0201401N001012200019N0100001N1+03121+02301100891ADDAA199000091GF103991031021004501001001MA1999999098941MD1999999-0241REMSYN070AAXX  19184 82571 32497 31402 10312 20230 39894 40089 83200 333 59024;EQDQ01  00002PRCP99
0205825710999992002012000004-05500-045260FM-12+017499999V0202701N004110042019N0100001N1+02521+02331101331ADDAA106000191AY191061GF108991081051004501999999KA1240M+03231MA1999999099351MD1999999+0051MW1951REMSYN100AAXX  20004 82571 21497 82708 10252 20233 39935 40133 7959/ 885// 333 10323 29084 55074 58005 69911;
0201825710999992002012012004-05500-045260FM-12+017499999V0202301N001010042019N0100001N1+02271+02211101621ADDAA124022191AY191061AY261061GF108991081051004501999999KA1240N+02141MA1999999099621MD1999999+0201MW1021REMSYN088AAXX  20124 82571 21497 82302 10227 20221 39962 40162 70296 885// 333 20214 58020 60224;
0167825710999992002012018004-05500-045260FM-12+017499999V0201401N001010042019N0100001N1+02971+02441101201ADDAA199000091GF106991051051004501041001MA1999999099231MD1999999+0291REMSYN070AAXX  20184 82571 32497 61402 10297 20244 39923 40120 85540 333 58029;EQDQ01  00002PRCP99
0213825710999992002012100004-05500-045260FM-12+017499999V0209999C000012200019N0100001N1+02571+02491101401ADDAA106000891AY161061AY211061GF102991021001004501041001KA1240M+03021MA1999999099411MD1999999+0061MW1021REMSYN100AAXX  21004 82571 21497 20000 10257 20249 39941 40140 70261 82040 333 10302 29090 55033 58006 69971;
0193825710999992002012112004-05500-045260FM-12+017499999V0202701N001012200019N0100001N1+02641+02391101671ADDAA124013091AY161061GF103991021021004501041001KA1240N+02261MA1999999099691MD1999999+0071MW1011REMSYN088AAXX  21124 82571 21497 32702 10264 20239 39969 40167 7016/ 82240 333 20226 58007 60134;
0167825710999992002012118004-05500-045260FM-12+017499999V0202701N001011050019N0100001N1+03191+02381101201ADDAA199000091GF105991021021004501011011MA1999999099251MD1999999+0021REMSYN070AAXX  21184 82571 32497 52702 10319 20238 39925 40120 82211 333 58002;EQDQ01  00002PRCP99
0226825710999992002012200004-05500-045260FM-12+017499999V0202301N001012200019N0100001N1+02551+02421101541ADDAA199000091AY191061AY201061GF102991021001017501041001KA1240M+03271MA1999999099561MD1999999+0151MW1131REMSYN094AAXX  22004 82571 31797 22302 10255 20242 39956 40154 71390 82040 333 10327 29083 55091 58015;EQDQ01  00002PRCP99
0201825710999992002012212004-05500-045260FM-12+017499999V0201401N001011050019N0100001N1+02311+02161101801ADDAA124050091AY191061AY261061GF105991021021004501041011KA1240N+02101MA1999999099801MD1999999+0111MW1011REMSYN088AAXX  22124 82571 21497 51402 10231 20216 39980 40180 70196 82241 333 20210 58011 60504;
0167825710999992002012218004-05500-045260FM-12+017499999V0200501N002112200019N0100001N1+03031+02381101391ADDAA199000091GF104991021021004501011011MA1999999099421MD1999999+0171REMSYN070AAXX  22184 82571 32497 40504 10303 20238 39942 40139 82211 333 58017;EQDQ01  00002PRCP99
0213825710999992002012300004-05500-045260FM-12+017499999V0209999C000012200019N0100001N1+02271+02211101671ADDAA106006191AY191061AY261061GF103991031001004501041001KA1240M+03101MA1999999099661MD1999999+0101MW1011REMSYN100AAXX  23004 82571 21497 30000 10227 20221 39966 40167 70196 83040 333 10310 29088 55078 58010 60061;
0173825710999992002012312004-05500-045260FM-12+017499999V0202301N001010042019N0100001N1+02291+02231101701ADDAA124006191GF107991051021004501031011KA1240N+02101MA1999999099691MD1999999-0111REMSYN082AAXX  23124 82571 22497 72302 10229 20223 39969 40170 85231 333 20210 59011 60064;
0167825710999992002012318004-05500-045260FM-12+017499999V0200501N003112200019N0100001N1+03071+02351101341ADDAA199000091GF104991021021004501011011MA1999999099371MD1999999-0051REMSYN070AAXX  23184 82571 32497 40506 10307 20235 39937 40134 82211 333 59005;EQDQ01  00002PRCP99
0198825710999992002012400004-05500-045260FM-12+017499999V0209999C000012200019N0100001N1+02671+02461101471ADDAA199000091GF102991021001017501011001KA1240M+03151MA1999999099481MD1999999-0181REMSYN088AAXX  24004 82571 32797 20000 10267 20246 39948 40147 82010 333 10315 29084 55071 59018;EQDQ01  00002PRCP99
0186825710999992002012412004-05500-045260FM-12+017499999V0200501N001010042019N0100001N1+02511+02381101641ADDAA199000091GF107991071051004501001001KA1240N+02291MA1999999099661MD1999999-0031REMSYN076AAXX  24124 82571 32497 70502 10251 20238 39966 40164 87500 333 20229 59003;EQDQ01  00002PRCP99
0182825710999992002012418004-05500-045260FM-12+017499999V0200901N002112200019N0100001N1+03031+02281101191ADDAA106000391AY161061AY211061GF104991031021004501011011MA1999999099231MD1999999-0141MW1011REMSYN082AAXX  24184 82571 21497 40904 10303 20228 39923 40119 70161 83211 333 59014 69931;
0198825710999992002012500004-05500-045260FM-12+017499999V0209999C000012200019N0100001N1+02611+02441101371ADDAA199000091GF104991041001017501051001KA1240M+03101MA1999999099391MD1999999-0091REMSYN088AAXX  25004 82571 32797 40000 10261 20244 39939 40137 84050 333 10310 29084 55054 59009;EQDQ01  00002PRCP99
0173825710999992002012512004-05500-045260FM-12+017499999V0200901N001012200019N0100001N1+02521+02361101621ADDAA124000391GF104991021021004501031001KA1240N+02331MA1999999099641MD1999999-0021REMSYN082AAXX  25124 82571 22497 40902 10252 20236 39964 40162 82230 333 20233 59002 69934;
0167825710999992002012518004-05500-045260FM-12+017499999V0200501N003112200019N0100001N1+03101+02341101151ADDAA199000091GF104991021021004501011011MA1999999099201MD1999999-0031REMSYN070AAXX  25184 82571 32497 40506 10310 20234 39920 40115 82211 333 59003;EQDQ01  00002PRCP99
0198825710999992002012600004-05500-045260FM-12+017499999V0201801N001012200019N0100001N1+02621+02411101451ADDAA199000091GF103991031001017501041001KA1240M+03201MA1999999099471MD1999999+0081REMSYN088AAXX  26004 82571 32797 31802 10262 20241 39947 40145 83040 333 10320 29083 55076 58008;EQDQ01  00002PRCP99
0201825710999992002012612004-05500-045260FM-12+017499999V0203601N001010042019N0100001N1+02571+02441101631ADDAA124002091AY161061AY201061GF107991061051004501011001KA1240N+02411MA1999999099651MD1999999+0011MW1031REMSYN088AAXX  26124 82571 21497 73602 10257 20244 39965 40163 70360 86510 333 20241 58001 60024;
0167825710999992002012618004-05500-045260FM-12+017499999V0200901N003112200019N0100001N1+03141+02401101121ADDAA199000091GF104991011021004501011011MA1999999099171MD1999999-0031REMSYN070AAXX  26184 82571 32497 40906 10314 20240 39917 40112 81211 333 59003;EQDQ01  00002PRCP99
0213825710999992002012700004-05500-045260FM-12+017499999V0209999C000012200019N0100001N1+02641+02481101411ADDAA106002091AY161061AY211061GF102991011021004501011001KA1240M+03191MA1999999099441MD1999999-0031MW1011REMSYN100AAXX  27004 82571 21497 20000 10264 20248 39944 40141 70161 81210 333 10319 29084 55073 59003 60021;
0173825710999992002012712004-05500-045260FM-12+017499999V0200901N002112200019N0100001N1+02551+02271101581ADDAA124002091GF102991021021004501001001KA1240N+02231MA1999999099601MD1999999-0051REMSYN082AAXX  27124 82571 22497 20904 10255 20227 39960 40158 82200 333 20223 59005 60024;
0167825710999992002012718004-05500-045260FM-12+017499999V0200901N003112200019N0100001N1+03201+02301101101ADDAA199000091GF103991031021004501001001MA1999999099151MD1999999-0021REMSYN070AAXX  27184 82571 32497 30906 10320 20230 39915 40110 83200 333 59002;EQDQ01  00002PRCP99
0210825710999992002012800004-05500-045260FM-12+017499999V0209999C000012200019N0100001N1+02721+02451101241ADDAA199000091GF101991011031004501001001KA1240M+03201MA1999999099271MD1999999-0171MW1131REMSYN094AAXX  28004 82571 31497 10000 10272 20245 39927 40124 713// 81300 333 10320 29078 55102 59017;EQDQ01  00002PRCP99
0186825710999992002012812004-05500-045260FM-12+017499999V0200501N002112200019N0100001N1+02631+02351101471ADDAA199000091GF104991031021004501031001KA1240N+02241MA1999999099501MD1999999-0101REMSYN076AAXX  28124 82571 32497 40504 10263 20235 39950 40147 83230 333 20224 59010;EQDQ01  00002PRCP99
0167825710999992002012818004-05500-045260FM-12+017499999V0200501N001012200019N0100001N1+03161+02421101041ADDAA199000091GF103991021021004501011001MA1999999099091MD1999999-0061REMSYN070AAXX  28184 82571 32497 30502 10316 20242 39909 40104 82210 333 59006;EQDQ01  00002PRCP99
0210825710999992002012900004-05500-045260FM-12+017499999V0209999C000012200019N0100001N1+02811+02541101181ADDAA199000091GF103991011031004501041001KA1240M+03251MA1999999099221MD1999999-0051MW1131REMSYN094AAXX  29004 82571 31497 30000 10281 20254 39922 40118 713// 81340 333 10325 29080 55102 59005;EQDQ01  00002PRCP99
0186825710999992002012912004-05500-045260FM-12+017499999V0200501N003112200019N0100001N1+02681+02311101451ADDAA199000091GF103991031021004501001001KA1240N+02391MA1999999099491MD1999999-0011REMSYN076AAXX  29124 82571 32497 30506 10268 20231 39949 40145 83200 333 20239 59001;EQDQ01  00002PRCP99
0167825710999992002012918004-05500-045260FM-12+017499999V0200501N002112200019N0100001N1+03171+02311101021ADDAA199000091GF103991031021004501001001MA1999999099081MD1999999-0011REMSYN070AAXX  29184 82571 32497 30504 10317 20231 39908 40102 83200 333 59001;EQDQ01  00002PRCP99
0220825710999992002013000004-05500-045260FM-12+017499999V0200501N001012200019N0100001N1+02641+02371101251ADDAA199000091GA1001+999999999GF100991001001999999001001KA1240M+03251MA1999999099281MD1999999+0061MW1131REMSYN088AAXX  30004 82571 31997 00502 10264 20237 39928 40125 713// 333 10325 29078 55090 58006;EQDQ01  00002PRCP99
0186825710999992002013012004-05500-045260FM-12+017499999V0203601N002112200019N0100001N1+02611+02371101441ADDAA199000091GF103991031021004501001001KA1240N+02291MA1999999099461MD1999999-0031REMSYN076AAXX  30124 82571 32497 33604 10261 20237 39946 40144 83200 333 20229 59003;EQDQ01  00002PRCP99
0167825710999992002013018004-05500-045260FM-12+017499999V0200501N002112200019N0100001N1+03291+02331101061ADDAA199000091GF104991031021004501011001MA1999999099121MD1999999+0041REMSYN070AAXX  30184 82571 32497 40504 10329 20233 39912 40106 83210 333 58004;EQDQ01  00002PRCP99
0210825710999992002013100004-05500-045260FM-12+017499999V0200901N001012200019N0100001N1+02791+02361101141ADDAA199000091GF102991011031004501041001KA1240M+03371MA1999999099181MD1999999-0101MW1131REMSYN094AAXX  31004 82571 31497 20902 10279 20236 39918 40114 713// 81340 333 10337 29074 55103 59010;EQDQ01  00002PRCP99
0186825710999992002013112004-05500-045260FM-12+017499999V0200501N002110042019N0100001N1+02641+02411101431ADDAA199000091GF106991061051004501001001KA1240N+02341MA1999999099461MD1999999+0001REMSYN076AAXX  31124 82571 32497 60504 10264 20241 39946 40143 86500 333 20234 58000;EQDQ01  00002PRCP99
0167825710999992002013118004-05500-045260FM-12+017499999V0200901N002110450019N0100001N1+03041+02431101031ADDAA199000091GF106991021021004501071001MA1999999099081MD1999999-0041REMSYN070AAXX  31184 82571 32497 60904 10304 20243 39908 40103 82270 333 59004;EQDQ01  00002PRCP99
0210825710999992002020100004-05500-045260FM-12+017499999V0202301N001012200019N0100001N1+02771+02561101211ADDAA199000091GF102991021001017501031001KA1240M+03171MA1999999099251MD1999999+0071MW1131REMSYN094AAXX  01004 82571 31797 22302 10277 20256 39925 40121 713// 82030 333 10317 29083 55032 58007;EQDQ01  00002PRCP99
0201825710999992002020112004-05500-045260FM-12+017499999V0200901N002110450019N0100001N1+02611+02331101481ADDAA124013091AY191061AY261061GF106991021021004501031011KA1240N+02321MA1999999099511MD1999999+0051MW1011REMSYN088AAXX  01124 82571 21497 60904 10261 20233 39951 40148 70196 82231 333 20232 58005 60134;
0166825710999992002020118004-05500-045260FM-12+017499999V0201401N001010450019N0100001N1+02841+02381101151ADDAA106002091GF106991031051004501041001MA1999999099191MD1999999+0111MW1951REMSYN082AAXX  01184 82571 21497 61402 10284 20238 39919 40115 795// 83540 333 58011 60021;
0191825710999992002020200004-05500-045260FM-12+017499999V0203601N001012200019N0100001N1+02421+02211101451ADDAA199000021GF103991031001017501011001KA1240M+03181MA1999999099461MD1999999+0211MW1131REMSYN094AAXX  02004 82571 31797 33602 10242 20221 39946 40145 713// 83010 333 10318 29084 55069 58021;
0173825710999992002020212004-05500-045260FM-12+017499999V0200501N001010090019N0100001N1+02491+02211101451ADDAA124002091GF107991071081004501001001KA1240N+02261MA1999999099461MD1999999-0051REMSYN082AAXX  02124 82571 22497 70502 10249 20221 39946 40145 87800 333 20226 59005 60024;
0167825710999992002020218004-05500-045260FM-12+017499999V0200501N002112200019N0100001N1+03061+02301101221ADDAA199000091GF104991021021004501031001MA1999999099261MD1999999+0071REMSYN070AAXX  02184 82571 32497 40504 10306 20230 39926 40122 82230 333 58007;EQDQ01  00002PRCP99
0186825710999992002020300004-05500-045260FM-12+017499999V0200501N003110042019N0100001N1+02551+02381101551ADDAA199000091GF108991081051004501999999KA1240N+02431MA1999999099581MD1999999+0121REMSYN076AAXX  03004 82571 32497 80506 10255 20238 39958 40155 885// 333 20243 58012;EQDQ01  00002PRCP99
0186825710999992002020312004-05500-045260FM-12+017499999V0200501N003110042019N0100001N1+02551+02381101551ADDAA199000091GF108991081051004501999999KA1240N+02431MA1999999099581MD1999999+0121REMSYN076AAXX  03124 82571 32497 80506 10255 20238 39958 40155 885// 333 20243 58012;EQDQ01  00002PRCP99
0167825710999992002020318004-05500-045260FM-12+017499999V0200501N004112200019N0100001N1+03061+02211101151ADDAA199000091GF103991011021004501011011MA1999999099201MD1999999-0061REMSYN070AAXX  03184 82571 32497 30508 10306 20221 39920 40115 81211 333 59006;EQDQ01  00002PRCP99
0198825710999992002020400004-05500-045260FM-12+017499999V0200501N001012200019N0100001N1+02641+02311101331ADDAA199000091GF102991021021004501001001KA1240M+03131MA1999999099361MD1999999+0011REMSYN088AAXX  04004 82571 32497 20502 10264 20231 39936 40133 82200 333 10313 29078 55071 58001;EQDQ01  00002PRCP99
0186825710999992002020412004-05500-045260FM-12+017499999V0200501N003112200019N0100001N1+02621+02311101511ADDAA199000091GF102991011021004501031001KA1240N+02311MA1999999099541MD1999999-0041REMSYN076AAXX  04124 82571 32497 20506 10262 20231 39954 40151 81230 333 20231 59004;EQDQ01  00002PRCP99
0167825710999992002020418004-05500-045260FM-12+017499999V0201401N002112200019N0100001N1+03101+02261101131ADDAA199000091GF103991021021008001001011MA1999999099181MD1999999-0021REMSYN070AAXX  04184 82571 32597 31404 10310 20226 39918 40113 82201 333 59002;EQDQ01  00002PRCP99
0198825710999992002020500004-05500-045260FM-12+017499999V0203601N003112200019N0100001N1+02651+02411101371ADDAA199000091GF101991011021004501001001KA1240M+03181MA1999999099401MD1999999+0041REMSYN088AAXX  05004 82571 32497 13606 10265 20241 39940 40137 81200 333 10318 29079 55090 58004;EQDQ01  00002PRCP99
0186825710999992002020512004-05500-045260FM-12+017499999V0200501N001012200019N0100001N1+02691+02391101541ADDAA199000091GF103991031021004501001001KA1240N+02351MA1999999099571MD1999999+0031REMSYN076AAXX  05124 82571 32497 30502 10269 20239 39957 40154 83200 333 20235 58003;EQDQ01  00002PRCP99
0167825710999992002020518004-05500-045260FM-12+017499999V0200501N001010450019N0100001N1+03051+02221101231ADDAA199000091GF106991041021004501011011MA1999999099271MD1999999+0091REMSYN070AAXX  05184 82571 32497 60502 10305 20222 39927 40123 84211 333 58009;EQDQ01  00002PRCP99
0208825710999992002020600004-05500-045260FM-12+017499999V0209999C000012200019N0100001N1+02691+02331101411ADDAA199000091GA1001+999999999GF100991001001999999001001KA1240M+03181MA1999999099441MD1999999+0041REMSYN082AAXX  06004 82571 32997 00000 10269 20233 39944 40141 333 10318 29076 55084 58004;EQDQ01  00002PRCP99
0186825710999992002020612004-05500-045260FM-12+017499999V0200901N001010042019N0100001N1+02541+02311101611ADDAA199000091GF107991071051004501001001KA1240N+02261MA1999999099631MD1999999+0061REMSYN076AAXX  06124 82571 32497 70902 10254 20231 39963 40161 87500 333 20226 58006;EQDQ01  00002PRCP99
0167825710999992002020618004-05500-045260FM-12+017499999V0201401N002110450019N0100001N1+02911+02361101241ADDAA199000091GF107991031021004501011001MA1999999099281MD1999999+0011REMSYN070AAXX  06184 82571 32497 71404 10291 20236 39928 40124 83210 333 58001;EQDQ01  00002PRCP99
0167825710999992002020718004-05500-045260FM-12+017499999V0200901N002110450019N0100001N1+03061+02301101021ADDAA199000091GF105991031021004501031001MA1999999099061MD1999999-0221REMSYN070AAXX  07184 82571 32497 50904 10306 20230 39906 40102 83230 333 59022;EQDQ01  00002PRCP99
0210825710999992002020800004-05500-045260FM-12+017499999V0201401N001012200019N0100001N1+02681+02351101221ADDAA199000091GF101991011001017501041001KA1240M+03151MA1999999099251MD1999999-0171MW1131REMSYN094AAXX  08004 82571 31797 11402 10268 20235 39925 40122 713// 81040 333 10315 29077 55/// 59017;EQDQ01  00002PRCP99
0186825710999992002020812004-05500-045260FM-12+017499999V0202301N001010450019N0100001N1+02671+02371101461ADDAA199000091GF106991031021004501031011KA1240N+02361MA1999999099491MD1999999-0031REMSYN076AAXX  08124 82571 32497 62302 10267 20237 39949 40146 83231 333 20236 59003;EQDQ01  00002PRCP99
0167825710999992002020818004-05500-045260FM-12+017499999V0201401N001012200019N0100001N1+03111+02361101111ADDAA199000091GF104991031021004501001011MA1999999099161MD1999999+0101REMSYN070AAXX  08184 82571 32497 41402 10311 20236 39916 40111 83201 333 58010;EQDQ01  00002PRCP99
0213825710999992002020900004-05500-045260FM-12+017499999V0209999C000010042019N0100001N1+02471+02271101361ADDAA106002091AY161061AY221061GF108991081051004501999999KA1240M+03201MA1999999099381MD1999999+0131MW1021REMSYN100AAXX  09004 82571 21497 80000 10247 20227 39938 40136 70262 885// 333 10320 29081 55/// 58013 60021;
0173825710999992002020912004-05500-045260FM-12+017499999V0203601N001010042019N0100001N1+02391+02241101761ADDAA124002091GF108991081001004501021999KA1240N+02301MA1999999099761MD1999999+0271REMSYN082AAXX  09124 82571 22497 83602 10239 20224 39976 40176 8802/ 333 20230 58027 60024;
0167825710999992002020918004-05500-045260FM-12+017499999V0203201N001010450019N0100001N1+02631+02251101531ADDAA199000091GF108991041031004501041999MA1999999099541MD1999999+0381REMSYN070AAXX  09184 82571 32497 83202 10263 20225 39954 40153 8434/ 333 58038;EQDQ01  00002PRCP99
0198825710999992002021000004-05500-045260FM-12+017499999V0209999C000010042019N0100001N1+02451+02371101481ADDAA199000091GF108991081051004501999999KA1240M+02781MA1999999099491MD1999999+0111REMSYN088AAXX  10004 82571 32497 80000 10245 20237 39949 40148 885// 333 10278 29090 55/// 58011;EQDQ01  00002PRCP99
0186825710999992002021012004-05500-045260FM-12+017499999V0200501N001010450019N0100001N1+02431+02301101661ADDAA199000091GF106991021051004501031011KA1240N+02231MA1999999099671MD1999999-0091REMSYN076AAXX  10124 82571 32497 60502 10243 20230 39967 40166 82531 333 20223 59009;EQDQ01  00002PRCP99
0167825710999992002021018004-05500-045260FM-12+017499999V0200501N001012200019N0100001N1+03071+02191101161ADDAA199000091GF103991021021004501001011MA1999999099201MD1999999-0341REMSYN070AAXX  10184 82571 32497 30502 10307 20219 39920 40116 82201 333 59034;EQDQ01  00002PRCP99
0210825710999992002021100004-05500-045260FM-12+017499999V0202301N001010042019N0100001N1+02671+02411101361ADDAA199000091GF108991081051004501999999KA1240M+03171MA1999999099381MD1999999-0111MW1131REMSYN094AAXX  11004 82571 31497 82302 10267 20241 39938 40136 713// 885// 333 10317 29080 55/// 59011;EQDQ01  00002PRCP99
0201825710999992002021112004-05500-045260FM-12+017499999V0200501N001012200019N0100001N1+02551+02271101481ADDAA124000591AY161061AY211061GF103991021021004501031001KA1240N+02281MA1999999099501MD1999999-0171MW1011REMSYN088AAXX  11124 82571 21497 30502 10255 20227 39950 40148 70161 82230 333 20228 59017 69954;
0167825710999992002021118004-05500-045260FM-12+017499999V0200501N001010450019N0100001N1+03131+02301101111ADDAA199000091GF105991031021004501031011MA1999999099161MD1999999-0041REMSYN070AAXX  11184 82571 32497 50502 10313 20230 39916 40111 83231 333 59004;EQDQ01  00002PRCP99
0208825710999992002021200004-05500-045260FM-12+017499999V0203201N001012200019N0100001N1+02661+02461101331ADDAA199000091GA1001+999999999GF100991001001999999001001KA1240M+03241MA1999999099361MD1999999-0021REMSYN082AAXX  12004 82571 32497 03202 10266 20246 39936 40133 333 10324 29081 55/// 59002;EQDQ01  00002PRCP99
0193825710999992002021212004-05500-045260FM-12+017499999V0203601N001010042019N0100001N1+02251+02191101711ADDAA124009991AY161061GF108991081051004501999999KA1240N+02211MA1999999099721MD1999999+0221MW1611REMSYN088AAXX  12124 82571 21497 83602 10225 20219 39972 40171 7616/ 885// 333 20221 58022 60104;
0148825710999992002021218004-05500-045260FM-12+017499999V0202701N001010450019N0100001N1+02771+02301101401ADDAA199000021GF106991031051004501031011MA1999999099431MD1999999+0271REMSYN070AAXX  12184 82571 32497 62702 10277 20230 39943 40140 83531 333 58027;
0189825710999992002021300004-05500-045260FM-12+017499999V0200501N001012200019N0100001N1+02471+02361101481ADDAA199000021GA1001+999999999GF100991001001999999001001KA1240M+02851MA1999999099481MD1999999+0121REMSYN082AAXX  13004 82571 32997 00502 10247 20236 39948 40148 333 10285 29089 55/// 58012;
0193825710999992002021312004-05500-045260FM-12+017499999V0201801N001010042019N0100001N1+02341+02241101561ADDAA124001091AY161061GF108991081051004501999999KA1240N+02221MA1999999099561MD1999999-0161MW1611REMSYN088AAXX  13124 82571 21497 81802 10234 20224 39956 40156 7616/ 885// 333 20222 59016 60014;
0148825710999992002021318004-05500-045260FM-12+017499999V0201401N001010450019N0100001N1+02821+02311101451ADDAA199000021GF106991021041004501031011MA1999999099471MD1999999+0041REMSYN070AAXX  13184 82571 32497 61402 10282 20231 39947 40145 82431 333 58004;
0189825710999992002021400004-05500-045260FM-12+017499999V0209999C000012200019N0100001N1+02511+02291101551ADDAA199000021GA1001+999999999GF100991001001999999001001KA1240M+02941MA1999999099551MD1999999+0071REMSYN082AAXX  14004 82571 32997 00000 10251 20229 39955 40155 333 10294 29086 55/// 58007;
0201825710999992002021412004-05500-045260FM-12+017499999V0202301N001010450019N0040001N1+02311+02291101631ADDAA124016091AY191061AY261061GF108991031071004501021999KA1240N+02291MA1999999099631MD1999999+0071MW1011REMSYN088AAXX  14124 82571 21496 82302 10231 20229 39963 40163 70196 8372/ 333 20229 58007 60164;
0208825710999992002021500004-05500-045260FM-12+017499999V0209999C000012200019N0100001N1+02631+02441101421ADDAA199000091GA1001+999999999GF100991001001999999001001KA1240M+03031MA1999999099431MD1999999-0121REMSYN082AAXX  15004 82571 32997 00000 10263 20244 39943 40142 333 10303 29086 55/// 59012;EQDQ01  00002PRCP99
0173825710999992002021512004-05500-045260FM-12+017499999V0201401N001012200019N0100001N1+02631+02421101651ADDAA124001091GF104991031021004501011001KA1240N+02331MA1999999099671MD1999999+0041REMSYN082AAXX  15124 82571 22497 41402 10263 20242 39967 40165 83210 333 20233 58004 60014;
0167825710999992002021518004-05500-045260FM-12+017499999V0201401N002110450019N0100001N1+03061+02401101181ADDAA199000091GF106991031021004501041011MA1999999099221MD1999999-0011REMSYN070AAXX  15184 82571 32497 61404 10306 20240 39922 40118 83241 333 59001;EQDQ01  00002PRCP99
0193825710999992002021612004-05500-045260FM-12+017499999V0203601N001010042019N0100001N1+02251+02191101621ADDAA124033091AY161061GF108991081051004501999999KA1240N+02151MA1999999099631MD1999999-0041MW1611REMSYN088AAXX  16124 82571 21497 83602 10225 20219 39963 40162 7616/ 885// 333 20215 59004 60334;
0148825710999992002021618004-05500-045260FM-12+017499999V0200501N001010450019N0100001N1+03071+02521101371ADDAA199000021GF106991021021004501031011MA1999999099401MD1999999+0181REMSYN070AAXX  16184 82571 32497 60502 10307 20252 39940 40137 82231 333 58018;
0179825710999992002021700004-05500-045260FM-12+017499999V0202301N001010042019N0100001N1+02611+02441101401ADDAA199000021GF106991061051004501001001KA1240M+03121MA1999999099411MD1999999-0021REMSYN088AAXX  17004 82571 32497 62302 10261 20244 39941 40140 86500 333 10312 29087 55/// 59002;
0173825710999992002021712004-05500-045260FM-12+017499999V0200501N001010042019N0100001N1+02581+02441101601ADDAA124000191GF108991081051004501999999KA1240N+02331MA1999999099611MD1999999-0021REMSYN082AAXX  17124 82571 22497 80502 10258 20244 39961 40160 885// 333 20233 59002 69914;
0208825710999992002021800004-05500-045260FM-12+017499999V0200501N001012200019N0100001N1+02741+02471101381ADDAA199000091GA1001+999999999GF100991001001999999001001KA1240M+03301MA1999999099411MD1999999+0001REMSYN082AAXX  18004 82571 32997 00502 10274 20247 39941 40138 333 10330 29082 55/// 58000;EQDQ01  00002PRCP99
0206825710999992002021812004-05500-045260FM-12+017499999V0200501N002112200019N0100001N1+02601+02421101341ADDAA199000091AY141061GF104991041021004501001001KA1240N+02301MA1999999099371MD1999999-0241MW1031REMSYN082AAXX  18124 82571 31497 40504 10260 20242 39937 40134 7034/ 84200 333 20230 59024;EQDQ01  00002PRCP99
0167825710999992002021818004-05500-045260FM-12+017499999V0200501N001012200019N0100001N1+03211+02551100941ADDAA199000091GF104991041021004501001001MA1999999098991MD1999999-0281REMSYN070AAXX  18184 82571 32497 40502 10321 20255 39899 40094 84200 333 59028;EQDQ01  00002PRCP99
0210825710999992002021900004-05500-045260FM-12+017499999V0209999C000012200019N0100001N1+02801+02541101191ADDAA199000091GF101991011001017501041001KA1240M+03301MA1999999099231MD1999999-0181MW1131REMSYN094AAXX  19004 82571 31797 10000 10280 20254 39923 40119 713// 81040 333 10330 29082 55/// 59018;EQDQ01  00002PRCP99
0193825710999992002021912004-05500-045260FM-12+017499999V0200901N001012200019N0100001N1+02661+02241101411ADDAA124002091AY161061GF104991011021004501031011KA1240N+02291MA1999999099451MD1999999+0081MW1011REMSYN088AAXX  19124 82571 21497 40902 10266 20224 39945 40141 7016/ 81231 333 20229 58008 60024;
0182825710999992002021918004-05500-045260FM-12+017499999V0201401N003112200019N0100001N1+03161+02471100981ADDAA106000591AY161061AY201061GF104991031021004501001011MA1999999099031MD1999999+0041MW1011REMSYN082AAXX  19184 82571 21497 41406 10316 20247 39903 40098 70160 83201 333 58004 69941;
0198825710999992002022000004-05500-045260FM-12+017499999V0209999C000012200019N0100001N1+02651+02411101161ADDAA199000091GF101991011001017501041001KA1240M+03271MA1999999099191MD1999999-0041REMSYN088AAXX  20004 82571 32797 10000 10265 20241 39919 40116 81040 333 10327 29079 55/// 59004;EQDQ01  00002PRCP99
0173825710999992002022012004-05500-045260FM-12+017499999V0200501N002110042019N0100001N1+02651+02461101491ADDAA124000591GF105991051021004501001001KA1240N+02391MA1999999099521MD1999999+0071REMSYN082AAXX  20124 82571 22497 50504 10265 20246 39952 40149 85200 333 20239 58007 69944;
0182825710999992002022018004-05500-045260FM-12+017499999V0200901N001012200019N0100001N1+03011+02531101051ADDAA106001091AY161061AY201061GF104991021021004501041011MA1999999099091MD1999999+0061MW1011REMSYN082AAXX  20184 82571 21497 40902 10301 20253 39909 40105 70160 82241 333 58006 69991;
0168825710999992002022100004-05500-045260FM-12+017499999V0200501N001012200019N0100001N1+99999+99999999999ADDAA199000091GF102991999999017501999999KA1240M+03221REMSYN087AAXX  21004 82571 32797 20502 1026 20250 39922 40119 82030 333 10322 29087 55/// 58003;EQDQ01  00002PRCP99
0173825710999992002022112004-05500-045260FM-12+017499999V0200501N002112200019N0100001N1+02701+02451101361ADDAA124001091GF103991021021004501001011KA1240N+02371MA1999999099391MD1999999-0131REMSYN082AAXX  21124 82571 22497 30504 10270 20245 39939 40136 82201 333 20237 59013 69994;
0167825710999992002022118004-05500-045260FM-12+017499999V0201401N002112200019N0100001N1+03251+02301100951ADDAA199000091GF103991031021004501001001MA1999999099011MD1999999-0081REMSYN070AAXX  21184 82571 32497 31404 10325 20230 39901 40095 83200 333 59008;EQDQ01  00002PRCP99
0208825710999992002022200004-05500-045260FM-12+017499999V0209999C000012200019N0100001N1+02721+02451101101ADDAA199000091GA1001+999999999GF100991001001999999001001KA1240M+03321MA1999999099141MD1999999-0081REMSYN082AAXX  22004 82571 32997 00000 10272 20245 39914 40110 333 10332 29078 55/// 59008;EQDQ01  00002PRCP99
0186825710999992002022212004-05500-045260FM-12+017499999V0200501N001010042019N0100001N1+02581+02381101341ADDAA199000091GF106991061051004501001001KA1240N+02281MA1999999099371MD1999999-0021REMSYN076AAXX  22124 82571 32497 60502 10258 20238 39937 40134 86500 333 20228 59002;EQDQ01  00002PRCP99
0167825710999992002022218004-05500-045260FM-12+017499999V0200501N002112200019N0100001N1+03171+02471100881ADDAA199000091GF103991031021008001001001MA1999999098941MD1999999-0071REMSYN070AAXX  22184 82571 32597 30504 10317 20247 39894 40088 83200 333 59007;EQDQ01  00002PRCP99
0198825710999992002022300004-05500-045260FM-12+017499999V0209999C000012200019N0100001N1+02771+02561101061ADDAA199000091GF101991011001017501031001KA1240M+03261MA1999999099101MD1999999-0041REMSYN088AAXX  23004 82571 32797 10000 10277 20256 39910 40106 81030 333 10326 29083 55/// 59004;EQDQ01  00002PRCP99
0186825710999992002022312004-05500-045260FM-12+017499999V0200501N003110450019N0100001N1+02611+02421101461ADDAA199000091GF106991041051004501031001KA1240N+02261MA1999999099491MD1999999+0121REMSYN076AAXX  23124 82571 32497 60506 10261 20242 39949 40146 84530 333 20226 58012;EQDQ01  00002PRCP99
0208825710999992002022400004-05500-045260FM-12+017499999V0209999C000012200019N0100001N1+02771+02561101281ADDAA199000091GA1001+999999999GF100991001001999999001001KA1240M+03351MA1999999099321MD1999999+0221REMSYN082AAXX  24004 82571 32997 00000 10277 20256 39932 40128 333 10335 29082 55/// 58022;EQDQ01  00002PRCP99
0186825710999992002022412004-05500-045260FM-12+017499999V0202301N001010042019N0100001N1+02541+02451101621ADDAA199000091GF106991061051004501001001KA1240N+02271MA1999999099651MD1999999+0161REMSYN076AAXX  24124 82571 32497 62302 10254 20245 39965 40162 86500 333 20227 58016;EQDQ01  00002PRCP99
0167825710999992002022518004-05500-045260FM-12+017499999V0200901N001012200019N0100001N1+03291+02451101121ADDAA199000091GF103991021021004501001011MA1999999099181MD1999999-0111REMSYN070AAXX  25184 82571 32497 30902 10329 20245 39918 40112 82201 333 59011;EQDQ01  00002PRCP99
0185825710999992002022612004-05500-045260FM-12+017499999V0200501N003112200019N0100001N1+02631+02421101441ADDAA199000091GF104991031021004501001011KA1240N+02261MA1999999099471MD1999999-0071REMSYN075AAXX  26124 82571 32497 40506 1026320242 39947 40144 83201 333 20226 59007;EQDQ01  00002PRCP99
0167825710999992002022618004-05500-045260FM-12+017499999V0200901N003112200019N0100001N1+03161+02451101001ADDAA199000091GF103991031021004501001001MA1999999099051MD1999999-0131REMSYN070AAXX  26184 82571 32497 30906 10316 20245 39905 40100 83200 333 59013;EQDQ01  00002PRCP99
0213825710999992002022700004-05500-045260FM-12+017499999V0202701N001012200019N0100001N1+02511+02421101261ADDAA106000591AY191061AY261061GF103991011031004501031001KA1240M+03271MA1999999099281MD1999999-0091MW1131REMSYN100AAXX  27004 82571 21497 32702 10251 20242 39928 40126 71396 81330 333 10327 29086 55/// 59009 69951;
0193825710999992002022712004-05500-045260FM-12+017499999V0201401N001012200019N0100001N1+02561+02351101531ADDAA124003091AY161061GF104991031021004501011001KA1240N+02301MA1999999099551MD1999999+0081MW1031REMSYN088AAXX  27124 82571 21497 41402 10256 20235 39955 40153 7036/ 83210 333 20230 58008 60034;
0167825710999992002022718004-05500-045260FM-12+017499999V0201401N001012200019N0100001N1+03111+02381101121ADDAA199000091GF104991031021004501001011MA1999999099161MD1999999+0111REMSYN070AAXX  27184 82571 32497 41402 10311 20238 39916 40112 83201 333 58011;EQDQ01  00002PRCP99
0208825710999992002022800004-05500-045260FM-12+017499999V0209999C000012200019N0100001N1+02721+02501101211ADDAA199000091GA1001+999999999GF100991001001999999001001KA1240M+03221MA1999999099241MD1999999-0041REMSYN082AAXX  28004 82571 32997 00000 10272 20250 39924 40121 333 10322 29082 55/// 59004;EQDQ01  00002PRCP99
0186825710999992002022812004-05500-045260FM-12+017499999V0200501N001012200019N0100001N1+02661+02461101421ADDAA199000091GF104991041041004501001001KA1240N+02311MA1999999099451MD1999999-0101REMSYN076AAXX  28124 82571 32497 40502 10266 20246 39945 40142 84400 333 20231 59010;EQDQ01  00002PRCP99
0167825710999992002022818004-05500-045260FM-12+017499999V0201401N001012200019N0100001N1+03211+02261101031ADDAA199000091GF102991021021004501001001MA1999999099081MD1999999-0081REMSYN070AAXX  28184 82571 32497 21402 10321 20226 39908 40103 82200 333 59008;EQDQ01  00002PRCP99
0208825710999992002030100004-05500-045260FM-12+017499999V0209999C000012200019N0100001N1+02781+02541101181ADDAA199000091GA1001+999999999GF100991001001999999001001KA1240M+03301MA1999999099221MD1999999-0021REMSYN082AAXX  01004 82571 32997 00000 10278 20254 39922 40118 333 10330 29078 55/// 59002;EQDQ01  00002PRCP99
0186825710999992002030112004-05500-045260FM-12+017499999V0200501N001010042019N0100001N1+02641+02421101461ADDAA199000091GF107991051051004501031001KA1240N+02391MA1999999099491MD1999999+0041REMSYN076AAXX  01124 82571 32497 70502 10264 20242 39949 40146 85530 333 20239 58004;EQDQ01  00002PRCP99
0167825710999992002030118004-05500-045260FM-12+017499999V0200501N001010042019N0100001N1+03071+02431101181ADDAA199000091GF106991051051004501031001MA1999999099211MD1999999+0131REMSYN070AAXX  01184 82571 32497 60502 10307 20243 39921 40118 85530 333 58013;EQDQ01  00002PRCP99
0208825710999992002030400004-05500-045260FM-12+017499999V0200501N001012200019N0100001N1+02651+02521101231ADDAA199000091GA1001+999999999GF100991001001999999001001KA1240M+03121MA1999999099281MD1999999+0031REMSYN082AAXX  04004 82571 32997 00502 10265 20252 39928 40123 333 10312 29084 55038 58003;EQDQ01  00002PRCP99
0193825710999992002030412004-05500-045260FM-12+017499999V0202301N001010450019N0100001N1+02311+02221101541ADDAA124007191AY161061GF107991041021004501051001KA1240N+02171MA1999999099551MD1999999+0061MW1021REMSYN088AAXX  04124 82571 21497 72302 10231 20222 39955 40154 7026/ 84250 333 20217 58006 60074;
0167825710999992002030418004-05500-045260FM-12+017499999V0202301N001010450019N0100001N1+02931+02431101141ADDAA199000091GF105991031021004501031001MA1999999099171MD1999999+0061REMSYN070AAXX  04184 82571 32497 52302 10293 20243 39917 40114 83230 333 58006;EQDQ01  00002PRCP99
0193825710999992002030512004-05500-045260FM-12+017499999V0202301N001010042019N0100001N1+02301+02231101661ADDAA124033091AY161061GF108991081051004501999999KA1240N+02171MA1999999099661MD1999999+0111MW1021REMSYN088AAXX  05124 82571 21497 82302 10230 20223 39966 40166 7026/ 885// 333 20217 58011 60334;
0182825710999992002030518004-05500-045260FM-12+017499999V0201401N003110450019N0100001N1+02631+02311101371ADDAA106002091AY161061AY221061GF107991041041004501021001MA1999999099391MD1999999+0221MW1801REMSYN082AAXX  05184 82571 21497 71406 10263 20231 39939 40137 78062 84420 333 58022 60021;
0213825710999992002030600004-05500-045260FM-12+017499999V0209999C000010450019N0040001N1+02351+02291101561ADDAA106004191AY161061AY221061GF108991041071004501021999KA1240M+02931MA1999999099561MD1999999+0111MW1611REMSYN100AAXX  06004 82571 21496 80000 10235 20229 39956 40156 76162 8472/ 333 10293 29092 55007 58011 60041;
0201825710999992002030612004-05500-045260FM-12+017499999V0203601N001012200019N0100001N1+02491+02361101501ADDAA124006191AY161061AY241061GF104991021021004501031001KA1240N+02261MA1999999099511MD1999999-0151MW1011REMSYN088AAXX  06124 82571 21497 43602 10249 20236 39951 40150 70164 82230 333 20226 59015 60064;
0167825710999992002030618004-05500-045260FM-12+017499999V0202901N001011050019N0100001N1+02951+02451101191ADDAA199000091GF105991021021004501031011MA1999999099221MD1999999-0171REMSYN070AAXX  06184 82571 32497 52902 10295 20245 39922 40119 82231 333 59017;EQDQ01  00002PRCP99
0210825710999992002030700004-05500-045260FM-12+017499999V0209999C000012200019N0100001N1+02581+02441101401ADDAA199000091GF102991021001017501041001KA1240M+03041MA1999999099421MD1999999-0141MW1131REMSYN094AAXX  07004 82571 32797 20000 10258 20244 39942 40140 713// 82040 333 10304 29088 55049 59014;EQDQ01  00002PRCP99
0186825710999992002030712004-05500-045260FM-12+017499999V0200201N001012200019N0100001N1+02621+02391101581ADDAA199000091GF103991021021004501011001KA1240N+02281MA1999999099601MD1999999+0091REMSYN076AAXX  07124 82571 32497 30202 10262 20239 39960 40158 82210 333 20228 58009;EQDQ01  00002PRCP99
0182825710999992002030718004-05500-045260FM-12+017499999V0200501N003110450019N0100001N1+02931+02471101191ADDAA106001091AY161061AY221061GF107991031021004501031011MA1999999099231MD1999999+0011MW1011REMSYN082AAXX  07184 82571 21497 70506 10293 20247 39923 40119 70162 83231 333 58001 60011;
0213825710999992002030800004-05500-045260FM-12+017499999V0209999C000010042019N0100001N1+02291+02231101561ADDAA106007991AY191061AY261061GF108991081051004501999999KA1240M+03011MA1999999099571MD1999999+0151MW1021REMSYN100AAXX  08004 82571 21497 80000 10229 20223 39957 40156 70296 885// 333 10301 29089 55057 58015 60081;
0193825710999992002030812004-05500-045260FM-12+017499999V0203201N001010042019N0100001N1+02361+02281101731ADDAA124008991AY161061GF108991081051004501999999KA1240N+02231MA1999999099721MD1999999+0121MW1021REMSYN088AAXX  08124 82571 21497 83202 10236 20228 39972 40173 7026/ 885// 333 20223 58012 60094;
0167825710999992002030818004-05500-045260FM-12+017499999V0201601N001012200019N0100001N1+03051+02451101171ADDAA199000091GF104991021021004501031001MA1999999099201MD1999999-0031REMSYN070AAXX  08184 82571 32497 41602 10305 20245 39920 40117 82230 333 59003;EQDQ01  00002PRCP99
0213825710999992002030900004-05500-045260FM-12+017499999V0200501N001010042019N0100001N1+02491+02381101531ADDAA106000191AY191061AY261061GF108991081051004501999999KA1240M+03101MA1999999099541MD1999999-0031MW1021REMSYN100AAXX  09004 82571 21497 80502 10249 20238 39954 40153 70296 885// 333 10310 29088 55050 59003 69911;
0173825710999992002030912004-05500-045260FM-12+017499999V0200901N001010042019N0100001N1+02571+02291101631ADDAA124000191GF106991061051004501001001KA1240N+02311MA1999999099651MD1999999-0071REMSYN082AAXX  09124 82571 22497 60902 10257 20229 39965 40163 86500 333 20231 59007 69914;
0182825710999992002030918004-05500-045260FM-12+017499999V0201601N001010450019N0100001N1+02911+02431101321ADDAA106003091AY161061AY201061GF106991031041004501031011MA1999999099351MD1999999+0151MW1611REMSYN082AAXX  09184 82571 21497 61602 10291 20243 39935 40132 76160 83431 333 58015 60031;
0201825710999992002031000004-05500-045260FM-12+017499999V0202501N001012200019N0100001N1+02631+02501101541ADDAA199000021GA1001+999999999GF100991001001999999001001KA1240M+03061MA1999999099561MD1999999+0021MW1131REMSYN088AAXX  10004 82571 31997 02502 10263 20250 39956 40154 713// 333 10306 29086 55035 58002;
0213825710999992002031100004-05500-045260FM-12+017499999V0202301N001010042019N0100001N1+02371+02161101411ADDAA106001091AY191061AY261061GF108991081051004501999999KA1240M+03181MA1999999099431MD1999999-0131MW1611REMSYN100AAXX  11004 82571 21497 82302 10237 20216 39943 40141 76196 885// 333 10318 29085 55050 59013 69991;
0201825710999992002031112004-05500-045260FM-12+017499999V0202001N001010450019N0100001N1+02411+02171101551ADDAA124007191AY191061AY261061GF106991031051004501031001KA1240N+02141MA1999999099551MD1999999-0051MW1011REMSYN088AAXX  11124 82571 21497 62002 10241 20217 39955 40155 70196 83530 333 20214 59005 60074;
0182825710999992002031118004-05500-045260FM-12+017499999V0201101N001010042019N0100001N1+02541+02361101281ADDAA106006191AY191061AY261061GF106991061051004501001001MA1999999099291MD1999999+0131MW1611REMSYN082AAXX  11184 82571 21497 61102 10254 20236 39929 40128 76196 86500 333 58013 60061;
0213825710999992002031200004-05500-045260FM-12+017499999V0202301N001010042019N0100001N1+02391+02371101531ADDAA106000591AY161061AY221061GF108991081051004501999999KA1240M+03111MA1999999099541MD1999999+0111MW1021REMSYN100AAXX  12004 82571 21497 82302 10239 20237 39954 40153 70262 885// 333 10311 29093 55042 58011 69951;
0173825710999992002031212004-05500-045260FM-12+017499999V0202901N001010450019N0100001N1+02511+02361101791ADDAA124006191GF106991041051004501031001KA1240N+02261MA1999999099791MD1999999+0241REMSYN082AAXX  12124 82571 22497 62902 10251 20236 39979 40179 84530 333 20226 58024 60064;
0167825710999992002031218004-05500-045260FM-12+017499999V0201401N001010450019N0100001N1+03161+02391101361ADDAA199000091GF106991021021004501031011MA1999999099401MD1999999+0111REMSYN070AAXX  12184 82571 32497 61402 10316 20239 39940 40136 82231 333 58011;EQDQ01  00002PRCP99
0208825710999992002031300004-05500-045260FM-12+017499999V0209999C000012200019N0100001N1+02631+02501101531ADDAA199000091GA1001+999999999GF100991001001999999001001KA1240M+03251MA1999999099551MD1999999+0011REMSYN082AAXX  13004 82571 32997 00000 10263 20250 39955 40153 333 10325 29085 55058 58001;EQDQ01  00002PRCP99
0186825710999992002031312004-05500-045260FM-12+017499999V0202301N001010450019N0100001N1+02591+02481101621ADDAA199000091GF106991021031004501051011KA1240N+02281MA1999999099641MD1999999-0151REMSYN076AAXX  13124 82571 32497 62302 10259 20248 39964 40162 82351 333 20228 59015;EQDQ01  00002PRCP99
0167825710999992002031318004-05500-045260FM-12+017499999V0201801N001012200019N0100001N1+03191+02331101221ADDAA199000091GF103991021021004501031001MA1999999099261MD1999999-0141REMSYN070AAXX  13184 82571 32497 31802 10319 20233 39926 40122 82230 333 59014;EQDQ01  00002PRCP99
0226825710999992002031400004-05500-045260FM-12+017499999V0200501N001012200019N0100001N1+02661+02441101461ADDAA199000091GF103991999041004501001001KA1240M+03271MA1999999099481MD1999999-0071MW1131REMSYN094AAXX  14004 82571 31497 30502 10266 20244 39948 40146 713// 82400 333 10327 29082 55072 59007;EQDQ01+000022SCOTLCQ02  00002PRCP99
0186825710999992002031412004-05500-045260FM-12+017499999V0200901N001012200019N0100001N1+02641+02291101501ADDAA199000091GF104991031021004501011001KA1240N+02341MA1999999099531MD1999999-0111REMSYN076AAXX  14124 82571 32497 40902 10264 20229 39953 40150 83210 333 20234 59011;EQDQ01  00002PRCP99
0167825710999992002031418004-05500-045260FM-12+017499999V0200501N002112200019N0100001N1+03171+02311101141ADDAA199000091GF104991031021004501001011MA1999999099191MD1999999-0071REMSYN070AAXX  14184 82571 32497 40504 10317 20231 39919 40114 83201 333 59007;EQDQ01  00002PRCP99
0208825710999992002031500004-05500-045260FM-12+017499999V0209999C000012200019N0100001N1+02691+02461101301ADDAA199000091GA1001+999999999GF100991001001999999001001KA1240M+03231MA1999999099331MD1999999-0151REMSYN082AAXX  15004 82571 32997 00000 10269 20246 39933 40130 333 10323 29079 55093 59015;EQDQ01  00002PRCP99
0186825710999992002031512004-05500-045260FM-12+017499999V0200501N003110450019N0100001N1+02571+02351101611ADDAA199000091GF106991041051004501031001KA1240N+02291MA1999999099641MD1999999+0111REMSYN076AAXX  15124 82571 32497 60506 10257 20235 39964 40161 84530 333 20229 58011;EQDQ01  00002PRCP99
0167825710999992002031518004-05500-045260FM-12+017499999V0201101N001012200019N0100001N1+03161+02421101101ADDAA199000091GF102991021021004501001001MA1999999099151MD1999999-0041REMSYN070AAXX  15184 82571 32497 21102 10316 20242 39915 40110 82200 333 59004;EQDQ01  00002PRCP99
0220825710999992002031600004-05500-045260FM-12+017499999V0203201N001012200019N0100001N1+02771+02501101351ADDAA199000091GA1001+999999999GF100991001001999999001001KA1240M+03321MA1999999099381MD1999999+0051MW1131REMSYN088AAXX  16004 82571 32997 03202 10277 20250 39938 40135 713// 333 10332 29080 55087 58005;EQDQ01  00002PRCP99
0186825710999992002031612004-05500-045260FM-12+017499999V0203401N001010450019N0100001N1+02511+02361101591ADDAA199000091GF106991031051004501031011KA1240N+02271MA1999999099621MD1999999-0021REMSYN076AAXX  16124 82571 32497 63402 10251 20236 39962 40159 83531 333 20227 59002;EQDQ01  00002PRCP99
0167825710999992002031618004-05500-045260FM-12+017499999V0200701N001012200019N0100001N1+03231+02361101111ADDAA199000091GF103991021021004501001011MA1999999099161MD1999999+0011REMSYN070AAXX  16184 82571 32497 30702 10323 20236 39916 40111 82201 333 58001;EQDQ01  00002PRCP99
0208825710999992002031700004-05500-045260FM-12+017499999V0202501N001012200019N0100001N1+02731+02541101311ADDAA199000091GA1001+999999999GF100991001001999999001001KA1240M+03331MA1999999099341MD1999999-0041REMSYN082AAXX  17004 82571 32997 02502 10273 20254 39934 40131 333 10333 29082 55076 59004;EQDQ01  00002PRCP99
0186825710999992002031712004-05500-045260FM-12+017499999V0202301N001010450019N0100001N1+02571+02331101501ADDAA199000091GF106991031041004501031011KA1240N+02321MA1999999099531MD1999999-0091REMSYN076AAXX  17124 82571 32497 62302 10257 20233 39953 40150 83431 333 20232 59009;EQDQ01  00002PRCP99
0167825710999992002031718004-05500-045260FM-12+017499999V0200501N001012200019N0100001N1+03111+02361101131ADDAA199000091GF104991041021004501001001MA1999999099181MD1999999+0021REMSYN070AAXX  17184 82571 32497 40502 10311 20236 39918 40113 84200 333 58002;EQDQ01  00002PRCP99
0220825710999992002031800004-05500-045260FM-12+017499999V0202701N001012200019N0100001N1+02531+02351101321ADDAA199000091GA1001+999999999GF100991001001999999001001KA1240M+03171MA1999999099401MD1999999+0061MW1131REMSYN088AAXX  18004 82571 31997 02702 10253 20235 39940 40132 713// 333 10317 29082 55056 58006;EQDQ01  00002PRCP99
0193825710999992002031812004-05500-045260FM-12+017499999V0201801N001012200019N0100001N1+02691+02331101401ADDAA124000591AY161061GF103991011021004501051001KA1240N+02241MA1999999099431MD1999999-0101MW1011REMSYN088AAXX  18124 82571 21497 31802 10269 20233 39943 40140 7016/ 81250 333 20224 59010 69944;
0167825710999992002031818004-05500-045260FM-12+017499999V0200701N001010450019N0100001N1+03051+02521100961ADDAA199000091GF106991031051004501041001MA1999999099001MD1999999-0181REMSYN070AAXX  18184 82571 32497 60702 10305 20252 39900 40096 83540 333 59018;EQDQ01  00002PRCP99
0197825710999992002031900004-05500-045260FM-12+017499999V0200901N001010090019N0040001N1+02591+02461101201ADDAA106000391GF106991061081004501001001KA1240M+03151MA1999999099231MD1999999-0171MW1611REMSYN100AAXX  19004 82571 21496 60902 10259 20246 39923 40120 761// 86800 333 10315 29084 55057 59017 69931;
0201825710999992002031912004-05500-045260FM-12+017499999V0200501N001010042019N0100001N1+02531+02451101331ADDAA124011991AY191061AY261061GF108991081051004501999999KA1240N+02401MA1999999099351MD1999999-0081MW1021REMSYN088AAXX  19124 82571 21497 80502 10253 20245 39935 40133 70296 885// 333 20240 59008 60124;
0182825710999992002031918004-05500-045260FM-12+017499999V0202301N001010450019N0100001N1+02731+02521100891ADDAA106002091AY161061AY221061GF106991031031004501041011MA1999999098921MD1999999-0081MW1631REMSYN082AAXX  19184 82571 21497 62302 10273 20252 39892 40089 76362 83341 333 59008 60021;
0207825710999992002032000004-05500-045260FM-12+017499999V0201801N001010090019N0100001N1+02441+02351101231ADDAA199000021AY191061AY221061GF106991061081004501001001KA1240M+03031MA1999999099251MD1999999+0021MW1131REMSYN094AAXX  20004 82571 31497 61802 10244 20235 39925 40123 71392 86800 333 10303 29093 55027 58002;
0173825710999992002032012004-05500-045260FM-12+017499999V0200701N001010042019N0100001N1+02541+02451101481ADDAA124002091GF107991061021004501011001KA1240N+02361MA1999999099491MD1999999+0141REMSYN082AAXX  20124 82571 22497 70702 10254 20245 39949 40148 86210 333 20236 58014 60024;
0182825710999992002032018004-05500-045260FM-12+017499999V0203401N001010450019N0040001N1+02661+02521101091ADDAA106019191AY161061AY221061GF107991031091004501021001MA1999999099121MD1999999+0201MW1951REMSYN082AAXX  20184 82571 21496 73402 10266 20252 39912 40109 79562 83920 333 58020 60191;
0213825710999992002032100004-05500-045260FM-12+017499999V0209999C000012200019N0100001N1+02501+02451101291ADDAA106002091AY191061AY261061GF104991041001004501071001KA1240M+03051MA1999999099311MD1999999+0061MW1021REMSYN100AAXX  21004 82571 21497 40000 10250 20245 39931 40129 70296 84070 333 10305 29095 55030 58006 60021;
0193825710999992002032112004-05500-045260FM-12+017499999V0200501N002112200019N0100001N1+02581+02441101351ADDAA124021191AY161061GF104991031021004501001011KA1240N+02291MA1999999099371MD1999999-0121MW1011REMSYN088AAXX  21124 82571 21497 40504 10258 20244 39937 40135 7016/ 83201 333 20229 59012 60214;
0167825710999992002032118004-05500-045260FM-12+017499999V0200501N001010450019N0100001N1+03191+02481100921ADDAA199000091GF105991041021004501011001MA1999999098971MD1999999-0151REMSYN070AAXX  21184 82571 32497 50502 10319 20248 39897 40092 84210 333 59015;EQDQ01  00002PRCP99
0213825710999992002032200004-05500-045260FM-12+017499999V0203401N002110450019N0100001N1+02531+02471101281ADDAA106009991AY191061AY261061GF106991041021004501041001KA1240M+03281MA1999999099301MD1999999-0011MW1131REMSYN100AAXX  22004 82571 21497 63404 10253 20247 39930 40128 71396 84240 333 10328 29088 55079 59001 60101;
0193825710999992002032212004-05500-045260FM-12+017499999V0203601N002112200019N0100001N1+02701+02411101361ADDAA124009991AY141061GF104991041021004501001001KA1240N+02341MA1999999099391MD1999999+0021MW1031REMSYN088AAXX  22124 82571 21497 43604 10270 20241 39939 40136 7034/ 84200 333 20234 58002 60104;
0167825710999992002032218004-05500-045260FM-12+017499999V0200501N002112200019N0100001N1+03141+02481100991ADDAA199000091GF104991031021004501011001MA1999999099041MD1999999+0071REMSYN070AAXX  22184 82571 32497 40504 10314 20248 39904 40099 83210 333 58007;EQDQ01  00002PRCP99
0213825710999992002032300004-05500-045260FM-12+017499999V0209999C000012200019N0100001N1+02691+02581101371ADDAA106000191AY161061AY201061GF103991031001004501011001KA1240M+03191MA1999999099401MD1999999+0101MW1021REMSYN100AAXX  23004 82571 21497 30000 10269 20258 39940 40137 70260 83010 333 10319 29084 55087 58010 69911;
0201825710999992002032312004-05500-045260FM-12+017499999V0203201N001010450019N0100001N1+02511+02431101591ADDAA124000191AY161061AY241061GF106991041031004501031001KA1240N+02311MA1999999099611MD1999999+0221MW1021REMSYN088AAXX  23124 82571 21497 63202 10251 20243 39961 40159 70264 84330 333 20231 58022 69924;
0160825710999992002032318004-05500-045260FM-12+017499999V0202501N001010042019N0040001N1+02561+02291101231ADDAA199000021GF108991081051004501999999MA1999999099251MD1999999+0211MW1961REMSYN076AAXX  23184 82571 31496 82502 10256 20229 39925 40123 796// 885// 333 58021;
0213825710999992002032400004-05500-045260FM-12+017499999V0203201N001010042019N0100001N1+02391+02311101621ADDAA106000191AY191061AY251061GF108991081051004501999999KA1240M+03181MA1999999099631MD1999999+0231MW1131REMSYN100AAXX  24004 82571 21497 83202 10239 20231 39963 40162 71395 885// 333 10318 29090 55038 58023 69921;
0193825710999992002032412004-05500-045260FM-12+017499999V0203201N001010450019N0100001N1+02431+02281101681ADDAA124011991AY161061GF106991031051004501051001KA1240N+02261MA1999999099681MD1999999+0071MW1021REMSYN088AAXX  24124 82571 21497 63202 10243 20228 39968 40168 7026/ 83550 333 20226 58007 60124;
0167825710999992002032418004-05500-045260FM-12+017499999V0200501N001012200019N0100001N1+03031+02361101291ADDAA199000091GF103991021021004501001011MA1999999099321MD1999999+0071REMSYN070AAXX  24184 82571 32497 30502 10303 20236 39932 40129 82201 333 58007;EQDQ01  00002PRCP99
0198825710999992002032500004-05500-045260FM-12+017499999V0203201N001010042019N0100001N1+02671+02291101441ADDAA199000091GF108991081051004501999999KA1240M+03101MA1999999099461MD1999999-0171REMSYN088AAXX  25004 82571 32497 83202 10267 20229 39946 40144 885// 333 10310 29083 55050 59017;EQDQ01  00002PRCP99
0186825710999992002032512004-05500-045260FM-12+017499999V0203601N003112200019N0100001N1+02651+02411101521ADDAA199000091GF104991021021004501001011KA1240N+02281MA1999999099551MD1999999-0131REMSYN076AAXX  25124 82571 32497 43606 10265 20241 39955 40152 82201 333 20228 59013;EQDQ01  00002PRCP99
0167825710999992002032518004-05500-045260FM-12+017499999V0203201N001012200019N0100001N1+03191+02351101051ADDAA199000091GF104991031021004501001011MA1999999099071MD1999999-0251REMSYN070AAXX  25184 82571 32497 43202 10319 20235 39907 40105 83201 333 59025;EQDQ01  00002PRCP99
0197825710999992002032600004-05500-045260FM-12+017499999V0200501N005110021019N0040001N1+02471+02341101411ADDAA106002091GF108991081071002501999999KA1240M+03251MA1999999099431MD1999999-0031MW1951REMSYN100AAXX  26004 82571 21396 80510 10247 20234 39943 40141 795// 887// 333 10325 29083 55086 59003 60021;
0201825710999992002032612004-05500-045260FM-12+017499999V0200201N001010042019N0100001N1+02351+02261101561ADDAA124023991AY191061AY261061GF108991081051004501999999KA1240N+02181MA1999999099561MD1999999+0011MW1021REMSYN088AAXX  26124 82571 21497 80202 10235 20226 39956 40156 70296 885// 333 20218 58001 60244;
0167825710999992002032618004-05500-045260FM-12+017499999V0200501N001010450019N0100001N1+03071+02471101151ADDAA199000091GF106991021021004501041011MA1999999099191MD1999999+0121REMSYN070AAXX  26184 82571 32497 60502 10307 20247 39919 40115 82241 333 58012;EQDQ01  00002PRCP99
0198825710999992002032700004-05500-045260FM-12+017499999V0209999C000010450019N0100001N1+02621+02461101351ADDAA199000091GF106991031041004501051001KA1240M+03131MA1999999099371MD1999999-0061REMSYN088AAXX  27004 82571 32497 60000 10262 20246 39937 40135 83450 333 10313 29086 55034 59006;EQDQ01  00002PRCP99
0186825710999992002032712004-05500-045260FM-12+017499999V0202501N001010450019N0100001N1+02551+02331101531ADDAA199000091GF105991041021004501011001KA1240N+02281MA1999999099551MD1999999-0011REMSYN076AAXX  27124 82571 32497 52502 10255 20233 39955 40153 84210 333 20228 59001;EQDQ01  00002PRCP99
0167825710999992002032718004-05500-045260FM-12+017499999V0200901N002112200019N0100001N1+03181+02411101071ADDAA199000091GF104991031021004501001011MA1999999099121MD1999999-0071REMSYN070AAXX  27184 82571 32497 40904 10318 20241 39912 40107 83201 333 59007;EQDQ01  00002PRCP99
0213825710999992002032800004-05500-045260FM-12+017499999V0209999C000012200019N0100001N1+02631+02481101331ADDAA106005191AY191061AY261061GF104991041001004501041001KA1240M+03251MA1999999099361MD1999999-0011MW1911REMSYN100AAXX  28004 82571 21497 40000 10263 20248 39936 40133 79196 84040 333 10325 29083 55092 59001 60051;
0201825710999992002032812004-05500-045260FM-12+017499999V0202301N001010042019N0100001N1+02411+02321101521ADDAA124005191AY151061AY241061GF106991051011004501031001KA1240N+02251MA1999999099531MD1999999-0021MW1011REMSYN088AAXX  28124 82571 21497 62302 10241 20232 39953 40152 70154 85130 333 20225 59002 60054;
0167825710999992002032818004-05500-045260FM-12+017499999V0201601N001012200019N0100001N1+03131+02431101091ADDAA199000091GF104991031021004501011001MA1999999099141MD1999999+0021REMSYN070AAXX  28184 82571 32497 41602 10313 20243 39914 40109 83210 333 58002;EQDQ01  00002PRCP99
0210825710999992002032900004-05500-045260FM-12+017499999V0209999C000012200019N0100001N1+02561+02461101291ADDAA199000091GF103991011021004501031001KA1240M+03201MA1999999099311MD1999999-0051MW1131REMSYN094AAXX  29004 82571 31497 30000 10256 20246 39931 40129 713// 81230 333 10320 29087 55043 59005;EQDQ01  00002PRCP99
0206825710999992002032912004-05500-045260FM-12+017499999V0201801N001012200019N0100001N1+02621+02311101371ADDAA199000091AY141061GF104991031001017501031011KA1240N+02201MA1999999099401MD1999999-0131MW1021REMSYN082AAXX  29124 82571 31797 41802 10262 20231 39940 40137 7024/ 83031 333 20220 59013;EQDQ01  00002PRCP99
0167825710999992002032918004-05500-045260FM-12+017499999V0201401N003112200019N0100001N1+03081+02321101001ADDAA199000091GF104991021021004501041011MA1999999099051MD1999999-0091REMSYN070AAXX  29184 82571 32497 41406 10308 20232 39905 40100 82241 333 59009;EQDQ01  00002PRCP99
0226825710999992002033000004-05500-045260FM-12+017499999V0209999C000010150019N0100001N1+02511+02421101281ADDAA199000091AY191061AY221061GF105991051001017501071001KA1240M+03191MA1999999099301MD1999999-0011MW1021REMSYN094AAXX  30004 82571 31797 50000 10251 20242 39930 40128 70292 85070 333 10319 29084 55075 59001;EQDQ01  00002PRCP99
0206825710999992002033012004-05500-045260FM-12+017499999V0202701N001012200019N0100001N1+02641+02461101341ADDAA199000091AY141061GF104991021021004501011011KA1240N+02331MA1999999099371MD1999999-0031MW1011REMSYN082AAXX  30124 82571 31497 42702 10264 20246 39937 40134 7014/ 82211 333 20233 59003;EQDQ01  00002PRCP99
0167825710999992002033018004-05500-045260FM-12+017499999V0201401N004112200019N0100001N1+03231+02281100971ADDAA199000091GF103991021021004501001011MA1999999099021MD1999999-0031REMSYN070AAXX  30184 82571 32497 31408 10323 20228 39902 40097 82201 333 59003;EQDQ01  00002PRCP99
0198825710999992002033100004-05500-045260FM-12+017499999V0209999C000012200019N0100001N1+02751+02501101251ADDAA199000091GF104991041001017501071001KA1240M+03301MA1999999099291MD1999999-0011REMSYN088AAXX  31004 82571 32797 40000 10275 20250 39929 40125 84070 333 10330 29080 55092 59001;EQDQ01  00002PRCP99
0186825710999992002033112004-05500-045260FM-12+017499999V0200501N001011050019N0100001N1+02721+02411101451ADDAA199000091GF105991011021004501011011KA1240N+02441MA1999999099491MD1999999+0121REMSYN076AAXX  31124 82571 32497 50502 10272 20241 39949 40145 81211 333 20244 58012;EQDQ01  00002PRCP99
0182825710999992002033118004-05500-045260FM-12+017499999V0200201N002110042019N0100001N1+02791+02451101091ADDAA106008991AY161061AY221061GF107991051051004501041001MA1999999099131MD1999999+0111MW1951REMSYN082AAXX  31184 82571 21497 70204 10279 20245 39913 40109 79562 85540 333 58011 60091;
0212825710999992002040112004-05500-045260FM-12+017499999V0200501N001012200019N0100001N1+02631+02391101461ADDAA124019191AY161061GF103991999031004501011999KA1240N+02351MA1999999099481MD1999999-0011MW1011REMSYN088AAXX  01124 82571 21497 30502 10263 20239 39948 40146 7016/ 8831/ 333 20235 59001 60194;EQDQ01+000082SCOTLC
0167825710999992002040118004-05500-045260FM-12+017499999V0201601N003110450019N0100001N1+03091+02461100991ADDAA199000091GF105991031021004501011001MA1999999099041MD1999999-0091REMSYN070AAXX  01184 82571 32497 51606 10309 20246 39904 40099 83210 333 59009;EQDQ01  00002PRCP99
0210825710999992002040200004-05500-045260FM-12+017499999V0200501N003110090019N0100001N1+02711+02391101291ADDAA199000091GF107991071081004501001001KA1240M+03291MA1999999099321MD1999999+0071MW1171REMSYN094AAXX  02004 82571 31497 70506 10271 20239 39932 40129 717// 87800 333 10329 29080 55078 58007;EQDQ01  00002PRCP99
0186825710999992002040212004-05500-045260FM-12+017499999V0203201N001010090019N0100001N1+02541+02381101411ADDAA199000091GF107991071081004501001001KA1240N+02361MA1999999099441MD1999999-0041REMSYN076AAXX  02124 82571 32497 73202 10254 20238 39944 40141 87800 333 20236 59004;EQDQ01  00002PRCP99
0167825710999992002040218004-05500-045260FM-12+017499999V0201101N002110450019N0100001N1+03111+02461101041ADDAA199000091GF105991021021004501051001MA1999999099091MD1999999+0051REMSYN070AAXX  02184 82571 32497 51104 10311 20246 39909 40104 82250 333 58005;EQDQ01  00002PRCP99
0210825710999992002040300004-05500-045260FM-12+017499999V0209999C000012200019N0100001N1+02631+02501101351ADDAA199000091GF104991041001017501011001KA1240M+03171MA1999999099381MD1999999+0061MW1131REMSYN094AAXX  03004 82571 31797 40000 10263 20250 39938 40135 713// 84010 333 10317 29086 55046 58006;EQDQ01  00002PRCP99
0185825710999992002040312004-05500-045260FM-12+017499999V0201601N001010450019N0040001N1+02461+02411101521ADDAA106000191GF108991041071004501021999KA1240N+02341MA1999999099541MD1999999+0101MW1531REMSYN088AAXX  03124 82571 21496 81602 10246 20241 39954 40152 753// 8472/ 333 20234 58010 69911;
0182825710999992002040318004-05500-045260FM-12+017499999V0201401N002111050019N0100001N1+03161+02421101041ADDAA106000191AY161061AY211061GF105991021021004501031011MA1999999099091MD1999999+0001MW1011REMSYN082AAXX  03184 82571 21497 51404 10316 20242 39909 40104 70161 82231 333 58000 69911;
0212825710999992002040400004-05500-045260FM-12+017499999V0200701N001010090019N0100001N1+02501+02451101471ADDAA106009991AY191061AY261061GF107991071081004501001001KA1240M+03251MA1999999099481MD1999999+0101MW1131REMSYN099AAXX  04004 82571 2149770702 10250 20245 39948 40147 71396 87800 333 10325 29089 55049 58010 60101;
0173825710999992002040412004-05500-045260FM-12+017499999V0200201N003110042019N0100001N1+02531+02441101591ADDAA124010991GF108991081051004501999999KA1240N+02361MA1999999099061MD1999999+0061REMSYN082AAXX  04124 82571 22497 80206 10253 20244 39906 40159 885// 333 20236 58006 60114;
0182825710999992002040418004-05500-045260FM-12+017499999V0202001N000510450019N0100001N1+02891+02541101101ADDAA106010991AY161061AY211061GF106991021021004501041011MA1999999099141MD1999999+0051MW1011REMSYN082AAXX  04184 82571 21497 62001 10289 20254 39914 40110 70161 82241 333 58005 60111;
0193825710999992002040512004-05500-045260FM-12+017499999V0200701N001010450019N0100001N1+02471+02341101451ADDAA124011991AY161061GF106991041051004501031001KA1240N+02331MA1999999099461MD1999999-0141MW1011REMSYN088AAXX  05124 82571 21497 60702 10247 20234 39946 40145 7016/ 84530 333 20233 59014 60124;
0182825710999992002040518004-05500-045260FM-12+017499999V0202001N001010042019N0100001N1+02711+02341101061ADDAA106000191AY151061AY211061GF106991061051004501001001MA1999999099091MD1999999-0051MW1551REMSYN082AAXX  05184 82571 21497 62002 10271 20234 39909 40106 75551 86500 333 59005 69921;
0201825710999992002040600004-05500-045260FM-12+017499999V0200701N001012200019N0100001N1+02571+02371101331ADDAA199000021GA1001+999999999GF100991001001999999001001KA1240M+03121MA1999999099351MD1999999-0121MW1131REMSYN088AAXX  06004 82571 31997 00702 10257 20237 39935 40133 713// 333 10312 29087 55024 59012;
0173825710999992002040612004-05500-045260FM-12+017499999V0203201N001010042019N0100001N1+02491+02361101471ADDAA124000191GF106991061051004501001001KA1240N+02391MA1999999099491MD1999999+0031REMSYN082AAXX  06124 82571 22497 63202 10249 20236 39949 40147 86500 333 20239 58003 69924;
0167825710999992002040618004-05500-045260FM-12+017499999V0202701N001010450019N0100001N1+03041+02481100971ADDAA199000091GF108991031041004501011011MA1999999099021MD1999999-0071REMSYN070AAXX  06184 82571 32497 82702 10304 20248 39902 40097 83411 333 59007;EQDQ01  00002PRCP99
0213825710999992002040700004-05500-045260FM-12+017499999V0200501N001010042019N0040001N1+02421+02331101371ADDAA106007191AY161061AY221061GF108991081001004501021999KA1240M+03111MA1999999099381MD1999999+0031MW1531REMSYN100AAXX  07004 82571 21496 80502 10242 20233 39938 40137 75362 8802/ 333 10311 29088 55021 58003 60071;
0193825710999992002040712004-05500-045260FM-12+017499999V0201801N001010042019N0100001N1+02451+02361101681ADDAA124009991AY161061GF108991081051004501999999KA1240N+02311MA1999999099691MD1999999+0201MW1021REMSYN088AAXX  07124 82571 21497 81802 10245 20236 39969 40168 7026/ 885// 333 20231 58020 60104;
0167825710999992002040718004-05500-045260FM-12+017499999V0202001N001010450019N0100001N1+02951+02451101191ADDAA199000091GF106991031021004501031001MA1999999099221MD1999999+0201REMSYN070AAXX  07184 82571 32497 62002 10295 20245 39922 40119 83230 333 58020;EQDQ01  00002PRCP99
0223825710999992002040800004-05500-045260FM-12+017499999V0200501N001012200019N0100001N1+02611+02421101351ADDAA106000191AY151061AY201061GA1001+999999999GF100991001001999999001001KA1240M+03131MA1999999099371MD1999999-0011MW1131REMSYN094AAXX  08004 82571 21997 00502 10261 20242 39937 40135 71350 333 10313 29086 55035 59001 69911;
0173825710999992002040812004-05500-045260FM-12+017499999V0201601N001010042019N0100001N1+02521+02431101421ADDAA124000191GF108991081051004501999999KA1240N+02391MA1999999099441MD1999999-0251REMSYN082AAXX  08124 82571 22497 81602 10252 20243 39944 40142 885// 333 20239 59025 69914;
0182825710999992002040818004-05500-045260FM-12+017499999V0202901N001010090019N0100001N1+02581+02421101011ADDAA106003091AY191061AY261061GF107991051081004501041001MA1999999099041MD1999999-0181MW1911REMSYN082AAXX  08184 82571 21497 72902 10258 20242 39904 40101 79196 85840 333 59018 60031;
0213825710999992002040900004-05500-045260FM-12+017499999V0200501N001010450019N0040001N1+02401+02351101301ADDAA106002091AY161061AY221061GF106991031071004501021001KA1240M+03131MA1999999099311MD1999999-0061MW1601REMSYN100AAXX  09004 82571 21496 60502 10240 20235 39931 40130 76062 83720 333 10313 29095 55027 59006 60021;
0193825710999992002040912004-05500-045260FM-12+017499999V0203601N001010042019N0100001N1+02531+02351101381ADDAA124006191AY161061GF107991071021004501001001KA1240N+02281MA1999999099391MD1999999-0051MW1011REMSYN088AAXX  09124 82571 21497 73602 10253 20235 39939 40138 7016/ 87200 333 20228 59005 60064;
0167825710999992002040918004-05500-045260FM-12+017499999V0203601N004012200019N0100001N1+03131+02431100781ADDAA199000091GF104991031021004501041001MA1999999098831MD1999999-0211REMSYN070AAXX  09181 82571 32497 43604 10313 20243 39883 40078 83240 333 59021;EQDQ01  00002PRCP99
0210825710999992002041000004-05500-045260FM-12+017499999V0202301N001010042019N0100001N1+02571+02371101251ADDAA199000091GF107991071021004501001001KA1240M+03201MA1999999099271MD1999999-0041MW1131REMSYN094AAXX  10004 82571 31497 72302 10257 20237 39927 40125 713// 87200 333 10320 29083 55083 59004;EQDQ01  00002PRCP99
0193825710999992002041012004-05500-045260FM-12+017499999V0202301N001010042019N0100001N1+02541+02421101391ADDAA124002091AY161061GF107991061051004501011001KA1240N+02421MA1999999099411MD1999999+0021MW1011REMSYN088AAXX  10124 82571 21497 72302 10254 20242 39941 40139 7016/ 86510 333 20242 58002 60024;
0167825710999992002041018004-05500-045260FM-12+017499999V0200201N001010450019N0100001N1+03041+02481100831ADDAA199000091GF106991031021004501011001MA1999999098881MD1999999+0051REMSYN070AAXX  10184 82571 32497 60202 10304 20248 39888 40083 83210 333 58005;EQDQ01  00002PRCP99
0193825710999992002041112004-05500-045260FM-12+017499999V0202301N001010042019N0100001N1+02541+02361101531ADDAA124019191AY161061GF107991061051004501031001KA1240N+02301MA1999999099541MD1999999+0131MW1011REMSYN088AAXX  11124 82571 21497 72302 10254 20236 39954 40153 7016/ 86530 333 20230 58013 60194;
0166825710999992002041118004-05500-045260FM-12+017499999V0201801N001010042019N0040001N1+02831+02561101081ADDAA106003091GF107991061051004501011001MA1999999099111MD1999999+0231MW1611REMSYN082AAXX  11184 82571 21496 71802 10283 20256 39911 40108 761// 86510 333 58023 60031;
0213825710999992002041200004-05500-045260FM-12+017499999V0209999C000010042019N0100001N1+02451+02361101481ADDAA106002091AY191061AY261061GF108991081021004501999999KA1240M+03051MA1999999099491MD1999999+0051MW1021REMSYN100AAXX  12004 82571 21497 80000 10245 20236 39949 40148 70296 882// 333 10305 29091 55019 58005 60021;
0173825710999992002041212004-05500-045260FM-12+017499999V0201801N001010042019N0100001N1+02431+02351101601ADDAA124005191GF108991081051004501999999KA1240N+02301MA1999999099611MD1999999+0071REMSYN082AAXX  12124 82571 22497 81802 10243 20235 39961 40160 885// 333 20230 58007 60054;
0167825710999992002041218004-05500-045260FM-12+017499999V0200501N001010450019N0100001N1+02871+02481101161ADDAA199000091GF106991031021004501011011MA1999999099191MD1999999+0081REMSYN070AAXX  12184 82571 32497 60502 10287 20248 39919 40116 83211 333 58008;EQDQ01  00002PRCP99
0186825710999992002041312004-05500-045260FM-12+017499999V0201801N001012200019N0100001N1+02571+02251101421ADDAA199000091GF106991041001017501031011KA1240N+02151MA1999999099441MD1999999-0171REMSYN076AAXX  13124 82571 32797 61802 10257 20225 39944 40142 84031 333 20215 59017;EQDQ01  00002PRCP99
0167825710999992002041318004-05500-045260FM-12+017499999V0203601N001012200019N0100001N1+03171+02331101141ADDAA199000091GF103991021021004501001011MA1999999099181MD1999999-0011REMSYN070AAXX  13184 82571 32497 33602 10317 20233 39918 40114 82201 333 59001;EQDQ01  00002PRCP99
0201825710999992002041400004-05500-045260FM-12+017499999V0200701N001010042019N0100001N1+02641+02411101661ADDAA124000191AY151061AY221061GF108991081051004501999999KA1240N+02341MA1999999099681MD1999999+0241MW1031REMSYN088AAXX  14004 82571 21497 80702 10264 20241 39968 40166 70352 885// 333 20234 58024 69924;
0201825710999992002041412004-05500-045260FM-12+017499999V0200701N001010042019N0100001N1+02641+02411101661ADDAA124000191AY151061AY221061GF108991081051004501999999KA1240N+02341MA1999999099681MD1999999+0241MW1031REMSYN088AAXX  14124 82571 21497 80702 10264 20241 39968 40166 70352 885// 333 20234 58024 69924;
0182825710999992002041418004-05500-045260FM-12+017499999V0201801N001010450019N0100001N1+02761+02481101231ADDAA112000791AY161061AY251061GF106991041051004501031001MA1999999099251MD1999999+0071MW1021REMSYN082AAXX  14184 82571 21497 61802 10276 20248 39925 40123 70265 84530 333 58007 69902;
0208825710999992002041500004-05500-045260FM-12+017499999V0202001N001012200019N0100001N1+02511+02431101341ADDAA199000091GA1001+999999999GF100991001001999999001001KA1240M+03011MA1999999099361MD1999999-0061REMSYN082AAXX  15004 82571 31997 02002 10251 20243 39936 40134 333 10301 29090 55029 59006;EQDQ01  00002PRCP99
0193825710999992002041512004-05500-045260FM-12+017499999V0202301N001010042019N0100001N1+02441+02391101511ADDAA124000391AY151061GF108991081051004501999999KA1240N+02281MA1999999099521MD1999999-0161MW1031REMSYN088AAXX  15124 82571 21497 82302 10244 20239 39952 40151 7035/ 885// 333 20228 59016 69934;
0213825710999992002041600004-05500-045260FM-12+017499999V0209999C000010150019N0040001N1+02341+02291101331ADDAA106023991AY191061AY261061GF108991081001017501021999KA1240M+02831MA1999999099341MD1999999-0021MW1021REMSYN100AAXX  16004 82571 21796 80000 10234 20229 39934 40133 70296 8802/ 333 10283 29095 55001 59002 60241;
0173825710999992002041612004-05500-045260FM-12+017499999V0202901N001010042019N0100001N1+02521+02381101631ADDAA124048091GF108991081051004501999999KA1240N+02281MA1999999099641MD1999999+0121REMSYN082AAXX  16124 82571 22497 82902 10252 20238 39964 40163 885// 333 20228 58012 60484;
0167825710999992002041618004-05500-045260FM-12+017499999V0202001N001010450019N0100001N1+03031+02481101261ADDAA199000091GF106991041021004501071001MA1999999099291MD1999999+0161REMSYN070AAXX  16184 82571 32497 62002 10303 20248 39929 40126 84270 333 58016;EQDQ01  00002PRCP99
0167825710999992002041718004-05500-045260FM-12+017499999V0200901N001012200019N0100001N1+03071+02441101251ADDAA199000091GF103991021021004501001011MA1999999099291MD1999999+0001REMSYN070AAXX  17184 82571 32497 30902 10307 20244 39929 40125 82201 333 58000;EQDQ01  00002PRCP99
0208825710999992002041800004-05500-045260FM-12+017499999V0209999C000012200019N0100001N1+02501+02341101381ADDAA199000091GA1001+999999999GF100991001001999999001001KA1240M+03151MA1999999099391MD1999999-0121REMSYN082AAXX  18004 82571 32997 00000 10250 20234 39939 40138 333 10315 29086 55/// 59012;EQDQ01  00002PRCP99
0206825710999992002041812004-05500-045260FM-12+017499999V0202301N001010450019N0100001N1+02511+02341101551ADDAA199000091AY141061GF106991041041004501061001KA1240N+02181MA1999999099561MD1999999-0091MW1031REMSYN082AAXX  18124 82571 31497 62302 10251 20234 39956 40155 7034/ 84460 333 20218 59009;EQDQ01  00002PRCP99
0167825710999992002041818004-05500-045260FM-12+017499999V0200901N001012200019N0100001N1+03151+02341101141ADDAA199000091GF102991021031004501001001MA1999999099181MD1999999-0111REMSYN070AAXX  18184 82571 32497 20902 10315 20234 39918 40114 82300 333 59011;EQDQ01  00002PRCP99
0208825710999992002041900004-05500-045260FM-12+017499999V0201401N001012200019N0100001N1+02591+02441101271ADDAA199000091GA1001+999999999GF100991001001999999001001KA1240M+03221MA1999999099291MD1999999-0101REMSYN082AAXX  19004 82571 32997 01402 10259 20244 39929 40127 333 10322 29084 55076 59010;EQDQ01  00002PRCP99
0206825710999992002041912004-05500-045260FM-12+017499999V0201801N002010450019N0100001N1+02491+02401101371ADDAA199000091AY141061GF106991041051004501031001KA1240N+02261MA1999999099391MD1999999-0171MW1021REMSYN082AAXX  19121 82571 31497 61802 10249 20240 39939 40137 7024/ 84530 333 20226 59017;EQDQ01  00002PRCP99
0167825710999992002041918004-05500-045260FM-12+017499999V0201401N001012200019N0100001N1+03051+02451100961ADDAA199000091GF105991041021004501001011MA1999999099001MD1999999-0181REMSYN070AAXX  19184 82571 32497 51402 10305 20245 39900 40096 84201 333 59018;EQDQ01  00002PRCP99
0208825710999992002042000004-05500-045260FM-12+017499999V0209999C000012200019N0100001N1+02711+02521101191ADDAA199000091GA1001+999999999GF100991001001999999001001KA1240M+03181MA1999999099221MD1999999-0071REMSYN082AAXX  20004 82571 32997 00000 10271 20252 39922 40119 333 10318 29086 55043 59007;EQDQ01  00002PRCP99
0186825710999992002042012004-05500-045260FM-12+017499999V0201401N001010150019N0100001N1+02481+02391101461ADDAA199000091GF108991081001017501021999KA1240N+02311MA1999999099481MD1999999+0091REMSYN076AAXX  20124 82571 32797 81402 10248 20239 39948 40146 8802/ 333 20231 58009;EQDQ01  00002PRCP99
0182825710999992002042018004-05500-045260FM-12+017499999V0201101N001012200019N0100001N1+03091+02201100971ADDAA106000191AY161061AY201061GF102991021021004501001001MA1999999099021MD1999999+0021MW1011REMSYN082AAXX  20184 82571 21497 21102 10309 20220 39902 40097 70160 82200 333 58002 69911;
0213825710999992002042100004-05500-045260FM-12+017499999V0209999C000012200019N0100001N1+02571+02371101171ADDAA106000191AY151061AY201061GF103991001001999999001021KA1240M+03181MA1999999099291MD1999999+0071MW1011REMSYN100AAXX  21004 82571 21997 30000 10257 20237 39929 40117 70150 80002 333 10318 29080 55/// 58007 69911;
0193825710999992002042112004-05500-045260FM-12+017499999V0200501N001012200019N0100001N1+02531+02351101451ADDAA124000191AY141061GF103991021021004501001011KA1240N+02171MA1999999099471MD1999999-0011MW1021REMSYN088AAXX  21124 82571 21497 30502 10253 20235 39947 40145 7024/ 82201 333 20217 59001 69924;
0167825710999992002042118004-05500-045260FM-12+017499999V0201101N001012200019N0100001N1+03171+02071100971ADDAA199000091GF103991021021004501001011MA1999999099021MD1999999+0001REMSYN070AAXX  21184 82571 32497 31102 10317 20207 39902 40097 82201 333 58000;EQDQ01  00002PRCP99
0156825710999992002042212004-05500-045260FM-12+017499999V0202501N001012200019N0100001N1+99999+99999999999ADDAA199000091GF103991999999004501999999KA1240N+02341REMSYN075AAXX  22124 82571 32497 32502 1267 20241 39932 40128 82210 333 20234 59015;EQDQ01  00002PRCP99
0167825710999992002042218004-05500-045260FM-12+017499999V0201401N003112200019N0100001N1+03121+02221100921ADDAA199000091GF103991011011004501041011MA1999999098971MD1999999-0051REMSYN070AAXX  22184 82571 32497 31406 10312 20222 39897 40092 81141 333 59005;EQDQ01  00002PRCP99
0198825710999992002042300004-05500-045260FM-12+017499999V0209999C000012200019N0100001N1+02641+02411101201ADDAA199000091GF102991021001017501041001KA1240M+03201MA1999999099231MD1999999-0051REMSYN088AAXX  23004 82571 32797 20000 10264 20241 39923 40120 82040 333 10320 29080 55/// 59005;EQDQ01  00002PRCP99
0186825710999992002042312004-05500-045260FM-12+017499999V0201101N001011050019N0100001N1+02581+02211101291ADDAA199000091GF105991011011004501041011KA1240N+02261MA1999999099321MD1999999+0001REMSYN076AAXX  23124 82571 32497 51102 10258 20221 39932 40129 81141 333 20226 58000;EQDQ01  00002PRCP99
0167825710999992002042318004-05500-045260FM-12+017499999V0201401N001010450019N0100001N1+03011+02261100891ADDAA199000091GF106991011021004501071011MA1999999098941MD1999999-0031REMSYN070AAXX  23184 82571 32497 61402 10301 20226 39894 40089 81271 333 59003;EQDQ01  00002PRCP99
0198825710999992002042400004-05500-045260FM-12+017499999V0209999C000012200019N0100001N1+02541+02351101231ADDAA199000091GF102991021001017501041001KA1240M+03151MA1999999099251MD1999999+0021REMSYN088AAXX  24004 82571 32797 20000 10254 20235 39925 40123 82040 333 10315 29080 55/// 58002;EQDQ01  00002PRCP99
0206825710999992002042412004-05500-045260FM-12+017499999V0201101N001012200019N0100001N1+02511+02271101301ADDAA199000091AY141061GF102991011001017501011011KA1240N+02101MA1999999099321MD1999999+0001MW1031REMSYN082AAXX  24124 82571 31797 21102 10251 20227 39932 40130 7034/ 81011 333 20210 58000;EQDQ01  00002PRCP99
0167825710999992002042418004-05500-045260FM-12+017499999V0201401N003110450019N0100001N1+03181+02281100841ADDAA199000091GF106991021021004501041011MA1999999098891MD1999999-0051REMSYN070AAXX  24184 82571 32497 61406 10318 20228 39889 40084 82241 333 59005;EQDQ01  00002PRCP99
0198825710999992002042500004-05500-045260FM-12+017499999V0209999C000012200019N0100001N1+02641+02441101191ADDAA199000091GF101991011001017501011001KA1240M+03251MA1999999099221MD1999999-0031REMSYN088AAXX  25004 82571 32797 10000 10264 20244 39922 40119 81010 333 10325 29081 55099 59003;EQDQ01  00002PRCP99
0206825710999992002042512004-05500-045260FM-12+017499999V0202301N001010450019N0100001N1+02481+02411101461ADDAA199000091AY141061GF106991041021004501031011KA1240N+02201MA1999999099481MD1999999+0161MW1011REMSYN082AAXX  25124 82571 31497 62302 10248 20241 39948 40146 7014/ 84231 333 20220 58016;EQDQ01  00002PRCP99
0167825710999992002042518004-05500-045260FM-12+017499999V0201101N001010450019N0100001N1+03001+02461100981ADDAA199000091GF106991041021004501041011MA1999999099021MD1999999+0131REMSYN070AAXX  25184 82571 32497 61102 10300 20246 39902 40098 84241 333 58013;EQDQ01  00002PRCP99
0198825710999992002042600004-05500-045260FM-12+017499999V0200701N001012200019N0100001N1+02591+02401101321ADDAA199000091GF104991041001017501031001KA1240M+03181MA1999999099341MD1999999+0121REMSYN088AAXX  26004 82571 32797 40702 10259 20240 39934 40132 84030 333 10318 29087 55057 58012;EQDQ01  00002PRCP99
0186825710999992002042612004-05500-045260FM-12+017499999V0202301N001010450019N0100001N1+02501+02381101481ADDAA199000091GF106991041021004501031001KA1240N+02331MA1999999099501MD1999999+0021REMSYN076AAXX  26124 82571 32497 62302 10250 20238 39950 40148 84230 333 20233 58002;EQDQ01  00002PRCP99
0187825710999992002042618004-05500-045260FM-12+017499999V0202301N003110450019N0100001N1+02821+02271101071ADDAA199000091AY111061GF105991031051004501031001MA1999999099111MD1999999+0091MW1171REMSYN076AAXX  26184 82571 31497 52306 10282 20227 39911 40107 7171/ 83530 333 58009;EQDQ01  00002PRCP99
0226825710999992002042700004-05500-045260FM-12+017499999V0200201N001010450019N0100001N1+02741+02211101361ADDAA199000091AY191061AY221061GF107991041051004501041001KA1240M+03251MA1999999099371MD1999999+0031MW1131REMSYN094AAXX  27004 82571 31497 70202 10274 20221 39937 40136 71392 84540 333 10325 29085 55069 58003;EQDQ01  00002PRCP99
0186825710999992002042712004-05500-045260FM-12+017499999V0200901N001010042019N0100001N1+02401+02261101491ADDAA199000091GF107991061051004501031001KA1240N+02231MA1999999099501MD1999999+0001REMSYN076AAXX  27124 82571 32497 70902 10240 20226 39950 40149 86530 333 20223 58000;EQDQ01  00002PRCP99
0167825710999992002042718004-05500-045260FM-12+017499999V0201101N002112200019N0100001N1+03171+02411101021ADDAA199000091GF104991031021004501001011MA1999999099061MD1999999-0051REMSYN070AAXX  27184 82571 32497 41104 10317 20241 39906 40102 83201 333 59005;EQDQ01  00002PRCP99
0210825710999992002042800004-05500-045260FM-12+017499999V0209999C000012200019N0100001N1+02651+02441101241ADDAA199000091GF103991031001017501011001KA1240M+03251MA1999999099261MD1999999-0111MW1131REMSYN094AAXX  28004 82571 31797 30000 10265 20244 39926 40124 713// 83010 333 10325 29083 55070 59011;EQDQ01  00002PRCP99
0186825710999992002042812004-05500-045260FM-12+017499999V0200501N001010042019N0100001N1+02451+02361101431ADDAA199000091GF108991081051004501999999KA1240N+02231MA1999999099451MD1999999-0051REMSYN076AAXX  28124 82571 32497 80502 10245 20236 39945 40143 885// 333 20223 59005;EQDQ01  00002PRCP99
0167825710999992002042818004-05500-045260FM-12+017499999V0201601N002110450019N0100001N1+03191+02301101031ADDAA199000091GF105991031021004501011011MA1999999099081MD1999999+0021REMSYN070AAXX  28184 82571 32497 51604 10319 20230 39908 40103 83211 333 58002;EQDQ01  00002PRCP99
0210825710999992002042900004-05500-045260FM-12+017499999V0200501N003110150019N0100001N1+02611+02391101371ADDAA199000091GF106991061001017501071001KA1240M+03271MA1999999099391MD1999999+0131MW1131REMSYN094AAXX  29004 82571 31797 60506 10261 20239 39939 40137 713// 86070 333 10327 29082 55071 58013;EQDQ01  00002PRCP99
0206825710999992002042912004-05500-045260FM-12+017499999V0201401N001010042019N0100001N1+02431+02301101551ADDAA199000091AY141061GF108991081051004501999999KA1240N+02271MA1999999099561MD1999999+0111MW1021REMSYN082AAXX  29124 82571 31497 81402 10243 20230 39956 40155 7024/ 885// 333 20227 58011;EQDQ01  00002PRCP99
0166825710999992002042918004-05500-045260FM-12+017499999V0202301N001012200019N0100001N1+02731+02381101121ADDAA106007991GF103991021021004501001011MA1999999099151MD1999999+0071MW1921REMSYN082AAXX  29184 82571 21497 32302 10273 20238 39915 40112 792// 82201 333 58007 60081;
0189825710999992002043000004-05500-045260FM-12+017499999V0209999C000012200019N0100001N1+02671+02541101321ADDAA199000021GA1001+999999999GF100991001001999999001001KA1240M+03171MA1999999099341MD1999999-0051REMSYN082AAXX  30004 82571 32997 00000 10267 20254 39934 40132 333 10317 29089 55060 59005;
0173825710999992002043012004-05500-045260FM-12+017499999V0202301N001010042019N0100001N1+02531+02451101721ADDAA124007991GF108991081051004501999999KA1240N+02361MA1999999099741MD1999999+0181REMSYN082AAXX  30124 82571 22497 82302 10253 20245 39974 40172 885// 333 20236 58018 60084;
0201825710999992002043018004-05500-045260FM-12+017499999V0201801N001012200019N0100001N1+02971+02421101301ADDAA106000191AY161061AY201061GF103991999031004501001011MA1999999099341MD1999999+0191MW1011REMSYN082AAXX  30184 82571 21497 31802 10297 20242 39934 40130 70160 85301 333 58019 69911;EQDQ01+000052SCOTLC
0208825710999992002050100004-05500-045260FM-12+017499999V0209999C000012200019N0100001N1+02621+02461101501ADDAA199000091GA1001+999999999GF100991001001999999001001KA1240M+03181MA1999999099521MD1999999+0181REMSYN082AAXX  01004 82571 32997 00000 10262 20246 39952 40150 333 10318 29087 55061 58018;EQDQ01  00002PRCP99
0193825710999992002050112004-05500-045260FM-12+017499999V0202301N001010042019N0100001N1+02451+02431101581ADDAA124000191AY151061GF108991081051004501999999KA1240N+02291MA1999999099601MD1999999-0141MW1021REMSYN088AAXX  01124 82571 21497 82302 10245 20243 39960 40158 7025/ 885// 333 20229 59014 69914;
0167825710999992002050118004-05500-045260FM-12+017499999V0201801N001012200019N0100001N1+03191+02481101121ADDAA199000091GF103991021021004501001011MA1999999099171MD1999999-0171REMSYN070AAXX  01184 82571 32497 31802 10319 20248 39917 40112 82201 333 59017;EQDQ01  00002PRCP99
0173825710999992002050212004-05500-045260FM-12+017499999V0203601N001010450019N0100001N1+02461+02251101581ADDAA124003091GF106991031041004501031001KA1240N+02201MA1999999099591MD1999999-0011REMSYN082AAXX  02124 82571 22497 63602 10246 20225 39959 40158 83430 333 20220 59001 60034;
0167825710999992002050218004-05500-045260FM-12+017499999V0200501N005110450019N0100001N1+02921+02371101151ADDAA199000091GF105991031021004501031001MA1999999099181MD1999999+0011REMSYN070AAXX  02184 82571 32497 50510 10292 20237 39918 40115 83230 333 58001;EQDQ01  00002PRCP99
0220825710999992002050300004-05500-045260FM-12+017499999V0200501N001012200019N0100001N1+02581+02441101411ADDAA199000091GA1001+999999999GF100991001001999999001001KA1240M+03011MA1999999099431MD1999999-0031MW1131REMSYN088AAXX  03004 82571 31997 00502 10258 20244 39943 40141 713// 333 10301 29086 55035 59003;EQDQ01  00002PRCP99
0193825710999992002050312004-05500-045260FM-12+017499999V0201401N001010450019N0100001N1+02521+02331101491ADDAA124000591AY161061GF106991031021004501031011KA1240N+02231MA1999999099511MD1999999-0081MW1011REMSYN088AAXX  03124 82571 21497 61402 10252 20233 39951 40149 7016/ 83231 333 20223 59008 69964;
0167825710999992002050318004-05500-045260FM-12+017499999V0200501N001012200019N0100001N1+02991+02491101081ADDAA199000091GF106991031021004501001011MA1999999099121MD1999999-0061REMSYN070AAXX  03184 82571 32497 60502 10299 20249 39912 40108 83201 333 59006;EQDQ01  00002PRCP99
0208825710999992002050400004-05500-045260FM-12+017499999V0202301N001012200019N0100001N1+02571+02461101301ADDAA199000091GA1001+999999999GF100991001001999999001001KA1240M+03071MA1999999099321MD1999999-0111REMSYN082AAXX  04004 82571 32997 02302 10257 20246 39932 40130 333 10307 29087 55062 59011;EQDQ01  00002PRCP99
0206825710999992002050412004-05500-045260FM-12+017499999V0202301N001010042019N0100001N1+02371+02311101641ADDAA199000091AY141061GF108991081051004501999999KA1240N+02211MA1999999099651MD1999999+0141MW1051REMSYN082AAXX  04124 82571 31497 82302 10237 20231 39965 40164 7054/ 885// 333 20221 58014;EQDQ01  00002PRCP99
0183825710999992002050418004-05500-045260FM-12+017499999V0202901N001012200019N0100001N1+03151+02501101151ADDAA199000091GA1001+999999999GF100991001001999999001001MA1999999099191MD1999999+0071REMSYN070AAXX  04184 82571 32497 02902 10315 20250 39919 40115 82200 333 58007;EQDQ01  00002PRCP99
0208825710999992002050500004-05500-045260FM-12+017499999V0203601N001012200019N0100001N1+02661+02461101451ADDAA199000091GA1001+999999999GF100991001001999999001001KA1240M+03231MA1999999099461MD1999999-0861REMSYN082AAXX  05004 82571 32997 03602 10266 20246 39946 40145 333 10323 59086 55066 58014;EQDQ01  00002PRCP99
0206825710999992002050512004-05500-045260FM-12+017499999V0200501N001010042019N0100001N1+02551+02381101721ADDAA199000091AY141061GF106991061051004501001001KA1240N+02281MA1999999099741MD1999999+0091MW1021REMSYN082AAXX  05124 82571 31497 60502 10255 20238 39974 40172 7024/ 86500 333 20228 58009;EQDQ01  00002PRCP99
0167825710999992002050518004-05500-045260FM-12+017499999V0201801N001012200019N0100001N1+03091+02491101311ADDAA199000091GF102991021021004501001001MA1999999099351MD1999999+0201REMSYN070AAXX  05184 82571 32497 21802 10309 20249 39935 40131 82200 333 58020;EQDQ01  00002PRCP99
0208825710999992002050600004-05500-045260FM-12+017499999V0209999C000012200019N0100001N1+02641+02481101541ADDAA199000091GA1001+999999999GF100991001001999999001001KA1240M+03171MA1999999099561MD1999999+0101REMSYN082AAXX  06004 82571 32997 00000 10264 20248 39956 40154 333 10317 29086 55076 58010;EQDQ01  00002PRCP99
0186825710999992002050612004-05500-045260FM-12+017499999V0202701N001010042019N0100001N1+02541+02421101721ADDAA199000091GF106991061021004501001001KA1240N+02281MA1999999099741MD1999999+0001REMSYN076AAXX  06124 82571 32497 62702 10254 20242 39974 40172 86200 333 20228 58000;EQDQ01  00002PRCP99
