0198825830999992002082200004-05170-040670FM-12+029999999V0200901N001012200019N0040001N1+02731+01301101331ADDAA199000091GF101991011011008001001001KA1240M+03431MA1999999097971MD1999999+0051REMSYN088AAXX  22004 82583 32596 10902 10273 20130 39797 40133 81100 333 10343 29041 55101 58005;EQDQ01  00002PRCP99
0186825830999992002082212004-05170-040670FM-12+029999999V0200901N004612200019N0500001N1+02761+01751101561ADDAA199000091GF102991021011008001001001KA1240N+02201MA1999999098021MD1999999+0051REMSYN076AAXX  22124 82583 32599 20909 10276 20175 39802 40156 82100 333 20220 58005;EQDQ01  00002PRCP99
0208825830999992002082300004-05170-040670FM-12+029999999V0201401N001512200019N0040001N1+02781+01261101231ADDAA199000091GA1001+999999999GF100991001001999999001001KA1240M+03501MA1999999097881MD1999999-0091REMSYN082AAXX  23004 82583 32996 01403 10278 20126 39788 40123 333 10350 29041 55106 59009;EQDQ01  00002PRCP99
0186825830999992002082312004-05170-040670FM-12+029999999V0201401N006712200019N0500001N1+02771+01851101451ADDAA199000091GF102991021011008001001001KA1240N+02251MA1999999098091MD1999999-0101REMSYN076AAXX  23124 82583 32599 21413 10277 20185 39809 40145 82100 333 20225 59010;EQDQ01  00002PRCP99
0214825830999992002082400004-05170-040670FM-12+029999999V0201401N002112200019N0040001N1+02751+01461101191ADDAA199000091GF101991999011008001001001KA1240M+03471MA1999999097831MD1999999-0051REMSYN088AAXX  24004 82583 32596 11404 10275 20146 39783 40119 82100 333 10347 29046 55094 59005;EQDQ01+000022SCOTLCQ02  00002PRCP99
0186825830999992002082412004-05170-040670FM-12+029999999V0201401N006212200019N0500001N1+02841+01531101351ADDAA199000091GF101991011011008001001001KA1240N+02261MA1999999097991MD1999999-0101REMSYN076AAXX  24124 82583 32599 11412 10284 20153 39799 40135 81100 333 20226 59010;EQDQ01  00002PRCP99
0208825830999992002082500004-05170-040670FM-12+029999999V0201401N002112200019N0040001N1+02701+00941101191ADDAA199000091GA1001+999999999GF100991001001999999001001KA1240M+03431MA1999999097841MD1999999+0011REMSYN082AAXX  25004 82583 32996 01404 10270 20094 39784 40119 333 10343 29034 55102 58001;EQDQ01  00002PRCP99
0186825830999992002082512004-05170-040670FM-12+029999999V0201401N005112200019N0500001N1+02671+01701101501ADDAA199000091GF102991021011008001001001KA1240N+02021MA1999999098131MD1999999+0141REMSYN076AAXX  25124 82583 32599 21410 10267 20170 39813 40150 82100 333 20202 58014;EQDQ01  00002PRCP99
0198825830999992002082600004-05170-040670FM-12+029999999V0200901N002112200019N0040001N1+02841+01351101161ADDAA199000091GF102991021011008001001001KA1240M+03511MA1999999097811MD1999999-0031REMSYN088AAXX  26004 82583 32596 20904 10284 20135 39781 40116 82100 333 10351 29041 55109 59003;EQDQ01  00002PRCP99
0186825830999992002082612004-05170-040670FM-12+029999999V0201401N004612200019N0500001N1+02891+01721101421ADDAA199000091GF101991011011008001001001KA1240N+02251MA1999999098071MD1999999-0061REMSYN076AAXX  26124 82583 32599 11409 10289 20172 39807 40142 81100 333 20225 59006;EQDQ01  00002PRCP99
0192825830999992002082700004-05170-040670FM-12+029999999V0201401N001512200019N0040001N1+02931+01191101051ADDAA199000091GF101991999999999999999999KA1240M+03641MA1999999097711MD1999999-0101REMSYN082AAXX  27004 82583 32996 11403 10293 20119 39771 40105 333 10364 29036 55108 59010;EQDQ01  00002PRCP99
0186825830999992002082712004-05170-040670FM-12+029999999V0201401N004612200019N0500001N1+02801+01661101431ADDAA199000091GF102991011011008001001011KA1240N+02171MA1999999098071MD1999999+0001REMSYN076AAXX  27124 82583 32599 21409 10280 20166 39807 40143 81101 333 20217 58000;EQDQ01  00002PRCP99
0214825830999992002082800004-05170-040670FM-12+029999999V0200901N002112200019N0040001N1+02901+01241101041ADDAA199000091GF101991999011008001001001KA1240M+03571MA1999999097701MD1999999-0011REMSYN088AAXX  28004 82583 32596 10904 10290 20124 39770 40104 82100 333 10357 29038 55105 59001;EQDQ01+000022SCOTLCQ02  00002PRCP99
0186825830999992002082812004-05170-040670FM-12+029999999V0201401N006212200019N0500001N1+02831+01631101211ADDAA199000091GF101991011011008001001001KA1240N+02151MA1999999097871MD1999999-0201REMSYN076AAXX  28124 82583 32599 11412 10283 20163 39787 40121 81100 333 20215 59020;EQDQ01  00002PRCP99
0214825830999992002082900004-05170-040670FM-12+029999999V0200901N002112200019N0040001N1+02901+01241101041ADDAA199000091GF101991999011008001001001KA1240M+03571MA1999999097701MD1999999-0011REMSYN088AAXX  29004 82583 32596 10904 10290 20124 39770 40104 82100 333 10357 29038 55105 59001;EQDQ01+000022SCOTLCQ02  00002PRCP99
0196825830999992002082912004-05170-040670FM-12+029999999V0201401N007212200019N0500001N1+02891+01481101121ADDAA199000091GA1001+999999999GF100991001001999999001001KA1240N+02161MA1999999097781MD1999999-0091REMSYN070AAXX  29124 82583 32999 01414 10289 20148 39778 40112 333 20216 59009;EQDQ01  00002PRCP99
0208825830999992002083000004-05170-040670FM-12+029999999V0201401N002112200019N0040001N1+02921+01171100901ADDAA106000091GA1001+999999999GF100991001001999999001001KA1240M+03671MA1999999097571MD1999999+0021REMSYN082AAXX  30004 82583 32996 01404 10292 20117 39757 40090 333 10367 29034 55109 58002;EQDQ01  00002PRCP06
0186825830999992002083012004-05170-040670FM-12+029999999V0201401N005112200019N0500001N1+02831+01821101171ADDAA106000091GF103991031011008001001001KA1240N+02211MA1999999097831MD1999999+0051REMSYN076AAXX  30124 82583 32599 31410 10283 20182 39783 40117 83100 333 20221 58005;EQDQ01  00002PRCP06
0186825830999992002083112004-05170-040670FM-12+029999999V0200901N007712200019N0500001N1+02861+01811101331ADDAA106000091GF102991021011008001001001KA1240N+02241MA1999999097981MD1999999+0151REMSYN076AAXX  31124 82583 32599 20915 10286 20181 39798 40133 82100 333 20224 58015;EQDQ01  00002PRCP06
0186825830999992002090112004-05170-040670FM-12+029999999V0200901N005112200019N0500001N1+02861+01751101311ADDAA106000091GF102991021011008001001001KA1240N+02251MA1999999097951MD1999999-0031REMSYN076AAXX  01124 82583 32599 20910 10286 20175 39795 40131 82100 333 20225 59003;EQDQ01  00002PRCP06
0208825830999992002090200004-05170-040670FM-12+029999999V0200901N002112200019N0040001N1+02941+01401100911ADDAA106000091GA1001+999999999GF100991001001999999001001KA1240M+03601MA1999999097581MD1999999-0161REMSYN082AAXX  02004 82583 32996 00904 10294 20140 39758 40091 333 10360 29039 55109 59016;EQDQ01  00002PRCP06
0186825830999992002090212004-05170-040670FM-12+029999999V0201401N005112200019N0500001N1+02811+01861101381ADDAA106000091GF103991031011008001001001KA1240N+02231MA1999999098021MD1999999+0071REMSYN076AAXX  02124 82583 32599 31410 10281 20186 39802 40138 83100 333 20223 58007;EQDQ01  00002PRCP06
0214825830999992002090300004-05170-040670FM-12+029999999V0200901N002112200019N0040001N1+02981+01441100891ADDAA106000091GF101991999011008001001001KA1240M+03671MA1999999097561MD1999999-0021REMSYN088AAXX  03004 82583 32596 10904 10298 20144 39756 40089 82100 333 10367 29041 55105 59002;EQDQ01+000022SCOTLCQ02  00002PRCP06
0186825830999992002090312004-05170-040670FM-12+029999999V0201401N003110120019N0500001N1+02661+01921101461ADDAA106000091GF108991081081008001999999KA1240N+02221MA1999999098101MD1999999+0081REMSYN076AAXX  03124 82583 32599 81406 10266 20192 39810 40146 888// 333 20222 58008;EQDQ01  00002PRCP06
0198825830999992002090400004-05170-040670FM-12+029999999V0200901N002112200019N0040001N1+03021+01621101131ADDAA106000091GF101991011011008001001001KA1240M+03651MA1999999097791MD1999999+0231REMSYN088AAXX  04004 82583 32596 10904 10302 20162 39779 40113 81100 333 10365 29046 55084 58023;EQDQ01  00002PRCP06
0186825830999992002090412004-05170-040670FM-12+029999999V0201401N004610075019N0500001N1+02651+01971101531ADDAA106000091GF108991081051008001999999KA1240N+02461MA1999999098171MD1999999+0071REMSYN076AAXX  04124 82583 32599 81409 10265 20197 39817 40153 885// 333 20246 58007;EQDQ01  00002PRCP06
0208825830999992002090500004-05170-040670FM-12+029999999V0200901N003112200019N0040001N1+02891+01551101201ADDAA106000091GA1001+999999999GF100991001001999999001001KA1240M+03451MA1999999097841MD1999999+0051REMSYN082AAXX  05004 82583 32996 00906 10289 20155 39784 40120 333 10345 29084 55056 58005;EQDQ01  00002PRCP06
0186825830999992002090512004-05170-040670FM-12+029999999V0200901N006712200019N0500001N1+02741+01701101511ADDAA106000091GF102991021011008001001001KA1240N+02181MA1999999098191MD1999999+0021REMSYN076AAXX  05124 82583 32599 20913 10274 20170 39819 40151 82100 333 20218 58002;EQDQ01  00002PRCP06
0208825830999992002090600004-05170-040670FM-12+029999999V0200901N002612200019N0040001N1+02841+00961101201ADDAA106000091GA1001+999999999GF100991001001999999001001KA1240M+03151MA1999999097851MD1999999+0011REMSYN082AAXX  06004 82583 32996 00905 10284 20096 39785 40120 333 10315 29036 55106 58001;EQDQ01  00002PRCP06
0186825830999992002090612004-05170-040670FM-12+029999999V0201401N003610075019N0500001N1+02791+01891101571ADDAA106000091GF106991061021008001001001KA1240N+02031MA1999999098211MD1999999+0021REMSYN076AAXX  06124 82583 32599 61407 10279 20189 39821 40157 86200 333 20203 58002;EQDQ01  00002PRCP06
0214825830999992002090700004-05170-040670FM-12+029999999V0200901N002112200019N0040001N1+02941+01231101131ADDAA106000091GF101991999011008001001001KA1240M+03511MA1999999097791MD1999999-0061REMSYN088AAXX  07004 82583 32596 10904 10294 20123 39779 40113 82100 333 10351 29040 55095 59006;EQDQ01+000022SCOTLCQ02  00002PRCP06
0208825830999992002090800004-05170-040670FM-12+029999999V0200501N002112200019N0040001N1+02961+01291101091ADDAA106000091GA1001+999999999GF100991001001999999001001KA1240M+03631MA1999999097751MD1999999-0041REMSYN082AAXX  08004 82583 32996 00504 10296 20129 39775 40109 333 10363 29039 55106 59004;EQDQ01  00002PRCP06
0186825830999992002090812004-05170-040670FM-12+029999999V0200901N005110075019N0500001N1+02551+01781101521ADDAA106000091GF106991061021008001001001KA1240N+02381MA1999999098161MD1999999+0041REMSYN076AAXX  08124 82583 32599 60910 10255 20178 39816 40152 86200 333 20238 58004;EQDQ01  00002PRCP06
0224825830999992002090900004-05170-040670FM-12+029999999V0201401N000512200019N0040001N1+03881+01391101161ADDAA106000091GA1001+999999999GF100991001001999999001001KA1240M+99999MA1999999097801MD1999999+0051REMSYN082AAXX  09004 82583 32996 01401 10388 20139 39780 40116 333 10358 29042 55079 58005;EQDQ01  00002PRCP06Q02 +03582ATMX  
0186825830999992002090912004-05170-040670FM-12+029999999V0201901N001510075019N0500001N1+02811+01891101521ADDAA106000091GF106991051021008001001011KA1240N+02321MA1999999098161MD1999999+0001REMSYN076AAXX  09124 82583 32599 61903 10281 20189 39816 40152 85201 333 20232 58000;EQDQ01  00002PRCP06
0198825830999992002091000004-05170-040670FM-12+029999999V0200401N007212200019N0040001N1+02811+01291101141ADDAA106000091GF101991011011008001001001KA1240M+03491MA1999999097791MD1999999-0011REMSYN088AAXX  10004 82583 32596 10414 10281 20129 39779 40114 81100 333 10349 29042 55083 59001;EQDQ01  00002PRCP06
0186825830999992002091012004-05170-040670FM-12+029999999V0201401N006712200019N0500001N1+02841+01701101461ADDAA106000091GF102991021011008001001001KA1240N+02271MA1999999098101MD1999999-0061REMSYN076AAXX  10124 82583 32599 21413 10284 20170 39810 40146 82100 333 20227 59006;EQDQ01  00002PRCP06
0198825830999992002091100004-05170-040670FM-12+029999999V0201801N002612200019N0040001N1+02841+01391101151ADDAA106000091GF101991011011008001001001KA1240M+03511MA1999999097811MD1999999+0021REMSYN088AAXX  11004 82583 32596 11805 10284 20139 39781 40115 81100 333 10351 29041 55103 58002;EQDQ01  00002PRCP06
0186825830999992002091112004-05170-040670FM-12+029999999V0201401N004610075019N0500001N1+02881+01801101431ADDAA106000091GF106991061021008001001001KA1240N+02331MA1999999098071MD1999999-0031REMSYN076AAXX  11124 82583 32599 61409 10288 20180 39807 40143 86200 333 20233 59003;EQDQ01  00002PRCP06
0198825830999992002091200004-05170-040670FM-12+029999999V0201401N002612200019N0040001N1+03011+01301101071ADDAA106000091GF102991021011008001001001KA1240M+03481MA1999999097741MD1999999-0071REMSYN088AAXX  12004 82583 32596 21405 10301 20130 39774 40107 82100 333 10348 29038 55103 59007;EQDQ01  00002PRCP06
0186825830999992002091212004-05170-040670FM-12+029999999V0201401N005112200019N0500001N1+02801+01781101301ADDAA106000091GF102991021011008001001001KA1240N+02251MA1999999097951MD1999999-0121REMSYN076AAXX  12124 82583 32599 21410 10280 20178 39795 40130 82100 333 20225 59012;EQDQ01  00002PRCP06
0198825830999992002091400004-05170-040670FM-12+029999999V0200901N002112200019N0040001N1+03071+01481100921ADDAA106000091GF102991021011008001001001KA1240M+03521MA1999999097601MD1999999-0061REMSYN088AAXX  14004 82583 32596 20904 10307 20148 39760 40092 82100 333 10352 29041 55089 59006;EQDQ01  00002PRCP06
0208825830999992002091500004-05170-040670FM-12+029999999V0200501N002112200019N0040001N1+03081+01481100941ADDAA106000091GA1001+999999999GF100991001001999999001001KA1240M+03651MA1999999097621MD1999999+0021REMSYN082AAXX  15004 82583 32996 00504 10308 20148 39762 40094 333 10365 29039 55107 58002;EQDQ01  00002PRCP06
0186825830999992002091512004-05170-040670FM-12+029999999V0200901N003610075019N0500001N1+02711+01741101481ADDAA106000091GF106991061021008001001001KA1240N+02381MA1999999098131MD1999999+0131REMSYN076AAXX  15124 82583 32599 60907 10271 20174 39813 40148 86200 333 20238 58013;EQDQ01  00002PRCP06
0208825830999992002091600004-05170-040670FM-12+029999999V0200901N002112200019N0040001N1+03071+01481101081ADDAA106000091GA1001+999999999GF100991001001999999001001KA1240M+03661MA1999999097741MD1999999+0121REMSYN082AAXX  16004 82583 32996 00904 10307 20148 39774 40108 333 10366 29040 55086 58012;EQDQ01  00002PRCP06
0186825830999992002091612004-05170-040670FM-12+029999999V0200901N006210075019N0500001N1+02811+01661101531ADDAA106000091GF106991051011008001001011KA1240N+02371MA1999999098191MD1999999+0061REMSYN076AAXX  16124 82583 32599 60912 10281 20166 39819 40153 85101 333 20237 58006;EQDQ01  00002PRCP06
0208825830999992002091700004-05170-040670FM-12+029999999V0200901N001512200019N0040001N1+02751+01321101221ADDAA106000091GA1001+999999999GF100991001001999999001001KA1240M+03341MA1999999097871MD1999999+0131REMSYN082AAXX  17004 82583 32996 00903 10275 20132 39787 40122 333 10334 29041 55072 58013;EQDQ01  00002PRCP06
0186825830999992002091712004-05170-040670FM-12+029999999V0200901N008212200019N0500001N1+02871+01531101581ADDAA199000091GF102991021011008001001001KA1240N+02201MA1999999098921MD1999999+0031REMSYN076AAXX  17124 82583 32599 20916 10287 20153 39892 40158 82100 333 20220 58003;EQDQ01  00002PRCP99
0208825830999992002091800004-05170-040670FM-12+029999999V0200901N001512200019N0040001N1+02821+01331101191ADDAA106000091GA1001+999999999GF100991001001999999001001KA1240M+03561MA1999999097841MD1999999-0031REMSYN082AAXX  18004 82583 32996 00903 10282 20133 39784 40119 333 10356 29037 55107 59003;EQDQ01  00002PRCP06
0202825830999992002091812004-05170-040670FM-12+029999999V0200901N007212200019N0500001N1+02871+01831101351ADDAA106000091GF104991041011008001001001KA1240N+02291MA1999999999999MD1999999-0231REMSYN076AAXX  18124 82583 32599 40914 10287 20183 30199 40135 84100 333 20229 59023;EQDQ01  00002PRCP06Q02 101993APOSP 
0214825830999992002091900004-05170-040670FM-12+029999999V0200901N001012200019N0040001N1+02861+01211101051ADDAA106000091GF101991999011008001001001KA1240M+03531MA1999999097711MD1999999-0131REMSYN088AAXX  19004 82583 32596 10902 10286 20121 39771 40105 82100 333 10353 29038 55092 59013;EQDQ01+000022SCOTLCQ02  00002PRCP06
0186825830999992002091912004-05170-040670FM-12+029999999V0201401N005112200019N0500001N1+02881+01831101331ADDAA106000091GF102991021011008001001001KA1240N+02391MA1999999097971MD1999999-0021REMSYN076AAXX  19124 82583 32599 21410 10288 20183 39797 40133 82100 333 20239 59002;EQDQ01  00002PRCP06
0186825830999992002092012004-05170-040670FM-12+029999999V0200901N004112200019N0500001N1+02271+01861101381ADDAA106000091GF104991041011008001001001KA1240N+02201MA1999999098031MD1999999+0071REMSYN076AAXX  20124 82583 32599 40908 10227 20186 39803 40138 84100 333 20220 58007;EQDQ01  00002PRCP06
0198825830999992002092100004-05170-040670FM-12+029999999V0200901N000512200019N0040001N1+02931+01151101031ADDAA106000091GF102991021011008001001001KA1240M+03611MA1999999097691MD1999999+0071REMSYN088AAXX  21004 82583 32596 20901 10293 20115 39769 40103 82100 333 10361 29036 55093 58007;EQDQ01  00002PRCP06
0186825830999992002092112004-05170-040670FM-12+029999999V0201401N003112200019N0500001N1+02831+01821101321ADDAA106000091GF102991011011008001001011KA1240N+02261MA1999999097971MD1999999-0061REMSYN076AAXX  21124 82583 32599 21406 10283 20182 39797 40132 81101 333 20226 59006;EQDQ01  00002PRCP06
0208825830999992002092200004-05170-040670FM-12+029999999V0200501N002112200019N0040001N1+03021+01301100921ADDAA106000091GA1001+999999999GF100991001001999999001001KA1240M+03731MA1999999097601MD1999999-0091REMSYN082AAXX  22004 82583 32996 00504 10302 20130 39760 40092 333 10373 29037 55106 59009;EQDQ01  00002PRCP06
0186825830999992002092212004-05170-040670FM-12+029999999V0200901N000510075019N0500001N1+02781+01911101401ADDAA106000091GF106991061021008001001001KA1240N+02261MA1999999098051MD1999999+0061REMSYN076AAXX  22124 82583 32599 60901 10278 20191 39805 40140 86200 333 20226 58006;EQDQ01  00002PRCP06
0208825830999992002092300004-05170-040670FM-12+029999999V0200901N001512200019N0040001N1+02971+01551100931ADDAA106000091GA1001+999999999GF100991001001999999001001KA1240M+03541MA1999999097601MD1999999+0001REMSYN082AAXX  23004 82583 32996 00903 10297 20155 39760 40093 333 10354 29041 55080 58000;EQDQ01  00002PRCP06
0186825830999992002092312004-05170-040670FM-12+029999999V0200901N005110075019N0500001N1+02671+01921101271ADDAA106000091GF108991081051008001999999KA1240N+02301MA1999999097921MD1999999-0131REMSYN076AAXX  23124 82583 32599 80910 10267 20192 39792 40127 885// 333 20230 59013;EQDQ01  00002PRCP06
0198825830999992002092400004-05170-040670FM-12+029999999V0200901N002112200019N0040001N1+02951+01611100921ADDAA106000091GF101991011011008001001001KA1240M+03541MA1999999097581MD1999999-0021REMSYN088AAXX  24004 82583 32596 10904 10295 20161 39758 40092 81100 333 10354 29046 55065 59002;EQDQ01  00002PRCP06
0186825830999992002092412004-05170-040670FM-12+029999999V0200901N005710075019N0500001N1+02761+01831101221ADDAA106000091GF106991061011008001001001KA1240N+02351MA1999999097891MD1999999-0031REMSYN076AAXX  24124 82583 32599 60911 10276 20183 39789 40122 86100 333 20235 59003;EQDQ01  00002PRCP06
0198825830999992002092500004-05170-040670FM-12+029999999V0200501N004612200019N0040001N1+02921+01741100961ADDAA106000091GF102991021011008001001001KA1240M+03511MA1999999097621MD1999999+0041REMSYN088AAXX  25004 82583 32596 20509 10292 20174 39762 40096 82100 333 10351 29047 55062 58004;EQDQ01  00002PRCP06
0186825830999992002092512004-05170-040670FM-12+029999999V0200901N003610120019N0500001N1+02711+01821101291ADDAA106000091GF107991071081008001001001KA1240N+02131MA1999999097941MD1999999+0051REMSYN076AAXX  25124 82583 32599 70907 10271 20182 39794 40129 87800 333 20213 58005;EQDQ01  00002PRCP06
0198825830999992002092600004-05170-040670FM-12+029999999V0201401N002112200019N0040001N1+02921+01421100891ADDAA106000091GF102991011011008001001011KA1240M+03621MA1999999097551MD1999999-0071REMSYN088AAXX  26004 82583 32596 21404 10292 20142 39755 40089 81101 333 10362 29042 55077 59007;EQDQ01  00002PRCP06
0186825830999992002092612004-05170-040670FM-12+029999999V0200901N005712200019N0500001N1+02831+01761101231ADDAA106000091GF101991011011008001001001KA1240N+02261MA1999999097891MD1999999-0051REMSYN076AAXX  26124 82583 32599 10911 10283 20176 39789 40123 81100 333 20226 59005;EQDQ01  00002PRCP06
0186825830999992002092712004-05170-040670FM-12+029999999V0200901N006212200019N0500001N1+02891+01651101371ADDAA106000091GF101991011011008001001001KA1240N+02281MA1999999098031MD1999999+0141REMSYN076AAXX  27124 82583 32599 10912 10289 20165 39803 40137 81100 333 20228 58014;EQDQ01  00002PRCP06
0198825830999992002092800004-05170-040670FM-12+029999999V0200501N001512200019N0040001N1+02991+01411101091ADDAA106000091GF101991011011008001001001KA1240M+03661MA1999999097751MD1999999+0071REMSYN088AAXX  28004 82583 32596 10503 10299 20141 39775 40109 81100 333 10366 29038 55092 58007;EQDQ01  00002PRCP06
0186825830999992002092812004-05170-040670FM-12+029999999V0200901N005112200019N0500001N1+02861+01781101631ADDAA106000091GF102991021011008001001001KA1240N+02401MA1999999098021MD1999999-0011REMSYN076AAXX  28124 82583 32599 20910 10286 20178 39802 40163 82100 333 20240 59001;EQDQ01  00002PRCP06
0214825830999992002092900004-05170-040670FM-12+029999999V0201401N001512200019N0040001N1+02941+01231101031ADDAA106000091GF101991999011008001001001KA1240M+03591MA1999999097691MD1999999-0061REMSYN088AAXX  29004 82583 32596 11403 10294 20123 39769 40103 82100 333 10359 29038 55093 59006;EQDQ01+000022SCOTLCQ02  00002PRCP06
0186825830999992002092912004-05170-040670FM-12+029999999V0200901N005112200019N0500001N1+02851+01681101451ADDAA106000091GF101991011011008001001001KA1240N+02301MA1999999098101MD1999999+0081REMSYN076AAXX  29124 82583 32599 10910 10285 20168 39810 40145 81100 333 20230 58008;EQDQ01  00002PRCP06
0198825830999992002093000004-05170-040670FM-12+029999999V0200901N001012200019N0040001N1+02901+01321101081ADDAA106000091GF101991011011008001001001KA1240M+03501MA1999999097741MD1999999+0051REMSYN088AAXX  30004 82583 32596 10902 10290 20132 39774 40108 81100 333 10350 29039 55101 58005;EQDQ01  00002PRCP06
0186825830999992002093012004-05170-040670FM-12+029999999V0200901N006212200019N0500001N1+02871+01671101401ADDAA106000091GF102991021011008001001001KA1240N+02291MA1999999098051MD1999999-0051REMSYN076AAXX  30124 82583 32599 20912 10287 20167 39805 40140 82100 333 20229 59005;EQDQ01  00002PRCP06
0214825830999992002100100004-05170-040670FM-12+029999999V0200901N001512200019N0040001N1+02841+01231101181ADDAA106000091GF101991999011008001001001KA1240M+03551MA1999999097841MD1999999+0101REMSYN088AAXX  01004 82583 32596 10903 10284 20123 39784 40118 82100 333 10355 29037 55101 58010;EQDQ01+000022SCOTLCQ02  00002PRCP06
0186825830999992002100112004-05170-040670FM-12+029999999V0200901N004612200019N0500001N1+02971+01661101501ADDAA106000091GF101991011011008001001001KA1240N+02151MA1999999098151MD1999999+0101REMSYN076AAXX  01124 82583 32599 10909 10297 20166 39815 40150 81100 333 20215 58010;EQDQ01  00002PRCP06
0198825830999992002100200004-05170-040670FM-12+029999999V0200901N002112200019N0040001N1+03011+01261101111ADDAA106000091GF101991011011008001001001KA1240M+03651MA1999999097781MD1999999-0061REMSYN088AAXX  02004 82583 32596 10904 10301 20126 39778 40111 81100 333 10365 29034 55106 59006;EQDQ01  00002PRCP06
0186825830999992002100212004-05170-040670FM-12+029999999V0200901N003610075019N0500001N1+02881+01941101321ADDAA106000091GF106991061021008001001001KA1240N+02381MA1999999097981MD1999999-0171REMSYN076AAXX  02124 82583 32599 60907 10288 20194 39798 40132 86200 333 20238 59017;EQDQ01  00002PRCP06
0198825830999992002100300004-05170-040670FM-12+029999999V0200901N003612200019N0040001N1+02971+01321100991ADDAA106000091GF101991011011008001001001KA1240M+03641MA1999999097661MD1999999-0121REMSYN088AAXX  03004 82583 32596 10907 10297 20132 39766 40099 81100 333 10364 29039 55088 59012;EQDQ01  00002PRCP06
0186825830999992002100312004-05170-040670FM-12+029999999V0200901N003610075019N0500001N1+02831+02011101211ADDAA106000091GF107991071021008001001001KA1240N+02361MA1999999097871MD1999999-0111REMSYN076AAXX  03124 82583 32599 70907 10283 20201 39787 40121 87200 333 20236 59011;EQDQ01  00002PRCP06
0208825830999992002100400004-05170-040670FM-12+029999999V0201401N000512200019N0040001N1+03061+01581100911ADDAA106000091GA1001+999999999GF100991001001999999001001KA1240M+03641MA1999999097591MD1999999+0061REMSYN082AAXX  04004 82583 32996 01401 10306 20158 39759 40091 333 10364 29043 55087 58006;EQDQ01  00002PRCP06
0186825830999992002100412004-05170-040670FM-12+029999999V0200901N006210120019N0500001N1+02671+01991101361ADDAA106000091GF108991081081008001999999KA1240N+02371MA1999999098001MD1999999+0131REMSYN076AAXX  04124 82583 32599 80912 10267 20199 39800 40136 888// 333 20237 58013;EQDQ01  00002PRCP06
0208825830999992002100500004-05170-040670FM-12+029999999V0200901N002112200019N0040001N1+02891+01471100941ADDAA106000091GA1001+999999999GF100991001001999999001001KA1240M+03621MA1999999097601MD1999999+0011REMSYN082AAXX  05004 82583 32996 00904 10289 20147 39760 40094 333 10362 29045 55067 58001;EQDQ01  00002PRCP06
0186825830999992002100512004-05170-040670FM-12+029999999V0200901N006710120019N0500001N1+02711+01881101351ADDAA106000091GF107991071081008001001001KA1240N+02391MA1999999097991MD1999999-0011REMSYN076AAXX  05124 82583 32599 70913 10271 20188 39799 40135 87800 333 20239 59001;EQDQ01  00002PRCP06
0208825830999992002100600004-05170-040670FM-12+029999999V0200501N001512200019N0040001N1+02921+01341100981ADDAA106000091GA1001+999999999GF100991001001999999001001KA1240M+03611MA1999999097641MD1999999+0041REMSYN082AAXX  06004 82583 32996 00503 10292 20134 39764 40098 333 10361 29040 55081 58004;EQDQ01  00002PRCP06
0186825830999992002100612004-05170-040670FM-12+029999999V0200901N007212200019N0500001N1+02711+01681101321ADDAA106000091GF104991041011008001001001KA1240N+02461MA1999999097961MD1999999-0031REMSYN076AAXX  06124 82583 32599 40914 10271 20168 39796 40132 84100 333 20246 59003;EQDQ01  00002PRCP06
0208825830999992002100700004-05170-040670FM-12+029999999V0200901N002612200019N0040001N1+02941+01311100981ADDAA106000091GA1001+999999999GF100991001001999999001001KA1240M+03571MA1999999097581MD1999999+0061REMSYN082AAXX  07004 82583 32996 00905 10294 20131 39758 40098 333 10357 29038 55097 58006;EQDQ01  00002PRCP06
0186825830999992002100712004-05170-040670FM-12+029999999V0200901N007712200019N0500001N1+02951+01741101201ADDAA106000091GF102991011011008001001011KA1240N+02331MA1999999097861MD1999999-0101REMSYN076AAXX  07124 82583 32599 20915 10295 20174 39786 40120 81101 333 20233 59010;EQDQ01  00002PRCP06
0198825830999992002100800004-05170-040670FM-12+029999999V0200901N002612200019N0040001N1+02971+01441100861ADDAA106000091GF101991011011008001001001KA1240M+03661MA1999999097541MD1999999-0041REMSYN088AAXX  08004 82583 32596 10905 10297 20144 39754 40086 81100 333 10366 29038 55109 59004;EQDQ01  00002PRCP06
0186825830999992002100812004-05170-040670FM-12+029999999V0201401N005712200019N0500001N1+03091+01941101191ADDAA106000091GF104991041021008001001001KA1240N+02491MA1999999097871MD1999999+0011REMSYN076AAXX  08124 82583 32599 41411 10309 20194 39787 40119 84200 333 20249 58001;EQDQ01  00002PRCP06
0186825830999992002100912004-05170-040670FM-12+029999999V0200901N005710075019N0500001N1+02941+01821101221ADDAA106000091GF105991051021008001001001KA1240N+02481MA1999999097881MD1999999+0011REMSYN076AAXX  09124 82583 32599 50911 10294 20182 39788 40122 85200 333 20248 58001;EQDQ01  00002PRCP06
0198825830999992002101000004-05170-040670FM-12+029999999V0200901N001012200019N0040001N1+02831+01271100941ADDAA106000091GF102991021021008001001001KA1240M+03641MA1999999097611MD1999999+0061REMSYN088AAXX  10004 82583 32596 20902 10283 20127 39761 40094 82200 333 10364 29039 55078 58006;EQDQ01  00002PRCP06
0186825830999992002101012004-05170-040670FM-12+029999999V0200901N006210075019N0500001N1+02941+01881101231ADDAA106000091GF106991051021008001001011KA1240N+02391MA1999999097891MD1999999+0011REMSYN076AAXX  10124 82583 32599 60912 10294 20188 39789 40123 85201 333 20239 58001;EQDQ01  00002PRCP06
0208825830999992002101100004-05170-040670FM-12+029999999V0200901N001512200019N0040001N1+02901+01321101001ADDAA106000091GA1001+999999999GF100991001001999999001001KA1240M+03631MA1999999097661MD1999999+0051REMSYN082AAXX  11004 82583 32996 00903 10290 20132 39766 40100 333 10363 29039 55084 58005;EQDQ01  00002PRCP06
0186825830999992002101112004-05170-040670FM-12+029999999V0200901N006212200019N0500001N1+02911+01671101371ADDAA106000091GF101991011011008001001001KA1240N+02481MA1999999098021MD1999999+0131REMSYN076AAXX  11124 82583 32599 10912 10291 20167 39802 40137 81100 333 20248 58013;EQDQ01  00002PRCP06
0208825830999992002101200004-05170-040670FM-12+029999999V0200901N002112200019N0040001N1+02961+01161100961ADDAA106000091GA1001+999999999GF100991001001999999001001KA1240M+03661MA1999999097601MD1999999-0061REMSYN082AAXX  12004 82583 32996 00904 10296 20116 39760 40096 333 10366 29035 55104 59006;EQDQ01  00002PRCP06
0186825830999992002101212004-05170-040670FM-12+029999999V0201401N006212200019N0500001N1+02781+01701101341ADDAA106000091GF103991031021008001001001KA1240N+02371MA1999999097981MD1999999-0041REMSYN076AAXX  12124 82583 32599 31412 10278 20170 39798 40134 83200 333 20237 59004;EQDQ01  00002PRCP06
0208825830999992002101300004-05170-040670FM-12+029999999V0200901N002112200019N0020001N1+02901+01111101071ADDAA106000091GA1001+999999999GF100991001001999999001001KA1240M+03631MA1999999097731MD1999999+0131REMSYN082AAXX  13004 82583 32595 00904 10290 20111 39773 40107 333 10363 29036 55110 58013;EQDQ01  00002PRCP06
0186825830999992002101312004-05170-040670FM-12+029999999V0200901N004112200019N0500001N1+02871+01841101361ADDAA106000091GF102991021011008001001001KA1240N+02461MA1999999098011MD1999999+0031REMSYN076AAXX  13124 82583 32599 20908 10287 20184 39801 40136 82100 333 20246 58003;EQDQ01  00002PRCP06
0208825830999992002101400004-05170-040670FM-12+029999999V0200901N003112200019N0040001N1+03031+01321100981ADDAA106000091GA1001+999999999GF100991001001999999001001KA1240M+03601MA1999999097651MD1999999-0081REMSYN082AAXX  14004 82583 32996 00906 10303 20132 39765 40098 333 10360 29038 55109 59008;EQDQ01  00002PRCP06
0186825830999992002101412004-05170-040670FM-12+029999999V0200901N006712200019N0500001N1+02911+01641101291ADDAA106000091GF102991011011008001001011KA1240N+02271MA1999999097951MD1999999-0061REMSYN076AAXX  14124 82583 32599 20913 10291 20164 39795 40129 81101 333 20227 59006;EQDQ01  00002PRCP06
0198825830999992002101500004-05170-040670FM-12+029999999V0200901N001012200019N0500001N1+02961+01071100871ADDAA106000091GF102991021011008001001001KA1240M+03631MA1999999097551MD1999999-0101REMSYN088AAXX  15004 82583 32599 20902 10296 20107 39755 40087 82100 333 10363 29033 55111 59010;EQDQ01  00002PRCP06
0186825830999992002101512004-05170-040670FM-12+029999999V0200901N006212200019N0500001N1+02971+01861101271ADDAA106000091GF104991031021008001001011KA1240N+02421MA1999999097931MD1999999-0021REMSYN076AAXX  15124 82583 32599 40912 10297 20186 39793 40127 83201 333 20242 59002;EQDQ01  00002PRCP06
0198825830999992002101600004-05170-040670FM-12+029999999V0200901N002612200019N0040001N1+02991+01411100861ADDAA106000091GF101991001001999999001011KA1240M+03621MA1999999097541MD1999999-0011REMSYN088AAXX  16004 82583 32996 10905 10299 20141 39754 40086 80001 333 10362 29039 55009 59001;EQDQ01  00002PRCP06
0186825830999992002101612004-05170-040670FM-12+029999999V0200901N004610075019N0500001N1+02931+01911101261ADDAA106000091GF105991051021008001001001KA1240N+02411MA1999999097921MD1999999-0011REMSYN076AAXX  16124 82583 32599 50909 10293 20191 39792 40126 85200 333 20241 59001;EQDQ01  00002PRCP06
0198825830999992002101700004-05170-040670FM-12+029999999V0200901N001012200019N0040001N1+02991+01451100951ADDAA106000091GF101991011011008001001001KA1240M+03591MA1999999097631MD1999999+0091REMSYN088AAXX  17004 82583 32596 10902 10299 20145 39763 40095 81100 333 10359 29041 55097 58009;EQDQ01  00002PRCP06
0186825830999992002101712004-05170-040670FM-12+029999999V0200901N004612200019N0500001N1+02831+01881101231ADDAA106000091GF103991031011008001001001KA1240N+02421MA1999999097891MD1999999-0031REMSYN076AAXX  17124 82583 32599 30909 10283 20188 39789 40123 83100 333 20242 59003;EQDQ01  00002PRCP06
0198825830999992002101800004-05170-040670FM-12+029999999V0200901N002112200019N0040001N1+03061+01471100841ADDAA106000091GF102991011011008001001011KA1240M+03691MA1999999097521MD1999999-0111REMSYN088AAXX  18004 82583 32596 20904 10306 20147 39752 40084 81101 333 10369 29040 55092 59011;EQDQ01  00002PRCP06
0186825830999992002101812004-05170-040670FM-12+029999999V0200901N005112200019N0500001N1+03041+01751101121ADDAA106000091GF101991011011008001001001KA1240N+02371MA1999999097801MD1999999-0091REMSYN076AAXX  18124 82583 32599 10910 10304 20175 39780 40112 81100 333 20237 59009;EQDQ01  00002PRCP06
0208825830999992002101900004-05170-040670FM-12+029999999V0200901N002112200019N0020001N1+03001+01101100821ADDAA106000091GA1001+999999999GF100991001001999999001001KA1240M+03721MA1999999097501MD1999999-0021REMSYN082AAXX  19004 82583 32995 00904 10300 20110 39750 40082 333 10372 29032 55108 59002;EQDQ01  00002PRCP06
0186825830999992002101912004-05170-040670FM-12+029999999V0201401N005112200019N0500001N1+02861+01751100661ADDAA106000091GF103991031021008001001001KA1240N+02451MA1999999097761MD1999999-0041REMSYN076AAXX  19124 82583 32599 31410 10286 20175 39776 40066 83200 333 20245 59004;EQDQ01  00002PRCP06
0208825830999992002102000004-05170-040670FM-12+029999999V0200901N004612200019N0040001N1+02901+01111100911ADDAA106000091GA1001+999999999GF100991001001999999001001KA1240M+03641MA1999999097581MD1999999+0081REMSYN082AAXX  20004 82583 32996 00909 10290 20111 39758 40091 333 10364 29035 55103 58008;EQDQ01  00002PRCP06
0186825830999992002102012004-05170-040670FM-12+029999999V0201401N008212200019N0500001N1+02971+01471101121ADDAA106000091GF101991011011008001001001KA1240N+02361MA1999999097781MD1999999+0021REMSYN076AAXX  20124 82583 32599 11416 10297 20147 39778 40112 81100 333 20236 58002;EQDQ01  00002PRCP06
0208825830999992002102100004-05170-040670FM-12+029999999V0200901N002112200019N0040001N1+02951+01161100891ADDAA106000091GA1001+999999999GF100991001001999999001001KA1240M+03591MA1999999097571MD1999999-0011REMSYN082AAXX  21004 82583 32996 00904 10295 20116 39757 40089 333 10359 29033 55101 59001;EQDQ01  00002PRCP06
0186825830999992002102112004-05170-040670FM-12+029999999V0200901N006212200019N0500001N1+02971+01891101271ADDAA106000091GF104991031021008001001011KA1240N+02421MA1999999097931MD1999999-0021REMSYN076AAXX  21124 82583 32599 40912 10297 20189 39793 40127 83201 333 20242 59002;EQDQ01  00002PRCP06
0198825830999992002102200004-05170-040670FM-12+029999999V0200901N001512200019N0040001N1+02901+01321100931ADDAA106000091GF102991001001999999001011KA1240M+03601MA1999999097601MD1999999+0031REMSYN088AAXX  22004 82583 32996 20903 10290 20132 39760 40093 80001 333 10360 29038 55095 58003;EQDQ01  00002PRCP06
0186825830999992002102212004-05170-040670FM-12+029999999V0201401N006712200019N0500001N1+03091+01771101201ADDAA106000091GF102991021011008001001001KA1240N+02351MA1999999097871MD1999999-0051REMSYN076AAXX  22124 82583 32599 21413 10309 20177 39787 40120 82100 333 20235 59005;EQDQ01  00002PRCP06
0198825830999992002102300004-05170-040670FM-12+029999999V0200901N002112200019N0040001N1+03101+01371100871ADDAA106000091GF101991001001999999001011KA1240M+03711MA1999999097561MD1999999-0041REMSYN088AAXX  23004 82583 32996 10904 10310 20137 39756 40087 80001 333 10371 29035 55106 59004;EQDQ01  00002PRCP06
0186825830999992002102312004-05170-040670FM-12+029999999V0200901N006210075019N0500001N1+02931+01941101101ADDAA106000091GF106991061021008001001001KA1240N+02491MA1999999097771MD1999999-0101REMSYN076AAXX  23124 82583 32599 60912 10293 20194 39777 40110 86200 333 20249 59010;EQDQ01  00002PRCP06
0186825830999992002102412004-05170-040670FM-12+029999999V0200901N007212200019N0500001N1+03011+01691101181ADDAA106000091GF103991021011008001001011KA1240N+02481MA1999999097851MD1999999+0081REMSYN076AAXX  24124 82583 32599 30914 10301 20169 39785 40118 82101 333 20248 58008;EQDQ01  00002PRCP06
0186825830999992002102512004-05170-040670FM-12+029999999V0200901N006212200019N0500001N1+02971+01791100981ADDAA106000091GF103991011011008001001011KA1240N+02361MA1999999097661MD1999999-0191REMSYN076AAXX  25124 82583 32599 30912 10297 20179 39766 40098 81101 333 20236 59019;EQDQ01  00002PRCP06
0208825830999992002102700004-05170-040670FM-12+029999999V0200901N003112200019N0040001N1+03171+01351100831ADDAA106000091GA1001+999999999GF100991001001999999001001KA1240M+03801MA1999999097511MD1999999+0091REMSYN082AAXX  27004 82583 32996 00906 10317 20135 39751 40083 333 10380 29035 55099 58009;EQDQ01  00002PRCP06
0186825830999992002102712004-05170-040670FM-12+029999999V0200901N007712200019N0500001N1+02881+01731101121ADDAA106000091GF102991021011008001001001KA1240N+02831MA1999999097801MD1999999+0041REMSYN076AAXX  27124 82583 32599 20915 10288 20173 39780 40112 82100 333 20283 58004;EQDQ01  00002PRCP06
0208825830999992002102800004-05170-040670FM-12+029999999V0200501N001512200019N0040001N1+03601+01341100771ADDAA106000091GA1001+999999999GF100991001001999999001001KA1240M+03681MA1999999097451MD1999999-0061REMSYN082AAXX  28004 82583 32996 00503 10360 20134 39745 40077 333 10368 29037 55103 59006;EQDQ01  00002PRCP06
0186825830999992002102812004-05170-040670FM-12+029999999V0200501N003610075019N0500001N1+02801+01901101131ADDAA106000091GF106991061021008001001001KA1240N+02371MA1999999097791MD1999999-0011REMSYN076AAXX  28124 82583 32599 60507 10280 20190 39779 40113 86200 333 20237 59001;EQDQ01  00002PRCP06
0198825830999992002102900004-05170-040670FM-12+029999999V0200901N001512200019N0040001N1+02981+01471100771ADDAA106000091GF101991011011008001001001KA1240M+03601MA1999999097441MD1999999-0011REMSYN088AAXX  29004 82583 32596 10903 10298 20147 39744 40077 81100 333 10360 29043 55083 59001;EQDQ01  00002PRCP06
0186825830999992002102912004-05170-040670FM-12+029999999V0200901N006710075019N0500001N1+02891+01871101071ADDAA106000091GF106991061021008001001001KA1240N+02351MA1999999097741MD1999999-0051REMSYN076AAXX  29124 82583 32599 60913 10289 20187 39774 40107 86200 333 20235 59005;EQDQ01  00002PRCP06
0198825830999992002103000004-05170-040670FM-12+029999999V0200901N002112200019N0040001N1+03071+01481100731ADDAA106000091GF101991011011008001001001KA1240M+03611MA1999999097411MD1999999-0031REMSYN088AAXX  30004 82583 32596 10904 10307 20148 39741 40073 81100 333 10361 29040 55092 59003;EQDQ01  00002PRCP06
0186825830999992002103012004-05170-040670FM-12+029999999V0200901N005110075019N0500001N1+02841+01821101041ADDAA106000091GF106991061021008001001001KA1240N+02281MA1999999097711MD1999999-0031REMSYN076AAXX  30124 82583 32599 60910 10284 20182 39771 40104 86200 333 20228 59003;EQDQ01  00002PRCP06
0198825830999992002103100004-05170-040670FM-12+029999999V0202301N001012200019N0040001N1+02811+01741100781ADDAA106000091GF103991031021008001001001KA1240M+03631MA1999999097441MD1999999+0031REMSYN088AAXX  31004 82583 32596 32302 10281 20174 39744 40078 83200 333 10363 29047 55101 58003;EQDQ01  00002PRCP06
0186825830999992002103112004-05170-040670FM-12+029999999V0200901N004612200019N0500001N1+02871+01861101101ADDAA106000091GF104991041011008001001001KA1240N+02271MA1999999097761MD1999999+0051REMSYN076AAXX  31124 82583 32599 40909 10287 20186 39776 40110 84100 333 20227 58005;EQDQ01  00002PRCP06
0198825830999992002110100004-05170-040670FM-12+029999999V0200901N004112200019N0040001N1+03061+01301100671ADDAA106000091GF101991011011008001001001KA1240M+03661MA1999999097351MD1999999-0091REMSYN088AAXX  01004 82583 32596 10908 10306 20130 39735 40067 81100 333 10366 29038 55091 59009;EQDQ01  00002PRCP06
0186825830999992002110112004-05170-040670FM-12+029999999V0200901N004112200019N0500001N1+02891+01781101041ADDAA106000091GF101991011011008001001001KA1240N+02301MA1999999097721MD1999999-0041REMSYN076AAXX  01124 82583 32599 10908 10289 20178 39772 40104 81100 333 20230 59004;EQDQ01  00002PRCP06
0198825830999992002110200004-05170-040670FM-12+029999999V0200501N003112200019N0040001N1+03121+01531100831ADDAA106000091GF101991011011008001001001KA1240M+03771MA1999999097511MD1999999+0161REMSYN088AAXX  02004 82583 32596 10506 10312 20153 39751 40083 81100 333 10377 29038 55108 58016;EQDQ01  00002PRCP06
0202825830999992002110212004-05170-040670FM-12+029999999V0200901N003119999999N0500001N1+02771+01911101311ADDAA106000091GF107991999011008001001001KA1240N+02361MA1999999097871MD1999999+0151REMSYN076AAXX  02124 82583 32599 70906 10277 20191 39787 40131 82100 333 20236 58015;EQDQ01+000022SCOTLCQ02  00002PRCP06
0208825830999992002110300004-05170-040670FM-12+029999999V0203601N002112200019N0040001N1+03101+01351100741ADDAA106000091GA1001+999999999GF100991001001999999001001KA1240M+03611MA1999999097421MD1999999-0091REMSYN082AAXX  03004 82583 32996 03604 10310 20135 39742 40074 333 10361 29042 55087 59009;EQDQ01  00002PRCP06
0186825830999992002110312004-05170-040670FM-12+029999999V0200901N007212200019N0500001N1+02671+01771101131ADDAA106000091GF102991021011008001001001KA1240N+02441MA1999999097801MD1999999-0071REMSYN076AAXX  03124 82583 32599 20914 10267 20177 39780 40113 82100 333 20244 59007;EQDQ01  00002PRCP06
0198825830999992002110400004-05170-040670FM-12+029999999V0200501N005712200019N0040001N1+03081+01491100981ADDAA106000091GF101991011011008001001001KA1240M+03641MA1999999097661MD1999999+0241REMSYN088AAXX  04004 82583 32596 10511 10308 20149 39766 40098 81100 333 10364 29087 55087 58024;EQDQ01  00002PRCP06
0186825830999992002110412004-05170-040670FM-12+029999999V0200901N001512200019N0500001N1+02931+01931101181ADDAA106000091GF102991011011008001001011KA1240N+02291MA1999999097851MD1999999+0051REMSYN076AAXX  04124 82583 32599 20903 10293 20193 39785 40118 81101 333 20229 58005;EQDQ01  00002PRCP06
0208825830999992002110500004-05170-040670FM-12+029999999V0200501N002612200019N0040001N1+03161+01381100931ADDAA106000091GA1001+999999999GF100991001001999999001001KA1240M+03721MA1999999097611MD1999999-0051REMSYN082AAXX  05004 82583 32996 00505 10316 20138 39761 40093 333 10372 29035 55109 59005;EQDQ01  00002PRCP06
0186825830999992002110512004-05170-040670FM-12+029999999V0200501N004610075019N0500001N1+02861+01841101291ADDAA106000091GF106991061021008001001001KA1240N+02401MA1999999097951MD1999999+0101REMSYN076AAXX  05124 82583 32599 60509 10286 20184 39795 40129 86200 333 20240 58010;EQDQ01  00002PRCP06
0208825830999992002110600004-05170-040670FM-12+029999999V0201401N002112200019N0040001N1+02951+01291100831ADDAA106000091GA1001+999999999GF100991001001999999001001KA1240M+03651MA1999999097501MD1999999-0111REMSYN082AAXX  06004 82583 32996 01404 10295 20129 39750 40083 333 10365 29038 55084 59011;EQDQ01  00002PRCP06
0186825830999992002110612004-05170-040670FM-12+029999999V0201401N001010120019N0500001N1+02651+01971101331ADDAA106000091GF107991071081008001001001KA1240N+02321MA1999999097971MD1999999+0021REMSYN076AAXX  06124 82583 32599 71402 10265 20197 39797 40133 87800 333 20232 58002;EQDQ01  00002PRCP06
0198825830999992002110700004-05170-040670FM-12+029999999V0200501N001012200019N0040001N1+02861+01621100961ADDAA106000091GF101991011011008001001001KA1240M+03421MA1999999097611MD1999999+0111REMSYN088AAXX  07004 82583 32596 10502 10286 20162 39761 40096 81100 333 10342 29048 55037 58011;EQDQ01  00002PRCP06
0186825830999992002110712004-05170-040670FM-12+029999999V0200501N002110120019N0500001N1+02761+01991101321ADDAA106000091GF107991061081008001001011KA1240N+02371MA1999999097961MD1999999-0011REMSYN076AAXX  07124 82583 32599 70504 10276 20199 39796 40132 86801 333 20237 59001;EQDQ01  00002PRCP06
0208825830999992002110800004-05170-040670FM-12+029999999V0200901N001512200019N0040001N1+03031+01681100991ADDAA106000091GA1001+999999999GF100991001001999999001001KA1240M+03531MA1999999097651MD1999999+0041REMSYN082AAXX  08004 82583 32996 00903 10303 20168 39765 40099 333 10353 29046 55064 58004;EQDQ01  00002PRCP06
0186825830999992002110812004-05170-040670FM-12+029999999V0200901N004610075019N0500001N1+02801+01781101331ADDAA106000091GF107991071051008001001001KA1240N+02451MA1999999097981MD1999999+0021REMSYN076AAXX  08124 82583 32599 70909 10280 20178 39798 40133 87500 333 20245 58002;EQDQ01  00002PRCP06
0198825830999992002110900004-05170-040670FM-12+029999999V0201401N000512200019N0040001N1+02871+01571100981ADDAA106000091GF101991011011008001001001KA1240M+03511MA1999999097641MD1999999-0011REMSYN088AAXX  09004 82583 32596 11401 10287 20157 39764 40098 81100 333 10351 29044 55044 59001;EQDQ01  00002PRCP06
0186825830999992002110912004-05170-040670FM-12+029999999V0200901N006212200019N0500001N1+02841+01761101411ADDAA106000091GF103991031011008001001001KA1240N+02381MA1999999098051MD1999999+0071REMSYN076AAXX  09124 82583 32599 30912 10284 20176 39805 40141 83100 333 20238 58007;EQDQ01  00002PRCP06
0208825830999992002111000004-05170-040670FM-12+029999999V0200901N000512200019N0040001N1+02941+01511100991ADDAA106000091GA1001+999999999GF100991001001999999001001KA1240M+03521MA1999999097651MD1999999+0011REMSYN082AAXX  10004 82583 32996 00901 10294 20151 39765 40099 333 10352 29041 55103 58001;EQDQ01  00002PRCP06
0186825830999992002111012004-05170-040670FM-12+029999999V0200901N003112200019N0500001N1+02901+01871101301ADDAA106000091GF102991021011008001001001KA1240N+02281MA1999999097951MD1999999-0101REMSYN076AAXX  10124 82583 32599 20906 10290 20187 39795 40130 82100 333 20228 59010;EQDQ01  00002PRCP06
0208825830999992002111100004-05170-040670FM-12+029999999V0200901N002112200019N0040001N1+02931+01321100941ADDAA106000091GA1001+999999999GF100991001001999999001001KA1240M+03601MA1999999097611MD1999999+0041REMSYN082AAXX  11004 82583 32996 00904 10293 20132 39761 40094 333 10360 29038 55083 58004;EQDQ01  00002PRCP06
0186825830999992002111112004-05170-040670FM-12+029999999V0200901N004110075019N0500001N1+02821+01831101341ADDAA106000091GF106991061021008001001001KA1240N+02291MA1999999097981MD1999999+0031REMSYN076AAXX  11124 82583 32599 60908 10282 20183 39798 40134 86200 333 20229 58003;EQDQ01  00002PRCP06
0208825830999992002111200004-05170-040670FM-12+029999999V0200501N001512200019N0040001N1+02981+01401100871ADDAA106000091GA1001+999999999GF100991001001999999001001KA1240M+03591MA1999999097541MD1999999+0071REMSYN082AAXX  12004 82583 32996 00503 10298 20140 39754 40087 333 10359 29040 55080 58007;EQDQ01  00002PRCP06
0186825830999992002111212004-05170-040670FM-12+029999999V0200901N006712200019N0500001N1+02971+01861101201ADDAA106000091GF102991021011008001001001KA1240N+02481MA1999999097871MD1999999-0111REMSYN076AAXX  12124 82583 32599 20913 10297 20186 39787 40120 82100 333 20248 59011;EQDQ01  00002PRCP06
0208825830999992002111300004-05170-040670FM-12+029999999V0200501N002112200019N0040001N1+02981+01401100911ADDAA106000091GA1001+999999999GF100991001001999999001001KA1240M+03601MA1999999097591MD1999999+0051REMSYN082AAXX  13004 82583 32996 00504 10298 20140 39759 40091 333 10360 29039 55087 58005;EQDQ01  00002PRCP06
0186825830999992002111312004-05170-040670FM-12+029999999V0200901N008212200019N0500001N1+02941+01851101291ADDAA106000091GF102991021011008001001001KA1240N+02471MA1999999097951MD1999999+0081REMSYN076AAXX  13124 82583 32599 20916 10294 20185 39795 40129 82100 333 20247 58008;EQDQ01  00002PRCP06
0208825830999992002111400004-05170-040670FM-12+029999999V0200901N001512200019N0040001N1+02901+01401101011ADDAA106000091GA1001+999999999GF100991001001999999001001KA1240M+03551MA1999999097671MD1999999+0081REMSYN082AAXX  14004 82583 32996 00903 10290 20140 39767 40101 333 10355 29041 55100 58008;EQDQ01  00002PRCP06
0186825830999992002111412004-05170-040670FM-12+029999999V0200901N005710075019N0500001N1+02891+01871101281ADDAA106000091GF106991061021008001001001KA1240N+02471MA1999999097941MD1999999-0011REMSYN076AAXX  14124 82583 32599 60911 10289 20187 39794 40128 86200 333 20247 59001;EQDQ01  00002PRCP06
0186825830999992002111512004-05170-040670FM-12+029999999V0200901N005712200019N0500001N1+02981+01891101201ADDAA106000091GF102991021011008001001001KA1240N+02371MA1999999097861MD1999999-0081REMSYN076AAXX  15124 82583 32599 20911 10298 20189 39786 40120 82100 333 20237 59008;EQDQ01  00002PRCP06
0208825830999992002111600004-05170-040670FM-12+029999999V0200901N001512200019N0040001N1+02951+01251100871ADDAA106000091GA1001+999999999GF100991001001999999001001KA1240M+03671MA1999999097551MD1999999-0121REMSYN082AAXX  16004 82583 32996 00903 10295 20125 39755 40087 333 10367 29038 55097 59012;EQDQ01  00002PRCP06
0186825830999992002111612004-05170-040670FM-12+029999999V0200901N005112200019N0040001N1+02921+02501101241ADDAA106000091GF103991031011008001001001KA1240N+02421MA1999999097901MD1999999+0041REMSYN076AAXX  16124 82583 32596 30910 10292 20250 39790 40124 83100 333 20242 58004;EQDQ01  00002PRCP06
0198825830999992002111700004-05170-040670FM-12+029999999V0200901N002112200019N0040001N1+03201+01511100861ADDAA106000091GF101991011011008001001001KA1240M+03701MA1999999097541MD1999999-0011REMSYN088AAXX  17004 82583 32596 10904 10320 20151 39754 40086 81100 333 10370 29044 55105 59001;EQDQ01  00002PRCP06
0186825830999992002111712004-05170-040670FM-12+029999999V0200901N007212200019N0500001N1+02881+02001101181ADDAA106000091GF103991031011008001001001KA1240N+02471MA1999999097861MD1999999-0041REMSYN076AAXX  17124 82583 32599 30914 10288 20200 39786 40118 83100 333 20247 59004;EQDQ01  00002PRCP06
0209825830999992002111800004-05170-040670FM-12+029999999V0200901N001012200019N0040001N1+02981+01471100881ADDAA106000091GA1001+999999999GF100991001001999999001001KA1240M+03541MD1999999+0021REMSYN082AAXX  18004 82583 32996 00902 10298 20147 33786 40088 333 10354 29043 55095 58002;EQDQ01+037861APOSP Q02  00002PRCP06
0186825830999992002111812004-05170-040670FM-12+029999999V0200901N005710075019N0500001N1+02731+01841101121ADDAA106000091GF106991061021008001001001KA1240N+02321MA1999999097881MD1999999+0021REMSYN076AAXX  18124 82583 32599 60911 10273 20184 39788 40112 86200 333 20232 58002;EQDQ01  00002PRCP06
0208825830999992002111900004-05170-040670FM-12+029999999V0200901N002112200019N0040001N1+02991+01531100851ADDAA106000091GA1001+999999999GF100991001001999999001001KA1240M+03521MA1999999097511MD1999999-0051REMSYN082AAXX  19004 82583 32996 00904 10299 20153 39751 40085 333 10352 29042 55080 59005;EQDQ01  00002PRCP06
0186825830999992002111912004-05170-040670FM-12+029999999V0200901N004612200019N0500001N1+02861+01841101171ADDAA106000091GF102991021011008001001001KA1240N+02361MA1999999097831MD1999999-0051REMSYN076AAXX  19124 82583 32599 20909 10286 20184 39783 40117 82100 333 20236 59005;EQDQ01  00002PRCP06
0208825830999992002112000004-05170-040670FM-12+029999999V0200901N001512200019N0040001N1+03041+01371100821ADDAA106000091GA1001+999999999GF100991001001999999001001KA1240M+03691MA1999999097501MD1999999-0011REMSYN082AAXX  20004 82583 32996 00903 10304 20137 39750 40082 333 10369 29038 55093 59001;EQDQ01  00002PRCP06
0186825830999992002112012004-05170-040670FM-12+029999999V0200901N005110120019N0500001N1+02841+01821101101ADDAA106000091GF107991071081008001001001KA1240N+02311MA1999999097761MD1999999-0071REMSYN076AAXX  20124 82583 32599 70910 10284 20182 39776 40110 87800 333 20231 59007;EQDQ01  00002PRCP06
0198825830999992002112100004-05170-040670FM-12+029999999V0200901N002112200019N0040001N1+03071+01521100831ADDAA106000091GF101991011011008001001001KA1240M+03721MA1999999097511MD1999999+0011REMSYN088AAXX  21004 82583 32596 10904 10307 20152 39751 40083 81100 333 10372 29040 55091 58001;EQDQ01  00002PRCP06
0186825830999992002112112004-05170-040670FM-12+029999999V0200901N006712200019N0500001N1+02951+01841101191ADDAA106000091GF103991031011008001001001KA1240N+02381MA1999999097861MD1999999+0101REMSYN076AAXX  21124 82583 32599 30913 10295 20184 39786 40119 83100 333 20238 58010;EQDQ01  00002PRCP06
0208825830999992002112200004-05170-040670FM-12+029999999V0200901N000512200019N0040001N1+03121+01351100851ADDAA106000091GA1001+999999999GF100991001001999999001001KA1240M+03781MA1999999097531MD1999999+0021REMSYN082AAXX  22004 82583 32996 00901 10312 20135 39753 40085 333 10378 29036 55103 58002;EQDQ01  00002PRCP06
0186825830999992002112212004-05170-040670FM-12+029999999V0200901N005110075019N0500001N1+02971+01841101201ADDAA106000091GF106991061021008001001001KA1240N+02481MA1999999097881MD1999999+0021REMSYN076AAXX  22124 82583 32599 60910 10297 20184 39788 40120 86200 333 20248 58002;EQDQ01  00002PRCP06
0198825830999992002112300004-05170-040670FM-12+029999999V0200901N003112200019N0040001N1+03101+01501100951ADDAA106000091GF101991011011008001001001KA1240M+03651MA1999999097631MD1999999+0101REMSYN088AAXX  23004 82583 32596 10906 10310 20150 39763 40095 81100 333 10365 29039 55087 58010;EQDQ01  00002PRCP06
0186825830999992002112312004-05170-040670FM-12+029999999V0200901N008210075019N0500001N1+02891+01811101301ADDAA106000091GF106991061021008001001001KA1240N+02571MA1999999097961MD1999999+0081REMSYN076AAXX  23124 82583 32599 60916 10289 20181 39796 40130 86200 333 20257 58008;EQDQ01  00002PRCP06
0208825830999992002112400004-05170-040670FM-12+029999999V0200901N002112200019N0040001N1+02911+01641101001ADDAA106000091GA1001+999999999GF100991001001999999001001KA1240M+03621MA1999999097661MD1999999-0031REMSYN082AAXX  24004 82583 32996 00904 10291 20164 39766 40100 333 10362 29042 55094 59003;EQDQ01  00002PRCP06
0208825830999992002112500004-05170-040670FM-12+029999999V0200901N003112200019N0040001N1+03081+01521100991ADDAA106000091GA1001+999999999GF100991001001999999001001KA1240M+03641MA1999999097671MD1999999+0011REMSYN082AAXX  25004 82583 32996 00906 10308 20152 39767 40099 333 10364 29041 55105 58001;EQDQ01  00002PRCP06
0186825830999992002112512004-05170-040670FM-12+029999999V0200901N006710075019N0500001N1+02891+01841101211ADDAA106000091GF106991061021008001001001KA1240N+02571MA1999999097881MD1999999-0031REMSYN076AAXX  25124 82583 32599 60913 10289 20184 39788 40121 86200 333 20257 59003;EQDQ01  00002PRCP06
0208825830999992002112600004-05170-040670FM-12+029999999V0200901N002112200019N0040001N1+02971+01511100941ADDAA106000091GA1001+999999999GF100991001001999999001001KA1240M+03651MA1999999097621MD1999999-0051REMSYN082AAXX  26004 82583 32996 00904 10297 20151 39762 40094 333 10365 29041 55100 59005;EQDQ01  00002PRCP06
0186825830999992002112612004-05170-040670FM-12+029999999V0200901N007212200019N0500001N1+03001+01841101231ADDAA106000091GF104991041011008001001001KA1240N+02491MA1999999097901MD1999999+0021REMSYN076AAXX  26124 82583 32599 40914 10300 20184 39790 40123 84100 333 20249 58002;EQDQ01  00002PRCP06
0208825830999992002112700004-05170-040670FM-12+029999999V0200901N002112200019N0040001N1+03011+01431100901ADDAA106000091GA1001+999999999GF100991001001999999001001KA1240M+03631MA1999999097581MD1999999-0041REMSYN082AAXX  27004 82583 32996 00904 10301 20143 39758 40090 333 10363 29039 55096 59004;EQDQ01  00002PRCP06
0186825830999992002112712004-05170-040670FM-12+029999999V0200901N006710075019N0500001N1+02761+01971101201ADDAA106000091GF108991081051008001999999KA1240N+02431MA1999999097861MD1999999-0041REMSYN076AAXX  27124 82583 32599 80913 10276 20197 39786 40120 885// 333 20243 59004;EQDQ01  00002PRCP06
0198825830999992002112800004-05170-040670FM-12+029999999V0200901N001512200019N0040001N1+02911+01601100891ADDAA106000091GF102991021011008001001001KA1240M+03411MA1999999097551MD1999999-0031REMSYN088AAXX  28004 82583 32596 20903 10291 20160 39755 40089 82100 333 10341 29049 55037 59003;EQDQ01  00002PRCP06
0186825830999992002112812004-05170-040670FM-12+029999999V0200901N004612200019N0500001N1+02961+01931101101ADDAA106000091GF102991011011008001001011KA1240N+02441MA1999999097761MD1999999-0101REMSYN076AAXX  28124 82583 32599 20909 10296 20193 39776 40110 81101 333 20244 59010;EQDQ01  00002PRCP06
0167825830999992002112818004-05170-040670FM-12+029999999V0200901N004612200019N0200001N1+03601+01861100701ADDAA106000091GF104991041021008001001001MA1999999098121MD1999999-0131REMSYN070AAXX  28184 82583 32598 40909 10360 20186 39812 40070 84200 333 59013;EQDQ01  00002PRCP06
0208825830999992002112900004-05170-040670FM-12+029999999V0200901N002112200019N0040001N1+03081+01311100771ADDAA106000091GA1001+999999999GF100991001001999999001001KA1240M+03721MA1999999097451MD1999999-0101REMSYN082AAXX  29004 82583 32996 00904 10308 20131 39745 40077 333 10372 29038 55112 59010;EQDQ01  00002PRCP06
0186825830999992002112912004-05170-040670FM-12+029999999V0200901N006712200019N0500001N1+02951+01871101191ADDAA106000091GF102991011011008001001011KA1240N+02481MA1999999097861MD1999999+0101REMSYN076AAXX  29124 82583 32599 20913 10295 20187 39786 40119 81101 333 20248 58010;EQDQ01  00002PRCP06
0198825830999992002113000004-05170-040670FM-12+029999999V0200901N003612200019N0040001N1+03011+01471100831ADDAA106000091GF101991011011008001001001KA1240M+03621MA1999999097511MD1999999+0061REMSYN088AAXX  30004 82583 32596 10907 10301 20147 39751 40083 81100 333 10362 29040 55083 58006;EQDQ01  00002PRCP06
0186825830999992002113012004-05170-040670FM-12+029999999V0200901N004112200019N0500001N1+03041+01851101181ADDAA106000091GF102991021011008001001001KA1240N+02431MA1999999097851MD1999999-0011REMSYN076AAXX  30124 82583 32599 20908 10304 20185 39785 40118 82100 333 20243 59001;EQDQ01  00002PRCP06
0208825830999992002120100004-05170-040670FM-12+029999999V0200901N002112200019N0040001N1+03101+01581100951ADDAA106000091GA1001+999999999GF100991001001999999001001KA1240M+03641MA1999999097631MD1999999+0121REMSYN082AAXX  01004 82583 32996 00904 10310 20158 39763 40095 333 10364 29039 55104 58012;EQDQ01  00002PRCP06
