0167827650999992002010118004-07320-047460FM-12+021299999V0200501N001510450019N0200001N1+03221+02431100931ADDAA199000091GF106991031031008001041001MA1999999098571MD1999999-0121REMSYN070AAXX  01184 82765 32598 60503 10322 20243 39857 40093 83340 333 59012;EQDQ01  00002PRCP99
0201827650999992002010212004-07320-047460FM-12+021299999V0203201N000510075019N0040001N1+02321+02241101621ADDAA124077091AY191061AY261061GF108991061051008001021999KA1240N+02291MA1999999099211MD1999999+0121MW1601REMSYN088AAXX  02124 82765 21596 83201 10232 20224 39921 40162 76096 8652/ 333 20229 58012 60774;
0160827650999992002010218004-07320-047460FM-12+021299999V0200201N001510450019N0200001N1+02521+02291101251ADDAA106017091GF107991041081008001021001MA1999999099841MD1999999+0271REMSYN082AAXX  02184 82765 21598 70203 10252 20229 39984 40125 7//66 84820 333 58027 60171;
0167827650999992002010318004-07320-047460FM-12+021299999V0203601N002610450019N0200001N1+02941+02361101101ADDAA199000091GF106991041081008001041001MA1999999098711MD1999999-0131REMSYN070AAXX  03184 82765 32598 63605 10294 20236 39871 40110 84840 333 59013;EQDQ01  00002PRCP99
0223827650999992002010400004-07320-047460FM-12+021299999V0203601N001019999999N0200001N1+02741+02541101351ADDAA106001091AY151061AY251061GA1091+999999999GF109991091999999999999999KA1240M+03041MA1999999098961MD1999999-0081MW1511REMSYN094AAXX  04000 82765 21/98 93601 10274 20254 39896 40135 75155 333 10304 29084 55015 59008 60011;
0179827650999992002010412004-07320-047460FM-12+021299999V0203601N000510075019N0200001N1+02361+02191101741ADDAA124020191GF108991061051008001021999KA1240N+02231MA1999999099331MD1999999+0251REMSYN088AAXX  04124 82765 21598 83601 10236 20219 39933 40174 7//66 8652/ 333 20223 58025 60204;
0167827650999992002010418004-07320-047460FM-12+021299999V0203601N002110075019N0200001N1+03001+02241101231ADDAA199000091GF106991061021008001001001MA1999999098841MD1999999+0131REMSYN070AAXX  04184 82765 32598 63604 10300 20224 39884 40123 86200 333 58013;EQDQ01  00002PRCP99
0208827650999992002010500004-07320-047460FM-12+021299999V0209999C000019999999N0200001N1+02761+02481101441ADDAA199000091GA1091+999999999GF109991091999999999999999KA1240M+03141MA1999999099041MD1999999+0081REMSYN082AAXX  05004 82765 32/98 90000 10276 20248 39904 40144 333 10314 29081 55039 58008;EQDQ01  00002PRCP99
0186827650999992002010512004-07320-047460FM-12+021299999V0203601N001010075019N0200001N1+02781+02421101631ADDAA199000091GF107991051011008001041001KA1240N+02351MA1999999099241MD1999999-0091REMSYN076AAXX  05124 82765 32598 73602 10278 20242 39924 40163 85140 333 20235 59009;EQDQ01  00002PRCP99
0167827650999992002010518004-07320-047460FM-12+021299999V0203601N002610450019N0200001N1+02901+02371101191ADDAA199000091GF106991041021008001041001MA1999999098811MD1999999-0031REMSYN070AAXX  05184 82765 32598 63605 10290 20237 39881 40119 84240 333 59003;EQDQ01  00002PRCP99
0220827650999992002010600004-07320-047460FM-12+021299999V0203201N001519999999N0200001N1+02701+02501101431ADDAA199000091GA1091+999999999GF109991091999999999999999KA1240M+03141MA1999999099051MD1999999+0011MW1131REMSYN088AAXX  06004 82765 31/98 93203 10270 20250 39905 40143 713// 333 10314 29083 55009 58001;EQDQ01  00002PRCP99
0182827650999992002010618004-07320-047460FM-12+021299999V0203201N002110075019N0040001N1+02221+02121101261ADDAA106059991AY161061AY261061GF108991061051008001021999MA1999999098841MD1999999+0031MW1611REMSYN082AAXX  06184 82765 21596 83204 10222 20212 39884 40126 76166 8652/ 333 58003 60601;
0201827650999992002010700004-07320-047460FM-12+021299999V0203201N000519999999N0200001N1+02361+02281101451ADDAA106000891GA1091+999999999GF109991091999999999999999KA1240M+02801MA1999999099051MD1999999+0001REMSYN094AAXX  07004 82765 21/98 93201 10236 20228 39905 40145 7//55 333 10280 29093 55003 58000 69981;
0179827650999992002010712004-07320-047460FM-12+021299999V0203201N001010120019N0200001N1+02401+02241101581ADDAA124069191GF108991061081008001021999KA1240N+02231MA1999999099161MD1999999+0081REMSYN088AAXX  07124 82765 21598 83202 10240 20224 39916 40158 7//66 8682/ 333 20223 58008 60694;
0160827650999992002010718004-07320-047460FM-12+021299999V0203201N001510120019N0200001N1+02481+02321101261ADDAA106011991GF108991061081008001021999MA1999999098841MD1999999+0001REMSYN082AAXX  07184 82765 21598 83203 10248 20232 39884 40126 7//66 8682/ 333 58000 60121;
0208827650999992002010800004-07320-047460FM-12+021299999V0203201N000519999999N0200001N1+02441+02341101231ADDAA199000091GA1091+999999999GF109991091999999999999999KA1240M+02581MA1999999098821MD1999999-0231REMSYN082AAXX  08004 82765 32/98 93201 10244 20234 39882 40123 333 10258 29092 55000 59023;EQDQ01  00002PRCP99
0179827650999992002010812004-07320-047460FM-12+021299999V0203201N001510120019N0200001N1+02521+02311101481ADDAA124011991GF108991061081008001021999KA1240N+02331MA1999999099071MD1999999-0091REMSYN088AAXX  08124 82765 21598 83203 10252 20231 39907 40148 7//55 8682/ 333 20233 59009 60124;
0160827650999992002010818004-07320-047460FM-12+021299999V0203201N003110120019N0200001N1+02701+02301101161ADDAA106000191GF108991081081008001999999MA1999999098761MD1999999-0081REMSYN082AAXX  08184 82765 21598 83206 10270 20230 39876 40116 7//55 888// 333 59008 69911;
0201827650999992002010900004-07320-047460FM-12+021299999V0203201N001019999999N0200001N1+02421+02251101501ADDAA106009991GA1091+999999999GF109991091999999999999999KA1240M+02741MA1999999099091MD1999999+0171REMSYN094AAXX  09004 82765 21/98 93202 10242 20225 39909 40150 7//66 333 10274 29086 55000 58017 60101;
0179827650999992002010912004-07320-047460FM-12+021299999V0203201N001010120019N0200001N1+02341+02221101661ADDAA124020191GF108991061081008001021999KA1240N+02271MA1999999099241MD1999999+0171REMSYN088AAXX  09124 82765 21598 83202 10234 20222 39924 40166 7//66 8682/ 333 20227 58017 60204;
0167827650999992002010918004-07320-047460FM-12+021299999V0203601N002610075019N0200001N1+02821+02311101411ADDAA199000091GF107991051021008001041001MA1999999098861MD1999999+0101REMSYN070AAXX  09184 82765 32598 73605 10282 20231 39886 40141 85240 333 58010;EQDQ01  00002PRCP99
0208827650999992002011000004-07320-047460FM-12+021299999V0203601N001019999999N0200001N1+02581+02371101481ADDAA199000091GA1091+999999999GF109991091999999999999999KA1240M+02591MA1999999099091MD1999999+0001REMSYN082AAXX  10000 82765 32/98 93601 10258 20237 39909 40148 333 10259 29086 55019 58000;EQDQ01  00002PRCP99
0201827650999992002011012004-07320-047460FM-12+021299999V0203601N000510120019N0200001N1+02301+02281101731ADDAA124059991AY161061AY261061GF108991061081008001021999KA1240N+02231MA1999999099311MD1999999+0071MW1511REMSYN088AAXX  10124 82765 21598 83601 10230 20228 39931 40173 75166 8682/ 333 20223 58007 60604;
0160827650999992002011018004-07320-047460FM-12+021299999V0203201N001010120019N0200001N1+02641+02351101351ADDAA106002091GF107991051081008001021001MA1999999098941MD1999999+0081REMSYN082AAXX  10184 82765 21598 73202 10264 20235 39894 40135 7//66 85820 333 58008 60021;
0179827650999992002011112004-07320-047460FM-12+021299999V0203201N000510450019N0200001N1+02361+02221101171ADDAA124036191GF107991041081008001021001KA1240N+02191MA1999999099441MD1999999+0131REMSYN088AAXX  11124 82765 21598 73201 10236 20222 39944 40117 7//66 84820 333 20219 58013 60364;
0160827650999992002011118004-07320-047460FM-12+021299999V0203201N001510120019N0200001N1+02781+02401101481ADDAA106002091GF107991051081008001041001MA1999999099071MD1999999+0031REMSYN082AAXX  11184 82765 21598 73203 10278 20240 39907 40148 7//55 85840 333 58003 60021;
0208827650999992002011200004-07320-047460FM-12+021299999V0209999C000019999999N0200001N1+02501+02401101651ADDAA199000091GA1091+999999999GF109991091999999999999999KA1240M+03021MA1999999099231MD1999999-0061REMSYN082AAXX  12004 82765 32/98 90000 10250 20240 39923 40165 333 10302 29090 55026 59006;EQDQ01  00002PRCP99
0173827650999992002011212004-07320-047460FM-12+021299999V0203201N000510120019N0200001N1+02501+02361101831ADDAA124002091GF107991061081008001041001KA1240N+02251MA1999999099411MD1999999-0031REMSYN082AAXX  12124 82765 22598 73201 10250 20236 39941 40183 86840 333 20225 59003 60024;
0160827650999992002011218004-07320-047460FM-12+021299999V0200501N001510120019N0200001N1+02921+02361101411ADDAA106002091GF107991061081008001041001MA1999999099011MD1999999-0061REMSYN082AAXX  12184 82765 21598 70503 10292 20236 39901 40141 7//55 86840 333 59006 60021;
0173827650999992002011312004-07320-047460FM-12+021299999V0200501N000510075019N0200001N1+02681+02431101611ADDAA124002091GF106991051021008001041001KA1240N+02331MA1999999099211MD1999999-0201REMSYN082AAXX  13124 82765 22598 60501 10268 20243 39921 40161 85240 333 20233 59020 60024;
0134827650999992002011318004-07320-047460FM-12+021299999V0200501N000510120019N0200001N1+02521+02291101511ADDGF108991061081008001021999MA1999999099091REMSYN081AAXX  13184 82765 21598 80501 10252 20229 39909 40151 7//96 8682/ 333 5808 60131;
0208827650999992002011400004-07320-047460FM-12+021299999V0200501N001019999999N0200001N1+02401+02241101511ADDAA199000091GA1091+999999999GF109991091999999999999999KA1240M+02881MA1999999099101MD1999999-0021REMSYN082AAXX  14004 82765 32/98 90502 10240 20224 39910 40151 333 10288 29089 55019 59002;EQDQ01  00002PRCP99
0173827650999992002011412004-07320-047460FM-12+021299999V0200501N000510075019N0200001N1+02501+02311101711ADDAA124013091GF106991051021008001041001KA1240N+02191MA1999999099291MD1999999+0081REMSYN082AAXX  14124 82765 22598 60501 10250 20231 39929 40171 85240 333 20219 58008 60134;
0167827650999992002011418004-07320-047460FM-12+021299999V0203201N001512200019N0200001N1+03141+02381101121ADDAA199000091GF104991031021008001041001MA1999999098731MD1999999-0361REMSYN070AAXX  14184 82765 32598 43203 10314 20238 39873 40112 83240 333 59036;EQDQ01  00002PRCP99
0220827650999992002011500004-07320-047460FM-12+021299999V0203201N001019999999N0200001N1+02681+02371101321ADDAA199000091GA1091+999999999GF109991091999999999999999KA1240M+03241MA1999999098921MD1999999-0181MW1131REMSYN088AAXX  15004 82765 31/98 93202 10268 20237 39892 40132 713// 333 10324 29080 55068 59018;EQDQ01  00002PRCP99
0186827650999992002011512004-07320-047460FM-12+021299999V0203201N002110075019N0200001N1+02561+02291101501ADDAA199000091GF107991051021008001041001KA1240N+02411MA1999999099101MD1999999-0191REMSYN076AAXX  15124 82765 32598 73204 10256 20229 39910 40150 85240 333 20241 59019;EQDQ01  00002PRCP99
0201827650999992002011600004-07320-047460FM-12+021299999V0203201N001019999999N0200001N1+02301+02141101411ADDAA106007991GA1091+999999999GF109991091999999999999999KA1240M+03001MA1999999099001MD1999999+0081REMSYN094AAXX  16004 82765 21/98 93202 10230 20214 39900 40141 7//66 333 10300 29089 55017 58008 60081;
0173827650999992002011612004-07320-047460FM-12+021299999V0203201N001010120019N0200001N1+02461+02281101431ADDAA124011991GF107991051081008001041001KA1240N+02271MA1999999099011MD1999999-0091REMSYN082AAXX  16124 82765 22598 73202 10246 20228 39901 40143 85840 333 20227 59009 60124;
0160827650999992002011618004-07320-047460FM-12+021299999V0203601N001010450019N0200001N1+02621+02421101061ADDAA106007191GF107991041021008001021001MA1999999098651MD1999999+0111REMSYN082AAXX  16184 82765 21598 73602 10262 20242 39865 40106 7//66 84220 333 58011 60071;
0220827650999992002011700004-07320-047460FM-12+021299999V0203601N001019999999N0200001N1+02461+02341101211ADDAA199000091GA1091+999999999GF109991091999999999999999KA1240M+02881MA1999999098851MD1999999-0151MW1131REMSYN088AAXX  17004 82765 31/98 93602 10246 20234 39885 40121 713// 333 10288 29091 55008 59015;EQDQ01  00002PRCP99
0201827650999992002011712004-07320-047460FM-12+021299999V0203601N001010075019N0200001N1+02401+02281101561ADDAA124016091AY161061AY261061GF108991061051008001021999KA1240N+02331MA1999999099141MD1999999+0131MW1511REMSYN088AAXX  17124 82765 21598 83602 10240 20228 39914 40156 75166 8652/ 333 20233 58013 60164;
0148827650999992002011718004-07320-047460FM-12+021299999V0200501N003110120019N0200001N1+02721+02321101221ADDAA199000021GF107991051081008001021001MA1999999098821MD1999999+0171REMSYN070AAXX  17184 82765 32598 70506 10272 20232 39882 40122 85820 333 58017;
0201827650999992002011800004-07320-047460FM-12+021299999V0200501N001019999999N0200001N1+02481+02341101311ADDAA106011991GA1091+999999999GF109991091999999999999999KA1240M+02841MA1999999098901MD1999999+0051REMSYN094AAXX  18004 82765 21/98 90502 10248 20234 39890 40131 7//66 333 10284 29089 55011 58005 60121;
0173827650999992002011812004-07320-047460FM-12+021299999V0200501N002110120019N0200001N1+02521+02381101531ADDAA124011991GF108991061081008001021999KA1240N+02291MA1999999099111MD1999999-0031REMSYN082AAXX  18124 82765 22598 80504 10252 20238 39911 40153 8682/ 333 20229 59003 60124;
0160827650999992002011818004-07320-047460FM-12+021299999V0200501N001510120019N0200001N1+02661+02331101261ADDAA106000191GF108991061081008001021999MA1999999098851MD1999999+0031REMSYN082AAXX  18184 82765 21598 80503 10266 20233 39885 40126 7//55 8682/ 333 58003 69921;
0207827650999992002011900004-07320-047460FM-12+021299999V0200501N001519999999N0200001N1+02381+02261101451ADDAA106000591GA1091+999999999GF109991091999999999999999KA1240M+02841MA1999999099041MD1999999+0141MW1511REMSYN094AAXX  19004 82765 21/98 90503 10238 20226 39904 40145 751// 333 10284 29090 55005 58014 69941;
0179827650999992002011912004-07320-047460FM-12+021299999V0200501N001010450019N0200001N1+02501+02271101471ADDAA124002091GF105991021011008001041001KA1240N+02231MA1999999099061MD1999999-0051REMSYN088AAXX  19124 82765 21598 50502 10250 20227 39906 40147 7//55 82140 333 20223 59005 60024;
0167827650999992002011918004-07320-047460FM-12+021299999V0200901N000510450019N0200001N1+03221+02321101021ADDAA199000091GF106991041011008001041001MA1999999098641MD1999999-0211REMSYN070AAXX  19184 82765 32598 60901 10322 20232 39864 40102 84140 333 59021;EQDQ01  00002PRCP99
0220827650999992002012000004-07320-047460FM-12+021299999V0201401N002619999999N0200001N1+02601+02351101431ADDAA199000091GA1091+999999999GF109991091999999999999999KA1240M+03361MA1999999099021MD1999999+0021MW1131REMSYN088AAXX  20004 82765 31/98 91405 10260 20235 39902 40143 713// 333 10336 29079 55071 58002;EQDQ01  00002PRCP99
0201827650999992002012012004-07320-047460FM-12+021299999V0201401N001010042019N0100001N1+02281+02161101911ADDAA124071991AY161061AY261061GF108991061051004501021999KA1240N+02271MA1999999099481MD1999999+0421MW1511REMSYN088AAXX  20124 82765 21497 81402 10228 20216 39948 40191 75166 8652/ 333 20227 58042 60724;
0173827650999992002012112004-07320-047460FM-12+021299999V0209999C000012200019N0200001N1+02561+02361101821ADDAA124010991GF104991021011008001041001KA1240N+02231MA1999999099411MD1999999-0071REMSYN082AAXX  21124 82765 21598 40000 10256 20236 39941 40182 82140 333 20223 59007 60114;
0160827650999992002012118004-07320-047460FM-12+021299999V0201801N003110450019N0200001N1+02721+02151101341ADDAA106010991GF105991011031008001041001MA1999999098951MD1999999+0021REMSYN082AAXX  21184 82765 21598 51806 10272 20215 39895 40134 7//96 81340 333 58002 60111;
0208827650999992002012200004-07320-047460FM-12+021299999V0202301N001019999999N0200001N1+02581+02381101621ADDAA199000091GA1091+999999999GF109991091999999999999999KA1240M+03261MA1999999099161MD1999999+0031REMSYN082AAXX  22004 82765 32/98 92302 10258 20238 39916 40162 333 10326 29085 55086 58003;EQDQ01  00002PRCP99
0173827650999992002012212004-07320-047460FM-12+021299999V0202301N000510450019N0200001N1+02541+02381101931ADDAA124010991GF105991031021008001041001KA1240N+02251MA1999999099511MD1999999+0101REMSYN082AAXX  22124 82765 22598 52301 10254 20238 39951 40193 83240 333 20225 58010 60114;
0167827650999992002012218004-07320-047460FM-12+021299999V0202701N001519999999N0200001N1+02581+02381101581ADDAA199000091GF107991999999008001999999MA1999999099161MD1999999+0211REMSYN070AAXX  22184 82765 31598 72703 10258 20238 39916 40158 7//99 333 58021;EQDQ01  00002PRCP99
0220827650999992002012300004-07320-047460FM-12+021299999V0202701N001519999999N0200001N1+02561+02381101641ADDAA199000091GA1091+999999999GF109991091999999999999999KA1240M+02921MA1999999099231MD1999999+0071MW1131REMSYN088AAXX  23004 82765 31/98 92703 10256 20238 39923 40164 713// 333 10292 29090 55034 58007;EQDQ01  00002PRCP99
0179827650999992002012312004-07320-047460FM-12+021299999V0202701N000512200019N0200001N1+02461+02171101811ADDAA124000191GF103991021011008001051001KA1240N+02131MA1999999099391MD1999999-0121REMSYN088AAXX  23124 82765 21598 32701 10246 20217 39939 40181 7//55 82150 333 20213 59012 69924;
0167827650999992002012318004-07320-047460FM-12+021299999V0201401N002612200019N0200001N1+03221+02401101391ADDAA199000091GF104991021021008001051001MA1999999099001MD1999999+0161REMSYN070AAXX  23184 82765 32598 41405 10322 20240 39900 40139 82250 333 58016;EQDQ01  00002PRCP99
0201827650999992002012400004-07320-047460FM-12+021299999V0201801N001519999999N0200001N1+02461+02191101531ADDAA106000191GA1091+999999999GF109991091999999999999999KA1240M+03301MA1999999099111MD1999999-0121REMSYN094AAXX  24004 82765 21/98 91803 10246 20219 39911 40153 7//95 333 10330 29079 55001 59012 69911;
0173827650999992002012412004-07320-047460FM-12+021299999V0201801N001512200019N0200001N1+02721+02321101681ADDAA124000191GF103991021011008001041001KA1240N+02251MA1999999099271MD1999999-0121REMSYN082AAXX  24124 82765 22598 31803 10272 20232 39927 40168 82140 333 20225 59012 69914;
0167827650999992002012418004-07320-047460FM-12+021299999V0200501N002112200019N0200001N1+03261+02381101221ADDAA199000091GF104991031021008001041001MA1999999098841MD1999999-0161REMSYN070AAXX  24184 82765 32598 40504 10326 20238 39884 40122 83240 333 59016;EQDQ01  00002PRCP99
0223827650999992002012500004-07320-047460FM-12+021299999V0200501N000519999999N0200001N1+02581+02441101391ADDAA106024991AY191061AY261061GA1091+999999999GF109991091999999999999999KA1240M+03401MA1999999099001MD1999999-0111MW1291REMSYN094AAXX  25004 82765 21/98 90501 10258 20244 39900 40139 72996 333 10340 29081 55096 59011 60251;
0173827650999992002012512004-07320-047460FM-12+021299999V0200901N000512200019N0200001N1+02801+02401101661ADDAA124024991GF104991021021008001041001KA1240N+02431MA1999999099261MD1999999-0011REMSYN082AAXX  25124 82765 22598 40901 10280 20240 39926 40166 82240 333 20243 59001 60254;
0173827650999992002012518004-07320-047460FM-12+021299999V0200901N002110120019N0200001N1+03161+02451101351ADDAA199000091GF107991061081008001041001MA1999999098971MD1999999+0131REMSYN076AAXX  25184 82765 31598 70904 10316 20245 39897 40135 7//15 86840 333 58013;EQDQ01  00002PRCP99
0173827650999992002012612004-07320-047460FM-12+021299999V0200901N002110450019N0200001N1+02761+02381101681ADDAA124006191GF106991041021008001041001KA1240N+02391MA1999999099281MD1999999+0021REMSYN082AAXX  26124 82765 22598 60904 10276 20238 39928 40168 84240 333 20239 58002 60064;
0167827650999992002012618004-07320-047460FM-12+021299999V0200501N002110075019N0200001N1+03321+02291101221ADDAA199000091GF105991051021008001041001MA1999999098851MD1999999-0121REMSYN070AAXX  26184 82765 32598 50504 10332 20229 39885 40122 85240 333 59012;EQDQ01  00002PRCP99
0201827650999992002012700004-07320-047460FM-12+021299999V0209999C000019999999N0200001N1+02621+02441101381ADDAA106003091GA1091+999999999GF109991091999999999999999KA1240M+03481MA1999999098991MD1999999-0071REMSYN094AAXX  27004 82765 21/98 90000 10262 20244 39899 40138 7//66 333 10348 29079 55093 59007 60031;
0173827650999992002012712004-07320-047460FM-12+021299999V0200901N001512200019N0200001N1+02801+02271101591ADDAA124003091GF103991011011008001051001KA1240N+02391MA1999999099201MD1999999-0081REMSYN082AAXX  27124 82765 22598 30903 10280 20227 39920 40159 81150 333 20239 59008 60034;
0160827650999992002012718004-07320-047460FM-12+021299999V0200501N002112200019N0200001N1+03181+02411101311ADDAA106003091GF104991031021008001041001MA1999999098931MD1999999+0081REMSYN082AAXX  27184 82765 21598 40504 10318 20241 39893 40131 7//65 83240 333 58008 60031;
0208827650999992002012800004-07320-047460FM-12+021299999V0203601N001012200019N0200001N1+02821+02521101271ADDAA199000091GA1001+999999999GF100991001001999999001001KA1240M+03281MA1999999098871MD1999999-0121REMSYN082AAXX  28004 82765 32098 03602 10282 20252 39887 40127 333 10328 29076 55088 59012;EQDQ01  00002PRCP99
0173827650999992002012812004-07320-047460FM-12+021299999V0203601N001510075019N0200001N1+02821+02401101541ADDAA124003091GF105991051021008001001001KA1240N+02431MA1999999099161MD1999999-0041REMSYN082AAXX  28124 82765 22598 53603 10282 20240 39916 40154 85200 333 20243 59004 60034;
0179827650999992002012818004-07320-047460FM-12+021299999V0203201N001010450019N0200001N1+03321+02351101141ADDAA199000091GF105991041021008001041001MA1999999098731MD1999999-0201MW1151REMSYN076AAXX  28184 82765 31598 53202 10332 20235 39873 40114 715// 84240 333 59020;EQDQ01  00002PRCP99
0208827650999992002012900004-07320-047460FM-12+021299999V0200501N001012200019N0200001N1+02641+02231101151ADDAA199000091GA1001+999999999GF100991001001999999001001KA1240M+03441MA1999999098771MD1999999-0101REMSYN082AAXX  29004 82765 32098 00502 10264 20223 39877 40115 333 10344 29073 55091 59010;EQDQ01  00002PRCP99
0186827650999992002012912004-07320-047460FM-12+021299999V0200501N001010120019N0200001N1+02781+02341101501ADDAA199000091GF106991051081008001041001KA1240N+02351MA1999999099111MD1999999-0051REMSYN076AAXX  29124 82765 32598 60502 10278 20234 39911 40150 85840 333 20235 59005;EQDQ01  00002PRCP99
0166827650999992002012918004-07320-047460FM-12+021299999V0200501N005110450019N0200001N1+03101+02411101131ADDAA106002091GF106991021031008001041001MA1999999098741MD1999999+0011MW1961REMSYN082AAXX  29184 82765 21598 60510 10310 20241 39874 40113 796// 82340 333 58001 60021;
0189827650999992002013000004-07320-047460FM-12+021299999V0200501N001019999999N0200001N1+02641+02441101261ADDAA199000021GA1091+999999999GF109991091999999999999999KA1240M+03341MA1999999098871MD1999999+0101REMSYN082AAXX  30004 82765 32/98 90502 10264 20244 39887 40126 333 10334 29073 55061 58010;
0173827650999992002013012004-07320-047460FM-12+021299999V0200501N001510450019N0200001N1+02801+02401101541ADDAA124002091GF106991041081008001041001KA1240N+02311MA1999999099151MD1999999+0041REMSYN082AAXX  30124 82765 22598 60503 10280 20240 39915 40154 84840 333 20231 58004 60024;
0167827650999992002013018004-07320-047460FM-12+021299999V0200201N001510075019N0200001N1+03281+02681101201ADDAA199000091GF106991061021008001001001MA1999999098831MD1999999+0091REMSYN070AAXX  30184 82765 32598 60203 10328 20268 39883 40120 86200 333 58009;EQDQ01  00002PRCP99
0208827650999992002013100004-07320-047460FM-12+021299999V0200501N000519999999N0200001N1+03021+02531101141ADDAA199000091GA1091+999999999GF109991091999999999999999KA1240M+03461MA1999999098771MD1999999-0101REMSYN082AAXX  31004 82765 32/98 90501 10302 20253 39877 40114 333 10346 29073 55010 59010;EQDQ01  00002PRCP99
0186827650999992002013112004-07320-047460FM-12+021299999V0200901N001512200019N0200001N1+02841+02401101401ADDAA199000091GF101991011011008001001001KA1240N+02471MA1999999099041MD1999999-0111REMSYN076AAXX  31124 82765 32598 10903 10284 20240 39904 40140 81100 333 20247 59011;EQDQ01  00002PRCP99
0167827650999992002013118004-07320-047460FM-12+021299999V0200501N002610075019N0200001N1+03421+02451101111ADDAA199000091GF105991051021008001001001MA1999999098751MD1999999-0081REMSYN070AAXX  31184 82765 32598 50505 10342 20245 39875 40111 85200 333 59008;EQDQ01  00002PRCP99
0201827650999992002020112004-07320-047460FM-12+021299999V0203201N001510090019N0200001N1+02421+02191101681ADDAA124023191AY161061AY221061GF108991081081004501999999KA1240N+02201MA1999999099271MD1999999+0231MW1031REMSYN088AAXX  01124 82765 21498 83203 10242 20219 39927 40168 70362 888// 333 20220 58023 60234;
0182827650999992002020118004-07320-047460FM-12+021299999V0203201N001010450019N0200001N1+02621+02391101431ADDAA106003091AY161061AY221061GF108991041021008001021999MA1999999099001MD1999999+0251MW1011REMSYN082AAXX  01184 82765 21598 83202 10262 20239 39900 40143 70162 8422/ 333 58025 60031;
0208827650999992002020200004-07320-047460FM-12+021299999V0209999C000010024019N0100001N1+02311+02071101411ADDAA199000091GA1091+999999999GF109991091999999999999999KA1240M+02891MA1999999098991MD1999999+0171REMSYN082AAXX  02004 82765 32/97 90000 10231 20207 39899 40141 333 10289 29087 55006 58017;EQDQ01  00002PRCP99
0173827650999992002020212004-07320-047460FM-12+021299999V0203201N001510450019N0200001N1+02501+02211101621ADDAA124003091GF106991031011008001061041KA1240N+02161MA1999999099201MD1999999-0071REMSYN082AAXX  02124 82765 22598 63203 10250 20221 39920 40162 83164 333 20216 59007 60034;
0167827650999992002020218004-07320-047460FM-12+021299999V0203201N002610450019N0200001N1+03221+02531101251ADDAA199000091GF106991031031008001061051MA1999999098861MD1999999-0141REMSYN070AAXX  02184 82765 32598 63205 10322 20253 39886 40125 83365 333 59014;EQDQ01  00002PRCP99
0186827650999992002020300004-07320-047460FM-12+021299999V0200501N004110450019N0200001N1+02601+02211101631ADDAA199000091GF108991041081008001011999KA1240N+02351MA1999999099221MD1999999+0021REMSYN076AAXX  03004 82765 32598 80508 10260 20221 39922 40163 8481/ 333 20235 58002;EQDQ01  00002PRCP99
0186827650999992002020312004-07320-047460FM-12+021299999V0200501N004110450019N0200001N1+02601+02211101631ADDAA199000091GF108991041081008001011999KA1240N+02351MA1999999099221MD1999999+0021REMSYN076AAXX  03124 82765 32598 80508 10260 20221 39922 40163 8481/ 333 20235 58002;EQDQ01  00002PRCP99
0167827650999992002020318004-07320-047460FM-12+021299999V0203601N002610450019N0200001N1+02921+02221101341ADDAA199000091GF107991041081008001011001MA1999999098941MD1999999+0081REMSYN070AAXX  03184 82765 32598 73605 10292 20222 39894 40134 84810 333 58008;EQDQ01  00002PRCP99
0208827650999992002020400004-07320-047460FM-12+021299999V0200501N001510024019N0100001N1+02511+02271101441ADDAA199000091GA1091+999999999GF109991091999999999999999KA1240M+03151MA1999999099041MD1999999+0111REMSYN082AAXX  04004 82765 32/97 90503 10251 20227 39904 40144 333 10315 29080 55027 58011;EQDQ01  00002PRCP99
0173827650999992002020412004-07320-047460FM-12+021299999V0200501N000510120019N0200001N1+02541+02401101631ADDAA124000191GF107991071081008001001001KA1240N+02371MA1999999099221MD1999999+0001REMSYN082AAXX  04124 82765 21598 70501 10254 20240 39922 40163 87800 333 20237 58000 69924;
0167827650999992002020418004-07320-047460FM-12+021299999V0200501N002610075019N0200001N1+03081+02291101211ADDAA199000091GF106991051021008001041001MA1999999098831MD1999999-0111REMSYN070AAXX  04184 82765 32598 60505 10308 20229 39883 40121 85240 333 59011;EQDQ01  00002PRCP99
0208827650999992002020500004-07320-047460FM-12+021299999V0203601N000519999999N0200001N1+02881+02481101371ADDAA199000091GA1091+999999999GF109991091999999999999999KA1240M+03301MA1999999098981MD1999999-0061REMSYN082AAXX  05004 82765 32/98 93601 10288 20248 39898 40137 333 10330 29078 55056 59006;EQDQ01  00002PRCP99
0186827650999992002020512004-07320-047460FM-12+021299999V0203601N003111050019N0200001N1+02781+02251101631ADDAA199000091GF106991021011008001041041KA1240N+02531MA1999999099251MD1999999+0031REMSYN076AAXX  05124 82765 32598 63606 10278 20225 39925 40163 82144 333 20253 58003;EQDQ01  00002PRCP99
0167827650999992002020518004-07320-047460FM-12+021299999V0203601N001510450019N0200001N1+03381+02261101231ADDAA199000091GF107991041081008001041001MA1999999098871MD1999999+0041REMSYN070AAXX  05184 82765 32598 73603 10338 20226 39887 40123 84840 333 58004;EQDQ01  00002PRCP99
0236827650999992002020600004-07320-047460FM-12+021299999V0200901N000519999999N0200001N1+02541+02381101591ADDAA106039191AY151061AY211061GA1091+999999999GF109991091999999999999999KA1240M+03421MA1999999099191MD1999999+0211REMSYN094AAXX  06004 82765 21/98 90901 10254 20238 39919 40159 76651 333 10342 29077 55061 58021 60391;EQDQ01+000662PRSWM1
0230827650999992002020612004-07320-047460FM-12+021299999V0209999C000010075019N0200001N1+02401+02281101801ADDAA124064091AY151061AY211061GF108991999051008001021999KA1240N+02311MA1999999099381MD1999999+0131REMSYN088AAXX  06124 82765 21598 80000 10240 20228 39938 40180 76651 8852/ 333 20231 58013 60644;EQDQ01+000082SCOTLCQ02+000662PRSWM1
0179827650999992002020618004-07320-047460FM-12+021299999V0200901N001010120019N0200001N1+02641+02331101431ADDAA106009991GF108991061081008001011999MA1999999099061MD1999999+0191REMSYN082AAXX  06184 82765 21598 80902 10264 20233 39906 40143 766// 8681/ 333 58019 60101;EQDQ01+000662PRSWM1
0167827650999992002020718004-07320-047460FM-12+021299999V0200501N003110450019N0200001N1+03221+02261101081ADDAA199000091GF106991031021008001071061MA1999999098701MD1999999-0361REMSYN070AAXX  07184 82765 32598 60506 10322 20226 39870 40108 83276 333 59036;EQDQ01  00002PRCP99
0208827650999992002020800004-07320-047460FM-12+021299999V0209999C000019999999N0200001N1+02861+02521101301ADDAA199000091GA1091+999999999GF109991091999999999999999KA1240M+03281MA1999999098911MD1999999-0081REMSYN082AAXX  08004 82765 32/98 90000 10286 20252 39891 40130 333 10328 29076 55072 59008;EQDQ01  00002PRCP99
0201827650999992002020812004-07320-047460FM-12+021299999V0200901N001010450019N0200001N1+02531+02421101531ADDAA124002091AY161061AY221061GF107991041021008001021001KA1240N+02421MA1999999099141MD1999999-0031MW1031REMSYN088AAXX  08124 82765 21598 70902 10253 20242 39914 40153 70362 84220 333 20242 59003 60024;
0195827650999992002020818004-07320-047460FM-12+021299999V0201401N001510450019N0200001N1+03211+02381101131ADDAA199000091AY121061AY221061GF107991041031008001021001MA1999999098761MD1999999+0061MW1171REMSYN076AAXX  08184 82765 31598 71403 10321 20238 39876 40113 71722 84320 333 58006;EQDQ01  00002PRCP99
0223827650999992002020900004-07320-047460FM-12+021299999V0201401N001510024019N0100001N1+02341+02221101511ADDAA106003091AY161061AY221061GA1091+999999999GF109991091999999999999999KA1240M+03281MA1999999099091MD1999999+0181MW1501REMSYN094AAXX  09004 82765 21/97 91403 10234 20222 39909 40151 75062 333 10328 29085 55012 58018 60031;
0201827650999992002020912004-07320-047460FM-12+021299999V0201801N001510450019N0040001N1+02241+02171101871ADDAA124149191AY161061AY261061GF108991041061002501021999KA1240N+02191MA1999999099431MD1999999+0291MW1511REMSYN088AAXX  09124 82765 21396 81803 10224 20217 39943 40187 75166 8462/ 333 20219 58029 61494;
0148827650999992002020918004-07320-047460FM-12+021299999V0202301N002610120019N0200001N1+02761+02281101551ADDAA199000021GF107991071081008001001001MA1999999099141MD1999999+0381REMSYN070AAXX  09184 82765 32598 72305 10276 20228 39914 40155 87800 333 58038;
0201827650999992002021000004-07320-047460FM-12+021299999V0209999C000019999999N0200001N1+02541+02361101531ADDAA106000191GA1091+999999999GF109991091999999999999999KA1240M+02831MA1999999099111MD1999999+0021REMSYN094AAXX  10004 82765 21/98 90000 10254 20236 39911 40153 7//62 333 10283 29088 55011 58002 69911;
0173827650999992002021012004-07320-047460FM-12+021299999V0200501N000512200019N0200001N1+02661+02391101641ADDAA124000191GF102991011011008001041001KA1240N+02251MA1999999099241MD1999999-0171REMSYN082AAXX  10124 82765 22598 20501 10266 20239 39924 40164 81140 333 20225 59017 69914;
0160827650999992002021018004-07320-047460FM-12+021299999V0200901N000510120019N0200001N1+02641+02291101271ADDAA106000391GF107991061081008001041001MA1999999098861MD1999999-0281REMSYN082AAXX  10184 82765 21598 70901 10264 20229 39886 40127 7//55 86840 333 59028 69931;
0208827650999992002021100004-07320-047460FM-12+021299999V0200901N001019999999N0200001N1+02541+02401101481ADDAA199000091GA1091+999999999GF109991091999999999999999KA1240M+03221MA1999999099081MD1999999-0031REMSYN082AAXX  11004 82765 32/98 90902 10254 20240 39908 40148 333 10322 29088 55063 59003;EQDQ01  00002PRCP99
0173827650999992002021112004-07320-047460FM-12+021299999V0200901N002610120019N0200001N1+02661+02391101581ADDAA124000391GF107991051081008001041001KA1240N+02391MA1999999099181MD1999999-0061REMSYN082AAXX  11124 82765 22598 70905 10266 20239 39918 40158 85840 333 20239 59006 69934;
0182827650999992002021118004-07320-047460FM-12+021299999V0200501N001510450019N0200001N1+02441+02271101291ADDAA106002091AY191061AY261061GF107991021031008001021001MA1999999098881MD1999999+0021MW1291REMSYN082AAXX  11184 82765 21598 70503 10244 20227 39888 40129 72996 82320 333 58002 60021;
0208827650999992002021200004-07320-047460FM-12+021299999V0200501N000519999999N0200001N1+02421+02131101331ADDAA199000091GA1091+999999999GF109991091999999999999999KA1240M+03031MA1999999098931MD1999999-0151REMSYN082AAXX  12004 82765 32/98 90501 10242 20213 39893 40133 333 10303 29086 55024 59015;EQDQ01  00002PRCP99
0173827650999992002021212004-07320-047460FM-12+021299999V0200501N000510120019N0200001N1+02621+02351101731ADDAA124002091GF106991051081008001041001KA1240N+02291MA1999999099311MD1999999+0131REMSYN082AAXX  12124 82765 22598 60501 10262 20235 39931 40173 85840 333 20229 58013 60024;
0160827650999992002021218004-07320-047460FM-12+021299999V0203601N002610450019N0200001N1+02241+02121101601ADDAA106011991GF108991041051008001021999MA1999999099161MD1999999+0281REMSYN082AAXX  12184 82765 21598 83605 10224 20212 39916 40160 7//66 8452/ 333 58028 60121;
0201827650999992002021300004-07320-047460FM-12+021299999V0203601N000519999999N0200001N1+02281+02201101621ADDAA106003091GA1091+999999999GF109991091999999999999999KA1240M+02981MA1999999099201MD1999999+0271REMSYN094AAXX  13004 82765 21/98 93601 10228 20220 39920 40162 7//66 333 10298 29092 55025 58027 60031;
0173827650999992002021312004-07320-047460FM-12+021299999V0203601N001010450019N0200001N1+02421+02301101631ADDAA124015091GF107991041051004501031041KA1240N+02251MA1999999099201MD1999999-0111REMSYN082AAXX  13124 82765 22498 73602 10242 20230 39920 40163 84534 333 20225 59011 60154;
0167827650999992002021318004-07320-047460FM-12+021299999V0200901N004110450019N0200001N1+03101+02441101301ADDAA199000091GF106991041021008001031041MA1999999098911MD1999999-0251REMSYN070AAXX  13184 82765 32598 60908 10310 20244 39891 40130 84234 333 59025;EQDQ01  00002PRCP99
0201827650999992002021400004-07320-047460FM-12+021299999V0200901N001010024019N0100001N1+02601+02371101451ADDAA106000191GA1091+999999999GF109991091999999999999999KA1240M+03251MA1999999099041MD1999999-0161REMSYN094AAXX  14004 82765 21/97 90902 10260 20237 39904 40145 7//62 333 10325 29084 55084 59016 69911;
0173827650999992002021412004-07320-047460FM-12+021299999V0209999C000010450019N0200001N1+02661+02331101621ADDAA124000191GF105991031011008001031041KA1240N+02211MA1999999099221MD1999999+0021REMSYN082AAXX  14124 82765 22598 50000 10266 20233 39922 40162 83134 333 20221 58002 69914;
0201827650999992002021500004-07320-047460FM-12+021299999V0209999C000010024019N0100001N1+02521+02311101421ADDAA106006191GA1091+999999999GF109991091999999999999999KA1240M+03341MA1999999099021MD1999999-0021REMSYN094AAXX  15004 82765 21/97 90000 10252 20231 39902 40142 7//62 333 10334 29080 55096 59002 60061;
0173827650999992002021512004-07320-047460FM-12+021299999V0201801N002110450019N0200001N1+02731+02431101711ADDAA124006191GF105991031011008001061041KA1240N+02471MA1999999099301MD1999999+0131REMSYN082AAXX  15124 82765 22598 51804 10273 20243 39930 40171 83164 333 20247 58013 60064;
0182827650999992002021518004-07320-047460FM-12+021299999V0200901N001510450019N0200001N1+03131+02381101241ADDAA106000191AY161061AY221061GF105991031031008001061001MA1999999098861MD1999999+0011MW1031REMSYN082AAXX  15184 82765 21598 50903 10313 20238 39886 40124 70362 83360 333 58001 69911;
0201827650999992002021612004-07320-047460FM-12+021299999V0200501N003110075019N0040001N1+02261+02181101851ADDAA124031091AY191061AY261061GF108991061021008001021999KA1240N+02231MA1999999099431MD1999999+0131MW1511REMSYN088AAXX  16124 82765 21596 80506 10226 20218 39943 40185 75196 8622/ 333 20223 58013 60314;
0182827650999992002021618004-07320-047460FM-12+021299999V0203601N002110450019N0200001N1+02981+02471101431ADDAA106002091AY161061AY251061GF108991031031008001021999MA1999999099041MD1999999+0181MW1291REMSYN082AAXX  16184 82765 21598 83604 10298 20247 39904 40143 72965 8332/ 333 58018 60021;
0201827650999992002021700004-07320-047460FM-12+021299999V0203601N000519999999N0200001N1+02561+02421101451ADDAA106000591GA1091+999999999GF109991091999999999999999KA1240M+03061MA1999999099031MD1999999+0041REMSYN094AAXX  17004 82765 21/98 93601 10256 20242 39903 40145 7//55 333 10306 29088 55016 58004 69951;
0173827650999992002021712004-07320-047460FM-12+021299999V0203601N000510450019N0200001N1+02601+02401101611ADDAA124003091GF106991041081008001041001KA1240N+02211MA1999999099211MD1999999-0221REMSYN082AAXX  17124 82765 22598 63601 10260 20240 39921 40161 84840 333 20221 59022 60034;
0195827650999992002021718004-07320-047460FM-12+021299999V0201401N003110450019N0200001N1+02901+02321101281ADDAA199000091AY191061AY291061GF106991031031008001041001MA1999999098881MD1999999-0161MW1291REMSYN076AAXX  17184 82765 31598 61406 10290 20232 39888 40128 72999 83340 333 59016;EQDQ01  00002PRCP99
0220827650999992002021800004-07320-047460FM-12+021299999V0200901N001019999999N0200001N1+02741+02501101351ADDAA199000091GA1091+999999999GF109991091999999999999999KA1240M+03381MA1999999098961MD1999999-0071MW1131REMSYN088AAXX  18004 82765 31/98 90902 10274 20250 39896 40135 713// 333 10338 29084 55071 59007;EQDQ01  00002PRCP99
0179827650999992002021812004-07320-047460FM-12+021299999V0200901N000512200019N0200001N1+02721+02451101471ADDAA124001091GF103991011011008001031001KA1240N+02371MA1999999099081MD1999999-0131REMSYN088AAXX  18124 82765 21598 30901 10272 20245 39908 40147 7//55 81130 333 20237 59013 60014;
0173827650999992002021818004-07320-047460FM-12+021299999V0201401N001512200019N0200001N1+03181+02361101041ADDAA199000091GF104991021021008001041001MA1999999098671MD1999999-0211REMSYN076AAXX  18184 82765 31598 41403 10318 20236 39867 40104 7//99 82240 333 59021;EQDQ01  00002PRCP99
0220827650999992002021900004-07320-047460FM-12+021299999V0201401N000519999999N0200001N1+02981+02641101201ADDAA199000091GA1091+999999999GF109991091999999999999999KA1240M+03461MA1999999098831MD1999999-0131MW1131REMSYN088AAXX  19004 82765 31/98 91401 10298 20264 39883 40120 713// 333 10346 29078 55088 59013;EQDQ01  00002PRCP99
0201827650999992002021912004-07320-047460FM-12+021299999V0201401N001012200019N0200001N1+02841+02421101451ADDAA124002091AY161061AY221061GF104991021011008001041061KA1240N+02501MA1999999099081MD1999999+0001MW1021REMSYN088AAXX  19124 82765 21598 41402 10284 20242 39908 40145 70262 82146 333 20250 58000 60024;
0182827650999992002021918004-07320-047460FM-12+021299999V0201401N002110450019N0200001N1+02671+02371101161ADDAA106004191AY161061AY221061GF105991031031008001061011MA1999999098771MD1999999+0101MW1031REMSYN082AAXX  19184 82765 21598 51404 10267 20237 39877 40116 70362 83361 333 58010 60041;
0208827650999992002022000004-07320-047460FM-12+021299999V0209999C000019999999N0200001N1+02681+02541101131ADDAA199000091GA1091+999999999GF109991091999999999999999KA1240M+03291MA1999999098751MD1999999-0081REMSYN082AAXX  20004 82765 32/98 90000 10268 20254 39875 40113 333 10329 29086 55074 59008;EQDQ01  00002PRCP99
0173827650999992002022012004-07320-047460FM-12+021299999V0201401N001010450019N0200001N1+02751+02501101531ADDAA124004191GF105991031011008001031041KA1240N+02451MA1999999099141MD1999999+0061REMSYN082AAXX  20124 82765 22598 51402 10275 20250 39914 40153 83134 333 20245 58006 60044;
0167827650999992002022018004-07320-047460FM-12+021299999V0200901N002612200019N0200001N1+03311+02361101101ADDAA199000091GF104991031021008001001081MA1999999098731MD1999999-0041REMSYN070AAXX  20184 82765 32598 40905 10331 20236 39873 40110 83208 333 59004;EQDQ01  00002PRCP99
0208827650999992002022100004-07320-047460FM-12+021299999V0200501N000512200019N0200001N1+02881+02601101201ADDAA199000091GA1001+999999999GF100991001001999999001001KA1240M+03481MA1999999098831MD1999999+0081REMSYN082AAXX  21004 82765 32998 00501 10288 20260 39883 40120 333 10348 29079 55099 58008;EQDQ01  00002PRCP99
0186827650999992002022112004-07320-047460FM-12+021299999V0200501N000512200019N0200001N1+02811+02461101391ADDAA199000091GF102991011001017501041061KA1240N+02461MA1999999099021MD1999999-0121REMSYN076AAXX  21124 82765 32798 20501 10281 20246 39902 40139 81046 333 20246 59012;EQDQ01  00002PRCP99
0167827650999992002022118004-07320-047460FM-12+021299999V0201401N002112200019N0200001N1+03431+02291101041ADDAA199000091GF104991021021008001001041MA1999999098681MD1999999-0051REMSYN070AAXX  21184 82765 32598 41404 10343 20229 39868 40104 82204 333 59005;EQDQ01  00002PRCP99
0198827650999992002022200004-07320-047460FM-12+021299999V0201401N000512200019N0200001N1+02971+02601101101ADDAA199000091GF102991011011012501061001KA1240M+03561MA1999999098741MD1999999-0091REMSYN088AAXX  22004 82765 32698 21401 10297 20260 39874 40110 81160 333 10356 29074 55111 59009;EQDQ01  00002PRCP99
0186827650999992002022212004-07320-047460FM-12+021299999V0201401N000512200019N0200001N1+02821+02421101321ADDAA199000091GF102991021011008001001001KA1240N+02391MA1999999098951MD1999999-0071REMSYN076AAXX  22124 82765 32598 21401 10282 20242 39895 40132 82100 333 20239 59007;EQDQ01  00002PRCP99
0167827650999992002022218004-07320-047460FM-12+021299999V0201401N001010450019N0200001N1+03461+02541101921ADDAA199000091GF106991041021008001041001MA1999999098571MD1999999-0111REMSYN070AAXX  22184 82765 32598 61402 10346 20254 39857 40192 84240 333 59011;EQDQ01  00002PRCP99
0173827650999992002022300004-07320-047460FM-12+021299999V0209999C000012200019N0200001N1+02801+02481101471ADDAA124000191GF101991011011008001001001KA1240N+02471MA1999999099091MD1999999+0141REMSYN082AAXX  23004 82765 22598 10000 10280 20248 39909 40147 81100 333 20247 58014 69914;
0173827650999992002022312004-07320-047460FM-12+021299999V0209999C000012200019N0200001N1+02801+02481101471ADDAA124000191GF101991011011008001001001KA1240N+02471MA1999999099091MD1999999+0141REMSYN082AAXX  23124 82765 22598 10000 10280 20248 39909 40147 81100 333 20247 58014 69914;
0167827650999992002022318004-07320-047460FM-12+021299999V0200901N003112200019N0200001N1+03481+02381101031ADDAA199000091GF104991021021008001041001MA1999999098731MD1999999+0161REMSYN070AAXX  23184 82765 32598 40906 10348 20238 39873 40103 82240 333 58016;EQDQ01  00002PRCP99
0198827650999992002022400004-07320-047460FM-12+021299999V0209999C000012200019N0200001N1+03041+02451101281ADDAA199000091GF101991011011008001001001KA1240M+03581MA1999999098911MD1999999+0231REMSYN088AAXX  24004 82765 32598 10000 10304 20245 39891 40128 81100 333 10358 29069 55102 58023;EQDQ01  00002PRCP99
0196827650999992002022412004-07320-047460FM-12+021299999V0200501N000512200019N0200001N1+02861+02521101601ADDAA199000091GA1001+999999999GF100991001001999999001001KA1240N+02491MA1999999099231MD1999999+0141REMSYN070AAXX  24124 82765 32998 00501 10286 20252 39923 40160 333 20249 58014;EQDQ01  00002PRCP99
0195827650999992002022518004-07320-047460FM-12+021299999V0203601N003110042019N0200001N1+02831+02381101221ADDAA199000091AY121061AY211061GF107991051031004501021001MA1999999098841MD1999999+0021MW1171REMSYN076AAXX  25184 82765 31498 73606 10283 20238 39884 40122 71721 85320 333 58002;EQDQ01  00002PRCP99
0198827650999992002022600004-07320-047460FM-12+021299999V0203601N000510450019N0200001N1+02761+02541101231ADDAA199000091GF105991021011008001041001KA1240M+03441MA1999999098861MD1999999-0051REMSYN088AAXX  26004 82765 32598 53601 10276 20254 39886 40123 82140 333 10344 29081 55064 59005;EQDQ01  00002PRCP99
0186827650999992002022612004-07320-047460FM-12+021299999V0203601N002110120019N0200001N1+02671+02351101491ADDAA199000091GF107991071081008001001001KA1240N+02471MA1999999099101MD1999999-0011REMSYN076AAXX  26124 82765 32598 73604 10267 20235 39910 40149 87800 333 20247 59001;EQDQ01  00002PRCP99
0176827650999992002022618004-07320-047460FM-12+021299999V0200901N008210090019N0040001N1+03111+02261101171ADDAA199000021AY121061AY211061GF108991081081004501999999MA1999999098801MD1999999-0041MW1601REMSYN076AAXX  26184 82765 31496 80916 10311 20226 39880 40117 76021 888// 333 59004;
0213827650999992002022700004-07320-047460FM-12+021299999V0200901N000510075019N0200001N1+02531+02401101321ADDAA106006191AY161061AY221061GF108991051021008001011999KA1240M+03421MA1999999098921MD1999999+0061MW1031REMSYN100AAXX  27004 82765 21598 80901 10253 20240 39892 40132 70362 8521/ 333 10342 29082 55057 58006 60061;
0201827650999992002022712004-07320-047460FM-12+021299999V0200901N000510450019N0100001N1+02271+02211101631ADDAA124024991AY161061AY221061GF108991041071004501021999KA1240N+02251MA1999999099211MD1999999+0111MW1031REMSYN088AAXX  27124 82765 21497 80901 10227 20221 39921 40163 70362 8472/ 333 20225 58011 60254;
0167827650999992002022718004-07320-047460FM-12+021299999V0200501N003610450019N0200001N1+03101+02491101201ADDAA199000091GF107991041031008001021001MA1999999098821MD1999999+0021REMSYN070AAXX  27184 82765 32598 70507 10310 20249 39882 40120 84320 333 58002;EQDQ01  00002PRCP99
0208827650999992002022800004-07320-047460FM-12+021299999V0209999C000012200019N0200001N1+02741+02651101271ADDAA199000091GA1001+999999999GF100991001001999999001001KA1240M+03171MA1999999098861MD1999999-0061REMSYN082AAXX  28004 82765 32998 00000 10274 20265 39886 40127 333 10317 29089 55034 59006;EQDQ01  00002PRCP99
0186827650999992002022812004-07320-047460FM-12+021299999V0200501N000512200019N0200001N1+02721+02561101411ADDAA199000091GF104991021011008001041001KA1240N+02291MA1999999099031MD1999999-0181REMSYN076AAXX  28124 82765 32598 40501 10272 20256 39903 40141 82140 333 20229 59018;EQDQ01  00002PRCP99
0167827650999992002022818004-07320-047460FM-12+021299999V0200901N001510450019N0200001N1+03361+02451101091ADDAA199000091GF106991041021008001041001MA1999999098731MD1999999-0091REMSYN070AAXX  28184 82765 32598 60903 10336 20245 39873 40109 84240 333 59009;EQDQ01  00002PRCP99
0208827650999992002030100004-07320-047460FM-12+021299999V0200901N002012200019N0200001N1+02901+02501101131ADDAA199000091GA1001+999999999GF100991001001999999001001KA1240M+03501MA1999999098761MD1999999-0101REMSYN082AAXX  01000 82765 32998 00902 10290 20250 39876 40113 333 10350 29077 55095 59010;EQDQ01  00002PRCP99
0186827650999992002030112004-07320-047460FM-12+021299999V0200901N000512200019N0200001N1+02781+02581101461ADDAA199000091GF104991041021008001001001KA1240N+02411MA1999999099081MD1999999+0051REMSYN076AAXX  01124 82765 32598 40901 10278 20258 39908 40146 84200 333 20241 58005;EQDQ01  00002PRCP99
0167827650999992002030118004-07320-047460FM-12+021299999V0200901N003110450019N0200001N1+03221+02401101171ADDAA199000091GF105991031021008001041001MA1999999098801MD1999999+0071REMSYN070AAXX  01184 82765 32598 50906 10322 20240 39880 40117 83240 333 58007;EQDQ01  00002PRCP99
0208827650999992002030400004-07320-047460FM-12+021299999V0200501N000510024019N0100001N1+02651+02481101331ADDAA199000091GA1091+999999999GF109991091999999999999999KA1240M+03001MA1999999098911MD1999999-0031REMSYN082AAXX  04004 82765 32/97 90501 10265 20248 39891 40133 333 10300 29090 55018 59003;EQDQ01  00002PRCP99
0173827650999992002030412004-07320-047460FM-12+021299999V0200501N001510120019N0200001N1+02541+02381101681ADDAA124004191GF108991051081008001021999KA1240N+02341MA1999999099271MD1999999+0061REMSYN082AAXX  04124 82765 22598 80503 10254 20238 39927 40168 8582/ 333 20234 58006 60044;
0182827650999992002030418004-07320-047460FM-12+021299999V0200501N000510450019N0200001N1+02561+02251101361ADDAA106000591AY161061AY251061GF108991041021008001021999MA1999999098951MD1999999+0141MW1031REMSYN082AAXX  04184 82765 21598 80501 10256 20225 39895 40136 70365 8422/ 333 58014 69961;
0201827650999992002030512004-07320-047460FM-12+021299999V0203601N000510042019N0100001N1+02161+02111101861ADDAA124027991AY161061AY261061GF108991081071004501999999KA1240N+02161MA1999999099431MD1999999+0161MW1531REMSYN088AAXX  05124 82765 21497 83601 10216 20211 39943 40186 75366 887// 333 20216 58016 60284;
0182827650999992002030518004-07320-047460FM-12+021299999V0203601N001010450019N0200001N1+02461+02231101551ADDAA106003091AY161061AY251061GF108991041081004501021999MA1999999099131MD1999999+0181MW1031REMSYN082AAXX  05184 82765 21498 83602 10246 20223 39913 40155 70365 8482/ 333 58018 60031;
0189827650999992002030600004-07320-047460FM-12+021299999V0209999C000010024019N0100001N1+02341+02261101571ADDAA199000021GA1091+999999999GF109991091999999999999999KA1240M+02561MA1999999099131MD1999999+0141REMSYN082AAXX  06004 82765 32/97 90000 10234 20226 39913 40157 333 10256 29094 55000 58014;
0173827650999992002030612004-07320-047460FM-12+021299999V0203601N001010120019N0200001N1+02461+02321101671ADDAA124003091GF107991051081008001041001KA1240N+02171MA1999999099251MD1999999-0181REMSYN082AAXX  06124 82765 22598 73602 10246 20232 39925 40167 85840 333 20217 59018 60034;
0167827650999992002030618004-07320-047460FM-12+021299999V0203601N000510450019N0200001N1+03161+02521101251ADDAA199000091GF105991031021008001041001MA1999999098861MD1999999-0271REMSYN070AAXX  06184 82765 32598 53601 10316 20252 39886 40125 83240 333 59027;EQDQ01  00002PRCP99
0208827650999992002030700004-07320-047460FM-12+021299999V0203601N001019999999N0200001N1+02541+02291101391ADDAA199000091GA1091+999999999GF109991091999999999999999KA1240M+03381MA1999999098981MD1999999-0151REMSYN082AAXX  07004 82765 32/98 93602 10254 20229 39898 40139 333 10338 29083 55073 59015;EQDQ01  00002PRCP99
0186827650999992002030712004-07320-047460FM-12+021299999V0203601N001510450019N0200001N1+02561+02361101711ADDAA199000091GF106991041021008001041001KA1240N+02371MA1999999099301MD1999999+0051REMSYN076AAXX  07124 82765 32598 63603 10256 20236 39930 40171 84240 333 20237 58005;EQDQ01  00002PRCP99
0167827650999992002030718004-07320-047460FM-12+021299999V0202501N000510450019N0200001N1+03081+02541101211ADDAA199000091GF107991041021008001011001MA1999999098831MD1999999-0031REMSYN070AAXX  07184 82765 32598 72501 10308 20254 39883 40121 84210 333 59003;EQDQ01  00002PRCP99
0223827650999992002030800004-07320-047460FM-12+021299999V0202501N001019999999N0200001N1+02521+02381101601ADDAA106013091AY191061AY261061GA1091+999999999GF109991091999999999999999KA1240M+03201MA1999999099191MD1999999+0111MW1131REMSYN094AAXX  08004 82765 21/98 92502 10252 20238 39919 40160 71396 333 10320 29086 55042 58011 60131;
0179827650999992002030812004-07320-047460FM-12+021299999V0202301N001010120019N0200001N1+02621+02411101801ADDAA124014091GF107991071081008001001001KA1240N+02431MA1999999099391MD1999999+0091REMSYN088AAXX  08124 82765 21598 72302 10262 20241 39939 40180 7//55 87800 333 20243 58009 60144;
0182827650999992002030818004-07320-047460FM-12+021299999V0202501N001010450019N0200001N1+02741+02541101321ADDAA106021191AY191061AY261061GF107991021031008001021001MA1999999098921MD1999999+0091MW1291REMSYN082AAXX  08184 82765 21598 72502 10274 20254 39892 40132 72996 82320 333 58009 60211;
0208827650999992002030900004-07320-047460FM-12+021299999V0202501N001019999999N0200001N1+02641+02501101471ADDAA199000091GA1091+999999999GF109991091999999999999999KA1240M+03201MA1999999099061MD1999999-0121REMSYN082AAXX  09004 82765 32/98 92502 10264 20250 39906 40147 333 10320 29090 55041 59012;EQDQ01  00002PRCP99
0167827650999992002030918004-07320-047460FM-12+021299999V0202701N002110450019N0200001N1+03191+02471101271ADDAA199000091GF106991031021008001011041MA1999999098891MD1999999-0031REMSYN070AAXX  09184 82765 32598 62704 10319 20247 39889 40127 83214 333 59003;EQDQ01  00002PRCP99
0236827650999992002031000004-07320-047460FM-12+021299999V0202001N000519999999N0200001N1+02821+02541101371ADDAA199000091AY121061AY211061GA1091+999999999GF109991091999999999999999KA1240M+03371MA1999999098991MD1999999-0081MW1131REMSYN088AAXX  10004 82765 31/98 92001 10282 20254 39899 40137 71321 333 10337 29080 55073 59008;EQDQ01  00002PRCP99
0208827650999992002031100004-07320-047460FM-12+021299999V0209999C000019999999N0200001N1+02721+02521101411ADDAA199000091GA1091+999999999GF109991091999999999999999KA1240M+03201MA1999999099021MD1999999+0031REMSYN082AAXX  11004 82765 32/98 90000 10272 20252 39902 40141 333 10320 29084 55018 58003;EQDQ01  00002PRCP99
0201827650999992002031112004-07320-047460FM-12+021299999V0202001N001510450019N0100001N1+02161+02061101751ADDAA124034091AY161061AY221061GF108991041071004501021999KA1240N+02161MA1999999099331MD1999999+0081MW1511REMSYN088AAXX  11124 82765 21497 82003 10216 20206 39933 40175 75162 8472/ 333 20216 58008 60344;
0182827650999992002031118004-07320-047460FM-12+021299999V0202001N002110450019N0200001N1+02481+02171101471ADDAA106000191AY151061AY221061GF108991041081004501021999MA1999999099061MD1999999+0191MW1031REMSYN082AAXX  11184 82765 21498 82004 10248 20217 39906 40147 70352 8482/ 333 58019 69911;
0189827650999992002031200004-07320-047460FM-12+021299999V0202001N000519999999N0200001N1+02461+02321101551ADDAA199000021GA1091+999999999GF109991091999999999999999KA1240M+02741MA1999999099171MD1999999+0151REMSYN082AAXX  12004 82765 32/98 92001 10246 20232 39917 40155 333 10274 29090 55002 58015;
0173827650999992002031212004-07320-047460FM-12+021299999V0202001N000510120019N0200001N1+02441+02341101961ADDAA124000191GF108991081081008001999999KA1240N+02211MA1999999099531MD1999999+0201REMSYN082AAXX  12124 82765 22598 82001 10244 20234 39953 40196 888// 333 20221 58020 69914;
0137827650999992002031218004-07320-047460FM-12+021299999V0202301N000519999999N0200001N1+03021+02531999999ADDAA199000091GF106991999999008001999999REMSYN069AAXX  12184 82765 32598 62301 10302 20253 9911 40151 83240 333 58005;EQDQ01  00002PRCP99
0208827650999992002031300004-07320-047460FM-12+021299999V0209999C000019999999N0200001N1+02801+02561101511ADDAA199000091GA1091+999999999GF109991091999999999999999KA1240M+03161MA1999999099111MD1999999-0061REMSYN082AAXX  13004 82765 32/98 90000 10280 20256 39911 40151 333 10316 29086 55039 59006;EQDQ01  00002PRCP99
0186827650999992002031312004-07320-047460FM-12+021299999V0201801N000510450019N0200001N1+02601+02501101331ADDAA199000091GF106991021021008001041001KA1240N+02351MA1999999099331MD1999999-0201REMSYN076AAXX  13124 82765 32598 61801 10260 20250 39933 40133 82240 333 20235 59020;EQDQ01  00002PRCP99
0167827650999992002031318004-07320-047460FM-12+021299999V0201601N003110450019N0200001N1+03361+02391101241ADDAA199000091GF106991041021008001041001MA1999999098871MD1999999-0241REMSYN070AAXX  13184 82765 32598 61606 10336 20239 39887 40124 84240 333 59024;EQDQ01  00002PRCP99
0208827650999992002031400004-07320-047460FM-12+021299999V0201401N000512200019N0200001N1+02881+02521101381ADDAA199000091GA1001+999999999GF100991001001999999001001KA1240M+03481MA1999999099001MD1999999-0111REMSYN082AAXX  14004 82765 32998 01401 10288 20252 39900 40138 333 10348 29078 55101 59011;EQDQ01  00002PRCP99
0186827650999992002031412004-07320-047460FM-12+021299999V0201101N004110450019N0200001N1+02741+02431101541ADDAA199000091GF107991041021008001011001KA1240N+02461MA1999999099161MD1999999-0171REMSYN076AAXX  14124 82765 32598 71108 10274 20243 39916 40154 84210 333 20246 59017;EQDQ01  00002PRCP99
0167827650999992002031418004-07320-047460FM-12+021299999V0200501N001010450019N0200001N1+03231+02431101211ADDAA199000091GF107991041021008001011041MA1999999098841MD1999999-0031REMSYN070AAXX  14184 82765 32598 70502 10323 20243 39884 40121 84214 333 59003;EQDQ01  00002PRCP99
0208827650999992002031500004-07320-047460FM-12+021299999V0209999C000012200019N0200001N1+02901+02641101251ADDAA199000091GA1001+999999999GF100991001001999999001001KA1240M+03411MA1999999098871MD1999999-0131REMSYN082AAXX  15004 82765 32998 00000 10290 20264 39887 40125 333 10341 29080 55061 59013;EQDQ01  00002PRCP99
0186827650999992002031512004-07320-047460FM-12+021299999V0201101N000510450019N0200001N1+02901+02481101581ADDAA199000091GF106991021011008001041001KA1240N+02371MA1999999099201MD1999999+0041REMSYN076AAXX  15124 82765 32598 61101 10290 20248 39920 40158 82140 333 20237 58004;EQDQ01  00002PRCP99
0167827650999992002031518004-07320-047460FM-12+021299999V0200901N000510450019N0200001N1+03421+02531101161ADDAA199000091GF106991041021008001041001MA1999999098801MD1999999-0041REMSYN070AAXX  15184 82765 32598 60901 10342 20253 39880 40116 84240 333 59004;EQDQ01  00002PRCP99
0208827650999992002031600004-07320-047460FM-12+021299999V0209999C000012200019N0200001N1+02941+02661101211ADDAA199000091GA1001+999999999GF100991001001999999001001KA1240M+03541MA1999999098841MD1999999-0031REMSYN082AAXX  16004 82765 32998 00000 10294 20266 39884 40121 333 10354 29079 55098 59003;EQDQ01  00002PRCP99
0186827650999992002031612004-07320-047460FM-12+021299999V0201401N003110075019N0200001N1+02771+02361101541ADDAA199000091GF107991071021008001001001KA1240N+02421MA1999999099161MD1999999-0041REMSYN076AAXX  16124 82765 32598 71406 10277 20236 39916 40154 87200 333 20242 59004;EQDQ01  00002PRCP99
0195827650999992002031618004-07320-047460FM-12+021299999V0203201N001510450019N0040001N1+03331+02411101111ADDAA199000091AY191061AY221061GF107991041021008001021041MA1999999098751MD1999999-0051MW1291REMSYN076AAXX  16184 82765 31596 73203 10333 20241 39875 40111 72992 84224 333 59005;EQDQ01  00002PRCP99
0201827650999992002031700004-07320-047460FM-12+021299999V0203501N001010024019N0100001N1+02551+02361101281ADDAA106000191GA1091+999999999GF109991091999999999999999KA1240M+03421MA1999999098891MD1999999+0051REMSYN094AAXX  17004 82765 21/97 93502 10255 20236 39889 40128 7/62/ 333 10342 29080 55065 58005 69911;
0173827650999992002031712004-07320-047460FM-12+021299999V0203501N000510450019N0200001N1+02741+02451101541ADDAA124000191GF106991041021008001011041KA1240N+02401MA1999999099141MD1999999-0021REMSYN082AAXX  17124 82765 22598 63501 10274 20245 39914 40154 84214 333 20240 59002 69914;
0195827650999992002031718004-07320-047460FM-12+021299999V0202501N002110450019N0040001N1+03041+02521101101ADDAA199000091AY191061AY221061GF107991041031004501021001MA1999999098721MD1999999-0031MW1291REMSYN076AAXX  17184 82765 31496 72504 10304 20252 39872 40110 72992 84320 333 59003;EQDQ01  00002PRCP99
0201827650999992002031800004-07320-047460FM-12+021299999V0202501N001010024019N0100001N1+02391+02261101351ADDAA106005191GA1091+999999999GF109991091999999999999999KA1240M+03341MA1999999098951MD1999999+0061REMSYN094AAXX  18004 82765 21/97 92502 10239 20226 39895 40135 7//62 333 10334 29086 55063 58006 60051;
0167827650999992002031818004-07320-047460FM-12+021299999V0202301N001010450019N0200001N1+03061+02501101141ADDAA199000091GF107991021021008001011001MA1999999098761MD1999999+0041REMSYN070AAXX  18184 82765 32598 72302 10306 20250 39876 40114 82210 333 58004;EQDQ01  00002PRCP99
0208827650999992002031900004-07320-047460FM-12+021299999V0202301N000519999999N0200001N1+02801+02601101201ADDAA199000091GA1091+999999999GF109991091999999999999999KA1240M+03121MA1999999098811MD1999999-0141REMSYN082AAXX  19004 82765 32/98 92301 10280 20260 39881 40120 333 10312 29082 55016 59014;EQDQ01  00002PRCP99
0186827650999992002031912004-07320-047460FM-12+021299999V0202301N001510120019N0200001N1+02641+02411101431ADDAA199000091GF108991081081008001999999KA1240N+02371MA1999999099041MD1999999-0141REMSYN076AAXX  19124 82765 32598 82303 10264 20241 39904 40143 888// 333 20237 59014;EQDQ01  00002PRCP99
0167827650999992002031918004-07320-047460FM-12+021299999V0203201N002110450019N0200001N1+03101+02391100941ADDAA199000091GF107991041021008001011001MA1999999098571MD1999999-0191REMSYN070AAXX  19184 82765 32598 73204 10310 20239 39857 40094 84210 333 59019;EQDQ01  00002PRCP99
0208827650999992002032000004-07320-047460FM-12+021299999V0203201N001519999999N0200001N1+02681+02521101231ADDAA199000091GA1091+999999999GF109991091999999999999999KA1240M+03201MA1999999098851MD1999999+0041REMSYN082AAXX  20004 82765 32/98 93203 10268 20252 39885 40123 333 10320 29085 55011 58004;EQDQ01  00002PRCP99
0186827650999992002032012004-07320-047460FM-12+021299999V0202301N001510120019N0200001N1+02561+02381101571ADDAA199000091GF108991081081008001999999KA1240N+02411MA1999999099171MD1999999+0131REMSYN076AAXX  20124 82765 32598 82303 10256 20238 39917 40157 888// 333 20241 58013;EQDQ01  00002PRCP99
0167827650999992002032018004-07320-047460FM-12+021299999V0203001N001010450019N0200001N1+03261+02521101051ADDAA199000091GF106991041021008001011041MA1999999098681MD1999999+0111REMSYN070AAXX  20184 82765 32598 63002 10326 20252 39868 40105 84214 333 58011;EQDQ01  00002PRCP99
0201827650999992002032100004-07320-047460FM-12+021299999V0201101N001010024019N0100001N1+02491+02381101381ADDAA106014091GA1091+999999999GF109991091999999999999999KA1240M+03391MA1999999098971MD1999999+0121REMSYN094AAXX  21004 82765 21/97 91102 10249 20238 39897 40138 7//65 333 10339 29086 55058 58012 60141;
0201827650999992002032112004-07320-047460FM-12+021299999V0201101N001010450019N0200001N1+02541+02361101471ADDAA124014091AY151061AY221061GF105991031021008001031091KA1240N+02291MA1999999099061MD1999999-0111MW1031REMSYN088AAXX  21124 82765 21598 51102 10254 20236 39906 40147 70352 83239 333 20229 59011 60144;
0195827650999992002032118004-07320-047460FM-12+021299999V0202001N002110090019N0100001N1+03161+02501101011ADDAA199000091AY121061AY211061GF105991051081004501001001MA1999999098641MD1999999-0041MW1291REMSYN076AAXX  21184 82765 31497 52004 10316 20250 39864 40101 72921 85800 333 59004;EQDQ01  00002PRCP99
0201827650999992002032200004-07320-047460FM-12+021299999V0203501N001019999999N0200001N1+02661+02521101201ADDAA106015091GA1091+999999999GF109991091999999999999999KA1240M+03361MA1999999098861MD1999999-0111REMSYN094AAXX  22004 82765 21/98 93502 10266 20252 39886 40120 7//96 333 10336 29085 55073 59011 60151;
0173827650999992002032212004-07320-047460FM-12+021299999V0202901N001010090019N0200001N1+02701+02431101451ADDAA124015091GF107991071081004501001001KA1240N+02401MA1999999099061MD1999999+0001REMSYN082AAXX  22124 82765 22498 72902 10270 20243 39906 40145 87800 333 20240 58000 60154;
0182827650999992002032218004-07320-047460FM-12+021299999V0203501N004610042019N0040001N1+03191+02391101071ADDAA106007191AY121061AY221061GF107991071071004501011041MA1999999098701MD1999999+0061MW1251REMSYN082AAXX  22184 82765 21496 73509 10319 20239 39870 40107 72522 87714 333 58006 60071;
0213827650999992002032300004-07320-047460FM-12+021299999V0209999C000010090019N0100001N1+02591+02421101501ADDAA106000191AY161061AY221061GF108991051081004501011999KA1240M+03311MA1999999099101MD1999999+0241MW1131REMSYN100AAXX  23004 82765 21497 80000 10259 20242 39910 40150 71362 8581/ 333 10331 29082 55036 58024 69921;
0201827650999992002032312004-07320-047460FM-12+021299999V0203501N000510450019N0200001N1+02671+02431101681ADDAA124007991AY151061AY221061GF106991041021004501031001KA1240N+02441MA1999999099281MD1999999+0021MW1031REMSYN088AAXX  23124 82765 21498 63501 10267 20243 39928 40168 70352 84230 333 20244 58002 60084;
0182827650999992002032318004-07320-047460FM-12+021299999V0203601N002110450019N0100001N1+02551+02351101311ADDAA106000191AY121061AY221061GF107991041081002501021001MA1999999098901MD1999999+0201MW1501REMSYN082AAXX  23184 82765 21397 73604 10255 20235 39890 40131 75022 84820 333 58020 69911;
0213827650999992002032400004-07320-047460FM-12+021299999V0203601N000510450019N0100001N1+02481+02381101561ADDAA106000191AY151061AY221061GF107991041081008001031001KA1240M+03281MA1999999099161MD1999999+0061MW1031REMSYN100AAXX  24004 82765 21597 73601 10248 20238 39916 40156 70352 84830 333 10328 29091 55042 58006 69911;
0179827650999992002032412004-07320-047460FM-12+021299999V0203601N000510120019N0200001N1+02381+02291101851ADDAA124030091GF108991051081008001021999KA1240N+02311MA1999999099431MD1999999+0151REMSYN088AAXX  24124 82765 21598 83601 10238 20229 39943 40185 7//66 8582/ 333 20231 58015 60304;
0167827650999992002032418004-07320-047460FM-12+021299999V0203201N001510450019N0200001N1+02941+02431101391ADDAA199000091GF107991041081008001021001MA1999999098991MD1999999+0091REMSYN070AAXX  24184 82765 32598 73203 10294 20243 39899 40139 84820 333 58009;EQDQ01  00002PRCP99
0191827650999992002032500004-07320-047460FM-12+021299999V0202701N000510450019N0200001N1+02561+02421101411ADDAA106000191GF108991021021008001011999KA1240M+03181MA1999999099001MD1999999-0161REMSYN100AAXX  25004 82765 21598 82701 10256 20242 39900 40141 7//55 8221/ 333 10318 28088 55014 59016 69911;
0173827650999992002032512004-07320-047460FM-12+021299999V0202701N000510120019N0200001N1+02561+02381101591ADDAA124000191GF108991061081008001021999KA1240N+02411MA1999999099181MD1999999-0251REMSYN082AAXX  25124 82765 22598 82701 10256 20238 39918 40159 8682/ 333 20241 59025 69914;
0160827650999992002032518004-07320-047460FM-12+021299999V0209999C000010450019N0200001N1+02881+02521101161ADDAA106000891GF106991041021008001021001MA1999999098771MD1999999-0221REMSYN082AAXX  25184 82765 21598 60000 10288 20252 39877 40116 7//55 84220 333 59022 69981;
0213827650999992002032600004-07320-047460FM-12+021299999V0202901N000510075019N0200001N1+02481+02321101451ADDAA106001091AY191061AY251061GF108991081051008001999999KA1240M+03121MA1999999099041MD1999999+0041MW1511REMSYN100AAXX  26004 82765 21598 82901 10248 20232 39904 40145 75195 885// 333 10312 29088 55033 58004 60011;
0179827650999992002032612004-07320-047460FM-12+021299999V0202701N000510075019N0200001N1+02381+02291101661ADDAA124007991GF108991061051008001021999KA1240N+02291MA1999999099241MD1999999+0061REMSYN088AAXX  26124 82765 21598 82701 10238 20229 39924 40166 7//66 8652/ 333 20229 58006 60084;
0167827650999992002032618004-07320-047460FM-12+021299999V0203201N002610120019N0200001N1+02821+02311101261ADDAA199000091GF107991061081008001021001MA1999999098861MD1999999+0091REMSYN070AAXX  26184 82765 32598 73205 10282 20231 39886 40126 86820 333 58009;EQDQ01  00002PRCP99
0198827650999992002032700004-07320-047460FM-12+021299999V0203201N001010450019N0200001N1+02641+02481101471ADDAA199000091GF108991041021008001021999KA1240M+02901MA1999999099061MD1999999+0021REMSYN088AAXX  27004 82765 32598 83202 10264 20248 39906 40147 8422/ 333 10290 29088 55029 58002;EQDQ01  00002PRCP99
0186827650999992002032712004-07320-047460FM-12+021299999V0203201N000510450019N0200001N1+02541+02381101641ADDAA199000091GF105991041021008001061001KA1240N+02371MA1999999099241MD1999999+0001REMSYN076AAXX  27124 82765 32598 53201 10254 20238 39924 40164 84260 333 20237 58000;EQDQ01  00002PRCP99
0167827650999992002032718004-07320-047460FM-12+021299999V0202901N001512200019N0200001N1+03221+02471101201ADDAA199000091GF104991021021008001011041MA1999999098831MD1999999-0031REMSYN070AAXX  27184 82765 32598 42903 10322 20247 39883 40120 82214 333 59003;EQDQ01  00002PRCP99
0226827650999992002032800004-07320-047460FM-12+021299999V0202401N001510450019N0100001N1+02571+02231101331ADDAA199000091AY191061AY221061GF108991041081008001011999KA1240M+03411MA1999999098931MD1999999-0131MW1291REMSYN094AAXX  28004 82765 31597 82403 10257 20223 39893 40133 72992 8481/ 333 10341 29079 55081 59013;EQDQ01  00002PRCP99
0201827650999992002032812004-07320-047460FM-12+021299999V0202301N001012200019N0200001N1+02801+02401101581ADDAA124000191AY161061AY221061GF104991021021008001031001KA1240N+02381MA1999999099191MD1999999-0051MW1021REMSYN088AAXX  28124 82765 21598 42302 10280 20240 39919 40158 70262 82230 333 20238 59005 69924;
0167827650999992002032818004-07320-047460FM-12+021299999V0201401N003112200019N0200001N1+03291+02341101141ADDAA199000091GF104991021021008001041041MA1999999098771MD1999999-0061REMSYN070AAXX  28184 82765 32598 41406 10329 20234 39877 40114 82244 333 59006;EQDQ01  00002PRCP99
0186827650999992002032912004-07320-047460FM-12+021299999V0201301N001512200019N0200001N1+02741+02341101481ADDAA199000091GF102991011001017501031091KA1240N+02341MA1999999099091MD1999999-0101REMSYN076AAXX  29124 82765 32798 21303 10274 20234 39909 40148 81039 333 20234 59010;EQDQ01  00002PRCP99
0167827650999992002032918004-07320-047460FM-12+021299999V0201201N003112200019N0200001N1+03301+02331101091ADDAA199000091GF104991021011008001061041MA1999999098721MD1999999-0051REMSYN070AAXX  29184 82765 32598 41206 10330 20233 39872 40109 82164 333 59005;EQDQ01  00002PRCP99
0198827650999992002033000004-07320-047460FM-12+021299999V0209999C000012200019N0200001N1+02911+02581101251ADDAA199000091GF102991011011012501061001KA1240M+03421MA1999999098871MD1999999+0001REMSYN088AAXX  30004 82765 32698 20000 10291 20258 39887 40125 81160 333 10342 29076 55110 58000;EQDQ01  00002PRCP99
0186827650999992002033012004-07320-047460FM-12+021299999V0201401N001010450019N0200001N1+02821+02481101461ADDAA199000091GF107991041021008001011001KA1240N+02531MA1999999099081MD1999999-0011REMSYN076AAXX  30124 82765 32598 71402 10282 20248 39908 40146 84210 333 20253 59001;EQDQ01  00002PRCP99
0167827650999992002033018004-07320-047460FM-12+021299999V0201201N002110450019N0200001N1+03321+02381101121ADDAA199000091GF106991041021008001041001MA1999999099031MD1999999+0041REMSYN070AAXX  30184 82765 32598 61204 10332 20238 39903 40112 84240 333 58004;EQDQ01  00002PRCP99
0198827650999992002033100004-07320-047460FM-12+021299999V0201401N000512200019N0200001N1+02921+02661101291ADDAA199000091GF102991011011008001001011KA1240M+03401MA1999999098921MD1999999+0051REMSYN088AAXX  31004 82765 32598 21401 10292 20266 39892 40129 81101 333 10340 29078 55069 58005;EQDQ01  00002PRCP99
0186827650999992002033112004-07320-047460FM-12+021299999V0201101N000510075019N0200001N1+02601+02371101571ADDAA199000091GF108991051011008001021011KA1240N+02331MA1999999099181MD1999999+0101REMSYN076AAXX  31124 82765 32598 81101 10260 20237 39918 40157 85121 333 20233 58010;EQDQ01  00002PRCP99
0167827650999992002033118004-07320-047460FM-12+021299999V0200901N001510450019N0200001N1+03101+02441101241ADDAA199000091GF108991041021008001021999MA1999999098861MD1999999+0101REMSYN070AAXX  31184 82765 32598 80903 10310 20244 39886 40124 8422/ 333 58010;EQDQ01  00002PRCP99
0186827650999992002040112004-07320-047460FM-12+021299999V0200901N000510450019N0200001N1+02681+02481101481ADDAA199000091GF108991041011008001011999KA1240N+02391MA1999999099091MD1999999-0091REMSYN076AAXX  01124 82765 32598 80901 10268 20248 39909 40148 8411/ 333 20239 59009;EQDQ01  00002PRCP99
0179827650999992002040118004-07320-047460FM-12+021299999V0200901N001010450019N0200001N1+03081+02491101211ADDAA199000091GF108991021031008001011999MA1999999098831MD1999999-0031MW1291REMSYN076AAXX  01184 82765 31598 80902 10308 20249 39883 40121 729// 8231/ 333 59003;EQDQ01  00002PRCP99
0208827650999992002040200004-07320-047460FM-12+021299999V0200901N000519999999N0200001N1+02601+02401101311ADDAA199000091GA1091+999999999GF109991091999999999999999KA1240M+03141MA1999999098921MD1999999-0041REMSYN082AAXX  02004 82765 32/98 90901 10260 20240 39892 40131 333 10314 29084 55010 59004;EQDQ01  00002PRCP99
0186827650999992002040212004-07320-047460FM-12+021299999V0200901N000510450019N0200001N1+02651+02461101461ADDAA199000091GF107991041011008001011041KA1240N+02381MA1999999099061MD1999999-0061REMSYN076AAXX  02124 82765 32598 70901 10265 20246 39906 40146 84114 333 20238 59006;EQDQ01  00002PRCP99
0167827650999992002040218004-07320-047460FM-12+021299999V0201301N002110450019N0200001N1+03191+02391101121ADDAA199000091GF107991041021008001011001MA1999999098751MD1999999-0081REMSYN070AAXX  02184 82765 32598 71304 10319 20239 39875 40112 84210 333 59008;EQDQ01  00002PRCP99
0236827650999992002040300004-07320-047460FM-12+021299999V0201301N000510024019N0100001N1+02821+02621101321ADDAA199000091AY121061AY221061GA1091+999999999GF109991091999999999999999KA1240M+03311MA1999999098941MD1999999+0021MW1131REMSYN088AAXX  03004 82765 31/97 91301 10282 20262 39894 40132 71322 333 10331 29083 55031 58002;EQDQ01  00002PRCP99
0186827650999992002040312004-07320-047460FM-12+021299999V0201001N001010450019N0200001N1+02751+02451101531ADDAA199000091GF107991041011008001011041KA1240N+02471MA1999999099151MD1999999+0091REMSYN076AAXX  03124 82765 32598 71002 10275 20245 39915 40153 84114 333 20247 58009;EQDQ01  00002PRCP99
0167827650999992002040318004-07320-047460FM-12+021299999V0201201N002110075019N0200001N1+03241+02811101101ADDAA199000091GF107991051021008001011081MA1999999098731MD1999999-0021REMSYN070AAXX  03184 82765 32598 71204 10324 20281 39873 40110 85218 333 59002;EQDQ01  00002PRCP99
0236827650999992002040400004-07320-047460FM-12+021299999V0209999C000010024019N0100001N1+02821+02621101421ADDAA199000091AY121061AY221061GA1091+999999999GF109991091999999999999999KA1240M+03421MA1999999099041MD1999999+0101MW1131REMSYN088AAXX  04004 82765 31/97 90000 10282 20262 39904 40142 71322 333 10342 29085 55039 58010;EQDQ01  00002PRCP99
0173827650999992002040412004-07320-047460FM-12+021299999V0201201N000510120019N0200001N1+02541+02401101611ADDAA124008991GF108991061081008001021999KA1240N+02331MA1999999099221MD1999999+0071REMSYN082AAXX  04124 82765 21598 81201 10254 20240 39922 40161 8682/ 333 20233 58007 60094;
0179827650999992002040418004-07320-047460FM-12+021299999V0200801N004110450019N0100001N1+03101+02511101241ADDAA199000091GF105991021031008001041001MA1999999098851MD1999999+0121MW1291REMSYN076AAXX  04184 82765 31597 50808 10310 20251 39885 40124 729// 82340 333 58012;EQDQ01  00002PRCP99
0186827650999992002040512004-07320-047460FM-12+021299999V0200501N000510450019N0200001N1+02701+02501101501ADDAA199000091GF105991031021008001041001KA1240N+02411MA1999999099101MD1999999-0121REMSYN076AAXX  05124 82765 32598 50501 10270 20250 39910 40150 83240 333 20241 59012;EQDQ01  00002PRCP99
0182827650999992002040518004-07320-047460FM-12+021299999V0203601N001510450019N0200001N1+02681+02431101121ADDAA106008991AY191061AY261061GF107991021031008001041001MA1999999098731MD1999999-0121MW1291REMSYN082AAXX  05184 82765 21598 73603 10268 20243 39873 40112 72996 82340 333 59012 60091;
0198827650999992002040600004-07320-047460FM-12+021299999V0200501N001012200019N0200001N1+02581+02441101331ADDAA199000091GF103991031021008001001001KA1240M+03161MA1999999098941MD1999999-0101REMSYN088AAXX  06004 82765 32598 30502 10258 20244 39894 40133 83200 333 10316 29090 55040 59010;EQDQ01  00002PRCP99
0173827650999992002040612004-07320-047460FM-12+021299999V0203601N001010450019N0200001N1+02641+02501101451ADDAA124008991GF106991031021008001011001KA1240N+02471MA1999999099051MD1999999-0051REMSYN082AAXX  06124 82765 22598 63602 10264 20250 39905 40145 83210 333 20247 59005 60094;
0167827650999992002040618004-07320-047460FM-12+021299999V0203401N001510450019N0200001N1+03201+02511100981ADDAA199000091GF106991041021008001041001MA1999999098621MD1999999-0111REMSYN070AAXX  06184 82765 32598 63403 10320 20251 39862 40098 84240 333 59011;EQDQ01  00002PRCP99
0226827650999992002040700004-07320-047460FM-12+021299999V0203301N001012200019N0200001N1+02641+02351101361ADDAA199000091AY191061AY291061GF104991021031008001041001KA1240M+03341MA1999999098971MD1999999+0031MW1131REMSYN094AAXX  07004 82765 31598 43302 10264 20235 39897 40136 71399 82340 333 10334 29082 55052 58003;EQDQ01  00002PRCP99
0201827650999992002040712004-07320-047460FM-12+021299999V0203301N002110450019N0200001N1+02511+02321101681ADDAA124003091AY161061AY221061GF108991041081004501021999KA1240N+02401MA1999999099271MD1999999+0221MW1031REMSYN088AAXX  07124 82765 21498 83304 10251 20232 39927 40168 70362 8482/ 333 20240 58022 60034;
0167827650999992002040718004-07320-047460FM-12+021299999V0203501N001510450019N0200001N1+03001+02491101221ADDAA199000091GF107991041021008001011041MA1999999098841MD1999999+0221REMSYN070AAXX  07184 82765 32598 73503 10300 20249 39884 40122 84214 333 58022;EQDQ01  00002PRCP99
0208827650999992002040800004-07320-047460FM-12+021299999V0203601N001012200019N0200001N1+02671+02441101421ADDAA199000091GA1001+999999999GF100991001001999999001001KA1240M+03201MA1999999099021MD1999999+0051REMSYN082AAXX  08004 82765 32998 03602 10267 20244 39902 40142 333 10320 29085 55024 58005;EQDQ01  00002PRCP99
0186827650999992002040812004-07320-047460FM-12+021299999V0203501N001010450019N0200001N1+02641+02411101481ADDAA199000091GF106991031011008001041091KA1240N+02321MA1999999099081MD1999999-0191REMSYN076AAXX  08124 82765 32598 63502 10264 20241 39908 40148 83149 333 20232 59019;EQDQ01  00002PRCP99
0167827650999992002040818004-07320-047460FM-12+021299999V0203501N001510450019N0200001N1+02921+02411101021ADDAA199000091GF106991041021008001021001MA1999999098641MD1999999-0201REMSYN070AAXX  08184 82765 32598 63503 10292 20241 39864 40102 84220 333 59020;EQDQ01  00002PRCP99
0210827650999992002040900004-07320-047460FM-12+021299999V0203601N001010450019N0200001N1+02701+02451101201ADDAA199000091GF107991031031008001021999KA1240M+03321MA1999999098811MD1999999-0211MW1131REMSYN094AAXX  09004 82765 31598 73602 10270 20245 39881 40120 713// 8332/ 333 10332 29083 55070 59021;EQDQ01  00002PRCP99
0201827650999992002040912004-07320-047460FM-12+021299999V0203601N002112200019N0200001N1+02851+02421101391ADDAA124005191AY161061AY221061GF104991021011008001061041KA1240N+02401MA1999999099011MD1999999-0071MW1021REMSYN088AAXX  09124 82765 21598 43604 10285 20242 39901 40139 70262 82164 333 20240 59007 60054;
0195827650999992002040918004-07320-047460FM-12+021299999V0202401N010010450019N0020001N1+02771+02321101001ADDAA199000091AY121061AY221061GF108991041091004501021999MA1999999098611MD1999999-0031MW1161REMSYN076AAXX  09181 82765 31495 82410 10277 20232 39861 40100 71622 8492/ 333 59003;EQDQ01  00002PRCP99
0223827650999992002041000004-07320-047460FM-12+021299999V0202401N001010024019N0100001N1+02441+02351101311ADDAA106018091AY121061AY221061GA1091+999999999GF109991091999999999999999KA1240M+03381MA1999999098921MD1999999+0111MW1131REMSYN094AAXX  10004 82765 21/97 92402 10244 20235 39892 40131 71322 333 10338 29086 55074 58011 60181;
0173827650999992002041012004-07320-047460FM-12+021299999V0202401N000510450019N0200001N1+02651+02351101521ADDAA124018091GF106991041021008001031001KA1240N+02321MA1999999099111MD1999999+0101REMSYN082AAXX  10124 82765 22598 62401 10265 20235 39911 40152 84230 333 20232 58010 60184;
0167827650999992002041018004-07320-047460FM-12+021299999V0203501N001010450019N0200001N1+03211+02431100981ADDAA199000091GF105991031031008001021041MA1999999098601MD1999999-0011REMSYN070AAXX  10184 82765 32598 53502 10321 20243 39860 40098 83324 333 59001;EQDQ01  00002PRCP99
0223827650999992002041100004-07320-047460FM-12+021299999V0209999C000010024019N0100001N1+02511+02411101471ADDAA106006191AY161061AY221061GA1091+999999999GF109991091999999999999999KA1240M+03311MA1999999099071MD1999999+0151MW1131REMSYN094AAXX  11004 82765 21/97 90000 10251 20241 39907 40147 71362 333 10331 29084 55053 58015 60061;
0179827650999992002041112004-07320-047460FM-12+021299999V0200501N000510120019N0200001N1+02501+02321101691ADDAA124010991GF108991081081008001999999KA1240N+02311MA1999999099271MD1999999+0161REMSYN088AAXX  11124 82765 21598 80501 10250 20232 39927 40169 7//66 888// 333 20231 58016 60114;
0167827650999992002041118004-07320-047460FM-12+021299999V0200501N001010120019N0200001N1+02941+02401101281ADDAA199000091GF107991051081008001011001MA1999999098881MD1999999+0281REMSYN070AAXX  11184 82765 32598 70502 10294 20240 39888 40128 85810 333 58028;EQDQ01  00002PRCP99
0179827650999992002041212004-07320-047460FM-12+021299999V0200201N001510120019N0200001N1+02541+02401101621ADDAA124000191GF108991061081008001021999KA1240N+02371MA1999999099221MD1999999+0051REMSYN088AAXX  12124 82765 21598 80203 10254 20240 39922 40162 7//55 8682/ 333 20237 58005 69924;
0182827650999992002041218004-07320-047460FM-12+021299999V0200901N001510450019N0200001N1+02641+02351101271ADDAA106009991AY191061AY261061GF108991041031008001021999MA1999999098871MD1999999-0011MW1291REMSYN082AAXX  12184 82765 21598 80903 10264 20235 39887 40127 72996 8432/ 333 59001 60101;
0214827650999992002041300004-07320-047460FM-12+021299999V0200901N001019999999N0200001N1+02481+02381101541ADDAA199000091GA1091+999999999GF109991091999999999999999KA1240M+03261MA1999999099131MD1999999+0101REMSYN088AAXX  13000 82765 31/98 90901 10248 20238 39913 40154 7//99 333 10326 29091 55008 58010;EQDQ01  00002PRCP99
0173827650999992002041312004-07320-047460FM-12+021299999V0200901N000510120019N0200001N1+02541+02381101581ADDAA124009991GF107991061081008001011001KA1240N+02331MA1999999099171MD1999999-0051REMSYN082AAXX  13124 82765 22598 70901 10254 20238 39917 40158 86810 333 20233 59005 60104;
0167827650999992002041318004-07320-047460FM-12+021299999V0203201N001012200019N0200001N1+03281+02451101171ADDAA199000091GF104991031021008001041001MA1999999098801MD1999999-0071REMSYN070AAXX  13184 82765 32598 43202 10328 20245 39880 40117 83240 333 59007;EQDQ01  00002PRCP99
0208827650999992002041400004-07320-047460FM-12+021299999V0202701N001010024019N0100001N1+02601+02391101381ADDAA199000091GA1091+999999999GF109991091999999999999999KA1240M+03451MA1999999098981MD1999999-0151REMSYN082AAXX  14004 82765 32/97 92702 10260 20239 39898 40138 333 10345 29082 55072 59015;EQDQ01  00002PRCP99
0179827650999992002041412004-07320-047460FM-12+021299999V0202701N000512200019N0200001N1+02641+02411101691ADDAA124000191GF104991031021008001041001KA1240N+02371MA1999999099281MD1999999+0111REMSYN088AAXX  14124 82765 21598 42701 10264 20241 39928 40169 7//55 83240 333 20237 58011 69924;
0182827650999992002041418004-07320-047460FM-12+021299999V0203201N000510450019N0200001N1+02441+02341101331ADDAA106005191AY161061AY221061GF107991041021008001021001MA1999999098911MD1999999+0111MW1031REMSYN082AAXX  14184 82765 21598 73201 10244 20234 39891 40133 70362 84220 333 58011 60051;
0208827650999992002041500004-07320-047460FM-12+021299999V0209999C000012200019N0200001N1+02411+02311101431ADDAA199000091GA1001+999999999GF100991001001999999001001KA1240M+03081MA1999999099021MD1999999+0041REMSYN082AAXX  15004 82765 32998 00000 10241 20231 39902 40143 333 10308 29093 55040 58004;EQDQ01  00002PRCP99
0201827650999992002041512004-07320-047460FM-12+021299999V0209999C000010450019N0200001N1+02621+02441101591ADDAA124006191AY161061AY221061GF107991041081004501021001KA1240N+02321MA1999999099181MD1999999-0101MW1031REMSYN088AAXX  15124 82765 21498 70000 10262 20244 39918 40159 70362 84820 333 20232 59010 60064;
0201827650999992002041600004-07320-047460FM-12+021299999V0203401N002119999999N0200001N1+02401+02351101521ADDAA106000191GA1091+999999999GF109991091999999999999999KA1240M+03021MA1999999099111MD1999999+0091REMSYN094AAXX  16004 82765 21/98 93404 10240 20235 39911 40152 7//55 333 10302 29093 55012 58009 69911;
0201827650999992002041612004-07320-047460FM-12+021299999V0202901N001510450019N0200001N1+02431+02281101721ADDAA124003091AY161061AY221061GF107991041081004501011001KA1240N+02301MA1999999099291MD1999999+0111MW1031REMSYN088AAXX  16124 82765 21498 72903 10243 20228 39929 40172 70362 84810 333 20230 58011 60034;
0182827650999992002041618004-07320-047460FM-12+021299999V0202701N000512200019N0200001N1+03111+02411101341ADDAA106000191AY151061AY221061GF104991021021008001011091MA1999999098951MD1999999+0081MW1021REMSYN082AAXX  16184 82765 21598 42701 10311 20241 39895 40134 70252 82219 333 58008 69911;
0167827650999992002041718004-07320-047460FM-12+021299999V0203501N001010450019N0200001N1+03081+02401101311ADDAA199000091GF106991041021008001041001MA1999999098921MD1999999-0031REMSYN070AAXX  17184 82765 32598 63502 10308 20240 39892 40131 84240 333 59003;EQDQ01  00002PRCP99
0208827650999992002041800004-07320-047460FM-12+021299999V0203601N001519999999N0200001N1+02681+02461101401ADDAA199000091GA1091+999999999GF109991091999999999999999KA1240M+03161MA1999999099011MD1999999-0101REMSYN082AAXX  18004 82765 32/98 93603 10268 20246 39901 40140 333 10316 29083 55062 59010;EQDQ01  00002PRCP99
0186827650999992002041812004-07320-047460FM-12+021299999V0203601N000512200019N0200001N1+02701+02391101571ADDAA199000091GF101991011011008001001001KA1240N+02271MA1999999099181MD1999999-0151REMSYN076AAXX  18124 82765 32598 13601 10270 20239 39918 40157 81100 333 20227 59015;EQDQ01  00002PRCP99
0167827650999992002041818004-07320-047460FM-12+021299999V0201101N002612200019N0200001N1+03361+02271101161ADDAA199000091GF103991031021008001001001MA1999999098791MD1999999-0131REMSYN070AAXX  18184 82765 32598 31105 10336 20227 39879 40116 83200 333 59013;EQDQ01  00002PRCP99
0208827650999992002041900004-07320-047460FM-12+021299999V0201401N004612200019N0200001N1+02821+02461101211ADDAA199000091GA1001+999999999GF100991001001999999001001KA1240M+03461MA1999999098841MD1999999-0171REMSYN082AAXX  19004 82765 32998 01409 10282 20246 39884 40121 333 10346 29075 55109 59017;EQDQ01  00002PRCP99
0167827650999992002041918004-07320-047460FM-12+021299999V0201401N003112200019N0200001N1+03281+02321101161ADDAA199000091GF104991041011008001001001MA1999999098701MD1999999-0131REMSYN070AAXX  19184 82765 32598 41406 10328 20232 39870 40116 84100 333 59013;EQDQ01  00002PRCP99
0186827650999992002042012004-07320-047460FM-12+021299999V0209999C000010450019N0200001N1+02631+02291101411ADDAA199000091GF105991031011008001061041KA1240N+02321MA1999999099021MD1999999-0021REMSYN076AAXX  20124 82765 32598 50000 10263 20229 39902 40141 83164 333 20232 59002;EQDQ01  00002PRCP99
0167827650999992002042018004-07320-047460FM-12+021299999V0201301N003110450019N0200001N1+03191+02191101051ADDAA199000091GF106991031021008001061041MA1999999098681MD1999999-0021REMSYN070AAXX  20184 82765 32598 61306 10319 20219 39868 40105 83264 333 59002;EQDQ01  00002PRCP99
0208827650999992002042100004-07320-047460FM-12+021299999V0201401N001012200019N0200001N1+02691+02371101271ADDAA199000091GA1001+999999999GF100991001001999999001001KA1240M+03341MA1999999098881MD1999999-0021REMSYN082AAXX  21004 82765 32998 01402 10269 20237 39888 40127 333 10334 29076 55078 59002;EQDQ01  00002PRCP99
0186827650999992002042112004-07320-047460FM-12+021299999V0201101N001510450019N0200001N1+02661+02291101511ADDAA199000091GF106991031011008001041001KA1240N+02171MA1999999099121MD1999999+0101REMSYN076AAXX  21124 82765 32598 61103 10266 20229 39912 40151 83140 333 20217 58010;EQDQ01  00002PRCP99
0167827650999992002042118004-07320-047460FM-12+021299999V0201401N003112200019N0200001N1+03261+02271101111ADDAA199000091GF104991031021008001041001MA1999999098731MD1999999+0051REMSYN070AAXX  21184 82765 32598 41406 10326 20227 39873 40111 83240 333 58005;EQDQ01  00002PRCP99
0198827650999992002042200004-07320-047460FM-12+021299999V0201601N000512200019N0200001N1+02801+02421101211ADDAA199000091GF102991021011008001001001KA1240M+03421MA1999999098831MD1999999-0051REMSYN088AAXX  22004 82765 32598 21601 10280 20242 39883 40121 82100 333 10342 29074 55104 59005;EQDQ01  00002PRCP99
0186827650999992002042212004-07320-047460FM-12+021299999V0201401N001510450019N0200001N1+02631+02251101421ADDAA199000091GF106991031011008001061041KA1240N+02251MA1999999099031MD1999999-0091REMSYN076AAXX  22124 82765 32598 61403 10263 20225 39903 40142 83164 333 20225 59009;EQDQ01  00002PRCP99
0167827650999992002042218004-07320-047460FM-12+021299999V0201101N002610450019N0200001N1+03211+02271101051ADDAA199000091GF106991031021008001061041MA1999999098681MD1999999-0051REMSYN070AAXX  22184 82765 32598 61105 10321 20227 39868 40105 83264 333 59005;EQDQ01  00002PRCP99
0208827650999992002042300004-07320-047460FM-12+021299999V0201101N000512200019N0200001N1+02861+02521101231ADDAA199000091GA1001+999999999GF100991001001999999001001KA1240M+03361MA1999999098851MD1999999+0021REMSYN082AAXX  23004 82765 32998 01101 10286 20252 39885 40123 333 10336 29081 55097 58002;EQDQ01  00002PRCP99
0186827650999992002042312004-07320-047460FM-12+021299999V0201101N000510450019N0200001N1+02621+02211101451ADDAA199000091GF106991031011008001041001KA1240N+02231MA1999999099061MD1999999+0031REMSYN076AAXX  23124 82765 32598 61101 10262 20221 39906 40145 83140 333 20223 58003;EQDQ01  00002PRCP99
0167827650999992002042318004-07320-047460FM-12+021299999V0201101N003112200019N0200001N1+03361+02301101001ADDAA199000091GF104991021011008001041001MA1999999098631MD1999999-0051REMSYN070AAXX  23184 82765 32598 41106 10336 20230 39863 40100 82140 333 59005;EQDQ01  00002PRCP99
0208827650999992002042400004-07320-047460FM-12+021299999V0201601N000512200019N0200001N1+02881+02521101211ADDAA199000091GA1001+999999999GF100991001001999999001001KA1240M+03481MA1999999098831MD1999999-0021REMSYN082AAXX  24004 82765 32998 01601 10288 20252 39883 40121 333 10348 29074 55079 59002;EQDQ01  00002PRCP99
0186827650999992002042412004-07320-047460FM-12+021299999V0201401N000510075019N0200001N1+02821+02421101351ADDAA199000091GF106991061011008001001001KA1240N+02411MA1999999098981MD1999999-0051REMSYN076AAXX  24124 82765 32598 61401 10282 20242 39898 40135 86100 333 20241 59005;EQDQ01  00002PRCP99
0167827650999992002042418004-07320-047460FM-12+021299999V0201101N001512200019N0200001N1+03361+02211100971ADDAA199000091GF103991021011008001041001MA1999999098611MD1999999-0071REMSYN070AAXX  24184 82765 32598 31103 10336 20221 39861 40097 82140 333 59007;EQDQ01  00002PRCP99
0198827650999992002042500004-07320-047460FM-12+021299999V0201601N000512200019N0200001N1+02881+02411101191ADDAA199000091GF102991011011008001041001KA1240M+03461MA1999999098821MD1999999-0031REMSYN088AAXX  25004 82765 32598 21601 10288 20241 39882 40119 81140 333 10346 29070 55107 59003;EQDQ01  00002PRCP99
0186827650999992002042512004-07320-047460FM-12+021299999V0201401N000510450019N0200001N1+02821+02551101501ADDAA199000091GF106991041011008001041001KA1240N+02351MA1999999099121MD1999999+0141REMSYN076AAXX  25124 82765 32598 61401 10282 20255 39912 40150 84140 333 20235 58014;EQDQ01  00002PRCP99
0167827650999992002042518004-07320-047460FM-12+021299999V0201601N002110450019N0200001N1+03341+02251101081ADDAA199000091GF105991031021008001041001MA1999999098721MD1999999+0111REMSYN070AAXX  25184 82765 32598 51604 10334 20225 39872 40108 83240 333 58011;EQDQ01  00002PRCP99
0198827650999992002042600004-07320-047460FM-12+021299999V0200701N000512200019N0200001N1+02741+02451101271ADDAA199000091GF102991021011008001001001KA1240M+03461MA1999999098891MD1999999+0071REMSYN088AAXX  26004 82765 32598 20701 10274 20245 39889 40127 82100 333 10346 29075 55094 58007;EQDQ01  00002PRCP99
0186827650999992002042612004-07320-047460FM-12+021299999V0200601N002110450019N0200001N1+02881+02371101541ADDAA199000091GF105991031021008001061091KA1240N+02361MA1999999099161MD1999999+0041REMSYN076AAXX  26124 82765 32598 50604 10288 20237 39916 40154 83269 333 20236 58004;EQDQ01  00002PRCP99
0167827650999992002042618004-07320-047460FM-12+021299999V0200601N004110450019N0200001N1+02841+02261101281ADDAA199000091GF107991041081008001021001MA1999999098881MD1999999+0161REMSYN070AAXX  26184 82765 32598 70608 10284 20226 39888 40128 84820 333 58016;EQDQ01  00002PRCP99
0213827650999992002042700004-07320-047460FM-12+021299999V0200601N000512200019N0200001N1+02531+02291101331ADDAA106000191AY151061AY221061GF104991031001017501061091KA1240M+03341MA1999999098941MD1999999+0041MW1021REMSYN100AAXX  27004 82765 21798 40601 10253 20229 39894 40133 70252 83069 333 10334 29080 55066 58004 69911;
0173827650999992002042712004-07320-047460FM-12+021299999V0200601N000510450019N0200001N1+02551+02361101541ADDAA124000191GF108991031011008001011999KA1240N+02271MA1999999099131MD1999999-0031REMSYN082AAXX  27124 82765 22598 80601 10255 20236 39913 40154 8311/ 333 20227 59003 69914;
0167827650999992002042718004-07320-047460FM-12+021299999V0203101N000510450019N0200001N1+03201+02461101101ADDAA199000091GF107991041031008001011041MA1999999098721MD1999999-0161REMSYN070AAXX  27184 82765 32598 73101 10320 20246 39872 40110 84314 333 59016;EQDQ01  00002PRCP99
0198827650999992002042800004-07320-047460FM-12+021299999V0203101N000510450019N0200001N1+02551+02331101301ADDAA199000091GF107991041011008001061001KA1240M+03361MA1999999098901MD1999999-0041REMSYN088AAXX  28004 82765 32598 73101 10255 20233 39890 40130 84160 333 10336 29083 55045 59004;EQDQ01  00002PRCP99
0186827650999992002042812004-07320-047460FM-12+021299999V0203101N000512200019N0200001N1+02791+02361101441ADDAA199000091GF104991021011008001061011KA1240N+02321MA1999999099051MD1999999-0081REMSYN076AAXX  28124 82765 32598 43101 10279 20236 39905 40144 82161 333 20232 59008;EQDQ01  00002PRCP99
0182827650999992002042818004-07320-047460FM-12+021299999V0203301N002110450019N0200001N1+02561+02291101251ADDAA106010991AY161061AY221061GF107991041031008001021001MA1999999098851MD1999999+0131MW1031REMSYN082AAXX  28184 82765 21598 73304 10256 20229 39885 40125 70362 84320 333 58013 60111;
0223827650999992002042900004-07320-047460FM-12+021299999V0209999C000012200019N0200001N1+02511+02401101371ADDAA106000191AY151061AY221061GA1001+999999999GF100991001001999999001001KA1240M+03391MA1999999098981MD1999999+0081MW1021REMSYN094AAXX  29004 82765 21998 00000 10251 20240 39898 40137 70252 333 10339 29088 55063 58008 69911;
0173827650999992002042912004-07320-047460FM-12+021299999V0203201N000510450019N0200001N1+02461+02411101561ADDAA124010991GF106991041011008001041001KA1240N+02191MA1999999099151MD1999999+0101REMSYN082AAXX  29124 82765 22598 63201 10246 20241 39915 40156 84140 333 20219 58010 60114;
0167827650999992002042918004-07320-047460FM-12+021299999V0201101N002610450019N0200001N1+03321+02231101161ADDAA199000091GF106991041021008001041001MA1999999098791MD1999999-0061REMSYN070AAXX  29184 82765 32598 61105 10332 20223 39879 40116 84240 333 59006;EQDQ01  00002PRCP99
0198827650999992002043000004-07320-047460FM-12+021299999V0201101N000512200019N0200001N1+02761+02541101441ADDAA199000091GF101991011011008001001001KA1240M+03441MA1999999099041MD1999999+0061REMSYN088AAXX  30004 82765 32598 11101 10276 20254 39904 40144 81100 333 10344 29082 55085 58006;EQDQ01  00002PRCP99
0186827650999992002043012004-07320-047460FM-12+021299999V0201101N000511050019N0200001N1+02581+02381101701ADDAA199000091GF106991021011008001011041KA1240N+02271MA1999999099301MD1999999+0151REMSYN076AAXX  30124 82765 32598 61101 10258 20238 39930 40170 82114 333 20227 58015;EQDQ01  00002PRCP99
0167827650999992002043018004-07320-047460FM-12+021299999V0201301N001010450019N0200001N1+03341+02431101301ADDAA199000091GF106991031021008001041001MA1999999098921MD1999999+0131REMSYN070AAXX  30184 82765 32598 61302 10334 20243 39892 40130 83240 333 58013;EQDQ01  00002PRCP99
0186827650999992002050112004-07320-047460FM-12+021299999V0201601N001012200019N0200001N1+02741+02451101621ADDAA199000091GF103991031011008001001001KA1240N+02331MA1999999099241MD1999999-0061REMSYN076AAXX  01124 82765 32598 31602 10274 20245 39924 40162 83100 333 20233 59006;EQDQ01  00002PRCP99
0167827650999992002050118004-07320-047460FM-12+021299999V0201901N001512200019N0200001N1+03361+02331101231ADDAA199000091GF103991021011008001041001MA1999999098861MD1999999-0061REMSYN070AAXX  01184 82765 32598 31903 10336 20233 39886 40123 82140 333 59006;EQDQ01  00002PRCP99
0186827650999992002050212004-07320-047460FM-12+021299999V0201601N002112200019N0200001N1+02851+02381101441ADDAA199000091GF104991021011008001061041KA1240N+02381MA1999999099061MD1999999-0181REMSYN076AAXX  02124 82765 32598 41604 10285 20238 39906 40144 82164 333 20238 59018;EQDQ01  00002PRCP99
0167827650999992002050218004-07320-047460FM-12+021299999V0202701N001010450019N0200001N1+03361+02391101071ADDAA199000091GF106991041021008001061041MA1999999098711MD1999999-0151REMSYN070AAXX  02184 82765 32598 62702 10336 20239 39871 40107 84264 333 59015;EQDQ01  00002PRCP99
0208827650999992002050300004-07320-047460FM-12+021299999V0203101N001519999999N0200001N1+02861+02541101241ADDAA199000091GA1091+999999999GF109991091999999999999999KA1240M+03501MA1999999098871MD1999999-0051REMSYN082AAXX  03004 82765 32/98 93103 10286 20254 39887 40124 333 10350 29075 55076 59005;EQDQ01  00002PRCP99
0186827650999992002050312004-07320-047460FM-12+021299999V0209999C000010450019N0200001N1+02691+02391101481ADDAA199000091GF106991041021008001041041KA1240N+02481MA1999999099101MD1999999+0041REMSYN076AAXX  03124 82765 32598 60000 10269 20239 39910 40148 84244 333 20248 58004;EQDQ01  00002PRCP99
0195827650999992002050318004-07320-047460FM-12+021299999V0200601N001510450019N0100001N1+02821+02331101071ADDAA199000091AY191061AY221061GF107991041031008001021041MA1999999098681MD1999999-0031MW1031REMSYN076AAXX  03184 82765 31597 70603 10282 20233 39868 40107 70392 84324 333 59003;EQDQ01  00002PRCP99
0208827650999992002050400004-07320-047460FM-12+021299999V0200601N001510024019N0100001N1+02511+02291101311ADDAA199000091GA1091+999999999GF109991091999999999999999KA1240M+03431MA1999999098911MD1999999+0041REMSYN082AAXX  04004 82765 32997 90603 10251 20229 39891 40131 333 10343 29084 55050 58004;EQDQ01  00002PRCP99
0186827650999992002050412004-07320-047460FM-12+021299999V0201601N001512200019N0200001N1+02851+02311101601ADDAA199000091GF103991011011008001011011KA1240N+02341MA1999999099211MD1999999+0111REMSYN076AAXX  04124 82765 32598 31603 10285 20231 39921 40160 81111 333 20234 58011;EQDQ01  00002PRCP99
0167827650999992002050418004-07320-047460FM-12+021299999V0201201N002610450019N0200001N1+03151+02351101131ADDAA199000091GF105991031031008001061001MA1999999098751MD1999999+0071REMSYN070AAXX  04184 82765 32598 51205 10315 20235 39875 40113 83360 333 58007;EQDQ01  00002PRCP99
0208827650999992002050500004-07320-047460FM-12+021299999V0201101N001519999999N0200001N1+02741+02331101431ADDAA199000091GA1091+999999999GF109991091999999999999999KA1240M+03381MA1999999099051MD1999999+0141REMSYN082AAXX  05004 82765 32/98 91103 10274 20233 39905 40143 333 10338 29076 55094 58014;EQDQ01  00002PRCP99
0166827650999992002050518004-07320-047460FM-12+021299999V0200901N005110450019N0200001N1+03181+02441101341ADDAA106003091GF105991031031008001041001MA1999999098971MD1999999+0221MW1951REMSYN082AAXX  05184 82765 21598 50910 10318 20244 39897 40134 795// 83340 333 58022 60031;
0173827650999992002050612004-07320-047460FM-12+021299999V0201001N000510075019N0200001N1+02701+02501101831ADDAA124003091GF105991051021008001001001KA1240N+02371MA1999999099431MD1999999+0071REMSYN082AAXX  06124 82765 22598 51001 10270 20250 39943 40183 85200 333 20237 58007 60034;
0167827650999992002050618004-07320-047460FM-12+021299999V0201401N001512200019N0200001N1+03341+02431101241ADDAA199000091GF103991021021008001041001MA1999999098871MD1999999-0101REMSYN070AAXX  06184 82765 32598 31403 10334 20243 39887 40124 82240 333 59010;EQDQ01  00002PRCP99
0173827650999992002050712004-07320-047460FM-12+021299999V0201401N001012200019N0200001N1+02741+02451101621ADDAA124002091GF103991021011008001041001KA1240N+02351MA1999999099231MD1999999-0201REMSYN082AAXX  07124 82765 22598 31402 10274 20245 39923 40162 82140 333 20235 59020 60024;
0167827650999992002050718004-07320-047460FM-12+021299999V0201401N001010450019N0200001N1+03361+02451101171ADDAA199000091GF105991031021008001041001MA1999999098801MD1999999-0071REMSYN070AAXX  07184 82765 32598 51402 10336 20245 39880 40117 83240 333 59007;EQDQ01  00002PRCP99
0208827650999992002050800004-07320-047460FM-12+021299999V0201401N001012200019N0200001N1+02841+02441101391ADDAA199000091GA1001+999999999GF100991001001999999001001KA1240M+03501MA1999999099011MD1999999-0031REMSYN082AAXX  08004 82765 32998 01402 10284 20244 39901 40139 333 10350 29075 55094 59003;EQDQ01  00002PRCP99
0186827650999992002050812004-07320-047460FM-12+021299999V0201401N001010075019N0200001N1+02701+02301101661ADDAA199000091GF107991051021008001011001KA1240N+02421MA1999999099271MD1999999+0041REMSYN076AAXX  08124 82765 32598 71402 10270 20230 39927 40166 85210 333 20242 58004;EQDQ01  00002PRCP99
0167827650999992002050818004-07320-047460FM-12+021299999V0201101N002110075019N0200001N1+03011+02371101231ADDAA199000091GF107991051021008001061001MA1999999098851MD1999999+0051REMSYN070AAXX  08184 82765 32598 71104 10301 20237 39885 40123 85260 333 58005;EQDQ01  00002PRCP99
0208827650999992002050900004-07320-047460FM-12+021299999V0201001N002110024019N0100001N1+02641+02351101571ADDAA199000091GA1091+999999999GF109991091999999999999999KA1240M+03111MA1999999099171MD1999999+0161REMSYN082AAXX  09004 82765 32/97 91004 10264 20235 39917 40157 333 10311 29079 55033 58016;EQDQ01  00002PRCP99
0201827650999992002050912004-07320-047460FM-12+021299999V0201101N000510450019N0200001N1+02621+02351101761ADDAA124001091AY161061AY221061GF107991041081008001031001KA1240N+02471MA1999999099361MD1999999+0091MW1031REMSYN088AAXX  09124 82765 21598 71101 10262 20235 39936 40176 70362 84830 333 20247 58009 69994;
0167827650999992002050918004-07320-047460FM-12+021299999V0201001N001510450019N0200001N1+02901+02301101361ADDAA199000091GF106991041031008001061001MA1999999098971MD1999999+0121REMSYN070AAXX  09184 82765 32598 61003 10290 20230 39897 40136 84360 333 58012;EQDQ01  00002PRCP99
