0167827840999992002010318004-07310-039300FM-12+040999999V0200901N002110075019N0200001N1+02741+02101101001ADDAA199000091GF108991081071008001999999MA1999999096351MD1999999-0011REMSYN070AAXX  03184 82784 32598 80904 10274 20210 39635 40100 887// 333 59001;EQDQ01  00002PRCP99
0198827840999992002010400004-07310-039300FM-12+040999999V0202301N000510075019N0020001N1+02461+02321101241ADDAA199000091GF108991081071008001999999KA1240M+02801MA1999999096571MD1999999-0091REMSYN088AAXX  04004 82784 32595 82301 10246 20232 39657 40124 887// 333 10280 29086 55004 59009;EQDQ01  00002PRCP99
0201827840999992002010412004-07310-039300FM-12+040999999V0200501N001010075019N0040001N1+02521+02291101401ADDAA124020191AY191061AY261061GF108991081071008001999999KA1240N+02181MA1999999096731MD1999999-0051MW1021REMSYN088AAXX  04124 82784 21596 80502 10252 20229 39673 40140 70296 887// 333 20218 59005 60204;
0167827840999992002010418004-07310-039300FM-12+040999999V0200501N001510450019N0200001N1+02851+02071101051ADDAA199000091GF108991041081012501021999MA1999999096401MD1999999+0051REMSYN070AAXX  04184 82784 32698 80503 10285 20207 39640 40105 8482/ 333 58005;EQDQ01  00002PRCP99
0208827840999992002010500004-07310-039300FM-12+040999999V0203601N001012200019N0020001N1+02461+02231101341ADDAA199000091GA1001+999999999GF100991001001999999001001KA1240M+02921MA1999999096671MD1999999+0101REMSYN082AAXX  05004 82784 32995 03602 10246 20223 39667 40134 333 10292 29081 55005 58010;EQDQ01  00002PRCP99
0201827840999992002010512004-07310-039300FM-12+040999999V0202301N002110450019N0040001N1+02451+02171101531ADDAA124000391AY151061AY211061GF107991031081008001031001KA1240N+02241MA1999999096851MD1999999+0121MW1011REMSYN088AAXX  05124 82784 21596 72304 10245 20217 39685 40153 70151 83830 333 20224 58012 69934;
0167827840999992002010518004-07310-039300FM-12+040999999V0200501N000510450019N0200001N1+02901+02101101031ADDAA199000091GF107991041081008001031001MA1999999096391MD1999999-0011REMSYN070AAXX  05184 82784 32598 70501 10290 20210 39639 40103 84830 333 59001;EQDQ01  00002PRCP99
0198827840999992002010600004-07310-039300FM-12+040999999V0209999C000010075019N0200001N1+02581+02381101301ADDAA199000091GF108991081071008001999999KA1240M+03011MA1999999096641MD1999999-0031REMSYN088AAXX  06004 82784 32598 80000 10258 20238 39664 40130 887// 333 10301 29081 55018 59003;EQDQ01  00002PRCP99
0201827840999992002010612004-07310-039300FM-12+040999999V0201401N001010450019N0010001N1+02061+02031101501ADDAA124064091AY161061AY221061GF108991011071004501021999KA1240N+02061MA1999999096801MD1999999-0041MW1631REMSYN088AAXX  06124 82784 21494 81402 10206 20203 39680 40150 76362 8172/ 333 20206 59004 60644;
0182827840999992002010618004-07310-039300FM-12+040999999V0202301N001010450019N0200001N1+02391+02111100961ADDAA106004191AY161061AY221061GF108991021081012501021999MA1999999096311MD1999999-0081MW1021REMSYN082AAXX  06184 82784 21698 82302 10239 20211 39631 40096 70262 8282/ 333 59008 60041;
0213827840999992002010700004-07310-039300FM-12+040999999V0200501N000510450019N0010001N1+02231+02121101241ADDAA106000591AY151061AY221061GF108991041071008001021999KA1240M+02591MA1999999096641MD1999999+0001MW1511REMSYN100AAXX  07004 82784 21594 80501 10223 20212 39664 40124 75152 8472/ 333 10259 29093 55003 58000 69951;
0201827840999992002010712004-07310-039300FM-12+040999999V0201801N000510075019N0200001N1+02451+01991101381ADDAA124005191AY151061AY221061GF108991081071008001999999KA1240N+02081MA1999999096701MD1999999-0111MW1021REMSYN088AAXX  07124 82784 21598 81801 10245 20199 39670 40138 70252 887// 333 20208 59011 60054;
0213827840999992002010800004-07310-039300FM-12+040999999V0202701N001010450019N0020001N1+02191+02101101301ADDAA106001091AY151061AY221061GF108991041071004501021999KA1240M+02771MA1999999096601MD1999999-0041MW1201REMSYN100AAXX  08004 82784 21495 82702 10219 20210 39660 40130 72052 8472/ 333 10277 29087 55002 59004 60011;
0201827840999992002010812004-07310-039300FM-12+040999999V0202301N001510075019N0040001N1+02331+02071101401ADDAA124003091AY151061AY221061GF108991081071008001999999KA1240N+02171MA1999999096711MD1999999+0011MW1021REMSYN088AAXX  08124 82784 21596 82303 10233 20207 39671 40140 70252 887// 333 20217 58001 60034;
0167827840999992002010818004-07310-039300FM-12+040999999V0200901N003110450019N0200001N1+02961+02181100851ADDAA199000091GF108991041081012501071091MA1999999096211MD1999999-0161REMSYN070AAXX  08184 82784 32698 80906 10296 20218 39621 40085 84879 333 59016;EQDQ01  00002PRCP99
0208827840999992002010900004-07310-039300FM-12+040999999V0200901N000512200019N0020001N1+02421+02011101201ADDAA199000091GA1001+999999999GF100991001001999999001001KA1240M+03051MA1999999096531MD1999999-0071REMSYN082AAXX  09004 82784 32995 00901 10242 20201 39653 40120 333 10305 29076 55045 59007;EQDQ01  00002PRCP99
0186827840999992002010912004-07310-039300FM-12+040999999V0200501N002610075019N0200001N1+02681+02181101421ADDAA199000091GF106991061021008001001001KA1240N+02281MA1999999096751MD1999999+0041REMSYN076AAXX  09124 82784 32598 60505 10268 20218 39675 40142 86200 333 20228 58004;EQDQ01  00002PRCP99
0167827840999992002010918004-07310-039300FM-12+040999999V0200501N002610120019N0200001N1+02941+02051101021ADDAA199000091GF108991081081008001999999MA1999999096381MD1999999+0171REMSYN070AAXX  09184 82784 32598 80505 10294 20205 39638 40102 888// 333 58017;EQDQ01  00002PRCP99
0198827840999992002011000004-07310-039300FM-12+040999999V0201401N000510120019N0020001N1+02351+02181101441ADDAA199000091GF107991071081008001001001KA1240M+03051MA1999999096771MD1999999+0241REMSYN088AAXX  10004 82784 32595 71401 10235 20218 39677 40144 87800 333 10305 29079 55071 58024;EQDQ01  00002PRCP99
0201827840999992002011012004-07310-039300FM-12+040999999V0201401N001510120019N0200001N1+02561+02111101611ADDAA124032091AY191061AY261061GF107991071081008001001001KA1240N+02031MA1999999096931MD1999999+0181MW1011REMSYN088AAXX  10124 82784 21598 71403 10256 20211 39693 40161 70196 87800 333 20203 58018 60324;
0167827840999992002011018004-07310-039300FM-12+040999999V0201401N001010120019N0200001N1+02861+02031101121ADDAA199000091GF106991051021012501071001MA1999999096461MD1999999+0081REMSYN070AAXX  10184 82784 32698 61402 10286 20203 39646 40112 85270 333 58008;EQDQ01  00002PRCP99
0167827840999992002011118004-07310-039300FM-12+040999999V0203601N002112200019N0200001N1+02951+01971101241ADDAA199000091GF103991031021008001001001MA1999999096581MD1999999+0121REMSYN070AAXX  11184 82784 32598 33604 10295 20197 39658 40124 83200 333 58012;EQDQ01  00002PRCP99
0208827840999992002011200004-07310-039300FM-12+040999999V0209999C000012200019N0020001N1+02481+02091101511ADDAA199000091GA1001+999999999GF100991001001999999001001KA1240M+03011MA1999999096841MD1999999-0031REMSYN082AAXX  12004 82784 32995 00000 10248 20209 39684 40151 333 10301 29072 55102 59003;EQDQ01  00002PRCP99
0201827840999992002011212004-07310-039300FM-12+040999999V0201401N001510120019N0200001N1+02721+02101101581ADDAA124000191AY151061AY211061GF107991061081008001031001KA1240N+02301MA1999999096911MD1999999-0111MW1021REMSYN088AAXX  12124 82784 21598 71403 10272 20210 39691 40158 70251 86830 333 20230 59011 69924;
0167827840999992002011218004-07310-039300FM-12+040999999V0201401N003612200019N0200001N1+03021+02101101061ADDAA199000091GF104991041021008001001001MA1999999096421MD1999999-0161REMSYN070AAXX  12184 82784 32598 41407 10302 20210 39642 40106 84200 333 59016;EQDQ01  00002PRCP99
0213827840999992002011300004-07310-039300FM-12+040999999V0203601N003110450019N0005001N1+02241+02101101601ADDAA106022191AY161061AY221061GF108991021071004501071021KA1240M+03091MA1999999096921MD1999999+0081MW1951REMSYN100AAXX  13004 82784 21493 83606 10224 20210 39692 40160 79562 82772 333 10309 29078 55088 58008 60221;
0201827840999992002011312004-07310-039300FM-12+040999999V0200901N001510120019N0040001N1+02481+02151101451ADDAA124059991AY191061AY261061GF108991081081008001999999KA1240N+02031MA1999999096761MD1999999-0151MW1021REMSYN088AAXX  13124 82784 21596 80903 10248 20215 39676 40145 70296 888// 333 20203 59015 60604;
0167827840999992002011318004-07310-039300FM-12+040999999V0200501N001510120019N0200001N1+03001+02131101081ADDAA199000091GF107991061021012501011001MA1999999096431MD1999999+0011REMSYN070AAXX  13184 82784 32698 70503 10300 20213 39643 40108 86210 333 58001;EQDQ01  00002PRCP99
0208827840999992002011400004-07310-039300FM-12+040999999V0202301N000512200019N0020001N1+02401+02171101381ADDAA199000091GA1001+999999999GF100991001001999999001001KA1240M+03081MA1999999096711MD1999999-0211REMSYN082AAXX  14004 82784 32995 02301 10240 20217 39671 40138 333 10308 29079 55091 59021;EQDQ01  00002PRCP99
0201827840999992002011412004-07310-039300FM-12+040999999V0201401N001512200019N0200001N1+02721+02101101371ADDAA124000391AY151061AY201061GF104991021021008001031001KA1240N+02201MA1999999096711MD1999999-0051MW1011REMSYN088AAXX  14124 82784 21598 41403 10272 20210 39671 40137 70150 82230 333 20220 59005 69934;
0208827840999992002011500004-07310-039300FM-12+040999999V0203601N000512200019N0020001N1+02401+02231101151ADDAA199000091GA1001+999999999GF100991001001999999001001KA1240M+03011MA1999999096501MD1999999-0211REMSYN082AAXX  15004 82784 32995 03601 10240 20223 39650 40115 333 10301 29080 55066 59021;EQDQ01  00002PRCP99
0186827840999992002011512004-07310-039300FM-12+040999999V0203201N002110075019N0040001N1+02511+02191101241ADDAA199000091GF108991081071008001999999KA1240N+02181MA1999999096571MD1999999-0141REMSYN076AAXX  15124 82784 32596 83204 10251 20219 39657 40124 887// 333 20218 59014;EQDQ01  00002PRCP99
0198827840999992002011600004-07310-039300FM-12+040999999V0203601N000510075019N0020001N1+02441+02301101061ADDAA199000091GF108991081071008001999999KA1240M+02991MA1999999096411MD1999999-0091REMSYN088AAXX  16004 82784 32595 83601 10244 20230 39641 40106 887// 333 10299 29084 55027 59009;EQDQ01  00002PRCP99
0186827840999992002011612004-07310-039300FM-12+040999999V0200501N001510120019N0040001N1+02521+02151101251ADDAA199000091GF108991081081008001999999KA1240N+02311MA1999999096591MD1999999+0021REMSYN076AAXX  16124 82784 32596 80503 10252 20215 39659 40125 888// 333 20231 58002;EQDQ01  00002PRCP99
0182827840999992002011618004-07310-039300FM-12+040999999V0202301N001510075019N0040001N1+02461+02271100951ADDAA106002091AY161061AY221061GF108991081071008001999999MA1999999096291MD1999999+0171MW1021REMSYN082AAXX  16184 82784 21596 82303 10246 20227 39629 40095 70262 887// 333 58017 60021;
0220827840999992002011700004-07310-039300FM-12+040999999V0209999C000012200019N0020001N1+02321+02221101211ADDAA199000091GA1001+999999999GF100991001001999999001001KA1240M+02831KA2999N+00891MA1999999096541MD1999999+0131REMSYN081AAXX  17004 82784 32995 00000 10232 20222 39654 40121 333 10283 2908955010 58013;EQDQ01  00002PRCP99
0201827840999992002011712004-07310-039300FM-12+040999999V0200501N001010120019N0040001N1+02551+02171101241ADDAA124034091AY161061AY211061GF108991061081008001031999KA1240N+02081MA1999999096571MD1999999-0021MW1021REMSYN088AAXX  17124 82784 21596 80502 10255 20217 39657 40124 70261 8683/ 333 20208 59002 60344;
0167827840999992002011718004-07310-039300FM-12+040999999V0202701N001510120019N0200001N1+02881+02161100881ADDAA199000091GF107991071081008001001001MA1999999096241MD1999999-0051REMSYN070AAXX  17184 82784 32598 72703 10288 20216 39624 40088 87800 333 59005;EQDQ01  00002PRCP99
0213827840999992002011800004-07310-039300FM-12+040999999V0200901N000510450019N0002001N1+02141+02111101491ADDAA106018091AY161061AY221061GF108991021071004501021999KA1240M+03011MA1999999096801MD1999999+0261MW1951REMSYN100AAXX  18004 82784 21492 80901 10214 20211 39680 40149 79562 8272/ 333 10301 29085 55040 58026 60181;
0201827840999992002011812004-07310-039300FM-12+040999999V0201401N001010120019N0200001N1+02441+02071101491ADDAA124036191AY191061AY261061GF108991081081008001999999KA1240N+02101MA1999999096801MD1999999+0231MW1021REMSYN088AAXX  18124 82784 21598 81402 10244 20207 39680 40149 70296 888// 333 20210 58023 60364;
0167827840999992002011818004-07310-039300FM-12+040999999V0200901N002110450019N0200001N1+02881+02131101061ADDAA199000091GF106991031021008001071001MA1999999096411MD1999999+0171REMSYN070AAXX  18184 82784 32598 60904 10288 20213 39641 40106 83270 333 58017;EQDQ01  00002PRCP99
0208827840999992002011900004-07310-039300FM-12+040999999V0202301N001012200019N0020001N1+02321+02071101241ADDAA199000091GA1001+999999999GF100991001001999999001001KA1240M+02961MA1999999096571MD1999999-0231REMSYN082AAXX  19004 82784 32995 02302 10232 20207 39657 40124 333 10296 29079 55027 59023;EQDQ01  00002PRCP99
0186827840999992002011912004-07310-039300FM-12+040999999V0200501N002110120019N0200001N1+02561+02191101291ADDAA199000091GF108991081081008001999999KA1240N+02101MA1999999096621MD1999999-0181REMSYN076AAXX  19124 82784 32598 80504 10256 20219 39662 40129 888// 333 20210 59018;EQDQ01  00002PRCP99
0208827840999992002012000004-07310-039300FM-12+040999999V0202301N001012200019N0020001N1+02261+02111101281ADDAA199000091GA1001+999999999GF100991001001999999001001KA1240M+02871MA1999999096611MD1999999+0041REMSYN082AAXX  20004 82784 32995 02302 10226 20211 39661 40128 333 10287 29087 55019 58004;EQDQ01  00002PRCP99
0201827840999992002012012004-07310-039300FM-12+040999999V0200901N002110120019N0100001N1+02541+02111101411ADDAA124013091AY191061AY261061GF108991081081008001999999KA1240N+02121MA1999999096731MD1999999+0111MW1031REMSYN088AAXX  20124 82784 21597 80904 10254 20211 39673 40141 70396 888// 333 20212 58011 60134;
0167827840999992002012018004-07310-039300FM-12+040999999V0201401N001512200019N0200001N1+03041+01971101051ADDAA199000091GF102991021021012501001001MA1999999096411MD1999999-0011REMSYN070AAXX  20184 82784 32698 21403 10304 20197 39641 40105 82200 333 59001;EQDQ01  00002PRCP99
0213827840999992002012100004-07310-039300FM-12+040999999V0209999C000012200019N0020001N1+02391+02211101371ADDAA106002091AY161061AY211061GF101991011081008001001001KA1240M+03111MA1999999096701MD1999999+0091MW1011REMSYN100AAXX  21004 82784 21595 10000 10239 20221 39670 40137 70161 81800 333 10311 29078 55092 58009 60021;
0173827840999992002012112004-07310-039300FM-12+040999999V0200501N001010120019N0200001N1+02601+02191101581ADDAA124002091GF107991071081008001001001KA1240N+02121MA1999999096901MD1999999+0171REMSYN082AAXX  21124 82784 22598 70502 10260 20219 39690 40158 87800 333 20212 58017 60024;
0167827840999992002012118004-07310-039300FM-12+040999999V0201401N002610450019N0200001N1+03101+02001101151ADDAA199000091GF106991041021008001051001MA1999999096501MD1999999+0091REMSYN070AAXX  21184 82784 32598 61405 10310 20200 39650 40115 84250 333 58009;EQDQ01  00002PRCP99
0198827840999992002012200004-07310-039300FM-12+040999999V0201801N002610075019N0020001N1+02441+02011101591ADDAA199000091GF108991081071008001999999KA1240M+03171MA1999999096911MD1999999+0211REMSYN088AAXX  22004 82784 32595 81805 10244 20201 39691 40159 887// 333 10317 29071 55091 58021;EQDQ01  00002PRCP99
0186827840999992002012212004-07310-039300FM-12+040999999V0200901N001510120019N0200001N1+02571+02021101641ADDAA199000091GF108991081081008001999999KA1240N+02211MA1999999096961MD1999999+0061REMSYN076AAXX  22124 82784 32598 80903 10257 20202 39696 40164 888// 333 20221 58006;EQDQ01  00002PRCP99
0213827840999992002012300004-07310-039300FM-12+040999999V0200901N001012200019N0020001N1+02341+02071101641ADDAA106000191AY151061AY211061GF102991021001017501011001KA1240M+02981MA1999999096951MD1999999+0041MW1021REMSYN100AAXX  23004 82784 21795 20902 10234 20207 39695 40164 70251 82010 333 10298 29076 55029 58004 69921;
0167827840999992002012318004-07310-039300FM-12+040999999V0200901N001510450019N0200001N1+03011+02141101211ADDAA199000091GF106991041021008001071001MA1999999096561MD1999999-0101REMSYN070AAXX  23184 82784 32598 60903 10301 20214 39656 40121 84270 333 59010;EQDQ01  00002PRCP99
0213827840999992002012400004-07310-039300FM-12+040999999V0209999C000010150019N0020001N1+02351+02131101471ADDAA106000891AY161061AY221061GF106991061001017501011001KA1240M+03111MA1999999096791MD1999999-0161MW1011REMSYN100AAXX  24004 82784 21795 60000 10235 20213 39679 40147 70162 86010 333 10311 29078 55079 59016 69981;
0173827840999992002012412004-07310-039300FM-12+040999999V0201401N001510075019N0200001N1+02661+02201101551ADDAA124000891GF106991061021008001001001KA1240N+02161MA1999999096871MD1999999-0051REMSYN082AAXX  24124 82784 22598 61403 10266 20220 39687 40155 86200 333 20216 59005 69984;
0167827840999992002012418004-07310-039300FM-12+040999999V0200501N002110120019N0200001N1+02961+02181101081ADDAA199000091GF108991061021012501001081MA1999999096441MD1999999-0121REMSYN070AAXX  24184 82784 32698 80504 10296 20218 39644 40108 86208 333 59012;EQDQ01  00002PRCP99
0213827840999992002012500004-07310-039300FM-12+040999999V0202301N000510075019N0020001N1+02361+02261101371ADDAA106010991AY161061AY221061GF107991071041008001001001KA1240M+03151MA1999999096701MD1999999-0091MW1021REMSYN100AAXX  25004 82784 21595 72301 10236 20226 39670 40137 70262 87400 333 10315 29082 55074 59009 60111;
0201827840999992002012512004-07310-039300FM-12+040999999V0200901N001510120019N0100001N1+02541+02211101551ADDAA124022191AY161061AY221061GF107991071081008001001001KA1240N+02221MA1999999096871MD1999999+0001MW1021REMSYN088AAXX  25124 82784 21597 70903 10254 20221 39687 40155 70262 87800 333 20222 58000 60224;
0167827840999992002012518004-07310-039300FM-12+040999999V0203601N001010450019N0200001N1+02941+02241101121ADDAA199000091GF106991041021008001021001MA1999999096471MD1999999+0031REMSYN070AAXX  25184 82784 32598 63602 10294 20224 39647 40112 84220 333 58003;EQDQ01  00002PRCP99
0198827840999992002012600004-07310-039300FM-12+040999999V0201801N001010075019N0020001N1+02421+02231101421ADDAA199000091GF107991071061008001001001KA1240M+03051MA1999999096751MD1999999+0051REMSYN088AAXX  26004 82784 32595 71802 10242 20223 39675 40142 87600 333 10305 29082 55058 58005;EQDQ01  00002PRCP99
0201827840999992002012612004-07310-039300FM-12+040999999V0200901N001512200019N0200001N1+02721+02241101611ADDAA124008991AY161061AY211061GF102991021021008001001001KA1240N+02221MA1999999096941MD1999999+0071MW1011REMSYN088AAXX  26124 82784 21598 20903 10272 20224 39694 40161 70161 82200 333 20222 58007 60094;
0167827840999992002012618004-07310-039300FM-12+040999999V0200501N002612200019N0200001N1+03081+01951101121ADDAA199000091GF102991021021008001021001MA1999999096481MD1999999+0011REMSYN070AAXX  26184 82784 32598 20505 10308 20195 39648 40112 82220 333 58001;EQDQ01  00002PRCP99
0173827840999992002012712004-07310-039300FM-12+040999999V0201401N000510120019N0100001N1+02451+02031101541ADDAA124016091GF108991081081008001999999KA1240N+02101MA1999999096851MD1999999-0091REMSYN082AAXX  27124 82784 22597 81401 10245 20203 39685 40154 888// 333 20210 59009 60164;
0167827840999992002012718004-07310-039300FM-12+040999999V0200901N002612200019N0040001N1+03041+01881101081ADDAA199000091GF102991021021012501001001MA1999999096431MD1999999-0051REMSYN070AAXX  27184 82784 32696 20905 10304 20188 39643 40108 82200 333 59005;EQDQ01  00002PRCP99
0208827840999992002012800004-07310-039300FM-12+040999999V0202701N000512200019N0020001N1+02441+02091999999ADDAA199000091GA1001+999999999GF100991001001999999001001KA1240M+03111MA1999999096581MD1999999-0311REMSYN082AAXX  28004 82784 32995 02701 10244 20209 39658 44012 333 10311 29072 55085 59031;EQDQ01  00002PRCP99
0186827840999992002012812004-07310-039300FM-12+040999999V0200501N000510450019N0200001N1+02531+02071101461ADDAA199000091GF107991031081008001021001KA1240N+02121MA1999999096781MD1999999-0061REMSYN076AAXX  28124 82784 32598 70501 10253 20207 39678 40146 83820 333 20212 59006;EQDQ01  00002PRCP99
0167827840999992002012818004-07310-039300FM-12+040999999V0201401N002110075019N0200001N1+03041+02001101021ADDAA199000091GF106991051021008001061001MA1999999096381MD1999999-0051REMSYN070AAXX  28184 82784 32598 61404 10304 20200 39638 40102 85260 333 59005;EQDQ01  00002PRCP99
0208827840999992002012900004-07310-039300FM-12+040999999V0202301N001012200019N0020001N1+02381+02091101171ADDAA199000091GA1001+999999999GF100991001001999999001001KA1240M+03171MA1999999096511MD1999999-0071REMSYN082AAXX  29004 82784 32995 02302 10238 20209 39651 40117 333 10317 29074 55072 59007;EQDQ01  00002PRCP99
0186827840999992002012912004-07310-039300FM-12+040999999V0200501N002112200019N0200001N1+02681+02241101361ADDAA199000091GF104991041021008001001001KA1240N+02121MA1999999096701MD1999999-0091REMSYN076AAXX  29124 82784 32598 40504 10268 20224 39670 40136 84200 333 20212 59009;EQDQ01  00002PRCP99
0167827840999992002012918004-07310-039300FM-12+040999999V0200501N002112200019N0200001N1+03081+02161100981ADDAA199000091GF102991021021008001001001MA1999999096341MD1999999-0041REMSYN070AAXX  29184 82784 32598 20504 10308 20216 39634 40098 82200 333 59004;EQDQ01  00002PRCP99
0223827840999992002013000004-07310-039300FM-12+040999999V0209999C000012200019N0020001N1+02401+02261101241ADDAA106004191AY191061AY261061GA1001+999999999GF100991001001999999001001KA1240M+03131MA1999999096581MD1999999+0071MW1011REMSYN094AAXX  30004 82784 21995 00000 10240 20226 39658 40124 70196 333 10313 29080 55096 58007 60041;
0173827840999992002013012004-07310-039300FM-12+040999999V0200501N001510120019N0200001N1+02501+02111101471ADDAA124004191GF108991081081008001999999KA1240N+02301MA1999999096791MD1999999+0091REMSYN082AAXX  30124 82784 22598 80503 10250 20211 39679 40147 888// 333 20230 58009 60044;
0167827840999992002013018004-07310-039300FM-12+040999999V0200501N002112200019N0200001N1+03041+02201101031ADDAA199000091GF104991041021008001001001MA1999999096401MD1999999+0061REMSYN070AAXX  30184 82784 32598 40504 10304 20220 39640 40103 84200 333 58006;EQDQ01  00002PRCP99
0208827840999992002013100004-07310-039300FM-12+040999999V0200901N000512200019N0020001N1+02321+02151101291ADDAA199000091GA1001+999999999GF100991001001999999001001KA1240M+03051MA1999999096621MD1999999+0041REMSYN082AAXX  31004 82784 32995 00901 10232 20215 39662 40129 333 10305 29085 55085 58004;EQDQ01  00002PRCP99
0186827840999992002013112004-07310-039300FM-12+040999999V0201401N001510075019N0200001N1+02681+02111101371ADDAA199000091GF106991061021008001001001KA1240N+02221MA1999999096701MD1999999-0091REMSYN076AAXX  31124 82784 32598 61403 10268 20211 39670 40137 86200 333 20222 59009;EQDQ01  00002PRCP99
0167827840999992002013118004-07310-039300FM-12+040999999V0200901N002110450019N0200001N1+03031+01961100981ADDAA199000091GF107991041021008001071001MA1999999096341MD1999999-0061REMSYN070AAXX  31184 82784 32598 70904 10303 20196 39634 40098 84270 333 59006;EQDQ01  00002PRCP99
0186827840999992002020112004-07310-039300FM-12+040999999V0201401N002110150019N0200001N1+02571+01951101521ADDAA199000091GF108991081001017501011999KA1240N+02201MA1999999096851MD1999999+0151REMSYN076AAXX  01124 82784 32798 81404 10257 20195 39685 40152 8801/ 333 20220 58015;EQDQ01  00002PRCP99
0167827840999992002020118004-07310-039300FM-12+040999999V0200901N002112200019N0200001N1+03011+01751101131ADDAA199000091GF102991011021012501001061MA1999999096491MD1999999+0151REMSYN070AAXX  01184 82784 32698 20904 10301 20175 39649 40113 81206 333 58015;EQDQ01  00002PRCP99
0208827840999992002020200004-07310-039300FM-12+040999999V0202301N000512200019N0020001N1+02321+01941101221ADDAA199000091GA1001+999999999GF100991001001999999001001KA1240M+03171MA1999999096551MD1999999+0031REMSYN082AAXX  02004 82784 32995 02301 10232 20194 39655 40122 333 10317 29068 55071 58003;EQDQ01  00002PRCP99
0202827840999992002020212004-07310-039300FM-12+040999999V0200901N001019999999N0200001N1+02601+01991101541ADDAA199000091GF107991999011008001001001KA1240N+02021MA1999999096861MD1999999+0011REMSYN076AAXX  02124 82784 32598 70902 10260 20199 39686 40154 82100 333 20202 58001;EQDQ01+000022SCOTLCQ02  00002PRCP99
0183827840999992002020218004-07310-039300FM-12+040999999V0200501N002119999999N0200001N1+03021+02101101091ADDAA199000091GF106991999021008001001001MA1999999096441MD1999999-0081REMSYN070AAXX  02184 82784 32598 60504 10302 20210 39644 40109 83200 333 59008;EQDQ01+000032SCOTLCQ02  00002PRCP99
0208827840999992002020300004-07310-039300FM-12+040999999V0202701N001012200019N0020001N1+02331+01981101351ADDAA199000091GA1001+999999999GF100991001001999999001001KA1240M+03071MA1999999096681MD1999999+0131REMSYN082AAXX  03004 82784 32995 02702 10233 20198 39668 40135 333 10307 29072 55087 58013;EQDQ01  00002PRCP99
0186827840999992002020312004-07310-039300FM-12+040999999V0203601N001510120019N0040001N1+02461+02071101451ADDAA199000091GF108991071081008001011999KA1240N+01991MA1999999096771MD1999999-0091REMSYN076AAXX  03124 82784 32596 83603 10246 20207 39677 40145 8781/ 333 20199 59009;EQDQ01  00002PRCP99
0167827840999992002020318004-07310-039300FM-12+040999999V0200501N002110150019N0200001N1+02921+02091101071ADDAA199000091GF108991071081012501011999MA1999999096411MD1999999-0031REMSYN070AAXX  03184 82784 32698 80504 10292 20209 39641 40107 8781/ 333 59003;EQDQ01  00002PRCP99
0198827840999992002020400004-07310-039300FM-12+040999999V0203601N002110075019N0020001N1+02331+02051101501ADDAA199000091GF108991081071008001999999KA1240M+02981MA1999999096821MD1999999+0141REMSYN088AAXX  04004 82784 32595 83604 10233 20205 39682 40150 887// 333 10298 29078 55077 58014;EQDQ01  00002PRCP99
0201827840999992002020412004-07310-039300FM-12+040999999V0203201N001010075019N0200001N1+02541+01781101541ADDAA124003091AY161061AY221061GF108991061041008001031999KA1240N+02001MA1999999096861MD1999999+0091MW1021REMSYN088AAXX  04124 82784 21598 83202 10254 20178 39686 40154 70262 8643/ 333 20200 58009 60034;
0167827840999992002020418004-07310-039300FM-12+040999999V0200501N001510450019N0200001N1+02781+02131101171ADDAA199000091GF107991041021008001061001MA1999999096501MD1999999-0091REMSYN070AAXX  04184 82784 32598 70503 10278 20213 39650 40117 84260 333 59009;EQDQ01  00002PRCP99
0208827840999992002020500004-07310-039300FM-12+040999999V0201801N000512200019N0020001N1+02341+02151101341ADDAA199000091GA1001+999999999GF100991001001999999001001KA1240M+02891MA1999999096701MD1999999-0121REMSYN082AAXX  05004 82784 32995 01801 10234 20215 39670 40134 333 10289 29077 55060 59012;EQDQ01  00002PRCP99
0201827840999992002020512004-07310-039300FM-12+040999999V0200901N001510120019N0100001N1+02541+02091101561ADDAA124006191AY161061AY211061GF108991061081008001031999KA1240N+02191MA1999999096881MD1999999+0021MW1021REMSYN088AAXX  05124 82784 21597 80903 10254 20209 39688 40156 70261 8683/ 333 20219 58002 60064;
0167827840999992002020518004-07310-039300FM-12+040999999V0203601N002112200019N0200001N1+02981+01831101211ADDAA199000091GF104991021081012501011091MA1999999096561MD1999999+0061REMSYN070AAXX  05184 82784 32698 43604 10298 20183 39656 40121 82819 333 58006;EQDQ01  00002PRCP99
0208827840999992002020600004-07310-039300FM-12+040999999V0209999C000012200019N0020001N1+02381+02151101431ADDAA199000091GA1001+999999999GF100991001001999999001001KA1240M+03041MA1999999096751MD1999999+0051REMSYN082AAXX  06004 82784 32995 00000 10238 20215 39675 40143 333 10304 29075 55044 58005;EQDQ01  00002PRCP99
0186827840999992002020612004-07310-039300FM-12+040999999V0200901N001010120019N0200001N1+02541+02091101461ADDAA199000091GF108991081081008001999999KA1240N+02201MA1999999096781MD1999999-0101REMSYN076AAXX  06124 82784 32598 80902 10254 20209 39678 40146 888// 333 20220 59010;EQDQ01  00002PRCP99
0167827840999992002020618004-07310-039300FM-12+040999999V0203601N003112200019N0200001N1+02961+02021101061ADDAA199000091GF103991021021008001031021MA1999999096421MD1999999-0141REMSYN070AAXX  06184 82784 32598 33606 10296 20202 39642 40106 82232 333 59014;EQDQ01  00002PRCP99
0167827840999992002020718004-07310-039300FM-12+040999999V0200901N003612200019N0200001N1+03001+01881101021ADDAA199000091GF101991011011012501001001MA1999999096381MD1999999-0041REMSYN070AAXX  07184 82784 32698 10907 10300 20188 39638 40102 81100 333 59004;EQDQ01  00002PRCP99
0208827840999992002020800004-07310-039300FM-12+040999999V0200901N000512200019N0020001N1+02471+02051101211ADDAA199000091GA1001+999999999GF100991001001999999001001KA1240M+03091MA1999999096551MD1999999-0131REMSYN082AAXX  08004 82784 32995 00901 10247 20205 39655 40121 333 10309 29069 55097 59013;EQDQ01  00002PRCP99
0186827840999992002020812004-07310-039300FM-12+040999999V0200901N004112200019N0200001N1+02661+01771101471ADDAA199000091GF101991011011008001001001KA1240N+02081MA1999999096711MD1999999-0121REMSYN076AAXX  08124 82784 32598 10908 10266 20177 39671 40147 81100 333 20208 59012;EQDQ01  00002PRCP99
0167827840999992002020818004-07310-039300FM-12+040999999V0201401N001010075019N0200001N1+02941+01851101031ADDAA199000091GF105991051021008001001001MA1999999096381MD1999999+0001REMSYN070AAXX  08184 82784 32598 51402 10294 20185 39638 40103 85200 333 58000;EQDQ01  00002PRCP99
0208827840999992002020900004-07310-039300FM-12+040999999V0201801N001512200019N0020001N1+02381+02131101291ADDAA199000091GA1001+999999999GF100991001001999999001001KA1240M+03031MA1999999096651MD1999999+0081REMSYN082AAXX  09004 82784 32995 01803 10238 20213 39665 40129 333 10303 29070 55113 58008;EQDQ01  00002PRCP99
0186827840999992002020912004-07310-039300FM-12+040999999V0200901N001010075019N0100001N1+02511+02111101481ADDAA199000091GF108991081071008001999999KA1240N+02181MA1999999096811MD1999999+0101REMSYN076AAXX  09124 82784 32597 80902 10251 20211 39681 40148 887// 333 20218 58010;EQDQ01  00002PRCP99
0167827840999992002020918004-07310-039300FM-12+040999999V0203601N001010450019N0200001N1+03141+01911101111ADDAA199000091GF106991031081008001031999MA1999999096471MD1999999+0091REMSYN070AAXX  09184 82784 32598 63602 10314 20191 39647 40111 8383/ 333 58009;EQDQ01  00002PRCP99
0208827840999992002021000004-07310-039300FM-12+040999999V0200901N001012200019N0020001N1+02421+02071101351ADDAA199000091GA1001+999999999GF100991001001999999001001KA1240M+03211MA1999999096681MD1999999+0031REMSYN082AAXX  10004 82784 32995 00902 10242 20207 39668 40135 333 10321 29072 55073 58003;EQDQ01  00002PRCP99
0220827840999992002021012004-07310-039300FM-12+040999999V0202701N001019999999N0200001N1+02471+02111101541ADDAA124055991AY191061AY261061GF108991999021008001001001KA1240N+02081MA1999999096861MD1999999+0051MW1031REMSYN088AAXX  10124 82784 21598 82702 10247 20211 39686 40154 70396 83200 333 20208 58005 60564;EQDQ01+000032SCOTLC
0198827840999992002021100004-07310-039300FM-12+040999999V0209999C000012200019N0020001N1+02381+02241101431ADDAA199000091GF101991011011008001001001KA1240M+03051MA1999999096751MD1999999-0071REMSYN088AAXX  11004 82784 32595 10000 10238 20224 39675 40143 81100 333 10305 29082 55093 59007;EQDQ01  00002PRCP99
0186827840999992002021112004-07310-039300FM-12+040999999V0200901N003112200019N0200001N1+02651+01901101411ADDAA199000091GF101991011021008001001001KA1240N+02101MA1999999096741MD1999999-0121REMSYN076AAXX  11124 82784 32598 10906 10265 20190 39674 40141 81200 333 20210 59012;EQDQ01  00002PRCP99
0167827840999992002021118004-07310-039300FM-12+040999999V0200901N002112200019N0200001N1+03061+01871101011ADDAA199000091GF102991021021008001001001MA1999999096371MD1999999-0051REMSYN070AAXX  11184 82784 32598 20904 10306 20187 39637 40101 82200 333 59005;EQDQ01  00002PRCP99
0198827840999992002021200004-07310-039300FM-12+040999999V0200901N002110075019N0020001N1+02501+01871101361ADDAA199000091GF108991081071008001999999KA1240M+03131MA1999999096701MD1999999-0051REMSYN088AAXX  12004 82784 32595 80904 10250 20187 39670 40136 887// 333 10313 29062 55112 59005;EQDQ01  00002PRCP99
0176827840999992002021212004-07310-039300FM-12+040999999V0200901N002119999999N0200001N1+02681+02041999999ADDAA124004191GF106991999999008001999999KA1240N+02001MA1999999096841MD1999999+0101ME1100009REMSYN076AAXX  12124 82784 21598 60904 10268 20204 39684 41507 333 20200 58010 60044;
0213827840999992002021300004-07310-039300FM-12+040999999V0200901N002110075019N0010001N1+02381+01951101481ADDAA106000891AY101061AY201061GF108991081071008001999999KA1240M+03071MA1999999096811MD1999999+0111MW1521REMSYN100AAXX  13004 82784 21594 80904 10238 20195 39681 40148 75200 887// 333 10307 29070 55072 58011 69971;
0201827840999992002021312004-07310-039300FM-12+040999999V0203201N000510075019N0040001N1+02351+02031101531ADDAA124006191AY161061AY221061GF108991081061008001999999KA1240N+02191MA1999999096841MD1999999+0001MW1021REMSYN088AAXX  13124 82784 21596 83201 10235 20203 39684 40153 70262 886// 333 20219 58000 60064;
0167827840999992002021318004-07310-039300FM-12+040999999V0201401N001510120019N0200001N1+02701+02111101271ADDAA199000091GF108991061081008001061999MA1999999096591MD1999999+0091REMSYN070AAXX  13184 82784 32598 81403 10270 20211 39659 40127 8686/ 333 58009;EQDQ01  00002PRCP99
0213827840999992002021400004-07310-039300FM-12+040999999V0201401N000510120019N0020001N1+02301+02131101571ADDAA106000191AY151061AY221061GF108991081081008001999999KA1240M+02891MA1999999096871MD1999999+0061MW1031REMSYN100AAXX  14004 82784 21595 81401 10230 20213 39687 40157 70352 888// 333 10289 29083 55042 58006 69911;
0167827840999992002021418004-07310-039300FM-12+040999999V0200501N002110450019N0200001N1+02891+02051101161ADDAA199000091GF107991021021008001071001MA1999999096501MD1999999-0091REMSYN070AAXX  14184 82784 32598 70504 10289 20205 39650 40116 82270 333 59009;EQDQ01  00002PRCP99
0167827840999992002021518004-07310-039300FM-12+040999999V0200901N002612200019N0200001N1+02961+01931101161ADDAA199000091GF104991021081012501051091MA1999999096511MD1999999+0011REMSYN070AAXX  15184 82784 32698 40905 10296 20193 39651 40116 82859 333 58001;EQDQ01  00002PRCP99
0208827840999992002021600004-07310-039300FM-12+040999999V0209999C000012200019N0020001N1+02361+02071101431ADDAA199000091GA1001+999999999GF100991001001999999001001KA1240M+03041MA1999999096751MD1999999+0001REMSYN082AAXX  16004 82784 32995 00000 10236 20207 39675 40143 333 10304 29074 55085 58000;EQDQ01  00002PRCP99
0186827840999992002021612004-07310-039300FM-12+040999999V0200501N002610120019N0200001N1+02551+02131101611ADDAA199000091GF107991071081008001001001KA1240N+02101MA1999999096931MD1999999+0001REMSYN076AAXX  16124 82784 32598 70505 10255 20213 39693 40161 87800 333 20210 58000;EQDQ01  00002PRCP99
0167827840999992002021618004-07310-039300FM-12+040999999V0200501N002612200019N0200001N1+03071+02141101211ADDAA199000091GF104991041021008001001001MA1999999096561MD1999999+0051REMSYN070AAXX  16184 82784 32598 40505 10307 20214 39656 40121 84200 333 58005;EQDQ01  00002PRCP99
0208827840999992002021700004-07310-039300FM-12+040999999V0201401N000512200019N0020001N1+02401+02091101291ADDAA199000091GA1001+999999999GF100991001001999999001001KA1240M+03141MA1999999096631MD1999999-0121REMSYN082AAXX  17004 82784 32995 01401 10240 20209 39663 40129 333 10314 29076 55083 59012;EQDQ01  00002PRCP99
0201827840999992002021712004-07310-039300FM-12+040999999V0203601N000510120019N0100001N1+02481+02251101481ADDAA124004191AY161061AY221061GF108991071081008001031999KA1240N+02241MA1999999096801MD1999999-0131MW1021REMSYN088AAXX  17124 82784 21597 83601 10248 20225 39680 40148 70262 8783/ 333 20224 59013 60044;
0167827840999992002021718004-07310-039300FM-12+040999999V0203601N001510120019N0200001N1+03061+02191101071ADDAA199000091GF106991061021012501001001MA1999999096441MD1999999-0121REMSYN070AAXX  17184 82784 32698 63603 10306 20219 39644 40107 86200 333 59012;EQDQ01  00002PRCP99
0208827840999992002021800004-07310-039300FM-12+040999999V0202701N001012200019N0020001N1+02461+02171101301ADDAA199000091GA1001+999999999GF100991001001999999001001KA1240M+03171MA1999999096631MD1999999+0001REMSYN082AAXX  18004 82784 32995 02702 10246 20217 39663 40130 333 10317 29078 55076 58000;EQDQ01  00002PRCP99
0186827840999992002021812004-07310-039300FM-12+040999999V0200901N002110120019N0200001N1+02651+02161101341ADDAA199000091GF107991071081008001001001KA1240N+02081MA1999999096681MD1999999-0121REMSYN076AAXX  18124 82784 32598 70904 10265 20216 39668 40134 87800 333 20208 59012;EQDQ01  00002PRCP99
0167827840999992002021818004-07310-039300FM-12+040999999V0200901N001512200019N0200001N1+03111+02001100951ADDAA199000091GF104991041021008001001001MA1999999096311MD1999999-0131REMSYN070AAXX  18184 82784 32598 40903 10311 20200 39631 40095 84200 333 59013;EQDQ01  00002PRCP99
0214827840999992002021900004-07310-039300FM-12+040999999V0201401N000519999999N0020001N1+02521+02231101211ADDAA199000091GF106991999051008001999999KA1240M+03231MA1999999096561MD1999999-0071REMSYN088AAXX  19004 82784 32595 61401 10252 20223 39656 40121 885// 333 10323 29074 55103 59007;EQDQ01+000082SCOTLCQ02  00002PRCP99
0186827840999992002021912004-07310-039300FM-12+040999999V0200901N002112200019N0200001N1+02741+02171101421ADDAA199000091GF104991041021008001001001KA1240N+02181MA1999999096761MD1999999+0081REMSYN076AAXX  19124 82784 32598 40904 10274 20217 39676 40142 84200 333 20218 58008;EQDQ01  00002PRCP99
0167827840999992002021918004-07310-039300FM-12+040999999V0200901N002110120019N0200001N1+03101+02231100991ADDAA199000091GF107991071021012501001001MA1999999096351MD1999999-0041REMSYN070AAXX  19184 82784 32698 70904 10310 20223 39635 40099 87200 333 59004;EQDQ01  00002PRCP99
0198827840999992002022000004-07310-039300FM-12+040999999V0209999C000012200019N0020001N1+02511+02321101201ADDAA199000091GF102991021081008001001001KA1240M+03221MA1999999096551MD1999999-0011REMSYN088AAXX  20004 82784 32595 20000 10251 20232 39655 40120 82800 333 10322 29078 55102 59001;EQDQ01  00002PRCP99
0186827840999992002022012004-07310-039300FM-12+040999999V0200901N002612200019N0200001N1+02781+02061101471ADDAA199000091GF104991041021008001001001KA1240N+02241MA1999999096811MD1999999+0051REMSYN076AAXX  20124 82784 32598 40905 10278 20206 39681 40147 84200 333 20224 58005;EQDQ01  00002PRCP99
0167827840999992002022018004-07310-039300FM-12+040999999V0200501N003112200019N0200001N1+03161+02021101071ADDAA199000091GF103991031021008001001001MA1999999096441MD1999999+0091REMSYN070AAXX  20184 82784 32598 30506 10316 20202 39644 40107 83200 333 58009;EQDQ01  00002PRCP99
0198827840999992002022100004-07310-039300FM-12+040999999V0200901N000510120019N0020001N1+02481+02231101261ADDAA199000091GF108991081081008001999999KA1240M+03221MA1999999096611MD1999999+0061REMSYN088AAXX  21004 82784 32595 80901 10248 20223 39661 40126 888// 333 10322 29072 55111 58006;EQDQ01  00002PRCP99
0186827840999992002022112004-07310-039300FM-12+040999999V0200901N002110075019N0200001N1+02671+02021101361ADDAA199000091GF106991061021008001001001KA1240N+02291MA1999999096701MD1999999-0111REMSYN076AAXX  21124 82784 32598 60904 10267 20202 39670 40136 86200 333 20229 59011;EQDQ01  00002PRCP99
0183827840999992002022118004-07310-039300FM-12+040999999V0200901N002119999999N0200001N1+03681+02131999999ADDAA199000091GF105991999081012501021001MA1999999096281MD1999999-0161REMSYN070AAXX  21184 82784 32698 50904 10368 20213 39628 46091 89820 333 59016;EQDQ01+000092SCOTLCQ02  00002PRCP99
0208827840999992002022200004-07310-039300FM-12+040999999V0201801N001012200019N0020001N1+02361+02131101171ADDAA199000091GA1001+999999999GF100991001001999999001001KA1240M+03171MA1999999096511MD1999999-0101REMSYN082AAXX  22004 82784 32995 01802 10236 20213 39651 40117 333 10317 29075 55105 59010;EQDQ01  00002PRCP99
0186827840999992002022212004-07310-039300FM-12+040999999V0200501N001512200019N0200001N1+02701+02031101261ADDAA199000091GF104991041021008001001001KA1240N+02001MA1999999096601MD1999999-0101REMSYN076AAXX  22124 82784 32598 40503 10270 20203 39660 40126 84200 333 20200 59010;EQDQ01  00002PRCP99
0167827840999992002022218004-07310-039300FM-12+040999999V0200501N001512200019N0200001N1+03161+01821100881ADDAA199000091GF101991011021008001001001MA1999999096251MD1999999-0031REMSYN070AAXX  22184 82784 32598 10503 10316 20182 39625 40088 81200 333 59003;EQDQ01  00002PRCP99
0208827840999992002022300004-07310-039300FM-12+040999999V0209999C000012200019N0020001N1+02361+02051101131ADDAA199000091GA1001+999999999GF100991001001999999001001KA1240M+03231MA1999999096481MD1999999-0031REMSYN082AAXX  23004 82784 32995 00000 10236 20205 39648 40113 333 10323 29070 55100 59003;EQDQ01  00002PRCP99
0186827840999992002022312004-07310-039300FM-12+040999999V0200501N001512200019N0200001N1+02671+02071101461ADDAA199000091GF101991011021008001001001KA1240N+01981MA1999999096791MD1999999+0191REMSYN076AAXX  23124 82784 32598 10503 10267 20207 39679 40146 81200 333 20198 58019;EQDQ01  00002PRCP99
0167827840999992002022318004-07310-039300FM-12+040999999V0200501N001512200019N0200001N1+03151+02001101011ADDAA199000091GF101991011021008001001021MA1999999096371MD1999999+0121REMSYN070AAXX  23184 82784 32598 10503 10315 20200 39637 40101 81202 333 58012;EQDQ01  00002PRCP99
0198827840999992002022400004-07310-039300FM-12+040999999V0200901N000512200019N0020001N1+02401+02111101291ADDAA199000091GF101991011081008001001001KA1240M+03281MA1999999096631MD1999999+0151REMSYN088AAXX  24004 82784 32595 10901 10240 20211 39663 40129 81800 333 10328 29072 55111 58015;EQDQ01  00002PRCP99
0202827840999992002022412004-07310-039300FM-12+040999999V0200501N001519999999N0200001N1+02611+02121101611ADDAA199000091GF107991999011008001001001KA1240N+02001MA1999999096931MD1999999+0141REMSYN076AAXX  24124 82784 32598 70503 10261 20212 39693 40161 82100 333 20200 58014;EQDQ01+000022SCOTLCQ02  00002PRCP99
0177827840999992002022418004-07310-039300FM-12+040999999V0200501N002112200019N0200001N1+03241+02101101081ADDAA199000091GA1001+999999999GF100991001001999999001001MA1999999096441MD1999999+0071REMSYN064AAXX  24184 82784 32998 00504 10324 20210 39644 40108 333 58007;EQDQ01  00002PRCP99
0167827840999992002022518004-07310-039300FM-12+040999999V0203601N001512200019N0200001N1+03201+02091101001ADDAA199000091GF101991011021008001001001MA1999999096371MD1999999-0071REMSYN070AAXX  25184 82784 32598 13603 10320 20209 39637 40100 81200 333 59007;EQDQ01  00002PRCP99
0201827840999992002022612004-07310-039300FM-12+040999999V0203601N001510120019N0040001N1+02521+02151101551ADDAA124003091AY161061AY251061GF108991081081008001999999KA1240N+02181MA1999999096871MD1999999+0021MW1021REMSYN088AAXX  26124 82784 21596 83603 10252 20215 39687 40155 70265 888// 333 20218 58002 60034;
0167827840999992002022618004-07310-039300FM-12+040999999V0203601N002112200019N0200001N1+02971+02231101051ADDAA199000091GF102991021021008001001001MA1999999096411MD1999999+0041REMSYN070AAXX  26184 82784 32598 23604 10297 20223 39641 40105 82200 333 58004;EQDQ01  00002PRCP99
0208827840999992002022700004-07310-039300FM-12+040999999V0201801N000512200019N0020001N1+02441+02211101261ADDAA199000091GA1001+999999999GF100991001001999999001001KA1240M+03031MA1999999096601MD1999999-0011REMSYN082AAXX  27004 82784 32995 01801 10244 20221 39660 40126 333 10303 29080 55080 59001;EQDQ01  00002PRCP99
0186827840999992002022712004-07310-039300FM-12+040999999V0201401N002112200019N0200001N1+02751+02051101551ADDAA199000091GF102991011021008001011001KA1240N+02271MA1999999096881MD1999999+0011REMSYN076AAXX  27124 82784 32598 21404 10275 20205 39688 40155 81210 333 20227 58001;EQDQ01  00002PRCP99
0167827840999992002022718004-07310-039300FM-12+040999999V0200901N002112200019N0200001N1+03241+01751101021ADDAA199000091GF102991021021008001001001MA1999999096401MD1999999-0011REMSYN070AAXX  27184 82784 32598 20904 10324 20175 39640 40102 82200 333 59001;EQDQ01  00002PRCP99
0198827840999992002022800004-07310-039300FM-12+040999999V0200901N000510120019N0020001N1+02491+01871101251ADDAA199000091GF108991081081008001999999KA1240M+03291MA1999999096601MD1999999+0001REMSYN088AAXX  28004 82784 32595 80901 10249 20187 39660 40125 888// 333 10329 29061 55110 58000;EQDQ01  00002PRCP99
0186827840999992002022812004-07310-039300FM-12+040999999V0201401N003112200019N0200001N1+02731+01931101351ADDAA199000091GF101991011011008001001001KA1240N+02271MA1999999096691MD1999999-0191REMSYN076AAXX  28124 82784 32598 11406 10273 20193 39669 40135 81100 333 20227 59019;EQDQ01  00002PRCP99
0167827840999992002022818004-07310-039300FM-12+040999999V0200901N002110120019N0200001N1+03201+01991100891ADDAA199000091GF106991061021012501001001MA1999999096271MD1999999-0131REMSYN070AAXX  28184 82784 32698 60904 10320 20199 39627 40089 86200 333 59013;EQDQ01  00002PRCP99
0208827840999992002030100004-07310-039300FM-12+040999999V0200901N001012200019N0020001N1+02481+02111101161ADDAA199000091GA1001+999999999GF100991001001999999001001KA1240M+03271MA1999999096511MD1999999-0091REMSYN082AAXX  01000 82784 32995 00901 10248 20211 39651 40116 333 10327 29068 55108 59009;EQDQ01  00002PRCP99
0186827840999992002030112004-07310-039300FM-12+040999999V0201401N002112200019N0200001N1+02691+01861101401ADDAA199000091GF102991021011008001001001KA1240N+02281MA1999999096741MD1999999+0051REMSYN076AAXX  01124 82784 32598 21404 10269 20186 39674 40140 82100 333 20228 58005;EQDQ01  00002PRCP99
0167827840999992002030118004-07310-039300FM-12+040999999V0200901N002112200019N0200001N1+03231+01771101021ADDAA199000091GF102991011011008001011001MA1999999096401MD1999999+0131REMSYN070AAXX  01184 82784 32598 20904 10323 20177 39640 40102 81110 333 58013;EQDQ01  00002PRCP99
0198827840999992002030300004-07310-039300FM-12+040999999V0200501N000510120019N0020001N1+02541+02111101151ADDAA199000091GF106991061081008001001001KA1240M+03351MA1999999096511MD1999999-0071REMSYN088AAXX  03004 82784 32595 60501 10254 20211 39651 40115 86800 333 10335 29065 55112 59007;EQDQ01  00002PRCP99
0183827840999992002030318004-07310-039300FM-12+040999999V0201401N002619999999N0200001N1+03161+01751100851ADDAA199000091GF107991999011012501001001MA1999999096241MD1999999-0041REMSYN070AAXX  03184 82784 32698 71405 10316 20175 39624 40085 82100 333 59004;EQDQ01+000022SCOTLCQ02  00002PRCP99
0201827840999992002030412004-07310-039300FM-12+040999999V0203201N001010450019N0200001N1+02371+01631101411ADDAA124011991AY161061AY221061GF108991041081008001021999KA1240N+02181MA1999999096741MD1999999+0071MW1211REMSYN088AAXX  04124 82784 21598 83202 10237 20163 39674 40141 72162 8482/ 333 20218 58007 60124;
0182827840999992002030418004-07310-039300FM-12+040999999V0201401N003110075019N0010001N1+02461+02171101061ADDAA106000191AY121061AY221061GF108991081071008001999999MA1999999096391MD1999999+0051MW1951REMSYN082AAXX  04184 82784 21594 81406 10246 20217 39639 40106 79522 887// 333 58005 69921;
0173827840999992002030512004-07310-039300FM-12+040999999V0201401N001010075019N0200001N1+02401+02111101521ADDAA124020191GF108991081071008001999999KA1240N+02131MA1999999096821MD1999999+0081REMSYN082AAXX  05124 82784 22598 81402 10240 20211 39682 40152 887// 333 20213 58008 60204;
0167827840999992002030518004-07310-039300FM-12+040999999V0203601N001510150019N0200001N1+02801+02151101061ADDAA199000091GF108991061081012501011051MA1999999096411MD1999999+0021REMSYN070AAXX  05184 82784 32698 83603 10280 20215 39641 40106 86815 333 58002;EQDQ01  00002PRCP99
0213827840999992002030600004-07310-039300FM-12+040999999V0202701N001010042019N0005001N1+02141+02091101571ADDAA106023191AY191061AY261061GF108991081071004501999999KA1240M+02931MA1999999096871MD1999999+0211MW1631REMSYN100AAXX  06004 82784 21493 82702 10214 20209 39687 40157 76396 887// 333 10293 29086 55020 58021 60231;
0201827840999992002030612004-07310-039300FM-12+040999999V0203601N001512200019N0200001N1+02521+02111101511ADDAA124023991AY161061AY211061GF102991011021008001041001KA1240N+02061MA1999999096821MD1999999+0001MW1011REMSYN088AAXX  06124 82784 21598 23603 10252 20211 39682 40151 70161 81240 333 20206 58000 60244;
0167827840999992002030618004-07310-039300FM-12+040999999V0200501N001510450019N0200001N1+02971+02021101031ADDAA199000091GF106991021021008001051001MA1999999096381MD1999999-0031REMSYN070AAXX  06184 82784 32598 60503 10297 20202 39638 40103 82250 333 59003;EQDQ01  00002PRCP99
0198827840999992002030700004-07310-039300FM-12+040999999V0200901N000510075019N0020001N1+02421+02251101401ADDAA199000091GF108991081071008001999999KA1240M+03071MA1999999096721MD1999999-0151REMSYN088AAXX  07004 82784 32595 80901 10242 20225 39672 40140 887// 333 10307 29079 55094 59015;EQDQ01  00002PRCP99
0201827840999992002030712004-07310-039300FM-12+040999999V0201401N001510120019N0200001N1+02701+02201101491ADDAA124005191AY161061AY221061GF108991061081008001021999KA1240N+02231MA1999999096821MD1999999+0001MW1021REMSYN088AAXX  07124 82784 21598 81403 10270 20220 39682 40149 70262 8682/ 333 20223 58000 60054;
0167827840999992002030718004-07310-039300FM-12+040999999V0200901N001511050019N0200001N1+02921+02141101121ADDAA199000091GF108991021081012501001051MA1999999096471MD1999999+0091REMSYN070AAXX  07184 82784 32698 80903 10292 20214 39647 40112 82805 333 58009;EQDQ01  00002PRCP99
0213827840999992002030800004-07310-039300FM-12+040999999V0200501N001010075019N0010001N1+02461+02361101421ADDAA106000191AY121061AY221061GF108991081071008001999999KA1240M+03031MA1999999096761MD1999999+0041MW1971REMSYN100AAXX  08004 82784 21594 80502 10246 20236 39676 40142 79722 887// 333 10303 29079 55054 58004 69921;
0201827840999992002030812004-07310-039300FM-12+040999999V0200901N003611050019N0200001N1+02621+01931101611ADDAA124000591AY191061AY251061GF107991031021008001001021KA1240N+02251MA1999999096941MD1999999+0121MW1021REMSYN088AAXX  08124 82784 21598 70907 10262 20193 39694 40161 70295 83202 333 20225 58012 69944;
0167827840999992002030818004-07310-039300FM-12+040999999V0200901N001511050019N0200001N1+03011+02081101121ADDAA199000091GF105991031021008001001021MA1999999096481MD1999999+0011REMSYN070AAXX  08184 82784 32598 50903 10301 20208 39648 40112 83202 333 58001;EQDQ01  00002PRCP99
0208827840999992002030900004-07310-039300FM-12+040999999V0209999C000012200019N0020001N1+02361+02131101441ADDAA199000091GA1001+999999999GF100991001001999999001001KA1240M+03071MA1999999096771MD1999999+0011REMSYN082AAXX  09004 82784 32995 00000 10236 20213 39677 40144 333 10307 29074 55092 58001;EQDQ01  00002PRCP99
0186827840999992002030912004-07310-039300FM-12+040999999V0200501N001010450019N0200001N1+02711+01861101521ADDAA199000091GF106991011011008001061001KA1240N+02201MA1999999096851MD1999999-0091REMSYN076AAXX  09124 82784 32598 60502 10271 20186 39685 40152 81160 333 20220 59009;EQDQ01  00002PRCP99
0183827840999992002030918004-07310-039300FM-12+040999999V0200901N002119999999N0200001N1+03091+01921101111ADDAA199000091GF108991999021008001001001MA1999999096471MD1999999-0011REMSYN070AAXX  09184 82784 32598 80904 10309 20192 39647 40111 84200 333 59001;EQDQ01+000042SCOTLCQ02  00002PRCP99
0208827840999992002031000004-07310-039300FM-12+040999999V0201401N000512200019N0020001N1+02401+02251101441ADDAA199000091GA1001+999999999GF100991001001999999001001KA1240M+03171MA1999999096751MD1999999+0001REMSYN082AAXX  10004 82784 32995 01401 10240 20225 39675 40144 333 10317 29072 55074 58000;EQDQ01  00002PRCP99
0186827840999992002031012004-07310-039300FM-12+040999999V0200901N002110450019N0200001N1+02701+01991101521ADDAA199000091GF108991031021008001011051KA1240N+02201MA1999999096851MD1999999+0001REMSYN076AAXX  10124 82784 32598 80904 10270 20199 39685 40152 83215 333 20220 58000;EQDQ01  00002PRCP99
0208827840999992002031100004-07310-039300FM-12+040999999V0209999C000012200019N0020001N1+02401+02111101321ADDAA199000091GA1001+999999999GF100991001001999999001001KA1240M+03101MA1999999096661MD1999999-0111REMSYN082AAXX  11004 82784 32995 00000 10240 20211 39666 40132 333 10310 29072 55075 59011;EQDQ01  00002PRCP99
0186827840999992002031112004-07310-039300FM-12+040999999V0200901N001011050019N0200001N1+02671+01921101511ADDAA199000091GF106991011011008001001021KA1240N+02221MA1999999096841MD1999999-0011REMSYN076AAXX  11124 82784 32598 60902 10267 20192 39684 40151 81102 333 20222 59001;EQDQ01  00002PRCP99
0167827840999992002031118004-07310-039300FM-12+040999999V0200901N002110450019N0200001N1+03011+01971101071ADDAA199000091GF106991041021008001061021MA1999999096431MD1999999-0011REMSYN070AAXX  11184 82784 32598 60904 10301 20197 39643 40107 84262 333 59001;EQDQ01  00002PRCP99
0223827840999992002031200004-07310-039300FM-12+040999999V0209999C000012200019N0020001N1+02301+02221101471ADDAA106004191AY161061AY211061GA1001+999999999GF100991001001999999001001KA1240M+03151MA1999999096801MD1999999+0141MW1011REMSYN094AAXX  12004 82784 21995 00000 10230 20222 39680 40147 70161 333 10315 29077 55097 58014 60041;
0173827840999992002031212004-07310-039300FM-12+040999999V0203201N002110450019N0200001N1+02691+02111101681ADDAA124004191GF106991021021008001011021KA1240N+02111MA1999999097001MD1999999+0161REMSYN082AAXX  12124 82784 22598 63204 10269 20211 39700 40168 82212 333 20211 58016 60044;
0167827840999992002031218004-07310-039300FM-12+040999999V0200901N002112200019N0200001N1+03081+02011101231ADDAA199000091GF102991011021008001001021MA1999999096591MD1999999+0161REMSYN070AAXX  12184 82784 32598 20904 10308 20201 39659 40123 81202 333 58016;EQDQ01  00002PRCP99
0198827840999992002031300004-07310-039300FM-12+040999999V0201401N002010120019N0020001N1+02411+02131101531ADDAA199000091GF108991081081008001999999KA1240M+03151MA1999999096861MD1999999+0161REMSYN088AAXX  13000 82784 32595 81402 10241 20213 39686 40153 888// 333 10315 29074 55109 58016;EQDQ01  00002PRCP99
0186827840999992002031312004-07310-039300FM-12+040999999V0200501N001510450019N0200001N1+02781+02041101581ADDAA199000091GF106991011011008001041001KA1240N+02241MA1999999096911MD1999999-0091REMSYN076AAXX  13124 82784 32598 60503 10278 20204 39691 40158 81140 333 20224 59009;EQDQ01  00002PRCP99
0167827840999992002031318004-07310-039300FM-12+040999999V0200501N003112200019N0200001N1+02991+01831101161ADDAA199000091GF103991031021008001001001MA1999999096521MD1999999+0071REMSYN070AAXX  13184 82784 32598 30506 10299 20183 39652 40116 83200 333 58007;EQDQ01  00002PRCP99
0208827840999992002031400004-07310-039300FM-12+040999999V0209999C000012200019N0020001N1+02351+02031101431ADDAA199000091GA1001+999999999GF100991001001999999001001KA1240M+03171MA1999999096761MD1999999-0101REMSYN082AAXX  14004 82784 32995 00000 10235 20203 39676 40143 333 10317 29070 55103 59010;EQDQ01  00002PRCP99
0186827840999992002031412004-07310-039300FM-12+040999999V0203201N001512200019N0200001N1+02671+02091101451ADDAA199000091GF102991021021008001001001KA1240N+02141MA1999999096781MD1999999-0131REMSYN076AAXX  14124 82784 32598 23203 10267 20209 39678 40145 82200 333 20214 59013;EQDQ01  00002PRCP99
0167827840999992002031418004-07310-039300FM-12+040999999V0203601N002112200019N0200001N1+03111+01941101081ADDAA199000091GF102991011021008001001011MA1999999096441MD1999999-0081REMSYN070AAXX  14184 82784 32598 23604 10311 20194 39644 40108 81201 333 59008;EQDQ01  00002PRCP99
0208827840999992002031500004-07310-039300FM-12+040999999V0201401N000512200019N0020001N1+02421+02051101301ADDAA199000091GA1001+999999999GF100991001001999999001001KA1240M+03171MA1999999096641MD1999999-0121REMSYN082AAXX  15004 82784 32995 01401 10242 20205 39664 40130 333 10317 29070 55104 59012;EQDQ01  00002PRCP99
0186827840999992002031512004-07310-039300FM-12+040999999V0200501N000510120019N0200001N1+02511+02071101521ADDAA199000091GF106991061081008001001001KA1240N+02021MA1999999096841MD1999999+0061REMSYN076AAXX  15124 82784 32598 60501 10251 20207 39684 40152 86800 333 20202 58006;EQDQ01  00002PRCP99
0167827840999992002031518004-07310-039300FM-12+040999999V0203601N001512200019N0200001N1+03081+02161100951ADDAA199000091GF101991011021012501001001MA1999999096311MD1999999-0111REMSYN070AAXX  15184 82784 32698 13603 10308 20216 39631 40095 81200 333 59011;EQDQ01  00002PRCP99
0208827840999992002031600004-07310-039300FM-12+040999999V0209999C000012200019N0020001N1+02461+02151101221ADDAA199000091GA1001+999999999GF100991001001999999001001KA1240M+03191MA1999999096561MD1999999-0081REMSYN082AAXX  16004 82784 32995 00000 10246 20215 39656 40122 333 10319 29075 55087 59008;EQDQ01  00002PRCP99
0186827840999992002031612004-07310-039300FM-12+040999999V0200501N001010120019N0200001N1+02531+02131101451ADDAA199000091GF108991081081008001999999KA1240N+02231MA1999999096781MD1999999-0061REMSYN076AAXX  16124 82784 32598 80502 10253 20213 39678 40145 888// 333 20223 59006;EQDQ01  00002PRCP99
0167827840999992002031618004-07310-039300FM-12+040999999V0203601N002111050019N0200001N1+03061+02191101001ADDAA199000091GF106991021021008001001021MA1999999096361MD1999999+0051REMSYN070AAXX  16184 82784 32598 63604 10306 20219 39636 40100 82202 333 58005;EQDQ01  00002PRCP99
0198827840999992002031700004-07310-039300FM-12+040999999V0201401N001010120019N0020001N1+02501+02251101281ADDAA199000091GF105991051081008001001001KA1240M+03151MA1999999096621MD1999999+0061REMSYN088AAXX  17004 82784 32595 51402 10250 20225 39662 40128 85800 333 10315 29078 55064 58006;EQDQ01  00002PRCP99
0186827840999992002031712004-07310-039300FM-12+040999999V0200501N001010075019N0020001N1+02521+02191101381ADDAA199000091GF108991081051008001999999KA1240N+02341MA1999999096711MD1999999-0071REMSYN076AAXX  17124 82784 32595 80502 10252 20219 39671 40138 885// 333 20234 59007;EQDQ01  00002PRCP99
0183827840999992002031718004-07310-039300FM-12+040999999V0203601N003119999999N0200001N1+03051+02231100881ADDAA199000091GF106991999021012501001001MA1999999096261MD1999999-0101REMSYN070AAXX  17184 82784 32698 63606 10305 20223 39626 40088 84200 333 59010;EQDQ01+000042SCOTLCQ02  00002PRCP99
0226827840999992002031800004-07310-039300FM-12+040999999V0201401N001510120019N0020001N1+02461+02271101191ADDAA199000091AY121061AY221061GF108991081081008001999999KA1240M+03151MA1999999096531MD1999999-0091MW1131REMSYN094AAXX  18004 82784 31595 81403 10246 20227 39653 40119 71322 888// 333 10315 29080 55060 59009;EQDQ01  00002PRCP99
0201827840999992002031812004-07310-039300FM-12+040999999V0200501N000510450019N0100001N1+02631+02181101391ADDAA124030091AY191061AY261061GF107991041021008001091001KA1240N+02101MA1999999096721MD1999999+0011MW1011REMSYN088AAXX  18124 82784 21597 70501 10263 20218 39672 40139 70196 84290 333 20210 58001 60304;
0167827840999992002031818004-07310-039300FM-12+040999999V0203601N002111050019N0200001N1+02901+02221100881ADDAA199000091GF106991041081008001001021MA1999999096241MD1999999-0021REMSYN070AAXX  18184 82784 32598 63604 10290 20222 39624 40088 84802 333 59002;EQDQ01  00002PRCP99
0201827840999992002031912004-07310-039300FM-12+040999999V0200501N001010120019N0040001N1+02501+02251101311ADDAA124014091AY161061AY221061GF107991071081008001001001KA1240N+02221MA1999999096641MD1999999-0081MW1021REMSYN088AAXX  19124 82784 21596 70502 10250 20225 39664 40131 70262 87800 333 20222 59008 60144;
0195827840999992002031918004-07310-039300FM-12+040999999V0200501N001510150019N0200001N1+02861+02231100811ADDAA199000091AY121061AY221061GF107991051081012501071051MA1999999096171MD1999999-0071MW1151REMSYN076AAXX  19184 82784 31698 70503 10286 20223 39617 40081 71522 85875 333 59007;EQDQ01  00002PRCP99
0213827840999992002032000004-07310-039300FM-12+040999999V0201801N001012200019N0020001N1+02461+02391101171ADDAA106004191AY161061AY211061GF102991021011008001001001KA1240M+02991MA1999999096471MD1999999-0141MW1131REMSYN100AAXX  20004 82784 21595 21802 10246 20239 39647 40117 71361 82100 333 10299 29087 55054 59014 60041;
0201827840999992002032012004-07310-039300FM-12+040999999V0203201N001010075019N0040001N1+02351+02221101461ADDAA124040991AY191061AY261061GF108991081061008001999999KA1240N+02121MA1999999096781MD1999999+0141MW1021REMSYN088AAXX  20124 82784 21596 83202 10235 20222 39678 40146 70296 886// 333 20212 58014 60414;
0167827840999992002032018004-07310-039300FM-12+040999999V0200501N001511050019N0200001N1+02881+02251100991ADDAA199000091GF106991041081008001001021MA1999999096341MD1999999+0171REMSYN070AAXX  20184 82784 32598 60503 10288 20225 39634 40099 84802 333 58017;EQDQ01  00002PRCP99
0208827840999992002032100004-07310-039300FM-12+040999999V0209999C000012200019N0020001N1+02371+02191101191ADDAA199000091GA1001+999999999GF100991001001999999001001KA1240M+03031MA1999999096521MD1999999+0051REMSYN082AAXX  21000 82784 32995 00000 10237 20219 39652 40119 333 10303 29086 55053 58005;EQDQ01  00002PRCP99
0201827840999992002032112004-07310-039300FM-12+040999999V0200501N001510120019N0040001N1+02551+02251101401ADDAA124000191AY151061AY211061GF107991071081008001001001KA1240N+02171MA1999999096731MD1999999-0051MW1021REMSYN088AAXX  21124 82784 21596 70503 10255 20225 39673 40140 70251 87800 333 20217 59005 69924;
0167827840999992002032118004-07310-039300FM-12+040999999V0203601N002110150019N0200001N1+02901+02221101031ADDAA199000091GF108991051081012501051051MA1999999096381MD1999999+0041REMSYN070AAXX  21184 82784 32698 83604 10290 20222 39638 40103 85855 333 58004;EQDQ01  00002PRCP99
0214827840999992002032200004-07310-039300FM-12+040999999V0209999C000012200019N0020001N1+02471+99999101221ADDAA199000091GF101991999011008001001001KA1240M+02971MA1999999096561MD1999999+0041REMSYN088AAXX  22004 82784 32595 10000 10247 20/// 39656 40122 82100 333 10297 29082 55057 58004;EQDQ01+000022SCOTLCQ02  00002PRCP99
0186827840999992002032212004-07310-039300FM-12+040999999V0200501N001512200019N0200001N1+02701+02081101361ADDAA199000091GF102991021021008001001001KA1240N+02171MA1999999096701MD1999999-0031REMSYN076AAXX  22124 82784 32598 20503 10270 20208 39670 40136 82200 333 20217 59003;EQDQ01  00002PRCP99
0167827840999992002032218004-07310-039300FM-12+040999999V0200501N002112200019N0200001N1+02971+02101101011ADDAA199000091GF102991011021008001001021MA1999999096371MD1999999-0011REMSYN070AAXX  22184 82784 32598 20504 10297 20210 39637 40101 81202 333 59001;EQDQ01  00002PRCP99
0198827840999992002032300004-07310-039300FM-12+040999999V0201801N000512200019N0020001N1+02311+01961101331ADDAA199000091GF102991011061008001011001KA1240M+03041MA1999999096661MD1999999+0131REMSYN088AAXX  23004 82784 32595 21801 10231 20196 39666 40133 81610 333 10304 29073 55106 58013;EQDQ01  00002PRCP99
0202827840999992002032312004-07310-039300FM-12+040999999V0203601N001519999999N0200001N1+02681+02221101491ADDAA199000091GF106991999021008001001001KA1240N+02151MA1999999096821MD1999999+0121REMSYN076AAXX  23124 82784 32598 63603 10268 20222 39682 40149 84200 333 20215 58012;EQDQ01+000042SCOTLCQ02  00002PRCP99
0182827840999992002032318004-07310-039300FM-12+040999999V0202301N000510120019N0200001N1+02451+02281101171ADDAA106002091AY191061AY221061GF108991081081008001999999MA1999999096491MD1999999+0121MW1211REMSYN082AAXX  23184 82784 21598 82301 10245 20228 39649 40117 72192 888// 333 58012 60021;
0213827840999992002032400004-07310-039300FM-12+040999999V0200901N005110450019N0002001N1+02141+02021101611ADDAA106007991AY191061AY221061GF108991021071004501021999KA1240M+02921MA1999999096921MD1999999+0261MW1971REMSYN100AAXX  24004 82784 21492 80910 10214 20202 39692 40161 79792 8272/ 333 10292 29080 55038 58026 60081;
0201827840999992002032412004-07310-039300FM-12+040999999V0203601N002112200019N0200001N1+02601+02191101541ADDAA124022191AY191061AY261061GF103991031081008001001001KA1240N+02021MA1999999096851MD1999999+0031MW1011REMSYN088AAXX  24124 82784 21598 33604 10260 20219 39685 40154 70196 83800 333 20202 58003 60224;
0167827840999992002032418004-07310-039300FM-12+040999999V0202701N001510450019N0200001N1+02661+02221101111ADDAA199000091GF107991041081012501031051MA1999999096441MD1999999-0051REMSYN070AAXX  24184 82784 32698 72703 10266 20222 39644 40111 84835 333 59005;EQDQ01  00002PRCP99
0198827840999992002032500004-07310-039300FM-12+040999999V0201401N001010075019N0020001N1+02311+02221101301ADDAA199000091GF108991081051008001999999KA1240M+03021MA1999999096631MD1999999-0291REMSYN088AAXX  25004 82784 32595 81402 10231 20222 39663 40130 885// 333 10302 29086 55072 59029;EQDQ01  00002PRCP99
0201827840999992002032512004-07310-039300FM-12+040999999V0201801N001012200019N0200001N1+02551+02151101411ADDAA124007991AY161061AY211061GF102991011021008001031001KA1240N+02101MA1999999096741MD1999999-0111MW1011REMSYN088AAXX  25124 82784 21598 21802 10255 20215 39674 40141 70161 81230 333 20210 59011 60084;
0167827840999992002032518004-07310-039300FM-12+040999999V0202301N003110120019N0200001N1+02621+02251101011ADDAA199000091GF107991071081008001001001MA1999999096341MD1999999-0101REMSYN070AAXX  25184 82784 32598 72306 10262 20225 39634 40101 87800 333 59010;EQDQ01  00002PRCP99
0214827840999992002032600004-07310-039300FM-12+040999999V0201801N001512200019N0020001N1+02341+02171101291ADDAA199000091GF101991999021017501001001KA1240M+03001MA1999999096621MD1999999-0011REMSYN088AAXX  26004 82784 32795 11803 10234 20217 39662 40129 84200 333 10300 29085 55064 59001;EQDQ01+000042SCOTLCQ02  00002PRCP99
0186827840999992002032612004-07310-039300FM-12+040999999V0200501N001010075019N0200001N1+02721+02241101351ADDAA199000091GF105991051021008001001001KA1240N+02151MA1999999096691MD1999999-0051REMSYN076AAXX  26124 82784 32598 50502 10272 20224 39669 40135 85200 333 20215 59005;EQDQ01  00002PRCP99
0167827840999992002032618004-07310-039300FM-12+040999999V0200901N002612200019N0200001N1+03081+02041100911ADDAA199000091GF102991021021008001001001MA1999999096271MD1999999-0071REMSYN070AAXX  26184 82784 32598 20905 10308 20204 39627 40091 82200 333 59007;EQDQ01  00002PRCP99
0201827840999992002032712004-07310-039300FM-12+040999999V0200501N001512200019N0200001N1+02671+02091101431ADDAA124008991AY161061AY201061GF102991011021008001001021KA1240N+02281MA1999999096761MD1999999+0071MW1011REMSYN088AAXX  27124 82784 21598 20503 10267 20209 39676 40143 70160 81202 333 20228 58007 60094;
0167827840999992002032718004-07310-039300FM-12+040999999V0200901N003112200019N0200001N1+03061+01921101041ADDAA199000091GF104991021021008001001011MA1999999096401MD1999999+0131REMSYN070AAXX  27184 82784 32598 40906 10306 20192 39640 40104 82201 333 58013;EQDQ01  00002PRCP99
0208827840999992002032800004-07310-039300FM-12+040999999V0202301N000512200019N0020001N1+02301+02031101351ADDAA199000091GA1001+999999999GF100991001001999999001001KA1240M+03081MA1999999096681MD1999999+0131REMSYN082AAXX  28004 82784 32995 02301 10230 20203 39668 40135 333 10308 29073 55096 58013;EQDQ01  00002PRCP99
0186827840999992002032812004-07310-039300FM-12+040999999V0201401N004110450019N0200001N1+02571+02021101461ADDAA199000091GF107991021011008001071001KA1240N+02011MA1999999096781MD1999999+0021REMSYN076AAXX  28124 82784 32598 71408 10257 20202 39678 40146 82170 333 20201 58002;EQDQ01  00002PRCP99
0167827840999992002032818004-07310-039300FM-12+040999999V0201401N002110450019N0200001N1+02951+02141101151ADDAA199000091GF106991021021008001071001MA1999999096401MD1999999+0001REMSYN070AAXX  28184 82784 32598 61404 10295 20214 39640 40115 82270 333 58000;EQDQ01  00002PRCP99
0198827840999992002032900004-07310-039300FM-12+040999999V0201401N002110450019N0020001N1+02601+02011101221ADDAA199000091GF108991021081008001021001KA1240M+03071MA1999999096571MD1999999-0111REMSYN088AAXX  29004 82784 32595 81404 10260 20201 39657 40122 82820 333 10307 29068 55085 59011;EQDQ01  00002PRCP99
0186827840999992002032912004-07310-039300FM-12+040999999V0200901N003112200019N0200001N1+02761+02041101321ADDAA199000091GF103991011011008001031021KA1240N+02301MA1999999096671MD1999999-0111REMSYN076AAXX  29124 82784 32598 30906 10276 20204 39667 40132 81132 333 20230 59011;EQDQ01  00002PRCP99
0167827840999992002032918004-07310-039300FM-12+040999999V0201401N002110450019N0200001N1+02791+01961101051ADDAA199000091GF108991041081012501031021MA1999999096401MD1999999+0001REMSYN070AAXX  29184 82784 32698 81404 10279 20196 39640 40105 84832 333 58000;EQDQ01  00002PRCP99
0208827840999992002033000004-07310-039300FM-12+040999999V0209999C000012200019N0020001N1+02241+02071101231ADDAA199000091GA1001+999999999GF100991001001999999001001KA1240M+02971MA1999999096571MD1999999+0001REMSYN082AAXX  30004 82784 32995 00000 10224 20207 39657 40123 333 10297 29076 55073 58000;EQDQ01  00002PRCP99
0186827840999992002033012004-07310-039300FM-12+040999999V0200901N002612200019N0200001N1+02791+02041101371ADDAA199000091GF102991011011008001001011KA1240N+02061MA1999999096701MD1999999+0031REMSYN076AAXX  30124 82784 32598 20905 10279 20204 39670 40137 81101 333 20206 58003;EQDQ01  00002PRCP99
0167827840999992002033018004-07310-039300FM-12+040999999V0200901N002612200019N0200001N1+03051+02001100981ADDAA199000091GF102991011021008001001011MA1999999096341MD1999999-0061REMSYN070AAXX  30184 82784 32598 20905 10305 20200 39634 40098 81201 333 59006;EQDQ01  00002PRCP99
0208827840999992002033100004-07310-039300FM-12+040999999V0209999C000012200019N0020001N1+02301+02051101281ADDAA199000091GA1001+999999999GF100991001001999999001001KA1240M+03091MA1999999096621MD1999999+0071REMSYN082AAXX  31004 82784 32995 00000 10230 20205 39662 40128 333 10309 29072 55107 58007;EQDQ01  00002PRCP99
0236827840999992002033112004-07310-039300FM-12+040999999V0200901N002119999999N0200001N1+02601+02121101521ADDAA124001091AY151061AY211061GF108991999011008001001001KA1240N+99999MA1999999096841MD1999999+0141MW1021REMSYN088AAXX  31124 82784 21598 80904 10260 20212 39684 40152 70251 82100 333 20266 58014 60014;EQDQ01+000022SCOTLCQ02 +02662ATMN  
0183827840999992002033118004-07310-039300FM-12+040999999V0200501N004619999999N0200001N1+02861+02091101101ADDAA199000091GF108991999011012501001001MA1999999096451MD1999999+0111REMSYN070AAXX  31184 82784 32698 80509 10286 20209 39645 40110 82100 333 58011;EQDQ01+000022SCOTLCQ02  00002PRCP99
0213827840999992002040100004-07310-039300FM-12+040999999V0201401N004610042019N0005001N1+02241+02071101431ADDAA106002091AY121061AY221061GF108991081051004501999999KA1240M+03041MA1999999096741MD1999999+0121MW1631REMSYN100AAXX  01004 82784 21493 81409 10224 20207 39674 40143 76322 885// 333 10304 29080 55058 58012 60021;
0173827840999992002040112004-07310-039300FM-12+040999999V0200901N002112200019N0200001N1+02781+02161101411ADDAA124002091GF103991031021008001001001KA1240N+02131MA1999999096741MD1999999-0101REMSYN082AAXX  01124 82784 22598 30904 10278 20216 39674 40141 83200 333 20213 59010 60024;
0167827840999992002040118004-07310-039300FM-12+040999999V0200901N001512200019N0200001N1+03091+02161101001ADDAA199000091GF103991021081008001041001MA1999999096361MD1999999-0091REMSYN070AAXX  01184 82784 32598 30903 10309 20216 39636 40100 82840 333 59009;EQDQ01  00002PRCP99
0201827840999992002040212004-07310-039300FM-12+040999999V0201401N003610120019N0200001N1+02551+02061101421ADDAA124000391AY151061AY221061GF108991081081008001999999KA1240N+02281MA1999999096751MD1999999+0011MW1021REMSYN088AAXX  02124 82784 21598 81407 10255 20206 39675 40142 70252 888// 333 20228 58001 69934;
0195827840999992002040218004-07310-039300FM-12+040999999V0200901N002610150019N0100001N1+02901+02251101061ADDAA199000091AY121061AY221061GF108991081081012501999999MA1999999096421MD1999999+0061MW1151REMSYN076AAXX  02184 82784 31697 80905 10290 20225 39642 40106 71522 888// 333 58006;EQDQ01  00002PRCP99
0198827840999992002040300004-07310-039300FM-12+040999999V0209999C000010120019N0020001N1+02411+02171101391ADDAA199000091GF107991071081008001001001KA1240M+03041MA1999999096721MD1999999+0071REMSYN088AAXX  03004 82784 32595 70000 10241 20217 39672 40139 87800 333 10304 29079 55028 58007;EQDQ01  00002PRCP99
0186827840999992002040312004-07310-039300FM-12+040999999V0201401N002110075019N0200001N1+02751+02021101481ADDAA199000091GF106991051021008001001011KA1240N+02241MA1999999096811MD1999999+0061REMSYN076AAXX  03124 82784 32598 61404 10275 20202 39681 40148 85201 333 20224 58006;EQDQ01  00002PRCP99
0167827840999992002040318004-07310-039300FM-12+040999999V0201401N001510150019N0200001N1+02941+02111101131ADDAA199000091GF108991051081012501031999MA1999999096491MD1999999+0071REMSYN070AAXX  03184 82784 32698 81403 10294 20211 39649 40113 8583/ 333 58007;EQDQ01  00002PRCP99
0198827840999992002040400004-07310-039300FM-12+040999999V0202301N000510120019N0020001N1+02461+02411101401ADDAA199000091GF108991081081008001999999KA1240M+03031MA1999999096741MD1999999+0021REMSYN088AAXX  04004 82784 32595 82301 10246 20241 39674 40140 888// 333 10303 29080 55080 58002;EQDQ01  00002PRCP99
0201827840999992002040412004-07310-039300FM-12+040999999V0200901N003610075019N0200001N1+02661+02041101511ADDAA124000191AY151061AY221061GF107991051021008001011001KA1240N+02271MA1999999096841MD1999999+0031MW1021REMSYN088AAXX  04124 82784 21598 70907 10266 20204 39684 40151 70252 85210 333 20227 58003 69914;
0167827840999992002040418004-07310-039300FM-12+040999999V0200901N002110075019N0200001N1+02961+02151101001ADDAA199000091GF108991051021008001021999MA1999999096361MD1999999-0131REMSYN070AAXX  04184 82784 32598 80904 10296 20215 39636 40100 8522/ 333 59013;EQDQ01  00002PRCP99
0186827840999992002040512004-07310-039300FM-12+040999999V0201401N002110450019N0200001N1+02701+02011101311ADDAA199000091GF107991011011008001031001KA1240N+02141MA1999999096651MD1999999-0191REMSYN076AAXX  05124 82784 32598 71404 10270 20201 39665 40131 81130 333 20214 59019;EQDQ01  00002PRCP99
0167827840999992002040518004-07310-039300FM-12+040999999V0201401N002110450019N0200001N1+03001+02141100851ADDAA199000091GF106991011021008001031001MA1999999096221MD1999999-0141REMSYN070AAXX  05184 82784 32598 61404 10300 20214 39622 40085 81230 333 59014;EQDQ01  00002PRCP99
0208827840999992002040600004-07310-039300FM-12+040999999V0202301N001012200019N0020001N1+02321+02001101161ADDAA199000091GA1001+999999999GF100991001001999999001001KA1240M+03071MA1999999096501MD1999999-0121REMSYN082AAXX  06004 82784 32995 02302 10232 20200 39650 40116 333 10307 29073 55071 59012;EQDQ01  00002PRCP99
0201827840999992002040612004-07310-039300FM-12+040999999V0201401N003110450019N0200001N1+02661+02041101191ADDAA124000391AY151061AY211061GF106991041021008001031001KA1240N+02191MA1999999096531MD1999999-0121MW1021REMSYN088AAXX  06124 82784 21598 61406 10266 20204 39653 40119 70251 84230 333 20219 59012 69934;
0167827840999992002040618004-07310-039300FM-12+040999999V0200901N001510450019N0200001N1+03091+02191100751ADDAA199000091GF106991041021008001041021MA1999999096131MD1999999-0091REMSYN070AAXX  06184 82784 32598 60903 10309 20219 39613 40075 84242 333 59009;EQDQ01  00002PRCP99
0198827840999992002040700004-07310-039300FM-12+040999999V0201401N001510120019N0020001N1+02481+02101101171ADDAA199000091GF107991071081008001001001KA1240M+03131MA1999999096521MD1999999+0021REMSYN088AAXX  07004 82784 32595 71403 10248 20210 39652 40117 87800 333 10313 29053 55074 58002;EQDQ01  00002PRCP99
0220827840999992002040712004-07310-039300FM-12+040999999V0203201N001019999999N0040001N1+02381+02241101431ADDAA124035191AY191061AY261061GF108991999021008001001001KA1240N+02141MA1999999096751MD1999999+0221MW1021REMSYN088AAXX  07124 82784 21596 83202 10238 20224 39675 40143 70296 84200 333 20214 58022 60354;EQDQ01+000042SCOTLC
0201827840999992002040718004-07310-039300FM-12+040999999V0203201N001519999999N0200001N1+02941+02361100821ADDAA106000391AY151061AY221061GF107991999011012501001001MA1999999096211MD1999999+0091MW1011REMSYN082AAXX  07184 82784 21698 73203 10294 20236 39621 40082 70152 82100 333 58009 69931;EQDQ01+000022SCOTLC
0208827840999992002040800004-07310-039300FM-12+040999999V0201801N001012200019N0020001N1+02321+02281101161ADDAA199000091GA1001+999999999GF100991001001999999001001KA1240M+03041MA1999999096491MD1999999-0031REMSYN082AAXX  08004 82784 32995 01802 10232 20228 39649 40116 333 10304 29085 55033 59003;EQDQ01  00002PRCP99
0173827840999992002040812004-07310-039300FM-12+040999999V0200501N002610450019N0200001N1+02581+02171101301ADDAA124000391GF107991041021008001031001KA1240N+02181MA1999999096641MD1999999-0111REMSYN082AAXX  08124 82784 22598 70505 10258 20217 39664 40130 84230 333 20218 59011 69934;
0167827840999992002040818004-07310-039300FM-12+040999999V0200901N002112200019N0200001N1+03041+02181100881ADDAA199000091GF103991021021008001001021MA1999999096251MD1999999+0031REMSYN070AAXX  08184 82784 32598 30904 10304 20218 39625 40088 82202 333 58003;EQDQ01  00002PRCP99
0208827840999992002040900004-07310-039300FM-12+040999999V0209999C000012200019N0020001N1+02401+02211101151ADDAA199000091GA1001+999999999GF100991001001999999001001KA1240M+03121MA1999999096491MD1999999+0001REMSYN082AAXX  09004 82784 32995 00000 10240 20221 39649 40115 333 10312 29079 55090 58000;EQDQ01  00002PRCP99
0186827840999992002040912004-07310-039300FM-12+040999999V0202301N000510120019N0100001N1+02561+02271101341ADDAA199000091GF107991071081008001001001KA1240N+02221MA1999999096671MD1999999+0031REMSYN076AAXX  09124 82784 32597 72301 10256 20227 39667 40134 87800 333 20222 58003;EQDQ01  00002PRCP99
0195827840999992002040918004-07310-039300FM-12+040999999V0200501N006012200019N0010001N1+03001+02321100781ADDAA199000091AY111061AY211061GF104991041081008001001001MA1999999096151MD1999999-0101MW1161REMSYN076AAXX  09181 82784 31594 40506 10300 20232 39615 40078 71611 84800 333 59010;EQDQ01  00002PRCP99
0208827840999992002041000004-07310-039300FM-12+040999999V0209999C000012200019N0020001N1+02331+02201101071ADDAA199000091GA1001+999999999GF100991001001999999001001KA1240M+03111MA1999999096411MD1999999-0081REMSYN082AAXX  10004 82784 32995 00000 10233 20220 39641 40107 333 10311 29084 55063 59008;EQDQ01  00002PRCP99
0201827840999992002041012004-07310-039300FM-12+040999999V0200901N001010120019N0200001N1+02581+02191101291ADDAA124000891AY151061AY211061GF107991071081008001001001KA1240N+02261MA1999999096621MD1999999-0051MW1031REMSYN088AAXX  10124 82784 21598 70902 10258 20219 39662 40129 70351 87800 333 20226 59005 69984;
0167827840999992002041018004-07310-039300FM-12+040999999V0203601N001510450019N0200001N1+02991+02121100811ADDAA199000091GF106991021011008001011011MA1999999096181MD1999999+0031REMSYN070AAXX  10184 82784 32598 63603 10299 20212 39618 40081 82111 333 58003;EQDQ01  00002PRCP99
0226827840999992002041100004-07310-039300FM-12+040999999V0203601N000510075019N0020001N1+02501+02171101361ADDAA199000091AY121061AY221061GF108991081071008001999999KA1240M+03071MA1999999096701MD1999999+0291MW1131REMSYN094AAXX  11004 82784 31595 83601 10250 20217 39670 40136 71322 887// 333 10307 29076 55072 58029;EQDQ01  00002PRCP99
0201827840999992002041112004-07310-039300FM-12+040999999V0200501N001510120019N0200001N1+02521+02251101401ADDAA124015091AY191061AY261061GF108991081081008001999999KA1240N+02101MA1999999096731MD1999999+0111MW1021REMSYN088AAXX  11124 82784 21598 80503 10252 20225 39673 40140 70296 888// 333 20210 58011 60154;
0167827840999992002041118004-07310-039300FM-12+040999999V0203601N002110450019N0200001N1+02841+02241100941ADDAA199000091GF108991031021008001021999MA1999999096291MD1999999+0111REMSYN070AAXX  11184 82784 32598 83604 10284 20224 39629 40094 8322/ 333 58011;EQDQ01  00002PRCP99
0208827840999992002041200004-07310-039300FM-12+040999999V0201801N000512200019N0020001N1+02401+02281101251ADDAA199000091GA1001+999999999GF100991001001999999001001KA1240M+03011MA1999999096581MD1999999-0121REMSYN082AAXX  12004 82784 32995 01801 10240 20228 39658 40125 333 10301 29085 55054 59012;EQDQ01  00002PRCP99
0201827840999992002041212004-07310-039300FM-12+040999999V0203601N001010075019N0040001N1+02261+02191101531ADDAA124032091AY191061AY261061GF108991081071008001999999KA1240N+02121MA1999999096841MD1999999+0111MW1201REMSYN088AAXX  12124 82784 21596 83602 10226 20219 39684 40153 72096 887// 333 20212 58011 60324;
0148827840999992002041218004-07310-039300FM-12+040999999V0203201N001510150019N0200001N1+02681+02111101151ADDAA199000021GF108991061081012501001051MA1999999096481MD1999999+0191REMSYN070AAXX  12184 82784 32698 83203 10268 20211 39648 40115 86805 333 58019;
0189827840999992002041300004-07310-039300FM-12+040999999V0203201N000512200019N0020001N1+02281+02141101481ADDAA199000021GA1001+999999999GF100991001001999999001001KA1240M+02751MA1999999096781MD1999999+0201REMSYN082AAXX  13004 82784 32995 03201 10228 20214 39678 40148 333 10275 29088 55002 58020;
0186827840999992002041312004-07310-039300FM-12+040999999V0203601N001510075019N0100001N1+02431+02111101521ADDAA199000091GF108991081051008001999999KA1240N+02001MA1999999096831MD1999999-0011REMSYN076AAXX  13124 82784 32597 83603 10243 20211 39683 40152 885// 333 20200 59001;EQDQ01  00002PRCP99
0183827840999992002041318004-07310-039300FM-12+040999999V0203201N001019999999N0200001N1+02871+02211101101ADDAA199000091GF107991999011008001001001MA1999999096441MD1999999-0041REMSYN070AAXX  13184 82784 32598 73202 10287 20221 39644 40110 82100 333 59004;EQDQ01+000022SCOTLCQ02  00002PRCP99
0214827840999992002041400004-07310-039300FM-12+040999999V0203201N001019999999N0020001N1+02341+02231101391ADDAA199000091GF108991999011017501001001KA1240M+02911MA1999999096711MD1999999-0071REMSYN088AAXX  14004 82784 32795 83202 10234 20223 39671 40139 82100 333 10291 29085 55019 59007;EQDQ01+000022SCOTLCQ02  00002PRCP99
0186827840999992002041412004-07310-039300FM-12+040999999V0201401N001010120019N0200001N1+02421+02131101551ADDAA199000091GF108991061081008001021999KA1240N+02181MA1999999096861MD1999999+0031REMSYN076AAXX  14124 82784 32598 81402 10242 20213 39686 40155 8682/ 333 20218 58003;EQDQ01  00002PRCP99
0167827840999992002041418004-07310-039300FM-12+040999999V0200901N001510450019N0200001N1+02961+02181101001ADDAA199000091GF108991041081012501071051MA1999999096361MD1999999-0081REMSYN070AAXX  14184 82784 32698 80903 10296 20218 39636 40100 84875 333 59008;EQDQ01  00002PRCP99
0217827840999992002041512004-07310-039300FM-12+040999999V02099999999990003019N0005001N1+01951+01911101431ADDAA124022191AY161061AY251061GA1091+999999999GF109991091999999999999999KA1240N+01811MA1999999091821MD1999999-0061MW1431REMSYN088AAXX  15124 82784 21393 909// 10195 20191 39182 40143 74365 89/// 333 20181 59006 60224;
0183827840999992002041518004-07310-039300FM-12+040999999V0201401N001010450019N0200001N1+02901+02101101041ADDAA199000091GF106991041021008001061001MA1999999096392MD1999999+0031REMSYN070AAXX  15184 82784 32598 61402 10290 20210 39639 40104 84260 333 58003;EQDQ01+096393APOSP Q02  00002PRCP99
0186827840999992002041612004-07310-039300FM-12+040999999V0201401N003112200019N0200001N1+02741+02001101421ADDAA199000091GF102991021021008001001001KA1240N+02161MA1999999096751MD1999999-0041REMSYN076AAXX  16124 82784 32598 21406 10274 20200 39675 40142 82200 333 20216 59004;EQDQ01  00002PRCP99
0167827840999992002041618004-07310-039300FM-12+040999999V0200901N002612200019N0200001N1+03041+01641101071ADDAA199000091GF101991011021012501001001MA1999999096431MD1999999+0041REMSYN070AAXX  16184 82784 32698 10905 10304 20164 39643 40107 81200 333 58004;EQDQ01  00002PRCP99
0208827840999992002041700004-07310-039300FM-12+040999999V0201801N000512200019N0020001N1+02261+01861101381ADDAA199000091GA1001+999999999GF100991001001999999001001KA1240M+03111MA1999999096711MD1999999+0161REMSYN082AAXX  17004 82784 32995 01801 10226 20186 39671 40138 333 10311 29066 55110 58016;EQDQ01  00002PRCP99
0208827840999992002041800004-07310-039300FM-12+040999999V0209999C000012200019N0020001N1+02181+01951101391ADDAA199000091GA1001+999999999GF100991001001999999001001KA1240M+03131MA1999999096721MD1999999+0011REMSYN082AAXX  18004 82784 32995 00000 10218 20195 39672 40139 333 10313 29071 55108 58001;EQDQ01  00002PRCP99
0186827840999992002041812004-07310-039300FM-12+040999999V0200901N001012200019N0200001N1+02741+02051101501ADDAA199000091GF104991021021008001001011KA1240N+01921MA1999999096821MD1999999-0091REMSYN076AAXX  18124 82784 32598 40902 10274 20205 39682 40150 82201 333 20192 59009;EQDQ01  00002PRCP99
0167827840999992002041818004-07310-039300FM-12+040999999V0200901N002112200019N0200001N1+03021+01921101051ADDAA199000091GF103991021021012501001011MA1999999096401MD1999999-0101REMSYN070AAXX  18184 82784 32698 30904 10302 20192 39640 40105 82201 333 59010;EQDQ01  00002PRCP99
0186827840999992002041912004-07310-039300FM-12+040999999V0200901N003112200019N0200001N1+02731+01881101341ADDAA199000091GF101991011011008001001001KA1240N+01991MA1999999096671MD1999999-0151REMSYN076AAXX  19124 82784 32598 10906 10273 20188 39667 40134 81100 333 20199 59015;EQDQ01  00002PRCP99
0167827840999992002041918004-07310-039300FM-12+040999999V0201401N002112200019N0200001N1+03101+01971100921ADDAA199000091GF102991021021008001001001MA1999999096281MD1999999-0121REMSYN070AAXX  19184 82784 32598 21404 10310 20197 39628 40092 82200 333 59012;EQDQ01  00002PRCP99
0198827840999992002042000004-07310-039300FM-12+040999999V0200901N001510075019N0020001N1+02361+01991101131ADDAA199000091GF108991081021008001001001KA1240M+03181MA1999999096481MD1999999-0131REMSYN088AAXX  20004 82784 32595 80903 10236 20199 39648 40113 88200 333 10318 29068 55104 59013;EQDQ01  00002PRCP99
0186827840999992002042012004-07310-039300FM-12+040999999V0201401N002110450019N0200001N1+02661+01871101341ADDAA199000091GF106991011011008001061011KA1240N+02201MA1999999096671MD1999999+0001REMSYN076AAXX  20124 82784 32598 61404 10266 20187 39667 40134 81161 333 20220 58000;EQDQ01  00002PRCP99
0167827840999992002042018004-07310-039300FM-12+040999999V0201401N002112200019N0200001N1+02981+01831100921ADDAA199000091GF103991011021008001031011MA1999999096281MD1999999+0001REMSYN070AAXX  20184 82784 32598 31404 10298 20183 39628 40092 81231 333 58000;EQDQ01  00002PRCP99
0198827840999992002042100004-07310-039300FM-12+040999999V0201801N001010075019N0020001N1+02441+02131101211ADDAA199000091GF107991071051008001001001KA1240M+03071MA1999999096551MD1999999+0071REMSYN088AAXX  21004 82784 32595 71802 10244 20213 39655 40121 87500 333 10307 29070 55101 58007;EQDQ01  00002PRCP99
0186827840999992002042112004-07310-039300FM-12+040999999V0200901N003110075019N0200001N1+02581+01991101431ADDAA199000091GF108991081051008001999999KA1240N+02061MA1999999096761MD1999999+0091REMSYN076AAXX  21124 82784 32598 80906 10258 20199 39676 40143 885// 333 20206 58009;EQDQ01  00002PRCP99
0183827840999992002042118004-07310-039300FM-12+040999999V0201401N002612200019N0200001N1+02961+01931101011ADDAA199000091GF102991999021012501001001MA1999999096361MD1999999+0021REMSYN070AAXX  21184 82784 32698 21405 10296 20193 39636 40101 83200 333 58002;EQDQ01+000032SCOTLCQ02  00002PRCP99
0214827840999992002042200004-07310-039300FM-12+040999999V0209999C000012200019N0020001N1+02221+01921101241ADDAA199000091GF101991999011008001001001KA1240M+03091MA1999999096571MD1999999+0021REMSYN088AAXX  22004 82784 32595 10000 10222 20192 39657 40124 82100 333 10309 29072 55075 58002;EQDQ01+000022SCOTLCQ02  00002PRCP99
0186827840999992002042212004-07310-039300FM-12+040999999V0201401N002612200019N0200001N1+02631+01961101311ADDAA199000091GF106991011011008001001041KA1240N+01941MA1999999096641MD1999999-0121REMSYN076AAXX  22124 82784 32598 61405 10263 20196 39664 40131 81104 333 20194 59012;EQDQ01  00002PRCP99
0167827840999992002042218004-07310-039300FM-12+040999999V0200901N003112200019N0200001N1+02981+02041100951ADDAA199000091GF104991011021008001001021MA1999999096301MD1999999-0061REMSYN070AAXX  22184 82784 32598 40906 10298 20204 39630 40095 81202 333 59006;EQDQ01  00002PRCP99
0198827840999992002042300004-07310-039300FM-12+040999999V0200901N002110120019N0020001N1+02541+01901101171ADDAA199000091GF108991081081008001999999KA1240M+03051MA1999999096521MD1999999-0051REMSYN088AAXX  23004 82784 32595 80904 10254 20190 39652 40117 888// 333 10305 29067 55105 59005;EQDQ01  00002PRCP99
0186827840999992002042312004-07310-039300FM-12+040999999V0201401N003110075019N0200001N1+02561+01901101271ADDAA199000091GF106991051021008001001011KA1240N+02261MA1999999096611MD1999999-0031REMSYN076AAXX  23124 82784 32598 61406 10256 20190 39661 40127 85201 333 20226 59003;EQDQ01  00002PRCP99
0167827840999992002042318004-07310-039300FM-12+040999999V0201401N001511050019N0200001N1+02981+01921100821ADDAA199000091GF106991041021008001001081MA1999999096191MD1999999-0111REMSYN070AAXX  23184 82784 32598 61403 10298 20192 39619 40082 84208 333 59011;EQDQ01  00002PRCP99
0214827840999992002042400004-07310-039300FM-12+040999999V0201401N002619999999N0020001N1+02551+01861101151ADDAA199000091GF108991999011008001001001KA1240M+03091MA1999999096501MD1999999-0021REMSYN088AAXX  24004 82784 32595 81405 10255 20186 39650 40115 82100 333 10309 29063 55100 59002;EQDQ01+000022SCOTLCQ02  00002PRCP99
0186827840999992002042412004-07310-039300FM-12+040999999V0201401N002110450019N0200001N1+02681+01991101261ADDAA199000091GF107991031021008001071041KA1240N+02301MA1999999096611MD1999999+0001REMSYN076AAXX  24124 82784 32598 71404 10268 20199 39661 40126 83274 333 20230 58000;EQDQ01  00002PRCP99
0167827840999992002042418004-07310-039300FM-12+040999999V0200501N001510450019N0200001N1+02921+01891100831ADDAA199000091GF107991041021008001061011MA1999999096201MD1999999+0011REMSYN070AAXX  24184 82784 32598 70503 10292 20189 39620 40083 84261 333 58001;EQDQ01  00002PRCP99
0198827840999992002042500004-07310-039300FM-12+040999999V0202301N000512200019N0020001N1+02241+01861101181ADDAA199000091GF102991011011008001011001KA1240M+03081MA1999999096521MD1999999+0021REMSYN088AAXX  25004 82784 32595 22301 10224 20186 39652 40118 81110 333 10308 29070 55079 58002;EQDQ01  00002PRCP99
0186827840999992002042512004-07310-039300FM-12+040999999V0200901N002110450019N0200001N1+02821+02021101381ADDAA199000091GF108991011011008001041071KA1240N+02031MA1999999096721MD1999999+0111REMSYN076AAXX  25124 82784 32598 80904 10282 20202 39672 40138 81147 333 20203 58011;EQDQ01  00002PRCP99
0167827840999992002042518004-07310-039300FM-12+040999999V0201401N002110450019N0200001N1+03051+01941100931ADDAA199000091GF108991011021008001061071MA1999999096301MD1999999+0101REMSYN070AAXX  25184 82784 32598 81404 10305 20194 39630 40093 81267 333 58010;EQDQ01  00002PRCP99
0198827840999992002042600004-07310-039300FM-12+040999999V0200901N000510450019N0020001N1+02321+02001101191ADDAA199000091GF106991031061012501011001KA1240M+03111MA1999999096541MD1999999+0021REMSYN088AAXX  26004 82784 32695 60901 10232 20200 39654 40119 83610 333 10311 29070 55076 58002;EQDQ01  00002PRCP99
0186827840999992002042612004-07310-039300FM-12+040999999V0200901N002110450019N0200001N1+02601+01961101581ADDAA199000091GF107991021021008001021001KA1240N+02211MA1999999096901MD1999999+0181REMSYN076AAXX  26124 82784 32598 70904 10260 20196 39690 40158 82220 333 20221 58018;EQDQ01  00002PRCP99
0167827840999992002042618004-07310-039300FM-12+040999999V0200901N002110450019N0200001N1+02921+01951101011ADDAA199000091GF108991031081012501021051MA1999999096381MD1999999+0081REMSYN070AAXX  26184 82784 32698 80904 10292 20195 39638 40101 83825 333 58008;EQDQ01  00002PRCP99
0198827840999992002042700004-07310-039300FM-12+040999999V0201401N001012200019N0020001N1+02241+02121101241ADDAA199000091GF102991021061008001001001KA1240M+03171MA1999999096571MD1999999+0031REMSYN088AAXX  27004 82784 32595 21402 10224 20212 39657 40124 82600 333 10317 29078 55046 58003;EQDQ01  00002PRCP99
0186827840999992002042712004-07310-039300FM-12+040999999V0200901N001512200019N0200001N1+02711+01741101411ADDAA199000091GF101991011011008001061001KA1240N+01931MA1999999096741MD1999999-0161REMSYN076AAXX  27124 82784 32598 10903 10271 20174 39674 40141 81160 333 20193 59016;EQDQ01  00002PRCP99
0167827840999992002042718004-07310-039300FM-12+040999999V0200901N002112200019N0200001N1+03071+01621101001ADDAA199000091GF102991011011008001061001MA1999999096361MD1999999-0021REMSYN070AAXX  27184 82784 32598 20904 10307 20162 39636 40100 81160 333 59002;EQDQ01  00002PRCP99
0208827840999992002042800004-07310-039300FM-12+040999999V0209999C000012200019N0020001N1+02201+01841101181ADDAA199000091GA1001+999999999GF100991001001999999001001KA1240M+03171MA1999999096521MD1999999-0051REMSYN082AAXX  28004 82784 32995 00000 10220 20184 39652 40118 333 10317 29065 55110 59005;EQDQ01  00002PRCP99
0186827840999992002042812004-07310-039300FM-12+040999999V0201401N001510120019N0200001N1+02721+02001101411ADDAA199000091GF107991071081008001001001KA1240N+01961MA1999999096741MD1999999+0001REMSYN076AAXX  28124 82784 32598 71403 10272 20200 39674 40141 87800 333 20196 58000;EQDQ01  00002PRCP99
0167827840999992002042818004-07310-039300FM-12+040999999V0200501N001510450019N0200001N1+02881+02101101051ADDAA199000091GF107991041081012501031001MA1999999096401MD1999999+0041REMSYN070AAXX  28184 82784 32698 70503 10288 20210 39640 40105 84830 333 58004;EQDQ01  00002PRCP99
0198827840999992002042900004-07310-039300FM-12+040999999V0202301N001010120019N0020001N1+02521+02231101261ADDAA199000091GF108991081081008001999999KA1240M+03031MA1999999096611MD1999999+0091REMSYN088AAXX  29004 82784 32595 82302 10252 20223 39661 40126 888// 333 10303 29074 55081 58009;EQDQ01  00002PRCP99
0186827840999992002042912004-07310-039300FM-12+040999999V0200501N002111050019N0200001N1+02761+01991101451ADDAA199000091GF105991011021008001041011KA1240N+02201MA1999999096791MD1999999+0051REMSYN076AAXX  29124 82784 32598 50504 10276 20199 39679 40145 81241 333 20220 58005;EQDQ01  00002PRCP99
0167827840999992002042918004-07310-039300FM-12+040999999V0200901N001512200019N0200001N1+03151+01941101021ADDAA199000091GF104991021021008001031021MA1999999096391MD1999999-0011REMSYN070AAXX  29184 82784 32598 40903 10315 20194 39639 40102 82232 333 59001;EQDQ01  00002PRCP99
0208827840999992002043000004-07310-039300FM-12+040999999V0201401N001012200019N0020001N1+02381+02071101331ADDAA199000091GA1001+999999999GF100991001001999999001001KA1240M+03231MA1999999096701MD1999999+0091REMSYN082AAXX  30004 82784 32995 01402 10238 20207 39670 40133 333 10323 29070 55104 58009;EQDQ01  00002PRCP99
0186827840999992002043012004-07310-039300FM-12+040999999V0201401N001510450019N0200001N1+02731+01981101631ADDAA199000091GF106991041021008001061001KA1240N+02181MA1999999096951MD1999999+0161REMSYN076AAXX  30124 82784 32598 61403 10273 20198 39695 40163 84260 333 20218 58016;EQDQ01  00002PRCP99
0167827840999992002043018004-07310-039300FM-12+040999999V0201801N001012200019N0200001N1+03161+01891101121ADDAA199000091GF102991021021012501001001MA1999999096451MD1999999+0091REMSYN070AAXX  30184 82784 32698 21802 10316 20189 39645 40112 82200 333 58009;EQDQ01  00002PRCP99
0198827840999992002050100004-07310-039300FM-12+040999999V0200901N001510075019N0020001N1+02371+02051101421ADDAA199000091GF108991081071008001999999KA1240M+03291MA1999999096751MD1999999+0051REMSYN088AAXX  01004 82784 32595 80903 10237 20205 39675 40142 887// 333 10329 29069 55086 58005;EQDQ01  00002PRCP99
0186827840999992002050112004-07310-039300FM-12+040999999V0200901N002110075019N0200001N1+02821+02051101571ADDAA199000091GF106991051021008001021001KA1240N+02261MA1999999096901MD1999999-0051REMSYN076AAXX  01124 82784 32598 60904 10282 20205 39690 40157 85220 333 20226 59005;EQDQ01  00002PRCP99
0166827840999992002050118004-07310-039300FM-12+040999999V0201401N002110075019N0200001N1+03181+02071100991ADDAA199000091GF106991061021008001001001MA1999999096351MD1999999-0131REMSYN069AAXX  01184 82784 3259861404 10318 20207 39635 40099 86200 333 59013;EQDQ01  00002PRCP99
0242827840999992002050200004-07310-039300FM-12+040999999V0200501N001019999999N0020001N1+02431+02151101291ADDAA199000091AY121061AY221061GF105991999081008001001001KA1240M+03251MA1999999096621MD1999999-0131MW1131REMSYN094AAXX  02004 82784 31595 50502 10243 20215 39662 40129 71322 86800 333 10325 29071 55102 59013;EQDQ01+000062SCOTLCQ02  00002PRCP99
0186827840999992002050212004-07310-039300FM-12+040999999V0200501N001510120019N0040001N1+02591+02211101411ADDAA199000091GF108991081081008001999999KA1240N+02281MA1999999096741MD1999999-0161REMSYN076AAXX  02124 82784 32596 80503 10259 20221 39674 40141 888// 333 20228 59016;EQDQ01  00002PRCP99
0167827840999992002050218004-07310-039300FM-12+040999999V0203601N001510450019N0200001N1+03101+02151100901ADDAA199000091GF105991041021008001011001MA1999999096271MD1999999-0081REMSYN070AAXX  02184 82784 32598 53603 10310 20215 39627 40090 84210 333 59008;EQDQ01  00002PRCP99
0198827840999992002050300004-07310-039300FM-12+040999999V0201801N000512200019N0020001N1+02321+02131101241ADDAA199000091GF104991041081008001001001KA1240M+03211MA1999999096571MD1999999-0051REMSYN088AAXX  03004 82784 32595 41801 10232 20213 39657 40124 84800 333 10321 29079 55064 59005;EQDQ01  00002PRCP99
0186827840999992002050312004-07310-039300FM-12+040999999V0203601N001512200019N0200001N1+02621+02141101351ADDAA199000091GF104991031021008001061001KA1240N+02151MA1999999096681MD1999999-0061REMSYN076AAXX  03124 82784 32598 43603 10262 20214 39668 40135 83260 333 20215 59006;EQDQ01  00002PRCP99
0167827840999992002050318004-07310-039300FM-12+040999999V0203601N001512200019N0200001N1+03091+02071100911ADDAA199000091GF103991021021008001041001MA1999999096281MD1999999+0011REMSYN070AAXX  03184 82784 32598 33603 10309 20207 39628 40091 82240 333 58001;EQDQ01  00002PRCP99
0208827840999992002050400004-07310-039300FM-12+040999999V0209999C000012200019N0020001N1+02321+02111101251ADDAA199000091GA1001+999999999GF100991001001999999001001KA1240M+03131MA1999999096581MD1999999+0011REMSYN082AAXX  04004 82784 32995 00000 10232 20211 39658 40125 333 10313 29076 55078 58001;EQDQ01  00002PRCP99
0186827840999992002050412004-07310-039300FM-12+040999999V0200501N000510075019N0200001N1+02671+02091101471ADDAA199000091GF105991051021008001001001KA1240N+01971MA1999999096801MD1999999+0121REMSYN076AAXX  04124 82784 32598 50501 10267 20209 39680 40147 85200 333 20197 58012;EQDQ01  00002PRCP99
0167827840999992002050418004-07310-039300FM-12+040999999V0203601N002112200019N0200001N1+03151+02041101001ADDAA199000091GF102991021021008001001001MA1999999096351MD1999999+0071REMSYN070AAXX  04184 82784 32598 23604 10315 20204 39635 40100 82200 333 58007;EQDQ01  00002PRCP99
0198827840999992002050500004-07310-039300FM-12+040999999V0201801N000512200019N0020001N1+02381+02131101401ADDAA199000091GF101991011021008001001001KA1240M+03211MA1999999096731MD1999999+0151REMSYN088AAXX  05004 82784 32595 11801 10238 20213 39673 40140 81200 333 10321 29074 55100 58015;EQDQ01  00002PRCP99
0186827840999992002050512004-07310-039300FM-12+040999999V0200901N001512200019N0200001N1+02751+01921101641ADDAA199000091GF101991011021008001001001KA1240N+02201MA1999999096961MD1999999+0161REMSYN076AAXX  05124 82784 32598 10903 10275 20192 39696 40164 81200 333 20220 58016;EQDQ01  00002PRCP99
0167827840999992002050518004-07310-039300FM-12+040999999V0200901N001512200019N0200001N1+03211+01551101111ADDAA199000091GF101991011021008001001001MA1999999096481MD1999999+0131REMSYN070AAXX  05184 82784 32598 10903 10321 20155 39648 40111 81200 333 58013;EQDQ01  00002PRCP99
0208827840999992002050600004-07310-039300FM-12+040999999V0201401N000512200019N0020001N1+02231+01991101461ADDAA199000091GA1001+999999999GF100991001001999999001001KA1240M+03281MA1999999096791MD1999999+0061REMSYN082AAXX  06004 82784 32995 01401 10223 20199 39679 40146 333 10328 29068 55099 58006;EQDQ01  00002PRCP99
0186827840999992002050612004-07310-039300FM-12+040999999V0201401N001510075019N0200001N1+02631+02031101691ADDAA199000091GF106991061021008001001001KA1240N+01871MA1999999097001MD1999999+0041REMSYN076AAXX  06124 82784 32598 61403 10263 20203 39700 40169 86200 333 20187 58004;EQDQ01  00002PRCP99
0167827840999992002050618004-07310-039300FM-12+040999999V0201401N001012200019N0200001N1+03101+01871101151ADDAA199000091GF104991021021008001041001MA1999999096491MD1999999+0011REMSYN070AAXX  06184 82784 32598 41402 10310 20187 39649 40115 82240 333 58001;EQDQ01  00002PRCP99
0213827840999992002050700004-07310-039300FM-12+040999999V0209999C000010075019N0005001N1+02271+02191101671ADDAA106020191AY161061AY211061GF108991081071008001999999KA1240M+03241MA1999999096981MD1999999+0121MW1631REMSYN100AAXX  07004 82784 21593 80000 10227 20219 39698 40167 76361 887// 333 10324 29078 55069 58012 60201;
0201827840999992002050712004-07310-039300FM-12+040999999V0200501N002610120019N0200001N1+02621+02141101521ADDAA124021191AY161061AY221061GF107991071081008001001001KA1240N+02121MA1999999096841MD1999999-0161MW1021REMSYN088AAXX  07124 82784 21598 70505 10262 20214 39684 40152 70262 87800 333 20212 59016 60214;
0167827840999992002050718004-07310-039300FM-12+040999999V0200901N001010120019N0200001N1+02911+01991101101ADDAA199000091GF107991071081008001001001MA1999999096451MD1999999-0041REMSYN070AAXX  07184 82784 32598 70902 10291 20199 39645 40110 87800 333 59004;EQDQ01  00002PRCP99
0198827840999992002050800004-07310-039300FM-12+040999999V0201801N000510150019N0020001N1+02401+02281101401ADDAA199000091GF108991999021017501011001KA1240M+02951MA1999999096731MD1999999-0251REMSYN088AAXX  08004 82784 32795 81801 10240 20228 39673 40140 88210 333 10295 29080 55043 59025;EQDQ01  00002PRCP99
0186827840999992002050812004-07310-039300FM-12+040999999V0201401N001512200019N0200001N1+02711+01721101591ADDAA199000091GF101991011011008001001011KA1240N+02101MA1999999096921MD1999999+0081REMSYN076AAXX  08124 82784 32598 11403 10271 20172 39692 40159 81101 333 20210 58008;EQDQ01  00002PRCP99
