0162827980999992002010712004-07100-034860FM-15+0007SBJP V0201501N004110054019N0112651N1+02501+02501999999ADDGA1071+005409999GA2071+030009999GF107991999999999999999999MA1101191999999MW1001REMMET052SBJP 071200Z 15008KT 9999 BKN018 BKN100 25/25 Q1012;EQDQ01+000000PRSWM2
0139827980999992002020708004-07100-034860FM-15+0007SBJP V0201701N002112200019N0112651N1+02301+02301999999ADDGA1021+006009999GF104991999999999999999999MA1101291999999MW1001REMMET045SBJP 070800Z 17004KT 9999 SCT020 23/23 Q1013;EQDQ01+000000PRSWM2
0139827980999992002020709004-07100-034860FM-15+0007SBJP V0202001N002112200019N0112651N1+02301+02301999999ADDGA1021+006009999GF104991999999999999999999MA1101291999999MW1001REMMET045SBJP 070900Z 20004KT 9999 SCT020 23/23 Q1013;EQDQ01+000000PRSWM2
0139827980999992002020710004-07100-034860FM-15+0007SBJP V0202001N002112200019N0112651N1+02501+02301999999ADDGA1021+006009999GF104991999999999999999999MA1101391999999MW1001REMMET045SBJP 071000Z 20004KT 9999 SCT020 25/23 Q1014;EQDQ01+000000PRSWM2
0139827980999992002020711004-07100-034860FM-15+0007SBJP V0201601N004112200019N0112651N1+02701+02301999999ADDGA1021+006009999GF104991999999999999999999MA1101391999999MW1001REMMET045SBJP 071100Z 16008KT 9999 SCT020 27/23 Q1014;EQDQ01+000000PRSWM2
0182827980999992002030702004-07100-034860FM-15+0007SBJP V0201801N002610045019N0060001N1+02401+02401999999ADDGA1021+003609999GA2071+004509999GF107991999999999999999999MA1101291999999MW1611REMMET056SBJP 070200Z 18005KT 6000 -RA SCT012 BKN015 24/24 Q1013;EQDQ01+000003PRSWM1Q02    003PRSWM1
0220827980999992002030703004-07100-034860FM-15+0007SBJP V0201201N002110030019N0030001N1+02401+02401999999ADDGA1071+003009999GA2021+005409099GA3081+024009999GF108991999999999999999999MA1101291999999MW1801MW2951REMMET072SBJP 070300Z 12004KT 3000 -TSRA BKN010 FEW018CB OVC080 24/24 Q1013 RERA;EQDQ01+000003PRSWM1Q02    003PRSWM1
0162827980999992002030917004-07100-034860FM-15+0007SBJP V0201301N005112200019N0112651N1+02901+02301999999ADDGA1021+006009999GA2021+030009999GF104991999999999999999999MA1101191999999MW1001REMMET052SBJP 091700Z 13010KT 9999 SCT020 SCT100 29/23 Q1012;EQDQ01+000000PRSWM2
0162827980999992002030918004-07100-034860FM-15+0007SBJP V0201301N005112200019N0112651N1+02901+02201999999ADDGA1021+006009999GA2021+030009999GF104991999999999999999999MA1101191999999MW1001REMMET052SBJP 091800Z 13010KT 9999 SCT020 SCT100 29/22 Q1012;EQDQ01+000000PRSWM2
0139827980999992002031118004-07100-034860FM-15+0007SBJP V0200901N006210060019N0112651N1+03001+02201999999ADDGA1071+006009999GF107991999999999999999999MA1101081999999MW1001REMMET045SBJP 111800Z 09012KT 9999 BKN020 30/22 Q1011;EQDQ01+000000PRSWM2
0213827980999992002031900004-07100-034860FM-12+0007SBJP V0201401N002610075019N0040001N1+02701+02521101411ADDAA106005191AY161061AY221061GF106991061051008001001001KA1240M+03081MA1999999102521MD1999999-0021MW1521REMSYN100AAXX  19004 82798 21596 61405 10270 20252 30252 40141 75262 86500 333 10308 29085 55082 59002 60051;
0139827980999992002031908004-07100-034860FM-15+0007SBJP V0209999C000012200019N0112651N1+02501+02401999999ADDGA1021+006009999GF104991999999999999999999MA1100911999999MW1001REMMET045SBJP 190800Z 00000KT 9999 SCT020 25/24 Q1009;EQDQ01+000000PRSWM2
0182827980999992002031909004-07100-034860FM-15+0007SBJP V0209999C000012200019N0060001N1+02401+02401999999ADDGA1021+006009999GA2021+030009999GF104991999999999999999999MA1101021999999MW1611REMMET056SBJP 190900Z 00000KT 6000 -RA SCT020 SCT100 24/24 Q1010;EQDQ01+000003PRSWM1Q02    003PRSWM1
0152827980999992002031910004-07100-034860FM-15+0007SBJP V0201401N00261220001CN0112651N1+02601+02401999999ADDGA1071+004809999GA2021+030009999MA1101021999999MW1001REMMET052SBJP 191000Z 14005KT 9999 BKN016 SCT100 26/24 Q1010;EQDQ01+000042SCOTCVQ02+000000PRSWM2
0172827980999992002031911004-07100-034860FM-15+0007SBJP V0201101N00211220001CN0060001N1+02701+02501999999ADDGA1071+004809999GA2021+030009999MA1101081999999MW1611REMMET056SBJP 191100Z 11004KT 6000 -RA BKN016 SCT100 27/25 Q1011;EQDQ01+000042SCOTCVQ02+000003PRSWM1Q03    003PRSWM1
0145827980999992002031912004-07100-034860FM-15+0007SBJP V0201001N005110060019N0112651N1+02901+02501999999ADDGA1071+006009999GF107991999999999999999999MA1101081999999MW1001REMMET051METAR SBJP 191200Z 10010KT 9999 BKN020 29/25 Q1011;EQDQ01+000000PRSWM2
0145827980999992002031913004-07100-034860FM-15+0007SBJP V0200901N005112200019N0112651N1+03001+02401999999ADDGA1021+006009999GF104991999999999999999999MA1101081999999MW1001REMMET051METAR SBJP 191300Z 09010KT 9999 SCT020 30/24 Q1011;EQDQ01+000000PRSWM2
0145827980999992002031914004-07100-034860FM-15+0007SBJP V0201001N005110060019N0112651N1+03101+02301999999ADDGA1071+006009999GF107991999999999999999999MA1101081999999MW1001REMMET051METAR SBJP 191400Z 10010KT 9999 BKN020 31/23 Q1011;EQDQ01+000000PRSWM2
0139827980999992002031915004-07100-034860FM-15+0007SBJP V0200801N004610060019N0112651N1+03101+02301999999ADDGA1071+006009999GF107991999999999999999999MA1101021999999MW1001REMMET045SBJP 191500Z 08009KT 9999 BKN020 31/23 Q1010;EQDQ01+000000PRSWM2
0139827980999992002031916004-07100-034860FM-15+0007SBJP V0200801N005110060019N0112651N1+03101+02301999999ADDGA1071+006009999GF107991999999999999999999MA1100911999999MW1001REMMET045SBJP 191600Z 08010KT 9999 BKN020 31/23 Q1009;EQDQ01+000000PRSWM2
0139827980999992002031917004-07100-034860FM-15+0007SBJP V0201001N006212200019N0112651N1+03101+02401999999ADDGA1021+006009999GF104991999999999999999999MA1100911999999MW1001REMMET045SBJP 191700Z 10012KT 9999 SCT020 31/24 Q1009;EQDQ01+000000PRSWM2
0201827980999992002041012004-07100-034860FM-12+0007SBJP V0201801N003110075019N0200001N1+02901+02521101381ADDAA124023191AY161061AY221061GF106991061051008001001001KA1240N+02431MA1999999101171MD1999999-0081MW1021REMSYN088AAXX  10124 82798 21598 61806 10290 20252 30117 40138 70262 86500 333 20243 59008 60234;
0191827980999992002041718344-07100-034860FM-15+0007SBJP V0200801N004610300019N0112651N1+02501+02401999999ADDGA1021+003009999GA2021+004809999GA3081+030009999GF108991999999999999999999MA1101191999999MW1001REMMET065METAR SBJP 171834Z 08009KT 9999 SCT010 SCT016 OVC100 25/24 Q1012;EQDQ01+000000PRSWM2
0186827980999992002043012004-07100-034860FM-12+0007SBJP V0202001N003610450019N0200001N1+02821+02291101521ADDAA199000091GF106991031021008001031091KA1240N+02471MA1999999101311MD1999999+0051REMSYN076AAXX  30124 82798 32598 62007 10282 20229 30131 40152 83239 333 20247 58005;EQDQ01  00002PRCP99
0167827980999992002051218004-07100-034860FM-12+0007SBJP V0201401N011012200019N0200001N1+02881+02351101411ADDAA199000091GF104991021011008001031011MA1999999101201MD1999999-0061REMSYN070AAXX  12180 82798 32598 41411 10288 20235 30120 40141 82131 333 59006;EQDQ01  00002PRCP99
0198827980999992002051300004-07100-034860FM-12+0007SBJP V0201801N002112200019N0040001N1+02681+02241101641ADDAA199000091GF103991031021008001001001KA1240M+03021MA1999999101431MD1999999+0001REMSYN088AAXX  13004 82798 32596 31804 10268 20224 30143 40164 83200 333 10302 29075 55094 58000;EQDQ01  00002PRCP99
0186827980999992002051312004-07100-034860FM-12+0007SBJP V0201401N003610450019N0200001N1+02861+02311101591ADDAA199000091GF106991031041008001031021KA1240N+02291MA1999999101381MD1999999-0051REMSYN076AAXX  13124 82798 32598 61407 10286 20231 30138 40159 83432 333 20229 59005;EQDQ01  00002PRCP99
0182827980999992002051604384-07100-034860FM-16+0007SBJP V0209999C000010024019N0030001N1+02401+02401999999ADDGA1071+002409999GA2021+003009999GF107991999999999999999999MA1101191999999MW1611REMMET056SBJP 160438Z 00000KT 3000 -RA SCT010 BKN008 24/24 Q1012;EQDQ01+000003PRSWM1Q02    003PRSWM1
0201827980999992002051612004-07100-034860FM-12+0007SBJP V0201801N002110075019N0040001N1+02521+02491101521ADDAA124034091AY161061AY221061GF108991081071008001001001KA1240N+02431MA1999999101311MD1999999-0151MW1621REMSYN088AAXX  16124 82798 21596 81804 10252 20249 30131 40152 76262 88700 333 20243 59015 60344;
0182827980999992002051618004-07100-034860FM-12+0007SBJP V0201801N003110075019N0200001N1+02841+02441101221ADDAA106011991AY161061AY221061GF106991051041008001091001MA1999999101011MD1999999-0221MW1021REMSYN082AAXX  16184 82798 21598 61806 10284 20244 30101 40122 70262 85490 333 59022 60121;
0205827980999992002052103264-07100-034860FM-15+0007SBJP V0209999C000010240019N0112651N1+02301+02301999999ADDGA1021+001809999GA2021+004509999GA3081+024009999GF108991999999999999999999MA1101291999999MW1611REMMET063SBJP 210326Z 00000KT 9999 -RA SCT006 SCT015 OVC080 23/23 Q1013;EQDQ01+000003PRSWM1Q02    003PRSWM1
0182827980999992002052108254-07100-034860FM-15+0007SBJP V0200801N001010030019N0040001N1+02301+02301999999ADDGA1071+003009999GA2081+024009999GF108991999999999999999999MA1101291999999MW1611REMMET056SBJP 210825Z 08002KT 4000 -RA BKN010 OVC080 23/23 Q1013;EQDQ01+000003PRSWM1Q02    003PRSWM1
0201827980999992002052912004-07100-034860FM-12+0007SBJP V0201401N005710075019N0100001N1+02541+02311101511ADDAA124002091AY161061AY221061GF107991061071008001071001KA1240N+02411MA1999999101301MD1999999-0011MW1021REMSYN088AAXX  29124 82798 21597 71411 10254 20231 30130 40151 70262 86770 333 20241 59001 60024;
0182827980999992002060103224-07100-034860FM-15+0007SBJP V0209999C000010030019N0030001N1+02201+02201999999ADDGA1071+003009999GA2081+024009999GF108991999999999999999999MA1101491999999MW1611REMMET056SBJP 010322Z 00000KT 3000 -RA BKN010 OVC080 22/22 Q1015;EQDQ01+000003PRSWM1Q02    003PRSWM1
0162827980999992002060103374-07100-034860FM-15+0007SBJP V0209999C000010240019N0112651N1+02201+02201999999ADDGA1021+003609999GA2071+024009999GF107991999999999999999999MA1101391999999MW1001REMMET052SBJP 010337Z 00000KT 9999 SCT012 BKN080 22/22 Q1014;EQDQ01+000000PRSWM2
0198827980999992002061100004-07100-034870FM-12+0007SBJP V0201801N003112200019N0040001N1+02341+02201101571ADDAA199000091GF102991021011008001001001KA1240M+02921MA1999999101361MD1999999-0011REMSYN088AAXX  11004 82798 32596 21806 10234 20220 30136 40157 82100 333 10292 29083 55084 59001;EQDQ01  00002PRCP99
0139827980999992002061103004-07100-034870FM-15+0007SBJP V0202101N002112200019N0112651N1+02201+02101999999ADDGA1021+006009999GF102991999999999999999999MA1101391999999MW1001REMMET045SBJP 110300Z 21004KT 9999 FEW020 22/21 Q1014;EQDQ01+000000PRSWM2
0162827980999992002061104004-07100-034870FM-15+0007SBJP V0202101N002112200019N0112651N1+02201+02201999999ADDGA1021+006009999GA2021+021009999GF104991999999999999999999MA1101391999999MW1001REMMET052SBJP 110400Z 21004KT 9999 FEW020 SCT070 22/22 Q1014;EQDQ01+000000PRSWM2
0168827980999992002061105004-07100-034870FM-15+0007SBJP V0202101N002612200019N0112651N1+02201+02201999999ADDGA1021+006009999GA2021+021009999GF104991999999999999999999MA1101291999999MW1001REMMET058METAR SBJP 110500Z 21005KT 9999 SCT020 SCT070 22/22 Q1013;EQDQ01+000000PRSWM2
0162827980999992002061106004-07100-034870FM-15+0007SBJP V0202101N001512200019N0112651N1+02201+02201999999ADDGA1021+006009999GA2021+021009999GF104991999999999999999999MA1101291999999MW1001REMMET052SBJP 110600Z 21003KT 9999 FEW020 SCT070 22/22 Q1013;EQDQ01+000000PRSWM2
0147827980999992002061107004-07100-034870FM-15+0007SBJP V0202201N001512200019N0112651N1+02101+02101999999ADDGA1021+006009999GA2021+021009999GF104991999999999999999999MW1001REMMET052SBJP 110700Z 22003KT 9999 FEW020 SCT070 21/21 Q1913;EQDQ01+000000PRSWM2
0162827980999992002061108004-07100-034870FM-15+0007SBJP V0202201N002112200019N0112651N1+02101+02101999999ADDGA1021+006009999GA2021+090009999GF104991999999999999999999MA1101291999999MW1001REMMET052SBJP 110800Z 22004KT 9999 FEW020 SCT300 21/21 Q1013;EQDQ01+000000PRSWM2
0162827980999992002061109004-07100-034870FM-15+0007SBJP V0202201N002612200019N0112651N1+02101+02101999999ADDGA1021+006009999GA2021+090009999GF104991999999999999999999MA1101391999999MW1001REMMET052SBJP 110900Z 22005KT 9999 SCT020 SCT300 21/21 Q1014;EQDQ01+000000PRSWM2
0162827980999992002061110004-07100-034870FM-15+0007SBJP V0202101N003112200019N0112651N1+02301+02201999999ADDGA1021+006009999GA2021+090009999GF104991999999999999999999MA1101491999999MW1001REMMET052SBJP 111000Z 21006KT 9999 SCT020 SCT300 23/22 Q1015;EQDQ01+000000PRSWM2
0139827980999992002061111004-07100-034870FM-15+0007SBJP V0202001N003112200019N0112651N1+02501+02301999999ADDGA1021+006009999GF102991999999999999999999MA1101491999999MW1001REMMET045SBJP 111100Z 20006KT 9999 FEW020 25/23 Q1015;EQDQ01+000000PRSWM2
0292827980999992002061112004-07100-034870SY-MT+0007SBJP V0201401N003112200019N0200001N1+02781+02341101611ADDAY161061AY221061GA1021+006009999GF102991011021008001031001KA1240N+02251MA1101491101401MD1999999+0001MW1021REMSYN088AAXX  11124 82798 21598 21406 10278 20234 30140 40161 70262 81230 333 20225 58000 69914;MET045SBJP 111200Z 17008KT 9999 FEW020 27/23 Q1015;EQDQ01+000000PRSWM2Q02    003PRSWM1
0139827980999992002061113004-07100-034870FM-15+0007SBJP V0201501N005112200019N0112651N1+02701+02301999999ADDGA1021+006009999GF104991999999999999999999MA1101491999999MW1001REMMET045SBJP 111300Z 15010KT 9999 SCT020 27/23 Q1015;EQDQ01+000000PRSWM2
0182827980999992002061222324-07100-034870FM-16+0007SBJP V0209999C000010024019N0050001N1+02301+02301999999ADDGA1071+002409999GA2081+024009999GF108991999999999999999999MA1101491999999MW1611REMMET056SBJP 122232Z 00000KT 5000 -RA BKN008 OVC080 23/23 Q1015;EQDQ01+000003PRSWM1Q02    003PRSWM1
0211827980999992002061303074-07100-034870FM-15+0007SBJP V0209999C000010027019N0080001N1+02201+02201999999ADDGA1021+001509999GA2071+002709999GA3081+024009999GF108991999999999999999999MA1101491999999MW1611REMMET069METAR SBJP 130307Z 00000KT 8000 -RA FEW005 BKN009 OVC080 22/22 Q1015;EQDQ01+000003PRSWM1Q02    003PRSWM1
0205827980999992002061303344-07100-034870FM-15+0007SBJP V0209999C000010240019N0112651N1+02201+02201999999ADDGA1021+001509999GA2021+003009999GA3071+024009999GF107991999999999999999999MA1101491999999MW1611REMMET063SBJP 130334Z 00000KT 9999 -RA FEW005 SCT010 BKN080 22/22 Q1015;EQDQ01+000003PRSWM1Q02    003PRSWM1
0162827980999992002062704004-07100-034870FM-15+0007SBJP V0202201N003110300019N0112651N1+02201+02201999999ADDGA1021+006009999GA2071+030009999GF107991999999999999999999MA1101801999999MW1001REMMET052SBJP 270400Z 22006KT 9999 FEW020 BKN100 22/22 Q1018;EQDQ01+000000PRSWM2
0091827980999992002062705004-07100-034870FM-15+0007SBJP V0202001N00211220001CN0099001N1+02201+02201999999ADDMA1101691999999MW1001REMMET039SBJP 270500Z 20004KT CAVOK 22/22 Q1017;EQDQ01+000000PRSWM2
0162827980999992002062706004-07100-034870FM-15+0007SBJP V0202601N002110300019N0112651N1+02101+02101999999ADDGA1021+006009999GA2071+030009999GF107991999999999999999999MA1101691999999MW1001REMMET052SBJP 270600Z 26004KT 9999 FEW020 BKN100 21/21 Q1017;EQDQ01+000000PRSWM2
0162827980999992002062707004-07100-034870FM-15+0007SBJP V0209999C000010300019N0112651N1+02101+02101999999ADDGA1021+006009999GA2071+030009999GF107991999999999999999999MA1101691999999MW1001REMMET052SBJP 270700Z 00000KT 9999 FEW020 BKN100 21/21 Q1017;EQDQ01+000000PRSWM2
0162827980999992002062708004-07100-034870FM-15+0007SBJP V0209999C000010300019N0112651N1+02101+02101999999ADDGA1021+006009999GA2071+030009999GF107991999999999999999999MA1101591999999MW1001REMMET052SBJP 270800Z 00000KT 9999 FEW020 BKN100 21/21 Q1016;EQDQ01+000000PRSWM2
0162827980999992002062709004-07100-034870FM-15+0007SBJP V0202001N001010300019N0112651N1+02001+02001999999ADDGA1021+006009999GA2071+030009999GF107991999999999999999999MA1101691999999MW1001REMMET052SBJP 270900Z 20002KT 9999 FEW020 BKN100 20/20 Q1017;EQDQ01+000000PRSWM2
0162827980999992002062710004-07100-034870FM-15+0007SBJP V0202001N003110900019N0112651N1+02201+02201999999ADDGA1021+006009999GA2071+090009999GF107991999999999999999999MA1101691999999MW1001REMMET052SBJP 271000Z 20006KT 9999 FEW020 BKN300 22/22 Q1017;EQDQ01+000000PRSWM2
0331827980999992002062712004-07100-034870SY-MT+0007SBJP V0201801N00311090001CN0200001N1+02601+02291101891ADDAY161061AY221061GA1041+006009999GA2071+090009999GF199999041041008001061091KA1240N+02191MA1101801101681MD1999999-0121MW1021REMSYN088AAXX  27124 82798 21598 61806 10260 20229 30168 40189 70262 84469 333 20219 59012 60024;MET052SBJP 271200Z 17008KT 9999 SCT020 BKN300 25/23 Q1018;EQDQ01+000062SCOTCVQ02+000000PRSWM2Q03    003PRSWM1
0162827980999992002062713004-07100-034870FM-15+0007SBJP V0201601N005112200019N0112651N1+02701+02301999999ADDGA1041+006009999GA2041+090009999GF104991999999999999999999MA1101801999999MW1001REMMET052SBJP 271300Z 16010KT 9999 SCT020 SCT300 27/23 Q1018;EQDQ01+000000PRSWM2
0162827980999992002062714004-07100-034870FM-15+0007SBJP V0201501N005112200019N0112651N1+02701+02201999999ADDGA1041+006009999GA2041+090009999GF104991999999999999999999MA1101691999999MW1001REMMET052SBJP 271400Z 15010KT 9999 SCT020 SCT300 27/22 Q1017;EQDQ01+000000PRSWM2
0205827980999992002070400284-07100-034870FM-16+0007SBJP V0201701N004610021019N0030001N1+02101+02101999999ADDGA1071+002109999GA2071+004509999GA3081+024009999GF108991999999999999999999MA1101591999999MW1611REMMET063SBJP 040028Z 17009KT 3000 -RA BKN007 BKN015 OVC080 21/21 Q1016;EQDQ01+000003PRSWM1Q02    003PRSWM1
0188827980999992002070402084-07100-034870FM-16+0007SBJP V0201901N002110024019N0030001N1+02001+02001999999ADDGA1071+002409999GA2081+024009999GF108991999999999999999999MA1101591999999MW1611REMMET062SPECI SBJP 040208Z 19004KT 3000 -RA BKN008 OVC080 20/20 Q1016;EQDQ01+000003PRSWM1Q02    003PRSWM1
0188827980999992002070403294-07100-034870FM-16+0007SBJP V0201901N002110030019N0030001N1+02101+02101999999ADDGA1071+003009999GA2081+024009999GF108991999999999999999999MA1101591999999MW1611REMMET062SPECI SBJP 040329Z 19004KT 3000 -RA BKN010 OVC080 21/21 Q1016;EQDQ01+000003PRSWM1Q02    003PRSWM1
0211827980999992002070405124-07100-034870FM-15+0007SBJP V0201801N004110030019N0030001N1+02101+02101999999ADDGA1041+001809999GA2071+003009999GA3081+024009999GF108991999999999999999999MA1101491999999MW1611REMMET069METAR SBJP 040512Z 18008KT 3000 -RA SCT006 BKN010 OVC080 21/21 Q1015;EQDQ01+000003PRSWM1Q02    003PRSWM1
0154827980999992002070413004-07100-034870FM-15+0007SBJP V0201801N001510240019N0112651N1+02501+02301999999ADDGA1041+004509999GA2071+024009999GF107991999999999999999999MA1101691999999MW1001REMMET044SBJP 18003KT 9999 SCT015 BKN080 25/23 Q1017;EQDQ01+000000PRSWM2
0154827980999992002070414004-07100-034870FM-15+0007SBJP V0201801N002110045019N0112651N1+02501+02201999999ADDGA1071+004509999GA2071+024009999GF107991999999999999999999MA1101691999999MW1001REMMET044SBJP 18004KT 9999 BKN015 BKN080 25/22 Q1017;EQDQ01+000000PRSWM2
0139827980999992002071118004-07100-034870FM-15+0007SBJP V0201301N004612200019N0112651N1+02801+02001999999ADDGA1041+006009999GF104991999999999999999999MA1101391999999MW1001REMMET045SBJP 111800Z 13009KT 9999 SCT020 28/20 Q1014;EQDQ01+000000PRSWM2
0275827980999992002071312004-07100-034870SY-MT+0007SBJP V0201401N003110450019N0200001N1+02661+02331101711ADDAA199000091GA1041+006009999GF105991031031008001041001KA1240N+02071MA1101591101501MD1999999-0041MW1001REMSYN076AAXX  13124 82798 32598 51406 10266 20233 30150 40171 83340 333 20207 59004;MET045SBJP 131200Z 13005KT 9999 SCT020 26/24 Q1016;EQDQ01+000000PRSWM2Q02  00002PRCP99
0139827980999992002081212004-07100-034870FM-15+0007SBJP V0201001N004110060019N0112651N1+02701+02101999999ADDGA1071+006009999GF107991999999999999999999MA1101801999999MW1001REMMET045SBJP 121200Z 10008KT 9999 BKN020 27/21 Q1018;EQDQ01+000000PRSWM2
0182827980999992002081222284-07100-034870FM-16+0007SBJP V0201201N003610030019N0080001N1+02201+02201999999ADDGA1071+003009999GA2071+027009999GF107991999999999999999999MA1101691999999MW1611REMMET056SBJP 122228Z 12007KT 8000 -RA BKN010 BKN090 22/22 Q1017;EQDQ01+000003PRSWM1Q02    003PRSWM1
0182827980999992002081708124-07100-034870FM-16+0007SBJP V0202201N001010024019N0035001N1+02101+02101999999ADDGA1071+002409999GA2081+024009999GF108991999999999999999999MA1101591999999MW1611REMMET056SBJP 170812Z 22002KT 3500 -RA BKN008 OVC080 21/21 Q1016;EQDQ01+000003PRSWM1Q02    003PRSWM1
0181827980999992002081708214-07100-034870FM-16+0007SBJP V0201801N001010021019N0020001N1+02101+02101999999ADDGA1071+002109999GA2081+024009999GF108991999999999999999999MA1101691999999MW1631REMMET055SBJP 170821Z 18002KT 2000 RA BKN007 OVC080 21/21 Q1017;EQDQ01+000003PRSWM1Q02    003PRSWM1
0091827980999992002090521004-07100-034870FM-15+0007SBJP V0201301N00361220001CN0099001N1+02401+02001999999ADDMA1101491999999MW1001REMMET039SBJP 052100Z 13007KT CAVOK 24/20 Q1015;EQDQ01+000000PRSWM2
0093827980999992002121023114-07100-034870FM-16+0007SBJP V0201401N003612200019N9999999N1+99999+99999999999ADDMW1001REMMET056SBJP 102311Z 14007KT 500 SHRA FEW010 BKN017 25/24 Q1015;EQDQ01+000000PRSWM2
