0167829940999992002031118004-09660-035690FM-12+008999999V0201401N004110120019N0040001N1+02921+02241101481ADDAA199000091GF105991051021012501001001MA1999999100461MD1999999+0091REMSYN070AAXX  11184 82994 32696 51408 10292 20224 30046 40148 85200 333 58009;EQDQ01  00002PRCP99
0182829940999992002031818004-09660-035690FM-12+008999999V0201401N000510450019N0020001N1+02621+02571101221ADDAA106005191AY161061AY211061GF107991031041008001021001MA1999999100191MD1999999+0031MW1031REMSYN082AAXX  18184 82994 21595 71401 10262 20257 30019 40122 70361 83420 333 58003 60051;
0213829940999992002031900004-09660-035690FM-12+008999999V0200901N001510450019N0020001N1+02441+02351101451ADDAA106001091AY161061AY211061GF107991031041008001021001KA1240M+02701MA1999999100431MD1999999+0131MW1031REMSYN100AAXX  19004 82994 21595 70903 10244 20235 30043 40145 70361 83420 333 10270 29096 55005 58013 60011;
0186829940999992002041012004-09660-035690FM-12+008999999V0201401N004110450019N0040001N1+02861+01981101271ADDAA199000091GF106991021021008001031001KA1240N+01981MA1999999100251MD1999999-0171REMSYN076AAXX  10124 82994 32596 61408 10286 20198 30025 40127 82230 333 20198 59017;EQDQ01  00002PRCP99
0186829940999992002043012004-09660-035690FM-12+008999999V0200501N001510450019N0040001N1+02501+02311101331ADDAA199000091GF106991031031012501021001KA1240N+01801MA1999999100591MD1999999+0101REMSYN076AAXX  30124 82994 32696 60503 10250 20231 30059 40133 83320 333 20180 58010;EQDQ01  00002PRCP99
0167829940999992002051218004-09660-035690FM-12+008999999V0200501N009010120019N0040001N1+02891+02271101081ADDAA199000091GF105991051031012501001001MA1999999100341MD1999999-0131REMSYN070AAXX  12180 82994 32696 50509 10289 20227 30034 40108 85300 333 59013;EQDQ01  00002PRCP99
0198829940999992002051300004-09660-035690FM-12+008999999V0201401N000510450019N0040001N1+02441+02191101361ADDAA199000091GF106991031031012501061001KA1240M+02961MA1999999100621MD1999999-0011REMSYN088AAXX  13004 82994 32696 61401 10244 20219 30062 40136 83360 333 10296 29078 55084 59001;EQDQ01  00002PRCP99
0201829940999992002051312004-09660-035690FM-12+008999999V0200901N001010450019N0040001N1+02281+02201101351ADDAA124002091AY161061AY211061GF106991031031008001041001KA1240N+01681MA1999999100611MD1999999-0071MW1031REMSYN088AAXX  13124 82994 21596 60902 10228 20220 30061 40135 70361 83340 333 20168 59007 60024;
0182829940999992002051612004-09660-035690FM-12+008999999V0200501N003110450019N0040001N1+02421+02331101231ADDAA124075991AY161061AY211061GF108991031071012501021999MA1999999100491MD1999999-0181MW1611REMSYN082AAXX  16124 82994 21696 80506 10242 20233 30049 40123 76161 8372/ 333 59018 60764;
0182829940999992002051618004-09660-035690FM-12+008999999V0201401N002619999999N0040001N1+02721+02121100931ADDAA106005191AY161061AY211061GF108991031061008001999999MA1999999100191MD1999999-0201MW1031REMSYN082AAXX  16184 82994 21596 81405 10272 20212 30019 40093 70361 836// 333 59020 60051;
0186829940999992002052212004-09660-035690FM-12+008999999V0200901N003110450019N0040001N1+02741+02341101181ADDAA199000091GF106991031031008001041001KA1240N+01941MA1999999100441MD1999999-0071REMSYN076AAXX  22124 82994 32596 60906 10274 20234 30044 40118 83340 333 20194 59007;EQDQ01  00002PRCP99
0214829940999992002061100004-09670-035700FM-12+008999999V0200901N001019999999N0040001N1+02421+02071101391ADDAA199000091GF106991999021012501001001KA1240M+02841MA1999999100641MD1999999-0081REMSYN088AAXX  11004 82994 32696 60902 10242 20207 30064 40139 83200 333 10284 29081 55073 59008;EQDQ01+000032SCOTLCQ02  00002PRCP99
0162829940999992002061112004-09670-035700FM-12+008999999V0201401N001010450019N0040001N1+02501+02111101381ADDGF106991021021012501061001KA1240N+01891MA1999999100641MD1999999-0091REMSYN082AAXX  11124 82994 22696 61402 10250 20211 30064 40138 82260 333 20189 59009 69964;
0190829940999992002062712004-09670-035700FM-12+008999999V0200901N001510450019N0040001N1+02401+02191101781ADDAY161061AY211061GF106991031041008001041041KA1240N+01861MA1999999100981MD1999999+0131MW1031REMSYN088AAXX  27124 82994 21596 60903 10240 20219 30098 40178 70361 83444 333 20186 58013 60044;
0189829940999992002071312004-09670-035700FM-12+008999999V0201401N001519999999N0040001N1+02541+02091101451ADDAA199000021AY161061AY241061GF106991999999012501999999KA1240N+01821MA1999999100711MD1999999-0071MW1211REMSYN076AAXX  13124 82994 32696 61403 10254 20209 30071 40145 72164 333 20182 59007;
