0183830960999992002010218004-10910-037050FM-12+000699999V0200901N045820120019N0020001N1+02791+02401100921ADDAA199000091GF106991061051012501001001MA1999999100851MD1999999-0121REMSYN070AAXX  02184 83096 32695 60989 10279 20240 30085 40092 86500 333 59012;EQDQ01+004583WOSPD Q02  00002PRCP99
0167830960999992002010318004-10910-037050FM-12+000699999V0200901N003119999999N0020001N1+02761+02321101021ADDAA199000091GF106991061001012501071001MA1999999100951MD1999999+0101REMSYN070AAXX  03184 83096 32695 60906 10276 20232 30095 40102 86070 333 58010;EQDQ01  00002PRCP99
0198830960999992002010400004-10910-037050FM-12+000699999V0200501N003119999999N0020001N1+02651+02481101231ADDAA199000091GF106991061001012501071001KA1240M+02971MA1999999101161MD1999999+0081REMSYN088AAXX  04004 83096 32695 60506 10265 20248 30116 40123 86070 333 10297 29087 55000 58008;EQDQ01  00002PRCP99
0186830960999992002010412004-10910-037050FM-12+000699999V0203601N001519999999N0020001N1+02691+02461101301ADDAA199000091GF106991061001012501071001KA1240N+02281MA1999999101231MD1999999-0071REMSYN076AAXX  04124 83096 32695 63603 10269 20246 30123 40130 86070 333 20228 59007;EQDQ01  00002PRCP99
0182830960999992002010418004-10910-037050FM-12+000699999V0201401N000519999999N0020001N1+02471+02231101141ADDAA106008991AY161061AY261061GF106991061001012501071001MA1999999101071MD1999999+0121MW1211REMSYN082AAXX  04184 83096 21695 61401 10247 20223 30107 40114 72166 86070 333 58012 60091;
0213830960999992002010500004-10910-037050FM-12+000699999V0200501N000519999999N0020001N1+02491+02471101371ADDAA106000591AY161061AY261061GF106991061001012501071001KA1240M+03081MA1999999101301MD1999999+0141MW1211REMSYN100AAXX  05004 83096 21695 60501 10249 20247 30130 40137 72166 86070 333 10308 29092 55002 58014 69961;
0173830960999992002010512004-10910-037050FM-12+000699999V0203601N001512200019N0020001N1+02791+02341101331ADDAA124008991GF103991031051012501001001KA1240N+02331MA1999999101261MD1999999+0031REMSYN082AAXX  05124 83096 22695 33603 10279 20234 30126 40133 83500 333 20233 58003 60094;
0182830960999992002010518004-10910-037050FM-12+000699999V0203601N001510075019N0010001N1+02671+02331101091ADDAA106001091AY161061AY261061GF106991061051008001001001MA1999999101021MD1999999-0051MW1601REMSYN082AAXX  05184 83096 21594 63603 10267 20233 30102 40109 76066 86500 333 59005 60011;
0213830960999992002010600004-10910-037050FM-12+000699999V0200501N003110075019N0010001N1+02561+02291101191ADDAA106015091AY161061AY261061GF108991081071008001999999KA1240M+02951MA1999999101121MD1999999-0181MW1601REMSYN100AAXX  06004 83096 21594 80506 10256 20229 30112 40119 76066 887// 333 10295 29082 55036 59018 60151;
0201830960999992002010612004-10910-037050FM-12+000699999V0200501N001510042019N0190001N1+02491+02291101081ADDAA124026991AY161061AY261061GF108991081071004501999999KA1240N+02411MA1999999101011MD1999999-0011MW1211REMSYN088AAXX  06124 83096 21469 80503 10249 20229 30101 40108 72166 887// 333 20241 59001 60274;
0182830960999992002010618004-10910-037050FM-12+000699999V0200901N004110075019N0010001N1+02431+02251101021ADDAA106001091AY161061AY261061GF108991081071008001999999MA1999999100951MD1999999-0071MW1601REMSYN082AAXX  06184 83096 21594 80908 10243 20225 30095 40102 76066 887// 333 59007 60011;
0179830960999992002010700004-10910-037050FM-12+000699999V0200501N003610120019N0020001N1+02471+02251101121ADDAA199000021GF105991051051012501001001KA1240M+02811MA1999999101051MD1999999-0071REMSYN088AAXX  07004 83096 32695 50507 10247 20225 30105 40112 85500 333 10281 29088 55000 59007;
0201830960999992002010712004-10910-037050FM-12+000699999V0200501N001519999999N0020001N1+02281+02161101421ADDAA124007191AY161061AY261061GF108991081001012501071001KA1240N+02221MA1999999101351MD1999999+0341MW1611REMSYN088AAXX  07124 83096 21695 80503 10228 20216 30135 40142 76166 88070 333 20222 58034 60074;
0182830960999992002010718004-10910-037050FM-12+000699999V0200901N002112200019N0020001N1+02811+02501101121ADDAA106000191AY161061AY261061GF104991041001012501021001MA1999999101051MD1999999+0101MW1201REMSYN082AAXX  07184 83096 21695 40904 10281 20250 30105 40112 72066 84020 333 58010 69921;
0179830960999992002010800004-10910-037050FM-12+000699999V0200901N003110120019N0020001N1+02281+99999101311ADDAA199000021GF106991061051012501001001KA1240M+02911MA1999999101241MD1999999+0191REMSYN088AAXX  08004 83096 32695 60906 10228 20231 30124 40131 86500 333 10291 29088 55054 58019;
0173830960999992002010812004-10910-037050FM-12+000699999V0201401N001512200019N0020001N1+02791+02521101341ADDAA124000191GF103991021011012501001011KA1240N+02261MA1999999101271MD1999999-0081REMSYN082AAXX  08124 83096 22695 31403 10279 20252 30127 40134 82101 333 20226 59008 69924;
0167830960999992002010818004-10910-037050FM-12+000699999V0201401N003112200019N0020001N1+02811+02461101091ADDAA199000091GF103991031011012501001001MA1999999101021MD1999999-0031REMSYN070AAXX  08184 83096 32695 31406 10281 20246 30102 40109 83100 333 59003;EQDQ01  00002PRCP99
0213830960999992002010900004-10910-037050FM-12+000699999V0200901N003110075019N0010001N1+02511+02471101311ADDAA106007991AY161061AY261061GF108991081051008001999999KA1240M+02981MA1999999101241MD1999999+0001MW1601REMSYN100AAXX  09004 83096 21594 80906 10251 20247 30124 40131 76066 885// 333 10298 29090 55097 58000 60081;
0173830960999992002010912004-10910-037050FM-12+000699999V0201401N002112200019N0010001N1+02791+02341101311ADDAA124007991GF103991031051012501001001KA1240N+02331MA1999999101241MD1999999-0031REMSYN082AAXX  09124 83096 22694 31404 10279 20234 30124 40131 83500 333 20233 59003 60084;
0167830960999992002010918004-10910-037050FM-12+000699999V0201401N003112200019N0020001N1+02711+02301101231ADDAA199000091GF103991031051012501001001MA1999999101161MD1999999+0141REMSYN070AAXX  09184 83096 32695 31406 10271 20230 30116 40123 83500 333 58014;EQDQ01  00002PRCP99
0198830960999992002011000004-10910-037050FM-12+000699999V0200901N002112200019N0020001N1+02591+02371101331ADDAA199000091GF102991021051012501001001KA1240M+02871MA1999999101261MD1999999+0021REMSYN088AAXX  10004 83096 32695 20904 10259 20237 30126 40133 82500 333 10287 29083 55065 58002;EQDQ01  00002PRCP99
0201830960999992002011012004-10910-037050FM-12+000699999V0200901N002110120019N0020001N1+02651+02291101521ADDAA124002091AY161061AY261061GF105991051051012501001001KA1240N+02361MA1999999101451MD1999999+0211MW1201REMSYN088AAXX  10124 83096 21695 50904 10265 20229 30145 40152 72066 85500 333 20236 58021 60024;
0182830960999992002011018004-10910-037050FM-12+000699999V0200901N003612200019N0020001N1+02671+02291101331ADDAA106000391AY161061AY261061GF103991031051008001001001MA1999999101261MD1999999-0101MW1601REMSYN082AAXX  10184 83096 21595 30907 10267 20229 30126 40133 76066 83500 333 59010 69931;
0213830960999992002011100004-10910-037050FM-12+000699999V0200901N002112200019N0020001N1+02571+02351101451ADDAA106004191AY161061AY261061GF102991021051008001001001KA1240M+02911MA1999999101381MD1999999+0121MW1601REMSYN100AAXX  11004 83096 21595 20904 10257 20235 30138 40145 76066 82500 333 10291 29084 55092 58012 60041;
0182830960999992002011118004-10910-037050FM-12+000699999V0200901N002610120019N0020001N1+02671+02371101431ADDAA106000591AY161061AY261061GF106991061071012501001001MA1999999101361MD1999999+0101MW1211REMSYN082AAXX  11184 83096 21695 60905 10267 20237 30136 40143 72166 86700 333 58010 69941;
0179830960999992002011200004-10910-037050FM-12+000699999V0200901N002610120019N0020001N1+02651+02391101651ADDAA199000021GF105991051051012501001001KA1240M+02771MA1999999101581MD1999999+0201REMSYN088AAXX  12004 83096 32695 50905 10265 20239 30158 40165 85500 333 10277 29088 55004 58020;
0173830960999992002011212004-10910-037050FM-12+000699999V0200901N003112200019N0020001N1+02831+02311101631ADDAA124000591GF102991021001012501001011KA1240N+02241MA1999999101561MD1999999-0131REMSYN082AAXX  12124 83096 22695 20906 10283 20231 30156 40163 82001 333 20224 59013 69944;
0167830960999992002011218004-10910-037050FM-12+000699999V0201401N003612200019N0020001N1+02811+02581101411ADDAA199000091GF104991021011012501001011MA1999999101341MD1999999-0021REMSYN070AAXX  12184 83096 32695 41407 10281 20258 30134 40141 82101 333 59002;EQDQ01  00002PRCP99
0213830960999992002011300004-10910-037050FM-12+000699999V0201401N002112200019N0020001N1+02631+02311101391ADDAA106000191AY161061AY261061GF102991021051012501001001KA1240M+02991MA1999999101321MD1999999-0161MW1201REMSYN100AAXX  13004 83096 21695 21404 10263 20231 30132 40139 72066 82500 333 10299 29081 55104 59016 69921;
0201830960999992002011312004-10910-037050FM-12+000699999V0200901N002112200019N0020001N1+02831+02331101391ADDAA124001091AY161061AY261061GF102991021011012501001001KA1240N+02251MA1999999101321MD1999999-0241MW1201REMSYN088AAXX  13124 83096 21695 20904 10283 20233 30132 40139 72066 82100 333 20225 59024 60014;
0148830960999992002011318004-10910-037050FM-12+000699999V0201401N002112200019N0020001N1+02851+02311101211ADDAA199000021GF102991021011012501001001MA1999999101141MD1999999-0201REMSYN070AAXX  13184 83096 32695 21404 10285 20231 30114 40121 82100 333 59020;
0179830960999992002011400004-10910-037050FM-12+000699999V0200901N002612200019N0020001N1+02661+02241101431ADDAA199000021GF102991021011012501001001KA1240M+02971MA1999999101361MD1999999+0041REMSYN088AAXX  14004 83096 32695 20905 10266 20224 30136 40143 82100 333 10297 29076 55109 58004;
0186830960999992002011412004-10910-037050FM-12+000699999V0200901N001512200019N0020001N1+02691+02311101291ADDAA199000091GF102991021051012501001001KA1240N+02301MA1999999101221MD1999999-0101REMSYN076AAXX  14124 83096 32695 20903 10269 20231 30122 40129 82500 333 20230 59010;EQDQ01  00002PRCP99
0167830960999992002011418004-10910-037050FM-12+000699999V0200901N003112200019N0020001N1+02891+02411101071ADDAA199000091GF103991031001012501001011MA1999999101001MD1999999-0141REMSYN070AAXX  14184 83096 32695 30906 10289 20241 30100 40107 83001 333 59014;EQDQ01  00002PRCP99
0198830960999992002011500004-10910-037050FM-12+000699999V0200901N003112200019N0020001N1+02691+02331101071ADDAA199000091GF103991031051012501001001KA1240M+02971MA1999999101001MD1999999-0361REMSYN088AAXX  15004 83096 32695 30906 10269 20233 30100 40107 83500 333 10297 29079 55092 59036;EQDQ01  00002PRCP99
0160830960999992002011600004-10910-037050FM-12+000699999V0203201N001510075019N0020001N1+02341+02291100961ADDAY161061AY261061GF107991999051008001001001MA1999999100891MW1211REMSYN066AAXX  16004 83096 21595 73203 10234 20229 30089 40096 72166 85500;EQDQ01+000052SCOTLC
0201830960999992002011612004-10910-037050FM-12+000699999V0200501N002110120019N0020001N1+02651+02461101151ADDAA124038191AY161061AY261061GF106991061051012501001001KA1240N+02161MA1999999101081MD1999999+0141MW1211REMSYN088AAXX  16124 83096 21695 60504 10265 20246 30108 40115 72166 86500 333 20216 58014 60384;
0182830960999992002011618004-10910-037050FM-12+000699999V0200901N001510075019N0020001N1+02651+02501100951ADDAA106007991AY161061AY261061GF108991081051008001999999MA1999999100881MD1999999+0241MW1601REMSYN082AAXX  16184 83096 21595 80903 10265 20250 30088 40095 76066 885// 333 58024 60081;
0213830960999992002011700004-10910-037050FM-12+000699999V0203201N002110120019N0020001N1+02511+02421101161ADDAA106001091AY161061AY261061GF106991061051012501001001KA1240M+02751MA1999999101091MD1999999+0201MW1211REMSYN100AAXX  17004 83096 21695 63204 10251 20242 30109 40116 72166 86500 333 10275 29092 55000 58020 60011;
0173830960999992002011712004-10910-037050FM-12+000699999V0200901N002112200019N0020001N1+02711+02411101101ADDAA124008991GF104991041051012501001001KA1240N+02201MA1999999101031MD1999999-0051REMSYN082AAXX  17124 83096 22695 40904 10271 20241 30103 40110 84500 333 20220 59005 60094;
0167830960999992002011718004-10910-037050FM-12+000699999V0200901N004112200019N0020001N1+02851+02401101011ADDAA199000091GF103991031001012501001011MA1999999100941MD1999999+0061REMSYN070AAXX  17184 83096 32695 30908 10285 20240 30094 40101 83001 333 58006;EQDQ01  00002PRCP99
0198830960999992002011800004-10910-037050FM-12+000699999V0200901N003612200019N0020001N1+02651+02421101081ADDAA199000091GF102991021011012501001001KA1240M+02961MA1999999101011MD1999999-0081REMSYN088AAXX  18004 83096 32695 20907 10265 20242 30101 40108 82100 333 10296 29084 55055 59008;EQDQ01  00002PRCP99
0186830960999992002011812004-10910-037050FM-12+000699999V0200901N002112200019N0020001N1+02791+02401101311ADDAA199000091GF103991021051012501011001KA1240N+02411MA1999999101241MD1999999+0211REMSYN076AAXX  18124 83096 32695 30904 10279 20240 30124 40131 82510 333 20241 58021;EQDQ01  00002PRCP99
0167830960999992002011818004-10910-037050FM-12+000699999V0200901N003110120019N0020001N1+02711+02301101181ADDAA199000091GF105991051051012501001001MA1999999101111MD1999999+0171REMSYN070AAXX  18184 83096 32695 50906 10271 20230 30111 40118 85500 333 58017;EQDQ01  00002PRCP99
0198830960999992002011900004-10910-037050FM-12+000699999V0200901N002612200019N0020001N1+02531+02231101211ADDAA199000091GF102991021051012501001001KA1240M+02991MA1999999101141MD1999999+0131REMSYN088AAXX  19004 83096 32695 20905 10253 20223 30114 40121 82500 333 10299 29081 55059 58013;EQDQ01  00002PRCP99
0201830960999992002011912004-10910-037050FM-12+000699999V0200501N001510120019N0020001N1+02531+02441101341ADDAA124002091AY161061AY261061GF106991061051012501001001KA1240N+02351MA1999999101271MD1999999+0031MW1211REMSYN088AAXX  19124 83096 21695 60503 10253 20244 30127 40134 72166 86500 333 20235 58003 60024;
0148830960999992002011918004-10910-037050FM-12+000699999V0201401N003112200019N0020001N1+02741+02301101121ADDAA199000021GF102991021011012501001001MA1999999101051MD1999999-0061REMSYN070AAXX  19184 83096 32695 21406 10274 20230 30105 40112 82100 333 59006;
0167830960999992002012000004-10910-037050FM-12+000699999V0200901N002610120019N0020001N1+02591+02441101311ADDAA199000021GF105991051051012501001001KA1240M+02981MA1999999101241MD1999999+0161REMSYN076AAXX  20004 83096 32695 50905 10259 20244 30124 40131 85500 333 10298 58016;
0173830960999992002012012004-10910-037050FM-12+000699999V0200901N002612200019N0020001N1+02831+02481101471ADDAA124008991GF102991021011012501001001KA1240N+02331MA1999999101401MD1999999+0131REMSYN082AAXX  20124 83096 22695 20905 10283 20248 30140 40147 82100 333 20233 58013 60094;
0167830960999992002012018004-10910-037050FM-12+000699999V0200901N003612200019N0020001N1+02891+02481101271ADDAA199000091GF102991021011012501001001MA1999999101201MD1999999+0151REMSYN070AAXX  20184 83096 32695 20907 10289 20248 30120 40127 82100 333 58015;EQDQ01  00002PRCP99
0198830960999992002012100004-10910-037050FM-12+000699999V0200901N003112200019N0020001N1+02701+02411101381ADDAA199000091GF102991021011012501001001KA1240M+03011MA1999999101311MD1999999+0031REMSYN088AAXX  21004 83096 32695 20906 10270 20241 30131 40138 82100 333 10301 29082 55107 58003;EQDQ01  00002PRCP99
0201830960999992002012112004-10910-037050FM-12+000699999V0201401N002110120019N0020001N1+02691+02391101391ADDAA124000591AY161061AY261061GF105991051051012501001001KA1240N+02241MA1999999101321MD1999999-0081MW1201REMSYN088AAXX  21124 83096 21695 51404 10269 20239 30132 40139 72066 85500 333 20224 59008 69944;
0148830960999992002012118004-10910-037050FM-12+000699999V0200901N003110120019N0020001N1+02791+02271101381ADDAA199000021GF106991061051012501001001MA1999999101311MD1999999+0111REMSYN070AAXX  21184 83096 32695 60906 10279 20227 30131 40138 86500 333 58011;
0179830960999992002012200004-10910-037050FM-12+000699999V0200901N003112200019N0020001N1+02611+02311101471ADDAA199000021GF104991041051012501001001KA1240M+02951MA1999999101401MD1999999+0091REMSYN088AAXX  22004 83096 32695 40906 10261 20231 30140 40147 84500 333 10295 29081 55019 58009;
0201830960999992002012212004-10910-037050FM-12+000699999V0200901N002610120019N0020001N1+02781+02211101681ADDAA124002091AY161061AY261061GF106991061001012501021001KA1240N+02351MA1999999101611MD1999999+0291MW1211REMSYN088AAXX  22124 83096 21695 60905 10278 20221 30161 40168 72166 86020 333 20235 58029 60024;
0148830960999992002012218004-10910-037050FM-12+000699999V0201401N003110450019N0020001N1+02821+02201101471ADDAA199000021GF105991021011012501021001MA1999999101401MD1999999+0091REMSYN070AAXX  22184 83096 32695 51406 10282 20220 30140 40147 82120 333 58009;
0179830960999992002012300004-10910-037050FM-12+000699999V0200901N002612200019N0020001N1+02671+02221101471ADDAA199000021GF102991021011012501001001KA1240M+03001MA1999999101401MD1999999+0001REMSYN088AAXX  23004 83096 32695 20905 10267 20222 30140 40147 82100 333 10300 29073 55068 58000;
0202830960999992002012312004-10910-037050FM-12+000699999V0200901N002110120019N0020001N1+02891+02251101531ADDAA199000091GF106991999011012501001001KA1240N+02301MA1999999101461MD1999999+0151REMSYN076AAXX  23124 83096 32695 60904 10289 20225 30146 40153 85100 333 20230 58015;EQDQ01+000052SCOTLCQ02  00002PRCP99
0167830960999992002012318004-10910-037050FM-12+000699999V0201401N003112200019N0020001N1+02811+02201101431ADDAA199000091GF102991021011012501001001MA1999999101361MD1999999-0041REMSYN070AAXX  23184 83096 32695 21406 10281 20220 30136 40143 82100 333 59004;EQDQ01  00002PRCP99
0198830960999992002012400004-10910-037050FM-12+000699999V0200901N002612200019N0020001N1+02671+02391101431ADDAA199000091GF102991021011012501001001KA1240M+02991MA1999999101361MD1999999-0041REMSYN088AAXX  24004 83096 32695 20905 10267 20239 30136 40143 82100 333 10299 29077 55090 59004;EQDQ01  00002PRCP99
0186830960999992002012412004-10910-037050FM-12+000699999V0200901N001010120019N0020001N1+02871+02311101501ADDAA199000091GF106991061011012501001001KA1240N+02301MA1999999101431MD1999999-0031REMSYN076AAXX  24124 83096 32695 60902 10287 20231 30143 40150 86100 333 20230 59003;EQDQ01  00002PRCP99
0167830960999992002012418004-10910-037050FM-12+000699999V0200901N003110120019N0020001N1+02871+02581101311ADDAA199000091GF105991051011012501001001MA1999999101241MD1999999-0121REMSYN070AAXX  24184 83096 32695 50906 10287 20258 30124 40131 85100 333 59012;EQDQ01  00002PRCP99
0198830960999992002012500004-10910-037050FM-12+000699999V0200901N002612200019N0020001N1+02711+02431101371ADDAA199000091GF102991021001012501031001KA1240M+03051MA1999999101301MD1999999-0061REMSYN088AAXX  25004 83096 32695 20905 10271 20243 30130 40137 82030 333 10305 29081 55074 59006;EQDQ01  00002PRCP99
0186830960999992002012512004-10910-037050FM-12+000699999V0200901N003112200019N0020001N1+02831+02361101371ADDAA199000091GF104991041051012501001001KA1240N+02281MA1999999101301MD1999999-0131REMSYN076AAXX  25124 83096 32695 40906 10283 20236 30130 40137 84500 333 20228 59013;EQDQ01  00002PRCP99
0182830960999992002012518004-10910-037050FM-12+000699999V0200901N004112200019N0020001N1+02891+02461101271ADDAA106000891AY161061AY261061GF103991031011012501001001MA1999999101201MD1999999-0041MW1201REMSYN082AAXX  25184 83096 21695 30908 10289 20246 30120 40127 72066 83100 333 59004 69981;
0179830960999992002012600004-10910-037050FM-12+000699999V0200901N003112200019N0020001N1+02691+02331101371ADDAA199000021GF103991031051012501001001KA1240M+02991MA1999999101301MD1999999+0001REMSYN088AAXX  26004 83096 32695 30906 10269 20233 30130 40137 83500 333 10299 29079 55095 58000;
0173830960999992002012612004-10910-037050FM-12+000699999V0200901N002612200019N0020001N1+02841+02311101531ADDAA124000891GF102991021011012501001001KA1240N+02411MA1999999101461MD1999999+0161REMSYN082AAXX  26124 83096 22695 20905 10284 20231 30146 40153 82100 333 20241 58016 69984;
0167830960999992002012618004-10910-037050FM-12+000699999V0200901N002612200019N0020001N1+02891+02371101401ADDAA199000091GF101991011011012501001001MA1999999101331MD1999999+0131REMSYN070AAXX  26184 83096 32695 10905 10289 20237 30133 40140 81100 333 58013;EQDQ01  00002PRCP99
0198830960999992002012700004-10910-037050FM-12+000699999V0200901N003612200019N0020001N1+02691+02391101371ADDAA199000091GF103991031051012501001001KA1240M+03011MA1999999101301MD1999999+0001REMSYN088AAXX  27004 83096 32695 30907 10269 20239 30130 40137 83500 333 10301 29078 55107 58000;EQDQ01  00002PRCP99
0186830960999992002012712004-10910-037050FM-12+000699999V0200901N002112200019N0020001N1+02891+02321101471ADDAA199000091GF104991041011012501001001KA1240N+02511MA1999999101401MD1999999-0061REMSYN076AAXX  27124 83096 32695 40904 10289 20232 30140 40147 84100 333 20251 59006;EQDQ01  00002PRCP99
0167830960999992002012718004-10910-037050FM-12+000699999V0200901N002610120019N0020001N1+02891+02371101231ADDAA199000091GF106991061011012501001001MA1999999101161MD1999999-0171REMSYN070AAXX  27184 83096 32695 60905 10289 20237 30116 40123 86100 333 59017;EQDQ01  00002PRCP99
0198830960999992002012800004-10910-037050FM-12+000699999V0200901N002612200019N0020001N1+02751+02251101261ADDAA199000091GF102991021011012501001001KA1240M+03011MA1999999101191MD1999999-0111REMSYN088AAXX  28004 83096 32695 20905 10275 20225 30119 40126 82100 333 10301 29073 55118 59011;EQDQ01  00002PRCP99
0201830960999992002012812004-10910-037050FM-12+000699999V0201401N000510075019N0020001N1+02591+02441101361ADDAA124000891AY161061AY261061GF106991061051008001001001KA1240N+02281MA1999999101291MD1999999-0111MW1601REMSYN088AAXX  28124 83096 21595 61401 10259 20244 30129 40136 76066 86500 333 20228 59011 69984;
0148830960999992002012818004-10910-037050FM-12+000699999V0200901N003112200019N0020001N1+02871+02281101141ADDAA199000021GF101991011011012501001001MA1999999101071MD1999999-0091REMSYN070AAXX  28184 83096 32695 10906 10287 20228 30107 40114 81100 333 59009;
0179830960999992002012900004-10910-037050FM-12+000699999V0200901N002612200019N0020001N1+02631+02181101131ADDAA199000021GF101991011011012501001001KA1240M+02971MA1999999101061MD1999999-0131REMSYN088AAXX  29004 83096 32695 10905 10263 20218 30106 40113 81100 333 10297 29078 55075 59013;
0201830960999992002012912004-10910-037050FM-12+000699999V0200901N001512200019N0020001N1+02651+02271101311ADDAA124000391AY161061AY261061GF102991021011012501001001KA1240N+02201MA1999999101241MD1999999-0051MW1201REMSYN088AAXX  29124 83096 21695 20903 10265 20227 30124 40131 72066 82100 333 20220 59005 69934;
0148830960999992002012918004-10910-037050FM-12+000699999V0200901N003112200019N0020001N1+02891+02221101161ADDAA199000021GF101991011011012501001001MA1999999101091MD1999999+0021REMSYN070AAXX  29184 83096 32695 10906 10289 20222 30109 40116 81100 333 58002;
0179830960999992002013000004-10910-037050FM-12+000699999V0200901N003112200019N0020001N1+02671+02201101191ADDAA199000021GF101991011011012501001001KA1240M+03011MA1999999101171MD1999999+0061REMSYN088AAXX  30004 83096 32695 10906 10267 20220 30117 40119 81100 333 10301 29074 55103 58006;
0186830960999992002013012004-10910-037050FM-12+000699999V0200901N002112200019N0020001N1+02731+02241101411ADDAA199000091GF102991021011012501001001KA1240N+02201MA1999999101341MD1999999+0101REMSYN076AAXX  30124 83096 32695 20904 10273 20224 30134 40141 82100 333 20220 58010;EQDQ01  00002PRCP99
0167830960999992002013018004-10910-037050FM-12+000699999V0200901N003112200019N0020001N1+02931+02291101241ADDAA199000091GF102991021011012501001001MA1999999101171MD1999999+0081REMSYN070AAXX  30184 83096 32695 20906 10293 20229 30117 40124 82100 333 58008;EQDQ01  00002PRCP99
0198830960999992002013100004-10910-037050FM-12+000699999V0200901N003112200019N0020001N1+02691+02281101251ADDAA199000091GF101991011011012501001001KA1240M+03011MA1999999101181MD1999999+0061REMSYN088AAXX  31004 83096 32695 10906 10269 20228 30118 40125 81100 333 10301 29075 55116 58006;EQDQ01  00002PRCP99
0201830960999992002013112004-10910-037050FM-12+000699999V0200501N001010450019N0020001N1+02701+02501101351ADDAA124000591AY161061AY261061GF106991031011012501071001KA1240N+02521MA1999999101281MD1999999-0061MW1201REMSYN088AAXX  31124 83096 21695 60502 10270 20250 30128 40135 72066 83170 333 20252 59006 69944;
0182830960999992002013118004-10910-037050FM-12+000699999V0200901N003112200019N0020001N1+02901+02431101221ADDAA106003091AY161061AY261061GF102991021011012501001011MA1999999101151MD1999999-0021MW1001REMSYN082AAXX  31184 83096 21695 20906 10290 20243 30115 40122 70066 82101 333 59002 60031;
0179830960999992002020100004-10910-037050FM-12+000699999V0200901N002612200019N0020001N1+02671+02291101191ADDAA199000021GF101991011011012501001001KA1240M+03031MA1999999101121MD1999999-0061REMSYN088AAXX  01004 83096 32695 10905 10267 20229 30112 40119 81100 333 10303 29081 55090 59006;
0173830960999992002020112004-10910-037050FM-12+000699999V0200901N003112200019N0020001N1+02891+02461101511ADDAA124003091GF102991011011012501001011KA1240N+02571MA1999999101441MD1999999+0161REMSYN082AAXX  01124 83096 22695 20906 10289 20246 30144 40151 81101 333 20257 58016 60034;
0167830960999992002020118004-10910-037050FM-12+000699999V0200901N004112200019N0020001N1+02911+02341101211ADDAA199000091GF102991021011012501001001MA1999999101141MD1999999-0011REMSYN070AAXX  01184 83096 32695 20908 10291 20234 30114 40121 82100 333 59001;EQDQ01  00002PRCP99
0198830960999992002020200004-10910-037050FM-12+000699999V0200901N004612200019N0020001N1+02691+02411101191ADDAA199000091GF101991011011012501001001KA1240M+03021MA1999999101221MD1999999+0101REMSYN088AAXX  02004 83096 32695 10909 10269 20241 30122 40119 81100 333 10302 29080 55113 58010;EQDQ01  00002PRCP99
0186830960999992002020212004-10910-037050FM-12+000699999V0200501N003612200019N0020001N1+02871+02321101411ADDAA199000091GF101991011011012501001001KA1240N+02471MA1999999101341MD1999999-0101REMSYN076AAXX  02124 83096 32695 10507 10287 20232 30134 40141 81100 333 20247 59010;EQDQ01  00002PRCP99
0167830960999992002020218004-10910-037050FM-12+000699999V0200501N006712200019N0020001N1+02861+02231101121ADDAA199000091GF101991011011012501001001MA1999999101051MD1999999-0091REMSYN070AAXX  02184 83096 32695 10513 10286 20223 30105 40112 81100 333 59009;EQDQ01  00002PRCP99
0192830960999992002020300004-10910-037050FM-12+000699999V0200901N003612200019N0020001N1+02771+02371101141ADDAA199000091GF101991011001012501001001KA1240M+03001MA1999999101071MD1999999-0051REMSYN082AAXX  03004 83096 32695 10907 10277 20237 30107 40114 81000 333 10300 29072 59005;EQDQ01  00002PRCP99
0186830960999992002020312004-10910-037050FM-12+000699999V0200501N004610450019N0020001N1+02731+02221101311ADDAA199000091GF107991021051012501031011KA1240N+02241MA1999999101241MD1999999-0101REMSYN076AAXX  03124 83096 32695 70509 10273 20222 30124 40131 82531 333 20224 59010;EQDQ01  00002PRCP99
0183830960999992002020318004-10910-037050FM-12+000699999V0200901N004110120019N0020001N1+02811+02221100981ADDAA199000091GF107991999051012501001001MA1999999100911MD1999999-0141REMSYN070AAXX  03184 83096 32695 70908 10281 20222 30091 40098 86500 333 59014;EQDQ01+000062SCOTLCQ02  00002PRCP99
0198830960999992002020400004-10910-037050FM-12+000699999V0200901N004112200019N0020001N1+02691+02391101191ADDAA199000091GF103991031051012501001001KA1240M+03001MA1999999101121MD1999999+0051REMSYN088AAXX  04004 83096 32695 30908 10269 20239 30112 40119 83500 333 10300 29078 55090 58005;EQDQ01  00002PRCP99
0186830960999992002020412004-10910-037050FM-12+000699999V0200501N004110120019N0020001N1+02811+02311101401ADDAA199000091GF107991071051012501001001KA1240N+02421MA1999999101331MD1999999+0091REMSYN076AAXX  04124 83096 32695 70508 10281 20231 30133 40140 87500 333 20242 58009;EQDQ01  00002PRCP99
0182830960999992002020418004-10910-037050FM-12+000699999V0203601N002110075019N0020001N1+02501+02271101221ADDAA106003091AY161061AY261061GF107991071051008001001001MA1999999101151MD1999999+0141MW1201REMSYN082AAXX  04184 83096 21595 73604 10250 20227 30115 40122 72066 87500 333 58014 60031;
0179830960999992002020500004-10910-037050FM-12+000699999V0200501N003110120019N0020001N1+02631+02371101211ADDAA199000021GF106991061051012501001001KA1240M+03011MA1999999101141MD1999999+0021REMSYN088AAXX  05004 83096 32695 60506 10263 20237 30114 40121 86500 333 10301 29083 55037 58002;
0173830960999992002020512004-10910-037050FM-12+000699999V0200501N002112200019N0020001N1+02731+02521101481ADDAA124003091GF104991021011012501001011KA1240N+02511MA1999999101411MD1999999+0081REMSYN082AAXX  05124 83096 22695 40504 10273 20252 30141 40148 82101 333 20251 58008 60034;
0167830960999992002020518004-10910-037050FM-12+000699999V0201401N002110120019N0020001N1+02791+02441101261ADDAA199000091GF106991061001012501021001MA1999999101191MD1999999+0041REMSYN070AAXX  05184 83096 32695 61404 10279 20244 30119 40126 86020 333 58004;EQDQ01  00002PRCP99
0213830960999992002020600004-10910-037050FM-12+000699999V0203601N001510075019N0020001N1+02341+02261101551ADDAA106020191AY161061AY261061GF108991081071008001999999KA1240M+02961MA1999999101481MD1999999+0241MW1601REMSYN100AAXX  06004 83096 21595 83603 10234 20226 30148 40155 76066 887// 333 10296 29090 55024 58024 60201;
0201830960999992002020612004-10910-037050FM-12+000699999V0201801N001510120019N0020001N1+02701+02391101471ADDAA124023991AY161061AY261061GF106991061001012501021001KA1240N+02331MA1999999101401MD1999999-0011MW1201REMSYN088AAXX  06124 83096 21695 61803 10270 20239 30140 40147 72066 86020 333 20233 59001 60244;
0148830960999992002020618004-10910-037050FM-12+000699999V0200901N003110120019N0020001N1+02691+02501101251ADDAA199000021GF107991071001012501021001MA1999999101181MD1999999-0011REMSYN070AAXX  06184 83096 32695 70906 10269 20250 30118 40125 87020 333 59001;
0167830960999992002020718004-10910-037050FM-12+000699999V0201401N002610450019N0020001N1+02901+02341101271ADDAA199000091GF106991031051012501031001MA1999999101201MD1999999+0021REMSYN070AAXX  07184 83096 32695 61405 10290 20234 30120 40127 83530 333 58002;EQDQ01  00002PRCP99
0198830960999992002020800004-10910-037050FM-12+000699999V0200901N003112200019N0020001N1+02671+02311101371ADDAA199000091GF102991021051012501001001KA1240M+03021MA1999999101301MD1999999-0111REMSYN088AAXX  08004 83096 32695 20906 10267 20231 30130 40137 82500 333 10302 29077 55071 59011;EQDQ01  00002PRCP99
0201830960999992002020812004-10910-037050FM-12+000699999V0200901N002612200019N0020001N1+02871+02111101491ADDAA124001091AY161061AY261061GF101991011011012501001001KA1240N+02491MA1999999101421MD1999999-0061MW1201REMSYN088AAXX  08124 83096 21695 10905 10287 20211 30142 40149 72066 81100 333 20249 59006 60014;
0148830960999992002020818004-10910-037050FM-12+000699999V0201401N003112200019N0020001N1+02891+02211101181ADDAA199000021GF101991011011012501001001MA1999999101111MD1999999-0091REMSYN070AAXX  08184 83096 32695 11406 10289 20221 30111 40118 81100 333 59009;
0179830960999992002020900004-10910-037050FM-12+000699999V0201801N002110120019N0020001N1+02691+02311101361ADDAA199000021GF106991061051012501001001KA1240M+03031MA1999999101291MD1999999-0011REMSYN088AAXX  09004 83096 32695 61804 10269 20231 30129 40136 86500 333 10303 29071 55109 59001;
0201830960999992002020912004-10910-037050FM-12+000699999V0200901N002112200019N0020001N1+02821+02401101451ADDAA124002091AY161061AY261061GF103991031011012501001001KA1240N+02331MA1999999101381MD1999999-0041MW1211REMSYN088AAXX  09124 83096 21695 30904 10282 20240 30138 40145 72166 83100 333 20233 59004 60024;
0148830960999992002020918004-10910-037050FM-12+000699999V0201401N003112200019N0020001N1+02811+02341101301ADDAA199000021GF105991021011012501001011MA1999999101231MD1999999+0121REMSYN070AAXX  09184 83096 32695 51406 10281 20234 30123 40130 82101 333 58012;
0179830960999992002021000004-10910-037050FM-12+000699999V0200901N001510120019N0020001N1+02651+02311101431ADDAA199000021GF106991061051012501001001KA1240M+02971MA1999999101361MD1999999+0071REMSYN088AAXX  10004 83096 32695 60903 10265 20231 30136 40143 86500 333 10297 29079 55102 58007;
0167830960999992002021018004-10910-037050FM-12+000699999V0201401N003112200019N0020001N1+02851+02421101301ADDAA199000091GF103991031001012501001011MA1999999101231MD1999999+0001REMSYN070AAXX  10184 83096 32695 31406 10285 20242 30123 40130 83001 333 58000;EQDQ01  00002PRCP99
0198830960999992002021100004-10910-037050FM-12+000699999V0200901N002612200019N0020001N1+02681+02351101431ADDAA199000091GF101991011011012501001001KA1240M+03011MA1999999101361MD1999999+0001REMSYN088AAXX  11004 83096 32695 10905 10268 20235 30136 40143 81100 333 10301 29080 55102 58000;EQDQ01  00002PRCP99
0201830960999992002021112004-10910-037050FM-12+000699999V0200901N003110075019N0020001N1+02531+02421101451ADDAA124005191AY161061AY261061GF108991081051008001999999KA1240N+02351MA1999999101381MD1999999-0081MW1601REMSYN088AAXX  11124 83096 21595 80906 10253 20242 30138 40145 76066 885// 333 20235 59008 60054;
0167830960999992002021118004-10910-037050FM-12+000699999V0201401N004112200019N0020001N1+02881+02231101181ADDAA199000021GF103991999051012501001001MA1999999101111MD1999999-0121REMSYN070AAXX  11184 83096 32695 31408 10288 20223 30111 40118 82500 333 59012;EQDQ01+000022SCOTLC
0179830960999992002021200004-10910-037050FM-12+000699999V0201401N003112200019N0020001N1+02721+02341101361ADDAA199000021GF101991011011012501001001KA1240M+03001MA1999999101291MD1999999-0071REMSYN088AAXX  12004 83096 32695 11406 10272 20234 30129 40136 81100 333 10300 29081 55074 59007;
0186830960999992002021212004-10910-037050FM-12+000699999V0201801N002612200019N0020001N1+02861+02211101511ADDAA199000091GF102991021051012501001001KA1240N+02451MA1999999101441MD1999999+0061REMSYN076AAXX  12124 83096 32695 21805 10286 20221 30144 40151 82500 333 20245 58006;EQDQ01  00002PRCP99
0167830960999992002021218004-10910-037050FM-12+000699999V0201801N003112200019N0020001N1+02871+02191101481ADDAA199000091GF102991021051012501001001MA1999999101411MD1999999+0301REMSYN070AAXX  12184 83096 32695 21806 10287 20219 30141 40148 82500 333 58030;EQDQ01  00002PRCP99
0198830960999992002021300004-10910-037050FM-12+000699999V0201801N002112200019N0020001N1+02661+02161101451ADDAA199000091GF101991011011012501001001KA1240M+03031MA1999999101381MD1999999+0091REMSYN088AAXX  13004 83096 32695 11804 10266 20216 30138 40145 81100 333 10303 29071 55111 58009;EQDQ01  00002PRCP99
0186830960999992002021312004-10910-037050FM-12+000699999V0201801N002112200019N0020001N1+02711+02331101391ADDAA199000091GF104991041051012501001001KA1240N+02281MA1999999101321MD1999999-0121REMSYN076AAXX  13124 83096 32695 41804 10271 20233 30132 40139 84500 333 20228 59012;EQDQ01  00002PRCP99
0167830960999992002021318004-10910-037050FM-12+000699999V0200901N002112200019N0020001N1+02771+02341101361ADDAA199000091GF104991041051012501001001MA1999999101291MD1999999-0121REMSYN070AAXX  13184 83096 32695 40904 10277 20234 30129 40136 84500 333 59012;EQDQ01  00002PRCP99
0186830960999992002021412004-10910-037050FM-12+000699999V0200901N003110120019N0020001N1+02901+02561101531ADDAA199000091GF105991051011012501001001KA1240N+02391MA1999999101461MD1999999+0141REMSYN076AAXX  14124 83096 32695 50906 10290 20256 30146 40153 85100 333 20239 58014;EQDQ01  00002PRCP99
0182830960999992002021418004-10910-037050FM-12+000699999V0201401N001510120019N0020001N1+02641+02351101371ADDAA106008991AY161061AY261061GF106991051051012501001011MA1999999101301MD1999999+0011MW1211REMSYN082AAXX  14184 83096 21695 61403 10264 20235 30130 40137 72166 85501 333 58001 60091;
0179830960999992002021500004-10910-037050FM-12+000699999V0200901N002110120019N0020001N1+02601+02331101541ADDAA199000021GF106991061051012501001001KA1240M+03021MA1999999101471MD1999999+0171REMSYN088AAXX  15004 83096 32695 60904 10260 20233 30147 40154 86500 333 10302 29084 55025 58017;
0201830960999992002021512004-10910-037050FM-12+000699999V0201801N003110120019N0020001N1+02691+02261101551ADDAA124009991AY161061AY261061GF106991061051012501001001KA1240N+02241MA1999999101481MD1999999+0021MW1201REMSYN088AAXX  15124 83096 21695 61806 10269 20226 30148 40155 72066 86500 333 20224 58002 60104;
0182830960999992002021518004-10910-037050FM-12+000699999V0200501N002110120019N0020001N1+02591+02291101301ADDAA106003091AY161061AY261061GF107991071051012501001001MA1999999101231MD1999999-0071MW1201REMSYN082AAXX  15184 83096 21695 70504 10259 20229 30123 40130 72066 87500 333 59007 60031;
0179830960999992002021600004-10910-037050FM-12+000699999V0200901N002612200019N0020001N1+02651+02271101431ADDAA199000021GF101991011011012501001001KA1240M+03011MA1999999101361MD1999999-0111REMSYN088AAXX  16004 83096 32695 10905 10265 20227 30136 40143 81100 333 10301 29080 55034 59011;
0201830960999992002021612004-10910-037050FM-12+000699999V0200901N003612200019N0020001N1+02851+02261101601ADDAA124003091AY161061AY261061GF102991011011012501001011KA1240N+02471MA1999999101531MD1999999+0051MW1201REMSYN088AAXX  16124 83096 21695 20907 10285 20226 30153 40160 72066 81101 333 20247 58005 60034;
0148830960999992002021618004-10910-037050FM-12+000699999V0201401N002612200019N0020001N1+02891+02281101351ADDAA199000021GF102991011011012501001011MA1999999101281MD1999999+0051REMSYN070AAXX  16184 83096 32695 21405 10289 20228 30128 40135 81101 333 58005;
0179830960999992002021700004-10910-037050FM-12+000699999V0200901N002612200019N0020001N1+02691+02201101381ADDAA199000021GF101991011011012501001001KA1240M+03031MA1999999101311MD1999999-0051REMSYN088AAXX  17004 83096 32695 10905 10269 20220 30131 40138 81100 333 10303 29073 55099 59005;
0186830960999992002021712004-10910-037050FM-12+000699999V0200901N001512200019N0020001N1+02851+02291101371ADDAA199000091GF103991031011012501001001KA1240N+02391MA1999999101301MD1999999-0231REMSYN076AAXX  17124 83096 32695 30903 10285 20229 30130 40137 83100 333 20239 59023;EQDQ01  00002PRCP99
0167830960999992002021718004-10910-037050FM-12+000699999V0201401N003112200019N0020001N1+02931+02311101291ADDAA199000091GF102991021011012501001001MA1999999101221MD1999999-0061REMSYN070AAXX  17184 83096 32695 21406 10293 20231 30122 40129 82100 333 59006;EQDQ01  00002PRCP99
0198830960999992002021800004-10910-037050FM-12+000699999V0200901N002612200019N0020001N1+02701+02371101321ADDAA199000091GF101991011011012501001001KA1240M+03011MA1999999101251MD1999999-0061REMSYN088AAXX  18004 83096 32695 10905 10270 20237 30125 40132 81100 333 10301 29076 55106 59006;EQDQ01  00002PRCP99
0186830960999992002021812004-10910-037050FM-12+000699999V0200901N002112200019N0020001N1+02891+02441101271ADDAA199000091GF103991031051012501001001KA1240N+02351MA1999999101201MD1999999-0101REMSYN076AAXX  18124 83096 32695 30904 10289 20244 30120 40127 83500 333 20235 59010;EQDQ01  00002PRCP99
0167830960999992002021818004-10910-037050FM-12+000699999V0200901N004612200019N0020001N1+02951+02331101121ADDAA199000091GF101991011001012501001011MA1999999101051MD1999999-0171REMSYN070AAXX  18184 83096 32695 10909 10295 20233 30105 40112 81001 333 59017;EQDQ01  00002PRCP99
0198830960999992002021900004-10910-037050FM-12+000699999V0200901N003112200019N0020001N1+02751+02361101321ADDAA199000091GF101991011011012501001001KA1240M+03091MA1999999101251MD1999999+0001REMSYN088AAXX  19004 83096 32695 10906 10275 20236 30125 40132 81100 333 10309 29076 55113 58000;EQDQ01  00002PRCP99
0201830960999992002021912004-10910-037050FM-12+000699999V0200501N001510120019N0020001N1+02701+02351101471ADDAA124000391AY161061AY261061GF106991061051012501001001KA1240N+02021MA1999999101401MD1999999+0201MW1201REMSYN088AAXX  19124 83096 21695 60503 10270 20235 30140 40147 72066 86500 333 20202 58020 69934;
0148830960999992002021918004-10910-037050FM-12+000699999V0200901N003612200019N0020001N1+02951+02311101221ADDAA199000021GF101991011011012501001001MA1999999101151MD1999999+0101REMSYN070AAXX  19184 83096 32695 10907 10295 20231 30115 40122 81100 333 58010;
0179830960999992002022000004-10910-037050FM-12+000699999V0200901N003112200019N0020001N1+02711+02301101451ADDAA199000021GF101991011011012501001001KA1240M+03051MA1999999101381MD1999999+0131REMSYN088AAXX  20004 83096 32695 10906 10271 20230 30138 40145 81100 333 10305 29077 55092 58013;
0186830960999992002022012004-10910-037050FM-12+000699999V0201401N002112200019N0020001N1+02921+02341101531ADDAA199000091GF102991021051012501001001KA1240N+02451MA1999999101461MD1999999+0061REMSYN076AAXX  20124 83096 32695 21404 10292 20234 30146 40153 82500 333 20245 58006;EQDQ01  00002PRCP99
0167830960999992002022018004-10910-037050FM-12+000699999V0200501N003110120019N0020001N1+02711+02371101251ADDAA199000091GF106991061051012501001001MA1999999101181MD1999999+0031REMSYN070AAXX  20184 83096 32695 60506 10271 20237 30118 40125 86500 333 58003;EQDQ01  00002PRCP99
0198830960999992002022100004-10910-037050FM-12+000699999V0200901N003612200019N0020001N1+02701+02331101351ADDAA199000091GF101991011011012501001001KA1240M+03051MA1999999101281MD1999999-0101REMSYN088AAXX  21004 83096 32695 10907 10270 20233 30128 40135 81100 333 10305 29078 55097 59010;EQDQ01  00002PRCP99
0186830960999992002022112004-10910-037050FM-12+000699999V0200901N002112200019N0020001N1+02891+02321101361ADDAA199000091GF103991031011012501001001KA1240N+02531MA1999999101291MD1999999-0171REMSYN076AAXX  21124 83096 32695 30904 10289 20232 30129 40136 83100 333 20253 59017;EQDQ01  00002PRCP99
0167830960999992002022118004-10910-037050FM-12+000699999V0200901N002112200019N0020001N1+02911+02371101141ADDAA199000091GF102991021011012501001001MA1999999101071MD1999999-0111REMSYN070AAXX  21184 83096 32695 20904 10291 20237 30107 40114 82100 333 59011;EQDQ01  00002PRCP99
0198830960999992002022200004-10910-037050FM-12+000699999V0200901N003112200019N0020001N1+02691+02371101141ADDAA199000091GF102991021011012501001001KA1240M+03041MA1999999101071MD1999999-0211REMSYN088AAXX  22004 83096 32695 20906 10269 20237 30107 40114 82100 333 10304 29077 55104 59021;EQDQ01  00002PRCP99
0186830960999992002022212004-10910-037050FM-12+000699999V0200901N001512200019N0020001N1+02831+02381101281ADDAA199000091GF103991021011012501001011KA1240N+02391MA1999999101211MD1999999-0081REMSYN076AAXX  22124 83096 32695 30903 10283 20238 30121 40128 82101 333 20239 59008;EQDQ01  00002PRCP99
0167830960999992002022218004-10910-037050FM-12+000699999V0200901N005112200019N0020001N1+02951+02281101001ADDAA199000091GF101991011001012501001011MA1999999100931MD1999999-0141REMSYN070AAXX  22184 83096 32695 10910 10295 20228 30093 40100 81001 333 59014;EQDQ01  00002PRCP99
0198830960999992002022300004-10910-037050FM-12+000699999V0200901N004612200019N0020001N1+02711+02321101141ADDAA199000091GF101991011011012501001001KA1240M+03071MA1999999101071MD1999999+0001REMSYN088AAXX  23004 83096 32695 10909 10271 20232 30107 40114 81100 333 10307 29075 55097 58000;EQDQ01  00002PRCP99
0186830960999992002022312004-10910-037050FM-12+000699999V0200501N004112200019N0020001N1+02911+02221101441ADDAA199000091GF101991011011012501001001KA1240N+02301MA1999999101371MD1999999+0161REMSYN076AAXX  23124 83096 32695 10508 10291 20222 30137 40144 81100 333 20230 58016;EQDQ01  00002PRCP99
0167830960999992002022318004-10910-037050FM-12+000699999V0200901N005112200019N0040001N1+02931+02261101101ADDAA199000091GF101991011011012501001001MA1999999101031MD1999999+0101REMSYN070AAXX  23184 83096 32696 10910 10293 20226 30103 40110 81100 333 58010;EQDQ01  00002PRCP99
0198830960999992002022400004-10910-037050FM-12+000699999V0200901N005112200019N0020001N1+02721+02281101321ADDAA199000091GF101991011011012501001001KA1240M+03061MA1999999101251MD1999999+0121REMSYN088AAXX  24004 83096 32695 10910 10272 20228 30125 40132 81100 333 10306 29072 55112 58012;EQDQ01  00002PRCP99
0186830960999992002022412004-10910-037050FM-12+000699999V0200501N003612200019N0020001N1+02901+02251101541ADDAA199000091GF101991011011012501001001KA1240N+02371MA1999999101471MD1999999+0101REMSYN076AAXX  24124 83096 32695 10507 10290 20225 30147 40154 81100 333 20237 58010;EQDQ01  00002PRCP99
0167830960999992002022418004-10910-037050FM-12+000699999V0200901N004612200019N0020001N1+02991+02241101311ADDAA199000091GF101991011011012501001001MA1999999101241MD1999999+0211REMSYN070AAXX  24184 83096 32695 10909 10299 20224 30124 40131 81100 333 58021;EQDQ01  00002PRCP99
0167830960999992002022518004-10910-037050FM-12+000699999V0200901N003612200019N0020001N1+02931+02221101301ADDAA199000091GF101991011011012501001001MA1999999101231MD1999999-0011REMSYN070AAXX  25184 83096 32695 10907 10293 20222 30123 40130 81100 333 59001;EQDQ01  00002PRCP99
0198830960999992002022600004-10910-037050FM-12+000699999V0200901N003612200019N0020001N1+02721+02341101381ADDAA199000091GF101991011011012501001001KA1240M+03081MA1999999101321MD1999999+0011REMSYN088AAXX  26004 83096 32695 10907 10272 20234 30132 40138 81100 333 10308 29074 55111 58001;EQDQ01  00002PRCP99
0186830960999992002022612004-10910-037050FM-12+000699999V0200901N002110120019N0020001N1+02861+02351101381ADDAA199000091GF105991051011012501001001KA1240N+02381MA1999999101311MD1999999-0141REMSYN076AAXX  26124 83096 32695 50904 10286 20235 30131 40138 85100 333 20238 59014;EQDQ01  00002PRCP99
0167830960999992002022618004-10910-037050FM-12+000699999V0200901N003612200019N0020001N1+02951+02361101241ADDAA199000091GF103991031011012501001001MA1999999101171MD1999999-0061REMSYN070AAXX  26184 83096 32695 30907 10295 20236 30117 40124 83100 333 59006;EQDQ01  00002PRCP99
0198830960999992002022700004-10910-037050FM-12+000699999V0200901N003112200019N0020001N1+02731+02391101341ADDAA199000091GF102991021011012501001001KA1240M+03101MA1999999101271MD1999999-0051REMSYN088AAXX  27004 83096 32695 20906 10273 20239 30127 40134 82100 333 10310 29077 55095 59005;EQDQ01  00002PRCP99
0186830960999992002022712004-10910-037050FM-12+000699999V0200901N003112200019N0020001N1+02951+02281101491ADDAA199000091GF105991031011012501001011KA1240N+02301MA1999999101421MD1999999+0111REMSYN076AAXX  27124 83096 32695 50906 10295 20228 30142 40149 83101 333 20230 58011;EQDQ01  00002PRCP99
0167830960999992002022718004-10910-037050FM-12+000699999V0201401N003612200019N0020001N1+02931+02311101291ADDAA199000091GF101991011011012501001001MA1999999101221MD1999999+0051REMSYN070AAXX  27184 83096 32695 11407 10293 20231 30122 40129 81100 333 58005;EQDQ01  00002PRCP99
0198830960999992002022800004-10910-037050FM-12+000699999V0201401N002612200019N0020001N1+02751+02321101391ADDAA199000091GF101991011011012501001001KA1240M+03101MA1999999101321MD1999999+0051REMSYN088AAXX  28004 83096 32695 11405 10275 20232 30132 40139 81100 333 10310 29076 55096 58005;EQDQ01  00002PRCP99
0186830960999992002022812004-10910-037050FM-12+000699999V0200901N004112200019N0020001N1+02931+02271101491ADDAA199000091GF101991011011012501001001KA1240N+02311MA1999999101421MD1999999+0001REMSYN076AAXX  28124 83096 32695 10908 10293 20227 30142 40149 81100 333 20231 58000;EQDQ01  00002PRCP99
0167830960999992002022818004-10910-037050FM-12+000699999V0201401N003112200019N0020001N1+02951+02211101221ADDAA199000091GF101991011011012501001001MA1999999101151MD1999999-0071REMSYN070AAXX  28184 83096 32695 11406 10295 20221 30115 40122 81100 333 59007;EQDQ01  00002PRCP99
0198830960999992002030100004-10910-037050FM-12+000699999V0200901N003612200019N0020001N1+02711+02201101341ADDAA199000091GF101991011011012501001001KA1240M+03071MA1999999101271MD1999999+0051REMSYN088AAXX  01004 83096 32695 10907 10271 20220 30127 40134 81100 333 10307 29070 55107 58005;EQDQ01  00002PRCP99
0186830960999992002030112004-10910-037050FM-12+000699999V0201401N003112200019N0020001N1+02911+02271101351ADDAA199000091GF102991021011012501001001KA1240N+02531MA1999999101281MD1999999-0141REMSYN076AAXX  01124 83096 32695 21406 10291 20227 30128 40135 82100 333 20253 59014;EQDQ01  00002PRCP99
0182830960999992002030118004-10910-037050FM-12+000699999V0201401N002112200019N0020001N1+02871+02521101211ADDAA106000891AY161061AY261061GF103991031051008001001001MA1999999101141MD1999999-0011MW1601REMSYN082AAXX  01184 83096 21595 31404 10287 20252 30114 40121 76066 83500 333 59001 69971;
0167830960999992002030218004-10910-037050FM-12+000699999V0201401N002612200019N0020001N1+02931+02341101141ADDAA199000091GF101991011011012501001001MA1999999101071MD1999999-0071REMSYN070AAXX  02184 83096 32695 11405 10293 20234 30107 40114 81100 333 59007;EQDQ01  00002PRCP99
0201830960999992002030412004-10910-037050FM-12+000699999V0200901N004112200019N0020001N1+02991+02321101401ADDAA124002091AY161061AY261061GF102991021001012501001011KA1240N+02401MA1999999101331MD1999999+0191MW1211REMSYN088AAXX  04124 83096 21695 20908 10299 20232 30133 40140 72166 82001 333 20240 58019 60024;
0179830960999992002030500004-10910-037050FM-12+000699999V0201401N002612200019N0020001N1+02771+02301101311ADDAA199000021GF101991011011012501001001KA1240M+03101MA1999999101241MD1999999+0161REMSYN088AAXX  05004 83096 32695 11405 10277 20230 30124 40131 81100 333 10310 29070 55106 58016;
0201830960999992002030512004-10910-037050FM-12+000699999V0203201N001510120019N0020001N1+02611+02311101381ADDAA124015091AY161061AY261061GF107991071051012501001001KA1240N+02331MA1999999101311MD1999999-0021MW1201REMSYN088AAXX  05124 83096 21695 73203 10261 20231 30131 40138 72066 87500 333 20233 59002 60154;
0182830960999992002030518004-10910-037050FM-12+000699999V0200901N002110075019N0020001N1+02751+02361101291ADDAA106003091AY161061AY261061GF108991081051008001999999MA1999999101221MD1999999+0031MW1201REMSYN082AAXX  05184 83096 21595 80904 10275 20236 30122 40129 72066 885// 333 58003 60031;
0179830960999992002030600004-10910-037050FM-12+000699999V0201801N002110120019N0020001N1+02671+02311101361ADDAA199000021GF106991061051012501001001KA1240M+03071MA1999999101291MD1999999+0051REMSYN088AAXX  06004 83096 32695 61804 10267 20231 30129 40136 86500 333 10307 29082 55016 58005;
0173830960999992002030612004-10910-037050FM-12+000699999V0200901N002610120019N0020001N1+02771+02361101271ADDAA124003091GF105991051051012501001001KA1240N+02431MA1999999101201MD1999999-0111REMSYN082AAXX  06124 83096 22695 50905 10277 20236 30120 40127 85500 333 20243 59011 60034;
0167830960999992002030618004-10910-037050FM-12+000699999V0201401N002112200019N0020001N1+02831+02381101171ADDAA199000091GF103991031011012501001001MA1999999101101MD1999999-0121REMSYN070AAXX  06184 83096 32695 31404 10283 20238 30110 40117 83100 333 59012;EQDQ01  00002PRCP99
0198830960999992002030700004-10910-037050FM-12+000699999V0200901N002112200019N0020001N1+02811+02421101251ADDAA199000091GF102991021011012501001001KA1240M+02991MA1999999101181MD1999999-0111REMSYN088AAXX  07004 83096 32695 20904 10281 20242 30118 40125 82100 333 10299 29079 55043 59011;EQDQ01  00002PRCP99
0186830960999992002030712004-10910-037050FM-12+000699999V0200901N003612200019N0020001N1+02951+02261101401ADDAA199000091GF106991041011012501001011KA1240N+02411MA1999999101331MD1999999+0131REMSYN076AAXX  07124 83096 32695 60907 10295 20226 30133 40140 84101 333 20241 58013;EQDQ01  00002PRCP99
0167830960999992002030718004-10910-037050FM-12+000699999V0200901N003119999999N0020001N1+02971+02301101301ADDAA199000091GF106991061001012501001011MA1999999101231MD1999999+0131REMSYN070AAXX  07184 83096 32695 60906 10297 20230 30123 40130 86001 333 58013;EQDQ01  00002PRCP99
0198830960999992002030800004-10910-037050FM-12+000699999V0200901N003112200019N0020001N1+02751+02341101561ADDAA199000091GF101991011011012501001001KA1240M+03081MA1999999101491MD1999999+0411REMSYN088AAXX  08004 83096 32695 10906 10275 20234 30149 40156 81100 333 10308 29072 55087 58041;EQDQ01  00002PRCP99
0186830960999992002030812004-10910-037050FM-12+000699999V0200901N003112200019N0020001N1+02931+02221101601ADDAA199000091GF102991011011012501001011KA1240N+02341MA1999999101531MD1999999+0201REMSYN076AAXX  08124 83096 32695 20906 10293 20222 30153 40160 81101 333 20234 58020;EQDQ01  00002PRCP99
0167830960999992002030818004-10910-037050FM-12+000699999V0200901N004112200019N0020001N1+02891+02281101351ADDAA199000091GF105991031051012501001011MA1999999101281MD1999999+0051REMSYN070AAXX  08184 83096 32695 50908 10289 20228 30128 40135 83501 333 58005;EQDQ01  00002PRCP99
0198830960999992002030900004-10910-037050FM-12+000699999V0200901N002612200019N0020001N1+02711+02171101461ADDAA199000091GF101991011051012501001001KA1240M+03101MA1999999101391MD1999999-0101REMSYN088AAXX  09004 83096 32695 10905 10271 20217 30139 40146 81500 333 10310 29070 55104 59010;EQDQ01  00002PRCP99
0201830960999992002030912004-10910-037050FM-12+000699999V0200901N002612200019N0020001N1+02791+02181101531ADDAA124004191AY161061AY261061GF104991041051012501001001KA1240N+02371MA1999999101461MD1999999-0071MW1201REMSYN088AAXX  09124 83096 21695 40905 10279 20218 30146 40153 72066 84500 333 20237 59007 60044;
0148830960999992002030918004-10910-037050FM-12+000699999V0201401N003112200019N0020001N1+02911+02071101331ADDAA199000021GF102991011011012501001011MA1999999101261MD1999999-0021REMSYN070AAXX  09184 83096 32695 21406 10291 20207 30126 40133 81101 333 59002;
0179830960999992002031000004-10910-037050FM-12+000699999V0200901N003112200019N0020001N1+02701+02371101531ADDAA199000021GF102991021051012501001001KA1240M+03051MA1999999101461MD1999999+0071REMSYN088AAXX  10004 83096 32695 20906 10270 20237 30146 40153 82500 333 10305 29074 55099 58007;
0173830960999992002031012004-10910-037050FM-12+000699999V0200901N002112200019N0020001N1+02901+02301101511ADDAA124000191GF103991031051012501001001KA1240N+02421MA1999999101441MD1999999-0021REMSYN082AAXX  10124 83096 22695 30904 10290 20230 30144 40151 83500 333 20242 59002 69924;
0198830960999992002031100004-10910-037050FM-12+000699999V0200901N003112200019N0020001N1+02691+02311101361ADDAA199000091GF101991011011012501001001KA1240M+03091MA1999999101291MD1999999-0171REMSYN088AAXX  11004 83096 32695 10906 10269 20231 30129 40136 81100 333 10309 29074 55105 59017;EQDQ01  00002PRCP99
0186830960999992002031112004-10910-037050FM-12+000699999V0200901N003112200019N0020001N1+02851+02291101461ADDAA199000091GF103991031011012501001001KA1240N+02461MA1999999101391MD1999999-0051REMSYN076AAXX  11124 83096 32695 30906 10285 20229 30139 40146 83100 333 20246 59005;EQDQ01  00002PRCP99
0167830960999992002031118004-10910-037050FM-12+000699999V0200901N003112200019N0020001N1+02931+02341101321ADDAA199000091GF104991041011012501001001MA1999999101251MD1999999+0001REMSYN070AAXX  11184 83096 32695 40906 10293 20234 30125 40132 84100 333 58000;EQDQ01  00002PRCP99
0198830960999992002031200004-10910-037050FM-12+000699999V0200901N003112200019N0020001N1+02711+02301101341ADDAA199000091GF102991021051012501001001KA1240M+03081MA1999999101271MD1999999-0021REMSYN088AAXX  12004 83096 32695 20906 10271 20230 30127 40134 82500 333 10308 29075 55075 59002;EQDQ01  00002PRCP99
0186830960999992002031212004-10910-037050FM-12+000699999V0200901N003612200019N0020001N1+02911+02291101531ADDAA199000091GF103991031011012501001001KA1240N+02391MA1999999101461MD1999999+0071REMSYN076AAXX  12124 83096 32695 30907 10291 20229 30146 40153 83100 333 20239 58007;EQDQ01  00002PRCP99
0152830960999992002031218004-10910-037050FM-12+000699999V0200901N003110120019N0020001N1+02851+02331101461ADDAA199000091GF106991061001012501021001MA1999999101391REMSYN069AAXX  12184 83096 32695 60906 10285 20233 30139 40146 86020 33 58014;EQDQ01  00002PRCP99
0198830960999992002031300004-10910-037050FM-12+000699999V0200901N002612200019N0020001N1+02731+02401101681ADDAA199000091GF101991011011012501001001KA1240M+03071MA1999999101611MD1999999+0341REMSYN088AAXX  13004 83096 32695 10905 10273 20240 30161 40168 81100 333 10307 29076 55076 58034;EQDQ01  00002PRCP99
0201830960999992002031312004-10910-037050FM-12+000699999V0200901N002112200019N0020001N1+02911+02301101601ADDAA124002091AY161061AY261061GF101991011011012501001001KA1240N+02361MA1999999101531MD1999999+0071MW1201REMSYN088AAXX  13124 83096 21695 10904 10291 20230 30153 40160 72066 81100 333 20236 58007 60024;
0148830960999992002031318004-10910-037050FM-12+000699999V0201801N003110120019N0020001N1+02901+02321101321ADDAA199000021GF107991071051012501001001MA1999999101251MD1999999-0141REMSYN070AAXX  13184 83096 32695 71806 10290 20232 30125 40132 87500 333 59014;
0179830960999992002031400004-10910-037050FM-12+000699999V0200901N002110120019N0020001N1+02751+02191101451ADDAA199000021GF106991061051012501001001KA1240M+03111MA1999999101381MD1999999-0231REMSYN088AAXX  14004 83096 32695 60904 10275 20219 30138 40145 86500 333 10311 29071 55082 59023;
0186830960999992002031412004-10910-037050FM-12+000699999V0201801N001510120019N0020001N1+02591+02291101291ADDAA199000091GF105991051051012501001001KA1240N+02331MA1999999101221MD1999999-0311REMSYN076AAXX  14124 83096 32695 51803 10259 20229 30122 40129 85500 333 20233 59031;EQDQ01  00002PRCP99
0167830960999992002031418004-10910-037050FM-12+000699999V0200901N002112200019N0020001N1+02951+02311101131ADDAA199000091GF103991031011012501001001MA1999999101061MD1999999-0191REMSYN070AAXX  14184 83096 32695 30904 10295 20231 30106 40113 83100 333 59019;EQDQ01  00002PRCP99
0198830960999992002031500004-10910-037050FM-12+000699999V0200901N001512200019N0020001N1+02711+02281101141ADDAA199000091GF101991011011012501001001KA1240M+03021MA1999999101071MD1999999-0311REMSYN088AAXX  15004 83096 32695 10903 10271 20228 30107 40114 81100 333 10302 29077 55065 59031;EQDQ01  00002PRCP99
0186830960999992002031512004-10910-037050FM-12+000699999V0200901N001512200019N0020001N1+02941+02311101431ADDAA199000091GF101991011011012501001001KA1240N+02411MA1999999101361MD1999999+0141REMSYN076AAXX  15124 83096 32695 10903 10294 20231 30136 40143 81100 333 20241 58014;EQDQ01  00002PRCP99
0167830960999992002031518004-10910-037050FM-12+000699999V0200901N004112200019N0020001N1+02961+02311101061ADDAA199000091GF101991011011012501001001MA1999999100991MD1999999-0071REMSYN070AAXX  15184 83096 32695 10908 10296 20231 30099 40106 81100 333 59007;EQDQ01  00002PRCP99
0198830960999992002031600004-10910-037050FM-12+000699999V0200901N003612200019N0020001N1+02741+02361101251ADDAA199000091GF101991011011012501001001KA1240M+03091MA1999999101181MD1999999+0111REMSYN088AAXX  16004 83096 32695 10907 10274 20236 30118 40125 81100 333 10309 29074 55105 58011;EQDQ01  00002PRCP99
0186830960999992002031612004-10910-037050FM-12+000699999V0200501N002112200019N0020001N1+02781+02401101301ADDAA199000091GF103991031051012501001001KA1240N+02301MA1999999101221MD1999999-0141REMSYN076AAXX  16124 83096 32695 30504 10278 20240 30122 40130 83500 333 20230 59014;EQDQ01  00002PRCP99
0167830960999992002031618004-10910-037050FM-12+000699999V0200901N003112200019N0020001N1+02951+02451101281ADDAA199000091GF102991021011012501001001MA1999999101211MD1999999-0021REMSYN070AAXX  16184 83096 32695 20906 10295 20245 30121 40128 82100 333 59002;EQDQ01  00002PRCP99
0198830960999992002031700004-10910-037050FM-12+000699999V0200901N003612200019N0020001N1+02751+02381101141ADDAA199000091GF102991021011012501001001KA1240M+03081MA1999999101071MD1999999-0111REMSYN088AAXX  17004 83096 32695 20907 10275 20238 30107 40114 82100 333 10308 29079 55103 59011;EQDQ01  00002PRCP99
0186830960999992002031712004-10910-037050FM-12+000699999V0200901N002112200019N0020001N1+02931+02361101221ADDAA199000091GF104991041011012501001001KA1240N+02411MA1999999101181MD1999999-0041REMSYN076AAXX  17124 83096 32695 40904 10293 20236 30118 40122 84100 333 20241 59004;EQDQ01  00002PRCP99
0167830960999992002031718004-10910-037050FM-12+000699999V0200901N003112200019N0020001N1+02991+02421101121ADDAA199000091GF101991011011012501001001MA1999999101051MD1999999+0081REMSYN070AAXX  17184 83096 32695 10906 10299 20242 30105 40112 81100 333 58008;EQDQ01  00002PRCP99
0198830960999992002031800004-10910-037050FM-12+000699999V0200901N003612200019N0020001N1+02771+02401101081ADDAA199000091GF103991031011012501001001KA1240M+03091MA1999999101011MD1999999-0061REMSYN088AAXX  18004 83096 32695 30907 10277 20240 30101 40108 83100 333 10309 29076 55097 59006;EQDQ01  00002PRCP99
0186830960999992002031812004-10910-037050FM-12+000699999V0200901N001510120019N0020001N1+02941+02561101341ADDAA199000091GF107991071051012501001001KA1240N+02451MA1999999101271MD1999999+0091REMSYN076AAXX  18124 83096 32695 70903 10294 20256 30127 40134 87500 333 20245 58009;EQDQ01  00002PRCP99
0167830960999992002031818004-10910-037050FM-12+000699999V0200901N002110120019N0020001N1+02831+02501101111ADDAA199000091GF107991071051012501001001MA1999999101041MD1999999-0011REMSYN070AAXX  18184 83096 32695 70904 10283 20250 30104 40111 87500 333 59001;EQDQ01  00002PRCP99
0198830960999992002031900004-10910-037050FM-12+000699999V0200901N003112200019N0020001N1+02671+02391101171ADDAA199000091GF101991011011012501001001KA1240M+03071MA1999999101101MD1999999+0091REMSYN088AAXX  19004 83096 32695 10906 10267 20239 30110 40117 81100 333 10307 29083 55056 58009;EQDQ01  00002PRCP99
0186830960999992002031912004-10910-037050FM-12+000699999V0201801N001510120019N0020001N1+02671+02351101191ADDAA199000091GF106991061051012501001001KA1240N+02451MA1999999101121MD1999999-0151REMSYN076AAXX  19124 83096 32695 61803 10267 20235 30112 40119 86500 333 20245 59015;EQDQ01  00002PRCP99
0167830960999992002031918004-10910-037050FM-12+000699999V0200901N003112200019N0020001N1+02991+02371101021ADDAA199000091GF104991041011012501001001MA1999999100951MD1999999-0091REMSYN070AAXX  19184 83096 32695 40906 10299 20237 30095 40102 84100 333 59009;EQDQ01  00002PRCP99
0198830960999992002032000004-10910-037050FM-12+000699999V0200901N003112200019N0020001N1+02751+02301101041ADDAA199000091GF102991021051012501001001KA1240M+03101MA1999999100971MD1999999-0131REMSYN088AAXX  20004 83096 32695 20906 10275 20230 30097 40104 82500 333 10310 29077 55045 59013;EQDQ01  00002PRCP99
0186830960999992002032012004-10910-037050FM-12+000699999V0200901N003112200019N0020001N1+02951+02331101391ADDAA199000091GF104991021011012501001011KA1240N+02471MA1999999101321MD1999999+0201REMSYN076AAXX  20124 83096 32695 40906 10295 20233 30132 40139 82101 333 20247 58020;EQDQ01  00002PRCP99
0167830960999992002032018004-10910-037050FM-12+000699999V0200901N003610120019N0020001N1+02951+02281101071ADDAA199000091GF106991061001012501021001MA1999999101001MD1999999+0051REMSYN070AAXX  20184 83096 32695 60907 10295 20228 30100 40107 86020 333 58005;EQDQ01  00002PRCP99
0198830960999992002032100004-10910-037050FM-12+000699999V0200901N004112200019N0020001N1+02771+02341101171ADDAA199000091GF102991021011012501001001KA1240M+03111MA1999999101101MD1999999+0131REMSYN088AAXX  21004 83096 32695 20908 10277 20234 30110 40117 82100 333 10311 29072 55077 58013;EQDQ01  00002PRCP99
0186830960999992002032112004-10910-037050FM-12+000699999V0200501N001512200019N0020001N1+03011+02291101311ADDAA199000091GF102991021051012501001001KA1240N+02371MA1999999101241MD1999999-0081REMSYN076AAXX  21124 83096 32695 20503 10301 20229 30124 40131 82500 333 20237 59008;EQDQ01  00002PRCP99
0167830960999992002032118004-10910-037050FM-12+000699999V0200901N003112200019N0020001N1+03011+02371100981ADDAA199000091GF103991011011012501031011MA1999999100911MD1999999-0091REMSYN070AAXX  21184 83096 32695 30906 10301 20237 30091 40098 81131 333 59009;EQDQ01  00002PRCP99
0198830960999992002032200004-10910-037050FM-12+000699999V0200901N003612200019N0020001N1+02761+02461101141ADDAA199000091GF102991021011012501001001KA1240M+03141MA1999999101071MD1999999-0031REMSYN088AAXX  22004 83096 32695 20907 10276 20246 30107 40114 82100 333 10314 29076 55094 59003;EQDQ01  00002PRCP99
0186830960999992002032212004-10910-037050FM-12+000699999V0200901N002112200019N0020001N1+02931+02321101171ADDAA199000091GF103991031011012501001001KA1240N+02451MA1999999101101MD1999999-0141REMSYN076AAXX  22124 83096 32695 30904 10293 20232 30110 40117 83100 333 20245 59014;EQDQ01  00002PRCP99
0167830960999992002032218004-10910-037050FM-12+000699999V0200901N003612200019N0020001N1+02991+02351101021ADDAA199000091GF102991021011012501001001MA1999999100951MD1999999+0041REMSYN070AAXX  22184 83096 32695 20907 10299 20235 30095 40102 82100 333 58004;EQDQ01  00002PRCP99
0198830960999992002032300004-10910-037050FM-12+000699999V0200901N003612200019N0020001N1+02771+02301101241ADDAA199000091GF102991021011012501001001KA1240M+03101MA1999999101191MD1999999+0101REMSYN088AAXX  23004 83096 32695 20907 10277 20230 30119 40124 82100 333 10310 29073 55106 58010;EQDQ01  00002PRCP99
0186830960999992002032312004-10910-037050FM-12+000699999V0200901N003612200019N0020001N1+02981+02251101401ADDAA199000091GF103991031011012501001001KA1240N+02331MA1999999101331MD1999999+0231REMSYN076AAXX  23124 83096 32695 30907 10298 20225 30133 40140 83100 333 20233 58023;EQDQ01  00002PRCP99
0167830960999992002032318004-10910-037050FM-12+000699999V0201401N002612200019N0020001N1+02991+02321101201ADDAA199000091GF101991011001012501001011MA1999999101131MD1999999+0121REMSYN070AAXX  23184 83096 32695 11405 10299 20232 30113 40120 81001 333 58012;EQDQ01  00002PRCP99
0199830960999992002032400004-10910-037050FM-12+000699999V0200901N002612200019N0020001N1+02761+02301101271ADDAA199000091GF101991011011012501001001KA1240M+03361MD1999999+0031REMSYN088AAXX  24004 83096 32695 10905 10276 20230 32012 40127 81100 333 10336 29071 55110 58003;EQDQ01+020121APOSP Q02  00002PRCP99
0201830960999992002032412004-10910-037050FM-12+000699999V0200901N003112200019N0020001N1+02951+02311101401ADDAA124001091AY161061AY261061GF101991011011012501001001KA1240N+02331MA1999999101331MD1999999+0001MW1211REMSYN088AAXX  24124 83096 21695 10906 10295 20231 30133 40140 72166 81100 333 20233 58000 60014;
0148830960999992002032418004-10910-037050FM-12+000699999V0200901N005112200019N0020001N1+02991+02171101191ADDAA199000021GF101991011011012501001001MA1999999101121MD1999999-0011REMSYN070AAXX  24184 83096 32695 10910 10299 20217 30112 40119 81100 333 59001;
0179830960999992002032500004-10910-037050FM-12+000699999V0200901N003112200019N0020001N1+02751+02341101311ADDAA199000021GF101991011011012501001001KA1240M+03121MA1999999101241MD1999999-0041REMSYN088AAXX  25004 83096 32695 10906 10275 20234 30124 40131 81100 333 10312 29071 55109 59004;
0186830960999992002032512004-10910-037050FM-12+000699999V0200901N004112200019N0020001N1+02991+02221101321ADDAA199000091GF101991011011012501001001KA1240N+02331MA1999999101251MD1999999-0081REMSYN076AAXX  25124 83096 32695 10908 10299 20222 30125 40132 81100 333 20233 59008;EQDQ01  00002PRCP99
0167830960999992002032518004-10910-037050FM-12+000699999V0200901N004612200019N0020001N1+02971+02171101091ADDAA199000091GF101991011001012501001011MA1999999101021MD1999999-0101REMSYN070AAXX  25184 83096 32695 10909 10297 20217 30102 40109 81001 333 59010;EQDQ01  00002PRCP99
0198830960999992002032600004-10910-037050FM-12+000699999V0200901N003112200019N0020001N1+02751+02161101311ADDAA199000091GF101991011011012501001001KA1240M+03141MA1999999101241MD1999999+0001REMSYN088AAXX  26004 83096 32695 10906 10275 20216 30124 40131 81100 333 10314 29066 55099 58000;EQDQ01  00002PRCP99
0201830960999992002032612004-10910-037050FM-12+000699999V0200501N003612200019N0020001N1+02981+02231101341ADDAA124000591AY161061AY261061GF102991021051012501001001KA1240N+02321MA1999999101271MD1999999+0021MW1201REMSYN088AAXX  26124 83096 21695 20507 10298 20223 30127 40134 72066 82500 333 20232 58002 69944;
0148830960999992002032618004-10910-037050FM-12+000699999V0201401N003112200019N0020001N1+02911+02341101111ADDAA199000021GF102991021051012501001001MA1999999101041MD1999999+0021REMSYN070AAXX  26184 83096 32695 21406 10291 20234 30104 40111 82500 333 58002;
0179830960999992002032700004-10910-037050FM-12+000699999V0200901N005112200019N0020001N1+02791+02421101241ADDAA199000021GF101991011011012501001001KA1240M+03151MA1999999101171MD1999999-0071REMSYN088AAXX  27004 83096 32695 10910 10279 20242 30117 40124 81100 333 10315 29074 55106 59007;
0186830960999992002032712004-10910-037050FM-12+000699999V0200901N003112200019N0020001N1+02951+02331101351ADDAA199000091GF102991021011012501001001KA1240N+02461MA1999999101281MD1999999+0011REMSYN076AAXX  27124 83096 32695 20906 10295 20233 30128 40135 82100 333 20246 58001;EQDQ01  00002PRCP99
0167830960999992002032718004-10910-037050FM-12+000699999V0201401N003112200019N0020001N1+02991+02351101221ADDAA199000091GF102991021011012501001001MA1999999101151MD1999999+0111REMSYN070AAXX  27184 83096 32695 21406 10299 20235 30115 40122 82100 333 58011;EQDQ01  00002PRCP99
0198830960999992002032800004-10910-037050FM-12+000699999V0200901N002612200019N0020001N1+02771+02321101441ADDAA199000091GF103991031051012501001001KA1240M+03041MA1999999101371MD1999999+0201REMSYN088AAXX  28004 83096 32695 30905 10277 20232 30137 40144 83500 333 10304 29073 55109 58020;EQDQ01  00002PRCP99
0186830960999992002032812004-10910-037050FM-12+000699999V0201401N003612200019N0020001N1+02811+02401101501ADDAA199000091GF105991031011012501001011KA1240N+02331MA1999999101431MD1999999+0151REMSYN076AAXX  28124 83096 32695 51407 10281 20240 30143 40150 83101 333 20233 58015;EQDQ01  00002PRCP99
0182830960999992002032818004-10910-037050FM-12+000699999V0200901N001019999999N0020001N1+02541+02351101261ADDAA106002091AY161061AY261061GF108991081999008001071999MA1999999101191MD1999999+0041MW1601REMSYN082AAXX  28184 83096 21595 80902 10254 20235 30119 40126 76066 88/7/ 333 58004 60021;
0213830960999992002032900004-10910-037050FM-12+000699999V0201401N001510120019N0020001N1+02741+02241101331ADDAA106002091AY161061AY261061GF105991051051012501001001KA1240M+02971MA1999999101261MD1999999-0111MW1601REMSYN100AAXX  29004 83096 21695 51403 10274 20224 30126 40133 76066 85500 333 10297 29079 55013 59011 60021;
0201830960999992002032912004-10910-037050FM-12+000699999V0201401N003112200019N0020001N1+02791+02401101471ADDAA124010991AY161061AY261061GF102991021051012501001001KA1240N+02281MA1999999101401MD1999999-0031MW1201REMSYN088AAXX  29124 83096 21695 21406 10279 20240 30140 40147 72066 82500 333 20228 59003 60114;
0148830960999992002032918004-10910-037050FM-12+000699999V0201801N003110450019N0020001N1+02851+02241101131ADDAA199000021GF106991041051012501031001MA1999999101061MD1999999-0131REMSYN070AAXX  29184 83096 32695 61806 10285 20224 30106 40113 84530 333 59013;
0213830960999992002033000004-10910-037050FM-12+000699999V0201801N001010075019N0020001N1+02571+02231101411ADDAA106007191AY161061AY261061GF107991071051008001001001KA1240M+03051MA1999999101341MD1999999+0081MW1201REMSYN100AAXX  30004 83096 21595 71802 10257 20223 30134 40141 72066 87500 333 10305 29078 55082 58008 60071;
0201830960999992002033012004-10910-037050FM-12+000699999V0200901N003110450019N0020001N1+02911+02321101471ADDAA124015091AY161061AY261061GF106991041051008001031001KA1240N+02391MA1999999101401MD1999999+0001MW1201REMSYN088AAXX  30124 83096 21595 60906 10291 20232 30140 40147 72066 84530 333 20239 58000 60154;
0148830960999992002033018004-10910-037050FM-12+000699999V0200901N003612200019N0020001N1+02951+02331101141ADDAA199000021GF102991021051012501001001MA1999999101071MD1999999+0011REMSYN070AAXX  30184 83096 32695 20907 10295 20233 30107 40114 82500 333 58001;
0179830960999992002033100004-10910-037050FM-12+000699999V0200901N002612200019N0020001N1+02701+02411101401ADDAA199000021GF101991011011012501001001KA1240M+03091MA1999999101331MD1999999-0011REMSYN088AAXX  31004 83096 32695 10905 10270 20241 30133 40140 81100 333 10309 29077 55096 59001;
0201830960999992002033112004-10910-037050FM-12+000699999V0200901N003612200019N0020001N1+02951+02331101521ADDAA124000891AY161061AY261061GF102991021011008001001001KA1240N+02471MA1999999101451MD1999999+0051MW1201REMSYN088AAXX  31124 83096 21595 20907 10295 20233 30145 40152 72066 82100 333 20247 58005 69984;
0148830960999992002033118004-10910-037050FM-12+000699999V0200901N003112200019N0020001N1+02911+02271101251ADDAA199000021GF102991021051012501001001MA1999999101181MD1999999+0111REMSYN070AAXX  31184 83096 32695 20906 10291 20227 30118 40125 82500 333 58011;
0213830960999992002040100004-10910-037050FM-12+000699999V0200501N002612200019N0020001N1+02591+02291101411ADDAA106001091AY161061AY261061GF102991021051012501001001KA1240M+03121MA1999999101341MD1999999+0011MW1201REMSYN100AAXX  01004 83096 21695 20505 10259 20229 30134 40141 72066 82500 333 10312 29077 55060 58001 60011;
0201830960999992002040112004-10910-037050FM-12+000699999V0200901N003112200019N0020001N1+02831+02381101271ADDAA124002091AY161061AY261061GF103991031051012501001001KA1240N+02451MA1999999101201MD1999999-0251MW1201REMSYN088AAXX  01124 83096 21695 30906 10283 20238 30120 40127 72066 83500 333 20245 59025 60024;
0182830960999992002040118004-10910-037050FM-12+000699999V0201401N003110120019N0020001N1+02831+02381101161ADDAA106000191AY161061AY261061GF105991051011012501001001MA1999999101091MD1999999-0251MW1201REMSYN082AAXX  01184 83096 21695 51406 10283 20238 30109 40116 72066 85100 333 59025 69921;
0179830960999992002040200004-10910-037050FM-12+000699999V0200901N002612200019N0020001N1+02731+02321101351ADDAA199000021GF102991021011012501001001KA1240M+03061MA1999999101281MD1999999-0061REMSYN088AAXX  02004 83096 32695 20905 10273 20232 30128 40135 82100 333 10306 29078 55022 59006;
0201830960999992002040212004-10910-037050FM-12+000699999V0200901N003112200019N0040001N1+02921+02291101451ADDAA124006191AY161061AY261061GF102991021001012501041001KA1240N+02371MA1999999101381MD1999999+0181MW1211REMSYN088AAXX  02124 83096 21696 20906 10292 20229 30138 40145 72166 82040 333 20237 58018 60064;
0148830960999992002040218004-10910-037050FM-12+000699999V0200901N003110120019N0020001N1+02951+02351101231ADDAA199000021GF106991061051012501001001MA1999999101161MD1999999+0071REMSYN070AAXX  02184 83096 32695 60906 10295 20235 30116 40123 86500 333 58007;
0179830960999992002040300004-10910-037050FM-12+000699999V0200901N002612200019N0020001N1+02751+02421101471ADDAA199000021GF104991041051012501001001KA1240M+03081MA1999999101401MD1999999+0121REMSYN088AAXX  03004 83096 32695 40905 10275 20242 30140 40147 84500 333 10308 29076 55079 58012;
0186830960999992002040312004-10910-037050FM-12+000699999V0200901N002612200019N0020001N1+02931+02321101571ADDAA199000091GF103991031051012501001001KA1240N+02331MA1999999101501MD1999999+0121REMSYN076AAXX  03124 83096 32695 30905 10293 20232 30150 40157 83500 333 20233 58012;EQDQ01  00002PRCP99
0167830960999992002040318004-10910-037050FM-12+000699999V0200501N001010450019N0020001N1+02701+02301101321ADDAA199000091GF106991041051012501031001MA1999999101251MD1999999+0091REMSYN070AAXX  03184 83096 32695 60502 10270 20230 30125 40132 84530 333 58009;EQDQ01  00002PRCP99
0198830960999992002040400004-10910-037050FM-12+000699999V0201401N002610120019N0020001N1+02691+02171101461ADDAA199000091GF106991061051012501001001KA1240M+03091MA1999999101391MD1999999-0011REMSYN088AAXX  04004 83096 32695 61405 10269 20217 30139 40146 86500 333 10309 29074 55051 59001;EQDQ01  00002PRCP99
0201830960999992002040412004-10910-037050FM-12+000699999V0200901N001510075019N0010001N1+02431+02251101391ADDAA124007191AY161061AY261061GF108991081051008001999999KA1240N+02351MA1999999101321MD1999999-0181MW1601REMSYN088AAXX  04124 83096 21594 80903 10243 20225 30132 40139 76066 885// 333 20235 59018 60074;
0182830960999992002040418004-10910-037050FM-12+000699999V0200901N002110120019N0020001N1+02791+02361101171ADDAA106000591AY161061AY261061GF105991051051012501001001MA1999999101101MD1999999-0151MW1201REMSYN082AAXX  04184 83096 21695 50904 10279 20236 30110 40117 72066 85500 333 59015 69941;
0179830960999992002040500004-10910-037050FM-12+000699999V0201801N001512200019N0020001N1+02691+02351101171ADDAA199000021GF103991031051012501001001KA1240M+02911MA1999999101101MD1999999-0291REMSYN088AAXX  05004 83096 32695 31803 10269 20235 30110 40117 83500 333 10291 29083 55008 59029;
0173830960999992002040512004-10910-037050FM-12+000699999V0201401N001512200019N0020001N1+02931+02331101351ADDAA124000591GF102991021011012501001001KA1240N+02361MA1999999101281MD1999999-0041REMSYN082AAXX  05124 83096 22695 21403 10293 20233 30128 40135 82100 333 20236 59004 69944;
0167830960999992002040518004-10910-037050FM-12+000699999V0201401N003112200019N0020001N1+02851+02331101011ADDAA199000091GF102991021001012501001011MA1999999100941MD1999999-0161REMSYN070AAXX  05184 83096 32695 21406 10285 20233 30094 40101 82001 333 59016;EQDQ01  00002PRCP99
0198830960999992002040600004-10910-037050FM-12+000699999V0201401N003112200019N0020001N1+02711+02151101231ADDAA199000091GF102991021011012501001001KA1240M+03051MA1999999101161MD1999999+0061REMSYN088AAXX  06004 83096 32695 21406 10271 20215 30116 40123 82100 333 10305 29071 55084 58006;EQDQ01  00002PRCP99
0186830960999992002040612004-10910-037050FM-12+000699999V0201401N002612200019N0020001N1+02921+02221101251ADDAA199000091GF102991011011012501001011KA1240N+02281MA1999999101181MD1999999-0101REMSYN076AAXX  06124 83096 32695 21405 10292 20222 30118 40125 81101 333 20228 59010;EQDQ01  00002PRCP99
0167830960999992002040618004-10910-037050FM-12+000699999V0200901N002612200019N0020001N1+02881+02161100921ADDAA199000091GF103991021011012501001011MA1999999100851MD1999999-0091REMSYN070AAXX  06184 83096 32695 30905 10288 20216 30085 40092 82101 333 59009;EQDQ01  00002PRCP99
0198830960999992002040700004-10910-037050FM-12+000699999V0201401N001010120019N0020001N1+02671+02411101201ADDAA199000091GF105991051051012501001001KA1240M+03041MA1999999101131MD1999999-0031REMSYN088AAXX  07004 83096 32695 51402 10267 20241 30113 40120 85500 333 10304 29075 55063 59003;EQDQ01  00002PRCP99
0186830960999992002040712004-10910-037050FM-12+000699999V0200901N001512200019N0020001N1+02791+02321101171ADDAA199000091GF105991021051012501001011KA1240N+02301MA1999999101101MD1999999-0081REMSYN076AAXX  07124 83096 32695 50903 10279 20232 30110 40117 82501 333 20230 59008;EQDQ01  00002PRCP99
0167830960999992002040718004-10910-037050FM-12+000699999V0201401N003610120019N0020001N1+02871+02371101001ADDAA199000091GF106991061001012501021001MA1999999100931MD1999999+0081REMSYN070AAXX  07184 83096 32695 61407 10287 20237 30093 40100 86020 333 58008;EQDQ01  00002PRCP99
0198830960999992002040800004-10910-037050FM-12+000699999V0201401N002112200019N0150001N1+02761+02321101221ADDAA199000091GF102991021011999999001001KA1240M+03041MA1999999101151MD1999999+0021REMSYN088AAXX  08004 83096 32965 21404 10276 20232 30115 40122 82100 333 10304 29076 55072 58002;EQDQ01  00002PRCP99
0201830960999992002040812004-10910-037050FM-12+000699999V0200901N001512200019N0020001N1+02911+02301101351ADDAA124000191AY161061AY261061GF102991021011012501001001KA1240N+02371MA1999999101281MD1999999+0181MW1201REMSYN088AAXX  08124 83096 21695 20903 10291 20230 30128 40135 72066 82100 333 20237 58018 69924;
0148830960999992002040818004-10910-037050FM-12+000699999V0200901N003112200019N0020001N1+02921+02341101061ADDAA199000021GF102991011011012501001011MA1999999100991MD1999999+0001REMSYN070AAXX  08184 83096 32695 20906 10292 20234 30099 40106 81101 333 58000;
0179830960999992002040900004-10910-037050FM-12+000699999V0200901N003112200019N0020001N1+02741+02361101131ADDAA199000021GF101991011011012501001001KA1240M+03091MA1999999101061MD1999999-0091REMSYN088AAXX  09004 83096 32695 10906 10274 20236 30106 40113 81100 333 10309 29075 55093 59009;
0186830960999992002040912004-10910-037050FM-12+000699999V0200901N003112200019N0020001N1+02891+02321101171ADDAA199000091GF103991031011012501001001KA1240N+02451MA1999999101101MD1999999-0181REMSYN076AAXX  09124 83096 32695 30906 10289 20232 30110 40117 83100 333 20245 59018;EQDQ01  00002PRCP99
0167830960999992002040918004-10910-037050FM-12+000699999V0200901N003612200019N0020001N1+02951+02361100941ADDAA199000091GF101991011011012501001001MA1999999100871MD1999999-0121REMSYN070AAXX  09184 83096 32695 10907 10295 20236 30087 40094 81100 333 59012;EQDQ01  00002PRCP99
0198830960999992002041000004-10910-037050FM-12+000699999V0200901N003612200019N0020001N1+02731+02301100981ADDAA199000091GF101991011011012501001001KA1240M+03061MA1999999100911MD1999999-0151REMSYN088AAXX  10004 83096 32695 10907 10273 20230 30091 40098 81100 333 10306 29075 55093 59015;EQDQ01  00002PRCP99
0186830960999992002041012004-10910-037050FM-12+000699999V0200901N003112200019N0020001N1+02931+02331101231ADDAA199000091GF102991021011012501001001KA1240N+02301MA1999999101161MD1999999+0061REMSYN076AAXX  10124 83096 32695 20906 10293 20233 30116 40123 82100 333 20230 58006;EQDQ01  00002PRCP99
0167830960999992002041018004-10910-037050FM-12+000699999V0201401N003112200019N0020001N1+02941+02361100971ADDAA199000091GF103991031011012501001011MA1999999100901MD1999999+0031REMSYN070AAXX  10184 83096 32695 31406 10294 20236 30090 40097 83101 333 58003;EQDQ01  00002PRCP99
0198830960999992002041100004-10910-037050FM-12+000699999V0201401N002112200019N0020001N1+02791+02201101211ADDAA199000091GF101991011011012501001001KA1240M+03081MA1999999101141MD1999999+0231REMSYN088AAXX  11004 83096 32695 11404 10279 20220 30114 40121 81100 333 10308 29070 55096 58023;EQDQ01  00002PRCP99
0186830960999992002041112004-10910-037050FM-12+000699999V0200901N003110450019N0020001N1+02801+02381101371ADDAA199000091GF106991041051012501031001KA1240N+02341MA1999999101301MD1999999+0141REMSYN076AAXX  11124 83096 32695 60906 10280 20238 30130 40137 84530 333 20234 58014;EQDQ01  00002PRCP99
0167830960999992002041118004-10910-037050FM-12+000699999V0201401N003110450019N0020001N1+02831+02421101001ADDAA199000091GF107991021051012501031011MA1999999100931MD1999999+0031REMSYN070AAXX  11184 83096 32695 71406 10283 20242 30093 40100 82531 333 58003;EQDQ01  00002PRCP99
0198830960999992002041200004-10910-037050FM-12+000699999V0201401N001512200019N0020001N1+02731+02341101261ADDAA199000091GF101991011011012501001001KA1240M+03061MA1999999101191MD1999999+0051REMSYN088AAXX  12004 83096 32695 11403 10273 20234 30119 40126 81100 333 10306 29079 55024 58005;EQDQ01  00002PRCP99
0186830960999992002041212004-10910-037050FM-12+000699999V0200901N003612200019N0020001N1+02751+02341101271ADDAA199000091GF105991031051012501001011KA1240N+02361MA1999999101201MD1999999-0101REMSYN076AAXX  12124 83096 32695 50907 10275 20234 30120 40127 83501 333 20236 59010;EQDQ01  00002PRCP99
0167830960999992002041218004-10910-037050FM-12+000699999V0200901N002612200019N0020001N1+02951+02381101041ADDAA199000091GF102991021011012501001001MA1999999100971MD1999999+0041REMSYN070AAXX  12184 83096 32695 20905 10295 20238 30097 40104 82100 333 58004;EQDQ01  00002PRCP99
0198830960999992002041300004-10910-037050FM-12+000699999V0200901N001512200019N0020001N1+02751+02321101221ADDAA199000091GF102991021051012501001001KA1240M+03101MA1999999101151MD1999999-0041REMSYN088AAXX  13004 83096 32695 20903 10275 20232 30115 40122 82500 333 10310 29076 55065 59004;EQDQ01  00002PRCP99
0186830960999992002041312004-10910-037050FM-12+000699999V0200901N002112200019N0020001N1+02871+02391101251ADDAA199000091GF102991021051012501001001KA1240N+02411MA1999999101181MD1999999-0021REMSYN076AAXX  13124 83096 32695 20904 10287 20239 30118 40125 82500 333 20241 59002;EQDQ01  00002PRCP99
0167830960999992002041318004-10910-037050FM-12+000699999V0201401N002612200019N0020001N1+02931+02431101101ADDAA199000091GF102991021011012501001001MA1999999101031MD1999999+0061REMSYN070AAXX  13184 83096 32695 21405 10293 20243 30103 40110 82100 333 58006;EQDQ01  00002PRCP99
0198830960999992002041400004-10910-037050FM-12+000699999V0200901N002612200019N0020001N1+02711+02281101181ADDAA199000091GF102991021051012501001001KA1240M+03101MA1999999101111MD1999999-0041REMSYN088AAXX  14004 83096 32695 20905 10271 20228 30111 40118 82500 333 10310 29077 55100 59004;EQDQ01  00002PRCP99
0186830960999992002041412004-10910-037050FM-12+000699999V0200901N003612200019N0020001N1+02931+02291101351ADDAA199000091GF103991031011012501001001KA1240N+02421MA1999999101281MD1999999+0101REMSYN076AAXX  14124 83096 32695 30907 10293 20229 30128 40135 83100 333 20242 58010;EQDQ01  00002PRCP99
0167830960999992002041418004-10910-037050FM-12+000699999V0201401N003112200019N0020001N1+02891+02301101111ADDAA199000091GF103991031011012501001001MA1999999101041MD1999999+0011REMSYN070AAXX  14184 83096 32695 31406 10289 20230 30104 40111 83100 333 58001;EQDQ01  00002PRCP99
0198830960999992002041500004-10910-037050FM-12+000699999V0200901N002612200019N0020001N1+02731+02261101321ADDAA199000091GF102991021051012501001001KA1240M+03021MA1999999101251MD1999999+0141REMSYN088AAXX  15004 83096 32695 20905 10273 20226 30125 40132 82500 333 10302 29073 55104 58014;EQDQ01  00002PRCP99
0201830960999992002041512004-10910-037050FM-12+000699999V0200901N002110120019N0020001N1+02631+02481101411ADDAA124008991AY161061AY261061GF106991061021012501001021KA1240N+02301MA1999999101341MD1999999+0061MW1211REMSYN088AAXX  15124 83096 21695 60904 10263 20248 30134 40141 72166 86202 333 20230 58006 60094;
0173830960999992002041612004-10910-037050FM-12+000699999V0200501N001512200019N0020001N1+02791+02341101471ADDAA124000191GF102991021001012501061061KA1240N+02311MA1999999101401MD1999999+0061REMSYN082AAXX  16124 83096 22695 20503 10279 20234 30140 40147 82066 333 20231 58006 69924;
0182830960999992002041618004-10910-037050FM-12+000699999V0201801N002612200019N0020001N1+02891+02321101181ADDAA106002091AY161061AY261061GF101991011011012501001001MA1999999101111MD1999999+0111MW1201REMSYN082AAXX  16184 83096 21695 11805 10289 20232 30111 40118 72066 81100 333 58011 60021;
0179830960999992002041700004-10910-037050FM-12+000699999V0201801N001512200019N0020001N1+02721+02221101451ADDAA199000021GF101991011011012501001001KA1240M+03031MA1999999101381MD1999999+0111REMSYN088AAXX  17004 83096 32695 11803 10272 20222 30138 40145 81100 333 10303 29074 55086 58011;
0198830960999992002041800004-10910-037050FM-12+000699999V0200901N002112200019N0020001N1+02731+02321101341ADDAA199000091GF102991021011012501001001KA1240M+03061MA1999999101271MD1999999-0111REMSYN088AAXX  18004 83096 32695 20904 10273 20232 30127 40134 82100 333 10306 29075 55111 59011;EQDQ01  00002PRCP99
0186830960999992002041812004-10910-037050FM-12+000699999V0201401N003112200019N0020001N1+02951+02231101521ADDAA199000091GF101991011011012501001001KA1240N+02311MA1999999101451MD1999999+0131REMSYN076AAXX  18124 83096 32695 11406 10295 20223 30145 40152 81100 333 20231 58013;EQDQ01  00002PRCP99
0167830960999992002041818004-10910-037050FM-12+000699999V0200901N003612200019N0020001N1+02891+02221101291ADDAA199000091GF101991011011012501001001MA1999999101221MD1999999+0071REMSYN070AAXX  18184 83096 32695 10907 10289 20222 30122 40129 81100 333 58007;EQDQ01  00002PRCP99
0198830960999992002041900004-10910-037050FM-12+000699999V0200901N003112200019N0020001N1+02761+02231101411ADDAA199000091GF101991011011012501001001KA1240M+03061MA1999999101341MD1999999+0071REMSYN088AAXX  19004 83096 32695 10906 10276 20223 30134 40141 81100 333 10306 29070 55085 58007;EQDQ01  00002PRCP99
0186830960999992002041912004-10910-037050FM-12+000699999V0200901N003112200019N0020001N1+02911+02041101381ADDAA199000091GF101991011011012501001001KA1240N+02291MA1999999101311MD1999999-0141REMSYN076AAXX  19124 83096 32695 10906 10291 20204 30131 40138 81100 333 20229 59014;EQDQ01  00002PRCP99
0167830960999992002041918004-10910-037050FM-12+000699999V0201801N003112200019N0020001N1+02901+02101101141ADDAA199000091GF102991021011012501001001MA1999999101071MD1999999-0151REMSYN070AAXX  19184 83096 32695 21806 10290 20210 30107 40114 82100 333 59015;EQDQ01  00002PRCP99
0198830960999992002042000004-10910-037050FM-12+000699999V0201801N002112200019N0020001N1+02781+02181101361ADDAA199000091GF102991021011012501001001KA1240M+03091MA1999999101291MD1999999-0051REMSYN088AAXX  20004 83096 32695 21804 10278 20218 30129 40136 82100 333 10309 29066 55100 59005;EQDQ01  00002PRCP99
0186830960999992002042012004-10910-037050FM-12+000699999V0201801N002612200019N0020001N1+02801+02001101391ADDAA199000091GF101991011011012501001001KA1240N+02321MA1999999101321MD1999999+0011REMSYN076AAXX  20124 83096 32695 11805 10280 20200 30132 40139 81100 333 20232 58001;EQDQ01  00002PRCP99
0167830960999992002042018004-10910-037050FM-12+000699999V0201801N002610120019N0020001N1+02921+02361101101ADDAA199000091GF105991051051012501001001MA1999999101031MD1999999-0041REMSYN070AAXX  20184 83096 32695 51805 10292 20236 30103 40110 85500 333 59004;EQDQ01  00002PRCP99
0213830960999992002042100004-10910-037050FM-12+000699999V0201801N003112200019N0020001N1+02691+02391101341ADDAA106000591AY161061AY261061GF101991011051012501001001KA1240M+03091MA1999999101271MD1999999-0021MW1201REMSYN100AAXX  21004 83096 21695 11806 10269 20239 30127 40134 72066 81500 333 10309 29076 55096 59002 69941;
0201830960999992002042112004-10910-037050FM-12+000699999V0200901N004112200019N0020001N1+02851+02241101491ADDAA124006191AY161061AY261061GF104991021051012501001011KA1240N+02471MA1999999101421MD1999999+0101MW1201REMSYN088AAXX  21124 83096 21695 40908 10285 20224 30142 40149 72066 82501 333 20247 58010 60064;
0179830960999992002042200004-10910-037050FM-12+000699999V0200501N001010120019N0020001N1+02631+02291101341ADDAA199000021GF107991071051012501001001KA1240M+03051MA1999999101271MD1999999+0001REMSYN088AAXX  22004 83096 32695 70502 10263 20229 30127 40134 87500 333 10305 29074 55100 58000;
0201830960999992002042212004-10910-037050FM-12+000699999V0201401N003110120019N0020001N1+02751+02401101201ADDAA124004191AY161061AY261061GF105991051051012501001001KA1240N+02411MA1999999101131MD1999999+0291MW1201REMSYN088AAXX  22124 83096 21695 51406 10275 20240 30113 40120 72066 85500 333 20241 58029 60044;
0182830960999992002042218004-10910-037050FM-12+000699999V0201401N003612200019N0020001N1+02871+02231101161ADDAA106000891AY161061AY261061GF102991021011012501001001MA1999999101091MD1999999+0011MW1201REMSYN082AAXX  22184 83096 21695 21407 10287 20223 30109 40116 72066 82100 333 58001 69981;
0213830960999992002042300004-10910-037050FM-12+000699999V0201801N002612200019N0020001N1+02691+02331101171ADDAA106002091AY161061AY261061GF102991021051012501001001KA1240M+03011MA1999999101101MD1999999+0171MW1201REMSYN100AAXX  23004 83096 21695 21805 10269 20233 30110 40117 72066 82500 333 10301 29078 55082 58017 60021;
0201830960999992002042312004-10910-037050FM-12+000699999V0200901N003112200019N0020001N1+02881+02181101271ADDAA124006191AY161061AY261061GF102991021011012501001001KA1240N+02361MA1999999101201MD1999999+0071MW1211REMSYN088AAXX  23124 83096 21695 20906 10288 20218 30120 40127 72166 82100 333 20236 58007 60064;
0148830960999992002042318004-10910-037050FM-12+000699999V0201401N003612200019N0020001N1+02851+02191101041ADDAA199000021GF102991021011012501001001MA1999999100971MD1999999-0121REMSYN070AAXX  23184 83096 32695 21407 10285 20219 30097 40104 82100 333 59012;
0179830960999992002042400004-10910-037050FM-12+000699999V0200901N003110120019N0020001N1+02651+02221101331ADDAA199000021GF105991051051012501001001KA1240M+02991MA1999999101261MD1999999+0161REMSYN088AAXX  24004 83096 32695 50906 10265 20222 30126 40133 85500 333 10299 29072 55101 58016;
0201830960999992002042412004-10910-037050FM-12+000699999V0201801N002610120019N0020001N1+02791+02231101231ADDAA124001091AY161061AY261061GF106991061051012501001001KA1240N+02281MA1999999101161MD1999999-0041MW1021REMSYN088AAXX  24124 83096 21695 61805 10279 20223 30116 40123 70266 86500 333 20228 59004 60014;
0167830960999992002042418004-10910-037050FM-12+000699999V0201401N002110120019N0020001N1+02781+02301100971ADDAA199000091GF108991081051012501999999MA1999999100901MD1999999-0071REMSYN070AAXX  24184 83096 32695 81404 10278 20230 30090 40097 885// 333 59007;EQDQ01  00002PRCP99
0213830960999992002042500004-10910-037050FM-12+000699999V0200901N003110075019N0020001N1+02611+02231101291ADDAA106000191AY161061AY261061GF107991071051008001001001KA1240M+02971MA1999999101221MD1999999-0041MW1201REMSYN100AAXX  25004 83096 21595 70906 10261 20223 30122 40129 72066 87500 333 10297 29077 55050 59004 69911;
0201830960999992002042512004-10910-037050FM-12+000699999V0200901N002112200019N0020001N1+02731+02301101281ADDAA124003091AY161061AY261061GF102991021011012501001001KA1240N+02431MA1999999101211MD1999999+0051MW1201REMSYN088AAXX  25124 83096 21695 20904 10273 20230 30121 40128 72066 82100 333 20243 58005 60034;
0148830960999992002042518004-10910-037050FM-12+000699999V0201401N002112200019N0020001N1+02811+02381101071ADDAA199000021GF104991041051012501001001MA1999999101001MD1999999+0101REMSYN070AAXX  25184 83096 32695 41404 10281 20238 30100 40107 84500 333 58010;
0179830960999992002042600004-10910-037050FM-12+000699999V0201401N003112200019N0020001N1+02731+02281101171ADDAA199000021GF103991031051012501001001KA1240M+02911MA1999999101101MD1999999-0121REMSYN088AAXX  26004 83096 32695 31406 10273 20228 30110 40117 83500 333 10291 29077 55057 59012;
0186830960999992002042612004-10910-037050FM-12+000699999V0200901N001512200019N0020001N1+02891+02321101451ADDAA199000091GF102991021011012501001001KA1240N+02321MA1999999101381MD1999999+0171REMSYN076AAXX  26124 83096 32695 20903 10289 20232 30138 40145 82100 333 20232 58017;EQDQ01  00002PRCP99
0167830960999992002042618004-10910-037050FM-12+000699999V0201401N002112200019N0020001N1+02871+02371101221ADDAA199000091GF102991021001012501001011MA1999999101151MD1999999+0151REMSYN070AAXX  26184 83096 32695 21404 10287 20237 30115 40122 82001 333 58015;EQDQ01  00002PRCP99
0198830960999992002042700004-10910-037050FM-12+000699999V0201401N002612200019N0020001N1+02721+02171101391ADDAA199000091GF102991021011012501001001KA1240M+03021MA1999999101321MD1999999+0201REMSYN088AAXX  27004 83096 32695 21405 10272 20217 30132 40139 82100 333 10302 29072 55062 58020;EQDQ01  00002PRCP99
0186830960999992002042712004-10910-037050FM-12+000699999V0201401N002612200019N0020001N1+02831+01991101301ADDAA199000091GF102991021011012501001001KA1240N+02371MA1999999101231MD1999999-0151REMSYN076AAXX  27124 83096 32695 21405 10283 20199 30123 40130 82100 333 20237 59015;EQDQ01  00002PRCP99
0167830960999992002042718004-10910-037050FM-12+000699999V0201401N002112200019N0020001N1+02891+02101101161ADDAA199000091GF102991021001012501001011MA1999999101091MD1999999-0061REMSYN070AAXX  27184 83096 32695 21404 10289 20210 30109 40116 82001 333 59006;EQDQ01  00002PRCP99
0198830960999992002042800004-10910-037050FM-12+000699999V0200901N001012200019N0020001N1+02671+02161101281ADDAA199000091GF101991011011012501001001KA1240M+03021MA1999999101211MD1999999-0111REMSYN088AAXX  28004 83096 32695 10902 10267 20216 30121 40128 81100 333 10302 29067 55110 59011;EQDQ01  00002PRCP99
0186830960999992002042812004-10910-037050FM-12+000699999V0201401N002612200019N0020001N1+02911+01951101341ADDAA199000091GF103991031011012501001001KA1240N+02301MA1999999101271MD1999999+0041REMSYN076AAXX  28124 83096 32695 31405 10291 20195 30127 40134 83100 333 20230 58004;EQDQ01  00002PRCP99
0167830960999992002042818004-10910-037050FM-12+000699999V0201401N003112200019N0020001N1+02851+02141101241ADDAA199000091GF102991021011012501001001MA1999999101171MD1999999+0081REMSYN070AAXX  28184 83096 32695 21406 10285 20214 30117 40124 82100 333 58008;EQDQ01  00002PRCP99
0198830960999992002042900004-10910-037050FM-12+000699999V0201401N002112200019N0020001N1+02711+01981101431ADDAA199000091GF101991011011012501001001KA1240M+03041MA1999999101361MD1999999+0151REMSYN088AAXX  29004 83096 32695 11404 10271 20198 30136 40143 81100 333 10304 29062 55094 58015;EQDQ01  00002PRCP99
0186830960999992002042912004-10910-037050FM-12+000699999V0201801N003112200019N0020001N1+02811+01981101591ADDAA199000091GF101991011051012501001001KA1240N+02161MA1999999101521MD1999999+0251REMSYN076AAXX  29124 83096 32695 11806 10281 20198 30152 40159 81500 333 20216 58025;EQDQ01  00002PRCP99
0167830960999992002042918004-10910-037050FM-12+000699999V0201801N003112200019N0020001N1+02821+02051101321ADDAA199000091GF102991021051012501001001MA1999999101251MD1999999+0081REMSYN070AAXX  29184 83096 32695 21806 10282 20205 30125 40132 82500 333 58008;EQDQ01  00002PRCP99
0198830960999992002043000004-10910-037050FM-12+000699999V0201801N002112200019N0020001N1+02681+02091101651ADDAA199000091GF102991021011012501001001KA1240M+03051MA1999999101581MD1999999+0121REMSYN088AAXX  30004 83096 32695 21804 10268 20209 30158 40165 82100 333 10305 29066 55105 58012;EQDQ01  00002PRCP99
0186830960999992002043012004-10910-037050FM-12+000699999V0200901N002112200019N0020001N1+02871+02261101571ADDAA199000091GF102991021011012501001001KA1240N+02411MA1999999101501MD1999999-0021REMSYN076AAXX  30124 83096 32695 20904 10287 20226 30150 40157 82100 333 20241 59002;EQDQ01  00002PRCP99
0167830960999992002043018004-10910-037050FM-12+000699999V0201401N003112200019N0020001N1+02931+02291101421ADDAA199000091GF101991011011012501001001MA1999999101351MD1999999+0101REMSYN070AAXX  30184 83096 32695 11406 10293 20229 30135 40142 81100 333 58010;EQDQ01  00002PRCP99
0198830960999992002050100004-10910-037050FM-12+000699999V0201401N002112200019N0020001N1+02751+02281101441ADDAA199000091GF102991021011012501001001KA1240M+03061MA1999999101371MD1999999-0211REMSYN088AAXX  01004 83096 32695 21404 10275 20228 30137 40144 82100 333 10306 29072 55101 59021;EQDQ01  00002PRCP99
0186830960999992002050112004-10910-037050FM-12+000699999V0201401N002610120019N0020001N1+02851+02371101551ADDAA199000091GF106991061051012501001001KA1240N+02301MA1999999101481MD1999999-0021REMSYN076AAXX  01124 83096 32695 61405 10285 20237 30148 40155 86500 333 20230 59002;EQDQ01  00002PRCP99
0167830960999992002050118004-10910-037050FM-12+000699999V0200901N002612200019N0020001N1+02791+02321101241ADDAA199000091GF103991031011012501001001MA1999999101171MD1999999-0181REMSYN070AAXX  01184 83096 32695 30905 10279 20232 30117 40124 83100 333 59018;EQDQ01  00002PRCP99
0185830960999992002050200004-10910-037050FM-12+000699999V0200901N003110120019N0020001N1+02541+02401101451ADDAA106000591GF106991061051012501999999KA1240M+02951MA1999999101381MD1999999+0011REMSYN094AAXX  02004 83096 21695 60906 10254 20240 30138 40145 865// 333 10295 29084 5018/ 58001 69941;
0201830960999992002050212004-10910-037050FM-12+000699999V0200501N001512200019N0020001N1+02731+02341101481ADDAA124002091AY161061AY261061GF102991021051008001001001KA1240N+02381MA1999999101411MD1999999-0071MW1201REMSYN088AAXX  02124 83096 21595 20503 10273 20234 30141 40148 72066 82500 333 20238 59007 60024;
0148830960999992002050218004-10910-037050FM-12+000699999V0201801N003110120019N0020001N1+02741+02451101161ADDAA199000021GF107991071051012501001001MA1999999101091MD1999999-0081REMSYN070AAXX  02184 83096 32695 71806 10274 20245 30109 40116 87500 333 59008;
0179830960999992002050300004-10910-037050FM-12+000699999V0200901N001012200019N0020001N1+02651+02271101251ADDAA199000021GF101991011011012501001001KA1240M+03051MA1999999101181MD1999999-0201REMSYN088AAXX  03004 83096 32695 10902 10265 20227 30118 40125 81100 333 10305 29081 55070 59020;
0201830960999992002050312004-10910-037050FM-12+000699999V0203601N001510075019N0010001N1+02411+02131101401ADDAA124009991AY161061AY261061GF108991081051008001999999KA1240N+02351MA1999999101331MD1999999-0081MW1601REMSYN088AAXX  03124 83096 21594 83603 10241 20213 30133 40140 76066 885// 333 20235 59008 60104;
0182830960999992002050318004-10910-037050FM-12+000699999V0201401N001010120019N0020001N1+02671+02341101181ADDAA106000591AY161061AY261061GF106991061051012501001001MA1999999101121MD1999999+0031MW1201REMSYN082AAXX  03184 83096 21695 61402 10267 20234 30112 40118 72066 86500 333 58003 69941;
0179830960999992002050400004-10910-037050FM-12+000699999V0200901N002610120019N0020001N1+02651+02331101291ADDAA199000021GF105991051051012501001001KA1240M+02791MA1999999101221MD1999999+0041REMSYN088AAXX  04004 83096 32695 50905 10265 20233 30122 40129 85500 333 10279 29083 55001 58004;
0173830960999992002050412004-10910-037050FM-12+000699999V0200901N001512200019N0020001N1+02831+02271101411ADDAA124000591GF102991021051012501001001KA1240N+02351MA1999999101341MD1999999+0011REMSYN082AAXX  04124 83096 22695 20903 10283 20227 30134 40141 82500 333 20235 58001 69944;
0167830960999992002050418004-10910-037050FM-12+000699999V0200901N002112200019N0020001N1+02831+02241101361ADDAA199000091GF102991021011012501001001MA1999999101291MD1999999+0171REMSYN070AAXX  04184 83096 32695 20904 10283 20224 30129 40136 82100 333 58017;EQDQ01  00002PRCP99
0198830960999992002050500004-10910-037050FM-12+000699999V0200901N002112200019N0020001N1+02671+02291101471ADDAA199000091GF102991021011012501001001KA1240M+02951MA1999999101401MD1999999+0181REMSYN088AAXX  05004 83096 32695 20904 10267 20229 30140 40147 82100 333 10295 29075 55102 58018;EQDQ01  00002PRCP99
0186830960999992002050512004-10910-037050FM-12+000699999V0201401N002112200019N0020001N1+02831+02101101571ADDAA199000091GF101991011011012501001001KA1240N+02241MA1999999101501MD1999999+0161REMSYN076AAXX  05124 83096 32695 11404 10283 20210 30150 40157 81100 333 20224 58016;EQDQ01  00002PRCP99
0167830960999992002050518004-10910-037050FM-12+000699999V0201801N002612200019N0020001N1+02871+02191101231ADDAA199000091GF103991031011012501001001MA1999999101161MD1999999-0131REMSYN070AAXX  05184 83096 32695 31805 10287 20219 30116 40123 83100 333 59013;EQDQ01  00002PRCP99
