0167832290999992002031118004-13010-038510FM-12+005199999V0201401N001010450019N0040001N1+02781+02301101411ADDAA199000091GF108991021081008001021999MA1999999100821MD1999999+0021REMSYN070AAXX  11184 83229 32596 81402 10278 20230 30082 40141 8282/ 333 58002;EQDQ01  00002PRCP99
0167832290999992002031818004-13010-038510FM-12+005199999V0201401N001512200019N0200001N1+02931+02361101111ADDAA199000091GF103991011021008001041061MA1999999100531MD1999999-0031REMSYN070AAXX  18184 83229 32598 31403 10293 20236 30053 40111 81246 333 59003;EQDQ01  00002PRCP99
0198832290999992002031900004-13010-038510FM-12+005199999V0200901N002112200019N9999999N1+02651+02311101241ADDAA199000091GF101991011021008001001001KA1240M+03151MA1999999100651MD1999999-0041REMSYN088AAXX  19004 83229 325// 10904 10265 20231 30065 40124 81200 333 10315 29076 55075 59004;EQDQ01  00002PRCP99
0173832290999992002041012004-13010-038510FM-12+005199999V0201401N001011050019N0040001N1+02871+02311101301ADDAA124000191GF105991021021008001041061KA1240N+02441MA1999999100711MD1999999+0101REMSYN082AAXX  10124 83229 22596 51402 10287 20231 30071 40130 82246 333 20244 58010 69924;
0186832290999992002043012004-13010-038510FM-12+005199999V0200901N001512200019N0100001N1+02961+02211101621ADDAA199000091GF102991021021008001001001KA1240N+02531MA1999999101031MD1999999+0001REMSYN076AAXX  30124 83229 32597 20903 10296 20221 30103 40162 82200 333 20253 58000;EQDQ01  00002PRCP99
0167832290999992002051218004-13010-038510FM-12+005199999V0200901N003010450019N0040001N1+02861+02371101571ADDAA199000091GF105991041051004501021001MA1999999100981MD1999999-0031REMSYN070AAXX  12180 83229 32496 50903 10286 20237 30098 40157 84520 333 59003;EQDQ01  00002PRCP99
0198832290999992002051300004-13010-038510FM-12+005199999V0200501N001512200019N9999999N1+02441+02251101731ADDAA199000091GF101991011021008001001001KA1240M+02951MA1999999101131MD1999999-0071REMSYN088AAXX  13004 83229 325// 10503 10244 20225 30113 40173 81200 333 10295 29087 55056 59007;EQDQ01  00002PRCP99
0186832290999992002051312004-13010-038510FM-12+005199999V0200901N002112200019N0200001N1+02801+02221101831ADDAA199000091GF102991021021008001001001KA1240N+02351MA1999999101231MD1999999-0031REMSYN076AAXX  13124 83229 32598 20904 10280 20222 30123 40183 82200 333 20235 59003;EQDQ01  00002PRCP99
0173832290999992002051612004-13010-038510FM-12+005199999V0200901N001012200019N0100001N1+02821+02271101581ADDAA124001091GF102991021021008001001001KA1240N+02371MA1999999100991MD1999999-0231REMSYN082AAXX  16124 83229 22597 20902 10282 20227 30099 40158 82200 333 20237 59023 60014;
0167832290999992002051618004-13010-038510FM-12+005199999V0201401N002612200019N0200001N1+02871+02191101301ADDAA199000091GF102991011021008001041001MA1999999100711MD1999999-0231REMSYN070AAXX  16184 83229 32598 21405 10287 20219 30071 40130 81240 333 59023;EQDQ01  00002PRCP99
0202832290999992002061100004-13020-038520FM-12+005199999V0201401N002110450019N9999999N1+02331+02091101711ADDAY161061AY221061GF105991021021008001011001KA1240M+02501MA1999999101111MD1999999-0051MW1031REMSYN100AAXX  11004 83229 215// 51404 10233 20209 30111 40171 70362 82210 333 10250 29090 55002 59005 60101;
0190832290999992002061112004-13020-038520FM-12+005199999V0202701N000510042019N0020001N1+02341+02291101741ADDAY161061AY261061GF108991081071004501999999KA1240N+02201MA1999999101141MD1999999-0111MW1641REMSYN088AAXX  11124 83229 21495 82701 10234 20229 30114 40174 76466 887// 333 20220 59011 60544;
0190832290999992002062712004-13020-038520FM-12+005199999V0201401N002110450019N0200001N1+02541+02231101951ADDAY151061AY221061GF105991021021008001041001KA1240N+02291MA1999999101351MD1999999-0181MW1031REMSYN088AAXX  27124 83229 21598 51404 10254 20223 30135 40195 70352 82240 333 20229 59018 60054;
