0213833980999992002010100004-15660-038920FM-12+000599999V0203601N002110042019N0010001N1+02511+02321101211ADDAA106000391AY151061AY221061GF108991051051004501021999KA1240M+02621MA1999999101161MD1999999-0061MW1501REMSYN100AAXX  01004 83398 21494 83604 10251 20232 30116 40121 75052 8552/ 333 10262 29090 55000 59006 69931;
0201833980999992002010112004-15660-038920FM-12+000599999V0203601N001010075019N0040001N1+02621+02311101181ADDAA124007991AY161061AY221061GF108991051051008001021999KA1240N+02101MA1999999101131MD1999999-0271MW1021REMSYN088AAXX  01124 83398 21596 83602 10262 20231 30113 40118 70262 8552/ 333 20210 59027 60084;
0167833980999992002010118004-15660-038920FM-12+000599999V0200501N002110450019N0040001N1+02811+02391100831ADDAA199000091GF106991031021008001041041MA1999999100781MD1999999-0151REMSYN070AAXX  01184 83398 32596 60504 10281 20239 30078 40083 83244 333 59015;EQDQ01  00002PRCP99
0213833980999992002010200004-15660-038920FM-12+000599999V0203601N001010450019N0010001N1+02601+02441101031ADDAA106000191AY151061AY221061GF107991041051008001021001KA1240M+02891MA1999999100981MD1999999-0181MW1021REMSYN100AAXX  02004 83398 21594 73602 10260 20244 30098 40103 70252 84520 333 10289 29086 55029 59018 69921;
0201833980999992002010212004-15660-038920FM-12+000599999V0203601N002110075019N0040001N1+02641+02441101071ADDAA124036191AY161061AY221061GF108991051051008001021999KA1240N+02291MA1999999101021MD1999999-0111MW1021REMSYN088AAXX  02124 83398 21596 83604 10264 20244 30102 40107 70262 8552/ 333 20229 59011 60364;
0182833980999992002010218004-15660-038920FM-12+000599999V0203601N001010075019N0040001N1+02701+02371100791ADDAA106000191AY151061AY221061GF108991051051008001021999MA1999999100741MD1999999-0041MW1021REMSYN082AAXX  02184 83398 21596 83602 10270 20237 30074 40079 70252 8552/ 333 59004 69921;
0213833980999992002010300004-15660-038920FM-12+000599999V0203601N002110075019N0010001N1+02621+02411101021ADDAA106000191AY151061AY221061GF108991051051008001021999KA1240M+02821MA1999999100971MD1999999-0011MW1501REMSYN100AAXX  03004 83398 21594 83604 10262 20241 30097 40102 75052 8552/ 333 10282 29087 55000 59001 69911;
0182833980999992002010318004-15660-038920FM-12+000599999V0203601N002110042019N0040001N1+02661+02371100691ADDAA106000191AY151061AY221061GF108991051051004501021999MA1999999100641MD1999999-0101MW1021REMSYN082AAXX  03184 83398 21496 83604 10266 20237 30064 40069 70252 8552/ 333 59010 69911;
0198833980999992002010400004-15660-038920FM-12+000599999V0200501N002110075019N0010001N1+02611+02401100961ADDAA199000091GF108991051051008001021999KA1240M+02771MA1999999100911MD1999999-0091REMSYN088AAXX  04004 83398 32594 80504 10261 20240 30091 40096 8552/ 333 10277 29087 55000 59009;EQDQ01  00002PRCP99
0173833980999992002010412004-15660-038920FM-12+000599999V0203601N002110075019N0040001N1+02601+02371101151ADDAA124000191GF108991051051008001021999KA1240N+02381MA1999999101101MD1999999+0101REMSYN082AAXX  04124 83398 22596 83604 10260 20237 30110 40115 8552/ 333 20238 58010 69914;
0167833980999992002010418004-15660-038920FM-12+000599999V0203601N003110075019N0040001N1+02821+02441100731ADDAA199000091GF107991051051008001021001MA1999999100681MD1999999+0041REMSYN070AAXX  04184 83398 32596 73606 10282 20244 30068 40073 85520 333 58004;EQDQ01  00002PRCP99
0213833980999992002010500004-15660-038920FM-12+000599999V0203601N002110075019N0010001N1+02251+02141101141ADDAA101013091AY191061AY261061GF108991081071008001999999KA1240M+02961MA1999999101091MD1999999+0181MW1621REMSYN100AAXX  05004 83398 21594 83604 10225 20214 30109 40114 76296 887// 333 10296 29088 55055 58018 60135;
0201833980999992002010512004-15660-038920FM-12+000599999V0202301N001010075019N0040001N1+02551+02421101271ADDAA124037191AY161061AY221061GF108991051071008001021999KA1240N+02251MA1999999101221MD1999999+0121MW1511REMSYN088AAXX  05124 83398 21596 82302 10255 20242 30122 40127 75162 8572/ 333 20225 58012 60374;
0182833980999992002010518004-15660-038920FM-12+000599999V0201801N002110450019N0040001N1+02821+02401100991ADDAA106000391AY151061AY221061GF107991041051008001021001MA1999999100941MD1999999+0261MW1021REMSYN082AAXX  05184 83398 21596 71804 10282 20240 30094 40099 70252 84520 333 58026 69931;
0179833980999992002010600004-15660-038920FM-12+000599999V0201801N001010075019N0010001N1+02511+02331101291ADDAA199000021GF108991051051008001021999KA1240M+02931MA1999999101241MD1999999+0151REMSYN088AAXX  06004 83398 32594 81802 10251 20233 30124 40129 8552/ 333 10293 29088 55025 58015;
0201833980999992002010612004-15660-038920FM-12+000599999V0200901N002110042019N0040001N1+02531+02391101291ADDAA124007191AY161061AY221061GF108991061071004501021999KA1240N+02331MA1999999101241MD1999999+0021MW1601REMSYN088AAXX  06124 83398 21496 80904 10253 20239 30124 40129 76062 8672/ 333 20233 58002 60074;
0182833980999992002010618004-15660-038920FM-12+000599999V0200501N003110450019N0040001N1+02571+02401101261ADDAA106003091AY161061AY221061GF106991041051008001021001MA1999999101211MD1999999+0271MW1021REMSYN082AAXX  06184 83398 21596 60506 10257 20240 30121 40126 70262 84520 333 58027 60031;
0213833980999992002010700004-15660-038920FM-12+000599999V0200501N002110042019N0010001N1+02461+02281101301ADDAA106002091AY151061AY221061GF108991051051004501021999KA1240M+02721MA1999999101251MD1999999+0011MW1021REMSYN100AAXX  07004 83398 21494 80504 10246 20228 30125 40130 70252 8552/ 333 10272 29091 55017 58001 60021;
0167833980999992002010718004-15660-038920FM-12+000599999V0200501N002110450019N0040001N1+02711+02291101291ADDAA199000091GF105991031021008001041041MA1999999101241MD1999999+0031REMSYN070AAXX  07184 83398 32596 50504 10271 20229 30124 40129 83244 333 58003;EQDQ01  00002PRCP99
0213833980999992002010800004-15660-038920FM-12+000599999V0209999C000010042019N0010001N1+02421+02231101451ADDAA106000891AY151061AY221061GF107991051051004501021001KA1240M+02831MA1999999101401MD1999999+0151MW1501REMSYN100AAXX  08004 83398 21494 70000 10242 20223 30140 40145 75052 85520 333 10283 29085 55047 58015 69971;
0201833980999992002010812004-15660-038920FM-12+000599999V0200901N002110450019N0040001N1+02771+02411101491ADDAA124002091AY151061AY221061GF105991031021004501041011KA1240N+02321MA1999999101441MD1999999+0091MW1011REMSYN088AAXX  08124 83398 21496 50904 10277 20241 30144 40149 70152 83241 333 20232 58009 60024;
0167833980999992002010818004-15660-038920FM-12+000599999V0201401N002110450019N0040001N1+02821+02331101301ADDAA199000091GF105991031021008001041011MA1999999101351MD1999999+0111REMSYN070AAXX  08184 83398 32596 51404 10282 20233 30135 40130 83241 333 58011;EQDQ01  00002PRCP99
0213833980999992002010900004-15660-038920FM-12+000599999V0200901N002110450019N0010001N1+02541+02291101451ADDAA106000191AY151061AY221061GF107991041051004501021001KA1240M+02941MA1999999101401MD1999999+0001MW1021REMSYN100AAXX  09004 83398 21494 70904 10254 20229 30140 40145 70252 84520 333 10294 29082 55107 58000 69911;
0173833980999992002010912004-15660-038920FM-12+000599999V0201401N002112200019N0040001N1+02791+02261101691ADDAA124000191GF104991021021008001041011KA1240N+02361MA1999999101631MD1999999+0191REMSYN082AAXX  09124 83398 22596 41404 10279 20226 30163 40169 82241 333 20236 58019 69914;
0167833980999992002010918004-15660-038920FM-12+000599999V0200901N002112200019N0040001N1+02851+02301101621ADDAA199000091GF104991021021008001041041MA1999999101561MD1999999+0211REMSYN070AAXX  09184 83398 32596 40904 10285 20230 30156 40162 82244 333 58021;EQDQ01  00002PRCP99
0198833980999992002011000004-15660-038920FM-12+000599999V0201801N001012200019N0010001N1+02431+02261101751ADDAA199000091GF103991031011008001001001KA1240M+02931MA1999999101651MD1999999+0291REMSYN088AAXX  10004 83398 32594 31802 10243 20226 30165 40175 83100 333 10293 29081 55115 58029;EQDQ01  00002PRCP99
0201833980999992002011012004-15660-038920FM-12+000599999V0200501N001010042019N0040001N1+02341+02181101871ADDAA124015091AY161061AY221061GF108991061071004501021999KA1240N+02281MA1999999101811MD1999999+0181MW1601REMSYN088AAXX  10124 83398 21496 80502 10234 20218 30181 40187 76062 8672/ 333 20228 58018 60154;
0182833980999992002011018004-15660-038920FM-12+000599999V0200901N002112200019N0040001N1+02741+02401101581ADDAA106007991AY161061AY221061GF104991021021004501041011MA1999999101531MD1999999-0031MW1011REMSYN082AAXX  10184 83398 21496 40904 10274 20240 30153 40158 70162 82241 333 59003 60081;
0232833980999992002011100004-15660-038920FM-12+000599999V0202301N001012200019N0010001N1+02381+02241101871ADDAA106007991AY161061AY221061GF104991999041004501001001KA1240M+02381MA1999999101811MD1999999+0121MW1011REMSYN100AAXX  11004 83398 21494 42302 10238 20224 30181 40187 70162 81400 333 10238 29089 55061 58012 60081;EQDQ01+000012SCOTLC
0167833980999992002011118004-15660-038920FM-12+000599999V0201401N003110450019N0040001N1+02841+02381101731ADDAA199000091GF106991041051008001021011MA1999999101671MD1999999+0001REMSYN070AAXX  11184 83398 32596 61406 10284 20238 30167 40173 84521 333 58000;EQDQ01  00002PRCP99
0198833980999992002011200004-15660-038920FM-12+000599999V0201401N002110450019N0010001N1+02551+02141101941ADDAA199000091GF106991041051008001021001KA1240M+02931MA1999999101881MD1999999+0071REMSYN088AAXX  12004 83398 32594 61404 10255 20214 30188 40194 84520 333 10293 29078 55108 58007;EQDQ01  00002PRCP99
0201833980999992002011212004-15660-038920FM-12+000599999V0200901N002112200019N0040001N1+02731+02291101851ADDAA124001091AY151061AY221061GF104991031021004501041001KA1240N+02281MA1999999101791MD1999999-0041MW1011REMSYN088AAXX  12124 83398 21496 40904 10273 20229 30179 40185 70152 83240 333 20228 59004 60014;
0167833980999992002011218004-15660-038920FM-12+000599999V0201401N003110450019N0040001N1+02781+02251101711ADDAA199000091GF106991031051008001041001MA1999999101651MD1999999-0021REMSYN070AAXX  12184 83398 32596 61406 10278 20225 30165 40171 83540 333 59002;EQDQ01  00002PRCP99
0198833980999992002011300004-15660-038920FM-12+000599999V0200901N002112200019N0010001N1+02561+02291101731ADDAA199000091GF104991041011008001001001KA1240M+02941MA1999999101671MD1999999-0211REMSYN088AAXX  13004 83398 32594 40904 10256 20229 30167 40173 84100 333 10294 29080 55104 59021;EQDQ01  00002PRCP99
0201833980999992002011312004-15660-038920FM-12+000599999V0201801N001010450019N0040001N1+02481+02291101681ADDAA124007191AY161061AY221061GF107991041051008001021001KA1240N+02281MA1999999101621MD1999999-0171MW1021REMSYN088AAXX  13124 83398 21596 71802 10248 20229 30162 40168 70262 84520 333 20228 59017 60074;
0167833980999992002011318004-15660-038920FM-12+000599999V0201401N001010075019N0040001N1+02781+02161101451ADDAA199000091GF108991051051008001021999MA1999999101401MD1999999-0151REMSYN070AAXX  13184 83398 32596 81402 10278 20216 30140 40145 8552/ 333 59015;EQDQ01  00002PRCP99
0213833980999992002011400004-15660-038920FM-12+000599999V0209999C000010450019N0010001N1+02501+02311101581ADDAA106000191AY151061AY221061GF108991041071008001021999KA1240M+02931MA1999999101521MD1999999-0141MW1501REMSYN100AAXX  14004 83398 21594 80000 10250 20231 30152 40158 75052 8472/ 333 10293 29084 55019 59014 69921;
0173833980999992002011412004-15660-038920FM-12+000599999V0203201N002110450019N0040001N1+02261+01291101391ADDAA124000191GF106991031021004501051001KA1240N+02291MA1999999101341MD1999999-0331REMSYN082AAXX  14124 83398 22496 63204 10226 20129 30134 40139 83250 333 20229 59033 69924;
0182833980999992002011418004-15660-038920FM-12+000599999V0203601N002110042019N0040001N1+02631+02321100941ADDAA106000891AY151061AY221061GF108991051051004501021999MA1999999100891MD1999999-0511MW1501REMSYN082AAXX  14184 83398 21496 83604 10263 20232 30089 40094 75052 8552/ 333 59051 69981;
0213833980999992002011500004-15660-038920FM-12+000599999V0203601N002110042019N0010001N1+02361+02221101151ADDAA106022191AY161061AY221061GF108991061071004501021999KA1240M+02871MA1999999101101MD1999999-0431MW1601REMSYN100AAXX  15004 83398 21494 83604 10236 20222 30110 40115 76062 8672/ 333 10287 29087 55030 59043 60221;
0201833980999992002011612004-15660-038920FM-12+000599999V0203601N002110042019N0040001N1+02551+02301100861ADDAA124017091AY161061AY221061GF108991051051004501021999KA1240N+02301MA1999999100811MD1999999+0061MW1021REMSYN088AAXX  16124 83398 21496 83604 10255 20230 30081 40086 70262 8552/ 333 20230 58006 60174;
0167833980999992002011618004-15660-038920FM-12+000599999V0203601N002110450019N0040001N1+02691+02441100741ADDAA199000091GF106991041051008001021001MA1999999100691MD1999999+0141REMSYN070AAXX  16184 83398 32596 63604 10269 20244 30069 40074 84520 333 58014;EQDQ01  00002PRCP99
0198833980999992002011700004-15660-038920FM-12+000599999V0203601N001010075019N0010001N1+02541+02441100961ADDAA199000091GF108991051051008001021999KA1240M+02861MA1999999100911MD1999999+0201REMSYN088AAXX  17004 83398 32594 83602 10254 20244 30091 40096 8552/ 333 10286 29090 55019 58020;EQDQ01  00002PRCP99
0201833980999992002011712004-15660-038920FM-12+000599999V0203601N002110450019N0040001N1+02701+02221101191ADDAA124000391AY151061AY221061GF107991041051004501021001KA1240N+02301MA1999999101141MD1999999+0331MW1021REMSYN088AAXX  17124 83398 21496 73604 10270 20222 30114 40119 70252 84520 333 20230 58033 69934;
0167833980999992002011718004-15660-038920FM-12+000599999V0200501N003110075019N0040001N1+02681+02281101051ADDAA199000091GF108991051051008001021999MA1999999101001MD1999999+0311REMSYN070AAXX  17184 83398 32596 80506 10268 20228 30100 40105 8552/ 333 58031;EQDQ01  00002PRCP99
0198833980999992002011800004-15660-038920FM-12+000599999V0200501N002110450019N0010001N1+02601+02461101261ADDAA199000091GF107991041051008001021001KA1240M+02861MA1999999101211MD1999999+0301REMSYN088AAXX  18004 83398 32594 70504 10260 20246 30121 40126 84520 333 10286 29085 55000 58030;EQDQ01  00002PRCP99
0201833980999992002011812004-15660-038920FM-12+000599999V0203601N002110450019N0040001N1+02741+02451101451ADDAA124002091AY151061AY221061GF106991031051004501021001KA1240N+02251MA1999999101401MD1999999+0261MW1011REMSYN088AAXX  18124 83398 21496 63604 10274 20245 30140 40145 70152 83520 333 20225 58026 60024;
0167833980999992002011818004-15660-038920FM-12+000599999V0200901N003110450019N0040001N1+02741+02401101231ADDAA199000091GF107991041051008001021001MA1999999101181MD1999999+0181REMSYN070AAXX  18184 83398 32596 70906 10274 20240 30118 40123 84520 333 58018;EQDQ01  00002PRCP99
0198833980999992002011900004-15660-038920FM-12+000599999V0200901N001012200019N0010001N1+02521+02361101341ADDAA199000091GF104991021011008001041001KA1240M+02901MA1999999101291MD1999999+0081REMSYN088AAXX  19004 83398 32594 40902 10252 20236 30129 40134 82140 333 10290 29087 55028 58008;EQDQ01  00002PRCP99
0201833980999992002011912004-15660-038920FM-12+000599999V0200901N003110450019N0040001N1+02741+02321101471ADDAA124000891AY151061AY221061GF106991041051008001041001KA1240N+02231MA1999999101421MD1999999+0021MW1021REMSYN088AAXX  19124 83398 21596 60906 10274 20232 30142 40147 70252 84540 333 20223 58002 69984;
0167833980999992002011918004-15660-038920FM-12+000599999V0201401N003110450019N0040001N1+02781+02321101331ADDAA199000091GF106991031051008001041011MA1999999101281MD1999999+0101REMSYN070AAXX  19184 83398 32596 61406 10278 20232 30128 40133 83541 333 58010;EQDQ01  00002PRCP99
0198833980999992002012000004-15660-038920FM-12+000599999V0201801N001010450019N0010001N1+02501+02341101521ADDAA199000091GF105991031051008001041001KA1240M+02941MA1999999101471MD1999999+0181REMSYN088AAXX  20004 83398 32594 51802 10250 20234 30147 40152 83540 333 10294 29084 55083 58018;EQDQ01  00002PRCP99
0201833980999992002012012004-15660-038920FM-12+000599999V0203201N001010450019N0040001N1+02501+02341101621ADDAA124005191AY161061AY221061GF107991041051008001021001KA1240N+02271MA1999999101561MD1999999+0141MW1621REMSYN088AAXX  20124 83398 21596 73202 10250 20234 30156 40162 76262 84520 333 20227 58014 60054;
0182833980999992002012018004-15660-038920FM-12+000599999V0201401N002110450019N0040001N1+02701+02301101481ADDAA106007191AY161061AY221061GF106991041051008001021001MA1999999101431MD1999999+0151MW1021REMSYN082AAXX  20184 83398 21596 61404 10270 20230 30143 40148 70262 84520 333 58015 60071;
0179833980999992002012100004-15660-038920FM-12+000599999V0209999C000010450019N0010001N1+02481+02321101641ADDAA199000021GF106991031051008001041001KA1240M+02871MA1999999101581MD1999999+0111REMSYN088AAXX  21004 83398 32594 60000 10248 20232 30158 40164 83540 333 10287 29088 55040 58011;
0201833980999992002012112004-15660-038920FM-12+000599999V0209999C000010450019N0040001N1+02481+02321101771ADDAA124013091AY161061AY221061GF107991041051008001021001KA1240N+02301MA1999999101711MD1999999+0151MW1601REMSYN088AAXX  21124 83398 21596 70000 10248 20232 30171 40177 76062 84520 333 20230 58015 60134;
0148833980999992002012118004-15660-038920FM-12+000599999V0200901N003110450019N0040001N1+02741+02241101581ADDAA199000021GF106991041051008001021001MA1999999101531MD1999999+0101REMSYN070AAXX  21184 83398 32596 60906 10274 20224 30153 40158 84520 333 58010;
0179833980999992002012200004-15660-038920FM-12+000599999V0201401N002110450019N0010001N1+02641+02271101771ADDAA199000021GF106991041051008001021001KA1240M+02891MA1999999101701MD1999999+0121REMSYN088AAXX  22004 83398 32594 61404 10264 20227 30170 40177 84520 333 10289 29081 55055 58012;
0201833980999992002012212004-15660-038920FM-12+000599999V0200901N002110450019N0040001N1+02781+02231101861ADDAA124000191AY151061AY221061GF106991041051008001041001KA1240N+02281MA1999999101801MD1999999+0091MW1021REMSYN088AAXX  22124 83398 21596 60904 10278 20223 30180 40186 70252 84540 333 20228 58009 69924;
0167833980999992002012218004-15660-038920FM-12+000599999V0200901N003110450019N0040001N1+02841+02311101641ADDAA199000091GF106991031051008001041001MA1999999101581MD1999999+0051REMSYN070AAXX  22184 83398 32596 60906 10284 20231 30158 40164 83540 333 58005;EQDQ01  00002PRCP99
0198833980999992002012300004-15660-038920FM-12+000599999V0200901N003110075019N0010001N1+02641+02271101711ADDAA199000091GF107991051051008001021001KA1240M+02921MA1999999101651MD1999999-0051REMSYN088AAXX  23004 83398 32594 70906 10264 20227 30165 40171 85520 333 10292 29076 55093 59005;EQDQ01  00002PRCP99
0186833980999992002012312004-15660-038920FM-12+000599999V0200901N002112200019N0040001N1+02861+02351101821ADDAA199000091GF104991031011008001041001KA1240N+02301MA1999999101761MD1999999-0041REMSYN076AAXX  23124 83398 32596 40904 10286 20235 30176 40182 83140 333 20230 59004;EQDQ01  00002PRCP99
0167833980999992002012318004-15660-038920FM-12+000599999V0200501N003110450019N0040001N1+02801+02271101491ADDAA199000091GF105991021051008001041001MA1999999101441MD1999999-0141REMSYN070AAXX  23184 83398 32596 50506 10280 20227 30144 40149 82540 333 59014;EQDQ01  00002PRCP99
0198833980999992002012400004-15660-038920FM-12+000599999V0200501N001012200019N0010001N1+02561+02251101391ADDAA199000091GF102991021021008001001001KA1240M+02981MA1999999101341MD1999999-0311REMSYN088AAXX  24004 83398 32594 20502 10256 20225 30134 40139 82200 333 10298 29078 55102 59031;EQDQ01  00002PRCP99
0186833980999992002012412004-15660-038920FM-12+000599999V0203601N002112200019N0040001N1+02841+02221101531ADDAA199000091GF104991031021008001041001KA1240N+02241MA1999999101481MD1999999-0281REMSYN076AAXX  24124 83398 32596 43604 10284 20222 30148 40153 83240 333 20224 59028;EQDQ01  00002PRCP99
0167833980999992002012418004-15660-038920FM-12+000599999V0203601N003112200019N0040001N1+02851+02301101251ADDAA199000091GF102991021021008001001001MA1999999101201MD1999999-0241REMSYN070AAXX  24184 83398 32596 23606 10285 20230 30120 40125 82200 333 59024;EQDQ01  00002PRCP99
0198833980999992002012500004-15660-038920FM-12+000599999V0200501N002112200019N0010001N1+02621+02311101471ADDAA199000091GF104991011011008001041001KA1240M+02981MA1999999101421MD1999999-0121REMSYN088AAXX  25004 83398 32594 40504 10262 20231 30142 40147 81140 333 10298 29077 55115 59012;EQDQ01  00002PRCP99
0186833980999992002012512004-15660-038920FM-12+000599999V0203601N002112200019N0040001N1+02851+02361101541ADDAA199000091GF104991021021008001041041KA1240N+02381MA1999999101491MD1999999+0011REMSYN076AAXX  25124 83398 32596 43604 10285 20236 30149 40154 82244 333 20238 58001;EQDQ01  00002PRCP99
0167833980999992002012518004-15660-038920FM-12+000599999V0203601N001011050019N0040001N1+02791+02351101361ADDAA199000091GF106991021021008001021041MA1999999101311MD1999999+0111REMSYN070AAXX  25184 83398 32596 63602 10279 20235 30131 40136 82224 333 58011;EQDQ01  00002PRCP99
0198833980999992002012600004-15660-038920FM-12+000599999V0200501N002111050019N0010001N1+02641+02391101431ADDAA199000091GF105991021021008001051041KA1240M+02991MA1999999101381MD1999999-0041REMSYN088AAXX  26004 83398 32594 50504 10264 20239 30138 40143 82254 333 10299 29081 55050 59004;EQDQ01  00002PRCP99
0186833980999992002012612004-15660-038920FM-12+000599999V0203601N002110075019N0040001N1+02681+02411101681ADDAA199000091GF107991051051008001021001KA1240N+02391MA1999999101621MD1999999+0131REMSYN076AAXX  26124 83398 32596 73604 10268 20241 30162 40168 85520 333 20239 58013;EQDQ01  00002PRCP99
0167833980999992002012618004-15660-038920FM-12+000599999V0200501N003110450019N0040001N1+02901+02411101361ADDAA199000091GF105991031051008001041001MA1999999101311MD1999999+0001REMSYN070AAXX  26184 83398 32596 50506 10290 20241 30131 40136 83540 333 58000;EQDQ01  00002PRCP99
0198833980999992002012700004-15660-038920FM-12+000599999V0200501N003112200019N0010001N1+02581+02371101431ADDAA199000091GF104991021011008001041001KA1240M+02981MA1999999101381MD1999999+0001REMSYN088AAXX  27004 83398 32594 40506 10258 20237 30138 40143 82140 333 10298 29084 55099 58000;EQDQ01  00002PRCP99
0201833980999992002012712004-15660-038920FM-12+000599999V0200501N003110450019N0040001N1+02821+02401101581ADDAA124000191AY151061AY221061GF106991041051008001041001KA1240N+02351MA1999999101531MD1999999-0091MW1051REMSYN088AAXX  27124 83398 21596 60506 10282 20240 30153 40158 70552 84540 333 20235 59009 69914;
0167833980999992002012718004-15660-038920FM-12+000599999V0200501N004110450019N0040001N1+02881+02321101211ADDAA199000091GF105991031011008001041001MA1999999101161MD1999999-0151REMSYN070AAXX  27184 83398 32596 50508 10288 20232 30116 40121 83140 333 59015;EQDQ01  00002PRCP99
0201833980999992002012800004-15660-038920FM-12+000599999V0209999C000019999999N0010001N1+02541+02231999999ADDAA199000091GF106991999999008001999999KA1240M+03001MA1999999101271MD1999999-0211ME1310009REMSYN082AAXX  28004 83398 32594 60000 10254 20223 30127 48000 333 10300 29078 55/// 59021;EQDQ01  00002PRCP99
0186833980999992002012812004-15660-038920FM-12+000599999V0200501N002110075019N0040001N1+02801+02181101491ADDAA199000091GF105991051021008001001001KA1240N+02311MA1999999101441MD1999999-0091REMSYN076AAXX  28124 83398 32596 50504 10280 20218 30144 40149 85200 333 20231 59009;EQDQ01  00002PRCP99
0167833980999992002012818004-15660-038920FM-12+000599999V0200501N003112200019N0040001N1+02881+02161101121ADDAA199000091GF104991021021008001041001MA1999999101071MD1999999-0091REMSYN070AAXX  28184 83398 32596 40506 10288 20216 30107 40112 82240 333 59009;EQDQ01  00002PRCP99
0198833980999992002012900004-15660-038920FM-12+000599999V0200501N002112200019N0010001N1+02501+02171101211ADDAA199000091GF103991031011008001001001KA1240M+03011MA1999999101161MD1999999-0111REMSYN088AAXX  29004 83398 32594 30504 10250 20217 30116 40121 83100 333 10301 29075 55117 59011;EQDQ01  00002PRCP99
0186833980999992002012912004-15660-038920FM-12+000599999V0203601N002110075019N0040001N1+02841+02171101451ADDAA199000091GF106991051021008001041001KA1240N+02111MA1999999101401MD1999999-0041REMSYN076AAXX  29124 83398 32596 63604 10284 20217 30140 40145 85240 333 20211 59004;EQDQ01  00002PRCP99
0167833980999992002012918004-15660-038920FM-12+000599999V0200501N003110450019N0040001N1+02851+02211101101ADDAA199000091GF105991031021008001041001MA1999999101051MD1999999-0021REMSYN070AAXX  29184 83398 32596 50506 10285 20221 30105 40110 83240 333 59002;EQDQ01  00002PRCP99
0198833980999992002013000004-15660-038920FM-12+000599999V0200501N001012200019N0010001N1+02521+02271101201ADDAA199000091GF102991021011008001001001KA1240M+03011MA1999999101151MD1999999-0011REMSYN088AAXX  30004 83398 32594 20502 10252 20227 30115 40120 82100 333 10301 29077 55113 59001;EQDQ01  00002PRCP99
0186833980999992002013012004-15660-038920FM-12+000599999V0200501N002112200019N0040001N1+02841+02191101491ADDAA199000091GF103991031011008001001001KA1240N+02151MA1999999101441MD1999999+0041REMSYN076AAXX  30124 83398 32596 30504 10284 20219 30144 40149 83100 333 20215 58004;EQDQ01  00002PRCP99
0167833980999992002013018004-15660-038920FM-12+000599999V0200501N002112200019N0040001N1+02921+02171101191ADDAA199000091GF103991011021008001041011MA1999999101141MD1999999+0091REMSYN070AAXX  30184 83398 32596 30504 10292 20217 30114 40119 81241 333 58009;EQDQ01  00002PRCP99
0198833980999992002013100004-15660-038920FM-12+000599999V0200501N001012200019N0010001N1+02551+02221101381ADDAA199000091GF102991021021008001001001KA1240M+03021MA1999999101331MD1999999+0081REMSYN088AAXX  31004 83398 32594 20502 10255 20222 30133 40138 82200 333 10302 29074 55115 58008;EQDQ01  00002PRCP99
0186833980999992002013112004-15660-038920FM-12+000599999V0200501N001010450019N0040001N1+02901+02321101531ADDAA199000091GF105991031051008001041001KA1240N+02211MA1999999101481MD1999999+0041REMSYN076AAXX  31124 83398 32596 50502 10290 20232 30148 40153 83540 333 20221 58004;EQDQ01  00002PRCP99
0167833980999992002013118004-15660-038920FM-12+000599999V0200501N003112200019N0040001N1+02871+02291101271ADDAA199000091GF104991021021008001041011MA1999999101221MD1999999+0081REMSYN070AAXX  31184 83398 32596 40506 10287 20229 30122 40127 82241 333 58008;EQDQ01  00002PRCP99
0198833980999992002020100004-15660-038920FM-12+000599999V0200501N002112200019N0040001N1+02561+02291101391ADDAA199000091GF102991021021008001001001KA1240M+03001MA1999999101341MD1999999+0011REMSYN088AAXX  01004 83398 32596 20504 10256 20229 30134 40139 82200 333 10300 29078 55103 58001;EQDQ01  00002PRCP99
0201833980999992002020112004-15660-038920FM-12+000599999V0209999C000010450019N0040001N1+02641+02351101611ADDAA124000391AY151061AY221061GF107991041051004501021001KA1240N+02331MA1999999101551MD1999999+0071MW1021REMSYN088AAXX  01124 83398 21496 70000 10264 20235 30155 40161 70252 84520 333 20233 58007 69934;
0182833980999992002020118004-15660-038920FM-12+000599999V0203601N002112200019N0040001N1+02931+02351101151ADDAA106000191AY151061AY221061GF103991011021008001041011MA1999999101101MD1999999-0121MW1011REMSYN082AAXX  01184 83398 21596 33604 10293 20235 30110 40115 70152 81241 333 59012 69911;
0198833980999992002020200004-15660-038920FM-12+000599999V0203601N001012200019N0010001N1+02601+02291101231ADDAA199000091GF102991021011008001001001KA1240M+03051MA1999999101181MD1999999-0161REMSYN088AAXX  02004 83398 32594 23602 10260 20229 30118 40123 82100 333 10305 29080 55080 59016;EQDQ01  00002PRCP99
0173833980999992002020212004-15660-038920FM-12+000599999V0203601N002110075019N0040001N1+02771+02411101371ADDAA124000191GF108991051051008001021999KA1240N+02371MA1999999101321MD1999999-0231REMSYN082AAXX  02124 83398 22596 83604 10277 20241 30132 40137 8552/ 333 20237 59023 69914;
0167833980999992002020218004-15660-038920FM-12+000599999V0200501N004110450019N0040001N1+02881+02461101091ADDAA199000091GF107991041051008001021011MA1999999101041MD1999999-0061REMSYN070AAXX  02184 83398 32596 70508 10288 20246 30104 40109 84521 333 59006;EQDQ01  00002PRCP99
0132833980999992002020300004-15660-038920FM-12+000599999V0200501N002112200019N0010001N1+02601+02371999999ADDAA199000091GF102991999041008001001081REMSYN048AAXX  03004 83398 32594 20504 10260 20237 83408;EQDQ01+000032SCOTLCQ02  00002PRCP99
0186833980999992002020312004-15660-038920FM-12+000599999V0203601N002110450019N0040001N1+02761+02341101171ADDAA199000091GF108991041051008001021999KA1240N+02411MA1999999101121MD1999999-0201REMSYN076AAXX  03124 83398 32596 83604 10276 20234 30112 40117 8452/ 333 20241 59020;EQDQ01  00002PRCP99
0167833980999992002020318004-15660-038920FM-12+000599999V0203601N002110450019N0040001N1+02741+02341100941ADDAA199000091GF107991041051008001021001MA1999999100891MD1999999-0151REMSYN070AAXX  03184 83398 32596 73604 10274 20234 30089 40094 84520 333 59015;EQDQ01  00002PRCP99
0213833980999992002020400004-15660-038920FM-12+000599999V0209999C000010450019N0010001N1+02381+02291101081ADDAA106007991AY191061AY261061GF107991041051008001021001KA1240M+03031MA1999999101031MD1999999-0051MW1021REMSYN100AAXX  04004 83398 21594 70000 10238 20229 30103 40108 70296 84520 333 10303 29087 55036 59005 60081;
0182833980999992002020418004-15660-038920FM-12+000599999V0203601N001010075019N0040001N1+02581+02371101141ADDAA106004191AY161061AY221061GF108991051051008001021999MA1999999101091MD1999999+0101MW1021REMSYN082AAXX  04184 83398 21596 83602 10258 20237 30109 40114 70262 8552/ 333 58010 60041;
0213833980999992002020500004-15660-038920FM-12+000599999V0209999C000010042019N0010001N1+02261+02141101551ADDAA106017091AY161061AY221061GF108991051071004501021999KA1240M+02641MA1999999101501MD1999999+0471MW1601REMSYN100AAXX  05004 83398 21494 80000 10226 20214 30150 40155 76062 8572/ 333 10264 29091 55000 58047 60171;
0201833980999992002020512004-15660-038920FM-12+000599999V0202701N001010075019N0040001N1+02561+02251101481ADDAA124031091AY161061AY221061GF107991051051008001021001KA1240N+02201MA1999999101431MD1999999+0041MW1021REMSYN088AAXX  05124 83398 21596 72702 10256 20225 30143 40148 70262 85520 333 20220 58004 60314;
0182833980999992002020518004-15660-038920FM-12+000599999V0200501N002110075019N0040001N1+02701+02301101351ADDAA106000591AY151061AY221061GF107991051051008001021001MA1999999101301MD1999999+0211MW1021REMSYN082AAXX  05184 83398 21596 70504 10270 20230 30130 40135 70252 85520 333 58021 69941;
0198833980999992002020600004-15660-038920FM-12+000599999V0209999C000010075019N0010001N1+02501+02341101621ADDAA199000091GF108991051051008001021999KA1240M+02931MA1999999101561MD1999999+0061REMSYN088AAXX  06004 83398 32594 80000 10250 20234 30156 40162 8552/ 333 10293 29086 55017 58006;EQDQ01  00002PRCP99
0201833980999992002020612004-15660-038920FM-12+000599999V0209999C000010042019N0040001N1+02341+02171101591ADDAA124005191AY161061AY221061GF108991061071004501021999KA1240N+02261MA1999999101541MD1999999+0101MW1601REMSYN088AAXX  06124 83398 21496 80000 10234 20217 30154 40159 76062 8672/ 333 20226 58010 60054;
0182833980999992002020618004-15660-038920FM-12+000599999V0209999C000010042019N0040001N1+02421+02211101451ADDAA106007191AY161061AY221061GF108991051051004501021999MA1999999101401MD1999999+0101MW1601REMSYN082AAXX  06184 83398 21496 80000 10242 20221 30140 40145 76062 8552/ 333 58010 60071;
0167833980999992002020718004-15660-038920FM-12+000599999V0200901N002110450019N0040001N1+02821+02501101361ADDAA199000091GF105991021021008001051001MA1999999101311MD1999999-0091REMSYN070AAXX  07184 83398 32596 50904 10282 20250 30131 40136 82250 333 59009;EQDQ01  00002PRCP99
0198833980999992002020800004-15660-038920FM-12+000599999V0200901N001010450019N0010001N1+02411+02241101631ADDAA199000091GF106991041051008001021001KA1240M+02851MA1999999101571MD1999999-0011REMSYN088AAXX  08004 83398 32594 60902 10241 20224 30157 40163 84520 333 10285 29087 55036 59001;EQDQ01  00002PRCP99
0186833980999992002020812004-15660-038920FM-12+000599999V0203601N002110450019N0040001N1+02801+02311101711ADDAA199000091GF105991031021008001041041KA1240N+02211MA1999999101651MD1999999-0051REMSYN076AAXX  08124 83398 32596 53604 10280 20231 30165 40171 83244 333 20221 59005;EQDQ01  00002PRCP99
0167833980999992002020818004-15660-038920FM-12+000599999V0200501N002111050019N0040001N1+02841+02331101481ADDAA199000091GF105991021021008001041041MA1999999101431MD1999999+0121REMSYN070AAXX  08184 83398 32596 50504 10284 20233 30143 40148 82244 333 58012;EQDQ01  00002PRCP99
0198833980999992002020900004-15660-038920FM-12+000599999V0200501N001012200019N0010001N1+02601+02271101541ADDAA199000091GF103991031011008001001001KA1240M+02951MA1999999101491MD1999999-0081REMSYN088AAXX  09004 83398 32594 30502 10260 20227 30149 40154 83100 333 10295 29078 55112 59008;EQDQ01  00002PRCP99
0186833980999992002020912004-15660-038920FM-12+000599999V0200901N002110450019N0040001N1+02771+02261101501ADDAA199000091GF105991031021008001041001KA1240N+02291MA1999999101451MD1999999-0201REMSYN076AAXX  09124 83398 32596 50904 10277 20226 30145 40150 83240 333 20229 59020;EQDQ01  00002PRCP99
0167833980999992002020918004-15660-038920FM-12+000599999V0200901N003111050019N0040001N1+02841+02311101431ADDAA199000091GF105991021021008001041011MA1999999101381MD1999999-0051REMSYN070AAXX  09184 83398 32596 50906 10284 20231 30138 40143 82241 333 59005;EQDQ01  00002PRCP99
0198833980999992002021000004-15660-038920FM-12+000599999V0200501N001012200019N0010001N1+02611+02201101561ADDAA199000091GF103991031011008001001001KA1240M+02971MA1999999101511MD1999999+0021REMSYN088AAXX  10004 83398 32594 30502 10261 20220 30151 40156 83100 333 10297 29078 55106 58002;EQDQ01  00002PRCP99
0201833980999992002021012004-15660-038920FM-12+000599999V0203201N001010450019N0040001N1+02621+02331101721ADDAA124007991AY161061AY221061GF107991041051004501021001KA1240N+02251MA1999999101661MD1999999+0211MW1021REMSYN088AAXX  10124 83398 21496 73202 10262 20233 30166 40172 70262 84520 333 20225 58021 60084;
0167833980999992002021018004-15660-038920FM-12+000599999V0200501N002110450019N0040001N1+02791+02261101501ADDAA199000091GF105991031021008001041001MA1999999101451MD1999999+0071REMSYN070AAXX  10184 83398 32596 50504 10279 20226 30145 40150 83240 333 58007;EQDQ01  00002PRCP99
0198833980999992002021100004-15660-038920FM-12+000599999V0200901N002110450019N0010001N1+02621+02271101641ADDAA199000091GF105991041021008001041001KA1240M+03001MA1999999101581MD1999999+0071REMSYN088AAXX  11004 83398 32594 50904 10262 20227 30158 40164 84240 333 10300 29079 55074 58007;EQDQ01  00002PRCP99
0175833980999992002021112004-15660-038920FM-12+000599999V0202701N002111050019N0040001N1+02671+02341101301ADDGF105991021021008001041011KA1240N+02141MA1999999999999MD1999999-0011REMSYN076AAXX  11124 83398 21596 52704 10267 20234 39682 40130 82241 333 20214 59001;EQDQ01 096823APOSP 
0183833980999992002021118004-15660-038920FM-12+000599999V0200901N003111050019N0040001N1+02861+02371101391ADDAA199000091GF105991021021008001041011MA1999999101342MD1999999-0111REMSYN070AAXX  11184 83398 32596 50906 10286 20237 30134 40139 82241 333 59011;EQDQ01+101343APOSP Q02  00002PRCP99
0198833980999992002021200004-15660-038920FM-12+000599999V0200501N001012200019N0010001N1+02611+02201101541ADDAA199000091GF102991021021008001001001KA1240M+02981MA1999999101491MD1999999-0091REMSYN088AAXX  12004 83398 32594 20502 10261 20220 30149 40154 82200 333 10298 29078 55106 59009;EQDQ01  00002PRCP99
0186833980999992002021212004-15660-038920FM-12+000599999V0201401N002110450019N0040001N1+02901+02221101751ADDAA199000091GF105991031021008001041001KA1240N+02811MA1999999101691MD1999999+0101REMSYN076AAXX  12124 83398 32596 51404 10290 20222 30169 40175 83240 333 20281 58010;EQDQ01  00002PRCP99
0167833980999992002021218004-15660-038920FM-12+000599999V0200901N003111050019N0040001N1+02861+02261101491ADDAA199000091GF105991021021008001041011MA1999999101441MD1999999+0101REMSYN070AAXX  12184 83398 32596 50906 10286 20226 30144 40149 82241 333 58010;EQDQ01  00002PRCP99
0198833980999992002021300004-15660-038920FM-12+000599999V0209999C000012200019N0010001N1+02681+02201101621ADDAA199000091GF103991031011008001001001KA1240M+03011MA1999999101561MD1999999+0071REMSYN088AAXX  13004 83398 32594 30000 10268 20220 30156 40162 83100 333 10301 29072 55110 58007;EQDQ01  00002PRCP99
0201833980999992002021312004-15660-038920FM-12+000599999V0201401N002112200019N0040001N1+02681+02371101691ADDAA124008991AY161061AY221061GF103991031021004501041001KA1240N+02201MA1999999101631MD1999999-0031MW1011REMSYN088AAXX  13124 83398 21496 31404 10268 20237 30163 40169 70162 83240 333 20220 59003 60094;
0167833980999992002021318004-15660-038920FM-12+000599999V0200901N003110450019N0040001N1+02861+02231101411ADDAA199000091GF105991031021008001041001MA1999999101361MD1999999-0081REMSYN070AAXX  13184 83398 32596 50906 10286 20223 30136 40141 83240 333 59008;EQDQ01  00002PRCP99
0186833980999992002021412004-15660-038920FM-12+000599999V0203201N001012200019N0040001N1+02701+02281101711ADDAA199000091GF104991031021008001041001KA1240N+02181MA1999999101651MD1999999+0021REMSYN076AAXX  14124 83398 32596 43202 10270 20228 30165 40171 83240 333 20218 58002;EQDQ01  00002PRCP99
0167833980999992002021418004-15660-038920FM-12+000599999V0203601N002112200019N0040001N1+02881+02231101311ADDAA199000091GF103991021021008001041001MA1999999101261MD1999999-0101REMSYN070AAXX  14184 83398 32596 33604 10288 20223 30126 40131 82240 333 59010;EQDQ01  00002PRCP99
0198833980999992002021500004-15660-038920FM-12+000599999V0200501N003112200019N0010001N1+02681+02261101571ADDAA199000091GF103991031011008001001001KA1240M+02981MA1999999101521MD1999999+0021REMSYN088AAXX  15004 83398 32594 30506 10268 20226 30152 40157 83100 333 10298 29076 55110 58002;EQDQ01  00002PRCP99
0186833980999992002021512004-15660-038920FM-12+000599999V0209999C000010450019N0040001N1+02741+02321101641ADDAA199000091GF105991041051008001041001KA1240N+02251MA1999999101581MD1999999-0071REMSYN076AAXX  15124 83398 32596 50000 10274 20232 30158 40164 84540 333 20225 59007;EQDQ01  00002PRCP99
0167833980999992002021518004-15660-038920FM-12+000599999V0200501N004110450019N0040001N1+02921+02341101371ADDAA199000091GF105991031021008001041001MA1999999101321MD1999999+0061REMSYN070AAXX  15184 83398 32596 50508 10292 20234 30132 40137 83240 333 58006;EQDQ01  00002PRCP99
0198833980999992002021600004-15660-038920FM-12+000599999V0200501N002112200019N0010001N1+02741+02321101561ADDAA199000091GF102991021011008001001001KA1240M+03021MA1999999101511MD1999999-0011REMSYN088AAXX  16004 83398 32594 20504 10274 20232 30151 40156 82100 333 10302 29076 55109 59001;EQDQ01  00002PRCP99
0201833980999992002021612004-15660-038920FM-12+000599999V0209999C000010450019N0040001N1+02621+02351101701ADDAA124006191AY161061AY221061GF107991041051004501021001KA1240N+02301MA1999999101641MD1999999+0061MW1021REMSYN088AAXX  16124 83398 21496 70000 10262 20235 30164 40170 70262 84520 333 20230 58006 60064;
0167833980999992002021618004-15660-038920FM-12+000599999V0200501N002110450019N0040001N1+02861+02311101471ADDAA199000091GF106991031021008001051011MA1999999101421MD1999999+0101REMSYN070AAXX  16184 83398 32596 60504 10286 20231 30142 40147 83251 333 58010;EQDQ01  00002PRCP99
0198833980999992002021700004-15660-038920FM-12+000599999V0200501N001012200019N0010001N1+02661+02371101451ADDAA199000091GF104991031021008001041001KA1240M+03021MA1999999101401MD1999999-0011REMSYN088AAXX  17004 83398 32594 40502 10266 20237 30140 40145 83240 333 10302 29081 55057 59001;EQDQ01  00002PRCP99
0201833980999992002021712004-15660-038920FM-12+000599999V0203201N001010450019N0040001N1+02831+02341101551ADDAA124000191AY151061AY221061GF106991031051004501041041KA1240N+02321MA1999999101501MD1999999-0141MW1011REMSYN088AAXX  17124 83398 21496 63202 10283 20234 30150 40155 70152 83544 333 20232 59014 69924;
0167833980999992002021718004-15660-038920FM-12+000599999V0200501N002110450019N0040001N1+02861+02391101341ADDAA199000091GF106991031021008001041041MA1999999101291MD1999999-0131REMSYN070AAXX  17184 83398 32596 60504 10286 20239 30129 40134 83244 333 59013;EQDQ01  00002PRCP99
0198833980999992002021800004-15660-038920FM-12+000599999V0200501N002110450019N0010001N1+02641+02371101351ADDAA199000091GF105991031021008001041001KA1240M+03041MA1999999101301MD1999999-0101REMSYN088AAXX  18004 83398 32594 50504 10264 20237 30130 40135 83240 333 10304 29080 55082 59010;EQDQ01  00002PRCP99
0186833980999992002021812004-15660-038920FM-12+000599999V0203601N001010450019N0040001N1+02911+02351101451ADDAA199000091GF106991041051008001021001KA1240N+02321MA1999999101401MD1999999-0101REMSYN076AAXX  18124 83398 32596 63602 10291 20235 30140 40145 84520 333 20232 59010;EQDQ01  00002PRCP99
0167833980999992002021818004-15660-038920FM-12+000599999V0200901N002111050019N0040001N1+02931+02371101201ADDAA199000091GF105991021021008001041041MA1999999101151MD1999999-0141REMSYN070AAXX  18184 83398 32596 50904 10293 20237 30115 40120 82244 333 59014;EQDQ01  00002PRCP99
0201833980999992002021912004-15660-038920FM-12+000599999V0200501N002110450019N0040001N1+02881+02351101531ADDAA124005191AY161061AY221061GF105991031021008001041001KA1240N+02381MA1999999101481MD1999999+0081MW1011REMSYN088AAXX  19124 83398 21596 50504 10288 20235 30148 40153 70162 83240 333 20238 58008 60054;
0167833980999992002021918004-15660-038920FM-12+000599999V0200501N002111050019N0040001N1+02881+02351101281ADDAA199000091GF105991021021008001041041MA1999999101231MD1999999+0081REMSYN070AAXX  19184 83398 32596 50504 10288 20235 30123 40128 82244 333 58008;EQDQ01  00002PRCP99
0198833980999992002022000004-15660-038920FM-12+000599999V0200501N002112200019N0010001N1+02701+02301101491ADDAA199000091GF103991031011008001001001KA1240M+03031MA1999999101441MD1999999+0061REMSYN088AAXX  20004 83398 32594 30504 10270 20230 30144 40149 83100 333 10303 29076 55082 58006;EQDQ01  00002PRCP99
0201833980999992002022012004-15660-038920FM-12+000599999V0200501N002110450019N0040001N1+02871+02321101611ADDAA124000891AY151061AY221061GF106991031021004501041041KA1240N+02281MA1999999101551MD1999999+0071MW1011REMSYN088AAXX  20124 83398 21496 60504 10287 20232 30155 40161 70152 83244 333 20228 58007 69984;
0167833980999992002022018004-15660-038920FM-12+000599999V0200501N002111050019N0040001N1+02951+02201101471ADDAA199000091GF105991021021008001041041MA1999999101421MD1999999+0191REMSYN070AAXX  20184 83398 32596 50504 10295 20220 30142 40147 82244 333 58019;EQDQ01  00002PRCP99
0198833980999992002022100004-15660-038920FM-12+000599999V0200501N002112200019N0010001N1+02651+02261101511ADDAA199000091GF102991021011008001001001KA1240M+03031MA1999999101461MD1999999+0021REMSYN088AAXX  21004 83398 32594 20504 10265 20226 30146 40151 82100 333 10303 29074 55088 58002;EQDQ01  00002PRCP99
0186833980999992002022112004-15660-038920FM-12+000599999V0203601N002110450019N0040001N1+02841+02291101491ADDAA199000091GF105991031021008001041011KA1240N+02181MA1999999101441MD1999999-0111REMSYN076AAXX  21124 83398 32596 53604 10284 20229 30144 40149 83241 333 20218 59011;EQDQ01  00002PRCP99
0167833980999992002022118004-15660-038920FM-12+000599999V0200501N002112200019N0040001N1+02871+02291101151ADDAA199000091GF104991021021008001041041MA1999999101101MD1999999-0321REMSYN070AAXX  21184 83398 32596 40504 10287 20229 30110 40115 82244 333 59032;EQDQ01  00002PRCP99
0198833980999992002022200004-15660-038920FM-12+000599999V0200501N002112200019N0010001N1+02561+02251101261ADDAA199000091GF103991021021008001041001KA1240M+03001MA1999999101211MD1999999-0251REMSYN088AAXX  22004 83398 32594 30504 10256 20225 30121 40126 82240 333 10300 29077 55103 59025;EQDQ01  00002PRCP99
0186833980999992002022212004-15660-038920FM-12+000599999V0203601N002110450019N0040001N1+02941+02291101281ADDAA199000091GF105991031021008001041011KA1240N+02131MA1999999101231MD1999999-0211REMSYN076AAXX  22124 83398 32596 53604 10294 20229 30123 40128 83241 333 20213 59021;EQDQ01  00002PRCP99
0167833980999992002022218004-15660-038920FM-12+000599999V0200501N002112200019N0040001N1+02901+02341100911ADDAA199000091GF103991021021008001041001MA1999999100861MD1999999-0241REMSYN070AAXX  22184 83398 32596 30504 10290 20234 30086 40091 82240 333 59024;EQDQ01  00002PRCP99
0198833980999992002022300004-15660-038920FM-12+000599999V0200501N002112200019N0010001N1+02561+02351101321ADDAA199000091GF102991021011008001001001KA1240M+03041MA1999999101271MD1999999+0061REMSYN088AAXX  23004 83398 32594 20504 10256 20235 30127 40132 82100 333 10304 29079 55111 58006;EQDQ01  00002PRCP99
0186833980999992002022312004-15660-038920FM-12+000599999V0203601N002110450019N0040001N1+02941+02361101401ADDAA199000091GF105991031021008001041001KA1240N+02341MA1999999101351MD1999999+0121REMSYN076AAXX  23124 83398 32596 53604 10294 20236 30135 40140 83240 333 20234 58012;EQDQ01  00002PRCP99
0167833980999992002022318004-15660-038920FM-12+000599999V0200501N003112200019N0040001N1+02971+02501101011ADDAA199000091GF102991021021008001001001MA1999999100961MD1999999+0101REMSYN070AAXX  23184 83398 32596 20506 10297 20250 30096 40101 82200 333 58010;EQDQ01  00002PRCP99
0186833980999992002022412004-15660-038920FM-12+000599999V0203601N002110450019N0040001N1+02951+02371101461ADDAA199000091GF105991031021008001041011KA1240N+02381MA1999999101411MD1999999+0061REMSYN076AAXX  24124 83398 32596 53604 10295 20237 30141 40146 83241 333 20238 58006;EQDQ01  00002PRCP99
0167833980999992002022418004-15660-038920FM-12+000599999V0200501N004110450019N0040001N1+02951+02491101411ADDAA199000091GF106991021021008001011001MA1999999101361MD1999999+0401REMSYN070AAXX  24184 83398 32596 60508 10295 20249 30136 40141 82210 333 58040;EQDQ01  00002PRCP99
0167833980999992002022518004-15660-038920FM-12+000599999V0200901N002110450019N0040001N1+02891+02191101321ADDAA199000091GF105991031021008001041041MA1999999101271MD1999999+0111REMSYN070AAXX  25184 83398 32596 50904 10289 20219 30127 40132 83244 333 58011;EQDQ01  00002PRCP99
0198833980999992002022600004-15660-038920FM-12+000599999V0209999C000010450019N0010001N1+02571+02321101691ADDAA199000091GF105991031021008001051041KA1240M+03031MA1999999101631MD1999999+0301REMSYN088AAXX  26004 83398 32594 50000 10257 20232 30163 40169 83254 333 10303 29078 55083 58030;EQDQ01  00002PRCP99
0186833980999992002022612004-15660-038920FM-12+000599999V0202301N001010450019N0040001N1+02691+02381101641ADDAA199000091GF106991031051008001041011KA1240N+02201MA1999999101581MD1999999+0061REMSYN076AAXX  26124 83398 32596 62302 10269 20238 30158 40164 83541 333 20220 58006;EQDQ01  00002PRCP99
0167833980999992002022618004-15660-038920FM-12+000599999V0200901N002112200019N0040001N1+02881+02251101491ADDAA199000091GF103991021021008001041001MA1999999101441MD1999999+0171REMSYN070AAXX  26184 83398 32596 30904 10288 20225 30144 40149 82240 333 58017;EQDQ01  00002PRCP99
0198833980999992002022700004-15660-038920FM-12+000599999V0200901N002112200019N0010001N1+02481+02071101701ADDAA199000091GF102991021021008001001001KA1240M+03001MA1999999101641MD1999999+0011REMSYN088AAXX  27004 83398 32594 20904 10248 20207 30164 40170 82200 333 10300 29077 55102 58001;EQDQ01  00002PRCP99
0186833980999992002022712004-15660-038920FM-12+000599999V0201801N002112200019N0040001N1+02801+02271101751ADDAA199000091GF104991031021008001041001KA1240N+02051MA1999999101691MD1999999+0111REMSYN076AAXX  27124 83398 32596 41804 10280 20227 30169 40175 83240 333 20205 58011;EQDQ01  00002PRCP99
0167833980999992002022718004-15660-038920FM-12+000599999V0201401N002110450019N0040001N1+02851+02231101521ADDAA199000091GF106991031021008001051001MA1999999101471MD1999999+0031REMSYN070AAXX  27184 83398 32596 61404 10285 20223 30147 40152 83250 333 58003;EQDQ01  00002PRCP99
0198833980999992002022800004-15660-038920FM-12+000599999V0209999C000010450019N0010001N1+02561+02211101681ADDAA199000091GF106991031051008001021001KA1240M+03001MA1999999101621MD1999999-0021REMSYN088AAXX  28004 83398 32594 60000 10256 20221 30162 40168 83520 333 10300 29076 55089 59002;EQDQ01  00002PRCP99
0186833980999992002022812004-15660-038920FM-12+000599999V0201801N002110450019N0040001N1+02701+02201101591ADDAA199000091GF106991031051008001041041KA1240N+02031MA1999999101541MD1999999-0151REMSYN076AAXX  28124 83398 32596 61804 10270 20220 30154 40159 83544 333 20203 59015;EQDQ01  00002PRCP99
0182833980999992002022818004-15660-038920FM-12+000599999V0200901N002110450019N0040001N1+02891+02171101481ADDAA106000391AY151061AY221061GF105991031021008001041041MA1999999101431MD1999999-0041MW1011REMSYN082AAXX  28184 83398 21596 50904 10289 20217 30143 40148 70152 83244 333 59004 69931;
0198833980999992002030100004-15660-038920FM-12+000599999V0202301N001012200019N0010001N1+02411+02241101571ADDAA199000091GF104991021021008001041041KA1240M+03041MA1999999101521MD1999999-0101REMSYN088AAXX  01004 83398 32594 42302 10241 20224 30152 40157 82244 333 10304 29080 55057 59010;EQDQ01  00002PRCP99
0201833980999992002030112004-15660-038920FM-12+000599999V0202301N002110450019N0040001N1+02681+02351101571ADDAA124000891AY151061AY221061GF106991041051004501041001KA1240N+02261MA1999999101521MD1999999-0021MW1011REMSYN088AAXX  01124 83398 21496 62304 10268 20235 30152 40157 70152 84540 333 20226 59002 69984;
0167833980999992002030118004-15660-038920FM-12+000599999V0201401N002112200019N0040001N1+02911+02311101411ADDAA199000091GF104991021021008001041041MA1999999101361MD1999999-0071REMSYN070AAXX  01184 83398 32596 41404 10291 20231 30136 40141 82244 333 59007;EQDQ01  00002PRCP99
0167833980999992002030218004-15660-038920FM-12+000599999V0202301N001012200019N0040001N1+02961+02351101371ADDAA199000091GF104991031021008001041001MA1999999101321MD1999999-0041REMSYN070AAXX  02184 83398 32596 42302 10296 20235 30132 40137 83240 333 59004;EQDQ01  00002PRCP99
0201833980999992002030412004-15660-038920FM-12+000599999V0201401N001010450019N0040001N1+02651+02471101621ADDAA124038191AY191061AY261061GF107991041051004501021001KA1240N+02181MA1999999101561MD1999999-0051MW1021REMSYN088AAXX  04124 83398 21496 71402 10265 20247 30156 40162 70296 84520 333 20218 59005 60384;
0182833980999992002030418004-15660-038920FM-12+000599999V0201401N002110450019N0040001N1+02881+02391101471ADDAA106000191AY151061AY221061GF106991041051004501041001MA1999999101421MD1999999-0021MW1011REMSYN082AAXX  04184 83398 21496 61404 10288 20239 30142 40147 70152 84540 333 59002 69911;
0201833980999992002030512004-15660-038920FM-12+000599999V0209999C000010042019N0040001N1+02421+02301101661ADDAA124007991AY191061AY261061GF108991051071004501021999KA1240N+02341MA1999999101601MD1999999+0041MW1601REMSYN088AAXX  05124 83398 21496 80000 10242 20230 30160 40166 76096 8572/ 333 20234 58004 60084;
0182833980999992002030518004-15660-038920FM-12+000599999V0209999C000010042019N0040001N1+02391+02271101651ADDAA106029091AY191061AY261061GF108991061071004501021999MA1999999101591MD1999999+0171MW1601REMSYN082AAXX  05184 83398 21496 80000 10239 20227 30159 40165 76096 8672/ 333 58017 60291;
0213833980999992002030600004-15660-038920FM-12+000599999V0209999C000012200019N0010001N1+02311+02191101571ADDAA106010991AY161061AY221061GF104991041011004501001001KA1240M+02651MA1999999101521MD1999999-0101MW1011REMSYN100AAXX  06004 83398 21494 40000 10231 20219 30152 40157 70162 84100 333 10265 29093 55000 59010 60111;
0201833980999992002030612004-15660-038920FM-12+000599999V0201801N002110450019N0040001N1+02811+02431101561ADDAA124039991AY151061AY221061GF105991031021004501041001KA1240N+02241MA1999999101511MD1999999-0091MW1021REMSYN088AAXX  06124 83398 21496 51804 10281 20243 30151 40156 70252 83240 333 20224 59009 60404;
0167833980999992002030618004-15660-038920FM-12+000599999V0200901N003112200019N0040001N1+02871+02321101511ADDAA199000091GF104991021021008001041001MA1999999101461MD1999999-0131REMSYN070AAXX  06184 83398 32596 40906 10287 20232 30146 40151 82240 333 59013;EQDQ01  00002PRCP99
0198833980999992002030700004-15660-038920FM-12+000599999V0200901N002112200019N0010001N1+02671+02371101581ADDAA199000091GF103991021021008001041001KA1240M+03041MA1999999101531MD1999999+0011REMSYN088AAXX  07004 83398 32594 30904 10267 20237 30153 40158 82240 333 10304 29078 55091 58001;EQDQ01  00002PRCP99
0201833980999992002030712004-15660-038920FM-12+000599999V0201801N001010450019N0040001N1+02641+02391101721ADDAA124000591AY151061AY221061GF106991041051004501041001KA1240N+02171MA1999999101661MD1999999+0151MW1021REMSYN088AAXX  07124 83398 21496 61802 10264 20239 30166 40172 70252 84540 333 20217 58015 69964;
0182833980999992002030718004-15660-038920FM-12+000599999V0200901N002110450019N0040001N1+02901+02391101581ADDAA106001091AY151061AY221061GF105991031021004501041011MA1999999101531MD1999999+0071MW1011REMSYN082AAXX  07184 83398 21496 50904 10290 20239 30153 40158 70152 83241 333 58007 60011;
0198833980999992002030800004-15660-038920FM-12+000599999V0209999C000012200019N0010001N1+02441+02321101701ADDAA199000091GF104991041011008001001001KA1240M+03001MA1999999101641MD1999999+0111REMSYN088AAXX  08004 83398 32594 40000 10244 20232 30164 40170 84100 333 10300 29087 55089 58011;EQDQ01  00002PRCP99
0201833980999992002030812004-15660-038920FM-12+000599999V0200901N002110450019N0040001N1+02841+02421101791ADDAA124003091AY151061AY221061GF105991031021004501041001KA1240N+02231MA1999999101731MD1999999+0071MW1011REMSYN088AAXX  08124 83398 21496 50904 10284 20242 30173 40179 70152 83240 333 20223 58007 60034;
0167833980999992002030818004-15660-038920FM-12+000599999V0200901N002112200019N0040001N1+02881+02251101521ADDAA199000091GF104991031021008001041001MA1999999101471MD1999999-0061REMSYN070AAXX  08184 83398 32596 40904 10288 20225 30147 40152 83240 333 59006;EQDQ01  00002PRCP99
0198833980999992002030900004-15660-038920FM-12+000599999V0200501N001012200019N0010001N1+02641+99999101671ADDAA199000091GF102991021011008001001001KA1240M+03031MA1999999101611MD1999999-0031REMSYN088AAXX  09004 83398 32594 20502 10264 20278 30161 40167 82100 333 10303 29077 55090 59003;EQDQ01  00002PRCP99
0186833980999992002030912004-15660-038920FM-12+000599999V0200901N002112200019N0040001N1+02781+02381101811ADDAA199000091GF104991031021008001041001KA1240N+02241MA1999999101751MD1999999+0021REMSYN076AAXX  09124 83398 32596 40904 10278 20238 30175 40181 83240 333 20224 58002;EQDQ01  00002PRCP99
0182833980999992002030918004-15660-038920FM-12+000599999V0200901N002112200019N0040001N1+02881+02321101471ADDAA106000191AY151061AY221061GF104991031021004501041001MA1999999101421MD1999999-0051MW1011REMSYN082AAXX  09184 83398 21496 40904 10288 20232 30142 40147 70152 83240 333 59005 69921;
0198833980999992002031000004-15660-038920FM-12+000599999V0200501N001012200019N0010001N1+02601+02331101721ADDAA199000091GF103991031021008001001001KA1240M+02971MA1999999101661MD1999999+0051REMSYN088AAXX  10004 83398 32594 30502 10260 20233 30166 40172 83200 333 10297 29080 55075 58005;EQDQ01  00002PRCP99
0201833980999992002031012004-15660-038920FM-12+000599999V0201401N002110450019N0040001N1+02801+02361101771ADDAA124024991AY161061AY221061GF106991031051008001041001KA1240N+02271MA1999999101711MD1999999-0041MW1021REMSYN088AAXX  10124 83398 21596 61404 10280 20236 30171 40177 70262 83540 333 20227 59004 60254;
0213833980999992002031100004-15660-038920FM-12+000599999V0200901N002110450019N0010001N1+02541+02251101711ADDAA106003091AY161061AY221061GF106991041051008001021001KA1240M+02981MA1999999101651MD1999999-0011MW1021REMSYN100AAXX  11004 83398 21594 60904 10254 20225 30165 40171 70262 84520 333 10298 29079 55106 59001 60031;
0182833980999992002031118004-15660-038920FM-12+000599999V0200901N002111050019N0040001N1+02841+02381101611ADDAA106007991AY161061AY221061GF105991021021004501041011MA1999999101551MD1999999+0171MW1011REMSYN082AAXX  11184 83398 21496 50904 10284 20238 30155 40161 70162 82241 333 58017 60081;
0201833980999992002031212004-15660-038920FM-12+000599999V0201401N002110042019N0006001N1+02551+02361101891ADDAA124018091AY161061AY221061GF108991051051004501021999KA1240N+02301MA1999999101831MD1999999+0111MW1601REMSYN088AAXX  12124 83398 21406 81404 10255 20236 30183 40189 76062 8552/ 333 20230 58011 60184;
0148833980999992002031218004-15660-038920FM-12+000599999V0200901N002110450019N0040001N1+02911+02451101621ADDAA199000021GF106991041051008001041001MA1999999101561MD1999999+0011REMSYN070AAXX  12184 83398 32596 60904 10291 20245 30156 40162 84540 333 58001;
0201833980999992002031312004-15660-038920FM-12+000599999V0202701N001010075019N0040001N1+02681+02461101821ADDAA124007991AY161061AY221061GF107991051051008001021001KA1240N+02241MA1999999101761MD1999999-0071MW1021REMSYN088AAXX  13124 83398 21596 72702 10268 20246 30176 40182 70262 85520 333 20224 59007 60084;
0167833980999992002031318004-15660-038920FM-12+000599999V0200901N003110450019N0040001N1+02901+02341101521ADDAA199000091GF106991041051008001041001MA1999999101471MD1999999-0091REMSYN070AAXX  13184 83398 32596 60906 10290 20234 30147 40152 84540 333 59009;EQDQ01  00002PRCP99
0213833980999992002031400004-15660-038920FM-12+000599999V0200901N002110450019N0010001N1+02641+02371101671ADDAA106003091AY161061AY221061GF106991041051008001021001KA1240M+02981MA1999999101611MD1999999-0091MW1021REMSYN100AAXX  14004 83398 21594 60904 10264 20237 30161 40167 70262 84520 333 10298 29073 55083 59009 60031;
0173833980999992002031412004-15660-038920FM-12+000599999V0202701N001010450019N0040001N1+02781+02361101621ADDAA124003091GF106991041051008001021001KA1240N+02141MA1999999101561MD1999999-0201REMSYN082AAXX  14124 83398 22596 62702 10278 20236 30156 40162 84520 333 20214 59020 60034;
0167833980999992002031418004-15660-038920FM-12+000599999V0200901N003110450019N0040001N1+02901+02341101521ADDAA199000091GF106991041051008001041001MA1999999101471MD1999999-0091REMSYN070AAXX  14184 83398 32596 60906 10290 20234 30147 40152 84540 333 59009;EQDQ01  00002PRCP99
0198833980999992002031500004-15660-038920FM-12+000599999V0200501N002112200019N0010001N1+02681+02181101401ADDAA199000091GF103991031011008001001001KA1240M+03041MA1999999101351MD1999999-0261REMSYN088AAXX  15004 83398 32594 30504 10268 20218 30135 40140 83100 333 10304 29073 55104 59026;EQDQ01  00002PRCP99
0186833980999992002031512004-15660-038920FM-12+000599999V0203601N001010450019N0040001N1+02831+02341101371ADDAA199000091GF105991031021008001041011KA1240N+02281MA1999999101321MD1999999-0241REMSYN076AAXX  15124 83398 32596 53602 10283 20234 30132 40137 83241 333 20228 59024;EQDQ01  00002PRCP99
0167833980999992002031518004-15660-038920FM-12+000599999V0200501N003110450019N0040001N1+02941+02311101161ADDAA199000091GF106991031021008001041011MA1999999101111MD1999999-0191REMSYN070AAXX  15184 83398 32596 60506 10294 20231 30111 40116 83241 333 59019;EQDQ01  00002PRCP99
0198833980999992002031600004-15660-038920FM-12+000599999V0200501N003112200019N0010001N1+02701+02261101271ADDAA199000091GF104991031011008001041001KA1240M+03021MA1999999101221MD1999999-0131REMSYN088AAXX  16004 83398 32594 40506 10270 20226 30122 40127 83140 333 10302 29075 55105 59013;EQDQ01  00002PRCP99
0186833980999992002031612004-15660-038920FM-12+000599999V0203601N002110450019N0040001N1+02871+02291101471ADDAA199000091GF105991031021008001041041KA1240N+02301MA1999999101421MD1999999+0101REMSYN076AAXX  16124 83398 32596 53604 10287 20229 30142 40147 83244 333 20230 58010;EQDQ01  00002PRCP99
0167833980999992002031618004-15660-038920FM-12+000599999V0200501N003110450019N0040001N1+02921+02221101201ADDAA199000091GF105991031021008001041001MA1999999101151MD1999999+0041REMSYN070AAXX  16184 83398 32596 50506 10292 20222 30115 40120 83240 333 58004;EQDQ01  00002PRCP99
0198833980999992002031700004-15660-038920FM-12+000599999V0200901N002112200019N0010001N1+02681+02201101371ADDAA199000091GF102991021011008001001001KA1240M+02991MA1999999101321MD1999999+0101REMSYN088AAXX  17004 83398 32594 20904 10268 20220 30132 40137 82100 333 10299 29072 55097 58010;EQDQ01  00002PRCP99
0186833980999992002031712004-15660-038920FM-12+000599999V0200501N001010450019N0040001N1+02801+02361101471ADDAA199000091GF106991041051008001041001KA1240N+02241MA1999999101421MD1999999+0001REMSYN076AAXX  17124 83398 32596 60502 10280 20236 30142 40147 84540 333 20224 58000;EQDQ01  00002PRCP99
0167833980999992002031718004-15660-038920FM-12+000599999V0200501N002110450019N0040001N1+02871+02341101231ADDAA199000091GF105991031021008001041001MA1999999101181MD1999999+0031REMSYN070AAXX  17184 83398 32596 50504 10287 20234 30118 40123 83240 333 58003;EQDQ01  00002PRCP99
0198833980999992002031800004-15660-038920FM-12+000599999V0200901N001010450019N0010001N1+02541+02201101381ADDAA199000091GF106991041051008001021001KA1240M+02991MA1999999101331MD1999999+0011REMSYN088AAXX  18004 83398 32594 60902 10254 20220 30133 40138 84520 333 10299 29082 55078 58001;EQDQ01  00002PRCP99
0186833980999992002031812004-15660-038920FM-12+000599999V0200501N001010450019N0040001N1+02821+02401101511ADDAA199000091GF105991031021008001041041KA1240N+02161MA1999999101461MD1999999+0041REMSYN076AAXX  18124 83398 32596 50502 10282 20240 30146 40151 83244 333 20216 58004;EQDQ01  00002PRCP99
0167833980999992002031818004-15660-038920FM-12+000599999V0200901N002110450019N0040001N1+02881+02351101151ADDAA199000091GF105991031021008001041041MA1999999101101MD1999999-0081REMSYN070AAXX  18184 83398 32596 50904 10288 20235 30110 40115 83244 333 59008;EQDQ01  00002PRCP99
0198833980999992002031900004-15660-038920FM-12+000599999V0200501N002112200019N0010001N1+02701+02371101381ADDAA199000091GF103991021021008001041001KA1240M+03301MA1999999101331MD1999999+0001REMSYN088AAXX  19004 83398 32594 30504 10270 20237 30133 40138 82240 333 10330 29079 55095 58000;EQDQ01  00002PRCP99
0201833980999992002031912004-15660-038920FM-12+000599999V0209999C000010450019N0040001N1+02581+02371101501ADDAA124001091AY151061AY221061GF107991041051004501021001KA1240N+02291MA1999999101451MD1999999-0011MW1501REMSYN088AAXX  19124 83398 21496 70000 10258 20237 30145 40150 75052 84520 333 20229 59001 60014;
0182833980999992002031918004-15660-038920FM-12+000599999V0200901N002110450019N0040001N1+02921+02451101111ADDAA106001091AY151061AY221061GF106991041051008001021001MA1999999101061MD1999999-0041MW1021REMSYN082AAXX  19184 83398 21596 60904 10292 20245 30106 40111 70252 84520 333 59004 60011;
0179833980999992002032000004-15660-038920FM-12+000599999V0200501N001010450019N0010001N1+02661+02391101311ADDAA199000021GF105991031051008001021001KA1240M+03041MA1999999101261MD1999999-0071REMSYN088AAXX  20004 83398 32594 50502 10266 20239 30126 40131 83520 333 10304 29084 55052 59007;
0201833980999992002032012004-15660-038920FM-12+000599999V0200501N002110450019N0040001N1+02821+02401101441ADDAA124010991AY161061AY221061GF105991031021004501051001KA1240N+02311MA1999999101391MD1999999-0061MW1011REMSYN088AAXX  20124 83398 21496 50504 10282 20240 30139 40144 70162 83250 333 20231 59006 60114;
0167833980999992002032018004-15660-038920FM-12+000599999V0200501N002110450019N0040001N1+02881+02371101121ADDAA199000091GF105991031021008001051001MA1999999101071MD1999999+0011REMSYN070AAXX  20184 83398 32596 50504 10288 20237 30107 40112 83250 333 58001;EQDQ01  00002PRCP99
0198833980999992002032100004-15660-038920FM-12+000599999V0209999C000012200019N0010001N1+02621+02251101261ADDAA199000091GF104991021021008001051001KA1240M+03051MA1999999101211MD1999999-0051REMSYN088AAXX  21004 83398 32594 40000 10262 20225 30121 40126 82250 333 10305 29078 55106 59005;EQDQ01  00002PRCP99
0186833980999992002032112004-15660-038920FM-12+000599999V0203201N002110450019N0040001N1+02831+02411101321ADDAA199000091GF105991031051008001041001KA1240N+02181MA1999999101271MD1999999-0121REMSYN076AAXX  21124 83398 32596 53204 10283 20241 30127 40132 83540 333 20218 59012;EQDQ01  00002PRCP99
0167833980999992002032118004-15660-038920FM-12+000599999V0200501N003110450019N0040001N1+02921+02411101001ADDAA199000091GF105991031021008001041001MA1999999100951MD1999999-0121REMSYN070AAXX  21184 83398 32596 50506 10292 20241 30095 40100 83240 333 59012;EQDQ01  00002PRCP99
0198833980999992002032200004-15660-038920FM-12+000599999V0200501N001012200019N0010001N1+02641+02331101171ADDAA199000091GF102991021021008001001001KA1240M+03051MA1999999101121MD1999999-0091REMSYN088AAXX  22004 83398 32594 20502 10264 20233 30112 40117 82200 333 10305 29080 55099 59009;EQDQ01  00002PRCP99
0186833980999992002032212004-15660-038920FM-12+000599999V0209999C000010450019N0040001N1+02801+02401101501ADDAA199000091GF106991031051008001041011KA1240N+02301MA1999999101451MD1999999+0181REMSYN076AAXX  22124 83398 32596 60000 10280 20240 30145 40150 83541 333 20230 58018;EQDQ01  00002PRCP99
0167833980999992002032218004-15660-038920FM-12+000599999V0200901N002110450019N0040001N1+02921+02411101181ADDAA199000091GF106991041051008001021001MA1999999101331MD1999999+0181REMSYN070AAXX  22184 83398 32596 60904 10292 20241 30133 40118 84520 333 58018;EQDQ01  00002PRCP99
0198833980999992002032300004-15660-038920FM-12+000599999V0202301N001012200019N0010001N1+02491+02341101351ADDAA199000091GF104991041021008001001001KA1240M+03051MA1999999101301MD1999999+0181REMSYN088AAXX  23004 83398 32594 42302 10249 20234 30130 40135 84200 333 10305 29084 55088 58018;EQDQ01  00002PRCP99
0186833980999992002032312004-15660-038920FM-12+000599999V0202301N001010450019N0040001N1+02701+02431101621ADDAA199000091GF106991041051008001021001KA1240N+02221MA1999999101561MD1999999+0111REMSYN076AAXX  23124 83398 32596 62302 10270 20243 30156 40162 84520 333 20222 58011;EQDQ01  00002PRCP99
0167833980999992002032318004-15660-038920FM-12+000599999V0200901N003110450019N0040001N1+02921+02341101271ADDAA199000091GF106991031021008001041011MA1999999101221MD1999999+0091REMSYN070AAXX  23184 83398 32596 60906 10292 20234 30122 40127 83241 333 58009;EQDQ01  00002PRCP99
0198833980999992002032400004-15660-038920FM-12+000599999V0201401N002112200019N0040001N1+02661+02441101441ADDAA199000091GF104991041021008001001001KA1240M+03021MA1999999101391MD1999999+0091REMSYN088AAXX  24004 83398 32596 41404 10266 20244 30139 40144 84200 333 10302 29083 55083 58009;EQDQ01  00002PRCP99
0167833980999992002032412004-15660-038920FM-12+000599999V0202301N001019999999N0040001N1+02701+02411101551ADDGF106991999999008001999999KA1240N+02251MA1999999101501MD1999999-0061REMSYN087AAXX  24124 83398 21596 62302 10270 20241 30150 40155 0296 84540 333 20225 59006 60174;
0167833980999992002032418004-15660-038920FM-12+000599999V0200901N002110450019N0040001N1+02901+02391101241ADDAA199000091GF105991031021008001041041MA1999999101191MD1999999-0031REMSYN070AAXX  24184 83398 32596 50904 10290 20239 30119 40124 83244 333 59003;EQDQ01  00002PRCP99
0167833980999992002032518004-15660-038920FM-12+000599999V0200501N003110450019N0040001N1+02861+02391101191ADDAA199000091GF106991031051008001041011MA1999999101141MD1999999-0051REMSYN070AAXX  25184 83398 32596 60506 10286 20239 30114 40119 83541 333 59005;EQDQ01  00002PRCP99
0186833980999992002032612004-15660-038920FM-12+000599999V0200501N002112200019N0040001N1+02941+02331101431ADDAA199000091GF104991031021008001041001KA1240N+02291MA1999999101381MD1999999-0051REMSYN076AAXX  26124 83398 32596 40504 10294 20233 30138 40143 83240 333 20229 59005;EQDQ01  00002PRCP99
0167833980999992002032618004-15660-038920FM-12+000599999V0200501N003110450019N0040001N1+02901+02391101151ADDAA199000091GF105991031021008001041011MA1999999101101MD1999999-0041REMSYN070AAXX  26184 83398 32596 50506 10290 20239 30110 40115 83241 333 59004;EQDQ01  00002PRCP99
0198833980999992002032700004-15660-038920FM-12+000599999V0200501N000510450019N0010001N1+02731+02271101391ADDAA199000091GF105991031021008001041001KA1240M+03001MA1999999101341MD1999999+0031REMSYN088AAXX  27004 83398 32594 50501 10273 20227 30134 40139 83240 333 10300 29075 55104 58003;EQDQ01  00002PRCP99
0201833980999992002032712004-15660-038920FM-12+000599999V0200501N002110450019N0040001N1+02701+02281101701ADDAA124000191AY151061AY221061GF107991041051004501021001KA1240N+02301MA1999999101641MD1999999+0261MW1021REMSYN088AAXX  27124 83398 21496 70504 10270 20228 30164 40170 70252 84520 333 20230 58026 69924;
0167833980999992002032718004-15660-038920FM-12+000599999V0200501N002112200019N0040001N1+02901+02221101441ADDAA199000091GF104991031011008001041001MA1999999101391MD1999999+0291REMSYN070AAXX  27184 83398 32596 40504 10290 20222 30139 40144 83140 333 58029;EQDQ01  00002PRCP99
0201833980999992002032812004-15660-038920FM-12+000599999V0202701N001010450019N0040001N1+02601+02351101831ADDAA124002091AY191061AY261061GF106991041051008001021001KA1240N+02301MA1999999101771MD1999999+0131MW1021REMSYN088AAXX  28124 83398 21596 62702 10260 20235 30177 40183 70296 84520 333 20230 58013 60024;
0167833980999992002032818004-15660-038920FM-12+000599999V0200901N003110450019N0040001N1+02921+02411101491ADDAA199000091GF106991031051008001041011MA1999999101441MD1999999+0051REMSYN070AAXX  28184 83398 32596 60906 10292 20241 30144 40149 83541 333 58005;EQDQ01  00002PRCP99
0198833980999992002032900004-15660-038920FM-12+000599999V0201801N002110075019N0010001N1+02541+02351101611ADDAA199000091GF107991051051008001021001KA1240M+03021MA1999999101551MD1999999+0401REMSYN088AAXX  29004 83398 32594 71804 10254 20235 30155 40161 85520 333 10302 29085 55087 58040;EQDQ01  00002PRCP99
0201833980999992002032912004-15660-038920FM-12+000599999V0201801N002110450019N0040001N1+02701+02451101691ADDAA124007991AY161061AY221061GF106991041051008001021001KA1240N+02311MA1999999101631MD1999999-0141MW1021REMSYN088AAXX  29124 83398 21596 61804 10270 20245 30163 40169 70262 84520 333 20231 59014 60084;
0182833980999992002032918004-15660-038920FM-12+000599999V0201401N003110450019N0040001N1+02901+02391101401ADDAA106000191AY151061AY221061GF106991041051008001041001MA1999999101351MD1999999-0091MW1021REMSYN082AAXX  29184 83398 21596 61406 10290 20239 30135 40140 70252 84540 333 59009 69911;
0198833980999992002033000004-15660-038920FM-12+000599999V0200901N002110450019N0040001N1+02721+02371101611ADDAA199000091GF106991041051008001041001KA1240M+03011MA1999999101551MD1999999+0001REMSYN088AAXX  30004 83398 32596 60904 10272 20237 30155 40161 84540 333 10301 29081 55080 58000;EQDQ01  00002PRCP99
0201833980999992002033012004-15660-038920FM-12+000599999V0201401N003110075019N0040001N1+02901+02301101671ADDAA124000591AY151061AY221061GF105991051051008001001001KA1240N+02301MA1999999101611MD1999999-0021MW1021REMSYN088AAXX  30124 83398 21596 51406 10290 20230 30161 40167 70252 85500 333 20230 59002 69964;
0167833980999992002033018004-15660-038920FM-12+000599999V0200901N003112200019N0040001N1+02941+02361101401ADDAA199000091GF104991041021008001001001MA1999999101351MD1999999+0001REMSYN070AAXX  30184 83398 32596 40906 10294 20236 30135 40140 84200 333 58000;EQDQ01  00002PRCP99
0213833980999992002033100004-15660-038920FM-12+000599999V0201801N002110075019N0010001N1+02461+02321101641ADDAA106015091AY161061AY221061GF107991051051008001021001KA1240M+03031MA1999999101581MD1999999+0031MW1601REMSYN100AAXX  31004 83398 21594 71804 10246 20232 30158 40164 76062 85520 333 10303 29081 55087 58003 60151;
0201833980999992002033112004-15660-038920FM-12+000599999V0201801N001010075019N0040001N1+02681+02331101721ADDAA124031091AY161061AY221061GF107991051051008001021001KA1240N+02311MA1999999101661MD1999999+0051MW1021REMSYN088AAXX  31124 83398 21596 71802 10268 20233 30166 40172 70262 85520 333 20231 58005 60314;
0167833980999992002033118004-15660-038920FM-12+000599999V0200901N002112200019N0040001N1+02881+02251101431ADDAA199000091GF104991031021008001041001MA1999999101381MD1999999+0031REMSYN070AAXX  31184 83398 32596 40904 10288 20225 30138 40143 83240 333 58003;EQDQ01  00002PRCP99
0198833980999992002040100004-15660-038920FM-12+000599999V0209999C000012200019N0010001N1+02511+02371101591ADDAA199000091GF104991031021008001041001KA1240M+02971MA1999999101541MD1999999-0041REMSYN088AAXX  01004 83398 32594 40000 10251 20237 30154 40159 83240 333 10297 29074 55064 59004;EQDQ01  00002PRCP99
0201833980999992002040112004-15660-038920FM-12+000599999V0200901N001010450019N0040001N1+02801+02401101681ADDAA124003091AY151061AY221061GF105991031021008001041001KA1240N+02281MA1999999101621MD1999999-0041MW1011REMSYN088AAXX  01124 83398 21596 50902 10280 20240 30162 40168 70152 83240 333 20228 59004 60034;
0182833980999992002040118004-15660-038920FM-12+000599999V0200901N002110450019N0040001N1+02801+02401101371ADDAA106000191AY151061AY221061GF105991031051004501041001MA1999999101521MD1999999-0061MW1011REMSYN082AAXX  01184 83398 21496 50904 10280 20240 30152 40137 70152 83540 333 59006 69911;
0213833980999992002040200004-15660-038920FM-12+000599999V0202301N001010042019N0010001N1+02511+02351101611ADDAA106000191AY151061AY221061GF108991051051004501021999KA1240M+03021MA1999999101551MD1999999+0011MW1021REMSYN100AAXX  02004 83398 21494 82302 10251 20235 30155 40161 70252 8552/ 333 10302 29086 55095 58001 69911;
0201833980999992002040212004-15660-038920FM-12+000599999V0202701N001010450019N0040001N1+02791+02411101631ADDAA124003091AY151061AY221061GF105991031021004501041001KA1240N+02291MA1999999101571MD1999999-0051MW1011REMSYN088AAXX  02124 83398 21496 52702 10279 20241 30157 40163 70152 83240 333 20229 59005 60034;
0167833980999992002040218004-15660-038920FM-12+000599999V0200901N002110450019N0040001N1+02831+02251101401ADDAA199000091GF106991031051008001021001MA1999999101351MD1999999+0031REMSYN070AAXX  02184 83398 32596 60904 10283 20225 30135 40140 83520 333 58003;EQDQ01  00002PRCP99
0214833980999992002040300004-15660-038920FM-12+000599999V0200501N001019999999N0010001N1+02501+02361101631ADDAA199000091GF106991999051008001001001KA1240M+03021MA1999999101571MD1999999+0021REMSYN088AAXX  03004 83398 32594 60502 10250 20236 30157 40163 84500 333 10302 29084 55063 58002;EQDQ01+000042SCOTLCQ02  00002PRCP99
0201833980999992002040312004-15660-038920FM-12+000599999V0202701N001010450019N0040001N1+02601+02391101781ADDAA124002091AY151061AY221061GF106991031051004501071001KA1240N+02321MA1999999101721MD1999999+0151MW1011REMSYN088AAXX  03124 83398 21496 62702 10260 20239 30172 40178 70152 83570 333 20232 58015 60024;
0167833980999992002040318004-15660-038920FM-12+000599999V0200901N003110450019N0040001N1+02901+02201101471ADDAA199000091GF106991031021008001041001MA1999999101421MD1999999+0071REMSYN070AAXX  03184 83398 32596 60906 10290 20220 30142 40147 83240 333 58007;EQDQ01  00002PRCP99
0198833980999992002040400004-15660-038920FM-12+000599999V0209999C000012200019N0010001N1+02621+02211101651ADDAA199000091GF102991021021008001001001KA1240M+02961MA1999999101591MD1999999+0021REMSYN088AAXX  04004 83398 32594 20000 10262 20221 30159 40165 82200 333 10296 29078 55076 58002;EQDQ01  00002PRCP99
0186833980999992002040412004-15660-038920FM-12+000599999V0201801N001010450019N0040001N1+02761+02421101391ADDAA199000091GF105991041021008001041001KA1240N+02101MA1999999101631MD1999999-0091REMSYN076AAXX  04124 83398 32596 51802 10276 20242 30163 40139 84240 333 20210 59009;EQDQ01  00002PRCP99
0167833980999992002040418004-15660-038920FM-12+000599999V0200901N002111050019N0040001N1+02801+02181101481ADDAA199000091GF105991021021008001041041MA1999999101431MD1999999+0011REMSYN070AAXX  04184 83398 32596 50904 10280 20218 30143 40148 82244 333 58001;EQDQ01  00002PRCP99
0198833980999992002040500004-15660-038920FM-12+000599999V0209999C000012200019N0010001N1+02371+02251101561ADDAA199000091GF104991031021008001041001KA1240M+03001MA1999999101511MD1999999-0081REMSYN088AAXX  05004 83398 32594 40000 10237 20225 30151 40156 83240 333 10300 29084 55080 59008;EQDQ01  00002PRCP99
0201833980999992002040512004-15660-038920FM-12+000599999V0202301N001010042019N0040001N1+02581+02371101631ADDAA124002091AY151061AY221061GF107991051051004501021001KA1240N+02161MA1999999101571MD1999999-0061MW1021REMSYN088AAXX  05124 83398 21496 72302 10258 20237 30157 40163 70252 85520 333 20216 59006 60024;
0182833980999992002040518004-15660-038920FM-12+000599999V0200901N002110075019N0040001N1+02881+02301101261ADDAA106003091AY161061AY221061GF106991051051008001041001MA1999999101211MD1999999-0221MW1021REMSYN082AAXX  05184 83398 21596 60904 10288 20230 30121 40126 70262 85540 333 59022 60031;
0214833980999992002040600004-15660-038920FM-12+000599999V0201801N002119999999N0010001N1+02461+02321101411ADDAA199000091GF106991999051008001001001KA1240M+02971MA1999999101361MD1999999-0151REMSYN088AAXX  06004 83398 32594 61804 10246 20232 30136 40141 84500 333 10297 29086 55052 59015;EQDQ01+000042SCOTLCQ02  00002PRCP99
0173833980999992002040612004-15660-038920FM-12+000599999V0201401N002110450019N0040001N1+02781+02461101381ADDAA124003091GF106991041051008001021001KA1240N+02131MA1999999101331MD1999999-0241REMSYN082AAXX  06124 83398 22596 61404 10278 20246 30133 40138 84520 333 20213 59024 60034;
0167833980999992002040618004-15660-038920FM-12+000599999V0200901N002110450019N0040001N1+02781+02401101121ADDAA199000091GF106991041051008001021001MA1999999101071MD1999999-0141REMSYN070AAXX  06184 83398 32596 60904 10278 20240 30107 40112 84520 333 59014;EQDQ01  00002PRCP99
0198833980999992002040700004-15660-038920FM-12+000599999V0201801N001010075019N0010001N1+02541+02331101301ADDAA199000091GF106991051051008001021001KA1240M+03031MA1999999101251MD1999999-0111REMSYN088AAXX  07004 83398 32594 61802 10254 20233 30125 40130 85520 333 10303 29085 55085 59011;EQDQ01  00002PRCP99
0201833980999992002040712004-15660-038920FM-12+000599999V0202301N001010450019N0040001N1+02681+02351101431ADDAA124030091AY161061AY221061GF106991041051008001041001KA1240N+02281MA1999999101381MD1999999+0051MW1021REMSYN088AAXX  07124 83398 21596 62302 10268 20235 30138 40143 70262 84540 333 20228 58005 60304;
0167833980999992002040718004-15660-038920FM-12+000599999V0201401N001010450019N0040001N1+02801+02311101181ADDAA199000091GF106991041051008001021001MA1999999101131MD1999999+0061REMSYN070AAXX  07184 83398 32596 61402 10280 20231 30113 40118 84520 333 58006;EQDQ01  00002PRCP99
0198833980999992002040800004-15660-038920FM-12+000599999V0209999C000012200019N0010001N1+02481+02341101321ADDAA199000091GF104991041011008001001001KA1240M+02981MA1999999101271MD1999999+0021REMSYN088AAXX  08004 83398 32594 40000 10248 20234 30127 40132 84100 333 10298 29085 55048 58002;EQDQ01  00002PRCP99
0201833980999992002040812004-15660-038920FM-12+000599999V0203601N001010450019N0040001N1+02711+02361101531ADDAA124002091AY151061AY221061GF106991041051008001041001KA1240N+02281MA1999999101481MD1999999+0101MW1021REMSYN088AAXX  08124 83398 21596 63602 10271 20236 30148 40153 70252 84540 333 20228 58010 60024;
0167833980999992002040818004-15660-038920FM-12+000599999V0200901N002110450019N0040001N1+02891+02331101071ADDAA199000091GF105991031021008001041001MA1999999101021MD1999999-0111REMSYN070AAXX  08184 83398 32596 50904 10289 20233 30102 40107 83240 333 59011;EQDQ01  00002PRCP99
0198833980999992002040900004-15660-038920FM-12+000599999V0201801N001012200019N0010001N1+02521+02361101221ADDAA199000091GF104991041011008001001001KA1240M+03001MA1999999101171MD1999999-0111REMSYN088AAXX  09004 83398 32594 41802 10252 20236 30117 40122 84100 333 10300 29084 55084 59011;EQDQ01  00002PRCP99
0186833980999992002040912004-15660-038920FM-12+000599999V0201801N001012200019N0040001N1+02801+02311101371ADDAA199000091GF104991031021008001041001KA1240N+02161MA1999999101321MD1999999-0161REMSYN076AAXX  09124 83398 32596 41802 10280 20231 30132 40137 83240 333 20216 59016;EQDQ01  00002PRCP99
0167833980999992002040918004-15660-038920FM-12+000599999V0200901N002112200019N0040001N1+02891+02401101061ADDAA199000091GF104991021021008001041041MA1999999101011MD1999999-0011REMSYN070AAXX  09184 83398 32596 40904 10289 20240 30101 40106 82244 333 59001;EQDQ01  00002PRCP99
0198833980999992002041000004-15660-038920FM-12+000599999V0200501N001012200019N0010001N1+02651+02351101221ADDAA199000091GF103991031011008001001001KA1240M+02991MA1999999101171MD1999999+0001REMSYN088AAXX  10004 83398 32594 30502 10265 20235 30117 40122 83100 333 10299 29079 55092 58000;EQDQ01  00002PRCP99
0201833980999992002041012004-15660-038920FM-12+000599999V0201801N002110075019N0020001N1+02461+02321101411ADDAA124016091AY161061AY221061GF108991051071008001021999KA1240N+02261MA1999999101361MD1999999+0041MW1611REMSYN088AAXX  10124 83398 21595 81804 10246 20232 30136 40141 76162 8572/ 333 20226 58004 60164;
0182833980999992002041018004-15660-038920FM-12+000599999V0200901N001510075019N0040001N1+02761+02461101101ADDAA106000191AY151061AY221061GF106991051051008001021001MA1999999101051MD1999999+0041MW1021REMSYN082AAXX  10184 83398 21596 60903 10276 20246 30105 40110 70252 85520 333 58004 69921;
0179833980999992002041100004-15660-038920FM-12+000599999V0209999C000012200019N0010001N1+02461+02301101331ADDAA199000021GF103991031011008001001001KA1240M+02971MA1999999101281MD1999999+0111REMSYN088AAXX  11004 83398 32594 30000 10246 20230 30128 40133 83100 333 10297 29090 55032 58011;
0173833980999992002041112004-15660-038920FM-12+000599999V0201801N002112200019N0040001N1+02761+02381101461ADDAA124000191GF104991021021008001041001KA1240N+02221MA1999999101411MD1999999+0051REMSYN082AAXX  11124 83398 22596 41804 10276 20238 30141 40146 82240 333 20222 58005 69924;
0182833980999992002041118004-15660-038920FM-12+000599999V0201401N001010450019N0040001N1+02761+02321101101ADDAA106015091AY161061AY221061GF106991041051008001021001MA1999999101051MD1999999+0001MW1021REMSYN082AAXX  11184 83398 21596 61402 10276 20232 30105 40110 70262 84520 333 58000 60151;
0198833980999992002041200004-15660-038920FM-12+000599999V0201801N001012200019N0010001N1+02481+02321101361ADDAA199000091GF104991041011008001001001KA1240M+02951MA1999999101311MD1999999+0031REMSYN088AAXX  12004 83398 32594 41802 10248 20232 30131 40136 84100 333 10295 29085 55065 58003;EQDQ01  00002PRCP99
0201833980999992002041212004-15660-038920FM-12+000599999V0201801N002110450019N0040001N1+02741+02381101521ADDAA124015091AY151061AY221061GF105991031021004501041001KA1240N+02211MA1999999101471MD1999999+0061MW1011REMSYN088AAXX  12124 83398 21496 51804 10274 20238 30147 40152 70152 83240 333 20221 58006 60154;
0182833980999992002041218004-15660-038920FM-12+000599999V0200901N003110450019N0040001N1+02881+02461101111ADDAA106000191AY151061AY221061GF106991041051008001041001MA1999999101061MD1999999+0011MW1021REMSYN082AAXX  12184 83398 21596 60906 10288 20246 30106 40111 70252 84540 333 58001 69911;
0198833980999992002041300004-15660-038920FM-12+000599999V0200501N001012200019N0010001N1+02541+02381101361ADDAA199000091GF103991031011008001001001KA1240M+02981MA1999999101311MD1999999+0001REMSYN088AAXX  13004 83398 32594 30502 10254 20238 30131 40136 83100 333 10298 29085 55055 58000;EQDQ01  00002PRCP99
0173833980999992002041312004-15660-038920FM-12+000599999V0202701N001010450019N0040001N1+02701+02371101491ADDAA124000191GF105991021011008001041001KA1240N+02141MA1999999101441MD1999999-0031REMSYN082AAXX  13124 83398 22596 52702 10270 20237 30144 40149 82140 333 20214 59003 69914;
0167833980999992002041318004-15660-038920FM-12+000599999V0200901N003110450019N0040001N1+02941+02451101261ADDAA199000091GF106991031021008001041011MA1999999101211MD1999999+0151REMSYN070AAXX  13184 83398 32596 60906 10294 20245 30121 40126 83241 333 58015;EQDQ01  00002PRCP99
0198833980999992002041400004-15660-038920FM-12+000599999V0201401N001010450019N0010001N1+02641+02441101461ADDAA199000091GF105991031021008001041001KA1240M+03021MA1999999101411MD1999999+0101REMSYN088AAXX  14004 83398 32594 51402 10264 20244 30141 40146 83240 333 10302 29084 55089 58010;EQDQ01  00002PRCP99
0186833980999992002041412004-15660-038920FM-12+000599999V0201801N002110450019N0040001N1+02761+02401101681ADDAA199000091GF105991031021008001041001KA1240N+02151MA1999999101621MD1999999+0181REMSYN076AAXX  14124 83398 32596 51804 10276 20240 30162 40168 83240 333 20215 58018;EQDQ01  00002PRCP99
0167833980999992002041418004-15660-038920FM-12+000599999V0200901N002112200019N0040001N1+02911+02311101371ADDAA199000091GF103991021021008001041001MA1999999101381MD1999999+0111REMSYN070AAXX  14184 83398 32596 30904 10291 20231 30138 40137 82240 333 58011;EQDQ01  00002PRCP99
0198833980999992002041500004-15660-038920FM-12+000599999V0201801N002112200019N0010001N1+02441+02271101521ADDAA199000091GF103991031021008001001001KA1240M+03031MA1999999101471MD1999999-0061REMSYN088AAXX  15004 83398 32594 31804 10244 20227 30147 40152 83200 333 10303 29083 55086 59006;EQDQ01  00002PRCP99
0186833980999992002041512004-15660-038920FM-12+000599999V0202301N002112200019N0040001N1+02711+02271101631ADDAA199000091GF103991021021008001041001KA1240N+02161MA1999999101571MD1999999-0051REMSYN076AAXX  15124 83398 32596 32304 10271 20227 30157 40163 82240 333 20216 59005;EQDQ01  00002PRCP99
0186833980999992002041612004-15660-038920FM-12+000599999V0201801N002110450019N0200001N1+02611+02341101611ADDAA199000091GF107991041051008001021001KA1240N+02241MA1999999101551MD1999999-0021REMSYN076AAXX  16124 83398 32598 71804 10261 20234 30155 40161 84520 333 20224 59002;EQDQ01  00002PRCP99
0167833980999992002041618004-15660-038920FM-12+000599999V0201401N002110450019N0040001N1+02891+02221101381ADDAA199000091GF105991021021008001041001MA1999999101331MD1999999+0071REMSYN070AAXX  16184 83398 32596 51404 10289 20222 30133 40138 82240 333 58007;EQDQ01  00002PRCP99
0198833980999992002041700004-15660-038920FM-12+000599999V0201801N002112200019N0010001N1+02461+02301101561ADDAA199000091GF103991031011008001001001KA1240M+03021MA1999999101511MD1999999+0081REMSYN088AAXX  17004 83398 32594 31804 10246 20230 30151 40156 83100 333 10302 29084 55051 58008;EQDQ01  00002PRCP99
0198833980999992002041800004-15660-038920FM-12+000599999V0209999C000010450019N0010001N1+02411+02251101541ADDAA199000091GF105991031021008001041001KA1240M+02951MA1999999101491MD1999999-0021REMSYN088AAXX  18004 83398 32594 50000 10241 20225 30149 40154 83240 333 10295 29085 55046 59002;EQDQ01  00002PRCP99
0201833980999992002041812004-15660-038920FM-12+000599999V0202301N002110450019N0040001N1+02501+02341101711ADDAA124002091AY151061AY221061GF106991041051004501041001KA1240N+02271MA1999999101651MD1999999-0111MW1501REMSYN088AAXX  18124 83398 21496 62304 10250 20234 30165 40171 75052 84540 333 20227 59011 60024;
0148833980999992002041818004-15660-038920FM-12+000599999V0201401N002112200019N0040001N1+02871+02431101381ADDAA199000021GF104991021021008001041001MA1999999101331MD1999999+0001REMSYN070AAXX  18184 83398 32596 41404 10287 20243 30133 40138 82240 333 58000;
0179833980999992002041900004-15660-038920FM-12+000599999V0209999C000012200019N0010001N1+02471+02311101581ADDAA199000021GF104991041011008001001001KA1240M+02961MA1999999101531MD1999999+0041REMSYN088AAXX  19004 83398 32594 40000 10247 20231 30153 40158 84100 333 10296 29087 55054 58004;
0186833980999992002041912004-15660-038920FM-12+000599999V0201801N002110450019N0040001N1+02431+01591101711ADDAA199000091GF106991041051008001021001KA1240N+02201MA1999999101651MD1999999-0061REMSYN076AAXX  19124 83398 32596 61804 10243 20159 30165 40171 84520 333 20220 59006;EQDQ01  00002PRCP99
0167833980999992002041918004-15660-038920FM-12+000599999V0200901N003110450019N0040001N1+02961+02351101381ADDAA199000091GF106991031021008001041001MA1999999101331MD1999999+0001REMSYN070AAXX  19184 83398 32596 60906 10296 20235 30133 40138 83240 333 58000;EQDQ01  00002PRCP99
0198833980999992002042000004-15660-038920FM-12+000599999V0201801N001010450019N0010001N1+02651+02371101551ADDAA199000091GF105991031051008001021001KA1240M+03001MA1999999101501MD1999999-0031REMSYN088AAXX  20004 83398 32594 51802 10265 20237 30150 40155 83520 333 10300 29081 55081 59003;EQDQ01  00002PRCP99
0201833980999992002042012004-15660-038920FM-12+000599999V0202701N001010450019N0040001N1+02581+02371101691ADDAA124004191AY161061AY221061GF107991041051008001021001KA1240N+02151MA1999999101641MD1999999+0051MW1021REMSYN088AAXX  20124 83398 21596 72702 10258 20237 30164 40169 70262 84520 333 20215 58005 60044;
0182833980999992002042018004-15660-038920FM-12+000599999V0201401N003110450019N0040001N1+02881+02371101221ADDAA106000591AY151061AY221061GF106991041051008001041001MA1999999101171MD1999999-0161MW1021REMSYN082AAXX  20184 83398 21596 61406 10288 20237 30117 40122 70252 84540 333 59016 69951;
0198833980999992002042100004-15660-038920FM-12+000599999V0202301N001010450019N0010001N1+02461+02321101461ADDAA199000091GF106991041051008001021001KA1240M+03011MA1999999101411MD1999999+0091REMSYN088AAXX  21004 83398 32594 62302 10246 20232 30141 40146 84520 333 10301 29087 55029 58009;EQDQ01  00002PRCP99
0201833980999992002042112004-15660-038920FM-12+000599999V0200901N003110450019N0040001N1+02861+02351101641ADDAA124010991AY161061AY221061GF107991041051008001021001KA1240N+02291MA1999999101581MD1999999-0061MW1021REMSYN088AAXX  21124 83398 21596 70906 10286 20235 30158 40164 70262 84520 333 20229 59006 60114;
0198833980999992002042200004-15660-038920FM-12+000599999V0201801N001010450019N0010001N1+02461+02301101511ADDAA199000091GF106991031051008001021001KA1240M+03011MA1999999101461MD1999999+0051REMSYN088AAXX  22004 83398 32594 61802 10246 20230 30146 40151 83520 333 10301 29083 55068 58005;EQDQ01  00002PRCP99
0201833980999992002042212004-15660-038920FM-12+000599999V0202301N002110450019N0040001N1+02651+02341101791ADDAA124005191AY151061AY221061GF106991041051004501021001KA1240N+02181MA1999999101731MD1999999+0151MW1021REMSYN088AAXX  22124 83398 21496 62304 10265 20234 30173 40179 70252 84520 333 20218 58015 60054;
0167833980999992002042218004-15660-038920FM-12+000599999V0200901N003110450019N0040001N1+02821+02361101391ADDAA199000091GF106991041051008001021001MA1999999101341MD1999999+0021REMSYN070AAXX  22184 83398 32596 60906 10282 20236 30134 40139 84520 333 58002;EQDQ01  00002PRCP99
0213833980999992002042300004-15660-038920FM-12+000599999V0201801N001010450019N0010001N1+02481+02271101611ADDAA106004191AY151061AY221061GF105991031051004501051001KA1240M+03021MA1999999101551MD1999999+0091MW1501REMSYN100AAXX  23004 83398 21494 51802 10248 20227 30155 40161 75052 83550 333 10302 29084 55064 58009 60041;
0201833980999992002042312004-15660-038920FM-12+000599999V0202301N001010450019N0040001N1+02541+02381101551ADDAA124010991AY161061AY221061GF107991041051008001021001KA1240N+02201MA1999999101501MD1999999-0131MW1021REMSYN088AAXX  23124 83398 21596 72302 10254 20238 30150 40155 70262 84520 333 20220 59013 60114;
0182833980999992002042318004-15660-038920FM-12+000599999V0201801N001010450019N0040001N1+02641+02311101301ADDAA106003091AY161061AY221061GF106991041051008001021001MA1999999101251MD1999999-0091MW1021REMSYN082AAXX  23184 83398 21596 61802 10264 20231 30125 40130 70262 84520 333 59009 60031;
0213833980999992002042400004-15660-038920FM-12+000599999V0201801N001010075019N0010001N1+02361+02191101541ADDAA106007991AY161061AY221061GF107991051051008001021001KA1240M+02981MA1999999101491MD1999999-0061MW1021REMSYN100AAXX  24004 83398 21594 71802 10236 20219 30149 40154 70262 85520 333 10298 29088 55062 59006 60081;
0201833980999992002042412004-15660-038920FM-12+000599999V0201801N001010075019N0040001N1+02561+02351101481ADDAA124019191AY161061AY221061GF107991051051008001021001KA1240N+02201MA1999999101431MD1999999-0071MW1021REMSYN088AAXX  24124 83398 21596 71802 10256 20235 30143 40148 70262 85520 333 20220 59007 60194;
0167833980999992002042418004-15660-038920FM-12+000599999V0201401N002110450019N0040001N1+02881+02281101151ADDAA199000091GF106991041051008001021001MA1999999101101MD1999999-0151REMSYN070AAXX  24184 83398 32596 61404 10288 20228 30110 40115 84520 333 59015;EQDQ01  00002PRCP99
0213833980999992002042500004-15660-038920FM-12+000599999V0201801N001010075019N0010001N1+02441+02271101391ADDAA106003091AY161061AY221061GF108991061051008001021999KA1240M+02981MA1999999101341MD1999999-0151MW1601REMSYN100AAXX  25004 83398 21594 81802 10244 20227 30134 40139 76062 8652/ 333 10298 29085 55082 59015 60031;
0201833980999992002042512004-15660-038920FM-12+000599999V0203601N002110075019N0040001N1+02561+01501101601ADDAA124004191AY161061AY221061GF106991051051008001021001KA1240N+02241MA1999999101551MD1999999+0071MW1021REMSYN088AAXX  25124 83398 21596 63604 10256 20150 30155 40160 70262 85520 333 20224 58007 60044;
0167833980999992002042518004-15660-038920FM-12+000599999V0201801N001010075019N0040001N1+02781+02341101291ADDAA199000091GF106991051051008001021001MA1999999101241MD1999999+0141REMSYN070AAXX  25184 83398 32596 61802 10278 20234 30124 40129 85520 333 58014;EQDQ01  00002PRCP99
0198833980999992002042600004-15660-038920FM-12+000599999V0209999C000012200019N0010001N1+02471+02291101491ADDAA199000091GF104991031021008001041001KA1240M+02951MA1999999101441MD1999999+0101REMSYN088AAXX  26004 83398 32594 40000 10247 20229 30144 40149 83240 333 10295 29087 55047 58010;EQDQ01  00002PRCP99
0186833980999992002042612004-15660-038920FM-12+000599999V0202301N001012200019N0040001N1+02681+02391101661ADDAA199000091GF104991031021008001041001KA1240N+02141MA1999999101601MD1999999+0101REMSYN076AAXX  26124 83398 32596 42302 10268 20239 30160 40166 83240 333 20214 58010;EQDQ01  00002PRCP99
0167833980999992002042618004-15660-038920FM-12+000599999V0200901N003110450019N0040001N1+02881+02301101371ADDAA199000091GF105991031051008001021001MA1999999101321MD1999999+0081REMSYN070AAXX  26184 83398 32596 50906 10288 20230 30132 40137 83520 333 58008;EQDQ01  00002PRCP99
0198833980999992002042700004-15660-038920FM-12+000599999V0209999C000012200019N0010001N1+02471+02291101511ADDAA199000091GF104991021021008001041001KA1240M+02951MA1999999101461MD1999999+0021REMSYN088AAXX  27004 83398 32594 40000 10247 20229 30146 40151 82240 333 10295 29084 55064 58002;EQDQ01  00002PRCP99
0201833980999992002042712004-15660-038920FM-12+000599999V0209999C000010450019N0040001N1+02501+02321101591ADDAA124006191AY161061AY221061GF106991041051004501021001KA1240N+02211MA1999999101541MD1999999-0061MW1021REMSYN088AAXX  27124 83398 21496 60000 10250 20232 30154 40159 70262 84520 333 20221 59006 60064;
0195833980999992002042718004-15660-038920FM-12+000599999V0200901N002110450019N0040001N1+02801+02131101261ADDAA199000091AY151061AY221061GF105991031051008001041001MA1999999101211MD1999999-0111MW1021REMSYN076AAXX  27184 83398 31596 50904 10280 20213 30121 40126 70252 83540 333 59011;EQDQ01  00002PRCP99
0198833980999992002042800004-15660-038920FM-12+000599999V0209999C000012200019N0010001N1+02301+02131101041ADDAA199000091GF103991031011008001001001KA1240M+02951MA1999999101351MD1999999-0111REMSYN088AAXX  28004 83398 32594 30000 10230 20213 30135 40104 83100 333 10295 29084 55066 59011;EQDQ01  00002PRCP99
0173833980999992002042812004-15660-038920FM-12+000599999V0202701N001012200019N0040001N1+02561+02191101541ADDAA124000191GF104991041021008001001001KA1240N+02001MA1999999101491MD1999999-0051REMSYN082AAXX  28124 83398 22596 42702 10256 20219 30149 40154 84200 333 20200 59005 69924;
0167833980999992002042818004-15660-038920FM-12+000599999V0200901N002112200019N0040001N1+02871+01911101351ADDAA199000091GF102991021021008001001001MA1999999101301MD1999999+0091REMSYN070AAXX  28184 83398 32596 20904 10287 20191 30130 40135 82200 333 58009;EQDQ01  00002PRCP99
0198833980999992002042900004-15660-038920FM-12+000599999V0202701N001012200019N0010001N1+02301+01971101531ADDAA199000091GF102991021011008001001001KA1240M+03001MA1999999101481MD1999999+0131REMSYN088AAXX  29004 83398 32594 22702 10230 20197 30148 40153 82100 333 10300 29078 55087 58013;EQDQ01  00002PRCP99
0186833980999992002042912004-15660-038920FM-12+000599999V0202301N002112200019N0040001N1+02541+02211101761ADDAA199000091GF103991021021008001041001KA1240N+01931MA1999999101701MD1999999+0211REMSYN076AAXX  29124 83398 32596 32304 10254 20221 30170 40176 82240 333 20193 58021;EQDQ01  00002PRCP99
0167833980999992002042918004-15660-038920FM-12+000599999V0200901N003110450019N0040001N1+02801+02081101441ADDAA199000091GF105991031021008001041001MA1999999101391MD1999999+0091REMSYN070AAXX  29184 83398 32596 50906 10280 20208 30139 40144 83240 333 58009;EQDQ01  00002PRCP99
0198833980999992002043000004-15660-038920FM-12+000599999V0209999C000012200019N0040001N1+02311+02141101701ADDAA199000091GF102991021021008001001001KA1240M+02951MA1999999101641MD1999999+0161REMSYN088AAXX  30004 83398 32596 20000 10231 20214 30164 40170 82200 333 10295 29082 55086 58016;EQDQ01  00002PRCP99
0186833980999992002043012004-15660-038920FM-12+000599999V0202301N001012200019N0040001N1+02541+02171101821ADDAA199000091GF102991021021008001001001KA1240N+01861MA1999999101761MD1999999+0061REMSYN076AAXX  30124 83398 32596 22302 10254 20217 30176 40182 82200 333 20186 58006;EQDQ01  00002PRCP99
0167833980999992002043018004-15660-038920FM-12+000599999V0200901N002112200019N0020001N1+02791+02051101471ADDAA199000091GF103991021021008001041001MA1999999101421MD1999999+0031REMSYN070AAXX  30184 83398 32595 30904 10279 20205 30142 40147 82240 333 58003;EQDQ01  00002PRCP99
0143833980999992002050100004-15660-038920FM-12+000599999V0209999C000012200019N0010001N1+02291+02081101721ADDAA199000091GF103991031021008001001001MA1999999101661REMSYN060AAXX  01004 83398 32594 30000 10229 20208 30166 40172 83200;EQDQ01  00002PRCP99
0186833980999992002050112004-15660-038920FM-12+000599999V0209999C000010450019N0040001N1+02621+02291101651ADDAA199000091GF105991031021008001041001KA1240N+01901MA1999999101591MD1999999-0171REMSYN076AAXX  01124 83398 32596 50000 10262 20229 30159 40165 83240 333 20190 59017;EQDQ01  00002PRCP99
0167833980999992002050118004-15660-038920FM-12+000599999V0200501N004012200019N0040001N1+02821+01981101391ADDAA199000091GF104991031021008001041001MA1999999101341MD1999999-0081REMSYN070AAXX  01180 83398 32596 40504 10282 20198 30134 40139 83240 333 59008;EQDQ01  00002PRCP99
0198833980999992002050200004-15660-038920FM-12+000599999V0209999C000012200019N0010001N1+02241+02071101591ADDAA199000091GF103991031011008001001001KA1240M+02911MA1999999101541MD1999999-0121REMSYN088AAXX  02004 83398 32594 30000 10224 20207 30154 40159 83100 333 10291 29081 55084 59012;EQDQ01  00002PRCP99
0186833980999992002050212004-15660-038920FM-12+000599999V0202301N001010450019N0040001N1+02501+02211101591ADDAA199000091GF106991041051008001021001KA1240N+01861MA1999999101541MD1999999-0051REMSYN076AAXX  02124 83398 32596 62302 10250 20221 30154 40159 84520 333 20186 59005;EQDQ01  00002PRCP99
0182833980999992002050218004-15660-038920FM-12+000599999V0202701N001010450019N0040001N1+02511+02301101301ADDAA106002091AY161061AY221061GF107991041051004501021001MA1999999101251MD1999999-0091MW1501REMSYN082AAXX  02184 83398 21496 72702 10251 20230 30125 40130 75062 84520 333 59009 60021;
0201833980999992002050312004-15660-038920FM-12+000599999V0202701N001010450019N0040001N1+02461+02281101491ADDAA124009991AY161061AY221061GF106991031051004501021001KA1240N+02151MA1999999101441MD1999999-0101MW1021REMSYN088AAXX  03124 83398 21496 62702 10246 20228 30144 40149 70262 83520 333 20215 59010 60104;
0167833980999992002050318004-15660-038920FM-12+000599999V0200501N002112200019N0040001N1+02811+02261101231ADDAA199000091GF104991021021008001041011MA1999999101181MD1999999-0071REMSYN070AAXX  03184 83398 32596 40504 10281 20226 30118 40123 82241 333 59007;EQDQ01  00002PRCP99
0198833980999992002050400004-15660-038920FM-12+000599999V0203601N001012200019N0010001N1+02641+02311101291ADDAA199000091GF103991031011008001001001KA1240M+02901MA1999999101241MD1999999-0121REMSYN088AAXX  04004 83398 32594 33602 10264 20231 30124 40129 83100 333 10290 29082 55049 59012;EQDQ01  00002PRCP99
0186833980999992002050412004-15660-038920FM-12+000599999V0209999C000010450019N0040001N1+02821+02421101511ADDAA199000091GF105991031051008001041001KA1240N+02061MA1999999101461MD1999999+0021REMSYN076AAXX  04124 83398 32596 50000 10282 20242 30146 40151 83540 333 20206 58002;EQDQ01  00002PRCP99
0167833980999992002050418004-15660-038920FM-12+000599999V0200501N003110450019N0040001N1+02881+02251101251ADDAA199000091GF105991031021008001041001MA1999999101201MD1999999+0021REMSYN070AAXX  04184 83398 32596 50506 10288 20225 30120 40125 83240 333 58002;EQDQ01  00002PRCP99
0198833980999992002050500004-15660-038920FM-12+000599999V0203601N001012200019N0010001N1+02541+02231101441ADDAA199000091GF103991031011008001001001KA1240M+02961MA1999999101391MD1999999+0051REMSYN088AAXX  05004 83398 32594 33602 10254 20223 30139 40144 83100 333 10296 29079 55080 58005;EQDQ01  00002PRCP99
0186833980999992002050512004-15660-038920FM-12+000599999V0202701N001010450019N0040001N1+02641+02331101771ADDAA199000091GF106991041051008001041001KA1240N+02091MA1999999101711MD1999999+0251REMSYN076AAXX  05124 83398 32596 62702 10264 20233 30171 40177 84540 333 20209 58025;EQDQ01  00002PRCP99
0183833980999992002050518004-15660-038920FM-12+000599999V0200501N002119999999N0040001N1+02841+02091101571ADDAA199000091GF106991999021008001001001MA1999999101521MD1999999+0321REMSYN070AAXX  05184 83398 32596 60504 10284 20209 30152 40157 82200 333 58032;EQDQ01+000022SCOTLCQ02  00002PRCP99
0198833980999992002050600004-15660-038920FM-12+000599999V0202301N001012200019N0010001N1+02301+02161101811ADDAA199000091GF103991031011008001001001KA1240M+02961MA1999999101751MD1999999+0361REMSYN088AAXX  06004 83398 32594 32302 10230 20216 30175 40181 83100 333 10296 29083 55086 58036;EQDQ01  00002PRCP99
