0129821980999991984010100004-01683-045367FM-12+000899999V0200901N00211220001CN0040001N9+02601+02211100881ADDAA106000091AG10999AY101061GF100991001001999999001001KA1240M+03151MA1999999100371MD1999999+0051MW1021REMSYN017333   10315 58005
0129821980999991984010112004-01683-045367FM-12+000899999V0200901N00461045001CN0100001N9+02901+02271100981ADDAA106000091AG10999AY101061GF106991031021008001061011KA1240N+02481MA1999999100471MD1999999-0081MW1021REMSYN017333   20248 59008
0110821980999991984010118004-01683-045367FM-12+000899999V0200901N00571220001CN0100001N9+03081+02161100651ADDAA106000091AG10999AY101061GF104991021021012501001021MA1999999100141MD1999999-0111MW1021REMSYN011333   59011
0129821980999991984010200004-01683-045367FM-12+000899999V0200901N00411220001CN0040001N9+02641+02271100811ADDAA106000091AG10999AY101061GF100991001001999999001001KA1240M+03171MA1999999100301MD1999999-0071MW1021REMSYN017333   10317 59007
0129821980999991984010212004-01683-045367FM-12+000899999V0200901N00261007501CN0100001N9+02841+02351100961ADDAA106000091AG10999AY101061GF108991061011008001021001KA1240N+02521MA1999999100451MD1999999-0021MW1021REMSYN017333   20252 59002
0116821980999991984010218004-01683-045367FM-12+000899999V0200501N00671015001CN0100001N9+02791+02301100641ADDAA106000591AG10999AY121061GF108991061021017501061001MA1999999100131MD1999999-0011MW1021REMSYN017333   59001 69951
0129821980999991984010300004-01683-045367FM-12+000899999V0200901N00261045001CN0200001N9+02641+02291100961ADDAA106000091AG10999AY121061GF107991041071012501011001KA1240M+03091MA1999999100451MD1999999+0151MW1131REMSYN017333   10309 58015
0135821980999991984010312004-01683-045367FM-12+000899999V0200601N00101012001CN0200001N9+02761+02281101091ADDAA124000591AG10999AY101061GF107991051021012501061001KA1240N+02321MA1999999100581MD1999999+0131MW1021REMSYN023333   20232 58013 69954
0110821980999991984010318004-01683-045367FM-12+000899999V0200901N00461045001CN0100001N9+02941+02391999999ADDAA106000091AG10999AY101061GF106991031021012501031021MA1999999100371MD1999999+0241MW1021REMSYN011333   58024
0129821980999991984010400004-01683-045367FM-12+000899999V0200901N00151012001CN0040001N9+02621+02571101101ADDAA106000091AG10999AY101061GF105991051021012501001001KA1240M+03511MA1999999100691MD1999999+0241MW1021REMSYN017333   10351 58024
0129821980999991984010412004-01683-045367FM-12+000899999V0201801N00051045001CN0100001N9+02821+02331101251ADDAA106000091AG10999AY101061GF106991031011012501041041KA1240N+02251MA1999999100741MD1999999+0161MW1021REMSYN017333   20225 58016
0110821980999991984010418004-01683-045367FM-12+000899999V0200901N00771105001CN0100001N9+03081+02161100921ADDAA106000091AG10999AY101061GF105991021021012501061011MA1999999100411MD1999999+0041MW1021REMSYN011333   58004
0148821980999991984010500004-01683-045367FM-12+000899999V0200901N002619999999N0500001N9+02601+02251101041ADDAA106000091AG10999AY101061GF100991001001999999001001KA1240M+03231MA1999999100531MD1999999-0161MW1021REMSYN017333   10323 59016EQDQ01+000062SCOTCV
0129821980999991984010512004-01683-045367FM-12+000899999V0200501N00361220001CN0100001N9+02841+02271101161ADDAA106000091AG10999AY101061GF104991041011008001001001KA1240N+02201MA1999999100651MD1999999-0091MW1021REMSYN017333   20220 59009
0116821980999991984010518004-01683-045367FM-12+000899999V0200501N00101220001CN0100001N9+02821+02191100891ADDAA106000191AG10999AY161061GF103991021021008001001011MA1999999100301MD1999999-0041MW1011REMSYN017333   59004 69911
0129821980999991984010600004-01683-045367FM-12+000899999V0200901N00311220001CN0040001N9+02601+02291101061ADDAA106000091AG10999AY101061GF100991001001999999001001KA1240M+03111MA1999999100551MD1999999+0061MW1021REMSYN017333   10311 58006
0135821980999991984010612004-01683-045367FM-12+000899999V0200901N00261045001CN0100001N9+02801+02361101081ADDAA124000191AG10999AY101061GF106991041021008001061001KA1240N+02491MA1999999100571MD1999999-0081MW1021REMSYN023333   20249 59008 69914
0110821980999991984010618004-01683-045367FM-12+000899999V0200901N00621220001CN0100001N9+03021+02161100841ADDAA106000091AG10999AY101061GF104991021021012501061001MA1999999100331MD1999999-0041MW1021REMSYN011333   59004
0148821980999991984010700004-01683-045367FM-12+000899999V0200901N00311220001CN0040001N9+02661+02241101001ADDAA106000091AG10999AY101061GF100991001001999999001001KA1240N+99999MA1999999100491MD1999999-0061MW1021REMSYN017333   20316 59006EQDQ01 +03162ATMN  
0129821980999991984010712004-01683-045367FM-12+000899999V0200501N00361220001CN0100001N9+02911+02361101101ADDAA106000091AG10999AY101061GF103991031021008001001001KA1240N+02561MA1999999100591MD1999999+0021MW1021REMSYN017333   20256 58002
0110821980999991984010718004-01683-045367FM-12+000899999V0200901N00621220001CN0100001N9+02981+02231100831ADDAA106000091AG10999AY101061GF104991021021012501001021MA1999999100321MD1999999-0011MW1021REMSYN011333   59001
0116821980999991984010800004-01683-045367FM-12+000899999V0200501N00261220001CN0040001N9+02641+02391101091ADDAA106000091AG10999AY121061GF104991041011012501001001MA1999999100581MD1999999+0091MW1131REMSYN017333   10/16 58009
0154821980999991984010812004-01683-045367FM-12+000899999V0203601N001019999999N0100001N9+02501+02451101171ADDAA124014091AG10999AY161061GF107991999001012501001001KA1240N+02401MA1999999100651MD1999999+0061MW1031REMSYN023333   20240 58006 60144EQDQ01+000002SCOTLC
0116821980999991984010818004-01683-045367FM-12+000899999V0200901N00311007501CN0006001N9+02331+02221100861ADDAA106023091AG10999AY161061GF108991081051008001999999MA1999999100351MD1999999+0031MW1021REMSYN017333   58003 60231
0121821980999991984010900004-01683-045367FM-12+000899999V0201801N00151012001CN0040001N9+02301+02231101071ADDAA106008091AG10999GF108991081001012501021999KA1240M+02881MA1999999100661MD1999999-0031REMSYN023333   10288 59003 60081
0135821980999991984010912004-01683-045367FM-12+000899999V0201401N00151045001CN0100001N9+02401+02281101061ADDAA124032091AG10999AY161061GF107991041011012501031001KA1240N+02241MA1999999100541MD1999999-0111MW1011REMSYN023333   20224 59011 60324
0110821980999991984010918004-01683-045367FM-12+000899999V0201401N00261015001CN0100001N9+02481+02191100941ADDAA106000091AG10999AY101061GF106991051081012501021999MA1999999100351MD1999999-0021MW1021REMSYN011333   59002
0146821980999991984011000004-01683-045367FM-12+000899999V0200501N003119999999N0040001N9+02381+02291100911ADDAA106003091AA299000091AG10999AY161061GF105991051001012501031001KA1240M+03061MA1999999100401MD1999999-0151MW1011REMSYN023333   10306 59015 60031
0110821980999991984011018004-01683-045367FM-12+000899999V0200901N00311045001CN0100001N9+02881+02211100661ADDAA106000091AG10999AY101061GF106991041021012501031001MA1999999100151MD1999999-0181MW1021REMSYN011333   59018
0148821980999991984011100004-01683-045367FM-12+000899999V0200901N002119999999N0100001N9+02561+02231100911ADDAA106000091AG10999AY101061GF106991041001008001001061KA1240M+03001MA1999999099042MD1999999+0011MW1021REMSYN017333   10300 58001EQDQ01+099043APOSP 
0129821980999991984011112004-01683-045367FM-12+000899999V0201901N00211007501CN0100001N9+02451+02191100941ADDAA106000091AG10999AY101061GF108991051031008001041001KA1240N+02271MA1999999100521MD1999999+0051MW1021REMSYN017333   20227 58005
0116821980999991984011118004-01683-045367FM-12+000899999V0200901N00261012001CN0100001N9+02401+02361100811ADDAA106002091AG10999AY161061GF108991051051012501021001MA1999999100301MD1999999+0151MW1021REMSYN017333   58015 60021
0129821980999991984011200004-01683-045367FM-12+000899999V0200901N001019999999N0100001N9+02621+02301101021ADDAA106000091AG10999AY101061GF106991061001012501031001KA1240M+02891MA1999999100971MD1999999-0121MW1021REMSYN017333   10289 59012
0135821980999991984011212004-01683-045367FM-12+000899999V0203601N00151045001CN0100001N9+02481+02301101111ADDAA124002091AG10999AY101061GF106991031021012501061081KA1240N+02191MA1999999100641MD1999999+0121MW1021REMSYN023333   20219 58012 60024
0110821980999991984011218004-01683-045367FM-12+000899999V0200901N00461045001CN0100001N9+02741+02241100811ADDAA106000091AG10999AY101061GF106991031021012501041021MA1999999100301MD1410001+0001MW1021REMSYN011333   58000
0129821980999991984011300004-01683-045367FM-12+000899999V0200901N00211045001CN0040001N9+02521+02251100981ADDAA106000091AG10999AY101061GF106991041051012501011041KA1240M+02971MA1999999100431MD1999999-0081MW1021REMSYN017333   10297 59008
0129821980999991984011312004-01683-045367FM-12+000899999V0200501N00461007501CN0100001N9+02731+02341101021ADDAA106000091AG10999AY101061GF105991051021008001001001KA1240N+02341MA1999999100501MD1999999-0141MW1021REMSYN017333   20234 59014
0110821980999991984011318004-01683-045367FM-12+000899999V0200501N00621012001CN0100001N9+02981+02251100741ADDAA106000091AG10999AY101061GF105991051021012501001001MA1999999100231MD1999999-0071MW1021REMSYN011333   59007
0148821980999991984011400004-01683-045367FM-12+000899999V0200901N00311220001CN0040001N9+02541+02211100961ADDAA106000091AG10999AY101061GF100991999001999999001001KA1240M+03051MA1999999100451MD1999999+0021MW1021REMSYN017333   10305 58002EQDQ01+000952SCOLCB
0140821980999991984011412004-01683-045367FM-12+000899999V0200501N00151007501CN0200001N9+02681+02431101151ADDAA124000691AA299000591AG10999AY151061GF105991051021008001001001KA1240N+02061MA1999999101361MD1999999-0051REMSYN023333   20206 59005 69964
0129821980999991984011418004-01683-045367FM-12+000899999V0200501N00621220001CN0100001N9+02981+02231100781ADDAA106000091AG10999AY101061GF104991041021012501001001MA1999999100272MD1999999+0041MW1021REMSYN011333   58004EQDQ01+100273APOSP 
0129821980999991984011500004-01683-045367FM-12+000899999V0200901N00211220001CN0040001N9+02651+02351101191ADDAA106000091AG10999AY101061GF100991001001999999001001KA1240M+03161MA1999999100941MD1999999+0071MW1021REMSYN017333   10316 58007
0129821980999991984011512004-01683-045367FM-12+000899999V0200901N00671220001CN0100001N9+99999+99999100921ADDAA106000091AG10999AY101061GF103991031021008001001001KA1240N+02411MA1999999100411MD1999999-0071MW1021REMSYN017333   20241 59007
0110821980999991984011518004-01683-045367FM-12+000899999V0200501N00511220001CN0100001N9+02961+02181100721ADDAA106000091AG10999AY101061GF102991021021012501001001MA1999999100211MD1999999-0061MW1021REMSYN011333   59006
0180821980999991984011600004-01683-045367FM-12+000899999V0200601N00361220001CN0040001N9+02601+02311100891ADDAA106000091AG10999AY101061GA1021+013809029GF199999001001999999001001KA1240M+03121MA1999999100341MD1410001+0001MW1021REMSYN017333   10312 58000EQDQ01+000002SCOTCVQ02+000992SCOLCB
0129821980999991984011612004-01683-045367FM-12+000899999V0200901N00151220001CN0100001N9+02831+02351100941ADDAA106000091AG10999AY101061GF102991011021008001001011KA1240N+02271MA1999999100431MD1999999+0021MW1021REMSYN017333   20227 58002
0110821980999991984011618004-01683-045367FM-12+000899999V0200901N00621220001CN0100001N9+02881+02131100741ADDAA106000091AG10999AY101061GF104991021021012501061001MA1999999100231MD1999999+0021MW1021REMSYN011333   58002
0129821980999991984011700004-01683-045367FM-12+000899999V0200501N00211220001CN0040001N9+02541+02271100961ADDAA106000091AG10999AY101061GF105991041011008001001011KA1240M+03161MA1999999100451MD1999999+0071MW1021REMSYN017333   10316 58007
0129821980999991984011712004-01683-045367FM-12+000899999V0200901N00151220001CN0100001N9+02621+02371101121ADDAA106000091AG10999AY101061GF103991031021008001001001KA1240N+02201MA1999999100591MD1999999+0161MW1021REMSYN017333   20220 58016
0112821980999991984011718004-01683-045367FM-12+000899999V0200501N00511045001CN0100001N9+02651+02311100861ADDAA106000491AA299000591AG10999AY161061GF106991031021012501031001MD1999999+0121MW1031REMSYN017333   58012 69941
0115821980999991984011800004-01683-045367FM-12+000899999V0200501N001519999999N0040001N9+02501+02341100261ADDAA106000091AG10999GF105991051001012501061001KA1240M+03051MA1999999100451MD1410001+0001REMSYN017333   10305 58000
0135821980999991984011812004-01683-045367FM-12+000899999V0200501N00361220001CN0100001N9+02821+02361100991ADDAA124000591AG10999AY101061GF103991031021008001001001KA1240N+02301MA1999999100471MD1999999-0121MW1021REMSYN023333   20230 59012 69954
0129821980999991984011900004-01683-045367FM-12+000899999V0200901N00361220001CN0040001N9+02651+02351100881ADDAA106000091AG10999AY101061GF103991021021008001001011KA1240M+03121MA1999999100371MD1999999-0081MW1021REMSYN017333   10312 59008
0129821980999991984011912004-01683-045367FM-12+000899999V0200501N00411105001CN0100001N9+02801+02381100901ADDAA106000091AG10999AY101061GF105991021021008001031011KA1240N+02491MA1999999100391MD1999999-0081MW1021REMSYN017333   20249 59008
0096821980999991984011918004-01683-045367FM-12+000899999V0200501N00411012001CN0100001N9+02701+02261100671ADDAG10999AY161061GF108991999041012501001001MA1999999100161MW1031REMSYN003333EQDQ01+000062SCOTLC
0135821980999991984012012004-01683-045367FM-12+000899999V0200901N00051045001CN0100001N9+02591+02401100751ADDAA124002091AG10999AY101061GF107991041021008001011061KA1240N+02241MA1999999100231MD1999999-0161MW1021REMSYN023333   20224 59016 60024
0110821980999991984012018004-01683-045367FM-12+000899999V0200901N00311012001CN0100001N9+02701+02301100641ADDAA106000091AG10999AY101061GF108991051021012501041001MA1999999100131MD1999999-0031MW1021REMSYN011333   59003
0148821980999991984012100004-01683-045367FM-12+000899999V0200901N00151045001CN0040001N9+02521+02341101742ADDAA106000091AG10999AY101061GF106991041051008001061001KA1240M+03031MA1999999100221MD1999999-0041MW1021REMSYN017333   10303 59004EQDQ01+101743APOSLP
0127821980999991984012118004-01683-045367FM-12+000899999V0200901N00311045001CN0100001N9+02581+02211100821ADDAA106000791AA299001091AG10999AY161061GF108991041081012501041001MA1999999100311MD1999999+0181MW1021REMSYN017333   58018 69971
0135821980999991984012200004-01683-045367FM-12+000899999V0203201N00051220001CN0040001N9+02391+02311100801ADDAA106003091AG10999AY161061GF102991021011008001001001KA1240M+02601MA1999999100281MD1999999+0061MW1011REMSYN023333   10260 58006 60031
0135821980999991984012212004-01683-045367FM-12+000899999V0201401N00151220001CN0100001N9+02771+02421101031ADDAA124004091AG10999AY101061GF102991021021008001001001KA1240N+02181MA1999999100511MD1999999+0111MW1021REMSYN023333   20218 58011 60044
0110821980999991984012218004-01683-045367FM-12+000899999V0200901N00621045001CN0100001N9+02971+02281100681ADDAA106000091AG10999AY101061GF105991021021012501061001MA1999999100171MD1999999-0141MW1021REMSYN011333   59014
0129821980999991984012312004-01683-045367FM-12+000899999V0200901N00311220001CN0100001N9+02831+02351100881ADDAA106000091AG10999AY101061GF103991011021008001031011KA1240N+02441MA1999999100361MD1999999-0151MW1021REMSYN017333   20244 59015
0110821980999991984012318004-01683-045367FM-12+000899999V0200901N00621220001CN0100001N9+02971+02281100531ADDAA106000091AG10999AY101061GF103991031021012501001001MA1999999100021MD1999999-0151MW1021REMSYN011333   59015
0137821980999991984012400004-01683-045367FM-12+000899999V0200901N00261220001CN0040001N9+02601+02291100841ADDAG10999AY101061GF100991001001999999001001KA1240M+03191MA1999999100832MD1999999-0071MW1021REMSYN017333   10319 59007EQDQ01+100833APOSP 
0104821980999991984012412004-01683-045367FM-12+000899999V0200901N00151220001CN0100001N9+02821+02291100811ADDAG10999GF103991011021008001041001KA1240N+02321MA1999999100301MD1999999-0061REMSYN017333   20232 59006
0116821980999991984012418004-01683-045367FM-12+000899999V0200901N00671045001CN0100001N9+02741+02321100421ADDAA106000191AG10999AY151061GF106991041021012501061001MA1999999099911MD1999999-0111MW1031REMSYN017333   59011 69911
0135821980999991984012512004-01683-045367FM-12+000899999V0201801N00151045001CN0100001N9+02651+02441100881ADDAA124000191AG10999AY101061GF107991041011008001021001KA1240N+02391MA1999999100361MD1999999+0061MW1021REMSYN023333   20239 58006 69914
0101821980999991984012518004-01683-045367FM-12+000899999V0200901N00311012001CN0100001N9+99999+99999100591ADDAA106002091AG10999AY161061GF108991051051012501041001MD1999999+0171MW1021REMSYN017333   58017 60021
0154821980999991984012600004-01683-045367FM-12+000899999V0202301N002119999999N0040001N9+02561+02481100541ADDAA106001091AG10999AY161061GF106991999051017501001001KA1240M+03081MA1999999100481MD1999999+0121MW1011REMSYN023333   10308 58012 60011EQDQ01+000032SCOTLC
0135821980999991984012612004-01683-045367FM-12+000899999V0202301N00051045001CN0100001N9+02401+02371100911ADDAA124003091AG10999AY121061GF108991041031008001041061KA1240N+02201MA1999999100391MD1999999+0031MW1021REMSYN023333   20220 58003 60034
0116821980999991984012618004-01683-045367FM-12+000899999V0200501N00261012001CN0100001N9+02701+02461100621ADDAA106004091AG10999AY161061GF106991061021012501001001MA1999999100111MD1999999+0021MW1021REMSYN017333   58002 60041
0154821980999991984012700004-01683-045367FM-12+000899999V0201401N00411012001CN0040001N9+02391+02311100791ADDAA106020091AG10999AY161061GF108991081001012501021999KA1240N+99999MA1999999100271MD1999999-0061MW1921REMSYN023333   20289 59006 60201EQDQ01 +02892ATMN  
0135821980999991984012712004-01683-045367FM-12+000899999V0209991C00001012001CN0100001N9+02301+02271100991ADDAA124024091AG10999AY121061GF108991061071012501021999KA1240N+02141MA1999999100471MD1999999+0081MW1501REMSYN023333   20214 58008 60244
0127821980999991984012718004-01683-045367FM-12+000899999V0200501N00261045001CN0100001N9+02631+02251100611ADDAA106000891AA299001091AG10999AY161061GF108991041051012501041999MA1999999100101MD1999999-0011MW1021REMSYN017333   59001 69981
0148821980999991984012800004-01683-045367FM-12+000899999V0203601N00101012001CN0040001N9+02521+02361100831ADDAA106000091AG10999AY101061GF106991061021012501001001KA1240M+02981MA1999999100942MD1999999+0041MW1021REMSYN017333   10298 58004EQDQ01+100943APOSP 
0146821980999991984012812004-01683-045367FM-12+000899999V0209991C00001045001CN0100001N9+02691+02431100771ADDAA124000891AA299001091AG10999AY101061GF106991041021012501011001KA1240N+02231MA1999999100251MD1999999-0221MW1021REMSYN023333   20223 59022 69984
0157821980999991984012900004-01683-045367FM-12+000899999V0200901N00311220001CN0040001N9+02621+02581100661ADDAA106000791AA299000091AG10999GF104991041001012501051001KA1240M+02951MA1999999999999MD1999999-0161MW1131REMSYN023333   10295 59016 69971EQDQ01 096153APOSP 
0135821980999991984012912004-01683-045367FM-12+000899999V0200901N00311220001CN0100001N9+02861+02421100781ADDAA112000091AG10999AY101061GF106991041021008001001011KA1240N+02521MA1999999100271MD1999999+0021MW1021REMSYN023333   20252 58002 60002
0129821980999991984013000004-01683-045367FM-12+000899999V0200901N00261220001CN0040001N9+02641+02351100831ADDAA106000091AG10999AY101061GF100991001001999999001001KA1240M+03171MA1999999100281MD1999999+0071MW1021REMSYN017333   10317 58007
0129821980999991984013012004-01683-045367FM-12+000899999V0200901N00461045001CN0100001N9+02861+02331100831ADDAA106000091AG10999AY101061GF106991031021008001011011KA1240N+02481MA1999999100321MD1999999+0051MW1021REMSYN017333   20248 58005
0110821980999991984013018004-01683-045367FM-12+000899999V0200901N00511045001CN0100001N9+03071+02221100631ADDAA106000091AG10999AY101061GF106991041021012501061001MA1999999100121MD1999999+0101MW1021REMSYN011333   58010
0129821980999991984013100004-01683-045367FM-12+000899999V0200901N00361220001CN0040001N9+02661+02371100801ADDAA106000091AG10999AY101061GF100991001001999999001001KA1240M+03111MA1999999100291MD1999999+0071MW1021REMSYN017333   10311 58007
0129821980999991984013112004-01683-045367FM-12+000899999V0200501N00411045001CN0200001N9+02851+02391100851ADDAA106000091AG10999AY101061GF106991031021008001041041KA1240N+02521MA1999999100341MD1999999+0021MW1021REMSYN017333   20252 58002
0110821980999991984013118004-01683-045367FM-12+000899999V0200901N00621045001CN0100001N9+03001+02371100641ADDAA106000091AG10999AY101061GF106991031021012501061021MA1999999100121MD1999999+0011MW1021REMSYN011333   58001
0129821980999991984020100004-01683-045367FM-12+000899999V0200901N00311220001CN0040001N9+02641+02351100221ADDAA106000091AG10999AY101061GF100991001001999999001001KA1240M+03061MA1999999100281MD1999999-0011MW1021REMSYN017333   10306 59001
0148821980999991984020112004-01683-045367FM-12+000899999V0200501N00571220001CN0100001N9+02861+02361100831ADDAA106000091AG10999AY101061GF103991031021008001001001KA1240M+99999MA1999999100321MD1999999-0021MW1021REMSYN017333   10248 59002EQDQ01 +02482ATMX  
0110821980999991984020118004-01683-045367FM-12+000899999V0200501N00571045001CN0100001N9+02941+02361100611ADDAA106000091AG10999AY101061GF106991041021012501061021MA1999999100101MD1999999-0031MW1021REMSYN011333   59003
0129821980999991984020200004-01683-045367FM-12+000899999V0200901N00361220001CN0040001N9+02641+02311100651ADDAA106000091AG10999AY101061GF100991001001999999001001KA1240M+03051MA1999999100241MD1999999-0041MW1021REMSYN017333   10305 59004
0135821980999991984020212004-01683-045367FM-12+000899999V0200501N00051012001CN0040001N9+02401+02301100901ADDAA124003091AG10999AY161061GF108991061071012501021999KA1240N+02391MA1999999100381MD1999999+0061MW1151REMSYN023333   20239 58006 60034
0116821980999991984020218004-01683-045367FM-12+000899999V0200501N002619999999N0100001N9+02661+02241100641ADDAA106009091AG10999AY161061GF107991041001012501011041MA1999999100131MD1999999+0031MW1031REMSYN017333   58003 60091
0129821980999991984020300004-01683-045367FM-12+000899999V0200501N00151045001CN0040001N9+02321+02251100631ADDAA106000091AG10999AY101061GF108991041051012501021999KA1240N+02011MA1999999100111MD1999999-0011MW1021REMSYN017333   20201 59001
0135821980999991984020312004-01683-045367FM-12+000899999V0200501N00051045001CN0100001N9+02441+02281099771ADDAA124014091AG10999AY161061GF107991041031012501011001KA1240N+02111MA1999999100251MD1999999-0131MW1151REMSYN023333   20211 59013 60144
0116821980999991984020318004-01683-045367FM-12+000899999V0200501N00361012001CN0100001N9+02671+02431100511ADDAA106007091AG10999AY161061GF106991051021012501041001MA1999999100001MD1999999-0131MW1021REMSYN017333   59013 60071
0135821980999991984020412004-01683-045367FM-12+000899999V0200901N00311045001CN0100001N9+02761+02401100781ADDAA124024091AG10999AY161061GF107991041071008001031001KA1240N+02171MA1999999100261MD1999999+0011MW1031REMSYN023333   20217 58001 60244
0116821980999991984020418004-01683-045367FM-12+000899999V0200901N00511045001CN0100001N9+02871+02351100551ADDAA106003091AG10999AY161061GF106991031021012501061001MA1999999100041MD1999999+0041MW1011REMSYN017333   58004 60031
0135821980999991984020512004-01683-045367FM-12+000899999V0200901N00311045001CN0100001N9+02641+02391100821ADDAA124016091AG10999AY161061GF106991041021008001041001KA1240N+02321MA1999999101301MD1999999+0041MW1031REMSYN023333   20232 58004 60164
0135821980999991984020518004-01683-045367FM-12+000899999V0203601N00261012001CN0100001N9+02511+02401100691ADDAA106041091AG10999AY161061GF108991051051012501031999MA1999999100172MD1999999-0131MW1021REMSYN017333   59013 60411EQDQ01+100173APOSP 
0129821980999991984020600004-01683-045367FM-12+000899999V0203201N00101012001CN0040001N9+02361+02281100721ADDAA106000091AG10999AY101061GF108991061071012501021999KA1240M+02841MA1999999100201MD1999999+0051MW1021REMSYN017333   10284 58005
0135821980999991984020612004-01683-045367FM-12+000899999V0203201N00151045001CN0100001N9+02401+02371100861ADDAA124065091AG10999AY161061GF107991041011012501011001KA1240N+02251MA1999999100341MD1999999+0041MW1021REMSYN023333   20225 58004 60654
0110821980999991984020618004-01683-045367FM-12+000899999V0203601N00261105001CN0100001N9+03001+02271100561ADDAA106000091AG10999AY101061GF105991021021008001041011MA1999999100051MD1999999-0121MW1021REMSYN011333   59012
0129821980999991984020700004-01683-045367FM-12+000899999V0203601N00211012001CN0040001N9+02481+02381100851ADDAA106000091AG10999AY101061GF108991061051012501999999KA1240M+03161MA1999999100341MD1999999+0141MW1021REMSYN017333   10316 58014
0135821980999991984020712004-01683-045367FM-12+000899999V0200501N00151045001CN0100001N9+02661+02331100821ADDAA124012091AG10999AY161061GF106991041021012501031001KA1240N+02281MA1999999100311MD1999999-0031MW1011REMSYN023333   20228 59003 60124
0110821980999991984020718004-01683-045367FM-12+000899999V0200901N00511105001CN0100001N9+02911+02221100571ADDAA106000091AG10999AY101061GF105991021021012501061011MA1999999100031MD1999999-0021MW1021REMSYN011333   59002
0135821980999991984020812004-01683-045367FM-12+000899999V0201801N00051007501CN0040001N9+02501+02431100941ADDAA124003091AG10999AY161061GF108991061071008001021999KA1240N+02321MA1999999100421MD1999999+0111MW1021REMSYN023333   20232 58011 60034
0116821980999991984020818004-01683-045367FM-12+000899999V0200901N00151045001CN0100001N9+02741+02361100501ADDAA106003091AG10999AY161061GF106991041021012501061001MA1999999100191MD1999999+0161MW1011REMSYN017333   58016 60031
0121821980999991984020905004-01683-045367FM-12+000899999V0203201N00051220001CN0100001N9+99999+99999100931ADDAA124003091AG10999AY101999GF102991021021008001001001KA1240N+02261MA1999999100411MW1021REMSYN023333   20226 59//1 60034
0110821980999991984020918004-01683-045367FM-12+000899999V0200901N00571220001CN0100001N9+03101+02151100641ADDAA106000091AG10999AY101061GF104991041021012501001001MA1999999100131MD1999999-0061MW1021REMSYN011333   59006
0109821980999991984021000004-01683-045367FM-12+000899999V0209991C000019999999N0040001N9+99999+99999101161ADDAG10999GF108991041081999999071999KA1240M+02721MA1999999100982REMSYN017333   10272 55800EQDQ01+100983APOSP 
0129821980999991984021012004-01683-045367FM-12+000899999V0200901N00151007501CN0100001N9+02861+02461100981ADDAA106000091AG10999AY101061GF105991051021008001001001KA1240N+02371MA1999999100471MD1999999+0061MW1021REMSYN017333   20237 58006
0116821980999991984021018004-01683-045367FM-12+000899999V0200501N00511045001CN0100001N9+02831+02331100721ADDAA106009091AG10999AY161061GF106991041021012501041001MA1999999100211MD1999999+0081MW1021REMSYN017333   58008 60091
0129821980999991984021100004-01683-045367FM-12+000899999V0200501N00151045001CN0040001N9+02481+02371100201ADDAA106000091AG10999AY101061GF106991031051012501061001KA1240M+02971MA1999999100391MD1999999+0131MW1021REMSYN017333   10297 58013
0154821980999991984021112004-01683-045367FM-12+000899999V0203601N002119999999N0040001N9+02361+02311101031ADDAA124049091AG10999AY161061GF108991999001012501021999KA1240N+02271MA1999999100511MD1999999+0041MW1921REMSYN023333   20227 58004 60494EQDQ01+000002SCOTLC
0116821980999991984021118004-01683-045367FM-12+000899999V0200901N00361045001CN0100001N9+02841+02311100581ADDAA106005091AG10999AY161061GF106991031021012501061001MA1999999100071MD1999999-0141MW1011REMSYN017333   59014 60051
0135821980999991984021200004-01683-045367FM-12+000899999V0202701N00101045001CN0040001N9+02361+02331100821ADDAA106001091AG10999AY161061GF106991041021012501041001KA1240M+02961MA1999999100321MD1999999-0071MW1021REMSYN023333   10296 59007 60011
0127821980999991984021218004-01683-045367FM-12+000899999V0200501N00051045001CN0100001N9+02691+02461100561ADDAA106000291AA299000391AG10999AY151061GF106991031081012501021011MA1999999100051MD1999999-0021MW1011REMSYN017333   59002 69921
0148821980999991984021300004-01683-045367FM-12+000899999V0200901N00101007501CN0040001N9+02531+02361100541ADDAA106000091AG10999AY101061GF106991051051008001021001KA1240M+99999MA1999999100231MD1999999-0091MW1021REMSYN017333   10205 59009EQDQ01 +02052ATMX  
0135821980999991984021312004-01683-045367FM-12+000899999V0203201N00101012001CN0100001N9+02391+02351100921ADDAA124003091AG10999AY161061GF108991061071012501011999KA1240N+02231MA1999999100401MD1999999-0061MW1031REMSYN023333   20223 59006 60034
0135821980999991984021412004-01683-045367FM-12+000899999V0201401N00311045001CN0040001N9+02431+02341100921ADDAA124016091AG10999AY161061GF107991041071012501021001KA1240N+02311MA1999999100401MD1410001+0001MW1031REMSYN023333   20231 58000 60164
0116821980999991984021418004-01683-045367FM-12+000899999V0200901N00101045001CN0100001N9+02621+02411100541ADDAA106002091AG10999AY161061GF106991041051012501021011MA1999999100031MD1999999-0211MW1511REMSYN017333   59021 60021
0170821980999991984021500004-01683-045367FM-12+000899999V0200501N001519999999N0040001N9+02561+02401100741ADDAA106006091AG10999AY161061GF108991999051008001001001KA1240M+02951MA1999999100832MD1999999+0021MW1031REMSYN023333   10295 58002 60061EQDQ01+000032SCOTLCQ02+100833APOSP 
0135821980999991984021512004-01683-045367FM-12+000899999V0203201N00101012001CN0100001N9+02401+02371100841ADDAA124046091AG10999AY161061GF107991071011012501001011KA1240N+02201MA1999999100321MD1999999-0081MW1011REMSYN023333   20220 59008 60464
0116821980999991984021518004-01683-045367FM-12+000899999V0203601N00051012001CN0100001N9+02351+02311100571ADDAA106027091AG10999AY161061GF108991061011012501011001MA1999999100071MD1999999+0041MW1031REMSYN017333   58004 60271
0118821980999991984021600004-01683-045367FM-12+000899999V0209991C00001012001CN0040001N9+02551+02541100861ADDAG10999AY101061GF108991061071012501021999KA1240M+02751MA1999999100341MD1999999+0011MW1021REMSYN017333   10275 58001
0135821980999991984021612004-01683-045367FM-12+000899999V0209991C00001045001CN0100001N9+02641+02311100831ADDAA124039091AG10999AY161061GF105991031021008001041001KA1240N+02231MA1999999100311MD1999999-0021MW1011REMSYN023333   20223 59002 60394
0116821980999991984021618004-01683-045367FM-12+000899999V0200901N00411045001CN0100001N9+02611+02391100541ADDAA106005091AG10999AY161061GF106991041021012501061021MA1999999100031MD1999999-0041MW1021REMSYN017333   59004 60051
0129821980999991984021700004-01683-045367FM-12+000899999V0200901N002119999999N0040001N9+02511+02401100811ADDAA106000091AG10999AY101061GF105991031001012501061031KA1240M+02971MA1999999100201MD1999999-0141MW1021REMSYN017333   10297 59014
0135821980999991984021712004-01683-045367FM-12+000899999V0201401N00051220001CN0100001N9+02781+02441100851ADDAA124005091AG10999AY101061GF102991021021008001001001KA1240N+02331MA1999999100331MD1999999+0021MW1021REMSYN023333   20233 58002 60054
0110821980999991984021718004-01683-045367FM-12+000899999V0200901N00621007501CN0100001N9+02951+02331100541ADDAA106000091AG10999AY101061GF105991051021008001001001MA1999999100031MD1410001+0001MW1021REMSYN011333   58000
0129821980999991984021800004-01683-045367FM-12+000899999V0200501N00261220001CN0040001N9+02671+02381100821ADDAA106000091AG10999AY101061GF103991011021008001011011KA1240M+03221MA1999999100221MD1999999+0011MW1021REMSYN017333   10322 58001
0129821980999991984021812004-01683-045367FM-12+000899999V0200501N00361220001CN0100001N9+02741+02401100791ADDAA106000091AG10999AY101061GF103991011021012501011011KA1240N+02251MA1999999100271MD1999999-0061MW1021REMSYN017333   20225 59006
0110821980999991984021818004-01683-045367FM-12+000899999V0200501N00571220001CN0100001N9+02981+02421100521ADDAA106000091AG10999AY101061GF103991031021012501001001MA1999999100011MD1999999-0021MW1021REMSYN011333   59002
0148821980999991984021900004-01683-045367FM-12+000899999V0200501N00261220001CN0040001N9+02621+02461100631ADDAA106000091AG10999AY101061GF103991999011008001001001KA1240M+02981MA1999999100741MD1999999-0101MW1021REMSYN017333   10298 59010EQDQ01+000022SCOTLC
0096821980999991984021912004-01683-045367FM-12+000899999V0200901N00361007501CN0100001N9+02701+02431100831ADDAA106000091AG10999AY101061GF105991051021008001001001MA1999999100311MW1021REMSYN011333   2022/
0110821980999991984021918004-01683-045367FM-12+000899999V0200501N00511045001CN0100001N9+02961+02331100601ADDAA106000091AG10999AY101061GF105991031021012501061001MA1999999100091MD1999999+0081MW1021REMSYN011333   58008
0129821980999991984022012004-01683-045367FM-12+000899999V0200901N00261045001CN0100001N9+02621+02391100901ADDAA106000091AG10999AY101061GF106991021031008001021011KA1240N+02491MA1999999100381MD1999999+0061MW1021REMSYN017333   20249 58006
0116821980999991984022018004-01683-045367FM-12+000899999V0200901N00511045001CN0100001N9+02771+02341100621ADDAA106002091AG10999AY161061GF106991041051012501021001MA1999999100111MD1999999+0021MW1021REMSYN017333   58002 60021
0135821980999991984022112004-01683-045367FM-12+000899999V0202301N00101045001CN0100001N9+02491+02451100921ADDAA124002091AG10999AY101061GF107991031011008001011011KA1240N+02251MA1999999100401MD1999999+0021MW1021REMSYN023333   20225 58002 60024
0116821980999991984022118004-01683-045367FM-12+000899999V0200501N00511045001CN0100001N9+02751+02361100561ADDAA106001091AG10999AY161061GF106991041051012501021001MA1999999100051MD1999999-0061MW1151REMSYN017333   59006 60011
0135821980999991984022212004-01683-045367FM-12+000899999V0200901N00261045001CN0100001N9+02781+02501100931ADDAA124014091AG10999AY101061GF106991041021008001031001KA1240N+02301MA1999999100411MD1999999+0011MW1021REMSYN023333   20230 58001 60144
0110821980999991984022218004-01683-045367FM-12+000899999V0200501N00621012001CN0100001N9+02981+02371100641ADDAA106000091AG10999AY101061GF106991061021012501001001MA1999999100131MD1999999+0081MW1021REMSYN011333   58008
0118821980999991984022300004-01683-045367FM-12+000899999V0200901N00311220001CN0040001N9+02681+02481100881ADDAG10999AY101061GF100991001001999999001001KA1240M+03031MA1999999100301MD1999999+0101MW1021REMSYN017333   10303 58010
0129821980999991984022312004-01683-045367FM-12+000899999V0200901N00311105001CN0100001N9+02851+02441100951ADDAA106000091AG10999AY101061GF105991021011008001041041KA1240N+02461MA1999999100441MD1999999+0031MW1021REMSYN017333   20246 58003
0110821980999991984022318004-01683-045367FM-12+000899999V0200501N00671012001CN0100001N9+02581+02511100641ADDAA106000091AG10999AY101061GF106991051021012501061021MA1999999100131MD1410001+0001MW1021REMSYN011333   58000
0148821980999991984022400004-01683-045367FM-12+000899999V0200901N001019999999N0040001N9+02801+02401100741ADDAA106000091AG10999AY101061GF106991999001008001001001KA1240M+02971MA1999999100231MD1999999-0141MW1021REMSYN017333   10297 59014EQDQ01+000002SCOTLC
0146821980999991984022412004-01683-045367FM-12+000899999V0200901N00361220001CN0100001N9+02881+02441100801ADDAA124000791AA299001091AG10999AY161061GF104991021021008001001011KA1240N+02471MA1999999100291MD1999999-0151MW1011REMSYN023333   20247 59015 69974
0127821980999991984022418004-01683-045367FM-12+000899999V0200501N00511012001CN0100001N9+02581+02421100521ADDAA106000791AA299001091AG10999AY161061GF108991051051012501021999MA1999999100011MD1999999-0121MW1031REMSYN017333   59012 69971
0135821980999991984022512004-01683-045367FM-12+000899999V0209991C00001105001CN0100001N9+02691+02481100671ADDAA124033091AG10999AY161061GF105991011011008001011011KA1240N+02201MA1999999100161MD1999999-0131MW1011REMSYN023333   20220 59013 60334
0116821980999991984022518004-01683-045367FM-12+000899999V0200501N00361012001CN0100001N9+02701+02391100491ADDAA106002091AG10999AY161061GF108991061051012501021999MA1999999099981MD1999999-0031MW1031REMSYN017333   59003 60021
0165821980999991984022600004-01683-045367FM-12+000899999V0200901N00211220001CN0040001N9+02461+02391100671ADDAA106000991AA299001091AG10999AY161061GF100991001001999999001001KA1240M+03261MA1999999100832MD1999999+0091MW1111REMSYN023333   10326 58009 69991EQDQ01+100833APOSP 
0135821980999991984022612004-01683-045367FM-12+000899999V0201401N00151045001CN0100001N9+02781+02481100711ADDAA124005091AG10999AY161061GF107991031071008001021001KA1240N+02341MA1999999100191MD1999999+0031MW1031REMSYN023333   20234 58003 60054
0116821980999991984022618004-01683-045367FM-12+000899999V0200501N00361012001CN0100001N9+02701+02391100491ADDAA106002091AG10999AY161061GF108991061051012501021999MA1999999099981MD1999999-0031MW1031REMSYN017333   59003 60021
0164821980999991984022700004-01683-045367FM-12+000899999V0200901N002619999999N0040001N9+02681+02391100761ADDAA106000091AG10999AY101061GF105991999021012501021001KA1240M+02981MA1999999100982MD1999999+0021MW1021REMSYN017333   10298 58002EQDQ01+000002SCOTLCQ02+100983APOSP 
0135821980999991984022712004-01683-045367FM-12+000899999V0200901N00261105001CN0100001N9+02841+02401100911ADDAA124005091AG10999AY101061GF105991021021008001041011KA1240N+02511MA1999999100401MD1999999+0211MW1021REMSYN023333   20251 58021 60054
0116821980999991984022718004-01683-045367FM-12+000899999V0200901N00511012001CN0100001N9+03061+02221100611ADDAA106004091AG10999AY161061GF105991051021012501001001MA1999999100101MD1999999+0121MW1021REMSYN017333   58012 60041
0150821980999991984022800004-01683-045367FM-12+000899999V0200901N00311220001CN0040001N9+02621+02371999999ADDAA106000091AG10999AY101061GF101991011011008001001001KA1240M+03071MA1999999100301MW1021REMSYN017333   10307 58805EQDQ01+098813APOSLPQ02 098813APOSLP
0135821980999991984022812004-01683-045367FM-12+000899999V0200901N00261045001CN0100001N9+02861+02521100971ADDAA124004091AG10999AY101061GF105991031021008001031001KA1240N+02361MA1999999100461MD1999999+0061MW1021REMSYN023333   20236 58006 60044
0116821980999991984022818004-01683-045367FM-12+000899999V0201401N00101012001CN0100001N9+02591+02461100851ADDAA106007091AG10999AY161061GF108991061051012501021999MA1999999100341MD1999999+0241MW1031REMSYN017333   58024 60071
0135821980999991984022900004-01683-045367FM-12+000899999V0203201N00151220001CN0040001N9+02311+02251100991ADDAA106008091AG10999AY161061GF104991041001012501061001KA1240M+02851MA1999999100461MD1999999+0171MW1011REMSYN023333   10285 58017 60081
0135821980999991984022912004-01683-045367FM-12+000899999V0200501N00261045001CN0100001N9+02631+02501100941ADDAA124016091AG10999AY161061GF106991041021008001061001KA1240N+02231MA1999999100421MD1999999-0041MW1031REMSYN023333   20223 59004 60164
0135821980999991984030112004-01683-045367FM-12+000899999V0202701N00051045001CN0100001N9+02571+02481100081ADDAA124027091AG10999AY161061GF105991021021008001061001KA1240N+02241MA1999999100331MD1999999-0091MW1011REMSYN023333   20224 59009 60274
0116821980999991984030118004-01683-045367FM-12+000899999V0203601N00361007501CN0100001N9+02581+02461100631ADDAA106009091AG10999AY161061GF108991061071008001021999MA1999999100111MD1999999-0081MW1151REMSYN017333   59008 60091
0135821980999991984030200004-01683-045367FM-12+000899999V0200901N00101045001CN0040001N9+02411+02391100781ADDAA106023091AG10999AY161061GF106991041011008001061001KA1240M+02851MA1999999100261MD1999999+0041MW1011REMSYN023333   10285 58004 60231
0135821980999991984030212004-01683-045367FM-12+000899999V0209991C00001045001CN0100001N9+02571+02491100951ADDAA124047091AG10999AY161061GF107991041021008001061001KA1240N+02281MA1999999100431MD1999999+0101MW1031REMSYN023333   20228 58010 60474
0116821980999991984030218004-01683-045367FM-12+000899999V0203201N00101045001CN0040001N9+02481+02381100731ADDAA106006091AG10999AY161061GF108991041051012501021999MA1999999100221MD1999999+0111MW1021REMSYN017333   58011 60061
0135821980999991984030312004-01683-045367FM-12+000899999V0203601N00151045001CN0100001N9+02361+02291101201ADDAA124030091AG10999AY161061GF108991031071012501011999KA1240N+02221MA1999999100681MD1999999+0251MW1031REMSYN023333   20222 58025 60304
0116821980999991984030318004-01683-045367FM-12+000899999V0203601N00051045001CN0100001N9+02631+02351100891ADDAA106000191AG10999AY151061GF108991041071012501041999MA1999999100321MD1999999+0171MW1021REMSYN017333   58017 69911
0135821980999991984030800004-01683-045367FM-12+000899999V0203601N00101045001CN0040001N9+02441+02301101031ADDAA106000591AG10999AY161061GF108991041051012501021999KA1240M+02861MA1999999100511MD1999999+0091MW1031REMSYN023333   10286 58009 69951
0135821980999991984030812004-01683-045367FM-12+000899999V0200501N00261007501CN0100001N9+02581+02481101061ADDAA124000591AG10999AY101061GF108991061071008001021001KA1240N+02281MA1999999100541MD1999999-0161MW1021REMSYN023333   20228 59016 69954
0116821980999991984030818004-01683-045367FM-12+000899999V0200501N00101045001CN0100001N9+02651+02421100741ADDAA106001091AG10999AY161061GF108991041051012501061999MA1999999100231MD1999999-0061MW1021REMSYN017333   59006 60011
0129821980999991984030900004-01683-045367FM-12+000899999V0203201N00101045001CN0040001N9+02491+02311100911ADDAA106000091AG10999AY101061GF107991041011008001011001KA1240M+02991MA1999999100391MD1999999-0121MW1021REMSYN017333   10299 59012
0135821980999991984030912004-01683-045367FM-12+000899999V0209999999999220001CN0100001N9+02611+02371101021ADDAA124001091AG10999AY101061GF104991041021008001001001KA1240N+02251MA1999999100501MD1999999-0041MW1021REMSYN023333   20225 59004 60014
0135821980999991984031000004-01683-045367FM-12+000899999V0203201N00101012001CN0040001N9+02781+02391100911ADDAA106000591AG10999AY161061GF108991051021012501061999KA1240M+03081MA1999999100401MD1999999+0011MW1021REMSYN023333   10308 58001 69951
0135821980999991984031012004-01683-045367FM-12+000899999V0203201N00051007501CN0100001N9+02491+02311100991ADDAA124016091AG10999AY161061GF106991061021008001001041KA1240N+02231MA1999999100471MD1999999-0031MW1021REMSYN023333   20223 59003 60164
0116821980999991984031018004-01683-045367FM-12+000899999V0200501N00261045001CN0100001N9+02691+02281100671ADDAA106000391AG10999AY151061GF106991041021012501061001MA1999999100161MD1999999+0031MW1021REMSYN017333   58003 69931
0129821980999991984031100004-01683-045367FM-12+000899999V0200501N000519999999N0040001N9+02471+02301100941ADDAA106000091AG10999AY101061GF108991061031999999041999KA1240M+02971MA1999999100431MD1999999+0031MW1021REMSYN017333   10297 58003
0135821980999991984031112004-01683-045367FM-12+000899999V0202601N00151045001CN0100001N9+02671+02331101011ADDAA124000391AG10999AY101061GF107991041021008001031001KA1240N+02251MA1999999100491MD1999999+0021MW1021REMSYN023333   20225 58002 69934
0116821980999991984031118004-01683-045367FM-12+000899999V0200501N00211045001CN0100001N9+02491+02341100851ADDAA106005091AG10999AY161061GF108991041051012501041999MA1999999100231MD1999999+0071MW1031REMSYN017333   58007 60051
0135821980999991984031200004-01683-045367FM-12+000899999V0200501N00211045001CN0040001N9+02461+02361100961ADDAA106001091AG10999AY161061GF105991031021012501031001KA1240M+02991MA1999999100711MD1999999-0021MW1011REMSYN023333   10299 59002 60011
0135821980999991984031212004-01683-045367FM-12+000899999V0200501N00211220001CN0100001N9+02721+02451101021ADDAA124005091AG10999AY101061GF104991041021008001001001KA1240N+02321MA1999999100501MD1999999+0011MW1021REMSYN023333   20232 58001 60054
0127821980999991984031218004-01683-045367FM-12+000899999V0200501N00261045001CN0100001N9+02541+02401100721ADDAA106000491AA299000591AG10999AY161061GF106991041021012501061021MA1999999100211MD1999999-0021MW1031REMSYN017333   59002 69941
0135821980999991984031300004-01683-045367FM-12+000899999V0200901N00101045001CN0040001N9+02441+02411100891ADDAA106001091AG10999AY161061GF105991021011008001031001KA1240M+03051MA1999999100381MD1999999-0031MW1011REMSYN023333   10305 59003 60011
0135821980999991984031312004-01683-045367FM-12+000899999V0200501N00261045001CN0100001N9+02521+02461100981ADDAA124002091AG10999AY151061GF105991031021008001031011KA1240N+02321MA1999999100461MD1999999-0041MW1021REMSYN023333   20232 59004 60024
0110821980999991984031318004-01683-045367FM-12+000899999V0200501N00261045001CN0100001N9+02901+02371100591ADDAA106000091AG10999AY101061GF106991041021012501061001MA1999999100081MD1999999-0131MW1021REMSYN011333   59013
0135821980999991984031400004-01683-045367FM-12+000899999V0203201N00101045001CN0040001N9+02541+02381100891ADDAA106001091AG10999AY161061GF106991041081012501031001KA1240M+03031MA1999999100381MD1410001+0001MW1021REMSYN023333   10303 58000 60011
0116821980999991984031412004-01683-045367FM-12+000899999V0203201N00211012001CN0100001N9+02371+02331101371ADDAA124052091AG10999AY161061GF108991061051012501021999MA1999999100851MD1999999+0121MW1031REMSYN017333   58012 60524
0110821980999991984031418004-01683-045367FM-12+000899999V0203201N003119999999N0100001N9+02741+02281100691ADDAA106000091AG10999AY101061GF106991021021012501001999MA1999999100181MD1999999+0101MW1021REMSYN011333   58010
0129821980999991984031500004-01683-045367FM-12+000899999V0203601N00211105001CN0040001N9+02441+02271100831ADDAA106000091AG10999AY101061GF106991021021008001041041KA1240M+02831MA1999999100311MD1999999-0071MW1021REMSYN017333   10283 59007
0129821980999991984031512004-01683-045367FM-12+000899999V0202701N00101012001CN0100001N9+02581+02271101011ADDAA106000091AG10999AY101061GF107991051011012501031001KA1240N+02221MA1999999100491MD1999999-0091MW1021REMSYN017333   20222 59009
0110821980999991984031518004-01683-045367FM-12+000899999V0200901N00361045001CN0100001N9+02811+02291100591ADDAA106000091AG10999AY101061GF106991041021012501061001MA1999999100081MD1999999-0101MW1021REMSYN011333   59010
0129821980999991984031600004-01683-045367FM-12+000899999V0203601N001019999999N0040001N9+02521+02331100881ADDAA106000091AG10999AY101061GF106991051001012501061021KA1240M+02991MA1999999100771MD1999999+0061MW1021REMSYN017333   10299 58006
0129821980999991984031612004-01683-045367FM-12+000899999V0203201N00261007501CN0100001N9+02701+02451100881ADDAA106000091AG10999AY101061GF105991051021008001001001KA1240N+02281MA1999999100361MD1999999-0131MW1021REMSYN017333   20228 59013
0129821980999991984031700004-01683-045367FM-12+000899999V0203201N00101045001CN0040001N9+02471+02381100801ADDAA106000091AG10999AY101061GF106991041021012501061001KA1240M+02851MA1999999100281MD1999999-0091MW1021REMSYN017333   10285 59009
0135821980999991984031712004-01683-045367FM-12+000899999V0201401N00411015001CN0040001N9+99999+99999101011ADDAA124027091AG10999AY161061GF108991081001017501021999KA1240N+02141MA1999999100491MD1999999+0131MW1661REMSYN023333   20214 58013 60274
0116821980999991984031718004-01683-045367FM-12+000899999V0202301N00101045001CN0040001N9+02341+02291100561ADDAA106017091AG10999AY161061GF108991041051012501021999MA1999999100041MD1999999-0131MW1501REMSYN017333   59013 60171
0076821980999991984031800004-01683-045367FM-12+000899999V0202301N00151045001CN0040001N9+02371+02311100441ADDAA106000091AG10999AY101061GF106991041021008001011001MA1999999100251MW1021
0135821980999991984031812004-01683-045367FM-12+000899999V0202701N00151045001CN0100001N9+02631+02351100881ADDAA124017091AG10999AY101061GF106991041011012501041001KA1240N+02111MA1999999100361MD1999999-0131MW1021REMSYN023333   20211 59013 60174
0110821980999991984031818004-01683-045367FM-12+000899999V0200901N00411045001CN0100001N9+02901+02391100571ADDAA106000091AG10999AY101061GF105991041021012501061001MA1999999100061MD1999999+0021MW1021REMSYN011333   58002
0114821980999991984031912004-01683-045367FM-12+000899999V0200901N002119999999N0200001N9+02741+02401100841ADDAA106000091AG10999AY101061GF199999031021008001041011KA1240N+02361MD1999999-0041MW1021REMSYN017333   20236 59004
0116821980999991984031918004-01683-045367FM-12+000899999V0200501N00361045001CN0100001N9+02501+02381100591ADDAA106015091AG10999AY161061GF105991041071012501061001MA1999999100081MD1999999+0011MW1021REMSYN017333   58001 60151
0135821980999991984032000004-01683-045367FM-12+000899999V0203201N00101220001CN0040001N9+02471+02321100781ADDAA106002091AG10999AY161061GF103991021021008001031001KA1240M+02941MA1999999100261MD1999999-0031MW1011REMSYN023333   10294 59003 60021
0135821980999991984032012004-01683-045367FM-12+000899999V0202701N00101045001CN0100001N9+02681+02501100861ADDAA124017091AG10999AY101061GF105991021021008001061001KA1240N+02321MA1999999100341MD1999999+0021MW1021REMSYN023333   20232 58002 60174
0110821980999991984032018004-01683-045367FM-12+000899999V0200501N00571105001CN0100001N9+02851+02371100531ADDAA106000091AG10999AY101061GF105991021021008001011011MA1999999100021MD1999999-0051MW1021REMSYN011333   59005
0154821980999991984032100004-01683-045367FM-12+000899999V0200501N00151220001CN0040001N9+02521+02361100851ADDAA106000591AG10999AY161061GF104991041021012501001001KA1240N+99999MA1999999100341MD1999999+0081MW1011REMSYN023333   20306 58008 69951EQDQ01 +03062ATMN  
0135821980999991984032112004-01683-045367FM-12+000899999V0200501N00101045001CN0100001N9+02621+02411101081ADDAA124022091AG10999AY161061GF106991041051012501041001KA1240N+02331MA1999999100571MD1999999+0231MW1031REMSYN023333   20233 58023 60224
0116821980999991984032118004-01683-045367FM-12+000899999V0203601N00361045001CN0100001N9+02561+02361100731ADDAA106001091AG10999AY161061GF106991031021012501061001MA1999999100221MD1999999+0201MW1021REMSYN017333   58020 60011
0135821980999991984032212004-01683-045367FM-12+000899999V0202701N00101012001CN0100001N9+02521+02361101021ADDAA124001091AG10999AY101061GF106991061011012501041001KA1240N+02231MA1999999100501MD1999999-0071MW1021REMSYN023333   20223 59007 60014
0116821980999991984032218004-01683-045367FM-12+000899999V0202701N00211045001CN0100001N9+02521+02421100661ADDAA106010091AG10999AY161061GF106991041021012501031001MA1999999100151MD1999999-0071MW1021REMSYN017333   59007 60101
0103821980999991984032300004-01683-045367FM-12+000899999V0203201N002119999999N0040001N9+02401+02391100911ADDAG10999AY101061GF105991051001004501061001KA1240M+03031MD1999999+0061MW1021REMSYN017333   10303 58006
0135821980999991984032312004-01683-045367FM-12+000899999V0201401N00101220001CN0100001N9+02871+02391100831ADDAA124026091AG10999AY161061GF104991031021012501001011KA1240N+02281MA1999999100321MD1999999-0181MW1011REMSYN023333   20228 59018 60264
0099821980999991984032318004-01683-045367FM-12+000899999V0200901N00261045001CN0100001N9+02611+99999100591ADDAG10999AY161061GF106991041011008001061001MA1999999100071MD1999999-0081MW1031REMSYN011333   59008
0164821980999991984032400004-01683-045367FM-12+000899999V0200501N001019999999N0100001N9+02541+02401100891ADDAA106000091AG10999AY101061GF106991999001012501061001KA1240M+03151MA1999999098322MD1999999-0081MW1021REMSYN017333   10315 59008EQDQ01+000042SCOTLCQ02+098323APOSP 
0135821980999991984032412004-01683-045367FM-12+000899999V0200901N00361105001CN0100001N9+02631+02521100781ADDAA124001091AG10999AY101061GF105991021011008001041041KA1240N+02361MA1999999100261MD1999999-0061MW1021REMSYN023333   20236 59006 60014
0116821980999991984032418004-01683-045367FM-12+000899999V0200501N00411045001CN0100001N9+02711+02411100571ADDAA106003091AG10999AY161061GF106991041051012501021001MA1999999100051MD1999999-0021MW1031REMSYN017333   59002 60031
0135821980999991984032500004-01683-045367FM-12+000899999V0200901N00261220001CN0040001N9+02561+02461100801ADDAA106013091AG10999AY161061GF104991041021012501041001KA1240M+03031MA1999999100221MD1999999-0071MW1011REMSYN023333   10303 59007 60131
0135821980999991984032512004-01683-045367FM-12+000899999V0201401N00051045001CN0100001N9+02571+02441100961ADDAA124024091AG10999AY161061GF106991041021008001061001KA1240N+02281MA1999999100441MD1999999+0181MW1031REMSYN023333   20228 58018 60244
0127821980999991984032518004-01683-045367FM-12+000899999V0200901N00411045001CN0100001N9+02771+02161100651ADDAA106000691AA299000591AG10999AY161061GF105991031021012501061001MA1999999100141MD1999999+0091MW1011REMSYN017333   58009 69961
0129821980999991984032600004-01683-045367FM-12+000899999V0200901N00151220001CN0040001N9+02781+02441100951ADDAA106000091AG10999AY101061GF103991031001012501061001KA1240M+02931MA1999999100441MD1999999+0161MW1021REMSYN017333   10293 58016
0135821980999991984032612004-01683-045367FM-12+000899999V0202701N00361045001CN0100001N9+02491+02451100921ADDAA124005091AG10999AY161061GF106991041021012501061001KA1240N+02301MA1999999100721MD1999999-0021MW1031REMSYN023333   20230 59002 60054
0146821980999991984032700004-01683-045367FM-12+000899999V0201801N001519999999N0040001N9+02401+02371100921ADDAA106000291AA299000391AG10999AY161061GF106991061001012501061001KA1240M+02891MA1999999100401MD1999999-0041MW1011REMSYN023333   10289 59004 69921
0135821980999991984032712004-01683-045367FM-12+000899999V0202301N00151012001CN0100001N9+02441+02411100921ADDAA124011091AG10999AY161061GF108991061051012501021999KA1240N+02271MA1999999100471MD1999999+0021MW1031REMSYN023333   20227 58002 60114
0135821980999991984032812004-01683-045367FM-12+000899999V0201401N00211015001CN0100001N9+02341+02291100891ADDAA124024091AG10999AY161061GF108991061011017501021001KA1240N+02191MA1999999100371MD1999999-0101MW1031REMSYN023333   20219 59010 60244
0121821980999991984032900004-01683-045367FM-12+000899999V0209991C00001220001CN0040001N9+02511+02371100801ADDAA106003091AG10999GF103991031001012501041001KA1240M+02891MA1999999100471MD1999999+0061REMSYN023333   10289 58006 60031
0135821980999991984032912004-01683-045367FM-12+000899999V0200901N00051105001CN0100001N9+02511+02361100931ADDAA124007091AG10999AY161061GF105991021011012501011041KA1240N+02351MA1999999100411MD1999999+0071MW1031REMSYN023333   20235 58007 60074
0116821980999991984032918004-01683-045367FM-12+000899999V0200501N00261045001CN0100001N9+02761+02441100621ADDAA106002091AG10999AY161061GF106991041051012501021001MA1999999100111MD1999999+0041MW1501REMSYN017333   58004 60021
0135821980999991984033012004-01683-045367FM-12+000899999V0201401N00511105001CN0100001N9+02731+02541100941ADDAA124007091AG10999AY161061GF106991021011012501041041KA1240N+02301MA1999999100521MD1999999+0081MW1031REMSYN023333   20230 58008 60074
0110821980999991984033018004-01683-045367FM-12+000899999V0200901N00361045001CN0100001N9+02761+02501100721ADDAA106000091AG10999AY101061GF106991031021012501061011MA1999999100211MD1999999+0101MW1021REMSYN011333   58010
0148821980999991984033100004-01683-045367FM-12+000899999V0201401N00211045001CN0040001N9+02581+02491100891ADDAA106000091AG10999AY101061GF106991041011012501031001KA1240M+02981MA1999999099372MD1999999+0061MW1021REMSYN017333   10298 58006EQDQ01+099373APOSP 
0146821980999991984033112004-01683-045367FM-12+000899999V0200901N00311045001CN0100001N9+02491+02401100851ADDAA124000691AA299000591AG10999AY161061GF107991041071008001021001KA1240N+02351MA1999999100331MD1999999-0191MW1171REMSYN023333   20235 59019 69964
0116821980999991984033118004-01683-045367FM-12+000899999V0200901N00461045001CN0100001N9+02601+02391100561ADDAA106002091AG10999AY161061GF106991031051012501061001MA1999999100051MD1999999-0161MW1021REMSYN017333   59016 60021
0148821980999991984040100004-01683-045367FM-12+000899999V0200501N001019999999N0040001N9+02541+02361100741ADDAA106000091AG10999AY101061GF105991999021008001001001KA1240M+02861MA1999999100221MD1999999-0151MW1021REMSYN017333   10286 59015EQDQ01+000032SCOTLC
0135821980999991984040112004-01683-045367FM-12+000899999V0200501N00211045001CN0100001N9+02551+02401100991ADDAA124021091AG10999AY161061GF106991041021008001061001KA1240N+02291MA1999999100471MD1999999+0141MW1021REMSYN023333   20229 58014 60214
0110821980999991984040118004-01683-045367FM-12+000899999V0200901N00261105001CN0100001N9+02741+02191100611ADDAA106000091AG10999AY101061GF105991041001017501031021MA1999999100101MD1999999-0051MW1021REMSYN011333   59005
0135821980999991984040212004-01683-045367FM-12+000899999V0209991C00001012001CN0100001N9+02491+02381101021ADDAA124020091AG10999AY161061GF108991061051012501061001KA1240N+02281MA1999999100501MD1999999+0031MW1021REMSYN023333   20228 58003 60204
0110821980999991984040218004-01683-045367FM-12+000899999V0203601N00261012001CN0100001N9+02761+02381100711ADDAA106000091AG10999AY101061GF106991061021012501001001MA1999999100201MD1999999+0101MW1021REMSYN011333   58010
0129821980999991984040300004-01683-045367FM-12+000899999V0203601N00101045001CN0040001N9+02431+02301100921ADDAA106000091AG10999AY101061GF106991041051012501031001KA1240M+02841MA1999999100411MD1999999+0031MW1021REMSYN017333   10284 58003
0124821980999991984040312004-01683-045367FM-12+000899999V0202701N00051012001CN0100001N9+02341+02311101021ADDAG10999AY161061GF108991061051012501021999KA1240N+02211MA1999999100501MD1410001+0001MW1031REMSYN023333   20221 58000 601/4
0135821980999991984040400004-01683-045367FM-12+000899999V0201801N00051045001CN0040001N9+02411+02391100911ADDAA106009091AG10999AY161061GF106991041051008001061001KA1240M+03011MA1999999100331MD1999999-0021MW1921REMSYN023333   10301 59002 60091
0135821980999991984040412004-01683-045367FM-12+000899999V0200901N00151045001CN0100001N9+02501+02411101021ADDAA124011091AG10999AY161061GF108991041031012501011001KA1240N+02291MA1999999100491MD1999999-0011MW1031REMSYN023333   20229 59001 60114
0135821980999991984040418004-01683-045367FM-12+000899999V0200901N00151045001CN0100001N9+02741+02301100731ADDAA106000191AG10999AY151061GF108991031061012501041999MA1999999100221MD1999999+0151MW1021REMSYN017333   58015 69911EQDQ01+999990APOSP 
0135821980999991984040512004-01683-045367FM-12+000899999V0202701N00151012001CN0100001N9+02571+02421101071ADDAA124010091AG10999AY161061GF108991061051012501011001KA1240N+02301MA1999999100551MD1999999+0061MW1021REMSYN023333   20230 58006 60104
0148821980999991984040600004-01683-045367FM-12+000899999V0203201N00211012001CN0040001N9+02411+02321100911ADDAA106000091AG10999AY101061GF108991999071012501021999KA1240M+02821MA1999999100391MD1999999-0061MW1021REMSYN017333   10282 59006EQDQ01+000082SCOTLC
0135821980999991984040612004-01683-045367FM-12+000899999V0200901N00211045001CN0100001N9+02601+02371101021ADDAA124029091AG10999AY161061GF106991041011008001011001KA1240N+02301MA1999999100501MD1999999-0051MW1011REMSYN023333   20230 59005 60294
0145821980999991984040618004-01683-045367FM-12+000899999V0200901N00361105001CN0100001N9+02961+02401100681ADDAA106000091AG10999AY101061GF105991021021012501061011MA1999999100171MD1999999-0031MW1021REMSYN011333   59003EQDQ01+080173APOSP Q02+999990APOSP 
0135821980999991984040700004-01683-045367FM-12+000899999V0203601N00101045001CN0040001N9+02401+02271101061ADDAA106003091AG10999AY161061GF106991041051012501021001KA1240M+02971MA1999999100541MD1999999+0151MW1021REMSYN023333   10297 58015 60031
0129821980999991984040712004-01683-045367FM-12+000899999V0200901N00101045001CN0100001N9+02711+02471100941ADDAA106000091AG10999AY101061GF105991031021008001031001KA1240N+02271MA1999999100521MD1999999+0021MW1021REMSYN017333   20227 58002
0116821980999991984040718004-01683-045367FM-12+000899999V0201401N00151045001CN0100001N9+02481+02411100761ADDAA106007091AG10999AY161061GF106991031051012501021001MA1999999100251MD1999999+0081MW1031REMSYN017333   58008 60071
0135821980999991984040812004-01683-045367FM-12+000899999V0209991C00001012001CN0040001N9+02321+02291101181ADDAA124021091AG10999AY161061GF108991081001012501021999KA1240N+02271MA1999999100661MD1999999+0141MW1911REMSYN023333   20227 58014 60214
0116821980999991984040818004-01683-045367FM-12+000899999V0203201N00051045001CN0100001N9+02741+02451100841ADDAA106002091AG10999AY161061GF105991031021012501061021MA1999999100331MD1999999+0081MW1011REMSYN017333   58008 60021
0129821980999991984040900004-01683-045367FM-12+000899999V0203601N00311045001CN0040001N9+02401+02281101121ADDAA106000091AG10999AY101061GF106991031051012501041001KA1240M+02841MA1999999100601MD1999999+0121MW1021REMSYN017333   10284 58012
0154821980999991984040912004-01683-045367FM-12+000899999V0209991C00001012001CN0100001N9+02401+02301999999ADDAA124002091AG10999AY101061GF108991061051012501061001KA1240N+02251MA1999999100621MD1999999-0041MW1021REMSYN023333   20225 59004 60024EQDQ01 097143APOSLP
0135821980999991984040918004-01683-045367FM-12+000899999V0200901N00051012001CN0100001N9+02301+02281100922ADDAA106002091AG10999AY161061GF108991051011012501021999MA1999999100411MD1999999+0081MW1511REMSYN017333   58008 60021EQDQ01+100923APOSLP
0135821980999991984041012004-01683-045367FM-12+000899999V0200901N00101220001CN0100001N9+02711+02371101031ADDAA124002091AG10999AY101061GF102991021011008001001001KA1240N+02151MA1999999100511MD1999999-0111MW1021REMSYN023333   20215 59011 60024
0116821980999991984041018004-01683-045367FM-12+000899999V0201401N00151012001CN0100001N9+02441+02251100781ADDAA106000191AG10999AY151061GF106991051021012501041001MA1999999100271MD1999999-0141MW1031REMSYN017333   59014 69911
0154821980999991984041100004-01683-045367FM-12+000899999V0201801N001519999999N0040001N9+02301+02251101051ADDAA106008091AG10999AY161061GF105991999021012501001001KA1240M+03031MA1999999100531MD1999999+0031MW1021REMSYN023333   10303 58003 60081EQDQ01+000032SCOTLC
0135821980999991984041112004-01683-045367FM-12+000899999V0201801N00151045001CN0100001N9+02491+02401101141ADDAA124013091AG10999AY161061GF106991031031008001011001KA1240N+02241MA1999999100621MD1999999+0181MW1031REMSYN023333   20224 58018 60134
0116821980999991984041118004-01683-045367FM-12+000899999V0200501N00411045001CN0100001N9+02881+02321100771ADDAA106004091AG10999AY161061GF105991031021012501061001MA1999999100261MD1999999-0011MW1011REMSYN017333   59001 60041
0135821980999991984041200004-01683-045367FM-12+000899999V0200901N00151045001CN0040001N9+02411+02351101051ADDAA106014091AG10999AY121061GF105991021021008001061001KA1240M+02941MA1999999100531MD1410001+0001MW1011REMSYN023333   10294 58000 60141
0135821980999991984041212004-01683-045367FM-12+000899999V0200501N00151105001CN0100001N9+02651+02431101051ADDAA124025091AG10999AY161061GF105991021081012501041041KA1240N+02271MA1999999100531MD1999999-0091MW1021REMSYN023333   20227 59009 60254
0116821980999991984041218004-01683-045367FM-12+000899999V0201401N00311045001CN0040001N9+02391+02291100741ADDAA106006091AG10999AY161061GF106991041071008001021001MA1999999100221MD1999999-0041MW1911REMSYN017333   59004 60061
0135821980999991984041312004-01683-045367FM-12+000899999V0209991C00001045001CN0100001N9+02351+02311101051ADDAA124029091AG10999AY161061GF106991041021012501011001KA1240N+02191MA1999999100531MD1410001+0001MW1021REMSYN023333   20219 58000 60294
0110821980999991984041318004-01683-045367FM-12+000899999V0200501N00411105001CN0100001N9+02851+02331100631ADDAA106000091AG10999AY101061GF106991021021008001041041MA1999999100101MD1999999-0101MW1021REMSYN011333   59010
0135821980999991984041400004-01683-045367FM-12+000899999V0200901N00311045001CN0040001N9+02421+02321100961ADDAA106004091AG10999AY161061GF106991021021008001061001KA1240M+03011MA1999999100441MD1999999+0051MW1021REMSYN023333   10301 58005 60041
0135821980999991984041412004-01683-045367FM-12+000899999V0209991C00001045001CN0100001N9+02781+02501100921ADDAA124006091AG10999AY161061GF107991031021008001041011KA1240N+02321MA1999999100401MD1999999-0131MW1021REMSYN023333   20232 59013 60064
0116821980999991984041418004-01683-045367FM-12+000899999V0200501N00311105001CN0100001N9+02741+02401100591ADDAA106004091AG10999AY161061GF106991021021008001041041MA1999999100081MD1999999-0041MW1021REMSYN017333   59004 60041
0135821980999991984041500004-01683-045367FM-12+000899999V0209991C00001045001CN0040001N9+02421+02391100811ADDAA106006091AG10999AY161061GF106991041031008001061001KA1240M+02991MA1999999100291MD1999999-0151MW1021REMSYN023333   10299 59015 60061
0127821980999991984041518004-01683-045367FM-12+000899999V0201401N00101105001CN0100001N9+02781+02381100621ADDAA106000691AA299000591AG10999AY161061GF105991021011012501041041MA1999999100111MD1999999+0031MW1011REMSYN017333   58003 69961
0129821980999991984041600004-01683-045367FM-12+000899999V0209991C00001220001CN0040001N9+02451+02361100891ADDAA106000091AG10999AY101061GF103991011011008001031011KA1240M+02801MA1999999100371MD1999999+0081MW1021REMSYN017333   10280 58008
0146821980999991984041612004-01683-045367FM-12+000899999V0201801N00151220001CN0100001N9+02701+02461100931ADDAA124000691AA299000591AG10999AY101061GF106991031021008001001011KA1240N+02361MA1999999100411MD1999999-0111MW1021REMSYN023333   20236 59011 69964
0116821980999991984041618004-01683-045367FM-12+000899999V0200901N00211045001CN0100001N9+02551+02441100631ADDAA106004091AG10999AY161061GF107991041081012501061001MA1999999100121MD1999999+0011MW1171REMSYN017333   58001 60041
0135821980999991984041712004-01683-045367FM-12+000899999V0209991C00001045001CN0100001N9+02721+02481099961ADDAA124005091AG10999AY161061GF106991021021008001041091KA1240N+02321MA1999999100441MD1999999+0031MW1031REMSYN023333   20232 58003 60054
0116821980999991984041718004-01683-045367FM-12+000899999V0200501N00151105001CN0100001N9+02581+02381100611ADDAA106006091AG10999AY161061GF106991021021008001041061MA1999999100091MD1999999-0091MW1021REMSYN017333   59009 60061
0146821980999991984041800004-01683-045367FM-12+000899999V0203201N001019999999N0040001N9+02451+02431100871ADDAA106000891AA299001091AG10999AY161061GF106991061001012501061001KA1240M+02851MA1999999100351MD1999999+0161MW1021REMSYN023333   10285 58016 69981
0135821980999991984041812004-01683-045367FM-12+000899999V0209991C00001045001CN0100001N9+99999+99999101071ADDAA124007091AG10999AY101061GF108991041031012501041001KA1240N+02281MA1999999100451MD1999999+0111MW1021REMSYN023333   20228 58011 60074
0110821980999991984041818004-01683-045367FM-12+000899999V0200501N00211007501CN0100001N9+02831+02441100761ADDAA106000091AG10999AY101061GF106991051051008001041061MA1999999100241MD1999999+0151MW1021REMSYN011333   58015
0135821980999991984041912004-01683-045367FM-12+000899999V0209991C00001045001CN0100001N9+02621+02571101101ADDAA124004091AG10999AY161061GF106991041021008001061001KA1240N+02251MA1999999100581MD1999999+0031MW1021REMSYN023333   20225 58003 60044
0110821980999991984041918004-01683-045367FM-12+000899999V0200901N00311220001CN0100001N9+03021+02261100671ADDAA106000091AG10999AY101061GF104991021021012501001999MA1999999100161MD1999999-0081MW1021REMSYN011333   59008
0129821980999991984042000004-01683-045367FM-12+000899999V0200501N00101220001CN0040001N9+02521+02351100961ADDAA106000091AG10999AY101061GF100991001001999999001001KA1240M+03051MA1999999100461MD1999999+0081MW1021REMSYN017333   10305 58008
0135821980999991984042012004-01683-045367FM-12+000899999V0202301N00151045001CN0100001N9+02551+02381101061ADDAA124007091AG10999AY161061GF106991031021012501061001KA1240N+02251MA1999999100551MD1999999-0031MW1031REMSYN023333   20225 59003 60074
0127821980999991984042018004-01683-045367FM-12+000899999V0202601N00151045001CN0100001N9+02541+02311100681ADDAA106000991AA299001091AG10999AY161061GF108991041051012501041021MA1999999100171MD1999999+0011MW1511REMSYN017333   58001 69991
0135821980999991984042112004-01683-045367FM-12+000899999V0201401N00151012001CN0040001N9+02371+02281101151ADDAA124018091AG10999AY161061GF108991081001012501021999KA1240N+02251MA1999999100631MD1999999+0081MW1511REMSYN023333   20225 58008 60184
0127821980999991984042118004-01683-045367FM-12+000899999V0200901N00101105001CN0100001N9+02891+02351100591ADDAA106000791AA299001091AG10999AY161061GF105991021021012501061011MA1999999100081MD1999999-0091MW1011REMSYN017333   59009 69971
0146821980999991984042200004-01683-045367FM-12+000899999V0202701N00101045001CN0040001N9+02511+02401100841ADDAA106000491AA299000591AG10999AY161061GF106991031051012501021001KA1240M+02971MA1999999100321MD1999999-0031MW1021REMSYN023333   10297 59003 69941
0135821980999991984042212004-01683-045367FM-12+000899999V0200901N00151012001CN0100001N9+02821+02441100961ADDAA124006091AG10999AY161061GF105991051021012501001001KA1240N+02281MA1999999100451MD1999999-0181MW1021REMSYN023333   20228 59018 60064
0116821980999991984042218004-01683-045367FM-12+000899999V0200901N00151045001CN0100001N9+02571+02381100681ADDAA106004091AG10999AY161061GF106991031051012501041001MA1999999100171MD1999999+0091MW1031REMSYN017333   58009 60041
0129821980999991984042300004-01683-045367FM-12+000899999V0203201N00151220001CN0040001N9+02491+02311100841ADDAA106000091AG10999AY101061GF104991041001012501061061KA1240M+02901MA1999999100331MD1999999-0011MW1021REMSYN017333   10290 59001
0135821980999991984042312004-01683-045367FM-12+000899999V0209991C00001045001CN0100001N9+02441+02391101121ADDAA124013091AG10999AY161061GF108991031071012501011999KA1240N+02281MA1999999100601MD1999999+0151MW1021REMSYN023333   20228 58015 60134
0116821980999991984042318004-01683-045367FM-12+000899999V0200501N00311220001CN0100001N9+02911+02431100741ADDAA106001091AG10999AY161061GF105991031021012501001011MA1999999100231MD1999999+0061MW1011REMSYN017333   58006 60011
0137821980999991984042400004-01683-045367FM-12+000899999V0200901N00261220001CN0040001N9+02581+02321101542ADDAG10999AY101061GF100991001001999999001001KA1240M+02971MA1999999100531MD1999999+0301MW1021REMSYN017333   10297 58030EQDQ01+101543APOSLP
0135821980999991984042412004-01683-045367FM-12+000899999V0201401N00261220001CN0100001N9+02901+02481101051ADDAA124001091AG10999AY101061GF105991031021012501001011KA1240N+02271MA1999999100541MD1999999-0061MW1021REMSYN023333   20227 59006 60014
0110821980999991984042418004-01683-045367FM-12+000899999V0200501N00411045001CN0100001N9+02761+02421100771ADDAA106000091AG10999AY101061GF106991041021012501061001MA1999999100261MD1999999+0031MW1021REMSYN011333   58003
0148821980999991984042500004-01683-045367FM-12+000899999V0200901N002119999999N0100001N9+02581+02381101021ADDAA106000091AG10999AY101061GF105991999001012501061001KA1240M+03101MA1999999100511MD1999999-0021MW1021REMSYN017333   10310 59002EQDQ01+000032SCOTLC
0129821980999991984042512004-01683-045367FM-12+000899999V0201401N00211045001CN0100001N9+02841+02521101511ADDAA106000091AG10999AY101061GF106991031021012501051021KA1240N+02321MA1999999100541MD1410001+0001MW1021REMSYN017333   20232 58000
0151821980999991984042518004-01683-045367FM-12+000899999V0201801N00411012001CN0100001N9+02421+02331100692ADDAA106013091AG10999AY161061GF108991051051012501021999MA1999999100171MD1999999-0091MW1511REMSYN017333   59009 60131EQDQ01+999990APOSLPQ02+100693APOSLP
0135821980999991984042600004-01683-045367FM-12+000899999V0200301N00151220001CN0040001N9+02381+02311100951ADDAA106004091AG10999AY161061GF104991021021012501041001KA1240M+03061MA1999999100441MD1999999-0071MW1011REMSYN023333   10306 59007 60041
0135821980999991984042612004-01683-045367FM-12+000899999V0209991C00001045001CN0100001N9+99999+99999101031ADDAA124017091AG10999AY161061GF108991031081008001041041KA1240N+02251MA1999999100511MD1999999-0031MW1031REMSYN023333   20225 59003 60174
0110821980999991984042618004-01683-045367FM-12+000899999V0200901N00211105001CN0100001N9+02911+02341100571ADDAA106000091AG10999AY101061GF105991021021012501061021MA1999999100061MD1999999-0111MW1021REMSYN011333   59011
0129821980999991984042712004-01683-045367FM-12+000899999V0200901N00151045001CN0100001N9+02791+02441100961ADDAA106000091AG10999AY101061GF107991031021008001031001KA1240N+02251MA1999999100441MD1999999-0071MW1021REMSYN017333   20225 59007
0135821980999991984042812004-01683-045367FM-12+000899999V0202301N00151007501CN0040001N9+02361+02231101141ADDAA199024091AG10999AY161061GF108991061071008001021999KA1240N+02211MA1999999100621MD1999999+0141MW1921REMSYN023333   20221 58014 60240
0116821980999991984042818004-01683-045367FM-12+000899999V0200501N00151012001CN0100001N9+02541+02411100821ADDAA106016091AG10999AY161061GF108991061021012501041999MA1999999100311MD1999999+0091MW1021REMSYN017333   58009 60161
0129821980999991984042900004-01683-045367FM-12+000899999V0203201N001019999999N0040001N9+02451+02391101081ADDAA106000091AG10999AY101061GF105991051001008001061001KA1240M+02621MA1999999100561MD1999999+0121MW1021REMSYN017333   10262 58012
0116821980999991984042918004-01683-045367FM-12+000899999V0200501N00101045001CN0100001N9+02331+02311100931ADDAA106017091AG10999AY161061GF106991041071012501021001MA1999999100411MD1999999+0101MW1021REMSYN017333   58010 60171
0135821980999991984043000004-01683-045367FM-12+000899999V0209991C00001045001CN0100001N9+02401+02381101181ADDAA124027091AG10999AY161061GF106991041071012501021001KA1240N+02251MA1999999100661MD1999999-0021MW1021REMSYN023333   20225 59002 60274
0135821980999991984043012004-01683-045367FM-12+000899999V0209991C00001045001CN0100001N9+02401+02381101181ADDAA124027091AG10999AY161061GF106991041071012501021001KA1240N+02251MA1999999100661MD1999999-0021MW1021REMSYN023333   20225 59002 60274
0110821980999991984043018004-01683-045367FM-12+000899999V0201401N00101045001CN0100001N9+03011+02171100791ADDAA106000091AG10999AY101061GF106991041021012501061021MA1999999100281MD1999999-0131MW1021REMSYN011333   59013
0076821980999991984050100004-01683-045367FM-12+000899999V0200901N00151220001CN0040001N9+02471+02361101061ADDAA106000091AG10999AY101061GF101991999999999999999999MA1999999100551MW1021
0129821980999991984050112004-01683-045367FM-12+000899999V0209991C00001045001CN0100001N9+02521+02491101181ADDAA106000091AG10999AY101061GF107991041081012501041001KA1240N+02291MA1999999100661MD1410001+0001MW1021REMSYN017333   20229 58000
0116821980999991984050118004-01683-045367FM-12+000899999V0200501N00571012001CN0040001N9+02581+02441100891ADDAA106025091AG10999AY161061GF108991051051012501021999MA1999999100371MD1999999+0091MW1021REMSYN017333   58009 60251
0122821980999991984050200004-01683-045367FM-12+000899999V0203201N00101045001CN0040001N9+02441+02371101121ADDAA199013091AG10999AY161061GF105991021021008001061001MA1999999100601MD1999999+0781MW1011REMSYN023333   58078 58005 60130
0110821980999991984050218004-01683-045367FM-12+000899999V0200901N00311012001CN0100001N9+02841+02261100841ADDAA106000091AG10999AY101061GF106991051021012501061001MA1999999100331MD1999999-0041MW1021REMSYN011333   59004
0129821980999991984050300004-01683-045367FM-12+000899999V0203601N00101220001CN0040001N9+02491+02341101011ADDAA106000091AG10999AY101061GF100991001001999999001001KA1240M+02891MA1999999100501MD1999999-0101MW1021REMSYN017333   10289 59010
0135821980999991984050312004-01683-045367FM-12+000899999V0200701N00931045001CN0100001N9+02491+02471101551ADDAA124001091AG10999AY161061GF107991041031008001061001KA1240N+02261MA1999999100701MD1999999-0051MW1031REMSYN023333   20226 59005 60014
0116821980999991984050318004-01683-045367FM-12+000899999V0201401N00211045001CN0100001N9+02481+02301100911ADDAA106010091AG10999AY161061GF108991031011012501021999MA1999999100401MD1999999-0071MW1021REMSYN017333   59007 60101
0135821980999991984050412004-01683-045367FM-12+000899999V0200901N00101105001CN0100001N9+02531+02331101091ADDAA124010091AG10999AY161061GF105991021011012501031041KA1240N+02221MA1999999100571MD1999999-0131MW1021REMSYN023333   20222 59013 60104
0110821980999991984050418004-01683-045367FM-12+000899999V0200901N00361045001CN0100001N9+02951+02261100791ADDAA106000091AG10999AY101061GF105991031021012501061001MA1999999100281MD1999999-0121MW1021REMSYN011333   59012
0129821980999991984050500004-01683-045367FM-12+000899999V0200501N00151220001CN0020001N9+02461+02311101071ADDAA106000091AG10999AY101061GF102991999999999999999999KA1240M+02991MA1999999100551MD1999999-0011MW1021REMSYN017333   10299 59001
0129821980999991984050512004-01683-045367FM-12+000899999V0200501N00101105001CN0100001N9+02811+02381101051ADDAA106000091AG10999AY101061GF105991021021008001031011KA1240N+02241MA1999999099531MD1999999-0041MW1021REMSYN017333   20224 59004
0110821980999991984050518004-01683-045367FM-12+000899999V0200501N00261045001CN0100001N9+02851+02381100681ADDAA106000091AG10999AY101061GF106991031021012501061001MA1999999100171MD1999999-0111MW1021REMSYN011333   59011
0145821980999991984050600004-01683-045367FM-12+000899999V0200601N00261220001CN0040001N9+02521+02411999999ADDAA106000091AG10999AY101061GF104991041001012501061001MA1999999100411MD1999999-0121MW1021REMSYN011333   59012EQDQ01+095423APOSLPQ02 095423APOSLP
0135821980999991984050612004-01683-045367FM-12+000899999V0201401N00151045001CN0100001N9+02661+02411101011ADDAA124008091AG10999AY161061GF106991041011012501031001KA1240N+02231MA1999999100491MD1999999-0041MW1031REMSYN023333   20223 59004 60084
0116821980999991984050618004-01683-045367FM-12+000899999V0201801N00211220001CN0100001N9+02941+02311100631ADDAA106020091AG10999AY161061GF105991041021012501001011MA1999999100121MD1999999-0051MW1011REMSYN017333   59005 60201
0148821980999991984050700004-01683-045367FM-12+000899999V0200201N00211220001CN0040001N9+02501+02361100881ADDAA106000091AG10999AY101061GF102991021001012501061001KA1240M+99999MA1999999100371MD1999999-0041MW1021REMSYN017333   10225 59004EQDQ01 +02252ATMX  
0135821980999991984050712004-01683-045367FM-12+000899999V0200501N00211220001CN0100001N9+02821+02501101001ADDAA124020091AG10999AY101061GF103991011021008001041001KA1240N+02341MA1999999100481MD1999999-0011MW1021REMSYN023333   20234 59001 60204
0116821980999991984050718004-01683-045367FM-12+000899999V0201401N00211045001CN0100001N9+02541+02441100711ADDAA106012091AG10999AY161061GF108991041051012501021999MA1999999100201MD1999999+0081MW1031REMSYN017333   58008 60121
0116821980999991984050800004-01683-045367FM-12+000899999V0200501N00051007501CN0040001N9+02421+02371101011ADDAA106003091AG10999AY161061GF106991061021008001061001MA1999999100491MD1999999+0121MW1011REMSYN017333   58012 60031
0135821980999991984050812004-01683-045367FM-12+000899999V0209991C00001045001CN0100001N9+02421+02391101131ADDAA124024091AG10999AY161061GF106991041081012501021001KA1240N+02281MA1999999100611MD1999999+0131MW1581REMSYN023333   20228 58013 60244
0148821980999991984050900004-01683-045367FM-12+000899999V0200501N00151220001CN0040001N9+02441+02351101041ADDAA106000091AG10999AY101061GF103991031001012501061001KA1240N+99999MA1999999100531MD1999999+0041MW1021REMSYN017333   20300 58004EQDQ01 +03002ATMN  
0135821980999991984050912004-01683-045367FM-12+000899999V0201401N00151220001CN0100001N9+02651+02461101091ADDAA124007091AG10999AY101061GF104991011021008001041091KA1240N+02241MA1999999100571MD1999999-0041MW1021REMSYN023333   20224 59004 60074
0116821980999991984050918004-01683-045367FM-12+000899999V0201401N00151045001CN0100001N9+02671+02291100841ADDAA106003091AG10999AY161061GF108991031021012501041999MA1999999100331MD1999999+0061MW1031REMSYN017333   58006 60031
0135821980999991984051012004-01683-045367FM-12+000899999V0202701N00101012001CN0100001N9+02421+02391100991ADDAA124007091AG10999AY161061GF107991051071012501021001KA1240N+02321MA1999999100471MD1999999-0101MW1031REMSYN023333   20232 59010 60074
0110821980999991984051018004-01683-045367FM-12+000899999V0201801N00051045001CN0100001N9+02861+02371100561ADDAA106000091AG10999AY101061GF108991041021012501041999MA1999999100051MD1999999-0281MW1021REMSYN011333   59028
0135821980999991984051100004-01683-045367FM-12+000899999V0200501N00101045001CN0040001N9+02421+02291100821ADDAA106027091AG10999AY161061GF108991041051012501021999KA1240M+02791MA1999999100311MD1999999-0081MW1501REMSYN023333   10279 59008 60271
0135821980999991984051112004-01683-045367FM-12+000899999V0203201N00211045001CN0100001N9+02481+02391100871ADDAA124034091AG10999AY161061GF106991041021008001031001KA1240N+02261MA1999999100351MD1999999-0121MW1011REMSYN023333   20226 59012 60344
0116821980999991984051118004-01683-045367FM-12+000899999V0202301N00051012001CN0100001N9+02361+02281100591ADDAA106001091AG10999AY161061GF108991061051012501021999MA1999999100081MD1999999+0031MW1531REMSYN017333   58003 60011
0146821980999991984051200004-01683-045367FM-12+000899999V0203201N000519999999N0040001N9+02331+02301101181ADDAA106000891AA299001091AG10999AY161061GF106991061001012501061001KA1240M+02831MA1999999100341MD1999999+0031MW1011REMSYN023333   10283 58003 69981
0110821980999991984051218004-01683-045367FM-12+000899999V0200901N00311045001CN0100001N9+02681+02411100651ADDAA106000091AG10999AY101061GF108991031021012501041999MA1999999100171MD1999999+0061MW1021REMSYN011333   58006
0135821980999991984051300004-01683-045367FM-12+000899999V0203201N00151045001CN0040001N9+02461+02361100881ADDAA106004091AG10999AY161061GF105991031011012501031001KA1240M+03051MA1999999100361MD1999999+0021MW1011REMSYN023333   10305 58002 60041
0135821980999991984051312004-01683-045367FM-12+000899999V0200501N00151012001CN0040001N9+02361+02331101111ADDAA124032091AG10999AY161061GF108991081001012501021999KA1240N+02241MA1999999100591MD1999999+0251MW1911REMSYN023333   20224 58025 60324
0116821980999991984051318004-01683-045367FM-12+000899999V0200501N00311045001CN0100001N9+02861+02771100741ADDAA106003091AG10999AY161061GF106991041021012501041999MA1999999100231MD1999999+0091MW1011REMSYN017333   58009 60031
0129821980999991984051400004-01683-045367FM-12+000899999V0200901N002119999999N0100001N9+02511+02381101011ADDAA106000091AG10999AY101061GF105991031001008001061011KA1240M+02851MA1999999100491MD1999999+0131MW1021REMSYN017333   10285 58013
0135821980999991984051412004-01683-045367FM-12+000899999V0201401N00211220001CN0100001N9+02581+02441100971ADDAA124003091AG10999AY101061GF103991011021012501041021KA1240N+02301MA1999999100451MD1999999-0141MW1021REMSYN023333   20230 59014 60034
0116821980999991984051418004-01683-045367FM-12+000899999V0200901N004119999999N0100001N9+02791+02251100691ADDAA106001091AG10999AY161061GF105991031001012501041021MA1999999100181MD1999999-0051MW1031REMSYN017333   59005 60011
0148821980999991984051500004-01683-045367FM-12+000899999V0201401N00261220001CN0040001N9+02501+02321100891ADDAA106000091AG10999AY101061GF100991001001999999001001KA1240M+99999MA1999999100381MD1999999-0101MW1021REMSYN017333   10203 59010EQDQ01 +02032ATMX  
0146821980999991984051512004-01683-045367FM-12+000899999V0201801N00261220001CN0100001N9+02761+02481100901ADDAA124000891AA299001091AG10999AY101061GF103991011021008001041011KA1240N+02231MA1999999100381MD1999999-0071MW1021REMSYN023333   20223 59007 69984
0116821980999991984051518004-01683-045367FM-12+000899999V0200501N00211045001CN0100001N9+02521+02381100641ADDAA106014091AG10999AY161061GF108991041051008001041999MA1999999100131MD1999999-0051MW1031REMSYN017333   59005 60141
0146821980999991984051600004-01683-045367FM-12+000899999V0200901N00311045001CN0040001N9+02421+02321100871ADDAA106000291AA299000391AG10999AY161061GF106991041021008001061001KA1240M+03071MA1999999100351MD1999999-0031MW1011REMSYN023333   10307 59003 69921
0135821980999991984051612004-01683-045367FM-12+000899999V0200501N00151012001CN0100001N9+02371+02311101031ADDAA124055091AG10999AY161061GF108991061051012501021999KA1240N+02231MA1999999100511MD1999999+0131MW1021REMSYN023333   20223 58013 60554
0135821980999991984051618004-01683-045367FM-12+000899999V0201401N00151045001CN0100001N9+02391+02211100711ADDAA106012091AG10999AY161061GF108991041051012501041999MA1999999100191MD1999999+0061MW1021REMSYN017333   58006 60121EQDQ01+999990APOSLP
0129821980999991984051700004-01683-045367FM-12+000899999V0200901N00151045001CN0040001N9+02381+02281100861ADDAA106000091AG10999AY101061GF108991031071012501021999KA1240M+03531MA1999999100351MD1410001+0001MW1021REMSYN017333   10353 58000
0122821980999991984051712004-01683-045367FM-12+000899999V0209991C00001220001CN0100001N9+02691+02391100991ADDAA124012091AG10999AY101061GF103991011021008001031091MA1999999100471MD1999999-0041MW1021REMSYN023333   29021 59004 60124
0127821980999991984051718004-01683-045367FM-12+000899999V0200901N00101012001CN0100001N9+02431+02321100801ADDAA106000791AA299001091AG10999AY161061GF108991051071012501021999MA1999999100291MD1999999+0101MW1501REMSYN017333   58010 69971
0135821980999991984051800004-01683-045367FM-12+000899999V0201801N001519999999N0040001N9+02431+02411100991ADDAA106000591AG10999AY161061GF106991061001008001061001KA1240M+03031MA1999999100491MD1999999+0121MW1011REMSYN023333   10303 58012 69951
0135821980999991984051812004-01683-045367FM-12+000899999V0200901N00211012001CN0100001N9+02501+02471101141ADDAA124001091AG10999AY101061GF107991051031012501011001KA1240N+02261MA1999999100621MD1999999+0151MW1021REMSYN023333   20226 58015 60014
0110821980999991984051818004-01683-045367FM-12+000899999V0200501N00261012001CN0100001N9+02741+02361100861ADDAA106000091AG10999AY101061GF108991051021012501041999MA1999999100351MD1999999+0061MW1021REMSYN011333   58006
0129821980999991984051900004-01683-045367FM-12+000899999V0200501N00101220001CN0040001N9+02481+02341101051ADDAA106000091AG10999AY101061GF103991031001017501061001KA1240M+02871MA1999999100541MD1999999+0051MW1021REMSYN017333   10287 58005
0129821980999991984051912004-01683-045367FM-12+000899999V0200501N00151220001CN0100001N9+02841+02461101071ADDAA106000091AG10999AY101061GF104991021021008001001041KA1240N+02301MA1999999100551MD1999999-0051MW1021REMSYN017333   20230 59005
0076821980999991984051918004-01683-045367FM-12+000899999V0201401N00261045001CN0100001N9+02501+02291100761ADDAA106000091AG10999AY101061GF106991041021012501061001MA1999999100251MW1021
0146821980999991984052000004-01683-045367FM-12+000899999V0202701N00151220001CN0040001N9+02401+02251101001ADDAA106000791AA299001091AG10999AY151061GF100991001001999999001001KA1240M+03101MA1999999100401MD1999999+0051MW1011REMSYN023333   10310 58005 69971
0146821980999991984052012004-01683-045367FM-12+000899999V0201401N00211220001CN0100001N9+02741+02451100861ADDAA106000791AA299001091AG10999AY101061GF105991031021008001001041KA1240N+02221MA1999999100341MD1999999-0211MW1021REMSYN023333   20222 59021 69971
0110821980999991984052018004-01683-045367FM-12+000899999V0200901N00511045001CN0100001N9+02861+02391100531ADDAA106000091AG10999AY101061GF105991041021012501061001MA1999999100021MD1999999-0231MW1021REMSYN011333   59023
0135821980999991984052100004-01683-045367FM-12+000899999V0201401N00361220001CN0040001N9+02491+02411100551ADDAA106003091AG10999AY161061GF103991031001012501061001KA1240M+03091MA1999999100441MD1999999-0051MW1011REMSYN023333   10309 59005 60031
0135821980999991984052112004-01683-045367FM-12+000899999V0201401N00311220001CN0100001N9+02881+02501100911ADDAA124003091AG10999AY101061GF103991021011008001001011KA1240N+02251MA1999999100391MD1999999+0051MW1021REMSYN023333   20225 58005 60034
0116821980999991984052118004-01683-045367FM-12+000899999V0200901N00211045001CN0100001N9+02701+02481100641ADDAA106012091AG10999AY161061GF108991031021012501041999MA1999999100131MD1999999+0101MW1031REMSYN017333   58010 60121
0135821980999991984052512004-01683-045367FM-12+000899999V0201801N00101105001CN0100001N9+02491+02381100921ADDAA124009091AG10999AY101061GF105991021021001501041011KA1240N+02271MA1999999100401MD1999999+0031MW1021REMSYN023333   20227 58003 60094
0110821980999991984052518004-01683-045367FM-12+000899999V0200901N00261045001CN0100001N9+03041+02281100531ADDAA106000091AG10999AY101061GF106991041021012501061001MA1999999100021MD1999999-0091MW1021REMSYN011333   59009
0135821980999991984052600004-01683-045367FM-12+000899999V0202701N00151220001CN0040001N9+02431+02371100841ADDAA106002091AG10999AY161061GF102991011011012501041001KA1240M+03111MA1999999100331MD1999999-0101MW1131REMSYN023333   10311 59010 60021
0135821980999991984052612004-01683-045367FM-12+000899999V0201401N00151012001CN0100001N9+02441+02391100891ADDAA124002091AG10999AY101061GF107991051091012501021001KA1240N+02241MA1999999100371MD1999999-0031MW1021REMSYN023333   20224 59003 60024
0116821980999991984052618004-01683-045367FM-12+000899999V0201401N00151045001CN0100001N9+02561+02351100611ADDAA106002091AG10999AY161061GF106991031021012501041001MA1999999100101MD1999999+0081MW1021REMSYN017333   58008 60021
0129821980999991984052700004-01683-045367FM-12+000899999V0200901N00151220001CN0040001N9+02501+02401100871ADDAA106000091AG10999AY101061GF101991011011008001001001KA1240M+02911MA1999999100351MD1999999+0211MW1021REMSYN017333   10291 58021
0135821980999991984052712004-01683-045367FM-12+000899999V0200901N00151220001CN0100001N9+02801+02481100851ADDAA124002091AG10999AY101061GF103991011021008001001011KA1240N+02251MA1999999100331MD1999999-0041MW1021REMSYN023333   20225 59004 60024
0116821980999991984052718004-01683-045367FM-12+000899999V0200901N00311045001CN0100001N9+02551+02311100641ADDAA106002091AG10999AY161061GF108991041051012501021999MA1999999100131MD1999999+0031MW1031REMSYN017333   58003 60021
0135821980999991984052800004-01683-045367FM-12+000899999V0201801N00051220001CN0040001N9+02521+02421100961ADDAA106001091AG10999AY161061GF102991011011008001021001KA1240M+03031MA1999999100441MD1999999+0041MW1011REMSYN023333   10303 58004 60011
0135821980999991984052812004-01683-045367FM-12+000899999V0201801N00051220001CN0040001N9+02521+02421100961ADDAA106001091AG10999AY161061GF102991011011008001021001KA1240M+03031MA1999999100441MD1999999+0041MW1011REMSYN023333   10303 58004 60011
0127821980999991984052818004-01683-045367FM-12+000899999V0201401N00261012001CN0100001N9+02801+02441100651ADDAA106000291AA299000391AG10999AY151061GF108991051021012501061999MA1999999100141MD1999999+0011MW1021REMSYN017333   58001 69921
0154821980999991984052900004-01683-045367FM-12+000899999V0203201N00151045001CN0040001N9+02321+02271101011ADDAA106009091AG10999AY161061GF106991041051012501041001KA1240N+99999MA1999999100491MD1999999+0051MW1021REMSYN023333   20300 58005 60091EQDQ01 +03002ATMN  
0154821980999991984052912004-01683-045367FM-12+000899999V0203201N00151045001CN0040001N9+02321+02271101011ADDAA106009091AG10999AY161061GF106991041051012501041001KA1240N+99999MA1999999100491MD1999999+0051MW1021REMSYN023333   20300 58005 60091EQDQ01 +03002ATMN  
0116821980999991984052918004-01683-045367FM-12+000899999V0201801N00261220001CN0200001N9+03071+02281100731ADDAA106010091AG10999AY161061GF105991041021012501001011MA1999999100221MD1999999+0081MW1021REMSYN017333   58008 60101
0148821980999991984053000004-01683-045367FM-12+000899999V0200201N00771220001CN0200001N9+02501+99999101992ADDAA106000091AG10999AY101061GF101991999999012501999999KA1240M+03091MA1999999100581MD1999999-0011MW1021REMSYN017333   10309 59001EQDQ01+101993APOSLP
0135821980999991984053012004-01683-045367FM-12+000899999V0200901N00211105001CN0100001N9+02861+02521101011ADDAA124010091AG10999AY101061GF105991021021008001041011KA1240N+02361MA1999999100491MD1999999-0071MW1021REMSYN023333   20236 59007 60104
0127821980999991984053018004-01683-045367FM-12+000899999V0200901N00361045001CN0100001N9+02591+02381100831ADDAA106000291AA299000391AG10999AY151061GF106991041021012501041021MA1999999100321MD1999999+0101MW1021REMSYN017333   58010 69921
0129821980999991984053100004-01683-045367FM-12+000899999V0200201N00211220001CN0040001N9+02591+02421101101ADDAA106000091AG10999AY101061GF101991999999999999999999KA1240M+03091MA1999999100551MD1999999+0041MW1021REMSYN017333   10309 58004
0116821980999991984053112004-01683-045367FM-12+000899999V0201401N00151220001CN0100001N9+02591+02401101161ADDAA124002091AG10999AY161061GF104991021021008001041011MA1999999100641MD1999999+0151MW1031REMSYN017333   58015 60024
0121821980999991984053118004-01683-045367FM-12+000899999V0200501N00311045001CN0100001N9+02801+02401100861ADDAA106106091AG10999GF106991041021012501061001MA1999999100351MD1999999+0031REMSYN017333   58003 61061EQDQ01+999990APOSLP
0135821980999991984060100004-01683-045367FM-12+000899999V0201401N00151220001CN0040001N9+02481+02341101021ADDAA106008091AG10999AY161061GF100991001001999999001001KA1240M+02871MA1999999100501MD1999999-0051MW1001REMSYN023333   10287 59005 60081
0154821980999991984060112004-01683-045367FM-12+000899999V0200901N001519999999N0100001N9+02841+02461101171ADDAA124014091AG10999AY101061GF105991999021008001001001KA1240N+02381MA1999999100651MD1999999-0011MW1021REMSYN023333   20238 59001 60144EQDQ01+000032SCOTLC
0110821980999991984060118004-01683-045367FM-12+000899999V0201401N00461220001CN0100001N9+02941+02191100941ADDAA106000091AG10999AY101061GF102991011021008001001011MA1999999100421MD1999999-0071MW1021REMSYN011333   59007
0129821980999991984060200004-01683-045367FM-12+000899999V0200801N00211220001CN0040001N9+02551+02361101101ADDAA106000091AG10999AY101061GF100991001001999999001001KA1240M+03051MA1999999100591MD1999999+0091MW1021REMSYN017333   10305 58009
0146821980999991984060212004-01683-045367FM-12+000899999V0201801N00211045001CN0100001N9+02671+02461101181ADDAA124000891AA299001091AG10999AY101061GF106991041011012501061001KA1240N+02271MA1999999100661MD1999999+0011MW1021REMSYN023333   20227 58001 69984
0116821980999991984060218004-01683-045367FM-12+000899999V0202301N00101045001CN0100001N9+02481+02341100951ADDAA106018091AG10999AY161061GF106991041031012501061001MA1999999100431MD1999999+0011MW1021REMSYN017333   58001 60181
0129821980999991984060300004-01683-045367FM-12+000899999V0201801N00511220001CN0040001N9+02401+02301101201ADDAA106000091AG10999AY101061GF101991011011008001001001KA1240M+02931MA1999999100681MD1999999-0091MW1021REMSYN017333   10293 59009
0135821980999991984060312004-01683-045367FM-12+000899999V0201401N00051220001CN0100001N9+02721+02451100941ADDAA124018091AG10999AY101061GF104991021011008001031011KA1240N+02281MA1999999100521MD1999999+0141MW1021REMSYN023333   20228 58014 60184
0144821980999991984060318004-01683-045367FM-12+000899999V0201401N00411220001CN0100001N9+03101+02091100721ADDAA106000091AG10999AJ199999999999999AY101061GF102991011011008001031001IA1029MA1999999100201MW1021REMSYN017333   39912 40109EQDQ01  01092SNDP  
0129821980999991984060400004-01683-045367FM-12+000899999V0200901N00211220001CN0040001N9+02581+02351100991ADDAA106000091AG10999AY101061GF104991021021008001031001KA1240M+03111MA1999999100481MD1999999-0201MW1021REMSYN017333   10311 59020
0135821980999991984060412004-01683-045367FM-12+000899999V0200501N00101045001CN0100001N9+02491+02451101021ADDAA124003091AG10999AY161061GF106991041071012501021001KA1240N+02351MA1999999100501MD1999999-0021MW1031REMSYN023333   20235 59002 60034
0116821980999991984060418004-01683-045367FM-12+000899999V0209991C00001045001CN0100001N9+02471+02341100811ADDAA106014091AG10999AY161061GF106991041071008001021001MA1999999100391MD1999999+0091MW1021REMSYN017333   58009 60141
0129821980999991984060500004-01683-045367FM-12+000899999V0200901N00151220001CN0040001N9+02501+02381101011ADDAA106000091AG10999AY101061GF104991041001008001031001KA1240M+02941MA1999999100921MD1999999+0011MW1021REMSYN017333   10294 58001
0121821980999991984060512004-01683-045367FM-12+000899999V0201401N00261045001CN0040001N9+02491+02311101241ADDAA124021091AG10999GF106991041071012501011001KA1240N+02261MA1999999100721MD1999999+0221REMSYN023333   20226 58022 60214
0127821980999991984060518004-01683-045367FM-12+000899999V0201401N00261220001CN0100001N9+02821+02331100871ADDAA106000291AA299000391AG10999AY161061GF103991011021008001041011MA1999999100351MD1999999+0061MW1011REMSYN017333   58006 69921
0146821980999991984060612004-01683-045367FM-12+000899999V0201801N00211220001CN0100001N9+02631+02461101061ADDAA124000991AA299001091AG10999AY161061GF103991031021008001001001KA1240N+02181MA1999999100541MD1999999-0181MW1021REMSYN023333   20218 59018 69994
0110821980999991984060618004-01683-045367FM-12+000899999V0201401N00411220001CN0100001N9+02941+02331100881ADDAA106000091AG10999AY101061GF103991031021008001001001MA1999999100361MD1999999+0011MW1021REMSYN011333   58001
0076821980999991984060700004-01683-045367FM-12+000899999V0201401N00151220001CN0040001N9+02511+02381101061ADDAA106000091AG10999AY101061GF100991001001999999001001MA1999999100351MW1021
0135821980999991984060712004-01683-045367FM-12+000899999V0201801N00051045001CN0100001N9+02451+02391101151ADDAA124014091AG10999AY161061GF106991041071012501021001KA1240N+02281MA1999999100631MD1999999+0091MW1031REMSYN023333   20228 58009 60144
0127821980999991984060718004-01683-045367FM-12+000899999V0200901N00571045001CN0100001N9+02501+02321100891ADDAA106000291AA299000391AG10999AY161061GF106991041071012501021001MA1999999100371MD1999999+0011MW1061REMSYN017333   58001 69921
0135821980999991984060812004-01683-045367FM-12+000899999V0200901N00211045001CN0100001N9+02601+02391101081ADDAA124003091AG10999AY161061GF105991031021008001031001KA1240N+02241MA1999999100561MD1999999-0071MW1021REMSYN023333   20224 59007 60034
0116821980999991984060818004-01683-045367FM-12+000899999V0201401N00511045001CN0100001N9+02451+02361100751ADDAA106009091AG10999AY161061GF105991031021008001031001MA1999999100231MD1999999-0141MW1021REMSYN017333   59014 60091
0129821980999991984060900004-01683-045367FM-12+000899999V0202701N00051220001CN0040001N9+02421+02321100981ADDAA106000091AG10999AY101061GF100991001001999999001001KA1240M+02951MA1999999100461MD1999999-0091MW1021REMSYN017333   10295 59009
0135821980999991984060912004-01683-045367FM-12+000899999V0200901N00151220001CN0100001N9+02741+02451101031ADDAA124009091AG10999AY101061GF103991031021008001001001KA1240N+02161MA1999999100511MD1999999-0051MW1021REMSYN023333   20216 59005 60094
0121821980999991984061000004-01683-045367FM-12+000899999V0200901N00311220001CN0040001N9+02331+02271101001ADDAA106006091AG10999GF104991041001012501031001KA1240M+03021MA1999999100481MD1999999+0021REMSYN023333   10302 58002 60061
0122821980999991984061012004-01683-045367FM-12+000899999V0200901N00261007501CN0100001N9+02821+02461101081ADDAA124030091AG10999AY101061GF105991051021008001001001MA1999999100561MD1999999+0051MW1021REMSYN023333   20/28 58005 60304
0116821980999991984061018004-01683-045367FM-12+000899999V0200501N00361045001CN0100001N9+02631+02501100741ADDAA106001091AG10999AY161061GF106991031021008001031001MA1999999100551MD1999999-0131MW1021REMSYN017333   59013 60011
0129821980999991984061100004-01683-045367FM-12+000899999V0200901N003119999999N0040001N9+02611+02571101061ADDAA106000091AG10999AY101061GF105991051001008001031001KA1240M+03071MA1999999100541MD1999999+0061MW1021REMSYN017333   10307 58006
0135821980999991984061112004-01683-045367FM-12+000899999V0200901N00461220001CN0100001N9+02791+02401101031ADDAA124001091AG10999AY101061GF104991021021008001031001KA1240N+02541MA1999999100511MD1999999-0051MW1021REMSYN023333   20254 59005 60014
0110821980999991984061118004-01683-045367FM-12+000899999V0200901N00621220001CN0100001N9+02951+02281100771ADDAA106000091AG10999AY101061GF103991031021008001001001MA1999999100261MD1999999+0041MW1021REMSYN011333   58004
0129821980999991984061212004-01683-045367FM-12+000899999V0200501N00311220001CN0100001N9+02761+02421101201ADDAA106000091AG10999AY101061GF104991021021008001031001KA1240N+02401MA1999999100681MD1999999+0171MW1021REMSYN017333   20240 58017
0110821980999991984061218004-01683-045367FM-12+000899999V0200901N00461220001CN0100001N9+03031+02281100781ADDAA106000091AG10999AY101061GF104991011021008001041011MA1999999100261MD1999999+0011MW1021REMSYN011333   58001
0129821980999991984061300004-01683-045367FM-12+000899999V0200501N00211220001CN0040001N9+02551+02351100981ADDAA106000091AG10999AY101061GF102991021001012501031001KA1240M+03901MA1999999100471MD1999999-0091MW1021REMSYN017333   10390 59009
0164821980999991984061312004-01683-045367FM-12+000899999V0200501N003119999999N0100001N9+02781+02381101031ADDAA106000091AG10999AY101061GF105991999021008001001001KA1240N+99999MA1999999100511MD1999999-0171MW1021REMSYN017333   20325 59017EQDQ01+000032SCOTLCQ02 +03252ATMN  
0116821980999991984061318004-01683-045367FM-12+000899999V0200901N00151007501CN0100001N9+02621+02411100741ADDAA106008091AG10999AY161061GF105991051021008001001001MA1999999100221MD1999999-0051MW1031REMSYN017333   59005 60081
0129821980999991984061400004-01683-045367FM-12+000899999V0200501N00211105001CN0040001N9+02561+02331100911ADDAA106000091AG10999AY101061GF106991021021008001041041KA1240M+02991MA1999999100391MD1999999-0081MW1021REMSYN017333   10299 59008
0132821980999991984061410004-01683-045367FM-12+000899999V0200501N00361105001CN0100001N9+02901+02481999999ADDAA124000891AA299001091AG10999GF105991021021008001041011MA1999999100241MD1999999+0021REMSYN017333   58002 69984EQDQ01 097763APOSLP
0154821980999991984061412004-01683-045367FM-12+000899999V0200901N00311007501CN0100001N9+02641+02401100972ADDAA124008091AG10999AY101061GF106991061021008001001001KA1240N+02381MA1999999100461MD1999999-0051MW1021REMSYN023333   20238 59005 60084EQDQ01+100973APOSLP
0127821980999991984061418004-01683-045367FM-12+000899999V0200501N00361105001CN0100001N9+02901+02481100761ADDAA124000891AA299001091AG10999AY161061GF105991021021008001041011MA1999999100241MD1999999+0021MW1011REMSYN017333   58002 69984
0129821980999991984061500004-01683-045367FM-12+000899999V0200901N00151220001CN0040001N9+02541+02361100971ADDAA106000091AG10999AY101061GF103991021001012501041011KA1240M+02991MA1999999100461MD1999999-0071MW1021REMSYN017333   10299 59007
0146821980999991984061512004-01683-045367FM-12+000899999V0201401N00211045001CN0040001N9+02761+02421101171ADDAA106000091AA224000891AG10999AY101061GF106991041011008001031001KA1240N+02371MA1999999100651MD1999999+0191MW1021REMSYN023333   20237 58019 69984
0110821980999991984061518004-01683-045367FM-12+000899999V0201401N00261007501CN0100001N9+03111+02281100891ADDAA106000091AG10999AY101061GF105991051021008001001001MA1999999100381MD1999999+0141MW1021REMSYN011333   58014
0129821980999991984061612004-01683-045367FM-12+000899999V0200901N00261220001CN0100001N9+99999+99999101121ADDAA106000091AG10999AY101061GF103991011021008001041011KA1240N+02391MA1999999100601MD1999999-0051MW1021REMSYN017333   20239 59005
0116821980999991984062018004-01683-045367FM-12+000899999V0200901N00311045001CN0100001N9+02781+02361100921ADDAA106001091AG10999AY161061GF105991031021008001041001MA1999999100401MD1999999-0071MW1021REMSYN017333   59007 60011
