0129825780999991984010112004-05083-042800FM-12+006999999V0200901N00151220001CN0040001N9+02851+02141101271ADDAA106000091AG10999AY101061GF104991031081008001001041KA1240N+02391MA1999999100261MD1999999-0111MW1021REMSYN017333   20239 59011
0110825780999991984010118004-05083-042800FM-12+006999999V0201401N00261220001CN0040001N9+03451+02041100801ADDAA106000091AG10999AY101061GF103991021021008001001041MA1999999099801MD1999999-0051MW1021REMSYN011333   59005
0129825780999991984010200004-05083-042800FM-12+006999999V0201401N00261012001CN9999999N9+02951+02241100891ADDAA106000091AG10999AY101061GF106991061081008001001001KA1240M+03501MA1999999099891MD1999999-0051MW1021REMSYN017333   10350 59005
0151825780999991984010212004-05083-042800FM-12+006999999V0203201N00101012001CN0040001N9+02691+02241101241ADDAA106000091AG10999AY101061GA1021+135009049GF107991071081008001001001KA1240N+02401MA1999999100231MD1999999-0031MW1021REMSYN023333   20240 59003 82583
0110825780999991984010218004-05083-042800FM-12+006999999V0201801N00151220001CN0040001N9+03451+01801100741ADDAA106000091AG10999AY101061GF103991011021008001031041MA1999999099751MD1999999-0051MW1021REMSYN011333   59005
0129825780999991984010300004-05083-042800FM-12+006999999V0203201N00101220001CN9999999N9+02861+02141101011ADDAA106000091AG10999AY101061GF100991001001999999001001KA1240M+03571MA1999999100001MD1999999+0111MW1021REMSYN017333   10357 58011
0129825780999991984010312004-05083-042800FM-12+006999999V0202701N00151007501CN0040001N9+02491+02171101371ADDAA106000091AG10999AY101061GF108991081051008001999999KA1240N+02421MA1999999100351MD1999999+0121MW1021REMSYN017333   20242 58012
0129825780999991984010400004-05083-042800FM-12+006999999V0203201N00261105001CN9999999N9+02481+02321101401ADDAA106000091AG10999AY101061GF108991041051004501001071KA1240M+02881MA1999999100381MD1999999+0381MW1021REMSYN017333   10288 58038
0135825780999991984010412004-05083-042800FM-12+006999999V0203201N00101012001CN0040001N9+02631+02291101551ADDAA124010091AG10999AY101061GF107991071081008001001001KA1240N+02271MA1999999100531MD1999999+0181MW1021REMSYN023333   20227 58018 60104
0135825780999991984010418004-05083-042800FM-12+006999999V0203201N00411012001CN9999999N9+02921+02321101131ADDAA142099091AG10999AY161061GF106991061081008001001001MA1999999100121MD1999999-0051MW1001REMSYN017333   59005 60997EQDQ01+040002VODIS 
0129825780999991984010500004-05083-042800FM-12+006999999V0202701N00051220001CN9999999N9+02581+02401101221ADDAA106000091AG10999AY101061GF102991021031008001001001KA1240M+03301MA1999999100201MD1999999-0181MW1131REMSYN017333   10330 59018
0135825780999991984010512004-05083-042800FM-12+006999999V0200501N00101007501CN0040001N9+02651+02331101461ADDAA124009091AG10999AY161061GF107991071051008001001001KA1240N+02231MA1999999100441MD1999999-0091MW1001REMSYN023333   20223 59009 60094
0110825780999991984010518004-05083-042800FM-12+006999999V0200901N00261220001CN0040001N9+03341+02191100991ADDAA106000091AG10999AY101061GF103991021021008001001041MA1999999099991MD1999999-0131MW1021REMSYN011333   59013
0129825780999991984010600004-05083-042800FM-12+006999999V0209991C00001220001CN9999999N9+02711+02391101121ADDAA106000091AG10999AY101061GF102991021021008001001001KA1240M+03461MA1999999100121MD1999999-0091MW1021REMSYN017333   10346 59009
0151825780999991984010612004-05083-042800FM-12+006999999V0203601N00211220001CN0040001N9+02791+02111101321ADDAA106000091AG10999AY101061GA1021+135009049GF102991011011008001001041KA1240N+02301MA1999999100301MD1999999-0141MW1021REMSYN023333   20230 59014 82583
0110825780999991984010618004-05083-042800FM-12+006999999V0202301N00211220001CN0040001N9+03331+02201100921ADDAA106000091AG10999AY101061GF102991021031008001001001MA1999999099921MD1999999-0071MW1021REMSYN011333   59007
0135825780999991984010712004-05083-042800FM-12+006999999V0200501N00261045001CN0040001N9+02791+02211101321ADDAA124001091AG10999AY161061GF107991031021008001031041KA1240N+02401MA1999999100301MD1410001+0001MW1001REMSYN023333   20240 58000 60014
0132825780999991984010718004-05083-042800FM-12+006999999V0200901N00101045001CN0040001N9+03241+02061100971ADDAA106000091AG10999AY101061GA1021+135009049GF107991031021008001011041MA1999999099971MD1999999+0051MW1021REMSYN017333   58005 82583
0176825780999991984010812004-05083-042800FM-12+006999999V0201801N00151045001CN9999999N9+03271+02161101601ADDAA124014091AG10999AY161061GA1021+135009049GF108991041051008001021999KA1240N+02121MA1999999100581MD1999999+0281MW1001REMSYN029333   20212 58028 60144 82583EQDQ01+040002VODIS 
0110825780999991984010818004-05083-042800FM-12+006999999V0203601N00101007501CN0040001N9+02611+02191101201ADDAA106000091AG10999AY101061GF108991051051008001011041MA1999999100191MD1999999+0221MW1021REMSYN011333   58022
0129825780999991984010900004-05083-042800FM-12+006999999V0202701N00151045001CN9999999N9+02401+02161101321ADDAA106000091AG10999AY101061GF107991021061017501071001KA1240M+02971MA1999999100301MD1999999+0061MW1021REMSYN017333   10297 58006
0129825780999991984010912004-05083-042800FM-12+006999999V0201401N00101045001CN0040001N9+02561+02311101331ADDAA106000091AG10999AY101061GF107991021051008001071071KA1240N+02241MA1999999100311MD1999999-0271MW1021REMSYN017333   20224 59027
0110825780999991984010918004-05083-042800FM-12+006999999V0201401N00211105001CN0040001N9+03171+02171100801ADDAA106000091AG10999AY101061GF106991041031008001001081MA1999999099821MD1999999-0271MW1021REMSYN011333   59027
0135825780999991984011000004-05083-042800FM-12+006999999V0209999999999045001CN9999999N9+02271+02191101211ADDAA106021091AG10999AY161061GF108991041051008001021999KA1240M+03241MA1999999100191MD1999999-0111MW1211REMSYN023333   10324 59011 60211
0110825780999991984011018004-05083-042800FM-12+006999999V0201801N00101045001CN0040001N9+02871+02211100911ADDAA106000091AG10999AY101061GF106991021031008001071081MA1999999099911MD1999999+0091MW1021REMSYN011333   58009
0129825780999991984011100004-05083-042800FM-12+006999999V0200501N00151007501CN9999999N9+02541+02251101121ADDAA106000091AG10999AY101061GF106991051051008001031001KA1240M+03061MA1999999100111MD1999999-0081MW1021REMSYN017333   10306 59008
0135825780999991984011112004-05083-042800FM-12+006999999V0203201N00101007501CN0040001N9+02511+02231101271ADDAA124000191AG10999AY101061GF108991061051008001031001KA1240N+02251MA1999999100251MD1999999-0071MW1021REMSYN023333   20225 59007 69914
0127825780999991984011118004-05083-042800FM-12+006999999V0201401N00211045001CN0040001N9+02351+02291100931ADDAA106024091AA299000091AG10999AY161061GF108991031051008001021999MA1999999099921MD1999999+0011MW1291REMSYN017333   58001 60241
0129825780999991984011200004-05083-042800FM-12+006999999V0203201N00211007501CN9999999N9+02311+02201101271ADDAA106000091AG10999AY101061GF108991081051008001999999KA1240M+03001MA1999999100251MD1999999+0141MW1021REMSYN017333   10300 58014
0157825780999991984011212004-05083-042800FM-12+006999999V0200901N00151007501CN0040001N9+02401+02261101401ADDAA124024091AG10999AY101061GA1021+135009049GF107991071051008001001021KA1240N+02231MA1999999100381MD1999999+0131MW1021REMSYN029333   20223 58013 60244 82583
0110825780999991984011218004-05083-042800FM-12+006999999V0201801N00211220001CN0040001N9+99999+99999100991ADDAA106000091AG10999AY101061GF104991031031008001001021MA1999999099991MD1999999+0071MW1021REMSYN011333   58007
0116825780999991984011300004-05083-042800FM-12+006999999V0201401N00051220001CN9999999N9+02581+02311101031ADDAA106000091AG10999AY101061GF100991001001999999001001MA1999999100021MD1999999-0231MW1021REMSYN017333   1369/ 59023
0129825780999991984011312004-05083-042800FM-12+006999999V0200501N00211220001CN0040001N9+02721+02191101371ADDAA106000091AG10999AY101061GF102991021021008001001001KA1240N+02201MA1999999100361MD1999999-0021MW1021REMSYN017333   20220 59002
0129825780999991984011318004-05083-042800FM-12+006999999V0201401N001519999999N0040001N9+03291+02101100841ADDAA106000091AG10999AY101061GF105991999011008001001001MA1999999099951MD1999999-0041MW1021REMSYN011333   59004EQDQ01+000022SCOTLC
0129825780999991984011400004-05083-042800FM-12+006999999V0201801N00051220001CN9999999N9+02531+02261101071ADDAA106000091AG10999AY101061GF101991011021008001001001KA1240M+03351MA1999999100061MD1999999+0041MW1021REMSYN017333   10335 58004
0170825780999991984011412004-05083-042800FM-12+006999999V0203601N00151220001CN0040001N9+02741+02171101251ADDAA106000091AG10999AY101061GA1021+135009049GF199999999001008001001001KA1240N+02231MA1999999100241MD1999999-0121MW1021REMSYN023333   20223 59012 82583EQDQ01+000002SCOTCV
0127825780999991984011418004-05083-042800FM-12+006999999V0200501N00051220001CN0040001N9+03071+02331100811ADDAA106000291AA299000391AG10999AY101061GF103991031031008001001001MA1999999099811MD1999999-0141MW1201REMSYN017333   59014 69921
0135825780999991984011512004-05083-042800FM-12+006999999V0200501N00151012001CN0040001N9+02691+02261101221ADDAA124005091AG10999AY161061GF106991051081008001031001KA1240N+02381MA1999999100201MD1999999-0041MW1001REMSYN023333   20238 59004 60054
0151825780999991984011518004-05083-042800FM-12+006999999V0200501N00151105001CN0040001N9+03101+02121099832ADDAA106000091AG10999AY101061GA1021+135009049GF106991021021008001001081MA1999999099821MD1999999+0011MW1021REMSYN017333   58001 82583EQDQ01+099833APOSLP
0135825780999991984011612004-05083-042800FM-12+006999999V0201801N00151007501CN0040001N9+02571+02351101271ADDAA124022091AG10999AY161061GF107991051051008001031001KA1240N+02131MA1999999100251MD1999999+0051MW1001REMSYN023333   20213 58005 60224
0126825780999991984011618004-05083-042800FM-12+006999999V0201401N00211220001CN0040001N9+03141+02211100891ADDAA106000091AG10999AY101061GA1021+135009049GF103991021061008001001001MA1999999099871MD1999999+0091MW1021REMSYN011333   58009
0129825780999991984011700004-05083-042800FM-12+006999999V0201401N00261220001CN9999999N9+02671+02501101071ADDAA106000091AG10999AY101061GF101991011031008001031071KA1240M+03241MA1999999100061MD1999999-0111MW1021REMSYN017333   10324 59011
0129825780999991984011712004-05083-042800FM-12+006999999V0200501N00511105001CN0040001N9+02841+01961101231ADDAA106000091AG10999AY141061GF107991021011008001001081KA1240N+02481MA1999999098871MD1999999+0141MW1051REMSYN017333   20248 58014
0135825780999991984011718004-05083-042800FM-12+006999999V0201801N00261045001CN9999999N9+02971+02351101011ADDAA106001091AG10999AY161061GF107991021031008001071001MA1999999100011MD1999999+0121MW1001REMSYN017333   58012 60011EQDQ01+040002VODIS 
0129825780999991984011800004-05083-042800FM-12+006999999V0203201N00101045001CN9999999N9+02471+02191101251ADDAA106000091AG10999AY101061GF107991011021008001031071KA1240M+03061MA1999999100121MD1999999+0171MW1021REMSYN017333   10306 58017
0157825780999991984011812004-05083-042800FM-12+006999999V0200501N00151007501CN0040001N9+02711+02351101301ADDAA124001091AG10999AY101061GA1021+135009049GF105991051021008001001001KA1240N+02311MA1999999100291MD1999999-0171MW1021REMSYN029333   20231 59017 60014 82583
0129825780999991984011900004-05083-042800FM-12+006999999V0209991C00001220001CN9999999N9+02651+02391100961ADDAA106000091AG10999AY101061GF107991011011008001001041KA1240M+03361MA1999999099951MD1999999-0281MW1021REMSYN017333   10336 59028
0129825780999991984011912004-05083-042800FM-12+006999999V0203601N00311012001CN0040001N9+02711+02301101151ADDAA106000091AG10999AY101061GF106991061081008001001001KA1240N+02361MA1999999100141MD1999999-0151MW1021REMSYN017333   20236 59015
0132825780999991984011918004-05083-042800FM-12+006999999V0201401N00261045001CN0040001N9+02721+02191100591ADDAA106000091AG10999AY101061GA1021+135009049GF108991041081008001021031MA1999999099791MD1999999-0111MW1021REMSYN017333   59011 82583
0129825780999991984012000004-05083-042800FM-12+006999999V0200501N00101045001CN9999999N9+02311+02141101061ADDAA106000091AG10999AY101061GF107991021051008001011081KA1240M+03161MA1999999100041MD1999999+0091MW1021REMSYN017333   10316 58009
0151825780999991984012012004-05083-042800FM-12+006999999V0201401N00051012001CN0040001N9+02561+02311101121ADDAA106000091AG10999AY101061GA1021+135009049GF106991061081008001001001KA1240N+02181MA1999999100101MD1999999-0041MW1021REMSYN023333   20218 59004 82583
0116825780999991984012018004-05083-042800FM-12+006999999V0201401N00051045001CN0040001N9+02671+02371100791ADDAA106008091AG10999AY101061GF108991021031008001011999MA1999999100781MD1999999-0011MW1211REMSYN017333   59001 60081
0154825780999991984012100004-05083-042800FM-12+006999999V0201401N00101045001CN9999999N9+02511+02411100991ADDAA106003091AG10999AY161061GF108991041051008001021999KA1240M+03021MA1999999099972MD1999999-0061MW1511REMSYN023333   10302 59006 60031EQDQ01+099973APOSP 
0121825780999991984012112004-05083-042800FM-12+006999999V0200901N00151015001CN0040001N9+02521+02231101211ADDAA124011091AG10999GF106991051001017501031081KA1240N+02251MA1999999100191MD1999999+0091REMSYN023333   20225 58009 60114
0096825780999991984012118004-05083-042800FM-12+006999999V0201401N00101045001CN0040001N9+03151+02211100841ADDAA106000091AG10999GF107991021021008001011041MA1999999099841MD1999999+0061REMSYN011333   58006
0129825780999991984012200004-05083-042800FM-12+006999999V0203201N00051220001CN9999999N9+02631+02251100911ADDAA106000091AG10999AY101061GF101991011021008001001001KA1240M+03211MA1999999099901MD1999999-0071MW1021REMSYN017333   10321 59007
0151825780999991984012212004-05083-042800FM-12+006999999V0200901N00211012001CN0040001N9+02631+02351101331ADDAA106000091AG10999AY101061GA1021+135009049GF107991071081008001001001KA1240N+02341MA1999999100311MD1999999+0121MW1021REMSYN023333   20234 58012 82583
0110825780999991984012218004-05083-042800FM-12+006999999V0203601N00151105001CN0040001N9+03241+01961100851ADDAA106000091AG10999AY101061GF106991021021008001001081MA1999999099851MD1999999+0011MW1021REMSYN011333   58001
0164825780999991984012300004-05083-042800FM-12+006999999V0209991C00001220001CN9999999N9+02571+02331100931ADDAA106000091AG10999AY101061GF100991001001999999001001KA1240M+03321MA1999999999999MD1999999+0021MW1021REMSYN017333   10332 58002EQDQ01+090923APOSP Q02 090923APOSP 
0129825780999991984012312004-05083-042800FM-12+006999999V0203601N00211045001CN0040001N9+02721+02261101151ADDAA106000091AG10999AY101061GF105991031021008001031011KA1240N+02261MA1999999100141MD1999999-0171MW1021REMSYN017333   20226 59017
0132825780999991984012318004-05083-042800FM-12+006999999V0200901N00151220001CN0040001N9+03251+02131100701ADDAA106000091AG10999AY101061GA1021+135009049GF103991021021008001001021MA1999999099771MD1999999-0151MW1021REMSYN017333   59015 82583
0129825780999991984012400004-05083-042800FM-12+006999999V0200501N00261012001CN9999999N9+02691+02281100901ADDAA106000091AG10999AY101061GF106991061081008001001001KA1240M+03311MA1999999099891MD1999999-0031MW1021REMSYN017333   10331 59003
0129825780999991984012412004-05083-042800FM-12+006999999V0200501N00051012001CN0040001N9+02601+02291101051ADDAA106000091AG10999AY101061GF106991061081008001001001KA1240N+02241MA1999999100041MD1999999-0101MW1021REMSYN017333   20224 59010
0110825780999991984012418004-05083-042800FM-12+006999999V0200901N00101220001CN0040001N9+03281+02131100511ADDAA106000091AG10999AY101061GF103991031021008001001001MA1999999099511MD1999999-0191MW1021REMSYN011333   59019
0135825780999991984012512004-05083-042800FM-12+006999999V0202701N00051045001CN0040001N9+02551+02291101161ADDAA124025091AG10999AY181061GF107991041051008001031001KA1240N+02181MA1999999100141MD1999999+0101MW1001REMSYN023333   20218 58010 60254
0135825780999991984012518004-05083-042800FM-12+006999999V0203201N00101220001CN9999999N9+03551+02291100561ADDAA106000591AG10999AY161061GF102991021031008001001001MA1999999099751MD1999999-0291MW1001REMSYN017333   59029 69951EQDQ01+040002VODIS 
0143825780999991984012612004-05083-042800FM-12+006999999V0209999999999012001CN0040001N9+02711+02411101191ADDAA124000591AG10999GA1021+135009049GF105991051081008001001001KA1240N+02361MA1999999100171MD1999999+0031REMSYN029333   20236 58003 69954 82583
0110825780999991984012618004-05083-042800FM-12+006999999V0201401N00101045001CN0040001N9+03171+02271100731ADDAA106000091AG10999AY101061GF107991011051008001011081MA1999999099731MD1999999-0021MW1021REMSYN011333   59002
0135825780999991984012700004-05083-042800FM-12+006999999V0203601N00211007501CN9999999N9+02411+02151101091ADDAA106000191AG10999AY101061GF108991081051008001999999KA1240M+03251MA1999999100071MD1999999+0191MW1201REMSYN023333   10325 58019 69911
0157825780999991984012712004-05083-042800FM-12+006999999V0200501N00151007501CN0040001N9+02551+02331101301ADDAA124000191AG10999AY101061GA1021+135009049GF107991061051008001021001KA1240N+02251MA1999999100281MD1999999+0111MW1021REMSYN029333   20225 58011 69914 82583
0110825780999991984012718004-05083-042800FM-12+006999999V0201401N00211220001CN0040001N9+03211+02151100721ADDAA106000091AG10999AY101061GF102991021021008001001001MA1999999099521MD1999999-0011MW1021REMSYN011333   59001
0129825780999991984012800004-05083-042800FM-12+006999999V0200501N00101007501CN9999999N9+02811+02311100831ADDAA106000091AG10999AY101061GF108991081091008001999999KA1240M+03361MA1999999099821MD1999999-0251MW1131REMSYN017333   10336 59025
0135825780999991984012812004-05083-042800FM-12+006999999V0203201N00211007501CN0040001N9+02631+02371101081ADDAA124007091AG10999AY161061GF107991071051008001001001KA1240N+02271MA1999999100061MD1999999+0221MW1021REMSYN023333   20227 58022 60074
0132825780999991984012818004-05083-042800FM-12+006999999V0201801N00151045001CN0040001N9+03001+02341100661ADDAA106000091AG10999AY101061GA1021+135009049GF106991011021008001011001MA1999999099661MD1999999-0061MW1021REMSYN017333   59006 82583
0129825780999991984012900004-05083-042800FM-12+006999999V0201801N00101220001CN9999999N9+02601+02391100791ADDAA106000091AG10999AY101061GF101991011031008001001001KA1240M+03091MA1999999099781MD1999999-0041MW1021REMSYN017333   10309 59004
0129825780999991984012912004-05083-042800FM-12+006999999V0200501N00051007501CN0040001N9+02451+02251101161ADDAA106000091AG10999AY101061GF108991081051008001999999KA1240N+02341MA1999999100141MD1999999-0021MW1021REMSYN017333   20234 59002
0110825780999991984012918004-05083-042800FM-12+006999999V0203601N00051105001CN0040001N9+03121+02171100771ADDAA106000091AG10999AY101061GF106991011021008001011041MA1999999099771MD1999999+0111MW1021REMSYN011333   58011
0129825780999991984013000004-05083-042800FM-12+006999999V0201801N00101220001CN9999999N9+02391+02211100911ADDAA106000091AG10999AY101061GF102991011031008001001041KA1240M+03181MA1999999099901MD1999999+0131MW1021REMSYN017333   10318 58013
0151825780999991984013012004-05083-042800FM-12+006999999V0200901N00151220001CN0040001N9+02781+02301101191ADDAA106000091AG10999AY101061GA1021+135009049GF102991011021008001031001KA1240N+02201MA1999999100181MD1999999+0041MW1021REMSYN023333   20220 58004 82583
0110825780999991984013018004-05083-042800FM-12+006999999V0200501N00151105001CN0040001N9+03331+01971100771ADDAA106000091AG10999AY101061GF106991031031008001001081MA1999999099771MD1410001+0001MW1021REMSYN011333   58000
0129825780999991984013100004-05083-042800FM-12+006999999V0203201N00101007501CN9999999N9+02591+02331100951ADDAA106000091AG10999AY101061GF106991061051008001001001KA1240M+03401MA1999999099951MD1999999+0051MW1021REMSYN017333   10340 58005
0129825780999991984013112004-05083-042800FM-12+006999999V0200501N00151220001CN0040001N9+02761+02321101141ADDAA106000091AG10999AY101061GF106991001001999999001041KA1240N+02301MA1999999100131MD1999999-0051MW1021REMSYN017333   20230 59005
0132825780999991984013118004-05083-042800FM-12+006999999V0203201N00211105001CN0040001N9+03211+02181100751ADDAA106000091AG10999AY101061GA1021+135009049GF108991031021008001001081MA1999999099751MD1999999-0021MW1021REMSYN017333   59002 82583
0129825780999991984020100004-05083-042800FM-12+006999999V0203201N00101012001CN9999999N9+02711+02431100961ADDAA106000091AG10999AY101061GF107991071081008001001001KA1240M+03381MA1999999099961MD1999999+0011MW1021REMSYN017333   10338 58001
0129825780999991984020112004-05083-042800FM-12+006999999V0200901N00151220001CN0040001N9+02611+02231101191ADDAA106000091AG10999AY101061GF106991041021008001001041KA1240N+02181MA1999999100181MD1999999+0051MW1021REMSYN017333   20218 58005
0110825780999991984020118004-05083-042800FM-12+006999999V0200501N00101220001CN0040001N9+03341+02151100741ADDAA106000091AG10999AY101061GF102991021021008001001001MA1999999099751MD1410001+0001MW1021REMSYN011333   58000
0148825780999991984020200004-05083-042800FM-12+006999999V0203201N00261220001CN9999999N9+02721+02341100861ADDAA106000091AG10999AY101061GF102991021031008001001001KA1240M+03381MA1999999100852MD1999999-0111MW1021REMSYN017333   10338 59011EQDQ01+100853APOSP 
0135825780999991984020212004-05083-042800FM-12+006999999V0201401N00051045001CN0040001N9+02541+02211101171ADDAA124007091AG10999AY121061GF106991041021008001031001KA1240N+02191MA1999999100151MD1999999-0031MW1001REMSYN023333   20219 59003 60074
0110825780999991984020218004-05083-042800FM-12+006999999V0201401N00211105001CN0040001N9+03181+99999100671ADDAA106000091AG10999AY101061GF106991021021008001001081MA1999999099671MD1999999-0081MW1021REMSYN011333   59008
0129825780999991984020300004-05083-042800FM-12+006999999V0200301N00151220001CN9999999N9+02661+02411100841ADDAA106000091AG10999AY101061GF102991021031008001001001KA1240M+03261MA1999999099841MD1999999-0011MW1021REMSYN017333   10326 59001
0129825780999991984020312004-05083-042800FM-12+006999999V0200901N00151045001CN0040001N9+02501+02271101101ADDAA106000091AG10999AY101061GF106991041081008001031001KA1240N+02111MA1999999100091MD1999999-0061MW1021REMSYN017333   20211 59006
0110825780999991984020318004-05083-042800FM-12+006999999V0201401N00211220001CN0040001N9+03271+02081100631ADDAA106000091AG10999AY101061GF102991021021008001001001MA1999999099631MD1999999-0041MW1021REMSYN011333   59004
0129825780999991984020400004-05083-042800FM-12+006999999V0203201N00211220001CN9999999N9+02561+01951100621ADDAA106000091AG10999AY101061GF102991021051008001001001KA1240M+03381MA1999999099811MD1999999-0031MW1021REMSYN017333   10338 59003
0129825780999991984020412004-05083-042800FM-12+006999999V0200501N00151012001CN0040001N9+02761+02281101101ADDAA106000091AG10999AY101061GF107991071081008001001001KA1240N+02301MA1999999100091MD1410001+0001MW1021REMSYN017333   20230 58000
0135825780999991984020418004-05083-042800FM-12+006999999V0203601N00261015001CN0100001N9+02261+02181100991ADDAA106004091AG10999AY151061GF108991081001017501021999KA1240M+03381MA1999999099971MD1999999+0161MW1611REMSYN023333   10338 58016 60041
0135825780999991984020512004-05083-042800FM-12+006999999V0201401N00211007501CN0040001N9+02611+02271101101ADDAA124012091AG10999AY161061GF105991051021008001001001KA1240N+02201MA1999999100081MD1999999-0011MW1001REMSYN023333   20220 59001 60124
0110825780999991984020518004-05083-042800FM-12+006999999V0200901N00151220001CN0040001N9+03171+02231100701ADDAA106000091AG10999AY101061GF102991021021008001001001MA1999999099701MD1999999+0081MW1021REMSYN011333   58008
0129825780999991984022212004-05083-042800FM-12+006999999V0200901N00211220001CN0040001N9+02811+02311101161ADDAA106000091AG10999AY101061GF106991021021008001001041KA1240N+02291MA1999999100151MD1999999-0031MW1021REMSYN017333   20229 59003
0129825780999991984022218004-05083-042800FM-12+006999999V0201401N00151220001CN0040001N9+03231+02291100821ADDAA106000091AG10999AY101061GF103991999021008001001001MA1999999099821MD1999999+0071MW1021REMSYN011333   58007EQDQ01+000022SCOTLC
0129825780999991984022312004-05083-042800FM-12+006999999V0200901N00211220001CN0040001N9+02771+02341101231ADDAA106000091AG10999AY101061GF102991011021008001001011KA1240N+02241MA1999999100221MD1999999+0071MW1021REMSYN017333   20224 58007
0110825780999991984022318004-05083-042800FM-12+006999999V0200501N00101220001CN0040001N9+03251+02221100741ADDAA106000091AG10999AY101061GF102991011021008001001071MA1999999099741MD1999999-0081MW1021REMSYN011333   59008
0146825780999991984022400004-05083-042800FM-12+006999999V0203201N00151007501CN9999999N9+02671+02141100981ADDAA106000291AA299000391AG10999AY101061GF107991071051008001001001KA1240M+03361MA1999999099971MD1410001+0001MW1201REMSYN023333   10336 58000 69921
0146825780999991984022412004-05083-042800FM-12+006999999V0200501N00101105001CN0040001N9+02611+02311101121ADDAA124000291AA299000391AG10999AY101061GF107991011021008001001071KA1240N+02221MA1999999100111MD1999999-0111MW1021REMSYN023333   20222 59011 69924
0110825780999991984022418004-05083-042800FM-12+006999999V0200501N00151220001CN0040001N9+03141+02221100611ADDAA106000091AG10999AY101061GF106991041031008001001041MA1999999099511MD1999999-0131MW1021REMSYN011333   59013
0129825780999991984022500004-05083-042800FM-12+006999999V0203201N00211007501CN9999999N9+02581+02091100911ADDAA106000091AG10999AY101061GF108991081051008001999999KA1240M+03281MA1999999099901MD1999999-0071MW1021REMSYN017333   10328 59007
0129825780999991984022512004-05083-042800FM-12+006999999V0200901N00151007501CN0040001N9+02651+02351101111ADDAA106000091AG10999AY101061GF106991061021008001001001KA1240N+02241MA1999999100001MD1999999-0111MW1021REMSYN017333   20224 59011
0110825780999991984022518004-05083-042800FM-12+006999999V0201401N00151220001CN0040001N9+03211+02181100621ADDAA106000091AG10999AY101061GF102991021021008001001001MA1999999099621MD1999999+0011MW1021REMSYN011333   58001
0129825780999991984022600004-05083-042800FM-12+006999999V0201801N00051220001CN9999999N9+02701+02481100751ADDAA106000091AG10999AY101061GF102991021031008001001001KA1240M+03331MA1999999099741MD1999999-0161MW1021REMSYN017333   10333 59016
0135825780999991984022612004-05083-042800FM-12+006999999V0201801N00101007501CN0040001N9+02261+02211101071ADDAA124006091AG10999AY101061GF107991071051008001001001KA1240N+02131MA1999999100051MD1999999+0051MW1211REMSYN023333   20213 58005 60064
0110825780999991984022618004-05083-042800FM-12+006999999V0202701N00101105001CN0040001N9+03151+02301999999ADDAA106000091AG10999AY101061GF106991031021008001001081MA1999999099711MD1999999+0091MW1021REMSYN011333   58009
0129825780999991984022700004-05083-042800FM-12+006999999V0209991C00001220001CN9999999N9+02541+02361100861ADDAA106000091AG10999AY101061GF100991001001999999001001KA1240M+03221MA1999999099851MD1999999+0111MW1021REMSYN017333   10322 58011
0148825780999991984022712004-05083-042800FM-12+006999999V0209991V001019999999N0040001N9+02691+02371101201ADDAA106000091AG10999AY101061GF106991999081008001001001KA1240N+02221MA1999999100191MD1999999+0141MW1021REMSYN017333   20222 58014EQDQ01+000022SCOTLC
0129825780999991984022718004-05083-042800FM-12+006999999V0201401N001519999999N0040001N9+03111+02121100811ADDAA106000091AG10999AY101061GF107991999021008001001001MA1999999099811MD1999999+0101MW1021REMSYN011333   58010EQDQ01+000022SCOTLC
0129825780999991984022800004-05083-042800FM-12+006999999V0209991C00001220001CN9999999N9+02601+02441100991ADDAA106000091AG10999AY101061GF100991001001999999001001KA1240M+03241MA1999999099991MD1999999+0141MW1021REMSYN017333   10324 58014
0114825780999991984022812004-05083-042800FM-12+006999999V0201401N00311220001CN0040001N9+02771+02121101281ADDAA106000091AG10999AY101061GF103991021021008001001041KA1240N+02241MD1999999+0081MW1021REMSYN017333   20224 58008
0110825780999991984022818004-05083-042800FM-12+006999999V0202301N00151220001CN0040001N9+03321+02231100901ADDAA106000091AG10999AY101061GF106991031021008001001041MA1999999099901MD1999999+0091MW1021REMSYN011333   58009
0148825780999991984022900004-05083-042800FM-12+006999999V0202301N00151220001CN9999999N9+02751+02381101902ADDAA106000091AG10999AY101061GF102991021031008001001001KA1240M+03441MA1999999099991MD1410001+0001MW1021REMSYN017333   10344 58000EQDQ01+101903APOSLP
0135825780999991984022912004-05083-042800FM-12+006999999V0201801N00151004201CN0040001N9+02351+02241101331ADDAA124012091AG10999AY161061GF108991081051004501999999KA1240N+02181MA1999999100311MD1999999+0041MW1001REMSYN023333   20218 58004 60124
0110825780999991984022918004-05083-042800FM-12+006999999V0201801N00211105001CN0040001N9+03071+02301100811ADDAA106000091AG10999AY101061GF105991021021008001031021MA1999999099811MD1999999-0091MW1021REMSYN011333   59009
0129825780999991984030100004-05083-042800FM-12+006999999V0203201N00151012001CN9999999N9+02591+02331101051ADDAA106000091AG10999AY101061GF108991081081008001999999KA1240M+03131MA1999999100041MD1999999+0051MW1021REMSYN017333   10313 58005
0135825780999991984030112004-05083-042800FM-12+006999999V0203201N00101012001CN0040001N9+02711+02431101201ADDAA124005091AG10999AY161061GF107991071081008001001001KA1240N+02301MA1999999100191MD1999999-0121MW1001REMSYN023333   20230 59012 60054
0116825780999991984030118004-05083-042800FM-12+006999999V0201801N00101220001CN0040001N9+02691+02451100741ADDAA106002091AG10999AY161061GF106991041031008001001061MA1999999099731MD1999999-0081MW1001REMSYN017333   59008 60021
0157825780999991984030212004-05083-042800FM-12+006999999V0201401N00151007501CN0040001N9+02701+02291101351ADDAA124006091AG10999AY101061GA1021+135009049GF108991081051008001999999KA1240N+02241MA1999999100331MD1999999+0141MW1021REMSYN029333   20224 58014 60064 82583
0110825780999991984030218004-05083-042800FM-12+006999999V0201401N00261105001CN0040001N9+03101+02311100841ADDAA106000091AG10999AY101061GF107991041081008001001081MA1999999099841MD1999999+0111MW1021REMSYN011333   58011
0135825780999991984030300004-05083-042800FM-12+006999999V0200501N00051045001CN9999999N9+02261+02191101331ADDAA106008091AG10999AY161061GF108991041051008001021999KA1240M+03191MA1999999100311MD1999999+0221MW1201REMSYN023333   10319 58022 60081
0135825780999991984030312004-05083-042800FM-12+006999999V0201401N00151012001CN0040001N9+02581+02331101441ADDAA124008091AG10999AY151061GF106991061081008001001001KA1240N+02221MA1999999100421MD1999999+0091MW1001REMSYN023333   20222 58009 60084
0110825780999991984030318004-05083-042800FM-12+006999999V0203201N00211220001CN0040001N9+03111+02311100961ADDAA106000091AG10999AY101061GF102991021021008001001001MA1999999099951MD1999999+0111MW1021REMSYN011333   58011
0129825780999991984030400004-05083-042800FM-12+006999999V0203601N00151220001CN9999999N9+02531+02251101221ADDAA106000091AG10999AY101061GF102991021031008001001001KA1240M+03221MA1999999100211MD1999999-0101MW1021REMSYN017333   10322 59010
0129825780999991984030412004-05083-042800FM-12+006999999V0200501N00101007501CN0040001N9+02561+02401101351ADDAA106000091AG10999AY101061GF107991071051008001001001KA1240N+02261MA1999999100331MD1999999-0091MW1021REMSYN017333   20226 59009
0110825780999991984030418004-05083-042800FM-12+006999999V0201401N00151220001CN0040001N9+03191+02221100831ADDAA106000091AG10999AY101061GF102991021021008001001001MA1999999099831MD1999999-0121MW1021REMSYN011333   59012
0129825780999991984030500004-05083-042800FM-12+006999999V0202701N00101007501CN9999999N9+02681+02541101041ADDAA106000091AG10999AY101061GF106991061051008001001001KA1240M+03321MA1999999100031MD1999999-0181MW1021REMSYN017333   10332 59018
0157825780999991984030512004-05083-042800FM-12+006999999V0200501N00151007501CN0040001N9+02511+02311101231ADDAA124003091AG10999AY161061GA1021+135009049GF108991081051008001999999KA1240N+02201MA1999999100221MD1999999-0111MW1001REMSYN029333   20220 59011 60034 82583
0110825780999991984030518004-05083-042800FM-12+006999999V0201401N00101045001CN0040001N9+03211+02271100711ADDAA106000091AG10999AY101061GF106991031021008001011001MA1999999099711MD1999999-0121MW1021REMSYN011333   59012
0110825780999991984030618004-05083-042800FM-12+006999999V0202301N00101045001CN0040001N9+03121+02331100771ADDAA106000091AG10999AY101061GF106991021031008001031021MA1999999099771MD1999999+0061MW1021REMSYN011333   58006
0135825780999991984030712004-05083-042800FM-12+006999999V0200501N00151045001CN0040001N9+02281+02181101561ADDAA124020091AG10999AY151061GF108991041051008001071999KA1240N+02081MA1999999100341MD1999999+0171MW1201REMSYN023333   20208 58017 60204
0110825780999991984030718004-05083-042800FM-12+006999999V0200901N00151045001CN0040001N9+02891+02831101011ADDAA106000091AG10999AY101061GF106991031021008001031001MA1999999100001MD1999999+0231MW1021REMSYN011333   58023
0129825780999991984030800004-05083-042800FM-12+006999999V0203601N00151007501CN9999999N9+02451+02231101291ADDAA106000091AG10999AY101061GF108991061051008001011999KA1240M+02961MA1999999100271MD1999999+0131MW1021REMSYN017333   10296 58013
0151825780999991984030812004-05083-042800FM-12+006999999V0203201N00101012001CN0040001N9+02551+02251101351ADDAA106000091AG10999AY101061GA1021+135009049GF106991061081008001001001KA1240N+02241MA1999999100321MD1999999-0021MW1021REMSYN023333   20224 59002 82583
0096825780999991984030818004-05083-042800FM-12+006999999V0202601N00211105001CN0040001N9+02961+02261100891ADDAA106000091AG10999AY101061GF106991031031008001001081MA1999999100891MW1021REMSYN011333   50011
0148825780999991984030900004-05083-042800FM-12+006999999V0202301N00101012001CN9999999N9+02541+02471101161ADDAA106000091AG10999AY101061GF106991061081008001001001KA1240M+03121MA1999999100092MD1999999-0181MW1021REMSYN017333   10312 59018EQDQ01+100093APOSP 
0110825780999991984030918004-05083-042800FM-12+006999999V0203201N00151007501CN0040001N9+03121+02281100791ADDAA106000091AG10999AY101061GF106991051031008001001041MA1999999099791MD1999999-0101MW1021REMSYN011333   59010
0129825780999991984031000004-05083-042800FM-12+006999999V0203601N00151007501CN9999999N9+02541+02131101141ADDAA106000091AG10999AY101061GF106991061031008001001001KA1240M+03201MA1999999100121MD1999999+0031MW1021REMSYN017333   10320 58003
0144825780999991984031012004-05083-042800FM-12+006999999V0203201N00151012001CN0040001N9+02491+02301101311ADDAA106000091AG10999AY101061GA1021+150009079GF106991061081008001001001MA1999999100291MD1999999+0051MW1021REMSYN029333   20/// 58005 82784 80903
0116825780999991984031018004-05083-042800FM-12+006999999V0202301N00101045001CN0040001N9+02661+02461100911ADDAA106008091AG10999AY161061GF108991041081008001011999MA1999999099901MD1999999+0111MW1211REMSYN017333   58011 60081
0135825780999991984031112004-05083-042800FM-12+006999999V0200701N00151007501CN0040001N9+02461+02271101381ADDAA124013091AG10999AY101061GF108991081051008001999999KA1240N+02061MA1999999100361MD1999999+0061MW1021REMSYN023333   20206 58006 60134
0110825780999991984031118004-05083-042800FM-12+006999999V0200901N00151220001CN0040001N9+03021+02161100861ADDAA106000091AG10999AY101061GF102991011021008001001021MA1999999099861MD1999999-0041MW1021REMSYN011333   59004
0129825780999991984031200004-05083-042800FM-12+006999999V0200501N00051220001CN9999999N9+02601+02391101141ADDAA106000091AG10999AY101061GF103991031021008001001071KA1240M+03151MA1999999100131MD1999999-0071MW1021REMSYN017333   10315 59007
0129825780999991984031212004-05083-042800FM-12+006999999V0203201N00101012001CN0040001N9+02581+02271101361ADDAA106000091AG10999AY101061GF107991071081008001001001KA1240N+02281MA1999999100341MD1999999-0021MW1021REMSYN017333   20228 59002
0110825780999991984031218004-05083-042800FM-12+006999999V0203201N00151220001CN0040001N9+03191+02221100821ADDAA106000091AG10999AY101061GF106991041021008001001041MA1999999099821MD1999999-0041MW1021REMSYN011333   59004
0116825780999991984031318004-05083-042800FM-12+006999999V0201801N00311045001CN0040001N9+02991+02471100751ADDAA106003091AG10999AY161061GF106991041031008001011031MA1999999099741MD1999999-0051MW1001REMSYN017333   59005 60031
0157825780999991984031412004-05083-042800FM-12+006999999V0203201N00311007501CN0040001N9+02471+02361101321ADDAA124033091AG10999AY161061GA1021+135009049GF108991081051008001999999KA1240N+02241MA1999999100291MD1999999+0101MW1021REMSYN029333   20224 58010 60334 82583
0116825780999991984031418004-05083-042800FM-12+006999999V0202301N00311012001CN0040001N9+02801+02361100731ADDAA106000191AG10999AY151061GF108991081081008001999999MA1999999099721MD1999999-0021MW1001REMSYN017333   59002 69911
0135825780999991984031512004-05083-042800FM-12+006999999V0201401N00101045001CN0040001N9+02441+02211101211ADDAA124050091AG10999AY161061GF106991031051008001071001KA1240N+02121MA1999999100881MD1999999-0111MW1021REMSYN023333   20212 59011 60504
0129825780999991984031518004-05083-042800FM-12+006999999V0201401N00151105001CN0040001N9+03011+02241100771ADDAA106000091AG10999AY101061GF107991031031008001001081MA1999999099762MD1999999+0041MW1021REMSYN011333   58004EQDQ01+099763APOSP 
0118825780999991984031523004-05083-042800FM-12+006999999V0200501N00151045001CN9999999N9+02471+02391101131ADDAG10999AY101051GF108991061001999999011071KA1240M+03051MA1999999100131MD1999999-0121MW1021REMSYN017333   10305 59012
0118825780999991984031600004-05083-042800FM-12+006999999V0200501N00151045001CN9999999N9+02471+02391101131ADDAG10999AY101061GF108991061001999999011071KA1240M+03051MA1999999100131MD1999999-0121MW1021REMSYN017333   10305 59012
0151825780999991984031612004-05083-042800FM-12+006999999V0200501N00101007501CN0040001N9+02531+02311101221ADDAA106000091AG10999AY101061GA1021+135009049GF108991081051008001999999KA1240N+02311MA1999999100201MD1999999+0021MW1021REMSYN023333   20231 58002 82583
0110825780999991984031618004-05083-042800FM-12+006999999V0200501N00051012001CN0040001N9+03061+02301100671ADDAA106000091AG10999AY101061GF106991061081008001001001MA1999999099671MD1999999-0091MW1021REMSYN011333   59009
0157825780999991984031712004-05083-042800FM-12+006999999V0202201N00101007501CN0040001N9+02491+02271101181ADDAA124002091AG10999AY151061GA1021+135009049GF108991081051008001999999KA1240N+02261MA1999999100561MD1999999-0041MW1021REMSYN029333   20226 59004 60024 82583
0129825780999991984031800004-05083-042800FM-12+006999999V0201801N00051007501CN9999999N9+02421+02251101021ADDAA106000091AG10999AY101061GF108991061051008001001071KA1240M+03141MA1999999100011MD1999999-0091MW1021REMSYN017333   10314 59009
0157825780999991984031812004-05083-042800FM-12+006999999V0200501N00211007501CN0040001N9+02511+02251101261ADDAA124026091AG10999AY161061GA1021+002509049GF107991071051008001001001KA1240N+02211MA1999999100231MD1999999+0071MW1021REMSYN029333   20221 58007 60264 82593
0110825780999991984031818004-05083-042800FM-12+006999999V0200501N00151045001CN0040001N9+03131+02361100761ADDAA106000091AG10999AY101061GF106991031031008001031021MA1999999099761MD1999999-0081MW1021REMSYN011333   59008
0135825780999991984031912004-05083-042800FM-12+006999999V0203601N00211045001CN0040001N9+02711+02371101561ADDAA124001091AG10999AY101061GF106991031021008001031041KA1240N+02281MA1999999100141MD1999999-0091MW1021REMSYN023333   20228 59009 60014
0151825780999991984031918004-05083-042800FM-12+006999999V0200901N00151220001CN9999999N9+03151+02381100722ADDAA106009091AG10999AY161061GF104991021021008001001021MA1999999099721MD1999999-0041MW1001REMSYN017333   59004 60091EQDQ01+100723APOSLPQ02+040002VODIS 
0135825780999991984032012004-05083-042800FM-12+006999999V0203601N00101220001CN0040001N9+02641+02331101131ADDAA124009091AG10999AY101061GF104991041021008001001001KA1240N+02231MA1999999100221MD1999999-0021MW1021REMSYN023333   20223 59002 60094
0162825780999991984032018004-05083-042800FM-12+006999999V0200901N003119999999N9999999N9+03171+02291100741ADDAA106000291AA299000391AG10999AY151061GF106991999031008001001001MA1999999099741MD1999999+0021MW1001REMSYN017333   58002 69921EQDQ01+000022SCOTLCQ02+040002VODIS 
0135825780999991984032112004-05083-042800FM-12+006999999V0203201N00211012001CN0040001N9+02661+02391101261ADDAA124000191AG10999AY101061GF107991071081008001001001KA1240N+02321MA1999999100241MD1999999+0121MW1021REMSYN023333   20232 58012 69914
0116825780999991984032118004-05083-042800FM-12+006999999V0203201N00051220001CN0040001N9+02871+02331100771ADDAA106011091AG10999AY161061GF103991011031008001061031MA1999999099771MD1999999+0031MW1001REMSYN017333   58003 60111
0159825780999991984032200004-05083-042800FM-12+006999999V0203601N00311045001CN9999999N9+02391+02281101211ADDAA106008091AA299000091AG10999AY161061GF108991041051008001021999KA1240M+03201MA1999999100261MD1999999+0271REMSYN023333   10320 58027 60081EQDQ01+000362PRSWM1
0135825780999991984032212004-05083-042800FM-12+006999999V0200901N00211045001CN0040001N9+02621+02351101311ADDAA124028091AG10999AY161061GF106991031081008001031001KA1240N+02331MA1999999100291MD1999999+0051MW1021REMSYN023333   20233 58005 60284
0129825780999991984032300004-05083-042800FM-12+006999999V0203601N00101220001CN9999999N9+02671+01571101081ADDAA106000091AG10999AY101061GF101991011011008001001001KA1240M+03191MA1999999100051MD1999999-0211MW1021REMSYN017333   10319 59021
0129825780999991984032312004-05083-042800FM-12+006999999V0200501N00051012001CN0040001N9+02691+02461101191ADDAA106000091AG10999AY101061GF107991071081008001001001KA1240N+02391MA1999999100171MD1999999-0121MW1021REMSYN017333   20239 59012
0110825780999991984032318004-05083-042800FM-12+006999999V0200901N002619999999N0040001N9+03231+02291100791ADDAA106000091AG10999AY101061GF105991999999008001999999MA1999999099711MD1999999-0191MW1021REMSYN011333   59019
0154825780999991984032412004-05083-042800FM-12+006999999V0201401N00051012001CN0040001N9+02491+02321101241ADDAA124021091AG10999AY101061GF108991999081008001021999KA1240N+02171MA1999999100211MD1999999+0051MW1001REMSYN023333   20217 58005 60214EQDQ01+000082SCOTLC
0129825780999991984032500004-05083-042800FM-12+006999999V0201401N00101220001CN9999999N9+02531+02471101021ADDAA106000091AG10999AY101061GF101991011011008001001001KA1240M+03031MA1999999100001MD1999999-0101MW1021REMSYN017333   10303 59010
0135825780999991984032512004-05083-042800FM-12+006999999V0200501N00151007501CN0040001N9+02691+02281101281ADDAA124007091AG10999AY101061GF108991071051008001011999KA1240N+02291MA1999999100251MD1999999+0041MW1201REMSYN023333   20229 58004 60074
0110825780999991984032518004-05083-042800FM-12+006999999V0203601N00151105001CN0040001N9+03251+02361100791ADDAA106000091AG10999AY101061GF106991031081008001001071MA1999999099781MD1410001+0001MW1021REMSYN011333   58000
0121825780999991984032612004-05083-042800FM-12+006999999V0203201N00151012001CN0040001N9+99999+99999101331ADDAA124009091AG10999GF108991061081008001011001KA1240N+02321MA1999999100301MD1999999+0051REMSYN023333   20232 58005 60094
0115825780999991984032712004-05083-042800FM-12+006999999V0203601N00151105001CN0040001N9+02591+02311999999ADDAA124003091AG10999AY151061GF106991041081008001001081KA1240N+02291MA1999999100201MW1821REMSYN017333   20229 60034
0101825780999991984032718004-05083-042800FM-12+006999999V0203201N00151045001CN0040001N9+02911+02481100741ADDAA106000191AG10999AY151061GF107991041031008001011081MD1999999-0061MW1021REMSYN017333   59006 69911
0135825780999991984032800004-05083-042800FM-12+006999999V0200201N00051007501CN9999999N9+02891+01311101171ADDAA106006091AG10999AY101061GF108991081051008001999999KA1240M+03131MA1999999100141MD1999999-0031MW1201REMSYN023333   10313 59003 60061
0157825780999991984032812004-05083-042800FM-12+006999999V0203601N00151007501CN0040001N9+02481+02321101261ADDAA124006091AG10999AY151061GA1021+135009049GF107991071051008001001001KA1240N+02301MA1999999100241MD1999999+0041MW1021REMSYN029333   20230 58004 60064 82583
0110825780999991984032818004-05083-042800FM-12+006999999V0200901N00101105001CN0040001N9+03061+02331100801ADDAA106000091AG10999AY101061GF106991031031008001001031MA1999999099801MD1999999+0061MW1021REMSYN011333   58006
0129825780999991984032900004-05083-042800FM-12+006999999V0200901N00671012001CN9999999N9+02751+02281101111ADDAA106000091AG10999AY101061GF108991081081008001999999KA1240M+03071MA1999999100111MD1999999-0031MW1021REMSYN017333   10307 59003
0151825780999991984032912004-05083-042800FM-12+006999999V0200501N00101045001CN0040001N9+02781+02081101261ADDAA106000091AG10999AY101061GA1021+135009049GF106991031051008001031001KA1240N+02301MA1999999100241MD1410001+0001MW1021REMSYN023333   20230 58000 82583
0129825780999991984032918004-05083-042800FM-12+006999999V0203601N00151105001CN0040001N9+03241+02301100561ADDAA106000091AG10999AY101061GF105991041031008001001091MA1999999098752MD1999999+0051MW1021REMSYN011333   58005EQDQ01+098753APOSP 
0157825780999991984033012004-05083-042800FM-12+006999999V0201801N00051012001CN0040001N9+02731+02391101341ADDAA124012091AG10999AY151061GA1021+135009049GF106991051081008001001041KA1240N+02371MA1999999100321MD1999999+0081MW1021REMSYN029333   20237 58008 60124 82583
0130825780999991984033018004-05083-042800FM-12+006999999V0201401N00101007501CN0040001N9+03181+99999100841ADDAA106000091AG10999AY101061GF106991051021008001001041MD1999999+0091MW1021REMSYN011333   58009EQDQ01+027633ATOD  Q02+096843APOSP 
0129825780999991984033100004-05083-042800FM-12+006999999V0203201N00261220001CN9999999N9+02461+02231101191ADDAA106000091AG10999AY101061GF101991011011008001001001KA1240M+03241MA1999999100171MD1999999-0011MW1021REMSYN017333   10324 59001
0129825780999991984033112004-05083-042800FM-12+006999999V0201201N00051220001CN0040001N9+02611+02291101141ADDAA106000091AG10999AY101061GF104991011021008001031001KA1240N+02251MA1999999100121MD1999999-0101MW1021REMSYN017333   20225 59010
0110825780999991984033118004-05083-042800FM-12+006999999V0200901N004619999999N0200001N9+02831+02121100651ADDAA106000091AG10999AY101061GF107991999999008001999999MA1999999099641MD1999999-0201MW1021REMSYN011333   59020
0129825780999991984040100004-05083-042800FM-12+006999999V0200501N00101007501CN9999999N9+02571+02361101001ADDAA106000091AG10999AY101061GF108991081051008001999999KA1240M+03191MA1999999099991MD1999999-0181MW1021REMSYN017333   10319 59018
0151825780999991984040112004-05083-042800FM-12+006999999V0203201N00051012001CN0040001N9+02691+02391101291ADDAA106000091AG10999AY101061GA1021+135009049GF106991051081008001031001KA1240N+02401MA1999999100191MD1999999+0071MW1021REMSYN023333   20240 58007 82583
0135825780999991984040212004-05083-042800FM-12+006999999V0203201N00101007501CN0040001N9+02541+02331101581ADDAA124038091AG10999AY161061GF107991071091008001001001KA1240N+01121MA1999999100261MD1999999+0071MW1021REMSYN023333   20112 58007 60384
0137825780999991984040218004-05083-042800FM-12+006999999V0202701N00101220001CN0040001N9+02981+02351100402ADDAA106006091AG10999GF104991999021008001001001MA1999999099761MD1999999+0061REMSYN017333   58006 60061EQDQ01+000032SCOTLCQ02+100403APOSLP
0176825780999991984040312004-05083-042800FM-12+006999999V0202201N037019999999N9999999N9+02481+02321101341ADDAA124036091AG10999AY161061GA1021+135009049GF108991081051999999999999KA1240N+02221MA1999999100311MD1999999+0051MW1201REMSYN029333   20222 58005 60364 82583EQDQ01+000992SCOLCB
0110825780999991984040318004-05083-042800FM-12+006999999V0203601N00101220001CN0040001N9+02981+02371100801ADDAA106000091AG10999AY101061GF106991031031008001001041MA1999999099801MD1999999+0041MW1021REMSYN011333   58004
0135825780999991984040412004-05083-042800FM-12+006999999V0201801N00051007501CN0040001N9+03451+02301101361ADDAA124006091AG10999AY161061GF108991081051008001999999KA1240N+02261MA1999999100741MD1999999+0031MW1021REMSYN023333   20226 58003 60064
0129825780999991984040418004-05083-042800FM-12+006999999V0202701N00151045001CN0040001N9+03011+02421100881ADDAA106000091AG10999AY101061GF106991041021008001031041MA1999999099882MD1999999+0081MW1021REMSYN011333   58008EQDQ01+099883APOSP 
0116825780999991984040518004-05083-042800FM-12+006999999V0202301N00261045001CN0040001N9+02641+02391100851ADDAA106006091AG10999AY161061GF107991031031008001021001MA1999999100841MD1999999-0041MW1021REMSYN017333   59004 60061
0129825780999991984040600004-05083-042800FM-12+006999999V0203601N00151007501CN9999999N9+02521+02401101201ADDAA106000091AG10999AY101061GF107991071051008001001001KA1240M+03021MA1999999100181MD1999999-0071MW1021REMSYN017333   10302 59007
0135825780999991984040612004-05083-042800FM-12+006999999V0203201N00101007501CN0040001N9+02431+02331101381ADDAA124040091AG10999AY161061GF108991081051008001999999KA1240N+02271MA1999999100351MD1999999+0061MW1021REMSYN023333   20227 58006 60404
0135825780999991984040618004-05083-042800FM-12+006999999V0201801N00101045001CN9999999N9+02921+02091100961ADDAA106999929AG10999AY151061GF107991031021008001071081MA1999999099961MD1999999+0121MW1001REMSYN017333   58012 69901EQDQ01+040002VODIS 
0135825780999991984040712004-05083-042800FM-12+006999999V0200901N00151012001CN0040001N9+02541+02331101341ADDAA124007091AG10999AY161061GF106991061081008001001001KA1240N+02251MA1999999100321MD1999999-0031MW1021REMSYN023333   20225 59003 60074
0116825780999991984040718004-05083-042800FM-12+006999999V0203201N00101045001CN0040001N9+02611+02461100931ADDAA106002091AG10999AY101061GF107991041031008001011031MA1999999099921MD1999999-0041MW1211REMSYN017333   59004 60021
0135825780999991984040800004-05083-042800FM-12+006999999V0200501N00211007501CN0100001N9+02391+02311101311ADDAA106008091AG10999AY101061GF108991081071008001999999KA1240M+03081MA1999999100281MD1999999-0031MW1611REMSYN023333   10308 59003 60081
0135825780999991984040812004-05083-042800FM-12+006999999V0202701N00101007501CN0040001N9+02511+02201101341ADDAA124015091AG10999AY161061GF108991081051008001999999KA1240N+02301MA1999999100321MD1410001+0001MW1021REMSYN023333   20230 58000 60154
0110825780999991984040818004-05083-042800FM-12+006999999V0200901N00151220001CN0040001N9+03111+02291100891ADDAA106000091AG10999AY101061GF102991021021008001001001MA1999999099891MD1999999-0031MW1021REMSYN011333   59003
0135825780999991984040912004-05083-042800FM-12+006999999V0203201N00051007501CN0040001N9+02431+02251101391ADDAA124022091AG10999AY161061GF107991071051008001001001KA1240N+02141MA1999999100371MD1999999+0051MW1021REMSYN023333   20214 58005 60224
0099825780999991984040918004-05083-042800FM-12+006999999V0201401N00151220001CN0040001N9+03051+02281999999ADDAG10999AY101061GF106991031021008001001041MA1999999100921MD1999999+0031MW1021REMSYN011333   58003
0135825780999991984041012004-05083-042800FM-12+006999999V0203601N00151007501CN0040001N9+02581+02271101371ADDAA124006091AG10999AY161061GF107991071051008001001001KA1240N+02211MA1999999100351MD1999999-0021MW1021REMSYN023333   20221 59002 60064
0116825780999991984041018004-05083-042800FM-12+006999999V0202701N00151045001CN0040001N9+02901+02411101011ADDAA106002091AG10999AY161061GF106991021021008001091081MA1999999100011MD1999999+0091MW1021REMSYN017333   58009 60021
0135825780999991984041112004-05083-042800FM-12+006999999V0200501N00101220001CN0040001N9+02691+02311101431ADDAA124014091AG10999AY101061GF102991011021008001031001KA1240N+02171MA1999999100411MD1999999+0061MW1021REMSYN023333   20217 58006 60144
0110825780999991984041118004-05083-042800FM-12+006999999V0200901N00311220001CN0040001N9+03081+02241100991ADDAA106000091AG10999AY101061GF103991031021008001001001MA1999999099991MD1999999+0021MW1021REMSYN011333   58002
0135825780999991984041212004-05083-042800FM-12+006999999V0202301N00101220001CN0040001N9+02581+02311101381ADDAA124003091AG10999AY161061GF104991041021008001001001KA1240N+02241MA1999999100361MD1999999-0051MW1021REMSYN023333   20224 59005 60034
0135825780999991984041300004-05083-042800FM-12+006999999V0200501N00051012001CN9999999N9+02511+02411101191ADDAA106221091AG10999AY101061GF108991081081008001999999KA1240M+03061MA1999999100171MD1999999-0211MW1001REMSYN023333   10306 59021 62211
0135825780999991984041312004-05083-042800FM-12+006999999V0203601N00151045001CN0040001N9+02671+02411101281ADDAA124008091AG10999AY101061GF106991041081008001031001KA1240N+02321MA1999999100261MD1999999-0101MW1021REMSYN023333   20232 59010 60084
0116825780999991984041318004-05083-042800FM-12+006999999V0200501N00211045001CN0002001N9+02461+02301100981ADDAA106007091AG10999AY101061GF108991041051008001021999MA1999999099961MD1999999-0011MW1951REMSYN017333   59001 60071
0135825780999991984041400004-05083-042800FM-12+006999999V0201401N00151007501CN9999999N9+02421+02351101281ADDAA106002091AG10999AY101061GF108991081051008001999999KA1240M+03131MA1999999100261MD1999999+0041MW1631REMSYN023333   10313 58004 60021
0135825780999991984041412004-05083-042800FM-12+006999999V0200901N00151012001CN0040001N9+02721+02431101211ADDAA124019091AG10999AY161061GF106991061081008001001001KA1240N+02301MA1999999100191MD1999999-0071MW1021REMSYN023333   20230 59007 60194
0116825780999991984041418004-05083-042800FM-12+006999999V0202701N00311220001CN0040001N9+02641+02211100761ADDAA106009091AG10999AY161061GF106991041081008001001041MA1999999099751MD1999999+0211MW1021REMSYN017333   58021 60091
0135825780999991984041512004-05083-042800FM-12+006999999V0201801N00151045001CN0040001N9+02581+02291101181ADDAA124021091AG10999AY191061GF106991021021008001031001KA1240N+02251MA1999999100161MD1999999-0031MW1021REMSYN023333   20225 59003 60214
0127825780999991984041518004-05083-042800FM-12+006999999V0203601N00151045001CN0040001N9+02661+02461100831ADDAA106000291AA299000391AG10999AY151061GF107991041081008001011001MA1999999099821MD1999999+0071MW1021REMSYN017333   58007 69921
0135825780999991984041612004-05083-042800FM-12+006999999V0200501N00101007501CN0040001N9+02481+02271101281ADDAA124003091AG10999AY161061GF108991081051008001999999KA1240N+02301MA1999999100261MD1999999+0101MW1021REMSYN023333   20230 58010 60034
0149825780999991984041618004-05083-042800FM-12+006999999V0200501N00101105001CN0040001N9+02921+99999100761ADDAA106000291AA299000391AG10999AY151061GA1021+135009049GF105991031031008001001021MA1999999100761MD1999999-0061MW1001REMSYN023333   59006 69921 82583
0129825780999991984041700004-05083-042800FM-12+006999999V0203601N00151007501CN9999999N9+02561+02421101061ADDAA106000091AG10999AY101061GF107991051051008001001081KA1240M+03131MA1999999100041MD1999999-0111MW1021REMSYN017333   10313 59011
0135825780999991984041712004-05083-042800FM-12+006999999V0203601N00101045001CN0040001N9+02641+01311101301ADDAA124999929AG10999AY101061GF107991041081008001031001KA1240N+02371MA1999999100281MD1999999+0021MW1021REMSYN023333   20237 58002 69904
0061825780999991984041718004-05083-042800FM-12+006999999V0200901N00261007501CN0100001N9+02901+02341100741ADDAA106000091AG10999AY151061GF106991051031008001001081MW1021
0135825780999991984041800004-05083-042800FM-12+006999999V0203601N00211045001CN9999999N9+02351+02251101231ADDAA106014091AG10999AY161061GF108991031051008001021999KA1240M+03111MA1999999100201MD1999999+0161MW1611REMSYN023333   10311 58016 60141
0135825780999991984041812004-05083-042800FM-12+006999999V0200901N00051045001CN0040001N9+02281+02251101381ADDAA124056091AG10999AY161061GF108991031071008001021999KA1240N+02221MA1999999100351MD1999999+0071MW1531REMSYN023333   20222 58007 60564
0127825780999991984041818004-05083-042800FM-12+006999999V0200901N00151220001CN0040001N9+02921+02411100871ADDAA106000791AA299001091AG10999AY151061GF103991011021008001031041MA1999999099871MD1999999+0131MW1021REMSYN017333   58013 69971
0116825780999991984041918004-05083-042800FM-12+006999999V0200501N00101045001CN0040001N9+02691+02541100891ADDAA106001091AG10999AY101061GF107991031031008001011071MA1999999097801MD1999999+0011MW1211REMSYN017333   58001 60011
0154825780999991984042000004-05083-042800FM-12+006999999V0203601N00151007501CN0100001N9+02311+02281101261ADDAA106020091AG10999AY161061GF108991081071008001999999KA1240M+02981MA1999999100262MD1999999+0061MW1531REMSYN023333   10298 58006 60201EQDQ01+100263APOSP 
0132825780999991984042018004-05083-042800FM-12+006999999V0201401N00151045001CN0040001N9+03061+02301100881ADDAA106000091AG10999AY101061GA1021+135009049GF106991031081008001041021MA1999999099881MD1410001+0001MW1021REMSYN017333   58000 82583
0127825780999991984042100004-05083-042800FM-12+006999999V0200501N00411007501CN9999999N9+02451+02341101251ADDAA106006091AG10999GF108991061051008001021999KA1240M+03131MA1999999100231MD1999999-0031MW1211REMSYN023333   10313 59003 60061
0135825780999991984042112004-05083-042800FM-12+006999999V0200501N00051007501CN0040001N9+02531+02311101351ADDAA124009091AG10999AY161061GF108991051051008001031999KA1240N+02241MA1999999099271MD1999999+0131MW1021REMSYN023333   20224 58013 60094
0110825780999991984042118004-05083-042800FM-12+006999999V0202301N00151045001CN0040001N9+02891+02371100821ADDAA106000091AG10999AY101061GF106991031031008001011001MA1999999099821MD1999999-0061MW1021REMSYN011333   59006
0135825780999991984042200004-05083-042800FM-12+006999999V0203401N00151045001CN9999999N9+02431+02321101151ADDAA106006091AG10999AY101061GF108991041051004501011999KA1240M+02961MA1999999100131MD1999999-0101MW1211REMSYN023333   10296 59010 60061
0110825780999991984042318004-05083-042800FM-12+006999999V0200501N00101220001CN0040001N9+03151+02431100911ADDAA106000091AG10999AY101061GF106991041021008001001041MA1999999099911MD1999999+0091MW1021REMSYN011333   58009
0135825780999991984042400004-05083-042800FM-12+006999999V0203601N00051045001CN9999999N9+02421+02371101331ADDAA106001091AG10999AY161061GF108991041051008001011999KA1240M+03231MA1999999100311MD1999999-0111MW1021REMSYN023333   10323 59011 60011
0135825780999991984042412004-05083-042800FM-12+006999999V0201401N00051007501CN0040001N9+02631+02311101431ADDAA124001091AG10999AY101061GF108991081051008001999999KA1240N+02321MA1999999100411MD1999999-0011MW1021REMSYN023333   20232 59001 60014
0132825780999991984042418004-05083-042800FM-12+006999999V0201801N00211105001CN0040001N9+03071+02341100911ADDAA106000091AG10999AY101061GA1021+135009049GF106991041031008001001021MA1999999099911MD1410001+0001MW1021REMSYN017333   58000 82583
0135825780999991984042500004-05083-042800FM-12+006999999V0200501N00051012001CN9999999N9+02441+02411101271ADDAA106023091AG10999AY161061GF106991061081008001001001KA1240M+03141MA1999999100251MD1999999-0061MW1031REMSYN023333   10314 59006 60231
0135825780999991984042512004-05083-042800FM-12+006999999V0200501N00101012001CN0040001N9+02751+02431101291ADDAA124023091AG10999AY101061GF106991061081008001001001KA1240N+02321MA1999999100271MD1999999-0141MW1021REMSYN023333   20232 59014 60234
0103825780999991984042518004-05083-042800FM-12+006999999V0203201N00101007501CN0040001N9+02651+02311100741ADDAG10999AY101061GF106991061031008001001001MD1999999-0171MW1211REMSYN011333   59017EQDQ01+059743APOSP 
0146825780999991984042600004-05083-042800FM-12+006999999V0201801N00051007501CN0100001N9+02481+02381101231ADDAA106000491AA299000591AG10999AY101061GF108991081051008001999999KA1240M+03181MA1999999100211MD1999999-0041MW1611REMSYN023333   10318 59004 69941
0157825780999991984042612004-05083-042800FM-12+006999999V0203201N00101012001CN0040001N9+02471+02381101241ADDAA124021091AG10999AY161061GA1021+135009049GF106991051081008001031001KA1240N+02211MA1999999100221MD1999999-0051MW1021REMSYN029333   20221 59005 60214 82583
0110825780999991984042618004-05083-042800FM-12+006999999V0200501N00151220001CN0040001N9+03091+02351100781ADDAA106000091AG10999AY101061GF106991041021008001001041MA1999999099781MD1999999+0041MW1021REMSYN011333   58004
0129825780999991984042700004-05083-042800FM-12+006999999V0201401N00261007501CN9999999N9+02561+02421101201ADDAA106000091AG10999AY101061GF106991061021008001001001KA1240M+03121MA1999999100181MD1999999-0031MW1021REMSYN017333   10312 59003
0129825780999991984042712004-05083-042800FM-12+006999999V0200901N00151007501CN0040001N9+02631+02331101241ADDAA106000091AG10999AY101061GF107991051051008001011001KA1240N+02371MA1999999100221MD1410001+0001MW1021REMSYN017333   20237 58000
0132825780999991984042718004-05083-042800FM-12+006999999V0203601N00151105001CN0040001N9+03031+02441100811ADDAA106000091AG10999AY101061GA1021+135009049GF106991041031008001001031MA1999999099811MD1999999+0031MW1021REMSYN017333   58003 82583
0135825780999991984042812004-05083-042800FM-12+006999999V0201401N00151045001CN0040001N9+02641+02411101351ADDAA124015091AG10999AY161061GF106991031081008001031041KA1240N+02321MA1999999100331MD1999999+0111MW1021REMSYN023333   20232 58011 60154
0135825780999991984042900004-05083-042800FM-12+006999999V0203601N00151012001CN9999999N9+02311+02201101341ADDAA106000191AG10999AY101061GF108991081081008001999999KA1240M+03081MA1999999100321MD1999999+0131MW1201REMSYN023333   10308 58013 69911
0110825780999991984042918004-05083-042800FM-12+006999999V0200901N00101105001CN0040001N9+02941+02381100991ADDAA106000091AG10999AY101061GF106991021021008001031041MA1999999099991MD1999999+0031MW1021REMSYN011333   58003
0135825780999991984043000004-05083-042800FM-12+006999999V0203201N00101045001CN0040001N9+02641+02351101491ADDAA124000191AG10999AY101061GF106991041081008001051001KA1240N+02391MA1999999100471MD1999999+0071MW1021REMSYN023333   20239 58007 69914
0135825780999991984043012004-05083-042800FM-12+006999999V0203201N00101045001CN0040001N9+02641+02351101491ADDAA124000191AG10999AY101061GF106991041081008001051001KA1240N+02391MA1999999100471MD1999999+0071MW1021REMSYN023333   20239 58007 69914
0110825780999991984043018004-05083-042800FM-12+006999999V0201401N00051045001CN0040001N9+03061+99999101011ADDAA106000091AG10999AY101061GF107991041081008001011001MA1999999100011MD1999999+0021MW1021REMSYN011333   58002
0129825780999991984050100004-05083-042800FM-12+006999999V0209991C00001012001CN9999999N9+02571+02511101301ADDAA106000091AG10999AY101061GF107991071081008001001001KA1240M+03121MA1999999100281MD1999999+0011MW1021REMSYN017333   10312 58001
0135825780999991984050112004-05083-042800FM-12+006999999V0200501N00151045001CN0040001N9+02581+02381101461ADDAA124003091AG10999AY161061GF106991041081008001041001KA1240N+02341MA1999999100441MD1999999-0031MW1021REMSYN023333   20234 59003 60034
0168825780999991984050118004-05083-042800FM-12+006999999V0200901N00511220001CN9999999N9+03071+02331100971ADDAA106000891AA299001091AG10999AY161061GA1021+135009049GF106991031021008001001041MA1999999099971MD1999999-0041MW1001REMSYN023333   59004 69981 82583EQDQ01+040002VODIS 
0129825780999991984050200004-05083-042800FM-12+006999999V0203601N00151045001CN9999999N9+02521+02341101301ADDAA106000091AG10999AY101061GF108991011051008001011999KA1240M+03181MA1999999100281MD1410001+0001MW1021REMSYN017333   10318 58000
0135825780999991984050212004-05083-042800FM-12+006999999V0202701N00151045001CN0040001N9+02571+02351101491ADDAA124957092AG10999AY161061GF106991041081008001031001KA1240N+02231MA1999999100471MD1999999+0031MW1031REMSYN023333   20223 58003 69574
0132825780999991984050218004-05083-042800FM-12+006999999V0201401N00151045001CN0040001N9+03031+02391100981ADDAA106000091AG10999AY101061GA1021+135009049GF106991041021008001031001MA1999999099911MD1999999+0011MW1021REMSYN017333   58001 82583
0129825780999991984050300004-05083-042800FM-12+006999999V0201801N00101012001CN9999999N9+02551+02451101311ADDAA106000091AG10999AY101061GF107991071081008001001001KA1240M+03111MA1999999100291MD1999999+0011MW1021REMSYN017333   10311 58001
0135825780999991984050312004-05083-042800FM-12+006999999V0202701N00151045001CN0040001N9+02671+02351101461ADDAA124002091AG10999AY161061GF107991041051008001051001KA1240N+02341MA1999999100441MD1999999-0031MW1021REMSYN023333   20234 59003 60024
0110825780999991984050318004-05083-042800FM-12+006999999V0200901N00151045001CN0040001N9+02991+02371100981ADDAA106000091AG10999AY101061GF107991041081008001031081MA1999999099981MD1410001+0001MW1021REMSYN011333   58000
0135825780999991984050412004-05083-042800FM-12+006999999V0203601N00151220001CN0040001N9+02711+02331101341ADDAA124019091AG10999AY161061GF103991021021008001031041KA1240N+02171MA1999999100321MD1999999-0121MW1011REMSYN023333   20217 59012 60194
0110825780999991984050418004-05083-042800FM-12+006999999V0202301N00151045001CN0040001N9+02941+02331100981ADDAA106000091AG10999AY101061GF106991031081008001071011MA1999999099981MD1410001+0001MW1021REMSYN011333   58000
0129825780999991984050500004-05083-042800FM-12+006999999V0202301N00151220001CN9999999N9+02531+02451101321ADDAA106000091AG10999AY101061GF102991021021008001001001KA1240M+03061MA1999999100291MD1999999-0111MW1021REMSYN017333   10306 59011
0132825780999991984050518004-05083-042800FM-12+006999999V0201401N00261220001CN0040001N9+03031+02291100911ADDAA106000091AG10999AY101061GA1021+135009049GF102991021021008001001001MA1999999099911MD1999999-0071MW1021REMSYN017333   59007 82583
0129825780999991984050600004-05083-042800FM-12+006999999V0201401N00101012001CN9999999N9+02521+02401101141ADDAA106000091AG10999AY101061GF106991061081008001001001KA1240M+03101MA1999999100121MD1999999-0171MW1021REMSYN017333   10310 59017
0129825780999991984050612004-05083-042800FM-12+006999999V0203601N00101012001CN0040001N9+02631+02371101311ADDAA106000091AG10999AY101061GF107991051081008001041001KA1240N+02331MA1999999100291MD1999999-0051MW1021REMSYN017333   20233 59005
0138825780999991984050618004-05083-042800FM-12+006999999V0201801N00311045001CN0040001N9+02831+02401100941ADDAA106002091AG10999AY161061GA1021+135009049GF106991041081008001061001MA1999999099941MD1999999+0031MW1921REMSYN023333   58003 60021 82583
0135825780999991984050700004-05083-042800FM-12+006999999V0209991C00001105001CN9999999N9+02391+02351101151ADDAA106006091AG10999AY161061GF106991021021008001061041KA1240M+02931MA1999999100131MD1999999+0011MW1011REMSYN023333   10293 58001 60061
0135825780999991984050712004-05083-042800FM-12+006999999V0200901N00151105001CN0040001N9+02591+02311101311ADDAA124008091AG10999AY101061GF106991021021008001041041KA1240N+02181MA1999999100291MD1410001+0001MW1021REMSYN023333   20218 58000 60084
0110825780999991984050718004-05083-042800FM-12+006999999V0201801N00101045001CN0040001N9+02991+02371100891ADDAA106000091AG10999AY101061GF106991031031008001061001MA1999999099891MD1999999-0051MW1021REMSYN011333   59005
0129825780999991984050800004-05083-042800FM-12+006999999V0200501N00101220001CN9999999N9+02391+02331101231ADDAA106000091AG10999AY101061GF104991041021008001001001KA1240M+03041MA1999999100211MD1999999+0081MW1021REMSYN017333   10304 58008
0168825780999991984050812004-05083-042800FM-12+006999999V0201401N00151220001CN0040001N9+02691+02391101291ADDAA124000491AA299000591AG10999AY161061GA1021+135009049GF102991011011008001041001KA1240N+02201MA1999999100271MD1999999-0021MW1021REMSYN029333   20220 59002 69944 82583
0076825780999991984050818004-05083-042800FM-12+006999999V0200901N00211105001CN0040001N9+03071+02221100961ADDAA106000091AG10999AY101061GF106991021021008001001081MA1999999099961MW1021
0129825780999991984050900004-05083-042800FM-12+006999999V0209991C00001220001CN9999999N9+02521+02421101251ADDAA106000091AG10999AY101061GF102991021021008001001001KA1240M+03091MA1999999100231MD1999999+0021MW1021REMSYN017333   10309 58002
0129825780999991984050912004-05083-042800FM-12+006999999V0203601N00101012001CN0040001N9+99999+99999101411ADDAA106000091AG10999AY101061GF106991061081008001001001KA1240N+02351MA1999999100391MD1999999+0121MW1021REMSYN017333   20235 58012
0129825780999991984051000004-05083-042800FM-12+006999999V0201801N00051220001CN9999999N9+02551+02451101211ADDAA106000091AG10999AY101061GF104991041021008001001001KA1240M+03151MA1999999100191MD1999999-0041MW1021REMSYN017333   10315 59004
0129825780999991984051012004-05083-042800FM-12+006999999V0201401N00151220001CN0040001N9+02821+02381101211ADDAA106000091AG10999AY101061GF102991021021008001001001KA1240N+02291MA1999999100191MD1999999-0201MW1021REMSYN017333   20229 59020
0110825780999991984051018004-05083-042800FM-12+006999999V0200201N00931220001CN0040001N9+03101+02181100831ADDAA106000091AG10999AY101061GF102991011021008001041001MA1999999099831MD1999999-0081MW1021REMSYN011333   59008
0129825780999991984051100004-05083-042800FM-12+006999999V0201401N00051007501CN9999999N9+02621+02481101041ADDAA106000091AG10999AY101061GF107991051051008001001071KA1240M+03131MA1999999100031MD1999999-0161MW1021REMSYN017333   10313 59016
0110825780999991984051118004-05083-042800FM-12+006999999V0201401N00211220001CN0040001N9+03021+02161100701ADDAA106000091AG10999AY101061GF106991031021008001001041MA1999999099701MD1999999-0131MW1021REMSYN011333   59013
0146825780999991984051512004-05083-042800FM-12+006999999V0209999999999220001CN0040001N9+02701+02351101211ADDAA124000791AA299001091AG10999AY101061GF103991031021008001001001KA1240N+02261MA1999999100191MD1999999-0151MW1021REMSYN023333   20226 59015 69974
0129825780999991984051518004-05083-042800FM-12+006999999V0200901N001519999999N0040001N9+03151+02241100771ADDAA106000091AG10999AY101061GF106991999021008001001001MA1999999099771MD1999999-0121MW1021REMSYN011333   59012EQDQ01+000032SCOTLC
0129825780999991984051600004-05083-042800FM-12+006999999V0201801N00051012001CN9999999N9+02431+02301101011ADDAA106000091AG10999AY101061GF108991081081008001999999KA1240M+03211MA1999999100471MD1999999-0181MW1021REMSYN017333   10321 59018
0129825780999991984051612004-05083-042800FM-12+006999999V0202301N00101220001CN0040001N9+02791+02361101121ADDAA106000091AG10999AY101061GF104991011021008001001041KA1240N+02211MA1999999100101MD1999999-0091MW1021REMSYN017333   20221 59009
0110825780999991984051618004-05083-042800FM-12+006999999V0200901N00151220001CN0040001N9+03141+02321100741ADDAA106000091AG10999AY101061GF106991021021008001001041MA1999999099741MD1999999-0031MW1021REMSYN011333   59003
0135825780999991984051712004-05083-042800FM-12+006999999V0200501N00051045001CN0040001N9+02551+02331101311ADDAA124033091AG10999AY101061GF107991041051008001031001KA1240N+02251MA1999999100291MD1999999+0191MW1021REMSYN023333   20225 58019 60334
0110825780999991984051718004-05083-042800FM-12+006999999V0201401N00211045001CN0040001N9+03011+02321100941ADDAA106000091AG10999AY101061GF106991031021008001041041MA1999999099941MD1999999+0201MW1021REMSYN011333   58020
0129825780999991984051812004-05083-042800FM-12+006999999V0201401N00101045001CN0040001N9+02511+02311101351ADDAA106000091AG10999AY101061GF106991041051008001031001KA1240N+02181MA1999999100331MD1999999+0041MW1021REMSYN017333   20218 58004
0110825780999991984051818004-05083-042800FM-12+006999999V0202301N00211012001CN0200001N9+02891+02231101011ADDAA106000091AG10999AY101061GF106991061081008001001001MA1999999100011MD1999999+0071MW1021REMSYN011333   58007
0129825780999991984051912004-05083-042800FM-12+006999999V0202701N00101220001CN0040001N9+02711+02331101361ADDAA106000091AG10999AY101061GF103991021021008001031001KA1240N+02261MA1999999100341MD1999999+0011MW1021REMSYN017333   20226 58001
0110825780999991984051918004-05083-042800FM-12+006999999V0201401N00211220001CN0040001N9+03021+02411100941ADDAA106000091AG10999AY101061GF104991041031008001001001MA1999999099941MD1999999-0071MW1021REMSYN011333   59007
0129825780999991984052000004-05083-042800FM-12+006999999V0200501N00051012001CN9999999N9+02571+02401101181ADDAA106000091AG10999AY101061GF108991081081008001999999KA1240M+03141MA1999999100161MD1999999-0081MW1021REMSYN017333   10314 59008
0135825780999991984052012004-05083-042800FM-12+006999999V0200901N00151045001CN0040001N9+02571+02351101221ADDAA124006091AG10999AY161061GF106991031021008001031001KA1240N+02321MA1999999099951MD1999999-0141MW1021REMSYN023333   20232 59014 60064
0110825780999991984052018004-05083-042800FM-12+006999999V0201401N00261220001CN0040001N9+03021+02341100791ADDAA106000091AG10999AY101061GF102991011021008001031001MA1999999099791MD1999999-0151MW1021REMSYN011333   59015
0129825780999991984052100004-05083-042800FM-12+006999999V0203601N00101105001CN9999999N9+02541+02401101021ADDAA106000091AG10999AY101061GF107991041021008001001071KA1240M+03061MA1999999100001MD1999999-0161MW1021REMSYN017333   10306 59016
0135825780999991984052112004-05083-042800FM-12+006999999V0200501N00101220001CN0040001N9+02741+02401101211ADDAA124011091AG10999AY161061GF106991041021008001001041KA1240N+02341MA1999999100191MD1999999-0011MW1021REMSYN023333   20234 59001 60114
0146825780999991984052118004-05083-042800FM-12+006999999V0200901N00261220001CN0040001N9+03101+02411100801ADDAA106000191AA299000091AG10999AY151061GF106991041011008001001041MA1999999099801MD1999999+0011MW1031REMSYN017333   58001 69911EQDQ01+999990APOSLP
0129825780999991984052200004-05083-042800FM-12+006999999V0203601N00051007501CN9999999N9+02451+02371101161ADDAA106000091AG10999AY101061GF106991061031008001001001KA1240M+03121MA1999999100141MD1999999+0141MW1021REMSYN017333   10312 58014
0135825780999991984052212004-05083-042800FM-12+006999999V0203201N00151007501CN0040001N9+02551+02361101291ADDAA124000391AG10999AY101061GF107991071051008001001001KA1240N+02271MA1999999100971MD1999999+0081MW1021REMSYN023333   20227 58008 69934
0129825780999991984052218004-05083-042800FM-12+006999999V0200501N00261007501CN0040001N9+02811+02441100971ADDAA106000091AG10999AY101061GF106991051031008001041001MA1999999099952MD1999999+0151MW1021REMSYN011333   58015EQDQ01+099953APOSP 
0129825780999991984052300004-05083-042800FM-12+006999999V0201401N00101012001CN9999999N9+02571+02491101231ADDAA106000091AG10999AY101061GF107991071081008001001001KA1240M+03031MA1999999100501MD1999999+0061MW1021REMSYN017333   10303 58006
0110825780999991984052318004-05083-042800FM-12+006999999V0201401N00311045001CN0040001N9+03051+02431100891ADDAA106000091AG10999AY101061GF106991041031008001061001MA1999999099891MD1999999-0061MW1021REMSYN011333   59006
0135825780999991984052412004-05083-042800FM-12+006999999V0201401N00261105001CN0040001N9+02731+02301101201ADDAA124002091AG10999AY101061GF106991011011008001051041KA1240N+02181MA1999999100181MD1999999-0111MW1021REMSYN023333   20218 59011 60024
0138825780999991984052418004-05083-042800FM-12+006999999V0201401N00151012001CN0040001N9+02851+02331100851ADDAA106000191AG10999AY151061GA1021+135009049GF107991051081008001011001MA1999999100751MD1999999-0041MW1011REMSYN023333   59004 69911 82583
0129825780999991984052500004-05083-042800FM-12+006999999V0209991C00001220001CN9999999N9+02461+02411101151ADDAA106000091AG10999AY101061GF102991001001999999001081KA1240M+03041MA1999999100131MD1999999+0041MW1021REMSYN017333   10304 58004
0135825780999991984052512004-05083-042800FM-12+006999999V0200901N00261220001CN0040001N9+02761+02321101281ADDAA124001091AG10999AY101061GF106991021021008001001041KA1240N+02281MA1999999100261MD1999999+0081MW1021REMSYN023333   20228 58008 60014
0129825780999991984052518004-05083-042800FM-12+006999999V0201401N00101220001CN0040001N9+03081+02241100561ADDAA106000091AG10999AY101061GF103991999021008001001001MA1999999099851MD1999999-0021MW1021REMSYN011333   59002EQDQ01+000012SCOTLC
0129825780999991984052612004-05083-042800FM-12+006999999V0200901N00211220001CN0040001N9+02761+02321101231ADDAA106000091AG10999AY101061GF107991011011008001001041KA1240N+02131MA1999999100211MD1999999-0051MW1021REMSYN017333   20213 59005
0129825780999991984052700004-05083-042800FM-12+006999999V0209991C00001220001CN9999999N9+02411+02301101121ADDAA106000091AG10999AY101061GF100991001001999999001001KA1240M+03231MA1999999100091MD1999999+0091MW1021REMSYN017333   10323 58009
0110825780999991984052718004-05083-042800FM-12+006999999V0200901N00311220001CN0040001N9+03091+02161100901ADDAA106000091AG10999AY101061GF101991011021008001001001MA1999999099901MD1999999-0011MW1021REMSYN011333   59001
0148825780999991984052800004-05083-042800FM-12+006999999V0201401N00101220001CN9999999N9+02451+02321101121ADDAA106000091AG10999AY101061GF101991011021008001001001KA1240M+03141MA1999999100101MD1999999+0011MW1021REMSYN017333   10314 58001EQDQ01+999990APOSLP
0129825780999991984052812004-05083-042800FM-12+006999999V0201401N00211220001CN0040001N9+02551+02041101321ADDAA106000091AG10999AY101061GF101991001001999999001041KA1240N+02001MA1999999100301MD1999999+0081MW1021REMSYN017333   20200 58008
0110825780999991984052818004-05083-042800FM-12+006999999V0201401N00311220001CN0040001N9+03071+99999100971ADDAA106000091AG10999AY101061GF101991011011017501031001MA1999999099941MD1999999+0041MW1021REMSYN011333   58004
0129825780999991984052900004-05083-042800FM-12+006999999V0201401N00101220001CN9999999N9+02371+02241101111ADDAA106000091AG10999AY101061GF102991021011008001001001KA1240M+03121MA1999999100201MD1999999+0101MW1021REMSYN017333   10312 58010
0129825780999991984052912004-05083-042800FM-12+006999999V0200901N00101220001CN0040001N9+02661+99999101351ADDAA106000091AG10999AY101061GF101991001001999999001041KA1240N+02001MA1999999100331MD1999999+0031MW1021REMSYN017333   20200 58003
0110825780999991984052918004-05083-042800FM-12+006999999V0201401N00211220001CN0040001N9+03111+02031101051ADDAA106000091AG10999AY101061GF102991011011008001001041MA1999999100051MD1999999+0111MW1021REMSYN011333   58011
0129825780999991984053000004-05083-042800FM-12+006999999V0209999999999220001CN9999999N9+02311+02131101271ADDAA106000091AG10999AY101061GF100991001001999999001001KA1240M+03191MA1999999100251MD1999999+0051MW1021REMSYN017333   10319 58005
0129825780999991984053012004-05083-042800FM-12+006999999V0200901N00151220001CN0040001N9+02621+02141101311ADDAA106000091AG10999AY101061GF101991001001999999001041KA1240N+01941MA1999999100291MD1999999-0041MW1021REMSYN017333   20194 59004
0132825780999991984053018004-05083-042800FM-12+006999999V0201401N00211220001CN0040001N9+03131+02111101021ADDAA106000091AG10999AY101061GA1021+135009049GF102991011021008001001001MA1999999100021MD1999999-0031MW1021REMSYN017333   59003 82583
0129825780999991984053100004-05083-042800FM-12+006999999V0200901N00101220001CN9999999N9+02731+02301101301ADDAA106000091AG10999AY101061GF100991001001999999001001KA1240M+03181MA1999999100271MD1999999+0021MW1021REMSYN017333   10318 58002
0129825780999991984053112004-05083-042800FM-12+006999999V0200901N00101220001CN0040001N9+02591+02291101471ADDAA106000091AG10999AY101061GF106991021021008001001041KA1240N+02131MA1999999100451MD1999999+0161MW1021REMSYN017333   20213 58016
0129825780999991984053118004-05083-042800FM-12+006999999V0201401N00261220001CN0040001N9+03151+02211101071ADDAA106000091AG10999AY101061GF102991999021008001001001MA1999999100071MD1999999+0051MW1021REMSYN011333   58005EQDQ01+000012SCOTLC
0129825780999991984060100004-05083-042800FM-12+006999999V0209991C00001220001CN9999999N9+02451+02281101281ADDAA106000091AG10999AY101061GF100991001001999999001001KA1240M+03181MA1999999100261MD1999999-0011MW1021REMSYN017333   10318 59001
0129825780999991984060112004-05083-042800FM-12+006999999V0201401N00361220001CN0040001N9+02591+01871101581ADDAA106000091AG10999AY101061GF100991001001999999001001KA1240N+02041MA1999999100961MD1999999+0111MW1021REMSYN017333   20204 58011
0132825780999991984060118004-05083-042800FM-12+006999999V0201401N00211220001CN0040001N9+03071+02151101241ADDAA106000091AG10999AY101061GA1021+135009049GF102991021021008001001001MA1999999100231MD1999999+0161MW1021REMSYN017333   58016 82583
0129825780999991984060200004-05083-042800FM-12+006999999V0209999999999220001CN9999999N9+02451+02321101471ADDAA106000091AG10999AY101061GF104991041021008001001001KA1240M+03111MA1999999100451MD1999999+0191MW1021REMSYN017333   10311 58019
0076825780999991984060212004-05083-042800FM-12+006999999V0200901N00511220001CN0040001N9+02711+01991101551ADDAA106000091AG10999AY101061GF102991011001017501031041MA1999999100531MW1021
0110825780999991984060218004-05083-042800FM-12+006999999V0200901N00311220001CN0040001N9+03061+01901101221ADDAA106000091AG10999AY101061GF102991011001017501031041MA1999999100221MD1999999-0011MW1021REMSYN011333   59001
0129825780999991984060300004-05083-042800FM-12+006999999V0209991C000019999999N9999999N9+02631+02391101381ADDAA106000091AG10999AY101061GF106991999999008001999999KA1240M+03121MA1999999100361MD1999999-0091MW1021REMSYN017333   10312 59009
0129825780999991984060312004-05083-042800FM-12+006999999V0201401N00361220001CN0040001N9+02531+01931101371ADDAA106000091AG10999AY101061GF101991001001999999001011KA1240N+02021MA1999999100351MD1999999-0181MW1021REMSYN017333   20202 59018
0110825780999991984060318004-05083-042800FM-12+006999999V0201401N00211220001CN0040001N9+03051+02091101031ADDAA106000091AG10999AY101061GF102991021021008001001001MA1999999100031MD1999999-0191MW1021REMSYN011333   59019
0129825780999991984060400004-05083-042800FM-12+006999999V0200501N00051012001CN9999999N9+02461+02321101631ADDAA106000091AG10999AY101061GF106991061081008001001001KA1240M+03111MA1999999100211MD1999999-0151MW1021REMSYN017333   10311 59015
0129825780999991984060412004-05083-042800FM-12+006999999V0201401N00211220001CN0040001N9+02641+02251101341ADDAA106000091AG10999AY101061GF104991011011008001001011KA1240N+02061MA1999999100321MD1999999-0031MW1021REMSYN017333   20206 59003
0132825780999991984060418004-05083-042800FM-12+006999999V0200901N00101220001CN0040001N9+03111+02151101001ADDAA106000091AG10999AY101061GA1021+135009049GF106991031021012501001041MA1999999100001MD1999999-0031MW1021REMSYN017333   59003 82583
0129825780999991984060500004-05083-042800FM-12+006999999V0203601N00101045001CN9999999N9+02511+02321101241ADDAA106000091AG10999AY101061GF105991031081008001041001KA1240M+03241MA1999999100221MD1999999+0011MW1021REMSYN017333   10324 58001
0129825780999991984060512004-05083-042800FM-12+006999999V0200901N00211045001CN0040001N9+02621+02231101481ADDAA106000091AG10999AY101061GF106991041051008001031001KA1240N+02251MA1999999100461MD1999999+0141MW1021REMSYN017333   20225 58014
0138825780999991984060518004-05083-042800FM-12+006999999V0201801N00211045001CN0040001N9+02461+02231101191ADDAA106007091AG10999AY161061GA1021+135009049GF107991041081008001021001MA1999999100171MD1999999-0071MW1211REMSYN023333   59007 60071 82583
0129825780999991984060600004-05083-042800FM-12+006999999V0201401N00101105001CN9999999N9+02411+02281101701ADDAA106000091AG10999AY101061GF108991001001999999001081KA1240M+02911MA1999999100381MD1999999+0161MW1021REMSYN017333   10291 58016
0135825780999991984060612004-05083-042800FM-12+006999999V0200201N00151220001CN0040001N9+02711+02301101401ADDAA124007091AG10999AY101061GF102991021011008001001001KA1240N+02161MA1999999100381MD1999999+0081MW1021REMSYN023333   20216 58008 60074
0110825780999991984060618004-05083-042800FM-12+006999999V0200901N00311220001CN0040001N9+03141+02271101091ADDAA106000091AG10999AY101061GF102991021021008001001001MA1999999100091MD1999999-0031MW1021REMSYN011333   59003
0129825780999991984060700004-05083-042800FM-12+006999999V0200901N00101220001CN9999999N9+02491+02341101291ADDAA106000091AG10999AY101061GF102991021001017501041001KA1240M+03541MA1999999100271MD1999999-0111MW1021REMSYN017333   10354 59011
0110825780999991984060718004-05083-042800FM-12+006999999V0201401N00311012001CN0040001N9+03141+02131100991ADDAA106000091AG10999AY101061GF105991051081008001001001MA1999999099991MD1999999-0101MW1021REMSYN011333   59010
0129825780999991984060800004-05083-042800FM-12+006999999V0203601N00051220001CN9999999N9+02451+02281101271ADDAA106000091AG10999AY101061GF102991021001017501041001KA1240M+03161MA1999999100251MD1999999-0021MW1021REMSYN017333   10316 59002
0110825780999991984060818004-05083-042800FM-12+006999999V0200901N00211045001CN0040001N9+03101+02201100871ADDAA106000091AG10999AY101061GF106991041081008001031001MA1999999099871MD1999999-0121MW1021REMSYN011333   59012
0129825780999991984060912004-05083-042800FM-12+006999999V0200701N00211220001CN0040001N9+02711+02221101331ADDAA106000091AG10999AY101061GF101991011011008001001001KA1240N+02101MA1999999090111MD1999999-0021MW1021REMSYN017333   20210 59002
0129825780999991984060918004-05083-042800FM-12+006999999V0201401N00101220001CN0040001N9+03151+02101100981ADDAA106000091AG10999AY101061GF103991031021008001001001MA1999999099962MD1999999+0091MW1021REMSYN011333   58009EQDQ01+099963APOSP 
0129825780999991984061012004-05083-042800FM-12+006999999V0201401N00101220001CN0040001N9+02791+02341101351ADDAA106000091AG10999AY101061GF101991011011008001001001KA1240N+02251MA1999999100331MD1999999+0021MW1021REMSYN017333   20225 58002
0110825780999991984061018004-05083-042800FM-12+006999999V0200901N00261220001CN0040001N9+03171+02201100951ADDAA106000091AG10999AY101061GF102991021021008001001001MA1999999099951MD1999999-0011MW1021REMSYN011333   59001
0129825780999991984061112004-05083-042800FM-12+006999999V0200901N00261007501CN0040001N9+02731+02281101391ADDAA106000091AG10999AY101061GF106991061021008001001001KA1240N+02221MA1999999100371MD1999999+0041MW1021REMSYN017333   20222 58004
0110825780999991984061118004-05083-042800FM-12+006999999V0200501N00211220001CN0040001N9+03091+02011101001ADDAA106000091AG10999AY101061GF102991021021008001001001MA1999999100001MD1999999+0051MW1021REMSYN011333   58005
0148825780999991984061200004-05083-042800FM-12+006999999V0200501N04632015001CN9999999N9+02591+02211101661ADDAA106000091AG10999AY101061GF107991071001017501031001KA1240M+03211MA1999999100331MD1999999+0211MW1021REMSYN017333   10321 58021EQDQ01+004633WOSPD 
0129825780999991984061212004-05083-042800FM-12+006999999V0200901N00311220001CN0040001N9+02711+02131101471ADDAA106000091AG10999AY101061GF101991011011008001001001KA1240N+02241MA1999999100451MD1410001+0001MW1021REMSYN017333   20224 58000
0110825780999991984061218004-05083-042800FM-12+006999999V0200901N00211220001CN0040001N9+03121+02021101041ADDAA106000091AG10999AY101061GF102991021021008001001001MA1999999100041MD1999999+0041MW1021REMSYN011333   58004
0129825780999991984061300004-05083-042800FM-12+006999999V0209999999999015001CN9999999N9+02521+02341101281ADDAA106000091AG10999AY101061GF108991081001017501031999KA1240M+03171MA1999999100251MD1999999-0081MW1021REMSYN017333   10317 59008
0129825780999991984061312004-05083-042800FM-12+006999999V0201401N00151220001CN0040001N9+02591+02301101371ADDAA106000091AG10999AY101061GF102991021001017501011001KA1240N+02261MA1999999100351MD1999999-0101MW1021REMSYN017333   20226 59010
0132825780999991984061318004-05083-042800FM-12+006999999V0200901N00151220001CN0040001N9+03161+02261100971ADDAA106000091AG10999AY101061GA1021+135009049GF102991021021008001001001MA1999999099971MD1999999-0071MW1021REMSYN017333   59007 82583
0129825780999991984061400004-05083-042800FM-12+006999999V0200501N00051220001CN9999999N9+02451+02281101181ADDAA106000091AG10999AY101061GF101991011021008001001001KA1240M+03221MA1999999100101MD1999999-0151MW1021REMSYN017333   10322 59015
0129825780999991984061412004-05083-042800FM-12+006999999V0201401N00311220001CN0040001N9+02631+02071101361ADDAA106000091AG10999AY101061GF100991001001999999001001KA1240N+02141MA1999999100341MD1999999-0011MW1021REMSYN017333   20214 59001
0145825780999991984061418004-05083-042800FM-12+006999999V0201401N00211220001CN0040001N9+03121+02031101041ADDAA106000091AG10999AY101061GF102991021021008001001001MA1999999100041MD1999999+0071MW1021REMSYN011333   58007EQDQ01+099043APOSP Q02+999990APOSP 
0129825780999991984061500004-05083-042800FM-12+006999999V0201801N00051220001CN9999999N9+02361+02191101191ADDAA106000091AG10999AY101061GF101991011011008001001001KA1240M+03161MA1999999100171MD1999999+0071MW1021REMSYN017333   10316 58007
0170825780999991984061512004-05083-042800FM-12+006999999V0201401N00311220001CN0040001N9+02721+02121101491ADDAA106000091AG10999AY101061GA1021+135009049GF199999001001999999001001KA1240N+02081MA1999999101131MD1999999+0131MW1021REMSYN023333   20208 58013 82583EQDQ01+000002SCOTCV
0145825780999991984061518004-05083-042800FM-12+006999999V0200901N003619999999N0040001N9+03141+02001101171ADDAA106000091AG10999AY101061GF105991999011008001001001MA1999999100172MD1999999+0131MW1021REMSYN011333   58013EQDQ01+000012SCOTLCQ02+100173APOSP 
0129825780999991984061600004-05083-042800FM-12+006999999V0201801N00051220001CN9999999N9+02421+02231101381ADDAA106000091AG10999AY101061GF100991001001999999001001KA1240M+03191MA1999999100361MD1999999+0191MW1021REMSYN017333   10319 58019
0129825780999991984061612004-05083-042800FM-12+006999999V0201401N00211220001CN0040001N9+02651+02031101461ADDAA106000091AG10999AY101061GF100991001001999999001001KA1240N+01961MA1999999100441MD1999999-0031MW1021REMSYN017333   20196 59003
0076825780999991984061618004-05083-042800FM-12+006999999V0201401N00261220001CN0040001N9+03171+02021101101ADDAA106000091AG10999AY101061GF103991031021008001001001MA1999999100101MW1021
0110825780999991984061718004-05083-042800FM-12+006999999V0201401N00261220001CN0040001N9+03141+02001101021ADDAA106000091AG10999AY101061GF102991021021008001001001MA1999999100021MD1999999-0081MW1021REMSYN011333   59008
0129825780999991984061800004-05083-042800FM-12+006999999V0201401N00051220001CN9999999N9+02381+02211101161ADDAA106000091AG10999AY101061GF100991001001999999001001KA1240M+03201MA1999999100141MD1999999-0061MW1021REMSYN017333   10320 59006
0110825780999991984061818004-05083-042800FM-12+006999999V0200901N00211220001CN0040001N9+03151+01801101111ADDAA106000091AG10999AY101061GF102991011011008001031001MA1999999100111MD1999999+0091MW1021REMSYN011333   58009
0151825780999991984061912004-05083-042800FM-12+006999999V0201401N00211045001CN0040001N9+02641+02051101561ADDAA106000091AG10999AY101061GA1021+135009049GF106991011021008001051001KA1240N+02031MA1999999100541MD1999999+0181MW1021REMSYN023333   20203 58018 82583
0110825780999991984061918004-05083-042800FM-12+006999999V0201401N00261220001CN0040001N9+03181+01871101241ADDAA106000091AG10999AY101061GF102991011021008001031001MA1999999100241MD1999999+0151MW1021REMSYN011333   58015
0129825780999991984062000004-05083-042800FM-12+006999999V0200901N00101220001CN9999999N9+02241+02121101501ADDAA106000091AG10999AY101061GF100991001001999999001001KA1240M+03201MA1999999100481MD1999999+0221MW1021REMSYN017333   10320 58022
0129825780999991984062012004-05083-042800FM-12+006999999V0201401N00261220001CN0040001N9+02551+01911101631ADDAA106000091AG10999AY101061GF100991001001999999001001KA1240N+01881MA1999999100611MD1999999+0071MW1021REMSYN017333   20188 58007
0110825780999991984062018004-05083-042800FM-12+006999999V0201401N00261220001CN0040001N9+03091+01921101191ADDAA106000091AG10999AY101061GF102991021021008001001001MA1999999100191MD1999999-0051MW1021REMSYN011333   59005
0148825780999991984062100004-05083-042800FM-12+006999999V0200901N00051220001CN9999999N9+02331+01251101361ADDAA106000091AG10999AY101061GF101991999011008001001001KA1240M+03151MA1999999100341MD1999999-0141MW1021REMSYN017333   10315 59014EQDQ01+000002SCOTLC
0129825780999991984062112004-05083-042800FM-12+006999999V0201401N00261220001CN0040001N9+02531+01861101521ADDAA106000091AG10999AY101061GF101991001001999999001041KA1240N+01881MA1999999100501MD1999999-0111MW1021REMSYN017333   20188 59011
0129825780999991984062212004-05083-042800FM-12+006999999V0201401N00311045001CN0040001N9+02591+01821101501ADDAA106000091AG10999AY101061GF106991031051008001031001KA1240N+02041MA1999999100481MD1999999-0021MW1021REMSYN017333   20204 59002
0110825780999991984062218004-05083-042800FM-12+006999999V0201401N00211220001CN0040001N9+03141+01941101111ADDAA106000091AG10999AY101061GF102991021021008001001001MA1999999100111MD1999999-0011MW1021REMSYN011333   59001
0165825780999991984062312004-05083-042800FM-12+006999999V0200901N00311220001CN9999999N9+02741+02101101471ADDAA124000291AA299000391AG10999AY161061GF100991001001999999001001KA1240N+02161MA1999999100451MD1999999-0031MW1001REMSYN023333   20216 59003 69924EQDQ01+040002VODIS 
0110825780999991984062318004-05083-042800FM-12+006999999V0201401N00151220001CN0040001N9+03101+01841101151ADDAA106000091AG10999AY101061GF102991011011008001001041MA1999999100151MD1999999+0041MW1021REMSYN011333   58004
0129825780999991984062412004-05083-042800FM-12+006999999V0203401N00461220001CN0040001N9+02691+01921101481ADDAA106000091AG10999AY101061GF101991999999999999999999KA1240N+01941MA1999999100461MD1999999+0011MW1021REMSYN017333   20194 58001
0110825780999991984062418004-05083-042800FM-12+006999999V0201401N00411105001CN0040001N9+03141+01661101161ADDAA106000091AG10999AY101061GF105991011011008001001071MA1999999100141MD1999999-0011MW1021REMSYN011333   59001
0129825780999991984062512004-05083-042800FM-12+006999999V0201401N00411220001CN0040001N9+02511+01841101581ADDAA106000091AG10999AY101061GF100991001001999999001001KA1240N+01901MA1999999100561MD1999999+0101MW1021REMSYN017333   20190 58010
0132825780999991984062518004-05083-042800FM-12+006999999V0201401N00211220001CN0040001N9+03091+01641101071ADDAA106000091AG10999AY101061GA1021+135009049GF102991021021008001001001MA1999999100061MD1999999-0081MW1021REMSYN017333   59008 82583
0110825780999991984062618004-05083-042800FM-12+006999999V0201401N00261220001CN0040001N9+99999+99999101241ADDAA106000091AG10999AY101061GF102991021021008001001001MA1999999100141MD1999999+0081MW1021REMSYN011333   58008
0129825780999991984062700004-05083-042800FM-12+006999999V0209991C00001220001CN9999999N9+02351+02151101401ADDAA106000091AG10999AY101061GF100991001001999999001001KA1240M+03201MA1999999100371MD1999999+0131MW1021REMSYN017333   10320 58013
0110825780999991984062718004-05083-042800FM-12+006999999V0200501N00151220001CN0040001N9+03281+01871101131ADDAA106000091AG10999AY101061GF103991011021008001031021MA1999999100161MD1999999-0011MW1021REMSYN011333   59001
0129825780999991984062800004-05083-042800FM-12+006999999V0203201N00101220001CN9999999N9+02521+02111101401ADDAA106000091AG10999AY101061GF100991001001999999001001KA1240M+03311MA1999999100311MD1410001+0001MW1021REMSYN017333   10331 58000
0129825780999991984062812004-05083-042800FM-12+006999999V0201401N00211012001CN0040001N9+02521+02231101631ADDAA106000091AG10999AY101061GF106991061081008001001001KA1240N+02081MA1999999100601MD1999999+0151MW1021REMSYN017333   20208 58015
0110825780999991984062818004-05083-042800FM-12+006999999V0200901N00261220001CN0040001N9+03121+99999101221ADDAA106000091AG10999AY101061GF102991011021008001031001MA1999999100211MD1999999+0081MW1021REMSYN011333   58008
0129825780999991984062900004-05083-042800FM-12+006999999V0200501N00101007501CN9999999N9+02491+02361101481ADDAA106000091AG10999AY101061GF106991061031008001001001KA1240M+03191MA1999999100451MD1999999+0081MW1021REMSYN017333   10319 58008
0129825780999991984062912004-05083-042800FM-12+006999999V0200901N00151220001CN0040001N9+02751+02141101581ADDAA106000091AG10999AY101061GF101991011011008001001001KA1240N+02171MA1999999100551MD1999999-0051MW1021REMSYN017333   20217 59005
0110825780999991984062918004-05083-042800FM-12+006999999V0200901N00151220001CN0040001N9+03231+01881101101ADDAA106000091AG10999AY101061GF102991999999008001999999MA1999999100161MD1999999-0051MW1021REMSYN011333   59005
0116825780999991984063000004-05083-042800FM-12+006999999V0209991C00001220001CN9999999N9+02391+02151101211ADDAA106000091AG10999AY101061GF100991001001999999001001MA1999999100811MD1999999-0641MW1021REMSYN017333   10/25 59064
0129825780999991984070100004-05083-042800FM-12+006999999V0209991C00001007501CN9999999N9+02481+02191101181ADDAA106000091AG10999AY101061GF105991051021008001001001KA1240M+03301MA1999999100161MD1999999-0051MW1021REMSYN017333   10330 59005
0090825780999991984070112004-05083-042800FM-12+006999999V0200901N00151220001CN0040001N9+02701+01991101391ADDAA106000091AG10999AY101061GF100991001001999999001001MA1999999100371MD1810011+9999MW1021
0110825780999991984070118004-05083-042800FM-12+006999999V0200901N00411220001CN0040001N9+03201+01931101051ADDAA106000091AG10999AY101061GF102991999999008001999999MA1999999100051MD1999999+0081MW1021REMSYN011333   58008
0110825780999991984070218004-05083-042800FM-12+006999999V0201401N00151012001CN0040001N9+03091+02071101131ADDAA106000091AG10999AY101061GF106991061081008001001001MA1999999100121MD1999999+0071MW1021REMSYN011333   58007
0135825780999991984070312004-05083-042800FM-12+006999999V0201401N00571220001CN0040001N9+02291+02111101431ADDAA124000191AG10999AY151061GF102991011011008001031001KA1240N+02021MA1999999100411MD1999999-0041MW1031REMSYN023333   20202 59004 69914
0110825780999991984070318004-05083-042800FM-12+006999999V0201401N00261220001CN0040001N9+03131+02081101141ADDAA106000091AG10999AY101061GF102991021021008001001001MA1999999100101MD1999999-0021MW1021REMSYN011333   59002
0129825780999991984070500004-05083-042800FM-12+006999999V0209991C00001220001CN9999999N9+02341+02131101141ADDAA106000091AG10999AY101061GF100991001001999999001001KA1240M+03261MA1999999100121MD1999999-0121MW1021REMSYN017333   10326 59012
0129825780999991984070512004-05083-042800FM-12+006999999V0200901N00101220001CN0040001N9+02691+02061101291ADDAA106000091AG10999AY101061GF101991011011008001001001KA1240N+01961MA1999999100271MD1999999-0031MW1021REMSYN017333   20196 59003
0110825780999991984070518004-05083-042800FM-12+006999999V0200501N00151220001CN0040001N9+03261+01881100871ADDAA106000091AG10999AY101061GF103991021021008001001041MA1999999099871MD1999999-0071MW1021REMSYN011333   59007
0118825780999991984070600004-05083-042800FM-12+006999999V0201801N00051220001CN9999999N9+02391+02111101091ADDAG10999AY101061GF102991021021008001001001KA1240M+03331MA1999999100071MD1999999-0051MW1021REMSYN017333   10333 59005
0129825780999991984070612004-05083-042800FM-12+006999999V0201401N00151220001CN0040001N9+02651+02201101321ADDAA106000091AG10999AY101061GF102991021021008001001001KA1240N+01891MA1999999100301MD1999999-0031MW1021REMSYN017333   20189 59003
0151825780999991984070618004-05083-042800FM-12+006999999V0200901N00211220001CN0040001N9+03221+01801101091ADDAA106000091AG10999AY101061GA1081+024009029GF199999021021008001001001MA1999999099951MD1999999+0081MW1021REMSYN017333   58008 88258EQDQ01+000022SCOTCV
0129825780999991984070700004-05083-042800FM-12+006999999V0200501N00051012001CN9999999N9+02601+02171101191ADDAA106000091AG10999AY101061GF106991061081008001001001KA1240M+03301MA1999999100171MD1410001+0001MW1021REMSYN017333   10330 58000
0151825780999991984070712004-05083-042800FM-12+006999999V0200901N00411220001CN0040001N9+02851+01931101351ADDAA106000091AG10999AY101061GA1021+135009049GF102991011011008001001041KA1240N+02121MA1999999100331MD1999999+0031MW1021REMSYN023333   20212 58003 82583
0132825780999991984070718004-05083-042800FM-12+006999999V0201401N00261220001CN0040001N9+03241+01821100961ADDAA106000091AG10999AY101061GA1021+135009049GF102991021021008001001001MA1999999099961MD1999999+0011MW1021REMSYN017333   58001 82583
0129825780999991984070800004-05083-042800FM-12+006999999V0209991C00001220001CN9999999N9+02461+02151101141ADDAA106000091AG10999AY101061GF100991001001999999001001KA1240M+03351MA1999999100121MD1999999-0051MW1021REMSYN017333   10335 59005
0129825780999991984070812004-05083-042800FM-12+006999999V0201401N00311220001CN0040001N9+02651+01851101351ADDAA106000091AG10999AY101061GF101991011011008001001001KA1240N+01901MA1999999100331MD1410001+0001MW1021REMSYN017333   20190 58000
0110825780999991984070818004-05083-042800FM-12+006999999V0201401N00311220001CN0040001N9+03241+01231100991ADDAA106000091AG10999AY101061GF103991021021008001001011MA1999999099991MD1999999+0031MW1021REMSYN011333   58003
0129825780999991984070900004-05083-042800FM-12+006999999V0201801N00101007501CN9999999N9+99999+99999101221ADDAA106000091AG10999AY101061GF106991061021008001001001KA1240M+03321MA1999999100201MD1999999+0081MW1021REMSYN017333   10332 58008
0110825780999991984070918004-05083-042800FM-12+006999999V0200901N00361220001CN0040001N9+03191+01611101111ADDAA106000091AG10999AY101061GF102991021021008001001001MA1999999100331MD1999999+0121MW1021REMSYN011333   58012
0129825780999991984071000004-05083-042800FM-12+006999999V0201801N00101045001CN9999999N9+02361+02051101371ADDAA106000091AG10999AY101061GF105991041031008001041001KA1240M+03261MA1999999100341MD1999999+0141MW1021REMSYN017333   10326 58014
0132825780999991984071018004-05083-042800FM-12+006999999V0200901N00151220001CN0040001N9+03181+01841101141ADDAA106000091AG10999AY101061GA1021+135009049GF105991021021008001001041MA1999999100141MD1999999+0031MW1021REMSYN017333   58003 82583
0129825780999991984071112004-05083-042800FM-12+006999999V0201401N00151220001CN0040001N9+02711+02081101401ADDAA106000091AG10999AY101061GF101991011001017501031001KA1240N+01931MA1999999100381MD1999999-0081MW1021REMSYN017333   20193 59008
0151825780999991984071118004-05083-042800FM-12+006999999V0201401N00211220001CN0040001N9+03191+01691101011ADDAA106000091AG10999AY101061GA1021+135009049GF199999011021008001001001MA1999999100011MD1999999-0131MW1021REMSYN017333   59013 82583EQDQ01+000012SCOTCV
0129825780999991984071200004-05083-042800FM-12+006999999V0200901N00051012001CN9999999N9+02441+02031101321ADDAA106000091AG10999AY101061GF108991071081008001041999KA1240M+03291MA1999999100291MD1999999-0011MW1021REMSYN017333   10329 59001
0129825780999991984071212004-05083-042800FM-12+006999999V0200901N00051220001CN0200001N9+02671+02221101301ADDAA106000091AG10999AY101061GF104991041021008001001001KA1240N+02061MA1999999100371MD1999999-0011MW1021REMSYN017333   20206 59001
0110825780999991984071218004-05083-042800FM-12+006999999V0201401N00151220001CN0200001N9+03311+01591100961ADDAA106000091AG10999AY101061GF101991011081008001001001MA1999999099961MD1999999-0051MW1021REMSYN011333   59005
0148825780999991984071300004-05083-042800FM-12+006999999V0201401N00051220001CN9999999N9+02361+02071101231ADDAA106000091AG10999AY101061GF100991001001999999001001KA1240M+03361MA1999999100201MD1999999-0091MW1021REMSYN017333   10336 59009EQDQ01+999990APOSLP
