0140825710999991984010100004-05500-045267FM-12+008299999V0201401N00151220001CN0100001N9+02681+02221101021ADDAA106000091AG10999GF100991999001999999001001KA1240M+03211MA1999999099061MD1999999-0101MW1131REMSYN017333   10321 59010EQDQ01+000952SCOLCB
0107825710999991984010200004-05500-045267FM-12+008299999V0202301N00051045001CN0100001N9+02551+99999101051ADDAA106000091AG10999GF106991041051008001031001KA1240M+03371MA1999999099081MW1131REMSYN017333   10337 5800/
0129825710999991984010212004-05500-045267FM-12+008299999V0202701N00051045001CN0100001N9+02561+02311101321ADDAA106000091AG10999AY101061GF107991041041008001031001KA1240N+02201MA1999999099371MD1999999+0041MW1021REMSYN017333   20220 58004
0110825710999991984010218004-05500-045267FM-12+008299999V0200901N00101045001CN0100001N9+03291+02101100891ADDAA106000091AG10999AY101061GF105991031021008001041061MA1999999098941MD1999999-0081MW1021REMSYN011333   59008
0121825710999991984010300004-05500-045267FM-12+008299999V0203201N00151220001CN0100001N9+02681+02061101111ADDAA106000091AG10999GF102991021001017501031001KA1240M+03371MA1999999099141MD1999999+0061MW1131REMSYN017333   10337 58006
0135825710999991984010312004-05500-045267FM-12+008299999V0203601N00261004201CN0100001N9+02421+02331101401ADDAA124000191AG10999AY191061GF108991081051004501999999KA1240N+02331MA1999999099451MD1999999+0081MW1961REMSYN023333   20233 58008 69914
0116825710999991984010318004-05500-045267FM-12+008299999V0202701N00151004201CN0100001N9+02071+01941101281ADDAA106026091AG10999AY191061GF108991081051004501999999MA1999999099291MD1999999+0351MW1911REMSYN017333   58035 60261
0135825710999991984010400004-05500-045267FM-12+008299999V0209991C000019999999N0100001N9+02141+02121101451ADDAA106000391AG10999AY161061GF108991031051004501999999KA1240M+02671MA1999999099451MD1999999+0311MW1021REMSYN023333   10267 58031 69931
0135825710999991984010412004-05500-045267FM-12+008299999V0200901N00211045001CN0100001N9+02311+02201101641ADDAA124026091AG10999AY101061GF108991041071004501021999KA1240N+02101MA1999999099631MD1999999+0181MW1021REMSYN023333   20210 58018 60264
0110825710999991984010418004-05500-045267FM-12+008299999V0203601N00151105001CN0100001N9+02911+02201101291ADDAA106000091AG10999AY101061GF105991021021008001041011MA1999999099311MD1999999+0021MW1021REMSYN011333   58002
0121825710999991984010500004-05500-045267FM-12+008299999V0200901N00151220001CN0100001N9+02441+02331101331ADDAA106000091AG10999GF102991021001017501041001KA1240M+02971MA1999999099321MD1999999-0111MW1131REMSYN017333   10297 59011
0129825710999991984010512004-05500-045267FM-12+008299999V0200501N00361220001CN0100001N9+02671+02281101491ADDAA106000091AG10999AY101061GF103991031021008001001001KA1240N+02211MA1999999099511MD1999999-0121MW1021REMSYN017333   20221 59012
0110825710999991984010518004-05500-045267FM-12+008299999V0201401N00101007501CN0100001N9+03211+02211101061ADDAA106000091AG10999AY101061GF106991051041008001041001MA1999999099101MD1999999-0211MW1021REMSYN011333   59021
0135825710999991984010600004-05500-045267FM-12+008299999V0200501N00311007501CN0100001N9+02531+02381101191ADDAA106000191AG10999AY191061GF106991061051008001001001KA1240M+03231MA1999999099221MD1999999-0121MW1131REMSYN023333   10323 59012 69911
0135825710999991984010612004-05500-045267FM-12+008299999V0209999999999045001CN0100001N9+02631+02311101351ADDAA124000191AG10999AY101061GF107991041051004501021011KA1240N+02251MA1999999099381MD1999999-0131MW1021REMSYN023333   20225 59013 69914
0110825710999991984010618004-05500-045267FM-12+008299999V0203601N00101220001CN0100001N9+03081+02241101021ADDAA106000091AG10999AY101061GF105991031031008001001011MA1999999099061MD1999999-0041MW1021REMSYN011333   59004
0129825710999991984010700004-05500-045267FM-12+008299999V0203601N00051220001CN0100001N9+02661+02431101121ADDAA106000091AG10999AY101061GF100991001001999999001001KA1240M+03161MA1999999099161MD1999999-0061MW1021REMSYN017333   10316 59006
0129825710999991984010712004-05500-045267FM-12+008299999V0203601N00101004201CN0100001N9+02631+02311101441ADDAA106000091AG10999AY101061GF107991071021004501001001KA1240N+02321MA1999999099471MD1999999+0091MW1021REMSYN017333   20232 58009
0110825710999991984010718004-05500-045267FM-12+008299999V0203601N00261045001CN0100001N9+03051+02261101071ADDAA106000091AG10999AY101061GF107991021021008001011001MA1999999099111MD1999999+0051MW1021REMSYN011333   58005
0121825710999991984010800004-05500-045267FM-12+008299999V0202301N00151004201CN0100001N9+02701+02301101321ADDAA106000091AG10999GF108991081051004501999999KA1240M+03091MA1999999099301MD1999999+0181MW1131REMSYN017333   10309 58018
0135825710999991984010812004-05500-045267FM-12+008299999V0200901N00101004201CN0100001N9+02571+02151101521ADDAA124018091AG10999AY161061GF108991051051004501031999KA1240N+02181MA1999999099551MD1999999+0081MW1021REMSYN023333   20218 58008 60184
0135825710999991984010818004-05500-045267FM-12+008299999V0200901N001519999999N0100001N9+99999+99999101371ADDAA106026091AG10999AY161061GF108991999001004501001001MA1999999099361MD1999999+0251MW1911REMSYN017333   58025 60261EQDQ01+000002SCOTLC
0135825710999991984010900004-05500-045267FM-12+008299999V0201401N00151004201CN0100001N9+02101+02051101371ADDAA106001091AG10999AY161061GF108991081051004501999999KA1240M+02751MA1999999099371MD1999999+0031MW1021REMSYN023333   10275 58003 60011
0135825710999991984010912004-05500-045267FM-12+008299999V0201801N00101004201CN0100001N9+02251+02091101411ADDAA124027091AG10999AY101061GF107991051021004501011001KA1240N+02091MA1999999099401MD1999999-0151MW1021REMSYN023333   20209 59015 60274
0129825710999991984011000004-05500-045267FM-12+008299999V0200501N00311004201CN0100001N9+02551+02351101191ADDAA106000091AG10999AY101061GF108991081051004501999999KA1240M+03011MA1999999099201MD1999999-0171MW1021REMSYN017333   10301 59017
0135825710999991984011012004-05500-045267FM-12+008299999V0202301N00151045001CN0020001N9+02711+02071101501ADDAA124045091AG10999AY191061GF108991041071004501021999KA1240N+02051MA1999999099501MD1999999+0101MW1611REMSYN023333   20205 58010 60454
0110825710999991984011018004-05500-045267FM-12+008299999V0203601N00151045001CN0100001N9+02571+02191101051ADDAA106001091AG10999AY161061GF105991031021008001041001MA1999999099061MD1999999+0011REMSYN017333   58001 60011
0140825710999991984011100004-05500-045267FM-12+008299999V0201501N00101220001CN0040001N9+02311+02181101251ADDAA106000091AG10999GF102991021001017501021001KA1240M+02671MA1999999099251MD1999999-0361MW1131REMSYN017333   10267 59036EQDQ01+999990APOSLP
0135825710999991984011112004-05500-045267FM-12+008299999V0203601N00151045001CN0100001N9+02381+02211101371ADDAA124001091AG10999AY101061GF108991041051008001021999KA1240N+02061MA1999999099371MD1999999-0131MW1021REMSYN023333   20206 59013 60014
0110825710999991984011118004-05500-045267FM-12+008299999V0203601N00151045001CN0100001N9+02711+02301101021ADDAA106000091AG10999AY101061GF107991041041008001021001MA1999999099041MD1999999-0021MW1021REMSYN011333   59002
0148825710999991984011200004-05500-045267FM-12+008299999V0200501N001019999999N0100001N9+02331+02131101381ADDAA106000091AG10999AY191061GF108991081051999999999999KA1240M+02901MA1999999099391MD1999999+0011MW1171REMSYN017333   10290 58001EQDQ01+000992SCOLCB
0146825710999991984011212004-05500-045267FM-12+008299999V0203201N00051004201CN0100001N9+02301+02111101421ADDAA124000691AA299000591AG10999AY161061GF107991051051004501021001KA1240N+02001MA1999999099421MD1999999+0051MW1021REMSYN023333   20200 58005 69964
0110825710999991984011218004-05500-045267FM-12+008299999V0203601N00211220001CN0100001N9+02981+02231101061ADDAA106000091AG10999AY101061GF104991031021008001001011MA1999999099091MD1999999+0051MW1021REMSYN011333   58005
0129825710999991984011312004-05500-045267FM-12+008299999V0200501N00261220001CN0100001N9+02531+02271101411ADDAA106000091AG10999AY101061GF103991031021008001001001KA1240N+02251MA1999999099431MD1999999+0011MW1021REMSYN017333   20225 58001
0110825710999991984011318004-05500-045267FM-12+008299999V0200901N00311220001CN0100001N9+03121+02111101071ADDAA106000091AG10999AY101061GF103991031021008001001001MA1999999099111MD1999999+0021MW1021REMSYN011333   58002
0129825710999991984011400004-05500-045267FM-12+008299999V0209991C00001220001CN0100001N9+02561+02191101131ADDAA106000091AG10999AY101061GF100991001001999999001001KA1240M+03211MA1999999099151MD1999999+0011MW1021REMSYN017333   10321 58001
0129825710999991984011412004-05500-045267FM-12+008299999V0200501N00151007501CN0100001N9+02491+02271101321ADDAA106000091AG10999AY101061GF107991071051008001001001KA1240N+02001MA1999999099341MD1999999-0091MW1021REMSYN017333   20200 59009
0110825710999991984011418004-05500-045267FM-12+008299999V0200501N00211220001CN0100001N9+03121+02171100971ADDAA106000091AG10999AY101061GF102991021021008001001001MA1999999099011MD1999999-0101MW1021REMSYN011333   59010
0121825710999991984011500004-05500-045267FM-12+008299999V0200501N00151220001CN0100001N9+02581+02271101051ADDAA106000091AG10999GF102991021001017501041001KA1240M+03151MA1999999099081MD1999999+0041MW1131REMSYN017333   10315 58004
0135825710999991984011512004-05500-045267FM-12+008299999V0200501N00101004201CN0100001N9+02281+02251101341ADDAA124009091AG10999AY191061GF108991081051004501999999KA1240N+02121MA1999999099651MD1999999+0011MW1021REMSYN023333   20212 58001 60094
0127825710999991984011518004-05500-045267FM-12+008299999V0203601N00151007501CN0100001N9+03041+02381100911ADDAA106000291AA299000391AG10999AY161061GF106991051041008001041001MA1999999098941MD1999999-0071MW1171REMSYN017333   59007 69921
0135825710999991984011600004-05500-045267FM-12+008299999V0202301N00051004201CN0100001N9+02371+02341101241ADDAA106006091AG10999AY191061GF108991081051004501999999KA1240M+03061MA1999999099241MD1999999+0161MW1131REMSYN023333   10306 58016 60061
0135825710999991984011612004-05500-045267FM-12+008299999V0201401N00151220001CN0100001N9+02511+02211101361ADDAA124006091AG10999AY101061GF103991031021004501001001KA1240N+02201MA1999999099371MD1999999+0021MW1021REMSYN023333   20220 58002 60064
0116825710999991984011700004-05500-045267FM-12+008299999V0200501N00051220001CN0100001N9+02451+02091101221ADDAA106000091AG10999AY101061GF102991021001017501011001MA1999999099241MD1410001+0001MW1021REMSYN017333   18312 58000
0135825710999991984011712004-05500-045267FM-12+008299999V0203601N00151004201CN0100001N9+02091+02031101581ADDAA124014091AG10999AY191061GF108991061051004501021999KA1240N+01951MA1999999099571MD1999999+0201MW1211REMSYN023333   20195 58020 60144
0096825710999991984011718004-05500-045267FM-12+008299999V0203601N00151045001CN0100001N9+02821+02331101131ADDAA106000091AG10999GF106991031061004501041001MA1999999099151MD1999999+0141REMSYN011333   58014
0129825710999991984011800004-05500-045267FM-12+008299999V0200501N00101045001CN0100001N9+02551+02381101271ADDAA106000091AG10999AY101061GF107991041051008001031001KA1240M+02871MA1999999099271MD1999999+0031MW1021REMSYN017333   10287 58003
0129825710999991984011812004-05500-045267FM-12+008299999V0200501N00151004201CN0100001N9+02491+02341101301ADDAA106000091AG10999AY101061GF106991061051004501001001KA1240N+02091MA1999999099321MD1999999-0251MW1021REMSYN017333   20209 59025
0110825710999991984011818004-05500-045267FM-12+008299999V0200501N00261220001CN0100001N9+03091+02271101001ADDAA106000091AG10999AY101061GF103991021031008001001011MA1999999099041MD1999999-0111MW1021REMSYN011333   59011
0129825710999991984011900004-05500-045267FM-12+008299999V0209991C00001220001CN0100001N9+02581+02351101021ADDAA106000091AG10999AY101061GF103991001001999999001011KA1240M+03101MA1999999099051MD1999999-0221MW1021REMSYN017333   10310 59022
0129825710999991984011912004-05500-045267FM-12+008299999V0203601N00151220001CN0100001N9+02551+02291101251ADDAA106000091AG10999AY101061GF104991041021004501001001KA1240N+02201MA1999999099271MD1999999-0051MW1021REMSYN017333   20220 59005
0110825710999991984011918004-05500-045267FM-12+008299999V0200501N00151220001CN0100001N9+02971+02151100841ADDAA106000591AG10999AY191061GF103991011021008001041001MA1999999098871MD1999999-0171REMSYN017333   59017 69951
0140825710999991984012000004-05500-045267FM-12+008299999V0200501N00051045001CN0100001N9+02271+02021101101ADDAA106000691AA299000591AG10999AY161061GF106991041081008001041001KA1240M+03081MA1999999099111MD1999999+0061REMSYN023333   10308 58006 69961
0135825710999991984012012004-05500-045267FM-12+008299999V0201801N00101004201CN0100001N9+02241+02101101271ADDAA124001091AG10999AY101061GF108991081051004501999999KA1240N+01991MA1999999099261MD1999999-0011MW1021REMSYN023333   20199 59001 60014
0127825710999991984012018004-05500-045267FM-12+008299999V0201801N00261007501CN0100001N9+02661+02271100941ADDAA106000691AA299000591AG10999AY161061GF108991051051008001041999MA1999999098951MD1999999+0081MW1021REMSYN017333   58008 69961
0165825710999991984012112004-05500-045267FM-12+008299999V0209999999999045001CN0100001N9+02361+02251101271ADDAA124000691AA299000591AG10999AY101061GF106991041051004501031001KA1240N+99999MA1999999099281MD1999999+0021MW1021REMSYN023333   20250 58002 69964EQDQ01 +02502ATMN  
0116825710999991984012118004-05500-045267FM-12+008299999V0203601N00151220001CN0100001N9+03001+02241100851ADDAA106000191AG10999AY161061GF105991031021008001001011MA1999999098881MD1999999-0071MW1021REMSYN017333   59007 69911
0146825710999991984012200004-05500-045267FM-12+008299999V0201801N00151004201CN0100001N9+02421+02311101061ADDAA106000491AA299000591AG10999AY191061GF106991061051004501001001KA1240M+03051MA1999999099081MD1410001+0001MW1131REMSYN023333   10305 58000 69941
0135825710999991984012212004-05500-045267FM-12+008299999V0209991C00001004201CN0100001N9+02121+02071101391ADDAA124027091AG10999AY191061GF108991081051004501999999KA1240N+02051MA1999999099391MD1999999+0111MW1021REMSYN023333   20205 58011 60274
0110825710999991984012218004-05500-045267FM-12+008299999V0203601N00151045001CN0100001N9+02851+02291100991ADDAA106000091AG10999AY101061GF107991031031008001021011MA1999999099011MD1999999+0131MW1021REMSYN011333   58013
0129825710999991984012300004-05500-045267FM-12+008299999V0203601N00101220001CN0100001N9+02501+02291101061ADDAA106000091AG10999AY101061GF100991001001999999001001KA1240M+03001MA1999999099071MD1999999-0011MW1021REMSYN017333   10300 59001
0129825710999991984012312004-05500-045267FM-12+008299999V0200501N00211007501CN0100001N9+02601+02331101241ADDAA106000091AG10999AY101061GF107991071051008001001001KA1240N+02171MA1999999099261MD1999999-0131MW1021REMSYN017333   20217 59013
0110825710999991984012318004-05500-045267FM-12+008299999V0203601N00261220001CN0100001N9+03071+02171100811ADDAA106000091AG10999AY101061GF102991021021008001001001MA1999999098851MD1999999-0161MW1021REMSYN011333   59016
0121825710999991984012400004-05500-045267FM-12+008299999V0200501N00261220001CN0100001N9+02601+02231100921ADDAA106000091AG10999GF102991021021008001001001KA1240M+03231MA1999999098951MD1999999-0121MW1131REMSYN017333   10323 59012
0129825710999991984012412004-05500-045267FM-12+008299999V0203601N00151045001CN0100001N9+02461+02271101141ADDAA106000091AG10999AY101061GF106991031051004501031011KA1240N+02331MA1999999099161MD1999999-0101MW1021REMSYN017333   20233 59010
0119825710999991984012418004-05500-045267FM-12+008299999V0201801N00151004201CN0100001N9+02531+02311100771ADDAA106000491AA299000591AG10999GF108991081051004501999999MA1999999098791MD1999999-0061MW1951REMSYN017333   59006 69941
0121825710999991984012500004-05500-045267FM-12+008299999V0201401N00101220001CN0100001N9+02401+02371100931ADDAA106000091AG10999GF100991001001999999001001KA1240M+02951MA1999999098951MD1410001+0001MW1131REMSYN017333   10295 58000
0110825710999991984012518004-05500-045267FM-12+008299999V0200501N00261220001CN0100001N9+02951+02241100901ADDAA106000091AG10999AY101061GF104991031021008001011001MA1999999098931MD1999999+0141MW1021REMSYN011333   58014
0129825710999991984012600004-05500-045267FM-12+008299999V0202301N00051220001CN0100001N9+02561+02291101091ADDAA106000091AG10999AY101061GF101991011001017501011001KA1240M+03011MA1999999099111MD1999999+0161MW1021REMSYN017333   10301 58016
0129825710999991984012612004-05500-045267FM-12+008299999V0202301N00051220001CN0100001N9+02521+02361101221ADDAA106000091AG10999AY101061GF104991021031004501041001KA1240N+02141MA1999999099241MD1999999-0011MW1021REMSYN017333   20214 59001
0129825710999991984012618004-05500-045267FM-12+008299999V0203601N00211220001CN0100001N9+03141+02131100851ADDAA106000091AG10999AY101061GF103991031021008001001001MA1999999098911MD1999999-0081MW1021REMSYN011333   59008EQDQ01+999990APOSP 
0140825710999991984012700004-05500-045267FM-12+008299999V0200501N001519999999N0100001N9+02611+02291101011ADDAA106000091AG10999GF106991999021008001001001KA1240M+03181MA1999999099041MD1999999-0071MW1131REMSYN017333   10318 59007EQDQ01+000022SCOTLC
0129825710999991984012712004-05500-045267FM-12+008299999V0202601N00151220001CN0100001N9+02481+02291101301ADDAA106000091AG10999AY101061GF103991031051004501031011KA1240N+02101MA1999999099341MD1999999+0101MW1021REMSYN017333   20210 58010
0110825710999991984012718004-05500-045267FM-12+008299999V0200501N00211220001CN0100001N9+02971+02281100841ADDAA106000091AG10999AY101061GF104991031031008001001011MA1999999098881MD1999999+0011MW1021REMSYN011333   58001
0121825710999991984012800004-05500-045267FM-12+008299999V0203601N00211220001CN0100001N9+02531+02361100941ADDAA106000091AG10999GF100991001001999999001001KA1240M+03091MA1999999098971MD1999999-0071MW1131REMSYN017333   10309 59007
0129825710999991984012812004-05500-045267FM-12+008299999V0200501N00101015001CN0100001N9+02381+99999101091ADDAA106000091AG10999AY101061GF108991061001017501021011KA1240N+02061MA1999999099111MD1999999-0231MW1021REMSYN017333   20206 59023
0076825710999991984012818004-05500-045267FM-12+008299999V0200501N00151220001CN0650001N9+03061+02331100751ADDAA106000091AG10999AY101061GF106991041031008001001011MA1999999098971MW1021
0129825710999991984012900004-05500-045267FM-12+008299999V0209991C00001220001CN0100001N9+02441+02341100831ADDAA106000091AG10999AY101061GF100991001001999999001001KA1240M+03091MA1999999098851MD1999999-0121MW1021REMSYN017333   10309 59012
0129825710999991984012912004-05500-045267FM-12+008299999V0202301N00101045001CN0100001N9+02441+02371101151ADDAA106000091AG10999AY101061GF106991031051004501031011KA1240N+02131MA1999999099171MD1999999+0061MW1021REMSYN017333   20213 58006
0121825710999991984013000004-05500-045267FM-12+008299999V0209991C00001220001CN0100001N9+02221+02191101031ADDAA106000091AG10999GF103991031011017501001021KA1240M+03031MA1999999099041MD1999999+0191MW1131REMSYN017333   10303 58019
0163825710999991984013012004-05500-045267FM-12+008299999V0203401N00151220001CN0100001N9+02301+02261101291ADDAA124010091AG10999AJ199999999999999AY101061GF103991021021004501011001IA1219KA1240N+01991MA1999999099291MW1021REMSYN023333   20199 45802 60104EQDQ01  08022SNDP  
0135825710999991984013100004-05500-045267FM-12+008299999V0201401N00101220001CN0100001N9+02391+02221101061ADDAA106000391AG10999AY101061GF103991031041008001001041KA1240M+03171MA1999999099071MD1999999+0031MW1131REMSYN023333   10317 58003 69931
0065825710999991984013112004-05500-045267FM-12+008299999V0203601N00151045001CN0100001N9+02531+99999101171ADDAG10999AY101061GF106991041021004501041001MA1999999099191MW1021
0110825710999991984013118004-05500-045267FM-12+008299999V0203601N00311045001CN0100001N9+03061+02221100921ADDAA106000091AG10999AY101061GF105991031021008001011001MA1999999098951MD1999999+0021MW1021REMSYN011333   58002
0129825710999991984020100004-05500-045267FM-12+008299999V0202301N00101220001CN0100001N9+02451+02281101061ADDAA106000091AG10999AY101061GF100991001001999999001001KA1240M+03101MA1999999099081MD1999999+0011MW1021REMSYN017333   10310 58001
0129825710999991984020112004-05500-045267FM-12+008299999V0200501N00311004201CN0100001N9+02611+02331101181ADDAA106000091AG10999AY101061GF108991051051004501001011KA1240N+02201MA1999999099201MD1999999-8001MW1021REMSYN017333   20220 59800
0116825710999991984020118004-05500-045267FM-12+008299999V0201401N00151004201CN0100001N9+02821+02401100881ADDAA106005091AG10999AY191061GF107991051051004501001011MA1999999098911MD1999999-0171MW1911REMSYN017333   59017 60051
0135825710999991984020200004-05500-045267FM-12+008299999V0209991C00001220001CN0100001N9+02511+02451100931ADDAA106008091AG10999AY161061GF100991001001999999001001KA1240M+03051MA1999999098961MD1999999-0121MW1001REMSYN023333   10305 59012 60081
0135825710999991984020212004-05500-045267FM-12+008299999V0202301N00101220001CN0100001N9+02491+02321101161ADDAA124012091AG10999AY101061GF102991011011004501011001KA1240N+02111MA1999999099181MD1999999-0021MW1021REMSYN023333   20211 59002 60124
0116825710999991984020218004-05500-045267FM-12+008299999V0201801N00151045001CN0040001N9+02251+02101101011ADDAA106002091AG10999AY191061GF108991041071004501021999MA1999999099011MD1999999+0101MW1911REMSYN017333   58010 60021
0165825710999991984020300004-05500-045267FM-12+008299999V0209991C00001220001CN0100001N9+02211+02151100951ADDAA106000291AA299000391AG10999AY161061GF104991999001017501021001KA1240M+02991MA1999999098961MD1410001+0001MW1131REMSYN023333   10299 58000 69921EQDQ01+000032SCOTLC
0135825710999991984020312004-05500-045267FM-12+008299999V0200901N00101045001CN0100001N9+02441+02281101191ADDAA124002091AG10999AY101061GF106991031051004501031011KA1240N+02101MA1999999099191MD1999999+0011MW1021REMSYN023333   20210 58001 60024
0127825710999991984020318004-05500-045267FM-12+008299999V0200501N00151007501CN0100001N9+03031+02161100721ADDAA106000691AA299000591AG10999AY161061GF106991051031008001001011MA1999999098751MD1999999-0261MW1021REMSYN017333   59026 69961
0146825710999991984020400004-05500-045267FM-12+008299999V0203201N001519999999N0100001N9+02301+99999100911ADDAA106000491AA299000591AG10999AY161061GF108991081051999999999999KA1240M+03131MA1999999098921MD1999999-0041MW1131REMSYN023333   10313 59004 69941
0127825710999991984020418004-05500-045267FM-12+008299999V0200501N00211045001CN0100001N9+02991+02231100761ADDAA106000791AA299001091AG10999AY101061GF105991031031008001041001MA1999999098801MD1999999+0051MW1021REMSYN017333   58005 69971
0135825710999991984020500004-05500-045267FM-12+008299999V0202301N00101045001CN0040001N9+02261+02181101001ADDAA106002091AG10999AY191061GF106991031021004501041001KA1240M+03021MA1999999099021MD1999999+0101MW1251REMSYN023333   10302 58010 60021
0135825710999991984020512004-05500-045267FM-12+008299999V0200901N00101004201CN0100001N9+02301+02141101191ADDAA124004091AG10999AY161061GF108991081051004501999999KA1240N+02071MA1999999099191MD1999999+0061MW1021REMSYN023333   20207 58006 60044
0116825710999991984020518004-05500-045267FM-12+008299999V0209991C00001220001CN0100001N9+02641+02421100901ADDAA106010091AG10999AY161061GF107991041051004501001011MA1999999098911MD1999999+0111MW1921REMSYN017333   58011 60101
0135825710999991984020600004-05500-045267FM-12+008299999V0202701N00151004201CN0100001N9+02261+02241101021ADDAA106012091AG10999AY191061GF108991081051004501999999KA1240M+02951MA1999999099031MD1999999+0011MW1131REMSYN023333   10295 58001 60121
0129825710999991984020612004-05500-045267FM-12+008299999V0201801N00261045001CN0100001N9+02291+02181101241ADDAA124023091AG10999AY161061GF108991041071004501061999KA1240N+02091MA1999999099241MD1999999+0051REMSYN023333   20209 58005 60234
0110825710999991984020618004-05500-045267FM-12+008299999V0200901N00051045001CN0100001N9+02841+02171100881ADDAA106000091AG10999AY101061GF106991041021008001041001MA1999999098911MD1410001+0001MW1021REMSYN011333   58000
0140825710999991984020700004-05500-045267FM-12+008299999V0200501N00051045001CN0100001N9+02591+02331101031ADDAA106000091AG10999GF106991041021008001031001KA1240M+03061MA1999999099051MD1999999+0031MW1141REMSYN017333   10306 58003EQDQ01+999990APOSP 
0129825710999991984020712004-05500-045267FM-12+008299999V0200901N00151220001CN0100001N9+02521+02231101141ADDAA106000091AG10999AY101061GF106991041031004501001011KA1240N+02181MA1999999099161MD1999999-0081MW1021REMSYN017333   20218 59008
0110825710999991984020718004-05500-045267FM-12+008299999V0200501N00211220001CN0100001N9+02781+02341100871ADDAA106000091AG10999AY101061GF105991031031008001001011MA1999999098901MD1999999-0011MW1021REMSYN011333   59001
0121825710999991984020800004-05500-045267FM-12+008299999V0203601N00311045001CN9999999N9+02511+02231101061ADDAA106000091AG10999GF105991031011008001031011KA1240M+03031MA1999999099081MD1999999+0021MW1131REMSYN017333   10303 58002
0129825710999991984020812004-05500-045267FM-12+008299999V0203601N00101045001CN0100001N9+02381+02191101341ADDAA124001091AG10999AY161061GF107991041021004501031001KA1240N+02141MA1999999099351MD1999999+0191REMSYN023333   20214 58019 60014
0110825710999991984020818004-05500-045267FM-12+008299999V0200901N00211220001CN0100001N9+02961+02131100981ADDAA106000091AG10999AY101061GF104991011021008001071001MA1999999099011MD1999999+0111MW1021REMSYN011333   58011
0121825710999991984020900004-05500-045267FM-12+008299999V0203601N00051045001CN0100001N9+02581+02351101111ADDAA106000091AG10999GF106991031051004501071001KA1240M+03001MA1999999099131MD1999999+0051MW1131REMSYN017333   10300 58005
0110825710999991984020918004-05500-045267FM-12+008299999V0203601N00261220001CN0100001N9+03161+02341100891ADDAA106000091AG10999AY101061GF106991041031008001001011MA1999999098941MD1999999-0071MW1021REMSYN011333   59007
0129825710999991984021000004-05500-045267FM-12+008299999V0209991C00001015001CN0200001N9+02481+02271101091ADDAA106000091AG10999AY191061GF105991051001017501031001KA1240M+03201MA1999999099121MD1999999-0011MW1131REMSYN017333   10320 59001
0076825710999991984021012004-05500-045267FM-12+008299999V0200501N00151004201CN0100001N9+02521+02371101331ADDAA106000091AG10999AY101061GF106991061021004501001001MA1999999099351MW1021
0110825710999991984021018004-05500-045267FM-12+008299999V0203601N00211220001CN0100001N9+03121+02281100931ADDAA106000091AG10999AY101061GF103991031021008001001001MA1999999098971MD1999999+0031MW1021REMSYN011333   58003
0108825710999991984021100004-05500-045267FM-12+008299999V0200501N00101220001CN0100001N9+02541+02271101131ADDAA106000091AG10999GF102991021001017501031001MA1999999099151MD1999999+0031MW1131REMSYN017333   1///3 58003
0076825710999991984021112004-05500-045267FM-12+008299999V0203601N00151045001CN0100001N9+02481+02301101331ADDAA106000091AG10999AY101061GF106991021021004501041001MA1999999099351MW1021
0129825710999991984021118004-05500-045267FM-12+008299999V0200901N000519999999N0100001N9+02951+02191100911ADDAA106000091AG10999AY101061GF107991999011008001001001MA1999999099041MD1999999-0031MW1021REMSYN011333   59003EQDQ01+000042SCOTLC
0121825710999991984021200004-05500-045267FM-12+008299999V0200501N00211220001CN0100001N9+02451+02271101151ADDAA106000091AG10999GF103991031001017501031001KA1240M+02991MA1999999099171MD1999999+0021MW1131REMSYN017333   10299 58002
0148825710999991984021212004-05500-045267FM-12+008299999V0202301N00101004201CN0100001N9+99999+99999999999ADDAA124000391AG10999AY191061GF108991081051004501999999KA1240N+02071MA1999999099291MD1999999-0061REMSYN023333   20207 59006 69934EQDQ01 103283APOSLP
0129825710999991984021218004-05500-045267FM-12+008299999V0203201N00101220001CN0100001N9+03011+02241100782ADDAA106000091AG10999AY101061GF103991021021008001041001MA1999999098811MD1999999-0131MW1021REMSYN011333   59013EQDQ01+100783APOSLP
0135825710999991984021300004-05500-045267FM-12+008299999V0200501N00311045001CN0020001N9+02311+02251101171ADDAA106003091AG10999AY191061GF108991041071004501021999KA1240M+03141MA1999999099181MD1999999+0011MW1611REMSYN023333   10314 58001 60031
0135825710999991984021312004-05500-045267FM-12+008299999V0202301N00101045001CN0100001N9+99999+99999101121ADDAA124006091AG10999AY161061GF108991031051004501031011KA1240N+02161MA1999999099131MD1999999-0161MW1021REMSYN023333   20216 59016 60064
0116825710999991984021318004-05500-045267FM-12+008299999V0200501N00101045001CN0100001N9+02791+02321100821ADDAA106001091AG10999AY161061GF106991031031004501031011MA1999999098851MD1999999+0041MW1021REMSYN017333   58004 60011
0135825710999991984021412004-05500-045267FM-12+008299999V0200501N00051004201CN0100001N9+02421+02281101251ADDAA124001091AG10999AY101061GF108991081051004501999999KA1240N+02111MA1999999099261MD1999999+0131MW1021REMSYN023333   20211 58013 60014
0129825710999991984021500004-05500-045267FM-12+008299999V0202701N00151220001CN0100001N9+02141+02111101121ADDAA106017091AG10999AY191061GF103991031001017501011001KA1240M+02881MA1999999099131MD1999999+0021REMSYN023333   10288 58002 60171
0135825710999991984021512004-05500-045267FM-12+008299999V0201801N00151004201CN0100001N9+02271+02161101231ADDAA124023091AG10999AY101061GF108991071051004501999999KA1240N+01971MA1999999099231MD1999999-0031MW1021REMSYN023333   20197 59003 60234
0129825710999991984021518004-05500-045267FM-12+008299999V0203601N00311220001CN0100001N9+02881+02401100821ADDAA106000091AG10999AY181061GF105991031031008001001011MA1999999098871MD1999999-0181MW1001REMSYN011333   59018EQDQ01+999990APOSLP
0135825710999991984021600004-05500-045267FM-12+008299999V0203601N00461004201CN0100001N9+02221+02061101111ADDAA106007091AG10999AY191061GF108991081051004501999999KA1240M+02951MA1999999099111MD1999999-0021MW1911REMSYN023333   10295 59002 60071
0129825710999991984021612004-05500-045267FM-12+008299999V0200901N00151004201CN0100001N9+99999+99999101161ADDAA124023091AG10999AY161061GF108991051021004501011999KA1240N+02161MA1999999099161MD1999999-0071REMSYN023333   20216 59007 60234
0099825710999991984021618004-05500-045267FM-12+008299999V0200501N00311220001CN0100001N9+03031+02311100851ADDAG10999AY101061GF103991031021008001001001MA1999999098881MD1999999+0011MW1021REMSYN011333   58001
0121825710999991984021700004-05500-045267FM-12+008299999V0200501N00151220001CN0100001N9+02501+02431101051ADDAA106000091AG10999GF103991031011017501011001KA1240M+03081MA1999999099071MD1999999-0041MW1011REMSYN017333   10308 59004
0129825710999991984021712004-05500-045267FM-12+008299999V0202301N00101004201CN0100001N9+02461+02341101211ADDAA106000091AG10999AY101061GF108991081051004501999999KA1240N+02231MA1999999099231MD1999999+0071MW1021REMSYN017333   20223 58007
0110825710999991984021718004-05500-045267FM-12+008299999V0200501N00411004201CN0100001N9+02881+02411101051ADDAA106000091AG10999AY101061GF108991081051004501999999MA1999999099081MD1999999+0201MW1021REMSYN011333   58020
0135825710999991984021800004-05500-045267FM-12+008299999V0202301N00151004201CN0100001N9+02101+02071101091ADDAA106016091AG10999AY161061GF108991081051004501999999KA1240M+02981MA1999999099181MD1999999+0031MW1131REMSYN023333   10298 58003 60161
0146825710999991984021812004-05500-045267FM-12+008299999V0201801N00101045001CN0100001N9+02141+02071101231ADDAA106000091AA224016091AG10999AY101061GF108991041071004501021999KA1240N+01901MA1999999099221MD1999999-0011MW1021REMSYN023333   20190 59001 60164
0110825710999991984021818004-05500-045267FM-12+008299999V0203601N00211220001CN0100001N9+02951+02291100851ADDAA106000091AG10999AY101061GF104991031021008001011001MA1999999098881MD1999999-0201MW1021REMSYN011333   59020
0148825710999991984021900004-05500-045267FM-12+008299999V0202301N00051220001CN0100001N9+02411+02331100921ADDAA106000091AG10999AY101061GF103991031001017501041001KA1240M+03001MA1999999100922MD1999999-0171MW1021REMSYN017333   10300 59017EQDQ01+100923APOSP 
0129825710999991984021912004-05500-045267FM-12+008299999V0201401N00101004201CN0100001N9+02441+02411101231ADDAA106000091AG10999AY101061GF108991061051004501031999KA1240N+02121MA1999999099241MD1999999+0021MW1021REMSYN017333   20212 58002
0102825710999991984021918004-05500-045267FM-12+008299999V0200501N00311220001CN0100001N9+03011+02241100851ADDAA106000091AG10999GF104991031031008001001011MA1999999098891MD1999999+0011MW1291REMSYN011333   58001
0135825710999991984022000004-05500-045267FM-12+008299999V0201801N00101004201CN0100001N9+02281+02251101031ADDAA106020091AG10999AY191061GF108991081051004501999999KA1240M+03051MA1999999099041MD1999999+0111MW1171REMSYN023333   10305 58011 60201
0135825710999991984022012004-05500-045267FM-12+008299999V0201801N00101045001CN0100001N9+02311+02251101321ADDAA124020091AG10999AY101061GF108991041071004501021999KA1240N+02191MA1999999099321MD1999999+0081MW1021REMSYN023333   20219 58008 60204
0110825710999991984022018004-05500-045267FM-12+008299999V0200901N00311220001CN0100001N9+02931+02391100861ADDAA106000091AG10999AY101061GF104991021021008001041001MA1999999098891MD1410001+0001MW1021REMSYN011333   58000
0146825710999991984022100004-05500-045267FM-12+008299999V0203601N00101220001CN0040001N9+02231+02141101061ADDAA106000891AA299000091AG10999AY161061GF103991031001017501041001KA1240M+03011MA1999999099061MD1999999+0021MW1131REMSYN023333   10301 58002 69981
0116825710999991984022118004-05500-045267FM-12+008299999V0202301N00151220001CN0100001N9+03041+02311100821ADDAA106000191AG10999AY161061GF105991041031008001001011MA1999999098851MD1999999-0041MW1021REMSYN017333   59004 69911
0146825710999991984022200004-05500-045267FM-12+008299999V0200501N00151004201CN0100001N9+02351+02241101111ADDAA106000991AA299001091AG10999AY191061GF108991081051004501999999KA1240M+03131MA1999999099121MD1999999+0061MW1131REMSYN023333   10313 58006 69991
0129825710999991984022212004-05500-045267FM-12+008299999V0201401N00311004201CN0100001N9+02421+02261101201ADDAA124004091AG10999AY161061GF108991081051004501999999KA1240N+02151MA1999999099311MD1999999+0061REMSYN023333   20215 58006 60044
0110825710999991984022218004-05500-045267FM-12+008299999V0200501N00211220001CN0100001N9+03041+02381100931ADDAA106004091AG10999AY161061GF104991031021008001011001MA1999999098961MD1999999+0111REMSYN017333   58011 60041
0129825710999991984022300004-05500-045267FM-12+008299999V0203601N00101220001CN0100001N9+02581+02461101081ADDAA106000091AG10999AY101061GF100991001001999999001001KA1240M+03041MA1999999099101MD1999999-0021MW1021REMSYN017333   10304 59002
0135825710999991984022312004-05500-045267FM-12+008299999V0203601N00101045001CN0100001N9+02541+02381101281ADDAA124004091AG10999AY101061GF107991041051004501031011KA1240N+02211MA1999999099301MD1999999-0011MW1021REMSYN023333   20221 59001 60044
0110825710999991984022318004-05500-045267FM-12+008299999V0203601N00261045001CN0100001N9+03031+02411100821ADDAA106000091AG10999AY101061GF106991031031008001021071MA1999999098871MD1999999-0091MW1021REMSYN011333   59009
0146825710999991984022400004-05500-045267FM-12+008299999V0200901N00051015001CN0100001N9+02321+02221100981ADDAA124000291AA299000391AG10999AY161061GF105991051001017501021001KA1240M+03091MA1999999099001MD1999999-0101MW1131REMSYN023333   10309 59010 69924
0165825710999991984022412004-05500-045267FM-12+008299999V0200501N00211004201CN0100001N9+02581+02331101211ADDAA124000291AA299000391AG10999AY101061GF106991061021004501001001KA1240N+02181MA1999999099231MD1999999-0071MW1021REMSYN023333   20218 59007 69924EQDQ01+999990APOSLP
0110825710999991984022418004-05500-045267FM-12+008299999V0200501N00261045001CN0100001N9+02841+02131100831ADDAA106008091AG10999AY161061GF105991031021008001041001MA1999999098861MD1999999-0011REMSYN017333   59001 60081
0154825710999991984022500004-05500-045267FM-12+008299999V0203601N00311007501CN0100001N9+02371+02291101051ADDAA106001091AG10999AY161061GF106991999061008001001001KA1240M+02891MA1999999099071MD1999999-0071MW1131REMSYN023333   10289 59007 60011EQDQ01+000052SCOTLC
0135825710999991984022512004-05500-045267FM-12+008299999V0201401N00101004201CN0100001N9+02381+02241101091ADDAA124010091AG10999AY161061GF108991081051004501999999KA1240N+02131MA1999999099101MD1999999-0131MW1021REMSYN023333   20213 59013 60104
0127825710999991984022518004-05500-045267FM-12+008299999V0200501N00311220001CN0100001N9+03001+02321100711ADDAA106000291AA299000391AG10999AY161061GF105991041031008001001011MA1999999098751MD1999999-0111MW1021REMSYN017333   59011 69921
0129825710999991984022600004-05500-045267FM-12+008299999V0201401N00051220001CN0100001N9+02561+02381100831ADDAA106000091AG10999AY101061GF100991001001999999001001KA1240M+03051MA1999999098851MD1999999-0221MW1021REMSYN017333   10305 59022
0146825710999991984022612004-05500-045267FM-12+008299999V0201401N00051004201CN0100001N9+02571+02351101101ADDAA124000291AA299000391AG10999AY101061GF106991051021004501011001KA1240N+02281MA1999999099131MD1999999+0031MW1021REMSYN023333   20228 58003 69924
0102825710999991984022618004-05500-045267FM-12+008299999V0203601N00211045001CN0100001N9+03161+02321100711ADDAA106000091AG10999GF105991031031008001011001MA1999999098761MD1999999+0011MW1171REMSYN011333   58001
0135825710999991984022700004-05500-045267FM-12+008299999V0202701N00211015001CN0100001N9+02321+02261101001ADDAA106004091AG10999AY191061GF105991051001017501021001KA1240M+03211MA1999999099021MD1999999+0171MW1131REMSYN023333   10321 58017 60041
0135825710999991984022712004-05500-045267FM-12+008299999V0202301N00101004201CN0100001N9+02381+02361101301ADDAA199004091AG10999AY101061GF108991081051004501999999KA1240N+02071MA1999999099311MD1999999+0181MW1021REMSYN023333   20207 58018 60040
0108825710999991984022718004-05500-045267FM-12+008299999V0203601N00051004201CN0100001N9+02241+02191101051ADDAA106005091AG10999GF108991081051004501999999MA1999999099051MD1999999+0291MW1961REMSYN017333   58029 60051
0135825710999991984022800004-05500-045267FM-12+008299999V0202301N00151004201CN0100001N9+02201+02171101131ADDAA106001091AG10999AY161061GF105991051051004501001001KA1240M+03091MA1999999099141MD1999999+0121MW1131REMSYN023333   10309 58012 60011
0135825710999991984022812004-05500-045267FM-12+008299999V0202301N00101004201CN0100001N9+02241+02191101431ADDAA124006091AG10999AY101061GF108991081051004501999999KA1240N+01961MA1999999099421MD1999999+0111MW1021REMSYN023333   20196 58011 60064
0076825710999991984022818004-05500-045267FM-12+008299999V0200501N00151220001CN0100001N9+03061+02301101061ADDAA106000091AG10999AY101061GF102991011011008001011001MA1999999099091MW1021
0121825710999991984022900004-05500-045267FM-12+008299999V0203601N00051220001CN0100001N9+02601+02401101321ADDAA106000091AG10999GF100991001001999999001001KA1240M+03121MA1999999099131MD1999999-0011MW1131REMSYN017333   10312 59001
0129825710999991984022912004-05500-045267FM-12+008299999V0200901N00511004201CN0100001N9+02251+02071101491ADDAA106000091AG10999AY101061GF108991081051004501999999KA1240N+02201MA1999999099501MD1999999+0081MW1021REMSYN017333   20220 58008
0121825710999991984030100004-05500-045267FM-12+008299999V0201801N00151220001CN0100001N9+02301+02181101111ADDAA106000091AG10999GF100991001001999999001001KA1240M+02691MA1999999099111MD1999999-0021MW1131REMSYN017333   10269 59002
0102825710999991984030118004-05500-045267FM-12+008299999V0203601N00151045001CN0100001N9+02891+02321100831ADDAA106000091AG10999GF105991031031008001041001MA1999999098861MD1999999-0181MW1171REMSYN011333   59018
0135825710999991984030200004-05500-045267FM-12+008299999V0200501N00051220001CN0100001N9+02461+02391101131ADDAA106000591AG10999AY161061GF104991041001017501041001KA1240M+02991MA1999999099141MD1999999+0031MW1131REMSYN023333   10299 58003 69951
0135825710999991984030212004-05500-045267FM-12+008299999V0201801N00151004201CN0100001N9+02351+02091101501ADDAA124000591AG10999AY101061GF108991081051004501999999KA1240N+02061MA1999999099511MD1999999+0221MW1021REMSYN023333   20206 58022 69954
0110825710999991984030218004-05500-045267FM-12+008299999V0202301N00101220001CN0100001N9+02991+02331100941ADDAA106000091AG10999AY101061GF104991041031008001001001MA1999999098971MD1999999+0111MW1021REMSYN011333   58011
0154825710999991984030300004-05500-045267FM-12+008299999V0200501N00101012001CN0200001N9+02291+02021101371ADDAA106028091AG10999AY191061GF108991081051012501999999KA1240M+03041MA1999999099371MD1999999+0231MW1921REMSYN023333   10304 58023 60281EQDQ01+999990APOSP 
0129825710999991984030312004-05500-045267FM-12+008299999V0201801N00151004201CN0100001N9+02301+02201101521ADDAA124033091AG10999AY191061GF108991081051004501999999KA1240N+02131MA1999999099521MD1999999+0011REMSYN023333   20213 58001 60334
0110825710999991984030318004-05500-045267FM-12+008299999V0200501N00151007501CN0100001N9+02911+02251101101ADDAA106000091AG10999AY101061GF105991051021008001001001MA1999999099131MD1999999+0161MW1021REMSYN011333   58016
0121825710999991984030400004-05500-045267FM-12+008299999V0200501N00101220001CN0100001N9+02481+02451101261ADDAA106000091AG10999GF100991001001999999001001KA1240M+02981MA1999999099271MD1999999-0101MW1131REMSYN017333   10298 59010
0129825710999991984030412004-05500-045267FM-12+008299999V0201401N00051015001CN0100001N9+02241+02221101511ADDAA106000091AG10999AY101061GF108991081001017501021999KA1240N+02041MA1999999099511MD1999999-0011MW1021REMSYN017333   20204 59001
0110825710999991984030418004-05500-045267FM-12+008299999V0200501N00151045001CN0100001N9+02991+02351100951ADDAA106000091AG10999AY101061GF106991031031008001021011MA1999999098981MD1999999-0151MW1021REMSYN011333   59015
0121825710999991984030500004-05500-045267FM-12+008299999V0209991C00001220001CN0100001N9+02481+02361101051ADDAA106000091AG10999GF100991001001999999001001KA1240M+03031MA1999999099061MD1999999-0211MW1131REMSYN017333   10303 59021
0129825710999991984030512004-05500-045267FM-12+008299999V0203601N00151004201CN0100001N9+02481+02321101271ADDAA106000091AG10999AY101061GF108991081051004501999999KA1240N+02231MA1999999099291MD1999999-0221MW1021REMSYN017333   20223 59022
0135825710999991984030600004-05500-045267FM-12+008299999V0200501N00151004201CN0100001N9+02241+02191101101ADDAA106031091AG10999AY191061GF108991081051004501999999KA1240M+03091MA1999999099111MD1999999+0051MW1951REMSYN023333   10309 58005 60311
0135825710999991984030612004-05500-045267FM-12+008299999V0202301N00051004201CN0100001N9+02401+02231101281ADDAA124033091AG10999AY161061GF108991081051004501999999KA1240N+02041MA1999999099281MD1999999-0011MW1021REMSYN023333   20204 59001 60334
0110825710999991984030618004-05500-045267FM-12+008299999V0200501N00151007501CN0100001N9+02971+02281100861ADDAA106000091AG10999AY101061GF107991071051008001001001MA1999999098891MD1999999-0011MW1021REMSYN011333   59001
0129825710999991984030700004-05500-045267FM-12+008299999V0200501N00151004201CN0100001N9+02371+02331101291ADDAA106000091AG10999AY101061GF108991081051004501999999KA1240M+03011MA1999999099301MD1999999+0191MW1021REMSYN017333   10301 58019
0135825710999991984030712004-05500-045267FM-12+008299999V0201801N00101220001CN0100001N9+02341+02181101451ADDAA124005091AG10999AY161061GF104991041041004501001001KA1240N+02051MA1999999099451MD1999999+0171MW1021REMSYN023333   20205 58017 60054
0110825710999991984030718004-05500-045267FM-12+008299999V0201401N00051045001CN0100001N9+02931+02291101031ADDAA106000091AG10999AY101061GF105991031041008001041001MA1999999099051MD1999999+0161MW1021REMSYN011333   58016
0129825710999991984030812004-05500-045267FM-12+008299999V0202701N00101045001CN0100001N9+02431+02251101451ADDAA124036091AG10999AY161061GF106991041021008001031001KA1240N+02181MA1999999099451MD1410001+0001REMSYN023333   20218 58000 60364
0110825710999991984030818004-05500-045267FM-12+008299999V0200501N00151220001CN0100001N9+02881+02351100981ADDAA106000091AG10999AY101061GF104991031021008001041001MA1999999099011MD1999999-0041MW1021REMSYN011333   59004
0121825710999991984030900004-05500-045267FM-12+008299999V0209991C00001220001CN0100001N9+02581+02401101771ADDAA106000091AG10999GF103991031001017501041001KA1240M+03021MA1999999099191MD1999999-0111MW1131REMSYN017333   10302 59011
0140825710999991984030912004-05500-045267FM-12+008299999V0202301N00101220001CN0100001N9+02531+02331101271ADDAA124000791AA299001091AG10999AY161061GF104991021021004501031001KA1240N+02201MA1999999099281MD1999999-0161REMSYN023333   20220 59016 69974
0110825710999991984030918004-05500-045267FM-12+008299999V0201401N00051220001CN0100001N9+02661+02481100921ADDAA106002091AG10999AY161061GF104991021021008001041001MA1999999098941MD1999999-0071REMSYN017333   59007 60021
0135825710999991984031012004-05500-045267FM-12+008299999V0202701N00261004201CN0100001N9+02431+02261101381ADDAA124003091AG10999AY161061GF108991081051004501999999KA1240N+02191MA1999999099391MD1999999+0101MW1021REMSYN023333   20219 58010 60034
0110825710999991984031018004-05500-045267FM-12+008299999V0202301N001519999999N0100001N9+03001+02321100951ADDAA106000091AG10999AY101061GF107991041041999999021001MA1999999098981MD1999999+0041MW1021REMSYN011333   58004
0121825710999991984031100004-05500-045267FM-12+008299999V0200501N00151007501CN0100001N9+02441+02281101171ADDAA106000091AG10999GF108991081051008001999999KA1240M+03111MA1999999098191MD1999999+0011MW1121REMSYN017333   10311 58001
0121825710999991984031112004-05500-045267FM-12+008299999V0202301N00311004201CN0100001N9+02441+02321101411ADDAA124002091AG10999GF108991081051004501999999KA1240N+02241MA1999999099421MD1999999+0031REMSYN023333   20224 58003 60024
0110825710999991984031118004-05500-045267FM-12+008299999V0203601N00361220001CN0100001N9+02941+02331100901ADDAA106000091AG10999AY101061GF103991031001017501041001MA1999999098941MD1999999-0041MW1021REMSYN011333   59004
0121825710999991984031200004-05500-045267FM-12+008299999V0200501N00101045001CN0100001N9+02561+02381101181ADDAA106000091AG10999GF108991041051004501021999KA1240M+02971MA1999999099201MD1999999+0011MW1131REMSYN017333   10297 58001
0129825710999991984031212004-05500-045267FM-12+008299999V0203201N00151045001CN0100001N9+02581+02211101311ADDAA106000091AG10999AY101061GF107991041051004501021011KA1240N+02321MA1999999099331MD1999999-0091MW1021REMSYN017333   20232 59009
0129825710999991984031218004-05500-045267FM-12+008299999V0203601N00211220001CN0100001N9+03091+02321100871ADDAA106000091AG10999AY101061GF104991999051008001001001MA1999999098911MD1999999-0031MW1021REMSYN011333   59003EQDQ01+000032SCOTLC
0121825710999991984031300004-05500-045267FM-12+008299999V0203601N00211220001CN0100001N9+02541+02381101171ADDAA106000091AG10999GF104991021041008001001011KA1240M+03131MA1999999099191MD1999999-0011MW1171REMSYN017333   10313 59001
0129825710999991984031312004-05500-045267FM-12+008299999V0200501N00101007501CN0100001N9+02521+02341101321ADDAA106000091AG10999AY101061GF108991081051008001999999KA1240N+02261MA1999999099341MD1999999+0011MW1021REMSYN017333   20226 58001
0110825710999991984031318004-05500-045267FM-12+008299999V0203601N00101220001CN0100001N9+99999+99999100741ADDAA106000091AG10999AY101061GF103991031021008001001001MA1999999098791MD1999999-0121MW1021REMSYN011333   59012
0135825710999991984031400004-05500-045267FM-12+008299999V0203601N00101007501CN0100001N9+02341+02241101141ADDAA106010091AG10999AY191061GF108991081071008001999999KA1240M+03171MA1999999099161MD1999999-0031MW1951REMSYN023333   10317 59003 60101
0129825710999991984031412004-05500-045267FM-12+008299999V0202701N00211045001CN0100001N9+02311+02221101371ADDAA124022091AG10999AY161061GF108991041071004501021999KA1240N+02191MA1999999099371MD1999999+0031REMSYN023333   20219 58003 60224
0110825710999991984031418004-05500-045267FM-12+008299999V0203201N00151045001CN0100001N9+02811+02221100971ADDAA106000091AG10999AY101061GF106991041021008001011001MA1999999099001MD1999999+0211MW1021REMSYN011333   58021
0121825710999991984031500004-05500-045267FM-12+008299999V0203601N00151015001CN0100001N9+02421+02321101151ADDAA106000091AG10999GF106991061001017501031001KA1240M+02881MA1999999099161MD1410001+0001MW1131REMSYN017333   10288 58000
0135825710999991984031512004-05500-045267FM-12+008299999V0200901N00151004201CN0100001N9+02321+02221101221ADDAA124021091AG10999AY161061GF108991081051004501999999KA1240N+02111MA1999999099231MD1999999-0141MW1021REMSYN023333   20211 59014 60214
0110825710999991984031518004-05500-045267FM-12+008299999V0200501N00311045001CN0100001N9+02951+02311100821ADDAA106000091AG10999AY101061GF106991031021008001021011MA1999999098841MD1999999-0161MW1021REMSYN011333   59016
0129825710999991984031600004-05500-045267FM-12+008299999V0200501N00051220001CN0100001N9+02551+02491101151ADDAA106000091AG10999AY101061GF106991041001017501031011KA1240M+03011MA1999999099171MD1999999+0011MW1021REMSYN017333   10301 58001
0129825710999991984031612004-05500-045267FM-12+008299999V0200501N00101004201CN0100001N9+02411+02241101261ADDAA106000091AG10999AY101061GF108991081051004501999999KA1240N+02201MA1999999099281MD1999999+0051MW1021REMSYN017333   20220 58005
0146825710999991984031700004-05500-045267FM-12+008299999V0209991C00001007501CN0100001N9+02401+02381101121ADDAA106000491AA299000591AG10999AY191061GF106991061051008001001001KA1240M+02881MA1999999099131MD1999999-0041MW1021REMSYN023333   10288 59004 69941
0110825710999991984031718004-05500-045267FM-12+008299999V0203601N00411045001CN0100001N9+02541+02351100891ADDAA106000091AG10999AY101061GF106991041021008001041001MA1999999098901MD1999999-0011MW1021REMSYN011333   59001
0151825710999991984031800004-05500-045267FM-12+008299999V0201401N00151045001CN0100001N9+02361+02331101702ADDAA106000791AA299001091AG10999GF106991031021008001041001KA1240M+02971MA1999999099111MD1999999-0021REMSYN023333   10297 59002 69971EQDQ01+101703APOSLP
0146825710999991984031812004-05500-045267FM-12+008299999V0201401N00101004201CN0100001N9+02371+02311101311ADDAA124000791AA299001091AG10999AY101061GF108991081051004501999999KA1240N+02221MA1999999099321MD1999999+0121MW1021REMSYN023333   20222 58012 69974
0121825710999991984031818004-05500-045267FM-12+008299999V0200901N00311220001CN0100001N9+02871+02231100851ADDAA106000291AA299000391AG10999AY161061GF104991031021008001011001MA1999999098881MD1999999-0021REMSYN017333   59002 69921
0129825710999991984031900004-05500-045267FM-12+008299999V0203201N00101045001CN0100001N9+02511+02411101051ADDAA106000091AG10999AY101061GF105991021021008001031001KA1240M+03031MA1999999099071MD1999999-0041MW1021REMSYN017333   10303 59004
0135825710999991984032118004-05500-045267FM-12+008299999V0203201N00101045001CN0100001N9+02601+02391101341ADDAA124008091AG10999AY101061GF108991041051004501031011KA1240N+02201MA1999999099361MD1999999+0131MW1021REMSYN023333   20220 58013 60084
0121825710999991984032200004-05500-045267FM-12+008299999V0203601N00151220001CN0100001N9+02621+02421101171ADDAA106000091AG10999GF103991031041008001001001KA1240M+03051MA1999999099201MD1999999-0091MW1131REMSYN017333   10305 59009
0135825710999991984032212004-05500-045267FM-12+008299999V0202301N00211045001CN0100001N9+02531+02361101281ADDAA124024091AG10999AY191061GF106991041031008001031001KA1240N+02161MA1999999099321MD1999999-0051MW1011REMSYN023333   20216 59005 60244
0110825710999991984032218004-05500-045267FM-12+008299999V0200501N00151045001CN0100001N9+03021+02291100971ADDAA106000091AG10999AY101061GF106991031021008001021001MA1999999099011MD1999999+0131MW1021REMSYN011333   58013
0129825710999991984032300004-05500-045267FM-12+008299999V0201401N00051220001CN0100001N9+02601+02481101091ADDAA106000091AG10999AY101061GF102991021021008001001001KA1240M+03091MA1999999099121MD1999999-0081MW1131REMSYN017333   10309 59008
0129825710999991984032312004-05500-045267FM-12+008299999V0209999999999220001CN0100001N9+02521+02491101231ADDAA106000091AG10999AY101061GF102991011011004501041001KA1240N+02231MA1999999099251MD1999999-0061MW1021REMSYN017333   20223 59006
0110825710999991984032318004-05500-045267FM-12+008299999V02099999999999999999N0100001N9+99999+99999100771ADDAA106000091AG10999AY101061GF199999021021008001051001MA1999999098821MD1999999-0081MW1021REMSYN011333   59008
0121825710999991984032400004-05500-045267FM-12+008299999V0202701N00051045001CN0100001N9+02371+02261101171ADDAA106000091AG10999GF106991041021008001011001KA1240M+03171MA1999999099191MD1999999+0071MW1131REMSYN017333   10317 58007
0129825710999991984032412004-05500-045267FM-12+008299999V0209991C00001004201CN0100001N9+02391+02361101091ADDAA106000091AG10999AY101061GF108991081051004501999999KA1240N+02181MA1999999099101MD1999999-0151MW1021REMSYN017333   20218 59015
0116825710999991984032418004-05500-045267FM-12+008299999V0203601N00151045001CN0100001N9+02971+02511100811ADDAA106002091AG10999AY161061GF107991041051008001021011MA1999999098851MD1999999+0031MW1021REMSYN017333   58003 60021
0129825710999991984032500004-05500-045267FM-12+008299999V0209991C00001220001CN0100001N9+02471+02431101041ADDAA106000091AG10999AY101061GF100991001001999999001001KA1240M+03001MA1999999099061MD1999999-0131MW1021REMSYN017333   10300 59013
0135825710999991984032512004-05500-045267FM-12+008299999V0203601N00151004201CN0100001N9+02471+02431101301ADDAA124002091AG10999AY101061GF108991081051004501999999KA1240N+02251MA1999999099311MD1999999+0211MW1021REMSYN023333   20225 58021 60024
0116825710999991984032518004-05500-045267FM-12+008299999V0203601N00151004201CN0100001N9+02661+02411100951ADDAA106020091AG10999AY161061GF108991081051004501999999MA1999999098981MD1999999+0131MW1021REMSYN017333   58013 60201
0143825710999991984032600004-05500-045267FM-12+008299999V0202301N00151220001CN0100001N9+02441+02411101161ADDAA106000091AG10999GA1021+054009059GF103991031001017501021001KA1240M+02771MA1999999099181MD1999999+0121MW1131REMSYN023333   10277 58012 82668
0127825710999991984032612004-05500-045267FM-12+008299999V0202301N00101045001CN0100001N9+02361+02221101351ADDAA124021091AG10999GF108991041071004501021999KA1240N+02171MA1999999099361MD1999999+0051MW1911REMSYN023333   20217 58005 60214
0110825710999991984032618004-05500-045267FM-12+008299999V0201801N00101045001CN0100001N9+02821+02401100941ADDAA106002091AG10999AY161061GF105991031021008001041001MA1999999098961MD1999999-0021REMSYN017333   59002 60021
0135825710999991984032700004-05500-045267FM-12+008299999V0201401N00101045001CN0100001N9+02281+02251101251ADDAA106013091AG10999AY161061GF108991041071008001021999KA1240M+02871MA1999999099251MD1999999+0071MW1911REMSYN023333   10287 58007 60131
0135825710999991984032712004-05500-045267FM-12+008299999V0202701N00101004201CN0100001N9+99999+99999101241ADDAA124016091AG10999AY161061GF108991081051004501999999KA1240N+02121MA1999999099241MD1999999-0121MW1021REMSYN023333   20212 59012 60164
0110825710999991984032718004-05500-045267FM-12+008299999V0200501N00211220001CN0100001N9+02961+02281100841ADDAA106000091AG10999AY101061GF103991031021008001001001MA1999999098871MD1999999-0091MW1021REMSYN011333   59009
0121825710999991984032800004-05500-045267FM-12+008299999V0203601N00051220001CN0100001N9+02521+02361101091ADDAA106000091AG10999GF102991021011008001001001KA1240M+03001MA1999999099101MD1999999-0151MW1131REMSYN017333   10300 59015
0174825710999991984032812004-05500-045267FM-12+008299999V0209999999999007501CN0100001N9+02411+02171101241ADDAA124000691AA299000591AG10999AY161061GF108991081051008001999999KA1240N+02151MA1999999099251MD1999999+0011ME1311239MW1021REMSYN023333   20215 58001 69964EQDQ01+999990APOSLP
0121825710999991984032900004-05500-045267FM-12+008299999V0209991C00001220001CN0100001N9+02501+02401101091ADDAA106000091AG10999GF102991021021008001001001KA1240M+03051MA1999999099111MD1999999+0011MW1131REMSYN017333   10305 58001
0129825710999991984032912004-05500-045267FM-12+008299999V0200501N00261004201CN0100001N9+02641+02231101311ADDAA124000191AG10999AY161061GF106991061021004501001001KA1240N+02171MA1999999099331MD1999999+0081REMSYN023333   20217 58008 69914
0096825710999991984032918004-05500-045267FM-12+008299999V0200501N00311220001CN0100001N9+03121+02461100841ADDAA106000091AG10999GF104991031021008001011001MA1999999098881MD1999999-0021REMSYN011333   59002
0135825710999991984033000004-05500-045267FM-12+008299999V0201801N00101220001CN0100001N9+02501+02471101161ADDAA106003091AG10999AY161061GF102991021001017501041001KA1240M+03161MA1999999099181MD1999999+0071MW1131REMSYN023333   10316 58007 60031
0135825710999991984033012004-05500-045267FM-12+008299999V0202701N00151004201CN0100001N9+02401+02331101351ADDAA124020091AG10999AY161061GF108991081051004501999999KA1240N+02131MA1999999099401MD1999999+0071MW1021REMSYN023333   20213 58007 60204
0108825710999991984033018004-05500-045267FM-12+008299999V0200501N00311220001CN0100001N9+02881+02501100961ADDAA106000191AG10999GF106991041031008001001011MA1999999098991MD1999999+0111MW1911REMSYN017333   58011 69911
0129825710999991984033100004-05500-045267FM-12+008299999V0201401N00101220001CN0100001N9+02541+02471101111ADDAA106000091AG10999AY101061GF100991001001999999001001KA1240M+03071MA1999999099131MD1999999-0051MW1021REMSYN017333   10307 59005
0135825710999991984033112004-05500-045267FM-12+008299999V0203601N00151004201CN0100001N9+02551+99999101211ADDAA124000191AG10999AY101061GF106991061051004501001001KA1240N+02231MA1999999099231MD1999999-0171MW1021REMSYN023333   20223 59017 69914
0127825710999991984033118004-05500-045267FM-12+008299999V0203601N00261220001CN0100001N9+03071+02381100721ADDAA106000291AA299000391AG10999AY161061GF103991031021008001001001MA1999999098771MD1999999-0221MW1011REMSYN017333   59022 69921
0121825710999991984040100004-05500-045267FM-12+008299999V0209991C00001220001CN0100001N9+02561+02311101041ADDAA106000091AG10999GF102991021021008001001001KA1240M+03131MA1999999099071MD1999999-0061MW1131REMSYN017333   10313 59006
0165825710999991984040112004-05500-045267FM-12+008299999V0203601N00151007501CN0100001N9+02451+02321101291ADDAA124000291AA299000391AG10999AY101061GF108991081051008001999999KA1240N+02251MA1999999099301MD1999999+0071MW1021REMSYN023333   20225 58007 69924EQDQ01+999990APOSLP
0110825710999991984040118004-05500-045267FM-12+008299999V0203601N00311045001CN0100001N9+02841+02401100811ADDAA106000091AG10999AY101061GF106991041031008001041001MA1999999098841MD1999999+0071MW1021REMSYN011333   58007
0121825710999991984040200004-05500-045267FM-12+008299999V0202301N00151004201CN0100001N9+02521+02401101221ADDAA106000091AG10999GF108991081051004501999999KA1240M+03031MA1999999099241MD1999999+0171MW1131REMSYN017333   10303 58017
0121825710999991984040212004-05500-045267FM-12+008299999V0203201N00101004201CN0100001N9+02471+02341101291ADDAA124013091AG10999GF108991081051004501999999KA1240N+02271MA1999999099311MD1999999+0011REMSYN023333   20227 58001 60134
0110825710999991984040218004-05500-045267FM-12+008299999V0203601N00261045001CN0100001N9+99999+99999100841ADDAA106000091AG10999AY101061GF107991031031008001021011MA1999999098881MD1999999+0041MW1021REMSYN011333   58004
0121825710999991984040300004-05500-045267FM-12+008299999V0203601N00151007501CN0070001N9+02501+02431101191ADDAA106000091AG10999GF108991081071008001999999KA1240M+03011MA1999999099211MD1999999-0031MW1131REMSYN017333   10301 59003
0154825710999991984040312004-05500-045267FM-12+008299999V0202301N00151004201CN0100001N9+02361+02261999999ADDAA124024091AG10999AY161061GF108991081051004501999999KA1240N+02191MA1999999099471MD1999999+0161MW1021REMSYN023333   20219 58016 60244EQDQ01 097463APOSLP
0129825710999991984040318004-05500-045267FM-12+008299999V0202301N00211045001CN0100001N9+02861+02331100972ADDAA106000091AG10999AY101061GF106991041041008001041001MA1999999099001MD1999999+0121MW1021REMSYN011333   58012EQDQ01+100973APOSLP
0129825710999991984040400004-05500-045267FM-12+008299999V0202301N00101220001CN0100001N9+02421+02371101201ADDAA106000091AG10999AY101061GF100991001001999999001001KA1240M+02901MA1999999099211MD1410001+0001MW1021REMSYN017333   10290 58000
0129825710999991984040412004-05500-045267FM-12+008299999V0202301N00101045001CN0100001N9+02381+02331101371ADDAA124004091AG10999AY161061GF108991041071004501021999KA1240N+02231MA1999999099381MD1999999-0091REMSYN023333   20223 59009 60044
0110825710999991984040418004-05500-045267FM-12+008299999V0201801N00051220001CN0100001N9+02841+99999100991ADDAA106000091AG10999AY101061GF104991021021008001041001MA1999999099021MD1999999+0021MW1021REMSYN011333   58002
0121825710999991984040500004-05500-045267FM-12+008299999V0200501N00151220001CN0100001N9+02481+02431101181ADDAA106000091AG10999GF102991021001017501041001KA1240M+02981MA1999999099201MD1999999-0011MW1131REMSYN017333   10298 59001
0129825710999991984040512004-05500-045267FM-12+008299999V0200501N00151220001CN0100001N9+02561+02381101341ADDAA106000091AG10999AY101061GF104991999999008001999999KA1240N+02311MA1999999099361MD1999999-0021MW1021REMSYN017333   20231 59002
0116825710999991984040518004-05500-045267FM-12+008299999V0202701N00101045001CN0100001N9+02481+02411101021ADDAA106006091AG10999AY191061GF106991041051004501021001MA1999999099041MD1999999+0021MW1211REMSYN017333   58002 60061
0129825710999991984040600004-05500-045267FM-12+008299999V0209991C00001220001CN0100001N9+02441+02351101231ADDAA106000091AG10999AY161061GF102991021021004501001001KA1240M+02911MA1999999099251MD1999999+0051MW1131REMSYN017333   10291 58005
0135825710999991984040612004-05500-045267FM-12+008299999V0200901N00101004201CN0100001N9+02351+02311101391ADDAA124013091AG10999AY161061GF108991081051004501999999KA1240N+02141MA1999999099901MD1999999+0041MW1021REMSYN023333   20214 58004 60134
0116825710999991984040618004-05500-045267FM-12+008299999V0200501N00151004201CN0100001N9+02541+02441101101ADDAA106010091AG10999AY161061GF108991081051004501999999MA1999999099111MD1999999+0071MW1911REMSYN017333   58007 60101
0146825710999991984040700004-05500-045267FM-12+008299999V0200901N00101004201CN0100001N9+02311+02271101311ADDAA106000291AA299000391AG10999AY161061GF108991081051004501999999KA1240M+02811MA1999999099321MD1999999+0071MW1021REMSYN023333   10281 58007 69921
0129825710999991984040712004-05500-045267FM-12+008299999V0201401N00101004201CN0100001N9+02511+02271101391ADDAA124011091AG10999AY161061GF107991071021004501001001KA1240N+02211MA1999999099401MD1410001+0001REMSYN023333   20221 58000 60114
0110825710999991984040718004-05500-045267FM-12+008299999V0200501N00211220001CN0100001N9+02991+02281100961ADDAA106000091AG10999AY101061GF104991021021008001001011MA1999999099001MD1999999-0111MW1021REMSYN011333   59011
0121825710999991984040800004-05500-045267FM-12+008299999V0209991C00001220001CN0100001N9+02571+02471101271ADDAA106000091AG10999GF104991041001017501041001KA1240M+03041MA1999999099291MD1999999-0031MW1131REMSYN017333   10304 59003
0129825710999991984040812004-05500-045267FM-12+008299999V0202701N00151045001CN0100001N9+02281+02231101431ADDAA124019091AG10999AY191061GF106991041021004501011001KA1240N+02141MA1999999099441MD1999999+0041REMSYN023333   20214 58004 60194
0116825710999991984040818004-05500-045267FM-12+008299999V0200501N00361045001CN0100001N9+02431+02371101171ADDAA106010091AG10999AY191061GF107991041021008001071001MA1999999099181MD1999999+0181MW1911REMSYN017333   58018 60101
0129825710999991984040900004-05500-045267FM-12+008299999V0202301N00051012001CN0100001N9+02331+02271101371ADDAA106000091AG10999AY191061GF106991061081008001001001KA1240M+02811MA1999999099371MD1999999+0081MW1131REMSYN017333   10281 58008
0135825710999991984040912004-05500-045267FM-12+008299999V0201401N00151007501CN0100001N9+02261+02101101521ADDAA124018091AG10999AY161061GF108991051051008001041999KA1240N+02111MA1999999099521MD1999999+0081MW1211REMSYN023333   20211 58008 60184
0116825710999991984040918004-05500-045267FM-12+008299999V0201801N00311007501CN0100001N9+02561+02491101091ADDAA106002091AG10999AY161061GF108991081071008001999999MA1999999099101MD1999999-0081MW1031REMSYN017333   59008 60021
0135825710999991984041000004-05500-045267FM-12+008299999V0202301N00151220001CN0100001N9+02401+02381101281ADDAA106002091AG10999AY191061GF103991031001017501031001KA1240M+02791MA1999999099291MD1999999-0081MW1131REMSYN023333   10279 59008 60021
0129825710999991984041012004-05500-045267FM-12+008299999V0203601N00151045001CN0040001N9+02301+02271101421ADDAA124004091AG10999AY161061GF108991041071004501021999KA1240N+02121MA1999999099421MD1999999-0101REMSYN023333   20212 59010 60044
0110825710999991984041018004-05500-045267FM-12+008299999V0200501N00151220001CN0100001N9+02961+02331101051ADDAA106000091AG10999AY101061GF103991021021008001011001MA1999999099081MD1999999-0021MW1021REMSYN011333   59002
0129825710999991984041100004-05500-045267FM-12+008299999V0200901N00101015001CN0100001N9+02391+02261101291ADDAA106000091AG10999AY101061GF105991051001017501031001KA1240M+03001MA1999999099301MD1999999+0011MW1021REMSYN017333   10300 58001
0129825710999991984041112004-05500-045267FM-12+008299999V0200901N00261220001CN0100001N9+02621+02331101471ADDAA106000091AG10999AY101061GF103991021021008001031001KA1240N+02131MA1999999099401MD1999999+0061MW1021REMSYN017333   20213 58006
0110825710999991984041118004-05500-045267FM-12+008299999V0200501N00211220001CN0100001N9+03061+02421101081ADDAA106000091AG10999AY101061GF104991031021008001001011MA1999999099111MD1999999+0031MW1021REMSYN011333   58003
0121825710999991984041200004-05500-045267FM-12+008299999V0200501N00101045001CN0100001N9+02491+02321101261ADDAA106000091AG10999GF106991041081004501031001KA1240M+03071MA1999999099281MD1999999-0021MW1131REMSYN017333   10307 59002
0129825710999991984041212004-05500-045267FM-12+008299999V0203601N00151045001CN0100001N9+02481+02381101461ADDAA106000091AG10999AY101061GF106991041031004501041001KA1240N+02221MA1999999099471MD1999999-0011MW1021REMSYN017333   20222 59001
0110825710999991984041218004-05500-045267FM-12+008299999V0200901N00311045001CN0100001N9+02881+02411101011ADDAA106000091AG10999AY101061GF106991041041008001041001MA1999999099051MD1999999-0061MW1021REMSYN011333   59006
0129825710999991984041300004-05500-045267FM-12+008299999V0200901N00151004201CN0100001N9+02541+02441101251ADDAA106000091AG10999AY191061GF108991081071004501999999KA1240M+03091MA1999999099271MD1999999-0011MW1131REMSYN017333   10309 59001
0140825710999991984041312004-05500-045267FM-12+008299999V0203601N00151004201CN0100001N9+02481+02381101331ADDAA124000291AA299000391AG10999AY161061GF106991051021004501011001KA1240N+02211MA1999999099351MD1999999-0121REMSYN023333   20221 59012 69924
0110825710999991984041318004-05500-045267FM-12+008299999V0203601N00261220001CN0100001N9+02971+02471100851ADDAA106000091AG10999AY101061GF104991031021008001041001MA1999999098891MD1999999-0161MW1021REMSYN011333   59016
0129825710999991984041400004-05500-045267FM-12+008299999V0202301N00151004201CN0100001N9+02421+02371101251ADDAA106000091AG10999AY191061GF107991051051004501041001KA1240M+03071MA1999999099261MD1999999-0011MW1131REMSYN017333   10307 59001
0110825710999991984041418004-05500-045267FM-12+008299999V0200501N00051007501CN0100001N9+03031+02311100841ADDAA106000091AG10999AY101061GF106991051021008001031001MA1999999098881MD1999999-0011MW1021REMSYN011333   59001
0135825710999991984041500004-05500-045267FM-12+008299999V0203601N00101004201CN0100001N9+02381+02351101221ADDAA106001091AG10999AY161061GF108991081051004501999999KA1240M+03071MA1999999099241MD1999999+0021MW1911REMSYN023333   10307 58002 60011
0110825710999991984041518004-05500-045267FM-12+008299999V0203201N00261220001CN0100001N9+02661+02351100911ADDAA106000091AG10999AY101061GF104991031031008001001011MA1999999099941MD1999999+0051MW1021REMSYN011333   58005
0140825710999991984041600004-05500-045267FM-12+008299999V0209991C00001220001CN0100001N9+02441+02411101071ADDAA106000091AG10999GF103991031001017501041001KA1240M+02981MA1999999099092MD1999999-0151MW1131REMSYN017333   10298 59015EQDQ01+099093APOSP 
0110825710999991984041618004-05500-045267FM-12+008299999V0202301N00261045001CN0100001N9+02841+02401100881ADDAA106000091AG10999AY101061GF105991031021008001041001MA1999999098911MD1999999-0021MW1021REMSYN011333   59002
0129825710999991984041700004-05500-045267FM-12+008299999V0209991C00001220001CN0100001N9+02461+02431101121ADDAA106000091AG10999AY101061GF104991021021008001041001KA1240M+02951MA1999999099131MD1999999+0041MW1021REMSYN017333   10295 58004
0140825710999991984041712004-05500-045267FM-12+008299999V0203601N00151004201CN0100001N9+02481+02361101331ADDAA124000891AA299001091AG10999AY161061GF107991051021004501031001KA1240N+02261MA1999999099341MD1999999+0011REMSYN023333   20226 58001 69984
0110825710999991984041718004-05500-045267FM-12+008299999V0203601N00101045001CN0100001N9+02741+02441100931ADDAA106000591AG10999AY161061GF106991031021008001071001MA1999999098951MD1999999+0041REMSYN017333   58004 69951
0121825710999991984041800004-05500-045267FM-12+008299999V0201401N00101045001CN0100001N9+02421+02401101161ADDAA106000091AG10999GF105991021021008001041001KA1240M+02621MA1999999099181MD1999999+0051MW1131REMSYN017333   10262 58005
0135825710999991984041812004-05500-045267FM-12+008299999V0200501N00151004201CN0100001N9+02411+02301101461ADDAA124016091AG10999AY161061GF108991081051004501999999KA1240N+02281MA1999999099471MD1999999+0131MW1021REMSYN023333   20228 58013 60164
0110825710999991984041818004-05500-045267FM-12+008299999V0201401N00211045001CN0100001N9+02771+02341100991ADDAA106000091AG10999AY101061GF106991031031008001041001MA1999999099031MD1999999+0081MW1021REMSYN011333   58008
0121825710999991984041900004-05500-045267FM-12+008299999V0200501N00151220001CN0100001N9+02441+02391101271ADDAA106000091AG10999GF102991021021008001001001KA1240M+02831MA1999999099281MD1999999+0101MW1131REMSYN017333   10283 58010
0135825710999991984041912004-05500-045267FM-12+008299999V0202701N00051004201CN0100001N9+02411+02261101371ADDAA124004091AG10999AY161061GF108991081051004501999999KA1240N+02241MA1999999099381MD1999999-0091MW1021REMSYN023333   20224 59009 60044
0110825710999991984041918004-05500-045267FM-12+008299999V0203601N00151045001CN0100001N9+03011+02511100911ADDAA106000091AG10999AY101061GF108991041021008001031011MA1999999098951MD1999999-0081MW1021REMSYN011333   59008
0121825710999991984042000004-05500-045267FM-12+008299999V0200901N00101220001CN0100001N9+02521+02451101171ADDAA106000091AG10999GF103991001001999999001011KA1240M+03041MA1999999099191MD1999999-0091MW1131REMSYN017333   10304 59009
0146825710999991984042012004-05500-045267FM-12+008299999V0200501N00151007501CN0100001N9+02401+02301101461ADDAA106000091AA224000691AG10999AY161061GF108991081051008001999999KA1240N+02161MA1999999099471MD1999999+0091MW1021REMSYN023333   20216 58009 69964
0116825710999991984042018004-05500-045267FM-12+008299999V0203601N00101220001CN0100001N9+02961+02351101941ADDAA106000391AG10999AY161061GF103991031021008001001011MA1999999098971MD1999999+0021MW1021REMSYN017333   58002 69931
0148825710999991984042100004-05500-045267FM-12+008299999V0203601N00051220001CN0100001N9+02481+02411101191ADDAA106000091AG10999AY101061GF105991031021008001001011KA1240N+99999MA1999999099211MD1999999+0021MW1021REMSYN017333   20305 58002EQDQ01 +03052ATMN  
0135825710999991984042112004-05500-045267FM-12+008299999V0203601N00211004201CN0100001N9+02461+02361101431ADDAA124042091AG10999AY191061GF108991081051004501999999KA1240N+02221MA1999999099441MD1999999-0031MW1021REMSYN023333   20222 59003 60424
0127825710999991984042118004-05500-045267FM-12+008299999V0203201N00151045001CN0100001N9+02721+02391100951ADDAA106002091AA299000091AG10999AY161061GF108991041031008001021011MA1999999098981MD1999999+0011MW1021REMSYN017333   58001 60021
0129825710999991984042200004-05500-045267FM-12+008299999V0201801N00051220001CN0100001N9+02491+02411101051ADDAA106000091AG10999AY101061GF100991001001999999001001KA1240M+02901MA1999999099071MD1999999-0141MW1021REMSYN017333   10290 59014
0135825710999991984042212004-05500-045267FM-12+008299999V0200501N00101004201CN0100001N9+02361+02341101331ADDAA124005091AG10999AY101061GF108991081071004501999999KA1240N+02241MA1999999099341MD1999999-0101MW1611REMSYN023333   20224 59010 60054
0116825710999991984042218004-05500-045267FM-12+008299999V0202301N00151045001CN0100001N9+02801+02361100931ADDAA106004091AG10999AY161061GF107991041041004501041001MA1999999098961MD1999999-0021MW1011REMSYN017333   59002 60041
0129825710999991984042300004-05500-045267FM-12+008299999V0209991C00001045001CN0100001N9+02471+02411101221ADDAA106000091AG10999AY191061GF106991041061008001041001KA1240M+02911MA1999999099231MD1999999+0161MW1171REMSYN017333   10291 58016
0065825710999991984042312004-05500-045267FM-12+008299999V0202701N00101045001CN0100001N9+02591+02351101431ADDAG10999AY191061GF106991041041004501041001MA1999999099451MW1011
0110825710999991984042318004-05500-045267FM-12+008299999V0200901N00261045001CN0100001N9+03041+02451100981ADDAA106000091AG10999AY101061GF106991041041008001021001MA1999999099021MD1999999+0061MW1021REMSYN011333   58006
0135825710999991984042400004-05500-045267FM-12+008299999V0202301N00101220001CN0100001N9+02481+02431101381ADDAA106002091AG10999AY161061GF102991021021008001001001KA1240M+03071MA1999999099391MD1999999+0161MW1131REMSYN023333   10307 58016 60021
0154825710999991984042412004-05500-045267FM-12+008299999V0200901N00101220001CN0100001N9+02601+02401101431ADDAA124002091AG10999AY101061GF103991021021008001041001KA1240M+99999MA1999999099441MD1999999-0011MW1021REMSYN023333   10216 59001 60024EQDQ01 +02162ATMX  
0110825710999991984042418004-05500-045267FM-12+008299999V0200901N00211220001CN0100001N9+03121+02481100981ADDAA106000091AG10999AY101061GF103991031021008001041001MA1999999099021MD1410001+0001MW1021REMSYN011333   58000
0129825710999991984042500004-05500-045267FM-12+008299999V0200501N00101007501CN0100001N9+02421+02281101361ADDAA106000091AG10999AY191061GF106991061051008001001001KA1240M+03161MA1999999099381MD1999999-0011MW1131REMSYN017333   10316 59001
0129825710999991984042512004-05500-045267FM-12+008299999V0202301N00101004201CN0100001N9+02481+02391101391ADDAA124008091AG10999AY161061GF107991051021004501041001KA1240N+02251MA1999999099401MD1999999-0041REMSYN023333   20225 59004 60084
0116825710999991984042518004-05500-045267FM-12+008299999V0202301N00151045001CN0020001N9+02461+02411100941ADDAA106011091AG10999AY191061GF108991041071008001021999MA1999999098961MD1999999-0061MW1951REMSYN017333   59006 60111
0135825710999991984042600004-05500-045267FM-12+008299999V0201801N00101220001CN0020001N9+02421+02391101251ADDAA106001091AG10999AY191061GF103991031031004501001001KA1240M+03021MA1999999099261MD1999999+0121MW1171REMSYN023333   10302 58012 60011
0135825710999991984042612004-05500-045267FM-12+008299999V0201801N00101004201CN0100001N9+02411+02231101291ADDAA124014091AG10999AY161061GF108991081051004501999999KA1240N+02071MA1999999099301MD1999999-0101MW1021REMSYN023333   20207 59010 60144
0102825710999991984042618004-05500-045267FM-12+008299999V0200501N00211220001CN0100001N9+03001+02461100881ADDAA106000091AG10999GF106991031021008001001011MA1999999098911MD1999999-0051MW1171REMSYN011333   59005
0129825710999991984042700004-05500-045267FM-12+008299999V0209991C00001220001CN0100001N9+02471+02431101181ADDAA106000091AG10999AY101061GF104991041001017501021001KA1240M+03051MA1999999099201MD1999999-0061MW1021REMSYN017333   10305 59006
0129825710999991984042712004-05500-045267FM-12+008299999V0200501N00051045001CN0100001N9+02541+02421101311ADDAA106000091AG10999AY101061GF107991041051008001031001KA1240N+02221MA1999999099331MD1999999+0031MW1021REMSYN017333   20222 58003
0110825710999991984042718004-05500-045267FM-12+008299999V0200901N00411045001CN0100001N9+02961+02401100871ADDAA106000091AG10999AY101061GF105991031021008001041001MA1999999098911MD1410001+0001MW1021REMSYN011333   58000
0129825710999991984042800004-05500-045267FM-12+008299999V0203601N00051220001CN0100001N9+02431+02331101251ADDAA106000091AG10999AY191061GF104991041031008001001001KA1240M+03051MA1999999099271MD1999999+0071MW1131REMSYN017333   10305 58007
0107825710999991984042818004-05500-045267FM-12+008299999V0201401N00311220001CN0100001N9+02931+02291101091ADDAA106000091AA212580092AG10999AY101061GF104991021021008001071001MA1999999099121MW1021REMSYN011333   65802
0129825710999991984042900004-05500-045267FM-12+008299999V0200501N00101220001CN0100001N9+02451+02391101341ADDAA106000091AG10999AY101061GF104991021021008001011001KA1240M+02971MA1999999099351MD1999999+0081MW1021REMSYN017333   10297 58008
0121825710999991984042918004-05500-045267FM-12+008299999V0203601N00101220001CN0100001N9+02641+02391101091ADDAA106000691AA299000591AG10999AY161061GF104991021021008001041001MA1999999099111MD1999999-0011REMSYN017333   59001 69961
0146825710999991984043000004-05500-045267FM-12+008299999V0200501N00151007501CN0100001N9+02451+02231101531ADDAA124000691AA299000591AG10999AY101061GF108991081051008001999999KA1240N+02221MA1999999099551MD1999999+0011MW1021REMSYN023333   20222 58001 69964
0146825710999991984043012004-05500-045267FM-12+008299999V0200501N00151007501CN0100001N9+02451+02231101531ADDAA124000691AA299000591AG10999AY101061GF108991081051008001999999KA1240N+02221MA1999999099551MD1999999+0011MW1021REMSYN023333   20222 58001 69964
0129825710999991984043018004-05500-045267FM-12+008299999V0201401N00361220001CN0100001N9+02851+02331101121ADDAA106000091AG10999AY101061GF103991999041008001001001MA1999999099151MD1999999+0041MW1021REMSYN011333   58004EQDQ01+000022SCOTLC
0148825710999991984050100004-05500-045267FM-12+008299999V0200501N00101220001CN0100001N9+02511+02401101231ADDAA106000091AG10999AY101061GF103991999021008001001001KA1240M+02991MA1999999099241MD1999999-0051MW1021REMSYN017333   10299 59005EQDQ01+000022SCOTLC
0148825710999991984050112004-05500-045267FM-12+008299999V0203601N000519999999N0100001N9+02431+02371101551ADDAA106000091AG10999AY101061GF107991999051004501001001KA1240N+02211MA1999999099561MD1999999+0011MW1021REMSYN017333   20221 58001EQDQ01+000022SCOTLC
0129825710999991984050118004-05500-045267FM-12+008299999V0202701N00101045001CN0100001N9+02771+02461101111ADDAA106000091AG10999AY101061GF107991031021008001071001MA1999999098142MD1999999-0011MW1021REMSYN011333   59001EQDQ01+098143APOSP 
0142825710999991984050200004-05500-045267FM-12+008299999V0203601N00151220001CN0100001N9+02401+02351101361ADDAA106000091AG10999AY191061GF102991021011008001001001KA1240M+03001MA1999999088372MD1999999+0031REMSYN017333   10300 58003EQDQ01+088373APOSP 
0110825710999991984050218004-05500-045267FM-12+008299999V0203601N00101045001CN0100001N9+02771+02341101181ADDAA106000091AG10999AY101061GF108991031031008001021011MA1999999099201MD1999999+0061MW1021REMSYN011333   58006
0129825710999991984050300004-05500-045267FM-12+008299999V0203601N00101007501CN0100001N9+02411+02371101311ADDAA106000091AG10999AY101061GF106991061071008001001001KA1240M+02851MA1999999099321MD1999999-0051MW1021REMSYN017333   10285 59005
0135825710999991984050312004-05500-045267FM-12+008299999V0201401N00101004201CN0100001N9+02431+02321101531ADDAA124000191AG10999AY161061GF108991081051004501999999KA1240N+02281MA1999999099541MD1999999-0051MW1021REMSYN023333   20228 59005 69914
0102825710999991984050318004-05500-045267FM-12+008299999V0200501N00311045001CN0100001N9+02921+02391101061ADDAA106000091AG10999GF106991041041008001041001MA1999999099101MD1999999-0101MW1171REMSYN011333   59010
0129825710999991984050400004-05500-045267FM-12+008299999V0200501N00151220001CN0100001N9+02361+02331101381ADDAA106000091AG10999AY101061GF104991041051008001001001KA1240M+03031MA1999999099391MD1999999+0071MW1021REMSYN017333   10303 58007
0140825710999991984050412004-05500-045267FM-12+008299999V0200201N00101004201CN0100001N9+02471+02361101431ADDAA124000291AA299000391AG10999AY161061GF107991071051004501001001KA1240N+02221MA1999999099441MD1999999-0101REMSYN023333   20222 59010 69924
0110825710999991984050418004-05500-045267FM-12+008299999V0201401N00311045001CN0100001N9+02831+02421101091ADDAA106000091AG10999AY101061GF105991031021008001031001MA1999999099121MD1999999+0021MW1021REMSYN011333   58002
0121825710999991984050500004-05500-045267FM-12+008299999V0200501N00261220001CN0100001N9+02481+02391101301ADDAA106000091AG10999GF102991021001017501041001KA1240M+03011MA1999999099321MD1999999-0071MW1131REMSYN017333   10301 59007
0115825710999991984050512004-05500-045267FM-12+008299999V0203601N00051045001CN0100001N9+02451+02391101401ADDAA106000091AG10999GF108991041051004501031011KA1240N+02221MA1999999099411MD1999999-0031REMSYN017333   20222 59003
0110825710999991984050518004-05500-045267FM-12+008299999V0203601N00261105001CN0100001N9+03011+02291100991ADDAA106000091AG10999AY101061GF105991021021008001041011MA1999999099031MD1999999-0091MW1021REMSYN011333   59009
0129825710999991984050600004-05500-045267FM-12+008299999V0200501N00051220001CN0100001N9+02501+02401101131ADDAA106000091AG10999AY101061GF100991001001999999001001KA1240M+03081MA1999999099151MD1999999-0171MW1021REMSYN017333   10308 59017
0135825710999991984050612004-05500-045267FM-12+008299999V0200501N00151004201CN0100001N9+02321+02271101371ADDAA124000191AG10999AY161061GF108991081051004501999999KA1240N+02101MA1999999099381MD1999999-0031MW1021REMSYN023333   20210 59003 69914
0110825710999991984050618004-05500-045267FM-12+008299999V0200501N00211220001CN0100001N9+03031+02291100991ADDAA106000091AG10999AY101061GF105991041021008001001011MA1999999099021MD1999999-0011MW1021REMSYN011333   59001
0148825710999991984050700004-05500-045267FM-12+008299999V0200501N003119999999N0100001N9+02501+02341101171ADDAA106000091AG10999AY101061GF105991999061008001001001KA1240M+03081MA1999999099181MD1999999+0031MW1021REMSYN017333   10308 58003EQDQ01+000042SCOTLC
0129825710999991984050712004-05500-045267FM-12+008299999V0203601N00101004201CN0100001N9+02441+02321101381ADDAA106000091AG10999AY101061GF108991081051004501999999KA1240N+02261MA1999999099391MD1999999+0011MW1021REMSYN017333   20226 58001
0127825710999991984050718004-05500-045267FM-12+008299999V0200901N00261105001CN0100001N9+02901+02391100971ADDAA106000291AA299000391AG10999AY161061GF105991021021008001031011MA1999999099001MD1999999-0021MW1021REMSYN017333   59002 69921
0146825710999991984050812004-05500-045267FM-12+008299999V0203601N00051220001CN0100001N9+02591+02331101371ADDAA124000291AA299000391AG10999AY101061GF104991011011004501031001KA1240N+02261MA1999999099391MD1410001+0001MW1021REMSYN023333   20226 58000 69924
0110825710999991984050818004-05500-045267FM-12+008299999V0200901N00361220001CN0100001N9+03091+02241100991ADDAA106000091AG10999AY101061GF103991031021008001001001MA1999999099031MD1999999+0031MW1021REMSYN011333   58003
0129825710999991984050900004-05500-045267FM-12+008299999V0203601N00051220001CN0100001N9+02451+02341101261ADDAA106000091AG10999AY101061GF102991021001017501011001KA1240M+03131MA1999999099281MD1999999+0091MW1021REMSYN017333   10313 58009
0129825710999991984050912004-05500-045267FM-12+008299999V0203601N00101004201CN0100001N9+02361+02291101471ADDAA106000091AG10999AY101061GF108991081051004501999999KA1240N+02121MA1999999099471MD1999999+0081MW1021REMSYN017333   20212 58008
0110825710999991984050918004-05500-045267FM-12+008299999V0200501N00211220001CN0100001N9+02971+02281101041ADDAA106000091AG10999AY101061GF103991031001017501041001MA1999999099071MD1999999+0041MW1021REMSYN011333   58004
0129825710999991984051000004-05500-045267FM-12+008299999V0200501N00101220001CN0100001N9+02491+02321101241ADDAA106000091AG10999AY101061GF102991021001017501041001KA1240M+03031MA1999999099251MD1999999-0031MW1021REMSYN017333   10303 59003
0129825710999991984051012004-05500-045267FM-12+008299999V0201401N00261220001CN0100001N9+02741+02261101311ADDAA106000091AG10999AY101061GF103991021001017501031011KA1240N+02271MA1999999099341MD1999999-0131MW1021REMSYN017333   20227 59013
0110825710999991984051018004-05500-045267FM-12+008299999V0200501N00151220001CN0100001N9+03081+02321100891ADDAA106000091AG10999AY101061GF104991031021008001011001MA1999999098941MD1999999-0131MW1021REMSYN011333   59013
0129825710999991984051100004-05500-045267FM-12+008299999V0200901N00151220001CN0009001N9+02391+02211101061ADDAA106000091AG10999AY101061GF102991021001017501001031KA1240M+03131MA1999999099091MD1999999-0261MW1021REMSYN017333   10313 59026
0129825710999991984051112004-05500-045267FM-12+008299999V0202301N00051015001CN0100001N9+02431+02191101201ADDAA106000091AG10999AY101061GF108991081001017501031999KA1240N+01961MA1999999099211MD1999999-0131MW1021REMSYN017333   20196 59013
0110825710999991984051118004-05500-045267FM-12+008299999V0200901N00151045001CN0100001N9+03021+02311100761ADDAA106000091AG10999AY101061GF106991031021008001031011MA1999999098791MD1999999-0151MW1021REMSYN011333   59015
0129825710999991984051200004-05500-045267FM-12+008299999V0209991C00001220001CN0100001N9+02441+02321101031ADDAA106000091AG10999AY101061GF102991021001017501041001KA1240M+03111MA1999999099051MD1999999-0041MW1021REMSYN017333   10311 59004
0110825710999991984051218004-05500-045267FM-12+008299999V0200501N00211045001CN0100001N9+02941+02111100961ADDAA106000091AG10999AY101061GF106991031021008001031011MA1999999098981MD1999999+0191MW1021REMSYN011333   58019
0129825710999991984051300004-05500-045267FM-12+008299999V0200501N00151220001CN0100001N9+02421+02321101141ADDAA106000091AG10999AY101061GF102991001001999999001011KA1240M+03031MA1999999099151MD1999999+0101MW1021REMSYN017333   10303 58010
0135825710999991984051312004-05500-045267FM-12+008299999V0203601N00151004201CN0100001N9+02361+02261101371ADDAA124000191AG10999AY161061GF108991081051004501999999KA1240N+01971MA1999999099381MD1999999+0131MW1021REMSYN023333   20197 58013 69914
0110825710999991984051318004-05500-045267FM-12+008299999V0200501N00261220001CN0100001N9+03081+02771100911ADDAA106000091AG10999AY101061GF103991031021008001001001MA1999999098971MD1999999-0011MW1021REMSYN011333   59001
0129825710999991984051400004-05500-045267FM-12+008299999V0200601N00101015001CN0100001N9+02511+02311101181ADDAA106000091AG10999AY101061GF108991061001017501021011KA1240M+03141MA1999999099201MD1999999+0051MW1021REMSYN017333   10314 58005
0129825710999991984051412004-05500-045267FM-12+008299999V0200501N00261007501CN0100001N9+02461+02251101381ADDAA106000091AG10999AY101061GF107991071051008001001001KA1240N+02151MA1999999099401MD1999999+0021MW1021REMSYN017333   20215 58002
0110825710999991984051418004-05500-045267FM-12+008299999V0200501N00311220001CN0100001N9+02851+02311101001ADDAA106000091AG10999AY101061GF103991031041008001001001MA1999999099021MD1999999+0051MW1021REMSYN011333   58005
0129825710999991984051500004-05500-045267FM-12+008299999V0201401N00151220001CN0100001N9+02521+02361101231ADDAA106000091AG10999AY101061GF102991021001017501041001KA1240M+03071MA1999999099251MD1999999+0051MW1021REMSYN017333   10307 58005
0110825710999991984051518004-05500-045267FM-12+008299999V0200501N00311220001CN0100001N9+03091+02411100781ADDAA106000091AG10999AY101061GF103991021021008001041001MA1999999098821MD1999999-0201MW1021REMSYN011333   59020
0135825710999991984051600004-05500-045267FM-12+008299999V0201401N00101007501CN0100001N9+02351+02311101161ADDAA106002091AG10999AY161061GF108991081051008001999999KA1240M+03151MA1999999099181MD1999999-0071MW1131REMSYN023333   10315 59007 60021
0135825710999991984051612004-05500-045267FM-12+008299999V0202301N00051004201CN0100001N9+02431+02331101281ADDAA124002091AG10999AY101061GF106991051021004501011001KA1240N+02171MA1999999099291MD1999999-0011MW1021REMSYN023333   20217 59001 60024
0110825710999991984051618004-05500-045267FM-12+008299999V0200901N00151045001CN0100001N9+02921+02361100841ADDAA106001091AG10999AY161061GF107991041021008001071001MA1999999098871MD1999999+0051REMSYN017333   58005 60011
0129825710999991984051700004-05500-045267FM-12+008299999V0200501N00151045001CN0100001N9+02461+02341101151ADDAA106000091AG10999AY101061GF107991031011008001071001KA1240M+02971MA1999999099171MD1999999-0011MW1021REMSYN017333   10297 59001
0135825710999991984051712004-05500-045267FM-12+008299999V0200901N00151007501CN0100001N9+02531+02251101371ADDAA124001091AG10999AY101061GF107991071051008001001001KA1240N+02171MA1999999099391MD1999999+0101MW1021REMSYN023333   20217 58010 60014
0110825710999991984051718004-05500-045267FM-12+008299999V0200901N00261220001CN0100001N9+03031+02181101031ADDAA106000091AG10999AY101061GF102991011011008001041001MA1999999099071MD1999999+0201MW1021REMSYN011333   58020
0129825710999991984051800004-05500-045267FM-12+008299999V0200501N00151220001CN0100001N9+02381+02241101261ADDAA106000091AG10999AY101061GF100991001001999999001001KA1240M+03091MA1999999099261MD1999999+0091MW1021REMSYN017333   10309 58009
0121825710999991984051812004-05500-045267FM-12+008299999V0202301N00151004201CN0010001N9+02311+02271101471ADDAA106000091AG10999GF108991081051004501999999KA1240N+02041MA1999999099471MD1999999+0081MW1101REMSYN017333   20204 58008
0110825710999991984051818004-05500-045267FM-12+008299999V0203601N00261220001CN0100001N9+03081+02351101041ADDAA106000091AG10999AY101061GF103991031021008001001001MA1999999099071MD1410001+0001MW1021REMSYN011333   58000
0129825710999991984051900004-05500-045267FM-12+008299999V0203601N00101220001CN0100001N9+02471+02341101241ADDAA106000091AG10999AY101061GF102991021021008001001001KA1240M+03111MA1999999099251MD1999999-0011MW1021REMSYN017333   10311 59001
0129825710999991984051912004-05500-045267FM-12+008299999V0201801N00051004201CN0100001N9+02501+02381101431ADDAA106000091AG10999AY101061GF108991081051004501999999KA1240N+02171MA1999999099451MD1999999-0021MW1021REMSYN017333   20217 59002
0129825710999991984052000004-05500-045267FM-12+008299999V0209991C00001220001CN0100001N9+02501+02321101231ADDAA106000091AG10999AY101061GF103991031001017501011001KA1240M+03121MA1999999099251MD1410001+0001MW1021REMSYN017333   10312 58000
0129825710999991984052012004-05500-045267FM-12+008299999V0200501N00151045001CN0100001N9+02571+02351101261ADDAA106000091AG10999AY101061GF105991031021004501041001KA1240N+02261MA1999999099281MD1999999-0171MW1021REMSYN017333   20226 59017
0110825710999991984052018004-05500-045267FM-12+008299999V0201401N00311220001CN0100001N9+03091+02241100861ADDAA106000091AG10999AY101061GF103991031021008001001001MA1999999098911MD1999999-0161MW1021REMSYN011333   59016
0129825710999991984052100004-05500-045267FM-12+008299999V0200501N00151220001CN0100001N9+02511+02311101101ADDAA106000091AG10999AY101061GF101991011001017501041001KA1240M+03131MA1999999099131MD1999999-0121MW1021REMSYN017333   10313 59012
0146825710999991984052112004-05500-045267FM-12+008299999V0200901N00151004201CN0100001N9+02491+02271101281ADDAA124000991AA299001091AG10999AY161061GF108991081051004501999999KA1240N+02261MA1999999099301MD1999999+0021MW1021REMSYN023333   20226 58002 69994
0126825710999991984052200004-05500-045267FM-12+008299999V0200501N00051220001CN0100001N9+02381+02311101171ADDAA106000091AA299580092AG10999AY191061GF104991041041008001001001KA1240M+03071MA1999999099191MW1131REMSYN017333   10307 65800
0129825710999991984052212004-05500-045267FM-12+008299999V0200901N00151220001CN0100001N9+02531+02251101351ADDAA106000091AG10999AY101061GF103991021021004501001011KA1240N+02191MA1999999099361MD1999999+0061MW1021REMSYN017333   20219 58006
0110825710999991984052218004-05500-045267FM-12+008299999V0200901N00361220001CN0100001N9+03061+02051101001ADDAA106000091AG10999AY101061GF103991031021008001001001MA1999999099041MD1999999+0011MW1021REMSYN011333   58001
0121825710999991984052300004-05500-045267FM-12+008299999V0200501N00101220001CN0100001N9+02541+02331101241ADDAA106000091AG10999GF104991041021008001001001KA1240M+03331MA1999999099261MD1999999+0071MW1131REMSYN017333   10333 58007
0135825710999991984052312004-05500-045267FM-12+008299999V0203601N00101004201CN0100001N9+02441+02341101361ADDAA124012091AG10999AY161061GF108991081051004501999999KA1240N+02221MA1999999099381MD1999999+0021MW1021REMSYN023333   20222 58002 60124
0110825710999991984052318004-05500-045267FM-12+008299999V0200901N00311220001CN0100001N9+03011+02291100981ADDAA106000091AG10999AY101061GF106991041001017501031011MA1999999099031MD1999999+0011MW1021REMSYN011333   58001
0129825710999991984052400004-05500-045267FM-12+008299999V0209991C00001220001CN0100001N9+02461+02361101131ADDAA106000091AG10999AY101061GF100991001001999999001001KA1240M+03041MA1999999099151MD1999999-0111MW1021REMSYN017333   10304 59011
0129825710999991984052412004-05500-045267FM-12+008299999V0201401N00101220001CN0100001N9+02721+02281101281ADDAA106000091AG10999AY101061GF106991001001999999001011KA1240N+02161MA1999999099311MD1999999-0071MW1021REMSYN017333   20216 59007
0110825710999991984052418004-05500-045267FM-12+008299999V0200901N00411220001CN0100001N9+03051+02281100881ADDAA106000091AG10999AY101061GF104991021011008001001011MA1999999098921MD1999999-0111MW1021REMSYN011333   59011
0129825710999991984052500004-05500-045267FM-12+008299999V0201401N00101220001CN0100001N9+02501+02341101151ADDAA106000091AG10999AY101061GF100991001001999999001001KA1240M+03091MA1999999099181MD1999999+0031MW1021REMSYN017333   10309 58003
0135825710999991984052512004-05500-045267FM-12+008299999V0200901N00151045001CN0100001N9+02441+02281101371ADDAA124000391AG10999AY161061GF108991041051004501041011KA1240N+02301MA1999999099361MD1999999+0051MW1021REMSYN023333   20230 58005 69934
0110825710999991984052518004-05500-045267FM-12+008299999V0201801N00101015001CN0100001N9+02781+02341100961ADDAA106000091AG10999AY101061GF108991061001017501021011MA1999999098991MD1999999+0071MW1021REMSYN011333   58007
0129825710999991984052600004-05500-045267FM-12+008299999V0203201N00101220001CN0100001N9+02441+02411101121ADDAA106000091AG10999AY101061GF100991001001999999001001KA1240M+02871MA1999999099141MD1999999-0041MW1021REMSYN017333   10287 59004
0129825710999991984052612004-05500-045267FM-12+008299999V0200901N00151004201CN0100001N9+02421+02371101281ADDAA106000091AG10999AY101061GF106991051051004501001011KA1240N+02041MA1999999099291MD1999999-0071MW1021REMSYN017333   20204 59007
0110825710999991984052618004-05500-045267FM-12+008299999V0200901N00311045001CN0100001N9+02981+02351100741ADDAA106000091AG10999AY101061GF107991031021008001021001MA1999999098981MD1999999-0161MW1021REMSYN011333   59016
0076825710999991984052700004-05500-045267FM-12+008299999V0200901N00051220001CN0100001N9+02471+02411101111ADDAA106000091AG10999AY101061GF100991001001999999001001MA1999999099131MW1021
0110825710999991984052718004-05500-045267FM-12+008299999V0200901N00211220001CN0100001N9+03071+02171100981ADDAA106000091AG10999AY101061GF103991031021008001001001MA1999999099011MD1999999+0031MW1021REMSYN011333   58003
0129825710999991984052800004-05500-045267FM-12+008299999V0200501N00101220001CN0100001N9+02421+02251101181ADDAA106000091AG10999AY101061GF100991001001999999001001KA1240M+03121MA1999999099191MD1999999+0061MW1021REMSYN017333   10312 58006
0129825710999991984052812004-05500-045267FM-12+008299999V0200901N00101220001CN0100001N9+02531+02211101411ADDAA106000091AG10999AY101061GF100991001001999999001001KA1240N+01841MA1999999099431MD1999999+0181MW1021REMSYN017333   20184 58018
0110825710999991984052818004-05500-045267FM-12+008299999V0200501N00311220001CN0100001N9+03021+02071101021ADDAA106000091AG10999AY101061GF103991011011008001031001MA1999999099041MD1999999+0031MW1021REMSYN011333   58003
0129825710999991984052900004-05500-045267FM-12+008299999V0200501N00151220001CN0100001N9+02421+02301101251ADDAA106000091AG10999AY101061GF104991041001017501051001KA1240M+03091MA1999999099171MD1999999-8001MW1021REMSYN017333   10309 59800
0076825710999991984052912004-05500-045267FM-12+008299999V0203201N00051220001CN0100001N9+02401+02371101411ADDAA106000091AG10999AY101061GF106991001001999999001011MA1999999099421MW1021
0129825710999991984052918004-05500-045267FM-12+008299999V0200901N00211220001CN0100001N9+03091+02101101141ADDAA106000091AG10999AY101061GF105991041021008001001011MA1999999099191MD1999999+0131MW1021REMSYN011333   58013EQDQ01+999990APOSP 
0129825710999991984053000004-05500-045267FM-12+008299999V0209991C00001220001CN0100001N9+02401+02231101321ADDAA106000091AG10999AY101061GF100991001001999999001001KA1240M+03131MA1999999099331MD1999999+0061MW1021REMSYN017333   10313 58006
0129825710999991984053012004-05500-045267FM-12+008299999V0202301N00051220001CN0100001N9+02301+02111101351ADDAA106000091AG10999AY101061GF100991001001999999001001KA1240N+01821MA1999999099351MD1999999-0071MW1021REMSYN017333   20182 59007
0129825710999991984053100004-05500-045267FM-12+008299999V0200501N00051220001CN0100001N9+02421+02211101331ADDAA106000091AG10999AY101061GF100991001001999999001001KA1240M+03211MA1999999099141MD1999999+0011MW1021REMSYN017333   10321 58001
0148825710999991984053112004-05500-045267FM-12+008299999V0200901N00211220001CN0100001N9+02511+02151101521ADDAA106000091AG10999AY101061GF104991041021004501001001KA1240N+99999MA1999999099531MD1999999+0181MW1021REMSYN017333   20289 58018EQDQ01 +02892ATMN  
0110825710999991984053118004-05500-045267FM-12+008299999V0200501N00261220001CN0100001N9+03101+02311101161ADDAA106000091AG10999AY101061GF103991021021008001011001MA1999999099181MD1999999+0071MW1021REMSYN011333   58007
0129825710999991984060100004-05500-045267FM-12+008299999V0200501N00051220001CN0100001N9+02411+02301101321ADDAA106000091AG10999AY101061GF100991001001999999001001KA1240M+03131MA1999999099331MD1999999-0011MW1021REMSYN017333   10313 59001
0129825710999991984060112004-05500-045267FM-12+008299999V0200901N00411220001CN0100001N9+02581+01941101641ADDAA106000091AG10999AY101061GF100991001001999999001001KA1240N+01951MA1999999099651MD1999999+0121MW1021REMSYN017333   20195 58012
0110825710999991984060118004-05500-045267FM-12+008299999V0200901N00361220001CN0100001N9+03051+01911101331ADDAA106000091AG10999AY101061GF101991011011008001001001MA1999999099361MD1999999+0181MW1021REMSYN011333   58018
0129825710999991984060200004-05500-045267FM-12+008299999V0200501N00151220001CN0100001N9+02321+02071101491ADDAA106000091AG10999AY101061GF100991001001999999001001KA1240M+03181MA1999999099501MD1999999+0171MW1021REMSYN017333   10318 58017
0129825710999991984060212004-05500-045267FM-12+008299999V0201401N00311220001CN0100001N9+02631+02051101581ADDAA106000091AG10999AY101061GF100991001001999999001001KA1240N+01811MA1999999099771MD1999999-0061MW1021REMSYN017333   20181 59006
0110825710999991984060218004-05500-045267FM-12+008299999V0200901N00361220001CN0100001N9+03101+02151101281ADDAA106000091AG10999AY101061GF102991021011008001001001MA1999999099301MD1999999-0061MW1021REMSYN011333   59006
0129825710999991984060300004-05500-045267FM-12+008299999V0201401N00101220001CN0100001N9+02381+02131101471ADDAA106000091AG10999AY101061GF102991021021008001001001KA1240M+03141MA1999999099481MD1999999-0021MW1021REMSYN017333   10314 59002
0129825710999991984060312004-05500-045267FM-12+008299999V0201401N00511220001CN0100001N9+99999+99999101451ADDAA106000091AG10999AY101061GF100991001001999999001001KA1240N+01821MA1999999099461MD1999999-0131MW1021REMSYN017333   20182 59013
0110825710999991984060318004-05500-045267FM-12+008299999V0200901N00311220001CN0100001N9+03031+01921101101ADDAA106000091AG10999AY101061GF102991021011008001001001MA1999999099121MD1999999-0181MW1021REMSYN011333   59018
0129825710999991984060400004-05500-045267FM-12+008299999V0209999999999220001CN0100001N9+02261+02051101301ADDAA106000091AG10999AY101061GF100991001001999999001001KA1240M+03071MA1999999099311MD1999999-0171MW1021REMSYN017333   10307 59017
0129825710999991984060412004-05500-045267FM-12+008299999V0202301N00051105001CN0100001N9+02261+02071101411ADDAA106000091AG10999AY101061GF105991021021008001041011KA1240N+01791MA1999999099411MD1999999-0051MW1021REMSYN017333   20179 59005
0110825710999991984060418004-05500-045267FM-12+008299999V0200501N00261045001CN0100001N9+03011+02241101121ADDAA106000091AG10999AY101061GF106991041031004501031001MA1999999099141MD1999999+0021MW1021REMSYN011333   58002
0129825710999991984060500004-05500-045267FM-12+008299999V0200501N00051220001CN0100001N9+02341+02241101291ADDAA106000091AG10999AY101061GF100991001001999999001001KA1240M+03851MA1999999099291MD1999999-0021MW1021REMSYN017333   10385 59002
0116825710999991984060518004-05500-045267FM-12+008299999V0200501N00261004201CN0100001N9+02481+02391101211ADDAA106003091AG10999AY161061GF107991051041004501041001MA1999999099211MD1999999+0071MW1021REMSYN017333   58007 60031
0146825710999991984060600004-05500-045267FM-12+008299999V0200501N00211004201CN0100001N9+02361+02331101421ADDAA106000291AA299000391AG10999AY161061GF108991081051004501999999KA1240M+02811MA1999999099421MD1999999+0131MW1021REMSYN023333   10281 58013 69921
0129825710999991984060612004-05500-045267FM-12+008299999V0200901N00311220001CN0100001N9+02651+02231101421ADDAA124004091AG10999AY161061GF100991001001999999001001KA1240N+02141MA1999999099441MD1999999-0131REMSYN023333   20214 59013 60044
0129825710999991984060618004-05500-045267FM-12+008299999V0200901N003619999999N0100001N9+03041+02231101171ADDAA106000091AG10999AY101061GF105991999021008001001001MA1999999099201MD1999999-0011MW1021REMSYN011333   59001EQDQ01+000022SCOTLC
0129825710999991984060700004-05500-045267FM-12+008299999V0200901N00101220001CN0100001N9+02421+02261101331ADDAA106000091AG10999AY101061GF100991001001999999001001KA1240M+03321MA1999999099361MD1999999-0061MW1021REMSYN017333   10332 59006
