0115825830999991984012400004-05183-040683FM-12+027899999V0200501N00671220001CN9999999N9+02781+02111100781ADDAA106000091AG10999AY141061GF104991001001999999001041KA1240M+03491MA1999999098431MW1011REMSYN017333   10349 9001/
0155825830999991984030118004-05183-040683FM-12+027899999V0201801N00151006301CN0140001N9-00351-00671100161ADDAA199002091AG10999AY181061GA1071+006309059GF107991071051008001999999KA1240M+99999MD1210131+9999MW1021REMSYN023333   11048 60020 87621EQDQ01 -00482ATMX  
0135825830999991984031012004-05183-040683FM-12+027899999V0200501N00311007501CN0200001N9+02001+01801101331ADDAA124041091AG10999AY161061GF108991081051008001999999KA1240N+02001MA1999999097151MD1999999+0221MW1031REMSYN023333   20200 58022 60414
0108825830999991984062018004-05183-040683FM-12+027899999V0201401N00101220001CN0500001N9+01851+00821100471ADDAA106000091AG10999AY101061GF101991011051008001001001KA1240M+02311MD1310011+9999MW1021REMSYN011333   10231
0115825830999991984072512004-05183-040683FM-12+027899999V0201401N00101220001CN0100001N9+02341+02261101401ADDAA106000091AG10999AY101061GF100991001001999999001001KA1240N+02171MA1999999100841MW1021REMSYN017333   20217 80000
0129825830999991984091500004-05183-040683FM-12+027899999V0200901N00051220001CN9999999N9+02671+01581999999ADDAA106000091AG10999AY101061GF100991001001999999001001KA1240M+03161MA1999999096891MD1999999-0211MW1021REMSYN017333   10316 59021
0086825830999991984102700004-05183-040683FM-12+027899999V0202501N00051002401CN9999999N9-00441-00571102371ADDAG10999GA1081+002409079GF108991081061022501999999MD1210011+9999REMSYN011333   88708
