0064829750999991984012721004-09067-044367FM-12+033299999V0209991C00001220001CN0200001N9-03411-03711094731ADDAG10999AY101031GF100991001001999999001001MD1710011+9999MW1021
0075829750999991984021800004-09067-044367FM-12+033299999V0202401N00151045001CN0500001N9-01631-01971102711ADDAA106000091AG10999AY101061GF108991081001999999011999MD1210201+9999MW1021
0129829750999991984021912004-09067-044367FM-12+033299999V0200901N00101220001CN0500001N9+02711+02261101191ADDAA106000091AG10999AY101061GF103991021031008001021011KA1240N+02301MA1999999097271MD1999999+0091MW1021REMSYN017333   20230 58009
0110829750999991984021918004-09067-044367FM-12+033299999V0203201N00101105001CN0500001N9+02631+99999101151ADDAA106000091AG10999AY101061GF105991011031008001021011MA1999999097211MD1999999+0441MW1021REMSYN011333   58044
0084829750999991984042018004-09067-044367FM-12+033299999V0202501N00151220001CN0500001N9+00231-00051101591ADDAG10999AY171061GF102991021011008001001001MD1410001+9999MW1231REMSYN011555   55991
0129829750999991984091100004-09067-044367FM-12+033299999V0201401N00361220001CN0010001N9+02081+01951101271ADDAA106000091AG10999AY101061GF103991999999008001999999KA1240M+02781MA1999999095171MD1999999+0051MW1021REMSYN017333   10278 58005
