0129829940999991984010100004-09667-035717FM-12+004699999V0200901N00101220001CN9999999N9+02421+02191999999ADDAA106000091AG10999AY101061GF103991031021008001001001KA1240M+03041MA1999999100321MD1999999-0111MW1011REMSYN017333   10304 59011
0129829940999991984010112004-09667-035717FM-12+004699999V0201401N00361045001CN0500001N9+02861+01951999999ADDAA106000091AG10999AY111061GF105991021021012501041001KA1240N+02181MA1999999100371MD1999999-0051MW1021REMSYN017333   20218 59005
0110829940999991984010118004-09667-035717FM-12+004699999V0201401N00311220001CN0500001N9+02881+02081999999ADDAA106000091AG10999AY101061GF104991021021012501041001MA1999999100131MD1999999-0081MW1101REMSYN011333   59008
0121829940999991984010200004-09667-035717FM-12+004699999V0201401N00151012001CN9999999N9+02501+99999999999ADDAA106000091AG10999GF105991051021012501001001KA1240M+03121MA1999999100231MD1999999-0091MW1021REMSYN017333   10312 59009
0135829940999991984010212004-09667-035717FM-12+004699999V0201401N00511045001CN0100001N9+02651+02121999999ADDAA124008091AG10999AY191061GF107991031071008001021001KA1240N+02121MA1999999100371MD1999999+0061MW1031REMSYN023333   20212 58006 60084
0116829940999991984010218004-09667-035717FM-12+004699999V0201401N00311220001CN0500001N9+02881+01911999999ADDAA106000191AG10999AY191061GF106991011011004501001041MA1999999100061MD1999999-0161MW1011REMSYN017333   59016 69911
0129829940999991984010300004-09667-035717FM-12+004699999V0200901N00101220001CN9999999N9+02451+02131999999ADDAA106000091AG10999AY101061GF104991041021012501001001KA1240M+02941MA1999999100341MD1999999+0111MW1031REMSYN017333   10294 58011
0135829940999991984010312004-09667-035717FM-12+004699999V0201401N00261045001CN0200001N9+02801+02201999999ADDAA124002091AG10999AY191061GF106991021031008001041001KA1240N+02161MA1999999100411MD1999999+0041MW1031REMSYN023333   20216 58004 60024
0110829940999991984010318004-09667-035717FM-12+004699999V0201401N00721220001CN0500001N9+02931+01951999999ADDAA106000091AG10999AY121061GF104991021021004501001041MA1999999100171MD1999999+0111MW1011REMSYN011333   58011
0129829940999991984010400004-09667-035717FM-12+004699999V0200901N00151012001CN9999999N9+02471+02211999999ADDAA106000091AG10999AY101061GF105991051021012501001001KA1240M+03051MA1999999100511MD1999999+0171MW1031REMSYN017333   10305 58017
0129829940999991984010412004-09667-035717FM-12+004699999V0201401N00361045001CN0500001N9+02821+01891999999ADDAA106000091AG10999AY101061GF106991021021012501041001KA1240N+02171MA1999999100151MD1999999+0131MW1031REMSYN017333   20217 58013
0110829940999991984010418004-09667-035717FM-12+004699999V0201401N00571220001CN0500001N9+02851+01911999999ADDAA106000091AG10999AY101061GF105991031021008001001011MA1999999100261MD1999999+0091MW1031REMSYN011333   58009
0129829940999991984010500004-09667-035717FM-12+004699999V0200901N00151220001CN9999999N9+02451+02051999999ADDAA106000091AG10999AY101061GF102991021011012501001001KA1240M+03001MA1999999100501MD1999999-0011MW1011REMSYN017333   10300 59001
0129829940999991984010512004-09667-035717FM-12+004699999V0201401N00311045001CN0500001N9+02851+01911999999ADDAA106000091AG10999AY101061GF106991021021008001061001KA1240N+02141MA1999999100391MD1999999-0151MW1031REMSYN017333   20214 59015
0110829940999991984010518004-09667-035717FM-12+004699999V0201401N00571220001CN0500001N9+02901+01991999999ADDAA106000091AG10999AY101061GF102991021081008001001001MA1999999100241MD1999999-0021MW1011REMSYN011333   59002
0129829940999991984010600004-09667-035717FM-12+004699999V0200901N00101220001CN9999999N9+02451+02171999999ADDAA106000091AG10999AY101061GF102991021011012501001001KA1240M+03041MA1999999100371MD1999999-0131MW1011REMSYN017333   10304 59013
0129829940999991984010612004-09667-035717FM-12+004699999V0200901N00311045001CN0500001N9+02851+01911999999ADDAA106000091AG10999AY101061GF105991031021008001061001KA1240N+02001MA1999999100351MD1999999-0041MW1031REMSYN017333   20200 59004
0110829940999991984010618004-09667-035717FM-12+004699999V0201401N00511220001CN0500001N9+03001+02031999999ADDAA106000091AG10999AY101061GF102991021081008001001001MA1999999100151MD1999999-0151MW1011REMSYN011333   59015
0129829940999991984010700004-09667-035717FM-12+004699999V0200901N00261220001CN9999999N9+02551+02291999999ADDAA106000091AG10999AY101061GF102991021011012501001001KA1240M+03201MA1999999100221MD1999999-0151MW1011REMSYN017333   10320 59015
0129829940999991984010712004-09667-035717FM-12+004699999V0200501N00771045001CN0500001N9+02801+02131999999ADDAA106000091AG10999AY101061GF106991031021008001061001KA1240N+01981MA1999999100321MD1999999-0031MW1031REMSYN017333   20198 59003
0110829940999991984010718004-09667-035717FM-12+004699999V0201401N00621220001CN0500001N9+03001+02081999999ADDAA106000091AG10999AY101061GF102991021081008001001071MA1999999100071MD1999999-0081MW1011REMSYN011333   59008
0129829940999991984010800004-09667-035717FM-12+004699999V0200901N00151220001CN9999999N9+02451+02131999999ADDAA106000091AG10999AY101061GF102991021041008001001001KA1240M+03041MA1999999100181MD1999999-0041MW1011REMSYN017333   10304 59004
0129829940999991984010812004-09667-035717FM-12+004699999V0200901N00511045001CN0500001N9+02801+02131999999ADDAA106000091AG10999AY101061GF105991031021008001061001KA1240N+02001MA1999999100301MD1999999-0021MW1031REMSYN017333   20200 59002
0076829940999991984010818004-09667-035717FM-12+004699999V0201401N00671220001CN0500001N9+02901+02121999999ADDAA106000091AG10999AY101061GF102991021081008001001001MA1999999100121MW1011
0129829940999991984010900004-09667-035717FM-12+004699999V0200901N00151220001CN9999999N9+02401+02171999999ADDAA106000091AG10999AY101061GF102991021041008001001001KA1240M+03121MA1999999100281MD1999999+0181MW1011REMSYN017333   10312 58018
0129829940999991984010912004-09667-035717FM-12+004699999V0200901N00261045001CN0500001N9+02821+02171999999ADDAA106000091AG10999AY121061GF107991041031008001061041KA1240N+02261MA1999999100281MD1999999-0021MW1011REMSYN017333   20226 59002
0110829940999991984010915004-09667-035717FM-12+004699999V0201401N00571045001CN0500001N9+02851+02171999999ADDAA106000091AG10999AY101031GF106991031021012501041001MA1999999100151MD1999999+0031MW1031REMSYN011333   58003
0129829940999991984011000004-09667-035717FM-12+004699999V0200901N00261045001CN9999999N9+02501+02171999999ADDAA106000091AG10999AY101061GF106991041021012501041001KA1240M+02801MA1999999100251MD1999999-0031MW1031REMSYN017333   10280 59003
0146829940999991984011012004-09667-035717FM-12+004699999V0201401N00511045001CN0500001N9+99999+99999999999ADDAA124000991AA299001091AG10999AY191061GF105991031021012501061011KA1240N+02311MA1999999100271MD1999999-0011MW1011REMSYN023333   20231 59001 69994
0095829940999991984011018004-09667-035717FM-12+004699999V0201401N00571220001CN0500001N9+02941+01911103101ADDAA106000091AG10999AY101061GF102991021021012501071001MD1999999-0101MW1021REMSYN011333   59010
0103829940999991984011021004-09667-035717FM-12+004699999V0200901N00411220001CN0200001N9+02741+02211101122ADDAG10999AY101031GF104991021001008001031011MD1999999+0051MW1021REMSYN011333   58005EQDQ01+101123APOSLP
0129829940999991984011100004-09667-035717FM-12+004699999V0201401N00151220001CN9999999N9+02501+02131999999ADDAA106000091AG10999AY101061GF103991031001012501041001KA1240M+03081MA1999999100231MD1999999-0021MW1011REMSYN017333   10308 59002
0146829940999991984011112004-09667-035717FM-12+004699999V0201401N00261012001CN0200001N9+02721+02121999999ADDAA124000991AA299001091AG10999AY191061GF107991061091012501021001KA1240N+02261MA1999999100241MD1999999-0031MW1031REMSYN023333   20226 59003 69994
0127829940999991984011118004-09667-035717FM-12+004699999V0201401N00571220001CN0500001N9+02801+02031999999ADDAA106000291AA299000391AG10999AY191061GF105991031081008001001011MA1999999100071MD1999999+0021MW1031REMSYN017333   58002 69921
0135829940999991984011200004-09667-035717FM-12+004699999V0201401N00261045001CN9999999N9+02431+02351999999ADDAA106006091AG10999AY191061GF107991041071012501021001KA1240M+03001MA1999999100301MD1999999+0071MW1611REMSYN023333   10300 58007 60061
0135829940999991984011212004-09667-035717FM-12+004699999V0203601N00261045001CN0500001N9+02401+02171999999ADDAA124016091AG10999AY191061GF107991031071008001021001KA1240N+01901MA1999999100311MD1999999+0071MW1501REMSYN023333   20190 58007 60164
0116829940999991984011218004-09667-035717FM-12+004699999V0203601N00411045001CN0500001N9+02701+02111999999ADDAA106010091AG10999AY191061GF105991021071008001021001MA1999999100181MD1999999+0111MW1031REMSYN017333   58011 60101
0129829940999991984011300004-09667-035717FM-12+004699999V0201801N00151220001CN9999999N9+02501+02291999999ADDAA106000091AG10999AY101061GF103991031021012501001001KA1240M+02801MA1999999100351MD1999999+0051MW1031REMSYN017333   10280 58005
0135829940999991984011312004-09667-035717FM-12+004699999V0200901N00151045001CN0500001N9+02401+02241999999ADDAA124013091AG10999AY191061GF105991031021008001061001KA1240N+01881MA1999999100131MD1410001+0001MW1031REMSYN023333   20188 58000 60134
0116829940999991984011318004-09667-035717FM-12+004699999V0201401N00411045001CN0500001N9+02751+02211999999ADDAA106002091AG10999AY191061GF105991021021008001061001MA1999999100191MD1999999+0011MW1031REMSYN017333   58001 60021
0138829940999991984011400004-09667-035717FM-12+004699999V0209991C00001220001CN9999999N9+02451+02301999999ADDAA106000091AG10999AY101061GF104991041021012501001001KA1240M+02851MA1999999100391MD1999999+0041ME1430309MW1021REMSYN017333   10285 58004
0135829940999991984011412004-09667-035717FM-12+004699999V0201401N00411220001CN0500001N9+02811+02151999999ADDAA124010091AG10999AY191061GF104991031031012501061041KA1240N+02281MA1999999100331MD1410001+0001MW1031REMSYN023333   20228 58000 60104
0110829940999991984011418004-09667-035717FM-12+004699999V0201401N00411220001CN0500001N9+02871+02031999999ADDAA106000091AG10999AY121061GF102991021021012501001001MA1999999100091MD1999999-0101MW1031REMSYN011333   59010
0129829940999991984011500004-09667-035717FM-12+004699999V0200901N00151015001CN9999999N9+02531+02311999999ADDAA106000091AG10999AY121061GF106991061081012501001001KA1240M+02971MA1999999100221MD1999999-0171MW1011REMSYN017333   10297 59017
0146829940999991984011512004-09667-035717FM-12+004699999V0201401N00211220001CN0500001N9+02771+02071999999ADDAA124000491AA299000591AG10999AY191061GF104991041021008001001001KA1240N+02201MA1999999100201MD1999999-0121MW1011REMSYN023333   20220 59012 69944
0110829940999991984011518004-09667-035717FM-12+004699999V0201401N00411015001CN0500001N9+02821+02051103121ADDAA106000091AG10999AY101061GF106991061081012501001001MA1999999100011MD1999999-0081MW1021REMSYN011333   59008
0129829940999991984011600004-09667-035717FM-12+004699999V0209991C00001220001CN9999999N9+02451+02271999999ADDAA106000091AG10999AY111061GF101991011011004501001001KA1240M+03011MA1999999100261MD1999999+0041MW1011REMSYN017333   10301 58004
0129829940999991984011612004-09667-035717FM-12+004699999V0200901N00311220001CN0500001N9+02801+02181999999ADDAA106000091AG10999AY101061GF104991041021008001001001KA1240N+02161MA1999999100291MD1999999+0091MW1031REMSYN017333   20216 58009
0129829940999991984011700004-09667-035717FM-12+004699999V0200901N00051220001CN9999999N9+02551+02251999999ADDAA106000091AG10999AY101061GF103991031021012501001001KA1240M+03031MA1999999100311MD1999999+0051MW1031REMSYN017333   10303 58005
0129829940999991984011712004-09667-035717FM-12+004699999V0200901N00311220001CN0500001N9+02801+02211103001ADDAA106000091AG10999AY101061GF103991031021004501001001KA1240N+02241MA1999999100311MD1999999+0021MW1021REMSYN017333   20224 58002
0110829940999991984011718004-09667-035717FM-12+004699999V0201401N00621220001CN0500001N9+02951+01911999999ADDAA106000091AG10999AY101061GF102991011011004501001041MA1999999100051MD1999999+0011MW1011REMSYN011333   58001
0129829940999991984011800004-09667-035717FM-12+004699999V0200901N00101220001CN9999999N9+02421+02171999999ADDAA106000091AG10999AY101061GF103991031001012501041001KA1240M+03101MA1999999100331MD1999999+0021MW1011REMSYN017333   10310 58002
0129829940999991984011812004-09667-035717FM-12+004699999V0201401N00361220001CN0500001N9+02841+01931999999ADDAA106000091AG10999AY101061GF102991021011004501001001KA1240N+02171MA1999999100311MD1410001+0001MW1011REMSYN017333   20217 58000
0110829940999991984011818004-09667-035717FM-12+004699999V0201401N00051220001CN0500001N9+02931+02121999999ADDAA106000091AG10999AY101061GF103991031021008001001001MA1999999100041MD1999999-0011MW1011REMSYN011333   59001
0129829940999991984011900004-09667-035717FM-12+004699999V0200901N00151045001CN9999999N9+02651+02181999999ADDAA106000091AG10999AY101061GF106991021051012501041001KA1240M+03201MA1999999100251MD1999999-0081MW1031REMSYN017333   10320 59008
0151829940999991984011912004-09667-035717FM-12+004699999V0200901N00511012001CN0500001N9+02851+02091999999ADDAA106000091AG10999AY101061GA1031+012509009GF105991051021012501001001KA1240N+02321MA1999999100101MD1999999-0211MW1031REMSYN023333   20232 59021 83096
0129829940999991984012000004-09667-035717FM-12+004699999V0200901N00151220001CN9999999N9+02521+02231999999ADDAA106000091AG10999AY101061GF103991031021012501001001KA1240M+03071MA1999999100041MD1999999-0211MW1031REMSYN017333   10307 59021
0129829940999991984012012004-09667-035717FM-12+004699999V0201401N00511007501CN0500001N9+02831+01971999999ADDAA106000091AG10999AY101061GF105991051021008001001001KA1240N+02201MA1999999100151MD1999999+0051MW1011REMSYN017333   20220 58005
0110829940999991984012018004-09667-035717FM-12+004699999V0201401N00771220001CN0500001N9+02971+01961999999ADDAA106000091AG10999AY101061GF102991021011012501001001MA1999999099941MD1999999-0041MW1011REMSYN011333   59004
0129829940999991984012100004-09667-035717FM-12+004699999V0200901N00151220001CN9999999N9+02381+02151999999ADDAA106000091AG10999AY101061GF103991031001012501041001KA1240M+03171MA1999999100091MD1999999+0051MW1011REMSYN017333   10317 58005
0129829940999991984012112004-09667-035717FM-12+004699999V0200901N00511012001CN0500001N9+02831+02021999999ADDAA106000091AG10999AY101061GF105991051021012501001001KA1240N+02161MA1999999100121MD1999999-0031MW1011REMSYN017333   20216 59003
0148829940999991984012200004-09667-035717FM-12+004699999V0200901N00211220001CN9999999N9+02481+02171999999ADDAA106000091AG10999AY101061GF103991031021012501001001KA1240M+99999MA1999999100181MD1999999+0091MW1011REMSYN017333   10217 58009EQDQ01 +02172ATMX  
0129829940999991984012212004-09667-035717FM-12+004699999V0200901N00361220001CN0500001N9+02881+02131999999ADDAA106000091AG10999AY101061GF104991041021012501001001KA1240N+02201MA1999999100211MD1999999+0091MW1011REMSYN017333   20220 58009
0110829940999991984012218004-09667-035717FM-12+004699999V0201401N00671220001CN0500001N9+03061+02021999999ADDAA106000091AG10999AY101061GF104991021021012501041001MA1999999100031MD1999999+0121MW1011REMSYN011333   58012
0129829940999991984012300004-09667-035717FM-12+004699999V0200901N00211220001CN9999999N9+02581+02291999999ADDAA106000091AG10999AY101061GF103991031021012501001001KA1240M+03201MA1999999100121MD1999999-0061MW1011REMSYN017333   10320 59006
0129829940999991984012312004-09667-035717FM-12+004699999V0200901N00571220001CN0500001N9+02821+02241999999ADDAA106000091AG10999AY101061GF104991041021008001001001KA1240N+02311MA1999999100121MD1999999-0091MW1031REMSYN017333   20231 59009
0110829940999991984012318004-09667-035717FM-12+004699999V0201401N00671220001CN0500001N9+02951+02241999999ADDAA106000091AG10999AY101061GF102991021031012501061001MA1999999099871MD1999999-0161MW1031REMSYN011333   59016
0129829940999991984012400004-09667-035717FM-12+004699999V0200901N00311220001CN9999999N9+02551+02251999999ADDAA106000091AG10999AY101061GF102991021021012501001001KA1240M+03151MA1999999100011MD1999999-0111MW1011REMSYN017333   10315 59011
0129829940999991984012412004-09667-035717FM-12+004699999V0200901N00411220001CN0500001N9+02821+02101999999ADDAA106000091AG10999AY101061GF104991031021012501061001KA1240N+02201MA1999999100011MD1999999-0111MW1031REMSYN017333   20220 59011
0110829940999991984012418004-09667-035717FM-12+004699999V0201401N00411220001CN0500001N9+03021+01891999999ADDAA106000091AG10999AY101061GF102991011021012501061081MA1999999099761MD1999999-0111MW1011REMSYN011333   59011
0129829940999991984012500004-09667-035717FM-12+004699999V0200901N00151220001CN9999999N9+02421+02091999999ADDAA106000091AG10999AY101061GF102991021021012501001001KA1240M+03081MA1999999100051MD1999999+0041MW1011REMSYN017333   10308 58004
0146829940999991984012512004-09667-035717FM-12+004699999V0200901N00361045001CN0200001N9+02721+02221999999ADDAA124000291AA299000391AG10999AY191061GF106991031031008001041001KA1240N+02221MA1999999100131MD1999999+0121MW1031REMSYN023333   20222 58012 69924
0110829940999991984012518004-09667-035717FM-12+004699999V0201401N01131220001CN0500001N9+03001+01971999999ADDAA106000091AG10999AY101061GF102991021011012501001001MA1999999099881MD1999999+0121MW1011REMSYN011333   58012
0129829940999991984012600004-09667-035717FM-12+004699999V0200901N00311220001CN9999999N9+02431+02071999999ADDAA106000091AG10999AY101061GF102991021011012501001001KA1240M+03161MA1999999100051MD1410001+0001MW1011REMSYN017333   10316 58000
0129829940999991984012612004-09667-035717FM-12+004699999V0201401N00411045001CN0500001N9+02881+02001999999ADDAA106000091AG10999AY101061GF106991031031012501041001KA1240N+02181MA1999999100221MD1999999+0091MW1011REMSYN017333   20218 58009
0129829940999991984012712004-09667-035717FM-12+004699999V0201401N00311045001CN0500001N9+02871+02191999999ADDAA106000091AG10999AY101061GF106991031031012501041001KA1240N+02261MA1999999100281MD1999999+0061MW1031REMSYN017333   20226 58006
0110829940999991984012718004-09667-035717FM-12+004699999V0201401N00511045001CN0200001N9+02951+02211999999ADDAA106000091AG10999AY101061GF106991031031012501041001MA1999999100031MD1410001+0001MW1031REMSYN011333   58000
0129829940999991984012800004-09667-035717FM-12+004699999V0201401N00361220001CN9999999N9+02601+02351999999ADDAA106000091AG10999AY101061GF103991031021012501001001KA1240M+03121MA1999999100161MD1999999-0011MW1031REMSYN017333   10312 59001
0135829940999991984012812004-09667-035717FM-12+004699999V0201401N00461045001CN0100001N9+02681+02461999999ADDAA124001091AG10999AY191061GF106991031051008001041001KA1240N+02361MA1999999100121MD1999999-0161MW1031REMSYN023333   20236 59016 60014
0110829940999991984012818004-09667-035717FM-12+004699999V0201401N00571012001CN0500001N9+02951+02111999999ADDAA106000091AG10999AY101061GF105991051021012501001001MA1999999100131MD1999999+0101MW1031REMSYN011333   58010
0129829940999991984012900004-09667-035717FM-12+004699999V0201401N00261220001CN9999999N9+02651+02271999999ADDAA106000091AG10999AY101061GF103991031021012501001001KA1240M+03061MA1999999100111MD1999999-0051MW1011REMSYN017333   10306 59005
0135829940999991984012912004-09667-035717FM-12+004699999V0201401N00571045001CN0200001N9+02821+02331999999ADDAA124002091AG10999AY191061GF106991031051012501041001KA1240N+02421MA1999999100221MD1999999+0101MW1031REMSYN023333   20242 58010 60024
0132829940999991984012918004-09667-035717FM-12+004699999V0201401N00571045001CN0200001N9+02901+02121999999ADDAA106000091AG10999AY101061GA1031+012509009GF106991021031012501041001MA1999999100011MD1999999-0121MW1031REMSYN017333   59012 83096
0135829940999991984013000004-09667-035717FM-12+004699999V0200901N00151045001CN9999999N9+02551+02361999999ADDAA106001091AG10999AY191061GF105991021031012501041001KA1240M+03041MA1999999100171MD1999999+0061MW1031REMSYN023333   10304 58006 60011
0135829940999991984013012004-09667-035717FM-12+004699999V0201401N00461012001CN0500001N9+02811+02221999999ADDAA124004091AG10999AY191061GF105991051031012501001001KA1240N+02341MA1999999100311MD1999999+0091MW1031REMSYN023333   20234 58009 60044
0129829940999991984013018004-09667-035717FM-12+004699999V0201401N005119999999N0500001N9+02951+02161101201ADDAA106000091AG10999AY101061GF105991999021012501001001MA1999999100021MD1999999+0011MW1021REMSYN011333   58001EQDQ01+000022SCOTLC
0129829940999991984013100004-09667-035717FM-12+004699999V0201401N00261220001CN9999999N9+02631+02251999999ADDAA106000091AG10999AY101061GF102991021021012501001001KA1240M+03081MA1999999100221MD1999999+0051MW1011REMSYN017333   10308 58005
0129829940999991984013112004-09667-035717FM-12+004699999V0201401N00461007501CN0500001N9+02761+02121999999ADDAA106000091AG10999AY101061GF105991051021008001001001KA1240N+02251MA1999999100241MD1999999-0071MW1031REMSYN017333   20225 59007
0110829940999991984013118004-09667-035717FM-12+004699999V0201401N00261220001CN0500001N9+02961+01871999999ADDAA106000091AG10999AY101061GF101991011011008001001001MA1999999099961MD1999999-0061MW1011REMSYN011333   59006
0129829940999991984020100004-09667-035717FM-12+004699999V0209991C00001220001CN9999999N9+02501+02151999999ADDAA106000091AG10999AY101061GF103991031001012501041001KA1240M+03081MA1999999100151MD1999999-0071MW1011REMSYN017333   10308 59007
0129829940999991984020112004-09667-035717FM-12+004699999V0201401N00311220001CN0500001N9+02891+02001999999ADDAA106000091AG10999AY111061GF103991031021008001001001KA1240N+02181MA1999999100191MD1999999-0051MW1011REMSYN017333   20218 59005
0129829940999991984020200004-09667-035717FM-12+004699999V0200901N00151220001CN9999999N9+02531+02001999999ADDAA106000091AG10999AY101061GF102991021011012501001001KA1240M+03141MA1999999100161MD1999999+0011MW1011REMSYN017333   10314 58001
0129829940999991984020212004-09667-035717FM-12+004699999V0200901N00411045001CN0200001N9+02831+02151999999ADDAA106000091AG10999AY101061GF106991021021012501041001KA1240N+02251MA1999999100151MD1999999-0041MW1031REMSYN017333   20225 59004
0110829940999991984020218004-09667-035717FM-12+004699999V0201401N00621007501CN0500001N9+03001+02221999999ADDAA106000091AG10999AY101061GF105991051021008001001001MA1999999099911MD1999999-0051MW1011REMSYN011333   59005
0129829940999991984020300004-09667-035717FM-12+004699999V0200901N00361045001CN9999999N9+02671+02271999999ADDAA106000091AG10999AY101061GF105991021031012501041001KA1240M+03201MA1999999100171MD1999999+0011MW1031REMSYN017333   10320 58001
0065829940999991984020312004-09667-035717FM-12+004699999V0201801N00151045001CN0200001N9+02551+02361999999ADDAG10999AY191061GF106991031071008001021001MA1999999100161MW1211
0110829940999991984020318004-09667-035717FM-12+004699999V0201401N00671220001CN0500001N9+02951+02211999999ADDAA106000091AG10999AY101061GF104991041021001501001001MA1999999099901MD1999999-0011MW1011REMSYN011333   59001
0129829940999991984020400004-09667-035717FM-12+004699999V0200901N00151220001CN9999999N9+02601+02271999999ADDAA106000091AG10999AY101061GF103991031021012501001001KA1240M+03021MA1999999100051MD1999999-0101MW1031REMSYN017333   10302 59010
0129829940999991984020412004-09667-035717FM-12+004699999V0201401N00461012001CN0200001N9+02871+02091999999ADDAA106000091AG10999AY101061GF105991051021012501001001KA1240N+02321MA1999999100141MD1999999-0021MW1031REMSYN017333   20232 59002
0110829940999991984020418004-09667-035717FM-12+004699999V0201401N00511012001CN0500001N9+03001+02191999999ADDAA106000091AG10999AY101061GF105991051021012501001001MA1999999099921MD1999999+0021MW1031REMSYN011333   58002
0129829940999991984020500004-09667-035717FM-12+004699999V0200901N00261220001CN9999999N9+02601+02141999999ADDAA106000091AG10999AY101061GF102991021011012501001001KA1240M+03101MA1999999100131MD1999999+0081MW1031REMSYN017333   10310 58008
0129829940999991984020512004-09667-035717FM-12+004699999V0201401N00621045001CN0500001N9+02901+02121999999ADDAA106000091AG10999AY101061GF106991021021012501041001KA1240N+02231MA1999999100111MD1999999-0031MW1031REMSYN017333   20223 59003
0110829940999991984020518004-09667-035717FM-12+004699999V0201401N00211220001CN0500001N9+03001+02031999999ADDAA106000091AG10999AY121061GF106991011011012501001041MA1999999099891MD1999999-0031MW1011REMSYN011333   59003
0129829940999991984020600004-09667-035717FM-12+004699999V0200901N00101220001CN9999999N9+02551+02211999999ADDAA106000091AG10999AY101061GF102991021011012501001001KA1240M+03071MA1999999100091MD1999999-0041MW1011REMSYN017333   10307 59004
0129829940999991984020612004-09667-035717FM-12+004699999V0202301N00311045001CN0200001N9+02901+02171999999ADDAA106000091AG10999AY111061GF107991031021012501041001KA1240N+02241MA1999999100111MD1410001+0001MW1031REMSYN017333   20224 58000
0110829940999991984020618004-09667-035717FM-12+004699999V0201401N00671220001CN0500001N9+03061+01961999999ADDAA106000091AG10999AY101061GF102991021011012501001001MA1999999099831MD1999999-0061MW1011REMSYN011333   59006
0129829940999991984020700004-09667-035717FM-12+004699999V0200901N00151220001CN9999999N9+02421+02191999999ADDAA106000091AG10999AY101061GF103991031011012501001001KA1240M+03121MA1999999100031MD1999999-0061MW1011REMSYN017333   10312 59006
0129829940999991984020712004-09667-035717FM-12+004699999V0200901N00461045001CN0200001N9+02841+02331999999ADDAA106000091AG10999AY121061GF107991031031012501041061KA1240N+02221MA1999999100151MD1999999+0041MW1031REMSYN017333   20222 58004
0110829940999991984020718004-09667-035717FM-12+004699999V0200901N00821220001CN0500001N9+03051+02151999999ADDAA106000091AG10999AY101061GF103991021011012501001071MA1999999099791MD1999999-0041MW1011REMSYN011333   59004
0131829940999991984020812004-09667-035717FM-12+004699999V0200901N00411007501CN0200001N9+02831+02111101271ADDAA124000691AA299000591AG10999AY101061GF106991061021008001001001KA1240N+02291MD1999999+0101MW1021REMSYN023333   20229 58010 69964
0110829940999991984020818004-09667-035717FM-12+004699999V0201401N00671105001CN0500001N9+03001+01871999999ADDAA106000091AG10999AY101061GF105991021011012501001071MA1999999100021MD1999999+0021MW1011REMSYN011333   58002
0129829940999991984020900004-09667-035717FM-12+004699999V0200901N00211220001CN9999999N9+02551+02041999999ADDAA106000091AG10999AY101061GF103991031021012501001001KA1240M+03151MA1999999100331MD1999999+0171MW1011REMSYN017333   10315 58017
0135829940999991984020912004-09667-035717FM-12+004699999V0201401N00511045001CN0500001N9+02881+02161999999ADDAA106000091AG10999AY101061GF106991021031012501041001KA1240N+02121MA1999999100321MD1999999+0121MW1031REMSYN023333   20212 58012 98309
0145829940999991984020918004-09667-035717FM-12+004699999V0201401N99999220001CN0500001N9+03031+01951999999ADDAA106000091AG10999AY101061GF102991021011012501001001MA1999999100061MD1999999+0041MW1011REMSYN011333   58004EQDQ01+004633WOSPD Q020004633WOSPD 
0129829940999991984021000004-09667-035717FM-12+004699999V0201401N00151220001CN9999999N9+02631+02121999999ADDAA106000091AG10999AY101061GF102991021011012501001001KA1240M+03151MA1999999100231MD1999999-0101MW1011REMSYN017333   10315 59010
0129829940999991984021012004-09667-035717FM-12+004699999V0201401N00411045001CN0200001N9+02851+02261999999ADDAA106000091AG10999AY101061GF106991021031012501041001KA1240N+02241MA1999999100231MD1999999-0091MW1031REMSYN017333   20224 59009
0110829940999991984021018004-09667-035717FM-12+004699999V0201401N00671220001CN0500001N9+03021+02211999999ADDAA106000091AG10999AY111061GF104991021031012501041001MA1999999100071MD1999999+0011MW1021REMSYN011333   58001
0129829940999991984021100004-09667-035717FM-12+004699999V0200901N00101007501CN9999999N9+02501+02271999999ADDAA106000091AG10999AY111061GF105991051021008001001001KA1240M+03141MA1999999100231MD1410001+0001MW1021REMSYN017333   10314 58000
0129829940999991984021112004-09667-035717FM-12+004699999V0201401N00101012001CN0500001N9+02921+02121999999ADDAA106000091AG10999AY111061GF106991061021012501001001KA1240N+02201MA1999999100201MD1999999-0031MW1021REMSYN017333   20220 59003
0110829940999991984021118004-09667-035717FM-12+004699999V0201401N00311220001CN0500001N9+02941+02111999999ADDAA106000091AG10999AY111061GF104991041021012501001001MA1999999100071MD1410001+0001MW1021REMSYN011333   58000
0129829940999991984021212004-09667-035717FM-12+004699999V0201401N00151045001CN0500001N9+02821+02201999999ADDAA106000091AG10999AY111061GF106991031031008001041001KA1240N+02241MA1999999100181MD1999999-0021MW1031REMSYN017333   20224 59002
0110829940999991984021218004-09667-035717FM-12+004699999V0201401N00511045001CN0500001N9+03061+02251999999ADDAA106000091AG10999AY121061GF105991021021012501041001MA1999999100071MD1410001+0001MW1021REMSYN011333   58000
0129829940999991984021300004-09667-035717FM-12+004699999V0201401N00211045001CN9999999N9+02601+02351999999ADDAA106000091AG10999AY121061GF106991021031012501041001KA1240M+03171MA1999999100191MD1999999+0061MW1031REMSYN017333   10317 58006
0146829940999991984021312004-09667-035717FM-12+004699999V0201401N00101045001CN0500001N9+02901+02151999999ADDAA124000291AA299000391AG10999AY191061GF105991021021012501041001KA1240N+02261MA1999999100161MD1999999-0021MW1031REMSYN023333   20226 59002 69924
0110829940999991984021318004-09667-035717FM-12+004699999V0201401N00571105001CN0500001N9+03001+02051999999ADDAA106000091AG10999AY101061GF106991031011012501001071MA1999999099881MD1999999-0191MW1011REMSYN011333   59019
0148829940999991984021400004-09667-035717FM-12+004699999V0201401N002619999999N9999999N9+02651+02271999999ADDAA106000091AG10999AY121061GF106991999001008001001001KA1240M+03181MA1999999100101MD1999999-0091MW1021REMSYN017333   10318 59009EQDQ01+000002SCOTLC
0121829940999991984021412004-09667-035717FM-12+004699999V0201401N00261045001CN0200001N9+02801+02201103961ADDAA124001091AG10999GF107991031031008001041001KA1240N+02301MA1999999100151MD1999999-0011REMSYN023333   20230 59001 60014
0110829940999991984021418004-09667-035717FM-12+004699999V0201401N00311045001CN0500001N9+03031+02131999999ADDAA106000091AG10999AY101061GF106991031021012501041001MA1999999099881MD1410001+0001MW1011REMSYN011333   58000
0129829940999991984021512004-09667-035717FM-12+004699999V0201401N00461045001CN0200001N9+02881+02161999999ADDAA106000091AG10999AY121061GF107991031031012501041001KA1240N+02301MA1999999100161MD1999999+0011MW1031REMSYN017333   20230 58001
0110829940999991984021518004-09667-035717FM-12+004699999V0201401N00621105001CN0500001N9+03001+02081999999ADDAA106000091AG10999AY101061GF105991031011012501001071MA1999999099901MD1999999+0021MW1011REMSYN011333   58002
0129829940999991984021612004-09667-035717FM-12+004699999V0201401N00461045001CN0500001N9+02901+02071999999ADDAA106000091AG10999AY101061GF105991021031008001041001KA1240N+02301MA1999999100121MD1999999-0041MW1011REMSYN017333   20230 59004
0110829940999991984021618004-09667-035717FM-12+004699999V0201401N00511105001CN0200001N9+03001+02051999999ADDAA106000091AG10999AY101061GF106991031011012501001071MA1999999099901MD1410001+0001MW1031REMSYN011333   58000
0129829940999991984021700004-09667-035717FM-12+004699999V0200901N00151220001CN9999999N9+02651+02181999999ADDAA106000091AG10999AY101061GF102991021021012501001001KA1240M+03101MA1999999100151MD1999999+0011MW1011REMSYN017333   10310 58001
0129829940999991984021712004-09667-035717FM-12+004699999V0200501N00311045001CN0200001N9+02881+02131999999ADDAA106000091AG10999AY101061GF105991021031008001041001KA1240N+02201MA1999999100111MD1999999-0011MW1011REMSYN017333   20220 59001
0110829940999991984021718004-09667-035717FM-12+004699999V0201401N00461220001CN0500001N9+03061+02111999999ADDAA106000091AG10999AY101061GF104991041011012501001001MA1999999099901MD1410001+0001MW1011REMSYN011333   58000
0129829940999991984021800004-09667-035717FM-12+004699999V0200901N00151220001CN9999999N9+02581+02211999999ADDAA106000091AG10999AY101061GF102991021011012501001001KA1240M+03181MA1999999100131MD1999999-0021MW1011REMSYN017333   10318 59002
0129829940999991984021812004-09667-035717FM-12+004699999V0200901N00261012001CN0500001N9+02951+02081999999ADDAA106000091AG10999AY101061GF105991051021012501001001KA1240N+02301MA1999999100141MD1999999+0031MW1011REMSYN017333   20230 58003
0110829940999991984021818004-09667-035717FM-12+004699999V0201401N00571220001CN0500001N9+03051+01971999999ADDAA106000091AG10999AY101061GF103991021011012501001071MA1999999099811MD1999999+0091MW1011REMSYN011333   58009
0129829940999991984021900004-09667-035717FM-12+004699999V0200901N00311220001CN9999999N9+02651+02231999999ADDAA106000091AG10999AY101061GF103991031021012501001001KA1240M+03201MA1999999100171MD1999999+0041MW1011REMSYN017333   10320 58004
0129829940999991984021912004-09667-035717FM-12+004699999V0201401N00511012001CN0200001N9+02811+02211999999ADDAA106000091AG10999AY101061GF106991061021012501001001KA1240N+02301MA1999999100121MD1999999-0021MW1031REMSYN017333   20230 59002
0110829940999991984021918004-09667-035717FM-12+004699999V0201401N00461220001CN0500001N9+03061+02081999999ADDAA106000091AG10999AY101061GF103991031011012501001001MA1999999099951MD1999999+0141MW1011REMSYN011333   58014
0129829940999991984022000004-09667-035717FM-12+004699999V0200901N00151220001CN9999999N9+02631+02161999999ADDAA106000091AG10999AY101061GF104991041011012501001001KA1240M+03151MA1999999100261MD1999999+0091MW1011REMSYN017333   10315 58009
0129829940999991984022012004-09667-035717FM-12+004699999V0201401N00461045001CN0500001N9+02901+02271999999ADDAA106000091AG10999AY111061GF106991021031012501041001KA1240N+02281MA1999999100261MD1999999+0141MW1031REMSYN017333   20228 58014
0110829940999991984022018004-09667-035717FM-12+004699999V0201401N00511220001CN0500001N9+03051+02061999999ADDAA106000091AG10999AY101061GF104991041011012501001071MA1999999099951MD1410001+0001MW1011REMSYN011333   58000
0129829940999991984022112004-09667-035717FM-12+004699999V0201401N00361045001CN0500001N9+03001+02051999999ADDAA106000091AG10999AY111061GF106991031031012501041001KA1240N+02261MA1999999100221MD1999999-0041MW1031REMSYN017333   20226 59004
0110829940999991984022115004-09667-035717FM-12+004699999V0201401N00511220001CN0500001N9+03101+01771999999ADDAA106000091AG10999AY101031GF103991031001008001041001MA1999999100021MD1999999+0071MW1011REMSYN011333   58007
0129829940999991984022200004-09667-035717FM-12+004699999V0200901N00051220001CN9999999N9+02641+02291999999ADDAA106000091AG10999AY101061GF104991041021012501001001KA1240M+03241MA1999999100221MD1999999-0031MW1011REMSYN017333   10324 59003
0129829940999991984022300004-09667-035717FM-12+004699999V0201401N00261220001CN9999999N9+02701+02261999999ADDAA106000091AG10999AY101061GF103991031021012501001001KA1240M+03241MA1999999100231MD1999999+0011MW1031REMSYN017333   10324 58001
0129829940999991984022312004-09667-035717FM-12+004699999V0201401N00511220001CN0500001N9+03041+02091999999ADDAA106000091AG10999AY101061GF104991041021012501001001KA1240N+02401MA1999999100111MD1999999-0091MW1011REMSYN017333   20240 59009
0110829940999991984022318004-09667-035717FM-12+004699999V0200901N00721220001CN0500001N9+03051+02091101001ADDAA106000091AG10999AY101061GF103991031011012501001001MA1999999099881MD1999999-0021MW1021REMSYN011333   59002
0129829940999991984022400004-09667-035717FM-12+004699999V0200901N00311220001CN9999999N9+02651+02161999999ADDAA106000091AG10999AY101061GF103991031021012501001001KA1240M+03201MA1999999100131MD1999999-0101MW1031REMSYN017333   10320 59010
0129829940999991984022412004-09667-035717FM-12+004699999V0200901N00151012001CN0500001N9+02971+01841999999ADDAA106000091AG10999AY101061GF105991051021012501001001KA1240N+02281MA1999999100131MD1999999-0031MW1011REMSYN017333   20228 59003
0110829940999991984022418004-09667-035717FM-12+004699999V0200901N00771045001CN0500001N9+03061+01901999999ADDAA106000091AG10999AY101061GF106991041021012501041001MA1999999099881MD1410001+0001MW1031REMSYN011333   58000
0129829940999991984022500004-09667-035717FM-12+004699999V0200901N00101220001CN9999999N9+02521+02091999999ADDAA106000091AG10999AY101061GF102991021011012501001001KA1240M+03201MA1999999100161MD1999999+0031MW1011REMSYN017333   10320 58003
0135829940999991984022512004-09667-035717FM-12+004699999V0201401N00101045001CN0200001N9+02821+02361999999ADDAA124002091AG10999AY191061GF107991031031012501041001KA1240N+02281MA1999999100191MD1999999+0061MW1211REMSYN023333   20228 58006 60024
0110829940999991984022518004-09667-035717FM-12+004699999V0201401N00511045001CN0500001N9+03061+02401999999ADDAA106000091AG10999AY121061GF106991021031012501041001MA1999999100001MD1999999+0121MW1031REMSYN011333   58012
0135829940999991984022600004-09667-035717FM-12+004699999V0201401N00211045001CN9999999N9+02661+02431999999ADDAA106999929AG10999AY191061GF105991021021012501021001KA1240M+03161MA1999999100051MD1999999-0111MW1611REMSYN023333   10316 59011 69901
0135829940999991984022612004-09667-035717FM-12+004699999V0201401N00411220001CN0200001N9+02961+02131999999ADDAA124999929AG10999AY111061GF105991021041012501001041KA1240N+02301MA1999999100181MD1999999-0011MW1031REMSYN023333   20230 59001 69904
0129829940999991984022618004-09667-035717FM-12+004699999V0201401N00621220001CN0500001N9+03021+99999999999ADDAA106000091AG10999AY101061GF103991031021012501001021MA1999999100091MD1999999+0091MW1011REMSYN011333   58009EQDQ01+027613ATOD  
0148829940999991984022700004-09667-035717FM-12+004699999V0201401N00101220001CN9999999N9+02621+02311999999ADDAA106000091AG10999AY101061GF103991031011008001001001KA1240M+03181MA1999999100942MD1999999+0091MW1021REMSYN017333   10318 58009EQDQ01+100943APOSP 
0129829940999991984022712004-09667-035717FM-12+004699999V0201401N00311045001CN0500001N9+03001+02111999999ADDAA106000091AG10999AY111061GF106991021021012501061001KA1240N+02261MA1999999100191MD1999999+0031MW1031REMSYN017333   20226 58003
0110829940999991984022718004-09667-035717FM-12+004699999V0201401N00511220001CN0500001N9+03081+01881999999ADDAA106000091AG10999AY101061GF102991021011012501001001MA1999999100041MD1999999-0051MW1011REMSYN011333   59005
0129829940999991984022800004-09667-035717FM-12+004699999V0201401N003119999999N9999999N9+02681+02261999999ADDAA106000091AG10999AY111061GF105991051001012501041001KA1240M+03201MA1999999100201MD1999999+0061MW1031REMSYN017333   10320 58006
0135829940999991984022812004-09667-035717FM-12+004699999V0201401N00051045001CN0100001N9+02861+02501999999ADDAA124003091AG10999AY191061GF107991031041012501041001KA1240N+02241MA1999999100181MD1999999-0011MW1031REMSYN023333   20224 59001 60034
0110829940999991984022818004-09667-035717FM-12+004699999V0201401N00361045001CN0500001N9+03061+02251999999ADDAA106000091AG10999AY101061GF106991021031012501041001MA1999999100101MD1999999+0061MW1031REMSYN011333   58006
0146829940999991984022900004-09667-035717FM-12+004699999V0201401N00151045001CN9999999N9+02581+02511999999ADDAA106000291AA299000391AG10999AY191061GF106991031031008001041001KA1240M+03201MA1999999100201MD1410001+0001MW1031REMSYN023333   10320 58000 69921
0135829940999991984022910004-09667-035717FM-12+004699999V0200501N00261045001CN0100001N9+02661+02571999999ADDAA124009091AG10999AY191999GF107991031071008001021001KA1240N+02361MA1999999100171MD1999999-0011MW1161REMSYN023333   20236 59001 60094
0135829940999991984022912004-09667-035717FM-12+004699999V0200501N00261045001CN0100001N9+02661+02571999999ADDAA124009091AG10999AY191061GF107991031071008001021001KA1240N+02361MA1999999100171MD1999999-0011MW1161REMSYN023333   20236 59001 60094
0110829940999991984022918004-09667-035717FM-12+004699999V0201401N00511045001CN0200001N9+02951+02361999999ADDAA106000091AG10999AY101061GF106991021021012501041001MA1999999099921MD1999999-0181MW1031REMSYN011333   59018
0135829940999991984030100004-09667-035717FM-12+004699999V0200901N00051045001CN9999999N9+02631+02441999999ADDAA106002091AG10999AY191061GF106991031051012501021001KA1240M+03201MA1999999100151MD1999999-0051MW1611REMSYN023333   10320 59005 60021
0135829940999991984030112004-09667-035717FM-12+004699999V0201401N00311045001CN0200001N9+02851+02441999999ADDAA124008091AG10999AY191061GF106991031031012501041001KA1240N+02371MA1999999100191MD1999999+0021MW1211REMSYN023333   20237 58002 60084
0099829940999991984030115004-09667-035717FM-12+004699999V0209991C00001220001CN0500001N9+99999+99999103481ADDAG10999AY101031GF100991001001999999001001MD1410001+9999MW1021EQDQ01+026343ATOT  Q02+026223ATOD  
0114829940999991984030118004-09667-035717FM-12+004699999V0201401N00311012001CN0200001N9+02951+02331999999ADDAA106000091AG10999AY101061GF106991999021012501001001MD1999999+0111MW1031REMSYN011333   58011EQDQ01+000052SCOTLC
0129829940999991984030212004-09667-035717FM-12+004699999V0200901N002619999999N0500001N9+02851+02211999999ADDAA106000091AG10999AY101061GF105991051001012501001001KA1240N+02221MA1999999100331MD1999999+0141MW1031REMSYN017333   20222 58014
0110829940999991984030218004-09667-035717FM-12+004699999V0201401N00411045001CN0500001N9+03001+02221999999ADDAA106000091AG10999AY101061GF105991021031012501041001MA1999999100011MD1999999-0021MW1031REMSYN011333   59002
0129829940999991984030300004-09667-035717FM-12+004699999V0201401N00151220001CN9999999N9+02601+02311999999ADDAA106000091AG10999AY101061GF102991021041008001001001KA1240M+03101MA1999999100261MD1410001+0001MW1011REMSYN017333   10310 58000
0129829940999991984030312004-09667-035717FM-12+004699999V0201401N00311045001CN0500001N9+99999+99999999999ADDAA106000091AG10999AY101061GF105991031021008001061001KA1240N+02011MA1999999100301MD1999999+0001MW1031REMSYN017333   20201 59000
0154829940999991984030400004-09667-035717FM-12+004699999V0201401N001519999999N9999999N9+02651+02201999999ADDAA106006091AG10999AY141061GF106991999001008001021001KA1240M+03201MA1999999100301MD1999999+0041MW1031REMSYN023333   10320 58004 60061EQDQ01+000042SCOTLC
0110829940999991984030418004-09667-035717FM-12+004699999V0201401N00411045001CN0500001N9+02901+02251999999ADDAA106000091AG10999AY101061GF105991021021008001061001MA1999999100071MD1999999-0071MW1031REMSYN011333   59007
0148829940999991984030500004-09667-035717FM-12+004699999V0200901N00261220001CN9999999N9+02601+02311999999ADDAA106000091AG10999AY101061GF102991021041008001001001KA1240M+03201MA1999999100922MD1999999+0081MW1011REMSYN017333   10320 58008EQDQ01+100923APOSP 
0116829940999991984030518004-09667-035717FM-12+004699999V0201401N00511045001CN0200001N9+02951+02211999999ADDAA106009091AG10999AY191061GF105991031031012501041001MA1999999099941MD1999999-0131MW1031REMSYN017333   59013 60091
0129829940999991984030600004-09667-035717FM-12+004699999V0200501N00151045001CN9999999N9+02561+02421999999ADDAA106000091AG10999AY121061GF106991041041012501041001KA1240M+03201MA1999999100021MD1999999-0181MW1031REMSYN017333   10320 59018
0120829940999991984030612004-09667-035717FM-12+004699999V0201401N00311045001CN0200001N9+02881+02371999999ADDAA124009091AG10999AY121061GF106991031031008001041001KA1240N+02341MD1999999-0011MW1031REMSYN023333   20234 59001 60094
0110829940999991984030618004-09667-035717FM-12+004699999V0201401N00511007501CN0500001N9+03031+02241999999ADDAA106000091AG10999AY101061GF105991051021008001001001MA1999999099891MD1999999-0091MW1031REMSYN011333   59009
0146829940999991984030700004-09667-035717FM-12+004699999V0200501N00211045001CN9999999N9+02601+02501999999ADDAA106000491AA299000591AG10999AY191061GF106991031031008001041001KA1240M+03101MA1999999100051MD1999999+0031MW1031REMSYN023333   10310 58003 69941
0135829940999991984030712004-09667-035717FM-12+004699999V0200501N00151045001CN0100001N9+02481+02461999999ADDAA124014091AG10999AY191061GF107991031071008001021001KA1240N+02321MA1999999100231MD1999999+0091MW1611REMSYN023333   20232 58009 60144
0162829940999991984030718004-09667-035717FM-12+004699999V0200901N99999045001CN0500001N9+02971+02231999999ADDAA106000491AA299000591AG10999AY191061GF105991021021012501041001MA1999999100041MD1999999+0151MW1031REMSYN017333   58015 69941EQDQ01+003703WOSPD Q020003703WOSPD 
0129829940999991984030800004-09667-035717FM-12+004699999V0200901N00101045001CN9999999N9+02541+02351999999ADDAA106000091AG10999AY101061GF106991031031012501041001KA1240M+03101MA1999999100051MD1999999-0181MW1031REMSYN017333   10310 59018
0129829940999991984030812004-09667-035717FM-12+004699999V0200901N00261220001CN0200001N9+02881+02251103021ADDAA106000091AG10999AY101061GF104991041021008001001001KA1240N+02301MA1999999100141MD1999999-0091MW1021REMSYN017333   20230 59009
0110829940999991984030818004-09667-035717FM-12+004699999V0201401N00511220001CN0500001N9+03021+02241999999ADDAA106000091AG10999AY101061GF103991031011012501001001MA1999999099891MD1999999-0151MW1011REMSYN011333   59015
0129829940999991984030900004-09667-035717FM-12+004699999V0200901N00101220001CN9999999N9+02541+02351999999ADDAA106000091AG10999AY101061GF103991031011012501001001KA1240M+03121MA1999999100111MD1999999-0041MW1011REMSYN017333   10312 59004
0129829940999991984030912004-09667-035717FM-12+004699999V0200901N00311220001CN0500001N9+02901+02201101001ADDAA106000091AG10999AY101061GF103991031021008001001001KA1240N+02351MA1999999100121MD1999999-0011MW1021REMSYN017333   20235 59001
0129829940999991984031000004-09667-035717FM-12+004699999V0200501N00261012001CN9999999N9+02601+02351999999ADDAA106000091AG10999AY101061GF105991051021012501001001KA1240M+03271MA1999999100041MD1999999-0071MW1031REMSYN017333   10327 59007
0076829940999991984031012004-09667-035717FM-12+004699999V0200501N00621220001CN0500001N9+02981+02301999999ADDAA106000091AG10999AY111061GF104991021011004501061041MA1999999099891MW1011
0110829940999991984031018004-09667-035717FM-12+004699999V0200901N00621220001CN0500001N9+03171+02261999999ADDAA106000091AG10999AY101061GF101991011021008001001001MA1999999099691MD1999999-0081MW1011REMSYN011333   59008
0129829940999991984031100004-09667-035717FM-12+004699999V0200901N00311012001CN9999999N9+02661+02391999999ADDAA106000091AG10999AY101061GF105991051021012501001001KA1240M+03241MA1999999099981MD1999999-0061MW1131REMSYN017333   10324 59006
0129829940999991984031112004-09667-035717FM-12+004699999V0200501N00311105001CN0500001N9+02991+02231999999ADDAA106000091AG10999AY101061GF105991021021008001051041KA1240N+02381MA1999999100051MD1999999+0071MW1031REMSYN017333   20238 58007
0110829940999991984031118004-09667-035717FM-12+004699999V0200901N00721220001CN0500001N9+03121+02191999999ADDAA106000091AG10999AY101061GF102991011021012501001041MA1999999099791MD1999999+0101MW1011REMSYN011333   58010
0129829940999991984031200004-09667-035717FM-12+004699999V0200501N00311220001CN9999999N9+02631+02331999999ADDAA106000091AG10999AY101061GF102991021021008001001001KA1240M+03201MA1999999100081MD1999999+0101MW1131REMSYN017333   10320 58010
0129829940999991984031212004-09667-035717FM-12+004699999V0200501N00511045001CN0500001N9+02921+02271999999ADDAA106000091AG10999AY111061GF106991021021012501041001KA1240N+02301MA1999999100091MD1999999+0041MW1031REMSYN017333   20230 58004
0110829940999991984031218004-09667-035717FM-12+004699999V0200901N00671105001CN0500001N9+03011+01271999999ADDAA106000091AG10999AY121061GF106991011011004501001081MA1999999099801MD1999999+0011MW1031REMSYN011333   58001
0129829940999991984031300004-09667-035717FM-12+004699999V0200901N00151220001CN9999999N9+02581+02331999999ADDAA106000091AG10999AY101061GF102991021021012501001001KA1240M+03291MA1999999100141MD1999999+0061MW1011REMSYN017333   10329 58006
0129829940999991984031312004-09667-035717FM-12+004699999V0200501N00361045001CN0500001N9+02961+02131999999ADDAA106000091AG10999AY111061GF105991031021012501041001KA1240N+02321MA1999999100101MD1999999+0011MW1031REMSYN017333   20232 58001
0110829940999991984031318004-09667-035717FM-12+004699999V0201401N00511220001CN0500001N9+03041+02261999999ADDAA106000091AG10999AY121061GF108991011011004501001041MA1999999099781MD1999999-0021MW1011REMSYN011333   59002
0129829940999991984031400004-09667-035717FM-12+004699999V0200901N00151220001CN9999999N9+02681+02431999999ADDAA106000091AG10999AY101061GF103991031021012501001001KA1240M+03201MA1999999100171MD1999999+0031MW1011REMSYN017333   10320 58003
0129829940999991984031412004-09667-035717FM-12+004699999V0201401N00211045001CN0500001N9+02881+02351999999ADDAA106000091AG10999AY111061GF106991021041012501051001KA1240N+02301MA1999999100031MD1999999-0071MW1021REMSYN017333   20230 59007
0146829940999991984031500004-09667-035717FM-12+004699999V0200501N00051045001CN9999999N9+02641+02551999999ADDAA106000491AA299000591AG10999AY191061GF106991031031012501041001KA1240M+03221MA1999999100031MD1999999-0041MW1031REMSYN023333   10322 59004 69941
0146829940999991984031512004-09667-035717FM-12+004699999V0200901N00151045001CN0200001N9+02851+02311999999ADDAA124000491AA299000591AG10999AY191061GF106991031051012501021001KA1240N+02421MA1999999100171MD1999999+0141MW1031REMSYN023333   20242 58014 69944
0135829940999991984031600004-09667-035717FM-12+004699999V0202701N00151045001CN9999999N9+02551+02401999999ADDAA106002091AG10999AY191061GF107991041051012501041001KA1240M+03141MA1999999100231MD1999999+0101MW1031REMSYN023333   10314 58010 60021
0116829940999991984031618004-09667-035717FM-12+004699999V0202801N00051045001CN0200001N9+02681+02391999999ADDAA106001091AG10999AY191061GF108991041051012501021001MA1999999099931MD1999999+0101MW1031REMSYN017333   58010 60011
0129829940999991984031700004-09667-035717FM-12+004699999V0209991C00001045001CN9999999N9+02521+02451999999ADDAA106000091AG10999AY101061GF107991041051012501041001KA1240M+02701MA1999999100141MD1999999+0051MW1031REMSYN017333   10270 58005
0135829940999991984031712004-09667-035717FM-12+004699999V0202701N00261012001CN0200001N9+02781+02301999999ADDAA124001091AG10999AY191061GF105991051021012501001001KA1240N+02301MA1999999100091MD1999999-0081MW1031REMSYN023333   20230 59008 60014
0114829940999991984031718004-09667-035717FM-12+004699999V0201401N00311220001CN0500001N9+03051+02031999999ADDAA106000091AG10999AY101061GF103991031001008001041001MD1999999-0091MW1011REMSYN011333   59009EQDQ01+098843APOSP 
0129829940999991984031800004-09667-035717FM-12+004699999V0201801N00151220001CN9999999N9+02631+02411999999ADDAA106000091AG10999AY101061GF103991031021012501001001KA1240M+03101MA1999999100151MD1999999-0031MW1031REMSYN017333   10310 59003
0135829940999991984031812004-09667-035717FM-12+004699999V0201401N00151012001CN0200001N9+02801+02401999999ADDAA124001091AG10999AY191061GF105991051021012501001001KA1240N+02321MA1999999100011MD1999999-0081MW1031REMSYN023333   20232 59008 60014
0114829940999991984031818004-09667-035717FM-12+004699999V0201401N00461220001CN0500001N9+02971+02211999999ADDAA106000091AG10999AY101061GF103991031001012501041001MD1999999-0031MW1011REMSYN011333   59003EQDQ01+029811APOSP 
0135829940999991984031912004-09667-035717FM-12+004699999V0200501N00361045001CN0500001N9+02801+02361999999ADDAA124999929AG10999AY191061GF105991021041012501041001KA1240N+02341MA1999999100141MD1999999+0131MW1031REMSYN023333   20234 58013 69904
0110829940999991984031918004-09667-035717FM-12+004699999V0200901N00411045001CN0500001N9+03071+02021999999ADDAA106000091AG10999AY101061GF106991041021012501041001MA1999999099891MD1999999+0081MW1031REMSYN011333   58008
0129829940999991984032012004-09667-035717FM-12+004699999V0201401N00361045001CN0500001N9+02901+02151999999ADDAA106000091AG10999AY111061GF106991031021012501041001KA1240N+02301MA1999999100171MD1999999+0031MW1021REMSYN017333   20230 58003
0110829940999991984032018004-09667-035717FM-12+004699999V0201401N00461220001CN0500001N9+03011+02081999999ADDAA106000091AG10999AY121061GF105991021021008001001041MA1999999099981MD1999999+0011MW1011REMSYN011333   58001
0151829940999991984032100004-09667-035717FM-12+004699999V0200901N00101220001CN9999999N9+02621+02391999999ADDAA106000091AG10999AY101061GA1031+012509009GF103991031021012501001001KA1240M+03121MA1999999100011MD1999999-0091MW1011REMSYN023333   10312 59009 83096
0099829940999991984032118004-09667-035717FM-12+004699999V0200901N00511045001CN0500001N9+02981+02251999999ADDAG10999AY191061GF106991041031012501061021MA1999999099881MD1999999-0031MW1031REMSYN011333   59003
0129829940999991984032200004-09667-035717FM-12+004699999V0200501N00051220001CN9999999N9+02501+02451999999ADDAA106000091AG10999AY101061GF103991031011012501001001KA1240M+03081MA1999999100021MD1999999+0011MW1011REMSYN017333   10308 58001
0146829940999991984032212004-09667-035717FM-12+004699999V0200501N00461012001CN0500001N9+02931+02321999999ADDAA124000291AA299000391AG10999AY191061GF105991051021012501001001KA1240N+02361MA1999999100131MD1999999-0071MW1011REMSYN023333   20236 59007 69924
0110829940999991984032218004-09667-035717FM-12+004699999V0200901N00511220001CN0500001N9+03101+02311999999ADDAA106000091AG10999AY101061GF103991031001012501041001MA1999999099741MD1999999-0141MW1011REMSYN011333   59014
0129829940999991984032300004-09667-035717FM-12+004699999V0203601N00311220001CN9999999N9+02451+02211999999ADDAA106000091AG10999AY101061GF102991021021012501001001KA1240M+03351MA1999999100241MD1999999+0221MW1011REMSYN017333   10335 58022
0076829940999991984032312004-09667-035717FM-12+004699999V0200901N00511220001CN0500001N9+02951+02161999999ADDAA106000091AG10999AY101061GF102991021001012501041001MA1999999100001MW1011
0110829940999991984032318004-09667-035717FM-12+004699999V0201401N00671220001CN0500001N9+03151+02211999999ADDAA106000091AG10999AY101061GF103991031001008001041001MA1999999099571MD1999999-0011MW1011REMSYN011333   59001
0129829940999991984032400004-09667-035717FM-12+004699999V0200901N00261220001CN9999999N9+02651+02391999999ADDAA106000091AG10999AY101061GF102991021011012501001001KA1240M+03301MA1999999100111MD1999999-0131MW1011REMSYN017333   10330 59013
0129829940999991984032412004-09667-035717FM-12+004699999V0203601N00211220001CN0500001N9+02961+02211999999ADDAA106000091AG10999AY101061GF104991041021008001001001KA1240N+02401MA1999999100061MD1999999+0061MW1011REMSYN017333   20240 58006
0110829940999991984032418004-09667-035717FM-12+004699999V0200901N00411045001CN0500001N9+03151+02181999999ADDAA106000091AG10999AY101061GF105991021031012501021001MA1999999099761MD1999999-0011MW1011REMSYN011333   59001
0129829940999991984032500004-09667-035717FM-12+004699999V0200901N00151220001CN9999999N9+02631+02441999999ADDAA106000091AG10999AY101061GF102991021021012501001001KA1240M+03281MA1999999100031MD1999999+0081MW1011REMSYN017333   10328 58008
0129829940999991984032512004-09667-035717FM-12+004699999V0200901N00311012001CN0500001N9+02931+02171999999ADDAA106000091AG10999AY101061GF105991051021012501001001KA1240N+02351MA1999999100171MD1999999+0111MW1031REMSYN017333   20235 58011
0076829940999991984032518004-09667-035717FM-12+004699999V0201401N00511220001CN0500001N9+03171+01921999999ADDAA106000091AG10999AY101061GF104991041021012501021001MA1999999099881MW1011
0129829940999991984032600004-09667-035717FM-12+004699999V0200901N00151220001CN9999999N9+02521+02451999999ADDAA106000091AG10999AY101061GF102991021001012501041001KA1240M+03271MA1999999100171MD1999999+0141MW1011REMSYN017333   10327 58014
0148829940999991984032612004-09667-035717FM-12+004699999V0201401N00361045001CN0500001N9+02951+02241999999ADDAA106000091AG10999AY111061GF105991021041012501041001KA1240N+02381MA1999999999999MD1999999+0021MW1021REMSYN017333   20238 58002EQDQ01 090193APOSP 
0129829940999991984032618004-09667-035717FM-12+004699999V0201401N01031220001CN0500001N9+02991+02301999999ADDAA106000091AG10999AY121061GF105991031021008001001041MA1999999099882MD1410001+0001MW1011REMSYN011333   58000EQDQ01+099883APOSP 
0129829940999991984032700004-09667-035717FM-12+004699999V0200901N00051220001CN9999999N9+02581+02371999999ADDAA106000091AG10999AY101061GF102991021021012501001001KA1240M+03221MA1999999100141MD1999999-0031MW1011REMSYN017333   10322 59003
0129829940999991984032712004-09667-035717FM-12+004699999V0200901N00311012001CN0500001N9+02941+02031999999ADDAA106000091AG10999AY111061GF105991051021012501001001KA1240N+02301MA1999999100131MD1999999-0061MW1021REMSYN017333   20230 59006
0110829940999991984032718004-09667-035717FM-12+004699999V0201401N00461220001CN0500001N9+03031+02131999999ADDAA106000091AG10999AY121061GF105991011011008001001041MA1999999099901MD1999999+0021MW1011REMSYN011333   58002
0115829940999991984032800004-09667-035717FM-12+004699999V0200901N00101220001CN9999999N9+02631+02331999999ADDAA106000091AG10999AY101061GF103991031021012501001001KA1240M+03151MA1999999100101MW1011REMSYN017333   10315 5/004
0129829940999991984032812004-09667-035717FM-12+004699999V0201401N00461045001CN0500001N9+02941+02211999999ADDAA106000091AG10999AY111061GF106991031021012501041001KA1240N+02301MA1999999100131MD1410001+0001MW1021REMSYN017333   20230 58000
0129829940999991984032900004-09667-035717FM-12+004699999V0200901N00151220001CN9999999N9+02661+02391999999ADDAA106000091AG10999AY101061GF103991031021012501001001KA1240M+03191MA1999999100141MD1999999+0101MW1011REMSYN017333   10319 58010
0129829940999991984032912004-09667-035717FM-12+004699999V0200901N00211045001CN0200001N9+02701+02301999999ADDAA106000091AG10999AY101061GF106991031051012501021001KA1240N+02341MA1999999100271MD1999999+0141MW1031REMSYN017333   20234 58014
0129829940999991984033000004-09667-035717FM-12+004699999V0200901N00151220001CN9999999N9+02601+02391999999ADDAA106000091AG10999AY101061GF103991031021012501001001KA1240M+03121MA1999999100191MD1999999+0051MW1031REMSYN017333   10312 58005
0110829940999991984033018004-09667-035717FM-12+004699999V0201401N00411220001CN0500001N9+03121+02221999999ADDAA106000091AG10999AY101061GF102991021011012501001001MA1999999099851MD1999999-0071MW1011REMSYN011333   59007
0129829940999991984033100004-09667-035717FM-12+004699999V0200501N00261220001CN9999999N9+02561+02441999999ADDAA106000091AG10999AY101061GF104991041021012501001001KA1240M+03281MA1999999100021MD1999999-0171MW1011REMSYN017333   10328 59017
0129829940999991984033112004-09667-035717FM-12+004699999V0200501N00461045001CN0500001N9+02941+02141999999ADDAA106000091AG10999AY111061GF106991021021012501041001KA1240N+02341MA1999999100031MD1999999-0171MW1021REMSYN017333   20234 59017
0110829940999991984033118004-09667-035717FM-12+004699999V0201401N00511045001CN0500001N9+03051+02201999999ADDAA106000091AG10999AY111061GF105991021021012501041001MA1999999099651MD1999999-0201MW1021REMSYN011333   59020
0114829940999991984040100004-09667-035717FM-12+004699999V0200501N00311220001CN9999999N9+02581+02381999999ADDAA106000091AG10999AY101061GF104991041021012501001001KA1240M+03301MD1999999-0041MW1021REMSYN017333   10330 59004
0129829940999991984040112004-09667-035717FM-12+004699999V0201401N00211220001CN0500001N9+03041+02091999999ADDAA106000091AG10999AY101061GF104991041011012501001001KA1240N+02361MA1999999100021MD1999999-0011MW1011REMSYN017333   20236 59001
0110829940999991984040118004-09667-035717FM-12+004699999V0201401N00621045001CN0500001N9+03101+02201999999ADDAA106000091AG10999AY111061GF106991031031012501041001MA1999999099811MD1999999+0161MW1031REMSYN011333   58016
0129829940999991984040200004-09667-035717FM-12+004699999V0200501N00101012001CN9999999N9+02701+02501999999ADDAA106000091AG10999AY101061GF105991051021012501001001KA1240M+03341MA1999999100031MD1999999+0051MW1011REMSYN017333   10334 58005
0129829940999991984040212004-09667-035717FM-12+004699999V0203201N00211045001CN0500001N9+02841+02291999999ADDAA106000091AG10999AY111061GF106991021021012501041001KA1240N+02401MA1999999100031MD1999999+0011MW1021REMSYN017333   20240 58001
0116829940999991984040218004-09667-035717FM-12+004699999V0201401N00311220001CN0500001N9+03051+02261999999ADDAA106000191AG10999AY191061GF103991021031012501061021MA1999999099681MD1999999-0131MW1011REMSYN017333   59013 69911
0129829940999991984040300004-09667-035717FM-12+004699999V0203201N00101045001CN9999999N9+02551+02231999999ADDAA106000091AG10999AY121061GF106991021071008001021001KA1240M+03181MA1999999100081MD1999999+0051MW1131REMSYN017333   10318 58005
0135829940999991984040312004-09667-035717FM-12+004699999V0203601N00311045001CN0500001N9+02941+02191999999ADDAA124000391AG10999AY191061GF106991031021012501041001KA1240N+02361MA1999999100091MD1999999+0061MW1031REMSYN023333   20236 58006 69934
0110829940999991984040318004-09667-035717FM-12+004699999V0201401N00411105001CN0500001N9+03051+02281999999ADDAA106000091AG10999AY121061GF105991021031008001061041MA1999999099731MD1999999+0051MW1011REMSYN011333   58005
0129829940999991984040412004-09667-035717FM-12+004699999V0200501N00211220001CN0500001N9+03001+02111999999ADDAA106000091AG10999AY101061GF104991021021012501041001KA1240N+02381MA1999999100081MD1999999+0031MW1021REMSYN017333   20238 58003
0110829940999991984040418004-09667-035717FM-12+004699999V0201401N00571045001CN0200001N9+02971+02231999999ADDAA106000091AG10999AY121061GF106991041091017501061081MA1999999099801MD1999999+0071MW1291REMSYN011333   58007
0129829940999991984040500004-09667-035717FM-12+004699999V0200501N00151220001CN9999999N9+02401+02281999999ADDAA106000091AG10999AY101061GF104991041021008001001001KA1240M+03331MA1999999100091MD1999999+0081MW1021REMSYN017333   10333 58008
0129829940999991984040512004-09667-035717FM-12+004699999V0203601N00151220001CN0500001N9+02981+02061999999ADDAA106000091AG10999AY101061GF103991031011012501001001KA1240N+02221MA1999999100101MD1999999-0021MW1011REMSYN017333   20222 59002
0110829940999991984040518004-09667-035717FM-12+004699999V0200901N00571220001CN0500001N9+03141+02161999999ADDAA106000091AG10999AY101061GF103991031021012501001001MA1999999099781MD1999999-0021MW1021REMSYN011333   59002
0129829940999991984040600004-09667-035717FM-12+004699999V0200901N00211220001CN9999999N9+02631+02331999999ADDAA106000091AG10999AY101061GF103991031021012501001001KA1240M+03281MA1999999100141MD1999999+0051MW1031REMSYN017333   10328 58005
0129829940999991984040612004-09667-035717FM-12+004699999V0200901N00311045001CN0500001N9+02901+02151999999ADDAA106000091AG10999AY101061GF106991031021012501041001KA1240N+01981MA1999999100241MD1999999+0121MW1031REMSYN017333   20198 58012
0132829940999991984040618004-09667-035717FM-12+004699999V0201401N005119999999N9999999N9+03071+01871999999ADDAA106000091AG10999AY101061GA1031+012509009GF105991031011999999041001MA1999999099961MD1999999+0171MW1031REMSYN017333   58017 83096
0129829940999991984040700004-09667-035717FM-12+004699999V0200501N00051220001CN9999999N9+02541+02351999999ADDAA106000091AG10999AY101061GF103991031021012501001001KA1240M+03251MA1999999100251MD1999999+0111MW1021REMSYN017333   10325 58011
0146829940999991984040712004-09667-035717FM-12+004699999V0201401N00311045001CN0500001N9+02901+02151999999ADDAA124000291AA299000391AG10999AY191061GF105991031021012501031011KA1240N+02321MA1999999100301MD1999999+0061MW1031REMSYN023333   20232 58006 69924
0110829940999991984040718004-09667-035717FM-12+004699999V0201401N00511045001CN0500001N9+02931+02121999999ADDAA106000091AG10999AY121061GF106991041081012501081021MA1999999100131MD1999999+0171MW1031REMSYN011333   58017
0129829940999991984040800004-09667-035717FM-12+004699999V0201401N00101220001CN9999999N9+02671+02291999999ADDAA106000091AG10999AY101061GF102991011011004501061001KA1240M+03171MA1999999100281MD1999999+0031MW1011REMSYN017333   10317 58003
0135829940999991984040812004-09667-035717FM-12+004699999V0202701N00151007501CN0100001N9+02381+02361999999ADDAA124022091AG10999AY191061GF107991051071008001021001KA1240N+02321MA1999999100301MD1410001+0001MW1031REMSYN023333   20232 58000 60224
0116829940999991984040818004-09667-035717FM-12+004699999V0201401N00151045001CN0200001N9+02681+02431999999ADDAA106004091AG10999AY191061GF106991041031012501071001MA1999999100021MD1999999-0111MW1031REMSYN017333   59011 60041
0129829940999991984040900004-09667-035717FM-12+004699999V0209999999999220001CN9999999N9+02521+02381999999ADDAA106000091AG10999AY111061GF102991021021008001001001KA1240M+02981MA1999999100161MD1999999-0121MW1011REMSYN017333   10298 59012
0135829940999991984040912004-09667-035717FM-12+004699999V0201401N00211045001CN0500001N9+02821+02461999999ADDAA124007091AG10999AY191061GF105991021021012501041001KA1240N+02301MA1999999100231MD1999999-0071MW1031REMSYN023333   20230 59007 60074
0110829940999991984040918004-09667-035717FM-12+004699999V0201401N00461045001CN0500001N9+02961+02181999999ADDAA106000091AG10999AY121061GF106991031031012501061021MA1999999099991MD1999999-0031MW1031REMSYN011333   59003
0129829940999991984041000004-09667-035717FM-12+004699999V0201401N00101220001CN9999999N9+02541+02311999999ADDAA106000091AG10999AY111061GF101991011041012501001001KA1240M+03051MA1999999100261MD1999999+0101MW1011REMSYN017333   10305 58010
0135829940999991984041012004-09667-035717FM-12+004699999V0200501N00151045001CN0200001N9+02761+02441999999ADDAA124011091AG10999AY191061GF106991031031008001041001KA1240N+02201MA1999999100331MD1999999+0101MW1031REMSYN023333   20220 58010 60114
0110829940999991984041018004-09667-035717FM-12+004699999V0201401N00511045001CN0500001N9+02971+02211999999ADDAA106000091AG10999AY121061GF106991021091017501081081MA1999999100081MD1999999+0091MW1011REMSYN011333   58009
0135829940999991984041112004-09667-035717FM-12+004699999V0201401N00151045001CN0200001N9+02721+02451999999ADDAA124007091AG10999AY191061GF106991031031008001041001KA1240N+02281MA1999999100511MD1999999+0181MW1031REMSYN023333   20228 58018 60074
0129829940999991984041200004-09667-035717FM-12+004699999V0201401N00151045001CN9999999N9+02521+02451999999ADDAA106000091AG10999AY111061GF105991031021008001041001KA1240M+03051MA1999999100321MD1999999-0061MW1031REMSYN017333   10305 59006
0146829940999991984041212004-09667-035717FM-12+004699999V0202701N00101045001CN0100001N9+02561+02361999999ADDAA124000291AA299000391AG10999AY191061GF107991031061008001021001KA1240N+02321MA1999999100391MD1999999-0121MW1031REMSYN023333   20232 59012 69924
0116829940999991984041218004-09667-035717FM-12+004699999V0200901N00051045001CN0100001N9+02551+02361999999ADDAA106014091AG10999AY191061GF107991031091012501021001MA1999999100111MD1999999-0021MW1031REMSYN017333   59002 60141
0146829940999991984041300004-09667-035717FM-12+004699999V0203201N00101045001CN9999999N9+02421+02321999999ADDAA106000291AA299000391AG10999AY191061GF108991031071012501021001KA1240M+02771MA1999999100381MD1999999+0061MW1211REMSYN023333   10277 58006 69921
0135829940999991984041312004-09667-035717FM-12+004699999V0200501N00261045001CN0200001N9+02621+02391999999ADDAA124018091AG10999AY191061GF106991021051012501041001KA1240N+02321MA1999999100301MD1999999-0091MW1211REMSYN023333   20232 59009 60184
0110829940999991984041318004-09667-035717FM-12+004699999V0201401N00461220001CN0500001N9+02921+02061999999ADDAA106000091AG10999AY101061GF104991041021012501001001MA1999999100001MD1999999-0111MW1031REMSYN011333   59011
0129829940999991984041400004-09667-035717FM-12+004699999V0200501N00051045001CN9999999N9+02401+99999999999ADDAA106000091AG10999AY111061GF105991021031012501041001KA1240M+03011MA1999999100281MD1999999-0101MW1031REMSYN017333   10301 59010
0129829940999991984041412004-09667-035717FM-12+004699999V0201801N00261012001CN0500001N9+02841+02351999999ADDAA106000091AG10999AY101061GF105991051021012501001001KA1240N+02201MA1999999100211MD1999999-0091MW1031REMSYN017333   20220 59009
0110829940999991984041418004-09667-035717FM-12+004699999V0201401N00461012001CN0500001N9+02951+02111999999ADDAA106000091AG10999AY101061GF105991051021012501001001MA1999999099931MD1999999-0071MW1031REMSYN011333   59007
0129829940999991984041500004-09667-035717FM-12+004699999V0200901N00151045001CN9999999N9+02381+02291999999ADDAA106000091AG10999AY101061GF106991021061017501021001KA1240M+03031MA1999999100301MD1999999+0021MW1031REMSYN017333   10303 58002
0135829940999991984041512004-09667-035717FM-12+004699999V0200901N00151045001CN0200001N9+02701+02351999999ADDAA124008091AG10999AY191061GF106991021061012501021001KA1240N+02271MA1999999100091MD1999999-0121MW1031REMSYN023333   20227 59012 60084
0127829940999991984041518004-09667-035717FM-12+004699999V0201801N00101045001CN0500001N9+02901+02321999999ADDAA106000791AA299001091AG10999AY191061GF108991021031012501041001MA1999999099921MD1999999-0011MW1031REMSYN017333   59001 69971
0135829940999991984041612004-09667-035717FM-12+004699999V0202301N00151045001CN0100001N9+02561+02421999999ADDAA124017091AG10999AY191061GF107991031031008001021001KA1240N+02301MA1999999100211MD1999999+0121MW1031REMSYN023333   20230 58012 60174
0110829940999991984041618004-09667-035717FM-12+004699999V0200901N00311045001CN0200001N9+02771+02401999999ADDAA106000091AG10999AY101061GF108991031091012501021001MA1999999099941MD1999999+0021MW1031REMSYN011333   58002
0135829940999991984041700004-09667-035717FM-12+004699999V0203601N00101045001CN9999999N9+02471+02391999999ADDAA106005091AG10999AY191061GF106991021061012501021001KA1240M+02951MA1999999100071MD1999999-0041MW1031REMSYN023333   10295 59004 60051
0135829940999991984041712004-09667-035717FM-12+004699999V0200901N00101220001CN0200001N9+02671+02311999999ADDAA124008091AG10999AY191061GF104991021061012501021001KA1240N+02301MA1999999100251MD1999999+0041MW1031REMSYN023333   20230 58004 60084
0110829940999991984041718004-09667-035717FM-12+004699999V0200901N00211045001CN0500001N9+02761+02191999999ADDAA106000091AG10999AY121061GF106991011021012501071001MA1999999099941MD1999999-0011MW1031REMSYN011333   59001
0129829940999991984041800004-09667-035717FM-12+004699999V02099999999999999999N9999999N9+02441+02351999999ADDAA106000091AG10999AY121061GF105991051001012501071001KA1240M+02831MA1999999100171MD1999999+0101MW1011REMSYN017333   10283 58010
0129829940999991984041801004-09667-035717FM-12+004699999V02099999999999999999N9999999N9+02441+02351999999ADDAA106000091AG10999AY121011GF105991051001012501071001KA1240M+02831MA1999999100171MD1999999+0101MW1011REMSYN017333   10283 58010
0129829940999991984041812004-09667-035717FM-12+004699999V0209999999999045001CN0100001N9+02581+02231999999ADDAA106000091AG10999AY121061GF107991041031008001041001KA1240N+02281MA1999999100331MD1999999+0081MW1031REMSYN017333   20228 58008
0116829940999991984041818004-09667-035717FM-12+004699999V0201801N00151012001CN0100001N9+02651+02391999999ADDAA106001091AG10999AY121061GF107991051091012501021001MA1999999100021MD1999999+0081MW1211REMSYN017333   58008 60011
0122829940999991984041900004-09667-035717FM-12+004699999V0201401N00151045001CN9999999N9+02301+99999999999ADDAA106003091AG10999AY191061GF107991031071008001021001MA1999999100291MD1999999+0121MW1211REMSYN023333   10/98 58012 60031
0110829940999991984041918004-09667-035717FM-12+004699999V0201801N00261045001CN0200001N9+02601+02271999999ADDAA106000091AG10999AY101061GF106991031061012501021001MA1999999100021MD1999999+0061MW1031REMSYN011333   58006
0135829940999991984042000004-09667-035717FM-12+004699999V0209991C00001045001CN9999999N9+02481+02321999999ADDAA106005091AG10999AY191061GF106991031071008001021001KA1240M+02841MA1999999100301MD1999999+0011MW1211REMSYN023333   10284 58001 60051
0110829940999991984042018004-09667-035717FM-12+004699999V0201401N00211045001CN0200001N9+02841+02191999999ADDAA106000091AG10999AY121061GF106991031041012501041001MA1999999100091MD1999999+0071MW1031REMSYN011333   58007
0129829940999991984042100004-09667-035717FM-12+004699999V0209991C00001045001CN9999999N9+02501+02311999999ADDAA106000091AG10999AY121061GF106991031031008001041001KA1240M+02961MA1999999100331MD1999999+0031MW1031REMSYN017333   10296 58003
0135829940999991984042112004-09667-035717FM-12+004699999V0203601N00051045001CN0200001N9+02701+02261999999ADDAA124002091AG10999AY191061GF106991031031012501041001KA1240N+02301MA1999999100321MD1999999+0041MW1031REMSYN023333   20230 58004 60024
0110829940999991984042118004-09667-035717FM-12+004699999V0201401N00621045001CN0500001N9+02921+02141999999ADDAA106000091AG10999AY111061GF105991031021012501041001MA1999999100041MD1999999-0051MW1021REMSYN011333   59005
0129829940999991984042200004-09667-035717FM-12+004699999V0201401N00051045001CN9999999N9+02501+02361999999ADDAA106000091AG10999AY111061GF105991031031012501041001KA1240M+03041MA1999999100101MD1999999-0231MW1021REMSYN017333   10304 59023
0135829940999991984042212004-09667-035717FM-12+004699999V0201401N00151045001CN0200001N9+02661+02291999999ADDAA124004091AG10999AY191061GF107991031031012501041001KA1240N+02261MA1999999100221MD1999999-0101MW1031REMSYN023333   20226 59010 60044
0110829940999991984042218004-09667-035717FM-12+004699999V0201401N00361045001CN0500001N9+02921+02091999999ADDAA106000091AG10999AY111061GF106991021031012501041001MA1999999100011MD1999999-0031MW1021REMSYN011333   59003
0135829940999991984042312004-09667-035717FM-12+004699999V0202301N00051045001CN0100001N9+02641+02291999999ADDAA124009091AG10999AY191061GF107991041071008001021001KA1240N+02321MA1999999100341MD1999999+0121MW1151REMSYN023333   20232 58012 60094
0116829940999991984042318004-09667-035717FM-12+004699999V0209991C00001045001CN0020001N9+02401+02351999999ADDAA106044091AG10999AY161061GF108991031071004501021999MA1999999100151MD1999999+0141MW1611REMSYN017333   58014 60441
0135829940999991984042400004-09667-035717FM-12+004699999V0202701N00051045001CN9999999N9+02371+02331999999ADDAA106003091AG10999AY191061GF106991021071004501021001KA1240M+02741MA1999999100291MD1999999+0161MW1131REMSYN023333   10274 58016 60031
0110829940999991984042418004-09667-035717FM-12+004699999V0201401N00411105001CN0500001N9+02901+02391999999ADDAA106000091AG10999AY121061GF105991021021008001061031MA1999999100091MD1999999-0061MW1011REMSYN011333   59006
0129829940999991984042500004-09667-035717FM-12+004699999V0200501N00051220001CN9999999N9+02501+02401999999ADDAA106000091AG10999AY101061GF101991011011004501001001KA1240M+03001MA1999999100341MD1999999+0051MW1011REMSYN017333   10300 58005
0135829940999991984042512004-09667-035717FM-12+004699999V0201401N00211045001CN0200001N9+02741+02241999999ADDAA124007091AG10999AY191061GF106991031021008001041001KA1240N+02281MA1999999100231MD1999999-1081MW1031REMSYN023333   20228 59108 60074
0110829940999991984042518004-09667-035717FM-12+004699999V0201401N00461220001CN0500001N9+02841+02291999999ADDAA106000091AG10999AY121061GF104991021031012501061041MA1999999099931MD1999999-0161MW1011REMSYN011333   59016
0135829940999991984042600004-09667-035717FM-12+004699999V0200901N00151045001CN9999999N9+02501+02051999999ADDAA106999929AG10999AY191061GF106991031031008001041001KA1240M+02961MA1999999100081MD1999999-0261MW1031REMSYN023333   10296 59026 69901
0135829940999991984042612004-09667-035717FM-12+004699999V0200901N00461045001CN0100001N9+02701+02451999999ADDAA124001091AG10999AY191061GF106991031071012501021001KA1240N+02401MA1999999100251MD1999999+0021MW1211REMSYN023333   20240 58002 60014
0116829940999991984042618004-09667-035717FM-12+004699999V0201801N00211045001CN0500001N9+02931+02171999999ADDAA106004091AG10999AY191061GF106991021031008001041001MA1999999100051MD1999999+0221MW1031REMSYN017333   58022 60041
0146829940999991984042700004-09667-035717FM-12+004699999V0201801N00101220001CN9999999N9+02531+02381999999ADDAA106000891AA299001091AG10999AY191061GF104991021061012501021001KA1240M+02971MA1999999100271MD1999999+0191MW1031REMSYN023333   10297 58019 69981
0135829940999991984042712004-09667-035717FM-12+004699999V0201801N00261045001CN0100001N9+02551+02361999999ADDAA124054091AG10999AY191061GF107991031091012501021001KA1240N+02281MA1999999100301MD1999999+0051MW1611REMSYN023333   20228 58005 60544
0116829940999991984042718004-09667-035717FM-12+004699999V0201401N00511045001CN0200001N9+02551+02351999999ADDAA106003091AG10999AY141061GF105991021061008001021001MA1999999100071MD1999999+0021MW1031REMSYN017333   58002 60031
0129829940999991984042800004-09667-035717FM-12+004699999V0200501N00051045001CN9999999N9+02401+01991999999ADDAA106000091AG10999AY111061GF106991021041012501041001KA1240M+02841MA1999999100261MD1999999-0011MW1031REMSYN017333   10284 59001
0135829940999991984042812004-09667-035717FM-12+004699999V0202301N00211045001CN0200001N9+02781+02071999999ADDAA124005091AG10999AY191061GF106991031031008001041001KA1240N+02201MA1999999100421MD1999999+0131MW1031REMSYN023333   20220 58013 60054
0110829940999991984042818004-09667-035717FM-12+004699999V0201401N00311045001CN0500001N9+02851+01961999999ADDAA106000091AG10999AY121061GF106991031041012501061001MA1999999100171MD1999999+0101MW1021REMSYN011333   58010
0129829940999991984042900004-09667-035717FM-12+004699999V0201401N00051012001CN9999999N9+02461+02111999999ADDAA106000091AG10999AY111061GF106991061021012501001001KA1240M+02961MA1999999100361MD1999999+0101MW1021REMSYN017333   10296 58010
0135829940999991984042912004-09667-035717FM-12+004699999V0201401N00311045001CN0200001N9+02741+02281999999ADDAA124011091AG10999AY191061GF105991041021008001061001KA1240N+02131MA1999999100401MD1999999-0031MW1031REMSYN023333   20213 59003 60114
0110829940999991984042918004-09667-035717FM-12+004699999V0200901N00411045001CN0010001N9+02801+02151999999ADDAA106000091AG10999AY121061GF106991021091012501071001MA1999999100201MD1999999+0031MW1031REMSYN011333   58003
0129829940999991984043000004-09667-035717FM-12+004699999V0203201N00051220001CN9999999N9+02401+02281999999ADDAA106000091AG10999AY101061GF101991011011002501001001KA1240M+02921MA1999999100351MD1999999-0011MW1011REMSYN017333   10292 59001
0116829940999991984043018004-09667-035717FM-12+004699999V0201401N00311012001CN0040001N9+02771+02301999999ADDAA106000391AG10999AY191061GF107991061091012501021041MA1999999100211MD1999999+0011MW1031REMSYN017333   58001 69931
0129829940999991984050100004-09667-035717FM-12+004699999V0203601N00101045001CN9999999N9+02481+02381999999ADDAA106000091AG10999AY121061GF106991031041012501041001KA1240M+02941MA1999999100371MD1999999+0021MW1031REMSYN017333   10294 58002
0135829940999991984050112004-09667-035717FM-12+004699999V0201401N00361045001CN0500001N9+02821+02241999999ADDAA124000391AG10999AY111061GF106991041021008001061041KA1240N+02291MA1999999100401MD1999999-0021MW1031REMSYN023333   20229 59002 69934
0110829940999991984050118004-09667-035717FM-12+004699999V0201401N00571045001CN0500001N9+02831+02071999999ADDAA106000091AG10999AY121061GF107991021021004501061091MA1999999100171MD1999999-0041MW1031REMSYN011333   59004
0135829940999991984050200004-09667-035717FM-12+004699999V0200901N00051220001CN9999999N9+02481+02341999999ADDAA106000191AG10999AY191061GF102991011061004501011001KA1240M+02971MA1999999100361MD1999999-0011MW1011REMSYN023333   10297 59001 69911
0110829940999991984050218004-09667-035717FM-12+004699999V0201401N00461012001CN0500001N9+02831+02291999999ADDAA106000091AG10999AY101061GF105991051021012501001001MA1999999100141MD1999999-0031MW1031REMSYN011333   59003
0146829940999991984050300004-09667-035717FM-12+004699999V0200901N00051045001CN9999999N9+02431+02281999999ADDAA106000291AA299000391AG10999AY191061GF106991021061012501021001KA1240M+02901MA1999999100311MD1999999-0051MW1211REMSYN023333   10290 59005 69921
0135829940999991984050312004-09667-035717FM-12+004699999V0201401N00411045001CN0200001N9+02801+02251999999ADDAA124007091AG10999AY191061GF105991031051008001041001KA1240N+02261MA1999999100351MD1999999-0051MW1031REMSYN023333   20226 59005 60074
0110829940999991984050318004-09667-035717FM-12+004699999V0201401N00461045001CN0200001N9+02841+02191999999ADDAA106000091AG10999AY121061GF106991031031012501041001MA1999999100301MD1999999-0011MW1031REMSYN011333   59001
0135829940999991984050412004-09667-035717FM-12+004699999V0200501N00261045001CN0500001N9+02501+02231999999ADDAA124025091AG10999AY191061GF106991031071008001021001KA1240N+02201MA1999999100301MD1999999-0051MW1031REMSYN023333   20220 59005 60254
0116829940999991984050418004-09667-035717FM-12+004699999V0201401N00211045001CN0100001N9+02801+02291999999ADDAA106003091AG10999AY191061GF106991021051012501021001MA1999999100151MD1999999+0031MW1031REMSYN017333   58003 60031
0135829940999991984050500004-09667-035717FM-12+004699999V0201801N00101220001CN9999999N9+02471+02251999999ADDAA106000191AG10999AY191061GF103991031021012501001001KA1240M+02851MA1999999100311MD1999999+0091MW1031REMSYN023333   10285 58009 69911
0135829940999991984050600004-09667-035717FM-12+004699999V0200901N00051045001CN9999999N9+02381+02311999999ADDAA106023091AG10999AY191061GF105991021061012501021001KA1240M+02981MA1999999100371MD1999999+0061MW1211REMSYN023333   10298 58006 60231
0135829940999991984050612004-09667-035717FM-12+004699999V0201401N00211045001CN0100001N9+02701+02301999999ADDAA124029091AG10999AY191061GF106991031071008001021001KA1240N+01201MA1999999100261MD1999999+0061MW1031REMSYN023333   20120 58006 60294
0110829940999991984050618004-09667-035717FM-12+004699999V0201401N00461220001CN0500001N9+02801+02111999999ADDAA106000091AG10999AY101061GF103991031021012501001001MA1999999100121MD1999999+0061MW1031REMSYN011333   58006
0129829940999991984050700004-09667-035717FM-12+004699999V0200901N00051220001CN9999999N9+02351+02181999999ADDAA106000091AG10999AY101061GF102991021011012501001001KA1240M+02901MA1999999100371MD1410001+0001MW1011REMSYN017333   10290 58000
0135829940999991984050712004-09667-035717FM-12+004699999V0201401N00461012001CN0500001N9+02801+02181999999ADDAA124002091AG10999AY191061GF105991051031012501001001KA1240N+02121MA1999999100311MD1999999+0051MW1031REMSYN023333   20212 58005 60024
0110829940999991984050718004-09667-035717FM-12+004699999V0201401N00361045001CN0500001N9+02761+02231999999ADDAA106000091AG10999AY111061GF106991031021012501041001MA1999999100141MD1999999+0021MW1031REMSYN011333   58002
0129829940999991984050800004-09667-035717FM-12+004699999V0201401N00051045001CN9999999N9+02481+02381999999ADDAA106000091AG10999AY111061GF105991031021012501041001KA1240M+02921MA1999999100281MD1999999-0171MW1021REMSYN017333   10292 59017
0110829940999991984050818004-09667-035717FM-12+004699999V0201401N00311220001CN0500001N9+02871+02211999999ADDAA106000091AG10999AY101061GF104991041021012501001001MA1999999100131MD1999999-0011MW1021REMSYN011333   59001
0129829940999991984050900004-09667-035717FM-12+004699999V0200901N00051007501CN9999999N9+02471+02301999999ADDAA106000091AG10999AY111061GF107991051071008001071001KA1240M+02921MA1999999100271MD1999999+0071MW1031REMSYN017333   10292 58007
0135829940999991984050912004-09667-035717FM-12+004699999V0201401N00311045001CN0200001N9+02721+02021999999ADDAA124003091AG10999AY191061GF106991031031012501041001KA1240N+02281MA1999999100361MD1999999+0051MW1031REMSYN023333   20228 58005 60034
0129829940999991984051000004-09667-035717FM-12+004699999V0201401N00261045001CN9999999N9+02551+02251999999ADDAA106000091AG10999AY101061GF106991031061012501021001KA1240M+02871MA1999999100321MD1999999+0051MW1031REMSYN017333   10287 58005
0154829940999991984051012004-09667-035717FM-12+004699999V0201801N004619999999N0200001N9+02801+02101999999ADDAA124000291AA299000391AG10999AY101061GA1031+012509009GF105991021041012501001999KA1240N+02241MA1999999100251MW1031REMSYN029333   20224 5913/ 69924 83096
0135829940999991984051112004-09667-035717FM-12+004699999V0202701N00211045001CN0200001N9+02481+02341999999ADDAA124005091AG10999AY191061GF106991021061012501021001KA1240N+02201MA1999999100031MD1999999-0221MW1031REMSYN023333   20220 59022 60054
0114829940999991984051118004-09667-035717FM-12+004699999V0201401N00261045001CN0200001N9+02781+02301999999ADDAA106000091AG10999AY101061GF105991021031012501041001MD1999999-0281MW1031REMSYN011333   59028EQDQ01+098713APOSP 
0122829940999991984051200004-09667-035717FM-12+004699999V0200901N00101220001CN9999999N9+02401+02281999999ADDAA106000591AG10999AY191061GF103991031001012501041001MA1999999100071MD1999999-0111MW1031REMSYN023333   10/// 59011 69951
0146829940999991984051212004-09667-035717FM-12+004699999V0200501N00151045001CN0500001N9+02751+02231999999ADDAA124000691AA299000591AG10999AY191061GF105991021031012501041001KA1240N+02201MA1999999100171MD1999999+0141MW1031REMSYN023333   20220 58014 69964
0116829940999991984051218004-09667-035717FM-12+004699999V0201401N00261045001CN0100001N9+02551+02351999999ADDAA106001091AG10999AY191061GF107991041051012501021001MA1999999100021MD1999999+0211MW1211REMSYN017333   58021 60011
0116829940999991984051300004-09667-035717FM-12+004699999V0200901N00101045001CN9999999N9+02401+02331999999ADDAA106004091AG10999AY191061GF107991031071012501021001MA1999999100251MD1999999+0181MW1211REMSYN017333   58018 60041
0135829940999991984051312004-09667-035717FM-12+004699999V0200901N00461045001CN0200001N9+02551+02331999999ADDAA124013091AG10999AY191061GF106991031061012501021001KA1240N+02301MA1999999100421MD1999999+0251MW1031REMSYN023333   20230 58025 60134
0110829940999991984051318004-09667-035717FM-12+004699999V0200501N00361045001CN0500001N9+02801+02291999999ADDAA106000091AG10999AY101061GF105991021031012501041001MA1999999100021MD1999999+0101MW1031REMSYN011333   58010
0110829940999991984051400004-09667-035717FM-12+004699999V0200901N00151220001CN9999999N9+02401+02331999999ADDAA106000091AG10999AY101061GF102991021021012501001001MA1999999100321MD1999999+0071MW1031REMSYN011333   58007
0146829940999991984051412004-09667-035717FM-12+004699999V0200501N00151045001CN0100001N9+02421+02281999999ADDAA124000291AA299000391AG10999AY191061GF106991031041012501041001KA1240N+02201MA1999999100401MD1999999-0021MW1031REMSYN023333   20220 59002 69924
0110829940999991984051418004-09667-035717FM-12+004699999V0201401N00151045001CN0200001N9+02821+02201999999ADDAA106000091AG10999AY121061GF106991031031012501041001MA1999999100061MD1999999+0041MW1031REMSYN011333   58004
0102829940999991984051500004-09667-035717FM-12+004699999V0200901N00051045001CN9999999N9+02481+02411999999ADDAA106000091AG10999AY101061GF106991031021012501041001MA1999999100201MW1021REMSYN017333   100// 70322
0135829940999991984051512004-09667-035717FM-12+004699999V0201801N00151012001CN0500001N9+02741+02361999999ADDAA124003091AG10999AY191061GF105991051031012501001001KA1240N+02171MA1999999100291MD1999999-0111MW1031REMSYN023333   20217 59011 60034
0110829940999991984051518004-09667-035717FM-12+004699999V0201401N00461220001CN0500001N9+02821+02151999999ADDAA106000091AG10999AY111061GF102991021021008001001001MA1999999099961MD1999999-0101MW1011REMSYN011333   59010
0110829940999991984051600004-09667-035717FM-12+004699999V0209999999999220001CN9999999N9+02381+02291999999ADDAA106000091AG10999AY101061GF101991011021004501001001MA1999999100151MD1999999-0051MW1011REMSYN011333   59005
0168829940999991984051612004-09667-035717FM-12+004699999V0201801N00101045001CN0200001N9+02641+02291999999ADDAA124000291AA299000391AG10999AY191061GA1031+012509009GF106991031041008001041001KA1240N+02181MA1999999100111MD1999999-0181MW1031REMSYN029333   20218 59018 69924 83096
0110829940999991984051618004-09667-035717FM-12+004699999V0201401N00311220001CN0500001N9+99999+99999999999ADDAA106000091AG10999AY101061GF103991031011012501001001MA1999999099951MD1410001+0001MW1011REMSYN011333   58000
0135829940999991984051712004-09667-035717FM-12+004699999V0201401N00211045001CN0200001N9+02701+02331999999ADDAA124003091AG10999AY191061GF106991031061012501021001KA1240N+02211MA1999999100311MD1999999+0201MW1031REMSYN023333   20221 58020 60034
0110829940999991984051718004-09667-035717FM-12+004699999V0201401N00461220001CN0500001N9+02851+02171101001ADDAA106000091AG10999AY101061GF103991031021012501001001MA1999999100131MD1999999+0171MW1021REMSYN011333   58017
0116829940999991984051800004-09667-035717FM-12+004699999V0201801N00101220001CN9999999N9+02501+02251999999ADDAA106000091AG10999AY101061GF103991031011012501001001MA1999999100301MD1999999+0151MW1011REMSYN017333   10/// 58015
0135829940999991984051812004-09667-035717FM-12+004699999V0202701N00151045001CN0200001N9+02521+02421999999ADDAA124003091AG10999AY191061GF106991031061012501021001KA1240N+02221MA1999999100281MD1999999-0031MW1031REMSYN023333   20222 59003 60034
0116829940999991984051818004-09667-035717FM-12+004699999V0201801N00151045001CN0100001N9+02471+02361999999ADDAA106017091AG10999AY191061GF106991031071012501021001MA1999999100201MD1999999+0071MW1211REMSYN017333   58007 60171
0135829940999991984051912004-09667-035717FM-12+004699999V0202701N00151045001CN0100001N9+02201+02171999999ADDAA124095091AG10999AY191061GF107991031071012501021001KA1240N+02161MA1999999100441MD1999999+0121MW1611REMSYN023333   20216 58012 60954
0116829940999991984051918004-09667-035717FM-12+004699999V0203601N00261045001CN0100001N9+02451+02251999999ADDAA106007091AG10999AY191061GF106991021061012501021001MA1999999100131MD1999999-0071MW1031REMSYN017333   59007 60071
0110829940999991984052000004-09667-035717FM-12+004699999V0202701N00101220001CN9999999N9+02251+02161999999ADDAA106000091AG10999AY101061GF102991021021012501001001MA1999999100271MD1410001+0001MW1011REMSYN011333   58000
0135829940999991984052012004-09667-035717FM-12+004699999V0202701N00151045001CN0100001N9+02551+02361999999ADDAA124007091AG10999AY191061GF106991021061012501021001KA1240N+02131MA1999999100301MD1999999-0141MW1031REMSYN023333   20213 59014 60074
0135829940999991984052112004-09667-035717FM-12+004699999V0201401N00461045001CN0200001N9+02681+02201999999ADDAA124007091AG10999AY191061GF106991031041012501041001KA1240N+02261MA1999999100311MD1999999+0011MW1031REMSYN023333   20226 58001 60074
0110829940999991984052118004-09667-035717FM-12+004699999V0201401N00461045001CN0500001N9+02621+02351999999ADDAA106000091AG10999AY111061GF106991031031012501041001MA1999999100211MD1999999+0191MW1021REMSYN011333   58019
0103829940999991984052121004-09667-035717FM-12+004699999V0201301N006219999999N0200001N9+02731+01861101001ADDAG10999AY101031GF107991999041008001001001MD1999999+0181MW1021REMSYN011333   58018EQDQ01+000022SCOTLC
0099829940999991984052200004-09667-035717FM-12+004699999V0202301N00051045001CN9999999N9+02271+02241999999ADDAG10999AY191061GF106991031071008001021001MA1999999100291MD1410001+0001MW1031REMSYN011333   58000
0135829940999991984052212004-09667-035717FM-12+004699999V0200501N00151004201CN0200001N9+02601+02351999999ADDAA124039091AG10999AY191061GF107991061071004501021001KA1240N+02211MA1999999100361MD1999999+0051MW1031REMSYN023333   20221 58005 60394
0083829940999991984052218004-09667-035717FM-12+004699999V0209991C00001007501CN0500001N9+99999+99999100941ADDAG10999AY181061GF107991071051008001001001MD1210411+9999MW1021EQDQ01+027663ATOT  
0116829940999991984052300004-09667-035717FM-12+004699999V0200901N00151045001CN9999999N9+02441+02271999999ADDAA106012091AG10999AY191061GF106991021071004501021001MA1999999100331MD1999999+0041MW1031REMSYN017333   58004 60121
0135829940999991984052312004-09667-035717FM-12+004699999V0209999999999045001CN0040001N9+02491+02341999999ADDAA124019091AG10999AY191061GF108991041071004501021999KA1240N+02221MA1999999100381MD1999999+0021MW1031REMSYN023333   20222 58002 60194
0116829940999991984052318004-09667-035717FM-12+004699999V0201401N00511045001CN0100001N9+02501+02321999999ADDAA106017091AG10999AY191061GF106991031061008001021001MA1999999100181MD1999999+0031MW1611REMSYN017333   58003 60171
0122829940999991984052400004-09667-035717FM-12+004699999V0203601N00051045001CN9999999N9+02331+02131999999ADDAA106029091AG10999AY191061GF105991021061012501021001MA1999999100281MD1999999-0051MW1211REMSYN023333   10/// 59005 60291
0135829940999991984052412004-09667-035717FM-12+004699999V0200901N00051045001CN0100001N9+02351+02271999999ADDAA124085091AG10999AY161061GF107991031071008001021001KA1240N+02211MA1999999100351MD1999999-0031MW1611REMSYN023333   20221 59003 60854
0116829940999991984052418004-09667-035717FM-12+004699999V0201401N00361045001CN0200001N9+02631+02181999999ADDAA106014091AG10999AY191061GF107991031071008001021001MA1999999100051MD1999999-0131MW1611REMSYN017333   59013 60141
0116829940999991984052500004-09667-035717FM-12+004699999V0203601N00101045001CN9999999N9+99999+99999999999ADDAA106007091AG10999AY191061GF106991021091008001021001MA1999999100251MD1999999-0031MW1031REMSYN017333   59003 60071
0135829940999991984052512004-09667-035717FM-12+004699999V0201401N00261045001CN0200001N9+02661+02291999999ADDAA124031091AG10999AY191061GF106991021031008001021001KA1240N+02201MA1999999100291MD1999999-0061MW1031REMSYN023333   20220 59006 60314
0116829940999991984052518004-09667-035717FM-12+004699999V0201401N00511045001CN0200001N9+02721+02031999999ADDAA106006091AG10999AY191061GF106991031061008001021001MA1999999100051MD1410001+0001MW1031REMSYN017333   58000 60061
0110829940999991984052600004-09667-035717FM-12+004699999V0203601N00051220001CN9999999N9+02251+02161999999ADDAA106000091AG10999AY101061GF102991021021012501001001MA1999999100241MD1999999-0011MW1021REMSYN011333   59001
0135829940999991984052612004-09667-035717FM-12+004699999V0202301N00051045001CN0200001N9+02601+02121999999ADDAA124006091AG10999AY191061GF106991031021012501041001KA1240N+02001MA1999999100271MD1999999-0021MW1031REMSYN023333   20200 59002 60064
0110829940999991984052618004-09667-035717FM-12+004699999V0201801N00051045001CN0500001N9+02761+01801999999ADDAA106000091AG10999AY111061GF106991031041012501041001MA1999999100111MD1999999+0061MW1031REMSYN011333   58006
0110829940999991984052700004-09667-035717FM-12+004699999V0209991C00001045001CN9999999N9+02261+02211999999ADDAA106000091AG10999AY111061GF105991031031012501041001MA1999999100251MD1999999+0011MW1021REMSYN011333   58001
0146829940999991984052712004-09667-035717FM-12+004699999V0203201N00151045001CN0200001N9+02461+02111999999ADDAA124000291AA299000391AG10999AY191061GF106991021031008001041001KA1240N+01981MA1999999100281MD1999999+0011MW1031REMSYN023333   20198 58001 69924
0119829940999991984052718004-09667-035717FM-12+004699999V0201401N00311015001CN0500001N9+02701+02061999999ADDAA106000091AG10999AY101061GF105991051081012501001001MA1999999100131MD1999999-0021ME1431219MW1021REMSYN011333   59002
0110829940999991984052800004-09667-035717FM-12+004699999V0209999999999220001CN9999999N9+02231+02141999999ADDAA106000091AG10999AY101061GF101991011011004501001001MA1999999100341MD1999999-0091MW1011REMSYN011333   59009
0129829940999991984052812004-09667-035717FM-12+004699999V0202301N00151045001CN0500001N9+02581+02121999999ADDAA106000091AG10999AY111061GF106991031031008001041001KA1240N+01961MA1999999100421MD1999999+0141MW1031REMSYN017333   20196 58014
0110829940999991984052818004-09667-035717FM-12+004699999V0201801N00461220001CN0500001N9+02741+02101999999ADDAA106000091AG10999AY101061GF103991031021012501001001MA1999999100151MD1999999+0021MW1021REMSYN011333   58002
0110829940999991984052900004-09667-035717FM-12+004699999V0209991C00001220001CN9999999N9+02321+02251999999ADDAA106000091AG10999AY101061GF102991021021012501001001MA1999999100251MD1999999-0091MW1021REMSYN011333   59009
0129829940999991984052912004-09667-035717FM-12+004699999V0202701N00211012001CN0500001N9+02521+02251999999ADDAA106000091AG10999AY121061GF105991051081008001001001KA1240N+02071MA1999999100381MD1999999-0041MW1011REMSYN017333   20207 59004
0116829940999991984052918004-09667-035717FM-12+004699999V0201401N00411012001CN0500001N9+02781+02161999999ADDAA106001091AG10999AY191061GF106991051031012501061001MA1999999100101MD1410001+0001MW1031REMSYN017333   58000 60011
0127829940999991984053000004-09667-035717FM-12+004699999V0200501N00051045001CN9999999N9+02341+02241999999ADDAA106000291AA299000391AG10999AY191061GF107991031071008001021001MA1999999100351MD1999999+0101MW1031REMSYN017333   58010 69921
0135829940999991984053012004-09667-035717FM-12+004699999V0201401N00411045001CN0200001N9+02701+02151999999ADDAA124008091AG10999AY191061GF106991031051012501041001KA1240N+02221MA1999999100251MD1999999-0131MW1031REMSYN023333   20222 59013 60084
0110829940999991984053018004-09667-035717FM-12+004699999V0201401N00311220001CN0500001N9+02751+02071999999ADDAA106000091AG10999AY101061GF103991031011012501001001MA1999999100231MD1999999+0081MW1011REMSYN011333   58008
0110829940999991984053100004-09667-035717FM-12+004699999V0201801N00051220001CN9999999N9+02301+02141999999ADDAA106000091AG10999AY101061GF103991031021012501001001MA1999999100461MD1999999+0111MW1031REMSYN011333   58011
0110829940999991984053118004-09667-035717FM-12+004699999V0201801N00311220001CN0500001N9+02681+02221999999ADDAA106000091AG10999AY101061GF104991041021012501001001MA1999999100321MD1999999+0091MW1031REMSYN011333   58009
0116829940999991984060100004-09667-035717FM-12+004699999V0200901N00101045001CN9999999N9+02281+02251999999ADDAA106038091AG10999AY191061GF106991031061012501021001MA1999999100551MD1999999+0091MW1211REMSYN017333   58009 60381
0135829940999991984060112004-09667-035717FM-12+004699999V0201801N00311045001CN0100001N9+02401+02241999999ADDAA124089091AG10999AY191061GF107991031071012501021001KA1240N+02171MA1999999100701MD1999999+0171MW1211REMSYN023333   20217 58017 60894
0110829940999991984060200004-09667-035717FM-12+004699999V0209991C00001045001CN9999999N9+02361+02191999999ADDAA106000091AG10999AY121061GF106991031041012501041001MA1999999100501MD1999999-0051MW1031REMSYN011333   59005
0135829940999991984060212004-09667-035717FM-12+004699999V0201401N00511045001CN0500001N9+02741+02051999999ADDAA124007091AG10999AY121061GF106991031031012501041001KA1240N+02201MA1999999100531MD1999999-0171MW1031REMSYN023333   20220 59017 60074
0127829940999991984060218004-09667-035717FM-12+004699999V0201401N00671045001CN0100001N9+02421+02351999999ADDAA106000491AA299000591AG10999AY191061GF107991031071008001021001MA1999999100331MD1999999-0011MW1151REMSYN017333   59001 69941
0135829940999991984060312004-09667-035717FM-12+004699999V0201401N00311045001CN0100001N9+02401+02141999999ADDAA124023091AG10999AY191061GF107991031071012501021001KA1240N+02041MA1999999100261MD1999999-0271MW1611REMSYN023333   20204 59027 60234
0116829940999991984060318004-09667-035717FM-12+004699999V0201401N00151045001CN0100001N9+02451+02131999999ADDAA106000391AG10999AY191061GF107991031061012501021001MA1999999100181MD1999999-0151MW1031REMSYN017333   59015 69931
0110829940999991984060400004-09667-035717FM-12+004699999V0203601N00101045001CN9999999N9+02251+02161999999ADDAA106000091AG10999AY101061GF106991021031012501041001MA1999999100331MD1999999-0091MW1031REMSYN011333   59009
0135829940999991984060412004-09667-035717FM-12+004699999V0200901N00311045001CN0500001N9+02701+02301999999ADDAA124001091AG10999AY191061GF106991031021012501041001KA1240N+02081MA1999999100231MD1999999-0031MW1031REMSYN023333   20208 59003 60014
0127829940999991984060500004-09667-035717FM-12+004699999V0201401N00311045001CN9999999N9+02401+02241999999ADDAA106000691AA299000591AG10999AY191061GF106991031071008001021001MA1999999100381MD1999999+0051MW1611REMSYN017333   58005 69961
0135829940999991984060512004-09667-035717FM-12+004699999V0200901N00101220001CN0500001N9+02651+02271999999ADDAA124028091AG10999AY191061GF104991021031008001021001KA1240N+02201MA1999999100541MD1999999+0311MW1031REMSYN023333   20220 58031 60284
0110829940999991984060518004-09667-035717FM-12+004699999V0200901N00311220001CN0500001N9+02781+02181999999ADDAA106000091AG10999AY101061GF103991031021012501001001MA1999999100311MD1999999+0191MW1031REMSYN011333   58019
0110829940999991984060600004-09667-035717FM-12+004699999V0209999999999220001CN9999999N9+02371+02261999999ADDAA106000091AG10999AY111061GF104991041061004501001001MA1999999100491MD1999999+0111MW1011REMSYN011333   58011
0129829940999991984060612004-09667-035717FM-12+004699999V0202701N00051045001CN0100001N9+02361+02341999999ADDAA106000091AG10999AY121061GF107991031041012501021001KA1240N+02041MA1999999100531MD1999999-0011MW1151REMSYN017333   20204 59001
0116829940999991984060618004-09667-035717FM-12+004699999V0201401N00261015001CN0500001N9+02701+02131999999ADDAA106002091AG10999AY191061GF106991051031017501061001MA1999999100271MD1999999-0041MW1031REMSYN017333   59004 60021
0110829940999991984060700004-09667-035717FM-12+004699999V0200901N00051220001CN9999999N9+02301+02201999999ADDAA106000091AG10999AY101061GF102991021001012501041001MA1999999100441MD1999999-0051MW1011REMSYN011333   59005
0135829940999991984060712004-09667-035717FM-12+004699999V0202701N00151220001CN0500001N9+02591+02231999999ADDAA124002091AG10999AY191061GF102991021021008001061001KA1240N+02101MA1999999100471MD1999999-0061MW1011REMSYN023333   20210 59006 60024
0110829940999991984060718004-09667-035717FM-12+004699999V0201401N00461045001CN0200001N9+02681+02221999999ADDAA106000091AG10999AY101061GF105991021031012501041001MA1999999100211MD1999999-0061MW1021REMSYN011333   59006
0110829940999991984060800004-09667-035717FM-12+004699999V0209991C00001045001CN9999999N9+02361+02281999999ADDAA106000091AG10999AY111061GF105991031051012501041001MA1999999100331MD1999999-0111MW1021REMSYN011333   59011
0129829940999991984060812004-09667-035717FM-12+004699999V0203601N00101045001CN0500001N9+02631+02181999999ADDAA106000091AG10999AY101061GF105991021021012501041001KA1240N+02101MA1999999100411MD1999999-0061MW1031REMSYN017333   20210 59006
0110829940999991984060818004-09667-035717FM-12+004699999V0201401N00261220001CN0500001N9+02821+02051999999ADDAA106000091AG10999AY101061GF102991021021012501001001MA1999999100041MD1999999-0171MW1011REMSYN011333   59017
0116829940999991984060900004-09667-035717FM-12+004699999V0200501N00101220001CN9999999N9+02301+02231999999ADDAA106000091AG10999AY101061GF102991021011012501001001MA1999999100191MD1999999-0141MW1031REMSYN017333   10/// 59014
