0129832360999991984010100004-12150-045000FM-12+044099999V0202301N00101007501CN9999999N9+02151+02021101101ADDAA106000091AG10999AY101061GF105991051041008001061001KA1240M+03051MA1999999096151MD1999999-0071MW1021REMSYN017333   10305 59007
0129832360999991984010112004-12150-045000FM-12+044099999V0202301N00101021001CN0100001N9+02361+02051101341ADDAA106000091AG10999AY101061GF108991081001022501021999KA1240N+02041MA1999999096371MD1999999-0081MW1021REMSYN017333   20204 59008
0129832360999991984010200004-12150-045000FM-12+044099999V0200901N00051045001CN9999999N9+02361+02221101181ADDAA106000091AG10999AY101061GF107991031041008001021001KA1240M+02991MA1999999096231MD1999999+0211MW1021REMSYN017333   10299 58021
0129832360999991984010212004-12150-045000FM-12+044099999V0201401N00101007501CN0100001N9+02491+02131101261ADDAA106000091AG10999AY101061GF108991061021008001071999KA1240N+02081MA1999999096311MD1999999-0061MW1021REMSYN017333   20208 59006
0083832360999991984010215004-12150-045000FM-12+044099999V0201601N00511045001CN0150001N9+02741+02441999999ADDAG10999AY101031GF107991041011008001031011MD1210141+9999MW1021EQDQ01+101643APOSP 
0110832360999991984010218004-12150-045000FM-12+044099999V0201801N00151007501CN0100001N9+02881+02321101001ADDAA106000091AG10999AY101061GF108991051061008001041999MA1999999096081MD1999999-0021MW1171REMSYN011333   59002
0129832360999991984010300004-12150-045000FM-12+044099999V0202301N00211007501CN9999999N9+02291+02161101131ADDAA106000091AG10999AY101061GF108991071061008001071999KA1240M+03051MA1999999096191MD1999999-0041MW1131REMSYN017333   10305 59004
0135832360999991984010312004-12150-045000FM-12+044099999V0209991C00001045001CN0100001N9+02321+02031101351ADDAA124003091AG10999AY161061GF107991041081008001071001KA1240N+01971MA1999999096391MD1999999+0081MW1021REMSYN023333   20197 58008 60034
0110832360999991984010318004-12150-045000FM-12+044099999V0203601N00211045001CN0100001N9+02901+01901101041ADDAA106000091AG10999AY101061GF107991011011008001071021MA1999999096111MD1999999+0031MW1021REMSYN011333   58003
0129832360999991984010400004-12150-045000FM-12+044099999V0201801N00051220001CN9999999N9+02161+02011101201ADDAA106000091AG10999AY101061GF103991031041008001001001KA1240M+02991MA1999999096241MD1999999+0051MW1021REMSYN017333   10299 58005
0129832360999991984010412004-12150-045000FM-12+044099999V0203201N00101220001CN0200001N9+02441+02071101451ADDAA106000091AG10999AY101061GF102991011011012501001031KA1240N+01851MA1999999096481MD1999999+0091MW1021REMSYN017333   20185 58009
0110832360999991984010418004-12150-045000FM-12+044099999V0203601N00311045001CN0200001N9+03091+02101101071ADDAA106000091AG10999AY101061GF106991041031008001071021MA1999999096141MD1999999+0031MW1021REMSYN011333   58003
0129832360999991984010512004-12150-045000FM-12+044099999V0202701N00101105001CN0200001N9+02421+02291101381ADDAA106000091AG10999AY101061GF106991021011008001031041KA1240N+01871MA1999999096421MD1999999-0061MW1021REMSYN017333   20187 59006
0110832360999991984010518004-12150-045000FM-12+044099999V0203601N00211220001CN9999999N9+02301+01911100911ADDAA106000091AG10999AY101061GF105991021011008001001041MA1999999096011MD1999999-0131MW1021REMSYN011333   59013
0129832360999991984010600004-12150-045000FM-12+044099999V0201801N00151220001CN9999999N9+02501+02291101041ADDAA106000091AG10999AY101061GF104991021031008001031001KA1240M+03331MA1999999096111MD1999999-0051MW1131REMSYN017333   10333 59005
0129832360999991984010612004-12150-045000FM-12+044099999V0203601N00101220001CN0500001N9+02641+02121101101ADDAA106000091AG10999AY101061GF102991001001999999001041KA1240N+01881MA1999999096171MD1999999-0251MW1021REMSYN017333   20188 59025
0110832360999991984010618004-12150-045000FM-12+044099999V0200501N00151220001CN0500001N9+03441+02181100701ADDAA106000091AG10999AY101061GF102991011021012501001021MA1999999095811MD1999999-0201MW1021REMSYN011333   59020
0129832360999991984010700004-12150-045000FM-12+044099999V0201801N00101220001CN9999999N9+02391+02151100881ADDAA106000091AG10999AY101061GF103991031061008001001001KA1240M+03461MA1999999095961MD1999999-0151MW1131REMSYN017333   10346 59015
0129832360999991984010712004-12150-045000FM-12+044099999V0201801N00051220001CN0500001N9+02681+02041101151ADDAA106000091AG10999AY101061GF104991011011008001061041KA1240N+01971MA1999999096221MD1999999+0051MW1021REMSYN017333   20197 58005
0110832360999991984010718004-12150-045000FM-12+044099999V0202301N00101045001CN0200001N9+03411+01931100611ADDAA106000091AG10999AY101061GF106991031021008001081041MA1999999095741MD1999999-0071MW1021REMSYN011333   59007
0154832360999991984010800004-12150-045000FM-12+044099999V0200901N00311007501CN9999999N9+02141+01971101482ADDAA106042091AG10999AY191061GF108991081071008001999999KA1240M+03561MA1999999096521MD1999999+0561MW1291REMSYN023333   10356 58056 60421EQDQ01+101483APOSLP
0135832360999991984010812004-12150-045000FM-12+044099999V0200501N00571007501CN0100001N9+02191+01971101371ADDAA124045091AG10999AY101061GF107991051021008001061021KA1240N+01981MA1999999096391MD1999999+0171MW1021REMSYN023333   20198 58017 60454
0110832360999991984010818004-12150-045000FM-12+044099999V0202701N00101007501CN0100001N9+02841+02221100961ADDAA106000091AG10999AY101061GF108991071051008001041999MA1999999096031MD1999999+0291MW1021REMSYN011333   58029
0110832360999991984010900004-12150-045000FM-12+044099999V0209991C00001220001CN9999999N9+02081+02011101091ADDAA106000091AG10999AY101061GF103991031061008001021001MA1999999096121MD1999999-0401MW1131REMSYN011333   59040
0129832360999991984010912004-12150-045000FM-12+044099999V0200501N00511105001CN0200001N9+02441+02011101251ADDAA106000091AG10999AY101061GF105991021011008001091081KA1240N+02071MA1999999096291MD1999999-0101MW1021REMSYN017333   20207 59010
0146832360999991984011000004-12150-045000FM-12+044099999V0200901N00261004201CN9999999N9+02261+01941101261ADDAA106000491AA299000591AG10999AY191061GF108991081071004501999999KA1240M+03111MA1999999096311MD1999999+0191MW1131REMSYN023333   10311 58019 69941
0135832360999991984011012004-12150-045000FM-12+044099999V0201801N00101045001CN0200001N9+02281+02011101221ADDAA124005091AG10999AY101061GF106991041051008001021041KA1240N+01931MA1999999096281MD1999999-0011MW1021REMSYN023333   20193 59001 60054
0110832360999991984011018004-12150-045000FM-12+044099999V0203601N00311007501CN0200001N9+02921+02091100771ADDAA106000091AG10999AY101061GF106991051041008001071021MA1999999095851MD1999999+0041MW1021REMSYN011333   58004
0129832360999991984011100004-12150-045000FM-12+044099999V0209991C00001045001CN9999999N9+02291+02161101031ADDAA106000091AG10999AY101061GF108991041041008001071999KA1240M+02951MA1999999096081MD1999999-0211MW1021REMSYN017333   10295 59021
0129832360999991984011112004-12150-045000FM-12+044099999V0202701N00051045001CN0200001N9+02461+02131101221ADDAA106000091AG10999AY101061GF106991031021008001051091KA1240N+01901MA1999999096271MD1999999-0011MW1021REMSYN017333   20190 59001
0110832360999991984011118004-12150-045000FM-12+044099999V0203601N00461220001CN0500001N9+03071+02051100781ADDAA106000091AG10999AY101061GF104991031011008001001081MA1999999095871MD1999999+0021MW1021REMSYN011333   58002
0115832360999991984011200004-12150-045000FM-12+044099999V0202701N00101045001CN9999999N9+02141+02091101051ADDAA106015091AG10999AY191061GF106991021041008001071001KA1240M+03091MA1999999096101MW1021REMSYN017333   10309 60151
0135832360999991984011212004-12150-045000FM-12+044099999V0202301N00101045001CN0200001N9+02441+02151101271ADDAA124015091AG10999AY101061GF106991041021008001061041KA1240N+01951MA1999999096311MD1999999+0041MW1021REMSYN023333   20195 58004 60154
0083832360999991984011215004-12150-045000FM-12+044099999V0200701N00511045001CN0150001N9+02741+02541999999ADDAG10999AY101031GF105991031011008001031001MD1210041+9999MW1021EQDQ01+101643APOSP 
0110832360999991984011218004-12150-045000FM-12+044099999V0200901N00151007501CN0200001N9+03061+02171100871ADDAA106000091AG10999AY101061GF105991051051008001021001MA1999999095951MD1999999+0081MW1151REMSYN011333   58008
0135832360999991984011312004-12150-045000FM-12+044099999V0200501N00101220001CN0500001N9+02651+02201101251ADDAA124004091AG10999AY101061GF101991011001022501081001KA1240N+01971MA1999999096311MD1410001+0001MW1021REMSYN023333   20197 58000 60044
0110832360999991984011318004-12150-045000FM-12+044099999V0203601N00261220001CN0500001N9+03191+01981100931ADDAA106000091AG10999AY101061GF103991031011008001001001MA1999999096031MD1999999+0081MW1021REMSYN011333   58008
0129832360999991984011400004-12150-045000FM-12+044099999V0201801N00051220001CN9999999N9+02381+02151101001ADDAA106000091AG10999AY101061GF102991021031008001001001KA1240M+03251MA1999999096071MD1999999+0081MW1131REMSYN017333   10325 58008
0129832360999991984011412004-12150-045000FM-12+044099999V0202301N00101220001CN0500001N9+02521+01961101181ADDAA106000091AG10999AY101061GF101991001001999999001011KA1240N+01851MA1999999096241MD1999999-0071MW1021REMSYN017333   20185 59007
0110832360999991984011418004-12150-045000FM-12+044099999V0203201N00101220001CN0500001N9+03291+02071100741ADDAA106000091AG10999AY101061GF102991021021008001001001MA1999999095851MD1999999-0181MW1021REMSYN011333   59018
0129832360999991984011500004-12150-045000FM-12+044099999V0202301N00101220001CN9999999N9+02141+01931100891ADDAA106000091AG10999AY101061GF101991011021008001001001KA1240M+03371MA1999999095951MD1999999-0121MW1021REMSYN017333   10337 59012
0129832360999991984011512004-12150-045000FM-12+044099999V0202301N00151220001CN0500001N9+02361+01691101071ADDAA106000091AG10999AY101061GF103991001001999999001011KA1240N+01571MA1999999096121MD1999999-0121MW1021REMSYN017333   20157 59012
0110832360999991984011518004-12150-045000FM-12+044099999V0203601N00101220001CN0500001N9+03291+01911100721ADDAA106000091AG10999AY101061GF106991011011008001001041MA1999999095911MD1999999-0041MW1021REMSYN011333   59004
0129832360999991984011600004-12150-045000FM-12+044099999V0201801N00151220001CN9999999N9+02161+01991100831ADDAA106000091AG10999AY101061GF104991001001999999001081KA1240M+03401MA1999999095891MD1999999-0061MW1021REMSYN017333   10340 59006
0129832360999991984011612004-12150-045000FM-12+044099999V0202301N00101220001CN0500001N9+02451+02011101141ADDAA106000091AG10999AY101061GF102991021001022501061001KA1240N+01391MA1999999096191MD1999999+0071MW1021REMSYN017333   20139 58007
0110832360999991984011618004-12150-045000FM-12+044099999V0201401N00151220001CN0500001N9+03391+02091100741ADDAA106000091AG10999AY101061GF103991031031008001001001MA1999999095841MD1999999+0031MW1021REMSYN011333   58003
0129832360999991984011700004-12150-045000FM-12+044099999V0201801N00101220001CN9999999N9+02291+02011100891ADDAA106000091AG10999AY101061GF102991021051008001001001KA1240M+03501MA1999999095951MD1999999+0061MW1131REMSYN017333   10350 58006
0129832360999991984011712004-12150-045000FM-12+044099999V0209999999999220001CN0500001N9+02541+01981101161ADDAA106000091AG10999AY101061GF104991001001999999001041KA1240N+01751MA1999999096221MD1999999+0031MW1021REMSYN017333   20175 58003
0099832360999991984011715004-12150-045000FM-12+044099999V0201201N005119999999N0150001N9+99999+99999999999ADDAG10999AY101031GF105991999011008001001001MD1210141+9999MW1021EQDQ01+000022SCOTLCQ02+101643APOSP 
0110832360999991984011718004-12150-045000FM-12+044099999V0200901N00261220001CN0500001N9+03311+01871100741ADDAA106000091AG10999AY101061GF103991031011008001001001MA1999999095831MD1999999-0011MW1021REMSYN011333   59001
0129832360999991984011800004-12150-045000FM-12+044099999V0201801N00101105001CN9999999N9+02401+02171100911ADDAA106000091AG10999AY101061GF105991021021008001041041KA1240M+03491MA1999999095981MD1999999+0031MW1021REMSYN017333   10349 58003
0110832360999991984011818004-12150-045000FM-12+044099999V0203201N00151045001CN0200001N9+03101+02291100861ADDAA106000091AG10999AY101061GF105991041041008001021021MA1999999095951MD1999999+0121MW1021REMSYN011333   58012
0129832360999991984011900004-12150-045000FM-12+044099999V0201401N00101007501CN9999999N9+02361+02241100951ADDAA106000091AG10999AY101061GF106991051021008001071001KA1240M+03191MA1999999096021MD1999999+0041MW1021REMSYN017333   10319 58004
0129832360999991984011912004-12150-045000FM-12+044099999V0202701N00051220001CN0200001N9+02641+02231101111ADDAA106000091AG10999AY101061GF106991031001022501071041KA1240N+02001MA1999999096181MD1999999-0081MW1021REMSYN017333   20200 59008
0129832360999991984012000004-12150-045000FM-12+044099999V0202701N00261045001CN9999999N9+02251+01981100781ADDAA106000091AG10999AY101061GF106991021041008001071001KA1240M+03171MA1999999095831MD1999999-0191MW1021REMSYN017333   10317 59019
0129832360999991984012012004-12150-045000FM-12+044099999V0202301N00151045001CN0200001N9+02481+02011101011ADDAA106000091AG10999AY101061GF105991041041008001021011KA1240N+01891MA1999999096071MD1999999-0111MW1021REMSYN017333   20189 59011
0110832360999991984012018004-12150-045000FM-12+044099999V0202301N00151007501CN0100001N9+02501+02171100601ADDAA106000091AG10999AY101061GF106991051041008001061021MA1999999095671MD1999999-0041MW1021REMSYN011333   59004
0135832360999991984012100004-12150-045000FM-12+044099999V0202301N00101007501CN9999999N9+02051+01971100801ADDAA106000391AG10999AY161061GF107991051061008001041021KA1240M+03091MA1999999095851MD1999999+0031MW1131REMSYN023333   10309 58003 69931
0139832360999991984012112004-12150-045000FM-12+044099999V0209991C00001000151CN0200001N9+02441+01821101071ADDAG10999AY101061GA1051+000159089GF105991041999022501051011KA1240N+01951MA1999999096121MW1021REMSYN017333   20195 85800EQDQ01+000002SCOLCG
0110832360999991984012118004-12150-045000FM-12+044099999V0200901N00151045001CN0200001N9+03291+01931100581ADDAA106000091AG10999AY101061GF105991041021008001041001MA1999999095691MD1999999+0021MW1021REMSYN011333   58002
0129832360999991984012200004-12150-045000FM-12+044099999V0201801N00051220001CN9999999N9+02361+02051100841ADDAA106000091AG10999AY101061GF100991001001999999001001KA1240M+03311MA1999999095911MD1999999-0051MW1021REMSYN017333   10331 59005
0129832360999991984012300004-12150-045000FM-12+044099999V0201801N00101220001CN9999999N9+02351+02151100691ADDAA106000091AG10999AY101061GF102991021051008001001001KA1240M+03291MA1999999095771MD1999999-0141MW1131REMSYN017333   10329 59014
0051832360999991984012312004-12150-045000FM-12+044099999V0201401N001519999999N0200001N9+02661+02141101001ADDAG10999GF199999021091022501081061MA1999999096071
0129832360999991984012400004-12150-045000FM-12+044099999V0202301N00151220001CN9999999N9+02401+02191100621ADDAA106000091AG10999AY101061GF102991021041008001001001KA1240M+03361MA1999999095721MD1999999-0051MW1021REMSYN017333   10336 59005
0135832360999991984012412004-12150-045000FM-12+044099999V0203201N00151007501CN0100001N9+02101+99999101061ADDAA124003091AG10999AY161061GF108991071061008001021999KA1240N+01971MA1999999096101MD1999999+0031MW1131REMSYN023333   20197 58003 60034
0110832360999991984012418004-12150-045000FM-12+044099999V0202301N00151045001CN0200001N9+03081+02101100411ADDAA106000091AG10999AY101061GF106991041031008001061021MA1999999095521MD1999999-0131MW1021REMSYN011333   59013
0129832360999991984012500004-12150-045000FM-12+044099999V0200501N00361007501CN9999999N9+02481+02051100801ADDAA106000091AG10999AY101061GF106991061051008001041001KA1240M+03131MA1999999095851MD1999999+0131MW1131REMSYN017333   10313 58013
0129832360999991984012512004-12150-045000FM-12+044099999V0201801N00151220001CN0200001N9+02641+01951100951ADDAA106000091AG10999AY101061GF105991031001022501031041KA1240N+02021MA1999999096031MD1999999-0071MW1021REMSYN017333   20202 59007
0129832360999991984012600004-12150-045000FM-12+044099999V0209991C00001220001CN9999999N9+02411+01991100691ADDAA106000091AG10999AY101061GF104991041031008001001001KA1240M+03331MA1999999095781MD1999999-0071MW1131REMSYN017333   10333 59007
0129832360999991984012612004-12150-045000FM-12+044099999V0202301N00151045001CN0200001N9+02661+02141100901ADDAA106000091AG10999AY101061GF105991031021008001041021KA1240N+02061MA1999999096081MD1999999+0051MW1021REMSYN017333   20206 58005
0129832360999991984012700004-12150-045000FM-12+044099999V0202301N00151220001CN9999999N9+02201+01991100741ADDAA106000091AG10999AY101061GF103991031051008001001001KA1240M+03381MA1999999095821MD1999999+0041MW1131REMSYN017333   10338 58004
0129832360999991984012712004-12150-045000FM-12+044099999V0209991C00001045001CN0200001N9+02461+02111101161ADDAA106000091AG10999AY101061GF106991031041008001061001KA1240N+01971MA1999999096211MD1999999+0131MW1021REMSYN017333   20197 58013
0099832360999991984012715004-12150-045000FM-12+044099999V02099999999999999999N9999999N9+03041+02641999999ADDAG10999AY101031GF108991999081012501001001MD1210141+9999MW1021EQDQ01+000022SCOTLCQ02+101543APOSP 
0110832360999991984012718004-12150-045000FM-12+044099999V0202601N00361045001CN0500001N9+03351+01951100601ADDAA106000091AG10999AY101061GF105991041021008001041001MA1999999095721MD1999999+0031MW1021REMSYN011333   58003
0129832360999991984012800004-12150-045000FM-12+044099999V0201801N00101220001CN9999999N9+02341+02171100701ADDAA106000091AG10999AY101061GF100991001001999999001001KA1240M+03391MA1999999095781MD1999999-0021MW1021REMSYN017333   10339 59002
0110832360999991984012818004-12150-045000FM-12+044099999V0200901N00151220001CN0200001N9+03441+01841100511ADDAA106000091AG10999AY101061GF104991041021008001001001MA1999999095631MD1999999-0091MW1021REMSYN011333   59009
0129832360999991984012900004-12150-045000FM-12+044099999V0201801N00101220001CN9999999N9+02211+01761100761ADDAA106000091AG10999AY101061GF100991001001999999001001KA1240M+03471MA1999999095841MD1999999+0061MW1021REMSYN017333   10347 58006
0129832360999991984012912004-12150-045000FM-12+044099999V0209991C00001220001CN0500001N9+02521+01841100961ADDAA106000091AG10999AY101061GF102991001001999999001081KA1240N+01601MA1999999096021MD1999999-0031MW1021REMSYN017333   20160 59003
0135832360999991984013000004-12150-045000FM-12+044099999V0201401N00151220001CN9999999N9+02281+02111100731ADDAA106004091AG10999AY161061GF100991001001999999001001KA1240M+03471MA1999999095811MD1999999-0031MW1021REMSYN023333   10347 59003 60041
0135832360999991984013012004-12150-045000FM-12+044099999V0201801N00101220001CN0200001N9+02541+02021101131ADDAA124004091AG10999AY101061GF104991041021008001041001KA1240N+01781MA1999999096191MD1999999+0171MW1021REMSYN023333   20178 58017 60044
0110832360999991984013018004-12150-045000FM-12+044099999V0200901N00101105001CN0200001N9+03411+01771100671ADDAA106000091AG10999AY101061GF105991031031008001001021MA1999999095781MD1999999+0081MW1021REMSYN011333   58008
0129832360999991984013100004-12150-045000FM-12+044099999V0202301N00101220001CN9999999N9+02401+01911100811ADDAA106000091AG10999AY101061GF102991021021008001001001KA1240M+03481MA1999999095891MD1999999+0081MW1021REMSYN017333   10348 58008
0129832360999991984020100004-12150-045000FM-12+044099999V0202301N00101220001CN9999999N9+02341+01951100741ADDAA106000091AG10999AY101061GF102991021041008001001001KA1240M+03551MA1999999095811MD1999999-0081MW1021REMSYN017333   10355 59008
0129832360999991984020112004-12150-045000FM-12+044099999V0202301N00101220001CN0500001N9+02611+02061101091ADDAA106000091AG10999AY101061GF103991021001022501061041KA1240N+01761MA1999999096151MD1999999+0021MW1021REMSYN017333   20176 58002
0083832360999991984020115004-12150-045000FM-12+044099999V0209999999999220001CN0150001N9+03241+02041999999ADDAG10999AY101031GF103991021011008001001031MD1210141+9999MW1021EQDQ01+101543APOSP 
0110832360999991984020118004-12150-045000FM-12+044099999V0203201N00101007501CN0200001N9+03531+01741100591ADDAA106000091AG10999AY101061GF105991051031008001001001MA1999999095711MD1999999-0011MW1021REMSYN011333   59001
0129832360999991984020200004-12150-045000FM-12+044099999V0202301N00151220001CN9999999N9+02261+01791100671ADDAA106000091AG10999AY101061GF100991001001999999001001KA1240M+03541MA1999999095751MD1999999-0061MW1021REMSYN017333   10354 59006
0129832360999991984020212004-12150-045000FM-12+044099999V0200901N00261045001CN0200001N9+02671+01771101001ADDAA106000091AG10999AY101061GF105991031041008001061001KA1240N+01891MA1999999096071MD1999999-0081MW1021REMSYN017333   20189 59008
0110832360999991984020218004-12150-045000FM-12+044099999V0201801N00101012001CN0200001N9+03321+01681100571ADDAA106000091AG10999AY101061GF106991061081008001001001MA1999999095681MD1999999-0031MW1021REMSYN011333   59003
0129832360999991984020300004-12150-045000FM-12+044099999V0201801N00051220001CN9999999N9+02431+02031100681ADDAA106000091AG10999AY101061GF103991031031008001001001KA1240M+03471MA1999999095771MD1999999+0051MW1021REMSYN017333   10347 58005
0129832360999991984020312004-12150-045000FM-12+044099999V0201801N00101220001CN0500001N9+02661+01951100921ADDAA106000091AG10999AY101061GF102991001001999999001021KA1240N+01861MA1999999096001MD1999999-0071MW1021REMSYN017333   20186 59007
0110832360999991984020318004-12150-045000FM-12+044099999V0201401N00101105001CN0200001N9+03391+01831100501ADDAA106000091AG10999AY101061GF105991041041008001001021MA1999999095631MD1999999-0051MW1021REMSYN011333   59005
0115832360999991984020400004-12150-045000FM-12+044099999V0201801N00051220001CN9999999N9+02311+01961100581ADDAA106000091AG10999GF102991021051008001001001KA1240M+03521MA1999999095671MD1999999-0101REMSYN017333   10352 59010
0129832360999991984020412004-12150-045000FM-12+044099999V0200501N00361220001CN0500001N9+02821+01891100971ADDAA106000091AG10999AY101061GF101991011011008001001001KA1240N+01811MA1999999096051MD1999999+0051MW1021REMSYN017333   20181 58005
0110832360999991984020418004-12150-045000FM-12+044099999V0200501N00211105001CN0200001N9+03471+01781100541ADDAA106000091AG10999AY101061GF105991041021008001001021MA1999999095671MD1999999+0041MW1021REMSYN011333   58004
0129832360999991984020512004-12150-045000FM-12+044099999V0202701N00101007501CN0200001N9+02631+02031101071ADDAA106000091AG10999AY101061GF106991051021008001041021KA1240N+02051MA1999999096141MD1999999+0091MW1021REMSYN017333   20205 58009
0110832360999991984020518004-12150-045000FM-12+044099999V0202301N00151045001CN0200001N9+03421+01871100681ADDAA106000091AG10999AY101061GF105991041041008001031021MA1999999095811MD1999999+0141MW1021REMSYN011333   58014
0129832360999991984020600004-12150-045000FM-12+044099999V0201401N00051220001CN9999999N9+02341+02111100721ADDAA106000091AG10999AY101061GF102991021021008001001001KA1240M+03481MA1999999095811MD1999999+0101MW1021REMSYN017333   10348 58010
0129832360999991984020612004-12150-045000FM-12+044099999V0202001N00101220001CN0500001N9+02641+01951100981ADDAA106000091AG10999AY101061GF101991001001999999001011KA1240N+01481MA1999999096051MD1999999-0091MW1021REMSYN017333   20148 59009
0110832360999991984020618004-12150-045000FM-12+044099999V0203601N00151220001CN0500001N9+03531+01551100401ADDAA106000091AG10999AY101061GF104991031011008001001021MA1999999095531MD1999999-0281MW1021REMSYN011333   59028
0135832360999991984020700004-12150-045000FM-12+044099999V0200901N00311007501CN9999999N9+02401+02091100751ADDAA106002091AG10999AY161061GF108991081071008001999999KA1240M+03651MA1999999095841MD1999999+0031MW1611REMSYN023333   10365 58003 60021
0135832360999991984020712004-12150-045000FM-12+044099999V0203601N00151007501CN0200001N9+02471+02091100941ADDAA124021091AG10999AY161061GF106991051041008001061021KA1240N+02101MA1999999096011MD1999999-0041MW1031REMSYN023333   20210 59004 60214
0129832360999991984020800004-12150-045000FM-12+044099999V0202701N00051007501CN9999999N9+02381+02071100901ADDAA106000091AG10999AY101061GF108991071061008001021999KA1240M+03361MA1999999095971MD1999999+0131MW1131REMSYN017333   10336 58013
0154832360999991984020812004-12150-045000FM-12+044099999V0202701N00151012001CN0200001N9+02301+02111101271ADDAA124002091AG10999AY161061GF107991071081008001001001KA1240N+99999MA1999999096321MD1999999+0311MW1021REMSYN023333   20239 58031 60024EQDQ01 +02392ATMN  
0096832360999991984020815004-12150-045000FM-12+044099999V0200601N00361004201CN0150001N9+02741+02541999999ADDAA106000091AG10999AY101031GF107991999011004501001001MW1021EQDQ01+000062SCOTLCQ02+101543APOSP 
0116832360999991984020818004-12150-045000FM-12+044099999V0201801N00101007501CN0200001N9+03011+02141100851ADDAA106009091AG10999AY161061GF107991051071008001021001MA1999999095941MD1999999+0371MW1151REMSYN017333   58037 60091
0129832360999991984020900004-12150-045000FM-12+044099999V0209991C00001220001CN9999999N9+02361+02241100991ADDAA106000091AG10999AY101061GF104991041001022501061001KA1240M+03111MA1999999096051MD1999999+0081MW1021REMSYN017333   10311 58008
0121832360999991984020912004-12150-045000FM-12+044099999V0203601N00151220001CN0200001N9+02571+02171101201ADDAA124009091AG10999AY101061GF104991031021008001001021KA1240N+02051MA1999999096361MW1021REMSYN023333   20205 58906 60094
0129832360999991984021000004-12150-045000FM-12+044099999V0201801N00101220001CN9999999N9+02441+02131100801ADDAA106000091AG10999AY101061GF104991031001022501061021KA1240M+03411MA1999999095881MD1999999-0171MW1021REMSYN017333   10341 59017
0110832360999991984021018004-12150-045000FM-12+044099999V0202301N00211220001CN0500001N9+03451+01721100621ADDAA106000091AG10999AY101061GF104991041011008001001001MA1999999095741MD1999999-0141MW1021REMSYN011333   59014
0129832360999991984021100004-12150-045000FM-12+044099999V0202301N00151012001CN9999999N9+02501+02191100721ADDAA106000091AG10999AY101061GF108991081081008001001001KA1240M+03551MA1999999095811MD1999999-0071MW1021REMSYN017333   10355 59007
0135832360999991984021112004-12150-045000FM-12+044099999V0202301N00151007501CN0100001N9+02521+02151101161ADDAA124003091AG10999AY161061GF107991051041008001061021KA1240N+02061MA1999999096231MD1999999+0031MW1031REMSYN023333   20206 58003 60034
0110832360999991984021118004-12150-045000FM-12+044099999V0202701N00211007501CN0100001N9+03271+02271100571ADDAA106000091AG10999AY101061GF106991051061008001041021MA1999999095701MD1999999-0041MW1171REMSYN011333   59004
0135832360999991984021200004-12150-045000FM-12+044099999V0202701N00101007501CN9999999N9+02211+02151100941ADDAA106011091AG10999AY161061GF108991061071008001061999KA1240M+03291MA1999999096001MD1999999+0191MW1031REMSYN023333   10329 58019 60111
0135832360999991984021212004-12150-045000FM-12+044099999V0209991C00001012001CN0100001N9+02481+02151101081ADDAA124011091AG10999AY101061GF107991071081008001001001KA1240N+02511MA1999999096141MD1999999-0091MW1021REMSYN023333   20251 59009 60114
0110832360999991984021218004-12150-045000FM-12+044099999V0203601N00151105001CN0200001N9+03321+02001100541ADDAA106000091AG10999AY101061GF105991031021008001001021MA1999999095661MD1999999-0041MW1021REMSYN011333   59004
0148832360999991984021312004-12150-045000FM-12+044099999V0202701N00101220001CN0200001N9+02601+02141100971ADDAA106000091AG10999AY101061GF104991999021008001001001KA1240N+02051MA1999999096951MD1999999-0091MW1021REMSYN017333   20205 59009EQDQ01+000032SCOTLC
0084832360999991984021315004-12150-045000FM-12+044099999V0200401N00311007501CN0150001N9+02941+02641999999ADDAG10999AY101031GF105991051011008001001001MA1999999101442MW1021EQDQ01+101443APOSP 
0129832360999991984021412004-12150-045000FM-12+044099999V0200501N00311220001CN0500001N9+02741+01951101011ADDAA106000091AG10999AY101061GF104991001001999999001081KA1240N+01861MA1999999096101MD1999999+0051MW1021REMSYN017333   20186 58005
0110832360999991984021418004-12150-045000FM-12+044099999V0203601N00151220001CN0200001N9+03371+01771100591ADDAA106000091AG10999AY101061GF105991041021008001001041MA1999999095701MD1999999-0041MW1021REMSYN011333   59004
0129832360999991984021500004-12150-045000FM-12+044099999V0202701N00151220001CN9999999N9+02541+02061100611ADDAA106000091AG10999AY101061GF104991021031008001001041KA1240M+03461MA1999999095711MD1999999-0021MW1131REMSYN017333   10346 59002
0129832360999991984021512004-12150-045000FM-12+044099999V0200501N00211220001CN0200001N9+02661+02111101021ADDAA106000091AG10999AY101061GF105991021021008001001041KA1240N+01781MA1999999096101MD1410001+0001MW1021REMSYN017333   20178 58000
0110832360999991984021518004-12150-045000FM-12+044099999V0203601N00151220001CN0500001N9+03401+02041100541ADDAA106000091AG10999AY101061GF103991031031008001001001MA1999999095671MD1999999-0031MW1021REMSYN011333   59003
0135832360999991984021600004-12150-045000FM-12+044099999V0201801N00151007501CN9999999N9+02281+02141100651ADDAA106004091AG10999AY161061GF106991061061008001051001KA1240M+03481MA1999999095741MD1999999+0021MW1131REMSYN023333   10348 58002 60041
0135832360999991984021612004-12150-045000FM-12+044099999V0203601N00151045001CN0200001N9+02531+02171100931ADDAA124008091AG10999AY161061GF107991021011008001021001KA1240N+02171MA1999999095121MD1999999+0021MW1021REMSYN023333   20217 58002 60084
0083832360999991984021615004-12150-045000FM-12+044099999V0200601N00511045001CN0150001N9+02941+02541999999ADDAG10999AY101031GF107991041011008001031001MD1210141+9999MW1021EQDQ01+101543APOSP 
0110832360999991984021618004-12150-045000FM-12+044099999V0203601N00151105001CN0200001N9+03091+01981100681ADDAA106000091AG10999AY101061GF106991031031008001001031MA1999999095791MD1999999+0121MW1021REMSYN011333   58012
0129832360999991984021700004-12150-045000FM-12+044099999V0201801N00101220001CN9999999N9+02381+02191100731ADDAA106000091AG10999AY101061GF103991031001008001061001KA1240M+03271MA1999999095811MD1999999+0071MW1021REMSYN017333   10327 58007
0129832360999991984021712004-12150-045000FM-12+044099999V0201801N00101045001CN0200001N9+02521+02231101011ADDAA106000091AG10999AY101061GF105991031021008001041021KA1240N+02021MA1999999096081MD1999999-0041MW1021REMSYN017333   20202 59004
0110832360999991984021718004-12150-045000FM-12+044099999V0203601N00211220001CN0200001N9+03501+02161100491ADDAA106000091AG10999AY101061GF104991031041008001001021MA1999999095621MD1999999-0171MW1021REMSYN011333   59017
0129832360999991984021800004-12150-045000FM-12+044099999V0202701N00051045001CN9999999N9+02691+02131100721ADDAA106000091AG10999AY101061GF105991041031008001051021KA1240M+03561MA1999999095821MD1999999+0011MW1021REMSYN017333   10356 58001
0129832360999991984021812004-12150-045000FM-12+044099999V0200901N00101220001CN0500001N9+02751+02171100831ADDAA106000091AG10999AY101061GF103991021001022501061021KA1240N+02111MA1999999095941MD1999999-0141MW1021REMSYN017333   20211 59014
0069832360999991984021815004-12150-045000FM-12+044099999V0200801N00311220001CN0150001N9+02941+02641999999ADDAG10999AY101031GF103991021011008001031001MW1021EQDQ01+101443APOSP 
0110832360999991984021818004-12150-045000FM-12+044099999V0203601N00101220001CN0500001N9+03441+01921100431ADDAA106000091AG10999AY101061GF104991031011008001001041MA1999999095571MD1999999-0051MW1021REMSYN011333   59005
0129832360999991984021900004-12150-045000FM-12+044099999V0203601N00101220001CN9999999N9+02661+02041100511ADDAA106000091AG10999AY101061GF103991001001999999001041KA1240M+03631MA1999999095631MD1999999-0191MW1021REMSYN017333   10363 59019
0135832360999991984021912004-12150-045000FM-12+044099999V0200501N00151220001CN0200001N9+02661+02091101021ADDAA124031091AG10999AY161061GF104991031021008001041021KA1240N+02041MA1999999096111MD1999999+0171MW1021REMSYN023333   20204 58017 60314
0110832360999991984021918004-12150-045000FM-12+044099999V0203201N00101045001CN0200001N9+03281+02291100621ADDAA106000091AG10999AY101061GF105991031031008001051021MA1999999095741MD1999999+0171MW1021REMSYN011333   58017
0129832360999991984022012004-12150-045000FM-12+044099999V0201401N00211220001CN0100001N9+02661+02071101101ADDAA106000091AG10999AY101061GF105991031011008001001041KA1240N+02011MA1999999096191MD1999999+0081MW1021REMSYN017333   20201 58008
0116832360999991984022018004-12150-045000FM-12+044099999V0202301N00151105001CN0100001N9+02321+02051100851ADDAA106006091AG10999AY191061GF106991041091008001001031MA1999999095911MD1999999+0171MW1021REMSYN017333   58017 60061
0129832360999991984022100004-12150-045000FM-12+044099999V0202301N00101220001CN9999999N9+02261+02211100801ADDAA106000091AG10999AY101061GF103991031031008001001001KA1240M+03181MA1999999095881MD1999999+0131MW1131REMSYN017333   10318 58013
0135832360999991984022112004-12150-045000FM-12+044099999V0209991C00001220001CN0500001N9+02511+02231101101ADDAA124006091AG10999AY101061GF103991011021012501001011KA1240N+01981MA1999999096161MD1999999-0031MW1021REMSYN023333   20198 59003 60064
0083832360999991984022115004-12150-045000FM-12+044099999V0200501N00511045001CN0150001N9+03041+02641999999ADDAG10999AY101031GF106991041011008001031011MD1210041+9999MW1021EQDQ01+101543APOSP 
0110832360999991984022118004-12150-045000FM-12+044099999V0200901N00101105001CN0200001N9+03391+02221100611ADDAA106000091AG10999AY101061GF105991041041008001001021MA1999999095741MD1999999-0171MW1021REMSYN011333   59017
0129832360999991984022200004-12150-045000FM-12+044099999V0202301N00101220001CN9999999N9+02441+02251100721ADDAA106000091AG10999AY101061GF103991031051008001001001KA1240M+03471MA1999999095801MD1999999-0081MW1131REMSYN017333   10347 59008
0065832360999991984022215004-12150-045000FM-12+044099999V0200901N00511220001CN0150001N9+03041+02641999999ADDAG10999AY101031GF103991031001999999031001MA1999999101541MW1021
0129832360999991984022218004-12150-045000FM-12+044099999V0203601N00311220001CN0200001N9+03431+01651100641ADDAA106000091AG10999AY101061GF106991031021008001001041MA1999999095772MD1999999+0031MW1021REMSYN011333   58003EQDQ01+095773APOSP 
0129832360999991984022300004-12150-045000FM-12+044099999V0201401N00311220001CN9999999N9+02751+01811100811ADDAA106000091AG10999AY101061GF103991031061008001001001KA1240M+03571MA1999999095921MD1999999+0121MW1021REMSYN017333   10357 58012
0129832360999991984022312004-12150-045000FM-12+044099999V0203601N00151045001CN0200001N9+02721+02151101021ADDAA106000091AG10999AY101061GF105991041041008001051021KA1240N+02241MA1999999096121MD1999999-0021MW1021REMSYN017333   20224 59002
0069832360999991984022315004-12150-045000FM-12+044099999V0200601N00511220001CN0150001N9+03241+02741999999ADDAG10999AY101031GF104991041021008001001001MW1021EQDQ01+101543APOSP 
0110832360999991984022318004-12150-045000FM-12+044099999V0203601N00211220001CN0500001N9+03401+01851100571ADDAA106000091AG10999AY101061GF103991021021008001001011MA1999999095701MD1999999-0071MW1021REMSYN011333   59007
0135832360999991984022400004-12150-045000FM-12+044099999V0203601N00101007501CN9999999N9+02451+01971100691ADDAA106000191AG10999AY191061GF108991071061008001021999KA1240M+03521MA1999999095791MD1999999-0131MW1171REMSYN023333   10352 59013 69911
0146832360999991984022412004-12150-045000FM-12+044099999V0200501N00361220001CN0200001N9+02581+02121101101ADDAA124000691AA299000591AG10999AY101061GF105991011011008001031091KA1240N+02051MA1999999096171MD1999999+0051MW1021REMSYN023333   20205 58005 69964
0129832360999991984022500004-12150-045000FM-12+044099999V0202701N00051021001CN9999999N9+02331+02131100791ADDAA106000091AG10999AY101061GF105991051001022501071001KA1240M+03191MA1999999095871MD1999999+0081MW1021REMSYN017333   10319 58008
0135832360999991984022512004-12150-045000FM-12+0440SBRR V0202701N00101012001CN0100001N9+02281+02161101021ADDAA124004091AG10999AY161061GF108991061081008001041999KA1240N+02021MA1999999096071MD1999999-0101MW1031REMSYN023333   20202 59010 60044
0110832360999991984022518004-12150-045000FM-12+0440SBRR V0202301N00151045001CN0200001N9+03231+02141100471ADDAA106000091AG10999AY101061GF106991041041008001061021MA1999999095591MD1999999-0131MW1021REMSYN011333   59013
0129832360999991984022600004-12150-045000FM-12+0440SBRR V0201801N00151007501CN9999999N9+02431+02071100721ADDAA106000091AG10999AY101061GF108991071061008001021999KA1240M+03361MA1999999095791MD1999999-0081MW1131REMSYN017333   10336 59008
0129832360999991984022612004-12150-045000FM-12+0440SBRR V0203601N00101220001CN0500001N9+02741+02141100911ADDAA106000091AG10999AY101061GF104991011011008001001041KA1240N+02051MA1999999096001MD1999999-0071MW1021REMSYN017333   20205 59007
0110832360999991984022618004-12150-045000FM-12+0440SBRR V0200901N00151220001CN0500001N9+03341+01951100581ADDAA106000091AG10999AY101061GF104991031011008001001021MA1999999095711MD1999999+0121MW1021REMSYN011333   58012
0129832360999991984022700004-12150-045000FM-12+0440SBRR V0201801N00151220001CN0500001N9+02161+01901100721ADDAA106000091AG10999AY101061GF100991001001999999001001KA1240M+03451MA1999999095801MD1999999+0011MW1021REMSYN017333   10345 58001
0129832360999991984022712004-12150-045000FM-12+0440SBRR V0201801N00101220001CN0500001N9+02441+01711101001ADDAA106000091AG10999AY101061GF103991001001999999001041KA1240N+01601MA1999999096151MD1999999+0151MW1021REMSYN017333   20160 58015
0110832360999991984022718004-12150-045000FM-12+0440SBRR V0203601N00151105001CN0200001N9+03411+01811100601ADDAA106000091AG10999AY101061GF105991041041008001001021MA1999999095711MD1410001+0001MW1021REMSYN011333   58000
0129832360999991984022800004-12150-045000FM-12+0440SBRR V0202301N00101220001CN9999999N9+02401+01971100771ADDAA106000091AG10999AY101061GF102991021021008001001001KA1240M+03571MA1999999095851MD1999999+0051MW1021REMSYN017333   10357 58005
0129832360999991984022812004-12150-045000FM-12+0440SBRR V0200501N00151220001CN0500001N9+02661+01791101271ADDAA106000091AG10999AY101061GF102991021001008001081001KA1240N+01781MA1999999096341MD1999999+0191MW1021REMSYN017333   20178 58019
0069832360999991984022815004-12150-045000FM-12+0440SBRR V0200601N00511220001CN0150001N9+03141+02641999999ADDAG10999AY101031GF102991021011008001001001MW1021EQDQ01+101643APOSP 
0110832360999991984022818004-12150-045000FM-12+0440SBRR V0202701N00051007501CN0200001N9+03471+01731100781ADDAA106000091AG10999AY101061GF105991051021008001001001MA1999999095891MD1999999+0181MW1021REMSYN011333   58018
0129832360999991984022900004-12150-045000FM-12+0440SBRR V0202701N00151007501CN9999999N9+02601+02121100831ADDAA106000091AG10999AY101061GF105991051071008001001001KA1240M+03631MA1999999095931MD1999999+0081MW1131REMSYN017333   10363 58008
0129832360999991984022910004-12150-045000FM-12+0440SBRR V0201801N00101220001CN0500001N9+02771+01971101001ADDAA106000091AG10999AY101999GF101991001001999999001011KA1240N+01921MA1999999096191MD1999999-0151MW1021REMSYN017333   20192 59015
0129832360999991984022912004-12150-045000FM-12+0440SBRR V0201801N00101220001CN0500001N9+02771+01971101001ADDAA106000091AG10999AY101061GF101991001001999999001011KA1240N+01921MA1999999096191MD1999999-0151MW1021REMSYN017333   20192 59015
0110832360999991984022918004-12150-045000FM-12+0440SBRR V0203201N00311105001CN0200001N9+03021+02101100611ADDAA106000091AG10999AY101061GF105991041041008001001021MA1999999095721MD1999999-0171MW1021REMSYN011333   59017
0129832360999991984030100004-12150-045000FM-12+0440SBRR V0201801N00051007501CN9999999N9+02591+02011100771ADDAA106000091AG10999AY101061GF108991071061008001021999KA1240M+03471MA1999999095881MD1999999-0051MW1131REMSYN017333   10347 59005
0129832360999991984030112004-12150-045000FM-12+0440SBRR V0200901N00051105001CN0200001N9+02661+02141101071ADDAA106000091AG10999AY101061GF105991011011008001041011KA1240N+02131MA1999999096151MD1999999-0041MW1021REMSYN017333   20213 59004
0103832360999991984030118004-12150-045000FM-12+0440SBRR V0203601N00101105001CN0200001N9+03491+01831100571ADDAG10999AY101061GF105991021011008001041011MD1999999-0071MW1021REMSYN011333   59007EQDQ01+098653APOSP 
0129832360999991984030200004-12150-045000FM-12+0440SBRR V0209991C00001220001CN9999999N9+02481+02291100641ADDAA106000091AG10999AY101061GF103991021031008001061001KA1240M+03491MA1999999095741MD1999999-0141MW1131REMSYN017333   10349 59014
0129832360999991984030212004-12150-045000FM-12+0440SBRR V0203201N00101045001CN0200001N9+02481+02131101181ADDAA106000091AG10999AY101061GF106991041021008001061021KA1240N+02081MA1999999096251MD1999999+0101MW1021REMSYN017333   20208 58010
0083832360999991984030215004-12150-045000FM-12+0440SBRR V0200801N00511220001CN0150001N9+03041+02641999999ADDAG10999AY101031GF106991041011008001001011MD1210141+9999MW1021EQDQ01+101643APOSP 
0110832360999991984030218004-12150-045000FM-12+0440SBRR V0200501N00261220001CN0200001N9+03501+02131100691ADDAA106000091AG10999AY101061GF104991031031008001001021MA1999999095821MD1999999+0171MW1021REMSYN011333   58017
0135832360999991984030300004-12150-045000FM-12+0440SBRR V0209991C00001220001CN9999999N9+02381+02281100861ADDAA106002091AG10999AY161061GF102991021051008001001001KA1240M+03571MA1999999095941MD1999999+0201MW1131REMSYN023333   10357 58020 60021
0135832360999991984030312004-12150-045000FM-12+0440SBRR V0203601N00101220001CN0500001N9+02681+02111101171ADDAA124002091AG10999AY101061GF104991011011008001001041KA1240N+02041MA1999999096241MD1999999-0011MW1021REMSYN023333   20204 59001 60024
0110832360999991984030318004-12150-045000FM-12+0440SBRR V0203601N00101007501CN0200001N9+03521+01791100721ADDAA106000091AG10999AY101061GF105991051021008001001001MA1999999095851MD1999999+0031MW1021REMSYN011333   58003
0129832360999991984030400004-12150-045000FM-12+0440SBRR V0201801N00051220001CN9999999N9+02431+02171100771ADDAA106000091AG10999AY101061GF103991031031008001001001KA1240M+03611MA1999999095861MD1999999-0091MW1131REMSYN017333   10361 59009
0135832360999991984030412004-12150-045000FM-12+0440SBRR V0200501N00151007501CN0100001N9+02301+02181101271ADDAA124012091AG10999AY161061GF108991071071008001021999KA1240N+02091MA1999999096321MD1999999+0081MW1031REMSYN023333   20209 58008 60124
0110832360999991984030418004-12150-045000FM-12+0440SBRR V0203601N00261220001CN0200001N9+03211+02331100701ADDAA106000091AG10999AY101061GF105991041041008001001011MA1999999095811MD1999999-0041MW1021REMSYN011333   59004
0135832360999991984030500004-12150-045000FM-12+0440SBRR V0202301N00151220001CN9999999N9+02101+02021100961ADDAA106002091AG10999AY161061GF103991031041008001001001KA1240M+03271MA1999999096011MD1999999+0151MW1031REMSYN023333   10327 58015 60021
0135832360999991984030512004-12150-045000FM-12+0440SBRR V0200901N00051045001CN0100001N9+02521+02191101161ADDAA124002091AG10999AY101061GF106991031041008001021011KA1240N+01951MA1999999096211MD1999999-0111MW1021REMSYN023333   20195 59011 60024
0110832360999991984030518004-12150-045000FM-12+0440SBRR V0202301N00101007501CN0200001N9+03271+02271100661ADDAA106000091AG10999AY101061GF105991051051008001021001MA1999999095771MD1999999-0041MW1171REMSYN011333   59004
0129832360999991984030600004-12150-045000FM-12+0440SBRR V0201801N00101220001CN9999999N9+02191+02101100741ADDAA106000091AG10999AY101061GF103991031021008001001001KA1240M+03381MA1999999095811MD1999999-0201MW1021REMSYN017333   10338 59020
0135832360999991984030612004-12150-045000FM-12+0440SBRR V0202301N00151007501CN0100001N9+02191+02031101231ADDAA124006091AG10999AY161061GF107991051061008001041021KA1240N+02041MA1999999096261MD1999999+0051MW1171REMSYN023333   20204 58005 60064
0110832360999991984030618004-12150-045000FM-12+0440SBRR V0202701N00101220001CN0200001N9+03241+02021100631ADDAA106000091AG10999AY101061GF104991031021008001041011MA1999999095741MD1999999-0031MW1021REMSYN011333   59003
0129832360999991984030700004-12150-045000FM-12+0440SBRR V0202301N00151220001CN9999999N9+02431+02301100831ADDAA106000091AG10999AY101061GF103991031051008001001001KA1240M+03311MA1999999095891MD1999999+0081MW1131REMSYN017333   10331 58008
0129832360999991984030712004-12150-045000FM-12+0440SBRR V0202301N00051045001CN0100001N9+02531+02191101161ADDAA106000091AG10999AY101061GF106991031041008001061051KA1240N+01991MA1999999096231MD1999999-0031MW1021REMSYN017333   20199 59003
0083832360999991984030715004-12150-045000FM-12+0440SBRR V0200401N00511045001CN0150001N9+02941+02641999999ADDAG10999AY101031GF106991041011008001031011MD1210141+9999MW1021EQDQ01+101543APOSP 
0099832360999991984030718004-12150-045000FM-12+0440SBRR V0203601N00101007501CN0100001N9+03311+02061100711ADDAG10999AY191061GF108991051001008001021999MA1999999095821MD1999999+0081MW1151REMSYN011333   58008
0129832360999991984030800004-12150-045000FM-12+0440SBRR V0209991C00001012001CN9999999N9+02301+02131100861ADDAA106000091AG10999AY101061GF105991051081008001001001KA1240M+03311MA1999999095931MD1999999+0041MW1021REMSYN017333   10331 58004
0129832360999991984030812004-12150-045000FM-12+0440SBRR V0201401N00101007501CN0200001N9+02541+02131101131ADDAA106000091AG10999AY101061GF106991051021008001041021KA1240N+02191MA1999999096191MD1999999-0041MW1021REMSYN017333   20219 59004
0129832360999991984030813004-12150-045000FM-12+0440SBRR V0201401N00101007501CN0200001N9+02541+02131101131ADDAA106000091AG10999AY101011GF106991051021008001041021KA1240N+02191MA1999999096191MD1999999-0041MW1021REMSYN017333   20219 59004
0069832360999991984030815004-12150-045000FM-12+0440SBRR V0200701N00261045001CN0150001N9+02941+02541999999ADDAG10999AY101031GF106991031011008001031001MW1021EQDQ01+101543APOSP 
0110832360999991984030818004-12150-045000FM-12+0440SBRR V0200501N00411007501CN0100001N9+02671+02181100791ADDAA106000091AG10999AY101061GF108991071061008001041999MA1999999095861MD1999999+0041MW1171REMSYN011333   58004
0129832360999991984030900004-12150-045000FM-12+0440SBRR V0209991C00001045001CN9999999N9+02181+02061101191ADDAA106000091AG10999AY101061GF105991041041008001061021KA1240M+03211MA1999999096001MD1999999+0071MW1021REMSYN017333   10321 58007
0129832360999991984030912004-12150-045000FM-12+0440SBRR V0203001N00151220001CN0200001N9+02341+02131101051ADDAA106000091AG10999AY141061GF104991011011000751001081KA1240N+01921MA1999999096101MD1999999-0091MW1021REMSYN017333   20192 59009
0110832360999991984030918004-12150-045000FM-12+0440SBRR V0200901N00261045001CN0100001N9+02821+02101100581ADDAA106000091AG10999AY191061GF107991041031008001021011MA1999999095671MD1999999-0191MW1291REMSYN011333   59019
0129832360999991984031000004-12150-045000FM-12+0440SBRR V0209991C00001220001CN9999999N9+02271+02141100871ADDAA106000091AG10999AY101061GF104991021041008001011001KA1240M+03331MA1999999095941MD1999999-0061MW1021REMSYN017333   10333 59006
0148832360999991984031012004-12150-045000FM-12+0440SBRR V0203201N00101045001CN0200001N9+02481+02191101061ADDAA106000091AG10999AY101061GF105991041021012501041021KA1240N+99999MA1999999096121MD1999999-0031MW1021REMSYN017333   20258 59003EQDQ01 +02582ATMN  
0116832360999991984031018004-12150-045000FM-12+0440SBRR V0203201N00151007501CN0100001N9+02821+02311100611ADDAA106004091AG10999AY161061GF107991061061008001041021MA1999999095701MD1999999+0031MW1171REMSYN017333   58003 60041
0129832360999991984031100004-12150-045000FM-12+0440SBRR V0209991C00001007501CN9999999N9+02481+02251100871ADDAA106000091AG10999AY101061GF106991051051008001061021KA1240M+03261MA1999999095951MD1999999+0011MW1131REMSYN017333   10326 58001
0135832360999991984031112004-12150-045000FM-12+0440SBRR V0203201N00151220001CN0500001N9+02531+02111101091ADDAA124004091AG10999AY101061GF104991011011008001001041KA1240N+02021MA1999999096161MD1999999+0041MW1021REMSYN023333   20202 58004 60044
0129832360999991984031200004-12150-045000FM-12+0440SBRR V0200901N00101220001CN9999999N9+02461+02191100791ADDAA106000091AG10999AY101061GF104991031031008001041001KA1240M+03381MA1999999095871MD1999999-0081MW1131REMSYN017333   10338 59008
0129832360999991984031212004-12150-045000FM-12+0440SBRR V0201801N00101007501CN0200001N9+02571+02251101061ADDAA106000091AG10999AY101061GF107991061021008001071021KA1240N+02101MA1999999096131MD1999999-0031MW1021REMSYN017333   20210 59003
0083832360999991984031215004-12150-045000FM-12+0440SBRR V0200901N00511045001CN0150001N9+02841+02641999999ADDAG10999AY101031GF106991011051008001031011MD1210141+9999MW1021EQDQ01+101443APOSP 
0110832360999991984031218004-12150-045000FM-12+0440SBRR V0203201N00261007501CN0100001N9+02611+02191100851ADDAA106000091AG10999AY101061GF108991061061008001021999MA1999999095921MD1999999+0281MW1171REMSYN011333   58028
0129832360999991984031300004-12150-045000FM-12+0440SBRR V0202701N00101045001CN9999999N9+02221+02171101021ADDAA106000091AG10999AY101061GF105991041021008001061021KA1240M+03211MA1999999096081MD1999999+0211MW1021REMSYN017333   10321 58021
0165832360999991984031312004-12150-045000FM-12+0440SBRR V0202701N00101220001CN0200001N9+02521+02211101071ADDAA124000691AA299000591AG10999AY141061GF104991031021008001001041KA1240M+99999MA1999999096131MD1410001+0001MW1021REMSYN023333   10197 58000 69964EQDQ01 +01972ATMX  
0110832360999991984031318004-12150-045000FM-12+0440SBRR V0201401N00151045001CN0100001N9+03221+02081100501ADDAA106000091AG10999AY101061GF106991041071008001021011MA1999999095621MD1999999-0301MW1151REMSYN011333   59030
0135832360999991984031400004-12150-045000FM-12+0440SBRR V0202701N00051045001CN9999999N9+02301+02181101011ADDAA106011091AG10999AY161061GF105991031081008001041001KA1240M+03381MA1999999096071MD1999999-0011MW1021REMSYN023333   10338 59001 60111
0135832360999991984031412004-12150-045000FM-12+0440SBRR V0200501N00311009001CN0040001N9+02221+02171101251ADDAA124014091AG10999AY161061GF108991081081004501999999KA1240N+02111MA1999999096291MD1999999+0161MW1101REMSYN023333   20211 58016 60144
0100832360999991984031415004-12150-045000FM-12+0440SBRR V0200901N00311045001CN0150001N9+02541+02341999999ADDAG10999AY101031GF108991031051004501031999MA1999999999999MW1021EQDQ01+101643APOSP Q02 101643APOSP 
0129832360999991984031500004-12150-045000FM-12+0440SBRR V0209991C000019999999N9999999N9+02281+02231101001ADDAA106000091AG10999AY101061GF107991061001008001061041KA1240M+02521MA1999999096051MD1999999-0021MW1021REMSYN017333   10252 59002
0135832360999991984031512004-12150-045000FM-12+0440SBRR V0201801N00051004201CN0040001N9+02301+02251101141ADDAA124014091AG10999AY161061GF108991081051004501999999KA1240N+02051MA1999999096191MD1999999-0101MW1401REMSYN023333   20205 59010 60144
0135832360999991984031518004-12150-045000FM-12+0440SBRR V0202701N00101220001CN0200001N9+02761+00282100681ADDAA106095091AG10999AY151061GF104991021021008001061041MA1999999095761MD1999999-0261MW1021REMSYN017333   59026 60951EQDQ01+027603ATOD  
0110832360999991984031618004-12150-045000FM-12+0440SBRR V0201401N00101220001CN0200001N9+03041+02181100601ADDAA106000091AG10999AY101061GF104991041021008001001001MA1999999095711MD1999999-0051MW1021REMSYN011333   59005
0129832360999991984031700004-12150-045000FM-12+0440SBRR V0201401N00101220001CN9999999N9+02281+02161100831ADDAA106000091AG10999AY101061GF102991021021008001001001KA1240M+03131MA1999999095961MD1999999-0191MW1021REMSYN017333   10313 59019
0135832360999991984031712004-12150-045000FM-12+0440SBRR V0202301N00101220001CN0200001N9+02551+02151101111ADDAA124000191AG10999AY151061GF104991031011008001041001KA1240N+02121MA1999999096171MD1999999-0051MW1021REMSYN023333   20212 59005 69914
0083832360999991984031715004-12150-045000FM-12+0440SBRR V0200801N00411045001CN0150001N9+02841+02541999999ADDAG10999AY101031GF106991011051008001031011MD1210241+9999MW1021EQDQ01+101643APOSP 
0110832360999991984031718004-12150-045000FM-12+0440SBRR V0203601N00101007501CN0200001N9+03081+02211100681ADDAA106000091AG10999AY111061GF105991051071008001001001MA1999999095791MD1999999+0081MW1001REMSYN011333   58008
0146832360999991984031812004-12150-045000FM-12+0440SBRR V0209991C00001045001CN0200001N9+99999+99999101061ADDAA124000891AA299001091AG10999AY101061GF105991041021008001061011KA1240N+01071MA1999999096111MD1999999-0061MW1021REMSYN023333   20107 59006 69984
0110832360999991984031818004-12150-045000FM-12+0440SBRR V0200501N00311007501CN0100001N9+03131+02301100521ADDAA106000091AG10999AY101061GF106991051041008001021011MA1999999095681MD1999999-0111MW1021REMSYN011333   59011
0135832360999991984031900004-12150-045000FM-12+0440SBRR V0203601N00101007501CN9999999N9+02401+02231100841ADDAA106000191AG10999AY151061GF107991051051008001061001KA1240M+03211MA1999999095911MD1999999+0021MW1131REMSYN023333   10321 58002 69911
0135832360999991984031912004-12150-045000FM-12+0440SBRR V0201801N00101220001CN0500001N9+02541+02231101061ADDAA124000191AG10999AY101061GF103991021011008001041001KA1240N+02041MA1999999096131MD1999999+0021MW1021REMSYN023333   20204 58002 69914
0110832360999991984031918004-12150-045000FM-12+0440SBRR V0200501N00151105001CN0200001N9+03151+02131100561ADDAA106000091AG10999AY101061GF105991041021008001001021MA1999999095671MD1999999-0011MW1021REMSYN011333   59001
0129832360999991984032000004-12150-045000FM-12+0440SBRR V0202301N00101007501CN9999999N9+02381+02281100861ADDAA106000091AG10999AY101061GF108991081071008001999999KA1240M+03331MA1999999095931MD1999999+0021MW1291REMSYN017333   10333 58002
0135832360999991984032012004-12150-045000FM-12+0440SBRR V0209991C00001007501CN0100001N9+02501+02271101051ADDAA124010091AG10999AY161061GF107991071041008001051001KA1240N+02081MA1999999096121MD1999999-0011MW1031REMSYN023333   20208 59001 60104
0110832360999991984032018004-12150-045000FM-12+0440SBRR V0200501N00261220001CN0200001N9+03161+02321100571ADDAA106000091AG10999AY101061GF104991041051008001041001MA1999999095681MD1999999+0011MW1021REMSYN011333   58001
0135832360999991984032100004-12150-045000FM-12+0440SBRR V0203601N00361007501CN9999999N9+02401+02091100911ADDAA106001091AG10999AY151061GF108991071061008001041999KA1240M+03191MA1999999095981MD1999999+0051MW1951REMSYN023333   10319 58005 60011
0146832360999991984032212004-12150-045000FM-12+0440SBRR V0200501N00101007501CN0100001N9+02531+02311101151ADDAA124000891AA299001091AG10999AY101061GF107991071071008001041001KA1240N+01991MA1999999096211MD1999999+0041MW1021REMSYN023333   20199 58004 69984
0083832360999991984032215004-12150-045000FM-12+0440SBRR V0200701N00511007501CN0150001N9+02841+02741999999ADDAG10999AY101031GF105991051011008001001001MD1210141+9999MW1021EQDQ01+101643APOSP 
0110832360999991984032218004-12150-045000FM-12+0440SBRR V0203201N00151007501CN0200001N9+03221+02291100671ADDAA106000091AG10999AY101061GF106991051041008001061021MA1999999095781MD1999999+0041MW1021REMSYN011333   58004
0129832360999991984032300004-12150-045000FM-12+0440SBRR V0202301N00151220001CN9999999N9+02491+02321100911ADDAA106000091AG10999AY101061GF103991031021008001001001KA1240M+03331MA1999999095991MD1999999+0121MW1021REMSYN017333   10333 58012
0076832360999991984032312004-12150-045000FM-12+0440SBRR V0209991C00001021001CN0200001N9+02581+02271101051ADDAA106000091AG10999AY101061GF107991071001022501071001MA1999999096131MW1021
0110832360999991984032318004-12150-045000FM-12+0440SBRR V0201401N00101045001CN0100001N9+02921+02521100701ADDAA106000091AG10999AY101061GF108991031051008001021001MA1999999095791MD1999999+0011MW1021REMSYN011333   58001
0129832360999991984032400004-12150-045000FM-12+0440SBRR V0201801N00101220001CN9999999N9+02321+02181100851ADDAA106000091AG10999AY101061GF104991041001022501071001KA1240M+03191MA1999999095931MD1999999-0031MW1021REMSYN017333   10319 59003
0129832360999991984032412004-12150-045000FM-12+0440SBRR V0202301N00051007501CN0200001N9+02501+02211101071ADDAA106000091AG10999AY101061GF106991051021008001061021KA1240N+02091MA1999999096131MD1410001+0001MW1021REMSYN017333   20209 58000
0127832360999991984032418004-12150-045000FM-12+0440SBRR V0201401N00311007501CN0100001N9+02681+02201100621ADDAA106000291AA299000391AG10999AY191061GF108991071061008001041999MA1999999095701MD1999999-0091MW1171REMSYN017333   59009 69921
0146832360999991984032500004-12150-045000FM-12+0440SBRR V0202301N00101220001CN9999999N9+02271+02211100781ADDAA106000291AA299000391AG10999AY151061GF102991021051008001001001KA1240M+03171MA1999999095851MD1999999-0081MW1131REMSYN023333   10317 59008 69921
0146832360999991984032512004-12150-045000FM-12+0440SBRR V0201301N03081012001CN0100001N9+02561+02231101091ADDAA124000491AA299000591AG10999AY101061GF107991071081008001001001KA1240N+02021MA1999999096151MD1999999+0011MW1021REMSYN023333   20202 58001 69944
0110832360999991984032518004-12150-045000FM-12+0440SBRR V0200501N00361045001CN0200001N9+02991+02151100751ADDAA106000091AG10999AY101061GF106991031031008001041031MA1999999095751MD1999999+0051MW1021REMSYN011333   58005
0135832360999991984032600004-12150-045000FM-12+0440SBRR V0209991C00001045001CN9999999N9+02281+02231101071ADDAA106009091AG10999AY161061GF107991041051004501021001KA1240M+03131MA1999999096131MD1999999+0281MW1021REMSYN023333   10313 58028 60091
0135832360999991984032612004-12150-045000FM-12+0440SBRR V0202301N00101009001CN0040001N9+02201+02151101251ADDAA124017091AG10999AY161061GF108991081081004501999999KA1240N+02071MA1999999096291MD1999999+0141MW1501REMSYN023333   20207 58014 60174
0127832360999991984032618004-12150-045000FM-12+0440SBRR V0200501N00261045001CN0200001N9+02871+02481100771ADDAA106000491AA299000591AG10999AY101061GF106991031041008001051071MA1999999095851MD1999999+0101MW1021REMSYN017333   58010 69941
0129832360999991984032700004-12150-045000FM-12+0440SBRR V0201801N00101007501CN9999999N9+02371+02221100881ADDAA106000091AG10999AY101061GF107991071051008001061001KA1240M+02951MA1999999095941MD1999999-0191MW1021REMSYN017333   10295 59019
0079832360999991984032715004-12150-045000FM-12+0440SBRR V0200501N00311045001CN0150001N9+03241+02241999999ADDAG10999AY101031GF108991021051008001031011MA1999999101541MD1210241+9999MW1021
0146832360999991984032718004-12150-045000FM-12+0440SBRR V0202301N00151045001CN0100001N9+02661+02181100871ADDAA106000291AA299000391AG10999AY161061GF107991011011008001071001MA1999999095952MD1999999+0101MW1021REMSYN017333   58010 69921EQDQ01+095953APOSP 
0129832360999991984032800004-12150-045000FM-12+0440SBRR V0202701N00151220001CN9999999N9+02311+02181100921ADDAA106000091AG10999AY101061GF102991021001022501011001KA1240M+02851MA1999999095961MD1999999+0021MW1021REMSYN017333   10285 58002
0135832360999991984032912004-12150-045000FM-12+0440SBRR V0209991C00001045001CN0040001N9+02381+02281101221ADDAA124016091AG10999AY191061GF108991041051004501021999KA1240N+02111MA1999999096271MD1999999+0111MW1021REMSYN023333   20211 58011 60164
0069832360999991984032915004-12150-045000FM-12+0440SBRR V0200401N00361007501CN0150001N9+02841+02541999999ADDAG10999AY101031GF105991051011008001001001MW1021EQDQ01+101543APOSP 
0110832360999991984032918004-12150-045000FM-12+0440SBRR V0200501N00151220001CN0200001N9+02901+02201100751ADDAA106000091AG10999AY101061GF104991031011008001041001MA1999999095841MD1999999+0051MW1021REMSYN011333   58005
0129832360999991984033000004-12150-045000FM-12+0440SBRR V0202301N00101220001CN9999999N9+02261+02211100951ADDAA106000091AG10999AY101061GF102991021041008001001001KA1240M+03171MA1999999096011MD1999999+0031MW1021REMSYN017333   10317 58003
0146832360999991984033012004-12150-045000FM-12+0440SBRR V0200501N00361004201CN0040001N9+02221+02171101381ADDAA124000291AA299000391AG10999AY151061GF108991081071004501999999KA1240N+02061MA1999999096411MD1999999+0141MW1161REMSYN023333   20206 58014 69924
0127832360999991984033018004-12150-045000FM-12+0440SBRR V0200501N00261045001CN0200001N9+02781+02361100751ADDAA106000791AA299001091AG10999AY161061GF106991041041002501061021MA1999999095801MD1999999-0011MW1021REMSYN017333   59001 69971
0129832360999991984033100004-12150-045000FM-12+0440SBRR V0200501N00101220001CN9999999N9+02291+02251100931ADDAA106000091AG10999AY101061GF103991031061008001001001KA1240M+03011MA1999999095981MD1999999-0031MW1131REMSYN017333   10301 59003
0146832360999991984033112004-12150-045000FM-12+0440SBRR V0201801N00051045001CN0100001N9+02301+02221101051ADDAA124000791AA299001091AG10999AY101061GF107991041051004501031001KA1240N+02031MA1999999096101MD1999999-0311MW1021REMSYN023333   20203 59031 69974
0110832360999991984033118004-12150-045000FM-12+0440SBRR V0201401N00151045001CN0100001N9+99999+99999100691ADDAA106000091AG10999AY101061GF107991021011008001071001MA1999999095771MD1999999-0061MW1021REMSYN011333   59006
0129832360999991984040100004-12150-045000FM-12+0440SBRR V0209991C00001220001CN9999999N9+02261+02181100881ADDAA106000091AG10999AY101061GF100991001001999999001001KA1240M+02951MA1999999095941MD1999999-0041MW1021REMSYN017333   10295 59004
0129832360999991984040112004-12150-045000FM-12+0440SBRR V0209991C00001007501CN0100001N9+02391+02261101131ADDAA106000091AG10999AY101061GF108991061071008001021999KA1240N+02041MA1999999096181MD1999999+0081MW1021REMSYN017333   20204 58008
0129832360999991984040200004-12150-045000FM-12+0440SBRR V0202301N00101220001CN9999999N9+02231+02151100911ADDAA106000091AG10999AY101061GF104991041041008001001001KA1240M+02841MA1999999095971MD1999999+0031MW1021REMSYN017333   10284 58003
0135832360999991984040212004-12150-045000FM-12+0440SBRR V0203601N00101045001CN0040001N9+02341+02221101121ADDAA124003091AG10999AY161061GF108991031051004501021999KA1240N+02031MA1999999096171MD1999999-0011MW1401REMSYN023333   20203 59001 60034
0110832360999991984040218004-12150-045000FM-12+0440SBRR V0200101N00051045001CN0100001N9+02741+02211100691ADDAA106000091AG10999AY101061GF107991031071008001021011MA1999999095771MD1999999-0021MW1151REMSYN011333   59002
0129832360999991984040300004-12150-045000FM-12+0440SBRR V0203601N00101007501CN9999999N9+02311+02111101051ADDAA106000091AG10999AY101061GF107991071071008001001001KA1240M+02831MA1999999096101MD1999999+0131MW1021REMSYN017333   10283 58013
0129832360999991984040312004-12150-045000FM-12+0440SBRR V0203601N00051007501CN0100001N9+02381+02241101081ADDAA106000091AG10999AY101061GF108991061071008001041999KA1240N+02161MA1999999096141MD1999999-0031MW1021REMSYN017333   20216 59003
0135832360999991984040318004-12150-045000FM-12+0440SBRR V0203201N00261007501CN0100001N9+02541+02331100661ADDAA106003091AG10999AY161061GF108991999071008001061999MA1999999095741MD1999999-0041MW1151REMSYN017333   59004 60031EQDQ01+000082SCOTLC
0146832360999991984040400004-12150-045000FM-12+0440SBRR V0203601N00101007501CN9999999N9+02251+02211100981ADDAA106000791AA299001091AG10999AY151061GF108991081071008001999999KA1240M+02881MA1999999096041MD1999999-0061MW1031REMSYN023333   10288 59006 69971
0135832360999991984040412004-12150-045000FM-12+0440SBRR V0200501N00151007501CN0040001N9+02411+02241101161ADDAA124004091AG10999AY151061GF108991081051008001999999KA1240N+02151MA1999999096211MD1999999+0071MW1021REMSYN023333   20215 58007 60044
0129832360999991984040500004-12150-045000FM-12+0440SBRR V0203601N00101220001CN9999999N9+02301+02181100871ADDAA106000091AG10999AY101061GF102991021001022501071001KA1240M+02991MA1999999095941MD1999999-0041MW1021REMSYN017333   10299 59004
0129832360999991984040512004-12150-045000FM-12+0440SBRR V0209991C00001045001CN0200001N9+02581+02271101031ADDAA106000091AG10999AY101061GF106991041041008001061021KA1240N+02081MA1999999096101MD1999999-0111MW1021REMSYN017333   20208 59011
0110832360999991984040518004-12150-045000FM-12+0440SBRR V0200501N00361007501CN0200001N9+02731+02281100631ADDAA106000091AG10999AY101061GF107991051051008001041021MA1999999095721MD1999999-0061MW1021REMSYN011333   59006
0129832360999991984040600004-12150-045000FM-12+0440SBRR V0203201N00051007501CN9999999N9+02301+02221101031ADDAA106000091AG10999AY101061GF108991071061008001021999KA1240M+03061MA1999999096101MD1999999+0161MW1131REMSYN017333   10306 58016
0135832360999991984040612004-12150-045000FM-12+0440SBRR V0200501N00101007501CN0040001N9+02381+02191101231ADDAA124009091AG10999AY151061GF108991061051008001021999KA1240N+02111MA1999999096281MD1999999+0181MW1021REMSYN023333   20211 58018 60094
0110832360999991984040618004-12150-045000FM-12+0440SBRR V0200501N00151007501CN0100001N9+02981+02251100791ADDAA106000091AG10999AY101061GF107991051091008001071001MA1999999095881MD1999999-0061MW1151REMSYN011333   59006
0135832360999991984040700004-12150-045000FM-12+0440SBRR V0202701N00051004201CN9999999N9+02291+02211101151ADDAA106000191AG10999AY101061GF108991081051004501999999KA1240M+02991MA1999999096201MD1999999+0101MW1131REMSYN023333   10299 58010 69911
0135832360999991984040712004-12150-045000FM-12+0440SBRR V0203601N00151004201CN0040001N9+02391+02261101241ADDAA124000191AG10999AY101061GF108991061071004501041999KA1240N+02141MA1999999096291MD1999999+0011MW1021REMSYN023333   20214 58001 69914
0110832360999991984040718004-12150-045000FM-12+0440SBRR V0203601N00311045001CN0200001N9+02981+02331100891ADDAA106000091AG10999AY101061GF105991041051008001021011MA1999999095981MD1999999+0101MW1021REMSYN011333   58010
0135832360999991984040800004-12150-045000FM-12+0440SBRR V0202301N00051220001CN9999999N9+02231+02151101211ADDAA106000591AG10999AY151061GF103991031021008001001001KA1240M+03011MA1999999096261MD1999999+0061MW1021REMSYN023333   10301 58006 69951
0146832360999991984040812004-12150-045000FM-12+0440SBRR V0202701N00101220001CN0500001N9+02431+02091101391ADDAA106000091AA224000591AG10999AY101061GF103991011011008001041001KA1240N+01951MA1999999096431MD1999999+0141MW1021REMSYN023333   20195 58014 69954
0110832360999991984040818004-12150-045000FM-12+0440SBRR V0201401N00151220001CN0500001N9+03021+01891100991ADDAA106000091AG10999AY101061GF104991031011008001001011MA1999999096061MD1999999+0081MW1021REMSYN011333   58008
0129832360999991984040900004-12150-045000FM-12+0440SBRR V0202301N00101045001CN9999999N9+02441+02071101161ADDAA106000091AG10999AY101061GF107991041051008001061001KA1240M+03071MA1999999096221MD1999999-0041MW1021REMSYN017333   10307 59004
0129832360999991984040912004-12150-045000FM-12+0440SBRR V0201401N00151007501CN0100001N9+02431+02111101431ADDAA106000091AG10999AY101061GF108991061071008001021999KA1240N+02131MA1999999096481MD1999999+0051MW1021REMSYN017333   20213 58005
0110832360999991984040918004-12150-045000FM-12+0440SBRR V0201401N00361007501CN0200001N9+02931+02091101001ADDAA106000091AG10999AY101061GF106991051051008001021011MA1999999096081MD1999999+0021MW1021REMSYN011333   58002
0129832360999991984041000004-12150-045000FM-12+0440SBRR V0201801N00101105001CN9999999N9+02471+02131101191ADDAA106000091AG10999AY101061GF105991031071008001001031KA1240M+03031MA1999999096251MD1999999+0031MW1021REMSYN017333   10303 58003
0129832360999991984041012004-12150-045000FM-12+0440SBRR V0201401N00411007501CN0100001N9+02441+01901101401ADDAA106000091AG10999AY101061GF107991051051008001021001KA1240N+02141MA1999999096451MD1999999-0031MW1021REMSYN017333   20214 59003
0110832360999991984041018004-12150-045000FM-12+0440SBRR V0201401N00151012001CN0200001N9+02721+01981101101ADDAA106000091AG10999AY101061GF106991061081008001001001MA1999999096171MD1999999+0081MW1021REMSYN011333   58008
0134832360999991984041112004-12150-045000FM-12+0440SBRR V0201401N00261007501CN0100001N9+02381+01801101531ADDAA106999999AG10999AY101061GF106991051051008001031021KA1240N+02051MA1999999096561MW1021REMSYN017333   20205 68011EQDQ01  80102PRCP06
0099832360999991984041118004-12150-045000FM-12+0440SBRR V0201401N00361007501CN0200001N9+99999+99999101171ADDAG10999AY101061GF106991061051008001041001MA1999999096231MD1999999+0061MW1021REMSYN011333   58006
0129832360999991984041200004-12150-045000FM-12+0440SBRR V0202301N00101012001CN9999999N9+02341+02071101381ADDAA106000091AG10999AY101061GF106991061081008001001001KA1240M+02901MA1999999096421MD1999999+0071MW1021REMSYN017333   10290 58007
0129832360999991984041212004-12150-045000FM-12+0440SBRR V0201401N00411220001CN0200001N9+02501+01941101511ADDAA106000091AG10999AY101061GF106991041051008001001041KA1240N+02021MA1999999096551MD1999999-0011MW1021REMSYN017333   20202 59001
0110832360999991984041218004-12150-045000FM-12+0440SBRR V0201401N00361220001CN0500001N9+03031+01861101011ADDAA106000091AG10999AY101061GF104991041021008001001041MA1999999096091MD1999999-0141MW1021REMSYN011333   59014
0129832360999991984041300004-12150-045000FM-12+0440SBRR V0202701N00101220001CN9999999N9+02301+01961101221ADDAA106000091AG10999AY101061GF102991021001022501041001KA1240M+03081MA1999999096271MD1999999-0151MW1021REMSYN017333   10308 59015
0129832360999991984041312004-12150-045000FM-12+0440SBRR V0201401N00261007501CN0200001N9+02501+01981101381ADDAA106000091AG10999AY101061GF106991051051008001001031KA1240N+02111MA1999999096431MD1999999-0121MW1021REMSYN017333   20211 59012
0110832360999991984041318004-12150-045000FM-12+0440SBRR V0200501N00261007501CN0100001N9+02851+02091100921ADDAA106000091AG10999AY101061GF105991051051008001021001MA1999999096001MD1999999-0091MW1021REMSYN011333   59009
0129832360999991984041400004-12150-045000FM-12+0440SBRR V0202301N00151007501CN9999999N9+02381+02031101131ADDAA106000091AG10999AY101061GF106991061031008001061001KA1240M+03021MA1999999096181MD1999999-0091MW1021REMSYN017333   10302 59009
0135832360999991984041412004-12150-045000FM-12+0440SBRR V0201401N00211012001CN0100001N9+02471+02111101261ADDAA124002091AG10999AY161061GF107991061081008001041011KA1240N+02131MA1999999096311MD1999999-0121MW1021REMSYN023333   20213 59012 60024
0110832360999991984041418004-12150-045000FM-12+0440SBRR V0200501N00151007501CN0100001N9+02951+02051100831ADDAA106000091AG10999AY101061GF106991051051008001021021MA1999999095921MD1999999-0081MW1021REMSYN011333   59008
0129832360999991984041500004-12150-045000FM-12+0440SBRR V0202701N00101007501CN9999999N9+02261+02161101071ADDAA106000091AG10999AY101061GF106991051031008001061021KA1240M+03011MA1999999096131MD1999999-0051MW1021REMSYN017333   10301 59005
0146832360999991984041600004-12150-045000FM-12+0440SBRR V0209991C00001012001CN9999999N9+02321+02271101061ADDAA106000791AA299001091AG10999AY151061GF108991061081008001021999KA1240M+02861MA1999999096131MD1410001+0001MW1021REMSYN023333   10286 58000 69971
0135832360999991984041612004-12150-045000FM-12+0440SBRR V0201801N00151045001CN0200001N9+02601+02141101171ADDAA124003091AG10999AY101061GF105991031021008001041021KA1240N+02061MA1999999096231MD1999999-0031MW1021REMSYN023333   20206 59003 60034
0110832360999991984041618004-12150-045000FM-12+0440SBRR V0200501N00211007501CN0200001N9+02971+99999100751ADDAA106000091AG10999AY101061GF106991051041008001071021MA1999999095841MD1999999-0081MW1021REMSYN011333   59008
0129832360999991984041700004-12150-045000FM-12+0440SBRR V0200501N00101220001CN9999999N9+02231+02141100971ADDAA106000091AG10999AY101061GF102991011001022501041011KA1240M+03051MA1999999096041MD1999999-0091MW1021REMSYN017333   10305 59009
0098832360999991984041715004-12150-045000FM-12+0440SBRR V0200901N00511220001CN0150001N9+02741+02541106811ADDAG10999AY101031GF104991041011008001001001MA1999999101641MD1210141+9999MW1021EQDQ01+999990APOSLP
0162832360999991984041718004-12150-045000FM-12+0440SBRR V0201401N00261007501CN0200001N9+02921+02221100722ADDAA106000891AA299001091AG10999AY151061GF105991051051008001021001MA1999999095802MD1999999-0041MW1151REMSYN017333   59004 69981EQDQ01+095803APOSP Q02+100723APOSLP
0135832360999991984041800004-12150-045000FM-12+0440SBRR V0209991C00001220001CN9999999N9+02161+02091101041ADDAA106000191AG10999AY151061GF104991001001999999001041KA1240M+03141MA1999999096101MD1999999+0061MW1021REMSYN023333   10314 58006 69911
0122832360999991984041801004-12150-045000FM-12+0440SBRR V0209991C00001220001CN9999999N9+02161+02091101041ADDAA106000191AG10999AY151011GF104991001001999999001041MA1999999096101MD1999999+0061MW1021REMSYN023333   1014/ 58006 69911
0146832360999991984041812004-12150-045000FM-12+0440SBRR V0201801N00051220001CN0500001N9+02581+02171101261ADDAA124000991AA299001091AG10999AY101061GF103991021011008001041001KA1240N+01911MA1999999096311MD1999999+0061MW1021REMSYN023333   20191 58006 69994
0084832360999991984041818004-12150-045000FM-12+0440SBRR V0203601N00101007501CN0500001N9+03161+02081100741ADDAG10999AY101061GF105991051021008001001001MA1999999095931MW1021EQDQ01+999990APOSP 
0129832360999991984041900004-12150-045000FM-12+0440SBRR V0209991C00001220001CN9999999N9+02161+02081101061ADDAA106000091AG10999AY101061GF102991021011008001001001KA1240M+03231MA1999999096121MD1999999+0021MW1021REMSYN017333   10323 58002
0129832360999991984041912004-12150-045000FM-12+0440SBRR V0202701N00051220001CN0500001N9+02431+02031101261ADDAA106000091AG10999AY101061GF103991011011008001041001KA1240N+01881MA1999999096301MD1999999-0011MW1021REMSYN017333   20188 59001
0116832360999991984041918004-12150-045000FM-12+0440SBRR V0200501N00151105001CN0200001N9+02541+02151100821ADDAA106002091AG10999AY161061GF105991041031008001001031MA1999999095881MD1999999-0041MW1021REMSYN017333   59004 60021
0170832360999991984042000004-12150-045000FM-12+0440SBRR V0201801N00101220001CN9999999N9+02261+02141101041ADDAA106000091AG10999AY101061GA1031+012609029GF199999021031008001001001KA1240M+03091MA1999999096101MD1999999-0021MW1131REMSYN023333   10309 59002 83242EQDQ01+000022SCOTCV
0135832360999991984042012004-12150-045000FM-12+0440SBRR V0202701N00051220001CN0500001N9+02431+02151101311ADDAA124002091AG10999AY101061GF103991021011008001041001KA1240N+02031MA1999999096351MD1999999+0051MW1021REMSYN023333   20203 58005 60024
0127832360999991984042018004-12150-045000FM-12+0440SBRR V0200501N00361045001CN0200001N9+03051+02031100881ADDAA106000991AA299001091AG10999AY161061GF106991041021008001011001MA1999999095961MD1999999-0081MW1151REMSYN017333   59008 69991
0129832360999991984042100004-12150-045000FM-12+0440SBRR V0201801N00101220001CN9999999N9+02271+02111101071ADDAA106000091AG10999AY101061GF102991021031008001001001KA1240M+03091MA1999999096131MD1999999+0031MW1131REMSYN017333   10309 58003
0141832360999991984042112004-12150-045000FM-12+0440SBRR V0202301N00101220001CN0200001N9+02491+02031101251ADDAA124045091AG10999AY101061GF104991021021008001001021KA1240N+01791MA1999999096301MD1999999-0051MW1021REMSYN029333   20179 59005 59012 60454
0110832360999991984042118004-12150-045000FM-12+0440SBRR V0200501N00261220001CN0500001N9+03161+02231100781ADDAA106000091AG10999AY101061GF103991031021008001001001MA1999999095871MD1999999-0091MW1021REMSYN011333   59009
0129832360999991984042200004-12150-045000FM-12+0440SBRR V0201801N00051220001CN9999999N9+02241+02071100941ADDAA106000091AG10999AY101061GF100991001001999999001001KA1240M+03181MA1999999096001MD1999999-0131MW1021REMSYN017333   10318 59013
0129832360999991984042212004-12150-045000FM-12+0440SBRR V0202701N00101220001CN0500001N9+02411+01891101231ADDAA106000091AG10999AY101061GF101991011001022501041001KA1240N+01821MA1999999096271MD1999999-0031MW1021REMSYN017333   20182 59003
0110832360999991984042218004-12150-045000FM-12+0440SBRR V0201401N00151220001CN0500001N9+03151+02001100781ADDAA106000091AG10999AY101061GF104991041011008001001001MA1999999095861MD1999999-0011MW1021REMSYN011333   59001
0129832360999991984042300004-12150-045000FM-12+0440SBRR V0201801N00151220001CN9999999N9+02221+01991100971ADDAA106000091AG10999AY101061GF100991001001999999001001KA1240M+03201MA1999999096031MD1999999+0031MW1021REMSYN017333   10320 58003
0129832360999991984042312004-12150-045000FM-12+0440SBRR V0201801N00101220001CN0500001N9+02641+02051101301ADDAA106000091AG10999AY101061GF102991011021008001001021KA1240N+01981MA1999999096351MD1999999+0081MW1021REMSYN017333   20198 58008
0110832360999991984042318004-12150-045000FM-12+0440SBRR V0200501N00261007501CN0200001N9+03151+02211100891ADDAA106000091AG10999AY101061GF105991051031008001021001MA1999999095971MD1999999+0111MW1021REMSYN011333   58011
0129832360999991984042400004-12150-045000FM-12+0440SBRR V0201801N00101220001CN9999999N9+02331+02221101121ADDAA106000091AG10999AY101061GF103991031061008001001001KA1240M+03231MA1999999096191MD1999999+0161MW1131REMSYN017333   10323 58016
0129832360999991984042412004-12150-045000FM-12+0440SBRR V0201801N00101045001CN0200001N9+02581+02151101381ADDAA106000091AG10999AY101061GF105991011011008001071001KA1240N+02061MA1999999096431MD1999999+0081MW1021REMSYN017333   20206 58008
0129832360999991984042500004-12150-045000FM-12+0440SBRR V0201801N00101220001CN9999999N9+02311+02181101171ADDAA106000091AG10999AY101061GF100991001001999999001001KA1240M+03381MA1999999096231MD1999999+0041MW1021REMSYN017333   10338 58004
0135832360999991984042512004-12150-045000FM-12+0440SBRR V0201801N00101045001CN0200001N9+02631+02181101211ADDAA124000191AG10999AY151061GF105991041021008001061011KA1240N+02021MA1999999096271MD1999999-0161MW1021REMSYN023333   20202 59016 69914
0110832360999991984042518004-12150-045000FM-12+0440SBRR V0203201N00101007501CN0200001N9+03281+02261100641ADDAA106000091AG10999AY101061GF105991051041008001041021MA1999999095751MD1999999-0171MW1021REMSYN011333   59017
0135832360999991984042612004-12150-045000FM-12+0440SBRR V0200901N00051045001CN0100001N9+02321+02131101211ADDAA124021091AG10999AY161061GF107991031051008001051001KA1240N+02151MA1999999096261MD1999999-0011MW1401REMSYN023333   20215 59001 60214
0110832360999991984042618004-12150-045000FM-12+0440SBRR V0203601N00151220001CN0200001N9+03061+01141100751ADDAA106000091AG10999AY101061GF105991041011008001001011MA1999999095851MD1999999+0101MW1021REMSYN011333   58010
0129832360999991984042700004-12150-045000FM-12+0440SBRR V0201401N00051220001CN9999999N9+02301+02161101021ADDAA106000091AG10999AY101061GF101991011031008001001001KA1240M+03091MA1999999096071MD1999999+0021MW1131REMSYN017333   10309 58002
0129832360999991984042712004-12150-045000FM-12+0440SBRR V0201801N00101045001CN0200001N9+02441+02211101261ADDAA106000091AG10999AY101061GF106991041021008001061011KA1240N+01991MA1999999096311MD1999999+0051MW1021REMSYN017333   20199 58005
0110832360999991984042718004-12150-045000FM-12+0440SBRR V0200901N00151105001CN0200001N9+03031+01991100861ADDAA106000091AG10999AY101061GF105991031031008001001021MA1999999095951MD1999999+0101MW1021REMSYN011333   58010
0129832360999991984042800004-12150-045000FM-12+0440SBRR V0201801N00101220001CN9999999N9+02151+02091101061ADDAA106000091AG10999AY101061GF100991001001999999001001KA1240M+03121MA1999999096111MD1999999+0041MW1021REMSYN017333   10312 58004
0129832360999991984042812004-12150-045000FM-12+0440SBRR V0200501N00151220001CN0500001N9+02481+02011101341ADDAA106000091AG10999AY101061GF102991021021008001001001KA1240N+01921MA1999999096381MD1999999+0071MW1021REMSYN017333   20192 58007
0110832360999991984042818004-12150-045000FM-12+0440SBRR V0203601N00261220001CN0200001N9+03131+02221100971ADDAA106000091AG10999AY101061GF104991031041008001001021MA1999999096051MD1999999+0101MW1021REMSYN011333   58010
0129832360999991984042900004-12150-045000FM-12+0440SBRR V0201401N00101220001CN9999999N9+02151+02061101191ADDAA106000091AG10999AY101061GF100991001001999999001001KA1240M+03141MA1999999096241MD1999999+0131MW1021REMSYN017333   10314 58013
0129832360999991984042912004-12150-045000FM-12+0440SBRR V0202701N00101045001CN0200001N9+02451+02131101471ADDAA106000091AG10999AY101061GF105991041021008001061011KA1240N+01971MA1999999096491MD1999999+0111MW1021REMSYN017333   20197 58011
0110832360999991984042918004-12150-045000FM-12+0440SBRR V0200501N00211220001CN0200001N9+03091+02161100981ADDAA106000091AG10999AY101061GF103991031041008001001001MA1999999096061MD1999999+0011MW1021REMSYN011333   58001
0129832360999991984043000004-12150-045000FM-12+0440SBRR V0201801N00101220001CN9999999N9+02211+02011101181ADDAA106000091AG10999AY101061GF100991001001999999001001KA1240M+03151MA1999999096231MD1999999-0011MW1021REMSYN017333   10315 59001
0110832360999991984043018004-12150-045000FM-12+0440SBRR V0200501N00261220001CN0500001N9+03061+02141100991ADDAA106000091AG10999AY101061GF104991031021008001001011MA1999999096071MD1999999+0011MW1021REMSYN011333   58001
0146832360999991984050100004-12150-045000FM-12+0440SBRR V0201801N00101220001CN9999999N9+02181+02061101201ADDAA106000491AA299000591AG10999AY161061GF102991021041008001001001KA1240M+03131MA1999999096251MD1999999+0021MW1021REMSYN023333   10313 58002 69941
0146832360999991984050112004-12150-045000FM-12+0440SBRR V0202301N00101220001CN0500001N9+02391+02051101411ADDAA124000491AA299000591AG10999AY101061GF103991001001999999001021KA1240N+01821MA1999999096451MD1999999-0011MW1021REMSYN023333   20182 59001 69944
0110832360999991984050118004-12150-045000FM-12+0440SBRR V0201401N00261220001CN0200001N9+03221+02051100941ADDAA106000091AG10999AY101061GF104991041021004501001001MA1999999096021MD1999999+0001MW1021REMSYN011333   59000
0129832360999991984050200004-12150-045000FM-12+0440SBRR V0202301N00101220001CN9999999N9+02151+01951101211ADDAA106000091AG10999AY101061GF100991001001999999001001KA1240M+03231MA1999999096251MD1410001+0001MW1021REMSYN017333   10323 58000
0129832360999991984050212004-12150-045000FM-12+0440SBRR V0209991C00001220001CN0200001N9+02371+01971101451ADDAA106000091AG10999AY101061GF103991031001022501031011KA1240N+01891MA1999999096471MD1999999+0021MW1021REMSYN017333   20189 58002
0110832360999991984050218004-12150-045000FM-12+0440SBRR V0200501N00311220001CN0200001N9+03051+02001100991ADDAA106000091AG10999AY101061GF103991011011008001001021MA1999999096061MD1999999+0041MW1021REMSYN011333   58004
0129832360999991984050300004-12150-045000FM-12+0440SBRR V0201801N00671220001CN9999999N9+02221+02051101191ADDAA106000091AG10999AY101061GF101991011041008001001001KA1240M+03151MA1999999096241MD1999999-0011MW1021REMSYN017333   10315 59001
0129832360999991984050312004-12150-045000FM-12+0440SBRR V0201801N00151220001CN0500001N9+02461+01991101411ADDAA106000091AG10999AY101061GF102991021001022501031001KA1240N+01921MA1999999096451MD1999999-0021MW1021REMSYN017333   20192 59002
0110832360999991984050318004-12150-045000FM-12+0440SBRR V0201401N00411105001CN0200001N9+03151+01941100971ADDAA106000091AG10999AY101061GF105991031021008001001021MA1999999096051MD1999999-0011MW1021REMSYN011333   59001
0129832360999991984050400004-12150-045000FM-12+0440SBRR V0202301N00151007501CN9999999N9+02421+01971101161ADDAA106000091AG10999AY101061GF105991051041008001021001KA1240M+03201MA1999999096221MD1999999-0021MW1021REMSYN017333   10320 59002
0129832360999991984050412004-12150-045000FM-12+0440SBRR V0209991C00001045001CN0200001N9+02411+01971101401ADDAA106000091AG10999AY101061GF107991031051008001071001KA1240N+02411MA1999999096451MD1410001+0001MW1021REMSYN017333   20241 58000
0110832360999991984050418004-12150-045000FM-12+0440SBRR V0200501N00261220001CN0200001N9+99999+99999100831ADDAA106000091AG10999AY101061GF106991031021008001001011MA1999999096041MD1999999-0011MW1021REMSYN011333   59001
0135832360999991984050500004-12150-045000FM-12+0440SBRR V0203201N00151045001CN9999999N9+02311+02111101251ADDAA106002091AG10999AY161061GF107991031051008001021001KA1240M+03151MA1999999096301MD1999999+0021MW1021REMSYN023333   10315 58002 60021
0135832360999991984050512004-12150-045000FM-12+0440SBRR V0201801N00101220001CN0200001N9+02411+01991101401ADDAA124002091AG10999AY151061GF104991021021008001001041KA1240N+02011MA1999999096441MD1999999-0011MW1021REMSYN023333   20201 59001 60024
0110832360999991984050518004-12150-045000FM-12+0440SBRR V0200901N00261105001CN0200001N9+03021+01891100971ADDAA106000091AG10999AY101061GF105991031041008001001021MA1999999096051MD1999999+0011MW1021REMSYN011333   58001
0129832360999991984050600004-12150-045000FM-12+0440SBRR V0202301N00101220001CN9999999N9+02161+01821101121ADDAA106000091AG10999AY101061GF100991001001999999001001KA1240M+03101MA1999999096171MD1999999-0131MW1021REMSYN017333   10310 59013
0129832360999991984050612004-12150-045000FM-12+0440SBRR V0202301N00101220001CN0500001N9+02421+01861101291ADDAA106000091AG10999AY101061GF101991011011008001001001KA1240N+01731MA1999999096331MD1999999-0111MW1021REMSYN017333   20173 59011
0110832360999991984050618004-12150-045000FM-12+0440SBRR V0203601N00361007501CN0200001N9+03081+01921100881ADDAA106000091AG10999AY101061GF105991051021008001001001MA1999999095951MD1999999-0101MW1021REMSYN011333   59010
0129832360999991984050700004-12150-045000FM-12+0440SBRR V0201401N00101220001CN9999999N9+02151+01951101111ADDAA106000091AG10999AY101061GF102991021001022501061001KA1240M+03161MA1999999096151MD1999999-0021MW1021REMSYN017333   10316 59002
0129832360999991984050712004-12150-045000FM-12+0440SBRR V0203201N00101220001CN0500001N9+02401+01861101381ADDAA106000091AG10999AY101061GF100991001001999999001001KA1240N+01641MA1999999096411MD1999999+0081MW1021REMSYN017333   20164 58008
0110832360999991984050718004-12150-045000FM-12+0440SBRR V0200901N00311220001CN0200001N9+03151+01851100921ADDAA106000091AG10999AY101061GF103991031021008001001001MA1999999095991MD1999999+0041MW1021REMSYN011333   58004
0129832360999991984050812004-12150-045000FM-12+0440SBRR V0202701N00051220001CN0500001N9+02321+01741101371ADDAA106000091AG10999AY101061GF100991001001999999001001KA1240N+01561MA1999999096391MD1999999-0021MW1021REMSYN017333   20156 59002
0110832360999991984050818004-12150-045000FM-12+0440SBRR V0201401N00261007501CN0200001N9+03131+01681100961ADDAA106000091AG10999AY101061GF105991051021008001001001MA1999999096031MD1999999+0041MW1021REMSYN011333   58004
0129832360999991984050900004-12150-045000FM-12+0440SBRR V0201801N00101220001CN9999999N9+02251+01981101111ADDAA106000091AG10999AY101061GF103991011061008001061001KA1240M+03341MA1999999096151MD1999999-0031MW1021REMSYN017333   10334 59003
0135832360999991984050912004-12150-045000FM-12+0440SBRR V0201801N00101220001CN0200001N9+02451+02051101431ADDAA124003091AG10999AY161061GF104991031021008001051011KA1240N+02021MA1999999096471MD1999999+0081MW1021REMSYN023333   20202 58008 60034
0145832360999991984050918004-12150-045000FM-12+0440SBRR V0200901N00261105001CN0200001N9+02951+01851101041ADDAA106000091AG10999AY101061GF105991041031008001001021MA1999999096181MD1999999+0091MW1021REMSYN011333   58009EQDQ01+086123APOSP Q02+999990APOSP 
0148832360999991984051000004-12150-045000FM-12+0440SBRR V0202301N00101220001CN9999999N9+03231+01921101141ADDAA106000091AG10999AY101061GF102991001001999999001011KA1240M+99999MA1999999096241MD1999999+0091MW1021REMSYN017333   10308 58009EQDQ01 +03082ATMX  
0129832360999991984051012004-12150-045000FM-12+0440SBRR V0201801N00151220001CN0500001N9+02491+01961101391ADDAA106000091AG10999AY101061GF102991011011008001001011KA1240N+01881MA1999999096431MD1999999-0041MW1021REMSYN017333   20188 59004
0129832360999991984051100004-12150-045000FM-12+0440SBRR V0202701N00051220001CN9999999N9+02081+01841100971ADDAA106000091AG10999AY101061GF102991001001999999001011KA1240M+03151MA1999999096031MD1999999-0211MW1021REMSYN017333   10315 59021
0129832360999991984051112004-12150-045000FM-12+0440SBRR V0202701N00101220001CN0500001N9+02241+01841101121ADDAA106000091AG10999AY101061GF103991001001999999001041KA1240N+01611MA1999999096151MD1999999-0281MW1021REMSYN017333   20161 59028
0110832360999991984051118004-12150-045000FM-12+0440SBRR V0201401N00151220001CN0200001N9+03111+01691100561ADDAA106000091AG10999AY101061GF104991021001012501001021MA1999999095651MD1999999-0221MW1021REMSYN011333   59022
0129832360999991984051200004-12150-045000FM-12+0440SBRR V0201801N00051220001CN9999999N9+02081+01911100781ADDAA106000091AG10999AY101061GF102991001001999999001021KA1240M+03251MA1999999095831MD1999999-0201MW1021REMSYN017333   10325 59020
0148832360999991984051212004-12150-045000FM-12+0440SBRR V0209991C00001220001CN0200001N9+02121+01761101241ADDAA106000091AG10999AY101061GF106991001001999999001041KA1240N+01531MA1999999999999MD1999999+0111MW1021REMSYN017333   20153 58011EQDQ01 092123APOSP 
0129832360999991984051218004-12150-045000FM-12+0440SBRR V0203601N00151220001CN0200001N9+02321+01711100741ADDAA106000091AG10999AY101061GF105991011011008001001041MA1999999095812MD1999999+0161MW1021REMSYN011333   58016EQDQ01+095813APOSP 
0129832360999991984051300004-12150-045000FM-12+0440SBRR V0201401N00101220001CN9999999N9+02061+01781100971ADDAA106000091AG10999AY101061GF103991001001999999001041KA1240M+03231MA1999999096001MD1999999+0171MW1021REMSYN017333   10323 58017
0129832360999991984051312004-12150-045000FM-12+0440SBRR V0202401N00051220001CN0500001N9+02191+01671101301ADDAA106000091AG10999AY101061GF102991001001999999001041KA1240N+01501MA1999999096321MD1999999+0061MW1021REMSYN017333   20150 58006
0110832360999991984051318004-12150-045000FM-12+0440SBRR V0203601N00211220001CN0200001N9+03231+01911100791ADDAA106000091AG10999AY101061GF105991031021008001001041MA1999999095861MD1999999+0051MW1021REMSYN011333   58005
0129832360999991984051400004-12150-045000FM-12+0440SBRR V0203601N00051220001CN9999999N9+02141+01881101071ADDAA106000091AG10999AY101061GF103991001001999999001021KA1240M+03261MA1999999096101MD1999999+0101MW1021REMSYN017333   10326 58010
0129832360999991984051412004-12150-045000FM-12+0440SBRR V0203601N00051220001CN0500001N9+02261+01771101351ADDAA106000091AG10999AY101061GF104991021001022501081011KA1240N+01611MA1999999096371MD1999999+0051MW1021REMSYN017333   20161 58005
0110832360999991984051418004-12150-045000FM-12+0440SBRR V0200501N00261220001CN0500001N9+03211+01861100841ADDAA106000091AG10999AY101061GF104991031011008001001041MA1999999095921MD1999999+0061MW1021REMSYN011333   58006
0129832360999991984051500004-12150-045000FM-12+0440SBRR V0203601N00101220001CN9999999N9+02211+02051101031ADDAA106000091AG10999AY101061GF101991001001999999001011KA1240M+03271MA1999999096081MD1999999+0081MW1021REMSYN017333   10327 58008
0129832360999991984051512004-12150-045000FM-12+0440SBRR V0200501N001019999999N0200001N9+02361+02111101271ADDAA106000091AG10999AY101061GF105991041021999999041021KA1240N+02011MA1999999096311MD1999999-0061MW1021REMSYN017333   20201 59006
0116832360999991984051518004-12150-045000FM-12+0440SBRR V0200501N00101007501CN0200001N9+02651+02251100811ADDAA106002091AG10999AY161061GF106991051031008001061021MA1999999095881MD1999999-0041MW1021REMSYN017333   59004 60021
0129832360999991984051600004-12150-045000FM-12+0440SBRR V0203601N00151105001CN9999999N9+02311+02231100921ADDAA106000091AG10999AY101061GF105991041041008001001021KA1240M+03011MA1999999095981MD1999999-0101MW1021REMSYN017333   10301 59010
0135832360999991984051612004-12150-045000FM-12+0440SBRR V0200501N00311220001CN0500001N9+02561+02081101111ADDAA124002091AG10999AY101061GF103991011011008001061001KA1240N+01921MA1999999096171MD1999999-0141MW1021REMSYN023333   20192 59014 60024
0110832360999991984051618004-12150-045000FM-12+0440SBRR V0200501N00261007501CN0200001N9+02941+01791100681ADDAA106000091AG10999AY101061GF105991051021008001001001MA1999999095771MD1999999-0111MW1021REMSYN011333   59011
0129832360999991984051700004-12150-045000FM-12+0440SBRR V0201801N00051220001CN9999999N9+02151+01971100981ADDAA106000091AG10999AY101061GF100991001001999999001001KA1240M+03251MA1999999096041MD1999999+0061MW1021REMSYN017333   10325 58006
0129832360999991984051712004-12150-045000FM-12+0440SBRR V0202301N00151220001CN0500001N9+02371+01851101351ADDAA106000091AG10999AY101061GF103991001001999999001041KA1240N+01681MA1999999096381MD1999999+0211MW1021REMSYN017333   20168 58021
0110832360999991984051718004-12150-045000FM-12+0440SBRR V0201401N00411220001CN0200001N9+03231+01841100901ADDAA106000091AG10999AY101061GF104991031021008001001021MA1999999095981MD1999999+0211MW1021REMSYN011333   58021
0129832360999991984051800004-12150-045000FM-12+0440SBRR V0201801N00101220001CN9999999N9+02171+02011101041ADDAA106000091AG10999AY101061GF102991001001999999001021KA1240M+03301MA1999999096091MD1999999+0051MW1021REMSYN017333   10330 58005
0129832360999991984051812004-12150-045000FM-12+0440SBRR V0202301N00051220001CN0500001N9+02431+01911101401ADDAA106000091AG10999AY101061GF103991021011008001041001KA1240N+01701MA1999999096441MD1999999+0061MW1021REMSYN017333   20170 58006
0110832360999991984051818004-12150-045000FM-12+0440SBRR V0201401N00261045001CN0200001N9+03051+01781100921ADDAA106000091AG10999AY101061GF105991041021008001061001MA1999999096001MD1999999+0021MW1021REMSYN011333   58002
0129832360999991984051912004-12150-045000FM-12+0440SBRR V0202301N00101220001CN0090001N9+02321+01811101381ADDAA106000091AG10999AY101061GF100991001001999999001001KA1240N+01691MA1999999096411MD1999999-0031MW1021REMSYN017333   20169 59003
0110832360999991984051918004-12150-045000FM-12+0440SBRR V0201801N00151007501CN0200001N9+03221+01891100871ADDAA106000091AG10999AY101061GF105991051021008001001001MA1999999095951MD1999999-0051MW1021REMSYN011333   59005
0129832360999991984052000004-12150-045000FM-12+0440SBRR V0201801N00151220001CN9999999N9+02181+01761101101ADDAA106000091AG10999AY101061GF100991001001999999001001KA1240M+03271MA1999999096151MD1410001+0001MW1021REMSYN017333   10327 58000
0129832360999991984052012004-12150-045000FM-12+0440SBRR V0202301N00051220001CN0500001N9+02361+01611101341ADDAA106000091AG10999AY101061GF102991021001999999041001KA1240N+01571MA1999999096371MD1999999+0041MW1021REMSYN017333   20157 58004
0129832360999991984052100004-12150-045000FM-12+0440SBRR V0202301N00051220001CN9999999N9+02081+01841100991ADDAA106000091AG10999AY101061GF100991001001999999001001KA1240M+03211MA1999999096041MD1999999-0111MW1021REMSYN017333   10321 59011
0129832360999991984052112004-12150-045000FM-12+0440SBRR V0201401N00101220001CN0500001N9+02541+01931101281ADDAA106000091AG10999AY101061GF103991021011012501001021KA1240N+01811MA1999999096331MD1999999-0041MW1021REMSYN017333   20181 59004
0083832360999991984052115004-12150-045000FM-12+0440SBRR V0200901N00511007501CN0150001N9+02841+02441999999ADDAG10999AY101031GF107991071011008001001001MD1210141+9999MW1021EQDQ01+101743APOSP 
0110832360999991984052118004-12150-045000FM-12+0440SBRR V0201401N00361007501CN0200001N9+03141+02041100881ADDAA106000091AG10999AY101061GF105991051041008001021001MA1999999095971MD1999999-0021MW1021REMSYN011333   59002
0135832360999991984052200004-12150-045000FM-12+0440SBRR V0201801N00101220001CN9999999N9+02221+01861101091ADDAA106000191AG10999AY151061GF103991031021008001061001KA1240M+03211MA1999999096151MD1999999+0111MW1021REMSYN023333   10321 58011 69911
0135832360999991984052212004-12150-045000FM-12+0440SBRR V0202301N00151220001CN0500001N9+02301+01651101381ADDAA124000191AG10999AY101061GF100991001001999999001001KA1240N+01531MA1999999096411MD1999999+0081MW1021REMSYN023333   20153 58008 69914
0129832360999991984052300004-12150-045000FM-12+0440SBRR V0202301N00151220001CN9999999N9+02141+01801101181ADDAA106000091AG10999AY101061GF101991011061008001001001KA1240M+03211MA1999999096211MD1999999+0061MW1021REMSYN017333   10321 58006
0129832360999991984052312004-12150-045000FM-12+0440SBRR V0202301N00101220001CN0500001N9+02341+01851101371ADDAA106000091AG10999AY101061GF102991001001999999001011KA1240N+01721MA1999999096401MD1999999-0011MW1021REMSYN017333   20172 59001
0110832360999991984052318004-12150-045000FM-12+0440SBRR V0201401N00261220001CN0200001N9+03151+01731100871ADDAA106000091AG10999AY101061GF104991041021008001001001MA1999999095951MD1999999-0061MW1021REMSYN011333   59006
0129832360999991984052400004-12150-045000FM-12+0440SBRR V0209991C00001220001CN9999999N9+02041+01831101051ADDAA106000091AG10999AY101061GF102991021001022501061001KA1240M+03211MA1999999096091MD1999999-0121MW1021REMSYN017333   10321 59012
0129832360999991984052412004-12150-045000FM-12+0440SBRR V0201801N00151220001CN0500001N9+02161+01661101351ADDAA106000091AG10999AY101061GF100991001001999999001001KA1240N+01471MA1999999096361MD1999999-0041MW1021REMSYN017333   20147 59004
0110832360999991984052418004-12150-045000FM-12+0440SBRR V0201801N00211220001CN0500001N9+03181+01441100801ADDAA106000091AG10999AY101061GF103991031011008001001001MA1999999095871MD1999999-0081MW1021REMSYN011333   59008
0129832360999991984052500004-12150-045000FM-12+0440SBRR V0202301N00101220001CN9999999N9+02171+01701101081ADDAA106000091AG10999AY101061GF100991001001999999001001KA1240M+03171MA1999999096101MD1999999+0021MW1021REMSYN017333   10317 58002
0129832360999991984052512004-12150-045000FM-12+0440SBRR V0209991C00001220001CN0500001N9+02191+01721101291ADDAA106000091AG10999AY101061GF104991021001022501041021KA1240N+01521MA1999999096321MD1999999-0041MW1021REMSYN017333   20152 59004
0110832360999991984052518004-12150-045000FM-12+0440SBRR V0200901N00151007501CN0200001N9+03091+01441100821ADDAA106000091AG10999AY101061GF107991051021008001061041MA1999999095891MD1999999+0021MW1021REMSYN011333   58002
0129832360999991984052600004-12150-045000FM-12+0440SBRR V0200501N00151220001CN9999999N9+02081+01841101001ADDAA106000091AG10999AY101061GF103991031001022501041001KA1240M+03171MA1999999096041MD1999999-0071MW1021REMSYN017333   10317 59007
0129832360999991984052612004-12150-045000FM-12+0440SBRR V0200901N00051220001CN0500001N9+02301+01651101211ADDAA106000091AG10999AY101061GF103991001001999999001051KA1240N+01681MA1999999096241MD1999999-0081MW1021REMSYN017333   20168 59008
0110832360999991984052618004-12150-045000FM-12+0440SBRR V0200501N00151007501CN0200001N9+03121+01481100771ADDAA106000091AG10999AY101061GF105991051011008001001001MA1999999095851MD1999999-0041MW1021REMSYN011333   59004
0129832360999991984052700004-12150-045000FM-12+0440SBRR V0202701N00101220001CN9999999N9+02121+01781101051ADDAA106000091AG10999AY101061GF100991001001999999001001KA1240M+03231MA1999999096091MD1999999+0041MW1021REMSYN017333   10323 58004
0129832360999991984052712004-12150-045000FM-12+0440SBRR V0202701N00101220001CN0500001N9+02261+01691101261ADDAA106000091AG10999AY101061GF100991001001999999001001KA1240N+01581MA1999999096301MD1999999+0061MW1021REMSYN017333   20158 58006
0110832360999991984052718004-12150-045000FM-12+0440SBRR V0201401N00261220001CN0200001N9+03251+01541100841ADDAA106000091AG10999AY101061GF104991041011008001001001MA1999999095921MD1999999+0071MW1021REMSYN011333   58007
0129832360999991984052800004-12150-045000FM-12+0440SBRR V0201801N00151220001CN9999999N9+02141+01741101091ADDAA106000091AG10999AY101061GF100991001001999999001001KA1240M+03311MA1999999096131MD1999999+0041MW1021REMSYN017333   10331 58004
0129832360999991984052812004-12150-045000FM-12+0440SBRR V0201801N00051220001CN0500001N9+02201+01651101391ADDAA106000091AG10999AY101061GF100991001001999999001001KA1240N+01471MA1999999096411MD1999999+0111MW1021REMSYN017333   20147 58011
0110832360999991984052818004-12150-045000FM-12+0440SBRR V0202301N00151220001CN0500001N9+03261+01601100811ADDAA106000091AG10999AY101061GF102991021011008001001001MA1999999095881MD1999999-0041MW1021REMSYN011333   59004
0129832360999991984052900004-12150-045000FM-12+0440SBRR V0201801N00101220001CN9999999N9+02161+01721101071ADDAA106000091AG10999AY101061GF102991021011008001001001KA1240M+03331MA1999999096111MD1999999-0021MW1021REMSYN017333   10333 59002
0129832360999991984052904004-12150-045000FM-12+0440SBRR V0200501N00051220001CN0500001N9+02261+01691101401ADDAA106000091AG10999AY101041GF100991001001999999001001KA1240N+01561MA1999999096421MD1999999+0011MW1021REMSYN017333   20156 58001
0129832360999991984052912004-12150-045000FM-12+0440SBRR V0200501N00051220001CN0500001N9+02261+01691101401ADDAA106000091AG10999AY101061GF100991001001999999001001KA1240N+01561MA1999999096421MD1999999+0011MW1021REMSYN017333   20156 58001
0110832360999991984052918004-12150-045000FM-12+0440SBRR V0201801N00101220001CN0500001N9+03271+01601101031ADDAA106000091AG10999AY101061GF103991031011008001001001MA1999999095901MD1999999+0021MW1021REMSYN011333   58002
0129832360999991984053000004-12150-045000FM-12+0440SBRR V0201801N00151220001CN9999999N9+02061+01661101181ADDAA106000091AG10999AY101061GF100991001001999999001001KA1240M+03331MA1999999096201MD1999999+0091MW1021REMSYN017333   10333 58009
0129832360999991984053012004-12150-045000FM-12+0440SBRR V0201801N00101220001CN0500001N9+02271+01571101331ADDAA106000091AG10999AY101061GF102991001001999999001041KA1240N+01471MA1999999096401MD1999999-0021MW1021REMSYN017333   20147 59002
0110832360999991984053018004-12150-045000FM-12+0440SBRR V0200901N00261220001CN0500001N9+03281+01291100931ADDAA106000091AG10999AY101061GF103991011011008001001041MA1999999096001MD1999999-0101MW1021REMSYN011333   59010
0129832360999991984053100004-12150-045000FM-12+0440SBRR V0201801N00101220001CN9999999N9+01981+01611101211ADDAA106000091AG10999AY101061GF100991001001999999001001KA1240M+03331MA1999999096231MD1999999+0031MW1021REMSYN017333   10333 58003
0129832360999991984053112004-12150-045000FM-12+0440SBRR V0201801N00101220001CN0500001N9+02061+01431101511ADDAA106000091AG10999AY101061GF100991001001999999001001KA1240N+01371MA1999999096511MD1999999+0111MW1021REMSYN017333   20137 58011
0110832360999991984053118004-12150-045000FM-12+0440SBRR V0200901N00311220001CN0500001N9+03281+01341101021ADDAA106000091AG10999AY101061GF103991031011008001001001MA1999999096081MD1999999+0081MW1021REMSYN011333   58008
0129832360999991984060100004-12150-045000FM-12+0440SBRR V0201801N00101220001CN9999999N9+02251+01551101241ADDAA106000091AG10999AY101061GF100991001001999999001001KA1240M+03321MA1999999096261MD1999999+0031MW1021REMSYN017333   10332 58003
0129832360999991984060112004-12150-045000FM-12+0440SBRR V0200501N00261220001CN0500001N9+02541+01451101721ADDAA106000091AG10999AY101061GF100991001001999999001001KA1240N+01631MA1999999096751MD1999999+0241MW1021REMSYN017333   20163 58024
0110832360999991984060118004-12150-045000FM-12+0440SBRR V0201401N00511220001CN0500001N9+03061+01341101301ADDAA106000091AG10999AY101061GF102991021011008001001001MA1999999096361MD1999999+0281MW1021REMSYN011333   58028
0129832360999991984060200004-12150-045000FM-12+0440SBRR V0202301N00151220001CN9999999N9+02011+01371101541ADDAA106000091AG10999AY101061GF100991001001999999001001KA1240M+03131MA1999999096551MD1999999+0291MW1021REMSYN017333   10313 58029
