0129833390999991984010112004-14050-042483FM-12+087299999V0201401N00721045001CN0200001N9+02011+01781101621ADDAA106000091AG10999AY101061GF108991041021004501021999KA1240N+01821MA1999999091821MD1410001+0001MW1021REMSYN017333   20182 58000
0076833390999991984010118004-14050-042483FM-12+087299999V0201401N00511045001CN0200001N9+03391+01651101301ADDAA106000091AG10999AY101061GF108991041051004501021999MA1999999091551MW1021
0129833390999991984010212004-14050-042483FM-12+087299999V0201401N00461004201CN0040001N9+01951+01861101551ADDAA106000091AG10999AY101061GF108991081051004501999999KA1240N+01831MA1999999091751MD1999999-0071MW1101REMSYN017333   20183 59007
0110833390999991984010218004-14050-042483FM-12+087299999V0201401N00511004201CN0200001N9+02241+01671101261ADDAA106000091AG10999AY101061GF106991051021004501021001MA1999999091531MD1999999-0021MW1021REMSYN011333   59002
0135833390999991984010300004-14050-042483FM-12+087299999V0201401N00511004201CN9999999N9+01851+01771101421ADDAA106017091AG10999AY161061GF108991051051004501021999KA1240M+02591MA1999999091611MD1999999-0031MW1401REMSYN023333   10259 59003 60171
0135833390999991984010312004-14050-042483FM-12+087299999V0201401N00461004201CN0200001N9+01941+01621101601ADDAA124017091AG10999AY141061GF106991061021004501001001KA1240N+01681MA1999999091771MD1999999+0021MW1101REMSYN023333   20168 58002 60174
0110833390999991984010318004-14050-042483FM-12+087299999V0201401N00411220001CN0200001N9+02571+01671101321ADDAA106000091AG10999AY101061GF104991031021004501001021MA1999999091581MD1999999+0051MW1021REMSYN011333   58005
0129833390999991984010400004-14050-042483FM-12+087299999V0201401N00671220001CN9999999N9+02241+01731101491ADDAA106000091AG10999AY101061GF102991021031004501001001KA1240M+02631MA1999999091791MD1999999+0111MW1021REMSYN017333   10263 58011
0129833390999991984010412004-14050-042483FM-12+087299999V0201401N00361004201CN0200001N9+02161+01881101641ADDAA106000091AG10999AY101061GF106991061021004501001001KA1240N+01881MA1999999091871MD1999999+0101MW1101REMSYN017333   20188 58010
0096833390999991984010418004-14050-042483FM-12+087299999V0201401N003119999999N0200001N9+02841+01601999999ADDAA106000091AG10999AY101061GF105991999021004501001001MW1021EQDQ01+000042SCOTLCQ02+095343APOSP 
0129833390999991984010500004-14050-042483FM-12+087299999V0201401N00311220001CN9999999N9+02321+01651101321ADDAA106000091AG10999AY101061GF103991031021004501001001KA1240M+02871MA1999999091591MD1999999-0101MW1021REMSYN017333   10287 59010
0129833390999991984010512004-14050-042483FM-12+087299999V0201401N00411004201CN0200001N9+02281+02011101471ADDAA106000091AG10999AY101061GF105991051021004501001001KA1240N+01761MA1999999091741MD1999999-0131MW1101REMSYN017333   20176 59013
0110833390999991984010518004-14050-042483FM-12+087299999V0201401N00361220001CN0200001N9+02881+01641101181ADDAA106000091AG10999AY101061GF103991031021004501001001MA1999999091501MD1999999-0071MW1021REMSYN011333   59007
0129833390999991984010600004-14050-042483FM-12+087299999V0201401N00211220001CN9999999N9+02411+01671101221ADDAA106000091AG10999AY101061GF100991001001999999001001KA1240M+02951MA1999999091521MD1999999-0071MW1021REMSYN017333   10295 59007
0129833390999991984010612004-14050-042483FM-12+087299999V0201401N00211105001CN0200001N9+02471+01921101261ADDAA106000091AG10999AY101061GF105991041021004501001021KA1240N+01791MA1999999091541MD1999999-0201MW1021REMSYN017333   20179 59020
0110833390999991984010618004-14050-042483FM-12+087299999V0201401N00411220001CN0200001N9+03101+01331101931ADDAA106000091AG10999AY101061GF102991021021004501001001MA1999999091511MD1999999-0191MW1021REMSYN011333   59019
0148833390999991984010700004-14050-042483FM-12+087299999V0201801N00101220001CN9999999N9+02501+01501101022ADDAA106000091AG10999AY101061GF103991031021004501001001KA1240M+03151MA1999999091371MD1999999-0151MW1131REMSYN017333   10315 59015EQDQ01+101023APOSLP
0129833390999991984010712004-14050-042483FM-12+087299999V0201401N00571220001CN0200001N9+02541+01831101191ADDAA106000091AG10999AY101061GF103991011021008001001041KA1240N+01961MA1999999091521MD1999999-0021MW1021REMSYN017333   20196 59002
0110833390999991984010718004-14050-042483FM-12+087299999V0200901N00101220001CN0200001N9+03241+01161100821ADDAA106000091AG10999AY101061GF104991041021004501001001MA1999999091311MD1999999-0101MW1021REMSYN011333   59010
0129833390999991984010800004-14050-042483FM-12+087299999V0201401N00821004201CN9999999N9+02561+01451101071ADDAA106000091AG10999AY101061GF105991051021004501001001KA1240M+03271MA1999999091431MD1999999-0061MW1131REMSYN017333   10327 59006
0129833390999991984010812004-14050-042483FM-12+087299999V0209991C00001004201CN0200001N9+02401+01681101321ADDAA106000091AG10999AY101061GF105991051021004501001001KA1240N+01861MA1999999091641MD1999999+0121MW1021REMSYN017333   20186 58012
0127833390999991984010818004-14050-042483FM-12+087299999V0203001N00311004201CN0200001N9+02481+01901101051ADDAA106000491AA299000591AG10999AY161061GF108991051021004501021999MA1999999091361MD1999999+0151MW1101REMSYN017333   58015 69941
0146833390999991984010912004-14050-042483FM-12+087299999V0200901N00261004201CN0040001N9+02031+01851101451ADDAA124000491AA299000591AG10999AY161061GF107991071021004501001001KA1240N+01701MA1999999091681MD1999999+0041MW1101REMSYN023333   20170 58004 69944
0129833390999991984010915004-14050-042483FM-12+087299999V0201401N003619999999N0200001N9+02801+01631100981ADDAA106000091AG10999AY101031GF105991999021004501001001MA1999999091301MD1999999-0061MW1021REMSYN011333   59006EQDQ01+000022SCOTLC
0146833390999991984011000004-14050-042483FM-12+087299999V0200501N00261004201CN9999999N9+01921+01731101311ADDAA106000491AA299000591AG10999AY161061GF108991061021004501021001KA1240M+02831MA1999999091541MD1999999+0021MW1021REMSYN023333   10283 58002 69941
0148833390999991984011012004-14050-042483FM-12+087299999V0201401N00511004201CN0200001N9+02061+01871101451ADDAA106000091AG10999AY101061GF106991061021004501001001KA1240N+01861MA1999999999999MD1999999-0041MW1101REMSYN017333   20186 59004EQDQ01 081643APOSP 
0129833390999991984011018004-14050-042483FM-12+087299999V0200901N00311004201CN0200001N9+02581+01551101091ADDAA106000091AG10999AY101061GF106991051021004501021001MA1999999091392MD1999999+0091MW1021REMSYN011333   58009EQDQ01+091393APOSP 
0129833390999991984011100004-14050-042483FM-12+087299999V0201401N00361045001CN9999999N9+02341+01511101161ADDAA106000091AG10999AY101061GF105991031031004501031001KA1240M+02691MA1999999091441MD1999999-0101MW1021REMSYN017333   10269 59010
0129833390999991984011112004-14050-042483FM-12+087299999V0201401N00361220001CN0200001N9+02201+01761101201ADDAA106000091AG10999AY101061GF102991021021004501001001KA1240N+01781MA1999999091571MD1999999-0071MW1021REMSYN017333   20178 59007
0110833390999991984011118004-14050-042483FM-12+087299999V0200901N00361220001CN0200001N9+03021+01121100971ADDAA106000091AG10999AY101061GF102991021021004501001001MA1999999091341MD1999999-0051MW1021REMSYN011333   59005
0129833390999991984011200004-14050-042483FM-12+087299999V0201401N00511004201CN9999999N9+02621+01301101121ADDAA106000091AG10999AY101061GF106991061021004501001001KA1240M+03041MA1999999091441MD1410001+0001MW1021REMSYN017333   10304 58000
0129833390999991984011212004-14050-042483FM-12+087299999V0200901N00771220001CN0200001N9+02241+01801101391ADDAA106000091AG10999AY101061GF103991031021004501001001KA1240N+01861MA1999999091691MD1999999+0121MW1021REMSYN017333   20186 58012
0110833390999991984011218004-14050-042483FM-12+087299999V0201401N00511220001CN0200001N9+02981+01311101141ADDAA106000091AG10999AY101061GF102991021021004501001001MA1999999091391MD1999999+0051MW1021REMSYN011333   58005
0129833390999991984011300004-14050-042483FM-12+087299999V0201401N00151220001CN9999999N9+02461+01221101141ADDAA106000091AG10999AY101061GF100991001001999999001001KA1240M+03011MA1999999091451MD1999999+0011MW1021REMSYN017333   10301 58001
0148833390999991984011312004-14050-042483FM-12+087299999V0200901N00411220001CN0200001N9+02221+01581101481ADDAA106000091AG10999AY101061GF100991999001999999001001KA1240N+01701MA1999999091751MD1999999+0061MW1021REMSYN017333   20170 58006EQDQ01+000942SCOLCB
0129833390999991984011318004-14050-042483FM-12+087299999V0200901N00411220001CN0200001N9+03051+00821101131ADDAA106000091AG10999AY101061GF100991999001999999001001MA1999999091481MD1999999+0091MW1021REMSYN011333   58009EQDQ01+000942SCOLCB
0129833390999991984011400004-14050-042483FM-12+087299999V0209991C00001220001CN9999999N9+02321+01191101281ADDAA106000091AG10999AY101061GF100991001001999999001001KA1240M+03071MA1999999091151MD1999999+0101MW1021REMSYN017333   10307 58010
0129833390999991984011412004-14050-042483FM-12+087299999V0201401N00461220001CN0200001N9+02311+01371101431ADDAA106000091AG10999AY101061GF100991001001999999001001KA1240N+01581MA1999999091701MD1999999-0051MW1021REMSYN017333   20158 59005
0110833390999991984011418004-14050-042483FM-12+087299999V0200901N00511220001CN0200001N9+03061+01301100951ADDAA106000091AG10999AY101061GF100991001001999999001001MA1999999091561MD1999999-0161MW1021REMSYN011333   59016
0129833390999991984011512004-14050-042483FM-12+087299999V0201401N00621220001CN0200001N9+02321+01501101271ADDAA106000091AG10999AY101061GF100991001001999999001001KA1240N+01751MA1999999091561MD1999999-0141MW1021REMSYN017333   20175 59014
0110833390999991984011518004-14050-042483FM-12+087299999V0200501N00151220001CN0200001N9+03041+00931100881ADDAA106000091AG10999AY101061GF101991011011008001001001MA1999999091261MD1999999-0061MW1021REMSYN011333   59006
0129833390999991984011600004-14050-042483FM-12+087299999V0201401N00261220001CN9999999N9+02431+00921101011ADDAA106000091AG10999AY101061GF100991001001999999001001KA1240M+03091MA1999999091341MD1999999-0061MW1021REMSYN017333   10309 59006
0129833390999991984011612004-14050-042483FM-12+087299999V0201401N00361220001CN0200001N9+02351+01931101321ADDAA106000091AG10999AY101061GF100991001001999999001001KA1240N+01661MA1999999091621MD1999999+0061MW1021REMSYN017333   20166 58006
0110833390999991984011618004-14050-042483FM-12+087299999V0201401N00051220001CN0200001N9+03121+01391100941ADDAA106000091AG10999AY101061GF102991021021004501001001MA1999999091321MD1999999+0061MW1021REMSYN011333   58006
0129833390999991984011700004-14050-042483FM-12+087299999V0209991C00001220001CN9999999N9+02481+01371101081ADDAA106000091AG10999AY101061GF103991021021004501031001KA1240M+03221MA1999999091401MD1999999+0061MW1021REMSYN017333   10322 58006
0129833390999991984011800004-14050-042483FM-12+087299999V0201401N00311220001CN9999999N9+02521+01341101111ADDAA106000091AG10999AY101061GF100991001001999999001001KA1240M+03121MA1999999091441MD1999999+0041MW1021REMSYN017333   10312 58004
0129833390999991984011812004-14050-042483FM-12+087299999V0201401N00461220001CN0200001N9+02361+01711101281ADDAA106000091AG10999AY101061GF100991001001999999001001KA1240N+01821MA1999999091591MD1999999-0031MW1021REMSYN017333   20182 59003
0110833390999991984011818004-14050-042483FM-12+087299999V0201401N00311220001CN0200001N9+03081+01071100971ADDAA106000091AG10999AY101061GF102991021021004501001001MA1999999091351MD1999999+0021MW1021REMSYN011333   58002
0129833390999991984011912004-14050-042483FM-12+087299999V0201401N00311004201CN0040001N9+02191+01941101181ADDAA106000091AG10999AY101061GF106991061021004501001001KA1240N+01981MA1999999091481MD1999999-0111MW1101REMSYN017333   20198 59011
0110833390999991984011918004-14050-042483FM-12+087299999V0201401N00461220001CN0200001N9+03041+01531100761ADDAA106000091AG10999AY101061GF103991031021004501001001MA1999999091131MD1999999-0221MW1021REMSYN011333   59022
0129833390999991984012000004-14050-042483FM-12+087299999V0201401N00461220001CN9999999N9+02571+01551100881ADDAA106000091AG10999AY101061GF103991011021004501001041KA1240M+03101MA1999999091221MD1999999-0251MW1021REMSYN017333   10310 59025
0129833390999991984012012004-14050-042483FM-12+087299999V0200501N00151220001CN0200001N9+02441+01951101061ADDAA106000091AG10999AY101061GF102991021021004501001001KA1240N+01821MA1999999091411MD1999999-0071MW1021REMSYN017333   20182 59007
0110833390999991984012018004-14050-042483FM-12+087299999V0202701N00511004201CN0200001N9+02951+01761100691ADDAA106000091AG10999AY101061GF105991051021004501001001MA1999999091071MD1999999-0061MW1171REMSYN011333   59006
0129833390999991984012100004-14050-042483FM-12+087299999V0202301N00101220001CN9999999N9+02461+01811100751ADDAA106000091AG10999AY191061GF102991021021004501001001KA1240M+03051MA1999999091121MD1999999-0101MW1131REMSYN017333   10305 59010
0129833390999991984012112004-14050-042483FM-12+087299999V0200501N00151220001CN0200001N9+02481+01731101801ADDAA106000091AG10999AY101061GF102991021021004501001001KA1240N+01821MA1999999091411MD1410001+0001MW1021REMSYN017333   20182 58000
0145833390999991984012118004-14050-042483FM-12+087299999V0201401N00211220001CN0200001N9+03221+01481100672ADDAA106000091AG10999AY101061GF104991999021004501001001MA1999999091071MD1410001+0001MW1021REMSYN011333   58000EQDQ01+000022SCOTLCQ02+100673APOSLP
0148833390999991984012212004-14050-042483FM-12+087299999V0200901N00151220001CN0200001N9+02441+01761101191ADDAA106000091AG10999AY101061GF100991999001999999001001KA1240N+01791MA1999999091511MD1999999+0101MW1021REMSYN017333   20179 58010EQDQ01+000942SCOLCB
0110833390999991984012218004-14050-042483FM-12+087299999V0200901N00151220001CN0200001N9+03141+01451100781ADDAA106000091AG10999AY101061GF102991021021004501001001MA1999999091161MD1999999+0091MW1021REMSYN011333   58009
0129833390999991984012300004-14050-042483FM-12+087299999V0201401N00461220001CN9999999N9+02661+01071100821ADDAA106000091AG10999AY101061GF100991001001999999001001KA1240M+03301MA1999999091201MD1999999-0061MW1021REMSYN017333   10330 59006
0129833390999991984012312004-14050-042483FM-12+087299999V0200901N00211004201CN0200001N9+02461+01621101151ADDAA106000091AG10999AY101061GF106991051021004501001041KA1240N+01821MA1999999091501MD1999999-0011MW1021REMSYN017333   20182 59001
0110833390999991984012318004-14050-042483FM-12+087299999V0202701N00101004201CN0200001N9+03001+01781100771ADDAA106000091AG10999AY101061GF106991051021004501021001MA1999999091161MD1410001+0001MW1021REMSYN011333   58000
0129833390999991984012400004-14050-042483FM-12+087299999V0202301N00411220001CN9999999N9+02481+01701100811ADDAA106000091AG10999AY101061GF100991001001999999001001KA1240M+03091MA1999999091171MD1999999-0031MW1021REMSYN017333   10309 59003
0129833390999991984012412004-14050-042483FM-12+087299999V0203601N00051004201CN0200001N9+02441+02031101101ADDAA106000091AG10999AY101061GF106991051011004501031001KA1240N+01901MA1999999091411MD1999999-0091MW1051REMSYN017333   20190 59009
0110833390999991984012418004-14050-042483FM-12+087299999V0202701N00211004201CN0200001N9+03141+01731100571ADDAA106000091AG10999AY101061GF106991051021004501001021MA1999999090981MD1999999-0181MW1171REMSYN011333   59018
0135833390999991984012500004-14050-042483FM-12+087299999V0202301N00211004201CN9999999N9+02131+01841100891ADDAA106019091AG10999AY161061GF105991051021004501001001KA1240M+03211MA1999999091211MD1999999+0041MW1131REMSYN023333   10321 58004 60191
0115833390999991984012512004-14050-042483FM-12+087299999V0201401N00511004201CN0040001N9+02001+01851101231ADDAA124020091AG10999AY161061GF108991051051004501021999KA1240N+01821MA1999999091471MW1101REMSYN017333   20182 60204
0110833390999991984012518004-14050-042483FM-12+087299999V0201401N00461220001CN0200001N9+02841+01731100751ADDAA106000091AG10999AY101061GF104991021021004501031041MA1999999091121MD1999999+0141MW1021REMSYN011333   58014
0129833390999991984012600004-14050-042483FM-12+087299999V0201401N00461220001CN9999999N9+02451+01291100921ADDAA106000091AG10999AY101061GF102991021021004501001001KA1240M+02881MA1999999091221MD1999999+0011MW1021REMSYN017333   10288 58001
0129833390999991984012612004-14050-042483FM-12+087299999V0201401N00311220001CN0200001N9+02271+01661101211ADDAA106000091AG10999AY101061GF100991001001999999001001KA1240N+01681MA1999999091511MD1999999+0041MW1021REMSYN017333   20168 58004
0110833390999991984012618004-14050-042483FM-12+087299999V0201401N00261220001CN0200001N9+99999+99999100821ADDAA106000091AG10999AY101061GF102991021021008001001001MA1999999091201MD1999999+0081MW1021REMSYN011333   58008
0129833390999991984012700004-14050-042483FM-12+087299999V0201801N00151220001CN9999999N9+02411+01281100951ADDAA106000091AG10999AY101061GF100991001001999999001001KA1240M+03091MA1999999091271MD1999999+0051MW1021REMSYN017333   10309 58005
0129833390999991984012712004-14050-042483FM-12+087299999V0201401N00361004201CN0200001N9+02301+01811101281ADDAA106000091AG10999AY101061GF106991051021004501021001KA1240N+01971MA1999999091271MD1999999+0061MW1021REMSYN017333   20197 58006
0110833390999991984012718004-14050-042483FM-12+087299999V0201401N00261220001CN0200001N9+03101+01041100841ADDAA106000091AG10999AY101061GF104991031021004501001041MA1999999091241MD1999999+0041MW1021REMSYN011333   58004
0129833390999991984012800004-14050-042483FM-12+087299999V0201401N00311220001CN9999999N9+02541+00711100931ADDAA106000091AG10999AY101061GF100991001001999999001001KA1240M+03131MA1999999091281MD1999999+0011MW1021REMSYN017333   10313 58001
0129833390999991984012812004-14050-042483FM-12+087299999V0201401N00511220001CN0200001N9+02301+01611101181ADDAA106000091AG10999AY101061GF100991001001999999001001KA1240N+01641MA1999999091491MD1999999-0081MW1021REMSYN017333   20164 59008
0110833390999991984012818004-14050-042483FM-12+087299999V0200901N00511220001CN0200001N9+02991+00931100841ADDAA106000091AG10999AY101061GF103991031021004501001001MA1999999091211MD1999999-0031MW1021REMSYN011333   59003
0129833390999991984012900004-14050-042483FM-12+087299999V0201401N00151004201CN9999999N9+02601+01141100901ADDAA106000091AG10999AY101061GF105991051021004501001001KA1240M+03091MA1999999091571MD1999999+0051MW1021REMSYN017333   10309 58005
0129833390999991984012912004-14050-042483FM-12+087299999V0201401N00771220001CN0200001N9+02171+01741101271ADDAA106000091AG10999AY101061GF102991021021004501001001KA1240N+01881MA1999999091571MD1999999+0081MW1021REMSYN017333   20188 58008
0110833390999991984012918004-14050-042483FM-12+087299999V0201401N00511220001CN0200001N9+03101+00811100861ADDAA106000091AG10999AY101061GF103991031021004501001001MA1999999091251MD1999999+0041MW1021REMSYN011333   58004
0129833390999991984013000004-14050-042483FM-12+087299999V0201401N00101220001CN9999999N9+02641+00931101081ADDAA106000091AG10999AY101061GF100991001001999999001001KA1240M+03171MA1999999091401MD1999999+0071MW1021REMSYN017333   10317 58007
0129833390999991984013012004-14050-042483FM-12+087299999V0201401N00461220001CN0200001N9+02321+01721101311ADDAA106000091AG10999AY101061GF102991011021004501001041KA1240N+01881MA1999999091621MD1999999+0051MW1021REMSYN017333   20188 58005
0110833390999991984013018004-14050-042483FM-12+087299999V0201401N00411220001CN0200001N9+03081+00911100911ADDAA106000091AG10999AY101061GF102991021011004501001001MA1999999091311MD1999999+0061MW1021REMSYN011333   58006
0076833390999991984013100004-14050-042483FM-12+087299999V0201801N00311220001CN9999999N9+02441+01101101011ADDAA106000091AG10999AY101061GF100991001001999999001001MA1999999091341MW1021
0076833390999991984013112004-14050-042483FM-12+087299999V0201401N00821220001CN0200001N9+02261+01591101301ADDAA106000091AG10999AY101061GF100991001001999999001001MA1999999091591MW1021
0110833390999991984013118004-14050-042483FM-12+087299999V0200901N00511220001CN0200001N9+03131+00881100901ADDAA106000091AG10999AY101061GF102991021011004501001001MA1999999091291MD1999999-0021MW1021REMSYN011333   59002
0129833390999991984020100004-14050-042483FM-12+087299999V0209991C00001220001CN9999999N9+02571+01121101081ADDAA106000091AG10999AY101061GF100991001001999999001001KA1240M+03161MA1999999091401MD1999999+0061MW1021REMSYN017333   10316 58006
0148833390999991984020112004-14050-042483FM-12+087299999V0201401N00461220001CN0200001N9+02421+01771101311ADDAA106000091AG10999AY101061GF100991999001999999001001KA1240N+01941MA1999999091611MD1999999+0031MW1021REMSYN017333   20194 58003EQDQ01+000942SCOLCB
0110833390999991984020118004-14050-042483FM-12+087299999V0201401N00511220001CN0200001N9+03151+01411100871ADDAA106000091AG10999AY101061GF102991021021004501001001MA1999999091271MD1999999+0021MW1021REMSYN011333   58002
0129833390999991984020200004-14050-042483FM-12+087299999V0200901N00461220001CN9999999N9+02641+01451100921ADDAA106000091AG10999AY101061GF100991001001999999001001KA1240M+03211MA1999999091261MD1999999-0141MW1021REMSYN017333   10321 59014
0129833390999991984020212004-14050-042483FM-12+087299999V0200901N00621220001CN0200001N9+02451+01791101211ADDAA106000091AG10999AY101061GF103991031021004501001001KA1240N+02001MA1999999091551MD1999999-0061MW1021REMSYN017333   20200 59006
0110833390999991984020218004-14050-042483FM-12+087299999V0201401N00511220001CN0200001N9+03131+01351100791ADDAA106000091AG10999AY101061GF102991021021004501001001MA1999999091201MD1999999-0071MW1021REMSYN011333   59007
0129833390999991984020300004-14050-042483FM-12+087299999V0201401N00671220001CN9999999N9+02481+01271100921ADDAA106000091AG10999AY101061GF102991021021004501001001KA1240M+03191MA1999999091261MD1410001+0001MW1021REMSYN017333   10319 58000
0129833390999991984020312004-14050-042483FM-12+087299999V0201401N00461220001CN0200001N9+02251+01731101201ADDAA106000091AG10999AY101061GF102991021021004501001001KA1240N+01821MA1999999091501MD1999999-0051MW1021REMSYN017333   20182 59005
0110833390999991984020318004-14050-042483FM-12+087299999V0200901N00621220001CN0200001N9+03051+01321100811ADDAA106000091AG10999AY101061GF103991011081004501031011MA1999999091201MD1410001+0001MW1021REMSYN011333   58000
0146833390999991984020412004-14050-042483FM-12+087299999V0200901N00821004201CN0200001N9+02231+01841101211ADDAA106000091AA224011091AG10999AY101061GF106991061021004501001001KA1240N+01821MA1999999091481MD1999999-0021MW1021REMSYN023333   20182 59002 60114
0110833390999991984020418004-14050-042483FM-12+087299999V0200901N00411220001CN0200001N9+02971+01501100841ADDAA106000091AG10999AY101061GF102991021021004501001001MA1999999091221MD1999999+0021MW1021REMSYN011333   58002
0129833390999991984020612004-14050-042483FM-12+087299999V0201401N00411004201CN0040001N9+02281+02001101171ADDAA106000091AG10999AY101061GF106991061021004501001001KA1240N+02041MA1999999091481MD1999999-0081MW1101REMSYN017333   20204 59008
0110833390999991984020618004-14050-042483FM-12+087299999V0200901N00461004201CN0200001N9+02701+01801100801ADDAA106000091AG10999AY101061GF106991061021004501001001MA1999999091161MD1999999-0101MW1021REMSYN011333   59010
0129833390999991984020800004-14050-042483FM-12+087299999V0209991C00001220001CN9999999N9+02161+01681101091ADDAA106000091AG10999AY101061GF102991021021004501001001KA1240M+03031MA1999999091371MD1999999+0081MW1021REMSYN017333   10303 58008
0129833390999991984020812004-14050-042483FM-12+087299999V0201401N00671220001CN0200001N9+02301+01851101401ADDAA106000091AG10999AY101061GF102991011021004501001041KA1240N+01901MA1999999091661MD1999999+0211MW1021REMSYN017333   20190 58021
0110833390999991984020818004-14050-042483FM-12+087299999V0200501N00361220001CN0200001N9+03021+01291101021ADDAA106000091AG10999AY101061GF103991031021004501001021MA1999999091391MD1999999+0201MW1021REMSYN011333   58020
0129833390999991984020900004-14050-042483FM-12+087299999V0201401N00361220001CN9999999N9+02521+01461101211ADDAA106000091AG10999AY101061GF102991021021004501001001KA1240M+03041MA1999999091521MD1999999+0151MW1021REMSYN017333   10304 58015
0129833390999991984020912004-14050-042483FM-12+087299999V0201401N00871220001CN0200001N9+02241+01641101451ADDAA106000091AG10999AY101061GF103991031021004501001001KA1240N+01961MA1999999091741MD1999999+0061MW1021REMSYN017333   20196 58006
0110833390999991984020918004-14050-042483FM-12+087299999V0201401N00511220001CN0200001N9+02971+01381101071ADDAA106000091AG10999AY101061GF102991021021004501001001MA1999999091441MD1999999+0051MW1021REMSYN011333   58005
0129833390999991984021000004-14050-042483FM-12+087299999V0201801N00151220001CN9999999N9+02501+01351101011ADDAA106000091AG10999AY101061GF103991021021004501031001KA1240M+03011MA1999999091801MD1999999-0121MW1021REMSYN017333   10301 59012
0129833390999991984021012004-14050-042483FM-12+087299999V0201401N00571220001CN0200001N9+02481+00871101301ADDAA106000091AG10999AY101061GF103991021021004501031001KA1240N+02101MA1999999091621MD1999999-0121MW1021REMSYN017333   20210 59012
0110833390999991984021018004-14050-042483FM-12+087299999V0201401N00671004201CN0200001N9+02931+01601100921ADDAA106000091AG10999AY101061GF106991061021004501001001MA1999999091301MD1999999-0141MW1021REMSYN011333   59014
0129833390999991984021100004-14050-042483FM-12+087299999V0201401N00461220001CN9999999N9+02281+01901101261ADDAA106000091AG10999AY101061GF104991041021004501001001KA1240M+03111MA1999999091561MD1999999+0161MW1021REMSYN017333   10311 58016
0129833390999991984021112004-14050-042483FM-12+087299999V0201401N00511004201CN0200001N9+02301+01851101321ADDAA106000091AG10999AY101061GF106991061021004501001001KA1240N+01961MA1999999091601MD1999999-0021MW1021REMSYN017333   20196 59002
0110833390999991984021118004-14050-042483FM-12+087299999V0200501N00411220001CN0200001N9+03001+01531100781ADDAA106000091AG10999AY101061GF104991041021004501001001MA1999999091161MD1999999-0161MW1021REMSYN011333   59016
0129833390999991984021200004-14050-042483FM-12+087299999V0201401N00511045001CN9999999N9+02541+01601101041ADDAA106000091AG10999AY101061GF106991041021004501031001KA1240M+03071MA1999999091361MD1999999-0201MW1021REMSYN017333   10307 59020
0129833390999991984021312004-14050-042483FM-12+087299999V0200901N00821220001CN0200001N9+02421+01721101191ADDAA106000091AG10999AY101061GF102991021021004501001001KA1240N+01921MA1999999091491MD1999999-0051MW1021REMSYN017333   20192 59005
0110833390999991984021318004-14050-042483FM-12+087299999V0200901N00671220001CN0200001N9+03041+01371100881ADDAA106000091AG10999AY101061GF102991021021004501001001MA1999999091251MD1999999+0111MW1021REMSYN011333   58011
0129833390999991984021400004-14050-042483FM-12+087299999V0201401N00511220001CN9999999N9+02321+01761101071ADDAA106000091AG10999AY101061GF102991021021004501001001KA1240M+03011MA1999999091381MD1999999+0031MW1021REMSYN017333   10301 58003
0129833390999991984021412004-14050-042483FM-12+087299999V0200901N00771004201CN0200001N9+02331+01831101271ADDAA106000091AG10999AY101061GF106991061021004501001001KA1240N+01921MA1999999091551MD1999999+0061MW1021REMSYN017333   20192 58006
0110833390999991984021418004-14050-042483FM-12+087299999V0200901N00411004201CN0200001N9+03031+01431100841ADDAA106000091AG10999AY101061GF105991051021004501001001MA1999999091221MD1999999-0031MW1021REMSYN011333   59003
0129833390999991984021512004-14050-042483FM-12+087299999V0201401N00721004201CN0200001N9+02221+01731101271ADDAA106000091AG10999AY101061GF106991061021004501001001KA1240N+01901MA1999999091551MD1410001+0001MW1021REMSYN017333   20190 58000
0110833390999991984021518004-14050-042483FM-12+087299999V0200901N00571220001CN0200001N9+02921+01571100951ADDAA106000091AG10999AY101061GF103991031021004501001001MA1999999091291MD1999999+0071MW1021REMSYN011333   58007
0129833390999991984021600004-14050-042483FM-12+087299999V0201401N00571220001CN9999999N9+02571+01611100961ADDAA106000091AG10999AY101061GF100991001001999999001001KA1240M+02991MA1999999091291MD1999999-0011MW1021REMSYN017333   10299 59001
0129833390999991984021612004-14050-042483FM-12+087299999V0201401N00511004201CN0200001N9+02271+01791101291ADDAA106000091AG10999AY101061GF106991061021004501001001KA1240N+01821MA1999999091591MD1999999+0041MW1021REMSYN017333   20182 58004
0110833390999991984021618004-14050-042483FM-12+087299999V0200501N00511220001CN0200001N9+03191+01051100871ADDAA106000091AG10999AY101061GF104991041021004501001001MA1999999091161MD1999999-0031MW1021REMSYN011333   59003
0129833390999991984021700004-14050-042483FM-12+087299999V0201401N00361220001CN9999999N9+02661+01191100881ADDAA106000091AG10999AY101061GF102991021021004501001001KA1240M+03221MA1999999091251MD1999999-0041MW1021REMSYN017333   10322 59004
0148833390999991984021712004-14050-042483FM-12+087299999V0201401N00461220001CN0200001N9+02421+01911101171ADDAA106000091AG10999AY101061GF100991999001999999001001KA1240N+01981MA1999999091521MD1999999-0071MW1021REMSYN017333   20198 59007EQDQ01+000942SCOLCB
0110833390999991984021718004-14050-042483FM-12+087299999V0201401N00311220001CN0200001N9+03241+01311100741ADDAA106000091AG10999AY101061GF102991021021004501001001MA1999999091151MD1999999-0111MW1021REMSYN011333   59011
0129833390999991984021800004-14050-042483FM-12+087299999V0201401N00211220001CN9999999N9+02691+01341100821ADDAA106000091AG10999AY101061GF102991021021004501001001KA1240M+03331MA1999999091201MD1999999-0051MW1021REMSYN017333   10333 59005
0081833390999991984021812004-14050-042483FM-12+087299999V0200901N00361220001CN0040001N9+02591+01821101001ADDAA106000091AG10999GF102991999001004501001001MA1999999091381EQDQ01+000002SCOTLC
0110833390999991984021818004-14050-042483FM-12+087299999V0202301N00151220001CN0200001N9+03301+01311100571ADDAA106000091AG10999AY101061GF104991041021004501001001MA1999999091021MD1999999-0151MW1021REMSYN011333   59015
0129833390999991984021900004-14050-042483FM-12+087299999V0201401N00511004201CN9999999N9+02641+01511100781ADDAA106000091AG10999AY101061GF105991051021004501001001KA1240M+03331MA1999999091171MD1999999-0031MW1021REMSYN017333   10333 59003
0129833390999991984021912004-14050-042483FM-12+087299999V0200901N00671220001CN0200001N9+02481+01571101121ADDAA106000091AG10999AY101061GF100991001001999999001001KA1240N+02041MA1999999091471MD1999999+0091MW1021REMSYN017333   20204 58009
0110833390999991984021918004-14050-042483FM-12+087299999V0200901N00411220001CN0200001N9+03131+01451100771ADDAA106000091AG10999AY101061GF103991031021004501001001MA1999999091181MD1999999+0161MW1021REMSYN011333   58016
0129833390999991984022012004-14050-042483FM-12+087299999V0201401N00671004201CN0200001N9+02361+01911101341ADDAA106000091AG10999AY101061GF106991051021004501021001KA1240N+02001MA1999999091651MD1999999+0181MW1021REMSYN017333   20200 58018
0110833390999991984022018004-14050-042483FM-12+087299999V0201801N00051004201CN0200001N9+02881+01911100991ADDAA106000091AG10999AY101061GF105991051021004501001001MA1999999091351MD1999999+0151MW1021REMSYN011333   58015
0129833390999991984022100004-14050-042483FM-12+087299999V0201401N00821045001CN9999999N9+02241+01821101201ADDAA106000091AG10999AY101061GF105991031021004501021001KA1240M+02971MA1999999091471MD1999999+0211MW1021REMSYN017333   10297 58021
0129833390999991984022112004-14050-042483FM-12+087299999V0200901N00821004201CN0040001N9+02271+01901101321ADDAA106000091AG10999AY101061GF107991071021004501001001KA1240N+01901MA1999999091591MD1999999-0061MW1101REMSYN017333   20190 59006
0110833390999991984022118004-14050-042483FM-12+087299999V0200901N00361004201CN0200001N9+02971+01681100951ADDAA106000091AG10999AY101061GF105991051021004501001001MA1999999091291MD1999999-0061MW1021REMSYN011333   59006
0110833390999991984022218004-14050-042483FM-12+087299999V0201401N00461220001CN0200001N9+03091+01501100821ADDAA106000091AG10999AY101061GF104991041021004501001001MA1999999091451MD1999999-0081MW1021REMSYN011333   59008
0114833390999991984022312004-14050-042483FM-12+087299999V0202401N00461004201CN0200001N9+99999+99999101091ADDAA106000091AG10999AY101061GF106991061021004501001001KA1240N+01851MD1999999+0011MW1021REMSYN017333   20185 58001
0110833390999991984022318004-14050-042483FM-12+087299999V0201401N00411004201CN0200001N9+03021+00971100821ADDAA106000091AG10999AY101061GF106991051021004501021001MA1999999091181MD1999999+0091MW1021REMSYN011333   58009
0129833390999991984022400004-14050-042483FM-12+087299999V0201401N00361220001CN9999999N9+02481+01601100901ADDAA106000091AG10999AY101061GF100991001001999999001001KA1240M+03151MA1999999091241MD1999999-0261MW1021REMSYN017333   10315 59026
0129833390999991984022412004-14050-042483FM-12+087299999V0201401N00671004201CN0200001N9+02361+01641101231ADDAA106000091AG10999AY101061GF106991051021004501021001KA1240N+01951MA1999999091541MD1999999-0091MW1021REMSYN017333   20195 59009
0110833390999991984022418004-14050-042483FM-12+087299999V0200901N00311004201CN0040001N9+02861+01081100811ADDAA106000091AG10999AY101061GF107991061021004501041999MA1999999091181MD1410001+0001MW1171REMSYN011333   58000
0129833390999991984022500004-14050-042483FM-12+087299999V0201401N00411045001CN9999999N9+02321+01701100961ADDAA106000091AG10999AY101061GF108991041021004501021999KA1240M+02991MA1999999091281MD1999999+0041MW1021REMSYN017333   10299 58004
0129833390999991984022512004-14050-042483FM-12+087299999V0200901N00511220001CN0200001N9+02401+01501101131ADDAA106000091AG10999AY101061GF105991021031004501001011KA1240N+01961MA1999999091441MD1999999-0101MW1021REMSYN017333   20196 59010
0110833390999991984022518004-14050-042483FM-12+087299999V0201401N00461045001CN0200001N9+03081+01221100671ADDAA106000091AG10999AY101061GF106991041021004501021041MA1999999091061MD1999999-0221MW1021REMSYN011333   59022
0129833390999991984022600004-14050-042483FM-12+087299999V0201401N00411220001CN9999999N9+02551+01311100901ADDAA106000091AG10999AY101061GF100991001001999999001001KA1240M+03151MA1999999091261MD1999999-0021MW1021REMSYN017333   10315 59002
0129833390999991984022612004-14050-042483FM-12+087299999V0201401N00411220001CN9999999N9+02341+01301101211ADDAA106000091AG10999AY101061GF102991001001999999001011KA1240N+01831MA1999999091531MD1999999+0091MW1021REMSYN017333   20183 58009
0096833390999991984022618004-14050-042483FM-12+087299999V0200901N00621220001CN0006001N9+03071+01021100841ADDAA106000091AG10999GF105991021021004501001041MA1999999091231MD1999999+0171REMSYN011333   58017
0129833390999991984022700004-14050-042483FM-12+087299999V0201401N00261220001CN9999999N9+02561+01171100971ADDAA106000091AG10999AY101061GF100991001001999999001001KA1240M+03111MA1999999091311MD1999999+0051MW1021REMSYN017333   10311 58005
0129833390999991984022712004-14050-042483FM-12+087299999V0200501N00621220001CN0200001N9+02361+01541101331ADDAA106000091AG10999AY101061GF102991011011004501001041KA1240N+01941MA1999999091641MD1999999+0111MW1021REMSYN017333   20194 58011
0110833390999991984022718004-14050-042483FM-12+087299999V0200501N00511220001CN0200001N9+03191+00811101001ADDAA106000091AG10999AY101061GF102991021021004501001001MA1999999091391MD1999999+0161MW1021REMSYN011333   58016
0129833390999991984022800004-14050-042483FM-12+087299999V0200501N00511220001CN9999999N9+02581+01691101141ADDAA106000091AG10999AY101061GF102991021021004501001001KA1240M+03231MA1999999091461MD1999999+0151MW1131REMSYN017333   10323 58015
0129833390999991984022812004-14050-042483FM-12+087299999V0200901N00771220001CN0200001N9+02461+01731101531ADDAA106000091AG10999AY101061GF102991021021004501001001KA1240N+01961MA1999999091831MD1999999+0191MW1021REMSYN017333   20196 58019
0110833390999991984022818004-14050-042483FM-12+087299999V0203601N00511220001CN0200001N9+03241+01041101151ADDAA106000091AG10999AY101061GF102991021021004501001001MA1999999091531MD1999999+0131MW1021REMSYN011333   58013
0129833390999991984022900004-14050-042483FM-12+087299999V0200501N00461220001CN9999999N9+02761+01321101161ADDAA106000091AG10999AY101061GF102991021021004501001001KA1240M+03251MA1999999091521MD1999999+0061MW1021REMSYN017333   10325 58006
0129833390999991984022910004-14050-042483FM-12+087299999V0200501N00721220001CN0200001N9+02341+01721101411ADDAA106000091AG10999AY101999GF103991031021004501001001KA1240N+02001MA1999999091731MD1999999-0101MW1021REMSYN017333   20200 59010
0129833390999991984022912004-14050-042483FM-12+087299999V0200501N00721220001CN0200001N9+02341+01721101411ADDAA106000091AG10999AY101061GF103991031021004501001001KA1240N+02001MA1999999091731MD1999999-0101MW1021REMSYN017333   20200 59010
0110833390999991984022918004-14050-042483FM-12+087299999V0200501N00571220001CN0200001N9+03141+01411101981ADDAA106000091AG10999AY101061GF102991021021004501001001MA1999999091351MD1999999-0181MW1021REMSYN011333   59018
0129833390999991984030100004-14050-042483FM-12+087299999V0200501N00621220001CN9999999N9+02401+01821101191ADDAA106000091AG10999AY101061GF103991031021004501001001KA1240M+03171MA1999999091491MD1999999-0031MW1131REMSYN017333   10317 59003
0076833390999991984030112004-14050-042483FM-12+087299999V0200501N00571004201CN0200001N9+02351+01691101391ADDAA106000091AG10999AY101061GF106991061021004501001001MA1999999091671MW1021
0114833390999991984030118004-14050-042483FM-12+087299999V0200501N00411105001CN0200001N9+03101+01241100981ADDAA106000091AG10999AY101061GF105991041021004501001021MD1999999+0011MW1021REMSYN011333   58001EQDQ01+095733APOSP 
0129833390999991984030200004-14050-042483FM-12+087299999V0200501N00511220001CN9999999N9+02581+01661101121ADDAA106000091AG10999AY101061GF100991001001999999001001KA1240M+03171MA1999999091451MD1999999-0041MW1021REMSYN017333   10317 59004
0129833390999991984030212004-14050-042483FM-12+087299999V0200501N00821004201CN0200001N9+02401+01631101451ADDAA106000091AG10999AY101061GF106991051021004501041001KA1240N+01901MA1999999091691MD1999999+0021MW1021REMSYN017333   20190 58002
0110833390999991984030218004-14050-042483FM-12+087299999V0200501N00511004201CN0200001N9+03121+00701101081ADDAA106000091AG10999AY101061GF106991051021004501021001MA1999999091451MD1999999+0091MW1021REMSYN011333   58009
0129833390999991984030300004-14050-042483FM-12+087299999V0200901N00101220001CN9999999N9+02641+01091101211ADDAA106000091AG10999AY101061GF102991021021004501001001KA1240M+03171MA1999999091451MD1410001+0001MW1021REMSYN017333   10317 58000
0129833390999991984030312004-14050-042483FM-12+087299999V0200501N00671220001CN0200001N9+02461+01781101321ADDAA106000091AG10999AY101061GF102991021021004501001001KA1240N+02441MA1999999091851MD1999999-0051MW1021REMSYN017333   20244 59005
0110833390999991984030318004-14050-042483FM-12+087299999V0200501N00511220001CN0200001N9+03141+01451100901ADDAA106000091AG10999AY101061GF104991041021004501001001MA1999999091301MD1999999-0151MW1021REMSYN011333   59015
0164833390999991984030400004-14050-042483FM-12+087299999V0200501N00511220001CN9999999N9+02721+01351101001ADDAA106000091AG10999AY101061GF100991001001999999001001KA1240M+03201MA1999999999999MD1999999-0081MW1021REMSYN017333   10320 59008EQDQ01+098373APOSP Q02 098373APOSP 
0129833390999991984030412004-14050-042483FM-12+087299999V0200501N00361220001CN0200001N9+02371+01731101251ADDAA106000091AG10999AY101061GF103991011021008001001041KA1240N+01991MA1999999091591MD1999999-0031MW1021REMSYN017333   20199 59003
0110833390999991984030418004-14050-042483FM-12+087299999V0200501N00461220001CN0200001N9+03161+01471100801ADDAA106000091AG10999AY101061GF103991031021004501001001MA1999999091211MD1999999-0091MW1021REMSYN011333   59009
0129833390999991984030500004-14050-042483FM-12+087299999V0202301N00101220001CN9999999N9+02501+01671101021ADDAA106000091AG10999AY101061GF102991021021004501001001KA1240M+03231MA1999999091351MD1999999-0021MW1021REMSYN017333   10323 59002
0129833390999991984030512004-14050-042483FM-12+087299999V0200501N00311220001CN0200001N9+02541+01881101321ADDAA106000091AG10999AY101061GF102991021021004501001001KA1240N+02031MA1999999091641MD1999999+0051MW1021REMSYN017333   20203 58005
0116833390999991984030600004-14050-042483FM-12+087299999V0200901N00151220001CN9999999N9+02681+01051100791ADDAA106000091AG10999AY101061GF100991001001999999001001MA1999999091181MD1999999-0191MW1021REMSYN017333   10633 59019
0129833390999991984030612004-14050-042483FM-12+087299999V0200501N00211220001CN0200001N9+02661+01771101141ADDAA106000091AG10999AY101061GF105991041011004501001041KA1240N+01901MA1999999091511MD1999999-0131MW1021REMSYN017333   20190 59013
0110833390999991984030618004-14050-042483FM-12+087299999V0201401N00261220001CN0190001N9+03201+01461100641ADDAA106000091AG10999AY101061GF104991041021004501001001MA1999999090851MD1999999-0061MW1021REMSYN011333   59006
0129833390999991984030700004-14050-042483FM-12+087299999V0200901N00051220001CN9999999N9+02831+01101100811ADDAA106000091AG10999AY101061GF102991021021004501001001KA1240M+03441MA1999999091231MD1999999+0051MW1021REMSYN017333   10344 58005
0129833390999991984030712004-14050-042483FM-12+087299999V0200501N00151004201CN0200001N9+02561+01831101141ADDAA106000091AG10999AY101061GF106991051011004501001021KA1240N+01961MA1999999091521MD1999999+0041MW1051REMSYN017333   20196 58004
0110833390999991984030718004-14050-042483FM-12+087299999V0200901N00051004201CN0200001N9+03281+01531100861ADDAA106000091AG10999AY101061GF107991071021004501001001MA1999999091111MD1999999+0021MW1021REMSYN011333   58002
0129833390999991984030800004-14050-042483FM-12+087299999V0202301N00151004201CN9999999N9+02741+01441100871ADDAA106000091AG10999AY101061GF108991051021004501021999KA1240M+03361MA1999999091261MD1999999+0031MW1131REMSYN017333   10336 58003
0129833390999991984030812004-14050-042483FM-12+087299999V0203201N00311004201CN0200001N9+02541+02041101091ADDAA106000091AG10999AY101061GF106991051021004501001021KA1240N+02121MA1999999091461MD1999999+0061MW1021REMSYN017333   20212 58006
0129833390999991984030813004-14050-042483FM-12+087299999V0203201N00311004201CN0200001N9+02541+02041101091ADDAA106000091AG10999AY101011GF106991051021004501001021KA1240N+02121MA1999999091461MD1999999+0061MW1021REMSYN017333   20212 58006
0076833390999991984030818004-14050-042483FM-12+087299999V0202301N00151007501CN0200001N9+03061+01701100721ADDAA106000091AG10999AY101061GF106991051021008001021001MA1999999091141MW1021
0129833390999991984030900004-14050-042483FM-12+087299999V0203201N00311004201CN9999999N9+02341+01671100961ADDAA106000091AG10999AY191061GF108991051021004501021999KA1240M+03151MA1999999091301MD1999999+0041MW1131REMSYN017333   10315 58004
0076833390999991984030912004-14050-042483FM-12+087299999V0200501N00411004201CN0040001N9+02071+01991101211ADDAA106000091AG10999AY101061GF108991081051004501999999MA1999999091481MW1421
0116833390999991984030918004-14050-042483FM-12+087299999V0200501N00101220001CN0200001N9+02771+01831100681ADDAA106000391AG10999AY191061GF103991031021004501001001MA1999999091071MD1999999-0071MW1021REMSYN017333   59007 69931
0148833390999991984031000004-14050-042483FM-12+087299999V0202301N001019999999N9999999N9+02361+02071100911ADDAA106000091AG10999AY191061GF105991999021004501001001KA1240M+02951MA1999999091211MD1999999-0091MW1131REMSYN017333   10295 59009EQDQ01+000012SCOTLC
0135833390999991984031012004-14050-042483FM-12+087299999V0202701N00311004201CN0200001N9+02091+01991101181ADDAA124020091AG10999AY161061GF108991051021004501021999KA1240N+02131MA1999999091461MD1999999-0021MW1021REMSYN023333   20213 59002 60204
0110833390999991984031018004-14050-042483FM-12+087299999V0203201N00311004201CN0200001N9+02881+01951100731ADDAA106000091AG10999AY101061GF105991051021004501001001MA1999999091101MD1999999+0031MW1021REMSYN011333   58003
0129833390999991984031112004-14050-042483FM-12+087299999V0203201N00211004201CN0200001N9+02541+02021101121ADDAA106000091AG10999AY101061GF105991051021004501001001KA1240N+02021MA1999999091451MD1999999-0011MW1021REMSYN017333   20202 59001
0110833390999991984031118004-14050-042483FM-12+087299999V0202301N00311004201CN0200001N9+03001+01811100651ADDAA106000091AG10999AY101061GF106991051021004501001041MA1999999091051MD1999999-0051MW1021REMSYN011333   59005
0129833390999991984031200004-14050-042483FM-12+087299999V0202301N00411004201CN9999999N9+02581+01851100891ADDAA106000091AG10999AY101061GF105991051021004501001001KA1240M+03051MA1999999091261MD1999999-0051MW1131REMSYN017333   10305 59005
0135833390999991984031212004-14050-042483FM-12+087299999V0200501N00411004201CN0040001N9+02221+01931101211ADDAA124001091AG10999AY191061GF106991061021004501001001KA1240N+01921MA1999999091521MD1999999-0131MW1101REMSYN023333   20192 59013 60014
0110833390999991984031218004-14050-042483FM-12+087299999V0200501N00261004201CN0200001N9+02971+01741100711ADDAA106000091AG10999AY101061GF105991051021004501001001MA1999999091091MD1999999+0041MW1171REMSYN011333   58004
0129833390999991984031300004-14050-042483FM-12+087299999V0203601N00211004201CN9999999N9+02241+01821101141ADDAA106000091AG10999AY191061GF108991051021004501021999KA1240M+03031MA1999999091431MD1999999+0141MW1131REMSYN017333   10303 58014
0129833390999991984031312004-14050-042483FM-12+087299999V0200501N00101004201CN0200001N9+02281+01981101151ADDAA106000091AG10999AY101061GF106991061021004501001001KA1240N+01931MA1999999091441MD1999999-0031MW1101REMSYN017333   20193 59003
0110833390999991984031318004-14050-042483FM-12+087299999V0200901N00051004201CN0040001N9+02681+01841100801ADDAA106000091AG10999AY101061GF106991051021004501021001MA1999999091161MD1999999+0071MW1021REMSYN011333   58007
0135833390999991984031400004-14050-042483FM-12+087299999V0209991C00001004201CN9999999N9+02281+02091101121ADDAA106000391AG10999AY161061GF108991061021004501021999KA1240M+02891MA1999999091421MD1999999-0011MW1131REMSYN023333   10289 59001 69931
0135833390999991984031412004-14050-042483FM-12+087299999V0200501N00621004201CN0040001N9+02061+01981101331ADDAA124005091AG10999AY191061GF108991081051004501999999KA1240N+01981MA1999999091581MD1999999+0141MW1501REMSYN023333   20198 58014 60054
0129833390999991984031500004-14050-042483FM-12+087299999V0200901N00261004201CN9999999N9+02161+01921101151ADDAA106000091AG10999AY101061GF105991051021004501091001KA1240M+02391MA1999999091411MD1999999-0011MW1021REMSYN017333   10239 59001
0146833390999991984031512004-14050-042483FM-12+087299999V0200901N00571004201CN0040001N9+02131+01801101271ADDAA124000691AA299000591AG10999AY101061GF106991061021004501001001KA1240N+01901MA1999999091531MD1999999-0051MW1101REMSYN023333   20190 59005 69964
0135833390999991984031600004-14050-042483FM-12+087299999V0200901N00721045001CN9999999N9+02121+01741101281ADDAA106001091AG10999AY161061GF105991021021004501031001KA1240M+02651MA1999999091531MD1999999+0121MW1021REMSYN023333   10265 58012 60011
0110833390999991984031618004-14050-042483FM-12+087299999V0200501N00621220001CN0200001N9+02701+01111100871ADDAA106000091AG10999AY101061GF102991011021004501001021MA1999999091221MD1999999-0071MW1021REMSYN011333   59007
0129833390999991984031700004-14050-042483FM-12+087299999V0200901N00411220001CN9999999N9+02261+01541101161ADDAA106000091AG10999AY101061GF102991021021004501001001KA1240M+02761MA1999999091441MD1999999+0091MW1021REMSYN017333   10276 58009
0129833390999991984031712004-14050-042483FM-12+087299999V0200501N00571220001CN0200001N9+02141+01551101331ADDAA106000091AG10999AY101061GF102991021021004501001001KA1240N+01771MA1999999091591MD1999999-0011MW1021REMSYN017333   20177 59001
0110833390999991984031718004-14050-042483FM-12+087299999V0201401N00311220001CN0200001N9+02841+01501100881ADDAA106000091AG10999AY101061GF103991021021004501001041MA1999999091721MD1410001+0001MW1021REMSYN011333   58000
0129833390999991984031800004-14050-042483FM-12+087299999V0200901N00361220001CN9999999N9+02401+01801101021ADDAA106000091AG10999AY101061GF102991021011008001001001KA1240M+02861MA1999999091321MD1999999-0121MW1021REMSYN017333   10286 59012
0134833390999991984031812004-14050-042483FM-12+087299999V0200901N00411004201CN0200001N9+02181+01841101271ADDAA106000091AG10999AY101061GF106991061021004501001001KA1240M+99999MA1999999091551MW1021REMSYN017333   10192 5904/EQDQ01 +01922ATMX  
0110833390999991984031818004-14050-042483FM-12+087299999V0200901N00511004201CN0200001N9+02401+01691100791ADDAA106000091AG10999AY101061GF105991051031004501001001MA1999999091201MD1999999-0021MW1021REMSYN011333   59002
0129833390999991984031900004-14050-042483FM-12+087299999V0200501N00461045001CN9999999N9+02101+01881101221ADDAA106000091AG10999AY101061GF106991031021004501021001KA1240M+02811MA1999999091471MD1999999+0151MW1021REMSYN017333   10281 58015
0129833390999991984031912004-14050-042483FM-12+087299999V0200901N00361004201CN0040001N9+02191+01821101301ADDAA106000091AG10999AY101061GF106991061021004501001001KA1240N+01921MA1999999091551MD1410001+0001MW1101REMSYN017333   20192 58000
0110833390999991984031918004-14050-042483FM-12+087299999V0200901N00511220001CN0200001N9+02721+01631100881ADDAA106000091AG10999AY101061GF103991031021004501001001MA1999999091221MD1999999+0021MW1021REMSYN011333   58002
0129833390999991984032000004-14050-042483FM-12+087299999V0200901N00151220001CN9999999N9+02361+01731101071ADDAA106000091AG10999AY101061GF102991021021004501001001KA1240M+02831MA1999999091371MD1999999-0101MW1021REMSYN017333   10283 59010
0129833390999991984032012004-14050-042483FM-12+087299999V0200901N00311004201CN0040001N9+02241+01981101201ADDAA106000091AG10999AY101061GF106991061021004501001001KA1240N+02001MA1999999091491MD1999999-0061MW1101REMSYN017333   20200 59006
0110833390999991984032018004-14050-042483FM-12+087299999V0200501N00511220001CN0200001N9+02981+01691100801ADDAA106000091AG10999AY101061GF103991031021004501001001MA1999999091181MD1999999-0041MW1021REMSYN011333   59004
0129833390999991984032100004-14050-042483FM-12+087299999V0200901N00411220001CN9999999N9+02421+01671100971ADDAA106000091AG10999AY101061GF102991021021004501001001KA1240M+02991MA1999999091291MD1999999-0081MW1131REMSYN017333   10299 59008
0129833390999991984032112004-14050-042483FM-12+087299999V0201401N00261220001CN0200001N9+02501+01891101201ADDAA106000091AG10999AY101061GF102991021011004501001001KA1240N+01891MA1999999091521MD1999999+0031MW1021REMSYN017333   20189 58003
0110833390999991984032118004-14050-042483FM-12+087299999V0200501N00361004201CN0200001N9+03001+01491100751ADDAA106000091AG10999AY101061GF105991051021004501001001MA1999999091131MD1999999-0051MW1021REMSYN011333   59005
0129833390999991984032200004-14050-042483FM-12+087299999V0201401N00261220001CN9999999N9+02501+01501100871ADDAA106000091AG10999AY101061GF102991021021004501001001KA1240M+03171MA1999999091241MD1999999-0051MW1021REMSYN017333   10317 59005
0129833390999991984032212004-14050-042483FM-12+087299999V0202701N00261004201CN0200001N9+02641+02031101081ADDAA106000091AG10999AY101061GF106991051021004501001021KA1240N+02141MA1999999091441MD1999999-0081MW1021REMSYN017333   20214 59008
0110833390999991984032218004-14050-042483FM-12+087299999V0202301N00411045001CN0200001N9+03001+01781100761ADDAA106000091AG10999AY101061GF105991041021004501021001MA1999999091161MD1999999+0031MW1171REMSYN011333   58003
0129833390999991984032300004-14050-042483FM-12+087299999V0202301N00151220001CN9999999N9+02521+01791101011ADDAA106000091AG10999AY101061GF103991031021004501001001KA1240M+03051MA1999999091381MD1999999+0141MW1021REMSYN017333   10305 58014
0146833390999991984032312004-14050-042483FM-12+087299999V0200901N00621004201CN0040001N9+02321+02051101201ADDAA124000291AA299000391AG10999AY161061GF106991061021004501001001KA1240N+02061MA1999999091511MD1999999+0071MW1101REMSYN023333   20206 58007 69924
0099833390999991984032318004-14050-042483FM-12+087299999V0201801N00211004201CN0200001N9+02791+01731100861ADDAG10999AY161061GF106991061021004501001001MA1999999091221MD1999999+0061MW1021REMSYN011333   58006
0129833390999991984032400004-14050-042483FM-12+087299999V0201401N00151220001CN9999999N9+02301+01751101051ADDAA106000091AG10999AY121061GF102991021021004501001001KA1240M+02871MA1999999091351MD1999999-0021MW1131REMSYN017333   10287 59002
0135833390999991984032412004-14050-042483FM-12+087299999V0200901N00361045001CN0200001N9+02001+01831101361ADDAA124005091AG10999AY161061GF108991031051004501021999KA1240N+01881MA1999999091611MD1999999+0101MW1101REMSYN023333   20188 58010 60054
0110833390999991984032418004-14050-042483FM-12+087299999V0200501N00511220001CN0200001N9+02681+01781100871ADDAA106000091AG10999AY101061GF104991041021004501001001MA1999999091201MD1999999-0021MW1021REMSYN011333   59002
0129833390999991984032500004-14050-042483FM-12+087299999V0201401N00571045001CN9999999N9+02261+01821101111ADDAA106000091AG10999AY101061GF105991031021004501021001KA1240M+02751MA1999999091381MD1999999+0031MW1021REMSYN017333   10275 58003
0129833390999991984032600004-14050-042483FM-12+087299999V0200901N00411004201CN9999999N9+02401+01861101151ADDAA106000091AG10999AY101061GF105991051021004501001001KA1240M+02851MA1999999091431MD1999999+0051MW1021REMSYN017333   10285 58005
0129833390999991984032612004-14050-042483FM-12+087299999V0203201N00211045001CN0040001N9+02141+01841101351ADDAA106000091AG10999AY101061GF108991041051004501021999KA1240N+01921MA1999999091621MD1999999+0041MW1101REMSYN017333   20192 58004
0116833390999991984032618004-14050-042483FM-12+087299999V0201801N00151004201CN0040001N9+02351+02171101021ADDAA106003091AG10999AY191061GF106991061021004501001001MA1999999091311MD1999999+0101MW1171REMSYN017333   58010 60031
0129833390999991984032700004-14050-042483FM-12+087299999V0209991C00001220001CN9999999N9+02201+01921101131ADDAA106000091AG10999AY191061GF102991021021004501001001KA1240M+02851MA1999999091401MD1999999-0031MW1101REMSYN017333   10285 59003
0135833390999991984032712004-14050-042483FM-12+087299999V0200901N00461004201CN0040001N9+02191+01991101271ADDAA124003091AG10999AY161061GF106991061021004501001001KA1240N+02051MA1999999091541MD1999999-0081MW1101REMSYN023333   20205 59008 60034
0129833390999991984032718004-14050-042483FM-12+087299999V0201801N00151220001CN9999999N9+02201+01921101121ADDAA106000091AG10999AY101061GF102991021021004501001001KA1240M+02911MA1999999091401MD1410001+0001MW1131REMSYN017333   10291 58000
0129833390999991984032800004-14050-042483FM-12+087299999V0201801N00151220001CN9999999N9+02201+01921101121ADDAA106000091AG10999AY101061GF102991021021004501001001KA1240M+02911MA1999999091401MD1410001+0001MW1131REMSYN017333   10291 58000
0129833390999991984032812004-14050-042483FM-12+087299999V0201401N00311004201CN0200001N9+02301+01941101301ADDAA106000091AG10999AY101061GF106991061021004501001001KA1240N+02011MA1999999091571MD1999999+0031MW1101REMSYN017333   20201 58003
0129833390999991984032900004-14050-042483FM-12+087299999V0201401N00361220001CN9999999N9+02341+01751101101ADDAA106000091AG10999AY101061GF102991021021004501001001KA1240M+02991MA1999999091411MD1999999+0011MW1021REMSYN017333   10299 58001
0076833390999991984032912004-14050-042483FM-12+087299999V0201401N00821004201CN0200001N9+02281+01881101341ADDAA106000091AG10999AY101061GF106991061021004501001001MA1999999091631MW1021
0110833390999991984032918004-14050-042483FM-12+087299999V0201401N00461004201CN0200001N9+02861+01781100921ADDAA106000091AG10999AY101061GF105991051021004501001001MA1999999091281MD1999999+0041MW1021REMSYN011333   58004
0148833390999991984033000004-14050-042483FM-12+087299999V0200901N00211220001CN9999999N9+02371+01841101141ADDAA106000091AG10999AY101061GF102991021021004501001001KA1240M+99999MA1999999091441MD1999999+0031MW1021REMSYN017333   10204 58003EQDQ01 +02042ATMX  
0129833390999991984033012004-14050-042483FM-12+087299999V0201401N00311004201CN0200001N9+02371+01991101301ADDAA106000091AG10999AY101061GF106991061021004501001001KA1240N+01981MA1999999091591MD1999999-0041MW1101REMSYN017333   20198 59004
0110833390999991984033018004-14050-042483FM-12+087299999V0203201N00311004201CN0200001N9+02881+01831100821ADDAA106000091AG10999AY101061GF105991051021004501001001MA1999999091191MD1999999-0081MW1021REMSYN011333   59008
0129833390999991984033100004-14050-042483FM-12+087299999V0201801N00101220001CN9999999N9+02361+01951100991ADDAA106000091AG10999AY101061GF102991021021004501001001KA1240M+03171MA1999999091311MD1999999-0131MW1021REMSYN017333   10317 59013
0135833390999991984033112004-14050-042483FM-12+087299999V0201801N00101004201CN0200001N9+02321+02071101091ADDAA124004091AG10999AY161061GF108991051051004501021999KA1240N+02101MA1999999091401MD1999999-0191MW1101REMSYN023333   20210 59019 60044
0116833390999991984033118004-14050-042483FM-12+087299999V0203201N00151045001CN0200001N9+02261+01841100871ADDAA106010091AG10999AY161061GF108991041021004501021999MA1999999091281MD1999999-0011MW1101REMSYN017333   59001 60101
0129833390999991984040100004-14050-042483FM-12+087299999V0201401N00411004201CN9999999N9+02011+01921101131ADDAA106000091AG10999AY121061GF105991051021004501001001KA1240M+02431MA1999999091401MD1999999+0091MW1101REMSYN017333   10243 58009
0135833390999991984040112004-14050-042483FM-12+087299999V0201401N00671004201CN0200001N9+01881+01661101431ADDAA124010091AG10999AY161061GF106991061021004501001001KA1240N+01641MA1999999091631MD1999999+0231MW1021REMSYN023333   20164 58023 60104
0110833390999991984040118004-14050-042483FM-12+087299999V0201401N00411004201CN0200001N9+02431+01761100991ADDAA106000091AG10999AY101061GF105991051021004501001001MA1999999091281MD1999999+0101MW1021REMSYN011333   58010
0129833390999991984040200004-14050-042483FM-12+087299999V0201401N00671004201CN9999999N9+02081+01761101191ADDAA106000091AG10999AY101061GF106991061021004501001001KA1240M+02451MA1999999091431MD1999999+0031MW1021REMSYN017333   10245 58003
0129833390999991984040212004-14050-042483FM-12+087299999V0201401N00361105001CN0200001N9+02131+01551101291ADDAA106000091AG10999AY101061GF105991041021004501001021KA1240N+01731MA1999999091541MD1999999-0091MW1021REMSYN017333   20173 59009
0110833390999991984040218004-14050-042483FM-12+087299999V0201401N00101220001CN0200001N9+02771+01611100781ADDAA106000091AG10999AY101061GF104991041021004501001001MA1999999091141MD1999999-0141MW1021REMSYN011333   59014
0129833390999991984040300004-14050-042483FM-12+087299999V0201401N00511004201CN9999999N9+02241+01841101151ADDAA106000091AG10999AY121061GF106991061021004501001001KA1240M+02841MA1999999091431MD1410001+0001MW1131REMSYN017333   10284 58000
0129833390999991984040312004-14050-042483FM-12+087299999V0201401N00311004201CN0040001N9+02121+01861101261ADDAA106000091AG10999AY101061GF108991081051004501999999KA1240N+01891MA1999999091531MD1999999-0011MW1101REMSYN017333   20189 59001
0110833390999991984040318004-14050-042483FM-12+087299999V0202701N00151004201CN0200001N9+99999+99999100891ADDAA106000091AG10999AY101061GF106991061021004501001001MA1999999091191MD1999999+0051MW1021REMSYN011333   58005
0148833390999991984040400004-14050-042483FM-12+087299999V0202701N00151220001CN9999999N9+03101+01881101121ADDAA106000091AG10999AY101061GF104991041021004501001001KA1240M+99999MA1999999091381MD1999999-0051MW1021REMSYN017333   10271 59005EQDQ01 +02712ATMX  
0135833390999991984040412004-14050-042483FM-12+087299999V0202701N00261004201CN0040001N9+02201+02081101201ADDAA106010091AG10999AY161061GF106991061021004501001001KA1240N+01901MA1999999091461MD1999999-0071MW1101REMSYN023333   20190 59007 60101
0110833390999991984040418004-14050-042483FM-12+087299999V0202301N00261220001CN0200001N9+02721+01581100781ADDAA106000091AG10999AY101061GF103991031021004501001001MA1999999091121MD1999999-0071MW1021REMSYN011333   59007
0135833390999991984040500004-14050-042483FM-12+087299999V0202701N00101004201CN9999999N9+02181+02011101071ADDAA106006091AG10999AY161061GF106991061021004501001001KA1240M+02711MA1999999091351MD1999999-0031MW1101REMSYN023333   10271 59003 60061
0135833390999991984040512004-14050-042483FM-12+087299999V0202701N00311004201CN0200001N9+02421+02011101131ADDAA124006091AG10999AY161061GF106991051021004501031001KA1240N+02041MA1999999091431MD1999999-0031MW1021REMSYN023333   20204 59003 60064
0110833390999991984040518004-14050-042483FM-12+087299999V0202301N00211004201CN0200001N9+02831+01771100791ADDAA106000091AG10999AY101061GF105991051021004501001001MA1999999091151MD1999999+0031MW1021REMSYN011333   58003
0135833390999991984040600004-14050-042483FM-12+087299999V0201801N00261004201CN9999999N9+02081+01931101151ADDAA106026091AG10999AY161061GF106991061021004501001001KA1240M+02791MA1999999091441MD1999999+0091MW1131REMSYN023333   10279 58009 60261
0135833390999991984040612004-14050-042483FM-12+087299999V0201401N00311004201CN0040001N9+02121+01981101351ADDAA124026091AG10999AY161061GF108991081051004501999999KA1240N+01891MA1999999091591MD1999999+0161MW1101REMSYN023333   20189 58016 60264
0110833390999991984040618004-14050-042483FM-12+087299999V0201401N00411045001CN0200001N9+02261+01771100951ADDAA106000091AG10999AY101061GF105991041021004501021001MA1999999091281MD1999999+0131MW1021REMSYN011333   58013
0129833390999991984040700004-14050-042483FM-12+087299999V0201401N00411220001CN9999999N9+02301+01921101291ADDAA106000091AG10999AY101061GF102991021021004501001001KA1240M+02701MA1999999091551MD1999999+0111MW1021REMSYN017333   10270 58011
0129833390999991984040712004-14050-042483FM-12+087299999V0201401N00511004201CN0200001N9+02161+01861101461ADDAA106000091AG10999AY101061GF106991061021004501001001KA1240N+01931MA1999999091711MD1999999+0121MW1021REMSYN017333   20193 58012
0110833390999991984040718004-14050-042483FM-12+087299999V0201401N00461220001CN0200001N9+02701+01411101141ADDAA106000091AG10999AY101061GF104991041021004501001001MA1999999091451MD1999999+0171MW1021REMSYN011333   58017
0146833390999991984040800004-14050-042483FM-12+087299999V0201401N00671004201CN9999999N9+02011+01891101551ADDAA106000691AA299000591AG10999AY161061GF106991061021004501001001KA1240M+02751MA1999999091771MD1999999+0221MW1021REMSYN023333   10275 58022 69961
0146833390999991984040812004-14050-042483FM-12+087299999V0201401N00571004201CN0200001N9+02001+01831101621ADDAA124000891AA299001091AG10999AY161061GF108991051021004501021999KA1240N+01841MA1999999091811MD1999999+0101MW1101REMSYN023333   20184 58010 69984
0110833390999991984040818004-14050-042483FM-12+087299999V0201401N00771004201CN0200001N9+02661+01851101241ADDAA106000091AG10999AY101061GF106991061021004501001001MA1999999091531MD1999999+0081MW1021REMSYN011333   58008
0129833390999991984040900004-14050-042483FM-12+087299999V0201401N00721004201CN9999999N9+02181+01781101471ADDAA106000091AG10999AY101061GF106991061021004501001001KA1240M+02651MA1999999091721MD1999999-0051MW1021REMSYN017333   10265 59005
0135833390999991984040912004-14050-042483FM-12+087299999V0201401N00671004201CN0040001N9+01921+01821101581ADDAA124004091AG10999AY161061GF108991081051004501999999KA1240N+01901MA1999999091781MD1999999-0031MW1501REMSYN023333   20190 59003 60044
0127833390999991984040918004-14050-042483FM-12+087299999V0201401N00671220001CN0200001N9+02261+01791101251ADDAA106000691AA299000091AG10999AY191061GF103991031021004501001001MA1999999091501MD1999999-0031MW1021REMSYN017333   59003 69961
0146833390999991984041000004-14050-042483FM-12+087299999V0201401N00411004201CN9999999N9+02041+01781101481ADDAA106000691AA299000591AG10999AY161061GF108991051051004501021999KA1240M+02451MA1999999091681MD1999999-0041MW1501REMSYN023333   10245 59004 69961
0135833390999991984041012004-14050-042483FM-12+087299999V0201401N00571004201CN0040001N9+01861+01681101611ADDAA124003091AG10999AY191061GF108991081051004501999999KA1240N+01721MA1999999091791MD1999999+0011MW1101REMSYN023333   20172 58001 60034
0110833390999991984041018004-14050-042483FM-12+087299999V0201801N00511220001CN0200001N9+02321+01831101511ADDAA106000091AG10999AY101061GF104991041021004501001001MA1999999091561MD1999999+0061MW1021REMSYN011333   58006
0135833390999991984041112004-14050-042483FM-12+087299999V0201401N00821004201CN0040001N9+01801+01601101411ADDAA124005091AG10999AY191061GF108991081051004501999999KA1240N+01651MA1999999091831MD1999999+0041MW1421REMSYN023333   20165 58004 60054
0110833390999991984041118004-14050-042483FM-12+087299999V0201401N00511004201CN0040001N9+02271+01571101421ADDAA106000091AG10999AY141061GF106991061021004501001001MA1999999091661MD1999999+0101MW1021REMSYN011333   58010
0165833390999991984041200004-14050-042483FM-12+087299999V0201401N00671004201CN9999999N9+02001+01781101701ADDAA106000691AA299000591AG10999AY161061GF108991999021004501001001KA1240M+02321MA1999999091861MD1410001+0001MW1101REMSYN023333   10232 58000 69961EQDQ01+000062SCOTLC
0146833390999991984041212004-14050-042483FM-12+087299999V0201401N00821004201CN0040001N9+02021+01701101671ADDAA124000791AA299001091AG10999AY161061GF108991081051004501999999KA1240N+01761MA1999999091851MD1999999+0021MW1501REMSYN023333   20176 58002 69974
0110833390999991984041218004-14050-042483FM-12+087299999V0201401N00821004201CN0200001N9+02491+01591101231ADDAA106000091AG10999AY191061GF106991061021004501001001MA1999999091521MD1999999-0141MW1021REMSYN011333   59014
0118833390999991984041300004-14050-042483FM-12+087299999V0201401N00571004201CN9999999N9+02101+01881101521ADDAG10999AY121061GF108991051051004501021999KA1240M+02581MA1999999091741MD1999999-0121MW1501REMSYN017333   10258 59012
0135833390999991984041312004-14050-042483FM-12+087299999V0201401N00311004201CN0040001N9+01881+01751101611ADDAA124002091AG10999AY161061GF108991081051004501999999KA1240N+01781MA1999999091801MD1999999-0051MW1501REMSYN023333   20178 59005 60024
0116833390999991984041318004-14050-042483FM-12+087299999V0201401N00461004201CN0040001N9+02181+01901101231ADDAA106002091AG10999AY191061GF106991061021004501001001MA1999999091481MD1999999-0041MW1021REMSYN017333   59004 60021
0135833390999991984041512004-14050-042483FM-12+087299999V0200901N00571004201CN0200001N9+01881+01751101471ADDAA124003091AG10999AY161061GF108991051051004501021999KA1240N+01741MA1999999091661MD1410001+0001MW1101REMSYN023333   20174 58000 60034
0110833390999991984041518004-14050-042483FM-12+087299999V0200701N00511045001CN0200001N9+02381+01801101151ADDAA106000091AG10999AY101061GF108991041021004501021999MA1999999091411MD1999999-0041MW1021REMSYN011333   59004
0129833390999991984041600004-14050-042483FM-12+087299999V0201401N00311045001CN9999999N9+02191+01721101321ADDAA106000091AG10999AY101061GF106991041021004501031001KA1240M+02411MA1999999091551MD1999999-0051MW1021REMSYN017333   10241 59005
0129833390999991984041612004-14050-042483FM-12+087299999V0201401N00721004201CN0200001N9+02071+01701101371ADDAA106000091AG10999AY101061GF106991061021004501001001KA1240N+01821MA1999999091621MD1999999-0061MW1101REMSYN017333   20182 59006
0175833390999991984041618004-14050-042483FM-12+087299999V0200901N00461220001CN0200001N9+02461+01611101061ADDAA106000091AG10999AJ199999999999999AY101061GF103991031021004501001001IA1029IA2999-03509KA1240N+01611MA1999999091351MW1021REMSYN023333   20161 39135 40106EQDQ01  01062SNDP  
0129833390999991984041700004-14050-042483FM-12+087299999V0201401N00151220001CN9999999N9+02081+01681101231ADDAA106000091AG10999AY101061GF100991001001999999001001KA1240M+02521MA1999999091481MD1999999-0071MW1021REMSYN017333   10252 59007
0129833390999991984041712004-14050-042483FM-12+087299999V0201401N00511004201CN0200001N9+02001+01811101401ADDAA106000091AG10999AY101061GF106991061021004501001001KA1240N+01791MA1999999091631MD1999999+0011MW1101REMSYN017333   20179 58001
0110833390999991984041718004-14050-042483FM-12+087299999V0200901N00411220001CN0200001N9+99999+99999101081ADDAA106000091AG10999AY101061GF102991021021004501001001MA1999999091361MD1999999+0011MW1021REMSYN011333   58001
0129833390999991984041800004-14050-042483FM-12+087299999V0200901N00211220001CN9999999N9+02081+01741101281ADDAA106000091AG10999AY101061GF100991001001999999001001KA1240M+02551MA1999999091481MD1999999+0041MW1021REMSYN017333   10255 58004
0129833390999991984041801004-14050-042483FM-12+087299999V0200901N00211220001CN9999999N9+02081+01741101281ADDAA106000091AG10999AY101011GF100991001001999999001001KA1240M+02551MA1999999091481MD1999999+0041MW1021REMSYN017333   10255 58004
0129833390999991984041812004-14050-042483FM-12+087299999V0201401N00671004201CN0200001N9+02081+01761101421ADDAA106000091AG10999AY101061GF106991061021004501001001KA1240N+01871MA1999999091651MD1999999+0021MW1101REMSYN017333   20187 58002
0110833390999991984041818004-14050-042483FM-12+087299999V0201401N00311220001CN0200001N9+02561+00861101091ADDAA106000091AG10999AY101061GF102991021021004501001001MA1999999091391MD1999999+0931MW1021REMSYN011333   58093
0129833390999991984041900004-14050-042483FM-12+087299999V0201401N00311220001CN9999999N9+02181+01841101311ADDAA106000091AG10999AY101061GF104991041021004501001001KA1240M+02661MA1999999091561MD1999999+0041MW1101REMSYN017333   10266 58004
0148833390999991984041912004-14050-042483FM-12+087299999V0201401N00151004201CN0040001N9+02001+01901101461ADDAA106999999AG10999AY101061GF108991081051004501999999KA1240N+01881MA1999999091691MD1999999+0041MW1201REMSYN017333   20188 58004EQDQ01  00002PRCP06
0110833390999991984041918004-14050-042483FM-12+087299999V0200901N00311220001CN0200001N9+99999+99999101041ADDAA106000091AG10999AY101061GF102991021021004501001001MA1999999091341MD1999999-0051MW1021REMSYN011333   59005
0129833390999991984042000004-14050-042483FM-12+087299999V0200901N00101220001CN9999999N9+02261+01591101241ADDAA106000091AG10999AY101061GF100991001001999999001001KA1240M+02711MA1999999091501MD1999999-0061MW1021REMSYN017333   10271 59006
0148833390999991984042012004-14050-042483FM-12+087299999V0201401N00671004201CN0040001N9+01941+01841101501ADDAA106999999AG10999AY101061GF108991081051004501999999KA1240N+01961MA1999999091731MD1999999+0041MW1501REMSYN017333   20196 58004EQDQ01  00002PRCP06
0110833390999991984042018004-14050-042483FM-12+087299999V0200901N00571220001CN0200001N9+02661+01531101121ADDAA106000091AG10999AY191061GF102991021021004501001001MA1999999091431MD1999999+0091MW1021REMSYN011333   58009
0129833390999991984042100004-14050-042483FM-12+087299999V0201401N00261220001CN9999999N9+02221+01671101371ADDAA106000091AG10999AY101061GF100991001001999999001001KA1240M+02691MA1999999091601MD1999999+0101MW1021REMSYN017333   10269 58010
0129833390999991984042112004-14050-042483FM-12+087299999V0201401N00571004201CN0200001N9+02001+01701101501ADDAA106000091AG10999AY101061GF106991061021004501001001KA1240N+01781MA1999999091731MD1410001+0001MW1021REMSYN017333   20178 58000
0110833390999991984042118004-14050-042483FM-12+087299999V0201401N00211220001CN0200001N9+02701+01301101021ADDAA106000091AG10999AY101061GF100991001001999999001001MA1999999091331MD1999999-0101MW1021REMSYN011333   59010
0129833390999991984042200004-14050-042483FM-12+087299999V0201401N00211220001CN9999999N9+02161+01381101161ADDAA106000091AG10999AY101061GF100991001001999999001001KA1240M+02731MA1999999091421MD1999999-0161MW1021REMSYN017333   10273 59016
0129833390999991984042212004-14050-042483FM-12+087299999V0201401N00571004201CN0200001N9+02091+01801101471ADDAA106000091AG10999AY101061GF106991061021004501001001KA1240N+01841MA1999999091781MD1999999-0031MW1021REMSYN017333   20184 59003
0110833390999991984042218004-14050-042483FM-12+087299999V0200901N00411220001CN0200001N9+02721+01771101061ADDAA106000091AG10999AY101061GF103991031021004501001001MA1999999091301MD1999999+0041MW1021REMSYN011333   58004
0129833390999991984042300004-14050-042483FM-12+087299999V0201401N00511220001CN9999999N9+02221+01801101301ADDAA106000091AG10999AY101061GF100991001001999999001001KA1240M+02751MA1999999091551MD1999999+0131MW1021REMSYN017333   10275 58013
0129833390999991984042312004-14050-042483FM-12+087299999V0201401N00821004201CN0040001N9+02071+01801101531ADDAA106000091AG10999AY101061GF108991081051004501999999KA1240N+01861MA1999999091761MD1999999+0061MW1101REMSYN017333   20186 58006
0110833390999991984042318004-14050-042483FM-12+087299999V0200501N00511220001CN0200001N9+02571+01961101211ADDAA106000091AG10999AY101061GF102991021021004501001001MA1999999091501MD1999999-0201MW1021REMSYN011333   59020
0129833390999991984042400004-14050-042483FM-12+087299999V0200901N00311220001CN9999999N9+02261+01751101401ADDAA106000091AG10999AY101061GF100991001001999999001001KA1240M+02631MA1999999091651MD1999999+0101MW1021REMSYN017333   10263 58010
0129833390999991984042412004-14050-042483FM-12+087299999V0201401N00621004201CN0200001N9+02201+01881101181ADDAA106000091AG10999AY101061GF106991061021004501001001KA1240N+01941MA1999999091831MD1999999+0071MW1101REMSYN017333   20194 58007
0110833390999991984042418004-14050-042483FM-12+087299999V0200901N00461220001CN0200001N9+02841+01531101151ADDAA106000091AG10999AY101061GF103991021021004501001021MA1999999091461MD1999999-0061MW1021REMSYN011333   59006
0129833390999991984042500004-14050-042483FM-12+087299999V0201401N00511220001CN9999999N9+02381+01871101411ADDAA106000091AG10999AY101061GF100991001001999999001001KA1240M+02911MA1999999091671MD1999999+0021MW1021REMSYN017333   10291 58002
0129833390999991984042512004-14050-042483FM-12+087299999V0201401N00361004201CN0040001N9+02121+01891101431ADDAA106000091AG10999AY101061GF108991081051004501999999KA1240N+01921MA1999999091691MD1999999-0141MW1101REMSYN017333   20192 59014
0110833390999991984042518004-14050-042483FM-12+087299999V0201401N00361220001CN0200001N9+02831+01481100991ADDAA106000091AG10999AY101061GF102991021021004501001001MA1999999091331MD1999999-0131MW1021REMSYN011333   59013
0148833390999991984042600004-14050-042483FM-12+087299999V0201401N00151220001CN9999999N9+02341+01721101211ADDAA106000091AG10999AY101061GF100991001001999999001001KA1240M+02841MA1999999092492MD1999999-0181MW1021REMSYN017333   10284 59018EQDQ01+092493APOSP 
0135833390999991984042612004-14050-042483FM-12+087299999V0200901N00511004201CN0040001N9+02071+01851101381ADDAA124002091AG10999AY161061GF106991051021004501021001KA1240N+01861MA1999999091641MD1999999-0051MW1101REMSYN023333   20186 59005 60024
0110833390999991984042618004-14050-042483FM-12+087299999V0200901N00511220001CN0200001N9+02621+01531101031ADDAA106000091AG10999AY101061GF103991031021004501001001MA1999999091341MD1999999+0011MW1021REMSYN011333   58001
0129833390999991984042700004-14050-042483FM-12+087299999V0201401N00671220001CN9999999N9+02241+01621101321ADDAA106000091AG10999AY101061GF100991001001999999001001KA1240M+02701MA1999999091571MD1999999+0081MW1021REMSYN017333   10270 58008
0129833390999991984042712004-14050-042483FM-12+087299999V0201401N00771004201CN0040001N9+02011+01811101531ADDAA106000091AG10999AY101061GF106991061021004501001001KA1240N+01861MA1999999091741MD1999999+0111MW1101REMSYN017333   20186 58011
0110833390999991984042718004-14050-042483FM-12+087299999V0200901N00461220001CN0200001N9+02641+01511101141ADDAA106000091AG10999AY101061GF104991041021004501001001MA1999999091441MD1999999+0101MW1021REMSYN011333   58010
0129833390999991984042800004-14050-042483FM-12+087299999V0201401N00211220001CN9999999N9+02201+01741101351ADDAA106000091AG10999AY101061GF100991001001999999001001KA1240M+02671MA1999999091591MD1999999+0021MW1021REMSYN017333   10267 58002
0148833390999991984042812004-14050-042483FM-12+087299999V0200901N00621004201CN0200001N9+02121+01721101591ADDAA106000091AG10999AY101061GF105991051021004501001001KA1240N+01781MA1999999091781MD1999999+0121MW1021REMSYN017333   20178 58012EQDQ01+999990APOSP 
0110833390999991984042818004-14050-042483FM-12+087299999V0200901N00621220001CN0200001N9+02721+01591101211ADDAA106000091AG10999AY101061GF104991041021004501001001MA1999999091511MD1999999+0071MW1021REMSYN011333   58007
0129833390999991984042900004-14050-042483FM-12+087299999V0200901N00411004201CN9999999N9+02201+01741101461ADDAA106000091AG10999AY101061GF106991061021004501001001KA1240M+02731MA1999999091701MD1999999+0111MW1021REMSYN017333   10273 58011
0110833390999991984042918004-14050-042483FM-12+087299999V0201401N00771220001CN0200001N9+02521+01711101321ADDAA106000091AG10999AY101061GF103991031021004501001001MA1999999092571MD1999999+0081MW1021REMSYN011333   58008
0154833390999991984043000004-14050-042483FM-12+087299999V0201401N00411045001CN9999999N9+02001+01881101521ADDAA106000191AG10999AY121061GF106991021021004501021001KA1240M+02591MA1999999091742MD1999999+0041MW1501REMSYN023333   10259 58004 69911EQDQ01+091743APOSP 
0121833390999991984043012004-14050-042483FM-12+087299999V0201401N00671004201CN0040001N9+01941+01861101721ADDAA124010091AG10999GF108991081051004501999999KA1240N+01831MA1999999091891MD1999999-0041REMSYN023333   20183 59004 60104
0110833390999991984043018004-14050-042483FM-12+087299999V0201401N00311004201CN0200001N9+02461+01631101321ADDAA106000091AG10999AY101061GF106991061021004501001001MA1999999091581MD1999999-0011MW1021REMSYN011333   59001
0129833390999991984050100004-14050-042483FM-12+087299999V0201401N00151220001CN9999999N9+02041+01581101521ADDAA106000091AG10999AY101061GF100991001001999999001001KA1240M+02491MA1999999091721MD1999999-0021MW1021REMSYN017333   10249 59002
0129833390999991984050112004-14050-042483FM-12+087299999V0200901N00511004201CN0040001N9+02001+01741101611ADDAA106000091AG10999AY101061GF106991061021004501001001KA1240N+01761MA1999999091801MD1999999-0091MW1101REMSYN017333   20176 59009
0110833390999991984050118004-14050-042483FM-12+087299999V0200901N00411220001CN0200001N9+02461+01571101271ADDAA106000091AG10999AY101061GF104991041031004501001001MA1999999091541MD1999999-0041MW1021REMSYN011333   59004
0129833390999991984050200004-14050-042483FM-12+087299999V0200901N00621220001CN9999999N9+02101+01721101491ADDAA106000091AG10999AY101061GF103991031021004501001001KA1240M+02571MA1999999091711MD1999999-0011MW1021REMSYN017333   10257 59001
0148833390999991984050212004-14050-042483FM-12+087299999V0200901N00511004201CN0040001N9+01851+01791101661ADDAA106999999AG10999AY101061GF108991081051004501999999KA1240N+01761MA1999999091841MD1999999+0041MW1501REMSYN017333   20176 58004EQDQ01  00002PRCP06
0110833390999991984050218004-14050-042483FM-12+087299999V0200901N00411004201CN0200001N9+02461+01731101281ADDAA106000091AG10999AY191061GF105991051021004501001001MA1999999091541MD1410001+0001MW1021REMSYN011333   58000
0129833390999991984050300004-14050-042483FM-12+087299999V0201401N00361220001CN9999999N9+02121+01721101531ADDAA106000091AG10999AY101061GF102991021021004501001001KA1240M+02531MA1999999091721MD1999999+0011MW1021REMSYN017333   10253 58001
0129833390999991984050312004-14050-042483FM-12+087299999V0201401N00821004201CN0200001N9+01981+01591101661ADDAA106000091AG10999AY101061GF106991061021004501001001KA1240N+01761MA1999999091851MD1999999+0011MW1101REMSYN017333   20176 58001
0110833390999991984050318004-14050-042483FM-12+087299999V0200901N00511004201CN0040001N9+02461+01711101291ADDAA106000091AG10999AY101061GF107991061021004501021001MA1999999091551MD1999999+0011MW1021REMSYN011333   58001
0146833390999991984050400004-14050-042483FM-12+087299999V0201401N00361004201CN9999999N9+02001+01851101531ADDAA106000791AA299001091AG10999AY161061GF108991051051004501021999KA1240M+02521MA1999999091731MD1999999+0011MW1101REMSYN023333   10252 58001 69971
0146833390999991984050412004-14050-042483FM-12+087299999V0201401N00621004201CN0040001N9+01861+01761101661ADDAA124000791AA299001091AG10999AY161061GF108991081051004501999999KA1240N+01741MA1999999091841MD1999999-0011MW1421REMSYN023333   20174 59001 69974
0116833390999991984050418004-14050-042483FM-12+087299999V0201401N00411004201CN0040001N9+02211+01821101361ADDAA106002091AG10999AY161061GF106991051051004501021999MA1999999091581MD1999999+0031MW1101REMSYN017333   58003 60021
0129833390999991984050500004-14050-042483FM-12+087299999V0201401N00821220001CN9999999N9+02001+01801101591ADDAA106000091AG10999AY101061GF103991031051004501001001KA1240M+02391MA1999999091771MD1999999+0041MW1021REMSYN017333   10239 58004
0135833390999991984050512004-14050-042483FM-12+087299999V0201401N00511045001CN0010001N9+01811+01741101651ADDAA124002091AG10999AY161061GF108991041051004501021999KA1240N+01661MA1999999091831MD1999999-0011MW1401REMSYN023333   20166 59001 60024
0110833390999991984050518004-14050-042483FM-12+087299999V0201401N00411004201CN0040001N9+02401+01521101281ADDAA106000091AG10999AY191061GF106991061021004501001001MA1999999091541MD1999999-0041MW1021REMSYN011333   59004
0129833390999991984050600004-14050-042483FM-12+087299999V0201401N00411004201CN9999999N9+02121+01781101481ADDAA106000091AG10999AY101061GF105991051021004501001001KA1240M+02491MA1999999091671MD1999999-0101MW1021REMSYN017333   10249 59010
0146833390999991984050612004-14050-042483FM-12+087299999V0200901N00571004201CN0100001N9+02001+01681101471ADDAA124000691AA299000591AG10999AY161061GF105991051021004501001001KA1240N+01671MA1999999091691MD1999999-0141MW1101REMSYN023333   20167 59014 69964
0110833390999991984050618004-14050-042483FM-12+087299999V0200901N00721220001CN0200001N9+02481+01431101201ADDAA106000091AG10999AY101061GF104991041021004501001001MA1999999091461MD1999999-0081MW1021REMSYN011333   59008
0129833390999991984050700004-14050-042483FM-12+087299999V0201401N00261220001CN9999999N9+02061+01521101411ADDAA106000091AG10999AY101061GF100991001001999999001001KA1240M+02551MA1999999091641MD1999999-0031MW1021REMSYN017333   10255 59003
0129833390999991984050712004-14050-042483FM-12+087299999V0201401N00511220001CN0200001N9+02071+01701101581ADDAA106000091AG10999AY101061GF103991031021004501001001KA1240N+01721MA1999999091781MD1999999+0091MW1101REMSYN017333   20172 58009
0110833390999991984050718004-14050-042483FM-12+087299999V0200901N00571220001CN0200001N9+02571+01241101201ADDAA106000091AG10999AY101061GF102991021021004501001001MA1999999091471MD1999999+0011MW1021REMSYN011333   58001
0129833390999991984050800004-14050-042483FM-12+087299999V0201401N00311004201CN9999999N9+02201+01691101481ADDAA106000091AG10999AY101061GF106991061021004501001001KA1240M+02671MA1999999091711MD1999999+0071MW1021REMSYN017333   10267 58007
0129833390999991984050812004-14050-042483FM-12+087299999V0200901N00361004201CN0200001N9+02001+01801101551ADDAA106000091AG10999AY101061GF107991071021004501001001KA1240N+01811MA1999999091771MD1999999-0011MW1101REMSYN017333   20181 59001
0095833390999991984050818004-14050-042483FM-12+087299999V0201401N00311004201CN0200001N9+99999+99999101241ADDAA106000091AG10999AY101061GF106991061021004501001001MD1999999+0031MW1021REMSYN011333   58003
0135833390999991984050900004-14050-042483FM-12+087299999V0200901N00671045001CN9999999N9+02011+01951101521ADDAA106003091AG10999AY161061GF106991031021004501021001KA1240M+02561MA1999999091741MD1999999+0031MW1501REMSYN023333   10256 58003 60031
0135833390999991984050912004-14050-042483FM-12+087299999V0200901N00511004201CN0040001N9+01941+01791101661ADDAA124003091AG10999AY191061GF106991061021004501001001KA1240N+01701MA1999999091841MD1999999+0071MW1101REMSYN023333   20170 58007 60034
0110833390999991984050918004-14050-042483FM-12+087299999V0200901N00461220001CN0200001N9+02361+01851101351ADDAA106000091AG10999AY101061GF102991021021004501001001MA1999999091591MD1999999+0091MW1021REMSYN011333   58009
0148833390999991984051000004-14050-042483FM-12+087299999V0201401N003119999999N9999999N9+02091+01841101521ADDAA106000091AG10999AY101061GF108991999021004501001001KA1240M+02471MA1999999091721MD1999999-0021MW1021REMSYN017333   10247 59002EQDQ01+000022SCOTLC
0129833390999991984051012004-14050-042483FM-12+087299999V0201401N00671004201CN0200001N9+01961+01721101591ADDAA106000091AG10999AY101061GF106991061021004501001001KA1240N+01701MA1999999091781MD1999999-0061MW1101REMSYN017333   20170 59006
0129833390999991984051100004-14050-042483FM-12+087299999V0201401N00511220001CN9999999N9+02161+01431101251ADDAA106000091AG10999AY101061GF100991001001999999001001KA1240M+02641MA1999999091491MD1999999-0231MW1021REMSYN017333   10264 59023
0129833390999991984051112004-14050-042483FM-12+087299999V0201401N00511220001CN0200001N9+02081+01641101291ADDAA106000091AG10999AY101061GF102991021021004501001001KA1240N+01501MA1999999091541MD1999999-0241MW1021REMSYN017333   20150 59024
0110833390999991984051118004-14050-042483FM-12+087299999V0201401N00261220001CN0200001N9+02701+00981100821ADDAA106000091AG10999AY101061GF102991021011004501001001MA1999999091131MD1999999-0251MW1011REMSYN011333   59025
0129833390999991984051200004-14050-042483FM-12+087299999V0201801N00051220001CN9999999N9+02131+01251101031ADDAA106000091AG10999AY101061GF100991001001999999001001KA1240M+02751MA1999999091301MD1999999-0191MW1021REMSYN017333   10275 59019
0148833390999991984051212004-14050-042483FM-12+087299999V0201401N00151220001CN0200001N9+02201+01541101351ADDAA106000091AG10999AY101061GF100991001001999999001001KA1240M+99999MA1999999091601MD1999999+0061MW1021REMSYN017333   10148 58006EQDQ01 +01482ATMX  
0110833390999991984051218004-14050-042483FM-12+087299999V0201401N00311220001CN0200001N9+02841+01101100881ADDAA106000091AG10999AY101061GF102991021021004501001001MA1999999091201MD1999999+0071MW1021REMSYN011333   58007
0129833390999991984051300004-14050-042483FM-12+087299999V0201801N002119999999N9999999N9+02161+01191101151ADDAA106000091AG10999AY101061GF106991999999999999999999KA1240M+02841MA1999999091401MD1999999+0131MW1021REMSYN017333   10284 58013
0110833390999991984051318004-14050-042483FM-12+087299999V0200901N00361220001CN0200001N9+02781+01411101001ADDAA106000091AG10999AY101061GF103991031021004501001001MA1999999091301MD1999999+0101MW1021REMSYN011333   58010
0129833390999991984051400004-14050-042483FM-12+087299999V0201401N00511220001CN9999999N9+02361+01561101211ADDAA106000091AG10999AY101061GF100991001001999999001001KA1240M+02841MA1999999091491MD1999999+0061MW1021REMSYN017333   10284 58006
0129833390999991984051412004-14050-042483FM-12+087299999V0201401N00211004201CN0200001N9+02201+01941101411ADDAA106000091AG10999AY101061GF106991061021004501001001KA1240N+01941MA1999999091681MD1999999-0061MW1101REMSYN017333   20194 59006
0110833390999991984051418004-14050-042483FM-12+087299999V0201401N00311004201CN0040001N9+02751+01641100961ADDAA106000091AG10999AY101061GF106991061021004501001001MA1999999091281MD1999999-0021MW1021REMSYN011333   59002
0135833390999991984051500004-14050-042483FM-12+087299999V0201401N00361004201CN9999999N9+02181+01941101261ADDAA106007091AG10999AY161061GF106991061021004501001001KA1240M+02831MA1999999091531MD1999999+0041MW1501REMSYN023333   10283 58004 60071
0135833390999991984051512004-14050-042483FM-12+087299999V0201401N00211004201CN0040001N9+02071+01991101421ADDAA124009091AG10999AY161061GF108991081051004501999999KA1240N+01941MA1999999091651MD1999999-0031MW1101REMSYN023333   20194 59003 60094
0110833390999991984051518004-14050-042483FM-12+087299999V0201401N00511004201CN0200001N9+02641+01661100971ADDAA106000091AG10999AY101061GF106991051021004501001021MA1999999091291MD1999999+0011MW1021REMSYN011333   58001
0129833390999991984051600004-14050-042483FM-12+087299999V0201401N00261220001CN9999999N9+02341+01671101131ADDAA106000091AG10999AY101061GF104991041021004501001001KA1240M+02731MA1999999091411MD1999999-0121MW1021REMSYN017333   10273 59012
0129833390999991984051612004-14050-042483FM-12+087299999V0201401N00771220001CN0200001N9+02221+01651101231ADDAA106000091AG10999AY101061GF102991021021004501001001KA1240N+01861MA1999999091521MD1999999-0131MW1021REMSYN017333   20186 59013
0110833390999991984051618004-14050-042483FM-12+087299999V0201401N00671220001CN0200001N9+02631+01331100941ADDAA106000091AG10999AY101061GF102991021011004501001001MA1999999091251MD1999999-0041MW1021REMSYN011333   59004
0129833390999991984051700004-14050-042483FM-12+087299999V0201401N00311220001CN9999999N9+02201+01391101211ADDAA106000091AG10999AY101061GF102991021021004501001001KA1240M+02721MA1999999091481MD1999999+0071MW1021REMSYN017333   10272 58007
0129833390999991984051712004-14050-042483FM-12+087299999V0200901N01031004201CN0040001N9+01971+01831101561ADDAA106000091AG10999AY101061GF106991061021004501001001KA1240N+01841MA1999999091781MD1999999+0261MW1101REMSYN017333   20184 58026
0110833390999991984051718004-14050-042483FM-12+087299999V0201401N00511220001CN0200001N9+02641+01581101181ADDAA106000091AG10999AY101061GF103991031021004501001001MA1999999091471MD1999999+0221MW1021REMSYN011333   58022
0129833390999991984051800004-14050-042483FM-12+087299999V0201401N00411220001CN9999999N9+02111+01721101381ADDAA106000091AG10999AY101061GF102991021021004501001001KA1240M+02691MA1999999091611MD1999999+0131MW1021REMSYN017333   10269 58013
0129833390999991984051812004-14050-042483FM-12+087299999V0201401N00981220001CN0200001N9+02021+01581101621ADDAA106000091AG10999AY101061GF104991041021004501001001KA1240N+01721MA1999999091821MD1999999+0041MW1021REMSYN017333   20172 58004
0110833390999991984051818004-14050-042483FM-12+087299999V0201401N00461220001CN0200001N9+02621+01331101181ADDAA106000091AG10999AY101061GF102991021021004501001001MA1999999091471MD1410001+0001MW1021REMSYN011333   58000
0129833390999991984051912004-14050-042483FM-12+087299999V0201401N00621004201CN0200001N9+02001+01621101591ADDAA106000091AG10999AY101061GF106991061021004501001001KA1240N+01721MA1999999091791MD1999999-0031MW1021REMSYN017333   20172 59003
0110833390999991984051918004-14050-042483FM-12+087299999V0200901N00771220001CN0200001N9+02721+01171101121ADDAA106000091AG10999AY101061GF100991001001999999001001MA1999999091421MD1999999-0051MW1021REMSYN011333   59005
0129833390999991984052000004-14050-042483FM-12+087299999V0201401N00771220001CN9999999N9+02171+01491101361ADDAA106000091AG10999AY101061GF100991001001999999001001KA1240M+02731MA1999999091601MD1999999-0031MW1021REMSYN017333   10273 59003
0110833390999991984052018004-14050-042483FM-12+087299999V0200901N00821004201CN0200001N9+02501+01641101161ADDAA106000091AG10999AY101061GF108991061051004501021999MA1999999091441MD1999999+0021MW1021REMSYN011333   58002
0129833390999991984052100004-14050-042483FM-12+087299999V0200901N00671045001CN9999999N9+02171+01761101311ADDAA106000091AG10999AY101061GF106991041051004501021001KA1240M+02531MA1999999091561MD1999999-0041MW1021REMSYN017333   10253 59004
0129833390999991984052112004-14050-042483FM-12+087299999V0201401N01031004201CN0200001N9+01921+01611101521ADDAA106000091AG10999AY101061GF105991051021004501001001KA1240N+01651MA1999999091741MD1999999+0021MW1101REMSYN017333   20165 58002
0110833390999991984052118004-14050-042483FM-12+087299999V0201401N00571220001CN0200001N9+02591+01041101221ADDAA106000091AG10999AY101061GF100991001001999999001001MA1999999091491MD1999999+0051MW1021REMSYN011333   58005
0129833390999991984052200004-14050-042483FM-12+087299999V0201401N01081220001CN9999999N9+02101+01191101421ADDAA106000091AG10999AY101061GF102991021021004501001001KA1240M+02611MA1999999091641MD1999999+0081MW1021REMSYN017333   10261 58008
0129833390999991984052212004-14050-042483FM-12+087299999V0201401N00621220001CN0200001N9+02041+01641101511ADDAA106000091AG10999AY101061GF103991031021004501001001KA1240N+01751MA1999999091731MD1999999-0011MW1021REMSYN017333   20175 59001
0110833390999991984052218004-14050-042483FM-12+087299999V0200901N00571004201CN0200001N9+02381+01561101311ADDAA106000091AG10999AY101061GF106991061021004501001001MA1999999091561MD1999999+0071MW1021REMSYN011333   58007
0129833390999991984052300004-14050-042483FM-12+087299999V0201401N00211220001CN9999999N9+02021+01561101411ADDAA106000091AG10999AY101061GF100991001001999999001001KA1240M+02471MA1999999091641MD1410001+0001MW1021REMSYN017333   10247 58000
0129833390999991984052312004-14050-042483FM-12+087299999V0201401N00361220001CN0200001N9+02001+01721101601ADDAA106000091AG10999AY101061GF103991031021004501001001KA1240N+01601MA1999999091701MD1999999+0061MW1101REMSYN017333   20160 58006
0096833390999991984052318004-14050-042483FM-12+087299999V0201401N00671220001CN0200001N9+02601+01281101181ADDAA106000091AG10999GF102991021021004501001001MA1999999091451MD1999999-0111REMSYN011333   59011
0129833390999991984052400004-14050-042483FM-12+087299999V0201401N00311220001CN9999999N9+02161+01571101361ADDAA106000091AG10999AY101061GF102991021021004501001001KA1240M+02651MA1999999091601MD1999999-0041MW1021REMSYN017333   10265 59004
0129833390999991984052412004-14050-042483FM-12+087299999V0201401N00571004201CN0200001N9+02091+01681101471ADDAA106000091AG10999AY101061GF106991061021004501001001KA1240N+01741MA1999999091701MD1999999-0091MW1021REMSYN017333   20174 59009
0110833390999991984052418004-14050-042483FM-12+087299999V0200901N00361220001CN0200001N9+02581+01461101101ADDAA106000091AG10999AY101061GF102991021021004501001001MA1999999091391MD1999999-0061MW1021REMSYN011333   59006
0129833390999991984052500004-14050-042483FM-12+087299999V0201401N00101220001CN9999999N9+02061+01451101301ADDAA106000091AG10999AY101061GF100991001001999999001001KA1240M+02631MA1999999091541MD1999999-0061MW1021REMSYN017333   10263 59006
0129833390999991984052512004-14050-042483FM-12+087299999V0201401N00571004201CN0040001N9+01931+01661101481ADDAA106000091AG10999AY101061GF105991051021004501001001KA1240N+01581MA1999999091681MD1999999-0021MW1101REMSYN017333   20158 59002
0110833390999991984052518004-14050-042483FM-12+087299999V0201401N00151220001CN0200001N9+02701+01071101041ADDAA106000091AG10999AY101061GF103991021021004501001021MA1999999091341MD1999999-0051MW1021REMSYN011333   59005
0076833390999991984052600004-14050-042483FM-12+087299999V0209991C00001220001CN9999999N9+02121+01181101251ADDAA106000091AG10999AY101061GF100991001001999999001001MA1999999091481MW1021
0129833390999991984052612004-14050-042483FM-12+087299999V0201401N00571004201CN0200001N9+01941+01611101441ADDAA106000091AG10999AY101061GF108991051051004501021999KA1240N+01721MA1999999091661MD1999999-0021MW1021REMSYN017333   20172 59002
0110833390999991984052618004-14050-042483FM-12+087299999V0201401N00311220001CN0200001N9+02641+01321101021ADDAA106000091AG10999AY101061GF104991041021004501001001MA1999999092321MD1999999-0021MW1021REMSYN011333   59002
0148833390999991984052700004-14050-042483FM-12+087299999V0201801N00211220001CN9999999N9+02141+01311101281ADDAA106000091AG10999AY101061GF102991021021004501001001KA1240M+02701MA1999999091522MD1999999+0041MW1021REMSYN017333   10270 58004EQDQ01+091523APOSP 
0129833390999991984052712004-14050-042483FM-12+087299999V0201401N00361045001CN0200001N9+01921+01701101501ADDAA106000091AG10999AY101061GF108991041051004501021999KA1240N+01521MA1999999091721MD1999999+0061MW1021REMSYN017333   20152 58006
0129833390999991984052800004-14050-042483FM-12+087299999V0201801N00151220001CN9999999N9+02221+01331101311ADDAA106000091AG10999AY101061GF100991001001999999001001KA1240M+02791MA1999999091551MD1999999+0031MW1021REMSYN017333   10279 58003
0129833390999991984052812004-14050-042483FM-12+087299999V0201401N00361220001CN0200001N9+02031+01701101531ADDAA106000091AG10999AY101061GF102991021021004501001001KA1240N+01581MA1999999091751MD1999999+0031MW1101REMSYN017333   20158 58003
0096833390999991984052818004-14050-042483FM-12+087299999V0201401N00261220001CN0200001N9+02771+01281101131ADDAA106000091AG10999AY101061GF102991021011004501001001MA1999999091431MW1021REMSYN011333   580//
0202833390999991984052900004-14050-042483FM-12+087299999V0201401N00311220001CN9999999N9+02121+01231101331ADDAA106000091AG10999AY101061GA1031+013209039GF199999999001999999001001KA1240M+02791MA1999999091571MD1999999+0021MW1021REMSYN023333   10279 58002 83344EQDQ01+000002SCOTCVQ02+000002SCOTLCQ03+000992SCOLCB
0129833390999991984052904004-14050-042483FM-12+087299999V0201401N00311220001CN0200001N9+02061+01701101581ADDAA106000091AG10999AY101041GF100991001001999999001001KA1240N+01401MA1999999091801MD1999999+0051MW1101REMSYN017333   20140 58005
0129833390999991984052912004-14050-042483FM-12+087299999V0201401N00311220001CN0200001N9+02061+01701101581ADDAA106000091AG10999AY101061GF100991001001999999001001KA1240N+01401MA1999999091801MD1999999+0051MW1101REMSYN017333   20140 58005
0090833390999991984052918004-14050-042483FM-12+087299999V0201401N00211220001CN0200001N9+02751+01081101191ADDAA106000091AG10999AY101061GF100991001001999999001001MA1999999091461MD1810101+9999MW1021
0129833390999991984053000004-14050-042483FM-12+087299999V0201401N00101220001CN9999999N9+02141+01111101401ADDAA106000091AG10999AY101061GF100991001001999999001001KA1240M+02831MA1999999091631MD1999999+0061MW1021REMSYN017333   10283 58006
0129833390999991984053012004-14050-042483FM-12+087299999V0201401N00261220001CN0200001N9+02121+01701101541ADDAA106000091AG10999AY101061GF100991001001999999001001KA1240N+01881MA1999999091771MD1999999-0031MW1021REMSYN017333   20188 59003
0110833390999991984053018004-14050-042483FM-12+087299999V0201401N00211220001CN0200001N9+02781+01331101191ADDAA106000091AG10999AY101061GF102991021011004501001001MA1999999091471MD1999999+0011MW1021REMSYN011333   58001
0099833390999991984053021004-14050-042483FM-12+087299999V0203501N00101004201CN0500001N9+99999+99999101771ADDAG10999AY171031GF107991071051004501001001MD1710011+9999MW1021EQDQ01+027103ATOT  Q02+026853ATOD  
0129833390999991984053100004-14050-042483FM-12+087299999V0201401N00051220001CN9999999N9+02221+01221101451ADDAA106000091AG10999AY101061GF100991001001999999001001KA1240M+02831MA1999999091691MD1999999+0061MW1021REMSYN017333   10283 58006
0129833390999991984053112004-14050-042483FM-12+087299999V0201401N00461004201CN0040001N9+01941+01871101671ADDAA106000091AG10999AY101061GF108991081051004501999999KA1240N+01471MA1999999091881MD1999999+0111MW1421REMSYN017333   20147 58011
0110833390999991984053118004-14050-042483FM-12+087299999V0201401N00411220001CN0200001N9+02641+01281101341ADDAA106000091AG10999AY141061GF102991021011004501001001MA1999999091591MD1999999+0121MW1021REMSYN011333   58012
0129833390999991984060100004-14050-042483FM-12+087299999V0201401N00411220001CN9999999N9+02201+01341101631ADDAA106000091AG10999AY101061GF100991001001999999001001KA1240M+02691MA1999999091831MD1999999+0141MW1021REMSYN017333   10269 58014
0129833390999991984060112004-14050-042483FM-12+087299999V0201401N00981004201CN0200001N9+01931+01551101911ADDAA106000091AG10999AY101061GF106991051021004501021001KA1240N+01621MA1999999092081MD1999999+0201MW1021REMSYN017333   20162 58020
0110833390999991984060118004-14050-042483FM-12+087299999V0200901N00721004201CN0200001N9+02221+01651101761ADDAA106000091AG10999AY101061GF106991061021004501001001MA1999999091951MD1999999+0361MW1021REMSYN011333   58036
0129833390999991984060200004-14050-042483FM-12+087299999V0201401N00411004201CN9999999N9+01821+01691101991ADDAA106000091AG10999AY121061GF108991051051004501021999KA1240M+02291MA1999999092111MD1999999+0281MW1101REMSYN017333   10229 58028
0110833390999991984060218004-14050-042483FM-12+087299999V0201401N00871004201CN0200001N9+02641+01771101661ADDAA106000091AG10999AY101061GF105991051021004501001001MA1999999091871MD1999999-0081MW1021REMSYN011333   59008
0129833390999991984060300004-14050-042483FM-12+087299999V0201401N00511045001CN9999999N9+01981+01661101821ADDAA106000091AG10999AY101061GF108991041051004501021999KA1240M+02771MA1999999091991MD1999999-0221MW1021REMSYN017333   10277 59022
0144833390999991984060312004-14050-042483FM-12+087299999V0201401N00621045001CN0200001N9+01781+01631999999ADDAA199001091AG10999AY161061GF108991031051004501021011KA1240N+01681MA1999999091891MD1999999-0301ME1551739MW1101REMSYN023333   20168 59030 6001/
0129833390999991984060400004-14050-042483FM-12+087299999V0201401N00821004201CN9999999N9+01941+01641101671ADDAA106000091AG10999AY101061GF108991051021004501021999KA1240M+02431MA1999999091831MD1999999-0161MW1021REMSYN017333   10243 59016
0129833390999991984060412004-14050-042483FM-12+087299999V0201401N00621004201CN0040001N9+01801+01511101681ADDAA106000091AG10999AY101061GF105991051021004501001001KA1240N+01601MA1999999091841MD1999999-0051MW1101REMSYN017333   20160 59005
0110833390999991984060418004-14050-042483FM-12+087299999V0201401N00571220001CN0200001N9+02341+01381101321ADDAA106000091AG10999AY101061GF103991031021004501001001MA1999999091551MD1999999-0071MW1021REMSYN011333   59007
0129833390999991984060500004-14050-042483FM-12+087299999V0201401N00771220001CN9999999N9+02001+01681101561ADDAA106000091AG10999AY101061GF100991001001999999001001KA1240M+02491MA1999999091741MD1999999-0091MW1021REMSYN017333   10249 59009
0148833390999991984060512004-14050-042483FM-12+087299999V0201401N00571220001CN0200001N9+01981+01641101701ADDAA106000091AG10999AY101061GF104991041021004501001001KA1240N+01741MA1999999999999MD1999999+0041MW1101REMSYN017333   20174 58004EQDQ01 101803APOSP 
0129833390999991984060518004-14050-042483FM-12+087299999V0201401N00511220001CN0200001N9+02621+01301101321ADDAA106000091AG10999AY101061GF102991011021004501021001MA1999999091592MD1999999+0041MW1021REMSYN011333   58004EQDQ01+091593APOSP 
0129833390999991984060600004-14050-042483FM-12+087299999V0201401N00511220001CN9999999N9+02221+01551101501ADDAA106000091AG10999AY101061GF102991021021004501001001KA1240M+02671MA1999999091731MD1999999-0011MW1021REMSYN017333   10267 59001
0129833390999991984060612004-14050-042483FM-12+087299999V0201401N00671004201CN0200001N9+02031+01601101611ADDAA106000091AG10999AY101061GF106991061021004501001001KA1240N+01781MA1999999091831MD1999999-0051MW1021REMSYN017333   20178 59005
0110833390999991984060618004-14050-042483FM-12+087299999V0200501N00461220001CN0200001N9+02681+01281101231ADDAA106000091AG10999AY101061GF102991021011004501001001MA1999999091531MD1999999-0061MW1021REMSYN011333   59006
