0146833440999991984010100004-14850-040833FM-12+1042SBQU V0200901N00311004201CN9999999N9+01931+01791101441ADDAA106000291AA299000391AG10999AY151061GF106991061051004501001001KA1240M+02461MA1999999091451MD1999999-0011MW1031REMSYN023333   10246 59001 69921
0121833440999991984010112004-14850-040833FM-12+1042SBQU V0200901N00361004201CN0100001N9+02051+01851101581ADDAA124017091AG10999GF108991081051004501999999KA1240N+01771MA1999999091581MD1999999-0011REMSYN023333   20177 59001 60174
0132833440999991984010118004-14850-040833FM-12+1042SBQU V0201401N00461004201CN0100001N9+02271+01961101361ADDAA106000091AG10999AY101061GA1031+014409039GF108991081051004501999999MA1999999091391MD1999999+0021MW1021REMSYN017333   58002 83348
0129833440999991984010200004-14850-040833FM-12+1042SBQU V0201401N00261004201CN9999999N9+01901+01711101501ADDAA106000091AG10999AY101061GF108991081051004501999999KA1240M+02391MA1999999091501MD1999999+0051MW1021REMSYN017333   10239 58005
0146833440999991984010212004-14850-040833FM-12+1042SBQU V0200901N00411004201CN0200001N9+02141+01901101451ADDAA124000491AA299000591AG10999AY151061GF107991051021004501061001KA1240N+01801MA1999999091461MD1999999-0121MW1031REMSYN023333   20180 59012 69944
0127833440999991984010218004-14850-040833FM-12+1042SBQU V0200901N00261004201CN0040001N9+02021+02001101321ADDAA106000491AA299000591AG10999AY161061GF108991081051004501999999MA1999999091331MD1999999-0061MW1621REMSYN017333   59006 69941
0146833440999991984010312004-14850-040833FM-12+1042SBQU V0201401N00361045001CN0200001N9+02991+01931101511ADDAA106000491AA299000591AG10999AY101061GF107991031021008001021001KA1240N+01551MA1999999091511MD1999999+0051MW1021REMSYN023333   20155 58005 69941
0110833440999991984010318004-14850-040833FM-12+1042SBQU V0200901N00311045001CN0200001N9+02431+02131101331ADDAA106000091AG10999AY101061GF108991041031008001021999MA1999999091361MD1999999+0031MW1021REMSYN011333   58003
0129833440999991984010400004-14850-040833FM-12+1042SBQU V0200901N00311012001CN9999999N9+01921+01841101571ADDAA106000091AG10999AY101061GF106991061001012501061001KA1240M+02521MA1999999091571MD1999999+0121MW1021REMSYN017333   10252 58012
0129833440999991984010412004-14850-040833FM-12+1042SBQU V0203601N00151045001CN0100001N9+02221+01941101621ADDAA106000091AG10999AY101061GF107991041031004501061001KA1240N+01701MA1999999091631MD1999999+0121MW1021REMSYN017333   20170 58012
0127833440999991984010418004-14850-040833FM-12+1042SBQU V0203601N00151045001CN0100001N9+02491+02151101251ADDAA106000491AA299000591AG10999AY121061GF107991031031004501021031MA1999999091321MD1999999-0041MW1621REMSYN017333   59004 69941
0196833440999991984010500004-14850-040833FM-12+1042SBQU V0200901N00311220001CN9999999N9+02111+02081101351ADDAA106000091AG10999AY101061GA1031+014409039GF199999999001999999001001KA1240M+02811MA1999999091411MD1999999-0161MW1021REMSYN017333   10281 59016EQDQ01+000002SCOTCVQ02+000002SCOTLCQ03+000992SCOLCB
0132833440999991984010512004-14850-040833FM-12+1042SBQU V0200501N00211004201CN0040001N9+02111+01951101571ADDAA124000491AA299000591AG10999GF108991081051004501999999KA1240N+01901MA1999999091591MD1999999-0041REMSYN023333   20190 59004 69944
0110833440999991984010518004-14850-040833FM-12+1042SBQU V0201801N00151220001CN0200001N9+02771+01881101151ADDAA106000091AG10999AY101061GF104991041021008001001001MA1999999091261MD1999999-0061MW1021REMSYN011333   59006
0129833440999991984010600004-14850-040833FM-12+1042SBQU V0200901N00311220001CN9999999N9+02181+01951101241ADDAA106000091AG10999AY101061GF100991001001999999001001KA1240M+02861MA1999999091311MD1999999-0101MW1021REMSYN017333   10286 59010
0129833440999991984010612004-14850-040833FM-12+1042SBQU V0203601N00261220001CN0200001N9+02391+01931101191ADDAA106000091AG10999AY101061GF107991041091008001001011KA1240N+01751MA1999999091281MD1999999-0311MW1021REMSYN017333   20175 59031
0110833440999991984010618004-14850-040833FM-12+1042SBQU V0201801N00361105001CN0500001N9+02931+01791100911ADDAA106000091AG10999AY101061GF105991021021008001001051MA1999999091051MD1999999-0211MW1021REMSYN011333   59021
0196833440999991984010700004-14850-040833FM-12+1042SBQU V0200901N00311220001CN9999999N9+02211+01671101101ADDAA106000091AG10999AY101061GA1031+014409039GF199999999001999999001001KA1240M+03041MA1999999091211MD1999999-0101MW1021REMSYN017333   10304 59010EQDQ01+000002SCOTCVQ02+000002SCOTLCQ03+000992SCOLCB
0129833440999991984010712004-14850-040833FM-12+1042SBQU V0201801N00151105001CN0200001N9+02501+01871101201ADDAA106000091AG10999AY101061GF106991031001012501061021KA1240N+01691MA1999999091311MD1999999+0031MW1021REMSYN017333   20169 58003
0110833440999991984010718004-14850-040833FM-12+1042SBQU V0201401N00261220001CN0500001N9+02981+01531100801ADDAA106000091AG10999AY101061GF102991021021008001001001MA1999999090981MD1999999-0071MW1021REMSYN011333   59007
0129833440999991984010800004-14850-040833FM-12+1042SBQU V0200901N00261220001CN9999999N9+02301+01811101111ADDAA106000091AG10999AY101061GF100991001001999999001001KA1240M+03091MA1999999091241MD1999999+0031MW1021REMSYN017333   10309 58003
0110833440999991984010818004-14850-040833FM-12+1042SBQU V0200901N00361045001CN0200001N9+02721+01791101011ADDAA106000091AG10999AY101061GF106991041021004501021001MA1999999091141MD1999999+0161MW1021REMSYN011333   58016
0129833440999991984010900004-14850-040833FM-12+1042SBQU V0200901N00261220001CN9999999N9+02121+01911101201ADDAA106000091AG10999AY101061GF100991001001999999001001KA1240M+02841MA1999999091281MD1999999+0041MW1131REMSYN017333   10284 58004
0129833440999991984010912004-14850-040833FM-12+1042SBQU V0200901N00361004201CN0200001N9+02271+01701101321ADDAA106000091AG10999AY101061GF107991051021004501061001KA1240N+01941MA1999999091391MD1999999+0041MW1021REMSYN017333   20194 58004
0110833440999991984010915004-14850-040833FM-12+1042SBQU V0201401N00361220001CN0500001N9+02711+01771100941ADDAA106000091AG10999AY101031GF105991021021004501001081MA1999999091071MD1999999-0041MW1021REMSYN011333   59004
0148833440999991984011000004-14850-040833FM-12+1042SBQU V0200901N00411220001CN9999999N9+02101+01881101151ADDAA106000091AG10999AY101061GF104991041001004501041001KA1240M+02801MA1999999999999MD1999999-0041MW1021REMSYN017333   10280 59004EQDQ01 098243APOSP 
0129833440999991984011012004-14850-040833FM-12+1042SBQU V0201401N00311045001CN0200001N9+02241+01671101321ADDAA106000091AG10999AY101061GF107991041031004501061001KA1240N+01741MA1999999091381MD1999999-0011MW1021REMSYN017333   20174 59001
0110833440999991984011018004-14850-040833FM-12+1042SBQU V0201401N00311045001CN0200001N9+02981+01551101021ADDAA106000091AG10999AY101061GF107991031021004501041081MA1999999091131MD1999999+0061MW1021REMSYN011333   58006
0129833440999991984011100004-14850-040833FM-12+1042SBQU V0200901N00261220001CN9999999N9+01981+01521101151ADDAA106000091AG10999AY101061GF100991001001999999001001KA1240M+02771MA1999999091221MD1999999-0021MW1021REMSYN017333   10277 59002
0129833440999991984011112004-14850-040833FM-12+1042SBQU V0200901N00311220001CN0200001N9+02201+01741101351ADDAA106000091AG10999AY101061GF104991041011008001001001KA1240N+01681MA1999999091391MD1999999+0011MW1021REMSYN017333   20168 58001
0110833440999991984011118004-14850-040833FM-12+1042SBQU V0200901N00311220001CN0500001N9+02781+01641101091ADDAA106000091AG10999AY101061GF105991031021004501001011MA1999999091181MD1999999+0051MW1021REMSYN011333   58005
0129833440999991984011212004-14850-040833FM-12+1042SBQU V0200901N00411220001CN0200001N9+02311+01741101441ADDAA106000091AG10999AY101061GF103991031031008001001001KA1240N+01571MA1999999091501MD1999999+0111MW1021REMSYN017333   20157 58011
0110833440999991984011218004-14850-040833FM-12+1042SBQU V0201401N00411220001CN0500001N9+02841+01431101191ADDAA106000091AG10999AY101061GF103991031011008001001001MA1999999091291MD1999999+0111MW1021REMSYN011333   58011
0129833440999991984011300004-14850-040833FM-12+1042SBQU V0200501N00311220001CN9999999N9+02131+01781101341ADDAA106000091AG10999AY101061GF100991001001999999001001KA1240M+02951MA1999999091321MD1999999+0011MW1021REMSYN017333   10295 58001
0129833440999991984011312004-14850-040833FM-12+1042SBQU V0200501N00511220001CN0500001N9+02291+01351101221ADDAA106000091AG10999AY101061GF101991011011004501001001KA1240N+01781MA1999999091571MD1999999+0071MW1021REMSYN017333   20178 58007
0110833440999991984011318004-14850-040833FM-12+1042SBQU V0201401N00261220001CN0500001N9+02811+01201101221ADDAA106000091AG10999AY101061GF102991021011004501001001MA1999999091311MD1999999+0021MW1021REMSYN011333   58002
0129833440999991984011400004-14850-040833FM-12+1042SBQU V0200901N00261220001CN9999999N9+02101+01461101331ADDAA106000091AG10999AY101061GF100991001001999999001001KA1240M+02911MA1999999091401MD1999999+0091MW1021REMSYN017333   10291 58009
0129833440999991984011412004-14850-040833FM-12+1042SBQU V0200501N00311220001CN0200001N9+02321+01391101391ADDAA106000091AG10999AY101061GF100991001001999999001001KA1240N+01531MA1999999091451MD1999999-0121MW1021REMSYN017333   20153 59012
0110833440999991984011418004-14850-040833FM-12+1042SBQU V0201401N00461220001CN0500001N9+02861+01371101011ADDAA106000091AG10999AY101061GF100991001001999999001001MA1999999091121MD1999999-0191MW1021REMSYN011333   59019
0129833440999991984011512004-14850-040833FM-12+1042SBQU V0200501N00311220001CN0200001N9+02301+01321101291ADDAA106000091AG10999AY101061GF101991011011004501001001KA1240N+01561MA1999999091371MD1999999-0081MW1021REMSYN017333   20156 59008
0129833440999991984011518004-14850-040833FM-12+1042SBQU V0201801N004619999999N0500001N9+02831+01361100941ADDAA106000091AG10999AY101061GF106991999021008001001001MA1999999091061MD1999999+0061MW1021REMSYN011333   58006EQDQ01+000022SCOTLC
0129833440999991984011600004-14850-040833FM-12+1042SBQU V0200901N00311220001CN9999999N9+02151+01451101121ADDAA106000091AG10999AY101061GF100991001001999999001001KA1240M+02911MA1999999091211MD1999999-0011MW1021REMSYN017333   10291 59001
0129833440999991984011612004-14850-040833FM-12+1042SBQU V0200901N00211220001CN0200001N9+02361+01611101251ADDAA106000091AG10999AY101061GF100991001001999999001001KA1240N+01911MA1999999091341MD1999999-0031MW1021REMSYN017333   20191 59003
0110833440999991984011618004-14850-040833FM-12+1042SBQU V0201401N00311004201CN0200001N9+02861+99999100941ADDAA106000091AG10999AY101061GF106991061021004501001001MA1999999091071MD1999999+0011MW1021REMSYN011333   58001
0129833440999991984011700004-14850-040833FM-12+1042SBQU V0200901N00211220001CN9999999N9+02321+01501101101ADDAA106000091AG10999AY101061GF100991001001999999001001KA1240M+02981MA1999999091221MD1999999+0011MW1021REMSYN017333   10298 58001
0129833440999991984011712004-14850-040833FM-12+1042SBQU V0200901N00361004201CN0200001N9+02251+01691101321ADDAA106000091AG10999AY101061GF106991061021004501001001KA1240N+01711MA1999999091411MD1999999+0071MW1021REMSYN017333   20171 58007
0110833440999991984011718004-14850-040833FM-12+1042SBQU V0201401N00261220001CN0500001N9+02831+01671101061ADDAA106000091AG10999AY101061GF104991041021004501001001MA1999999091161MD1999999+0091MW1021REMSYN011333   58009
0129833440999991984011800004-14850-040833FM-12+1042SBQU V0200901N00311220001CN9999999N9+02251+01541101201ADDAA106000091AG10999AY101061GF100991001001999999001001KA1240M+02921MA1999999091291MD1999999+0071MW1021REMSYN017333   10292 58007
0148833440999991984011812004-14850-040833FM-12+1042SBQU V0200501N00311220001CN0200001N9+02361+01561101381ADDAA106000091AG10999AY101061GF100991001001999999001001KA1240N+01561MA1999999091371MD1999999-0041MW1021REMSYN017333   20156 59004EQDQ01+000022SCOTCV
0129833440999991984011912004-14850-040833FM-12+1042SBQU V0200901N00211007501CN0200001N9+02241+01691101171ADDAA106000091AG10999AY101061GF105991051021008001001001KA1240N+01891MA1999999091251MD1999999-0121MW1021REMSYN017333   20189 59012
0110833440999991984011918004-14850-040833FM-12+1042SBQU V0201401N00211045001CN0500001N9+02861+01721100781ADDAA106000091AG10999AY101061GF107991041021004501041001MA1999999090941MD1999999-0161MW1021REMSYN011333   59016
0129833440999991984012000004-14850-040833FM-12+1042SBQU V0200901N00311220001CN9999999N9+02131+01411100881ADDAA106000091AG10999AY101061GF100991001001999999001001KA1240M+02961MA1999999091031MD1999999-0201MW1021REMSYN017333   10296 59020
0129833440999991984012012004-14850-040833FM-12+1042SBQU V0203601N00261220001CN0200001N9+02191+01781100991ADDAA106000091AG10999AY101061GF100991001001999999001001KA1240N+01821MA1999999091081MD1999999-0171MW1021REMSYN017333   20182 59017
0110833440999991984012018004-14850-040833FM-12+1042SBQU V0201801N00211105001CN0500001N9+03071+01641100521ADDAA106000091AG10999AY101061GF106991041021004501001081MA1999999090721MD1999999-0221MW1021REMSYN011333   59022
0129833440999991984012100004-14850-040833FM-12+1042SBQU V0200501N00211220001CN9999999N9+02261+01661100761ADDAA106000091AG10999AY101061GF100991001001999999001001KA1240M+03251MA1999999090891MD1999999-0141MW1131REMSYN017333   10325 59014
0129833440999991984012112004-14850-040833FM-12+1042SBQU V0203601N00311045001CN0200001N9+02411+01821101011ADDAA106000091AG10999AY101061GF106991031021008001041001KA1240N+01851MA1999999091141MD1999999+0061MW1021REMSYN017333   20185 58006
0110833440999991984012118004-14850-040833FM-12+1042SBQU V0203601N00211220001CN0500001N9+03111+01681100681ADDAA106000091AG10999AY101061GF104991041021004501001001MA1999999090871MD1999999+0121MW1021REMSYN011333   58012
0148833440999991984012200004-14850-040833FM-12+1042SBQU V0200901N00151220001CN9999999N9+02341+01741100921ADDAA106000091AG10999AY101061GF104991999001017501061001KA1240M+03211MA1999999091051MD1999999+0161MW1021REMSYN017333   10321 58016EQDQ01+000032SCOTLC
0148833440999991984012212004-14850-040833FM-12+1042SBQU V0203601N004619999999N0200001N9+02281+01661101131ADDAA106000091AG10999AY101061GF107991001001999999001041KA1240N+01801MA1999999091241MD1999999+0101MW1021REMSYN017333   20180 58010EQDQ01+000972SCOLCB
0145833440999991984012218004-14850-040833FM-12+1042SBQU V0209999999999220001CN0500001N9+03221+01071100781ADDAA106000091AG10999AY101061GF102991001001999999001081MA1999999070952MD1999999+0081MW1021REMSYN011333   58008EQDQ01+000942SCOLCBQ02+070953APOSP 
0110833440999991984012318004-14850-040833FM-12+1042SBQU V0209991C00001045001CN0200001N9+02991+01641100711ADDAA106000091AG10999AY101061GF106991021021008001041021MA1999999090871MD1999999-0081MW1021REMSYN011333   59008
0129833440999991984012400004-14850-040833FM-12+1042SBQU V0200901N00411220001CN9999999N9+02351+01541100791ADDAA106000091AG10999AY101061GF100991001001999999001001KA1240M+03081MA1999999090931MD1999999-0051MW1021REMSYN017333   10308 59005
0116833440999991984012412004-14850-040833FM-12+1042SBQU V0203601N00151007501CN0200001N9+02301+01721100991ADDAA106000091AG10999AY101061GF107991071001008001041041MA1999999091111MD1999999-0081MW1021REMSYN017333   2090/ 59008
0110833440999991984012418004-14850-040833FM-12+1042SBQU V0201401N00411045001CN0500001N9+02971+01661100541ADDAA106000091AG10999AY101061GF107991041021004501021001MA1999999090741MD1999999-0131MW1021REMSYN011333   59013
0129833440999991984012500004-14850-040833FM-12+1042SBQU V0201401N00311220001CN9999999N9+02161+01881100871ADDAA106000091AG10999AY101061GF100991001001999999001001KA1240M+03171MA1999999090921MD1999999+0061MW1021REMSYN017333   10317 58006
0138833440999991984012512004-14850-040833FM-12+1042SBQU V0203601N00211105001CN0200001N9+02241+01441999999ADDAA106000091AG10999AY101061GF107991001001999999001091KA1240N+01791MA1999999091231MD1999999+0121ME1310149MW1021REMSYN017333   20179 58012
0110833440999991984012518004-14850-040833FM-12+1042SBQU V0200901N00261220001CN0500001N9+03031+02451100761ADDAA106000091AG10999AY101061GF104991021021008001001021MA1999999090921MD1999999+0181MW1021REMSYN011333   58018
0129833440999991984012600004-14850-040833FM-12+1042SBQU V0200901N00361220001CN9999999N9+02291+01511100941ADDAA106000091AG10999AY101061GF100991001001999999001001KA1240M+03141MA1999999091061MD1999999-0071MW1021REMSYN017333   10314 59007
0129833440999991984012612004-14850-040833FM-12+1042SBQU V0200501N00311045001CN0200001N9+02321+01671101131ADDAA106000091AG10999AY101061GF106991031031004501021001KA1240N+01811MA1999999091241MD1999999+0011MW1021REMSYN017333   20181 58001
0110833440999991984012618004-14850-040833FM-12+1042SBQU V0200901N00411004201CN0500001N9+02941+01511100821ADDAA106000091AG10999AY101061GF106991061021004501001001MA1999999090961MD1999999+0041MW1021REMSYN011333   58004
0129833440999991984012700004-14850-040833FM-12+1042SBQU V0200501N00411220001CN9999999N9+02271+01831100961ADDAA106000091AG10999AY101061GF100991001001999999001001KA1240M+03131MA1999999091081MD1999999+0021MW1021REMSYN017333   10313 58002
0148833440999991984012712004-14850-040833FM-12+1042SBQU V0200501N00461220001CN0500001N9+02451+01611101261ADDAA106000091AG10999AY101061GF105991031091008001001011KA1240N+01821MA1999999999999MD1999999+0121MW1021REMSYN017333   20182 58012EQDQ01 093363APOSP 
0145833440999991984012718004-14850-040833FM-12+1042SBQU V0200401N00461220001CN0500001N9+03061+01381100801ADDAA106000091AG10999AY101061GF104991999021008001001001MA1999999090972MD1999999-0011MW1021REMSYN011333   59001EQDQ01+000032SCOTLCQ02+090973APOSP 
0129833440999991984012800004-14850-040833FM-12+1042SBQU V0200501N00511220001CN9999999N9+02291+01511100951ADDAA106000091AG10999AY101061GF100991001001999999001001KA1240M+03171MA1999999091081MD1410001+0001MW1021REMSYN017333   10317 58000
0129833440999991984012812004-14850-040833FM-12+1042SBQU V0200501N00721004201CN0200001N9+02361+01661101121ADDAA106000091AG10999AY101061GF105991051021004501001001KA1240N+01801MA1999999091231MD1999999-0131MW1021REMSYN017333   20180 59013
0110833440999991984012818004-14850-040833FM-12+1042SBQU V0201401N00361004201CN0500001N9+02981+01271100771ADDAA106000091AG10999AY101061GF105991051021004501001001MA1999999090931MD1999999-0041MW1021REMSYN011333   59004
0129833440999991984012900004-14850-040833FM-12+1042SBQU V0200501N00361220001CN9999999N9+02221+01551101001ADDAA106000091AG10999AY101061GF100991001001999999001001KA1240M+03121MA1999999091121MD1999999+0041MW1021REMSYN017333   10312 58004
0129833440999991984012912004-14850-040833FM-12+1042SBQU V0200501N00461220001CN0500001N9+02411+01621101291ADDAA106000091AG10999AY101061GF103991031021008001001001KA1240N+01671MA1999999091381MD1999999+0151MW1021REMSYN017333   20167 58015
0110833440999991984012918004-14850-040833FM-12+1042SBQU V0200901N00461007501CN0500001N9+02961+01231100951ADDAA106000091AG10999AY101061GF105991051021008001001001MA1999999091081MD1999999+0151MW1021REMSYN011333   58015
0129833440999991984013000004-14850-040833FM-12+1042SBQU V0200901N00361220001CN9999999N9+02201+01491101191ADDAA106000091AG10999AY101061GF100991001001999999001001KA1240M+03101MA1999999091291MD1999999+0171MW1021REMSYN017333   10310 58017
0129833440999991984013012004-14850-040833FM-12+1042SBQU V0200901N00261045001CN0100001N9+02261+01691101321ADDAA106000091AG10999AY101061GF107991041031004501021001KA1240N+01721MA1999999091401MD1999999+0021MW1021REMSYN017333   20172 58002
0110833440999991984013018004-14850-040833FM-12+1042SBQU V0201401N00361220001CN0500001N9+02941+01231100921ADDAA106000091AG10999AY101061GF104991041021004501001001MA1999999091051MD1999999-0031MW1021REMSYN011333   59003
0110833440999991984013118004-14850-040833FM-12+1042SBQU V0201401N00311004201CN0500001N9+02941+01421100951ADDAA106000091AG10999AY101061GF105991051021004501001001MA1999999091071MD1999999+0021MW1021REMSYN011333   58002
0129833440999991984020100004-14850-040833FM-12+1042SBQU V0200901N00511220001CN9999999N9+02331+01471101111ADDAA106000091AG10999AY101061GF100991001001999999001001KA1240M+02991MA1999999091221MD1999999+0041MW1021REMSYN017333   10299 58004
0129833440999991984020112004-14850-040833FM-12+1042SBQU V0200901N00311220001CN0500001N9+02471+01701101201ADDAA106000091AG10999AY101061GF100991001001999999001001KA1240N+01751MA1999999091321MD1999999-0081MW1021REMSYN017333   20175 59008
0110833440999991984020118004-14850-040833FM-12+1042SBQU V0200901N00311004201CN0500001N9+02921+01501100891ADDAA106000091AG10999AY101061GF105991051021004501001001MA1999999091031MD1999999-0041MW1021REMSYN011333   59004
0129833440999991984020200004-14850-040833FM-12+1042SBQU V0201401N00151220001CN9999999N9+02261+01771101011ADDAA106000091AG10999AY101061GF100991001001999999001001KA1240M+03001MA1999999091141MD1999999-0081MW1021REMSYN017333   10300 59008
0129833440999991984020212004-14850-040833FM-12+1042SBQU V0201401N00151045001CN0100001N9+02251+01881101251ADDAA106000091AG10999AY101061GF107991041021008001021001KA1240N+01971MA1999999091341MD1999999+0021MW1021REMSYN017333   20197 58002
0116833440999991984020218004-14850-040833FM-12+1042SBQU V0200901N00411004201CN0200001N9+02781+01761100851ADDAA106000391AG10999AY151061GF105991051021004501001001MA1999999091001MD1999999-0031MW1021REMSYN017333   59003 69931
0129833440999991984020300004-14850-040833FM-12+1042SBQU V0200901N00461220001CN9999999N9+02161+01431101041ADDAA106000091AG10999AY101061GF100991001001999999001001KA1240M+02921MA1999999091141MD1410001+0001MW1021REMSYN017333   10292 58000
0146833440999991984020312004-14850-040833FM-12+1042SBQU V0200501N00311007501CN0100001N9+02281+01831101171ADDAA106000091AA224000291AG10999AY101061GF107991071031008001001001KA1240N+01701MA1999999091251MD1999999-0091MW1021REMSYN023333   20170 59009 69924
0146833440999991984020412004-14850-040833FM-12+1042SBQU V0200901N00461007501CN0200001N9+02331+01811101211ADDAA124000991AA299001091AG10999AY161061GF105991051021008001001001KA1240N+01871MA1999999091291MD1999999+0081MW1021REMSYN023333   20187 58008 69994
0110833440999991984020418004-14850-040833FM-12+1042SBQU V0201401N00411220001CN0500001N9+02941+01481100921ADDAA106000091AG10999AY101061GF104991041021008001001001MA1999999091061MD1999999+0171MW1021REMSYN011333   58017
0135833440999991984020512004-14850-040833FM-12+1042SBQU V0201401N00261004201CN0100001N9+02231+01821101201ADDAA124000191AG10999AY101061GF108991081051004501999999KA1240N+01821MA1999999091281MD1999999-0011MW1021REMSYN023333   20182 59001 69914
0129833440999991984020518004-14850-040833FM-12+1042SBQU V0201401N00361105001CN0500001N9+02881+01831100342ADDAA106000091AG10999AY101061GF106991021031004501031031MA1999999090991MD1999999-0031MW1021REMSYN011333   59003EQDQ01+100343APOSLP
0146833440999991984020612004-14850-040833FM-12+1042SBQU V0201401N00311004201CN0100001N9+02311+01791101171ADDAA106000091AA224698092AG10999AY101061GF108991061031004501021999KA1240N+01951MA1999999091251MD1999999-0031MW1021REMSYN023333   20195 59003 66984
0110833440999991984020618004-14850-040833FM-12+1042SBQU V0201401N00411004201CN0200001N9+02761+01691100741ADDAA106000091AG10999AY101061GF108991051021004501021999MA1999999090891MD1999999-0101MW1021REMSYN011333   59010
0129833440999991984020700004-14850-040833FM-12+1042SBQU V0200901N00151220001CN9999999N9+02221+01941100891ADDAA106000091AG10999AY101061GF100991001001999999001001KA1240M+02881MA1999999091011MD1999999-0091MW1021REMSYN017333   10288 59009
0129833440999991984020712004-14850-040833FM-12+1042SBQU V0200901N00311007501CN0200001N9+02351+01731101891ADDAA106000091AG10999AY101061GF106991061021008001001001KA1240N+01961MA1999999091201MD1999999-0051MW1021REMSYN017333   20196 59005
0129833440999991984020718004-14850-040833FM-12+1042SBQU V0201401N00411007501CN0200001N9+02941+01321100692ADDAA106000091AG10999AY101061GF106991061021008001001081MA1999999090871MD1999999-0021MW1021REMSYN011333   59002EQDQ01+100693APOSLP
0129833440999991984020800004-14850-040833FM-12+1042SBQU V0200901N00311220001CN9999999N9+02681+01871101031ADDAA106000091AG10999AY101061GF100991001001999999001001KA1240M+03141MA1999999091151MD1999999+0141MW1021REMSYN017333   10314 58014
0129833440999991984020812004-14850-040833FM-12+1042SBQU V0200901N00411004201CN0100001N9+02251+01821101301ADDAA106000091AG10999AY101061GF108991081051004501999999KA1240N+01731MA1999999091391MD1999999-0191MW1021REMSYN017333   20173 59019
0110833440999991984020818004-14850-040833FM-12+1042SBQU V0201401N00261004201CN0200001N9+02771+01551101011ADDAA106000091AG10999AY101061GF107991051031004501021001MA1999999091131MD1999999+0261MW1021REMSYN011333   58026
0129833440999991984020900004-14850-040833FM-12+1042SBQU V0201801N00151004201CN9999999N9+02271+01901101231ADDAA106000091AG10999AY101061GF108991081051004501999999KA1240M+02981MA1999999091321MD1999999+0101MW1021REMSYN017333   10298 58010
0129833440999991984020912004-14850-040833FM-12+1042SBQU V0201401N00411004201CN0200001N9+02321+01651101391ADDAA106000091AG10999AY101061GF105991051021004501001001KA1240N+01761MA1999999091471MD1999999+0081MW1021REMSYN017333   20176 58008
0145833440999991984020918004-14850-040833FM-12+1042SBQU V0201401N04932220001CN0500001N9+02981+01441101031ADDAA106000091AG10999AY101061GF104991999021008001001001MA1999999091171MD1999999+0041MW1021REMSYN011333   58004EQDQ01+004933WOSPD Q02+000032SCOTLC
0146833440999991984021012004-14850-040833FM-12+1042SBQU V0201401N00311004201CN0040001N9+02091+01961101331ADDAA106000091AA224999929AG10999AY101061GF108991081051004501999999KA1240N+01901MA1999999091351MD1999999-0121MW1151REMSYN023333   20190 59012 69904
0116833440999991984021018004-14850-040833FM-12+1042SBQU V0200901N00411004201CN0200001N9+02541+01861100981ADDAA106001091AG10999AY161061GF107991071071004501001001MA1999999091091MD1999999-0081MW1021REMSYN017333   59008 60011
0129833440999991984021100004-14850-040833FM-12+1042SBQU V0201401N00211004201CN9999999N9+02121+01811101211ADDAA106000091AG10999AY101061GF107991071051004501001001KA1240M+02651MA1999999091241MD1999999+0021MW1021REMSYN017333   10265 58002
0146833440999991984021112004-14850-040833FM-12+1042SBQU V0200901N00411004201CN0200001N9+02321+01701101281ADDAA106000091AA224001091AG10999AY101061GF105991051021004501001001KA1240N+01811MA1999999091351MD1410001+0001MW1021REMSYN023333   20181 58000 60014
0110833440999991984021118004-14850-040833FM-12+1042SBQU V0201401N00361004201CN0500001N9+02921+01461100941ADDAA106000091AG10999AY101061GF105991051021004501001001MA1999999091081MD1999999-0011MW1021REMSYN011333   59001
0129833440999991984021212004-14850-040833FM-12+1042SBQU V0201401N00361045001CN0200001N9+02211+01781101191ADDAA106000091AG10999AY101061GF107991041021004501061001KA1240N+01841MA1999999091271MD1999999-0081MW1021REMSYN017333   20184 59008
0127833440999991984021218004-14850-040833FM-12+1042SBQU V0201401N00411004201CN0200001N9+02731+01841100841ADDAA106000491AA299000591AG10999AY151061GF107991051031004501021001MA1999999090971MD1999999-0111MW1021REMSYN017333   59011 69941
0129833440999991984021300004-14850-040833FM-12+1042SBQU V0209999999999220001CN9999999N9+02241+01911101101ADDAA106000091AG10999AY101061GF100991001001999999001001KA1240M+02801MA1999999091181MD1999999+0021MW1021REMSYN017333   10280 58002
0102833440999991984021312004-14850-040833FM-12+1042SBQU V0200901N00361004201CN0200001N9+02301+01751101231ADDAA124094091AG10999GF106991061021004501001001MA1999999091311MD1999999+0041REMSYN017333   58004 60944
0116833440999991984021318004-14850-040833FM-12+1042SBQU V0201401N00311004201CN0040001N9+02181+01971101031ADDAA106001091AG10999AY161061GF108991081051004501999999MA1999999091091MD1999999+0121MW1031REMSYN017333   58012 60011
0146833440999991984021400004-14850-040833FM-12+1042SBQU V0200901N00151220001CN9999999N9+01911+01821101151ADDAA106000491AA299000591AG10999AY161061GF104991041001008001041001KA1240M+02621MA1999999091221MD1999999+0041MW1031REMSYN023333   10262 58004 69941
0135833440999991984021412004-14850-040833FM-12+1042SBQU V0200901N00211004201CN0040001N9+03121+01741101751ADDAA124001091AG10999AY101061GF108991081051004501999999KA1240N+01701MA1999999091371MD1999999+0061MW1021REMSYN023333   20170 58006 60014
0135833440999991984021418004-14850-040833FM-12+1042SBQU V0201801N00411045001CN0200001N9+02801+01901100872ADDAA106000191AG10999AY151061GF106991021031004501041081MA1999999090991MD1999999-0101MW1031REMSYN017333   59010 69911EQDQ01+100873APOSLP
0135833440999991984021500004-14850-040833FM-12+1042SBQU V0201401N00311004201CN9999999N9+02021+01891101091ADDAA106001091AG10999AY191061GF107991071051004501001001KA1240M+02851MA1999999091141MD1999999-0071MW1011REMSYN023333   10285 59007 60011
0146833440999991984021512004-14850-040833FM-12+1042SBQU V0200501N00211004201CN0100001N9+02271+01731101221ADDAA106000091AA224001091AG10999AY101061GF107991071051004501001001KA1240N+01781MA1999999091291MD1999999-0081MW1021REMSYN023333   20178 59008 60014
0129833440999991984021518004-14850-040833FM-12+1042SBQU V0201401N003119999999N0200001N9+02801+01691100891ADDAA106000091AG10999AY101061GF106991999001004501001001MA1999999091021MD1999999+0031MW1021REMSYN011333   58003EQDQ01+000002SCOTLC
0129833440999991984021600004-14850-040833FM-12+1042SBQU V0200901N00311220001CN9999999N9+02001+01611101071ADDAA106000091AG10999AY101061GF100991001001999999001001KA1240M+02831MA1999999091161MD1999999+0011MW1021REMSYN017333   10283 58001
0129833440999991984021612004-14850-040833FM-12+1042SBQU V0201401N00361220001CN0200001N9+02391+01701101221ADDAA106000091AG10999AY101061GF103991031011008001001001KA1240N+01731MA1999999091311MD1999999+0021MW1021REMSYN017333   20173 58002
0110833440999991984021618004-14850-040833FM-12+1042SBQU V0201801N00361004201CN0500001N9+02541+01621100871ADDAA106000091AG10999AY101061GF105991051021004501001001MA1999999091021MD1410001+0001MW1021REMSYN011333   58000
0129833440999991984021700004-14850-040833FM-12+1042SBQU V0200901N00101220001CN9999999N9+02201+01841101001ADDAA106000091AG10999AY101061GF100991001001999999001001KA1240M+03051MA1999999091121MD1999999-0041MW1021REMSYN017333   10305 59004
0129833440999991984021712004-14850-040833FM-12+1042SBQU V0200901N00261220001CN0200001N9+02561+01731101091ADDAA106000091AG10999AY101061GF102991021011008001001081KA1240N+01771MA1999999091221MD1999999-0091MW1021REMSYN017333   20177 59009
0110833440999991984021718004-14850-040833FM-12+1042SBQU V0201801N00411004201CN0500001N9+03021+01731100741ADDAA106000091AG10999AY101061GF105991051021004501001001MA1999999090901MD1999999-0121MW1021REMSYN011333   59012
0129833440999991984021800004-14850-040833FM-12+1042SBQU V0200901N00461220001CN9999999N9+02271+01881100871ADDAA106000091AG10999AY101061GF100991001001999999001001KA1240M+03061MA1999999091021MD1999999-0061MW1021REMSYN017333   10306 59006
0115833440999991984021812004-14850-040833FM-12+1042SBQU V0200901N00261220001CN0500001N9+02481+01641100981ADDAA106000091AG10999AY101061GF100991001001999999001001KA1240N+01781MA1999999091111MW1021REMSYN017333   20178 8//8/
0110833440999991984021818004-14850-040833FM-12+1042SBQU V0201401N00361220001CN0500001N9+03011+01661100671ADDAA106000091AG10999AY101061GF104991041021004501001001MA1999999090851MD1999999-0051MW1021REMSYN011333   59005
0129833440999991984021900004-14850-040833FM-12+1042SBQU V0200901N00311220001CN9999999N9+02341+01761100921ADDAA106000091AG10999AY101061GF100991001001999999001001KA1240M+03091MA1999999091071MD1999999+0011MW1021REMSYN017333   10309 58001
0129833440999991984021912004-14850-040833FM-12+1042SBQU V0200901N00361004201CN0100001N9+02281+01771101271ADDAA106000091AG10999AY101061GF108991081051004501999999KA1240N+01751MA1999999091361MD1999999+0251MW1021REMSYN017333   20175 58025
0110833440999991984021918004-14850-040833FM-12+1042SBQU V0201401N00311004201CN0200001N9+02971+01661100901ADDAA106000091AG10999AY101061GF105991051021004501001001MA1999999091041MD1999999+0191MW1021REMSYN011333   58019
0129833440999991984022012004-14850-040833FM-12+1042SBQU V0200901N00361004201CN0200001N9+02421+01731101341ADDAA106000091AG10999AY101061GF105991051021004501001001KA1240N+01881MA1999999091441MD1999999+0081MW1021REMSYN017333   20188 58008
0116833440999991984022018004-14850-040833FM-12+1042SBQU V0200901N00151045001CN0100001N9+02481+01981101081ADDAA106004091AG10999AY191061GF107991041031004501021001MA1999999091181MD1999999+0141MW1021REMSYN017333   58014 60041
0146833440999991984022100004-14850-040833FM-12+1042SBQU V0200901N00151004201CN9999999N9+01921+01871101351ADDAA106000691AA299000591AG10999AY191061GF108991081051004501999999KA1240M+02751MA1999999091421MD1999999+0131MW1031REMSYN023333   10275 58013 69961
0148833440999991984022112004-14850-040833FM-12+1042SBQU V0201801N00261004201CN0100001N9+02671+01861999999ADDAA106000091AG10999AY101061GF105991051021004501001001KA1240N+01671MA1999999999999MD1999999-0031MW1021REMSYN017333   20167 59003EQDQ01 096803APOSP 
0135833440999991984022115004-14850-040833FM-12+1042SBQU V0200901N00571004201CN0100001N9+02181+01881101051ADDAA106000391AG10999AY151031GF108991081051004501999999MA1999999091122MD1999999-0061MW1031REMSYN017333   59006 69931EQDQ01+091123APOSP 
0110833440999991984022218004-14850-040833FM-12+1042SBQU V0201401N00361004201CN0500001N9+02901+01551101031ADDAA106000091AG10999AY101061GF105991051021004501001001MA1999999091151MD1999999-0071MW1021REMSYN011333   59007
0129833440999991984022300004-14850-040833FM-12+1042SBQU V0200901N00311220001CN9999999N9+02211+01821101221ADDAA106000091AG10999AY101061GF100991001001999999001001KA1240M+02931MA1999999091321MD1999999+0021MW1021REMSYN017333   10293 58002
0110833440999991984022318004-14850-040833FM-12+1042SBQU V0201401N00311045001CN0500001N9+02821+01651100881ADDAA106000091AG10999AY101061GF107991041021004501021001MA1999999091011MD1999999-0151MW1021REMSYN011333   59015
0129833440999991984022412004-14850-040833FM-12+1042SBQU V0200901N003119999999N0200001N9+02381+01711101251ADDAA106000091AG10999AY101061GF107991071001004501061001KA1240N+01761MA1999999091341MD1999999-0081MW1021REMSYN017333   20176 59008
0099833440999991984022418004-14850-040833FM-12+1042SBQU V0200901N00101004201CN0100001N9+02341+02011100941ADDAG10999AY191061GF108991081051004501999999MA1999999091021MD1999999+0011MW1171REMSYN011333   58001
0181833440999991984022500004-14850-040833FM-12+1042SBQU V0200901N00261220001CN9999999N9+02011+01891101081ADDAA106000891AA299001091AG10999AY191061GF100991001001999999001001KA1240M+02851MA1999999999999MD1410001+0001MW1021REMSYN023333   10285 58000 69981EQDQ01+101173APOSP Q02 101173APOSP 
0154833440999991984022512004-14850-040833FM-12+1042SBQU V0200501N00261220001CN0200001N9+02301+01531101241ADDAA124003091AG10999AY101061GF102991001001999999001041KA1240N+01721MA1999999091311MD1999999-0031MW1021REMSYN023333   20172 59003 60034EQDQ01+000982SCOLCB
0110833440999991984022518004-14850-040833FM-12+1042SBQU V0200901N00261045001CN0200001N9+02871+01351100891ADDAA106000091AG10999AY101061GF107991041021004501041001MA1999999090981MD1999999-0041MW1021REMSYN011333   59004
0129833440999991984022600004-14850-040833FM-12+1042SBQU V0200901N00411220001CN9999999N9+02101+01491101121ADDAA106000091AG10999AY101061GF100991001001999999001001KA1240M+03031MA1999999091211MD1999999+0091MW1021REMSYN017333   10303 58009
0148833440999991984022612004-14850-040833FM-12+1042SBQU V0200901N00621220001CN0500001N9+02381+01281101301ADDAA106000091AG10999AY101061GF101991001001999999001041KA1240N+01181MA1999999091381MD1999999+0071MW1021REMSYN017333   20118 58007EQDQ01+000982SCOLCB
0115833440999991984022618004-14850-040833FM-12+1042SBQU V0201801N001519999999N0006001N9+02921+01341100991ADDAA106000091AG10999GF105991999021004501001001MA1999999091131MD1999999+0151REMSYN011333   58015EQDQ01+000032SCOTLC
0129833440999991984022700004-14850-040833FM-12+1042SBQU V0200901N00211220001CN9999999N9+02181+01521101191ADDAA106000091AG10999AY101061GF100991001001999999001001KA1240M+03011MA1999999091211MD1999999+0081MW1021REMSYN017333   10301 58008
0076833440999991984022718004-14850-040833FM-12+1042SBQU V0201401N00461007501CN0200001N9+02681+01761101221ADDAA106000091AG10999AY101061GF107991051021008001041999MA1999999091301MW1021
0129833440999991984022812004-14850-040833FM-12+1042SBQU V0200901N00261045001CN0200001N9+02381+01661101521ADDAA106000091AG10999AY101061GF106991041021004501021001KA1240N+01681MA1999999091581MD1999999+0071MW1021REMSYN017333   20168 58007
0110833440999991984022818004-14850-040833FM-12+1042SBQU V0200901N00361220001CN0500001N9+02981+01351101121ADDAA106000091AG10999AY101061GF102991021011008001001001MA1999999091261MD1999999-0041MW1021REMSYN011333   59004
0129833440999991984022900004-14850-040833FM-12+1042SBQU V0201401N00151220001CN9999999N9+02281+01701101321ADDAA106000091AG10999AY101061GF100991001001999999001001KA1240M+03081MA1999999091421MD1999999+0071MW1021REMSYN017333   10308 58007
0129833440999991984022910004-14850-040833FM-12+1042SBQU V0201401N00361004201CN0100001N9+99999+99999101321ADDAA106000091AG10999AY101999GF107991071031004501001001KA1240N+01811MA1999999091411MD1999999-0171MW1021REMSYN017333   20181 59017
0129833440999991984022912004-14850-040833FM-12+1042SBQU V0201401N00361004201CN0100001N9+02351+01851101321ADDAA106000091AG10999AY101061GF107991071031004501001001KA1240N+01811MA1999999091411MD1999999-0171MW1021REMSYN017333   20181 59017
0110833440999991984022918004-14850-040833FM-12+1042SBQU V0201801N00361004201CN0100001N9+02181+01971101101ADDAA106000091AG10999AY101061GF108991081051004501999999MA1999999091161MD1999999-0101MW1021REMSYN011333   59010
0129833440999991984030100004-14850-040833FM-12+1042SBQU V0200901N00261220001CN9999999N9+02141+01931101201ADDAA106000091AG10999AY101061GF100991001001999999001001KA1240M+02871MA1999999091291MD1999999-0131MW1021REMSYN017333   10287 59013
0129833440999991984030112004-14850-040833FM-12+1042SBQU V0200901N00311045001CN0200001N9+02331+01851101291ADDAA106000091AG10999AY101061GF107991041021004501061001KA1240N+01781MA1999999091371MD1999999+0041MW1021REMSYN017333   20178 58004
0114833440999991984030200004-14850-040833FM-12+1042SBQU V0200901N00211220001CN9999999N9+02151+01911101851ADDAA106000091AG10999AY101061GF100991001001999999001001KA1240M+02581MD1999999+0151MW1021REMSYN017333   10258 58015
0129833440999991984030212004-14850-040833FM-12+1042SBQU V0209999999999004201CN0200001N9+02281+01791999999ADDAA106000091AG10999AY101061GF106991061021004501001001KA1240N+01681MA1999999101441MD1999999+0071MW1021REMSYN017333   20168 58007
0129833440999991984030218004-14850-040833FM-12+1042SBQU V0201401N00261220001CN0500001N9+03001+01411100991ADDAA106000091AG10999AY101061GF102991021011004501001001MA1999999091132MD1999999+0061MW1021REMSYN011333   58006EQDQ01+091133APOSP 
0129833440999991984030300004-14850-040833FM-12+1042SBQU V0201401N00261220001CN9999999N9+02291+01901101181ADDAA106000091AG10999AY101061GF100991001001999999001001KA1240M+03031MA1999999091281MD1999999+0141MW1021REMSYN017333   10303 58014
0129833440999991984030312004-14850-040833FM-12+1042SBQU V0200901N00361045001CN0100001N9+02351+01731101391ADDAA106000091AG10999AY101061GF107991041031004501031001KA1240N+01951MA1999999091471MD1999999+0831MW1021REMSYN017333   20195 58083
0110833440999991984030318004-14850-040833FM-12+1042SBQU V0201401N00311220001CN0500001N9+03001+01411100941ADDAA106000091AG10999AY101061GF105991031011004501001081MA1999999091111MD1999999-0021MW1021REMSYN011333   59002
0129833440999991984030400004-14850-040833FM-12+1042SBQU V0200901N00361220001CN9999999N9+02211+01921101101ADDAA106000091AG10999AY101061GF100991001001999999001001KA1240M+03071MA1999999091241MD1999999-0041MW1021REMSYN017333   10307 59004
0129833440999991984030412004-14850-040833FM-12+1042SBQU V0200501N00461220001CN0200001N9+02361+01611101261ADDAA106000091AG10999AY101061GF102991021021004501001001KA1240N+01581MA1999999091251MD1999999-0121MW1021REMSYN017333   20158 59012
0096833440999991984030418004-14850-040833FM-12+1042SBQU V0201801N00311004201CN0500001N9+03001+01571100891ADDAA106000091AG10999AY101061GF106991051021004501061001MA1999999091041MW1021REMSYN011333   5007/
0129833440999991984030500004-14850-040833FM-12+1042SBQU V0200901N00151220001CN9999999N9+02261+01541101041ADDAA106000091AG10999AY101061GF100991001001999999001001KA1240M+03051MA1999999091151MD1999999-0091MW1021REMSYN017333   10305 59009
0110833440999991984030518004-14850-040833FM-12+1042SBQU V0200901N00211004201CN0200001N9+03041+01491100421ADDAA106000091AG10999AY101061GF107991051031004501021001MA1999999090911MD1999999-0131MW1021REMSYN011333   59013
0129833440999991984030600004-14850-040833FM-12+1042SBQU V0200901N00311220001CN9999999N9+02331+01601100811ADDAA106000091AG10999AY101061GF100991001001999999001001KA1240M+03311MA1999999090961MD1999999-0191MW1021REMSYN017333   10331 59019
0148833440999991984030612004-14850-040833FM-12+1042SBQU V0200501N00311220001CN0200001N9+02461+01751101141ADDAA106000091AG10999AY101061GF102991001001999999001041KA1240N+01871MA1999999091261MD1999999-0021MW1021REMSYN017333   20187 59002EQDQ01+000962SCOLCB
0110833440999991984030618004-14850-040833FM-12+1042SBQU V0200501N00511004201CN0200001N9+03311+01111100661ADDAA106000091AG10999AY101061GF106991061021004501001001MA1999999091091MD1999999-0131MW1021REMSYN011333   59013
0090833440999991984030700004-14850-040833FM-12+1042SBQU V0200901N00411220001CN9999999N9+02381+01581100981ADDAA106000091AG10999AY101061GF100991001001999999001001MA1999999091091MD1810131+9999MW1021
0129833440999991984030712004-14850-040833FM-12+1042SBQU V0200501N00411220001CN0200001N9+02421+01741101141ADDAA106000091AG10999AY101061GF102991021021008001001001KA1240N+01841MA1999999091261MD1410001+0001MW1021REMSYN017333   20184 58000
0129833440999991984030800004-14850-040833FM-12+1042SBQU V0200901N00211220001CN9999999N9+02381+01911100861ADDAA106000091AG10999AY101061GF100991001001999999001001KA1240M+03291MA1999999091011MD1999999-0081MW1021REMSYN017333   10329 59008
0129833440999991984030812004-14850-040833FM-12+1042SBQU V0202701N00361007501CN0200001N9+02461+01831101061ADDAA106000091AG10999AY101061GF107991071001008001041001KA1240N+01931MA1999999091191MD1999999-0071MW1021REMSYN017333   20193 59007
0129833440999991984030813004-14850-040833FM-12+1042SBQU V0202701N00361007501CN0200001N9+99999+99999101061ADDAA106000091AG10999AY101011GF107991071001008001041001KA1240N+01931MA1999999091191MD1999999-0071MW1021REMSYN017333   20193 59007
0076833440999991984030818004-14850-040833FM-12+1042SBQU V0202301N00101045001CN0200001N9+03071+01641100621ADDAA106000091AG10999AY101061GF107991041021004501021001MA1999999090831MW1021
0129833440999991984030900004-14850-040833FM-12+1042SBQU V0203201N00151004201CN9999999N9+02481+01801100931ADDAA106000091AG10999AY101061GF108991081051004501999999KA1240M+03191MA1999999091081MD1999999+0071MW1131REMSYN017333   10319 58007
0116833440999991984030918004-14850-040833FM-12+1042SBQU V0203201N00211220001CN0200001N9+02821+01911100641ADDAA106008091AG10999AY161061GF107991041021008001001041MA1999999090831MD1410001+0001MW1021REMSYN017333   58000 60081
0188833440999991984031000004-14850-040833FM-12+1042SBQU V0209999999999220001CN9999999N9+02321+02111100841ADDAA106000091AG10999AY101061GA1031+014409039GF199999999001999999001001KA1240M+02851MA1999999090941MW1021REMSYN023333   10285 5907/ 83348EQDQ01+000002SCOTCVQ02+000002SCOTLCQ03+000992SCOLCB
0135833440999991984031012004-14850-040833FM-12+1042SBQU V0203201N00211045001CN0100001N9+02351+01851101011ADDAA124008091AG10999AY101061GF107991041031004501021001KA1240N+01731MA1999999091141MD1999999-0111MW1021REMSYN023333   20173 59011 60084
0110833440999991984031018004-14850-040833FM-12+1042SBQU V0202701N00361045001CN0200001N9+02761+02021100621ADDAA106000091AG10999AY101061GF107991041021008001041001MA1999999090821MD1999999-0011MW1021REMSYN011333   59001
0129833440999991984031112004-14850-040833FM-12+1042SBQU V0203201N00211220001CN0200001N9+02521+01841100991ADDAA106000091AG10999AY101061GF106991021021012501001041KA1240N+02051MA1999999091141MD1410001+0001MW1021REMSYN017333   20205 58000
0110833440999991984031118004-14850-040833FM-12+1042SBQU V0202701N00151045001CN0200001N9+02911+01861100601ADDAA106000091AG10999AY101061GF107991031021008001041001MA1999999090811MD1999999-0011MW1021REMSYN011333   59001
0129833440999991984031200004-14850-040833FM-12+1042SBQU V0200901N00261220001CN9999999N9+02421+01951100851ADDAA106000091AG10999AY101061GF100991001001999999001001KA1240M+03001MA1999999091021MD1999999+0031MW1021REMSYN017333   10300 58003
0135833440999991984031212004-14850-040833FM-12+1042SBQU V0203201N00101004201CN0040001N9+02041+01851101131ADDAA124019091AG10999AY191061GF108991081051004501999999KA1240N+01881MA1999999091231MD1999999+0091MW1611REMSYN023333   20188 58009 60194
0127833440999991984031218004-14850-040833FM-12+1042SBQU V0200501N00411045001CN0100001N9+02721+01821100711ADDAA106000491AA299000591AG10999AY151061GF107991031021008001041001MA1999999090901MD1999999+0091MW1031REMSYN017333   58009 69941
0135833440999991984031300004-14850-040833FM-12+1042SBQU V0200901N00151045001CN9999999N9+02261+02071101171ADDAA106000191AG10999AY151061GF107991041051012501041001KA1240M+02781MA1999999091151MD1999999+0131MW1131REMSYN023333   10278 58013 69911
0146833440999991984031312004-14850-040833FM-12+1042SBQU V0201401N00101004201CN0040001N9+02001+01811101211ADDAA124007091AG10999GF108991081031004501999999KA1240N+01861MA1999999091241MD1999999+0051MW1021REMSYN023333   20186 58005 60074EQDQ01+000072PSTWM1
0116833440999991984031318004-14850-040833FM-12+1042SBQU V0201401N00211045001CN0200001N9+02711+01711100741ADDAA106000191AG10999AY151061GF106991031021008001041001MA1999999090921MD1999999+0021MW1031REMSYN017333   58002 69911
0129833440999991984031400004-14850-040833FM-12+1042SBQU V0201401N00311004201CN9999999N9+02121+01971101261ADDAA106000091AG10999AY101061GF107991051011004501061001KA1240M+02761MA1999999091231MD1999999+0081MW1021REMSYN017333   10276 58008
0135833440999991984031412004-14850-040833FM-12+1042SBQU V02099999999999999999N0020001N9+02011+01811101281ADDAA124000591AG10999AY151061GF108991081999004501999999KA1240N+01881MA1999999091321MD1999999+0041MW1031REMSYN023333   20188 58004 69954
0135833440999991984031500004-14850-040833FM-12+1042SBQU V0201801N00311004201CN9999999N9+02021+01151101121ADDAA106015091AG10999AY141061GF107991071051004501021001KA1240M+02491MA1999999091181MD1999999-0051MW1031REMSYN023333   10249 59005 60151
0135833440999991984031512004-14850-040833FM-12+1042SBQU V0201401N00361004201CN0040001N9+01881+01691101311ADDAA124002091AG10999AY161061GF108991081051004501999999KA1240N+01811MA1999999091331MD1999999+0011MW1031REMSYN023333   20181 58001 60024
0103833440999991984031518004-14850-040833FM-12+1042SBQU V0201401N00621220001CN0200001N9+02961+02021101451ADDAG10999AY101061GF104991021021008001001011MD1999999+0201MW1021REMSYN011333   58020EQDQ01+101403APOSP 
0151833440999991984031600004-14850-040833FM-12+1042SBQU V0201401N00311004201CN9999999N9+01901+01661101321ADDAA106000091AG10999AY101061GA1031+014409039GF105991051061004501001001KA1240M+02261MA1999999091351MD1999999+0171MW1021REMSYN023333   10226 58017 83348
0110833440999991984031618004-14850-040833FM-12+1042SBQU V0201401N00311004201CN0500001N9+02501+01641100951ADDAA106000091AG10999AY101061GF105991051021004501001001MA1999999091041MD1999999-0141MW1021REMSYN011333   59014
0129833440999991984031700004-14850-040833FM-12+1042SBQU V0201401N00261220001CN9999999N9+02011+01781101201ADDAA106000091AG10999AY101061GF100991001001999999001001KA1240M+02511MA1999999091241MD1999999-0111MW1021REMSYN017333   10251 59011
0129833440999991984031712004-14850-040833FM-12+1042SBQU V0201401N00361004201CN0100001N9+02021+01581101291ADDAA106000091AG10999AY101061GF106991061051004501001001KA1240N+01651MA1999999091321MD1999999-0061MW1021REMSYN017333   20165 59006
0110833440999991984031718004-14850-040833FM-12+1042SBQU V0201401N00311007501CN0200001N9+02591+01651100921ADDAA106000091AG10999AY101061GF105991051021008001001001MA1999999091021MD1999999-0021MW1021REMSYN011333   59002
0129833440999991984031800004-14850-040833FM-12+1042SBQU V0201401N00261220001CN9999999N9+02071+01891101211ADDAA106000091AG10999AY101061GF103991031011008001001001KA1240M+02681MA1999999091251MD1999999+0011MW1021REMSYN017333   10268 58001
0129833440999991984031812004-14850-040833FM-12+1042SBQU V0201801N00211004201CN0040001N9+02121+01911101221ADDAA106000091AG10999AY101061GF107991071051004501001001KA1240N+01881MA1999999091281MD1999999-0041MW1021REMSYN017333   20188 59004
0113833440999991984031818004-14850-040833FM-12+1042SBQU V0201401N00261004201CN0040001N9+02061+01891101041ADDAA106000791AA299001091AG10999GF108991081051004501999999MA1999999091081MD1999999+0061REMSYN017333   58006 69971
0135833440999991984031900004-14850-040833FM-12+1042SBQU V0200901N00311004201CN9999999N9+02051+01741101091ADDAA106000191AG10999AY151061GF108991081031004501999999KA1240M+02561MA1999999091161MD1999999-0091MW1021REMSYN023333   10256 59009 69911
0146833440999991984031912004-14850-040833FM-12+1042SBQU V0201401N00261045001CN0200001N9+02251+01821101191ADDAA124000891AA299001091AG10999AY101061GF107991041031004501061001KA1240N+01761MA1999999091261MD1999999-0021MW1021REMSYN023333   20176 59002 69984
0099833440999991984031918004-14850-040833FM-12+1042SBQU V0200901N00211007501CN0200001N9+02631+01931100851ADDAG10999AY151061GF106991061021008001001001MA1999999090981MD1999999-0101MW1011REMSYN011333   59010
0148833440999991984032000004-14850-040833FM-12+1042SBQU V0200901N00311220001CN9999999N9+02091+01911101131ADDAA106000091AG10999AY101061GF103991031041999999001001KA1240M+02691MA1999999091211MD1999999+0051MW1021REMSYN017333   10269 58005EQDQ01+000992SCOLCB
0146833440999991984032012004-14850-040833FM-12+1042SBQU V0200501N00261220001CN0200001N9+02391+01891101181ADDAA124000691AA299000591AG10999AY101061GF103991031021008001001001KA1240N+01801MA1999999091271MD1999999+0011MW1021REMSYN023333   20180 58001 69964
0129833440999991984032018004-14850-040833FM-12+1042SBQU V0201401N00361045001CN0200001N9+02801+01901100781ADDAA106000091AG10999AY101061GF107991041031004501021081MA1999999090392MD1999999-0051MW1021REMSYN011333   59005EQDQ01+090393APOSP 
0129833440999991984032100004-14850-040833FM-12+1042SBQU V0200901N00311220001CN9999999N9+02221+01861100941ADDAA106000091AG10999AY101061GF100991001001999999001001KA1240M+02911MA1999999091061MD1999999-0151MW1021REMSYN017333   10291 59015
0148833440999991984032112004-14850-040833FM-12+1042SBQU V0200501N00511220001CN0500001N9+02361+01731101151ADDAA106000091AG10999AY101061GF100991001001999999001001KA1240N+99999MA1999999091251MD1999999-0021MW1021REMSYN017333   20282 59002EQDQ01 +02822ATMN  
0129833440999991984032200004-14850-040833FM-12+1042SBQU V0200901N00261220001CN9999999N9+02301+01721100871ADDAA106000091AG10999AY101061GF100991001001999999001001KA1240M+03041MA1999999091011MD1999999-0051MW1021REMSYN017333   10304 59005
0129833440999991984032212004-14850-040833FM-12+1042SBQU V0203601N00461105001CN0500001N9+02381+01841101071ADDAA106000091AG10999AY101061GF107991041001017501041041KA1240N+02001MA1999999091191MD1999999-0061MW1021REMSYN017333   20200 59006
0135833440999991984032300004-14850-040833FM-12+1042SBQU V0202701N00261004201CN9999999N9+02481+01981100901ADDAA106002091AG10999AY121061GF108991081051004501999999KA1240M+03031MA1999999091051MD1999999+0041MW1621REMSYN023333   10303 58004 60021
0135833440999991984032312004-14850-040833FM-12+1042SBQU V0201401N00151004201CN0040001N9+02101+01961101101ADDAA124046091AG10999AY191061GF108991081051004501999999KA1240N+01861MA1999999091211MD1999999+0021MW1031REMSYN023333   20186 58002 60464
0135833440999991984032400004-14850-040833FM-12+1042SBQU V0201801N00261004201CN9999999N9+01891+01871101191ADDAA106000191AG10999AY151061GF108991081051004501999999KA1240M+02661MA1999999091231MD1999999+0181MW1031REMSYN023333   10266 58018 69911
0135833440999991984032412004-14850-040833FM-12+1042SBQU V0201801N00361004201CN0040001N9+01911+01731101321ADDAA124000191AG10999AY101061GF108991081051004501999999KA1240N+01761MA1999999091331MD1999999+0121MW1021REMSYN023333   20176 58012 69914
0110833440999991984032418004-14850-040833FM-12+1042SBQU V0209999999999004201CN0100001N9+02301+01851100961ADDAA106000091AG10999AY101061GF107991051031004501021001MA1999999091041MD1999999+0081MW1021REMSYN011333   58008
0129833440999991984032500004-14850-040833FM-12+1042SBQU V0201401N00101004201CN9999999N9+01991+01721101151ADDAA106000091AG10999AY101061GF108991081051004501999999KA1240M+02331MA1999999091181MD1999999-0051MW1021REMSYN017333   10233 59005
0129833440999991984032512004-14850-040833FM-12+1042SBQU V0201801N00261220001CN0200001N9+02131+01741101271ADDAA106000091AG10999AY101061GF104991041021008001001001KA1240N+01741MA1999999091311MD1999999-0021MW1021REMSYN017333   20174 59002
0110833440999991984032518004-14850-040833FM-12+1042SBQU V0200901N00151007501CN0200001N9+02511+02051101001ADDAA106000091AG10999AY101061GF106991061021008001001001MA1999999091091MD1999999+0051MW1021REMSYN011333   58005
0129833440999991984032600004-14850-040833FM-12+1042SBQU V0200901N00311220001CN9999999N9+02091+01821101171ADDAA106000091AG10999AY101061GF100991001001999999001001KA1240M+02621MA1999999091241MD1999999+0061MW1021REMSYN017333   10262 58006
0129833440999991984032612004-14850-040833FM-12+1042SBQU V0200501N00101004201CN0040001N9+02141+01911101351ADDAA106000091AG10999AY101061GF108991051031004501021999KA1240N+01771MA1999999091391MD1999999+0081MW1021REMSYN017333   20177 58008
0110833440999991984032618004-14850-040833FM-12+1042SBQU V0203201N00101004201CN0200001N9+02771+01881100891ADDAA106000091AG10999AY101061GF106991061021004501001001MA1999999091001MD1999999-0091MW1021REMSYN011333   59009
0129833440999991984032700004-14850-040833FM-12+1042SBQU V0200901N00211220001CN9999999N9+02261+02051101091ADDAA106000091AG10999AY101061GF100991001001999999001001KA1240M+02841MA1999999091181MD1999999-0061MW1021REMSYN017333   10284 59006
0129833440999991984032712004-14850-040833FM-12+1042SBQU V0201401N00311004201CN0040001N9+02281+01961101251ADDAA106000091AG10999AY101061GF107991071031004501999999KA1240N+01961MA1999999091341MD1999999-0051MW1021REMSYN017333   20196 59005
0090833440999991984032718004-14850-040833FM-12+1042SBQU V0200901N00211220001CN9999999N9+02151+01971101221ADDAA106000091AG10999AY101061GF100991001001999999001001MA1999999091211MD1810031+9999MW1021
0129833440999991984032800004-14850-040833FM-12+1042SBQU V0200901N00211220001CN9999999N9+02151+01971101221ADDAA106000091AG10999AY101061GF100991001001999999001001KA1240M+02801MA1999999091211MD1999999+0031MW1021REMSYN017333   10280 58003
0129833440999991984032812004-14850-040833FM-12+1042SBQU V0201401N00211004201CN0100001N9+02241+01991101261ADDAA106000091AG10999AY101061GF108991051031004501021999KA1240N+01921MA1999999091341MD1410001+0001MW1021REMSYN017333   20192 58000
0129833440999991984032900004-14850-040833FM-12+1042SBQU V0200901N00361220001CN9999999N9+02121+01911101111ADDAA106000091AG10999AY101061GF100991001001999999001001KA1240M+02731MA1999999091201MD1999999-0011MW1021REMSYN017333   10273 59001
0129833440999991984032912004-14850-040833FM-12+1042SBQU V0200901N00311004201CN0100001N9+02281+02051101321ADDAA106000091AG10999AY101061GF107991071031004501001001KA1240N+01881MA1999999091391MD1999999+0051MW1021REMSYN017333   20188 58005
0110833440999991984032918004-14850-040833FM-12+1042SBQU V0209999999999045001CN0100001N9+02291+02091101021ADDAA106000091AG10999AY111061GF107991041021008001061001MA1999999091111MD1999999+0051MW1171REMSYN011333   58005
0146833440999991984033012004-14850-040833FM-12+1042SBQU V0200501N00311220001CN0200001N9+02411+02031101221ADDAA124000491AA299000591AG10999AY101061GF100991001001999999001001KA1240N+01881MA1999999091311MD1999999-0081MW1021REMSYN023333   20188 59008 69944
0135833440999991984033100004-14850-040833FM-12+1042SBQU V0200901N00051220001CN9999999N9+02391+02091100871ADDAA106000191AG10999AY161061GF100991001001999999001001KA1240M+03041MA1999999091011MD1999999-0241MW1131REMSYN023333   10304 59024 69911
0118833440999991984033112004-14850-040833FM-12+1042SBQU V0200501N00211004201CN0040001N9+99999+99999100961ADDAG10999AY101061GF108991081051004501999999KA1240N+02021MA1999999091081MD1999999-0231MW1021REMSYN017333   20202 59023
0116833440999991984033118004-14850-040833FM-12+1042SBQU V0201801N00311004201CN0040001N9+02421+01621100851ADDAA106000591AG10999AY151061GF108991081051004501999999MA1999999090981MD1999999+0111MW1511REMSYN017333   58011 69951
0116833440999991984040118004-14850-040833FM-12+1042SBQU V0201401N00261004201CN0040001N9+02131+01821101071ADDAA106000191AG10999AY151061GF108991081031004501999999MA1999999091151MD1999999+0121MW1031REMSYN017333   58012 69911
0110833440999991984040218004-14850-040833FM-12+1042SBQU V0201801N00361004201CN0200001N9+02351+01851100911ADDAA106000091AG10999AY101061GF106991061021004501001001MA1999999090981MD1999999-0121MW1021REMSYN011333   59012
0129833440999991984040300004-14850-040833FM-12+1042SBQU V0201401N00211004201CN9999999N9+01981+01811101211ADDAA106000091AG10999AY101061GF108991051051004501021999KA1240M+02481MA1999999091241MD1999999+0011MW1021REMSYN017333   10248 58001
0110833440999991984040318004-14850-040833FM-12+1042SBQU V0201801N00361220001CN0500001N9+02701+01991100721ADDAA106000091AG10999AY101061GF104991041021012501001001MA1999999090051MD1999999-0121MW1021REMSYN011333   59012
0129833440999991984040412004-14850-040833FM-12+1042SBQU V0202701N00151105001CN0200001N9+02351+02261101031ADDAA106000091AG10999AY101061GF106991031021008001001021KA1240N+01881MA1999999091141MD1999999-0101MW1021REMSYN017333   20188 59010
0065833440999991984040418004-14850-040833FM-12+1042SBQU V0200901N00101007501CN0200001N9+02391+01271100761ADDAG10999AY191061GF107991051041008001021001MA1999999090881MW1611
0129833440999991984040500004-14850-040833FM-12+1042SBQU V0200901N00101220001CN9999999N9+02151+02041100971ADDAA106000091AG10999AY101061GF100991001001999999001001KA1240M+02511MA1999999091081MD1999999+0011MW1021REMSYN017333   10251 58001
0146833440999991984040512004-14850-040833FM-12+1042SBQU V0203201N00261045001CN0200001N9+02461+02091101001ADDAA124000891AA299001091AG10999AY101061GF106991041021008001041001KA1240N+01851MA1999999091121MD1999999-0021MW1021REMSYN023333   20185 59002 69984
0121833440999991984040612004-14850-040833FM-12+1042SBQU V0200901N00311004201CN0100001N9+02351+02071101211ADDAA124000191AG10999GF108991051051004501021999KA1240N+01931MA1999999091311MD1999999+0191REMSYN023333   20193 58019 69914
0110833440999991984040618004-14850-040833FM-12+1042SBQU V0200501N00511105001CN0200001N9+02761+02441100581ADDAA106000091AG10999AY101061GF106991031021008001001021MA1999999091031MD1999999+0231MW1021REMSYN011333   58023
0129833440999991984040700004-14850-040833FM-12+1042SBQU V0209991C00001007501CN9999999N9+02091+01851101301ADDAA106000091AG10999AY101061GF105991051011008001001001KA1240M+02841MA1999999091371MD1999999+0271MW1021REMSYN017333   10284 58027
0129833440999991984040712004-14850-040833FM-12+1042SBQU V0200901N00411045001CN0100001N9+02241+01821101451ADDAA106000091AG10999AY101061GF107991041021004501061001KA1240N+01741MA1999999091491MD1999999+0181MW1021REMSYN017333   20174 58018
0116833440999991984040718004-14850-040833FM-12+1042SBQU V0200501N00151004201CN0040001N9+99999+99999101251ADDAA130008091AG10999AY121061GF108991081051004501999999MA1999999091281MD1999999+0211MW1601REMSYN017333   58021 60085
0135833440999991984040800004-14850-040833FM-12+1042SBQU V0200901N00211220001CN9999999N9+02001+01901101491ADDAA106000191AG10999AY151061GF100991001001999999001001KA1240M+02721MA1999999091521MD1999999+0151MW1021REMSYN023333   10272 58015 69911
0127833440999991984040818004-14850-040833FM-12+1042SBQU V0201401N00311004201CN0040001N9+02191+01991101291ADDAA106000491AA299000591AG10999AY151061GF108991081051004501999999MA1999999091331MD1999999+0051MW1621REMSYN017333   58005 69941
0135833440999991984040912004-14850-040833FM-12+1042SBQU V0201401N00671004201CN0020001N9+01931+01891101531ADDAA124003091AG10999AY161061GF108991081051004501999999KA1240N+01751MA1999999091531MD1999999-0051MW1621REMSYN023333   20175 59005 60034
0121833440999991984041000004-14850-040833FM-12+1042SBQU V0201401N00361004201CN9999999N9+01891+01821101541ADDAA106002091AG10999GF108991081051004501999999KA1240M+02271MA1999999091531MD1999999+0021REMSYN023333   10227 58002 60021
0135833440999991984041012004-14850-040833FM-12+1042SBQU V0201801N00621004201CN0020001N9+01841+01791101631ADDAA124005091AG10999AY161061GF108991081051004501999999KA1240N+01741MA1999999091601MD1999999+0071MW1511REMSYN023333   20174 58007 60054
0135833440999991984041112004-14850-040833FM-12+1042SBQU V0201401N00311004201CN0020001N9+01771+01701101691ADDAA124005091AG10999AY161061GF108991081051004501999999KA1240N+01671MA1999999091641MD1999999+0041MW1031REMSYN023333   20167 58004 60054
0135833440999991984041200004-14850-040833FM-12+1042SBQU V0201401N00311004201CN9999999N9+01911+01841101631ADDAA106000191AG10999AY151061GF108991081051004501999999KA1240M+02251MA1999999091601MD1999999-0061MW1031REMSYN023333   10225 59006 69911
0135833440999991984041212004-14850-040833FM-12+1042SBQU V0201401N00461004201CN0100001N9+02021+01811101671ADDAA124002091AG10999AY151061GF108991051051004501021999KA1240N+01671MA1999999091651MD1999999+0011MW1031REMSYN023333   20167 58001 60024
0135833440999991984041300004-14850-040833FM-12+1042SBQU V0201401N00511004201CN9999999N9+01881+01831101581ADDAA106003091AG10999AY161061GF108991081051004501999999KA1240M+02251MA1999999091571MD1999999-0031MW1621REMSYN023333   10225 59003 60031
0135833440999991984041312004-14850-040833FM-12+1042SBQU V0201401N00311004201CN0100001N9+01961+01911101501ADDAA124006091AG10999AY161061GF107991071051004501001001KA1240N+01781MA1999999091491MD1999999-0161MW1031REMSYN023333   20178 59016 60064
0116833440999991984041318004-14850-040833FM-12+1042SBQU V0201401N00411004201CN0100001N9+02101+01931101241ADDAA106000391AG10999AY151061GF108991081051004501999999MA1999999091261MD1999999-0101MW1031REMSYN017333   59010 69931
0135833440999991984041400004-14850-040833FM-12+1042SBQU V0200901N00261004201CN9999999N9+01891+01821101431ADDAA106001091AG10999AY161061GF108991081051004501999999KA1240M+02161MA1999999091431MD1999999-0141MW1031REMSYN023333   10216 59014 60011
0135833440999991984041412004-14850-040833FM-12+1042SBQU V0201801N00511004201CN0020001N9+01921+01871101411ADDAA124002091AG10999AY161061GF108991081051004501999999KA1240N+01771MA1999999091411MD1999999-0081MW1511REMSYN023333   20177 59008 60024
0116833440999991984041418004-14850-040833FM-12+1042SBQU V0200901N00461004201CN0100001N9+02151+01901101161ADDAA106000191AG10999AY151061GF108991081051004501999999MA1999999091191MD1999999-0071MW1031REMSYN017333   59007 69911
0146833440999991984041500004-14850-040833FM-12+1042SBQU V0201401N00311004201CN9999999N9+99999+99999101341ADDAA106000291AA299000391AG10999AY161061GF108991081051004501999999KA1240M+02181MA1999999091381MD1999999-0051MW1511REMSYN023333   10218 59005 69921
0146833440999991984041512004-14850-040833FM-12+1042SBQU V0201401N00361220001CN0200001N9+02311+01661101391ADDAA124000491AA299000591AG10999AY151061GF107991041021008001001041KA1240N+01661MA1999999091401MD1999999-0021MW1011REMSYN023333   20166 59002 69944
0096833440999991984041518004-14850-040833FM-12+1042SBQU V0201401N00211045001CN0200001N9+02181+01821101141ADDAA106000091AG10999GF107991041021008001021001MA1999999091171MD1999999-0021REMSYN011333   59002
0129833440999991984041612004-14850-040833FM-12+1042SBQU V0201401N00261004201CN0040001N9+01991+01721101351ADDAA106000091AG10999AY101061GF107991071051004501001001KA1240N+01601MA1999999091391MD1999999-0011MW1021REMSYN017333   20160 59001
0096833440999991984041618004-14850-040833FM-12+1042SBQU V0201401N003119999999N0020001N9+99999+99999101061ADDAA106000091AG10999GF107991071001004501061001MA1999999091131MD1999999-0041REMSYN011333   59004
0129833440999991984041700004-14850-040833FM-12+1042SBQU V0200901N00211220001CN9999999N9+02031+01661101241ADDAA106000091AG10999AY101061GF103991031001012501031001KA1240M+02391MA1999999091271MD1999999-0051MW1021REMSYN017333   10239 59005
0129833440999991984041712004-14850-040833FM-12+1042SBQU V0201401N00261004201CN0040001N9+02041+01761101401ADDAA106000091AG10999AY101061GF108991081051004501999999KA1240N+01781MA1999999091431MD1999999+0041MW1021REMSYN017333   20178 58004
0129833440999991984041718004-14850-040833FM-12+1042SBQU V0201401N003119999999N0200001N9+02411+01841101041ADDAA106000091AG10999AY101061GF106991999021004501999999MA1999999091131MD1410001+0001MW1021REMSYN011333   58000EQDQ01+000002SCOTLC
0129833440999991984041800004-14850-040833FM-12+1042SBQU V0200901N00101220001CN9999999N9+01931+01861101281ADDAA106000091AG10999AY101061GF100991001001999999001001KA1240M+02471MA1999999091311MD1999999+0041MW1021REMSYN017333   10247 58004
0129833440999991984041801004-14850-040833FM-12+1042SBQU V0200901N00101220001CN9999999N9+01931+01861101281ADDAA106000091AG10999AY101011GF100991001001999999001001KA1240M+02471MA1999999091311MD1999999+0041MW1021REMSYN017333   10247 58004
0129833440999991984041812004-14850-040833FM-12+1042SBQU V0200901N00311007501CN0100001N9+02071+01861101461ADDAA106000091AG10999AY101061GF107991051051008001021001KA1240N+01751MA1999999091471MD1999999+0041MW1021REMSYN017333   20175 58004
0110833440999991984041818004-14850-040833FM-12+1042SBQU V0201401N00311045001CN0200001N9+02401+01911101121ADDAA106000091AG10999AY101061GF106991031021008001041001MA1999999091191MD1999999+0061MW1021REMSYN011333   58006
0129833440999991984041912004-14850-040833FM-12+1042SBQU V0200901N002619999999N0100001N9+02161+01821101431ADDAA106000091AG10999AY101061GF107991071001004501061001KA1240N+01611MA1999999091451MD1999999-0021MW1021REMSYN017333   20161 59002
0129833440999991984042000004-14850-040833FM-12+1042SBQU V0200901N00261220001CN9999999N9+02011+01871101321ADDAA106000091AG10999AY101061GF100991001001999999001001KA1240M+02531MA1999999091361MD1999999-0011MW1021REMSYN017333   10253 59001
0148833440999991984042012004-14850-040833FM-12+1042SBQU V0200901N00411007501CN0200001N9+02121+01531101551ADDAA106000091AG10999AY101061GF108991081051008001999999KA1240M+99999MA1999999091551MD1999999+0101MW1021REMSYN017333   10180 58010EQDQ01 +01802ATMX  
0110833440999991984042018004-14850-040833FM-12+1042SBQU V0201401N00311007501CN0200001N9+02431+01811101241ADDAA106000091AG10999AY101061GF105991051011008001001001MA1999999091261MD1999999+0121MW1021REMSYN011333   58012
0129833440999991984042100004-14850-040833FM-12+1042SBQU V0200901N00151220001CN9999999N9+01921+01751101401ADDAA106000091AG10999AY101061GF100991001001999999001001KA1240M+02521MA1999999091421MD1999999+0101MW1021REMSYN017333   10252 58010
0129833440999991984042112004-14850-040833FM-12+1042SBQU V0201401N00211220001CN0200001N9+02021+01501101431ADDAA106000091AG10999AY101061GF100991001001999999001001KA1240N+01581MA1999999092441MD1999999-0111MW1021REMSYN017333   20158 59011
0129833440999991984042118004-14850-040833FM-12+1042SBQU V0201401N00361220001CN0500001N9+02461+01731101021ADDAA106000091AG10999AY101061GF102991021021004501001001MA1999999091102MD1999999-0161MW1021REMSYN011333   59016EQDQ01+091103APOSP 
0129833440999991984042200004-14850-040833FM-12+1042SBQU V0200901N00261220001CN9999999N9+02011+01741101221ADDAA106000091AG10999AY101061GF100991001001999999001001KA1240M+02521MA1999999091251MD1999999-0171MW1021REMSYN017333   10252 59017
0154833440999991984042212004-14850-040833FM-12+1042SBQU V0201401N00211004201CN0100001N9+02121+01891101431ADDAA124000191AG10999AY151061GF107991051051004501021001KA1240N+99999MA1999999091451MD1999999+0011MW1021REMSYN023333   20285 58001 69914EQDQ01 +02852ATMN  
0127833440999991984042218004-14850-040833FM-12+1042SBQU V0200901N00311045001CN0200001N9+02371+01821101111ADDAA106000291AA299000391AG10999AY151061GF106991031031008001041001MA1999999091191MD1999999+0091MW1021REMSYN017333   58009 69921
0129833440999991984042300004-14850-040833FM-12+1042SBQU V0200901N00311012001CN9999999N9+01921+01851101341ADDAA106000091AG10999AY101061GF106991061001012501061001KA1240M+02381MA1999999091361MD1999999+0111MW1021REMSYN017333   10238 58011
0146833440999991984042312004-14850-040833FM-12+1042SBQU V0201401N003119999999N0100001N9+02101+01781101531ADDAA124000291AA299000391AG10999AY101061GF107991071001004501061001KA1240N+01721MA1999999091541MD1999999+0091MW1021REMSYN023333   20172 58009 69924
0110833440999991984042318004-14850-040833FM-12+1042SBQU V0201401N00261220001CN0200001N9+02381+01911101221ADDAA106000091AG10999AY101061GF104991041021004501001001MA1999999091291MD1999999+0101MW1021REMSYN011333   58010
0129833440999991984042400004-14850-040833FM-12+1042SBQU V0200901N00311220001CN9999999N9+02001+01411101401ADDAA106000091AG10999AY101061GF100991001001999999001001KA1240M+02451MA1999999091431MD1999999+0071MW1021REMSYN017333   10245 58007
0129833440999991984042412004-14850-040833FM-12+1042SBQU V0200901N00211045001CN0200001N9+02111+01801101611ADDAA106000091AG10999AY101061GF106991031041008001041001KA1240N+01881MA1999999091621MD1999999+0081MW1021REMSYN017333   20188 58008
0110833440999991984042418004-14850-040833FM-12+1042SBQU V0201401N00361007501CN0200001N9+02631+01951101101ADDAA106000091AG10999AY101061GF105991051021008001001001MA1999999091211MD1999999+0081MW1021REMSYN011333   58008
0129833440999991984042500004-14850-040833FM-12+1042SBQU V0200901N00261220001CN9999999N9+02021+01951101471ADDAA106000091AG10999AY101061GF100991001001999999001001KA1240M+02701MA1999999091501MD1999999+0071MW1021REMSYN017333   10270 58007
0129833440999991984042512004-14850-040833FM-12+1042SBQU V0200501N00211004201CN0040001N9+99999+99999101431ADDAA106000091AG10999AY101061GF108991081051004501999999KA1240N+01841MA1999999091451MD1999999-0171MW1021REMSYN017333   20184 59017
0110833440999991984042518004-14850-040833FM-12+1042SBQU V0209999999999004201CN0200001N9+02061+01951100901ADDAA106000091AG10999AY101061GF105991051021004501001001MA1999999091031MD1999999+0181MW1021REMSYN011333   58018
0129833440999991984042600004-14850-040833FM-12+1042SBQU V0200901N001519999999N9999999N9+02141+01971101211ADDAA106000091AG10999AY101061GF107991071001004501061001KA1240M+02731MA1999999091271MD1999999-0231MW1021REMSYN017333   10273 59023
0129833440999991984042612004-14850-040833FM-12+1042SBQU V0200901N00311045001CN0200001N9+02261+01751101371ADDAA106000091AG10999AY101061GF106991021021004501041001KA1240N+01851MA1999999091441MD1999999-0011MW1021REMSYN017333   20185 59001
0129833440999991984042618004-14850-040833FM-12+1042SBQU V0201401N00361007501CN0200001N9+02421+01881999999ADDAA106000091AG10999AY101061GF105991051021008001001021MA1999999091101MD1999999+0071MW1021REMSYN011333   58007EQDQ01+100403APOSLP
0129833440999991984042700004-14850-040833FM-12+1042SBQU V0201801N00151012001CN9999999N9+01921+01851101271ADDAA106000091AG10999AY101061GF105991051001012501061001KA1240M+02541MA1999999091411MD1999999+0141MW1021REMSYN017333   10254 58014
0146833440999991984042712004-14850-040833FM-12+1042SBQU V0200901N003119999999N0040001N9+02101+01801101451ADDAA124000791AA299001091AG10999AY151061GF107991071001004501061001KA1240N+01801MA1999999091461MD1999999+0021MW1031REMSYN023333   20180 58002 69974
0127833440999991984042718004-14850-040833FM-12+1042SBQU V0200901N00311004201CN0100001N9+02061+01781101141ADDAA106000091AA212000191AG10999AY151061GF107991051021004501021001MA1999999092221MD1999999+0321MW1021REMSYN017333   58032 69912
0148833440999991984042800004-14850-040833FM-12+1042SBQU V0200901N001019999999N9999999N9+01981+01881101361ADDAA106000091AG10999AY101061GF106991061001004501061001KA1240M+02471MA1999999091392MD1999999-0021MW1021REMSYN017333   10247 59002EQDQ01+091393APOSP 
0146833440999991984042812004-14850-040833FM-12+1042SBQU V0200901N00311220001CN0200001N9+02331+01741101611ADDAA124000291AA299000391AG10999AY151061GF104991041021008001001001KA1240N+01631MA1999999091651MD1999999+0161MW1011REMSYN023333   20163 58016 69924
0110833440999991984042818004-14850-040833FM-12+1042SBQU V0200901N00261220001CN0200001N9+02531+01601101231ADDAA106000091AG10999AY101061GF103991031021004501001001MA1999999091301MD1999999+0081MW1021REMSYN011333   58008
0135833440999991984042900004-14850-040833FM-12+1042SBQU V0200901N00211220001CN9999999N9+01941+01721101491ADDAA106000191AG10999AY151061GF100991001001999999001001KA1240M+02541MA1999999091511MD1999999+0121MW1021REMSYN023333   10254 58012 69911
0135833440999991984042912004-14850-040833FM-12+1042SBQU V0201401N00211045001CN0100001N9+01981+01811101671ADDAA124000191AG10999AY101061GF107991041021004501061001KA1240N+01701MA1999999091651MD1999999+0031MW1021REMSYN023333   20170 58003 69914
0110833440999991984042918004-14850-040833FM-12+1042SBQU V0201401N00211007501CN0200001N9+02361+01761101241ADDAA106000091AG10999AY101061GF105991051031008001001001MA1999999091331MD1999999+0031MW1021REMSYN011333   58003
0135833440999991984043000004-14850-040833FM-12+1042SBQU V0200901N00211004201CN9999999N9+01911+01851101521ADDAA106000391AG10999AY151061GF108991081051004501999999KA1240M+02431MA1999999091521MD1999999+0011MW1511REMSYN023333   10243 58001 69931
0135833440999991984043012004-14850-040833FM-12+1042SBQU V0201401N00261045001CN0100001N9+02081+01761101591ADDAA124001091AG10999AY121061GF106991031021008001021001KA1240N+01621MA1999999091591MD1999999-0061MW1031REMSYN023333   20162 59006 60014
0135833440999991984050112004-14850-040833FM-12+1042SBQU V0201401N00211004201CN0040001N9+02061+01721101601ADDAA124000191AG10999AY151061GF108991081051004501999999KA1240N+01751MA1999999091591MD1410001+0001MW1501REMSYN023333   20175 58000 69914
0108833440999991984050212004-14850-040833FM-12+1042SBQU V0201401N001519999999N0100001N9+01941+01871101691ADDAA124001091AG10999AY161061GF108991999999004501999999MA1999999091661MW1161REMSYN023333   2/185 59//4 60014
0138833440999991984050218004-14850-040833FM-12+1042SBQU V0201801N00361220001CN0200001N9+02311+01811101341ADDAA106000191AG10999AY151061GA1031+014409039GF103991031021008001001001MA1999999091371MD1999999+0011MW1011REMSYN023333   58001 69911 83348
0129833440999991984050300004-14850-040833FM-12+1042SBQU V0200901N00211220001CN9999999N9+01891+01781101571ADDAA106000091AG10999AY101061GF102991021011008001001001KA1240M+02511MA1999999091551MD1999999+0061MW1021REMSYN017333   10251 58006
0135833440999991984050312004-14850-040833FM-12+1042SBQU V0201401N00261004201CN0040001N9+01991+01831101621ADDAA124001091AG10999AY161061GF107991071071004501001001KA1240N+01691MA1999999091611MD1999999-0051MW1031REMSYN023333   20169 59005 60014
0116833440999991984050318004-14850-040833FM-12+1042SBQU V0200901N00211004201CN0100001N9+02181+01951101351ADDAA106001091AG10999AY161061GF106991061061004501061001MA1999999091361MD1999999-0011MW1031REMSYN017333   59001 60011
0129833440999991984050400004-14850-040833FM-12+1042SBQU V0200901N00261220001CN9999999N9+01911+01821101491ADDAA106000091AG10999AY101061GF100991001001999999001001KA1240M+02311MA1999999091491MD1999999-0061MW1021REMSYN017333   10231 59006
0135833440999991984050412004-14850-040833FM-12+1042SBQU V0201401N00511004201CN0040001N9+01921+01841101611ADDAA124002091AG10999AY161061GF108991081051004501999999KA1240N+01781MA1999999091591MD1999999-0021MW1511REMSYN023333   20178 59002 60024
0102833440999991984050418004-14850-040833FM-12+1042SBQU V0200901N00511007501CN0200001N9+02171+01521101331ADDAA106000191AG10999GF106991061001008001041001MA1999999091351MD1999999-0011REMSYN017333   59001 69911
0164833440999991984050500004-14850-040833FM-12+1042SBQU V0200901N00311220001CN9999999N9+01831+01691101591ADDAA106000091AG10999AY101061GF100991001001999999001001KA1240M+02201MA1999999999999MD1999999+0071MW1021REMSYN017333   10220 58007EQDQ01+098263APOSP Q02 098263APOSP 
0135833440999991984050512004-14850-040833FM-12+1042SBQU V0200901N00261004201CN0100001N9+02001+01781101541ADDAA124001091AG10999AY161061GF107991071051004501001001KA1240N+01681MA1999999091531MD1999999-0051MW1031REMSYN023333   20168 59005 60014
0116833440999991984050518004-14850-040833FM-12+1042SBQU V0201401N00261045001CN0100001N9+02171+01971101251ADDAA106002091AG10999AY161061GF107991041031004501061001MA1999999091251MD1999999-0081MW1601REMSYN017333   59008 60021
0146833440999991984050600004-14850-040833FM-12+1042SBQU V0201901N002619999999N9999999N9+01781+01681101481ADDAA106000491AA299000591AG10999AY151061GF108991999999004501999999KA1240M+02211MA1999999091471MD1999999-0091MW1031REMSYN023333   10221 59009 69941
0135833440999991984050612004-14850-040833FM-12+1042SBQU V0200901N00361004201CN0100001N9+01961+01661101501ADDAA112000091AG10999AY151061GF107991071051004501001001KA1240N+01591MA1999999091491MD1999999-0051MW1011REMSYN023333   20159 59005 60002
0110833440999991984050618004-14850-040833FM-12+1042SBQU V0200901N00311007501CN0200001N9+02411+01791101171ADDAA106000091AG10999AY101061GF105991051011008001001001MA1999999091231MD1999999-0041MW1021REMSYN011333   59004
0129833440999991984050700004-14850-040833FM-12+1042SBQU V0200901N00151220001CN9999999N9+01801+01691999999ADDAA106000091AG10999AY151061GF100991001001999999001001KA1240M+02441MA1999999091491MD1999999+0021MW1011REMSYN017333   10244 58002
0135833440999991984050712004-14850-040833FM-12+1042SBQU V0200901N00211220001CN0100001N9+02081+01801101531ADDAA124000191AG10999AY101061GF103991031021004501001001KA1240N+01521MA1999999091531MD1999999+0051MW1021REMSYN023333   20152 58005 69914
0096833440999991984050718004-14850-040833FM-12+1042SBQU V0200901N00461045001CN0100001N9+02211+01861101271ADDAA106000091AG10999GF107991041031004501021001MA1999999091291MD1999999+0061REMSYN011333   58006
0129833440999991984050800004-14850-040833FM-12+1042SBQU V0200901N00151004201CN9999999N9+01871+01831101451ADDAA106000091AG10999AY101061GF108991081051004501999999KA1240M+02441MA1999999091451MD1999999-0041MW1021REMSYN017333   10244 59004
0135833440999991984050812004-14850-040833FM-12+1042SBQU V0200901N00411045001CN0100001N9+02071+01841101601ADDAA124000191AG10999AY151061GF106991031021004501041001KA1240N+01751MA1999999091591MD1999999+0061MW1011REMSYN023333   20175 58006 69914
0116833440999991984050818004-14850-040833FM-12+1042SBQU V0200901N00311004201CN0100001N9+02021+01851101301ADDAA106000191AG10999AY121061GF108991061051004501041001MA1999999091311MD1999999+0021MW1511REMSYN017333   58002 69911
0129833440999991984050900004-14850-040833FM-12+1042SBQU V0200901N00261004201CN9999999N9+01951+01861101411ADDAA106000091AG10999AY101061GF107991071051004501001001KA1240M+02301MA1999999091501MD1999999+0051MW1021REMSYN017333   10230 58005
0146833440999991984050912004-14850-040833FM-12+1042SBQU V0201801N00261004201CN0040001N9+02961+01881101611ADDAA124000291AA299000391AG10999AY151061GF108991081051004501999999KA1240N+01621MA1999999091601MD1999999+0011MW1031REMSYN023333   20162 58001 69924
0116833440999991984050918004-14850-040833FM-12+1042SBQU V0201401N00311045001CN0100001N9+02341+01731101331ADDAA106000191AG10999AY151061GF106991031021004501021001MA1999999091351MD1999999+0041MW1021REMSYN017333   58004 69911
0129833440999991984051000004-14850-040833FM-12+1042SBQU V0201401N00101220001CN9999999N9+01701+01651101541ADDAA106000091AG10999AY101061GF100991001001999999001001KA1240M+02401MA1999999091521MD1999999+0021MW1021REMSYN017333   10240 58002
0146833440999991984051012004-14850-040833FM-12+1042SBQU V0201401N00311220001CN0200001N9+02101+01681101591ADDAA124000691AA299000591AG10999AY101061GF104991041021004501001001KA1240N+01591MA1999999091571MD1999999-0031MW1021REMSYN023333   20159 59003 69964
0135833440999991984051100004-14850-040833FM-12+1042SBQU V0200501N00101220001CN9999999N9+01751+01591101241ADDAA106000191AG10999AY151061GF100991001001999999001001KA1240M+02431MA1999999091251MD1999999-0271MW1021REMSYN023333   10243 59027 69911
0118833440999991984051112004-14850-040833FM-12+1042SBQU V0200901N00211220001CN0200001N9+02081+01511101181ADDAG10999AY101061GF100991001001999999001001KA1240N+01501MA1999999091201MD1999999-0371MW1021REMSYN017333   20150 59037
0110833440999991984051118004-14850-040833FM-12+1042SBQU V0201401N00311220001CN0500001N9+02491+01291100771ADDAA106000091AG10999AY101061GF100991001001999999001001MA1999999090881MD1999999-0291MW1021REMSYN011333   59029
0129833440999991984051200004-14850-040833FM-12+1042SBQU V0200901N00211220001CN9999999N9+01741+01371101041ADDAA106000091AG10999AY101061GF100991001001999999001001KA1240M+02511MA1999999091071MD1999999-0181MW1021REMSYN017333   10251 59018
0129833440999991984051212004-14850-040833FM-12+1042SBQU V0202301N00101220001CN0200001N9+02181+01561101291ADDAA106000091AG10999AY101061GF100991001001999999001001KA1240N+01321MA1999999091311MD1999999+0111MW1021REMSYN017333   20132 58011
0129833440999991984051312004-14850-040833FM-12+1042SBQU V0200901N00361045001CN0100001N9+02121+01841101461ADDAA106000091AG10999AY101061GF107991041021004501021001KA1240N+01781MA1999999098421MD1999999+0161MW1021REMSYN017333   20178 58016
0129833440999991984051318004-14850-040833FM-12+1042SBQU V0201401N00261045001CN0100001N9+02441+01901101001ADDAA106000091AG10999AY101061GF107991031031004501061081MA1999999091092MD1999999+0131MW1021REMSYN011333   58013EQDQ01+091093APOSP 
0129833440999991984051400004-14850-040833FM-12+1042SBQU V0200901N00211220001CN9999999N9+02001+01851101301ADDAA106000091AG10999AY101061GF100991001001999999001001KA1240M+02551MA1999999091341MD1999999+0091MW1021REMSYN017333   10255 58009
0129833440999991984051412004-14850-040833FM-12+1042SBQU V0200901N00211045001CN0200001N9+02221+01821101441ADDAA106000091AG10999AY101061GF107991041021004501061001KA1240N+01731MA1999999091471MD1410001+0001MW1021REMSYN017333   20173 58000
0110833440999991984051418004-14850-040833FM-12+1042SBQU V0203601N00101045001CN0100001N9+02361+01931101101ADDAA106000091AG10999AY101061GF108991031031008001041091MA1999999091171MD1999999+0081MW1021REMSYN011333   58008
0139833440999991984051512004-14850-040833FM-12+1042SBQU V0200501N00261220001CN0200001N9+02321+01761101341ADDAA124001091AG10999AY101061GF100991001001999999001001IA1029IA2999+00609KA1240N+01761MA1999999091411MW1021REMSYN023333   20176 39006 60014
0110833440999991984051518004-14850-040833FM-12+1042SBQU V0201401N00311220001CN0500001N9+02591+01941100951ADDAA106000091AG10999AY101061GF104991021021008001001081MA1999999091061MD1999999-0111MW1021REMSYN011333   59011
0129833440999991984051612004-14850-040833FM-12+1042SBQU V0201401N00261045001CN0100001N9+02091+01701101321ADDAA106000091AG10999AY101061GF106991021021008001041001KA1240N+01651MA1999999091311MD1999999-0061MW1021REMSYN017333   20165 59006
0110833440999991984051618004-14850-040833FM-12+1042SBQU V0201401N00361220001CN0200001N9+02431+01321100921ADDAA106000091AG10999AY101061GF102991021011008001001001MA1999999091081MD1999999+0021MW1021REMSYN011333   58002
0129833440999991984051700004-14850-040833FM-12+1042SBQU V0200901N00101012001CN9999999N9+01921+01721101301ADDAA106000091AG10999AY101061GF108991081001012501031999KA1240M+02521MA1999999091331MD1999999+0191MW1021REMSYN017333   10252 58019
0135833440999991984051712004-14850-040833FM-12+1042SBQU V0201401N00261004201CN0040001N9+01921+01801101551ADDAA124000391AG10999AY151061GF108991081051004501999999KA1240N-00151MA1999999091541MD1999999+0191MW1511REMSYN023333   21015 58019 69934
0110833440999991984051718004-14850-040833FM-12+1042SBQU V0201401N00361045001CN0100001N9+02271+01861101301ADDAA106000091AG10999AY101061GF107991041031004501061001MA1999999091311MD1999999+0231MW1021REMSYN011333   58023
0146833440999991984051800004-14850-040833FM-12+1042SBQU V0200901N002119999999N9999999N9+01881+01811101411ADDAA106000891AA299001091AG10999AY161061GF107991071001004501061001KA1240M+02391MA1999999091411MD1999999+0081MW1031REMSYN023333   10239 58008 69981
0146833440999991984051812004-14850-040833FM-12+1042SBQU V0200901N00151007501CN0100001N9+02011+01641101621ADDAA124000891AA299001091AG10999AY101061GF106991061021008001001001KA1240N+01581MA1999999091611MD1999999+0071MW1021REMSYN023333   20158 58007 69984
0110833440999991984051818004-14850-040833FM-12+1042SBQU V0201401N00361220001CN0200001N9+02351+01581101271ADDAA106000091AG10999AY101061GF104991041011008001001001MA1999999091301MD1999999-0011MW1021REMSYN011333   59001
0151833440999991984051912004-14850-040833FM-12+1042SBQU V0201401N00211004201CN0100001N9+02001+01581101551ADDAA106000091AG10999AY101061GA1031+014409039GF107991051021004501001001KA1240N+01601MA1999999091541MD1999999-0071MW1021REMSYN023333   20160 59007 83348
0110833440999991984051918004-14850-040833FM-12+1042SBQU V0201401N00411220001CN0200001N9+02321+01651101221ADDAA106000091AG10999AY101061GF104991041021004501001001MA1999999091261MD1999999-0041MW1021REMSYN011333   59004
0154833440999991984052000004-14850-040833FM-12+1042SBQU V0200901N00151004201CN9999999N9+01941+01821101391ADDAA106000191AG10999AY151061GF108991081051004501999999KA1240M+02481MA1999999101402MD1999999+0011MW1031REMSYN023333   10248 58001 69911EQDQ01+101403APOSP 
0127833440999991984052018004-14850-040833FM-12+1042SBQU V0201401N00211045001CN0100001N9+02151+01901101241ADDAA106000491AA299000591AG10999AY161061GF108991041051004501021001MA1999999091201MD1410001+0001MW1011REMSYN017333   58000 69941
0135833440999991984052100004-14850-040833FM-12+1042SBQU V0200901N00361012001CN9999999N9+01821+01691101411ADDAA106000191AG10999AY151061GF105991051001012501061001KA1240M+02261MA1999999091401MD1410001+0001MW1011REMSYN023333   10226 58000 69911
0135833440999991984052112004-14850-040833FM-12+1042SBQU V0201401N00461004201CN0200001N9+01951+01501101581ADDAA124000591AG10999AY101061GF105991051021004501001001KA1240N+01561MA1999999091561MD1999999+0021MW1021REMSYN023333   20156 58002 69954
0110833440999991984052118004-14850-040833FM-12+1042SBQU V0200401N00411220001CN0200001N9+02341+01411101001ADDAA106000091AG10999AY101061GF103991031021008001001001MA1999999091331MD1999999+0051MW1021REMSYN011333   58005
0135833440999991984052212004-14850-040833FM-12+1042SBQU V0200901N00311004201CN0040001N9+02071+01641101601ADDAA124000191AG10999AY151061GF106991061021004501001001KA1240N+01491MA1999999091581MD1999999+0021MW1011REMSYN023333   20149 58002 69914
0110833440999991984052218004-14850-040833FM-12+1042SBQU V0201401N00261220001CN0200001N9+02271+01701101331ADDAA106000091AG10999AY101061GF104991021011008001041001MA1999999091341MD1999999+0011MW1021REMSYN011333   58001
0135833440999991984052300004-14850-040833FM-12+1042SBQU V0201401N001519999999N9999999N9+01761+01561101521ADDAA106000191AG10999AY151061GF106991061001004501061001KA1240M+02461MA1999999091511MD1999999+0021MW1021REMSYN023333   10246 58002 69911
0135833440999991984052312004-14850-040833FM-12+1042SBQU V0200901N00411004201CN0040001N9+01981+01611101591ADDAA124000191AG10999AY101061GF105991051021004501001001KA1240N+01521MA1999999091561MD1999999-0021MW1021REMSYN023333   20152 59002 69914
0114833440999991984052318004-14850-040833FM-12+1042SBQU V0200901N00311007501CN0200001N9+02331+01221101241ADDAA106000091AG10999AY101061GF106991061021008001001001MD1999999-0081MW1021REMSYN011333   59008EQDQ01+098683APOSP 
0129833440999991984052400004-14850-040833FM-12+1042SBQU V0200901N00361004201CN9999999N9+01891+01681101361ADDAA106000091AG10999AY101061GF107991071051004501001001KA1240M+02391MA1999999091371MD1999999-0141MW1021REMSYN017333   10239 59014
0129833440999991984052412004-14850-040833FM-12+1042SBQU V0200901N00211220001CN0200001N9+01941+01531101531ADDAA106000091AG10999AY101061GF102991021011008001001001KA1240N+01491MA1999999091521MD1999999-0041MW1021REMSYN017333   20149 59004
0110833440999991984052418004-14850-040833FM-12+1042SBQU V0201401N00311220001CN0500001N9+02431+01481101101ADDAA106000091AG10999AY101061GF102991021011004501001001MA1999999091161MD1999999-0101MW1021REMSYN011333   59010
0129833440999991984052500004-14850-040833FM-12+1042SBQU V0200901N00311220001CN9999999N9+01871+01431101351ADDAA106000091AG10999AY101061GF100991001001999999001001KA1240M+02511MA1999999091351MD1999999-0021MW1021REMSYN017333   10251 59002
0129833440999991984052512004-14850-040833FM-12+1042SBQU V0201901N00261220001CN0200001N9+01811+01531101461ADDAA106000091AG10999AY101061GF102991021021004501001001KA1240N+01501MA1999999091441MD1999999-0081MW1021REMSYN017333   20150 59008
0110833440999991984052518004-14850-040833FM-12+1042SBQU V0200901N00211220001CN0500001N9+02561+01411101031ADDAA106000091AG10999AY101061GF100991001001999999001001MA1999999091111MD1999999-0051MW1021REMSYN011333   59005
0129833440999991984052600004-14850-040833FM-12+1042SBQU V0200901N00261220001CN9999999N9+01851+01551101281ADDAA106000091AG10999AY101061GF100991001001999999001001KA1240M+02611MA1999999091281MD1999999-0071MW1021REMSYN017333   10261 59007
0129833440999991984052612004-14850-040833FM-12+1042SBQU V0200901N00211004201CN0100001N9+01871+01551101441ADDAA106000091AG10999AY101061GF108991081051004501999999KA1240N+01581MA1999999091431MD1999999-0011MW1021REMSYN017333   20158 59001
0129833440999991984052700004-14850-040833FM-12+1042SBQU V0200901N002119999999N9999999N9+01851+01741101321ADDAA106000091AG10999AY101061GF107991071001004501061001KA1240M+02431MA1999999091321MD1999999+0041MW1021REMSYN017333   10243 58004
0129833440999991984052712004-14850-040833FM-12+1042SBQU V0200901N00151220001CN0200001N9+02141+01531101411ADDAA106000091AG10999AY101061GF100991001001999999001001KA1240N+01631MA1999999091431MD1410001+0001MW1021REMSYN017333   20163 58000
0110833440999991984052718004-14850-040833FM-12+1042SBQU V0200401N00261220001CN0500001N9+02521+01631101021ADDAA106000091AG10999AY101061GF103991031021008001001001MA1999999091201MD1999999-0011MW1021REMSYN011333   59001
0129833440999991984052800004-14850-040833FM-12+1042SBQU V0200901N00211220001CN9999999N9+01831+01621101311ADDAA106000091AG10999AY101061GF100991001001999999001001KA1240M+02701MA1999999091341MD1999999+0021MW1021REMSYN017333   10270 58002
0129833440999991984052812004-14850-040833FM-12+1042SBQU V0200901N00311220001CN0200001N9+02191+01511101521ADDAA106000091AG10999AY101061GF104991041021008001001001KA1240N+01501MA1999999091531MD1999999+0101MW1021REMSYN017333   20150 58010
0110833440999991984052818004-14850-040833FM-12+1042SBQU V0201401N00411105001CN0200001N9+02451+01521101151ADDAA106000091AG10999AY101061GF106991031021008001001091MA1999999091211MD1999999+0111MW1021REMSYN011333   58011
0129833440999991984052900004-14850-040833FM-12+1042SBQU V0201401N00051220001CN9999999N9+01721+01431101371ADDAA106000091AG10999AY101061GF100991001001999999001001KA1240M+02601MA1999999091381MD1999999+0041MW1021REMSYN017333   10260 58004
0164833440999991984052904004-14850-040833FM-12+1042SBQU V0209999999999220001CN0200001N9+02381+01441103562ADDAA106000091AG10999AY101041GF100991001001999999001001KA1240N+01521MA1999999093552MD1999999+0021MW1021REMSYN017333   20152 58002EQDQ01+093553APOSP Q02+103563APOSLP
0129833440999991984052912004-14850-040833FM-12+1042SBQU V0200901N00261220001CN0200001N9+02381+01441103561ADDAA106000091AG10999AY101061GF100991001001999999001001KA1240N+01521MA1999999093551MD1999999+0021MW1021REMSYN017333   20152 58002
0145833440999991984052918004-14850-040833FM-12+1042SBQU V0201401N00261220001CN0500001N9+02581+01641101102ADDAA106000091AG10999AY101061GF100991001001999999001001MA1999999091172MD1999999-0041MW1021REMSYN011333   59004EQDQ01+091173APOSP Q02+101103APOSLP
0129833440999991984053000004-14850-040833FM-12+1042SBQU V0201801N00151220001CN9999999N9+01801+01561101341ADDAA106000091AG10999AY101061GF100991001001999999001001KA1240M+02701MA1999999091361MD1999999-0021MW1021REMSYN017333   10270 59002
0135833440999991984053012004-14850-040833FM-12+1042SBQU V0200501N00311004201CN0100001N9+02031+01661101541ADDAA124000191AG10999AY151061GF107991071051004501001001KA1240N+01571MA1999999091531MD1999999-0021MW1011REMSYN023333   20157 59002 69914
0110833440999991984053018004-14850-040833FM-12+1042SBQU V0201401N00311045001CN0200001N9+02621+01801101171ADDAA106000091AG10999AY101061GF105991021011008001071001MA1999999091251MD1999999+0071MW1021REMSYN011333   58007
0129833440999991984053100004-14850-040833FM-12+1042SBQU V0200501N01391220001CN9999999N9+01911+01721101401ADDAA106000091AG10999AY101061GF100991001001999999001001KA1240M+02901MA1999999091401MD1999999+0101MW1021REMSYN017333   10290 58010
0129833440999991984053112004-14850-040833FM-12+1042SBQU V0200901N00261045001CN0200001N9+02091+01601101521ADDAA106000091AG10999AY101061GF106991031021004501021001KA1240N+01131MA1999999091521MD1999999+0091MW1021REMSYN017333   20113 58009
0110833440999991984053118004-14850-040833FM-12+1042SBQU V0201401N00311220001CN0500001N9+02481+01541101381ADDAA106000091AG10999AY101061GF102991021021004501001001MA1999999091421MD1999999+0171MW1021REMSYN011333   58017
0129833440999991984060100004-14850-040833FM-12+1042SBQU V0201401N00151220001CN9999999N9+01781+01521101701ADDAA106000091AG10999AY101061GF100991001001999999001001KA1240M+02571MA1999999091681MD1999999+0221MW1021REMSYN017333   10257 58022
0135833440999991984060112004-14850-040833FM-12+1042SBQU V0201401N00211004201CN0020001N9+01691+01671102031ADDAA124000591AG10999AY151061GF108991081051004501999999KA1240N+01431MA1999999091771MD1999999+0321MW1511REMSYN023333   20143 58032 69954
0116833440999991984060118004-14850-040833FM-12+1042SBQU V0200901N00311004201CN0020001N9+02851+01781101811ADDAA106001091AG10999AY161061GF108991081051004501999999MA1999999091731MD1999999+0311MW1521REMSYN017333   58031 60011
0159833440999991984060200004-14850-040833FM-12+1042SBQU V0200901N00151004201CN9999999N9+01721+01611102031ADDAA106000691AA299000591AG10999AY161061GF108991081051004501999999KA1240M+01971MA1999999091931MD1999999+0271REMSYN023333   10197 58027 69961EQDQ01+000222PRSWM1
0135833440999991984060212004-14850-040833FM-12+1042SBQU V0201401N00361004201CN0040001N9+02751+02721102051ADDAA124002091AG10999AY161061GF107991071051004501001001KA1240N+01601MA1999999091951MD1999999+0011MW1601REMSYN023333   20160 58001 60024
0146833440999991984060218004-14850-040833FM-12+1042SBQU V0201401N00311004201CN0040001N9+01931+01841101761ADDAA106002091AA299999999AG10999AY161061GF108991081051004501999999MA1999999091711MD1999999-0021MW1611REMSYN017333   59002 60021EQDQ01  00002PRCP99
0135833440999991984060300004-14850-040833FM-12+1042SBQU V0200901N00211004201CN9999999N9+01801+01741101851ADDAA106006091AG10999AY161061GF108991081051004501999999KA1240M+02151MA1999999091781MD1999999-0151MW1611REMSYN023333   10215 59015 60061
0135833440999991984060312004-14850-040833FM-12+1042SBQU V0200901N00361004201CN0100001N9+01801+01721101661ADDAA124011091AG10999AY191061GF108991081051004501999999KA1240N+01601MA1999999091621MD1999999-0331MW1161REMSYN023333   20160 59033 60114
0127833440999991984060318004-14850-040833FM-12+1042SBQU V0200901N00361004201CN0200001N9+02231+01691101361ADDAA106000291AA299000391AG10999AY151061GF106991061021004501001001MA1999999091371MD1999999-0341MW1011REMSYN017333   59034 69921
0146833440999991984060400004-14850-040833FM-12+1042SBQU V0200901N00261220001CN9999999N9+01681+01631101601ADDAA106000691AA299000591AG10999AY161061GF104991041001012501061091KA1240M+02261MA1999999091551MD1999999-0231MW1011REMSYN023333   10226 59023 69961
0146833440999991984060412004-14850-040833FM-12+1042SBQU V0201401N00211004201CN0040001N9+01781+01701101661ADDAA124000991AA299001091AG10999AY151061GF108991081051004501999999KA1240N+01571MA1999999091611MD1999999-0011MW1031REMSYN023333   20157 59001 69994
0116833440999991984060418004-14850-040833FM-12+1042SBQU V0200901N00101007501CN0040001N9+02251+01671101351ADDAA106000191AG10999AY151061GF106991061021008001001001MA1999999091351MD1999999-0021MW1011REMSYN017333   59002 69911
0129833440999991984060500004-14850-040833FM-12+1042SBQU V0200901N00101220001CN9999999N9+01761+01611101571ADDAA106000091AG10999AY101061GF103991031021008001001001KA1240M+02231MA1999999091531MD1999999-0021MW1021REMSYN017333   10223 59002
0121833440999991984060512004-14850-040833FM-12+1042SBQU V0201801N00311004201CN0100001N9+01881+01751101741ADDAA124000191AG10999GF108991081051004501999999KA1240N+01671MA1999999091691MD1999999+0081REMSYN023333   20167 58008 69914
0110833440999991984060518004-14850-040833FM-12+1042SBQU V0201401N00261045001CN0100001N9+02221+01881101391ADDAA106000091AG10999AY101061GF107991041021004501021001MA1999999091411MD1999999+0061MW1021REMSYN011333   58006
0129833440999991984060600004-14850-040833FM-12+1042SBQU V0200901N002619999999N9999999N9+01881+01761101571ADDAA106000091AG10999AY101061GF106991061001004501061001KA1240M+02271MA1999999091551MD1999999+0021MW1021REMSYN017333   10227 58002
0076833440999991984060612004-14850-040833FM-12+1042SBQU V0200901N00311220001CN0200001N9+01981+01521101691ADDAA106000091AG10999AY101061GF104991041021004501001001MA1999999091671MW1021
0110833440999991984060618004-14850-040833FM-12+1042SBQU V0201401N00261220001CN0500001N9+02341+01461101331ADDAA106000091AG10999AY101061GF102991021021004501001001MA1999999091961MD1999999-0051MW1021REMSYN011333   59005
0129833440999991984060700004-14850-040833FM-12+1042SBQU V0200901N00211220001CN9999999N9+01721+01501101561ADDAA106000091AG10999AY101061GF100991001001999999001001KA1240M+02401MA1999999091541MD1999999-0011MW1021REMSYN017333   10240 59001
0129833440999991984060712004-14850-040833FM-12+1042SBQU V0200901N00311220001CN0200001N9+02061+01431101601ADDAA106000091AG10999AY101061GF104991041091008001001001KA1240N+01481MA1999999091581MD1999999-0091MW1021REMSYN017333   20148 59009
0110833440999991984060718004-14850-040833FM-12+1042SBQU V0201401N00211007501CN0500001N9+02511+01211101181ADDAA106000091AG10999AY101061GF106991061091008001001001MA1999999091221MD1999999-0141MW1021REMSYN011333   59014
0129833440999991984060800004-14850-040833FM-12+1042SBQU V0200901N00151220001CN9999999N9+01721+01431101391ADDAA106000091AG10999AY101061GF102991021011008001001001KA1240M+02561MA1999999091361MD1999999-0151MW1021REMSYN017333   10256 59015
0129833440999991984060812004-14850-040833FM-12+1042SBQU V0203601N00151220001CN0200001N9+02311+01131101241ADDAA106000091AG10999AY101061GF103991031091008001001001KA1240N+01431MA1999999091401MD1999999-0181MW1021REMSYN017333   20143 59018
0110833440999991984060818004-14850-040833FM-12+1042SBQU V0201801N00151220001CN0500001N9+02621+01081100881ADDAA106000091AG10999AY101061GF101991011011008001001001MA1999999090981MD1999999-0241MW1021REMSYN011333   59024
0129833440999991984060900004-14850-040833FM-12+1042SBQU V0200901N00361220001CN9999999N9+01691+01381101201ADDAA106000091AG10999AY101061GF100991001001999999001001KA1240M+02661MA1999999091661MD1999999-0131MW1021REMSYN017333   10266 59013
0129833440999991984060912004-14850-040833FM-12+1042SBQU V0200901N00311220001CN0200001N9+02321+01131101391ADDAA106000091AG10999AY101061GF100991001001999999001001KA1240N+01671MA1999999091431MD1999999+0031MW1021REMSYN017333   20167 58003
0110833440999991984060918004-14850-040833FM-12+1042SBQU V0201801N00311220001CN0500001N9+02491+01391101201ADDAA106000091AG10999AY101061GF100991001001999999001001MA1999999092011MD1999999+0371MW1021REMSYN011333   58037
0115833440999991984061000004-14850-040833FM-12+1042SBQU V0200901N00151220001CN9999999N9+01831+01491101321ADDAA106000091AG10999AY101061GF100991001001999999001001KA1240M+02611MA1999999091351MW1021REMSYN017333   10261 5/009
0110833440999991984061018004-14850-040833FM-12+1042SBQU V0201401N00311220001CN0500001N9+02661+01631101051ADDAA106000091AG10999AY101061GF101991011011008001001001MA1999999091141MD1999999-0031MW1021REMSYN011333   59003
0129833440999991984061100004-14850-040833FM-12+1042SBQU V0200901N00151220001CN9999999N9+01861+01371101351ADDAA106000091AG10999AY101061GF100991001001999999001001KA1240M+02741MA1999999091381MD1999999+0031MW1021REMSYN017333   10274 58003
0129833440999991984061112004-14850-040833FM-12+1042SBQU V0201401N00211004201CN0100001N9+01981+01481101701ADDAA106000091AG10999AY101061GF105991051001004501021001KA1240N+01391MA1999999091671MD1999999+0261MW1021REMSYN017333   20139 58026
0145833440999991984061118004-14850-040833FM-12+1042SBQU V0200901N99999045001CN0100001N9+02181+01521101901ADDAA106000091AG10999AY101061GF106991041021004501021001MA1999999091401MD1999999+0261MW1021REMSYN011333   58026EQDQ01+003913WOSPD Q020003913WOSPD 
0129833440999991984061200004-14850-040833FM-12+1042SBQU V0201401N00261004201CN9999999N9+01721+01621101711ADDAA106000091AG10999AY101061GF108991081051004501999999KA1240M+02411MA1999999091671MD1999999+0291MW1021REMSYN017333   10241 58029
0135833440999991984061212004-14850-040833FM-12+1042SBQU V0201401N004119999999N0100001N9+01781+01581101831ADDAA124000191AG10999AY151061GF107991071001004501061001KA1240N+01581MA1999999091751MD1999999+0081MW1031REMSYN023333   20158 58008 69914
0110833440999991984061218004-14850-040833FM-12+1042SBQU V0201401N00211045001CN0100001N9+02101+01551101431ADDAA106000091AG10999AY101061GF107991041071004501021001MA1999999091421MD1999999+0021MW1021REMSYN011333   58002
0129833440999991984061312004-14850-040833FM-12+1042SBQU V0200901N00151220001CN0200001N9+01961+01641101571ADDAA106000091AG10999AY101061GF102991021031008001001001KA1240N+01561MA1999999091551MD1999999-0201MW1021REMSYN017333   20156 59020
