0095833980999991984010706004-15667-038933FM-12+000599999V0209991C00001220001CN0200001N9+02621+02351101171ADDAA106000091AG10000AY101061GF102991021051008001001001MD1999999+0011MW1021REMSYN011333   58001
0084833980999991984011203004-15667-038933FM-12+000599999V0209991C00001220001CN0200001N9+02551+02241101201ADDAG11000AY101031GF101991011051008001001001MD1999999+0131MW1021REMSYN011333   58013
0131833980999991984011612004-15667-038933FM-12+000599999V0200901N01001007501CN0200001N9+02951+02351101221ADDAA106000091AA224012091AG10000AY101061GF105991051011008001001001KA1240N+02381MD1999999-0041MW1021REMSYN023333   20238 59004 60124
0095833980999991984012018004-15667-038933FM-12+000599999V0201101N00601220001CN0200001N9+03161+02291100861ADDAA106000091AG14000AY101061GF103991031021008001001001MD1999999-0131MW1021REMSYN011333   59013
0115833980999991984012412004-15667-038933FM-12+000599999V0202701N00201045001CN0200001N9+02561+01971101021ADDAA106000091AG14000AY101061GF105991031021008001021011KA1240N+02011MA1999999093921MW1021REMSYN017333   20201 55010
0084833980999991984012609004-15667-038933FM-12+000599999V0209991C00001012001CN0080001N9+02441+02341100951ADDAG12003AY161031GF107991071081008001001001MD1999999+0061MW1601REMSYN011333   58006
0110833980999991984013118004-15667-038933FM-12+000599999V0200901N00601220001CN0200001N9+03141+01731100951ADDAA106000091AG14000AY101061GF104991031021008001011001MA1999999093831MD1999999-0011MW1021REMSYN011333   59001
0084833980999991984020603004-15667-038933FM-12+000599999V0209991C00001220001CN0200001N9+02631+02361100971ADDAG10999AY101031GF103991031051008001001001MD1999999-0041MW1021REMSYN011333   59004
0110833980999991984020818004-15667-038933FM-12+000599999V0201401N00311045001CN0200001N9+03121+01791100971ADDAA106000091AG10999AY101061GF105991031021008001041001MA1999999093881MD1999999+0221MW1021REMSYN011333   58022
0064833980999991984020912004-15667-038933FM-12+000599999V0200701N00411045001CN0100001N9+00231-00441100691ADDAG10999AY101061GF199999051001999999031001MD1210021+9999MW1021
0084833980999991984021103004-15667-038933FM-12+000599999V0209991C00001220001CN0200001N9+02651+02431101131ADDAG10999AY101031GF102991021011008001001001MD1999999+0021MW1021REMSYN011333   58002
0084833980999991984022103004-15667-038933FM-12+000599999V0201001N00311220001CN0200001N9+02761+02481101011ADDAG10999AY101031GF104991041021008001001001MD1999999-0061MW1021REMSYN011333   59006
0084833980999991984022503004-15667-038933FM-12+000599999V0200801N00261220001CN0200001N9+02701+02411100961ADDAG10999AY101031GF104991041081008001001001MD1999999+0031MW1021REMSYN011333   58003
0110833980999991984022718004-15667-038933FM-12+000599999V0201401N00311105001CN0200001N9+03061+01731101041ADDAA106000091AG10999AY101061GF105991031021008001001021MA1999999093941MD1999999-0111MW1021REMSYN011333   59011
0110833980999991984030518004-15667-038933FM-12+000599999V0200901N00101007501CN0200001N9+03341+01451100551ADDAA106000091AG10999AY101061GF105991051031008001001001MA1999999093671MD1999999-0131MW1021REMSYN011333   59013
0110833980999991984031618004-15667-038933FM-12+000599999V0200901N00311220001CN0200001N9+02761+01491100991ADDAA106000091AG10999AY101061GF104991031021008001011001MA1999999093841MD1999999+0151MW1021REMSYN011333   58015
0065833980999991984032300004-15667-038933FM-12+000599999V0209991C00001004201CN0001001N9+02421+02401100851ADDAG10999AY161061GF108991061051004501071001MA1999999096871MW1031
0116833980999991984033118004-15667-038933FM-12+000599999V0202301N00101045001CN0020001N9+02541+02401100911ADDAA106003091AG10999AY191061GF107991041051004501021001MA1999999100861MD1999999+0201MW1031REMSYN017333   58020 60031
0101833980999991984041006004-15667-038933FM-12+000599999V0201201N00261004201CN0040001N9+02301+02301101101ADDAA106034091AG10999AY161061GF108991081051004501999999MD1999999+0111MW1951REMSYN017333   58011 60341
0120833980999991984041100004-15667-038933FM-12+000599999V0201501N00211045001CN0200001N9+02341+02291101331ADDAA106000191AG10999AY161061GF108991021051004501021999KA1240M+02691MD1999999+0171MW1011REMSYN023333   10269 58017 69911
0095833980999991984041206004-15667-038933FM-12+000599999V0209991C00001220001CN0200001N9+02401+02311101101ADDAA106000091AG10999AY101061GF100991001001999999001001MD1999999-0061MW1021REMSYN011333   59006
0120833980999991984041412004-15667-038933FM-12+000599999V0201601N00261045001CN0200001N9+02661+02461101131ADDAA124067091AG10999AY191061GF107991021041008001071001KA1240N+02361MD1999999-0171MW1021REMSYN023333   20236 59017 60674
0103833980999991984041512004-15667-038933FM-12+000599999V0201501N00311220001CN0200001N9+02561+01851101251ADDAG10999AY101061GF104991011021008001001011KA1240N+02121MD1999999-0061MW1021REMSYN017333   20212 59006
0101833980999991984042106004-15667-038933FM-12+000599999V0209991C00001045001CN0150001N9+02481+02431100981ADDAA106011091AG10999AY161061GF108991031021008001021999MD1999999-0141MW1151REMSYN017333   59014 60111
0114833980999991984051100004-15667-038933FM-12+000599999V0209991C00001220001CN0200001N9+02581+02421101011ADDAA106000091AG10999AY101061GF100991001001999999001001KA1240M+03101MD1999999-0231MW1021REMSYN017333   10310 59023
0095833980999991984051818004-15667-038933FM-12+000599999V0200701N00261220001CN0200001N9+03121+02431100991ADDAA106000091AG10999AY101061GF103991031021008001001001MD1999999-0091MW1021REMSYN011333   59009
0070833980999991984052509004-15667-038933FM-12+000599999V0201701N00411220001CN0200001N9+02351+02301101001ADDAG10999GF102991021011008001001001MD1999999+0041REMSYN011333   58004
0101833980999991984052606004-15667-038933FM-12+000599999V0209991C00001220001CN0150001N9+02391+02341101021ADDAA106001091AG10999AY161061GF104991041021008001001001MD1999999+0031MW1101REMSYN017333   58003 60011
0101833980999991984060806004-15667-038933FM-12+000599999V0201701N00411007501CN0080001N9+02331+02281101261ADDAA106013091AG10999AY161061GF107991061021008001071001MD1999999+0111MW1621REMSYN017333   58011 60131
0084833980999991984061103004-15667-038933FM-12+000599999V0200801N00311007501CN0200001N9+02711+02391101331ADDAG10999AY101031GF105991051051008001001001MD1999999+0021MW1021REMSYN011333   58002
0075833980999991984061818004-15667-038933FM-12+000599999V0201201N00771007501CN0100001N9+01301+01131101681ADDAA106000091AG10999AY101061GF108991081071008001999999MD1710101+9999MW1021
0084833980999991984062409004-15667-038933FM-12+000599999V0201801N00261220001CN0200001N9+02241+02101101411ADDAG10999AY101031GF101991011011008001001001MD1999999+0051MW1021REMSYN011333   58005
0114833980999991984062412004-15667-038933FM-12+000599999V0201601N00511220001CN0200001N9+02521+02021101501ADDAA106000091AG10999AY101061GF102991021001999999031001KA1240N+02241MD1999999+0031MW1021REMSYN017333   20224 58003
0120833980999991984062812004-15667-038933FM-12+000599999V0201401N00261007501CN0080001N9+02441+02351101611ADDAA130015091AG10999AY161061GF107991071021008001021001KA1240N+02281MD1999999+0121MW1611REMSYN023333   20228 58012 60155
0101833980999991984062818004-15667-038933FM-12+000599999V0201001N00411220001CN0200001N9+02861+02351101281ADDAA106004091AG10999AY161061GF103991031021008001001001MD1999999+0001MW1011REMSYN017333   59000 60041
0101833980999991984063006004-15667-038933FM-12+000599999V0201601N00211220001CN0150001N9+02391+02331101251ADDAA106002091AG10999AY161061GF103991031021008001001001MD1999999-0131MW1101REMSYN017333   59013 60021
0114833980999991984071200004-15667-038933FM-12+000599999V0201101N00311045001CN0200001N9+02601+02331101281ADDAA106000091AG10999AY101061GF106991021011008001071001KA1240M+03021MD1999999-0041MW1021REMSYN017333   10302 59004
0070833980999991984071409004-15667-038933FM-12+000599999V0201301N00511220001CN0120001N9+02071+01811101391ADDAG10999GF104991031051008001031001MD1999999+0051REMSYN011333   58005
0084833980999991984072003004-15667-038933FM-12+000599999V0201201N00211045001CN0200001N9+02591+02321101411ADDAG10999AY101031GF106991041021008001031001MD1999999-0171MW1021REMSYN011333   59017
0084833980999991984072521004-15667-038933FM-12+000599999V0200901N00411220001CN0200001N9+02701+02111101151ADDAG10999AY101031GF101991011011008001001001MD1999999-0101MW1021REMSYN011333   59010
0084833980999991984073015004-15667-038933FM-12+000599999V0201501N00511220001CN0200001N9+02861+02231101581ADDAG10999AY101031GF104991041021008001001001MD1999999-0021MW1021REMSYN011333   59002
0114833980999991984081212004-15667-038933FM-12+000599999V0201401N00621220001CN0200001N9+02621+02011101451ADDAA106000091AG10999AY101061GF104991041051008001001001KA1240N+02241MD1999999+0031MW1021REMSYN017333   20224 58003
0095833980999991984090706004-15667-038933FM-12+000599999V0201301N00511220001CN0200001N9+02581+02171101241ADDAA106000091AG10999AY101061GF102991021051008001001001MD1999999-0011MW1021REMSYN011333   59001
0084833980999991984101403004-15667-038933FM-12+000599999V0201001N00261220001CN0200001N9+02581+02251101201ADDAG10999AY101031GF102991021011008001001001MD1999999-0121MW1021REMSYN011333   59012
0084833980999991984102115004-15667-038933FM-12+000599999V0201201N00821220001CN0200001N9+03051+02321101261ADDAG10999AY101031GF102991021011008001001001MD1999999-0041MW1021REMSYN011333   59004
0114833980999991984102200004-15667-038933FM-12+000599999V0201001N00311220001CN0200001N9+02631+02321101191ADDAA106000091AG10999AY101061GF101991011011008001001001KA1240M+03091MD1999999-0041MW1021REMSYN017333   10309 59004
0075833980999991984102618004-15667-038933FM-12+000599999V0201601N00311007501CN0100001N9+01701+01381101681ADDAA106000091AG10999AY151061GF108991071071008001999999MD1710151+9999MW1021
0084833980999991984110103004-15667-038933FM-12+000599999V0201201N00721220001CN0200001N9+02691+02231101031ADDAG10999AY101031GF103991031021008001001001MD1999999+0091MW1021REMSYN011333   58009
0084833980999991984110821004-15667-038933FM-12+000599999V0201101N00211105001CN0200001N9+02741+02241101001ADDAG10999AY101031GF107991001001999999001021MD1999999+0051MW1021REMSYN011333   58005
0135833980999991984112012004-15667-038933FM-12+000599999V0201801N00101007501CN0020001N9+02311+02251101581ADDAA124011091AG10999AY161061GF108991051051008001051999KA1240N+02181MA1999999101531MD1999999+0191MW1601REMSYN023333   20218 58019 60114
0070833980999991984112309004-15667-038933FM-12+000599999V0201101N00311220001CN0200001N9+02541+02231101231ADDAG10001AY101031GF102991021011008001001001MW1021REMSYN011333   5900/
0084833980999991984112609004-15667-038933FM-12+000599999V0201201N00411220001CN0200001N9+02651+02281101151ADDAG10999AY101031GF102991021021008001001001MD1999999+0021MW1021REMSYN011333   58002
0095833980999991984112612004-15667-038933FM-12+000599999V0201101N00511007501CN0200001N9+02861+02311101301ADDAA106000091AG10999AY101061GF105991051021008001001001MD1999999-0031MW1021REMSYN011333   59003
0082833980999991984120300004-15667-038933FM-12+000599999V0202001N009319999999N0100001N9+01901+01591101181ADDAA106000091AG10999AY101061KA1240M+02101MD1210181+9999MW1021REMSYN011333   10210
0084833980999991984121721004-15667-038933FM-12+000599999V0200901N00411220001CN0200001N9+02841+02311100781ADDAG10999AY101031GF100991001001999999001001MD1999999-0041MW1021REMSYN011333   59004
