0139827980999992003021414004-07100-034870FM-15+0007SBJP V0200801N004110060019N0112651N1+03001+02201999999ADDGA1071+006009999GF107991999999999999999999MA1101191999999MW1001REMMET045SBJP 141400Z 08008KT 9999 BKN020 30/22 Q1012;EQDQ01+000000PRSWM2
0204827980999992003022708234-07100-034870FM-16+0007SBJP V0201001N001010018019N0030001N1+02301+02301999999ADDGA1071+001809999GA2071+003009999GA3081+024009999GF108991999999999999999999MA1101081999999MW1631REMMET062SBJP 270823Z 10002KT 3000 RA BKN006 BKN010 OVC080 23/23 Q1011;EQDQ01+000003PRSWM1Q02    003PRSWM1
0162827980999992003040606004-07100-034870FM-15+0007SBJP V0202501N001012200019N0112651N1+02401+02301999999ADDGA1021+006009999GA2041+030009999GF104991999999999999999999MA1101081999999MW1001REMMET052SBJP 060600Z 25002KT 9999 FEW020 SCT100 24/23 Q1011;EQDQ01+000000PRSWM2
0139827980999992003053014004-07100-034870FM-15+0007SBJP V0201401N006710060019N0112651N1+02901+02301999999ADDGA1071+006009999GF107991999999999999999999MA1101491999999MW1001REMMET045SBJP 301400Z 14013KT 9999 BKN020 29/23 Q1015;EQDQ01+000000PRSWM2
0139827980999992003053015004-07100-034870FM-15+0007SBJP V0201301N005710060019N0112651N1+02901+02301999999ADDGA1071+006009999GF107991999999999999999999MA1101391999999MW1001REMMET045SBJP 301500Z 13011KT 9999 BKN020 29/23 Q1014;EQDQ01+000000PRSWM2
0139827980999992003053016004-07100-034870FM-15+0007SBJP V0201201N005710060019N0112651N1+02901+02301999999ADDGA1071+006009999GF107991999999999999999999MA1101291999999MW1001REMMET045SBJP 301600Z 12011KT 9999 BKN020 29/23 Q1013;EQDQ01+000000PRSWM2
0139827980999992003053017004-07100-034870FM-15+0007SBJP V0201201N006712200019N0112651N1+02901+02301999999ADDGA1041+006009999GF104991999999999999999999MA1101191999999MW1001REMMET045SBJP 301700Z 12013KT 9999 SCT020 29/23 Q1012;EQDQ01+000000PRSWM2
0139827980999992003053018004-07100-034870FM-15+0007SBJP V0201201N006710060019N0112651N1+02801+02301999999ADDGA1071+006009999GF107991999999999999999999MA1101191999999MW1001REMMET045SBJP 301800Z 12013KT 9999 BKN020 28/23 Q1012;EQDQ01+000000PRSWM2
0162827980999992003060303004-07100-034870FM-15+0007SBJP V0201601N002610210019N0112651N1+02301+02201999999ADDGA1041+005109999GA2071+021009999GF107991999999999999999999MA1101391999999MW1001REMMET052SBJP 030300Z 16005KT 9999 SCT017 BKN070 23/22 Q1014;EQDQ01+000000PRSWM2
0162827980999992003060304004-07100-034870FM-15+0007SBJP V0201701N003112200019N0112651N1+02301+02301999999ADDGA1041+004509999GA2041+021009999GF104991999999999999999999MA1101391999999MW1001REMMET052SBJP 030400Z 17006KT 9999 SCT015 SCT070 23/23 Q1014;EQDQ01+000000PRSWM2
0139827980999992003060305004-07100-034870FM-15+0007SBJP V0202001N002612200019N0112651N1+02301+02301999999ADDGA1041+004509999GF104991999999999999999999MA1101291999999MW1001REMMET045SBJP 030500Z 20005KT 9999 SCT015 23/23 Q1013;EQDQ01+000000PRSWM2
0139827980999992003060307004-07100-034870FM-15+0007SBJP V0202101N003612200019N0112651N1+02301+02301999999ADDGA1041+004509999GF104991999999999999999999MA1101291999999MW1001REMMET045SBJP 030700Z 21007KT 9999 SCT015 23/23 Q1013;EQDQ01+000000PRSWM2
0139827980999992003060308004-07100-034870FM-15+0007SBJP V0202001N002110045019N0112651N1+02301+02301999999ADDGA1071+004509999GF107991999999999999999999MA1101291999999MW1001REMMET045SBJP 030800Z 20004KT 9999 BKN015 23/23 Q1013;EQDQ01+000000PRSWM2
0162827980999992003060309004-07100-034870FM-15+0007SBJP V0202001N002112200019N0112651N1+02201+02201999999ADDGA1021+006009999GA2041+024009999GF104991999999999999999999MA1101291999999MW1001REMMET052SBJP 030900Z 20004KT 9999 FEW020 SCT080 22/22 Q1013;EQDQ01+000000PRSWM2
0162827980999992003060310004-07100-034870FM-15+0007SBJP V0201801N003112200019N0112651N1+02401+02401999999ADDGA1021+006009999GA2041+024009999GF104991999999999999999999MA1101391999999MW1001REMMET052SBJP 031000Z 18006KT 9999 FEW020 SCT080 24/24 Q1014;EQDQ01+000000PRSWM2
0162827980999992003060311004-07100-034870FM-15+0007SBJP V0201701N003112200019N0112651N1+02501+02401999999ADDGA1021+006009999GA2041+024009999GF104991999999999999999999MA1101491999999MW1001REMMET052SBJP 031100Z 17006KT 9999 FEW020 SCT080 25/24 Q1015;EQDQ01+000000PRSWM2
0162827980999992003060316004-07100-034870FM-15+0007SBJP V0202001N003610051019N0112651N1+02501+02501999999ADDGA1071+005109999GA2071+024009999GF107991999999999999999999MA1101291999999MW1001REMMET052SBJP 031600Z 20007KT 9999 BKN017 BKN080 25/25 Q1013;EQDQ01+000000PRSWM2
0182827980999992003060317004-07100-034870FM-15+0007SBJP V0201601N003110024019N0020001N1+02401+02401999999ADDGA1071+002409999GA2081+024009999GF108991999999999999999999MA1101291999999MW1611REMMET056SBJP 031700Z 16006KT 2000 -RA BKN008 OVC080 24/24 Q1013;EQDQ01+000003PRSWM1Q02    003PRSWM1
0182827980999992003060318004-07100-034870FM-15+0007SBJP V0201601N002110024019N0020001N1+02301+02301999999ADDGA1071+002409999GA2081+024009999GF108991999999999999999999MA1101191999999MW1611REMMET056SBJP 031800Z 16004KT 2000 -RA BKN008 OVC080 23/23 Q1012;EQDQ01+000003PRSWM1Q02    003PRSWM1
0182827980999992003060320004-07100-034870FM-15+0007SBJP V0202101N002110045019N0090001N1+02401+02401999999ADDGA1071+004509999GA2081+024009999GF108991999999999999999999MA1101191999999MW1611REMMET056SBJP 032000Z 21004KT 9000 -RA BKN015 OVC080 24/24 Q1012;EQDQ01+000003PRSWM1Q02    003PRSWM1
0162827980999992003060412004-07100-034870FM-15+0007SBJP V0201601N00311002401CN0112651N1+02501+02401999999ADDGA1071+002409999GA2071+004509999GF107991999999999999999999MA1101391999999MW1001REMMET052SBJP 041200Z 16006KT 9999 BKN015 BKN008 25/24 Q1014;EQDQ01+000000PRSWM2
0162827980999992003060413004-07100-034870FM-15+0007SBJP V0201201N003610240019N0112651N1+02501+02401999999ADDGA1041+004509999GA2071+024009999GF107991999999999999999999MA1101391999999MW1001REMMET052SBJP 041300Z 12007KT 9999 SCT015 BKN080 25/24 Q1014;EQDQ01+000000PRSWM2
0084827980999992003061105004-07100-034870FM-15+0007SBJP V02099999999992200019N9999999N1+99999+99999999999ADDMW1001REMMET047SBJP 110500Z 23006KT BKN012 BKN070 22/22 Q1014;EQDQ01+000000PRSWM2
0162827980999992003061106004-07100-034870FM-15+0007SBJP V0202101N002610045019N0112651N1+02201+02201999999ADDGA1071+004509999GA2071+024009999GF107991999999999999999999MA1101291999999MW1001REMMET052SBJP 110600Z 21005KT 9999 BKN015 BKN080 22/22 Q1013;EQDQ01+000000PRSWM2
0162827980999992003061107004-07100-034870FM-15+0007SBJP V0202201N002610045019N0112651N1+02201+02201999999ADDGA1071+004509999GA2071+024009999GF107991999999999999999999MA1101391999999MW1001REMMET052SBJP 110700Z 22005KT 9999 BKN015 BKN080 22/22 Q1014;EQDQ01+000000PRSWM2
0182827980999992003061108004-07100-034870FM-15+0007SBJP V0202101N001010036019N0050001N1+02201+02201999999ADDGA1071+003609999GA2071+024009999GF107991999999999999999999MA1101391999999MW1611REMMET056SBJP 110800Z 21002KT 5000 -RA BKN012 BKN080 22/22 Q1014;EQDQ01+000003PRSWM1Q02    003PRSWM1
0162827980999992003061109004-07100-034870FM-15+0007SBJP V0202101N002610240019N0112651N1+02201+02201999999ADDGA1041+004509999GA2071+024009999GF107991999999999999999999MA1101391999999MW1001REMMET052SBJP 110900Z 21005KT 9999 SCT015 BKN080 22/22 Q1014;EQDQ01+000000PRSWM2
0185827980999992003061110004-07100-034870FM-15+0007SBJP V0202001N002110060019N0112651N1+02301+02301999999ADDGA1041+005109999GA2071+006009999GA3071+024009999GF107991999999999999999999MA1101391999999MW1001REMMET059SBJP 111000Z 20004KT 9999 SCT017 BKN020 BKN080 23/23 Q1014;EQDQ01+000000PRSWM2
0162827980999992003061111004-07100-034870FM-15+0007SBJP V0201901N002610060019N0112651N1+02401+02301999999ADDGA1041+005109999GA2071+006009999GF107991999999999999999999MA1101491999999MW1001REMMET052SBJP 111100Z 19005KT 9999 SCT017 BKN020 24/23 Q1015;EQDQ01+000000PRSWM2
0183827980999992003061113004-07100-034870FM-15+0007SBJP V0200701N001510060019N0080001N1+02501+02401999999ADDGA1041+004509999GA2071+006009999GF107991999999999999999999MA1101491999999MW1161REMMET057SBJP 111300Z 07003KT 8000 VCSH SCT015 BKN020 25/24 Q1015;EQDQ01+000003PRSWM1Q02    003PRSWM1
0182827980999992003061209004-07100-034870FM-15+0007SBJP V0201201N002610024019N0050001N1+02301+02301999999ADDGA1071+002409999GA2081+021009999GF108991999999999999999999MA1101291999999MW1611REMMET056SBJP 120900Z 12005KT 5000 -RA BKN008 OVC070 23/23 Q1013;EQDQ01+000003PRSWM1Q02    003PRSWM1
0162827980999992003061211004-07100-034870FM-15+0007SBJP V0201701N004610240019N0112651N1+02601+02301999999ADDGA1041+005109999GA2071+024009999GF107991999999999999999999MA1101391999999MW1001REMMET052SBJP 121100Z 17009KT 9999 SCT017 BKN080 26/23 Q1014;EQDQ01+000000PRSWM2
0162827980999992003061212004-07100-034870FM-15+0007SBJP V0201601N004610240019N0112651N1+02501+02401999999ADDGA1041+003609999GA2071+024009999GF107991999999999999999999MA1101391999999MW1001REMMET052SBJP 121200Z 16009KT 9999 SCT012 BKN080 25/24 Q1014;EQDQ01+000000PRSWM2
0214827980999992003061615004-07100-034870FM-15+0007SBJP V0200801N003110030019N0035001N1+02301+02301999999ADDGA1041+002409999GA2071+003009999GA3081+024009999GF108991999999999999999999MA1101491999999MW1101MW2611REMMET066SBJP 161500Z 08006KT 3500 -RA BR SCT008 BKN010 OVC080 23/23 Q1015;EQDQ01+000003PRSWM1Q02    003PRSWM1
0139827980999992003061715004-07100-034870FM-15+0007SBJP V0201501N005712200019N0112651N1+02801+01901999999ADDGA1021+006009999GF102991999999999999999999MA1101391999999MW1001REMMET045SBJP 171500Z 15011KT 9999 FEW020 28/19 Q1014;EQDQ01+000000PRSWM2
0162827980999992003061816004-07100-034870FM-15+0007SBJP V0201401N005710060019N0112651N1+02701+02201999999ADDGA1071+006009999GA2071+024009999GF107991999999999999999999MA1101391999999MW1001REMMET052SBJP 181600Z 14011KT 9999 BKN020 BKN080 27/22 Q1014;EQDQ01+000000PRSWM2
0162827980999992003061817004-07100-034870FM-15+0007SBJP V0201601N004610060019N0112651N1+02601+02301999999ADDGA1071+006009999GA2071+024009999GF107991999999999999999999MA1101391999999MW1001REMMET052SBJP 181700Z 16009KT 9999 BKN020 BKN080 26/23 Q1014;EQDQ01+000000PRSWM2
0139827980999992003092812004-07100-034867FM-15+0007SBJP V0201101N004110060019N0112651N1+02801+02201999999ADDGA1071+006009999GF107991999999999999999999MA1101491999999MW1001REMMET045SBJP 281200Z 11008KT 9999 BKN020 28/22 Q1015;EQDQ01+000000PRSWM2
0139827980999992003092813004-07100-034867FM-15+0007SBJP V0201101N005110060019N0112651N1+02801+02101999999ADDGA1071+006009999GF107991999999999999999999MA1101391999999MW1001REMMET045SBJP 281300Z 11010KT 9999 BKN020 28/21 Q1014;EQDQ01+000000PRSWM2
0139827980999992003092814004-07100-034867FM-15+0007SBJP V0201201N004612200019N0112651N1+03001+02001999999ADDGA1041+006009999GF104991999999999999999999MA1101391999999MW1001REMMET045SBJP 281400Z 12009KT 9999 SCT020 30/20 Q1014;EQDQ01+000000PRSWM2
0139827980999992003092815004-07100-034867FM-15+0007SBJP V0201001N004612200019N0112651N1+02901+02001999999ADDGA1041+006009999GF104991999999999999999999MA1101291999999MW1001REMMET045SBJP 281500Z 10009KT 9999 SCT020 29/20 Q1013;EQDQ01+000000PRSWM2
0139827980999992003092816004-07100-034867FM-15+0007SBJP V0201101N005712200019N0112651N1+02901+02001999999ADDGA1021+006009999GF102991999999999999999999MA1101191999999MW1001REMMET045SBJP 281600Z 11011KT 9999 FEW020 29/20 Q1012;EQDQ01+000000PRSWM2
0139827980999992003092817004-07100-034867FM-15+0007SBJP V0201001N004112200019N0112651N1+02901+02101999999ADDGA1021+006009999GF102991999999999999999999MA1101081999999MW1001REMMET045SBJP 281700Z 10008KT 9999 FEW020 29/21 Q1011;EQDQ01+000000PRSWM2
0139827980999992003093013004-07100-034867FM-15+0007SBJP V0201101N004112200019N0112651N1+02801+02201999999ADDGA1041+006009999GF104991999999999999999999MA1101591999999MW1001REMMET045SBJP 301300Z 11008KT 9999 SCT020 28/22 Q1016;EQDQ01+000000PRSWM2
0139827980999992003093014004-07100-034867FM-15+0007SBJP V0201001N005112200019N0112651N1+02901+02101999999ADDGA1041+006009999GF104991999999999999999999MA1101491999999MW1001REMMET045SBJP 301400Z 10010KT 9999 SCT020 29/21 Q1015;EQDQ01+000000PRSWM2
0139827980999992003121103004-07100-034867FM-15+0007SBJP V0201701N002112200019N0112651N1+02501+02401999999ADDGA1041+006009999GF104991999999999999999999MA1101291999999MW1001REMMET045SBJP 110300Z 17004KT 9999 SCT020 25/24 Q1013;EQDQ01+000000PRSWM2
0139827980999992003121104004-07100-034867FM-15+0007SBJP V0201701N002112200019N0112651N1+02401+02301999999ADDGA1041+006009999GF104991999999999999999999MA1101291999999MW1001REMMET045SBJP 110400Z 17004KT 9999 SCT020 24/23 Q1013;EQDQ01+000000PRSWM2
0139827980999992003121105004-07100-034867FM-15+0007SBJP V0201901N001512200019N0112651N1+02401+02301999999ADDGA1041+006009999GF104991999999999999999999MA1101291999999MW1001REMMET045SBJP 110500Z 19003KT 9999 SCT020 24/23 Q1013;EQDQ01+000000PRSWM2
0139827980999992003121106004-07100-034867FM-15+0007SBJP V0202001N002112200019N0112651N1+02401+02301999999ADDGA1041+006009999GF104991999999999999999999MA1101191999999MW1001REMMET045SBJP 110600Z 20004KT 9999 SCT020 24/23 Q1012;EQDQ01+000000PRSWM2
0139827980999992003121107004-07100-034867FM-15+0007SBJP V0201801N002112200019N0112651N1+02401+02301999999ADDGA1041+006009999GF104991999999999999999999MA1101291999999MW1001REMMET045SBJP 110700Z 18004KT 9999 SCT020 24/23 Q1013;EQDQ01+000000PRSWM2
0139827980999992003121108004-07100-034867FM-15+0007SBJP V0202101N002112200019N0112651N1+02401+02301999999ADDGA1041+006009999GF104991999999999999999999MA1101391999999MW1001REMMET045SBJP 110800Z 21004KT 9999 SCT020 24/23 Q1014;EQDQ01+000000PRSWM2
0139827980999992003121109004-07100-034867FM-15+0007SBJP V0202001N002112200019N0112651N1+02401+02301999999ADDGA1041+006009999GF104991999999999999999999MA1101391999999MW1001REMMET045SBJP 110900Z 20004KT 9999 SCT020 24/23 Q1014;EQDQ01+000000PRSWM2
0139827980999992003121110004-07100-034867FM-15+0007SBJP V0201001N004610060019N0112651N1+02701+02401999999ADDGA1071+006009999GF107991999999999999999999MA1101491999999MW1001REMMET045SBJP 111000Z 10009KT 9999 BKN020 27/24 Q1015;EQDQ01+000000PRSWM2
