0198830960999992003010100004-10920-037050FM-12+000699999V0200901N003112200019N0020001N1+02651+02291101391ADDAA106000091GF101991011011012501001001KA1240M+03071MA1999999101321MD1999999-0081REMSYN088AAXX  01004 83096 32695 10906 10265 20229 30132 40139 81100 333 10307 29077 55114 59008;EQDQ01  00002PRCP06
0186830960999992003010112004-10920-037050FM-12+000699999V0200901N003112200019N0020001N1+02851+02291101411ADDAA106000091GF103991031011012501001001KA1240N+02451MA1999999101341MD1999999-0181REMSYN076AAXX  01124 83096 32695 30906 10285 20229 30134 40141 83100 333 20245 59018;EQDQ01  00002PRCP06
0167830960999992003010118004-10920-037050FM-12+000699999V0200901N004112200019N0020001N1+02811+02221101291ADDAA106000091GF102991021011012501001001MA1999999101221MD1999999-0011REMSYN070AAXX  01184 83096 32695 20908 10281 20222 30122 40129 82100 333 59001;EQDQ01  00002PRCP06
0198830960999992003010200004-10920-037050FM-12+000699999V0200901N004112200019N0020001N1+02691+02391101291ADDAA106000091GF101991011011012501001001KA1240M+03041MA1999999101221MD1999999-0101REMSYN088AAXX  02004 83096 32695 10908 10269 20239 30122 40129 81100 333 10304 29078 55105 59010;EQDQ01  00002PRCP06
0186830960999992003010212004-10920-037050FM-12+000699999V0200901N005112200019N0020001N1+02931+02331101441ADDAA106000091GF102991021011012501001001KA1240N+02411MA1999999101371MD1999999+0031REMSYN076AAXX  02124 83096 32695 20910 10293 20233 30137 40144 82100 333 20241 58003;EQDQ01  00002PRCP06
0167830960999992003010218004-10920-037050FM-12+000699999V0200901N005112200019N0020001N1+02851+02311101121ADDAA106000091GF102991021011012501001001MA1999999101051MD1999999+0171REMSYN070AAXX  02184 83096 32695 20910 10285 20231 30105 40112 82100 333 58017;EQDQ01  00002PRCP06
0214830960999992003010300004-10920-037050FM-12+000699999V0200901N005112200019N0020001N1+02671+02411101211ADDAA106000091GF102991999021012501011001KA1240M+03071MA1999999101141MD1999999+0151REMSYN088AAXX  03004 83096 32695 20910 10267 20241 30114 40121 88210 333 10307 29078 55105 58015;EQDQ01+000082SCOTLCQ02  00002PRCP06
0186830960999992003010312004-10920-037050FM-12+000699999V0200901N004112200019N0020001N1+02871+02211101391ADDAA106000091GF103991031011012501001001KA1240N+02371MA1999999101321MD1999999-0051REMSYN076AAXX  03124 83096 32695 30908 10287 20221 30132 40139 83100 333 20237 59005;EQDQ01  00002PRCP06
0167830960999992003010318004-10920-037050FM-12+000699999V0200901N004112200019N0020001N1+02891+02411101141ADDAA106000091GF101991011011012501001001MA1999999101071MD1999999-0021REMSYN070AAXX  03184 83096 32695 10908 10289 20241 30107 40114 81100 333 59002;EQDQ01  00002PRCP06
0198830960999992003010400004-10920-037050FM-12+000699999V0200901N004112200019N0020001N1+02631+02371101291ADDAA106000091GF102991021011012501001001KA1240M+03011MA1999999101221MD1999999+0081REMSYN088AAXX  04004 83096 32695 20908 10263 20237 30122 40129 82100 333 10301 29079 55113 58008;EQDQ01  00002PRCP06
0186830960999992003010412004-10920-037050FM-12+000699999V0200901N002612200019N0020001N1+02871+02281101471ADDAA106000091GF103991031011012501001001KA1240N+02451MA1999999101401MD1999999+0081REMSYN076AAXX  04124 83096 32695 30905 10287 20228 30140 40147 83100 333 20245 58008;EQDQ01  00002PRCP06
0167830960999992003010418004-10920-037050FM-12+000699999V0200901N004112200019N0020001N1+02911+02431101241ADDAA106000091GF102991021011012501001001MA1999999101171MD1999999+0101REMSYN070AAXX  04184 83096 32695 20908 10291 20243 30117 40124 82100 333 58010;EQDQ01  00002PRCP06
0198830960999992003010500004-10920-037050FM-12+000699999V0200901N004112200019N0020001N1+02691+02461101311ADDAA106000091GF102991021051012501001001KA1240M+03031MA1999999101241MD1999999+0021REMSYN088AAXX  05004 83096 32695 20908 10269 20246 30124 40131 82500 333 10303 29081 55117 58002;EQDQ01  00002PRCP06
0186830960999992003010512004-10920-037050FM-12+000699999V0200901N003112200019N0020001N1+02911+02221101331ADDAA106000091GF103991031011012501001001KA1240N+02461MA1999999101261MD1999999-0141REMSYN076AAXX  05124 83096 32695 30906 10291 20222 30126 40133 83100 333 20246 59014;EQDQ01  00002PRCP06
0167830960999992003010518004-10920-037050FM-12+000699999V0200901N004112200019N0020001N1+02951+02381101181ADDAA106000091GF102991021011012501001001MA1999999101111MD1999999-0061REMSYN070AAXX  05184 83096 32695 20908 10295 20238 30111 40118 82100 333 59006;EQDQ01  00002PRCP06
0198830960999992003010600004-10920-037050FM-12+000699999V0200901N002612200019N0020001N1+02651+02331101291ADDAA106000091GF102991021011012501001001KA1240M+03041MA1999999101221MD1999999-0021REMSYN088AAXX  06004 83096 32695 20905 10265 20233 30122 40129 82100 333 10304 29076 55111 59002;EQDQ01  00002PRCP06
0186830960999992003010612004-10920-037050FM-12+000699999V0200901N005112200019N0020001N1+02951+02331101381ADDAA106000091GF101991011011012501001001KA1240N+02411MA1999999101311MD1999999+0051REMSYN076AAXX  06124 83096 32695 10910 10295 20233 30131 40138 81100 333 20241 58005;EQDQ01  00002PRCP06
0167830960999992003010618004-10920-037050FM-12+000699999V0200901N005112200019N0020001N1+02971+02371101071ADDAA106000091GF101991011011012501001001MA1999999101001MD1999999-0111REMSYN070AAXX  06184 83096 32695 10910 10297 20237 30100 40107 81100 333 59011;EQDQ01  00002PRCP06
0198830960999992003010700004-10920-037050FM-12+000699999V0200901N003112200019N0020001N1+02651+02351101151ADDAA106000091GF101991011051012501001001KA1240M+03041MA1999999101081MD1999999+0141REMSYN088AAXX  07004 83096 32695 10906 10265 20235 30108 40115 81500 333 10304 29076 55116 58014;EQDQ01  00002PRCP06
0186830960999992003010712004-10920-037050FM-12+000699999V0200901N002612200019N0020001N1+02941+02261101271ADDAA106000091GF101991011011012501001001KA1240N+02431MA1999999101201MD1999999-0111REMSYN076AAXX  07124 83096 32695 10905 10294 20226 30120 40127 81100 333 20243 59011;EQDQ01  00002PRCP06
0167830960999992003010718004-10920-037050FM-12+000699999V0200901N005112200019N0020001N1+02931+02451101101ADDAA106000091GF101991011011012501001001MA1999999101031MD1999999+0031REMSYN070AAXX  07184 83096 32695 10910 10293 20245 30103 40110 81100 333 58003;EQDQ01  00002PRCP06
0198830960999992003010800004-10920-037050FM-12+000699999V0200901N004112200019N0020001N1+02661+02481101071ADDAA106000091GF101991011011012501001001KA1240M+03061MA1999999101001MD1999999-0081REMSYN088AAXX  08004 83096 32695 10908 10266 20248 30100 40107 81100 333 10306 29081 55112 59008;EQDQ01  00002PRCP06
0167830960999992003010818004-10920-037050FM-12+000699999V0200901N005112200019N0020001N1+02951+02451101211ADDAA106000091GF102991021011012501001001MA1999999101141MD1999999+0111REMSYN070AAXX  08184 83096 32695 20910 10295 20245 30114 40121 82100 333 58011;EQDQ01  00002PRCP06
0198830960999992003010900004-10920-037050FM-12+000699999V0200901N003112200019N0020001N1+02681+02481101421ADDAA106000091GF102991021011012501001001KA1240M+03121MA1999999101351MD1999999+0351REMSYN088AAXX  09004 83096 32695 20906 10268 20248 30135 40142 82100 333 10312 29080 55110 58035;EQDQ01  00002PRCP06
0186830960999992003010912004-10920-037050FM-12+000699999V0200901N003112200019N0020001N1+02891+02391101591ADDAA106000091GF104991041011012501001001KA1240N+02411MA1999999101521MD1999999+0171REMSYN076AAXX  09124 83096 32695 40906 10289 20239 30152 40159 84100 333 20241 58017;EQDQ01  00002PRCP06
0167830960999992003010918004-10920-037050FM-12+000699999V0200901N004612200019N0020001N1+02971+02451101461ADDAA106000091GF103991031011012501001001MA1999999101391MD1999999+0251REMSYN070AAXX  09184 83096 32695 30909 10297 20245 30139 40146 83100 333 58025;EQDQ01  00002PRCP06
0198830960999992003011000004-10920-037050FM-12+000699999V0200901N003112200019N0020001N1+02711+02431101581ADDAA106000091GF101991011051012501001001KA1240M+03061MA1999999101511MD1999999+0161REMSYN088AAXX  10004 83096 32695 10906 10271 20243 30151 40158 81500 333 10306 29079 55110 58016;EQDQ01  00002PRCP06
0186830960999992003011012004-10920-037050FM-12+000699999V0200901N004112200019N0020001N1+02961+02331101631ADDAA106000091GF101991011011012501001001KA1240N+02411MA1999999101561MD1999999+0041REMSYN076AAXX  10124 83096 32695 10908 10296 20233 30156 40163 81100 333 20241 58004;EQDQ01  00002PRCP06
0167830960999992003011018004-10920-037050FM-12+000699999V0200901N005112200019N0020001N1+02941+02381101301ADDAA106000091GF101991011011012501001001MA1999999101231MD1999999-0161REMSYN070AAXX  10184 83096 32695 10910 10294 20238 30123 40130 81100 333 59016;EQDQ01  00002PRCP06
0198830960999992003011100004-10920-037050FM-12+000699999V0200901N004112200019N0020001N1+02711+02431101321ADDAA106000091GF101991011011012501001001KA1240M+03071MA1999999101251MD1999999-0261REMSYN088AAXX  11004 83096 32695 10908 10271 20243 30125 40132 81100 333 10307 29077 55109 59026;EQDQ01  00002PRCP06
0186830960999992003011112004-10920-037050FM-12+000699999V0200901N005112200019N0020001N1+02911+02291101541ADDAA106000091GF101991011011012501001001KA1240N+02381MA1999999101471MD1999999-0091REMSYN076AAXX  11124 83096 32695 10910 10291 20229 30147 40154 81100 333 20238 59009;EQDQ01  00002PRCP06
0167830960999992003011118004-10920-037050FM-12+000699999V0200901N005112200019N0020001N1+02941+02361101231ADDAA106000091GF101991011011012501001001MA1999999101161MD1999999-0071REMSYN070AAXX  11184 83096 32695 10910 10294 20236 30116 40123 81100 333 59007;EQDQ01  00002PRCP06
0198830960999992003011200004-10920-037050FM-12+000699999V0200901N005112200019N0020001N1+02691+02431101231ADDAA106000091GF101991011011012501001001KA1240M+03081MA1999999101161MD1999999-0091REMSYN088AAXX  12004 83096 32695 10910 10269 20243 30116 40123 81100 333 10308 29077 55110 59009;EQDQ01  00002PRCP06
0186830960999992003011212004-10920-037050FM-12+000699999V0200901N005112200019N0020001N1+02931+02361101401ADDAA106000091GF101991011011012501001001KA1240N+02351MA1999999101331MD1999999-0141REMSYN076AAXX  12124 83096 32695 10910 10293 20236 30133 40140 81100 333 20235 59014;EQDQ01  00002PRCP06
0167830960999992003011218004-10920-037050FM-12+000699999V0200901N005112200019N0020001N1+02921+02361101451ADDAA106000091GF101991011011012501001001MA1999999101381MD1999999+0221REMSYN070AAXX  12184 83096 32695 10910 10292 20236 30138 40145 81100 333 58022;EQDQ01  00002PRCP06
0198830960999992003011300004-10920-037050FM-12+000699999V0200901N005112200019N0020001N1+02711+02431101081ADDAA106000091GF101991011011012501001001KA1240M+03071MA1999999101011MD1999999-0151REMSYN088AAXX  13004 83096 32695 10910 10271 20243 30101 40108 81100 333 10307 29078 55108 59015;EQDQ01  00002PRCP06
0186830960999992003011312004-10920-037050FM-12+000699999V0200901N003112200019N0020001N1+02931+02221101271ADDAA106000091GF102991021011012501001001KA1240N+02331MA1999999101201MD1999999-0131REMSYN076AAXX  13124 83096 32695 20906 10293 20222 30120 40127 82100 333 20233 59013;EQDQ01  00002PRCP06
0167830960999992003011318004-10920-037050FM-12+000699999V0200901N005112200019N0020001N1+02931+02361101101ADDAA106000091GF101991011011012501001001MA1999999101031MD1999999-0351REMSYN070AAXX  13184 83096 32695 10910 10293 20236 30103 40110 81100 333 59035;EQDQ01  00002PRCP06
0198830960999992003011400004-10920-037050FM-12+000699999V0200901N005112200019N0020001N1+02711+02371101071ADDAA106000091GF102991021051012501001001KA1240M+03101MA1999999101001MD1999999-0011REMSYN088AAXX  14004 83096 32695 20910 10271 20237 30100 40107 82500 333 10310 29076 55108 59001;EQDQ01  00002PRCP06
0186830960999992003011412004-10920-037050FM-12+000699999V0200901N005112200019N0020001N1+03011+02181101481ADDAA106000091GF101991011011012501001001KA1240N+02371MA1999999101411MD1999999+0211REMSYN076AAXX  14124 83096 32695 10910 10301 20218 30141 40148 81100 333 20237 58021;EQDQ01  00002PRCP06
0167830960999992003011418004-10920-037050FM-12+000699999V0200901N005112200019N0020001N1+02991+02241101111ADDAA106000091GF101991011011012501001001MA1999999101041MD1999999+0011REMSYN070AAXX  14184 83096 32695 10910 10299 20224 30104 40111 81100 333 58001;EQDQ01  00002PRCP06
0198830960999992003011500004-10920-037050FM-12+000699999V0200901N005112200019N0020001N1+02691+02391101281ADDAA106000091GF101991011011012501001001KA1240M+03061MA1999999101211MD1999999+0211REMSYN088AAXX  15004 83096 32695 10910 10269 20239 30121 40128 81100 333 10306 29073 55105 58021;EQDQ01  00002PRCP06
0186830960999992003011512004-10920-037050FM-12+000699999V0200901N005112200019N0020001N1+02911+02201101471ADDAA106000091GF103991031011012501001001KA1240N+02451MA1999999101401MD1999999-0011REMSYN076AAXX  15124 83096 32695 30910 10291 20220 30140 40147 83100 333 20245 59001;EQDQ01  00002PRCP06
0167830960999992003011518004-10920-037050FM-12+000699999V0200901N005112200019N0020001N1+02941+02311101341ADDAA106000091GF102991021011012501001001MA1999999101271MD1999999+0231REMSYN070AAXX  15184 83096 32695 20910 10294 20231 30127 40134 82100 333 58023;EQDQ01  00002PRCP06
0198830960999992003011600004-10920-037050FM-12+000699999V0200901N005112200019N0020001N1+02671+02331101371ADDAA106000091GF102991021011012501001001KA1240M+03121MA1999999101301MD1999999+0091REMSYN088AAXX  16004 83096 32695 20910 10267 20233 30130 40137 82100 333 10312 29075 55097 58009;EQDQ01  00002PRCP06
0186830960999992003011612004-10920-037050FM-12+000699999V0200901N005112200019N0020001N1+02911+02341101611ADDAA106000091GF101991011011012501001001KA1240N+02411MA1999999101541MD1999999+0141REMSYN076AAXX  16124 83096 32695 10910 10291 20234 30154 40161 81100 333 20241 58014;EQDQ01  00002PRCP06
0167830960999992003011618004-10920-037050FM-12+000699999V0200901N005112200019N0020001N1+02931+02341101341ADDAA106000091GF102991021011012501001001MA1999999101271MD1999999+0001REMSYN070AAXX  16184 83096 32695 20910 10293 20234 30127 40134 82100 333 58000;EQDQ01  00002PRCP06
0198830960999992003011700004-10920-037050FM-12+000699999V0200901N003112200019N0020001N1+02661+02371101321ADDAA106000091GF101991011011012501001001KA1240M+03041MA1999999101251MD1999999+0051REMSYN088AAXX  17004 83096 32695 10906 10266 20237 30125 40132 81100 333 10304 29077 55110 58005;EQDQ01  00002PRCP06
0186830960999992003011712004-10920-037050FM-12+000699999V0200901N003112200019N0020001N1+02891+02321101441ADDAA106000091GF101991011011012501001001KA1240N+02411MA1999999101371MD1999999-0171REMSYN076AAXX  17124 83096 32695 10906 10289 20232 30137 40144 81100 333 20241 59017;EQDQ01  00002PRCP06
0167830960999992003011718004-10920-037050FM-12+000699999V0200901N003112200019N0020001N1+02951+02471101221ADDAA106000091GF102991021011012501001001MA1999999101151MD1999999-0121REMSYN070AAXX  17184 83096 32695 20906 10295 20247 30115 40122 82100 333 59012;EQDQ01  00002PRCP06
0198830960999992003011800004-10920-037050FM-12+000699999V0200901N003612200019N0020001N1+02691+02331101371ADDAA106000091GF103991031051012501001001KA1240M+03061MA1999999101301MD1999999-0051REMSYN088AAXX  18004 83096 32695 30907 10269 20233 30130 40137 83500 333 10306 29077 55096 59005;EQDQ01  00002PRCP06
0186830960999992003011812004-10920-037050FM-12+000699999V0200901N003612200019N0020001N1+02851+02351101381ADDAA106000091GF102991021051012501001001KA1240N+02431MA1999999101311MD1999999-0061REMSYN076AAXX  18124 83096 32695 20907 10285 20235 30131 40138 82500 333 20243 59006;EQDQ01  00002PRCP06
0167830960999992003011818004-10920-037050FM-12+000699999V0200901N004112200019N0020001N1+02971+02351101281ADDAA106000091GF102991021011012501001001MA1999999101211MD1999999+0061REMSYN070AAXX  18184 83096 32695 20908 10297 20235 30121 40128 82100 333 58006;EQDQ01  00002PRCP06
0198830960999992003011900004-10920-037050FM-12+000699999V0200901N003612200019N0020001N1+02711+02411101371ADDAA106000091GF102991021051012501001001KA1240M+03101MA1999999101301MD1999999+0081REMSYN088AAXX  19004 83096 32695 20907 10271 20241 30130 40137 82500 333 10310 29078 55087 58008;EQDQ01  00002PRCP06
0186830960999992003011912004-10920-037050FM-12+000699999V0200901N002612200019N0020001N1+02911+02201101371ADDAA106000091GF102991021011012501001001KA1240N+02451MA1999999101301MD1999999-0011REMSYN076AAXX  19124 83096 32695 20905 10291 20220 30130 40137 82100 333 20245 59001;EQDQ01  00002PRCP06
0167830960999992003011918004-10920-037050FM-12+000699999V0200901N003112200019N0020001N1+02951+02311101201ADDAA106000091GF102991021011012501001001MA1999999101231MD1999999+0021REMSYN070AAXX  19184 83096 32695 20906 10295 20231 30123 40120 82100 333 58002;EQDQ01  00002PRCP06
0198830960999992003012000004-10920-037050FM-12+000699999V0200901N003112200019N0020001N1+02731+02451101391ADDAA106000091GF102991021011012501001001KA1240M+03121MA1999999101321MD1999999+0021REMSYN088AAXX  20004 83096 32695 20906 10273 20245 30132 40139 82100 333 10312 29076 55108 58002;EQDQ01  00002PRCP06
0186830960999992003012012004-10920-037050FM-12+000699999V0200901N003112200019N0020001N1+02921+02411101491ADDAA106000091GF101991011011012501001001KA1240N+02441MA1999999101421MD1999999+0121REMSYN076AAXX  20124 83096 32695 10906 10292 20241 30142 40149 81100 333 20244 58012;EQDQ01  00002PRCP06
0167830960999992003012018004-10920-037050FM-12+000699999V0200901N003112200019N0020001N1+02991+02441101191ADDAA106000091GF101991011011012501001001MA1999999101121MD1999999-0111REMSYN070AAXX  20184 83096 32695 10906 10299 20244 30112 40119 81100 333 59011;EQDQ01  00002PRCP06
0198830960999992003012100004-10920-037050FM-12+000699999V0200901N004112200019N0020001N1+02751+02461101201ADDAA106000091GF101991011011012501001001KA1240M+03101MA1999999101131MD1999999-0191REMSYN088AAXX  21004 83096 32695 10908 10275 20246 30113 40120 81100 333 10310 29078 55105 59019;EQDQ01  00002PRCP06
0186830960999992003012112004-10920-037050FM-12+000699999V0200901N003612200019N0020001N1+02891+02461101281ADDAA106000091GF102991021051012501001001KA1240N+02441MA1999999101211MD1999999-0211REMSYN076AAXX  21124 83096 32695 20907 10289 20246 30121 40128 82500 333 20244 59021;EQDQ01  00002PRCP06
0167830960999992003012118004-10920-037050FM-12+000699999V0200901N005112200019N0020001N1+02951+02431101141ADDAA106000091GF104991041011012501001001MA1999999101071MD1999999-0051REMSYN070AAXX  21184 83096 32695 40910 10295 20243 30107 40114 84100 333 59005;EQDQ01  00002PRCP06
0198830960999992003012200004-10920-037050FM-12+000699999V0200901N004112200019N0020001N1+02731+02451101211ADDAA106000091GF103991031011012501001001KA1240M+03041MA1999999101141MD1999999+0011REMSYN088AAXX  22004 83096 32695 30908 10273 20245 30114 40121 83100 333 10304 29080 55083 58001;EQDQ01  00002PRCP06
0186830960999992003012212004-10920-037050FM-12+000699999V0200901N004112200019N0020001N1+02961+02401101421ADDAA106000091GF101991011011012501001001KA1240N+02411MA1999999101351MD1999999+0141REMSYN076AAXX  22124 83096 32695 10908 10296 20240 30135 40142 81100 333 20241 58014;EQDQ01  00002PRCP06
0167830960999992003012218004-10920-037050FM-12+000699999V0200901N005112200019N0020001N1+02991+02441101251ADDAA106000091GF101991011011012501001001MA1999999101181MD1999999+0111REMSYN070AAXX  22184 83096 32695 10910 10299 20244 30118 40125 81100 333 58011;EQDQ01  00002PRCP06
0198830960999992003012300004-10920-037050FM-12+000699999V0200901N003112200019N0020001N1+02731+02381101311ADDAA106000091GF101991011011012501001001KA1240M+03121MA1999999101241MD1999999+0101REMSYN088AAXX  23004 83096 32695 10906 10273 20238 30124 40131 81100 333 10312 29077 55110 58010;EQDQ01  00002PRCP06
0190830960999992003012312004-10920-037050FM-12+000699999V0203601N002110075019N0010001N1+02471+02191101621ADDAY191061AY291061GF106991061051008001001001KA1240N+02391MA1999999101551MD1999999+0201MW1801REMSYN088AAXX  23124 83096 21594 63604 10247 20219 30155 40162 78099 86500 333 20239 58020 69994;
0148830960999992003012318004-10920-037050FM-12+000699999V0200901N003112200019N0020001N1+02951+02401101371ADDAA106000021GF103991031051012501001001MA1999999101301MD1999999+0121REMSYN070AAXX  23184 83096 32695 30906 10295 20240 30130 40137 83500 333 58012;
0198830960999992003012400004-10920-037050FM-12+000699999V0201401N002612200019N0020001N1+02751+02471101491ADDAA106000091GF102991021051012501001001KA1240M+03011MA1999999101421MD1999999+0181REMSYN088AAXX  24004 83096 32695 21405 10275 20247 30142 40149 82500 333 10301 29082 55041 58018;EQDQ01  00002PRCP06
0186830960999992003012412004-10920-037050FM-12+000699999V0200901N004112200019N0020001N1+02991+02321101591ADDAA106000091GF101991011011012501001001KA1240N+02411MA1999999101521MD1999999-0031REMSYN076AAXX  24124 83096 32695 10908 10299 20232 30152 40159 81100 333 20241 59003;EQDQ01  00002PRCP06
0167830960999992003012418004-10920-037050FM-12+000699999V0201401N003112200019N0020001N1+02991+02321101291ADDAA106000091GF101991011011012501001001MA1999999101221MD1999999-0081REMSYN070AAXX  24184 83096 32695 11406 10299 20232 30122 40129 81100 333 59008;EQDQ01  00002PRCP06
0198830960999992003012500004-10920-037050FM-12+000699999V0201401N002612200019N0020001N1+02771+02771101401ADDAA106000091GF101991011011012501001001KA1240M+03171MA1999999101331MD1999999-0091REMSYN088AAXX  25004 83096 32695 11405 10277 20277 30133 40140 81100 333 10317 29070 55099 59009;EQDQ01  00002PRCP06
0186830960999992003012512004-10920-037050FM-12+000699999V0201401N002612200019N0020001N1+02971+02301101431ADDAA106000091GF102991021011012501001001KA1240N+02431MA1999999101361MD1999999-0161REMSYN076AAXX  25124 83096 32695 21405 10297 20230 30136 40143 82100 333 20243 59016;EQDQ01  00002PRCP06
0167830960999992003012518004-10920-037050FM-12+000699999V0200901N004112200019N0020001N1+02991+02291101301ADDAA106000091GF102991021011012501001001MA1999999101231MD1999999+0011REMSYN070AAXX  25184 83096 32695 20908 10299 20229 30123 40130 82100 333 58001;EQDQ01  00002PRCP06
0198830960999992003012600004-10920-037050FM-12+000699999V0200901N003112200019N0020001N1+02711+02371101211ADDAA106000091GF101991011011012501001001KA1240M+03141MA1999999101141MD1999999-0191REMSYN088AAXX  26004 83096 32695 10906 10271 20237 30114 40121 81100 333 10314 29074 55110 59019;EQDQ01  00002PRCP06
0186830960999992003012612004-10920-037050FM-12+000699999V0200901N003112200019N0020001N1+02981+02201101321ADDAA106000091GF101991011011012501001001KA1240N+02411MA1999999101251MD1999999-0111REMSYN076AAXX  26124 83096 32695 10906 10298 20220 30125 40132 81100 333 20241 59011;EQDQ01  00002PRCP06
0167830960999992003012618004-10920-037050FM-12+000699999V0200901N004112200019N0020001N1+03011+02391101031ADDAA106000091GF101991011011012501001001MA1999999100961MD1999999+0271REMSYN070AAXX  26184 83096 32695 10908 10301 20239 30096 40103 81100 333 58027;EQDQ01  00002PRCP06
0198830960999992003012700004-10920-037050FM-12+000699999V0200901N003112200019N0020001N1+02771+02301101161ADDAA106000091GF101991011011012501001001KA1240M+03091MA1999999101091MD1999999-0051REMSYN088AAXX  27004 83096 32695 10906 10277 20230 30109 40116 81100 333 10309 29072 55110 59005;EQDQ01  00002PRCP06
0186830960999992003012712004-10920-037050FM-12+000699999V0200901N003112200019N0020001N1+02931+02241101251ADDAA106000091GF103991031011012501001001KA1240N+02391MA1999999101181MD1999999-0071REMSYN076AAXX  27124 83096 32695 30906 10293 20224 30118 40125 83100 333 20239 59007;EQDQ01  00002PRCP06
0167830960999992003012718004-10920-037050FM-12+000699999V0200901N004112200019N0020001N1+02941+02311101121ADDAA106000091GF103991031011012501001001MA1999999101051MD1999999+0091REMSYN070AAXX  27184 83096 32695 30908 10294 20231 30105 40112 83100 333 58009;EQDQ01  00002PRCP06
0198830960999992003012800004-10920-037050FM-12+000699999V0200901N005112200019N0020001N1+02771+02441101271ADDAA106000091GF102991021011012501001001KA1240M+03081MA1999999101201MD1999999+0111REMSYN088AAXX  28004 83096 32695 20910 10277 20244 30120 40127 82100 333 10308 29075 55095 58011;EQDQ01  00002PRCP06
0190830960999992003012812004-10920-037050FM-12+000699999V0200501N001510120019N0020001N1+02671+02451101421ADDAY161061AY261061GF105991051011012501001001KA1240N+02281MA1999999101351MD1999999+0171MW1211REMSYN088AAXX  28124 83096 21695 50503 10267 20245 30135 40142 72166 85100 333 20228 58017 60074;
0148830960999992003012818004-10920-037050FM-12+000699999V0200901N005112200019N0020001N1+02991+02371101161ADDAA106000021GF101991011011012501001001MA1999999101091MD1999999+0041REMSYN070AAXX  28184 83096 32695 10910 10299 20237 30109 40116 81100 333 58004;
0198830960999992003012900004-10920-037050FM-12+000699999V0200901N004112200019N0020001N1+02771+02461101421ADDAA106000091GF101991011011012501001001KA1240M+03101MA1999999101351MD1999999+0151REMSYN088AAXX  29004 83096 32695 10908 10277 20246 30135 40142 81100 333 10310 29080 55072 58015;EQDQ01  00002PRCP06
0186830960999992003012912004-10920-037050FM-12+000699999V0200901N003612200019N0020001N1+02931+02521101461ADDAA106000091GF103991031011012501001001KA1240N+02351MA1999999101391MD1999999+0041REMSYN076AAXX  29124 83096 32695 30907 10293 20252 30139 40146 83100 333 20235 58004;EQDQ01  00002PRCP06
0167830960999992003012918004-10920-037050FM-12+000699999V0200901N005112200019N0020001N1+03011+02441101141ADDAA106000091GF102991021011012501001001MA1999999101071MD1999999-0021REMSYN070AAXX  29184 83096 32695 20910 10301 20244 30107 40114 82100 333 59002;EQDQ01  00002PRCP06
0198830960999992003013000004-10920-037050FM-12+000699999V0200901N005112200019N0020001N1+02731+02451101271ADDAA106000091GF102991021051012501001001KA1240M+03101MA1999999101201MD1999999-0151REMSYN088AAXX  30004 83096 32695 20910 10273 20245 30120 40127 82500 333 10310 29080 55114 59015;EQDQ01  00002PRCP06
0186830960999992003013012004-10920-037050FM-12+000699999V0200901N003110120019N0020001N1+02951+02381101331ADDAA106000091GF106991061011012501001001KA1240N+02411MA1999999101261MD1999999-0131REMSYN076AAXX  30124 83096 32695 60906 10295 20238 30126 40133 86100 333 20241 59013;EQDQ01  00002PRCP06
0171830960999992003013018004-10920-037050FM-12+000699999V0200901N003110075019N0020001N1+02911+02341101141ADDAY161061AY261061GF106991061051008001001001MA1999999101071MD1999999+0001MW1601REMSYN082AAXX  30184 83096 21595 60906 10291 20234 30107 40114 76066 86500 333 58000 60021;
0202830960999992003013100004-10920-037050FM-12+000699999V0200901N003112200019N0020001N1+02731+02341101221ADDAY161061AY261061GF101991011051012501001001KA1240M+03021MA1999999101151MD1999999-0051MW1201REMSYN100AAXX  31004 83096 21695 10906 10273 20234 30115 40122 72066 81500 333 10302 29075 55070 59005 69981;
0162830960999992003013112004-10920-037050FM-12+000699999V0201401N002612200019N0020001N1+02931+02361101271ADDGF102991021051012501001001KA1240N+02431MA1999999101201MD1999999-0061REMSYN082AAXX  31124 83096 22695 21405 10293 20236 30120 40127 82500 333 20243 59006 60064;
0167830960999992003013118004-10920-037050FM-12+000699999V0201401N003112200019N0020001N1+02911+02321101141ADDAA106000091GF103991031051012501001001MA1999999101071MD1999999+0001REMSYN070AAXX  31184 83096 32695 31406 10291 20232 30107 40114 83500 333 58000;EQDQ01  00002PRCP06
0221830960999992003020100004-10920-037050FM-12+000699999V0201401N002612200019N0020001N1+02751+02321101311ADDAY161061AY261061GF104991999051012501001001KA1240M+03061MA1999999101241MD1999999+0091MW1201REMSYN100AAXX  01004 83096 21695 41405 10275 20232 30124 40131 72066 85500 333 10306 29075 55093 58009 69961;EQDQ01+000052SCOTLC
0190830960999992003020112004-10920-037050FM-12+000699999V0200901N004110075019N0040001N1+02921+02451101431ADDAY161061AY261061GF106991061011008001001001KA1240N+02411MA1999999101361MD1999999+0161MW1201REMSYN088AAXX  01124 83096 21596 60908 10292 20245 30136 40143 72066 86100 333 20241 58016 69964;
0148830960999992003020118004-10920-037050FM-12+000699999V0200901N003110120019N0020001N1+02831+02421101301ADDAA106000021GF106991061011012501001001MA1999999101231MD1999999+0161REMSYN070AAXX  01184 83096 32695 60906 10283 20242 30123 40130 86100 333 58016;
0198830960999992003020200004-10920-037050FM-12+000699999V0200901N003110120019N0020001N1+02711+02341101481ADDAA106000091GF106991061051012501001001KA1240M+03141MA1999999101411MD1999999+0171REMSYN088AAXX  02004 83096 32695 60906 10271 20234 30141 40148 86500 333 10314 29078 55037 58017;EQDQ01  00002PRCP06
0186830960999992003020212004-10920-037050FM-12+000699999V0200901N003612200019N0020001N1+02891+02321101561ADDAA106000091GF103991031051012501001001KA1240N+02371MA1999999101491MD1999999+0131REMSYN076AAXX  02124 83096 32695 30907 10289 20232 30149 40156 83500 333 20237 58013;EQDQ01  00002PRCP06
0167830960999992003020218004-10920-037050FM-12+000699999V0201401N003112200019N0020001N1+02991+02371101341ADDAA106000091GF103991031011012501001001MA1999999101271MD1999999+0041REMSYN070AAXX  02184 83096 32695 31406 10299 20237 30127 40134 83100 333 58004;EQDQ01  00002PRCP06
0214830960999992003020300004-10920-037050FM-12+000699999V0201401N003112200019N0020001N1+02771+02401101491ADDAA106000091GF104991999051012501001001KA1240M+03141MA1999999101421MD1999999+0011REMSYN088AAXX  03004 83096 32695 41406 10277 20240 30142 40149 87500 333 10314 29076 55064 58001;EQDQ01+000072SCOTLCQ02  00002PRCP06
0186830960999992003020312004-10920-037050FM-12+000699999V0200901N001510120019N0020001N1+02531+02291101601ADDAA106000091GF107991071051012501001001KA1240N+02521MA1999999101531MD1999999+0041REMSYN076AAXX  03124 83096 32695 70903 10253 20229 30153 40160 87500 333 20252 58004;EQDQ01  00002PRCP06
0167830960999992003020318004-10920-037050FM-12+000699999V0201401N003112200019N0020001N1+02911+02391101321ADDAA106000091GF102991021051012501001001MA1999999101251MD1999999-0021REMSYN070AAXX  03184 83096 32695 21406 10291 20239 30125 40132 82500 333 59002;EQDQ01  00002PRCP06
0198830960999992003020400004-10920-037050FM-12+000699999V0201801N001512200019N0020001N1+02751+02401101471ADDAA106000091GF102991021051012501001001KA1240M+03181MA1999999101401MD1999999-0021REMSYN088AAXX  04004 83096 32695 21803 10275 20240 30140 40147 82500 333 10318 29081 55084 59002;EQDQ01  00002PRCP06
0190830960999992003020412004-10920-037050FM-12+000699999V0200901N004110120019N0020001N1+02961+02491101431ADDAY161061AY261061GF105991051011012501001001KA1240N+02411MA1999999101361MD1999999-0171MW1211REMSYN088AAXX  04124 83096 21695 50908 10296 20249 30136 40143 72166 85100 333 20241 59017 60054;
0167830960999992003020418004-10920-037050FM-12+000699999V0201401N005110120019N0020001N1+03001+02321101261ADDAA106000021GF106991999011012501001001MA1999999101191MD1999999-0061REMSYN070AAXX  04184 83096 32695 61410 10300 20232 30119 40126 85100 333 59006;EQDQ01+000052SCOTLC
0198830960999992003020500004-10920-037050FM-12+000699999V0200901N003110120019N0020001N1+02751+02361101481ADDAA106000091GF105991051051012501001001KA1240M+03121MA1999999101411MD1999999+0011REMSYN088AAXX  05004 83096 32695 50906 10275 20236 30141 40148 85500 333 10312 29075 55106 58001;EQDQ01  00002PRCP06
0186830960999992003020512004-10920-037050FM-12+000699999V0201401N002612200019N0020001N1+02951+02311101451ADDAA106000091GF103991031011012501001001KA1240N+02431MA1999999101381MD1999999+0021REMSYN076AAXX  05124 83096 32695 31405 10295 20231 30138 40145 83100 333 20243 58002;EQDQ01  00002PRCP06
0171830960999992003020518004-10920-037050FM-12+000699999V0200901N004112200019N0020001N1+02841+02261101321ADDAY161061AY261061GF103991031051012501001001MA1999999101251MD1999999+0061MW1201REMSYN082AAXX  05184 83096 21695 30908 10284 20226 30125 40132 72066 83500 333 58006 69921;
0179830960999992003020600004-10920-037050FM-12+000699999V0200901N002612200019N0020001N1+02711+02151101371ADDAA106000021GF102991021051012501001001KA1240M+03081MA1999999101201MD1999999-0111REMSYN088AAXX  06004 83096 32695 20905 10271 20215 30120 40137 82500 333 10308 29071 55101 59011;
0186830960999992003020612004-10920-037050FM-12+000699999V0200901N002110120019N0020001N1+02891+02301101591ADDAA106000091GF107991071051012501001001KA1240N+02351MA1999999101521MD1999999+0141REMSYN076AAXX  06124 83096 32695 70904 10289 20230 30152 40159 87500 333 20235 58014;EQDQ01  00002PRCP06
0167830960999992003020618004-10920-037050FM-12+000699999V0200901N005112200019N0020001N1+03001+02461101361ADDAA106000091GF101991011051012501001001MA1999999101291MD1999999+0041REMSYN070AAXX  06184 83096 32695 10910 10300 20246 30129 40136 81500 333 58004;EQDQ01  00002PRCP06
0198830960999992003020700004-10920-037050FM-12+000699999V0200901N003112200019N0020001N1+02731+02341101461ADDAA106000091GF102991021011012501001001KA1240M+03171MA1999999101291MD1999999+0091REMSYN088AAXX  07004 83096 32695 20906 10273 20234 30129 40146 82100 333 10317 29076 55097 58009;EQDQ01  00002PRCP06
0167830960999992003020718004-10920-037050FM-12+000699999V0201401N003112200019N0020001N1+02991+02441101281ADDAA106000091GF102991021011012501001001MA1999999101211MD1999999-0081REMSYN070AAXX  07184 83096 32695 21406 10299 20244 30121 40128 82100 333 59008;EQDQ01  00002PRCP06
0198830960999992003020800004-10920-037050FM-12+000699999V0201401N003110120019N0020001N1+02791+02271101461ADDAA106000091GF105991051011012501001001KA1240M+03141MA1999999101391MD1999999+0001REMSYN088AAXX  08004 83096 32695 51406 10279 20227 30139 40146 85100 333 10314 29071 55105 58000;EQDQ01  00002PRCP06
0186830960999992003020812004-10920-037050FM-12+000699999V0201401N003112200019N0020001N1+02911+02341101521ADDAA106000091GF103991031011012501001001KA1240N+02431MA1999999101451MD1999999+0051REMSYN076AAXX  08124 83096 32695 31406 10291 20234 30145 40152 83100 333 20243 58005;EQDQ01  00002PRCP06
0198830960999992003020900004-10920-037050FM-12+000699999V0201401N003112200019N0020001N1+02771+02271101401ADDAA106000091GF101991011051012501001001KA1240M+03151MA1999999101331MD1999999-0061REMSYN088AAXX  09004 83096 32695 11406 10277 20227 30133 40140 81500 333 10315 29073 55116 59006;EQDQ01  00002PRCP06
0190830960999992003020912004-10920-037050FM-12+000699999V0200901N003112200019N0020001N1+02931+02261101421ADDAY161061AY261061GF101991011011012501001001KA1240N+02411MA1999999101351MD1999999-0101MW1201REMSYN088AAXX  09124 83096 21695 10906 10293 20226 30135 40142 72066 81100 333 20241 59010 69964;
0148830960999992003020918004-10920-037050FM-12+000699999V0201401N003112200019N0020001N1+02991+02321101181ADDAA106000021GF101991011011012501001001MA1999999101111MD1999999-0141REMSYN070AAXX  09184 83096 32695 11406 10299 20232 30111 40118 81100 333 59014;
0198830960999992003021000004-10920-037050FM-12+000699999V0201401N003112200019N0020001N1+02781+02341101261ADDAA106000091GF101991011011012501001001KA1240M+03121MA1999999101191MD1999999-0141REMSYN088AAXX  10004 83096 32695 11406 10278 20234 30119 40126 81100 333 10312 29072 55116 59014;EQDQ01  00002PRCP06
0190830960999992003021012004-10920-037050FM-12+000699999V0200901N001512200019N0020001N1+02631+02351101261ADDAY161061AY261061GF103991031051012501001001KA1240N+02431MA1999999101191MD1999999-0161MW1201REMSYN088AAXX  10124 83096 21695 30903 10263 20235 30119 40126 72066 83500 333 20243 59016 60024;
0148830960999992003021018004-10920-037050FM-12+000699999V0200901N003112200019N0020001N1+02891+02101101021ADDAA106000021GF104991041011012501001001MA1999999100951MD1999999-0161REMSYN070AAXX  10184 83096 32695 40906 10289 20210 30095 40102 84100 333 59016;
0198830960999992003021100004-10920-037050FM-12+000699999V0200901N001512200019N0020001N1+02731+02171101271ADDAA106000091GF102991021051012501001001KA1240M+03121MA1999999101201MD1999999+0011REMSYN088AAXX  11004 83096 32695 20903 10273 20217 30120 40127 82500 333 10312 29073 55042 58001;EQDQ01  00002PRCP06
0186830960999992003021112004-10920-037050FM-12+000699999V0200901N003112200019N0020001N1+02931+02341101361ADDAA106000091GF104991021051012501031011KA1240N+02431MA1999999101291MD1999999+0101REMSYN076AAXX  11124 83096 32695 40906 10293 20234 30129 40136 82531 333 20243 58010;EQDQ01  00002PRCP06
0167830960999992003021118004-10920-037050FM-12+000699999V0201801N002112200019N0020001N1+02961+02101101001ADDAA106000091GF102991021001012501001011MA1999999100931MD1999999-0021REMSYN070AAXX  11184 83096 32695 21804 10296 20210 30093 40100 82001 333 59002;EQDQ01  00002PRCP06
0198830960999992003021200004-10920-037050FM-12+000699999V0201401N002112200019N0020001N1+02721+02431101251ADDAA106000091GF101991011051012501001001KA1240M+03131MA1999999101181MD1999999-0021REMSYN088AAXX  12004 83096 32695 11404 10272 20243 30118 40125 81500 333 10313 29075 55115 59002;EQDQ01  00002PRCP06
0186830960999992003021212004-10920-037050FM-12+000699999V0200901N004112200019N0020001N1+02891+02411101321ADDAA106000091GF105991041011012501001011KA1240N+02421MA1999999101251MD1999999-0041REMSYN076AAXX  12124 83096 32695 50908 10289 20241 30125 40132 84101 333 20242 59004;EQDQ01  00002PRCP06
0167830960999992003021218004-10920-037050FM-12+000699999V0200901N004612200019N0020001N1+02931+02431101141ADDAA106000091GF105991041011012501001011MA1999999101071MD1999999+0141REMSYN070AAXX  12184 83096 32695 50909 10293 20243 30107 40114 84101 333 58014;EQDQ01  00002PRCP06
0198830960999992003021300004-10920-037050FM-12+000699999V0200901N005110120019N0020001N1+02761+02341101351ADDAA106000091GF105991051051012501001001KA1240M+03031MA1999999101281MD1999999+0101REMSYN088AAXX  13004 83096 32695 50910 10276 20234 30128 40135 85500 333 10303 29076 55064 58010;EQDQ01  00002PRCP06
0186830960999992003021312004-10920-037050FM-12+000699999V0200901N003112200019N0020001N1+02911+02321101511ADDAA106000091GF104991041011012501001001KA1240N+02451MA1999999101441MD1999999+0191REMSYN076AAXX  13124 83096 32695 40906 10291 20232 30144 40151 84100 333 20245 58019;EQDQ01  00002PRCP06
0167830960999992003021318004-10920-037050FM-12+000699999V0200901N003112200019N0020001N1+02991+02281101511ADDAA106000091GF103991031051012501001001MA1999999101441MD1999999+0121REMSYN070AAXX  13184 83096 32695 30906 10299 20228 30144 40151 83500 333 58012;EQDQ01  00002PRCP06
0198830960999992003021400004-10920-037050FM-12+000699999V0200901N003612200019N0020001N1+02791+02301101271ADDAA106000091GF103991031051012501001001KA1240M+03141MA1999999101201MD1999999-0081REMSYN088AAXX  14004 83096 32695 30907 10279 20230 30120 40127 83500 333 10314 29072 55049 59008;EQDQ01  00002PRCP06
0186830960999992003021412004-10920-037050FM-12+000699999V0200501N001510450019N0020001N1+02811+02131101401ADDAA106000091GF107991031051012501031011KA1240N+02471MA1999999101331MD1999999-0111REMSYN076AAXX  14124 83096 32695 70503 10281 20213 30133 40140 83531 333 20247 59011;EQDQ01  00002PRCP06
0167830960999992003021418004-10920-037050FM-12+000699999V0200901N003112200019N0020001N1+02971+02231101131ADDAA106000091GF102991021011012501001001MA1999999101061MD1999999+0111REMSYN070AAXX  14184 83096 32695 20906 10297 20223 30106 40113 82100 333 58011;EQDQ01  00002PRCP06
0208830960999992003021500004-10920-037050FM-12+000699999V0200901N003112200019N0020001N1+02671+02201101281ADDAA106000091GA1001+999999999GF100991001001999999001001KA1240M+03061MA1999999101211MD1999999+0011REMSYN082AAXX  15004 83096 32695 00906 10267 20220 30121 40128 333 10306 29071 55051 58001;EQDQ01  00002PRCP06
0207830960999992003021512004-10920-037050FM-12+000699999V0200901N003612200019N0020001N1+02971+02261101301ADDAA124000291AY161061AY261061GF101991011051012501001001KA1240N+02631MA1999999101231MD1999999-0101MW1201REMSYN094AAXX  15124 83096 21695 10907 10297 20226 30123 40130 72066 81500 333 20263 59010 69924 10002;
0148830960999992003021518004-10920-037050FM-12+000699999V0200901N003112200019N0020001N1+02991+02271101021ADDAA106000021GF102991011051012501001011MA1999999100951MD1999999-0111REMSYN070AAXX  15184 83096 32695 20906 10299 20227 30095 40102 81501 333 59011;
0186830960999992003021612004-10920-037050FM-12+000699999V0200901N003112200019N0020001N1+02931+02291101271ADDAA106000091GF102991011051012501001011KA1240N+02611MA1999999101201MD1999999-0031REMSYN076AAXX  16124 83096 32695 20906 10293 20229 30120 40127 81501 333 20261 59003;EQDQ01  00002PRCP06
0167830960999992003021618004-10920-037050FM-12+000699999V0201801N002112200019N0020001N1+02961+02231101051ADDAA106000091GF101991011011012501001001MA1999999100981MD1999999+0031REMSYN070AAXX  16184 83096 32695 11804 10296 20223 30098 40105 81100 333 58003;EQDQ01  00002PRCP06
0186830960999992003021712004-10920-037050FM-12+000699999V0200901N002612200019N0020001N1+02991+02201101341ADDAA106000091GF103991031011012501001001KA1240N+02631MA1999999101271MD1999999+0071REMSYN076AAXX  17124 83096 32695 30905 10299 20220 30127 40134 83100 333 20263 58007;EQDQ01  00002PRCP06
0171830960999992003021718004-10920-037050FM-12+000699999V0200901N003612200019N0020001N1+02991+02321101091ADDAY161061AY261061GF101991011011012501001001MA1999999101021MD1999999+0041MW1211REMSYN082AAXX  17184 83096 21695 10907 10299 20232 30102 40109 72166 81100 333 58004 60021;
0179830960999992003021800004-10920-037050FM-12+000699999V0200901N005112200019N0020001N1+02781+02361101301ADDAA106000021GF104991041051012501001001KA1240M+03161MA1999999101231MD1999999+0141REMSYN088AAXX  18004 83096 32695 40910 10278 20236 30123 40130 84500 333 10316 29072 55104 58014;
0186830960999992003021812004-10920-037050FM-12+000699999V0200901N003112200019N0200001N1+02971+02331101411ADDAA106000091GF102991021011008001001001KA1240N+02511MA1999999101341MD1999999+0071REMSYN076AAXX  18124 83096 32598 20906 10297 20233 30134 40141 82100 333 20251 58007;EQDQ01  00002PRCP06
0167830960999992003021818004-10920-037050FM-12+000699999V0200901N004612200019N0020001N1+02961+02261101131ADDAA106000091GF106991041011012501001011MA1999999101061MD1999999+0041REMSYN070AAXX  18184 83096 32695 60909 10296 20226 30106 40113 84101 333 58004;EQDQ01  00002PRCP06
0198830960999992003021900004-10920-037050FM-12+000699999V0200901N004610120019N0020001N1+02781+02421101371ADDAA106000091GF105991051051012501001001KA1240M+03101MA1999999101301MD1999999+0071REMSYN088AAXX  19004 83096 32695 50909 10278 20242 30130 40137 85500 333 10310 29074 55100 58007;EQDQ01  00002PRCP06
0190830960999992003021912004-10920-037050FM-12+000699999V0200901N004610450019N0020001N1+02891+02501101451ADDAY161061AY261061GF106991041051012501031001KA1240N+02611MA1999999101381MD1999999+0041MW1211REMSYN088AAXX  19124 83096 21695 60909 10289 20250 30138 40145 72166 84530 333 20261 58004 60044;
0148830960999992003021918004-10920-037050FM-12+000699999V0200901N004610120019N0020001N1+03011+02491101181ADDAA106000021GF107991051051012501031001MA1999999101111MD1999999+0051REMSYN070AAXX  19184 83096 32695 70909 10301 20249 30111 40118 85530 333 58005;
0162830960999992003022012004-10920-037050FM-12+000699999V0200901N004110120019N0020001N1+02951+02401101391ADDGF107991061051012501031001KA1240N+02671MA1999999101221MD1999999-0061REMSYN082AAXX  20124 83096 22695 70908 10295 20240 30122 40139 86530 333 20267 59006 69924;
0167830960999992003022018004-10920-037050FM-12+000699999V0200901N003610120019N0020001N1+02931+02271101361ADDAA106000091GF105991051051012501001001MA1999999101291MD1999999+0181REMSYN070AAXX  20184 83096 32695 50907 10293 20227 30129 40136 85500 333 58018;EQDQ01  00002PRCP06
0198830960999992003022100004-10920-037050FM-12+000699999V0201801N001512200019N0020001N1+02751+02261101261ADDAA106000091GF104991041051012501001001KA1240M+03101MA1999999101191MD1999999-0091REMSYN088AAXX  21004 83096 32695 41803 10275 20226 30119 40126 84500 333 10310 29073 55023 59009;EQDQ01  00002PRCP06
0190830960999992003022112004-10920-037050FM-12+000699999V0201401N002112200019N0020001N1+02871+02211101361ADDAY161061AY261061GF102991021011012501001001KA1240N+02391MA1999999101291MD1999999-0031MW1211REMSYN088AAXX  21124 83096 21695 21404 10287 20221 30129 40136 72166 82100 333 20239 59003 60024;
0148830960999992003022118004-10920-037050FM-12+000699999V0201401N002612200019N0020001N1+02891+02341101231ADDAA106000021GF106991041011012501001011MA1999999101161MD1999999-0131REMSYN070AAXX  21184 83096 32695 61405 10289 20234 30116 40123 84101 333 59013;
0202830960999992003022200004-10920-037050FM-12+000699999V0200901N000510120019N0020001N1+02631+02361101281ADDAY161061AY261061GF105991051051012501001001KA1240M+03041MA1999999101211MD1999999+0021MW1201REMSYN100AAXX  22004 83096 21695 50901 10263 20236 30121 40128 72066 85500 333 10304 29078 55053 58002 69941;
0190830960999992003022212004-10920-037050FM-12+000699999V0200901N002610120019N0020001N1+02851+02441101441ADDAY161061AY261061GF105991051051012501001001KA1240N+02241MA1999999101371MD1999999+0081MW1211REMSYN088AAXX  22124 83096 21695 50905 10285 20244 30137 40144 72166 85500 333 20224 58008 60034;
0171830960999992003022218004-10920-037050FM-12+000699999V0200901N003612200019N0020001N1+02981+02331101251ADDAY161061AY261061GF102991021011012501001001MA1999999101181MD1999999+0021MW1211REMSYN082AAXX  22184 83096 21695 20907 10298 20233 30118 40125 72166 82100 333 58002 60011;
0179830960999992003022300004-10920-037050FM-12+000699999V0200901N002612200019N0020001N1+02811+02271101521ADDAA106000021GF102991021051012501001001KA1240M+03121MA1999999101451MD1999999+0241REMSYN088AAXX  23004 83096 32695 20905 10281 20227 30145 40152 82500 333 10312 29073 55099 58024;
0198830960999992003022400004-10920-037050FM-12+000699999V0201401N002112200019N0020001N1+02761+02401101491ADDAA106000091GF104991041051012501001001KA1240M+03161MA1999999101421MD1999999-0031REMSYN088AAXX  24004 83096 32695 41404 10276 20240 30142 40149 84500 333 10316 29074 55097 59003;EQDQ01  00002PRCP06
0171830960999992003022418004-10920-037050FM-12+000699999V0201401N001510075019N0020001N1+02821+02271101291ADDAY161061AY261061GF107991061051008001031001MA1999999101221MD1999999-0071MW1211REMSYN082AAXX  24184 83096 21595 71403 10282 20227 30122 40129 72166 86530 333 59007 69941;
0179830960999992003022500004-10920-037050FM-12+000699999V0201801N000512200019N0020001N1+02671+02371101491ADDAA106000021GF102991021051012501001001KA1240M+02951MA1999999101421MD1999999+0001REMSYN088AAXX  25004 83096 32695 21801 10267 20237 30142 40149 82500 333 10295 29081 55006 58000;
0190830960999992003022512004-10920-037050FM-12+000699999V0201801N001510075019N0010001N1+02431+02321101441ADDAY161061AY261061GF106991061051008001001001KA1240N+02351MA1999999101371MD1999999-0241MW1611REMSYN088AAXX  25124 83096 21594 61803 10243 20232 30137 40144 76166 86500 333 20235 59024 60264;
0148830960999992003022518004-10920-037050FM-12+000699999V0201401N001512200019N0020001N1+02811+02461101151ADDAA106000021GF104991041011012501001011MA1999999101081MD1999999-0141REMSYN070AAXX  25184 83096 32695 41403 10281 20246 30108 40115 84101 333 59014;
0198830960999992003022600004-10920-037050FM-12+000699999V0200901N003112200019N0020001N1+02751+02281101351ADDAA106000091GF103991031051012501001001KA1240M+03041MA1999999101281MD1999999-0141REMSYN088AAXX  26004 83096 32695 30906 10275 20228 30128 40135 83500 333 10304 29081 55035 59014;EQDQ01  00002PRCP06
0190830960999992003022612004-10920-037050FM-12+000699999V0200901N002612200019N0020001N1+02871+02211101381ADDAY161061AY261061GF103991031011012501001001KA1240N+02301MA1999999101311MD1999999-0061MW1211REMSYN088AAXX  26124 83096 21695 30905 10287 20221 30131 40138 72166 83100 333 20230 59006 60084;
0148830960999992003022618004-10920-037050FM-12+000699999V0200901N003112200019N0020001N1+02941+02111101121ADDAA106000021GF101991011011012501001001MA1999999101051MD1999999-0031REMSYN070AAXX  26184 83096 32695 10906 10294 20211 30105 40112 81100 333 59003;
0198830960999992003022700004-10920-037050FM-12+000699999V0201401N003612200019N0020001N1+02771+02111101441ADDAA106000091GF101991011051012501001001KA1240M+03061MA1999999101371MD1999999+0071REMSYN088AAXX  27004 83096 32695 11407 10277 20211 30137 40144 81500 333 10306 29066 55117 58007;EQDQ01  00002PRCP06
0186830960999992003022712004-10920-037050FM-12+000699999V0200501N003610450019N0020001N1+02811+02311101321ADDAA106000091GF107991031051012501031011KA1240N+02481MA1999999101251MD1999999-0061REMSYN076AAXX  27124 83096 32695 70507 10281 20231 30125 40132 83531 333 20248 59006;EQDQ01  00002PRCP06
0167830960999992003022718004-10920-037050FM-12+000699999V0200901N003110450019N0200001N1+02971+02401101161ADDAA106000091GF106991031051012501031011MA1999999101091MD1999999+0041REMSYN070AAXX  27184 83096 32698 60906 10297 20240 30109 40116 83531 333 58004;EQDQ01  00002PRCP06
0198830960999992003022800004-10920-037050FM-12+000699999V0200901N004612200019N0020001N1+02751+02301101361ADDAA106000091GF101991011011012501001001KA1240M+03141MA1999999101291MD1999999-0081REMSYN088AAXX  28004 83096 32695 10909 10275 20230 30129 40136 81100 333 10314 29075 55077 59008;EQDQ01  00002PRCP06
0190830960999992003022812004-10920-037050FM-12+000699999V0200901N004612200019N0020001N1+02901+02391101501ADDAY161061AY261061GF104991021051012501031011KA1240N+02511MA1999999101431MD1999999+0181MW1211REMSYN088AAXX  28124 83096 21695 40909 10290 20239 30143 40150 72166 82531 333 20251 58018 60044;
0148830960999992003022818004-10920-037050FM-12+000699999V0201401N001510120019N0020001N1+02851+02311101221ADDAA106000021GF107991071051012501001001MA1999999101151MD1999999+0061REMSYN070AAXX  28184 83096 32695 71403 10285 20231 30115 40122 87500 333 58006;
0198830960999992003030100004-10920-037050FM-12+000699999V0200901N004612200019N0020001N1+02751+02321101371ADDAA106000091GF101991011011012501001001KA1240M+03091MA1999999101301MD1999999+0011REMSYN088AAXX  01004 83096 32695 10909 10275 20232 30130 40137 81100 333 10309 29045 55076 58001;EQDQ01  00002PRCP06
0186830960999992003030112004-10920-037050FM-12+000699999V0200901N003612200019N0020001N1+02971+02301101401ADDAA106000091GF103991021011012501001011KA1240N+02611MA1999999101331MD1999999-0101REMSYN076AAXX  01124 83096 32695 30907 10297 20230 30133 40140 82101 333 20261 59010;EQDQ01  00002PRCP06
0167830960999992003030118004-10920-037050FM-12+000699999V0200901N003612200019N0020001N1+02951+02101101141ADDAA106000091GF108991041011012501001011MA1999999101071MD1999999-0081REMSYN070AAXX  01184 83096 32695 80907 10295 20210 30107 40114 84101 333 59008;EQDQ01  00002PRCP06
0190830960999992003030212004-10920-037050FM-12+000699999V0200901N001512200019N0020001N1+02871+02371101341ADDAY161061AY261061GF103991021011012501001011KA1240N+02411MA1999999101271MD1999999-0061MW1211REMSYN088AAXX  02124 83096 21695 30903 10287 20237 30127 40134 72166 82101 333 20241 59006 60054;
0148830960999992003030218004-10920-037050FM-12+000699999V0200901N003112200019N0020001N1+02951+02261101051ADDAA106000021GF102991011011012501001011MA1999999100981MD1999999-0091REMSYN070AAXX  02184 83096 32695 20906 10295 20226 30098 40105 81101 333 59009;
0186830960999992003030312004-10920-037050FM-12+000699999V0200901N004110450019N0020001N1+02751+02261101301ADDAA106000091GF106991021051012501031011KA1240N+02411MA1999999101231MD1999999+0041REMSYN076AAXX  03124 83096 32695 60908 10275 20226 30123 40130 82531 333 20241 58004;EQDQ01  00002PRCP06
0167830960999992003030318004-10920-037050FM-12+000699999V0200901N003112200019N0020001N1+02961+02231101131ADDAA106000091GF103991011051012501031011MA1999999101061MD1999999+0181REMSYN070AAXX  03184 83096 32695 30906 10296 20223 30106 40113 81531 333 58018;EQDQ01  00002PRCP06
0198830960999992003030400004-10920-037050FM-12+000699999V0200901N003612200019N0020001N1+02731+02321101341ADDAA106000091GF101991011011012501001001KA1240M+03101MA1999999101271MD1999999+0161REMSYN088AAXX  04004 83096 32695 10907 10273 20232 30127 40134 81100 333 10310 29074 55100 58016;EQDQ01  00002PRCP06
0186830960999992003030412004-10920-037050FM-12+000699999V0200901N003112200019N0020001N1+02931+02221101461ADDAA106000091GF102991021021012501001001KA1240N+02431MA1999999101391MD1999999+0161REMSYN076AAXX  04124 83096 32695 20906 10293 20222 30139 40146 82200 333 20243 58016;EQDQ01  00002PRCP06
0167830960999992003030418004-10920-037050FM-12+000699999V0201401N003112200019N0020001N1+02951+01221101121ADDAA106000091GF101991011011012501001001MA1999999101151MD1999999+0091REMSYN070AAXX  04184 83096 32695 11406 10295 20122 30115 40112 81100 333 58009;EQDQ01  00002PRCP06
0186830960999992003030512004-10920-037050FM-12+000699999V0200901N002112200019N0020001N1+02951+02161101351ADDAA106000091GF103991031011012501001001KA1240N+02441MA1999999101281MD1999999-0111REMSYN076AAXX  05124 83096 32695 30904 10295 20216 30128 40135 83100 333 20244 59011;EQDQ01  00002PRCP06
0167830960999992003030518004-10920-037050FM-12+000699999V0200901N002612200019N0020001N1+02951+02311101141ADDAA106000091GF104991041011012501001001MA1999999101071MD1999999-0081REMSYN070AAXX  05184 83096 32695 40905 10295 20231 30107 40114 84100 333 59008;EQDQ01  00002PRCP06
0198830960999992003030600004-10920-037050FM-12+000699999V0200901N003112200019N0020001N1+02751+02261101271ADDAA106000091GF104991041051012501001001KA1240M+03081MA1999999101201MD1999999-0111REMSYN088AAXX  06004 83096 32695 40906 10275 20226 30120 40127 84500 333 10308 29070 55074 59011;EQDQ01  00002PRCP06
0190830960999992003030612004-10920-037050FM-12+000699999V0200901N003112200019N0020001N1+02951+02311101271ADDAY161061AY261061GF103991031011012501001001KA1240N+02631MA1999999101201MD1999999-0081MW1201REMSYN088AAXX  06124 83096 21695 30906 10295 20231 30120 40127 72066 83100 333 20263 59008 69944;
0148830960999992003030618004-10920-037050FM-12+000699999V0200901N005112200019N0020001N1+03041+02281101101ADDAA106000021GF105991031011012501001011MA1999999101031MD1999999-0041REMSYN070AAXX  06184 83096 32695 50910 10304 20228 30103 40110 83101 333 59004;
0198830960999992003030700004-10920-037050FM-12+000699999V0200901N003112200019N0020001N1+02781+02361101251ADDAA106000091GF101991011051012501001001KA1240M+03101MA1999999101181MD1999999-0021REMSYN088AAXX  07004 83096 32695 10906 10278 20236 30118 40125 81500 333 10310 29072 55104 59002;EQDQ01  00002PRCP06
0186830960999992003030712004-10920-037050FM-12+000699999V0200901N003112200019N0020001N1+02981+02401101391ADDAA106000091GF102991021011012501001001KA1240N+02551MA1999999101321MD1999999+0121REMSYN076AAXX  07124 83096 32695 20906 10298 20240 30132 40139 82100 333 20255 58012;EQDQ01  00002PRCP06
0167830960999992003030718004-10920-037050FM-12+000699999V0200901N004610120019N0020001N1+02951+02381101201ADDAA106000091GF108991081051012501001001MA1999999101131MD1999999+0101REMSYN070AAXX  07184 83096 32695 80909 10295 20238 30113 40120 88500 333 58010;EQDQ01  00002PRCP06
0198830960999992003030800004-10920-037050FM-12+000699999V0200901N005112200019N0020001N1+02751+02321101321ADDAA106000091GF101991011051012501001001KA1240M+03111MA1999999101251MD1999999+0071REMSYN088AAXX  08004 83096 32695 10910 10275 20232 30125 40132 81500 333 10311 29074 55066 58007;EQDQ01  00002PRCP06
0186830960999992003030812004-10920-037050FM-12+000699999V0200901N003112200019N0020001N1+02931+02321101251ADDAA106000091GF102991021011012501001001KA1240N+02511MA1999999101281MD1999999-0041REMSYN076AAXX  08124 83096 32695 20906 10293 20232 30128 40125 82100 333 20251 59004;EQDQ01  00002PRCP06
0167830960999992003030818004-10920-037050FM-12+000699999V0200901N002612200019N0020001N1+02991+02251101241ADDAA106000091GF101991011011012501001001MA1999999101171MD1999999+0041REMSYN070AAXX  08184 83096 32695 10905 10299 20225 30117 40124 81100 333 58004;EQDQ01  00002PRCP06
0198830960999992003030900004-10920-037050FM-12+000699999V0200901N003112200019N0020001N1+02751+02281101351ADDAA106000091GF101991011051012501001001KA1240M+03101MA1999999101281MD1999999+0031REMSYN088AAXX  09004 83096 32695 10906 10275 20228 30128 40135 81500 333 10310 29071 55103 58003;EQDQ01  00002PRCP06
0186830960999992003030912004-10920-037050FM-12+000699999V0200901N003112200019N0020001N1+02951+02191101371ADDAA106000091GF102991021011012501001001KA1240N+02591MA1999999101301MD1999999+0021REMSYN076AAXX  09124 83096 32695 20906 10295 20219 30130 40137 82100 333 20259 58002;EQDQ01  00002PRCP06
0167830960999992003030918004-10920-037050FM-12+000699999V0201401N002612200019N0020001N1+02891+02321101221ADDAA106000091GF102991021011012501001001MA1999999101151MD1999999-0021REMSYN070AAXX  09184 83096 32695 21405 10289 20232 30115 40122 82100 333 59002;EQDQ01  00002PRCP06
0190830960999992003031012004-10920-037050FM-12+000699999V0200901N002612200019N0020001N1+02841+02441101351ADDAY161061AY261061GF103991031011012501001001KA1240N+02551MA1999999101281MD1999999-0021MW1211REMSYN088AAXX  10124 83096 21695 30905 10284 20244 30128 40135 72166 83100 333 20255 59002 60034;
0148830960999992003031018004-10920-037050FM-12+000699999V0200901N003110120019N0020001N1+02951+02401101121ADDAA106000021GF108991061011012501001011MA1999999101051MD1999999-0101REMSYN070AAXX  10184 83096 32695 80906 10295 20240 30105 40112 86101 333 59010;
0198830960999992003031100004-10920-037050FM-12+000699999V0200901N003110120019N0020001N1+02781+02381101361ADDAA106000091GF106991061051012501001001KA1240M+03021MA1999999101291MD1999999+0021REMSYN088AAXX  11004 83096 32695 60906 10278 20238 30129 40136 86500 333 10302 29077 55033 58002;EQDQ01  00002PRCP06
0186830960999992003031112004-10920-037050FM-12+000699999V0200901N003610450019N0020001N1+02951+02231101351ADDAA106000091GF106991021051012501031011KA1240N+02471MA1999999101281MD1999999+0001REMSYN076AAXX  11124 83096 32695 60907 10295 20223 30128 40135 82531 333 20247 58000;EQDQ01  00002PRCP06
0167830960999992003031118004-10920-037050FM-12+000699999V0200901N004110450019N0020001N1+02921+02341101161ADDAA106000091GF107991021051012501031011MA1999999101091MD1999999+0041REMSYN070AAXX  11184 83096 32695 70908 10292 20234 30109 40116 82531 333 58004;EQDQ01  00002PRCP06
0198830960999992003031200004-10920-037050FM-12+000699999V0201401N002112200019N0020001N1+02721+02411101251ADDAA106000091GF101991011011012501001001KA1240M+03131MA1999999101181MD1999999-0111REMSYN088AAXX  12004 83096 32695 11404 10272 20241 30118 40125 81100 333 10313 29072 55062 59011;EQDQ01  00002PRCP06
0190830960999992003031212004-10920-037050FM-12+000699999V0200901N001512200019N0020001N1+02901+02461101191ADDAY161061AY261061GF103991031011012501001001KA1240N+02511MA1999999101121MD1999999-0061MW1201REMSYN088AAXX  12124 83096 21695 30903 10290 20246 30112 40119 72066 83100 333 20251 59006 69974;
0148830960999992003031218004-10920-037050FM-12+000699999V0201401N002112200019N0020001N1+03011+02291101121ADDAA106000021GF104991041011012501001001MA1999999101051MD1999999-0041REMSYN070AAXX  12184 83096 32695 41404 10301 20229 30105 40112 84100 333 59004;
0198830960999992003031300004-10920-037050FM-12+000699999V0200901N003112200019N0020001N1+02771+02361101261ADDAA106000091GF101991011051012501001001KA1240M+03121MA1999999101191MD1999999+0011REMSYN088AAXX  13004 83096 32695 10906 10277 20236 30119 40126 81500 333 10312 29075 55087 58001;EQDQ01  00002PRCP06
0186830960999992003031312004-10920-037050FM-12+000699999V0200901N003112200019N0020001N1+02971+02451101141ADDAA106000091GF103991031011012501001001KA1240N+02481MA1999999101171MD1999999-0051REMSYN076AAXX  13124 83096 32695 30906 10297 20245 30117 40114 83100 333 20248 59005;EQDQ01  00002PRCP06
0167830960999992003031318004-10920-037050FM-12+000699999V0200901N005112200019N0020001N1+03001+02391101091ADDAA106000091GF101991011011012501001011MA1999999101021MD1999999-0031REMSYN070AAXX  13184 83096 32695 10910 10300 20239 30102 40109 81101 333 59003;EQDQ01  00002PRCP06
0198830960999992003031400004-10920-037050FM-12+000699999V0200901N005112200019N0020001N1+02791+02501101211ADDAA106000091GF102991021051012501001001KA1240M+03161MA1999999101141MD1999999-0051REMSYN088AAXX  14004 83096 32695 20910 10279 20250 30114 40121 82500 333 10316 29078 55098 59005;EQDQ01  00002PRCP06
0167830960999992003031418004-10920-037050FM-12+000699999V0201401N002112200019N0020001N1+03021+02411101101ADDAA106000091GF104991021051012501001011MA1999999101031MD1999999+0011REMSYN070AAXX  14184 83096 32695 41404 10302 20241 30103 40110 82501 333 58001;EQDQ01  00002PRCP06
0198830960999992003031500004-10920-037050FM-12+000699999V0200901N003112200019N0020001N1+02761+02541101251ADDAA106000091GF101991011011012501001001KA1240M+03171MA1999999101181MD1999999+0041REMSYN088AAXX  15004 83096 32695 10906 10276 20254 30118 40125 81100 333 10317 29080 55099 58004;EQDQ01  00002PRCP06
0190830960999992003031512004-10920-037050FM-12+000699999V0200901N003110120019N0020001N1+02831+02521101511ADDAY161061AY261061GF107991071051012501001001KA1240N+02571MA1999999101441MD1999999+0201MW1211REMSYN088AAXX  15124 83096 21695 70906 10283 20252 30144 40151 72166 87500 333 20257 58020 60024;
0148830960999992003031518004-10920-037050FM-12+000699999V0200901N003610450019N0020001N1+02911+02421101081ADDAA106000021GF106991041051012501031001MA1999999101011MD1999999-0021REMSYN070AAXX  15184 83096 32695 60907 10291 20242 30101 40108 84530 333 59002;
0198830960999992003031600004-10920-037050FM-12+000699999V0201801N002112200019N0020001N1+02771+02421101291ADDAA106000091GF101991011011012501001001KA1240M+03181MA1999999101221MD1999999+0041REMSYN088AAXX  16004 83096 32695 11804 10277 20242 30122 40129 81100 333 10318 29081 55004 58004;EQDQ01  00002PRCP06
0190830960999992003031612004-10920-037050FM-12+000699999V0201401N001510450019N0020001N1+02651+02291101421ADDAY161061AY261061GF106991031051012501031001KA1240N+02421MA1999999101351MD1999999-0091MW1211REMSYN088AAXX  16124 83096 21695 61403 10265 20229 30135 40142 72166 83530 333 20242 59009 60064;
0167830960999992003031618004-10920-037050FM-12+000699999V0201801N003112200019N0020001N1+02951+02331101131ADDAA106000021GF104991999031012501011011MA1999999101061MD1999999+0051REMSYN070AAXX  16184 83096 32695 41806 10295 20233 30106 40113 85311 333 58005;EQDQ01+000052SCOTLC
0198830960999992003031700004-10920-037050FM-12+000699999V0201801N003110450019N0020001N1+02671+02431101371ADDAA106000091GF106991021051012501031011KA1240M+03101MA1999999101301MD1999999+0081REMSYN088AAXX  17004 83096 32695 61806 10267 20243 30130 40137 82531 333 10310 29081 55090 58008;EQDQ01  00002PRCP06
0190830960999992003031712004-10920-037050FM-12+000699999V0203601N001512200019N0020001N1+02661+02351101341ADDAY161061AY261061GF104991041051012501001001KA1240N+02391MA1999999101271MD1999999-0081MW1211REMSYN088AAXX  17124 83096 21695 43603 10266 20235 30127 40134 72166 84500 333 20239 59008 60134;
0167830960999992003031718004-10920-037050FM-12+000699999V0200901N002119999999N0020001N1+02771+02251101031ADDAA106000021GF105991999051012501001001MA1999999100961MD1999999-0101REMSYN070AAXX  17184 83096 32695 50904 10277 20225 30096 40103 83500 333 59010;EQDQ01+000032SCOTLC
0198830960999992003031800004-10920-037050FM-12+000699999V0200901N002612200019N0020001N1+02691+02261101151ADDAA106000091GF106991041051012501001011KA1240M+02961MA1999999101081MD1999999-0221REMSYN088AAXX  18004 83096 32695 60905 10269 20226 30108 40115 84501 333 10296 29078 55046 59022;EQDQ01  00002PRCP06
0186830960999992003031812004-10920-037050FM-12+000699999V0200901N002112200019N0020001N1+02831+02401101311ADDAA106000091GF103991031011012501001001KA1240N+02391MA1999999101241MD1999999-0031REMSYN076AAXX  18124 83096 32695 30904 10283 20240 30124 40131 83100 333 20239 59003;EQDQ01  00002PRCP06
0167830960999992003031818004-10920-037050FM-12+000699999V0200901N003110120019N0020001N1+02881+02461101091ADDAA106000091GF108991081051012501001001MA1999999101021MD1999999+0061REMSYN070AAXX  18184 83096 32695 80906 10288 20246 30102 40109 88500 333 58006;EQDQ01  00002PRCP06
0221830960999992003032000004-10920-037050FM-12+000699999V0200901N000519999999N0020001N1+02551+02331101471ADDAY161061AY261061GF107991999051008001001001KA1240M+03031MA1999999101401MD1999999+0091MW1211REMSYN100AAXX  20004 83096 21595 70901 10255 20233 30140 40147 72166 83500 333 10303 29083 55094 58009 60021;EQDQ01+000032SCOTLC
0190830960999992003032012004-10920-037050FM-12+000699999V0200901N002610075019N0020001N1+02731+02281101491ADDAY161061AY261061GF106991061051008001001001KA1240N+02411MA1999999101421MD1999999-0061MW1211REMSYN088AAXX  20124 83096 21595 60905 10273 20228 30142 40149 72166 86500 333 20241 59006 60064;
0171830960999992003032018004-10920-037050FM-12+000699999V0200901N002112200019N0020001N1+02771+02281101291ADDAY161061AY261061GF103991031011012501001001MA1999999101221MD1999999-0091MW1201REMSYN082AAXX  20184 83096 21695 30904 10277 20228 30122 40129 72066 83100 333 59009 69921;
0179830960999992003032100004-10920-037050FM-12+000699999V0200901N002612200019N0020001N1+02751+02391101401ADDAA106000021GF105991031051012501001011KA1240M+02931MA1999999101331MD1999999-0071REMSYN088AAXX  21004 83096 32695 50905 10275 20239 30133 40140 83501 333 10293 29078 55039 59007;
0190830960999992003032112004-10920-037050FM-12+000699999V0200901N002112200019N0020001N1+02691+02281101411ADDAY161061AY261061GF103991031051012501001001KA1240N+02371MA1999999101341MD1999999-0081MW1211REMSYN088AAXX  21124 83096 21695 30904 10269 20228 30134 40141 72166 83500 333 20237 59008 60044;
0148830960999992003032118004-10920-037050FM-12+000699999V0200901N002610120019N0020001N1+02791+02361101031ADDAA106000021GF108991061051012501001011MA1999999100961MD1999999-0261REMSYN070AAXX  21184 83096 32695 80905 10279 20236 30096 40103 86501 333 59026;
0186830960999992003032812004-10920-037050FM-12+000699999V0201401N002112200019N0020001N1+02911+02321101451ADDAA106000091GF104991041011012501001001KA1240N+02531MA1999999101381MD1999999+0081REMSYN076AAXX  28124 83096 32695 41404 10291 20232 30138 40145 84100 333 20253 58008;EQDQ01  00002PRCP06
0167830960999992003032818004-10920-037050FM-12+000699999V0200901N002612200019N0020001N1+02911+02201101161ADDAA106000091GF104991041011012501001001MA1999999101091MD1999999+0011REMSYN070AAXX  28184 83096 32695 40905 10291 20220 30109 40116 84100 333 58001;EQDQ01  00002PRCP06
0198830960999992003032900004-10920-037050FM-12+000699999V0200901N002612200019N0020001N1+02731+02261101401ADDAA106000091GF102991021051012501001001KA1240M+03041MA1999999101331MD1999999+0021REMSYN088AAXX  29004 83096 32695 20905 10273 20226 30133 40140 82500 333 10304 29072 55053 58002;EQDQ01  00002PRCP06
0186830960999992003032912004-10920-037050FM-12+000699999V0201401N002112200019N0020001N1+02951+02191101411ADDAA106000091GF102991021011012501001001KA1240N+02301MA1999999101341MD1999999-0041REMSYN076AAXX  29124 83096 32695 21404 10295 20219 30134 40141 82100 333 20230 59004;EQDQ01  00002PRCP06
0167830960999992003032918004-10920-037050FM-12+000699999V0201401N002112200019N0020001N1+02981+02201101071ADDAA106000091GF101991011011012501001001MA1999999101001MD1999999-0091REMSYN070AAXX  29184 83096 32695 11404 10298 20220 30100 40107 81100 333 59009;EQDQ01  00002PRCP06
0198830960999992003033000004-10920-037050FM-12+000699999V0201401N002112200019N0020001N1+02771+02191101211ADDAA106000091GF102991021011012501001001KA1240M+03101MA1999999101141MD1999999-0191REMSYN088AAXX  30004 83096 32695 21404 10277 20219 30114 40121 82100 333 10310 29067 55108 59019;EQDQ01  00002PRCP06
0125830960999992003033012004-10920-037050FM-12+000699999V0202701N001519999999N0020001N1+02721+99999999999ADDGF105991999999008001999999REMSYN087AAXX  30124 83096 21595 52703 10272 0241 30119 40126 75066 85500 333 20249 59015 69924;
0167830960999992003033018004-10920-037050FM-12+000699999V0201801N003112200019N0020001N1+03091+02241101021ADDAA106000091GF103991031011012501001001MA1999999100951MD1999999-0051REMSYN070AAXX  30184 83096 32695 31806 10309 20224 30095 40102 83100 333 59005;EQDQ01  00002PRCP06
0198830960999992003033100004-10920-037050FM-12+000699999V0201401N002112200019N0020001N1+02771+02251101091ADDAA106000091GF102991021011012501001001KA1240M+03121MA1999999101021MD1999999-0121REMSYN088AAXX  31004 83096 32695 21404 10277 20225 30102 40109 82100 333 10312 29073 55058 59012;EQDQ01  00002PRCP06
0186830960999992003033112004-10920-037050FM-12+000699999V0201401N002112200019N0020001N1+02991+02281101241ADDAA106000091GF103991031011012501001001KA1240N+02531MA1999999101171MD1999999-0021REMSYN076AAXX  31124 83096 32695 31404 10299 20228 30117 40124 83100 333 20253 59002;EQDQ01  00002PRCP06
0167830960999992003033118004-10920-037050FM-12+000699999V0201401N002612200019N0020001N1+03011+02311101001ADDAA106000091GF101991011011012501001001MA1999999100931MD1999999-0021REMSYN070AAXX  31184 83096 32695 11405 10301 20231 30093 40100 81100 333 59002;EQDQ01  00002PRCP06
0198830960999992003040100004-10920-037050FM-12+000699999V0200901N002612200019N0020001N1+02811+02231101261ADDAA106000091GF102991021051012501001001KA1240M+03161MA1999999101191MD1999999+0171REMSYN088AAXX  01004 83096 32695 20905 10281 20223 30119 40126 82500 333 10316 29070 55106 58017;EQDQ01  00002PRCP06
0186830960999992003040112004-10920-037050FM-12+000699999V0200901N002112200019N0020001N1+02931+02361101391ADDAA106000091GF104991041051008001001001KA1240N+02451MA1999999101321MD1999999+0151REMSYN076AAXX  01124 83096 32595 40904 10293 20236 30132 40139 84500 333 20245 58015;EQDQ01  00002PRCP06
0167830960999992003040118004-10920-037050FM-12+000699999V0200901N002112200019N0020001N1+02981+02171101221ADDAA106000091GF104991041051012501001001MA1999999101151MD1999999+0221REMSYN070AAXX  01184 83096 32695 40904 10298 20217 30115 40122 84500 333 58022;EQDQ01  00002PRCP06
0198830960999992003040200004-10920-037050FM-12+000699999V0201401N001512200019N0020001N1+02811+02331101391ADDAA106000091GF104991041051012501001001KA1240M+03041MA1999999101321MD1999999+0131REMSYN088AAXX  02004 83096 32695 41403 10281 20233 30132 40139 84500 333 10304 29071 55028 58013;EQDQ01  00002PRCP06
0186830960999992003040212004-10920-037050FM-12+000699999V0200901N002112200019N0020001N1+02961+02351101471ADDAA106000091GF102991021051012501001001KA1240N+02371MA1999999101401MD1999999+0081REMSYN076AAXX  02124 83096 32695 20904 10296 20235 30140 40147 82500 333 20237 58008;EQDQ01  00002PRCP06
0167830960999992003040218004-10920-037050FM-12+000699999V0201401N001512200019N0020001N1+02991+02281101241ADDAA106000091GF102991011011012501001011MA1999999101171MD1999999+0021REMSYN070AAXX  02184 83096 32695 21403 10299 20228 30117 40124 81101 333 58002;EQDQ01  00002PRCP06
0198830960999992003040300004-10920-037050FM-12+000699999V0200901N002612200019N0020001N1+02791+02361101391ADDAA106000091GF102991021011012501001001KA1240M+03131MA1999999101321MD1999999+0001REMSYN088AAXX  03004 83096 32695 20905 10279 20236 30132 40139 82100 333 10313 29073 55096 58000;EQDQ01  00002PRCP06
0186830960999992003040312004-10920-037050FM-12+000699999V0200901N002112200019N0020001N1+03011+02291101381ADDAA106000091GF102991021011012501001001KA1240N+02491MA1999999101241MD1999999-0091REMSYN076AAXX  03124 83096 32695 20904 10301 20229 30124 40138 82100 333 20249 59009;EQDQ01  00002PRCP06
0167830960999992003040318004-10920-037050FM-12+000699999V0201401N001512200019N0020001N1+03031+02311101111ADDAA106000091GF102991021011012501001001MA1999999101041MD1999999-0131REMSYN070AAXX  03184 83096 32695 21403 10303 20231 30104 40111 82100 333 59013;EQDQ01  00002PRCP06
0198830960999992003040400004-10920-037050FM-12+000699999V0201401N001512200019N0020001N1+02811+02291101301ADDAA106000091GF103991031051012501001001KA1240M+03181MA1999999101231MD1999999-0091REMSYN088AAXX  04004 83096 32695 31403 10281 20229 30123 40130 83500 333 10318 29069 55108 59009;EQDQ01  00002PRCP06
0186830960999992003040412004-10920-037050FM-12+000699999V0200901N002112200019N0020001N1+03011+02191101231ADDAA106000091GF102991021011012501001001KA1240N+02331MA1999999101161MD1999999-0151REMSYN076AAXX  04124 83096 32695 20904 10301 20219 30116 40123 82100 333 20233 59015;EQDQ01  00002PRCP06
0167830960999992003040418004-10920-037050FM-12+000699999V0201401N002112200019N0020001N1+03011+02171101071ADDAA106000091GF102991021011012501001001MA1999999101001MD1999999-0041REMSYN070AAXX  04184 83096 32695 21404 10301 20217 30100 40107 82100 333 59004;EQDQ01  00002PRCP06
0198830960999992003040500004-10920-037050FM-12+000699999V0200901N002112200019N0020001N1+02821+02241101241ADDAA106000091GF103991031051012501001001KA1240M+03041MA1999999101171MD1999999-0061REMSYN088AAXX  05004 83096 32695 30904 10282 20224 30117 40124 83500 333 10304 29066 55107 59006;EQDQ01  00002PRCP06
0186830960999992003040512004-10920-037050FM-12+000699999V0200901N002112200019N0020001N1+02991+02231101341ADDAA106000091GF102991021011012501001001KA1240N+02381MA1999999101271MD1999999+0111REMSYN076AAXX  05124 83096 32695 20904 10299 20223 30127 40134 82100 333 20238 58011;EQDQ01  00002PRCP06
0167830960999992003040518004-10920-037050FM-12+000699999V0200901N002112200019N0020001N1+02991+02171101021ADDAA106000091GF101991011011012501001001MA1999999100951MD1999999-0051REMSYN070AAXX  05184 83096 32695 10904 10299 20217 30095 40102 81100 333 59005;EQDQ01  00002PRCP06
0198830960999992003040600004-10920-037050FM-12+000699999V0200901N002612200019N0020001N1+02771+02191101111ADDAA106000091GF101991011011012501001001KA1240M+03121MA1999999101041MD1999999-0131REMSYN088AAXX  06004 83096 32695 10905 10277 20219 30104 40111 81100 333 10312 29067 55109 59013;EQDQ01  00002PRCP06
0186830960999992003040612004-10920-037050FM-12+000699999V0200501N001512200019N0020001N1+02931+02171101191ADDAA106000091GF102991021011012501001001KA1240N+02371MA1999999101121MD1999999-0171REMSYN076AAXX  06124 83096 32695 20503 10293 20217 30112 40119 82100 333 20237 59017;EQDQ01  00002PRCP06
0167830960999992003040618004-10920-037050FM-12+000699999V0200901N002112200019N0020001N1+03011+02241100861ADDAA106000091GF101991011011012501001001MA1999999100791MD1999999-0161REMSYN070AAXX  06184 83096 32695 10904 10301 20224 30079 40086 81100 333 59016;EQDQ01  00002PRCP06
0198830960999992003040700004-10920-037050FM-12+000699999V0200901N003112200019N0020001N1+02791+02321100991ADDAA106000091GF101991011011012501001001KA1240M+03121MA1999999100921MD1999999-0121REMSYN088AAXX  07004 83096 32695 10906 10279 20232 30092 40099 81100 333 10312 29070 55109 59012;EQDQ01  00002PRCP06
0186830960999992003040712004-10920-037050FM-12+000699999V0200501N001512200019N0020001N1+02931+02291101131ADDAA106000091GF104991041051012501001001KA1240N+02471MA1999999101061MD1999999-0061REMSYN076AAXX  07124 83096 32695 40503 10293 20229 30106 40113 84500 333 20247 59006;EQDQ01  00002PRCP06
0167830960999992003040718004-10920-037050FM-12+000699999V0201401N002112200019N0020001N1+03051+02311100651ADDAA106000091GF101991011011012501001011MA1999999100581MD1999999-0211REMSYN070AAXX  07184 83096 32695 11404 10305 20231 30058 40065 81101 333 59021;EQDQ01  00002PRCP06
0198830960999992003040800004-10920-037050FM-12+000699999V0200901N004612200019N0020001N1+02791+02421100971ADDAA106000091GF101991011011012501001001KA1240M+03151MA1999999100901MD1999999-0021REMSYN088AAXX  08004 83096 32695 10909 10279 20242 30090 40097 81100 333 10315 29074 55102 59002;EQDQ01  00002PRCP06
0186830960999992003040812004-10920-037050FM-12+000699999V0200501N003112200019N0020001N1+03091+02191101131ADDAA106000091GF101991011011012501001001KA1240N+02531MA1999999101061MD1999999+0001REMSYN076AAXX  08124 83096 32695 10506 10309 20219 30106 40113 81100 333 20253 58000;EQDQ01  00002PRCP06
0167830960999992003040818004-10920-037050FM-12+000699999V0200901N005712200019N0020001N1+03001+02441100821ADDAA106000091GF102991011011012501001011MA1999999100751MD1999999+0171REMSYN070AAXX  08184 83096 32695 20911 10300 20244 30075 40082 81101 333 58017;EQDQ01  00002PRCP06
0198830960999992003040900004-10920-037050FM-12+000699999V0200901N005712200019N0020001N1+02841+02401101161ADDAA106000091GF102991021051012501001001KA1240M+03291MA1999999101091MD1999999+0191REMSYN088AAXX  09004 83096 32695 20911 10284 20240 30109 40116 82500 333 10329 29071 55101 58019;EQDQ01  00002PRCP06
0186830960999992003040912004-10920-037050FM-12+000699999V0200901N002612200019N0020001N1+02991+02151101341ADDAA106000091GF102991021011012501001001KA1240N+02441MA1999999101271MD1999999+0211REMSYN076AAXX  09124 83096 32695 20905 10299 20215 30127 40134 82100 333 20244 58021;EQDQ01  00002PRCP06
0167830960999992003040918004-10920-037050FM-12+000699999V0200901N004112200019N0020001N1+03031+02261101031ADDAA106000091GF101991011011012501001001MA1999999100961MD1999999+0211REMSYN070AAXX  09184 83096 32695 10908 10303 20226 30096 40103 81100 333 58021;EQDQ01  00002PRCP06
0198830960999992003041000004-10920-037050FM-12+000699999V0200901N004112200019N0020001N1+02831+02421101351ADDAA106000091GF102991021051012501001001KA1240M+03151MA1999999101281MD1999999+0191REMSYN088AAXX  10004 83096 32695 20908 10283 20242 30128 40135 82500 333 10315 29070 55106 58019;EQDQ01  00002PRCP06
0186830960999992003041012004-10920-037050FM-12+000699999V0200501N002112200019N0020001N1+02831+02291101491ADDAA106000091GF102991011011012501001011KA1240N+02421MA1999999101421MD1999999+0151REMSYN076AAXX  10124 83096 32695 20504 10283 20229 30142 40149 81101 333 20242 58015;EQDQ01  00002PRCP06
0167830960999992003041018004-10920-037050FM-12+000699999V0200901N004112200019N0020001N1+02931+02171101111ADDAA106000091GF101991011011012501001001MA1999999101041MD1999999+0081REMSYN070AAXX  10184 83096 32695 10908 10293 20217 30104 40111 81100 333 58008;EQDQ01  00002PRCP06
0198830960999992003041100004-10920-037050FM-12+000699999V0200901N003612200019N0020001N1+02751+02361101341ADDAA106000091GF102991021011012501001001KA1240M+03151MA1999999101271MD1999999-0011REMSYN088AAXX  11004 83096 32695 20907 10275 20236 30127 40134 82100 333 10315 29074 55102 59001;EQDQ01  00002PRCP06
0186830960999992003041112004-10920-037050FM-12+000699999V0200901N002612200019N0020001N1+02971+02261101441ADDAA106000091GF102991021011012501001001KA1240N+02431MA1999999101371MD1999999-0051REMSYN076AAXX  11124 83096 32695 20905 10297 20226 30137 40144 82100 333 20243 59005;EQDQ01  00002PRCP06
0167830960999992003041118004-10920-037050FM-12+000699999V0200901N004612200019N0020001N1+02971+02331101101ADDAA106000091GF102991021011012501001001MA1999999101031MD1999999-0011REMSYN070AAXX  11184 83096 32695 20909 10297 20233 30103 40110 82100 333 59001;EQDQ01  00002PRCP06
0198830960999992003041200004-10920-037050FM-12+000699999V0200901N003112200019N0020001N1+02801+02311101341ADDAA106000091GF101991011011012501001001KA1240M+03161MA1999999101271MD1999999+0001REMSYN088AAXX  12004 83096 32695 10906 10280 20231 30127 40134 81100 333 10316 29071 55101 58000;EQDQ01  00002PRCP06
0186830960999992003041212004-10920-037050FM-12+000699999V0200901N004112200019N0020001N1+03021+02311101481ADDAA106000091GF101991011011012501001001KA1240N+02411MA1999999101411MD1999999+0041REMSYN076AAXX  12124 83096 32695 10908 10302 20231 30141 40148 81100 333 20241 58004;EQDQ01  00002PRCP06
0167830960999992003041218004-10920-037050FM-12+000699999V0200901N005112200019N0020001N1+03031+02281101231ADDAA106000091GF101991011011012501001001MA1999999101161MD1999999+0131REMSYN070AAXX  12184 83096 32695 10910 10303 20228 30116 40123 81100 333 58013;EQDQ01  00002PRCP06
0198830960999992003041300004-10920-037050FM-12+000699999V0200901N003112200019N0020001N1+02811+02331101511ADDAA106000091GF102991021051012501001001KA1240M+03141MA1999999101441MD1999999+0171REMSYN088AAXX  13004 83096 32695 20906 10281 20233 30144 40151 82500 333 10314 29070 55104 58017;EQDQ01  00002PRCP06
0186830960999992003041312004-10920-037050FM-12+000699999V0200901N004112200019N0020001N1+03041+02261101611ADDAA106000091GF103991031011012501001001KA1240N+02471MA1999999101541MD1999999+0131REMSYN076AAXX  13124 83096 32695 30908 10304 20226 30154 40161 83100 333 20247 58013;EQDQ01  00002PRCP06
0167830960999992003041318004-10920-037050FM-12+000699999V0200901N004112200019N0020001N1+03011+02261101341ADDAA106000091GF101991011011012501001001MA1999999101271MD1999999+0011REMSYN070AAXX  13184 83096 32695 10908 10301 20226 30127 40134 81100 333 58001;EQDQ01  00002PRCP06
0198830960999992003041400004-10920-037050FM-12+000699999V0200901N003112200019N0020001N1+02821+02311101601ADDAA106000091GF101991011051012501001001KA1240M+03181MA1999999101531MD1999999+0091REMSYN088AAXX  14004 83096 32695 10906 10282 20231 30153 40160 81500 333 10318 29069 55107 58009;EQDQ01  00002PRCP06
0190830960999992003041412004-10920-037050FM-12+000699999V0200901N002612200019N0020001N1+02981+02331101641ADDAY161061AY261061GF103991031011012501001001KA1240N+02391MA1999999101571MD1999999+0031MW1201REMSYN088AAXX  14124 83096 21695 30905 10298 20233 30157 40164 72066 83100 333 20239 58003 69924;
0190830960999992003041512004-10920-037050FM-12+000699999V0200501N001012200019N0020001N1+02801+02401101601ADDAY161061AY261061GF104991041051012501001001KA1240N+02421MA1999999101531MD1999999-0041MW1201REMSYN088AAXX  15124 83096 21695 40502 10280 20240 30153 40160 72066 84500 333 20242 59004 60164;
0148830960999992003041518004-10920-037050FM-12+000699999V0200901N003612200019N0020001N1+02951+02261101141ADDAA106000021GF101991011011012501001001MA1999999101071MD1999999-0221REMSYN070AAXX  15184 83096 32695 10907 10295 20226 30107 40114 81100 333 59022;
0198830960999992003041600004-10920-037050FM-12+000699999V0201401N001512200019N0020001N1+02711+02281101371ADDAA106000091GF101991011011012501001001KA1240M+03091MA1999999101301MD1999999-0131REMSYN088AAXX  16004 83096 32695 11403 10271 20228 30130 40137 81100 333 10309 29076 55089 59013;EQDQ01  00002PRCP06
0186830960999992003041612004-10920-037050FM-12+000699999V0200901N001512200019N0020001N1+02941+02261101431ADDAA106000091GF102991021011012501001001KA1240N+02301MA1999999101361MD1999999-0171REMSYN076AAXX  16124 83096 32695 20903 10294 20226 30136 40143 82100 333 20230 59017;EQDQ01  00002PRCP06
0167830960999992003041618004-10920-037050FM-12+000699999V0201401N003112200019N0020001N1+02991+02171101071ADDAA106000091GF101991011011012501001001MA1999999101001MD1999999-0071REMSYN070AAXX  16184 83096 32695 11406 10299 20217 30100 40107 81100 333 59007;EQDQ01  00002PRCP06
0198830960999992003041700004-10920-037050FM-12+000699999V0201401N002612200019N0020001N1+02791+02231101351ADDAA106000091GF101991011051012501001001KA1240M+03101MA1999999101281MD1999999-0021REMSYN088AAXX  17004 83096 32695 11405 10279 20223 30128 40135 81500 333 10310 29068 55107 59002;EQDQ01  00002PRCP06
0184830960999992003041712004-10920-037050FM-12+000699999V0201801N001512200019N0020001N1+02911+02251101471ADDAA106000091GF102991021011012501001001KA1240N+02371MA1999999101401REMSYN088AAXX  17124 83096 32695 21803 10291 20225 30140 40147 82100 333 20237 29068 55107 59004;EQDQ01  00002PRCP06
0167830960999992003041718004-10920-037050FM-12+000699999V0201401N002112200019N0020001N1+03011+02191101161ADDAA106000091GF103991031011012501001001MA1999999101091MD1999999+0091REMSYN070AAXX  17184 83096 32695 31404 10301 20219 30109 40116 83100 333 58009;EQDQ01  00002PRCP06
0198830960999992003041800004-10920-037050FM-12+000699999V0201401N002610120019N0020001N1+02841+02241101401ADDAA106000091GF106991061051012501001001KA1240M+03121MA1999999101331MD1999999+0051REMSYN088AAXX  18004 83096 32695 61405 10284 20224 30133 40140 86500 333 10312 29068 55105 58005;EQDQ01  00002PRCP06
0184830960999992003041812004-10920-037050FM-12+000699999V0200901N002112200019N0020001N1+02951+02161101481ADDAA106000091GF103991021051012501001011KA1240N+02371MA1999999101411REMSYN088AAXX  18124 83096 32695 30904 10295 20216 30141 40148 82501 333 20237 29068 55107 58001;EQDQ01  00002PRCP06
0167830960999992003041818004-10920-037050FM-12+000699999V0201801N002110450019N0020001N1+02911+02271101211ADDAA106000091GF106991021051012501031011MA1999999101141MD1999999+0051REMSYN070AAXX  18184 83096 32695 61804 10291 20227 30114 40121 82531 333 58005;EQDQ01  00002PRCP06
0198830960999992003041900004-10920-037050FM-12+000699999V0201801N002110450019N0020001N1+02771+02281101381ADDAA106000091GF105991031051012501031001KA1240M+03131MA1999999101311MD1999999-0021REMSYN088AAXX  19004 83096 32695 51804 10277 20228 30131 40138 83530 333 10313 29070 55087 59002;EQDQ01  00002PRCP06
0186830960999992003041912004-10920-037050FM-12+000699999V0201801N002112200019N0020001N1+02871+02351101561ADDAA106000091GF104991041051012501001001KA1240N+02691MA1999999101491MD1999999+0081REMSYN076AAXX  19124 83096 32695 41804 10287 20235 30149 40156 84500 333 20269 58008;EQDQ01  00002PRCP06
0171830960999992003041918004-10920-037050FM-12+000699999V0201401N003112200019N0020001N1+02951+02241101231ADDAY161061AY261061GF102991021051012501001001MA1999999101161MD1999999+0021MW1201REMSYN082AAXX  19184 83096 21695 21406 10295 20224 30116 40123 72066 82500 333 58002 69921;
0179830960999992003042000004-10920-037050FM-12+000699999V0201401N001512200019N0020001N1+02751+02121101461ADDAA106000021GF101991011011012501001001KA1240M+03151MA1999999101391MD1999999+0081REMSYN088AAXX  20004 83096 32695 11403 10275 20212 30139 40146 81100 333 10315 29070 55105 58008;
0190830960999992003042012004-10920-037050FM-12+000699999V0203601N000510450019N0020001N1+02631+02521101461ADDAY161061AY261061GF106991041051012501031001KA1240N+02411MA1999999101391MD1999999-0101MW1201REMSYN088AAXX  20124 83096 21695 63601 10263 20252 30139 40146 72066 84530 333 20241 59010 60064;
0148830960999992003042018004-10920-037050FM-12+000699999V0201801N002612200019N0020001N1+02871+02231101161ADDAA106000021GF103991031051012501001001MA1999999101091MD1999999+0071REMSYN070AAXX  20184 83096 32695 31805 10287 20223 30109 40116 83500 333 58007;
0198830960999992003042100004-10920-037050FM-12+000699999V0200901N003612200019N0020001N1+02751+02381101311ADDAA106000091GF103991031051012501001001KA1240M+03121MA1999999101241MD1999999-0151REMSYN088AAXX  21004 83096 32695 30907 10275 20238 30124 40131 83500 333 10312 29081 55084 59015;EQDQ01  00002PRCP06
0186830960999992003042112004-10920-037050FM-12+000699999V0201401N003110450019N0020001N1+03011+02311101481ADDAA106000091GF105991031051012501011001KA1240N+02591MA1999999101411MD1999999+0021REMSYN076AAXX  21124 83096 32695 51406 10301 20231 30141 40148 83510 333 20259 58002;EQDQ01  00002PRCP06
0167830960999992003042118004-10920-037050FM-12+000699999V0201401N002612200019N0020001N1+03011+02191101241ADDAA106000091GF102991021011012501001001MA1999999101171MD1999999+0081REMSYN070AAXX  21184 83096 32695 21405 10301 20219 30117 40124 82100 333 58008;EQDQ01  00002PRCP06
0198830960999992003042200004-10920-037050FM-12+000699999V0201401N002612200019N0020001N1+02811+02221101391ADDAA106000091GF103991031051012501001001KA1240M+03151MA1999999101321MD1999999+0081REMSYN088AAXX  22004 83096 32695 31405 10281 20222 30132 40139 83500 333 10315 29062 55105 58008;EQDQ01  00002PRCP06
0186830960999992003042212004-10920-037050FM-12+000699999V0201401N002612200019N0020001N1+03031+02181101381ADDAA106000091GF104991041011012501001001KA1240N+02491MA1999999101311MD1999999-0101REMSYN076AAXX  22124 83096 32695 41405 10303 20218 30131 40138 84100 333 20249 59010;EQDQ01  00002PRCP06
0167830960999992003042218004-10920-037050FM-12+000699999V0200901N003112200019N0020001N1+03011+02271101201ADDAA106000091GF102991021011012501001001MA1999999101131MD1999999-0041REMSYN070AAXX  22184 83096 32695 20906 10301 20227 30113 40120 82100 333 59004;EQDQ01  00002PRCP06
0202830960999992003042300004-10920-037050FM-12+000699999V0200901N000510120019N0020001N1+02571+02351101451ADDAY161061AY261061GF108991081051012501001001KA1240M+03141MA1999999101381MD1999999+0061MW1201REMSYN100AAXX  23004 83096 21695 80901 10257 20235 30138 40145 72066 88500 333 10314 29073 55093 58006 60021;
0167830960999992003042318004-10920-037050FM-12+000699999V0201401N001512200019N0020001N1+02831+02291101211ADDAA106000091GF101991011011012501001001MA1999999101141MD1999999+0011REMSYN070AAXX  23184 83096 32695 11403 10283 20229 30114 40121 81100 333 58001;EQDQ01  00002PRCP06
0202830960999992003042400004-10920-037050FM-12+000699999V0201401N001510120019N0020001N1+02501+02271101411ADDAY161061AY261061GF106991061051012501001001KA1240M+02971MA1999999101341MD1999999-0041MW1201REMSYN100AAXX  24004 83096 21695 61403 10250 20227 30134 40141 72066 86500 333 10297 29082 55039 59004 69941;
0190830960999992003042412004-10920-037050FM-12+000699999V0200901N001512200019N0020001N1+02791+02211101481ADDAY161061AY261061GF103991031051012501001001KA1240N+02281MA1999999101411MD1999999+0031MW1211REMSYN088AAXX  24124 83096 21695 30903 10279 20221 30141 40148 72166 83500 333 20228 58003 60064;
0167830960999992003042418004-10920-037050FM-12+000699999V0201401N001512200019N0020001N1+02911+02241101201ADDAA106000021GF101991999011012501001011MA1999999101131MD1999999-0011REMSYN070AAXX  24184 83096 32695 11403 10291 20224 30113 40120 82101 333 59001;EQDQ01+000022SCOTLC
0198830960999992003042500004-10920-037050FM-12+000699999V0201801N002612200019N0020001N1+02671+02311101401ADDAA106000091GF103991031051012501001001KA1240M+02981MA1999999101331MD1999999-0011REMSYN088AAXX  25004 83096 32695 31805 10267 20231 30133 40140 83500 333 10298 29074 55094 59001;EQDQ01  00002PRCP06
0186830960999992003042512004-10920-037050FM-12+000699999V0201401N001512200019N0020001N1+02951+02211101461ADDAA106000091GF102991021011012501001001KA1240N+02411MA1999999101391MD1999999-0021REMSYN076AAXX  25124 83096 32695 21403 10295 20221 30139 40146 82100 333 20241 59002;EQDQ01  00002PRCP06
0167830960999992003042518004-10920-037050FM-12+000699999V0201401N001512200019N0020001N1+02971+02151101221ADDAA106000091GF102991021011012501001001MA1999999101151MD1999999-0021REMSYN070AAXX  25184 83096 32695 21403 10297 20215 30115 40122 82100 333 59002;EQDQ01  00002PRCP06
0202830960999992003042600004-10920-037050FM-12+000699999V0200901N001512200019N0020001N1+02741+02241101501ADDAY161061AY261061GF102991021051012501001001KA1240M+03101MA1999999101441MD1999999+0101MW1201REMSYN100AAXX  26004 83096 21695 20903 10274 20224 30144 40150 72066 82500 333 10310 29069 55102 58010 69961;
0162830960999992003042612004-10920-037050FM-12+000699999V0202701N001510120019N0020001N1+02751+02381101571ADDGF105991051051012501001001KA1240N+02391MA1999999101501MD1999999+0111REMSYN082AAXX  26124 83096 22695 52703 10275 20238 30150 40157 85500 333 20239 58011 69964;
0171830960999992003042618004-10920-037050FM-12+000699999V0201401N002112200019N0020001N1+02891+02211101241ADDAY161061AY261061GF103991031051012501001001MA1999999101271MD1999999+0121MW1201REMSYN082AAXX  26184 83096 21695 31404 10289 20221 30127 40124 72066 83500 333 58012 60011;
0202830960999992003042700004-10920-037050FM-12+000699999V0201801N001512200019N0020001N1+02691+02281101491ADDAY161061AY261061GF102991021051012501001001KA1240M+03011MA1999999101421MD1999999-0011MW1201REMSYN100AAXX  27004 83096 21695 21803 10269 20228 30142 40149 72066 82500 333 10301 29076 55074 59001 60011;
0190830960999992003042712004-10920-037050FM-12+000699999V0200901N002612200019N0020001N1+02671+02371101531ADDAY161061AY261061GF104991041051012501001001KA1240N+02451MA1999999101461MD1999999-0041MW1211REMSYN088AAXX  27124 83096 21695 40905 10267 20237 30146 40153 72166 84500 333 20245 59004 60064;
0171830960999992003042718004-10920-037050FM-12+000699999V0200901N001512200019N0020001N1+02751+02341101271ADDAY161061AY261061GF103991031011012501001001MA1999999101201MD1999999-0071MW1201REMSYN082AAXX  27184 83096 21695 30903 10275 20234 30120 40127 72066 83100 333 59007 60011;
0179830960999992003042800004-10920-037050FM-12+000699999V0200901N001512200019N0020001N1+02751+02211101371ADDAA106000021GF102991021011012501001001KA1240M+02851MA1999999101301MD1999999-0121REMSYN088AAXX  28004 83096 32695 20903 10275 20221 30130 40137 82100 333 10285 29077 55046 59012;
0190830960999992003042812004-10920-037050FM-12+000699999V0203201N000512200019N0020001N1+02711+02411101521ADDAY161061AY261061GF106991021051012501001011KA1240N+02391MA1999999101451MD1999999-0011MW1211REMSYN088AAXX  28124 83096 21695 63201 10271 20241 30145 40152 72166 82501 333 20239 59001 60044;
0148830960999992003042818004-10920-037050FM-12+000699999V0201401N003112200019N0020001N1+02891+02211101171ADDAA106000021GF103991011051012501001011MA1999999101101MD1999999-0101REMSYN070AAXX  28184 83096 32695 31406 10289 20221 30110 40117 81501 333 59010;
0198830960999992003042900004-10920-037050FM-12+000699999V0201401N001512200019N0020001N1+02691+02281101391ADDAA106000091GF102991021051012501001001KA1240M+03051MA1999999101321MD1999999+0021REMSYN088AAXX  29004 83096 32695 21403 10269 20228 30132 40139 82500 333 10305 29077 55091 58002;EQDQ01  00002PRCP06
0186830960999992003042912004-10920-037050FM-12+000699999V0200901N001512200019N0020001N1+02831+02291101511ADDAA106000091GF103991031011012501001001KA1240N+02391MA1999999101441MD1999999-0011REMSYN076AAXX  29124 83096 32695 30903 10283 20229 30144 40151 83100 333 20239 59001;EQDQ01  00002PRCP06
0167830960999992003042918004-10920-037050FM-12+000699999V0200901N003112200019N0020001N1+02931+02311101261ADDAA106000091GF103991021011012501001011MA1999999101191MD1999999-0091REMSYN070AAXX  29184 83096 32695 30906 10293 20231 30119 40126 82101 333 59009;EQDQ01  00002PRCP06
0202830960999992003043000004-10920-037050FM-12+000699999V0200901N003110120019N0020001N1+02711+02321101501ADDAY161061AY261061GF106991061051012501001001KA1240M+03061MA1999999101431MD1999999+0111MW1201REMSYN100AAXX  30004 83096 21695 60906 10271 20232 30143 40150 72066 86500 333 10306 29075 55107 58011 69921;
0190830960999992003043012004-10920-037050FM-12+000699999V0200901N001512200019N0020001N1+02951+02191101571ADDAY161061AY261061GF102991021011012501001001KA1240N+02431MA1999999101501MD1999999+0061MW1201REMSYN088AAXX  30124 83096 21695 20903 10295 20219 30150 40157 72066 82100 333 20243 58006 69944;
0148830960999992003043018004-10920-037050FM-12+000699999V0200901N002112200019N0020001N1+02891+02251101321ADDAA106000021GF102991021011012501001001MA1999999101251MD1999999+0061REMSYN070AAXX  30184 83096 32695 20904 10289 20225 30125 40132 82100 333 58006;
0202830960999992003050100004-10920-037050FM-12+000699999V0201401N001510120019N0020001N1+02551+02351101611ADDAY161061AY261061GF105991051051012501001001KA1240M+03061MA1999999101541MD1999999+0111MW1211REMSYN100AAXX  01004 83096 21695 51403 10255 20235 30154 40161 72166 85500 333 10306 29077 55090 58011 60041;
0190830960999992003050112004-10920-037050FM-12+000699999V0201401N002110450019N0020001N1+02791+02361101611ADDAY161061AY261061GF106991041051012501031001KA1240N+02421MA1999999101541MD1999999+0291MW1211REMSYN088AAXX  01124 83096 21695 61404 10279 20236 30154 40161 72166 84530 333 20242 58029 60054;
0148830960999992003050118004-10920-037050FM-12+000699999V0201801N002112200019N0020001N1+02901+02341101241ADDAA106000021GF101991011051012501001001MA1999999101171MD1999999-0081REMSYN070AAXX  01184 83096 32695 11804 10290 20234 30117 40124 81500 333 59008;
0198830960999992003050200004-10920-037050FM-12+000699999V0201401N003112200019N0020001N1+02731+02281101471ADDAA106000091GF101991011011012501001001KA1240M+03071MA1999999101401MD1999999-0141REMSYN088AAXX  02004 83096 32695 11406 10273 20228 30140 40147 81100 333 10307 29076 55082 59014;EQDQ01  00002PRCP06
0186830960999992003050212004-10920-037050FM-12+000699999V0200901N001512200019N0020001N1+02891+02301101371ADDAA106000091GF102991021011012501001001KA1240N+02391MA1999999101301MD1999999-0241REMSYN076AAXX  02124 83096 32695 20903 10289 20230 30130 40137 82100 333 20239 59024;EQDQ01  00002PRCP06
0167830960999992003050218004-10920-037050FM-12+000699999V0200901N003112200019N0020001N1+02951+02351101001ADDAA106000091GF101991011011012501001001MA1999999100931MD1999999-0201REMSYN070AAXX  02184 83096 32695 10906 10295 20235 30093 40100 81100 333 59020;EQDQ01  00002PRCP06
0198830960999992003050300004-10920-037050FM-12+000699999V0200901N003112200019N0020001N1+02751+02401101121ADDAA106000091GF102991021051012501001001KA1240M+03071MA1999999101051MD1999999-0351REMSYN088AAXX  03004 83096 32695 20906 10275 20240 30105 40112 82500 333 10307 29076 55104 59035;EQDQ01  00002PRCP06
0186830960999992003050312004-10920-037050FM-12+000699999V0200501N003110450019N0020001N1+02951+02261101271ADDAA106000091GF105991021011012501031001KA1240N+02541MA1999999101201MD1999999-0101REMSYN076AAXX  03124 83096 32695 50506 10295 20226 30120 40127 82130 333 20254 59010;EQDQ01  00002PRCP06
0167830960999992003050318004-10920-037050FM-12+000699999V0200901N005112200019N0020001N1+03001+02321100851ADDAA106000091GF101991011011012501001001MA1999999100781MD1999999-0151REMSYN070AAXX  03184 83096 32695 10910 10300 20232 30078 40085 81100 333 59015;EQDQ01  00002PRCP06
0198830960999992003050400004-10920-037050FM-12+000699999V0200901N004112200019N0020001N1+02831+02521101101ADDAA106000091GF101991011051012501001001KA1240M+03151MA1999999101031MD1999999-0021REMSYN088AAXX  04004 83096 32695 10908 10283 20252 30103 40110 81500 333 10315 29075 55105 59002;EQDQ01  00002PRCP06
0186830960999992003050412004-10920-037050FM-12+000699999V0202301N001510120019N0020001N1+02711+02241101441ADDAA106000091GF108991081051012501001001KA1240N+02491MA1999999101371MD1999999+0171REMSYN076AAXX  04124 83096 32695 82303 10271 20224 30137 40144 88500 333 20249 58017;EQDQ01  00002PRCP06
0167830960999992003050418004-10920-037050FM-12+000699999V0201401N002110120019N0020001N1+02651+02331101351ADDAA106000091GF108991081051012501001001MA1999999101281MD1999999+0501REMSYN070AAXX  04184 83096 32695 81404 10265 20233 30128 40135 88500 333 58050;EQDQ01  00002PRCP06
0198830960999992003050500004-10920-037050FM-12+000699999V0201401N001512200019N0020001N1+02591+02251101531ADDAA106000091GF103991031051012501001001KA1240M+02931MA1999999101461MD1999999+0431REMSYN088AAXX  05004 83096 32695 31403 10259 20225 30146 40153 83500 333 10293 29080 55004 58043;EQDQ01  00002PRCP06
0190830960999992003050512004-10920-037050FM-12+000699999V0202301N001510075019N0010001N1+02571+02331101501ADDAY161061AY261061GF108991081051008001999999KA1240N+02391MA1999999101431MD1999999+0061MW1611REMSYN088AAXX  05124 83096 21594 82303 10257 20233 30143 40150 76166 885// 333 20239 58006 60134;
0171830960999992003050518004-10920-037050FM-12+000699999V0200901N001510075019N0010001N1+02531+02251101381ADDAY161061AY261061GF108991081051008001999999MA1999999101311MD1999999+0031MW1601REMSYN082AAXX  05184 83096 21594 80903 10253 20225 30131 40138 76066 885// 333 58003 60041;
0202830960999992003050600004-10920-037050FM-12+000699999V0201801N002110120019N0020001N1+02551+02401101421ADDAY161061AY261061GF108991081051012501001001KA1240M+02731MA1999999101351MD1999999-0111MW1201REMSYN100AAXX  06004 83096 21695 81804 10255 20240 30135 40142 72066 88500 333 10273 29088 55000 59011 69961;
0190830960999992003050612004-10920-037050FM-12+000699999V0203201N001010075019N0020001N1+02551+02401101421ADDAY161061AY261061GF107991061051008001031001KA1240N+02351MA1999999101351MD1999999-0081MW1211REMSYN088AAXX  06124 83096 21595 73202 10255 20240 30135 40142 72166 86530 333 20235 59008 60444;
0148830960999992003050618004-10920-037050FM-12+000699999V0201401N001512200019N0020001N1+02771+02341101161ADDAA106000021GF104991021051012501031001MA1999999101091MD1999999-0221REMSYN070AAXX  06184 83096 32695 41403 10277 20234 30109 40116 82530 333 59022;
0198830960999992003050700004-10920-037050FM-12+000699999V0201801N001512200019N0020001N1+02611+02331101211ADDAA106000091GF101991011011012501001001KA1240M+02981MA1999999101141MD1999999-0211REMSYN088AAXX  07004 83096 32695 11803 10261 20233 30114 40121 81100 333 10298 29085 55051 59021;EQDQ01  00002PRCP06
0190830960999992003050712004-10920-037050FM-12+000699999V0200901N001510075019N0020001N1+02551+02401101401ADDAY161061AY261061GF106991061051008001001001KA1240N+02371MA1999999101331MD1999999-0021MW1601REMSYN088AAXX  07124 83096 21595 60903 10255 20240 30133 40140 76066 86500 333 20237 59002 60034;
0148830960999992003050718004-10920-037050FM-12+000699999V0200901N002112200019N0020001N1+02891+02391101191ADDAA106000021GF102991021011012501001001MA1999999101121MD1999999+0031REMSYN070AAXX  07184 83096 32695 20904 10289 20239 30112 40119 82100 333 58003;
0198830960999992003050800004-10920-037050FM-12+000699999V0200901N002612200019N0020001N1+02711+02461101331ADDAA106000091GF102991021051012501001001KA1240M+02971MA1999999101261MD1999999+0121REMSYN088AAXX  08004 83096 32695 20905 10271 20246 30126 40133 82500 333 10297 29082 55080 58012;EQDQ01  00002PRCP06
0186830960999992003050812004-10920-037050FM-12+000699999V0200901N001512200019N0020001N1+02771+02341101431ADDAA106000091GF102991021011012501001001KA1240N+02301MA1999999101361MD1999999+0031REMSYN076AAXX  08124 83096 32695 20903 10277 20234 30136 40143 82100 333 20230 58003;EQDQ01  00002PRCP06
0167830960999992003050818004-10920-037050FM-12+000699999V0200901N002112200019N0020001N1+02911+02371101241ADDAA106000091GF102991021011012501001001MA1999999101171MD1999999+0051REMSYN070AAXX  08184 83096 32695 20904 10291 20237 30117 40124 82100 333 58005;EQDQ01  00002PRCP06
0198830960999992003050900004-10920-037050FM-12+000699999V0200901N003112200019N0020001N1+02751+02361101391ADDAA106000091GF102991021051012501001001KA1240M+03041MA1999999101321MD1999999+0061REMSYN088AAXX  09004 83096 32695 20906 10275 20236 30132 40139 82500 333 10304 29077 55105 58006;EQDQ01  00002PRCP06
