0190832360999992003010112004-12150-045000FM-12+044099999V0209999C000010075019N0100001N1+02461+02251101301ADDAY161061AY261061GF107991051071008001041001KA1240N+02161MA1999999096401MD1999999-0141MW1021REMSYN088AAXX  01124 83236 21597 70000 10246 20225 39640 40130 70266 85740 333 20216 59014 60044;
0171832360999992003010118004-12150-045000FM-12+044099999V0201801N001010450019N0100001N1+02551+02311100981ADDAY161061AY261061GF108991041071008001011999MA1999999096101MD1999999+0051MW1021REMSYN082AAXX  01184 83236 21597 81802 10255 20231 39610 40098 70266 8471/ 333 58005 60071;
0198832360999992003010200004-12150-045000FM-12+044099999V0201801N001012200019N0100001N1+02401+02371101201ADDAA106000091GF104991041071008001001001KA1240M+02781MA1999999096311MD1999999+0071REMSYN088AAXX  02004 83236 32597 41802 10240 20237 39631 40120 84700 333 10278 29093 55000 58007;EQDQ01  00002PRCP06
0162832360999992003010212004-12150-045000FM-12+044099999V0203601N001012200019N0100001N1+02481+02271101231ADDGF104991031021008001041001KA1240N+02181MA1999999096341MD1999999-0061REMSYN082AAXX  02124 83236 22597 43602 10248 20227 39634 40123 83240 333 20218 59006 60074;
0167832360999992003010218004-12150-045000FM-12+044099999V0203201N004610450019N0100001N1+03021+02261100671ADDAA106000091GF107991031021008001021041MA1999999095841MD1999999-0261REMSYN070AAXX  02184 83236 32597 73209 10302 20226 39584 40067 83224 333 59026;EQDQ01  00002PRCP06
0202832360999992003010300004-12150-045000FM-12+044099999V0209999C000010450019N0020001N1+02251+02161101081ADDAY191061AY261061GF106991031071004501021001KA1240M+03251MA1999999096171MD1999999-0141MW1131REMSYN100AAXX  03004 83236 21495 60000 10225 20216 39617 40108 71396 83720 333 10325 29086 55076 59014 60031;
0190832360999992003010312004-12150-045000FM-12+044099999V0202701N000510450019N0040001N1+02331+02271101221ADDAY161061AY261061GF107991031021008001071001KA1240N+02151MA1999999096301MD1999999-0041MW1471REMSYN088AAXX  03124 83236 21596 72701 10233 20227 39630 40122 74766 83270 333 20215 59004 60094;
0171832360999992003010318004-12150-045000FM-12+044099999V0209999C000010450019N0100001N1+02611+02371100801ADDAY191061AY261061GF107991041031008001041031MA1999999095931MD1999999+0091MW1171REMSYN082AAXX  03184 83236 21597 70000 10261 20237 39593 40080 71796 84343 333 58009 60071;
0198832360999992003010400004-12150-045000FM-12+044099999V0201801N001010210019N0100001N1+02421+02391101031ADDAA106000091GF108991081001022501021999KA1240M+03101MA1999999096141MD1999999-0031REMSYN088AAXX  04004 83236 32897 81802 10242 20239 39614 40103 8802/ 333 10310 29095 55018 59003;EQDQ01  00002PRCP06
0190832360999992003010412004-12150-045000FM-12+044099999V0209999C000010450019N0100001N1+02741+02431101201ADDAY151061AY251061GF106991041021008001061051KA1240N+02231MA1999999096341MD1999999+0041MW1031REMSYN088AAXX  04124 83236 21597 60000 10274 20243 39634 40120 70355 84265 333 20223 58004 60074;
0167832360999992003010418004-12150-045000FM-12+044099999V0200501N001510075019N0100001N1+03121+02221100711ADDAA106000091GF108991051041008001071999MA1999999095981MD1999999-0041REMSYN070AAXX  04184 83236 32597 80503 10312 20222 39598 40071 8547/ 333 59004;EQDQ01  00002PRCP06
0226832360999992003010500004-12150-045000FM-12+044099999V0202301N001010075019N0100001N1+02531+02271100971ADDAA106000091AY121061AY221061GF108991061051008001061999KA1240M+03251MA1999999096131MD1999999-0011MW1131REMSYN094AAXX  05004 83236 31597 82302 10253 20227 39613 40097 71322 8656/ 333 10325 29079 55069 59001;EQDQ01  00002PRCP06
0190832360999992003010512004-12150-045000FM-12+044099999V0201401N002110075019N0100001N1+02481+02131101181ADDAY161061AY251061GF107991051021008001061071KA1240N+02071MA1999999096301MD1999999-0041MW1021REMSYN088AAXX  05124 83236 21597 71404 10248 20213 39630 40118 70265 85267 333 20207 59004 60154;
0195832360999992003010518004-12150-045000FM-12+044099999V0202301N002110450019N0100001N1+02691+02331100841ADDAA106000091AY191061AY291061GF106991041051008001061051MA1999999095981MD1999999+0091MW1151REMSYN076AAXX  05184 83236 31597 62304 10269 20233 39598 40084 71599 84565 333 58009;EQDQ01  00002PRCP06
0202832360999992003010600004-12150-045000FM-12+044099999V0202301N001010075019N0040001N1+02331+02271101221ADDAY151061AY251061GF108991061051008001041999KA1240M+03141MA1999999096311MD1999999+0181MW1131REMSYN100AAXX  06004 83236 21596 82302 10233 20227 39631 40122 71355 8654/ 333 10314 29089 55037 58018 69951;
0162832360999992003010612004-12150-045000FM-12+044099999V0209999C000010075019N0100001N1+02471+02281101291ADDGF108991071071008001021999KA1240N+02261MA1999999096381MD1999999+0081REMSYN082AAXX  06124 83236 22597 80000 10247 20228 39638 40129 8772/ 333 20226 58008 69964;
0195832360999992003010618004-12150-045000FM-12+044099999V0200501N003110075019N0100001N1+03021+02411100651ADDAA106000091AY121061AY221061GF108991061051008001041999MA1999999095821MD1999999-0161MW1151REMSYN076AAXX  06184 83236 31597 80506 10302 20241 39582 40065 71522 8654/ 333 59016;EQDQ01  00002PRCP06
0202832360999992003010700004-12150-045000FM-12+044099999V0200501N003110075019N0040001N1+02581+02171100991ADDAY161061AY251061GF108991071051008001021999KA1240M+03301MA1999999096121MD1999999-0191MW1131REMSYN100AAXX  07004 83236 21596 80506 10258 20217 39612 40099 71365 8752/ 333 10330 29079 55031 59019 60011;
0162832360999992003010712004-12150-045000FM-12+044099999V0200501N001010075019N0200001N1+02651+02331101081ADDGF106991051021008001071051KA1240N+02411MA1999999096221MD1999999-0161REMSYN082AAXX  07124 83236 22598 60502 10265 20233 39622 40108 85275 333 20241 59016 60014;
0195832360999992003010718004-12150-045000FM-12+044099999V0202301N003610075019N0200001N1+03011+02271100661ADDAA106000091AY121061AY221061GF108991061051008001071999MA1999999095841MD1999999+0021MW1151REMSYN076AAXX  07184 83236 31598 82307 10301 20227 39584 40066 71522 8657/ 333 58002;EQDQ01  00002PRCP06
0226832360999992003010800004-12150-045000FM-12+044099999V0209999C000012200019N0200001N1+02561+02401100931ADDAA106000091AY121061AY221061GF103991031051008001001001KA1240M+03321MA1999999096081MD1999999-0041MW1131REMSYN094AAXX  08004 83236 31598 30000 10256 20240 39608 40093 71322 83500 333 10332 29082 55048 59004;EQDQ01  00002PRCP06
0167832360999992003010818004-12150-045000FM-12+044099999V0203601N003110450019N0200001N1+03201+02061100721ADDAA106000091GF106991041041008001061041MA1999999095981MD1999999+0141REMSYN070AAXX  08184 83236 32598 63606 10320 20206 39598 40072 84464 333 58014;EQDQ01  00002PRCP06
0198832360999992003010900004-12150-045000FM-12+044099999V0209999C000011050019N0200001N1+02631+02411101141ADDAA106000091GF105991021021012501001071KA1240M+03391MA1999999096281MD1999999+0201REMSYN088AAXX  09004 83236 32698 50000 10263 20241 39628 40114 82207 333 10339 29078 55061 58020;EQDQ01  00002PRCP06
0190832360999992003010912004-12150-045000FM-12+044099999V0202301N001010450019N0200001N1+02591+02231102171ADDAY161061AY261061GF106991041011008001051071KA1240N+02181MA1999999096471MD1999999+0181MW1021REMSYN088AAXX  09124 83236 21598 62302 10259 20223 39647 40217 70266 84157 333 20218 58018 60164;
0183832360999992003010918004-12150-045000FM-12+044099999V0200501N003112200019N0200001N1+03201+02241100972ADDAA106000091GF103991031021008001001001MA1999999096141MD1999999+0161REMSYN070AAXX  09184 83236 32598 30506 10320 20224 39614 40097 83200 333 58016;EQDQ01+100973APOSLPQ02  00002PRCP06
0226832360999992003011000004-12150-045000FM-12+044099999V0202301N001012200019N0200001N1+02381+02331100941ADDAA106000091AY121061AY221061GF103991031051008001001001KA1240M+03281MA1999999096351MD1999999+0071MW1131REMSYN094AAXX  10004 83236 31598 32302 10238 20233 39635 40094 71322 83500 333 10328 29083 55085 58007;EQDQ01  00002PRCP06
0190832360999992003011012004-12150-045000FM-12+044099999V0209999C000011050019N0200001N1+02741+02281101341ADDAY151061AY251061GF105991021021012501001051KA1240N+02211MA1999999096461MD1999999-0011MW1021REMSYN088AAXX  10124 83236 21698 50000 10274 20228 39646 40134 70255 82205 333 20221 59001 69914;
0167832360999992003011018004-12150-045000FM-12+044099999V0203601N003112200019N0200001N1+03211+01991100791ADDAA106000091GF104991021021012501001041MA1999999095971MD1999999-0171REMSYN070AAXX  10184 83236 32698 43606 10321 20199 39597 40079 82204 333 59017;EQDQ01  00002PRCP06
0198832360999992003011100004-12150-045000FM-12+044099999V0201801N001012200019N0200001N1+02571+02211101001ADDAA106000091GF104991021021012501001031KA1240M+03321MA1999999096151MD1999999-0201REMSYN088AAXX  11004 83236 32698 41802 10257 20221 39615 40100 82203 333 10332 29072 55111 59020;EQDQ01  00002PRCP06
0186832360999992003011112004-12150-045000FM-12+044099999V0209999C000011050019N0200001N1+02621+02141101251ADDAA106000091GF106991021021012501051031KA1240N+02011MA1999999096381MD1999999-0081REMSYN076AAXX  11124 83236 32698 60000 10262 20214 39638 40125 82253 333 20201 59008;EQDQ01  00002PRCP06
0167832360999992003011118004-12150-045000FM-12+044099999V0200501N001510450019N0200001N1+03301+01871100811ADDAA106000091GF106991041021008001041071MA1999999095981MD1999999+0011REMSYN070AAXX  11184 83236 32598 60503 10330 20187 39598 40081 84247 333 58001;EQDQ01  00002PRCP06
0198832360999992003011200004-12150-045000FM-12+044099999V0202301N001019999999N0200001N1+02561+02311100891ADDAA106000091GF105991001001999999001071KA1240M+03471MA1999999096041MD1999999-0111REMSYN088AAXX  12004 83236 32998 52302 10256 20231 39604 40089 80007 333 10347 29073 55111 59011;EQDQ01  00002PRCP06
0186832360999992003011212004-12150-045000FM-12+044099999V0202701N001512200019N0200001N1+02631+02071101231ADDAA106000091GF104991021011012501061051KA1240N+02081MA1999999096361MD1999999-0021REMSYN076AAXX  12124 83236 32698 42703 10263 20207 39636 40123 82165 333 20208 59002;EQDQ01  00002PRCP06
0167832360999992003011218004-12150-045000FM-12+044099999V0202301N001010450019N0200001N1+03341+01911100651ADDAA106000091GF106991041021008001071051MA1999999095841MD1999999-0141REMSYN070AAXX  12184 83236 32598 62302 10334 20191 39584 40065 84275 333 59014;EQDQ01  00002PRCP06
0226832360999992003011300004-12150-045000FM-12+044099999V0203601N002110075019N0200001N1+02631+02101101041ADDAA106000091AY121061AY221061GF108991061051008001071999KA1240M+03471MA1999999096181MD1999999+0141MW1151REMSYN094AAXX  13004 83236 31598 83604 10263 20210 39618 40104 71522 8657/ 333 10347 29065 55112 58014;EQDQ01  00002PRCP06
0214832360999992003011312004-12150-045000FM-12+044099999V0203601N001510450019N0200001N1+02581+02211101171ADDAA106000091AY121061AY221061GF107991041051008001071051KA1240N+02291MA1999999096311MD1999999-0051MW1151REMSYN082AAXX  13124 83236 31598 73603 10258 20221 39631 40117 71522 84575 333 20229 59005;EQDQ01  00002PRCP06
0171832360999992003011318004-12150-045000FM-12+044099999V0203201N001010075019N0100001N1+02411+02311100901ADDAY161061AY251061GF108991061051008001041999MA1999999096001MD1999999+0161MW1151REMSYN082AAXX  13184 83236 21597 83202 10241 20231 39600 40090 71565 8654/ 333 58016 60031;
0198832360999992003011400004-12150-045000FM-12+044099999V0202301N001010075019N0100001N1+02361+02331100981ADDAA106000091GF108991061021008001061999KA1240M+03011MA1999999096101MD1999999-0081REMSYN088AAXX  14004 83236 32597 82302 10236 20233 39610 40098 8626/ 333 10301 29093 55017 59008;EQDQ01  00002PRCP06
0162832360999992003011412004-12150-045000FM-12+044099999V0209999C000010075019N0200001N1+02541+02271101181ADDGF108991071021008001061999KA1240N+02301MA1999999096291MD1999999-0021REMSYN082AAXX  14124 83236 22598 80000 10254 20227 39629 40118 8726/ 333 20230 59002 60034;
0195832360999992003011418004-12150-045000FM-12+044099999V0202301N002110075019N0100001N1+02551+02271100891ADDAA106000091AY121061AY221061GF108991061051008001071999MA1999999096001MD1999999+0001MW1151REMSYN076AAXX  14184 83236 31597 82304 10255 20227 39600 40089 71522 8657/ 333 58000;EQDQ01  00002PRCP06
0226832360999992003011500004-12150-045000FM-12+044099999V0209999C000010450019N0200001N1+02321+02241101131ADDAA106000091AY121061AY221061GF106991041051008001061071KA1240M+03111MA1999999096241MD1999999+0141MW1131REMSYN094AAXX  15004 83236 31598 60000 10232 20224 39624 40113 71322 84567 333 10311 29090 55026 58014;EQDQ01  00002PRCP06
0190832360999992003011512004-12150-045000FM-12+044099999V0209999C000010075019N0100001N1+02421+02211101321ADDAY161061AY251061GF108991071021008001061999KA1240N+02111MA1999999096401MD1999999+0111MW1031REMSYN088AAXX  15124 83236 21597 80000 10242 20221 39640 40132 70365 8726/ 333 20211 58011 60194;
0171832360999992003011518004-12150-045000FM-12+044099999V0201401N001510075019N0100001N1+02531+02231101081ADDAY161061AY261061GF108991061071008001051999MA1999999096161MD1999999+0161MW1031REMSYN082AAXX  15184 83236 21597 81403 10253 20223 39616 40108 70366 8675/ 333 58016 60011;
0198832360999992003011600004-12150-045000FM-12+044099999V0209999C000010075019N0200001N1+02321+02241101301ADDAA106000091GF108991071021008001061999KA1240M+02901MA1999999096381MD1999999+0141REMSYN088AAXX  16004 83236 32598 80000 10232 20224 39638 40130 8726/ 333 10290 29090 55019 58014;EQDQ01  00002PRCP06
0162832360999992003011612004-12150-045000FM-12+044099999V0202301N001010075019N0200001N1+02421+02301101361ADDGF107991051021008001061051KA1240N+02151MA1999999096441MD1999999+0041REMSYN082AAXX  16124 83236 22598 72302 10242 20230 39644 40136 85265 333 20215 58004 60014;
0195832360999992003011618004-12150-045000FM-12+044099999V0200501N001510450019N0200001N1+03151+02301100961ADDAA106000091AY121061AY221061GF107991041051008001071041MA1999999096121MD1999999-0041MW1151REMSYN076AAXX  16184 83236 31598 70503 10315 20230 39612 40096 71522 84574 333 59004;EQDQ01  00002PRCP06
0198832360999992003011700004-12150-045000FM-12+044099999V0200901N001510075019N0100001N1+02541+02231101001ADDAA106000091GF108991051021008001061071KA1240M+03241MA1999999096221MD1999999-0161REMSYN088AAXX  17004 83236 32597 80903 10254 20223 39622 40100 85267 333 10324 29080 55066 59016;EQDQ01  00002PRCP06
0186832360999992003011712004-12150-045000FM-12+044099999V0209999C000010450019N0200001N1+02591+02271101261ADDAA106000091GF107991041021008001051071KA1240N+02171MA1999999096381MD1999999-0061REMSYN076AAXX  17124 83236 32598 70000 10259 20227 39638 40126 84257 333 20217 59006;EQDQ01  00002PRCP06
0167832360999992003011718004-12150-045000FM-12+044099999V0200501N002110075019N0200001N1+03061+02141100861ADDAA106000091GF108991071021008001071999MA1999999096021MD1999999-0101REMSYN070AAXX  17184 83236 32598 80504 10306 20214 39602 40086 8727/ 333 59010;EQDQ01  00002PRCP06
0226832360999992003011800004-12150-045000FM-12+044099999V0209999C000010075019N0200001N1+02551+02251101171ADDAA106000091AY121061AY221061GF108991061051008001071999KA1240M+03221MA1999999096301MD1999999+0081MW1131REMSYN094AAXX  18004 83236 31598 80000 10255 20225 39630 40117 71322 8657/ 333 10322 29077 55065 58008;EQDQ01  00002PRCP06
0190832360999992003011812004-12150-045000FM-12+044099999V0209999C000010075019N0100001N1+02341+02181101301ADDAY161061AY261061GF108991051021008001061051KA1240N+02071MA1999999096401MD1999999+0021MW1031REMSYN088AAXX  18124 83236 21597 80000 10234 20218 39640 40130 70366 85265 333 20207 58002 60044;
0195832360999992003011818004-12150-045000FM-12+044099999V0201401N002610075019N0100001N1+03001+02371100871ADDAA106000091AY121061AY221061GF108991071051008001071999MA1999999096001MD1999999-0021MW1151REMSYN076AAXX  18184 83236 31597 81405 10300 20237 39600 40087 71522 8757/ 333 59002;EQDQ01  00002PRCP06
0202832360999992003011900004-12150-045000FM-12+044099999V0201801N001010450019N0200001N1+02291+02201101171ADDAY191061AY261061GF106991041051008001061071KA1240M+03241MA1999999096251MD1999999-0051MW1131REMSYN100AAXX  19004 83236 21598 61802 10229 20220 39625 40117 71396 84567 333 10324 29088 55030 59005 60021;
0190832360999992003011912004-12150-045000FM-12+044099999V0202701N001010450019N0100001N1+02201+02031101561ADDAY161061AY261061GF108991031071008001011999KA1240N+02011MA1999999096581MD1999999+0181MW1021REMSYN088AAXX  19124 83236 21597 82702 10220 20203 39658 40156 70266 8371/ 333 20201 58018 60074;
0167832360999992003011918004-12150-045000FM-12+044099999V0201801N001510450019N0100001N1+02741+02141101091ADDAA106000091GF107991031021008001031081MA1999999096191MD1999999+0191REMSYN070AAXX  19184 83236 32597 71803 10274 20214 39619 40109 83238 333 58019;EQDQ01  00002PRCP06
0198832360999992003012000004-12150-045000FM-12+044099999V0200501N006210450019N0100001N1+02321+02051101391ADDAA106000091GF107991041071008001021001KA1240M+02851MA1999999096451MD1999999+0201REMSYN088AAXX  20004 83236 32597 70512 10232 20205 39645 40139 84720 333 10285 29083 55001 58020;EQDQ01  00002PRCP06
0186832360999992003012012004-12150-045000FM-12+044099999V0203601N001512200019N0100001N1+02521+02091101301ADDAA106000091GF104991011011008001031001KA1240N+02081MA1999999096391MD1999999-0191REMSYN076AAXX  20124 83236 32597 43603 10252 20209 39639 40130 81130 333 20208 59019;EQDQ01  00002PRCP06
0195832360999992003012018004-12150-045000FM-12+044099999V0200501N003110450019N0100001N1+02961+02211100791ADDAA106000091AY101061AY221061GF105991041031008001041001MA1999999095941MD1999999-0251MW1151REMSYN076AAXX  20184 83236 31597 50506 10296 20221 39594 40079 71502 84340 333 59025;EQDQ01  00002PRCP06
0202832360999992003012100004-12150-045000FM-12+044099999V0201801N001010450019N0040001N1+02131+02101101181ADDAY191061AY261061GF108991021071008001021999KA1240M+03051MA1999999096261MD1999999-0091MW1501REMSYN100AAXX  21004 83236 21596 81802 10213 20210 39626 40118 75096 8272/ 333 10305 29085 55088 59009 60231;
0190832360999992003012112004-12150-045000FM-12+044099999V0209999C000010450019N0100001N1+02431+02171101141ADDAY161061AY261061GF108991031071008001011999KA1240N+02091MA1999999096221MD1999999-0171MW1021REMSYN088AAXX  21124 83236 21597 80000 10243 20217 39622 40114 70266 8371/ 333 20209 59017 60334;
0171832360999992003012118004-12150-045000FM-12+044099999V0200901N001010075019N0020001N1+02151+02131101041ADDAY161061AY261061GF108991081001008001021999MA1999999096081MD1999999+0141MW1501REMSYN082AAXX  21184 83236 21595 80902 10215 20213 39608 40104 75066 8802/ 333 58014 60061;
0202832360999992003012200004-12150-045000FM-12+044099999V0209999C000010210019N0020001N1+02161+02141100191ADDAY151061AY251061GF108991081001022501021999KA1240M+02931MA1999999096271MD1999999+0011MW1511REMSYN100AAXX  22004 83236 21895 80000 10216 20214 39627 40019 75155 8802/ 333 10293 29096 55014 58001 60051;
0190832360999992003012212004-12150-045000FM-12+044099999V0203201N000510450019N0020001N1+02421+02151101291ADDAY151061AY251061GF107991041021008001061001KA1240N+02081MA1999999096361MD1999999+0141MW1021REMSYN088AAXX  22124 83236 21595 73201 10242 20215 39636 40129 70255 84260 333 20208 58014 60144;
0195832360999992003012218004-12150-045000FM-12+044099999V0200501N004610450019N0100001N1+02361+02111101051ADDAA106000091AY101061AY221061GF108991041071008001021999MA1999999096111MD1999999+0031MW1151REMSYN076AAXX  22184 83236 31597 80509 10236 20211 39611 40105 71502 8472/ 333 58003;EQDQ01  00002PRCP06
0202832360999992003012300004-12150-045000FM-12+044099999V0203601N001010450019N0020001N1+02141+02071101211ADDAY161061AY261061GF108991031071008001021999KA1240M+02891MA1999999096291MD1999999+0021MW1421REMSYN100AAXX  23004 83236 21595 83602 10214 20207 39629 40121 74266 8372/ 333 10289 29091 55021 58002 60011;
0162832360999992003012312004-12150-045000FM-12+044099999V0202301N000510450019N0100001N1+02291+02111101541ADDGF107991031021008001031041KA1240N+02011MA1999999096581MD1999999+0221REMSYN082AAXX  23124 83236 22597 72301 10229 20211 39658 40154 83234 333 20201 58022 60014;
0167832360999992003012318004-12150-045000FM-12+044099999V0203601N005111050019N0200001N1+02911+02171101121ADDAA106000091GF106991021021008001031041MA1999999096241MD1999999+0131REMSYN070AAXX  23184 83236 32598 63610 10291 20217 39624 40112 82234 333 58013;EQDQ01  00002PRCP06
0198832360999992003012400004-12150-045000FM-12+044099999V0201801N001012200019N0100001N1+02331+02071101331ADDAA106000091GF103991031041008001001001KA1240M+03031MA1999999096401MD1999999+0111REMSYN088AAXX  24004 83236 32597 31802 10233 20207 39640 40133 83400 333 10303 29082 55081 58011;EQDQ01  00002PRCP06
0186832360999992003012412004-12150-045000FM-12+044099999V0203601N001012200019N0200001N1+02501+02111101501ADDAA106000091GF103991021021008001031001KA1240N+01941MA1999999096581MD1999999+0001REMSYN076AAXX  24124 83236 32598 33602 10250 20211 39658 40150 82230 333 20194 58000;EQDQ01  00002PRCP06
0167832360999992003012418004-12150-045000FM-12+044099999V0203601N002112200019N0200001N1+03031+02161100981ADDAA106000091GF103991031021008001001001MA1999999096121MD1999999-0121REMSYN070AAXX  24184 83236 32598 33604 10303 20216 39612 40098 83200 333 59012;EQDQ01  00002PRCP06
0198832360999992003012500004-12150-045000FM-12+044099999V0201801N001012200019N0200001N1+02441+02251101111ADDAA106000091GF102991021041999999001001KA1240M+03131MA1999999096221MD1999999-0181REMSYN088AAXX  25004 83236 32998 21802 10244 20225 39622 40111 82400 333 10313 29079 55110 59018;EQDQ01  00002PRCP06
0186832360999992003012512004-12150-045000FM-12+044099999V0209999C000012200019N0200001N1+02581+02171101311ADDAA106000091GF104991011011008001061011KA1240N+02051MA1999999096431MD1999999-0161REMSYN076AAXX  25124 83236 32598 40000 10258 20217 39643 40131 81161 333 20205 59016;EQDQ01  00002PRCP06
0167832360999992003012518004-12150-045000FM-12+044099999V0203601N002112200019N0200001N1+03101+02121100771ADDAA106000091GF103991031021008001001001MA1999999095941MD1999999-0181REMSYN070AAXX  25184 83236 32598 33604 10310 20212 39594 40077 83200 333 59018;EQDQ01  00002PRCP06
0198832360999992003012600004-12150-045000FM-12+044099999V0201801N001012200019N0200001N1+02361+02131100981ADDAA106000091GF102991001001999999001021KA1240M+03221MA1999999096101MD1999999-0121REMSYN088AAXX  26004 83236 32998 21802 10236 20213 39610 40098 80002 333 10322 29077 55111 59012;EQDQ01  00002PRCP06
0186832360999992003012612004-12150-045000FM-12+044099999V0209999C000012200019N0200001N1+02561+01971101091ADDAA106000091GF104991001001999999001051KA1240N+01941MA1999999096201MD1999999-0221REMSYN076AAXX  26124 83236 32998 40000 10256 20197 39620 40109 80005 333 20194 59022;EQDQ01  00002PRCP06
0167832360999992003012618004-12150-045000FM-12+044099999V0200501N003611050019N0200001N1+03081+02101100651ADDAA106000091GF105991021021008001001071MA1999999095801MD1999999-0141REMSYN070AAXX  26184 83236 32598 50507 10308 20210 39580 40065 82207 333 59014;EQDQ01  00002PRCP06
0198832360999992003012700004-12150-045000FM-12+044099999V0201801N001512200019N0200001N1+02411+02091100771ADDAA106000091GF103991031041008001001001KA1240M+03191MA1999999095911MD1999999-0191REMSYN088AAXX  27004 83236 32598 31803 10241 20209 39591 40077 83400 333 10319 29073 55106 59019;EQDQ01  00002PRCP06
0186832360999992003012712004-12150-045000FM-12+044099999V0200501N002612200019N0200001N1+02591+02121101001ADDAA106000091GF104991011011008001081041KA1240N+02111MA1999999096131MD1999999-0071REMSYN076AAXX  27124 83236 32598 40505 10259 20212 39613 40100 81184 333 20211 59007;EQDQ01  00002PRCP06
0167832360999992003012718004-12150-045000FM-12+044099999V0203601N004112200019N0200001N1+03081+02191100601ADDAA106000091GF105991021021008001001011MA1999999095761MD1999999-0041REMSYN070AAXX  27184 83236 32598 53608 10308 20219 39576 40060 82201 333 59004;EQDQ01  00002PRCP06
0226832360999992003012800004-12150-045000FM-12+044099999V0201801N001512200019N0100001N1+02431+02191100911ADDAA106000091AY101061AY221061GF103991031031008001001001KA1240M+03181MA1999999096041MD1999999+0131MW1131REMSYN094AAXX  28004 83236 31597 31803 10243 20219 39604 40091 71302 83300 333 10318 29077 55106 58013;EQDQ01  00002PRCP06
0190832360999992003012812004-12150-045000FM-12+044099999V0200501N002610075019N0040001N1+02221+02171101431ADDAY161061AY261061GF108991051051008001021999KA1240N+02171MA1999999096491MD1999999+0361MW1421REMSYN088AAXX  28124 83236 21596 80505 10222 20217 39649 40143 74266 8552/ 333 20217 58036 60024;
0167832360999992003012818004-12150-045000FM-12+044099999V0200501N003110450019N0100001N1+02851+02191100901ADDAA106000091GF106991031021008001061021MA1999999096041MD1999999+0281REMSYN070AAXX  28184 83236 32597 60506 10285 20219 39604 40090 83262 333 58028;EQDQ01  00002PRCP06
0198832360999992003012900004-12150-045000FM-12+044099999V0209999C000010075019N0040001N1+02451+02191101291ADDAA106000091GF108991081051008001999999KA1240M+02971MA1999999096371MD1999999+0331REMSYN088AAXX  29004 83236 32596 80000 10245 20219 39637 40129 885// 333 10297 29084 55045 58033;EQDQ01  00002PRCP06
0186832360999992003012912004-12150-045000FM-12+044099999V0209999C000011050019N0100001N1+02371+02171101381ADDAA106000091GF107991041051008001001021KA1240N+02081MA1999999096471MD1999999+0021REMSYN076AAXX  29124 83236 32597 70000 10237 20217 39647 40138 84502 333 20208 58002;EQDQ01  00002PRCP06
0167832360999992003012918004-12150-045000FM-12+044099999V0200501N003612200019N0100001N1+02971+02151100841ADDAA106000091GF106991031021008001001041MA1999999095981MD1999999-0061REMSYN070AAXX  29184 83236 32597 60507 10297 20215 39598 40084 83204 333 59006;EQDQ01  00002PRCP06
0226832360999992003013000004-12150-045000FM-12+044099999V0201801N001512200019N0100001N1+02431+02211101051ADDAA106000091AY101061AY221061GF104991021031008001001041KA1240M+03061MA1999999096151MD1999999-0231MW1131REMSYN094AAXX  30004 83236 31597 41803 10243 20221 39615 40105 71302 82304 333 10306 29083 55053 59023;EQDQ01  00002PRCP06
0190832360999992003013012004-12150-045000FM-12+044099999V0202301N001510450019N0100001N1+02261+02141101331ADDAY151061AY251061GF108991031051008001021999KA1240N+02151MA1999999096411MD1999999-0061MW1021REMSYN088AAXX  30124 83236 21597 82303 10226 20214 39641 40133 70255 8352/ 333 20215 59006 69914;
0195832360999992003013018004-12150-045000FM-12+044099999V0201401N002610450019N0100001N1+02661+02241100981ADDAA106000091AY101061AY221061GF107991031021008001071021MA1999999096101MD1999999+0121MW1151REMSYN076AAXX  30184 83236 31597 71405 10266 20224 39610 40098 71502 83272 333 58012;EQDQ01  00002PRCP06
0202832360999992003013100004-12150-045000FM-12+044099999V0202701N000512200019N0100001N1+02201+02121101061ADDAY161061AY261061GF104991041001022501021999KA1240M+02871MA1999999096131MD1999999-0021MW1021REMSYN100AAXX  31004 83236 21897 42701 10220 20212 39613 40106 70266 8402/ 333 10287 29090 55008 59002 60011;
0162832360999992003013112004-12150-045000FM-12+044099999V0203601N001012200019N0200001N1+02551+02231101231ADDGF104991021021008001001041KA1240N+02071MA1999999096331MD1999999-0081REMSYN082AAXX  31124 83236 22598 43602 10255 20223 39633 40123 82204 333 20207 59008 60014;
0167832360999992003013118004-12150-045000FM-12+044099999V0200501N001512200019N0200001N1+03001+02081100831ADDAA106000091GF105991031021008001001041MA1999999095971MD1999999-0131REMSYN070AAXX  31184 83236 32598 50503 10300 20208 39597 40083 83204 333 59013;EQDQ01  00002PRCP06
0198832360999992003020100004-12150-045000FM-12+044099999V0200501N001510075019N0100001N1+02421+02071101061ADDAA106000091GF108991081001008001021999KA1240M+03131MA1999999096181MD1999999+0031REMSYN088AAXX  01004 83236 32597 80503 10242 20207 39618 40106 8802/ 333 10313 29076 55101 58003;EQDQ01  00002PRCP06
0186832360999992003020112004-12150-045000FM-12+044099999V0209999C000011050019N0200001N1+02491+01961101251ADDAA106000091GF105991021021008001081041KA1240N+01821MA1999999096451MD1999999+0121REMSYN076AAXX  01124 83236 32598 50000 10249 20196 39645 40125 82284 333 20182 58012;EQDQ01  00002PRCP06
0167832360999992003020118004-12150-045000FM-12+044099999V0200501N003612200019N0200001N1+02961+01961101051ADDAA106000091GF104991021021008001001021MA1999999096171MD1999999+0201REMSYN070AAXX  01184 83236 32598 40507 10296 20196 39617 40105 82202 333 58020;EQDQ01  00002PRCP06
0202832360999992003020200004-12150-045000FM-12+044099999V0201801N003610450019N0100001N1+02121+01951101371ADDAY151061AY251061GF106991031071008001021001KA1240M+03091MA1999999096441MD1999999+0281MW1131REMSYN100AAXX  02004 83236 21597 61807 10212 20195 39644 40137 71355 83720 333 10309 29078 55098 58028 69921;
0162832360999992003020212004-12150-045000FM-12+044099999V0202701N001010450019N0100001N1+02251+01901101481ADDGF107991021021008001051001KA1240N+01951MA1999999096521MD1999999+0071REMSYN082AAXX  02124 83236 22597 72702 10225 20190 39652 40148 82250 333 20195 58007 69924;
0167832360999992003020218004-12150-045000FM-12+044099999V0200501N004110450019N0100001N1+03021+02131101091ADDAA106000091GF106991031021008001031091MA1999999096211MD1999999+0041REMSYN070AAXX  02184 83236 32597 60508 10302 20213 39621 40109 83239 333 58004;EQDQ01  00002PRCP06
0198832360999992003020300004-12150-045000FM-12+044099999V0209999C000012200019N0100001N1+02401+02111101241ADDAA106000091GF102991021021008001001001KA1240M+03121MA1999999096331MD1999999-0111REMSYN088AAXX  03004 83236 32597 20000 10240 20211 39633 40124 82200 333 10312 29077 55071 59011;EQDQ01  00002PRCP06
0186832360999992003020312004-12150-045000FM-12+044099999V0201401N002110450019N0200001N1+02501+02231101411ADDAA106000091GF105991031021008001061051KA1240N+02211MA1999999096511MD1999999-0011REMSYN076AAXX  03124 83236 32598 51404 10250 20223 39651 40141 83265 333 20221 59001;EQDQ01  00002PRCP06
0167832360999992003020318004-12150-045000FM-12+044099999V0200501N002610075019N0100001N1+02851+02121101201ADDAA106000091GF108991071041008001071999MA1999999096331MD1999999+0121REMSYN070AAXX  03184 83236 32597 80505 10285 20212 39633 40120 8747/ 333 58012;EQDQ01  00002PRCP06
0198832360999992003020400004-12150-045000FM-12+044099999V0201801N001510450019N0200001N1+02381+02091101231ADDAA106000091GF105991031021008001061001KA1240M+03121MA1999999096341MD1999999+0011REMSYN088AAXX  04004 83236 32598 51803 10238 20209 39634 40123 83260 333 10312 29080 55040 58001;EQDQ01  00002PRCP06
0186832360999992003020412004-12150-045000FM-12+044099999V0201401N001510450019N0200001N1+02591+02121101301ADDAA106000091GF106991041021008001061071KA1240N+01991MA1999999096411MD1999999-0101REMSYN076AAXX  04124 83236 32598 61403 10259 20212 39641 40130 84267 333 20199 59010;EQDQ01  00002PRCP06
0167832360999992003020418004-12150-045000FM-12+044099999V0200501N001011050019N0200001N1+03141+02211100881ADDAA106000091GF105991031021008001001051MA1999999096031MD1999999-0301REMSYN070AAXX  04184 83236 32598 50502 10314 20221 39603 40088 83205 333 59030;EQDQ01  00002PRCP06
0198832360999992003020500004-12150-045000FM-12+044099999V0202301N001512200019N0200001N1+02411+02191100931ADDAA106000091GF103991031021012501001001KA1240M+03261MA1999999096071MD1999999-0271REMSYN088AAXX  05004 83236 32698 32303 10241 20219 39607 40093 83200 333 10326 29078 55098 59027;EQDQ01  00002PRCP06
0186832360999992003020512004-12150-045000FM-12+044099999V0209999C000010450019N0200001N1+02661+02291101291ADDAA106000091GF106991041021008001071051KA1240N+02101MA1999999096411MD1999999+0001REMSYN076AAXX  05124 83236 32598 60000 10266 20229 39641 40129 84275 333 20210 58000;EQDQ01  00002PRCP06
0167832360999992003020518004-12150-045000FM-12+044099999V0200501N002611050019N0200001N1+03231+02201100841ADDAA106000091GF105991031021008001001071MA1999999096011MD1999999-0021REMSYN070AAXX  05184 83236 32598 50505 10323 20220 39601 40084 83207 333 59002;EQDQ01  00002PRCP06
0198832360999992003020600004-12150-045000FM-12+044099999V0209999C000012200019N0200001N1+02551+02291100911ADDAA106000091GF103991001001999999001051KA1240M+03411MA1999999096061MD1999999-0011REMSYN088AAXX  06004 83236 32998 30000 10255 20229 39606 40091 80005 333 10341 29077 55113 59001;EQDQ01  00002PRCP06
0186832360999992003020612004-12150-045000FM-12+044099999V0200501N002610450019N0200001N1+02691+02221101241ADDAA106000091GF106991031021012501051071KA1240N+02191MA1999999096371MD1999999-0041REMSYN076AAXX  06124 83236 32698 60505 10269 20222 39637 40124 83257 333 20219 59004;EQDQ01  00002PRCP06
0167832360999992003020618004-12150-045000FM-12+044099999V0203601N002610450019N0200001N1+03131+02141100841ADDAA106000091GF106991021021008001071051MA1999999096001MD1999999-0011REMSYN070AAXX  06184 83236 32598 63605 10313 20214 39600 40084 82275 333 59001;EQDQ01  00002PRCP06
0198832360999992003020700004-12150-045000FM-12+044099999V0201401N001012200019N0200001N1+02521+02291100951ADDAA106000091GF103991001001999999001051KA1240M+03241MA1999999096101MD1999999+0041REMSYN088AAXX  07004 83236 32998 31402 10252 20229 39610 40095 80005 333 10324 29077 55089 58004;EQDQ01  00002PRCP06
0167832360999992003020718004-12150-045000FM-12+044099999V0203601N003111050019N0200001N1+03251+02001100881ADDAA106000091GF105991031021008001001071MA1999999096071MD1999999+0071REMSYN070AAXX  07184 83236 32598 53606 10325 20200 39607 40088 83207 333 58007;EQDQ01  00002PRCP06
0198832360999992003020800004-12150-045000FM-12+044099999V0202301N002112200019N0200001N1+02481+02131101021ADDAA106000091GF104991001001999999001051KA1240M+03361MA1999999096151MD1999999+0051REMSYN088AAXX  08004 83236 32998 42304 10248 20213 39615 40102 80005 333 10336 29072 55075 58005;EQDQ01  00002PRCP06
0186832360999992003020812004-12150-045000FM-12+044099999V0209999C000012200019N0200001N1+02601+02171101331ADDAA106000091GF104991001001999999001071KA1240N+02041MA1999999096451MD1999999+0111REMSYN076AAXX  08124 83236 32998 40000 10260 20217 39645 40133 80007 333 20204 58011;EQDQ01  00002PRCP06
0174832360999992003020900004-12150-045000FM-12+044099999V0201801N001512200019N0200001N1+02391+02191100981ADDGF102991001001999999001051KA1240M+03431MA1999999096121MD1999999-0031REMSYN094AAXX  09004 83236 22998 21803 10239 20219 39612 40098 80005 333 10343 29079 55098 59003 60021;
0162832360999992003020912004-12150-045000FM-12+044099999V0209999C000012200019N0200001N1+02611+02061101291ADDGF102991021021012501001001KA1240N+01941MA1999999096401MD1999999-0051REMSYN082AAXX  09124 83236 22698 20000 10261 20206 39640 40129 82200 333 20194 59005 60024;
0167832360999992003020918004-12150-045000FM-12+044099999V0202701N001512200019N0200001N1+03291+01891100791ADDAA106000091GF103991031021008001001001MA1999999095961MD1999999-0091REMSYN070AAXX  09184 83236 32598 32703 10329 20189 39596 40079 83200 333 59009;EQDQ01  00002PRCP06
0202832360999992003021000004-12150-045000FM-12+044099999V0209999C000011050019N0200001N1+02471+02131100961ADDAY151061AY251061GF105991021051008001001051KA1240M+03391MA1999999096101MD1999999-0021MW1131REMSYN100AAXX  10004 83236 21598 50000 10247 20213 39610 40096 71355 82505 333 10339 29070 55101 59002 69911;
0162832360999992003021012004-12150-045000FM-12+044099999V0203201N001512200019N0200001N1+02621+01981101131ADDGF103991031001022501071001KA1240N+01951MA1999999096261MD1999999-0141REMSYN082AAXX  10124 83236 22898 33203 10262 20198 39626 40113 83070 333 20195 59014 69914;
0167832360999992003021018004-12150-045000FM-12+044099999V0200501N003111050019N0200001N1+03251+01711100721ADDAA106000091GF105991031021008001001051MA1999999095891MD1999999-0071REMSYN070AAXX  10184 83236 32598 50506 10325 20171 39589 40072 83205 333 59007;EQDQ01  00002PRCP06
0198832360999992003021100004-12150-045000FM-12+044099999V0201801N001519999999N0200001N1+02401+02111100871ADDAA106000091GF105991001001999999001071KA1240M+03361MA1999999096001MD1999999-0101REMSYN088AAXX  11004 83236 32998 51803 10240 20211 39600 40087 80007 333 10336 29069 55107 59010;EQDQ01  00002PRCP06
0186832360999992003021112004-12150-045000FM-12+044099999V0201801N001010450019N0200001N1+02601+02011101121ADDAA106000091GF105991031021012501061071KA1240N+02021MA1999999096241MD1999999-0021REMSYN076AAXX  11124 83236 32698 51802 10260 20201 39624 40112 83267 333 20202 59002;EQDQ01  00002PRCP06
0195832360999992003021118004-12150-045000FM-12+044099999V0200501N003610075019N0200001N1+03031+02071100661ADDAA106000091AY121061AY221061GF108991071051008001081999MA1999999095811MD1999999-0071MW1151REMSYN076AAXX  11184 83236 31598 80507 10303 20207 39581 40066 71522 8758/ 333 59007;EQDQ01  00002PRCP06
0226832360999992003021200004-12150-045000FM-12+044099999V0202301N001010075019N0100001N1+02311+01981101161ADDAA106000091AY191061AY291061GF108991061051008001071999KA1240M+03401MA1999999096271MD1999999+0271MW1171REMSYN094AAXX  12004 83236 31597 82302 10231 20198 39627 40116 71799 8657/ 333 10340 29073 55072 58027;EQDQ01  00002PRCP06
0162832360999992003021212004-12150-045000FM-12+044099999V0202301N001510450019N0200001N1+02491+02171101201ADDGF106991041021008001061071KA1240N+02031MA1999999096301MD1999999+0061REMSYN082AAXX  12124 83236 22598 62303 10249 20217 39630 40120 84267 333 20203 58006 60024;
0195832360999992003021218004-12150-045000FM-12+044099999V0200901N006210075019N0100001N1+02581+02041100911ADDAA106000091AY191061AY291061GF108991071061008001041999MA1999999096011MD1999999+0201MW1161REMSYN076AAXX  12184 83236 31597 80912 10258 20204 39601 40091 71699 8764/ 333 58020;EQDQ01  00002PRCP06
0202832360999992003021300004-12150-045000FM-12+044099999V0201801N001010075019N0100001N1+02241+02141101181ADDAY131061AY251061GF108991071051008001021999KA1240M+03321MA1999999096271MD1999999+0001MW1011REMSYN100AAXX  13004 83236 21597 81802 10224 20214 39627 40118 70135 8752/ 333 10332 29086 55049 58000 60011;
0162832360999992003021312004-12150-045000FM-12+044099999V0209999C000010075019N0100001N1+02381+02211101381ADDGF108991061071008001051999KA1240N+02091MA1999999096451MD1999999+0151REMSYN082AAXX  13124 83236 22597 80000 10238 20221 39645 40138 8675/ 333 20209 58015 60014;
0167832360999992003021318004-12150-045000FM-12+044099999V0200901N003110075019N0200001N1+02841+02141100891ADDAA106000091GF107991051041008001071051MA1999999096011MD1999999+0001REMSYN070AAXX  13184 83236 32598 70906 10284 20214 39601 40089 85475 333 58000;EQDQ01  00002PRCP06
0198832360999992003021400004-12150-045000FM-12+044099999V0201801N001511050019N0200001N1+02301+02131101061ADDAA106000091GF105991021001022501061071KA1240M+03081MA1999999096161MD1999999-0111REMSYN088AAXX  14004 83236 32898 51803 10230 20213 39616 40106 82067 333 10308 29084 55052 59011;EQDQ01  00002PRCP06
0186832360999992003021412004-12150-045000FM-12+044099999V0200501N004110450019N0200001N1+02601+02191101181ADDAA106000091GF106991041021008001061051KA1240N+02151MA1999999096291MD1999999-0161REMSYN076AAXX  14124 83236 32598 60508 10260 20219 39629 40118 84265 333 20215 59016;EQDQ01  00002PRCP06
0167832360999992003021418004-12150-045000FM-12+044099999V0200501N003610450019N0200001N1+03201+02091100651ADDAA106000091GF106991031031008001081071MA1999999095831MD1999999-0281REMSYN070AAXX  14184 83236 32598 60507 10320 20209 39583 40065 83387 333 59028;EQDQ01  00002PRCP06
0202832360999992003021500004-12150-045000FM-12+044099999V0200501N004110075019N0020001N1+02161+02111101121ADDAY191061AY291061GF108991071061008001041999KA1240M+03281MA1999999096221MD1999999+0061MW1621REMSYN100AAXX  15004 83236 21595 80508 10216 20211 39622 40112 76299 8764/ 333 10328 29081 55072 58006 60111;
0207832360999992003021512004-12150-045000FM-12+044099999V0209999C000010075019N0100001N1+02151+01971101301ADDAA124014091AY151061AY251061GF108991061071008001051999KA1240N+02131MA1999999096341MD1999999+0041MW1511REMSYN094AAXX  15124 83236 21597 80000 10215 20197 39634 40130 75155 8675/ 333 20213 58004 60144 10140;
0078832360999992003021518004-12150-045000FM-12+044099999V02099999999999999999N9999999N1+99999+99999999999REMSYN069AAXX  15184 83236 32597 7000 10279 20213 39591 40077 84375 333 59008;
0190832360999992003021612004-12150-045000FM-12+044099999V0202701N003110075019N0100001N1+02561+02231101211ADDAY161061AY261061GF108991071071008001061999KA1240N+02191MA1999999096331MD1999999-0011MW1031REMSYN088AAXX  16124 83236 21597 82706 10256 20223 39633 40121 70366 8776/ 333 20219 59001 60034;
0167832360999992003021618004-12150-045000FM-12+044099999V0202301N001510075019N0100001N1+02601+02121100841ADDAA106000091GF107991051021008001051071MA1999999095961MD1999999+0051REMSYN070AAXX  16184 83236 32597 72303 10260 20212 39596 40084 85257 333 58005;EQDQ01  00002PRCP06
0207832360999992003021712004-12150-045000FM-12+044099999V0201801N001510120019N0100001N1+02161+02131101311ADDAA124021091AY161061AY261061GF108991071081008001041999KA1240N+02051MA1999999096381MD1999999+0051MW1101REMSYN094AAXX  17124 83236 21597 81803 10216 20213 39638 40131 71066 8784/ 333 20205 58005 60214 10213;
0167832360999992003021718004-12150-045000FM-12+044099999V0200501N003110450019N0200001N1+02951+02161100751ADDAA106000091GF105991031031008001061051MA1999999095901MD1999999-0061REMSYN070AAXX  17184 83236 32598 50506 10295 20216 39590 40075 83365 333 59006;EQDQ01  00002PRCP06
0198832360999992003021800004-12150-045000FM-12+044099999V0201401N001010075019N0100001N1+02441+02341101001ADDAA106000091GF108991071041008001071999KA1240M+03051MA1999999096181MD1999999+0101REMSYN088AAXX  18004 83236 32597 81402 10244 20234 39618 40100 8747/ 333 10305 29086 55054 58010;EQDQ01  00002PRCP06
0186832360999992003021812004-12150-045000FM-12+044099999V0202701N001510450019N0100001N1+02651+02271101211ADDAA106000091GF105991031021008001041001KA1240N+02081MA1999999096341MD1999999-0041REMSYN076AAXX  18124 83236 32597 52703 10265 20227 39634 40121 83240 333 20208 59004;EQDQ01  00002PRCP06
0167832360999992003021818004-12150-045000FM-12+044099999V0200501N003110120019N0100001N1+03051+02121100751ADDAA106000091GF107991061081008001041001MA1999999095931MD1999999+0031REMSYN070AAXX  18184 83236 32597 70506 10305 20212 39593 40075 86840 333 58003;EQDQ01  00002PRCP06
0198832360999992003021900004-12150-045000FM-12+044099999V0202301N001010450019N0100001N1+02451+02211101031ADDAA106000091GF107991041071008001021001KA1240M+03181MA1999999096161MD1999999-0021REMSYN088AAXX  19004 83236 32597 72302 10245 20221 39616 40103 84720 333 10318 29078 55077 59002;EQDQ01  00002PRCP06
0190832360999992003021912004-12150-045000FM-12+044099999V0202701N001010450019N0100001N1+02261+02141101391ADDAY161061AY261061GF108991041021008001011999KA1240N+02091MA1999999096471MD1999999+0131MW1021REMSYN088AAXX  19124 83236 21597 82702 10226 20214 39647 40139 70266 8421/ 333 20209 58013 60094;
0167832360999992003021918004-12150-045000FM-12+044099999V0200501N003110120019N0100001N1+02631+02181101071ADDAA106000091GF107991071081008001001001MA1999999096181MD1999999+0251REMSYN070AAXX  19184 83236 32597 70506 10263 20218 39618 40107 87800 333 58025;EQDQ01  00002PRCP06
0198832360999992003022000004-12150-045000FM-12+044099999V0201801N001510450019N0100001N1+02331+02251101131ADDAA106000091GF105991031071022501021001KA1240M+02751MA1999999096211MD1999999+0051REMSYN088AAXX  20004 83236 32897 51803 10233 20225 39621 40113 83720 333 10275 29090 55000 58005;EQDQ01  00002PRCP06
0186832360999992003022012004-12150-045000FM-12+044099999V0202701N001512200019N0200001N1+02541+02311101271ADDAA106000091GF104991031021008001001021KA1240N+02161MA1999999096371MD1999999-0101REMSYN076AAXX  20124 83236 32598 42703 10254 20231 39637 40127 83202 333 20216 59010;EQDQ01  00002PRCP06
0167832360999992003022018004-12150-045000FM-12+044099999V0200501N003110075019N0100001N1+03091+02101100771ADDAA106000091GF106991061021008001001001MA1999999095941MD1999999-0241REMSYN070AAXX  20184 83236 32597 60506 10309 20210 39594 40077 86200 333 59024;EQDQ01  00002PRCP06
0202832360999992003022100004-12150-045000FM-12+044099999V0201401N001010450019N0100001N1+02301+02181101121ADDAY101061AY251061GF106991041071008001021001KA1240M+03241MA1999999096221MD1999999+0011MW1131REMSYN100AAXX  21004 83236 21597 61402 10230 20218 39622 40112 71305 84720 333 10324 29082 55096 58001 69951;
0190832360999992003022112004-12150-045000FM-12+044099999V0209999C000010450019N0100001N1+02561+02191101251ADDAY161061AY261061GF107991021021008001031061KA1240N+02201MA1999999096351MD1999999+0021MW1021REMSYN088AAXX  21124 83236 21597 70000 10256 20219 39635 40125 70266 82236 333 20220 58002 60014;
0195832360999992003022118004-12150-045000FM-12+044099999V0200501N003111050019N0100001N1+02951+02261100751ADDAA106000091AY101061AY221061GF106991031031008001001031MA1999999095911MD1999999-0031MW1171REMSYN076AAXX  21184 83236 31597 60506 10295 20226 39591 40075 71702 83303 333 59003;EQDQ01  00002PRCP06
0226832360999992003022200004-12150-045000FM-12+044099999V0202701N000510450019N0100001N1+02241+02101101081ADDAA106000091AY101061AY221061GF108991041071008001021999KA1240M+03151MA1999999096181MD1999999-0041MW1131REMSYN094AAXX  22004 83236 31597 82701 10224 20210 39618 40108 71302 8472/ 333 10315 29083 55077 59004;EQDQ01  00002PRCP06
0190832360999992003022212004-12150-045000FM-12+044099999V0209999C000011050019N0100001N1+02481+02131101311ADDAY161061AY261061GF106991011011008001031061KA1240N+02071MA1999999096391MD1999999+0041MW1021REMSYN088AAXX  22124 83236 21597 60000 10248 20213 39639 40131 70266 81136 333 20207 58004 60014;
0167832360999992003022218004-12150-045000FM-12+044099999V0203601N002610450019N0100001N1+03031+02161100891ADDAA106000091GF106991031021008001081061MA1999999096021MD1999999+0111REMSYN070AAXX  22184 83236 32597 63605 10303 20216 39602 40089 83286 333 58011;EQDQ01  00002PRCP06
0202832360999992003022300004-12150-045000FM-12+044099999V0201801N001010450019N0100001N1+02141+02041101221ADDAY191061AY261061GF105991031071008001021001KA1240M+03161MA1999999096301MD1999999+0121MW1131REMSYN100AAXX  23004 83236 21597 51802 10214 20204 39630 40122 71396 83720 333 10316 29082 55091 58012 60021;
0198832360999992003022400004-12150-045000FM-12+044099999V0201801N001012200019N0100001N1+02401+02311101241ADDAA106000091GF104991041071008001001001KA1240M+02961MA1999999096321MD1999999+0021REMSYN088AAXX  24004 83236 32597 41802 10240 20231 39632 40124 84700 333 10296 29090 55028 58002;EQDQ01  00002PRCP06
0167832360999992003022418004-12150-045000FM-12+044099999V0203601N000512200019N0100001N1+03061+02261101061ADDAA106000091GF106991031021008001001061MA1999999096201MD1999999-0041REMSYN070AAXX  24184 83236 32597 63601 10306 20226 39620 40106 83206 333 59004;EQDQ01  00002PRCP06
0198832360999992003022500004-12150-045000FM-12+044099999V0202301N001012200019N0100001N1+02381+02171101191ADDAA106000091GF104991041021008001001001KA1240M+03151MA1999999096301MD1999999-0021REMSYN088AAXX  25004 83236 32597 42302 10238 20217 39630 40119 84200 333 10315 29079 55073 59002;EQDQ01  00002PRCP06
0186832360999992003022512004-12150-045000FM-12+044099999V0203601N004112200019N0100001N1+02561+02081101281ADDAA106000091GF106991011011008001001061KA1240N+02051MA1999999096381MD1999999-0211REMSYN076AAXX  25124 83236 32597 63608 10256 20208 39638 40128 81106 333 20205 59021;EQDQ01  00002PRCP06
0167832360999992003022518004-12150-045000FM-12+044099999V0203601N002111050019N0100001N1+02991+02061100901ADDAA106000091GF105991031021008001001051MA1999999096041MD1999999-0161REMSYN070AAXX  25184 83236 32597 53604 10299 20206 39604 40090 83205 333 59016;EQDQ01  00002PRCP06
0226832360999992003022600004-12150-045000FM-12+044099999V0202301N000512200019N0100001N1+02421+02171100941ADDAA106000091AY101061AY221061GF104991021071008001001041KA1240M+03131MA1999999096071MD1999999-0231MW1131REMSYN094AAXX  26004 83236 31597 42301 10242 20217 39607 40094 71302 82704 333 10313 29076 55109 59023;EQDQ01  00002PRCP06
0186832360999992003022612004-12150-045000FM-12+044099999V0200501N004610075019N0100001N1+02561+02361101191ADDAA106000091GF105991051021008001001001KA1240N+02091MA1999999096311MD1999999-0071REMSYN076AAXX  26124 83236 32597 50509 10256 20236 39631 40119 85200 333 20209 59007;EQDQ01  00002PRCP06
0167832360999992003022618004-12150-045000FM-12+044099999V0203601N003112200019N0200001N1+03051+02181100801ADDAA106000091GF104991031021008001001081MA1999999095951MD1999999-0071REMSYN070AAXX  26184 83236 32598 43606 10305 20218 39595 40080 83208 333 59007;EQDQ01  00002PRCP06
0198832360999992003022700004-12150-045000FM-12+044099999V0201801N001512200019N0100001N1+02411+02111100881ADDAA106000091GF103991031041008001001001KA1240M+03171MA1999999096011MD1999999-0061REMSYN088AAXX  27004 83236 32597 31803 10241 20211 39601 40088 83400 333 10317 29080 55111 59006;EQDQ01  00002PRCP06
0186832360999992003022712004-12150-045000FM-12+044099999V0209999C000012200019N0200001N1+02521+02171101231ADDAA106000091GF104991011011008001001051KA1240N+02031MA1999999096341MD1999999+0031REMSYN076AAXX  27124 83236 32598 40000 10252 20217 39634 40123 81105 333 20203 58003;EQDQ01  00002PRCP06
0167832360999992003022718004-12150-045000FM-12+044099999V0203601N001512200019N0200001N1+03131+02051100851ADDAA106000091GF103991021021008001001041MA1999999096001MD1999999-0011REMSYN070AAXX  27184 83236 32598 33603 10313 20205 39600 40085 82204 333 59001;EQDQ01  00002PRCP06
0198832360999992003022800004-12150-045000FM-12+044099999V0201801N001012200019N0200001N1+02391+02221100971ADDAA106000091GF103991021021008001001041KA1240M+03301MA1999999096091MD1999999+0081REMSYN088AAXX  28004 83236 32598 31802 10239 20222 39609 40097 82204 333 10330 29079 55095 58008;EQDQ01  00002PRCP06
0186832360999992003022812004-12150-045000FM-12+044099999V0203601N001512200019N0200001N1+02691+02221101311ADDAA106000091GF103991011011008001001041KA1240N+02191MA1999999096431MD1999999+0091REMSYN076AAXX  28124 83236 32598 33603 10269 20222 39643 40131 81104 333 20219 58009;EQDQ01  00002PRCP06
0167832360999992003022818004-12150-045000FM-12+044099999V0200501N003112200019N0200001N1+03171+01891100801ADDAA106000091GF103991021011008001001021MA1999999095971MD1999999-0121REMSYN070AAXX  28184 83236 32598 30506 10317 20189 39597 40080 82102 333 59012;EQDQ01  00002PRCP06
0198832360999992003030100004-12150-045000FM-12+044099999V0201801N001012200019N0200001N1+02411+02151100921ADDAA106000091GF104991041061008001001001KA1240M+03291MA1999999096061MD1999999-0031REMSYN088AAXX  01004 83236 32598 41802 10241 20215 39606 40092 84600 333 10329 29074 55098 59003;EQDQ01  00002PRCP06
0186832360999992003030112004-12150-045000FM-12+044099999V0200501N002111050019N0100001N1+02701+02111101281ADDAA106000091GF106991021021008001001081KA1240N+02171MA1999999096401MD1999999-0031REMSYN076AAXX  01124 83236 32597 60504 10270 20211 39640 40128 82208 333 20217 59003;EQDQ01  00002PRCP06
0167832360999992003030118004-12150-045000FM-12+044099999V0203601N003610450019N0200001N1+03121+02281100821ADDAA106000091GF106991021021008001081001MA1999999095981MD1999999-0011REMSYN070AAXX  01184 83236 32598 63607 10312 20228 39598 40082 82280 333 59001;EQDQ01  00002PRCP06
0198832360999992003030200004-12150-045000FM-12+044099999V0201401N001010450019N0100001N1+02581+02131100961ADDAA106000091GF108991031051008001021999KA1240M+03231MA1999999096121MD1999999+0061REMSYN088AAXX  02004 83236 32597 81402 10258 20213 39612 40096 8352/ 333 10323 29076 55073 58006;EQDQ01  00002PRCP06
0186832360999992003030212004-12150-045000FM-12+044099999V0203201N001010450019N0200001N1+02621+02421101071ADDAA106000091GF107991041021008001061071KA1240N+02241MA1999999096211MD1999999-0191REMSYN076AAXX  02124 83236 32598 73202 10262 20242 39621 40107 84267 333 20224 59019;EQDQ01  00002PRCP06
0167832360999992003030218004-12150-045000FM-12+044099999V0203601N002610450019N0200001N1+03081+02191100721ADDAA106000091GF106991031021008001051071MA1999999095891MD1999999-0091REMSYN070AAXX  02184 83236 32598 63605 10308 20219 39589 40072 83257 333 59009;EQDQ01  00002PRCP06
0198832360999992003030300004-12150-045000FM-12+044099999V0209999C000010450019N0200001N1+02461+02301100821ADDAA106000091GF105991031021008001061001KA1240M+03211MA1999999095961MD1999999-0161REMSYN088AAXX  03004 83236 32598 50000 10246 20230 39596 40082 83260 333 10321 29080 55069 59016;EQDQ01  00002PRCP06
0185832360999992003030312004-12150-045000FM-12+044099999V0209999C000010450019N0100001N1+02591+02211101111ADDAA106000091GF107991021071008001011001KA1240N+02311MA1999999096241MD1999999+0031REMSYN075AAXX  03124 83236 32597 70000 10259 20221 3962440111 82710 333 20231 58003;EQDQ01  00002PRCP06
0195832360999992003030318004-12150-045000FM-12+044099999V0203201N001510450019N0100001N1+03151+02301100751ADDAA106000091AY101061AY221061GF107991041071008001021001MA1999999095941MD1999999+0051MW1151REMSYN076AAXX  03184 83236 31597 73203 10315 20230 39594 40075 71502 84720 333 58005;EQDQ01  00002PRCP06
0202832360999992003030400004-12150-045000FM-12+044099999V0209999C000010450019N0100001N1+02541+02471100841ADDAY191061AY261061GF106991031071008001021001KA1240M+03281MA1999999095981MD1999999+0021MW1131REMSYN100AAXX  04004 83236 21597 60000 10254 20247 39598 40084 71396 83720 333 10328 29083 55050 58002 60011;
0162832360999992003030412004-12150-045000FM-12+044099999V0209999C000012200019N0200001N1+02661+02091101231ADDGF104991001001999999001061KA1240N+02161MA1999999096361MD1999999+0121REMSYN082AAXX  04124 83236 22998 40000 10266 20209 39636 40123 80006 333 20216 58012 60094;
0167832360999992003030418004-12150-045000FM-12+044099999V0200501N003611050019N0200001N1+03171+02021100851ADDAA106000091GF107991031021008001001051MA1999999096051MD1999999+0111REMSYN070AAXX  04184 83236 32598 70507 10317 20202 39605 40085 83205 333 58011;EQDQ01  00002PRCP06
0186832360999992003030512004-12150-045000FM-12+044099999V0209999C000012200019N0100001N1+02651+02161101161ADDAA106000091GF103991011011008001001011KA1240N+02151MA1999999096291MD1999999-0071REMSYN076AAXX  05124 83236 32597 30000 10265 20216 39629 40116 81101 333 20215 59007;EQDQ01  00002PRCP06
0167832360999992003030518004-12150-045000FM-12+044099999V0203601N002610075019N0100001N1+03161+02021100711ADDAA106000091GF106991061021008001001001MA1999999095891MD1999999-0161REMSYN070AAXX  05184 83236 32597 63605 10316 20202 39589 40071 86200 333 59016;EQDQ01  00002PRCP06
0198832360999992003030600004-12150-045000FM-12+044099999V0201801N001512200019N0100001N1+02411+02171100771ADDAA106000091GF103991031061008001001001KA1240M+03331MA1999999095921MD1999999-0141REMSYN088AAXX  06004 83236 32597 31803 10241 20217 39592 40077 83600 333 10333 29075 55087 59014;EQDQ01  00002PRCP06
0190832360999992003030612004-12150-045000FM-12+044099999V0200501N001010450019N0200001N1+02701+02151101071ADDAY151061AY251061GF105991031021012501051071KA1240N+02191MA1999999096201MD1999999-0091MW1021REMSYN088AAXX  06124 83236 21698 50502 10270 20215 39620 40107 70255 83257 333 20219 59009 69954;
0167832360999992003030618004-12150-045000FM-12+044099999V0200501N001510450019N0200001N1+03181+01871100651ADDAA106000091GF106991031021008001071051MA1999999095831MD1999999-0061REMSYN070AAXX  06184 83236 32598 60503 10318 20187 39583 40065 83275 333 59006;EQDQ01  00002PRCP06
0226832360999992003030700004-12150-045000FM-12+044099999V0201401N001012200019N0200001N1+02461+02151100831ADDAA106000091AY121061AY221061GF104991041051008001001001KA1240M+03341MA1999999095981MD1999999+0061MW1131REMSYN094AAXX  07004 83236 31598 41402 10246 20215 39598 40083 71322 84500 333 10334 29071 55103 58006;EQDQ01  00002PRCP06
0186832360999992003030712004-12150-045000FM-12+044099999V0203201N001010075019N0100001N1+02641+02161101231ADDAA106000091GF108991071041008001071999KA1240N+02121MA1999999096351MD1999999+0151REMSYN076AAXX  07124 83236 32597 83202 10264 20216 39635 40123 8747/ 333 20212 58015;EQDQ01  00002PRCP06
0167832360999992003030718004-12150-045000FM-12+044099999V0200501N004112200019N0200001N1+02971+02131100851ADDAA106000091GF103991031021012501001001MA1999999096001MD1999999+0171REMSYN070AAXX  07184 83236 32698 30508 10297 20213 39600 40085 83200 333 58017;EQDQ01  00002PRCP06
0198832360999992003030800004-12150-045000FM-12+044099999V0209999C000012200019N0200001N1+02351+02171100981ADDAA106000091GF102991001001999999001031KA1240M+03081MA1999999096111MD1999999+0131REMSYN088AAXX  08004 83236 32998 20000 10235 20217 39611 40098 80003 333 10308 29079 55079 58013;EQDQ01  00002PRCP06
0186832360999992003030812004-12150-045000FM-12+044099999V0209999C000012200019N0200001N1+02691+02181101211ADDAA106000091GF103991031021012501001001KA1240N+02061MA1999999096331MD1999999-0021REMSYN076AAXX  08124 83236 32698 30000 10269 20218 39633 40121 83200 333 20206 59002;EQDQ01  00002PRCP06
0226832360999992003030900004-12150-045000FM-12+044099999V0201801N001512200019N0200001N1+02581+02211100871ADDAA106000091AY121061AY221061GF104991031051008001001071KA1240M+03341MA1999999096031MD1999999-0081MW1131REMSYN094AAXX  09004 83236 31598 41803 10258 20221 39603 40087 71322 83507 333 10334 29071 55102 59008;EQDQ01  00002PRCP06
0186832360999992003030912004-12150-045000FM-12+044099999V0200501N001012200019N0200001N1+02691+02111101171ADDAA106000091GF104991021021008001001031KA1240N+02161MA1999999096321MD1999999-0011REMSYN076AAXX  09124 83236 32598 40502 10269 20211 39632 40117 82203 333 20216 59001;EQDQ01  00002PRCP06
0167832360999992003030918004-12150-045000FM-12+044099999V0200501N002610450019N0200001N1+03171+02051100721ADDAA106000091GF106991041021008001051071MA1999999095901MD1999999-0051REMSYN070AAXX  09184 83236 32598 60505 10317 20205 39590 40072 84257 333 59005;EQDQ01  00002PRCP06
0198832360999992003031000004-12150-045000FM-12+044099999V0202301N002110450019N0200001N1+02481+02051101001ADDAA106000091GF106991041021012501061071KA1240M+03301MA1999999096141MD1999999+0111REMSYN088AAXX  10004 83236 32698 62304 10248 20205 39614 40100 84267 333 10330 29069 55098 58011;EQDQ01  00002PRCP06
0190832360999992003031012004-12150-045000FM-12+044099999V0202701N001010450019N0200001N1+02521+02191101211ADDAY161061AY261061GF105991031021008001061051KA1240N+02111MA1999999096331MD1999999+0011MW1021REMSYN088AAXX  10124 83236 21598 52702 10252 20219 39633 40121 70266 83265 333 20211 58001 60114;
0195832360999992003031018004-12150-045000FM-12+044099999V0203601N001510450019N0200001N1+03071+02111100731ADDAA106000091AY121061AY221061GF105991031051008001071051MA1999999095901MD1999999+0001MW1151REMSYN076AAXX  10184 83236 31598 53603 10307 20211 39590 40073 71522 83575 333 58000;EQDQ01  00002PRCP06
0226832360999992003031100004-12150-045000FM-12+044099999V0202301N002110075019N0100001N1+02581+02291100891ADDAA106000091AY121061AY221061GF108991061051008001071999KA1240M+03271MA1999999096031MD1999999-0111MW1131REMSYN094AAXX  11004 83236 31597 82304 10258 20229 39603 40089 71322 8657/ 333 10327 29077 55084 59011;EQDQ01  00002PRCP06
0190832360999992003031112004-12150-045000FM-12+044099999V0202301N001012200019N0200001N1+02651+02291101101ADDAY161061AY251061GF103991021021008001001051KA1240N+02171MA1999999096301MD1999999-0031MW1021REMSYN088AAXX  11124 83236 21598 32302 10265 20229 39630 40110 70265 82205 333 20217 59003 60024;
0167832360999992003031118004-12150-045000FM-12+044099999V0200501N003112200019N0200001N1+03221+02231100641ADDAA106000091GF104991021031008001071051MA1999999095821MD1999999-0081REMSYN070AAXX  11184 83236 32598 40506 10322 20223 39582 40064 82375 333 59008;EQDQ01  00002PRCP06
0226832360999992003031200004-12150-045000FM-12+044099999V0209999C000010450019N0200001N1+02501+02291100851ADDAA106000091AY121061AY221061GF106991041051008001061071KA1240M+03301MA1999999095991MD1999999-0041MW1131REMSYN094AAXX  12004 83236 31598 60000 10250 20229 39599 40085 71322 84567 333 10330 29078 55090 59004;EQDQ01  00002PRCP06
0190832360999992003031212004-12150-045000FM-12+044099999V0202301N001510075019N0100001N1+02421+02251101181ADDAY161061AY261061GF108991071041008001061999KA1240N+02161MA1999999096291MD1999999-0011MW1031REMSYN088AAXX  12124 83236 21597 82303 10242 20225 39629 40118 70366 8746/ 333 20216 59001 60184;
0167832360999992003031218004-12150-045000FM-12+044099999V0200501N001510450019N0200001N1+02951+02241100771ADDAA106000091GF106991041041008001021071MA1999999095921MD1999999+0101REMSYN070AAXX  12184 83236 32598 60503 10295 20224 39592 40077 84427 333 58010;EQDQ01  00002PRCP06
0198832360999992003031300004-12150-045000FM-12+044099999V0201801N001010075019N0100001N1+02481+02341100931ADDAA106000091GF108991061021008001071999KA1240M+03061MA1999999096051MD1999999+0061REMSYN088AAXX  13004 83236 32597 81802 10248 20234 39605 40093 8627/ 333 10306 29085 55040 58006;EQDQ01  00002PRCP06
0186832360999992003031312004-12150-045000FM-12+044099999V0202701N001510450019N0200001N1+02581+02231101131ADDAA106000091GF106991041021008001051071KA1240N+02201MA1999999096261MD1999999-0031REMSYN076AAXX  13124 83236 32598 62703 10258 20223 39626 40113 84257 333 20220 59003;EQDQ01  00002PRCP06
0167832360999992003031318004-12150-045000FM-12+044099999V0203601N002110450019N0200001N1+03061+02301100631ADDAA106000091GF105991031031012501061051MA1999999095811MD1999999-0111REMSYN070AAXX  13184 83236 32698 53604 10306 20230 39581 40063 83365 333 59011;EQDQ01  00002PRCP06
0196832360999992003031400004-12150-045000FM-12+044099999V0202701N001010075019N0100001N1+02361+02241101051ADDAY121061AY221061GF108991071051008001071999KA1240M+03251MA1999999096161MD1999999+0111MW1131REMSYN094AAXX  14004 83236 21597 82702 10236 20224 39616 40105 71322 8757/ 333 10325 29083 55069 58011;
0171832360999992003031418004-12150-045000FM-12+044099999V0201801N003110450019N0200001N1+02361+02201100901ADDAY161061AY261061GF106991041061008001071051MA1999999095971MD1999999+0161MW1151REMSYN082AAXX  14184 83236 21598 61806 10236 20220 39597 40090 71566 84675 333 58016 60081;
0198832360999992003031500004-12150-045000FM-12+044099999V0209999C000010075019N0100001N1+02341+02311101001ADDAA106000091GF108991071021008001061999KA1240M+03091MA1999999096101MD1999999-0061REMSYN088AAXX  15004 83236 32597 80000 10234 20231 39610 40100 8726/ 333 10309 29095 55015 59006;EQDQ01  00002PRCP06
0162832360999992003031512004-12150-045000FM-12+044099999V0209999C000012200019N0200001N1+02691+02311101301ADDGF103991031021008001001001KA1240N+02211MA1999999096411MD1999999+0011REMSYN082AAXX  15124 83236 22598 30000 10269 20231 39641 40130 83200 333 20221 58001 60084;
0167832360999992003031518004-12150-045000FM-12+044099999V0203601N002112200019N0200001N1+03121+02221100711ADDAA106000091GF103991031021012501001001MA1999999095891MD1999999-0081REMSYN070AAXX  15184 83236 32698 33604 10312 20222 39589 40071 83200 333 59008;EQDQ01  00002PRCP06
0198832360999992003031600004-12150-045000FM-12+044099999V0201401N001512200019N0200001N1+02481+02301100961ADDAA106000091GF103991001001999999001071KA1240M+03211MA1999999096111MD1999999+0011REMSYN088AAXX  16004 83236 32998 31403 10248 20230 39611 40096 80007 333 10321 29080 55098 58001;EQDQ01  00002PRCP06
0190832360999992003031612004-12150-045000FM-12+044099999V0200501N002612200019N0200001N1+02571+02191101321ADDAY151061AY251061GF103991021021008001001051KA1240N+02231MA1999999096431MD1999999+0021MW1021REMSYN088AAXX  16124 83236 21598 30505 10257 20219 39643 40132 70255 82205 333 20223 58002 69944;
0167832360999992003031618004-12150-045000FM-12+044099999V0203601N001511050019N0200001N1+03011+02241100841ADDAA106000091GF106991031021008001001071MA1999999096011MD1999999+0121REMSYN070AAXX  16184 83236 32598 63603 10301 20224 39601 40084 83207 333 58012;EQDQ01  00002PRCP06
0226832360999992003031700004-12150-045000FM-12+044099999V0201801N001012200019N0200001N1+02311+02181101041ADDAA106000091AY121061AY221061GF104991021051008001001031KA1240M+03091MA1999999096151MD1999999+0041MW1131REMSYN094AAXX  17004 83236 31598 41802 10231 20218 39615 40104 71322 82503 333 10309 29082 55103 58004;EQDQ01  00002PRCP06
0186832360999992003031712004-12150-045000FM-12+044099999V0200501N002111050019N0200001N1+02541+02111101261ADDAA106000091GF105991021021008001051071KA1240N+02041MA1999999096351MD1999999-0081REMSYN076AAXX  17124 83236 32598 50504 10254 20211 39635 40126 82257 333 20204 59008;EQDQ01  00002PRCP06
0167832360999992003031718004-12150-045000FM-12+044099999V0203601N002112200019N0200001N1+03031+02131100651ADDAA106000091GF103991021021008001001051MA1999999095811MD1999999-0201REMSYN070AAXX  17184 83236 32598 33604 10303 20213 39581 40065 82205 333 59020;EQDQ01  00002PRCP06
0226832360999992003031800004-12150-045000FM-12+044099999V0209999C000012200019N0200001N1+02421+02231100901ADDAA106000091AY121061AY221061GF104991031051008001001051KA1240M+03121MA1999999096031MD1999999-0121MW1131REMSYN094AAXX  18004 83236 31598 40000 10242 20223 39603 40090 71322 83505 333 10312 29078 55105 59012;EQDQ01  00002PRCP06
0186832360999992003031812004-12150-045000FM-12+044099999V0200501N005110120019N0100001N1+02301+02091101321ADDAA106000091GF108991071081008001021999KA1240N+02111MA1999999096401MD1999999+0051REMSYN076AAXX  18124 83236 32597 80510 10230 20209 39640 40132 8782/ 333 20211 58005;EQDQ01  00002PRCP06
0167832360999992003031818004-12150-045000FM-12+044099999V0202301N001010450019N0200001N1+02691+02181100861ADDAA106000091GF106991041021008001071051MA1999999095971MD1999999+0161REMSYN070AAXX  18184 83236 32598 62302 10269 20218 39597 40086 84275 333 58016;EQDQ01  00002PRCP06
0226832360999992003032000004-12150-045000FM-12+044099999V0202701N001510075019N0100001N1+02371+02201101301ADDAA106000091AY121061AY221061GF108991071051008001041999KA1240M+03071MA1999999096401MD1999999+0181MW1131REMSYN094AAXX  20004 83236 31597 82703 10237 20220 39640 40130 71322 8754/ 333 10307 29084 55048 58018;EQDQ01  00002PRCP06
0190832360999992003032012004-12150-045000FM-12+044099999V0200501N001512200019N0200001N1+02581+02251101401ADDAY151061AY251061GF104991031021008001001051KA1240N+02171MA1999999096501MD1999999-0041MW1021REMSYN088AAXX  20124 83236 21598 40503 10258 20225 39650 40140 70255 83205 333 20217 59004 69964;
0195832360999992003032018004-12150-045000FM-12+044099999V0200901N002110075019N0100001N1+02831+02201100981ADDAA106000091AY121061AY221061GF108991061051008001041999MA1999999096111MD1999999+0061MW1151REMSYN076AAXX  20184 83236 31597 80904 10283 20220 39611 40098 71522 8654/ 333 58006;EQDQ01  00002PRCP06
0202832360999992003032100004-12150-045000FM-12+044099999V0209999C000010075019N0200001N1+02351+02291101211ADDAY161061AY261061GF106991051051008001071051KA1240M+03111MA1999999096321MD1999999-0081MW1131REMSYN100AAXX  21004 83236 21598 60000 10235 20229 39632 40121 71366 85575 333 10311 29086 55067 59008 60091;
0190832360999992003032112004-12150-045000FM-12+044099999V0202701N001510450019N0100001N1+02201+02181101321ADDAY191061AY261061GF107991041071008001021001KA1240N+02191MA1999999096391MD1999999-0111MW1401REMSYN088AAXX  21124 83236 21597 72703 10220 20218 39639 40132 74096 84720 333 20219 59011 60264;
0167832360999992003032118004-12150-045000FM-12+044099999V0203601N001511050019N0200001N1+02921+02321100741ADDAA106000091GF105991031021008001001021MA1999999095891MD1999999-0221REMSYN070AAXX  21184 83236 32598 53603 10292 20232 39589 40074 83202 333 59022;EQDQ01  00002PRCP06
0186832360999992003032812004-12150-045000FM-12+044099999V0201801N001511050019N0200001N1+02681+02261101271ADDAA106000091GF105991031011008001001051KA1240N+02261MA1999999096401MD1999999+0041REMSYN076AAXX  28124 83236 32598 51803 10268 20226 39640 40127 83105 333 20226 58004;EQDQ01  00002PRCP06
0167832360999992003032818004-12150-045000FM-12+044099999V0200901N002112200019N0200001N1+03121+02191100871ADDAA106000091GF104991021021008001041011MA1999999096051MD1999999+0061REMSYN070AAXX  28184 83236 32598 40904 10312 20219 39605 40087 82241 333 58006;EQDQ01  00002PRCP06
0202832360999992003032900004-12150-045000FM-12+044099999V0201801N001012200019N0200001N1+02371+02311101081ADDAY161061AY261061GF104991041041008001001001KA1240M+03231MA1999999096201MD1999999-0061MW1021REMSYN100AAXX  29004 83236 21598 41802 10237 20231 39620 40108 70266 84400 333 10323 29082 55095 59006 60021;
0190832360999992003032912004-12150-045000FM-12+044099999V0209999C000010075019N0100001N1+02521+02291101291ADDAY151061AY251061GF108991051051008001021999KA1240N+02211MA1999999096391MD1999999-0011MW1021REMSYN088AAXX  29124 83236 21597 80000 10252 20229 39639 40129 70255 8552/ 333 20221 59001 60024;
0167832360999992003032918004-12150-045000FM-12+044099999V0203601N003110450019N0100001N1+02841+02291100901ADDAA106000091GF108991041071008001021999MA1999999096031MD1999999-0021REMSYN070AAXX  29184 83236 32597 83606 10284 20229 39603 40090 8472/ 333 59002;EQDQ01  00002PRCP06
0198832360999992003033000004-12150-045000FM-12+044099999V0201801N000510210019N0100001N1+02311+02181101101ADDAA106000091GF108991081021022501999999KA1240M+03041MA1999999096271MD1999999-0271REMSYN088AAXX  30004 83236 32897 81801 10231 20218 39627 40110 882// 333 10304 29086 55025 59027;EQDQ01  00002PRCP06
0186832360999992003033012004-12150-045000FM-12+044099999V0209999C000010450019N0200001N1+02441+02031101241ADDAA106000091GF106991011011008001031001KA1240N+02071MA1999999096341MD1999999-0051REMSYN076AAXX  30124 83236 32598 60000 10244 20203 39634 40124 81130 333 20207 59005;EQDQ01  00002PRCP06
0167832360999992003033018004-12150-045000FM-12+044099999V0200501N002110450019N0200001N1+03011+02141100711ADDAA106000091GF106991031031008001051051MA1999999095871MD1999999-0161REMSYN070AAXX  30184 83236 32598 60504 10301 20214 39587 40071 83355 333 59016;EQDQ01  00002PRCP06
0202832360999992003033100004-12150-045000FM-12+044099999V0202301N002610075019N0200001N1+02361+02131100971ADDAY151061AY251061GF106991051051008001071031KA1240M+03131MA1999999096081MD1999999-0191MW1131REMSYN100AAXX  31004 83236 21598 62305 10236 20213 39608 40097 71355 85573 333 10313 29078 55046 59019 69921;
0162832360999992003033112004-12150-045000FM-12+044099999V0202301N001512200019N0200001N1+02581+02251101141ADDGF104991011011008001001051KA1240N+02191MA1999999096251MD1999999-0091REMSYN082AAXX  31124 83236 22598 42303 10258 20225 39625 40114 81105 333 20219 59009 69924;
0195832360999992003033118004-12150-045000FM-12+044099999V0201401N006210075019N0200001N1+02741+02171100771ADDAA106000091AY101061AY221061GF107991071071008001001001MA1999999095901MD1999999+0031MW1151REMSYN076AAXX  31184 83236 31598 71412 10274 20217 39590 40077 71502 87700 333 58003;EQDQ01  00002PRCP06
0202832360999992003040100004-12150-045000FM-12+044099999V0209999C000010450019N0100001N1+02361+02281101051ADDAY151061AY251061GF108991031071008001021999KA1240M+03131MA1999999096161MD1999999+0081MW1021REMSYN100AAXX  01004 83236 21597 80000 10236 20228 39616 40105 70255 8372/ 333 10313 29086 55064 58008 60021;
0162832360999992003040112004-12150-045000FM-12+044099999V0202701N000512200019N0200001N1+02541+02211101291ADDGF104991011011008001031001KA1240N+02111MA1999999096391MD1999999+0141REMSYN082AAXX  01124 83236 22598 42701 10254 20221 39639 40129 81130 333 20211 58014 60024;
0167832360999992003040118004-12150-045000FM-12+044099999V0200901N001511050019N0200001N1+03151+02161100741ADDAA106000091GF105991021021008001001021MA1999999096911MD1999999+0011REMSYN070AAXX  01184 83236 32598 50903 10315 20216 39691 40074 82202 333 58001;EQDQ01  00002PRCP06
0226832360999992003040200004-12150-045000FM-12+044099999V0202701N001512200019N0200001N1+02401+02261101161ADDAA106000091AY101061AY221061GF104991041071008001001001KA1240M+03251MA1999999096271MD1999999+0111MW1131REMSYN094AAXX  02004 83236 31598 42703 10240 20226 39627 40116 71302 84700 333 10325 29080 55074 58011;EQDQ01  00002PRCP06
0190832360999992003040212004-12150-045000FM-12+044099999V0209999C000010450019N0200001N1+02541+02251101361ADDAY161061AY261061GF105991021011008001031001KA1240N+02211MA1999999096461MD1999999+0071MW1021REMSYN088AAXX  02124 83236 21598 50000 10254 20225 39646 40136 70266 82130 333 20221 58007 60394;
0167832360999992003040218004-12150-045000FM-12+044099999V0200501N002112200019N0200001N1+03031+02211100901ADDAA106000091GF104991021011008001041001MA1999999096051MD1999999+0141REMSYN070AAXX  02184 83236 32598 40504 10303 20221 39605 40090 82140 333 58014;EQDQ01  00002PRCP06
0210832360999992003040300004-12150-045000FM-12+044099999V0202301N001510075019N0100001N1+02481+02291101141ADDAA106000091GF108991051051008001021999KA1999M+03111KA2999N+00811MA1999999096261MD1999999-0011REMSYN087AAXX  03004 83236 32597 82303 10248 20229 39626 40114 8552/333 10311 29081 55093 59001;EQDQ01  00002PRCP06
0190832360999992003040312004-12150-045000FM-12+044099999V0201401N001510075019N0200001N1+02521+02331101261ADDAY151061AY251061GF107991071051008001001001KA1240N+02271MA1999999096371MD1999999-0091MW1021REMSYN088AAXX  03124 83236 21598 71403 10252 20233 39637 40126 70255 87500 333 20227 59009 69924;
0167832360999992003040318004-12150-045000FM-12+044099999V0200501N002112200019N0200001N1+03081+02241100731ADDAA106000091GF103991021021008001041001MA1999999095911MD1999999-0141REMSYN070AAXX  03184 83236 32598 30504 10308 20224 39591 40073 82240 333 59014;EQDQ01  00002PRCP06
0226832360999992003040400004-12150-045000FM-12+044099999V0202301N001512200019N0200001N1+02481+02251100971ADDAA106000091AY101061AY221061GF103991031071008001001001KA1240M+03161MA1999999096101MD1999999-0161MW1131REMSYN094AAXX  04004 83236 31598 32303 10248 20225 39610 40097 71302 83700 333 10316 29081 55076 59016;EQDQ01  00002PRCP06
0186832360999992003040412004-12150-045000FM-12+044099999V0203201N000510075019N0200001N1+02531+02291101161ADDAA106000091GF106991061021008001001001KA1240N+02251MA1999999096281MD1999999-0091REMSYN076AAXX  04124 83236 32598 63201 10253 20229 39628 40116 86200 333 20225 59009;EQDQ01  00002PRCP06
0167832360999992003040418004-12150-045000FM-12+044099999V0203601N000512200019N0200001N1+03191+02251100621ADDAA106000091GF104991041021008001001001MA1999999095811MD1999999-0101REMSYN070AAXX  04184 83236 32598 43601 10319 20225 39581 40062 84200 333 59010;EQDQ01  00002PRCP06
0226832360999992003040500004-12150-045000FM-12+044099999V0209999C000012200019N0200001N1+02521+02361100891ADDAA106000091AY101061AY221061GF103991031071008001001001KA1240M+03301MA1999999096021MD1999999-0081MW1131REMSYN094AAXX  05004 83236 31598 30000 10252 20236 39602 40089 71302 83700 333 10330 29082 55080 59008;EQDQ01  00002PRCP06
0171832360999992003040512004-12150-045000FM-12+044099999V0209999C000019999999N0200001N1+02701+02331101181ADDAA106000091GF107991999999008001999999KA1240N+02251MA1999999096321REMSYN075AAXX  05124 83236 32598 70000 10270 20233 39632 40118 8275 333 20225 58004;EQDQ01  00002PRCP06
0167832360999992003040518004-12150-045000FM-12+044099999V0203601N002611050019N0200001N1+03221+02231100701ADDAA106000091GF106991041021008001001071MA1999999095881MD1999999+0071REMSYN070AAXX  05184 83236 32598 63605 10322 20223 39588 40070 84207 333 58007;EQDQ01  00002PRCP06
0226832360999992003040600004-12150-045000FM-12+044099999V0201401N001012200019N0200001N1+02501+02341100941ADDAA106000091AY121061AY221061GF103991031051008001001001KA1240M+03321MA1999999096101MD1999999+0081MW1131REMSYN094AAXX  06004 83236 31598 31402 10250 20234 39610 40094 71322 83500 333 10332 29080 55088 58008;EQDQ01  00002PRCP06
0186832360999992003040612004-12150-045000FM-12+044099999V0202301N002110075019N0200001N1+02671+02331101171ADDAA106000091GF107991051041008001061071KA1240N+02151MA1999999096311MD1999999-0011REMSYN076AAXX  06124 83236 32598 72304 10267 20233 39631 40117 85467 333 20215 59001;EQDQ01  00002PRCP06
0167832360999992003040618004-12150-045000FM-12+044099999V0203601N001010450019N0200001N1+03371+02071100591ADDAA106000091GF107991041031008001051071MA1999999095801MD1999999-0081REMSYN070AAXX  06184 83236 32598 73602 10337 20207 39580 40059 84357 333 59008;EQDQ01  00002PRCP06
0226832360999992003040700004-12150-045000FM-12+044099999V0200501N001012200019N0200001N1+02711+02281100801ADDAA106000091AY121061AY221061GF103991031051008001001001KA1240M+03461MA1999999095971MD1999999-0131MW1131REMSYN094AAXX  07004 83236 31598 30502 10271 20228 39597 40080 71322 83500 333 10346 29060 55081 59013;EQDQ01  00002PRCP06
0186832360999992003040712004-12150-045000FM-12+044099999V0209999C000010450019N0200001N1+02651+02291100901ADDAA106000091GF106991041021008001051071KA1240N+02201MA1999999096071MD1999999-0241REMSYN076AAXX  07124 83236 32598 60000 10265 20229 39607 40090 84257 333 20220 59024;EQDQ01  00002PRCP06
0195832360999992003040718004-12150-045000FM-12+044099999V0201401N004110075019N0200001N1+03221+02261100391ADDAA106000091AY121061AY221061GF108991071041008001071999MA1999999095591MD1999999-0111MW1151REMSYN076AAXX  07184 83236 31598 81408 10322 20226 39559 40039 71522 8747/ 333 59011;EQDQ01  00002PRCP06
0226832360999992003040800004-12150-045000FM-12+044099999V0201401N001012200019N0200001N1+02571+02351100781ADDAA106000091AY121061AY221061GF103991021051008001001031KA1240M+03531MA1999999095941MD1999999-0031MW1131REMSYN094AAXX  08004 83236 31598 31402 10257 20235 39594 40078 71322 82503 333 10353 29078 55076 59003;EQDQ01  00002PRCP06
0190832360999992003040812004-12150-045000FM-12+044099999V0209999C000010075019N0100001N1+02261+02121101151ADDAY191061AY261061GF108991071041008001071999KA1240N+02161MA1999999096251MD1999999+0181MW1031REMSYN088AAXX  08124 83236 21597 80000 10226 20212 39625 40115 70396 8747/ 333 20216 58018 60044;
0167832360999992003040818004-12150-045000FM-12+044099999V0201801N003110075019N0100001N1+02691+02261100651ADDAA106000091GF108991061021008001081999MA1999999095791MD1999999+0201REMSYN070AAXX  08184 83236 32597 81806 10269 20226 39579 40065 8628/ 333 58020;EQDQ01  00002PRCP06
0198832360999992003040900004-12150-045000FM-12+044099999V0201801N001012200019N0200001N1+02401+02281100971ADDAA106000091GF104991021021012501001051KA1240M+02881MA1999999096071MD1999999+0131REMSYN088AAXX  09004 83236 32698 41802 10240 20228 39607 40097 82205 333 10288 29089 55005 58013;EQDQ01  00002PRCP06
0190832360999992003040912004-12150-045000FM-12+044099999V0209999C000011050019N0200001N1+02531+02191101231ADDAY151061AY251061GF106991041021008001001051KA1240N+02181MA1999999096341MD1999999+0091MW1021REMSYN088AAXX  09124 83236 21598 60000 10253 20219 39634 40123 70255 84205 333 20218 58009 69934;
0167832360999992003040918004-12150-045000FM-12+044099999V0200501N002110450019N0200001N1+03181+02101100731ADDAA106000091GF105991041021008001071001MA1999999095911MD1999999+0121REMSYN070AAXX  09184 83236 32598 50504 10318 20210 39591 40073 84270 333 58012;EQDQ01  00002PRCP06
0226832360999992003041000004-12150-045000FM-12+044099999V0202301N001010450019N0200001N1+02531+02291101111ADDAA106000091AY121061AY221061GF106991041051008001071051KA1240M+03271MA1999999096241MD1999999+0171MW1131REMSYN094AAXX  10004 83236 31598 62302 10253 20229 39624 40111 71322 84575 333 10327 29077 55099 58017;EQDQ01  00002PRCP06
0186832360999992003041012004-12150-045000FM-12+044099999V0209999C000012200019N0200001N1+02621+02161101301ADDAA106000091GF104991021021012501001071KA1240N+02041MA1999999096421MD1999999+0081REMSYN076AAXX  10124 83236 32698 40000 10262 20216 39642 40130 82207 333 20204 58008;EQDQ01  00002PRCP06
0167832360999992003041018004-12150-045000FM-12+044099999V0203601N002611050019N0200001N1+03241+02001100861ADDAA106000091GF105991031021008001001051MA1999999096021MD1999999+0111REMSYN070AAXX  10184 83236 32598 53605 10324 20200 39602 40086 83205 333 58011;EQDQ01  00002PRCP06
0198832360999992003041100004-12150-045000FM-12+044099999V0201801N001512200019N0200001N1+02411+02171101051ADDAA106000091GF104991021021012501001071KA1240M+03371MA1999999096171MD1999999-0071REMSYN088AAXX  11004 83236 32698 41803 10241 20217 39617 40105 82207 333 10337 29075 55105 59007;EQDQ01  00002PRCP06
0186832360999992003041112004-12150-045000FM-12+044099999V0202701N001012200019N0200001N1+02551+02041101251ADDAA106000091GF102991021021012501001001KA1240N+01951MA1999999096361MD1999999-0061REMSYN076AAXX  11124 83236 32698 22702 10255 20204 39636 40125 82200 333 20195 59006;EQDQ01  00002PRCP06
0167832360999992003041118004-12150-045000FM-12+044099999V0203601N001012200019N0200001N1+03361+01851100711ADDAA106000091GF103991031021008001001001MA1999999095891MD1999999-0131REMSYN070AAXX  11184 83236 32598 33602 10336 20185 39589 40071 83200 333 59013;EQDQ01  00002PRCP06
0198832360999992003041200004-12150-045000FM-12+044099999V0209999C000010450019N0200001N1+02531+02211101021ADDAA106000091GF105991021021008001071051KA1240M+03481MA1999999096151MD1999999-0021REMSYN088AAXX  12004 83236 32598 50000 10253 20221 39615 40102 82275 333 10348 29070 55105 59002;EQDQ01  00002PRCP06
0186832360999992003041212004-12150-045000FM-12+044099999V0202301N001010450019N0200001N1+02601+02121101321ADDAA106000091GF105991021021012501061051KA1240N+02091MA1999999096441MD1999999+0081REMSYN076AAXX  12124 83236 32698 52302 10260 20212 39644 40132 82265 333 20209 58008;EQDQ01  00002PRCP06
0167832360999992003041218004-12150-045000FM-12+044099999V0201401N001012200019N0200001N1+03371+01771100851ADDAA106000091GF104991031021008001001071MA1999999096031MD1999999+0141REMSYN070AAXX  12184 83236 32598 41402 10337 20177 39603 40085 83207 333 58014;EQDQ01  00002PRCP06
0226832360999992003041300004-12150-045000FM-12+044099999V0202701N001010450019N0200001N1+02501+02191101181ADDAA106000091AY121061AY221061GF106991031051012501071051KA1240M+03541MA1999999096311MD1999999+0161MW1131REMSYN094AAXX  13004 83236 31698 62702 10250 20219 39631 40118 71322 83575 333 10354 29070 55102 58016;EQDQ01  00002PRCP06
0190832360999992003041312004-12150-045000FM-12+044099999V0201801N001010450019N0200001N1+02691+02061101391ADDAY151061AY251061GF105991031021008001061051KA1240N+02171MA1999999096521MD1999999+0081MW1021REMSYN088AAXX  13124 83236 21598 51802 10269 20206 39652 40139 70255 83265 333 20217 58008 69914;
0167832360999992003041318004-12150-045000FM-12+044099999V0200501N003612200019N0200001N1+03211+02031100951ADDAA106000091GF104991021021008001001071MA1999999096121MD1999999+0091REMSYN070AAXX  13184 83236 32598 40507 10321 20203 39612 40095 82207 333 58009;EQDQ01  00002PRCP06
0198832360999992003041400004-12150-045000FM-12+044099999V0201801N001511050019N0200001N1+02501+02071101281ADDAA106000091GF105991031001022501071051KA1240M+03351MA1999999096411MD1999999+0101REMSYN088AAXX  14004 83236 32898 51803 10250 20207 39641 40128 83075 333 10335 29068 55097 58010;EQDQ01  00002PRCP06
0190832360999992003041412004-12150-045000FM-12+044099999V0202301N001510075019N0100001N1+02361+02151101571ADDAY161061AY261061GF107991051041008001061051KA1240N+02141MA1999999096661MD1999999+0141MW1101REMSYN088AAXX  14124 83236 21597 72303 10236 20215 39666 40157 71066 85465 333 20214 58014 60424;
0186832360999992003041512004-12150-045000FM-12+044099999V0201801N002611050019N0200001N1+02501+01941101401ADDAA106000091GF105991021021012501051071KA1240N+02121MA1999999096501MD1999999-0161REMSYN076AAXX  15124 83236 32698 51805 10250 20194 39650 40140 82257 333 20212 59016;EQDQ01  00002PRCP06
0167832360999992003041518004-12150-045000FM-12+044099999V0203201N002110075019N0200001N1+03151+02161100931ADDAA106000091GF105991051041008001001001MA1999999096091MD1999999-0081REMSYN070AAXX  15184 83236 32598 53204 10315 20216 39609 40093 85400 333 59008;EQDQ01  00002PRCP06
0202832360999992003041600004-12150-045000FM-12+044099999V0209999C000012200019N0200001N1+02251+02101101191ADDAY161061AY261061GF103991001001999999001031KA1240M+03281MA1999999096291MD1999999-0181MW1021REMSYN100AAXX  16004 83236 21998 30000 10225 20210 39629 40119 70266 80003 333 10328 29078 55096 59018 60101;
0162832360999992003041612004-12150-045000FM-12+044099999V0202701N001010450019N0200001N1+02381+02031101351ADDGF106991031021008001061051KA1240N+02141MA1999999096421MD1999999-0081REMSYN082AAXX  16124 83236 22598 62702 10238 20203 39642 40135 83265 333 20214 59008 60104;
0171832360999992003041618004-12150-045000FM-12+044099999V0201401N001011050019N0200001N1+02991+01921100831ADDAY151061AY251061GF105991021031008001001051MA1999999095971MD1999999-0121MW1021REMSYN082AAXX  16184 83236 21598 51402 10299 20192 39597 40083 70255 82305 333 59012 69921;
0198832360999992003041700004-12150-045000FM-12+044099999V0209999C000012200019N0200001N1+02421+02211101101ADDAA106000091GF103991031001022501051001KA1240M+03241MA1999999096201MD1999999-0031REMSYN088AAXX  17004 83236 32898 30000 10242 20221 39620 40110 83050 333 10324 29078 55076 59003;EQDQ01  00002PRCP06
0174832360999992003041712004-12150-045000FM-12+044099999V0200901N001011050019N0200001N1+02511+01891101401ADDGF105991021021012501001071KA1240N+02011MA1999999096501MD1999999+0081REMSYN094AAXX  17124 83236 22698 50902 10251 20189 39650 40140 82207 333 20201 29078 55076 58008 69924;
0167832360999992003041718004-12150-045000FM-12+044099999V0209999C000011050019N0200001N1+03101+02061100861ADDAA106000091GF105991041021008001001031MA1999999096011MD1999999+0041REMSYN070AAXX  17184 83236 32598 50000 10310 20206 39601 40086 84203 333 58004;EQDQ01  00002PRCP06
0198832360999992003041800004-12150-045000FM-12+044099999V0202301N002112200019N0200001N1+02351+02171101071ADDAA106000091GF103991021021012501001051KA1240M+03251MA1999999096181MD1999999-0081REMSYN088AAXX  18004 83236 32698 32304 10235 20217 39618 40107 82205 333 10325 29076 55101 59008;EQDQ01  00002PRCP06
0202832360999992003041812004-12150-045000FM-12+044099999V0202301N001010450019N0200001N1+02501+02111101361ADDAY151061AY251061GF106991031021012501061051KA1240N+02241MA1999999096451MD1999999-0051MW1021REMSYN100AAXX  18124 83236 21698 62302 10250 20211 39645 40136 70255 83265 333 20224 29078 55076 59005 69914;
0167832360999992003041818004-12150-045000FM-12+044099999V0203601N001512200019N0200001N1+03191+01981100871ADDAA106000091GF103991031021008001001001MA1999999096051MD1999999+0041REMSYN070AAXX  18184 83236 32598 33603 10319 20198 39605 40087 83200 333 58004;EQDQ01  00002PRCP06
0198832360999992003041900004-12150-045000FM-12+044099999V0209999C000012200019N0200001N1+02471+02131101131ADDAA106000091GF102991021021012501001001KA1240M+03281MA1999999096251MD1999999+0071REMSYN088AAXX  19004 83236 32698 20000 10247 20213 39625 40113 82200 333 10328 29073 55080 58007;EQDQ01  00002PRCP06
0186832360999992003041912004-12150-045000FM-12+044099999V0209999C000012200019N0200001N1+02511+01841101421ADDAA106000091GF102991021011012501001001KA1240N+02111MA1999999096531MD1999999+0081REMSYN076AAXX  19124 83236 32698 20000 10251 20184 39653 40142 82100 333 20211 58008;EQDQ01  00002PRCP06
0167832360999992003041918004-12150-045000FM-12+044099999V0202701N001512200019N0200001N1+03211+01931101011ADDAA106000091GF104991041021012501001001MA1999999096171MD1999999+0121REMSYN070AAXX  19184 83236 32698 42703 10321 20193 39617 40101 84200 333 58012;EQDQ01  00002PRCP06
0198832360999992003042000004-12150-045000FM-12+044099999V0202701N001012200019N0200001N1+02341+02091101101ADDAA106000091GF102991021021012501001001KA1240M+03321MA1999999096201MD1999999-0051REMSYN088AAXX  20004 83236 32698 22702 10234 20209 39620 40110 82200 333 10332 29072 55107 59005;EQDQ01  00002PRCP06
0196832360999992003042012004-12150-045000FM-12+044099999V0202301N001012200019N0200001N1+02541+01981101251ADDAA106000091GA1001+999999999GF100991001001999999001001KA1240N+02081MA1999999096381MD1999999-0151REMSYN070AAXX  20124 83236 32998 02302 10254 20198 39638 40125 333 20208 59015;EQDQ01  00002PRCP06
0167832360999992003042018004-12150-045000FM-12+044099999V0201401N002112200019N0200001N1+03221+01981100701ADDAA106000091GF105991031021008001001041MA1999999095881MD1999999-0291REMSYN070AAXX  20184 83236 32598 51404 10322 20198 39588 40070 83204 333 59029;EQDQ01  00002PRCP06
0208832360999992003042100004-12150-045000FM-12+044099999V0209999C000012200019N0200001N1+02321+02201100941ADDAA106000091GA1001+999999999GF100991001001999999001001KA1240M+03341MA1999999096061MD1999999-0141REMSYN082AAXX  21004 83236 32998 00000 10232 20220 39606 40094 333 10334 29076 55090 59014;EQDQ01  00002PRCP06
0186832360999992003042112004-12150-045000FM-12+044099999V0201801N001012200019N0200001N1+02481+01901101351ADDAA106000091GF102991001001999999001041KA1240N+01861MA1999999096441MD1999999+0061REMSYN076AAXX  21124 83236 32998 21802 10248 20190 39644 40135 80004 333 20186 58006;EQDQ01  00002PRCP06
0167832360999992003042118004-12150-045000FM-12+044099999V0201401N002612200019N0200001N1+03111+01701100891ADDAA106000091GF102991021011008001001001MA1999999096041MD1999999+0161REMSYN070AAXX  21184 83236 32598 21405 10311 20170 39604 40089 82100 333 58016;EQDQ01  00002PRCP06
0208832360999992003042200004-12150-045000FM-12+044099999V0209999C000012200019N0200001N1+02181+01971101141ADDAA106000091GA1001+999999999GF100991001001999999001001KA1240M+03231MA1999999096231MD1999999+0171REMSYN082AAXX  22004 83236 32998 00000 10218 20197 39623 40114 333 10323 29072 55106 58017;EQDQ01  00002PRCP06
0196832360999992003042212004-12150-045000FM-12+044099999V0201401N001512200019N0200001N1+02441+01901101411ADDAA106000091GA1001+999999999GF100991001001999999001001KA1240N+01861MA1999999096471MD1999999+0031REMSYN070AAXX  22124 83236 32998 01403 10244 20190 39647 40141 333 20186 58003;EQDQ01  00002PRCP06
0177832360999992003042218004-12150-045000FM-12+044099999V0201401N003612200019N0200001N1+03091+01781100941ADDAA106000091GA1001+999999999GF100991001001999999001001MA1999999096081MD1999999+0041REMSYN064AAXX  22184 83236 32998 01407 10309 20178 39608 40094 333 58004;EQDQ01  00002PRCP06
0198832360999992003042300004-12150-045000FM-12+044099999V0202701N001012200019N0200001N1+02221+01991101241ADDAA106000091GF103991031021008001001001KA1240M+03231MA1999999096331MD1999999+0101REMSYN088AAXX  23004 83236 32598 32702 10222 20199 39633 40124 83200 333 10323 29073 55108 58010;EQDQ01  00002PRCP06
0196832360999992003042312004-12150-045000FM-12+044099999V0202301N001512200019N0200001N1+02351+01851101471ADDAA106000091GA1001+999999999GF100991001001999999001001KA1240N+01831MA1999999096531MD1999999+0061REMSYN070AAXX  23124 83236 32998 02303 10235 20185 39653 40147 333 20183 58006;EQDQ01  00002PRCP06
0167832360999992003042318004-12150-045000FM-12+044099999V0201401N003112200019N0200001N1+03131+02021100891ADDAA106000091GF104991041021008001001001MA1999999096031MD1999999-0051REMSYN070AAXX  23184 83236 32598 41406 10313 20202 39603 40089 84200 333 59005;EQDQ01  00002PRCP06
0198832360999992003042400004-12150-045000FM-12+044099999V0202701N001012200019N0200001N1+02561+02021101181ADDAA106000091GF104991041081008001001001KA1240M+03251MA1999999096291MD1999999-0041REMSYN088AAXX  24004 83236 32598 42702 10256 20202 39629 40118 84800 333 10325 29068 55106 59004;EQDQ01  00002PRCP06
0186832360999992003042412004-12150-045000FM-12+044099999V0201801N004112200019N0200001N1+02491+01941101491ADDAA106000091GF103991021011008001061001KA1240N+02011MA1999999096591MD1999999+0061REMSYN076AAXX  24124 83236 32598 31808 10249 20194 39659 40149 82160 333 20201 58006;EQDQ01  00002PRCP06
0167832360999992003042418004-12150-045000FM-12+044099999V0200901N001512200019N0200001N1+03101+02001100931ADDAA106000091GF104991031021008001001071MA1999999096091MD1999999+0061REMSYN070AAXX  24184 83236 32598 40903 10310 20200 39609 40093 83207 333 58006;EQDQ01  00002PRCP06
0208832360999992003042500004-12150-045000FM-12+044099999V0209999C000012200019N0200001N1+02251+02051101151ADDAA106000091GA1001+999999999GF100991001001999999001001KA1240M+03241MA1999999096241MD1999999-0051REMSYN082AAXX  25004 83236 32998 00000 10225 20205 39624 40115 333 10324 29076 55107 59005;EQDQ01  00002PRCP06
0186832360999992003042512004-12150-045000FM-12+044099999V0201801N002611050019N0200001N1+02461+02031101381ADDAA106000091GF106991011011008001031061KA1240N+01951MA1999999096461MD1999999-0131REMSYN076AAXX  25124 83236 32598 61805 10246 20203 39646 40138 81136 333 20195 59013;EQDQ01  00002PRCP06
0167832360999992003042518004-12150-045000FM-12+044099999V0202301N002112200019N0200001N1+03011+02111100911ADDAA106000091GF106991041021008001001041MA1999999096041MD1999999-0051REMSYN070AAXX  25184 83236 32598 62304 10301 20211 39604 40091 84204 333 59005;EQDQ01  00002PRCP06
0208832360999992003042600004-12150-045000FM-12+044099999V0202701N002112200019N0200001N1+02331+02071101221ADDAA106000091GA1001+999999999GF100991001001999999001001KA1240M+03251MA1999999096321MD1999999+0081REMSYN082AAXX  26004 83236 32998 02704 10233 20207 39632 40122 333 10325 29077 55087 58008;EQDQ01  00002PRCP06
0186832360999992003042612004-12150-045000FM-12+044099999V0202301N001012200019N0200001N1+02481+01961101491ADDAA106000091GF103991011001022501041081KA1240N+01841MA1999999096571MD1999999+0111REMSYN076AAXX  26124 83236 32898 32302 10248 20196 39657 40149 81048 333 20184 58011;EQDQ01  00002PRCP06
0167832360999992003042618004-12150-045000FM-12+044099999V0203601N001012200019N0200001N1+03291+02081101091ADDAA106000091GF104991041021008001001001MA1999999096231MD1999999+0191REMSYN070AAXX  26184 83236 32598 43602 10329 20208 39623 40109 84200 333 58019;EQDQ01  00002PRCP06
0198832360999992003042700004-12150-045000FM-12+044099999V0201801N000512200019N0200001N1+02371+02131101321ADDAA106000091GF103991031001022501061001KA1240M+03411MA1999999096411MD1999999+0091REMSYN088AAXX  27004 83236 32898 31801 10237 20213 39641 40132 83060 333 10341 29074 55103 58009;EQDQ01  00002PRCP06
0186832360999992003042712004-12150-045000FM-12+044099999V0202701N001519999999N0200001N1+02301+02091101541ADDAA106000091GF106991001001999999001061KA1240N+01931MA1999999096611MD1999999+0041REMSYN076AAXX  27124 83236 32998 62703 10230 20209 39661 40154 80006 333 20193 58004;EQDQ01  00002PRCP06
0167832360999992003042718004-12150-045000FM-12+044099999V0201401N003111050019N0200001N1+03171+01991101001ADDAA106000091GF105991031021008001001021MA1999999096141MD1999999-0091REMSYN070AAXX  27184 83236 32598 51406 10317 20199 39614 40100 83202 333 59009;EQDQ01  00002PRCP06
0208832360999992003042800004-12150-045000FM-12+044099999V0202701N001012200019N0200001N1+02271+02071101261ADDAA106000091GA1001+999999999GF100991001001999999001001KA1240M+03281MA1999999096341MD1999999-0071REMSYN082AAXX  28004 83236 32998 02702 10227 20207 39634 40126 333 10328 29079 55073 59007;EQDQ01  00002PRCP06
0186832360999992003042812004-12150-045000FM-12+044099999V0202301N000512200019N0200001N1+02461+01991101391ADDAA106000091GF102991001001999999001021KA1240N+01881MA1999999096471MD1999999-0141REMSYN076AAXX  28124 83236 32998 22301 10246 20199 39647 40139 80002 333 20188 59014;EQDQ01  00002PRCP06
0167832360999992003042818004-12150-045000FM-12+044099999V0201801N002111050019N0200001N1+03291+01861100831ADDAA106000091GF105991041021008001001021MA1999999095981MD1999999-0161REMSYN070AAXX  28184 83236 32598 51804 10329 20186 39598 40083 84202 333 59016;EQDQ01  00002PRCP06
0198832360999992003042900004-12150-045000FM-12+044099999V0202301N001012200019N0200001N1+02401+02211101071ADDAA106000091GF103991031021008001001001KA1240M+03451MA1999999096181MD1999999-0161REMSYN088AAXX  29004 83236 32598 32302 10240 20221 39618 40107 83200 333 10345 29074 55102 59016;EQDQ01  00002PRCP06
0186832360999992003042912004-12150-045000FM-12+044099999V0209999C000012200019N0200001N1+02481+02051101371ADDAA106000091GF102991021001022501041001KA1240N+01931MA1999999096471MD1999999+0001REMSYN076AAXX  29124 83236 32898 20000 10248 20205 39647 40137 82040 333 20193 58000;EQDQ01  00002PRCP06
0167832360999992003042918004-12150-045000FM-12+044099999V0202701N001512200019N0200001N1+03341+01951100851ADDAA106000091GF104991041021008001001001MA1999999096021MD1999999+0041REMSYN070AAXX  29184 83236 32598 42703 10334 20195 39602 40085 84200 333 58004;EQDQ01  00002PRCP06
0198832360999992003043000004-12150-045000FM-12+044099999V0209999C000012200019N0200001N1+02421+02251101131ADDAA106000091GF103991031021008001001001KA1240M+03461MA1999999096241MD1999999+0061REMSYN088AAXX  30004 83236 32598 30000 10242 20225 39624 40113 83200 333 10346 29075 55105 58006;EQDQ01  00002PRCP06
0186832360999992003043012004-12150-045000FM-12+044099999V0209999C000012200019N0200001N1+02581+02011101381ADDAA106000091GF103991031001022501081001KA1240N+02061MA1999999096491MD1999999+0021REMSYN076AAXX  30124 83236 32898 30000 10258 20201 39649 40138 83080 333 20206 58002;EQDQ01  00002PRCP06
0167832360999992003043018004-12150-045000FM-12+044099999V0203201N001512200019N0200001N1+03341+01911100911ADDAA106000091GF104991041021008001001001MA1999999096081MD1999999+0061REMSYN070AAXX  30184 83236 32598 43203 10334 20191 39608 40091 84200 333 58006;EQDQ01  00002PRCP06
0208832360999992003050100004-12150-045000FM-12+044099999V0202301N001012200019N0200001N1+02421+02211101141ADDAA106000091GA1001+999999999GF100991001001999999001001KA1240M+03491MA1999999096261MD1999999+0021REMSYN082AAXX  01004 83236 32998 02302 10242 20221 39626 40114 333 10349 29072 55103 58002;EQDQ01  00002PRCP06
0186832360999992003050112004-12150-045000FM-12+044099999V0203601N001012200019N0200001N1+02581+02191101501ADDAA106000091GF103991031041008001001001KA1240N+02131MA1999999096601MD1999999+0111REMSYN076AAXX  01124 83236 32598 33602 10258 20219 39660 40150 83400 333 20213 58011;EQDQ01  00002PRCP06
0167832360999992003050118004-12150-045000FM-12+044099999V0203601N001512200019N0200001N1+03271+01881100921ADDAA106000091GF104991031021008001001071MA1999999096091MD1999999+0011REMSYN070AAXX  01184 83236 32598 43603 10327 20188 39609 40092 83207 333 58001;EQDQ01  00002PRCP06
0208832360999992003050200004-12150-045000FM-12+044099999V0201801N001012200019N0200001N1+02441+02251101121ADDAA106000091GA1001+999999999GF100991001001999999001001KA1240M+03411MA1999999096241MD1999999-0021REMSYN082AAXX  02004 83236 32998 01802 10244 20225 39624 40112 333 10341 29075 55085 59002;EQDQ01  00002PRCP06
0186832360999992003050212004-12150-045000FM-12+044099999V0202301N001512200019N0200001N1+02461+02091101311ADDAA106000091GF104991011011008001001071KA1240N+01921MA1999999096411MD1999999-0191REMSYN076AAXX  02124 83236 32598 42303 10246 20209 39641 40131 81107 333 20192 59019;EQDQ01  00002PRCP06
0167832360999992003050218004-12150-045000FM-12+044099999V0203201N001512200019N0200001N1+03431+01781100701ADDAA106000091GF103991031021008001001001MA1999999095881MD1999999-0211REMSYN070AAXX  02184 83236 32598 33203 10343 20178 39588 40070 83200 333 59021;EQDQ01  00002PRCP06
0198832360999992003050300004-12150-045000FM-12+044099999V0202701N001012200019N0200001N1+02461+02211100861ADDAA106000091GF102991021001022501061001KA1240M+03531MA1999999095981MD1999999-0261REMSYN088AAXX  03004 83236 32898 22702 10246 20221 39598 40086 82060 333 10353 29072 55100 59026;EQDQ01  00002PRCP06
0186832360999992003050312004-12150-045000FM-12+044099999V0203601N001010075019N0200001N1+02411+02261101211ADDAA106000091GF107991071051008001001001KA1240N+02091MA1999999096321MD1999999-0091REMSYN076AAXX  03124 83236 32598 73602 10241 20226 39632 40121 87500 333 20209 59009;EQDQ01  00002PRCP06
0171832360999992003050318004-12150-045000FM-12+044099999V0203201N001510450019N0200001N1+02691+02311100861ADDAY161061AY261061GF107991041071008001021001MA1999999095971MD1999999+0091MW1131REMSYN082AAXX  03184 83236 21598 73203 10269 20231 39597 40086 71366 84720 333 58009 60021;
0198832360999992003050400004-12150-045000FM-12+044099999V0203601N001012200019N0200001N1+02321+02251101021ADDAA106000091GF104991041001022501021001KA1240M+03411MA1999999096121MD1999999+0141REMSYN088AAXX  04004 83236 32898 43602 10232 20225 39612 40102 84020 333 10341 29091 55011 58014;EQDQ01  00002PRCP06
0162832360999992003050412004-12150-045000FM-12+044099999V0202701N001010450019N0200001N1+02341+02111101271ADDGF106991041081008001011001KA1240N+01971MA1999999096351MD1999999+0031REMSYN082AAXX  04124 83236 22598 62702 10234 20211 39635 40127 84810 333 20197 58003 60024;
0167832360999992003050418004-12150-045000FM-12+044099999V0200901N002112200019N0200001N1+03131+02111100821ADDAA106000091GF105991041021008001001041MA1999999095961MD1999999-0011REMSYN070AAXX  04184 83236 32598 50904 10313 20211 39596 40082 84204 333 59001;EQDQ01  00002PRCP06
0242832360999992003050500004-12150-045000FM-12+044099999V0200501N006219999999N0200001N1+02441+02111101201ADDAA106000091AY101061AY221061GF105991999071008001001001KA1240M+03301MA1999999096301MD1999999+0181MW1131REMSYN094AAXX  05004 83236 31598 50512 10244 20211 39630 40120 71302 84700 333 10330 29076 55068 58018;EQDQ01+000042SCOTLCQ02  00002PRCP06
0186832360999992003050512004-12150-045000FM-12+044099999V0200501N002110450019N0200001N1+02501+02131101451ADDAA106000091GF105991041021012501051001KA1240N+02081MA1999999096541MD1999999+0191REMSYN076AAXX  05124 83236 32698 50504 10250 20213 39654 40145 84250 333 20208 58019;EQDQ01  00002PRCP06
0195832360999992003050518004-12150-045000FM-12+044099999V0200901N002110075019N0200001N1+03051+01911101011ADDAA106000091AY121061AY221061GF106991051051008001071051MA1999999096151MD1999999+0191MW1161REMSYN076AAXX  05184 83236 31598 60904 10305 20191 39615 40101 71622 85575 333 58019;EQDQ01  00002PRCP06
0198832360999992003050600004-12150-045000FM-12+044099999V0209999C000012200019N0200001N1+02281+02131101141ADDAA106000091GF102991021021008001001001KA1240M+03161MA1999999096241MD1999999-0061REMSYN088AAXX  06004 83236 32598 20000 10228 20213 39624 40114 82200 333 10316 29078 55070 59006;EQDQ01  00002PRCP06
0186832360999992003050612004-12150-045000FM-12+044099999V0200501N001511050019N0200001N1+02421+02011101371ADDAA106000091GF105991031001022501071051KA1240N+01831MA1999999096451MD1999999-0091REMSYN076AAXX  06124 83236 32898 50503 10242 20201 39645 40137 83075 333 20183 59009;EQDQ01  00002PRCP06
